{
	"msc_token/BeeToken.sol": {
		"Bee": {
			"abi": [
				{
					"inputs": [],
					"stateMutability": "nonpayable",
					"type": "constructor"
				},
				{
					"anonymous": false,
					"inputs": [
						{
							"indexed": true,
							"internalType": "address",
							"name": "owner",
							"type": "address"
						},
						{
							"indexed": true,
							"internalType": "address",
							"name": "spender",
							"type": "address"
						},
						{
							"indexed": false,
							"internalType": "uint256",
							"name": "value",
							"type": "uint256"
						}
					],
					"name": "Approval",
					"type": "event"
				},
				{
					"anonymous": false,
					"inputs": [
						{
							"indexed": true,
							"internalType": "address",
							"name": "previousOwner",
							"type": "address"
						},
						{
							"indexed": true,
							"internalType": "address",
							"name": "newOwner",
							"type": "address"
						}
					],
					"name": "OwnershipTransferred",
					"type": "event"
				},
				{
					"anonymous": false,
					"inputs": [
						{
							"indexed": true,
							"internalType": "address",
							"name": "from",
							"type": "address"
						},
						{
							"indexed": true,
							"internalType": "address",
							"name": "to",
							"type": "address"
						},
						{
							"indexed": false,
							"internalType": "uint256",
							"name": "value",
							"type": "uint256"
						}
					],
					"name": "Transfer",
					"type": "event"
				},
				{
					"inputs": [
						{
							"internalType": "address",
							"name": "",
							"type": "address"
						}
					],
					"name": "DEXs",
					"outputs": [
						{
							"internalType": "bool",
							"name": "",
							"type": "bool"
						}
					],
					"stateMutability": "view",
					"type": "function"
				},
				{
					"inputs": [
						{
							"internalType": "address",
							"name": "_pair",
							"type": "address"
						}
					],
					"name": "addDex",
					"outputs": [],
					"stateMutability": "nonpayable",
					"type": "function"
				},
				{
					"inputs": [
						{
							"internalType": "address",
							"name": "owner",
							"type": "address"
						},
						{
							"internalType": "address",
							"name": "spender",
							"type": "address"
						}
					],
					"name": "allowance",
					"outputs": [
						{
							"internalType": "uint256",
							"name": "",
							"type": "uint256"
						}
					],
					"stateMutability": "view",
					"type": "function"
				},
				{
					"inputs": [
						{
							"internalType": "address",
							"name": "spender",
							"type": "address"
						},
						{
							"internalType": "uint256",
							"name": "amount",
							"type": "uint256"
						}
					],
					"name": "approve",
					"outputs": [
						{
							"internalType": "bool",
							"name": "",
							"type": "bool"
						}
					],
					"stateMutability": "nonpayable",
					"type": "function"
				},
				{
					"inputs": [
						{
							"internalType": "address",
							"name": "account",
							"type": "address"
						}
					],
					"name": "balanceOf",
					"outputs": [
						{
							"internalType": "uint256",
							"name": "",
							"type": "uint256"
						}
					],
					"stateMutability": "view",
					"type": "function"
				},
				{
					"inputs": [
						{
							"internalType": "uint256",
							"name": "amount",
							"type": "uint256"
						}
					],
					"name": "burn",
					"outputs": [],
					"stateMutability": "nonpayable",
					"type": "function"
				},
				{
					"inputs": [],
					"name": "decimals",
					"outputs": [
						{
							"internalType": "uint8",
							"name": "",
							"type": "uint8"
						}
					],
					"stateMutability": "view",
					"type": "function"
				},
				{
					"inputs": [
						{
							"internalType": "address",
							"name": "spender",
							"type": "address"
						},
						{
							"internalType": "uint256",
							"name": "subtractedValue",
							"type": "uint256"
						}
					],
					"name": "decreaseAllowance",
					"outputs": [
						{
							"internalType": "bool",
							"name": "",
							"type": "bool"
						}
					],
					"stateMutability": "nonpayable",
					"type": "function"
				},
				{
					"inputs": [
						{
							"internalType": "address",
							"name": "_lp",
							"type": "address"
						}
					],
					"name": "deliver",
					"outputs": [],
					"stateMutability": "nonpayable",
					"type": "function"
				},
				{
					"inputs": [
						{
							"internalType": "address",
							"name": "spender",
							"type": "address"
						},
						{
							"internalType": "uint256",
							"name": "addedValue",
							"type": "uint256"
						}
					],
					"name": "increaseAllowance",
					"outputs": [
						{
							"internalType": "bool",
							"name": "",
							"type": "bool"
						}
					],
					"stateMutability": "nonpayable",
					"type": "function"
				},
				{
					"inputs": [],
					"name": "marketAddress",
					"outputs": [
						{
							"internalType": "address",
							"name": "",
							"type": "address"
						}
					],
					"stateMutability": "view",
					"type": "function"
				},
				{
					"inputs": [],
					"name": "name",
					"outputs": [
						{
							"internalType": "string",
							"name": "",
							"type": "string"
						}
					],
					"stateMutability": "view",
					"type": "function"
				},
				{
					"inputs": [],
					"name": "owner",
					"outputs": [
						{
							"internalType": "address",
							"name": "",
							"type": "address"
						}
					],
					"stateMutability": "view",
					"type": "function"
				},
				{
					"inputs": [],
					"name": "renounceOwnership",
					"outputs": [],
					"stateMutability": "nonpayable",
					"type": "function"
				},
				{
					"inputs": [
						{
							"internalType": "address",
							"name": "addr",
							"type": "address"
						}
					],
					"name": "setExcludeds",
					"outputs": [],
					"stateMutability": "nonpayable",
					"type": "function"
				},
				{
					"inputs": [
						{
							"internalType": "address",
							"name": "addr",
							"type": "address"
						}
					],
					"name": "setMarketAddress",
					"outputs": [],
					"stateMutability": "nonpayable",
					"type": "function"
				},
				{
					"inputs": [],
					"name": "symbol",
					"outputs": [
						{
							"internalType": "string",
							"name": "",
							"type": "string"
						}
					],
					"stateMutability": "view",
					"type": "function"
				},
				{
					"inputs": [],
					"name": "totalSupply",
					"outputs": [
						{
							"internalType": "uint256",
							"name": "",
							"type": "uint256"
						}
					],
					"stateMutability": "view",
					"type": "function"
				},
				{
					"inputs": [
						{
							"internalType": "address",
							"name": "recipient",
							"type": "address"
						},
						{
							"internalType": "uint256",
							"name": "amount",
							"type": "uint256"
						}
					],
					"name": "transfer",
					"outputs": [
						{
							"internalType": "bool",
							"name": "",
							"type": "bool"
						}
					],
					"stateMutability": "nonpayable",
					"type": "function"
				},
				{
					"inputs": [
						{
							"internalType": "address",
							"name": "sender",
							"type": "address"
						},
						{
							"internalType": "address",
							"name": "recipient",
							"type": "address"
						},
						{
							"internalType": "uint256",
							"name": "amount",
							"type": "uint256"
						}
					],
					"name": "transferFrom",
					"outputs": [
						{
							"internalType": "bool",
							"name": "",
							"type": "bool"
						}
					],
					"stateMutability": "nonpayable",
					"type": "function"
				},
				{
					"inputs": [
						{
							"internalType": "address",
							"name": "newOwner",
							"type": "address"
						}
					],
					"name": "transferOwnership",
					"outputs": [],
					"stateMutability": "nonpayable",
					"type": "function"
				},
				{
					"inputs": [],
					"name": "uniswapV2Pair",
					"outputs": [
						{
							"internalType": "address",
							"name": "",
							"type": "address"
						}
					],
					"stateMutability": "view",
					"type": "function"
				},
				{
					"inputs": [],
					"name": "uniswapV2Router",
					"outputs": [
						{
							"internalType": "contract IPancakeSwapV2Router02",
							"name": "",
							"type": "address"
						}
					],
					"stateMutability": "view",
					"type": "function"
				},
				{
					"stateMutability": "payable",
					"type": "receive"
				}
			],
			"devdoc": {
				"kind": "dev",
				"methods": {
					"owner()": {
						"details": "Returns the address of the current owner."
					},
					"renounceOwnership()": {
						"details": "Leaves the contract without owner. It will not be possible to call `onlyOwner` functions anymore. Can only be called by the current owner. NOTE: Renouncing ownership will leave the contract without an owner, thereby removing any functionality that is only available to the owner."
					},
					"transferOwnership(address)": {
						"details": "Transfers ownership of the contract to a new account (`newOwner`). Can only be called by the current owner."
					}
				},
				"version": 1
			},
			"evm": {
				"assembly": "    /* \"msc_token/BeeToken.sol\":15231:21806  contract Bee is Context, IERC20, IERC20Metadata, Ownable{... */\n  mstore(0x40, 0xc0)\n    /* \"msc_token/BeeToken.sol\":15780:15853  address public marketAddress = 0xe3e90697218F31B8d0867b8A9c52947D3c888339 */\n  0x08\n  dup1\n  sload\n  not(sub(shl(0xa0, 0x01), 0x01))\n  and\n    /* \"msc_token/BeeToken.sol\":15811:15853  0xe3e90697218F31B8d0867b8A9c52947D3c888339 */\n  0xe3e90697218f31b8d0867b8a9c52947d3c888339\n    /* \"msc_token/BeeToken.sol\":15780:15853  address public marketAddress = 0xe3e90697218F31B8d0867b8A9c52947D3c888339 */\n  or\n  swap1\n  sstore\n    /* \"msc_token/BeeToken.sol\":15866:16557  constructor () {... */\n  callvalue\n  dup1\n  iszero\n  tag_1\n  jumpi\n  0x00\n  dup1\n  revert\ntag_1:\n  pop\n    /* \"msc_token/BeeToken.sol\":3049:3081  _transferOwnership(_msgSender()) */\n  tag_5\n    /* \"msc_token/BeeToken.sol\":2612:2622  msg.sender */\n  caller\n    /* \"msc_token/BeeToken.sol\":3049:3067  _transferOwnership */\n  tag_8\n    /* \"msc_token/BeeToken.sol\":3049:3081  _transferOwnership(_msgSender()) */\n  jump\t// in\ntag_5:\n    /* \"msc_token/BeeToken.sol\":15892:15928  _mint(_msgSender(), 21000000 * 1e18) */\n  tag_10\n    /* \"msc_token/BeeToken.sol\":2612:2622  msg.sender */\n  caller\n    /* \"msc_token/BeeToken.sol\":15912:15927  21000000 * 1e18 */\n  0x115eec47f6cf7e35000000\n    /* \"msc_token/BeeToken.sol\":15892:15897  _mint */\n  tag_12\n    /* \"msc_token/BeeToken.sol\":15892:15928  _mint(_msgSender(), 21000000 * 1e18) */\n  jump\t// in\ntag_10:\n    /* \"msc_token/BeeToken.sol\":15944:15995  Transfer(address(0), _msgSender(), 21000000 * 1e18) */\n  mload(0x40)\n    /* \"msc_token/BeeToken.sol\":15979:15994  21000000 * 1e18 */\n  0x115eec47f6cf7e35000000\n    /* \"#utility.yul\":193:218   */\n  dup2\n  mstore\n    /* \"msc_token/BeeToken.sol\":2612:2622  msg.sender */\n  caller\n  swap1\n    /* \"msc_token/BeeToken.sol\":15961:15962  0 */\n  0x00\n  swap1\n  0x00\n  dup1\n  mload\n  0x20\n  data_ada389e1fc24a8587c776340efb91b36e675792ab631816100d55df0b5cf3cbc\n  dup4\n  codecopy\n  dup2\n  mload\n  swap2\n  mstore\n    /* \"msc_token/BeeToken.sol\":15944:15995  Transfer(address(0), _msgSender(), 21000000 * 1e18) */\n  swap1\n    /* \"#utility.yul\":181:183   */\n  0x20\n    /* \"#utility.yul\":166:184   */\n  add\n    /* \"msc_token/BeeToken.sol\":15944:15995  Transfer(address(0), _msgSender(), 21000000 * 1e18) */\n  mload(0x40)\n  dup1\n  swap2\n  sub\n  swap1\n  log3\n    /* \"msc_token/BeeToken.sol\":16209:16248  IPancakeSwapV2Router02 _uniswapV2Router */\n  0x00\n    /* \"msc_token/BeeToken.sol\":16274:16316  0xB6BA90af76D139AB3170c7df0139636dB6120F7e */\n  0xb6ba90af76d139ab3170c7df0139636db6120f7e\n    /* \"msc_token/BeeToken.sol\":16209:16317  IPancakeSwapV2Router02 _uniswapV2Router = IPancakeSwapV2Router02(0xB6BA90af76D139AB3170c7df0139636dB6120F7e) */\n  swap1\n  pop\n    /* \"msc_token/BeeToken.sol\":16366:16382  _uniswapV2Router */\n  dup1\n  sub(shl(0xa0, 0x01), 0x01)\n    /* \"msc_token/BeeToken.sol\":16366:16390  _uniswapV2Router.factory */\n  and\n  0xc45a0155\n    /* \"msc_token/BeeToken.sol\":16366:16392  _uniswapV2Router.factory() */\n  mload(0x40)\n  dup2\n  0xffffffff\n  and\n  0xe0\n  shl\n  dup2\n  mstore\n  0x04\n  add\n  0x20\n  mload(0x40)\n  dup1\n  dup4\n  sub\n  dup2\n  dup7\n  gas\n  staticcall\n  iszero\n  dup1\n  iszero\n  tag_17\n  jumpi\n  returndatasize\n  0x00\n  dup1\n  returndatacopy\n  revert(0x00, returndatasize)\ntag_17:\n  pop\n  pop\n  pop\n  pop\n  mload(0x40)\n  returndatasize\n  not(0x1f)\n  0x1f\n  dup3\n  add\n  and\n  dup3\n  add\n  dup1\n  0x40\n  mstore\n  pop\n  dup2\n  add\n  swap1\n  tag_18\n  swap2\n  swap1\n  tag_19\n  jump\t// in\ntag_18:\n  sub(shl(0xa0, 0x01), 0x01)\n    /* \"msc_token/BeeToken.sol\":16344:16418  IPancakeSwapV2Factory(_uniswapV2Router.factory())... */\n  and\n  0xc9c65396\n    /* \"msc_token/BeeToken.sol\":16427:16431  this */\n  address\n    /* \"msc_token/BeeToken.sol\":16434:16450  _uniswapV2Router */\n  dup4\n  sub(shl(0xa0, 0x01), 0x01)\n    /* \"msc_token/BeeToken.sol\":16434:16455  _uniswapV2Router.WETH */\n  and\n  0xad5c4648\n    /* \"msc_token/BeeToken.sol\":16434:16457  _uniswapV2Router.WETH() */\n  mload(0x40)\n  dup2\n  0xffffffff\n  and\n  0xe0\n  shl\n  dup2\n  mstore\n  0x04\n  add\n  0x20\n  mload(0x40)\n  dup1\n  dup4\n  sub\n  dup2\n  dup7\n  gas\n  staticcall\n  iszero\n  dup1\n  iszero\n  tag_21\n  jumpi\n  returndatasize\n  0x00\n  dup1\n  returndatacopy\n  revert(0x00, returndatasize)\ntag_21:\n  pop\n  pop\n  pop\n  pop\n  mload(0x40)\n  returndatasize\n  not(0x1f)\n  0x1f\n  dup3\n  add\n  and\n  dup3\n  add\n  dup1\n  0x40\n  mstore\n  pop\n  dup2\n  add\n  swap1\n  tag_22\n  swap2\n  swap1\n  tag_19\n  jump\t// in\ntag_22:\n    /* \"msc_token/BeeToken.sol\":16344:16458  IPancakeSwapV2Factory(_uniswapV2Router.factory())... */\n  mload(0x40)\n  not(sub(shl(0xe0, 0x01), 0x01))\n  0xe0\n  dup6\n  swap1\n  shl\n  and\n  dup2\n  mstore\n  sub(shl(0xa0, 0x01), 0x01)\n    /* \"#utility.yul\":754:769   */\n  swap3\n  dup4\n  and\n    /* \"msc_token/BeeToken.sol\":16344:16458  IPancakeSwapV2Factory(_uniswapV2Router.factory())... */\n  0x04\n  dup3\n  add\n    /* \"#utility.yul\":736:770   */\n  mstore\n    /* \"#utility.yul\":806:821   */\n  swap2\n  and\n    /* \"#utility.yul\":786:804   */\n  0x24\n  dup3\n  add\n    /* \"#utility.yul\":779:822   */\n  mstore\n    /* \"#utility.yul\":671:689   */\n  0x44\n  add\n    /* \"msc_token/BeeToken.sol\":16344:16458  IPancakeSwapV2Factory(_uniswapV2Router.factory())... */\n  0x20\n  mload(0x40)\n  dup1\n  dup4\n  sub\n  dup2\n  0x00\n  dup8\n  gas\n  call\n  iszero\n  dup1\n  iszero\n  tag_26\n  jumpi\n  returndatasize\n  0x00\n  dup1\n  returndatacopy\n  revert(0x00, returndatasize)\ntag_26:\n  pop\n  pop\n  pop\n  pop\n  mload(0x40)\n  returndatasize\n  not(0x1f)\n  0x1f\n  dup3\n  add\n  and\n  dup3\n  add\n  dup1\n  0x40\n  mstore\n  pop\n  dup2\n  add\n  swap1\n  tag_27\n  swap2\n  swap1\n  tag_19\n  jump\t// in\ntag_27:\n  sub(shl(0xa0, 0x01), 0x01)\n    /* \"msc_token/BeeToken.sol\":16328:16458  uniswapV2Pair = IPancakeSwapV2Factory(_uniswapV2Router.factory())... */\n  swap1\n  dup2\n  and\n  0xa0\n  dup2\n  swap1\n  mstore\n    /* \"msc_token/BeeToken.sol\":16469:16503  uniswapV2Router = _uniswapV2Router */\n  swap2\n  and\n  0x80\n  mstore\n    /* \"msc_token/BeeToken.sol\":16514:16542  DEXs[address(uniswapV2Pair)] */\n  0x00\n  swap1\n  dup2\n  mstore\n    /* \"msc_token/BeeToken.sol\":16514:16518  DEXs */\n  0x07\n  0x20\n    /* \"msc_token/BeeToken.sol\":16514:16542  DEXs[address(uniswapV2Pair)] */\n  mstore\n  0x40\n  swap1\n  keccak256\n    /* \"msc_token/BeeToken.sol\":16514:16549  DEXs[address(uniswapV2Pair)] = true */\n  dup1\n  sload\n  not(0xff)\n  and\n    /* \"msc_token/BeeToken.sol\":16545:16549  true */\n  0x01\n    /* \"msc_token/BeeToken.sol\":16514:16549  DEXs[address(uniswapV2Pair)] = true */\n  or\n  swap1\n  sstore\n    /* \"msc_token/BeeToken.sol\":15231:21806  contract Bee is Context, IERC20, IERC20Metadata, Ownable{... */\n  jump(tag_37)\n    /* \"msc_token/BeeToken.sol\":4440:4631  function _transferOwnership(address newOwner) internal virtual {... */\ntag_8:\n    /* \"msc_token/BeeToken.sol\":4514:4530  address oldOwner */\n  0x00\n    /* \"msc_token/BeeToken.sol\":4533:4539  _owner */\n  dup1\n  sload\n  sub(shl(0xa0, 0x01), 0x01)\n    /* \"msc_token/BeeToken.sol\":4550:4567  _owner = newOwner */\n  dup4\n  dup2\n  and\n  not(sub(shl(0xa0, 0x01), 0x01))\n  dup4\n  and\n  dup2\n  or\n  dup5\n  sstore\n    /* \"msc_token/BeeToken.sol\":4583:4623  OwnershipTransferred(oldOwner, newOwner) */\n  mload(0x40)\n    /* \"msc_token/BeeToken.sol\":4533:4539  _owner */\n  swap2\n  swap1\n  swap3\n  and\n  swap3\n  dup4\n  swap2\n    /* \"msc_token/BeeToken.sol\":4583:4623  OwnershipTransferred(oldOwner, newOwner) */\n  0x8be0079c531659141344cd1fd0a4f28419497f9722a3daafe3b4186f6b6457e0\n  swap2\n    /* \"msc_token/BeeToken.sol\":4514:4530  address oldOwner */\n  swap1\n    /* \"msc_token/BeeToken.sol\":4583:4623  OwnershipTransferred(oldOwner, newOwner) */\n  log3\n    /* \"msc_token/BeeToken.sol\":4503:4631  {... */\n  pop\n    /* \"msc_token/BeeToken.sol\":4440:4631  function _transferOwnership(address newOwner) internal virtual {... */\n  pop\n  jump\t// out\n    /* \"msc_token/BeeToken.sol\":20046:20244  function _mint(address account, uint256 amount) internal virtual {... */\ntag_12:\n  sub(shl(0xa0, 0x01), 0x01)\n    /* \"msc_token/BeeToken.sol\":20122:20140  _balances[account] */\n  dup3\n  and\n  0x00\n  swap1\n  dup2\n  mstore\n    /* \"msc_token/BeeToken.sol\":20122:20131  _balances */\n  0x01\n    /* \"msc_token/BeeToken.sol\":20122:20140  _balances[account] */\n  0x20\n  mstore\n  0x40\n  dup2\n  keccak256\n    /* \"msc_token/BeeToken.sol\":20122:20150  _balances[account] += amount */\n  dup1\n  sload\n    /* \"msc_token/BeeToken.sol\":20144:20150  amount */\n  dup4\n  swap3\n    /* \"msc_token/BeeToken.sol\":20122:20140  _balances[account] */\n  swap1\n    /* \"msc_token/BeeToken.sol\":20122:20150  _balances[account] += amount */\n  tag_32\n  swap1\n    /* \"msc_token/BeeToken.sol\":20144:20150  amount */\n  dup5\n  swap1\n    /* \"msc_token/BeeToken.sol\":20122:20150  _balances[account] += amount */\n  tag_33\n  jump\t// in\ntag_32:\n  swap3\n  pop\n  pop\n  dup2\n  swap1\n  sstore\n  pop\n    /* \"msc_token/BeeToken.sol\":20177:20183  amount */\n  dup1\n    /* \"msc_token/BeeToken.sol\":20161:20173  _totalSupply */\n  0x03\n  0x00\n    /* \"msc_token/BeeToken.sol\":20161:20183  _totalSupply += amount */\n  dup3\n  dup3\n  sload\n  tag_34\n  swap2\n  swap1\n  tag_33\n  jump\t// in\ntag_34:\n  swap1\n  swap2\n  sstore\n  pop\n  pop\n    /* \"msc_token/BeeToken.sol\":20199:20236  Transfer(address(0), account, amount) */\n  mload(0x40)\n    /* \"#utility.yul\":193:218   */\n  dup2\n  dup2\n  mstore\n  sub(shl(0xa0, 0x01), 0x01)\n    /* \"msc_token/BeeToken.sol\":20199:20236  Transfer(address(0), account, amount) */\n  dup4\n  and\n  swap1\n    /* \"msc_token/BeeToken.sol\":20216:20217  0 */\n  0x00\n  swap1\n  0x00\n  dup1\n  mload\n  0x20\n  data_ada389e1fc24a8587c776340efb91b36e675792ab631816100d55df0b5cf3cbc\n  dup4\n  codecopy\n  dup2\n  mload\n  swap2\n  mstore\n    /* \"msc_token/BeeToken.sol\":20199:20236  Transfer(address(0), account, amount) */\n  swap1\n    /* \"#utility.yul\":181:183   */\n  0x20\n    /* \"#utility.yul\":166:184   */\n  add\n    /* \"msc_token/BeeToken.sol\":20199:20236  Transfer(address(0), account, amount) */\n  mload(0x40)\n  dup1\n  swap2\n  sub\n  swap1\n  log3\n    /* \"msc_token/BeeToken.sol\":20046:20244  function _mint(address account, uint256 amount) internal virtual {... */\n  pop\n  pop\n  jump\t// out\n    /* \"#utility.yul\":229:519   */\ntag_19:\n    /* \"#utility.yul\":299:305   */\n  0x00\n    /* \"#utility.yul\":352:354   */\n  0x20\n    /* \"#utility.yul\":340:349   */\n  dup3\n    /* \"#utility.yul\":331:338   */\n  dup5\n    /* \"#utility.yul\":327:350   */\n  sub\n    /* \"#utility.yul\":323:355   */\n  slt\n    /* \"#utility.yul\":320:372   */\n  iszero\n  tag_40\n  jumpi\n    /* \"#utility.yul\":368:369   */\n  0x00\n    /* \"#utility.yul\":365:366   */\n  dup1\n    /* \"#utility.yul\":358:370   */\n  revert\n    /* \"#utility.yul\":320:372   */\ntag_40:\n    /* \"#utility.yul\":394:410   */\n  dup2\n  mload\n  sub(shl(0xa0, 0x01), 0x01)\n    /* \"#utility.yul\":439:470   */\n  dup2\n  and\n    /* \"#utility.yul\":429:471   */\n  dup2\n  eq\n    /* \"#utility.yul\":419:489   */\n  tag_41\n  jumpi\n    /* \"#utility.yul\":485:486   */\n  0x00\n    /* \"#utility.yul\":482:483   */\n  dup1\n    /* \"#utility.yul\":475:487   */\n  revert\n    /* \"#utility.yul\":419:489   */\ntag_41:\n    /* \"#utility.yul\":508:513   */\n  swap4\n    /* \"#utility.yul\":229:519   */\n  swap3\n  pop\n  pop\n  pop\n  jump\t// out\n    /* \"#utility.yul\":833:1058   */\ntag_33:\n    /* \"#utility.yul\":873:876   */\n  0x00\n    /* \"#utility.yul\":904:905   */\n  dup3\n    /* \"#utility.yul\":900:906   */\n  not\n    /* \"#utility.yul\":897:898   */\n  dup3\n    /* \"#utility.yul\":894:907   */\n  gt\n    /* \"#utility.yul\":891:1027   */\n  iszero\n  tag_44\n  jumpi\n    /* \"#utility.yul\":949:959   */\n  0x4e487b71\n    /* \"#utility.yul\":944:947   */\n  0xe0\n    /* \"#utility.yul\":940:960   */\n  shl\n    /* \"#utility.yul\":937:938   */\n  0x00\n    /* \"#utility.yul\":930:961   */\n  mstore\n    /* \"#utility.yul\":984:988   */\n  0x11\n    /* \"#utility.yul\":981:982   */\n  0x04\n    /* \"#utility.yul\":974:989   */\n  mstore\n    /* \"#utility.yul\":1012:1016   */\n  0x24\n    /* \"#utility.yul\":1009:1010   */\n  0x00\n    /* \"#utility.yul\":1002:1017   */\n  revert\n    /* \"#utility.yul\":891:1027   */\ntag_44:\n  pop\n    /* \"#utility.yul\":1043:1052   */\n  add\n  swap1\n    /* \"#utility.yul\":833:1058   */\n  jump\t// out\n    /* \"#utility.yul\":1063:1240   */\ntag_37:\n    /* \"msc_token/BeeToken.sol\":15231:21806  contract Bee is Context, IERC20, IERC20Metadata, Ownable{... */\n  mload(0x80)\n  mload(0xa0)\n  codecopy(0x00, dataOffset(sub_0), dataSize(sub_0))\n  0x00\n  assignImmutable(\"0xa570d8e206167497b077d8e037f9b3c67068f1e3da0834fee823fee7a1c2031f\")\n  0x00\n  assignImmutable(\"0x18ffc08c6233b9b024448613ada42a63f9639e92afd55438e758c138408d26d6\")\n  return(0x00, dataSize(sub_0))\nstop\ndata_ada389e1fc24a8587c776340efb91b36e675792ab631816100d55df0b5cf3cbc ddf252ad1be2c89b69c2b068fc378daa952ba7f163c4a11628f55a4df523b3ef\n\nsub_0: assembly {\n        /* \"msc_token/BeeToken.sol\":15231:21806  contract Bee is Context, IERC20, IERC20Metadata, Ownable{... */\n      mstore(0x40, 0x80)\n      jumpi(tag_1, lt(calldatasize, 0x04))\n      shr(0xe0, calldataload(0x00))\n      dup1\n      0x715018a6\n      gt\n      tag_26\n      jumpi\n      dup1\n      0xa9059cbb\n      gt\n      tag_27\n      jumpi\n      dup1\n      0xa9059cbb\n      eq\n      tag_20\n      jumpi\n      dup1\n      0xdd62ed3e\n      eq\n      tag_21\n      jumpi\n      dup1\n      0xdec1a6f6\n      eq\n      tag_22\n      jumpi\n      dup1\n      0xe515cd38\n      eq\n      tag_23\n      jumpi\n      dup1\n      0xf2fde38b\n      eq\n      tag_24\n      jumpi\n      dup1\n      0xfae92612\n      eq\n      tag_25\n      jumpi\n      0x00\n      dup1\n      revert\n    tag_27:\n      dup1\n      0x715018a6\n      eq\n      tag_14\n      jumpi\n      dup1\n      0x8da5cb5b\n      eq\n      tag_15\n      jumpi\n      dup1\n      0x95623641\n      eq\n      tag_16\n      jumpi\n      dup1\n      0x95d89b41\n      eq\n      tag_17\n      jumpi\n      dup1\n      0xa457c2d7\n      eq\n      tag_18\n      jumpi\n      dup1\n      0xa8808fcc\n      eq\n      tag_19\n      jumpi\n      0x00\n      dup1\n      revert\n    tag_26:\n      dup1\n      0x313ce567\n      gt\n      tag_28\n      jumpi\n      dup1\n      0x313ce567\n      eq\n      tag_8\n      jumpi\n      dup1\n      0x39509351\n      eq\n      tag_9\n      jumpi\n      dup1\n      0x42966c68\n      eq\n      tag_10\n      jumpi\n      dup1\n      0x49bd5a5e\n      eq\n      tag_11\n      jumpi\n      dup1\n      0x536db266\n      eq\n      tag_12\n      jumpi\n      dup1\n      0x70a08231\n      eq\n      tag_13\n      jumpi\n      0x00\n      dup1\n      revert\n    tag_28:\n      dup1\n      0x06fdde03\n      eq\n      tag_3\n      jumpi\n      dup1\n      0x095ea7b3\n      eq\n      tag_4\n      jumpi\n      dup1\n      0x1694505e\n      eq\n      tag_5\n      jumpi\n      dup1\n      0x18160ddd\n      eq\n      tag_6\n      jumpi\n      dup1\n      0x23b872dd\n      eq\n      tag_7\n      jumpi\n      0x00\n      dup1\n      revert\n    tag_1:\n      jumpi(tag_2, calldatasize)\n      stop\n    tag_2:\n      0x00\n      dup1\n      revert\n        /* \"msc_token/BeeToken.sol\":16565:16673  function name() public view virtual override returns (string memory) {... */\n    tag_3:\n      callvalue\n      dup1\n      iszero\n      tag_31\n      jumpi\n      0x00\n      dup1\n      revert\n    tag_31:\n      pop\n        /* \"msc_token/BeeToken.sol\":16645:16665  return \"Bee Capital\" */\n      0x40\n      dup1\n      mload\n      dup1\n      dup3\n      add\n      swap1\n      swap2\n      mstore\n      0x0b\n      dup2\n      mstore\n      shl(0xaa, 0x1099594810d85c1a5d185b)\n      0x20\n      dup3\n      add\n      mstore\n        /* \"msc_token/BeeToken.sol\":16565:16673  function name() public view virtual override returns (string memory) {... */\n    tag_32:\n      mload(0x40)\n      tag_34\n      swap2\n      swap1\n      tag_35\n      jump\t// in\n    tag_34:\n      mload(0x40)\n      dup1\n      swap2\n      sub\n      swap1\n      return\n        /* \"msc_token/BeeToken.sol\":17485:17654  function approve(address spender, uint256 amount) public virtual override returns (bool) {... */\n    tag_4:\n      callvalue\n      dup1\n      iszero\n      tag_36\n      jumpi\n      0x00\n      dup1\n      revert\n    tag_36:\n      pop\n      tag_37\n      tag_38\n      calldatasize\n      0x04\n      tag_39\n      jump\t// in\n    tag_38:\n      tag_40\n      jump\t// in\n    tag_37:\n      mload(0x40)\n        /* \"#utility.yul\":1237:1251   */\n      swap1\n      iszero\n        /* \"#utility.yul\":1230:1252   */\n      iszero\n        /* \"#utility.yul\":1212:1253   */\n      dup2\n      mstore\n        /* \"#utility.yul\":1200:1202   */\n      0x20\n        /* \"#utility.yul\":1185:1203   */\n      add\n        /* \"msc_token/BeeToken.sol\":17485:17654  function approve(address spender, uint256 amount) public virtual override returns (bool) {... */\n      tag_34\n        /* \"#utility.yul\":1072:1259   */\n      jump\n        /* \"msc_token/BeeToken.sol\":15578:15633  IPancakeSwapV2Router02 public immutable uniswapV2Router */\n    tag_5:\n      callvalue\n      dup1\n      iszero\n      tag_43\n      jumpi\n      0x00\n      dup1\n      revert\n    tag_43:\n      pop\n      tag_44\n      immutable(\"0x18ffc08c6233b9b024448613ada42a63f9639e92afd55438e758c138408d26d6\")\n      dup2\n      jump\n    tag_44:\n      mload(0x40)\n      sub(shl(0xa0, 0x01), 0x01)\n        /* \"#utility.yul\":1459:1491   */\n      swap1\n      swap2\n      and\n        /* \"#utility.yul\":1441:1492   */\n      dup2\n      mstore\n        /* \"#utility.yul\":1429:1431   */\n      0x20\n        /* \"#utility.yul\":1414:1432   */\n      add\n        /* \"msc_token/BeeToken.sol\":15578:15633  IPancakeSwapV2Router02 public immutable uniswapV2Router */\n      tag_34\n        /* \"#utility.yul\":1264:1498   */\n      jump\n        /* \"msc_token/BeeToken.sol\":16892:17000  function totalSupply() public view virtual override returns (uint256) {... */\n    tag_6:\n      callvalue\n      dup1\n      iszero\n      tag_48\n      jumpi\n      0x00\n      dup1\n      revert\n    tag_48:\n      pop\n        /* \"msc_token/BeeToken.sol\":16980:16992  _totalSupply */\n      sload(0x03)\n        /* \"msc_token/BeeToken.sol\":16892:17000  function totalSupply() public view virtual override returns (uint256) {... */\n    tag_49:\n      mload(0x40)\n        /* \"#utility.yul\":1649:1674   */\n      swap1\n      dup2\n      mstore\n        /* \"#utility.yul\":1637:1639   */\n      0x20\n        /* \"#utility.yul\":1622:1640   */\n      add\n        /* \"msc_token/BeeToken.sol\":16892:17000  function totalSupply() public view virtual override returns (uint256) {... */\n      tag_34\n        /* \"#utility.yul\":1503:1680   */\n      jump\n        /* \"msc_token/BeeToken.sol\":17662:18150  function transferFrom(... */\n    tag_7:\n      callvalue\n      dup1\n      iszero\n      tag_53\n      jumpi\n      0x00\n      dup1\n      revert\n    tag_53:\n      pop\n      tag_37\n      tag_55\n      calldatasize\n      0x04\n      tag_56\n      jump\t// in\n    tag_55:\n      tag_57\n      jump\t// in\n        /* \"msc_token/BeeToken.sol\":16791:16884  function decimals() public view virtual override returns (uint8) {... */\n    tag_8:\n      callvalue\n      dup1\n      iszero\n      tag_59\n      jumpi\n      0x00\n      dup1\n      revert\n    tag_59:\n      pop\n      mload(0x40)\n        /* \"msc_token/BeeToken.sol\":16874:16876  18 */\n      0x12\n        /* \"#utility.yul\":2288:2324   */\n      dup2\n      mstore\n        /* \"#utility.yul\":2276:2278   */\n      0x20\n        /* \"#utility.yul\":2261:2279   */\n      add\n        /* \"msc_token/BeeToken.sol\":16791:16884  function decimals() public view virtual override returns (uint8) {... */\n      tag_34\n        /* \"#utility.yul\":2146:2330   */\n      jump\n        /* \"msc_token/BeeToken.sol\":18158:18373  function increaseAllowance(address spender, uint256 addedValue) public virtual returns (bool) {... */\n    tag_9:\n      callvalue\n      dup1\n      iszero\n      tag_64\n      jumpi\n      0x00\n      dup1\n      revert\n    tag_64:\n      pop\n      tag_37\n      tag_66\n      calldatasize\n      0x04\n      tag_39\n      jump\t// in\n    tag_66:\n      tag_67\n      jump\t// in\n        /* \"msc_token/BeeToken.sol\":20720:20805  function burn(uint256 amount) external {... */\n    tag_10:\n      callvalue\n      dup1\n      iszero\n      tag_69\n      jumpi\n      0x00\n      dup1\n      revert\n    tag_69:\n      pop\n      tag_70\n      tag_71\n      calldatasize\n      0x04\n      tag_72\n      jump\t// in\n    tag_71:\n      tag_73\n      jump\t// in\n    tag_70:\n      stop\n        /* \"msc_token/BeeToken.sol\":15640:15678  address public immutable uniswapV2Pair */\n    tag_11:\n      callvalue\n      dup1\n      iszero\n      tag_74\n      jumpi\n      0x00\n      dup1\n      revert\n    tag_74:\n      pop\n      tag_44\n      immutable(\"0xa570d8e206167497b077d8e037f9b3c67068f1e3da0834fee823fee7a1c2031f\")\n      dup2\n      jump\n        /* \"msc_token/BeeToken.sol\":18798:18989  function addDex(address _pair) external onlyOwner {... */\n    tag_12:\n      callvalue\n      dup1\n      iszero\n      tag_79\n      jumpi\n      0x00\n      dup1\n      revert\n    tag_79:\n      pop\n      tag_70\n      tag_81\n      calldatasize\n      0x04\n      tag_82\n      jump\t// in\n    tag_81:\n      tag_83\n      jump\t// in\n        /* \"msc_token/BeeToken.sol\":17008:17135  function balanceOf(address account) public view virtual override returns (uint256) {... */\n    tag_13:\n      callvalue\n      dup1\n      iszero\n      tag_84\n      jumpi\n      0x00\n      dup1\n      revert\n    tag_84:\n      pop\n      tag_49\n      tag_86\n      calldatasize\n      0x04\n      tag_82\n      jump\t// in\n    tag_86:\n      sub(shl(0xa0, 0x01), 0x01)\n        /* \"msc_token/BeeToken.sol\":17109:17127  _balances[account] */\n      and\n        /* \"msc_token/BeeToken.sol\":17082:17089  uint256 */\n      0x00\n        /* \"msc_token/BeeToken.sol\":17109:17127  _balances[account] */\n      swap1\n      dup2\n      mstore\n        /* \"msc_token/BeeToken.sol\":17109:17118  _balances */\n      0x01\n        /* \"msc_token/BeeToken.sol\":17109:17127  _balances[account] */\n      0x20\n      mstore\n      0x40\n      swap1\n      keccak256\n      sload\n      swap1\n        /* \"msc_token/BeeToken.sol\":17008:17135  function balanceOf(address account) public view virtual override returns (uint256) {... */\n      jump\n        /* \"msc_token/BeeToken.sol\":3821:3924  function renounceOwnership() public virtual onlyOwner {... */\n    tag_14:\n      callvalue\n      dup1\n      iszero\n      tag_89\n      jumpi\n      0x00\n      dup1\n      revert\n    tag_89:\n      pop\n      tag_70\n      tag_91\n      jump\t// in\n        /* \"msc_token/BeeToken.sol\":3170:3257  function owner() public view virtual returns (address) {... */\n    tag_15:\n      callvalue\n      dup1\n      iszero\n      tag_92\n      jumpi\n      0x00\n      dup1\n      revert\n    tag_92:\n      pop\n        /* \"msc_token/BeeToken.sol\":3216:3223  address */\n      0x00\n        /* \"msc_token/BeeToken.sol\":3243:3249  _owner */\n      sload\n      sub(shl(0xa0, 0x01), 0x01)\n      and\n        /* \"msc_token/BeeToken.sol\":3170:3257  function owner() public view virtual returns (address) {... */\n      jump(tag_44)\n        /* \"msc_token/BeeToken.sol\":15780:15853  address public marketAddress = 0xe3e90697218F31B8d0867b8A9c52947D3c888339 */\n    tag_16:\n      callvalue\n      dup1\n      iszero\n      tag_96\n      jumpi\n      0x00\n      dup1\n      revert\n    tag_96:\n      pop\n      sload(0x08)\n      tag_44\n      swap1\n      sub(shl(0xa0, 0x01), 0x01)\n      and\n      dup2\n      jump\n        /* \"msc_token/BeeToken.sol\":16681:16783  function symbol() public view virtual override returns (string memory) {... */\n    tag_17:\n      callvalue\n      dup1\n      iszero\n      tag_100\n      jumpi\n      0x00\n      dup1\n      revert\n    tag_100:\n      pop\n        /* \"msc_token/BeeToken.sol\":16763:16775  return \"BEE\" */\n      0x40\n      dup1\n      mload\n      dup1\n      dup3\n      add\n      swap1\n      swap2\n      mstore\n      0x03\n      dup2\n      mstore\n      shl(0xe8, 0x424545)\n      0x20\n      dup3\n      add\n      mstore\n        /* \"msc_token/BeeToken.sol\":16681:16783  function symbol() public view virtual override returns (string memory) {... */\n      jump(tag_32)\n        /* \"msc_token/BeeToken.sol\":18381:18790  function decreaseAllowance(address spender, uint256 subtractedValue) public virtual returns (bool) {... */\n    tag_18:\n      callvalue\n      dup1\n      iszero\n      tag_104\n      jumpi\n      0x00\n      dup1\n      revert\n    tag_104:\n      pop\n      tag_37\n      tag_106\n      calldatasize\n      0x04\n      tag_39\n      jump\t// in\n    tag_106:\n      tag_107\n      jump\t// in\n        /* \"msc_token/BeeToken.sol\":21317:21532  function setExcludeds(address addr) public onlyOwner {... */\n    tag_19:\n      callvalue\n      dup1\n      iszero\n      tag_109\n      jumpi\n      0x00\n      dup1\n      revert\n    tag_109:\n      pop\n      tag_70\n      tag_111\n      calldatasize\n      0x04\n      tag_82\n      jump\t// in\n    tag_111:\n      tag_112\n      jump\t// in\n        /* \"msc_token/BeeToken.sol\":17143:17318  function transfer(address recipient, uint256 amount) public virtual override returns (bool) {... */\n    tag_20:\n      callvalue\n      dup1\n      iszero\n      tag_113\n      jumpi\n      0x00\n      dup1\n      revert\n    tag_113:\n      pop\n      tag_37\n      tag_115\n      calldatasize\n      0x04\n      tag_39\n      jump\t// in\n    tag_115:\n      tag_116\n      jump\t// in\n        /* \"msc_token/BeeToken.sol\":17326:17477  function allowance(address owner, address spender) public view virtual override returns (uint256) {... */\n    tag_21:\n      callvalue\n      dup1\n      iszero\n      tag_118\n      jumpi\n      0x00\n      dup1\n      revert\n    tag_118:\n      pop\n      tag_49\n      tag_120\n      calldatasize\n      0x04\n      tag_121\n      jump\t// in\n    tag_120:\n      sub(shl(0xa0, 0x01), 0x01)\n        /* \"msc_token/BeeToken.sol\":17442:17460  _allowances[owner] */\n      swap2\n      dup3\n      and\n        /* \"msc_token/BeeToken.sol\":17415:17422  uint256 */\n      0x00\n        /* \"msc_token/BeeToken.sol\":17442:17460  _allowances[owner] */\n      swap1\n      dup2\n      mstore\n        /* \"msc_token/BeeToken.sol\":17442:17453  _allowances */\n      0x02\n        /* \"msc_token/BeeToken.sol\":17442:17460  _allowances[owner] */\n      0x20\n      swap1\n      dup2\n      mstore\n      0x40\n      dup1\n      dup4\n      keccak256\n        /* \"msc_token/BeeToken.sol\":17442:17469  _allowances[owner][spender] */\n      swap4\n      swap1\n      swap5\n      and\n      dup3\n      mstore\n      swap2\n      swap1\n      swap2\n      mstore\n      keccak256\n      sload\n      swap1\n        /* \"msc_token/BeeToken.sol\":17326:17477  function allowance(address owner, address spender) public view virtual override returns (uint256) {... */\n      jump\n        /* \"msc_token/BeeToken.sol\":15738:15773  mapping (address=>bool) public DEXs */\n    tag_22:\n      callvalue\n      dup1\n      iszero\n      tag_124\n      jumpi\n      0x00\n      dup1\n      revert\n    tag_124:\n      pop\n      tag_37\n      tag_126\n      calldatasize\n      0x04\n      tag_82\n      jump\t// in\n    tag_126:\n      mstore(0x20, 0x07)\n      0x00\n      swap1\n      dup2\n      mstore\n      0x40\n      swap1\n      keccak256\n      sload\n      0xff\n      and\n      dup2\n      jump\n        /* \"msc_token/BeeToken.sol\":21041:21309  function deliver(address _lp) public onlyOwner {... */\n    tag_23:\n      callvalue\n      dup1\n      iszero\n      tag_129\n      jumpi\n      0x00\n      dup1\n      revert\n    tag_129:\n      pop\n      tag_70\n      tag_131\n      calldatasize\n      0x04\n      tag_82\n      jump\t// in\n    tag_131:\n      tag_132\n      jump\t// in\n        /* \"msc_token/BeeToken.sol\":4079:4280  function transferOwnership(address newOwner) public virtual onlyOwner {... */\n    tag_24:\n      callvalue\n      dup1\n      iszero\n      tag_133\n      jumpi\n      0x00\n      dup1\n      revert\n    tag_133:\n      pop\n      tag_70\n      tag_135\n      calldatasize\n      0x04\n      tag_82\n      jump\t// in\n    tag_135:\n      tag_136\n      jump\t// in\n        /* \"msc_token/BeeToken.sol\":21540:21636  function setMarketAddress(address addr) public onlyOwner {... */\n    tag_25:\n      callvalue\n      dup1\n      iszero\n      tag_137\n      jumpi\n      0x00\n      dup1\n      revert\n    tag_137:\n      pop\n      tag_70\n      tag_139\n      calldatasize\n      0x04\n      tag_82\n      jump\t// in\n    tag_139:\n      tag_140\n      jump\t// in\n        /* \"msc_token/BeeToken.sol\":17485:17654  function approve(address spender, uint256 amount) public virtual override returns (bool) {... */\n    tag_40:\n        /* \"msc_token/BeeToken.sol\":17568:17572  bool */\n      0x00\n        /* \"msc_token/BeeToken.sol\":17585:17624  _approve(_msgSender(), spender, amount) */\n      tag_143\n        /* \"msc_token/BeeToken.sol\":2612:2622  msg.sender */\n      caller\n        /* \"msc_token/BeeToken.sol\":17608:17615  spender */\n      dup5\n        /* \"msc_token/BeeToken.sol\":17617:17623  amount */\n      dup5\n        /* \"msc_token/BeeToken.sol\":17585:17593  _approve */\n      tag_146\n        /* \"msc_token/BeeToken.sol\":17585:17624  _approve(_msgSender(), spender, amount) */\n      jump\t// in\n    tag_143:\n      pop\n        /* \"msc_token/BeeToken.sol\":17642:17646  true */\n      0x01\n        /* \"msc_token/BeeToken.sol\":17485:17654  function approve(address spender, uint256 amount) public virtual override returns (bool) {... */\n    tag_142:\n      swap3\n      swap2\n      pop\n      pop\n      jump\t// out\n        /* \"msc_token/BeeToken.sol\":17662:18150  function transferFrom(... */\n    tag_57:\n        /* \"msc_token/BeeToken.sol\":17802:17806  bool */\n      0x00\n        /* \"msc_token/BeeToken.sol\":17819:17855  _transfer(sender, recipient, amount) */\n      tag_149\n        /* \"msc_token/BeeToken.sol\":17829:17835  sender */\n      dup5\n        /* \"msc_token/BeeToken.sol\":17837:17846  recipient */\n      dup5\n        /* \"msc_token/BeeToken.sol\":17848:17854  amount */\n      dup5\n        /* \"msc_token/BeeToken.sol\":17819:17828  _transfer */\n      tag_150\n        /* \"msc_token/BeeToken.sol\":17819:17855  _transfer(sender, recipient, amount) */\n      jump\t// in\n    tag_149:\n      sub(shl(0xa0, 0x01), 0x01)\n        /* \"msc_token/BeeToken.sol\":17895:17914  _allowances[sender] */\n      dup5\n      and\n        /* \"msc_token/BeeToken.sol\":17868:17892  uint256 currentAllowance */\n      0x00\n        /* \"msc_token/BeeToken.sol\":17895:17914  _allowances[sender] */\n      swap1\n      dup2\n      mstore\n        /* \"msc_token/BeeToken.sol\":17895:17906  _allowances */\n      0x02\n        /* \"msc_token/BeeToken.sol\":17895:17914  _allowances[sender] */\n      0x20\n      swap1\n      dup2\n      mstore\n      0x40\n      dup1\n      dup4\n      keccak256\n        /* \"msc_token/BeeToken.sol\":2612:2622  msg.sender */\n      caller\n        /* \"msc_token/BeeToken.sol\":17895:17928  _allowances[sender][_msgSender()] */\n      dup5\n      mstore\n      swap1\n      swap2\n      mstore\n      swap1\n      keccak256\n      sload\n        /* \"msc_token/BeeToken.sol\":17947:17973  currentAllowance >= amount */\n      dup3\n      dup2\n      lt\n      iszero\n        /* \"msc_token/BeeToken.sol\":17939:18016  require(currentAllowance >= amount, \"BEE: transfer amount exceeds allowance\") */\n      tag_152\n      jumpi\n      mload(0x40)\n      shl(0xe5, 0x461bcd)\n      dup2\n      mstore\n        /* \"#utility.yul\":3575:3577   */\n      0x20\n        /* \"msc_token/BeeToken.sol\":17939:18016  require(currentAllowance >= amount, \"BEE: transfer amount exceeds allowance\") */\n      0x04\n      dup3\n      add\n        /* \"#utility.yul\":3557:3578   */\n      mstore\n        /* \"#utility.yul\":3614:3616   */\n      0x26\n        /* \"#utility.yul\":3594:3612   */\n      0x24\n      dup3\n      add\n        /* \"#utility.yul\":3587:3617   */\n      mstore\n        /* \"#utility.yul\":3653:3687   */\n      0x4245453a207472616e7366657220616d6f756e74206578636565647320616c6c\n        /* \"#utility.yul\":3633:3651   */\n      0x44\n      dup3\n      add\n        /* \"#utility.yul\":3626:3688   */\n      mstore\n      shl(0xd0, 0x6f77616e6365)\n        /* \"#utility.yul\":3704:3722   */\n      0x64\n      dup3\n      add\n        /* \"#utility.yul\":3697:3733   */\n      mstore\n        /* \"#utility.yul\":3750:3769   */\n      0x84\n      add\n        /* \"msc_token/BeeToken.sol\":17939:18016  require(currentAllowance >= amount, \"BEE: transfer amount exceeds allowance\") */\n    tag_153:\n      mload(0x40)\n      dup1\n      swap2\n      sub\n      swap1\n      revert\n    tag_152:\n        /* \"msc_token/BeeToken.sol\":18052:18109  _approve(sender, _msgSender(), currentAllowance - amount) */\n      tag_155\n        /* \"msc_token/BeeToken.sol\":18061:18067  sender */\n      dup6\n        /* \"msc_token/BeeToken.sol\":2612:2622  msg.sender */\n      caller\n        /* \"msc_token/BeeToken.sol\":18102:18108  amount */\n      dup6\n        /* \"msc_token/BeeToken.sol\":18083:18099  currentAllowance */\n      dup5\n        /* \"msc_token/BeeToken.sol\":18083:18108  currentAllowance - amount */\n      sub\n        /* \"msc_token/BeeToken.sol\":18052:18060  _approve */\n      tag_146\n        /* \"msc_token/BeeToken.sol\":18052:18109  _approve(sender, _msgSender(), currentAllowance - amount) */\n      jump\t// in\n    tag_155:\n      pop\n        /* \"msc_token/BeeToken.sol\":18138:18142  true */\n      0x01\n      swap5\n        /* \"msc_token/BeeToken.sol\":17662:18150  function transferFrom(... */\n      swap4\n      pop\n      pop\n      pop\n      pop\n      jump\t// out\n        /* \"msc_token/BeeToken.sol\":18158:18373  function increaseAllowance(address spender, uint256 addedValue) public virtual returns (bool) {... */\n    tag_67:\n        /* \"msc_token/BeeToken.sol\":2612:2622  msg.sender */\n      caller\n        /* \"msc_token/BeeToken.sol\":18246:18250  bool */\n      0x00\n        /* \"msc_token/BeeToken.sol\":18295:18320  _allowances[_msgSender()] */\n      dup2\n      dup2\n      mstore\n        /* \"msc_token/BeeToken.sol\":18295:18306  _allowances */\n      0x02\n        /* \"msc_token/BeeToken.sol\":18295:18320  _allowances[_msgSender()] */\n      0x20\n      swap1\n      dup2\n      mstore\n      0x40\n      dup1\n      dup4\n      keccak256\n      sub(shl(0xa0, 0x01), 0x01)\n        /* \"msc_token/BeeToken.sol\":18295:18329  _allowances[_msgSender()][spender] */\n      dup8\n      and\n      dup5\n      mstore\n      swap1\n      swap2\n      mstore\n      dup2\n      keccak256\n      sload\n        /* \"msc_token/BeeToken.sol\":18246:18250  bool */\n      swap1\n      swap2\n        /* \"msc_token/BeeToken.sol\":18263:18343  _approve(_msgSender(), spender, _allowances[_msgSender()][spender] + addedValue) */\n      tag_143\n      swap2\n        /* \"msc_token/BeeToken.sol\":18286:18293  spender */\n      dup6\n      swap1\n        /* \"msc_token/BeeToken.sol\":18295:18342  _allowances[_msgSender()][spender] + addedValue */\n      tag_162\n      swap1\n        /* \"msc_token/BeeToken.sol\":18332:18342  addedValue */\n      dup7\n      swap1\n        /* \"msc_token/BeeToken.sol\":18295:18342  _allowances[_msgSender()][spender] + addedValue */\n      tag_163\n      jump\t// in\n    tag_162:\n        /* \"msc_token/BeeToken.sol\":18263:18271  _approve */\n      tag_146\n        /* \"msc_token/BeeToken.sol\":18263:18343  _approve(_msgSender(), spender, _allowances[_msgSender()][spender] + addedValue) */\n      jump\t// in\n        /* \"msc_token/BeeToken.sol\":20720:20805  function burn(uint256 amount) external {... */\n    tag_73:\n        /* \"msc_token/BeeToken.sol\":20770:20797  _burn(_msgSender(), amount) */\n      tag_165\n        /* \"msc_token/BeeToken.sol\":2612:2622  msg.sender */\n      caller\n        /* \"msc_token/BeeToken.sol\":20790:20796  amount */\n      dup3\n        /* \"msc_token/BeeToken.sol\":20770:20775  _burn */\n      tag_167\n        /* \"msc_token/BeeToken.sol\":20770:20797  _burn(_msgSender(), amount) */\n      jump\t// in\n    tag_165:\n        /* \"msc_token/BeeToken.sol\":20720:20805  function burn(uint256 amount) external {... */\n      pop\n      jump\t// out\n        /* \"msc_token/BeeToken.sol\":18798:18989  function addDex(address _pair) external onlyOwner {... */\n    tag_83:\n        /* \"msc_token/BeeToken.sol\":3216:3223  address */\n      0x00\n        /* \"msc_token/BeeToken.sol\":3243:3249  _owner */\n      sload\n      sub(shl(0xa0, 0x01), 0x01)\n      and\n        /* \"msc_token/BeeToken.sol\":2612:2622  msg.sender */\n      caller\n        /* \"msc_token/BeeToken.sol\":3390:3413  owner() == _msgSender() */\n      eq\n        /* \"msc_token/BeeToken.sol\":3382:3450  require(owner() == _msgSender(), \"Ownable: caller is not the owner\") */\n      tag_171\n      jumpi\n      mload(0x40)\n      shl(0xe5, 0x461bcd)\n      dup2\n      mstore\n      0x04\n      add\n      tag_153\n      swap1\n      tag_173\n      jump\t// in\n    tag_171:\n      sub(shl(0xa0, 0x01), 0x01)\n        /* \"msc_token/BeeToken.sol\":18863:18874  DEXs[_pair] */\n      dup2\n      and\n      0x00\n      swap1\n      dup2\n      mstore\n        /* \"msc_token/BeeToken.sol\":18863:18867  DEXs */\n      0x07\n        /* \"msc_token/BeeToken.sol\":18863:18874  DEXs[_pair] */\n      0x20\n      mstore\n      0x40\n      swap1\n      keccak256\n      sload\n      0xff\n      and\n        /* \"msc_token/BeeToken.sol\":18859:18973  if (DEXs[_pair]) {... */\n      iszero\n      tag_175\n      jumpi\n      sub(shl(0xa0, 0x01), 0x01)\n        /* \"msc_token/BeeToken.sol\":18891:18902  DEXs[_pair] */\n      and\n        /* \"msc_token/BeeToken.sol\":18905:18910  false */\n      0x00\n        /* \"msc_token/BeeToken.sol\":18891:18902  DEXs[_pair] */\n      swap1\n      dup2\n      mstore\n        /* \"msc_token/BeeToken.sol\":18891:18895  DEXs */\n      0x07\n        /* \"msc_token/BeeToken.sol\":18891:18902  DEXs[_pair] */\n      0x20\n      mstore\n      0x40\n      swap1\n      keccak256\n        /* \"msc_token/BeeToken.sol\":18891:18910  DEXs[_pair] = false */\n      dup1\n      sload\n      not(0xff)\n      and\n      swap1\n      sstore\n        /* \"msc_token/BeeToken.sol\":20720:20805  function burn(uint256 amount) external {... */\n      jump\t// out\n        /* \"msc_token/BeeToken.sol\":18859:18973  if (DEXs[_pair]) {... */\n    tag_175:\n      sub(shl(0xa0, 0x01), 0x01)\n        /* \"msc_token/BeeToken.sol\":18943:18954  DEXs[_pair] */\n      dup2\n      and\n      0x00\n      swap1\n      dup2\n      mstore\n        /* \"msc_token/BeeToken.sol\":18943:18947  DEXs */\n      0x07\n        /* \"msc_token/BeeToken.sol\":18943:18954  DEXs[_pair] */\n      0x20\n      mstore\n      0x40\n      swap1\n      keccak256\n        /* \"msc_token/BeeToken.sol\":18943:18961  DEXs[_pair] = true */\n      dup1\n      sload\n      not(0xff)\n      and\n        /* \"msc_token/BeeToken.sol\":18957:18961  true */\n      0x01\n        /* \"msc_token/BeeToken.sol\":18943:18961  DEXs[_pair] = true */\n      or\n      swap1\n      sstore\n        /* \"msc_token/BeeToken.sol\":18798:18989  function addDex(address _pair) external onlyOwner {... */\n      pop\n      jump\t// out\n        /* \"msc_token/BeeToken.sol\":3821:3924  function renounceOwnership() public virtual onlyOwner {... */\n    tag_91:\n        /* \"msc_token/BeeToken.sol\":3216:3223  address */\n      0x00\n        /* \"msc_token/BeeToken.sol\":3243:3249  _owner */\n      sload\n      sub(shl(0xa0, 0x01), 0x01)\n      and\n        /* \"msc_token/BeeToken.sol\":2612:2622  msg.sender */\n      caller\n        /* \"msc_token/BeeToken.sol\":3390:3413  owner() == _msgSender() */\n      eq\n        /* \"msc_token/BeeToken.sol\":3382:3450  require(owner() == _msgSender(), \"Ownable: caller is not the owner\") */\n      tag_181\n      jumpi\n      mload(0x40)\n      shl(0xe5, 0x461bcd)\n      dup2\n      mstore\n      0x04\n      add\n      tag_153\n      swap1\n      tag_173\n      jump\t// in\n    tag_181:\n        /* \"msc_token/BeeToken.sol\":3886:3916  _transferOwnership(address(0)) */\n      tag_184\n        /* \"msc_token/BeeToken.sol\":3913:3914  0 */\n      0x00\n        /* \"msc_token/BeeToken.sol\":3886:3904  _transferOwnership */\n      tag_185\n        /* \"msc_token/BeeToken.sol\":3886:3916  _transferOwnership(address(0)) */\n      jump\t// in\n    tag_184:\n        /* \"msc_token/BeeToken.sol\":3821:3924  function renounceOwnership() public virtual onlyOwner {... */\n      jump\t// out\n        /* \"msc_token/BeeToken.sol\":18381:18790  function decreaseAllowance(address spender, uint256 subtractedValue) public virtual returns (bool) {... */\n    tag_107:\n        /* \"msc_token/BeeToken.sol\":2612:2622  msg.sender */\n      caller\n        /* \"msc_token/BeeToken.sol\":18474:18478  bool */\n      0x00\n        /* \"msc_token/BeeToken.sol\":18518:18543  _allowances[_msgSender()] */\n      swap1\n      dup2\n      mstore\n        /* \"msc_token/BeeToken.sol\":18518:18529  _allowances */\n      0x02\n        /* \"msc_token/BeeToken.sol\":18518:18543  _allowances[_msgSender()] */\n      0x20\n      swap1\n      dup2\n      mstore\n      0x40\n      dup1\n      dup4\n      keccak256\n      sub(shl(0xa0, 0x01), 0x01)\n        /* \"msc_token/BeeToken.sol\":18518:18552  _allowances[_msgSender()][spender] */\n      dup7\n      and\n      dup5\n      mstore\n      swap1\n      swap2\n      mstore\n      dup2\n      keccak256\n      sload\n        /* \"msc_token/BeeToken.sol\":18571:18606  currentAllowance >= subtractedValue */\n      dup3\n      dup2\n      lt\n      iszero\n        /* \"msc_token/BeeToken.sol\":18563:18646  require(currentAllowance >= subtractedValue, \"BEE: decreased allowance below zero\") */\n      tag_190\n      jumpi\n      mload(0x40)\n      shl(0xe5, 0x461bcd)\n      dup2\n      mstore\n        /* \"#utility.yul\":4608:4610   */\n      0x20\n        /* \"msc_token/BeeToken.sol\":18563:18646  require(currentAllowance >= subtractedValue, \"BEE: decreased allowance below zero\") */\n      0x04\n      dup3\n      add\n        /* \"#utility.yul\":4590:4611   */\n      mstore\n        /* \"#utility.yul\":4647:4649   */\n      0x23\n        /* \"#utility.yul\":4627:4645   */\n      0x24\n      dup3\n      add\n        /* \"#utility.yul\":4620:4650   */\n      mstore\n        /* \"#utility.yul\":4686:4720   */\n      0x4245453a2064656372656173656420616c6c6f77616e63652062656c6f77207a\n        /* \"#utility.yul\":4666:4684   */\n      0x44\n      dup3\n      add\n        /* \"#utility.yul\":4659:4721   */\n      mstore\n      shl(0xe8, 0x65726f)\n        /* \"#utility.yul\":4737:4755   */\n      0x64\n      dup3\n      add\n        /* \"#utility.yul\":4730:4763   */\n      mstore\n        /* \"#utility.yul\":4780:4799   */\n      0x84\n      add\n        /* \"msc_token/BeeToken.sol\":18563:18646  require(currentAllowance >= subtractedValue, \"BEE: decreased allowance below zero\") */\n      tag_153\n        /* \"#utility.yul\":4406:4805   */\n      jump\n        /* \"msc_token/BeeToken.sol\":18563:18646  require(currentAllowance >= subtractedValue, \"BEE: decreased allowance below zero\") */\n    tag_190:\n        /* \"msc_token/BeeToken.sol\":18682:18749  _approve(_msgSender(), spender, currentAllowance - subtractedValue) */\n      tag_193\n        /* \"msc_token/BeeToken.sol\":2612:2622  msg.sender */\n      caller\n        /* \"msc_token/BeeToken.sol\":18705:18712  spender */\n      dup6\n        /* \"msc_token/BeeToken.sol\":18733:18748  subtractedValue */\n      dup6\n        /* \"msc_token/BeeToken.sol\":18714:18730  currentAllowance */\n      dup5\n        /* \"msc_token/BeeToken.sol\":18714:18748  currentAllowance - subtractedValue */\n      sub\n        /* \"msc_token/BeeToken.sol\":18682:18690  _approve */\n      tag_146\n        /* \"msc_token/BeeToken.sol\":18682:18749  _approve(_msgSender(), spender, currentAllowance - subtractedValue) */\n      jump\t// in\n    tag_193:\n      pop\n        /* \"msc_token/BeeToken.sol\":18778:18782  true */\n      0x01\n      swap4\n        /* \"msc_token/BeeToken.sol\":18381:18790  function decreaseAllowance(address spender, uint256 subtractedValue) public virtual returns (bool) {... */\n      swap3\n      pop\n      pop\n      pop\n      jump\t// out\n        /* \"msc_token/BeeToken.sol\":21317:21532  function setExcludeds(address addr) public onlyOwner {... */\n    tag_112:\n        /* \"msc_token/BeeToken.sol\":3216:3223  address */\n      0x00\n        /* \"msc_token/BeeToken.sol\":3243:3249  _owner */\n      sload\n      sub(shl(0xa0, 0x01), 0x01)\n      and\n        /* \"msc_token/BeeToken.sol\":2612:2622  msg.sender */\n      caller\n        /* \"msc_token/BeeToken.sol\":3390:3413  owner() == _msgSender() */\n      eq\n        /* \"msc_token/BeeToken.sol\":3382:3450  require(owner() == _msgSender(), \"Ownable: caller is not the owner\") */\n      tag_198\n      jumpi\n      mload(0x40)\n      shl(0xe5, 0x461bcd)\n      dup2\n      mstore\n      0x04\n      add\n      tag_153\n      swap1\n      tag_173\n      jump\t// in\n    tag_198:\n      sub(shl(0xa0, 0x01), 0x01)\n        /* \"msc_token/BeeToken.sol\":21385:21403  _isExcludeds[addr] */\n      dup2\n      and\n      0x00\n      swap1\n      dup2\n      mstore\n        /* \"msc_token/BeeToken.sol\":21385:21397  _isExcludeds */\n      0x06\n        /* \"msc_token/BeeToken.sol\":21385:21403  _isExcludeds[addr] */\n      0x20\n      mstore\n      0x40\n      swap1\n      keccak256\n      sload\n      0xff\n      and\n        /* \"msc_token/BeeToken.sol\":21385:21411  _isExcludeds[addr] == true */\n      iszero\n      iszero\n        /* \"msc_token/BeeToken.sol\":21385:21403  _isExcludeds[addr] */\n      0x01\n        /* \"msc_token/BeeToken.sol\":21385:21411  _isExcludeds[addr] == true */\n      sub\n        /* \"msc_token/BeeToken.sol\":21381:21525  if (_isExcludeds[addr] == true) {... */\n      tag_201\n      jumpi\n      sub(shl(0xa0, 0x01), 0x01)\n        /* \"msc_token/BeeToken.sol\":21428:21446  _isExcludeds[addr] */\n      and\n        /* \"msc_token/BeeToken.sol\":21449:21454  false */\n      0x00\n        /* \"msc_token/BeeToken.sol\":21428:21446  _isExcludeds[addr] */\n      swap1\n      dup2\n      mstore\n        /* \"msc_token/BeeToken.sol\":21428:21440  _isExcludeds */\n      0x06\n        /* \"msc_token/BeeToken.sol\":21428:21446  _isExcludeds[addr] */\n      0x20\n      mstore\n      0x40\n      swap1\n      keccak256\n        /* \"msc_token/BeeToken.sol\":21428:21454  _isExcludeds[addr] = false */\n      dup1\n      sload\n      not(0xff)\n      and\n      swap1\n      sstore\n        /* \"msc_token/BeeToken.sol\":20720:20805  function burn(uint256 amount) external {... */\n      jump\t// out\n        /* \"msc_token/BeeToken.sol\":21381:21525  if (_isExcludeds[addr] == true) {... */\n    tag_201:\n      sub(shl(0xa0, 0x01), 0x01)\n        /* \"msc_token/BeeToken.sol\":21488:21506  _isExcludeds[addr] */\n      dup2\n      and\n      0x00\n      swap1\n      dup2\n      mstore\n        /* \"msc_token/BeeToken.sol\":21488:21500  _isExcludeds */\n      0x06\n        /* \"msc_token/BeeToken.sol\":21488:21506  _isExcludeds[addr] */\n      0x20\n      mstore\n      0x40\n      swap1\n      keccak256\n        /* \"msc_token/BeeToken.sol\":21488:21513  _isExcludeds[addr] = true */\n      dup1\n      sload\n      not(0xff)\n      and\n        /* \"msc_token/BeeToken.sol\":21509:21513  true */\n      0x01\n        /* \"msc_token/BeeToken.sol\":21488:21513  _isExcludeds[addr] = true */\n      or\n      swap1\n      sstore\n        /* \"msc_token/BeeToken.sol\":21317:21532  function setExcludeds(address addr) public onlyOwner {... */\n      pop\n      jump\t// out\n        /* \"msc_token/BeeToken.sol\":17143:17318  function transfer(address recipient, uint256 amount) public virtual override returns (bool) {... */\n    tag_116:\n        /* \"msc_token/BeeToken.sol\":17229:17233  bool */\n      0x00\n        /* \"msc_token/BeeToken.sol\":17246:17288  _transfer(_msgSender(), recipient, amount) */\n      tag_143\n        /* \"msc_token/BeeToken.sol\":2612:2622  msg.sender */\n      caller\n        /* \"msc_token/BeeToken.sol\":17270:17279  recipient */\n      dup5\n        /* \"msc_token/BeeToken.sol\":17281:17287  amount */\n      dup5\n        /* \"msc_token/BeeToken.sol\":17246:17255  _transfer */\n      tag_150\n        /* \"msc_token/BeeToken.sol\":17246:17288  _transfer(_msgSender(), recipient, amount) */\n      jump\t// in\n        /* \"msc_token/BeeToken.sol\":21041:21309  function deliver(address _lp) public onlyOwner {... */\n    tag_132:\n        /* \"msc_token/BeeToken.sol\":3216:3223  address */\n      0x00\n        /* \"msc_token/BeeToken.sol\":3243:3249  _owner */\n      sload\n      sub(shl(0xa0, 0x01), 0x01)\n      and\n        /* \"msc_token/BeeToken.sol\":2612:2622  msg.sender */\n      caller\n        /* \"msc_token/BeeToken.sol\":3390:3413  owner() == _msgSender() */\n      eq\n        /* \"msc_token/BeeToken.sol\":3382:3450  require(owner() == _msgSender(), \"Ownable: caller is not the owner\") */\n      tag_210\n      jumpi\n      mload(0x40)\n      shl(0xe5, 0x461bcd)\n      dup2\n      mstore\n      0x04\n      add\n      tag_153\n      swap1\n      tag_173\n      jump\t// in\n    tag_210:\n        /* \"msc_token/BeeToken.sol\":21099:21109  address lp */\n      0x00\n        /* \"msc_token/BeeToken.sol\":21131:21134  _lp */\n      dup2\n      sub(shl(0xa0, 0x01), 0x01)\n        /* \"msc_token/BeeToken.sol\":21112:21151  IPancakeSwapV2Pair(_lp).PERMIT_TYPEHASH */\n      and\n      0x30adf81f\n        /* \"msc_token/BeeToken.sol\":21112:21153  IPancakeSwapV2Pair(_lp).PERMIT_TYPEHASH() */\n      mload(0x40)\n      dup2\n      0xffffffff\n      and\n      0xe0\n      shl\n      dup2\n      mstore\n      0x04\n      add\n      0x20\n      mload(0x40)\n      dup1\n      dup4\n      sub\n      dup2\n      dup7\n      gas\n      staticcall\n      iszero\n      dup1\n      iszero\n      tag_214\n      jumpi\n      returndatasize\n      0x00\n      dup1\n      returndatacopy\n      revert(0x00, returndatasize)\n    tag_214:\n      pop\n      pop\n      pop\n      pop\n      mload(0x40)\n      returndatasize\n      not(0x1f)\n      0x1f\n      dup3\n      add\n      and\n      dup3\n      add\n      dup1\n      0x40\n      mstore\n      pop\n      dup2\n      add\n      swap1\n      tag_215\n      swap2\n      swap1\n      tag_216\n      jump\t// in\n    tag_215:\n      sub(shl(0xa0, 0x01), 0x01)\n        /* \"msc_token/BeeToken.sol\":21168:21184  _isExcludeds[lp] */\n      dup2\n      and\n      0x00\n      swap1\n      dup2\n      mstore\n        /* \"msc_token/BeeToken.sol\":21168:21180  _isExcludeds */\n      0x06\n        /* \"msc_token/BeeToken.sol\":21168:21184  _isExcludeds[lp] */\n      0x20\n      mstore\n      0x40\n      swap1\n      keccak256\n      sload\n        /* \"msc_token/BeeToken.sol\":21099:21153  address lp = IPancakeSwapV2Pair(_lp).PERMIT_TYPEHASH() */\n      swap1\n      swap2\n      pop\n        /* \"msc_token/BeeToken.sol\":21168:21184  _isExcludeds[lp] */\n      0xff\n      and\n        /* \"msc_token/BeeToken.sol\":21168:21192  _isExcludeds[lp] == true */\n      iszero\n      iszero\n        /* \"msc_token/BeeToken.sol\":21168:21184  _isExcludeds[lp] */\n      0x01\n        /* \"msc_token/BeeToken.sol\":21168:21192  _isExcludeds[lp] == true */\n      sub\n        /* \"msc_token/BeeToken.sol\":21164:21302  if (_isExcludeds[lp] == true) {... */\n      tag_217\n      jumpi\n      sub(shl(0xa0, 0x01), 0x01)\n        /* \"msc_token/BeeToken.sol\":21209:21225  _isExcludeds[lp] */\n      and\n        /* \"msc_token/BeeToken.sol\":21228:21233  false */\n      0x00\n        /* \"msc_token/BeeToken.sol\":21209:21225  _isExcludeds[lp] */\n      swap1\n      dup2\n      mstore\n        /* \"msc_token/BeeToken.sol\":21209:21221  _isExcludeds */\n      0x06\n        /* \"msc_token/BeeToken.sol\":21209:21225  _isExcludeds[lp] */\n      0x20\n      mstore\n      0x40\n      swap1\n      keccak256\n        /* \"msc_token/BeeToken.sol\":21209:21233  _isExcludeds[lp] = false */\n      dup1\n      sload\n      not(0xff)\n      and\n      swap1\n      sstore\n      pop\n        /* \"msc_token/BeeToken.sol\":21041:21309  function deliver(address _lp) public onlyOwner {... */\n      jump\t// out\n        /* \"msc_token/BeeToken.sol\":21164:21302  if (_isExcludeds[lp] == true) {... */\n    tag_217:\n      sub(shl(0xa0, 0x01), 0x01)\n        /* \"msc_token/BeeToken.sol\":21267:21283  _isExcludeds[lp] */\n      dup2\n      and\n      0x00\n      swap1\n      dup2\n      mstore\n        /* \"msc_token/BeeToken.sol\":21267:21279  _isExcludeds */\n      0x06\n        /* \"msc_token/BeeToken.sol\":21267:21283  _isExcludeds[lp] */\n      0x20\n      mstore\n      0x40\n      swap1\n      keccak256\n        /* \"msc_token/BeeToken.sol\":21267:21290  _isExcludeds[lp] = true */\n      dup1\n      sload\n      not(0xff)\n      and\n        /* \"msc_token/BeeToken.sol\":21286:21290  true */\n      0x01\n        /* \"msc_token/BeeToken.sol\":21267:21290  _isExcludeds[lp] = true */\n      or\n      swap1\n      sstore\n        /* \"msc_token/BeeToken.sol\":21088:21309  {... */\n      pop\n        /* \"msc_token/BeeToken.sol\":21041:21309  function deliver(address _lp) public onlyOwner {... */\n      pop\n      jump\t// out\n        /* \"msc_token/BeeToken.sol\":4079:4280  function transferOwnership(address newOwner) public virtual onlyOwner {... */\n    tag_136:\n        /* \"msc_token/BeeToken.sol\":3216:3223  address */\n      0x00\n        /* \"msc_token/BeeToken.sol\":3243:3249  _owner */\n      sload\n      sub(shl(0xa0, 0x01), 0x01)\n      and\n        /* \"msc_token/BeeToken.sol\":2612:2622  msg.sender */\n      caller\n        /* \"msc_token/BeeToken.sol\":3390:3413  owner() == _msgSender() */\n      eq\n        /* \"msc_token/BeeToken.sol\":3382:3450  require(owner() == _msgSender(), \"Ownable: caller is not the owner\") */\n      tag_222\n      jumpi\n      mload(0x40)\n      shl(0xe5, 0x461bcd)\n      dup2\n      mstore\n      0x04\n      add\n      tag_153\n      swap1\n      tag_173\n      jump\t// in\n    tag_222:\n      sub(shl(0xa0, 0x01), 0x01)\n        /* \"msc_token/BeeToken.sol\":4168:4190  newOwner != address(0) */\n      dup2\n      and\n        /* \"msc_token/BeeToken.sol\":4160:4233  require(newOwner != address(0), \"Ownable: new owner is the zero address\") */\n      tag_225\n      jumpi\n      mload(0x40)\n      shl(0xe5, 0x461bcd)\n      dup2\n      mstore\n        /* \"#utility.yul\":5268:5270   */\n      0x20\n        /* \"msc_token/BeeToken.sol\":4160:4233  require(newOwner != address(0), \"Ownable: new owner is the zero address\") */\n      0x04\n      dup3\n      add\n        /* \"#utility.yul\":5250:5271   */\n      mstore\n        /* \"#utility.yul\":5307:5309   */\n      0x26\n        /* \"#utility.yul\":5287:5305   */\n      0x24\n      dup3\n      add\n        /* \"#utility.yul\":5280:5310   */\n      mstore\n        /* \"#utility.yul\":5346:5380   */\n      0x4f776e61626c653a206e6577206f776e657220697320746865207a65726f2061\n        /* \"#utility.yul\":5326:5344   */\n      0x44\n      dup3\n      add\n        /* \"#utility.yul\":5319:5381   */\n      mstore\n      shl(0xd0, 0x646472657373)\n        /* \"#utility.yul\":5397:5415   */\n      0x64\n      dup3\n      add\n        /* \"#utility.yul\":5390:5426   */\n      mstore\n        /* \"#utility.yul\":5443:5462   */\n      0x84\n      add\n        /* \"msc_token/BeeToken.sol\":4160:4233  require(newOwner != address(0), \"Ownable: new owner is the zero address\") */\n      tag_153\n        /* \"#utility.yul\":5066:5468   */\n      jump\n        /* \"msc_token/BeeToken.sol\":4160:4233  require(newOwner != address(0), \"Ownable: new owner is the zero address\") */\n    tag_225:\n        /* \"msc_token/BeeToken.sol\":4244:4272  _transferOwnership(newOwner) */\n      tag_165\n        /* \"msc_token/BeeToken.sol\":4263:4271  newOwner */\n      dup2\n        /* \"msc_token/BeeToken.sol\":4244:4262  _transferOwnership */\n      tag_185\n        /* \"msc_token/BeeToken.sol\":4244:4272  _transferOwnership(newOwner) */\n      jump\t// in\n        /* \"msc_token/BeeToken.sol\":21540:21636  function setMarketAddress(address addr) public onlyOwner {... */\n    tag_140:\n        /* \"msc_token/BeeToken.sol\":3216:3223  address */\n      0x00\n        /* \"msc_token/BeeToken.sol\":3243:3249  _owner */\n      sload\n      sub(shl(0xa0, 0x01), 0x01)\n      and\n        /* \"msc_token/BeeToken.sol\":2612:2622  msg.sender */\n      caller\n        /* \"msc_token/BeeToken.sol\":3390:3413  owner() == _msgSender() */\n      eq\n        /* \"msc_token/BeeToken.sol\":3382:3450  require(owner() == _msgSender(), \"Ownable: caller is not the owner\") */\n      tag_232\n      jumpi\n      mload(0x40)\n      shl(0xe5, 0x461bcd)\n      dup2\n      mstore\n      0x04\n      add\n      tag_153\n      swap1\n      tag_173\n      jump\t// in\n    tag_232:\n        /* \"msc_token/BeeToken.sol\":21608:21621  marketAddress */\n      0x08\n        /* \"msc_token/BeeToken.sol\":21608:21628  marketAddress = addr */\n      dup1\n      sload\n      not(sub(shl(0xa0, 0x01), 0x01))\n      and\n      sub(shl(0xa0, 0x01), 0x01)\n      swap3\n      swap1\n      swap3\n      and\n      swap2\n      swap1\n      swap2\n      or\n      swap1\n      sstore\n        /* \"msc_token/BeeToken.sol\":21540:21636  function setMarketAddress(address addr) public onlyOwner {... */\n      jump\t// out\n        /* \"msc_token/BeeToken.sol\":20813:21033  function _approve(... */\n    tag_146:\n      sub(shl(0xa0, 0x01), 0x01)\n        /* \"msc_token/BeeToken.sol\":20941:20959  _allowances[owner] */\n      dup4\n      dup2\n      and\n      0x00\n      dup2\n      dup2\n      mstore\n        /* \"msc_token/BeeToken.sol\":20941:20952  _allowances */\n      0x02\n        /* \"msc_token/BeeToken.sol\":20941:20959  _allowances[owner] */\n      0x20\n      swap1\n      dup2\n      mstore\n      0x40\n      dup1\n      dup4\n      keccak256\n        /* \"msc_token/BeeToken.sol\":20941:20968  _allowances[owner][spender] */\n      swap5\n      dup8\n      and\n      dup1\n      dup5\n      mstore\n      swap5\n      dup3\n      mstore\n      swap2\n      dup3\n      swap1\n      keccak256\n        /* \"msc_token/BeeToken.sol\":20941:20977  _allowances[owner][spender] = amount */\n      dup6\n      swap1\n      sstore\n        /* \"msc_token/BeeToken.sol\":20993:21025  Approval(owner, spender, amount) */\n      swap1\n      mload\n        /* \"#utility.yul\":1649:1674   */\n      dup5\n      dup2\n      mstore\n        /* \"msc_token/BeeToken.sol\":20993:21025  Approval(owner, spender, amount) */\n      0x8c5be1e5ebec7d5bd14f71427d1e84f3dd0314c0f7b2291e5b200ac8c7c3b925\n      swap2\n        /* \"#utility.yul\":1622:1640   */\n      add\n        /* \"msc_token/BeeToken.sol\":20993:21025  Approval(owner, spender, amount) */\n    tag_237:\n      mload(0x40)\n      dup1\n      swap2\n      sub\n      swap1\n      log3\n        /* \"msc_token/BeeToken.sol\":20813:21033  function _approve(... */\n      pop\n      pop\n      pop\n      jump\t// out\n        /* \"msc_token/BeeToken.sol\":18997:20038  function _transfer(... */\n    tag_150:\n      sub(shl(0xa0, 0x01), 0x01)\n        /* \"msc_token/BeeToken.sol\":19137:19157  sender != address(0) */\n      dup4\n      and\n        /* \"msc_token/BeeToken.sol\":19129:19197  require(sender != address(0), \"BEE: transfer from the zero address\") */\n      tag_239\n      jumpi\n      mload(0x40)\n      shl(0xe5, 0x461bcd)\n      dup2\n      mstore\n        /* \"#utility.yul\":5675:5677   */\n      0x20\n        /* \"msc_token/BeeToken.sol\":19129:19197  require(sender != address(0), \"BEE: transfer from the zero address\") */\n      0x04\n      dup3\n      add\n        /* \"#utility.yul\":5657:5678   */\n      mstore\n        /* \"#utility.yul\":5714:5716   */\n      0x23\n        /* \"#utility.yul\":5694:5712   */\n      0x24\n      dup3\n      add\n        /* \"#utility.yul\":5687:5717   */\n      mstore\n        /* \"#utility.yul\":5753:5787   */\n      0x4245453a207472616e736665722066726f6d20746865207a65726f2061646472\n        /* \"#utility.yul\":5733:5751   */\n      0x44\n      dup3\n      add\n        /* \"#utility.yul\":5726:5788   */\n      mstore\n      shl(0xe8, 0x657373)\n        /* \"#utility.yul\":5804:5822   */\n      0x64\n      dup3\n      add\n        /* \"#utility.yul\":5797:5830   */\n      mstore\n        /* \"#utility.yul\":5847:5866   */\n      0x84\n      add\n        /* \"msc_token/BeeToken.sol\":19129:19197  require(sender != address(0), \"BEE: transfer from the zero address\") */\n      tag_153\n        /* \"#utility.yul\":5473:5872   */\n      jump\n        /* \"msc_token/BeeToken.sol\":19129:19197  require(sender != address(0), \"BEE: transfer from the zero address\") */\n    tag_239:\n      sub(shl(0xa0, 0x01), 0x01)\n        /* \"msc_token/BeeToken.sol\":19216:19239  recipient != address(0) */\n      dup3\n      and\n        /* \"msc_token/BeeToken.sol\":19208:19277  require(recipient != address(0), \"BEE: transfer to the zero address\") */\n      tag_242\n      jumpi\n      mload(0x40)\n      shl(0xe5, 0x461bcd)\n      dup2\n      mstore\n        /* \"#utility.yul\":6079:6081   */\n      0x20\n        /* \"msc_token/BeeToken.sol\":19208:19277  require(recipient != address(0), \"BEE: transfer to the zero address\") */\n      0x04\n      dup3\n      add\n        /* \"#utility.yul\":6061:6082   */\n      mstore\n        /* \"#utility.yul\":6118:6120   */\n      0x21\n        /* \"#utility.yul\":6098:6116   */\n      0x24\n      dup3\n      add\n        /* \"#utility.yul\":6091:6121   */\n      mstore\n        /* \"#utility.yul\":6157:6191   */\n      0x4245453a207472616e7366657220746f20746865207a65726f20616464726573\n        /* \"#utility.yul\":6137:6155   */\n      0x44\n      dup3\n      add\n        /* \"#utility.yul\":6130:6192   */\n      mstore\n      shl(0xf8, 0x73)\n        /* \"#utility.yul\":6208:6226   */\n      0x64\n      dup3\n      add\n        /* \"#utility.yul\":6201:6232   */\n      mstore\n        /* \"#utility.yul\":6249:6268   */\n      0x84\n      add\n        /* \"msc_token/BeeToken.sol\":19208:19277  require(recipient != address(0), \"BEE: transfer to the zero address\") */\n      tag_153\n        /* \"#utility.yul\":5877:6274   */\n      jump\n        /* \"msc_token/BeeToken.sol\":19208:19277  require(recipient != address(0), \"BEE: transfer to the zero address\") */\n    tag_242:\n      sub(shl(0xa0, 0x01), 0x01)\n        /* \"msc_token/BeeToken.sol\":19312:19329  _balances[sender] */\n      dup4\n      and\n        /* \"msc_token/BeeToken.sol\":19288:19309  uint256 senderBalance */\n      0x00\n        /* \"msc_token/BeeToken.sol\":19312:19329  _balances[sender] */\n      swap1\n      dup2\n      mstore\n        /* \"msc_token/BeeToken.sol\":19312:19321  _balances */\n      0x01\n        /* \"msc_token/BeeToken.sol\":19312:19329  _balances[sender] */\n      0x20\n      mstore\n      0x40\n      swap1\n      keccak256\n      sload\n        /* \"msc_token/BeeToken.sol\":19348:19371  senderBalance >= amount */\n      dup2\n      dup2\n      lt\n      iszero\n        /* \"msc_token/BeeToken.sol\":19340:19412  require(senderBalance >= amount, \"BEE: transfer amount exceeds balance\") */\n      tag_245\n      jumpi\n      mload(0x40)\n      shl(0xe5, 0x461bcd)\n      dup2\n      mstore\n        /* \"#utility.yul\":6481:6483   */\n      0x20\n        /* \"msc_token/BeeToken.sol\":19340:19412  require(senderBalance >= amount, \"BEE: transfer amount exceeds balance\") */\n      0x04\n      dup3\n      add\n        /* \"#utility.yul\":6463:6484   */\n      mstore\n        /* \"#utility.yul\":6520:6522   */\n      0x24\n        /* \"#utility.yul\":6500:6518   */\n      dup1\n      dup3\n      add\n        /* \"#utility.yul\":6493:6523   */\n      mstore\n        /* \"#utility.yul\":6559:6593   */\n      0x4245453a207472616e7366657220616d6f756e7420657863656564732062616c\n        /* \"#utility.yul\":6539:6557   */\n      0x44\n      dup3\n      add\n        /* \"#utility.yul\":6532:6594   */\n      mstore\n      shl(0xe0, 0x616e6365)\n        /* \"#utility.yul\":6610:6628   */\n      0x64\n      dup3\n      add\n        /* \"#utility.yul\":6603:6637   */\n      mstore\n        /* \"#utility.yul\":6654:6673   */\n      0x84\n      add\n        /* \"msc_token/BeeToken.sol\":19340:19412  require(senderBalance >= amount, \"BEE: transfer amount exceeds balance\") */\n      tag_153\n        /* \"#utility.yul\":6279:6679   */\n      jump\n        /* \"msc_token/BeeToken.sol\":19340:19412  require(senderBalance >= amount, \"BEE: transfer amount exceeds balance\") */\n    tag_245:\n      sub(shl(0xa0, 0x01), 0x01)\n        /* \"msc_token/BeeToken.sol\":19465:19477  DEXs[sender] */\n      dup5\n      and\n        /* \"msc_token/BeeToken.sol\":19423:19438  uint256 _amount */\n      0x00\n        /* \"msc_token/BeeToken.sol\":19465:19477  DEXs[sender] */\n      swap1\n      dup2\n      mstore\n        /* \"msc_token/BeeToken.sol\":19465:19469  DEXs */\n      0x07\n        /* \"msc_token/BeeToken.sol\":19465:19477  DEXs[sender] */\n      0x20\n      mstore\n      0x40\n      swap1\n      keccak256\n      sload\n        /* \"msc_token/BeeToken.sol\":19441:19447  amount */\n      dup3\n      swap1\n        /* \"msc_token/BeeToken.sol\":19465:19477  DEXs[sender] */\n      0xff\n      and\n        /* \"msc_token/BeeToken.sol\":19465:19518  DEXs[sender] && recipient != address(uniswapV2Router) */\n      dup1\n      iszero\n      tag_248\n      jumpi\n      pop\n        /* \"msc_token/BeeToken.sol\":19502:19517  uniswapV2Router */\n      immutable(\"0x18ffc08c6233b9b024448613ada42a63f9639e92afd55438e758c138408d26d6\")\n      sub(shl(0xa0, 0x01), 0x01)\n        /* \"msc_token/BeeToken.sol\":19481:19518  recipient != address(uniswapV2Router) */\n      and\n        /* \"msc_token/BeeToken.sol\":19481:19490  recipient */\n      dup5\n      sub(shl(0xa0, 0x01), 0x01)\n        /* \"msc_token/BeeToken.sol\":19481:19518  recipient != address(uniswapV2Router) */\n      and\n      eq\n      iszero\n        /* \"msc_token/BeeToken.sol\":19465:19518  DEXs[sender] && recipient != address(uniswapV2Router) */\n    tag_248:\n        /* \"msc_token/BeeToken.sol\":19464:19538  (DEXs[sender] && recipient != address(uniswapV2Router)) || DEXs[recipient] */\n      dup1\n      tag_249\n      jumpi\n      pop\n      sub(shl(0xa0, 0x01), 0x01)\n        /* \"msc_token/BeeToken.sol\":19523:19538  DEXs[recipient] */\n      dup5\n      and\n      0x00\n      swap1\n      dup2\n      mstore\n        /* \"msc_token/BeeToken.sol\":19523:19527  DEXs */\n      0x07\n        /* \"msc_token/BeeToken.sol\":19523:19538  DEXs[recipient] */\n      0x20\n      mstore\n      0x40\n      swap1\n      keccak256\n      sload\n      0xff\n      and\n        /* \"msc_token/BeeToken.sol\":19464:19538  (DEXs[sender] && recipient != address(uniswapV2Router)) || DEXs[recipient] */\n    tag_249:\n        /* \"msc_token/BeeToken.sol\":19463:19577  ((DEXs[sender] && recipient != address(uniswapV2Router)) || DEXs[recipient]) &&... */\n      dup1\n      iszero\n      tag_250\n      jumpi\n      pop\n      sub(shl(0xa0, 0x01), 0x01)\n        /* \"msc_token/BeeToken.sol\":19557:19577  _isExcludeds[sender] */\n      dup6\n      and\n      0x00\n      swap1\n      dup2\n      mstore\n        /* \"msc_token/BeeToken.sol\":19557:19569  _isExcludeds */\n      0x06\n        /* \"msc_token/BeeToken.sol\":19557:19577  _isExcludeds[sender] */\n      0x20\n      mstore\n      0x40\n      swap1\n      keccak256\n      sload\n      0xff\n      and\n        /* \"msc_token/BeeToken.sol\":19556:19577  !_isExcludeds[sender] */\n      iszero\n        /* \"msc_token/BeeToken.sol\":19463:19577  ((DEXs[sender] && recipient != address(uniswapV2Router)) || DEXs[recipient]) &&... */\n    tag_250:\n        /* \"msc_token/BeeToken.sol\":19463:19618  ((DEXs[sender] && recipient != address(uniswapV2Router)) || DEXs[recipient]) &&... */\n      dup1\n      iszero\n      tag_251\n      jumpi\n      pop\n      sub(shl(0xa0, 0x01), 0x01)\n        /* \"msc_token/BeeToken.sol\":19595:19618  _isExcludeds[recipient] */\n      dup5\n      and\n      0x00\n      swap1\n      dup2\n      mstore\n        /* \"msc_token/BeeToken.sol\":19595:19607  _isExcludeds */\n      0x06\n        /* \"msc_token/BeeToken.sol\":19595:19618  _isExcludeds[recipient] */\n      0x20\n      mstore\n      0x40\n      swap1\n      keccak256\n      sload\n      0xff\n      and\n        /* \"msc_token/BeeToken.sol\":19594:19618  !_isExcludeds[recipient] */\n      iszero\n        /* \"msc_token/BeeToken.sol\":19463:19618  ((DEXs[sender] && recipient != address(uniswapV2Router)) || DEXs[recipient]) &&... */\n    tag_251:\n        /* \"msc_token/BeeToken.sol\":19458:19854  if ( ((DEXs[sender] && recipient != address(uniswapV2Router)) || DEXs[recipient]) &&... */\n      iszero\n      tag_252\n      jumpi\n        /* \"msc_token/BeeToken.sol\":19663:19716  _balances[marketAddress].add(amount.div(1000).mul(5)) */\n      tag_253\n        /* \"msc_token/BeeToken.sol\":19692:19715  amount.div(1000).mul(5) */\n      tag_254\n        /* \"msc_token/BeeToken.sol\":19713:19714  5 */\n      0x05\n        /* \"msc_token/BeeToken.sol\":19692:19708  amount.div(1000) */\n      tag_255\n        /* \"msc_token/BeeToken.sol\":19692:19698  amount */\n      dup7\n        /* \"msc_token/BeeToken.sol\":19703:19707  1000 */\n      0x03e8\n        /* \"msc_token/BeeToken.sol\":19692:19702  amount.div */\n      tag_256\n        /* \"msc_token/BeeToken.sol\":19692:19708  amount.div(1000) */\n      jump\t// in\n    tag_255:\n        /* \"msc_token/BeeToken.sol\":19692:19712  amount.div(1000).mul */\n      swap1\n      tag_257\n        /* \"msc_token/BeeToken.sol\":19692:19715  amount.div(1000).mul(5) */\n      jump\t// in\n    tag_254:\n        /* \"msc_token/BeeToken.sol\":19673:19686  marketAddress */\n      and(sub(shl(0xa0, 0x01), 0x01), sload(0x08))\n        /* \"msc_token/BeeToken.sol\":19663:19687  _balances[marketAddress] */\n      0x00\n      swap1\n      dup2\n      mstore\n        /* \"msc_token/BeeToken.sol\":19663:19672  _balances */\n      0x01\n        /* \"msc_token/BeeToken.sol\":19663:19687  _balances[marketAddress] */\n      0x20\n      mstore\n      0x40\n      swap1\n      keccak256\n      sload\n      swap1\n        /* \"msc_token/BeeToken.sol\":19663:19691  _balances[marketAddress].add */\n      tag_258\n        /* \"msc_token/BeeToken.sol\":19663:19716  _balances[marketAddress].add(amount.div(1000).mul(5)) */\n      jump\t// in\n    tag_253:\n        /* \"msc_token/BeeToken.sol\":19646:19659  marketAddress */\n      0x08\n      dup1\n      sload\n      sub(shl(0xa0, 0x01), 0x01)\n      swap1\n      dup2\n      and\n        /* \"msc_token/BeeToken.sol\":19636:19660  _balances[marketAddress] */\n      0x00\n      swap1\n      dup2\n      mstore\n        /* \"msc_token/BeeToken.sol\":19636:19645  _balances */\n      0x01\n        /* \"msc_token/BeeToken.sol\":19636:19660  _balances[marketAddress] */\n      0x20\n      mstore\n      0x40\n      swap1\n      keccak256\n        /* \"msc_token/BeeToken.sol\":19636:19716  _balances[marketAddress] = _balances[marketAddress].add(amount.div(1000).mul(5)) */\n      swap3\n      swap1\n      swap3\n      sstore\n        /* \"msc_token/BeeToken.sol\":19753:19766  marketAddress */\n      sload\n      dup2\n      and\n      swap1\n        /* \"msc_token/BeeToken.sol\":19736:19792  Transfer(sender, marketAddress, amount.div(1000).mul(5)) */\n      dup7\n      and\n      0xddf252ad1be2c89b69c2b068fc378daa952ba7f163c4a11628f55a4df523b3ef\n        /* \"msc_token/BeeToken.sol\":19768:19791  amount.div(1000).mul(5) */\n      tag_259\n        /* \"msc_token/BeeToken.sol\":19789:19790  5 */\n      0x05\n        /* \"msc_token/BeeToken.sol\":19768:19784  amount.div(1000) */\n      tag_255\n        /* \"msc_token/BeeToken.sol\":19768:19774  amount */\n      dup9\n        /* \"msc_token/BeeToken.sol\":19779:19783  1000 */\n      0x03e8\n        /* \"msc_token/BeeToken.sol\":19768:19778  amount.div */\n      tag_256\n        /* \"msc_token/BeeToken.sol\":19768:19784  amount.div(1000) */\n      jump\t// in\n        /* \"msc_token/BeeToken.sol\":19768:19791  amount.div(1000).mul(5) */\n    tag_259:\n        /* \"msc_token/BeeToken.sol\":19736:19792  Transfer(sender, marketAddress, amount.div(1000).mul(5)) */\n      mload(0x40)\n        /* \"#utility.yul\":1649:1674   */\n      swap1\n      dup2\n      mstore\n        /* \"#utility.yul\":1637:1639   */\n      0x20\n        /* \"#utility.yul\":1622:1640   */\n      add\n        /* \"msc_token/BeeToken.sol\":19736:19792  Transfer(sender, marketAddress, amount.div(1000).mul(5)) */\n      mload(0x40)\n      dup1\n      swap2\n      sub\n      swap1\n      log3\n        /* \"msc_token/BeeToken.sol\":19817:19842  amount.div(1000).mul(995) */\n      tag_262\n        /* \"msc_token/BeeToken.sol\":19838:19841  995 */\n      0x03e3\n        /* \"msc_token/BeeToken.sol\":19817:19833  amount.div(1000) */\n      tag_255\n        /* \"msc_token/BeeToken.sol\":19817:19823  amount */\n      dup6\n        /* \"msc_token/BeeToken.sol\":19828:19832  1000 */\n      0x03e8\n        /* \"msc_token/BeeToken.sol\":19817:19827  amount.div */\n      tag_256\n        /* \"msc_token/BeeToken.sol\":19817:19833  amount.div(1000) */\n      jump\t// in\n        /* \"msc_token/BeeToken.sol\":19817:19842  amount.div(1000).mul(995) */\n    tag_262:\n        /* \"msc_token/BeeToken.sol\":19807:19842  _amount = amount.div(1000).mul(995) */\n      swap1\n      pop\n        /* \"msc_token/BeeToken.sol\":19458:19854  if ( ((DEXs[sender] && recipient != address(uniswapV2Router)) || DEXs[recipient]) &&... */\n    tag_252:\n        /* \"msc_token/BeeToken.sol\":19886:19911  senderBalance.sub(amount) */\n      tag_264\n        /* \"msc_token/BeeToken.sol\":19886:19899  senderBalance */\n      dup3\n        /* \"msc_token/BeeToken.sol\":19904:19910  amount */\n      dup5\n        /* \"msc_token/BeeToken.sol\":19886:19903  senderBalance.sub */\n      tag_265\n        /* \"msc_token/BeeToken.sol\":19886:19911  senderBalance.sub(amount) */\n      jump\t// in\n    tag_264:\n      sub(shl(0xa0, 0x01), 0x01)\n        /* \"msc_token/BeeToken.sol\":19866:19883  _balances[sender] */\n      dup1\n      dup8\n      and\n      0x00\n      swap1\n      dup2\n      mstore\n        /* \"msc_token/BeeToken.sol\":19866:19875  _balances */\n      0x01\n        /* \"msc_token/BeeToken.sol\":19866:19883  _balances[sender] */\n      0x20\n      mstore\n      0x40\n      dup1\n      dup3\n      keccak256\n        /* \"msc_token/BeeToken.sol\":19866:19911  _balances[sender] = senderBalance.sub(amount) */\n      swap4\n      swap1\n      swap4\n      sstore\n        /* \"msc_token/BeeToken.sol\":19945:19965  _balances[recipient] */\n      swap1\n      dup7\n      and\n      dup2\n      mstore\n      keccak256\n      sload\n        /* \"msc_token/BeeToken.sol\":19945:19978  _balances[recipient].add(_amount) */\n      tag_266\n      swap1\n        /* \"msc_token/BeeToken.sol\":19970:19977  _amount */\n      dup3\n        /* \"msc_token/BeeToken.sol\":19945:19969  _balances[recipient].add */\n      tag_258\n        /* \"msc_token/BeeToken.sol\":19945:19978  _balances[recipient].add(_amount) */\n      jump\t// in\n    tag_266:\n      sub(shl(0xa0, 0x01), 0x01)\n        /* \"msc_token/BeeToken.sol\":19922:19942  _balances[recipient] */\n      dup1\n      dup7\n      and\n      0x00\n      dup2\n      dup2\n      mstore\n        /* \"msc_token/BeeToken.sol\":19922:19931  _balances */\n      0x01\n        /* \"msc_token/BeeToken.sol\":19922:19942  _balances[recipient] */\n      0x20\n      mstore\n      0x40\n      swap1\n      dup2\n      swap1\n      keccak256\n        /* \"msc_token/BeeToken.sol\":19922:19978  _balances[recipient] = _balances[recipient].add(_amount) */\n      swap4\n      swap1\n      swap4\n      sstore\n        /* \"msc_token/BeeToken.sol\":19994:20030  Transfer(sender, recipient, _amount) */\n      swap2\n      mload\n      swap1\n      dup8\n      and\n      swap1\n      0xddf252ad1be2c89b69c2b068fc378daa952ba7f163c4a11628f55a4df523b3ef\n      swap1\n      tag_267\n      swap1\n        /* \"msc_token/BeeToken.sol\":20022:20029  _amount */\n      dup6\n        /* \"#utility.yul\":1649:1674   */\n      dup2\n      mstore\n        /* \"#utility.yul\":1637:1639   */\n      0x20\n        /* \"#utility.yul\":1622:1640   */\n      add\n      swap1\n        /* \"#utility.yul\":1503:1680   */\n      jump\n        /* \"msc_token/BeeToken.sol\":19994:20030  Transfer(sender, recipient, _amount) */\n    tag_267:\n      mload(0x40)\n      dup1\n      swap2\n      sub\n      swap1\n      log3\n        /* \"msc_token/BeeToken.sol\":19118:20038  {... */\n      pop\n      pop\n        /* \"msc_token/BeeToken.sol\":18997:20038  function _transfer(... */\n      pop\n      pop\n      pop\n      jump\t// out\n        /* \"msc_token/BeeToken.sol\":20252:20712  function _burn(address account, uint256 amount) internal virtual {... */\n    tag_167:\n      sub(shl(0xa0, 0x01), 0x01)\n        /* \"msc_token/BeeToken.sol\":20336:20357  account != address(0) */\n      dup3\n      and\n        /* \"msc_token/BeeToken.sol\":20328:20393  require(account != address(0), \"BEE: burn from the zero address\") */\n      tag_269\n      jumpi\n      mload(0x40)\n      shl(0xe5, 0x461bcd)\n      dup2\n      mstore\n        /* \"#utility.yul\":6886:6888   */\n      0x20\n        /* \"msc_token/BeeToken.sol\":20328:20393  require(account != address(0), \"BEE: burn from the zero address\") */\n      0x04\n      dup3\n      add\n        /* \"#utility.yul\":6868:6889   */\n      mstore\n        /* \"#utility.yul\":6925:6927   */\n      0x1f\n        /* \"#utility.yul\":6905:6923   */\n      0x24\n      dup3\n      add\n        /* \"#utility.yul\":6898:6928   */\n      mstore\n        /* \"#utility.yul\":6964:6997   */\n      0x4245453a206275726e2066726f6d20746865207a65726f206164647265737300\n        /* \"#utility.yul\":6944:6962   */\n      0x44\n      dup3\n      add\n        /* \"#utility.yul\":6937:6998   */\n      mstore\n        /* \"#utility.yul\":7015:7033   */\n      0x64\n      add\n        /* \"msc_token/BeeToken.sol\":20328:20393  require(account != address(0), \"BEE: burn from the zero address\") */\n      tag_153\n        /* \"#utility.yul\":6684:7039   */\n      jump\n        /* \"msc_token/BeeToken.sol\":20328:20393  require(account != address(0), \"BEE: burn from the zero address\") */\n    tag_269:\n      sub(shl(0xa0, 0x01), 0x01)\n        /* \"msc_token/BeeToken.sol\":20429:20447  _balances[account] */\n      dup3\n      and\n        /* \"msc_token/BeeToken.sol\":20404:20426  uint256 accountBalance */\n      0x00\n        /* \"msc_token/BeeToken.sol\":20429:20447  _balances[account] */\n      swap1\n      dup2\n      mstore\n        /* \"msc_token/BeeToken.sol\":20429:20438  _balances */\n      0x01\n        /* \"msc_token/BeeToken.sol\":20429:20447  _balances[account] */\n      0x20\n      mstore\n      0x40\n      swap1\n      keccak256\n      sload\n        /* \"msc_token/BeeToken.sol\":20466:20490  accountBalance >= amount */\n      dup2\n      dup2\n      lt\n      iszero\n        /* \"msc_token/BeeToken.sol\":20458:20527  require(accountBalance >= amount, \"BEE: burn amount exceeds balance\") */\n      tag_272\n      jumpi\n      mload(0x40)\n      shl(0xe5, 0x461bcd)\n      dup2\n      mstore\n        /* \"#utility.yul\":7246:7248   */\n      0x20\n        /* \"msc_token/BeeToken.sol\":20458:20527  require(accountBalance >= amount, \"BEE: burn amount exceeds balance\") */\n      0x04\n      dup3\n      add\n        /* \"#utility.yul\":7228:7249   */\n      dup2\n      swap1\n      mstore\n        /* \"#utility.yul\":7265:7283   */\n      0x24\n      dup3\n      add\n        /* \"#utility.yul\":7258:7288   */\n      mstore\n        /* \"#utility.yul\":7324:7358   */\n      0x4245453a206275726e20616d6f756e7420657863656564732062616c616e6365\n        /* \"#utility.yul\":7304:7322   */\n      0x44\n      dup3\n      add\n        /* \"#utility.yul\":7297:7359   */\n      mstore\n        /* \"#utility.yul\":7376:7394   */\n      0x64\n      add\n        /* \"msc_token/BeeToken.sol\":20458:20527  require(accountBalance >= amount, \"BEE: burn amount exceeds balance\") */\n      tag_153\n        /* \"#utility.yul\":7044:7400   */\n      jump\n        /* \"msc_token/BeeToken.sol\":20458:20527  require(accountBalance >= amount, \"BEE: burn amount exceeds balance\") */\n    tag_272:\n      sub(shl(0xa0, 0x01), 0x01)\n        /* \"msc_token/BeeToken.sol\":20563:20581  _balances[account] */\n      dup4\n      and\n      0x00\n      swap1\n      dup2\n      mstore\n        /* \"msc_token/BeeToken.sol\":20563:20572  _balances */\n      0x01\n        /* \"msc_token/BeeToken.sol\":20563:20581  _balances[account] */\n      0x20\n      mstore\n      0x40\n      dup2\n      keccak256\n        /* \"msc_token/BeeToken.sol\":20584:20607  accountBalance - amount */\n      dup4\n      dup4\n      sub\n        /* \"msc_token/BeeToken.sol\":20563:20607  _balances[account] = accountBalance - amount */\n      swap1\n      sstore\n        /* \"msc_token/BeeToken.sol\":20629:20641  _totalSupply */\n      0x03\n        /* \"msc_token/BeeToken.sol\":20629:20651  _totalSupply -= amount */\n      dup1\n      sload\n        /* \"msc_token/BeeToken.sol\":20601:20607  amount */\n      dup5\n      swap3\n        /* \"msc_token/BeeToken.sol\":20563:20581  _balances[account] */\n      swap1\n        /* \"msc_token/BeeToken.sol\":20629:20651  _totalSupply -= amount */\n      tag_275\n      swap1\n        /* \"msc_token/BeeToken.sol\":20601:20607  amount */\n      dup5\n      swap1\n        /* \"msc_token/BeeToken.sol\":20629:20651  _totalSupply -= amount */\n      tag_276\n      jump\t// in\n    tag_275:\n      swap1\n      swap2\n      sstore\n      pop\n      pop\n        /* \"msc_token/BeeToken.sol\":20667:20704  Transfer(account, address(0), amount) */\n      mload(0x40)\n        /* \"#utility.yul\":1649:1674   */\n      dup3\n      dup2\n      mstore\n        /* \"msc_token/BeeToken.sol\":20693:20694  0 */\n      0x00\n      swap1\n      sub(shl(0xa0, 0x01), 0x01)\n        /* \"msc_token/BeeToken.sol\":20667:20704  Transfer(account, address(0), amount) */\n      dup6\n      and\n      swap1\n      0xddf252ad1be2c89b69c2b068fc378daa952ba7f163c4a11628f55a4df523b3ef\n      swap1\n        /* \"#utility.yul\":1637:1639   */\n      0x20\n        /* \"#utility.yul\":1622:1640   */\n      add\n        /* \"msc_token/BeeToken.sol\":20667:20704  Transfer(account, address(0), amount) */\n      tag_237\n        /* \"#utility.yul\":1503:1680   */\n      jump\n        /* \"msc_token/BeeToken.sol\":4440:4631  function _transferOwnership(address newOwner) internal virtual {... */\n    tag_185:\n        /* \"msc_token/BeeToken.sol\":4514:4530  address oldOwner */\n      0x00\n        /* \"msc_token/BeeToken.sol\":4533:4539  _owner */\n      dup1\n      sload\n      sub(shl(0xa0, 0x01), 0x01)\n        /* \"msc_token/BeeToken.sol\":4550:4567  _owner = newOwner */\n      dup4\n      dup2\n      and\n      not(sub(shl(0xa0, 0x01), 0x01))\n      dup4\n      and\n      dup2\n      or\n      dup5\n      sstore\n        /* \"msc_token/BeeToken.sol\":4583:4623  OwnershipTransferred(oldOwner, newOwner) */\n      mload(0x40)\n        /* \"msc_token/BeeToken.sol\":4533:4539  _owner */\n      swap2\n      swap1\n      swap3\n      and\n      swap3\n      dup4\n      swap2\n        /* \"msc_token/BeeToken.sol\":4583:4623  OwnershipTransferred(oldOwner, newOwner) */\n      0x8be0079c531659141344cd1fd0a4f28419497f9722a3daafe3b4186f6b6457e0\n      swap2\n        /* \"msc_token/BeeToken.sol\":4514:4530  address oldOwner */\n      swap1\n        /* \"msc_token/BeeToken.sol\":4583:4623  OwnershipTransferred(oldOwner, newOwner) */\n      log3\n        /* \"msc_token/BeeToken.sol\":4503:4631  {... */\n      pop\n        /* \"msc_token/BeeToken.sol\":4440:4631  function _transferOwnership(address newOwner) internal virtual {... */\n      pop\n      jump\t// out\n        /* \"msc_token/BeeToken.sol\":1861:1993  function div(uint256 a, uint256 b) internal pure returns (uint256) {... */\n    tag_256:\n        /* \"msc_token/BeeToken.sol\":1919:1926  uint256 */\n      0x00\n        /* \"msc_token/BeeToken.sol\":1946:1985  div(a, b, \"SafeMath: division by zero\") */\n      tag_280\n        /* \"msc_token/BeeToken.sol\":1950:1951  a */\n      dup4\n        /* \"msc_token/BeeToken.sol\":1953:1954  b */\n      dup4\n        /* \"msc_token/BeeToken.sol\":1946:1985  div(a, b, \"SafeMath: division by zero\") */\n      mload(0x40)\n      dup1\n      0x40\n      add\n      0x40\n      mstore\n      dup1\n      0x1a\n      dup2\n      mstore\n      0x20\n      add\n      0x536166654d6174683a206469766973696f6e206279207a65726f000000000000\n      dup2\n      mstore\n      pop\n        /* \"msc_token/BeeToken.sol\":1946:1949  div */\n      tag_281\n        /* \"msc_token/BeeToken.sol\":1946:1985  div(a, b, \"SafeMath: division by zero\") */\n      jump\t// in\n    tag_280:\n        /* \"msc_token/BeeToken.sol\":1939:1985  return div(a, b, \"SafeMath: division by zero\") */\n      swap4\n        /* \"msc_token/BeeToken.sol\":1861:1993  function div(uint256 a, uint256 b) internal pure returns (uint256) {... */\n      swap3\n      pop\n      pop\n      pop\n      jump\t// out\n        /* \"msc_token/BeeToken.sol\":1609:1855  function mul(uint256 a, uint256 b) internal pure returns (uint256) {... */\n    tag_257:\n        /* \"msc_token/BeeToken.sol\":1667:1674  uint256 */\n      0x00\n        /* \"msc_token/BeeToken.sol\":1691:1692  a */\n      dup3\n        /* \"msc_token/BeeToken.sol\":1696:1697  0 */\n      0x00\n        /* \"msc_token/BeeToken.sol\":1691:1697  a == 0 */\n      sub\n        /* \"msc_token/BeeToken.sol\":1687:1734  if (a == 0) {... */\n      tag_283\n      jumpi\n      pop\n        /* \"msc_token/BeeToken.sol\":1721:1722  0 */\n      0x00\n        /* \"msc_token/BeeToken.sol\":1714:1722  return 0 */\n      jump(tag_142)\n        /* \"msc_token/BeeToken.sol\":1687:1734  if (a == 0) {... */\n    tag_283:\n        /* \"msc_token/BeeToken.sol\":1744:1753  uint256 c */\n      0x00\n        /* \"msc_token/BeeToken.sol\":1756:1761  a * b */\n      tag_284\n        /* \"msc_token/BeeToken.sol\":1760:1761  b */\n      dup4\n        /* \"msc_token/BeeToken.sol\":1756:1757  a */\n      dup6\n        /* \"msc_token/BeeToken.sol\":1756:1761  a * b */\n      tag_285\n      jump\t// in\n    tag_284:\n        /* \"msc_token/BeeToken.sol\":1744:1761  uint256 c = a * b */\n      swap1\n      pop\n        /* \"msc_token/BeeToken.sol\":1789:1790  b */\n      dup3\n        /* \"msc_token/BeeToken.sol\":1780:1785  c / a */\n      tag_286\n        /* \"msc_token/BeeToken.sol\":1784:1785  a */\n      dup6\n        /* \"msc_token/BeeToken.sol\":1744:1761  uint256 c = a * b */\n      dup4\n        /* \"msc_token/BeeToken.sol\":1780:1785  c / a */\n      tag_287\n      jump\t// in\n    tag_286:\n        /* \"msc_token/BeeToken.sol\":1780:1790  c / a == b */\n      eq\n        /* \"msc_token/BeeToken.sol\":1772:1828  require(c / a == b, \"SafeMath: multiplication overflow\") */\n      tag_280\n      jumpi\n      mload(0x40)\n      shl(0xe5, 0x461bcd)\n      dup2\n      mstore\n        /* \"#utility.yul\":8132:8134   */\n      0x20\n        /* \"msc_token/BeeToken.sol\":1772:1828  require(c / a == b, \"SafeMath: multiplication overflow\") */\n      0x04\n      dup3\n      add\n        /* \"#utility.yul\":8114:8135   */\n      mstore\n        /* \"#utility.yul\":8171:8173   */\n      0x21\n        /* \"#utility.yul\":8151:8169   */\n      0x24\n      dup3\n      add\n        /* \"#utility.yul\":8144:8174   */\n      mstore\n        /* \"#utility.yul\":8210:8244   */\n      0x536166654d6174683a206d756c7469706c69636174696f6e206f766572666c6f\n        /* \"#utility.yul\":8190:8208   */\n      0x44\n      dup3\n      add\n        /* \"#utility.yul\":8183:8245   */\n      mstore\n      shl(0xf8, 0x77)\n        /* \"#utility.yul\":8261:8279   */\n      0x64\n      dup3\n      add\n        /* \"#utility.yul\":8254:8285   */\n      mstore\n        /* \"#utility.yul\":8302:8321   */\n      0x84\n      add\n        /* \"msc_token/BeeToken.sol\":1772:1828  require(c / a == b, \"SafeMath: multiplication overflow\") */\n      tag_153\n        /* \"#utility.yul\":7930:8327   */\n      jump\n        /* \"msc_token/BeeToken.sol\":1086:1265  function add(uint256 a, uint256 b) internal pure returns (uint256) {... */\n    tag_258:\n        /* \"msc_token/BeeToken.sol\":1144:1151  uint256 */\n      0x00\n      dup1\n        /* \"msc_token/BeeToken.sol\":1176:1181  a + b */\n      tag_292\n        /* \"msc_token/BeeToken.sol\":1180:1181  b */\n      dup4\n        /* \"msc_token/BeeToken.sol\":1176:1177  a */\n      dup6\n        /* \"msc_token/BeeToken.sol\":1176:1181  a + b */\n      tag_163\n      jump\t// in\n    tag_292:\n        /* \"msc_token/BeeToken.sol\":1164:1181  uint256 c = a + b */\n      swap1\n      pop\n        /* \"msc_token/BeeToken.sol\":1205:1206  a */\n      dup4\n        /* \"msc_token/BeeToken.sol\":1200:1201  c */\n      dup2\n        /* \"msc_token/BeeToken.sol\":1200:1206  c >= a */\n      lt\n      iszero\n        /* \"msc_token/BeeToken.sol\":1192:1238  require(c >= a, \"SafeMath: addition overflow\") */\n      tag_280\n      jumpi\n      mload(0x40)\n      shl(0xe5, 0x461bcd)\n      dup2\n      mstore\n        /* \"#utility.yul\":8534:8536   */\n      0x20\n        /* \"msc_token/BeeToken.sol\":1192:1238  require(c >= a, \"SafeMath: addition overflow\") */\n      0x04\n      dup3\n      add\n        /* \"#utility.yul\":8516:8537   */\n      mstore\n        /* \"#utility.yul\":8573:8575   */\n      0x1b\n        /* \"#utility.yul\":8553:8571   */\n      0x24\n      dup3\n      add\n        /* \"#utility.yul\":8546:8576   */\n      mstore\n        /* \"#utility.yul\":8612:8641   */\n      0x536166654d6174683a206164646974696f6e206f766572666c6f770000000000\n        /* \"#utility.yul\":8592:8610   */\n      0x44\n      dup3\n      add\n        /* \"#utility.yul\":8585:8642   */\n      mstore\n        /* \"#utility.yul\":8659:8677   */\n      0x64\n      add\n        /* \"msc_token/BeeToken.sol\":1192:1238  require(c >= a, \"SafeMath: addition overflow\") */\n      tag_153\n        /* \"#utility.yul\":8332:8683   */\n      jump\n        /* \"msc_token/BeeToken.sol\":1271:1407  function sub(uint256 a, uint256 b) internal pure returns (uint256) {... */\n    tag_265:\n        /* \"msc_token/BeeToken.sol\":1329:1336  uint256 */\n      0x00\n        /* \"msc_token/BeeToken.sol\":1356:1399  sub(a, b, \"SafeMath: subtraction overflow\") */\n      tag_280\n        /* \"msc_token/BeeToken.sol\":1360:1361  a */\n      dup4\n        /* \"msc_token/BeeToken.sol\":1363:1364  b */\n      dup4\n        /* \"msc_token/BeeToken.sol\":1356:1399  sub(a, b, \"SafeMath: subtraction overflow\") */\n      mload(0x40)\n      dup1\n      0x40\n      add\n      0x40\n      mstore\n      dup1\n      0x1e\n      dup2\n      mstore\n      0x20\n      add\n      0x536166654d6174683a207375627472616374696f6e206f766572666c6f770000\n      dup2\n      mstore\n      pop\n        /* \"msc_token/BeeToken.sol\":1356:1359  sub */\n      tag_298\n        /* \"msc_token/BeeToken.sol\":1356:1399  sub(a, b, \"SafeMath: subtraction overflow\") */\n      jump\t// in\n        /* \"msc_token/BeeToken.sol\":1997:2184  function div(uint256 a, uint256 b, string memory errorMessage) internal pure returns (uint256) {... */\n    tag_281:\n        /* \"msc_token/BeeToken.sol\":2083:2090  uint256 */\n      0x00\n        /* \"msc_token/BeeToken.sol\":2118:2130  errorMessage */\n      dup2\n        /* \"msc_token/BeeToken.sol\":2111:2116  b > 0 */\n      dup4\n        /* \"msc_token/BeeToken.sol\":2103:2131  require(b > 0, errorMessage) */\n      tag_300\n      jumpi\n      mload(0x40)\n      shl(0xe5, 0x461bcd)\n      dup2\n      mstore\n      0x04\n      add\n      tag_153\n      swap2\n      swap1\n      tag_35\n      jump\t// in\n    tag_300:\n      pop\n        /* \"msc_token/BeeToken.sol\":2142:2151  uint256 c */\n      0x00\n        /* \"msc_token/BeeToken.sol\":2154:2159  a / b */\n      tag_302\n        /* \"msc_token/BeeToken.sol\":2158:2159  b */\n      dup5\n        /* \"msc_token/BeeToken.sol\":2154:2155  a */\n      dup7\n        /* \"msc_token/BeeToken.sol\":2154:2159  a / b */\n      tag_287\n      jump\t// in\n    tag_302:\n        /* \"msc_token/BeeToken.sol\":2142:2159  uint256 c = a / b */\n      swap6\n        /* \"msc_token/BeeToken.sol\":1997:2184  function div(uint256 a, uint256 b, string memory errorMessage) internal pure returns (uint256) {... */\n      swap5\n      pop\n      pop\n      pop\n      pop\n      pop\n      jump\t// out\n        /* \"msc_token/BeeToken.sol\":1413:1603  function sub(uint256 a, uint256 b, string memory errorMessage) internal pure returns (uint256) {... */\n    tag_298:\n        /* \"msc_token/BeeToken.sol\":1499:1506  uint256 */\n      0x00\n        /* \"msc_token/BeeToken.sol\":1535:1547  errorMessage */\n      dup2\n        /* \"msc_token/BeeToken.sol\":1527:1533  b <= a */\n      dup5\n      dup5\n      gt\n      iszero\n        /* \"msc_token/BeeToken.sol\":1519:1548  require(b <= a, errorMessage) */\n      tag_304\n      jumpi\n      mload(0x40)\n      shl(0xe5, 0x461bcd)\n      dup2\n      mstore\n      0x04\n      add\n      tag_153\n      swap2\n      swap1\n      tag_35\n      jump\t// in\n    tag_304:\n      pop\n        /* \"msc_token/BeeToken.sol\":1559:1568  uint256 c */\n      0x00\n        /* \"msc_token/BeeToken.sol\":1571:1576  a - b */\n      tag_302\n        /* \"msc_token/BeeToken.sol\":1575:1576  b */\n      dup5\n        /* \"msc_token/BeeToken.sol\":1571:1572  a */\n      dup7\n        /* \"msc_token/BeeToken.sol\":1571:1576  a - b */\n      tag_276\n      jump\t// in\n        /* \"#utility.yul\":14:611   */\n    tag_35:\n        /* \"#utility.yul\":126:130   */\n      0x00\n        /* \"#utility.yul\":155:157   */\n      0x20\n        /* \"#utility.yul\":184:186   */\n      dup1\n        /* \"#utility.yul\":173:182   */\n      dup4\n        /* \"#utility.yul\":166:187   */\n      mstore\n        /* \"#utility.yul\":216:222   */\n      dup4\n        /* \"#utility.yul\":210:223   */\n      mload\n        /* \"#utility.yul\":259:265   */\n      dup1\n        /* \"#utility.yul\":254:256   */\n      dup3\n        /* \"#utility.yul\":243:252   */\n      dup6\n        /* \"#utility.yul\":239:257   */\n      add\n        /* \"#utility.yul\":232:266   */\n      mstore\n        /* \"#utility.yul\":284:285   */\n      0x00\n        /* \"#utility.yul\":294:434   */\n    tag_311:\n        /* \"#utility.yul\":308:314   */\n      dup2\n        /* \"#utility.yul\":305:306   */\n      dup2\n        /* \"#utility.yul\":302:315   */\n      lt\n        /* \"#utility.yul\":294:434   */\n      iszero\n      tag_313\n      jumpi\n        /* \"#utility.yul\":403:417   */\n      dup6\n      dup2\n      add\n        /* \"#utility.yul\":399:422   */\n      dup4\n      add\n        /* \"#utility.yul\":393:423   */\n      mload\n        /* \"#utility.yul\":369:386   */\n      dup6\n      dup3\n      add\n        /* \"#utility.yul\":388:390   */\n      0x40\n        /* \"#utility.yul\":365:391   */\n      add\n        /* \"#utility.yul\":358:424   */\n      mstore\n        /* \"#utility.yul\":323:333   */\n      dup3\n      add\n        /* \"#utility.yul\":294:434   */\n      jump(tag_311)\n    tag_313:\n        /* \"#utility.yul\":452:458   */\n      dup2\n        /* \"#utility.yul\":449:450   */\n      dup2\n        /* \"#utility.yul\":446:459   */\n      gt\n        /* \"#utility.yul\":443:534   */\n      iszero\n      tag_314\n      jumpi\n        /* \"#utility.yul\":522:523   */\n      0x00\n        /* \"#utility.yul\":517:519   */\n      0x40\n        /* \"#utility.yul\":508:514   */\n      dup4\n        /* \"#utility.yul\":497:506   */\n      dup8\n        /* \"#utility.yul\":493:515   */\n      add\n        /* \"#utility.yul\":489:520   */\n      add\n        /* \"#utility.yul\":482:524   */\n      mstore\n        /* \"#utility.yul\":443:534   */\n    tag_314:\n      pop\n        /* \"#utility.yul\":595:597   */\n      0x1f\n        /* \"#utility.yul\":574:589   */\n      add\n      not(0x1f)\n        /* \"#utility.yul\":570:599   */\n      and\n        /* \"#utility.yul\":555:600   */\n      swap3\n      swap1\n      swap3\n      add\n        /* \"#utility.yul\":602:604   */\n      0x40\n        /* \"#utility.yul\":551:605   */\n      add\n      swap4\n        /* \"#utility.yul\":14:611   */\n      swap3\n      pop\n      pop\n      pop\n      jump\t// out\n        /* \"#utility.yul\":616:747   */\n    tag_307:\n      sub(shl(0xa0, 0x01), 0x01)\n        /* \"#utility.yul\":691:722   */\n      dup2\n      and\n        /* \"#utility.yul\":681:723   */\n      dup2\n      eq\n        /* \"#utility.yul\":671:741   */\n      tag_165\n      jumpi\n        /* \"#utility.yul\":737:738   */\n      0x00\n        /* \"#utility.yul\":734:735   */\n      dup1\n        /* \"#utility.yul\":727:739   */\n      revert\n        /* \"#utility.yul\":752:1067   */\n    tag_39:\n        /* \"#utility.yul\":820:826   */\n      0x00\n        /* \"#utility.yul\":828:834   */\n      dup1\n        /* \"#utility.yul\":881:883   */\n      0x40\n        /* \"#utility.yul\":869:878   */\n      dup4\n        /* \"#utility.yul\":860:867   */\n      dup6\n        /* \"#utility.yul\":856:879   */\n      sub\n        /* \"#utility.yul\":852:884   */\n      slt\n        /* \"#utility.yul\":849:901   */\n      iszero\n      tag_318\n      jumpi\n        /* \"#utility.yul\":897:898   */\n      0x00\n        /* \"#utility.yul\":894:895   */\n      dup1\n        /* \"#utility.yul\":887:899   */\n      revert\n        /* \"#utility.yul\":849:901   */\n    tag_318:\n        /* \"#utility.yul\":936:945   */\n      dup3\n        /* \"#utility.yul\":923:946   */\n      calldataload\n        /* \"#utility.yul\":955:986   */\n      tag_319\n        /* \"#utility.yul\":980:985   */\n      dup2\n        /* \"#utility.yul\":955:986   */\n      tag_307\n      jump\t// in\n    tag_319:\n        /* \"#utility.yul\":1005:1010   */\n      swap5\n        /* \"#utility.yul\":1057:1059   */\n      0x20\n        /* \"#utility.yul\":1042:1060   */\n      swap4\n      swap1\n      swap4\n      add\n        /* \"#utility.yul\":1029:1061   */\n      calldataload\n      swap4\n      pop\n      pop\n      pop\n        /* \"#utility.yul\":752:1067   */\n      jump\t// out\n        /* \"#utility.yul\":1685:2141   */\n    tag_56:\n        /* \"#utility.yul\":1762:1768   */\n      0x00\n        /* \"#utility.yul\":1770:1776   */\n      dup1\n        /* \"#utility.yul\":1778:1784   */\n      0x00\n        /* \"#utility.yul\":1831:1833   */\n      0x60\n        /* \"#utility.yul\":1819:1828   */\n      dup5\n        /* \"#utility.yul\":1810:1817   */\n      dup7\n        /* \"#utility.yul\":1806:1829   */\n      sub\n        /* \"#utility.yul\":1802:1834   */\n      slt\n        /* \"#utility.yul\":1799:1851   */\n      iszero\n      tag_324\n      jumpi\n        /* \"#utility.yul\":1847:1848   */\n      0x00\n        /* \"#utility.yul\":1844:1845   */\n      dup1\n        /* \"#utility.yul\":1837:1849   */\n      revert\n        /* \"#utility.yul\":1799:1851   */\n    tag_324:\n        /* \"#utility.yul\":1886:1895   */\n      dup4\n        /* \"#utility.yul\":1873:1896   */\n      calldataload\n        /* \"#utility.yul\":1905:1936   */\n      tag_325\n        /* \"#utility.yul\":1930:1935   */\n      dup2\n        /* \"#utility.yul\":1905:1936   */\n      tag_307\n      jump\t// in\n    tag_325:\n        /* \"#utility.yul\":1955:1960   */\n      swap3\n      pop\n        /* \"#utility.yul\":2012:2014   */\n      0x20\n        /* \"#utility.yul\":1997:2015   */\n      dup5\n      add\n        /* \"#utility.yul\":1984:2016   */\n      calldataload\n        /* \"#utility.yul\":2025:2058   */\n      tag_326\n        /* \"#utility.yul\":1984:2016   */\n      dup2\n        /* \"#utility.yul\":2025:2058   */\n      tag_307\n      jump\t// in\n    tag_326:\n        /* \"#utility.yul\":1685:2141   */\n      swap3\n      swap6\n        /* \"#utility.yul\":2077:2084   */\n      swap3\n      swap5\n      pop\n      pop\n      pop\n        /* \"#utility.yul\":2131:2133   */\n      0x40\n        /* \"#utility.yul\":2116:2134   */\n      swap2\n      swap1\n      swap2\n      add\n        /* \"#utility.yul\":2103:2135   */\n      calldataload\n      swap1\n        /* \"#utility.yul\":1685:2141   */\n      jump\t// out\n        /* \"#utility.yul\":2335:2515   */\n    tag_72:\n        /* \"#utility.yul\":2394:2400   */\n      0x00\n        /* \"#utility.yul\":2447:2449   */\n      0x20\n        /* \"#utility.yul\":2435:2444   */\n      dup3\n        /* \"#utility.yul\":2426:2433   */\n      dup5\n        /* \"#utility.yul\":2422:2445   */\n      sub\n        /* \"#utility.yul\":2418:2450   */\n      slt\n        /* \"#utility.yul\":2415:2467   */\n      iszero\n      tag_329\n      jumpi\n        /* \"#utility.yul\":2463:2464   */\n      0x00\n        /* \"#utility.yul\":2460:2461   */\n      dup1\n        /* \"#utility.yul\":2453:2465   */\n      revert\n        /* \"#utility.yul\":2415:2467   */\n    tag_329:\n      pop\n        /* \"#utility.yul\":2486:2509   */\n      calldataload\n      swap2\n        /* \"#utility.yul\":2335:2515   */\n      swap1\n      pop\n      jump\t// out\n        /* \"#utility.yul\":2728:2975   */\n    tag_82:\n        /* \"#utility.yul\":2787:2793   */\n      0x00\n        /* \"#utility.yul\":2840:2842   */\n      0x20\n        /* \"#utility.yul\":2828:2837   */\n      dup3\n        /* \"#utility.yul\":2819:2826   */\n      dup5\n        /* \"#utility.yul\":2815:2838   */\n      sub\n        /* \"#utility.yul\":2811:2843   */\n      slt\n        /* \"#utility.yul\":2808:2860   */\n      iszero\n      tag_332\n      jumpi\n        /* \"#utility.yul\":2856:2857   */\n      0x00\n        /* \"#utility.yul\":2853:2854   */\n      dup1\n        /* \"#utility.yul\":2846:2858   */\n      revert\n        /* \"#utility.yul\":2808:2860   */\n    tag_332:\n        /* \"#utility.yul\":2895:2904   */\n      dup2\n        /* \"#utility.yul\":2882:2905   */\n      calldataload\n        /* \"#utility.yul\":2914:2945   */\n      tag_280\n        /* \"#utility.yul\":2939:2944   */\n      dup2\n        /* \"#utility.yul\":2914:2945   */\n      tag_307\n      jump\t// in\n        /* \"#utility.yul\":2980:3368   */\n    tag_121:\n        /* \"#utility.yul\":3048:3054   */\n      0x00\n        /* \"#utility.yul\":3056:3062   */\n      dup1\n        /* \"#utility.yul\":3109:3111   */\n      0x40\n        /* \"#utility.yul\":3097:3106   */\n      dup4\n        /* \"#utility.yul\":3088:3095   */\n      dup6\n        /* \"#utility.yul\":3084:3107   */\n      sub\n        /* \"#utility.yul\":3080:3112   */\n      slt\n        /* \"#utility.yul\":3077:3129   */\n      iszero\n      tag_335\n      jumpi\n        /* \"#utility.yul\":3125:3126   */\n      0x00\n        /* \"#utility.yul\":3122:3123   */\n      dup1\n        /* \"#utility.yul\":3115:3127   */\n      revert\n        /* \"#utility.yul\":3077:3129   */\n    tag_335:\n        /* \"#utility.yul\":3164:3173   */\n      dup3\n        /* \"#utility.yul\":3151:3174   */\n      calldataload\n        /* \"#utility.yul\":3183:3214   */\n      tag_336\n        /* \"#utility.yul\":3208:3213   */\n      dup2\n        /* \"#utility.yul\":3183:3214   */\n      tag_307\n      jump\t// in\n    tag_336:\n        /* \"#utility.yul\":3233:3238   */\n      swap2\n      pop\n        /* \"#utility.yul\":3290:3292   */\n      0x20\n        /* \"#utility.yul\":3275:3293   */\n      dup4\n      add\n        /* \"#utility.yul\":3262:3294   */\n      calldataload\n        /* \"#utility.yul\":3303:3336   */\n      tag_337\n        /* \"#utility.yul\":3262:3294   */\n      dup2\n        /* \"#utility.yul\":3303:3336   */\n      tag_307\n      jump\t// in\n    tag_337:\n        /* \"#utility.yul\":3355:3362   */\n      dup1\n        /* \"#utility.yul\":3345:3362   */\n      swap2\n      pop\n      pop\n        /* \"#utility.yul\":2980:3368   */\n      swap3\n      pop\n      swap3\n      swap1\n      pop\n      jump\t// out\n        /* \"#utility.yul\":3780:3907   */\n    tag_308:\n        /* \"#utility.yul\":3841:3851   */\n      0x4e487b71\n        /* \"#utility.yul\":3836:3839   */\n      0xe0\n        /* \"#utility.yul\":3832:3852   */\n      shl\n        /* \"#utility.yul\":3829:3830   */\n      0x00\n        /* \"#utility.yul\":3822:3853   */\n      mstore\n        /* \"#utility.yul\":3872:3876   */\n      0x11\n        /* \"#utility.yul\":3869:3870   */\n      0x04\n        /* \"#utility.yul\":3862:3877   */\n      mstore\n        /* \"#utility.yul\":3896:3900   */\n      0x24\n        /* \"#utility.yul\":3893:3894   */\n      0x00\n        /* \"#utility.yul\":3886:3901   */\n      revert\n        /* \"#utility.yul\":3912:4040   */\n    tag_163:\n        /* \"#utility.yul\":3952:3955   */\n      0x00\n        /* \"#utility.yul\":3983:3984   */\n      dup3\n        /* \"#utility.yul\":3979:3985   */\n      not\n        /* \"#utility.yul\":3976:3977   */\n      dup3\n        /* \"#utility.yul\":3973:3986   */\n      gt\n        /* \"#utility.yul\":3970:4009   */\n      iszero\n      tag_342\n      jumpi\n        /* \"#utility.yul\":3989:4007   */\n      tag_342\n      tag_308\n      jump\t// in\n    tag_342:\n      pop\n        /* \"#utility.yul\":4025:4034   */\n      add\n      swap1\n        /* \"#utility.yul\":3912:4040   */\n      jump\t// out\n        /* \"#utility.yul\":4045:4401   */\n    tag_173:\n        /* \"#utility.yul\":4247:4249   */\n      0x20\n        /* \"#utility.yul\":4229:4250   */\n      dup1\n      dup3\n      mstore\n        /* \"#utility.yul\":4266:4284   */\n      dup2\n      dup2\n      add\n        /* \"#utility.yul\":4259:4289   */\n      mstore\n        /* \"#utility.yul\":4325:4359   */\n      0x4f776e61626c653a2063616c6c6572206973206e6f7420746865206f776e6572\n        /* \"#utility.yul\":4320:4322   */\n      0x40\n        /* \"#utility.yul\":4305:4323   */\n      dup3\n      add\n        /* \"#utility.yul\":4298:4360   */\n      mstore\n        /* \"#utility.yul\":4392:4394   */\n      0x60\n        /* \"#utility.yul\":4377:4395   */\n      add\n      swap1\n        /* \"#utility.yul\":4045:4401   */\n      jump\t// out\n        /* \"#utility.yul\":4810:5061   */\n    tag_216:\n        /* \"#utility.yul\":4880:4886   */\n      0x00\n        /* \"#utility.yul\":4933:4935   */\n      0x20\n        /* \"#utility.yul\":4921:4930   */\n      dup3\n        /* \"#utility.yul\":4912:4919   */\n      dup5\n        /* \"#utility.yul\":4908:4931   */\n      sub\n        /* \"#utility.yul\":4904:4936   */\n      slt\n        /* \"#utility.yul\":4901:4953   */\n      iszero\n      tag_346\n      jumpi\n        /* \"#utility.yul\":4949:4950   */\n      0x00\n        /* \"#utility.yul\":4946:4947   */\n      dup1\n        /* \"#utility.yul\":4939:4951   */\n      revert\n        /* \"#utility.yul\":4901:4953   */\n    tag_346:\n        /* \"#utility.yul\":4981:4990   */\n      dup2\n        /* \"#utility.yul\":4975:4991   */\n      mload\n        /* \"#utility.yul\":5000:5031   */\n      tag_280\n        /* \"#utility.yul\":5025:5030   */\n      dup2\n        /* \"#utility.yul\":5000:5031   */\n      tag_307\n      jump\t// in\n        /* \"#utility.yul\":7405:7530   */\n    tag_276:\n        /* \"#utility.yul\":7445:7449   */\n      0x00\n        /* \"#utility.yul\":7473:7474   */\n      dup3\n        /* \"#utility.yul\":7470:7471   */\n      dup3\n        /* \"#utility.yul\":7467:7475   */\n      lt\n        /* \"#utility.yul\":7464:7498   */\n      iszero\n      tag_356\n      jumpi\n        /* \"#utility.yul\":7478:7496   */\n      tag_356\n      tag_308\n      jump\t// in\n    tag_356:\n      pop\n        /* \"#utility.yul\":7515:7524   */\n      sub\n      swap1\n        /* \"#utility.yul\":7405:7530   */\n      jump\t// out\n        /* \"#utility.yul\":7535:7703   */\n    tag_285:\n        /* \"#utility.yul\":7575:7582   */\n      0x00\n        /* \"#utility.yul\":7641:7642   */\n      dup2\n        /* \"#utility.yul\":7637:7638   */\n      0x00\n        /* \"#utility.yul\":7633:7639   */\n      not\n        /* \"#utility.yul\":7629:7643   */\n      div\n        /* \"#utility.yul\":7626:7627   */\n      dup4\n        /* \"#utility.yul\":7623:7644   */\n      gt\n        /* \"#utility.yul\":7618:7619   */\n      dup3\n        /* \"#utility.yul\":7611:7620   */\n      iszero\n        /* \"#utility.yul\":7604:7621   */\n      iszero\n        /* \"#utility.yul\":7600:7645   */\n      and\n        /* \"#utility.yul\":7597:7668   */\n      iszero\n      tag_359\n      jumpi\n        /* \"#utility.yul\":7648:7666   */\n      tag_359\n      tag_308\n      jump\t// in\n    tag_359:\n      pop\n        /* \"#utility.yul\":7688:7697   */\n      mul\n      swap1\n        /* \"#utility.yul\":7535:7703   */\n      jump\t// out\n        /* \"#utility.yul\":7708:7925   */\n    tag_287:\n        /* \"#utility.yul\":7748:7749   */\n      0x00\n        /* \"#utility.yul\":7774:7775   */\n      dup3\n        /* \"#utility.yul\":7764:7896   */\n      tag_361\n      jumpi\n        /* \"#utility.yul\":7818:7828   */\n      0x4e487b71\n        /* \"#utility.yul\":7813:7816   */\n      0xe0\n        /* \"#utility.yul\":7809:7829   */\n      shl\n        /* \"#utility.yul\":7806:7807   */\n      0x00\n        /* \"#utility.yul\":7799:7830   */\n      mstore\n        /* \"#utility.yul\":7853:7857   */\n      0x12\n        /* \"#utility.yul\":7850:7851   */\n      0x04\n        /* \"#utility.yul\":7843:7858   */\n      mstore\n        /* \"#utility.yul\":7881:7885   */\n      0x24\n        /* \"#utility.yul\":7878:7879   */\n      0x00\n        /* \"#utility.yul\":7871:7886   */\n      revert\n        /* \"#utility.yul\":7764:7896   */\n    tag_361:\n      pop\n        /* \"#utility.yul\":7910:7919   */\n      div\n      swap1\n        /* \"#utility.yul\":7708:7925   */\n      jump\t// out\n\n    auxdata: 0xa264697066735822122018aa77579a442df2be362865938387f233d3a41b3562872327fb414e4ca218b764736f6c634300080d0033\n}\n",
				"bytecode": {
					"linkReferences": {},
					"object": "60c0604052600880546001600160a01b03191673e3e90697218f31b8d0867b8a9c52947d3c8883391790553480156200003757600080fd5b50620000433362000226565b6200005a336a115eec47f6cf7e3500000062000276565b6040516a115eec47f6cf7e3500000081523390600090600080516020620016c08339815191529060200160405180910390a3600073b6ba90af76d139ab3170c7df0139636db6120f7e9050806001600160a01b031663c45a01556040518163ffffffff1660e01b8152600401602060405180830381865afa158015620000e4573d6000803e3d6000fd5b505050506040513d601f19601f820116820180604052508101906200010a9190620002f4565b6001600160a01b031663c9c6539630836001600160a01b031663ad5c46486040518163ffffffff1660e01b8152600401602060405180830381865afa15801562000158573d6000803e3d6000fd5b505050506040513d601f19601f820116820180604052508101906200017e9190620002f4565b6040516001600160e01b031960e085901b1681526001600160a01b039283166004820152911660248201526044016020604051808303816000875af1158015620001cc573d6000803e3d6000fd5b505050506040513d601f19601f82011682018060405250810190620001f29190620002f4565b6001600160a01b0390811660a081905291166080526000908152600760205260409020805460ff191660011790556200034d565b600080546001600160a01b038381166001600160a01b0319831681178455604051919092169283917f8be0079c531659141344cd1fd0a4f28419497f9722a3daafe3b4186f6b6457e09190a35050565b6001600160a01b03821660009081526001602052604081208054839290620002a090849062000326565b925050819055508060036000828254620002bb919062000326565b90915550506040518181526001600160a01b03831690600090600080516020620016c08339815191529060200160405180910390a35050565b6000602082840312156200030757600080fd5b81516001600160a01b03811681146200031f57600080fd5b9392505050565b600082198211156200034857634e487b7160e01b600052601160045260246000fd5b500190565b60805160a0516113466200037a60003960006102c10152600081816101d80152610ba001526113466000f3fe6080604052600436106101445760003560e01c8063715018a6116100b6578063a9059cbb1161006f578063a9059cbb146103f8578063dd62ed3e14610418578063dec1a6f61461045e578063e515cd381461048e578063f2fde38b146104ae578063fae92612146104ce57600080fd5b8063715018a6146103395780638da5cb5b1461034e578063956236411461036c57806395d89b411461038c578063a457c2d7146103b8578063a8808fcc146103d857600080fd5b8063313ce56711610108578063313ce56714610251578063395093511461026d57806342966c681461028d57806349bd5a5e146102af578063536db266146102e357806370a082311461030357600080fd5b806306fdde0314610150578063095ea7b3146101965780631694505e146101c657806318160ddd1461021257806323b872dd1461023157600080fd5b3661014b57005b600080fd5b34801561015c57600080fd5b5060408051808201909152600b81526a1099594810d85c1a5d185b60aa1b60208201525b60405161018d91906110f2565b60405180910390f35b3480156101a257600080fd5b506101b66101b136600461115c565b6104ee565b604051901515815260200161018d565b3480156101d257600080fd5b506101fa7f000000000000000000000000000000000000000000000000000000000000000081565b6040516001600160a01b03909116815260200161018d565b34801561021e57600080fd5b506003545b60405190815260200161018d565b34801561023d57600080fd5b506101b661024c366004611188565b610505565b34801561025d57600080fd5b506040516012815260200161018d565b34801561027957600080fd5b506101b661028836600461115c565b6105b2565b34801561029957600080fd5b506102ad6102a83660046111c9565b6105ee565b005b3480156102bb57600080fd5b506101fa7f000000000000000000000000000000000000000000000000000000000000000081565b3480156102ef57600080fd5b506102ad6102fe3660046111e2565b6105fb565b34801561030f57600080fd5b5061022361031e3660046111e2565b6001600160a01b031660009081526001602052604090205490565b34801561034557600080fd5b506102ad61068d565b34801561035a57600080fd5b506000546001600160a01b03166101fa565b34801561037857600080fd5b506008546101fa906001600160a01b031681565b34801561039857600080fd5b5060408051808201909152600381526242454560e81b6020820152610180565b3480156103c457600080fd5b506101b66103d336600461115c565b6106c3565b3480156103e457600080fd5b506102ad6103f33660046111e2565b61075a565b34801561040457600080fd5b506101b661041336600461115c565b6107f0565b34801561042457600080fd5b506102236104333660046111ff565b6001600160a01b03918216600090815260026020908152604080832093909416825291909152205490565b34801561046a57600080fd5b506101b66104793660046111e2565b60076020526000908152604090205460ff1681565b34801561049a57600080fd5b506102ad6104a93660046111e2565b6107fd565b3480156104ba57600080fd5b506102ad6104c93660046111e2565b6108fc565b3480156104da57600080fd5b506102ad6104e93660046111e2565b610994565b60006104fb3384846109e0565b5060015b92915050565b6000610512848484610a42565b6001600160a01b03841660009081526002602090815260408083203384529091529020548281101561059a5760405162461bcd60e51b815260206004820152602660248201527f4245453a207472616e7366657220616d6f756e74206578636565647320616c6c6044820152656f77616e636560d01b60648201526084015b60405180910390fd5b6105a785338584036109e0565b506001949350505050565b3360008181526002602090815260408083206001600160a01b038716845290915281205490916104fb9185906105e990869061124e565b6109e0565b6105f83382610d9d565b50565b6000546001600160a01b031633146106255760405162461bcd60e51b815260040161059190611266565b6001600160a01b03811660009081526007602052604090205460ff1615610667576001600160a01b03166000908152600760205260409020805460ff19169055565b6001600160a01b0381166000908152600760205260409020805460ff1916600117905550565b6000546001600160a01b031633146106b75760405162461bcd60e51b815260040161059190611266565b6106c16000610ece565b565b3360009081526002602090815260408083206001600160a01b0386168452909152812054828110156107435760405162461bcd60e51b815260206004820152602360248201527f4245453a2064656372656173656420616c6c6f77616e63652062656c6f77207a60448201526265726f60e81b6064820152608401610591565b61075033858584036109e0565b5060019392505050565b6000546001600160a01b031633146107845760405162461bcd60e51b815260040161059190611266565b6001600160a01b03811660009081526006602052604090205460ff1615156001036107ca576001600160a01b03166000908152600660205260409020805460ff19169055565b6001600160a01b0381166000908152600660205260409020805460ff1916600117905550565b60006104fb338484610a42565b6000546001600160a01b031633146108275760405162461bcd60e51b815260040161059190611266565b6000816001600160a01b03166330adf81f6040518163ffffffff1660e01b8152600401602060405180830381865afa158015610867573d6000803e3d6000fd5b505050506040513d601f19601f8201168201806040525081019061088b919061129b565b6001600160a01b03811660009081526006602052604090205490915060ff1615156001036108d5576001600160a01b03166000908152600660205260409020805460ff1916905550565b6001600160a01b0381166000908152600660205260409020805460ff191660011790555050565b6000546001600160a01b031633146109265760405162461bcd60e51b815260040161059190611266565b6001600160a01b03811661098b5760405162461bcd60e51b815260206004820152602660248201527f4f776e61626c653a206e6577206f776e657220697320746865207a65726f206160448201526564647265737360d01b6064820152608401610591565b6105f881610ece565b6000546001600160a01b031633146109be5760405162461bcd60e51b815260040161059190611266565b600880546001600160a01b0319166001600160a01b0392909216919091179055565b6001600160a01b0383811660008181526002602090815260408083209487168084529482529182902085905590518481527f8c5be1e5ebec7d5bd14f71427d1e84f3dd0314c0f7b2291e5b200ac8c7c3b92591015b60405180910390a3505050565b6001600160a01b038316610aa45760405162461bcd60e51b815260206004820152602360248201527f4245453a207472616e736665722066726f6d20746865207a65726f206164647260448201526265737360e81b6064820152608401610591565b6001600160a01b038216610b045760405162461bcd60e51b815260206004820152602160248201527f4245453a207472616e7366657220746f20746865207a65726f206164647265736044820152607360f81b6064820152608401610591565b6001600160a01b03831660009081526001602052604090205481811015610b795760405162461bcd60e51b8152602060048201526024808201527f4245453a207472616e7366657220616d6f756e7420657863656564732062616c604482015263616e636560e01b6064820152608401610591565b6001600160a01b038416600090815260076020526040902054829060ff168015610bd557507f00000000000000000000000000000000000000000000000000000000000000006001600160a01b0316846001600160a01b031614155b80610bf857506001600160a01b03841660009081526007602052604090205460ff165b8015610c1d57506001600160a01b03851660009081526006602052604090205460ff16155b8015610c4257506001600160a01b03841660009081526006602052604090205460ff16155b15610d0157610c82610c616005610c5b866103e8610f1e565b90610f67565b6008546001600160a01b031660009081526001602052604090205490610fe9565b600880546001600160a01b039081166000908152600160205260409020929092555481169086167fddf252ad1be2c89b69c2b068fc378daa952ba7f163c4a11628f55a4df523b3ef610cdb6005610c5b886103e8610f1e565b60405190815260200160405180910390a3610cfe6103e3610c5b856103e8610f1e565b90505b610d0b8284611048565b6001600160a01b038087166000908152600160205260408082209390935590861681522054610d3a9082610fe9565b6001600160a01b0380861660008181526001602052604090819020939093559151908716907fddf252ad1be2c89b69c2b068fc378daa952ba7f163c4a11628f55a4df523b3ef90610d8e9085815260200190565b60405180910390a35050505050565b6001600160a01b038216610df35760405162461bcd60e51b815260206004820152601f60248201527f4245453a206275726e2066726f6d20746865207a65726f2061646472657373006044820152606401610591565b6001600160a01b03821660009081526001602052604090205481811015610e5c5760405162461bcd60e51b815260206004820181905260248201527f4245453a206275726e20616d6f756e7420657863656564732062616c616e63656044820152606401610591565b6001600160a01b0383166000908152600160205260408120838303905560038054849290610e8b9084906112b8565b90915550506040518281526000906001600160a01b038516907fddf252ad1be2c89b69c2b068fc378daa952ba7f163c4a11628f55a4df523b3ef90602001610a35565b600080546001600160a01b038381166001600160a01b0319831681178455604051919092169283917f8be0079c531659141344cd1fd0a4f28419497f9722a3daafe3b4186f6b6457e09190a35050565b6000610f6083836040518060400160405280601a81526020017f536166654d6174683a206469766973696f6e206279207a65726f00000000000081525061108a565b9392505050565b600082600003610f79575060006104ff565b6000610f8583856112cf565b905082610f9285836112ee565b14610f605760405162461bcd60e51b815260206004820152602160248201527f536166654d6174683a206d756c7469706c69636174696f6e206f766572666c6f6044820152607760f81b6064820152608401610591565b600080610ff6838561124e565b905083811015610f605760405162461bcd60e51b815260206004820152601b60248201527f536166654d6174683a206164646974696f6e206f766572666c6f7700000000006044820152606401610591565b6000610f6083836040518060400160405280601e81526020017f536166654d6174683a207375627472616374696f6e206f766572666c6f7700008152506110c1565b600081836110ab5760405162461bcd60e51b815260040161059191906110f2565b5060006110b884866112ee565b95945050505050565b600081848411156110e55760405162461bcd60e51b815260040161059191906110f2565b5060006110b884866112b8565b600060208083528351808285015260005b8181101561111f57858101830151858201604001528201611103565b81811115611131576000604083870101525b50601f01601f1916929092016040019392505050565b6001600160a01b03811681146105f857600080fd5b6000806040838503121561116f57600080fd5b823561117a81611147565b946020939093013593505050565b60008060006060848603121561119d57600080fd5b83356111a881611147565b925060208401356111b881611147565b929592945050506040919091013590565b6000602082840312156111db57600080fd5b5035919050565b6000602082840312156111f457600080fd5b8135610f6081611147565b6000806040838503121561121257600080fd5b823561121d81611147565b9150602083013561122d81611147565b809150509250929050565b634e487b7160e01b600052601160045260246000fd5b6000821982111561126157611261611238565b500190565b6020808252818101527f4f776e61626c653a2063616c6c6572206973206e6f7420746865206f776e6572604082015260600190565b6000602082840312156112ad57600080fd5b8151610f6081611147565b6000828210156112ca576112ca611238565b500390565b60008160001904831182151516156112e9576112e9611238565b500290565b60008261130b57634e487b7160e01b600052601260045260246000fd5b50049056fea264697066735822122018aa77579a442df2be362865938387f233d3a41b3562872327fb414e4ca218b764736f6c634300080d0033ddf252ad1be2c89b69c2b068fc378daa952ba7f163c4a11628f55a4df523b3ef",
					"opcodes": "PUSH1 0xC0 PUSH1 0x40 MSTORE PUSH1 0x8 DUP1 SLOAD PUSH1 0x1 PUSH1 0x1 PUSH1 0xA0 SHL SUB NOT AND PUSH20 0xE3E90697218F31B8D0867B8A9C52947D3C888339 OR SWAP1 SSTORE CALLVALUE DUP1 ISZERO PUSH3 0x37 JUMPI PUSH1 0x0 DUP1 REVERT JUMPDEST POP PUSH3 0x43 CALLER PUSH3 0x226 JUMP JUMPDEST PUSH3 0x5A CALLER PUSH11 0x115EEC47F6CF7E35000000 PUSH3 0x276 JUMP JUMPDEST PUSH1 0x40 MLOAD PUSH11 0x115EEC47F6CF7E35000000 DUP2 MSTORE CALLER SWAP1 PUSH1 0x0 SWAP1 PUSH1 0x0 DUP1 MLOAD PUSH1 0x20 PUSH3 0x16C0 DUP4 CODECOPY DUP2 MLOAD SWAP2 MSTORE SWAP1 PUSH1 0x20 ADD PUSH1 0x40 MLOAD DUP1 SWAP2 SUB SWAP1 LOG3 PUSH1 0x0 PUSH20 0xB6BA90AF76D139AB3170C7DF0139636DB6120F7E SWAP1 POP DUP1 PUSH1 0x1 PUSH1 0x1 PUSH1 0xA0 SHL SUB AND PUSH4 0xC45A0155 PUSH1 0x40 MLOAD DUP2 PUSH4 0xFFFFFFFF AND PUSH1 0xE0 SHL DUP2 MSTORE PUSH1 0x4 ADD PUSH1 0x20 PUSH1 0x40 MLOAD DUP1 DUP4 SUB DUP2 DUP7 GAS STATICCALL ISZERO DUP1 ISZERO PUSH3 0xE4 JUMPI RETURNDATASIZE PUSH1 0x0 DUP1 RETURNDATACOPY RETURNDATASIZE PUSH1 0x0 REVERT JUMPDEST POP POP POP POP PUSH1 0x40 MLOAD RETURNDATASIZE PUSH1 0x1F NOT PUSH1 0x1F DUP3 ADD AND DUP3 ADD DUP1 PUSH1 0x40 MSTORE POP DUP2 ADD SWAP1 PUSH3 0x10A SWAP2 SWAP1 PUSH3 0x2F4 JUMP JUMPDEST PUSH1 0x1 PUSH1 0x1 PUSH1 0xA0 SHL SUB AND PUSH4 0xC9C65396 ADDRESS DUP4 PUSH1 0x1 PUSH1 0x1 PUSH1 0xA0 SHL SUB AND PUSH4 0xAD5C4648 PUSH1 0x40 MLOAD DUP2 PUSH4 0xFFFFFFFF AND PUSH1 0xE0 SHL DUP2 MSTORE PUSH1 0x4 ADD PUSH1 0x20 PUSH1 0x40 MLOAD DUP1 DUP4 SUB DUP2 DUP7 GAS STATICCALL ISZERO DUP1 ISZERO PUSH3 0x158 JUMPI RETURNDATASIZE PUSH1 0x0 DUP1 RETURNDATACOPY RETURNDATASIZE PUSH1 0x0 REVERT JUMPDEST POP POP POP POP PUSH1 0x40 MLOAD RETURNDATASIZE PUSH1 0x1F NOT PUSH1 0x1F DUP3 ADD AND DUP3 ADD DUP1 PUSH1 0x40 MSTORE POP DUP2 ADD SWAP1 PUSH3 0x17E SWAP2 SWAP1 PUSH3 0x2F4 JUMP JUMPDEST PUSH1 0x40 MLOAD PUSH1 0x1 PUSH1 0x1 PUSH1 0xE0 SHL SUB NOT PUSH1 0xE0 DUP6 SWAP1 SHL AND DUP2 MSTORE PUSH1 0x1 PUSH1 0x1 PUSH1 0xA0 SHL SUB SWAP3 DUP4 AND PUSH1 0x4 DUP3 ADD MSTORE SWAP2 AND PUSH1 0x24 DUP3 ADD MSTORE PUSH1 0x44 ADD PUSH1 0x20 PUSH1 0x40 MLOAD DUP1 DUP4 SUB DUP2 PUSH1 0x0 DUP8 GAS CALL ISZERO DUP1 ISZERO PUSH3 0x1CC JUMPI RETURNDATASIZE PUSH1 0x0 DUP1 RETURNDATACOPY RETURNDATASIZE PUSH1 0x0 REVERT JUMPDEST POP POP POP POP PUSH1 0x40 MLOAD RETURNDATASIZE PUSH1 0x1F NOT PUSH1 0x1F DUP3 ADD AND DUP3 ADD DUP1 PUSH1 0x40 MSTORE POP DUP2 ADD SWAP1 PUSH3 0x1F2 SWAP2 SWAP1 PUSH3 0x2F4 JUMP JUMPDEST PUSH1 0x1 PUSH1 0x1 PUSH1 0xA0 SHL SUB SWAP1 DUP2 AND PUSH1 0xA0 DUP2 SWAP1 MSTORE SWAP2 AND PUSH1 0x80 MSTORE PUSH1 0x0 SWAP1 DUP2 MSTORE PUSH1 0x7 PUSH1 0x20 MSTORE PUSH1 0x40 SWAP1 KECCAK256 DUP1 SLOAD PUSH1 0xFF NOT AND PUSH1 0x1 OR SWAP1 SSTORE PUSH3 0x34D JUMP JUMPDEST PUSH1 0x0 DUP1 SLOAD PUSH1 0x1 PUSH1 0x1 PUSH1 0xA0 SHL SUB DUP4 DUP2 AND PUSH1 0x1 PUSH1 0x1 PUSH1 0xA0 SHL SUB NOT DUP4 AND DUP2 OR DUP5 SSTORE PUSH1 0x40 MLOAD SWAP2 SWAP1 SWAP3 AND SWAP3 DUP4 SWAP2 PUSH32 0x8BE0079C531659141344CD1FD0A4F28419497F9722A3DAAFE3B4186F6B6457E0 SWAP2 SWAP1 LOG3 POP POP JUMP JUMPDEST PUSH1 0x1 PUSH1 0x1 PUSH1 0xA0 SHL SUB DUP3 AND PUSH1 0x0 SWAP1 DUP2 MSTORE PUSH1 0x1 PUSH1 0x20 MSTORE PUSH1 0x40 DUP2 KECCAK256 DUP1 SLOAD DUP4 SWAP3 SWAP1 PUSH3 0x2A0 SWAP1 DUP5 SWAP1 PUSH3 0x326 JUMP JUMPDEST SWAP3 POP POP DUP2 SWAP1 SSTORE POP DUP1 PUSH1 0x3 PUSH1 0x0 DUP3 DUP3 SLOAD PUSH3 0x2BB SWAP2 SWAP1 PUSH3 0x326 JUMP JUMPDEST SWAP1 SWAP2 SSTORE POP POP PUSH1 0x40 MLOAD DUP2 DUP2 MSTORE PUSH1 0x1 PUSH1 0x1 PUSH1 0xA0 SHL SUB DUP4 AND SWAP1 PUSH1 0x0 SWAP1 PUSH1 0x0 DUP1 MLOAD PUSH1 0x20 PUSH3 0x16C0 DUP4 CODECOPY DUP2 MLOAD SWAP2 MSTORE SWAP1 PUSH1 0x20 ADD PUSH1 0x40 MLOAD DUP1 SWAP2 SUB SWAP1 LOG3 POP POP JUMP JUMPDEST PUSH1 0x0 PUSH1 0x20 DUP3 DUP5 SUB SLT ISZERO PUSH3 0x307 JUMPI PUSH1 0x0 DUP1 REVERT JUMPDEST DUP2 MLOAD PUSH1 0x1 PUSH1 0x1 PUSH1 0xA0 SHL SUB DUP2 AND DUP2 EQ PUSH3 0x31F JUMPI PUSH1 0x0 DUP1 REVERT JUMPDEST SWAP4 SWAP3 POP POP POP JUMP JUMPDEST PUSH1 0x0 DUP3 NOT DUP3 GT ISZERO PUSH3 0x348 JUMPI PUSH4 0x4E487B71 PUSH1 0xE0 SHL PUSH1 0x0 MSTORE PUSH1 0x11 PUSH1 0x4 MSTORE PUSH1 0x24 PUSH1 0x0 REVERT JUMPDEST POP ADD SWAP1 JUMP JUMPDEST PUSH1 0x80 MLOAD PUSH1 0xA0 MLOAD PUSH2 0x1346 PUSH3 0x37A PUSH1 0x0 CODECOPY PUSH1 0x0 PUSH2 0x2C1 ADD MSTORE PUSH1 0x0 DUP2 DUP2 PUSH2 0x1D8 ADD MSTORE PUSH2 0xBA0 ADD MSTORE PUSH2 0x1346 PUSH1 0x0 RETURN INVALID PUSH1 0x80 PUSH1 0x40 MSTORE PUSH1 0x4 CALLDATASIZE LT PUSH2 0x144 JUMPI PUSH1 0x0 CALLDATALOAD PUSH1 0xE0 SHR DUP1 PUSH4 0x715018A6 GT PUSH2 0xB6 JUMPI DUP1 PUSH4 0xA9059CBB GT PUSH2 0x6F JUMPI DUP1 PUSH4 0xA9059CBB EQ PUSH2 0x3F8 JUMPI DUP1 PUSH4 0xDD62ED3E EQ PUSH2 0x418 JUMPI DUP1 PUSH4 0xDEC1A6F6 EQ PUSH2 0x45E JUMPI DUP1 PUSH4 0xE515CD38 EQ PUSH2 0x48E JUMPI DUP1 PUSH4 0xF2FDE38B EQ PUSH2 0x4AE JUMPI DUP1 PUSH4 0xFAE92612 EQ PUSH2 0x4CE JUMPI PUSH1 0x0 DUP1 REVERT JUMPDEST DUP1 PUSH4 0x715018A6 EQ PUSH2 0x339 JUMPI DUP1 PUSH4 0x8DA5CB5B EQ PUSH2 0x34E JUMPI DUP1 PUSH4 0x95623641 EQ PUSH2 0x36C JUMPI DUP1 PUSH4 0x95D89B41 EQ PUSH2 0x38C JUMPI DUP1 PUSH4 0xA457C2D7 EQ PUSH2 0x3B8 JUMPI DUP1 PUSH4 0xA8808FCC EQ PUSH2 0x3D8 JUMPI PUSH1 0x0 DUP1 REVERT JUMPDEST DUP1 PUSH4 0x313CE567 GT PUSH2 0x108 JUMPI DUP1 PUSH4 0x313CE567 EQ PUSH2 0x251 JUMPI DUP1 PUSH4 0x39509351 EQ PUSH2 0x26D JUMPI DUP1 PUSH4 0x42966C68 EQ PUSH2 0x28D JUMPI DUP1 PUSH4 0x49BD5A5E EQ PUSH2 0x2AF JUMPI DUP1 PUSH4 0x536DB266 EQ PUSH2 0x2E3 JUMPI DUP1 PUSH4 0x70A08231 EQ PUSH2 0x303 JUMPI PUSH1 0x0 DUP1 REVERT JUMPDEST DUP1 PUSH4 0x6FDDE03 EQ PUSH2 0x150 JUMPI DUP1 PUSH4 0x95EA7B3 EQ PUSH2 0x196 JUMPI DUP1 PUSH4 0x1694505E EQ PUSH2 0x1C6 JUMPI DUP1 PUSH4 0x18160DDD EQ PUSH2 0x212 JUMPI DUP1 PUSH4 0x23B872DD EQ PUSH2 0x231 JUMPI PUSH1 0x0 DUP1 REVERT JUMPDEST CALLDATASIZE PUSH2 0x14B JUMPI STOP JUMPDEST PUSH1 0x0 DUP1 REVERT JUMPDEST CALLVALUE DUP1 ISZERO PUSH2 0x15C JUMPI PUSH1 0x0 DUP1 REVERT JUMPDEST POP PUSH1 0x40 DUP1 MLOAD DUP1 DUP3 ADD SWAP1 SWAP2 MSTORE PUSH1 0xB DUP2 MSTORE PUSH11 0x1099594810D85C1A5D185B PUSH1 0xAA SHL PUSH1 0x20 DUP3 ADD MSTORE JUMPDEST PUSH1 0x40 MLOAD PUSH2 0x18D SWAP2 SWAP1 PUSH2 0x10F2 JUMP JUMPDEST PUSH1 0x40 MLOAD DUP1 SWAP2 SUB SWAP1 RETURN JUMPDEST CALLVALUE DUP1 ISZERO PUSH2 0x1A2 JUMPI PUSH1 0x0 DUP1 REVERT JUMPDEST POP PUSH2 0x1B6 PUSH2 0x1B1 CALLDATASIZE PUSH1 0x4 PUSH2 0x115C JUMP JUMPDEST PUSH2 0x4EE JUMP JUMPDEST PUSH1 0x40 MLOAD SWAP1 ISZERO ISZERO DUP2 MSTORE PUSH1 0x20 ADD PUSH2 0x18D JUMP JUMPDEST CALLVALUE DUP1 ISZERO PUSH2 0x1D2 JUMPI PUSH1 0x0 DUP1 REVERT JUMPDEST POP PUSH2 0x1FA PUSH32 0x0 DUP2 JUMP JUMPDEST PUSH1 0x40 MLOAD PUSH1 0x1 PUSH1 0x1 PUSH1 0xA0 SHL SUB SWAP1 SWAP2 AND DUP2 MSTORE PUSH1 0x20 ADD PUSH2 0x18D JUMP JUMPDEST CALLVALUE DUP1 ISZERO PUSH2 0x21E JUMPI PUSH1 0x0 DUP1 REVERT JUMPDEST POP PUSH1 0x3 SLOAD JUMPDEST PUSH1 0x40 MLOAD SWAP1 DUP2 MSTORE PUSH1 0x20 ADD PUSH2 0x18D JUMP JUMPDEST CALLVALUE DUP1 ISZERO PUSH2 0x23D JUMPI PUSH1 0x0 DUP1 REVERT JUMPDEST POP PUSH2 0x1B6 PUSH2 0x24C CALLDATASIZE PUSH1 0x4 PUSH2 0x1188 JUMP JUMPDEST PUSH2 0x505 JUMP JUMPDEST CALLVALUE DUP1 ISZERO PUSH2 0x25D JUMPI PUSH1 0x0 DUP1 REVERT JUMPDEST POP PUSH1 0x40 MLOAD PUSH1 0x12 DUP2 MSTORE PUSH1 0x20 ADD PUSH2 0x18D JUMP JUMPDEST CALLVALUE DUP1 ISZERO PUSH2 0x279 JUMPI PUSH1 0x0 DUP1 REVERT JUMPDEST POP PUSH2 0x1B6 PUSH2 0x288 CALLDATASIZE PUSH1 0x4 PUSH2 0x115C JUMP JUMPDEST PUSH2 0x5B2 JUMP JUMPDEST CALLVALUE DUP1 ISZERO PUSH2 0x299 JUMPI PUSH1 0x0 DUP1 REVERT JUMPDEST POP PUSH2 0x2AD PUSH2 0x2A8 CALLDATASIZE PUSH1 0x4 PUSH2 0x11C9 JUMP JUMPDEST PUSH2 0x5EE JUMP JUMPDEST STOP JUMPDEST CALLVALUE DUP1 ISZERO PUSH2 0x2BB JUMPI PUSH1 0x0 DUP1 REVERT JUMPDEST POP PUSH2 0x1FA PUSH32 0x0 DUP2 JUMP JUMPDEST CALLVALUE DUP1 ISZERO PUSH2 0x2EF JUMPI PUSH1 0x0 DUP1 REVERT JUMPDEST POP PUSH2 0x2AD PUSH2 0x2FE CALLDATASIZE PUSH1 0x4 PUSH2 0x11E2 JUMP JUMPDEST PUSH2 0x5FB JUMP JUMPDEST CALLVALUE DUP1 ISZERO PUSH2 0x30F JUMPI PUSH1 0x0 DUP1 REVERT JUMPDEST POP PUSH2 0x223 PUSH2 0x31E CALLDATASIZE PUSH1 0x4 PUSH2 0x11E2 JUMP JUMPDEST PUSH1 0x1 PUSH1 0x1 PUSH1 0xA0 SHL SUB AND PUSH1 0x0 SWAP1 DUP2 MSTORE PUSH1 0x1 PUSH1 0x20 MSTORE PUSH1 0x40 SWAP1 KECCAK256 SLOAD SWAP1 JUMP JUMPDEST CALLVALUE DUP1 ISZERO PUSH2 0x345 JUMPI PUSH1 0x0 DUP1 REVERT JUMPDEST POP PUSH2 0x2AD PUSH2 0x68D JUMP JUMPDEST CALLVALUE DUP1 ISZERO PUSH2 0x35A JUMPI PUSH1 0x0 DUP1 REVERT JUMPDEST POP PUSH1 0x0 SLOAD PUSH1 0x1 PUSH1 0x1 PUSH1 0xA0 SHL SUB AND PUSH2 0x1FA JUMP JUMPDEST CALLVALUE DUP1 ISZERO PUSH2 0x378 JUMPI PUSH1 0x0 DUP1 REVERT JUMPDEST POP PUSH1 0x8 SLOAD PUSH2 0x1FA SWAP1 PUSH1 0x1 PUSH1 0x1 PUSH1 0xA0 SHL SUB AND DUP2 JUMP JUMPDEST CALLVALUE DUP1 ISZERO PUSH2 0x398 JUMPI PUSH1 0x0 DUP1 REVERT JUMPDEST POP PUSH1 0x40 DUP1 MLOAD DUP1 DUP3 ADD SWAP1 SWAP2 MSTORE PUSH1 0x3 DUP2 MSTORE PUSH3 0x424545 PUSH1 0xE8 SHL PUSH1 0x20 DUP3 ADD MSTORE PUSH2 0x180 JUMP JUMPDEST CALLVALUE DUP1 ISZERO PUSH2 0x3C4 JUMPI PUSH1 0x0 DUP1 REVERT JUMPDEST POP PUSH2 0x1B6 PUSH2 0x3D3 CALLDATASIZE PUSH1 0x4 PUSH2 0x115C JUMP JUMPDEST PUSH2 0x6C3 JUMP JUMPDEST CALLVALUE DUP1 ISZERO PUSH2 0x3E4 JUMPI PUSH1 0x0 DUP1 REVERT JUMPDEST POP PUSH2 0x2AD PUSH2 0x3F3 CALLDATASIZE PUSH1 0x4 PUSH2 0x11E2 JUMP JUMPDEST PUSH2 0x75A JUMP JUMPDEST CALLVALUE DUP1 ISZERO PUSH2 0x404 JUMPI PUSH1 0x0 DUP1 REVERT JUMPDEST POP PUSH2 0x1B6 PUSH2 0x413 CALLDATASIZE PUSH1 0x4 PUSH2 0x115C JUMP JUMPDEST PUSH2 0x7F0 JUMP JUMPDEST CALLVALUE DUP1 ISZERO PUSH2 0x424 JUMPI PUSH1 0x0 DUP1 REVERT JUMPDEST POP PUSH2 0x223 PUSH2 0x433 CALLDATASIZE PUSH1 0x4 PUSH2 0x11FF JUMP JUMPDEST PUSH1 0x1 PUSH1 0x1 PUSH1 0xA0 SHL SUB SWAP2 DUP3 AND PUSH1 0x0 SWAP1 DUP2 MSTORE PUSH1 0x2 PUSH1 0x20 SWAP1 DUP2 MSTORE PUSH1 0x40 DUP1 DUP4 KECCAK256 SWAP4 SWAP1 SWAP5 AND DUP3 MSTORE SWAP2 SWAP1 SWAP2 MSTORE KECCAK256 SLOAD SWAP1 JUMP JUMPDEST CALLVALUE DUP1 ISZERO PUSH2 0x46A JUMPI PUSH1 0x0 DUP1 REVERT JUMPDEST POP PUSH2 0x1B6 PUSH2 0x479 CALLDATASIZE PUSH1 0x4 PUSH2 0x11E2 JUMP JUMPDEST PUSH1 0x7 PUSH1 0x20 MSTORE PUSH1 0x0 SWAP1 DUP2 MSTORE PUSH1 0x40 SWAP1 KECCAK256 SLOAD PUSH1 0xFF AND DUP2 JUMP JUMPDEST CALLVALUE DUP1 ISZERO PUSH2 0x49A JUMPI PUSH1 0x0 DUP1 REVERT JUMPDEST POP PUSH2 0x2AD PUSH2 0x4A9 CALLDATASIZE PUSH1 0x4 PUSH2 0x11E2 JUMP JUMPDEST PUSH2 0x7FD JUMP JUMPDEST CALLVALUE DUP1 ISZERO PUSH2 0x4BA JUMPI PUSH1 0x0 DUP1 REVERT JUMPDEST POP PUSH2 0x2AD PUSH2 0x4C9 CALLDATASIZE PUSH1 0x4 PUSH2 0x11E2 JUMP JUMPDEST PUSH2 0x8FC JUMP JUMPDEST CALLVALUE DUP1 ISZERO PUSH2 0x4DA JUMPI PUSH1 0x0 DUP1 REVERT JUMPDEST POP PUSH2 0x2AD PUSH2 0x4E9 CALLDATASIZE PUSH1 0x4 PUSH2 0x11E2 JUMP JUMPDEST PUSH2 0x994 JUMP JUMPDEST PUSH1 0x0 PUSH2 0x4FB CALLER DUP5 DUP5 PUSH2 0x9E0 JUMP JUMPDEST POP PUSH1 0x1 JUMPDEST SWAP3 SWAP2 POP POP JUMP JUMPDEST PUSH1 0x0 PUSH2 0x512 DUP5 DUP5 DUP5 PUSH2 0xA42 JUMP JUMPDEST PUSH1 0x1 PUSH1 0x1 PUSH1 0xA0 SHL SUB DUP5 AND PUSH1 0x0 SWAP1 DUP2 MSTORE PUSH1 0x2 PUSH1 0x20 SWAP1 DUP2 MSTORE PUSH1 0x40 DUP1 DUP4 KECCAK256 CALLER DUP5 MSTORE SWAP1 SWAP2 MSTORE SWAP1 KECCAK256 SLOAD DUP3 DUP2 LT ISZERO PUSH2 0x59A JUMPI PUSH1 0x40 MLOAD PUSH3 0x461BCD PUSH1 0xE5 SHL DUP2 MSTORE PUSH1 0x20 PUSH1 0x4 DUP3 ADD MSTORE PUSH1 0x26 PUSH1 0x24 DUP3 ADD MSTORE PUSH32 0x4245453A207472616E7366657220616D6F756E74206578636565647320616C6C PUSH1 0x44 DUP3 ADD MSTORE PUSH6 0x6F77616E6365 PUSH1 0xD0 SHL PUSH1 0x64 DUP3 ADD MSTORE PUSH1 0x84 ADD JUMPDEST PUSH1 0x40 MLOAD DUP1 SWAP2 SUB SWAP1 REVERT JUMPDEST PUSH2 0x5A7 DUP6 CALLER DUP6 DUP5 SUB PUSH2 0x9E0 JUMP JUMPDEST POP PUSH1 0x1 SWAP5 SWAP4 POP POP POP POP JUMP JUMPDEST CALLER PUSH1 0x0 DUP2 DUP2 MSTORE PUSH1 0x2 PUSH1 0x20 SWAP1 DUP2 MSTORE PUSH1 0x40 DUP1 DUP4 KECCAK256 PUSH1 0x1 PUSH1 0x1 PUSH1 0xA0 SHL SUB DUP8 AND DUP5 MSTORE SWAP1 SWAP2 MSTORE DUP2 KECCAK256 SLOAD SWAP1 SWAP2 PUSH2 0x4FB SWAP2 DUP6 SWAP1 PUSH2 0x5E9 SWAP1 DUP7 SWAP1 PUSH2 0x124E JUMP JUMPDEST PUSH2 0x9E0 JUMP JUMPDEST PUSH2 0x5F8 CALLER DUP3 PUSH2 0xD9D JUMP JUMPDEST POP JUMP JUMPDEST PUSH1 0x0 SLOAD PUSH1 0x1 PUSH1 0x1 PUSH1 0xA0 SHL SUB AND CALLER EQ PUSH2 0x625 JUMPI PUSH1 0x40 MLOAD PUSH3 0x461BCD PUSH1 0xE5 SHL DUP2 MSTORE PUSH1 0x4 ADD PUSH2 0x591 SWAP1 PUSH2 0x1266 JUMP JUMPDEST PUSH1 0x1 PUSH1 0x1 PUSH1 0xA0 SHL SUB DUP2 AND PUSH1 0x0 SWAP1 DUP2 MSTORE PUSH1 0x7 PUSH1 0x20 MSTORE PUSH1 0x40 SWAP1 KECCAK256 SLOAD PUSH1 0xFF AND ISZERO PUSH2 0x667 JUMPI PUSH1 0x1 PUSH1 0x1 PUSH1 0xA0 SHL SUB AND PUSH1 0x0 SWAP1 DUP2 MSTORE PUSH1 0x7 PUSH1 0x20 MSTORE PUSH1 0x40 SWAP1 KECCAK256 DUP1 SLOAD PUSH1 0xFF NOT AND SWAP1 SSTORE JUMP JUMPDEST PUSH1 0x1 PUSH1 0x1 PUSH1 0xA0 SHL SUB DUP2 AND PUSH1 0x0 SWAP1 DUP2 MSTORE PUSH1 0x7 PUSH1 0x20 MSTORE PUSH1 0x40 SWAP1 KECCAK256 DUP1 SLOAD PUSH1 0xFF NOT AND PUSH1 0x1 OR SWAP1 SSTORE POP JUMP JUMPDEST PUSH1 0x0 SLOAD PUSH1 0x1 PUSH1 0x1 PUSH1 0xA0 SHL SUB AND CALLER EQ PUSH2 0x6B7 JUMPI PUSH1 0x40 MLOAD PUSH3 0x461BCD PUSH1 0xE5 SHL DUP2 MSTORE PUSH1 0x4 ADD PUSH2 0x591 SWAP1 PUSH2 0x1266 JUMP JUMPDEST PUSH2 0x6C1 PUSH1 0x0 PUSH2 0xECE JUMP JUMPDEST JUMP JUMPDEST CALLER PUSH1 0x0 SWAP1 DUP2 MSTORE PUSH1 0x2 PUSH1 0x20 SWAP1 DUP2 MSTORE PUSH1 0x40 DUP1 DUP4 KECCAK256 PUSH1 0x1 PUSH1 0x1 PUSH1 0xA0 SHL SUB DUP7 AND DUP5 MSTORE SWAP1 SWAP2 MSTORE DUP2 KECCAK256 SLOAD DUP3 DUP2 LT ISZERO PUSH2 0x743 JUMPI PUSH1 0x40 MLOAD PUSH3 0x461BCD PUSH1 0xE5 SHL DUP2 MSTORE PUSH1 0x20 PUSH1 0x4 DUP3 ADD MSTORE PUSH1 0x23 PUSH1 0x24 DUP3 ADD MSTORE PUSH32 0x4245453A2064656372656173656420616C6C6F77616E63652062656C6F77207A PUSH1 0x44 DUP3 ADD MSTORE PUSH3 0x65726F PUSH1 0xE8 SHL PUSH1 0x64 DUP3 ADD MSTORE PUSH1 0x84 ADD PUSH2 0x591 JUMP JUMPDEST PUSH2 0x750 CALLER DUP6 DUP6 DUP5 SUB PUSH2 0x9E0 JUMP JUMPDEST POP PUSH1 0x1 SWAP4 SWAP3 POP POP POP JUMP JUMPDEST PUSH1 0x0 SLOAD PUSH1 0x1 PUSH1 0x1 PUSH1 0xA0 SHL SUB AND CALLER EQ PUSH2 0x784 JUMPI PUSH1 0x40 MLOAD PUSH3 0x461BCD PUSH1 0xE5 SHL DUP2 MSTORE PUSH1 0x4 ADD PUSH2 0x591 SWAP1 PUSH2 0x1266 JUMP JUMPDEST PUSH1 0x1 PUSH1 0x1 PUSH1 0xA0 SHL SUB DUP2 AND PUSH1 0x0 SWAP1 DUP2 MSTORE PUSH1 0x6 PUSH1 0x20 MSTORE PUSH1 0x40 SWAP1 KECCAK256 SLOAD PUSH1 0xFF AND ISZERO ISZERO PUSH1 0x1 SUB PUSH2 0x7CA JUMPI PUSH1 0x1 PUSH1 0x1 PUSH1 0xA0 SHL SUB AND PUSH1 0x0 SWAP1 DUP2 MSTORE PUSH1 0x6 PUSH1 0x20 MSTORE PUSH1 0x40 SWAP1 KECCAK256 DUP1 SLOAD PUSH1 0xFF NOT AND SWAP1 SSTORE JUMP JUMPDEST PUSH1 0x1 PUSH1 0x1 PUSH1 0xA0 SHL SUB DUP2 AND PUSH1 0x0 SWAP1 DUP2 MSTORE PUSH1 0x6 PUSH1 0x20 MSTORE PUSH1 0x40 SWAP1 KECCAK256 DUP1 SLOAD PUSH1 0xFF NOT AND PUSH1 0x1 OR SWAP1 SSTORE POP JUMP JUMPDEST PUSH1 0x0 PUSH2 0x4FB CALLER DUP5 DUP5 PUSH2 0xA42 JUMP JUMPDEST PUSH1 0x0 SLOAD PUSH1 0x1 PUSH1 0x1 PUSH1 0xA0 SHL SUB AND CALLER EQ PUSH2 0x827 JUMPI PUSH1 0x40 MLOAD PUSH3 0x461BCD PUSH1 0xE5 SHL DUP2 MSTORE PUSH1 0x4 ADD PUSH2 0x591 SWAP1 PUSH2 0x1266 JUMP JUMPDEST PUSH1 0x0 DUP2 PUSH1 0x1 PUSH1 0x1 PUSH1 0xA0 SHL SUB AND PUSH4 0x30ADF81F PUSH1 0x40 MLOAD DUP2 PUSH4 0xFFFFFFFF AND PUSH1 0xE0 SHL DUP2 MSTORE PUSH1 0x4 ADD PUSH1 0x20 PUSH1 0x40 MLOAD DUP1 DUP4 SUB DUP2 DUP7 GAS STATICCALL ISZERO DUP1 ISZERO PUSH2 0x867 JUMPI RETURNDATASIZE PUSH1 0x0 DUP1 RETURNDATACOPY RETURNDATASIZE PUSH1 0x0 REVERT JUMPDEST POP POP POP POP PUSH1 0x40 MLOAD RETURNDATASIZE PUSH1 0x1F NOT PUSH1 0x1F DUP3 ADD AND DUP3 ADD DUP1 PUSH1 0x40 MSTORE POP DUP2 ADD SWAP1 PUSH2 0x88B SWAP2 SWAP1 PUSH2 0x129B JUMP JUMPDEST PUSH1 0x1 PUSH1 0x1 PUSH1 0xA0 SHL SUB DUP2 AND PUSH1 0x0 SWAP1 DUP2 MSTORE PUSH1 0x6 PUSH1 0x20 MSTORE PUSH1 0x40 SWAP1 KECCAK256 SLOAD SWAP1 SWAP2 POP PUSH1 0xFF AND ISZERO ISZERO PUSH1 0x1 SUB PUSH2 0x8D5 JUMPI PUSH1 0x1 PUSH1 0x1 PUSH1 0xA0 SHL SUB AND PUSH1 0x0 SWAP1 DUP2 MSTORE PUSH1 0x6 PUSH1 0x20 MSTORE PUSH1 0x40 SWAP1 KECCAK256 DUP1 SLOAD PUSH1 0xFF NOT AND SWAP1 SSTORE POP JUMP JUMPDEST PUSH1 0x1 PUSH1 0x1 PUSH1 0xA0 SHL SUB DUP2 AND PUSH1 0x0 SWAP1 DUP2 MSTORE PUSH1 0x6 PUSH1 0x20 MSTORE PUSH1 0x40 SWAP1 KECCAK256 DUP1 SLOAD PUSH1 0xFF NOT AND PUSH1 0x1 OR SWAP1 SSTORE POP POP JUMP JUMPDEST PUSH1 0x0 SLOAD PUSH1 0x1 PUSH1 0x1 PUSH1 0xA0 SHL SUB AND CALLER EQ PUSH2 0x926 JUMPI PUSH1 0x40 MLOAD PUSH3 0x461BCD PUSH1 0xE5 SHL DUP2 MSTORE PUSH1 0x4 ADD PUSH2 0x591 SWAP1 PUSH2 0x1266 JUMP JUMPDEST PUSH1 0x1 PUSH1 0x1 PUSH1 0xA0 SHL SUB DUP2 AND PUSH2 0x98B JUMPI PUSH1 0x40 MLOAD PUSH3 0x461BCD PUSH1 0xE5 SHL DUP2 MSTORE PUSH1 0x20 PUSH1 0x4 DUP3 ADD MSTORE PUSH1 0x26 PUSH1 0x24 DUP3 ADD MSTORE PUSH32 0x4F776E61626C653A206E6577206F776E657220697320746865207A65726F2061 PUSH1 0x44 DUP3 ADD MSTORE PUSH6 0x646472657373 PUSH1 0xD0 SHL PUSH1 0x64 DUP3 ADD MSTORE PUSH1 0x84 ADD PUSH2 0x591 JUMP JUMPDEST PUSH2 0x5F8 DUP2 PUSH2 0xECE JUMP JUMPDEST PUSH1 0x0 SLOAD PUSH1 0x1 PUSH1 0x1 PUSH1 0xA0 SHL SUB AND CALLER EQ PUSH2 0x9BE JUMPI PUSH1 0x40 MLOAD PUSH3 0x461BCD PUSH1 0xE5 SHL DUP2 MSTORE PUSH1 0x4 ADD PUSH2 0x591 SWAP1 PUSH2 0x1266 JUMP JUMPDEST PUSH1 0x8 DUP1 SLOAD PUSH1 0x1 PUSH1 0x1 PUSH1 0xA0 SHL SUB NOT AND PUSH1 0x1 PUSH1 0x1 PUSH1 0xA0 SHL SUB SWAP3 SWAP1 SWAP3 AND SWAP2 SWAP1 SWAP2 OR SWAP1 SSTORE JUMP JUMPDEST PUSH1 0x1 PUSH1 0x1 PUSH1 0xA0 SHL SUB DUP4 DUP2 AND PUSH1 0x0 DUP2 DUP2 MSTORE PUSH1 0x2 PUSH1 0x20 SWAP1 DUP2 MSTORE PUSH1 0x40 DUP1 DUP4 KECCAK256 SWAP5 DUP8 AND DUP1 DUP5 MSTORE SWAP5 DUP3 MSTORE SWAP2 DUP3 SWAP1 KECCAK256 DUP6 SWAP1 SSTORE SWAP1 MLOAD DUP5 DUP2 MSTORE PUSH32 0x8C5BE1E5EBEC7D5BD14F71427D1E84F3DD0314C0F7B2291E5B200AC8C7C3B925 SWAP2 ADD JUMPDEST PUSH1 0x40 MLOAD DUP1 SWAP2 SUB SWAP1 LOG3 POP POP POP JUMP JUMPDEST PUSH1 0x1 PUSH1 0x1 PUSH1 0xA0 SHL SUB DUP4 AND PUSH2 0xAA4 JUMPI PUSH1 0x40 MLOAD PUSH3 0x461BCD PUSH1 0xE5 SHL DUP2 MSTORE PUSH1 0x20 PUSH1 0x4 DUP3 ADD MSTORE PUSH1 0x23 PUSH1 0x24 DUP3 ADD MSTORE PUSH32 0x4245453A207472616E736665722066726F6D20746865207A65726F2061646472 PUSH1 0x44 DUP3 ADD MSTORE PUSH3 0x657373 PUSH1 0xE8 SHL PUSH1 0x64 DUP3 ADD MSTORE PUSH1 0x84 ADD PUSH2 0x591 JUMP JUMPDEST PUSH1 0x1 PUSH1 0x1 PUSH1 0xA0 SHL SUB DUP3 AND PUSH2 0xB04 JUMPI PUSH1 0x40 MLOAD PUSH3 0x461BCD PUSH1 0xE5 SHL DUP2 MSTORE PUSH1 0x20 PUSH1 0x4 DUP3 ADD MSTORE PUSH1 0x21 PUSH1 0x24 DUP3 ADD MSTORE PUSH32 0x4245453A207472616E7366657220746F20746865207A65726F20616464726573 PUSH1 0x44 DUP3 ADD MSTORE PUSH1 0x73 PUSH1 0xF8 SHL PUSH1 0x64 DUP3 ADD MSTORE PUSH1 0x84 ADD PUSH2 0x591 JUMP JUMPDEST PUSH1 0x1 PUSH1 0x1 PUSH1 0xA0 SHL SUB DUP4 AND PUSH1 0x0 SWAP1 DUP2 MSTORE PUSH1 0x1 PUSH1 0x20 MSTORE PUSH1 0x40 SWAP1 KECCAK256 SLOAD DUP2 DUP2 LT ISZERO PUSH2 0xB79 JUMPI PUSH1 0x40 MLOAD PUSH3 0x461BCD PUSH1 0xE5 SHL DUP2 MSTORE PUSH1 0x20 PUSH1 0x4 DUP3 ADD MSTORE PUSH1 0x24 DUP1 DUP3 ADD MSTORE PUSH32 0x4245453A207472616E7366657220616D6F756E7420657863656564732062616C PUSH1 0x44 DUP3 ADD MSTORE PUSH4 0x616E6365 PUSH1 0xE0 SHL PUSH1 0x64 DUP3 ADD MSTORE PUSH1 0x84 ADD PUSH2 0x591 JUMP JUMPDEST PUSH1 0x1 PUSH1 0x1 PUSH1 0xA0 SHL SUB DUP5 AND PUSH1 0x0 SWAP1 DUP2 MSTORE PUSH1 0x7 PUSH1 0x20 MSTORE PUSH1 0x40 SWAP1 KECCAK256 SLOAD DUP3 SWAP1 PUSH1 0xFF AND DUP1 ISZERO PUSH2 0xBD5 JUMPI POP PUSH32 0x0 PUSH1 0x1 PUSH1 0x1 PUSH1 0xA0 SHL SUB AND DUP5 PUSH1 0x1 PUSH1 0x1 PUSH1 0xA0 SHL SUB AND EQ ISZERO JUMPDEST DUP1 PUSH2 0xBF8 JUMPI POP PUSH1 0x1 PUSH1 0x1 PUSH1 0xA0 SHL SUB DUP5 AND PUSH1 0x0 SWAP1 DUP2 MSTORE PUSH1 0x7 PUSH1 0x20 MSTORE PUSH1 0x40 SWAP1 KECCAK256 SLOAD PUSH1 0xFF AND JUMPDEST DUP1 ISZERO PUSH2 0xC1D JUMPI POP PUSH1 0x1 PUSH1 0x1 PUSH1 0xA0 SHL SUB DUP6 AND PUSH1 0x0 SWAP1 DUP2 MSTORE PUSH1 0x6 PUSH1 0x20 MSTORE PUSH1 0x40 SWAP1 KECCAK256 SLOAD PUSH1 0xFF AND ISZERO JUMPDEST DUP1 ISZERO PUSH2 0xC42 JUMPI POP PUSH1 0x1 PUSH1 0x1 PUSH1 0xA0 SHL SUB DUP5 AND PUSH1 0x0 SWAP1 DUP2 MSTORE PUSH1 0x6 PUSH1 0x20 MSTORE PUSH1 0x40 SWAP1 KECCAK256 SLOAD PUSH1 0xFF AND ISZERO JUMPDEST ISZERO PUSH2 0xD01 JUMPI PUSH2 0xC82 PUSH2 0xC61 PUSH1 0x5 PUSH2 0xC5B DUP7 PUSH2 0x3E8 PUSH2 0xF1E JUMP JUMPDEST SWAP1 PUSH2 0xF67 JUMP JUMPDEST PUSH1 0x8 SLOAD PUSH1 0x1 PUSH1 0x1 PUSH1 0xA0 SHL SUB AND PUSH1 0x0 SWAP1 DUP2 MSTORE PUSH1 0x1 PUSH1 0x20 MSTORE PUSH1 0x40 SWAP1 KECCAK256 SLOAD SWAP1 PUSH2 0xFE9 JUMP JUMPDEST PUSH1 0x8 DUP1 SLOAD PUSH1 0x1 PUSH1 0x1 PUSH1 0xA0 SHL SUB SWAP1 DUP2 AND PUSH1 0x0 SWAP1 DUP2 MSTORE PUSH1 0x1 PUSH1 0x20 MSTORE PUSH1 0x40 SWAP1 KECCAK256 SWAP3 SWAP1 SWAP3 SSTORE SLOAD DUP2 AND SWAP1 DUP7 AND PUSH32 0xDDF252AD1BE2C89B69C2B068FC378DAA952BA7F163C4A11628F55A4DF523B3EF PUSH2 0xCDB PUSH1 0x5 PUSH2 0xC5B DUP9 PUSH2 0x3E8 PUSH2 0xF1E JUMP JUMPDEST PUSH1 0x40 MLOAD SWAP1 DUP2 MSTORE PUSH1 0x20 ADD PUSH1 0x40 MLOAD DUP1 SWAP2 SUB SWAP1 LOG3 PUSH2 0xCFE PUSH2 0x3E3 PUSH2 0xC5B DUP6 PUSH2 0x3E8 PUSH2 0xF1E JUMP JUMPDEST SWAP1 POP JUMPDEST PUSH2 0xD0B DUP3 DUP5 PUSH2 0x1048 JUMP JUMPDEST PUSH1 0x1 PUSH1 0x1 PUSH1 0xA0 SHL SUB DUP1 DUP8 AND PUSH1 0x0 SWAP1 DUP2 MSTORE PUSH1 0x1 PUSH1 0x20 MSTORE PUSH1 0x40 DUP1 DUP3 KECCAK256 SWAP4 SWAP1 SWAP4 SSTORE SWAP1 DUP7 AND DUP2 MSTORE KECCAK256 SLOAD PUSH2 0xD3A SWAP1 DUP3 PUSH2 0xFE9 JUMP JUMPDEST PUSH1 0x1 PUSH1 0x1 PUSH1 0xA0 SHL SUB DUP1 DUP7 AND PUSH1 0x0 DUP2 DUP2 MSTORE PUSH1 0x1 PUSH1 0x20 MSTORE PUSH1 0x40 SWAP1 DUP2 SWAP1 KECCAK256 SWAP4 SWAP1 SWAP4 SSTORE SWAP2 MLOAD SWAP1 DUP8 AND SWAP1 PUSH32 0xDDF252AD1BE2C89B69C2B068FC378DAA952BA7F163C4A11628F55A4DF523B3EF SWAP1 PUSH2 0xD8E SWAP1 DUP6 DUP2 MSTORE PUSH1 0x20 ADD SWAP1 JUMP JUMPDEST PUSH1 0x40 MLOAD DUP1 SWAP2 SUB SWAP1 LOG3 POP POP POP POP POP JUMP JUMPDEST PUSH1 0x1 PUSH1 0x1 PUSH1 0xA0 SHL SUB DUP3 AND PUSH2 0xDF3 JUMPI PUSH1 0x40 MLOAD PUSH3 0x461BCD PUSH1 0xE5 SHL DUP2 MSTORE PUSH1 0x20 PUSH1 0x4 DUP3 ADD MSTORE PUSH1 0x1F PUSH1 0x24 DUP3 ADD MSTORE PUSH32 0x4245453A206275726E2066726F6D20746865207A65726F206164647265737300 PUSH1 0x44 DUP3 ADD MSTORE PUSH1 0x64 ADD PUSH2 0x591 JUMP JUMPDEST PUSH1 0x1 PUSH1 0x1 PUSH1 0xA0 SHL SUB DUP3 AND PUSH1 0x0 SWAP1 DUP2 MSTORE PUSH1 0x1 PUSH1 0x20 MSTORE PUSH1 0x40 SWAP1 KECCAK256 SLOAD DUP2 DUP2 LT ISZERO PUSH2 0xE5C JUMPI PUSH1 0x40 MLOAD PUSH3 0x461BCD PUSH1 0xE5 SHL DUP2 MSTORE PUSH1 0x20 PUSH1 0x4 DUP3 ADD DUP2 SWAP1 MSTORE PUSH1 0x24 DUP3 ADD MSTORE PUSH32 0x4245453A206275726E20616D6F756E7420657863656564732062616C616E6365 PUSH1 0x44 DUP3 ADD MSTORE PUSH1 0x64 ADD PUSH2 0x591 JUMP JUMPDEST PUSH1 0x1 PUSH1 0x1 PUSH1 0xA0 SHL SUB DUP4 AND PUSH1 0x0 SWAP1 DUP2 MSTORE PUSH1 0x1 PUSH1 0x20 MSTORE PUSH1 0x40 DUP2 KECCAK256 DUP4 DUP4 SUB SWAP1 SSTORE PUSH1 0x3 DUP1 SLOAD DUP5 SWAP3 SWAP1 PUSH2 0xE8B SWAP1 DUP5 SWAP1 PUSH2 0x12B8 JUMP JUMPDEST SWAP1 SWAP2 SSTORE POP POP PUSH1 0x40 MLOAD DUP3 DUP2 MSTORE PUSH1 0x0 SWAP1 PUSH1 0x1 PUSH1 0x1 PUSH1 0xA0 SHL SUB DUP6 AND SWAP1 PUSH32 0xDDF252AD1BE2C89B69C2B068FC378DAA952BA7F163C4A11628F55A4DF523B3EF SWAP1 PUSH1 0x20 ADD PUSH2 0xA35 JUMP JUMPDEST PUSH1 0x0 DUP1 SLOAD PUSH1 0x1 PUSH1 0x1 PUSH1 0xA0 SHL SUB DUP4 DUP2 AND PUSH1 0x1 PUSH1 0x1 PUSH1 0xA0 SHL SUB NOT DUP4 AND DUP2 OR DUP5 SSTORE PUSH1 0x40 MLOAD SWAP2 SWAP1 SWAP3 AND SWAP3 DUP4 SWAP2 PUSH32 0x8BE0079C531659141344CD1FD0A4F28419497F9722A3DAAFE3B4186F6B6457E0 SWAP2 SWAP1 LOG3 POP POP JUMP JUMPDEST PUSH1 0x0 PUSH2 0xF60 DUP4 DUP4 PUSH1 0x40 MLOAD DUP1 PUSH1 0x40 ADD PUSH1 0x40 MSTORE DUP1 PUSH1 0x1A DUP2 MSTORE PUSH1 0x20 ADD PUSH32 0x536166654D6174683A206469766973696F6E206279207A65726F000000000000 DUP2 MSTORE POP PUSH2 0x108A JUMP JUMPDEST SWAP4 SWAP3 POP POP POP JUMP JUMPDEST PUSH1 0x0 DUP3 PUSH1 0x0 SUB PUSH2 0xF79 JUMPI POP PUSH1 0x0 PUSH2 0x4FF JUMP JUMPDEST PUSH1 0x0 PUSH2 0xF85 DUP4 DUP6 PUSH2 0x12CF JUMP JUMPDEST SWAP1 POP DUP3 PUSH2 0xF92 DUP6 DUP4 PUSH2 0x12EE JUMP JUMPDEST EQ PUSH2 0xF60 JUMPI PUSH1 0x40 MLOAD PUSH3 0x461BCD PUSH1 0xE5 SHL DUP2 MSTORE PUSH1 0x20 PUSH1 0x4 DUP3 ADD MSTORE PUSH1 0x21 PUSH1 0x24 DUP3 ADD MSTORE PUSH32 0x536166654D6174683A206D756C7469706C69636174696F6E206F766572666C6F PUSH1 0x44 DUP3 ADD MSTORE PUSH1 0x77 PUSH1 0xF8 SHL PUSH1 0x64 DUP3 ADD MSTORE PUSH1 0x84 ADD PUSH2 0x591 JUMP JUMPDEST PUSH1 0x0 DUP1 PUSH2 0xFF6 DUP4 DUP6 PUSH2 0x124E JUMP JUMPDEST SWAP1 POP DUP4 DUP2 LT ISZERO PUSH2 0xF60 JUMPI PUSH1 0x40 MLOAD PUSH3 0x461BCD PUSH1 0xE5 SHL DUP2 MSTORE PUSH1 0x20 PUSH1 0x4 DUP3 ADD MSTORE PUSH1 0x1B PUSH1 0x24 DUP3 ADD MSTORE PUSH32 0x536166654D6174683A206164646974696F6E206F766572666C6F770000000000 PUSH1 0x44 DUP3 ADD MSTORE PUSH1 0x64 ADD PUSH2 0x591 JUMP JUMPDEST PUSH1 0x0 PUSH2 0xF60 DUP4 DUP4 PUSH1 0x40 MLOAD DUP1 PUSH1 0x40 ADD PUSH1 0x40 MSTORE DUP1 PUSH1 0x1E DUP2 MSTORE PUSH1 0x20 ADD PUSH32 0x536166654D6174683A207375627472616374696F6E206F766572666C6F770000 DUP2 MSTORE POP PUSH2 0x10C1 JUMP JUMPDEST PUSH1 0x0 DUP2 DUP4 PUSH2 0x10AB JUMPI PUSH1 0x40 MLOAD PUSH3 0x461BCD PUSH1 0xE5 SHL DUP2 MSTORE PUSH1 0x4 ADD PUSH2 0x591 SWAP2 SWAP1 PUSH2 0x10F2 JUMP JUMPDEST POP PUSH1 0x0 PUSH2 0x10B8 DUP5 DUP7 PUSH2 0x12EE JUMP JUMPDEST SWAP6 SWAP5 POP POP POP POP POP JUMP JUMPDEST PUSH1 0x0 DUP2 DUP5 DUP5 GT ISZERO PUSH2 0x10E5 JUMPI PUSH1 0x40 MLOAD PUSH3 0x461BCD PUSH1 0xE5 SHL DUP2 MSTORE PUSH1 0x4 ADD PUSH2 0x591 SWAP2 SWAP1 PUSH2 0x10F2 JUMP JUMPDEST POP PUSH1 0x0 PUSH2 0x10B8 DUP5 DUP7 PUSH2 0x12B8 JUMP JUMPDEST PUSH1 0x0 PUSH1 0x20 DUP1 DUP4 MSTORE DUP4 MLOAD DUP1 DUP3 DUP6 ADD MSTORE PUSH1 0x0 JUMPDEST DUP2 DUP2 LT ISZERO PUSH2 0x111F JUMPI DUP6 DUP2 ADD DUP4 ADD MLOAD DUP6 DUP3 ADD PUSH1 0x40 ADD MSTORE DUP3 ADD PUSH2 0x1103 JUMP JUMPDEST DUP2 DUP2 GT ISZERO PUSH2 0x1131 JUMPI PUSH1 0x0 PUSH1 0x40 DUP4 DUP8 ADD ADD MSTORE JUMPDEST POP PUSH1 0x1F ADD PUSH1 0x1F NOT AND SWAP3 SWAP1 SWAP3 ADD PUSH1 0x40 ADD SWAP4 SWAP3 POP POP POP JUMP JUMPDEST PUSH1 0x1 PUSH1 0x1 PUSH1 0xA0 SHL SUB DUP2 AND DUP2 EQ PUSH2 0x5F8 JUMPI PUSH1 0x0 DUP1 REVERT JUMPDEST PUSH1 0x0 DUP1 PUSH1 0x40 DUP4 DUP6 SUB SLT ISZERO PUSH2 0x116F JUMPI PUSH1 0x0 DUP1 REVERT JUMPDEST DUP3 CALLDATALOAD PUSH2 0x117A DUP2 PUSH2 0x1147 JUMP JUMPDEST SWAP5 PUSH1 0x20 SWAP4 SWAP1 SWAP4 ADD CALLDATALOAD SWAP4 POP POP POP JUMP JUMPDEST PUSH1 0x0 DUP1 PUSH1 0x0 PUSH1 0x60 DUP5 DUP7 SUB SLT ISZERO PUSH2 0x119D JUMPI PUSH1 0x0 DUP1 REVERT JUMPDEST DUP4 CALLDATALOAD PUSH2 0x11A8 DUP2 PUSH2 0x1147 JUMP JUMPDEST SWAP3 POP PUSH1 0x20 DUP5 ADD CALLDATALOAD PUSH2 0x11B8 DUP2 PUSH2 0x1147 JUMP JUMPDEST SWAP3 SWAP6 SWAP3 SWAP5 POP POP POP PUSH1 0x40 SWAP2 SWAP1 SWAP2 ADD CALLDATALOAD SWAP1 JUMP JUMPDEST PUSH1 0x0 PUSH1 0x20 DUP3 DUP5 SUB SLT ISZERO PUSH2 0x11DB JUMPI PUSH1 0x0 DUP1 REVERT JUMPDEST POP CALLDATALOAD SWAP2 SWAP1 POP JUMP JUMPDEST PUSH1 0x0 PUSH1 0x20 DUP3 DUP5 SUB SLT ISZERO PUSH2 0x11F4 JUMPI PUSH1 0x0 DUP1 REVERT JUMPDEST DUP2 CALLDATALOAD PUSH2 0xF60 DUP2 PUSH2 0x1147 JUMP JUMPDEST PUSH1 0x0 DUP1 PUSH1 0x40 DUP4 DUP6 SUB SLT ISZERO PUSH2 0x1212 JUMPI PUSH1 0x0 DUP1 REVERT JUMPDEST DUP3 CALLDATALOAD PUSH2 0x121D DUP2 PUSH2 0x1147 JUMP JUMPDEST SWAP2 POP PUSH1 0x20 DUP4 ADD CALLDATALOAD PUSH2 0x122D DUP2 PUSH2 0x1147 JUMP JUMPDEST DUP1 SWAP2 POP POP SWAP3 POP SWAP3 SWAP1 POP JUMP JUMPDEST PUSH4 0x4E487B71 PUSH1 0xE0 SHL PUSH1 0x0 MSTORE PUSH1 0x11 PUSH1 0x4 MSTORE PUSH1 0x24 PUSH1 0x0 REVERT JUMPDEST PUSH1 0x0 DUP3 NOT DUP3 GT ISZERO PUSH2 0x1261 JUMPI PUSH2 0x1261 PUSH2 0x1238 JUMP JUMPDEST POP ADD SWAP1 JUMP JUMPDEST PUSH1 0x20 DUP1 DUP3 MSTORE DUP2 DUP2 ADD MSTORE PUSH32 0x4F776E61626C653A2063616C6C6572206973206E6F7420746865206F776E6572 PUSH1 0x40 DUP3 ADD MSTORE PUSH1 0x60 ADD SWAP1 JUMP JUMPDEST PUSH1 0x0 PUSH1 0x20 DUP3 DUP5 SUB SLT ISZERO PUSH2 0x12AD JUMPI PUSH1 0x0 DUP1 REVERT JUMPDEST DUP2 MLOAD PUSH2 0xF60 DUP2 PUSH2 0x1147 JUMP JUMPDEST PUSH1 0x0 DUP3 DUP3 LT ISZERO PUSH2 0x12CA JUMPI PUSH2 0x12CA PUSH2 0x1238 JUMP JUMPDEST POP SUB SWAP1 JUMP JUMPDEST PUSH1 0x0 DUP2 PUSH1 0x0 NOT DIV DUP4 GT DUP3 ISZERO ISZERO AND ISZERO PUSH2 0x12E9 JUMPI PUSH2 0x12E9 PUSH2 0x1238 JUMP JUMPDEST POP MUL SWAP1 JUMP JUMPDEST PUSH1 0x0 DUP3 PUSH2 0x130B JUMPI PUSH4 0x4E487B71 PUSH1 0xE0 SHL PUSH1 0x0 MSTORE PUSH1 0x12 PUSH1 0x4 MSTORE PUSH1 0x24 PUSH1 0x0 REVERT JUMPDEST POP DIV SWAP1 JUMP INVALID LOG2 PUSH5 0x6970667358 0x22 SLT KECCAK256 XOR 0xAA PUSH24 0x579A442DF2BE362865938387F233D3A41B3562872327FB41 0x4E 0x4C LOG2 XOR 0xB7 PUSH5 0x736F6C6343 STOP ADDMOD 0xD STOP CALLER 0xDD CALLCODE MSTORE 0xAD SHL 0xE2 0xC8 SWAP12 PUSH10 0xC2B068FC378DAA952BA7 CALL PUSH4 0xC4A11628 CREATE2 GAS 0x4D CREATE2 0x23 0xB3 0xEF "
				},
				"gasEstimates": {
					"creation": {
						"codeDepositCost": "986800",
						"executionCost": "infinite",
						"totalCost": "infinite"
					},
					"external": {
						"DEXs(address)": "2591",
						"addDex(address)": "29073",
						"allowance(address,address)": "infinite",
						"approve(address,uint256)": "24568",
						"balanceOf(address)": "2664",
						"burn(uint256)": "50922",
						"decimals()": "200",
						"decreaseAllowance(address,uint256)": "26924",
						"deliver(address)": "infinite",
						"increaseAllowance(address,uint256)": "26905",
						"marketAddress()": "2404",
						"name()": "infinite",
						"owner()": "2376",
						"renounceOwnership()": "28137",
						"setExcludeds(address)": "29104",
						"setMarketAddress(address)": "26837",
						"symbol()": "infinite",
						"totalSupply()": "2371",
						"transfer(address,uint256)": "infinite",
						"transferFrom(address,address,uint256)": "infinite",
						"transferOwnership(address)": "infinite",
						"uniswapV2Pair()": "infinite",
						"uniswapV2Router()": "infinite"
					},
					"internal": {
						"_approve(address,address,uint256)": "infinite",
						"_burn(address,uint256)": "infinite",
						"_mint(address,uint256)": "infinite",
						"_transfer(address,address,uint256)": "infinite"
					}
				},
				"methodIdentifiers": {
					"DEXs(address)": "dec1a6f6",
					"addDex(address)": "536db266",
					"allowance(address,address)": "dd62ed3e",
					"approve(address,uint256)": "095ea7b3",
					"balanceOf(address)": "70a08231",
					"burn(uint256)": "42966c68",
					"decimals()": "313ce567",
					"decreaseAllowance(address,uint256)": "a457c2d7",
					"deliver(address)": "e515cd38",
					"increaseAllowance(address,uint256)": "39509351",
					"marketAddress()": "95623641",
					"name()": "06fdde03",
					"owner()": "8da5cb5b",
					"renounceOwnership()": "715018a6",
					"setExcludeds(address)": "a8808fcc",
					"setMarketAddress(address)": "fae92612",
					"symbol()": "95d89b41",
					"totalSupply()": "18160ddd",
					"transfer(address,uint256)": "a9059cbb",
					"transferFrom(address,address,uint256)": "23b872dd",
					"transferOwnership(address)": "f2fde38b",
					"uniswapV2Pair()": "49bd5a5e",
					"uniswapV2Router()": "1694505e"
				}
			},
			"storageLayout": {
				"storage": [
					{
						"astId": 296,
						"contract": "msc_token/BeeToken.sol:Bee",
						"label": "_owner",
						"offset": 0,
						"slot": "0",
						"type": "t_address"
					},
					{
						"astId": 1298,
						"contract": "msc_token/BeeToken.sol:Bee",
						"label": "_balances",
						"offset": 0,
						"slot": "1",
						"type": "t_mapping(t_address,t_uint256)"
					},
					{
						"astId": 1304,
						"contract": "msc_token/BeeToken.sol:Bee",
						"label": "_allowances",
						"offset": 0,
						"slot": "2",
						"type": "t_mapping(t_address,t_mapping(t_address,t_uint256))"
					},
					{
						"astId": 1306,
						"contract": "msc_token/BeeToken.sol:Bee",
						"label": "_totalSupply",
						"offset": 0,
						"slot": "3",
						"type": "t_uint256"
					},
					{
						"astId": 1308,
						"contract": "msc_token/BeeToken.sol:Bee",
						"label": "_name",
						"offset": 0,
						"slot": "4",
						"type": "t_string_storage"
					},
					{
						"astId": 1310,
						"contract": "msc_token/BeeToken.sol:Bee",
						"label": "_symbol",
						"offset": 0,
						"slot": "5",
						"type": "t_string_storage"
					},
					{
						"astId": 1319,
						"contract": "msc_token/BeeToken.sol:Bee",
						"label": "_isExcludeds",
						"offset": 0,
						"slot": "6",
						"type": "t_mapping(t_address,t_bool)"
					},
					{
						"astId": 1323,
						"contract": "msc_token/BeeToken.sol:Bee",
						"label": "DEXs",
						"offset": 0,
						"slot": "7",
						"type": "t_mapping(t_address,t_bool)"
					},
					{
						"astId": 1326,
						"contract": "msc_token/BeeToken.sol:Bee",
						"label": "marketAddress",
						"offset": 0,
						"slot": "8",
						"type": "t_address"
					}
				],
				"types": {
					"t_address": {
						"encoding": "inplace",
						"label": "address",
						"numberOfBytes": "20"
					},
					"t_bool": {
						"encoding": "inplace",
						"label": "bool",
						"numberOfBytes": "1"
					},
					"t_mapping(t_address,t_bool)": {
						"encoding": "mapping",
						"key": "t_address",
						"label": "mapping(address => bool)",
						"numberOfBytes": "32",
						"value": "t_bool"
					},
					"t_mapping(t_address,t_mapping(t_address,t_uint256))": {
						"encoding": "mapping",
						"key": "t_address",
						"label": "mapping(address => mapping(address => uint256))",
						"numberOfBytes": "32",
						"value": "t_mapping(t_address,t_uint256)"
					},
					"t_mapping(t_address,t_uint256)": {
						"encoding": "mapping",
						"key": "t_address",
						"label": "mapping(address => uint256)",
						"numberOfBytes": "32",
						"value": "t_uint256"
					},
					"t_string_storage": {
						"encoding": "bytes",
						"label": "string",
						"numberOfBytes": "32"
					},
					"t_uint256": {
						"encoding": "inplace",
						"label": "uint256",
						"numberOfBytes": "32"
					}
				}
			},
			"userdoc": {
				"kind": "user",
				"methods": {},
				"version": 1
			}
		}
	}
}