{
	"msc_token/ERC20.sol": {
		"ERC20": {
			"abi": [
				{
					"inputs": [
						{
							"internalType": "string",
							"name": "name_",
							"type": "string"
						},
						{
							"internalType": "string",
							"name": "symbol_",
							"type": "string"
						}
					],
					"stateMutability": "nonpayable",
					"type": "constructor"
				},
				{
					"anonymous": false,
					"inputs": [
						{
							"indexed": true,
							"internalType": "address",
							"name": "owner",
							"type": "address"
						},
						{
							"indexed": true,
							"internalType": "address",
							"name": "spender",
							"type": "address"
						},
						{
							"indexed": false,
							"internalType": "uint256",
							"name": "value",
							"type": "uint256"
						}
					],
					"name": "Approval",
					"type": "event"
				},
				{
					"anonymous": false,
					"inputs": [
						{
							"indexed": true,
							"internalType": "address",
							"name": "previousOwner",
							"type": "address"
						},
						{
							"indexed": true,
							"internalType": "address",
							"name": "newOwner",
							"type": "address"
						}
					],
					"name": "OwnershipTransferred",
					"type": "event"
				},
				{
					"anonymous": false,
					"inputs": [
						{
							"indexed": true,
							"internalType": "address",
							"name": "from",
							"type": "address"
						},
						{
							"indexed": true,
							"internalType": "address",
							"name": "to",
							"type": "address"
						},
						{
							"indexed": false,
							"internalType": "uint256",
							"name": "value",
							"type": "uint256"
						}
					],
					"name": "Transfer",
					"type": "event"
				},
				{
					"inputs": [
						{
							"internalType": "address",
							"name": "owner",
							"type": "address"
						},
						{
							"internalType": "address",
							"name": "spender",
							"type": "address"
						}
					],
					"name": "allowance",
					"outputs": [
						{
							"internalType": "uint256",
							"name": "",
							"type": "uint256"
						}
					],
					"stateMutability": "view",
					"type": "function"
				},
				{
					"inputs": [
						{
							"internalType": "address",
							"name": "spender",
							"type": "address"
						},
						{
							"internalType": "uint256",
							"name": "amount",
							"type": "uint256"
						}
					],
					"name": "approve",
					"outputs": [
						{
							"internalType": "bool",
							"name": "",
							"type": "bool"
						}
					],
					"stateMutability": "nonpayable",
					"type": "function"
				},
				{
					"inputs": [
						{
							"internalType": "address",
							"name": "account",
							"type": "address"
						}
					],
					"name": "balanceOf",
					"outputs": [
						{
							"internalType": "uint256",
							"name": "",
							"type": "uint256"
						}
					],
					"stateMutability": "view",
					"type": "function"
				},
				{
					"inputs": [],
					"name": "decimals",
					"outputs": [
						{
							"internalType": "uint8",
							"name": "",
							"type": "uint8"
						}
					],
					"stateMutability": "view",
					"type": "function"
				},
				{
					"inputs": [
						{
							"internalType": "address",
							"name": "spender",
							"type": "address"
						},
						{
							"internalType": "uint256",
							"name": "subtractedValue",
							"type": "uint256"
						}
					],
					"name": "decreaseAllowance",
					"outputs": [
						{
							"internalType": "bool",
							"name": "",
							"type": "bool"
						}
					],
					"stateMutability": "nonpayable",
					"type": "function"
				},
				{
					"inputs": [
						{
							"internalType": "address",
							"name": "spender",
							"type": "address"
						},
						{
							"internalType": "uint256",
							"name": "addedValue",
							"type": "uint256"
						}
					],
					"name": "increaseAllowance",
					"outputs": [
						{
							"internalType": "bool",
							"name": "",
							"type": "bool"
						}
					],
					"stateMutability": "nonpayable",
					"type": "function"
				},
				{
					"inputs": [],
					"name": "name",
					"outputs": [
						{
							"internalType": "string",
							"name": "",
							"type": "string"
						}
					],
					"stateMutability": "view",
					"type": "function"
				},
				{
					"inputs": [],
					"name": "owner",
					"outputs": [
						{
							"internalType": "address",
							"name": "",
							"type": "address"
						}
					],
					"stateMutability": "view",
					"type": "function"
				},
				{
					"inputs": [],
					"name": "renounceOwnership",
					"outputs": [],
					"stateMutability": "nonpayable",
					"type": "function"
				},
				{
					"inputs": [],
					"name": "symbol",
					"outputs": [
						{
							"internalType": "string",
							"name": "",
							"type": "string"
						}
					],
					"stateMutability": "view",
					"type": "function"
				},
				{
					"inputs": [],
					"name": "totalSupply",
					"outputs": [
						{
							"internalType": "uint256",
							"name": "",
							"type": "uint256"
						}
					],
					"stateMutability": "view",
					"type": "function"
				},
				{
					"inputs": [
						{
							"internalType": "address",
							"name": "recipient",
							"type": "address"
						},
						{
							"internalType": "uint256",
							"name": "amount",
							"type": "uint256"
						}
					],
					"name": "transfer",
					"outputs": [
						{
							"internalType": "bool",
							"name": "",
							"type": "bool"
						}
					],
					"stateMutability": "nonpayable",
					"type": "function"
				},
				{
					"inputs": [
						{
							"internalType": "address",
							"name": "sender",
							"type": "address"
						},
						{
							"internalType": "address",
							"name": "recipient",
							"type": "address"
						},
						{
							"internalType": "uint256",
							"name": "amount",
							"type": "uint256"
						}
					],
					"name": "transferFrom",
					"outputs": [
						{
							"internalType": "bool",
							"name": "",
							"type": "bool"
						}
					],
					"stateMutability": "nonpayable",
					"type": "function"
				},
				{
					"inputs": [
						{
							"internalType": "address",
							"name": "newOwner",
							"type": "address"
						}
					],
					"name": "transferOwnership",
					"outputs": [],
					"stateMutability": "nonpayable",
					"type": "function"
				}
			],
			"devdoc": {
				"kind": "dev",
				"methods": {
					"allowance(address,address)": {
						"details": "See {IERC20-allowance}."
					},
					"approve(address,uint256)": {
						"details": "See {IERC20-approve}. Requirements: - `spender` cannot be the zero address."
					},
					"balanceOf(address)": {
						"details": "See {IERC20-balanceOf}."
					},
					"constructor": {
						"details": "Sets the values for {name} and {symbol}. The default value of {decimals} is 18. To select a different value for {decimals} you should overload it. All two of these values are immutable: they can only be set once during construction."
					},
					"decimals()": {
						"details": "Returns the number of decimals used to get its user representation. For example, if `decimals` equals `2`, a balance of `505` tokens should be displayed to a user as `5.05` (`505 / 10 ** 2`). Tokens usually opt for a value of 18, imitating the relationship between Ether and Wei. This is the value {ERC20} uses, unless this function is overridden; NOTE: This information is only used for _display_ purposes: it in no way affects any of the arithmetic of the contract, including {IERC20-balanceOf} and {IERC20-transfer}."
					},
					"decreaseAllowance(address,uint256)": {
						"details": "Atomically decreases the allowance granted to `spender` by the caller. This is an alternative to {approve} that can be used as a mitigation for problems described in {IERC20-approve}. Emits an {Approval} event indicating the updated allowance. Requirements: - `spender` cannot be the zero address. - `spender` must have allowance for the caller of at least `subtractedValue`."
					},
					"increaseAllowance(address,uint256)": {
						"details": "Atomically increases the allowance granted to `spender` by the caller. This is an alternative to {approve} that can be used as a mitigation for problems described in {IERC20-approve}. Emits an {Approval} event indicating the updated allowance. Requirements: - `spender` cannot be the zero address."
					},
					"name()": {
						"details": "Returns the name of the token."
					},
					"owner()": {
						"details": "Returns the address of the current owner."
					},
					"renounceOwnership()": {
						"details": "Leaves the contract without owner. It will not be possible to call `onlyOwner` functions anymore. Can only be called by the current owner. NOTE: Renouncing ownership will leave the contract without an owner, thereby removing any functionality that is only available to the owner."
					},
					"symbol()": {
						"details": "Returns the symbol of the token, usually a shorter version of the name."
					},
					"totalSupply()": {
						"details": "See {IERC20-totalSupply}."
					},
					"transfer(address,uint256)": {
						"details": "See {IERC20-transfer}. Requirements: - `recipient` cannot be the zero address. - the caller must have a balance of at least `amount`."
					},
					"transferFrom(address,address,uint256)": {
						"details": "See {IERC20-transferFrom}. Emits an {Approval} event indicating the updated allowance. This is not required by the EIP. See the note at the beginning of {ERC20}. Requirements: - `sender` and `recipient` cannot be the zero address. - `sender` must have a balance of at least `amount`. - the caller must have allowance for ``sender``'s tokens of at least `amount`."
					},
					"transferOwnership(address)": {
						"details": "Transfers ownership of the contract to a new account (`newOwner`). Can only be called by the current owner."
					}
				},
				"version": 1
			},
			"evm": {
				"assembly": "    /* \"msc_token/ERC20.sol\":5392:16137  contract ERC20 is Context, IERC20, IERC20Metadata, Ownable{... */\n  mstore(0x40, 0x80)\n    /* \"msc_token/ERC20.sol\":5994:6110  constructor(string memory name_, string memory symbol_) {... */\n  callvalue\n  dup1\n  iszero\n  tag_1\n  jumpi\n  0x00\n  dup1\n  revert\ntag_1:\n  pop\n  mload(0x40)\n  sub(codesize, bytecodeSize)\n  dup1\n  bytecodeSize\n  dup4\n  codecopy\n  dup2\n  add\n  0x40\n  dup2\n  swap1\n  mstore\n  tag_2\n  swap2\n  tag_3\n  jump\t// in\ntag_2:\n    /* \"msc_token/ERC20.sol\":3803:3835  _transferOwnership(_msgSender()) */\n  tag_7\n    /* \"msc_token/ERC20.sol\":279:289  msg.sender */\n  caller\n    /* \"msc_token/ERC20.sol\":3803:3821  _transferOwnership */\n  tag_10\n    /* \"msc_token/ERC20.sol\":3803:3835  _transferOwnership(_msgSender()) */\n  jump\t// in\ntag_7:\n    /* \"msc_token/ERC20.sol\":6061:6074  _name = name_ */\n  dup2\n  mload\n  tag_12\n  swap1\n    /* \"msc_token/ERC20.sol\":6061:6066  _name */\n  0x04\n  swap1\n    /* \"msc_token/ERC20.sol\":6061:6074  _name = name_ */\n  0x20\n  dup6\n  add\n  swap1\n  tag_13\n  jump\t// in\ntag_12:\n  pop\n    /* \"msc_token/ERC20.sol\":6085:6102  _symbol = symbol_ */\n  dup1\n  mload\n  tag_14\n  swap1\n    /* \"msc_token/ERC20.sol\":6085:6092  _symbol */\n  0x05\n  swap1\n    /* \"msc_token/ERC20.sol\":6085:6102  _symbol = symbol_ */\n  0x20\n  dup5\n  add\n  swap1\n  tag_13\n  jump\t// in\ntag_14:\n  pop\n    /* \"msc_token/ERC20.sol\":5994:6110  constructor(string memory name_, string memory symbol_) {... */\n  pop\n  pop\n    /* \"msc_token/ERC20.sol\":5392:16137  contract ERC20 is Context, IERC20, IERC20Metadata, Ownable{... */\n  jump(tag_31)\n    /* \"msc_token/ERC20.sol\":5194:5385  function _transferOwnership(address newOwner) internal virtual {... */\ntag_10:\n    /* \"msc_token/ERC20.sol\":5268:5284  address oldOwner */\n  0x00\n    /* \"msc_token/ERC20.sol\":5287:5293  _owner */\n  dup1\n  sload\n  sub(shl(0xa0, 0x01), 0x01)\n    /* \"msc_token/ERC20.sol\":5304:5321  _owner = newOwner */\n  dup4\n  dup2\n  and\n  not(sub(shl(0xa0, 0x01), 0x01))\n  dup4\n  and\n  dup2\n  or\n  dup5\n  sstore\n    /* \"msc_token/ERC20.sol\":5337:5377  OwnershipTransferred(oldOwner, newOwner) */\n  mload(0x40)\n    /* \"msc_token/ERC20.sol\":5287:5293  _owner */\n  swap2\n  swap1\n  swap3\n  and\n  swap3\n  dup4\n  swap2\n    /* \"msc_token/ERC20.sol\":5337:5377  OwnershipTransferred(oldOwner, newOwner) */\n  0x8be0079c531659141344cd1fd0a4f28419497f9722a3daafe3b4186f6b6457e0\n  swap2\n    /* \"msc_token/ERC20.sol\":5268:5284  address oldOwner */\n  swap1\n    /* \"msc_token/ERC20.sol\":5337:5377  OwnershipTransferred(oldOwner, newOwner) */\n  log3\n    /* \"msc_token/ERC20.sol\":5257:5385  {... */\n  pop\n    /* \"msc_token/ERC20.sol\":5194:5385  function _transferOwnership(address newOwner) internal virtual {... */\n  pop\n  jump\t// out\n    /* \"msc_token/ERC20.sol\":5392:16137  contract ERC20 is Context, IERC20, IERC20Metadata, Ownable{... */\ntag_13:\n  dup3\n  dup1\n  sload\n  tag_18\n  swap1\n  tag_19\n  jump\t// in\ntag_18:\n  swap1\n  0x00\n  mstore\n  keccak256(0x00, 0x20)\n  swap1\n  0x1f\n  add\n  0x20\n  swap1\n  div\n  dup2\n  add\n  swap3\n  dup3\n  tag_21\n  jumpi\n  0x00\n  dup6\n  sstore\n  jump(tag_24)\ntag_21:\n  dup3\n  0x1f\n  lt\n  tag_22\n  jumpi\n  dup1\n  mload\n  not(0xff)\n  and\n  dup4\n  dup1\n  add\n  or\n  dup6\n  sstore\n  jump(tag_24)\ntag_22:\n  dup3\n  dup1\n  add\n  0x01\n  add\n  dup6\n  sstore\n  dup3\n  iszero\n  tag_24\n  jumpi\n  swap2\n  dup3\n  add\ntag_23:\n  dup3\n  dup2\n  gt\n  iszero\n  tag_24\n  jumpi\n  dup3\n  mload\n  dup3\n  sstore\n  swap2\n  0x20\n  add\n  swap2\n  swap1\n  0x01\n  add\n  swap1\n  jump(tag_23)\ntag_24:\n  pop\n  tag_25\n  swap3\n  swap2\n  pop\n  tag_26\n  jump\t// in\ntag_25:\n  pop\n  swap1\n  jump\t// out\ntag_26:\ntag_27:\n  dup1\n  dup3\n  gt\n  iszero\n  tag_25\n  jumpi\n  0x00\n  dup2\n  sstore\n  0x01\n  add\n  jump(tag_27)\n    /* \"#utility.yul\":14:141   */\ntag_29:\n    /* \"#utility.yul\":75:85   */\n  0x4e487b71\n    /* \"#utility.yul\":70:73   */\n  0xe0\n    /* \"#utility.yul\":66:86   */\n  shl\n    /* \"#utility.yul\":63:64   */\n  0x00\n    /* \"#utility.yul\":56:87   */\n  mstore\n    /* \"#utility.yul\":106:110   */\n  0x41\n    /* \"#utility.yul\":103:104   */\n  0x04\n    /* \"#utility.yul\":96:111   */\n  mstore\n    /* \"#utility.yul\":130:134   */\n  0x24\n    /* \"#utility.yul\":127:128   */\n  0x00\n    /* \"#utility.yul\":120:135   */\n  revert\n    /* \"#utility.yul\":146:1031   */\ntag_30:\n    /* \"#utility.yul\":200:205   */\n  0x00\n    /* \"#utility.yul\":253:256   */\n  dup3\n    /* \"#utility.yul\":246:250   */\n  0x1f\n    /* \"#utility.yul\":238:244   */\n  dup4\n    /* \"#utility.yul\":234:251   */\n  add\n    /* \"#utility.yul\":230:257   */\n  slt\n    /* \"#utility.yul\":220:275   */\n  tag_34\n  jumpi\n    /* \"#utility.yul\":271:272   */\n  0x00\n    /* \"#utility.yul\":268:269   */\n  dup1\n    /* \"#utility.yul\":261:273   */\n  revert\n    /* \"#utility.yul\":220:275   */\ntag_34:\n    /* \"#utility.yul\":294:307   */\n  dup2\n  mload\n  sub(shl(0x40, 0x01), 0x01)\n    /* \"#utility.yul\":356:366   */\n  dup1\n  dup3\n  gt\n    /* \"#utility.yul\":353:389   */\n  iszero\n  tag_36\n  jumpi\n    /* \"#utility.yul\":369:387   */\n  tag_36\n  tag_29\n  jump\t// in\ntag_36:\n    /* \"#utility.yul\":444:446   */\n  0x40\n    /* \"#utility.yul\":438:447   */\n  mload\n    /* \"#utility.yul\":412:414   */\n  0x1f\n    /* \"#utility.yul\":498:511   */\n  dup4\n  add\n  not(0x1f)\n    /* \"#utility.yul\":494:516   */\n  swap1\n  dup2\n  and\n    /* \"#utility.yul\":518:520   */\n  0x3f\n    /* \"#utility.yul\":490:521   */\n  add\n    /* \"#utility.yul\":486:526   */\n  and\n    /* \"#utility.yul\":474:527   */\n  dup2\n  add\n  swap1\n    /* \"#utility.yul\":542:560   */\n  dup3\n  dup3\n  gt\n    /* \"#utility.yul\":562:584   */\n  dup2\n  dup4\n  lt\n    /* \"#utility.yul\":539:585   */\n  or\n    /* \"#utility.yul\":536:608   */\n  iszero\n  tag_38\n  jumpi\n    /* \"#utility.yul\":588:606   */\n  tag_38\n  tag_29\n  jump\t// in\ntag_38:\n    /* \"#utility.yul\":628:638   */\n  dup2\n    /* \"#utility.yul\":624:626   */\n  0x40\n    /* \"#utility.yul\":617:639   */\n  mstore\n    /* \"#utility.yul\":663:665   */\n  dup4\n    /* \"#utility.yul\":655:661   */\n  dup2\n    /* \"#utility.yul\":648:666   */\n  mstore\n    /* \"#utility.yul\":685:689   */\n  0x20\n    /* \"#utility.yul\":675:689   */\n  swap3\n  pop\n    /* \"#utility.yul\":730:733   */\n  dup7\n    /* \"#utility.yul\":725:727   */\n  dup4\n    /* \"#utility.yul\":720:722   */\n  dup6\n    /* \"#utility.yul\":712:718   */\n  dup9\n    /* \"#utility.yul\":708:723   */\n  add\n    /* \"#utility.yul\":704:728   */\n  add\n    /* \"#utility.yul\":701:734   */\n  gt\n    /* \"#utility.yul\":698:751   */\n  iszero\n  tag_39\n  jumpi\n    /* \"#utility.yul\":747:748   */\n  0x00\n    /* \"#utility.yul\":744:745   */\n  dup1\n    /* \"#utility.yul\":737:749   */\n  revert\n    /* \"#utility.yul\":698:751   */\ntag_39:\n    /* \"#utility.yul\":769:770   */\n  0x00\n    /* \"#utility.yul\":760:770   */\n  swap2\n  pop\n    /* \"#utility.yul\":779:912   */\ntag_40:\n    /* \"#utility.yul\":793:795   */\n  dup4\n    /* \"#utility.yul\":790:791   */\n  dup3\n    /* \"#utility.yul\":787:796   */\n  lt\n    /* \"#utility.yul\":779:912   */\n  iszero\n  tag_42\n  jumpi\n    /* \"#utility.yul\":881:895   */\n  dup6\n  dup3\n  add\n    /* \"#utility.yul\":877:900   */\n  dup4\n  add\n    /* \"#utility.yul\":871:901   */\n  mload\n    /* \"#utility.yul\":850:864   */\n  dup2\n  dup4\n  add\n    /* \"#utility.yul\":846:869   */\n  dup5\n  add\n    /* \"#utility.yul\":839:902   */\n  mstore\n    /* \"#utility.yul\":804:814   */\n  swap1\n  dup3\n  add\n  swap1\n    /* \"#utility.yul\":779:912   */\n  jump(tag_40)\ntag_42:\n    /* \"#utility.yul\":930:932   */\n  dup4\n    /* \"#utility.yul\":927:928   */\n  dup3\n    /* \"#utility.yul\":924:933   */\n  gt\n    /* \"#utility.yul\":921:1001   */\n  iszero\n  tag_43\n  jumpi\n    /* \"#utility.yul\":989:990   */\n  0x00\n    /* \"#utility.yul\":984:986   */\n  dup4\n    /* \"#utility.yul\":979:981   */\n  dup6\n    /* \"#utility.yul\":971:977   */\n  dup4\n    /* \"#utility.yul\":967:982   */\n  add\n    /* \"#utility.yul\":963:987   */\n  add\n    /* \"#utility.yul\":956:991   */\n  mstore\n    /* \"#utility.yul\":921:1001   */\ntag_43:\n    /* \"#utility.yul\":1019:1025   */\n  swap7\n    /* \"#utility.yul\":146:1031   */\n  swap6\n  pop\n  pop\n  pop\n  pop\n  pop\n  pop\n  jump\t// out\n    /* \"#utility.yul\":1036:1598   */\ntag_3:\n    /* \"#utility.yul\":1135:1141   */\n  0x00\n    /* \"#utility.yul\":1143:1149   */\n  dup1\n    /* \"#utility.yul\":1196:1198   */\n  0x40\n    /* \"#utility.yul\":1184:1193   */\n  dup4\n    /* \"#utility.yul\":1175:1182   */\n  dup6\n    /* \"#utility.yul\":1171:1194   */\n  sub\n    /* \"#utility.yul\":1167:1199   */\n  slt\n    /* \"#utility.yul\":1164:1216   */\n  iszero\n  tag_45\n  jumpi\n    /* \"#utility.yul\":1212:1213   */\n  0x00\n    /* \"#utility.yul\":1209:1210   */\n  dup1\n    /* \"#utility.yul\":1202:1214   */\n  revert\n    /* \"#utility.yul\":1164:1216   */\ntag_45:\n    /* \"#utility.yul\":1239:1255   */\n  dup3\n  mload\n  sub(shl(0x40, 0x01), 0x01)\n    /* \"#utility.yul\":1304:1318   */\n  dup1\n  dup3\n  gt\n    /* \"#utility.yul\":1301:1335   */\n  iszero\n  tag_46\n  jumpi\n    /* \"#utility.yul\":1331:1332   */\n  0x00\n    /* \"#utility.yul\":1328:1329   */\n  dup1\n    /* \"#utility.yul\":1321:1333   */\n  revert\n    /* \"#utility.yul\":1301:1335   */\ntag_46:\n    /* \"#utility.yul\":1354:1415   */\n  tag_47\n    /* \"#utility.yul\":1407:1414   */\n  dup7\n    /* \"#utility.yul\":1398:1404   */\n  dup4\n    /* \"#utility.yul\":1387:1396   */\n  dup8\n    /* \"#utility.yul\":1383:1405   */\n  add\n    /* \"#utility.yul\":1354:1415   */\n  tag_30\n  jump\t// in\ntag_47:\n    /* \"#utility.yul\":1344:1415   */\n  swap4\n  pop\n    /* \"#utility.yul\":1461:1463   */\n  0x20\n    /* \"#utility.yul\":1450:1459   */\n  dup6\n    /* \"#utility.yul\":1446:1464   */\n  add\n    /* \"#utility.yul\":1440:1465   */\n  mload\n    /* \"#utility.yul\":1424:1465   */\n  swap2\n  pop\n    /* \"#utility.yul\":1490:1492   */\n  dup1\n    /* \"#utility.yul\":1480:1488   */\n  dup3\n    /* \"#utility.yul\":1477:1493   */\n  gt\n    /* \"#utility.yul\":1474:1510   */\n  iszero\n  tag_48\n  jumpi\n    /* \"#utility.yul\":1506:1507   */\n  0x00\n    /* \"#utility.yul\":1503:1504   */\n  dup1\n    /* \"#utility.yul\":1496:1508   */\n  revert\n    /* \"#utility.yul\":1474:1510   */\ntag_48:\n  pop\n    /* \"#utility.yul\":1529:1592   */\n  tag_49\n    /* \"#utility.yul\":1584:1591   */\n  dup6\n    /* \"#utility.yul\":1573:1581   */\n  dup3\n    /* \"#utility.yul\":1562:1571   */\n  dup7\n    /* \"#utility.yul\":1558:1582   */\n  add\n    /* \"#utility.yul\":1529:1592   */\n  tag_30\n  jump\t// in\ntag_49:\n    /* \"#utility.yul\":1519:1592   */\n  swap2\n  pop\n  pop\n    /* \"#utility.yul\":1036:1598   */\n  swap3\n  pop\n  swap3\n  swap1\n  pop\n  jump\t// out\n    /* \"#utility.yul\":1603:1983   */\ntag_19:\n    /* \"#utility.yul\":1682:1683   */\n  0x01\n    /* \"#utility.yul\":1678:1690   */\n  dup2\n  dup2\n  shr\n  swap1\n    /* \"#utility.yul\":1725:1737   */\n  dup3\n  and\n  dup1\n    /* \"#utility.yul\":1746:1807   */\n  tag_51\n  jumpi\n    /* \"#utility.yul\":1800:1804   */\n  0x7f\n    /* \"#utility.yul\":1792:1798   */\n  dup3\n    /* \"#utility.yul\":1788:1805   */\n  and\n    /* \"#utility.yul\":1778:1805   */\n  swap2\n  pop\n    /* \"#utility.yul\":1746:1807   */\ntag_51:\n    /* \"#utility.yul\":1853:1855   */\n  0x20\n    /* \"#utility.yul\":1845:1851   */\n  dup3\n    /* \"#utility.yul\":1842:1856   */\n  lt\n    /* \"#utility.yul\":1822:1840   */\n  dup2\n    /* \"#utility.yul\":1819:1857   */\n  sub\n    /* \"#utility.yul\":1816:1977   */\n  tag_52\n  jumpi\n    /* \"#utility.yul\":1899:1909   */\n  0x4e487b71\n    /* \"#utility.yul\":1894:1897   */\n  0xe0\n    /* \"#utility.yul\":1890:1910   */\n  shl\n    /* \"#utility.yul\":1887:1888   */\n  0x00\n    /* \"#utility.yul\":1880:1911   */\n  mstore\n    /* \"#utility.yul\":1934:1938   */\n  0x22\n    /* \"#utility.yul\":1931:1932   */\n  0x04\n    /* \"#utility.yul\":1924:1939   */\n  mstore\n    /* \"#utility.yul\":1962:1966   */\n  0x24\n    /* \"#utility.yul\":1959:1960   */\n  0x00\n    /* \"#utility.yul\":1952:1967   */\n  revert\n    /* \"#utility.yul\":1816:1977   */\ntag_52:\n  pop\n    /* \"#utility.yul\":1603:1983   */\n  swap2\n  swap1\n  pop\n  jump\t// out\ntag_31:\n    /* \"msc_token/ERC20.sol\":5392:16137  contract ERC20 is Context, IERC20, IERC20Metadata, Ownable{... */\n  dataSize(sub_0)\n  dup1\n  dataOffset(sub_0)\n  0x00\n  codecopy\n  0x00\n  return\nstop\n\nsub_0: assembly {\n        /* \"msc_token/ERC20.sol\":5392:16137  contract ERC20 is Context, IERC20, IERC20Metadata, Ownable{... */\n      mstore(0x40, 0x80)\n      callvalue\n      dup1\n      iszero\n      tag_1\n      jumpi\n      0x00\n      dup1\n      revert\n    tag_1:\n      pop\n      jumpi(tag_2, lt(calldatasize, 0x04))\n      shr(0xe0, calldataload(0x00))\n      dup1\n      0x715018a6\n      gt\n      tag_17\n      jumpi\n      dup1\n      0xa457c2d7\n      gt\n      tag_18\n      jumpi\n      dup1\n      0xa457c2d7\n      eq\n      tag_13\n      jumpi\n      dup1\n      0xa9059cbb\n      eq\n      tag_14\n      jumpi\n      dup1\n      0xdd62ed3e\n      eq\n      tag_15\n      jumpi\n      dup1\n      0xf2fde38b\n      eq\n      tag_16\n      jumpi\n      0x00\n      dup1\n      revert\n    tag_18:\n      dup1\n      0x715018a6\n      eq\n      tag_10\n      jumpi\n      dup1\n      0x8da5cb5b\n      eq\n      tag_11\n      jumpi\n      dup1\n      0x95d89b41\n      eq\n      tag_12\n      jumpi\n      0x00\n      dup1\n      revert\n    tag_17:\n      dup1\n      0x23b872dd\n      gt\n      tag_19\n      jumpi\n      dup1\n      0x23b872dd\n      eq\n      tag_6\n      jumpi\n      dup1\n      0x313ce567\n      eq\n      tag_7\n      jumpi\n      dup1\n      0x39509351\n      eq\n      tag_8\n      jumpi\n      dup1\n      0x70a08231\n      eq\n      tag_9\n      jumpi\n      0x00\n      dup1\n      revert\n    tag_19:\n      dup1\n      0x06fdde03\n      eq\n      tag_3\n      jumpi\n      dup1\n      0x095ea7b3\n      eq\n      tag_4\n      jumpi\n      dup1\n      0x18160ddd\n      eq\n      tag_5\n      jumpi\n    tag_2:\n      0x00\n      dup1\n      revert\n        /* \"msc_token/ERC20.sol\":6180:6280  function name() public view virtual override returns (string memory) {... */\n    tag_3:\n      tag_20\n      tag_21\n      jump\t// in\n    tag_20:\n      mload(0x40)\n      tag_22\n      swap2\n      swap1\n      tag_23\n      jump\t// in\n    tag_22:\n      mload(0x40)\n      dup1\n      swap2\n      sub\n      swap1\n      return\n        /* \"msc_token/ERC20.sol\":8347:8516  function approve(address spender, uint256 amount) public virtual override returns (bool) {... */\n    tag_4:\n      tag_24\n      tag_25\n      calldatasize\n      0x04\n      tag_26\n      jump\t// in\n    tag_25:\n      tag_27\n      jump\t// in\n    tag_24:\n      mload(0x40)\n        /* \"#utility.yul\":1218:1232   */\n      swap1\n      iszero\n        /* \"#utility.yul\":1211:1233   */\n      iszero\n        /* \"#utility.yul\":1193:1234   */\n      dup2\n      mstore\n        /* \"#utility.yul\":1181:1183   */\n      0x20\n        /* \"#utility.yul\":1166:1184   */\n      add\n        /* \"msc_token/ERC20.sol\":8347:8516  function approve(address spender, uint256 amount) public virtual override returns (bool) {... */\n      tag_22\n        /* \"#utility.yul\":1053:1240   */\n      jump\n        /* \"msc_token/ERC20.sol\":7300:7408  function totalSupply() public view virtual override returns (uint256) {... */\n    tag_5:\n        /* \"msc_token/ERC20.sol\":7388:7400  _totalSupply */\n      sload(0x03)\n        /* \"msc_token/ERC20.sol\":7300:7408  function totalSupply() public view virtual override returns (uint256) {... */\n    tag_30:\n      mload(0x40)\n        /* \"#utility.yul\":1391:1416   */\n      swap1\n      dup2\n      mstore\n        /* \"#utility.yul\":1379:1381   */\n      0x20\n        /* \"#utility.yul\":1364:1382   */\n      add\n        /* \"msc_token/ERC20.sol\":7300:7408  function totalSupply() public view virtual override returns (uint256) {... */\n      tag_22\n        /* \"#utility.yul\":1245:1422   */\n      jump\n        /* \"msc_token/ERC20.sol\":8998:9490  function transferFrom(... */\n    tag_6:\n      tag_24\n      tag_35\n      calldatasize\n      0x04\n      tag_36\n      jump\t// in\n    tag_35:\n      tag_37\n      jump\t// in\n        /* \"msc_token/ERC20.sol\":7142:7235  function decimals() public view virtual override returns (uint8) {... */\n    tag_7:\n      mload(0x40)\n        /* \"msc_token/ERC20.sol\":7225:7227  18 */\n      0x12\n        /* \"#utility.yul\":1902:1938   */\n      dup2\n      mstore\n        /* \"#utility.yul\":1890:1892   */\n      0x20\n        /* \"#utility.yul\":1875:1893   */\n      add\n        /* \"msc_token/ERC20.sol\":7142:7235  function decimals() public view virtual override returns (uint8) {... */\n      tag_22\n        /* \"#utility.yul\":1760:1944   */\n      jump\n        /* \"msc_token/ERC20.sol\":9899:10114  function increaseAllowance(address spender, uint256 addedValue) public virtual returns (bool) {... */\n    tag_8:\n      tag_24\n      tag_44\n      calldatasize\n      0x04\n      tag_26\n      jump\t// in\n    tag_44:\n      tag_45\n      jump\t// in\n        /* \"msc_token/ERC20.sol\":7471:7598  function balanceOf(address account) public view virtual override returns (uint256) {... */\n    tag_9:\n      tag_30\n      tag_48\n      calldatasize\n      0x04\n      tag_49\n      jump\t// in\n    tag_48:\n      sub(shl(0xa0, 0x01), 0x01)\n        /* \"msc_token/ERC20.sol\":7572:7590  _balances[account] */\n      and\n        /* \"msc_token/ERC20.sol\":7545:7552  uint256 */\n      0x00\n        /* \"msc_token/ERC20.sol\":7572:7590  _balances[account] */\n      swap1\n      dup2\n      mstore\n        /* \"msc_token/ERC20.sol\":7572:7581  _balances */\n      0x01\n        /* \"msc_token/ERC20.sol\":7572:7590  _balances[account] */\n      0x20\n      mstore\n      0x40\n      swap1\n      keccak256\n      sload\n      swap1\n        /* \"msc_token/ERC20.sol\":7471:7598  function balanceOf(address account) public view virtual override returns (uint256) {... */\n      jump\n        /* \"msc_token/ERC20.sol\":4575:4678  function renounceOwnership() public virtual onlyOwner {... */\n    tag_10:\n      tag_52\n      tag_53\n      jump\t// in\n    tag_52:\n      stop\n        /* \"msc_token/ERC20.sol\":3924:4011  function owner() public view virtual returns (address) {... */\n    tag_11:\n        /* \"msc_token/ERC20.sol\":3970:3977  address */\n      0x00\n        /* \"msc_token/ERC20.sol\":3997:4003  _owner */\n      sload\n        /* \"msc_token/ERC20.sol\":3924:4011  function owner() public view virtual returns (address) {... */\n      mload(0x40)\n      sub(shl(0xa0, 0x01), 0x01)\n        /* \"msc_token/ERC20.sol\":3997:4003  _owner */\n      swap1\n      swap2\n      and\n        /* \"#utility.yul\":2286:2337   */\n      dup2\n      mstore\n        /* \"#utility.yul\":2274:2276   */\n      0x20\n        /* \"#utility.yul\":2259:2277   */\n      add\n        /* \"msc_token/ERC20.sol\":3924:4011  function owner() public view virtual returns (address) {... */\n      tag_22\n        /* \"#utility.yul\":2140:2343   */\n      jump\n        /* \"msc_token/ERC20.sol\":6399:6503  function symbol() public view virtual override returns (string memory) {... */\n    tag_12:\n      tag_20\n      tag_59\n      jump\t// in\n        /* \"msc_token/ERC20.sol\":10617:11030  function decreaseAllowance(address spender, uint256 subtractedValue) public virtual returns (bool) {... */\n    tag_13:\n      tag_24\n      tag_62\n      calldatasize\n      0x04\n      tag_26\n      jump\t// in\n    tag_62:\n      tag_63\n      jump\t// in\n        /* \"msc_token/ERC20.sol\":7811:7986  function transfer(address recipient, uint256 amount) public virtual override returns (bool) {... */\n    tag_14:\n      tag_24\n      tag_66\n      calldatasize\n      0x04\n      tag_26\n      jump\t// in\n    tag_66:\n      tag_67\n      jump\t// in\n        /* \"msc_token/ERC20.sol\":8049:8200  function allowance(address owner, address spender) public view virtual override returns (uint256) {... */\n    tag_15:\n      tag_30\n      tag_70\n      calldatasize\n      0x04\n      tag_71\n      jump\t// in\n    tag_70:\n      sub(shl(0xa0, 0x01), 0x01)\n        /* \"msc_token/ERC20.sol\":8165:8183  _allowances[owner] */\n      swap2\n      dup3\n      and\n        /* \"msc_token/ERC20.sol\":8138:8145  uint256 */\n      0x00\n        /* \"msc_token/ERC20.sol\":8165:8183  _allowances[owner] */\n      swap1\n      dup2\n      mstore\n        /* \"msc_token/ERC20.sol\":8165:8176  _allowances */\n      0x02\n        /* \"msc_token/ERC20.sol\":8165:8183  _allowances[owner] */\n      0x20\n      swap1\n      dup2\n      mstore\n      0x40\n      dup1\n      dup4\n      keccak256\n        /* \"msc_token/ERC20.sol\":8165:8192  _allowances[owner][spender] */\n      swap4\n      swap1\n      swap5\n      and\n      dup3\n      mstore\n      swap2\n      swap1\n      swap2\n      mstore\n      keccak256\n      sload\n      swap1\n        /* \"msc_token/ERC20.sol\":8049:8200  function allowance(address owner, address spender) public view virtual override returns (uint256) {... */\n      jump\n        /* \"msc_token/ERC20.sol\":4833:5034  function transferOwnership(address newOwner) public virtual onlyOwner {... */\n    tag_16:\n      tag_52\n      tag_75\n      calldatasize\n      0x04\n      tag_49\n      jump\t// in\n    tag_75:\n      tag_76\n      jump\t// in\n        /* \"msc_token/ERC20.sol\":6180:6280  function name() public view virtual override returns (string memory) {... */\n    tag_21:\n        /* \"msc_token/ERC20.sol\":6234:6247  string memory */\n      0x60\n        /* \"msc_token/ERC20.sol\":6267:6272  _name */\n      0x04\n        /* \"msc_token/ERC20.sol\":6260:6272  return _name */\n      dup1\n      sload\n      tag_78\n      swap1\n      tag_79\n      jump\t// in\n    tag_78:\n      dup1\n      0x1f\n      add\n      0x20\n      dup1\n      swap2\n      div\n      mul\n      0x20\n      add\n      mload(0x40)\n      swap1\n      dup2\n      add\n      0x40\n      mstore\n      dup1\n      swap3\n      swap2\n      swap1\n      dup2\n      dup2\n      mstore\n      0x20\n      add\n      dup3\n      dup1\n      sload\n      tag_80\n      swap1\n      tag_79\n      jump\t// in\n    tag_80:\n      dup1\n      iszero\n      tag_81\n      jumpi\n      dup1\n      0x1f\n      lt\n      tag_82\n      jumpi\n      0x0100\n      dup1\n      dup4\n      sload\n      div\n      mul\n      dup4\n      mstore\n      swap2\n      0x20\n      add\n      swap2\n      jump(tag_81)\n    tag_82:\n      dup3\n      add\n      swap2\n      swap1\n      0x00\n      mstore\n      keccak256(0x00, 0x20)\n      swap1\n    tag_83:\n      dup2\n      sload\n      dup2\n      mstore\n      swap1\n      0x01\n      add\n      swap1\n      0x20\n      add\n      dup1\n      dup4\n      gt\n      tag_83\n      jumpi\n      dup3\n      swap1\n      sub\n      0x1f\n      and\n      dup3\n      add\n      swap2\n    tag_81:\n      pop\n      pop\n      pop\n      pop\n      pop\n      swap1\n      pop\n        /* \"msc_token/ERC20.sol\":6180:6280  function name() public view virtual override returns (string memory) {... */\n      swap1\n      jump\t// out\n        /* \"msc_token/ERC20.sol\":8347:8516  function approve(address spender, uint256 amount) public virtual override returns (bool) {... */\n    tag_27:\n        /* \"msc_token/ERC20.sol\":8430:8434  bool */\n      0x00\n        /* \"msc_token/ERC20.sol\":8447:8486  _approve(_msgSender(), spender, amount) */\n      tag_85\n        /* \"msc_token/ERC20.sol\":279:289  msg.sender */\n      caller\n        /* \"msc_token/ERC20.sol\":8470:8477  spender */\n      dup5\n        /* \"msc_token/ERC20.sol\":8479:8485  amount */\n      dup5\n        /* \"msc_token/ERC20.sol\":8447:8455  _approve */\n      tag_88\n        /* \"msc_token/ERC20.sol\":8447:8486  _approve(_msgSender(), spender, amount) */\n      jump\t// in\n    tag_85:\n      pop\n        /* \"msc_token/ERC20.sol\":8504:8508  true */\n      0x01\n        /* \"msc_token/ERC20.sol\":8347:8516  function approve(address spender, uint256 amount) public virtual override returns (bool) {... */\n      swap3\n      swap2\n      pop\n      pop\n      jump\t// out\n        /* \"msc_token/ERC20.sol\":8998:9490  function transferFrom(... */\n    tag_37:\n        /* \"msc_token/ERC20.sol\":9138:9142  bool */\n      0x00\n        /* \"msc_token/ERC20.sol\":9155:9191  _transfer(sender, recipient, amount) */\n      tag_91\n        /* \"msc_token/ERC20.sol\":9165:9171  sender */\n      dup5\n        /* \"msc_token/ERC20.sol\":9173:9182  recipient */\n      dup5\n        /* \"msc_token/ERC20.sol\":9184:9190  amount */\n      dup5\n        /* \"msc_token/ERC20.sol\":9155:9164  _transfer */\n      tag_92\n        /* \"msc_token/ERC20.sol\":9155:9191  _transfer(sender, recipient, amount) */\n      jump\t// in\n    tag_91:\n      sub(shl(0xa0, 0x01), 0x01)\n        /* \"msc_token/ERC20.sol\":9231:9250  _allowances[sender] */\n      dup5\n      and\n        /* \"msc_token/ERC20.sol\":9204:9228  uint256 currentAllowance */\n      0x00\n        /* \"msc_token/ERC20.sol\":9231:9250  _allowances[sender] */\n      swap1\n      dup2\n      mstore\n        /* \"msc_token/ERC20.sol\":9231:9242  _allowances */\n      0x02\n        /* \"msc_token/ERC20.sol\":9231:9250  _allowances[sender] */\n      0x20\n      swap1\n      dup2\n      mstore\n      0x40\n      dup1\n      dup4\n      keccak256\n        /* \"msc_token/ERC20.sol\":279:289  msg.sender */\n      caller\n        /* \"msc_token/ERC20.sol\":9231:9264  _allowances[sender][_msgSender()] */\n      dup5\n      mstore\n      swap1\n      swap2\n      mstore\n      swap1\n      keccak256\n      sload\n        /* \"msc_token/ERC20.sol\":9283:9309  currentAllowance >= amount */\n      dup3\n      dup2\n      lt\n      iszero\n        /* \"msc_token/ERC20.sol\":9275:9354  require(currentAllowance >= amount, \"ERC20: transfer amount exceeds allowance\") */\n      tag_94\n      jumpi\n      mload(0x40)\n      shl(0xe5, 0x461bcd)\n      dup2\n      mstore\n        /* \"#utility.yul\":3200:3202   */\n      0x20\n        /* \"msc_token/ERC20.sol\":9275:9354  require(currentAllowance >= amount, \"ERC20: transfer amount exceeds allowance\") */\n      0x04\n      dup3\n      add\n        /* \"#utility.yul\":3182:3203   */\n      mstore\n        /* \"#utility.yul\":3239:3241   */\n      0x28\n        /* \"#utility.yul\":3219:3237   */\n      0x24\n      dup3\n      add\n        /* \"#utility.yul\":3212:3242   */\n      mstore\n        /* \"#utility.yul\":3278:3312   */\n      0x45524332303a207472616e7366657220616d6f756e7420657863656564732061\n        /* \"#utility.yul\":3258:3276   */\n      0x44\n      dup3\n      add\n        /* \"#utility.yul\":3251:3313   */\n      mstore\n      shl(0xc0, 0x6c6c6f77616e6365)\n        /* \"#utility.yul\":3329:3347   */\n      0x64\n      dup3\n      add\n        /* \"#utility.yul\":3322:3360   */\n      mstore\n        /* \"#utility.yul\":3377:3396   */\n      0x84\n      add\n        /* \"msc_token/ERC20.sol\":9275:9354  require(currentAllowance >= amount, \"ERC20: transfer amount exceeds allowance\") */\n    tag_95:\n      mload(0x40)\n      dup1\n      swap2\n      sub\n      swap1\n      revert\n    tag_94:\n        /* \"msc_token/ERC20.sol\":9390:9447  _approve(sender, _msgSender(), currentAllowance - amount) */\n      tag_97\n        /* \"msc_token/ERC20.sol\":9399:9405  sender */\n      dup6\n        /* \"msc_token/ERC20.sol\":279:289  msg.sender */\n      caller\n        /* \"msc_token/ERC20.sol\":9440:9446  amount */\n      dup6\n        /* \"msc_token/ERC20.sol\":9421:9437  currentAllowance */\n      dup5\n        /* \"msc_token/ERC20.sol\":9421:9446  currentAllowance - amount */\n      sub\n        /* \"msc_token/ERC20.sol\":9390:9398  _approve */\n      tag_88\n        /* \"msc_token/ERC20.sol\":9390:9447  _approve(sender, _msgSender(), currentAllowance - amount) */\n      jump\t// in\n    tag_97:\n      pop\n        /* \"msc_token/ERC20.sol\":9478:9482  true */\n      0x01\n      swap5\n        /* \"msc_token/ERC20.sol\":8998:9490  function transferFrom(... */\n      swap4\n      pop\n      pop\n      pop\n      pop\n      jump\t// out\n        /* \"msc_token/ERC20.sol\":9899:10114  function increaseAllowance(address spender, uint256 addedValue) public virtual returns (bool) {... */\n    tag_45:\n        /* \"msc_token/ERC20.sol\":279:289  msg.sender */\n      caller\n        /* \"msc_token/ERC20.sol\":9987:9991  bool */\n      0x00\n        /* \"msc_token/ERC20.sol\":10036:10061  _allowances[_msgSender()] */\n      dup2\n      dup2\n      mstore\n        /* \"msc_token/ERC20.sol\":10036:10047  _allowances */\n      0x02\n        /* \"msc_token/ERC20.sol\":10036:10061  _allowances[_msgSender()] */\n      0x20\n      swap1\n      dup2\n      mstore\n      0x40\n      dup1\n      dup4\n      keccak256\n      sub(shl(0xa0, 0x01), 0x01)\n        /* \"msc_token/ERC20.sol\":10036:10070  _allowances[_msgSender()][spender] */\n      dup8\n      and\n      dup5\n      mstore\n      swap1\n      swap2\n      mstore\n      dup2\n      keccak256\n      sload\n        /* \"msc_token/ERC20.sol\":9987:9991  bool */\n      swap1\n      swap2\n        /* \"msc_token/ERC20.sol\":10004:10084  _approve(_msgSender(), spender, _allowances[_msgSender()][spender] + addedValue) */\n      tag_85\n      swap2\n        /* \"msc_token/ERC20.sol\":10027:10034  spender */\n      dup6\n      swap1\n        /* \"msc_token/ERC20.sol\":10036:10083  _allowances[_msgSender()][spender] + addedValue */\n      tag_104\n      swap1\n        /* \"msc_token/ERC20.sol\":10073:10083  addedValue */\n      dup7\n      swap1\n        /* \"msc_token/ERC20.sol\":10036:10083  _allowances[_msgSender()][spender] + addedValue */\n      tag_105\n      jump\t// in\n    tag_104:\n        /* \"msc_token/ERC20.sol\":10004:10012  _approve */\n      tag_88\n        /* \"msc_token/ERC20.sol\":10004:10084  _approve(_msgSender(), spender, _allowances[_msgSender()][spender] + addedValue) */\n      jump\t// in\n        /* \"msc_token/ERC20.sol\":4575:4678  function renounceOwnership() public virtual onlyOwner {... */\n    tag_53:\n        /* \"msc_token/ERC20.sol\":3970:3977  address */\n      0x00\n        /* \"msc_token/ERC20.sol\":3997:4003  _owner */\n      sload\n      sub(shl(0xa0, 0x01), 0x01)\n      and\n        /* \"msc_token/ERC20.sol\":279:289  msg.sender */\n      caller\n        /* \"msc_token/ERC20.sol\":4144:4167  owner() == _msgSender() */\n      eq\n        /* \"msc_token/ERC20.sol\":4136:4204  require(owner() == _msgSender(), \"Ownable: caller is not the owner\") */\n      tag_110\n      jumpi\n      mload(0x40)\n      shl(0xe5, 0x461bcd)\n      dup2\n      mstore\n        /* \"#utility.yul\":3839:3841   */\n      0x20\n        /* \"msc_token/ERC20.sol\":4136:4204  require(owner() == _msgSender(), \"Ownable: caller is not the owner\") */\n      0x04\n      dup3\n      add\n        /* \"#utility.yul\":3821:3842   */\n      dup2\n      swap1\n      mstore\n        /* \"#utility.yul\":3858:3876   */\n      0x24\n      dup3\n      add\n        /* \"#utility.yul\":3851:3881   */\n      mstore\n        /* \"#utility.yul\":3917:3951   */\n      0x4f776e61626c653a2063616c6c6572206973206e6f7420746865206f776e6572\n        /* \"#utility.yul\":3897:3915   */\n      0x44\n      dup3\n      add\n        /* \"#utility.yul\":3890:3952   */\n      mstore\n        /* \"#utility.yul\":3969:3987   */\n      0x64\n      add\n        /* \"msc_token/ERC20.sol\":4136:4204  require(owner() == _msgSender(), \"Ownable: caller is not the owner\") */\n      tag_95\n        /* \"#utility.yul\":3637:3993   */\n      jump\n        /* \"msc_token/ERC20.sol\":4136:4204  require(owner() == _msgSender(), \"Ownable: caller is not the owner\") */\n    tag_110:\n        /* \"msc_token/ERC20.sol\":4640:4670  _transferOwnership(address(0)) */\n      tag_114\n        /* \"msc_token/ERC20.sol\":4667:4668  0 */\n      0x00\n        /* \"msc_token/ERC20.sol\":4640:4658  _transferOwnership */\n      tag_115\n        /* \"msc_token/ERC20.sol\":4640:4670  _transferOwnership(address(0)) */\n      jump\t// in\n    tag_114:\n        /* \"msc_token/ERC20.sol\":4575:4678  function renounceOwnership() public virtual onlyOwner {... */\n      jump\t// out\n        /* \"msc_token/ERC20.sol\":6399:6503  function symbol() public view virtual override returns (string memory) {... */\n    tag_59:\n        /* \"msc_token/ERC20.sol\":6455:6468  string memory */\n      0x60\n        /* \"msc_token/ERC20.sol\":6488:6495  _symbol */\n      0x05\n        /* \"msc_token/ERC20.sol\":6481:6495  return _symbol */\n      dup1\n      sload\n      tag_78\n      swap1\n      tag_79\n      jump\t// in\n        /* \"msc_token/ERC20.sol\":10617:11030  function decreaseAllowance(address spender, uint256 subtractedValue) public virtual returns (bool) {... */\n    tag_63:\n        /* \"msc_token/ERC20.sol\":279:289  msg.sender */\n      caller\n        /* \"msc_token/ERC20.sol\":10710:10714  bool */\n      0x00\n        /* \"msc_token/ERC20.sol\":10754:10779  _allowances[_msgSender()] */\n      swap1\n      dup2\n      mstore\n        /* \"msc_token/ERC20.sol\":10754:10765  _allowances */\n      0x02\n        /* \"msc_token/ERC20.sol\":10754:10779  _allowances[_msgSender()] */\n      0x20\n      swap1\n      dup2\n      mstore\n      0x40\n      dup1\n      dup4\n      keccak256\n      sub(shl(0xa0, 0x01), 0x01)\n        /* \"msc_token/ERC20.sol\":10754:10788  _allowances[_msgSender()][spender] */\n      dup7\n      and\n      dup5\n      mstore\n      swap1\n      swap2\n      mstore\n      dup2\n      keccak256\n      sload\n        /* \"msc_token/ERC20.sol\":10807:10842  currentAllowance >= subtractedValue */\n      dup3\n      dup2\n      lt\n      iszero\n        /* \"msc_token/ERC20.sol\":10799:10884  require(currentAllowance >= subtractedValue, \"ERC20: decreased allowance below zero\") */\n      tag_125\n      jumpi\n      mload(0x40)\n      shl(0xe5, 0x461bcd)\n      dup2\n      mstore\n        /* \"#utility.yul\":4200:4202   */\n      0x20\n        /* \"msc_token/ERC20.sol\":10799:10884  require(currentAllowance >= subtractedValue, \"ERC20: decreased allowance below zero\") */\n      0x04\n      dup3\n      add\n        /* \"#utility.yul\":4182:4203   */\n      mstore\n        /* \"#utility.yul\":4239:4241   */\n      0x25\n        /* \"#utility.yul\":4219:4237   */\n      0x24\n      dup3\n      add\n        /* \"#utility.yul\":4212:4242   */\n      mstore\n        /* \"#utility.yul\":4278:4312   */\n      0x45524332303a2064656372656173656420616c6c6f77616e63652062656c6f77\n        /* \"#utility.yul\":4258:4276   */\n      0x44\n      dup3\n      add\n        /* \"#utility.yul\":4251:4313   */\n      mstore\n      shl(0xd8, 0x207a65726f)\n        /* \"#utility.yul\":4329:4347   */\n      0x64\n      dup3\n      add\n        /* \"#utility.yul\":4322:4357   */\n      mstore\n        /* \"#utility.yul\":4374:4393   */\n      0x84\n      add\n        /* \"msc_token/ERC20.sol\":10799:10884  require(currentAllowance >= subtractedValue, \"ERC20: decreased allowance below zero\") */\n      tag_95\n        /* \"#utility.yul\":3998:4399   */\n      jump\n        /* \"msc_token/ERC20.sol\":10799:10884  require(currentAllowance >= subtractedValue, \"ERC20: decreased allowance below zero\") */\n    tag_125:\n        /* \"msc_token/ERC20.sol\":10920:10987  _approve(_msgSender(), spender, currentAllowance - subtractedValue) */\n      tag_128\n        /* \"msc_token/ERC20.sol\":279:289  msg.sender */\n      caller\n        /* \"msc_token/ERC20.sol\":10943:10950  spender */\n      dup6\n        /* \"msc_token/ERC20.sol\":10971:10986  subtractedValue */\n      dup6\n        /* \"msc_token/ERC20.sol\":10952:10968  currentAllowance */\n      dup5\n        /* \"msc_token/ERC20.sol\":10952:10986  currentAllowance - subtractedValue */\n      sub\n        /* \"msc_token/ERC20.sol\":10920:10928  _approve */\n      tag_88\n        /* \"msc_token/ERC20.sol\":10920:10987  _approve(_msgSender(), spender, currentAllowance - subtractedValue) */\n      jump\t// in\n    tag_128:\n      pop\n        /* \"msc_token/ERC20.sol\":11018:11022  true */\n      0x01\n      swap4\n        /* \"msc_token/ERC20.sol\":10617:11030  function decreaseAllowance(address spender, uint256 subtractedValue) public virtual returns (bool) {... */\n      swap3\n      pop\n      pop\n      pop\n      jump\t// out\n        /* \"msc_token/ERC20.sol\":7811:7986  function transfer(address recipient, uint256 amount) public virtual override returns (bool) {... */\n    tag_67:\n        /* \"msc_token/ERC20.sol\":7897:7901  bool */\n      0x00\n        /* \"msc_token/ERC20.sol\":7914:7956  _transfer(_msgSender(), recipient, amount) */\n      tag_85\n        /* \"msc_token/ERC20.sol\":279:289  msg.sender */\n      caller\n        /* \"msc_token/ERC20.sol\":7938:7947  recipient */\n      dup5\n        /* \"msc_token/ERC20.sol\":7949:7955  amount */\n      dup5\n        /* \"msc_token/ERC20.sol\":7914:7923  _transfer */\n      tag_92\n        /* \"msc_token/ERC20.sol\":7914:7956  _transfer(_msgSender(), recipient, amount) */\n      jump\t// in\n        /* \"msc_token/ERC20.sol\":4833:5034  function transferOwnership(address newOwner) public virtual onlyOwner {... */\n    tag_76:\n        /* \"msc_token/ERC20.sol\":3970:3977  address */\n      0x00\n        /* \"msc_token/ERC20.sol\":3997:4003  _owner */\n      sload\n      sub(shl(0xa0, 0x01), 0x01)\n      and\n        /* \"msc_token/ERC20.sol\":279:289  msg.sender */\n      caller\n        /* \"msc_token/ERC20.sol\":4144:4167  owner() == _msgSender() */\n      eq\n        /* \"msc_token/ERC20.sol\":4136:4204  require(owner() == _msgSender(), \"Ownable: caller is not the owner\") */\n      tag_137\n      jumpi\n      mload(0x40)\n      shl(0xe5, 0x461bcd)\n      dup2\n      mstore\n        /* \"#utility.yul\":3839:3841   */\n      0x20\n        /* \"msc_token/ERC20.sol\":4136:4204  require(owner() == _msgSender(), \"Ownable: caller is not the owner\") */\n      0x04\n      dup3\n      add\n        /* \"#utility.yul\":3821:3842   */\n      dup2\n      swap1\n      mstore\n        /* \"#utility.yul\":3858:3876   */\n      0x24\n      dup3\n      add\n        /* \"#utility.yul\":3851:3881   */\n      mstore\n        /* \"#utility.yul\":3917:3951   */\n      0x4f776e61626c653a2063616c6c6572206973206e6f7420746865206f776e6572\n        /* \"#utility.yul\":3897:3915   */\n      0x44\n      dup3\n      add\n        /* \"#utility.yul\":3890:3952   */\n      mstore\n        /* \"#utility.yul\":3969:3987   */\n      0x64\n      add\n        /* \"msc_token/ERC20.sol\":4136:4204  require(owner() == _msgSender(), \"Ownable: caller is not the owner\") */\n      tag_95\n        /* \"#utility.yul\":3637:3993   */\n      jump\n        /* \"msc_token/ERC20.sol\":4136:4204  require(owner() == _msgSender(), \"Ownable: caller is not the owner\") */\n    tag_137:\n      sub(shl(0xa0, 0x01), 0x01)\n        /* \"msc_token/ERC20.sol\":4922:4944  newOwner != address(0) */\n      dup2\n      and\n        /* \"msc_token/ERC20.sol\":4914:4987  require(newOwner != address(0), \"Ownable: new owner is the zero address\") */\n      tag_140\n      jumpi\n      mload(0x40)\n      shl(0xe5, 0x461bcd)\n      dup2\n      mstore\n        /* \"#utility.yul\":4606:4608   */\n      0x20\n        /* \"msc_token/ERC20.sol\":4914:4987  require(newOwner != address(0), \"Ownable: new owner is the zero address\") */\n      0x04\n      dup3\n      add\n        /* \"#utility.yul\":4588:4609   */\n      mstore\n        /* \"#utility.yul\":4645:4647   */\n      0x26\n        /* \"#utility.yul\":4625:4643   */\n      0x24\n      dup3\n      add\n        /* \"#utility.yul\":4618:4648   */\n      mstore\n        /* \"#utility.yul\":4684:4718   */\n      0x4f776e61626c653a206e6577206f776e657220697320746865207a65726f2061\n        /* \"#utility.yul\":4664:4682   */\n      0x44\n      dup3\n      add\n        /* \"#utility.yul\":4657:4719   */\n      mstore\n      shl(0xd0, 0x646472657373)\n        /* \"#utility.yul\":4735:4753   */\n      0x64\n      dup3\n      add\n        /* \"#utility.yul\":4728:4764   */\n      mstore\n        /* \"#utility.yul\":4781:4800   */\n      0x84\n      add\n        /* \"msc_token/ERC20.sol\":4914:4987  require(newOwner != address(0), \"Ownable: new owner is the zero address\") */\n      tag_95\n        /* \"#utility.yul\":4404:4806   */\n      jump\n        /* \"msc_token/ERC20.sol\":4914:4987  require(newOwner != address(0), \"Ownable: new owner is the zero address\") */\n    tag_140:\n        /* \"msc_token/ERC20.sol\":4998:5026  _transferOwnership(newOwner) */\n      tag_143\n        /* \"msc_token/ERC20.sol\":5017:5025  newOwner */\n      dup2\n        /* \"msc_token/ERC20.sol\":4998:5016  _transferOwnership */\n      tag_115\n        /* \"msc_token/ERC20.sol\":4998:5026  _transferOwnership(newOwner) */\n      jump\t// in\n    tag_143:\n        /* \"msc_token/ERC20.sol\":4833:5034  function transferOwnership(address newOwner) public virtual onlyOwner {... */\n      pop\n      jump\t// out\n        /* \"msc_token/ERC20.sol\":14301:14681  function _approve(... */\n    tag_88:\n      sub(shl(0xa0, 0x01), 0x01)\n        /* \"msc_token/ERC20.sol\":14437:14456  owner != address(0) */\n      dup4\n      and\n        /* \"msc_token/ERC20.sol\":14429:14497  require(owner != address(0), \"ERC20: approve from the zero address\") */\n      tag_146\n      jumpi\n      mload(0x40)\n      shl(0xe5, 0x461bcd)\n      dup2\n      mstore\n        /* \"#utility.yul\":5013:5015   */\n      0x20\n        /* \"msc_token/ERC20.sol\":14429:14497  require(owner != address(0), \"ERC20: approve from the zero address\") */\n      0x04\n      dup3\n      add\n        /* \"#utility.yul\":4995:5016   */\n      mstore\n        /* \"#utility.yul\":5052:5054   */\n      0x24\n        /* \"#utility.yul\":5032:5050   */\n      dup1\n      dup3\n      add\n        /* \"#utility.yul\":5025:5055   */\n      mstore\n        /* \"#utility.yul\":5091:5125   */\n      0x45524332303a20617070726f76652066726f6d20746865207a65726f20616464\n        /* \"#utility.yul\":5071:5089   */\n      0x44\n      dup3\n      add\n        /* \"#utility.yul\":5064:5126   */\n      mstore\n      shl(0xe0, 0x72657373)\n        /* \"#utility.yul\":5142:5160   */\n      0x64\n      dup3\n      add\n        /* \"#utility.yul\":5135:5169   */\n      mstore\n        /* \"#utility.yul\":5186:5205   */\n      0x84\n      add\n        /* \"msc_token/ERC20.sol\":14429:14497  require(owner != address(0), \"ERC20: approve from the zero address\") */\n      tag_95\n        /* \"#utility.yul\":4811:5211   */\n      jump\n        /* \"msc_token/ERC20.sol\":14429:14497  require(owner != address(0), \"ERC20: approve from the zero address\") */\n    tag_146:\n      sub(shl(0xa0, 0x01), 0x01)\n        /* \"msc_token/ERC20.sol\":14516:14537  spender != address(0) */\n      dup3\n      and\n        /* \"msc_token/ERC20.sol\":14508:14576  require(spender != address(0), \"ERC20: approve to the zero address\") */\n      tag_149\n      jumpi\n      mload(0x40)\n      shl(0xe5, 0x461bcd)\n      dup2\n      mstore\n        /* \"#utility.yul\":5418:5420   */\n      0x20\n        /* \"msc_token/ERC20.sol\":14508:14576  require(spender != address(0), \"ERC20: approve to the zero address\") */\n      0x04\n      dup3\n      add\n        /* \"#utility.yul\":5400:5421   */\n      mstore\n        /* \"#utility.yul\":5457:5459   */\n      0x22\n        /* \"#utility.yul\":5437:5455   */\n      0x24\n      dup3\n      add\n        /* \"#utility.yul\":5430:5460   */\n      mstore\n        /* \"#utility.yul\":5496:5530   */\n      0x45524332303a20617070726f766520746f20746865207a65726f206164647265\n        /* \"#utility.yul\":5476:5494   */\n      0x44\n      dup3\n      add\n        /* \"#utility.yul\":5469:5531   */\n      mstore\n      shl(0xf0, 0x7373)\n        /* \"#utility.yul\":5547:5565   */\n      0x64\n      dup3\n      add\n        /* \"#utility.yul\":5540:5572   */\n      mstore\n        /* \"#utility.yul\":5589:5608   */\n      0x84\n      add\n        /* \"msc_token/ERC20.sol\":14508:14576  require(spender != address(0), \"ERC20: approve to the zero address\") */\n      tag_95\n        /* \"#utility.yul\":5216:5614   */\n      jump\n        /* \"msc_token/ERC20.sol\":14508:14576  require(spender != address(0), \"ERC20: approve to the zero address\") */\n    tag_149:\n      sub(shl(0xa0, 0x01), 0x01)\n        /* \"msc_token/ERC20.sol\":14589:14607  _allowances[owner] */\n      dup4\n      dup2\n      and\n      0x00\n      dup2\n      dup2\n      mstore\n        /* \"msc_token/ERC20.sol\":14589:14600  _allowances */\n      0x02\n        /* \"msc_token/ERC20.sol\":14589:14607  _allowances[owner] */\n      0x20\n      swap1\n      dup2\n      mstore\n      0x40\n      dup1\n      dup4\n      keccak256\n        /* \"msc_token/ERC20.sol\":14589:14616  _allowances[owner][spender] */\n      swap5\n      dup8\n      and\n      dup1\n      dup5\n      mstore\n      swap5\n      dup3\n      mstore\n      swap2\n      dup3\n      swap1\n      keccak256\n        /* \"msc_token/ERC20.sol\":14589:14625  _allowances[owner][spender] = amount */\n      dup6\n      swap1\n      sstore\n        /* \"msc_token/ERC20.sol\":14641:14673  Approval(owner, spender, amount) */\n      swap1\n      mload\n        /* \"#utility.yul\":1391:1416   */\n      dup5\n      dup2\n      mstore\n        /* \"msc_token/ERC20.sol\":14641:14673  Approval(owner, spender, amount) */\n      0x8c5be1e5ebec7d5bd14f71427d1e84f3dd0314c0f7b2291e5b200ac8c7c3b925\n      swap2\n        /* \"#utility.yul\":1364:1382   */\n      add\n        /* \"msc_token/ERC20.sol\":14641:14673  Approval(owner, spender, amount) */\n      mload(0x40)\n      dup1\n      swap2\n      sub\n      swap1\n      log3\n        /* \"msc_token/ERC20.sol\":14301:14681  function _approve(... */\n      pop\n      pop\n      pop\n      jump\t// out\n        /* \"msc_token/ERC20.sol\":11520:12253  function _transfer(... */\n    tag_92:\n      sub(shl(0xa0, 0x01), 0x01)\n        /* \"msc_token/ERC20.sol\":11660:11680  sender != address(0) */\n      dup4\n      and\n        /* \"msc_token/ERC20.sol\":11652:11722  require(sender != address(0), \"ERC20: transfer from the zero address\") */\n      tag_154\n      jumpi\n      mload(0x40)\n      shl(0xe5, 0x461bcd)\n      dup2\n      mstore\n        /* \"#utility.yul\":5821:5823   */\n      0x20\n        /* \"msc_token/ERC20.sol\":11652:11722  require(sender != address(0), \"ERC20: transfer from the zero address\") */\n      0x04\n      dup3\n      add\n        /* \"#utility.yul\":5803:5824   */\n      mstore\n        /* \"#utility.yul\":5860:5862   */\n      0x25\n        /* \"#utility.yul\":5840:5858   */\n      0x24\n      dup3\n      add\n        /* \"#utility.yul\":5833:5863   */\n      mstore\n        /* \"#utility.yul\":5899:5933   */\n      0x45524332303a207472616e736665722066726f6d20746865207a65726f206164\n        /* \"#utility.yul\":5879:5897   */\n      0x44\n      dup3\n      add\n        /* \"#utility.yul\":5872:5934   */\n      mstore\n      shl(0xd8, 0x6472657373)\n        /* \"#utility.yul\":5950:5968   */\n      0x64\n      dup3\n      add\n        /* \"#utility.yul\":5943:5978   */\n      mstore\n        /* \"#utility.yul\":5995:6014   */\n      0x84\n      add\n        /* \"msc_token/ERC20.sol\":11652:11722  require(sender != address(0), \"ERC20: transfer from the zero address\") */\n      tag_95\n        /* \"#utility.yul\":5619:6020   */\n      jump\n        /* \"msc_token/ERC20.sol\":11652:11722  require(sender != address(0), \"ERC20: transfer from the zero address\") */\n    tag_154:\n      sub(shl(0xa0, 0x01), 0x01)\n        /* \"msc_token/ERC20.sol\":11741:11764  recipient != address(0) */\n      dup3\n      and\n        /* \"msc_token/ERC20.sol\":11733:11804  require(recipient != address(0), \"ERC20: transfer to the zero address\") */\n      tag_157\n      jumpi\n      mload(0x40)\n      shl(0xe5, 0x461bcd)\n      dup2\n      mstore\n        /* \"#utility.yul\":6227:6229   */\n      0x20\n        /* \"msc_token/ERC20.sol\":11733:11804  require(recipient != address(0), \"ERC20: transfer to the zero address\") */\n      0x04\n      dup3\n      add\n        /* \"#utility.yul\":6209:6230   */\n      mstore\n        /* \"#utility.yul\":6266:6268   */\n      0x23\n        /* \"#utility.yul\":6246:6264   */\n      0x24\n      dup3\n      add\n        /* \"#utility.yul\":6239:6269   */\n      mstore\n        /* \"#utility.yul\":6305:6339   */\n      0x45524332303a207472616e7366657220746f20746865207a65726f2061646472\n        /* \"#utility.yul\":6285:6303   */\n      0x44\n      dup3\n      add\n        /* \"#utility.yul\":6278:6340   */\n      mstore\n      shl(0xe8, 0x657373)\n        /* \"#utility.yul\":6356:6374   */\n      0x64\n      dup3\n      add\n        /* \"#utility.yul\":6349:6382   */\n      mstore\n        /* \"#utility.yul\":6399:6418   */\n      0x84\n      add\n        /* \"msc_token/ERC20.sol\":11733:11804  require(recipient != address(0), \"ERC20: transfer to the zero address\") */\n      tag_95\n        /* \"#utility.yul\":6025:6424   */\n      jump\n        /* \"msc_token/ERC20.sol\":11733:11804  require(recipient != address(0), \"ERC20: transfer to the zero address\") */\n    tag_157:\n      sub(shl(0xa0, 0x01), 0x01)\n        /* \"msc_token/ERC20.sol\":11901:11918  _balances[sender] */\n      dup4\n      and\n        /* \"msc_token/ERC20.sol\":11877:11898  uint256 senderBalance */\n      0x00\n        /* \"msc_token/ERC20.sol\":11901:11918  _balances[sender] */\n      swap1\n      dup2\n      mstore\n        /* \"msc_token/ERC20.sol\":11901:11910  _balances */\n      0x01\n        /* \"msc_token/ERC20.sol\":11901:11918  _balances[sender] */\n      0x20\n      mstore\n      0x40\n      swap1\n      keccak256\n      sload\n        /* \"msc_token/ERC20.sol\":11937:11960  senderBalance >= amount */\n      dup2\n      dup2\n      lt\n      iszero\n        /* \"msc_token/ERC20.sol\":11929:12003  require(senderBalance >= amount, \"ERC20: transfer amount exceeds balance\") */\n      tag_162\n      jumpi\n      mload(0x40)\n      shl(0xe5, 0x461bcd)\n      dup2\n      mstore\n        /* \"#utility.yul\":6631:6633   */\n      0x20\n        /* \"msc_token/ERC20.sol\":11929:12003  require(senderBalance >= amount, \"ERC20: transfer amount exceeds balance\") */\n      0x04\n      dup3\n      add\n        /* \"#utility.yul\":6613:6634   */\n      mstore\n        /* \"#utility.yul\":6670:6672   */\n      0x26\n        /* \"#utility.yul\":6650:6668   */\n      0x24\n      dup3\n      add\n        /* \"#utility.yul\":6643:6673   */\n      mstore\n        /* \"#utility.yul\":6709:6743   */\n      0x45524332303a207472616e7366657220616d6f756e7420657863656564732062\n        /* \"#utility.yul\":6689:6707   */\n      0x44\n      dup3\n      add\n        /* \"#utility.yul\":6682:6744   */\n      mstore\n      shl(0xd0, 0x616c616e6365)\n        /* \"#utility.yul\":6760:6778   */\n      0x64\n      dup3\n      add\n        /* \"#utility.yul\":6753:6789   */\n      mstore\n        /* \"#utility.yul\":6806:6825   */\n      0x84\n      add\n        /* \"msc_token/ERC20.sol\":11929:12003  require(senderBalance >= amount, \"ERC20: transfer amount exceeds balance\") */\n      tag_95\n        /* \"#utility.yul\":6429:6831   */\n      jump\n        /* \"msc_token/ERC20.sol\":11929:12003  require(senderBalance >= amount, \"ERC20: transfer amount exceeds balance\") */\n    tag_162:\n      sub(shl(0xa0, 0x01), 0x01)\n        /* \"msc_token/ERC20.sol\":12039:12056  _balances[sender] */\n      dup1\n      dup6\n      and\n      0x00\n      swap1\n      dup2\n      mstore\n        /* \"msc_token/ERC20.sol\":12039:12048  _balances */\n      0x01\n        /* \"msc_token/ERC20.sol\":12039:12056  _balances[sender] */\n      0x20\n      mstore\n      0x40\n      dup1\n      dup3\n      keccak256\n        /* \"msc_token/ERC20.sol\":12059:12081  senderBalance - amount */\n      dup6\n      dup6\n      sub\n        /* \"msc_token/ERC20.sol\":12039:12081  _balances[sender] = senderBalance - amount */\n      swap1\n      sstore\n        /* \"msc_token/ERC20.sol\":12103:12123  _balances[recipient] */\n      swap2\n      dup6\n      and\n      dup2\n      mstore\n      swap1\n      dup2\n      keccak256\n        /* \"msc_token/ERC20.sol\":12103:12133  _balances[recipient] += amount */\n      dup1\n      sload\n        /* \"msc_token/ERC20.sol\":12075:12081  amount */\n      dup5\n      swap3\n        /* \"msc_token/ERC20.sol\":12039:12056  _balances[sender] */\n      swap1\n        /* \"msc_token/ERC20.sol\":12103:12133  _balances[recipient] += amount */\n      tag_165\n      swap1\n        /* \"msc_token/ERC20.sol\":12075:12081  amount */\n      dup5\n      swap1\n        /* \"msc_token/ERC20.sol\":12103:12133  _balances[recipient] += amount */\n      tag_105\n      jump\t// in\n    tag_165:\n      swap3\n      pop\n      pop\n      dup2\n      swap1\n      sstore\n      pop\n        /* \"msc_token/ERC20.sol\":12168:12177  recipient */\n      dup3\n      sub(shl(0xa0, 0x01), 0x01)\n        /* \"msc_token/ERC20.sol\":12151:12186  Transfer(sender, recipient, amount) */\n      and\n        /* \"msc_token/ERC20.sol\":12160:12166  sender */\n      dup5\n      sub(shl(0xa0, 0x01), 0x01)\n        /* \"msc_token/ERC20.sol\":12151:12186  Transfer(sender, recipient, amount) */\n      and\n      0xddf252ad1be2c89b69c2b068fc378daa952ba7f163c4a11628f55a4df523b3ef\n        /* \"msc_token/ERC20.sol\":12179:12185  amount */\n      dup5\n        /* \"msc_token/ERC20.sol\":12151:12186  Transfer(sender, recipient, amount) */\n      mload(0x40)\n      tag_166\n      swap2\n        /* \"#utility.yul\":1391:1416   */\n      dup2\n      mstore\n        /* \"#utility.yul\":1379:1381   */\n      0x20\n        /* \"#utility.yul\":1364:1382   */\n      add\n      swap1\n        /* \"#utility.yul\":1245:1422   */\n      jump\n        /* \"msc_token/ERC20.sol\":12151:12186  Transfer(sender, recipient, amount) */\n    tag_166:\n      mload(0x40)\n      dup1\n      swap2\n      sub\n      swap1\n      log3\n        /* \"msc_token/ERC20.sol\":11641:12253  {... */\n      pop\n        /* \"msc_token/ERC20.sol\":11520:12253  function _transfer(... */\n      pop\n      pop\n      pop\n      jump\t// out\n        /* \"msc_token/ERC20.sol\":5194:5385  function _transferOwnership(address newOwner) internal virtual {... */\n    tag_115:\n        /* \"msc_token/ERC20.sol\":5268:5284  address oldOwner */\n      0x00\n        /* \"msc_token/ERC20.sol\":5287:5293  _owner */\n      dup1\n      sload\n      sub(shl(0xa0, 0x01), 0x01)\n        /* \"msc_token/ERC20.sol\":5304:5321  _owner = newOwner */\n      dup4\n      dup2\n      and\n      not(sub(shl(0xa0, 0x01), 0x01))\n      dup4\n      and\n      dup2\n      or\n      dup5\n      sstore\n        /* \"msc_token/ERC20.sol\":5337:5377  OwnershipTransferred(oldOwner, newOwner) */\n      mload(0x40)\n        /* \"msc_token/ERC20.sol\":5287:5293  _owner */\n      swap2\n      swap1\n      swap3\n      and\n      swap3\n      dup4\n      swap2\n        /* \"msc_token/ERC20.sol\":5337:5377  OwnershipTransferred(oldOwner, newOwner) */\n      0x8be0079c531659141344cd1fd0a4f28419497f9722a3daafe3b4186f6b6457e0\n      swap2\n        /* \"msc_token/ERC20.sol\":5268:5284  address oldOwner */\n      swap1\n        /* \"msc_token/ERC20.sol\":5337:5377  OwnershipTransferred(oldOwner, newOwner) */\n      log3\n        /* \"msc_token/ERC20.sol\":5257:5385  {... */\n      pop\n        /* \"msc_token/ERC20.sol\":5194:5385  function _transferOwnership(address newOwner) internal virtual {... */\n      pop\n      jump\t// out\n        /* \"#utility.yul\":14:611   */\n    tag_23:\n        /* \"#utility.yul\":126:130   */\n      0x00\n        /* \"#utility.yul\":155:157   */\n      0x20\n        /* \"#utility.yul\":184:186   */\n      dup1\n        /* \"#utility.yul\":173:182   */\n      dup4\n        /* \"#utility.yul\":166:187   */\n      mstore\n        /* \"#utility.yul\":216:222   */\n      dup4\n        /* \"#utility.yul\":210:223   */\n      mload\n        /* \"#utility.yul\":259:265   */\n      dup1\n        /* \"#utility.yul\":254:256   */\n      dup3\n        /* \"#utility.yul\":243:252   */\n      dup6\n        /* \"#utility.yul\":239:257   */\n      add\n        /* \"#utility.yul\":232:266   */\n      mstore\n        /* \"#utility.yul\":284:285   */\n      0x00\n        /* \"#utility.yul\":294:434   */\n    tag_175:\n        /* \"#utility.yul\":308:314   */\n      dup2\n        /* \"#utility.yul\":305:306   */\n      dup2\n        /* \"#utility.yul\":302:315   */\n      lt\n        /* \"#utility.yul\":294:434   */\n      iszero\n      tag_177\n      jumpi\n        /* \"#utility.yul\":403:417   */\n      dup6\n      dup2\n      add\n        /* \"#utility.yul\":399:422   */\n      dup4\n      add\n        /* \"#utility.yul\":393:423   */\n      mload\n        /* \"#utility.yul\":369:386   */\n      dup6\n      dup3\n      add\n        /* \"#utility.yul\":388:390   */\n      0x40\n        /* \"#utility.yul\":365:391   */\n      add\n        /* \"#utility.yul\":358:424   */\n      mstore\n        /* \"#utility.yul\":323:333   */\n      dup3\n      add\n        /* \"#utility.yul\":294:434   */\n      jump(tag_175)\n    tag_177:\n        /* \"#utility.yul\":452:458   */\n      dup2\n        /* \"#utility.yul\":449:450   */\n      dup2\n        /* \"#utility.yul\":446:459   */\n      gt\n        /* \"#utility.yul\":443:534   */\n      iszero\n      tag_178\n      jumpi\n        /* \"#utility.yul\":522:523   */\n      0x00\n        /* \"#utility.yul\":517:519   */\n      0x40\n        /* \"#utility.yul\":508:514   */\n      dup4\n        /* \"#utility.yul\":497:506   */\n      dup8\n        /* \"#utility.yul\":493:515   */\n      add\n        /* \"#utility.yul\":489:520   */\n      add\n        /* \"#utility.yul\":482:524   */\n      mstore\n        /* \"#utility.yul\":443:534   */\n    tag_178:\n      pop\n        /* \"#utility.yul\":595:597   */\n      0x1f\n        /* \"#utility.yul\":574:589   */\n      add\n      not(0x1f)\n        /* \"#utility.yul\":570:599   */\n      and\n        /* \"#utility.yul\":555:600   */\n      swap3\n      swap1\n      swap3\n      add\n        /* \"#utility.yul\":602:604   */\n      0x40\n        /* \"#utility.yul\":551:605   */\n      add\n      swap4\n        /* \"#utility.yul\":14:611   */\n      swap3\n      pop\n      pop\n      pop\n      jump\t// out\n        /* \"#utility.yul\":616:789   */\n    tag_172:\n        /* \"#utility.yul\":684:704   */\n      dup1\n      calldataload\n      sub(shl(0xa0, 0x01), 0x01)\n        /* \"#utility.yul\":733:764   */\n      dup2\n      and\n        /* \"#utility.yul\":723:765   */\n      dup2\n      eq\n        /* \"#utility.yul\":713:783   */\n      tag_180\n      jumpi\n        /* \"#utility.yul\":779:780   */\n      0x00\n        /* \"#utility.yul\":776:777   */\n      dup1\n        /* \"#utility.yul\":769:781   */\n      revert\n        /* \"#utility.yul\":713:783   */\n    tag_180:\n        /* \"#utility.yul\":616:789   */\n      swap2\n      swap1\n      pop\n      jump\t// out\n        /* \"#utility.yul\":794:1048   */\n    tag_26:\n        /* \"#utility.yul\":862:868   */\n      0x00\n        /* \"#utility.yul\":870:876   */\n      dup1\n        /* \"#utility.yul\":923:925   */\n      0x40\n        /* \"#utility.yul\":911:920   */\n      dup4\n        /* \"#utility.yul\":902:909   */\n      dup6\n        /* \"#utility.yul\":898:921   */\n      sub\n        /* \"#utility.yul\":894:926   */\n      slt\n        /* \"#utility.yul\":891:943   */\n      iszero\n      tag_182\n      jumpi\n        /* \"#utility.yul\":939:940   */\n      0x00\n        /* \"#utility.yul\":936:937   */\n      dup1\n        /* \"#utility.yul\":929:941   */\n      revert\n        /* \"#utility.yul\":891:943   */\n    tag_182:\n        /* \"#utility.yul\":962:991   */\n      tag_183\n        /* \"#utility.yul\":981:990   */\n      dup4\n        /* \"#utility.yul\":962:991   */\n      tag_172\n      jump\t// in\n    tag_183:\n        /* \"#utility.yul\":952:991   */\n      swap5\n        /* \"#utility.yul\":1038:1040   */\n      0x20\n        /* \"#utility.yul\":1023:1041   */\n      swap4\n      swap1\n      swap4\n      add\n        /* \"#utility.yul\":1010:1042   */\n      calldataload\n      swap4\n      pop\n      pop\n      pop\n        /* \"#utility.yul\":794:1048   */\n      jump\t// out\n        /* \"#utility.yul\":1427:1755   */\n    tag_36:\n        /* \"#utility.yul\":1504:1510   */\n      0x00\n        /* \"#utility.yul\":1512:1518   */\n      dup1\n        /* \"#utility.yul\":1520:1526   */\n      0x00\n        /* \"#utility.yul\":1573:1575   */\n      0x60\n        /* \"#utility.yul\":1561:1570   */\n      dup5\n        /* \"#utility.yul\":1552:1559   */\n      dup7\n        /* \"#utility.yul\":1548:1571   */\n      sub\n        /* \"#utility.yul\":1544:1576   */\n      slt\n        /* \"#utility.yul\":1541:1593   */\n      iszero\n      tag_187\n      jumpi\n        /* \"#utility.yul\":1589:1590   */\n      0x00\n        /* \"#utility.yul\":1586:1587   */\n      dup1\n        /* \"#utility.yul\":1579:1591   */\n      revert\n        /* \"#utility.yul\":1541:1593   */\n    tag_187:\n        /* \"#utility.yul\":1612:1641   */\n      tag_188\n        /* \"#utility.yul\":1631:1640   */\n      dup5\n        /* \"#utility.yul\":1612:1641   */\n      tag_172\n      jump\t// in\n    tag_188:\n        /* \"#utility.yul\":1602:1641   */\n      swap3\n      pop\n        /* \"#utility.yul\":1660:1698   */\n      tag_189\n        /* \"#utility.yul\":1694:1696   */\n      0x20\n        /* \"#utility.yul\":1683:1692   */\n      dup6\n        /* \"#utility.yul\":1679:1697   */\n      add\n        /* \"#utility.yul\":1660:1698   */\n      tag_172\n      jump\t// in\n    tag_189:\n        /* \"#utility.yul\":1650:1698   */\n      swap2\n      pop\n        /* \"#utility.yul\":1745:1747   */\n      0x40\n        /* \"#utility.yul\":1734:1743   */\n      dup5\n        /* \"#utility.yul\":1730:1748   */\n      add\n        /* \"#utility.yul\":1717:1749   */\n      calldataload\n        /* \"#utility.yul\":1707:1749   */\n      swap1\n      pop\n        /* \"#utility.yul\":1427:1755   */\n      swap3\n      pop\n      swap3\n      pop\n      swap3\n      jump\t// out\n        /* \"#utility.yul\":1949:2135   */\n    tag_49:\n        /* \"#utility.yul\":2008:2014   */\n      0x00\n        /* \"#utility.yul\":2061:2063   */\n      0x20\n        /* \"#utility.yul\":2049:2058   */\n      dup3\n        /* \"#utility.yul\":2040:2047   */\n      dup5\n        /* \"#utility.yul\":2036:2059   */\n      sub\n        /* \"#utility.yul\":2032:2064   */\n      slt\n        /* \"#utility.yul\":2029:2081   */\n      iszero\n      tag_192\n      jumpi\n        /* \"#utility.yul\":2077:2078   */\n      0x00\n        /* \"#utility.yul\":2074:2075   */\n      dup1\n        /* \"#utility.yul\":2067:2079   */\n      revert\n        /* \"#utility.yul\":2029:2081   */\n    tag_192:\n        /* \"#utility.yul\":2100:2129   */\n      tag_193\n        /* \"#utility.yul\":2119:2128   */\n      dup3\n        /* \"#utility.yul\":2100:2129   */\n      tag_172\n      jump\t// in\n    tag_193:\n        /* \"#utility.yul\":2090:2129   */\n      swap4\n        /* \"#utility.yul\":1949:2135   */\n      swap3\n      pop\n      pop\n      pop\n      jump\t// out\n        /* \"#utility.yul\":2348:2608   */\n    tag_71:\n        /* \"#utility.yul\":2416:2422   */\n      0x00\n        /* \"#utility.yul\":2424:2430   */\n      dup1\n        /* \"#utility.yul\":2477:2479   */\n      0x40\n        /* \"#utility.yul\":2465:2474   */\n      dup4\n        /* \"#utility.yul\":2456:2463   */\n      dup6\n        /* \"#utility.yul\":2452:2475   */\n      sub\n        /* \"#utility.yul\":2448:2480   */\n      slt\n        /* \"#utility.yul\":2445:2497   */\n      iszero\n      tag_196\n      jumpi\n        /* \"#utility.yul\":2493:2494   */\n      0x00\n        /* \"#utility.yul\":2490:2491   */\n      dup1\n        /* \"#utility.yul\":2483:2495   */\n      revert\n        /* \"#utility.yul\":2445:2497   */\n    tag_196:\n        /* \"#utility.yul\":2516:2545   */\n      tag_197\n        /* \"#utility.yul\":2535:2544   */\n      dup4\n        /* \"#utility.yul\":2516:2545   */\n      tag_172\n      jump\t// in\n    tag_197:\n        /* \"#utility.yul\":2506:2545   */\n      swap2\n      pop\n        /* \"#utility.yul\":2564:2602   */\n      tag_198\n        /* \"#utility.yul\":2598:2600   */\n      0x20\n        /* \"#utility.yul\":2587:2596   */\n      dup5\n        /* \"#utility.yul\":2583:2601   */\n      add\n        /* \"#utility.yul\":2564:2602   */\n      tag_172\n      jump\t// in\n    tag_198:\n        /* \"#utility.yul\":2554:2602   */\n      swap1\n      pop\n        /* \"#utility.yul\":2348:2608   */\n      swap3\n      pop\n      swap3\n      swap1\n      pop\n      jump\t// out\n        /* \"#utility.yul\":2613:2993   */\n    tag_79:\n        /* \"#utility.yul\":2692:2693   */\n      0x01\n        /* \"#utility.yul\":2688:2700   */\n      dup2\n      dup2\n      shr\n      swap1\n        /* \"#utility.yul\":2735:2747   */\n      dup3\n      and\n      dup1\n        /* \"#utility.yul\":2756:2817   */\n      tag_200\n      jumpi\n        /* \"#utility.yul\":2810:2814   */\n      0x7f\n        /* \"#utility.yul\":2802:2808   */\n      dup3\n        /* \"#utility.yul\":2798:2815   */\n      and\n        /* \"#utility.yul\":2788:2815   */\n      swap2\n      pop\n        /* \"#utility.yul\":2756:2817   */\n    tag_200:\n        /* \"#utility.yul\":2863:2865   */\n      0x20\n        /* \"#utility.yul\":2855:2861   */\n      dup3\n        /* \"#utility.yul\":2852:2866   */\n      lt\n        /* \"#utility.yul\":2832:2850   */\n      dup2\n        /* \"#utility.yul\":2829:2867   */\n      sub\n        /* \"#utility.yul\":2826:2987   */\n      tag_201\n      jumpi\n        /* \"#utility.yul\":2909:2919   */\n      0x4e487b71\n        /* \"#utility.yul\":2904:2907   */\n      0xe0\n        /* \"#utility.yul\":2900:2920   */\n      shl\n        /* \"#utility.yul\":2897:2898   */\n      0x00\n        /* \"#utility.yul\":2890:2921   */\n      mstore\n        /* \"#utility.yul\":2944:2948   */\n      0x22\n        /* \"#utility.yul\":2941:2942   */\n      0x04\n        /* \"#utility.yul\":2934:2949   */\n      mstore\n        /* \"#utility.yul\":2972:2976   */\n      0x24\n        /* \"#utility.yul\":2969:2970   */\n      0x00\n        /* \"#utility.yul\":2962:2977   */\n      revert\n        /* \"#utility.yul\":2826:2987   */\n    tag_201:\n      pop\n        /* \"#utility.yul\":2613:2993   */\n      swap2\n      swap1\n      pop\n      jump\t// out\n        /* \"#utility.yul\":3407:3632   */\n    tag_105:\n        /* \"#utility.yul\":3447:3450   */\n      0x00\n        /* \"#utility.yul\":3478:3479   */\n      dup3\n        /* \"#utility.yul\":3474:3480   */\n      not\n        /* \"#utility.yul\":3471:3472   */\n      dup3\n        /* \"#utility.yul\":3468:3481   */\n      gt\n        /* \"#utility.yul\":3465:3601   */\n      iszero\n      tag_204\n      jumpi\n        /* \"#utility.yul\":3523:3533   */\n      0x4e487b71\n        /* \"#utility.yul\":3518:3521   */\n      0xe0\n        /* \"#utility.yul\":3514:3534   */\n      shl\n        /* \"#utility.yul\":3511:3512   */\n      0x00\n        /* \"#utility.yul\":3504:3535   */\n      mstore\n        /* \"#utility.yul\":3558:3562   */\n      0x11\n        /* \"#utility.yul\":3555:3556   */\n      0x04\n        /* \"#utility.yul\":3548:3563   */\n      mstore\n        /* \"#utility.yul\":3586:3590   */\n      0x24\n        /* \"#utility.yul\":3583:3584   */\n      0x00\n        /* \"#utility.yul\":3576:3591   */\n      revert\n        /* \"#utility.yul\":3465:3601   */\n    tag_204:\n      pop\n        /* \"#utility.yul\":3617:3626   */\n      add\n      swap1\n        /* \"#utility.yul\":3407:3632   */\n      jump\t// out\n\n    auxdata: 0xa2646970667358221220b8d4c2cba72b443535546348b34b15f89e67a1e5c6f4468d3ba4c9c14fc6c6dd64736f6c634300080d0033\n}\n",
				"bytecode": {
					"linkReferences": {},
					"object": "60806040523480156200001157600080fd5b5060405162000da938038062000da9833981016040819052620000349162000236565b6200003f3362000073565b815162000054906004906020850190620000c3565b5080516200006a906005906020840190620000c3565b505050620002dc565b600080546001600160a01b038381166001600160a01b0319831681178455604051919092169283917f8be0079c531659141344cd1fd0a4f28419497f9722a3daafe3b4186f6b6457e09190a35050565b828054620000d190620002a0565b90600052602060002090601f016020900481019282620000f5576000855562000140565b82601f106200011057805160ff191683800117855562000140565b8280016001018555821562000140579182015b828111156200014057825182559160200191906001019062000123565b506200014e92915062000152565b5090565b5b808211156200014e576000815560010162000153565b634e487b7160e01b600052604160045260246000fd5b600082601f8301126200019157600080fd5b81516001600160401b0380821115620001ae57620001ae62000169565b604051601f8301601f19908116603f01168101908282118183101715620001d957620001d962000169565b81604052838152602092508683858801011115620001f657600080fd5b600091505b838210156200021a5785820183015181830184015290820190620001fb565b838211156200022c5760008385830101525b9695505050505050565b600080604083850312156200024a57600080fd5b82516001600160401b03808211156200026257600080fd5b62000270868387016200017f565b935060208501519150808211156200028757600080fd5b5062000296858286016200017f565b9150509250929050565b600181811c90821680620002b557607f821691505b602082108103620002d657634e487b7160e01b600052602260045260246000fd5b50919050565b610abd80620002ec6000396000f3fe608060405234801561001057600080fd5b50600436106100ea5760003560e01c8063715018a61161008c578063a457c2d711610066578063a457c2d7146101cd578063a9059cbb146101e0578063dd62ed3e146101f3578063f2fde38b1461022c57600080fd5b8063715018a6146101a05780638da5cb5b146101aa57806395d89b41146101c557600080fd5b806323b872dd116100c857806323b872dd14610142578063313ce56714610155578063395093511461016457806370a082311461017757600080fd5b806306fdde03146100ef578063095ea7b31461010d57806318160ddd14610130575b600080fd5b6100f761023f565b60405161010491906108fb565b60405180910390f35b61012061011b36600461096c565b6102d1565b6040519015158152602001610104565b6003545b604051908152602001610104565b610120610150366004610996565b6102e7565b60405160128152602001610104565b61012061017236600461096c565b610396565b6101346101853660046109d2565b6001600160a01b031660009081526001602052604090205490565b6101a86103d2565b005b6000546040516001600160a01b039091168152602001610104565b6100f7610438565b6101206101db36600461096c565b610447565b6101206101ee36600461096c565b6104e0565b6101346102013660046109f4565b6001600160a01b03918216600090815260026020908152604080832093909416825291909152205490565b6101a861023a3660046109d2565b6104ed565b60606004805461024e90610a27565b80601f016020809104026020016040519081016040528092919081815260200182805461027a90610a27565b80156102c75780601f1061029c576101008083540402835291602001916102c7565b820191906000526020600020905b8154815290600101906020018083116102aa57829003601f168201915b5050505050905090565b60006102de3384846105b8565b50600192915050565b60006102f48484846106dc565b6001600160a01b03841660009081526002602090815260408083203384529091529020548281101561037e5760405162461bcd60e51b815260206004820152602860248201527f45524332303a207472616e7366657220616d6f756e74206578636565647320616044820152676c6c6f77616e636560c01b60648201526084015b60405180910390fd5b61038b85338584036105b8565b506001949350505050565b3360008181526002602090815260408083206001600160a01b038716845290915281205490916102de9185906103cd908690610a61565b6105b8565b6000546001600160a01b0316331461042c5760405162461bcd60e51b815260206004820181905260248201527f4f776e61626c653a2063616c6c6572206973206e6f7420746865206f776e65726044820152606401610375565b61043660006108ab565b565b60606005805461024e90610a27565b3360009081526002602090815260408083206001600160a01b0386168452909152812054828110156104c95760405162461bcd60e51b815260206004820152602560248201527f45524332303a2064656372656173656420616c6c6f77616e63652062656c6f77604482015264207a65726f60d81b6064820152608401610375565b6104d633858584036105b8565b5060019392505050565b60006102de3384846106dc565b6000546001600160a01b031633146105475760405162461bcd60e51b815260206004820181905260248201527f4f776e61626c653a2063616c6c6572206973206e6f7420746865206f776e65726044820152606401610375565b6001600160a01b0381166105ac5760405162461bcd60e51b815260206004820152602660248201527f4f776e61626c653a206e6577206f776e657220697320746865207a65726f206160448201526564647265737360d01b6064820152608401610375565b6105b5816108ab565b50565b6001600160a01b03831661061a5760405162461bcd60e51b8152602060048201526024808201527f45524332303a20617070726f76652066726f6d20746865207a65726f206164646044820152637265737360e01b6064820152608401610375565b6001600160a01b03821661067b5760405162461bcd60e51b815260206004820152602260248201527f45524332303a20617070726f766520746f20746865207a65726f206164647265604482015261737360f01b6064820152608401610375565b6001600160a01b0383811660008181526002602090815260408083209487168084529482529182902085905590518481527f8c5be1e5ebec7d5bd14f71427d1e84f3dd0314c0f7b2291e5b200ac8c7c3b925910160405180910390a3505050565b6001600160a01b0383166107405760405162461bcd60e51b815260206004820152602560248201527f45524332303a207472616e736665722066726f6d20746865207a65726f206164604482015264647265737360d81b6064820152608401610375565b6001600160a01b0382166107a25760405162461bcd60e51b815260206004820152602360248201527f45524332303a207472616e7366657220746f20746865207a65726f206164647260448201526265737360e81b6064820152608401610375565b6001600160a01b0383166000908152600160205260409020548181101561081a5760405162461bcd60e51b815260206004820152602660248201527f45524332303a207472616e7366657220616d6f756e7420657863656564732062604482015265616c616e636560d01b6064820152608401610375565b6001600160a01b03808516600090815260016020526040808220858503905591851681529081208054849290610851908490610a61565b92505081905550826001600160a01b0316846001600160a01b03167fddf252ad1be2c89b69c2b068fc378daa952ba7f163c4a11628f55a4df523b3ef8460405161089d91815260200190565b60405180910390a350505050565b600080546001600160a01b038381166001600160a01b0319831681178455604051919092169283917f8be0079c531659141344cd1fd0a4f28419497f9722a3daafe3b4186f6b6457e09190a35050565b600060208083528351808285015260005b818110156109285785810183015185820160400152820161090c565b8181111561093a576000604083870101525b50601f01601f1916929092016040019392505050565b80356001600160a01b038116811461096757600080fd5b919050565b6000806040838503121561097f57600080fd5b61098883610950565b946020939093013593505050565b6000806000606084860312156109ab57600080fd5b6109b484610950565b92506109c260208501610950565b9150604084013590509250925092565b6000602082840312156109e457600080fd5b6109ed82610950565b9392505050565b60008060408385031215610a0757600080fd5b610a1083610950565b9150610a1e60208401610950565b90509250929050565b600181811c90821680610a3b57607f821691505b602082108103610a5b57634e487b7160e01b600052602260045260246000fd5b50919050565b60008219821115610a8257634e487b7160e01b600052601160045260246000fd5b50019056fea2646970667358221220b8d4c2cba72b443535546348b34b15f89e67a1e5c6f4468d3ba4c9c14fc6c6dd64736f6c634300080d0033",
					"opcodes": "PUSH1 0x80 PUSH1 0x40 MSTORE CALLVALUE DUP1 ISZERO PUSH3 0x11 JUMPI PUSH1 0x0 DUP1 REVERT JUMPDEST POP PUSH1 0x40 MLOAD PUSH3 0xDA9 CODESIZE SUB DUP1 PUSH3 0xDA9 DUP4 CODECOPY DUP2 ADD PUSH1 0x40 DUP2 SWAP1 MSTORE PUSH3 0x34 SWAP2 PUSH3 0x236 JUMP JUMPDEST PUSH3 0x3F CALLER PUSH3 0x73 JUMP JUMPDEST DUP2 MLOAD PUSH3 0x54 SWAP1 PUSH1 0x4 SWAP1 PUSH1 0x20 DUP6 ADD SWAP1 PUSH3 0xC3 JUMP JUMPDEST POP DUP1 MLOAD PUSH3 0x6A SWAP1 PUSH1 0x5 SWAP1 PUSH1 0x20 DUP5 ADD SWAP1 PUSH3 0xC3 JUMP JUMPDEST POP POP POP PUSH3 0x2DC JUMP JUMPDEST PUSH1 0x0 DUP1 SLOAD PUSH1 0x1 PUSH1 0x1 PUSH1 0xA0 SHL SUB DUP4 DUP2 AND PUSH1 0x1 PUSH1 0x1 PUSH1 0xA0 SHL SUB NOT DUP4 AND DUP2 OR DUP5 SSTORE PUSH1 0x40 MLOAD SWAP2 SWAP1 SWAP3 AND SWAP3 DUP4 SWAP2 PUSH32 0x8BE0079C531659141344CD1FD0A4F28419497F9722A3DAAFE3B4186F6B6457E0 SWAP2 SWAP1 LOG3 POP POP JUMP JUMPDEST DUP3 DUP1 SLOAD PUSH3 0xD1 SWAP1 PUSH3 0x2A0 JUMP JUMPDEST SWAP1 PUSH1 0x0 MSTORE PUSH1 0x20 PUSH1 0x0 KECCAK256 SWAP1 PUSH1 0x1F ADD PUSH1 0x20 SWAP1 DIV DUP2 ADD SWAP3 DUP3 PUSH3 0xF5 JUMPI PUSH1 0x0 DUP6 SSTORE PUSH3 0x140 JUMP JUMPDEST DUP3 PUSH1 0x1F LT PUSH3 0x110 JUMPI DUP1 MLOAD PUSH1 0xFF NOT AND DUP4 DUP1 ADD OR DUP6 SSTORE PUSH3 0x140 JUMP JUMPDEST DUP3 DUP1 ADD PUSH1 0x1 ADD DUP6 SSTORE DUP3 ISZERO PUSH3 0x140 JUMPI SWAP2 DUP3 ADD JUMPDEST DUP3 DUP2 GT ISZERO PUSH3 0x140 JUMPI DUP3 MLOAD DUP3 SSTORE SWAP2 PUSH1 0x20 ADD SWAP2 SWAP1 PUSH1 0x1 ADD SWAP1 PUSH3 0x123 JUMP JUMPDEST POP PUSH3 0x14E SWAP3 SWAP2 POP PUSH3 0x152 JUMP JUMPDEST POP SWAP1 JUMP JUMPDEST JUMPDEST DUP1 DUP3 GT ISZERO PUSH3 0x14E JUMPI PUSH1 0x0 DUP2 SSTORE PUSH1 0x1 ADD PUSH3 0x153 JUMP JUMPDEST PUSH4 0x4E487B71 PUSH1 0xE0 SHL PUSH1 0x0 MSTORE PUSH1 0x41 PUSH1 0x4 MSTORE PUSH1 0x24 PUSH1 0x0 REVERT JUMPDEST PUSH1 0x0 DUP3 PUSH1 0x1F DUP4 ADD SLT PUSH3 0x191 JUMPI PUSH1 0x0 DUP1 REVERT JUMPDEST DUP2 MLOAD PUSH1 0x1 PUSH1 0x1 PUSH1 0x40 SHL SUB DUP1 DUP3 GT ISZERO PUSH3 0x1AE JUMPI PUSH3 0x1AE PUSH3 0x169 JUMP JUMPDEST PUSH1 0x40 MLOAD PUSH1 0x1F DUP4 ADD PUSH1 0x1F NOT SWAP1 DUP2 AND PUSH1 0x3F ADD AND DUP2 ADD SWAP1 DUP3 DUP3 GT DUP2 DUP4 LT OR ISZERO PUSH3 0x1D9 JUMPI PUSH3 0x1D9 PUSH3 0x169 JUMP JUMPDEST DUP2 PUSH1 0x40 MSTORE DUP4 DUP2 MSTORE PUSH1 0x20 SWAP3 POP DUP7 DUP4 DUP6 DUP9 ADD ADD GT ISZERO PUSH3 0x1F6 JUMPI PUSH1 0x0 DUP1 REVERT JUMPDEST PUSH1 0x0 SWAP2 POP JUMPDEST DUP4 DUP3 LT ISZERO PUSH3 0x21A JUMPI DUP6 DUP3 ADD DUP4 ADD MLOAD DUP2 DUP4 ADD DUP5 ADD MSTORE SWAP1 DUP3 ADD SWAP1 PUSH3 0x1FB JUMP JUMPDEST DUP4 DUP3 GT ISZERO PUSH3 0x22C JUMPI PUSH1 0x0 DUP4 DUP6 DUP4 ADD ADD MSTORE JUMPDEST SWAP7 SWAP6 POP POP POP POP POP POP JUMP JUMPDEST PUSH1 0x0 DUP1 PUSH1 0x40 DUP4 DUP6 SUB SLT ISZERO PUSH3 0x24A JUMPI PUSH1 0x0 DUP1 REVERT JUMPDEST DUP3 MLOAD PUSH1 0x1 PUSH1 0x1 PUSH1 0x40 SHL SUB DUP1 DUP3 GT ISZERO PUSH3 0x262 JUMPI PUSH1 0x0 DUP1 REVERT JUMPDEST PUSH3 0x270 DUP7 DUP4 DUP8 ADD PUSH3 0x17F JUMP JUMPDEST SWAP4 POP PUSH1 0x20 DUP6 ADD MLOAD SWAP2 POP DUP1 DUP3 GT ISZERO PUSH3 0x287 JUMPI PUSH1 0x0 DUP1 REVERT JUMPDEST POP PUSH3 0x296 DUP6 DUP3 DUP7 ADD PUSH3 0x17F JUMP JUMPDEST SWAP2 POP POP SWAP3 POP SWAP3 SWAP1 POP JUMP JUMPDEST PUSH1 0x1 DUP2 DUP2 SHR SWAP1 DUP3 AND DUP1 PUSH3 0x2B5 JUMPI PUSH1 0x7F DUP3 AND SWAP2 POP JUMPDEST PUSH1 0x20 DUP3 LT DUP2 SUB PUSH3 0x2D6 JUMPI PUSH4 0x4E487B71 PUSH1 0xE0 SHL PUSH1 0x0 MSTORE PUSH1 0x22 PUSH1 0x4 MSTORE PUSH1 0x24 PUSH1 0x0 REVERT JUMPDEST POP SWAP2 SWAP1 POP JUMP JUMPDEST PUSH2 0xABD DUP1 PUSH3 0x2EC PUSH1 0x0 CODECOPY PUSH1 0x0 RETURN INVALID PUSH1 0x80 PUSH1 0x40 MSTORE CALLVALUE DUP1 ISZERO PUSH2 0x10 JUMPI PUSH1 0x0 DUP1 REVERT JUMPDEST POP PUSH1 0x4 CALLDATASIZE LT PUSH2 0xEA JUMPI PUSH1 0x0 CALLDATALOAD PUSH1 0xE0 SHR DUP1 PUSH4 0x715018A6 GT PUSH2 0x8C JUMPI DUP1 PUSH4 0xA457C2D7 GT PUSH2 0x66 JUMPI DUP1 PUSH4 0xA457C2D7 EQ PUSH2 0x1CD JUMPI DUP1 PUSH4 0xA9059CBB EQ PUSH2 0x1E0 JUMPI DUP1 PUSH4 0xDD62ED3E EQ PUSH2 0x1F3 JUMPI DUP1 PUSH4 0xF2FDE38B EQ PUSH2 0x22C JUMPI PUSH1 0x0 DUP1 REVERT JUMPDEST DUP1 PUSH4 0x715018A6 EQ PUSH2 0x1A0 JUMPI DUP1 PUSH4 0x8DA5CB5B EQ PUSH2 0x1AA JUMPI DUP1 PUSH4 0x95D89B41 EQ PUSH2 0x1C5 JUMPI PUSH1 0x0 DUP1 REVERT JUMPDEST DUP1 PUSH4 0x23B872DD GT PUSH2 0xC8 JUMPI DUP1 PUSH4 0x23B872DD EQ PUSH2 0x142 JUMPI DUP1 PUSH4 0x313CE567 EQ PUSH2 0x155 JUMPI DUP1 PUSH4 0x39509351 EQ PUSH2 0x164 JUMPI DUP1 PUSH4 0x70A08231 EQ PUSH2 0x177 JUMPI PUSH1 0x0 DUP1 REVERT JUMPDEST DUP1 PUSH4 0x6FDDE03 EQ PUSH2 0xEF JUMPI DUP1 PUSH4 0x95EA7B3 EQ PUSH2 0x10D JUMPI DUP1 PUSH4 0x18160DDD EQ PUSH2 0x130 JUMPI JUMPDEST PUSH1 0x0 DUP1 REVERT JUMPDEST PUSH2 0xF7 PUSH2 0x23F JUMP JUMPDEST PUSH1 0x40 MLOAD PUSH2 0x104 SWAP2 SWAP1 PUSH2 0x8FB JUMP JUMPDEST PUSH1 0x40 MLOAD DUP1 SWAP2 SUB SWAP1 RETURN JUMPDEST PUSH2 0x120 PUSH2 0x11B CALLDATASIZE PUSH1 0x4 PUSH2 0x96C JUMP JUMPDEST PUSH2 0x2D1 JUMP JUMPDEST PUSH1 0x40 MLOAD SWAP1 ISZERO ISZERO DUP2 MSTORE PUSH1 0x20 ADD PUSH2 0x104 JUMP JUMPDEST PUSH1 0x3 SLOAD JUMPDEST PUSH1 0x40 MLOAD SWAP1 DUP2 MSTORE PUSH1 0x20 ADD PUSH2 0x104 JUMP JUMPDEST PUSH2 0x120 PUSH2 0x150 CALLDATASIZE PUSH1 0x4 PUSH2 0x996 JUMP JUMPDEST PUSH2 0x2E7 JUMP JUMPDEST PUSH1 0x40 MLOAD PUSH1 0x12 DUP2 MSTORE PUSH1 0x20 ADD PUSH2 0x104 JUMP JUMPDEST PUSH2 0x120 PUSH2 0x172 CALLDATASIZE PUSH1 0x4 PUSH2 0x96C JUMP JUMPDEST PUSH2 0x396 JUMP JUMPDEST PUSH2 0x134 PUSH2 0x185 CALLDATASIZE PUSH1 0x4 PUSH2 0x9D2 JUMP JUMPDEST PUSH1 0x1 PUSH1 0x1 PUSH1 0xA0 SHL SUB AND PUSH1 0x0 SWAP1 DUP2 MSTORE PUSH1 0x1 PUSH1 0x20 MSTORE PUSH1 0x40 SWAP1 KECCAK256 SLOAD SWAP1 JUMP JUMPDEST PUSH2 0x1A8 PUSH2 0x3D2 JUMP JUMPDEST STOP JUMPDEST PUSH1 0x0 SLOAD PUSH1 0x40 MLOAD PUSH1 0x1 PUSH1 0x1 PUSH1 0xA0 SHL SUB SWAP1 SWAP2 AND DUP2 MSTORE PUSH1 0x20 ADD PUSH2 0x104 JUMP JUMPDEST PUSH2 0xF7 PUSH2 0x438 JUMP JUMPDEST PUSH2 0x120 PUSH2 0x1DB CALLDATASIZE PUSH1 0x4 PUSH2 0x96C JUMP JUMPDEST PUSH2 0x447 JUMP JUMPDEST PUSH2 0x120 PUSH2 0x1EE CALLDATASIZE PUSH1 0x4 PUSH2 0x96C JUMP JUMPDEST PUSH2 0x4E0 JUMP JUMPDEST PUSH2 0x134 PUSH2 0x201 CALLDATASIZE PUSH1 0x4 PUSH2 0x9F4 JUMP JUMPDEST PUSH1 0x1 PUSH1 0x1 PUSH1 0xA0 SHL SUB SWAP2 DUP3 AND PUSH1 0x0 SWAP1 DUP2 MSTORE PUSH1 0x2 PUSH1 0x20 SWAP1 DUP2 MSTORE PUSH1 0x40 DUP1 DUP4 KECCAK256 SWAP4 SWAP1 SWAP5 AND DUP3 MSTORE SWAP2 SWAP1 SWAP2 MSTORE KECCAK256 SLOAD SWAP1 JUMP JUMPDEST PUSH2 0x1A8 PUSH2 0x23A CALLDATASIZE PUSH1 0x4 PUSH2 0x9D2 JUMP JUMPDEST PUSH2 0x4ED JUMP JUMPDEST PUSH1 0x60 PUSH1 0x4 DUP1 SLOAD PUSH2 0x24E SWAP1 PUSH2 0xA27 JUMP JUMPDEST DUP1 PUSH1 0x1F ADD PUSH1 0x20 DUP1 SWAP2 DIV MUL PUSH1 0x20 ADD PUSH1 0x40 MLOAD SWAP1 DUP2 ADD PUSH1 0x40 MSTORE DUP1 SWAP3 SWAP2 SWAP1 DUP2 DUP2 MSTORE PUSH1 0x20 ADD DUP3 DUP1 SLOAD PUSH2 0x27A SWAP1 PUSH2 0xA27 JUMP JUMPDEST DUP1 ISZERO PUSH2 0x2C7 JUMPI DUP1 PUSH1 0x1F LT PUSH2 0x29C JUMPI PUSH2 0x100 DUP1 DUP4 SLOAD DIV MUL DUP4 MSTORE SWAP2 PUSH1 0x20 ADD SWAP2 PUSH2 0x2C7 JUMP JUMPDEST DUP3 ADD SWAP2 SWAP1 PUSH1 0x0 MSTORE PUSH1 0x20 PUSH1 0x0 KECCAK256 SWAP1 JUMPDEST DUP2 SLOAD DUP2 MSTORE SWAP1 PUSH1 0x1 ADD SWAP1 PUSH1 0x20 ADD DUP1 DUP4 GT PUSH2 0x2AA JUMPI DUP3 SWAP1 SUB PUSH1 0x1F AND DUP3 ADD SWAP2 JUMPDEST POP POP POP POP POP SWAP1 POP SWAP1 JUMP JUMPDEST PUSH1 0x0 PUSH2 0x2DE CALLER DUP5 DUP5 PUSH2 0x5B8 JUMP JUMPDEST POP PUSH1 0x1 SWAP3 SWAP2 POP POP JUMP JUMPDEST PUSH1 0x0 PUSH2 0x2F4 DUP5 DUP5 DUP5 PUSH2 0x6DC JUMP JUMPDEST PUSH1 0x1 PUSH1 0x1 PUSH1 0xA0 SHL SUB DUP5 AND PUSH1 0x0 SWAP1 DUP2 MSTORE PUSH1 0x2 PUSH1 0x20 SWAP1 DUP2 MSTORE PUSH1 0x40 DUP1 DUP4 KECCAK256 CALLER DUP5 MSTORE SWAP1 SWAP2 MSTORE SWAP1 KECCAK256 SLOAD DUP3 DUP2 LT ISZERO PUSH2 0x37E JUMPI PUSH1 0x40 MLOAD PUSH3 0x461BCD PUSH1 0xE5 SHL DUP2 MSTORE PUSH1 0x20 PUSH1 0x4 DUP3 ADD MSTORE PUSH1 0x28 PUSH1 0x24 DUP3 ADD MSTORE PUSH32 0x45524332303A207472616E7366657220616D6F756E7420657863656564732061 PUSH1 0x44 DUP3 ADD MSTORE PUSH8 0x6C6C6F77616E6365 PUSH1 0xC0 SHL PUSH1 0x64 DUP3 ADD MSTORE PUSH1 0x84 ADD JUMPDEST PUSH1 0x40 MLOAD DUP1 SWAP2 SUB SWAP1 REVERT JUMPDEST PUSH2 0x38B DUP6 CALLER DUP6 DUP5 SUB PUSH2 0x5B8 JUMP JUMPDEST POP PUSH1 0x1 SWAP5 SWAP4 POP POP POP POP JUMP JUMPDEST CALLER PUSH1 0x0 DUP2 DUP2 MSTORE PUSH1 0x2 PUSH1 0x20 SWAP1 DUP2 MSTORE PUSH1 0x40 DUP1 DUP4 KECCAK256 PUSH1 0x1 PUSH1 0x1 PUSH1 0xA0 SHL SUB DUP8 AND DUP5 MSTORE SWAP1 SWAP2 MSTORE DUP2 KECCAK256 SLOAD SWAP1 SWAP2 PUSH2 0x2DE SWAP2 DUP6 SWAP1 PUSH2 0x3CD SWAP1 DUP7 SWAP1 PUSH2 0xA61 JUMP JUMPDEST PUSH2 0x5B8 JUMP JUMPDEST PUSH1 0x0 SLOAD PUSH1 0x1 PUSH1 0x1 PUSH1 0xA0 SHL SUB AND CALLER EQ PUSH2 0x42C JUMPI PUSH1 0x40 MLOAD PUSH3 0x461BCD PUSH1 0xE5 SHL DUP2 MSTORE PUSH1 0x20 PUSH1 0x4 DUP3 ADD DUP2 SWAP1 MSTORE PUSH1 0x24 DUP3 ADD MSTORE PUSH32 0x4F776E61626C653A2063616C6C6572206973206E6F7420746865206F776E6572 PUSH1 0x44 DUP3 ADD MSTORE PUSH1 0x64 ADD PUSH2 0x375 JUMP JUMPDEST PUSH2 0x436 PUSH1 0x0 PUSH2 0x8AB JUMP JUMPDEST JUMP JUMPDEST PUSH1 0x60 PUSH1 0x5 DUP1 SLOAD PUSH2 0x24E SWAP1 PUSH2 0xA27 JUMP JUMPDEST CALLER PUSH1 0x0 SWAP1 DUP2 MSTORE PUSH1 0x2 PUSH1 0x20 SWAP1 DUP2 MSTORE PUSH1 0x40 DUP1 DUP4 KECCAK256 PUSH1 0x1 PUSH1 0x1 PUSH1 0xA0 SHL SUB DUP7 AND DUP5 MSTORE SWAP1 SWAP2 MSTORE DUP2 KECCAK256 SLOAD DUP3 DUP2 LT ISZERO PUSH2 0x4C9 JUMPI PUSH1 0x40 MLOAD PUSH3 0x461BCD PUSH1 0xE5 SHL DUP2 MSTORE PUSH1 0x20 PUSH1 0x4 DUP3 ADD MSTORE PUSH1 0x25 PUSH1 0x24 DUP3 ADD MSTORE PUSH32 0x45524332303A2064656372656173656420616C6C6F77616E63652062656C6F77 PUSH1 0x44 DUP3 ADD MSTORE PUSH5 0x207A65726F PUSH1 0xD8 SHL PUSH1 0x64 DUP3 ADD MSTORE PUSH1 0x84 ADD PUSH2 0x375 JUMP JUMPDEST PUSH2 0x4D6 CALLER DUP6 DUP6 DUP5 SUB PUSH2 0x5B8 JUMP JUMPDEST POP PUSH1 0x1 SWAP4 SWAP3 POP POP POP JUMP JUMPDEST PUSH1 0x0 PUSH2 0x2DE CALLER DUP5 DUP5 PUSH2 0x6DC JUMP JUMPDEST PUSH1 0x0 SLOAD PUSH1 0x1 PUSH1 0x1 PUSH1 0xA0 SHL SUB AND CALLER EQ PUSH2 0x547 JUMPI PUSH1 0x40 MLOAD PUSH3 0x461BCD PUSH1 0xE5 SHL DUP2 MSTORE PUSH1 0x20 PUSH1 0x4 DUP3 ADD DUP2 SWAP1 MSTORE PUSH1 0x24 DUP3 ADD MSTORE PUSH32 0x4F776E61626C653A2063616C6C6572206973206E6F7420746865206F776E6572 PUSH1 0x44 DUP3 ADD MSTORE PUSH1 0x64 ADD PUSH2 0x375 JUMP JUMPDEST PUSH1 0x1 PUSH1 0x1 PUSH1 0xA0 SHL SUB DUP2 AND PUSH2 0x5AC JUMPI PUSH1 0x40 MLOAD PUSH3 0x461BCD PUSH1 0xE5 SHL DUP2 MSTORE PUSH1 0x20 PUSH1 0x4 DUP3 ADD MSTORE PUSH1 0x26 PUSH1 0x24 DUP3 ADD MSTORE PUSH32 0x4F776E61626C653A206E6577206F776E657220697320746865207A65726F2061 PUSH1 0x44 DUP3 ADD MSTORE PUSH6 0x646472657373 PUSH1 0xD0 SHL PUSH1 0x64 DUP3 ADD MSTORE PUSH1 0x84 ADD PUSH2 0x375 JUMP JUMPDEST PUSH2 0x5B5 DUP2 PUSH2 0x8AB JUMP JUMPDEST POP JUMP JUMPDEST PUSH1 0x1 PUSH1 0x1 PUSH1 0xA0 SHL SUB DUP4 AND PUSH2 0x61A JUMPI PUSH1 0x40 MLOAD PUSH3 0x461BCD PUSH1 0xE5 SHL DUP2 MSTORE PUSH1 0x20 PUSH1 0x4 DUP3 ADD MSTORE PUSH1 0x24 DUP1 DUP3 ADD MSTORE PUSH32 0x45524332303A20617070726F76652066726F6D20746865207A65726F20616464 PUSH1 0x44 DUP3 ADD MSTORE PUSH4 0x72657373 PUSH1 0xE0 SHL PUSH1 0x64 DUP3 ADD MSTORE PUSH1 0x84 ADD PUSH2 0x375 JUMP JUMPDEST PUSH1 0x1 PUSH1 0x1 PUSH1 0xA0 SHL SUB DUP3 AND PUSH2 0x67B JUMPI PUSH1 0x40 MLOAD PUSH3 0x461BCD PUSH1 0xE5 SHL DUP2 MSTORE PUSH1 0x20 PUSH1 0x4 DUP3 ADD MSTORE PUSH1 0x22 PUSH1 0x24 DUP3 ADD MSTORE PUSH32 0x45524332303A20617070726F766520746F20746865207A65726F206164647265 PUSH1 0x44 DUP3 ADD MSTORE PUSH2 0x7373 PUSH1 0xF0 SHL PUSH1 0x64 DUP3 ADD MSTORE PUSH1 0x84 ADD PUSH2 0x375 JUMP JUMPDEST PUSH1 0x1 PUSH1 0x1 PUSH1 0xA0 SHL SUB DUP4 DUP2 AND PUSH1 0x0 DUP2 DUP2 MSTORE PUSH1 0x2 PUSH1 0x20 SWAP1 DUP2 MSTORE PUSH1 0x40 DUP1 DUP4 KECCAK256 SWAP5 DUP8 AND DUP1 DUP5 MSTORE SWAP5 DUP3 MSTORE SWAP2 DUP3 SWAP1 KECCAK256 DUP6 SWAP1 SSTORE SWAP1 MLOAD DUP5 DUP2 MSTORE PUSH32 0x8C5BE1E5EBEC7D5BD14F71427D1E84F3DD0314C0F7B2291E5B200AC8C7C3B925 SWAP2 ADD PUSH1 0x40 MLOAD DUP1 SWAP2 SUB SWAP1 LOG3 POP POP POP JUMP JUMPDEST PUSH1 0x1 PUSH1 0x1 PUSH1 0xA0 SHL SUB DUP4 AND PUSH2 0x740 JUMPI PUSH1 0x40 MLOAD PUSH3 0x461BCD PUSH1 0xE5 SHL DUP2 MSTORE PUSH1 0x20 PUSH1 0x4 DUP3 ADD MSTORE PUSH1 0x25 PUSH1 0x24 DUP3 ADD MSTORE PUSH32 0x45524332303A207472616E736665722066726F6D20746865207A65726F206164 PUSH1 0x44 DUP3 ADD MSTORE PUSH5 0x6472657373 PUSH1 0xD8 SHL PUSH1 0x64 DUP3 ADD MSTORE PUSH1 0x84 ADD PUSH2 0x375 JUMP JUMPDEST PUSH1 0x1 PUSH1 0x1 PUSH1 0xA0 SHL SUB DUP3 AND PUSH2 0x7A2 JUMPI PUSH1 0x40 MLOAD PUSH3 0x461BCD PUSH1 0xE5 SHL DUP2 MSTORE PUSH1 0x20 PUSH1 0x4 DUP3 ADD MSTORE PUSH1 0x23 PUSH1 0x24 DUP3 ADD MSTORE PUSH32 0x45524332303A207472616E7366657220746F20746865207A65726F2061646472 PUSH1 0x44 DUP3 ADD MSTORE PUSH3 0x657373 PUSH1 0xE8 SHL PUSH1 0x64 DUP3 ADD MSTORE PUSH1 0x84 ADD PUSH2 0x375 JUMP JUMPDEST PUSH1 0x1 PUSH1 0x1 PUSH1 0xA0 SHL SUB DUP4 AND PUSH1 0x0 SWAP1 DUP2 MSTORE PUSH1 0x1 PUSH1 0x20 MSTORE PUSH1 0x40 SWAP1 KECCAK256 SLOAD DUP2 DUP2 LT ISZERO PUSH2 0x81A JUMPI PUSH1 0x40 MLOAD PUSH3 0x461BCD PUSH1 0xE5 SHL DUP2 MSTORE PUSH1 0x20 PUSH1 0x4 DUP3 ADD MSTORE PUSH1 0x26 PUSH1 0x24 DUP3 ADD MSTORE PUSH32 0x45524332303A207472616E7366657220616D6F756E7420657863656564732062 PUSH1 0x44 DUP3 ADD MSTORE PUSH6 0x616C616E6365 PUSH1 0xD0 SHL PUSH1 0x64 DUP3 ADD MSTORE PUSH1 0x84 ADD PUSH2 0x375 JUMP JUMPDEST PUSH1 0x1 PUSH1 0x1 PUSH1 0xA0 SHL SUB DUP1 DUP6 AND PUSH1 0x0 SWAP1 DUP2 MSTORE PUSH1 0x1 PUSH1 0x20 MSTORE PUSH1 0x40 DUP1 DUP3 KECCAK256 DUP6 DUP6 SUB SWAP1 SSTORE SWAP2 DUP6 AND DUP2 MSTORE SWAP1 DUP2 KECCAK256 DUP1 SLOAD DUP5 SWAP3 SWAP1 PUSH2 0x851 SWAP1 DUP5 SWAP1 PUSH2 0xA61 JUMP JUMPDEST SWAP3 POP POP DUP2 SWAP1 SSTORE POP DUP3 PUSH1 0x1 PUSH1 0x1 PUSH1 0xA0 SHL SUB AND DUP5 PUSH1 0x1 PUSH1 0x1 PUSH1 0xA0 SHL SUB AND PUSH32 0xDDF252AD1BE2C89B69C2B068FC378DAA952BA7F163C4A11628F55A4DF523B3EF DUP5 PUSH1 0x40 MLOAD PUSH2 0x89D SWAP2 DUP2 MSTORE PUSH1 0x20 ADD SWAP1 JUMP JUMPDEST PUSH1 0x40 MLOAD DUP1 SWAP2 SUB SWAP1 LOG3 POP POP POP POP JUMP JUMPDEST PUSH1 0x0 DUP1 SLOAD PUSH1 0x1 PUSH1 0x1 PUSH1 0xA0 SHL SUB DUP4 DUP2 AND PUSH1 0x1 PUSH1 0x1 PUSH1 0xA0 SHL SUB NOT DUP4 AND DUP2 OR DUP5 SSTORE PUSH1 0x40 MLOAD SWAP2 SWAP1 SWAP3 AND SWAP3 DUP4 SWAP2 PUSH32 0x8BE0079C531659141344CD1FD0A4F28419497F9722A3DAAFE3B4186F6B6457E0 SWAP2 SWAP1 LOG3 POP POP JUMP JUMPDEST PUSH1 0x0 PUSH1 0x20 DUP1 DUP4 MSTORE DUP4 MLOAD DUP1 DUP3 DUP6 ADD MSTORE PUSH1 0x0 JUMPDEST DUP2 DUP2 LT ISZERO PUSH2 0x928 JUMPI DUP6 DUP2 ADD DUP4 ADD MLOAD DUP6 DUP3 ADD PUSH1 0x40 ADD MSTORE DUP3 ADD PUSH2 0x90C JUMP JUMPDEST DUP2 DUP2 GT ISZERO PUSH2 0x93A JUMPI PUSH1 0x0 PUSH1 0x40 DUP4 DUP8 ADD ADD MSTORE JUMPDEST POP PUSH1 0x1F ADD PUSH1 0x1F NOT AND SWAP3 SWAP1 SWAP3 ADD PUSH1 0x40 ADD SWAP4 SWAP3 POP POP POP JUMP JUMPDEST DUP1 CALLDATALOAD PUSH1 0x1 PUSH1 0x1 PUSH1 0xA0 SHL SUB DUP2 AND DUP2 EQ PUSH2 0x967 JUMPI PUSH1 0x0 DUP1 REVERT JUMPDEST SWAP2 SWAP1 POP JUMP JUMPDEST PUSH1 0x0 DUP1 PUSH1 0x40 DUP4 DUP6 SUB SLT ISZERO PUSH2 0x97F JUMPI PUSH1 0x0 DUP1 REVERT JUMPDEST PUSH2 0x988 DUP4 PUSH2 0x950 JUMP JUMPDEST SWAP5 PUSH1 0x20 SWAP4 SWAP1 SWAP4 ADD CALLDATALOAD SWAP4 POP POP POP JUMP JUMPDEST PUSH1 0x0 DUP1 PUSH1 0x0 PUSH1 0x60 DUP5 DUP7 SUB SLT ISZERO PUSH2 0x9AB JUMPI PUSH1 0x0 DUP1 REVERT JUMPDEST PUSH2 0x9B4 DUP5 PUSH2 0x950 JUMP JUMPDEST SWAP3 POP PUSH2 0x9C2 PUSH1 0x20 DUP6 ADD PUSH2 0x950 JUMP JUMPDEST SWAP2 POP PUSH1 0x40 DUP5 ADD CALLDATALOAD SWAP1 POP SWAP3 POP SWAP3 POP SWAP3 JUMP JUMPDEST PUSH1 0x0 PUSH1 0x20 DUP3 DUP5 SUB SLT ISZERO PUSH2 0x9E4 JUMPI PUSH1 0x0 DUP1 REVERT JUMPDEST PUSH2 0x9ED DUP3 PUSH2 0x950 JUMP JUMPDEST SWAP4 SWAP3 POP POP POP JUMP JUMPDEST PUSH1 0x0 DUP1 PUSH1 0x40 DUP4 DUP6 SUB SLT ISZERO PUSH2 0xA07 JUMPI PUSH1 0x0 DUP1 REVERT JUMPDEST PUSH2 0xA10 DUP4 PUSH2 0x950 JUMP JUMPDEST SWAP2 POP PUSH2 0xA1E PUSH1 0x20 DUP5 ADD PUSH2 0x950 JUMP JUMPDEST SWAP1 POP SWAP3 POP SWAP3 SWAP1 POP JUMP JUMPDEST PUSH1 0x1 DUP2 DUP2 SHR SWAP1 DUP3 AND DUP1 PUSH2 0xA3B JUMPI PUSH1 0x7F DUP3 AND SWAP2 POP JUMPDEST PUSH1 0x20 DUP3 LT DUP2 SUB PUSH2 0xA5B JUMPI PUSH4 0x4E487B71 PUSH1 0xE0 SHL PUSH1 0x0 MSTORE PUSH1 0x22 PUSH1 0x4 MSTORE PUSH1 0x24 PUSH1 0x0 REVERT JUMPDEST POP SWAP2 SWAP1 POP JUMP JUMPDEST PUSH1 0x0 DUP3 NOT DUP3 GT ISZERO PUSH2 0xA82 JUMPI PUSH4 0x4E487B71 PUSH1 0xE0 SHL PUSH1 0x0 MSTORE PUSH1 0x11 PUSH1 0x4 MSTORE PUSH1 0x24 PUSH1 0x0 REVERT JUMPDEST POP ADD SWAP1 JUMP INVALID LOG2 PUSH5 0x6970667358 0x22 SLT KECCAK256 0xB8 0xD4 0xC2 0xCB 0xA7 0x2B DIFFICULTY CALLDATALOAD CALLDATALOAD SLOAD PUSH4 0x48B34B15 0xF8 SWAP15 PUSH8 0xA1E5C6F4468D3BA4 0xC9 0xC1 0x4F 0xC6 0xC6 0xDD PUSH5 0x736F6C6343 STOP ADDMOD 0xD STOP CALLER "
				},
				"gasEstimates": {
					"creation": {
						"codeDepositCost": "549800",
						"executionCost": "infinite",
						"totalCost": "infinite"
					},
					"external": {
						"allowance(address,address)": "infinite",
						"approve(address,uint256)": "24642",
						"balanceOf(address)": "2626",
						"decimals()": "222",
						"decreaseAllowance(address,uint256)": "26910",
						"increaseAllowance(address,uint256)": "27001",
						"name()": "infinite",
						"owner()": "2346",
						"renounceOwnership()": "28137",
						"symbol()": "infinite",
						"totalSupply()": "2349",
						"transfer(address,uint256)": "51203",
						"transferFrom(address,address,uint256)": "infinite",
						"transferOwnership(address)": "28397"
					},
					"internal": {
						"_afterTokenTransfer(address,address,uint256)": "infinite",
						"_approve(address,address,uint256)": "infinite",
						"_beforeTokenTransfer(address,address,uint256)": "infinite",
						"_burn(address,uint256)": "infinite",
						"_mint(address,uint256)": "infinite",
						"_transfer(address,address,uint256)": "infinite"
					}
				},
				"methodIdentifiers": {
					"allowance(address,address)": "dd62ed3e",
					"approve(address,uint256)": "095ea7b3",
					"balanceOf(address)": "70a08231",
					"decimals()": "313ce567",
					"decreaseAllowance(address,uint256)": "a457c2d7",
					"increaseAllowance(address,uint256)": "39509351",
					"name()": "06fdde03",
					"owner()": "8da5cb5b",
					"renounceOwnership()": "715018a6",
					"symbol()": "95d89b41",
					"totalSupply()": "18160ddd",
					"transfer(address,uint256)": "a9059cbb",
					"transferFrom(address,address,uint256)": "23b872dd",
					"transferOwnership(address)": "f2fde38b"
				}
			},
			"storageLayout": {
				"storage": [
					{
						"astId": 120,
						"contract": "msc_token/ERC20.sol:ERC20",
						"label": "_owner",
						"offset": 0,
						"slot": "0",
						"type": "t_address"
					},
					{
						"astId": 229,
						"contract": "msc_token/ERC20.sol:ERC20",
						"label": "_balances",
						"offset": 0,
						"slot": "1",
						"type": "t_mapping(t_address,t_uint256)"
					},
					{
						"astId": 235,
						"contract": "msc_token/ERC20.sol:ERC20",
						"label": "_allowances",
						"offset": 0,
						"slot": "2",
						"type": "t_mapping(t_address,t_mapping(t_address,t_uint256))"
					},
					{
						"astId": 237,
						"contract": "msc_token/ERC20.sol:ERC20",
						"label": "_totalSupply",
						"offset": 0,
						"slot": "3",
						"type": "t_uint256"
					},
					{
						"astId": 239,
						"contract": "msc_token/ERC20.sol:ERC20",
						"label": "_name",
						"offset": 0,
						"slot": "4",
						"type": "t_string_storage"
					},
					{
						"astId": 241,
						"contract": "msc_token/ERC20.sol:ERC20",
						"label": "_symbol",
						"offset": 0,
						"slot": "5",
						"type": "t_string_storage"
					}
				],
				"types": {
					"t_address": {
						"encoding": "inplace",
						"label": "address",
						"numberOfBytes": "20"
					},
					"t_mapping(t_address,t_mapping(t_address,t_uint256))": {
						"encoding": "mapping",
						"key": "t_address",
						"label": "mapping(address => mapping(address => uint256))",
						"numberOfBytes": "32",
						"value": "t_mapping(t_address,t_uint256)"
					},
					"t_mapping(t_address,t_uint256)": {
						"encoding": "mapping",
						"key": "t_address",
						"label": "mapping(address => uint256)",
						"numberOfBytes": "32",
						"value": "t_uint256"
					},
					"t_string_storage": {
						"encoding": "bytes",
						"label": "string",
						"numberOfBytes": "32"
					},
					"t_uint256": {
						"encoding": "inplace",
						"label": "uint256",
						"numberOfBytes": "32"
					}
				}
			},
			"userdoc": {
				"kind": "user",
				"methods": {},
				"version": 1
			}
		}
	}
}