{
	"msc_token/BeePresell.sol": {
		"UsdtPresell": {
			"abi": [
				{
					"inputs": [
						{
							"internalType": "uint64",
							"name": "_startAt",
							"type": "uint64"
						},
						{
							"internalType": "uint64",
							"name": "_endAt",
							"type": "uint64"
						}
					],
					"stateMutability": "nonpayable",
					"type": "constructor"
				},
				{
					"anonymous": false,
					"inputs": [
						{
							"indexed": true,
							"internalType": "address",
							"name": "previousOwner",
							"type": "address"
						},
						{
							"indexed": true,
							"internalType": "address",
							"name": "newOwner",
							"type": "address"
						}
					],
					"name": "OwnershipTransferred",
					"type": "event"
				},
				{
					"inputs": [
						{
							"internalType": "address",
							"name": "_inviter",
							"type": "address"
						}
					],
					"name": "acceptInvitation",
					"outputs": [
						{
							"internalType": "bool",
							"name": "",
							"type": "bool"
						}
					],
					"stateMutability": "nonpayable",
					"type": "function"
				},
				{
					"inputs": [],
					"name": "buyTokens",
					"outputs": [],
					"stateMutability": "nonpayable",
					"type": "function"
				},
				{
					"inputs": [],
					"name": "counter",
					"outputs": [
						{
							"internalType": "uint32",
							"name": "",
							"type": "uint32"
						}
					],
					"stateMutability": "view",
					"type": "function"
				},
				{
					"inputs": [],
					"name": "endAt",
					"outputs": [
						{
							"internalType": "uint64",
							"name": "",
							"type": "uint64"
						}
					],
					"stateMutability": "view",
					"type": "function"
				},
				{
					"inputs": [
						{
							"internalType": "uint256",
							"name": "amount",
							"type": "uint256"
						}
					],
					"name": "exigencyWithdraw",
					"outputs": [],
					"stateMutability": "nonpayable",
					"type": "function"
				},
				{
					"inputs": [],
					"name": "getEndTime",
					"outputs": [
						{
							"internalType": "uint64",
							"name": "",
							"type": "uint64"
						}
					],
					"stateMutability": "view",
					"type": "function"
				},
				{
					"inputs": [],
					"name": "getPreSellCoinAmount",
					"outputs": [
						{
							"internalType": "uint256",
							"name": "",
							"type": "uint256"
						}
					],
					"stateMutability": "view",
					"type": "function"
				},
				{
					"inputs": [],
					"name": "getPreSellCounter",
					"outputs": [
						{
							"internalType": "uint64",
							"name": "",
							"type": "uint64"
						}
					],
					"stateMutability": "view",
					"type": "function"
				},
				{
					"inputs": [],
					"name": "getStartTime",
					"outputs": [
						{
							"internalType": "uint64",
							"name": "",
							"type": "uint64"
						}
					],
					"stateMutability": "view",
					"type": "function"
				},
				{
					"inputs": [],
					"name": "getUsdtAmount",
					"outputs": [
						{
							"internalType": "uint256",
							"name": "",
							"type": "uint256"
						}
					],
					"stateMutability": "view",
					"type": "function"
				},
				{
					"inputs": [
						{
							"internalType": "address",
							"name": "user",
							"type": "address"
						}
					],
					"name": "getUserHasBuy",
					"outputs": [
						{
							"internalType": "bool",
							"name": "",
							"type": "bool"
						}
					],
					"stateMutability": "view",
					"type": "function"
				},
				{
					"inputs": [
						{
							"internalType": "address",
							"name": "user",
							"type": "address"
						}
					],
					"name": "getUserInviteAirdropCoinAmount",
					"outputs": [
						{
							"internalType": "uint256",
							"name": "",
							"type": "uint256"
						}
					],
					"stateMutability": "view",
					"type": "function"
				},
				{
					"inputs": [
						{
							"internalType": "address",
							"name": "user",
							"type": "address"
						}
					],
					"name": "getUserLowers",
					"outputs": [
						{
							"internalType": "address[]",
							"name": "",
							"type": "address[]"
						}
					],
					"stateMutability": "view",
					"type": "function"
				},
				{
					"inputs": [
						{
							"internalType": "address",
							"name": "user",
							"type": "address"
						}
					],
					"name": "getUserLowersCount",
					"outputs": [
						{
							"internalType": "uint256",
							"name": "",
							"type": "uint256"
						}
					],
					"stateMutability": "view",
					"type": "function"
				},
				{
					"inputs": [
						{
							"internalType": "address",
							"name": "user",
							"type": "address"
						}
					],
					"name": "getUserUpper",
					"outputs": [
						{
							"internalType": "address",
							"name": "",
							"type": "address"
						}
					],
					"stateMutability": "view",
					"type": "function"
				},
				{
					"inputs": [
						{
							"internalType": "address",
							"name": "",
							"type": "address"
						}
					],
					"name": "hasBuy",
					"outputs": [
						{
							"internalType": "bool",
							"name": "",
							"type": "bool"
						}
					],
					"stateMutability": "view",
					"type": "function"
				},
				{
					"inputs": [
						{
							"internalType": "address",
							"name": "",
							"type": "address"
						}
					],
					"name": "inviteInfo",
					"outputs": [
						{
							"internalType": "address",
							"name": "upper",
							"type": "address"
						},
						{
							"internalType": "uint256",
							"name": "startBlock",
							"type": "uint256"
						}
					],
					"stateMutability": "view",
					"type": "function"
				},
				{
					"inputs": [],
					"name": "lowersCounter",
					"outputs": [
						{
							"internalType": "uint32",
							"name": "",
							"type": "uint32"
						}
					],
					"stateMutability": "view",
					"type": "function"
				},
				{
					"inputs": [],
					"name": "marketAddress",
					"outputs": [
						{
							"internalType": "address",
							"name": "",
							"type": "address"
						}
					],
					"stateMutability": "view",
					"type": "function"
				},
				{
					"inputs": [],
					"name": "owner",
					"outputs": [
						{
							"internalType": "address",
							"name": "",
							"type": "address"
						}
					],
					"stateMutability": "view",
					"type": "function"
				},
				{
					"inputs": [],
					"name": "presellTokenMintAddress",
					"outputs": [
						{
							"internalType": "address",
							"name": "",
							"type": "address"
						}
					],
					"stateMutability": "view",
					"type": "function"
				},
				{
					"inputs": [],
					"name": "renounceOwnership",
					"outputs": [],
					"stateMutability": "nonpayable",
					"type": "function"
				},
				{
					"inputs": [],
					"name": "sellToken",
					"outputs": [
						{
							"internalType": "contract IERC20",
							"name": "",
							"type": "address"
						}
					],
					"stateMutability": "view",
					"type": "function"
				},
				{
					"inputs": [
						{
							"internalType": "uint256",
							"name": "newAmount",
							"type": "uint256"
						}
					],
					"name": "setAmount",
					"outputs": [],
					"stateMutability": "nonpayable",
					"type": "function"
				},
				{
					"inputs": [
						{
							"internalType": "address",
							"name": "newAddress",
							"type": "address"
						}
					],
					"name": "setMarketAddress",
					"outputs": [],
					"stateMutability": "nonpayable",
					"type": "function"
				},
				{
					"inputs": [],
					"name": "startAt",
					"outputs": [
						{
							"internalType": "uint64",
							"name": "",
							"type": "uint64"
						}
					],
					"stateMutability": "view",
					"type": "function"
				},
				{
					"inputs": [
						{
							"internalType": "address",
							"name": "newOwner",
							"type": "address"
						}
					],
					"name": "transferOwnership",
					"outputs": [],
					"stateMutability": "nonpayable",
					"type": "function"
				},
				{
					"inputs": [],
					"name": "usdtAmount",
					"outputs": [
						{
							"internalType": "uint256",
							"name": "",
							"type": "uint256"
						}
					],
					"stateMutability": "view",
					"type": "function"
				},
				{
					"inputs": [],
					"name": "usdtMintAddress",
					"outputs": [
						{
							"internalType": "address",
							"name": "",
							"type": "address"
						}
					],
					"stateMutability": "view",
					"type": "function"
				},
				{
					"inputs": [],
					"name": "usdtToken",
					"outputs": [
						{
							"internalType": "contract IERC20",
							"name": "",
							"type": "address"
						}
					],
					"stateMutability": "view",
					"type": "function"
				},
				{
					"inputs": [
						{
							"internalType": "address",
							"name": "",
							"type": "address"
						}
					],
					"name": "userInviteBalancelMap",
					"outputs": [
						{
							"internalType": "bool",
							"name": "",
							"type": "bool"
						}
					],
					"stateMutability": "view",
					"type": "function"
				},
				{
					"inputs": [
						{
							"internalType": "address",
							"name": "",
							"type": "address"
						}
					],
					"name": "userPresellBalanceMap",
					"outputs": [
						{
							"internalType": "bool",
							"name": "",
							"type": "bool"
						}
					],
					"stateMutability": "view",
					"type": "function"
				},
				{
					"inputs": [],
					"name": "withdrawInviteAirdropTokens",
					"outputs": [],
					"stateMutability": "nonpayable",
					"type": "function"
				},
				{
					"inputs": [],
					"name": "withdrawPresellTokens",
					"outputs": [],
					"stateMutability": "nonpayable",
					"type": "function"
				}
			],
			"devdoc": {
				"kind": "dev",
				"methods": {
					"owner()": {
						"details": "Returns the address of the current owner."
					},
					"renounceOwnership()": {
						"details": "Leaves the contract without owner. It will not be possible to call `onlyOwner` functions anymore. Can only be called by the current owner. NOTE: Renouncing ownership will leave the contract without an owner, thereby removing any functionality that is only available to the owner."
					},
					"transferOwnership(address)": {
						"details": "Transfers ownership of the contract to a new account (`newOwner`). Can only be called by the current owner."
					}
				},
				"version": 1
			},
			"evm": {
				"assembly": "    /* \"msc_token/BeePresell.sol\":2649:7635  contract UsdtPresell is Ownable {... */\n  mstore(0x40, 0xc0)\n    /* \"msc_token/BeePresell.sol\":2884:2959  address public usdtMintAddress = 0xEdA5dA0050e21e9E34fadb1075986Af1370c7BDb */\n  0x01\n  dup1\n  sload\n  not(sub(shl(0xa0, 0x01), 0x01))\n  swap1\n  dup2\n  and\n    /* \"msc_token/BeePresell.sol\":2917:2959  0xEdA5dA0050e21e9E34fadb1075986Af1370c7BDb */\n  0xeda5da0050e21e9e34fadb1075986af1370c7bdb\n    /* \"msc_token/BeePresell.sol\":2884:2959  address public usdtMintAddress = 0xEdA5dA0050e21e9E34fadb1075986Af1370c7BDb */\n  or\n  swap1\n  swap2\n  sstore\n    /* \"msc_token/BeePresell.sol\":2966:3049  address public presellTokenMintAddress = 0x978990b8Cc2636Fc159cE6f40b9c5CC7AA0623a6 */\n  0x02\n  dup1\n  sload\n  dup3\n  and\n    /* \"msc_token/BeePresell.sol\":3007:3049  0x978990b8Cc2636Fc159cE6f40b9c5CC7AA0623a6 */\n  0x978990b8cc2636fc159ce6f40b9c5cc7aa0623a6\n    /* \"msc_token/BeePresell.sol\":2966:3049  address public presellTokenMintAddress = 0x978990b8Cc2636Fc159cE6f40b9c5CC7AA0623a6 */\n  or\n  swap1\n  sstore\n    /* \"msc_token/BeePresell.sol\":3056:3129  address public marketAddress = 0xe3e90697218F31B8d0867b8A9c52947D3c888339 */\n  0x03\n  dup1\n  sload\n  swap1\n  swap2\n  and\n    /* \"msc_token/BeePresell.sol\":3087:3129  0xe3e90697218F31B8d0867b8A9c52947D3c888339 */\n  0xe3e90697218f31b8d0867b8a9c52947d3c888339\n    /* \"msc_token/BeePresell.sol\":3056:3129  address public marketAddress = 0xe3e90697218F31B8d0867b8A9c52947D3c888339 */\n  or\n  swap1\n  sstore\n    /* \"msc_token/BeePresell.sol\":3164:3176  1 * 10 ** 18 */\n  0x0de0b6b3a7640000\n    /* \"msc_token/BeePresell.sol\":3136:3176  uint256 public usdtAmount = 1 * 10 ** 18 */\n  0x04\n  sstore\n    /* \"msc_token/BeePresell.sol\":3219:3237  4608000 * 10 ** 18 */\n  0x03cfc82e37e9a740000000\n    /* \"msc_token/BeePresell.sol\":3183:3237  uint256 private preSellCoinAmount = 4608000 * 10 ** 18 */\n  0x05\n  sstore\n    /* \"msc_token/BeePresell.sol\":3286:3303  409600 * 10 ** 18 */\n  0x56bc75e2d63100000000\n    /* \"msc_token/BeePresell.sol\":3244:3303  uint256 private inviteAirdropCoinAmount = 409600 * 10 ** 18 */\n  0x06\n  sstore\n    /* \"msc_token/BeePresell.sol\":3730:4091  constructor(... */\n  callvalue\n  dup1\n  iszero\n  tag_1\n  jumpi\n  0x00\n  dup1\n  revert\ntag_1:\n  pop\n  mload(0x40)\n  sub(codesize, bytecodeSize)\n  dup1\n  bytecodeSize\n  dup4\n  codecopy\n  dup2\n  add\n  0x40\n  dup2\n  swap1\n  mstore\n  tag_2\n  swap2\n  tag_3\n  jump\t// in\ntag_2:\n    /* \"msc_token/BeePresell.sol\":1060:1092  _transferOwnership(_msgSender()) */\n  tag_7\n    /* \"msc_token/BeePresell.sol\":635:645  msg.sender */\n  caller\n    /* \"msc_token/BeePresell.sol\":1060:1078  _transferOwnership */\n  tag_10\n    /* \"msc_token/BeePresell.sol\":1060:1092  _transferOwnership(_msgSender()) */\n  jump\t// in\ntag_7:\n    /* \"msc_token/BeePresell.sol\":3834:3849  block.timestamp */\n  timestamp\n    /* \"msc_token/BeePresell.sol\":3822:3830  _startAt */\n  dup3\n  sub(shl(0x40, 0x01), 0x01)\n    /* \"msc_token/BeePresell.sol\":3822:3849  _startAt >= block.timestamp */\n  and\n  lt\n  iszero\n    /* \"msc_token/BeePresell.sol\":3814:3868  require(_startAt >= block.timestamp, \"start at < now\") */\n  tag_12\n  jumpi\n  mload(0x40)\n  shl(0xe5, 0x461bcd)\n  dup2\n  mstore\n    /* \"#utility.yul\":690:692   */\n  0x20\n    /* \"msc_token/BeePresell.sol\":3814:3868  require(_startAt >= block.timestamp, \"start at < now\") */\n  0x04\n  dup3\n  add\n    /* \"#utility.yul\":672:693   */\n  mstore\n    /* \"#utility.yul\":729:731   */\n  0x0e\n    /* \"#utility.yul\":709:727   */\n  0x24\n  dup3\n  add\n    /* \"#utility.yul\":702:732   */\n  mstore\n  shl(0x90, 0x7374617274206174203c206e6f77)\n    /* \"#utility.yul\":748:766   */\n  0x44\n  dup3\n  add\n    /* \"#utility.yul\":741:785   */\n  mstore\n    /* \"#utility.yul\":802:820   */\n  0x64\n  add\n    /* \"msc_token/BeePresell.sol\":3814:3868  require(_startAt >= block.timestamp, \"start at < now\") */\ntag_13:\n  mload(0x40)\n  dup1\n  swap2\n  sub\n  swap1\n  revert\ntag_12:\n    /* \"msc_token/BeePresell.sol\":3897:3905  _startAt */\n  dup2\n  sub(shl(0x40, 0x01), 0x01)\n    /* \"msc_token/BeePresell.sol\":3887:3905  _endAt >= _startAt */\n  and\n    /* \"msc_token/BeePresell.sol\":3887:3893  _endAt */\n  dup2\n  sub(shl(0x40, 0x01), 0x01)\n    /* \"msc_token/BeePresell.sol\":3887:3905  _endAt >= _startAt */\n  and\n  lt\n  iszero\n    /* \"msc_token/BeePresell.sol\":3879:3927  require(_endAt >= _startAt, \"end at < start at\") */\n  tag_15\n  jumpi\n  mload(0x40)\n  shl(0xe5, 0x461bcd)\n  dup2\n  mstore\n    /* \"#utility.yul\":1033:1035   */\n  0x20\n    /* \"msc_token/BeePresell.sol\":3879:3927  require(_endAt >= _startAt, \"end at < start at\") */\n  0x04\n  dup3\n  add\n    /* \"#utility.yul\":1015:1036   */\n  mstore\n    /* \"#utility.yul\":1072:1074   */\n  0x11\n    /* \"#utility.yul\":1052:1070   */\n  0x24\n  dup3\n  add\n    /* \"#utility.yul\":1045:1075   */\n  mstore\n  shl(0x7a, 0x195b9908185d080f081cdd185c9d08185d)\n    /* \"#utility.yul\":1091:1109   */\n  0x44\n  dup3\n  add\n    /* \"#utility.yul\":1084:1131   */\n  mstore\n    /* \"#utility.yul\":1148:1166   */\n  0x64\n  add\n    /* \"msc_token/BeePresell.sol\":3879:3927  require(_endAt >= _startAt, \"end at < start at\") */\n  tag_13\n    /* \"#utility.yul\":831:1172   */\n  jump\n    /* \"msc_token/BeePresell.sol\":3879:3927  require(_endAt >= _startAt, \"end at < start at\") */\ntag_15:\n    /* \"msc_token/BeePresell.sol\":3940:3947  startAt */\n  0x0c\n    /* \"msc_token/BeePresell.sol\":3940:3958  startAt = _startAt */\n  dup1\n  sload\n  sub(shl(0x40, 0x01), 0x01)\n    /* \"msc_token/BeePresell.sol\":3969:3983  endAt = _endAt */\n  swap3\n  dup4\n  and\n  0x010000000000000000\n  mul\n  not(sub(shl(0x80, 0x01), 0x01))\n  swap1\n  swap2\n  and\n    /* \"msc_token/BeePresell.sol\":3940:3958  startAt = _startAt */\n  swap3\n  swap1\n  swap4\n  and\n    /* \"msc_token/BeePresell.sol\":3969:3983  endAt = _endAt */\n  swap2\n  swap1\n  swap2\n  or\n  swap2\n  swap1\n  swap2\n  or\n  swap1\n  sstore\n    /* \"msc_token/BeePresell.sol\":3940:3958  startAt = _startAt */\n  0x01\n    /* \"msc_token/BeePresell.sol\":4013:4028  usdtMintAddress */\n  sload\n  sub(shl(0xa0, 0x01), 0x01)\n  swap1\n  dup2\n  and\n    /* \"msc_token/BeePresell.sol\":3994:4029  usdtToken = IERC20(usdtMintAddress) */\n  0x80\n  mstore\n    /* \"msc_token/BeePresell.sol\":4059:4082  presellTokenMintAddress */\n  sload(0x02)\n  and\n    /* \"msc_token/BeePresell.sol\":4040:4083  sellToken = IERC20(presellTokenMintAddress) */\n  0xa0\n  mstore\n    /* \"msc_token/BeePresell.sol\":2649:7635  contract UsdtPresell is Ownable {... */\n  jump(tag_22)\n    /* \"msc_token/BeePresell.sol\":2451:2642  function _transferOwnership(address newOwner) internal virtual {... */\ntag_10:\n    /* \"msc_token/BeePresell.sol\":2525:2541  address oldOwner */\n  0x00\n    /* \"msc_token/BeePresell.sol\":2544:2550  _owner */\n  dup1\n  sload\n  sub(shl(0xa0, 0x01), 0x01)\n    /* \"msc_token/BeePresell.sol\":2561:2578  _owner = newOwner */\n  dup4\n  dup2\n  and\n  not(sub(shl(0xa0, 0x01), 0x01))\n  dup4\n  and\n  dup2\n  or\n  dup5\n  sstore\n    /* \"msc_token/BeePresell.sol\":2594:2634  OwnershipTransferred(oldOwner, newOwner) */\n  mload(0x40)\n    /* \"msc_token/BeePresell.sol\":2544:2550  _owner */\n  swap2\n  swap1\n  swap3\n  and\n  swap3\n  dup4\n  swap2\n    /* \"msc_token/BeePresell.sol\":2594:2634  OwnershipTransferred(oldOwner, newOwner) */\n  0x8be0079c531659141344cd1fd0a4f28419497f9722a3daafe3b4186f6b6457e0\n  swap2\n    /* \"msc_token/BeePresell.sol\":2525:2541  address oldOwner */\n  swap1\n    /* \"msc_token/BeePresell.sol\":2594:2634  OwnershipTransferred(oldOwner, newOwner) */\n  log3\n    /* \"msc_token/BeePresell.sol\":2514:2642  {... */\n  pop\n    /* \"msc_token/BeePresell.sol\":2451:2642  function _transferOwnership(address newOwner) internal virtual {... */\n  pop\n  jump\t// out\n    /* \"#utility.yul\":14:189   */\ntag_21:\n    /* \"#utility.yul\":92:105   */\n  dup1\n  mload\n  sub(shl(0x40, 0x01), 0x01)\n    /* \"#utility.yul\":134:164   */\n  dup2\n  and\n    /* \"#utility.yul\":124:165   */\n  dup2\n  eq\n    /* \"#utility.yul\":114:183   */\n  tag_24\n  jumpi\n    /* \"#utility.yul\":179:180   */\n  0x00\n    /* \"#utility.yul\":176:177   */\n  dup1\n    /* \"#utility.yul\":169:181   */\n  revert\n    /* \"#utility.yul\":114:183   */\ntag_24:\n    /* \"#utility.yul\":14:189   */\n  swap2\n  swap1\n  pop\n  jump\t// out\n    /* \"#utility.yul\":194:483   */\ntag_3:\n    /* \"#utility.yul\":271:277   */\n  0x00\n    /* \"#utility.yul\":279:285   */\n  dup1\n    /* \"#utility.yul\":332:334   */\n  0x40\n    /* \"#utility.yul\":320:329   */\n  dup4\n    /* \"#utility.yul\":311:318   */\n  dup6\n    /* \"#utility.yul\":307:330   */\n  sub\n    /* \"#utility.yul\":303:335   */\n  slt\n    /* \"#utility.yul\":300:352   */\n  iszero\n  tag_26\n  jumpi\n    /* \"#utility.yul\":348:349   */\n  0x00\n    /* \"#utility.yul\":345:346   */\n  dup1\n    /* \"#utility.yul\":338:350   */\n  revert\n    /* \"#utility.yul\":300:352   */\ntag_26:\n    /* \"#utility.yul\":371:410   */\n  tag_27\n    /* \"#utility.yul\":400:409   */\n  dup4\n    /* \"#utility.yul\":371:410   */\n  tag_21\n  jump\t// in\ntag_27:\n    /* \"#utility.yul\":361:410   */\n  swap2\n  pop\n    /* \"#utility.yul\":429:477   */\n  tag_28\n    /* \"#utility.yul\":473:475   */\n  0x20\n    /* \"#utility.yul\":462:471   */\n  dup5\n    /* \"#utility.yul\":458:476   */\n  add\n    /* \"#utility.yul\":429:477   */\n  tag_21\n  jump\t// in\ntag_28:\n    /* \"#utility.yul\":419:477   */\n  swap1\n  pop\n    /* \"#utility.yul\":194:483   */\n  swap3\n  pop\n  swap3\n  swap1\n  pop\n  jump\t// out\n    /* \"#utility.yul\":831:1172   */\ntag_22:\n    /* \"msc_token/BeePresell.sol\":2649:7635  contract UsdtPresell is Ownable {... */\n  mload(0x80)\n  mload(0xa0)\n  codecopy(0x00, dataOffset(sub_0), dataSize(sub_0))\n  0x00\n  assignImmutable(\"0x67df77adbc271f558df88504cf3a3f87bfdd2d55b11e86c55c4fd978a935a836\")\n  0x00\n  assignImmutable(\"0xe08e88a25615b4c12f541ce925bac971d7abccd8956f0630ea12130df02d5898\")\n  return(0x00, dataSize(sub_0))\nstop\n\nsub_0: assembly {\n        /* \"msc_token/BeePresell.sol\":2649:7635  contract UsdtPresell is Ownable {... */\n      mstore(0x40, 0x80)\n      callvalue\n      dup1\n      iszero\n      tag_1\n      jumpi\n      0x00\n      dup1\n      revert\n    tag_1:\n      pop\n      jumpi(tag_2, lt(calldatasize, 0x04))\n      shr(0xe0, calldataload(0x00))\n      dup1\n      0x95623641\n      gt\n      tag_37\n      jumpi\n      dup1\n      0xc828371e\n      gt\n      tag_38\n      jumpi\n      dup1\n      0xd35cde41\n      gt\n      tag_39\n      jumpi\n      dup1\n      0xd35cde41\n      eq\n      tag_32\n      jumpi\n      dup1\n      0xe4eef896\n      eq\n      tag_33\n      jumpi\n      dup1\n      0xf01fc57c\n      eq\n      tag_34\n      jumpi\n      dup1\n      0xf2fde38b\n      eq\n      tag_35\n      jumpi\n      dup1\n      0xfae92612\n      eq\n      tag_36\n      jumpi\n      0x00\n      dup1\n      revert\n    tag_39:\n      dup1\n      0xc828371e\n      eq\n      tag_28\n      jumpi\n      dup1\n      0xc9ede793\n      eq\n      tag_29\n      jumpi\n      dup1\n      0xd0febe4c\n      eq\n      tag_30\n      jumpi\n      dup1\n      0xd139f56d\n      eq\n      tag_31\n      jumpi\n      0x00\n      dup1\n      revert\n    tag_38:\n      dup1\n      0xa98b9144\n      gt\n      tag_40\n      jumpi\n      dup1\n      0xa98b9144\n      eq\n      tag_24\n      jumpi\n      dup1\n      0xb9f9231a\n      eq\n      tag_25\n      jumpi\n      dup1\n      0xc556feca\n      eq\n      tag_26\n      jumpi\n      dup1\n      0xc7446565\n      eq\n      tag_27\n      jumpi\n      0x00\n      dup1\n      revert\n    tag_40:\n      dup1\n      0x95623641\n      eq\n      tag_20\n      jumpi\n      dup1\n      0x9769f0b0\n      eq\n      tag_21\n      jumpi\n      dup1\n      0x9e2a0418\n      eq\n      tag_22\n      jumpi\n      dup1\n      0xa98ad46c\n      eq\n      tag_23\n      jumpi\n      0x00\n      dup1\n      revert\n    tag_37:\n      dup1\n      0x6531e61c\n      gt\n      tag_41\n      jumpi\n      dup1\n      0x7cc3ae8c\n      gt\n      tag_42\n      jumpi\n      dup1\n      0x7cc3ae8c\n      eq\n      tag_15\n      jumpi\n      dup1\n      0x88af60c6\n      eq\n      tag_16\n      jumpi\n      dup1\n      0x8da5cb5b\n      eq\n      tag_17\n      jumpi\n      dup1\n      0x9018c818\n      eq\n      tag_18\n      jumpi\n      dup1\n      0x90f5881a\n      eq\n      tag_19\n      jumpi\n      0x00\n      dup1\n      revert\n    tag_42:\n      dup1\n      0x6531e61c\n      eq\n      tag_11\n      jumpi\n      dup1\n      0x6de34ce0\n      eq\n      tag_12\n      jumpi\n      dup1\n      0x715018a6\n      eq\n      tag_13\n      jumpi\n      dup1\n      0x78eb6c6f\n      eq\n      tag_14\n      jumpi\n      0x00\n      dup1\n      revert\n    tag_41:\n      dup1\n      0x374eedef\n      gt\n      tag_43\n      jumpi\n      dup1\n      0x374eedef\n      eq\n      tag_7\n      jumpi\n      dup1\n      0x3d719da7\n      eq\n      tag_8\n      jumpi\n      dup1\n      0x439f5ac2\n      eq\n      tag_9\n      jumpi\n      dup1\n      0x61bc221a\n      eq\n      tag_10\n      jumpi\n      0x00\n      dup1\n      revert\n    tag_43:\n      dup1\n      0x027734fa\n      eq\n      tag_3\n      jumpi\n      dup1\n      0x1eb43f1a\n      eq\n      tag_4\n      jumpi\n      dup1\n      0x271f88b4\n      eq\n      tag_5\n      jumpi\n      dup1\n      0x304d8dea\n      eq\n      tag_6\n      jumpi\n    tag_2:\n      0x00\n      dup1\n      revert\n        /* \"msc_token/BeePresell.sol\":2966:3049  address public presellTokenMintAddress = 0x978990b8Cc2636Fc159cE6f40b9c5CC7AA0623a6 */\n    tag_3:\n      sload(0x02)\n      tag_44\n      swap1\n      sub(shl(0xa0, 0x01), 0x01)\n      and\n      dup2\n      jump\n    tag_44:\n      mload(0x40)\n      sub(shl(0xa0, 0x01), 0x01)\n        /* \"#utility.yul\":178:210   */\n      swap1\n      swap2\n      and\n        /* \"#utility.yul\":160:211   */\n      dup2\n      mstore\n        /* \"#utility.yul\":148:150   */\n      0x20\n        /* \"#utility.yul\":133:151   */\n      add\n        /* \"msc_token/BeePresell.sol\":2966:3049  address public presellTokenMintAddress = 0x978990b8Cc2636Fc159cE6f40b9c5CC7AA0623a6 */\n    tag_46:\n      mload(0x40)\n      dup1\n      swap2\n      sub\n      swap1\n      return\n        /* \"msc_token/BeePresell.sol\":3372:3418  mapping(address => UserInfo) public inviteInfo */\n    tag_4:\n      tag_48\n      tag_49\n      calldatasize\n      0x04\n      tag_50\n      jump\t// in\n    tag_49:\n      mstore(0x20, 0x08)\n      0x00\n      swap1\n      dup2\n      mstore\n      0x40\n      swap1\n      keccak256\n      dup1\n      sload\n      0x02\n      swap1\n      swap2\n      add\n      sload\n      sub(shl(0xa0, 0x01), 0x01)\n      swap1\n      swap2\n      and\n      swap1\n      dup3\n      jump\n    tag_48:\n      0x40\n      dup1\n      mload\n      sub(shl(0xa0, 0x01), 0x01)\n        /* \"#utility.yul\":705:737   */\n      swap1\n      swap4\n      and\n        /* \"#utility.yul\":687:738   */\n      dup4\n      mstore\n        /* \"#utility.yul\":769:771   */\n      0x20\n        /* \"#utility.yul\":754:772   */\n      dup4\n      add\n        /* \"#utility.yul\":747:781   */\n      swap2\n      swap1\n      swap2\n      mstore\n        /* \"#utility.yul\":660:678   */\n      add\n        /* \"msc_token/BeePresell.sol\":3372:3418  mapping(address => UserInfo) public inviteInfo */\n      tag_46\n        /* \"#utility.yul\":513:787   */\n      jump\n        /* \"msc_token/BeePresell.sol\":7536:7632  function setAmount(uint256 newAmount) public onlyOwner {... */\n    tag_5:\n      tag_54\n      tag_55\n      calldatasize\n      0x04\n      tag_56\n      jump\t// in\n    tag_55:\n      tag_57\n      jump\t// in\n    tag_54:\n      stop\n        /* \"msc_token/BeePresell.sol\":6821:7221  function withdrawInviteAirdropTokens() public {... */\n    tag_6:\n      tag_54\n      tag_59\n      jump\t// in\n        /* \"msc_token/BeePresell.sol\":4693:4795  function getUserHasBuy(address user) public view returns (bool) {... */\n    tag_7:\n      tag_60\n      tag_61\n      calldatasize\n      0x04\n      tag_50\n      jump\t// in\n    tag_61:\n      sub(shl(0xa0, 0x01), 0x01)\n        /* \"msc_token/BeePresell.sol\":4775:4787  hasBuy[user] */\n      and\n        /* \"msc_token/BeePresell.sol\":4751:4755  bool */\n      0x00\n        /* \"msc_token/BeePresell.sol\":4775:4787  hasBuy[user] */\n      swap1\n      dup2\n      mstore\n        /* \"msc_token/BeePresell.sol\":4775:4781  hasBuy */\n      0x0b\n        /* \"msc_token/BeePresell.sol\":4775:4787  hasBuy[user] */\n      0x20\n      mstore\n      0x40\n      swap1\n      keccak256\n      sload\n      0xff\n      and\n      swap1\n        /* \"msc_token/BeePresell.sol\":4693:4795  function getUserHasBuy(address user) public view returns (bool) {... */\n      jump\n    tag_60:\n      mload(0x40)\n        /* \"#utility.yul\":1142:1156   */\n      swap1\n      iszero\n        /* \"#utility.yul\":1135:1157   */\n      iszero\n        /* \"#utility.yul\":1117:1158   */\n      dup2\n      mstore\n        /* \"#utility.yul\":1105:1107   */\n      0x20\n        /* \"#utility.yul\":1090:1108   */\n      add\n        /* \"msc_token/BeePresell.sol\":4693:4795  function getUserHasBuy(address user) public view returns (bool) {... */\n      tag_46\n        /* \"#utility.yul\":977:1164   */\n      jump\n        /* \"msc_token/BeePresell.sol\":3627:3665  mapping(address => bool) public hasBuy */\n    tag_8:\n      tag_60\n      tag_66\n      calldatasize\n      0x04\n      tag_50\n      jump\t// in\n    tag_66:\n      mstore(0x20, 0x0b)\n      0x00\n      swap1\n      dup2\n      mstore\n      0x40\n      swap1\n      keccak256\n      sload\n      0xff\n      and\n      dup2\n      jump\n        /* \"msc_token/BeePresell.sol\":4603:4685  function getEndTime() public view returns (uint64) {... */\n    tag_9:\n        /* \"msc_token/BeePresell.sol\":4672:4677  endAt */\n      sload(0x0c)\n      shl(0x40, 0x01)\n      swap1\n      div\n      0xffffffffffffffff\n      and\n        /* \"msc_token/BeePresell.sol\":4603:4685  function getEndTime() public view returns (uint64) {... */\n    tag_69:\n      mload(0x40)\n        /* \"#utility.yul\":1343:1361   */\n      0xffffffffffffffff\n        /* \"#utility.yul\":1331:1362   */\n      swap1\n      swap2\n      and\n        /* \"#utility.yul\":1313:1363   */\n      dup2\n      mstore\n        /* \"#utility.yul\":1301:1303   */\n      0x20\n        /* \"#utility.yul\":1286:1304   */\n      add\n        /* \"msc_token/BeePresell.sol\":4603:4685  function getEndTime() public view returns (uint64) {... */\n      tag_46\n        /* \"#utility.yul\":1169:1369   */\n      jump\n        /* \"msc_token/BeePresell.sol\":3310:3331  uint32 public counter */\n    tag_10:\n      sload(0x07)\n      tag_73\n      swap1\n      0xffffffff\n      and\n      dup2\n      jump\n    tag_73:\n      mload(0x40)\n        /* \"#utility.yul\":1548:1558   */\n      0xffffffff\n        /* \"#utility.yul\":1536:1559   */\n      swap1\n      swap2\n      and\n        /* \"#utility.yul\":1518:1560   */\n      dup2\n      mstore\n        /* \"#utility.yul\":1506:1508   */\n      0x20\n        /* \"#utility.yul\":1491:1509   */\n      add\n        /* \"msc_token/BeePresell.sol\":3310:3331  uint32 public counter */\n      tag_46\n        /* \"#utility.yul\":1374:1566   */\n      jump\n        /* \"msc_token/BeePresell.sol\":7229:7406  function exigencyWithdraw(uint256 amount) public onlyOwner {... */\n    tag_11:\n      tag_54\n      tag_78\n      calldatasize\n      0x04\n      tag_56\n      jump\t// in\n    tag_78:\n      tag_79\n      jump\t// in\n        /* \"msc_token/BeePresell.sol\":3338:3365  uint32 public lowersCounter */\n    tag_12:\n      sload(0x07)\n      tag_73\n      swap1\n      0x0100000000\n      swap1\n      div\n      0xffffffff\n      and\n      dup2\n      jump\n        /* \"msc_token/BeePresell.sol\":1832:1935  function renounceOwnership() public virtual onlyOwner {... */\n    tag_13:\n      tag_54\n      tag_84\n      jump\t// in\n        /* \"msc_token/BeePresell.sol\":4198:4311  function getPreSellCoinAmount() public view returns (uint256) {... */\n    tag_14:\n      tag_85\n      tag_86\n      jump\t// in\n    tag_85:\n      mload(0x40)\n        /* \"#utility.yul\":1717:1742   */\n      swap1\n      dup2\n      mstore\n        /* \"#utility.yul\":1705:1707   */\n      0x20\n        /* \"#utility.yul\":1690:1708   */\n      add\n        /* \"msc_token/BeePresell.sol\":4198:4311  function getPreSellCoinAmount() public view returns (uint256) {... */\n      tag_46\n        /* \"#utility.yul\":1571:1748   */\n      jump\n        /* \"msc_token/BeePresell.sol\":3702:3721  uint64 public endAt */\n    tag_15:\n      sload(0x0c)\n      tag_69\n      swap1\n      shl(0x40, 0x01)\n      swap1\n      div\n      0xffffffffffffffff\n      and\n      dup2\n      jump\n        /* \"msc_token/BeePresell.sol\":2884:2959  address public usdtMintAddress = 0xEdA5dA0050e21e9E34fadb1075986Af1370c7BDb */\n    tag_16:\n      sload(0x01)\n      tag_44\n      swap1\n      sub(shl(0xa0, 0x01), 0x01)\n      and\n      dup2\n      jump\n        /* \"msc_token/BeePresell.sol\":1181:1268  function owner() public view virtual returns (address) {... */\n    tag_17:\n        /* \"msc_token/BeePresell.sol\":1227:1234  address */\n      0x00\n        /* \"msc_token/BeePresell.sol\":1254:1260  _owner */\n      sload\n      sub(shl(0xa0, 0x01), 0x01)\n      and\n        /* \"msc_token/BeePresell.sol\":1181:1268  function owner() public view virtual returns (address) {... */\n      jump(tag_44)\n        /* \"msc_token/BeePresell.sol\":5293:5856  function acceptInvitation(address _inviter) public returns (bool) {... */\n    tag_18:\n      tag_60\n      tag_99\n      calldatasize\n      0x04\n      tag_50\n      jump\t// in\n    tag_99:\n      tag_100\n      jump\t// in\n        /* \"msc_token/BeePresell.sol\":3507:3560  mapping(address => bool) public userPresellBalanceMap */\n    tag_19:\n      tag_60\n      tag_103\n      calldatasize\n      0x04\n      tag_50\n      jump\t// in\n    tag_103:\n      mstore(0x20, 0x09)\n      0x00\n      swap1\n      dup2\n      mstore\n      0x40\n      swap1\n      keccak256\n      sload\n      0xff\n      and\n      dup2\n      jump\n        /* \"msc_token/BeePresell.sol\":3056:3129  address public marketAddress = 0xe3e90697218F31B8d0867b8A9c52947D3c888339 */\n    tag_20:\n      sload(0x03)\n      tag_44\n      swap1\n      sub(shl(0xa0, 0x01), 0x01)\n      and\n      dup2\n      jump\n        /* \"msc_token/BeePresell.sol\":3467:3500  IERC20 public immutable sellToken */\n    tag_21:\n      tag_44\n      immutable(\"0x67df77adbc271f558df88504cf3a3f87bfdd2d55b11e86c55c4fd978a935a836\")\n      dup2\n      jump\n        /* \"msc_token/BeePresell.sol\":3567:3620  mapping(address => bool) public userInviteBalancelMap */\n    tag_22:\n      tag_60\n      tag_114\n      calldatasize\n      0x04\n      tag_50\n      jump\t// in\n    tag_114:\n      mstore(0x20, 0x0a)\n      0x00\n      swap1\n      dup2\n      mstore\n      0x40\n      swap1\n      keccak256\n      sload\n      0xff\n      and\n      dup2\n      jump\n        /* \"msc_token/BeePresell.sol\":3427:3460  IERC20 public immutable usdtToken */\n    tag_23:\n      tag_44\n      immutable(\"0xe08e88a25615b4c12f541ce925bac971d7abccd8956f0630ea12130df02d5898\")\n      dup2\n      jump\n        /* \"msc_token/BeePresell.sol\":5038:5163  function getUserLowers(address user) public view returns (address[] memory) {... */\n    tag_24:\n      tag_120\n      tag_121\n      calldatasize\n      0x04\n      tag_50\n      jump\t// in\n    tag_121:\n      tag_122\n      jump\t// in\n    tag_120:\n      mload(0x40)\n      tag_46\n      swap2\n      swap1\n      tag_124\n      jump\t// in\n        /* \"msc_token/BeePresell.sol\":4319:4501  function getUserInviteAirdropCoinAmount(address user) public view returns (uint256) {... */\n    tag_25:\n      tag_85\n      tag_126\n      calldatasize\n      0x04\n      tag_50\n      jump\t// in\n    tag_126:\n      tag_127\n      jump\t// in\n        /* \"msc_token/BeePresell.sol\":4902:5030  function getUserLowersCount(address user) public view returns (uint256) {... */\n    tag_26:\n      tag_85\n      tag_130\n      calldatasize\n      0x04\n      tag_50\n      jump\t// in\n    tag_130:\n      sub(shl(0xa0, 0x01), 0x01)\n        /* \"msc_token/BeePresell.sol\":4992:5008  inviteInfo[user] */\n      and\n        /* \"msc_token/BeePresell.sol\":4965:4972  uint256 */\n      0x00\n        /* \"msc_token/BeePresell.sol\":4992:5008  inviteInfo[user] */\n      swap1\n      dup2\n      mstore\n        /* \"msc_token/BeePresell.sol\":4992:5002  inviteInfo */\n      0x08\n        /* \"msc_token/BeePresell.sol\":4992:5008  inviteInfo[user] */\n      0x20\n      mstore\n      0x40\n      swap1\n      keccak256\n        /* \"msc_token/BeePresell.sol\":4992:5015  inviteInfo[user].lowers */\n      0x01\n      add\n        /* \"msc_token/BeePresell.sol\":4992:5022  inviteInfo[user].lowers.length */\n      sload\n      swap1\n        /* \"msc_token/BeePresell.sol\":4902:5030  function getUserLowersCount(address user) public view returns (uint256) {... */\n      jump\n        /* \"msc_token/BeePresell.sol\":3674:3695  uint64 public startAt */\n    tag_27:\n      sload(0x0c)\n      tag_69\n      swap1\n      0xffffffffffffffff\n      and\n      dup2\n      jump\n        /* \"msc_token/BeePresell.sol\":4509:4595  function getStartTime() public view returns (uint64) {... */\n    tag_28:\n        /* \"msc_token/BeePresell.sol\":4580:4587  startAt */\n      and(0xffffffffffffffff, sload(0x0c))\n        /* \"msc_token/BeePresell.sol\":4509:4595  function getStartTime() public view returns (uint64) {... */\n      jump(tag_69)\n        /* \"msc_token/BeePresell.sol\":6438:6813  function withdrawPresellTokens() public {... */\n    tag_29:\n      tag_54\n      tag_140\n      jump\t// in\n        /* \"msc_token/BeePresell.sol\":5864:6430  function buyTokens() public {... */\n    tag_30:\n      tag_54\n      tag_142\n      jump\t// in\n        /* \"msc_token/BeePresell.sol\":5171:5285  function getUserUpper(address user) public view returns (address) {... */\n    tag_31:\n      tag_44\n      tag_144\n      calldatasize\n      0x04\n      tag_50\n      jump\t// in\n    tag_144:\n      sub(shl(0xa0, 0x01), 0x01)\n        /* \"msc_token/BeePresell.sol\":5255:5271  inviteInfo[user] */\n      swap1\n      dup2\n      and\n        /* \"msc_token/BeePresell.sol\":5228:5235  address */\n      0x00\n        /* \"msc_token/BeePresell.sol\":5255:5271  inviteInfo[user] */\n      swap1\n      dup2\n      mstore\n        /* \"msc_token/BeePresell.sol\":5255:5265  inviteInfo */\n      0x08\n        /* \"msc_token/BeePresell.sol\":5255:5271  inviteInfo[user] */\n      0x20\n      mstore\n      0x40\n      swap1\n      keccak256\n        /* \"msc_token/BeePresell.sol\":5255:5277  inviteInfo[user].upper */\n      sload\n      and\n      swap1\n        /* \"msc_token/BeePresell.sol\":5171:5285  function getUserUpper(address user) public view returns (address) {... */\n      jump\n        /* \"msc_token/BeePresell.sol\":4099:4190  function getUsdtAmount() public view returns (uint256) {... */\n    tag_32:\n        /* \"msc_token/BeePresell.sol\":4172:4182  usdtAmount */\n      sload(0x04)\n        /* \"msc_token/BeePresell.sol\":4099:4190  function getUsdtAmount() public view returns (uint256) {... */\n      jump(tag_85)\n        /* \"msc_token/BeePresell.sol\":3136:3176  uint256 public usdtAmount = 1 * 10 ** 18 */\n    tag_33:\n      tag_85\n      sload(0x04)\n      dup2\n      jump\n        /* \"msc_token/BeePresell.sol\":4803:4894  function getPreSellCounter() public view returns (uint64) {... */\n    tag_34:\n        /* \"msc_token/BeePresell.sol\":4879:4886  counter */\n      and(0xffffffff, sload(0x07))\n        /* \"msc_token/BeePresell.sol\":4803:4894  function getPreSellCounter() public view returns (uint64) {... */\n      jump(tag_69)\n        /* \"msc_token/BeePresell.sol\":2090:2291  function transferOwnership(address newOwner) public virtual onlyOwner {... */\n    tag_35:\n      tag_54\n      tag_157\n      calldatasize\n      0x04\n      tag_50\n      jump\t// in\n    tag_157:\n      tag_158\n      jump\t// in\n        /* \"msc_token/BeePresell.sol\":7414:7522  function setMarketAddress(address newAddress) public onlyOwner {... */\n    tag_36:\n      tag_54\n      tag_160\n      calldatasize\n      0x04\n      tag_50\n      jump\t// in\n    tag_160:\n      tag_161\n      jump\t// in\n        /* \"msc_token/BeePresell.sol\":7536:7632  function setAmount(uint256 newAmount) public onlyOwner {... */\n    tag_57:\n        /* \"msc_token/BeePresell.sol\":1227:1234  address */\n      0x00\n        /* \"msc_token/BeePresell.sol\":1254:1260  _owner */\n      sload\n      sub(shl(0xa0, 0x01), 0x01)\n      and\n        /* \"msc_token/BeePresell.sol\":635:645  msg.sender */\n      caller\n        /* \"msc_token/BeePresell.sol\":1401:1424  owner() == _msgSender() */\n      eq\n        /* \"msc_token/BeePresell.sol\":1393:1461  require(owner() == _msgSender(), \"Ownable: caller is not the owner\") */\n      tag_166\n      jumpi\n      mload(0x40)\n      shl(0xe5, 0x461bcd)\n      dup2\n      mstore\n      0x04\n      add\n      tag_167\n      swap1\n      tag_168\n      jump\t// in\n    tag_167:\n      mload(0x40)\n      dup1\n      swap2\n      sub\n      swap1\n      revert\n    tag_166:\n        /* \"msc_token/BeePresell.sol\":7602:7612  usdtAmount */\n      0x04\n        /* \"msc_token/BeePresell.sol\":7602:7624  usdtAmount = newAmount */\n      sstore\n        /* \"msc_token/BeePresell.sol\":7536:7632  function setAmount(uint256 newAmount) public onlyOwner {... */\n      jump\t// out\n        /* \"msc_token/BeePresell.sol\":6821:7221  function withdrawInviteAirdropTokens() public {... */\n    tag_59:\n        /* \"msc_token/BeePresell.sol\":6886:6891  endAt */\n      sload(0x0c)\n        /* \"msc_token/BeePresell.sol\":6894:6909  block.timestamp */\n      timestamp\n      shl(0x40, 0x01)\n        /* \"msc_token/BeePresell.sol\":6886:6891  endAt */\n      swap1\n      swap2\n      div\n      0xffffffffffffffff\n      and\n        /* \"msc_token/BeePresell.sol\":6886:6909  endAt < block.timestamp */\n      lt\n        /* \"msc_token/BeePresell.sol\":6878:6929  require(endAt < block.timestamp, \"presell not end\") */\n      tag_171\n      jumpi\n      mload(0x40)\n      shl(0xe5, 0x461bcd)\n      dup2\n      mstore\n        /* \"#utility.yul\":3200:3202   */\n      0x20\n        /* \"msc_token/BeePresell.sol\":6878:6929  require(endAt < block.timestamp, \"presell not end\") */\n      0x04\n      dup3\n      add\n        /* \"#utility.yul\":3182:3203   */\n      mstore\n        /* \"#utility.yul\":3239:3241   */\n      0x0f\n        /* \"#utility.yul\":3219:3237   */\n      0x24\n      dup3\n      add\n        /* \"#utility.yul\":3212:3242   */\n      mstore\n      shl(0x8a, 0x1c1c995cd95b1b081b9bdd08195b99)\n        /* \"#utility.yul\":3258:3276   */\n      0x44\n      dup3\n      add\n        /* \"#utility.yul\":3251:3296   */\n      mstore\n        /* \"#utility.yul\":3313:3331   */\n      0x64\n      add\n        /* \"msc_token/BeePresell.sol\":6878:6929  require(endAt < block.timestamp, \"presell not end\") */\n      tag_167\n        /* \"#utility.yul\":2998:3337   */\n      jump\n        /* \"msc_token/BeePresell.sol\":6878:6929  require(endAt < block.timestamp, \"presell not end\") */\n    tag_171:\n        /* \"msc_token/BeePresell.sol\":6972:6982  msg.sender */\n      caller\n        /* \"msc_token/BeePresell.sol\":6950:6983  userInviteBalancelMap[msg.sender] */\n      0x00\n      swap1\n      dup2\n      mstore\n        /* \"msc_token/BeePresell.sol\":6950:6971  userInviteBalancelMap */\n      0x0a\n        /* \"msc_token/BeePresell.sol\":6950:6983  userInviteBalancelMap[msg.sender] */\n      0x20\n      mstore\n      0x40\n      swap1\n      keccak256\n      sload\n      0xff\n      and\n        /* \"msc_token/BeePresell.sol\":6950:6991  userInviteBalancelMap[msg.sender] == true */\n      iszero\n      iszero\n        /* \"msc_token/BeePresell.sol\":6950:6983  userInviteBalancelMap[msg.sender] */\n      0x01\n        /* \"msc_token/BeePresell.sol\":6950:6991  userInviteBalancelMap[msg.sender] == true */\n      eq\n        /* \"msc_token/BeePresell.sol\":6942:7011  require(userInviteBalancelMap[msg.sender] == true, 'user not invite') */\n      tag_174\n      jumpi\n      mload(0x40)\n      shl(0xe5, 0x461bcd)\n      dup2\n      mstore\n        /* \"#utility.yul\":3544:3546   */\n      0x20\n        /* \"msc_token/BeePresell.sol\":6942:7011  require(userInviteBalancelMap[msg.sender] == true, 'user not invite') */\n      0x04\n      dup3\n      add\n        /* \"#utility.yul\":3526:3547   */\n      mstore\n        /* \"#utility.yul\":3583:3585   */\n      0x0f\n        /* \"#utility.yul\":3563:3581   */\n      0x24\n      dup3\n      add\n        /* \"#utility.yul\":3556:3586   */\n      mstore\n      shl(0x88, 0x75736572206e6f7420696e76697465)\n        /* \"#utility.yul\":3602:3620   */\n      0x44\n      dup3\n      add\n        /* \"#utility.yul\":3595:3640   */\n      mstore\n        /* \"#utility.yul\":3657:3675   */\n      0x64\n      add\n        /* \"msc_token/BeePresell.sol\":6942:7011  require(userInviteBalancelMap[msg.sender] == true, 'user not invite') */\n      tag_167\n        /* \"#utility.yul\":3342:3681   */\n      jump\n        /* \"msc_token/BeePresell.sol\":6942:7011  require(userInviteBalancelMap[msg.sender] == true, 'user not invite') */\n    tag_174:\n        /* \"msc_token/BeePresell.sol\":7024:7033  bool sent */\n      0x00\n        /* \"msc_token/BeePresell.sol\":7036:7045  sellToken */\n      immutable(\"0x67df77adbc271f558df88504cf3a3f87bfdd2d55b11e86c55c4fd978a935a836\")\n      sub(shl(0xa0, 0x01), 0x01)\n        /* \"msc_token/BeePresell.sol\":7036:7054  sellToken.transfer */\n      and\n      0xa9059cbb\n        /* \"msc_token/BeePresell.sol\":7055:7065  msg.sender */\n      caller\n        /* \"msc_token/BeePresell.sol\":7067:7109  getUserInviteAirdropCoinAmount(msg.sender) */\n      tag_177\n        /* \"msc_token/BeePresell.sol\":7098:7108  msg.sender */\n      caller\n        /* \"msc_token/BeePresell.sol\":7067:7097  getUserInviteAirdropCoinAmount */\n      tag_127\n        /* \"msc_token/BeePresell.sol\":7067:7109  getUserInviteAirdropCoinAmount(msg.sender) */\n      jump\t// in\n    tag_177:\n        /* \"msc_token/BeePresell.sol\":7036:7110  sellToken.transfer(msg.sender, getUserInviteAirdropCoinAmount(msg.sender)) */\n      mload(0x40)\n      not(sub(shl(0xe0, 0x01), 0x01))\n      0xe0\n      dup6\n      swap1\n      shl\n      and\n      dup2\n      mstore\n      sub(shl(0xa0, 0x01), 0x01)\n        /* \"#utility.yul\":705:737   */\n      swap1\n      swap3\n      and\n        /* \"msc_token/BeePresell.sol\":7036:7110  sellToken.transfer(msg.sender, getUserInviteAirdropCoinAmount(msg.sender)) */\n      0x04\n      dup4\n      add\n        /* \"#utility.yul\":687:738   */\n      mstore\n        /* \"#utility.yul\":754:772   */\n      0x24\n      dup3\n      add\n        /* \"#utility.yul\":747:781   */\n      mstore\n        /* \"#utility.yul\":660:678   */\n      0x44\n      add\n        /* \"msc_token/BeePresell.sol\":7036:7110  sellToken.transfer(msg.sender, getUserInviteAirdropCoinAmount(msg.sender)) */\n      0x20\n      mload(0x40)\n      dup1\n      dup4\n      sub\n      dup2\n      0x00\n      dup8\n      gas\n      call\n      iszero\n      dup1\n      iszero\n      tag_180\n      jumpi\n      returndatasize\n      0x00\n      dup1\n      returndatacopy\n      revert(0x00, returndatasize)\n    tag_180:\n      pop\n      pop\n      pop\n      pop\n      mload(0x40)\n      returndatasize\n      not(0x1f)\n      0x1f\n      dup3\n      add\n      and\n      dup3\n      add\n      dup1\n      0x40\n      mstore\n      pop\n      dup2\n      add\n      swap1\n      tag_181\n      swap2\n      swap1\n      tag_182\n      jump\t// in\n    tag_181:\n        /* \"msc_token/BeePresell.sol\":7024:7110  bool sent = sellToken.transfer(msg.sender, getUserInviteAirdropCoinAmount(msg.sender)) */\n      swap1\n      pop\n        /* \"msc_token/BeePresell.sol\":7129:7133  sent */\n      dup1\n        /* \"msc_token/BeePresell.sol\":7121:7159  require(sent, \"Token transfer failed\") */\n      tag_183\n      jumpi\n      mload(0x40)\n      shl(0xe5, 0x461bcd)\n      dup2\n      mstore\n      0x04\n      add\n      tag_167\n      swap1\n      tag_185\n      jump\t// in\n    tag_183:\n      pop\n        /* \"msc_token/BeePresell.sol\":7194:7204  msg.sender */\n      caller\n        /* \"msc_token/BeePresell.sol\":7208:7213  false */\n      0x00\n        /* \"msc_token/BeePresell.sol\":7172:7205  userInviteBalancelMap[msg.sender] */\n      swap1\n      dup2\n      mstore\n        /* \"msc_token/BeePresell.sol\":7172:7193  userInviteBalancelMap */\n      0x0a\n        /* \"msc_token/BeePresell.sol\":7172:7205  userInviteBalancelMap[msg.sender] */\n      0x20\n      mstore\n      0x40\n      swap1\n      keccak256\n        /* \"msc_token/BeePresell.sol\":7172:7213  userInviteBalancelMap[msg.sender] = false */\n      dup1\n      sload\n      not(0xff)\n      and\n      swap1\n      sstore\n        /* \"msc_token/BeePresell.sol\":6821:7221  function withdrawInviteAirdropTokens() public {... */\n      jump\t// out\n        /* \"msc_token/BeePresell.sol\":7229:7406  function exigencyWithdraw(uint256 amount) public onlyOwner {... */\n    tag_79:\n        /* \"msc_token/BeePresell.sol\":1227:1234  address */\n      0x00\n        /* \"msc_token/BeePresell.sol\":1254:1260  _owner */\n      sload\n      sub(shl(0xa0, 0x01), 0x01)\n      and\n        /* \"msc_token/BeePresell.sol\":635:645  msg.sender */\n      caller\n        /* \"msc_token/BeePresell.sol\":1401:1424  owner() == _msgSender() */\n      eq\n        /* \"msc_token/BeePresell.sol\":1393:1461  require(owner() == _msgSender(), \"Ownable: caller is not the owner\") */\n      tag_191\n      jumpi\n      mload(0x40)\n      shl(0xe5, 0x461bcd)\n      dup2\n      mstore\n      0x04\n      add\n      tag_167\n      swap1\n      tag_168\n      jump\t// in\n    tag_191:\n        /* \"msc_token/BeePresell.sol\":7311:7349  sellToken.transfer(msg.sender, amount) */\n      mload(0x40)\n      shl(0xe0, 0xa9059cbb)\n      dup2\n      mstore\n        /* \"msc_token/BeePresell.sol\":7330:7340  msg.sender */\n      caller\n        /* \"msc_token/BeePresell.sol\":7311:7349  sellToken.transfer(msg.sender, amount) */\n      0x04\n      dup3\n      add\n        /* \"#utility.yul\":687:738   */\n      mstore\n        /* \"#utility.yul\":754:772   */\n      0x24\n      dup2\n      add\n        /* \"#utility.yul\":747:781   */\n      dup3\n      swap1\n      mstore\n        /* \"msc_token/BeePresell.sol\":7299:7308  bool sent */\n      0x00\n      swap1\n        /* \"msc_token/BeePresell.sol\":7311:7320  sellToken */\n      immutable(\"0x67df77adbc271f558df88504cf3a3f87bfdd2d55b11e86c55c4fd978a935a836\")\n      sub(shl(0xa0, 0x01), 0x01)\n        /* \"msc_token/BeePresell.sol\":7311:7329  sellToken.transfer */\n      and\n      swap1\n      0xa9059cbb\n      swap1\n        /* \"#utility.yul\":660:678   */\n      0x44\n      add\n        /* \"msc_token/BeePresell.sol\":7311:7349  sellToken.transfer(msg.sender, amount) */\n      0x20\n      mload(0x40)\n      dup1\n      dup4\n      sub\n      dup2\n      0x00\n      dup8\n      gas\n      call\n      iszero\n      dup1\n      iszero\n      tag_196\n      jumpi\n      returndatasize\n      0x00\n      dup1\n      returndatacopy\n      revert(0x00, returndatasize)\n    tag_196:\n      pop\n      pop\n      pop\n      pop\n      mload(0x40)\n      returndatasize\n      not(0x1f)\n      0x1f\n      dup3\n      add\n      and\n      dup3\n      add\n      dup1\n      0x40\n      mstore\n      pop\n      dup2\n      add\n      swap1\n      tag_197\n      swap2\n      swap1\n      tag_182\n      jump\t// in\n    tag_197:\n        /* \"msc_token/BeePresell.sol\":7299:7349  bool sent = sellToken.transfer(msg.sender, amount) */\n      swap1\n      pop\n        /* \"msc_token/BeePresell.sol\":7368:7372  sent */\n      dup1\n        /* \"msc_token/BeePresell.sol\":7360:7398  require(sent, \"Token transfer failed\") */\n      tag_198\n      jumpi\n      mload(0x40)\n      shl(0xe5, 0x461bcd)\n      dup2\n      mstore\n      0x04\n      add\n      tag_167\n      swap1\n      tag_185\n      jump\t// in\n    tag_198:\n        /* \"msc_token/BeePresell.sol\":7288:7406  {... */\n      pop\n        /* \"msc_token/BeePresell.sol\":7229:7406  function exigencyWithdraw(uint256 amount) public onlyOwner {... */\n      pop\n      jump\t// out\n        /* \"msc_token/BeePresell.sol\":1832:1935  function renounceOwnership() public virtual onlyOwner {... */\n    tag_84:\n        /* \"msc_token/BeePresell.sol\":1227:1234  address */\n      0x00\n        /* \"msc_token/BeePresell.sol\":1254:1260  _owner */\n      sload\n      sub(shl(0xa0, 0x01), 0x01)\n      and\n        /* \"msc_token/BeePresell.sol\":635:645  msg.sender */\n      caller\n        /* \"msc_token/BeePresell.sol\":1401:1424  owner() == _msgSender() */\n      eq\n        /* \"msc_token/BeePresell.sol\":1393:1461  require(owner() == _msgSender(), \"Ownable: caller is not the owner\") */\n      tag_203\n      jumpi\n      mload(0x40)\n      shl(0xe5, 0x461bcd)\n      dup2\n      mstore\n      0x04\n      add\n      tag_167\n      swap1\n      tag_168\n      jump\t// in\n    tag_203:\n        /* \"msc_token/BeePresell.sol\":1897:1927  _transferOwnership(address(0)) */\n      tag_206\n        /* \"msc_token/BeePresell.sol\":1924:1925  0 */\n      0x00\n        /* \"msc_token/BeePresell.sol\":1897:1915  _transferOwnership */\n      tag_207\n        /* \"msc_token/BeePresell.sol\":1897:1927  _transferOwnership(address(0)) */\n      jump\t// in\n    tag_206:\n        /* \"msc_token/BeePresell.sol\":1832:1935  function renounceOwnership() public virtual onlyOwner {... */\n      jump\t// out\n        /* \"msc_token/BeePresell.sol\":4198:4311  function getPreSellCoinAmount() public view returns (uint256) {... */\n    tag_86:\n        /* \"msc_token/BeePresell.sol\":4296:4303  counter */\n      sload(0x07)\n        /* \"msc_token/BeePresell.sol\":4278:4295  preSellCoinAmount */\n      sload(0x05)\n        /* \"msc_token/BeePresell.sol\":4251:4258  uint256 */\n      0x00\n      swap2\n        /* \"msc_token/BeePresell.sol\":4278:4303  preSellCoinAmount/counter */\n      tag_209\n      swap2\n        /* \"msc_token/BeePresell.sol\":4296:4303  counter */\n      0xffffffff\n      swap1\n      swap2\n      and\n      swap1\n        /* \"msc_token/BeePresell.sol\":4278:4303  preSellCoinAmount/counter */\n      tag_210\n      jump\t// in\n    tag_209:\n        /* \"msc_token/BeePresell.sol\":4271:4303  return preSellCoinAmount/counter */\n      swap1\n      pop\n        /* \"msc_token/BeePresell.sol\":4198:4311  function getPreSellCoinAmount() public view returns (uint256) {... */\n      swap1\n      jump\t// out\n        /* \"msc_token/BeePresell.sol\":5293:5856  function acceptInvitation(address _inviter) public returns (bool) {... */\n    tag_100:\n      sub(shl(0xa0, 0x01), 0x01)\n        /* \"msc_token/BeePresell.sol\":5378:5394  hasBuy[_inviter] */\n      dup2\n      and\n        /* \"msc_token/BeePresell.sol\":5353:5357  bool */\n      0x00\n        /* \"msc_token/BeePresell.sol\":5378:5394  hasBuy[_inviter] */\n      swap1\n      dup2\n      mstore\n        /* \"msc_token/BeePresell.sol\":5378:5384  hasBuy */\n      0x0b\n        /* \"msc_token/BeePresell.sol\":5378:5394  hasBuy[_inviter] */\n      0x20\n      mstore\n      0x40\n      dup2\n      keccak256\n      sload\n      0xff\n      and\n        /* \"msc_token/BeePresell.sol\":5370:5416  require(hasBuy[_inviter], \"Bee:upper not buy\") */\n      tag_213\n      jumpi\n      mload(0x40)\n      shl(0xe5, 0x461bcd)\n      dup2\n      mstore\n        /* \"#utility.yul\":4874:4876   */\n      0x20\n        /* \"msc_token/BeePresell.sol\":5370:5416  require(hasBuy[_inviter], \"Bee:upper not buy\") */\n      0x04\n      dup3\n      add\n        /* \"#utility.yul\":4856:4877   */\n      mstore\n        /* \"#utility.yul\":4913:4915   */\n      0x11\n        /* \"#utility.yul\":4893:4911   */\n      0x24\n      dup3\n      add\n        /* \"#utility.yul\":4886:4916   */\n      mstore\n      shl(0x78, 0x4265653a7570706572206e6f7420627579)\n        /* \"#utility.yul\":4932:4950   */\n      0x44\n      dup3\n      add\n        /* \"#utility.yul\":4925:4972   */\n      mstore\n        /* \"#utility.yul\":4989:5007   */\n      0x64\n      add\n        /* \"msc_token/BeePresell.sol\":5370:5416  require(hasBuy[_inviter], \"Bee:upper not buy\") */\n      tag_167\n        /* \"#utility.yul\":4672:5013   */\n      jump\n        /* \"msc_token/BeePresell.sol\":5370:5416  require(hasBuy[_inviter], \"Bee:upper not buy\") */\n    tag_213:\n      sub(shl(0xa0, 0x01), 0x01)\n        /* \"msc_token/BeePresell.sol\":5437:5459  msg.sender != _inviter */\n      dup3\n      and\n        /* \"msc_token/BeePresell.sol\":5437:5447  msg.sender */\n      caller\n        /* \"msc_token/BeePresell.sol\":5437:5459  msg.sender != _inviter */\n      sub\n        /* \"msc_token/BeePresell.sol\":5429:5477  require(msg.sender != _inviter, \"Bee:FORBIDDEN\") */\n      tag_216\n      jumpi\n      mload(0x40)\n      shl(0xe5, 0x461bcd)\n      dup2\n      mstore\n        /* \"#utility.yul\":5220:5222   */\n      0x20\n        /* \"msc_token/BeePresell.sol\":5429:5477  require(msg.sender != _inviter, \"Bee:FORBIDDEN\") */\n      0x04\n      dup3\n      add\n        /* \"#utility.yul\":5202:5223   */\n      mstore\n        /* \"#utility.yul\":5259:5261   */\n      0x0d\n        /* \"#utility.yul\":5239:5257   */\n      0x24\n      dup3\n      add\n        /* \"#utility.yul\":5232:5262   */\n      mstore\n      shl(0x99, 0x2132b29d2327a92124a22222a7)\n        /* \"#utility.yul\":5278:5296   */\n      0x44\n      dup3\n      add\n        /* \"#utility.yul\":5271:5314   */\n      mstore\n        /* \"#utility.yul\":5331:5349   */\n      0x64\n      add\n        /* \"msc_token/BeePresell.sol\":5429:5477  require(msg.sender != _inviter, \"Bee:FORBIDDEN\") */\n      tag_167\n        /* \"#utility.yul\":5018:5355   */\n      jump\n        /* \"msc_token/BeePresell.sol\":5429:5477  require(msg.sender != _inviter, \"Bee:FORBIDDEN\") */\n    tag_216:\n        /* \"msc_token/BeePresell.sol\":5525:5535  msg.sender */\n      caller\n        /* \"msc_token/BeePresell.sol\":5490:5511  UserInfo storage user */\n      0x00\n        /* \"msc_token/BeePresell.sol\":5514:5536  inviteInfo[msg.sender] */\n      swap1\n      dup2\n      mstore\n        /* \"msc_token/BeePresell.sol\":5514:5524  inviteInfo */\n      0x08\n        /* \"msc_token/BeePresell.sol\":5514:5536  inviteInfo[msg.sender] */\n      0x20\n      swap1\n      dup2\n      mstore\n      0x40\n      dup1\n      dup4\n      keccak256\n        /* \"msc_token/BeePresell.sol\":5547:5568  user.upper = _inviter */\n      dup1\n      sload\n      sub(shl(0xa0, 0x01), 0x01)\n      dup8\n      and\n      not(sub(shl(0xa0, 0x01), 0x01))\n      swap2\n      dup3\n      and\n      dup2\n      or\n      dup4\n      sstore\n        /* \"msc_token/BeePresell.sol\":5597:5609  block.number */\n      number\n        /* \"msc_token/BeePresell.sol\":5579:5594  user.startBlock */\n      0x02\n      dup1\n      dup6\n      add\n        /* \"msc_token/BeePresell.sol\":5579:5609  user.startBlock = block.number */\n      dup3\n      swap1\n      sstore\n        /* \"msc_token/BeePresell.sol\":5647:5667  inviteInfo[_inviter] */\n      dup3\n      dup9\n      mstore\n      dup6\n      dup9\n      keccak256\n        /* \"msc_token/BeePresell.sol\":5678:5694  upper.startBlock */\n      swap1\n      dup2\n      add\n        /* \"msc_token/BeePresell.sol\":5678:5709  upper.startBlock = block.number */\n      swap2\n      swap1\n      swap2\n      sstore\n        /* \"msc_token/BeePresell.sol\":5547:5568  user.upper = _inviter */\n      0x01\n        /* \"msc_token/BeePresell.sol\":5720:5732  upper.lowers */\n      dup2\n      dup2\n      add\n        /* \"msc_token/BeePresell.sol\":5720:5747  upper.lowers.push(_inviter) */\n      dup1\n      sload\n      dup1\n      dup4\n      add\n      dup3\n      sstore\n      swap1\n      dup10\n      mstore\n      dup8\n      dup10\n      keccak256\n      add\n      dup1\n      sload\n      swap1\n      swap5\n      and\n      dup4\n      or\n      swap1\n      swap4\n      sstore\n        /* \"msc_token/BeePresell.sol\":5760:5791  userInviteBalancelMap[_inviter] */\n      swap1\n      dup7\n      mstore\n        /* \"msc_token/BeePresell.sol\":5760:5781  userInviteBalancelMap */\n      0x0a\n        /* \"msc_token/BeePresell.sol\":5760:5791  userInviteBalancelMap[_inviter] */\n      swap1\n      swap5\n      mstore\n      swap2\n      swap1\n      swap4\n      keccak256\n        /* \"msc_token/BeePresell.sol\":5760:5798  userInviteBalancelMap[_inviter] = true */\n      dup1\n      sload\n      not(0xff)\n      and\n      swap1\n      swap2\n      or\n      swap1\n      sstore\n        /* \"msc_token/BeePresell.sol\":5811:5824  lowersCounter */\n      0x07\n        /* \"msc_token/BeePresell.sol\":5809:5824  ++lowersCounter */\n      dup1\n      sload\n        /* \"msc_token/BeePresell.sol\":5811:5824  lowersCounter */\n      0x04\n      swap1\n        /* \"msc_token/BeePresell.sol\":5809:5824  ++lowersCounter */\n      tag_220\n      swap1\n      0xffffffff\n      0x0100000000\n      swap1\n      swap2\n      div\n      and\n      tag_221\n      jump\t// in\n    tag_220:\n      swap2\n      swap1\n      0x0100\n      exp\n      dup2\n      sload\n      dup2\n      0xffffffff\n      mul\n      not\n      and\n      swap1\n      dup4\n      0xffffffff\n      and\n      mul\n      or\n      swap1\n      sstore\n      pop\n        /* \"msc_token/BeePresell.sol\":5844:5848  true */\n      0x01\n        /* \"msc_token/BeePresell.sol\":5837:5848  return true */\n      swap3\n      pop\n      pop\n      pop\n        /* \"msc_token/BeePresell.sol\":5293:5856  function acceptInvitation(address _inviter) public returns (bool) {... */\n      swap2\n      swap1\n      pop\n      jump\t// out\n        /* \"msc_token/BeePresell.sol\":5038:5163  function getUserLowers(address user) public view returns (address[] memory) {... */\n    tag_122:\n      sub(shl(0xa0, 0x01), 0x01)\n        /* \"msc_token/BeePresell.sol\":5132:5148  inviteInfo[user] */\n      dup2\n      and\n      0x00\n      swap1\n      dup2\n      mstore\n        /* \"msc_token/BeePresell.sol\":5132:5142  inviteInfo */\n      0x08\n        /* \"msc_token/BeePresell.sol\":5132:5148  inviteInfo[user] */\n      0x20\n      swap1\n      dup2\n      mstore\n      0x40\n      swap2\n      dup3\n      swap1\n      keccak256\n        /* \"msc_token/BeePresell.sol\":5132:5155  inviteInfo[user].lowers */\n      0x01\n      add\n        /* \"msc_token/BeePresell.sol\":5125:5155  return inviteInfo[user].lowers */\n      dup1\n      sload\n      dup4\n      mload\n      dup2\n      dup5\n      mul\n      dup2\n      add\n      dup5\n      add\n      swap1\n      swap5\n      mstore\n      dup1\n      dup5\n      mstore\n        /* \"msc_token/BeePresell.sol\":5096:5112  address[] memory */\n      0x60\n      swap4\n        /* \"msc_token/BeePresell.sol\":5125:5155  return inviteInfo[user].lowers */\n      swap3\n      dup4\n      add\n        /* \"msc_token/BeePresell.sol\":5132:5155  inviteInfo[user].lowers */\n      dup3\n        /* \"msc_token/BeePresell.sol\":5125:5155  return inviteInfo[user].lowers */\n      dup3\n      dup1\n      iszero\n      tag_223\n      jumpi\n      0x20\n      mul\n      dup3\n      add\n      swap2\n      swap1\n      0x00\n      mstore\n      keccak256(0x00, 0x20)\n      swap1\n    tag_224:\n      dup2\n      sload\n      sub(shl(0xa0, 0x01), 0x01)\n      and\n      dup2\n      mstore\n      0x01\n      swap1\n      swap2\n      add\n      swap1\n      0x20\n      add\n      dup1\n      dup4\n      gt\n      tag_224\n      jumpi\n    tag_223:\n      pop\n      pop\n      pop\n      pop\n      pop\n      swap1\n      pop\n        /* \"msc_token/BeePresell.sol\":5038:5163  function getUserLowers(address user) public view returns (address[] memory) {... */\n      swap2\n      swap1\n      pop\n      jump\t// out\n        /* \"msc_token/BeePresell.sol\":4319:4501  function getUserInviteAirdropCoinAmount(address user) public view returns (uint256) {... */\n    tag_127:\n      sub(shl(0xa0, 0x01), 0x01)\n        /* \"msc_token/BeePresell.sol\":4463:4479  inviteInfo[user] */\n      dup2\n      and\n        /* \"msc_token/BeePresell.sol\":4394:4401  uint256 */\n      0x00\n        /* \"msc_token/BeePresell.sol\":4463:4479  inviteInfo[user] */\n      swap1\n      dup2\n      mstore\n        /* \"msc_token/BeePresell.sol\":4463:4473  inviteInfo */\n      0x08\n        /* \"msc_token/BeePresell.sol\":4463:4479  inviteInfo[user] */\n      0x20\n      mstore\n      0x40\n      dup2\n      keccak256\n        /* \"msc_token/BeePresell.sol\":4463:4486  inviteInfo[user].lowers */\n      0x01\n      add\n        /* \"msc_token/BeePresell.sol\":4463:4493  inviteInfo[user].lowers.length */\n      sload\n        /* \"msc_token/BeePresell.sol\":4447:4460  lowersCounter */\n      sload(0x07)\n        /* \"msc_token/BeePresell.sol\":4421:4444  inviteAirdropCoinAmount */\n      sload(0x06)\n        /* \"msc_token/BeePresell.sol\":4421:4460  inviteAirdropCoinAmount / lowersCounter */\n      tag_226\n      swap2\n        /* \"msc_token/BeePresell.sol\":4447:4460  lowersCounter */\n      0x0100000000\n      swap1\n      div\n      0xffffffff\n      and\n      swap1\n        /* \"msc_token/BeePresell.sol\":4421:4460  inviteAirdropCoinAmount / lowersCounter */\n      tag_210\n      jump\t// in\n    tag_226:\n        /* \"msc_token/BeePresell.sol\":4421:4493  inviteAirdropCoinAmount / lowersCounter * inviteInfo[user].lowers.length */\n      tag_227\n      swap2\n      swap1\n      tag_228\n      jump\t// in\n    tag_227:\n        /* \"msc_token/BeePresell.sol\":4414:4493  return inviteAirdropCoinAmount / lowersCounter * inviteInfo[user].lowers.length */\n      swap3\n        /* \"msc_token/BeePresell.sol\":4319:4501  function getUserInviteAirdropCoinAmount(address user) public view returns (uint256) {... */\n      swap2\n      pop\n      pop\n      jump\t// out\n        /* \"msc_token/BeePresell.sol\":6438:6813  function withdrawPresellTokens() public {... */\n    tag_140:\n        /* \"msc_token/BeePresell.sol\":6497:6502  endAt */\n      sload(0x0c)\n        /* \"msc_token/BeePresell.sol\":6505:6520  block.timestamp */\n      timestamp\n      shl(0x40, 0x01)\n        /* \"msc_token/BeePresell.sol\":6497:6502  endAt */\n      swap1\n      swap2\n      div\n      0xffffffffffffffff\n      and\n        /* \"msc_token/BeePresell.sol\":6497:6520  endAt < block.timestamp */\n      lt\n        /* \"msc_token/BeePresell.sol\":6489:6540  require(endAt < block.timestamp, \"presell not end\") */\n      tag_232\n      jumpi\n      mload(0x40)\n      shl(0xe5, 0x461bcd)\n      dup2\n      mstore\n        /* \"#utility.yul\":3200:3202   */\n      0x20\n        /* \"msc_token/BeePresell.sol\":6489:6540  require(endAt < block.timestamp, \"presell not end\") */\n      0x04\n      dup3\n      add\n        /* \"#utility.yul\":3182:3203   */\n      mstore\n        /* \"#utility.yul\":3239:3241   */\n      0x0f\n        /* \"#utility.yul\":3219:3237   */\n      0x24\n      dup3\n      add\n        /* \"#utility.yul\":3212:3242   */\n      mstore\n      shl(0x8a, 0x1c1c995cd95b1b081b9bdd08195b99)\n        /* \"#utility.yul\":3258:3276   */\n      0x44\n      dup3\n      add\n        /* \"#utility.yul\":3251:3296   */\n      mstore\n        /* \"#utility.yul\":3313:3331   */\n      0x64\n      add\n        /* \"msc_token/BeePresell.sol\":6489:6540  require(endAt < block.timestamp, \"presell not end\") */\n      tag_167\n        /* \"#utility.yul\":2998:3337   */\n      jump\n        /* \"msc_token/BeePresell.sol\":6489:6540  require(endAt < block.timestamp, \"presell not end\") */\n    tag_232:\n        /* \"msc_token/BeePresell.sol\":6583:6593  msg.sender */\n      caller\n        /* \"msc_token/BeePresell.sol\":6561:6594  userPresellBalanceMap[msg.sender] */\n      0x00\n      swap1\n      dup2\n      mstore\n        /* \"msc_token/BeePresell.sol\":6561:6582  userPresellBalanceMap */\n      0x09\n        /* \"msc_token/BeePresell.sol\":6561:6594  userPresellBalanceMap[msg.sender] */\n      0x20\n      mstore\n      0x40\n      swap1\n      keccak256\n      sload\n      0xff\n      and\n        /* \"msc_token/BeePresell.sol\":6561:6602  userPresellBalanceMap[msg.sender] == true */\n      iszero\n      iszero\n        /* \"msc_token/BeePresell.sol\":6561:6594  userPresellBalanceMap[msg.sender] */\n      0x01\n        /* \"msc_token/BeePresell.sol\":6561:6602  userPresellBalanceMap[msg.sender] == true */\n      eq\n        /* \"msc_token/BeePresell.sol\":6553:6623  require(userPresellBalanceMap[msg.sender] == true, 'user not presell') */\n      tag_234\n      jumpi\n      mload(0x40)\n      shl(0xe5, 0x461bcd)\n      dup2\n      mstore\n        /* \"#utility.yul\":5941:5943   */\n      0x20\n        /* \"msc_token/BeePresell.sol\":6553:6623  require(userPresellBalanceMap[msg.sender] == true, 'user not presell') */\n      0x04\n      dup3\n      add\n        /* \"#utility.yul\":5923:5944   */\n      mstore\n        /* \"#utility.yul\":5980:5982   */\n      0x10\n        /* \"#utility.yul\":5960:5978   */\n      0x24\n      dup3\n      add\n        /* \"#utility.yul\":5953:5983   */\n      mstore\n      shl(0x82, 0x1d5cd95c881b9bdd081c1c995cd95b1b)\n        /* \"#utility.yul\":5999:6017   */\n      0x44\n      dup3\n      add\n        /* \"#utility.yul\":5992:6038   */\n      mstore\n        /* \"#utility.yul\":6055:6073   */\n      0x64\n      add\n        /* \"msc_token/BeePresell.sol\":6553:6623  require(userPresellBalanceMap[msg.sender] == true, 'user not presell') */\n      tag_167\n        /* \"#utility.yul\":5739:6079   */\n      jump\n        /* \"msc_token/BeePresell.sol\":6553:6623  require(userPresellBalanceMap[msg.sender] == true, 'user not presell') */\n    tag_234:\n        /* \"msc_token/BeePresell.sol\":6636:6645  bool sent */\n      0x00\n        /* \"msc_token/BeePresell.sol\":6648:6657  sellToken */\n      immutable(\"0x67df77adbc271f558df88504cf3a3f87bfdd2d55b11e86c55c4fd978a935a836\")\n      sub(shl(0xa0, 0x01), 0x01)\n        /* \"msc_token/BeePresell.sol\":6648:6666  sellToken.transfer */\n      and\n      0xa9059cbb\n        /* \"msc_token/BeePresell.sol\":6667:6677  msg.sender */\n      caller\n        /* \"msc_token/BeePresell.sol\":6679:6701  getPreSellCoinAmount() */\n      tag_237\n        /* \"msc_token/BeePresell.sol\":6679:6699  getPreSellCoinAmount */\n      tag_86\n        /* \"msc_token/BeePresell.sol\":6679:6701  getPreSellCoinAmount() */\n      jump\t// in\n    tag_237:\n        /* \"msc_token/BeePresell.sol\":6648:6702  sellToken.transfer(msg.sender, getPreSellCoinAmount()) */\n      mload(0x40)\n      not(sub(shl(0xe0, 0x01), 0x01))\n      0xe0\n      dup6\n      swap1\n      shl\n      and\n      dup2\n      mstore\n      sub(shl(0xa0, 0x01), 0x01)\n        /* \"#utility.yul\":705:737   */\n      swap1\n      swap3\n      and\n        /* \"msc_token/BeePresell.sol\":6648:6702  sellToken.transfer(msg.sender, getPreSellCoinAmount()) */\n      0x04\n      dup4\n      add\n        /* \"#utility.yul\":687:738   */\n      mstore\n        /* \"#utility.yul\":754:772   */\n      0x24\n      dup3\n      add\n        /* \"#utility.yul\":747:781   */\n      mstore\n        /* \"#utility.yul\":660:678   */\n      0x44\n      add\n        /* \"msc_token/BeePresell.sol\":6648:6702  sellToken.transfer(msg.sender, getPreSellCoinAmount()) */\n      0x20\n      mload(0x40)\n      dup1\n      dup4\n      sub\n      dup2\n      0x00\n      dup8\n      gas\n      call\n      iszero\n      dup1\n      iszero\n      tag_240\n      jumpi\n      returndatasize\n      0x00\n      dup1\n      returndatacopy\n      revert(0x00, returndatasize)\n    tag_240:\n      pop\n      pop\n      pop\n      pop\n      mload(0x40)\n      returndatasize\n      not(0x1f)\n      0x1f\n      dup3\n      add\n      and\n      dup3\n      add\n      dup1\n      0x40\n      mstore\n      pop\n      dup2\n      add\n      swap1\n      tag_241\n      swap2\n      swap1\n      tag_182\n      jump\t// in\n    tag_241:\n        /* \"msc_token/BeePresell.sol\":6636:6702  bool sent = sellToken.transfer(msg.sender, getPreSellCoinAmount()) */\n      swap1\n      pop\n        /* \"msc_token/BeePresell.sol\":6721:6725  sent */\n      dup1\n        /* \"msc_token/BeePresell.sol\":6713:6751  require(sent, \"Token transfer failed\") */\n      tag_242\n      jumpi\n      mload(0x40)\n      shl(0xe5, 0x461bcd)\n      dup2\n      mstore\n      0x04\n      add\n      tag_167\n      swap1\n      tag_185\n      jump\t// in\n    tag_242:\n      pop\n        /* \"msc_token/BeePresell.sol\":6786:6796  msg.sender */\n      caller\n        /* \"msc_token/BeePresell.sol\":6800:6805  false */\n      0x00\n        /* \"msc_token/BeePresell.sol\":6764:6797  userPresellBalanceMap[msg.sender] */\n      swap1\n      dup2\n      mstore\n        /* \"msc_token/BeePresell.sol\":6764:6785  userPresellBalanceMap */\n      0x09\n        /* \"msc_token/BeePresell.sol\":6764:6797  userPresellBalanceMap[msg.sender] */\n      0x20\n      mstore\n      0x40\n      swap1\n      keccak256\n        /* \"msc_token/BeePresell.sol\":6764:6805  userPresellBalanceMap[msg.sender] = false */\n      dup1\n      sload\n      not(0xff)\n      and\n      swap1\n      sstore\n        /* \"msc_token/BeePresell.sol\":6438:6813  function withdrawPresellTokens() public {... */\n      jump\t// out\n        /* \"msc_token/BeePresell.sol\":5864:6430  function buyTokens() public {... */\n    tag_142:\n        /* \"msc_token/BeePresell.sol\":5911:5918  startAt */\n      sload(0x0c)\n        /* \"msc_token/BeePresell.sol\":5921:5936  block.timestamp */\n      timestamp\n        /* \"msc_token/BeePresell.sol\":5911:5918  startAt */\n      0xffffffffffffffff\n      swap1\n      swap2\n      and\n        /* \"msc_token/BeePresell.sol\":5911:5936  startAt < block.timestamp */\n      lt\n        /* \"msc_token/BeePresell.sol\":5903:5950  require(startAt < block.timestamp, \"not start\") */\n      tag_245\n      jumpi\n      mload(0x40)\n      shl(0xe5, 0x461bcd)\n      dup2\n      mstore\n        /* \"#utility.yul\":6286:6288   */\n      0x20\n        /* \"msc_token/BeePresell.sol\":5903:5950  require(startAt < block.timestamp, \"not start\") */\n      0x04\n      dup3\n      add\n        /* \"#utility.yul\":6268:6289   */\n      mstore\n        /* \"#utility.yul\":6325:6326   */\n      0x09\n        /* \"#utility.yul\":6305:6323   */\n      0x24\n      dup3\n      add\n        /* \"#utility.yul\":6298:6327   */\n      mstore\n      shl(0xba, 0x1b9bdd081cdd185c9d)\n        /* \"#utility.yul\":6343:6361   */\n      0x44\n      dup3\n      add\n        /* \"#utility.yul\":6336:6375   */\n      mstore\n        /* \"#utility.yul\":6392:6410   */\n      0x64\n      add\n        /* \"msc_token/BeePresell.sol\":5903:5950  require(startAt < block.timestamp, \"not start\") */\n      tag_167\n        /* \"#utility.yul\":6084:6416   */\n      jump\n        /* \"msc_token/BeePresell.sol\":5903:5950  require(startAt < block.timestamp, \"not start\") */\n    tag_245:\n        /* \"msc_token/BeePresell.sol\":5971:5976  endAt */\n      sload(0x0c)\n        /* \"msc_token/BeePresell.sol\":5979:5994  block.timestamp */\n      timestamp\n      shl(0x40, 0x01)\n        /* \"msc_token/BeePresell.sol\":5971:5976  endAt */\n      swap1\n      swap2\n      div\n      0xffffffffffffffff\n      and\n        /* \"msc_token/BeePresell.sol\":5971:5994  endAt > block.timestamp */\n      gt\n        /* \"msc_token/BeePresell.sol\":5963:6006  require(endAt > block.timestamp, \"has end\") */\n      tag_248\n      jumpi\n      mload(0x40)\n      shl(0xe5, 0x461bcd)\n      dup2\n      mstore\n        /* \"#utility.yul\":6623:6625   */\n      0x20\n        /* \"msc_token/BeePresell.sol\":5963:6006  require(endAt > block.timestamp, \"has end\") */\n      0x04\n      dup3\n      add\n        /* \"#utility.yul\":6605:6626   */\n      mstore\n        /* \"#utility.yul\":6662:6663   */\n      0x07\n        /* \"#utility.yul\":6642:6660   */\n      0x24\n      dup3\n      add\n        /* \"#utility.yul\":6635:6664   */\n      mstore\n      shl(0xca, 0x1a185cc8195b99)\n        /* \"#utility.yul\":6680:6698   */\n      0x44\n      dup3\n      add\n        /* \"#utility.yul\":6673:6710   */\n      mstore\n        /* \"#utility.yul\":6727:6745   */\n      0x64\n      add\n        /* \"msc_token/BeePresell.sol\":5963:6006  require(endAt > block.timestamp, \"has end\") */\n      tag_167\n        /* \"#utility.yul\":6421:6751   */\n      jump\n        /* \"msc_token/BeePresell.sol\":5963:6006  require(endAt > block.timestamp, \"has end\") */\n    tag_248:\n        /* \"msc_token/BeePresell.sol\":6035:6045  msg.sender */\n      caller\n        /* \"msc_token/BeePresell.sol\":6028:6046  hasBuy[msg.sender] */\n      0x00\n      swap1\n      dup2\n      mstore\n        /* \"msc_token/BeePresell.sol\":6028:6034  hasBuy */\n      0x0b\n        /* \"msc_token/BeePresell.sol\":6028:6046  hasBuy[msg.sender] */\n      0x20\n      mstore\n      0x40\n      swap1\n      keccak256\n      sload\n      0xff\n      and\n        /* \"msc_token/BeePresell.sol\":6027:6046  !hasBuy[msg.sender] */\n      iszero\n        /* \"msc_token/BeePresell.sol\":6019:6067  require(!hasBuy[msg.sender],\"already purchased\") */\n      tag_251\n      jumpi\n      mload(0x40)\n      shl(0xe5, 0x461bcd)\n      dup2\n      mstore\n        /* \"#utility.yul\":6958:6960   */\n      0x20\n        /* \"msc_token/BeePresell.sol\":6019:6067  require(!hasBuy[msg.sender],\"already purchased\") */\n      0x04\n      dup3\n      add\n        /* \"#utility.yul\":6940:6961   */\n      mstore\n        /* \"#utility.yul\":6997:6999   */\n      0x11\n        /* \"#utility.yul\":6977:6995   */\n      0x24\n      dup3\n      add\n        /* \"#utility.yul\":6970:7000   */\n      mstore\n      shl(0x7a, 0x185b1c9958591e481c1d5c98da185cd959)\n        /* \"#utility.yul\":7016:7034   */\n      0x44\n      dup3\n      add\n        /* \"#utility.yul\":7009:7056   */\n      mstore\n        /* \"#utility.yul\":7073:7091   */\n      0x64\n      add\n        /* \"msc_token/BeePresell.sol\":6019:6067  require(!hasBuy[msg.sender],\"already purchased\") */\n      tag_167\n        /* \"#utility.yul\":6756:7097   */\n      jump\n        /* \"msc_token/BeePresell.sol\":6019:6067  require(!hasBuy[msg.sender],\"already purchased\") */\n    tag_251:\n        /* \"msc_token/BeePresell.sol\":6138:6148  usdtAmount */\n      0x04\n      dup1\n      sload\n        /* \"msc_token/BeePresell.sol\":6088:6134  usdtToken.allowance(msg.sender, address(this)) */\n      mload(0x40)\n      shl(0xe1, 0x6eb1769f)\n      dup2\n      mstore\n        /* \"msc_token/BeePresell.sol\":6108:6118  msg.sender */\n      caller\n        /* \"msc_token/BeePresell.sol\":6088:6134  usdtToken.allowance(msg.sender, address(this)) */\n      swap3\n      dup2\n      add\n        /* \"#utility.yul\":7314:7348   */\n      swap3\n      swap1\n      swap3\n      mstore\n        /* \"msc_token/BeePresell.sol\":6128:6132  this */\n      address\n        /* \"#utility.yul\":7364:7382   */\n      0x24\n      dup4\n      add\n        /* \"#utility.yul\":7357:7400   */\n      mstore\n        /* \"msc_token/BeePresell.sol\":6138:6148  usdtAmount */\n      swap1\n      sub(shl(0xa0, 0x01), 0x01)\n        /* \"msc_token/BeePresell.sol\":6088:6097  usdtToken */\n      immutable(\"0xe08e88a25615b4c12f541ce925bac971d7abccd8956f0630ea12130df02d5898\")\n        /* \"msc_token/BeePresell.sol\":6088:6107  usdtToken.allowance */\n      and\n      swap1\n      0xdd62ed3e\n      swap1\n        /* \"#utility.yul\":7249:7267   */\n      0x44\n      add\n        /* \"msc_token/BeePresell.sol\":6088:6134  usdtToken.allowance(msg.sender, address(this)) */\n      0x20\n      mload(0x40)\n      dup1\n      dup4\n      sub\n      dup2\n      dup7\n      gas\n      staticcall\n      iszero\n      dup1\n      iszero\n      tag_257\n      jumpi\n      returndatasize\n      0x00\n      dup1\n      returndatacopy\n      revert(0x00, returndatasize)\n    tag_257:\n      pop\n      pop\n      pop\n      pop\n      mload(0x40)\n      returndatasize\n      not(0x1f)\n      0x1f\n      dup3\n      add\n      and\n      dup3\n      add\n      dup1\n      0x40\n      mstore\n      pop\n      dup2\n      add\n      swap1\n      tag_258\n      swap2\n      swap1\n      tag_259\n      jump\t// in\n    tag_258:\n        /* \"msc_token/BeePresell.sol\":6088:6148  usdtToken.allowance(msg.sender, address(this)) >= usdtAmount */\n      lt\n      iszero\n        /* \"msc_token/BeePresell.sol\":6080:6180  require(usdtToken.allowance(msg.sender, address(this)) >= usdtAmount, \"usdtToken allowance too low\") */\n      tag_260\n      jumpi\n      mload(0x40)\n      shl(0xe5, 0x461bcd)\n      dup2\n      mstore\n        /* \"#utility.yul\":7802:7804   */\n      0x20\n        /* \"msc_token/BeePresell.sol\":6080:6180  require(usdtToken.allowance(msg.sender, address(this)) >= usdtAmount, \"usdtToken allowance too low\") */\n      0x04\n      dup3\n      add\n        /* \"#utility.yul\":7784:7805   */\n      mstore\n        /* \"#utility.yul\":7841:7843   */\n      0x1b\n        /* \"#utility.yul\":7821:7839   */\n      0x24\n      dup3\n      add\n        /* \"#utility.yul\":7814:7844   */\n      mstore\n        /* \"#utility.yul\":7880:7909   */\n      0x75736474546f6b656e20616c6c6f77616e636520746f6f206c6f770000000000\n        /* \"#utility.yul\":7860:7878   */\n      0x44\n      dup3\n      add\n        /* \"#utility.yul\":7853:7910   */\n      mstore\n        /* \"#utility.yul\":7927:7945   */\n      0x64\n      add\n        /* \"msc_token/BeePresell.sol\":6080:6180  require(usdtToken.allowance(msg.sender, address(this)) >= usdtAmount, \"usdtToken allowance too low\") */\n      tag_167\n        /* \"#utility.yul\":7600:7951   */\n      jump\n        /* \"msc_token/BeePresell.sol\":6080:6180  require(usdtToken.allowance(msg.sender, address(this)) >= usdtAmount, \"usdtToken allowance too low\") */\n    tag_260:\n        /* \"msc_token/BeePresell.sol\":6240:6253  marketAddress */\n      sload(0x03)\n        /* \"msc_token/BeePresell.sol\":6255:6265  usdtAmount */\n      0x04\n      dup1\n      sload\n        /* \"msc_token/BeePresell.sol\":6205:6266  usdtToken.transferFrom(msg.sender, marketAddress, usdtAmount) */\n      mload(0x40)\n      shl(0xe0, 0x23b872dd)\n      dup2\n      mstore\n        /* \"msc_token/BeePresell.sol\":6228:6238  msg.sender */\n      caller\n        /* \"msc_token/BeePresell.sol\":6205:6266  usdtToken.transferFrom(msg.sender, marketAddress, usdtAmount) */\n      swap3\n      dup2\n      add\n        /* \"#utility.yul\":8196:8230   */\n      swap3\n      swap1\n      swap3\n      mstore\n      sub(shl(0xa0, 0x01), 0x01)\n        /* \"msc_token/BeePresell.sol\":6240:6253  marketAddress */\n      swap3\n      dup4\n      and\n        /* \"#utility.yul\":8246:8264   */\n      0x24\n      dup4\n      add\n        /* \"#utility.yul\":8239:8282   */\n      mstore\n        /* \"#utility.yul\":8298:8316   */\n      0x44\n      dup3\n      add\n        /* \"#utility.yul\":8291:8325   */\n      mstore\n        /* \"msc_token/BeePresell.sol\":6193:6202  bool sent */\n      0x00\n      swap2\n        /* \"msc_token/BeePresell.sol\":6205:6214  usdtToken */\n      immutable(\"0xe08e88a25615b4c12f541ce925bac971d7abccd8956f0630ea12130df02d5898\")\n        /* \"msc_token/BeePresell.sol\":6205:6227  usdtToken.transferFrom */\n      and\n      swap1\n      0x23b872dd\n      swap1\n        /* \"#utility.yul\":8131:8149   */\n      0x64\n      add\n        /* \"msc_token/BeePresell.sol\":6205:6266  usdtToken.transferFrom(msg.sender, marketAddress, usdtAmount) */\n      0x20\n      mload(0x40)\n      dup1\n      dup4\n      sub\n      dup2\n      0x00\n      dup8\n      gas\n      call\n      iszero\n      dup1\n      iszero\n      tag_266\n      jumpi\n      returndatasize\n      0x00\n      dup1\n      returndatacopy\n      revert(0x00, returndatasize)\n    tag_266:\n      pop\n      pop\n      pop\n      pop\n      mload(0x40)\n      returndatasize\n      not(0x1f)\n      0x1f\n      dup3\n      add\n      and\n      dup3\n      add\n      dup1\n      0x40\n      mstore\n      pop\n      dup2\n      add\n      swap1\n      tag_267\n      swap2\n      swap1\n      tag_182\n      jump\t// in\n    tag_267:\n        /* \"msc_token/BeePresell.sol\":6193:6266  bool sent = usdtToken.transferFrom(msg.sender, marketAddress, usdtAmount) */\n      swap1\n      pop\n        /* \"msc_token/BeePresell.sol\":6285:6289  sent */\n      dup1\n        /* \"msc_token/BeePresell.sol\":6277:6315  require(sent, \"Token transfer failed\") */\n      tag_268\n      jumpi\n      mload(0x40)\n      shl(0xe5, 0x461bcd)\n      dup2\n      mstore\n      0x04\n      add\n      tag_167\n      swap1\n      tag_185\n      jump\t// in\n    tag_268:\n        /* \"msc_token/BeePresell.sol\":6348:6358  msg.sender */\n      caller\n        /* \"msc_token/BeePresell.sol\":6326:6359  userPresellBalanceMap[msg.sender] */\n      0x00\n      swap1\n      dup2\n      mstore\n        /* \"msc_token/BeePresell.sol\":6326:6347  userPresellBalanceMap */\n      0x09\n        /* \"msc_token/BeePresell.sol\":6326:6359  userPresellBalanceMap[msg.sender] */\n      0x20\n      swap1\n      dup2\n      mstore\n      0x40\n      dup1\n      dup4\n      keccak256\n        /* \"msc_token/BeePresell.sol\":6326:6366  userPresellBalanceMap[msg.sender] = true */\n      dup1\n      sload\n        /* \"msc_token/BeePresell.sol\":6362:6366  true */\n      0x01\n      not(0xff)\n        /* \"msc_token/BeePresell.sol\":6326:6366  userPresellBalanceMap[msg.sender] = true */\n      swap2\n      dup3\n      and\n      dup2\n      or\n      swap1\n      swap3\n      sstore\n        /* \"msc_token/BeePresell.sol\":6377:6383  hasBuy */\n      0x0b\n        /* \"msc_token/BeePresell.sol\":6377:6395  hasBuy[msg.sender] */\n      swap1\n      swap4\n      mstore\n      swap1\n      dup4\n      keccak256\n        /* \"msc_token/BeePresell.sol\":6377:6402  hasBuy[msg.sender] = true */\n      dup1\n      sload\n      swap1\n      swap3\n      and\n      or\n      swap1\n      sstore\n        /* \"msc_token/BeePresell.sol\":6413:6420  counter */\n      0x07\n        /* \"msc_token/BeePresell.sol\":6413:6422  counter++ */\n      dup1\n      sload\n      0xffffffff\n      and\n      swap2\n      tag_270\n      dup4\n      tag_221\n      jump\t// in\n    tag_270:\n      swap2\n      swap1\n      0x0100\n      exp\n      dup2\n      sload\n      dup2\n      0xffffffff\n      mul\n      not\n      and\n      swap1\n      dup4\n      0xffffffff\n      and\n      mul\n      or\n      swap1\n      sstore\n      pop\n      pop\n        /* \"msc_token/BeePresell.sol\":5892:6430  {... */\n      pop\n        /* \"msc_token/BeePresell.sol\":5864:6430  function buyTokens() public {... */\n      jump\t// out\n        /* \"msc_token/BeePresell.sol\":2090:2291  function transferOwnership(address newOwner) public virtual onlyOwner {... */\n    tag_158:\n        /* \"msc_token/BeePresell.sol\":1227:1234  address */\n      0x00\n        /* \"msc_token/BeePresell.sol\":1254:1260  _owner */\n      sload\n      sub(shl(0xa0, 0x01), 0x01)\n      and\n        /* \"msc_token/BeePresell.sol\":635:645  msg.sender */\n      caller\n        /* \"msc_token/BeePresell.sol\":1401:1424  owner() == _msgSender() */\n      eq\n        /* \"msc_token/BeePresell.sol\":1393:1461  require(owner() == _msgSender(), \"Ownable: caller is not the owner\") */\n      tag_277\n      jumpi\n      mload(0x40)\n      shl(0xe5, 0x461bcd)\n      dup2\n      mstore\n      0x04\n      add\n      tag_167\n      swap1\n      tag_168\n      jump\t// in\n    tag_277:\n      sub(shl(0xa0, 0x01), 0x01)\n        /* \"msc_token/BeePresell.sol\":2179:2201  newOwner != address(0) */\n      dup2\n      and\n        /* \"msc_token/BeePresell.sol\":2171:2244  require(newOwner != address(0), \"Ownable: new owner is the zero address\") */\n      tag_280\n      jumpi\n      mload(0x40)\n      shl(0xe5, 0x461bcd)\n      dup2\n      mstore\n        /* \"#utility.yul\":8538:8540   */\n      0x20\n        /* \"msc_token/BeePresell.sol\":2171:2244  require(newOwner != address(0), \"Ownable: new owner is the zero address\") */\n      0x04\n      dup3\n      add\n        /* \"#utility.yul\":8520:8541   */\n      mstore\n        /* \"#utility.yul\":8577:8579   */\n      0x26\n        /* \"#utility.yul\":8557:8575   */\n      0x24\n      dup3\n      add\n        /* \"#utility.yul\":8550:8580   */\n      mstore\n        /* \"#utility.yul\":8616:8650   */\n      0x4f776e61626c653a206e6577206f776e657220697320746865207a65726f2061\n        /* \"#utility.yul\":8596:8614   */\n      0x44\n      dup3\n      add\n        /* \"#utility.yul\":8589:8651   */\n      mstore\n      shl(0xd0, 0x646472657373)\n        /* \"#utility.yul\":8667:8685   */\n      0x64\n      dup3\n      add\n        /* \"#utility.yul\":8660:8696   */\n      mstore\n        /* \"#utility.yul\":8713:8732   */\n      0x84\n      add\n        /* \"msc_token/BeePresell.sol\":2171:2244  require(newOwner != address(0), \"Ownable: new owner is the zero address\") */\n      tag_167\n        /* \"#utility.yul\":8336:8738   */\n      jump\n        /* \"msc_token/BeePresell.sol\":2171:2244  require(newOwner != address(0), \"Ownable: new owner is the zero address\") */\n    tag_280:\n        /* \"msc_token/BeePresell.sol\":2255:2283  _transferOwnership(newOwner) */\n      tag_283\n        /* \"msc_token/BeePresell.sol\":2274:2282  newOwner */\n      dup2\n        /* \"msc_token/BeePresell.sol\":2255:2273  _transferOwnership */\n      tag_207\n        /* \"msc_token/BeePresell.sol\":2255:2283  _transferOwnership(newOwner) */\n      jump\t// in\n    tag_283:\n        /* \"msc_token/BeePresell.sol\":2090:2291  function transferOwnership(address newOwner) public virtual onlyOwner {... */\n      pop\n      jump\t// out\n        /* \"msc_token/BeePresell.sol\":7414:7522  function setMarketAddress(address newAddress) public onlyOwner {... */\n    tag_161:\n        /* \"msc_token/BeePresell.sol\":1227:1234  address */\n      0x00\n        /* \"msc_token/BeePresell.sol\":1254:1260  _owner */\n      sload\n      sub(shl(0xa0, 0x01), 0x01)\n      and\n        /* \"msc_token/BeePresell.sol\":635:645  msg.sender */\n      caller\n        /* \"msc_token/BeePresell.sol\":1401:1424  owner() == _msgSender() */\n      eq\n        /* \"msc_token/BeePresell.sol\":1393:1461  require(owner() == _msgSender(), \"Ownable: caller is not the owner\") */\n      tag_287\n      jumpi\n      mload(0x40)\n      shl(0xe5, 0x461bcd)\n      dup2\n      mstore\n      0x04\n      add\n      tag_167\n      swap1\n      tag_168\n      jump\t// in\n    tag_287:\n        /* \"msc_token/BeePresell.sol\":7488:7501  marketAddress */\n      0x03\n        /* \"msc_token/BeePresell.sol\":7488:7514  marketAddress = newAddress */\n      dup1\n      sload\n      not(sub(shl(0xa0, 0x01), 0x01))\n      and\n      sub(shl(0xa0, 0x01), 0x01)\n      swap3\n      swap1\n      swap3\n      and\n      swap2\n      swap1\n      swap2\n      or\n      swap1\n      sstore\n        /* \"msc_token/BeePresell.sol\":7414:7522  function setMarketAddress(address newAddress) public onlyOwner {... */\n      jump\t// out\n        /* \"msc_token/BeePresell.sol\":2451:2642  function _transferOwnership(address newOwner) internal virtual {... */\n    tag_207:\n        /* \"msc_token/BeePresell.sol\":2525:2541  address oldOwner */\n      0x00\n        /* \"msc_token/BeePresell.sol\":2544:2550  _owner */\n      dup1\n      sload\n      sub(shl(0xa0, 0x01), 0x01)\n        /* \"msc_token/BeePresell.sol\":2561:2578  _owner = newOwner */\n      dup4\n      dup2\n      and\n      not(sub(shl(0xa0, 0x01), 0x01))\n      dup4\n      and\n      dup2\n      or\n      dup5\n      sstore\n        /* \"msc_token/BeePresell.sol\":2594:2634  OwnershipTransferred(oldOwner, newOwner) */\n      mload(0x40)\n        /* \"msc_token/BeePresell.sol\":2544:2550  _owner */\n      swap2\n      swap1\n      swap3\n      and\n      swap3\n      dup4\n      swap2\n        /* \"msc_token/BeePresell.sol\":2594:2634  OwnershipTransferred(oldOwner, newOwner) */\n      0x8be0079c531659141344cd1fd0a4f28419497f9722a3daafe3b4186f6b6457e0\n      swap2\n        /* \"msc_token/BeePresell.sol\":2525:2541  address oldOwner */\n      swap1\n        /* \"msc_token/BeePresell.sol\":2594:2634  OwnershipTransferred(oldOwner, newOwner) */\n      log3\n        /* \"msc_token/BeePresell.sol\":2514:2642  {... */\n      pop\n        /* \"msc_token/BeePresell.sol\":2451:2642  function _transferOwnership(address newOwner) internal virtual {... */\n      pop\n      jump\t// out\n        /* \"#utility.yul\":222:508   */\n    tag_50:\n        /* \"#utility.yul\":281:287   */\n      0x00\n        /* \"#utility.yul\":334:336   */\n      0x20\n        /* \"#utility.yul\":322:331   */\n      dup3\n        /* \"#utility.yul\":313:320   */\n      dup5\n        /* \"#utility.yul\":309:332   */\n      sub\n        /* \"#utility.yul\":305:337   */\n      slt\n        /* \"#utility.yul\":302:354   */\n      iszero\n      tag_296\n      jumpi\n        /* \"#utility.yul\":350:351   */\n      0x00\n        /* \"#utility.yul\":347:348   */\n      dup1\n        /* \"#utility.yul\":340:352   */\n      revert\n        /* \"#utility.yul\":302:354   */\n    tag_296:\n        /* \"#utility.yul\":376:399   */\n      dup2\n      calldataload\n      sub(shl(0xa0, 0x01), 0x01)\n        /* \"#utility.yul\":428:459   */\n      dup2\n      and\n        /* \"#utility.yul\":418:460   */\n      dup2\n      eq\n        /* \"#utility.yul\":408:478   */\n      tag_297\n      jumpi\n        /* \"#utility.yul\":474:475   */\n      0x00\n        /* \"#utility.yul\":471:472   */\n      dup1\n        /* \"#utility.yul\":464:476   */\n      revert\n        /* \"#utility.yul\":408:478   */\n    tag_297:\n        /* \"#utility.yul\":497:502   */\n      swap4\n        /* \"#utility.yul\":222:508   */\n      swap3\n      pop\n      pop\n      pop\n      jump\t// out\n        /* \"#utility.yul\":792:972   */\n    tag_56:\n        /* \"#utility.yul\":851:857   */\n      0x00\n        /* \"#utility.yul\":904:906   */\n      0x20\n        /* \"#utility.yul\":892:901   */\n      dup3\n        /* \"#utility.yul\":883:890   */\n      dup5\n        /* \"#utility.yul\":879:902   */\n      sub\n        /* \"#utility.yul\":875:907   */\n      slt\n        /* \"#utility.yul\":872:924   */\n      iszero\n      tag_300\n      jumpi\n        /* \"#utility.yul\":920:921   */\n      0x00\n        /* \"#utility.yul\":917:918   */\n      dup1\n        /* \"#utility.yul\":910:922   */\n      revert\n        /* \"#utility.yul\":872:924   */\n    tag_300:\n      pop\n        /* \"#utility.yul\":943:966   */\n      calldataload\n      swap2\n        /* \"#utility.yul\":792:972   */\n      swap1\n      pop\n      jump\t// out\n        /* \"#utility.yul\":1974:2632   */\n    tag_124:\n        /* \"#utility.yul\":2145:2147   */\n      0x20\n        /* \"#utility.yul\":2197:2218   */\n      dup1\n      dup3\n      mstore\n        /* \"#utility.yul\":2267:2280   */\n      dup3\n      mload\n        /* \"#utility.yul\":2170:2188   */\n      dup3\n      dup3\n      add\n        /* \"#utility.yul\":2289:2311   */\n      dup2\n      swap1\n      mstore\n        /* \"#utility.yul\":2116:2120   */\n      0x00\n      swap2\n        /* \"#utility.yul\":2145:2147   */\n      swap1\n        /* \"#utility.yul\":2368:2383   */\n      dup5\n      dup3\n      add\n      swap1\n        /* \"#utility.yul\":2342:2344   */\n      0x40\n        /* \"#utility.yul\":2327:2345   */\n      dup6\n      add\n      swap1\n        /* \"#utility.yul\":2116:2120   */\n      dup5\n        /* \"#utility.yul\":2411:2606   */\n    tag_307:\n        /* \"#utility.yul\":2425:2431   */\n      dup2\n        /* \"#utility.yul\":2422:2423   */\n      dup2\n        /* \"#utility.yul\":2419:2432   */\n      lt\n        /* \"#utility.yul\":2411:2606   */\n      iszero\n      tag_309\n      jumpi\n        /* \"#utility.yul\":2490:2503   */\n      dup4\n      mload\n      sub(shl(0xa0, 0x01), 0x01)\n        /* \"#utility.yul\":2486:2525   */\n      and\n        /* \"#utility.yul\":2474:2526   */\n      dup4\n      mstore\n        /* \"#utility.yul\":2581:2596   */\n      swap3\n      dup5\n      add\n      swap3\n        /* \"#utility.yul\":2546:2558   */\n      swap2\n      dup5\n      add\n      swap2\n        /* \"#utility.yul\":2522:2523   */\n      0x01\n        /* \"#utility.yul\":2440:2449   */\n      add\n        /* \"#utility.yul\":2411:2606   */\n      jump(tag_307)\n    tag_309:\n      pop\n        /* \"#utility.yul\":2623:2626   */\n      swap1\n      swap7\n        /* \"#utility.yul\":1974:2632   */\n      swap6\n      pop\n      pop\n      pop\n      pop\n      pop\n      pop\n      jump\t// out\n        /* \"#utility.yul\":2637:2993   */\n    tag_168:\n        /* \"#utility.yul\":2839:2841   */\n      0x20\n        /* \"#utility.yul\":2821:2842   */\n      dup1\n      dup3\n      mstore\n        /* \"#utility.yul\":2858:2876   */\n      dup2\n      dup2\n      add\n        /* \"#utility.yul\":2851:2881   */\n      mstore\n        /* \"#utility.yul\":2917:2951   */\n      0x4f776e61626c653a2063616c6c6572206973206e6f7420746865206f776e6572\n        /* \"#utility.yul\":2912:2914   */\n      0x40\n        /* \"#utility.yul\":2897:2915   */\n      dup3\n      add\n        /* \"#utility.yul\":2890:2952   */\n      mstore\n        /* \"#utility.yul\":2984:2986   */\n      0x60\n        /* \"#utility.yul\":2969:2987   */\n      add\n      swap1\n        /* \"#utility.yul\":2637:2993   */\n      jump\t// out\n        /* \"#utility.yul\":3686:3963   */\n    tag_182:\n        /* \"#utility.yul\":3753:3759   */\n      0x00\n        /* \"#utility.yul\":3806:3808   */\n      0x20\n        /* \"#utility.yul\":3794:3803   */\n      dup3\n        /* \"#utility.yul\":3785:3792   */\n      dup5\n        /* \"#utility.yul\":3781:3804   */\n      sub\n        /* \"#utility.yul\":3777:3809   */\n      slt\n        /* \"#utility.yul\":3774:3826   */\n      iszero\n      tag_314\n      jumpi\n        /* \"#utility.yul\":3822:3823   */\n      0x00\n        /* \"#utility.yul\":3819:3820   */\n      dup1\n        /* \"#utility.yul\":3812:3824   */\n      revert\n        /* \"#utility.yul\":3774:3826   */\n    tag_314:\n        /* \"#utility.yul\":3854:3863   */\n      dup2\n        /* \"#utility.yul\":3848:3864   */\n      mload\n        /* \"#utility.yul\":3907:3912   */\n      dup1\n        /* \"#utility.yul\":3900:3913   */\n      iszero\n        /* \"#utility.yul\":3893:3914   */\n      iszero\n        /* \"#utility.yul\":3886:3891   */\n      dup2\n        /* \"#utility.yul\":3883:3915   */\n      eq\n        /* \"#utility.yul\":3873:3933   */\n      tag_297\n      jumpi\n        /* \"#utility.yul\":3929:3930   */\n      0x00\n        /* \"#utility.yul\":3926:3927   */\n      dup1\n        /* \"#utility.yul\":3919:3931   */\n      revert\n        /* \"#utility.yul\":3968:4313   */\n    tag_185:\n        /* \"#utility.yul\":4170:4172   */\n      0x20\n        /* \"#utility.yul\":4152:4173   */\n      dup1\n      dup3\n      mstore\n        /* \"#utility.yul\":4209:4211   */\n      0x15\n        /* \"#utility.yul\":4189:4207   */\n      swap1\n      dup3\n      add\n        /* \"#utility.yul\":4182:4212   */\n      mstore\n      shl(0x5a, 0x151bdad95b881d1c985b9cd9995c8819985a5b1959)\n        /* \"#utility.yul\":4243:4245   */\n      0x40\n        /* \"#utility.yul\":4228:4246   */\n      dup3\n      add\n        /* \"#utility.yul\":4221:4272   */\n      mstore\n        /* \"#utility.yul\":4304:4306   */\n      0x60\n        /* \"#utility.yul\":4289:4307   */\n      add\n      swap1\n        /* \"#utility.yul\":3968:4313   */\n      jump\t// out\n        /* \"#utility.yul\":4318:4445   */\n    tag_292:\n        /* \"#utility.yul\":4379:4389   */\n      0x4e487b71\n        /* \"#utility.yul\":4374:4377   */\n      0xe0\n        /* \"#utility.yul\":4370:4390   */\n      shl\n        /* \"#utility.yul\":4367:4368   */\n      0x00\n        /* \"#utility.yul\":4360:4391   */\n      mstore\n        /* \"#utility.yul\":4410:4414   */\n      0x11\n        /* \"#utility.yul\":4407:4408   */\n      0x04\n        /* \"#utility.yul\":4400:4415   */\n      mstore\n        /* \"#utility.yul\":4434:4438   */\n      0x24\n        /* \"#utility.yul\":4431:4432   */\n      0x00\n        /* \"#utility.yul\":4424:4439   */\n      revert\n        /* \"#utility.yul\":4450:4667   */\n    tag_210:\n        /* \"#utility.yul\":4490:4491   */\n      0x00\n        /* \"#utility.yul\":4516:4517   */\n      dup3\n        /* \"#utility.yul\":4506:4638   */\n      tag_319\n      jumpi\n        /* \"#utility.yul\":4560:4570   */\n      0x4e487b71\n        /* \"#utility.yul\":4555:4558   */\n      0xe0\n        /* \"#utility.yul\":4551:4571   */\n      shl\n        /* \"#utility.yul\":4548:4549   */\n      0x00\n        /* \"#utility.yul\":4541:4572   */\n      mstore\n        /* \"#utility.yul\":4595:4599   */\n      0x12\n        /* \"#utility.yul\":4592:4593   */\n      0x04\n        /* \"#utility.yul\":4585:4600   */\n      mstore\n        /* \"#utility.yul\":4623:4627   */\n      0x24\n        /* \"#utility.yul\":4620:4621   */\n      0x00\n        /* \"#utility.yul\":4613:4628   */\n      revert\n        /* \"#utility.yul\":4506:4638   */\n    tag_319:\n      pop\n        /* \"#utility.yul\":4652:4661   */\n      div\n      swap1\n        /* \"#utility.yul\":4450:4667   */\n      jump\t// out\n        /* \"#utility.yul\":5360:5561   */\n    tag_221:\n        /* \"#utility.yul\":5398:5401   */\n      0x00\n        /* \"#utility.yul\":5426:5436   */\n      0xffffffff\n        /* \"#utility.yul\":5471:5473   */\n      dup1\n        /* \"#utility.yul\":5464:5469   */\n      dup4\n        /* \"#utility.yul\":5460:5474   */\n      and\n        /* \"#utility.yul\":5498:5500   */\n      dup2\n        /* \"#utility.yul\":5489:5496   */\n      dup2\n        /* \"#utility.yul\":5486:5501   */\n      sub\n        /* \"#utility.yul\":5483:5524   */\n      tag_324\n      jumpi\n        /* \"#utility.yul\":5504:5522   */\n      tag_324\n      tag_292\n      jump\t// in\n    tag_324:\n        /* \"#utility.yul\":5553:5554   */\n      0x01\n        /* \"#utility.yul\":5540:5555   */\n      add\n      swap4\n        /* \"#utility.yul\":5360:5561   */\n      swap3\n      pop\n      pop\n      pop\n      jump\t// out\n        /* \"#utility.yul\":5566:5734   */\n    tag_228:\n        /* \"#utility.yul\":5606:5613   */\n      0x00\n        /* \"#utility.yul\":5672:5673   */\n      dup2\n        /* \"#utility.yul\":5668:5669   */\n      0x00\n        /* \"#utility.yul\":5664:5670   */\n      not\n        /* \"#utility.yul\":5660:5674   */\n      div\n        /* \"#utility.yul\":5657:5658   */\n      dup4\n        /* \"#utility.yul\":5654:5675   */\n      gt\n        /* \"#utility.yul\":5649:5650   */\n      dup3\n        /* \"#utility.yul\":5642:5651   */\n      iszero\n        /* \"#utility.yul\":5635:5652   */\n      iszero\n        /* \"#utility.yul\":5631:5676   */\n      and\n        /* \"#utility.yul\":5628:5699   */\n      iszero\n      tag_327\n      jumpi\n        /* \"#utility.yul\":5679:5697   */\n      tag_327\n      tag_292\n      jump\t// in\n    tag_327:\n      pop\n        /* \"#utility.yul\":5719:5728   */\n      mul\n      swap1\n        /* \"#utility.yul\":5566:5734   */\n      jump\t// out\n        /* \"#utility.yul\":7411:7595   */\n    tag_259:\n        /* \"#utility.yul\":7481:7487   */\n      0x00\n        /* \"#utility.yul\":7534:7536   */\n      0x20\n        /* \"#utility.yul\":7522:7531   */\n      dup3\n        /* \"#utility.yul\":7513:7520   */\n      dup5\n        /* \"#utility.yul\":7509:7532   */\n      sub\n        /* \"#utility.yul\":7505:7537   */\n      slt\n        /* \"#utility.yul\":7502:7554   */\n      iszero\n      tag_334\n      jumpi\n        /* \"#utility.yul\":7550:7551   */\n      0x00\n        /* \"#utility.yul\":7547:7548   */\n      dup1\n        /* \"#utility.yul\":7540:7552   */\n      revert\n        /* \"#utility.yul\":7502:7554   */\n    tag_334:\n      pop\n        /* \"#utility.yul\":7573:7589   */\n      mload\n      swap2\n        /* \"#utility.yul\":7411:7595   */\n      swap1\n      pop\n      jump\t// out\n\n    auxdata: 0xa26469706673582212208878af223aa8d1760e90072dcd3029094492b10ae4e371403c333bf76f92e96064736f6c634300080d0033\n}\n",
				"bytecode": {
					"linkReferences": {},
					"object": "60c0604052600180546001600160a01b031990811673eda5da0050e21e9e34fadb1075986af1370c7bdb1790915560028054821673978990b8cc2636fc159ce6f40b9c5cc7aa0623a61790556003805490911673e3e90697218f31b8d0867b8a9c52947d3c888339179055670de0b6b3a76400006004556a03cfc82e37e9a7400000006005556956bc75e2d63100000000600655348015620000a057600080fd5b506040516200151e3803806200151e833981016040819052620000c39162000235565b620000ce33620001c8565b42826001600160401b031610156200011e5760405162461bcd60e51b815260206004820152600e60248201526d7374617274206174203c206e6f7760901b60448201526064015b60405180910390fd5b816001600160401b0316816001600160401b03161015620001765760405162461bcd60e51b8152602060048201526011602482015270195b9908185d080f081cdd185c9d08185d607a1b604482015260640162000115565b600c80546001600160401b0392831668010000000000000000026001600160801b031990911692909316919091179190911790556001546001600160a01b039081166080526002541660a0526200026d565b600080546001600160a01b038381166001600160a01b0319831681178455604051919092169283917f8be0079c531659141344cd1fd0a4f28419497f9722a3daafe3b4186f6b6457e09190a35050565b80516001600160401b03811681146200023057600080fd5b919050565b600080604083850312156200024957600080fd5b620002548362000218565b9150620002646020840162000218565b90509250929050565b60805160a051611268620002b6600039600081816104320152818161068b015281816107b30152610b7801526000818161047c01528181610d6a0152610e5901526112686000f3fe608060405234801561001057600080fd5b50600436106102065760003560e01c8063956236411161011a578063c828371e116100ad578063d35cde411161007c578063d35cde411461055f578063e4eef89614610567578063f01fc57c14610570578063f2fde38b1461057e578063fae926121461059157600080fd5b8063c828371e14610511578063c9ede79314610523578063d0febe4c1461052b578063d139f56d1461053357600080fd5b8063a98b9144116100e9578063a98b91441461049e578063b9f9231a146104be578063c556feca146104d1578063c7446565146104fd57600080fd5b8063956236411461041a5780639769f0b01461042d5780639e2a041814610454578063a98ad46c1461047757600080fd5b80636531e61c1161019d5780637cc3ae8c1161016c5780637cc3ae8c146103a557806388af60c6146103c05780638da5cb5b146103d35780639018c818146103e457806390f5881a146103f757600080fd5b80636531e61c1461035c5780636de34ce01461036f578063715018a61461038757806378eb6c6f1461038f57600080fd5b8063374eedef116101d9578063374eedef146102aa5780633d719da7146102e6578063439f5ac21461030957806361bc221a1461033757600080fd5b8063027734fa1461020b5780631eb43f1a1461023b578063271f88b41461028d578063304d8dea146102a2575b600080fd5b60025461021e906001600160a01b031681565b6040516001600160a01b0390911681526020015b60405180910390f35b61026e610249366004611083565b600860205260009081526040902080546002909101546001600160a01b039091169082565b604080516001600160a01b039093168352602083019190915201610232565b6102a061029b3660046110b3565b6105a4565b005b6102a06105dc565b6102d66102b8366004611083565b6001600160a01b03166000908152600b602052604090205460ff1690565b6040519015158152602001610232565b6102d66102f4366004611083565b600b6020526000908152604090205460ff1681565b600c54600160401b900467ffffffffffffffff165b60405167ffffffffffffffff9091168152602001610232565b6007546103479063ffffffff1681565b60405163ffffffff9091168152602001610232565b6102a061036a3660046110b3565b61076a565b60075461034790640100000000900463ffffffff1681565b6102a061084b565b610397610881565b604051908152602001610232565b600c5461031e90600160401b900467ffffffffffffffff1681565b60015461021e906001600160a01b031681565b6000546001600160a01b031661021e565b6102d66103f2366004611083565b6108a1565b6102d6610405366004611083565b60096020526000908152604090205460ff1681565b60035461021e906001600160a01b031681565b61021e7f000000000000000000000000000000000000000000000000000000000000000081565b6102d6610462366004611083565b600a6020526000908152604090205460ff1681565b61021e7f000000000000000000000000000000000000000000000000000000000000000081565b6104b16104ac366004611083565b610a05565b60405161023291906110cc565b6103976104cc366004611083565b610a7e565b6103976104df366004611083565b6001600160a01b031660009081526008602052604090206001015490565b600c5461031e9067ffffffffffffffff1681565b600c5467ffffffffffffffff1661031e565b6102a0610ac8565b6102a0610c56565b61021e610541366004611083565b6001600160a01b039081166000908152600860205260409020541690565b600454610397565b61039760045481565b60075463ffffffff1661031e565b6102a061058c366004611083565b610f4c565b6102a061059f366004611083565b610fe7565b6000546001600160a01b031633146105d75760405162461bcd60e51b81526004016105ce90611119565b60405180910390fd5b600455565b600c5442600160401b90910467ffffffffffffffff16106106315760405162461bcd60e51b815260206004820152600f60248201526e1c1c995cd95b1b081b9bdd08195b99608a1b60448201526064016105ce565b336000908152600a602052604090205460ff1615156001146106875760405162461bcd60e51b815260206004820152600f60248201526e75736572206e6f7420696e7669746560881b60448201526064016105ce565b60007f00000000000000000000000000000000000000000000000000000000000000006001600160a01b031663a9059cbb336106c233610a7e565b6040516001600160e01b031960e085901b1681526001600160a01b03909216600483015260248201526044016020604051808303816000875af115801561070d573d6000803e3d6000fd5b505050506040513d601f19601f82011682018060405250810190610731919061114e565b9050806107505760405162461bcd60e51b81526004016105ce90611170565b50336000908152600a60205260409020805460ff19169055565b6000546001600160a01b031633146107945760405162461bcd60e51b81526004016105ce90611119565b60405163a9059cbb60e01b8152336004820152602481018290526000907f00000000000000000000000000000000000000000000000000000000000000006001600160a01b03169063a9059cbb906044016020604051808303816000875af1158015610804573d6000803e3d6000fd5b505050506040513d601f19601f82011682018060405250810190610828919061114e565b9050806108475760405162461bcd60e51b81526004016105ce90611170565b5050565b6000546001600160a01b031633146108755760405162461bcd60e51b81526004016105ce90611119565b61087f6000611033565b565b60075460055460009161089c9163ffffffff909116906111b5565b905090565b6001600160a01b0381166000908152600b602052604081205460ff166108fd5760405162461bcd60e51b81526020600482015260116024820152704265653a7570706572206e6f742062757960781b60448201526064016105ce565b6001600160a01b03821633036109455760405162461bcd60e51b815260206004820152600d60248201526c2132b29d2327a92124a22222a760991b60448201526064016105ce565b33600090815260086020908152604080832080546001600160a01b0387166001600160a01b031991821681178355436002808501829055828852858820908101919091556001818101805480830182559089528789200180549094168317909355908652600a90945291909320805460ff19169091179055600780546004906109dc9063ffffffff640100000000909104166111d7565b91906101000a81548163ffffffff021916908363ffffffff160217905550600192505050919050565b6001600160a01b038116600090815260086020908152604091829020600101805483518184028101840190945280845260609392830182828015610a7257602002820191906000526020600020905b81546001600160a01b03168152600190910190602001808311610a54575b50505050509050919050565b6001600160a01b038116600090815260086020526040812060010154600754600654610ab891640100000000900463ffffffff16906111b5565b610ac291906111fa565b92915050565b600c5442600160401b90910467ffffffffffffffff1610610b1d5760405162461bcd60e51b815260206004820152600f60248201526e1c1c995cd95b1b081b9bdd08195b99608a1b60448201526064016105ce565b3360009081526009602052604090205460ff161515600114610b745760405162461bcd60e51b815260206004820152601060248201526f1d5cd95c881b9bdd081c1c995cd95b1b60821b60448201526064016105ce565b60007f00000000000000000000000000000000000000000000000000000000000000006001600160a01b031663a9059cbb33610bae610881565b6040516001600160e01b031960e085901b1681526001600160a01b03909216600483015260248201526044016020604051808303816000875af1158015610bf9573d6000803e3d6000fd5b505050506040513d601f19601f82011682018060405250810190610c1d919061114e565b905080610c3c5760405162461bcd60e51b81526004016105ce90611170565b50336000908152600960205260409020805460ff19169055565b600c544267ffffffffffffffff90911610610c9f5760405162461bcd60e51b81526020600482015260096024820152681b9bdd081cdd185c9d60ba1b60448201526064016105ce565b600c5442600160401b90910467ffffffffffffffff1611610cec5760405162461bcd60e51b81526020600482015260076024820152661a185cc8195b9960ca1b60448201526064016105ce565b336000908152600b602052604090205460ff1615610d405760405162461bcd60e51b8152602060048201526011602482015270185b1c9958591e481c1d5c98da185cd959607a1b60448201526064016105ce565b60048054604051636eb1769f60e11b81523392810192909252306024830152906001600160a01b037f0000000000000000000000000000000000000000000000000000000000000000169063dd62ed3e90604401602060405180830381865afa158015610db1573d6000803e3d6000fd5b505050506040513d601f19601f82011682018060405250810190610dd59190611219565b1015610e235760405162461bcd60e51b815260206004820152601b60248201527f75736474546f6b656e20616c6c6f77616e636520746f6f206c6f77000000000060448201526064016105ce565b600354600480546040516323b872dd60e01b815233928101929092526001600160a01b03928316602483015260448201526000917f000000000000000000000000000000000000000000000000000000000000000016906323b872dd906064016020604051808303816000875af1158015610ea2573d6000803e3d6000fd5b505050506040513d601f19601f82011682018060405250810190610ec6919061114e565b905080610ee55760405162461bcd60e51b81526004016105ce90611170565b3360009081526009602090815260408083208054600160ff199182168117909255600b90935290832080549092161790556007805463ffffffff1691610f2a836111d7565b91906101000a81548163ffffffff021916908363ffffffff1602179055505050565b6000546001600160a01b03163314610f765760405162461bcd60e51b81526004016105ce90611119565b6001600160a01b038116610fdb5760405162461bcd60e51b815260206004820152602660248201527f4f776e61626c653a206e6577206f776e657220697320746865207a65726f206160448201526564647265737360d01b60648201526084016105ce565b610fe481611033565b50565b6000546001600160a01b031633146110115760405162461bcd60e51b81526004016105ce90611119565b600380546001600160a01b0319166001600160a01b0392909216919091179055565b600080546001600160a01b038381166001600160a01b0319831681178455604051919092169283917f8be0079c531659141344cd1fd0a4f28419497f9722a3daafe3b4186f6b6457e09190a35050565b60006020828403121561109557600080fd5b81356001600160a01b03811681146110ac57600080fd5b9392505050565b6000602082840312156110c557600080fd5b5035919050565b6020808252825182820181905260009190848201906040850190845b8181101561110d5783516001600160a01b0316835292840192918401916001016110e8565b50909695505050505050565b6020808252818101527f4f776e61626c653a2063616c6c6572206973206e6f7420746865206f776e6572604082015260600190565b60006020828403121561116057600080fd5b815180151581146110ac57600080fd5b602080825260159082015274151bdad95b881d1c985b9cd9995c8819985a5b1959605a1b604082015260600190565b634e487b7160e01b600052601160045260246000fd5b6000826111d257634e487b7160e01b600052601260045260246000fd5b500490565b600063ffffffff8083168181036111f0576111f061119f565b6001019392505050565b60008160001904831182151516156112145761121461119f565b500290565b60006020828403121561122b57600080fd5b505191905056fea26469706673582212208878af223aa8d1760e90072dcd3029094492b10ae4e371403c333bf76f92e96064736f6c634300080d0033",
					"opcodes": "PUSH1 0xC0 PUSH1 0x40 MSTORE PUSH1 0x1 DUP1 SLOAD PUSH1 0x1 PUSH1 0x1 PUSH1 0xA0 SHL SUB NOT SWAP1 DUP2 AND PUSH20 0xEDA5DA0050E21E9E34FADB1075986AF1370C7BDB OR SWAP1 SWAP2 SSTORE PUSH1 0x2 DUP1 SLOAD DUP3 AND PUSH20 0x978990B8CC2636FC159CE6F40B9C5CC7AA0623A6 OR SWAP1 SSTORE PUSH1 0x3 DUP1 SLOAD SWAP1 SWAP2 AND PUSH20 0xE3E90697218F31B8D0867B8A9C52947D3C888339 OR SWAP1 SSTORE PUSH8 0xDE0B6B3A7640000 PUSH1 0x4 SSTORE PUSH11 0x3CFC82E37E9A740000000 PUSH1 0x5 SSTORE PUSH10 0x56BC75E2D63100000000 PUSH1 0x6 SSTORE CALLVALUE DUP1 ISZERO PUSH3 0xA0 JUMPI PUSH1 0x0 DUP1 REVERT JUMPDEST POP PUSH1 0x40 MLOAD PUSH3 0x151E CODESIZE SUB DUP1 PUSH3 0x151E DUP4 CODECOPY DUP2 ADD PUSH1 0x40 DUP2 SWAP1 MSTORE PUSH3 0xC3 SWAP2 PUSH3 0x235 JUMP JUMPDEST PUSH3 0xCE CALLER PUSH3 0x1C8 JUMP JUMPDEST TIMESTAMP DUP3 PUSH1 0x1 PUSH1 0x1 PUSH1 0x40 SHL SUB AND LT ISZERO PUSH3 0x11E JUMPI PUSH1 0x40 MLOAD PUSH3 0x461BCD PUSH1 0xE5 SHL DUP2 MSTORE PUSH1 0x20 PUSH1 0x4 DUP3 ADD MSTORE PUSH1 0xE PUSH1 0x24 DUP3 ADD MSTORE PUSH14 0x7374617274206174203C206E6F77 PUSH1 0x90 SHL PUSH1 0x44 DUP3 ADD MSTORE PUSH1 0x64 ADD JUMPDEST PUSH1 0x40 MLOAD DUP1 SWAP2 SUB SWAP1 REVERT JUMPDEST DUP2 PUSH1 0x1 PUSH1 0x1 PUSH1 0x40 SHL SUB AND DUP2 PUSH1 0x1 PUSH1 0x1 PUSH1 0x40 SHL SUB AND LT ISZERO PUSH3 0x176 JUMPI PUSH1 0x40 MLOAD PUSH3 0x461BCD PUSH1 0xE5 SHL DUP2 MSTORE PUSH1 0x20 PUSH1 0x4 DUP3 ADD MSTORE PUSH1 0x11 PUSH1 0x24 DUP3 ADD MSTORE PUSH17 0x195B9908185D080F081CDD185C9D08185D PUSH1 0x7A SHL PUSH1 0x44 DUP3 ADD MSTORE PUSH1 0x64 ADD PUSH3 0x115 JUMP JUMPDEST PUSH1 0xC DUP1 SLOAD PUSH1 0x1 PUSH1 0x1 PUSH1 0x40 SHL SUB SWAP3 DUP4 AND PUSH9 0x10000000000000000 MUL PUSH1 0x1 PUSH1 0x1 PUSH1 0x80 SHL SUB NOT SWAP1 SWAP2 AND SWAP3 SWAP1 SWAP4 AND SWAP2 SWAP1 SWAP2 OR SWAP2 SWAP1 SWAP2 OR SWAP1 SSTORE PUSH1 0x1 SLOAD PUSH1 0x1 PUSH1 0x1 PUSH1 0xA0 SHL SUB SWAP1 DUP2 AND PUSH1 0x80 MSTORE PUSH1 0x2 SLOAD AND PUSH1 0xA0 MSTORE PUSH3 0x26D JUMP JUMPDEST PUSH1 0x0 DUP1 SLOAD PUSH1 0x1 PUSH1 0x1 PUSH1 0xA0 SHL SUB DUP4 DUP2 AND PUSH1 0x1 PUSH1 0x1 PUSH1 0xA0 SHL SUB NOT DUP4 AND DUP2 OR DUP5 SSTORE PUSH1 0x40 MLOAD SWAP2 SWAP1 SWAP3 AND SWAP3 DUP4 SWAP2 PUSH32 0x8BE0079C531659141344CD1FD0A4F28419497F9722A3DAAFE3B4186F6B6457E0 SWAP2 SWAP1 LOG3 POP POP JUMP JUMPDEST DUP1 MLOAD PUSH1 0x1 PUSH1 0x1 PUSH1 0x40 SHL SUB DUP2 AND DUP2 EQ PUSH3 0x230 JUMPI PUSH1 0x0 DUP1 REVERT JUMPDEST SWAP2 SWAP1 POP JUMP JUMPDEST PUSH1 0x0 DUP1 PUSH1 0x40 DUP4 DUP6 SUB SLT ISZERO PUSH3 0x249 JUMPI PUSH1 0x0 DUP1 REVERT JUMPDEST PUSH3 0x254 DUP4 PUSH3 0x218 JUMP JUMPDEST SWAP2 POP PUSH3 0x264 PUSH1 0x20 DUP5 ADD PUSH3 0x218 JUMP JUMPDEST SWAP1 POP SWAP3 POP SWAP3 SWAP1 POP JUMP JUMPDEST PUSH1 0x80 MLOAD PUSH1 0xA0 MLOAD PUSH2 0x1268 PUSH3 0x2B6 PUSH1 0x0 CODECOPY PUSH1 0x0 DUP2 DUP2 PUSH2 0x432 ADD MSTORE DUP2 DUP2 PUSH2 0x68B ADD MSTORE DUP2 DUP2 PUSH2 0x7B3 ADD MSTORE PUSH2 0xB78 ADD MSTORE PUSH1 0x0 DUP2 DUP2 PUSH2 0x47C ADD MSTORE DUP2 DUP2 PUSH2 0xD6A ADD MSTORE PUSH2 0xE59 ADD MSTORE PUSH2 0x1268 PUSH1 0x0 RETURN INVALID PUSH1 0x80 PUSH1 0x40 MSTORE CALLVALUE DUP1 ISZERO PUSH2 0x10 JUMPI PUSH1 0x0 DUP1 REVERT JUMPDEST POP PUSH1 0x4 CALLDATASIZE LT PUSH2 0x206 JUMPI PUSH1 0x0 CALLDATALOAD PUSH1 0xE0 SHR DUP1 PUSH4 0x95623641 GT PUSH2 0x11A JUMPI DUP1 PUSH4 0xC828371E GT PUSH2 0xAD JUMPI DUP1 PUSH4 0xD35CDE41 GT PUSH2 0x7C JUMPI DUP1 PUSH4 0xD35CDE41 EQ PUSH2 0x55F JUMPI DUP1 PUSH4 0xE4EEF896 EQ PUSH2 0x567 JUMPI DUP1 PUSH4 0xF01FC57C EQ PUSH2 0x570 JUMPI DUP1 PUSH4 0xF2FDE38B EQ PUSH2 0x57E JUMPI DUP1 PUSH4 0xFAE92612 EQ PUSH2 0x591 JUMPI PUSH1 0x0 DUP1 REVERT JUMPDEST DUP1 PUSH4 0xC828371E EQ PUSH2 0x511 JUMPI DUP1 PUSH4 0xC9EDE793 EQ PUSH2 0x523 JUMPI DUP1 PUSH4 0xD0FEBE4C EQ PUSH2 0x52B JUMPI DUP1 PUSH4 0xD139F56D EQ PUSH2 0x533 JUMPI PUSH1 0x0 DUP1 REVERT JUMPDEST DUP1 PUSH4 0xA98B9144 GT PUSH2 0xE9 JUMPI DUP1 PUSH4 0xA98B9144 EQ PUSH2 0x49E JUMPI DUP1 PUSH4 0xB9F9231A EQ PUSH2 0x4BE JUMPI DUP1 PUSH4 0xC556FECA EQ PUSH2 0x4D1 JUMPI DUP1 PUSH4 0xC7446565 EQ PUSH2 0x4FD JUMPI PUSH1 0x0 DUP1 REVERT JUMPDEST DUP1 PUSH4 0x95623641 EQ PUSH2 0x41A JUMPI DUP1 PUSH4 0x9769F0B0 EQ PUSH2 0x42D JUMPI DUP1 PUSH4 0x9E2A0418 EQ PUSH2 0x454 JUMPI DUP1 PUSH4 0xA98AD46C EQ PUSH2 0x477 JUMPI PUSH1 0x0 DUP1 REVERT JUMPDEST DUP1 PUSH4 0x6531E61C GT PUSH2 0x19D JUMPI DUP1 PUSH4 0x7CC3AE8C GT PUSH2 0x16C JUMPI DUP1 PUSH4 0x7CC3AE8C EQ PUSH2 0x3A5 JUMPI DUP1 PUSH4 0x88AF60C6 EQ PUSH2 0x3C0 JUMPI DUP1 PUSH4 0x8DA5CB5B EQ PUSH2 0x3D3 JUMPI DUP1 PUSH4 0x9018C818 EQ PUSH2 0x3E4 JUMPI DUP1 PUSH4 0x90F5881A EQ PUSH2 0x3F7 JUMPI PUSH1 0x0 DUP1 REVERT JUMPDEST DUP1 PUSH4 0x6531E61C EQ PUSH2 0x35C JUMPI DUP1 PUSH4 0x6DE34CE0 EQ PUSH2 0x36F JUMPI DUP1 PUSH4 0x715018A6 EQ PUSH2 0x387 JUMPI DUP1 PUSH4 0x78EB6C6F EQ PUSH2 0x38F JUMPI PUSH1 0x0 DUP1 REVERT JUMPDEST DUP1 PUSH4 0x374EEDEF GT PUSH2 0x1D9 JUMPI DUP1 PUSH4 0x374EEDEF EQ PUSH2 0x2AA JUMPI DUP1 PUSH4 0x3D719DA7 EQ PUSH2 0x2E6 JUMPI DUP1 PUSH4 0x439F5AC2 EQ PUSH2 0x309 JUMPI DUP1 PUSH4 0x61BC221A EQ PUSH2 0x337 JUMPI PUSH1 0x0 DUP1 REVERT JUMPDEST DUP1 PUSH4 0x27734FA EQ PUSH2 0x20B JUMPI DUP1 PUSH4 0x1EB43F1A EQ PUSH2 0x23B JUMPI DUP1 PUSH4 0x271F88B4 EQ PUSH2 0x28D JUMPI DUP1 PUSH4 0x304D8DEA EQ PUSH2 0x2A2 JUMPI JUMPDEST PUSH1 0x0 DUP1 REVERT JUMPDEST PUSH1 0x2 SLOAD PUSH2 0x21E SWAP1 PUSH1 0x1 PUSH1 0x1 PUSH1 0xA0 SHL SUB AND DUP2 JUMP JUMPDEST PUSH1 0x40 MLOAD PUSH1 0x1 PUSH1 0x1 PUSH1 0xA0 SHL SUB SWAP1 SWAP2 AND DUP2 MSTORE PUSH1 0x20 ADD JUMPDEST PUSH1 0x40 MLOAD DUP1 SWAP2 SUB SWAP1 RETURN JUMPDEST PUSH2 0x26E PUSH2 0x249 CALLDATASIZE PUSH1 0x4 PUSH2 0x1083 JUMP JUMPDEST PUSH1 0x8 PUSH1 0x20 MSTORE PUSH1 0x0 SWAP1 DUP2 MSTORE PUSH1 0x40 SWAP1 KECCAK256 DUP1 SLOAD PUSH1 0x2 SWAP1 SWAP2 ADD SLOAD PUSH1 0x1 PUSH1 0x1 PUSH1 0xA0 SHL SUB SWAP1 SWAP2 AND SWAP1 DUP3 JUMP JUMPDEST PUSH1 0x40 DUP1 MLOAD PUSH1 0x1 PUSH1 0x1 PUSH1 0xA0 SHL SUB SWAP1 SWAP4 AND DUP4 MSTORE PUSH1 0x20 DUP4 ADD SWAP2 SWAP1 SWAP2 MSTORE ADD PUSH2 0x232 JUMP JUMPDEST PUSH2 0x2A0 PUSH2 0x29B CALLDATASIZE PUSH1 0x4 PUSH2 0x10B3 JUMP JUMPDEST PUSH2 0x5A4 JUMP JUMPDEST STOP JUMPDEST PUSH2 0x2A0 PUSH2 0x5DC JUMP JUMPDEST PUSH2 0x2D6 PUSH2 0x2B8 CALLDATASIZE PUSH1 0x4 PUSH2 0x1083 JUMP JUMPDEST PUSH1 0x1 PUSH1 0x1 PUSH1 0xA0 SHL SUB AND PUSH1 0x0 SWAP1 DUP2 MSTORE PUSH1 0xB PUSH1 0x20 MSTORE PUSH1 0x40 SWAP1 KECCAK256 SLOAD PUSH1 0xFF AND SWAP1 JUMP JUMPDEST PUSH1 0x40 MLOAD SWAP1 ISZERO ISZERO DUP2 MSTORE PUSH1 0x20 ADD PUSH2 0x232 JUMP JUMPDEST PUSH2 0x2D6 PUSH2 0x2F4 CALLDATASIZE PUSH1 0x4 PUSH2 0x1083 JUMP JUMPDEST PUSH1 0xB PUSH1 0x20 MSTORE PUSH1 0x0 SWAP1 DUP2 MSTORE PUSH1 0x40 SWAP1 KECCAK256 SLOAD PUSH1 0xFF AND DUP2 JUMP JUMPDEST PUSH1 0xC SLOAD PUSH1 0x1 PUSH1 0x40 SHL SWAP1 DIV PUSH8 0xFFFFFFFFFFFFFFFF AND JUMPDEST PUSH1 0x40 MLOAD PUSH8 0xFFFFFFFFFFFFFFFF SWAP1 SWAP2 AND DUP2 MSTORE PUSH1 0x20 ADD PUSH2 0x232 JUMP JUMPDEST PUSH1 0x7 SLOAD PUSH2 0x347 SWAP1 PUSH4 0xFFFFFFFF AND DUP2 JUMP JUMPDEST PUSH1 0x40 MLOAD PUSH4 0xFFFFFFFF SWAP1 SWAP2 AND DUP2 MSTORE PUSH1 0x20 ADD PUSH2 0x232 JUMP JUMPDEST PUSH2 0x2A0 PUSH2 0x36A CALLDATASIZE PUSH1 0x4 PUSH2 0x10B3 JUMP JUMPDEST PUSH2 0x76A JUMP JUMPDEST PUSH1 0x7 SLOAD PUSH2 0x347 SWAP1 PUSH5 0x100000000 SWAP1 DIV PUSH4 0xFFFFFFFF AND DUP2 JUMP JUMPDEST PUSH2 0x2A0 PUSH2 0x84B JUMP JUMPDEST PUSH2 0x397 PUSH2 0x881 JUMP JUMPDEST PUSH1 0x40 MLOAD SWAP1 DUP2 MSTORE PUSH1 0x20 ADD PUSH2 0x232 JUMP JUMPDEST PUSH1 0xC SLOAD PUSH2 0x31E SWAP1 PUSH1 0x1 PUSH1 0x40 SHL SWAP1 DIV PUSH8 0xFFFFFFFFFFFFFFFF AND DUP2 JUMP JUMPDEST PUSH1 0x1 SLOAD PUSH2 0x21E SWAP1 PUSH1 0x1 PUSH1 0x1 PUSH1 0xA0 SHL SUB AND DUP2 JUMP JUMPDEST PUSH1 0x0 SLOAD PUSH1 0x1 PUSH1 0x1 PUSH1 0xA0 SHL SUB AND PUSH2 0x21E JUMP JUMPDEST PUSH2 0x2D6 PUSH2 0x3F2 CALLDATASIZE PUSH1 0x4 PUSH2 0x1083 JUMP JUMPDEST PUSH2 0x8A1 JUMP JUMPDEST PUSH2 0x2D6 PUSH2 0x405 CALLDATASIZE PUSH1 0x4 PUSH2 0x1083 JUMP JUMPDEST PUSH1 0x9 PUSH1 0x20 MSTORE PUSH1 0x0 SWAP1 DUP2 MSTORE PUSH1 0x40 SWAP1 KECCAK256 SLOAD PUSH1 0xFF AND DUP2 JUMP JUMPDEST PUSH1 0x3 SLOAD PUSH2 0x21E SWAP1 PUSH1 0x1 PUSH1 0x1 PUSH1 0xA0 SHL SUB AND DUP2 JUMP JUMPDEST PUSH2 0x21E PUSH32 0x0 DUP2 JUMP JUMPDEST PUSH2 0x2D6 PUSH2 0x462 CALLDATASIZE PUSH1 0x4 PUSH2 0x1083 JUMP JUMPDEST PUSH1 0xA PUSH1 0x20 MSTORE PUSH1 0x0 SWAP1 DUP2 MSTORE PUSH1 0x40 SWAP1 KECCAK256 SLOAD PUSH1 0xFF AND DUP2 JUMP JUMPDEST PUSH2 0x21E PUSH32 0x0 DUP2 JUMP JUMPDEST PUSH2 0x4B1 PUSH2 0x4AC CALLDATASIZE PUSH1 0x4 PUSH2 0x1083 JUMP JUMPDEST PUSH2 0xA05 JUMP JUMPDEST PUSH1 0x40 MLOAD PUSH2 0x232 SWAP2 SWAP1 PUSH2 0x10CC JUMP JUMPDEST PUSH2 0x397 PUSH2 0x4CC CALLDATASIZE PUSH1 0x4 PUSH2 0x1083 JUMP JUMPDEST PUSH2 0xA7E JUMP JUMPDEST PUSH2 0x397 PUSH2 0x4DF CALLDATASIZE PUSH1 0x4 PUSH2 0x1083 JUMP JUMPDEST PUSH1 0x1 PUSH1 0x1 PUSH1 0xA0 SHL SUB AND PUSH1 0x0 SWAP1 DUP2 MSTORE PUSH1 0x8 PUSH1 0x20 MSTORE PUSH1 0x40 SWAP1 KECCAK256 PUSH1 0x1 ADD SLOAD SWAP1 JUMP JUMPDEST PUSH1 0xC SLOAD PUSH2 0x31E SWAP1 PUSH8 0xFFFFFFFFFFFFFFFF AND DUP2 JUMP JUMPDEST PUSH1 0xC SLOAD PUSH8 0xFFFFFFFFFFFFFFFF AND PUSH2 0x31E JUMP JUMPDEST PUSH2 0x2A0 PUSH2 0xAC8 JUMP JUMPDEST PUSH2 0x2A0 PUSH2 0xC56 JUMP JUMPDEST PUSH2 0x21E PUSH2 0x541 CALLDATASIZE PUSH1 0x4 PUSH2 0x1083 JUMP JUMPDEST PUSH1 0x1 PUSH1 0x1 PUSH1 0xA0 SHL SUB SWAP1 DUP2 AND PUSH1 0x0 SWAP1 DUP2 MSTORE PUSH1 0x8 PUSH1 0x20 MSTORE PUSH1 0x40 SWAP1 KECCAK256 SLOAD AND SWAP1 JUMP JUMPDEST PUSH1 0x4 SLOAD PUSH2 0x397 JUMP JUMPDEST PUSH2 0x397 PUSH1 0x4 SLOAD DUP2 JUMP JUMPDEST PUSH1 0x7 SLOAD PUSH4 0xFFFFFFFF AND PUSH2 0x31E JUMP JUMPDEST PUSH2 0x2A0 PUSH2 0x58C CALLDATASIZE PUSH1 0x4 PUSH2 0x1083 JUMP JUMPDEST PUSH2 0xF4C JUMP JUMPDEST PUSH2 0x2A0 PUSH2 0x59F CALLDATASIZE PUSH1 0x4 PUSH2 0x1083 JUMP JUMPDEST PUSH2 0xFE7 JUMP JUMPDEST PUSH1 0x0 SLOAD PUSH1 0x1 PUSH1 0x1 PUSH1 0xA0 SHL SUB AND CALLER EQ PUSH2 0x5D7 JUMPI PUSH1 0x40 MLOAD PUSH3 0x461BCD PUSH1 0xE5 SHL DUP2 MSTORE PUSH1 0x4 ADD PUSH2 0x5CE SWAP1 PUSH2 0x1119 JUMP JUMPDEST PUSH1 0x40 MLOAD DUP1 SWAP2 SUB SWAP1 REVERT JUMPDEST PUSH1 0x4 SSTORE JUMP JUMPDEST PUSH1 0xC SLOAD TIMESTAMP PUSH1 0x1 PUSH1 0x40 SHL SWAP1 SWAP2 DIV PUSH8 0xFFFFFFFFFFFFFFFF AND LT PUSH2 0x631 JUMPI PUSH1 0x40 MLOAD PUSH3 0x461BCD PUSH1 0xE5 SHL DUP2 MSTORE PUSH1 0x20 PUSH1 0x4 DUP3 ADD MSTORE PUSH1 0xF PUSH1 0x24 DUP3 ADD MSTORE PUSH15 0x1C1C995CD95B1B081B9BDD08195B99 PUSH1 0x8A SHL PUSH1 0x44 DUP3 ADD MSTORE PUSH1 0x64 ADD PUSH2 0x5CE JUMP JUMPDEST CALLER PUSH1 0x0 SWAP1 DUP2 MSTORE PUSH1 0xA PUSH1 0x20 MSTORE PUSH1 0x40 SWAP1 KECCAK256 SLOAD PUSH1 0xFF AND ISZERO ISZERO PUSH1 0x1 EQ PUSH2 0x687 JUMPI PUSH1 0x40 MLOAD PUSH3 0x461BCD PUSH1 0xE5 SHL DUP2 MSTORE PUSH1 0x20 PUSH1 0x4 DUP3 ADD MSTORE PUSH1 0xF PUSH1 0x24 DUP3 ADD MSTORE PUSH15 0x75736572206E6F7420696E76697465 PUSH1 0x88 SHL PUSH1 0x44 DUP3 ADD MSTORE PUSH1 0x64 ADD PUSH2 0x5CE JUMP JUMPDEST PUSH1 0x0 PUSH32 0x0 PUSH1 0x1 PUSH1 0x1 PUSH1 0xA0 SHL SUB AND PUSH4 0xA9059CBB CALLER PUSH2 0x6C2 CALLER PUSH2 0xA7E JUMP JUMPDEST PUSH1 0x40 MLOAD PUSH1 0x1 PUSH1 0x1 PUSH1 0xE0 SHL SUB NOT PUSH1 0xE0 DUP6 SWAP1 SHL AND DUP2 MSTORE PUSH1 0x1 PUSH1 0x1 PUSH1 0xA0 SHL SUB SWAP1 SWAP3 AND PUSH1 0x4 DUP4 ADD MSTORE PUSH1 0x24 DUP3 ADD MSTORE PUSH1 0x44 ADD PUSH1 0x20 PUSH1 0x40 MLOAD DUP1 DUP4 SUB DUP2 PUSH1 0x0 DUP8 GAS CALL ISZERO DUP1 ISZERO PUSH2 0x70D JUMPI RETURNDATASIZE PUSH1 0x0 DUP1 RETURNDATACOPY RETURNDATASIZE PUSH1 0x0 REVERT JUMPDEST POP POP POP POP PUSH1 0x40 MLOAD RETURNDATASIZE PUSH1 0x1F NOT PUSH1 0x1F DUP3 ADD AND DUP3 ADD DUP1 PUSH1 0x40 MSTORE POP DUP2 ADD SWAP1 PUSH2 0x731 SWAP2 SWAP1 PUSH2 0x114E JUMP JUMPDEST SWAP1 POP DUP1 PUSH2 0x750 JUMPI PUSH1 0x40 MLOAD PUSH3 0x461BCD PUSH1 0xE5 SHL DUP2 MSTORE PUSH1 0x4 ADD PUSH2 0x5CE SWAP1 PUSH2 0x1170 JUMP JUMPDEST POP CALLER PUSH1 0x0 SWAP1 DUP2 MSTORE PUSH1 0xA PUSH1 0x20 MSTORE PUSH1 0x40 SWAP1 KECCAK256 DUP1 SLOAD PUSH1 0xFF NOT AND SWAP1 SSTORE JUMP JUMPDEST PUSH1 0x0 SLOAD PUSH1 0x1 PUSH1 0x1 PUSH1 0xA0 SHL SUB AND CALLER EQ PUSH2 0x794 JUMPI PUSH1 0x40 MLOAD PUSH3 0x461BCD PUSH1 0xE5 SHL DUP2 MSTORE PUSH1 0x4 ADD PUSH2 0x5CE SWAP1 PUSH2 0x1119 JUMP JUMPDEST PUSH1 0x40 MLOAD PUSH4 0xA9059CBB PUSH1 0xE0 SHL DUP2 MSTORE CALLER PUSH1 0x4 DUP3 ADD MSTORE PUSH1 0x24 DUP2 ADD DUP3 SWAP1 MSTORE PUSH1 0x0 SWAP1 PUSH32 0x0 PUSH1 0x1 PUSH1 0x1 PUSH1 0xA0 SHL SUB AND SWAP1 PUSH4 0xA9059CBB SWAP1 PUSH1 0x44 ADD PUSH1 0x20 PUSH1 0x40 MLOAD DUP1 DUP4 SUB DUP2 PUSH1 0x0 DUP8 GAS CALL ISZERO DUP1 ISZERO PUSH2 0x804 JUMPI RETURNDATASIZE PUSH1 0x0 DUP1 RETURNDATACOPY RETURNDATASIZE PUSH1 0x0 REVERT JUMPDEST POP POP POP POP PUSH1 0x40 MLOAD RETURNDATASIZE PUSH1 0x1F NOT PUSH1 0x1F DUP3 ADD AND DUP3 ADD DUP1 PUSH1 0x40 MSTORE POP DUP2 ADD SWAP1 PUSH2 0x828 SWAP2 SWAP1 PUSH2 0x114E JUMP JUMPDEST SWAP1 POP DUP1 PUSH2 0x847 JUMPI PUSH1 0x40 MLOAD PUSH3 0x461BCD PUSH1 0xE5 SHL DUP2 MSTORE PUSH1 0x4 ADD PUSH2 0x5CE SWAP1 PUSH2 0x1170 JUMP JUMPDEST POP POP JUMP JUMPDEST PUSH1 0x0 SLOAD PUSH1 0x1 PUSH1 0x1 PUSH1 0xA0 SHL SUB AND CALLER EQ PUSH2 0x875 JUMPI PUSH1 0x40 MLOAD PUSH3 0x461BCD PUSH1 0xE5 SHL DUP2 MSTORE PUSH1 0x4 ADD PUSH2 0x5CE SWAP1 PUSH2 0x1119 JUMP JUMPDEST PUSH2 0x87F PUSH1 0x0 PUSH2 0x1033 JUMP JUMPDEST JUMP JUMPDEST PUSH1 0x7 SLOAD PUSH1 0x5 SLOAD PUSH1 0x0 SWAP2 PUSH2 0x89C SWAP2 PUSH4 0xFFFFFFFF SWAP1 SWAP2 AND SWAP1 PUSH2 0x11B5 JUMP JUMPDEST SWAP1 POP SWAP1 JUMP JUMPDEST PUSH1 0x1 PUSH1 0x1 PUSH1 0xA0 SHL SUB DUP2 AND PUSH1 0x0 SWAP1 DUP2 MSTORE PUSH1 0xB PUSH1 0x20 MSTORE PUSH1 0x40 DUP2 KECCAK256 SLOAD PUSH1 0xFF AND PUSH2 0x8FD JUMPI PUSH1 0x40 MLOAD PUSH3 0x461BCD PUSH1 0xE5 SHL DUP2 MSTORE PUSH1 0x20 PUSH1 0x4 DUP3 ADD MSTORE PUSH1 0x11 PUSH1 0x24 DUP3 ADD MSTORE PUSH17 0x4265653A7570706572206E6F7420627579 PUSH1 0x78 SHL PUSH1 0x44 DUP3 ADD MSTORE PUSH1 0x64 ADD PUSH2 0x5CE JUMP JUMPDEST PUSH1 0x1 PUSH1 0x1 PUSH1 0xA0 SHL SUB DUP3 AND CALLER SUB PUSH2 0x945 JUMPI PUSH1 0x40 MLOAD PUSH3 0x461BCD PUSH1 0xE5 SHL DUP2 MSTORE PUSH1 0x20 PUSH1 0x4 DUP3 ADD MSTORE PUSH1 0xD PUSH1 0x24 DUP3 ADD MSTORE PUSH13 0x2132B29D2327A92124A22222A7 PUSH1 0x99 SHL PUSH1 0x44 DUP3 ADD MSTORE PUSH1 0x64 ADD PUSH2 0x5CE JUMP JUMPDEST CALLER PUSH1 0x0 SWAP1 DUP2 MSTORE PUSH1 0x8 PUSH1 0x20 SWAP1 DUP2 MSTORE PUSH1 0x40 DUP1 DUP4 KECCAK256 DUP1 SLOAD PUSH1 0x1 PUSH1 0x1 PUSH1 0xA0 SHL SUB DUP8 AND PUSH1 0x1 PUSH1 0x1 PUSH1 0xA0 SHL SUB NOT SWAP2 DUP3 AND DUP2 OR DUP4 SSTORE NUMBER PUSH1 0x2 DUP1 DUP6 ADD DUP3 SWAP1 SSTORE DUP3 DUP9 MSTORE DUP6 DUP9 KECCAK256 SWAP1 DUP2 ADD SWAP2 SWAP1 SWAP2 SSTORE PUSH1 0x1 DUP2 DUP2 ADD DUP1 SLOAD DUP1 DUP4 ADD DUP3 SSTORE SWAP1 DUP10 MSTORE DUP8 DUP10 KECCAK256 ADD DUP1 SLOAD SWAP1 SWAP5 AND DUP4 OR SWAP1 SWAP4 SSTORE SWAP1 DUP7 MSTORE PUSH1 0xA SWAP1 SWAP5 MSTORE SWAP2 SWAP1 SWAP4 KECCAK256 DUP1 SLOAD PUSH1 0xFF NOT AND SWAP1 SWAP2 OR SWAP1 SSTORE PUSH1 0x7 DUP1 SLOAD PUSH1 0x4 SWAP1 PUSH2 0x9DC SWAP1 PUSH4 0xFFFFFFFF PUSH5 0x100000000 SWAP1 SWAP2 DIV AND PUSH2 0x11D7 JUMP JUMPDEST SWAP2 SWAP1 PUSH2 0x100 EXP DUP2 SLOAD DUP2 PUSH4 0xFFFFFFFF MUL NOT AND SWAP1 DUP4 PUSH4 0xFFFFFFFF AND MUL OR SWAP1 SSTORE POP PUSH1 0x1 SWAP3 POP POP POP SWAP2 SWAP1 POP JUMP JUMPDEST PUSH1 0x1 PUSH1 0x1 PUSH1 0xA0 SHL SUB DUP2 AND PUSH1 0x0 SWAP1 DUP2 MSTORE PUSH1 0x8 PUSH1 0x20 SWAP1 DUP2 MSTORE PUSH1 0x40 SWAP2 DUP3 SWAP1 KECCAK256 PUSH1 0x1 ADD DUP1 SLOAD DUP4 MLOAD DUP2 DUP5 MUL DUP2 ADD DUP5 ADD SWAP1 SWAP5 MSTORE DUP1 DUP5 MSTORE PUSH1 0x60 SWAP4 SWAP3 DUP4 ADD DUP3 DUP3 DUP1 ISZERO PUSH2 0xA72 JUMPI PUSH1 0x20 MUL DUP3 ADD SWAP2 SWAP1 PUSH1 0x0 MSTORE PUSH1 0x20 PUSH1 0x0 KECCAK256 SWAP1 JUMPDEST DUP2 SLOAD PUSH1 0x1 PUSH1 0x1 PUSH1 0xA0 SHL SUB AND DUP2 MSTORE PUSH1 0x1 SWAP1 SWAP2 ADD SWAP1 PUSH1 0x20 ADD DUP1 DUP4 GT PUSH2 0xA54 JUMPI JUMPDEST POP POP POP POP POP SWAP1 POP SWAP2 SWAP1 POP JUMP JUMPDEST PUSH1 0x1 PUSH1 0x1 PUSH1 0xA0 SHL SUB DUP2 AND PUSH1 0x0 SWAP1 DUP2 MSTORE PUSH1 0x8 PUSH1 0x20 MSTORE PUSH1 0x40 DUP2 KECCAK256 PUSH1 0x1 ADD SLOAD PUSH1 0x7 SLOAD PUSH1 0x6 SLOAD PUSH2 0xAB8 SWAP2 PUSH5 0x100000000 SWAP1 DIV PUSH4 0xFFFFFFFF AND SWAP1 PUSH2 0x11B5 JUMP JUMPDEST PUSH2 0xAC2 SWAP2 SWAP1 PUSH2 0x11FA JUMP JUMPDEST SWAP3 SWAP2 POP POP JUMP JUMPDEST PUSH1 0xC SLOAD TIMESTAMP PUSH1 0x1 PUSH1 0x40 SHL SWAP1 SWAP2 DIV PUSH8 0xFFFFFFFFFFFFFFFF AND LT PUSH2 0xB1D JUMPI PUSH1 0x40 MLOAD PUSH3 0x461BCD PUSH1 0xE5 SHL DUP2 MSTORE PUSH1 0x20 PUSH1 0x4 DUP3 ADD MSTORE PUSH1 0xF PUSH1 0x24 DUP3 ADD MSTORE PUSH15 0x1C1C995CD95B1B081B9BDD08195B99 PUSH1 0x8A SHL PUSH1 0x44 DUP3 ADD MSTORE PUSH1 0x64 ADD PUSH2 0x5CE JUMP JUMPDEST CALLER PUSH1 0x0 SWAP1 DUP2 MSTORE PUSH1 0x9 PUSH1 0x20 MSTORE PUSH1 0x40 SWAP1 KECCAK256 SLOAD PUSH1 0xFF AND ISZERO ISZERO PUSH1 0x1 EQ PUSH2 0xB74 JUMPI PUSH1 0x40 MLOAD PUSH3 0x461BCD PUSH1 0xE5 SHL DUP2 MSTORE PUSH1 0x20 PUSH1 0x4 DUP3 ADD MSTORE PUSH1 0x10 PUSH1 0x24 DUP3 ADD MSTORE PUSH16 0x1D5CD95C881B9BDD081C1C995CD95B1B PUSH1 0x82 SHL PUSH1 0x44 DUP3 ADD MSTORE PUSH1 0x64 ADD PUSH2 0x5CE JUMP JUMPDEST PUSH1 0x0 PUSH32 0x0 PUSH1 0x1 PUSH1 0x1 PUSH1 0xA0 SHL SUB AND PUSH4 0xA9059CBB CALLER PUSH2 0xBAE PUSH2 0x881 JUMP JUMPDEST PUSH1 0x40 MLOAD PUSH1 0x1 PUSH1 0x1 PUSH1 0xE0 SHL SUB NOT PUSH1 0xE0 DUP6 SWAP1 SHL AND DUP2 MSTORE PUSH1 0x1 PUSH1 0x1 PUSH1 0xA0 SHL SUB SWAP1 SWAP3 AND PUSH1 0x4 DUP4 ADD MSTORE PUSH1 0x24 DUP3 ADD MSTORE PUSH1 0x44 ADD PUSH1 0x20 PUSH1 0x40 MLOAD DUP1 DUP4 SUB DUP2 PUSH1 0x0 DUP8 GAS CALL ISZERO DUP1 ISZERO PUSH2 0xBF9 JUMPI RETURNDATASIZE PUSH1 0x0 DUP1 RETURNDATACOPY RETURNDATASIZE PUSH1 0x0 REVERT JUMPDEST POP POP POP POP PUSH1 0x40 MLOAD RETURNDATASIZE PUSH1 0x1F NOT PUSH1 0x1F DUP3 ADD AND DUP3 ADD DUP1 PUSH1 0x40 MSTORE POP DUP2 ADD SWAP1 PUSH2 0xC1D SWAP2 SWAP1 PUSH2 0x114E JUMP JUMPDEST SWAP1 POP DUP1 PUSH2 0xC3C JUMPI PUSH1 0x40 MLOAD PUSH3 0x461BCD PUSH1 0xE5 SHL DUP2 MSTORE PUSH1 0x4 ADD PUSH2 0x5CE SWAP1 PUSH2 0x1170 JUMP JUMPDEST POP CALLER PUSH1 0x0 SWAP1 DUP2 MSTORE PUSH1 0x9 PUSH1 0x20 MSTORE PUSH1 0x40 SWAP1 KECCAK256 DUP1 SLOAD PUSH1 0xFF NOT AND SWAP1 SSTORE JUMP JUMPDEST PUSH1 0xC SLOAD TIMESTAMP PUSH8 0xFFFFFFFFFFFFFFFF SWAP1 SWAP2 AND LT PUSH2 0xC9F JUMPI PUSH1 0x40 MLOAD PUSH3 0x461BCD PUSH1 0xE5 SHL DUP2 MSTORE PUSH1 0x20 PUSH1 0x4 DUP3 ADD MSTORE PUSH1 0x9 PUSH1 0x24 DUP3 ADD MSTORE PUSH9 0x1B9BDD081CDD185C9D PUSH1 0xBA SHL PUSH1 0x44 DUP3 ADD MSTORE PUSH1 0x64 ADD PUSH2 0x5CE JUMP JUMPDEST PUSH1 0xC SLOAD TIMESTAMP PUSH1 0x1 PUSH1 0x40 SHL SWAP1 SWAP2 DIV PUSH8 0xFFFFFFFFFFFFFFFF AND GT PUSH2 0xCEC JUMPI PUSH1 0x40 MLOAD PUSH3 0x461BCD PUSH1 0xE5 SHL DUP2 MSTORE PUSH1 0x20 PUSH1 0x4 DUP3 ADD MSTORE PUSH1 0x7 PUSH1 0x24 DUP3 ADD MSTORE PUSH7 0x1A185CC8195B99 PUSH1 0xCA SHL PUSH1 0x44 DUP3 ADD MSTORE PUSH1 0x64 ADD PUSH2 0x5CE JUMP JUMPDEST CALLER PUSH1 0x0 SWAP1 DUP2 MSTORE PUSH1 0xB PUSH1 0x20 MSTORE PUSH1 0x40 SWAP1 KECCAK256 SLOAD PUSH1 0xFF AND ISZERO PUSH2 0xD40 JUMPI PUSH1 0x40 MLOAD PUSH3 0x461BCD PUSH1 0xE5 SHL DUP2 MSTORE PUSH1 0x20 PUSH1 0x4 DUP3 ADD MSTORE PUSH1 0x11 PUSH1 0x24 DUP3 ADD MSTORE PUSH17 0x185B1C9958591E481C1D5C98DA185CD959 PUSH1 0x7A SHL PUSH1 0x44 DUP3 ADD MSTORE PUSH1 0x64 ADD PUSH2 0x5CE JUMP JUMPDEST PUSH1 0x4 DUP1 SLOAD PUSH1 0x40 MLOAD PUSH4 0x6EB1769F PUSH1 0xE1 SHL DUP2 MSTORE CALLER SWAP3 DUP2 ADD SWAP3 SWAP1 SWAP3 MSTORE ADDRESS PUSH1 0x24 DUP4 ADD MSTORE SWAP1 PUSH1 0x1 PUSH1 0x1 PUSH1 0xA0 SHL SUB PUSH32 0x0 AND SWAP1 PUSH4 0xDD62ED3E SWAP1 PUSH1 0x44 ADD PUSH1 0x20 PUSH1 0x40 MLOAD DUP1 DUP4 SUB DUP2 DUP7 GAS STATICCALL ISZERO DUP1 ISZERO PUSH2 0xDB1 JUMPI RETURNDATASIZE PUSH1 0x0 DUP1 RETURNDATACOPY RETURNDATASIZE PUSH1 0x0 REVERT JUMPDEST POP POP POP POP PUSH1 0x40 MLOAD RETURNDATASIZE PUSH1 0x1F NOT PUSH1 0x1F DUP3 ADD AND DUP3 ADD DUP1 PUSH1 0x40 MSTORE POP DUP2 ADD SWAP1 PUSH2 0xDD5 SWAP2 SWAP1 PUSH2 0x1219 JUMP JUMPDEST LT ISZERO PUSH2 0xE23 JUMPI PUSH1 0x40 MLOAD PUSH3 0x461BCD PUSH1 0xE5 SHL DUP2 MSTORE PUSH1 0x20 PUSH1 0x4 DUP3 ADD MSTORE PUSH1 0x1B PUSH1 0x24 DUP3 ADD MSTORE PUSH32 0x75736474546F6B656E20616C6C6F77616E636520746F6F206C6F770000000000 PUSH1 0x44 DUP3 ADD MSTORE PUSH1 0x64 ADD PUSH2 0x5CE JUMP JUMPDEST PUSH1 0x3 SLOAD PUSH1 0x4 DUP1 SLOAD PUSH1 0x40 MLOAD PUSH4 0x23B872DD PUSH1 0xE0 SHL DUP2 MSTORE CALLER SWAP3 DUP2 ADD SWAP3 SWAP1 SWAP3 MSTORE PUSH1 0x1 PUSH1 0x1 PUSH1 0xA0 SHL SUB SWAP3 DUP4 AND PUSH1 0x24 DUP4 ADD MSTORE PUSH1 0x44 DUP3 ADD MSTORE PUSH1 0x0 SWAP2 PUSH32 0x0 AND SWAP1 PUSH4 0x23B872DD SWAP1 PUSH1 0x64 ADD PUSH1 0x20 PUSH1 0x40 MLOAD DUP1 DUP4 SUB DUP2 PUSH1 0x0 DUP8 GAS CALL ISZERO DUP1 ISZERO PUSH2 0xEA2 JUMPI RETURNDATASIZE PUSH1 0x0 DUP1 RETURNDATACOPY RETURNDATASIZE PUSH1 0x0 REVERT JUMPDEST POP POP POP POP PUSH1 0x40 MLOAD RETURNDATASIZE PUSH1 0x1F NOT PUSH1 0x1F DUP3 ADD AND DUP3 ADD DUP1 PUSH1 0x40 MSTORE POP DUP2 ADD SWAP1 PUSH2 0xEC6 SWAP2 SWAP1 PUSH2 0x114E JUMP JUMPDEST SWAP1 POP DUP1 PUSH2 0xEE5 JUMPI PUSH1 0x40 MLOAD PUSH3 0x461BCD PUSH1 0xE5 SHL DUP2 MSTORE PUSH1 0x4 ADD PUSH2 0x5CE SWAP1 PUSH2 0x1170 JUMP JUMPDEST CALLER PUSH1 0x0 SWAP1 DUP2 MSTORE PUSH1 0x9 PUSH1 0x20 SWAP1 DUP2 MSTORE PUSH1 0x40 DUP1 DUP4 KECCAK256 DUP1 SLOAD PUSH1 0x1 PUSH1 0xFF NOT SWAP2 DUP3 AND DUP2 OR SWAP1 SWAP3 SSTORE PUSH1 0xB SWAP1 SWAP4 MSTORE SWAP1 DUP4 KECCAK256 DUP1 SLOAD SWAP1 SWAP3 AND OR SWAP1 SSTORE PUSH1 0x7 DUP1 SLOAD PUSH4 0xFFFFFFFF AND SWAP2 PUSH2 0xF2A DUP4 PUSH2 0x11D7 JUMP JUMPDEST SWAP2 SWAP1 PUSH2 0x100 EXP DUP2 SLOAD DUP2 PUSH4 0xFFFFFFFF MUL NOT AND SWAP1 DUP4 PUSH4 0xFFFFFFFF AND MUL OR SWAP1 SSTORE POP POP POP JUMP JUMPDEST PUSH1 0x0 SLOAD PUSH1 0x1 PUSH1 0x1 PUSH1 0xA0 SHL SUB AND CALLER EQ PUSH2 0xF76 JUMPI PUSH1 0x40 MLOAD PUSH3 0x461BCD PUSH1 0xE5 SHL DUP2 MSTORE PUSH1 0x4 ADD PUSH2 0x5CE SWAP1 PUSH2 0x1119 JUMP JUMPDEST PUSH1 0x1 PUSH1 0x1 PUSH1 0xA0 SHL SUB DUP2 AND PUSH2 0xFDB JUMPI PUSH1 0x40 MLOAD PUSH3 0x461BCD PUSH1 0xE5 SHL DUP2 MSTORE PUSH1 0x20 PUSH1 0x4 DUP3 ADD MSTORE PUSH1 0x26 PUSH1 0x24 DUP3 ADD MSTORE PUSH32 0x4F776E61626C653A206E6577206F776E657220697320746865207A65726F2061 PUSH1 0x44 DUP3 ADD MSTORE PUSH6 0x646472657373 PUSH1 0xD0 SHL PUSH1 0x64 DUP3 ADD MSTORE PUSH1 0x84 ADD PUSH2 0x5CE JUMP JUMPDEST PUSH2 0xFE4 DUP2 PUSH2 0x1033 JUMP JUMPDEST POP JUMP JUMPDEST PUSH1 0x0 SLOAD PUSH1 0x1 PUSH1 0x1 PUSH1 0xA0 SHL SUB AND CALLER EQ PUSH2 0x1011 JUMPI PUSH1 0x40 MLOAD PUSH3 0x461BCD PUSH1 0xE5 SHL DUP2 MSTORE PUSH1 0x4 ADD PUSH2 0x5CE SWAP1 PUSH2 0x1119 JUMP JUMPDEST PUSH1 0x3 DUP1 SLOAD PUSH1 0x1 PUSH1 0x1 PUSH1 0xA0 SHL SUB NOT AND PUSH1 0x1 PUSH1 0x1 PUSH1 0xA0 SHL SUB SWAP3 SWAP1 SWAP3 AND SWAP2 SWAP1 SWAP2 OR SWAP1 SSTORE JUMP JUMPDEST PUSH1 0x0 DUP1 SLOAD PUSH1 0x1 PUSH1 0x1 PUSH1 0xA0 SHL SUB DUP4 DUP2 AND PUSH1 0x1 PUSH1 0x1 PUSH1 0xA0 SHL SUB NOT DUP4 AND DUP2 OR DUP5 SSTORE PUSH1 0x40 MLOAD SWAP2 SWAP1 SWAP3 AND SWAP3 DUP4 SWAP2 PUSH32 0x8BE0079C531659141344CD1FD0A4F28419497F9722A3DAAFE3B4186F6B6457E0 SWAP2 SWAP1 LOG3 POP POP JUMP JUMPDEST PUSH1 0x0 PUSH1 0x20 DUP3 DUP5 SUB SLT ISZERO PUSH2 0x1095 JUMPI PUSH1 0x0 DUP1 REVERT JUMPDEST DUP2 CALLDATALOAD PUSH1 0x1 PUSH1 0x1 PUSH1 0xA0 SHL SUB DUP2 AND DUP2 EQ PUSH2 0x10AC JUMPI PUSH1 0x0 DUP1 REVERT JUMPDEST SWAP4 SWAP3 POP POP POP JUMP JUMPDEST PUSH1 0x0 PUSH1 0x20 DUP3 DUP5 SUB SLT ISZERO PUSH2 0x10C5 JUMPI PUSH1 0x0 DUP1 REVERT JUMPDEST POP CALLDATALOAD SWAP2 SWAP1 POP JUMP JUMPDEST PUSH1 0x20 DUP1 DUP3 MSTORE DUP3 MLOAD DUP3 DUP3 ADD DUP2 SWAP1 MSTORE PUSH1 0x0 SWAP2 SWAP1 DUP5 DUP3 ADD SWAP1 PUSH1 0x40 DUP6 ADD SWAP1 DUP5 JUMPDEST DUP2 DUP2 LT ISZERO PUSH2 0x110D JUMPI DUP4 MLOAD PUSH1 0x1 PUSH1 0x1 PUSH1 0xA0 SHL SUB AND DUP4 MSTORE SWAP3 DUP5 ADD SWAP3 SWAP2 DUP5 ADD SWAP2 PUSH1 0x1 ADD PUSH2 0x10E8 JUMP JUMPDEST POP SWAP1 SWAP7 SWAP6 POP POP POP POP POP POP JUMP JUMPDEST PUSH1 0x20 DUP1 DUP3 MSTORE DUP2 DUP2 ADD MSTORE PUSH32 0x4F776E61626C653A2063616C6C6572206973206E6F7420746865206F776E6572 PUSH1 0x40 DUP3 ADD MSTORE PUSH1 0x60 ADD SWAP1 JUMP JUMPDEST PUSH1 0x0 PUSH1 0x20 DUP3 DUP5 SUB SLT ISZERO PUSH2 0x1160 JUMPI PUSH1 0x0 DUP1 REVERT JUMPDEST DUP2 MLOAD DUP1 ISZERO ISZERO DUP2 EQ PUSH2 0x10AC JUMPI PUSH1 0x0 DUP1 REVERT JUMPDEST PUSH1 0x20 DUP1 DUP3 MSTORE PUSH1 0x15 SWAP1 DUP3 ADD MSTORE PUSH21 0x151BDAD95B881D1C985B9CD9995C8819985A5B1959 PUSH1 0x5A SHL PUSH1 0x40 DUP3 ADD MSTORE PUSH1 0x60 ADD SWAP1 JUMP JUMPDEST PUSH4 0x4E487B71 PUSH1 0xE0 SHL PUSH1 0x0 MSTORE PUSH1 0x11 PUSH1 0x4 MSTORE PUSH1 0x24 PUSH1 0x0 REVERT JUMPDEST PUSH1 0x0 DUP3 PUSH2 0x11D2 JUMPI PUSH4 0x4E487B71 PUSH1 0xE0 SHL PUSH1 0x0 MSTORE PUSH1 0x12 PUSH1 0x4 MSTORE PUSH1 0x24 PUSH1 0x0 REVERT JUMPDEST POP DIV SWAP1 JUMP JUMPDEST PUSH1 0x0 PUSH4 0xFFFFFFFF DUP1 DUP4 AND DUP2 DUP2 SUB PUSH2 0x11F0 JUMPI PUSH2 0x11F0 PUSH2 0x119F JUMP JUMPDEST PUSH1 0x1 ADD SWAP4 SWAP3 POP POP POP JUMP JUMPDEST PUSH1 0x0 DUP2 PUSH1 0x0 NOT DIV DUP4 GT DUP3 ISZERO ISZERO AND ISZERO PUSH2 0x1214 JUMPI PUSH2 0x1214 PUSH2 0x119F JUMP JUMPDEST POP MUL SWAP1 JUMP JUMPDEST PUSH1 0x0 PUSH1 0x20 DUP3 DUP5 SUB SLT ISZERO PUSH2 0x122B JUMPI PUSH1 0x0 DUP1 REVERT JUMPDEST POP MLOAD SWAP2 SWAP1 POP JUMP INVALID LOG2 PUSH5 0x6970667358 0x22 SLT KECCAK256 DUP9 PUSH25 0xAF223AA8D1760E90072DCD3029094492B10AE4E371403C333B 0xF7 PUSH16 0x92E96064736F6C634300080D00330000 "
				},
				"gasEstimates": {
					"creation": {
						"codeDepositCost": "942400",
						"executionCost": "infinite",
						"totalCost": "infinite"
					},
					"external": {
						"acceptInvitation(address)": "170676",
						"buyTokens()": "infinite",
						"counter()": "2425",
						"endAt()": "2375",
						"exigencyWithdraw(uint256)": "infinite",
						"getEndTime()": "2403",
						"getPreSellCoinAmount()": "4605",
						"getPreSellCounter()": "2395",
						"getStartTime()": "2352",
						"getUsdtAmount()": "2336",
						"getUserHasBuy(address)": "2560",
						"getUserInviteAirdropCoinAmount(address)": "6972",
						"getUserLowers(address)": "infinite",
						"getUserLowersCount(address)": "2597",
						"getUserUpper(address)": "2632",
						"hasBuy(address)": "2564",
						"inviteInfo(address)": "4740",
						"lowersCounter()": "2392",
						"marketAddress()": "2372",
						"owner()": "2409",
						"presellTokenMintAddress()": "2373",
						"renounceOwnership()": "28204",
						"sellToken()": "infinite",
						"setAmount(uint256)": "24555",
						"setMarketAddress(address)": "26808",
						"startAt()": "2424",
						"transferOwnership(address)": "28384",
						"usdtAmount()": "2361",
						"usdtMintAddress()": "2393",
						"usdtToken()": "infinite",
						"userInviteBalancelMap(address)": "2586",
						"userPresellBalanceMap(address)": "2629",
						"withdrawInviteAirdropTokens()": "infinite",
						"withdrawPresellTokens()": "infinite"
					}
				},
				"methodIdentifiers": {
					"acceptInvitation(address)": "9018c818",
					"buyTokens()": "d0febe4c",
					"counter()": "61bc221a",
					"endAt()": "7cc3ae8c",
					"exigencyWithdraw(uint256)": "6531e61c",
					"getEndTime()": "439f5ac2",
					"getPreSellCoinAmount()": "78eb6c6f",
					"getPreSellCounter()": "f01fc57c",
					"getStartTime()": "c828371e",
					"getUsdtAmount()": "d35cde41",
					"getUserHasBuy(address)": "374eedef",
					"getUserInviteAirdropCoinAmount(address)": "b9f9231a",
					"getUserLowers(address)": "a98b9144",
					"getUserLowersCount(address)": "c556feca",
					"getUserUpper(address)": "d139f56d",
					"hasBuy(address)": "3d719da7",
					"inviteInfo(address)": "1eb43f1a",
					"lowersCounter()": "6de34ce0",
					"marketAddress()": "95623641",
					"owner()": "8da5cb5b",
					"presellTokenMintAddress()": "027734fa",
					"renounceOwnership()": "715018a6",
					"sellToken()": "9769f0b0",
					"setAmount(uint256)": "271f88b4",
					"setMarketAddress(address)": "fae92612",
					"startAt()": "c7446565",
					"transferOwnership(address)": "f2fde38b",
					"usdtAmount()": "e4eef896",
					"usdtMintAddress()": "88af60c6",
					"usdtToken()": "a98ad46c",
					"userInviteBalancelMap(address)": "9e2a0418",
					"userPresellBalanceMap(address)": "90f5881a",
					"withdrawInviteAirdropTokens()": "304d8dea",
					"withdrawPresellTokens()": "c9ede793"
				}
			},
			"storageLayout": {
				"storage": [
					{
						"astId": 70,
						"contract": "msc_token/BeePresell.sol:UsdtPresell",
						"label": "_owner",
						"offset": 0,
						"slot": "0",
						"type": "t_address"
					},
					{
						"astId": 180,
						"contract": "msc_token/BeePresell.sol:UsdtPresell",
						"label": "usdtMintAddress",
						"offset": 0,
						"slot": "1",
						"type": "t_address"
					},
					{
						"astId": 183,
						"contract": "msc_token/BeePresell.sol:UsdtPresell",
						"label": "presellTokenMintAddress",
						"offset": 0,
						"slot": "2",
						"type": "t_address"
					},
					{
						"astId": 186,
						"contract": "msc_token/BeePresell.sol:UsdtPresell",
						"label": "marketAddress",
						"offset": 0,
						"slot": "3",
						"type": "t_address"
					},
					{
						"astId": 193,
						"contract": "msc_token/BeePresell.sol:UsdtPresell",
						"label": "usdtAmount",
						"offset": 0,
						"slot": "4",
						"type": "t_uint256"
					},
					{
						"astId": 200,
						"contract": "msc_token/BeePresell.sol:UsdtPresell",
						"label": "preSellCoinAmount",
						"offset": 0,
						"slot": "5",
						"type": "t_uint256"
					},
					{
						"astId": 207,
						"contract": "msc_token/BeePresell.sol:UsdtPresell",
						"label": "inviteAirdropCoinAmount",
						"offset": 0,
						"slot": "6",
						"type": "t_uint256"
					},
					{
						"astId": 209,
						"contract": "msc_token/BeePresell.sol:UsdtPresell",
						"label": "counter",
						"offset": 0,
						"slot": "7",
						"type": "t_uint32"
					},
					{
						"astId": 211,
						"contract": "msc_token/BeePresell.sol:UsdtPresell",
						"label": "lowersCounter",
						"offset": 4,
						"slot": "7",
						"type": "t_uint32"
					},
					{
						"astId": 216,
						"contract": "msc_token/BeePresell.sol:UsdtPresell",
						"label": "inviteInfo",
						"offset": 0,
						"slot": "8",
						"type": "t_mapping(t_address,t_struct(UserInfo)177_storage)"
					},
					{
						"astId": 226,
						"contract": "msc_token/BeePresell.sol:UsdtPresell",
						"label": "userPresellBalanceMap",
						"offset": 0,
						"slot": "9",
						"type": "t_mapping(t_address,t_bool)"
					},
					{
						"astId": 230,
						"contract": "msc_token/BeePresell.sol:UsdtPresell",
						"label": "userInviteBalancelMap",
						"offset": 0,
						"slot": "10",
						"type": "t_mapping(t_address,t_bool)"
					},
					{
						"astId": 234,
						"contract": "msc_token/BeePresell.sol:UsdtPresell",
						"label": "hasBuy",
						"offset": 0,
						"slot": "11",
						"type": "t_mapping(t_address,t_bool)"
					},
					{
						"astId": 236,
						"contract": "msc_token/BeePresell.sol:UsdtPresell",
						"label": "startAt",
						"offset": 0,
						"slot": "12",
						"type": "t_uint64"
					},
					{
						"astId": 238,
						"contract": "msc_token/BeePresell.sol:UsdtPresell",
						"label": "endAt",
						"offset": 8,
						"slot": "12",
						"type": "t_uint64"
					}
				],
				"types": {
					"t_address": {
						"encoding": "inplace",
						"label": "address",
						"numberOfBytes": "20"
					},
					"t_array(t_address)dyn_storage": {
						"base": "t_address",
						"encoding": "dynamic_array",
						"label": "address[]",
						"numberOfBytes": "32"
					},
					"t_bool": {
						"encoding": "inplace",
						"label": "bool",
						"numberOfBytes": "1"
					},
					"t_mapping(t_address,t_bool)": {
						"encoding": "mapping",
						"key": "t_address",
						"label": "mapping(address => bool)",
						"numberOfBytes": "32",
						"value": "t_bool"
					},
					"t_mapping(t_address,t_struct(UserInfo)177_storage)": {
						"encoding": "mapping",
						"key": "t_address",
						"label": "mapping(address => struct UsdtPresell.UserInfo)",
						"numberOfBytes": "32",
						"value": "t_struct(UserInfo)177_storage"
					},
					"t_struct(UserInfo)177_storage": {
						"encoding": "inplace",
						"label": "struct UsdtPresell.UserInfo",
						"members": [
							{
								"astId": 171,
								"contract": "msc_token/BeePresell.sol:UsdtPresell",
								"label": "upper",
								"offset": 0,
								"slot": "0",
								"type": "t_address"
							},
							{
								"astId": 174,
								"contract": "msc_token/BeePresell.sol:UsdtPresell",
								"label": "lowers",
								"offset": 0,
								"slot": "1",
								"type": "t_array(t_address)dyn_storage"
							},
							{
								"astId": 176,
								"contract": "msc_token/BeePresell.sol:UsdtPresell",
								"label": "startBlock",
								"offset": 0,
								"slot": "2",
								"type": "t_uint256"
							}
						],
						"numberOfBytes": "96"
					},
					"t_uint256": {
						"encoding": "inplace",
						"label": "uint256",
						"numberOfBytes": "32"
					},
					"t_uint32": {
						"encoding": "inplace",
						"label": "uint32",
						"numberOfBytes": "4"
					},
					"t_uint64": {
						"encoding": "inplace",
						"label": "uint64",
						"numberOfBytes": "8"
					}
				}
			},
			"userdoc": {
				"kind": "user",
				"methods": {},
				"version": 1
			}
		}
	}
}