{
	"msc_token/BeePresell.sol": {
		"BeePresell": {
			"abi": [
				{
					"inputs": [
						{
							"internalType": "uint64",
							"name": "_startAt",
							"type": "uint64"
						},
						{
							"internalType": "uint64",
							"name": "_endAt",
							"type": "uint64"
						}
					],
					"stateMutability": "nonpayable",
					"type": "constructor"
				},
				{
					"anonymous": false,
					"inputs": [
						{
							"indexed": true,
							"internalType": "address",
							"name": "previousOwner",
							"type": "address"
						},
						{
							"indexed": true,
							"internalType": "address",
							"name": "newOwner",
							"type": "address"
						}
					],
					"name": "OwnershipTransferred",
					"type": "event"
				},
				{
					"inputs": [
						{
							"internalType": "address",
							"name": "_inviter",
							"type": "address"
						}
					],
					"name": "acceptInvitation",
					"outputs": [
						{
							"internalType": "bool",
							"name": "",
							"type": "bool"
						}
					],
					"stateMutability": "nonpayable",
					"type": "function"
				},
				{
					"inputs": [],
					"name": "buyTokens",
					"outputs": [],
					"stateMutability": "nonpayable",
					"type": "function"
				},
				{
					"inputs": [
						{
							"internalType": "uint256",
							"name": "amount",
							"type": "uint256"
						}
					],
					"name": "exigencyWithdraw",
					"outputs": [],
					"stateMutability": "nonpayable",
					"type": "function"
				},
				{
					"inputs": [],
					"name": "getEndTime",
					"outputs": [
						{
							"internalType": "uint64",
							"name": "",
							"type": "uint64"
						}
					],
					"stateMutability": "view",
					"type": "function"
				},
				{
					"inputs": [],
					"name": "getLowersCount",
					"outputs": [
						{
							"internalType": "uint32",
							"name": "",
							"type": "uint32"
						}
					],
					"stateMutability": "view",
					"type": "function"
				},
				{
					"inputs": [],
					"name": "getPreSellCoinAmount",
					"outputs": [
						{
							"internalType": "uint256",
							"name": "",
							"type": "uint256"
						}
					],
					"stateMutability": "view",
					"type": "function"
				},
				{
					"inputs": [],
					"name": "getPreSellCounter",
					"outputs": [
						{
							"internalType": "uint64",
							"name": "",
							"type": "uint64"
						}
					],
					"stateMutability": "view",
					"type": "function"
				},
				{
					"inputs": [],
					"name": "getPresellMax",
					"outputs": [
						{
							"internalType": "uint32",
							"name": "",
							"type": "uint32"
						}
					],
					"stateMutability": "view",
					"type": "function"
				},
				{
					"inputs": [],
					"name": "getStartTime",
					"outputs": [
						{
							"internalType": "uint64",
							"name": "",
							"type": "uint64"
						}
					],
					"stateMutability": "view",
					"type": "function"
				},
				{
					"inputs": [],
					"name": "getUsdtAmount",
					"outputs": [
						{
							"internalType": "uint256",
							"name": "",
							"type": "uint256"
						}
					],
					"stateMutability": "view",
					"type": "function"
				},
				{
					"inputs": [
						{
							"internalType": "address",
							"name": "user",
							"type": "address"
						}
					],
					"name": "getUserHasBuy",
					"outputs": [
						{
							"internalType": "bool",
							"name": "",
							"type": "bool"
						}
					],
					"stateMutability": "view",
					"type": "function"
				},
				{
					"inputs": [
						{
							"internalType": "address",
							"name": "user",
							"type": "address"
						}
					],
					"name": "getUserInviteAirdropCoinAmount",
					"outputs": [
						{
							"internalType": "uint256",
							"name": "",
							"type": "uint256"
						}
					],
					"stateMutability": "view",
					"type": "function"
				},
				{
					"inputs": [
						{
							"internalType": "address",
							"name": "user",
							"type": "address"
						}
					],
					"name": "getUserLowers",
					"outputs": [
						{
							"internalType": "address[]",
							"name": "",
							"type": "address[]"
						}
					],
					"stateMutability": "view",
					"type": "function"
				},
				{
					"inputs": [
						{
							"internalType": "address",
							"name": "user",
							"type": "address"
						}
					],
					"name": "getUserLowersCount",
					"outputs": [
						{
							"internalType": "uint256",
							"name": "",
							"type": "uint256"
						}
					],
					"stateMutability": "view",
					"type": "function"
				},
				{
					"inputs": [
						{
							"internalType": "address",
							"name": "user",
							"type": "address"
						},
						{
							"internalType": "uint256",
							"name": "start",
							"type": "uint256"
						},
						{
							"internalType": "uint256",
							"name": "end",
							"type": "uint256"
						}
					],
					"name": "getUserLowersSlice",
					"outputs": [
						{
							"internalType": "address[]",
							"name": "",
							"type": "address[]"
						}
					],
					"stateMutability": "view",
					"type": "function"
				},
				{
					"inputs": [
						{
							"internalType": "address",
							"name": "user",
							"type": "address"
						}
					],
					"name": "getUserPreSellCoinAmount",
					"outputs": [
						{
							"internalType": "uint256",
							"name": "",
							"type": "uint256"
						}
					],
					"stateMutability": "view",
					"type": "function"
				},
				{
					"inputs": [
						{
							"internalType": "address",
							"name": "user",
							"type": "address"
						}
					],
					"name": "getUserUpper",
					"outputs": [
						{
							"internalType": "address",
							"name": "",
							"type": "address"
						}
					],
					"stateMutability": "view",
					"type": "function"
				},
				{
					"inputs": [],
					"name": "getWithdrawCounter",
					"outputs": [
						{
							"internalType": "uint64",
							"name": "",
							"type": "uint64"
						}
					],
					"stateMutability": "view",
					"type": "function"
				},
				{
					"inputs": [
						{
							"internalType": "address",
							"name": "",
							"type": "address"
						}
					],
					"name": "hasBuy",
					"outputs": [
						{
							"internalType": "bool",
							"name": "",
							"type": "bool"
						}
					],
					"stateMutability": "view",
					"type": "function"
				},
				{
					"inputs": [
						{
							"internalType": "address",
							"name": "",
							"type": "address"
						}
					],
					"name": "inviteInfo",
					"outputs": [
						{
							"internalType": "address",
							"name": "upper",
							"type": "address"
						},
						{
							"internalType": "uint256",
							"name": "startBlock",
							"type": "uint256"
						}
					],
					"stateMutability": "view",
					"type": "function"
				},
				{
					"inputs": [],
					"name": "marketAddress",
					"outputs": [
						{
							"internalType": "address",
							"name": "",
							"type": "address"
						}
					],
					"stateMutability": "view",
					"type": "function"
				},
				{
					"inputs": [],
					"name": "owner",
					"outputs": [
						{
							"internalType": "address",
							"name": "",
							"type": "address"
						}
					],
					"stateMutability": "view",
					"type": "function"
				},
				{
					"inputs": [],
					"name": "presellTokenMintAddress",
					"outputs": [
						{
							"internalType": "address",
							"name": "",
							"type": "address"
						}
					],
					"stateMutability": "view",
					"type": "function"
				},
				{
					"inputs": [],
					"name": "renounceOwnership",
					"outputs": [],
					"stateMutability": "nonpayable",
					"type": "function"
				},
				{
					"inputs": [],
					"name": "sellToken",
					"outputs": [
						{
							"internalType": "contract IERC20",
							"name": "",
							"type": "address"
						}
					],
					"stateMutability": "view",
					"type": "function"
				},
				{
					"inputs": [
						{
							"internalType": "uint256",
							"name": "newAmount",
							"type": "uint256"
						}
					],
					"name": "setAmount",
					"outputs": [],
					"stateMutability": "nonpayable",
					"type": "function"
				},
				{
					"inputs": [
						{
							"internalType": "address",
							"name": "newAddress",
							"type": "address"
						}
					],
					"name": "setMarketAddress",
					"outputs": [],
					"stateMutability": "nonpayable",
					"type": "function"
				},
				{
					"inputs": [
						{
							"internalType": "address",
							"name": "newOwner",
							"type": "address"
						}
					],
					"name": "transferOwnership",
					"outputs": [],
					"stateMutability": "nonpayable",
					"type": "function"
				},
				{
					"inputs": [],
					"name": "usdtMintAddress",
					"outputs": [
						{
							"internalType": "address",
							"name": "",
							"type": "address"
						}
					],
					"stateMutability": "view",
					"type": "function"
				},
				{
					"inputs": [],
					"name": "usdtToken",
					"outputs": [
						{
							"internalType": "contract IERC20",
							"name": "",
							"type": "address"
						}
					],
					"stateMutability": "view",
					"type": "function"
				},
				{
					"inputs": [
						{
							"internalType": "address",
							"name": "",
							"type": "address"
						}
					],
					"name": "userInviteBalancelMap",
					"outputs": [
						{
							"internalType": "bool",
							"name": "",
							"type": "bool"
						}
					],
					"stateMutability": "view",
					"type": "function"
				},
				{
					"inputs": [
						{
							"internalType": "address",
							"name": "",
							"type": "address"
						}
					],
					"name": "userPresellBalanceMap",
					"outputs": [
						{
							"internalType": "uint256",
							"name": "",
							"type": "uint256"
						}
					],
					"stateMutability": "view",
					"type": "function"
				},
				{
					"inputs": [],
					"name": "withdrawInviteAirdropTokens",
					"outputs": [],
					"stateMutability": "nonpayable",
					"type": "function"
				},
				{
					"inputs": [],
					"name": "withdrawPresellTokens",
					"outputs": [],
					"stateMutability": "nonpayable",
					"type": "function"
				}
			],
			"devdoc": {
				"kind": "dev",
				"methods": {
					"owner()": {
						"details": "Returns the address of the current owner."
					},
					"renounceOwnership()": {
						"details": "Leaves the contract without owner. It will not be possible to call `onlyOwner` functions anymore. Can only be called by the current owner. NOTE: Renouncing ownership will leave the contract without an owner, thereby removing any functionality that is only available to the owner."
					},
					"transferOwnership(address)": {
						"details": "Transfers ownership of the contract to a new account (`newOwner`). Can only be called by the current owner."
					}
				},
				"version": 1
			},
			"evm": {
				"assembly": "    /* \"msc_token/BeePresell.sol\":2649:9416  contract BeePresell is Ownable {... */\n  mstore(0x40, 0xc0)\n    /* \"msc_token/BeePresell.sol\":2883:2958  address public usdtMintAddress = 0xEdA5dA0050e21e9E34fadb1075986Af1370c7BDb */\n  0x01\n  dup1\n  sload\n  not(sub(shl(0xa0, 0x01), 0x01))\n  swap1\n  dup2\n  and\n    /* \"msc_token/BeePresell.sol\":2916:2958  0xEdA5dA0050e21e9E34fadb1075986Af1370c7BDb */\n  0xeda5da0050e21e9e34fadb1075986af1370c7bdb\n    /* \"msc_token/BeePresell.sol\":2883:2958  address public usdtMintAddress = 0xEdA5dA0050e21e9E34fadb1075986Af1370c7BDb */\n  or\n  swap1\n  swap2\n  sstore\n    /* \"msc_token/BeePresell.sol\":2965:3048  address public presellTokenMintAddress = 0xB0bc99bdb71a4320a9aD357f68EBfBe6fFeBFc8A */\n  0x02\n  dup1\n  sload\n  dup3\n  and\n    /* \"msc_token/BeePresell.sol\":3006:3048  0xB0bc99bdb71a4320a9aD357f68EBfBe6fFeBFc8A */\n  0xb0bc99bdb71a4320a9ad357f68ebfbe6ffebfc8a\n    /* \"msc_token/BeePresell.sol\":2965:3048  address public presellTokenMintAddress = 0xB0bc99bdb71a4320a9aD357f68EBfBe6fFeBFc8A */\n  or\n  swap1\n  sstore\n    /* \"msc_token/BeePresell.sol\":3055:3128  address public marketAddress = 0xe3e90697218F31B8d0867b8A9c52947D3c888339 */\n  0x03\n  dup1\n  sload\n  swap1\n  swap2\n  and\n    /* \"msc_token/BeePresell.sol\":3086:3128  0xe3e90697218F31B8d0867b8A9c52947D3c888339 */\n  0xe3e90697218f31b8d0867b8a9c52947d3c888339\n    /* \"msc_token/BeePresell.sol\":3055:3128  address public marketAddress = 0xe3e90697218F31B8d0867b8A9c52947D3c888339 */\n  or\n  swap1\n  sstore\n    /* \"msc_token/BeePresell.sol\":3212:3224  1 * 10 ** 18 */\n  0x0de0b6b3a7640000\n    /* \"msc_token/BeePresell.sol\":3183:3224  uint256 private usdtAmount = 1 * 10 ** 18 */\n  0x04\n  sstore\n    /* \"msc_token/BeePresell.sol\":3270:3285  4500 * 10 ** 18 */\n  0xf3f20b8dfa69d00000\n    /* \"msc_token/BeePresell.sol\":3231:3285  uint256 private preSellCoinPreAmount = 4500 * 10 ** 18 */\n  0x05\n  sstore\n    /* \"msc_token/BeePresell.sol\":3334:3351  409600 * 10 ** 18 */\n  0x56bc75e2d63100000000\n    /* \"msc_token/BeePresell.sol\":3292:3351  uint256 private inviteAirdropCoinAmount = 409600 * 10 ** 18 */\n  0x06\n  sstore\n    /* \"msc_token/BeePresell.sol\":3509:3535  uint32 private preMax = 10 */\n  0x07\n  dup1\n  sload\n  0x0a000000000000000000000000\n  not(shl(0x60, 0xffffffff))\n  swap1\n  swap2\n  and\n  or\n  swap1\n  sstore\n    /* \"msc_token/BeePresell.sol\":3917:4278  constructor(... */\n  callvalue\n  dup1\n  iszero\n  tag_1\n  jumpi\n  0x00\n  dup1\n  revert\ntag_1:\n  pop\n  mload(0x40)\n  sub(codesize, bytecodeSize)\n  dup1\n  bytecodeSize\n  dup4\n  codecopy\n  dup2\n  add\n  0x40\n  dup2\n  swap1\n  mstore\n  tag_2\n  swap2\n  tag_3\n  jump\t// in\ntag_2:\n    /* \"msc_token/BeePresell.sol\":1060:1092  _transferOwnership(_msgSender()) */\n  tag_7\n    /* \"msc_token/BeePresell.sol\":635:645  msg.sender */\n  caller\n    /* \"msc_token/BeePresell.sol\":1060:1078  _transferOwnership */\n  tag_10\n    /* \"msc_token/BeePresell.sol\":1060:1092  _transferOwnership(_msgSender()) */\n  jump\t// in\ntag_7:\n    /* \"msc_token/BeePresell.sol\":4021:4036  block.timestamp */\n  timestamp\n    /* \"msc_token/BeePresell.sol\":4009:4017  _startAt */\n  dup3\n  sub(shl(0x40, 0x01), 0x01)\n    /* \"msc_token/BeePresell.sol\":4009:4036  _startAt >= block.timestamp */\n  and\n  lt\n  iszero\n    /* \"msc_token/BeePresell.sol\":4001:4055  require(_startAt >= block.timestamp, \"start at < now\") */\n  tag_12\n  jumpi\n  mload(0x40)\n  shl(0xe5, 0x461bcd)\n  dup2\n  mstore\n    /* \"#utility.yul\":690:692   */\n  0x20\n    /* \"msc_token/BeePresell.sol\":4001:4055  require(_startAt >= block.timestamp, \"start at < now\") */\n  0x04\n  dup3\n  add\n    /* \"#utility.yul\":672:693   */\n  mstore\n    /* \"#utility.yul\":729:731   */\n  0x0e\n    /* \"#utility.yul\":709:727   */\n  0x24\n  dup3\n  add\n    /* \"#utility.yul\":702:732   */\n  mstore\n  shl(0x90, 0x7374617274206174203c206e6f77)\n    /* \"#utility.yul\":748:766   */\n  0x44\n  dup3\n  add\n    /* \"#utility.yul\":741:785   */\n  mstore\n    /* \"#utility.yul\":802:820   */\n  0x64\n  add\n    /* \"msc_token/BeePresell.sol\":4001:4055  require(_startAt >= block.timestamp, \"start at < now\") */\ntag_13:\n  mload(0x40)\n  dup1\n  swap2\n  sub\n  swap1\n  revert\ntag_12:\n    /* \"msc_token/BeePresell.sol\":4084:4092  _startAt */\n  dup2\n  sub(shl(0x40, 0x01), 0x01)\n    /* \"msc_token/BeePresell.sol\":4074:4092  _endAt >= _startAt */\n  and\n    /* \"msc_token/BeePresell.sol\":4074:4080  _endAt */\n  dup2\n  sub(shl(0x40, 0x01), 0x01)\n    /* \"msc_token/BeePresell.sol\":4074:4092  _endAt >= _startAt */\n  and\n  lt\n  iszero\n    /* \"msc_token/BeePresell.sol\":4066:4114  require(_endAt >= _startAt, \"end at < start at\") */\n  tag_15\n  jumpi\n  mload(0x40)\n  shl(0xe5, 0x461bcd)\n  dup2\n  mstore\n    /* \"#utility.yul\":1033:1035   */\n  0x20\n    /* \"msc_token/BeePresell.sol\":4066:4114  require(_endAt >= _startAt, \"end at < start at\") */\n  0x04\n  dup3\n  add\n    /* \"#utility.yul\":1015:1036   */\n  mstore\n    /* \"#utility.yul\":1072:1074   */\n  0x11\n    /* \"#utility.yul\":1052:1070   */\n  0x24\n  dup3\n  add\n    /* \"#utility.yul\":1045:1075   */\n  mstore\n  shl(0x7a, 0x195b9908185d080f081cdd185c9d08185d)\n    /* \"#utility.yul\":1091:1109   */\n  0x44\n  dup3\n  add\n    /* \"#utility.yul\":1084:1131   */\n  mstore\n    /* \"#utility.yul\":1148:1166   */\n  0x64\n  add\n    /* \"msc_token/BeePresell.sol\":4066:4114  require(_endAt >= _startAt, \"end at < start at\") */\n  tag_13\n    /* \"#utility.yul\":831:1172   */\n  jump\n    /* \"msc_token/BeePresell.sol\":4066:4114  require(_endAt >= _startAt, \"end at < start at\") */\ntag_15:\n    /* \"msc_token/BeePresell.sol\":4127:4134  startAt */\n  0x07\n    /* \"msc_token/BeePresell.sol\":4127:4145  startAt = _startAt */\n  dup1\n  sload\n  sub(shl(0x80, 0x01), 0x01)\n    /* \"msc_token/BeePresell.sol\":4156:4170  endAt = _endAt */\n  and\n  shl(0x80, 0x01)\n  sub(shl(0x40, 0x01), 0x01)\n    /* \"msc_token/BeePresell.sol\":4127:4145  startAt = _startAt */\n  swap5\n  dup6\n  and\n  mul\n  sub(shl(0xc0, 0x01), 0x01)\n    /* \"msc_token/BeePresell.sol\":4156:4170  endAt = _endAt */\n  and\n  or\n  shl(0xc0, 0x01)\n  swap3\n  swap1\n  swap4\n  and\n  swap2\n  swap1\n  swap2\n  mul\n  swap2\n  swap1\n  swap2\n  or\n  swap1\n  sstore\n  0x01\n    /* \"msc_token/BeePresell.sol\":4200:4215  usdtMintAddress */\n  sload\n  sub(shl(0xa0, 0x01), 0x01)\n  swap1\n  dup2\n  and\n    /* \"msc_token/BeePresell.sol\":4181:4216  usdtToken = IERC20(usdtMintAddress) */\n  0x80\n  mstore\n    /* \"msc_token/BeePresell.sol\":4246:4269  presellTokenMintAddress */\n  sload(0x02)\n  and\n    /* \"msc_token/BeePresell.sol\":4227:4270  sellToken = IERC20(presellTokenMintAddress) */\n  0xa0\n  mstore\n    /* \"msc_token/BeePresell.sol\":2649:9416  contract BeePresell is Ownable {... */\n  jump(tag_22)\n    /* \"msc_token/BeePresell.sol\":2451:2642  function _transferOwnership(address newOwner) internal virtual {... */\ntag_10:\n    /* \"msc_token/BeePresell.sol\":2525:2541  address oldOwner */\n  0x00\n    /* \"msc_token/BeePresell.sol\":2544:2550  _owner */\n  dup1\n  sload\n  sub(shl(0xa0, 0x01), 0x01)\n    /* \"msc_token/BeePresell.sol\":2561:2578  _owner = newOwner */\n  dup4\n  dup2\n  and\n  not(sub(shl(0xa0, 0x01), 0x01))\n  dup4\n  and\n  dup2\n  or\n  dup5\n  sstore\n    /* \"msc_token/BeePresell.sol\":2594:2634  OwnershipTransferred(oldOwner, newOwner) */\n  mload(0x40)\n    /* \"msc_token/BeePresell.sol\":2544:2550  _owner */\n  swap2\n  swap1\n  swap3\n  and\n  swap3\n  dup4\n  swap2\n    /* \"msc_token/BeePresell.sol\":2594:2634  OwnershipTransferred(oldOwner, newOwner) */\n  0x8be0079c531659141344cd1fd0a4f28419497f9722a3daafe3b4186f6b6457e0\n  swap2\n    /* \"msc_token/BeePresell.sol\":2525:2541  address oldOwner */\n  swap1\n    /* \"msc_token/BeePresell.sol\":2594:2634  OwnershipTransferred(oldOwner, newOwner) */\n  log3\n    /* \"msc_token/BeePresell.sol\":2514:2642  {... */\n  pop\n    /* \"msc_token/BeePresell.sol\":2451:2642  function _transferOwnership(address newOwner) internal virtual {... */\n  pop\n  jump\t// out\n    /* \"#utility.yul\":14:189   */\ntag_21:\n    /* \"#utility.yul\":92:105   */\n  dup1\n  mload\n  sub(shl(0x40, 0x01), 0x01)\n    /* \"#utility.yul\":134:164   */\n  dup2\n  and\n    /* \"#utility.yul\":124:165   */\n  dup2\n  eq\n    /* \"#utility.yul\":114:183   */\n  tag_24\n  jumpi\n    /* \"#utility.yul\":179:180   */\n  0x00\n    /* \"#utility.yul\":176:177   */\n  dup1\n    /* \"#utility.yul\":169:181   */\n  revert\n    /* \"#utility.yul\":114:183   */\ntag_24:\n    /* \"#utility.yul\":14:189   */\n  swap2\n  swap1\n  pop\n  jump\t// out\n    /* \"#utility.yul\":194:483   */\ntag_3:\n    /* \"#utility.yul\":271:277   */\n  0x00\n    /* \"#utility.yul\":279:285   */\n  dup1\n    /* \"#utility.yul\":332:334   */\n  0x40\n    /* \"#utility.yul\":320:329   */\n  dup4\n    /* \"#utility.yul\":311:318   */\n  dup6\n    /* \"#utility.yul\":307:330   */\n  sub\n    /* \"#utility.yul\":303:335   */\n  slt\n    /* \"#utility.yul\":300:352   */\n  iszero\n  tag_26\n  jumpi\n    /* \"#utility.yul\":348:349   */\n  0x00\n    /* \"#utility.yul\":345:346   */\n  dup1\n    /* \"#utility.yul\":338:350   */\n  revert\n    /* \"#utility.yul\":300:352   */\ntag_26:\n    /* \"#utility.yul\":371:410   */\n  tag_27\n    /* \"#utility.yul\":400:409   */\n  dup4\n    /* \"#utility.yul\":371:410   */\n  tag_21\n  jump\t// in\ntag_27:\n    /* \"#utility.yul\":361:410   */\n  swap2\n  pop\n    /* \"#utility.yul\":429:477   */\n  tag_28\n    /* \"#utility.yul\":473:475   */\n  0x20\n    /* \"#utility.yul\":462:471   */\n  dup5\n    /* \"#utility.yul\":458:476   */\n  add\n    /* \"#utility.yul\":429:477   */\n  tag_21\n  jump\t// in\ntag_28:\n    /* \"#utility.yul\":419:477   */\n  swap1\n  pop\n    /* \"#utility.yul\":194:483   */\n  swap3\n  pop\n  swap3\n  swap1\n  pop\n  jump\t// out\n    /* \"#utility.yul\":831:1172   */\ntag_22:\n    /* \"msc_token/BeePresell.sol\":2649:9416  contract BeePresell is Ownable {... */\n  mload(0x80)\n  mload(0xa0)\n  codecopy(0x00, dataOffset(sub_0), dataSize(sub_0))\n  0x00\n  assignImmutable(\"0xc849ac6906fb063f44f99b9ae7fa6aacafa477545e0e3f40a74dbbf30335f84e\")\n  0x00\n  assignImmutable(\"0x1cca6d2cec39a0e1e2f69c2ebe2dc3f8c1e03db413c5d1c3e31cdca41ddbc4f2\")\n  return(0x00, dataSize(sub_0))\nstop\n\nsub_0: assembly {\n        /* \"msc_token/BeePresell.sol\":2649:9416  contract BeePresell is Ownable {... */\n      mstore(0x40, 0x80)\n      callvalue\n      dup1\n      iszero\n      tag_1\n      jumpi\n      0x00\n      dup1\n      revert\n    tag_1:\n      pop\n      jumpi(tag_2, lt(calldatasize, 0x04))\n      shr(0xe0, calldataload(0x00))\n      dup1\n      0x95bf1653\n      gt\n      tag_37\n      jumpi\n      dup1\n      0xc9ede793\n      gt\n      tag_38\n      jumpi\n      dup1\n      0xd35cde41\n      gt\n      tag_39\n      jumpi\n      dup1\n      0xd35cde41\n      eq\n      tag_32\n      jumpi\n      dup1\n      0xeff7318d\n      eq\n      tag_33\n      jumpi\n      dup1\n      0xf01fc57c\n      eq\n      tag_34\n      jumpi\n      dup1\n      0xf2fde38b\n      eq\n      tag_35\n      jumpi\n      dup1\n      0xfae92612\n      eq\n      tag_36\n      jumpi\n      0x00\n      dup1\n      revert\n    tag_39:\n      dup1\n      0xc9ede793\n      eq\n      tag_28\n      jumpi\n      dup1\n      0xd0febe4c\n      eq\n      tag_29\n      jumpi\n      dup1\n      0xd139f56d\n      eq\n      tag_30\n      jumpi\n      dup1\n      0xd1d04e1f\n      eq\n      tag_31\n      jumpi\n      0x00\n      dup1\n      revert\n    tag_38:\n      dup1\n      0xa98b9144\n      gt\n      tag_40\n      jumpi\n      dup1\n      0xa98b9144\n      eq\n      tag_24\n      jumpi\n      dup1\n      0xb9f9231a\n      eq\n      tag_25\n      jumpi\n      dup1\n      0xc556feca\n      eq\n      tag_26\n      jumpi\n      dup1\n      0xc828371e\n      eq\n      tag_27\n      jumpi\n      0x00\n      dup1\n      revert\n    tag_40:\n      dup1\n      0x95bf1653\n      eq\n      tag_20\n      jumpi\n      dup1\n      0x9769f0b0\n      eq\n      tag_21\n      jumpi\n      dup1\n      0x9e2a0418\n      eq\n      tag_22\n      jumpi\n      dup1\n      0xa98ad46c\n      eq\n      tag_23\n      jumpi\n      0x00\n      dup1\n      revert\n    tag_37:\n      dup1\n      0x6531e61c\n      gt\n      tag_41\n      jumpi\n      dup1\n      0x88af60c6\n      gt\n      tag_42\n      jumpi\n      dup1\n      0x88af60c6\n      eq\n      tag_15\n      jumpi\n      dup1\n      0x8da5cb5b\n      eq\n      tag_16\n      jumpi\n      dup1\n      0x9018c818\n      eq\n      tag_17\n      jumpi\n      dup1\n      0x90f5881a\n      eq\n      tag_18\n      jumpi\n      dup1\n      0x95623641\n      eq\n      tag_19\n      jumpi\n      0x00\n      dup1\n      revert\n    tag_42:\n      dup1\n      0x6531e61c\n      eq\n      tag_11\n      jumpi\n      dup1\n      0x715018a6\n      eq\n      tag_12\n      jumpi\n      dup1\n      0x78eb6c6f\n      eq\n      tag_13\n      jumpi\n      dup1\n      0x8568f4ce\n      eq\n      tag_14\n      jumpi\n      0x00\n      dup1\n      revert\n    tag_41:\n      dup1\n      0x304d8dea\n      gt\n      tag_43\n      jumpi\n      dup1\n      0x304d8dea\n      eq\n      tag_7\n      jumpi\n      dup1\n      0x374eedef\n      eq\n      tag_8\n      jumpi\n      dup1\n      0x3d719da7\n      eq\n      tag_9\n      jumpi\n      dup1\n      0x439f5ac2\n      eq\n      tag_10\n      jumpi\n      0x00\n      dup1\n      revert\n    tag_43:\n      dup1\n      0x027734fa\n      eq\n      tag_3\n      jumpi\n      dup1\n      0x03d7424d\n      eq\n      tag_4\n      jumpi\n      dup1\n      0x1eb43f1a\n      eq\n      tag_5\n      jumpi\n      dup1\n      0x271f88b4\n      eq\n      tag_6\n      jumpi\n    tag_2:\n      0x00\n      dup1\n      revert\n        /* \"msc_token/BeePresell.sol\":2965:3048  address public presellTokenMintAddress = 0xB0bc99bdb71a4320a9aD357f68EBfBe6fFeBFc8A */\n    tag_3:\n      sload(0x02)\n      tag_44\n      swap1\n      sub(shl(0xa0, 0x01), 0x01)\n      and\n      dup2\n      jump\n    tag_44:\n      mload(0x40)\n      sub(shl(0xa0, 0x01), 0x01)\n        /* \"#utility.yul\":178:210   */\n      swap1\n      swap2\n      and\n        /* \"#utility.yul\":160:211   */\n      dup2\n      mstore\n        /* \"#utility.yul\":148:150   */\n      0x20\n        /* \"#utility.yul\":133:151   */\n      add\n        /* \"msc_token/BeePresell.sol\":2965:3048  address public presellTokenMintAddress = 0xB0bc99bdb71a4320a9aD357f68EBfBe6fFeBFc8A */\n    tag_46:\n      mload(0x40)\n      dup1\n      swap2\n      sub\n      swap1\n      return\n        /* \"msc_token/BeePresell.sol\":5417:5517  function getWithdrawCounter() public view returns (uint64) {... */\n    tag_4:\n        /* \"msc_token/BeePresell.sol\":5494:5509  withdrawCounter */\n      sload(0x07)\n      0x0100000000\n      swap1\n      div\n      0xffffffff\n      and\n        /* \"msc_token/BeePresell.sol\":5417:5517  function getWithdrawCounter() public view returns (uint64) {... */\n    tag_48:\n      mload(0x40)\n        /* \"#utility.yul\":396:414   */\n      0xffffffffffffffff\n        /* \"#utility.yul\":384:415   */\n      swap1\n      swap2\n      and\n        /* \"#utility.yul\":366:416   */\n      dup2\n      mstore\n        /* \"#utility.yul\":354:356   */\n      0x20\n        /* \"#utility.yul\":339:357   */\n      add\n        /* \"msc_token/BeePresell.sol\":5417:5517  function getWithdrawCounter() public view returns (uint64) {... */\n      tag_46\n        /* \"#utility.yul\":222:422   */\n      jump\n        /* \"msc_token/BeePresell.sol\":3608:3654  mapping(address => UserInfo) public inviteInfo */\n    tag_5:\n      tag_52\n      tag_53\n      calldatasize\n      0x04\n      tag_54\n      jump\t// in\n    tag_53:\n      mstore(0x20, 0x08)\n      0x00\n      swap1\n      dup2\n      mstore\n      0x40\n      swap1\n      keccak256\n      dup1\n      sload\n      0x02\n      swap1\n      swap2\n      add\n      sload\n      sub(shl(0xa0, 0x01), 0x01)\n      swap1\n      swap2\n      and\n      swap1\n      dup3\n      jump\n    tag_52:\n      0x40\n      dup1\n      mload\n      sub(shl(0xa0, 0x01), 0x01)\n        /* \"#utility.yul\":988:1020   */\n      swap1\n      swap4\n      and\n        /* \"#utility.yul\":970:1021   */\n      dup4\n      mstore\n        /* \"#utility.yul\":1052:1054   */\n      0x20\n        /* \"#utility.yul\":1037:1055   */\n      dup4\n      add\n        /* \"#utility.yul\":1030:1064   */\n      swap2\n      swap1\n      swap2\n      mstore\n        /* \"#utility.yul\":943:961   */\n      add\n        /* \"msc_token/BeePresell.sol\":3608:3654  mapping(address => UserInfo) public inviteInfo */\n      tag_46\n        /* \"#utility.yul\":796:1070   */\n      jump\n        /* \"msc_token/BeePresell.sol\":9317:9413  function setAmount(uint256 newAmount) public onlyOwner {... */\n    tag_6:\n      tag_58\n      tag_59\n      calldatasize\n      0x04\n      tag_60\n      jump\t// in\n    tag_59:\n      tag_61\n      jump\t// in\n    tag_58:\n      stop\n        /* \"msc_token/BeePresell.sol\":8602:9002  function withdrawInviteAirdropTokens() public {... */\n    tag_7:\n      tag_58\n      tag_63\n      jump\t// in\n        /* \"msc_token/BeePresell.sol\":5208:5310  function getUserHasBuy(address user) public view returns (bool) {... */\n    tag_8:\n      tag_64\n      tag_65\n      calldatasize\n      0x04\n      tag_54\n      jump\t// in\n    tag_65:\n      sub(shl(0xa0, 0x01), 0x01)\n        /* \"msc_token/BeePresell.sol\":5290:5302  hasBuy[user] */\n      and\n        /* \"msc_token/BeePresell.sol\":5266:5270  bool */\n      0x00\n        /* \"msc_token/BeePresell.sol\":5290:5302  hasBuy[user] */\n      swap1\n      dup2\n      mstore\n        /* \"msc_token/BeePresell.sol\":5290:5296  hasBuy */\n      0x0b\n        /* \"msc_token/BeePresell.sol\":5290:5302  hasBuy[user] */\n      0x20\n      mstore\n      0x40\n      swap1\n      keccak256\n      sload\n      0xff\n      and\n      swap1\n        /* \"msc_token/BeePresell.sol\":5208:5310  function getUserHasBuy(address user) public view returns (bool) {... */\n      jump\n    tag_64:\n      mload(0x40)\n        /* \"#utility.yul\":1425:1439   */\n      swap1\n      iszero\n        /* \"#utility.yul\":1418:1440   */\n      iszero\n        /* \"#utility.yul\":1400:1441   */\n      dup2\n      mstore\n        /* \"#utility.yul\":1388:1390   */\n      0x20\n        /* \"#utility.yul\":1373:1391   */\n      add\n        /* \"msc_token/BeePresell.sol\":5208:5310  function getUserHasBuy(address user) public view returns (bool) {... */\n      tag_46\n        /* \"#utility.yul\":1260:1447   */\n      jump\n        /* \"msc_token/BeePresell.sol\":3866:3904  mapping(address => bool) public hasBuy */\n    tag_9:\n      tag_64\n      tag_70\n      calldatasize\n      0x04\n      tag_54\n      jump\t// in\n    tag_70:\n      mstore(0x20, 0x0b)\n      0x00\n      swap1\n      dup2\n      mstore\n      0x40\n      swap1\n      keccak256\n      sload\n      0xff\n      and\n      dup2\n      jump\n        /* \"msc_token/BeePresell.sol\":5118:5200  function getEndTime() public view returns (uint64) {... */\n    tag_10:\n        /* \"msc_token/BeePresell.sol\":5187:5192  endAt */\n      sload(0x07)\n      shl(0xc0, 0x01)\n      swap1\n      div\n      0xffffffffffffffff\n      and\n        /* \"msc_token/BeePresell.sol\":5118:5200  function getEndTime() public view returns (uint64) {... */\n      jump(tag_48)\n        /* \"msc_token/BeePresell.sol\":9010:9187  function exigencyWithdraw(uint256 amount) public onlyOwner {... */\n    tag_11:\n      tag_58\n      tag_77\n      calldatasize\n      0x04\n      tag_60\n      jump\t// in\n    tag_77:\n      tag_78\n      jump\t// in\n        /* \"msc_token/BeePresell.sol\":1832:1935  function renounceOwnership() public virtual onlyOwner {... */\n    tag_12:\n      tag_58\n      tag_80\n      jump\t// in\n        /* \"msc_token/BeePresell.sol\":4579:4687  function getPreSellCoinAmount() public view returns (uint256) {... */\n    tag_13:\n        /* \"msc_token/BeePresell.sol\":4659:4679  preSellCoinPreAmount */\n      sload(0x05)\n        /* \"msc_token/BeePresell.sol\":4579:4687  function getPreSellCoinAmount() public view returns (uint256) {... */\n    tag_81:\n      mload(0x40)\n        /* \"#utility.yul\":1598:1623   */\n      swap1\n      dup2\n      mstore\n        /* \"#utility.yul\":1586:1588   */\n      0x20\n        /* \"#utility.yul\":1571:1589   */\n      add\n        /* \"msc_token/BeePresell.sol\":4579:4687  function getPreSellCoinAmount() public view returns (uint256) {... */\n      tag_46\n        /* \"#utility.yul\":1452:1629   */\n      jump\n        /* \"msc_token/BeePresell.sol\":4695:4826  function getUserPreSellCoinAmount(address user) public view returns (uint256) {... */\n    tag_14:\n      tag_81\n      tag_86\n      calldatasize\n      0x04\n      tag_54\n      jump\t// in\n    tag_86:\n      sub(shl(0xa0, 0x01), 0x01)\n        /* \"msc_token/BeePresell.sol\":4791:4818  userPresellBalanceMap[user] */\n      and\n        /* \"msc_token/BeePresell.sol\":4764:4771  uint256 */\n      0x00\n        /* \"msc_token/BeePresell.sol\":4791:4818  userPresellBalanceMap[user] */\n      swap1\n      dup2\n      mstore\n        /* \"msc_token/BeePresell.sol\":4791:4812  userPresellBalanceMap */\n      0x09\n        /* \"msc_token/BeePresell.sol\":4791:4818  userPresellBalanceMap[user] */\n      0x20\n      mstore\n      0x40\n      swap1\n      keccak256\n      sload\n      swap1\n        /* \"msc_token/BeePresell.sol\":4695:4826  function getUserPreSellCoinAmount(address user) public view returns (uint256) {... */\n      jump\n        /* \"msc_token/BeePresell.sol\":2883:2958  address public usdtMintAddress = 0xEdA5dA0050e21e9E34fadb1075986Af1370c7BDb */\n    tag_15:\n      sload(0x01)\n      tag_44\n      swap1\n      sub(shl(0xa0, 0x01), 0x01)\n      and\n      dup2\n      jump\n        /* \"msc_token/BeePresell.sol\":1181:1268  function owner() public view virtual returns (address) {... */\n    tag_16:\n        /* \"msc_token/BeePresell.sol\":1227:1234  address */\n      0x00\n        /* \"msc_token/BeePresell.sol\":1254:1260  _owner */\n      sload\n      sub(shl(0xa0, 0x01), 0x01)\n      and\n        /* \"msc_token/BeePresell.sol\":1181:1268  function owner() public view virtual returns (address) {... */\n      jump(tag_44)\n        /* \"msc_token/BeePresell.sol\":6564:7523  function acceptInvitation(address _inviter) public returns (bool) {... */\n    tag_17:\n      tag_64\n      tag_96\n      calldatasize\n      0x04\n      tag_54\n      jump\t// in\n    tag_96:\n      tag_97\n      jump\t// in\n        /* \"msc_token/BeePresell.sol\":3743:3799  mapping(address => uint256) public userPresellBalanceMap */\n    tag_18:\n      tag_81\n      tag_100\n      calldatasize\n      0x04\n      tag_54\n      jump\t// in\n    tag_100:\n      mstore(0x20, 0x09)\n      0x00\n      swap1\n      dup2\n      mstore\n      0x40\n      swap1\n      keccak256\n      sload\n      dup2\n      jump\n        /* \"msc_token/BeePresell.sol\":3055:3128  address public marketAddress = 0xe3e90697218F31B8d0867b8A9c52947D3c888339 */\n    tag_19:\n      sload(0x03)\n      tag_44\n      swap1\n      sub(shl(0xa0, 0x01), 0x01)\n      and\n      dup2\n      jump\n        /* \"msc_token/BeePresell.sol\":5794:6432  function getUserLowersSlice(address user, uint256 start,  uint256 end) public view returns (address[] memory) {... */\n    tag_20:\n      tag_106\n      tag_107\n      calldatasize\n      0x04\n      tag_108\n      jump\t// in\n    tag_107:\n      tag_109\n      jump\t// in\n    tag_106:\n      mload(0x40)\n      tag_46\n      swap2\n      swap1\n      tag_111\n      jump\t// in\n        /* \"msc_token/BeePresell.sol\":3703:3736  IERC20 public immutable sellToken */\n    tag_21:\n      tag_44\n      immutable(\"0xc849ac6906fb063f44f99b9ae7fa6aacafa477545e0e3f40a74dbbf30335f84e\")\n      dup2\n      jump\n        /* \"msc_token/BeePresell.sol\":3806:3859  mapping(address => bool) public userInviteBalancelMap */\n    tag_22:\n      tag_64\n      tag_117\n      calldatasize\n      0x04\n      tag_54\n      jump\t// in\n    tag_117:\n      mstore(0x20, 0x0a)\n      0x00\n      swap1\n      dup2\n      mstore\n      0x40\n      swap1\n      keccak256\n      sload\n      0xff\n      and\n      dup2\n      jump\n        /* \"msc_token/BeePresell.sol\":3663:3696  IERC20 public immutable usdtToken */\n    tag_23:\n      tag_44\n      immutable(\"0x1cca6d2cec39a0e1e2f69c2ebe2dc3f8c1e03db413c5d1c3e31cdca41ddbc4f2\")\n      dup2\n      jump\n        /* \"msc_token/BeePresell.sol\":5661:5786  function getUserLowers(address user) public view returns (address[] memory) {... */\n    tag_24:\n      tag_106\n      tag_124\n      calldatasize\n      0x04\n      tag_54\n      jump\t// in\n    tag_124:\n      tag_125\n      jump\t// in\n        /* \"msc_token/BeePresell.sol\":4834:5016  function getUserInviteAirdropCoinAmount(address user) public view returns (uint256) {... */\n    tag_25:\n      tag_81\n      tag_128\n      calldatasize\n      0x04\n      tag_54\n      jump\t// in\n    tag_128:\n      tag_129\n      jump\t// in\n        /* \"msc_token/BeePresell.sol\":5525:5653  function getUserLowersCount(address user) public view returns (uint256) {... */\n    tag_26:\n      tag_81\n      tag_132\n      calldatasize\n      0x04\n      tag_54\n      jump\t// in\n    tag_132:\n      sub(shl(0xa0, 0x01), 0x01)\n        /* \"msc_token/BeePresell.sol\":5615:5631  inviteInfo[user] */\n      and\n        /* \"msc_token/BeePresell.sol\":5588:5595  uint256 */\n      0x00\n        /* \"msc_token/BeePresell.sol\":5615:5631  inviteInfo[user] */\n      swap1\n      dup2\n      mstore\n        /* \"msc_token/BeePresell.sol\":5615:5625  inviteInfo */\n      0x08\n        /* \"msc_token/BeePresell.sol\":5615:5631  inviteInfo[user] */\n      0x20\n      mstore\n      0x40\n      swap1\n      keccak256\n        /* \"msc_token/BeePresell.sol\":5615:5638  inviteInfo[user].lowers */\n      0x01\n      add\n        /* \"msc_token/BeePresell.sol\":5615:5645  inviteInfo[user].lowers.length */\n      sload\n      swap1\n        /* \"msc_token/BeePresell.sol\":5525:5653  function getUserLowersCount(address user) public view returns (uint256) {... */\n      jump\n        /* \"msc_token/BeePresell.sol\":5024:5110  function getStartTime() public view returns (uint64) {... */\n    tag_27:\n        /* \"msc_token/BeePresell.sol\":5095:5102  startAt */\n      sload(0x07)\n      shl(0x80, 0x01)\n      swap1\n      div\n      0xffffffffffffffff\n      and\n        /* \"msc_token/BeePresell.sol\":5024:5110  function getStartTime() public view returns (uint64) {... */\n      jump(tag_48)\n        /* \"msc_token/BeePresell.sol\":8187:8594  function withdrawPresellTokens() public {... */\n    tag_28:\n      tag_58\n      tag_139\n      jump\t// in\n        /* \"msc_token/BeePresell.sol\":7531:8179  function buyTokens() public {... */\n    tag_29:\n      tag_58\n      tag_141\n      jump\t// in\n        /* \"msc_token/BeePresell.sol\":6442:6556  function getUserUpper(address user) public view returns (address) {... */\n    tag_30:\n      tag_44\n      tag_143\n      calldatasize\n      0x04\n      tag_54\n      jump\t// in\n    tag_143:\n      sub(shl(0xa0, 0x01), 0x01)\n        /* \"msc_token/BeePresell.sol\":6526:6542  inviteInfo[user] */\n      swap1\n      dup2\n      and\n        /* \"msc_token/BeePresell.sol\":6499:6506  address */\n      0x00\n        /* \"msc_token/BeePresell.sol\":6526:6542  inviteInfo[user] */\n      swap1\n      dup2\n      mstore\n        /* \"msc_token/BeePresell.sol\":6526:6536  inviteInfo */\n      0x08\n        /* \"msc_token/BeePresell.sol\":6526:6542  inviteInfo[user] */\n      0x20\n      mstore\n      0x40\n      swap1\n      keccak256\n        /* \"msc_token/BeePresell.sol\":6526:6548  inviteInfo[user].upper */\n      sload\n      and\n      swap1\n        /* \"msc_token/BeePresell.sol\":6442:6556  function getUserUpper(address user) public view returns (address) {... */\n      jump\n        /* \"msc_token/BeePresell.sol\":4485:4571  function getPresellMax() public view returns (uint32) {... */\n    tag_31:\n        /* \"msc_token/BeePresell.sol\":4557:4563  preMax */\n      sload(0x07)\n      shl(0x60, 0x01)\n      swap1\n      div\n      0xffffffff\n      and\n        /* \"msc_token/BeePresell.sol\":4485:4571  function getPresellMax() public view returns (uint32) {... */\n    tag_146:\n      mload(0x40)\n        /* \"#utility.yul\":3019:3029   */\n      0xffffffff\n        /* \"#utility.yul\":3007:3030   */\n      swap1\n      swap2\n      and\n        /* \"#utility.yul\":2989:3031   */\n      dup2\n      mstore\n        /* \"#utility.yul\":2977:2979   */\n      0x20\n        /* \"#utility.yul\":2962:2980   */\n      add\n        /* \"msc_token/BeePresell.sol\":4485:4571  function getPresellMax() public view returns (uint32) {... */\n      tag_46\n        /* \"#utility.yul\":2845:3037   */\n      jump\n        /* \"msc_token/BeePresell.sol\":4386:4477  function getUsdtAmount() public view returns (uint256) {... */\n    tag_32:\n        /* \"msc_token/BeePresell.sol\":4459:4469  usdtAmount */\n      sload(0x04)\n        /* \"msc_token/BeePresell.sol\":4386:4477  function getUsdtAmount() public view returns (uint256) {... */\n      jump(tag_81)\n        /* \"msc_token/BeePresell.sol\":4284:4378  function getLowersCount() public view returns (uint32) {... */\n    tag_33:\n        /* \"msc_token/BeePresell.sol\":4357:4370  lowersCounter */\n      sload(0x07)\n      shl(0x40, 0x01)\n      swap1\n      div\n      0xffffffff\n      and\n        /* \"msc_token/BeePresell.sol\":4284:4378  function getLowersCount() public view returns (uint32) {... */\n      jump(tag_146)\n        /* \"msc_token/BeePresell.sol\":5318:5409  function getPreSellCounter() public view returns (uint64) {... */\n    tag_34:\n        /* \"msc_token/BeePresell.sol\":5394:5401  counter */\n      and(0xffffffff, sload(0x07))\n        /* \"msc_token/BeePresell.sol\":5318:5409  function getPreSellCounter() public view returns (uint64) {... */\n      jump(tag_48)\n        /* \"msc_token/BeePresell.sol\":2090:2291  function transferOwnership(address newOwner) public virtual onlyOwner {... */\n    tag_35:\n      tag_58\n      tag_160\n      calldatasize\n      0x04\n      tag_54\n      jump\t// in\n    tag_160:\n      tag_161\n      jump\t// in\n        /* \"msc_token/BeePresell.sol\":9195:9303  function setMarketAddress(address newAddress) public onlyOwner {... */\n    tag_36:\n      tag_58\n      tag_163\n      calldatasize\n      0x04\n      tag_54\n      jump\t// in\n    tag_163:\n      tag_164\n      jump\t// in\n        /* \"msc_token/BeePresell.sol\":9317:9413  function setAmount(uint256 newAmount) public onlyOwner {... */\n    tag_61:\n        /* \"msc_token/BeePresell.sol\":1227:1234  address */\n      0x00\n        /* \"msc_token/BeePresell.sol\":1254:1260  _owner */\n      sload\n      sub(shl(0xa0, 0x01), 0x01)\n      and\n        /* \"msc_token/BeePresell.sol\":635:645  msg.sender */\n      caller\n        /* \"msc_token/BeePresell.sol\":1401:1424  owner() == _msgSender() */\n      eq\n        /* \"msc_token/BeePresell.sol\":1393:1461  require(owner() == _msgSender(), \"Ownable: caller is not the owner\") */\n      tag_170\n      jumpi\n      mload(0x40)\n      shl(0xe5, 0x461bcd)\n      dup2\n      mstore\n      0x04\n      add\n      tag_171\n      swap1\n      tag_172\n      jump\t// in\n    tag_171:\n      mload(0x40)\n      dup1\n      swap2\n      sub\n      swap1\n      revert\n    tag_170:\n        /* \"msc_token/BeePresell.sol\":9383:9393  usdtAmount */\n      0x04\n        /* \"msc_token/BeePresell.sol\":9383:9405  usdtAmount = newAmount */\n      sstore\n        /* \"msc_token/BeePresell.sol\":9317:9413  function setAmount(uint256 newAmount) public onlyOwner {... */\n      jump\t// out\n        /* \"msc_token/BeePresell.sol\":8602:9002  function withdrawInviteAirdropTokens() public {... */\n    tag_63:\n        /* \"msc_token/BeePresell.sol\":8667:8672  endAt */\n      sload(0x07)\n        /* \"msc_token/BeePresell.sol\":8675:8690  block.timestamp */\n      timestamp\n      shl(0xc0, 0x01)\n        /* \"msc_token/BeePresell.sol\":8667:8672  endAt */\n      swap1\n      swap2\n      div\n      0xffffffffffffffff\n      and\n        /* \"msc_token/BeePresell.sol\":8667:8690  endAt < block.timestamp */\n      lt\n        /* \"msc_token/BeePresell.sol\":8659:8710  require(endAt < block.timestamp, \"presell not end\") */\n      tag_175\n      jumpi\n      mload(0x40)\n      shl(0xe5, 0x461bcd)\n      dup2\n      mstore\n        /* \"#utility.yul\":3605:3607   */\n      0x20\n        /* \"msc_token/BeePresell.sol\":8659:8710  require(endAt < block.timestamp, \"presell not end\") */\n      0x04\n      dup3\n      add\n        /* \"#utility.yul\":3587:3608   */\n      mstore\n        /* \"#utility.yul\":3644:3646   */\n      0x0f\n        /* \"#utility.yul\":3624:3642   */\n      0x24\n      dup3\n      add\n        /* \"#utility.yul\":3617:3647   */\n      mstore\n      shl(0x8a, 0x1c1c995cd95b1b081b9bdd08195b99)\n        /* \"#utility.yul\":3663:3681   */\n      0x44\n      dup3\n      add\n        /* \"#utility.yul\":3656:3701   */\n      mstore\n        /* \"#utility.yul\":3718:3736   */\n      0x64\n      add\n        /* \"msc_token/BeePresell.sol\":8659:8710  require(endAt < block.timestamp, \"presell not end\") */\n      tag_171\n        /* \"#utility.yul\":3403:3742   */\n      jump\n        /* \"msc_token/BeePresell.sol\":8659:8710  require(endAt < block.timestamp, \"presell not end\") */\n    tag_175:\n        /* \"msc_token/BeePresell.sol\":8753:8763  msg.sender */\n      caller\n        /* \"msc_token/BeePresell.sol\":8731:8764  userInviteBalancelMap[msg.sender] */\n      0x00\n      swap1\n      dup2\n      mstore\n        /* \"msc_token/BeePresell.sol\":8731:8752  userInviteBalancelMap */\n      0x0a\n        /* \"msc_token/BeePresell.sol\":8731:8764  userInviteBalancelMap[msg.sender] */\n      0x20\n      mstore\n      0x40\n      swap1\n      keccak256\n      sload\n      0xff\n      and\n        /* \"msc_token/BeePresell.sol\":8731:8772  userInviteBalancelMap[msg.sender] == true */\n      iszero\n      iszero\n        /* \"msc_token/BeePresell.sol\":8731:8764  userInviteBalancelMap[msg.sender] */\n      0x01\n        /* \"msc_token/BeePresell.sol\":8731:8772  userInviteBalancelMap[msg.sender] == true */\n      eq\n        /* \"msc_token/BeePresell.sol\":8723:8792  require(userInviteBalancelMap[msg.sender] == true, 'user not invite') */\n      tag_178\n      jumpi\n      mload(0x40)\n      shl(0xe5, 0x461bcd)\n      dup2\n      mstore\n        /* \"#utility.yul\":3949:3951   */\n      0x20\n        /* \"msc_token/BeePresell.sol\":8723:8792  require(userInviteBalancelMap[msg.sender] == true, 'user not invite') */\n      0x04\n      dup3\n      add\n        /* \"#utility.yul\":3931:3952   */\n      mstore\n        /* \"#utility.yul\":3988:3990   */\n      0x0f\n        /* \"#utility.yul\":3968:3986   */\n      0x24\n      dup3\n      add\n        /* \"#utility.yul\":3961:3991   */\n      mstore\n      shl(0x88, 0x75736572206e6f7420696e76697465)\n        /* \"#utility.yul\":4007:4025   */\n      0x44\n      dup3\n      add\n        /* \"#utility.yul\":4000:4045   */\n      mstore\n        /* \"#utility.yul\":4062:4080   */\n      0x64\n      add\n        /* \"msc_token/BeePresell.sol\":8723:8792  require(userInviteBalancelMap[msg.sender] == true, 'user not invite') */\n      tag_171\n        /* \"#utility.yul\":3747:4086   */\n      jump\n        /* \"msc_token/BeePresell.sol\":8723:8792  require(userInviteBalancelMap[msg.sender] == true, 'user not invite') */\n    tag_178:\n        /* \"msc_token/BeePresell.sol\":8805:8814  bool sent */\n      0x00\n        /* \"msc_token/BeePresell.sol\":8817:8826  sellToken */\n      immutable(\"0xc849ac6906fb063f44f99b9ae7fa6aacafa477545e0e3f40a74dbbf30335f84e\")\n      sub(shl(0xa0, 0x01), 0x01)\n        /* \"msc_token/BeePresell.sol\":8817:8835  sellToken.transfer */\n      and\n      0xa9059cbb\n        /* \"msc_token/BeePresell.sol\":8836:8846  msg.sender */\n      caller\n        /* \"msc_token/BeePresell.sol\":8848:8890  getUserInviteAirdropCoinAmount(msg.sender) */\n      tag_181\n        /* \"msc_token/BeePresell.sol\":8879:8889  msg.sender */\n      caller\n        /* \"msc_token/BeePresell.sol\":8848:8878  getUserInviteAirdropCoinAmount */\n      tag_129\n        /* \"msc_token/BeePresell.sol\":8848:8890  getUserInviteAirdropCoinAmount(msg.sender) */\n      jump\t// in\n    tag_181:\n        /* \"msc_token/BeePresell.sol\":8817:8891  sellToken.transfer(msg.sender, getUserInviteAirdropCoinAmount(msg.sender)) */\n      mload(0x40)\n      not(sub(shl(0xe0, 0x01), 0x01))\n      0xe0\n      dup6\n      swap1\n      shl\n      and\n      dup2\n      mstore\n      sub(shl(0xa0, 0x01), 0x01)\n        /* \"#utility.yul\":988:1020   */\n      swap1\n      swap3\n      and\n        /* \"msc_token/BeePresell.sol\":8817:8891  sellToken.transfer(msg.sender, getUserInviteAirdropCoinAmount(msg.sender)) */\n      0x04\n      dup4\n      add\n        /* \"#utility.yul\":970:1021   */\n      mstore\n        /* \"#utility.yul\":1037:1055   */\n      0x24\n      dup3\n      add\n        /* \"#utility.yul\":1030:1064   */\n      mstore\n        /* \"#utility.yul\":943:961   */\n      0x44\n      add\n        /* \"msc_token/BeePresell.sol\":8817:8891  sellToken.transfer(msg.sender, getUserInviteAirdropCoinAmount(msg.sender)) */\n      0x20\n      mload(0x40)\n      dup1\n      dup4\n      sub\n      dup2\n      0x00\n      dup8\n      gas\n      call\n      iszero\n      dup1\n      iszero\n      tag_184\n      jumpi\n      returndatasize\n      0x00\n      dup1\n      returndatacopy\n      revert(0x00, returndatasize)\n    tag_184:\n      pop\n      pop\n      pop\n      pop\n      mload(0x40)\n      returndatasize\n      not(0x1f)\n      0x1f\n      dup3\n      add\n      and\n      dup3\n      add\n      dup1\n      0x40\n      mstore\n      pop\n      dup2\n      add\n      swap1\n      tag_185\n      swap2\n      swap1\n      tag_186\n      jump\t// in\n    tag_185:\n        /* \"msc_token/BeePresell.sol\":8805:8891  bool sent = sellToken.transfer(msg.sender, getUserInviteAirdropCoinAmount(msg.sender)) */\n      swap1\n      pop\n        /* \"msc_token/BeePresell.sol\":8910:8914  sent */\n      dup1\n        /* \"msc_token/BeePresell.sol\":8902:8940  require(sent, \"Token transfer failed\") */\n      tag_187\n      jumpi\n      mload(0x40)\n      shl(0xe5, 0x461bcd)\n      dup2\n      mstore\n      0x04\n      add\n      tag_171\n      swap1\n      tag_189\n      jump\t// in\n    tag_187:\n      pop\n        /* \"msc_token/BeePresell.sol\":8975:8985  msg.sender */\n      caller\n        /* \"msc_token/BeePresell.sol\":8989:8994  false */\n      0x00\n        /* \"msc_token/BeePresell.sol\":8953:8986  userInviteBalancelMap[msg.sender] */\n      swap1\n      dup2\n      mstore\n        /* \"msc_token/BeePresell.sol\":8953:8974  userInviteBalancelMap */\n      0x0a\n        /* \"msc_token/BeePresell.sol\":8953:8986  userInviteBalancelMap[msg.sender] */\n      0x20\n      mstore\n      0x40\n      swap1\n      keccak256\n        /* \"msc_token/BeePresell.sol\":8953:8994  userInviteBalancelMap[msg.sender] = false */\n      dup1\n      sload\n      not(0xff)\n      and\n      swap1\n      sstore\n        /* \"msc_token/BeePresell.sol\":8602:9002  function withdrawInviteAirdropTokens() public {... */\n      jump\t// out\n        /* \"msc_token/BeePresell.sol\":9010:9187  function exigencyWithdraw(uint256 amount) public onlyOwner {... */\n    tag_78:\n        /* \"msc_token/BeePresell.sol\":1227:1234  address */\n      0x00\n        /* \"msc_token/BeePresell.sol\":1254:1260  _owner */\n      sload\n      sub(shl(0xa0, 0x01), 0x01)\n      and\n        /* \"msc_token/BeePresell.sol\":635:645  msg.sender */\n      caller\n        /* \"msc_token/BeePresell.sol\":1401:1424  owner() == _msgSender() */\n      eq\n        /* \"msc_token/BeePresell.sol\":1393:1461  require(owner() == _msgSender(), \"Ownable: caller is not the owner\") */\n      tag_195\n      jumpi\n      mload(0x40)\n      shl(0xe5, 0x461bcd)\n      dup2\n      mstore\n      0x04\n      add\n      tag_171\n      swap1\n      tag_172\n      jump\t// in\n    tag_195:\n        /* \"msc_token/BeePresell.sol\":9092:9130  sellToken.transfer(msg.sender, amount) */\n      mload(0x40)\n      shl(0xe0, 0xa9059cbb)\n      dup2\n      mstore\n        /* \"msc_token/BeePresell.sol\":9111:9121  msg.sender */\n      caller\n        /* \"msc_token/BeePresell.sol\":9092:9130  sellToken.transfer(msg.sender, amount) */\n      0x04\n      dup3\n      add\n        /* \"#utility.yul\":970:1021   */\n      mstore\n        /* \"#utility.yul\":1037:1055   */\n      0x24\n      dup2\n      add\n        /* \"#utility.yul\":1030:1064   */\n      dup3\n      swap1\n      mstore\n        /* \"msc_token/BeePresell.sol\":9080:9089  bool sent */\n      0x00\n      swap1\n        /* \"msc_token/BeePresell.sol\":9092:9101  sellToken */\n      immutable(\"0xc849ac6906fb063f44f99b9ae7fa6aacafa477545e0e3f40a74dbbf30335f84e\")\n      sub(shl(0xa0, 0x01), 0x01)\n        /* \"msc_token/BeePresell.sol\":9092:9110  sellToken.transfer */\n      and\n      swap1\n      0xa9059cbb\n      swap1\n        /* \"#utility.yul\":943:961   */\n      0x44\n      add\n        /* \"msc_token/BeePresell.sol\":9092:9130  sellToken.transfer(msg.sender, amount) */\n      0x20\n      mload(0x40)\n      dup1\n      dup4\n      sub\n      dup2\n      0x00\n      dup8\n      gas\n      call\n      iszero\n      dup1\n      iszero\n      tag_200\n      jumpi\n      returndatasize\n      0x00\n      dup1\n      returndatacopy\n      revert(0x00, returndatasize)\n    tag_200:\n      pop\n      pop\n      pop\n      pop\n      mload(0x40)\n      returndatasize\n      not(0x1f)\n      0x1f\n      dup3\n      add\n      and\n      dup3\n      add\n      dup1\n      0x40\n      mstore\n      pop\n      dup2\n      add\n      swap1\n      tag_201\n      swap2\n      swap1\n      tag_186\n      jump\t// in\n    tag_201:\n        /* \"msc_token/BeePresell.sol\":9080:9130  bool sent = sellToken.transfer(msg.sender, amount) */\n      swap1\n      pop\n        /* \"msc_token/BeePresell.sol\":9149:9153  sent */\n      dup1\n        /* \"msc_token/BeePresell.sol\":9141:9179  require(sent, \"Token transfer failed\") */\n      tag_202\n      jumpi\n      mload(0x40)\n      shl(0xe5, 0x461bcd)\n      dup2\n      mstore\n      0x04\n      add\n      tag_171\n      swap1\n      tag_189\n      jump\t// in\n    tag_202:\n        /* \"msc_token/BeePresell.sol\":9069:9187  {... */\n      pop\n        /* \"msc_token/BeePresell.sol\":9010:9187  function exigencyWithdraw(uint256 amount) public onlyOwner {... */\n      pop\n      jump\t// out\n        /* \"msc_token/BeePresell.sol\":1832:1935  function renounceOwnership() public virtual onlyOwner {... */\n    tag_80:\n        /* \"msc_token/BeePresell.sol\":1227:1234  address */\n      0x00\n        /* \"msc_token/BeePresell.sol\":1254:1260  _owner */\n      sload\n      sub(shl(0xa0, 0x01), 0x01)\n      and\n        /* \"msc_token/BeePresell.sol\":635:645  msg.sender */\n      caller\n        /* \"msc_token/BeePresell.sol\":1401:1424  owner() == _msgSender() */\n      eq\n        /* \"msc_token/BeePresell.sol\":1393:1461  require(owner() == _msgSender(), \"Ownable: caller is not the owner\") */\n      tag_207\n      jumpi\n      mload(0x40)\n      shl(0xe5, 0x461bcd)\n      dup2\n      mstore\n      0x04\n      add\n      tag_171\n      swap1\n      tag_172\n      jump\t// in\n    tag_207:\n        /* \"msc_token/BeePresell.sol\":1897:1927  _transferOwnership(address(0)) */\n      tag_210\n        /* \"msc_token/BeePresell.sol\":1924:1925  0 */\n      0x00\n        /* \"msc_token/BeePresell.sol\":1897:1915  _transferOwnership */\n      tag_211\n        /* \"msc_token/BeePresell.sol\":1897:1927  _transferOwnership(address(0)) */\n      jump\t// in\n    tag_210:\n        /* \"msc_token/BeePresell.sol\":1832:1935  function renounceOwnership() public virtual onlyOwner {... */\n      jump\t// out\n        /* \"msc_token/BeePresell.sol\":6564:7523  function acceptInvitation(address _inviter) public returns (bool) {... */\n    tag_97:\n        /* \"msc_token/BeePresell.sol\":6649:6656  startAt */\n      sload(0x07)\n        /* \"msc_token/BeePresell.sol\":6624:6628  bool */\n      0x00\n      swap1\n        /* \"msc_token/BeePresell.sol\":6659:6674  block.timestamp */\n      timestamp\n      shl(0x80, 0x01)\n        /* \"msc_token/BeePresell.sol\":6649:6656  startAt */\n      swap1\n      swap2\n      div\n      0xffffffffffffffff\n      and\n        /* \"msc_token/BeePresell.sol\":6649:6674  startAt < block.timestamp */\n      lt\n        /* \"msc_token/BeePresell.sol\":6641:6688  require(startAt < block.timestamp, \"not start\") */\n      tag_216\n      jumpi\n      mload(0x40)\n      shl(0xe5, 0x461bcd)\n      dup2\n      mstore\n        /* \"#utility.yul\":4925:4927   */\n      0x20\n        /* \"msc_token/BeePresell.sol\":6641:6688  require(startAt < block.timestamp, \"not start\") */\n      0x04\n      dup3\n      add\n        /* \"#utility.yul\":4907:4928   */\n      mstore\n        /* \"#utility.yul\":4964:4965   */\n      0x09\n        /* \"#utility.yul\":4944:4962   */\n      0x24\n      dup3\n      add\n        /* \"#utility.yul\":4937:4966   */\n      mstore\n      shl(0xba, 0x1b9bdd081cdd185c9d)\n        /* \"#utility.yul\":4982:5000   */\n      0x44\n      dup3\n      add\n        /* \"#utility.yul\":4975:5014   */\n      mstore\n        /* \"#utility.yul\":5031:5049   */\n      0x64\n      add\n        /* \"msc_token/BeePresell.sol\":6641:6688  require(startAt < block.timestamp, \"not start\") */\n      tag_171\n        /* \"#utility.yul\":4723:5055   */\n      jump\n        /* \"msc_token/BeePresell.sol\":6641:6688  require(startAt < block.timestamp, \"not start\") */\n    tag_216:\n        /* \"msc_token/BeePresell.sol\":6707:6712  endAt */\n      sload(0x07)\n        /* \"msc_token/BeePresell.sol\":6715:6730  block.timestamp */\n      timestamp\n      shl(0xc0, 0x01)\n        /* \"msc_token/BeePresell.sol\":6707:6712  endAt */\n      swap1\n      swap2\n      div\n      0xffffffffffffffff\n      and\n        /* \"msc_token/BeePresell.sol\":6707:6730  endAt > block.timestamp */\n      gt\n        /* \"msc_token/BeePresell.sol\":6699:6742  require(endAt > block.timestamp, \"has end\") */\n      tag_219\n      jumpi\n      mload(0x40)\n      shl(0xe5, 0x461bcd)\n      dup2\n      mstore\n        /* \"#utility.yul\":5262:5264   */\n      0x20\n        /* \"msc_token/BeePresell.sol\":6699:6742  require(endAt > block.timestamp, \"has end\") */\n      0x04\n      dup3\n      add\n        /* \"#utility.yul\":5244:5265   */\n      mstore\n        /* \"#utility.yul\":5301:5302   */\n      0x07\n        /* \"#utility.yul\":5281:5299   */\n      0x24\n      dup3\n      add\n        /* \"#utility.yul\":5274:5303   */\n      mstore\n      shl(0xca, 0x1a185cc8195b99)\n        /* \"#utility.yul\":5319:5337   */\n      0x44\n      dup3\n      add\n        /* \"#utility.yul\":5312:5349   */\n      mstore\n        /* \"#utility.yul\":5366:5384   */\n      0x64\n      add\n        /* \"msc_token/BeePresell.sol\":6699:6742  require(endAt > block.timestamp, \"has end\") */\n      tag_171\n        /* \"#utility.yul\":5060:5390   */\n      jump\n        /* \"msc_token/BeePresell.sol\":6699:6742  require(endAt > block.timestamp, \"has end\") */\n    tag_219:\n      sub(shl(0xa0, 0x01), 0x01)\n        /* \"msc_token/BeePresell.sol\":6761:6777  hasBuy[_inviter] */\n      dup3\n      and\n      0x00\n      swap1\n      dup2\n      mstore\n        /* \"msc_token/BeePresell.sol\":6761:6767  hasBuy */\n      0x0b\n        /* \"msc_token/BeePresell.sol\":6761:6777  hasBuy[_inviter] */\n      0x20\n      mstore\n      0x40\n      swap1\n      keccak256\n      sload\n      0xff\n      and\n        /* \"msc_token/BeePresell.sol\":6753:6799  require(hasBuy[_inviter], \"Bee:upper not buy\") */\n      tag_222\n      jumpi\n      mload(0x40)\n      shl(0xe5, 0x461bcd)\n      dup2\n      mstore\n        /* \"#utility.yul\":5597:5599   */\n      0x20\n        /* \"msc_token/BeePresell.sol\":6753:6799  require(hasBuy[_inviter], \"Bee:upper not buy\") */\n      0x04\n      dup3\n      add\n        /* \"#utility.yul\":5579:5600   */\n      mstore\n        /* \"#utility.yul\":5636:5638   */\n      0x11\n        /* \"#utility.yul\":5616:5634   */\n      0x24\n      dup3\n      add\n        /* \"#utility.yul\":5609:5639   */\n      mstore\n      shl(0x78, 0x4265653a7570706572206e6f7420627579)\n        /* \"#utility.yul\":5655:5673   */\n      0x44\n      dup3\n      add\n        /* \"#utility.yul\":5648:5695   */\n      mstore\n        /* \"#utility.yul\":5712:5730   */\n      0x64\n      add\n        /* \"msc_token/BeePresell.sol\":6753:6799  require(hasBuy[_inviter], \"Bee:upper not buy\") */\n      tag_171\n        /* \"#utility.yul\":5395:5736   */\n      jump\n        /* \"msc_token/BeePresell.sol\":6753:6799  require(hasBuy[_inviter], \"Bee:upper not buy\") */\n    tag_222:\n        /* \"msc_token/BeePresell.sol\":6825:6835  msg.sender */\n      caller\n        /* \"msc_token/BeePresell.sol\":6818:6836  hasBuy[msg.sender] */\n      0x00\n      swap1\n      dup2\n      mstore\n        /* \"msc_token/BeePresell.sol\":6818:6824  hasBuy */\n      0x0b\n        /* \"msc_token/BeePresell.sol\":6818:6836  hasBuy[msg.sender] */\n      0x20\n      mstore\n      0x40\n      swap1\n      keccak256\n      sload\n      0xff\n      and\n        /* \"msc_token/BeePresell.sol\":6810:6857  require(hasBuy[msg.sender], \"Bee:user not buy\") */\n      tag_225\n      jumpi\n      mload(0x40)\n      shl(0xe5, 0x461bcd)\n      dup2\n      mstore\n        /* \"#utility.yul\":5943:5945   */\n      0x20\n        /* \"msc_token/BeePresell.sol\":6810:6857  require(hasBuy[msg.sender], \"Bee:user not buy\") */\n      0x04\n      dup3\n      add\n        /* \"#utility.yul\":5925:5946   */\n      mstore\n        /* \"#utility.yul\":5982:5984   */\n      0x10\n        /* \"#utility.yul\":5962:5980   */\n      0x24\n      dup3\n      add\n        /* \"#utility.yul\":5955:5985   */\n      mstore\n      shl(0x80, 0x4265653a75736572206e6f7420627579)\n        /* \"#utility.yul\":6001:6019   */\n      0x44\n      dup3\n      add\n        /* \"#utility.yul\":5994:6040   */\n      mstore\n        /* \"#utility.yul\":6057:6075   */\n      0x64\n      add\n        /* \"msc_token/BeePresell.sol\":6810:6857  require(hasBuy[msg.sender], \"Bee:user not buy\") */\n      tag_171\n        /* \"#utility.yul\":5741:6081   */\n      jump\n        /* \"msc_token/BeePresell.sol\":6810:6857  require(hasBuy[msg.sender], \"Bee:user not buy\") */\n    tag_225:\n      sub(shl(0xa0, 0x01), 0x01)\n        /* \"msc_token/BeePresell.sol\":6878:6900  msg.sender != _inviter */\n      dup3\n      and\n        /* \"msc_token/BeePresell.sol\":6878:6888  msg.sender */\n      caller\n        /* \"msc_token/BeePresell.sol\":6878:6900  msg.sender != _inviter */\n      sub\n        /* \"msc_token/BeePresell.sol\":6870:6918  require(msg.sender != _inviter, \"Bee:FORBIDDEN\") */\n      tag_228\n      jumpi\n      mload(0x40)\n      shl(0xe5, 0x461bcd)\n      dup2\n      mstore\n        /* \"#utility.yul\":6288:6290   */\n      0x20\n        /* \"msc_token/BeePresell.sol\":6870:6918  require(msg.sender != _inviter, \"Bee:FORBIDDEN\") */\n      0x04\n      dup3\n      add\n        /* \"#utility.yul\":6270:6291   */\n      mstore\n        /* \"#utility.yul\":6327:6329   */\n      0x0d\n        /* \"#utility.yul\":6307:6325   */\n      0x24\n      dup3\n      add\n        /* \"#utility.yul\":6300:6330   */\n      mstore\n      shl(0x99, 0x2132b29d2327a92124a22222a7)\n        /* \"#utility.yul\":6346:6364   */\n      0x44\n      dup3\n      add\n        /* \"#utility.yul\":6339:6382   */\n      mstore\n        /* \"#utility.yul\":6399:6417   */\n      0x64\n      add\n        /* \"msc_token/BeePresell.sol\":6870:6918  require(msg.sender != _inviter, \"Bee:FORBIDDEN\") */\n      tag_171\n        /* \"#utility.yul\":6086:6423   */\n      jump\n        /* \"msc_token/BeePresell.sol\":6870:6918  require(msg.sender != _inviter, \"Bee:FORBIDDEN\") */\n    tag_228:\n        /* \"msc_token/BeePresell.sol\":6966:6976  msg.sender */\n      caller\n        /* \"msc_token/BeePresell.sol\":6931:6952  UserInfo storage user */\n      0x00\n        /* \"msc_token/BeePresell.sol\":6955:6977  inviteInfo[msg.sender] */\n      dup2\n      dup2\n      mstore\n        /* \"msc_token/BeePresell.sol\":6955:6965  inviteInfo */\n      0x08\n        /* \"msc_token/BeePresell.sol\":6955:6977  inviteInfo[msg.sender] */\n      0x20\n      mstore\n      0x40\n      dup1\n      dup3\n      keccak256\n      sub(shl(0xa0, 0x01), 0x01)\n        /* \"msc_token/BeePresell.sol\":7013:7033  inviteInfo[_inviter] */\n      dup7\n      dup2\n      and\n      dup5\n      mstore\n      swap2\n      swap1\n      swap3\n      keccak256\n        /* \"msc_token/BeePresell.sol\":7054:7065  upper.upper */\n      dup1\n      sload\n        /* \"msc_token/BeePresell.sol\":6955:6977  inviteInfo[msg.sender] */\n      swap3\n      swap4\n        /* \"msc_token/BeePresell.sol\":7013:7033  inviteInfo[_inviter] */\n      swap1\n      swap3\n        /* \"msc_token/BeePresell.sol\":7054:7065  upper.upper */\n      swap1\n      swap2\n      and\n        /* \"msc_token/BeePresell.sol\":7054:7079  upper.upper != msg.sender */\n      sub\n        /* \"msc_token/BeePresell.sol\":7046:7118  require(upper.upper != msg.sender, \"The inviter is a lower to the user\") */\n      tag_231\n      jumpi\n      mload(0x40)\n      shl(0xe5, 0x461bcd)\n      dup2\n      mstore\n        /* \"#utility.yul\":6630:6632   */\n      0x20\n        /* \"msc_token/BeePresell.sol\":7046:7118  require(upper.upper != msg.sender, \"The inviter is a lower to the user\") */\n      0x04\n      dup3\n      add\n        /* \"#utility.yul\":6612:6633   */\n      mstore\n        /* \"#utility.yul\":6669:6671   */\n      0x22\n        /* \"#utility.yul\":6649:6667   */\n      0x24\n      dup3\n      add\n        /* \"#utility.yul\":6642:6672   */\n      mstore\n        /* \"#utility.yul\":6708:6742   */\n      0x54686520696e76697465722069732061206c6f77657220746f20746865207573\n        /* \"#utility.yul\":6688:6706   */\n      0x44\n      dup3\n      add\n        /* \"#utility.yul\":6681:6743   */\n      mstore\n      shl(0xf1, 0x32b9)\n        /* \"#utility.yul\":6759:6777   */\n      0x64\n      dup3\n      add\n        /* \"#utility.yul\":6752:6784   */\n      mstore\n        /* \"#utility.yul\":6801:6820   */\n      0x84\n      add\n        /* \"msc_token/BeePresell.sol\":7046:7118  require(upper.upper != msg.sender, \"The inviter is a lower to the user\") */\n      tag_171\n        /* \"#utility.yul\":6428:6826   */\n      jump\n        /* \"msc_token/BeePresell.sol\":7046:7118  require(upper.upper != msg.sender, \"The inviter is a lower to the user\") */\n    tag_231:\n        /* \"msc_token/BeePresell.sol\":7139:7149  user.upper */\n      dup2\n      sload\n      sub(shl(0xa0, 0x01), 0x01)\n        /* \"msc_token/BeePresell.sol\":7139:7161  user.upper != _inviter */\n      dup1\n      dup7\n      and\n        /* \"msc_token/BeePresell.sol\":7139:7149  user.upper */\n      swap2\n      and\n        /* \"msc_token/BeePresell.sol\":7139:7161  user.upper != _inviter */\n      sub\n        /* \"msc_token/BeePresell.sol\":7131:7185  require(user.upper != _inviter, \"Repeated invitation\") */\n      tag_234\n      jumpi\n      mload(0x40)\n      shl(0xe5, 0x461bcd)\n      dup2\n      mstore\n        /* \"#utility.yul\":7033:7035   */\n      0x20\n        /* \"msc_token/BeePresell.sol\":7131:7185  require(user.upper != _inviter, \"Repeated invitation\") */\n      0x04\n      dup3\n      add\n        /* \"#utility.yul\":7015:7036   */\n      mstore\n        /* \"#utility.yul\":7072:7074   */\n      0x13\n        /* \"#utility.yul\":7052:7070   */\n      0x24\n      dup3\n      add\n        /* \"#utility.yul\":7045:7075   */\n      mstore\n      shl(0x69, 0x2932b832b0ba32b21034b73b34ba30ba34b7b7)\n        /* \"#utility.yul\":7091:7109   */\n      0x44\n      dup3\n      add\n        /* \"#utility.yul\":7084:7133   */\n      mstore\n        /* \"#utility.yul\":7150:7168   */\n      0x64\n      add\n        /* \"msc_token/BeePresell.sol\":7131:7185  require(user.upper != _inviter, \"Repeated invitation\") */\n      tag_171\n        /* \"#utility.yul\":6831:7174   */\n      jump\n        /* \"msc_token/BeePresell.sol\":7131:7185  require(user.upper != _inviter, \"Repeated invitation\") */\n    tag_234:\n        /* \"msc_token/BeePresell.sol\":7206:7216  user.upper */\n      dup2\n      sload\n      sub(shl(0xa0, 0x01), 0x01)\n      and\n        /* \"msc_token/BeePresell.sol\":7206:7230  user.upper == address(0) */\n      iszero\n        /* \"msc_token/BeePresell.sol\":7198:7255  require(user.upper == address(0), \"Already have a upper\") */\n      tag_237\n      jumpi\n      mload(0x40)\n      shl(0xe5, 0x461bcd)\n      dup2\n      mstore\n        /* \"#utility.yul\":7381:7383   */\n      0x20\n        /* \"msc_token/BeePresell.sol\":7198:7255  require(user.upper == address(0), \"Already have a upper\") */\n      0x04\n      dup3\n      add\n        /* \"#utility.yul\":7363:7384   */\n      mstore\n        /* \"#utility.yul\":7420:7422   */\n      0x14\n        /* \"#utility.yul\":7400:7418   */\n      0x24\n      dup3\n      add\n        /* \"#utility.yul\":7393:7423   */\n      mstore\n      shl(0x61, 0x20b63932b0b23c903430bb329030903ab83832b9)\n        /* \"#utility.yul\":7439:7457   */\n      0x44\n      dup3\n      add\n        /* \"#utility.yul\":7432:7482   */\n      mstore\n        /* \"#utility.yul\":7499:7517   */\n      0x64\n      add\n        /* \"msc_token/BeePresell.sol\":7198:7255  require(user.upper == address(0), \"Already have a upper\") */\n      tag_171\n        /* \"#utility.yul\":7179:7523   */\n      jump\n        /* \"msc_token/BeePresell.sol\":7198:7255  require(user.upper == address(0), \"Already have a upper\") */\n    tag_237:\n        /* \"msc_token/BeePresell.sol\":7268:7289  user.upper = _inviter */\n      dup2\n      sload\n      sub(shl(0xa0, 0x01), 0x01)\n      dup6\n      and\n      not(sub(shl(0xa0, 0x01), 0x01))\n      swap2\n      dup3\n      and\n      dup2\n      or\n      dup5\n      sstore\n        /* \"msc_token/BeePresell.sol\":7318:7330  block.number */\n      number\n        /* \"msc_token/BeePresell.sol\":7300:7315  user.startBlock */\n      0x02\n      dup1\n      dup7\n      add\n        /* \"msc_token/BeePresell.sol\":7300:7330  user.startBlock = block.number */\n      dup3\n      swap1\n      sstore\n        /* \"msc_token/BeePresell.sol\":7343:7359  upper.startBlock */\n      dup5\n      add\n        /* \"msc_token/BeePresell.sol\":7343:7374  upper.startBlock = block.number */\n      sstore\n        /* \"msc_token/BeePresell.sol\":7268:7289  user.upper = _inviter */\n      0x01\n        /* \"msc_token/BeePresell.sol\":7385:7397  upper.lowers */\n      dup4\n      dup2\n      add\n        /* \"msc_token/BeePresell.sol\":7385:7414  upper.lowers.push(msg.sender) */\n      dup1\n      sload\n      dup1\n      dup4\n      add\n      dup3\n      sstore\n        /* \"msc_token/BeePresell.sol\":7268:7278  user.upper */\n      0x00\n        /* \"msc_token/BeePresell.sol\":7385:7414  upper.lowers.push(msg.sender) */\n      swap2\n      dup3\n      mstore\n      0x20\n      dup1\n      dup4\n      keccak256\n      swap1\n      swap2\n      add\n      dup1\n      sload\n      swap1\n      swap6\n      and\n        /* \"msc_token/BeePresell.sol\":7403:7413  msg.sender */\n      caller\n        /* \"msc_token/BeePresell.sol\":7385:7414  upper.lowers.push(msg.sender) */\n      or\n      swap1\n      swap5\n      sstore\n        /* \"msc_token/BeePresell.sol\":7427:7458  userInviteBalancelMap[_inviter] */\n      swap2\n      dup3\n      mstore\n        /* \"msc_token/BeePresell.sol\":7427:7448  userInviteBalancelMap */\n      0x0a\n        /* \"msc_token/BeePresell.sol\":7427:7458  userInviteBalancelMap[_inviter] */\n      swap1\n      swap3\n      mstore\n      0x40\n      swap1\n      keccak256\n        /* \"msc_token/BeePresell.sol\":7427:7465  userInviteBalancelMap[_inviter] = true */\n      dup1\n      sload\n      not(0xff)\n      and\n      swap1\n      swap2\n      or\n      swap1\n      sstore\n        /* \"msc_token/BeePresell.sol\":7478:7491  lowersCounter */\n      0x07\n        /* \"msc_token/BeePresell.sol\":7476:7491  ++lowersCounter */\n      dup1\n      sload\n        /* \"msc_token/BeePresell.sol\":7478:7491  lowersCounter */\n      0x08\n      swap1\n        /* \"msc_token/BeePresell.sol\":7476:7491  ++lowersCounter */\n      tag_241\n      swap1\n      0xffffffff\n      shl(0x40, 0x01)\n      swap1\n      swap2\n      div\n      and\n      tag_242\n      jump\t// in\n    tag_241:\n      swap2\n      swap1\n      0x0100\n      exp\n      dup2\n      sload\n      dup2\n      0xffffffff\n      mul\n      not\n      and\n      swap1\n      dup4\n      0xffffffff\n      and\n      mul\n      or\n      swap1\n      sstore\n      pop\n        /* \"msc_token/BeePresell.sol\":7511:7515  true */\n      0x01\n        /* \"msc_token/BeePresell.sol\":7504:7515  return true */\n      swap3\n      pop\n      pop\n      pop\n        /* \"msc_token/BeePresell.sol\":6564:7523  function acceptInvitation(address _inviter) public returns (bool) {... */\n      swap2\n      swap1\n      pop\n      jump\t// out\n        /* \"msc_token/BeePresell.sol\":5794:6432  function getUserLowersSlice(address user, uint256 start,  uint256 end) public view returns (address[] memory) {... */\n    tag_109:\n      sub(shl(0xa0, 0x01), 0x01)\n        /* \"msc_token/BeePresell.sol\":5942:5958  inviteInfo[user] */\n      dup4\n      and\n        /* \"msc_token/BeePresell.sol\":5915:5939  address[] storage lowers */\n      0x00\n        /* \"msc_token/BeePresell.sol\":5942:5958  inviteInfo[user] */\n      swap1\n      dup2\n      mstore\n        /* \"msc_token/BeePresell.sol\":5942:5952  inviteInfo */\n      0x08\n        /* \"msc_token/BeePresell.sol\":5942:5958  inviteInfo[user] */\n      0x20\n      mstore\n      0x40\n      swap1\n      keccak256\n        /* \"msc_token/BeePresell.sol\":5942:5965  inviteInfo[user].lowers */\n      0x01\n      add\n        /* \"msc_token/BeePresell.sol\":5990:6003  lowers.length */\n      dup1\n      sload\n        /* \"msc_token/BeePresell.sol\":5886:5902  address[] memory */\n      0x60\n      swap2\n        /* \"msc_token/BeePresell.sol\":5942:5965  inviteInfo[user].lowers */\n      swap1\n        /* \"msc_token/BeePresell.sol\":6018:6025  len > 0 */\n      dup1\n      iszero\n        /* \"msc_token/BeePresell.sol\":6014:6391  if (len > 0) {... */\n      tag_244\n      jumpi\n        /* \"msc_token/BeePresell.sol\":6058:6061  end */\n      dup4\n        /* \"msc_token/BeePresell.sol\":6050:6055  start */\n      dup6\n        /* \"msc_token/BeePresell.sol\":6050:6061  start < end */\n      lt\n        /* \"msc_token/BeePresell.sol\":6050:6076  start < end && start < len */\n      dup1\n      iszero\n      tag_245\n      jumpi\n      pop\n        /* \"msc_token/BeePresell.sol\":6073:6076  len */\n      dup1\n        /* \"msc_token/BeePresell.sol\":6065:6070  start */\n      dup6\n        /* \"msc_token/BeePresell.sol\":6065:6076  start < len */\n      lt\n        /* \"msc_token/BeePresell.sol\":6050:6076  start < end && start < len */\n    tag_245:\n        /* \"msc_token/BeePresell.sol\":6050:6090  start < end && start < len && end <= len */\n      dup1\n      iszero\n      tag_246\n      jumpi\n      pop\n        /* \"msc_token/BeePresell.sol\":6087:6090  len */\n      dup1\n        /* \"msc_token/BeePresell.sol\":6080:6083  end */\n      dup5\n        /* \"msc_token/BeePresell.sol\":6080:6090  end <= len */\n      gt\n      iszero\n        /* \"msc_token/BeePresell.sol\":6050:6090  start < end && start < len && end <= len */\n    tag_246:\n        /* \"msc_token/BeePresell.sol\":6042:6123  require(start < end && start < len && end <= len, \"lower iterator out of range.\") */\n      tag_247\n      jumpi\n      mload(0x40)\n      shl(0xe5, 0x461bcd)\n      dup2\n      mstore\n        /* \"#utility.yul\":8068:8070   */\n      0x20\n        /* \"msc_token/BeePresell.sol\":6042:6123  require(start < end && start < len && end <= len, \"lower iterator out of range.\") */\n      0x04\n      dup3\n      add\n        /* \"#utility.yul\":8050:8071   */\n      mstore\n        /* \"#utility.yul\":8107:8109   */\n      0x1c\n        /* \"#utility.yul\":8087:8105   */\n      0x24\n      dup3\n      add\n        /* \"#utility.yul\":8080:8110   */\n      mstore\n        /* \"#utility.yul\":8146:8176   */\n      0x6c6f776572206974657261746f72206f7574206f662072616e67652e00000000\n        /* \"#utility.yul\":8126:8144   */\n      0x44\n      dup3\n      add\n        /* \"#utility.yul\":8119:8177   */\n      mstore\n        /* \"#utility.yul\":8194:8212   */\n      0x64\n      add\n        /* \"msc_token/BeePresell.sol\":6042:6123  require(start < end && start < len && end <= len, \"lower iterator out of range.\") */\n      tag_171\n        /* \"#utility.yul\":7866:8218   */\n      jump\n        /* \"msc_token/BeePresell.sol\":6042:6123  require(start < end && start < len && end <= len, \"lower iterator out of range.\") */\n    tag_247:\n        /* \"msc_token/BeePresell.sol\":6138:6162  address[] memory addrSet */\n      0x00\n        /* \"msc_token/BeePresell.sol\":6179:6190  end - start */\n      tag_250\n        /* \"msc_token/BeePresell.sol\":6185:6190  start */\n      dup7\n        /* \"msc_token/BeePresell.sol\":6179:6182  end */\n      dup7\n        /* \"msc_token/BeePresell.sol\":6179:6190  end - start */\n      tag_251\n      jump\t// in\n    tag_250:\n        /* \"msc_token/BeePresell.sol\":6165:6191  new address[](end - start) */\n      0xffffffffffffffff\n      dup2\n      gt\n      iszero\n      tag_253\n      jumpi\n      tag_253\n      tag_254\n      jump\t// in\n    tag_253:\n      mload(0x40)\n      swap1\n      dup1\n      dup3\n      mstore\n      dup1\n      0x20\n      mul\n      0x20\n      add\n      dup3\n      add\n      0x40\n      mstore\n      dup1\n      iszero\n      tag_255\n      jumpi\n      dup2\n      0x20\n      add\n      0x20\n      dup3\n      mul\n      dup1\n      calldatasize\n      dup4\n      calldatacopy\n      add\n      swap1\n      pop\n    tag_255:\n      pop\n        /* \"msc_token/BeePresell.sol\":6138:6191  address[] memory addrSet = new address[](end - start) */\n      swap1\n      pop\n        /* \"msc_token/BeePresell.sol\":6206:6215  uint256 j */\n      0x00\n        /* \"msc_token/BeePresell.sol\":6251:6256  start */\n      dup7\n        /* \"msc_token/BeePresell.sol\":6234:6351  for (uint256 i = start; i < end; i++) {... */\n    tag_256:\n        /* \"msc_token/BeePresell.sol\":6262:6265  end */\n      dup7\n        /* \"msc_token/BeePresell.sol\":6258:6259  i */\n      dup2\n        /* \"msc_token/BeePresell.sol\":6258:6265  i < end */\n      lt\n        /* \"msc_token/BeePresell.sol\":6234:6351  for (uint256 i = start; i < end; i++) {... */\n      iszero\n      tag_257\n      jumpi\n        /* \"msc_token/BeePresell.sol\":6304:6310  lowers */\n      dup5\n        /* \"msc_token/BeePresell.sol\":6311:6312  i */\n      dup2\n        /* \"msc_token/BeePresell.sol\":6304:6313  lowers[i] */\n      dup2\n      sload\n      dup2\n      lt\n      tag_260\n      jumpi\n      tag_260\n      tag_261\n      jump\t// in\n    tag_260:\n      swap1\n      0x00\n      mstore\n      keccak256(0x00, 0x20)\n      add\n      0x00\n      swap1\n      sload\n      swap1\n      0x0100\n      exp\n      swap1\n      div\n      sub(shl(0xa0, 0x01), 0x01)\n      and\n        /* \"msc_token/BeePresell.sol\":6291:6298  addrSet */\n      dup4\n        /* \"msc_token/BeePresell.sol\":6299:6300  j */\n      dup4\n        /* \"msc_token/BeePresell.sol\":6291:6301  addrSet[j] */\n      dup2\n      mload\n      dup2\n      lt\n      tag_264\n      jumpi\n      tag_264\n      tag_261\n      jump\t// in\n    tag_264:\n      sub(shl(0xa0, 0x01), 0x01)\n        /* \"msc_token/BeePresell.sol\":6291:6313  addrSet[j] = lowers[i] */\n      swap1\n      swap3\n      and\n        /* \"msc_token/BeePresell.sol\":6291:6301  addrSet[j] */\n      0x20\n      swap3\n      dup4\n      mul\n      swap2\n      swap1\n      swap2\n      add\n      swap1\n      swap2\n      add\n        /* \"msc_token/BeePresell.sol\":6291:6313  addrSet[j] = lowers[i] */\n      mstore\n        /* \"msc_token/BeePresell.sol\":6332:6335  j++ */\n      dup2\n      tag_265\n      dup2\n      tag_266\n      jump\t// in\n    tag_265:\n      swap3\n      pop\n      pop\n        /* \"msc_token/BeePresell.sol\":6267:6270  i++ */\n      dup1\n      dup1\n      tag_267\n      swap1\n      tag_266\n      jump\t// in\n    tag_267:\n      swap2\n      pop\n      pop\n        /* \"msc_token/BeePresell.sol\":6234:6351  for (uint256 i = start; i < end; i++) {... */\n      jump(tag_256)\n    tag_257:\n      pop\n        /* \"msc_token/BeePresell.sol\":6372:6379  addrSet */\n      dup2\n        /* \"msc_token/BeePresell.sol\":6365:6379  return addrSet */\n      swap5\n      pop\n      pop\n      pop\n      pop\n      pop\n      jump(tag_243)\n        /* \"msc_token/BeePresell.sol\":6014:6391  if (len > 0) {... */\n    tag_244:\n      pop\n      pop\n        /* \"msc_token/BeePresell.sol\":6408:6424  new address[](0) */\n      0x40\n      dup1\n      mload\n        /* \"msc_token/BeePresell.sol\":6422:6423  0 */\n      0x00\n        /* \"msc_token/BeePresell.sol\":6408:6424  new address[](0) */\n      dup2\n      mstore\n      0x20\n      dup2\n      add\n      swap1\n      swap2\n      mstore\n      swap1\n      pop\n        /* \"msc_token/BeePresell.sol\":5794:6432  function getUserLowersSlice(address user, uint256 start,  uint256 end) public view returns (address[] memory) {... */\n    tag_243:\n      swap4\n      swap3\n      pop\n      pop\n      pop\n      jump\t// out\n        /* \"msc_token/BeePresell.sol\":5661:5786  function getUserLowers(address user) public view returns (address[] memory) {... */\n    tag_125:\n      sub(shl(0xa0, 0x01), 0x01)\n        /* \"msc_token/BeePresell.sol\":5755:5771  inviteInfo[user] */\n      dup2\n      and\n      0x00\n      swap1\n      dup2\n      mstore\n        /* \"msc_token/BeePresell.sol\":5755:5765  inviteInfo */\n      0x08\n        /* \"msc_token/BeePresell.sol\":5755:5771  inviteInfo[user] */\n      0x20\n      swap1\n      dup2\n      mstore\n      0x40\n      swap2\n      dup3\n      swap1\n      keccak256\n        /* \"msc_token/BeePresell.sol\":5755:5778  inviteInfo[user].lowers */\n      0x01\n      add\n        /* \"msc_token/BeePresell.sol\":5748:5778  return inviteInfo[user].lowers */\n      dup1\n      sload\n      dup4\n      mload\n      dup2\n      dup5\n      mul\n      dup2\n      add\n      dup5\n      add\n      swap1\n      swap5\n      mstore\n      dup1\n      dup5\n      mstore\n        /* \"msc_token/BeePresell.sol\":5719:5735  address[] memory */\n      0x60\n      swap4\n        /* \"msc_token/BeePresell.sol\":5748:5778  return inviteInfo[user].lowers */\n      swap3\n      dup4\n      add\n        /* \"msc_token/BeePresell.sol\":5755:5778  inviteInfo[user].lowers */\n      dup3\n        /* \"msc_token/BeePresell.sol\":5748:5778  return inviteInfo[user].lowers */\n      dup3\n      dup1\n      iszero\n      tag_272\n      jumpi\n      0x20\n      mul\n      dup3\n      add\n      swap2\n      swap1\n      0x00\n      mstore\n      keccak256(0x00, 0x20)\n      swap1\n    tag_273:\n      dup2\n      sload\n      sub(shl(0xa0, 0x01), 0x01)\n      and\n      dup2\n      mstore\n      0x01\n      swap1\n      swap2\n      add\n      swap1\n      0x20\n      add\n      dup1\n      dup4\n      gt\n      tag_273\n      jumpi\n    tag_272:\n      pop\n      pop\n      pop\n      pop\n      pop\n      swap1\n      pop\n        /* \"msc_token/BeePresell.sol\":5661:5786  function getUserLowers(address user) public view returns (address[] memory) {... */\n      swap2\n      swap1\n      pop\n      jump\t// out\n        /* \"msc_token/BeePresell.sol\":4834:5016  function getUserInviteAirdropCoinAmount(address user) public view returns (uint256) {... */\n    tag_129:\n      sub(shl(0xa0, 0x01), 0x01)\n        /* \"msc_token/BeePresell.sol\":4978:4994  inviteInfo[user] */\n      dup2\n      and\n        /* \"msc_token/BeePresell.sol\":4909:4916  uint256 */\n      0x00\n        /* \"msc_token/BeePresell.sol\":4978:4994  inviteInfo[user] */\n      swap1\n      dup2\n      mstore\n        /* \"msc_token/BeePresell.sol\":4978:4988  inviteInfo */\n      0x08\n        /* \"msc_token/BeePresell.sol\":4978:4994  inviteInfo[user] */\n      0x20\n      mstore\n      0x40\n      dup2\n      keccak256\n        /* \"msc_token/BeePresell.sol\":4978:5001  inviteInfo[user].lowers */\n      0x01\n      add\n        /* \"msc_token/BeePresell.sol\":4978:5008  inviteInfo[user].lowers.length */\n      sload\n        /* \"msc_token/BeePresell.sol\":4962:4975  lowersCounter */\n      sload(0x07)\n        /* \"msc_token/BeePresell.sol\":4936:4959  inviteAirdropCoinAmount */\n      sload(0x06)\n        /* \"msc_token/BeePresell.sol\":4936:4975  inviteAirdropCoinAmount / lowersCounter */\n      tag_275\n      swap2\n      shl(0x40, 0x01)\n        /* \"msc_token/BeePresell.sol\":4962:4975  lowersCounter */\n      swap1\n      div\n      0xffffffff\n      and\n      swap1\n        /* \"msc_token/BeePresell.sol\":4936:4975  inviteAirdropCoinAmount / lowersCounter */\n      tag_276\n      jump\t// in\n    tag_275:\n        /* \"msc_token/BeePresell.sol\":4936:5008  inviteAirdropCoinAmount / lowersCounter * inviteInfo[user].lowers.length */\n      tag_277\n      swap2\n      swap1\n      tag_278\n      jump\t// in\n    tag_277:\n        /* \"msc_token/BeePresell.sol\":4929:5008  return inviteAirdropCoinAmount / lowersCounter * inviteInfo[user].lowers.length */\n      swap3\n        /* \"msc_token/BeePresell.sol\":4834:5016  function getUserInviteAirdropCoinAmount(address user) public view returns (uint256) {... */\n      swap2\n      pop\n      pop\n      jump\t// out\n        /* \"msc_token/BeePresell.sol\":8187:8594  function withdrawPresellTokens() public {... */\n    tag_139:\n        /* \"msc_token/BeePresell.sol\":8246:8251  endAt */\n      sload(0x07)\n        /* \"msc_token/BeePresell.sol\":8254:8269  block.timestamp */\n      timestamp\n      shl(0xc0, 0x01)\n        /* \"msc_token/BeePresell.sol\":8246:8251  endAt */\n      swap1\n      swap2\n      div\n      0xffffffffffffffff\n      and\n        /* \"msc_token/BeePresell.sol\":8246:8269  endAt < block.timestamp */\n      lt\n        /* \"msc_token/BeePresell.sol\":8238:8289  require(endAt < block.timestamp, \"presell not end\") */\n      tag_282\n      jumpi\n      mload(0x40)\n      shl(0xe5, 0x461bcd)\n      dup2\n      mstore\n        /* \"#utility.yul\":3605:3607   */\n      0x20\n        /* \"msc_token/BeePresell.sol\":8238:8289  require(endAt < block.timestamp, \"presell not end\") */\n      0x04\n      dup3\n      add\n        /* \"#utility.yul\":3587:3608   */\n      mstore\n        /* \"#utility.yul\":3644:3646   */\n      0x0f\n        /* \"#utility.yul\":3624:3642   */\n      0x24\n      dup3\n      add\n        /* \"#utility.yul\":3617:3647   */\n      mstore\n      shl(0x8a, 0x1c1c995cd95b1b081b9bdd08195b99)\n        /* \"#utility.yul\":3663:3681   */\n      0x44\n      dup3\n      add\n        /* \"#utility.yul\":3656:3701   */\n      mstore\n        /* \"#utility.yul\":3718:3736   */\n      0x64\n      add\n        /* \"msc_token/BeePresell.sol\":8238:8289  require(endAt < block.timestamp, \"presell not end\") */\n      tag_171\n        /* \"#utility.yul\":3403:3742   */\n      jump\n        /* \"msc_token/BeePresell.sol\":8238:8289  require(endAt < block.timestamp, \"presell not end\") */\n    tag_282:\n        /* \"msc_token/BeePresell.sol\":8332:8342  msg.sender */\n      caller\n        /* \"msc_token/BeePresell.sol\":8346:8347  0 */\n      0x00\n        /* \"msc_token/BeePresell.sol\":8310:8343  userPresellBalanceMap[msg.sender] */\n      swap1\n      dup2\n      mstore\n        /* \"msc_token/BeePresell.sol\":8310:8331  userPresellBalanceMap */\n      0x09\n        /* \"msc_token/BeePresell.sol\":8310:8343  userPresellBalanceMap[msg.sender] */\n      0x20\n      mstore\n      0x40\n      swap1\n      keccak256\n      sload\n        /* \"msc_token/BeePresell.sol\":8302:8369  require(userPresellBalanceMap[msg.sender] > 0, 'user balance zero') */\n      tag_284\n      jumpi\n      mload(0x40)\n      shl(0xe5, 0x461bcd)\n      dup2\n      mstore\n        /* \"#utility.yul\":9354:9356   */\n      0x20\n        /* \"msc_token/BeePresell.sol\":8302:8369  require(userPresellBalanceMap[msg.sender] > 0, 'user balance zero') */\n      0x04\n      dup3\n      add\n        /* \"#utility.yul\":9336:9357   */\n      mstore\n        /* \"#utility.yul\":9393:9395   */\n      0x11\n        /* \"#utility.yul\":9373:9391   */\n      0x24\n      dup3\n      add\n        /* \"#utility.yul\":9366:9396   */\n      mstore\n      shl(0x78, 0x757365722062616c616e6365207a65726f)\n        /* \"#utility.yul\":9412:9430   */\n      0x44\n      dup3\n      add\n        /* \"#utility.yul\":9405:9452   */\n      mstore\n        /* \"#utility.yul\":9469:9487   */\n      0x64\n      add\n        /* \"msc_token/BeePresell.sol\":8302:8369  require(userPresellBalanceMap[msg.sender] > 0, 'user balance zero') */\n      tag_171\n        /* \"#utility.yul\":9152:9493   */\n      jump\n        /* \"msc_token/BeePresell.sol\":8302:8369  require(userPresellBalanceMap[msg.sender] > 0, 'user balance zero') */\n    tag_284:\n        /* \"msc_token/BeePresell.sol\":8413:8423  msg.sender */\n      caller\n        /* \"msc_token/BeePresell.sol\":8382:8391  bool sent */\n      0x00\n        /* \"msc_token/BeePresell.sol\":8425:8458  userPresellBalanceMap[msg.sender] */\n      dup2\n      dup2\n      mstore\n        /* \"msc_token/BeePresell.sol\":8425:8446  userPresellBalanceMap */\n      0x09\n        /* \"msc_token/BeePresell.sol\":8425:8458  userPresellBalanceMap[msg.sender] */\n      0x20\n      mstore\n      0x40\n      dup1\n      dup3\n      keccak256\n      sload\n        /* \"msc_token/BeePresell.sol\":8394:8459  sellToken.transfer(msg.sender, userPresellBalanceMap[msg.sender]) */\n      swap1\n      mload\n      shl(0xe0, 0xa9059cbb)\n      dup2\n      mstore\n      0x04\n      dup2\n      add\n        /* \"#utility.yul\":970:1021   */\n      swap4\n      swap1\n      swap4\n      mstore\n        /* \"#utility.yul\":1037:1055   */\n      0x24\n      dup4\n      add\n        /* \"#utility.yul\":1030:1064   */\n      mstore\n        /* \"msc_token/BeePresell.sol\":8382:8391  bool sent */\n      swap1\n        /* \"msc_token/BeePresell.sol\":8394:8403  sellToken */\n      immutable(\"0xc849ac6906fb063f44f99b9ae7fa6aacafa477545e0e3f40a74dbbf30335f84e\")\n      sub(shl(0xa0, 0x01), 0x01)\n        /* \"msc_token/BeePresell.sol\":8394:8412  sellToken.transfer */\n      and\n      swap1\n      0xa9059cbb\n      swap1\n        /* \"#utility.yul\":943:961   */\n      0x44\n      add\n        /* \"msc_token/BeePresell.sol\":8394:8459  sellToken.transfer(msg.sender, userPresellBalanceMap[msg.sender]) */\n      0x20\n      mload(0x40)\n      dup1\n      dup4\n      sub\n      dup2\n      0x00\n      dup8\n      gas\n      call\n      iszero\n      dup1\n      iszero\n      tag_289\n      jumpi\n      returndatasize\n      0x00\n      dup1\n      returndatacopy\n      revert(0x00, returndatasize)\n    tag_289:\n      pop\n      pop\n      pop\n      pop\n      mload(0x40)\n      returndatasize\n      not(0x1f)\n      0x1f\n      dup3\n      add\n      and\n      dup3\n      add\n      dup1\n      0x40\n      mstore\n      pop\n      dup2\n      add\n      swap1\n      tag_290\n      swap2\n      swap1\n      tag_186\n      jump\t// in\n    tag_290:\n        /* \"msc_token/BeePresell.sol\":8382:8459  bool sent = sellToken.transfer(msg.sender, userPresellBalanceMap[msg.sender]) */\n      swap1\n      pop\n        /* \"msc_token/BeePresell.sol\":8478:8482  sent */\n      dup1\n        /* \"msc_token/BeePresell.sol\":8470:8508  require(sent, \"Token transfer failed\") */\n      tag_291\n      jumpi\n      mload(0x40)\n      shl(0xe5, 0x461bcd)\n      dup2\n      mstore\n      0x04\n      add\n      tag_171\n      swap1\n      tag_189\n      jump\t// in\n    tag_291:\n        /* \"msc_token/BeePresell.sol\":8543:8553  msg.sender */\n      caller\n        /* \"msc_token/BeePresell.sol\":8557:8558  0 */\n      0x00\n        /* \"msc_token/BeePresell.sol\":8521:8554  userPresellBalanceMap[msg.sender] */\n      swap1\n      dup2\n      mstore\n        /* \"msc_token/BeePresell.sol\":8521:8542  userPresellBalanceMap */\n      0x09\n        /* \"msc_token/BeePresell.sol\":8521:8554  userPresellBalanceMap[msg.sender] */\n      0x20\n      mstore\n      0x40\n      dup2\n      keccak256\n        /* \"msc_token/BeePresell.sol\":8521:8558  userPresellBalanceMap[msg.sender] = 0 */\n      sstore\n        /* \"msc_token/BeePresell.sol\":8569:8584  withdrawCounter */\n      0x07\n        /* \"msc_token/BeePresell.sol\":8569:8586  withdrawCounter++ */\n      dup1\n      sload\n      0x0100000000\n      swap1\n      div\n      0xffffffff\n      and\n      swap1\n        /* \"msc_token/BeePresell.sol\":8569:8584  withdrawCounter */\n      0x04\n        /* \"msc_token/BeePresell.sol\":8569:8586  withdrawCounter++ */\n      tag_293\n      dup4\n      tag_242\n      jump\t// in\n    tag_293:\n      swap2\n      swap1\n      0x0100\n      exp\n      dup2\n      sload\n      dup2\n      0xffffffff\n      mul\n      not\n      and\n      swap1\n      dup4\n      0xffffffff\n      and\n      mul\n      or\n      swap1\n      sstore\n      pop\n      pop\n        /* \"msc_token/BeePresell.sol\":8227:8594  {... */\n      pop\n        /* \"msc_token/BeePresell.sol\":8187:8594  function withdrawPresellTokens() public {... */\n      jump\t// out\n        /* \"msc_token/BeePresell.sol\":7531:8179  function buyTokens() public {... */\n    tag_141:\n        /* \"msc_token/BeePresell.sol\":7578:7585  startAt */\n      sload(0x07)\n        /* \"msc_token/BeePresell.sol\":7588:7603  block.timestamp */\n      timestamp\n      shl(0x80, 0x01)\n        /* \"msc_token/BeePresell.sol\":7578:7585  startAt */\n      swap1\n      swap2\n      div\n      0xffffffffffffffff\n      and\n        /* \"msc_token/BeePresell.sol\":7578:7603  startAt < block.timestamp */\n      lt\n        /* \"msc_token/BeePresell.sol\":7570:7617  require(startAt < block.timestamp, \"not start\") */\n      tag_295\n      jumpi\n      mload(0x40)\n      shl(0xe5, 0x461bcd)\n      dup2\n      mstore\n        /* \"#utility.yul\":4925:4927   */\n      0x20\n        /* \"msc_token/BeePresell.sol\":7570:7617  require(startAt < block.timestamp, \"not start\") */\n      0x04\n      dup3\n      add\n        /* \"#utility.yul\":4907:4928   */\n      mstore\n        /* \"#utility.yul\":4964:4965   */\n      0x09\n        /* \"#utility.yul\":4944:4962   */\n      0x24\n      dup3\n      add\n        /* \"#utility.yul\":4937:4966   */\n      mstore\n      shl(0xba, 0x1b9bdd081cdd185c9d)\n        /* \"#utility.yul\":4982:5000   */\n      0x44\n      dup3\n      add\n        /* \"#utility.yul\":4975:5014   */\n      mstore\n        /* \"#utility.yul\":5031:5049   */\n      0x64\n      add\n        /* \"msc_token/BeePresell.sol\":7570:7617  require(startAt < block.timestamp, \"not start\") */\n      tag_171\n        /* \"#utility.yul\":4723:5055   */\n      jump\n        /* \"msc_token/BeePresell.sol\":7570:7617  require(startAt < block.timestamp, \"not start\") */\n    tag_295:\n        /* \"msc_token/BeePresell.sol\":7638:7643  endAt */\n      sload(0x07)\n        /* \"msc_token/BeePresell.sol\":7646:7661  block.timestamp */\n      timestamp\n      shl(0xc0, 0x01)\n        /* \"msc_token/BeePresell.sol\":7638:7643  endAt */\n      swap1\n      swap2\n      div\n      0xffffffffffffffff\n      and\n        /* \"msc_token/BeePresell.sol\":7638:7661  endAt > block.timestamp */\n      gt\n        /* \"msc_token/BeePresell.sol\":7630:7673  require(endAt > block.timestamp, \"has end\") */\n      tag_297\n      jumpi\n      mload(0x40)\n      shl(0xe5, 0x461bcd)\n      dup2\n      mstore\n        /* \"#utility.yul\":5262:5264   */\n      0x20\n        /* \"msc_token/BeePresell.sol\":7630:7673  require(endAt > block.timestamp, \"has end\") */\n      0x04\n      dup3\n      add\n        /* \"#utility.yul\":5244:5265   */\n      mstore\n        /* \"#utility.yul\":5301:5302   */\n      0x07\n        /* \"#utility.yul\":5281:5299   */\n      0x24\n      dup3\n      add\n        /* \"#utility.yul\":5274:5303   */\n      mstore\n      shl(0xca, 0x1a185cc8195b99)\n        /* \"#utility.yul\":5319:5337   */\n      0x44\n      dup3\n      add\n        /* \"#utility.yul\":5312:5349   */\n      mstore\n        /* \"#utility.yul\":5366:5384   */\n      0x64\n      add\n        /* \"msc_token/BeePresell.sol\":7630:7673  require(endAt > block.timestamp, \"has end\") */\n      tag_171\n        /* \"#utility.yul\":5060:5390   */\n      jump\n        /* \"msc_token/BeePresell.sol\":7630:7673  require(endAt > block.timestamp, \"has end\") */\n    tag_297:\n        /* \"msc_token/BeePresell.sol\":7705:7711  preMax */\n      sload(0x07)\n      0xffffffff\n      shl(0x60, 0x01)\n      dup3\n      div\n      dup2\n      and\n        /* \"msc_token/BeePresell.sol\":7694:7701  counter */\n      swap2\n      and\n        /* \"msc_token/BeePresell.sol\":7694:7711  counter <= preMax */\n      gt\n      iszero\n        /* \"msc_token/BeePresell.sol\":7686:7739  require(counter <= preMax, \"Pre-orders are sold out\") */\n      tag_299\n      jumpi\n      mload(0x40)\n      shl(0xe5, 0x461bcd)\n      dup2\n      mstore\n        /* \"#utility.yul\":9700:9702   */\n      0x20\n        /* \"msc_token/BeePresell.sol\":7686:7739  require(counter <= preMax, \"Pre-orders are sold out\") */\n      0x04\n      dup3\n      add\n        /* \"#utility.yul\":9682:9703   */\n      mstore\n        /* \"#utility.yul\":9739:9741   */\n      0x17\n        /* \"#utility.yul\":9719:9737   */\n      0x24\n      dup3\n      add\n        /* \"#utility.yul\":9712:9742   */\n      mstore\n        /* \"#utility.yul\":9778:9803   */\n      0x5072652d6f72646572732061726520736f6c64206f7574000000000000000000\n        /* \"#utility.yul\":9758:9776   */\n      0x44\n      dup3\n      add\n        /* \"#utility.yul\":9751:9804   */\n      mstore\n        /* \"#utility.yul\":9821:9839   */\n      0x64\n      add\n        /* \"msc_token/BeePresell.sol\":7686:7739  require(counter <= preMax, \"Pre-orders are sold out\") */\n      tag_171\n        /* \"#utility.yul\":9498:9845   */\n      jump\n        /* \"msc_token/BeePresell.sol\":7686:7739  require(counter <= preMax, \"Pre-orders are sold out\") */\n    tag_299:\n        /* \"msc_token/BeePresell.sol\":7768:7778  msg.sender */\n      caller\n        /* \"msc_token/BeePresell.sol\":7761:7779  hasBuy[msg.sender] */\n      0x00\n      swap1\n      dup2\n      mstore\n        /* \"msc_token/BeePresell.sol\":7761:7767  hasBuy */\n      0x0b\n        /* \"msc_token/BeePresell.sol\":7761:7779  hasBuy[msg.sender] */\n      0x20\n      mstore\n      0x40\n      swap1\n      keccak256\n      sload\n      0xff\n      and\n        /* \"msc_token/BeePresell.sol\":7760:7779  !hasBuy[msg.sender] */\n      iszero\n        /* \"msc_token/BeePresell.sol\":7752:7800  require(!hasBuy[msg.sender],\"already purchased\") */\n      tag_302\n      jumpi\n      mload(0x40)\n      shl(0xe5, 0x461bcd)\n      dup2\n      mstore\n        /* \"#utility.yul\":10052:10054   */\n      0x20\n        /* \"msc_token/BeePresell.sol\":7752:7800  require(!hasBuy[msg.sender],\"already purchased\") */\n      0x04\n      dup3\n      add\n        /* \"#utility.yul\":10034:10055   */\n      mstore\n        /* \"#utility.yul\":10091:10093   */\n      0x11\n        /* \"#utility.yul\":10071:10089   */\n      0x24\n      dup3\n      add\n        /* \"#utility.yul\":10064:10094   */\n      mstore\n      shl(0x7a, 0x185b1c9958591e481c1d5c98da185cd959)\n        /* \"#utility.yul\":10110:10128   */\n      0x44\n      dup3\n      add\n        /* \"#utility.yul\":10103:10150   */\n      mstore\n        /* \"#utility.yul\":10167:10185   */\n      0x64\n      add\n        /* \"msc_token/BeePresell.sol\":7752:7800  require(!hasBuy[msg.sender],\"already purchased\") */\n      tag_171\n        /* \"#utility.yul\":9850:10191   */\n      jump\n        /* \"msc_token/BeePresell.sol\":7752:7800  require(!hasBuy[msg.sender],\"already purchased\") */\n    tag_302:\n        /* \"msc_token/BeePresell.sol\":7871:7881  usdtAmount */\n      0x04\n      dup1\n      sload\n        /* \"msc_token/BeePresell.sol\":7821:7867  usdtToken.allowance(msg.sender, address(this)) */\n      mload(0x40)\n      shl(0xe1, 0x6eb1769f)\n      dup2\n      mstore\n        /* \"msc_token/BeePresell.sol\":7841:7851  msg.sender */\n      caller\n        /* \"msc_token/BeePresell.sol\":7821:7867  usdtToken.allowance(msg.sender, address(this)) */\n      swap3\n      dup2\n      add\n        /* \"#utility.yul\":10408:10442   */\n      swap3\n      swap1\n      swap3\n      mstore\n        /* \"msc_token/BeePresell.sol\":7861:7865  this */\n      address\n        /* \"#utility.yul\":10458:10476   */\n      0x24\n      dup4\n      add\n        /* \"#utility.yul\":10451:10494   */\n      mstore\n        /* \"msc_token/BeePresell.sol\":7871:7881  usdtAmount */\n      swap1\n      sub(shl(0xa0, 0x01), 0x01)\n        /* \"msc_token/BeePresell.sol\":7821:7830  usdtToken */\n      immutable(\"0x1cca6d2cec39a0e1e2f69c2ebe2dc3f8c1e03db413c5d1c3e31cdca41ddbc4f2\")\n        /* \"msc_token/BeePresell.sol\":7821:7840  usdtToken.allowance */\n      and\n      swap1\n      0xdd62ed3e\n      swap1\n        /* \"#utility.yul\":10343:10361   */\n      0x44\n      add\n        /* \"msc_token/BeePresell.sol\":7821:7867  usdtToken.allowance(msg.sender, address(this)) */\n      0x20\n      mload(0x40)\n      dup1\n      dup4\n      sub\n      dup2\n      dup7\n      gas\n      staticcall\n      iszero\n      dup1\n      iszero\n      tag_308\n      jumpi\n      returndatasize\n      0x00\n      dup1\n      returndatacopy\n      revert(0x00, returndatasize)\n    tag_308:\n      pop\n      pop\n      pop\n      pop\n      mload(0x40)\n      returndatasize\n      not(0x1f)\n      0x1f\n      dup3\n      add\n      and\n      dup3\n      add\n      dup1\n      0x40\n      mstore\n      pop\n      dup2\n      add\n      swap1\n      tag_309\n      swap2\n      swap1\n      tag_310\n      jump\t// in\n    tag_309:\n        /* \"msc_token/BeePresell.sol\":7821:7881  usdtToken.allowance(msg.sender, address(this)) >= usdtAmount */\n      lt\n      iszero\n        /* \"msc_token/BeePresell.sol\":7813:7913  require(usdtToken.allowance(msg.sender, address(this)) >= usdtAmount, \"usdtToken allowance too low\") */\n      tag_311\n      jumpi\n      mload(0x40)\n      shl(0xe5, 0x461bcd)\n      dup2\n      mstore\n        /* \"#utility.yul\":10896:10898   */\n      0x20\n        /* \"msc_token/BeePresell.sol\":7813:7913  require(usdtToken.allowance(msg.sender, address(this)) >= usdtAmount, \"usdtToken allowance too low\") */\n      0x04\n      dup3\n      add\n        /* \"#utility.yul\":10878:10899   */\n      mstore\n        /* \"#utility.yul\":10935:10937   */\n      0x1b\n        /* \"#utility.yul\":10915:10933   */\n      0x24\n      dup3\n      add\n        /* \"#utility.yul\":10908:10938   */\n      mstore\n        /* \"#utility.yul\":10974:11003   */\n      0x75736474546f6b656e20616c6c6f77616e636520746f6f206c6f770000000000\n        /* \"#utility.yul\":10954:10972   */\n      0x44\n      dup3\n      add\n        /* \"#utility.yul\":10947:11004   */\n      mstore\n        /* \"#utility.yul\":11021:11039   */\n      0x64\n      add\n        /* \"msc_token/BeePresell.sol\":7813:7913  require(usdtToken.allowance(msg.sender, address(this)) >= usdtAmount, \"usdtToken allowance too low\") */\n      tag_171\n        /* \"#utility.yul\":10694:11045   */\n      jump\n        /* \"msc_token/BeePresell.sol\":7813:7913  require(usdtToken.allowance(msg.sender, address(this)) >= usdtAmount, \"usdtToken allowance too low\") */\n    tag_311:\n        /* \"msc_token/BeePresell.sol\":7973:7986  marketAddress */\n      sload(0x03)\n        /* \"msc_token/BeePresell.sol\":7988:7998  usdtAmount */\n      0x04\n      dup1\n      sload\n        /* \"msc_token/BeePresell.sol\":7938:7999  usdtToken.transferFrom(msg.sender, marketAddress, usdtAmount) */\n      mload(0x40)\n      shl(0xe0, 0x23b872dd)\n      dup2\n      mstore\n        /* \"msc_token/BeePresell.sol\":7961:7971  msg.sender */\n      caller\n        /* \"msc_token/BeePresell.sol\":7938:7999  usdtToken.transferFrom(msg.sender, marketAddress, usdtAmount) */\n      swap3\n      dup2\n      add\n        /* \"#utility.yul\":11290:11324   */\n      swap3\n      swap1\n      swap3\n      mstore\n      sub(shl(0xa0, 0x01), 0x01)\n        /* \"msc_token/BeePresell.sol\":7973:7986  marketAddress */\n      swap3\n      dup4\n      and\n        /* \"#utility.yul\":11340:11358   */\n      0x24\n      dup4\n      add\n        /* \"#utility.yul\":11333:11376   */\n      mstore\n        /* \"#utility.yul\":11392:11410   */\n      0x44\n      dup3\n      add\n        /* \"#utility.yul\":11385:11419   */\n      mstore\n        /* \"msc_token/BeePresell.sol\":7926:7935  bool sent */\n      0x00\n      swap2\n        /* \"msc_token/BeePresell.sol\":7938:7947  usdtToken */\n      immutable(\"0x1cca6d2cec39a0e1e2f69c2ebe2dc3f8c1e03db413c5d1c3e31cdca41ddbc4f2\")\n        /* \"msc_token/BeePresell.sol\":7938:7960  usdtToken.transferFrom */\n      and\n      swap1\n      0x23b872dd\n      swap1\n        /* \"#utility.yul\":11225:11243   */\n      0x64\n      add\n        /* \"msc_token/BeePresell.sol\":7938:7999  usdtToken.transferFrom(msg.sender, marketAddress, usdtAmount) */\n      0x20\n      mload(0x40)\n      dup1\n      dup4\n      sub\n      dup2\n      0x00\n      dup8\n      gas\n      call\n      iszero\n      dup1\n      iszero\n      tag_317\n      jumpi\n      returndatasize\n      0x00\n      dup1\n      returndatacopy\n      revert(0x00, returndatasize)\n    tag_317:\n      pop\n      pop\n      pop\n      pop\n      mload(0x40)\n      returndatasize\n      not(0x1f)\n      0x1f\n      dup3\n      add\n      and\n      dup3\n      add\n      dup1\n      0x40\n      mstore\n      pop\n      dup2\n      add\n      swap1\n      tag_318\n      swap2\n      swap1\n      tag_186\n      jump\t// in\n    tag_318:\n        /* \"msc_token/BeePresell.sol\":7926:7999  bool sent = usdtToken.transferFrom(msg.sender, marketAddress, usdtAmount) */\n      swap1\n      pop\n        /* \"msc_token/BeePresell.sol\":8018:8022  sent */\n      dup1\n        /* \"msc_token/BeePresell.sol\":8010:8048  require(sent, \"Token transfer failed\") */\n      tag_319\n      jumpi\n      mload(0x40)\n      shl(0xe5, 0x461bcd)\n      dup2\n      mstore\n      0x04\n      add\n      tag_171\n      swap1\n      tag_189\n      jump\t// in\n    tag_319:\n        /* \"msc_token/BeePresell.sol\":8095:8115  preSellCoinPreAmount */\n      sload(0x05)\n        /* \"msc_token/BeePresell.sol\":8081:8091  msg.sender */\n      caller\n        /* \"msc_token/BeePresell.sol\":8059:8092  userPresellBalanceMap[msg.sender] */\n      0x00\n      swap1\n      dup2\n      mstore\n        /* \"msc_token/BeePresell.sol\":8059:8080  userPresellBalanceMap */\n      0x09\n        /* \"msc_token/BeePresell.sol\":8059:8092  userPresellBalanceMap[msg.sender] */\n      0x20\n      swap1\n      dup2\n      mstore\n      0x40\n      dup1\n      dup4\n      keccak256\n        /* \"msc_token/BeePresell.sol\":8059:8115  userPresellBalanceMap[msg.sender] = preSellCoinPreAmount */\n      swap4\n      swap1\n      swap4\n      sstore\n        /* \"msc_token/BeePresell.sol\":8126:8132  hasBuy */\n      0x0b\n        /* \"msc_token/BeePresell.sol\":8126:8144  hasBuy[msg.sender] */\n      swap1\n      mstore\n      swap1\n      dup2\n      keccak256\n        /* \"msc_token/BeePresell.sol\":8126:8151  hasBuy[msg.sender] = true */\n      dup1\n      sload\n      not(0xff)\n      and\n        /* \"msc_token/BeePresell.sol\":8147:8151  true */\n      0x01\n        /* \"msc_token/BeePresell.sol\":8126:8151  hasBuy[msg.sender] = true */\n      or\n      swap1\n      sstore\n        /* \"msc_token/BeePresell.sol\":8162:8169  counter */\n      0x07\n        /* \"msc_token/BeePresell.sol\":8162:8171  counter++ */\n      dup1\n      sload\n      0xffffffff\n      and\n      swap2\n      tag_293\n      dup4\n      tag_242\n      jump\t// in\n        /* \"msc_token/BeePresell.sol\":2090:2291  function transferOwnership(address newOwner) public virtual onlyOwner {... */\n    tag_161:\n        /* \"msc_token/BeePresell.sol\":1227:1234  address */\n      0x00\n        /* \"msc_token/BeePresell.sol\":1254:1260  _owner */\n      sload\n      sub(shl(0xa0, 0x01), 0x01)\n      and\n        /* \"msc_token/BeePresell.sol\":635:645  msg.sender */\n      caller\n        /* \"msc_token/BeePresell.sol\":1401:1424  owner() == _msgSender() */\n      eq\n        /* \"msc_token/BeePresell.sol\":1393:1461  require(owner() == _msgSender(), \"Ownable: caller is not the owner\") */\n      tag_330\n      jumpi\n      mload(0x40)\n      shl(0xe5, 0x461bcd)\n      dup2\n      mstore\n      0x04\n      add\n      tag_171\n      swap1\n      tag_172\n      jump\t// in\n    tag_330:\n      sub(shl(0xa0, 0x01), 0x01)\n        /* \"msc_token/BeePresell.sol\":2179:2201  newOwner != address(0) */\n      dup2\n      and\n        /* \"msc_token/BeePresell.sol\":2171:2244  require(newOwner != address(0), \"Ownable: new owner is the zero address\") */\n      tag_333\n      jumpi\n      mload(0x40)\n      shl(0xe5, 0x461bcd)\n      dup2\n      mstore\n        /* \"#utility.yul\":11632:11634   */\n      0x20\n        /* \"msc_token/BeePresell.sol\":2171:2244  require(newOwner != address(0), \"Ownable: new owner is the zero address\") */\n      0x04\n      dup3\n      add\n        /* \"#utility.yul\":11614:11635   */\n      mstore\n        /* \"#utility.yul\":11671:11673   */\n      0x26\n        /* \"#utility.yul\":11651:11669   */\n      0x24\n      dup3\n      add\n        /* \"#utility.yul\":11644:11674   */\n      mstore\n        /* \"#utility.yul\":11710:11744   */\n      0x4f776e61626c653a206e6577206f776e657220697320746865207a65726f2061\n        /* \"#utility.yul\":11690:11708   */\n      0x44\n      dup3\n      add\n        /* \"#utility.yul\":11683:11745   */\n      mstore\n      shl(0xd0, 0x646472657373)\n        /* \"#utility.yul\":11761:11779   */\n      0x64\n      dup3\n      add\n        /* \"#utility.yul\":11754:11790   */\n      mstore\n        /* \"#utility.yul\":11807:11826   */\n      0x84\n      add\n        /* \"msc_token/BeePresell.sol\":2171:2244  require(newOwner != address(0), \"Ownable: new owner is the zero address\") */\n      tag_171\n        /* \"#utility.yul\":11430:11832   */\n      jump\n        /* \"msc_token/BeePresell.sol\":2171:2244  require(newOwner != address(0), \"Ownable: new owner is the zero address\") */\n    tag_333:\n        /* \"msc_token/BeePresell.sol\":2255:2283  _transferOwnership(newOwner) */\n      tag_336\n        /* \"msc_token/BeePresell.sol\":2274:2282  newOwner */\n      dup2\n        /* \"msc_token/BeePresell.sol\":2255:2273  _transferOwnership */\n      tag_211\n        /* \"msc_token/BeePresell.sol\":2255:2283  _transferOwnership(newOwner) */\n      jump\t// in\n    tag_336:\n        /* \"msc_token/BeePresell.sol\":2090:2291  function transferOwnership(address newOwner) public virtual onlyOwner {... */\n      pop\n      jump\t// out\n        /* \"msc_token/BeePresell.sol\":9195:9303  function setMarketAddress(address newAddress) public onlyOwner {... */\n    tag_164:\n        /* \"msc_token/BeePresell.sol\":1227:1234  address */\n      0x00\n        /* \"msc_token/BeePresell.sol\":1254:1260  _owner */\n      sload\n      sub(shl(0xa0, 0x01), 0x01)\n      and\n        /* \"msc_token/BeePresell.sol\":635:645  msg.sender */\n      caller\n        /* \"msc_token/BeePresell.sol\":1401:1424  owner() == _msgSender() */\n      eq\n        /* \"msc_token/BeePresell.sol\":1393:1461  require(owner() == _msgSender(), \"Ownable: caller is not the owner\") */\n      tag_340\n      jumpi\n      mload(0x40)\n      shl(0xe5, 0x461bcd)\n      dup2\n      mstore\n      0x04\n      add\n      tag_171\n      swap1\n      tag_172\n      jump\t// in\n    tag_340:\n        /* \"msc_token/BeePresell.sol\":9269:9282  marketAddress */\n      0x03\n        /* \"msc_token/BeePresell.sol\":9269:9295  marketAddress = newAddress */\n      dup1\n      sload\n      not(sub(shl(0xa0, 0x01), 0x01))\n      and\n      sub(shl(0xa0, 0x01), 0x01)\n      swap3\n      swap1\n      swap3\n      and\n      swap2\n      swap1\n      swap2\n      or\n      swap1\n      sstore\n        /* \"msc_token/BeePresell.sol\":9195:9303  function setMarketAddress(address newAddress) public onlyOwner {... */\n      jump\t// out\n        /* \"msc_token/BeePresell.sol\":2451:2642  function _transferOwnership(address newOwner) internal virtual {... */\n    tag_211:\n        /* \"msc_token/BeePresell.sol\":2525:2541  address oldOwner */\n      0x00\n        /* \"msc_token/BeePresell.sol\":2544:2550  _owner */\n      dup1\n      sload\n      sub(shl(0xa0, 0x01), 0x01)\n        /* \"msc_token/BeePresell.sol\":2561:2578  _owner = newOwner */\n      dup4\n      dup2\n      and\n      not(sub(shl(0xa0, 0x01), 0x01))\n      dup4\n      and\n      dup2\n      or\n      dup5\n      sstore\n        /* \"msc_token/BeePresell.sol\":2594:2634  OwnershipTransferred(oldOwner, newOwner) */\n      mload(0x40)\n        /* \"msc_token/BeePresell.sol\":2544:2550  _owner */\n      swap2\n      swap1\n      swap3\n      and\n      swap3\n      dup4\n      swap2\n        /* \"msc_token/BeePresell.sol\":2594:2634  OwnershipTransferred(oldOwner, newOwner) */\n      0x8be0079c531659141344cd1fd0a4f28419497f9722a3daafe3b4186f6b6457e0\n      swap2\n        /* \"msc_token/BeePresell.sol\":2525:2541  address oldOwner */\n      swap1\n        /* \"msc_token/BeePresell.sol\":2594:2634  OwnershipTransferred(oldOwner, newOwner) */\n      log3\n        /* \"msc_token/BeePresell.sol\":2514:2642  {... */\n      pop\n        /* \"msc_token/BeePresell.sol\":2451:2642  function _transferOwnership(address newOwner) internal virtual {... */\n      pop\n      jump\t// out\n        /* \"#utility.yul\":427:600   */\n    tag_345:\n        /* \"#utility.yul\":495:515   */\n      dup1\n      calldataload\n      sub(shl(0xa0, 0x01), 0x01)\n        /* \"#utility.yul\":544:575   */\n      dup2\n      and\n        /* \"#utility.yul\":534:576   */\n      dup2\n      eq\n        /* \"#utility.yul\":524:594   */\n      tag_351\n      jumpi\n        /* \"#utility.yul\":590:591   */\n      0x00\n        /* \"#utility.yul\":587:588   */\n      dup1\n        /* \"#utility.yul\":580:592   */\n      revert\n        /* \"#utility.yul\":524:594   */\n    tag_351:\n        /* \"#utility.yul\":427:600   */\n      swap2\n      swap1\n      pop\n      jump\t// out\n        /* \"#utility.yul\":605:791   */\n    tag_54:\n        /* \"#utility.yul\":664:670   */\n      0x00\n        /* \"#utility.yul\":717:719   */\n      0x20\n        /* \"#utility.yul\":705:714   */\n      dup3\n        /* \"#utility.yul\":696:703   */\n      dup5\n        /* \"#utility.yul\":692:715   */\n      sub\n        /* \"#utility.yul\":688:720   */\n      slt\n        /* \"#utility.yul\":685:737   */\n      iszero\n      tag_353\n      jumpi\n        /* \"#utility.yul\":733:734   */\n      0x00\n        /* \"#utility.yul\":730:731   */\n      dup1\n        /* \"#utility.yul\":723:735   */\n      revert\n        /* \"#utility.yul\":685:737   */\n    tag_353:\n        /* \"#utility.yul\":756:785   */\n      tag_243\n        /* \"#utility.yul\":775:784   */\n      dup3\n        /* \"#utility.yul\":756:785   */\n      tag_345\n      jump\t// in\n        /* \"#utility.yul\":1075:1255   */\n    tag_60:\n        /* \"#utility.yul\":1134:1140   */\n      0x00\n        /* \"#utility.yul\":1187:1189   */\n      0x20\n        /* \"#utility.yul\":1175:1184   */\n      dup3\n        /* \"#utility.yul\":1166:1173   */\n      dup5\n        /* \"#utility.yul\":1162:1185   */\n      sub\n        /* \"#utility.yul\":1158:1190   */\n      slt\n        /* \"#utility.yul\":1155:1207   */\n      iszero\n      tag_357\n      jumpi\n        /* \"#utility.yul\":1203:1204   */\n      0x00\n        /* \"#utility.yul\":1200:1201   */\n      dup1\n        /* \"#utility.yul\":1193:1205   */\n      revert\n        /* \"#utility.yul\":1155:1207   */\n    tag_357:\n      pop\n        /* \"#utility.yul\":1226:1249   */\n      calldataload\n      swap2\n        /* \"#utility.yul\":1075:1255   */\n      swap1\n      pop\n      jump\t// out\n        /* \"#utility.yul\":1634:1956   */\n    tag_108:\n        /* \"#utility.yul\":1711:1717   */\n      0x00\n        /* \"#utility.yul\":1719:1725   */\n      dup1\n        /* \"#utility.yul\":1727:1733   */\n      0x00\n        /* \"#utility.yul\":1780:1782   */\n      0x60\n        /* \"#utility.yul\":1768:1777   */\n      dup5\n        /* \"#utility.yul\":1759:1766   */\n      dup7\n        /* \"#utility.yul\":1755:1778   */\n      sub\n        /* \"#utility.yul\":1751:1783   */\n      slt\n        /* \"#utility.yul\":1748:1800   */\n      iszero\n      tag_361\n      jumpi\n        /* \"#utility.yul\":1796:1797   */\n      0x00\n        /* \"#utility.yul\":1793:1794   */\n      dup1\n        /* \"#utility.yul\":1786:1798   */\n      revert\n        /* \"#utility.yul\":1748:1800   */\n    tag_361:\n        /* \"#utility.yul\":1819:1848   */\n      tag_362\n        /* \"#utility.yul\":1838:1847   */\n      dup5\n        /* \"#utility.yul\":1819:1848   */\n      tag_345\n      jump\t// in\n    tag_362:\n        /* \"#utility.yul\":1809:1848   */\n      swap6\n        /* \"#utility.yul\":1895:1897   */\n      0x20\n        /* \"#utility.yul\":1880:1898   */\n      dup6\n      add\n        /* \"#utility.yul\":1867:1899   */\n      calldataload\n      swap6\n      pop\n        /* \"#utility.yul\":1946:1948   */\n      0x40\n        /* \"#utility.yul\":1931:1949   */\n      swap1\n      swap5\n      add\n        /* \"#utility.yul\":1918:1950   */\n      calldataload\n      swap4\n        /* \"#utility.yul\":1634:1956   */\n      swap3\n      pop\n      pop\n      pop\n      jump\t// out\n        /* \"#utility.yul\":1961:2619   */\n    tag_111:\n        /* \"#utility.yul\":2132:2134   */\n      0x20\n        /* \"#utility.yul\":2184:2205   */\n      dup1\n      dup3\n      mstore\n        /* \"#utility.yul\":2254:2267   */\n      dup3\n      mload\n        /* \"#utility.yul\":2157:2175   */\n      dup3\n      dup3\n      add\n        /* \"#utility.yul\":2276:2298   */\n      dup2\n      swap1\n      mstore\n        /* \"#utility.yul\":2103:2107   */\n      0x00\n      swap2\n        /* \"#utility.yul\":2132:2134   */\n      swap1\n        /* \"#utility.yul\":2355:2370   */\n      dup5\n      dup3\n      add\n      swap1\n        /* \"#utility.yul\":2329:2331   */\n      0x40\n        /* \"#utility.yul\":2314:2332   */\n      dup6\n      add\n      swap1\n        /* \"#utility.yul\":2103:2107   */\n      dup5\n        /* \"#utility.yul\":2398:2593   */\n    tag_364:\n        /* \"#utility.yul\":2412:2418   */\n      dup2\n        /* \"#utility.yul\":2409:2410   */\n      dup2\n        /* \"#utility.yul\":2406:2419   */\n      lt\n        /* \"#utility.yul\":2398:2593   */\n      iszero\n      tag_366\n      jumpi\n        /* \"#utility.yul\":2477:2490   */\n      dup4\n      mload\n      sub(shl(0xa0, 0x01), 0x01)\n        /* \"#utility.yul\":2473:2512   */\n      and\n        /* \"#utility.yul\":2461:2513   */\n      dup4\n      mstore\n        /* \"#utility.yul\":2568:2583   */\n      swap3\n      dup5\n      add\n      swap3\n        /* \"#utility.yul\":2533:2545   */\n      swap2\n      dup5\n      add\n      swap2\n        /* \"#utility.yul\":2509:2510   */\n      0x01\n        /* \"#utility.yul\":2427:2436   */\n      add\n        /* \"#utility.yul\":2398:2593   */\n      jump(tag_364)\n    tag_366:\n      pop\n        /* \"#utility.yul\":2610:2613   */\n      swap1\n      swap7\n        /* \"#utility.yul\":1961:2619   */\n      swap6\n      pop\n      pop\n      pop\n      pop\n      pop\n      pop\n      jump\t// out\n        /* \"#utility.yul\":3042:3398   */\n    tag_172:\n        /* \"#utility.yul\":3244:3246   */\n      0x20\n        /* \"#utility.yul\":3226:3247   */\n      dup1\n      dup3\n      mstore\n        /* \"#utility.yul\":3263:3281   */\n      dup2\n      dup2\n      add\n        /* \"#utility.yul\":3256:3286   */\n      mstore\n        /* \"#utility.yul\":3322:3356   */\n      0x4f776e61626c653a2063616c6c6572206973206e6f7420746865206f776e6572\n        /* \"#utility.yul\":3317:3319   */\n      0x40\n        /* \"#utility.yul\":3302:3320   */\n      dup3\n      add\n        /* \"#utility.yul\":3295:3357   */\n      mstore\n        /* \"#utility.yul\":3389:3391   */\n      0x60\n        /* \"#utility.yul\":3374:3392   */\n      add\n      swap1\n        /* \"#utility.yul\":3042:3398   */\n      jump\t// out\n        /* \"#utility.yul\":4091:4368   */\n    tag_186:\n        /* \"#utility.yul\":4158:4164   */\n      0x00\n        /* \"#utility.yul\":4211:4213   */\n      0x20\n        /* \"#utility.yul\":4199:4208   */\n      dup3\n        /* \"#utility.yul\":4190:4197   */\n      dup5\n        /* \"#utility.yul\":4186:4209   */\n      sub\n        /* \"#utility.yul\":4182:4214   */\n      slt\n        /* \"#utility.yul\":4179:4231   */\n      iszero\n      tag_373\n      jumpi\n        /* \"#utility.yul\":4227:4228   */\n      0x00\n        /* \"#utility.yul\":4224:4225   */\n      dup1\n        /* \"#utility.yul\":4217:4229   */\n      revert\n        /* \"#utility.yul\":4179:4231   */\n    tag_373:\n        /* \"#utility.yul\":4259:4268   */\n      dup2\n        /* \"#utility.yul\":4253:4269   */\n      mload\n        /* \"#utility.yul\":4312:4317   */\n      dup1\n        /* \"#utility.yul\":4305:4318   */\n      iszero\n        /* \"#utility.yul\":4298:4319   */\n      iszero\n        /* \"#utility.yul\":4291:4296   */\n      dup2\n        /* \"#utility.yul\":4288:4320   */\n      eq\n        /* \"#utility.yul\":4278:4338   */\n      tag_243\n      jumpi\n        /* \"#utility.yul\":4334:4335   */\n      0x00\n        /* \"#utility.yul\":4331:4332   */\n      dup1\n        /* \"#utility.yul\":4324:4336   */\n      revert\n        /* \"#utility.yul\":4373:4718   */\n    tag_189:\n        /* \"#utility.yul\":4575:4577   */\n      0x20\n        /* \"#utility.yul\":4557:4578   */\n      dup1\n      dup3\n      mstore\n        /* \"#utility.yul\":4614:4616   */\n      0x15\n        /* \"#utility.yul\":4594:4612   */\n      swap1\n      dup3\n      add\n        /* \"#utility.yul\":4587:4617   */\n      mstore\n      shl(0x5a, 0x151bdad95b881d1c985b9cd9995c8819985a5b1959)\n        /* \"#utility.yul\":4648:4650   */\n      0x40\n        /* \"#utility.yul\":4633:4651   */\n      dup3\n      add\n        /* \"#utility.yul\":4626:4677   */\n      mstore\n        /* \"#utility.yul\":4709:4711   */\n      0x60\n        /* \"#utility.yul\":4694:4712   */\n      add\n      swap1\n        /* \"#utility.yul\":4373:4718   */\n      jump\t// out\n        /* \"#utility.yul\":7528:7655   */\n    tag_346:\n        /* \"#utility.yul\":7589:7599   */\n      0x4e487b71\n        /* \"#utility.yul\":7584:7587   */\n      0xe0\n        /* \"#utility.yul\":7580:7600   */\n      shl\n        /* \"#utility.yul\":7577:7578   */\n      0x00\n        /* \"#utility.yul\":7570:7601   */\n      mstore\n        /* \"#utility.yul\":7620:7624   */\n      0x11\n        /* \"#utility.yul\":7617:7618   */\n      0x04\n        /* \"#utility.yul\":7610:7625   */\n      mstore\n        /* \"#utility.yul\":7644:7648   */\n      0x24\n        /* \"#utility.yul\":7641:7642   */\n      0x00\n        /* \"#utility.yul\":7634:7649   */\n      revert\n        /* \"#utility.yul\":7660:7861   */\n    tag_242:\n        /* \"#utility.yul\":7698:7701   */\n      0x00\n        /* \"#utility.yul\":7726:7736   */\n      0xffffffff\n        /* \"#utility.yul\":7771:7773   */\n      dup1\n        /* \"#utility.yul\":7764:7769   */\n      dup4\n        /* \"#utility.yul\":7760:7774   */\n      and\n        /* \"#utility.yul\":7798:7800   */\n      dup2\n        /* \"#utility.yul\":7789:7796   */\n      dup2\n        /* \"#utility.yul\":7786:7801   */\n      sub\n        /* \"#utility.yul\":7783:7824   */\n      tag_387\n      jumpi\n        /* \"#utility.yul\":7804:7822   */\n      tag_387\n      tag_346\n      jump\t// in\n    tag_387:\n        /* \"#utility.yul\":7853:7854   */\n      0x01\n        /* \"#utility.yul\":7840:7855   */\n      add\n      swap4\n        /* \"#utility.yul\":7660:7861   */\n      swap3\n      pop\n      pop\n      pop\n      jump\t// out\n        /* \"#utility.yul\":8223:8348   */\n    tag_251:\n        /* \"#utility.yul\":8263:8267   */\n      0x00\n        /* \"#utility.yul\":8291:8292   */\n      dup3\n        /* \"#utility.yul\":8288:8289   */\n      dup3\n        /* \"#utility.yul\":8285:8293   */\n      lt\n        /* \"#utility.yul\":8282:8316   */\n      iszero\n      tag_391\n      jumpi\n        /* \"#utility.yul\":8296:8314   */\n      tag_391\n      tag_346\n      jump\t// in\n    tag_391:\n      pop\n        /* \"#utility.yul\":8333:8342   */\n      sub\n      swap1\n        /* \"#utility.yul\":8223:8348   */\n      jump\t// out\n        /* \"#utility.yul\":8353:8480   */\n    tag_254:\n        /* \"#utility.yul\":8414:8424   */\n      0x4e487b71\n        /* \"#utility.yul\":8409:8412   */\n      0xe0\n        /* \"#utility.yul\":8405:8425   */\n      shl\n        /* \"#utility.yul\":8402:8403   */\n      0x00\n        /* \"#utility.yul\":8395:8426   */\n      mstore\n        /* \"#utility.yul\":8445:8449   */\n      0x41\n        /* \"#utility.yul\":8442:8443   */\n      0x04\n        /* \"#utility.yul\":8435:8450   */\n      mstore\n        /* \"#utility.yul\":8469:8473   */\n      0x24\n        /* \"#utility.yul\":8466:8467   */\n      0x00\n        /* \"#utility.yul\":8459:8474   */\n      revert\n        /* \"#utility.yul\":8485:8612   */\n    tag_261:\n        /* \"#utility.yul\":8546:8556   */\n      0x4e487b71\n        /* \"#utility.yul\":8541:8544   */\n      0xe0\n        /* \"#utility.yul\":8537:8557   */\n      shl\n        /* \"#utility.yul\":8534:8535   */\n      0x00\n        /* \"#utility.yul\":8527:8558   */\n      mstore\n        /* \"#utility.yul\":8577:8581   */\n      0x32\n        /* \"#utility.yul\":8574:8575   */\n      0x04\n        /* \"#utility.yul\":8567:8582   */\n      mstore\n        /* \"#utility.yul\":8601:8605   */\n      0x24\n        /* \"#utility.yul\":8598:8599   */\n      0x00\n        /* \"#utility.yul\":8591:8606   */\n      revert\n        /* \"#utility.yul\":8617:8752   */\n    tag_266:\n        /* \"#utility.yul\":8656:8659   */\n      0x00\n        /* \"#utility.yul\":8677:8694   */\n      0x01\n      dup3\n      add\n        /* \"#utility.yul\":8674:8717   */\n      tag_396\n      jumpi\n        /* \"#utility.yul\":8697:8715   */\n      tag_396\n      tag_346\n      jump\t// in\n    tag_396:\n      pop\n        /* \"#utility.yul\":8744:8745   */\n      0x01\n        /* \"#utility.yul\":8733:8746   */\n      add\n      swap1\n        /* \"#utility.yul\":8617:8752   */\n      jump\t// out\n        /* \"#utility.yul\":8757:8974   */\n    tag_276:\n        /* \"#utility.yul\":8797:8798   */\n      0x00\n        /* \"#utility.yul\":8823:8824   */\n      dup3\n        /* \"#utility.yul\":8813:8945   */\n      tag_398\n      jumpi\n        /* \"#utility.yul\":8867:8877   */\n      0x4e487b71\n        /* \"#utility.yul\":8862:8865   */\n      0xe0\n        /* \"#utility.yul\":8858:8878   */\n      shl\n        /* \"#utility.yul\":8855:8856   */\n      0x00\n        /* \"#utility.yul\":8848:8879   */\n      mstore\n        /* \"#utility.yul\":8902:8906   */\n      0x12\n        /* \"#utility.yul\":8899:8900   */\n      0x04\n        /* \"#utility.yul\":8892:8907   */\n      mstore\n        /* \"#utility.yul\":8930:8934   */\n      0x24\n        /* \"#utility.yul\":8927:8928   */\n      0x00\n        /* \"#utility.yul\":8920:8935   */\n      revert\n        /* \"#utility.yul\":8813:8945   */\n    tag_398:\n      pop\n        /* \"#utility.yul\":8959:8968   */\n      div\n      swap1\n        /* \"#utility.yul\":8757:8974   */\n      jump\t// out\n        /* \"#utility.yul\":8979:9147   */\n    tag_278:\n        /* \"#utility.yul\":9019:9026   */\n      0x00\n        /* \"#utility.yul\":9085:9086   */\n      dup2\n        /* \"#utility.yul\":9081:9082   */\n      0x00\n        /* \"#utility.yul\":9077:9083   */\n      not\n        /* \"#utility.yul\":9073:9087   */\n      div\n        /* \"#utility.yul\":9070:9071   */\n      dup4\n        /* \"#utility.yul\":9067:9088   */\n      gt\n        /* \"#utility.yul\":9062:9063   */\n      dup3\n        /* \"#utility.yul\":9055:9064   */\n      iszero\n        /* \"#utility.yul\":9048:9065   */\n      iszero\n        /* \"#utility.yul\":9044:9089   */\n      and\n        /* \"#utility.yul\":9041:9112   */\n      iszero\n      tag_401\n      jumpi\n        /* \"#utility.yul\":9092:9110   */\n      tag_401\n      tag_346\n      jump\t// in\n    tag_401:\n      pop\n        /* \"#utility.yul\":9132:9141   */\n      mul\n      swap1\n        /* \"#utility.yul\":8979:9147   */\n      jump\t// out\n        /* \"#utility.yul\":10505:10689   */\n    tag_310:\n        /* \"#utility.yul\":10575:10581   */\n      0x00\n        /* \"#utility.yul\":10628:10630   */\n      0x20\n        /* \"#utility.yul\":10616:10625   */\n      dup3\n        /* \"#utility.yul\":10607:10614   */\n      dup5\n        /* \"#utility.yul\":10603:10626   */\n      sub\n        /* \"#utility.yul\":10599:10631   */\n      slt\n        /* \"#utility.yul\":10596:10648   */\n      iszero\n      tag_407\n      jumpi\n        /* \"#utility.yul\":10644:10645   */\n      0x00\n        /* \"#utility.yul\":10641:10642   */\n      dup1\n        /* \"#utility.yul\":10634:10646   */\n      revert\n        /* \"#utility.yul\":10596:10648   */\n    tag_407:\n      pop\n        /* \"#utility.yul\":10667:10683   */\n      mload\n      swap2\n        /* \"#utility.yul\":10505:10689   */\n      swap1\n      pop\n      jump\t// out\n\n    auxdata: 0xa26469706673582212206cb1c6b92116ab817945bcb3ef0690b0337d96e6ef40fce4a298e8fc27d8b4ab64736f6c634300080d0033\n}\n",
				"bytecode": {
					"linkReferences": {},
					"object": "60c0604052600180546001600160a01b031990811673eda5da0050e21e9e34fadb1075986af1370c7bdb1790915560028054821673b0bc99bdb71a4320a9ad357f68ebfbe6ffebfc8a1790556003805490911673e3e90697218f31b8d0867b8a9c52947d3c888339179055670de0b6b3a764000060045568f3f20b8dfa69d000006005556956bc75e2d63100000000600655600780546c0a00000000000000000000000063ffffffff60601b19909116179055348015620000bf57600080fd5b50604051620019c0380380620019c0833981016040819052620000e2916200025b565b620000ed33620001ee565b42826001600160401b031610156200013d5760405162461bcd60e51b815260206004820152600e60248201526d7374617274206174203c206e6f7760901b60448201526064015b60405180910390fd5b816001600160401b0316816001600160401b03161015620001955760405162461bcd60e51b8152602060048201526011602482015270195b9908185d080f081cdd185c9d08185d607a1b604482015260640162000134565b600780546001600160801b0316600160801b6001600160401b03948516026001600160c01b031617600160c01b92909316919091029190911790556001546001600160a01b039081166080526002541660a05262000293565b600080546001600160a01b038381166001600160a01b0319831681178455604051919092169283917f8be0079c531659141344cd1fd0a4f28419497f9722a3daafe3b4186f6b6457e09190a35050565b80516001600160401b03811681146200025657600080fd5b919050565b600080604083850312156200026f57600080fd5b6200027a836200023e565b91506200028a602084016200023e565b90509250929050565b60805160a0516116e4620002dc60003960008181610432015281816106a3015281816107cb0152610f1901526000818161047c01528181611178015261126701526116e46000f3fe608060405234801561001057600080fd5b50600436106102065760003560e01c806395bf16531161011a578063c9ede793116100ad578063d35cde411161007c578063d35cde411461056b578063eff7318d14610573578063f01fc57c14610588578063f2fde38b14610596578063fae92612146105a957600080fd5b8063c9ede79314610509578063d0febe4c14610511578063d139f56d14610519578063d1d04e1f1461054557600080fd5b8063a98b9144116100e9578063a98b91441461049e578063b9f9231a146104b1578063c556feca146104c4578063c828371e146104f057600080fd5b806395bf16531461040d5780639769f0b01461042d5780639e2a041814610454578063a98ad46c1461047757600080fd5b80636531e61c1161019d57806388af60c61161016c57806388af60c6146103a35780638da5cb5b146103b65780639018c818146103c757806390f5881a146103da57806395623641146103fa57600080fd5b80636531e61c1461034d578063715018a61461036057806378eb6c6f146103685780638568f4ce1461037a57600080fd5b8063304d8dea116101d9578063304d8dea146102cd578063374eedef146102d55780633d719da714610311578063439f5ac21461033457600080fd5b8063027734fa1461020b57806303d7424d1461023b5780631eb43f1a14610266578063271f88b4146102b8575b600080fd5b60025461021e906001600160a01b031681565b6040516001600160a01b0390911681526020015b60405180910390f35b600754640100000000900463ffffffff165b60405167ffffffffffffffff9091168152602001610232565b610299610274366004611485565b600860205260009081526040902080546002909101546001600160a01b039091169082565b604080516001600160a01b039093168352602083019190915201610232565b6102cb6102c63660046114a0565b6105bc565b005b6102cb6105f4565b6103016102e3366004611485565b6001600160a01b03166000908152600b602052604090205460ff1690565b6040519015158152602001610232565b61030161031f366004611485565b600b6020526000908152604090205460ff1681565b600754600160c01b900467ffffffffffffffff1661024d565b6102cb61035b3660046114a0565b610782565b6102cb610863565b6005545b604051908152602001610232565b61036c610388366004611485565b6001600160a01b031660009081526009602052604090205490565b60015461021e906001600160a01b031681565b6000546001600160a01b031661021e565b6103016103d5366004611485565b610899565b61036c6103e8366004611485565b60096020526000908152604090205481565b60035461021e906001600160a01b031681565b61042061041b3660046114b9565b610bfa565b60405161023291906114ec565b61021e7f000000000000000000000000000000000000000000000000000000000000000081565b610301610462366004611485565b600a6020526000908152604090205460ff1681565b61021e7f000000000000000000000000000000000000000000000000000000000000000081565b6104206104ac366004611485565b610d85565b61036c6104bf366004611485565b610dfe565b61036c6104d2366004611485565b6001600160a01b031660009081526008602052604090206001015490565b600754600160801b900467ffffffffffffffff1661024d565b6102cb610e47565b6102cb610ffd565b61021e610527366004611485565b6001600160a01b039081166000908152600860205260409020541690565b600754600160601b900463ffffffff165b60405163ffffffff9091168152602001610232565b60045461036c565b600754600160401b900463ffffffff16610556565b60075463ffffffff1661024d565b6102cb6105a4366004611485565b611332565b6102cb6105b7366004611485565b6113cd565b6000546001600160a01b031633146105ef5760405162461bcd60e51b81526004016105e690611539565b60405180910390fd5b600455565b60075442600160c01b90910467ffffffffffffffff16106106495760405162461bcd60e51b815260206004820152600f60248201526e1c1c995cd95b1b081b9bdd08195b99608a1b60448201526064016105e6565b336000908152600a602052604090205460ff16151560011461069f5760405162461bcd60e51b815260206004820152600f60248201526e75736572206e6f7420696e7669746560881b60448201526064016105e6565b60007f00000000000000000000000000000000000000000000000000000000000000006001600160a01b031663a9059cbb336106da33610dfe565b6040516001600160e01b031960e085901b1681526001600160a01b03909216600483015260248201526044016020604051808303816000875af1158015610725573d6000803e3d6000fd5b505050506040513d601f19601f82011682018060405250810190610749919061156e565b9050806107685760405162461bcd60e51b81526004016105e690611590565b50336000908152600a60205260409020805460ff19169055565b6000546001600160a01b031633146107ac5760405162461bcd60e51b81526004016105e690611539565b60405163a9059cbb60e01b8152336004820152602481018290526000907f00000000000000000000000000000000000000000000000000000000000000006001600160a01b03169063a9059cbb906044016020604051808303816000875af115801561081c573d6000803e3d6000fd5b505050506040513d601f19601f82011682018060405250810190610840919061156e565b90508061085f5760405162461bcd60e51b81526004016105e690611590565b5050565b6000546001600160a01b0316331461088d5760405162461bcd60e51b81526004016105e690611539565b6108976000611419565b565b60075460009042600160801b90910467ffffffffffffffff16106108eb5760405162461bcd60e51b81526020600482015260096024820152681b9bdd081cdd185c9d60ba1b60448201526064016105e6565b60075442600160c01b90910467ffffffffffffffff16116109385760405162461bcd60e51b81526020600482015260076024820152661a185cc8195b9960ca1b60448201526064016105e6565b6001600160a01b0382166000908152600b602052604090205460ff166109945760405162461bcd60e51b81526020600482015260116024820152704265653a7570706572206e6f742062757960781b60448201526064016105e6565b336000908152600b602052604090205460ff166109e65760405162461bcd60e51b815260206004820152601060248201526f4265653a75736572206e6f742062757960801b60448201526064016105e6565b6001600160a01b0382163303610a2e5760405162461bcd60e51b815260206004820152600d60248201526c2132b29d2327a92124a22222a760991b60448201526064016105e6565b336000818152600860205260408082206001600160a01b0386811684529190922080549293909290911603610ab05760405162461bcd60e51b815260206004820152602260248201527f54686520696e76697465722069732061206c6f77657220746f2074686520757360448201526132b960f11b60648201526084016105e6565b81546001600160a01b03808616911603610b025760405162461bcd60e51b81526020600482015260136024820152722932b832b0ba32b21034b73b34ba30ba34b7b760691b60448201526064016105e6565b81546001600160a01b031615610b515760405162461bcd60e51b815260206004820152601460248201527320b63932b0b23c903430bb329030903ab83832b960611b60448201526064016105e6565b81546001600160a01b0385166001600160a01b0319918216811784554360028086018290558401556001838101805480830182556000918252602080832090910180549095163317909455918252600a90925260409020805460ff1916909117905560078054600890610bd19063ffffffff600160401b909104166115d5565b91906101000a81548163ffffffff021916908363ffffffff160217905550600192505050919050565b6001600160a01b03831660009081526008602052604090206001018054606091908015610d6a578385108015610c2f57508085105b8015610c3b5750808411155b610c875760405162461bcd60e51b815260206004820152601c60248201527f6c6f776572206974657261746f72206f7574206f662072616e67652e0000000060448201526064016105e6565b6000610c9386866115f8565b67ffffffffffffffff811115610cab57610cab61160f565b604051908082528060200260200182016040528015610cd4578160200160208202803683370190505b5090506000865b86811015610d5d57848181548110610cf557610cf5611625565b9060005260206000200160009054906101000a90046001600160a01b0316838381518110610d2557610d25611625565b6001600160a01b039092166020928302919091019091015281610d478161163b565b9250508080610d559061163b565b915050610cdb565b5081945050505050610d7e565b505060408051600081526020810190915290505b9392505050565b6001600160a01b038116600090815260086020908152604091829020600101805483518184028101840190945280845260609392830182828015610df257602002820191906000526020600020905b81546001600160a01b03168152600190910190602001808311610dd4575b50505050509050919050565b6001600160a01b038116600090815260086020526040812060010154600754600654610e3791600160401b900463ffffffff1690611654565b610e419190611676565b92915050565b60075442600160c01b90910467ffffffffffffffff1610610e9c5760405162461bcd60e51b815260206004820152600f60248201526e1c1c995cd95b1b081b9bdd08195b99608a1b60448201526064016105e6565b33600090815260096020526040902054610eec5760405162461bcd60e51b8152602060048201526011602482015270757365722062616c616e6365207a65726f60781b60448201526064016105e6565b3360008181526009602052604080822054905163a9059cbb60e01b815260048101939093526024830152907f00000000000000000000000000000000000000000000000000000000000000006001600160a01b03169063a9059cbb906044016020604051808303816000875af1158015610f6a573d6000803e3d6000fd5b505050506040513d601f19601f82011682018060405250810190610f8e919061156e565b905080610fad5760405162461bcd60e51b81526004016105e690611590565b3360009081526009602052604081205560078054640100000000900463ffffffff16906004610fdb836115d5565b91906101000a81548163ffffffff021916908363ffffffff1602179055505050565b60075442600160801b90910467ffffffffffffffff161061104c5760405162461bcd60e51b81526020600482015260096024820152681b9bdd081cdd185c9d60ba1b60448201526064016105e6565b60075442600160c01b90910467ffffffffffffffff16116110995760405162461bcd60e51b81526020600482015260076024820152661a185cc8195b9960ca1b60448201526064016105e6565b60075463ffffffff600160601b82048116911611156110fa5760405162461bcd60e51b815260206004820152601760248201527f5072652d6f72646572732061726520736f6c64206f757400000000000000000060448201526064016105e6565b336000908152600b602052604090205460ff161561114e5760405162461bcd60e51b8152602060048201526011602482015270185b1c9958591e481c1d5c98da185cd959607a1b60448201526064016105e6565b60048054604051636eb1769f60e11b81523392810192909252306024830152906001600160a01b037f0000000000000000000000000000000000000000000000000000000000000000169063dd62ed3e90604401602060405180830381865afa1580156111bf573d6000803e3d6000fd5b505050506040513d601f19601f820116820180604052508101906111e39190611695565b10156112315760405162461bcd60e51b815260206004820152601b60248201527f75736474546f6b656e20616c6c6f77616e636520746f6f206c6f77000000000060448201526064016105e6565b600354600480546040516323b872dd60e01b815233928101929092526001600160a01b03928316602483015260448201526000917f000000000000000000000000000000000000000000000000000000000000000016906323b872dd906064016020604051808303816000875af11580156112b0573d6000803e3d6000fd5b505050506040513d601f19601f820116820180604052508101906112d4919061156e565b9050806112f35760405162461bcd60e51b81526004016105e690611590565b60055433600090815260096020908152604080832093909355600b9052908120805460ff191660011790556007805463ffffffff1691610fdb836115d5565b6000546001600160a01b0316331461135c5760405162461bcd60e51b81526004016105e690611539565b6001600160a01b0381166113c15760405162461bcd60e51b815260206004820152602660248201527f4f776e61626c653a206e6577206f776e657220697320746865207a65726f206160448201526564647265737360d01b60648201526084016105e6565b6113ca81611419565b50565b6000546001600160a01b031633146113f75760405162461bcd60e51b81526004016105e690611539565b600380546001600160a01b0319166001600160a01b0392909216919091179055565b600080546001600160a01b038381166001600160a01b0319831681178455604051919092169283917f8be0079c531659141344cd1fd0a4f28419497f9722a3daafe3b4186f6b6457e09190a35050565b80356001600160a01b038116811461148057600080fd5b919050565b60006020828403121561149757600080fd5b610d7e82611469565b6000602082840312156114b257600080fd5b5035919050565b6000806000606084860312156114ce57600080fd5b6114d784611469565b95602085013595506040909401359392505050565b6020808252825182820181905260009190848201906040850190845b8181101561152d5783516001600160a01b031683529284019291840191600101611508565b50909695505050505050565b6020808252818101527f4f776e61626c653a2063616c6c6572206973206e6f7420746865206f776e6572604082015260600190565b60006020828403121561158057600080fd5b81518015158114610d7e57600080fd5b602080825260159082015274151bdad95b881d1c985b9cd9995c8819985a5b1959605a1b604082015260600190565b634e487b7160e01b600052601160045260246000fd5b600063ffffffff8083168181036115ee576115ee6115bf565b6001019392505050565b60008282101561160a5761160a6115bf565b500390565b634e487b7160e01b600052604160045260246000fd5b634e487b7160e01b600052603260045260246000fd5b60006001820161164d5761164d6115bf565b5060010190565b60008261167157634e487b7160e01b600052601260045260246000fd5b500490565b6000816000190483118215151615611690576116906115bf565b500290565b6000602082840312156116a757600080fd5b505191905056fea26469706673582212206cb1c6b92116ab817945bcb3ef0690b0337d96e6ef40fce4a298e8fc27d8b4ab64736f6c634300080d0033",
					"opcodes": "PUSH1 0xC0 PUSH1 0x40 MSTORE PUSH1 0x1 DUP1 SLOAD PUSH1 0x1 PUSH1 0x1 PUSH1 0xA0 SHL SUB NOT SWAP1 DUP2 AND PUSH20 0xEDA5DA0050E21E9E34FADB1075986AF1370C7BDB OR SWAP1 SWAP2 SSTORE PUSH1 0x2 DUP1 SLOAD DUP3 AND PUSH20 0xB0BC99BDB71A4320A9AD357F68EBFBE6FFEBFC8A OR SWAP1 SSTORE PUSH1 0x3 DUP1 SLOAD SWAP1 SWAP2 AND PUSH20 0xE3E90697218F31B8D0867B8A9C52947D3C888339 OR SWAP1 SSTORE PUSH8 0xDE0B6B3A7640000 PUSH1 0x4 SSTORE PUSH9 0xF3F20B8DFA69D00000 PUSH1 0x5 SSTORE PUSH10 0x56BC75E2D63100000000 PUSH1 0x6 SSTORE PUSH1 0x7 DUP1 SLOAD PUSH13 0xA000000000000000000000000 PUSH4 0xFFFFFFFF PUSH1 0x60 SHL NOT SWAP1 SWAP2 AND OR SWAP1 SSTORE CALLVALUE DUP1 ISZERO PUSH3 0xBF JUMPI PUSH1 0x0 DUP1 REVERT JUMPDEST POP PUSH1 0x40 MLOAD PUSH3 0x19C0 CODESIZE SUB DUP1 PUSH3 0x19C0 DUP4 CODECOPY DUP2 ADD PUSH1 0x40 DUP2 SWAP1 MSTORE PUSH3 0xE2 SWAP2 PUSH3 0x25B JUMP JUMPDEST PUSH3 0xED CALLER PUSH3 0x1EE JUMP JUMPDEST TIMESTAMP DUP3 PUSH1 0x1 PUSH1 0x1 PUSH1 0x40 SHL SUB AND LT ISZERO PUSH3 0x13D JUMPI PUSH1 0x40 MLOAD PUSH3 0x461BCD PUSH1 0xE5 SHL DUP2 MSTORE PUSH1 0x20 PUSH1 0x4 DUP3 ADD MSTORE PUSH1 0xE PUSH1 0x24 DUP3 ADD MSTORE PUSH14 0x7374617274206174203C206E6F77 PUSH1 0x90 SHL PUSH1 0x44 DUP3 ADD MSTORE PUSH1 0x64 ADD JUMPDEST PUSH1 0x40 MLOAD DUP1 SWAP2 SUB SWAP1 REVERT JUMPDEST DUP2 PUSH1 0x1 PUSH1 0x1 PUSH1 0x40 SHL SUB AND DUP2 PUSH1 0x1 PUSH1 0x1 PUSH1 0x40 SHL SUB AND LT ISZERO PUSH3 0x195 JUMPI PUSH1 0x40 MLOAD PUSH3 0x461BCD PUSH1 0xE5 SHL DUP2 MSTORE PUSH1 0x20 PUSH1 0x4 DUP3 ADD MSTORE PUSH1 0x11 PUSH1 0x24 DUP3 ADD MSTORE PUSH17 0x195B9908185D080F081CDD185C9D08185D PUSH1 0x7A SHL PUSH1 0x44 DUP3 ADD MSTORE PUSH1 0x64 ADD PUSH3 0x134 JUMP JUMPDEST PUSH1 0x7 DUP1 SLOAD PUSH1 0x1 PUSH1 0x1 PUSH1 0x80 SHL SUB AND PUSH1 0x1 PUSH1 0x80 SHL PUSH1 0x1 PUSH1 0x1 PUSH1 0x40 SHL SUB SWAP5 DUP6 AND MUL PUSH1 0x1 PUSH1 0x1 PUSH1 0xC0 SHL SUB AND OR PUSH1 0x1 PUSH1 0xC0 SHL SWAP3 SWAP1 SWAP4 AND SWAP2 SWAP1 SWAP2 MUL SWAP2 SWAP1 SWAP2 OR SWAP1 SSTORE PUSH1 0x1 SLOAD PUSH1 0x1 PUSH1 0x1 PUSH1 0xA0 SHL SUB SWAP1 DUP2 AND PUSH1 0x80 MSTORE PUSH1 0x2 SLOAD AND PUSH1 0xA0 MSTORE PUSH3 0x293 JUMP JUMPDEST PUSH1 0x0 DUP1 SLOAD PUSH1 0x1 PUSH1 0x1 PUSH1 0xA0 SHL SUB DUP4 DUP2 AND PUSH1 0x1 PUSH1 0x1 PUSH1 0xA0 SHL SUB NOT DUP4 AND DUP2 OR DUP5 SSTORE PUSH1 0x40 MLOAD SWAP2 SWAP1 SWAP3 AND SWAP3 DUP4 SWAP2 PUSH32 0x8BE0079C531659141344CD1FD0A4F28419497F9722A3DAAFE3B4186F6B6457E0 SWAP2 SWAP1 LOG3 POP POP JUMP JUMPDEST DUP1 MLOAD PUSH1 0x1 PUSH1 0x1 PUSH1 0x40 SHL SUB DUP2 AND DUP2 EQ PUSH3 0x256 JUMPI PUSH1 0x0 DUP1 REVERT JUMPDEST SWAP2 SWAP1 POP JUMP JUMPDEST PUSH1 0x0 DUP1 PUSH1 0x40 DUP4 DUP6 SUB SLT ISZERO PUSH3 0x26F JUMPI PUSH1 0x0 DUP1 REVERT JUMPDEST PUSH3 0x27A DUP4 PUSH3 0x23E JUMP JUMPDEST SWAP2 POP PUSH3 0x28A PUSH1 0x20 DUP5 ADD PUSH3 0x23E JUMP JUMPDEST SWAP1 POP SWAP3 POP SWAP3 SWAP1 POP JUMP JUMPDEST PUSH1 0x80 MLOAD PUSH1 0xA0 MLOAD PUSH2 0x16E4 PUSH3 0x2DC PUSH1 0x0 CODECOPY PUSH1 0x0 DUP2 DUP2 PUSH2 0x432 ADD MSTORE DUP2 DUP2 PUSH2 0x6A3 ADD MSTORE DUP2 DUP2 PUSH2 0x7CB ADD MSTORE PUSH2 0xF19 ADD MSTORE PUSH1 0x0 DUP2 DUP2 PUSH2 0x47C ADD MSTORE DUP2 DUP2 PUSH2 0x1178 ADD MSTORE PUSH2 0x1267 ADD MSTORE PUSH2 0x16E4 PUSH1 0x0 RETURN INVALID PUSH1 0x80 PUSH1 0x40 MSTORE CALLVALUE DUP1 ISZERO PUSH2 0x10 JUMPI PUSH1 0x0 DUP1 REVERT JUMPDEST POP PUSH1 0x4 CALLDATASIZE LT PUSH2 0x206 JUMPI PUSH1 0x0 CALLDATALOAD PUSH1 0xE0 SHR DUP1 PUSH4 0x95BF1653 GT PUSH2 0x11A JUMPI DUP1 PUSH4 0xC9EDE793 GT PUSH2 0xAD JUMPI DUP1 PUSH4 0xD35CDE41 GT PUSH2 0x7C JUMPI DUP1 PUSH4 0xD35CDE41 EQ PUSH2 0x56B JUMPI DUP1 PUSH4 0xEFF7318D EQ PUSH2 0x573 JUMPI DUP1 PUSH4 0xF01FC57C EQ PUSH2 0x588 JUMPI DUP1 PUSH4 0xF2FDE38B EQ PUSH2 0x596 JUMPI DUP1 PUSH4 0xFAE92612 EQ PUSH2 0x5A9 JUMPI PUSH1 0x0 DUP1 REVERT JUMPDEST DUP1 PUSH4 0xC9EDE793 EQ PUSH2 0x509 JUMPI DUP1 PUSH4 0xD0FEBE4C EQ PUSH2 0x511 JUMPI DUP1 PUSH4 0xD139F56D EQ PUSH2 0x519 JUMPI DUP1 PUSH4 0xD1D04E1F EQ PUSH2 0x545 JUMPI PUSH1 0x0 DUP1 REVERT JUMPDEST DUP1 PUSH4 0xA98B9144 GT PUSH2 0xE9 JUMPI DUP1 PUSH4 0xA98B9144 EQ PUSH2 0x49E JUMPI DUP1 PUSH4 0xB9F9231A EQ PUSH2 0x4B1 JUMPI DUP1 PUSH4 0xC556FECA EQ PUSH2 0x4C4 JUMPI DUP1 PUSH4 0xC828371E EQ PUSH2 0x4F0 JUMPI PUSH1 0x0 DUP1 REVERT JUMPDEST DUP1 PUSH4 0x95BF1653 EQ PUSH2 0x40D JUMPI DUP1 PUSH4 0x9769F0B0 EQ PUSH2 0x42D JUMPI DUP1 PUSH4 0x9E2A0418 EQ PUSH2 0x454 JUMPI DUP1 PUSH4 0xA98AD46C EQ PUSH2 0x477 JUMPI PUSH1 0x0 DUP1 REVERT JUMPDEST DUP1 PUSH4 0x6531E61C GT PUSH2 0x19D JUMPI DUP1 PUSH4 0x88AF60C6 GT PUSH2 0x16C JUMPI DUP1 PUSH4 0x88AF60C6 EQ PUSH2 0x3A3 JUMPI DUP1 PUSH4 0x8DA5CB5B EQ PUSH2 0x3B6 JUMPI DUP1 PUSH4 0x9018C818 EQ PUSH2 0x3C7 JUMPI DUP1 PUSH4 0x90F5881A EQ PUSH2 0x3DA JUMPI DUP1 PUSH4 0x95623641 EQ PUSH2 0x3FA JUMPI PUSH1 0x0 DUP1 REVERT JUMPDEST DUP1 PUSH4 0x6531E61C EQ PUSH2 0x34D JUMPI DUP1 PUSH4 0x715018A6 EQ PUSH2 0x360 JUMPI DUP1 PUSH4 0x78EB6C6F EQ PUSH2 0x368 JUMPI DUP1 PUSH4 0x8568F4CE EQ PUSH2 0x37A JUMPI PUSH1 0x0 DUP1 REVERT JUMPDEST DUP1 PUSH4 0x304D8DEA GT PUSH2 0x1D9 JUMPI DUP1 PUSH4 0x304D8DEA EQ PUSH2 0x2CD JUMPI DUP1 PUSH4 0x374EEDEF EQ PUSH2 0x2D5 JUMPI DUP1 PUSH4 0x3D719DA7 EQ PUSH2 0x311 JUMPI DUP1 PUSH4 0x439F5AC2 EQ PUSH2 0x334 JUMPI PUSH1 0x0 DUP1 REVERT JUMPDEST DUP1 PUSH4 0x27734FA EQ PUSH2 0x20B JUMPI DUP1 PUSH4 0x3D7424D EQ PUSH2 0x23B JUMPI DUP1 PUSH4 0x1EB43F1A EQ PUSH2 0x266 JUMPI DUP1 PUSH4 0x271F88B4 EQ PUSH2 0x2B8 JUMPI JUMPDEST PUSH1 0x0 DUP1 REVERT JUMPDEST PUSH1 0x2 SLOAD PUSH2 0x21E SWAP1 PUSH1 0x1 PUSH1 0x1 PUSH1 0xA0 SHL SUB AND DUP2 JUMP JUMPDEST PUSH1 0x40 MLOAD PUSH1 0x1 PUSH1 0x1 PUSH1 0xA0 SHL SUB SWAP1 SWAP2 AND DUP2 MSTORE PUSH1 0x20 ADD JUMPDEST PUSH1 0x40 MLOAD DUP1 SWAP2 SUB SWAP1 RETURN JUMPDEST PUSH1 0x7 SLOAD PUSH5 0x100000000 SWAP1 DIV PUSH4 0xFFFFFFFF AND JUMPDEST PUSH1 0x40 MLOAD PUSH8 0xFFFFFFFFFFFFFFFF SWAP1 SWAP2 AND DUP2 MSTORE PUSH1 0x20 ADD PUSH2 0x232 JUMP JUMPDEST PUSH2 0x299 PUSH2 0x274 CALLDATASIZE PUSH1 0x4 PUSH2 0x1485 JUMP JUMPDEST PUSH1 0x8 PUSH1 0x20 MSTORE PUSH1 0x0 SWAP1 DUP2 MSTORE PUSH1 0x40 SWAP1 KECCAK256 DUP1 SLOAD PUSH1 0x2 SWAP1 SWAP2 ADD SLOAD PUSH1 0x1 PUSH1 0x1 PUSH1 0xA0 SHL SUB SWAP1 SWAP2 AND SWAP1 DUP3 JUMP JUMPDEST PUSH1 0x40 DUP1 MLOAD PUSH1 0x1 PUSH1 0x1 PUSH1 0xA0 SHL SUB SWAP1 SWAP4 AND DUP4 MSTORE PUSH1 0x20 DUP4 ADD SWAP2 SWAP1 SWAP2 MSTORE ADD PUSH2 0x232 JUMP JUMPDEST PUSH2 0x2CB PUSH2 0x2C6 CALLDATASIZE PUSH1 0x4 PUSH2 0x14A0 JUMP JUMPDEST PUSH2 0x5BC JUMP JUMPDEST STOP JUMPDEST PUSH2 0x2CB PUSH2 0x5F4 JUMP JUMPDEST PUSH2 0x301 PUSH2 0x2E3 CALLDATASIZE PUSH1 0x4 PUSH2 0x1485 JUMP JUMPDEST PUSH1 0x1 PUSH1 0x1 PUSH1 0xA0 SHL SUB AND PUSH1 0x0 SWAP1 DUP2 MSTORE PUSH1 0xB PUSH1 0x20 MSTORE PUSH1 0x40 SWAP1 KECCAK256 SLOAD PUSH1 0xFF AND SWAP1 JUMP JUMPDEST PUSH1 0x40 MLOAD SWAP1 ISZERO ISZERO DUP2 MSTORE PUSH1 0x20 ADD PUSH2 0x232 JUMP JUMPDEST PUSH2 0x301 PUSH2 0x31F CALLDATASIZE PUSH1 0x4 PUSH2 0x1485 JUMP JUMPDEST PUSH1 0xB PUSH1 0x20 MSTORE PUSH1 0x0 SWAP1 DUP2 MSTORE PUSH1 0x40 SWAP1 KECCAK256 SLOAD PUSH1 0xFF AND DUP2 JUMP JUMPDEST PUSH1 0x7 SLOAD PUSH1 0x1 PUSH1 0xC0 SHL SWAP1 DIV PUSH8 0xFFFFFFFFFFFFFFFF AND PUSH2 0x24D JUMP JUMPDEST PUSH2 0x2CB PUSH2 0x35B CALLDATASIZE PUSH1 0x4 PUSH2 0x14A0 JUMP JUMPDEST PUSH2 0x782 JUMP JUMPDEST PUSH2 0x2CB PUSH2 0x863 JUMP JUMPDEST PUSH1 0x5 SLOAD JUMPDEST PUSH1 0x40 MLOAD SWAP1 DUP2 MSTORE PUSH1 0x20 ADD PUSH2 0x232 JUMP JUMPDEST PUSH2 0x36C PUSH2 0x388 CALLDATASIZE PUSH1 0x4 PUSH2 0x1485 JUMP JUMPDEST PUSH1 0x1 PUSH1 0x1 PUSH1 0xA0 SHL SUB AND PUSH1 0x0 SWAP1 DUP2 MSTORE PUSH1 0x9 PUSH1 0x20 MSTORE PUSH1 0x40 SWAP1 KECCAK256 SLOAD SWAP1 JUMP JUMPDEST PUSH1 0x1 SLOAD PUSH2 0x21E SWAP1 PUSH1 0x1 PUSH1 0x1 PUSH1 0xA0 SHL SUB AND DUP2 JUMP JUMPDEST PUSH1 0x0 SLOAD PUSH1 0x1 PUSH1 0x1 PUSH1 0xA0 SHL SUB AND PUSH2 0x21E JUMP JUMPDEST PUSH2 0x301 PUSH2 0x3D5 CALLDATASIZE PUSH1 0x4 PUSH2 0x1485 JUMP JUMPDEST PUSH2 0x899 JUMP JUMPDEST PUSH2 0x36C PUSH2 0x3E8 CALLDATASIZE PUSH1 0x4 PUSH2 0x1485 JUMP JUMPDEST PUSH1 0x9 PUSH1 0x20 MSTORE PUSH1 0x0 SWAP1 DUP2 MSTORE PUSH1 0x40 SWAP1 KECCAK256 SLOAD DUP2 JUMP JUMPDEST PUSH1 0x3 SLOAD PUSH2 0x21E SWAP1 PUSH1 0x1 PUSH1 0x1 PUSH1 0xA0 SHL SUB AND DUP2 JUMP JUMPDEST PUSH2 0x420 PUSH2 0x41B CALLDATASIZE PUSH1 0x4 PUSH2 0x14B9 JUMP JUMPDEST PUSH2 0xBFA JUMP JUMPDEST PUSH1 0x40 MLOAD PUSH2 0x232 SWAP2 SWAP1 PUSH2 0x14EC JUMP JUMPDEST PUSH2 0x21E PUSH32 0x0 DUP2 JUMP JUMPDEST PUSH2 0x301 PUSH2 0x462 CALLDATASIZE PUSH1 0x4 PUSH2 0x1485 JUMP JUMPDEST PUSH1 0xA PUSH1 0x20 MSTORE PUSH1 0x0 SWAP1 DUP2 MSTORE PUSH1 0x40 SWAP1 KECCAK256 SLOAD PUSH1 0xFF AND DUP2 JUMP JUMPDEST PUSH2 0x21E PUSH32 0x0 DUP2 JUMP JUMPDEST PUSH2 0x420 PUSH2 0x4AC CALLDATASIZE PUSH1 0x4 PUSH2 0x1485 JUMP JUMPDEST PUSH2 0xD85 JUMP JUMPDEST PUSH2 0x36C PUSH2 0x4BF CALLDATASIZE PUSH1 0x4 PUSH2 0x1485 JUMP JUMPDEST PUSH2 0xDFE JUMP JUMPDEST PUSH2 0x36C PUSH2 0x4D2 CALLDATASIZE PUSH1 0x4 PUSH2 0x1485 JUMP JUMPDEST PUSH1 0x1 PUSH1 0x1 PUSH1 0xA0 SHL SUB AND PUSH1 0x0 SWAP1 DUP2 MSTORE PUSH1 0x8 PUSH1 0x20 MSTORE PUSH1 0x40 SWAP1 KECCAK256 PUSH1 0x1 ADD SLOAD SWAP1 JUMP JUMPDEST PUSH1 0x7 SLOAD PUSH1 0x1 PUSH1 0x80 SHL SWAP1 DIV PUSH8 0xFFFFFFFFFFFFFFFF AND PUSH2 0x24D JUMP JUMPDEST PUSH2 0x2CB PUSH2 0xE47 JUMP JUMPDEST PUSH2 0x2CB PUSH2 0xFFD JUMP JUMPDEST PUSH2 0x21E PUSH2 0x527 CALLDATASIZE PUSH1 0x4 PUSH2 0x1485 JUMP JUMPDEST PUSH1 0x1 PUSH1 0x1 PUSH1 0xA0 SHL SUB SWAP1 DUP2 AND PUSH1 0x0 SWAP1 DUP2 MSTORE PUSH1 0x8 PUSH1 0x20 MSTORE PUSH1 0x40 SWAP1 KECCAK256 SLOAD AND SWAP1 JUMP JUMPDEST PUSH1 0x7 SLOAD PUSH1 0x1 PUSH1 0x60 SHL SWAP1 DIV PUSH4 0xFFFFFFFF AND JUMPDEST PUSH1 0x40 MLOAD PUSH4 0xFFFFFFFF SWAP1 SWAP2 AND DUP2 MSTORE PUSH1 0x20 ADD PUSH2 0x232 JUMP JUMPDEST PUSH1 0x4 SLOAD PUSH2 0x36C JUMP JUMPDEST PUSH1 0x7 SLOAD PUSH1 0x1 PUSH1 0x40 SHL SWAP1 DIV PUSH4 0xFFFFFFFF AND PUSH2 0x556 JUMP JUMPDEST PUSH1 0x7 SLOAD PUSH4 0xFFFFFFFF AND PUSH2 0x24D JUMP JUMPDEST PUSH2 0x2CB PUSH2 0x5A4 CALLDATASIZE PUSH1 0x4 PUSH2 0x1485 JUMP JUMPDEST PUSH2 0x1332 JUMP JUMPDEST PUSH2 0x2CB PUSH2 0x5B7 CALLDATASIZE PUSH1 0x4 PUSH2 0x1485 JUMP JUMPDEST PUSH2 0x13CD JUMP JUMPDEST PUSH1 0x0 SLOAD PUSH1 0x1 PUSH1 0x1 PUSH1 0xA0 SHL SUB AND CALLER EQ PUSH2 0x5EF JUMPI PUSH1 0x40 MLOAD PUSH3 0x461BCD PUSH1 0xE5 SHL DUP2 MSTORE PUSH1 0x4 ADD PUSH2 0x5E6 SWAP1 PUSH2 0x1539 JUMP JUMPDEST PUSH1 0x40 MLOAD DUP1 SWAP2 SUB SWAP1 REVERT JUMPDEST PUSH1 0x4 SSTORE JUMP JUMPDEST PUSH1 0x7 SLOAD TIMESTAMP PUSH1 0x1 PUSH1 0xC0 SHL SWAP1 SWAP2 DIV PUSH8 0xFFFFFFFFFFFFFFFF AND LT PUSH2 0x649 JUMPI PUSH1 0x40 MLOAD PUSH3 0x461BCD PUSH1 0xE5 SHL DUP2 MSTORE PUSH1 0x20 PUSH1 0x4 DUP3 ADD MSTORE PUSH1 0xF PUSH1 0x24 DUP3 ADD MSTORE PUSH15 0x1C1C995CD95B1B081B9BDD08195B99 PUSH1 0x8A SHL PUSH1 0x44 DUP3 ADD MSTORE PUSH1 0x64 ADD PUSH2 0x5E6 JUMP JUMPDEST CALLER PUSH1 0x0 SWAP1 DUP2 MSTORE PUSH1 0xA PUSH1 0x20 MSTORE PUSH1 0x40 SWAP1 KECCAK256 SLOAD PUSH1 0xFF AND ISZERO ISZERO PUSH1 0x1 EQ PUSH2 0x69F JUMPI PUSH1 0x40 MLOAD PUSH3 0x461BCD PUSH1 0xE5 SHL DUP2 MSTORE PUSH1 0x20 PUSH1 0x4 DUP3 ADD MSTORE PUSH1 0xF PUSH1 0x24 DUP3 ADD MSTORE PUSH15 0x75736572206E6F7420696E76697465 PUSH1 0x88 SHL PUSH1 0x44 DUP3 ADD MSTORE PUSH1 0x64 ADD PUSH2 0x5E6 JUMP JUMPDEST PUSH1 0x0 PUSH32 0x0 PUSH1 0x1 PUSH1 0x1 PUSH1 0xA0 SHL SUB AND PUSH4 0xA9059CBB CALLER PUSH2 0x6DA CALLER PUSH2 0xDFE JUMP JUMPDEST PUSH1 0x40 MLOAD PUSH1 0x1 PUSH1 0x1 PUSH1 0xE0 SHL SUB NOT PUSH1 0xE0 DUP6 SWAP1 SHL AND DUP2 MSTORE PUSH1 0x1 PUSH1 0x1 PUSH1 0xA0 SHL SUB SWAP1 SWAP3 AND PUSH1 0x4 DUP4 ADD MSTORE PUSH1 0x24 DUP3 ADD MSTORE PUSH1 0x44 ADD PUSH1 0x20 PUSH1 0x40 MLOAD DUP1 DUP4 SUB DUP2 PUSH1 0x0 DUP8 GAS CALL ISZERO DUP1 ISZERO PUSH2 0x725 JUMPI RETURNDATASIZE PUSH1 0x0 DUP1 RETURNDATACOPY RETURNDATASIZE PUSH1 0x0 REVERT JUMPDEST POP POP POP POP PUSH1 0x40 MLOAD RETURNDATASIZE PUSH1 0x1F NOT PUSH1 0x1F DUP3 ADD AND DUP3 ADD DUP1 PUSH1 0x40 MSTORE POP DUP2 ADD SWAP1 PUSH2 0x749 SWAP2 SWAP1 PUSH2 0x156E JUMP JUMPDEST SWAP1 POP DUP1 PUSH2 0x768 JUMPI PUSH1 0x40 MLOAD PUSH3 0x461BCD PUSH1 0xE5 SHL DUP2 MSTORE PUSH1 0x4 ADD PUSH2 0x5E6 SWAP1 PUSH2 0x1590 JUMP JUMPDEST POP CALLER PUSH1 0x0 SWAP1 DUP2 MSTORE PUSH1 0xA PUSH1 0x20 MSTORE PUSH1 0x40 SWAP1 KECCAK256 DUP1 SLOAD PUSH1 0xFF NOT AND SWAP1 SSTORE JUMP JUMPDEST PUSH1 0x0 SLOAD PUSH1 0x1 PUSH1 0x1 PUSH1 0xA0 SHL SUB AND CALLER EQ PUSH2 0x7AC JUMPI PUSH1 0x40 MLOAD PUSH3 0x461BCD PUSH1 0xE5 SHL DUP2 MSTORE PUSH1 0x4 ADD PUSH2 0x5E6 SWAP1 PUSH2 0x1539 JUMP JUMPDEST PUSH1 0x40 MLOAD PUSH4 0xA9059CBB PUSH1 0xE0 SHL DUP2 MSTORE CALLER PUSH1 0x4 DUP3 ADD MSTORE PUSH1 0x24 DUP2 ADD DUP3 SWAP1 MSTORE PUSH1 0x0 SWAP1 PUSH32 0x0 PUSH1 0x1 PUSH1 0x1 PUSH1 0xA0 SHL SUB AND SWAP1 PUSH4 0xA9059CBB SWAP1 PUSH1 0x44 ADD PUSH1 0x20 PUSH1 0x40 MLOAD DUP1 DUP4 SUB DUP2 PUSH1 0x0 DUP8 GAS CALL ISZERO DUP1 ISZERO PUSH2 0x81C JUMPI RETURNDATASIZE PUSH1 0x0 DUP1 RETURNDATACOPY RETURNDATASIZE PUSH1 0x0 REVERT JUMPDEST POP POP POP POP PUSH1 0x40 MLOAD RETURNDATASIZE PUSH1 0x1F NOT PUSH1 0x1F DUP3 ADD AND DUP3 ADD DUP1 PUSH1 0x40 MSTORE POP DUP2 ADD SWAP1 PUSH2 0x840 SWAP2 SWAP1 PUSH2 0x156E JUMP JUMPDEST SWAP1 POP DUP1 PUSH2 0x85F JUMPI PUSH1 0x40 MLOAD PUSH3 0x461BCD PUSH1 0xE5 SHL DUP2 MSTORE PUSH1 0x4 ADD PUSH2 0x5E6 SWAP1 PUSH2 0x1590 JUMP JUMPDEST POP POP JUMP JUMPDEST PUSH1 0x0 SLOAD PUSH1 0x1 PUSH1 0x1 PUSH1 0xA0 SHL SUB AND CALLER EQ PUSH2 0x88D JUMPI PUSH1 0x40 MLOAD PUSH3 0x461BCD PUSH1 0xE5 SHL DUP2 MSTORE PUSH1 0x4 ADD PUSH2 0x5E6 SWAP1 PUSH2 0x1539 JUMP JUMPDEST PUSH2 0x897 PUSH1 0x0 PUSH2 0x1419 JUMP JUMPDEST JUMP JUMPDEST PUSH1 0x7 SLOAD PUSH1 0x0 SWAP1 TIMESTAMP PUSH1 0x1 PUSH1 0x80 SHL SWAP1 SWAP2 DIV PUSH8 0xFFFFFFFFFFFFFFFF AND LT PUSH2 0x8EB JUMPI PUSH1 0x40 MLOAD PUSH3 0x461BCD PUSH1 0xE5 SHL DUP2 MSTORE PUSH1 0x20 PUSH1 0x4 DUP3 ADD MSTORE PUSH1 0x9 PUSH1 0x24 DUP3 ADD MSTORE PUSH9 0x1B9BDD081CDD185C9D PUSH1 0xBA SHL PUSH1 0x44 DUP3 ADD MSTORE PUSH1 0x64 ADD PUSH2 0x5E6 JUMP JUMPDEST PUSH1 0x7 SLOAD TIMESTAMP PUSH1 0x1 PUSH1 0xC0 SHL SWAP1 SWAP2 DIV PUSH8 0xFFFFFFFFFFFFFFFF AND GT PUSH2 0x938 JUMPI PUSH1 0x40 MLOAD PUSH3 0x461BCD PUSH1 0xE5 SHL DUP2 MSTORE PUSH1 0x20 PUSH1 0x4 DUP3 ADD MSTORE PUSH1 0x7 PUSH1 0x24 DUP3 ADD MSTORE PUSH7 0x1A185CC8195B99 PUSH1 0xCA SHL PUSH1 0x44 DUP3 ADD MSTORE PUSH1 0x64 ADD PUSH2 0x5E6 JUMP JUMPDEST PUSH1 0x1 PUSH1 0x1 PUSH1 0xA0 SHL SUB DUP3 AND PUSH1 0x0 SWAP1 DUP2 MSTORE PUSH1 0xB PUSH1 0x20 MSTORE PUSH1 0x40 SWAP1 KECCAK256 SLOAD PUSH1 0xFF AND PUSH2 0x994 JUMPI PUSH1 0x40 MLOAD PUSH3 0x461BCD PUSH1 0xE5 SHL DUP2 MSTORE PUSH1 0x20 PUSH1 0x4 DUP3 ADD MSTORE PUSH1 0x11 PUSH1 0x24 DUP3 ADD MSTORE PUSH17 0x4265653A7570706572206E6F7420627579 PUSH1 0x78 SHL PUSH1 0x44 DUP3 ADD MSTORE PUSH1 0x64 ADD PUSH2 0x5E6 JUMP JUMPDEST CALLER PUSH1 0x0 SWAP1 DUP2 MSTORE PUSH1 0xB PUSH1 0x20 MSTORE PUSH1 0x40 SWAP1 KECCAK256 SLOAD PUSH1 0xFF AND PUSH2 0x9E6 JUMPI PUSH1 0x40 MLOAD PUSH3 0x461BCD PUSH1 0xE5 SHL DUP2 MSTORE PUSH1 0x20 PUSH1 0x4 DUP3 ADD MSTORE PUSH1 0x10 PUSH1 0x24 DUP3 ADD MSTORE PUSH16 0x4265653A75736572206E6F7420627579 PUSH1 0x80 SHL PUSH1 0x44 DUP3 ADD MSTORE PUSH1 0x64 ADD PUSH2 0x5E6 JUMP JUMPDEST PUSH1 0x1 PUSH1 0x1 PUSH1 0xA0 SHL SUB DUP3 AND CALLER SUB PUSH2 0xA2E JUMPI PUSH1 0x40 MLOAD PUSH3 0x461BCD PUSH1 0xE5 SHL DUP2 MSTORE PUSH1 0x20 PUSH1 0x4 DUP3 ADD MSTORE PUSH1 0xD PUSH1 0x24 DUP3 ADD MSTORE PUSH13 0x2132B29D2327A92124A22222A7 PUSH1 0x99 SHL PUSH1 0x44 DUP3 ADD MSTORE PUSH1 0x64 ADD PUSH2 0x5E6 JUMP JUMPDEST CALLER PUSH1 0x0 DUP2 DUP2 MSTORE PUSH1 0x8 PUSH1 0x20 MSTORE PUSH1 0x40 DUP1 DUP3 KECCAK256 PUSH1 0x1 PUSH1 0x1 PUSH1 0xA0 SHL SUB DUP7 DUP2 AND DUP5 MSTORE SWAP2 SWAP1 SWAP3 KECCAK256 DUP1 SLOAD SWAP3 SWAP4 SWAP1 SWAP3 SWAP1 SWAP2 AND SUB PUSH2 0xAB0 JUMPI PUSH1 0x40 MLOAD PUSH3 0x461BCD PUSH1 0xE5 SHL DUP2 MSTORE PUSH1 0x20 PUSH1 0x4 DUP3 ADD MSTORE PUSH1 0x22 PUSH1 0x24 DUP3 ADD MSTORE PUSH32 0x54686520696E76697465722069732061206C6F77657220746F20746865207573 PUSH1 0x44 DUP3 ADD MSTORE PUSH2 0x32B9 PUSH1 0xF1 SHL PUSH1 0x64 DUP3 ADD MSTORE PUSH1 0x84 ADD PUSH2 0x5E6 JUMP JUMPDEST DUP2 SLOAD PUSH1 0x1 PUSH1 0x1 PUSH1 0xA0 SHL SUB DUP1 DUP7 AND SWAP2 AND SUB PUSH2 0xB02 JUMPI PUSH1 0x40 MLOAD PUSH3 0x461BCD PUSH1 0xE5 SHL DUP2 MSTORE PUSH1 0x20 PUSH1 0x4 DUP3 ADD MSTORE PUSH1 0x13 PUSH1 0x24 DUP3 ADD MSTORE PUSH19 0x2932B832B0BA32B21034B73B34BA30BA34B7B7 PUSH1 0x69 SHL PUSH1 0x44 DUP3 ADD MSTORE PUSH1 0x64 ADD PUSH2 0x5E6 JUMP JUMPDEST DUP2 SLOAD PUSH1 0x1 PUSH1 0x1 PUSH1 0xA0 SHL SUB AND ISZERO PUSH2 0xB51 JUMPI PUSH1 0x40 MLOAD PUSH3 0x461BCD PUSH1 0xE5 SHL DUP2 MSTORE PUSH1 0x20 PUSH1 0x4 DUP3 ADD MSTORE PUSH1 0x14 PUSH1 0x24 DUP3 ADD MSTORE PUSH20 0x20B63932B0B23C903430BB329030903AB83832B9 PUSH1 0x61 SHL PUSH1 0x44 DUP3 ADD MSTORE PUSH1 0x64 ADD PUSH2 0x5E6 JUMP JUMPDEST DUP2 SLOAD PUSH1 0x1 PUSH1 0x1 PUSH1 0xA0 SHL SUB DUP6 AND PUSH1 0x1 PUSH1 0x1 PUSH1 0xA0 SHL SUB NOT SWAP2 DUP3 AND DUP2 OR DUP5 SSTORE NUMBER PUSH1 0x2 DUP1 DUP7 ADD DUP3 SWAP1 SSTORE DUP5 ADD SSTORE PUSH1 0x1 DUP4 DUP2 ADD DUP1 SLOAD DUP1 DUP4 ADD DUP3 SSTORE PUSH1 0x0 SWAP2 DUP3 MSTORE PUSH1 0x20 DUP1 DUP4 KECCAK256 SWAP1 SWAP2 ADD DUP1 SLOAD SWAP1 SWAP6 AND CALLER OR SWAP1 SWAP5 SSTORE SWAP2 DUP3 MSTORE PUSH1 0xA SWAP1 SWAP3 MSTORE PUSH1 0x40 SWAP1 KECCAK256 DUP1 SLOAD PUSH1 0xFF NOT AND SWAP1 SWAP2 OR SWAP1 SSTORE PUSH1 0x7 DUP1 SLOAD PUSH1 0x8 SWAP1 PUSH2 0xBD1 SWAP1 PUSH4 0xFFFFFFFF PUSH1 0x1 PUSH1 0x40 SHL SWAP1 SWAP2 DIV AND PUSH2 0x15D5 JUMP JUMPDEST SWAP2 SWAP1 PUSH2 0x100 EXP DUP2 SLOAD DUP2 PUSH4 0xFFFFFFFF MUL NOT AND SWAP1 DUP4 PUSH4 0xFFFFFFFF AND MUL OR SWAP1 SSTORE POP PUSH1 0x1 SWAP3 POP POP POP SWAP2 SWAP1 POP JUMP JUMPDEST PUSH1 0x1 PUSH1 0x1 PUSH1 0xA0 SHL SUB DUP4 AND PUSH1 0x0 SWAP1 DUP2 MSTORE PUSH1 0x8 PUSH1 0x20 MSTORE PUSH1 0x40 SWAP1 KECCAK256 PUSH1 0x1 ADD DUP1 SLOAD PUSH1 0x60 SWAP2 SWAP1 DUP1 ISZERO PUSH2 0xD6A JUMPI DUP4 DUP6 LT DUP1 ISZERO PUSH2 0xC2F JUMPI POP DUP1 DUP6 LT JUMPDEST DUP1 ISZERO PUSH2 0xC3B JUMPI POP DUP1 DUP5 GT ISZERO JUMPDEST PUSH2 0xC87 JUMPI PUSH1 0x40 MLOAD PUSH3 0x461BCD PUSH1 0xE5 SHL DUP2 MSTORE PUSH1 0x20 PUSH1 0x4 DUP3 ADD MSTORE PUSH1 0x1C PUSH1 0x24 DUP3 ADD MSTORE PUSH32 0x6C6F776572206974657261746F72206F7574206F662072616E67652E00000000 PUSH1 0x44 DUP3 ADD MSTORE PUSH1 0x64 ADD PUSH2 0x5E6 JUMP JUMPDEST PUSH1 0x0 PUSH2 0xC93 DUP7 DUP7 PUSH2 0x15F8 JUMP JUMPDEST PUSH8 0xFFFFFFFFFFFFFFFF DUP2 GT ISZERO PUSH2 0xCAB JUMPI PUSH2 0xCAB PUSH2 0x160F JUMP JUMPDEST PUSH1 0x40 MLOAD SWAP1 DUP1 DUP3 MSTORE DUP1 PUSH1 0x20 MUL PUSH1 0x20 ADD DUP3 ADD PUSH1 0x40 MSTORE DUP1 ISZERO PUSH2 0xCD4 JUMPI DUP2 PUSH1 0x20 ADD PUSH1 0x20 DUP3 MUL DUP1 CALLDATASIZE DUP4 CALLDATACOPY ADD SWAP1 POP JUMPDEST POP SWAP1 POP PUSH1 0x0 DUP7 JUMPDEST DUP7 DUP2 LT ISZERO PUSH2 0xD5D JUMPI DUP5 DUP2 DUP2 SLOAD DUP2 LT PUSH2 0xCF5 JUMPI PUSH2 0xCF5 PUSH2 0x1625 JUMP JUMPDEST SWAP1 PUSH1 0x0 MSTORE PUSH1 0x20 PUSH1 0x0 KECCAK256 ADD PUSH1 0x0 SWAP1 SLOAD SWAP1 PUSH2 0x100 EXP SWAP1 DIV PUSH1 0x1 PUSH1 0x1 PUSH1 0xA0 SHL SUB AND DUP4 DUP4 DUP2 MLOAD DUP2 LT PUSH2 0xD25 JUMPI PUSH2 0xD25 PUSH2 0x1625 JUMP JUMPDEST PUSH1 0x1 PUSH1 0x1 PUSH1 0xA0 SHL SUB SWAP1 SWAP3 AND PUSH1 0x20 SWAP3 DUP4 MUL SWAP2 SWAP1 SWAP2 ADD SWAP1 SWAP2 ADD MSTORE DUP2 PUSH2 0xD47 DUP2 PUSH2 0x163B JUMP JUMPDEST SWAP3 POP POP DUP1 DUP1 PUSH2 0xD55 SWAP1 PUSH2 0x163B JUMP JUMPDEST SWAP2 POP POP PUSH2 0xCDB JUMP JUMPDEST POP DUP2 SWAP5 POP POP POP POP POP PUSH2 0xD7E JUMP JUMPDEST POP POP PUSH1 0x40 DUP1 MLOAD PUSH1 0x0 DUP2 MSTORE PUSH1 0x20 DUP2 ADD SWAP1 SWAP2 MSTORE SWAP1 POP JUMPDEST SWAP4 SWAP3 POP POP POP JUMP JUMPDEST PUSH1 0x1 PUSH1 0x1 PUSH1 0xA0 SHL SUB DUP2 AND PUSH1 0x0 SWAP1 DUP2 MSTORE PUSH1 0x8 PUSH1 0x20 SWAP1 DUP2 MSTORE PUSH1 0x40 SWAP2 DUP3 SWAP1 KECCAK256 PUSH1 0x1 ADD DUP1 SLOAD DUP4 MLOAD DUP2 DUP5 MUL DUP2 ADD DUP5 ADD SWAP1 SWAP5 MSTORE DUP1 DUP5 MSTORE PUSH1 0x60 SWAP4 SWAP3 DUP4 ADD DUP3 DUP3 DUP1 ISZERO PUSH2 0xDF2 JUMPI PUSH1 0x20 MUL DUP3 ADD SWAP2 SWAP1 PUSH1 0x0 MSTORE PUSH1 0x20 PUSH1 0x0 KECCAK256 SWAP1 JUMPDEST DUP2 SLOAD PUSH1 0x1 PUSH1 0x1 PUSH1 0xA0 SHL SUB AND DUP2 MSTORE PUSH1 0x1 SWAP1 SWAP2 ADD SWAP1 PUSH1 0x20 ADD DUP1 DUP4 GT PUSH2 0xDD4 JUMPI JUMPDEST POP POP POP POP POP SWAP1 POP SWAP2 SWAP1 POP JUMP JUMPDEST PUSH1 0x1 PUSH1 0x1 PUSH1 0xA0 SHL SUB DUP2 AND PUSH1 0x0 SWAP1 DUP2 MSTORE PUSH1 0x8 PUSH1 0x20 MSTORE PUSH1 0x40 DUP2 KECCAK256 PUSH1 0x1 ADD SLOAD PUSH1 0x7 SLOAD PUSH1 0x6 SLOAD PUSH2 0xE37 SWAP2 PUSH1 0x1 PUSH1 0x40 SHL SWAP1 DIV PUSH4 0xFFFFFFFF AND SWAP1 PUSH2 0x1654 JUMP JUMPDEST PUSH2 0xE41 SWAP2 SWAP1 PUSH2 0x1676 JUMP JUMPDEST SWAP3 SWAP2 POP POP JUMP JUMPDEST PUSH1 0x7 SLOAD TIMESTAMP PUSH1 0x1 PUSH1 0xC0 SHL SWAP1 SWAP2 DIV PUSH8 0xFFFFFFFFFFFFFFFF AND LT PUSH2 0xE9C JUMPI PUSH1 0x40 MLOAD PUSH3 0x461BCD PUSH1 0xE5 SHL DUP2 MSTORE PUSH1 0x20 PUSH1 0x4 DUP3 ADD MSTORE PUSH1 0xF PUSH1 0x24 DUP3 ADD MSTORE PUSH15 0x1C1C995CD95B1B081B9BDD08195B99 PUSH1 0x8A SHL PUSH1 0x44 DUP3 ADD MSTORE PUSH1 0x64 ADD PUSH2 0x5E6 JUMP JUMPDEST CALLER PUSH1 0x0 SWAP1 DUP2 MSTORE PUSH1 0x9 PUSH1 0x20 MSTORE PUSH1 0x40 SWAP1 KECCAK256 SLOAD PUSH2 0xEEC JUMPI PUSH1 0x40 MLOAD PUSH3 0x461BCD PUSH1 0xE5 SHL DUP2 MSTORE PUSH1 0x20 PUSH1 0x4 DUP3 ADD MSTORE PUSH1 0x11 PUSH1 0x24 DUP3 ADD MSTORE PUSH17 0x757365722062616C616E6365207A65726F PUSH1 0x78 SHL PUSH1 0x44 DUP3 ADD MSTORE PUSH1 0x64 ADD PUSH2 0x5E6 JUMP JUMPDEST CALLER PUSH1 0x0 DUP2 DUP2 MSTORE PUSH1 0x9 PUSH1 0x20 MSTORE PUSH1 0x40 DUP1 DUP3 KECCAK256 SLOAD SWAP1 MLOAD PUSH4 0xA9059CBB PUSH1 0xE0 SHL DUP2 MSTORE PUSH1 0x4 DUP2 ADD SWAP4 SWAP1 SWAP4 MSTORE PUSH1 0x24 DUP4 ADD MSTORE SWAP1 PUSH32 0x0 PUSH1 0x1 PUSH1 0x1 PUSH1 0xA0 SHL SUB AND SWAP1 PUSH4 0xA9059CBB SWAP1 PUSH1 0x44 ADD PUSH1 0x20 PUSH1 0x40 MLOAD DUP1 DUP4 SUB DUP2 PUSH1 0x0 DUP8 GAS CALL ISZERO DUP1 ISZERO PUSH2 0xF6A JUMPI RETURNDATASIZE PUSH1 0x0 DUP1 RETURNDATACOPY RETURNDATASIZE PUSH1 0x0 REVERT JUMPDEST POP POP POP POP PUSH1 0x40 MLOAD RETURNDATASIZE PUSH1 0x1F NOT PUSH1 0x1F DUP3 ADD AND DUP3 ADD DUP1 PUSH1 0x40 MSTORE POP DUP2 ADD SWAP1 PUSH2 0xF8E SWAP2 SWAP1 PUSH2 0x156E JUMP JUMPDEST SWAP1 POP DUP1 PUSH2 0xFAD JUMPI PUSH1 0x40 MLOAD PUSH3 0x461BCD PUSH1 0xE5 SHL DUP2 MSTORE PUSH1 0x4 ADD PUSH2 0x5E6 SWAP1 PUSH2 0x1590 JUMP JUMPDEST CALLER PUSH1 0x0 SWAP1 DUP2 MSTORE PUSH1 0x9 PUSH1 0x20 MSTORE PUSH1 0x40 DUP2 KECCAK256 SSTORE PUSH1 0x7 DUP1 SLOAD PUSH5 0x100000000 SWAP1 DIV PUSH4 0xFFFFFFFF AND SWAP1 PUSH1 0x4 PUSH2 0xFDB DUP4 PUSH2 0x15D5 JUMP JUMPDEST SWAP2 SWAP1 PUSH2 0x100 EXP DUP2 SLOAD DUP2 PUSH4 0xFFFFFFFF MUL NOT AND SWAP1 DUP4 PUSH4 0xFFFFFFFF AND MUL OR SWAP1 SSTORE POP POP POP JUMP JUMPDEST PUSH1 0x7 SLOAD TIMESTAMP PUSH1 0x1 PUSH1 0x80 SHL SWAP1 SWAP2 DIV PUSH8 0xFFFFFFFFFFFFFFFF AND LT PUSH2 0x104C JUMPI PUSH1 0x40 MLOAD PUSH3 0x461BCD PUSH1 0xE5 SHL DUP2 MSTORE PUSH1 0x20 PUSH1 0x4 DUP3 ADD MSTORE PUSH1 0x9 PUSH1 0x24 DUP3 ADD MSTORE PUSH9 0x1B9BDD081CDD185C9D PUSH1 0xBA SHL PUSH1 0x44 DUP3 ADD MSTORE PUSH1 0x64 ADD PUSH2 0x5E6 JUMP JUMPDEST PUSH1 0x7 SLOAD TIMESTAMP PUSH1 0x1 PUSH1 0xC0 SHL SWAP1 SWAP2 DIV PUSH8 0xFFFFFFFFFFFFFFFF AND GT PUSH2 0x1099 JUMPI PUSH1 0x40 MLOAD PUSH3 0x461BCD PUSH1 0xE5 SHL DUP2 MSTORE PUSH1 0x20 PUSH1 0x4 DUP3 ADD MSTORE PUSH1 0x7 PUSH1 0x24 DUP3 ADD MSTORE PUSH7 0x1A185CC8195B99 PUSH1 0xCA SHL PUSH1 0x44 DUP3 ADD MSTORE PUSH1 0x64 ADD PUSH2 0x5E6 JUMP JUMPDEST PUSH1 0x7 SLOAD PUSH4 0xFFFFFFFF PUSH1 0x1 PUSH1 0x60 SHL DUP3 DIV DUP2 AND SWAP2 AND GT ISZERO PUSH2 0x10FA JUMPI PUSH1 0x40 MLOAD PUSH3 0x461BCD PUSH1 0xE5 SHL DUP2 MSTORE PUSH1 0x20 PUSH1 0x4 DUP3 ADD MSTORE PUSH1 0x17 PUSH1 0x24 DUP3 ADD MSTORE PUSH32 0x5072652D6F72646572732061726520736F6C64206F7574000000000000000000 PUSH1 0x44 DUP3 ADD MSTORE PUSH1 0x64 ADD PUSH2 0x5E6 JUMP JUMPDEST CALLER PUSH1 0x0 SWAP1 DUP2 MSTORE PUSH1 0xB PUSH1 0x20 MSTORE PUSH1 0x40 SWAP1 KECCAK256 SLOAD PUSH1 0xFF AND ISZERO PUSH2 0x114E JUMPI PUSH1 0x40 MLOAD PUSH3 0x461BCD PUSH1 0xE5 SHL DUP2 MSTORE PUSH1 0x20 PUSH1 0x4 DUP3 ADD MSTORE PUSH1 0x11 PUSH1 0x24 DUP3 ADD MSTORE PUSH17 0x185B1C9958591E481C1D5C98DA185CD959 PUSH1 0x7A SHL PUSH1 0x44 DUP3 ADD MSTORE PUSH1 0x64 ADD PUSH2 0x5E6 JUMP JUMPDEST PUSH1 0x4 DUP1 SLOAD PUSH1 0x40 MLOAD PUSH4 0x6EB1769F PUSH1 0xE1 SHL DUP2 MSTORE CALLER SWAP3 DUP2 ADD SWAP3 SWAP1 SWAP3 MSTORE ADDRESS PUSH1 0x24 DUP4 ADD MSTORE SWAP1 PUSH1 0x1 PUSH1 0x1 PUSH1 0xA0 SHL SUB PUSH32 0x0 AND SWAP1 PUSH4 0xDD62ED3E SWAP1 PUSH1 0x44 ADD PUSH1 0x20 PUSH1 0x40 MLOAD DUP1 DUP4 SUB DUP2 DUP7 GAS STATICCALL ISZERO DUP1 ISZERO PUSH2 0x11BF JUMPI RETURNDATASIZE PUSH1 0x0 DUP1 RETURNDATACOPY RETURNDATASIZE PUSH1 0x0 REVERT JUMPDEST POP POP POP POP PUSH1 0x40 MLOAD RETURNDATASIZE PUSH1 0x1F NOT PUSH1 0x1F DUP3 ADD AND DUP3 ADD DUP1 PUSH1 0x40 MSTORE POP DUP2 ADD SWAP1 PUSH2 0x11E3 SWAP2 SWAP1 PUSH2 0x1695 JUMP JUMPDEST LT ISZERO PUSH2 0x1231 JUMPI PUSH1 0x40 MLOAD PUSH3 0x461BCD PUSH1 0xE5 SHL DUP2 MSTORE PUSH1 0x20 PUSH1 0x4 DUP3 ADD MSTORE PUSH1 0x1B PUSH1 0x24 DUP3 ADD MSTORE PUSH32 0x75736474546F6B656E20616C6C6F77616E636520746F6F206C6F770000000000 PUSH1 0x44 DUP3 ADD MSTORE PUSH1 0x64 ADD PUSH2 0x5E6 JUMP JUMPDEST PUSH1 0x3 SLOAD PUSH1 0x4 DUP1 SLOAD PUSH1 0x40 MLOAD PUSH4 0x23B872DD PUSH1 0xE0 SHL DUP2 MSTORE CALLER SWAP3 DUP2 ADD SWAP3 SWAP1 SWAP3 MSTORE PUSH1 0x1 PUSH1 0x1 PUSH1 0xA0 SHL SUB SWAP3 DUP4 AND PUSH1 0x24 DUP4 ADD MSTORE PUSH1 0x44 DUP3 ADD MSTORE PUSH1 0x0 SWAP2 PUSH32 0x0 AND SWAP1 PUSH4 0x23B872DD SWAP1 PUSH1 0x64 ADD PUSH1 0x20 PUSH1 0x40 MLOAD DUP1 DUP4 SUB DUP2 PUSH1 0x0 DUP8 GAS CALL ISZERO DUP1 ISZERO PUSH2 0x12B0 JUMPI RETURNDATASIZE PUSH1 0x0 DUP1 RETURNDATACOPY RETURNDATASIZE PUSH1 0x0 REVERT JUMPDEST POP POP POP POP PUSH1 0x40 MLOAD RETURNDATASIZE PUSH1 0x1F NOT PUSH1 0x1F DUP3 ADD AND DUP3 ADD DUP1 PUSH1 0x40 MSTORE POP DUP2 ADD SWAP1 PUSH2 0x12D4 SWAP2 SWAP1 PUSH2 0x156E JUMP JUMPDEST SWAP1 POP DUP1 PUSH2 0x12F3 JUMPI PUSH1 0x40 MLOAD PUSH3 0x461BCD PUSH1 0xE5 SHL DUP2 MSTORE PUSH1 0x4 ADD PUSH2 0x5E6 SWAP1 PUSH2 0x1590 JUMP JUMPDEST PUSH1 0x5 SLOAD CALLER PUSH1 0x0 SWAP1 DUP2 MSTORE PUSH1 0x9 PUSH1 0x20 SWAP1 DUP2 MSTORE PUSH1 0x40 DUP1 DUP4 KECCAK256 SWAP4 SWAP1 SWAP4 SSTORE PUSH1 0xB SWAP1 MSTORE SWAP1 DUP2 KECCAK256 DUP1 SLOAD PUSH1 0xFF NOT AND PUSH1 0x1 OR SWAP1 SSTORE PUSH1 0x7 DUP1 SLOAD PUSH4 0xFFFFFFFF AND SWAP2 PUSH2 0xFDB DUP4 PUSH2 0x15D5 JUMP JUMPDEST PUSH1 0x0 SLOAD PUSH1 0x1 PUSH1 0x1 PUSH1 0xA0 SHL SUB AND CALLER EQ PUSH2 0x135C JUMPI PUSH1 0x40 MLOAD PUSH3 0x461BCD PUSH1 0xE5 SHL DUP2 MSTORE PUSH1 0x4 ADD PUSH2 0x5E6 SWAP1 PUSH2 0x1539 JUMP JUMPDEST PUSH1 0x1 PUSH1 0x1 PUSH1 0xA0 SHL SUB DUP2 AND PUSH2 0x13C1 JUMPI PUSH1 0x40 MLOAD PUSH3 0x461BCD PUSH1 0xE5 SHL DUP2 MSTORE PUSH1 0x20 PUSH1 0x4 DUP3 ADD MSTORE PUSH1 0x26 PUSH1 0x24 DUP3 ADD MSTORE PUSH32 0x4F776E61626C653A206E6577206F776E657220697320746865207A65726F2061 PUSH1 0x44 DUP3 ADD MSTORE PUSH6 0x646472657373 PUSH1 0xD0 SHL PUSH1 0x64 DUP3 ADD MSTORE PUSH1 0x84 ADD PUSH2 0x5E6 JUMP JUMPDEST PUSH2 0x13CA DUP2 PUSH2 0x1419 JUMP JUMPDEST POP JUMP JUMPDEST PUSH1 0x0 SLOAD PUSH1 0x1 PUSH1 0x1 PUSH1 0xA0 SHL SUB AND CALLER EQ PUSH2 0x13F7 JUMPI PUSH1 0x40 MLOAD PUSH3 0x461BCD PUSH1 0xE5 SHL DUP2 MSTORE PUSH1 0x4 ADD PUSH2 0x5E6 SWAP1 PUSH2 0x1539 JUMP JUMPDEST PUSH1 0x3 DUP1 SLOAD PUSH1 0x1 PUSH1 0x1 PUSH1 0xA0 SHL SUB NOT AND PUSH1 0x1 PUSH1 0x1 PUSH1 0xA0 SHL SUB SWAP3 SWAP1 SWAP3 AND SWAP2 SWAP1 SWAP2 OR SWAP1 SSTORE JUMP JUMPDEST PUSH1 0x0 DUP1 SLOAD PUSH1 0x1 PUSH1 0x1 PUSH1 0xA0 SHL SUB DUP4 DUP2 AND PUSH1 0x1 PUSH1 0x1 PUSH1 0xA0 SHL SUB NOT DUP4 AND DUP2 OR DUP5 SSTORE PUSH1 0x40 MLOAD SWAP2 SWAP1 SWAP3 AND SWAP3 DUP4 SWAP2 PUSH32 0x8BE0079C531659141344CD1FD0A4F28419497F9722A3DAAFE3B4186F6B6457E0 SWAP2 SWAP1 LOG3 POP POP JUMP JUMPDEST DUP1 CALLDATALOAD PUSH1 0x1 PUSH1 0x1 PUSH1 0xA0 SHL SUB DUP2 AND DUP2 EQ PUSH2 0x1480 JUMPI PUSH1 0x0 DUP1 REVERT JUMPDEST SWAP2 SWAP1 POP JUMP JUMPDEST PUSH1 0x0 PUSH1 0x20 DUP3 DUP5 SUB SLT ISZERO PUSH2 0x1497 JUMPI PUSH1 0x0 DUP1 REVERT JUMPDEST PUSH2 0xD7E DUP3 PUSH2 0x1469 JUMP JUMPDEST PUSH1 0x0 PUSH1 0x20 DUP3 DUP5 SUB SLT ISZERO PUSH2 0x14B2 JUMPI PUSH1 0x0 DUP1 REVERT JUMPDEST POP CALLDATALOAD SWAP2 SWAP1 POP JUMP JUMPDEST PUSH1 0x0 DUP1 PUSH1 0x0 PUSH1 0x60 DUP5 DUP7 SUB SLT ISZERO PUSH2 0x14CE JUMPI PUSH1 0x0 DUP1 REVERT JUMPDEST PUSH2 0x14D7 DUP5 PUSH2 0x1469 JUMP JUMPDEST SWAP6 PUSH1 0x20 DUP6 ADD CALLDATALOAD SWAP6 POP PUSH1 0x40 SWAP1 SWAP5 ADD CALLDATALOAD SWAP4 SWAP3 POP POP POP JUMP JUMPDEST PUSH1 0x20 DUP1 DUP3 MSTORE DUP3 MLOAD DUP3 DUP3 ADD DUP2 SWAP1 MSTORE PUSH1 0x0 SWAP2 SWAP1 DUP5 DUP3 ADD SWAP1 PUSH1 0x40 DUP6 ADD SWAP1 DUP5 JUMPDEST DUP2 DUP2 LT ISZERO PUSH2 0x152D JUMPI DUP4 MLOAD PUSH1 0x1 PUSH1 0x1 PUSH1 0xA0 SHL SUB AND DUP4 MSTORE SWAP3 DUP5 ADD SWAP3 SWAP2 DUP5 ADD SWAP2 PUSH1 0x1 ADD PUSH2 0x1508 JUMP JUMPDEST POP SWAP1 SWAP7 SWAP6 POP POP POP POP POP POP JUMP JUMPDEST PUSH1 0x20 DUP1 DUP3 MSTORE DUP2 DUP2 ADD MSTORE PUSH32 0x4F776E61626C653A2063616C6C6572206973206E6F7420746865206F776E6572 PUSH1 0x40 DUP3 ADD MSTORE PUSH1 0x60 ADD SWAP1 JUMP JUMPDEST PUSH1 0x0 PUSH1 0x20 DUP3 DUP5 SUB SLT ISZERO PUSH2 0x1580 JUMPI PUSH1 0x0 DUP1 REVERT JUMPDEST DUP2 MLOAD DUP1 ISZERO ISZERO DUP2 EQ PUSH2 0xD7E JUMPI PUSH1 0x0 DUP1 REVERT JUMPDEST PUSH1 0x20 DUP1 DUP3 MSTORE PUSH1 0x15 SWAP1 DUP3 ADD MSTORE PUSH21 0x151BDAD95B881D1C985B9CD9995C8819985A5B1959 PUSH1 0x5A SHL PUSH1 0x40 DUP3 ADD MSTORE PUSH1 0x60 ADD SWAP1 JUMP JUMPDEST PUSH4 0x4E487B71 PUSH1 0xE0 SHL PUSH1 0x0 MSTORE PUSH1 0x11 PUSH1 0x4 MSTORE PUSH1 0x24 PUSH1 0x0 REVERT JUMPDEST PUSH1 0x0 PUSH4 0xFFFFFFFF DUP1 DUP4 AND DUP2 DUP2 SUB PUSH2 0x15EE JUMPI PUSH2 0x15EE PUSH2 0x15BF JUMP JUMPDEST PUSH1 0x1 ADD SWAP4 SWAP3 POP POP POP JUMP JUMPDEST PUSH1 0x0 DUP3 DUP3 LT ISZERO PUSH2 0x160A JUMPI PUSH2 0x160A PUSH2 0x15BF JUMP JUMPDEST POP SUB SWAP1 JUMP JUMPDEST PUSH4 0x4E487B71 PUSH1 0xE0 SHL PUSH1 0x0 MSTORE PUSH1 0x41 PUSH1 0x4 MSTORE PUSH1 0x24 PUSH1 0x0 REVERT JUMPDEST PUSH4 0x4E487B71 PUSH1 0xE0 SHL PUSH1 0x0 MSTORE PUSH1 0x32 PUSH1 0x4 MSTORE PUSH1 0x24 PUSH1 0x0 REVERT JUMPDEST PUSH1 0x0 PUSH1 0x1 DUP3 ADD PUSH2 0x164D JUMPI PUSH2 0x164D PUSH2 0x15BF JUMP JUMPDEST POP PUSH1 0x1 ADD SWAP1 JUMP JUMPDEST PUSH1 0x0 DUP3 PUSH2 0x1671 JUMPI PUSH4 0x4E487B71 PUSH1 0xE0 SHL PUSH1 0x0 MSTORE PUSH1 0x12 PUSH1 0x4 MSTORE PUSH1 0x24 PUSH1 0x0 REVERT JUMPDEST POP DIV SWAP1 JUMP JUMPDEST PUSH1 0x0 DUP2 PUSH1 0x0 NOT DIV DUP4 GT DUP3 ISZERO ISZERO AND ISZERO PUSH2 0x1690 JUMPI PUSH2 0x1690 PUSH2 0x15BF JUMP JUMPDEST POP MUL SWAP1 JUMP JUMPDEST PUSH1 0x0 PUSH1 0x20 DUP3 DUP5 SUB SLT ISZERO PUSH2 0x16A7 JUMPI PUSH1 0x0 DUP1 REVERT JUMPDEST POP MLOAD SWAP2 SWAP1 POP JUMP INVALID LOG2 PUSH5 0x6970667358 0x22 SLT KECCAK256 PUSH13 0xB1C6B92116AB817945BCB3EF06 SWAP1 0xB0 CALLER PUSH30 0x96E6EF40FCE4A298E8FC27D8B4AB64736F6C634300080D00330000000000 "
				},
				"gasEstimates": {
					"creation": {
						"codeDepositCost": "1172000",
						"executionCost": "infinite",
						"totalCost": "infinite"
					},
					"external": {
						"acceptInvitation(address)": "183631",
						"buyTokens()": "infinite",
						"exigencyWithdraw(uint256)": "infinite",
						"getEndTime()": "2436",
						"getLowersCount()": "2390",
						"getPreSellCoinAmount()": "2371",
						"getPreSellCounter()": "2395",
						"getPresellMax()": "2424",
						"getStartTime()": "2435",
						"getUsdtAmount()": "2336",
						"getUserHasBuy(address)": "2617",
						"getUserInviteAirdropCoinAmount(address)": "7013",
						"getUserLowers(address)": "infinite",
						"getUserLowersCount(address)": "2632",
						"getUserLowersSlice(address,uint256,uint256)": "infinite",
						"getUserPreSellCoinAmount(address)": "2649",
						"getUserUpper(address)": "2645",
						"getWithdrawCounter()": "2376",
						"hasBuy(address)": "2621",
						"inviteInfo(address)": "4797",
						"marketAddress()": "2459",
						"owner()": "2387",
						"presellTokenMintAddress()": "2373",
						"renounceOwnership()": "28182",
						"sellToken()": "infinite",
						"setAmount(uint256)": "24577",
						"setMarketAddress(address)": "26843",
						"transferOwnership(address)": "28419",
						"usdtMintAddress()": "2371",
						"usdtToken()": "infinite",
						"userInviteBalancelMap(address)": "2621",
						"userPresellBalanceMap(address)": "2630",
						"withdrawInviteAirdropTokens()": "infinite",
						"withdrawPresellTokens()": "infinite"
					}
				},
				"methodIdentifiers": {
					"acceptInvitation(address)": "9018c818",
					"buyTokens()": "d0febe4c",
					"exigencyWithdraw(uint256)": "6531e61c",
					"getEndTime()": "439f5ac2",
					"getLowersCount()": "eff7318d",
					"getPreSellCoinAmount()": "78eb6c6f",
					"getPreSellCounter()": "f01fc57c",
					"getPresellMax()": "d1d04e1f",
					"getStartTime()": "c828371e",
					"getUsdtAmount()": "d35cde41",
					"getUserHasBuy(address)": "374eedef",
					"getUserInviteAirdropCoinAmount(address)": "b9f9231a",
					"getUserLowers(address)": "a98b9144",
					"getUserLowersCount(address)": "c556feca",
					"getUserLowersSlice(address,uint256,uint256)": "95bf1653",
					"getUserPreSellCoinAmount(address)": "8568f4ce",
					"getUserUpper(address)": "d139f56d",
					"getWithdrawCounter()": "03d7424d",
					"hasBuy(address)": "3d719da7",
					"inviteInfo(address)": "1eb43f1a",
					"marketAddress()": "95623641",
					"owner()": "8da5cb5b",
					"presellTokenMintAddress()": "027734fa",
					"renounceOwnership()": "715018a6",
					"sellToken()": "9769f0b0",
					"setAmount(uint256)": "271f88b4",
					"setMarketAddress(address)": "fae92612",
					"transferOwnership(address)": "f2fde38b",
					"usdtMintAddress()": "88af60c6",
					"usdtToken()": "a98ad46c",
					"userInviteBalancelMap(address)": "9e2a0418",
					"userPresellBalanceMap(address)": "90f5881a",
					"withdrawInviteAirdropTokens()": "304d8dea",
					"withdrawPresellTokens()": "c9ede793"
				}
			},
			"storageLayout": {
				"storage": [
					{
						"astId": 70,
						"contract": "msc_token/BeePresell.sol:BeePresell",
						"label": "_owner",
						"offset": 0,
						"slot": "0",
						"type": "t_address"
					},
					{
						"astId": 180,
						"contract": "msc_token/BeePresell.sol:BeePresell",
						"label": "usdtMintAddress",
						"offset": 0,
						"slot": "1",
						"type": "t_address"
					},
					{
						"astId": 183,
						"contract": "msc_token/BeePresell.sol:BeePresell",
						"label": "presellTokenMintAddress",
						"offset": 0,
						"slot": "2",
						"type": "t_address"
					},
					{
						"astId": 186,
						"contract": "msc_token/BeePresell.sol:BeePresell",
						"label": "marketAddress",
						"offset": 0,
						"slot": "3",
						"type": "t_address"
					},
					{
						"astId": 193,
						"contract": "msc_token/BeePresell.sol:BeePresell",
						"label": "usdtAmount",
						"offset": 0,
						"slot": "4",
						"type": "t_uint256"
					},
					{
						"astId": 200,
						"contract": "msc_token/BeePresell.sol:BeePresell",
						"label": "preSellCoinPreAmount",
						"offset": 0,
						"slot": "5",
						"type": "t_uint256"
					},
					{
						"astId": 207,
						"contract": "msc_token/BeePresell.sol:BeePresell",
						"label": "inviteAirdropCoinAmount",
						"offset": 0,
						"slot": "6",
						"type": "t_uint256"
					},
					{
						"astId": 209,
						"contract": "msc_token/BeePresell.sol:BeePresell",
						"label": "counter",
						"offset": 0,
						"slot": "7",
						"type": "t_uint32"
					},
					{
						"astId": 211,
						"contract": "msc_token/BeePresell.sol:BeePresell",
						"label": "withdrawCounter",
						"offset": 4,
						"slot": "7",
						"type": "t_uint32"
					},
					{
						"astId": 213,
						"contract": "msc_token/BeePresell.sol:BeePresell",
						"label": "lowersCounter",
						"offset": 8,
						"slot": "7",
						"type": "t_uint32"
					},
					{
						"astId": 216,
						"contract": "msc_token/BeePresell.sol:BeePresell",
						"label": "preMax",
						"offset": 12,
						"slot": "7",
						"type": "t_uint32"
					},
					{
						"astId": 218,
						"contract": "msc_token/BeePresell.sol:BeePresell",
						"label": "startAt",
						"offset": 16,
						"slot": "7",
						"type": "t_uint64"
					},
					{
						"astId": 220,
						"contract": "msc_token/BeePresell.sol:BeePresell",
						"label": "endAt",
						"offset": 24,
						"slot": "7",
						"type": "t_uint64"
					},
					{
						"astId": 225,
						"contract": "msc_token/BeePresell.sol:BeePresell",
						"label": "inviteInfo",
						"offset": 0,
						"slot": "8",
						"type": "t_mapping(t_address,t_struct(UserInfo)177_storage)"
					},
					{
						"astId": 235,
						"contract": "msc_token/BeePresell.sol:BeePresell",
						"label": "userPresellBalanceMap",
						"offset": 0,
						"slot": "9",
						"type": "t_mapping(t_address,t_uint256)"
					},
					{
						"astId": 239,
						"contract": "msc_token/BeePresell.sol:BeePresell",
						"label": "userInviteBalancelMap",
						"offset": 0,
						"slot": "10",
						"type": "t_mapping(t_address,t_bool)"
					},
					{
						"astId": 243,
						"contract": "msc_token/BeePresell.sol:BeePresell",
						"label": "hasBuy",
						"offset": 0,
						"slot": "11",
						"type": "t_mapping(t_address,t_bool)"
					}
				],
				"types": {
					"t_address": {
						"encoding": "inplace",
						"label": "address",
						"numberOfBytes": "20"
					},
					"t_array(t_address)dyn_storage": {
						"base": "t_address",
						"encoding": "dynamic_array",
						"label": "address[]",
						"numberOfBytes": "32"
					},
					"t_bool": {
						"encoding": "inplace",
						"label": "bool",
						"numberOfBytes": "1"
					},
					"t_mapping(t_address,t_bool)": {
						"encoding": "mapping",
						"key": "t_address",
						"label": "mapping(address => bool)",
						"numberOfBytes": "32",
						"value": "t_bool"
					},
					"t_mapping(t_address,t_struct(UserInfo)177_storage)": {
						"encoding": "mapping",
						"key": "t_address",
						"label": "mapping(address => struct BeePresell.UserInfo)",
						"numberOfBytes": "32",
						"value": "t_struct(UserInfo)177_storage"
					},
					"t_mapping(t_address,t_uint256)": {
						"encoding": "mapping",
						"key": "t_address",
						"label": "mapping(address => uint256)",
						"numberOfBytes": "32",
						"value": "t_uint256"
					},
					"t_struct(UserInfo)177_storage": {
						"encoding": "inplace",
						"label": "struct BeePresell.UserInfo",
						"members": [
							{
								"astId": 171,
								"contract": "msc_token/BeePresell.sol:BeePresell",
								"label": "upper",
								"offset": 0,
								"slot": "0",
								"type": "t_address"
							},
							{
								"astId": 174,
								"contract": "msc_token/BeePresell.sol:BeePresell",
								"label": "lowers",
								"offset": 0,
								"slot": "1",
								"type": "t_array(t_address)dyn_storage"
							},
							{
								"astId": 176,
								"contract": "msc_token/BeePresell.sol:BeePresell",
								"label": "startBlock",
								"offset": 0,
								"slot": "2",
								"type": "t_uint256"
							}
						],
						"numberOfBytes": "96"
					},
					"t_uint256": {
						"encoding": "inplace",
						"label": "uint256",
						"numberOfBytes": "32"
					},
					"t_uint32": {
						"encoding": "inplace",
						"label": "uint32",
						"numberOfBytes": "4"
					},
					"t_uint64": {
						"encoding": "inplace",
						"label": "uint64",
						"numberOfBytes": "8"
					}
				}
			},
			"userdoc": {
				"kind": "user",
				"methods": {},
				"version": 1
			}
		}
	}
}