{
	"Atest.sol": {
		"C": {
			"abi": [
				{
					"anonymous": false,
					"inputs": [
						{
							"indexed": false,
							"internalType": "string",
							"name": "message",
							"type": "string"
						}
					],
					"name": "Log",
					"type": "event"
				},
				{
					"inputs": [],
					"name": "bar",
					"outputs": [],
					"stateMutability": "nonpayable",
					"type": "function"
				},
				{
					"inputs": [],
					"name": "foo",
					"outputs": [],
					"stateMutability": "nonpayable",
					"type": "function"
				},
				{
					"inputs": [],
					"name": "number",
					"outputs": [
						{
							"internalType": "uint256",
							"name": "",
							"type": "uint256"
						}
					],
					"stateMutability": "view",
					"type": "function"
				}
			],
			"devdoc": {
				"kind": "dev",
				"methods": {},
				"version": 1
			},
			"evm": {
				"assembly": "    /* \"Atest.sol\":880:1118  contract C is A {... */\n  mstore(0x40, 0x80)\n    /* \"Atest.sol\":396:398  10 */\n  0x0a\n    /* \"Atest.sol\":372:398  uint256 public number = 10 */\n  0x00\n  sstore\n    /* \"Atest.sol\":880:1118  contract C is A {... */\n  callvalue\n  dup1\n  iszero\n  tag_1\n  jumpi\n  0x00\n  dup1\n  revert\ntag_1:\n  pop\n  dataSize(sub_0)\n  dup1\n  dataOffset(sub_0)\n  0x00\n  codecopy\n  0x00\n  return\nstop\n\nsub_0: assembly {\n        /* \"Atest.sol\":880:1118  contract C is A {... */\n      mstore(0x40, 0x80)\n      callvalue\n      dup1\n      iszero\n      tag_1\n      jumpi\n      0x00\n      dup1\n      revert\n    tag_1:\n      pop\n      jumpi(tag_2, lt(calldatasize, 0x04))\n      shr(0xe0, calldataload(0x00))\n      dup1\n      0x8381f58a\n      eq\n      tag_3\n      jumpi\n      dup1\n      0xc2985578\n      eq\n      tag_4\n      jumpi\n      dup1\n      0xfebb0f7e\n      eq\n      tag_5\n      jumpi\n    tag_2:\n      0x00\n      dup1\n      revert\n        /* \"Atest.sol\":372:398  uint256 public number = 10 */\n    tag_3:\n      tag_6\n      tag_7\n      jump\t// in\n    tag_6:\n      mload(0x40)\n      tag_8\n      swap2\n      swap1\n      tag_9\n      jump\t// in\n    tag_8:\n      mload(0x40)\n      dup1\n      swap2\n      sub\n      swap1\n      return\n        /* \"Atest.sol\":903:1003  function foo() public virtual override {... */\n    tag_4:\n      tag_10\n      tag_11\n      jump\t// in\n    tag_10:\n      stop\n        /* \"Atest.sol\":1011:1115  function bar() public virtual override {... */\n    tag_5:\n      tag_12\n      tag_13\n      jump\t// in\n    tag_12:\n      stop\n        /* \"Atest.sol\":372:398  uint256 public number = 10 */\n    tag_7:\n      sload(0x00)\n      dup2\n      jump\t// out\n        /* \"Atest.sol\":903:1003  function foo() public virtual override {... */\n    tag_11:\n        /* \"Atest.sol\":958:977  Log(\"C.foo called\") */\n      0xcf34ef537ac33ee1ac626ca1587a0a7e8e51561e5514f8cb36afa1c5102b3bab\n      mload(0x40)\n      tag_15\n      swap1\n      tag_16\n      jump\t// in\n    tag_15:\n      mload(0x40)\n      dup1\n      swap2\n      sub\n      swap1\n      log1\n        /* \"Atest.sol\":988:995  A.foo() */\n      tag_17\n        /* \"Atest.sol\":988:993  A.foo */\n      tag_18\n        /* \"Atest.sol\":988:995  A.foo() */\n      jump\t// in\n    tag_17:\n        /* \"Atest.sol\":903:1003  function foo() public virtual override {... */\n      jump\t// out\n        /* \"Atest.sol\":1011:1115  function bar() public virtual override {... */\n    tag_13:\n        /* \"Atest.sol\":1066:1085  Log(\"C.bar called\") */\n      0xcf34ef537ac33ee1ac626ca1587a0a7e8e51561e5514f8cb36afa1c5102b3bab\n      mload(0x40)\n      tag_20\n      swap1\n      tag_21\n      jump\t// in\n    tag_20:\n      mload(0x40)\n      dup1\n      swap2\n      sub\n      swap1\n      log1\n        /* \"Atest.sol\":1096:1107  super.bar() */\n      tag_22\n        /* \"Atest.sol\":1096:1105  super.bar */\n      tag_23\n        /* \"Atest.sol\":1096:1107  super.bar() */\n      jump\t// in\n    tag_22:\n        /* \"Atest.sol\":1011:1115  function bar() public virtual override {... */\n      jump\t// out\n        /* \"Atest.sol\":407:480  function foo() public virtual {... */\n    tag_18:\n        /* \"Atest.sol\":453:472  Log(\"A.foo called\") */\n      0xcf34ef537ac33ee1ac626ca1587a0a7e8e51561e5514f8cb36afa1c5102b3bab\n      mload(0x40)\n      tag_25\n      swap1\n      tag_26\n      jump\t// in\n    tag_25:\n      mload(0x40)\n      dup1\n      swap2\n      sub\n      swap1\n      log1\n        /* \"Atest.sol\":407:480  function foo() public virtual {... */\n      jump\t// out\n        /* \"Atest.sol\":488:561  function bar() public virtual {... */\n    tag_23:\n        /* \"Atest.sol\":534:553  Log(\"A.bar called\") */\n      0xcf34ef537ac33ee1ac626ca1587a0a7e8e51561e5514f8cb36afa1c5102b3bab\n      mload(0x40)\n      tag_28\n      swap1\n      tag_29\n      jump\t// in\n    tag_28:\n      mload(0x40)\n      dup1\n      swap2\n      sub\n      swap1\n      log1\n        /* \"Atest.sol\":488:561  function bar() public virtual {... */\n      jump\t// out\n        /* \"#utility.yul\":7:84   */\n    tag_30:\n        /* \"#utility.yul\":44:51   */\n      0x00\n        /* \"#utility.yul\":73:78   */\n      dup2\n        /* \"#utility.yul\":62:78   */\n      swap1\n      pop\n        /* \"#utility.yul\":7:84   */\n      swap2\n      swap1\n      pop\n      jump\t// out\n        /* \"#utility.yul\":90:208   */\n    tag_31:\n        /* \"#utility.yul\":177:201   */\n      tag_44\n        /* \"#utility.yul\":195:200   */\n      dup2\n        /* \"#utility.yul\":177:201   */\n      tag_30\n      jump\t// in\n    tag_44:\n        /* \"#utility.yul\":172:175   */\n      dup3\n        /* \"#utility.yul\":165:202   */\n      mstore\n        /* \"#utility.yul\":90:208   */\n      pop\n      pop\n      jump\t// out\n        /* \"#utility.yul\":214:436   */\n    tag_9:\n        /* \"#utility.yul\":307:311   */\n      0x00\n        /* \"#utility.yul\":345:347   */\n      0x20\n        /* \"#utility.yul\":334:343   */\n      dup3\n        /* \"#utility.yul\":330:348   */\n      add\n        /* \"#utility.yul\":322:348   */\n      swap1\n      pop\n        /* \"#utility.yul\":358:429   */\n      tag_46\n        /* \"#utility.yul\":426:427   */\n      0x00\n        /* \"#utility.yul\":415:424   */\n      dup4\n        /* \"#utility.yul\":411:428   */\n      add\n        /* \"#utility.yul\":402:408   */\n      dup5\n        /* \"#utility.yul\":358:429   */\n      tag_31\n      jump\t// in\n    tag_46:\n        /* \"#utility.yul\":214:436   */\n      swap3\n      swap2\n      pop\n      pop\n      jump\t// out\n        /* \"#utility.yul\":442:611   */\n    tag_32:\n        /* \"#utility.yul\":526:537   */\n      0x00\n        /* \"#utility.yul\":560:566   */\n      dup3\n        /* \"#utility.yul\":555:558   */\n      dup3\n        /* \"#utility.yul\":548:567   */\n      mstore\n        /* \"#utility.yul\":600:604   */\n      0x20\n        /* \"#utility.yul\":595:598   */\n      dup3\n        /* \"#utility.yul\":591:605   */\n      add\n        /* \"#utility.yul\":576:605   */\n      swap1\n      pop\n        /* \"#utility.yul\":442:611   */\n      swap3\n      swap2\n      pop\n      pop\n      jump\t// out\n        /* \"#utility.yul\":617:779   */\n    tag_33:\n        /* \"#utility.yul\":757:771   */\n      0x432e666f6f2063616c6c65640000000000000000000000000000000000000000\n        /* \"#utility.yul\":753:754   */\n      0x00\n        /* \"#utility.yul\":745:751   */\n      dup3\n        /* \"#utility.yul\":741:755   */\n      add\n        /* \"#utility.yul\":734:772   */\n      mstore\n        /* \"#utility.yul\":617:779   */\n      pop\n      jump\t// out\n        /* \"#utility.yul\":785:1151   */\n    tag_34:\n        /* \"#utility.yul\":927:930   */\n      0x00\n        /* \"#utility.yul\":948:1015   */\n      tag_50\n        /* \"#utility.yul\":1012:1014   */\n      0x0c\n        /* \"#utility.yul\":1007:1010   */\n      dup4\n        /* \"#utility.yul\":948:1015   */\n      tag_32\n      jump\t// in\n    tag_50:\n        /* \"#utility.yul\":941:1015   */\n      swap2\n      pop\n        /* \"#utility.yul\":1024:1117   */\n      tag_51\n        /* \"#utility.yul\":1113:1116   */\n      dup3\n        /* \"#utility.yul\":1024:1117   */\n      tag_33\n      jump\t// in\n    tag_51:\n        /* \"#utility.yul\":1142:1144   */\n      0x20\n        /* \"#utility.yul\":1137:1140   */\n      dup3\n        /* \"#utility.yul\":1133:1145   */\n      add\n        /* \"#utility.yul\":1126:1145   */\n      swap1\n      pop\n        /* \"#utility.yul\":785:1151   */\n      swap2\n      swap1\n      pop\n      jump\t// out\n        /* \"#utility.yul\":1157:1576   */\n    tag_16:\n        /* \"#utility.yul\":1323:1327   */\n      0x00\n        /* \"#utility.yul\":1361:1363   */\n      0x20\n        /* \"#utility.yul\":1350:1359   */\n      dup3\n        /* \"#utility.yul\":1346:1364   */\n      add\n        /* \"#utility.yul\":1338:1364   */\n      swap1\n      pop\n        /* \"#utility.yul\":1410:1419   */\n      dup2\n        /* \"#utility.yul\":1404:1408   */\n      dup2\n        /* \"#utility.yul\":1400:1420   */\n      sub\n        /* \"#utility.yul\":1396:1397   */\n      0x00\n        /* \"#utility.yul\":1385:1394   */\n      dup4\n        /* \"#utility.yul\":1381:1398   */\n      add\n        /* \"#utility.yul\":1374:1421   */\n      mstore\n        /* \"#utility.yul\":1438:1569   */\n      tag_53\n        /* \"#utility.yul\":1564:1568   */\n      dup2\n        /* \"#utility.yul\":1438:1569   */\n      tag_34\n      jump\t// in\n    tag_53:\n        /* \"#utility.yul\":1430:1569   */\n      swap1\n      pop\n        /* \"#utility.yul\":1157:1576   */\n      swap2\n      swap1\n      pop\n      jump\t// out\n        /* \"#utility.yul\":1582:1744   */\n    tag_35:\n        /* \"#utility.yul\":1722:1736   */\n      0x432e6261722063616c6c65640000000000000000000000000000000000000000\n        /* \"#utility.yul\":1718:1719   */\n      0x00\n        /* \"#utility.yul\":1710:1716   */\n      dup3\n        /* \"#utility.yul\":1706:1720   */\n      add\n        /* \"#utility.yul\":1699:1737   */\n      mstore\n        /* \"#utility.yul\":1582:1744   */\n      pop\n      jump\t// out\n        /* \"#utility.yul\":1750:2116   */\n    tag_36:\n        /* \"#utility.yul\":1892:1895   */\n      0x00\n        /* \"#utility.yul\":1913:1980   */\n      tag_56\n        /* \"#utility.yul\":1977:1979   */\n      0x0c\n        /* \"#utility.yul\":1972:1975   */\n      dup4\n        /* \"#utility.yul\":1913:1980   */\n      tag_32\n      jump\t// in\n    tag_56:\n        /* \"#utility.yul\":1906:1980   */\n      swap2\n      pop\n        /* \"#utility.yul\":1989:2082   */\n      tag_57\n        /* \"#utility.yul\":2078:2081   */\n      dup3\n        /* \"#utility.yul\":1989:2082   */\n      tag_35\n      jump\t// in\n    tag_57:\n        /* \"#utility.yul\":2107:2109   */\n      0x20\n        /* \"#utility.yul\":2102:2105   */\n      dup3\n        /* \"#utility.yul\":2098:2110   */\n      add\n        /* \"#utility.yul\":2091:2110   */\n      swap1\n      pop\n        /* \"#utility.yul\":1750:2116   */\n      swap2\n      swap1\n      pop\n      jump\t// out\n        /* \"#utility.yul\":2122:2541   */\n    tag_21:\n        /* \"#utility.yul\":2288:2292   */\n      0x00\n        /* \"#utility.yul\":2326:2328   */\n      0x20\n        /* \"#utility.yul\":2315:2324   */\n      dup3\n        /* \"#utility.yul\":2311:2329   */\n      add\n        /* \"#utility.yul\":2303:2329   */\n      swap1\n      pop\n        /* \"#utility.yul\":2375:2384   */\n      dup2\n        /* \"#utility.yul\":2369:2373   */\n      dup2\n        /* \"#utility.yul\":2365:2385   */\n      sub\n        /* \"#utility.yul\":2361:2362   */\n      0x00\n        /* \"#utility.yul\":2350:2359   */\n      dup4\n        /* \"#utility.yul\":2346:2363   */\n      add\n        /* \"#utility.yul\":2339:2386   */\n      mstore\n        /* \"#utility.yul\":2403:2534   */\n      tag_59\n        /* \"#utility.yul\":2529:2533   */\n      dup2\n        /* \"#utility.yul\":2403:2534   */\n      tag_36\n      jump\t// in\n    tag_59:\n        /* \"#utility.yul\":2395:2534   */\n      swap1\n      pop\n        /* \"#utility.yul\":2122:2541   */\n      swap2\n      swap1\n      pop\n      jump\t// out\n        /* \"#utility.yul\":2547:2709   */\n    tag_37:\n        /* \"#utility.yul\":2687:2701   */\n      0x412e666f6f2063616c6c65640000000000000000000000000000000000000000\n        /* \"#utility.yul\":2683:2684   */\n      0x00\n        /* \"#utility.yul\":2675:2681   */\n      dup3\n        /* \"#utility.yul\":2671:2685   */\n      add\n        /* \"#utility.yul\":2664:2702   */\n      mstore\n        /* \"#utility.yul\":2547:2709   */\n      pop\n      jump\t// out\n        /* \"#utility.yul\":2715:3081   */\n    tag_38:\n        /* \"#utility.yul\":2857:2860   */\n      0x00\n        /* \"#utility.yul\":2878:2945   */\n      tag_62\n        /* \"#utility.yul\":2942:2944   */\n      0x0c\n        /* \"#utility.yul\":2937:2940   */\n      dup4\n        /* \"#utility.yul\":2878:2945   */\n      tag_32\n      jump\t// in\n    tag_62:\n        /* \"#utility.yul\":2871:2945   */\n      swap2\n      pop\n        /* \"#utility.yul\":2954:3047   */\n      tag_63\n        /* \"#utility.yul\":3043:3046   */\n      dup3\n        /* \"#utility.yul\":2954:3047   */\n      tag_37\n      jump\t// in\n    tag_63:\n        /* \"#utility.yul\":3072:3074   */\n      0x20\n        /* \"#utility.yul\":3067:3070   */\n      dup3\n        /* \"#utility.yul\":3063:3075   */\n      add\n        /* \"#utility.yul\":3056:3075   */\n      swap1\n      pop\n        /* \"#utility.yul\":2715:3081   */\n      swap2\n      swap1\n      pop\n      jump\t// out\n        /* \"#utility.yul\":3087:3506   */\n    tag_26:\n        /* \"#utility.yul\":3253:3257   */\n      0x00\n        /* \"#utility.yul\":3291:3293   */\n      0x20\n        /* \"#utility.yul\":3280:3289   */\n      dup3\n        /* \"#utility.yul\":3276:3294   */\n      add\n        /* \"#utility.yul\":3268:3294   */\n      swap1\n      pop\n        /* \"#utility.yul\":3340:3349   */\n      dup2\n        /* \"#utility.yul\":3334:3338   */\n      dup2\n        /* \"#utility.yul\":3330:3350   */\n      sub\n        /* \"#utility.yul\":3326:3327   */\n      0x00\n        /* \"#utility.yul\":3315:3324   */\n      dup4\n        /* \"#utility.yul\":3311:3328   */\n      add\n        /* \"#utility.yul\":3304:3351   */\n      mstore\n        /* \"#utility.yul\":3368:3499   */\n      tag_65\n        /* \"#utility.yul\":3494:3498   */\n      dup2\n        /* \"#utility.yul\":3368:3499   */\n      tag_38\n      jump\t// in\n    tag_65:\n        /* \"#utility.yul\":3360:3499   */\n      swap1\n      pop\n        /* \"#utility.yul\":3087:3506   */\n      swap2\n      swap1\n      pop\n      jump\t// out\n        /* \"#utility.yul\":3512:3674   */\n    tag_39:\n        /* \"#utility.yul\":3652:3666   */\n      0x412e6261722063616c6c65640000000000000000000000000000000000000000\n        /* \"#utility.yul\":3648:3649   */\n      0x00\n        /* \"#utility.yul\":3640:3646   */\n      dup3\n        /* \"#utility.yul\":3636:3650   */\n      add\n        /* \"#utility.yul\":3629:3667   */\n      mstore\n        /* \"#utility.yul\":3512:3674   */\n      pop\n      jump\t// out\n        /* \"#utility.yul\":3680:4046   */\n    tag_40:\n        /* \"#utility.yul\":3822:3825   */\n      0x00\n        /* \"#utility.yul\":3843:3910   */\n      tag_68\n        /* \"#utility.yul\":3907:3909   */\n      0x0c\n        /* \"#utility.yul\":3902:3905   */\n      dup4\n        /* \"#utility.yul\":3843:3910   */\n      tag_32\n      jump\t// in\n    tag_68:\n        /* \"#utility.yul\":3836:3910   */\n      swap2\n      pop\n        /* \"#utility.yul\":3919:4012   */\n      tag_69\n        /* \"#utility.yul\":4008:4011   */\n      dup3\n        /* \"#utility.yul\":3919:4012   */\n      tag_39\n      jump\t// in\n    tag_69:\n        /* \"#utility.yul\":4037:4039   */\n      0x20\n        /* \"#utility.yul\":4032:4035   */\n      dup3\n        /* \"#utility.yul\":4028:4040   */\n      add\n        /* \"#utility.yul\":4021:4040   */\n      swap1\n      pop\n        /* \"#utility.yul\":3680:4046   */\n      swap2\n      swap1\n      pop\n      jump\t// out\n        /* \"#utility.yul\":4052:4471   */\n    tag_29:\n        /* \"#utility.yul\":4218:4222   */\n      0x00\n        /* \"#utility.yul\":4256:4258   */\n      0x20\n        /* \"#utility.yul\":4245:4254   */\n      dup3\n        /* \"#utility.yul\":4241:4259   */\n      add\n        /* \"#utility.yul\":4233:4259   */\n      swap1\n      pop\n        /* \"#utility.yul\":4305:4314   */\n      dup2\n        /* \"#utility.yul\":4299:4303   */\n      dup2\n        /* \"#utility.yul\":4295:4315   */\n      sub\n        /* \"#utility.yul\":4291:4292   */\n      0x00\n        /* \"#utility.yul\":4280:4289   */\n      dup4\n        /* \"#utility.yul\":4276:4293   */\n      add\n        /* \"#utility.yul\":4269:4316   */\n      mstore\n        /* \"#utility.yul\":4333:4464   */\n      tag_71\n        /* \"#utility.yul\":4459:4463   */\n      dup2\n        /* \"#utility.yul\":4333:4464   */\n      tag_40\n      jump\t// in\n    tag_71:\n        /* \"#utility.yul\":4325:4464   */\n      swap1\n      pop\n        /* \"#utility.yul\":4052:4471   */\n      swap2\n      swap1\n      pop\n      jump\t// out\n\n    auxdata: 0xa26469706673582212209c1bb2521edf766c08b8cb4fe7f4ef28080682a061474aa933ef138657c12c0764736f6c634300080e0033\n}\n",
				"bytecode": {
					"linkReferences": {},
					"object": "6080604052600a60005534801561001557600080fd5b50610395806100256000396000f3fe608060405234801561001057600080fd5b50600436106100415760003560e01c80638381f58a14610046578063c298557814610064578063febb0f7e1461006e575b600080fd5b61004e610078565b60405161005b9190610183565b60405180910390f35b61006c61007e565b005b6100766100bd565b005b60005481565b7fcf34ef537ac33ee1ac626ca1587a0a7e8e51561e5514f8cb36afa1c5102b3bab6040516100ab906101fb565b60405180910390a16100bb6100fc565b565b7fcf34ef537ac33ee1ac626ca1587a0a7e8e51561e5514f8cb36afa1c5102b3bab6040516100ea90610267565b60405180910390a16100fa610133565b565b7fcf34ef537ac33ee1ac626ca1587a0a7e8e51561e5514f8cb36afa1c5102b3bab604051610129906102d3565b60405180910390a1565b7fcf34ef537ac33ee1ac626ca1587a0a7e8e51561e5514f8cb36afa1c5102b3bab6040516101609061033f565b60405180910390a1565b6000819050919050565b61017d8161016a565b82525050565b60006020820190506101986000830184610174565b92915050565b600082825260208201905092915050565b7f432e666f6f2063616c6c65640000000000000000000000000000000000000000600082015250565b60006101e5600c8361019e565b91506101f0826101af565b602082019050919050565b60006020820190508181036000830152610214816101d8565b9050919050565b7f432e6261722063616c6c65640000000000000000000000000000000000000000600082015250565b6000610251600c8361019e565b915061025c8261021b565b602082019050919050565b6000602082019050818103600083015261028081610244565b9050919050565b7f412e666f6f2063616c6c65640000000000000000000000000000000000000000600082015250565b60006102bd600c8361019e565b91506102c882610287565b602082019050919050565b600060208201905081810360008301526102ec816102b0565b9050919050565b7f412e6261722063616c6c65640000000000000000000000000000000000000000600082015250565b6000610329600c8361019e565b9150610334826102f3565b602082019050919050565b600060208201905081810360008301526103588161031c565b905091905056fea26469706673582212209c1bb2521edf766c08b8cb4fe7f4ef28080682a061474aa933ef138657c12c0764736f6c634300080e0033",
					"opcodes": "PUSH1 0x80 PUSH1 0x40 MSTORE PUSH1 0xA PUSH1 0x0 SSTORE CALLVALUE DUP1 ISZERO PUSH2 0x15 JUMPI PUSH1 0x0 DUP1 REVERT JUMPDEST POP PUSH2 0x395 DUP1 PUSH2 0x25 PUSH1 0x0 CODECOPY PUSH1 0x0 RETURN INVALID PUSH1 0x80 PUSH1 0x40 MSTORE CALLVALUE DUP1 ISZERO PUSH2 0x10 JUMPI PUSH1 0x0 DUP1 REVERT JUMPDEST POP PUSH1 0x4 CALLDATASIZE LT PUSH2 0x41 JUMPI PUSH1 0x0 CALLDATALOAD PUSH1 0xE0 SHR DUP1 PUSH4 0x8381F58A EQ PUSH2 0x46 JUMPI DUP1 PUSH4 0xC2985578 EQ PUSH2 0x64 JUMPI DUP1 PUSH4 0xFEBB0F7E EQ PUSH2 0x6E JUMPI JUMPDEST PUSH1 0x0 DUP1 REVERT JUMPDEST PUSH2 0x4E PUSH2 0x78 JUMP JUMPDEST PUSH1 0x40 MLOAD PUSH2 0x5B SWAP2 SWAP1 PUSH2 0x183 JUMP JUMPDEST PUSH1 0x40 MLOAD DUP1 SWAP2 SUB SWAP1 RETURN JUMPDEST PUSH2 0x6C PUSH2 0x7E JUMP JUMPDEST STOP JUMPDEST PUSH2 0x76 PUSH2 0xBD JUMP JUMPDEST STOP JUMPDEST PUSH1 0x0 SLOAD DUP2 JUMP JUMPDEST PUSH32 0xCF34EF537AC33EE1AC626CA1587A0A7E8E51561E5514F8CB36AFA1C5102B3BAB PUSH1 0x40 MLOAD PUSH2 0xAB SWAP1 PUSH2 0x1FB JUMP JUMPDEST PUSH1 0x40 MLOAD DUP1 SWAP2 SUB SWAP1 LOG1 PUSH2 0xBB PUSH2 0xFC JUMP JUMPDEST JUMP JUMPDEST PUSH32 0xCF34EF537AC33EE1AC626CA1587A0A7E8E51561E5514F8CB36AFA1C5102B3BAB PUSH1 0x40 MLOAD PUSH2 0xEA SWAP1 PUSH2 0x267 JUMP JUMPDEST PUSH1 0x40 MLOAD DUP1 SWAP2 SUB SWAP1 LOG1 PUSH2 0xFA PUSH2 0x133 JUMP JUMPDEST JUMP JUMPDEST PUSH32 0xCF34EF537AC33EE1AC626CA1587A0A7E8E51561E5514F8CB36AFA1C5102B3BAB PUSH1 0x40 MLOAD PUSH2 0x129 SWAP1 PUSH2 0x2D3 JUMP JUMPDEST PUSH1 0x40 MLOAD DUP1 SWAP2 SUB SWAP1 LOG1 JUMP JUMPDEST PUSH32 0xCF34EF537AC33EE1AC626CA1587A0A7E8E51561E5514F8CB36AFA1C5102B3BAB PUSH1 0x40 MLOAD PUSH2 0x160 SWAP1 PUSH2 0x33F JUMP JUMPDEST PUSH1 0x40 MLOAD DUP1 SWAP2 SUB SWAP1 LOG1 JUMP JUMPDEST PUSH1 0x0 DUP2 SWAP1 POP SWAP2 SWAP1 POP JUMP JUMPDEST PUSH2 0x17D DUP2 PUSH2 0x16A JUMP JUMPDEST DUP3 MSTORE POP POP JUMP JUMPDEST PUSH1 0x0 PUSH1 0x20 DUP3 ADD SWAP1 POP PUSH2 0x198 PUSH1 0x0 DUP4 ADD DUP5 PUSH2 0x174 JUMP JUMPDEST SWAP3 SWAP2 POP POP JUMP JUMPDEST PUSH1 0x0 DUP3 DUP3 MSTORE PUSH1 0x20 DUP3 ADD SWAP1 POP SWAP3 SWAP2 POP POP JUMP JUMPDEST PUSH32 0x432E666F6F2063616C6C65640000000000000000000000000000000000000000 PUSH1 0x0 DUP3 ADD MSTORE POP JUMP JUMPDEST PUSH1 0x0 PUSH2 0x1E5 PUSH1 0xC DUP4 PUSH2 0x19E JUMP JUMPDEST SWAP2 POP PUSH2 0x1F0 DUP3 PUSH2 0x1AF JUMP JUMPDEST PUSH1 0x20 DUP3 ADD SWAP1 POP SWAP2 SWAP1 POP JUMP JUMPDEST PUSH1 0x0 PUSH1 0x20 DUP3 ADD SWAP1 POP DUP2 DUP2 SUB PUSH1 0x0 DUP4 ADD MSTORE PUSH2 0x214 DUP2 PUSH2 0x1D8 JUMP JUMPDEST SWAP1 POP SWAP2 SWAP1 POP JUMP JUMPDEST PUSH32 0x432E6261722063616C6C65640000000000000000000000000000000000000000 PUSH1 0x0 DUP3 ADD MSTORE POP JUMP JUMPDEST PUSH1 0x0 PUSH2 0x251 PUSH1 0xC DUP4 PUSH2 0x19E JUMP JUMPDEST SWAP2 POP PUSH2 0x25C DUP3 PUSH2 0x21B JUMP JUMPDEST PUSH1 0x20 DUP3 ADD SWAP1 POP SWAP2 SWAP1 POP JUMP JUMPDEST PUSH1 0x0 PUSH1 0x20 DUP3 ADD SWAP1 POP DUP2 DUP2 SUB PUSH1 0x0 DUP4 ADD MSTORE PUSH2 0x280 DUP2 PUSH2 0x244 JUMP JUMPDEST SWAP1 POP SWAP2 SWAP1 POP JUMP JUMPDEST PUSH32 0x412E666F6F2063616C6C65640000000000000000000000000000000000000000 PUSH1 0x0 DUP3 ADD MSTORE POP JUMP JUMPDEST PUSH1 0x0 PUSH2 0x2BD PUSH1 0xC DUP4 PUSH2 0x19E JUMP JUMPDEST SWAP2 POP PUSH2 0x2C8 DUP3 PUSH2 0x287 JUMP JUMPDEST PUSH1 0x20 DUP3 ADD SWAP1 POP SWAP2 SWAP1 POP JUMP JUMPDEST PUSH1 0x0 PUSH1 0x20 DUP3 ADD SWAP1 POP DUP2 DUP2 SUB PUSH1 0x0 DUP4 ADD MSTORE PUSH2 0x2EC DUP2 PUSH2 0x2B0 JUMP JUMPDEST SWAP1 POP SWAP2 SWAP1 POP JUMP JUMPDEST PUSH32 0x412E6261722063616C6C65640000000000000000000000000000000000000000 PUSH1 0x0 DUP3 ADD MSTORE POP JUMP JUMPDEST PUSH1 0x0 PUSH2 0x329 PUSH1 0xC DUP4 PUSH2 0x19E JUMP JUMPDEST SWAP2 POP PUSH2 0x334 DUP3 PUSH2 0x2F3 JUMP JUMPDEST PUSH1 0x20 DUP3 ADD SWAP1 POP SWAP2 SWAP1 POP JUMP JUMPDEST PUSH1 0x0 PUSH1 0x20 DUP3 ADD SWAP1 POP DUP2 DUP2 SUB PUSH1 0x0 DUP4 ADD MSTORE PUSH2 0x358 DUP2 PUSH2 0x31C JUMP JUMPDEST SWAP1 POP SWAP2 SWAP1 POP JUMP INVALID LOG2 PUSH5 0x6970667358 0x22 SLT KECCAK256 SWAP13 SHL 0xB2 MSTORE 0x1E 0xDF PUSH23 0x6C08B8CB4FE7F4EF28080682A061474AA933EF138657C1 0x2C SMOD PUSH5 0x736F6C6343 STOP ADDMOD 0xE STOP CALLER "
				},
				"gasEstimates": {
					"creation": {
						"codeDepositCost": "183400",
						"executionCost": "22332",
						"totalCost": "205732"
					},
					"external": {
						"bar()": "infinite",
						"foo()": "infinite",
						"number()": "2407"
					}
				},
				"methodIdentifiers": {
					"bar()": "febb0f7e",
					"foo()": "c2985578",
					"number()": "8381f58a"
				}
			},
			"storageLayout": {
				"storage": [
					{
						"astId": 8,
						"contract": "Atest.sol:C",
						"label": "number",
						"offset": 0,
						"slot": "0",
						"type": "t_uint256"
					}
				],
				"types": {
					"t_uint256": {
						"encoding": "inplace",
						"label": "uint256",
						"numberOfBytes": "32"
					}
				}
			},
			"userdoc": {
				"kind": "user",
				"methods": {},
				"version": 1
			}
		}
	}
}