{
	"Atest.sol": {
		"D": {
			"abi": [
				{
					"anonymous": false,
					"inputs": [
						{
							"indexed": false,
							"internalType": "string",
							"name": "message",
							"type": "string"
						}
					],
					"name": "Log",
					"type": "event"
				},
				{
					"inputs": [],
					"name": "bar",
					"outputs": [],
					"stateMutability": "nonpayable",
					"type": "function"
				},
				{
					"inputs": [],
					"name": "foo",
					"outputs": [],
					"stateMutability": "nonpayable",
					"type": "function"
				},
				{
					"inputs": [],
					"name": "number",
					"outputs": [
						{
							"internalType": "uint256",
							"name": "",
							"type": "uint256"
						}
					],
					"stateMutability": "view",
					"type": "function"
				},
				{
					"inputs": [],
					"name": "setnumber",
					"outputs": [],
					"stateMutability": "nonpayable",
					"type": "function"
				}
			],
			"devdoc": {
				"kind": "dev",
				"methods": {},
				"version": 1
			},
			"evm": {
				"assembly": "    /* \"Atest.sol\":1122:1607  contract D is B, C {... */\n  mstore(0x40, 0x80)\n    /* \"Atest.sol\":396:398  10 */\n  0x0a\n    /* \"Atest.sol\":372:398  uint256 public number = 10 */\n  0x00\n  sstore\n    /* \"Atest.sol\":1122:1607  contract D is B, C {... */\n  callvalue\n  dup1\n  iszero\n  tag_1\n  jumpi\n  0x00\n  dup1\n  revert\ntag_1:\n  pop\n  dataSize(sub_0)\n  dup1\n  dataOffset(sub_0)\n  0x00\n  codecopy\n  0x00\n  return\nstop\n\nsub_0: assembly {\n        /* \"Atest.sol\":1122:1607  contract D is B, C {... */\n      mstore(0x40, 0x80)\n      callvalue\n      dup1\n      iszero\n      tag_1\n      jumpi\n      0x00\n      dup1\n      revert\n    tag_1:\n      pop\n      jumpi(tag_2, lt(calldatasize, 0x04))\n      shr(0xe0, calldataload(0x00))\n      dup1\n      0x8381f58a\n      eq\n      tag_3\n      jumpi\n      dup1\n      0x94e79138\n      eq\n      tag_4\n      jumpi\n      dup1\n      0xc2985578\n      eq\n      tag_5\n      jumpi\n      dup1\n      0xfebb0f7e\n      eq\n      tag_6\n      jumpi\n    tag_2:\n      0x00\n      dup1\n      revert\n        /* \"Atest.sol\":372:398  uint256 public number = 10 */\n    tag_3:\n      tag_7\n      tag_8\n      jump\t// in\n    tag_7:\n      mload(0x40)\n      tag_9\n      swap2\n      swap1\n      tag_10\n      jump\t// in\n    tag_9:\n      mload(0x40)\n      dup1\n      swap2\n      sub\n      swap1\n      return\n        /* \"Atest.sol\":815:873  function setnumber() public {... */\n    tag_4:\n      tag_11\n      tag_12\n      jump\t// in\n    tag_11:\n      stop\n        /* \"Atest.sol\":1462:1529  function foo() public override(B, C) {... */\n    tag_5:\n      tag_13\n      tag_14\n      jump\t// in\n    tag_13:\n      stop\n        /* \"Atest.sol\":1537:1604  function bar() public override(B, C) {... */\n    tag_6:\n      tag_15\n      tag_16\n      jump\t// in\n    tag_15:\n      stop\n        /* \"Atest.sol\":372:398  uint256 public number = 10 */\n    tag_8:\n      sload(0x00)\n      dup2\n      jump\t// out\n        /* \"Atest.sol\":815:873  function setnumber() public {... */\n    tag_12:\n        /* \"Atest.sol\":863:865  20 */\n      0x14\n        /* \"Atest.sol\":854:860  number */\n      0x00\n        /* \"Atest.sol\":854:865  number = 20 */\n      dup2\n      swap1\n      sstore\n      pop\n        /* \"Atest.sol\":815:873  function setnumber() public {... */\n      jump\t// out\n        /* \"Atest.sol\":1462:1529  function foo() public override(B, C) {... */\n    tag_14:\n        /* \"Atest.sol\":1510:1521  super.foo() */\n      tag_19\n        /* \"Atest.sol\":1510:1519  super.foo */\n      tag_20\n        /* \"Atest.sol\":1510:1521  super.foo() */\n      jump\t// in\n    tag_19:\n        /* \"Atest.sol\":1462:1529  function foo() public override(B, C) {... */\n      jump\t// out\n        /* \"Atest.sol\":1537:1604  function bar() public override(B, C) {... */\n    tag_16:\n        /* \"Atest.sol\":1585:1596  super.bar() */\n      tag_22\n        /* \"Atest.sol\":1585:1594  super.bar */\n      tag_23\n        /* \"Atest.sol\":1585:1596  super.bar() */\n      jump\t// in\n    tag_22:\n        /* \"Atest.sol\":1537:1604  function bar() public override(B, C) {... */\n      jump\t// out\n        /* \"Atest.sol\":903:1003  function foo() public virtual override {... */\n    tag_20:\n        /* \"Atest.sol\":958:977  Log(\"C.foo called\") */\n      0xcf34ef537ac33ee1ac626ca1587a0a7e8e51561e5514f8cb36afa1c5102b3bab\n      mload(0x40)\n      tag_25\n      swap1\n      tag_26\n      jump\t// in\n    tag_25:\n      mload(0x40)\n      dup1\n      swap2\n      sub\n      swap1\n      log1\n        /* \"Atest.sol\":988:995  A.foo() */\n      tag_27\n        /* \"Atest.sol\":988:993  A.foo */\n      tag_28\n        /* \"Atest.sol\":988:995  A.foo() */\n      jump\t// in\n    tag_27:\n        /* \"Atest.sol\":903:1003  function foo() public virtual override {... */\n      jump\t// out\n        /* \"Atest.sol\":1011:1115  function bar() public virtual override {... */\n    tag_23:\n        /* \"Atest.sol\":1066:1085  Log(\"C.bar called\") */\n      0xcf34ef537ac33ee1ac626ca1587a0a7e8e51561e5514f8cb36afa1c5102b3bab\n      mload(0x40)\n      tag_30\n      swap1\n      tag_31\n      jump\t// in\n    tag_30:\n      mload(0x40)\n      dup1\n      swap2\n      sub\n      swap1\n      log1\n        /* \"Atest.sol\":1096:1107  super.bar() */\n      tag_32\n        /* \"Atest.sol\":1096:1105  super.bar */\n      tag_33\n        /* \"Atest.sol\":1096:1107  super.bar() */\n      jump\t// in\n    tag_32:\n        /* \"Atest.sol\":1011:1115  function bar() public virtual override {... */\n      jump\t// out\n        /* \"Atest.sol\":407:480  function foo() public virtual {... */\n    tag_28:\n        /* \"Atest.sol\":453:472  Log(\"A.foo called\") */\n      0xcf34ef537ac33ee1ac626ca1587a0a7e8e51561e5514f8cb36afa1c5102b3bab\n      mload(0x40)\n      tag_35\n      swap1\n      tag_36\n      jump\t// in\n    tag_35:\n      mload(0x40)\n      dup1\n      swap2\n      sub\n      swap1\n      log1\n        /* \"Atest.sol\":407:480  function foo() public virtual {... */\n      jump\t// out\n        /* \"Atest.sol\":699:803  function bar() public virtual override {... */\n    tag_33:\n        /* \"Atest.sol\":754:773  Log(\"B.bar called\") */\n      0xcf34ef537ac33ee1ac626ca1587a0a7e8e51561e5514f8cb36afa1c5102b3bab\n      mload(0x40)\n      tag_38\n      swap1\n      tag_39\n      jump\t// in\n    tag_38:\n      mload(0x40)\n      dup1\n      swap2\n      sub\n      swap1\n      log1\n        /* \"Atest.sol\":784:795  super.bar() */\n      tag_40\n        /* \"Atest.sol\":784:793  super.bar */\n      tag_41\n        /* \"Atest.sol\":784:795  super.bar() */\n      jump\t// in\n    tag_40:\n        /* \"Atest.sol\":699:803  function bar() public virtual override {... */\n      jump\t// out\n        /* \"Atest.sol\":488:561  function bar() public virtual {... */\n    tag_41:\n        /* \"Atest.sol\":534:553  Log(\"A.bar called\") */\n      0xcf34ef537ac33ee1ac626ca1587a0a7e8e51561e5514f8cb36afa1c5102b3bab\n      mload(0x40)\n      tag_43\n      swap1\n      tag_44\n      jump\t// in\n    tag_43:\n      mload(0x40)\n      dup1\n      swap2\n      sub\n      swap1\n      log1\n        /* \"Atest.sol\":488:561  function bar() public virtual {... */\n      jump\t// out\n        /* \"#utility.yul\":7:84   */\n    tag_45:\n        /* \"#utility.yul\":44:51   */\n      0x00\n        /* \"#utility.yul\":73:78   */\n      dup2\n        /* \"#utility.yul\":62:78   */\n      swap1\n      pop\n        /* \"#utility.yul\":7:84   */\n      swap2\n      swap1\n      pop\n      jump\t// out\n        /* \"#utility.yul\":90:208   */\n    tag_46:\n        /* \"#utility.yul\":177:201   */\n      tag_61\n        /* \"#utility.yul\":195:200   */\n      dup2\n        /* \"#utility.yul\":177:201   */\n      tag_45\n      jump\t// in\n    tag_61:\n        /* \"#utility.yul\":172:175   */\n      dup3\n        /* \"#utility.yul\":165:202   */\n      mstore\n        /* \"#utility.yul\":90:208   */\n      pop\n      pop\n      jump\t// out\n        /* \"#utility.yul\":214:436   */\n    tag_10:\n        /* \"#utility.yul\":307:311   */\n      0x00\n        /* \"#utility.yul\":345:347   */\n      0x20\n        /* \"#utility.yul\":334:343   */\n      dup3\n        /* \"#utility.yul\":330:348   */\n      add\n        /* \"#utility.yul\":322:348   */\n      swap1\n      pop\n        /* \"#utility.yul\":358:429   */\n      tag_63\n        /* \"#utility.yul\":426:427   */\n      0x00\n        /* \"#utility.yul\":415:424   */\n      dup4\n        /* \"#utility.yul\":411:428   */\n      add\n        /* \"#utility.yul\":402:408   */\n      dup5\n        /* \"#utility.yul\":358:429   */\n      tag_46\n      jump\t// in\n    tag_63:\n        /* \"#utility.yul\":214:436   */\n      swap3\n      swap2\n      pop\n      pop\n      jump\t// out\n        /* \"#utility.yul\":442:611   */\n    tag_47:\n        /* \"#utility.yul\":526:537   */\n      0x00\n        /* \"#utility.yul\":560:566   */\n      dup3\n        /* \"#utility.yul\":555:558   */\n      dup3\n        /* \"#utility.yul\":548:567   */\n      mstore\n        /* \"#utility.yul\":600:604   */\n      0x20\n        /* \"#utility.yul\":595:598   */\n      dup3\n        /* \"#utility.yul\":591:605   */\n      add\n        /* \"#utility.yul\":576:605   */\n      swap1\n      pop\n        /* \"#utility.yul\":442:611   */\n      swap3\n      swap2\n      pop\n      pop\n      jump\t// out\n        /* \"#utility.yul\":617:779   */\n    tag_48:\n        /* \"#utility.yul\":757:771   */\n      0x432e666f6f2063616c6c65640000000000000000000000000000000000000000\n        /* \"#utility.yul\":753:754   */\n      0x00\n        /* \"#utility.yul\":745:751   */\n      dup3\n        /* \"#utility.yul\":741:755   */\n      add\n        /* \"#utility.yul\":734:772   */\n      mstore\n        /* \"#utility.yul\":617:779   */\n      pop\n      jump\t// out\n        /* \"#utility.yul\":785:1151   */\n    tag_49:\n        /* \"#utility.yul\":927:930   */\n      0x00\n        /* \"#utility.yul\":948:1015   */\n      tag_67\n        /* \"#utility.yul\":1012:1014   */\n      0x0c\n        /* \"#utility.yul\":1007:1010   */\n      dup4\n        /* \"#utility.yul\":948:1015   */\n      tag_47\n      jump\t// in\n    tag_67:\n        /* \"#utility.yul\":941:1015   */\n      swap2\n      pop\n        /* \"#utility.yul\":1024:1117   */\n      tag_68\n        /* \"#utility.yul\":1113:1116   */\n      dup3\n        /* \"#utility.yul\":1024:1117   */\n      tag_48\n      jump\t// in\n    tag_68:\n        /* \"#utility.yul\":1142:1144   */\n      0x20\n        /* \"#utility.yul\":1137:1140   */\n      dup3\n        /* \"#utility.yul\":1133:1145   */\n      add\n        /* \"#utility.yul\":1126:1145   */\n      swap1\n      pop\n        /* \"#utility.yul\":785:1151   */\n      swap2\n      swap1\n      pop\n      jump\t// out\n        /* \"#utility.yul\":1157:1576   */\n    tag_26:\n        /* \"#utility.yul\":1323:1327   */\n      0x00\n        /* \"#utility.yul\":1361:1363   */\n      0x20\n        /* \"#utility.yul\":1350:1359   */\n      dup3\n        /* \"#utility.yul\":1346:1364   */\n      add\n        /* \"#utility.yul\":1338:1364   */\n      swap1\n      pop\n        /* \"#utility.yul\":1410:1419   */\n      dup2\n        /* \"#utility.yul\":1404:1408   */\n      dup2\n        /* \"#utility.yul\":1400:1420   */\n      sub\n        /* \"#utility.yul\":1396:1397   */\n      0x00\n        /* \"#utility.yul\":1385:1394   */\n      dup4\n        /* \"#utility.yul\":1381:1398   */\n      add\n        /* \"#utility.yul\":1374:1421   */\n      mstore\n        /* \"#utility.yul\":1438:1569   */\n      tag_70\n        /* \"#utility.yul\":1564:1568   */\n      dup2\n        /* \"#utility.yul\":1438:1569   */\n      tag_49\n      jump\t// in\n    tag_70:\n        /* \"#utility.yul\":1430:1569   */\n      swap1\n      pop\n        /* \"#utility.yul\":1157:1576   */\n      swap2\n      swap1\n      pop\n      jump\t// out\n        /* \"#utility.yul\":1582:1744   */\n    tag_50:\n        /* \"#utility.yul\":1722:1736   */\n      0x432e6261722063616c6c65640000000000000000000000000000000000000000\n        /* \"#utility.yul\":1718:1719   */\n      0x00\n        /* \"#utility.yul\":1710:1716   */\n      dup3\n        /* \"#utility.yul\":1706:1720   */\n      add\n        /* \"#utility.yul\":1699:1737   */\n      mstore\n        /* \"#utility.yul\":1582:1744   */\n      pop\n      jump\t// out\n        /* \"#utility.yul\":1750:2116   */\n    tag_51:\n        /* \"#utility.yul\":1892:1895   */\n      0x00\n        /* \"#utility.yul\":1913:1980   */\n      tag_73\n        /* \"#utility.yul\":1977:1979   */\n      0x0c\n        /* \"#utility.yul\":1972:1975   */\n      dup4\n        /* \"#utility.yul\":1913:1980   */\n      tag_47\n      jump\t// in\n    tag_73:\n        /* \"#utility.yul\":1906:1980   */\n      swap2\n      pop\n        /* \"#utility.yul\":1989:2082   */\n      tag_74\n        /* \"#utility.yul\":2078:2081   */\n      dup3\n        /* \"#utility.yul\":1989:2082   */\n      tag_50\n      jump\t// in\n    tag_74:\n        /* \"#utility.yul\":2107:2109   */\n      0x20\n        /* \"#utility.yul\":2102:2105   */\n      dup3\n        /* \"#utility.yul\":2098:2110   */\n      add\n        /* \"#utility.yul\":2091:2110   */\n      swap1\n      pop\n        /* \"#utility.yul\":1750:2116   */\n      swap2\n      swap1\n      pop\n      jump\t// out\n        /* \"#utility.yul\":2122:2541   */\n    tag_31:\n        /* \"#utility.yul\":2288:2292   */\n      0x00\n        /* \"#utility.yul\":2326:2328   */\n      0x20\n        /* \"#utility.yul\":2315:2324   */\n      dup3\n        /* \"#utility.yul\":2311:2329   */\n      add\n        /* \"#utility.yul\":2303:2329   */\n      swap1\n      pop\n        /* \"#utility.yul\":2375:2384   */\n      dup2\n        /* \"#utility.yul\":2369:2373   */\n      dup2\n        /* \"#utility.yul\":2365:2385   */\n      sub\n        /* \"#utility.yul\":2361:2362   */\n      0x00\n        /* \"#utility.yul\":2350:2359   */\n      dup4\n        /* \"#utility.yul\":2346:2363   */\n      add\n        /* \"#utility.yul\":2339:2386   */\n      mstore\n        /* \"#utility.yul\":2403:2534   */\n      tag_76\n        /* \"#utility.yul\":2529:2533   */\n      dup2\n        /* \"#utility.yul\":2403:2534   */\n      tag_51\n      jump\t// in\n    tag_76:\n        /* \"#utility.yul\":2395:2534   */\n      swap1\n      pop\n        /* \"#utility.yul\":2122:2541   */\n      swap2\n      swap1\n      pop\n      jump\t// out\n        /* \"#utility.yul\":2547:2709   */\n    tag_52:\n        /* \"#utility.yul\":2687:2701   */\n      0x412e666f6f2063616c6c65640000000000000000000000000000000000000000\n        /* \"#utility.yul\":2683:2684   */\n      0x00\n        /* \"#utility.yul\":2675:2681   */\n      dup3\n        /* \"#utility.yul\":2671:2685   */\n      add\n        /* \"#utility.yul\":2664:2702   */\n      mstore\n        /* \"#utility.yul\":2547:2709   */\n      pop\n      jump\t// out\n        /* \"#utility.yul\":2715:3081   */\n    tag_53:\n        /* \"#utility.yul\":2857:2860   */\n      0x00\n        /* \"#utility.yul\":2878:2945   */\n      tag_79\n        /* \"#utility.yul\":2942:2944   */\n      0x0c\n        /* \"#utility.yul\":2937:2940   */\n      dup4\n        /* \"#utility.yul\":2878:2945   */\n      tag_47\n      jump\t// in\n    tag_79:\n        /* \"#utility.yul\":2871:2945   */\n      swap2\n      pop\n        /* \"#utility.yul\":2954:3047   */\n      tag_80\n        /* \"#utility.yul\":3043:3046   */\n      dup3\n        /* \"#utility.yul\":2954:3047   */\n      tag_52\n      jump\t// in\n    tag_80:\n        /* \"#utility.yul\":3072:3074   */\n      0x20\n        /* \"#utility.yul\":3067:3070   */\n      dup3\n        /* \"#utility.yul\":3063:3075   */\n      add\n        /* \"#utility.yul\":3056:3075   */\n      swap1\n      pop\n        /* \"#utility.yul\":2715:3081   */\n      swap2\n      swap1\n      pop\n      jump\t// out\n        /* \"#utility.yul\":3087:3506   */\n    tag_36:\n        /* \"#utility.yul\":3253:3257   */\n      0x00\n        /* \"#utility.yul\":3291:3293   */\n      0x20\n        /* \"#utility.yul\":3280:3289   */\n      dup3\n        /* \"#utility.yul\":3276:3294   */\n      add\n        /* \"#utility.yul\":3268:3294   */\n      swap1\n      pop\n        /* \"#utility.yul\":3340:3349   */\n      dup2\n        /* \"#utility.yul\":3334:3338   */\n      dup2\n        /* \"#utility.yul\":3330:3350   */\n      sub\n        /* \"#utility.yul\":3326:3327   */\n      0x00\n        /* \"#utility.yul\":3315:3324   */\n      dup4\n        /* \"#utility.yul\":3311:3328   */\n      add\n        /* \"#utility.yul\":3304:3351   */\n      mstore\n        /* \"#utility.yul\":3368:3499   */\n      tag_82\n        /* \"#utility.yul\":3494:3498   */\n      dup2\n        /* \"#utility.yul\":3368:3499   */\n      tag_53\n      jump\t// in\n    tag_82:\n        /* \"#utility.yul\":3360:3499   */\n      swap1\n      pop\n        /* \"#utility.yul\":3087:3506   */\n      swap2\n      swap1\n      pop\n      jump\t// out\n        /* \"#utility.yul\":3512:3674   */\n    tag_54:\n        /* \"#utility.yul\":3652:3666   */\n      0x422e6261722063616c6c65640000000000000000000000000000000000000000\n        /* \"#utility.yul\":3648:3649   */\n      0x00\n        /* \"#utility.yul\":3640:3646   */\n      dup3\n        /* \"#utility.yul\":3636:3650   */\n      add\n        /* \"#utility.yul\":3629:3667   */\n      mstore\n        /* \"#utility.yul\":3512:3674   */\n      pop\n      jump\t// out\n        /* \"#utility.yul\":3680:4046   */\n    tag_55:\n        /* \"#utility.yul\":3822:3825   */\n      0x00\n        /* \"#utility.yul\":3843:3910   */\n      tag_85\n        /* \"#utility.yul\":3907:3909   */\n      0x0c\n        /* \"#utility.yul\":3902:3905   */\n      dup4\n        /* \"#utility.yul\":3843:3910   */\n      tag_47\n      jump\t// in\n    tag_85:\n        /* \"#utility.yul\":3836:3910   */\n      swap2\n      pop\n        /* \"#utility.yul\":3919:4012   */\n      tag_86\n        /* \"#utility.yul\":4008:4011   */\n      dup3\n        /* \"#utility.yul\":3919:4012   */\n      tag_54\n      jump\t// in\n    tag_86:\n        /* \"#utility.yul\":4037:4039   */\n      0x20\n        /* \"#utility.yul\":4032:4035   */\n      dup3\n        /* \"#utility.yul\":4028:4040   */\n      add\n        /* \"#utility.yul\":4021:4040   */\n      swap1\n      pop\n        /* \"#utility.yul\":3680:4046   */\n      swap2\n      swap1\n      pop\n      jump\t// out\n        /* \"#utility.yul\":4052:4471   */\n    tag_39:\n        /* \"#utility.yul\":4218:4222   */\n      0x00\n        /* \"#utility.yul\":4256:4258   */\n      0x20\n        /* \"#utility.yul\":4245:4254   */\n      dup3\n        /* \"#utility.yul\":4241:4259   */\n      add\n        /* \"#utility.yul\":4233:4259   */\n      swap1\n      pop\n        /* \"#utility.yul\":4305:4314   */\n      dup2\n        /* \"#utility.yul\":4299:4303   */\n      dup2\n        /* \"#utility.yul\":4295:4315   */\n      sub\n        /* \"#utility.yul\":4291:4292   */\n      0x00\n        /* \"#utility.yul\":4280:4289   */\n      dup4\n        /* \"#utility.yul\":4276:4293   */\n      add\n        /* \"#utility.yul\":4269:4316   */\n      mstore\n        /* \"#utility.yul\":4333:4464   */\n      tag_88\n        /* \"#utility.yul\":4459:4463   */\n      dup2\n        /* \"#utility.yul\":4333:4464   */\n      tag_55\n      jump\t// in\n    tag_88:\n        /* \"#utility.yul\":4325:4464   */\n      swap1\n      pop\n        /* \"#utility.yul\":4052:4471   */\n      swap2\n      swap1\n      pop\n      jump\t// out\n        /* \"#utility.yul\":4477:4639   */\n    tag_56:\n        /* \"#utility.yul\":4617:4631   */\n      0x412e6261722063616c6c65640000000000000000000000000000000000000000\n        /* \"#utility.yul\":4613:4614   */\n      0x00\n        /* \"#utility.yul\":4605:4611   */\n      dup3\n        /* \"#utility.yul\":4601:4615   */\n      add\n        /* \"#utility.yul\":4594:4632   */\n      mstore\n        /* \"#utility.yul\":4477:4639   */\n      pop\n      jump\t// out\n        /* \"#utility.yul\":4645:5011   */\n    tag_57:\n        /* \"#utility.yul\":4787:4790   */\n      0x00\n        /* \"#utility.yul\":4808:4875   */\n      tag_91\n        /* \"#utility.yul\":4872:4874   */\n      0x0c\n        /* \"#utility.yul\":4867:4870   */\n      dup4\n        /* \"#utility.yul\":4808:4875   */\n      tag_47\n      jump\t// in\n    tag_91:\n        /* \"#utility.yul\":4801:4875   */\n      swap2\n      pop\n        /* \"#utility.yul\":4884:4977   */\n      tag_92\n        /* \"#utility.yul\":4973:4976   */\n      dup3\n        /* \"#utility.yul\":4884:4977   */\n      tag_56\n      jump\t// in\n    tag_92:\n        /* \"#utility.yul\":5002:5004   */\n      0x20\n        /* \"#utility.yul\":4997:5000   */\n      dup3\n        /* \"#utility.yul\":4993:5005   */\n      add\n        /* \"#utility.yul\":4986:5005   */\n      swap1\n      pop\n        /* \"#utility.yul\":4645:5011   */\n      swap2\n      swap1\n      pop\n      jump\t// out\n        /* \"#utility.yul\":5017:5436   */\n    tag_44:\n        /* \"#utility.yul\":5183:5187   */\n      0x00\n        /* \"#utility.yul\":5221:5223   */\n      0x20\n        /* \"#utility.yul\":5210:5219   */\n      dup3\n        /* \"#utility.yul\":5206:5224   */\n      add\n        /* \"#utility.yul\":5198:5224   */\n      swap1\n      pop\n        /* \"#utility.yul\":5270:5279   */\n      dup2\n        /* \"#utility.yul\":5264:5268   */\n      dup2\n        /* \"#utility.yul\":5260:5280   */\n      sub\n        /* \"#utility.yul\":5256:5257   */\n      0x00\n        /* \"#utility.yul\":5245:5254   */\n      dup4\n        /* \"#utility.yul\":5241:5258   */\n      add\n        /* \"#utility.yul\":5234:5281   */\n      mstore\n        /* \"#utility.yul\":5298:5429   */\n      tag_94\n        /* \"#utility.yul\":5424:5428   */\n      dup2\n        /* \"#utility.yul\":5298:5429   */\n      tag_57\n      jump\t// in\n    tag_94:\n        /* \"#utility.yul\":5290:5429   */\n      swap1\n      pop\n        /* \"#utility.yul\":5017:5436   */\n      swap2\n      swap1\n      pop\n      jump\t// out\n\n    auxdata: 0xa264697066735822122059b5b92b84943b9eda5bd9ba91c93dfc36c462a256b2a75ad3b5cc75927a20ed64736f6c634300080e0033\n}\n",
				"bytecode": {
					"linkReferences": {},
					"object": "6080604052600a60005534801561001557600080fd5b50610473806100256000396000f3fe608060405234801561001057600080fd5b506004361061004c5760003560e01c80638381f58a1461005157806394e791381461006f578063c298557814610079578063febb0f7e14610083575b600080fd5b61005961008d565b60405161006691906101f5565b60405180910390f35b610077610093565b005b61008161009d565b005b61008b6100a7565b005b60005481565b6014600081905550565b6100a56100b1565b565b6100af6100f0565b565b7fcf34ef537ac33ee1ac626ca1587a0a7e8e51561e5514f8cb36afa1c5102b3bab6040516100de9061026d565b60405180910390a16100ee61012f565b565b7fcf34ef537ac33ee1ac626ca1587a0a7e8e51561e5514f8cb36afa1c5102b3bab60405161011d906102d9565b60405180910390a161012d610166565b565b7fcf34ef537ac33ee1ac626ca1587a0a7e8e51561e5514f8cb36afa1c5102b3bab60405161015c90610345565b60405180910390a1565b7fcf34ef537ac33ee1ac626ca1587a0a7e8e51561e5514f8cb36afa1c5102b3bab604051610193906103b1565b60405180910390a16101a36101a5565b565b7fcf34ef537ac33ee1ac626ca1587a0a7e8e51561e5514f8cb36afa1c5102b3bab6040516101d29061041d565b60405180910390a1565b6000819050919050565b6101ef816101dc565b82525050565b600060208201905061020a60008301846101e6565b92915050565b600082825260208201905092915050565b7f432e666f6f2063616c6c65640000000000000000000000000000000000000000600082015250565b6000610257600c83610210565b915061026282610221565b602082019050919050565b600060208201905081810360008301526102868161024a565b9050919050565b7f432e6261722063616c6c65640000000000000000000000000000000000000000600082015250565b60006102c3600c83610210565b91506102ce8261028d565b602082019050919050565b600060208201905081810360008301526102f2816102b6565b9050919050565b7f412e666f6f2063616c6c65640000000000000000000000000000000000000000600082015250565b600061032f600c83610210565b915061033a826102f9565b602082019050919050565b6000602082019050818103600083015261035e81610322565b9050919050565b7f422e6261722063616c6c65640000000000000000000000000000000000000000600082015250565b600061039b600c83610210565b91506103a682610365565b602082019050919050565b600060208201905081810360008301526103ca8161038e565b9050919050565b7f412e6261722063616c6c65640000000000000000000000000000000000000000600082015250565b6000610407600c83610210565b9150610412826103d1565b602082019050919050565b60006020820190508181036000830152610436816103fa565b905091905056fea264697066735822122059b5b92b84943b9eda5bd9ba91c93dfc36c462a256b2a75ad3b5cc75927a20ed64736f6c634300080e0033",
					"opcodes": "PUSH1 0x80 PUSH1 0x40 MSTORE PUSH1 0xA PUSH1 0x0 SSTORE CALLVALUE DUP1 ISZERO PUSH2 0x15 JUMPI PUSH1 0x0 DUP1 REVERT JUMPDEST POP PUSH2 0x473 DUP1 PUSH2 0x25 PUSH1 0x0 CODECOPY PUSH1 0x0 RETURN INVALID PUSH1 0x80 PUSH1 0x40 MSTORE CALLVALUE DUP1 ISZERO PUSH2 0x10 JUMPI PUSH1 0x0 DUP1 REVERT JUMPDEST POP PUSH1 0x4 CALLDATASIZE LT PUSH2 0x4C JUMPI PUSH1 0x0 CALLDATALOAD PUSH1 0xE0 SHR DUP1 PUSH4 0x8381F58A EQ PUSH2 0x51 JUMPI DUP1 PUSH4 0x94E79138 EQ PUSH2 0x6F JUMPI DUP1 PUSH4 0xC2985578 EQ PUSH2 0x79 JUMPI DUP1 PUSH4 0xFEBB0F7E EQ PUSH2 0x83 JUMPI JUMPDEST PUSH1 0x0 DUP1 REVERT JUMPDEST PUSH2 0x59 PUSH2 0x8D JUMP JUMPDEST PUSH1 0x40 MLOAD PUSH2 0x66 SWAP2 SWAP1 PUSH2 0x1F5 JUMP JUMPDEST PUSH1 0x40 MLOAD DUP1 SWAP2 SUB SWAP1 RETURN JUMPDEST PUSH2 0x77 PUSH2 0x93 JUMP JUMPDEST STOP JUMPDEST PUSH2 0x81 PUSH2 0x9D JUMP JUMPDEST STOP JUMPDEST PUSH2 0x8B PUSH2 0xA7 JUMP JUMPDEST STOP JUMPDEST PUSH1 0x0 SLOAD DUP2 JUMP JUMPDEST PUSH1 0x14 PUSH1 0x0 DUP2 SWAP1 SSTORE POP JUMP JUMPDEST PUSH2 0xA5 PUSH2 0xB1 JUMP JUMPDEST JUMP JUMPDEST PUSH2 0xAF PUSH2 0xF0 JUMP JUMPDEST JUMP JUMPDEST PUSH32 0xCF34EF537AC33EE1AC626CA1587A0A7E8E51561E5514F8CB36AFA1C5102B3BAB PUSH1 0x40 MLOAD PUSH2 0xDE SWAP1 PUSH2 0x26D JUMP JUMPDEST PUSH1 0x40 MLOAD DUP1 SWAP2 SUB SWAP1 LOG1 PUSH2 0xEE PUSH2 0x12F JUMP JUMPDEST JUMP JUMPDEST PUSH32 0xCF34EF537AC33EE1AC626CA1587A0A7E8E51561E5514F8CB36AFA1C5102B3BAB PUSH1 0x40 MLOAD PUSH2 0x11D SWAP1 PUSH2 0x2D9 JUMP JUMPDEST PUSH1 0x40 MLOAD DUP1 SWAP2 SUB SWAP1 LOG1 PUSH2 0x12D PUSH2 0x166 JUMP JUMPDEST JUMP JUMPDEST PUSH32 0xCF34EF537AC33EE1AC626CA1587A0A7E8E51561E5514F8CB36AFA1C5102B3BAB PUSH1 0x40 MLOAD PUSH2 0x15C SWAP1 PUSH2 0x345 JUMP JUMPDEST PUSH1 0x40 MLOAD DUP1 SWAP2 SUB SWAP1 LOG1 JUMP JUMPDEST PUSH32 0xCF34EF537AC33EE1AC626CA1587A0A7E8E51561E5514F8CB36AFA1C5102B3BAB PUSH1 0x40 MLOAD PUSH2 0x193 SWAP1 PUSH2 0x3B1 JUMP JUMPDEST PUSH1 0x40 MLOAD DUP1 SWAP2 SUB SWAP1 LOG1 PUSH2 0x1A3 PUSH2 0x1A5 JUMP JUMPDEST JUMP JUMPDEST PUSH32 0xCF34EF537AC33EE1AC626CA1587A0A7E8E51561E5514F8CB36AFA1C5102B3BAB PUSH1 0x40 MLOAD PUSH2 0x1D2 SWAP1 PUSH2 0x41D JUMP JUMPDEST PUSH1 0x40 MLOAD DUP1 SWAP2 SUB SWAP1 LOG1 JUMP JUMPDEST PUSH1 0x0 DUP2 SWAP1 POP SWAP2 SWAP1 POP JUMP JUMPDEST PUSH2 0x1EF DUP2 PUSH2 0x1DC JUMP JUMPDEST DUP3 MSTORE POP POP JUMP JUMPDEST PUSH1 0x0 PUSH1 0x20 DUP3 ADD SWAP1 POP PUSH2 0x20A PUSH1 0x0 DUP4 ADD DUP5 PUSH2 0x1E6 JUMP JUMPDEST SWAP3 SWAP2 POP POP JUMP JUMPDEST PUSH1 0x0 DUP3 DUP3 MSTORE PUSH1 0x20 DUP3 ADD SWAP1 POP SWAP3 SWAP2 POP POP JUMP JUMPDEST PUSH32 0x432E666F6F2063616C6C65640000000000000000000000000000000000000000 PUSH1 0x0 DUP3 ADD MSTORE POP JUMP JUMPDEST PUSH1 0x0 PUSH2 0x257 PUSH1 0xC DUP4 PUSH2 0x210 JUMP JUMPDEST SWAP2 POP PUSH2 0x262 DUP3 PUSH2 0x221 JUMP JUMPDEST PUSH1 0x20 DUP3 ADD SWAP1 POP SWAP2 SWAP1 POP JUMP JUMPDEST PUSH1 0x0 PUSH1 0x20 DUP3 ADD SWAP1 POP DUP2 DUP2 SUB PUSH1 0x0 DUP4 ADD MSTORE PUSH2 0x286 DUP2 PUSH2 0x24A JUMP JUMPDEST SWAP1 POP SWAP2 SWAP1 POP JUMP JUMPDEST PUSH32 0x432E6261722063616C6C65640000000000000000000000000000000000000000 PUSH1 0x0 DUP3 ADD MSTORE POP JUMP JUMPDEST PUSH1 0x0 PUSH2 0x2C3 PUSH1 0xC DUP4 PUSH2 0x210 JUMP JUMPDEST SWAP2 POP PUSH2 0x2CE DUP3 PUSH2 0x28D JUMP JUMPDEST PUSH1 0x20 DUP3 ADD SWAP1 POP SWAP2 SWAP1 POP JUMP JUMPDEST PUSH1 0x0 PUSH1 0x20 DUP3 ADD SWAP1 POP DUP2 DUP2 SUB PUSH1 0x0 DUP4 ADD MSTORE PUSH2 0x2F2 DUP2 PUSH2 0x2B6 JUMP JUMPDEST SWAP1 POP SWAP2 SWAP1 POP JUMP JUMPDEST PUSH32 0x412E666F6F2063616C6C65640000000000000000000000000000000000000000 PUSH1 0x0 DUP3 ADD MSTORE POP JUMP JUMPDEST PUSH1 0x0 PUSH2 0x32F PUSH1 0xC DUP4 PUSH2 0x210 JUMP JUMPDEST SWAP2 POP PUSH2 0x33A DUP3 PUSH2 0x2F9 JUMP JUMPDEST PUSH1 0x20 DUP3 ADD SWAP1 POP SWAP2 SWAP1 POP JUMP JUMPDEST PUSH1 0x0 PUSH1 0x20 DUP3 ADD SWAP1 POP DUP2 DUP2 SUB PUSH1 0x0 DUP4 ADD MSTORE PUSH2 0x35E DUP2 PUSH2 0x322 JUMP JUMPDEST SWAP1 POP SWAP2 SWAP1 POP JUMP JUMPDEST PUSH32 0x422E6261722063616C6C65640000000000000000000000000000000000000000 PUSH1 0x0 DUP3 ADD MSTORE POP JUMP JUMPDEST PUSH1 0x0 PUSH2 0x39B PUSH1 0xC DUP4 PUSH2 0x210 JUMP JUMPDEST SWAP2 POP PUSH2 0x3A6 DUP3 PUSH2 0x365 JUMP JUMPDEST PUSH1 0x20 DUP3 ADD SWAP1 POP SWAP2 SWAP1 POP JUMP JUMPDEST PUSH1 0x0 PUSH1 0x20 DUP3 ADD SWAP1 POP DUP2 DUP2 SUB PUSH1 0x0 DUP4 ADD MSTORE PUSH2 0x3CA DUP2 PUSH2 0x38E JUMP JUMPDEST SWAP1 POP SWAP2 SWAP1 POP JUMP JUMPDEST PUSH32 0x412E6261722063616C6C65640000000000000000000000000000000000000000 PUSH1 0x0 DUP3 ADD MSTORE POP JUMP JUMPDEST PUSH1 0x0 PUSH2 0x407 PUSH1 0xC DUP4 PUSH2 0x210 JUMP JUMPDEST SWAP2 POP PUSH2 0x412 DUP3 PUSH2 0x3D1 JUMP JUMPDEST PUSH1 0x20 DUP3 ADD SWAP1 POP SWAP2 SWAP1 POP JUMP JUMPDEST PUSH1 0x0 PUSH1 0x20 DUP3 ADD SWAP1 POP DUP2 DUP2 SUB PUSH1 0x0 DUP4 ADD MSTORE PUSH2 0x436 DUP2 PUSH2 0x3FA JUMP JUMPDEST SWAP1 POP SWAP2 SWAP1 POP JUMP INVALID LOG2 PUSH5 0x6970667358 0x22 SLT KECCAK256 MSIZE 0xB5 0xB9 0x2B DUP5 SWAP5 EXTCODESIZE SWAP15 0xDA JUMPDEST 0xD9 0xBA SWAP2 0xC9 RETURNDATASIZE 0xFC CALLDATASIZE 0xC4 PUSH3 0xA256B2 0xA7 GAS 0xD3 0xB5 0xCC PUSH22 0x927A20ED64736F6C634300080E003300000000000000 "
				},
				"gasEstimates": {
					"creation": {
						"codeDepositCost": "227800",
						"executionCost": "22375",
						"totalCost": "250175"
					},
					"external": {
						"bar()": "infinite",
						"foo()": "infinite",
						"number()": "2407",
						"setnumber()": "22258"
					}
				},
				"methodIdentifiers": {
					"bar()": "febb0f7e",
					"foo()": "c2985578",
					"number()": "8381f58a",
					"setnumber()": "94e79138"
				}
			},
			"storageLayout": {
				"storage": [
					{
						"astId": 8,
						"contract": "Atest.sol:D",
						"label": "number",
						"offset": 0,
						"slot": "0",
						"type": "t_uint256"
					}
				],
				"types": {
					"t_uint256": {
						"encoding": "inplace",
						"label": "uint256",
						"numberOfBytes": "32"
					}
				}
			},
			"userdoc": {
				"kind": "user",
				"methods": {},
				"version": 1
			}
		}
	}
}