{
	"msc_token/MscVesting.sol": {
		"MscVesting": {
			"abi": [
				{
					"inputs": [
						{
							"internalType": "address",
							"name": "beneficiary",
							"type": "address"
						},
						{
							"internalType": "uint256",
							"name": "start",
							"type": "uint256"
						},
						{
							"internalType": "uint256",
							"name": "cliffDuration",
							"type": "uint256"
						},
						{
							"internalType": "uint256",
							"name": "duration",
							"type": "uint256"
						},
						{
							"internalType": "bool",
							"name": "revocable",
							"type": "bool"
						}
					],
					"payable": false,
					"stateMutability": "nonpayable",
					"type": "constructor"
				},
				{
					"anonymous": false,
					"inputs": [
						{
							"indexed": true,
							"internalType": "address",
							"name": "previousOwner",
							"type": "address"
						},
						{
							"indexed": true,
							"internalType": "address",
							"name": "newOwner",
							"type": "address"
						}
					],
					"name": "OwnershipTransferred",
					"type": "event"
				},
				{
					"anonymous": false,
					"inputs": [
						{
							"indexed": false,
							"internalType": "address",
							"name": "token",
							"type": "address"
						}
					],
					"name": "TokenVestingRevoked",
					"type": "event"
				},
				{
					"anonymous": false,
					"inputs": [
						{
							"indexed": false,
							"internalType": "address",
							"name": "token",
							"type": "address"
						},
						{
							"indexed": false,
							"internalType": "uint256",
							"name": "amount",
							"type": "uint256"
						}
					],
					"name": "TokensReleased",
					"type": "event"
				},
				{
					"constant": true,
					"inputs": [],
					"name": "beneficiary",
					"outputs": [
						{
							"internalType": "address",
							"name": "",
							"type": "address"
						}
					],
					"payable": false,
					"stateMutability": "view",
					"type": "function"
				},
				{
					"constant": true,
					"inputs": [],
					"name": "cliff",
					"outputs": [
						{
							"internalType": "uint256",
							"name": "",
							"type": "uint256"
						}
					],
					"payable": false,
					"stateMutability": "view",
					"type": "function"
				},
				{
					"constant": true,
					"inputs": [],
					"name": "duration",
					"outputs": [
						{
							"internalType": "uint256",
							"name": "",
							"type": "uint256"
						}
					],
					"payable": false,
					"stateMutability": "view",
					"type": "function"
				},
				{
					"constant": true,
					"inputs": [],
					"name": "isOwner",
					"outputs": [
						{
							"internalType": "bool",
							"name": "",
							"type": "bool"
						}
					],
					"payable": false,
					"stateMutability": "view",
					"type": "function"
				},
				{
					"constant": true,
					"inputs": [],
					"name": "owner",
					"outputs": [
						{
							"internalType": "address",
							"name": "",
							"type": "address"
						}
					],
					"payable": false,
					"stateMutability": "view",
					"type": "function"
				},
				{
					"constant": false,
					"inputs": [
						{
							"internalType": "contract IERC20",
							"name": "token",
							"type": "address"
						}
					],
					"name": "release",
					"outputs": [],
					"payable": false,
					"stateMutability": "nonpayable",
					"type": "function"
				},
				{
					"constant": true,
					"inputs": [
						{
							"internalType": "address",
							"name": "token",
							"type": "address"
						}
					],
					"name": "released",
					"outputs": [
						{
							"internalType": "uint256",
							"name": "",
							"type": "uint256"
						}
					],
					"payable": false,
					"stateMutability": "view",
					"type": "function"
				},
				{
					"constant": false,
					"inputs": [],
					"name": "renounceOwnership",
					"outputs": [],
					"payable": false,
					"stateMutability": "nonpayable",
					"type": "function"
				},
				{
					"constant": true,
					"inputs": [],
					"name": "revocable",
					"outputs": [
						{
							"internalType": "bool",
							"name": "",
							"type": "bool"
						}
					],
					"payable": false,
					"stateMutability": "view",
					"type": "function"
				},
				{
					"constant": false,
					"inputs": [
						{
							"internalType": "contract IERC20",
							"name": "token",
							"type": "address"
						}
					],
					"name": "revoke",
					"outputs": [],
					"payable": false,
					"stateMutability": "nonpayable",
					"type": "function"
				},
				{
					"constant": true,
					"inputs": [
						{
							"internalType": "address",
							"name": "token",
							"type": "address"
						}
					],
					"name": "revoked",
					"outputs": [
						{
							"internalType": "bool",
							"name": "",
							"type": "bool"
						}
					],
					"payable": false,
					"stateMutability": "view",
					"type": "function"
				},
				{
					"constant": true,
					"inputs": [],
					"name": "start",
					"outputs": [
						{
							"internalType": "uint256",
							"name": "",
							"type": "uint256"
						}
					],
					"payable": false,
					"stateMutability": "view",
					"type": "function"
				},
				{
					"constant": false,
					"inputs": [
						{
							"internalType": "address",
							"name": "newOwner",
							"type": "address"
						}
					],
					"name": "transferOwnership",
					"outputs": [],
					"payable": false,
					"stateMutability": "nonpayable",
					"type": "function"
				}
			],
			"devdoc": {
				"methods": {
					"beneficiary()": {
						"return": "the beneficiary of the tokens."
					},
					"cliff()": {
						"return": "the cliff time of the token vesting."
					},
					"duration()": {
						"return": "the duration of the token vesting."
					},
					"isOwner()": {
						"details": "Returns true if the caller is the current owner."
					},
					"owner()": {
						"details": "Returns the address of the current owner."
					},
					"release(address)": {
						"params": {
							"token": "ERC20 token which is being vested"
						}
					},
					"released(address)": {
						"return": "the amount of the token released."
					},
					"renounceOwnership()": {
						"details": "Leaves the contract without owner. It will not be possible to call `onlyOwner` functions anymore. Can only be called by the current owner.     * NOTE: Renouncing ownership will leave the contract without an owner, thereby removing any functionality that is only available to the owner."
					},
					"revocable()": {
						"return": "true if the vesting is revocable."
					},
					"revoke(address)": {
						"params": {
							"token": "ERC20 token which is being vested"
						}
					},
					"revoked(address)": {
						"return": "true if the token is revoked."
					},
					"start()": {
						"return": "the start time of the token vesting."
					},
					"transferOwnership(address)": {
						"details": "Transfers ownership of the contract to a new account (`newOwner`). Can only be called by the current owner."
					}
				}
			},
			"evm": {
				"assembly": "    /* \"msc_token/MscVesting.sol\":119:377  contract MscVesting is TokenVesting {\r... */\n  mstore(0x40, 0x80)\n    /* \"msc_token/MscVesting.sol\":162:374  constructor (address beneficiary, uint256 start, uint256 cliffDuration, uint256 duration, bool revocable) \r... */\n  callvalue\n    /* \"--CODEGEN--\":8:17   */\n  dup1\n    /* \"--CODEGEN--\":5:7   */\n  iszero\n  tag_1\n  jumpi\n    /* \"--CODEGEN--\":30:31   */\n  0x00\n    /* \"--CODEGEN--\":27:28   */\n  dup1\n    /* \"--CODEGEN--\":20:32   */\n  revert\n    /* \"--CODEGEN--\":5:7   */\ntag_1:\n    /* \"msc_token/MscVesting.sol\":162:374  constructor (address beneficiary, uint256 start, uint256 cliffDuration, uint256 duration, bool revocable) \r... */\n  pop\n  mload(0x40)\n  sub(codesize, bytecodeSize)\n  dup1\n  bytecodeSize\n  dup4\n  codecopy\n  dup2\n  dup2\n  add\n  0x40\n  mstore\n    /* \"--CODEGEN--\":13:16   */\n  0xa0\n    /* \"--CODEGEN--\":8:11   */\n  dup2\n    /* \"--CODEGEN--\":5:17   */\n  lt\n    /* \"--CODEGEN--\":2:4   */\n  iszero\n  tag_2\n  jumpi\n    /* \"--CODEGEN--\":30:31   */\n  0x00\n    /* \"--CODEGEN--\":27:28   */\n  dup1\n    /* \"--CODEGEN--\":20:32   */\n  revert\n    /* \"--CODEGEN--\":2:4   */\ntag_2:\n  pop\n    /* \"msc_token/MscVesting.sol\":162:374  constructor (address beneficiary, uint256 start, uint256 cliffDuration, uint256 duration, bool revocable) \r... */\n  dup1\n  mload\n  0x20\n  dup3\n  add\n  mload\n  0x40\n  dup4\n  add\n  mload\n  0x60\n  dup5\n  add\n  mload\n  0x80\n  swap1\n  swap5\n  add\n  mload\n  swap3\n  swap4\n  swap2\n  swap3\n  swap1\n  swap2\n  swap1\n  dup5\n  dup5\n  dup5\n  dup5\n  dup5\n    /* \"msc_token/node_modules/@openzeppelin@2.5.0/contracts/ownership/Ownable.sol\":698:715  address msgSender */\n  0x00\n    /* \"msc_token/node_modules/@openzeppelin@2.5.0/contracts/ownership/Ownable.sol\":718:730  _msgSender() */\n  tag_9\n  sub(shl(0xe0, 0x01), 0x01)\n    /* \"msc_token/node_modules/@openzeppelin@2.5.0/contracts/ownership/Ownable.sol\":718:728  _msgSender */\n  tag_10\n    /* \"msc_token/node_modules/@openzeppelin@2.5.0/contracts/ownership/Ownable.sol\":718:730  _msgSender() */\n  and\n  jump\t// in\ntag_9:\n    /* \"msc_token/node_modules/@openzeppelin@2.5.0/contracts/ownership/Ownable.sol\":740:746  _owner */\n  0x00\n    /* \"msc_token/node_modules/@openzeppelin@2.5.0/contracts/ownership/Ownable.sol\":740:758  _owner = msgSender */\n  dup1\n  sload\n  not(sub(shl(0xa0, 0x01), 0x01))\n  and\n  sub(shl(0xa0, 0x01), 0x01)\n  dup4\n  and\n  swap1\n  dup2\n  or\n  dup3\n  sstore\n    /* \"msc_token/node_modules/@openzeppelin@2.5.0/contracts/ownership/Ownable.sol\":773:816  OwnershipTransferred(address(0), msgSender) */\n  mload(0x40)\n    /* \"msc_token/node_modules/@openzeppelin@2.5.0/contracts/ownership/Ownable.sol\":740:758  _owner = msgSender */\n  swap3\n  swap4\n  pop\n  swap2\n    /* \"msc_token/node_modules/@openzeppelin@2.5.0/contracts/ownership/Ownable.sol\":773:816  OwnershipTransferred(address(0), msgSender) */\n  0x8be0079c531659141344cd1fd0a4f28419497f9722a3daafe3b4186f6b6457e0\n  swap1\n    /* \"msc_token/node_modules/@openzeppelin@2.5.0/contracts/ownership/Ownable.sol\":740:746  _owner */\n  dup3\n  swap1\n    /* \"msc_token/node_modules/@openzeppelin@2.5.0/contracts/ownership/Ownable.sol\":773:816  OwnershipTransferred(address(0), msgSender) */\n  log3\n  pop\n  sub(shl(0xa0, 0x01), 0x01)\n    /* \"msc_token/node_modules/@openzeppelin@2.5.0/contracts/drafts/TokenVesting.sol\":2194:2219  beneficiary != address(0) */\n  dup6\n  and\n    /* \"msc_token/node_modules/@openzeppelin@2.5.0/contracts/drafts/TokenVesting.sol\":2186:2269  require(beneficiary != address(0), \"TokenVesting: beneficiary is the zero address\") */\n  tag_12\n  jumpi\n  mload(0x40)\n  shl(0xe5, 0x461bcd)\n  dup2\n  mstore\n  0x04\n  add\n  dup1\n  dup1\n  0x20\n  add\n  dup3\n  dup2\n  sub\n  dup3\n  mstore\n  0x2d\n  dup2\n  mstore\n  0x20\n  add\n  dup1\n  data_2418688d011b8e0830741b4ef5b95d25f3075f5a8407237c54796d2479ff21e5\n  0x2d\n  swap2\n  codecopy\n  0x40\n  add\n  swap2\n  pop\n  pop\n  mload(0x40)\n  dup1\n  swap2\n  sub\n  swap1\n  revert\ntag_12:\n    /* \"msc_token/node_modules/@openzeppelin@2.5.0/contracts/drafts/TokenVesting.sol\":2357:2365  duration */\n  dup2\n    /* \"msc_token/node_modules/@openzeppelin@2.5.0/contracts/drafts/TokenVesting.sol\":2340:2353  cliffDuration */\n  dup4\n    /* \"msc_token/node_modules/@openzeppelin@2.5.0/contracts/drafts/TokenVesting.sol\":2340:2365  cliffDuration <= duration */\n  gt\n  iszero\n    /* \"msc_token/node_modules/@openzeppelin@2.5.0/contracts/drafts/TokenVesting.sol\":2332:2413  require(cliffDuration <= duration, \"TokenVesting: cliff is longer than duration\") */\n  tag_13\n  jumpi\n  mload(0x40)\n  shl(0xe5, 0x461bcd)\n  dup2\n  mstore\n  0x04\n  add\n  dup1\n  dup1\n  0x20\n  add\n  dup3\n  dup2\n  sub\n  dup3\n  mstore\n  0x2b\n  dup2\n  mstore\n  0x20\n  add\n  dup1\n  data_55ace87003babd1f6117ec273f0418f272f297af3b174d10868ec42a4d37881d\n  0x2b\n  swap2\n  codecopy\n  0x40\n  add\n  swap2\n  pop\n  pop\n  mload(0x40)\n  dup1\n  swap2\n  sub\n  swap1\n  revert\ntag_13:\n    /* \"msc_token/node_modules/@openzeppelin@2.5.0/contracts/drafts/TokenVesting.sol\":2442:2443  0 */\n  0x00\n    /* \"msc_token/node_modules/@openzeppelin@2.5.0/contracts/drafts/TokenVesting.sol\":2431:2439  duration */\n  dup3\n    /* \"msc_token/node_modules/@openzeppelin@2.5.0/contracts/drafts/TokenVesting.sol\":2431:2443  duration > 0 */\n  gt\n    /* \"msc_token/node_modules/@openzeppelin@2.5.0/contracts/drafts/TokenVesting.sol\":2423:2475  require(duration > 0, \"TokenVesting: duration is 0\") */\n  tag_14\n  jumpi\n  0x40\n  dup1\n  mload\n  shl(0xe5, 0x461bcd)\n  dup2\n  mstore\n  0x20\n  0x04\n  dup3\n  add\n  mstore\n  0x1b\n  0x24\n  dup3\n  add\n  mstore\n  0x546f6b656e56657374696e673a206475726174696f6e20697320300000000000\n  0x44\n  dup3\n  add\n  mstore\n  swap1\n  mload\n  swap1\n  dup2\n  swap1\n  sub\n  0x64\n  add\n  swap1\n  revert\ntag_14:\n    /* \"msc_token/node_modules/@openzeppelin@2.5.0/contracts/drafts/TokenVesting.sol\":2568:2583  block.timestamp */\n  timestamp\n    /* \"msc_token/node_modules/@openzeppelin@2.5.0/contracts/drafts/TokenVesting.sol\":2546:2565  start.add(duration) */\n  tag_15\n    /* \"msc_token/node_modules/@openzeppelin@2.5.0/contracts/drafts/TokenVesting.sol\":2556:2564  duration */\n  dup4\n    /* \"msc_token/node_modules/@openzeppelin@2.5.0/contracts/drafts/TokenVesting.sol\":2546:2551  start */\n  dup7\n    /* \"msc_token/node_modules/@openzeppelin@2.5.0/contracts/drafts/TokenVesting.sol\":2546:2555  start.add */\n  or(tag_0_56, shl(0x20, tag_16))\n  swap1\n    /* \"msc_token/node_modules/@openzeppelin@2.5.0/contracts/drafts/TokenVesting.sol\":2546:2565  start.add(duration) */\n  swap2\n  swap1\n  0x20\n  shr\n  jump\t// in\ntag_15:\n    /* \"msc_token/node_modules/@openzeppelin@2.5.0/contracts/drafts/TokenVesting.sol\":2546:2583  start.add(duration) > block.timestamp */\n  gt\n    /* \"msc_token/node_modules/@openzeppelin@2.5.0/contracts/drafts/TokenVesting.sol\":2538:2635  require(start.add(duration) > block.timestamp, \"TokenVesting: final time is before current time\") */\n  tag_17\n  jumpi\n  mload(0x40)\n  shl(0xe5, 0x461bcd)\n  dup2\n  mstore\n  0x04\n  add\n  dup1\n  dup1\n  0x20\n  add\n  dup3\n  dup2\n  sub\n  dup3\n  mstore\n  0x2f\n  dup2\n  mstore\n  0x20\n  add\n  dup1\n  data_201180e9ff8e768a63b561d29176411904f8fcde7632c57246c9453c111de99f\n  0x2f\n  swap2\n  codecopy\n  0x40\n  add\n  swap2\n  pop\n  pop\n  mload(0x40)\n  dup1\n  swap2\n  sub\n  swap1\n  revert\ntag_17:\n    /* \"msc_token/node_modules/@openzeppelin@2.5.0/contracts/drafts/TokenVesting.sol\":2646:2658  _beneficiary */\n  0x01\n    /* \"msc_token/node_modules/@openzeppelin@2.5.0/contracts/drafts/TokenVesting.sol\":2646:2672  _beneficiary = beneficiary */\n  dup1\n  sload\n  not(sub(shl(0xa0, 0x01), 0x01))\n  and\n  sub(shl(0xa0, 0x01), 0x01)\n  dup8\n  and\n  or\n  swap1\n  sstore\n    /* \"msc_token/node_modules/@openzeppelin@2.5.0/contracts/drafts/TokenVesting.sol\":2682:2692  _revocable */\n  0x05\n    /* \"msc_token/node_modules/@openzeppelin@2.5.0/contracts/drafts/TokenVesting.sol\":2682:2704  _revocable = revocable */\n  dup1\n  sload\n  not(0xff)\n  and\n  dup3\n  iszero\n  iszero\n  or\n  swap1\n  sstore\n    /* \"msc_token/node_modules/@openzeppelin@2.5.0/contracts/drafts/TokenVesting.sol\":2714:2723  _duration */\n  0x04\n    /* \"msc_token/node_modules/@openzeppelin@2.5.0/contracts/drafts/TokenVesting.sol\":2714:2734  _duration = duration */\n  dup3\n  swap1\n  sstore\n    /* \"msc_token/node_modules/@openzeppelin@2.5.0/contracts/drafts/TokenVesting.sol\":2753:2777  start.add(cliffDuration) */\n  tag_18\n    /* \"msc_token/node_modules/@openzeppelin@2.5.0/contracts/drafts/TokenVesting.sol\":2753:2758  start */\n  dup5\n    /* \"msc_token/node_modules/@openzeppelin@2.5.0/contracts/drafts/TokenVesting.sol\":2763:2776  cliffDuration */\n  dup5\n    /* \"msc_token/node_modules/@openzeppelin@2.5.0/contracts/drafts/TokenVesting.sol\":2753:2762  start.add */\n  tag_16\n  0x20\n  swap1\n  dup2\n  shl\n  tag_0_56\n  or\n    /* \"msc_token/node_modules/@openzeppelin@2.5.0/contracts/drafts/TokenVesting.sol\":2753:2777  start.add(cliffDuration) */\n  swap1\n  shr\n  jump\t// in\ntag_18:\n    /* \"msc_token/node_modules/@openzeppelin@2.5.0/contracts/drafts/TokenVesting.sol\":2744:2750  _cliff */\n  0x02\n    /* \"msc_token/node_modules/@openzeppelin@2.5.0/contracts/drafts/TokenVesting.sol\":2744:2777  _cliff = start.add(cliffDuration) */\n  sstore\n  pop\n  pop\n  pop\n    /* \"msc_token/node_modules/@openzeppelin@2.5.0/contracts/drafts/TokenVesting.sol\":2787:2793  _start */\n  0x03\n    /* \"msc_token/node_modules/@openzeppelin@2.5.0/contracts/drafts/TokenVesting.sol\":2787:2801  _start = start */\n  sstore\n  pop\n    /* \"msc_token/MscVesting.sol\":119:377  contract MscVesting is TokenVesting {\r... */\n  tag_20\n  swap5\n  pop\n  pop\n  pop\n  pop\n  pop\n  jump\n    /* \"msc_token/node_modules/@openzeppelin@2.5.0/contracts/GSN/Context.sol\":788:884  function _msgSender() internal view returns (address payable) {... */\ntag_10:\n    /* \"msc_token/node_modules/@openzeppelin@2.5.0/contracts/GSN/Context.sol\":867:877  msg.sender */\n  caller\n    /* \"msc_token/node_modules/@openzeppelin@2.5.0/contracts/GSN/Context.sol\":788:884  function _msgSender() internal view returns (address payable) {... */\n  swap1\n  jump\t// out\n    /* \"msc_token/node_modules/@openzeppelin@2.5.0/contracts/math/SafeMath.sol\":834:1010  function add(uint256 a, uint256 b) internal pure returns (uint256) {... */\ntag_16:\n    /* \"msc_token/node_modules/@openzeppelin@2.5.0/contracts/math/SafeMath.sol\":892:899  uint256 */\n  0x00\n    /* \"msc_token/node_modules/@openzeppelin@2.5.0/contracts/math/SafeMath.sol\":923:928  a + b */\n  dup3\n  dup3\n  add\n    /* \"msc_token/node_modules/@openzeppelin@2.5.0/contracts/math/SafeMath.sol\":946:952  c >= a */\n  dup4\n  dup2\n  lt\n  iszero\n    /* \"msc_token/node_modules/@openzeppelin@2.5.0/contracts/math/SafeMath.sol\":938:984  require(c >= a, \"SafeMath: addition overflow\") */\n  tag_23\n  jumpi\n  0x40\n  dup1\n  mload\n  shl(0xe5, 0x461bcd)\n  dup2\n  mstore\n  0x20\n  0x04\n  dup3\n  add\n  mstore\n  0x1b\n  0x24\n  dup3\n  add\n  mstore\n  0x536166654d6174683a206164646974696f6e206f766572666c6f770000000000\n  0x44\n  dup3\n  add\n  mstore\n  swap1\n  mload\n  swap1\n  dup2\n  swap1\n  sub\n  0x64\n  add\n  swap1\n  revert\ntag_23:\n    /* \"msc_token/node_modules/@openzeppelin@2.5.0/contracts/math/SafeMath.sol\":1002:1003  c */\n  swap4\n    /* \"msc_token/node_modules/@openzeppelin@2.5.0/contracts/math/SafeMath.sol\":834:1010  function add(uint256 a, uint256 b) internal pure returns (uint256) {... */\n  swap3\n  pop\n  pop\n  pop\n  jump\t// out\n    /* \"msc_token/MscVesting.sol\":119:377  contract MscVesting is TokenVesting {\r... */\ntag_20:\n  dataSize(sub_0)\n  dup1\n  dataOffset(sub_0)\n  0x00\n  codecopy\n  0x00\n  return\nstop\ndata_201180e9ff8e768a63b561d29176411904f8fcde7632c57246c9453c111de99f 546f6b656e56657374696e673a2066696e616c2074696d65206973206265666f72652063757272656e742074696d65\ndata_2418688d011b8e0830741b4ef5b95d25f3075f5a8407237c54796d2479ff21e5 546f6b656e56657374696e673a2062656e656669636961727920697320746865207a65726f2061646472657373\ndata_55ace87003babd1f6117ec273f0418f272f297af3b174d10868ec42a4d37881d 546f6b656e56657374696e673a20636c696666206973206c6f6e676572207468616e206475726174696f6e\n\nsub_0: assembly {\n        /* \"msc_token/MscVesting.sol\":119:377  contract MscVesting is TokenVesting {\r... */\n      mstore(0x40, 0x80)\n      callvalue\n        /* \"--CODEGEN--\":8:17   */\n      dup1\n        /* \"--CODEGEN--\":5:7   */\n      iszero\n      tag_1\n      jumpi\n        /* \"--CODEGEN--\":30:31   */\n      0x00\n        /* \"--CODEGEN--\":27:28   */\n      dup1\n        /* \"--CODEGEN--\":20:32   */\n      revert\n        /* \"--CODEGEN--\":5:7   */\n    tag_1:\n        /* \"msc_token/MscVesting.sol\":119:377  contract MscVesting is TokenVesting {\r... */\n      pop\n      jumpi(tag_2, lt(calldatasize, 0x04))\n      shr(0xe0, calldataload(0x00))\n      dup1\n      0x872a7810\n      gt\n      tag_16\n      jumpi\n      dup1\n      0x9852595c\n      gt\n      tag_17\n      jumpi\n      dup1\n      0x9852595c\n      eq\n      tag_12\n      jumpi\n      dup1\n      0xbe9a6555\n      eq\n      tag_13\n      jumpi\n      dup1\n      0xf2fde38b\n      eq\n      tag_14\n      jumpi\n      dup1\n      0xfa01dc06\n      eq\n      tag_15\n      jumpi\n      jump(tag_2)\n    tag_17:\n      dup1\n      0x872a7810\n      eq\n      tag_9\n      jumpi\n      dup1\n      0x8da5cb5b\n      eq\n      tag_10\n      jumpi\n      dup1\n      0x8f32d59b\n      eq\n      tag_11\n      jumpi\n      jump(tag_2)\n    tag_16:\n      dup1\n      0x0fb5a6b4\n      eq\n      tag_3\n      jumpi\n      dup1\n      0x13d033c0\n      eq\n      tag_4\n      jumpi\n      dup1\n      0x19165587\n      eq\n      tag_5\n      jumpi\n      dup1\n      0x38af3eed\n      eq\n      tag_6\n      jumpi\n      dup1\n      0x715018a6\n      eq\n      tag_7\n      jumpi\n      dup1\n      0x74a8f103\n      eq\n      tag_8\n      jumpi\n    tag_2:\n      0x00\n      dup1\n      revert\n        /* \"msc_token/node_modules/@openzeppelin@2.5.0/contracts/drafts/TokenVesting.sol\":3339:3422  function duration() public view returns (uint256) {... */\n    tag_3:\n      tag_18\n      tag_19\n      jump\t// in\n    tag_18:\n      0x40\n      dup1\n      mload\n      swap2\n      dup3\n      mstore\n      mload\n      swap1\n      dup2\n      swap1\n      sub\n      0x20\n      add\n      swap1\n      return\n        /* \"msc_token/node_modules/@openzeppelin@2.5.0/contracts/drafts/TokenVesting.sol\":3039:3116  function cliff() public view returns (uint256) {... */\n    tag_4:\n      tag_18\n      tag_21\n      jump\t// in\n        /* \"msc_token/node_modules/@openzeppelin@2.5.0/contracts/drafts/TokenVesting.sol\":4045:4407  function release(IERC20 token) public {... */\n    tag_5:\n      tag_22\n      0x04\n      dup1\n      calldatasize\n      sub\n        /* \"--CODEGEN--\":13:15   */\n      0x20\n        /* \"--CODEGEN--\":8:11   */\n      dup2\n        /* \"--CODEGEN--\":5:16   */\n      lt\n        /* \"--CODEGEN--\":2:4   */\n      iszero\n      tag_23\n      jumpi\n        /* \"--CODEGEN--\":29:30   */\n      0x00\n        /* \"--CODEGEN--\":26:27   */\n      dup1\n        /* \"--CODEGEN--\":19:31   */\n      revert\n        /* \"--CODEGEN--\":2:4   */\n    tag_23:\n      pop\n        /* \"msc_token/node_modules/@openzeppelin@2.5.0/contracts/drafts/TokenVesting.sol\":4045:4407  function release(IERC20 token) public {... */\n      calldataload\n      sub(shl(0xa0, 0x01), 0x01)\n      and\n      tag_24\n      jump\t// in\n    tag_22:\n      stop\n        /* \"msc_token/node_modules/@openzeppelin@2.5.0/contracts/drafts/TokenVesting.sol\":2876:2965  function beneficiary() public view returns (address) {... */\n    tag_6:\n      tag_25\n      tag_26\n      jump\t// in\n    tag_25:\n      0x40\n      dup1\n      mload\n      sub(shl(0xa0, 0x01), 0x01)\n      swap1\n      swap3\n      and\n      dup3\n      mstore\n      mload\n      swap1\n      dup2\n      swap1\n      sub\n      0x20\n      add\n      swap1\n      return\n        /* \"msc_token/node_modules/@openzeppelin@2.5.0/contracts/ownership/Ownable.sol\":1684:1821  function renounceOwnership() public onlyOwner {... */\n    tag_7:\n      tag_22\n      tag_28\n      jump\t// in\n        /* \"msc_token/node_modules/@openzeppelin@2.5.0/contracts/drafts/TokenVesting.sol\":4627:5128  function revoke(IERC20 token) public onlyOwner {... */\n    tag_8:\n      tag_22\n      0x04\n      dup1\n      calldatasize\n      sub\n        /* \"--CODEGEN--\":13:15   */\n      0x20\n        /* \"--CODEGEN--\":8:11   */\n      dup2\n        /* \"--CODEGEN--\":5:16   */\n      lt\n        /* \"--CODEGEN--\":2:4   */\n      iszero\n      tag_30\n      jumpi\n        /* \"--CODEGEN--\":29:30   */\n      0x00\n        /* \"--CODEGEN--\":26:27   */\n      dup1\n        /* \"--CODEGEN--\":19:31   */\n      revert\n        /* \"--CODEGEN--\":2:4   */\n    tag_30:\n      pop\n        /* \"msc_token/node_modules/@openzeppelin@2.5.0/contracts/drafts/TokenVesting.sol\":4627:5128  function revoke(IERC20 token) public onlyOwner {... */\n      calldataload\n      sub(shl(0xa0, 0x01), 0x01)\n      and\n      tag_31\n      jump\t// in\n        /* \"msc_token/node_modules/@openzeppelin@2.5.0/contracts/drafts/TokenVesting.sol\":3493:3575  function revocable() public view returns (bool) {... */\n    tag_9:\n      tag_32\n      tag_33\n      jump\t// in\n    tag_32:\n      0x40\n      dup1\n      mload\n      swap2\n      iszero\n      iszero\n      dup3\n      mstore\n      mload\n      swap1\n      dup2\n      swap1\n      sub\n      0x20\n      add\n      swap1\n      return\n        /* \"msc_token/node_modules/@openzeppelin@2.5.0/contracts/ownership/Ownable.sol\":899:976  function owner() public view returns (address) {... */\n    tag_10:\n      tag_25\n      tag_35\n      jump\t// in\n        /* \"msc_token/node_modules/@openzeppelin@2.5.0/contracts/ownership/Ownable.sol\":1250:1342  function isOwner() public view returns (bool) {... */\n    tag_11:\n      tag_32\n      tag_37\n      jump\t// in\n        /* \"msc_token/node_modules/@openzeppelin@2.5.0/contracts/drafts/TokenVesting.sol\":3646:3749  function released(address token) public view returns (uint256) {... */\n    tag_12:\n      tag_18\n      0x04\n      dup1\n      calldatasize\n      sub\n        /* \"--CODEGEN--\":13:15   */\n      0x20\n        /* \"--CODEGEN--\":8:11   */\n      dup2\n        /* \"--CODEGEN--\":5:16   */\n      lt\n        /* \"--CODEGEN--\":2:4   */\n      iszero\n      tag_39\n      jumpi\n        /* \"--CODEGEN--\":29:30   */\n      0x00\n        /* \"--CODEGEN--\":26:27   */\n      dup1\n        /* \"--CODEGEN--\":19:31   */\n      revert\n        /* \"--CODEGEN--\":2:4   */\n    tag_39:\n      pop\n        /* \"msc_token/node_modules/@openzeppelin@2.5.0/contracts/drafts/TokenVesting.sol\":3646:3749  function released(address token) public view returns (uint256) {... */\n      calldataload\n      sub(shl(0xa0, 0x01), 0x01)\n      and\n      tag_40\n      jump\t// in\n        /* \"msc_token/node_modules/@openzeppelin@2.5.0/contracts/drafts/TokenVesting.sol\":3190:3267  function start() public view returns (uint256) {... */\n    tag_13:\n      tag_18\n      tag_42\n      jump\t// in\n        /* \"msc_token/node_modules/@openzeppelin@2.5.0/contracts/ownership/Ownable.sol\":1970:2077  function transferOwnership(address newOwner) public onlyOwner {... */\n    tag_14:\n      tag_22\n      0x04\n      dup1\n      calldatasize\n      sub\n        /* \"--CODEGEN--\":13:15   */\n      0x20\n        /* \"--CODEGEN--\":8:11   */\n      dup2\n        /* \"--CODEGEN--\":5:16   */\n      lt\n        /* \"--CODEGEN--\":2:4   */\n      iszero\n      tag_44\n      jumpi\n        /* \"--CODEGEN--\":29:30   */\n      0x00\n        /* \"--CODEGEN--\":26:27   */\n      dup1\n        /* \"--CODEGEN--\":19:31   */\n      revert\n        /* \"--CODEGEN--\":2:4   */\n    tag_44:\n      pop\n        /* \"msc_token/node_modules/@openzeppelin@2.5.0/contracts/ownership/Ownable.sol\":1970:2077  function transferOwnership(address newOwner) public onlyOwner {... */\n      calldataload\n      sub(shl(0xa0, 0x01), 0x01)\n      and\n      tag_45\n      jump\t// in\n        /* \"msc_token/node_modules/@openzeppelin@2.5.0/contracts/drafts/TokenVesting.sol\":3816:3914  function revoked(address token) public view returns (bool) {... */\n    tag_15:\n      tag_32\n      0x04\n      dup1\n      calldatasize\n      sub\n        /* \"--CODEGEN--\":13:15   */\n      0x20\n        /* \"--CODEGEN--\":8:11   */\n      dup2\n        /* \"--CODEGEN--\":5:16   */\n      lt\n        /* \"--CODEGEN--\":2:4   */\n      iszero\n      tag_47\n      jumpi\n        /* \"--CODEGEN--\":29:30   */\n      0x00\n        /* \"--CODEGEN--\":26:27   */\n      dup1\n        /* \"--CODEGEN--\":19:31   */\n      revert\n        /* \"--CODEGEN--\":2:4   */\n    tag_47:\n      pop\n        /* \"msc_token/node_modules/@openzeppelin@2.5.0/contracts/drafts/TokenVesting.sol\":3816:3914  function revoked(address token) public view returns (bool) {... */\n      calldataload\n      sub(shl(0xa0, 0x01), 0x01)\n      and\n      tag_48\n      jump\t// in\n        /* \"msc_token/node_modules/@openzeppelin@2.5.0/contracts/drafts/TokenVesting.sol\":3339:3422  function duration() public view returns (uint256) {... */\n    tag_19:\n        /* \"msc_token/node_modules/@openzeppelin@2.5.0/contracts/drafts/TokenVesting.sol\":3406:3415  _duration */\n      sload(0x04)\n        /* \"msc_token/node_modules/@openzeppelin@2.5.0/contracts/drafts/TokenVesting.sol\":3339:3422  function duration() public view returns (uint256) {... */\n      swap1\n      jump\t// out\n        /* \"msc_token/node_modules/@openzeppelin@2.5.0/contracts/drafts/TokenVesting.sol\":3039:3116  function cliff() public view returns (uint256) {... */\n    tag_21:\n        /* \"msc_token/node_modules/@openzeppelin@2.5.0/contracts/drafts/TokenVesting.sol\":3103:3109  _cliff */\n      sload(0x02)\n        /* \"msc_token/node_modules/@openzeppelin@2.5.0/contracts/drafts/TokenVesting.sol\":3039:3116  function cliff() public view returns (uint256) {... */\n      swap1\n      jump\t// out\n        /* \"msc_token/node_modules/@openzeppelin@2.5.0/contracts/drafts/TokenVesting.sol\":4045:4407  function release(IERC20 token) public {... */\n    tag_24:\n        /* \"msc_token/node_modules/@openzeppelin@2.5.0/contracts/drafts/TokenVesting.sol\":4093:4111  uint256 unreleased */\n      0x00\n        /* \"msc_token/node_modules/@openzeppelin@2.5.0/contracts/drafts/TokenVesting.sol\":4114:4138  _releasableAmount(token) */\n      tag_52\n        /* \"msc_token/node_modules/@openzeppelin@2.5.0/contracts/drafts/TokenVesting.sol\":4132:4137  token */\n      dup3\n        /* \"msc_token/node_modules/@openzeppelin@2.5.0/contracts/drafts/TokenVesting.sol\":4114:4131  _releasableAmount */\n      tag_53\n        /* \"msc_token/node_modules/@openzeppelin@2.5.0/contracts/drafts/TokenVesting.sol\":4114:4138  _releasableAmount(token) */\n      jump\t// in\n    tag_52:\n        /* \"msc_token/node_modules/@openzeppelin@2.5.0/contracts/drafts/TokenVesting.sol\":4093:4138  uint256 unreleased = _releasableAmount(token) */\n      swap1\n      pop\n        /* \"msc_token/node_modules/@openzeppelin@2.5.0/contracts/drafts/TokenVesting.sol\":4170:4171  0 */\n      0x00\n        /* \"msc_token/node_modules/@openzeppelin@2.5.0/contracts/drafts/TokenVesting.sol\":4157:4167  unreleased */\n      dup2\n        /* \"msc_token/node_modules/@openzeppelin@2.5.0/contracts/drafts/TokenVesting.sol\":4157:4171  unreleased > 0 */\n      gt\n        /* \"msc_token/node_modules/@openzeppelin@2.5.0/contracts/drafts/TokenVesting.sol\":4149:4207  require(unreleased > 0, \"TokenVesting: no tokens are due\") */\n      tag_54\n      jumpi\n      0x40\n      dup1\n      mload\n      shl(0xe5, 0x461bcd)\n      dup2\n      mstore\n      0x20\n      0x04\n      dup3\n      add\n      mstore\n      0x1f\n      0x24\n      dup3\n      add\n      mstore\n      0x546f6b656e56657374696e673a206e6f20746f6b656e73206172652064756500\n      0x44\n      dup3\n      add\n      mstore\n      swap1\n      mload\n      swap1\n      dup2\n      swap1\n      sub\n      0x64\n      add\n      swap1\n      revert\n    tag_54:\n      sub(shl(0xa0, 0x01), 0x01)\n        /* \"msc_token/node_modules/@openzeppelin@2.5.0/contracts/drafts/TokenVesting.sol\":4246:4271  _released[address(token)] */\n      dup3\n      and\n      0x00\n      swap1\n      dup2\n      mstore\n        /* \"msc_token/node_modules/@openzeppelin@2.5.0/contracts/drafts/TokenVesting.sol\":4246:4255  _released */\n      0x06\n        /* \"msc_token/node_modules/@openzeppelin@2.5.0/contracts/drafts/TokenVesting.sol\":4246:4271  _released[address(token)] */\n      0x20\n      mstore\n      0x40\n      swap1\n      keccak256\n      sload\n        /* \"msc_token/node_modules/@openzeppelin@2.5.0/contracts/drafts/TokenVesting.sol\":4246:4287  _released[address(token)].add(unreleased) */\n      tag_55\n      swap1\n        /* \"msc_token/node_modules/@openzeppelin@2.5.0/contracts/drafts/TokenVesting.sol\":4276:4286  unreleased */\n      dup3\n        /* \"msc_token/node_modules/@openzeppelin@2.5.0/contracts/drafts/TokenVesting.sol\":4246:4287  _released[address(token)].add(unreleased) */\n      0xffffffff\n        /* \"msc_token/node_modules/@openzeppelin@2.5.0/contracts/drafts/TokenVesting.sol\":4246:4275  _released[address(token)].add */\n      tag_56\n        /* \"msc_token/node_modules/@openzeppelin@2.5.0/contracts/drafts/TokenVesting.sol\":4246:4287  _released[address(token)].add(unreleased) */\n      and\n      jump\t// in\n    tag_55:\n      sub(shl(0xa0, 0x01), 0x01)\n        /* \"msc_token/node_modules/@openzeppelin@2.5.0/contracts/drafts/TokenVesting.sol\":4218:4243  _released[address(token)] */\n      dup1\n      dup5\n      and\n      0x00\n      dup2\n      dup2\n      mstore\n        /* \"msc_token/node_modules/@openzeppelin@2.5.0/contracts/drafts/TokenVesting.sol\":4218:4227  _released */\n      0x06\n        /* \"msc_token/node_modules/@openzeppelin@2.5.0/contracts/drafts/TokenVesting.sol\":4218:4243  _released[address(token)] */\n      0x20\n      mstore\n      0x40\n      swap1\n      keccak256\n        /* \"msc_token/node_modules/@openzeppelin@2.5.0/contracts/drafts/TokenVesting.sol\":4218:4287  _released[address(token)] = _released[address(token)].add(unreleased) */\n      swap3\n      swap1\n      swap3\n      sstore\n        /* \"msc_token/node_modules/@openzeppelin@2.5.0/contracts/drafts/TokenVesting.sol\":4317:4329  _beneficiary */\n      sload(0x01)\n        /* \"msc_token/node_modules/@openzeppelin@2.5.0/contracts/drafts/TokenVesting.sol\":4298:4342  token.safeTransfer(_beneficiary, unreleased) */\n      tag_57\n      swap3\n        /* \"msc_token/node_modules/@openzeppelin@2.5.0/contracts/drafts/TokenVesting.sol\":4218:4243  _released[address(token)] */\n      swap2\n        /* \"msc_token/node_modules/@openzeppelin@2.5.0/contracts/drafts/TokenVesting.sol\":4317:4329  _beneficiary */\n      and\n        /* \"msc_token/node_modules/@openzeppelin@2.5.0/contracts/drafts/TokenVesting.sol\":4331:4341  unreleased */\n      dup4\n        /* \"msc_token/node_modules/@openzeppelin@2.5.0/contracts/drafts/TokenVesting.sol\":4298:4342  token.safeTransfer(_beneficiary, unreleased) */\n      0xffffffff\n        /* \"msc_token/node_modules/@openzeppelin@2.5.0/contracts/drafts/TokenVesting.sol\":4298:4316  token.safeTransfer */\n      tag_58\n        /* \"msc_token/node_modules/@openzeppelin@2.5.0/contracts/drafts/TokenVesting.sol\":4298:4342  token.safeTransfer(_beneficiary, unreleased) */\n      and\n      jump\t// in\n    tag_57:\n        /* \"msc_token/node_modules/@openzeppelin@2.5.0/contracts/drafts/TokenVesting.sol\":4358:4400  TokensReleased(address(token), unreleased) */\n      0x40\n      dup1\n      mload\n      sub(shl(0xa0, 0x01), 0x01)\n      dup5\n      and\n      dup2\n      mstore\n      0x20\n      dup2\n      add\n      dup4\n      swap1\n      mstore\n      dup2\n      mload\n      0xc7798891864187665ac6dd119286e44ec13f014527aeeb2b8eb3fd413df93179\n      swap3\n      swap2\n      dup2\n      swap1\n      sub\n      swap1\n      swap2\n      add\n      swap1\n      log1\n        /* \"msc_token/node_modules/@openzeppelin@2.5.0/contracts/drafts/TokenVesting.sol\":4045:4407  function release(IERC20 token) public {... */\n      pop\n      pop\n      jump\t// out\n        /* \"msc_token/node_modules/@openzeppelin@2.5.0/contracts/drafts/TokenVesting.sol\":2876:2965  function beneficiary() public view returns (address) {... */\n    tag_26:\n        /* \"msc_token/node_modules/@openzeppelin@2.5.0/contracts/drafts/TokenVesting.sol\":2946:2958  _beneficiary */\n      and(sub(shl(0xa0, 0x01), 0x01), sload(0x01))\n        /* \"msc_token/node_modules/@openzeppelin@2.5.0/contracts/drafts/TokenVesting.sol\":2876:2965  function beneficiary() public view returns (address) {... */\n      swap1\n      jump\t// out\n        /* \"msc_token/node_modules/@openzeppelin@2.5.0/contracts/ownership/Ownable.sol\":1684:1821  function renounceOwnership() public onlyOwner {... */\n    tag_28:\n        /* \"msc_token/node_modules/@openzeppelin@2.5.0/contracts/ownership/Ownable.sol\":1103:1112  isOwner() */\n      tag_61\n        /* \"msc_token/node_modules/@openzeppelin@2.5.0/contracts/ownership/Ownable.sol\":1103:1110  isOwner */\n      tag_37\n        /* \"msc_token/node_modules/@openzeppelin@2.5.0/contracts/ownership/Ownable.sol\":1103:1112  isOwner() */\n      jump\t// in\n    tag_61:\n        /* \"msc_token/node_modules/@openzeppelin@2.5.0/contracts/ownership/Ownable.sol\":1095:1149  require(isOwner(), \"Ownable: caller is not the owner\") */\n      tag_62\n      jumpi\n      0x40\n      dup1\n      mload\n      shl(0xe5, 0x461bcd)\n      dup2\n      mstore\n      0x20\n      0x04\n      dup3\n      add\n      dup2\n      swap1\n      mstore\n      0x24\n      dup3\n      add\n      mstore\n      0x4f776e61626c653a2063616c6c6572206973206e6f7420746865206f776e6572\n      0x44\n      dup3\n      add\n      mstore\n      swap1\n      mload\n      swap1\n      dup2\n      swap1\n      sub\n      0x64\n      add\n      swap1\n      revert\n    tag_62:\n        /* \"msc_token/node_modules/@openzeppelin@2.5.0/contracts/ownership/Ownable.sol\":1782:1783  0 */\n      0x00\n        /* \"msc_token/node_modules/@openzeppelin@2.5.0/contracts/ownership/Ownable.sol\":1766:1772  _owner */\n      dup1\n      sload\n        /* \"msc_token/node_modules/@openzeppelin@2.5.0/contracts/ownership/Ownable.sol\":1745:1785  OwnershipTransferred(_owner, address(0)) */\n      mload(0x40)\n      sub(shl(0xa0, 0x01), 0x01)\n        /* \"msc_token/node_modules/@openzeppelin@2.5.0/contracts/ownership/Ownable.sol\":1766:1772  _owner */\n      swap1\n      swap2\n      and\n      swap1\n        /* \"msc_token/node_modules/@openzeppelin@2.5.0/contracts/ownership/Ownable.sol\":1745:1785  OwnershipTransferred(_owner, address(0)) */\n      0x8be0079c531659141344cd1fd0a4f28419497f9722a3daafe3b4186f6b6457e0\n      swap1\n        /* \"msc_token/node_modules/@openzeppelin@2.5.0/contracts/ownership/Ownable.sol\":1782:1783  0 */\n      dup4\n      swap1\n        /* \"msc_token/node_modules/@openzeppelin@2.5.0/contracts/ownership/Ownable.sol\":1745:1785  OwnershipTransferred(_owner, address(0)) */\n      log3\n        /* \"msc_token/node_modules/@openzeppelin@2.5.0/contracts/ownership/Ownable.sol\":1812:1813  0 */\n      0x00\n        /* \"msc_token/node_modules/@openzeppelin@2.5.0/contracts/ownership/Ownable.sol\":1795:1814  _owner = address(0) */\n      dup1\n      sload\n      not(sub(shl(0xa0, 0x01), 0x01))\n      and\n      swap1\n      sstore\n        /* \"msc_token/node_modules/@openzeppelin@2.5.0/contracts/ownership/Ownable.sol\":1684:1821  function renounceOwnership() public onlyOwner {... */\n      jump\t// out\n        /* \"msc_token/node_modules/@openzeppelin@2.5.0/contracts/drafts/TokenVesting.sol\":4627:5128  function revoke(IERC20 token) public onlyOwner {... */\n    tag_31:\n        /* \"msc_token/node_modules/@openzeppelin@2.5.0/contracts/ownership/Ownable.sol\":1103:1112  isOwner() */\n      tag_65\n        /* \"msc_token/node_modules/@openzeppelin@2.5.0/contracts/ownership/Ownable.sol\":1103:1110  isOwner */\n      tag_37\n        /* \"msc_token/node_modules/@openzeppelin@2.5.0/contracts/ownership/Ownable.sol\":1103:1112  isOwner() */\n      jump\t// in\n    tag_65:\n        /* \"msc_token/node_modules/@openzeppelin@2.5.0/contracts/ownership/Ownable.sol\":1095:1149  require(isOwner(), \"Ownable: caller is not the owner\") */\n      tag_66\n      jumpi\n      0x40\n      dup1\n      mload\n      shl(0xe5, 0x461bcd)\n      dup2\n      mstore\n      0x20\n      0x04\n      dup3\n      add\n      dup2\n      swap1\n      mstore\n      0x24\n      dup3\n      add\n      mstore\n      0x4f776e61626c653a2063616c6c6572206973206e6f7420746865206f776e6572\n      0x44\n      dup3\n      add\n      mstore\n      swap1\n      mload\n      swap1\n      dup2\n      swap1\n      sub\n      0x64\n      add\n      swap1\n      revert\n    tag_66:\n        /* \"msc_token/node_modules/@openzeppelin@2.5.0/contracts/drafts/TokenVesting.sol\":4692:4702  _revocable */\n      and(0xff, sload(0x05))\n        /* \"msc_token/node_modules/@openzeppelin@2.5.0/contracts/drafts/TokenVesting.sol\":4684:4734  require(_revocable, \"TokenVesting: cannot revoke\") */\n      tag_68\n      jumpi\n      0x40\n      dup1\n      mload\n      shl(0xe5, 0x461bcd)\n      dup2\n      mstore\n      0x20\n      0x04\n      dup3\n      add\n      mstore\n      0x1b\n      0x24\n      dup3\n      add\n      mstore\n      0x546f6b656e56657374696e673a2063616e6e6f74207265766f6b650000000000\n      0x44\n      dup3\n      add\n      mstore\n      swap1\n      mload\n      swap1\n      dup2\n      swap1\n      sub\n      0x64\n      add\n      swap1\n      revert\n    tag_68:\n      sub(shl(0xa0, 0x01), 0x01)\n        /* \"msc_token/node_modules/@openzeppelin@2.5.0/contracts/drafts/TokenVesting.sol\":4753:4777  _revoked[address(token)] */\n      dup2\n      and\n      0x00\n      swap1\n      dup2\n      mstore\n        /* \"msc_token/node_modules/@openzeppelin@2.5.0/contracts/drafts/TokenVesting.sol\":4753:4761  _revoked */\n      0x07\n        /* \"msc_token/node_modules/@openzeppelin@2.5.0/contracts/drafts/TokenVesting.sol\":4753:4777  _revoked[address(token)] */\n      0x20\n      mstore\n      0x40\n      swap1\n      keccak256\n      sload\n      0xff\n      and\n        /* \"msc_token/node_modules/@openzeppelin@2.5.0/contracts/drafts/TokenVesting.sol\":4752:4777  !_revoked[address(token)] */\n      iszero\n        /* \"msc_token/node_modules/@openzeppelin@2.5.0/contracts/drafts/TokenVesting.sol\":4744:4817  require(!_revoked[address(token)], \"TokenVesting: token already revoked\") */\n      tag_69\n      jumpi\n      mload(0x40)\n      shl(0xe5, 0x461bcd)\n      dup2\n      mstore\n      0x04\n      add\n      dup1\n      dup1\n      0x20\n      add\n      dup3\n      dup2\n      sub\n      dup3\n      mstore\n      0x23\n      dup2\n      mstore\n      0x20\n      add\n      dup1\n      data_fa45135a638a0c1c9d4fc275ce2da4f63e13a28e343a01a7f6788e54e1fc80f5\n      0x23\n      swap2\n      codecopy\n      0x40\n      add\n      swap2\n      pop\n      pop\n      mload(0x40)\n      dup1\n      swap2\n      sub\n      swap1\n      revert\n    tag_69:\n        /* \"msc_token/node_modules/@openzeppelin@2.5.0/contracts/drafts/TokenVesting.sol\":4846:4876  token.balanceOf(address(this)) */\n      0x40\n      dup1\n      mload\n      shl(0xe0, 0x70a08231)\n      dup2\n      mstore\n        /* \"msc_token/node_modules/@openzeppelin@2.5.0/contracts/drafts/TokenVesting.sol\":4870:4874  this */\n      address\n        /* \"msc_token/node_modules/@openzeppelin@2.5.0/contracts/drafts/TokenVesting.sol\":4846:4876  token.balanceOf(address(this)) */\n      0x04\n      dup3\n      add\n      mstore\n      swap1\n      mload\n        /* \"msc_token/node_modules/@openzeppelin@2.5.0/contracts/drafts/TokenVesting.sol\":4828:4843  uint256 balance */\n      0x00\n      swap2\n      sub(shl(0xa0, 0x01), 0x01)\n        /* \"msc_token/node_modules/@openzeppelin@2.5.0/contracts/drafts/TokenVesting.sol\":4846:4861  token.balanceOf */\n      dup5\n      and\n      swap2\n      0x70a08231\n      swap2\n        /* \"msc_token/node_modules/@openzeppelin@2.5.0/contracts/drafts/TokenVesting.sol\":4846:4876  token.balanceOf(address(this)) */\n      0x24\n      dup1\n      dup3\n      add\n      swap3\n      0x20\n      swap3\n      swap1\n      swap2\n      swap1\n      dup3\n      swap1\n      sub\n      add\n      dup2\n        /* \"msc_token/node_modules/@openzeppelin@2.5.0/contracts/drafts/TokenVesting.sol\":4846:4861  token.balanceOf */\n      dup7\n        /* \"msc_token/node_modules/@openzeppelin@2.5.0/contracts/drafts/TokenVesting.sol\":4846:4876  token.balanceOf(address(this)) */\n      dup1\n      extcodesize\n      iszero\n        /* \"--CODEGEN--\":5:7   */\n      dup1\n      iszero\n      tag_70\n      jumpi\n        /* \"--CODEGEN--\":30:31   */\n      0x00\n        /* \"--CODEGEN--\":27:28   */\n      dup1\n        /* \"--CODEGEN--\":20:32   */\n      revert\n        /* \"--CODEGEN--\":5:7   */\n    tag_70:\n        /* \"msc_token/node_modules/@openzeppelin@2.5.0/contracts/drafts/TokenVesting.sol\":4846:4876  token.balanceOf(address(this)) */\n      pop\n      gas\n      staticcall\n      iszero\n        /* \"--CODEGEN--\":8:17   */\n      dup1\n        /* \"--CODEGEN--\":5:7   */\n      iszero\n      tag_71\n      jumpi\n        /* \"--CODEGEN--\":45:61   */\n      returndatasize\n        /* \"--CODEGEN--\":42:43   */\n      0x00\n        /* \"--CODEGEN--\":39:40   */\n      dup1\n        /* \"--CODEGEN--\":24:62   */\n      returndatacopy\n        /* \"--CODEGEN--\":77:93   */\n      returndatasize\n        /* \"--CODEGEN--\":74:75   */\n      0x00\n        /* \"--CODEGEN--\":67:94   */\n      revert\n        /* \"--CODEGEN--\":5:7   */\n    tag_71:\n        /* \"msc_token/node_modules/@openzeppelin@2.5.0/contracts/drafts/TokenVesting.sol\":4846:4876  token.balanceOf(address(this)) */\n      pop\n      pop\n      pop\n      pop\n      mload(0x40)\n      returndatasize\n        /* \"--CODEGEN--\":13:15   */\n      0x20\n        /* \"--CODEGEN--\":8:11   */\n      dup2\n        /* \"--CODEGEN--\":5:16   */\n      lt\n        /* \"--CODEGEN--\":2:4   */\n      iszero\n      tag_72\n      jumpi\n        /* \"--CODEGEN--\":29:30   */\n      0x00\n        /* \"--CODEGEN--\":26:27   */\n      dup1\n        /* \"--CODEGEN--\":19:31   */\n      revert\n        /* \"--CODEGEN--\":2:4   */\n    tag_72:\n      pop\n        /* \"msc_token/node_modules/@openzeppelin@2.5.0/contracts/drafts/TokenVesting.sol\":4846:4876  token.balanceOf(address(this)) */\n      mload\n      swap1\n      pop\n        /* \"msc_token/node_modules/@openzeppelin@2.5.0/contracts/drafts/TokenVesting.sol\":4887:4905  uint256 unreleased */\n      0x00\n        /* \"msc_token/node_modules/@openzeppelin@2.5.0/contracts/drafts/TokenVesting.sol\":4908:4932  _releasableAmount(token) */\n      tag_73\n        /* \"msc_token/node_modules/@openzeppelin@2.5.0/contracts/drafts/TokenVesting.sol\":4926:4931  token */\n      dup4\n        /* \"msc_token/node_modules/@openzeppelin@2.5.0/contracts/drafts/TokenVesting.sol\":4908:4925  _releasableAmount */\n      tag_53\n        /* \"msc_token/node_modules/@openzeppelin@2.5.0/contracts/drafts/TokenVesting.sol\":4908:4932  _releasableAmount(token) */\n      jump\t// in\n    tag_73:\n        /* \"msc_token/node_modules/@openzeppelin@2.5.0/contracts/drafts/TokenVesting.sol\":4887:4932  uint256 unreleased = _releasableAmount(token) */\n      swap1\n      pop\n        /* \"msc_token/node_modules/@openzeppelin@2.5.0/contracts/drafts/TokenVesting.sol\":4942:4956  uint256 refund */\n      0x00\n        /* \"msc_token/node_modules/@openzeppelin@2.5.0/contracts/drafts/TokenVesting.sol\":4959:4982  balance.sub(unreleased) */\n      tag_74\n        /* \"msc_token/node_modules/@openzeppelin@2.5.0/contracts/drafts/TokenVesting.sol\":4959:4966  balance */\n      dup4\n        /* \"msc_token/node_modules/@openzeppelin@2.5.0/contracts/drafts/TokenVesting.sol\":4887:4932  uint256 unreleased = _releasableAmount(token) */\n      dup4\n        /* \"msc_token/node_modules/@openzeppelin@2.5.0/contracts/drafts/TokenVesting.sol\":4959:4982  balance.sub(unreleased) */\n      0xffffffff\n        /* \"msc_token/node_modules/@openzeppelin@2.5.0/contracts/drafts/TokenVesting.sol\":4959:4970  balance.sub */\n      tag_75\n        /* \"msc_token/node_modules/@openzeppelin@2.5.0/contracts/drafts/TokenVesting.sol\":4959:4982  balance.sub(unreleased) */\n      and\n      jump\t// in\n    tag_74:\n      sub(shl(0xa0, 0x01), 0x01)\n        /* \"msc_token/node_modules/@openzeppelin@2.5.0/contracts/drafts/TokenVesting.sol\":4993:5017  _revoked[address(token)] */\n      dup6\n      and\n      0x00\n      swap1\n      dup2\n      mstore\n        /* \"msc_token/node_modules/@openzeppelin@2.5.0/contracts/drafts/TokenVesting.sol\":4993:5001  _revoked */\n      0x07\n        /* \"msc_token/node_modules/@openzeppelin@2.5.0/contracts/drafts/TokenVesting.sol\":4993:5017  _revoked[address(token)] */\n      0x20\n      mstore\n      0x40\n      swap1\n      keccak256\n        /* \"msc_token/node_modules/@openzeppelin@2.5.0/contracts/drafts/TokenVesting.sol\":4993:5024  _revoked[address(token)] = true */\n      dup1\n      sload\n      not(0xff)\n      and\n        /* \"msc_token/node_modules/@openzeppelin@2.5.0/contracts/drafts/TokenVesting.sol\":5020:5024  true */\n      0x01\n        /* \"msc_token/node_modules/@openzeppelin@2.5.0/contracts/drafts/TokenVesting.sol\":4993:5024  _revoked[address(token)] = true */\n      or\n      swap1\n      sstore\n        /* \"msc_token/node_modules/@openzeppelin@2.5.0/contracts/drafts/TokenVesting.sol\":4942:4982  uint256 refund = balance.sub(unreleased) */\n      swap1\n      pop\n        /* \"msc_token/node_modules/@openzeppelin@2.5.0/contracts/drafts/TokenVesting.sol\":5035:5070  token.safeTransfer(owner(), refund) */\n      tag_76\n        /* \"msc_token/node_modules/@openzeppelin@2.5.0/contracts/drafts/TokenVesting.sol\":5054:5061  owner() */\n      tag_77\n        /* \"msc_token/node_modules/@openzeppelin@2.5.0/contracts/drafts/TokenVesting.sol\":5054:5059  owner */\n      tag_35\n        /* \"msc_token/node_modules/@openzeppelin@2.5.0/contracts/drafts/TokenVesting.sol\":5054:5061  owner() */\n      jump\t// in\n    tag_77:\n      sub(shl(0xa0, 0x01), 0x01)\n        /* \"msc_token/node_modules/@openzeppelin@2.5.0/contracts/drafts/TokenVesting.sol\":5035:5053  token.safeTransfer */\n      dup7\n      and\n      swap1\n        /* \"msc_token/node_modules/@openzeppelin@2.5.0/contracts/drafts/TokenVesting.sol\":5063:5069  refund */\n      dup4\n        /* \"msc_token/node_modules/@openzeppelin@2.5.0/contracts/drafts/TokenVesting.sol\":5035:5070  token.safeTransfer(owner(), refund) */\n      0xffffffff\n        /* \"msc_token/node_modules/@openzeppelin@2.5.0/contracts/drafts/TokenVesting.sol\":5035:5053  token.safeTransfer */\n      tag_58\n        /* \"msc_token/node_modules/@openzeppelin@2.5.0/contracts/drafts/TokenVesting.sol\":5035:5070  token.safeTransfer(owner(), refund) */\n      and\n      jump\t// in\n    tag_76:\n        /* \"msc_token/node_modules/@openzeppelin@2.5.0/contracts/drafts/TokenVesting.sol\":5086:5121  TokenVestingRevoked(address(token)) */\n      0x40\n      dup1\n      mload\n      sub(shl(0xa0, 0x01), 0x01)\n      dup7\n      and\n      dup2\n      mstore\n      swap1\n      mload\n      0x39983c6d4d174a7aee564f449d4a5c3c7ac9649d72b7793c56901183996f8af6\n      swap2\n      dup2\n      swap1\n      sub\n      0x20\n      add\n      swap1\n      log1\n        /* \"msc_token/node_modules/@openzeppelin@2.5.0/contracts/ownership/Ownable.sol\":1159:1160  _ */\n      pop\n      pop\n      pop\n        /* \"msc_token/node_modules/@openzeppelin@2.5.0/contracts/drafts/TokenVesting.sol\":4627:5128  function revoke(IERC20 token) public onlyOwner {... */\n      pop\n      jump\t// out\n        /* \"msc_token/node_modules/@openzeppelin@2.5.0/contracts/drafts/TokenVesting.sol\":3493:3575  function revocable() public view returns (bool) {... */\n    tag_33:\n        /* \"msc_token/node_modules/@openzeppelin@2.5.0/contracts/drafts/TokenVesting.sol\":3558:3568  _revocable */\n      and(0xff, sload(0x05))\n        /* \"msc_token/node_modules/@openzeppelin@2.5.0/contracts/drafts/TokenVesting.sol\":3493:3575  function revocable() public view returns (bool) {... */\n      swap1\n      jump\t// out\n        /* \"msc_token/node_modules/@openzeppelin@2.5.0/contracts/ownership/Ownable.sol\":899:976  function owner() public view returns (address) {... */\n    tag_35:\n        /* \"msc_token/node_modules/@openzeppelin@2.5.0/contracts/ownership/Ownable.sol\":937:944  address */\n      0x00\n        /* \"msc_token/node_modules/@openzeppelin@2.5.0/contracts/ownership/Ownable.sol\":963:969  _owner */\n      sload\n      sub(shl(0xa0, 0x01), 0x01)\n      and\n        /* \"msc_token/node_modules/@openzeppelin@2.5.0/contracts/ownership/Ownable.sol\":899:976  function owner() public view returns (address) {... */\n      swap1\n      jump\t// out\n        /* \"msc_token/node_modules/@openzeppelin@2.5.0/contracts/ownership/Ownable.sol\":1250:1342  function isOwner() public view returns (bool) {... */\n    tag_37:\n        /* \"msc_token/node_modules/@openzeppelin@2.5.0/contracts/ownership/Ownable.sol\":1290:1294  bool */\n      0x00\n        /* \"msc_token/node_modules/@openzeppelin@2.5.0/contracts/ownership/Ownable.sol\":1329:1335  _owner */\n      dup1\n      sload\n      sub(shl(0xa0, 0x01), 0x01)\n      and\n        /* \"msc_token/node_modules/@openzeppelin@2.5.0/contracts/ownership/Ownable.sol\":1313:1325  _msgSender() */\n      tag_81\n        /* \"msc_token/node_modules/@openzeppelin@2.5.0/contracts/ownership/Ownable.sol\":1313:1323  _msgSender */\n      tag_82\n        /* \"msc_token/node_modules/@openzeppelin@2.5.0/contracts/ownership/Ownable.sol\":1313:1325  _msgSender() */\n      jump\t// in\n    tag_81:\n      sub(shl(0xa0, 0x01), 0x01)\n        /* \"msc_token/node_modules/@openzeppelin@2.5.0/contracts/ownership/Ownable.sol\":1313:1335  _msgSender() == _owner */\n      and\n      eq\n        /* \"msc_token/node_modules/@openzeppelin@2.5.0/contracts/ownership/Ownable.sol\":1306:1335  return _msgSender() == _owner */\n      swap1\n      pop\n        /* \"msc_token/node_modules/@openzeppelin@2.5.0/contracts/ownership/Ownable.sol\":1250:1342  function isOwner() public view returns (bool) {... */\n      swap1\n      jump\t// out\n        /* \"msc_token/node_modules/@openzeppelin@2.5.0/contracts/drafts/TokenVesting.sol\":3646:3749  function released(address token) public view returns (uint256) {... */\n    tag_40:\n      sub(shl(0xa0, 0x01), 0x01)\n        /* \"msc_token/node_modules/@openzeppelin@2.5.0/contracts/drafts/TokenVesting.sol\":3726:3742  _released[token] */\n      dup2\n      and\n        /* \"msc_token/node_modules/@openzeppelin@2.5.0/contracts/drafts/TokenVesting.sol\":3700:3707  uint256 */\n      0x00\n        /* \"msc_token/node_modules/@openzeppelin@2.5.0/contracts/drafts/TokenVesting.sol\":3726:3742  _released[token] */\n      swap1\n      dup2\n      mstore\n        /* \"msc_token/node_modules/@openzeppelin@2.5.0/contracts/drafts/TokenVesting.sol\":3726:3735  _released */\n      0x06\n        /* \"msc_token/node_modules/@openzeppelin@2.5.0/contracts/drafts/TokenVesting.sol\":3726:3742  _released[token] */\n      0x20\n      mstore\n      0x40\n      swap1\n      keccak256\n      sload\n        /* \"msc_token/node_modules/@openzeppelin@2.5.0/contracts/drafts/TokenVesting.sol\":3646:3749  function released(address token) public view returns (uint256) {... */\n    tag_83:\n      swap2\n      swap1\n      pop\n      jump\t// out\n        /* \"msc_token/node_modules/@openzeppelin@2.5.0/contracts/drafts/TokenVesting.sol\":3190:3267  function start() public view returns (uint256) {... */\n    tag_42:\n        /* \"msc_token/node_modules/@openzeppelin@2.5.0/contracts/drafts/TokenVesting.sol\":3254:3260  _start */\n      sload(0x03)\n        /* \"msc_token/node_modules/@openzeppelin@2.5.0/contracts/drafts/TokenVesting.sol\":3190:3267  function start() public view returns (uint256) {... */\n      swap1\n      jump\t// out\n        /* \"msc_token/node_modules/@openzeppelin@2.5.0/contracts/ownership/Ownable.sol\":1970:2077  function transferOwnership(address newOwner) public onlyOwner {... */\n    tag_45:\n        /* \"msc_token/node_modules/@openzeppelin@2.5.0/contracts/ownership/Ownable.sol\":1103:1112  isOwner() */\n      tag_86\n        /* \"msc_token/node_modules/@openzeppelin@2.5.0/contracts/ownership/Ownable.sol\":1103:1110  isOwner */\n      tag_37\n        /* \"msc_token/node_modules/@openzeppelin@2.5.0/contracts/ownership/Ownable.sol\":1103:1112  isOwner() */\n      jump\t// in\n    tag_86:\n        /* \"msc_token/node_modules/@openzeppelin@2.5.0/contracts/ownership/Ownable.sol\":1095:1149  require(isOwner(), \"Ownable: caller is not the owner\") */\n      tag_87\n      jumpi\n      0x40\n      dup1\n      mload\n      shl(0xe5, 0x461bcd)\n      dup2\n      mstore\n      0x20\n      0x04\n      dup3\n      add\n      dup2\n      swap1\n      mstore\n      0x24\n      dup3\n      add\n      mstore\n      0x4f776e61626c653a2063616c6c6572206973206e6f7420746865206f776e6572\n      0x44\n      dup3\n      add\n      mstore\n      swap1\n      mload\n      swap1\n      dup2\n      swap1\n      sub\n      0x64\n      add\n      swap1\n      revert\n    tag_87:\n        /* \"msc_token/node_modules/@openzeppelin@2.5.0/contracts/ownership/Ownable.sol\":2042:2070  _transferOwnership(newOwner) */\n      tag_89\n        /* \"msc_token/node_modules/@openzeppelin@2.5.0/contracts/ownership/Ownable.sol\":2061:2069  newOwner */\n      dup2\n        /* \"msc_token/node_modules/@openzeppelin@2.5.0/contracts/ownership/Ownable.sol\":2042:2060  _transferOwnership */\n      tag_90\n        /* \"msc_token/node_modules/@openzeppelin@2.5.0/contracts/ownership/Ownable.sol\":2042:2070  _transferOwnership(newOwner) */\n      jump\t// in\n    tag_89:\n        /* \"msc_token/node_modules/@openzeppelin@2.5.0/contracts/ownership/Ownable.sol\":1970:2077  function transferOwnership(address newOwner) public onlyOwner {... */\n      pop\n      jump\t// out\n        /* \"msc_token/node_modules/@openzeppelin@2.5.0/contracts/drafts/TokenVesting.sol\":3816:3914  function revoked(address token) public view returns (bool) {... */\n    tag_48:\n      sub(shl(0xa0, 0x01), 0x01)\n        /* \"msc_token/node_modules/@openzeppelin@2.5.0/contracts/drafts/TokenVesting.sol\":3892:3907  _revoked[token] */\n      and\n        /* \"msc_token/node_modules/@openzeppelin@2.5.0/contracts/drafts/TokenVesting.sol\":3869:3873  bool */\n      0x00\n        /* \"msc_token/node_modules/@openzeppelin@2.5.0/contracts/drafts/TokenVesting.sol\":3892:3907  _revoked[token] */\n      swap1\n      dup2\n      mstore\n        /* \"msc_token/node_modules/@openzeppelin@2.5.0/contracts/drafts/TokenVesting.sol\":3892:3900  _revoked */\n      0x07\n        /* \"msc_token/node_modules/@openzeppelin@2.5.0/contracts/drafts/TokenVesting.sol\":3892:3907  _revoked[token] */\n      0x20\n      mstore\n      0x40\n      swap1\n      keccak256\n      sload\n      0xff\n      and\n      swap1\n        /* \"msc_token/node_modules/@openzeppelin@2.5.0/contracts/drafts/TokenVesting.sol\":3816:3914  function revoked(address token) public view returns (bool) {... */\n      jump\t// out\n        /* \"msc_token/node_modules/@openzeppelin@2.5.0/contracts/drafts/TokenVesting.sol\":5292:5439  function _releasableAmount(IERC20 token) private view returns (uint256) {... */\n    tag_53:\n      sub(shl(0xa0, 0x01), 0x01)\n        /* \"msc_token/node_modules/@openzeppelin@2.5.0/contracts/drafts/TokenVesting.sol\":5406:5431  _released[address(token)] */\n      dup2\n      and\n        /* \"msc_token/node_modules/@openzeppelin@2.5.0/contracts/drafts/TokenVesting.sol\":5355:5362  uint256 */\n      0x00\n        /* \"msc_token/node_modules/@openzeppelin@2.5.0/contracts/drafts/TokenVesting.sol\":5406:5431  _released[address(token)] */\n      swap1\n      dup2\n      mstore\n        /* \"msc_token/node_modules/@openzeppelin@2.5.0/contracts/drafts/TokenVesting.sol\":5406:5415  _released */\n      0x06\n        /* \"msc_token/node_modules/@openzeppelin@2.5.0/contracts/drafts/TokenVesting.sol\":5406:5431  _released[address(token)] */\n      0x20\n      mstore\n      0x40\n      dup2\n      keccak256\n      sload\n        /* \"msc_token/node_modules/@openzeppelin@2.5.0/contracts/drafts/TokenVesting.sol\":5381:5432  _vestedAmount(token).sub(_released[address(token)]) */\n      tag_93\n      swap1\n        /* \"msc_token/node_modules/@openzeppelin@2.5.0/contracts/drafts/TokenVesting.sol\":5381:5401  _vestedAmount(token) */\n      tag_94\n        /* \"msc_token/node_modules/@openzeppelin@2.5.0/contracts/drafts/TokenVesting.sol\":5424:5429  token */\n      dup5\n        /* \"msc_token/node_modules/@openzeppelin@2.5.0/contracts/drafts/TokenVesting.sol\":5381:5394  _vestedAmount */\n      tag_95\n        /* \"msc_token/node_modules/@openzeppelin@2.5.0/contracts/drafts/TokenVesting.sol\":5381:5401  _vestedAmount(token) */\n      jump\t// in\n    tag_94:\n        /* \"msc_token/node_modules/@openzeppelin@2.5.0/contracts/drafts/TokenVesting.sol\":5381:5405  _vestedAmount(token).sub */\n      swap1\n        /* \"msc_token/node_modules/@openzeppelin@2.5.0/contracts/drafts/TokenVesting.sol\":5381:5432  _vestedAmount(token).sub(_released[address(token)]) */\n      0xffffffff\n        /* \"msc_token/node_modules/@openzeppelin@2.5.0/contracts/drafts/TokenVesting.sol\":5381:5405  _vestedAmount(token).sub */\n      tag_75\n        /* \"msc_token/node_modules/@openzeppelin@2.5.0/contracts/drafts/TokenVesting.sol\":5381:5432  _vestedAmount(token).sub(_released[address(token)]) */\n      and\n      jump\t// in\n    tag_93:\n        /* \"msc_token/node_modules/@openzeppelin@2.5.0/contracts/drafts/TokenVesting.sol\":5374:5432  return _vestedAmount(token).sub(_released[address(token)]) */\n      swap3\n        /* \"msc_token/node_modules/@openzeppelin@2.5.0/contracts/drafts/TokenVesting.sol\":5292:5439  function _releasableAmount(IERC20 token) private view returns (uint256) {... */\n      swap2\n      pop\n      pop\n      jump\t// out\n        /* \"msc_token/node_modules/@openzeppelin@2.5.0/contracts/math/SafeMath.sol\":834:1010  function add(uint256 a, uint256 b) internal pure returns (uint256) {... */\n    tag_56:\n        /* \"msc_token/node_modules/@openzeppelin@2.5.0/contracts/math/SafeMath.sol\":892:899  uint256 */\n      0x00\n        /* \"msc_token/node_modules/@openzeppelin@2.5.0/contracts/math/SafeMath.sol\":923:928  a + b */\n      dup3\n      dup3\n      add\n        /* \"msc_token/node_modules/@openzeppelin@2.5.0/contracts/math/SafeMath.sol\":946:952  c >= a */\n      dup4\n      dup2\n      lt\n      iszero\n        /* \"msc_token/node_modules/@openzeppelin@2.5.0/contracts/math/SafeMath.sol\":938:984  require(c >= a, \"SafeMath: addition overflow\") */\n      tag_97\n      jumpi\n      0x40\n      dup1\n      mload\n      shl(0xe5, 0x461bcd)\n      dup2\n      mstore\n      0x20\n      0x04\n      dup3\n      add\n      mstore\n      0x1b\n      0x24\n      dup3\n      add\n      mstore\n      0x536166654d6174683a206164646974696f6e206f766572666c6f770000000000\n      0x44\n      dup3\n      add\n      mstore\n      swap1\n      mload\n      swap1\n      dup2\n      swap1\n      sub\n      0x64\n      add\n      swap1\n      revert\n    tag_97:\n        /* \"msc_token/node_modules/@openzeppelin@2.5.0/contracts/math/SafeMath.sol\":1002:1003  c */\n      swap4\n        /* \"msc_token/node_modules/@openzeppelin@2.5.0/contracts/math/SafeMath.sol\":834:1010  function add(uint256 a, uint256 b) internal pure returns (uint256) {... */\n      swap3\n      pop\n      pop\n      pop\n      jump\t// out\n        /* \"msc_token/node_modules/@openzeppelin@2.5.0/contracts/token/ERC20/SafeERC20.sol\":662:836  function safeTransfer(IERC20 token, address to, uint256 value) internal {... */\n    tag_58:\n        /* \"msc_token/node_modules/@openzeppelin@2.5.0/contracts/token/ERC20/SafeERC20.sol\":770:828  abi.encodeWithSelector(token.transfer.selector, to, value) */\n      0x40\n      dup1\n      mload\n      sub(shl(0xa0, 0x01), 0x01)\n      dup5\n      and\n      0x24\n      dup3\n      add\n      mstore\n      0x44\n      dup1\n      dup3\n      add\n      dup5\n      swap1\n      mstore\n      dup3\n      mload\n        /* \"--CODEGEN--\":26:47   */\n      dup1\n      dup4\n      sub\n        /* \"--CODEGEN--\":22:54   */\n      swap1\n      swap2\n      add\n        /* \"--CODEGEN--\":6:55   */\n      dup2\n      mstore\n        /* \"msc_token/node_modules/@openzeppelin@2.5.0/contracts/token/ERC20/SafeERC20.sol\":770:828  abi.encodeWithSelector(token.transfer.selector, to, value) */\n      0x64\n      swap1\n      swap2\n      add\n      swap1\n      swap2\n      mstore\n      0x20\n        /* \"--CODEGEN--\":25:43   */\n      dup2\n      add\n        /* \"--CODEGEN--\":61:78   */\n      dup1\n      mload\n      sub(shl(0xe0, 0x01), 0x01)\n        /* \"--CODEGEN--\":182:197   */\n      and\n      shl(0xe0, 0xa9059cbb)\n        /* \"--CODEGEN--\":179:208   */\n      or\n        /* \"--CODEGEN--\":160:209   */\n      swap1\n      mstore\n        /* \"msc_token/node_modules/@openzeppelin@2.5.0/contracts/token/ERC20/SafeERC20.sol\":744:829  callOptionalReturn(token, abi.encodeWithSelector(token.transfer.selector, to, value)) */\n      tag_99\n      swap1\n        /* \"msc_token/node_modules/@openzeppelin@2.5.0/contracts/token/ERC20/SafeERC20.sol\":763:768  token */\n      dup5\n      swap1\n        /* \"msc_token/node_modules/@openzeppelin@2.5.0/contracts/token/ERC20/SafeERC20.sol\":744:762  callOptionalReturn */\n      tag_100\n        /* \"msc_token/node_modules/@openzeppelin@2.5.0/contracts/token/ERC20/SafeERC20.sol\":744:829  callOptionalReturn(token, abi.encodeWithSelector(token.transfer.selector, to, value)) */\n      jump\t// in\n    tag_99:\n        /* \"msc_token/node_modules/@openzeppelin@2.5.0/contracts/token/ERC20/SafeERC20.sol\":662:836  function safeTransfer(IERC20 token, address to, uint256 value) internal {... */\n      pop\n      pop\n      pop\n      jump\t// out\n        /* \"msc_token/node_modules/@openzeppelin@2.5.0/contracts/math/SafeMath.sol\":1274:1408  function sub(uint256 a, uint256 b) internal pure returns (uint256) {... */\n    tag_75:\n        /* \"msc_token/node_modules/@openzeppelin@2.5.0/contracts/math/SafeMath.sol\":1332:1339  uint256 */\n      0x00\n        /* \"msc_token/node_modules/@openzeppelin@2.5.0/contracts/math/SafeMath.sol\":1358:1401  sub(a, b, \"SafeMath: subtraction overflow\") */\n      tag_97\n        /* \"msc_token/node_modules/@openzeppelin@2.5.0/contracts/math/SafeMath.sol\":1362:1363  a */\n      dup4\n        /* \"msc_token/node_modules/@openzeppelin@2.5.0/contracts/math/SafeMath.sol\":1365:1366  b */\n      dup4\n        /* \"msc_token/node_modules/@openzeppelin@2.5.0/contracts/math/SafeMath.sol\":1358:1401  sub(a, b, \"SafeMath: subtraction overflow\") */\n      mload(0x40)\n      dup1\n      0x40\n      add\n      0x40\n      mstore\n      dup1\n      0x1e\n      dup2\n      mstore\n      0x20\n      add\n      0x536166654d6174683a207375627472616374696f6e206f766572666c6f770000\n      dup2\n      mstore\n      pop\n        /* \"msc_token/node_modules/@openzeppelin@2.5.0/contracts/math/SafeMath.sol\":1358:1361  sub */\n      tag_103\n        /* \"msc_token/node_modules/@openzeppelin@2.5.0/contracts/math/SafeMath.sol\":1358:1401  sub(a, b, \"SafeMath: subtraction overflow\") */\n      jump\t// in\n        /* \"msc_token/node_modules/@openzeppelin@2.5.0/contracts/GSN/Context.sol\":788:884  function _msgSender() internal view returns (address payable) {... */\n    tag_82:\n        /* \"msc_token/node_modules/@openzeppelin@2.5.0/contracts/GSN/Context.sol\":867:877  msg.sender */\n      caller\n        /* \"msc_token/node_modules/@openzeppelin@2.5.0/contracts/GSN/Context.sol\":788:884  function _msgSender() internal view returns (address payable) {... */\n      swap1\n      jump\t// out\n        /* \"msc_token/node_modules/@openzeppelin@2.5.0/contracts/ownership/Ownable.sol\":2178:2403  function _transferOwnership(address newOwner) internal {... */\n    tag_90:\n      sub(shl(0xa0, 0x01), 0x01)\n        /* \"msc_token/node_modules/@openzeppelin@2.5.0/contracts/ownership/Ownable.sol\":2251:2273  newOwner != address(0) */\n      dup2\n      and\n        /* \"msc_token/node_modules/@openzeppelin@2.5.0/contracts/ownership/Ownable.sol\":2243:2316  require(newOwner != address(0), \"Ownable: new owner is the zero address\") */\n      tag_106\n      jumpi\n      mload(0x40)\n      shl(0xe5, 0x461bcd)\n      dup2\n      mstore\n      0x04\n      add\n      dup1\n      dup1\n      0x20\n      add\n      dup3\n      dup2\n      sub\n      dup3\n      mstore\n      0x26\n      dup2\n      mstore\n      0x20\n      add\n      dup1\n      data_245f15ff17f551913a7a18385165551503906a406f905ac1c2437281a7cd0cfe\n      0x26\n      swap2\n      codecopy\n      0x40\n      add\n      swap2\n      pop\n      pop\n      mload(0x40)\n      dup1\n      swap2\n      sub\n      swap1\n      revert\n    tag_106:\n        /* \"msc_token/node_modules/@openzeppelin@2.5.0/contracts/ownership/Ownable.sol\":2352:2358  _owner */\n      0x00\n      dup1\n      sload\n        /* \"msc_token/node_modules/@openzeppelin@2.5.0/contracts/ownership/Ownable.sol\":2331:2369  OwnershipTransferred(_owner, newOwner) */\n      mload(0x40)\n      sub(shl(0xa0, 0x01), 0x01)\n      dup1\n      dup6\n      and\n      swap4\n        /* \"msc_token/node_modules/@openzeppelin@2.5.0/contracts/ownership/Ownable.sol\":2352:2358  _owner */\n      swap3\n      and\n      swap2\n        /* \"msc_token/node_modules/@openzeppelin@2.5.0/contracts/ownership/Ownable.sol\":2331:2369  OwnershipTransferred(_owner, newOwner) */\n      0x8be0079c531659141344cd1fd0a4f28419497f9722a3daafe3b4186f6b6457e0\n      swap2\n      log3\n        /* \"msc_token/node_modules/@openzeppelin@2.5.0/contracts/ownership/Ownable.sol\":2379:2385  _owner */\n      0x00\n        /* \"msc_token/node_modules/@openzeppelin@2.5.0/contracts/ownership/Ownable.sol\":2379:2396  _owner = newOwner */\n      dup1\n      sload\n      not(sub(shl(0xa0, 0x01), 0x01))\n      and\n      sub(shl(0xa0, 0x01), 0x01)\n      swap3\n      swap1\n      swap3\n      and\n      swap2\n      swap1\n      swap2\n      or\n      swap1\n      sstore\n        /* \"msc_token/node_modules/@openzeppelin@2.5.0/contracts/ownership/Ownable.sol\":2178:2403  function _transferOwnership(address newOwner) internal {... */\n      jump\t// out\n        /* \"msc_token/node_modules/@openzeppelin@2.5.0/contracts/drafts/TokenVesting.sol\":5574:6087  function _vestedAmount(IERC20 token) private view returns (uint256) {... */\n    tag_95:\n        /* \"msc_token/node_modules/@openzeppelin@2.5.0/contracts/drafts/TokenVesting.sol\":5677:5707  token.balanceOf(address(this)) */\n      0x40\n      dup1\n      mload\n      shl(0xe0, 0x70a08231)\n      dup2\n      mstore\n        /* \"msc_token/node_modules/@openzeppelin@2.5.0/contracts/drafts/TokenVesting.sol\":5701:5705  this */\n      address\n        /* \"msc_token/node_modules/@openzeppelin@2.5.0/contracts/drafts/TokenVesting.sol\":5677:5707  token.balanceOf(address(this)) */\n      0x04\n      dup3\n      add\n      mstore\n      swap1\n      mload\n        /* \"msc_token/node_modules/@openzeppelin@2.5.0/contracts/drafts/TokenVesting.sol\":5633:5640  uint256 */\n      0x00\n      swap2\n      dup3\n      swap2\n      sub(shl(0xa0, 0x01), 0x01)\n        /* \"msc_token/node_modules/@openzeppelin@2.5.0/contracts/drafts/TokenVesting.sol\":5677:5692  token.balanceOf */\n      dup6\n      and\n      swap2\n      0x70a08231\n      swap2\n        /* \"msc_token/node_modules/@openzeppelin@2.5.0/contracts/drafts/TokenVesting.sol\":5677:5707  token.balanceOf(address(this)) */\n      0x24\n      dup1\n      dup4\n      add\n      swap3\n      0x20\n      swap3\n      swap2\n      swap1\n      dup3\n      swap1\n      sub\n      add\n      dup2\n        /* \"msc_token/node_modules/@openzeppelin@2.5.0/contracts/drafts/TokenVesting.sol\":5677:5692  token.balanceOf */\n      dup7\n        /* \"msc_token/node_modules/@openzeppelin@2.5.0/contracts/drafts/TokenVesting.sol\":5677:5707  token.balanceOf(address(this)) */\n      dup1\n      extcodesize\n      iszero\n        /* \"--CODEGEN--\":5:7   */\n      dup1\n      iszero\n      tag_108\n      jumpi\n        /* \"--CODEGEN--\":30:31   */\n      0x00\n        /* \"--CODEGEN--\":27:28   */\n      dup1\n        /* \"--CODEGEN--\":20:32   */\n      revert\n        /* \"--CODEGEN--\":5:7   */\n    tag_108:\n        /* \"msc_token/node_modules/@openzeppelin@2.5.0/contracts/drafts/TokenVesting.sol\":5677:5707  token.balanceOf(address(this)) */\n      pop\n      gas\n      staticcall\n      iszero\n        /* \"--CODEGEN--\":8:17   */\n      dup1\n        /* \"--CODEGEN--\":5:7   */\n      iszero\n      tag_109\n      jumpi\n        /* \"--CODEGEN--\":45:61   */\n      returndatasize\n        /* \"--CODEGEN--\":42:43   */\n      0x00\n        /* \"--CODEGEN--\":39:40   */\n      dup1\n        /* \"--CODEGEN--\":24:62   */\n      returndatacopy\n        /* \"--CODEGEN--\":77:93   */\n      returndatasize\n        /* \"--CODEGEN--\":74:75   */\n      0x00\n        /* \"--CODEGEN--\":67:94   */\n      revert\n        /* \"--CODEGEN--\":5:7   */\n    tag_109:\n        /* \"msc_token/node_modules/@openzeppelin@2.5.0/contracts/drafts/TokenVesting.sol\":5677:5707  token.balanceOf(address(this)) */\n      pop\n      pop\n      pop\n      pop\n      mload(0x40)\n      returndatasize\n        /* \"--CODEGEN--\":13:15   */\n      0x20\n        /* \"--CODEGEN--\":8:11   */\n      dup2\n        /* \"--CODEGEN--\":5:16   */\n      lt\n        /* \"--CODEGEN--\":2:4   */\n      iszero\n      tag_110\n      jumpi\n        /* \"--CODEGEN--\":29:30   */\n      0x00\n        /* \"--CODEGEN--\":26:27   */\n      dup1\n        /* \"--CODEGEN--\":19:31   */\n      revert\n        /* \"--CODEGEN--\":2:4   */\n    tag_110:\n      pop\n        /* \"msc_token/node_modules/@openzeppelin@2.5.0/contracts/drafts/TokenVesting.sol\":5677:5707  token.balanceOf(address(this)) */\n      mload\n      sub(shl(0xa0, 0x01), 0x01)\n        /* \"msc_token/node_modules/@openzeppelin@2.5.0/contracts/drafts/TokenVesting.sol\":5759:5784  _released[address(token)] */\n      dup5\n      and\n        /* \"msc_token/node_modules/@openzeppelin@2.5.0/contracts/drafts/TokenVesting.sol\":5717:5737  uint256 totalBalance */\n      0x00\n        /* \"msc_token/node_modules/@openzeppelin@2.5.0/contracts/drafts/TokenVesting.sol\":5759:5784  _released[address(token)] */\n      swap1\n      dup2\n      mstore\n        /* \"msc_token/node_modules/@openzeppelin@2.5.0/contracts/drafts/TokenVesting.sol\":5759:5768  _released */\n      0x06\n        /* \"msc_token/node_modules/@openzeppelin@2.5.0/contracts/drafts/TokenVesting.sol\":5677:5707  token.balanceOf(address(this)) */\n      0x20\n        /* \"msc_token/node_modules/@openzeppelin@2.5.0/contracts/drafts/TokenVesting.sol\":5759:5784  _released[address(token)] */\n      mstore\n      0x40\n      dup2\n      keccak256\n      sload\n        /* \"msc_token/node_modules/@openzeppelin@2.5.0/contracts/drafts/TokenVesting.sol\":5677:5707  token.balanceOf(address(this)) */\n      swap2\n      swap3\n      pop\n        /* \"msc_token/node_modules/@openzeppelin@2.5.0/contracts/drafts/TokenVesting.sol\":5717:5737  uint256 totalBalance */\n      swap1\n        /* \"msc_token/node_modules/@openzeppelin@2.5.0/contracts/drafts/TokenVesting.sol\":5740:5785  currentBalance.add(_released[address(token)]) */\n      tag_111\n      swap1\n        /* \"msc_token/node_modules/@openzeppelin@2.5.0/contracts/drafts/TokenVesting.sol\":5677:5707  token.balanceOf(address(this)) */\n      dup4\n      swap1\n        /* \"msc_token/node_modules/@openzeppelin@2.5.0/contracts/drafts/TokenVesting.sol\":5740:5785  currentBalance.add(_released[address(token)]) */\n      0xffffffff\n        /* \"msc_token/node_modules/@openzeppelin@2.5.0/contracts/drafts/TokenVesting.sol\":5740:5758  currentBalance.add */\n      tag_56\n        /* \"msc_token/node_modules/@openzeppelin@2.5.0/contracts/drafts/TokenVesting.sol\":5740:5785  currentBalance.add(_released[address(token)]) */\n      and\n      jump\t// in\n    tag_111:\n        /* \"msc_token/node_modules/@openzeppelin@2.5.0/contracts/drafts/TokenVesting.sol\":5717:5785  uint256 totalBalance = currentBalance.add(_released[address(token)]) */\n      swap1\n      pop\n        /* \"msc_token/node_modules/@openzeppelin@2.5.0/contracts/drafts/TokenVesting.sol\":5818:5824  _cliff */\n      sload(0x02)\n        /* \"msc_token/node_modules/@openzeppelin@2.5.0/contracts/drafts/TokenVesting.sol\":5800:5815  block.timestamp */\n      timestamp\n        /* \"msc_token/node_modules/@openzeppelin@2.5.0/contracts/drafts/TokenVesting.sol\":5800:5824  block.timestamp < _cliff */\n      lt\n        /* \"msc_token/node_modules/@openzeppelin@2.5.0/contracts/drafts/TokenVesting.sol\":5796:6081  if (block.timestamp < _cliff) {... */\n      iszero\n      tag_112\n      jumpi\n        /* \"msc_token/node_modules/@openzeppelin@2.5.0/contracts/drafts/TokenVesting.sol\":5847:5848  0 */\n      0x00\n        /* \"msc_token/node_modules/@openzeppelin@2.5.0/contracts/drafts/TokenVesting.sol\":5840:5848  return 0 */\n      swap3\n      pop\n      pop\n      pop\n      jump(tag_83)\n        /* \"msc_token/node_modules/@openzeppelin@2.5.0/contracts/drafts/TokenVesting.sol\":5796:6081  if (block.timestamp < _cliff) {... */\n    tag_112:\n        /* \"msc_token/node_modules/@openzeppelin@2.5.0/contracts/drafts/TokenVesting.sol\":5899:5908  _duration */\n      sload(0x04)\n        /* \"msc_token/node_modules/@openzeppelin@2.5.0/contracts/drafts/TokenVesting.sol\":5888:5894  _start */\n      sload(0x03)\n        /* \"msc_token/node_modules/@openzeppelin@2.5.0/contracts/drafts/TokenVesting.sol\":5888:5909  _start.add(_duration) */\n      tag_114\n      swap2\n      0xffffffff\n        /* \"msc_token/node_modules/@openzeppelin@2.5.0/contracts/drafts/TokenVesting.sol\":5888:5898  _start.add */\n      tag_56\n        /* \"msc_token/node_modules/@openzeppelin@2.5.0/contracts/drafts/TokenVesting.sol\":5888:5909  _start.add(_duration) */\n      and\n      jump\t// in\n    tag_114:\n        /* \"msc_token/node_modules/@openzeppelin@2.5.0/contracts/drafts/TokenVesting.sol\":5869:5884  block.timestamp */\n      timestamp\n        /* \"msc_token/node_modules/@openzeppelin@2.5.0/contracts/drafts/TokenVesting.sol\":5869:5909  block.timestamp >= _start.add(_duration) */\n      lt\n      iszero\n        /* \"msc_token/node_modules/@openzeppelin@2.5.0/contracts/drafts/TokenVesting.sol\":5869:5937  block.timestamp >= _start.add(_duration) || _revoked[address(token)] */\n      dup1\n      tag_115\n      jumpi\n      pop\n      sub(shl(0xa0, 0x01), 0x01)\n        /* \"msc_token/node_modules/@openzeppelin@2.5.0/contracts/drafts/TokenVesting.sol\":5913:5937  _revoked[address(token)] */\n      dup5\n      and\n      0x00\n      swap1\n      dup2\n      mstore\n        /* \"msc_token/node_modules/@openzeppelin@2.5.0/contracts/drafts/TokenVesting.sol\":5913:5921  _revoked */\n      0x07\n        /* \"msc_token/node_modules/@openzeppelin@2.5.0/contracts/drafts/TokenVesting.sol\":5913:5937  _revoked[address(token)] */\n      0x20\n      mstore\n      0x40\n      swap1\n      keccak256\n      sload\n      0xff\n      and\n        /* \"msc_token/node_modules/@openzeppelin@2.5.0/contracts/drafts/TokenVesting.sol\":5869:5937  block.timestamp >= _start.add(_duration) || _revoked[address(token)] */\n    tag_115:\n        /* \"msc_token/node_modules/@openzeppelin@2.5.0/contracts/drafts/TokenVesting.sol\":5865:6081  if (block.timestamp >= _start.add(_duration) || _revoked[address(token)]) {... */\n      iszero\n      tag_116\n      jumpi\n        /* \"msc_token/node_modules/@openzeppelin@2.5.0/contracts/drafts/TokenVesting.sol\":5960:5972  totalBalance */\n      swap2\n      pop\n        /* \"msc_token/node_modules/@openzeppelin@2.5.0/contracts/drafts/TokenVesting.sol\":5953:5972  return totalBalance */\n      tag_83\n      swap1\n      pop\n      jump\n        /* \"msc_token/node_modules/@openzeppelin@2.5.0/contracts/drafts/TokenVesting.sol\":5865:6081  if (block.timestamp >= _start.add(_duration) || _revoked[address(token)]) {... */\n    tag_116:\n        /* \"msc_token/node_modules/@openzeppelin@2.5.0/contracts/drafts/TokenVesting.sol\":6010:6070  totalBalance.mul(block.timestamp.sub(_start)).div(_duration) */\n      tag_118\n        /* \"msc_token/node_modules/@openzeppelin@2.5.0/contracts/drafts/TokenVesting.sol\":6060:6069  _duration */\n      sload(0x04)\n        /* \"msc_token/node_modules/@openzeppelin@2.5.0/contracts/drafts/TokenVesting.sol\":6010:6055  totalBalance.mul(block.timestamp.sub(_start)) */\n      tag_119\n        /* \"msc_token/node_modules/@openzeppelin@2.5.0/contracts/drafts/TokenVesting.sol\":6027:6054  block.timestamp.sub(_start) */\n      tag_120\n        /* \"msc_token/node_modules/@openzeppelin@2.5.0/contracts/drafts/TokenVesting.sol\":6047:6053  _start */\n      sload(0x03)\n        /* \"msc_token/node_modules/@openzeppelin@2.5.0/contracts/drafts/TokenVesting.sol\":6027:6042  block.timestamp */\n      timestamp\n        /* \"msc_token/node_modules/@openzeppelin@2.5.0/contracts/drafts/TokenVesting.sol\":6027:6046  block.timestamp.sub */\n      tag_75\n      swap1\n        /* \"msc_token/node_modules/@openzeppelin@2.5.0/contracts/drafts/TokenVesting.sol\":6027:6054  block.timestamp.sub(_start) */\n      swap2\n      swap1\n      0xffffffff\n      and\n      jump\t// in\n    tag_120:\n        /* \"msc_token/node_modules/@openzeppelin@2.5.0/contracts/drafts/TokenVesting.sol\":6010:6022  totalBalance */\n      dup5\n      swap1\n        /* \"msc_token/node_modules/@openzeppelin@2.5.0/contracts/drafts/TokenVesting.sol\":6010:6055  totalBalance.mul(block.timestamp.sub(_start)) */\n      0xffffffff\n        /* \"msc_token/node_modules/@openzeppelin@2.5.0/contracts/drafts/TokenVesting.sol\":6010:6026  totalBalance.mul */\n      tag_121\n        /* \"msc_token/node_modules/@openzeppelin@2.5.0/contracts/drafts/TokenVesting.sol\":6010:6055  totalBalance.mul(block.timestamp.sub(_start)) */\n      and\n      jump\t// in\n    tag_119:\n        /* \"msc_token/node_modules/@openzeppelin@2.5.0/contracts/drafts/TokenVesting.sol\":6010:6059  totalBalance.mul(block.timestamp.sub(_start)).div */\n      swap1\n        /* \"msc_token/node_modules/@openzeppelin@2.5.0/contracts/drafts/TokenVesting.sol\":6010:6070  totalBalance.mul(block.timestamp.sub(_start)).div(_duration) */\n      0xffffffff\n        /* \"msc_token/node_modules/@openzeppelin@2.5.0/contracts/drafts/TokenVesting.sol\":6010:6059  totalBalance.mul(block.timestamp.sub(_start)).div */\n      tag_122\n        /* \"msc_token/node_modules/@openzeppelin@2.5.0/contracts/drafts/TokenVesting.sol\":6010:6070  totalBalance.mul(block.timestamp.sub(_start)).div(_duration) */\n      and\n      jump\t// in\n    tag_118:\n        /* \"msc_token/node_modules/@openzeppelin@2.5.0/contracts/drafts/TokenVesting.sol\":6003:6070  return totalBalance.mul(block.timestamp.sub(_start)).div(_duration) */\n      swap3\n      pop\n      pop\n      pop\n      jump(tag_83)\n        /* \"msc_token/node_modules/@openzeppelin@2.5.0/contracts/token/ERC20/SafeERC20.sol\":2666:3761  function callOptionalReturn(IERC20 token, bytes memory data) private {... */\n    tag_100:\n        /* \"msc_token/node_modules/@openzeppelin@2.5.0/contracts/token/ERC20/SafeERC20.sol\":3261:3288  address(token).isContract() */\n      tag_124\n        /* \"msc_token/node_modules/@openzeppelin@2.5.0/contracts/token/ERC20/SafeERC20.sol\":3269:3274  token */\n      dup3\n      sub(shl(0xa0, 0x01), 0x01)\n        /* \"msc_token/node_modules/@openzeppelin@2.5.0/contracts/token/ERC20/SafeERC20.sol\":3261:3286  address(token).isContract */\n      and\n      tag_125\n        /* \"msc_token/node_modules/@openzeppelin@2.5.0/contracts/token/ERC20/SafeERC20.sol\":3261:3288  address(token).isContract() */\n      jump\t// in\n    tag_124:\n        /* \"msc_token/node_modules/@openzeppelin@2.5.0/contracts/token/ERC20/SafeERC20.sol\":3253:3324  require(address(token).isContract(), \"SafeERC20: call to non-contract\") */\n      tag_126\n      jumpi\n      0x40\n      dup1\n      mload\n      shl(0xe5, 0x461bcd)\n      dup2\n      mstore\n      0x20\n      0x04\n      dup3\n      add\n      mstore\n      0x1f\n      0x24\n      dup3\n      add\n      mstore\n      0x5361666545524332303a2063616c6c20746f206e6f6e2d636f6e747261637400\n      0x44\n      dup3\n      add\n      mstore\n      swap1\n      mload\n      swap1\n      dup2\n      swap1\n      sub\n      0x64\n      add\n      swap1\n      revert\n    tag_126:\n        /* \"msc_token/node_modules/@openzeppelin@2.5.0/contracts/token/ERC20/SafeERC20.sol\":3395:3407  bool success */\n      0x00\n        /* \"msc_token/node_modules/@openzeppelin@2.5.0/contracts/token/ERC20/SafeERC20.sol\":3409:3432  bytes memory returndata */\n      0x60\n        /* \"msc_token/node_modules/@openzeppelin@2.5.0/contracts/token/ERC20/SafeERC20.sol\":3444:3449  token */\n      dup4\n      sub(shl(0xa0, 0x01), 0x01)\n        /* \"msc_token/node_modules/@openzeppelin@2.5.0/contracts/token/ERC20/SafeERC20.sol\":3436:3455  address(token).call */\n      and\n        /* \"msc_token/node_modules/@openzeppelin@2.5.0/contracts/token/ERC20/SafeERC20.sol\":3456:3460  data */\n      dup4\n        /* \"msc_token/node_modules/@openzeppelin@2.5.0/contracts/token/ERC20/SafeERC20.sol\":3436:3461  address(token).call(data) */\n      mload(0x40)\n      dup1\n      dup3\n      dup1\n      mload\n      swap1\n      0x20\n      add\n      swap1\n      dup1\n      dup4\n      dup4\n        /* \"--CODEGEN--\":36:189   */\n    tag_127:\n        /* \"--CODEGEN--\":66:68   */\n      0x20\n        /* \"--CODEGEN--\":61:64   */\n      dup4\n        /* \"--CODEGEN--\":58:69   */\n      lt\n        /* \"--CODEGEN--\":36:189   */\n      tag_129\n      jumpi\n        /* \"--CODEGEN--\":176:186   */\n      dup1\n      mload\n        /* \"--CODEGEN--\":164:187   */\n      dup3\n      mstore\n      not(0x1f)\n        /* \"--CODEGEN--\":139:151   */\n      swap1\n      swap3\n      add\n      swap2\n        /* \"--CODEGEN--\":98:100   */\n      0x20\n        /* \"--CODEGEN--\":89:101   */\n      swap2\n      dup3\n      add\n      swap2\n        /* \"--CODEGEN--\":114:126   */\n      add\n        /* \"--CODEGEN--\":36:189   */\n      jump(tag_127)\n    tag_129:\n        /* \"--CODEGEN--\":274:275   */\n      0x01\n        /* \"--CODEGEN--\":267:270   */\n      dup4\n        /* \"--CODEGEN--\":263:265   */\n      0x20\n        /* \"--CODEGEN--\":259:271   */\n      sub\n        /* \"--CODEGEN--\":254:257   */\n      0x0100\n        /* \"--CODEGEN--\":250:272   */\n      exp\n        /* \"--CODEGEN--\":246:276   */\n      sub\n        /* \"--CODEGEN--\":315:319   */\n      dup1\n        /* \"--CODEGEN--\":311:320   */\n      not\n        /* \"--CODEGEN--\":305:308   */\n      dup3\n        /* \"--CODEGEN--\":299:309   */\n      mload\n        /* \"--CODEGEN--\":295:321   */\n      and\n        /* \"--CODEGEN--\":356:360   */\n      dup2\n        /* \"--CODEGEN--\":350:353   */\n      dup5\n        /* \"--CODEGEN--\":344:354   */\n      mload\n        /* \"--CODEGEN--\":340:361   */\n      and\n        /* \"--CODEGEN--\":389:396   */\n      dup1\n        /* \"--CODEGEN--\":380:387   */\n      dup3\n        /* \"--CODEGEN--\":377:397   */\n      or\n        /* \"--CODEGEN--\":372:375   */\n      dup6\n        /* \"--CODEGEN--\":365:398   */\n      mstore\n        /* \"--CODEGEN--\":3:402   */\n      pop\n      pop\n      pop\n        /* \"msc_token/node_modules/@openzeppelin@2.5.0/contracts/token/ERC20/SafeERC20.sol\":3436:3461  address(token).call(data) */\n      pop\n      pop\n      pop\n      swap1\n      pop\n      add\n      swap2\n      pop\n      pop\n      0x00\n      mload(0x40)\n      dup1\n      dup4\n      sub\n      dup2\n      0x00\n      dup7\n      gas\n      call\n      swap2\n      pop\n      pop\n      returndatasize\n        /* \"--CODEGEN--\":14:15   */\n      dup1\n        /* \"--CODEGEN--\":21:22   */\n      0x00\n        /* \"--CODEGEN--\":16:47   */\n      dup2\n      eq\n      tag_131\n      jumpi\n        /* \"--CODEGEN--\":75:79   */\n      0x40\n        /* \"--CODEGEN--\":69:80   */\n      mload\n        /* \"--CODEGEN--\":64:80   */\n      swap2\n      pop\n        /* \"--CODEGEN--\":144:148   */\n      0x1f\n        /* \"--CODEGEN--\":140:149   */\n      not\n        /* \"--CODEGEN--\":133:137   */\n      0x3f\n        /* \"--CODEGEN--\":115:131   */\n      returndatasize\n        /* \"--CODEGEN--\":111:138   */\n      add\n        /* \"--CODEGEN--\":107:150   */\n      and\n        /* \"--CODEGEN--\":104:105   */\n      dup3\n        /* \"--CODEGEN--\":100:151   */\n      add\n        /* \"--CODEGEN--\":94:98   */\n      0x40\n        /* \"--CODEGEN--\":87:152   */\n      mstore\n        /* \"--CODEGEN--\":169:185   */\n      returndatasize\n        /* \"--CODEGEN--\":166:167   */\n      dup3\n        /* \"--CODEGEN--\":159:186   */\n      mstore\n        /* \"--CODEGEN--\":225:241   */\n      returndatasize\n        /* \"--CODEGEN--\":222:223   */\n      0x00\n        /* \"--CODEGEN--\":215:219   */\n      0x20\n        /* \"--CODEGEN--\":212:213   */\n      dup5\n        /* \"--CODEGEN--\":208:220   */\n      add\n        /* \"--CODEGEN--\":193:242   */\n      returndatacopy\n        /* \"--CODEGEN--\":7:249   */\n      jump(tag_130)\n        /* \"--CODEGEN--\":16:47   */\n    tag_131:\n        /* \"--CODEGEN--\":36:40   */\n      0x60\n        /* \"--CODEGEN--\":31:40   */\n      swap2\n      pop\n        /* \"--CODEGEN--\":7:249   */\n    tag_130:\n      pop\n        /* \"msc_token/node_modules/@openzeppelin@2.5.0/contracts/token/ERC20/SafeERC20.sol\":3394:3461  (bool success, bytes memory returndata) = address(token).call(data) */\n      swap2\n      pop\n      swap2\n      pop\n        /* \"msc_token/node_modules/@openzeppelin@2.5.0/contracts/token/ERC20/SafeERC20.sol\":3479:3486  success */\n      dup2\n        /* \"msc_token/node_modules/@openzeppelin@2.5.0/contracts/token/ERC20/SafeERC20.sol\":3471:3523  require(success, \"SafeERC20: low-level call failed\") */\n      tag_132\n      jumpi\n      0x40\n      dup1\n      mload\n      shl(0xe5, 0x461bcd)\n      dup2\n      mstore\n      0x20\n      0x04\n      dup3\n      add\n      dup2\n      swap1\n      mstore\n      0x24\n      dup3\n      add\n      mstore\n      0x5361666545524332303a206c6f772d6c6576656c2063616c6c206661696c6564\n      0x44\n      dup3\n      add\n      mstore\n      swap1\n      mload\n      swap1\n      dup2\n      swap1\n      sub\n      0x64\n      add\n      swap1\n      revert\n    tag_132:\n        /* \"msc_token/node_modules/@openzeppelin@2.5.0/contracts/token/ERC20/SafeERC20.sol\":3538:3555  returndata.length */\n      dup1\n      mload\n        /* \"msc_token/node_modules/@openzeppelin@2.5.0/contracts/token/ERC20/SafeERC20.sol\":3538:3559  returndata.length > 0 */\n      iszero\n        /* \"msc_token/node_modules/@openzeppelin@2.5.0/contracts/token/ERC20/SafeERC20.sol\":3534:3755  if (returndata.length > 0) { // Return data is optional... */\n      tag_135\n      jumpi\n        /* \"msc_token/node_modules/@openzeppelin@2.5.0/contracts/token/ERC20/SafeERC20.sol\":3678:3688  returndata */\n      dup1\n        /* \"msc_token/node_modules/@openzeppelin@2.5.0/contracts/token/ERC20/SafeERC20.sol\":3667:3697  abi.decode(returndata, (bool)) */\n      dup1\n      0x20\n      add\n      swap1\n      mload\n        /* \"--CODEGEN--\":13:15   */\n      0x20\n        /* \"--CODEGEN--\":8:11   */\n      dup2\n        /* \"--CODEGEN--\":5:16   */\n      lt\n        /* \"--CODEGEN--\":2:4   */\n      iszero\n      tag_134\n      jumpi\n        /* \"--CODEGEN--\":29:30   */\n      0x00\n        /* \"--CODEGEN--\":26:27   */\n      dup1\n        /* \"--CODEGEN--\":19:31   */\n      revert\n        /* \"--CODEGEN--\":2:4   */\n    tag_134:\n      pop\n        /* \"msc_token/node_modules/@openzeppelin@2.5.0/contracts/token/ERC20/SafeERC20.sol\":3667:3697  abi.decode(returndata, (bool)) */\n      mload\n        /* \"msc_token/node_modules/@openzeppelin@2.5.0/contracts/token/ERC20/SafeERC20.sol\":3659:3744  require(abi.decode(returndata, (bool)), \"SafeERC20: ERC20 operation did not succeed\") */\n      tag_135\n      jumpi\n      mload(0x40)\n      shl(0xe5, 0x461bcd)\n      dup2\n      mstore\n      0x04\n      add\n      dup1\n      dup1\n      0x20\n      add\n      dup3\n      dup2\n      sub\n      dup3\n      mstore\n      0x2a\n      dup2\n      mstore\n      0x20\n      add\n      dup1\n      data_e11ad79d1e4a7f2e5f376964cb99e8e8f7904e3fc16a109f7a7ecb9aa7956dcd\n      0x2a\n      swap2\n      codecopy\n      0x40\n      add\n      swap2\n      pop\n      pop\n      mload(0x40)\n      dup1\n      swap2\n      sub\n      swap1\n      revert\n    tag_135:\n        /* \"msc_token/node_modules/@openzeppelin@2.5.0/contracts/token/ERC20/SafeERC20.sol\":2666:3761  function callOptionalReturn(IERC20 token, bytes memory data) private {... */\n      pop\n      pop\n      pop\n      pop\n      jump\t// out\n        /* \"msc_token/node_modules/@openzeppelin@2.5.0/contracts/math/SafeMath.sol\":1732:1919  function sub(uint256 a, uint256 b, string memory errorMessage) internal pure returns (uint256) {... */\n    tag_103:\n        /* \"msc_token/node_modules/@openzeppelin@2.5.0/contracts/math/SafeMath.sol\":1818:1825  uint256 */\n      0x00\n        /* \"msc_token/node_modules/@openzeppelin@2.5.0/contracts/math/SafeMath.sol\":1853:1865  errorMessage */\n      dup2\n        /* \"msc_token/node_modules/@openzeppelin@2.5.0/contracts/math/SafeMath.sol\":1845:1851  b <= a */\n      dup5\n      dup5\n      gt\n      iszero\n        /* \"msc_token/node_modules/@openzeppelin@2.5.0/contracts/math/SafeMath.sol\":1837:1866  require(b <= a, errorMessage) */\n      tag_137\n      jumpi\n      mload(0x40)\n      shl(0xe5, 0x461bcd)\n      dup2\n      mstore\n      0x04\n      add\n      dup1\n      dup1\n      0x20\n      add\n      dup3\n      dup2\n      sub\n      dup3\n      mstore\n      dup4\n      dup2\n      dup2\n      mload\n      dup2\n      mstore\n      0x20\n      add\n      swap2\n      pop\n      dup1\n      mload\n      swap1\n      0x20\n      add\n      swap1\n      dup1\n      dup4\n      dup4\n        /* \"--CODEGEN--\":23:24   */\n      0x00\n        /* \"--CODEGEN--\":8:108   */\n    tag_138:\n        /* \"--CODEGEN--\":33:36   */\n      dup4\n        /* \"--CODEGEN--\":30:31   */\n      dup2\n        /* \"--CODEGEN--\":27:37   */\n      lt\n        /* \"--CODEGEN--\":8:108   */\n      iszero\n      tag_140\n      jumpi\n        /* \"--CODEGEN--\":90:101   */\n      dup2\n      dup2\n      add\n        /* \"--CODEGEN--\":84:102   */\n      mload\n        /* \"--CODEGEN--\":71:82   */\n      dup4\n      dup3\n      add\n        /* \"--CODEGEN--\":64:103   */\n      mstore\n        /* \"--CODEGEN--\":52:54   */\n      0x20\n        /* \"--CODEGEN--\":45:55   */\n      add\n        /* \"--CODEGEN--\":8:108   */\n      jump(tag_138)\n    tag_140:\n        /* \"--CODEGEN--\":12:26   */\n      pop\n        /* \"msc_token/node_modules/@openzeppelin@2.5.0/contracts/math/SafeMath.sol\":1837:1866  require(b <= a, errorMessage) */\n      pop\n      pop\n      pop\n      swap1\n      pop\n      swap1\n      dup2\n      add\n      swap1\n      0x1f\n      and\n      dup1\n      iszero\n      tag_141\n      jumpi\n      dup1\n      dup3\n      sub\n      dup1\n      mload\n      0x01\n      dup4\n      0x20\n      sub\n      0x0100\n      exp\n      sub\n      not\n      and\n      dup2\n      mstore\n      0x20\n      add\n      swap2\n      pop\n    tag_141:\n      pop\n      swap3\n      pop\n      pop\n      pop\n      mload(0x40)\n      dup1\n      swap2\n      sub\n      swap1\n      revert\n    tag_137:\n      pop\n      pop\n      pop\n        /* \"msc_token/node_modules/@openzeppelin@2.5.0/contracts/math/SafeMath.sol\":1888:1893  a - b */\n      swap1\n      sub\n      swap1\n        /* \"msc_token/node_modules/@openzeppelin@2.5.0/contracts/math/SafeMath.sol\":1732:1919  function sub(uint256 a, uint256 b, string memory errorMessage) internal pure returns (uint256) {... */\n      jump\t// out\n        /* \"msc_token/node_modules/@openzeppelin@2.5.0/contracts/math/SafeMath.sol\":2159:2618  function mul(uint256 a, uint256 b) internal pure returns (uint256) {... */\n    tag_121:\n        /* \"msc_token/node_modules/@openzeppelin@2.5.0/contracts/math/SafeMath.sol\":2217:2224  uint256 */\n      0x00\n        /* \"msc_token/node_modules/@openzeppelin@2.5.0/contracts/math/SafeMath.sol\":2458:2464  a == 0 */\n      dup3\n        /* \"msc_token/node_modules/@openzeppelin@2.5.0/contracts/math/SafeMath.sol\":2454:2499  if (a == 0) {... */\n      tag_143\n      jumpi\n      pop\n        /* \"msc_token/node_modules/@openzeppelin@2.5.0/contracts/math/SafeMath.sol\":2487:2488  0 */\n      0x00\n        /* \"msc_token/node_modules/@openzeppelin@2.5.0/contracts/math/SafeMath.sol\":2480:2488  return 0 */\n      jump(tag_93)\n        /* \"msc_token/node_modules/@openzeppelin@2.5.0/contracts/math/SafeMath.sol\":2454:2499  if (a == 0) {... */\n    tag_143:\n        /* \"msc_token/node_modules/@openzeppelin@2.5.0/contracts/math/SafeMath.sol\":2521:2526  a * b */\n      dup3\n      dup3\n      mul\n        /* \"msc_token/node_modules/@openzeppelin@2.5.0/contracts/math/SafeMath.sol\":2525:2526  b */\n      dup3\n        /* \"msc_token/node_modules/@openzeppelin@2.5.0/contracts/math/SafeMath.sol\":2521:2522  a */\n      dup5\n        /* \"msc_token/node_modules/@openzeppelin@2.5.0/contracts/math/SafeMath.sol\":2521:2526  a * b */\n      dup3\n        /* \"msc_token/node_modules/@openzeppelin@2.5.0/contracts/math/SafeMath.sol\":2521:2522  a */\n      dup2\n        /* \"msc_token/node_modules/@openzeppelin@2.5.0/contracts/math/SafeMath.sol\":2544:2549  c / a */\n      tag_144\n      jumpi\n      invalid\n    tag_144:\n      div\n        /* \"msc_token/node_modules/@openzeppelin@2.5.0/contracts/math/SafeMath.sol\":2544:2554  c / a == b */\n      eq\n        /* \"msc_token/node_modules/@openzeppelin@2.5.0/contracts/math/SafeMath.sol\":2536:2592  require(c / a == b, \"SafeMath: multiplication overflow\") */\n      tag_97\n      jumpi\n      mload(0x40)\n      shl(0xe5, 0x461bcd)\n      dup2\n      mstore\n      0x04\n      add\n      dup1\n      dup1\n      0x20\n      add\n      dup3\n      dup2\n      sub\n      dup3\n      mstore\n      0x21\n      dup2\n      mstore\n      0x20\n      add\n      dup1\n      data_9113bb53c2876a3805b2c9242029423fc540a728243ce887ab24c82cf119fba3\n      0x21\n      swap2\n      codecopy\n      0x40\n      add\n      swap2\n      pop\n      pop\n      mload(0x40)\n      dup1\n      swap2\n      sub\n      swap1\n      revert\n        /* \"msc_token/node_modules/@openzeppelin@2.5.0/contracts/math/SafeMath.sol\":3073:3203  function div(uint256 a, uint256 b) internal pure returns (uint256) {... */\n    tag_122:\n        /* \"msc_token/node_modules/@openzeppelin@2.5.0/contracts/math/SafeMath.sol\":3131:3138  uint256 */\n      0x00\n        /* \"msc_token/node_modules/@openzeppelin@2.5.0/contracts/math/SafeMath.sol\":3157:3196  div(a, b, \"SafeMath: division by zero\") */\n      tag_97\n        /* \"msc_token/node_modules/@openzeppelin@2.5.0/contracts/math/SafeMath.sol\":3161:3162  a */\n      dup4\n        /* \"msc_token/node_modules/@openzeppelin@2.5.0/contracts/math/SafeMath.sol\":3164:3165  b */\n      dup4\n        /* \"msc_token/node_modules/@openzeppelin@2.5.0/contracts/math/SafeMath.sol\":3157:3196  div(a, b, \"SafeMath: division by zero\") */\n      mload(0x40)\n      dup1\n      0x40\n      add\n      0x40\n      mstore\n      dup1\n      0x1a\n      dup2\n      mstore\n      0x20\n      add\n      0x536166654d6174683a206469766973696f6e206279207a65726f000000000000\n      dup2\n      mstore\n      pop\n        /* \"msc_token/node_modules/@openzeppelin@2.5.0/contracts/math/SafeMath.sol\":3157:3160  div */\n      tag_148\n        /* \"msc_token/node_modules/@openzeppelin@2.5.0/contracts/math/SafeMath.sol\":3157:3196  div(a, b, \"SafeMath: division by zero\") */\n      jump\t// in\n        /* \"msc_token/node_modules/@openzeppelin@2.5.0/contracts/utils/Address.sol\":686:1296  function isContract(address account) internal view returns (bool) {... */\n    tag_125:\n        /* \"msc_token/node_modules/@openzeppelin@2.5.0/contracts/utils/Address.sol\":746:750  bool */\n      0x00\n        /* \"msc_token/node_modules/@openzeppelin@2.5.0/contracts/utils/Address.sol\":1207:1227  extcodehash(account) */\n      dup2\n      extcodehash\n        /* \"msc_token/node_modules/@openzeppelin@2.5.0/contracts/utils/Address.sol\":1052:1118  0xc5d2460186f7233c927e7db2dcc703c0e500b653ca82273b7bfad8045d85a470 */\n      0xc5d2460186f7233c927e7db2dcc703c0e500b653ca82273b7bfad8045d85a470\n        /* \"msc_token/node_modules/@openzeppelin@2.5.0/contracts/utils/Address.sol\":1246:1269  codehash != accountHash */\n      dup2\n      dup2\n      eq\n      dup1\n      iszero\n      swap1\n        /* \"msc_token/node_modules/@openzeppelin@2.5.0/contracts/utils/Address.sol\":1246:1288  codehash != accountHash && codehash != 0x0 */\n      tag_150\n      jumpi\n      pop\n        /* \"msc_token/node_modules/@openzeppelin@2.5.0/contracts/utils/Address.sol\":1273:1288  codehash != 0x0 */\n      dup2\n      iszero\n      iszero\n        /* \"msc_token/node_modules/@openzeppelin@2.5.0/contracts/utils/Address.sol\":1246:1288  codehash != accountHash && codehash != 0x0 */\n    tag_150:\n        /* \"msc_token/node_modules/@openzeppelin@2.5.0/contracts/utils/Address.sol\":1238:1289  return (codehash != accountHash && codehash != 0x0) */\n      swap5\n        /* \"msc_token/node_modules/@openzeppelin@2.5.0/contracts/utils/Address.sol\":686:1296  function isContract(address account) internal view returns (bool) {... */\n      swap4\n      pop\n      pop\n      pop\n      pop\n      jump\t// out\n        /* \"msc_token/node_modules/@openzeppelin@2.5.0/contracts/math/SafeMath.sol\":3718:4056  function div(uint256 a, uint256 b, string memory errorMessage) internal pure returns (uint256) {... */\n    tag_148:\n        /* \"msc_token/node_modules/@openzeppelin@2.5.0/contracts/math/SafeMath.sol\":3804:3811  uint256 */\n      0x00\n        /* \"msc_token/node_modules/@openzeppelin@2.5.0/contracts/math/SafeMath.sol\":3904:3916  errorMessage */\n      dup2\n        /* \"msc_token/node_modules/@openzeppelin@2.5.0/contracts/math/SafeMath.sol\":3897:3902  b > 0 */\n      dup4\n        /* \"msc_token/node_modules/@openzeppelin@2.5.0/contracts/math/SafeMath.sol\":3889:3917  require(b > 0, errorMessage) */\n      tag_152\n      jumpi\n      mload(0x40)\n      shl(0xe5, 0x461bcd)\n      dup2\n      mstore\n      0x20\n      0x04\n      dup3\n      add\n      dup2\n      dup2\n      mstore\n      dup4\n      mload\n      0x24\n      dup5\n      add\n      mstore\n      dup4\n      mload\n      swap1\n      swap3\n      dup4\n      swap3\n      0x44\n      swap1\n      swap2\n      add\n      swap2\n      swap1\n      dup6\n      add\n      swap1\n      dup1\n      dup4\n      dup4\n      0x00\n        /* \"--CODEGEN--\":27:37   */\n      dup4\n      iszero\n        /* \"--CODEGEN--\":8:108   */\n      tag_140\n      jumpi\n        /* \"--CODEGEN--\":90:101   */\n      dup2\n      dup2\n      add\n        /* \"--CODEGEN--\":84:102   */\n      mload\n        /* \"--CODEGEN--\":71:82   */\n      dup4\n      dup3\n      add\n        /* \"--CODEGEN--\":64:103   */\n      mstore\n        /* \"--CODEGEN--\":52:54   */\n      0x20\n        /* \"--CODEGEN--\":45:55   */\n      add\n        /* \"--CODEGEN--\":8:108   */\n      jump(tag_138)\n        /* \"msc_token/node_modules/@openzeppelin@2.5.0/contracts/math/SafeMath.sol\":3889:3917  require(b > 0, errorMessage) */\n    tag_152:\n      pop\n        /* \"msc_token/node_modules/@openzeppelin@2.5.0/contracts/math/SafeMath.sol\":3927:3936  uint256 c */\n      0x00\n        /* \"msc_token/node_modules/@openzeppelin@2.5.0/contracts/math/SafeMath.sol\":3943:3944  b */\n      dup4\n        /* \"msc_token/node_modules/@openzeppelin@2.5.0/contracts/math/SafeMath.sol\":3939:3940  a */\n      dup6\n        /* \"msc_token/node_modules/@openzeppelin@2.5.0/contracts/math/SafeMath.sol\":3939:3944  a / b */\n      dup2\n      tag_157\n      jumpi\n      invalid\n    tag_157:\n      div\n      swap6\n        /* \"msc_token/node_modules/@openzeppelin@2.5.0/contracts/math/SafeMath.sol\":3718:4056  function div(uint256 a, uint256 b, string memory errorMessage) internal pure returns (uint256) {... */\n      swap5\n      pop\n      pop\n      pop\n      pop\n      pop\n      jump\t// out\n    stop\n    data_245f15ff17f551913a7a18385165551503906a406f905ac1c2437281a7cd0cfe 4f776e61626c653a206e6577206f776e657220697320746865207a65726f2061646472657373\n    data_9113bb53c2876a3805b2c9242029423fc540a728243ce887ab24c82cf119fba3 536166654d6174683a206d756c7469706c69636174696f6e206f766572666c6f77\n    data_e11ad79d1e4a7f2e5f376964cb99e8e8f7904e3fc16a109f7a7ecb9aa7956dcd 5361666545524332303a204552433230206f7065726174696f6e20646964206e6f742073756363656564\n    data_fa45135a638a0c1c9d4fc275ce2da4f63e13a28e343a01a7f6788e54e1fc80f5 546f6b656e56657374696e673a20746f6b656e20616c7265616479207265766f6b6564\n\n    auxdata: 0xa265627a7a7231582056445c2c3f059c0d3fe2edbdc87326d808bae715d4ba4dcdc654eaae46716df164736f6c63430005110032\n}\n",
				"bytecode": {
					"linkReferences": {},
					"object": "60806040523480156200001157600080fd5b50604051620011a4380380620011a4833981810160405260a08110156200003757600080fd5b5080516020820151604083015160608401516080909401519293919290919084848484846000620000706001600160e01b036200024d16565b600080546001600160a01b0319166001600160a01b0383169081178255604051929350917f8be0079c531659141344cd1fd0a4f28419497f9722a3daafe3b4186f6b6457e0908290a3506001600160a01b038516620001015760405162461bcd60e51b815260040180806020018281038252602d8152602001806200114c602d913960400191505060405180910390fd5b81831115620001425760405162461bcd60e51b815260040180806020018281038252602b81526020018062001179602b913960400191505060405180910390fd5b6000821162000198576040805162461bcd60e51b815260206004820152601b60248201527f546f6b656e56657374696e673a206475726174696f6e20697320300000000000604482015290519081900360640190fd5b42620001b383866200025160201b6200071d1790919060201c565b11620001f15760405162461bcd60e51b815260040180806020018281038252602f8152602001806200111d602f913960400191505060405180910390fd5b600180546001600160a01b0319166001600160a01b0387161790556005805460ff1916821515179055600482905562000237848462000251602090811b6200071d17901c565b60025550505060035550620002b3945050505050565b3390565b600082820183811015620002ac576040805162461bcd60e51b815260206004820152601b60248201527f536166654d6174683a206164646974696f6e206f766572666c6f770000000000604482015290519081900360640190fd5b9392505050565b610e5a80620002c36000396000f3fe608060405234801561001057600080fd5b50600436106100cf5760003560e01c8063872a78101161008c5780639852595c116100665780639852595c1461019c578063be9a6555146101c2578063f2fde38b146101ca578063fa01dc06146101f0576100cf565b8063872a7810146101705780638da5cb5b1461018c5780638f32d59b14610194576100cf565b80630fb5a6b4146100d457806313d033c0146100ee57806319165587146100f657806338af3eed1461011e578063715018a61461014257806374a8f1031461014a575b600080fd5b6100dc610216565b60408051918252519081900360200190f35b6100dc61021c565b61011c6004803603602081101561010c57600080fd5b50356001600160a01b0316610222565b005b610126610327565b604080516001600160a01b039092168252519081900360200190f35b61011c610336565b61011c6004803603602081101561016057600080fd5b50356001600160a01b03166103d9565b610178610601565b604080519115158252519081900360200190f35b61012661060a565b610178610619565b6100dc600480360360208110156101b257600080fd5b50356001600160a01b031661063d565b6100dc61065c565b61011c600480360360208110156101e057600080fd5b50356001600160a01b0316610662565b6101786004803603602081101561020657600080fd5b50356001600160a01b03166106c7565b60045490565b60025490565b600061022d826106e5565b905060008111610284576040805162461bcd60e51b815260206004820152601f60248201527f546f6b656e56657374696e673a206e6f20746f6b656e73206172652064756500604482015290519081900360640190fd5b6001600160a01b0382166000908152600660205260409020546102ad908263ffffffff61071d16565b6001600160a01b038084166000818152600660205260409020929092556001546102df9291168363ffffffff61077e16565b604080516001600160a01b03841681526020810183905281517fc7798891864187665ac6dd119286e44ec13f014527aeeb2b8eb3fd413df93179929181900390910190a15050565b6001546001600160a01b031690565b61033e610619565b61038f576040805162461bcd60e51b815260206004820181905260248201527f4f776e61626c653a2063616c6c6572206973206e6f7420746865206f776e6572604482015290519081900360640190fd5b600080546040516001600160a01b03909116907f8be0079c531659141344cd1fd0a4f28419497f9722a3daafe3b4186f6b6457e0908390a3600080546001600160a01b0319169055565b6103e1610619565b610432576040805162461bcd60e51b815260206004820181905260248201527f4f776e61626c653a2063616c6c6572206973206e6f7420746865206f776e6572604482015290519081900360640190fd5b60055460ff16610489576040805162461bcd60e51b815260206004820152601b60248201527f546f6b656e56657374696e673a2063616e6e6f74207265766f6b650000000000604482015290519081900360640190fd5b6001600160a01b03811660009081526007602052604090205460ff16156104e15760405162461bcd60e51b8152600401808060200182810382526023815260200180610e036023913960400191505060405180910390fd5b604080516370a0823160e01b815230600482015290516000916001600160a01b038416916370a0823191602480820192602092909190829003018186803b15801561052b57600080fd5b505afa15801561053f573d6000803e3d6000fd5b505050506040513d602081101561055557600080fd5b505190506000610564836106e5565b90506000610578838363ffffffff6107d516565b6001600160a01b0385166000908152600760205260409020805460ff1916600117905590506105bf6105a861060a565b6001600160a01b038616908363ffffffff61077e16565b604080516001600160a01b038616815290517f39983c6d4d174a7aee564f449d4a5c3c7ac9649d72b7793c56901183996f8af69181900360200190a150505050565b60055460ff1690565b6000546001600160a01b031690565b600080546001600160a01b031661062e610817565b6001600160a01b031614905090565b6001600160a01b0381166000908152600660205260409020545b919050565b60035490565b61066a610619565b6106bb576040805162461bcd60e51b815260206004820181905260248201527f4f776e61626c653a2063616c6c6572206973206e6f7420746865206f776e6572604482015290519081900360640190fd5b6106c48161081b565b50565b6001600160a01b031660009081526007602052604090205460ff1690565b6001600160a01b0381166000908152600660205260408120546107179061070b846108bb565b9063ffffffff6107d516565b92915050565b600082820183811015610777576040805162461bcd60e51b815260206004820152601b60248201527f536166654d6174683a206164646974696f6e206f766572666c6f770000000000604482015290519081900360640190fd5b9392505050565b604080516001600160a01b038416602482015260448082018490528251808303909101815260649091019091526020810180516001600160e01b031663a9059cbb60e01b1790526107d0908490610a00565b505050565b600061077783836040518060400160405280601e81526020017f536166654d6174683a207375627472616374696f6e206f766572666c6f770000815250610bbe565b3390565b6001600160a01b0381166108605760405162461bcd60e51b8152600401808060200182810382526026815260200180610d926026913960400191505060405180910390fd5b600080546040516001600160a01b03808516939216917f8be0079c531659141344cd1fd0a4f28419497f9722a3daafe3b4186f6b6457e091a3600080546001600160a01b0319166001600160a01b0392909216919091179055565b604080516370a0823160e01b8152306004820152905160009182916001600160a01b038516916370a08231916024808301926020929190829003018186803b15801561090657600080fd5b505afa15801561091a573d6000803e3d6000fd5b505050506040513d602081101561093057600080fd5b50516001600160a01b0384166000908152600660205260408120549192509061096090839063ffffffff61071d16565b905060025442101561097757600092505050610657565b60045460035461098c9163ffffffff61071d16565b421015806109b257506001600160a01b03841660009081526007602052604090205460ff165b156109c05791506106579050565b6109f76004546109eb6109de600354426107d590919063ffffffff16565b849063ffffffff610c5516565b9063ffffffff610cae16565b92505050610657565b610a12826001600160a01b0316610cf0565b610a63576040805162461bcd60e51b815260206004820152601f60248201527f5361666545524332303a2063616c6c20746f206e6f6e2d636f6e747261637400604482015290519081900360640190fd5b60006060836001600160a01b0316836040518082805190602001908083835b60208310610aa15780518252601f199092019160209182019101610a82565b6001836020036101000a0380198251168184511680821785525050505050509050019150506000604051808303816000865af19150503d8060008114610b03576040519150601f19603f3d011682016040523d82523d6000602084013e610b08565b606091505b509150915081610b5f576040805162461bcd60e51b815260206004820181905260248201527f5361666545524332303a206c6f772d6c6576656c2063616c6c206661696c6564604482015290519081900360640190fd5b805115610bb857808060200190516020811015610b7b57600080fd5b5051610bb85760405162461bcd60e51b815260040180806020018281038252602a815260200180610dd9602a913960400191505060405180910390fd5b50505050565b60008184841115610c4d5760405162461bcd60e51b81526004018080602001828103825283818151815260200191508051906020019080838360005b83811015610c12578181015183820152602001610bfa565b50505050905090810190601f168015610c3f5780820380516001836020036101000a031916815260200191505b509250505060405180910390fd5b505050900390565b600082610c6457506000610717565b82820282848281610c7157fe5b04146107775760405162461bcd60e51b8152600401808060200182810382526021815260200180610db86021913960400191505060405180910390fd5b600061077783836040518060400160405280601a81526020017f536166654d6174683a206469766973696f6e206279207a65726f000000000000815250610d2c565b6000813f7fc5d2460186f7233c927e7db2dcc703c0e500b653ca82273b7bfad8045d85a470818114801590610d2457508115155b949350505050565b60008183610d7b5760405162461bcd60e51b8152602060048201818152835160248401528351909283926044909101919085019080838360008315610c12578181015183820152602001610bfa565b506000838581610d8757fe5b049594505050505056fe4f776e61626c653a206e6577206f776e657220697320746865207a65726f2061646472657373536166654d6174683a206d756c7469706c69636174696f6e206f766572666c6f775361666545524332303a204552433230206f7065726174696f6e20646964206e6f742073756363656564546f6b656e56657374696e673a20746f6b656e20616c7265616479207265766f6b6564a265627a7a7231582056445c2c3f059c0d3fe2edbdc87326d808bae715d4ba4dcdc654eaae46716df164736f6c63430005110032546f6b656e56657374696e673a2066696e616c2074696d65206973206265666f72652063757272656e742074696d65546f6b656e56657374696e673a2062656e656669636961727920697320746865207a65726f2061646472657373546f6b656e56657374696e673a20636c696666206973206c6f6e676572207468616e206475726174696f6e",
					"opcodes": "PUSH1 0x80 PUSH1 0x40 MSTORE CALLVALUE DUP1 ISZERO PUSH3 0x11 JUMPI PUSH1 0x0 DUP1 REVERT JUMPDEST POP PUSH1 0x40 MLOAD PUSH3 0x11A4 CODESIZE SUB DUP1 PUSH3 0x11A4 DUP4 CODECOPY DUP2 DUP2 ADD PUSH1 0x40 MSTORE PUSH1 0xA0 DUP2 LT ISZERO PUSH3 0x37 JUMPI PUSH1 0x0 DUP1 REVERT JUMPDEST POP DUP1 MLOAD PUSH1 0x20 DUP3 ADD MLOAD PUSH1 0x40 DUP4 ADD MLOAD PUSH1 0x60 DUP5 ADD MLOAD PUSH1 0x80 SWAP1 SWAP5 ADD MLOAD SWAP3 SWAP4 SWAP2 SWAP3 SWAP1 SWAP2 SWAP1 DUP5 DUP5 DUP5 DUP5 DUP5 PUSH1 0x0 PUSH3 0x70 PUSH1 0x1 PUSH1 0x1 PUSH1 0xE0 SHL SUB PUSH3 0x24D AND JUMP JUMPDEST PUSH1 0x0 DUP1 SLOAD PUSH1 0x1 PUSH1 0x1 PUSH1 0xA0 SHL SUB NOT AND PUSH1 0x1 PUSH1 0x1 PUSH1 0xA0 SHL SUB DUP4 AND SWAP1 DUP2 OR DUP3 SSTORE PUSH1 0x40 MLOAD SWAP3 SWAP4 POP SWAP2 PUSH32 0x8BE0079C531659141344CD1FD0A4F28419497F9722A3DAAFE3B4186F6B6457E0 SWAP1 DUP3 SWAP1 LOG3 POP PUSH1 0x1 PUSH1 0x1 PUSH1 0xA0 SHL SUB DUP6 AND PUSH3 0x101 JUMPI PUSH1 0x40 MLOAD PUSH3 0x461BCD PUSH1 0xE5 SHL DUP2 MSTORE PUSH1 0x4 ADD DUP1 DUP1 PUSH1 0x20 ADD DUP3 DUP2 SUB DUP3 MSTORE PUSH1 0x2D DUP2 MSTORE PUSH1 0x20 ADD DUP1 PUSH3 0x114C PUSH1 0x2D SWAP2 CODECOPY PUSH1 0x40 ADD SWAP2 POP POP PUSH1 0x40 MLOAD DUP1 SWAP2 SUB SWAP1 REVERT JUMPDEST DUP2 DUP4 GT ISZERO PUSH3 0x142 JUMPI PUSH1 0x40 MLOAD PUSH3 0x461BCD PUSH1 0xE5 SHL DUP2 MSTORE PUSH1 0x4 ADD DUP1 DUP1 PUSH1 0x20 ADD DUP3 DUP2 SUB DUP3 MSTORE PUSH1 0x2B DUP2 MSTORE PUSH1 0x20 ADD DUP1 PUSH3 0x1179 PUSH1 0x2B SWAP2 CODECOPY PUSH1 0x40 ADD SWAP2 POP POP PUSH1 0x40 MLOAD DUP1 SWAP2 SUB SWAP1 REVERT JUMPDEST PUSH1 0x0 DUP3 GT PUSH3 0x198 JUMPI PUSH1 0x40 DUP1 MLOAD PUSH3 0x461BCD PUSH1 0xE5 SHL DUP2 MSTORE PUSH1 0x20 PUSH1 0x4 DUP3 ADD MSTORE PUSH1 0x1B PUSH1 0x24 DUP3 ADD MSTORE PUSH32 0x546F6B656E56657374696E673A206475726174696F6E20697320300000000000 PUSH1 0x44 DUP3 ADD MSTORE SWAP1 MLOAD SWAP1 DUP2 SWAP1 SUB PUSH1 0x64 ADD SWAP1 REVERT JUMPDEST TIMESTAMP PUSH3 0x1B3 DUP4 DUP7 PUSH3 0x251 PUSH1 0x20 SHL PUSH3 0x71D OR SWAP1 SWAP2 SWAP1 PUSH1 0x20 SHR JUMP JUMPDEST GT PUSH3 0x1F1 JUMPI PUSH1 0x40 MLOAD PUSH3 0x461BCD PUSH1 0xE5 SHL DUP2 MSTORE PUSH1 0x4 ADD DUP1 DUP1 PUSH1 0x20 ADD DUP3 DUP2 SUB DUP3 MSTORE PUSH1 0x2F DUP2 MSTORE PUSH1 0x20 ADD DUP1 PUSH3 0x111D PUSH1 0x2F SWAP2 CODECOPY PUSH1 0x40 ADD SWAP2 POP POP PUSH1 0x40 MLOAD DUP1 SWAP2 SUB SWAP1 REVERT JUMPDEST PUSH1 0x1 DUP1 SLOAD PUSH1 0x1 PUSH1 0x1 PUSH1 0xA0 SHL SUB NOT AND PUSH1 0x1 PUSH1 0x1 PUSH1 0xA0 SHL SUB DUP8 AND OR SWAP1 SSTORE PUSH1 0x5 DUP1 SLOAD PUSH1 0xFF NOT AND DUP3 ISZERO ISZERO OR SWAP1 SSTORE PUSH1 0x4 DUP3 SWAP1 SSTORE PUSH3 0x237 DUP5 DUP5 PUSH3 0x251 PUSH1 0x20 SWAP1 DUP2 SHL PUSH3 0x71D OR SWAP1 SHR JUMP JUMPDEST PUSH1 0x2 SSTORE POP POP POP PUSH1 0x3 SSTORE POP PUSH3 0x2B3 SWAP5 POP POP POP POP POP JUMP JUMPDEST CALLER SWAP1 JUMP JUMPDEST PUSH1 0x0 DUP3 DUP3 ADD DUP4 DUP2 LT ISZERO PUSH3 0x2AC JUMPI PUSH1 0x40 DUP1 MLOAD PUSH3 0x461BCD PUSH1 0xE5 SHL DUP2 MSTORE PUSH1 0x20 PUSH1 0x4 DUP3 ADD MSTORE PUSH1 0x1B PUSH1 0x24 DUP3 ADD MSTORE PUSH32 0x536166654D6174683A206164646974696F6E206F766572666C6F770000000000 PUSH1 0x44 DUP3 ADD MSTORE SWAP1 MLOAD SWAP1 DUP2 SWAP1 SUB PUSH1 0x64 ADD SWAP1 REVERT JUMPDEST SWAP4 SWAP3 POP POP POP JUMP JUMPDEST PUSH2 0xE5A DUP1 PUSH3 0x2C3 PUSH1 0x0 CODECOPY PUSH1 0x0 RETURN INVALID PUSH1 0x80 PUSH1 0x40 MSTORE CALLVALUE DUP1 ISZERO PUSH2 0x10 JUMPI PUSH1 0x0 DUP1 REVERT JUMPDEST POP PUSH1 0x4 CALLDATASIZE LT PUSH2 0xCF JUMPI PUSH1 0x0 CALLDATALOAD PUSH1 0xE0 SHR DUP1 PUSH4 0x872A7810 GT PUSH2 0x8C JUMPI DUP1 PUSH4 0x9852595C GT PUSH2 0x66 JUMPI DUP1 PUSH4 0x9852595C EQ PUSH2 0x19C JUMPI DUP1 PUSH4 0xBE9A6555 EQ PUSH2 0x1C2 JUMPI DUP1 PUSH4 0xF2FDE38B EQ PUSH2 0x1CA JUMPI DUP1 PUSH4 0xFA01DC06 EQ PUSH2 0x1F0 JUMPI PUSH2 0xCF JUMP JUMPDEST DUP1 PUSH4 0x872A7810 EQ PUSH2 0x170 JUMPI DUP1 PUSH4 0x8DA5CB5B EQ PUSH2 0x18C JUMPI DUP1 PUSH4 0x8F32D59B EQ PUSH2 0x194 JUMPI PUSH2 0xCF JUMP JUMPDEST DUP1 PUSH4 0xFB5A6B4 EQ PUSH2 0xD4 JUMPI DUP1 PUSH4 0x13D033C0 EQ PUSH2 0xEE JUMPI DUP1 PUSH4 0x19165587 EQ PUSH2 0xF6 JUMPI DUP1 PUSH4 0x38AF3EED EQ PUSH2 0x11E JUMPI DUP1 PUSH4 0x715018A6 EQ PUSH2 0x142 JUMPI DUP1 PUSH4 0x74A8F103 EQ PUSH2 0x14A JUMPI JUMPDEST PUSH1 0x0 DUP1 REVERT JUMPDEST PUSH2 0xDC PUSH2 0x216 JUMP JUMPDEST PUSH1 0x40 DUP1 MLOAD SWAP2 DUP3 MSTORE MLOAD SWAP1 DUP2 SWAP1 SUB PUSH1 0x20 ADD SWAP1 RETURN JUMPDEST PUSH2 0xDC PUSH2 0x21C JUMP JUMPDEST PUSH2 0x11C PUSH1 0x4 DUP1 CALLDATASIZE SUB PUSH1 0x20 DUP2 LT ISZERO PUSH2 0x10C JUMPI PUSH1 0x0 DUP1 REVERT JUMPDEST POP CALLDATALOAD PUSH1 0x1 PUSH1 0x1 PUSH1 0xA0 SHL SUB AND PUSH2 0x222 JUMP JUMPDEST STOP JUMPDEST PUSH2 0x126 PUSH2 0x327 JUMP JUMPDEST PUSH1 0x40 DUP1 MLOAD PUSH1 0x1 PUSH1 0x1 PUSH1 0xA0 SHL SUB SWAP1 SWAP3 AND DUP3 MSTORE MLOAD SWAP1 DUP2 SWAP1 SUB PUSH1 0x20 ADD SWAP1 RETURN JUMPDEST PUSH2 0x11C PUSH2 0x336 JUMP JUMPDEST PUSH2 0x11C PUSH1 0x4 DUP1 CALLDATASIZE SUB PUSH1 0x20 DUP2 LT ISZERO PUSH2 0x160 JUMPI PUSH1 0x0 DUP1 REVERT JUMPDEST POP CALLDATALOAD PUSH1 0x1 PUSH1 0x1 PUSH1 0xA0 SHL SUB AND PUSH2 0x3D9 JUMP JUMPDEST PUSH2 0x178 PUSH2 0x601 JUMP JUMPDEST PUSH1 0x40 DUP1 MLOAD SWAP2 ISZERO ISZERO DUP3 MSTORE MLOAD SWAP1 DUP2 SWAP1 SUB PUSH1 0x20 ADD SWAP1 RETURN JUMPDEST PUSH2 0x126 PUSH2 0x60A JUMP JUMPDEST PUSH2 0x178 PUSH2 0x619 JUMP JUMPDEST PUSH2 0xDC PUSH1 0x4 DUP1 CALLDATASIZE SUB PUSH1 0x20 DUP2 LT ISZERO PUSH2 0x1B2 JUMPI PUSH1 0x0 DUP1 REVERT JUMPDEST POP CALLDATALOAD PUSH1 0x1 PUSH1 0x1 PUSH1 0xA0 SHL SUB AND PUSH2 0x63D JUMP JUMPDEST PUSH2 0xDC PUSH2 0x65C JUMP JUMPDEST PUSH2 0x11C PUSH1 0x4 DUP1 CALLDATASIZE SUB PUSH1 0x20 DUP2 LT ISZERO PUSH2 0x1E0 JUMPI PUSH1 0x0 DUP1 REVERT JUMPDEST POP CALLDATALOAD PUSH1 0x1 PUSH1 0x1 PUSH1 0xA0 SHL SUB AND PUSH2 0x662 JUMP JUMPDEST PUSH2 0x178 PUSH1 0x4 DUP1 CALLDATASIZE SUB PUSH1 0x20 DUP2 LT ISZERO PUSH2 0x206 JUMPI PUSH1 0x0 DUP1 REVERT JUMPDEST POP CALLDATALOAD PUSH1 0x1 PUSH1 0x1 PUSH1 0xA0 SHL SUB AND PUSH2 0x6C7 JUMP JUMPDEST PUSH1 0x4 SLOAD SWAP1 JUMP JUMPDEST PUSH1 0x2 SLOAD SWAP1 JUMP JUMPDEST PUSH1 0x0 PUSH2 0x22D DUP3 PUSH2 0x6E5 JUMP JUMPDEST SWAP1 POP PUSH1 0x0 DUP2 GT PUSH2 0x284 JUMPI PUSH1 0x40 DUP1 MLOAD PUSH3 0x461BCD PUSH1 0xE5 SHL DUP2 MSTORE PUSH1 0x20 PUSH1 0x4 DUP3 ADD MSTORE PUSH1 0x1F PUSH1 0x24 DUP3 ADD MSTORE PUSH32 0x546F6B656E56657374696E673A206E6F20746F6B656E73206172652064756500 PUSH1 0x44 DUP3 ADD MSTORE SWAP1 MLOAD SWAP1 DUP2 SWAP1 SUB PUSH1 0x64 ADD SWAP1 REVERT JUMPDEST PUSH1 0x1 PUSH1 0x1 PUSH1 0xA0 SHL SUB DUP3 AND PUSH1 0x0 SWAP1 DUP2 MSTORE PUSH1 0x6 PUSH1 0x20 MSTORE PUSH1 0x40 SWAP1 KECCAK256 SLOAD PUSH2 0x2AD SWAP1 DUP3 PUSH4 0xFFFFFFFF PUSH2 0x71D AND JUMP JUMPDEST PUSH1 0x1 PUSH1 0x1 PUSH1 0xA0 SHL SUB DUP1 DUP5 AND PUSH1 0x0 DUP2 DUP2 MSTORE PUSH1 0x6 PUSH1 0x20 MSTORE PUSH1 0x40 SWAP1 KECCAK256 SWAP3 SWAP1 SWAP3 SSTORE PUSH1 0x1 SLOAD PUSH2 0x2DF SWAP3 SWAP2 AND DUP4 PUSH4 0xFFFFFFFF PUSH2 0x77E AND JUMP JUMPDEST PUSH1 0x40 DUP1 MLOAD PUSH1 0x1 PUSH1 0x1 PUSH1 0xA0 SHL SUB DUP5 AND DUP2 MSTORE PUSH1 0x20 DUP2 ADD DUP4 SWAP1 MSTORE DUP2 MLOAD PUSH32 0xC7798891864187665AC6DD119286E44EC13F014527AEEB2B8EB3FD413DF93179 SWAP3 SWAP2 DUP2 SWAP1 SUB SWAP1 SWAP2 ADD SWAP1 LOG1 POP POP JUMP JUMPDEST PUSH1 0x1 SLOAD PUSH1 0x1 PUSH1 0x1 PUSH1 0xA0 SHL SUB AND SWAP1 JUMP JUMPDEST PUSH2 0x33E PUSH2 0x619 JUMP JUMPDEST PUSH2 0x38F JUMPI PUSH1 0x40 DUP1 MLOAD PUSH3 0x461BCD PUSH1 0xE5 SHL DUP2 MSTORE PUSH1 0x20 PUSH1 0x4 DUP3 ADD DUP2 SWAP1 MSTORE PUSH1 0x24 DUP3 ADD MSTORE PUSH32 0x4F776E61626C653A2063616C6C6572206973206E6F7420746865206F776E6572 PUSH1 0x44 DUP3 ADD MSTORE SWAP1 MLOAD SWAP1 DUP2 SWAP1 SUB PUSH1 0x64 ADD SWAP1 REVERT JUMPDEST PUSH1 0x0 DUP1 SLOAD PUSH1 0x40 MLOAD PUSH1 0x1 PUSH1 0x1 PUSH1 0xA0 SHL SUB SWAP1 SWAP2 AND SWAP1 PUSH32 0x8BE0079C531659141344CD1FD0A4F28419497F9722A3DAAFE3B4186F6B6457E0 SWAP1 DUP4 SWAP1 LOG3 PUSH1 0x0 DUP1 SLOAD PUSH1 0x1 PUSH1 0x1 PUSH1 0xA0 SHL SUB NOT AND SWAP1 SSTORE JUMP JUMPDEST PUSH2 0x3E1 PUSH2 0x619 JUMP JUMPDEST PUSH2 0x432 JUMPI PUSH1 0x40 DUP1 MLOAD PUSH3 0x461BCD PUSH1 0xE5 SHL DUP2 MSTORE PUSH1 0x20 PUSH1 0x4 DUP3 ADD DUP2 SWAP1 MSTORE PUSH1 0x24 DUP3 ADD MSTORE PUSH32 0x4F776E61626C653A2063616C6C6572206973206E6F7420746865206F776E6572 PUSH1 0x44 DUP3 ADD MSTORE SWAP1 MLOAD SWAP1 DUP2 SWAP1 SUB PUSH1 0x64 ADD SWAP1 REVERT JUMPDEST PUSH1 0x5 SLOAD PUSH1 0xFF AND PUSH2 0x489 JUMPI PUSH1 0x40 DUP1 MLOAD PUSH3 0x461BCD PUSH1 0xE5 SHL DUP2 MSTORE PUSH1 0x20 PUSH1 0x4 DUP3 ADD MSTORE PUSH1 0x1B PUSH1 0x24 DUP3 ADD MSTORE PUSH32 0x546F6B656E56657374696E673A2063616E6E6F74207265766F6B650000000000 PUSH1 0x44 DUP3 ADD MSTORE SWAP1 MLOAD SWAP1 DUP2 SWAP1 SUB PUSH1 0x64 ADD SWAP1 REVERT JUMPDEST PUSH1 0x1 PUSH1 0x1 PUSH1 0xA0 SHL SUB DUP2 AND PUSH1 0x0 SWAP1 DUP2 MSTORE PUSH1 0x7 PUSH1 0x20 MSTORE PUSH1 0x40 SWAP1 KECCAK256 SLOAD PUSH1 0xFF AND ISZERO PUSH2 0x4E1 JUMPI PUSH1 0x40 MLOAD PUSH3 0x461BCD PUSH1 0xE5 SHL DUP2 MSTORE PUSH1 0x4 ADD DUP1 DUP1 PUSH1 0x20 ADD DUP3 DUP2 SUB DUP3 MSTORE PUSH1 0x23 DUP2 MSTORE PUSH1 0x20 ADD DUP1 PUSH2 0xE03 PUSH1 0x23 SWAP2 CODECOPY PUSH1 0x40 ADD SWAP2 POP POP PUSH1 0x40 MLOAD DUP1 SWAP2 SUB SWAP1 REVERT JUMPDEST PUSH1 0x40 DUP1 MLOAD PUSH4 0x70A08231 PUSH1 0xE0 SHL DUP2 MSTORE ADDRESS PUSH1 0x4 DUP3 ADD MSTORE SWAP1 MLOAD PUSH1 0x0 SWAP2 PUSH1 0x1 PUSH1 0x1 PUSH1 0xA0 SHL SUB DUP5 AND SWAP2 PUSH4 0x70A08231 SWAP2 PUSH1 0x24 DUP1 DUP3 ADD SWAP3 PUSH1 0x20 SWAP3 SWAP1 SWAP2 SWAP1 DUP3 SWAP1 SUB ADD DUP2 DUP7 DUP1 EXTCODESIZE ISZERO DUP1 ISZERO PUSH2 0x52B JUMPI PUSH1 0x0 DUP1 REVERT JUMPDEST POP GAS STATICCALL ISZERO DUP1 ISZERO PUSH2 0x53F JUMPI RETURNDATASIZE PUSH1 0x0 DUP1 RETURNDATACOPY RETURNDATASIZE PUSH1 0x0 REVERT JUMPDEST POP POP POP POP PUSH1 0x40 MLOAD RETURNDATASIZE PUSH1 0x20 DUP2 LT ISZERO PUSH2 0x555 JUMPI PUSH1 0x0 DUP1 REVERT JUMPDEST POP MLOAD SWAP1 POP PUSH1 0x0 PUSH2 0x564 DUP4 PUSH2 0x6E5 JUMP JUMPDEST SWAP1 POP PUSH1 0x0 PUSH2 0x578 DUP4 DUP4 PUSH4 0xFFFFFFFF PUSH2 0x7D5 AND JUMP JUMPDEST PUSH1 0x1 PUSH1 0x1 PUSH1 0xA0 SHL SUB DUP6 AND PUSH1 0x0 SWAP1 DUP2 MSTORE PUSH1 0x7 PUSH1 0x20 MSTORE PUSH1 0x40 SWAP1 KECCAK256 DUP1 SLOAD PUSH1 0xFF NOT AND PUSH1 0x1 OR SWAP1 SSTORE SWAP1 POP PUSH2 0x5BF PUSH2 0x5A8 PUSH2 0x60A JUMP JUMPDEST PUSH1 0x1 PUSH1 0x1 PUSH1 0xA0 SHL SUB DUP7 AND SWAP1 DUP4 PUSH4 0xFFFFFFFF PUSH2 0x77E AND JUMP JUMPDEST PUSH1 0x40 DUP1 MLOAD PUSH1 0x1 PUSH1 0x1 PUSH1 0xA0 SHL SUB DUP7 AND DUP2 MSTORE SWAP1 MLOAD PUSH32 0x39983C6D4D174A7AEE564F449D4A5C3C7AC9649D72B7793C56901183996F8AF6 SWAP2 DUP2 SWAP1 SUB PUSH1 0x20 ADD SWAP1 LOG1 POP POP POP POP JUMP JUMPDEST PUSH1 0x5 SLOAD PUSH1 0xFF AND SWAP1 JUMP JUMPDEST PUSH1 0x0 SLOAD PUSH1 0x1 PUSH1 0x1 PUSH1 0xA0 SHL SUB AND SWAP1 JUMP JUMPDEST PUSH1 0x0 DUP1 SLOAD PUSH1 0x1 PUSH1 0x1 PUSH1 0xA0 SHL SUB AND PUSH2 0x62E PUSH2 0x817 JUMP JUMPDEST PUSH1 0x1 PUSH1 0x1 PUSH1 0xA0 SHL SUB AND EQ SWAP1 POP SWAP1 JUMP JUMPDEST PUSH1 0x1 PUSH1 0x1 PUSH1 0xA0 SHL SUB DUP2 AND PUSH1 0x0 SWAP1 DUP2 MSTORE PUSH1 0x6 PUSH1 0x20 MSTORE PUSH1 0x40 SWAP1 KECCAK256 SLOAD JUMPDEST SWAP2 SWAP1 POP JUMP JUMPDEST PUSH1 0x3 SLOAD SWAP1 JUMP JUMPDEST PUSH2 0x66A PUSH2 0x619 JUMP JUMPDEST PUSH2 0x6BB JUMPI PUSH1 0x40 DUP1 MLOAD PUSH3 0x461BCD PUSH1 0xE5 SHL DUP2 MSTORE PUSH1 0x20 PUSH1 0x4 DUP3 ADD DUP2 SWAP1 MSTORE PUSH1 0x24 DUP3 ADD MSTORE PUSH32 0x4F776E61626C653A2063616C6C6572206973206E6F7420746865206F776E6572 PUSH1 0x44 DUP3 ADD MSTORE SWAP1 MLOAD SWAP1 DUP2 SWAP1 SUB PUSH1 0x64 ADD SWAP1 REVERT JUMPDEST PUSH2 0x6C4 DUP2 PUSH2 0x81B JUMP JUMPDEST POP JUMP JUMPDEST PUSH1 0x1 PUSH1 0x1 PUSH1 0xA0 SHL SUB AND PUSH1 0x0 SWAP1 DUP2 MSTORE PUSH1 0x7 PUSH1 0x20 MSTORE PUSH1 0x40 SWAP1 KECCAK256 SLOAD PUSH1 0xFF AND SWAP1 JUMP JUMPDEST PUSH1 0x1 PUSH1 0x1 PUSH1 0xA0 SHL SUB DUP2 AND PUSH1 0x0 SWAP1 DUP2 MSTORE PUSH1 0x6 PUSH1 0x20 MSTORE PUSH1 0x40 DUP2 KECCAK256 SLOAD PUSH2 0x717 SWAP1 PUSH2 0x70B DUP5 PUSH2 0x8BB JUMP JUMPDEST SWAP1 PUSH4 0xFFFFFFFF PUSH2 0x7D5 AND JUMP JUMPDEST SWAP3 SWAP2 POP POP JUMP JUMPDEST PUSH1 0x0 DUP3 DUP3 ADD DUP4 DUP2 LT ISZERO PUSH2 0x777 JUMPI PUSH1 0x40 DUP1 MLOAD PUSH3 0x461BCD PUSH1 0xE5 SHL DUP2 MSTORE PUSH1 0x20 PUSH1 0x4 DUP3 ADD MSTORE PUSH1 0x1B PUSH1 0x24 DUP3 ADD MSTORE PUSH32 0x536166654D6174683A206164646974696F6E206F766572666C6F770000000000 PUSH1 0x44 DUP3 ADD MSTORE SWAP1 MLOAD SWAP1 DUP2 SWAP1 SUB PUSH1 0x64 ADD SWAP1 REVERT JUMPDEST SWAP4 SWAP3 POP POP POP JUMP JUMPDEST PUSH1 0x40 DUP1 MLOAD PUSH1 0x1 PUSH1 0x1 PUSH1 0xA0 SHL SUB DUP5 AND PUSH1 0x24 DUP3 ADD MSTORE PUSH1 0x44 DUP1 DUP3 ADD DUP5 SWAP1 MSTORE DUP3 MLOAD DUP1 DUP4 SUB SWAP1 SWAP2 ADD DUP2 MSTORE PUSH1 0x64 SWAP1 SWAP2 ADD SWAP1 SWAP2 MSTORE PUSH1 0x20 DUP2 ADD DUP1 MLOAD PUSH1 0x1 PUSH1 0x1 PUSH1 0xE0 SHL SUB AND PUSH4 0xA9059CBB PUSH1 0xE0 SHL OR SWAP1 MSTORE PUSH2 0x7D0 SWAP1 DUP5 SWAP1 PUSH2 0xA00 JUMP JUMPDEST POP POP POP JUMP JUMPDEST PUSH1 0x0 PUSH2 0x777 DUP4 DUP4 PUSH1 0x40 MLOAD DUP1 PUSH1 0x40 ADD PUSH1 0x40 MSTORE DUP1 PUSH1 0x1E DUP2 MSTORE PUSH1 0x20 ADD PUSH32 0x536166654D6174683A207375627472616374696F6E206F766572666C6F770000 DUP2 MSTORE POP PUSH2 0xBBE JUMP JUMPDEST CALLER SWAP1 JUMP JUMPDEST PUSH1 0x1 PUSH1 0x1 PUSH1 0xA0 SHL SUB DUP2 AND PUSH2 0x860 JUMPI PUSH1 0x40 MLOAD PUSH3 0x461BCD PUSH1 0xE5 SHL DUP2 MSTORE PUSH1 0x4 ADD DUP1 DUP1 PUSH1 0x20 ADD DUP3 DUP2 SUB DUP3 MSTORE PUSH1 0x26 DUP2 MSTORE PUSH1 0x20 ADD DUP1 PUSH2 0xD92 PUSH1 0x26 SWAP2 CODECOPY PUSH1 0x40 ADD SWAP2 POP POP PUSH1 0x40 MLOAD DUP1 SWAP2 SUB SWAP1 REVERT JUMPDEST PUSH1 0x0 DUP1 SLOAD PUSH1 0x40 MLOAD PUSH1 0x1 PUSH1 0x1 PUSH1 0xA0 SHL SUB DUP1 DUP6 AND SWAP4 SWAP3 AND SWAP2 PUSH32 0x8BE0079C531659141344CD1FD0A4F28419497F9722A3DAAFE3B4186F6B6457E0 SWAP2 LOG3 PUSH1 0x0 DUP1 SLOAD PUSH1 0x1 PUSH1 0x1 PUSH1 0xA0 SHL SUB NOT AND PUSH1 0x1 PUSH1 0x1 PUSH1 0xA0 SHL SUB SWAP3 SWAP1 SWAP3 AND SWAP2 SWAP1 SWAP2 OR SWAP1 SSTORE JUMP JUMPDEST PUSH1 0x40 DUP1 MLOAD PUSH4 0x70A08231 PUSH1 0xE0 SHL DUP2 MSTORE ADDRESS PUSH1 0x4 DUP3 ADD MSTORE SWAP1 MLOAD PUSH1 0x0 SWAP2 DUP3 SWAP2 PUSH1 0x1 PUSH1 0x1 PUSH1 0xA0 SHL SUB DUP6 AND SWAP2 PUSH4 0x70A08231 SWAP2 PUSH1 0x24 DUP1 DUP4 ADD SWAP3 PUSH1 0x20 SWAP3 SWAP2 SWAP1 DUP3 SWAP1 SUB ADD DUP2 DUP7 DUP1 EXTCODESIZE ISZERO DUP1 ISZERO PUSH2 0x906 JUMPI PUSH1 0x0 DUP1 REVERT JUMPDEST POP GAS STATICCALL ISZERO DUP1 ISZERO PUSH2 0x91A JUMPI RETURNDATASIZE PUSH1 0x0 DUP1 RETURNDATACOPY RETURNDATASIZE PUSH1 0x0 REVERT JUMPDEST POP POP POP POP PUSH1 0x40 MLOAD RETURNDATASIZE PUSH1 0x20 DUP2 LT ISZERO PUSH2 0x930 JUMPI PUSH1 0x0 DUP1 REVERT JUMPDEST POP MLOAD PUSH1 0x1 PUSH1 0x1 PUSH1 0xA0 SHL SUB DUP5 AND PUSH1 0x0 SWAP1 DUP2 MSTORE PUSH1 0x6 PUSH1 0x20 MSTORE PUSH1 0x40 DUP2 KECCAK256 SLOAD SWAP2 SWAP3 POP SWAP1 PUSH2 0x960 SWAP1 DUP4 SWAP1 PUSH4 0xFFFFFFFF PUSH2 0x71D AND JUMP JUMPDEST SWAP1 POP PUSH1 0x2 SLOAD TIMESTAMP LT ISZERO PUSH2 0x977 JUMPI PUSH1 0x0 SWAP3 POP POP POP PUSH2 0x657 JUMP JUMPDEST PUSH1 0x4 SLOAD PUSH1 0x3 SLOAD PUSH2 0x98C SWAP2 PUSH4 0xFFFFFFFF PUSH2 0x71D AND JUMP JUMPDEST TIMESTAMP LT ISZERO DUP1 PUSH2 0x9B2 JUMPI POP PUSH1 0x1 PUSH1 0x1 PUSH1 0xA0 SHL SUB DUP5 AND PUSH1 0x0 SWAP1 DUP2 MSTORE PUSH1 0x7 PUSH1 0x20 MSTORE PUSH1 0x40 SWAP1 KECCAK256 SLOAD PUSH1 0xFF AND JUMPDEST ISZERO PUSH2 0x9C0 JUMPI SWAP2 POP PUSH2 0x657 SWAP1 POP JUMP JUMPDEST PUSH2 0x9F7 PUSH1 0x4 SLOAD PUSH2 0x9EB PUSH2 0x9DE PUSH1 0x3 SLOAD TIMESTAMP PUSH2 0x7D5 SWAP1 SWAP2 SWAP1 PUSH4 0xFFFFFFFF AND JUMP JUMPDEST DUP5 SWAP1 PUSH4 0xFFFFFFFF PUSH2 0xC55 AND JUMP JUMPDEST SWAP1 PUSH4 0xFFFFFFFF PUSH2 0xCAE AND JUMP JUMPDEST SWAP3 POP POP POP PUSH2 0x657 JUMP JUMPDEST PUSH2 0xA12 DUP3 PUSH1 0x1 PUSH1 0x1 PUSH1 0xA0 SHL SUB AND PUSH2 0xCF0 JUMP JUMPDEST PUSH2 0xA63 JUMPI PUSH1 0x40 DUP1 MLOAD PUSH3 0x461BCD PUSH1 0xE5 SHL DUP2 MSTORE PUSH1 0x20 PUSH1 0x4 DUP3 ADD MSTORE PUSH1 0x1F PUSH1 0x24 DUP3 ADD MSTORE PUSH32 0x5361666545524332303A2063616C6C20746F206E6F6E2D636F6E747261637400 PUSH1 0x44 DUP3 ADD MSTORE SWAP1 MLOAD SWAP1 DUP2 SWAP1 SUB PUSH1 0x64 ADD SWAP1 REVERT JUMPDEST PUSH1 0x0 PUSH1 0x60 DUP4 PUSH1 0x1 PUSH1 0x1 PUSH1 0xA0 SHL SUB AND DUP4 PUSH1 0x40 MLOAD DUP1 DUP3 DUP1 MLOAD SWAP1 PUSH1 0x20 ADD SWAP1 DUP1 DUP4 DUP4 JUMPDEST PUSH1 0x20 DUP4 LT PUSH2 0xAA1 JUMPI DUP1 MLOAD DUP3 MSTORE PUSH1 0x1F NOT SWAP1 SWAP3 ADD SWAP2 PUSH1 0x20 SWAP2 DUP3 ADD SWAP2 ADD PUSH2 0xA82 JUMP JUMPDEST PUSH1 0x1 DUP4 PUSH1 0x20 SUB PUSH2 0x100 EXP SUB DUP1 NOT DUP3 MLOAD AND DUP2 DUP5 MLOAD AND DUP1 DUP3 OR DUP6 MSTORE POP POP POP POP POP POP SWAP1 POP ADD SWAP2 POP POP PUSH1 0x0 PUSH1 0x40 MLOAD DUP1 DUP4 SUB DUP2 PUSH1 0x0 DUP7 GAS CALL SWAP2 POP POP RETURNDATASIZE DUP1 PUSH1 0x0 DUP2 EQ PUSH2 0xB03 JUMPI PUSH1 0x40 MLOAD SWAP2 POP PUSH1 0x1F NOT PUSH1 0x3F RETURNDATASIZE ADD AND DUP3 ADD PUSH1 0x40 MSTORE RETURNDATASIZE DUP3 MSTORE RETURNDATASIZE PUSH1 0x0 PUSH1 0x20 DUP5 ADD RETURNDATACOPY PUSH2 0xB08 JUMP JUMPDEST PUSH1 0x60 SWAP2 POP JUMPDEST POP SWAP2 POP SWAP2 POP DUP2 PUSH2 0xB5F JUMPI PUSH1 0x40 DUP1 MLOAD PUSH3 0x461BCD PUSH1 0xE5 SHL DUP2 MSTORE PUSH1 0x20 PUSH1 0x4 DUP3 ADD DUP2 SWAP1 MSTORE PUSH1 0x24 DUP3 ADD MSTORE PUSH32 0x5361666545524332303A206C6F772D6C6576656C2063616C6C206661696C6564 PUSH1 0x44 DUP3 ADD MSTORE SWAP1 MLOAD SWAP1 DUP2 SWAP1 SUB PUSH1 0x64 ADD SWAP1 REVERT JUMPDEST DUP1 MLOAD ISZERO PUSH2 0xBB8 JUMPI DUP1 DUP1 PUSH1 0x20 ADD SWAP1 MLOAD PUSH1 0x20 DUP2 LT ISZERO PUSH2 0xB7B JUMPI PUSH1 0x0 DUP1 REVERT JUMPDEST POP MLOAD PUSH2 0xBB8 JUMPI PUSH1 0x40 MLOAD PUSH3 0x461BCD PUSH1 0xE5 SHL DUP2 MSTORE PUSH1 0x4 ADD DUP1 DUP1 PUSH1 0x20 ADD DUP3 DUP2 SUB DUP3 MSTORE PUSH1 0x2A DUP2 MSTORE PUSH1 0x20 ADD DUP1 PUSH2 0xDD9 PUSH1 0x2A SWAP2 CODECOPY PUSH1 0x40 ADD SWAP2 POP POP PUSH1 0x40 MLOAD DUP1 SWAP2 SUB SWAP1 REVERT JUMPDEST POP POP POP POP JUMP JUMPDEST PUSH1 0x0 DUP2 DUP5 DUP5 GT ISZERO PUSH2 0xC4D JUMPI PUSH1 0x40 MLOAD PUSH3 0x461BCD PUSH1 0xE5 SHL DUP2 MSTORE PUSH1 0x4 ADD DUP1 DUP1 PUSH1 0x20 ADD DUP3 DUP2 SUB DUP3 MSTORE DUP4 DUP2 DUP2 MLOAD DUP2 MSTORE PUSH1 0x20 ADD SWAP2 POP DUP1 MLOAD SWAP1 PUSH1 0x20 ADD SWAP1 DUP1 DUP4 DUP4 PUSH1 0x0 JUMPDEST DUP4 DUP2 LT ISZERO PUSH2 0xC12 JUMPI DUP2 DUP2 ADD MLOAD DUP4 DUP3 ADD MSTORE PUSH1 0x20 ADD PUSH2 0xBFA JUMP JUMPDEST POP POP POP POP SWAP1 POP SWAP1 DUP2 ADD SWAP1 PUSH1 0x1F AND DUP1 ISZERO PUSH2 0xC3F JUMPI DUP1 DUP3 SUB DUP1 MLOAD PUSH1 0x1 DUP4 PUSH1 0x20 SUB PUSH2 0x100 EXP SUB NOT AND DUP2 MSTORE PUSH1 0x20 ADD SWAP2 POP JUMPDEST POP SWAP3 POP POP POP PUSH1 0x40 MLOAD DUP1 SWAP2 SUB SWAP1 REVERT JUMPDEST POP POP POP SWAP1 SUB SWAP1 JUMP JUMPDEST PUSH1 0x0 DUP3 PUSH2 0xC64 JUMPI POP PUSH1 0x0 PUSH2 0x717 JUMP JUMPDEST DUP3 DUP3 MUL DUP3 DUP5 DUP3 DUP2 PUSH2 0xC71 JUMPI INVALID JUMPDEST DIV EQ PUSH2 0x777 JUMPI PUSH1 0x40 MLOAD PUSH3 0x461BCD PUSH1 0xE5 SHL DUP2 MSTORE PUSH1 0x4 ADD DUP1 DUP1 PUSH1 0x20 ADD DUP3 DUP2 SUB DUP3 MSTORE PUSH1 0x21 DUP2 MSTORE PUSH1 0x20 ADD DUP1 PUSH2 0xDB8 PUSH1 0x21 SWAP2 CODECOPY PUSH1 0x40 ADD SWAP2 POP POP PUSH1 0x40 MLOAD DUP1 SWAP2 SUB SWAP1 REVERT JUMPDEST PUSH1 0x0 PUSH2 0x777 DUP4 DUP4 PUSH1 0x40 MLOAD DUP1 PUSH1 0x40 ADD PUSH1 0x40 MSTORE DUP1 PUSH1 0x1A DUP2 MSTORE PUSH1 0x20 ADD PUSH32 0x536166654D6174683A206469766973696F6E206279207A65726F000000000000 DUP2 MSTORE POP PUSH2 0xD2C JUMP JUMPDEST PUSH1 0x0 DUP2 EXTCODEHASH PUSH32 0xC5D2460186F7233C927E7DB2DCC703C0E500B653CA82273B7BFAD8045D85A470 DUP2 DUP2 EQ DUP1 ISZERO SWAP1 PUSH2 0xD24 JUMPI POP DUP2 ISZERO ISZERO JUMPDEST SWAP5 SWAP4 POP POP POP POP JUMP JUMPDEST PUSH1 0x0 DUP2 DUP4 PUSH2 0xD7B JUMPI PUSH1 0x40 MLOAD PUSH3 0x461BCD PUSH1 0xE5 SHL DUP2 MSTORE PUSH1 0x20 PUSH1 0x4 DUP3 ADD DUP2 DUP2 MSTORE DUP4 MLOAD PUSH1 0x24 DUP5 ADD MSTORE DUP4 MLOAD SWAP1 SWAP3 DUP4 SWAP3 PUSH1 0x44 SWAP1 SWAP2 ADD SWAP2 SWAP1 DUP6 ADD SWAP1 DUP1 DUP4 DUP4 PUSH1 0x0 DUP4 ISZERO PUSH2 0xC12 JUMPI DUP2 DUP2 ADD MLOAD DUP4 DUP3 ADD MSTORE PUSH1 0x20 ADD PUSH2 0xBFA JUMP JUMPDEST POP PUSH1 0x0 DUP4 DUP6 DUP2 PUSH2 0xD87 JUMPI INVALID JUMPDEST DIV SWAP6 SWAP5 POP POP POP POP POP JUMP INVALID 0x4F PUSH24 0x6E61626C653A206E6577206F776E65722069732074686520 PUSH27 0x65726F2061646472657373536166654D6174683A206D756C746970 PUSH13 0x69636174696F6E206F76657266 PUSH13 0x6F775361666545524332303A20 GASLIMIT MSTORE NUMBER ORIGIN ADDRESS KECCAK256 PUSH16 0x7065726174696F6E20646964206E6F74 KECCAK256 PUSH20 0x756363656564546F6B656E56657374696E673A20 PUSH21 0x6F6B656E20616C7265616479207265766F6B6564A2 PUSH6 0x627A7A723158 KECCAK256 JUMP DIFFICULTY 0x5C 0x2C EXTCODEHASH SDIV SWAP13 0xD EXTCODEHASH 0xE2 0xED 0xBD 0xC8 PUSH20 0x26D808BAE715D4BA4DCDC654EAAE46716DF16473 PUSH16 0x6C63430005110032546F6B656E566573 PUSH21 0x696E673A2066696E616C2074696D65206973206265 PUSH7 0x6F726520637572 PUSH19 0x656E742074696D65546F6B656E56657374696E PUSH8 0x3A2062656E656669 PUSH4 0x69617279 KECCAK256 PUSH10 0x7320746865207A65726F KECCAK256 PUSH2 0x6464 PUSH19 0x657373546F6B656E56657374696E673A20636C PUSH10 0x6666206973206C6F6E67 PUSH6 0x72207468616E KECCAK256 PUSH5 0x7572617469 PUSH16 0x6E000000000000000000000000000000 "
				},
				"gasEstimates": {
					"creation": {
						"codeDepositCost": "734800",
						"executionCost": "infinite",
						"totalCost": "infinite"
					},
					"external": {
						"beneficiary()": "1104",
						"cliff()": "1021",
						"duration()": "999",
						"isOwner()": "1147",
						"owner()": "1082",
						"release(address)": "infinite",
						"released(address)": "1173",
						"renounceOwnership()": "24334",
						"revocable()": "1033",
						"revoke(address)": "infinite",
						"revoked(address)": "1242",
						"start()": "1042",
						"transferOwnership(address)": "infinite"
					}
				},
				"methodIdentifiers": {
					"beneficiary()": "38af3eed",
					"cliff()": "13d033c0",
					"duration()": "0fb5a6b4",
					"isOwner()": "8f32d59b",
					"owner()": "8da5cb5b",
					"release(address)": "19165587",
					"released(address)": "9852595c",
					"renounceOwnership()": "715018a6",
					"revocable()": "872a7810",
					"revoke(address)": "74a8f103",
					"revoked(address)": "fa01dc06",
					"start()": "be9a6555",
					"transferOwnership(address)": "f2fde38b"
				}
			},
			"storageLayout": {
				"storage": [
					{
						"astId": 624,
						"contract": "msc_token/MscVesting.sol:MscVesting",
						"label": "_owner",
						"offset": 0,
						"slot": "0",
						"type": "t_address"
					},
					{
						"astId": 78,
						"contract": "msc_token/MscVesting.sol:MscVesting",
						"label": "_beneficiary",
						"offset": 0,
						"slot": "1",
						"type": "t_address"
					},
					{
						"astId": 80,
						"contract": "msc_token/MscVesting.sol:MscVesting",
						"label": "_cliff",
						"offset": 0,
						"slot": "2",
						"type": "t_uint256"
					},
					{
						"astId": 82,
						"contract": "msc_token/MscVesting.sol:MscVesting",
						"label": "_start",
						"offset": 0,
						"slot": "3",
						"type": "t_uint256"
					},
					{
						"astId": 84,
						"contract": "msc_token/MscVesting.sol:MscVesting",
						"label": "_duration",
						"offset": 0,
						"slot": "4",
						"type": "t_uint256"
					},
					{
						"astId": 86,
						"contract": "msc_token/MscVesting.sol:MscVesting",
						"label": "_revocable",
						"offset": 0,
						"slot": "5",
						"type": "t_bool"
					},
					{
						"astId": 90,
						"contract": "msc_token/MscVesting.sol:MscVesting",
						"label": "_released",
						"offset": 0,
						"slot": "6",
						"type": "t_mapping(t_address,t_uint256)"
					},
					{
						"astId": 94,
						"contract": "msc_token/MscVesting.sol:MscVesting",
						"label": "_revoked",
						"offset": 0,
						"slot": "7",
						"type": "t_mapping(t_address,t_bool)"
					}
				],
				"types": {
					"t_address": {
						"encoding": "inplace",
						"label": "address",
						"numberOfBytes": "20"
					},
					"t_bool": {
						"encoding": "inplace",
						"label": "bool",
						"numberOfBytes": "1"
					},
					"t_mapping(t_address,t_bool)": {
						"encoding": "mapping",
						"key": "t_address",
						"label": "mapping(address => bool)",
						"numberOfBytes": "32",
						"value": "t_bool"
					},
					"t_mapping(t_address,t_uint256)": {
						"encoding": "mapping",
						"key": "t_address",
						"label": "mapping(address => uint256)",
						"numberOfBytes": "32",
						"value": "t_uint256"
					},
					"t_uint256": {
						"encoding": "inplace",
						"label": "uint256",
						"numberOfBytes": "32"
					}
				}
			},
			"userdoc": {
				"methods": {
					"release(address)": {
						"notice": "Transfers vested tokens to beneficiary."
					},
					"revoke(address)": {
						"notice": "Allows the owner to revoke the vesting. Tokens already vested remain in the contract, the rest are returned to the owner."
					}
				}
			}
		}
	}
}