{
	"msc_token/BeePresell.sol": {
		"BeePresell": {
			"abi": [
				{
					"inputs": [
						{
							"internalType": "uint64",
							"name": "_startAt",
							"type": "uint64"
						},
						{
							"internalType": "uint64",
							"name": "_endAt",
							"type": "uint64"
						}
					],
					"stateMutability": "nonpayable",
					"type": "constructor"
				},
				{
					"anonymous": false,
					"inputs": [
						{
							"indexed": true,
							"internalType": "address",
							"name": "previousOwner",
							"type": "address"
						},
						{
							"indexed": true,
							"internalType": "address",
							"name": "newOwner",
							"type": "address"
						}
					],
					"name": "OwnershipTransferred",
					"type": "event"
				},
				{
					"inputs": [
						{
							"internalType": "address",
							"name": "_inviter",
							"type": "address"
						}
					],
					"name": "acceptInvitation",
					"outputs": [
						{
							"internalType": "bool",
							"name": "",
							"type": "bool"
						}
					],
					"stateMutability": "nonpayable",
					"type": "function"
				},
				{
					"inputs": [],
					"name": "buyTokens",
					"outputs": [],
					"stateMutability": "nonpayable",
					"type": "function"
				},
				{
					"inputs": [
						{
							"internalType": "uint256",
							"name": "amount",
							"type": "uint256"
						}
					],
					"name": "exigencyWithdraw",
					"outputs": [],
					"stateMutability": "nonpayable",
					"type": "function"
				},
				{
					"inputs": [],
					"name": "getEndTime",
					"outputs": [
						{
							"internalType": "uint64",
							"name": "",
							"type": "uint64"
						}
					],
					"stateMutability": "view",
					"type": "function"
				},
				{
					"inputs": [],
					"name": "getPreSellCoinAmount",
					"outputs": [
						{
							"internalType": "uint256",
							"name": "",
							"type": "uint256"
						}
					],
					"stateMutability": "view",
					"type": "function"
				},
				{
					"inputs": [],
					"name": "getPreSellCounter",
					"outputs": [
						{
							"internalType": "uint64",
							"name": "",
							"type": "uint64"
						}
					],
					"stateMutability": "view",
					"type": "function"
				},
				{
					"inputs": [],
					"name": "getStartTime",
					"outputs": [
						{
							"internalType": "uint64",
							"name": "",
							"type": "uint64"
						}
					],
					"stateMutability": "view",
					"type": "function"
				},
				{
					"inputs": [],
					"name": "getUsdtAmount",
					"outputs": [
						{
							"internalType": "uint256",
							"name": "",
							"type": "uint256"
						}
					],
					"stateMutability": "view",
					"type": "function"
				},
				{
					"inputs": [
						{
							"internalType": "address",
							"name": "user",
							"type": "address"
						}
					],
					"name": "getUserHasBuy",
					"outputs": [
						{
							"internalType": "bool",
							"name": "",
							"type": "bool"
						}
					],
					"stateMutability": "view",
					"type": "function"
				},
				{
					"inputs": [
						{
							"internalType": "address",
							"name": "user",
							"type": "address"
						}
					],
					"name": "getUserInviteAirdropCoinAmount",
					"outputs": [
						{
							"internalType": "uint256",
							"name": "",
							"type": "uint256"
						}
					],
					"stateMutability": "view",
					"type": "function"
				},
				{
					"inputs": [
						{
							"internalType": "address",
							"name": "user",
							"type": "address"
						}
					],
					"name": "getUserLowers",
					"outputs": [
						{
							"internalType": "address[]",
							"name": "",
							"type": "address[]"
						}
					],
					"stateMutability": "view",
					"type": "function"
				},
				{
					"inputs": [
						{
							"internalType": "address",
							"name": "user",
							"type": "address"
						}
					],
					"name": "getUserLowersCount",
					"outputs": [
						{
							"internalType": "uint256",
							"name": "",
							"type": "uint256"
						}
					],
					"stateMutability": "view",
					"type": "function"
				},
				{
					"inputs": [
						{
							"internalType": "address",
							"name": "user",
							"type": "address"
						}
					],
					"name": "getUserPreSellCoinAmount",
					"outputs": [
						{
							"internalType": "uint256",
							"name": "",
							"type": "uint256"
						}
					],
					"stateMutability": "view",
					"type": "function"
				},
				{
					"inputs": [
						{
							"internalType": "address",
							"name": "user",
							"type": "address"
						}
					],
					"name": "getUserUpper",
					"outputs": [
						{
							"internalType": "address",
							"name": "",
							"type": "address"
						}
					],
					"stateMutability": "view",
					"type": "function"
				},
				{
					"inputs": [],
					"name": "getWithdrawCounter",
					"outputs": [
						{
							"internalType": "uint64",
							"name": "",
							"type": "uint64"
						}
					],
					"stateMutability": "view",
					"type": "function"
				},
				{
					"inputs": [
						{
							"internalType": "address",
							"name": "",
							"type": "address"
						}
					],
					"name": "hasBuy",
					"outputs": [
						{
							"internalType": "bool",
							"name": "",
							"type": "bool"
						}
					],
					"stateMutability": "view",
					"type": "function"
				},
				{
					"inputs": [
						{
							"internalType": "address",
							"name": "",
							"type": "address"
						}
					],
					"name": "inviteInfo",
					"outputs": [
						{
							"internalType": "address",
							"name": "upper",
							"type": "address"
						},
						{
							"internalType": "uint256",
							"name": "startBlock",
							"type": "uint256"
						}
					],
					"stateMutability": "view",
					"type": "function"
				},
				{
					"inputs": [],
					"name": "lowersCounter",
					"outputs": [
						{
							"internalType": "uint32",
							"name": "",
							"type": "uint32"
						}
					],
					"stateMutability": "view",
					"type": "function"
				},
				{
					"inputs": [],
					"name": "marketAddress",
					"outputs": [
						{
							"internalType": "address",
							"name": "",
							"type": "address"
						}
					],
					"stateMutability": "view",
					"type": "function"
				},
				{
					"inputs": [],
					"name": "owner",
					"outputs": [
						{
							"internalType": "address",
							"name": "",
							"type": "address"
						}
					],
					"stateMutability": "view",
					"type": "function"
				},
				{
					"inputs": [],
					"name": "presellTokenMintAddress",
					"outputs": [
						{
							"internalType": "address",
							"name": "",
							"type": "address"
						}
					],
					"stateMutability": "view",
					"type": "function"
				},
				{
					"inputs": [],
					"name": "renounceOwnership",
					"outputs": [],
					"stateMutability": "nonpayable",
					"type": "function"
				},
				{
					"inputs": [],
					"name": "sellToken",
					"outputs": [
						{
							"internalType": "contract IERC20",
							"name": "",
							"type": "address"
						}
					],
					"stateMutability": "view",
					"type": "function"
				},
				{
					"inputs": [
						{
							"internalType": "uint256",
							"name": "newAmount",
							"type": "uint256"
						}
					],
					"name": "setAmount",
					"outputs": [],
					"stateMutability": "nonpayable",
					"type": "function"
				},
				{
					"inputs": [
						{
							"internalType": "address",
							"name": "newAddress",
							"type": "address"
						}
					],
					"name": "setMarketAddress",
					"outputs": [],
					"stateMutability": "nonpayable",
					"type": "function"
				},
				{
					"inputs": [
						{
							"internalType": "address",
							"name": "newOwner",
							"type": "address"
						}
					],
					"name": "transferOwnership",
					"outputs": [],
					"stateMutability": "nonpayable",
					"type": "function"
				},
				{
					"inputs": [],
					"name": "usdtMintAddress",
					"outputs": [
						{
							"internalType": "address",
							"name": "",
							"type": "address"
						}
					],
					"stateMutability": "view",
					"type": "function"
				},
				{
					"inputs": [],
					"name": "usdtToken",
					"outputs": [
						{
							"internalType": "contract IERC20",
							"name": "",
							"type": "address"
						}
					],
					"stateMutability": "view",
					"type": "function"
				},
				{
					"inputs": [
						{
							"internalType": "address",
							"name": "",
							"type": "address"
						}
					],
					"name": "userInviteBalancelMap",
					"outputs": [
						{
							"internalType": "bool",
							"name": "",
							"type": "bool"
						}
					],
					"stateMutability": "view",
					"type": "function"
				},
				{
					"inputs": [
						{
							"internalType": "address",
							"name": "",
							"type": "address"
						}
					],
					"name": "userPresellBalanceMap",
					"outputs": [
						{
							"internalType": "uint256",
							"name": "",
							"type": "uint256"
						}
					],
					"stateMutability": "view",
					"type": "function"
				},
				{
					"inputs": [],
					"name": "withdrawInviteAirdropTokens",
					"outputs": [],
					"stateMutability": "nonpayable",
					"type": "function"
				},
				{
					"inputs": [],
					"name": "withdrawPresellTokens",
					"outputs": [],
					"stateMutability": "nonpayable",
					"type": "function"
				}
			],
			"devdoc": {
				"kind": "dev",
				"methods": {
					"owner()": {
						"details": "Returns the address of the current owner."
					},
					"renounceOwnership()": {
						"details": "Leaves the contract without owner. It will not be possible to call `onlyOwner` functions anymore. Can only be called by the current owner. NOTE: Renouncing ownership will leave the contract without an owner, thereby removing any functionality that is only available to the owner."
					},
					"transferOwnership(address)": {
						"details": "Transfers ownership of the contract to a new account (`newOwner`). Can only be called by the current owner."
					}
				},
				"version": 1
			},
			"evm": {
				"assembly": "    /* \"msc_token/BeePresell.sol\":2649:8573  contract BeePresell is Ownable {... */\n  mstore(0x40, 0xc0)\n    /* \"msc_token/BeePresell.sol\":2883:2958  address public usdtMintAddress = 0xEdA5dA0050e21e9E34fadb1075986Af1370c7BDb */\n  0x01\n  dup1\n  sload\n  not(sub(shl(0xa0, 0x01), 0x01))\n  swap1\n  dup2\n  and\n    /* \"msc_token/BeePresell.sol\":2916:2958  0xEdA5dA0050e21e9E34fadb1075986Af1370c7BDb */\n  0xeda5da0050e21e9e34fadb1075986af1370c7bdb\n    /* \"msc_token/BeePresell.sol\":2883:2958  address public usdtMintAddress = 0xEdA5dA0050e21e9E34fadb1075986Af1370c7BDb */\n  or\n  swap1\n  swap2\n  sstore\n    /* \"msc_token/BeePresell.sol\":2965:3048  address public presellTokenMintAddress = 0xB0bc99bdb71a4320a9aD357f68EBfBe6fFeBFc8A */\n  0x02\n  dup1\n  sload\n  dup3\n  and\n    /* \"msc_token/BeePresell.sol\":3006:3048  0xB0bc99bdb71a4320a9aD357f68EBfBe6fFeBFc8A */\n  0xb0bc99bdb71a4320a9ad357f68ebfbe6ffebfc8a\n    /* \"msc_token/BeePresell.sol\":2965:3048  address public presellTokenMintAddress = 0xB0bc99bdb71a4320a9aD357f68EBfBe6fFeBFc8A */\n  or\n  swap1\n  sstore\n    /* \"msc_token/BeePresell.sol\":3055:3128  address public marketAddress = 0xe3e90697218F31B8d0867b8A9c52947D3c888339 */\n  0x03\n  dup1\n  sload\n  swap1\n  swap2\n  and\n    /* \"msc_token/BeePresell.sol\":3086:3128  0xe3e90697218F31B8d0867b8A9c52947D3c888339 */\n  0xe3e90697218f31b8d0867b8a9c52947d3c888339\n    /* \"msc_token/BeePresell.sol\":3055:3128  address public marketAddress = 0xe3e90697218F31B8d0867b8A9c52947D3c888339 */\n  or\n  swap1\n  sstore\n    /* \"msc_token/BeePresell.sol\":3212:3224  1 * 10 ** 18 */\n  0x0de0b6b3a7640000\n    /* \"msc_token/BeePresell.sol\":3183:3224  uint256 private usdtAmount = 1 * 10 ** 18 */\n  0x04\n  sstore\n    /* \"msc_token/BeePresell.sol\":3270:3285  4500 * 10 ** 18 */\n  0xf3f20b8dfa69d00000\n    /* \"msc_token/BeePresell.sol\":3231:3285  uint256 private preSellCoinPreAmount = 4500 * 10 ** 18 */\n  0x05\n  sstore\n    /* \"msc_token/BeePresell.sol\":3334:3351  409600 * 10 ** 18 */\n  0x56bc75e2d63100000000\n    /* \"msc_token/BeePresell.sol\":3292:3351  uint256 private inviteAirdropCoinAmount = 409600 * 10 ** 18 */\n  0x06\n  sstore\n    /* \"msc_token/BeePresell.sol\":3508:3534  uint32 private preMax = 10 */\n  0x07\n  dup1\n  sload\n  0x0a000000000000000000000000\n  not(shl(0x60, 0xffffffff))\n  swap1\n  swap2\n  and\n  or\n  swap1\n  sstore\n    /* \"msc_token/BeePresell.sol\":3916:4277  constructor(... */\n  callvalue\n  dup1\n  iszero\n  tag_1\n  jumpi\n  0x00\n  dup1\n  revert\ntag_1:\n  pop\n  mload(0x40)\n  sub(codesize, bytecodeSize)\n  dup1\n  bytecodeSize\n  dup4\n  codecopy\n  dup2\n  add\n  0x40\n  dup2\n  swap1\n  mstore\n  tag_2\n  swap2\n  tag_3\n  jump\t// in\ntag_2:\n    /* \"msc_token/BeePresell.sol\":1060:1092  _transferOwnership(_msgSender()) */\n  tag_7\n    /* \"msc_token/BeePresell.sol\":635:645  msg.sender */\n  caller\n    /* \"msc_token/BeePresell.sol\":1060:1078  _transferOwnership */\n  tag_10\n    /* \"msc_token/BeePresell.sol\":1060:1092  _transferOwnership(_msgSender()) */\n  jump\t// in\ntag_7:\n    /* \"msc_token/BeePresell.sol\":4020:4035  block.timestamp */\n  timestamp\n    /* \"msc_token/BeePresell.sol\":4008:4016  _startAt */\n  dup3\n  sub(shl(0x40, 0x01), 0x01)\n    /* \"msc_token/BeePresell.sol\":4008:4035  _startAt >= block.timestamp */\n  and\n  lt\n  iszero\n    /* \"msc_token/BeePresell.sol\":4000:4054  require(_startAt >= block.timestamp, \"start at < now\") */\n  tag_12\n  jumpi\n  mload(0x40)\n  shl(0xe5, 0x461bcd)\n  dup2\n  mstore\n    /* \"#utility.yul\":690:692   */\n  0x20\n    /* \"msc_token/BeePresell.sol\":4000:4054  require(_startAt >= block.timestamp, \"start at < now\") */\n  0x04\n  dup3\n  add\n    /* \"#utility.yul\":672:693   */\n  mstore\n    /* \"#utility.yul\":729:731   */\n  0x0e\n    /* \"#utility.yul\":709:727   */\n  0x24\n  dup3\n  add\n    /* \"#utility.yul\":702:732   */\n  mstore\n  shl(0x90, 0x7374617274206174203c206e6f77)\n    /* \"#utility.yul\":748:766   */\n  0x44\n  dup3\n  add\n    /* \"#utility.yul\":741:785   */\n  mstore\n    /* \"#utility.yul\":802:820   */\n  0x64\n  add\n    /* \"msc_token/BeePresell.sol\":4000:4054  require(_startAt >= block.timestamp, \"start at < now\") */\ntag_13:\n  mload(0x40)\n  dup1\n  swap2\n  sub\n  swap1\n  revert\ntag_12:\n    /* \"msc_token/BeePresell.sol\":4083:4091  _startAt */\n  dup2\n  sub(shl(0x40, 0x01), 0x01)\n    /* \"msc_token/BeePresell.sol\":4073:4091  _endAt >= _startAt */\n  and\n    /* \"msc_token/BeePresell.sol\":4073:4079  _endAt */\n  dup2\n  sub(shl(0x40, 0x01), 0x01)\n    /* \"msc_token/BeePresell.sol\":4073:4091  _endAt >= _startAt */\n  and\n  lt\n  iszero\n    /* \"msc_token/BeePresell.sol\":4065:4113  require(_endAt >= _startAt, \"end at < start at\") */\n  tag_15\n  jumpi\n  mload(0x40)\n  shl(0xe5, 0x461bcd)\n  dup2\n  mstore\n    /* \"#utility.yul\":1033:1035   */\n  0x20\n    /* \"msc_token/BeePresell.sol\":4065:4113  require(_endAt >= _startAt, \"end at < start at\") */\n  0x04\n  dup3\n  add\n    /* \"#utility.yul\":1015:1036   */\n  mstore\n    /* \"#utility.yul\":1072:1074   */\n  0x11\n    /* \"#utility.yul\":1052:1070   */\n  0x24\n  dup3\n  add\n    /* \"#utility.yul\":1045:1075   */\n  mstore\n  shl(0x7a, 0x195b9908185d080f081cdd185c9d08185d)\n    /* \"#utility.yul\":1091:1109   */\n  0x44\n  dup3\n  add\n    /* \"#utility.yul\":1084:1131   */\n  mstore\n    /* \"#utility.yul\":1148:1166   */\n  0x64\n  add\n    /* \"msc_token/BeePresell.sol\":4065:4113  require(_endAt >= _startAt, \"end at < start at\") */\n  tag_13\n    /* \"#utility.yul\":831:1172   */\n  jump\n    /* \"msc_token/BeePresell.sol\":4065:4113  require(_endAt >= _startAt, \"end at < start at\") */\ntag_15:\n    /* \"msc_token/BeePresell.sol\":4126:4133  startAt */\n  0x07\n    /* \"msc_token/BeePresell.sol\":4126:4144  startAt = _startAt */\n  dup1\n  sload\n  sub(shl(0x80, 0x01), 0x01)\n    /* \"msc_token/BeePresell.sol\":4155:4169  endAt = _endAt */\n  and\n  shl(0x80, 0x01)\n  sub(shl(0x40, 0x01), 0x01)\n    /* \"msc_token/BeePresell.sol\":4126:4144  startAt = _startAt */\n  swap5\n  dup6\n  and\n  mul\n  sub(shl(0xc0, 0x01), 0x01)\n    /* \"msc_token/BeePresell.sol\":4155:4169  endAt = _endAt */\n  and\n  or\n  shl(0xc0, 0x01)\n  swap3\n  swap1\n  swap4\n  and\n  swap2\n  swap1\n  swap2\n  mul\n  swap2\n  swap1\n  swap2\n  or\n  swap1\n  sstore\n  0x01\n    /* \"msc_token/BeePresell.sol\":4199:4214  usdtMintAddress */\n  sload\n  sub(shl(0xa0, 0x01), 0x01)\n  swap1\n  dup2\n  and\n    /* \"msc_token/BeePresell.sol\":4180:4215  usdtToken = IERC20(usdtMintAddress) */\n  0x80\n  mstore\n    /* \"msc_token/BeePresell.sol\":4245:4268  presellTokenMintAddress */\n  sload(0x02)\n  and\n    /* \"msc_token/BeePresell.sol\":4226:4269  sellToken = IERC20(presellTokenMintAddress) */\n  0xa0\n  mstore\n    /* \"msc_token/BeePresell.sol\":2649:8573  contract BeePresell is Ownable {... */\n  jump(tag_22)\n    /* \"msc_token/BeePresell.sol\":2451:2642  function _transferOwnership(address newOwner) internal virtual {... */\ntag_10:\n    /* \"msc_token/BeePresell.sol\":2525:2541  address oldOwner */\n  0x00\n    /* \"msc_token/BeePresell.sol\":2544:2550  _owner */\n  dup1\n  sload\n  sub(shl(0xa0, 0x01), 0x01)\n    /* \"msc_token/BeePresell.sol\":2561:2578  _owner = newOwner */\n  dup4\n  dup2\n  and\n  not(sub(shl(0xa0, 0x01), 0x01))\n  dup4\n  and\n  dup2\n  or\n  dup5\n  sstore\n    /* \"msc_token/BeePresell.sol\":2594:2634  OwnershipTransferred(oldOwner, newOwner) */\n  mload(0x40)\n    /* \"msc_token/BeePresell.sol\":2544:2550  _owner */\n  swap2\n  swap1\n  swap3\n  and\n  swap3\n  dup4\n  swap2\n    /* \"msc_token/BeePresell.sol\":2594:2634  OwnershipTransferred(oldOwner, newOwner) */\n  0x8be0079c531659141344cd1fd0a4f28419497f9722a3daafe3b4186f6b6457e0\n  swap2\n    /* \"msc_token/BeePresell.sol\":2525:2541  address oldOwner */\n  swap1\n    /* \"msc_token/BeePresell.sol\":2594:2634  OwnershipTransferred(oldOwner, newOwner) */\n  log3\n    /* \"msc_token/BeePresell.sol\":2514:2642  {... */\n  pop\n    /* \"msc_token/BeePresell.sol\":2451:2642  function _transferOwnership(address newOwner) internal virtual {... */\n  pop\n  jump\t// out\n    /* \"#utility.yul\":14:189   */\ntag_21:\n    /* \"#utility.yul\":92:105   */\n  dup1\n  mload\n  sub(shl(0x40, 0x01), 0x01)\n    /* \"#utility.yul\":134:164   */\n  dup2\n  and\n    /* \"#utility.yul\":124:165   */\n  dup2\n  eq\n    /* \"#utility.yul\":114:183   */\n  tag_24\n  jumpi\n    /* \"#utility.yul\":179:180   */\n  0x00\n    /* \"#utility.yul\":176:177   */\n  dup1\n    /* \"#utility.yul\":169:181   */\n  revert\n    /* \"#utility.yul\":114:183   */\ntag_24:\n    /* \"#utility.yul\":14:189   */\n  swap2\n  swap1\n  pop\n  jump\t// out\n    /* \"#utility.yul\":194:483   */\ntag_3:\n    /* \"#utility.yul\":271:277   */\n  0x00\n    /* \"#utility.yul\":279:285   */\n  dup1\n    /* \"#utility.yul\":332:334   */\n  0x40\n    /* \"#utility.yul\":320:329   */\n  dup4\n    /* \"#utility.yul\":311:318   */\n  dup6\n    /* \"#utility.yul\":307:330   */\n  sub\n    /* \"#utility.yul\":303:335   */\n  slt\n    /* \"#utility.yul\":300:352   */\n  iszero\n  tag_26\n  jumpi\n    /* \"#utility.yul\":348:349   */\n  0x00\n    /* \"#utility.yul\":345:346   */\n  dup1\n    /* \"#utility.yul\":338:350   */\n  revert\n    /* \"#utility.yul\":300:352   */\ntag_26:\n    /* \"#utility.yul\":371:410   */\n  tag_27\n    /* \"#utility.yul\":400:409   */\n  dup4\n    /* \"#utility.yul\":371:410   */\n  tag_21\n  jump\t// in\ntag_27:\n    /* \"#utility.yul\":361:410   */\n  swap2\n  pop\n    /* \"#utility.yul\":429:477   */\n  tag_28\n    /* \"#utility.yul\":473:475   */\n  0x20\n    /* \"#utility.yul\":462:471   */\n  dup5\n    /* \"#utility.yul\":458:476   */\n  add\n    /* \"#utility.yul\":429:477   */\n  tag_21\n  jump\t// in\ntag_28:\n    /* \"#utility.yul\":419:477   */\n  swap1\n  pop\n    /* \"#utility.yul\":194:483   */\n  swap3\n  pop\n  swap3\n  swap1\n  pop\n  jump\t// out\n    /* \"#utility.yul\":831:1172   */\ntag_22:\n    /* \"msc_token/BeePresell.sol\":2649:8573  contract BeePresell is Ownable {... */\n  mload(0x80)\n  mload(0xa0)\n  codecopy(0x00, dataOffset(sub_0), dataSize(sub_0))\n  0x00\n  assignImmutable(\"0xc849ac6906fb063f44f99b9ae7fa6aacafa477545e0e3f40a74dbbf30335f84e\")\n  0x00\n  assignImmutable(\"0x1cca6d2cec39a0e1e2f69c2ebe2dc3f8c1e03db413c5d1c3e31cdca41ddbc4f2\")\n  return(0x00, dataSize(sub_0))\nstop\n\nsub_0: assembly {\n        /* \"msc_token/BeePresell.sol\":2649:8573  contract BeePresell is Ownable {... */\n      mstore(0x40, 0x80)\n      callvalue\n      dup1\n      iszero\n      tag_1\n      jumpi\n      0x00\n      dup1\n      revert\n    tag_1:\n      pop\n      jumpi(tag_2, lt(calldatasize, 0x04))\n      shr(0xe0, calldataload(0x00))\n      dup1\n      0x90f5881a\n      gt\n      tag_35\n      jumpi\n      dup1\n      0xc828371e\n      gt\n      tag_36\n      jumpi\n      dup1\n      0xd35cde41\n      gt\n      tag_37\n      jumpi\n      dup1\n      0xd35cde41\n      eq\n      tag_31\n      jumpi\n      dup1\n      0xf01fc57c\n      eq\n      tag_32\n      jumpi\n      dup1\n      0xf2fde38b\n      eq\n      tag_33\n      jumpi\n      dup1\n      0xfae92612\n      eq\n      tag_34\n      jumpi\n      0x00\n      dup1\n      revert\n    tag_37:\n      dup1\n      0xc828371e\n      eq\n      tag_27\n      jumpi\n      dup1\n      0xc9ede793\n      eq\n      tag_28\n      jumpi\n      dup1\n      0xd0febe4c\n      eq\n      tag_29\n      jumpi\n      dup1\n      0xd139f56d\n      eq\n      tag_30\n      jumpi\n      0x00\n      dup1\n      revert\n    tag_36:\n      dup1\n      0xa98ad46c\n      gt\n      tag_38\n      jumpi\n      dup1\n      0xa98ad46c\n      eq\n      tag_23\n      jumpi\n      dup1\n      0xa98b9144\n      eq\n      tag_24\n      jumpi\n      dup1\n      0xb9f9231a\n      eq\n      tag_25\n      jumpi\n      dup1\n      0xc556feca\n      eq\n      tag_26\n      jumpi\n      0x00\n      dup1\n      revert\n    tag_38:\n      dup1\n      0x90f5881a\n      eq\n      tag_19\n      jumpi\n      dup1\n      0x95623641\n      eq\n      tag_20\n      jumpi\n      dup1\n      0x9769f0b0\n      eq\n      tag_21\n      jumpi\n      dup1\n      0x9e2a0418\n      eq\n      tag_22\n      jumpi\n      0x00\n      dup1\n      revert\n    tag_35:\n      dup1\n      0x6531e61c\n      gt\n      tag_39\n      jumpi\n      dup1\n      0x8568f4ce\n      gt\n      tag_40\n      jumpi\n      dup1\n      0x8568f4ce\n      eq\n      tag_15\n      jumpi\n      dup1\n      0x88af60c6\n      eq\n      tag_16\n      jumpi\n      dup1\n      0x8da5cb5b\n      eq\n      tag_17\n      jumpi\n      dup1\n      0x9018c818\n      eq\n      tag_18\n      jumpi\n      0x00\n      dup1\n      revert\n    tag_40:\n      dup1\n      0x6531e61c\n      eq\n      tag_11\n      jumpi\n      dup1\n      0x6de34ce0\n      eq\n      tag_12\n      jumpi\n      dup1\n      0x715018a6\n      eq\n      tag_13\n      jumpi\n      dup1\n      0x78eb6c6f\n      eq\n      tag_14\n      jumpi\n      0x00\n      dup1\n      revert\n    tag_39:\n      dup1\n      0x304d8dea\n      gt\n      tag_41\n      jumpi\n      dup1\n      0x304d8dea\n      eq\n      tag_7\n      jumpi\n      dup1\n      0x374eedef\n      eq\n      tag_8\n      jumpi\n      dup1\n      0x3d719da7\n      eq\n      tag_9\n      jumpi\n      dup1\n      0x439f5ac2\n      eq\n      tag_10\n      jumpi\n      0x00\n      dup1\n      revert\n    tag_41:\n      dup1\n      0x027734fa\n      eq\n      tag_3\n      jumpi\n      dup1\n      0x03d7424d\n      eq\n      tag_4\n      jumpi\n      dup1\n      0x1eb43f1a\n      eq\n      tag_5\n      jumpi\n      dup1\n      0x271f88b4\n      eq\n      tag_6\n      jumpi\n    tag_2:\n      0x00\n      dup1\n      revert\n        /* \"msc_token/BeePresell.sol\":2965:3048  address public presellTokenMintAddress = 0xB0bc99bdb71a4320a9aD357f68EBfBe6fFeBFc8A */\n    tag_3:\n      sload(0x02)\n      tag_42\n      swap1\n      sub(shl(0xa0, 0x01), 0x01)\n      and\n      dup2\n      jump\n    tag_42:\n      mload(0x40)\n      sub(shl(0xa0, 0x01), 0x01)\n        /* \"#utility.yul\":178:210   */\n      swap1\n      swap2\n      and\n        /* \"#utility.yul\":160:211   */\n      dup2\n      mstore\n        /* \"#utility.yul\":148:150   */\n      0x20\n        /* \"#utility.yul\":133:151   */\n      add\n        /* \"msc_token/BeePresell.sol\":2965:3048  address public presellTokenMintAddress = 0xB0bc99bdb71a4320a9aD357f68EBfBe6fFeBFc8A */\n    tag_44:\n      mload(0x40)\n      dup1\n      swap2\n      sub\n      swap1\n      return\n        /* \"msc_token/BeePresell.sol\":5222:5322  function getWithdrawCounter() public view returns (uint64) {... */\n    tag_4:\n        /* \"msc_token/BeePresell.sol\":5299:5314  withdrawCounter */\n      sload(0x07)\n      0x0100000000\n      swap1\n      div\n      0xffffffff\n      and\n        /* \"msc_token/BeePresell.sol\":5222:5322  function getWithdrawCounter() public view returns (uint64) {... */\n    tag_46:\n      mload(0x40)\n        /* \"#utility.yul\":396:414   */\n      0xffffffffffffffff\n        /* \"#utility.yul\":384:415   */\n      swap1\n      swap2\n      and\n        /* \"#utility.yul\":366:416   */\n      dup2\n      mstore\n        /* \"#utility.yul\":354:356   */\n      0x20\n        /* \"#utility.yul\":339:357   */\n      add\n        /* \"msc_token/BeePresell.sol\":5222:5322  function getWithdrawCounter() public view returns (uint64) {... */\n      tag_44\n        /* \"#utility.yul\":222:422   */\n      jump\n        /* \"msc_token/BeePresell.sol\":3607:3653  mapping(address => UserInfo) public inviteInfo */\n    tag_5:\n      tag_50\n      tag_51\n      calldatasize\n      0x04\n      tag_52\n      jump\t// in\n    tag_51:\n      mstore(0x20, 0x08)\n      0x00\n      swap1\n      dup2\n      mstore\n      0x40\n      swap1\n      keccak256\n      dup1\n      sload\n      0x02\n      swap1\n      swap2\n      add\n      sload\n      sub(shl(0xa0, 0x01), 0x01)\n      swap1\n      swap2\n      and\n      swap1\n      dup3\n      jump\n    tag_50:\n      0x40\n      dup1\n      mload\n      sub(shl(0xa0, 0x01), 0x01)\n        /* \"#utility.yul\":910:942   */\n      swap1\n      swap4\n      and\n        /* \"#utility.yul\":892:943   */\n      dup4\n      mstore\n        /* \"#utility.yul\":974:976   */\n      0x20\n        /* \"#utility.yul\":959:977   */\n      dup4\n      add\n        /* \"#utility.yul\":952:986   */\n      swap2\n      swap1\n      swap2\n      mstore\n        /* \"#utility.yul\":865:883   */\n      add\n        /* \"msc_token/BeePresell.sol\":3607:3653  mapping(address => UserInfo) public inviteInfo */\n      tag_44\n        /* \"#utility.yul\":718:992   */\n      jump\n        /* \"msc_token/BeePresell.sol\":8474:8570  function setAmount(uint256 newAmount) public onlyOwner {... */\n    tag_6:\n      tag_56\n      tag_57\n      calldatasize\n      0x04\n      tag_58\n      jump\t// in\n    tag_57:\n      tag_59\n      jump\t// in\n    tag_56:\n      stop\n        /* \"msc_token/BeePresell.sol\":7759:8159  function withdrawInviteAirdropTokens() public {... */\n    tag_7:\n      tag_56\n      tag_61\n      jump\t// in\n        /* \"msc_token/BeePresell.sol\":5013:5115  function getUserHasBuy(address user) public view returns (bool) {... */\n    tag_8:\n      tag_62\n      tag_63\n      calldatasize\n      0x04\n      tag_52\n      jump\t// in\n    tag_63:\n      sub(shl(0xa0, 0x01), 0x01)\n        /* \"msc_token/BeePresell.sol\":5095:5107  hasBuy[user] */\n      and\n        /* \"msc_token/BeePresell.sol\":5071:5075  bool */\n      0x00\n        /* \"msc_token/BeePresell.sol\":5095:5107  hasBuy[user] */\n      swap1\n      dup2\n      mstore\n        /* \"msc_token/BeePresell.sol\":5095:5101  hasBuy */\n      0x0b\n        /* \"msc_token/BeePresell.sol\":5095:5107  hasBuy[user] */\n      0x20\n      mstore\n      0x40\n      swap1\n      keccak256\n      sload\n      0xff\n      and\n      swap1\n        /* \"msc_token/BeePresell.sol\":5013:5115  function getUserHasBuy(address user) public view returns (bool) {... */\n      jump\n    tag_62:\n      mload(0x40)\n        /* \"#utility.yul\":1347:1361   */\n      swap1\n      iszero\n        /* \"#utility.yul\":1340:1362   */\n      iszero\n        /* \"#utility.yul\":1322:1363   */\n      dup2\n      mstore\n        /* \"#utility.yul\":1310:1312   */\n      0x20\n        /* \"#utility.yul\":1295:1313   */\n      add\n        /* \"msc_token/BeePresell.sol\":5013:5115  function getUserHasBuy(address user) public view returns (bool) {... */\n      tag_44\n        /* \"#utility.yul\":1182:1369   */\n      jump\n        /* \"msc_token/BeePresell.sol\":3865:3903  mapping(address => bool) public hasBuy */\n    tag_9:\n      tag_62\n      tag_68\n      calldatasize\n      0x04\n      tag_52\n      jump\t// in\n    tag_68:\n      mstore(0x20, 0x0b)\n      0x00\n      swap1\n      dup2\n      mstore\n      0x40\n      swap1\n      keccak256\n      sload\n      0xff\n      and\n      dup2\n      jump\n        /* \"msc_token/BeePresell.sol\":4923:5005  function getEndTime() public view returns (uint64) {... */\n    tag_10:\n        /* \"msc_token/BeePresell.sol\":4992:4997  endAt */\n      sload(0x07)\n      shl(0xc0, 0x01)\n      swap1\n      div\n      0xffffffffffffffff\n      and\n        /* \"msc_token/BeePresell.sol\":4923:5005  function getEndTime() public view returns (uint64) {... */\n      jump(tag_46)\n        /* \"msc_token/BeePresell.sol\":8167:8344  function exigencyWithdraw(uint256 amount) public onlyOwner {... */\n    tag_11:\n      tag_56\n      tag_75\n      calldatasize\n      0x04\n      tag_58\n      jump\t// in\n    tag_75:\n      tag_76\n      jump\t// in\n        /* \"msc_token/BeePresell.sol\":3424:3451  uint32 public lowersCounter */\n    tag_12:\n      sload(0x07)\n      tag_77\n      swap1\n      shl(0x40, 0x01)\n      swap1\n      div\n      0xffffffff\n      and\n      dup2\n      jump\n    tag_77:\n      mload(0x40)\n        /* \"#utility.yul\":1548:1558   */\n      0xffffffff\n        /* \"#utility.yul\":1536:1559   */\n      swap1\n      swap2\n      and\n        /* \"#utility.yul\":1518:1560   */\n      dup2\n      mstore\n        /* \"#utility.yul\":1506:1508   */\n      0x20\n        /* \"#utility.yul\":1491:1509   */\n      add\n        /* \"msc_token/BeePresell.sol\":3424:3451  uint32 public lowersCounter */\n      tag_44\n        /* \"#utility.yul\":1374:1566   */\n      jump\n        /* \"msc_token/BeePresell.sol\":1832:1935  function renounceOwnership() public virtual onlyOwner {... */\n    tag_13:\n      tag_56\n      tag_82\n      jump\t// in\n        /* \"msc_token/BeePresell.sol\":4384:4492  function getPreSellCoinAmount() public view returns (uint256) {... */\n    tag_14:\n        /* \"msc_token/BeePresell.sol\":4464:4484  preSellCoinPreAmount */\n      sload(0x05)\n        /* \"msc_token/BeePresell.sol\":4384:4492  function getPreSellCoinAmount() public view returns (uint256) {... */\n    tag_83:\n      mload(0x40)\n        /* \"#utility.yul\":1717:1742   */\n      swap1\n      dup2\n      mstore\n        /* \"#utility.yul\":1705:1707   */\n      0x20\n        /* \"#utility.yul\":1690:1708   */\n      add\n        /* \"msc_token/BeePresell.sol\":4384:4492  function getPreSellCoinAmount() public view returns (uint256) {... */\n      tag_44\n        /* \"#utility.yul\":1571:1748   */\n      jump\n        /* \"msc_token/BeePresell.sol\":4500:4631  function getUserPreSellCoinAmount(address user) public view returns (uint256) {... */\n    tag_15:\n      tag_83\n      tag_88\n      calldatasize\n      0x04\n      tag_52\n      jump\t// in\n    tag_88:\n      sub(shl(0xa0, 0x01), 0x01)\n        /* \"msc_token/BeePresell.sol\":4596:4623  userPresellBalanceMap[user] */\n      and\n        /* \"msc_token/BeePresell.sol\":4569:4576  uint256 */\n      0x00\n        /* \"msc_token/BeePresell.sol\":4596:4623  userPresellBalanceMap[user] */\n      swap1\n      dup2\n      mstore\n        /* \"msc_token/BeePresell.sol\":4596:4617  userPresellBalanceMap */\n      0x09\n        /* \"msc_token/BeePresell.sol\":4596:4623  userPresellBalanceMap[user] */\n      0x20\n      mstore\n      0x40\n      swap1\n      keccak256\n      sload\n      swap1\n        /* \"msc_token/BeePresell.sol\":4500:4631  function getUserPreSellCoinAmount(address user) public view returns (uint256) {... */\n      jump\n        /* \"msc_token/BeePresell.sol\":2883:2958  address public usdtMintAddress = 0xEdA5dA0050e21e9E34fadb1075986Af1370c7BDb */\n    tag_16:\n      sload(0x01)\n      tag_42\n      swap1\n      sub(shl(0xa0, 0x01), 0x01)\n      and\n      dup2\n      jump\n        /* \"msc_token/BeePresell.sol\":1181:1268  function owner() public view virtual returns (address) {... */\n    tag_17:\n        /* \"msc_token/BeePresell.sol\":1227:1234  address */\n      0x00\n        /* \"msc_token/BeePresell.sol\":1254:1260  _owner */\n      sload\n      sub(shl(0xa0, 0x01), 0x01)\n      and\n        /* \"msc_token/BeePresell.sol\":1181:1268  function owner() public view virtual returns (address) {... */\n      jump(tag_42)\n        /* \"msc_token/BeePresell.sol\":5721:6680  function acceptInvitation(address _inviter) public returns (bool) {... */\n    tag_18:\n      tag_62\n      tag_98\n      calldatasize\n      0x04\n      tag_52\n      jump\t// in\n    tag_98:\n      tag_99\n      jump\t// in\n        /* \"msc_token/BeePresell.sol\":3742:3798  mapping(address => uint256) public userPresellBalanceMap */\n    tag_19:\n      tag_83\n      tag_102\n      calldatasize\n      0x04\n      tag_52\n      jump\t// in\n    tag_102:\n      mstore(0x20, 0x09)\n      0x00\n      swap1\n      dup2\n      mstore\n      0x40\n      swap1\n      keccak256\n      sload\n      dup2\n      jump\n        /* \"msc_token/BeePresell.sol\":3055:3128  address public marketAddress = 0xe3e90697218F31B8d0867b8A9c52947D3c888339 */\n    tag_20:\n      sload(0x03)\n      tag_42\n      swap1\n      sub(shl(0xa0, 0x01), 0x01)\n      and\n      dup2\n      jump\n        /* \"msc_token/BeePresell.sol\":3702:3735  IERC20 public immutable sellToken */\n    tag_21:\n      tag_42\n      immutable(\"0xc849ac6906fb063f44f99b9ae7fa6aacafa477545e0e3f40a74dbbf30335f84e\")\n      dup2\n      jump\n        /* \"msc_token/BeePresell.sol\":3805:3858  mapping(address => bool) public userInviteBalancelMap */\n    tag_22:\n      tag_62\n      tag_113\n      calldatasize\n      0x04\n      tag_52\n      jump\t// in\n    tag_113:\n      mstore(0x20, 0x0a)\n      0x00\n      swap1\n      dup2\n      mstore\n      0x40\n      swap1\n      keccak256\n      sload\n      0xff\n      and\n      dup2\n      jump\n        /* \"msc_token/BeePresell.sol\":3662:3695  IERC20 public immutable usdtToken */\n    tag_23:\n      tag_42\n      immutable(\"0x1cca6d2cec39a0e1e2f69c2ebe2dc3f8c1e03db413c5d1c3e31cdca41ddbc4f2\")\n      dup2\n      jump\n        /* \"msc_token/BeePresell.sol\":5466:5591  function getUserLowers(address user) public view returns (address[] memory) {... */\n    tag_24:\n      tag_119\n      tag_120\n      calldatasize\n      0x04\n      tag_52\n      jump\t// in\n    tag_120:\n      tag_121\n      jump\t// in\n    tag_119:\n      mload(0x40)\n      tag_44\n      swap2\n      swap1\n      tag_123\n      jump\t// in\n        /* \"msc_token/BeePresell.sol\":4639:4821  function getUserInviteAirdropCoinAmount(address user) public view returns (uint256) {... */\n    tag_25:\n      tag_83\n      tag_125\n      calldatasize\n      0x04\n      tag_52\n      jump\t// in\n    tag_125:\n      tag_126\n      jump\t// in\n        /* \"msc_token/BeePresell.sol\":5330:5458  function getUserLowersCount(address user) public view returns (uint256) {... */\n    tag_26:\n      tag_83\n      tag_129\n      calldatasize\n      0x04\n      tag_52\n      jump\t// in\n    tag_129:\n      sub(shl(0xa0, 0x01), 0x01)\n        /* \"msc_token/BeePresell.sol\":5420:5436  inviteInfo[user] */\n      and\n        /* \"msc_token/BeePresell.sol\":5393:5400  uint256 */\n      0x00\n        /* \"msc_token/BeePresell.sol\":5420:5436  inviteInfo[user] */\n      swap1\n      dup2\n      mstore\n        /* \"msc_token/BeePresell.sol\":5420:5430  inviteInfo */\n      0x08\n        /* \"msc_token/BeePresell.sol\":5420:5436  inviteInfo[user] */\n      0x20\n      mstore\n      0x40\n      swap1\n      keccak256\n        /* \"msc_token/BeePresell.sol\":5420:5443  inviteInfo[user].lowers */\n      0x01\n      add\n        /* \"msc_token/BeePresell.sol\":5420:5450  inviteInfo[user].lowers.length */\n      sload\n      swap1\n        /* \"msc_token/BeePresell.sol\":5330:5458  function getUserLowersCount(address user) public view returns (uint256) {... */\n      jump\n        /* \"msc_token/BeePresell.sol\":4829:4915  function getStartTime() public view returns (uint64) {... */\n    tag_27:\n        /* \"msc_token/BeePresell.sol\":4900:4907  startAt */\n      sload(0x07)\n      shl(0x80, 0x01)\n      swap1\n      div\n      0xffffffffffffffff\n      and\n        /* \"msc_token/BeePresell.sol\":4829:4915  function getStartTime() public view returns (uint64) {... */\n      jump(tag_46)\n        /* \"msc_token/BeePresell.sol\":7344:7751  function withdrawPresellTokens() public {... */\n    tag_28:\n      tag_56\n      tag_136\n      jump\t// in\n        /* \"msc_token/BeePresell.sol\":6688:7336  function buyTokens() public {... */\n    tag_29:\n      tag_56\n      tag_138\n      jump\t// in\n        /* \"msc_token/BeePresell.sol\":5599:5713  function getUserUpper(address user) public view returns (address) {... */\n    tag_30:\n      tag_42\n      tag_140\n      calldatasize\n      0x04\n      tag_52\n      jump\t// in\n    tag_140:\n      sub(shl(0xa0, 0x01), 0x01)\n        /* \"msc_token/BeePresell.sol\":5683:5699  inviteInfo[user] */\n      swap1\n      dup2\n      and\n        /* \"msc_token/BeePresell.sol\":5656:5663  address */\n      0x00\n        /* \"msc_token/BeePresell.sol\":5683:5699  inviteInfo[user] */\n      swap1\n      dup2\n      mstore\n        /* \"msc_token/BeePresell.sol\":5683:5693  inviteInfo */\n      0x08\n        /* \"msc_token/BeePresell.sol\":5683:5699  inviteInfo[user] */\n      0x20\n      mstore\n      0x40\n      swap1\n      keccak256\n        /* \"msc_token/BeePresell.sol\":5683:5705  inviteInfo[user].upper */\n      sload\n      and\n      swap1\n        /* \"msc_token/BeePresell.sol\":5599:5713  function getUserUpper(address user) public view returns (address) {... */\n      jump\n        /* \"msc_token/BeePresell.sol\":4285:4376  function getUsdtAmount() public view returns (uint256) {... */\n    tag_31:\n        /* \"msc_token/BeePresell.sol\":4358:4368  usdtAmount */\n      sload(0x04)\n        /* \"msc_token/BeePresell.sol\":4285:4376  function getUsdtAmount() public view returns (uint256) {... */\n      jump(tag_83)\n        /* \"msc_token/BeePresell.sol\":5123:5214  function getPreSellCounter() public view returns (uint64) {... */\n    tag_32:\n        /* \"msc_token/BeePresell.sol\":5199:5206  counter */\n      and(0xffffffff, sload(0x07))\n        /* \"msc_token/BeePresell.sol\":5123:5214  function getPreSellCounter() public view returns (uint64) {... */\n      jump(tag_46)\n        /* \"msc_token/BeePresell.sol\":2090:2291  function transferOwnership(address newOwner) public virtual onlyOwner {... */\n    tag_33:\n      tag_56\n      tag_150\n      calldatasize\n      0x04\n      tag_52\n      jump\t// in\n    tag_150:\n      tag_151\n      jump\t// in\n        /* \"msc_token/BeePresell.sol\":8352:8460  function setMarketAddress(address newAddress) public onlyOwner {... */\n    tag_34:\n      tag_56\n      tag_153\n      calldatasize\n      0x04\n      tag_52\n      jump\t// in\n    tag_153:\n      tag_154\n      jump\t// in\n        /* \"msc_token/BeePresell.sol\":8474:8570  function setAmount(uint256 newAmount) public onlyOwner {... */\n    tag_59:\n        /* \"msc_token/BeePresell.sol\":1227:1234  address */\n      0x00\n        /* \"msc_token/BeePresell.sol\":1254:1260  _owner */\n      sload\n      sub(shl(0xa0, 0x01), 0x01)\n      and\n        /* \"msc_token/BeePresell.sol\":635:645  msg.sender */\n      caller\n        /* \"msc_token/BeePresell.sol\":1401:1424  owner() == _msgSender() */\n      eq\n        /* \"msc_token/BeePresell.sol\":1393:1461  require(owner() == _msgSender(), \"Ownable: caller is not the owner\") */\n      tag_160\n      jumpi\n      mload(0x40)\n      shl(0xe5, 0x461bcd)\n      dup2\n      mstore\n      0x04\n      add\n      tag_161\n      swap1\n      tag_162\n      jump\t// in\n    tag_161:\n      mload(0x40)\n      dup1\n      swap2\n      sub\n      swap1\n      revert\n    tag_160:\n        /* \"msc_token/BeePresell.sol\":8540:8550  usdtAmount */\n      0x04\n        /* \"msc_token/BeePresell.sol\":8540:8562  usdtAmount = newAmount */\n      sstore\n        /* \"msc_token/BeePresell.sol\":8474:8570  function setAmount(uint256 newAmount) public onlyOwner {... */\n      jump\t// out\n        /* \"msc_token/BeePresell.sol\":7759:8159  function withdrawInviteAirdropTokens() public {... */\n    tag_61:\n        /* \"msc_token/BeePresell.sol\":7824:7829  endAt */\n      sload(0x07)\n        /* \"msc_token/BeePresell.sol\":7832:7847  block.timestamp */\n      timestamp\n      shl(0xc0, 0x01)\n        /* \"msc_token/BeePresell.sol\":7824:7829  endAt */\n      swap1\n      swap2\n      div\n      0xffffffffffffffff\n      and\n        /* \"msc_token/BeePresell.sol\":7824:7847  endAt < block.timestamp */\n      lt\n        /* \"msc_token/BeePresell.sol\":7816:7867  require(endAt < block.timestamp, \"presell not end\") */\n      tag_165\n      jumpi\n      mload(0x40)\n      shl(0xe5, 0x461bcd)\n      dup2\n      mstore\n        /* \"#utility.yul\":3200:3202   */\n      0x20\n        /* \"msc_token/BeePresell.sol\":7816:7867  require(endAt < block.timestamp, \"presell not end\") */\n      0x04\n      dup3\n      add\n        /* \"#utility.yul\":3182:3203   */\n      mstore\n        /* \"#utility.yul\":3239:3241   */\n      0x0f\n        /* \"#utility.yul\":3219:3237   */\n      0x24\n      dup3\n      add\n        /* \"#utility.yul\":3212:3242   */\n      mstore\n      shl(0x8a, 0x1c1c995cd95b1b081b9bdd08195b99)\n        /* \"#utility.yul\":3258:3276   */\n      0x44\n      dup3\n      add\n        /* \"#utility.yul\":3251:3296   */\n      mstore\n        /* \"#utility.yul\":3313:3331   */\n      0x64\n      add\n        /* \"msc_token/BeePresell.sol\":7816:7867  require(endAt < block.timestamp, \"presell not end\") */\n      tag_161\n        /* \"#utility.yul\":2998:3337   */\n      jump\n        /* \"msc_token/BeePresell.sol\":7816:7867  require(endAt < block.timestamp, \"presell not end\") */\n    tag_165:\n        /* \"msc_token/BeePresell.sol\":7910:7920  msg.sender */\n      caller\n        /* \"msc_token/BeePresell.sol\":7888:7921  userInviteBalancelMap[msg.sender] */\n      0x00\n      swap1\n      dup2\n      mstore\n        /* \"msc_token/BeePresell.sol\":7888:7909  userInviteBalancelMap */\n      0x0a\n        /* \"msc_token/BeePresell.sol\":7888:7921  userInviteBalancelMap[msg.sender] */\n      0x20\n      mstore\n      0x40\n      swap1\n      keccak256\n      sload\n      0xff\n      and\n        /* \"msc_token/BeePresell.sol\":7888:7929  userInviteBalancelMap[msg.sender] == true */\n      iszero\n      iszero\n        /* \"msc_token/BeePresell.sol\":7888:7921  userInviteBalancelMap[msg.sender] */\n      0x01\n        /* \"msc_token/BeePresell.sol\":7888:7929  userInviteBalancelMap[msg.sender] == true */\n      eq\n        /* \"msc_token/BeePresell.sol\":7880:7949  require(userInviteBalancelMap[msg.sender] == true, 'user not invite') */\n      tag_168\n      jumpi\n      mload(0x40)\n      shl(0xe5, 0x461bcd)\n      dup2\n      mstore\n        /* \"#utility.yul\":3544:3546   */\n      0x20\n        /* \"msc_token/BeePresell.sol\":7880:7949  require(userInviteBalancelMap[msg.sender] == true, 'user not invite') */\n      0x04\n      dup3\n      add\n        /* \"#utility.yul\":3526:3547   */\n      mstore\n        /* \"#utility.yul\":3583:3585   */\n      0x0f\n        /* \"#utility.yul\":3563:3581   */\n      0x24\n      dup3\n      add\n        /* \"#utility.yul\":3556:3586   */\n      mstore\n      shl(0x88, 0x75736572206e6f7420696e76697465)\n        /* \"#utility.yul\":3602:3620   */\n      0x44\n      dup3\n      add\n        /* \"#utility.yul\":3595:3640   */\n      mstore\n        /* \"#utility.yul\":3657:3675   */\n      0x64\n      add\n        /* \"msc_token/BeePresell.sol\":7880:7949  require(userInviteBalancelMap[msg.sender] == true, 'user not invite') */\n      tag_161\n        /* \"#utility.yul\":3342:3681   */\n      jump\n        /* \"msc_token/BeePresell.sol\":7880:7949  require(userInviteBalancelMap[msg.sender] == true, 'user not invite') */\n    tag_168:\n        /* \"msc_token/BeePresell.sol\":7962:7971  bool sent */\n      0x00\n        /* \"msc_token/BeePresell.sol\":7974:7983  sellToken */\n      immutable(\"0xc849ac6906fb063f44f99b9ae7fa6aacafa477545e0e3f40a74dbbf30335f84e\")\n      sub(shl(0xa0, 0x01), 0x01)\n        /* \"msc_token/BeePresell.sol\":7974:7992  sellToken.transfer */\n      and\n      0xa9059cbb\n        /* \"msc_token/BeePresell.sol\":7993:8003  msg.sender */\n      caller\n        /* \"msc_token/BeePresell.sol\":8005:8047  getUserInviteAirdropCoinAmount(msg.sender) */\n      tag_171\n        /* \"msc_token/BeePresell.sol\":8036:8046  msg.sender */\n      caller\n        /* \"msc_token/BeePresell.sol\":8005:8035  getUserInviteAirdropCoinAmount */\n      tag_126\n        /* \"msc_token/BeePresell.sol\":8005:8047  getUserInviteAirdropCoinAmount(msg.sender) */\n      jump\t// in\n    tag_171:\n        /* \"msc_token/BeePresell.sol\":7974:8048  sellToken.transfer(msg.sender, getUserInviteAirdropCoinAmount(msg.sender)) */\n      mload(0x40)\n      not(sub(shl(0xe0, 0x01), 0x01))\n      0xe0\n      dup6\n      swap1\n      shl\n      and\n      dup2\n      mstore\n      sub(shl(0xa0, 0x01), 0x01)\n        /* \"#utility.yul\":910:942   */\n      swap1\n      swap3\n      and\n        /* \"msc_token/BeePresell.sol\":7974:8048  sellToken.transfer(msg.sender, getUserInviteAirdropCoinAmount(msg.sender)) */\n      0x04\n      dup4\n      add\n        /* \"#utility.yul\":892:943   */\n      mstore\n        /* \"#utility.yul\":959:977   */\n      0x24\n      dup3\n      add\n        /* \"#utility.yul\":952:986   */\n      mstore\n        /* \"#utility.yul\":865:883   */\n      0x44\n      add\n        /* \"msc_token/BeePresell.sol\":7974:8048  sellToken.transfer(msg.sender, getUserInviteAirdropCoinAmount(msg.sender)) */\n      0x20\n      mload(0x40)\n      dup1\n      dup4\n      sub\n      dup2\n      0x00\n      dup8\n      gas\n      call\n      iszero\n      dup1\n      iszero\n      tag_174\n      jumpi\n      returndatasize\n      0x00\n      dup1\n      returndatacopy\n      revert(0x00, returndatasize)\n    tag_174:\n      pop\n      pop\n      pop\n      pop\n      mload(0x40)\n      returndatasize\n      not(0x1f)\n      0x1f\n      dup3\n      add\n      and\n      dup3\n      add\n      dup1\n      0x40\n      mstore\n      pop\n      dup2\n      add\n      swap1\n      tag_175\n      swap2\n      swap1\n      tag_176\n      jump\t// in\n    tag_175:\n        /* \"msc_token/BeePresell.sol\":7962:8048  bool sent = sellToken.transfer(msg.sender, getUserInviteAirdropCoinAmount(msg.sender)) */\n      swap1\n      pop\n        /* \"msc_token/BeePresell.sol\":8067:8071  sent */\n      dup1\n        /* \"msc_token/BeePresell.sol\":8059:8097  require(sent, \"Token transfer failed\") */\n      tag_177\n      jumpi\n      mload(0x40)\n      shl(0xe5, 0x461bcd)\n      dup2\n      mstore\n      0x04\n      add\n      tag_161\n      swap1\n      tag_179\n      jump\t// in\n    tag_177:\n      pop\n        /* \"msc_token/BeePresell.sol\":8132:8142  msg.sender */\n      caller\n        /* \"msc_token/BeePresell.sol\":8146:8151  false */\n      0x00\n        /* \"msc_token/BeePresell.sol\":8110:8143  userInviteBalancelMap[msg.sender] */\n      swap1\n      dup2\n      mstore\n        /* \"msc_token/BeePresell.sol\":8110:8131  userInviteBalancelMap */\n      0x0a\n        /* \"msc_token/BeePresell.sol\":8110:8143  userInviteBalancelMap[msg.sender] */\n      0x20\n      mstore\n      0x40\n      swap1\n      keccak256\n        /* \"msc_token/BeePresell.sol\":8110:8151  userInviteBalancelMap[msg.sender] = false */\n      dup1\n      sload\n      not(0xff)\n      and\n      swap1\n      sstore\n        /* \"msc_token/BeePresell.sol\":7759:8159  function withdrawInviteAirdropTokens() public {... */\n      jump\t// out\n        /* \"msc_token/BeePresell.sol\":8167:8344  function exigencyWithdraw(uint256 amount) public onlyOwner {... */\n    tag_76:\n        /* \"msc_token/BeePresell.sol\":1227:1234  address */\n      0x00\n        /* \"msc_token/BeePresell.sol\":1254:1260  _owner */\n      sload\n      sub(shl(0xa0, 0x01), 0x01)\n      and\n        /* \"msc_token/BeePresell.sol\":635:645  msg.sender */\n      caller\n        /* \"msc_token/BeePresell.sol\":1401:1424  owner() == _msgSender() */\n      eq\n        /* \"msc_token/BeePresell.sol\":1393:1461  require(owner() == _msgSender(), \"Ownable: caller is not the owner\") */\n      tag_185\n      jumpi\n      mload(0x40)\n      shl(0xe5, 0x461bcd)\n      dup2\n      mstore\n      0x04\n      add\n      tag_161\n      swap1\n      tag_162\n      jump\t// in\n    tag_185:\n        /* \"msc_token/BeePresell.sol\":8249:8287  sellToken.transfer(msg.sender, amount) */\n      mload(0x40)\n      shl(0xe0, 0xa9059cbb)\n      dup2\n      mstore\n        /* \"msc_token/BeePresell.sol\":8268:8278  msg.sender */\n      caller\n        /* \"msc_token/BeePresell.sol\":8249:8287  sellToken.transfer(msg.sender, amount) */\n      0x04\n      dup3\n      add\n        /* \"#utility.yul\":892:943   */\n      mstore\n        /* \"#utility.yul\":959:977   */\n      0x24\n      dup2\n      add\n        /* \"#utility.yul\":952:986   */\n      dup3\n      swap1\n      mstore\n        /* \"msc_token/BeePresell.sol\":8237:8246  bool sent */\n      0x00\n      swap1\n        /* \"msc_token/BeePresell.sol\":8249:8258  sellToken */\n      immutable(\"0xc849ac6906fb063f44f99b9ae7fa6aacafa477545e0e3f40a74dbbf30335f84e\")\n      sub(shl(0xa0, 0x01), 0x01)\n        /* \"msc_token/BeePresell.sol\":8249:8267  sellToken.transfer */\n      and\n      swap1\n      0xa9059cbb\n      swap1\n        /* \"#utility.yul\":865:883   */\n      0x44\n      add\n        /* \"msc_token/BeePresell.sol\":8249:8287  sellToken.transfer(msg.sender, amount) */\n      0x20\n      mload(0x40)\n      dup1\n      dup4\n      sub\n      dup2\n      0x00\n      dup8\n      gas\n      call\n      iszero\n      dup1\n      iszero\n      tag_190\n      jumpi\n      returndatasize\n      0x00\n      dup1\n      returndatacopy\n      revert(0x00, returndatasize)\n    tag_190:\n      pop\n      pop\n      pop\n      pop\n      mload(0x40)\n      returndatasize\n      not(0x1f)\n      0x1f\n      dup3\n      add\n      and\n      dup3\n      add\n      dup1\n      0x40\n      mstore\n      pop\n      dup2\n      add\n      swap1\n      tag_191\n      swap2\n      swap1\n      tag_176\n      jump\t// in\n    tag_191:\n        /* \"msc_token/BeePresell.sol\":8237:8287  bool sent = sellToken.transfer(msg.sender, amount) */\n      swap1\n      pop\n        /* \"msc_token/BeePresell.sol\":8306:8310  sent */\n      dup1\n        /* \"msc_token/BeePresell.sol\":8298:8336  require(sent, \"Token transfer failed\") */\n      tag_192\n      jumpi\n      mload(0x40)\n      shl(0xe5, 0x461bcd)\n      dup2\n      mstore\n      0x04\n      add\n      tag_161\n      swap1\n      tag_179\n      jump\t// in\n    tag_192:\n        /* \"msc_token/BeePresell.sol\":8226:8344  {... */\n      pop\n        /* \"msc_token/BeePresell.sol\":8167:8344  function exigencyWithdraw(uint256 amount) public onlyOwner {... */\n      pop\n      jump\t// out\n        /* \"msc_token/BeePresell.sol\":1832:1935  function renounceOwnership() public virtual onlyOwner {... */\n    tag_82:\n        /* \"msc_token/BeePresell.sol\":1227:1234  address */\n      0x00\n        /* \"msc_token/BeePresell.sol\":1254:1260  _owner */\n      sload\n      sub(shl(0xa0, 0x01), 0x01)\n      and\n        /* \"msc_token/BeePresell.sol\":635:645  msg.sender */\n      caller\n        /* \"msc_token/BeePresell.sol\":1401:1424  owner() == _msgSender() */\n      eq\n        /* \"msc_token/BeePresell.sol\":1393:1461  require(owner() == _msgSender(), \"Ownable: caller is not the owner\") */\n      tag_197\n      jumpi\n      mload(0x40)\n      shl(0xe5, 0x461bcd)\n      dup2\n      mstore\n      0x04\n      add\n      tag_161\n      swap1\n      tag_162\n      jump\t// in\n    tag_197:\n        /* \"msc_token/BeePresell.sol\":1897:1927  _transferOwnership(address(0)) */\n      tag_200\n        /* \"msc_token/BeePresell.sol\":1924:1925  0 */\n      0x00\n        /* \"msc_token/BeePresell.sol\":1897:1915  _transferOwnership */\n      tag_201\n        /* \"msc_token/BeePresell.sol\":1897:1927  _transferOwnership(address(0)) */\n      jump\t// in\n    tag_200:\n        /* \"msc_token/BeePresell.sol\":1832:1935  function renounceOwnership() public virtual onlyOwner {... */\n      jump\t// out\n        /* \"msc_token/BeePresell.sol\":5721:6680  function acceptInvitation(address _inviter) public returns (bool) {... */\n    tag_99:\n        /* \"msc_token/BeePresell.sol\":5806:5813  startAt */\n      sload(0x07)\n        /* \"msc_token/BeePresell.sol\":5781:5785  bool */\n      0x00\n      swap1\n        /* \"msc_token/BeePresell.sol\":5816:5831  block.timestamp */\n      timestamp\n      shl(0x80, 0x01)\n        /* \"msc_token/BeePresell.sol\":5806:5813  startAt */\n      swap1\n      swap2\n      div\n      0xffffffffffffffff\n      and\n        /* \"msc_token/BeePresell.sol\":5806:5831  startAt < block.timestamp */\n      lt\n        /* \"msc_token/BeePresell.sol\":5798:5845  require(startAt < block.timestamp, \"not start\") */\n      tag_206\n      jumpi\n      mload(0x40)\n      shl(0xe5, 0x461bcd)\n      dup2\n      mstore\n        /* \"#utility.yul\":4520:4522   */\n      0x20\n        /* \"msc_token/BeePresell.sol\":5798:5845  require(startAt < block.timestamp, \"not start\") */\n      0x04\n      dup3\n      add\n        /* \"#utility.yul\":4502:4523   */\n      mstore\n        /* \"#utility.yul\":4559:4560   */\n      0x09\n        /* \"#utility.yul\":4539:4557   */\n      0x24\n      dup3\n      add\n        /* \"#utility.yul\":4532:4561   */\n      mstore\n      shl(0xba, 0x1b9bdd081cdd185c9d)\n        /* \"#utility.yul\":4577:4595   */\n      0x44\n      dup3\n      add\n        /* \"#utility.yul\":4570:4609   */\n      mstore\n        /* \"#utility.yul\":4626:4644   */\n      0x64\n      add\n        /* \"msc_token/BeePresell.sol\":5798:5845  require(startAt < block.timestamp, \"not start\") */\n      tag_161\n        /* \"#utility.yul\":4318:4650   */\n      jump\n        /* \"msc_token/BeePresell.sol\":5798:5845  require(startAt < block.timestamp, \"not start\") */\n    tag_206:\n        /* \"msc_token/BeePresell.sol\":5864:5869  endAt */\n      sload(0x07)\n        /* \"msc_token/BeePresell.sol\":5872:5887  block.timestamp */\n      timestamp\n      shl(0xc0, 0x01)\n        /* \"msc_token/BeePresell.sol\":5864:5869  endAt */\n      swap1\n      swap2\n      div\n      0xffffffffffffffff\n      and\n        /* \"msc_token/BeePresell.sol\":5864:5887  endAt > block.timestamp */\n      gt\n        /* \"msc_token/BeePresell.sol\":5856:5899  require(endAt > block.timestamp, \"has end\") */\n      tag_209\n      jumpi\n      mload(0x40)\n      shl(0xe5, 0x461bcd)\n      dup2\n      mstore\n        /* \"#utility.yul\":4857:4859   */\n      0x20\n        /* \"msc_token/BeePresell.sol\":5856:5899  require(endAt > block.timestamp, \"has end\") */\n      0x04\n      dup3\n      add\n        /* \"#utility.yul\":4839:4860   */\n      mstore\n        /* \"#utility.yul\":4896:4897   */\n      0x07\n        /* \"#utility.yul\":4876:4894   */\n      0x24\n      dup3\n      add\n        /* \"#utility.yul\":4869:4898   */\n      mstore\n      shl(0xca, 0x1a185cc8195b99)\n        /* \"#utility.yul\":4914:4932   */\n      0x44\n      dup3\n      add\n        /* \"#utility.yul\":4907:4944   */\n      mstore\n        /* \"#utility.yul\":4961:4979   */\n      0x64\n      add\n        /* \"msc_token/BeePresell.sol\":5856:5899  require(endAt > block.timestamp, \"has end\") */\n      tag_161\n        /* \"#utility.yul\":4655:4985   */\n      jump\n        /* \"msc_token/BeePresell.sol\":5856:5899  require(endAt > block.timestamp, \"has end\") */\n    tag_209:\n      sub(shl(0xa0, 0x01), 0x01)\n        /* \"msc_token/BeePresell.sol\":5918:5934  hasBuy[_inviter] */\n      dup3\n      and\n      0x00\n      swap1\n      dup2\n      mstore\n        /* \"msc_token/BeePresell.sol\":5918:5924  hasBuy */\n      0x0b\n        /* \"msc_token/BeePresell.sol\":5918:5934  hasBuy[_inviter] */\n      0x20\n      mstore\n      0x40\n      swap1\n      keccak256\n      sload\n      0xff\n      and\n        /* \"msc_token/BeePresell.sol\":5910:5956  require(hasBuy[_inviter], \"Bee:upper not buy\") */\n      tag_212\n      jumpi\n      mload(0x40)\n      shl(0xe5, 0x461bcd)\n      dup2\n      mstore\n        /* \"#utility.yul\":5192:5194   */\n      0x20\n        /* \"msc_token/BeePresell.sol\":5910:5956  require(hasBuy[_inviter], \"Bee:upper not buy\") */\n      0x04\n      dup3\n      add\n        /* \"#utility.yul\":5174:5195   */\n      mstore\n        /* \"#utility.yul\":5231:5233   */\n      0x11\n        /* \"#utility.yul\":5211:5229   */\n      0x24\n      dup3\n      add\n        /* \"#utility.yul\":5204:5234   */\n      mstore\n      shl(0x78, 0x4265653a7570706572206e6f7420627579)\n        /* \"#utility.yul\":5250:5268   */\n      0x44\n      dup3\n      add\n        /* \"#utility.yul\":5243:5290   */\n      mstore\n        /* \"#utility.yul\":5307:5325   */\n      0x64\n      add\n        /* \"msc_token/BeePresell.sol\":5910:5956  require(hasBuy[_inviter], \"Bee:upper not buy\") */\n      tag_161\n        /* \"#utility.yul\":4990:5331   */\n      jump\n        /* \"msc_token/BeePresell.sol\":5910:5956  require(hasBuy[_inviter], \"Bee:upper not buy\") */\n    tag_212:\n        /* \"msc_token/BeePresell.sol\":5982:5992  msg.sender */\n      caller\n        /* \"msc_token/BeePresell.sol\":5975:5993  hasBuy[msg.sender] */\n      0x00\n      swap1\n      dup2\n      mstore\n        /* \"msc_token/BeePresell.sol\":5975:5981  hasBuy */\n      0x0b\n        /* \"msc_token/BeePresell.sol\":5975:5993  hasBuy[msg.sender] */\n      0x20\n      mstore\n      0x40\n      swap1\n      keccak256\n      sload\n      0xff\n      and\n        /* \"msc_token/BeePresell.sol\":5967:6014  require(hasBuy[msg.sender], \"Bee:user not buy\") */\n      tag_215\n      jumpi\n      mload(0x40)\n      shl(0xe5, 0x461bcd)\n      dup2\n      mstore\n        /* \"#utility.yul\":5538:5540   */\n      0x20\n        /* \"msc_token/BeePresell.sol\":5967:6014  require(hasBuy[msg.sender], \"Bee:user not buy\") */\n      0x04\n      dup3\n      add\n        /* \"#utility.yul\":5520:5541   */\n      mstore\n        /* \"#utility.yul\":5577:5579   */\n      0x10\n        /* \"#utility.yul\":5557:5575   */\n      0x24\n      dup3\n      add\n        /* \"#utility.yul\":5550:5580   */\n      mstore\n      shl(0x80, 0x4265653a75736572206e6f7420627579)\n        /* \"#utility.yul\":5596:5614   */\n      0x44\n      dup3\n      add\n        /* \"#utility.yul\":5589:5635   */\n      mstore\n        /* \"#utility.yul\":5652:5670   */\n      0x64\n      add\n        /* \"msc_token/BeePresell.sol\":5967:6014  require(hasBuy[msg.sender], \"Bee:user not buy\") */\n      tag_161\n        /* \"#utility.yul\":5336:5676   */\n      jump\n        /* \"msc_token/BeePresell.sol\":5967:6014  require(hasBuy[msg.sender], \"Bee:user not buy\") */\n    tag_215:\n      sub(shl(0xa0, 0x01), 0x01)\n        /* \"msc_token/BeePresell.sol\":6035:6057  msg.sender != _inviter */\n      dup3\n      and\n        /* \"msc_token/BeePresell.sol\":6035:6045  msg.sender */\n      caller\n        /* \"msc_token/BeePresell.sol\":6035:6057  msg.sender != _inviter */\n      sub\n        /* \"msc_token/BeePresell.sol\":6027:6075  require(msg.sender != _inviter, \"Bee:FORBIDDEN\") */\n      tag_218\n      jumpi\n      mload(0x40)\n      shl(0xe5, 0x461bcd)\n      dup2\n      mstore\n        /* \"#utility.yul\":5883:5885   */\n      0x20\n        /* \"msc_token/BeePresell.sol\":6027:6075  require(msg.sender != _inviter, \"Bee:FORBIDDEN\") */\n      0x04\n      dup3\n      add\n        /* \"#utility.yul\":5865:5886   */\n      mstore\n        /* \"#utility.yul\":5922:5924   */\n      0x0d\n        /* \"#utility.yul\":5902:5920   */\n      0x24\n      dup3\n      add\n        /* \"#utility.yul\":5895:5925   */\n      mstore\n      shl(0x99, 0x2132b29d2327a92124a22222a7)\n        /* \"#utility.yul\":5941:5959   */\n      0x44\n      dup3\n      add\n        /* \"#utility.yul\":5934:5977   */\n      mstore\n        /* \"#utility.yul\":5994:6012   */\n      0x64\n      add\n        /* \"msc_token/BeePresell.sol\":6027:6075  require(msg.sender != _inviter, \"Bee:FORBIDDEN\") */\n      tag_161\n        /* \"#utility.yul\":5681:6018   */\n      jump\n        /* \"msc_token/BeePresell.sol\":6027:6075  require(msg.sender != _inviter, \"Bee:FORBIDDEN\") */\n    tag_218:\n        /* \"msc_token/BeePresell.sol\":6123:6133  msg.sender */\n      caller\n        /* \"msc_token/BeePresell.sol\":6088:6109  UserInfo storage user */\n      0x00\n        /* \"msc_token/BeePresell.sol\":6112:6134  inviteInfo[msg.sender] */\n      dup2\n      dup2\n      mstore\n        /* \"msc_token/BeePresell.sol\":6112:6122  inviteInfo */\n      0x08\n        /* \"msc_token/BeePresell.sol\":6112:6134  inviteInfo[msg.sender] */\n      0x20\n      mstore\n      0x40\n      dup1\n      dup3\n      keccak256\n      sub(shl(0xa0, 0x01), 0x01)\n        /* \"msc_token/BeePresell.sol\":6170:6190  inviteInfo[_inviter] */\n      dup7\n      dup2\n      and\n      dup5\n      mstore\n      swap2\n      swap1\n      swap3\n      keccak256\n        /* \"msc_token/BeePresell.sol\":6211:6222  upper.upper */\n      dup1\n      sload\n        /* \"msc_token/BeePresell.sol\":6112:6134  inviteInfo[msg.sender] */\n      swap3\n      swap4\n        /* \"msc_token/BeePresell.sol\":6170:6190  inviteInfo[_inviter] */\n      swap1\n      swap3\n        /* \"msc_token/BeePresell.sol\":6211:6222  upper.upper */\n      swap1\n      swap2\n      and\n        /* \"msc_token/BeePresell.sol\":6211:6236  upper.upper != msg.sender */\n      sub\n        /* \"msc_token/BeePresell.sol\":6203:6275  require(upper.upper != msg.sender, \"The inviter is a lower to the user\") */\n      tag_221\n      jumpi\n      mload(0x40)\n      shl(0xe5, 0x461bcd)\n      dup2\n      mstore\n        /* \"#utility.yul\":6225:6227   */\n      0x20\n        /* \"msc_token/BeePresell.sol\":6203:6275  require(upper.upper != msg.sender, \"The inviter is a lower to the user\") */\n      0x04\n      dup3\n      add\n        /* \"#utility.yul\":6207:6228   */\n      mstore\n        /* \"#utility.yul\":6264:6266   */\n      0x22\n        /* \"#utility.yul\":6244:6262   */\n      0x24\n      dup3\n      add\n        /* \"#utility.yul\":6237:6267   */\n      mstore\n        /* \"#utility.yul\":6303:6337   */\n      0x54686520696e76697465722069732061206c6f77657220746f20746865207573\n        /* \"#utility.yul\":6283:6301   */\n      0x44\n      dup3\n      add\n        /* \"#utility.yul\":6276:6338   */\n      mstore\n      shl(0xf1, 0x32b9)\n        /* \"#utility.yul\":6354:6372   */\n      0x64\n      dup3\n      add\n        /* \"#utility.yul\":6347:6379   */\n      mstore\n        /* \"#utility.yul\":6396:6415   */\n      0x84\n      add\n        /* \"msc_token/BeePresell.sol\":6203:6275  require(upper.upper != msg.sender, \"The inviter is a lower to the user\") */\n      tag_161\n        /* \"#utility.yul\":6023:6421   */\n      jump\n        /* \"msc_token/BeePresell.sol\":6203:6275  require(upper.upper != msg.sender, \"The inviter is a lower to the user\") */\n    tag_221:\n        /* \"msc_token/BeePresell.sol\":6296:6306  user.upper */\n      dup2\n      sload\n      sub(shl(0xa0, 0x01), 0x01)\n        /* \"msc_token/BeePresell.sol\":6296:6318  user.upper != _inviter */\n      dup1\n      dup7\n      and\n        /* \"msc_token/BeePresell.sol\":6296:6306  user.upper */\n      swap2\n      and\n        /* \"msc_token/BeePresell.sol\":6296:6318  user.upper != _inviter */\n      sub\n        /* \"msc_token/BeePresell.sol\":6288:6342  require(user.upper != _inviter, \"Repeated invitation\") */\n      tag_224\n      jumpi\n      mload(0x40)\n      shl(0xe5, 0x461bcd)\n      dup2\n      mstore\n        /* \"#utility.yul\":6628:6630   */\n      0x20\n        /* \"msc_token/BeePresell.sol\":6288:6342  require(user.upper != _inviter, \"Repeated invitation\") */\n      0x04\n      dup3\n      add\n        /* \"#utility.yul\":6610:6631   */\n      mstore\n        /* \"#utility.yul\":6667:6669   */\n      0x13\n        /* \"#utility.yul\":6647:6665   */\n      0x24\n      dup3\n      add\n        /* \"#utility.yul\":6640:6670   */\n      mstore\n      shl(0x69, 0x2932b832b0ba32b21034b73b34ba30ba34b7b7)\n        /* \"#utility.yul\":6686:6704   */\n      0x44\n      dup3\n      add\n        /* \"#utility.yul\":6679:6728   */\n      mstore\n        /* \"#utility.yul\":6745:6763   */\n      0x64\n      add\n        /* \"msc_token/BeePresell.sol\":6288:6342  require(user.upper != _inviter, \"Repeated invitation\") */\n      tag_161\n        /* \"#utility.yul\":6426:6769   */\n      jump\n        /* \"msc_token/BeePresell.sol\":6288:6342  require(user.upper != _inviter, \"Repeated invitation\") */\n    tag_224:\n        /* \"msc_token/BeePresell.sol\":6363:6373  user.upper */\n      dup2\n      sload\n      sub(shl(0xa0, 0x01), 0x01)\n      and\n        /* \"msc_token/BeePresell.sol\":6363:6387  user.upper == address(0) */\n      iszero\n        /* \"msc_token/BeePresell.sol\":6355:6412  require(user.upper == address(0), \"Already have a upper\") */\n      tag_227\n      jumpi\n      mload(0x40)\n      shl(0xe5, 0x461bcd)\n      dup2\n      mstore\n        /* \"#utility.yul\":6976:6978   */\n      0x20\n        /* \"msc_token/BeePresell.sol\":6355:6412  require(user.upper == address(0), \"Already have a upper\") */\n      0x04\n      dup3\n      add\n        /* \"#utility.yul\":6958:6979   */\n      mstore\n        /* \"#utility.yul\":7015:7017   */\n      0x14\n        /* \"#utility.yul\":6995:7013   */\n      0x24\n      dup3\n      add\n        /* \"#utility.yul\":6988:7018   */\n      mstore\n      shl(0x61, 0x20b63932b0b23c903430bb329030903ab83832b9)\n        /* \"#utility.yul\":7034:7052   */\n      0x44\n      dup3\n      add\n        /* \"#utility.yul\":7027:7077   */\n      mstore\n        /* \"#utility.yul\":7094:7112   */\n      0x64\n      add\n        /* \"msc_token/BeePresell.sol\":6355:6412  require(user.upper == address(0), \"Already have a upper\") */\n      tag_161\n        /* \"#utility.yul\":6774:7118   */\n      jump\n        /* \"msc_token/BeePresell.sol\":6355:6412  require(user.upper == address(0), \"Already have a upper\") */\n    tag_227:\n        /* \"msc_token/BeePresell.sol\":6425:6446  user.upper = _inviter */\n      dup2\n      sload\n      sub(shl(0xa0, 0x01), 0x01)\n      dup6\n      and\n      not(sub(shl(0xa0, 0x01), 0x01))\n      swap2\n      dup3\n      and\n      dup2\n      or\n      dup5\n      sstore\n        /* \"msc_token/BeePresell.sol\":6475:6487  block.number */\n      number\n        /* \"msc_token/BeePresell.sol\":6457:6472  user.startBlock */\n      0x02\n      dup1\n      dup7\n      add\n        /* \"msc_token/BeePresell.sol\":6457:6487  user.startBlock = block.number */\n      dup3\n      swap1\n      sstore\n        /* \"msc_token/BeePresell.sol\":6500:6516  upper.startBlock */\n      dup5\n      add\n        /* \"msc_token/BeePresell.sol\":6500:6531  upper.startBlock = block.number */\n      sstore\n        /* \"msc_token/BeePresell.sol\":6425:6446  user.upper = _inviter */\n      0x01\n        /* \"msc_token/BeePresell.sol\":6542:6554  upper.lowers */\n      dup4\n      dup2\n      add\n        /* \"msc_token/BeePresell.sol\":6542:6571  upper.lowers.push(msg.sender) */\n      dup1\n      sload\n      dup1\n      dup4\n      add\n      dup3\n      sstore\n        /* \"msc_token/BeePresell.sol\":6425:6435  user.upper */\n      0x00\n        /* \"msc_token/BeePresell.sol\":6542:6571  upper.lowers.push(msg.sender) */\n      swap2\n      dup3\n      mstore\n      0x20\n      dup1\n      dup4\n      keccak256\n      swap1\n      swap2\n      add\n      dup1\n      sload\n      swap1\n      swap6\n      and\n        /* \"msc_token/BeePresell.sol\":6560:6570  msg.sender */\n      caller\n        /* \"msc_token/BeePresell.sol\":6542:6571  upper.lowers.push(msg.sender) */\n      or\n      swap1\n      swap5\n      sstore\n        /* \"msc_token/BeePresell.sol\":6584:6615  userInviteBalancelMap[_inviter] */\n      swap2\n      dup3\n      mstore\n        /* \"msc_token/BeePresell.sol\":6584:6605  userInviteBalancelMap */\n      0x0a\n        /* \"msc_token/BeePresell.sol\":6584:6615  userInviteBalancelMap[_inviter] */\n      swap1\n      swap3\n      mstore\n      0x40\n      swap1\n      keccak256\n        /* \"msc_token/BeePresell.sol\":6584:6622  userInviteBalancelMap[_inviter] = true */\n      dup1\n      sload\n      not(0xff)\n      and\n      swap1\n      swap2\n      or\n      swap1\n      sstore\n        /* \"msc_token/BeePresell.sol\":6635:6648  lowersCounter */\n      0x07\n        /* \"msc_token/BeePresell.sol\":6633:6648  ++lowersCounter */\n      dup1\n      sload\n        /* \"msc_token/BeePresell.sol\":6635:6648  lowersCounter */\n      0x08\n      swap1\n        /* \"msc_token/BeePresell.sol\":6633:6648  ++lowersCounter */\n      tag_231\n      swap1\n      0xffffffff\n      shl(0x40, 0x01)\n      swap1\n      swap2\n      div\n      and\n      tag_232\n      jump\t// in\n    tag_231:\n      swap2\n      swap1\n      0x0100\n      exp\n      dup2\n      sload\n      dup2\n      0xffffffff\n      mul\n      not\n      and\n      swap1\n      dup4\n      0xffffffff\n      and\n      mul\n      or\n      swap1\n      sstore\n      pop\n        /* \"msc_token/BeePresell.sol\":6668:6672  true */\n      0x01\n        /* \"msc_token/BeePresell.sol\":6661:6672  return true */\n      swap3\n      pop\n      pop\n      pop\n        /* \"msc_token/BeePresell.sol\":5721:6680  function acceptInvitation(address _inviter) public returns (bool) {... */\n      swap2\n      swap1\n      pop\n      jump\t// out\n        /* \"msc_token/BeePresell.sol\":5466:5591  function getUserLowers(address user) public view returns (address[] memory) {... */\n    tag_121:\n      sub(shl(0xa0, 0x01), 0x01)\n        /* \"msc_token/BeePresell.sol\":5560:5576  inviteInfo[user] */\n      dup2\n      and\n      0x00\n      swap1\n      dup2\n      mstore\n        /* \"msc_token/BeePresell.sol\":5560:5570  inviteInfo */\n      0x08\n        /* \"msc_token/BeePresell.sol\":5560:5576  inviteInfo[user] */\n      0x20\n      swap1\n      dup2\n      mstore\n      0x40\n      swap2\n      dup3\n      swap1\n      keccak256\n        /* \"msc_token/BeePresell.sol\":5560:5583  inviteInfo[user].lowers */\n      0x01\n      add\n        /* \"msc_token/BeePresell.sol\":5553:5583  return inviteInfo[user].lowers */\n      dup1\n      sload\n      dup4\n      mload\n      dup2\n      dup5\n      mul\n      dup2\n      add\n      dup5\n      add\n      swap1\n      swap5\n      mstore\n      dup1\n      dup5\n      mstore\n        /* \"msc_token/BeePresell.sol\":5524:5540  address[] memory */\n      0x60\n      swap4\n        /* \"msc_token/BeePresell.sol\":5553:5583  return inviteInfo[user].lowers */\n      swap3\n      dup4\n      add\n        /* \"msc_token/BeePresell.sol\":5560:5583  inviteInfo[user].lowers */\n      dup3\n        /* \"msc_token/BeePresell.sol\":5553:5583  return inviteInfo[user].lowers */\n      dup3\n      dup1\n      iszero\n      tag_234\n      jumpi\n      0x20\n      mul\n      dup3\n      add\n      swap2\n      swap1\n      0x00\n      mstore\n      keccak256(0x00, 0x20)\n      swap1\n    tag_235:\n      dup2\n      sload\n      sub(shl(0xa0, 0x01), 0x01)\n      and\n      dup2\n      mstore\n      0x01\n      swap1\n      swap2\n      add\n      swap1\n      0x20\n      add\n      dup1\n      dup4\n      gt\n      tag_235\n      jumpi\n    tag_234:\n      pop\n      pop\n      pop\n      pop\n      pop\n      swap1\n      pop\n        /* \"msc_token/BeePresell.sol\":5466:5591  function getUserLowers(address user) public view returns (address[] memory) {... */\n      swap2\n      swap1\n      pop\n      jump\t// out\n        /* \"msc_token/BeePresell.sol\":4639:4821  function getUserInviteAirdropCoinAmount(address user) public view returns (uint256) {... */\n    tag_126:\n      sub(shl(0xa0, 0x01), 0x01)\n        /* \"msc_token/BeePresell.sol\":4783:4799  inviteInfo[user] */\n      dup2\n      and\n        /* \"msc_token/BeePresell.sol\":4714:4721  uint256 */\n      0x00\n        /* \"msc_token/BeePresell.sol\":4783:4799  inviteInfo[user] */\n      swap1\n      dup2\n      mstore\n        /* \"msc_token/BeePresell.sol\":4783:4793  inviteInfo */\n      0x08\n        /* \"msc_token/BeePresell.sol\":4783:4799  inviteInfo[user] */\n      0x20\n      mstore\n      0x40\n      dup2\n      keccak256\n        /* \"msc_token/BeePresell.sol\":4783:4806  inviteInfo[user].lowers */\n      0x01\n      add\n        /* \"msc_token/BeePresell.sol\":4783:4813  inviteInfo[user].lowers.length */\n      sload\n        /* \"msc_token/BeePresell.sol\":4767:4780  lowersCounter */\n      sload(0x07)\n        /* \"msc_token/BeePresell.sol\":4741:4764  inviteAirdropCoinAmount */\n      sload(0x06)\n        /* \"msc_token/BeePresell.sol\":4741:4780  inviteAirdropCoinAmount / lowersCounter */\n      tag_237\n      swap2\n      shl(0x40, 0x01)\n        /* \"msc_token/BeePresell.sol\":4767:4780  lowersCounter */\n      swap1\n      div\n      0xffffffff\n      and\n      swap1\n        /* \"msc_token/BeePresell.sol\":4741:4780  inviteAirdropCoinAmount / lowersCounter */\n      tag_238\n      jump\t// in\n    tag_237:\n        /* \"msc_token/BeePresell.sol\":4741:4813  inviteAirdropCoinAmount / lowersCounter * inviteInfo[user].lowers.length */\n      tag_239\n      swap2\n      swap1\n      tag_240\n      jump\t// in\n    tag_239:\n        /* \"msc_token/BeePresell.sol\":4734:4813  return inviteAirdropCoinAmount / lowersCounter * inviteInfo[user].lowers.length */\n      swap3\n        /* \"msc_token/BeePresell.sol\":4639:4821  function getUserInviteAirdropCoinAmount(address user) public view returns (uint256) {... */\n      swap2\n      pop\n      pop\n      jump\t// out\n        /* \"msc_token/BeePresell.sol\":7344:7751  function withdrawPresellTokens() public {... */\n    tag_136:\n        /* \"msc_token/BeePresell.sol\":7403:7408  endAt */\n      sload(0x07)\n        /* \"msc_token/BeePresell.sol\":7411:7426  block.timestamp */\n      timestamp\n      shl(0xc0, 0x01)\n        /* \"msc_token/BeePresell.sol\":7403:7408  endAt */\n      swap1\n      swap2\n      div\n      0xffffffffffffffff\n      and\n        /* \"msc_token/BeePresell.sol\":7403:7426  endAt < block.timestamp */\n      lt\n        /* \"msc_token/BeePresell.sol\":7395:7446  require(endAt < block.timestamp, \"presell not end\") */\n      tag_244\n      jumpi\n      mload(0x40)\n      shl(0xe5, 0x461bcd)\n      dup2\n      mstore\n        /* \"#utility.yul\":3200:3202   */\n      0x20\n        /* \"msc_token/BeePresell.sol\":7395:7446  require(endAt < block.timestamp, \"presell not end\") */\n      0x04\n      dup3\n      add\n        /* \"#utility.yul\":3182:3203   */\n      mstore\n        /* \"#utility.yul\":3239:3241   */\n      0x0f\n        /* \"#utility.yul\":3219:3237   */\n      0x24\n      dup3\n      add\n        /* \"#utility.yul\":3212:3242   */\n      mstore\n      shl(0x8a, 0x1c1c995cd95b1b081b9bdd08195b99)\n        /* \"#utility.yul\":3258:3276   */\n      0x44\n      dup3\n      add\n        /* \"#utility.yul\":3251:3296   */\n      mstore\n        /* \"#utility.yul\":3313:3331   */\n      0x64\n      add\n        /* \"msc_token/BeePresell.sol\":7395:7446  require(endAt < block.timestamp, \"presell not end\") */\n      tag_161\n        /* \"#utility.yul\":2998:3337   */\n      jump\n        /* \"msc_token/BeePresell.sol\":7395:7446  require(endAt < block.timestamp, \"presell not end\") */\n    tag_244:\n        /* \"msc_token/BeePresell.sol\":7489:7499  msg.sender */\n      caller\n        /* \"msc_token/BeePresell.sol\":7503:7504  0 */\n      0x00\n        /* \"msc_token/BeePresell.sol\":7467:7500  userPresellBalanceMap[msg.sender] */\n      swap1\n      dup2\n      mstore\n        /* \"msc_token/BeePresell.sol\":7467:7488  userPresellBalanceMap */\n      0x09\n        /* \"msc_token/BeePresell.sol\":7467:7500  userPresellBalanceMap[msg.sender] */\n      0x20\n      mstore\n      0x40\n      swap1\n      keccak256\n      sload\n        /* \"msc_token/BeePresell.sol\":7459:7526  require(userPresellBalanceMap[msg.sender] > 0, 'user balance zero') */\n      tag_246\n      jumpi\n      mload(0x40)\n      shl(0xe5, 0x461bcd)\n      dup2\n      mstore\n        /* \"#utility.yul\":8058:8060   */\n      0x20\n        /* \"msc_token/BeePresell.sol\":7459:7526  require(userPresellBalanceMap[msg.sender] > 0, 'user balance zero') */\n      0x04\n      dup3\n      add\n        /* \"#utility.yul\":8040:8061   */\n      mstore\n        /* \"#utility.yul\":8097:8099   */\n      0x11\n        /* \"#utility.yul\":8077:8095   */\n      0x24\n      dup3\n      add\n        /* \"#utility.yul\":8070:8100   */\n      mstore\n      shl(0x78, 0x757365722062616c616e6365207a65726f)\n        /* \"#utility.yul\":8116:8134   */\n      0x44\n      dup3\n      add\n        /* \"#utility.yul\":8109:8156   */\n      mstore\n        /* \"#utility.yul\":8173:8191   */\n      0x64\n      add\n        /* \"msc_token/BeePresell.sol\":7459:7526  require(userPresellBalanceMap[msg.sender] > 0, 'user balance zero') */\n      tag_161\n        /* \"#utility.yul\":7856:8197   */\n      jump\n        /* \"msc_token/BeePresell.sol\":7459:7526  require(userPresellBalanceMap[msg.sender] > 0, 'user balance zero') */\n    tag_246:\n        /* \"msc_token/BeePresell.sol\":7570:7580  msg.sender */\n      caller\n        /* \"msc_token/BeePresell.sol\":7539:7548  bool sent */\n      0x00\n        /* \"msc_token/BeePresell.sol\":7582:7615  userPresellBalanceMap[msg.sender] */\n      dup2\n      dup2\n      mstore\n        /* \"msc_token/BeePresell.sol\":7582:7603  userPresellBalanceMap */\n      0x09\n        /* \"msc_token/BeePresell.sol\":7582:7615  userPresellBalanceMap[msg.sender] */\n      0x20\n      mstore\n      0x40\n      dup1\n      dup3\n      keccak256\n      sload\n        /* \"msc_token/BeePresell.sol\":7551:7616  sellToken.transfer(msg.sender, userPresellBalanceMap[msg.sender]) */\n      swap1\n      mload\n      shl(0xe0, 0xa9059cbb)\n      dup2\n      mstore\n      0x04\n      dup2\n      add\n        /* \"#utility.yul\":892:943   */\n      swap4\n      swap1\n      swap4\n      mstore\n        /* \"#utility.yul\":959:977   */\n      0x24\n      dup4\n      add\n        /* \"#utility.yul\":952:986   */\n      mstore\n        /* \"msc_token/BeePresell.sol\":7539:7548  bool sent */\n      swap1\n        /* \"msc_token/BeePresell.sol\":7551:7560  sellToken */\n      immutable(\"0xc849ac6906fb063f44f99b9ae7fa6aacafa477545e0e3f40a74dbbf30335f84e\")\n      sub(shl(0xa0, 0x01), 0x01)\n        /* \"msc_token/BeePresell.sol\":7551:7569  sellToken.transfer */\n      and\n      swap1\n      0xa9059cbb\n      swap1\n        /* \"#utility.yul\":865:883   */\n      0x44\n      add\n        /* \"msc_token/BeePresell.sol\":7551:7616  sellToken.transfer(msg.sender, userPresellBalanceMap[msg.sender]) */\n      0x20\n      mload(0x40)\n      dup1\n      dup4\n      sub\n      dup2\n      0x00\n      dup8\n      gas\n      call\n      iszero\n      dup1\n      iszero\n      tag_251\n      jumpi\n      returndatasize\n      0x00\n      dup1\n      returndatacopy\n      revert(0x00, returndatasize)\n    tag_251:\n      pop\n      pop\n      pop\n      pop\n      mload(0x40)\n      returndatasize\n      not(0x1f)\n      0x1f\n      dup3\n      add\n      and\n      dup3\n      add\n      dup1\n      0x40\n      mstore\n      pop\n      dup2\n      add\n      swap1\n      tag_252\n      swap2\n      swap1\n      tag_176\n      jump\t// in\n    tag_252:\n        /* \"msc_token/BeePresell.sol\":7539:7616  bool sent = sellToken.transfer(msg.sender, userPresellBalanceMap[msg.sender]) */\n      swap1\n      pop\n        /* \"msc_token/BeePresell.sol\":7635:7639  sent */\n      dup1\n        /* \"msc_token/BeePresell.sol\":7627:7665  require(sent, \"Token transfer failed\") */\n      tag_253\n      jumpi\n      mload(0x40)\n      shl(0xe5, 0x461bcd)\n      dup2\n      mstore\n      0x04\n      add\n      tag_161\n      swap1\n      tag_179\n      jump\t// in\n    tag_253:\n        /* \"msc_token/BeePresell.sol\":7700:7710  msg.sender */\n      caller\n        /* \"msc_token/BeePresell.sol\":7714:7715  0 */\n      0x00\n        /* \"msc_token/BeePresell.sol\":7678:7711  userPresellBalanceMap[msg.sender] */\n      swap1\n      dup2\n      mstore\n        /* \"msc_token/BeePresell.sol\":7678:7699  userPresellBalanceMap */\n      0x09\n        /* \"msc_token/BeePresell.sol\":7678:7711  userPresellBalanceMap[msg.sender] */\n      0x20\n      mstore\n      0x40\n      dup2\n      keccak256\n        /* \"msc_token/BeePresell.sol\":7678:7715  userPresellBalanceMap[msg.sender] = 0 */\n      sstore\n        /* \"msc_token/BeePresell.sol\":7726:7741  withdrawCounter */\n      0x07\n        /* \"msc_token/BeePresell.sol\":7726:7743  withdrawCounter++ */\n      dup1\n      sload\n      0x0100000000\n      swap1\n      div\n      0xffffffff\n      and\n      swap1\n        /* \"msc_token/BeePresell.sol\":7726:7741  withdrawCounter */\n      0x04\n        /* \"msc_token/BeePresell.sol\":7726:7743  withdrawCounter++ */\n      tag_255\n      dup4\n      tag_232\n      jump\t// in\n    tag_255:\n      swap2\n      swap1\n      0x0100\n      exp\n      dup2\n      sload\n      dup2\n      0xffffffff\n      mul\n      not\n      and\n      swap1\n      dup4\n      0xffffffff\n      and\n      mul\n      or\n      swap1\n      sstore\n      pop\n      pop\n        /* \"msc_token/BeePresell.sol\":7384:7751  {... */\n      pop\n        /* \"msc_token/BeePresell.sol\":7344:7751  function withdrawPresellTokens() public {... */\n      jump\t// out\n        /* \"msc_token/BeePresell.sol\":6688:7336  function buyTokens() public {... */\n    tag_138:\n        /* \"msc_token/BeePresell.sol\":6735:6742  startAt */\n      sload(0x07)\n        /* \"msc_token/BeePresell.sol\":6745:6760  block.timestamp */\n      timestamp\n      shl(0x80, 0x01)\n        /* \"msc_token/BeePresell.sol\":6735:6742  startAt */\n      swap1\n      swap2\n      div\n      0xffffffffffffffff\n      and\n        /* \"msc_token/BeePresell.sol\":6735:6760  startAt < block.timestamp */\n      lt\n        /* \"msc_token/BeePresell.sol\":6727:6774  require(startAt < block.timestamp, \"not start\") */\n      tag_257\n      jumpi\n      mload(0x40)\n      shl(0xe5, 0x461bcd)\n      dup2\n      mstore\n        /* \"#utility.yul\":4520:4522   */\n      0x20\n        /* \"msc_token/BeePresell.sol\":6727:6774  require(startAt < block.timestamp, \"not start\") */\n      0x04\n      dup3\n      add\n        /* \"#utility.yul\":4502:4523   */\n      mstore\n        /* \"#utility.yul\":4559:4560   */\n      0x09\n        /* \"#utility.yul\":4539:4557   */\n      0x24\n      dup3\n      add\n        /* \"#utility.yul\":4532:4561   */\n      mstore\n      shl(0xba, 0x1b9bdd081cdd185c9d)\n        /* \"#utility.yul\":4577:4595   */\n      0x44\n      dup3\n      add\n        /* \"#utility.yul\":4570:4609   */\n      mstore\n        /* \"#utility.yul\":4626:4644   */\n      0x64\n      add\n        /* \"msc_token/BeePresell.sol\":6727:6774  require(startAt < block.timestamp, \"not start\") */\n      tag_161\n        /* \"#utility.yul\":4318:4650   */\n      jump\n        /* \"msc_token/BeePresell.sol\":6727:6774  require(startAt < block.timestamp, \"not start\") */\n    tag_257:\n        /* \"msc_token/BeePresell.sol\":6795:6800  endAt */\n      sload(0x07)\n        /* \"msc_token/BeePresell.sol\":6803:6818  block.timestamp */\n      timestamp\n      shl(0xc0, 0x01)\n        /* \"msc_token/BeePresell.sol\":6795:6800  endAt */\n      swap1\n      swap2\n      div\n      0xffffffffffffffff\n      and\n        /* \"msc_token/BeePresell.sol\":6795:6818  endAt > block.timestamp */\n      gt\n        /* \"msc_token/BeePresell.sol\":6787:6830  require(endAt > block.timestamp, \"has end\") */\n      tag_259\n      jumpi\n      mload(0x40)\n      shl(0xe5, 0x461bcd)\n      dup2\n      mstore\n        /* \"#utility.yul\":4857:4859   */\n      0x20\n        /* \"msc_token/BeePresell.sol\":6787:6830  require(endAt > block.timestamp, \"has end\") */\n      0x04\n      dup3\n      add\n        /* \"#utility.yul\":4839:4860   */\n      mstore\n        /* \"#utility.yul\":4896:4897   */\n      0x07\n        /* \"#utility.yul\":4876:4894   */\n      0x24\n      dup3\n      add\n        /* \"#utility.yul\":4869:4898   */\n      mstore\n      shl(0xca, 0x1a185cc8195b99)\n        /* \"#utility.yul\":4914:4932   */\n      0x44\n      dup3\n      add\n        /* \"#utility.yul\":4907:4944   */\n      mstore\n        /* \"#utility.yul\":4961:4979   */\n      0x64\n      add\n        /* \"msc_token/BeePresell.sol\":6787:6830  require(endAt > block.timestamp, \"has end\") */\n      tag_161\n        /* \"#utility.yul\":4655:4985   */\n      jump\n        /* \"msc_token/BeePresell.sol\":6787:6830  require(endAt > block.timestamp, \"has end\") */\n    tag_259:\n        /* \"msc_token/BeePresell.sol\":6862:6868  preMax */\n      sload(0x07)\n      0xffffffff\n      shl(0x60, 0x01)\n      dup3\n      div\n      dup2\n      and\n        /* \"msc_token/BeePresell.sol\":6851:6858  counter */\n      swap2\n      and\n        /* \"msc_token/BeePresell.sol\":6851:6868  counter <= preMax */\n      gt\n      iszero\n        /* \"msc_token/BeePresell.sol\":6843:6896  require(counter <= preMax, \"Pre-orders are sold out\") */\n      tag_261\n      jumpi\n      mload(0x40)\n      shl(0xe5, 0x461bcd)\n      dup2\n      mstore\n        /* \"#utility.yul\":8404:8406   */\n      0x20\n        /* \"msc_token/BeePresell.sol\":6843:6896  require(counter <= preMax, \"Pre-orders are sold out\") */\n      0x04\n      dup3\n      add\n        /* \"#utility.yul\":8386:8407   */\n      mstore\n        /* \"#utility.yul\":8443:8445   */\n      0x17\n        /* \"#utility.yul\":8423:8441   */\n      0x24\n      dup3\n      add\n        /* \"#utility.yul\":8416:8446   */\n      mstore\n        /* \"#utility.yul\":8482:8507   */\n      0x5072652d6f72646572732061726520736f6c64206f7574000000000000000000\n        /* \"#utility.yul\":8462:8480   */\n      0x44\n      dup3\n      add\n        /* \"#utility.yul\":8455:8508   */\n      mstore\n        /* \"#utility.yul\":8525:8543   */\n      0x64\n      add\n        /* \"msc_token/BeePresell.sol\":6843:6896  require(counter <= preMax, \"Pre-orders are sold out\") */\n      tag_161\n        /* \"#utility.yul\":8202:8549   */\n      jump\n        /* \"msc_token/BeePresell.sol\":6843:6896  require(counter <= preMax, \"Pre-orders are sold out\") */\n    tag_261:\n        /* \"msc_token/BeePresell.sol\":6925:6935  msg.sender */\n      caller\n        /* \"msc_token/BeePresell.sol\":6918:6936  hasBuy[msg.sender] */\n      0x00\n      swap1\n      dup2\n      mstore\n        /* \"msc_token/BeePresell.sol\":6918:6924  hasBuy */\n      0x0b\n        /* \"msc_token/BeePresell.sol\":6918:6936  hasBuy[msg.sender] */\n      0x20\n      mstore\n      0x40\n      swap1\n      keccak256\n      sload\n      0xff\n      and\n        /* \"msc_token/BeePresell.sol\":6917:6936  !hasBuy[msg.sender] */\n      iszero\n        /* \"msc_token/BeePresell.sol\":6909:6957  require(!hasBuy[msg.sender],\"already purchased\") */\n      tag_264\n      jumpi\n      mload(0x40)\n      shl(0xe5, 0x461bcd)\n      dup2\n      mstore\n        /* \"#utility.yul\":8756:8758   */\n      0x20\n        /* \"msc_token/BeePresell.sol\":6909:6957  require(!hasBuy[msg.sender],\"already purchased\") */\n      0x04\n      dup3\n      add\n        /* \"#utility.yul\":8738:8759   */\n      mstore\n        /* \"#utility.yul\":8795:8797   */\n      0x11\n        /* \"#utility.yul\":8775:8793   */\n      0x24\n      dup3\n      add\n        /* \"#utility.yul\":8768:8798   */\n      mstore\n      shl(0x7a, 0x185b1c9958591e481c1d5c98da185cd959)\n        /* \"#utility.yul\":8814:8832   */\n      0x44\n      dup3\n      add\n        /* \"#utility.yul\":8807:8854   */\n      mstore\n        /* \"#utility.yul\":8871:8889   */\n      0x64\n      add\n        /* \"msc_token/BeePresell.sol\":6909:6957  require(!hasBuy[msg.sender],\"already purchased\") */\n      tag_161\n        /* \"#utility.yul\":8554:8895   */\n      jump\n        /* \"msc_token/BeePresell.sol\":6909:6957  require(!hasBuy[msg.sender],\"already purchased\") */\n    tag_264:\n        /* \"msc_token/BeePresell.sol\":7028:7038  usdtAmount */\n      0x04\n      dup1\n      sload\n        /* \"msc_token/BeePresell.sol\":6978:7024  usdtToken.allowance(msg.sender, address(this)) */\n      mload(0x40)\n      shl(0xe1, 0x6eb1769f)\n      dup2\n      mstore\n        /* \"msc_token/BeePresell.sol\":6998:7008  msg.sender */\n      caller\n        /* \"msc_token/BeePresell.sol\":6978:7024  usdtToken.allowance(msg.sender, address(this)) */\n      swap3\n      dup2\n      add\n        /* \"#utility.yul\":9112:9146   */\n      swap3\n      swap1\n      swap3\n      mstore\n        /* \"msc_token/BeePresell.sol\":7018:7022  this */\n      address\n        /* \"#utility.yul\":9162:9180   */\n      0x24\n      dup4\n      add\n        /* \"#utility.yul\":9155:9198   */\n      mstore\n        /* \"msc_token/BeePresell.sol\":7028:7038  usdtAmount */\n      swap1\n      sub(shl(0xa0, 0x01), 0x01)\n        /* \"msc_token/BeePresell.sol\":6978:6987  usdtToken */\n      immutable(\"0x1cca6d2cec39a0e1e2f69c2ebe2dc3f8c1e03db413c5d1c3e31cdca41ddbc4f2\")\n        /* \"msc_token/BeePresell.sol\":6978:6997  usdtToken.allowance */\n      and\n      swap1\n      0xdd62ed3e\n      swap1\n        /* \"#utility.yul\":9047:9065   */\n      0x44\n      add\n        /* \"msc_token/BeePresell.sol\":6978:7024  usdtToken.allowance(msg.sender, address(this)) */\n      0x20\n      mload(0x40)\n      dup1\n      dup4\n      sub\n      dup2\n      dup7\n      gas\n      staticcall\n      iszero\n      dup1\n      iszero\n      tag_270\n      jumpi\n      returndatasize\n      0x00\n      dup1\n      returndatacopy\n      revert(0x00, returndatasize)\n    tag_270:\n      pop\n      pop\n      pop\n      pop\n      mload(0x40)\n      returndatasize\n      not(0x1f)\n      0x1f\n      dup3\n      add\n      and\n      dup3\n      add\n      dup1\n      0x40\n      mstore\n      pop\n      dup2\n      add\n      swap1\n      tag_271\n      swap2\n      swap1\n      tag_272\n      jump\t// in\n    tag_271:\n        /* \"msc_token/BeePresell.sol\":6978:7038  usdtToken.allowance(msg.sender, address(this)) >= usdtAmount */\n      lt\n      iszero\n        /* \"msc_token/BeePresell.sol\":6970:7070  require(usdtToken.allowance(msg.sender, address(this)) >= usdtAmount, \"usdtToken allowance too low\") */\n      tag_273\n      jumpi\n      mload(0x40)\n      shl(0xe5, 0x461bcd)\n      dup2\n      mstore\n        /* \"#utility.yul\":9600:9602   */\n      0x20\n        /* \"msc_token/BeePresell.sol\":6970:7070  require(usdtToken.allowance(msg.sender, address(this)) >= usdtAmount, \"usdtToken allowance too low\") */\n      0x04\n      dup3\n      add\n        /* \"#utility.yul\":9582:9603   */\n      mstore\n        /* \"#utility.yul\":9639:9641   */\n      0x1b\n        /* \"#utility.yul\":9619:9637   */\n      0x24\n      dup3\n      add\n        /* \"#utility.yul\":9612:9642   */\n      mstore\n        /* \"#utility.yul\":9678:9707   */\n      0x75736474546f6b656e20616c6c6f77616e636520746f6f206c6f770000000000\n        /* \"#utility.yul\":9658:9676   */\n      0x44\n      dup3\n      add\n        /* \"#utility.yul\":9651:9708   */\n      mstore\n        /* \"#utility.yul\":9725:9743   */\n      0x64\n      add\n        /* \"msc_token/BeePresell.sol\":6970:7070  require(usdtToken.allowance(msg.sender, address(this)) >= usdtAmount, \"usdtToken allowance too low\") */\n      tag_161\n        /* \"#utility.yul\":9398:9749   */\n      jump\n        /* \"msc_token/BeePresell.sol\":6970:7070  require(usdtToken.allowance(msg.sender, address(this)) >= usdtAmount, \"usdtToken allowance too low\") */\n    tag_273:\n        /* \"msc_token/BeePresell.sol\":7130:7143  marketAddress */\n      sload(0x03)\n        /* \"msc_token/BeePresell.sol\":7145:7155  usdtAmount */\n      0x04\n      dup1\n      sload\n        /* \"msc_token/BeePresell.sol\":7095:7156  usdtToken.transferFrom(msg.sender, marketAddress, usdtAmount) */\n      mload(0x40)\n      shl(0xe0, 0x23b872dd)\n      dup2\n      mstore\n        /* \"msc_token/BeePresell.sol\":7118:7128  msg.sender */\n      caller\n        /* \"msc_token/BeePresell.sol\":7095:7156  usdtToken.transferFrom(msg.sender, marketAddress, usdtAmount) */\n      swap3\n      dup2\n      add\n        /* \"#utility.yul\":9994:10028   */\n      swap3\n      swap1\n      swap3\n      mstore\n      sub(shl(0xa0, 0x01), 0x01)\n        /* \"msc_token/BeePresell.sol\":7130:7143  marketAddress */\n      swap3\n      dup4\n      and\n        /* \"#utility.yul\":10044:10062   */\n      0x24\n      dup4\n      add\n        /* \"#utility.yul\":10037:10080   */\n      mstore\n        /* \"#utility.yul\":10096:10114   */\n      0x44\n      dup3\n      add\n        /* \"#utility.yul\":10089:10123   */\n      mstore\n        /* \"msc_token/BeePresell.sol\":7083:7092  bool sent */\n      0x00\n      swap2\n        /* \"msc_token/BeePresell.sol\":7095:7104  usdtToken */\n      immutable(\"0x1cca6d2cec39a0e1e2f69c2ebe2dc3f8c1e03db413c5d1c3e31cdca41ddbc4f2\")\n        /* \"msc_token/BeePresell.sol\":7095:7117  usdtToken.transferFrom */\n      and\n      swap1\n      0x23b872dd\n      swap1\n        /* \"#utility.yul\":9929:9947   */\n      0x64\n      add\n        /* \"msc_token/BeePresell.sol\":7095:7156  usdtToken.transferFrom(msg.sender, marketAddress, usdtAmount) */\n      0x20\n      mload(0x40)\n      dup1\n      dup4\n      sub\n      dup2\n      0x00\n      dup8\n      gas\n      call\n      iszero\n      dup1\n      iszero\n      tag_279\n      jumpi\n      returndatasize\n      0x00\n      dup1\n      returndatacopy\n      revert(0x00, returndatasize)\n    tag_279:\n      pop\n      pop\n      pop\n      pop\n      mload(0x40)\n      returndatasize\n      not(0x1f)\n      0x1f\n      dup3\n      add\n      and\n      dup3\n      add\n      dup1\n      0x40\n      mstore\n      pop\n      dup2\n      add\n      swap1\n      tag_280\n      swap2\n      swap1\n      tag_176\n      jump\t// in\n    tag_280:\n        /* \"msc_token/BeePresell.sol\":7083:7156  bool sent = usdtToken.transferFrom(msg.sender, marketAddress, usdtAmount) */\n      swap1\n      pop\n        /* \"msc_token/BeePresell.sol\":7175:7179  sent */\n      dup1\n        /* \"msc_token/BeePresell.sol\":7167:7205  require(sent, \"Token transfer failed\") */\n      tag_281\n      jumpi\n      mload(0x40)\n      shl(0xe5, 0x461bcd)\n      dup2\n      mstore\n      0x04\n      add\n      tag_161\n      swap1\n      tag_179\n      jump\t// in\n    tag_281:\n        /* \"msc_token/BeePresell.sol\":7252:7272  preSellCoinPreAmount */\n      sload(0x05)\n        /* \"msc_token/BeePresell.sol\":7238:7248  msg.sender */\n      caller\n        /* \"msc_token/BeePresell.sol\":7216:7249  userPresellBalanceMap[msg.sender] */\n      0x00\n      swap1\n      dup2\n      mstore\n        /* \"msc_token/BeePresell.sol\":7216:7237  userPresellBalanceMap */\n      0x09\n        /* \"msc_token/BeePresell.sol\":7216:7249  userPresellBalanceMap[msg.sender] */\n      0x20\n      swap1\n      dup2\n      mstore\n      0x40\n      dup1\n      dup4\n      keccak256\n        /* \"msc_token/BeePresell.sol\":7216:7272  userPresellBalanceMap[msg.sender] = preSellCoinPreAmount */\n      swap4\n      swap1\n      swap4\n      sstore\n        /* \"msc_token/BeePresell.sol\":7283:7289  hasBuy */\n      0x0b\n        /* \"msc_token/BeePresell.sol\":7283:7301  hasBuy[msg.sender] */\n      swap1\n      mstore\n      swap1\n      dup2\n      keccak256\n        /* \"msc_token/BeePresell.sol\":7283:7308  hasBuy[msg.sender] = true */\n      dup1\n      sload\n      not(0xff)\n      and\n        /* \"msc_token/BeePresell.sol\":7304:7308  true */\n      0x01\n        /* \"msc_token/BeePresell.sol\":7283:7308  hasBuy[msg.sender] = true */\n      or\n      swap1\n      sstore\n        /* \"msc_token/BeePresell.sol\":7319:7326  counter */\n      0x07\n        /* \"msc_token/BeePresell.sol\":7319:7328  counter++ */\n      dup1\n      sload\n      0xffffffff\n      and\n      swap2\n      tag_255\n      dup4\n      tag_232\n      jump\t// in\n        /* \"msc_token/BeePresell.sol\":2090:2291  function transferOwnership(address newOwner) public virtual onlyOwner {... */\n    tag_151:\n        /* \"msc_token/BeePresell.sol\":1227:1234  address */\n      0x00\n        /* \"msc_token/BeePresell.sol\":1254:1260  _owner */\n      sload\n      sub(shl(0xa0, 0x01), 0x01)\n      and\n        /* \"msc_token/BeePresell.sol\":635:645  msg.sender */\n      caller\n        /* \"msc_token/BeePresell.sol\":1401:1424  owner() == _msgSender() */\n      eq\n        /* \"msc_token/BeePresell.sol\":1393:1461  require(owner() == _msgSender(), \"Ownable: caller is not the owner\") */\n      tag_290\n      jumpi\n      mload(0x40)\n      shl(0xe5, 0x461bcd)\n      dup2\n      mstore\n      0x04\n      add\n      tag_161\n      swap1\n      tag_162\n      jump\t// in\n    tag_290:\n      sub(shl(0xa0, 0x01), 0x01)\n        /* \"msc_token/BeePresell.sol\":2179:2201  newOwner != address(0) */\n      dup2\n      and\n        /* \"msc_token/BeePresell.sol\":2171:2244  require(newOwner != address(0), \"Ownable: new owner is the zero address\") */\n      tag_293\n      jumpi\n      mload(0x40)\n      shl(0xe5, 0x461bcd)\n      dup2\n      mstore\n        /* \"#utility.yul\":10336:10338   */\n      0x20\n        /* \"msc_token/BeePresell.sol\":2171:2244  require(newOwner != address(0), \"Ownable: new owner is the zero address\") */\n      0x04\n      dup3\n      add\n        /* \"#utility.yul\":10318:10339   */\n      mstore\n        /* \"#utility.yul\":10375:10377   */\n      0x26\n        /* \"#utility.yul\":10355:10373   */\n      0x24\n      dup3\n      add\n        /* \"#utility.yul\":10348:10378   */\n      mstore\n        /* \"#utility.yul\":10414:10448   */\n      0x4f776e61626c653a206e6577206f776e657220697320746865207a65726f2061\n        /* \"#utility.yul\":10394:10412   */\n      0x44\n      dup3\n      add\n        /* \"#utility.yul\":10387:10449   */\n      mstore\n      shl(0xd0, 0x646472657373)\n        /* \"#utility.yul\":10465:10483   */\n      0x64\n      dup3\n      add\n        /* \"#utility.yul\":10458:10494   */\n      mstore\n        /* \"#utility.yul\":10511:10530   */\n      0x84\n      add\n        /* \"msc_token/BeePresell.sol\":2171:2244  require(newOwner != address(0), \"Ownable: new owner is the zero address\") */\n      tag_161\n        /* \"#utility.yul\":10134:10536   */\n      jump\n        /* \"msc_token/BeePresell.sol\":2171:2244  require(newOwner != address(0), \"Ownable: new owner is the zero address\") */\n    tag_293:\n        /* \"msc_token/BeePresell.sol\":2255:2283  _transferOwnership(newOwner) */\n      tag_296\n        /* \"msc_token/BeePresell.sol\":2274:2282  newOwner */\n      dup2\n        /* \"msc_token/BeePresell.sol\":2255:2273  _transferOwnership */\n      tag_201\n        /* \"msc_token/BeePresell.sol\":2255:2283  _transferOwnership(newOwner) */\n      jump\t// in\n    tag_296:\n        /* \"msc_token/BeePresell.sol\":2090:2291  function transferOwnership(address newOwner) public virtual onlyOwner {... */\n      pop\n      jump\t// out\n        /* \"msc_token/BeePresell.sol\":8352:8460  function setMarketAddress(address newAddress) public onlyOwner {... */\n    tag_154:\n        /* \"msc_token/BeePresell.sol\":1227:1234  address */\n      0x00\n        /* \"msc_token/BeePresell.sol\":1254:1260  _owner */\n      sload\n      sub(shl(0xa0, 0x01), 0x01)\n      and\n        /* \"msc_token/BeePresell.sol\":635:645  msg.sender */\n      caller\n        /* \"msc_token/BeePresell.sol\":1401:1424  owner() == _msgSender() */\n      eq\n        /* \"msc_token/BeePresell.sol\":1393:1461  require(owner() == _msgSender(), \"Ownable: caller is not the owner\") */\n      tag_300\n      jumpi\n      mload(0x40)\n      shl(0xe5, 0x461bcd)\n      dup2\n      mstore\n      0x04\n      add\n      tag_161\n      swap1\n      tag_162\n      jump\t// in\n    tag_300:\n        /* \"msc_token/BeePresell.sol\":8426:8439  marketAddress */\n      0x03\n        /* \"msc_token/BeePresell.sol\":8426:8452  marketAddress = newAddress */\n      dup1\n      sload\n      not(sub(shl(0xa0, 0x01), 0x01))\n      and\n      sub(shl(0xa0, 0x01), 0x01)\n      swap3\n      swap1\n      swap3\n      and\n      swap2\n      swap1\n      swap2\n      or\n      swap1\n      sstore\n        /* \"msc_token/BeePresell.sol\":8352:8460  function setMarketAddress(address newAddress) public onlyOwner {... */\n      jump\t// out\n        /* \"msc_token/BeePresell.sol\":2451:2642  function _transferOwnership(address newOwner) internal virtual {... */\n    tag_201:\n        /* \"msc_token/BeePresell.sol\":2525:2541  address oldOwner */\n      0x00\n        /* \"msc_token/BeePresell.sol\":2544:2550  _owner */\n      dup1\n      sload\n      sub(shl(0xa0, 0x01), 0x01)\n        /* \"msc_token/BeePresell.sol\":2561:2578  _owner = newOwner */\n      dup4\n      dup2\n      and\n      not(sub(shl(0xa0, 0x01), 0x01))\n      dup4\n      and\n      dup2\n      or\n      dup5\n      sstore\n        /* \"msc_token/BeePresell.sol\":2594:2634  OwnershipTransferred(oldOwner, newOwner) */\n      mload(0x40)\n        /* \"msc_token/BeePresell.sol\":2544:2550  _owner */\n      swap2\n      swap1\n      swap3\n      and\n      swap3\n      dup4\n      swap2\n        /* \"msc_token/BeePresell.sol\":2594:2634  OwnershipTransferred(oldOwner, newOwner) */\n      0x8be0079c531659141344cd1fd0a4f28419497f9722a3daafe3b4186f6b6457e0\n      swap2\n        /* \"msc_token/BeePresell.sol\":2525:2541  address oldOwner */\n      swap1\n        /* \"msc_token/BeePresell.sol\":2594:2634  OwnershipTransferred(oldOwner, newOwner) */\n      log3\n        /* \"msc_token/BeePresell.sol\":2514:2642  {... */\n      pop\n        /* \"msc_token/BeePresell.sol\":2451:2642  function _transferOwnership(address newOwner) internal virtual {... */\n      pop\n      jump\t// out\n        /* \"#utility.yul\":427:713   */\n    tag_52:\n        /* \"#utility.yul\":486:492   */\n      0x00\n        /* \"#utility.yul\":539:541   */\n      0x20\n        /* \"#utility.yul\":527:536   */\n      dup3\n        /* \"#utility.yul\":518:525   */\n      dup5\n        /* \"#utility.yul\":514:537   */\n      sub\n        /* \"#utility.yul\":510:542   */\n      slt\n        /* \"#utility.yul\":507:559   */\n      iszero\n      tag_310\n      jumpi\n        /* \"#utility.yul\":555:556   */\n      0x00\n        /* \"#utility.yul\":552:553   */\n      dup1\n        /* \"#utility.yul\":545:557   */\n      revert\n        /* \"#utility.yul\":507:559   */\n    tag_310:\n        /* \"#utility.yul\":581:604   */\n      dup2\n      calldataload\n      sub(shl(0xa0, 0x01), 0x01)\n        /* \"#utility.yul\":633:664   */\n      dup2\n      and\n        /* \"#utility.yul\":623:665   */\n      dup2\n      eq\n        /* \"#utility.yul\":613:683   */\n      tag_311\n      jumpi\n        /* \"#utility.yul\":679:680   */\n      0x00\n        /* \"#utility.yul\":676:677   */\n      dup1\n        /* \"#utility.yul\":669:681   */\n      revert\n        /* \"#utility.yul\":613:683   */\n    tag_311:\n        /* \"#utility.yul\":702:707   */\n      swap4\n        /* \"#utility.yul\":427:713   */\n      swap3\n      pop\n      pop\n      pop\n      jump\t// out\n        /* \"#utility.yul\":997:1177   */\n    tag_58:\n        /* \"#utility.yul\":1056:1062   */\n      0x00\n        /* \"#utility.yul\":1109:1111   */\n      0x20\n        /* \"#utility.yul\":1097:1106   */\n      dup3\n        /* \"#utility.yul\":1088:1095   */\n      dup5\n        /* \"#utility.yul\":1084:1107   */\n      sub\n        /* \"#utility.yul\":1080:1112   */\n      slt\n        /* \"#utility.yul\":1077:1129   */\n      iszero\n      tag_314\n      jumpi\n        /* \"#utility.yul\":1125:1126   */\n      0x00\n        /* \"#utility.yul\":1122:1123   */\n      dup1\n        /* \"#utility.yul\":1115:1127   */\n      revert\n        /* \"#utility.yul\":1077:1129   */\n    tag_314:\n      pop\n        /* \"#utility.yul\":1148:1171   */\n      calldataload\n      swap2\n        /* \"#utility.yul\":997:1177   */\n      swap1\n      pop\n      jump\t// out\n        /* \"#utility.yul\":1974:2632   */\n    tag_123:\n        /* \"#utility.yul\":2145:2147   */\n      0x20\n        /* \"#utility.yul\":2197:2218   */\n      dup1\n      dup3\n      mstore\n        /* \"#utility.yul\":2267:2280   */\n      dup3\n      mload\n        /* \"#utility.yul\":2170:2188   */\n      dup3\n      dup3\n      add\n        /* \"#utility.yul\":2289:2311   */\n      dup2\n      swap1\n      mstore\n        /* \"#utility.yul\":2116:2120   */\n      0x00\n      swap2\n        /* \"#utility.yul\":2145:2147   */\n      swap1\n        /* \"#utility.yul\":2368:2383   */\n      dup5\n      dup3\n      add\n      swap1\n        /* \"#utility.yul\":2342:2344   */\n      0x40\n        /* \"#utility.yul\":2327:2345   */\n      dup6\n      add\n      swap1\n        /* \"#utility.yul\":2116:2120   */\n      dup5\n        /* \"#utility.yul\":2411:2606   */\n    tag_320:\n        /* \"#utility.yul\":2425:2431   */\n      dup2\n        /* \"#utility.yul\":2422:2423   */\n      dup2\n        /* \"#utility.yul\":2419:2432   */\n      lt\n        /* \"#utility.yul\":2411:2606   */\n      iszero\n      tag_322\n      jumpi\n        /* \"#utility.yul\":2490:2503   */\n      dup4\n      mload\n      sub(shl(0xa0, 0x01), 0x01)\n        /* \"#utility.yul\":2486:2525   */\n      and\n        /* \"#utility.yul\":2474:2526   */\n      dup4\n      mstore\n        /* \"#utility.yul\":2581:2596   */\n      swap3\n      dup5\n      add\n      swap3\n        /* \"#utility.yul\":2546:2558   */\n      swap2\n      dup5\n      add\n      swap2\n        /* \"#utility.yul\":2522:2523   */\n      0x01\n        /* \"#utility.yul\":2440:2449   */\n      add\n        /* \"#utility.yul\":2411:2606   */\n      jump(tag_320)\n    tag_322:\n      pop\n        /* \"#utility.yul\":2623:2626   */\n      swap1\n      swap7\n        /* \"#utility.yul\":1974:2632   */\n      swap6\n      pop\n      pop\n      pop\n      pop\n      pop\n      pop\n      jump\t// out\n        /* \"#utility.yul\":2637:2993   */\n    tag_162:\n        /* \"#utility.yul\":2839:2841   */\n      0x20\n        /* \"#utility.yul\":2821:2842   */\n      dup1\n      dup3\n      mstore\n        /* \"#utility.yul\":2858:2876   */\n      dup2\n      dup2\n      add\n        /* \"#utility.yul\":2851:2881   */\n      mstore\n        /* \"#utility.yul\":2917:2951   */\n      0x4f776e61626c653a2063616c6c6572206973206e6f7420746865206f776e6572\n        /* \"#utility.yul\":2912:2914   */\n      0x40\n        /* \"#utility.yul\":2897:2915   */\n      dup3\n      add\n        /* \"#utility.yul\":2890:2952   */\n      mstore\n        /* \"#utility.yul\":2984:2986   */\n      0x60\n        /* \"#utility.yul\":2969:2987   */\n      add\n      swap1\n        /* \"#utility.yul\":2637:2993   */\n      jump\t// out\n        /* \"#utility.yul\":3686:3963   */\n    tag_176:\n        /* \"#utility.yul\":3753:3759   */\n      0x00\n        /* \"#utility.yul\":3806:3808   */\n      0x20\n        /* \"#utility.yul\":3794:3803   */\n      dup3\n        /* \"#utility.yul\":3785:3792   */\n      dup5\n        /* \"#utility.yul\":3781:3804   */\n      sub\n        /* \"#utility.yul\":3777:3809   */\n      slt\n        /* \"#utility.yul\":3774:3826   */\n      iszero\n      tag_327\n      jumpi\n        /* \"#utility.yul\":3822:3823   */\n      0x00\n        /* \"#utility.yul\":3819:3820   */\n      dup1\n        /* \"#utility.yul\":3812:3824   */\n      revert\n        /* \"#utility.yul\":3774:3826   */\n    tag_327:\n        /* \"#utility.yul\":3854:3863   */\n      dup2\n        /* \"#utility.yul\":3848:3864   */\n      mload\n        /* \"#utility.yul\":3907:3912   */\n      dup1\n        /* \"#utility.yul\":3900:3913   */\n      iszero\n        /* \"#utility.yul\":3893:3914   */\n      iszero\n        /* \"#utility.yul\":3886:3891   */\n      dup2\n        /* \"#utility.yul\":3883:3915   */\n      eq\n        /* \"#utility.yul\":3873:3933   */\n      tag_311\n      jumpi\n        /* \"#utility.yul\":3929:3930   */\n      0x00\n        /* \"#utility.yul\":3926:3927   */\n      dup1\n        /* \"#utility.yul\":3919:3931   */\n      revert\n        /* \"#utility.yul\":3968:4313   */\n    tag_179:\n        /* \"#utility.yul\":4170:4172   */\n      0x20\n        /* \"#utility.yul\":4152:4173   */\n      dup1\n      dup3\n      mstore\n        /* \"#utility.yul\":4209:4211   */\n      0x15\n        /* \"#utility.yul\":4189:4207   */\n      swap1\n      dup3\n      add\n        /* \"#utility.yul\":4182:4212   */\n      mstore\n      shl(0x5a, 0x151bdad95b881d1c985b9cd9995c8819985a5b1959)\n        /* \"#utility.yul\":4243:4245   */\n      0x40\n        /* \"#utility.yul\":4228:4246   */\n      dup3\n      add\n        /* \"#utility.yul\":4221:4272   */\n      mstore\n        /* \"#utility.yul\":4304:4306   */\n      0x60\n        /* \"#utility.yul\":4289:4307   */\n      add\n      swap1\n        /* \"#utility.yul\":3968:4313   */\n      jump\t// out\n        /* \"#utility.yul\":7123:7250   */\n    tag_305:\n        /* \"#utility.yul\":7184:7194   */\n      0x4e487b71\n        /* \"#utility.yul\":7179:7182   */\n      0xe0\n        /* \"#utility.yul\":7175:7195   */\n      shl\n        /* \"#utility.yul\":7172:7173   */\n      0x00\n        /* \"#utility.yul\":7165:7196   */\n      mstore\n        /* \"#utility.yul\":7215:7219   */\n      0x11\n        /* \"#utility.yul\":7212:7213   */\n      0x04\n        /* \"#utility.yul\":7205:7220   */\n      mstore\n        /* \"#utility.yul\":7239:7243   */\n      0x24\n        /* \"#utility.yul\":7236:7237   */\n      0x00\n        /* \"#utility.yul\":7229:7244   */\n      revert\n        /* \"#utility.yul\":7255:7456   */\n    tag_232:\n        /* \"#utility.yul\":7293:7296   */\n      0x00\n        /* \"#utility.yul\":7321:7331   */\n      0xffffffff\n        /* \"#utility.yul\":7366:7368   */\n      dup1\n        /* \"#utility.yul\":7359:7364   */\n      dup4\n        /* \"#utility.yul\":7355:7369   */\n      and\n        /* \"#utility.yul\":7393:7395   */\n      dup2\n        /* \"#utility.yul\":7384:7391   */\n      dup2\n        /* \"#utility.yul\":7381:7396   */\n      sub\n        /* \"#utility.yul\":7378:7419   */\n      tag_341\n      jumpi\n        /* \"#utility.yul\":7399:7417   */\n      tag_341\n      tag_305\n      jump\t// in\n    tag_341:\n        /* \"#utility.yul\":7448:7449   */\n      0x01\n        /* \"#utility.yul\":7435:7450   */\n      add\n      swap4\n        /* \"#utility.yul\":7255:7456   */\n      swap3\n      pop\n      pop\n      pop\n      jump\t// out\n        /* \"#utility.yul\":7461:7678   */\n    tag_238:\n        /* \"#utility.yul\":7501:7502   */\n      0x00\n        /* \"#utility.yul\":7527:7528   */\n      dup3\n        /* \"#utility.yul\":7517:7649   */\n      tag_343\n      jumpi\n        /* \"#utility.yul\":7571:7581   */\n      0x4e487b71\n        /* \"#utility.yul\":7566:7569   */\n      0xe0\n        /* \"#utility.yul\":7562:7582   */\n      shl\n        /* \"#utility.yul\":7559:7560   */\n      0x00\n        /* \"#utility.yul\":7552:7583   */\n      mstore\n        /* \"#utility.yul\":7606:7610   */\n      0x12\n        /* \"#utility.yul\":7603:7604   */\n      0x04\n        /* \"#utility.yul\":7596:7611   */\n      mstore\n        /* \"#utility.yul\":7634:7638   */\n      0x24\n        /* \"#utility.yul\":7631:7632   */\n      0x00\n        /* \"#utility.yul\":7624:7639   */\n      revert\n        /* \"#utility.yul\":7517:7649   */\n    tag_343:\n      pop\n        /* \"#utility.yul\":7663:7672   */\n      div\n      swap1\n        /* \"#utility.yul\":7461:7678   */\n      jump\t// out\n        /* \"#utility.yul\":7683:7851   */\n    tag_240:\n        /* \"#utility.yul\":7723:7730   */\n      0x00\n        /* \"#utility.yul\":7789:7790   */\n      dup2\n        /* \"#utility.yul\":7785:7786   */\n      0x00\n        /* \"#utility.yul\":7781:7787   */\n      not\n        /* \"#utility.yul\":7777:7791   */\n      div\n        /* \"#utility.yul\":7774:7775   */\n      dup4\n        /* \"#utility.yul\":7771:7792   */\n      gt\n        /* \"#utility.yul\":7766:7767   */\n      dup3\n        /* \"#utility.yul\":7759:7768   */\n      iszero\n        /* \"#utility.yul\":7752:7769   */\n      iszero\n        /* \"#utility.yul\":7748:7793   */\n      and\n        /* \"#utility.yul\":7745:7816   */\n      iszero\n      tag_346\n      jumpi\n        /* \"#utility.yul\":7796:7814   */\n      tag_346\n      tag_305\n      jump\t// in\n    tag_346:\n      pop\n        /* \"#utility.yul\":7836:7845   */\n      mul\n      swap1\n        /* \"#utility.yul\":7683:7851   */\n      jump\t// out\n        /* \"#utility.yul\":9209:9393   */\n    tag_272:\n        /* \"#utility.yul\":9279:9285   */\n      0x00\n        /* \"#utility.yul\":9332:9334   */\n      0x20\n        /* \"#utility.yul\":9320:9329   */\n      dup3\n        /* \"#utility.yul\":9311:9318   */\n      dup5\n        /* \"#utility.yul\":9307:9330   */\n      sub\n        /* \"#utility.yul\":9303:9335   */\n      slt\n        /* \"#utility.yul\":9300:9352   */\n      iszero\n      tag_352\n      jumpi\n        /* \"#utility.yul\":9348:9349   */\n      0x00\n        /* \"#utility.yul\":9345:9346   */\n      dup1\n        /* \"#utility.yul\":9338:9350   */\n      revert\n        /* \"#utility.yul\":9300:9352   */\n    tag_352:\n      pop\n        /* \"#utility.yul\":9371:9387   */\n      mload\n      swap2\n        /* \"#utility.yul\":9209:9393   */\n      swap1\n      pop\n      jump\t// out\n\n    auxdata: 0xa2646970667358221220fb83e0d4d1c427226db8a0d11a112aaabae66f45e80540a3e9d6f4f5fafe56cb64736f6c634300080d0033\n}\n",
				"bytecode": {
					"linkReferences": {},
					"object": "60c0604052600180546001600160a01b031990811673eda5da0050e21e9e34fadb1075986af1370c7bdb1790915560028054821673b0bc99bdb71a4320a9ad357f68ebfbe6ffebfc8a1790556003805490911673e3e90697218f31b8d0867b8a9c52947d3c888339179055670de0b6b3a764000060045568f3f20b8dfa69d000006005556956bc75e2d63100000000600655600780546c0a00000000000000000000000063ffffffff60601b19909116179055348015620000bf57600080fd5b506040516200176738038062001767833981016040819052620000e2916200025b565b620000ed33620001ee565b42826001600160401b031610156200013d5760405162461bcd60e51b815260206004820152600e60248201526d7374617274206174203c206e6f7760901b60448201526064015b60405180910390fd5b816001600160401b0316816001600160401b03161015620001955760405162461bcd60e51b8152602060048201526011602482015270195b9908185d080f081cdd185c9d08185d607a1b604482015260640162000134565b600780546001600160801b0316600160801b6001600160401b03948516026001600160c01b031617600160c01b92909316919091029190911790556001546001600160a01b039081166080526002541660a05262000293565b600080546001600160a01b038381166001600160a01b0319831681178455604051919092169283917f8be0079c531659141344cd1fd0a4f28419497f9722a3daafe3b4186f6b6457e09190a35050565b80516001600160401b03811681146200025657600080fd5b919050565b600080604083850312156200026f57600080fd5b6200027a836200023e565b91506200028a602084016200023e565b90509250929050565b60805160a05161148b620002dc600039600081816104280152818161066b015281816107930152610d5601526000818161047201528181610fb501526110a4015261148b6000f3fe608060405234801561001057600080fd5b50600436106101f05760003560e01c806390f5881a1161010f578063c828371e116100a2578063d35cde4111610071578063d35cde4114610548578063f01fc57c14610550578063f2fde38b1461055e578063fae926121461057157600080fd5b8063c828371e146104f3578063c9ede7931461050c578063d0febe4c14610514578063d139f56d1461051c57600080fd5b8063a98ad46c116100de578063a98ad46c1461046d578063a98b914414610494578063b9f9231a146104b4578063c556feca146104c757600080fd5b806390f5881a146103f057806395623641146104105780639769f0b0146104235780639e2a04181461044a57600080fd5b80636531e61c116101875780638568f4ce116101565780638568f4ce1461039057806388af60c6146103b95780638da5cb5b146103cc5780639018c818146103dd57600080fd5b80636531e61c146103375780636de34ce01461034a578063715018a61461037657806378eb6c6f1461037e57600080fd5b8063304d8dea116101c3578063304d8dea146102b7578063374eedef146102bf5780633d719da7146102fb578063439f5ac21461031e57600080fd5b8063027734fa146101f557806303d7424d146102255780631eb43f1a14610250578063271f88b4146102a2575b600080fd5b600254610208906001600160a01b031681565b6040516001600160a01b0390911681526020015b60405180910390f35b600754640100000000900463ffffffff165b60405167ffffffffffffffff909116815260200161021c565b61028361025e3660046112a6565b600860205260009081526040902080546002909101546001600160a01b039091169082565b604080516001600160a01b03909316835260208301919091520161021c565b6102b56102b03660046112d6565b610584565b005b6102b56105bc565b6102eb6102cd3660046112a6565b6001600160a01b03166000908152600b602052604090205460ff1690565b604051901515815260200161021c565b6102eb6103093660046112a6565b600b6020526000908152604090205460ff1681565b600754600160c01b900467ffffffffffffffff16610237565b6102b56103453660046112d6565b61074a565b60075461036190600160401b900463ffffffff1681565b60405163ffffffff909116815260200161021c565b6102b561082b565b6005545b60405190815260200161021c565b61038261039e3660046112a6565b6001600160a01b031660009081526009602052604090205490565b600154610208906001600160a01b031681565b6000546001600160a01b0316610208565b6102eb6103eb3660046112a6565b610861565b6103826103fe3660046112a6565b60096020526000908152604090205481565b600354610208906001600160a01b031681565b6102087f000000000000000000000000000000000000000000000000000000000000000081565b6102eb6104583660046112a6565b600a6020526000908152604090205460ff1681565b6102087f000000000000000000000000000000000000000000000000000000000000000081565b6104a76104a23660046112a6565b610bc2565b60405161021c91906112ef565b6103826104c23660046112a6565b610c3b565b6103826104d53660046112a6565b6001600160a01b031660009081526008602052604090206001015490565b600754600160801b900467ffffffffffffffff16610237565b6102b5610c84565b6102b5610e3a565b61020861052a3660046112a6565b6001600160a01b039081166000908152600860205260409020541690565b600454610382565b60075463ffffffff16610237565b6102b561056c3660046112a6565b61116f565b6102b561057f3660046112a6565b61120a565b6000546001600160a01b031633146105b75760405162461bcd60e51b81526004016105ae9061133c565b60405180910390fd5b600455565b60075442600160c01b90910467ffffffffffffffff16106106115760405162461bcd60e51b815260206004820152600f60248201526e1c1c995cd95b1b081b9bdd08195b99608a1b60448201526064016105ae565b336000908152600a602052604090205460ff1615156001146106675760405162461bcd60e51b815260206004820152600f60248201526e75736572206e6f7420696e7669746560881b60448201526064016105ae565b60007f00000000000000000000000000000000000000000000000000000000000000006001600160a01b031663a9059cbb336106a233610c3b565b6040516001600160e01b031960e085901b1681526001600160a01b03909216600483015260248201526044016020604051808303816000875af11580156106ed573d6000803e3d6000fd5b505050506040513d601f19601f820116820180604052508101906107119190611371565b9050806107305760405162461bcd60e51b81526004016105ae90611393565b50336000908152600a60205260409020805460ff19169055565b6000546001600160a01b031633146107745760405162461bcd60e51b81526004016105ae9061133c565b60405163a9059cbb60e01b8152336004820152602481018290526000907f00000000000000000000000000000000000000000000000000000000000000006001600160a01b03169063a9059cbb906044016020604051808303816000875af11580156107e4573d6000803e3d6000fd5b505050506040513d601f19601f820116820180604052508101906108089190611371565b9050806108275760405162461bcd60e51b81526004016105ae90611393565b5050565b6000546001600160a01b031633146108555760405162461bcd60e51b81526004016105ae9061133c565b61085f6000611256565b565b60075460009042600160801b90910467ffffffffffffffff16106108b35760405162461bcd60e51b81526020600482015260096024820152681b9bdd081cdd185c9d60ba1b60448201526064016105ae565b60075442600160c01b90910467ffffffffffffffff16116109005760405162461bcd60e51b81526020600482015260076024820152661a185cc8195b9960ca1b60448201526064016105ae565b6001600160a01b0382166000908152600b602052604090205460ff1661095c5760405162461bcd60e51b81526020600482015260116024820152704265653a7570706572206e6f742062757960781b60448201526064016105ae565b336000908152600b602052604090205460ff166109ae5760405162461bcd60e51b815260206004820152601060248201526f4265653a75736572206e6f742062757960801b60448201526064016105ae565b6001600160a01b03821633036109f65760405162461bcd60e51b815260206004820152600d60248201526c2132b29d2327a92124a22222a760991b60448201526064016105ae565b336000818152600860205260408082206001600160a01b0386811684529190922080549293909290911603610a785760405162461bcd60e51b815260206004820152602260248201527f54686520696e76697465722069732061206c6f77657220746f2074686520757360448201526132b960f11b60648201526084016105ae565b81546001600160a01b03808616911603610aca5760405162461bcd60e51b81526020600482015260136024820152722932b832b0ba32b21034b73b34ba30ba34b7b760691b60448201526064016105ae565b81546001600160a01b031615610b195760405162461bcd60e51b815260206004820152601460248201527320b63932b0b23c903430bb329030903ab83832b960611b60448201526064016105ae565b81546001600160a01b0385166001600160a01b0319918216811784554360028086018290558401556001838101805480830182556000918252602080832090910180549095163317909455918252600a90925260409020805460ff1916909117905560078054600890610b999063ffffffff600160401b909104166113d8565b91906101000a81548163ffffffff021916908363ffffffff160217905550600192505050919050565b6001600160a01b038116600090815260086020908152604091829020600101805483518184028101840190945280845260609392830182828015610c2f57602002820191906000526020600020905b81546001600160a01b03168152600190910190602001808311610c11575b50505050509050919050565b6001600160a01b038116600090815260086020526040812060010154600754600654610c7491600160401b900463ffffffff16906113fb565b610c7e919061141d565b92915050565b60075442600160c01b90910467ffffffffffffffff1610610cd95760405162461bcd60e51b815260206004820152600f60248201526e1c1c995cd95b1b081b9bdd08195b99608a1b60448201526064016105ae565b33600090815260096020526040902054610d295760405162461bcd60e51b8152602060048201526011602482015270757365722062616c616e6365207a65726f60781b60448201526064016105ae565b3360008181526009602052604080822054905163a9059cbb60e01b815260048101939093526024830152907f00000000000000000000000000000000000000000000000000000000000000006001600160a01b03169063a9059cbb906044016020604051808303816000875af1158015610da7573d6000803e3d6000fd5b505050506040513d601f19601f82011682018060405250810190610dcb9190611371565b905080610dea5760405162461bcd60e51b81526004016105ae90611393565b3360009081526009602052604081205560078054640100000000900463ffffffff16906004610e18836113d8565b91906101000a81548163ffffffff021916908363ffffffff1602179055505050565b60075442600160801b90910467ffffffffffffffff1610610e895760405162461bcd60e51b81526020600482015260096024820152681b9bdd081cdd185c9d60ba1b60448201526064016105ae565b60075442600160c01b90910467ffffffffffffffff1611610ed65760405162461bcd60e51b81526020600482015260076024820152661a185cc8195b9960ca1b60448201526064016105ae565b60075463ffffffff600160601b8204811691161115610f375760405162461bcd60e51b815260206004820152601760248201527f5072652d6f72646572732061726520736f6c64206f757400000000000000000060448201526064016105ae565b336000908152600b602052604090205460ff1615610f8b5760405162461bcd60e51b8152602060048201526011602482015270185b1c9958591e481c1d5c98da185cd959607a1b60448201526064016105ae565b60048054604051636eb1769f60e11b81523392810192909252306024830152906001600160a01b037f0000000000000000000000000000000000000000000000000000000000000000169063dd62ed3e90604401602060405180830381865afa158015610ffc573d6000803e3d6000fd5b505050506040513d601f19601f82011682018060405250810190611020919061143c565b101561106e5760405162461bcd60e51b815260206004820152601b60248201527f75736474546f6b656e20616c6c6f77616e636520746f6f206c6f77000000000060448201526064016105ae565b600354600480546040516323b872dd60e01b815233928101929092526001600160a01b03928316602483015260448201526000917f000000000000000000000000000000000000000000000000000000000000000016906323b872dd906064016020604051808303816000875af11580156110ed573d6000803e3d6000fd5b505050506040513d601f19601f820116820180604052508101906111119190611371565b9050806111305760405162461bcd60e51b81526004016105ae90611393565b60055433600090815260096020908152604080832093909355600b9052908120805460ff191660011790556007805463ffffffff1691610e18836113d8565b6000546001600160a01b031633146111995760405162461bcd60e51b81526004016105ae9061133c565b6001600160a01b0381166111fe5760405162461bcd60e51b815260206004820152602660248201527f4f776e61626c653a206e6577206f776e657220697320746865207a65726f206160448201526564647265737360d01b60648201526084016105ae565b61120781611256565b50565b6000546001600160a01b031633146112345760405162461bcd60e51b81526004016105ae9061133c565b600380546001600160a01b0319166001600160a01b0392909216919091179055565b600080546001600160a01b038381166001600160a01b0319831681178455604051919092169283917f8be0079c531659141344cd1fd0a4f28419497f9722a3daafe3b4186f6b6457e09190a35050565b6000602082840312156112b857600080fd5b81356001600160a01b03811681146112cf57600080fd5b9392505050565b6000602082840312156112e857600080fd5b5035919050565b6020808252825182820181905260009190848201906040850190845b818110156113305783516001600160a01b03168352928401929184019160010161130b565b50909695505050505050565b6020808252818101527f4f776e61626c653a2063616c6c6572206973206e6f7420746865206f776e6572604082015260600190565b60006020828403121561138357600080fd5b815180151581146112cf57600080fd5b602080825260159082015274151bdad95b881d1c985b9cd9995c8819985a5b1959605a1b604082015260600190565b634e487b7160e01b600052601160045260246000fd5b600063ffffffff8083168181036113f1576113f16113c2565b6001019392505050565b60008261141857634e487b7160e01b600052601260045260246000fd5b500490565b6000816000190483118215151615611437576114376113c2565b500290565b60006020828403121561144e57600080fd5b505191905056fea2646970667358221220fb83e0d4d1c427226db8a0d11a112aaabae66f45e80540a3e9d6f4f5fafe56cb64736f6c634300080d0033",
					"opcodes": "PUSH1 0xC0 PUSH1 0x40 MSTORE PUSH1 0x1 DUP1 SLOAD PUSH1 0x1 PUSH1 0x1 PUSH1 0xA0 SHL SUB NOT SWAP1 DUP2 AND PUSH20 0xEDA5DA0050E21E9E34FADB1075986AF1370C7BDB OR SWAP1 SWAP2 SSTORE PUSH1 0x2 DUP1 SLOAD DUP3 AND PUSH20 0xB0BC99BDB71A4320A9AD357F68EBFBE6FFEBFC8A OR SWAP1 SSTORE PUSH1 0x3 DUP1 SLOAD SWAP1 SWAP2 AND PUSH20 0xE3E90697218F31B8D0867B8A9C52947D3C888339 OR SWAP1 SSTORE PUSH8 0xDE0B6B3A7640000 PUSH1 0x4 SSTORE PUSH9 0xF3F20B8DFA69D00000 PUSH1 0x5 SSTORE PUSH10 0x56BC75E2D63100000000 PUSH1 0x6 SSTORE PUSH1 0x7 DUP1 SLOAD PUSH13 0xA000000000000000000000000 PUSH4 0xFFFFFFFF PUSH1 0x60 SHL NOT SWAP1 SWAP2 AND OR SWAP1 SSTORE CALLVALUE DUP1 ISZERO PUSH3 0xBF JUMPI PUSH1 0x0 DUP1 REVERT JUMPDEST POP PUSH1 0x40 MLOAD PUSH3 0x1767 CODESIZE SUB DUP1 PUSH3 0x1767 DUP4 CODECOPY DUP2 ADD PUSH1 0x40 DUP2 SWAP1 MSTORE PUSH3 0xE2 SWAP2 PUSH3 0x25B JUMP JUMPDEST PUSH3 0xED CALLER PUSH3 0x1EE JUMP JUMPDEST TIMESTAMP DUP3 PUSH1 0x1 PUSH1 0x1 PUSH1 0x40 SHL SUB AND LT ISZERO PUSH3 0x13D JUMPI PUSH1 0x40 MLOAD PUSH3 0x461BCD PUSH1 0xE5 SHL DUP2 MSTORE PUSH1 0x20 PUSH1 0x4 DUP3 ADD MSTORE PUSH1 0xE PUSH1 0x24 DUP3 ADD MSTORE PUSH14 0x7374617274206174203C206E6F77 PUSH1 0x90 SHL PUSH1 0x44 DUP3 ADD MSTORE PUSH1 0x64 ADD JUMPDEST PUSH1 0x40 MLOAD DUP1 SWAP2 SUB SWAP1 REVERT JUMPDEST DUP2 PUSH1 0x1 PUSH1 0x1 PUSH1 0x40 SHL SUB AND DUP2 PUSH1 0x1 PUSH1 0x1 PUSH1 0x40 SHL SUB AND LT ISZERO PUSH3 0x195 JUMPI PUSH1 0x40 MLOAD PUSH3 0x461BCD PUSH1 0xE5 SHL DUP2 MSTORE PUSH1 0x20 PUSH1 0x4 DUP3 ADD MSTORE PUSH1 0x11 PUSH1 0x24 DUP3 ADD MSTORE PUSH17 0x195B9908185D080F081CDD185C9D08185D PUSH1 0x7A SHL PUSH1 0x44 DUP3 ADD MSTORE PUSH1 0x64 ADD PUSH3 0x134 JUMP JUMPDEST PUSH1 0x7 DUP1 SLOAD PUSH1 0x1 PUSH1 0x1 PUSH1 0x80 SHL SUB AND PUSH1 0x1 PUSH1 0x80 SHL PUSH1 0x1 PUSH1 0x1 PUSH1 0x40 SHL SUB SWAP5 DUP6 AND MUL PUSH1 0x1 PUSH1 0x1 PUSH1 0xC0 SHL SUB AND OR PUSH1 0x1 PUSH1 0xC0 SHL SWAP3 SWAP1 SWAP4 AND SWAP2 SWAP1 SWAP2 MUL SWAP2 SWAP1 SWAP2 OR SWAP1 SSTORE PUSH1 0x1 SLOAD PUSH1 0x1 PUSH1 0x1 PUSH1 0xA0 SHL SUB SWAP1 DUP2 AND PUSH1 0x80 MSTORE PUSH1 0x2 SLOAD AND PUSH1 0xA0 MSTORE PUSH3 0x293 JUMP JUMPDEST PUSH1 0x0 DUP1 SLOAD PUSH1 0x1 PUSH1 0x1 PUSH1 0xA0 SHL SUB DUP4 DUP2 AND PUSH1 0x1 PUSH1 0x1 PUSH1 0xA0 SHL SUB NOT DUP4 AND DUP2 OR DUP5 SSTORE PUSH1 0x40 MLOAD SWAP2 SWAP1 SWAP3 AND SWAP3 DUP4 SWAP2 PUSH32 0x8BE0079C531659141344CD1FD0A4F28419497F9722A3DAAFE3B4186F6B6457E0 SWAP2 SWAP1 LOG3 POP POP JUMP JUMPDEST DUP1 MLOAD PUSH1 0x1 PUSH1 0x1 PUSH1 0x40 SHL SUB DUP2 AND DUP2 EQ PUSH3 0x256 JUMPI PUSH1 0x0 DUP1 REVERT JUMPDEST SWAP2 SWAP1 POP JUMP JUMPDEST PUSH1 0x0 DUP1 PUSH1 0x40 DUP4 DUP6 SUB SLT ISZERO PUSH3 0x26F JUMPI PUSH1 0x0 DUP1 REVERT JUMPDEST PUSH3 0x27A DUP4 PUSH3 0x23E JUMP JUMPDEST SWAP2 POP PUSH3 0x28A PUSH1 0x20 DUP5 ADD PUSH3 0x23E JUMP JUMPDEST SWAP1 POP SWAP3 POP SWAP3 SWAP1 POP JUMP JUMPDEST PUSH1 0x80 MLOAD PUSH1 0xA0 MLOAD PUSH2 0x148B PUSH3 0x2DC PUSH1 0x0 CODECOPY PUSH1 0x0 DUP2 DUP2 PUSH2 0x428 ADD MSTORE DUP2 DUP2 PUSH2 0x66B ADD MSTORE DUP2 DUP2 PUSH2 0x793 ADD MSTORE PUSH2 0xD56 ADD MSTORE PUSH1 0x0 DUP2 DUP2 PUSH2 0x472 ADD MSTORE DUP2 DUP2 PUSH2 0xFB5 ADD MSTORE PUSH2 0x10A4 ADD MSTORE PUSH2 0x148B PUSH1 0x0 RETURN INVALID PUSH1 0x80 PUSH1 0x40 MSTORE CALLVALUE DUP1 ISZERO PUSH2 0x10 JUMPI PUSH1 0x0 DUP1 REVERT JUMPDEST POP PUSH1 0x4 CALLDATASIZE LT PUSH2 0x1F0 JUMPI PUSH1 0x0 CALLDATALOAD PUSH1 0xE0 SHR DUP1 PUSH4 0x90F5881A GT PUSH2 0x10F JUMPI DUP1 PUSH4 0xC828371E GT PUSH2 0xA2 JUMPI DUP1 PUSH4 0xD35CDE41 GT PUSH2 0x71 JUMPI DUP1 PUSH4 0xD35CDE41 EQ PUSH2 0x548 JUMPI DUP1 PUSH4 0xF01FC57C EQ PUSH2 0x550 JUMPI DUP1 PUSH4 0xF2FDE38B EQ PUSH2 0x55E JUMPI DUP1 PUSH4 0xFAE92612 EQ PUSH2 0x571 JUMPI PUSH1 0x0 DUP1 REVERT JUMPDEST DUP1 PUSH4 0xC828371E EQ PUSH2 0x4F3 JUMPI DUP1 PUSH4 0xC9EDE793 EQ PUSH2 0x50C JUMPI DUP1 PUSH4 0xD0FEBE4C EQ PUSH2 0x514 JUMPI DUP1 PUSH4 0xD139F56D EQ PUSH2 0x51C JUMPI PUSH1 0x0 DUP1 REVERT JUMPDEST DUP1 PUSH4 0xA98AD46C GT PUSH2 0xDE JUMPI DUP1 PUSH4 0xA98AD46C EQ PUSH2 0x46D JUMPI DUP1 PUSH4 0xA98B9144 EQ PUSH2 0x494 JUMPI DUP1 PUSH4 0xB9F9231A EQ PUSH2 0x4B4 JUMPI DUP1 PUSH4 0xC556FECA EQ PUSH2 0x4C7 JUMPI PUSH1 0x0 DUP1 REVERT JUMPDEST DUP1 PUSH4 0x90F5881A EQ PUSH2 0x3F0 JUMPI DUP1 PUSH4 0x95623641 EQ PUSH2 0x410 JUMPI DUP1 PUSH4 0x9769F0B0 EQ PUSH2 0x423 JUMPI DUP1 PUSH4 0x9E2A0418 EQ PUSH2 0x44A JUMPI PUSH1 0x0 DUP1 REVERT JUMPDEST DUP1 PUSH4 0x6531E61C GT PUSH2 0x187 JUMPI DUP1 PUSH4 0x8568F4CE GT PUSH2 0x156 JUMPI DUP1 PUSH4 0x8568F4CE EQ PUSH2 0x390 JUMPI DUP1 PUSH4 0x88AF60C6 EQ PUSH2 0x3B9 JUMPI DUP1 PUSH4 0x8DA5CB5B EQ PUSH2 0x3CC JUMPI DUP1 PUSH4 0x9018C818 EQ PUSH2 0x3DD JUMPI PUSH1 0x0 DUP1 REVERT JUMPDEST DUP1 PUSH4 0x6531E61C EQ PUSH2 0x337 JUMPI DUP1 PUSH4 0x6DE34CE0 EQ PUSH2 0x34A JUMPI DUP1 PUSH4 0x715018A6 EQ PUSH2 0x376 JUMPI DUP1 PUSH4 0x78EB6C6F EQ PUSH2 0x37E JUMPI PUSH1 0x0 DUP1 REVERT JUMPDEST DUP1 PUSH4 0x304D8DEA GT PUSH2 0x1C3 JUMPI DUP1 PUSH4 0x304D8DEA EQ PUSH2 0x2B7 JUMPI DUP1 PUSH4 0x374EEDEF EQ PUSH2 0x2BF JUMPI DUP1 PUSH4 0x3D719DA7 EQ PUSH2 0x2FB JUMPI DUP1 PUSH4 0x439F5AC2 EQ PUSH2 0x31E JUMPI PUSH1 0x0 DUP1 REVERT JUMPDEST DUP1 PUSH4 0x27734FA EQ PUSH2 0x1F5 JUMPI DUP1 PUSH4 0x3D7424D EQ PUSH2 0x225 JUMPI DUP1 PUSH4 0x1EB43F1A EQ PUSH2 0x250 JUMPI DUP1 PUSH4 0x271F88B4 EQ PUSH2 0x2A2 JUMPI JUMPDEST PUSH1 0x0 DUP1 REVERT JUMPDEST PUSH1 0x2 SLOAD PUSH2 0x208 SWAP1 PUSH1 0x1 PUSH1 0x1 PUSH1 0xA0 SHL SUB AND DUP2 JUMP JUMPDEST PUSH1 0x40 MLOAD PUSH1 0x1 PUSH1 0x1 PUSH1 0xA0 SHL SUB SWAP1 SWAP2 AND DUP2 MSTORE PUSH1 0x20 ADD JUMPDEST PUSH1 0x40 MLOAD DUP1 SWAP2 SUB SWAP1 RETURN JUMPDEST PUSH1 0x7 SLOAD PUSH5 0x100000000 SWAP1 DIV PUSH4 0xFFFFFFFF AND JUMPDEST PUSH1 0x40 MLOAD PUSH8 0xFFFFFFFFFFFFFFFF SWAP1 SWAP2 AND DUP2 MSTORE PUSH1 0x20 ADD PUSH2 0x21C JUMP JUMPDEST PUSH2 0x283 PUSH2 0x25E CALLDATASIZE PUSH1 0x4 PUSH2 0x12A6 JUMP JUMPDEST PUSH1 0x8 PUSH1 0x20 MSTORE PUSH1 0x0 SWAP1 DUP2 MSTORE PUSH1 0x40 SWAP1 KECCAK256 DUP1 SLOAD PUSH1 0x2 SWAP1 SWAP2 ADD SLOAD PUSH1 0x1 PUSH1 0x1 PUSH1 0xA0 SHL SUB SWAP1 SWAP2 AND SWAP1 DUP3 JUMP JUMPDEST PUSH1 0x40 DUP1 MLOAD PUSH1 0x1 PUSH1 0x1 PUSH1 0xA0 SHL SUB SWAP1 SWAP4 AND DUP4 MSTORE PUSH1 0x20 DUP4 ADD SWAP2 SWAP1 SWAP2 MSTORE ADD PUSH2 0x21C JUMP JUMPDEST PUSH2 0x2B5 PUSH2 0x2B0 CALLDATASIZE PUSH1 0x4 PUSH2 0x12D6 JUMP JUMPDEST PUSH2 0x584 JUMP JUMPDEST STOP JUMPDEST PUSH2 0x2B5 PUSH2 0x5BC JUMP JUMPDEST PUSH2 0x2EB PUSH2 0x2CD CALLDATASIZE PUSH1 0x4 PUSH2 0x12A6 JUMP JUMPDEST PUSH1 0x1 PUSH1 0x1 PUSH1 0xA0 SHL SUB AND PUSH1 0x0 SWAP1 DUP2 MSTORE PUSH1 0xB PUSH1 0x20 MSTORE PUSH1 0x40 SWAP1 KECCAK256 SLOAD PUSH1 0xFF AND SWAP1 JUMP JUMPDEST PUSH1 0x40 MLOAD SWAP1 ISZERO ISZERO DUP2 MSTORE PUSH1 0x20 ADD PUSH2 0x21C JUMP JUMPDEST PUSH2 0x2EB PUSH2 0x309 CALLDATASIZE PUSH1 0x4 PUSH2 0x12A6 JUMP JUMPDEST PUSH1 0xB PUSH1 0x20 MSTORE PUSH1 0x0 SWAP1 DUP2 MSTORE PUSH1 0x40 SWAP1 KECCAK256 SLOAD PUSH1 0xFF AND DUP2 JUMP JUMPDEST PUSH1 0x7 SLOAD PUSH1 0x1 PUSH1 0xC0 SHL SWAP1 DIV PUSH8 0xFFFFFFFFFFFFFFFF AND PUSH2 0x237 JUMP JUMPDEST PUSH2 0x2B5 PUSH2 0x345 CALLDATASIZE PUSH1 0x4 PUSH2 0x12D6 JUMP JUMPDEST PUSH2 0x74A JUMP JUMPDEST PUSH1 0x7 SLOAD PUSH2 0x361 SWAP1 PUSH1 0x1 PUSH1 0x40 SHL SWAP1 DIV PUSH4 0xFFFFFFFF AND DUP2 JUMP JUMPDEST PUSH1 0x40 MLOAD PUSH4 0xFFFFFFFF SWAP1 SWAP2 AND DUP2 MSTORE PUSH1 0x20 ADD PUSH2 0x21C JUMP JUMPDEST PUSH2 0x2B5 PUSH2 0x82B JUMP JUMPDEST PUSH1 0x5 SLOAD JUMPDEST PUSH1 0x40 MLOAD SWAP1 DUP2 MSTORE PUSH1 0x20 ADD PUSH2 0x21C JUMP JUMPDEST PUSH2 0x382 PUSH2 0x39E CALLDATASIZE PUSH1 0x4 PUSH2 0x12A6 JUMP JUMPDEST PUSH1 0x1 PUSH1 0x1 PUSH1 0xA0 SHL SUB AND PUSH1 0x0 SWAP1 DUP2 MSTORE PUSH1 0x9 PUSH1 0x20 MSTORE PUSH1 0x40 SWAP1 KECCAK256 SLOAD SWAP1 JUMP JUMPDEST PUSH1 0x1 SLOAD PUSH2 0x208 SWAP1 PUSH1 0x1 PUSH1 0x1 PUSH1 0xA0 SHL SUB AND DUP2 JUMP JUMPDEST PUSH1 0x0 SLOAD PUSH1 0x1 PUSH1 0x1 PUSH1 0xA0 SHL SUB AND PUSH2 0x208 JUMP JUMPDEST PUSH2 0x2EB PUSH2 0x3EB CALLDATASIZE PUSH1 0x4 PUSH2 0x12A6 JUMP JUMPDEST PUSH2 0x861 JUMP JUMPDEST PUSH2 0x382 PUSH2 0x3FE CALLDATASIZE PUSH1 0x4 PUSH2 0x12A6 JUMP JUMPDEST PUSH1 0x9 PUSH1 0x20 MSTORE PUSH1 0x0 SWAP1 DUP2 MSTORE PUSH1 0x40 SWAP1 KECCAK256 SLOAD DUP2 JUMP JUMPDEST PUSH1 0x3 SLOAD PUSH2 0x208 SWAP1 PUSH1 0x1 PUSH1 0x1 PUSH1 0xA0 SHL SUB AND DUP2 JUMP JUMPDEST PUSH2 0x208 PUSH32 0x0 DUP2 JUMP JUMPDEST PUSH2 0x2EB PUSH2 0x458 CALLDATASIZE PUSH1 0x4 PUSH2 0x12A6 JUMP JUMPDEST PUSH1 0xA PUSH1 0x20 MSTORE PUSH1 0x0 SWAP1 DUP2 MSTORE PUSH1 0x40 SWAP1 KECCAK256 SLOAD PUSH1 0xFF AND DUP2 JUMP JUMPDEST PUSH2 0x208 PUSH32 0x0 DUP2 JUMP JUMPDEST PUSH2 0x4A7 PUSH2 0x4A2 CALLDATASIZE PUSH1 0x4 PUSH2 0x12A6 JUMP JUMPDEST PUSH2 0xBC2 JUMP JUMPDEST PUSH1 0x40 MLOAD PUSH2 0x21C SWAP2 SWAP1 PUSH2 0x12EF JUMP JUMPDEST PUSH2 0x382 PUSH2 0x4C2 CALLDATASIZE PUSH1 0x4 PUSH2 0x12A6 JUMP JUMPDEST PUSH2 0xC3B JUMP JUMPDEST PUSH2 0x382 PUSH2 0x4D5 CALLDATASIZE PUSH1 0x4 PUSH2 0x12A6 JUMP JUMPDEST PUSH1 0x1 PUSH1 0x1 PUSH1 0xA0 SHL SUB AND PUSH1 0x0 SWAP1 DUP2 MSTORE PUSH1 0x8 PUSH1 0x20 MSTORE PUSH1 0x40 SWAP1 KECCAK256 PUSH1 0x1 ADD SLOAD SWAP1 JUMP JUMPDEST PUSH1 0x7 SLOAD PUSH1 0x1 PUSH1 0x80 SHL SWAP1 DIV PUSH8 0xFFFFFFFFFFFFFFFF AND PUSH2 0x237 JUMP JUMPDEST PUSH2 0x2B5 PUSH2 0xC84 JUMP JUMPDEST PUSH2 0x2B5 PUSH2 0xE3A JUMP JUMPDEST PUSH2 0x208 PUSH2 0x52A CALLDATASIZE PUSH1 0x4 PUSH2 0x12A6 JUMP JUMPDEST PUSH1 0x1 PUSH1 0x1 PUSH1 0xA0 SHL SUB SWAP1 DUP2 AND PUSH1 0x0 SWAP1 DUP2 MSTORE PUSH1 0x8 PUSH1 0x20 MSTORE PUSH1 0x40 SWAP1 KECCAK256 SLOAD AND SWAP1 JUMP JUMPDEST PUSH1 0x4 SLOAD PUSH2 0x382 JUMP JUMPDEST PUSH1 0x7 SLOAD PUSH4 0xFFFFFFFF AND PUSH2 0x237 JUMP JUMPDEST PUSH2 0x2B5 PUSH2 0x56C CALLDATASIZE PUSH1 0x4 PUSH2 0x12A6 JUMP JUMPDEST PUSH2 0x116F JUMP JUMPDEST PUSH2 0x2B5 PUSH2 0x57F CALLDATASIZE PUSH1 0x4 PUSH2 0x12A6 JUMP JUMPDEST PUSH2 0x120A JUMP JUMPDEST PUSH1 0x0 SLOAD PUSH1 0x1 PUSH1 0x1 PUSH1 0xA0 SHL SUB AND CALLER EQ PUSH2 0x5B7 JUMPI PUSH1 0x40 MLOAD PUSH3 0x461BCD PUSH1 0xE5 SHL DUP2 MSTORE PUSH1 0x4 ADD PUSH2 0x5AE SWAP1 PUSH2 0x133C JUMP JUMPDEST PUSH1 0x40 MLOAD DUP1 SWAP2 SUB SWAP1 REVERT JUMPDEST PUSH1 0x4 SSTORE JUMP JUMPDEST PUSH1 0x7 SLOAD TIMESTAMP PUSH1 0x1 PUSH1 0xC0 SHL SWAP1 SWAP2 DIV PUSH8 0xFFFFFFFFFFFFFFFF AND LT PUSH2 0x611 JUMPI PUSH1 0x40 MLOAD PUSH3 0x461BCD PUSH1 0xE5 SHL DUP2 MSTORE PUSH1 0x20 PUSH1 0x4 DUP3 ADD MSTORE PUSH1 0xF PUSH1 0x24 DUP3 ADD MSTORE PUSH15 0x1C1C995CD95B1B081B9BDD08195B99 PUSH1 0x8A SHL PUSH1 0x44 DUP3 ADD MSTORE PUSH1 0x64 ADD PUSH2 0x5AE JUMP JUMPDEST CALLER PUSH1 0x0 SWAP1 DUP2 MSTORE PUSH1 0xA PUSH1 0x20 MSTORE PUSH1 0x40 SWAP1 KECCAK256 SLOAD PUSH1 0xFF AND ISZERO ISZERO PUSH1 0x1 EQ PUSH2 0x667 JUMPI PUSH1 0x40 MLOAD PUSH3 0x461BCD PUSH1 0xE5 SHL DUP2 MSTORE PUSH1 0x20 PUSH1 0x4 DUP3 ADD MSTORE PUSH1 0xF PUSH1 0x24 DUP3 ADD MSTORE PUSH15 0x75736572206E6F7420696E76697465 PUSH1 0x88 SHL PUSH1 0x44 DUP3 ADD MSTORE PUSH1 0x64 ADD PUSH2 0x5AE JUMP JUMPDEST PUSH1 0x0 PUSH32 0x0 PUSH1 0x1 PUSH1 0x1 PUSH1 0xA0 SHL SUB AND PUSH4 0xA9059CBB CALLER PUSH2 0x6A2 CALLER PUSH2 0xC3B JUMP JUMPDEST PUSH1 0x40 MLOAD PUSH1 0x1 PUSH1 0x1 PUSH1 0xE0 SHL SUB NOT PUSH1 0xE0 DUP6 SWAP1 SHL AND DUP2 MSTORE PUSH1 0x1 PUSH1 0x1 PUSH1 0xA0 SHL SUB SWAP1 SWAP3 AND PUSH1 0x4 DUP4 ADD MSTORE PUSH1 0x24 DUP3 ADD MSTORE PUSH1 0x44 ADD PUSH1 0x20 PUSH1 0x40 MLOAD DUP1 DUP4 SUB DUP2 PUSH1 0x0 DUP8 GAS CALL ISZERO DUP1 ISZERO PUSH2 0x6ED JUMPI RETURNDATASIZE PUSH1 0x0 DUP1 RETURNDATACOPY RETURNDATASIZE PUSH1 0x0 REVERT JUMPDEST POP POP POP POP PUSH1 0x40 MLOAD RETURNDATASIZE PUSH1 0x1F NOT PUSH1 0x1F DUP3 ADD AND DUP3 ADD DUP1 PUSH1 0x40 MSTORE POP DUP2 ADD SWAP1 PUSH2 0x711 SWAP2 SWAP1 PUSH2 0x1371 JUMP JUMPDEST SWAP1 POP DUP1 PUSH2 0x730 JUMPI PUSH1 0x40 MLOAD PUSH3 0x461BCD PUSH1 0xE5 SHL DUP2 MSTORE PUSH1 0x4 ADD PUSH2 0x5AE SWAP1 PUSH2 0x1393 JUMP JUMPDEST POP CALLER PUSH1 0x0 SWAP1 DUP2 MSTORE PUSH1 0xA PUSH1 0x20 MSTORE PUSH1 0x40 SWAP1 KECCAK256 DUP1 SLOAD PUSH1 0xFF NOT AND SWAP1 SSTORE JUMP JUMPDEST PUSH1 0x0 SLOAD PUSH1 0x1 PUSH1 0x1 PUSH1 0xA0 SHL SUB AND CALLER EQ PUSH2 0x774 JUMPI PUSH1 0x40 MLOAD PUSH3 0x461BCD PUSH1 0xE5 SHL DUP2 MSTORE PUSH1 0x4 ADD PUSH2 0x5AE SWAP1 PUSH2 0x133C JUMP JUMPDEST PUSH1 0x40 MLOAD PUSH4 0xA9059CBB PUSH1 0xE0 SHL DUP2 MSTORE CALLER PUSH1 0x4 DUP3 ADD MSTORE PUSH1 0x24 DUP2 ADD DUP3 SWAP1 MSTORE PUSH1 0x0 SWAP1 PUSH32 0x0 PUSH1 0x1 PUSH1 0x1 PUSH1 0xA0 SHL SUB AND SWAP1 PUSH4 0xA9059CBB SWAP1 PUSH1 0x44 ADD PUSH1 0x20 PUSH1 0x40 MLOAD DUP1 DUP4 SUB DUP2 PUSH1 0x0 DUP8 GAS CALL ISZERO DUP1 ISZERO PUSH2 0x7E4 JUMPI RETURNDATASIZE PUSH1 0x0 DUP1 RETURNDATACOPY RETURNDATASIZE PUSH1 0x0 REVERT JUMPDEST POP POP POP POP PUSH1 0x40 MLOAD RETURNDATASIZE PUSH1 0x1F NOT PUSH1 0x1F DUP3 ADD AND DUP3 ADD DUP1 PUSH1 0x40 MSTORE POP DUP2 ADD SWAP1 PUSH2 0x808 SWAP2 SWAP1 PUSH2 0x1371 JUMP JUMPDEST SWAP1 POP DUP1 PUSH2 0x827 JUMPI PUSH1 0x40 MLOAD PUSH3 0x461BCD PUSH1 0xE5 SHL DUP2 MSTORE PUSH1 0x4 ADD PUSH2 0x5AE SWAP1 PUSH2 0x1393 JUMP JUMPDEST POP POP JUMP JUMPDEST PUSH1 0x0 SLOAD PUSH1 0x1 PUSH1 0x1 PUSH1 0xA0 SHL SUB AND CALLER EQ PUSH2 0x855 JUMPI PUSH1 0x40 MLOAD PUSH3 0x461BCD PUSH1 0xE5 SHL DUP2 MSTORE PUSH1 0x4 ADD PUSH2 0x5AE SWAP1 PUSH2 0x133C JUMP JUMPDEST PUSH2 0x85F PUSH1 0x0 PUSH2 0x1256 JUMP JUMPDEST JUMP JUMPDEST PUSH1 0x7 SLOAD PUSH1 0x0 SWAP1 TIMESTAMP PUSH1 0x1 PUSH1 0x80 SHL SWAP1 SWAP2 DIV PUSH8 0xFFFFFFFFFFFFFFFF AND LT PUSH2 0x8B3 JUMPI PUSH1 0x40 MLOAD PUSH3 0x461BCD PUSH1 0xE5 SHL DUP2 MSTORE PUSH1 0x20 PUSH1 0x4 DUP3 ADD MSTORE PUSH1 0x9 PUSH1 0x24 DUP3 ADD MSTORE PUSH9 0x1B9BDD081CDD185C9D PUSH1 0xBA SHL PUSH1 0x44 DUP3 ADD MSTORE PUSH1 0x64 ADD PUSH2 0x5AE JUMP JUMPDEST PUSH1 0x7 SLOAD TIMESTAMP PUSH1 0x1 PUSH1 0xC0 SHL SWAP1 SWAP2 DIV PUSH8 0xFFFFFFFFFFFFFFFF AND GT PUSH2 0x900 JUMPI PUSH1 0x40 MLOAD PUSH3 0x461BCD PUSH1 0xE5 SHL DUP2 MSTORE PUSH1 0x20 PUSH1 0x4 DUP3 ADD MSTORE PUSH1 0x7 PUSH1 0x24 DUP3 ADD MSTORE PUSH7 0x1A185CC8195B99 PUSH1 0xCA SHL PUSH1 0x44 DUP3 ADD MSTORE PUSH1 0x64 ADD PUSH2 0x5AE JUMP JUMPDEST PUSH1 0x1 PUSH1 0x1 PUSH1 0xA0 SHL SUB DUP3 AND PUSH1 0x0 SWAP1 DUP2 MSTORE PUSH1 0xB PUSH1 0x20 MSTORE PUSH1 0x40 SWAP1 KECCAK256 SLOAD PUSH1 0xFF AND PUSH2 0x95C JUMPI PUSH1 0x40 MLOAD PUSH3 0x461BCD PUSH1 0xE5 SHL DUP2 MSTORE PUSH1 0x20 PUSH1 0x4 DUP3 ADD MSTORE PUSH1 0x11 PUSH1 0x24 DUP3 ADD MSTORE PUSH17 0x4265653A7570706572206E6F7420627579 PUSH1 0x78 SHL PUSH1 0x44 DUP3 ADD MSTORE PUSH1 0x64 ADD PUSH2 0x5AE JUMP JUMPDEST CALLER PUSH1 0x0 SWAP1 DUP2 MSTORE PUSH1 0xB PUSH1 0x20 MSTORE PUSH1 0x40 SWAP1 KECCAK256 SLOAD PUSH1 0xFF AND PUSH2 0x9AE JUMPI PUSH1 0x40 MLOAD PUSH3 0x461BCD PUSH1 0xE5 SHL DUP2 MSTORE PUSH1 0x20 PUSH1 0x4 DUP3 ADD MSTORE PUSH1 0x10 PUSH1 0x24 DUP3 ADD MSTORE PUSH16 0x4265653A75736572206E6F7420627579 PUSH1 0x80 SHL PUSH1 0x44 DUP3 ADD MSTORE PUSH1 0x64 ADD PUSH2 0x5AE JUMP JUMPDEST PUSH1 0x1 PUSH1 0x1 PUSH1 0xA0 SHL SUB DUP3 AND CALLER SUB PUSH2 0x9F6 JUMPI PUSH1 0x40 MLOAD PUSH3 0x461BCD PUSH1 0xE5 SHL DUP2 MSTORE PUSH1 0x20 PUSH1 0x4 DUP3 ADD MSTORE PUSH1 0xD PUSH1 0x24 DUP3 ADD MSTORE PUSH13 0x2132B29D2327A92124A22222A7 PUSH1 0x99 SHL PUSH1 0x44 DUP3 ADD MSTORE PUSH1 0x64 ADD PUSH2 0x5AE JUMP JUMPDEST CALLER PUSH1 0x0 DUP2 DUP2 MSTORE PUSH1 0x8 PUSH1 0x20 MSTORE PUSH1 0x40 DUP1 DUP3 KECCAK256 PUSH1 0x1 PUSH1 0x1 PUSH1 0xA0 SHL SUB DUP7 DUP2 AND DUP5 MSTORE SWAP2 SWAP1 SWAP3 KECCAK256 DUP1 SLOAD SWAP3 SWAP4 SWAP1 SWAP3 SWAP1 SWAP2 AND SUB PUSH2 0xA78 JUMPI PUSH1 0x40 MLOAD PUSH3 0x461BCD PUSH1 0xE5 SHL DUP2 MSTORE PUSH1 0x20 PUSH1 0x4 DUP3 ADD MSTORE PUSH1 0x22 PUSH1 0x24 DUP3 ADD MSTORE PUSH32 0x54686520696E76697465722069732061206C6F77657220746F20746865207573 PUSH1 0x44 DUP3 ADD MSTORE PUSH2 0x32B9 PUSH1 0xF1 SHL PUSH1 0x64 DUP3 ADD MSTORE PUSH1 0x84 ADD PUSH2 0x5AE JUMP JUMPDEST DUP2 SLOAD PUSH1 0x1 PUSH1 0x1 PUSH1 0xA0 SHL SUB DUP1 DUP7 AND SWAP2 AND SUB PUSH2 0xACA JUMPI PUSH1 0x40 MLOAD PUSH3 0x461BCD PUSH1 0xE5 SHL DUP2 MSTORE PUSH1 0x20 PUSH1 0x4 DUP3 ADD MSTORE PUSH1 0x13 PUSH1 0x24 DUP3 ADD MSTORE PUSH19 0x2932B832B0BA32B21034B73B34BA30BA34B7B7 PUSH1 0x69 SHL PUSH1 0x44 DUP3 ADD MSTORE PUSH1 0x64 ADD PUSH2 0x5AE JUMP JUMPDEST DUP2 SLOAD PUSH1 0x1 PUSH1 0x1 PUSH1 0xA0 SHL SUB AND ISZERO PUSH2 0xB19 JUMPI PUSH1 0x40 MLOAD PUSH3 0x461BCD PUSH1 0xE5 SHL DUP2 MSTORE PUSH1 0x20 PUSH1 0x4 DUP3 ADD MSTORE PUSH1 0x14 PUSH1 0x24 DUP3 ADD MSTORE PUSH20 0x20B63932B0B23C903430BB329030903AB83832B9 PUSH1 0x61 SHL PUSH1 0x44 DUP3 ADD MSTORE PUSH1 0x64 ADD PUSH2 0x5AE JUMP JUMPDEST DUP2 SLOAD PUSH1 0x1 PUSH1 0x1 PUSH1 0xA0 SHL SUB DUP6 AND PUSH1 0x1 PUSH1 0x1 PUSH1 0xA0 SHL SUB NOT SWAP2 DUP3 AND DUP2 OR DUP5 SSTORE NUMBER PUSH1 0x2 DUP1 DUP7 ADD DUP3 SWAP1 SSTORE DUP5 ADD SSTORE PUSH1 0x1 DUP4 DUP2 ADD DUP1 SLOAD DUP1 DUP4 ADD DUP3 SSTORE PUSH1 0x0 SWAP2 DUP3 MSTORE PUSH1 0x20 DUP1 DUP4 KECCAK256 SWAP1 SWAP2 ADD DUP1 SLOAD SWAP1 SWAP6 AND CALLER OR SWAP1 SWAP5 SSTORE SWAP2 DUP3 MSTORE PUSH1 0xA SWAP1 SWAP3 MSTORE PUSH1 0x40 SWAP1 KECCAK256 DUP1 SLOAD PUSH1 0xFF NOT AND SWAP1 SWAP2 OR SWAP1 SSTORE PUSH1 0x7 DUP1 SLOAD PUSH1 0x8 SWAP1 PUSH2 0xB99 SWAP1 PUSH4 0xFFFFFFFF PUSH1 0x1 PUSH1 0x40 SHL SWAP1 SWAP2 DIV AND PUSH2 0x13D8 JUMP JUMPDEST SWAP2 SWAP1 PUSH2 0x100 EXP DUP2 SLOAD DUP2 PUSH4 0xFFFFFFFF MUL NOT AND SWAP1 DUP4 PUSH4 0xFFFFFFFF AND MUL OR SWAP1 SSTORE POP PUSH1 0x1 SWAP3 POP POP POP SWAP2 SWAP1 POP JUMP JUMPDEST PUSH1 0x1 PUSH1 0x1 PUSH1 0xA0 SHL SUB DUP2 AND PUSH1 0x0 SWAP1 DUP2 MSTORE PUSH1 0x8 PUSH1 0x20 SWAP1 DUP2 MSTORE PUSH1 0x40 SWAP2 DUP3 SWAP1 KECCAK256 PUSH1 0x1 ADD DUP1 SLOAD DUP4 MLOAD DUP2 DUP5 MUL DUP2 ADD DUP5 ADD SWAP1 SWAP5 MSTORE DUP1 DUP5 MSTORE PUSH1 0x60 SWAP4 SWAP3 DUP4 ADD DUP3 DUP3 DUP1 ISZERO PUSH2 0xC2F JUMPI PUSH1 0x20 MUL DUP3 ADD SWAP2 SWAP1 PUSH1 0x0 MSTORE PUSH1 0x20 PUSH1 0x0 KECCAK256 SWAP1 JUMPDEST DUP2 SLOAD PUSH1 0x1 PUSH1 0x1 PUSH1 0xA0 SHL SUB AND DUP2 MSTORE PUSH1 0x1 SWAP1 SWAP2 ADD SWAP1 PUSH1 0x20 ADD DUP1 DUP4 GT PUSH2 0xC11 JUMPI JUMPDEST POP POP POP POP POP SWAP1 POP SWAP2 SWAP1 POP JUMP JUMPDEST PUSH1 0x1 PUSH1 0x1 PUSH1 0xA0 SHL SUB DUP2 AND PUSH1 0x0 SWAP1 DUP2 MSTORE PUSH1 0x8 PUSH1 0x20 MSTORE PUSH1 0x40 DUP2 KECCAK256 PUSH1 0x1 ADD SLOAD PUSH1 0x7 SLOAD PUSH1 0x6 SLOAD PUSH2 0xC74 SWAP2 PUSH1 0x1 PUSH1 0x40 SHL SWAP1 DIV PUSH4 0xFFFFFFFF AND SWAP1 PUSH2 0x13FB JUMP JUMPDEST PUSH2 0xC7E SWAP2 SWAP1 PUSH2 0x141D JUMP JUMPDEST SWAP3 SWAP2 POP POP JUMP JUMPDEST PUSH1 0x7 SLOAD TIMESTAMP PUSH1 0x1 PUSH1 0xC0 SHL SWAP1 SWAP2 DIV PUSH8 0xFFFFFFFFFFFFFFFF AND LT PUSH2 0xCD9 JUMPI PUSH1 0x40 MLOAD PUSH3 0x461BCD PUSH1 0xE5 SHL DUP2 MSTORE PUSH1 0x20 PUSH1 0x4 DUP3 ADD MSTORE PUSH1 0xF PUSH1 0x24 DUP3 ADD MSTORE PUSH15 0x1C1C995CD95B1B081B9BDD08195B99 PUSH1 0x8A SHL PUSH1 0x44 DUP3 ADD MSTORE PUSH1 0x64 ADD PUSH2 0x5AE JUMP JUMPDEST CALLER PUSH1 0x0 SWAP1 DUP2 MSTORE PUSH1 0x9 PUSH1 0x20 MSTORE PUSH1 0x40 SWAP1 KECCAK256 SLOAD PUSH2 0xD29 JUMPI PUSH1 0x40 MLOAD PUSH3 0x461BCD PUSH1 0xE5 SHL DUP2 MSTORE PUSH1 0x20 PUSH1 0x4 DUP3 ADD MSTORE PUSH1 0x11 PUSH1 0x24 DUP3 ADD MSTORE PUSH17 0x757365722062616C616E6365207A65726F PUSH1 0x78 SHL PUSH1 0x44 DUP3 ADD MSTORE PUSH1 0x64 ADD PUSH2 0x5AE JUMP JUMPDEST CALLER PUSH1 0x0 DUP2 DUP2 MSTORE PUSH1 0x9 PUSH1 0x20 MSTORE PUSH1 0x40 DUP1 DUP3 KECCAK256 SLOAD SWAP1 MLOAD PUSH4 0xA9059CBB PUSH1 0xE0 SHL DUP2 MSTORE PUSH1 0x4 DUP2 ADD SWAP4 SWAP1 SWAP4 MSTORE PUSH1 0x24 DUP4 ADD MSTORE SWAP1 PUSH32 0x0 PUSH1 0x1 PUSH1 0x1 PUSH1 0xA0 SHL SUB AND SWAP1 PUSH4 0xA9059CBB SWAP1 PUSH1 0x44 ADD PUSH1 0x20 PUSH1 0x40 MLOAD DUP1 DUP4 SUB DUP2 PUSH1 0x0 DUP8 GAS CALL ISZERO DUP1 ISZERO PUSH2 0xDA7 JUMPI RETURNDATASIZE PUSH1 0x0 DUP1 RETURNDATACOPY RETURNDATASIZE PUSH1 0x0 REVERT JUMPDEST POP POP POP POP PUSH1 0x40 MLOAD RETURNDATASIZE PUSH1 0x1F NOT PUSH1 0x1F DUP3 ADD AND DUP3 ADD DUP1 PUSH1 0x40 MSTORE POP DUP2 ADD SWAP1 PUSH2 0xDCB SWAP2 SWAP1 PUSH2 0x1371 JUMP JUMPDEST SWAP1 POP DUP1 PUSH2 0xDEA JUMPI PUSH1 0x40 MLOAD PUSH3 0x461BCD PUSH1 0xE5 SHL DUP2 MSTORE PUSH1 0x4 ADD PUSH2 0x5AE SWAP1 PUSH2 0x1393 JUMP JUMPDEST CALLER PUSH1 0x0 SWAP1 DUP2 MSTORE PUSH1 0x9 PUSH1 0x20 MSTORE PUSH1 0x40 DUP2 KECCAK256 SSTORE PUSH1 0x7 DUP1 SLOAD PUSH5 0x100000000 SWAP1 DIV PUSH4 0xFFFFFFFF AND SWAP1 PUSH1 0x4 PUSH2 0xE18 DUP4 PUSH2 0x13D8 JUMP JUMPDEST SWAP2 SWAP1 PUSH2 0x100 EXP DUP2 SLOAD DUP2 PUSH4 0xFFFFFFFF MUL NOT AND SWAP1 DUP4 PUSH4 0xFFFFFFFF AND MUL OR SWAP1 SSTORE POP POP POP JUMP JUMPDEST PUSH1 0x7 SLOAD TIMESTAMP PUSH1 0x1 PUSH1 0x80 SHL SWAP1 SWAP2 DIV PUSH8 0xFFFFFFFFFFFFFFFF AND LT PUSH2 0xE89 JUMPI PUSH1 0x40 MLOAD PUSH3 0x461BCD PUSH1 0xE5 SHL DUP2 MSTORE PUSH1 0x20 PUSH1 0x4 DUP3 ADD MSTORE PUSH1 0x9 PUSH1 0x24 DUP3 ADD MSTORE PUSH9 0x1B9BDD081CDD185C9D PUSH1 0xBA SHL PUSH1 0x44 DUP3 ADD MSTORE PUSH1 0x64 ADD PUSH2 0x5AE JUMP JUMPDEST PUSH1 0x7 SLOAD TIMESTAMP PUSH1 0x1 PUSH1 0xC0 SHL SWAP1 SWAP2 DIV PUSH8 0xFFFFFFFFFFFFFFFF AND GT PUSH2 0xED6 JUMPI PUSH1 0x40 MLOAD PUSH3 0x461BCD PUSH1 0xE5 SHL DUP2 MSTORE PUSH1 0x20 PUSH1 0x4 DUP3 ADD MSTORE PUSH1 0x7 PUSH1 0x24 DUP3 ADD MSTORE PUSH7 0x1A185CC8195B99 PUSH1 0xCA SHL PUSH1 0x44 DUP3 ADD MSTORE PUSH1 0x64 ADD PUSH2 0x5AE JUMP JUMPDEST PUSH1 0x7 SLOAD PUSH4 0xFFFFFFFF PUSH1 0x1 PUSH1 0x60 SHL DUP3 DIV DUP2 AND SWAP2 AND GT ISZERO PUSH2 0xF37 JUMPI PUSH1 0x40 MLOAD PUSH3 0x461BCD PUSH1 0xE5 SHL DUP2 MSTORE PUSH1 0x20 PUSH1 0x4 DUP3 ADD MSTORE PUSH1 0x17 PUSH1 0x24 DUP3 ADD MSTORE PUSH32 0x5072652D6F72646572732061726520736F6C64206F7574000000000000000000 PUSH1 0x44 DUP3 ADD MSTORE PUSH1 0x64 ADD PUSH2 0x5AE JUMP JUMPDEST CALLER PUSH1 0x0 SWAP1 DUP2 MSTORE PUSH1 0xB PUSH1 0x20 MSTORE PUSH1 0x40 SWAP1 KECCAK256 SLOAD PUSH1 0xFF AND ISZERO PUSH2 0xF8B JUMPI PUSH1 0x40 MLOAD PUSH3 0x461BCD PUSH1 0xE5 SHL DUP2 MSTORE PUSH1 0x20 PUSH1 0x4 DUP3 ADD MSTORE PUSH1 0x11 PUSH1 0x24 DUP3 ADD MSTORE PUSH17 0x185B1C9958591E481C1D5C98DA185CD959 PUSH1 0x7A SHL PUSH1 0x44 DUP3 ADD MSTORE PUSH1 0x64 ADD PUSH2 0x5AE JUMP JUMPDEST PUSH1 0x4 DUP1 SLOAD PUSH1 0x40 MLOAD PUSH4 0x6EB1769F PUSH1 0xE1 SHL DUP2 MSTORE CALLER SWAP3 DUP2 ADD SWAP3 SWAP1 SWAP3 MSTORE ADDRESS PUSH1 0x24 DUP4 ADD MSTORE SWAP1 PUSH1 0x1 PUSH1 0x1 PUSH1 0xA0 SHL SUB PUSH32 0x0 AND SWAP1 PUSH4 0xDD62ED3E SWAP1 PUSH1 0x44 ADD PUSH1 0x20 PUSH1 0x40 MLOAD DUP1 DUP4 SUB DUP2 DUP7 GAS STATICCALL ISZERO DUP1 ISZERO PUSH2 0xFFC JUMPI RETURNDATASIZE PUSH1 0x0 DUP1 RETURNDATACOPY RETURNDATASIZE PUSH1 0x0 REVERT JUMPDEST POP POP POP POP PUSH1 0x40 MLOAD RETURNDATASIZE PUSH1 0x1F NOT PUSH1 0x1F DUP3 ADD AND DUP3 ADD DUP1 PUSH1 0x40 MSTORE POP DUP2 ADD SWAP1 PUSH2 0x1020 SWAP2 SWAP1 PUSH2 0x143C JUMP JUMPDEST LT ISZERO PUSH2 0x106E JUMPI PUSH1 0x40 MLOAD PUSH3 0x461BCD PUSH1 0xE5 SHL DUP2 MSTORE PUSH1 0x20 PUSH1 0x4 DUP3 ADD MSTORE PUSH1 0x1B PUSH1 0x24 DUP3 ADD MSTORE PUSH32 0x75736474546F6B656E20616C6C6F77616E636520746F6F206C6F770000000000 PUSH1 0x44 DUP3 ADD MSTORE PUSH1 0x64 ADD PUSH2 0x5AE JUMP JUMPDEST PUSH1 0x3 SLOAD PUSH1 0x4 DUP1 SLOAD PUSH1 0x40 MLOAD PUSH4 0x23B872DD PUSH1 0xE0 SHL DUP2 MSTORE CALLER SWAP3 DUP2 ADD SWAP3 SWAP1 SWAP3 MSTORE PUSH1 0x1 PUSH1 0x1 PUSH1 0xA0 SHL SUB SWAP3 DUP4 AND PUSH1 0x24 DUP4 ADD MSTORE PUSH1 0x44 DUP3 ADD MSTORE PUSH1 0x0 SWAP2 PUSH32 0x0 AND SWAP1 PUSH4 0x23B872DD SWAP1 PUSH1 0x64 ADD PUSH1 0x20 PUSH1 0x40 MLOAD DUP1 DUP4 SUB DUP2 PUSH1 0x0 DUP8 GAS CALL ISZERO DUP1 ISZERO PUSH2 0x10ED JUMPI RETURNDATASIZE PUSH1 0x0 DUP1 RETURNDATACOPY RETURNDATASIZE PUSH1 0x0 REVERT JUMPDEST POP POP POP POP PUSH1 0x40 MLOAD RETURNDATASIZE PUSH1 0x1F NOT PUSH1 0x1F DUP3 ADD AND DUP3 ADD DUP1 PUSH1 0x40 MSTORE POP DUP2 ADD SWAP1 PUSH2 0x1111 SWAP2 SWAP1 PUSH2 0x1371 JUMP JUMPDEST SWAP1 POP DUP1 PUSH2 0x1130 JUMPI PUSH1 0x40 MLOAD PUSH3 0x461BCD PUSH1 0xE5 SHL DUP2 MSTORE PUSH1 0x4 ADD PUSH2 0x5AE SWAP1 PUSH2 0x1393 JUMP JUMPDEST PUSH1 0x5 SLOAD CALLER PUSH1 0x0 SWAP1 DUP2 MSTORE PUSH1 0x9 PUSH1 0x20 SWAP1 DUP2 MSTORE PUSH1 0x40 DUP1 DUP4 KECCAK256 SWAP4 SWAP1 SWAP4 SSTORE PUSH1 0xB SWAP1 MSTORE SWAP1 DUP2 KECCAK256 DUP1 SLOAD PUSH1 0xFF NOT AND PUSH1 0x1 OR SWAP1 SSTORE PUSH1 0x7 DUP1 SLOAD PUSH4 0xFFFFFFFF AND SWAP2 PUSH2 0xE18 DUP4 PUSH2 0x13D8 JUMP JUMPDEST PUSH1 0x0 SLOAD PUSH1 0x1 PUSH1 0x1 PUSH1 0xA0 SHL SUB AND CALLER EQ PUSH2 0x1199 JUMPI PUSH1 0x40 MLOAD PUSH3 0x461BCD PUSH1 0xE5 SHL DUP2 MSTORE PUSH1 0x4 ADD PUSH2 0x5AE SWAP1 PUSH2 0x133C JUMP JUMPDEST PUSH1 0x1 PUSH1 0x1 PUSH1 0xA0 SHL SUB DUP2 AND PUSH2 0x11FE JUMPI PUSH1 0x40 MLOAD PUSH3 0x461BCD PUSH1 0xE5 SHL DUP2 MSTORE PUSH1 0x20 PUSH1 0x4 DUP3 ADD MSTORE PUSH1 0x26 PUSH1 0x24 DUP3 ADD MSTORE PUSH32 0x4F776E61626C653A206E6577206F776E657220697320746865207A65726F2061 PUSH1 0x44 DUP3 ADD MSTORE PUSH6 0x646472657373 PUSH1 0xD0 SHL PUSH1 0x64 DUP3 ADD MSTORE PUSH1 0x84 ADD PUSH2 0x5AE JUMP JUMPDEST PUSH2 0x1207 DUP2 PUSH2 0x1256 JUMP JUMPDEST POP JUMP JUMPDEST PUSH1 0x0 SLOAD PUSH1 0x1 PUSH1 0x1 PUSH1 0xA0 SHL SUB AND CALLER EQ PUSH2 0x1234 JUMPI PUSH1 0x40 MLOAD PUSH3 0x461BCD PUSH1 0xE5 SHL DUP2 MSTORE PUSH1 0x4 ADD PUSH2 0x5AE SWAP1 PUSH2 0x133C JUMP JUMPDEST PUSH1 0x3 DUP1 SLOAD PUSH1 0x1 PUSH1 0x1 PUSH1 0xA0 SHL SUB NOT AND PUSH1 0x1 PUSH1 0x1 PUSH1 0xA0 SHL SUB SWAP3 SWAP1 SWAP3 AND SWAP2 SWAP1 SWAP2 OR SWAP1 SSTORE JUMP JUMPDEST PUSH1 0x0 DUP1 SLOAD PUSH1 0x1 PUSH1 0x1 PUSH1 0xA0 SHL SUB DUP4 DUP2 AND PUSH1 0x1 PUSH1 0x1 PUSH1 0xA0 SHL SUB NOT DUP4 AND DUP2 OR DUP5 SSTORE PUSH1 0x40 MLOAD SWAP2 SWAP1 SWAP3 AND SWAP3 DUP4 SWAP2 PUSH32 0x8BE0079C531659141344CD1FD0A4F28419497F9722A3DAAFE3B4186F6B6457E0 SWAP2 SWAP1 LOG3 POP POP JUMP JUMPDEST PUSH1 0x0 PUSH1 0x20 DUP3 DUP5 SUB SLT ISZERO PUSH2 0x12B8 JUMPI PUSH1 0x0 DUP1 REVERT JUMPDEST DUP2 CALLDATALOAD PUSH1 0x1 PUSH1 0x1 PUSH1 0xA0 SHL SUB DUP2 AND DUP2 EQ PUSH2 0x12CF JUMPI PUSH1 0x0 DUP1 REVERT JUMPDEST SWAP4 SWAP3 POP POP POP JUMP JUMPDEST PUSH1 0x0 PUSH1 0x20 DUP3 DUP5 SUB SLT ISZERO PUSH2 0x12E8 JUMPI PUSH1 0x0 DUP1 REVERT JUMPDEST POP CALLDATALOAD SWAP2 SWAP1 POP JUMP JUMPDEST PUSH1 0x20 DUP1 DUP3 MSTORE DUP3 MLOAD DUP3 DUP3 ADD DUP2 SWAP1 MSTORE PUSH1 0x0 SWAP2 SWAP1 DUP5 DUP3 ADD SWAP1 PUSH1 0x40 DUP6 ADD SWAP1 DUP5 JUMPDEST DUP2 DUP2 LT ISZERO PUSH2 0x1330 JUMPI DUP4 MLOAD PUSH1 0x1 PUSH1 0x1 PUSH1 0xA0 SHL SUB AND DUP4 MSTORE SWAP3 DUP5 ADD SWAP3 SWAP2 DUP5 ADD SWAP2 PUSH1 0x1 ADD PUSH2 0x130B JUMP JUMPDEST POP SWAP1 SWAP7 SWAP6 POP POP POP POP POP POP JUMP JUMPDEST PUSH1 0x20 DUP1 DUP3 MSTORE DUP2 DUP2 ADD MSTORE PUSH32 0x4F776E61626C653A2063616C6C6572206973206E6F7420746865206F776E6572 PUSH1 0x40 DUP3 ADD MSTORE PUSH1 0x60 ADD SWAP1 JUMP JUMPDEST PUSH1 0x0 PUSH1 0x20 DUP3 DUP5 SUB SLT ISZERO PUSH2 0x1383 JUMPI PUSH1 0x0 DUP1 REVERT JUMPDEST DUP2 MLOAD DUP1 ISZERO ISZERO DUP2 EQ PUSH2 0x12CF JUMPI PUSH1 0x0 DUP1 REVERT JUMPDEST PUSH1 0x20 DUP1 DUP3 MSTORE PUSH1 0x15 SWAP1 DUP3 ADD MSTORE PUSH21 0x151BDAD95B881D1C985B9CD9995C8819985A5B1959 PUSH1 0x5A SHL PUSH1 0x40 DUP3 ADD MSTORE PUSH1 0x60 ADD SWAP1 JUMP JUMPDEST PUSH4 0x4E487B71 PUSH1 0xE0 SHL PUSH1 0x0 MSTORE PUSH1 0x11 PUSH1 0x4 MSTORE PUSH1 0x24 PUSH1 0x0 REVERT JUMPDEST PUSH1 0x0 PUSH4 0xFFFFFFFF DUP1 DUP4 AND DUP2 DUP2 SUB PUSH2 0x13F1 JUMPI PUSH2 0x13F1 PUSH2 0x13C2 JUMP JUMPDEST PUSH1 0x1 ADD SWAP4 SWAP3 POP POP POP JUMP JUMPDEST PUSH1 0x0 DUP3 PUSH2 0x1418 JUMPI PUSH4 0x4E487B71 PUSH1 0xE0 SHL PUSH1 0x0 MSTORE PUSH1 0x12 PUSH1 0x4 MSTORE PUSH1 0x24 PUSH1 0x0 REVERT JUMPDEST POP DIV SWAP1 JUMP JUMPDEST PUSH1 0x0 DUP2 PUSH1 0x0 NOT DIV DUP4 GT DUP3 ISZERO ISZERO AND ISZERO PUSH2 0x1437 JUMPI PUSH2 0x1437 PUSH2 0x13C2 JUMP JUMPDEST POP MUL SWAP1 JUMP JUMPDEST PUSH1 0x0 PUSH1 0x20 DUP3 DUP5 SUB SLT ISZERO PUSH2 0x144E JUMPI PUSH1 0x0 DUP1 REVERT JUMPDEST POP MLOAD SWAP2 SWAP1 POP JUMP INVALID LOG2 PUSH5 0x6970667358 0x22 SLT KECCAK256 0xFB DUP4 0xE0 0xD4 0xD1 0xC4 0x27 0x22 PUSH14 0xB8A0D11A112AAABAE66F45E80540 LOG3 0xE9 0xD6 DELEGATECALL CREATE2 STATICCALL INVALID JUMP 0xCB PUSH5 0x736F6C6343 STOP ADDMOD 0xD STOP CALLER "
				},
				"gasEstimates": {
					"creation": {
						"codeDepositCost": "1051800",
						"executionCost": "infinite",
						"totalCost": "infinite"
					},
					"external": {
						"acceptInvitation(address)": "183618",
						"buyTokens()": "infinite",
						"exigencyWithdraw(uint256)": "infinite",
						"getEndTime()": "2436",
						"getPreSellCoinAmount()": "2393",
						"getPreSellCounter()": "2373",
						"getStartTime()": "2369",
						"getUsdtAmount()": "2336",
						"getUserHasBuy(address)": "2582",
						"getUserInviteAirdropCoinAmount(address)": "7000",
						"getUserLowers(address)": "infinite",
						"getUserLowersCount(address)": "2619",
						"getUserPreSellCoinAmount(address)": "2547",
						"getUserUpper(address)": "2632",
						"getWithdrawCounter()": "2376",
						"hasBuy(address)": "2586",
						"inviteInfo(address)": "4762",
						"lowersCounter()": "2398",
						"marketAddress()": "2394",
						"owner()": "2409",
						"presellTokenMintAddress()": "2373",
						"renounceOwnership()": "28204",
						"sellToken()": "infinite",
						"setAmount(uint256)": "24577",
						"setMarketAddress(address)": "26786",
						"transferOwnership(address)": "28362",
						"usdtMintAddress()": "2393",
						"usdtToken()": "infinite",
						"userInviteBalancelMap(address)": "2608",
						"userPresellBalanceMap(address)": "2530",
						"withdrawInviteAirdropTokens()": "infinite",
						"withdrawPresellTokens()": "infinite"
					}
				},
				"methodIdentifiers": {
					"acceptInvitation(address)": "9018c818",
					"buyTokens()": "d0febe4c",
					"exigencyWithdraw(uint256)": "6531e61c",
					"getEndTime()": "439f5ac2",
					"getPreSellCoinAmount()": "78eb6c6f",
					"getPreSellCounter()": "f01fc57c",
					"getStartTime()": "c828371e",
					"getUsdtAmount()": "d35cde41",
					"getUserHasBuy(address)": "374eedef",
					"getUserInviteAirdropCoinAmount(address)": "b9f9231a",
					"getUserLowers(address)": "a98b9144",
					"getUserLowersCount(address)": "c556feca",
					"getUserPreSellCoinAmount(address)": "8568f4ce",
					"getUserUpper(address)": "d139f56d",
					"getWithdrawCounter()": "03d7424d",
					"hasBuy(address)": "3d719da7",
					"inviteInfo(address)": "1eb43f1a",
					"lowersCounter()": "6de34ce0",
					"marketAddress()": "95623641",
					"owner()": "8da5cb5b",
					"presellTokenMintAddress()": "027734fa",
					"renounceOwnership()": "715018a6",
					"sellToken()": "9769f0b0",
					"setAmount(uint256)": "271f88b4",
					"setMarketAddress(address)": "fae92612",
					"transferOwnership(address)": "f2fde38b",
					"usdtMintAddress()": "88af60c6",
					"usdtToken()": "a98ad46c",
					"userInviteBalancelMap(address)": "9e2a0418",
					"userPresellBalanceMap(address)": "90f5881a",
					"withdrawInviteAirdropTokens()": "304d8dea",
					"withdrawPresellTokens()": "c9ede793"
				}
			},
			"storageLayout": {
				"storage": [
					{
						"astId": 70,
						"contract": "msc_token/BeePresell.sol:BeePresell",
						"label": "_owner",
						"offset": 0,
						"slot": "0",
						"type": "t_address"
					},
					{
						"astId": 180,
						"contract": "msc_token/BeePresell.sol:BeePresell",
						"label": "usdtMintAddress",
						"offset": 0,
						"slot": "1",
						"type": "t_address"
					},
					{
						"astId": 183,
						"contract": "msc_token/BeePresell.sol:BeePresell",
						"label": "presellTokenMintAddress",
						"offset": 0,
						"slot": "2",
						"type": "t_address"
					},
					{
						"astId": 186,
						"contract": "msc_token/BeePresell.sol:BeePresell",
						"label": "marketAddress",
						"offset": 0,
						"slot": "3",
						"type": "t_address"
					},
					{
						"astId": 193,
						"contract": "msc_token/BeePresell.sol:BeePresell",
						"label": "usdtAmount",
						"offset": 0,
						"slot": "4",
						"type": "t_uint256"
					},
					{
						"astId": 200,
						"contract": "msc_token/BeePresell.sol:BeePresell",
						"label": "preSellCoinPreAmount",
						"offset": 0,
						"slot": "5",
						"type": "t_uint256"
					},
					{
						"astId": 207,
						"contract": "msc_token/BeePresell.sol:BeePresell",
						"label": "inviteAirdropCoinAmount",
						"offset": 0,
						"slot": "6",
						"type": "t_uint256"
					},
					{
						"astId": 209,
						"contract": "msc_token/BeePresell.sol:BeePresell",
						"label": "counter",
						"offset": 0,
						"slot": "7",
						"type": "t_uint32"
					},
					{
						"astId": 211,
						"contract": "msc_token/BeePresell.sol:BeePresell",
						"label": "withdrawCounter",
						"offset": 4,
						"slot": "7",
						"type": "t_uint32"
					},
					{
						"astId": 213,
						"contract": "msc_token/BeePresell.sol:BeePresell",
						"label": "lowersCounter",
						"offset": 8,
						"slot": "7",
						"type": "t_uint32"
					},
					{
						"astId": 216,
						"contract": "msc_token/BeePresell.sol:BeePresell",
						"label": "preMax",
						"offset": 12,
						"slot": "7",
						"type": "t_uint32"
					},
					{
						"astId": 218,
						"contract": "msc_token/BeePresell.sol:BeePresell",
						"label": "startAt",
						"offset": 16,
						"slot": "7",
						"type": "t_uint64"
					},
					{
						"astId": 220,
						"contract": "msc_token/BeePresell.sol:BeePresell",
						"label": "endAt",
						"offset": 24,
						"slot": "7",
						"type": "t_uint64"
					},
					{
						"astId": 225,
						"contract": "msc_token/BeePresell.sol:BeePresell",
						"label": "inviteInfo",
						"offset": 0,
						"slot": "8",
						"type": "t_mapping(t_address,t_struct(UserInfo)177_storage)"
					},
					{
						"astId": 235,
						"contract": "msc_token/BeePresell.sol:BeePresell",
						"label": "userPresellBalanceMap",
						"offset": 0,
						"slot": "9",
						"type": "t_mapping(t_address,t_uint256)"
					},
					{
						"astId": 239,
						"contract": "msc_token/BeePresell.sol:BeePresell",
						"label": "userInviteBalancelMap",
						"offset": 0,
						"slot": "10",
						"type": "t_mapping(t_address,t_bool)"
					},
					{
						"astId": 243,
						"contract": "msc_token/BeePresell.sol:BeePresell",
						"label": "hasBuy",
						"offset": 0,
						"slot": "11",
						"type": "t_mapping(t_address,t_bool)"
					}
				],
				"types": {
					"t_address": {
						"encoding": "inplace",
						"label": "address",
						"numberOfBytes": "20"
					},
					"t_array(t_address)dyn_storage": {
						"base": "t_address",
						"encoding": "dynamic_array",
						"label": "address[]",
						"numberOfBytes": "32"
					},
					"t_bool": {
						"encoding": "inplace",
						"label": "bool",
						"numberOfBytes": "1"
					},
					"t_mapping(t_address,t_bool)": {
						"encoding": "mapping",
						"key": "t_address",
						"label": "mapping(address => bool)",
						"numberOfBytes": "32",
						"value": "t_bool"
					},
					"t_mapping(t_address,t_struct(UserInfo)177_storage)": {
						"encoding": "mapping",
						"key": "t_address",
						"label": "mapping(address => struct BeePresell.UserInfo)",
						"numberOfBytes": "32",
						"value": "t_struct(UserInfo)177_storage"
					},
					"t_mapping(t_address,t_uint256)": {
						"encoding": "mapping",
						"key": "t_address",
						"label": "mapping(address => uint256)",
						"numberOfBytes": "32",
						"value": "t_uint256"
					},
					"t_struct(UserInfo)177_storage": {
						"encoding": "inplace",
						"label": "struct BeePresell.UserInfo",
						"members": [
							{
								"astId": 171,
								"contract": "msc_token/BeePresell.sol:BeePresell",
								"label": "upper",
								"offset": 0,
								"slot": "0",
								"type": "t_address"
							},
							{
								"astId": 174,
								"contract": "msc_token/BeePresell.sol:BeePresell",
								"label": "lowers",
								"offset": 0,
								"slot": "1",
								"type": "t_array(t_address)dyn_storage"
							},
							{
								"astId": 176,
								"contract": "msc_token/BeePresell.sol:BeePresell",
								"label": "startBlock",
								"offset": 0,
								"slot": "2",
								"type": "t_uint256"
							}
						],
						"numberOfBytes": "96"
					},
					"t_uint256": {
						"encoding": "inplace",
						"label": "uint256",
						"numberOfBytes": "32"
					},
					"t_uint32": {
						"encoding": "inplace",
						"label": "uint32",
						"numberOfBytes": "4"
					},
					"t_uint64": {
						"encoding": "inplace",
						"label": "uint64",
						"numberOfBytes": "8"
					}
				}
			},
			"userdoc": {
				"kind": "user",
				"methods": {},
				"version": 1
			}
		}
	}
}