{
	"msc_token/BeePresell.sol": {
		"BeePresell": {
			"abi": [
				{
					"inputs": [
						{
							"internalType": "uint64",
							"name": "_startAt",
							"type": "uint64"
						},
						{
							"internalType": "uint64",
							"name": "_endAt",
							"type": "uint64"
						}
					],
					"stateMutability": "nonpayable",
					"type": "constructor"
				},
				{
					"anonymous": false,
					"inputs": [
						{
							"indexed": true,
							"internalType": "address",
							"name": "previousOwner",
							"type": "address"
						},
						{
							"indexed": true,
							"internalType": "address",
							"name": "newOwner",
							"type": "address"
						}
					],
					"name": "OwnershipTransferred",
					"type": "event"
				},
				{
					"inputs": [
						{
							"internalType": "address",
							"name": "_inviter",
							"type": "address"
						}
					],
					"name": "acceptInvitation",
					"outputs": [
						{
							"internalType": "bool",
							"name": "",
							"type": "bool"
						}
					],
					"stateMutability": "nonpayable",
					"type": "function"
				},
				{
					"inputs": [],
					"name": "buyTokens",
					"outputs": [],
					"stateMutability": "nonpayable",
					"type": "function"
				},
				{
					"inputs": [
						{
							"internalType": "uint256",
							"name": "amount",
							"type": "uint256"
						}
					],
					"name": "exigencyWithdraw",
					"outputs": [],
					"stateMutability": "nonpayable",
					"type": "function"
				},
				{
					"inputs": [],
					"name": "getEndTime",
					"outputs": [
						{
							"internalType": "uint64",
							"name": "",
							"type": "uint64"
						}
					],
					"stateMutability": "view",
					"type": "function"
				},
				{
					"inputs": [],
					"name": "getPreSellCoinAmount",
					"outputs": [
						{
							"internalType": "uint256",
							"name": "",
							"type": "uint256"
						}
					],
					"stateMutability": "view",
					"type": "function"
				},
				{
					"inputs": [],
					"name": "getPreSellCounter",
					"outputs": [
						{
							"internalType": "uint64",
							"name": "",
							"type": "uint64"
						}
					],
					"stateMutability": "view",
					"type": "function"
				},
				{
					"inputs": [],
					"name": "getPresellMax",
					"outputs": [
						{
							"internalType": "uint32",
							"name": "",
							"type": "uint32"
						}
					],
					"stateMutability": "view",
					"type": "function"
				},
				{
					"inputs": [],
					"name": "getStartTime",
					"outputs": [
						{
							"internalType": "uint64",
							"name": "",
							"type": "uint64"
						}
					],
					"stateMutability": "view",
					"type": "function"
				},
				{
					"inputs": [],
					"name": "getUsdtAmount",
					"outputs": [
						{
							"internalType": "uint256",
							"name": "",
							"type": "uint256"
						}
					],
					"stateMutability": "view",
					"type": "function"
				},
				{
					"inputs": [
						{
							"internalType": "address",
							"name": "user",
							"type": "address"
						}
					],
					"name": "getUserHasBuy",
					"outputs": [
						{
							"internalType": "bool",
							"name": "",
							"type": "bool"
						}
					],
					"stateMutability": "view",
					"type": "function"
				},
				{
					"inputs": [
						{
							"internalType": "address",
							"name": "user",
							"type": "address"
						}
					],
					"name": "getUserInviteAirdropCoinAmount",
					"outputs": [
						{
							"internalType": "uint256",
							"name": "",
							"type": "uint256"
						}
					],
					"stateMutability": "view",
					"type": "function"
				},
				{
					"inputs": [
						{
							"internalType": "address",
							"name": "user",
							"type": "address"
						}
					],
					"name": "getUserLowers",
					"outputs": [
						{
							"internalType": "address[]",
							"name": "",
							"type": "address[]"
						}
					],
					"stateMutability": "view",
					"type": "function"
				},
				{
					"inputs": [
						{
							"internalType": "address",
							"name": "user",
							"type": "address"
						}
					],
					"name": "getUserLowersCount",
					"outputs": [
						{
							"internalType": "uint256",
							"name": "",
							"type": "uint256"
						}
					],
					"stateMutability": "view",
					"type": "function"
				},
				{
					"inputs": [
						{
							"internalType": "address",
							"name": "user",
							"type": "address"
						}
					],
					"name": "getUserPreSellCoinAmount",
					"outputs": [
						{
							"internalType": "uint256",
							"name": "",
							"type": "uint256"
						}
					],
					"stateMutability": "view",
					"type": "function"
				},
				{
					"inputs": [
						{
							"internalType": "address",
							"name": "user",
							"type": "address"
						}
					],
					"name": "getUserUpper",
					"outputs": [
						{
							"internalType": "address",
							"name": "",
							"type": "address"
						}
					],
					"stateMutability": "view",
					"type": "function"
				},
				{
					"inputs": [],
					"name": "getWithdrawCounter",
					"outputs": [
						{
							"internalType": "uint64",
							"name": "",
							"type": "uint64"
						}
					],
					"stateMutability": "view",
					"type": "function"
				},
				{
					"inputs": [
						{
							"internalType": "address",
							"name": "",
							"type": "address"
						}
					],
					"name": "hasBuy",
					"outputs": [
						{
							"internalType": "bool",
							"name": "",
							"type": "bool"
						}
					],
					"stateMutability": "view",
					"type": "function"
				},
				{
					"inputs": [
						{
							"internalType": "address",
							"name": "",
							"type": "address"
						}
					],
					"name": "inviteInfo",
					"outputs": [
						{
							"internalType": "address",
							"name": "upper",
							"type": "address"
						},
						{
							"internalType": "uint256",
							"name": "startBlock",
							"type": "uint256"
						}
					],
					"stateMutability": "view",
					"type": "function"
				},
				{
					"inputs": [],
					"name": "lowersCounter",
					"outputs": [
						{
							"internalType": "uint32",
							"name": "",
							"type": "uint32"
						}
					],
					"stateMutability": "view",
					"type": "function"
				},
				{
					"inputs": [],
					"name": "marketAddress",
					"outputs": [
						{
							"internalType": "address",
							"name": "",
							"type": "address"
						}
					],
					"stateMutability": "view",
					"type": "function"
				},
				{
					"inputs": [],
					"name": "owner",
					"outputs": [
						{
							"internalType": "address",
							"name": "",
							"type": "address"
						}
					],
					"stateMutability": "view",
					"type": "function"
				},
				{
					"inputs": [],
					"name": "presellTokenMintAddress",
					"outputs": [
						{
							"internalType": "address",
							"name": "",
							"type": "address"
						}
					],
					"stateMutability": "view",
					"type": "function"
				},
				{
					"inputs": [],
					"name": "renounceOwnership",
					"outputs": [],
					"stateMutability": "nonpayable",
					"type": "function"
				},
				{
					"inputs": [],
					"name": "sellToken",
					"outputs": [
						{
							"internalType": "contract IERC20",
							"name": "",
							"type": "address"
						}
					],
					"stateMutability": "view",
					"type": "function"
				},
				{
					"inputs": [
						{
							"internalType": "uint256",
							"name": "newAmount",
							"type": "uint256"
						}
					],
					"name": "setAmount",
					"outputs": [],
					"stateMutability": "nonpayable",
					"type": "function"
				},
				{
					"inputs": [
						{
							"internalType": "address",
							"name": "newAddress",
							"type": "address"
						}
					],
					"name": "setMarketAddress",
					"outputs": [],
					"stateMutability": "nonpayable",
					"type": "function"
				},
				{
					"inputs": [
						{
							"internalType": "address",
							"name": "newOwner",
							"type": "address"
						}
					],
					"name": "transferOwnership",
					"outputs": [],
					"stateMutability": "nonpayable",
					"type": "function"
				},
				{
					"inputs": [],
					"name": "usdtMintAddress",
					"outputs": [
						{
							"internalType": "address",
							"name": "",
							"type": "address"
						}
					],
					"stateMutability": "view",
					"type": "function"
				},
				{
					"inputs": [],
					"name": "usdtToken",
					"outputs": [
						{
							"internalType": "contract IERC20",
							"name": "",
							"type": "address"
						}
					],
					"stateMutability": "view",
					"type": "function"
				},
				{
					"inputs": [
						{
							"internalType": "address",
							"name": "",
							"type": "address"
						}
					],
					"name": "userInviteBalancelMap",
					"outputs": [
						{
							"internalType": "bool",
							"name": "",
							"type": "bool"
						}
					],
					"stateMutability": "view",
					"type": "function"
				},
				{
					"inputs": [
						{
							"internalType": "address",
							"name": "",
							"type": "address"
						}
					],
					"name": "userPresellBalanceMap",
					"outputs": [
						{
							"internalType": "uint256",
							"name": "",
							"type": "uint256"
						}
					],
					"stateMutability": "view",
					"type": "function"
				},
				{
					"inputs": [],
					"name": "withdrawInviteAirdropTokens",
					"outputs": [],
					"stateMutability": "nonpayable",
					"type": "function"
				},
				{
					"inputs": [],
					"name": "withdrawPresellTokens",
					"outputs": [],
					"stateMutability": "nonpayable",
					"type": "function"
				}
			],
			"devdoc": {
				"kind": "dev",
				"methods": {
					"owner()": {
						"details": "Returns the address of the current owner."
					},
					"renounceOwnership()": {
						"details": "Leaves the contract without owner. It will not be possible to call `onlyOwner` functions anymore. Can only be called by the current owner. NOTE: Renouncing ownership will leave the contract without an owner, thereby removing any functionality that is only available to the owner."
					},
					"transferOwnership(address)": {
						"details": "Transfers ownership of the contract to a new account (`newOwner`). Can only be called by the current owner."
					}
				},
				"version": 1
			},
			"evm": {
				"assembly": "    /* \"msc_token/BeePresell.sol\":2649:8667  contract BeePresell is Ownable {... */\n  mstore(0x40, 0xc0)\n    /* \"msc_token/BeePresell.sol\":2883:2958  address public usdtMintAddress = 0xEdA5dA0050e21e9E34fadb1075986Af1370c7BDb */\n  0x01\n  dup1\n  sload\n  not(sub(shl(0xa0, 0x01), 0x01))\n  swap1\n  dup2\n  and\n    /* \"msc_token/BeePresell.sol\":2916:2958  0xEdA5dA0050e21e9E34fadb1075986Af1370c7BDb */\n  0xeda5da0050e21e9e34fadb1075986af1370c7bdb\n    /* \"msc_token/BeePresell.sol\":2883:2958  address public usdtMintAddress = 0xEdA5dA0050e21e9E34fadb1075986Af1370c7BDb */\n  or\n  swap1\n  swap2\n  sstore\n    /* \"msc_token/BeePresell.sol\":2965:3048  address public presellTokenMintAddress = 0xB0bc99bdb71a4320a9aD357f68EBfBe6fFeBFc8A */\n  0x02\n  dup1\n  sload\n  dup3\n  and\n    /* \"msc_token/BeePresell.sol\":3006:3048  0xB0bc99bdb71a4320a9aD357f68EBfBe6fFeBFc8A */\n  0xb0bc99bdb71a4320a9ad357f68ebfbe6ffebfc8a\n    /* \"msc_token/BeePresell.sol\":2965:3048  address public presellTokenMintAddress = 0xB0bc99bdb71a4320a9aD357f68EBfBe6fFeBFc8A */\n  or\n  swap1\n  sstore\n    /* \"msc_token/BeePresell.sol\":3055:3128  address public marketAddress = 0xe3e90697218F31B8d0867b8A9c52947D3c888339 */\n  0x03\n  dup1\n  sload\n  swap1\n  swap2\n  and\n    /* \"msc_token/BeePresell.sol\":3086:3128  0xe3e90697218F31B8d0867b8A9c52947D3c888339 */\n  0xe3e90697218f31b8d0867b8a9c52947d3c888339\n    /* \"msc_token/BeePresell.sol\":3055:3128  address public marketAddress = 0xe3e90697218F31B8d0867b8A9c52947D3c888339 */\n  or\n  swap1\n  sstore\n    /* \"msc_token/BeePresell.sol\":3212:3224  1 * 10 ** 18 */\n  0x0de0b6b3a7640000\n    /* \"msc_token/BeePresell.sol\":3183:3224  uint256 private usdtAmount = 1 * 10 ** 18 */\n  0x04\n  sstore\n    /* \"msc_token/BeePresell.sol\":3270:3285  4500 * 10 ** 18 */\n  0xf3f20b8dfa69d00000\n    /* \"msc_token/BeePresell.sol\":3231:3285  uint256 private preSellCoinPreAmount = 4500 * 10 ** 18 */\n  0x05\n  sstore\n    /* \"msc_token/BeePresell.sol\":3334:3351  409600 * 10 ** 18 */\n  0x56bc75e2d63100000000\n    /* \"msc_token/BeePresell.sol\":3292:3351  uint256 private inviteAirdropCoinAmount = 409600 * 10 ** 18 */\n  0x06\n  sstore\n    /* \"msc_token/BeePresell.sol\":3508:3534  uint32 private preMax = 10 */\n  0x07\n  dup1\n  sload\n  0x0a000000000000000000000000\n  not(shl(0x60, 0xffffffff))\n  swap1\n  swap2\n  and\n  or\n  swap1\n  sstore\n    /* \"msc_token/BeePresell.sol\":3916:4277  constructor(... */\n  callvalue\n  dup1\n  iszero\n  tag_1\n  jumpi\n  0x00\n  dup1\n  revert\ntag_1:\n  pop\n  mload(0x40)\n  sub(codesize, bytecodeSize)\n  dup1\n  bytecodeSize\n  dup4\n  codecopy\n  dup2\n  add\n  0x40\n  dup2\n  swap1\n  mstore\n  tag_2\n  swap2\n  tag_3\n  jump\t// in\ntag_2:\n    /* \"msc_token/BeePresell.sol\":1060:1092  _transferOwnership(_msgSender()) */\n  tag_7\n    /* \"msc_token/BeePresell.sol\":635:645  msg.sender */\n  caller\n    /* \"msc_token/BeePresell.sol\":1060:1078  _transferOwnership */\n  tag_10\n    /* \"msc_token/BeePresell.sol\":1060:1092  _transferOwnership(_msgSender()) */\n  jump\t// in\ntag_7:\n    /* \"msc_token/BeePresell.sol\":4020:4035  block.timestamp */\n  timestamp\n    /* \"msc_token/BeePresell.sol\":4008:4016  _startAt */\n  dup3\n  sub(shl(0x40, 0x01), 0x01)\n    /* \"msc_token/BeePresell.sol\":4008:4035  _startAt >= block.timestamp */\n  and\n  lt\n  iszero\n    /* \"msc_token/BeePresell.sol\":4000:4054  require(_startAt >= block.timestamp, \"start at < now\") */\n  tag_12\n  jumpi\n  mload(0x40)\n  shl(0xe5, 0x461bcd)\n  dup2\n  mstore\n    /* \"#utility.yul\":690:692   */\n  0x20\n    /* \"msc_token/BeePresell.sol\":4000:4054  require(_startAt >= block.timestamp, \"start at < now\") */\n  0x04\n  dup3\n  add\n    /* \"#utility.yul\":672:693   */\n  mstore\n    /* \"#utility.yul\":729:731   */\n  0x0e\n    /* \"#utility.yul\":709:727   */\n  0x24\n  dup3\n  add\n    /* \"#utility.yul\":702:732   */\n  mstore\n  shl(0x90, 0x7374617274206174203c206e6f77)\n    /* \"#utility.yul\":748:766   */\n  0x44\n  dup3\n  add\n    /* \"#utility.yul\":741:785   */\n  mstore\n    /* \"#utility.yul\":802:820   */\n  0x64\n  add\n    /* \"msc_token/BeePresell.sol\":4000:4054  require(_startAt >= block.timestamp, \"start at < now\") */\ntag_13:\n  mload(0x40)\n  dup1\n  swap2\n  sub\n  swap1\n  revert\ntag_12:\n    /* \"msc_token/BeePresell.sol\":4083:4091  _startAt */\n  dup2\n  sub(shl(0x40, 0x01), 0x01)\n    /* \"msc_token/BeePresell.sol\":4073:4091  _endAt >= _startAt */\n  and\n    /* \"msc_token/BeePresell.sol\":4073:4079  _endAt */\n  dup2\n  sub(shl(0x40, 0x01), 0x01)\n    /* \"msc_token/BeePresell.sol\":4073:4091  _endAt >= _startAt */\n  and\n  lt\n  iszero\n    /* \"msc_token/BeePresell.sol\":4065:4113  require(_endAt >= _startAt, \"end at < start at\") */\n  tag_15\n  jumpi\n  mload(0x40)\n  shl(0xe5, 0x461bcd)\n  dup2\n  mstore\n    /* \"#utility.yul\":1033:1035   */\n  0x20\n    /* \"msc_token/BeePresell.sol\":4065:4113  require(_endAt >= _startAt, \"end at < start at\") */\n  0x04\n  dup3\n  add\n    /* \"#utility.yul\":1015:1036   */\n  mstore\n    /* \"#utility.yul\":1072:1074   */\n  0x11\n    /* \"#utility.yul\":1052:1070   */\n  0x24\n  dup3\n  add\n    /* \"#utility.yul\":1045:1075   */\n  mstore\n  shl(0x7a, 0x195b9908185d080f081cdd185c9d08185d)\n    /* \"#utility.yul\":1091:1109   */\n  0x44\n  dup3\n  add\n    /* \"#utility.yul\":1084:1131   */\n  mstore\n    /* \"#utility.yul\":1148:1166   */\n  0x64\n  add\n    /* \"msc_token/BeePresell.sol\":4065:4113  require(_endAt >= _startAt, \"end at < start at\") */\n  tag_13\n    /* \"#utility.yul\":831:1172   */\n  jump\n    /* \"msc_token/BeePresell.sol\":4065:4113  require(_endAt >= _startAt, \"end at < start at\") */\ntag_15:\n    /* \"msc_token/BeePresell.sol\":4126:4133  startAt */\n  0x07\n    /* \"msc_token/BeePresell.sol\":4126:4144  startAt = _startAt */\n  dup1\n  sload\n  sub(shl(0x80, 0x01), 0x01)\n    /* \"msc_token/BeePresell.sol\":4155:4169  endAt = _endAt */\n  and\n  shl(0x80, 0x01)\n  sub(shl(0x40, 0x01), 0x01)\n    /* \"msc_token/BeePresell.sol\":4126:4144  startAt = _startAt */\n  swap5\n  dup6\n  and\n  mul\n  sub(shl(0xc0, 0x01), 0x01)\n    /* \"msc_token/BeePresell.sol\":4155:4169  endAt = _endAt */\n  and\n  or\n  shl(0xc0, 0x01)\n  swap3\n  swap1\n  swap4\n  and\n  swap2\n  swap1\n  swap2\n  mul\n  swap2\n  swap1\n  swap2\n  or\n  swap1\n  sstore\n  0x01\n    /* \"msc_token/BeePresell.sol\":4199:4214  usdtMintAddress */\n  sload\n  sub(shl(0xa0, 0x01), 0x01)\n  swap1\n  dup2\n  and\n    /* \"msc_token/BeePresell.sol\":4180:4215  usdtToken = IERC20(usdtMintAddress) */\n  0x80\n  mstore\n    /* \"msc_token/BeePresell.sol\":4245:4268  presellTokenMintAddress */\n  sload(0x02)\n  and\n    /* \"msc_token/BeePresell.sol\":4226:4269  sellToken = IERC20(presellTokenMintAddress) */\n  0xa0\n  mstore\n    /* \"msc_token/BeePresell.sol\":2649:8667  contract BeePresell is Ownable {... */\n  jump(tag_22)\n    /* \"msc_token/BeePresell.sol\":2451:2642  function _transferOwnership(address newOwner) internal virtual {... */\ntag_10:\n    /* \"msc_token/BeePresell.sol\":2525:2541  address oldOwner */\n  0x00\n    /* \"msc_token/BeePresell.sol\":2544:2550  _owner */\n  dup1\n  sload\n  sub(shl(0xa0, 0x01), 0x01)\n    /* \"msc_token/BeePresell.sol\":2561:2578  _owner = newOwner */\n  dup4\n  dup2\n  and\n  not(sub(shl(0xa0, 0x01), 0x01))\n  dup4\n  and\n  dup2\n  or\n  dup5\n  sstore\n    /* \"msc_token/BeePresell.sol\":2594:2634  OwnershipTransferred(oldOwner, newOwner) */\n  mload(0x40)\n    /* \"msc_token/BeePresell.sol\":2544:2550  _owner */\n  swap2\n  swap1\n  swap3\n  and\n  swap3\n  dup4\n  swap2\n    /* \"msc_token/BeePresell.sol\":2594:2634  OwnershipTransferred(oldOwner, newOwner) */\n  0x8be0079c531659141344cd1fd0a4f28419497f9722a3daafe3b4186f6b6457e0\n  swap2\n    /* \"msc_token/BeePresell.sol\":2525:2541  address oldOwner */\n  swap1\n    /* \"msc_token/BeePresell.sol\":2594:2634  OwnershipTransferred(oldOwner, newOwner) */\n  log3\n    /* \"msc_token/BeePresell.sol\":2514:2642  {... */\n  pop\n    /* \"msc_token/BeePresell.sol\":2451:2642  function _transferOwnership(address newOwner) internal virtual {... */\n  pop\n  jump\t// out\n    /* \"#utility.yul\":14:189   */\ntag_21:\n    /* \"#utility.yul\":92:105   */\n  dup1\n  mload\n  sub(shl(0x40, 0x01), 0x01)\n    /* \"#utility.yul\":134:164   */\n  dup2\n  and\n    /* \"#utility.yul\":124:165   */\n  dup2\n  eq\n    /* \"#utility.yul\":114:183   */\n  tag_24\n  jumpi\n    /* \"#utility.yul\":179:180   */\n  0x00\n    /* \"#utility.yul\":176:177   */\n  dup1\n    /* \"#utility.yul\":169:181   */\n  revert\n    /* \"#utility.yul\":114:183   */\ntag_24:\n    /* \"#utility.yul\":14:189   */\n  swap2\n  swap1\n  pop\n  jump\t// out\n    /* \"#utility.yul\":194:483   */\ntag_3:\n    /* \"#utility.yul\":271:277   */\n  0x00\n    /* \"#utility.yul\":279:285   */\n  dup1\n    /* \"#utility.yul\":332:334   */\n  0x40\n    /* \"#utility.yul\":320:329   */\n  dup4\n    /* \"#utility.yul\":311:318   */\n  dup6\n    /* \"#utility.yul\":307:330   */\n  sub\n    /* \"#utility.yul\":303:335   */\n  slt\n    /* \"#utility.yul\":300:352   */\n  iszero\n  tag_26\n  jumpi\n    /* \"#utility.yul\":348:349   */\n  0x00\n    /* \"#utility.yul\":345:346   */\n  dup1\n    /* \"#utility.yul\":338:350   */\n  revert\n    /* \"#utility.yul\":300:352   */\ntag_26:\n    /* \"#utility.yul\":371:410   */\n  tag_27\n    /* \"#utility.yul\":400:409   */\n  dup4\n    /* \"#utility.yul\":371:410   */\n  tag_21\n  jump\t// in\ntag_27:\n    /* \"#utility.yul\":361:410   */\n  swap2\n  pop\n    /* \"#utility.yul\":429:477   */\n  tag_28\n    /* \"#utility.yul\":473:475   */\n  0x20\n    /* \"#utility.yul\":462:471   */\n  dup5\n    /* \"#utility.yul\":458:476   */\n  add\n    /* \"#utility.yul\":429:477   */\n  tag_21\n  jump\t// in\ntag_28:\n    /* \"#utility.yul\":419:477   */\n  swap1\n  pop\n    /* \"#utility.yul\":194:483   */\n  swap3\n  pop\n  swap3\n  swap1\n  pop\n  jump\t// out\n    /* \"#utility.yul\":831:1172   */\ntag_22:\n    /* \"msc_token/BeePresell.sol\":2649:8667  contract BeePresell is Ownable {... */\n  mload(0x80)\n  mload(0xa0)\n  codecopy(0x00, dataOffset(sub_0), dataSize(sub_0))\n  0x00\n  assignImmutable(\"0xc849ac6906fb063f44f99b9ae7fa6aacafa477545e0e3f40a74dbbf30335f84e\")\n  0x00\n  assignImmutable(\"0x1cca6d2cec39a0e1e2f69c2ebe2dc3f8c1e03db413c5d1c3e31cdca41ddbc4f2\")\n  return(0x00, dataSize(sub_0))\nstop\n\nsub_0: assembly {\n        /* \"msc_token/BeePresell.sol\":2649:8667  contract BeePresell is Ownable {... */\n      mstore(0x40, 0x80)\n      callvalue\n      dup1\n      iszero\n      tag_1\n      jumpi\n      0x00\n      dup1\n      revert\n    tag_1:\n      pop\n      jumpi(tag_2, lt(calldatasize, 0x04))\n      shr(0xe0, calldataload(0x00))\n      dup1\n      0x90f5881a\n      gt\n      tag_36\n      jumpi\n      dup1\n      0xc828371e\n      gt\n      tag_37\n      jumpi\n      dup1\n      0xd1d04e1f\n      gt\n      tag_38\n      jumpi\n      dup1\n      0xd1d04e1f\n      eq\n      tag_31\n      jumpi\n      dup1\n      0xd35cde41\n      eq\n      tag_32\n      jumpi\n      dup1\n      0xf01fc57c\n      eq\n      tag_33\n      jumpi\n      dup1\n      0xf2fde38b\n      eq\n      tag_34\n      jumpi\n      dup1\n      0xfae92612\n      eq\n      tag_35\n      jumpi\n      0x00\n      dup1\n      revert\n    tag_38:\n      dup1\n      0xc828371e\n      eq\n      tag_27\n      jumpi\n      dup1\n      0xc9ede793\n      eq\n      tag_28\n      jumpi\n      dup1\n      0xd0febe4c\n      eq\n      tag_29\n      jumpi\n      dup1\n      0xd139f56d\n      eq\n      tag_30\n      jumpi\n      0x00\n      dup1\n      revert\n    tag_37:\n      dup1\n      0xa98ad46c\n      gt\n      tag_39\n      jumpi\n      dup1\n      0xa98ad46c\n      eq\n      tag_23\n      jumpi\n      dup1\n      0xa98b9144\n      eq\n      tag_24\n      jumpi\n      dup1\n      0xb9f9231a\n      eq\n      tag_25\n      jumpi\n      dup1\n      0xc556feca\n      eq\n      tag_26\n      jumpi\n      0x00\n      dup1\n      revert\n    tag_39:\n      dup1\n      0x90f5881a\n      eq\n      tag_19\n      jumpi\n      dup1\n      0x95623641\n      eq\n      tag_20\n      jumpi\n      dup1\n      0x9769f0b0\n      eq\n      tag_21\n      jumpi\n      dup1\n      0x9e2a0418\n      eq\n      tag_22\n      jumpi\n      0x00\n      dup1\n      revert\n    tag_36:\n      dup1\n      0x6531e61c\n      gt\n      tag_40\n      jumpi\n      dup1\n      0x8568f4ce\n      gt\n      tag_41\n      jumpi\n      dup1\n      0x8568f4ce\n      eq\n      tag_15\n      jumpi\n      dup1\n      0x88af60c6\n      eq\n      tag_16\n      jumpi\n      dup1\n      0x8da5cb5b\n      eq\n      tag_17\n      jumpi\n      dup1\n      0x9018c818\n      eq\n      tag_18\n      jumpi\n      0x00\n      dup1\n      revert\n    tag_41:\n      dup1\n      0x6531e61c\n      eq\n      tag_11\n      jumpi\n      dup1\n      0x6de34ce0\n      eq\n      tag_12\n      jumpi\n      dup1\n      0x715018a6\n      eq\n      tag_13\n      jumpi\n      dup1\n      0x78eb6c6f\n      eq\n      tag_14\n      jumpi\n      0x00\n      dup1\n      revert\n    tag_40:\n      dup1\n      0x304d8dea\n      gt\n      tag_42\n      jumpi\n      dup1\n      0x304d8dea\n      eq\n      tag_7\n      jumpi\n      dup1\n      0x374eedef\n      eq\n      tag_8\n      jumpi\n      dup1\n      0x3d719da7\n      eq\n      tag_9\n      jumpi\n      dup1\n      0x439f5ac2\n      eq\n      tag_10\n      jumpi\n      0x00\n      dup1\n      revert\n    tag_42:\n      dup1\n      0x027734fa\n      eq\n      tag_3\n      jumpi\n      dup1\n      0x03d7424d\n      eq\n      tag_4\n      jumpi\n      dup1\n      0x1eb43f1a\n      eq\n      tag_5\n      jumpi\n      dup1\n      0x271f88b4\n      eq\n      tag_6\n      jumpi\n    tag_2:\n      0x00\n      dup1\n      revert\n        /* \"msc_token/BeePresell.sol\":2965:3048  address public presellTokenMintAddress = 0xB0bc99bdb71a4320a9aD357f68EBfBe6fFeBFc8A */\n    tag_3:\n      sload(0x02)\n      tag_43\n      swap1\n      sub(shl(0xa0, 0x01), 0x01)\n      and\n      dup2\n      jump\n    tag_43:\n      mload(0x40)\n      sub(shl(0xa0, 0x01), 0x01)\n        /* \"#utility.yul\":178:210   */\n      swap1\n      swap2\n      and\n        /* \"#utility.yul\":160:211   */\n      dup2\n      mstore\n        /* \"#utility.yul\":148:150   */\n      0x20\n        /* \"#utility.yul\":133:151   */\n      add\n        /* \"msc_token/BeePresell.sol\":2965:3048  address public presellTokenMintAddress = 0xB0bc99bdb71a4320a9aD357f68EBfBe6fFeBFc8A */\n    tag_45:\n      mload(0x40)\n      dup1\n      swap2\n      sub\n      swap1\n      return\n        /* \"msc_token/BeePresell.sol\":5316:5416  function getWithdrawCounter() public view returns (uint64) {... */\n    tag_4:\n        /* \"msc_token/BeePresell.sol\":5393:5408  withdrawCounter */\n      sload(0x07)\n      0x0100000000\n      swap1\n      div\n      0xffffffff\n      and\n        /* \"msc_token/BeePresell.sol\":5316:5416  function getWithdrawCounter() public view returns (uint64) {... */\n    tag_47:\n      mload(0x40)\n        /* \"#utility.yul\":396:414   */\n      0xffffffffffffffff\n        /* \"#utility.yul\":384:415   */\n      swap1\n      swap2\n      and\n        /* \"#utility.yul\":366:416   */\n      dup2\n      mstore\n        /* \"#utility.yul\":354:356   */\n      0x20\n        /* \"#utility.yul\":339:357   */\n      add\n        /* \"msc_token/BeePresell.sol\":5316:5416  function getWithdrawCounter() public view returns (uint64) {... */\n      tag_45\n        /* \"#utility.yul\":222:422   */\n      jump\n        /* \"msc_token/BeePresell.sol\":3607:3653  mapping(address => UserInfo) public inviteInfo */\n    tag_5:\n      tag_51\n      tag_52\n      calldatasize\n      0x04\n      tag_53\n      jump\t// in\n    tag_52:\n      mstore(0x20, 0x08)\n      0x00\n      swap1\n      dup2\n      mstore\n      0x40\n      swap1\n      keccak256\n      dup1\n      sload\n      0x02\n      swap1\n      swap2\n      add\n      sload\n      sub(shl(0xa0, 0x01), 0x01)\n      swap1\n      swap2\n      and\n      swap1\n      dup3\n      jump\n    tag_51:\n      0x40\n      dup1\n      mload\n      sub(shl(0xa0, 0x01), 0x01)\n        /* \"#utility.yul\":910:942   */\n      swap1\n      swap4\n      and\n        /* \"#utility.yul\":892:943   */\n      dup4\n      mstore\n        /* \"#utility.yul\":974:976   */\n      0x20\n        /* \"#utility.yul\":959:977   */\n      dup4\n      add\n        /* \"#utility.yul\":952:986   */\n      swap2\n      swap1\n      swap2\n      mstore\n        /* \"#utility.yul\":865:883   */\n      add\n        /* \"msc_token/BeePresell.sol\":3607:3653  mapping(address => UserInfo) public inviteInfo */\n      tag_45\n        /* \"#utility.yul\":718:992   */\n      jump\n        /* \"msc_token/BeePresell.sol\":8568:8664  function setAmount(uint256 newAmount) public onlyOwner {... */\n    tag_6:\n      tag_57\n      tag_58\n      calldatasize\n      0x04\n      tag_59\n      jump\t// in\n    tag_58:\n      tag_60\n      jump\t// in\n    tag_57:\n      stop\n        /* \"msc_token/BeePresell.sol\":7853:8253  function withdrawInviteAirdropTokens() public {... */\n    tag_7:\n      tag_57\n      tag_62\n      jump\t// in\n        /* \"msc_token/BeePresell.sol\":5107:5209  function getUserHasBuy(address user) public view returns (bool) {... */\n    tag_8:\n      tag_63\n      tag_64\n      calldatasize\n      0x04\n      tag_53\n      jump\t// in\n    tag_64:\n      sub(shl(0xa0, 0x01), 0x01)\n        /* \"msc_token/BeePresell.sol\":5189:5201  hasBuy[user] */\n      and\n        /* \"msc_token/BeePresell.sol\":5165:5169  bool */\n      0x00\n        /* \"msc_token/BeePresell.sol\":5189:5201  hasBuy[user] */\n      swap1\n      dup2\n      mstore\n        /* \"msc_token/BeePresell.sol\":5189:5195  hasBuy */\n      0x0b\n        /* \"msc_token/BeePresell.sol\":5189:5201  hasBuy[user] */\n      0x20\n      mstore\n      0x40\n      swap1\n      keccak256\n      sload\n      0xff\n      and\n      swap1\n        /* \"msc_token/BeePresell.sol\":5107:5209  function getUserHasBuy(address user) public view returns (bool) {... */\n      jump\n    tag_63:\n      mload(0x40)\n        /* \"#utility.yul\":1347:1361   */\n      swap1\n      iszero\n        /* \"#utility.yul\":1340:1362   */\n      iszero\n        /* \"#utility.yul\":1322:1363   */\n      dup2\n      mstore\n        /* \"#utility.yul\":1310:1312   */\n      0x20\n        /* \"#utility.yul\":1295:1313   */\n      add\n        /* \"msc_token/BeePresell.sol\":5107:5209  function getUserHasBuy(address user) public view returns (bool) {... */\n      tag_45\n        /* \"#utility.yul\":1182:1369   */\n      jump\n        /* \"msc_token/BeePresell.sol\":3865:3903  mapping(address => bool) public hasBuy */\n    tag_9:\n      tag_63\n      tag_69\n      calldatasize\n      0x04\n      tag_53\n      jump\t// in\n    tag_69:\n      mstore(0x20, 0x0b)\n      0x00\n      swap1\n      dup2\n      mstore\n      0x40\n      swap1\n      keccak256\n      sload\n      0xff\n      and\n      dup2\n      jump\n        /* \"msc_token/BeePresell.sol\":5017:5099  function getEndTime() public view returns (uint64) {... */\n    tag_10:\n        /* \"msc_token/BeePresell.sol\":5086:5091  endAt */\n      sload(0x07)\n      shl(0xc0, 0x01)\n      swap1\n      div\n      0xffffffffffffffff\n      and\n        /* \"msc_token/BeePresell.sol\":5017:5099  function getEndTime() public view returns (uint64) {... */\n      jump(tag_47)\n        /* \"msc_token/BeePresell.sol\":8261:8438  function exigencyWithdraw(uint256 amount) public onlyOwner {... */\n    tag_11:\n      tag_57\n      tag_76\n      calldatasize\n      0x04\n      tag_59\n      jump\t// in\n    tag_76:\n      tag_77\n      jump\t// in\n        /* \"msc_token/BeePresell.sol\":3424:3451  uint32 public lowersCounter */\n    tag_12:\n      sload(0x07)\n      tag_78\n      swap1\n      shl(0x40, 0x01)\n      swap1\n      div\n      0xffffffff\n      and\n      dup2\n      jump\n    tag_78:\n      mload(0x40)\n        /* \"#utility.yul\":1548:1558   */\n      0xffffffff\n        /* \"#utility.yul\":1536:1559   */\n      swap1\n      swap2\n      and\n        /* \"#utility.yul\":1518:1560   */\n      dup2\n      mstore\n        /* \"#utility.yul\":1506:1508   */\n      0x20\n        /* \"#utility.yul\":1491:1509   */\n      add\n        /* \"msc_token/BeePresell.sol\":3424:3451  uint32 public lowersCounter */\n      tag_45\n        /* \"#utility.yul\":1374:1566   */\n      jump\n        /* \"msc_token/BeePresell.sol\":1832:1935  function renounceOwnership() public virtual onlyOwner {... */\n    tag_13:\n      tag_57\n      tag_83\n      jump\t// in\n        /* \"msc_token/BeePresell.sol\":4478:4586  function getPreSellCoinAmount() public view returns (uint256) {... */\n    tag_14:\n        /* \"msc_token/BeePresell.sol\":4558:4578  preSellCoinPreAmount */\n      sload(0x05)\n        /* \"msc_token/BeePresell.sol\":4478:4586  function getPreSellCoinAmount() public view returns (uint256) {... */\n    tag_84:\n      mload(0x40)\n        /* \"#utility.yul\":1717:1742   */\n      swap1\n      dup2\n      mstore\n        /* \"#utility.yul\":1705:1707   */\n      0x20\n        /* \"#utility.yul\":1690:1708   */\n      add\n        /* \"msc_token/BeePresell.sol\":4478:4586  function getPreSellCoinAmount() public view returns (uint256) {... */\n      tag_45\n        /* \"#utility.yul\":1571:1748   */\n      jump\n        /* \"msc_token/BeePresell.sol\":4594:4725  function getUserPreSellCoinAmount(address user) public view returns (uint256) {... */\n    tag_15:\n      tag_84\n      tag_89\n      calldatasize\n      0x04\n      tag_53\n      jump\t// in\n    tag_89:\n      sub(shl(0xa0, 0x01), 0x01)\n        /* \"msc_token/BeePresell.sol\":4690:4717  userPresellBalanceMap[user] */\n      and\n        /* \"msc_token/BeePresell.sol\":4663:4670  uint256 */\n      0x00\n        /* \"msc_token/BeePresell.sol\":4690:4717  userPresellBalanceMap[user] */\n      swap1\n      dup2\n      mstore\n        /* \"msc_token/BeePresell.sol\":4690:4711  userPresellBalanceMap */\n      0x09\n        /* \"msc_token/BeePresell.sol\":4690:4717  userPresellBalanceMap[user] */\n      0x20\n      mstore\n      0x40\n      swap1\n      keccak256\n      sload\n      swap1\n        /* \"msc_token/BeePresell.sol\":4594:4725  function getUserPreSellCoinAmount(address user) public view returns (uint256) {... */\n      jump\n        /* \"msc_token/BeePresell.sol\":2883:2958  address public usdtMintAddress = 0xEdA5dA0050e21e9E34fadb1075986Af1370c7BDb */\n    tag_16:\n      sload(0x01)\n      tag_43\n      swap1\n      sub(shl(0xa0, 0x01), 0x01)\n      and\n      dup2\n      jump\n        /* \"msc_token/BeePresell.sol\":1181:1268  function owner() public view virtual returns (address) {... */\n    tag_17:\n        /* \"msc_token/BeePresell.sol\":1227:1234  address */\n      0x00\n        /* \"msc_token/BeePresell.sol\":1254:1260  _owner */\n      sload\n      sub(shl(0xa0, 0x01), 0x01)\n      and\n        /* \"msc_token/BeePresell.sol\":1181:1268  function owner() public view virtual returns (address) {... */\n      jump(tag_43)\n        /* \"msc_token/BeePresell.sol\":5815:6774  function acceptInvitation(address _inviter) public returns (bool) {... */\n    tag_18:\n      tag_63\n      tag_99\n      calldatasize\n      0x04\n      tag_53\n      jump\t// in\n    tag_99:\n      tag_100\n      jump\t// in\n        /* \"msc_token/BeePresell.sol\":3742:3798  mapping(address => uint256) public userPresellBalanceMap */\n    tag_19:\n      tag_84\n      tag_103\n      calldatasize\n      0x04\n      tag_53\n      jump\t// in\n    tag_103:\n      mstore(0x20, 0x09)\n      0x00\n      swap1\n      dup2\n      mstore\n      0x40\n      swap1\n      keccak256\n      sload\n      dup2\n      jump\n        /* \"msc_token/BeePresell.sol\":3055:3128  address public marketAddress = 0xe3e90697218F31B8d0867b8A9c52947D3c888339 */\n    tag_20:\n      sload(0x03)\n      tag_43\n      swap1\n      sub(shl(0xa0, 0x01), 0x01)\n      and\n      dup2\n      jump\n        /* \"msc_token/BeePresell.sol\":3702:3735  IERC20 public immutable sellToken */\n    tag_21:\n      tag_43\n      immutable(\"0xc849ac6906fb063f44f99b9ae7fa6aacafa477545e0e3f40a74dbbf30335f84e\")\n      dup2\n      jump\n        /* \"msc_token/BeePresell.sol\":3805:3858  mapping(address => bool) public userInviteBalancelMap */\n    tag_22:\n      tag_63\n      tag_114\n      calldatasize\n      0x04\n      tag_53\n      jump\t// in\n    tag_114:\n      mstore(0x20, 0x0a)\n      0x00\n      swap1\n      dup2\n      mstore\n      0x40\n      swap1\n      keccak256\n      sload\n      0xff\n      and\n      dup2\n      jump\n        /* \"msc_token/BeePresell.sol\":3662:3695  IERC20 public immutable usdtToken */\n    tag_23:\n      tag_43\n      immutable(\"0x1cca6d2cec39a0e1e2f69c2ebe2dc3f8c1e03db413c5d1c3e31cdca41ddbc4f2\")\n      dup2\n      jump\n        /* \"msc_token/BeePresell.sol\":5560:5685  function getUserLowers(address user) public view returns (address[] memory) {... */\n    tag_24:\n      tag_120\n      tag_121\n      calldatasize\n      0x04\n      tag_53\n      jump\t// in\n    tag_121:\n      tag_122\n      jump\t// in\n    tag_120:\n      mload(0x40)\n      tag_45\n      swap2\n      swap1\n      tag_124\n      jump\t// in\n        /* \"msc_token/BeePresell.sol\":4733:4915  function getUserInviteAirdropCoinAmount(address user) public view returns (uint256) {... */\n    tag_25:\n      tag_84\n      tag_126\n      calldatasize\n      0x04\n      tag_53\n      jump\t// in\n    tag_126:\n      tag_127\n      jump\t// in\n        /* \"msc_token/BeePresell.sol\":5424:5552  function getUserLowersCount(address user) public view returns (uint256) {... */\n    tag_26:\n      tag_84\n      tag_130\n      calldatasize\n      0x04\n      tag_53\n      jump\t// in\n    tag_130:\n      sub(shl(0xa0, 0x01), 0x01)\n        /* \"msc_token/BeePresell.sol\":5514:5530  inviteInfo[user] */\n      and\n        /* \"msc_token/BeePresell.sol\":5487:5494  uint256 */\n      0x00\n        /* \"msc_token/BeePresell.sol\":5514:5530  inviteInfo[user] */\n      swap1\n      dup2\n      mstore\n        /* \"msc_token/BeePresell.sol\":5514:5524  inviteInfo */\n      0x08\n        /* \"msc_token/BeePresell.sol\":5514:5530  inviteInfo[user] */\n      0x20\n      mstore\n      0x40\n      swap1\n      keccak256\n        /* \"msc_token/BeePresell.sol\":5514:5537  inviteInfo[user].lowers */\n      0x01\n      add\n        /* \"msc_token/BeePresell.sol\":5514:5544  inviteInfo[user].lowers.length */\n      sload\n      swap1\n        /* \"msc_token/BeePresell.sol\":5424:5552  function getUserLowersCount(address user) public view returns (uint256) {... */\n      jump\n        /* \"msc_token/BeePresell.sol\":4923:5009  function getStartTime() public view returns (uint64) {... */\n    tag_27:\n        /* \"msc_token/BeePresell.sol\":4994:5001  startAt */\n      sload(0x07)\n      shl(0x80, 0x01)\n      swap1\n      div\n      0xffffffffffffffff\n      and\n        /* \"msc_token/BeePresell.sol\":4923:5009  function getStartTime() public view returns (uint64) {... */\n      jump(tag_47)\n        /* \"msc_token/BeePresell.sol\":7438:7845  function withdrawPresellTokens() public {... */\n    tag_28:\n      tag_57\n      tag_137\n      jump\t// in\n        /* \"msc_token/BeePresell.sol\":6782:7430  function buyTokens() public {... */\n    tag_29:\n      tag_57\n      tag_139\n      jump\t// in\n        /* \"msc_token/BeePresell.sol\":5693:5807  function getUserUpper(address user) public view returns (address) {... */\n    tag_30:\n      tag_43\n      tag_141\n      calldatasize\n      0x04\n      tag_53\n      jump\t// in\n    tag_141:\n      sub(shl(0xa0, 0x01), 0x01)\n        /* \"msc_token/BeePresell.sol\":5777:5793  inviteInfo[user] */\n      swap1\n      dup2\n      and\n        /* \"msc_token/BeePresell.sol\":5750:5757  address */\n      0x00\n        /* \"msc_token/BeePresell.sol\":5777:5793  inviteInfo[user] */\n      swap1\n      dup2\n      mstore\n        /* \"msc_token/BeePresell.sol\":5777:5787  inviteInfo */\n      0x08\n        /* \"msc_token/BeePresell.sol\":5777:5793  inviteInfo[user] */\n      0x20\n      mstore\n      0x40\n      swap1\n      keccak256\n        /* \"msc_token/BeePresell.sol\":5777:5799  inviteInfo[user].upper */\n      sload\n      and\n      swap1\n        /* \"msc_token/BeePresell.sol\":5693:5807  function getUserUpper(address user) public view returns (address) {... */\n      jump\n        /* \"msc_token/BeePresell.sol\":4384:4470  function getPresellMax() public view returns (uint32) {... */\n    tag_31:\n        /* \"msc_token/BeePresell.sol\":4456:4462  preMax */\n      sload(0x07)\n      shl(0x60, 0x01)\n      swap1\n      div\n      0xffffffff\n      and\n        /* \"msc_token/BeePresell.sol\":4384:4470  function getPresellMax() public view returns (uint32) {... */\n      jump(tag_78)\n        /* \"msc_token/BeePresell.sol\":4285:4376  function getUsdtAmount() public view returns (uint256) {... */\n    tag_32:\n        /* \"msc_token/BeePresell.sol\":4358:4368  usdtAmount */\n      sload(0x04)\n        /* \"msc_token/BeePresell.sol\":4285:4376  function getUsdtAmount() public view returns (uint256) {... */\n      jump(tag_84)\n        /* \"msc_token/BeePresell.sol\":5217:5308  function getPreSellCounter() public view returns (uint64) {... */\n    tag_33:\n        /* \"msc_token/BeePresell.sol\":5293:5300  counter */\n      and(0xffffffff, sload(0x07))\n        /* \"msc_token/BeePresell.sol\":5217:5308  function getPreSellCounter() public view returns (uint64) {... */\n      jump(tag_47)\n        /* \"msc_token/BeePresell.sol\":2090:2291  function transferOwnership(address newOwner) public virtual onlyOwner {... */\n    tag_34:\n      tag_57\n      tag_154\n      calldatasize\n      0x04\n      tag_53\n      jump\t// in\n    tag_154:\n      tag_155\n      jump\t// in\n        /* \"msc_token/BeePresell.sol\":8446:8554  function setMarketAddress(address newAddress) public onlyOwner {... */\n    tag_35:\n      tag_57\n      tag_157\n      calldatasize\n      0x04\n      tag_53\n      jump\t// in\n    tag_157:\n      tag_158\n      jump\t// in\n        /* \"msc_token/BeePresell.sol\":8568:8664  function setAmount(uint256 newAmount) public onlyOwner {... */\n    tag_60:\n        /* \"msc_token/BeePresell.sol\":1227:1234  address */\n      0x00\n        /* \"msc_token/BeePresell.sol\":1254:1260  _owner */\n      sload\n      sub(shl(0xa0, 0x01), 0x01)\n      and\n        /* \"msc_token/BeePresell.sol\":635:645  msg.sender */\n      caller\n        /* \"msc_token/BeePresell.sol\":1401:1424  owner() == _msgSender() */\n      eq\n        /* \"msc_token/BeePresell.sol\":1393:1461  require(owner() == _msgSender(), \"Ownable: caller is not the owner\") */\n      tag_164\n      jumpi\n      mload(0x40)\n      shl(0xe5, 0x461bcd)\n      dup2\n      mstore\n      0x04\n      add\n      tag_165\n      swap1\n      tag_166\n      jump\t// in\n    tag_165:\n      mload(0x40)\n      dup1\n      swap2\n      sub\n      swap1\n      revert\n    tag_164:\n        /* \"msc_token/BeePresell.sol\":8634:8644  usdtAmount */\n      0x04\n        /* \"msc_token/BeePresell.sol\":8634:8656  usdtAmount = newAmount */\n      sstore\n        /* \"msc_token/BeePresell.sol\":8568:8664  function setAmount(uint256 newAmount) public onlyOwner {... */\n      jump\t// out\n        /* \"msc_token/BeePresell.sol\":7853:8253  function withdrawInviteAirdropTokens() public {... */\n    tag_62:\n        /* \"msc_token/BeePresell.sol\":7918:7923  endAt */\n      sload(0x07)\n        /* \"msc_token/BeePresell.sol\":7926:7941  block.timestamp */\n      timestamp\n      shl(0xc0, 0x01)\n        /* \"msc_token/BeePresell.sol\":7918:7923  endAt */\n      swap1\n      swap2\n      div\n      0xffffffffffffffff\n      and\n        /* \"msc_token/BeePresell.sol\":7918:7941  endAt < block.timestamp */\n      lt\n        /* \"msc_token/BeePresell.sol\":7910:7961  require(endAt < block.timestamp, \"presell not end\") */\n      tag_169\n      jumpi\n      mload(0x40)\n      shl(0xe5, 0x461bcd)\n      dup2\n      mstore\n        /* \"#utility.yul\":3200:3202   */\n      0x20\n        /* \"msc_token/BeePresell.sol\":7910:7961  require(endAt < block.timestamp, \"presell not end\") */\n      0x04\n      dup3\n      add\n        /* \"#utility.yul\":3182:3203   */\n      mstore\n        /* \"#utility.yul\":3239:3241   */\n      0x0f\n        /* \"#utility.yul\":3219:3237   */\n      0x24\n      dup3\n      add\n        /* \"#utility.yul\":3212:3242   */\n      mstore\n      shl(0x8a, 0x1c1c995cd95b1b081b9bdd08195b99)\n        /* \"#utility.yul\":3258:3276   */\n      0x44\n      dup3\n      add\n        /* \"#utility.yul\":3251:3296   */\n      mstore\n        /* \"#utility.yul\":3313:3331   */\n      0x64\n      add\n        /* \"msc_token/BeePresell.sol\":7910:7961  require(endAt < block.timestamp, \"presell not end\") */\n      tag_165\n        /* \"#utility.yul\":2998:3337   */\n      jump\n        /* \"msc_token/BeePresell.sol\":7910:7961  require(endAt < block.timestamp, \"presell not end\") */\n    tag_169:\n        /* \"msc_token/BeePresell.sol\":8004:8014  msg.sender */\n      caller\n        /* \"msc_token/BeePresell.sol\":7982:8015  userInviteBalancelMap[msg.sender] */\n      0x00\n      swap1\n      dup2\n      mstore\n        /* \"msc_token/BeePresell.sol\":7982:8003  userInviteBalancelMap */\n      0x0a\n        /* \"msc_token/BeePresell.sol\":7982:8015  userInviteBalancelMap[msg.sender] */\n      0x20\n      mstore\n      0x40\n      swap1\n      keccak256\n      sload\n      0xff\n      and\n        /* \"msc_token/BeePresell.sol\":7982:8023  userInviteBalancelMap[msg.sender] == true */\n      iszero\n      iszero\n        /* \"msc_token/BeePresell.sol\":7982:8015  userInviteBalancelMap[msg.sender] */\n      0x01\n        /* \"msc_token/BeePresell.sol\":7982:8023  userInviteBalancelMap[msg.sender] == true */\n      eq\n        /* \"msc_token/BeePresell.sol\":7974:8043  require(userInviteBalancelMap[msg.sender] == true, 'user not invite') */\n      tag_172\n      jumpi\n      mload(0x40)\n      shl(0xe5, 0x461bcd)\n      dup2\n      mstore\n        /* \"#utility.yul\":3544:3546   */\n      0x20\n        /* \"msc_token/BeePresell.sol\":7974:8043  require(userInviteBalancelMap[msg.sender] == true, 'user not invite') */\n      0x04\n      dup3\n      add\n        /* \"#utility.yul\":3526:3547   */\n      mstore\n        /* \"#utility.yul\":3583:3585   */\n      0x0f\n        /* \"#utility.yul\":3563:3581   */\n      0x24\n      dup3\n      add\n        /* \"#utility.yul\":3556:3586   */\n      mstore\n      shl(0x88, 0x75736572206e6f7420696e76697465)\n        /* \"#utility.yul\":3602:3620   */\n      0x44\n      dup3\n      add\n        /* \"#utility.yul\":3595:3640   */\n      mstore\n        /* \"#utility.yul\":3657:3675   */\n      0x64\n      add\n        /* \"msc_token/BeePresell.sol\":7974:8043  require(userInviteBalancelMap[msg.sender] == true, 'user not invite') */\n      tag_165\n        /* \"#utility.yul\":3342:3681   */\n      jump\n        /* \"msc_token/BeePresell.sol\":7974:8043  require(userInviteBalancelMap[msg.sender] == true, 'user not invite') */\n    tag_172:\n        /* \"msc_token/BeePresell.sol\":8056:8065  bool sent */\n      0x00\n        /* \"msc_token/BeePresell.sol\":8068:8077  sellToken */\n      immutable(\"0xc849ac6906fb063f44f99b9ae7fa6aacafa477545e0e3f40a74dbbf30335f84e\")\n      sub(shl(0xa0, 0x01), 0x01)\n        /* \"msc_token/BeePresell.sol\":8068:8086  sellToken.transfer */\n      and\n      0xa9059cbb\n        /* \"msc_token/BeePresell.sol\":8087:8097  msg.sender */\n      caller\n        /* \"msc_token/BeePresell.sol\":8099:8141  getUserInviteAirdropCoinAmount(msg.sender) */\n      tag_175\n        /* \"msc_token/BeePresell.sol\":8130:8140  msg.sender */\n      caller\n        /* \"msc_token/BeePresell.sol\":8099:8129  getUserInviteAirdropCoinAmount */\n      tag_127\n        /* \"msc_token/BeePresell.sol\":8099:8141  getUserInviteAirdropCoinAmount(msg.sender) */\n      jump\t// in\n    tag_175:\n        /* \"msc_token/BeePresell.sol\":8068:8142  sellToken.transfer(msg.sender, getUserInviteAirdropCoinAmount(msg.sender)) */\n      mload(0x40)\n      not(sub(shl(0xe0, 0x01), 0x01))\n      0xe0\n      dup6\n      swap1\n      shl\n      and\n      dup2\n      mstore\n      sub(shl(0xa0, 0x01), 0x01)\n        /* \"#utility.yul\":910:942   */\n      swap1\n      swap3\n      and\n        /* \"msc_token/BeePresell.sol\":8068:8142  sellToken.transfer(msg.sender, getUserInviteAirdropCoinAmount(msg.sender)) */\n      0x04\n      dup4\n      add\n        /* \"#utility.yul\":892:943   */\n      mstore\n        /* \"#utility.yul\":959:977   */\n      0x24\n      dup3\n      add\n        /* \"#utility.yul\":952:986   */\n      mstore\n        /* \"#utility.yul\":865:883   */\n      0x44\n      add\n        /* \"msc_token/BeePresell.sol\":8068:8142  sellToken.transfer(msg.sender, getUserInviteAirdropCoinAmount(msg.sender)) */\n      0x20\n      mload(0x40)\n      dup1\n      dup4\n      sub\n      dup2\n      0x00\n      dup8\n      gas\n      call\n      iszero\n      dup1\n      iszero\n      tag_178\n      jumpi\n      returndatasize\n      0x00\n      dup1\n      returndatacopy\n      revert(0x00, returndatasize)\n    tag_178:\n      pop\n      pop\n      pop\n      pop\n      mload(0x40)\n      returndatasize\n      not(0x1f)\n      0x1f\n      dup3\n      add\n      and\n      dup3\n      add\n      dup1\n      0x40\n      mstore\n      pop\n      dup2\n      add\n      swap1\n      tag_179\n      swap2\n      swap1\n      tag_180\n      jump\t// in\n    tag_179:\n        /* \"msc_token/BeePresell.sol\":8056:8142  bool sent = sellToken.transfer(msg.sender, getUserInviteAirdropCoinAmount(msg.sender)) */\n      swap1\n      pop\n        /* \"msc_token/BeePresell.sol\":8161:8165  sent */\n      dup1\n        /* \"msc_token/BeePresell.sol\":8153:8191  require(sent, \"Token transfer failed\") */\n      tag_181\n      jumpi\n      mload(0x40)\n      shl(0xe5, 0x461bcd)\n      dup2\n      mstore\n      0x04\n      add\n      tag_165\n      swap1\n      tag_183\n      jump\t// in\n    tag_181:\n      pop\n        /* \"msc_token/BeePresell.sol\":8226:8236  msg.sender */\n      caller\n        /* \"msc_token/BeePresell.sol\":8240:8245  false */\n      0x00\n        /* \"msc_token/BeePresell.sol\":8204:8237  userInviteBalancelMap[msg.sender] */\n      swap1\n      dup2\n      mstore\n        /* \"msc_token/BeePresell.sol\":8204:8225  userInviteBalancelMap */\n      0x0a\n        /* \"msc_token/BeePresell.sol\":8204:8237  userInviteBalancelMap[msg.sender] */\n      0x20\n      mstore\n      0x40\n      swap1\n      keccak256\n        /* \"msc_token/BeePresell.sol\":8204:8245  userInviteBalancelMap[msg.sender] = false */\n      dup1\n      sload\n      not(0xff)\n      and\n      swap1\n      sstore\n        /* \"msc_token/BeePresell.sol\":7853:8253  function withdrawInviteAirdropTokens() public {... */\n      jump\t// out\n        /* \"msc_token/BeePresell.sol\":8261:8438  function exigencyWithdraw(uint256 amount) public onlyOwner {... */\n    tag_77:\n        /* \"msc_token/BeePresell.sol\":1227:1234  address */\n      0x00\n        /* \"msc_token/BeePresell.sol\":1254:1260  _owner */\n      sload\n      sub(shl(0xa0, 0x01), 0x01)\n      and\n        /* \"msc_token/BeePresell.sol\":635:645  msg.sender */\n      caller\n        /* \"msc_token/BeePresell.sol\":1401:1424  owner() == _msgSender() */\n      eq\n        /* \"msc_token/BeePresell.sol\":1393:1461  require(owner() == _msgSender(), \"Ownable: caller is not the owner\") */\n      tag_189\n      jumpi\n      mload(0x40)\n      shl(0xe5, 0x461bcd)\n      dup2\n      mstore\n      0x04\n      add\n      tag_165\n      swap1\n      tag_166\n      jump\t// in\n    tag_189:\n        /* \"msc_token/BeePresell.sol\":8343:8381  sellToken.transfer(msg.sender, amount) */\n      mload(0x40)\n      shl(0xe0, 0xa9059cbb)\n      dup2\n      mstore\n        /* \"msc_token/BeePresell.sol\":8362:8372  msg.sender */\n      caller\n        /* \"msc_token/BeePresell.sol\":8343:8381  sellToken.transfer(msg.sender, amount) */\n      0x04\n      dup3\n      add\n        /* \"#utility.yul\":892:943   */\n      mstore\n        /* \"#utility.yul\":959:977   */\n      0x24\n      dup2\n      add\n        /* \"#utility.yul\":952:986   */\n      dup3\n      swap1\n      mstore\n        /* \"msc_token/BeePresell.sol\":8331:8340  bool sent */\n      0x00\n      swap1\n        /* \"msc_token/BeePresell.sol\":8343:8352  sellToken */\n      immutable(\"0xc849ac6906fb063f44f99b9ae7fa6aacafa477545e0e3f40a74dbbf30335f84e\")\n      sub(shl(0xa0, 0x01), 0x01)\n        /* \"msc_token/BeePresell.sol\":8343:8361  sellToken.transfer */\n      and\n      swap1\n      0xa9059cbb\n      swap1\n        /* \"#utility.yul\":865:883   */\n      0x44\n      add\n        /* \"msc_token/BeePresell.sol\":8343:8381  sellToken.transfer(msg.sender, amount) */\n      0x20\n      mload(0x40)\n      dup1\n      dup4\n      sub\n      dup2\n      0x00\n      dup8\n      gas\n      call\n      iszero\n      dup1\n      iszero\n      tag_194\n      jumpi\n      returndatasize\n      0x00\n      dup1\n      returndatacopy\n      revert(0x00, returndatasize)\n    tag_194:\n      pop\n      pop\n      pop\n      pop\n      mload(0x40)\n      returndatasize\n      not(0x1f)\n      0x1f\n      dup3\n      add\n      and\n      dup3\n      add\n      dup1\n      0x40\n      mstore\n      pop\n      dup2\n      add\n      swap1\n      tag_195\n      swap2\n      swap1\n      tag_180\n      jump\t// in\n    tag_195:\n        /* \"msc_token/BeePresell.sol\":8331:8381  bool sent = sellToken.transfer(msg.sender, amount) */\n      swap1\n      pop\n        /* \"msc_token/BeePresell.sol\":8400:8404  sent */\n      dup1\n        /* \"msc_token/BeePresell.sol\":8392:8430  require(sent, \"Token transfer failed\") */\n      tag_196\n      jumpi\n      mload(0x40)\n      shl(0xe5, 0x461bcd)\n      dup2\n      mstore\n      0x04\n      add\n      tag_165\n      swap1\n      tag_183\n      jump\t// in\n    tag_196:\n        /* \"msc_token/BeePresell.sol\":8320:8438  {... */\n      pop\n        /* \"msc_token/BeePresell.sol\":8261:8438  function exigencyWithdraw(uint256 amount) public onlyOwner {... */\n      pop\n      jump\t// out\n        /* \"msc_token/BeePresell.sol\":1832:1935  function renounceOwnership() public virtual onlyOwner {... */\n    tag_83:\n        /* \"msc_token/BeePresell.sol\":1227:1234  address */\n      0x00\n        /* \"msc_token/BeePresell.sol\":1254:1260  _owner */\n      sload\n      sub(shl(0xa0, 0x01), 0x01)\n      and\n        /* \"msc_token/BeePresell.sol\":635:645  msg.sender */\n      caller\n        /* \"msc_token/BeePresell.sol\":1401:1424  owner() == _msgSender() */\n      eq\n        /* \"msc_token/BeePresell.sol\":1393:1461  require(owner() == _msgSender(), \"Ownable: caller is not the owner\") */\n      tag_201\n      jumpi\n      mload(0x40)\n      shl(0xe5, 0x461bcd)\n      dup2\n      mstore\n      0x04\n      add\n      tag_165\n      swap1\n      tag_166\n      jump\t// in\n    tag_201:\n        /* \"msc_token/BeePresell.sol\":1897:1927  _transferOwnership(address(0)) */\n      tag_204\n        /* \"msc_token/BeePresell.sol\":1924:1925  0 */\n      0x00\n        /* \"msc_token/BeePresell.sol\":1897:1915  _transferOwnership */\n      tag_205\n        /* \"msc_token/BeePresell.sol\":1897:1927  _transferOwnership(address(0)) */\n      jump\t// in\n    tag_204:\n        /* \"msc_token/BeePresell.sol\":1832:1935  function renounceOwnership() public virtual onlyOwner {... */\n      jump\t// out\n        /* \"msc_token/BeePresell.sol\":5815:6774  function acceptInvitation(address _inviter) public returns (bool) {... */\n    tag_100:\n        /* \"msc_token/BeePresell.sol\":5900:5907  startAt */\n      sload(0x07)\n        /* \"msc_token/BeePresell.sol\":5875:5879  bool */\n      0x00\n      swap1\n        /* \"msc_token/BeePresell.sol\":5910:5925  block.timestamp */\n      timestamp\n      shl(0x80, 0x01)\n        /* \"msc_token/BeePresell.sol\":5900:5907  startAt */\n      swap1\n      swap2\n      div\n      0xffffffffffffffff\n      and\n        /* \"msc_token/BeePresell.sol\":5900:5925  startAt < block.timestamp */\n      lt\n        /* \"msc_token/BeePresell.sol\":5892:5939  require(startAt < block.timestamp, \"not start\") */\n      tag_210\n      jumpi\n      mload(0x40)\n      shl(0xe5, 0x461bcd)\n      dup2\n      mstore\n        /* \"#utility.yul\":4520:4522   */\n      0x20\n        /* \"msc_token/BeePresell.sol\":5892:5939  require(startAt < block.timestamp, \"not start\") */\n      0x04\n      dup3\n      add\n        /* \"#utility.yul\":4502:4523   */\n      mstore\n        /* \"#utility.yul\":4559:4560   */\n      0x09\n        /* \"#utility.yul\":4539:4557   */\n      0x24\n      dup3\n      add\n        /* \"#utility.yul\":4532:4561   */\n      mstore\n      shl(0xba, 0x1b9bdd081cdd185c9d)\n        /* \"#utility.yul\":4577:4595   */\n      0x44\n      dup3\n      add\n        /* \"#utility.yul\":4570:4609   */\n      mstore\n        /* \"#utility.yul\":4626:4644   */\n      0x64\n      add\n        /* \"msc_token/BeePresell.sol\":5892:5939  require(startAt < block.timestamp, \"not start\") */\n      tag_165\n        /* \"#utility.yul\":4318:4650   */\n      jump\n        /* \"msc_token/BeePresell.sol\":5892:5939  require(startAt < block.timestamp, \"not start\") */\n    tag_210:\n        /* \"msc_token/BeePresell.sol\":5958:5963  endAt */\n      sload(0x07)\n        /* \"msc_token/BeePresell.sol\":5966:5981  block.timestamp */\n      timestamp\n      shl(0xc0, 0x01)\n        /* \"msc_token/BeePresell.sol\":5958:5963  endAt */\n      swap1\n      swap2\n      div\n      0xffffffffffffffff\n      and\n        /* \"msc_token/BeePresell.sol\":5958:5981  endAt > block.timestamp */\n      gt\n        /* \"msc_token/BeePresell.sol\":5950:5993  require(endAt > block.timestamp, \"has end\") */\n      tag_213\n      jumpi\n      mload(0x40)\n      shl(0xe5, 0x461bcd)\n      dup2\n      mstore\n        /* \"#utility.yul\":4857:4859   */\n      0x20\n        /* \"msc_token/BeePresell.sol\":5950:5993  require(endAt > block.timestamp, \"has end\") */\n      0x04\n      dup3\n      add\n        /* \"#utility.yul\":4839:4860   */\n      mstore\n        /* \"#utility.yul\":4896:4897   */\n      0x07\n        /* \"#utility.yul\":4876:4894   */\n      0x24\n      dup3\n      add\n        /* \"#utility.yul\":4869:4898   */\n      mstore\n      shl(0xca, 0x1a185cc8195b99)\n        /* \"#utility.yul\":4914:4932   */\n      0x44\n      dup3\n      add\n        /* \"#utility.yul\":4907:4944   */\n      mstore\n        /* \"#utility.yul\":4961:4979   */\n      0x64\n      add\n        /* \"msc_token/BeePresell.sol\":5950:5993  require(endAt > block.timestamp, \"has end\") */\n      tag_165\n        /* \"#utility.yul\":4655:4985   */\n      jump\n        /* \"msc_token/BeePresell.sol\":5950:5993  require(endAt > block.timestamp, \"has end\") */\n    tag_213:\n      sub(shl(0xa0, 0x01), 0x01)\n        /* \"msc_token/BeePresell.sol\":6012:6028  hasBuy[_inviter] */\n      dup3\n      and\n      0x00\n      swap1\n      dup2\n      mstore\n        /* \"msc_token/BeePresell.sol\":6012:6018  hasBuy */\n      0x0b\n        /* \"msc_token/BeePresell.sol\":6012:6028  hasBuy[_inviter] */\n      0x20\n      mstore\n      0x40\n      swap1\n      keccak256\n      sload\n      0xff\n      and\n        /* \"msc_token/BeePresell.sol\":6004:6050  require(hasBuy[_inviter], \"Bee:upper not buy\") */\n      tag_216\n      jumpi\n      mload(0x40)\n      shl(0xe5, 0x461bcd)\n      dup2\n      mstore\n        /* \"#utility.yul\":5192:5194   */\n      0x20\n        /* \"msc_token/BeePresell.sol\":6004:6050  require(hasBuy[_inviter], \"Bee:upper not buy\") */\n      0x04\n      dup3\n      add\n        /* \"#utility.yul\":5174:5195   */\n      mstore\n        /* \"#utility.yul\":5231:5233   */\n      0x11\n        /* \"#utility.yul\":5211:5229   */\n      0x24\n      dup3\n      add\n        /* \"#utility.yul\":5204:5234   */\n      mstore\n      shl(0x78, 0x4265653a7570706572206e6f7420627579)\n        /* \"#utility.yul\":5250:5268   */\n      0x44\n      dup3\n      add\n        /* \"#utility.yul\":5243:5290   */\n      mstore\n        /* \"#utility.yul\":5307:5325   */\n      0x64\n      add\n        /* \"msc_token/BeePresell.sol\":6004:6050  require(hasBuy[_inviter], \"Bee:upper not buy\") */\n      tag_165\n        /* \"#utility.yul\":4990:5331   */\n      jump\n        /* \"msc_token/BeePresell.sol\":6004:6050  require(hasBuy[_inviter], \"Bee:upper not buy\") */\n    tag_216:\n        /* \"msc_token/BeePresell.sol\":6076:6086  msg.sender */\n      caller\n        /* \"msc_token/BeePresell.sol\":6069:6087  hasBuy[msg.sender] */\n      0x00\n      swap1\n      dup2\n      mstore\n        /* \"msc_token/BeePresell.sol\":6069:6075  hasBuy */\n      0x0b\n        /* \"msc_token/BeePresell.sol\":6069:6087  hasBuy[msg.sender] */\n      0x20\n      mstore\n      0x40\n      swap1\n      keccak256\n      sload\n      0xff\n      and\n        /* \"msc_token/BeePresell.sol\":6061:6108  require(hasBuy[msg.sender], \"Bee:user not buy\") */\n      tag_219\n      jumpi\n      mload(0x40)\n      shl(0xe5, 0x461bcd)\n      dup2\n      mstore\n        /* \"#utility.yul\":5538:5540   */\n      0x20\n        /* \"msc_token/BeePresell.sol\":6061:6108  require(hasBuy[msg.sender], \"Bee:user not buy\") */\n      0x04\n      dup3\n      add\n        /* \"#utility.yul\":5520:5541   */\n      mstore\n        /* \"#utility.yul\":5577:5579   */\n      0x10\n        /* \"#utility.yul\":5557:5575   */\n      0x24\n      dup3\n      add\n        /* \"#utility.yul\":5550:5580   */\n      mstore\n      shl(0x80, 0x4265653a75736572206e6f7420627579)\n        /* \"#utility.yul\":5596:5614   */\n      0x44\n      dup3\n      add\n        /* \"#utility.yul\":5589:5635   */\n      mstore\n        /* \"#utility.yul\":5652:5670   */\n      0x64\n      add\n        /* \"msc_token/BeePresell.sol\":6061:6108  require(hasBuy[msg.sender], \"Bee:user not buy\") */\n      tag_165\n        /* \"#utility.yul\":5336:5676   */\n      jump\n        /* \"msc_token/BeePresell.sol\":6061:6108  require(hasBuy[msg.sender], \"Bee:user not buy\") */\n    tag_219:\n      sub(shl(0xa0, 0x01), 0x01)\n        /* \"msc_token/BeePresell.sol\":6129:6151  msg.sender != _inviter */\n      dup3\n      and\n        /* \"msc_token/BeePresell.sol\":6129:6139  msg.sender */\n      caller\n        /* \"msc_token/BeePresell.sol\":6129:6151  msg.sender != _inviter */\n      sub\n        /* \"msc_token/BeePresell.sol\":6121:6169  require(msg.sender != _inviter, \"Bee:FORBIDDEN\") */\n      tag_222\n      jumpi\n      mload(0x40)\n      shl(0xe5, 0x461bcd)\n      dup2\n      mstore\n        /* \"#utility.yul\":5883:5885   */\n      0x20\n        /* \"msc_token/BeePresell.sol\":6121:6169  require(msg.sender != _inviter, \"Bee:FORBIDDEN\") */\n      0x04\n      dup3\n      add\n        /* \"#utility.yul\":5865:5886   */\n      mstore\n        /* \"#utility.yul\":5922:5924   */\n      0x0d\n        /* \"#utility.yul\":5902:5920   */\n      0x24\n      dup3\n      add\n        /* \"#utility.yul\":5895:5925   */\n      mstore\n      shl(0x99, 0x2132b29d2327a92124a22222a7)\n        /* \"#utility.yul\":5941:5959   */\n      0x44\n      dup3\n      add\n        /* \"#utility.yul\":5934:5977   */\n      mstore\n        /* \"#utility.yul\":5994:6012   */\n      0x64\n      add\n        /* \"msc_token/BeePresell.sol\":6121:6169  require(msg.sender != _inviter, \"Bee:FORBIDDEN\") */\n      tag_165\n        /* \"#utility.yul\":5681:6018   */\n      jump\n        /* \"msc_token/BeePresell.sol\":6121:6169  require(msg.sender != _inviter, \"Bee:FORBIDDEN\") */\n    tag_222:\n        /* \"msc_token/BeePresell.sol\":6217:6227  msg.sender */\n      caller\n        /* \"msc_token/BeePresell.sol\":6182:6203  UserInfo storage user */\n      0x00\n        /* \"msc_token/BeePresell.sol\":6206:6228  inviteInfo[msg.sender] */\n      dup2\n      dup2\n      mstore\n        /* \"msc_token/BeePresell.sol\":6206:6216  inviteInfo */\n      0x08\n        /* \"msc_token/BeePresell.sol\":6206:6228  inviteInfo[msg.sender] */\n      0x20\n      mstore\n      0x40\n      dup1\n      dup3\n      keccak256\n      sub(shl(0xa0, 0x01), 0x01)\n        /* \"msc_token/BeePresell.sol\":6264:6284  inviteInfo[_inviter] */\n      dup7\n      dup2\n      and\n      dup5\n      mstore\n      swap2\n      swap1\n      swap3\n      keccak256\n        /* \"msc_token/BeePresell.sol\":6305:6316  upper.upper */\n      dup1\n      sload\n        /* \"msc_token/BeePresell.sol\":6206:6228  inviteInfo[msg.sender] */\n      swap3\n      swap4\n        /* \"msc_token/BeePresell.sol\":6264:6284  inviteInfo[_inviter] */\n      swap1\n      swap3\n        /* \"msc_token/BeePresell.sol\":6305:6316  upper.upper */\n      swap1\n      swap2\n      and\n        /* \"msc_token/BeePresell.sol\":6305:6330  upper.upper != msg.sender */\n      sub\n        /* \"msc_token/BeePresell.sol\":6297:6369  require(upper.upper != msg.sender, \"The inviter is a lower to the user\") */\n      tag_225\n      jumpi\n      mload(0x40)\n      shl(0xe5, 0x461bcd)\n      dup2\n      mstore\n        /* \"#utility.yul\":6225:6227   */\n      0x20\n        /* \"msc_token/BeePresell.sol\":6297:6369  require(upper.upper != msg.sender, \"The inviter is a lower to the user\") */\n      0x04\n      dup3\n      add\n        /* \"#utility.yul\":6207:6228   */\n      mstore\n        /* \"#utility.yul\":6264:6266   */\n      0x22\n        /* \"#utility.yul\":6244:6262   */\n      0x24\n      dup3\n      add\n        /* \"#utility.yul\":6237:6267   */\n      mstore\n        /* \"#utility.yul\":6303:6337   */\n      0x54686520696e76697465722069732061206c6f77657220746f20746865207573\n        /* \"#utility.yul\":6283:6301   */\n      0x44\n      dup3\n      add\n        /* \"#utility.yul\":6276:6338   */\n      mstore\n      shl(0xf1, 0x32b9)\n        /* \"#utility.yul\":6354:6372   */\n      0x64\n      dup3\n      add\n        /* \"#utility.yul\":6347:6379   */\n      mstore\n        /* \"#utility.yul\":6396:6415   */\n      0x84\n      add\n        /* \"msc_token/BeePresell.sol\":6297:6369  require(upper.upper != msg.sender, \"The inviter is a lower to the user\") */\n      tag_165\n        /* \"#utility.yul\":6023:6421   */\n      jump\n        /* \"msc_token/BeePresell.sol\":6297:6369  require(upper.upper != msg.sender, \"The inviter is a lower to the user\") */\n    tag_225:\n        /* \"msc_token/BeePresell.sol\":6390:6400  user.upper */\n      dup2\n      sload\n      sub(shl(0xa0, 0x01), 0x01)\n        /* \"msc_token/BeePresell.sol\":6390:6412  user.upper != _inviter */\n      dup1\n      dup7\n      and\n        /* \"msc_token/BeePresell.sol\":6390:6400  user.upper */\n      swap2\n      and\n        /* \"msc_token/BeePresell.sol\":6390:6412  user.upper != _inviter */\n      sub\n        /* \"msc_token/BeePresell.sol\":6382:6436  require(user.upper != _inviter, \"Repeated invitation\") */\n      tag_228\n      jumpi\n      mload(0x40)\n      shl(0xe5, 0x461bcd)\n      dup2\n      mstore\n        /* \"#utility.yul\":6628:6630   */\n      0x20\n        /* \"msc_token/BeePresell.sol\":6382:6436  require(user.upper != _inviter, \"Repeated invitation\") */\n      0x04\n      dup3\n      add\n        /* \"#utility.yul\":6610:6631   */\n      mstore\n        /* \"#utility.yul\":6667:6669   */\n      0x13\n        /* \"#utility.yul\":6647:6665   */\n      0x24\n      dup3\n      add\n        /* \"#utility.yul\":6640:6670   */\n      mstore\n      shl(0x69, 0x2932b832b0ba32b21034b73b34ba30ba34b7b7)\n        /* \"#utility.yul\":6686:6704   */\n      0x44\n      dup3\n      add\n        /* \"#utility.yul\":6679:6728   */\n      mstore\n        /* \"#utility.yul\":6745:6763   */\n      0x64\n      add\n        /* \"msc_token/BeePresell.sol\":6382:6436  require(user.upper != _inviter, \"Repeated invitation\") */\n      tag_165\n        /* \"#utility.yul\":6426:6769   */\n      jump\n        /* \"msc_token/BeePresell.sol\":6382:6436  require(user.upper != _inviter, \"Repeated invitation\") */\n    tag_228:\n        /* \"msc_token/BeePresell.sol\":6457:6467  user.upper */\n      dup2\n      sload\n      sub(shl(0xa0, 0x01), 0x01)\n      and\n        /* \"msc_token/BeePresell.sol\":6457:6481  user.upper == address(0) */\n      iszero\n        /* \"msc_token/BeePresell.sol\":6449:6506  require(user.upper == address(0), \"Already have a upper\") */\n      tag_231\n      jumpi\n      mload(0x40)\n      shl(0xe5, 0x461bcd)\n      dup2\n      mstore\n        /* \"#utility.yul\":6976:6978   */\n      0x20\n        /* \"msc_token/BeePresell.sol\":6449:6506  require(user.upper == address(0), \"Already have a upper\") */\n      0x04\n      dup3\n      add\n        /* \"#utility.yul\":6958:6979   */\n      mstore\n        /* \"#utility.yul\":7015:7017   */\n      0x14\n        /* \"#utility.yul\":6995:7013   */\n      0x24\n      dup3\n      add\n        /* \"#utility.yul\":6988:7018   */\n      mstore\n      shl(0x61, 0x20b63932b0b23c903430bb329030903ab83832b9)\n        /* \"#utility.yul\":7034:7052   */\n      0x44\n      dup3\n      add\n        /* \"#utility.yul\":7027:7077   */\n      mstore\n        /* \"#utility.yul\":7094:7112   */\n      0x64\n      add\n        /* \"msc_token/BeePresell.sol\":6449:6506  require(user.upper == address(0), \"Already have a upper\") */\n      tag_165\n        /* \"#utility.yul\":6774:7118   */\n      jump\n        /* \"msc_token/BeePresell.sol\":6449:6506  require(user.upper == address(0), \"Already have a upper\") */\n    tag_231:\n        /* \"msc_token/BeePresell.sol\":6519:6540  user.upper = _inviter */\n      dup2\n      sload\n      sub(shl(0xa0, 0x01), 0x01)\n      dup6\n      and\n      not(sub(shl(0xa0, 0x01), 0x01))\n      swap2\n      dup3\n      and\n      dup2\n      or\n      dup5\n      sstore\n        /* \"msc_token/BeePresell.sol\":6569:6581  block.number */\n      number\n        /* \"msc_token/BeePresell.sol\":6551:6566  user.startBlock */\n      0x02\n      dup1\n      dup7\n      add\n        /* \"msc_token/BeePresell.sol\":6551:6581  user.startBlock = block.number */\n      dup3\n      swap1\n      sstore\n        /* \"msc_token/BeePresell.sol\":6594:6610  upper.startBlock */\n      dup5\n      add\n        /* \"msc_token/BeePresell.sol\":6594:6625  upper.startBlock = block.number */\n      sstore\n        /* \"msc_token/BeePresell.sol\":6519:6540  user.upper = _inviter */\n      0x01\n        /* \"msc_token/BeePresell.sol\":6636:6648  upper.lowers */\n      dup4\n      dup2\n      add\n        /* \"msc_token/BeePresell.sol\":6636:6665  upper.lowers.push(msg.sender) */\n      dup1\n      sload\n      dup1\n      dup4\n      add\n      dup3\n      sstore\n        /* \"msc_token/BeePresell.sol\":6519:6529  user.upper */\n      0x00\n        /* \"msc_token/BeePresell.sol\":6636:6665  upper.lowers.push(msg.sender) */\n      swap2\n      dup3\n      mstore\n      0x20\n      dup1\n      dup4\n      keccak256\n      swap1\n      swap2\n      add\n      dup1\n      sload\n      swap1\n      swap6\n      and\n        /* \"msc_token/BeePresell.sol\":6654:6664  msg.sender */\n      caller\n        /* \"msc_token/BeePresell.sol\":6636:6665  upper.lowers.push(msg.sender) */\n      or\n      swap1\n      swap5\n      sstore\n        /* \"msc_token/BeePresell.sol\":6678:6709  userInviteBalancelMap[_inviter] */\n      swap2\n      dup3\n      mstore\n        /* \"msc_token/BeePresell.sol\":6678:6699  userInviteBalancelMap */\n      0x0a\n        /* \"msc_token/BeePresell.sol\":6678:6709  userInviteBalancelMap[_inviter] */\n      swap1\n      swap3\n      mstore\n      0x40\n      swap1\n      keccak256\n        /* \"msc_token/BeePresell.sol\":6678:6716  userInviteBalancelMap[_inviter] = true */\n      dup1\n      sload\n      not(0xff)\n      and\n      swap1\n      swap2\n      or\n      swap1\n      sstore\n        /* \"msc_token/BeePresell.sol\":6729:6742  lowersCounter */\n      0x07\n        /* \"msc_token/BeePresell.sol\":6727:6742  ++lowersCounter */\n      dup1\n      sload\n        /* \"msc_token/BeePresell.sol\":6729:6742  lowersCounter */\n      0x08\n      swap1\n        /* \"msc_token/BeePresell.sol\":6727:6742  ++lowersCounter */\n      tag_235\n      swap1\n      0xffffffff\n      shl(0x40, 0x01)\n      swap1\n      swap2\n      div\n      and\n      tag_236\n      jump\t// in\n    tag_235:\n      swap2\n      swap1\n      0x0100\n      exp\n      dup2\n      sload\n      dup2\n      0xffffffff\n      mul\n      not\n      and\n      swap1\n      dup4\n      0xffffffff\n      and\n      mul\n      or\n      swap1\n      sstore\n      pop\n        /* \"msc_token/BeePresell.sol\":6762:6766  true */\n      0x01\n        /* \"msc_token/BeePresell.sol\":6755:6766  return true */\n      swap3\n      pop\n      pop\n      pop\n        /* \"msc_token/BeePresell.sol\":5815:6774  function acceptInvitation(address _inviter) public returns (bool) {... */\n      swap2\n      swap1\n      pop\n      jump\t// out\n        /* \"msc_token/BeePresell.sol\":5560:5685  function getUserLowers(address user) public view returns (address[] memory) {... */\n    tag_122:\n      sub(shl(0xa0, 0x01), 0x01)\n        /* \"msc_token/BeePresell.sol\":5654:5670  inviteInfo[user] */\n      dup2\n      and\n      0x00\n      swap1\n      dup2\n      mstore\n        /* \"msc_token/BeePresell.sol\":5654:5664  inviteInfo */\n      0x08\n        /* \"msc_token/BeePresell.sol\":5654:5670  inviteInfo[user] */\n      0x20\n      swap1\n      dup2\n      mstore\n      0x40\n      swap2\n      dup3\n      swap1\n      keccak256\n        /* \"msc_token/BeePresell.sol\":5654:5677  inviteInfo[user].lowers */\n      0x01\n      add\n        /* \"msc_token/BeePresell.sol\":5647:5677  return inviteInfo[user].lowers */\n      dup1\n      sload\n      dup4\n      mload\n      dup2\n      dup5\n      mul\n      dup2\n      add\n      dup5\n      add\n      swap1\n      swap5\n      mstore\n      dup1\n      dup5\n      mstore\n        /* \"msc_token/BeePresell.sol\":5618:5634  address[] memory */\n      0x60\n      swap4\n        /* \"msc_token/BeePresell.sol\":5647:5677  return inviteInfo[user].lowers */\n      swap3\n      dup4\n      add\n        /* \"msc_token/BeePresell.sol\":5654:5677  inviteInfo[user].lowers */\n      dup3\n        /* \"msc_token/BeePresell.sol\":5647:5677  return inviteInfo[user].lowers */\n      dup3\n      dup1\n      iszero\n      tag_238\n      jumpi\n      0x20\n      mul\n      dup3\n      add\n      swap2\n      swap1\n      0x00\n      mstore\n      keccak256(0x00, 0x20)\n      swap1\n    tag_239:\n      dup2\n      sload\n      sub(shl(0xa0, 0x01), 0x01)\n      and\n      dup2\n      mstore\n      0x01\n      swap1\n      swap2\n      add\n      swap1\n      0x20\n      add\n      dup1\n      dup4\n      gt\n      tag_239\n      jumpi\n    tag_238:\n      pop\n      pop\n      pop\n      pop\n      pop\n      swap1\n      pop\n        /* \"msc_token/BeePresell.sol\":5560:5685  function getUserLowers(address user) public view returns (address[] memory) {... */\n      swap2\n      swap1\n      pop\n      jump\t// out\n        /* \"msc_token/BeePresell.sol\":4733:4915  function getUserInviteAirdropCoinAmount(address user) public view returns (uint256) {... */\n    tag_127:\n      sub(shl(0xa0, 0x01), 0x01)\n        /* \"msc_token/BeePresell.sol\":4877:4893  inviteInfo[user] */\n      dup2\n      and\n        /* \"msc_token/BeePresell.sol\":4808:4815  uint256 */\n      0x00\n        /* \"msc_token/BeePresell.sol\":4877:4893  inviteInfo[user] */\n      swap1\n      dup2\n      mstore\n        /* \"msc_token/BeePresell.sol\":4877:4887  inviteInfo */\n      0x08\n        /* \"msc_token/BeePresell.sol\":4877:4893  inviteInfo[user] */\n      0x20\n      mstore\n      0x40\n      dup2\n      keccak256\n        /* \"msc_token/BeePresell.sol\":4877:4900  inviteInfo[user].lowers */\n      0x01\n      add\n        /* \"msc_token/BeePresell.sol\":4877:4907  inviteInfo[user].lowers.length */\n      sload\n        /* \"msc_token/BeePresell.sol\":4861:4874  lowersCounter */\n      sload(0x07)\n        /* \"msc_token/BeePresell.sol\":4835:4858  inviteAirdropCoinAmount */\n      sload(0x06)\n        /* \"msc_token/BeePresell.sol\":4835:4874  inviteAirdropCoinAmount / lowersCounter */\n      tag_241\n      swap2\n      shl(0x40, 0x01)\n        /* \"msc_token/BeePresell.sol\":4861:4874  lowersCounter */\n      swap1\n      div\n      0xffffffff\n      and\n      swap1\n        /* \"msc_token/BeePresell.sol\":4835:4874  inviteAirdropCoinAmount / lowersCounter */\n      tag_242\n      jump\t// in\n    tag_241:\n        /* \"msc_token/BeePresell.sol\":4835:4907  inviteAirdropCoinAmount / lowersCounter * inviteInfo[user].lowers.length */\n      tag_243\n      swap2\n      swap1\n      tag_244\n      jump\t// in\n    tag_243:\n        /* \"msc_token/BeePresell.sol\":4828:4907  return inviteAirdropCoinAmount / lowersCounter * inviteInfo[user].lowers.length */\n      swap3\n        /* \"msc_token/BeePresell.sol\":4733:4915  function getUserInviteAirdropCoinAmount(address user) public view returns (uint256) {... */\n      swap2\n      pop\n      pop\n      jump\t// out\n        /* \"msc_token/BeePresell.sol\":7438:7845  function withdrawPresellTokens() public {... */\n    tag_137:\n        /* \"msc_token/BeePresell.sol\":7497:7502  endAt */\n      sload(0x07)\n        /* \"msc_token/BeePresell.sol\":7505:7520  block.timestamp */\n      timestamp\n      shl(0xc0, 0x01)\n        /* \"msc_token/BeePresell.sol\":7497:7502  endAt */\n      swap1\n      swap2\n      div\n      0xffffffffffffffff\n      and\n        /* \"msc_token/BeePresell.sol\":7497:7520  endAt < block.timestamp */\n      lt\n        /* \"msc_token/BeePresell.sol\":7489:7540  require(endAt < block.timestamp, \"presell not end\") */\n      tag_248\n      jumpi\n      mload(0x40)\n      shl(0xe5, 0x461bcd)\n      dup2\n      mstore\n        /* \"#utility.yul\":3200:3202   */\n      0x20\n        /* \"msc_token/BeePresell.sol\":7489:7540  require(endAt < block.timestamp, \"presell not end\") */\n      0x04\n      dup3\n      add\n        /* \"#utility.yul\":3182:3203   */\n      mstore\n        /* \"#utility.yul\":3239:3241   */\n      0x0f\n        /* \"#utility.yul\":3219:3237   */\n      0x24\n      dup3\n      add\n        /* \"#utility.yul\":3212:3242   */\n      mstore\n      shl(0x8a, 0x1c1c995cd95b1b081b9bdd08195b99)\n        /* \"#utility.yul\":3258:3276   */\n      0x44\n      dup3\n      add\n        /* \"#utility.yul\":3251:3296   */\n      mstore\n        /* \"#utility.yul\":3313:3331   */\n      0x64\n      add\n        /* \"msc_token/BeePresell.sol\":7489:7540  require(endAt < block.timestamp, \"presell not end\") */\n      tag_165\n        /* \"#utility.yul\":2998:3337   */\n      jump\n        /* \"msc_token/BeePresell.sol\":7489:7540  require(endAt < block.timestamp, \"presell not end\") */\n    tag_248:\n        /* \"msc_token/BeePresell.sol\":7583:7593  msg.sender */\n      caller\n        /* \"msc_token/BeePresell.sol\":7597:7598  0 */\n      0x00\n        /* \"msc_token/BeePresell.sol\":7561:7594  userPresellBalanceMap[msg.sender] */\n      swap1\n      dup2\n      mstore\n        /* \"msc_token/BeePresell.sol\":7561:7582  userPresellBalanceMap */\n      0x09\n        /* \"msc_token/BeePresell.sol\":7561:7594  userPresellBalanceMap[msg.sender] */\n      0x20\n      mstore\n      0x40\n      swap1\n      keccak256\n      sload\n        /* \"msc_token/BeePresell.sol\":7553:7620  require(userPresellBalanceMap[msg.sender] > 0, 'user balance zero') */\n      tag_250\n      jumpi\n      mload(0x40)\n      shl(0xe5, 0x461bcd)\n      dup2\n      mstore\n        /* \"#utility.yul\":8058:8060   */\n      0x20\n        /* \"msc_token/BeePresell.sol\":7553:7620  require(userPresellBalanceMap[msg.sender] > 0, 'user balance zero') */\n      0x04\n      dup3\n      add\n        /* \"#utility.yul\":8040:8061   */\n      mstore\n        /* \"#utility.yul\":8097:8099   */\n      0x11\n        /* \"#utility.yul\":8077:8095   */\n      0x24\n      dup3\n      add\n        /* \"#utility.yul\":8070:8100   */\n      mstore\n      shl(0x78, 0x757365722062616c616e6365207a65726f)\n        /* \"#utility.yul\":8116:8134   */\n      0x44\n      dup3\n      add\n        /* \"#utility.yul\":8109:8156   */\n      mstore\n        /* \"#utility.yul\":8173:8191   */\n      0x64\n      add\n        /* \"msc_token/BeePresell.sol\":7553:7620  require(userPresellBalanceMap[msg.sender] > 0, 'user balance zero') */\n      tag_165\n        /* \"#utility.yul\":7856:8197   */\n      jump\n        /* \"msc_token/BeePresell.sol\":7553:7620  require(userPresellBalanceMap[msg.sender] > 0, 'user balance zero') */\n    tag_250:\n        /* \"msc_token/BeePresell.sol\":7664:7674  msg.sender */\n      caller\n        /* \"msc_token/BeePresell.sol\":7633:7642  bool sent */\n      0x00\n        /* \"msc_token/BeePresell.sol\":7676:7709  userPresellBalanceMap[msg.sender] */\n      dup2\n      dup2\n      mstore\n        /* \"msc_token/BeePresell.sol\":7676:7697  userPresellBalanceMap */\n      0x09\n        /* \"msc_token/BeePresell.sol\":7676:7709  userPresellBalanceMap[msg.sender] */\n      0x20\n      mstore\n      0x40\n      dup1\n      dup3\n      keccak256\n      sload\n        /* \"msc_token/BeePresell.sol\":7645:7710  sellToken.transfer(msg.sender, userPresellBalanceMap[msg.sender]) */\n      swap1\n      mload\n      shl(0xe0, 0xa9059cbb)\n      dup2\n      mstore\n      0x04\n      dup2\n      add\n        /* \"#utility.yul\":892:943   */\n      swap4\n      swap1\n      swap4\n      mstore\n        /* \"#utility.yul\":959:977   */\n      0x24\n      dup4\n      add\n        /* \"#utility.yul\":952:986   */\n      mstore\n        /* \"msc_token/BeePresell.sol\":7633:7642  bool sent */\n      swap1\n        /* \"msc_token/BeePresell.sol\":7645:7654  sellToken */\n      immutable(\"0xc849ac6906fb063f44f99b9ae7fa6aacafa477545e0e3f40a74dbbf30335f84e\")\n      sub(shl(0xa0, 0x01), 0x01)\n        /* \"msc_token/BeePresell.sol\":7645:7663  sellToken.transfer */\n      and\n      swap1\n      0xa9059cbb\n      swap1\n        /* \"#utility.yul\":865:883   */\n      0x44\n      add\n        /* \"msc_token/BeePresell.sol\":7645:7710  sellToken.transfer(msg.sender, userPresellBalanceMap[msg.sender]) */\n      0x20\n      mload(0x40)\n      dup1\n      dup4\n      sub\n      dup2\n      0x00\n      dup8\n      gas\n      call\n      iszero\n      dup1\n      iszero\n      tag_255\n      jumpi\n      returndatasize\n      0x00\n      dup1\n      returndatacopy\n      revert(0x00, returndatasize)\n    tag_255:\n      pop\n      pop\n      pop\n      pop\n      mload(0x40)\n      returndatasize\n      not(0x1f)\n      0x1f\n      dup3\n      add\n      and\n      dup3\n      add\n      dup1\n      0x40\n      mstore\n      pop\n      dup2\n      add\n      swap1\n      tag_256\n      swap2\n      swap1\n      tag_180\n      jump\t// in\n    tag_256:\n        /* \"msc_token/BeePresell.sol\":7633:7710  bool sent = sellToken.transfer(msg.sender, userPresellBalanceMap[msg.sender]) */\n      swap1\n      pop\n        /* \"msc_token/BeePresell.sol\":7729:7733  sent */\n      dup1\n        /* \"msc_token/BeePresell.sol\":7721:7759  require(sent, \"Token transfer failed\") */\n      tag_257\n      jumpi\n      mload(0x40)\n      shl(0xe5, 0x461bcd)\n      dup2\n      mstore\n      0x04\n      add\n      tag_165\n      swap1\n      tag_183\n      jump\t// in\n    tag_257:\n        /* \"msc_token/BeePresell.sol\":7794:7804  msg.sender */\n      caller\n        /* \"msc_token/BeePresell.sol\":7808:7809  0 */\n      0x00\n        /* \"msc_token/BeePresell.sol\":7772:7805  userPresellBalanceMap[msg.sender] */\n      swap1\n      dup2\n      mstore\n        /* \"msc_token/BeePresell.sol\":7772:7793  userPresellBalanceMap */\n      0x09\n        /* \"msc_token/BeePresell.sol\":7772:7805  userPresellBalanceMap[msg.sender] */\n      0x20\n      mstore\n      0x40\n      dup2\n      keccak256\n        /* \"msc_token/BeePresell.sol\":7772:7809  userPresellBalanceMap[msg.sender] = 0 */\n      sstore\n        /* \"msc_token/BeePresell.sol\":7820:7835  withdrawCounter */\n      0x07\n        /* \"msc_token/BeePresell.sol\":7820:7837  withdrawCounter++ */\n      dup1\n      sload\n      0x0100000000\n      swap1\n      div\n      0xffffffff\n      and\n      swap1\n        /* \"msc_token/BeePresell.sol\":7820:7835  withdrawCounter */\n      0x04\n        /* \"msc_token/BeePresell.sol\":7820:7837  withdrawCounter++ */\n      tag_259\n      dup4\n      tag_236\n      jump\t// in\n    tag_259:\n      swap2\n      swap1\n      0x0100\n      exp\n      dup2\n      sload\n      dup2\n      0xffffffff\n      mul\n      not\n      and\n      swap1\n      dup4\n      0xffffffff\n      and\n      mul\n      or\n      swap1\n      sstore\n      pop\n      pop\n        /* \"msc_token/BeePresell.sol\":7478:7845  {... */\n      pop\n        /* \"msc_token/BeePresell.sol\":7438:7845  function withdrawPresellTokens() public {... */\n      jump\t// out\n        /* \"msc_token/BeePresell.sol\":6782:7430  function buyTokens() public {... */\n    tag_139:\n        /* \"msc_token/BeePresell.sol\":6829:6836  startAt */\n      sload(0x07)\n        /* \"msc_token/BeePresell.sol\":6839:6854  block.timestamp */\n      timestamp\n      shl(0x80, 0x01)\n        /* \"msc_token/BeePresell.sol\":6829:6836  startAt */\n      swap1\n      swap2\n      div\n      0xffffffffffffffff\n      and\n        /* \"msc_token/BeePresell.sol\":6829:6854  startAt < block.timestamp */\n      lt\n        /* \"msc_token/BeePresell.sol\":6821:6868  require(startAt < block.timestamp, \"not start\") */\n      tag_261\n      jumpi\n      mload(0x40)\n      shl(0xe5, 0x461bcd)\n      dup2\n      mstore\n        /* \"#utility.yul\":4520:4522   */\n      0x20\n        /* \"msc_token/BeePresell.sol\":6821:6868  require(startAt < block.timestamp, \"not start\") */\n      0x04\n      dup3\n      add\n        /* \"#utility.yul\":4502:4523   */\n      mstore\n        /* \"#utility.yul\":4559:4560   */\n      0x09\n        /* \"#utility.yul\":4539:4557   */\n      0x24\n      dup3\n      add\n        /* \"#utility.yul\":4532:4561   */\n      mstore\n      shl(0xba, 0x1b9bdd081cdd185c9d)\n        /* \"#utility.yul\":4577:4595   */\n      0x44\n      dup3\n      add\n        /* \"#utility.yul\":4570:4609   */\n      mstore\n        /* \"#utility.yul\":4626:4644   */\n      0x64\n      add\n        /* \"msc_token/BeePresell.sol\":6821:6868  require(startAt < block.timestamp, \"not start\") */\n      tag_165\n        /* \"#utility.yul\":4318:4650   */\n      jump\n        /* \"msc_token/BeePresell.sol\":6821:6868  require(startAt < block.timestamp, \"not start\") */\n    tag_261:\n        /* \"msc_token/BeePresell.sol\":6889:6894  endAt */\n      sload(0x07)\n        /* \"msc_token/BeePresell.sol\":6897:6912  block.timestamp */\n      timestamp\n      shl(0xc0, 0x01)\n        /* \"msc_token/BeePresell.sol\":6889:6894  endAt */\n      swap1\n      swap2\n      div\n      0xffffffffffffffff\n      and\n        /* \"msc_token/BeePresell.sol\":6889:6912  endAt > block.timestamp */\n      gt\n        /* \"msc_token/BeePresell.sol\":6881:6924  require(endAt > block.timestamp, \"has end\") */\n      tag_263\n      jumpi\n      mload(0x40)\n      shl(0xe5, 0x461bcd)\n      dup2\n      mstore\n        /* \"#utility.yul\":4857:4859   */\n      0x20\n        /* \"msc_token/BeePresell.sol\":6881:6924  require(endAt > block.timestamp, \"has end\") */\n      0x04\n      dup3\n      add\n        /* \"#utility.yul\":4839:4860   */\n      mstore\n        /* \"#utility.yul\":4896:4897   */\n      0x07\n        /* \"#utility.yul\":4876:4894   */\n      0x24\n      dup3\n      add\n        /* \"#utility.yul\":4869:4898   */\n      mstore\n      shl(0xca, 0x1a185cc8195b99)\n        /* \"#utility.yul\":4914:4932   */\n      0x44\n      dup3\n      add\n        /* \"#utility.yul\":4907:4944   */\n      mstore\n        /* \"#utility.yul\":4961:4979   */\n      0x64\n      add\n        /* \"msc_token/BeePresell.sol\":6881:6924  require(endAt > block.timestamp, \"has end\") */\n      tag_165\n        /* \"#utility.yul\":4655:4985   */\n      jump\n        /* \"msc_token/BeePresell.sol\":6881:6924  require(endAt > block.timestamp, \"has end\") */\n    tag_263:\n        /* \"msc_token/BeePresell.sol\":6956:6962  preMax */\n      sload(0x07)\n      0xffffffff\n      shl(0x60, 0x01)\n      dup3\n      div\n      dup2\n      and\n        /* \"msc_token/BeePresell.sol\":6945:6952  counter */\n      swap2\n      and\n        /* \"msc_token/BeePresell.sol\":6945:6962  counter <= preMax */\n      gt\n      iszero\n        /* \"msc_token/BeePresell.sol\":6937:6990  require(counter <= preMax, \"Pre-orders are sold out\") */\n      tag_265\n      jumpi\n      mload(0x40)\n      shl(0xe5, 0x461bcd)\n      dup2\n      mstore\n        /* \"#utility.yul\":8404:8406   */\n      0x20\n        /* \"msc_token/BeePresell.sol\":6937:6990  require(counter <= preMax, \"Pre-orders are sold out\") */\n      0x04\n      dup3\n      add\n        /* \"#utility.yul\":8386:8407   */\n      mstore\n        /* \"#utility.yul\":8443:8445   */\n      0x17\n        /* \"#utility.yul\":8423:8441   */\n      0x24\n      dup3\n      add\n        /* \"#utility.yul\":8416:8446   */\n      mstore\n        /* \"#utility.yul\":8482:8507   */\n      0x5072652d6f72646572732061726520736f6c64206f7574000000000000000000\n        /* \"#utility.yul\":8462:8480   */\n      0x44\n      dup3\n      add\n        /* \"#utility.yul\":8455:8508   */\n      mstore\n        /* \"#utility.yul\":8525:8543   */\n      0x64\n      add\n        /* \"msc_token/BeePresell.sol\":6937:6990  require(counter <= preMax, \"Pre-orders are sold out\") */\n      tag_165\n        /* \"#utility.yul\":8202:8549   */\n      jump\n        /* \"msc_token/BeePresell.sol\":6937:6990  require(counter <= preMax, \"Pre-orders are sold out\") */\n    tag_265:\n        /* \"msc_token/BeePresell.sol\":7019:7029  msg.sender */\n      caller\n        /* \"msc_token/BeePresell.sol\":7012:7030  hasBuy[msg.sender] */\n      0x00\n      swap1\n      dup2\n      mstore\n        /* \"msc_token/BeePresell.sol\":7012:7018  hasBuy */\n      0x0b\n        /* \"msc_token/BeePresell.sol\":7012:7030  hasBuy[msg.sender] */\n      0x20\n      mstore\n      0x40\n      swap1\n      keccak256\n      sload\n      0xff\n      and\n        /* \"msc_token/BeePresell.sol\":7011:7030  !hasBuy[msg.sender] */\n      iszero\n        /* \"msc_token/BeePresell.sol\":7003:7051  require(!hasBuy[msg.sender],\"already purchased\") */\n      tag_268\n      jumpi\n      mload(0x40)\n      shl(0xe5, 0x461bcd)\n      dup2\n      mstore\n        /* \"#utility.yul\":8756:8758   */\n      0x20\n        /* \"msc_token/BeePresell.sol\":7003:7051  require(!hasBuy[msg.sender],\"already purchased\") */\n      0x04\n      dup3\n      add\n        /* \"#utility.yul\":8738:8759   */\n      mstore\n        /* \"#utility.yul\":8795:8797   */\n      0x11\n        /* \"#utility.yul\":8775:8793   */\n      0x24\n      dup3\n      add\n        /* \"#utility.yul\":8768:8798   */\n      mstore\n      shl(0x7a, 0x185b1c9958591e481c1d5c98da185cd959)\n        /* \"#utility.yul\":8814:8832   */\n      0x44\n      dup3\n      add\n        /* \"#utility.yul\":8807:8854   */\n      mstore\n        /* \"#utility.yul\":8871:8889   */\n      0x64\n      add\n        /* \"msc_token/BeePresell.sol\":7003:7051  require(!hasBuy[msg.sender],\"already purchased\") */\n      tag_165\n        /* \"#utility.yul\":8554:8895   */\n      jump\n        /* \"msc_token/BeePresell.sol\":7003:7051  require(!hasBuy[msg.sender],\"already purchased\") */\n    tag_268:\n        /* \"msc_token/BeePresell.sol\":7122:7132  usdtAmount */\n      0x04\n      dup1\n      sload\n        /* \"msc_token/BeePresell.sol\":7072:7118  usdtToken.allowance(msg.sender, address(this)) */\n      mload(0x40)\n      shl(0xe1, 0x6eb1769f)\n      dup2\n      mstore\n        /* \"msc_token/BeePresell.sol\":7092:7102  msg.sender */\n      caller\n        /* \"msc_token/BeePresell.sol\":7072:7118  usdtToken.allowance(msg.sender, address(this)) */\n      swap3\n      dup2\n      add\n        /* \"#utility.yul\":9112:9146   */\n      swap3\n      swap1\n      swap3\n      mstore\n        /* \"msc_token/BeePresell.sol\":7112:7116  this */\n      address\n        /* \"#utility.yul\":9162:9180   */\n      0x24\n      dup4\n      add\n        /* \"#utility.yul\":9155:9198   */\n      mstore\n        /* \"msc_token/BeePresell.sol\":7122:7132  usdtAmount */\n      swap1\n      sub(shl(0xa0, 0x01), 0x01)\n        /* \"msc_token/BeePresell.sol\":7072:7081  usdtToken */\n      immutable(\"0x1cca6d2cec39a0e1e2f69c2ebe2dc3f8c1e03db413c5d1c3e31cdca41ddbc4f2\")\n        /* \"msc_token/BeePresell.sol\":7072:7091  usdtToken.allowance */\n      and\n      swap1\n      0xdd62ed3e\n      swap1\n        /* \"#utility.yul\":9047:9065   */\n      0x44\n      add\n        /* \"msc_token/BeePresell.sol\":7072:7118  usdtToken.allowance(msg.sender, address(this)) */\n      0x20\n      mload(0x40)\n      dup1\n      dup4\n      sub\n      dup2\n      dup7\n      gas\n      staticcall\n      iszero\n      dup1\n      iszero\n      tag_274\n      jumpi\n      returndatasize\n      0x00\n      dup1\n      returndatacopy\n      revert(0x00, returndatasize)\n    tag_274:\n      pop\n      pop\n      pop\n      pop\n      mload(0x40)\n      returndatasize\n      not(0x1f)\n      0x1f\n      dup3\n      add\n      and\n      dup3\n      add\n      dup1\n      0x40\n      mstore\n      pop\n      dup2\n      add\n      swap1\n      tag_275\n      swap2\n      swap1\n      tag_276\n      jump\t// in\n    tag_275:\n        /* \"msc_token/BeePresell.sol\":7072:7132  usdtToken.allowance(msg.sender, address(this)) >= usdtAmount */\n      lt\n      iszero\n        /* \"msc_token/BeePresell.sol\":7064:7164  require(usdtToken.allowance(msg.sender, address(this)) >= usdtAmount, \"usdtToken allowance too low\") */\n      tag_277\n      jumpi\n      mload(0x40)\n      shl(0xe5, 0x461bcd)\n      dup2\n      mstore\n        /* \"#utility.yul\":9600:9602   */\n      0x20\n        /* \"msc_token/BeePresell.sol\":7064:7164  require(usdtToken.allowance(msg.sender, address(this)) >= usdtAmount, \"usdtToken allowance too low\") */\n      0x04\n      dup3\n      add\n        /* \"#utility.yul\":9582:9603   */\n      mstore\n        /* \"#utility.yul\":9639:9641   */\n      0x1b\n        /* \"#utility.yul\":9619:9637   */\n      0x24\n      dup3\n      add\n        /* \"#utility.yul\":9612:9642   */\n      mstore\n        /* \"#utility.yul\":9678:9707   */\n      0x75736474546f6b656e20616c6c6f77616e636520746f6f206c6f770000000000\n        /* \"#utility.yul\":9658:9676   */\n      0x44\n      dup3\n      add\n        /* \"#utility.yul\":9651:9708   */\n      mstore\n        /* \"#utility.yul\":9725:9743   */\n      0x64\n      add\n        /* \"msc_token/BeePresell.sol\":7064:7164  require(usdtToken.allowance(msg.sender, address(this)) >= usdtAmount, \"usdtToken allowance too low\") */\n      tag_165\n        /* \"#utility.yul\":9398:9749   */\n      jump\n        /* \"msc_token/BeePresell.sol\":7064:7164  require(usdtToken.allowance(msg.sender, address(this)) >= usdtAmount, \"usdtToken allowance too low\") */\n    tag_277:\n        /* \"msc_token/BeePresell.sol\":7224:7237  marketAddress */\n      sload(0x03)\n        /* \"msc_token/BeePresell.sol\":7239:7249  usdtAmount */\n      0x04\n      dup1\n      sload\n        /* \"msc_token/BeePresell.sol\":7189:7250  usdtToken.transferFrom(msg.sender, marketAddress, usdtAmount) */\n      mload(0x40)\n      shl(0xe0, 0x23b872dd)\n      dup2\n      mstore\n        /* \"msc_token/BeePresell.sol\":7212:7222  msg.sender */\n      caller\n        /* \"msc_token/BeePresell.sol\":7189:7250  usdtToken.transferFrom(msg.sender, marketAddress, usdtAmount) */\n      swap3\n      dup2\n      add\n        /* \"#utility.yul\":9994:10028   */\n      swap3\n      swap1\n      swap3\n      mstore\n      sub(shl(0xa0, 0x01), 0x01)\n        /* \"msc_token/BeePresell.sol\":7224:7237  marketAddress */\n      swap3\n      dup4\n      and\n        /* \"#utility.yul\":10044:10062   */\n      0x24\n      dup4\n      add\n        /* \"#utility.yul\":10037:10080   */\n      mstore\n        /* \"#utility.yul\":10096:10114   */\n      0x44\n      dup3\n      add\n        /* \"#utility.yul\":10089:10123   */\n      mstore\n        /* \"msc_token/BeePresell.sol\":7177:7186  bool sent */\n      0x00\n      swap2\n        /* \"msc_token/BeePresell.sol\":7189:7198  usdtToken */\n      immutable(\"0x1cca6d2cec39a0e1e2f69c2ebe2dc3f8c1e03db413c5d1c3e31cdca41ddbc4f2\")\n        /* \"msc_token/BeePresell.sol\":7189:7211  usdtToken.transferFrom */\n      and\n      swap1\n      0x23b872dd\n      swap1\n        /* \"#utility.yul\":9929:9947   */\n      0x64\n      add\n        /* \"msc_token/BeePresell.sol\":7189:7250  usdtToken.transferFrom(msg.sender, marketAddress, usdtAmount) */\n      0x20\n      mload(0x40)\n      dup1\n      dup4\n      sub\n      dup2\n      0x00\n      dup8\n      gas\n      call\n      iszero\n      dup1\n      iszero\n      tag_283\n      jumpi\n      returndatasize\n      0x00\n      dup1\n      returndatacopy\n      revert(0x00, returndatasize)\n    tag_283:\n      pop\n      pop\n      pop\n      pop\n      mload(0x40)\n      returndatasize\n      not(0x1f)\n      0x1f\n      dup3\n      add\n      and\n      dup3\n      add\n      dup1\n      0x40\n      mstore\n      pop\n      dup2\n      add\n      swap1\n      tag_284\n      swap2\n      swap1\n      tag_180\n      jump\t// in\n    tag_284:\n        /* \"msc_token/BeePresell.sol\":7177:7250  bool sent = usdtToken.transferFrom(msg.sender, marketAddress, usdtAmount) */\n      swap1\n      pop\n        /* \"msc_token/BeePresell.sol\":7269:7273  sent */\n      dup1\n        /* \"msc_token/BeePresell.sol\":7261:7299  require(sent, \"Token transfer failed\") */\n      tag_285\n      jumpi\n      mload(0x40)\n      shl(0xe5, 0x461bcd)\n      dup2\n      mstore\n      0x04\n      add\n      tag_165\n      swap1\n      tag_183\n      jump\t// in\n    tag_285:\n        /* \"msc_token/BeePresell.sol\":7346:7366  preSellCoinPreAmount */\n      sload(0x05)\n        /* \"msc_token/BeePresell.sol\":7332:7342  msg.sender */\n      caller\n        /* \"msc_token/BeePresell.sol\":7310:7343  userPresellBalanceMap[msg.sender] */\n      0x00\n      swap1\n      dup2\n      mstore\n        /* \"msc_token/BeePresell.sol\":7310:7331  userPresellBalanceMap */\n      0x09\n        /* \"msc_token/BeePresell.sol\":7310:7343  userPresellBalanceMap[msg.sender] */\n      0x20\n      swap1\n      dup2\n      mstore\n      0x40\n      dup1\n      dup4\n      keccak256\n        /* \"msc_token/BeePresell.sol\":7310:7366  userPresellBalanceMap[msg.sender] = preSellCoinPreAmount */\n      swap4\n      swap1\n      swap4\n      sstore\n        /* \"msc_token/BeePresell.sol\":7377:7383  hasBuy */\n      0x0b\n        /* \"msc_token/BeePresell.sol\":7377:7395  hasBuy[msg.sender] */\n      swap1\n      mstore\n      swap1\n      dup2\n      keccak256\n        /* \"msc_token/BeePresell.sol\":7377:7402  hasBuy[msg.sender] = true */\n      dup1\n      sload\n      not(0xff)\n      and\n        /* \"msc_token/BeePresell.sol\":7398:7402  true */\n      0x01\n        /* \"msc_token/BeePresell.sol\":7377:7402  hasBuy[msg.sender] = true */\n      or\n      swap1\n      sstore\n        /* \"msc_token/BeePresell.sol\":7413:7420  counter */\n      0x07\n        /* \"msc_token/BeePresell.sol\":7413:7422  counter++ */\n      dup1\n      sload\n      0xffffffff\n      and\n      swap2\n      tag_259\n      dup4\n      tag_236\n      jump\t// in\n        /* \"msc_token/BeePresell.sol\":2090:2291  function transferOwnership(address newOwner) public virtual onlyOwner {... */\n    tag_155:\n        /* \"msc_token/BeePresell.sol\":1227:1234  address */\n      0x00\n        /* \"msc_token/BeePresell.sol\":1254:1260  _owner */\n      sload\n      sub(shl(0xa0, 0x01), 0x01)\n      and\n        /* \"msc_token/BeePresell.sol\":635:645  msg.sender */\n      caller\n        /* \"msc_token/BeePresell.sol\":1401:1424  owner() == _msgSender() */\n      eq\n        /* \"msc_token/BeePresell.sol\":1393:1461  require(owner() == _msgSender(), \"Ownable: caller is not the owner\") */\n      tag_295\n      jumpi\n      mload(0x40)\n      shl(0xe5, 0x461bcd)\n      dup2\n      mstore\n      0x04\n      add\n      tag_165\n      swap1\n      tag_166\n      jump\t// in\n    tag_295:\n      sub(shl(0xa0, 0x01), 0x01)\n        /* \"msc_token/BeePresell.sol\":2179:2201  newOwner != address(0) */\n      dup2\n      and\n        /* \"msc_token/BeePresell.sol\":2171:2244  require(newOwner != address(0), \"Ownable: new owner is the zero address\") */\n      tag_298\n      jumpi\n      mload(0x40)\n      shl(0xe5, 0x461bcd)\n      dup2\n      mstore\n        /* \"#utility.yul\":10336:10338   */\n      0x20\n        /* \"msc_token/BeePresell.sol\":2171:2244  require(newOwner != address(0), \"Ownable: new owner is the zero address\") */\n      0x04\n      dup3\n      add\n        /* \"#utility.yul\":10318:10339   */\n      mstore\n        /* \"#utility.yul\":10375:10377   */\n      0x26\n        /* \"#utility.yul\":10355:10373   */\n      0x24\n      dup3\n      add\n        /* \"#utility.yul\":10348:10378   */\n      mstore\n        /* \"#utility.yul\":10414:10448   */\n      0x4f776e61626c653a206e6577206f776e657220697320746865207a65726f2061\n        /* \"#utility.yul\":10394:10412   */\n      0x44\n      dup3\n      add\n        /* \"#utility.yul\":10387:10449   */\n      mstore\n      shl(0xd0, 0x646472657373)\n        /* \"#utility.yul\":10465:10483   */\n      0x64\n      dup3\n      add\n        /* \"#utility.yul\":10458:10494   */\n      mstore\n        /* \"#utility.yul\":10511:10530   */\n      0x84\n      add\n        /* \"msc_token/BeePresell.sol\":2171:2244  require(newOwner != address(0), \"Ownable: new owner is the zero address\") */\n      tag_165\n        /* \"#utility.yul\":10134:10536   */\n      jump\n        /* \"msc_token/BeePresell.sol\":2171:2244  require(newOwner != address(0), \"Ownable: new owner is the zero address\") */\n    tag_298:\n        /* \"msc_token/BeePresell.sol\":2255:2283  _transferOwnership(newOwner) */\n      tag_301\n        /* \"msc_token/BeePresell.sol\":2274:2282  newOwner */\n      dup2\n        /* \"msc_token/BeePresell.sol\":2255:2273  _transferOwnership */\n      tag_205\n        /* \"msc_token/BeePresell.sol\":2255:2283  _transferOwnership(newOwner) */\n      jump\t// in\n    tag_301:\n        /* \"msc_token/BeePresell.sol\":2090:2291  function transferOwnership(address newOwner) public virtual onlyOwner {... */\n      pop\n      jump\t// out\n        /* \"msc_token/BeePresell.sol\":8446:8554  function setMarketAddress(address newAddress) public onlyOwner {... */\n    tag_158:\n        /* \"msc_token/BeePresell.sol\":1227:1234  address */\n      0x00\n        /* \"msc_token/BeePresell.sol\":1254:1260  _owner */\n      sload\n      sub(shl(0xa0, 0x01), 0x01)\n      and\n        /* \"msc_token/BeePresell.sol\":635:645  msg.sender */\n      caller\n        /* \"msc_token/BeePresell.sol\":1401:1424  owner() == _msgSender() */\n      eq\n        /* \"msc_token/BeePresell.sol\":1393:1461  require(owner() == _msgSender(), \"Ownable: caller is not the owner\") */\n      tag_305\n      jumpi\n      mload(0x40)\n      shl(0xe5, 0x461bcd)\n      dup2\n      mstore\n      0x04\n      add\n      tag_165\n      swap1\n      tag_166\n      jump\t// in\n    tag_305:\n        /* \"msc_token/BeePresell.sol\":8520:8533  marketAddress */\n      0x03\n        /* \"msc_token/BeePresell.sol\":8520:8546  marketAddress = newAddress */\n      dup1\n      sload\n      not(sub(shl(0xa0, 0x01), 0x01))\n      and\n      sub(shl(0xa0, 0x01), 0x01)\n      swap3\n      swap1\n      swap3\n      and\n      swap2\n      swap1\n      swap2\n      or\n      swap1\n      sstore\n        /* \"msc_token/BeePresell.sol\":8446:8554  function setMarketAddress(address newAddress) public onlyOwner {... */\n      jump\t// out\n        /* \"msc_token/BeePresell.sol\":2451:2642  function _transferOwnership(address newOwner) internal virtual {... */\n    tag_205:\n        /* \"msc_token/BeePresell.sol\":2525:2541  address oldOwner */\n      0x00\n        /* \"msc_token/BeePresell.sol\":2544:2550  _owner */\n      dup1\n      sload\n      sub(shl(0xa0, 0x01), 0x01)\n        /* \"msc_token/BeePresell.sol\":2561:2578  _owner = newOwner */\n      dup4\n      dup2\n      and\n      not(sub(shl(0xa0, 0x01), 0x01))\n      dup4\n      and\n      dup2\n      or\n      dup5\n      sstore\n        /* \"msc_token/BeePresell.sol\":2594:2634  OwnershipTransferred(oldOwner, newOwner) */\n      mload(0x40)\n        /* \"msc_token/BeePresell.sol\":2544:2550  _owner */\n      swap2\n      swap1\n      swap3\n      and\n      swap3\n      dup4\n      swap2\n        /* \"msc_token/BeePresell.sol\":2594:2634  OwnershipTransferred(oldOwner, newOwner) */\n      0x8be0079c531659141344cd1fd0a4f28419497f9722a3daafe3b4186f6b6457e0\n      swap2\n        /* \"msc_token/BeePresell.sol\":2525:2541  address oldOwner */\n      swap1\n        /* \"msc_token/BeePresell.sol\":2594:2634  OwnershipTransferred(oldOwner, newOwner) */\n      log3\n        /* \"msc_token/BeePresell.sol\":2514:2642  {... */\n      pop\n        /* \"msc_token/BeePresell.sol\":2451:2642  function _transferOwnership(address newOwner) internal virtual {... */\n      pop\n      jump\t// out\n        /* \"#utility.yul\":427:713   */\n    tag_53:\n        /* \"#utility.yul\":486:492   */\n      0x00\n        /* \"#utility.yul\":539:541   */\n      0x20\n        /* \"#utility.yul\":527:536   */\n      dup3\n        /* \"#utility.yul\":518:525   */\n      dup5\n        /* \"#utility.yul\":514:537   */\n      sub\n        /* \"#utility.yul\":510:542   */\n      slt\n        /* \"#utility.yul\":507:559   */\n      iszero\n      tag_315\n      jumpi\n        /* \"#utility.yul\":555:556   */\n      0x00\n        /* \"#utility.yul\":552:553   */\n      dup1\n        /* \"#utility.yul\":545:557   */\n      revert\n        /* \"#utility.yul\":507:559   */\n    tag_315:\n        /* \"#utility.yul\":581:604   */\n      dup2\n      calldataload\n      sub(shl(0xa0, 0x01), 0x01)\n        /* \"#utility.yul\":633:664   */\n      dup2\n      and\n        /* \"#utility.yul\":623:665   */\n      dup2\n      eq\n        /* \"#utility.yul\":613:683   */\n      tag_316\n      jumpi\n        /* \"#utility.yul\":679:680   */\n      0x00\n        /* \"#utility.yul\":676:677   */\n      dup1\n        /* \"#utility.yul\":669:681   */\n      revert\n        /* \"#utility.yul\":613:683   */\n    tag_316:\n        /* \"#utility.yul\":702:707   */\n      swap4\n        /* \"#utility.yul\":427:713   */\n      swap3\n      pop\n      pop\n      pop\n      jump\t// out\n        /* \"#utility.yul\":997:1177   */\n    tag_59:\n        /* \"#utility.yul\":1056:1062   */\n      0x00\n        /* \"#utility.yul\":1109:1111   */\n      0x20\n        /* \"#utility.yul\":1097:1106   */\n      dup3\n        /* \"#utility.yul\":1088:1095   */\n      dup5\n        /* \"#utility.yul\":1084:1107   */\n      sub\n        /* \"#utility.yul\":1080:1112   */\n      slt\n        /* \"#utility.yul\":1077:1129   */\n      iszero\n      tag_319\n      jumpi\n        /* \"#utility.yul\":1125:1126   */\n      0x00\n        /* \"#utility.yul\":1122:1123   */\n      dup1\n        /* \"#utility.yul\":1115:1127   */\n      revert\n        /* \"#utility.yul\":1077:1129   */\n    tag_319:\n      pop\n        /* \"#utility.yul\":1148:1171   */\n      calldataload\n      swap2\n        /* \"#utility.yul\":997:1177   */\n      swap1\n      pop\n      jump\t// out\n        /* \"#utility.yul\":1974:2632   */\n    tag_124:\n        /* \"#utility.yul\":2145:2147   */\n      0x20\n        /* \"#utility.yul\":2197:2218   */\n      dup1\n      dup3\n      mstore\n        /* \"#utility.yul\":2267:2280   */\n      dup3\n      mload\n        /* \"#utility.yul\":2170:2188   */\n      dup3\n      dup3\n      add\n        /* \"#utility.yul\":2289:2311   */\n      dup2\n      swap1\n      mstore\n        /* \"#utility.yul\":2116:2120   */\n      0x00\n      swap2\n        /* \"#utility.yul\":2145:2147   */\n      swap1\n        /* \"#utility.yul\":2368:2383   */\n      dup5\n      dup3\n      add\n      swap1\n        /* \"#utility.yul\":2342:2344   */\n      0x40\n        /* \"#utility.yul\":2327:2345   */\n      dup6\n      add\n      swap1\n        /* \"#utility.yul\":2116:2120   */\n      dup5\n        /* \"#utility.yul\":2411:2606   */\n    tag_325:\n        /* \"#utility.yul\":2425:2431   */\n      dup2\n        /* \"#utility.yul\":2422:2423   */\n      dup2\n        /* \"#utility.yul\":2419:2432   */\n      lt\n        /* \"#utility.yul\":2411:2606   */\n      iszero\n      tag_327\n      jumpi\n        /* \"#utility.yul\":2490:2503   */\n      dup4\n      mload\n      sub(shl(0xa0, 0x01), 0x01)\n        /* \"#utility.yul\":2486:2525   */\n      and\n        /* \"#utility.yul\":2474:2526   */\n      dup4\n      mstore\n        /* \"#utility.yul\":2581:2596   */\n      swap3\n      dup5\n      add\n      swap3\n        /* \"#utility.yul\":2546:2558   */\n      swap2\n      dup5\n      add\n      swap2\n        /* \"#utility.yul\":2522:2523   */\n      0x01\n        /* \"#utility.yul\":2440:2449   */\n      add\n        /* \"#utility.yul\":2411:2606   */\n      jump(tag_325)\n    tag_327:\n      pop\n        /* \"#utility.yul\":2623:2626   */\n      swap1\n      swap7\n        /* \"#utility.yul\":1974:2632   */\n      swap6\n      pop\n      pop\n      pop\n      pop\n      pop\n      pop\n      jump\t// out\n        /* \"#utility.yul\":2637:2993   */\n    tag_166:\n        /* \"#utility.yul\":2839:2841   */\n      0x20\n        /* \"#utility.yul\":2821:2842   */\n      dup1\n      dup3\n      mstore\n        /* \"#utility.yul\":2858:2876   */\n      dup2\n      dup2\n      add\n        /* \"#utility.yul\":2851:2881   */\n      mstore\n        /* \"#utility.yul\":2917:2951   */\n      0x4f776e61626c653a2063616c6c6572206973206e6f7420746865206f776e6572\n        /* \"#utility.yul\":2912:2914   */\n      0x40\n        /* \"#utility.yul\":2897:2915   */\n      dup3\n      add\n        /* \"#utility.yul\":2890:2952   */\n      mstore\n        /* \"#utility.yul\":2984:2986   */\n      0x60\n        /* \"#utility.yul\":2969:2987   */\n      add\n      swap1\n        /* \"#utility.yul\":2637:2993   */\n      jump\t// out\n        /* \"#utility.yul\":3686:3963   */\n    tag_180:\n        /* \"#utility.yul\":3753:3759   */\n      0x00\n        /* \"#utility.yul\":3806:3808   */\n      0x20\n        /* \"#utility.yul\":3794:3803   */\n      dup3\n        /* \"#utility.yul\":3785:3792   */\n      dup5\n        /* \"#utility.yul\":3781:3804   */\n      sub\n        /* \"#utility.yul\":3777:3809   */\n      slt\n        /* \"#utility.yul\":3774:3826   */\n      iszero\n      tag_332\n      jumpi\n        /* \"#utility.yul\":3822:3823   */\n      0x00\n        /* \"#utility.yul\":3819:3820   */\n      dup1\n        /* \"#utility.yul\":3812:3824   */\n      revert\n        /* \"#utility.yul\":3774:3826   */\n    tag_332:\n        /* \"#utility.yul\":3854:3863   */\n      dup2\n        /* \"#utility.yul\":3848:3864   */\n      mload\n        /* \"#utility.yul\":3907:3912   */\n      dup1\n        /* \"#utility.yul\":3900:3913   */\n      iszero\n        /* \"#utility.yul\":3893:3914   */\n      iszero\n        /* \"#utility.yul\":3886:3891   */\n      dup2\n        /* \"#utility.yul\":3883:3915   */\n      eq\n        /* \"#utility.yul\":3873:3933   */\n      tag_316\n      jumpi\n        /* \"#utility.yul\":3929:3930   */\n      0x00\n        /* \"#utility.yul\":3926:3927   */\n      dup1\n        /* \"#utility.yul\":3919:3931   */\n      revert\n        /* \"#utility.yul\":3968:4313   */\n    tag_183:\n        /* \"#utility.yul\":4170:4172   */\n      0x20\n        /* \"#utility.yul\":4152:4173   */\n      dup1\n      dup3\n      mstore\n        /* \"#utility.yul\":4209:4211   */\n      0x15\n        /* \"#utility.yul\":4189:4207   */\n      swap1\n      dup3\n      add\n        /* \"#utility.yul\":4182:4212   */\n      mstore\n      shl(0x5a, 0x151bdad95b881d1c985b9cd9995c8819985a5b1959)\n        /* \"#utility.yul\":4243:4245   */\n      0x40\n        /* \"#utility.yul\":4228:4246   */\n      dup3\n      add\n        /* \"#utility.yul\":4221:4272   */\n      mstore\n        /* \"#utility.yul\":4304:4306   */\n      0x60\n        /* \"#utility.yul\":4289:4307   */\n      add\n      swap1\n        /* \"#utility.yul\":3968:4313   */\n      jump\t// out\n        /* \"#utility.yul\":7123:7250   */\n    tag_310:\n        /* \"#utility.yul\":7184:7194   */\n      0x4e487b71\n        /* \"#utility.yul\":7179:7182   */\n      0xe0\n        /* \"#utility.yul\":7175:7195   */\n      shl\n        /* \"#utility.yul\":7172:7173   */\n      0x00\n        /* \"#utility.yul\":7165:7196   */\n      mstore\n        /* \"#utility.yul\":7215:7219   */\n      0x11\n        /* \"#utility.yul\":7212:7213   */\n      0x04\n        /* \"#utility.yul\":7205:7220   */\n      mstore\n        /* \"#utility.yul\":7239:7243   */\n      0x24\n        /* \"#utility.yul\":7236:7237   */\n      0x00\n        /* \"#utility.yul\":7229:7244   */\n      revert\n        /* \"#utility.yul\":7255:7456   */\n    tag_236:\n        /* \"#utility.yul\":7293:7296   */\n      0x00\n        /* \"#utility.yul\":7321:7331   */\n      0xffffffff\n        /* \"#utility.yul\":7366:7368   */\n      dup1\n        /* \"#utility.yul\":7359:7364   */\n      dup4\n        /* \"#utility.yul\":7355:7369   */\n      and\n        /* \"#utility.yul\":7393:7395   */\n      dup2\n        /* \"#utility.yul\":7384:7391   */\n      dup2\n        /* \"#utility.yul\":7381:7396   */\n      sub\n        /* \"#utility.yul\":7378:7419   */\n      tag_346\n      jumpi\n        /* \"#utility.yul\":7399:7417   */\n      tag_346\n      tag_310\n      jump\t// in\n    tag_346:\n        /* \"#utility.yul\":7448:7449   */\n      0x01\n        /* \"#utility.yul\":7435:7450   */\n      add\n      swap4\n        /* \"#utility.yul\":7255:7456   */\n      swap3\n      pop\n      pop\n      pop\n      jump\t// out\n        /* \"#utility.yul\":7461:7678   */\n    tag_242:\n        /* \"#utility.yul\":7501:7502   */\n      0x00\n        /* \"#utility.yul\":7527:7528   */\n      dup3\n        /* \"#utility.yul\":7517:7649   */\n      tag_348\n      jumpi\n        /* \"#utility.yul\":7571:7581   */\n      0x4e487b71\n        /* \"#utility.yul\":7566:7569   */\n      0xe0\n        /* \"#utility.yul\":7562:7582   */\n      shl\n        /* \"#utility.yul\":7559:7560   */\n      0x00\n        /* \"#utility.yul\":7552:7583   */\n      mstore\n        /* \"#utility.yul\":7606:7610   */\n      0x12\n        /* \"#utility.yul\":7603:7604   */\n      0x04\n        /* \"#utility.yul\":7596:7611   */\n      mstore\n        /* \"#utility.yul\":7634:7638   */\n      0x24\n        /* \"#utility.yul\":7631:7632   */\n      0x00\n        /* \"#utility.yul\":7624:7639   */\n      revert\n        /* \"#utility.yul\":7517:7649   */\n    tag_348:\n      pop\n        /* \"#utility.yul\":7663:7672   */\n      div\n      swap1\n        /* \"#utility.yul\":7461:7678   */\n      jump\t// out\n        /* \"#utility.yul\":7683:7851   */\n    tag_244:\n        /* \"#utility.yul\":7723:7730   */\n      0x00\n        /* \"#utility.yul\":7789:7790   */\n      dup2\n        /* \"#utility.yul\":7785:7786   */\n      0x00\n        /* \"#utility.yul\":7781:7787   */\n      not\n        /* \"#utility.yul\":7777:7791   */\n      div\n        /* \"#utility.yul\":7774:7775   */\n      dup4\n        /* \"#utility.yul\":7771:7792   */\n      gt\n        /* \"#utility.yul\":7766:7767   */\n      dup3\n        /* \"#utility.yul\":7759:7768   */\n      iszero\n        /* \"#utility.yul\":7752:7769   */\n      iszero\n        /* \"#utility.yul\":7748:7793   */\n      and\n        /* \"#utility.yul\":7745:7816   */\n      iszero\n      tag_351\n      jumpi\n        /* \"#utility.yul\":7796:7814   */\n      tag_351\n      tag_310\n      jump\t// in\n    tag_351:\n      pop\n        /* \"#utility.yul\":7836:7845   */\n      mul\n      swap1\n        /* \"#utility.yul\":7683:7851   */\n      jump\t// out\n        /* \"#utility.yul\":9209:9393   */\n    tag_276:\n        /* \"#utility.yul\":9279:9285   */\n      0x00\n        /* \"#utility.yul\":9332:9334   */\n      0x20\n        /* \"#utility.yul\":9320:9329   */\n      dup3\n        /* \"#utility.yul\":9311:9318   */\n      dup5\n        /* \"#utility.yul\":9307:9330   */\n      sub\n        /* \"#utility.yul\":9303:9335   */\n      slt\n        /* \"#utility.yul\":9300:9352   */\n      iszero\n      tag_357\n      jumpi\n        /* \"#utility.yul\":9348:9349   */\n      0x00\n        /* \"#utility.yul\":9345:9346   */\n      dup1\n        /* \"#utility.yul\":9338:9350   */\n      revert\n        /* \"#utility.yul\":9300:9352   */\n    tag_357:\n      pop\n        /* \"#utility.yul\":9371:9387   */\n      mload\n      swap2\n        /* \"#utility.yul\":9209:9393   */\n      swap1\n      pop\n      jump\t// out\n\n    auxdata: 0xa26469706673582212202ed4a6ab69b46817387fb9305756ef2ffedcedd3097a2f438f2a5ff794dd104764736f6c634300080d0033\n}\n",
				"bytecode": {
					"linkReferences": {},
					"object": "60c0604052600180546001600160a01b031990811673eda5da0050e21e9e34fadb1075986af1370c7bdb1790915560028054821673b0bc99bdb71a4320a9ad357f68ebfbe6ffebfc8a1790556003805490911673e3e90697218f31b8d0867b8a9c52947d3c888339179055670de0b6b3a764000060045568f3f20b8dfa69d000006005556956bc75e2d63100000000600655600780546c0a00000000000000000000000063ffffffff60601b19909116179055348015620000bf57600080fd5b506040516200178738038062001787833981016040819052620000e2916200025b565b620000ed33620001ee565b42826001600160401b031610156200013d5760405162461bcd60e51b815260206004820152600e60248201526d7374617274206174203c206e6f7760901b60448201526064015b60405180910390fd5b816001600160401b0316816001600160401b03161015620001955760405162461bcd60e51b8152602060048201526011602482015270195b9908185d080f081cdd185c9d08185d607a1b604482015260640162000134565b600780546001600160801b0316600160801b6001600160401b03948516026001600160c01b031617600160c01b92909316919091029190911790556001546001600160a01b039081166080526002541660a05262000293565b600080546001600160a01b038381166001600160a01b0319831681178455604051919092169283917f8be0079c531659141344cd1fd0a4f28419497f9722a3daafe3b4186f6b6457e09190a35050565b80516001600160401b03811681146200025657600080fd5b919050565b600080604083850312156200026f57600080fd5b6200027a836200023e565b91506200028a602084016200023e565b90509250929050565b60805160a0516114ab620002dc600039600081816104330152818161068b015281816107b30152610d7601526000818161047d01528181610fd501526110c401526114ab6000f3fe608060405234801561001057600080fd5b50600436106101fb5760003560e01c806390f5881a1161011a578063c828371e116100ad578063d1d04e1f1161007c578063d1d04e1f14610553578063d35cde4114610568578063f01fc57c14610570578063f2fde38b1461057e578063fae926121461059157600080fd5b8063c828371e146104fe578063c9ede79314610517578063d0febe4c1461051f578063d139f56d1461052757600080fd5b8063a98ad46c116100e9578063a98ad46c14610478578063a98b91441461049f578063b9f9231a146104bf578063c556feca146104d257600080fd5b806390f5881a146103fb578063956236411461041b5780639769f0b01461042e5780639e2a04181461045557600080fd5b80636531e61c116101925780638568f4ce116101615780638568f4ce1461039b57806388af60c6146103c45780638da5cb5b146103d75780639018c818146103e857600080fd5b80636531e61c146103425780636de34ce014610355578063715018a61461038157806378eb6c6f1461038957600080fd5b8063304d8dea116101ce578063304d8dea146102c2578063374eedef146102ca5780633d719da714610306578063439f5ac21461032957600080fd5b8063027734fa1461020057806303d7424d146102305780631eb43f1a1461025b578063271f88b4146102ad575b600080fd5b600254610213906001600160a01b031681565b6040516001600160a01b0390911681526020015b60405180910390f35b600754640100000000900463ffffffff165b60405167ffffffffffffffff9091168152602001610227565b61028e6102693660046112c6565b600860205260009081526040902080546002909101546001600160a01b039091169082565b604080516001600160a01b039093168352602083019190915201610227565b6102c06102bb3660046112f6565b6105a4565b005b6102c06105dc565b6102f66102d83660046112c6565b6001600160a01b03166000908152600b602052604090205460ff1690565b6040519015158152602001610227565b6102f66103143660046112c6565b600b6020526000908152604090205460ff1681565b600754600160c01b900467ffffffffffffffff16610242565b6102c06103503660046112f6565b61076a565b60075461036c90600160401b900463ffffffff1681565b60405163ffffffff9091168152602001610227565b6102c061084b565b6005545b604051908152602001610227565b61038d6103a93660046112c6565b6001600160a01b031660009081526009602052604090205490565b600154610213906001600160a01b031681565b6000546001600160a01b0316610213565b6102f66103f63660046112c6565b610881565b61038d6104093660046112c6565b60096020526000908152604090205481565b600354610213906001600160a01b031681565b6102137f000000000000000000000000000000000000000000000000000000000000000081565b6102f66104633660046112c6565b600a6020526000908152604090205460ff1681565b6102137f000000000000000000000000000000000000000000000000000000000000000081565b6104b26104ad3660046112c6565b610be2565b604051610227919061130f565b61038d6104cd3660046112c6565b610c5b565b61038d6104e03660046112c6565b6001600160a01b031660009081526008602052604090206001015490565b600754600160801b900467ffffffffffffffff16610242565b6102c0610ca4565b6102c0610e5a565b6102136105353660046112c6565b6001600160a01b039081166000908152600860205260409020541690565b600754600160601b900463ffffffff1661036c565b60045461038d565b60075463ffffffff16610242565b6102c061058c3660046112c6565b61118f565b6102c061059f3660046112c6565b61122a565b6000546001600160a01b031633146105d75760405162461bcd60e51b81526004016105ce9061135c565b60405180910390fd5b600455565b60075442600160c01b90910467ffffffffffffffff16106106315760405162461bcd60e51b815260206004820152600f60248201526e1c1c995cd95b1b081b9bdd08195b99608a1b60448201526064016105ce565b336000908152600a602052604090205460ff1615156001146106875760405162461bcd60e51b815260206004820152600f60248201526e75736572206e6f7420696e7669746560881b60448201526064016105ce565b60007f00000000000000000000000000000000000000000000000000000000000000006001600160a01b031663a9059cbb336106c233610c5b565b6040516001600160e01b031960e085901b1681526001600160a01b03909216600483015260248201526044016020604051808303816000875af115801561070d573d6000803e3d6000fd5b505050506040513d601f19601f820116820180604052508101906107319190611391565b9050806107505760405162461bcd60e51b81526004016105ce906113b3565b50336000908152600a60205260409020805460ff19169055565b6000546001600160a01b031633146107945760405162461bcd60e51b81526004016105ce9061135c565b60405163a9059cbb60e01b8152336004820152602481018290526000907f00000000000000000000000000000000000000000000000000000000000000006001600160a01b03169063a9059cbb906044016020604051808303816000875af1158015610804573d6000803e3d6000fd5b505050506040513d601f19601f820116820180604052508101906108289190611391565b9050806108475760405162461bcd60e51b81526004016105ce906113b3565b5050565b6000546001600160a01b031633146108755760405162461bcd60e51b81526004016105ce9061135c565b61087f6000611276565b565b60075460009042600160801b90910467ffffffffffffffff16106108d35760405162461bcd60e51b81526020600482015260096024820152681b9bdd081cdd185c9d60ba1b60448201526064016105ce565b60075442600160c01b90910467ffffffffffffffff16116109205760405162461bcd60e51b81526020600482015260076024820152661a185cc8195b9960ca1b60448201526064016105ce565b6001600160a01b0382166000908152600b602052604090205460ff1661097c5760405162461bcd60e51b81526020600482015260116024820152704265653a7570706572206e6f742062757960781b60448201526064016105ce565b336000908152600b602052604090205460ff166109ce5760405162461bcd60e51b815260206004820152601060248201526f4265653a75736572206e6f742062757960801b60448201526064016105ce565b6001600160a01b0382163303610a165760405162461bcd60e51b815260206004820152600d60248201526c2132b29d2327a92124a22222a760991b60448201526064016105ce565b336000818152600860205260408082206001600160a01b0386811684529190922080549293909290911603610a985760405162461bcd60e51b815260206004820152602260248201527f54686520696e76697465722069732061206c6f77657220746f2074686520757360448201526132b960f11b60648201526084016105ce565b81546001600160a01b03808616911603610aea5760405162461bcd60e51b81526020600482015260136024820152722932b832b0ba32b21034b73b34ba30ba34b7b760691b60448201526064016105ce565b81546001600160a01b031615610b395760405162461bcd60e51b815260206004820152601460248201527320b63932b0b23c903430bb329030903ab83832b960611b60448201526064016105ce565b81546001600160a01b0385166001600160a01b0319918216811784554360028086018290558401556001838101805480830182556000918252602080832090910180549095163317909455918252600a90925260409020805460ff1916909117905560078054600890610bb99063ffffffff600160401b909104166113f8565b91906101000a81548163ffffffff021916908363ffffffff160217905550600192505050919050565b6001600160a01b038116600090815260086020908152604091829020600101805483518184028101840190945280845260609392830182828015610c4f57602002820191906000526020600020905b81546001600160a01b03168152600190910190602001808311610c31575b50505050509050919050565b6001600160a01b038116600090815260086020526040812060010154600754600654610c9491600160401b900463ffffffff169061141b565b610c9e919061143d565b92915050565b60075442600160c01b90910467ffffffffffffffff1610610cf95760405162461bcd60e51b815260206004820152600f60248201526e1c1c995cd95b1b081b9bdd08195b99608a1b60448201526064016105ce565b33600090815260096020526040902054610d495760405162461bcd60e51b8152602060048201526011602482015270757365722062616c616e6365207a65726f60781b60448201526064016105ce565b3360008181526009602052604080822054905163a9059cbb60e01b815260048101939093526024830152907f00000000000000000000000000000000000000000000000000000000000000006001600160a01b03169063a9059cbb906044016020604051808303816000875af1158015610dc7573d6000803e3d6000fd5b505050506040513d601f19601f82011682018060405250810190610deb9190611391565b905080610e0a5760405162461bcd60e51b81526004016105ce906113b3565b3360009081526009602052604081205560078054640100000000900463ffffffff16906004610e38836113f8565b91906101000a81548163ffffffff021916908363ffffffff1602179055505050565b60075442600160801b90910467ffffffffffffffff1610610ea95760405162461bcd60e51b81526020600482015260096024820152681b9bdd081cdd185c9d60ba1b60448201526064016105ce565b60075442600160c01b90910467ffffffffffffffff1611610ef65760405162461bcd60e51b81526020600482015260076024820152661a185cc8195b9960ca1b60448201526064016105ce565b60075463ffffffff600160601b8204811691161115610f575760405162461bcd60e51b815260206004820152601760248201527f5072652d6f72646572732061726520736f6c64206f757400000000000000000060448201526064016105ce565b336000908152600b602052604090205460ff1615610fab5760405162461bcd60e51b8152602060048201526011602482015270185b1c9958591e481c1d5c98da185cd959607a1b60448201526064016105ce565b60048054604051636eb1769f60e11b81523392810192909252306024830152906001600160a01b037f0000000000000000000000000000000000000000000000000000000000000000169063dd62ed3e90604401602060405180830381865afa15801561101c573d6000803e3d6000fd5b505050506040513d601f19601f82011682018060405250810190611040919061145c565b101561108e5760405162461bcd60e51b815260206004820152601b60248201527f75736474546f6b656e20616c6c6f77616e636520746f6f206c6f77000000000060448201526064016105ce565b600354600480546040516323b872dd60e01b815233928101929092526001600160a01b03928316602483015260448201526000917f000000000000000000000000000000000000000000000000000000000000000016906323b872dd906064016020604051808303816000875af115801561110d573d6000803e3d6000fd5b505050506040513d601f19601f820116820180604052508101906111319190611391565b9050806111505760405162461bcd60e51b81526004016105ce906113b3565b60055433600090815260096020908152604080832093909355600b9052908120805460ff191660011790556007805463ffffffff1691610e38836113f8565b6000546001600160a01b031633146111b95760405162461bcd60e51b81526004016105ce9061135c565b6001600160a01b03811661121e5760405162461bcd60e51b815260206004820152602660248201527f4f776e61626c653a206e6577206f776e657220697320746865207a65726f206160448201526564647265737360d01b60648201526084016105ce565b61122781611276565b50565b6000546001600160a01b031633146112545760405162461bcd60e51b81526004016105ce9061135c565b600380546001600160a01b0319166001600160a01b0392909216919091179055565b600080546001600160a01b038381166001600160a01b0319831681178455604051919092169283917f8be0079c531659141344cd1fd0a4f28419497f9722a3daafe3b4186f6b6457e09190a35050565b6000602082840312156112d857600080fd5b81356001600160a01b03811681146112ef57600080fd5b9392505050565b60006020828403121561130857600080fd5b5035919050565b6020808252825182820181905260009190848201906040850190845b818110156113505783516001600160a01b03168352928401929184019160010161132b565b50909695505050505050565b6020808252818101527f4f776e61626c653a2063616c6c6572206973206e6f7420746865206f776e6572604082015260600190565b6000602082840312156113a357600080fd5b815180151581146112ef57600080fd5b602080825260159082015274151bdad95b881d1c985b9cd9995c8819985a5b1959605a1b604082015260600190565b634e487b7160e01b600052601160045260246000fd5b600063ffffffff808316818103611411576114116113e2565b6001019392505050565b60008261143857634e487b7160e01b600052601260045260246000fd5b500490565b6000816000190483118215151615611457576114576113e2565b500290565b60006020828403121561146e57600080fd5b505191905056fea26469706673582212202ed4a6ab69b46817387fb9305756ef2ffedcedd3097a2f438f2a5ff794dd104764736f6c634300080d0033",
					"opcodes": "PUSH1 0xC0 PUSH1 0x40 MSTORE PUSH1 0x1 DUP1 SLOAD PUSH1 0x1 PUSH1 0x1 PUSH1 0xA0 SHL SUB NOT SWAP1 DUP2 AND PUSH20 0xEDA5DA0050E21E9E34FADB1075986AF1370C7BDB OR SWAP1 SWAP2 SSTORE PUSH1 0x2 DUP1 SLOAD DUP3 AND PUSH20 0xB0BC99BDB71A4320A9AD357F68EBFBE6FFEBFC8A OR SWAP1 SSTORE PUSH1 0x3 DUP1 SLOAD SWAP1 SWAP2 AND PUSH20 0xE3E90697218F31B8D0867B8A9C52947D3C888339 OR SWAP1 SSTORE PUSH8 0xDE0B6B3A7640000 PUSH1 0x4 SSTORE PUSH9 0xF3F20B8DFA69D00000 PUSH1 0x5 SSTORE PUSH10 0x56BC75E2D63100000000 PUSH1 0x6 SSTORE PUSH1 0x7 DUP1 SLOAD PUSH13 0xA000000000000000000000000 PUSH4 0xFFFFFFFF PUSH1 0x60 SHL NOT SWAP1 SWAP2 AND OR SWAP1 SSTORE CALLVALUE DUP1 ISZERO PUSH3 0xBF JUMPI PUSH1 0x0 DUP1 REVERT JUMPDEST POP PUSH1 0x40 MLOAD PUSH3 0x1787 CODESIZE SUB DUP1 PUSH3 0x1787 DUP4 CODECOPY DUP2 ADD PUSH1 0x40 DUP2 SWAP1 MSTORE PUSH3 0xE2 SWAP2 PUSH3 0x25B JUMP JUMPDEST PUSH3 0xED CALLER PUSH3 0x1EE JUMP JUMPDEST TIMESTAMP DUP3 PUSH1 0x1 PUSH1 0x1 PUSH1 0x40 SHL SUB AND LT ISZERO PUSH3 0x13D JUMPI PUSH1 0x40 MLOAD PUSH3 0x461BCD PUSH1 0xE5 SHL DUP2 MSTORE PUSH1 0x20 PUSH1 0x4 DUP3 ADD MSTORE PUSH1 0xE PUSH1 0x24 DUP3 ADD MSTORE PUSH14 0x7374617274206174203C206E6F77 PUSH1 0x90 SHL PUSH1 0x44 DUP3 ADD MSTORE PUSH1 0x64 ADD JUMPDEST PUSH1 0x40 MLOAD DUP1 SWAP2 SUB SWAP1 REVERT JUMPDEST DUP2 PUSH1 0x1 PUSH1 0x1 PUSH1 0x40 SHL SUB AND DUP2 PUSH1 0x1 PUSH1 0x1 PUSH1 0x40 SHL SUB AND LT ISZERO PUSH3 0x195 JUMPI PUSH1 0x40 MLOAD PUSH3 0x461BCD PUSH1 0xE5 SHL DUP2 MSTORE PUSH1 0x20 PUSH1 0x4 DUP3 ADD MSTORE PUSH1 0x11 PUSH1 0x24 DUP3 ADD MSTORE PUSH17 0x195B9908185D080F081CDD185C9D08185D PUSH1 0x7A SHL PUSH1 0x44 DUP3 ADD MSTORE PUSH1 0x64 ADD PUSH3 0x134 JUMP JUMPDEST PUSH1 0x7 DUP1 SLOAD PUSH1 0x1 PUSH1 0x1 PUSH1 0x80 SHL SUB AND PUSH1 0x1 PUSH1 0x80 SHL PUSH1 0x1 PUSH1 0x1 PUSH1 0x40 SHL SUB SWAP5 DUP6 AND MUL PUSH1 0x1 PUSH1 0x1 PUSH1 0xC0 SHL SUB AND OR PUSH1 0x1 PUSH1 0xC0 SHL SWAP3 SWAP1 SWAP4 AND SWAP2 SWAP1 SWAP2 MUL SWAP2 SWAP1 SWAP2 OR SWAP1 SSTORE PUSH1 0x1 SLOAD PUSH1 0x1 PUSH1 0x1 PUSH1 0xA0 SHL SUB SWAP1 DUP2 AND PUSH1 0x80 MSTORE PUSH1 0x2 SLOAD AND PUSH1 0xA0 MSTORE PUSH3 0x293 JUMP JUMPDEST PUSH1 0x0 DUP1 SLOAD PUSH1 0x1 PUSH1 0x1 PUSH1 0xA0 SHL SUB DUP4 DUP2 AND PUSH1 0x1 PUSH1 0x1 PUSH1 0xA0 SHL SUB NOT DUP4 AND DUP2 OR DUP5 SSTORE PUSH1 0x40 MLOAD SWAP2 SWAP1 SWAP3 AND SWAP3 DUP4 SWAP2 PUSH32 0x8BE0079C531659141344CD1FD0A4F28419497F9722A3DAAFE3B4186F6B6457E0 SWAP2 SWAP1 LOG3 POP POP JUMP JUMPDEST DUP1 MLOAD PUSH1 0x1 PUSH1 0x1 PUSH1 0x40 SHL SUB DUP2 AND DUP2 EQ PUSH3 0x256 JUMPI PUSH1 0x0 DUP1 REVERT JUMPDEST SWAP2 SWAP1 POP JUMP JUMPDEST PUSH1 0x0 DUP1 PUSH1 0x40 DUP4 DUP6 SUB SLT ISZERO PUSH3 0x26F JUMPI PUSH1 0x0 DUP1 REVERT JUMPDEST PUSH3 0x27A DUP4 PUSH3 0x23E JUMP JUMPDEST SWAP2 POP PUSH3 0x28A PUSH1 0x20 DUP5 ADD PUSH3 0x23E JUMP JUMPDEST SWAP1 POP SWAP3 POP SWAP3 SWAP1 POP JUMP JUMPDEST PUSH1 0x80 MLOAD PUSH1 0xA0 MLOAD PUSH2 0x14AB PUSH3 0x2DC PUSH1 0x0 CODECOPY PUSH1 0x0 DUP2 DUP2 PUSH2 0x433 ADD MSTORE DUP2 DUP2 PUSH2 0x68B ADD MSTORE DUP2 DUP2 PUSH2 0x7B3 ADD MSTORE PUSH2 0xD76 ADD MSTORE PUSH1 0x0 DUP2 DUP2 PUSH2 0x47D ADD MSTORE DUP2 DUP2 PUSH2 0xFD5 ADD MSTORE PUSH2 0x10C4 ADD MSTORE PUSH2 0x14AB PUSH1 0x0 RETURN INVALID PUSH1 0x80 PUSH1 0x40 MSTORE CALLVALUE DUP1 ISZERO PUSH2 0x10 JUMPI PUSH1 0x0 DUP1 REVERT JUMPDEST POP PUSH1 0x4 CALLDATASIZE LT PUSH2 0x1FB JUMPI PUSH1 0x0 CALLDATALOAD PUSH1 0xE0 SHR DUP1 PUSH4 0x90F5881A GT PUSH2 0x11A JUMPI DUP1 PUSH4 0xC828371E GT PUSH2 0xAD JUMPI DUP1 PUSH4 0xD1D04E1F GT PUSH2 0x7C JUMPI DUP1 PUSH4 0xD1D04E1F EQ PUSH2 0x553 JUMPI DUP1 PUSH4 0xD35CDE41 EQ PUSH2 0x568 JUMPI DUP1 PUSH4 0xF01FC57C EQ PUSH2 0x570 JUMPI DUP1 PUSH4 0xF2FDE38B EQ PUSH2 0x57E JUMPI DUP1 PUSH4 0xFAE92612 EQ PUSH2 0x591 JUMPI PUSH1 0x0 DUP1 REVERT JUMPDEST DUP1 PUSH4 0xC828371E EQ PUSH2 0x4FE JUMPI DUP1 PUSH4 0xC9EDE793 EQ PUSH2 0x517 JUMPI DUP1 PUSH4 0xD0FEBE4C EQ PUSH2 0x51F JUMPI DUP1 PUSH4 0xD139F56D EQ PUSH2 0x527 JUMPI PUSH1 0x0 DUP1 REVERT JUMPDEST DUP1 PUSH4 0xA98AD46C GT PUSH2 0xE9 JUMPI DUP1 PUSH4 0xA98AD46C EQ PUSH2 0x478 JUMPI DUP1 PUSH4 0xA98B9144 EQ PUSH2 0x49F JUMPI DUP1 PUSH4 0xB9F9231A EQ PUSH2 0x4BF JUMPI DUP1 PUSH4 0xC556FECA EQ PUSH2 0x4D2 JUMPI PUSH1 0x0 DUP1 REVERT JUMPDEST DUP1 PUSH4 0x90F5881A EQ PUSH2 0x3FB JUMPI DUP1 PUSH4 0x95623641 EQ PUSH2 0x41B JUMPI DUP1 PUSH4 0x9769F0B0 EQ PUSH2 0x42E JUMPI DUP1 PUSH4 0x9E2A0418 EQ PUSH2 0x455 JUMPI PUSH1 0x0 DUP1 REVERT JUMPDEST DUP1 PUSH4 0x6531E61C GT PUSH2 0x192 JUMPI DUP1 PUSH4 0x8568F4CE GT PUSH2 0x161 JUMPI DUP1 PUSH4 0x8568F4CE EQ PUSH2 0x39B JUMPI DUP1 PUSH4 0x88AF60C6 EQ PUSH2 0x3C4 JUMPI DUP1 PUSH4 0x8DA5CB5B EQ PUSH2 0x3D7 JUMPI DUP1 PUSH4 0x9018C818 EQ PUSH2 0x3E8 JUMPI PUSH1 0x0 DUP1 REVERT JUMPDEST DUP1 PUSH4 0x6531E61C EQ PUSH2 0x342 JUMPI DUP1 PUSH4 0x6DE34CE0 EQ PUSH2 0x355 JUMPI DUP1 PUSH4 0x715018A6 EQ PUSH2 0x381 JUMPI DUP1 PUSH4 0x78EB6C6F EQ PUSH2 0x389 JUMPI PUSH1 0x0 DUP1 REVERT JUMPDEST DUP1 PUSH4 0x304D8DEA GT PUSH2 0x1CE JUMPI DUP1 PUSH4 0x304D8DEA EQ PUSH2 0x2C2 JUMPI DUP1 PUSH4 0x374EEDEF EQ PUSH2 0x2CA JUMPI DUP1 PUSH4 0x3D719DA7 EQ PUSH2 0x306 JUMPI DUP1 PUSH4 0x439F5AC2 EQ PUSH2 0x329 JUMPI PUSH1 0x0 DUP1 REVERT JUMPDEST DUP1 PUSH4 0x27734FA EQ PUSH2 0x200 JUMPI DUP1 PUSH4 0x3D7424D EQ PUSH2 0x230 JUMPI DUP1 PUSH4 0x1EB43F1A EQ PUSH2 0x25B JUMPI DUP1 PUSH4 0x271F88B4 EQ PUSH2 0x2AD JUMPI JUMPDEST PUSH1 0x0 DUP1 REVERT JUMPDEST PUSH1 0x2 SLOAD PUSH2 0x213 SWAP1 PUSH1 0x1 PUSH1 0x1 PUSH1 0xA0 SHL SUB AND DUP2 JUMP JUMPDEST PUSH1 0x40 MLOAD PUSH1 0x1 PUSH1 0x1 PUSH1 0xA0 SHL SUB SWAP1 SWAP2 AND DUP2 MSTORE PUSH1 0x20 ADD JUMPDEST PUSH1 0x40 MLOAD DUP1 SWAP2 SUB SWAP1 RETURN JUMPDEST PUSH1 0x7 SLOAD PUSH5 0x100000000 SWAP1 DIV PUSH4 0xFFFFFFFF AND JUMPDEST PUSH1 0x40 MLOAD PUSH8 0xFFFFFFFFFFFFFFFF SWAP1 SWAP2 AND DUP2 MSTORE PUSH1 0x20 ADD PUSH2 0x227 JUMP JUMPDEST PUSH2 0x28E PUSH2 0x269 CALLDATASIZE PUSH1 0x4 PUSH2 0x12C6 JUMP JUMPDEST PUSH1 0x8 PUSH1 0x20 MSTORE PUSH1 0x0 SWAP1 DUP2 MSTORE PUSH1 0x40 SWAP1 KECCAK256 DUP1 SLOAD PUSH1 0x2 SWAP1 SWAP2 ADD SLOAD PUSH1 0x1 PUSH1 0x1 PUSH1 0xA0 SHL SUB SWAP1 SWAP2 AND SWAP1 DUP3 JUMP JUMPDEST PUSH1 0x40 DUP1 MLOAD PUSH1 0x1 PUSH1 0x1 PUSH1 0xA0 SHL SUB SWAP1 SWAP4 AND DUP4 MSTORE PUSH1 0x20 DUP4 ADD SWAP2 SWAP1 SWAP2 MSTORE ADD PUSH2 0x227 JUMP JUMPDEST PUSH2 0x2C0 PUSH2 0x2BB CALLDATASIZE PUSH1 0x4 PUSH2 0x12F6 JUMP JUMPDEST PUSH2 0x5A4 JUMP JUMPDEST STOP JUMPDEST PUSH2 0x2C0 PUSH2 0x5DC JUMP JUMPDEST PUSH2 0x2F6 PUSH2 0x2D8 CALLDATASIZE PUSH1 0x4 PUSH2 0x12C6 JUMP JUMPDEST PUSH1 0x1 PUSH1 0x1 PUSH1 0xA0 SHL SUB AND PUSH1 0x0 SWAP1 DUP2 MSTORE PUSH1 0xB PUSH1 0x20 MSTORE PUSH1 0x40 SWAP1 KECCAK256 SLOAD PUSH1 0xFF AND SWAP1 JUMP JUMPDEST PUSH1 0x40 MLOAD SWAP1 ISZERO ISZERO DUP2 MSTORE PUSH1 0x20 ADD PUSH2 0x227 JUMP JUMPDEST PUSH2 0x2F6 PUSH2 0x314 CALLDATASIZE PUSH1 0x4 PUSH2 0x12C6 JUMP JUMPDEST PUSH1 0xB PUSH1 0x20 MSTORE PUSH1 0x0 SWAP1 DUP2 MSTORE PUSH1 0x40 SWAP1 KECCAK256 SLOAD PUSH1 0xFF AND DUP2 JUMP JUMPDEST PUSH1 0x7 SLOAD PUSH1 0x1 PUSH1 0xC0 SHL SWAP1 DIV PUSH8 0xFFFFFFFFFFFFFFFF AND PUSH2 0x242 JUMP JUMPDEST PUSH2 0x2C0 PUSH2 0x350 CALLDATASIZE PUSH1 0x4 PUSH2 0x12F6 JUMP JUMPDEST PUSH2 0x76A JUMP JUMPDEST PUSH1 0x7 SLOAD PUSH2 0x36C SWAP1 PUSH1 0x1 PUSH1 0x40 SHL SWAP1 DIV PUSH4 0xFFFFFFFF AND DUP2 JUMP JUMPDEST PUSH1 0x40 MLOAD PUSH4 0xFFFFFFFF SWAP1 SWAP2 AND DUP2 MSTORE PUSH1 0x20 ADD PUSH2 0x227 JUMP JUMPDEST PUSH2 0x2C0 PUSH2 0x84B JUMP JUMPDEST PUSH1 0x5 SLOAD JUMPDEST PUSH1 0x40 MLOAD SWAP1 DUP2 MSTORE PUSH1 0x20 ADD PUSH2 0x227 JUMP JUMPDEST PUSH2 0x38D PUSH2 0x3A9 CALLDATASIZE PUSH1 0x4 PUSH2 0x12C6 JUMP JUMPDEST PUSH1 0x1 PUSH1 0x1 PUSH1 0xA0 SHL SUB AND PUSH1 0x0 SWAP1 DUP2 MSTORE PUSH1 0x9 PUSH1 0x20 MSTORE PUSH1 0x40 SWAP1 KECCAK256 SLOAD SWAP1 JUMP JUMPDEST PUSH1 0x1 SLOAD PUSH2 0x213 SWAP1 PUSH1 0x1 PUSH1 0x1 PUSH1 0xA0 SHL SUB AND DUP2 JUMP JUMPDEST PUSH1 0x0 SLOAD PUSH1 0x1 PUSH1 0x1 PUSH1 0xA0 SHL SUB AND PUSH2 0x213 JUMP JUMPDEST PUSH2 0x2F6 PUSH2 0x3F6 CALLDATASIZE PUSH1 0x4 PUSH2 0x12C6 JUMP JUMPDEST PUSH2 0x881 JUMP JUMPDEST PUSH2 0x38D PUSH2 0x409 CALLDATASIZE PUSH1 0x4 PUSH2 0x12C6 JUMP JUMPDEST PUSH1 0x9 PUSH1 0x20 MSTORE PUSH1 0x0 SWAP1 DUP2 MSTORE PUSH1 0x40 SWAP1 KECCAK256 SLOAD DUP2 JUMP JUMPDEST PUSH1 0x3 SLOAD PUSH2 0x213 SWAP1 PUSH1 0x1 PUSH1 0x1 PUSH1 0xA0 SHL SUB AND DUP2 JUMP JUMPDEST PUSH2 0x213 PUSH32 0x0 DUP2 JUMP JUMPDEST PUSH2 0x2F6 PUSH2 0x463 CALLDATASIZE PUSH1 0x4 PUSH2 0x12C6 JUMP JUMPDEST PUSH1 0xA PUSH1 0x20 MSTORE PUSH1 0x0 SWAP1 DUP2 MSTORE PUSH1 0x40 SWAP1 KECCAK256 SLOAD PUSH1 0xFF AND DUP2 JUMP JUMPDEST PUSH2 0x213 PUSH32 0x0 DUP2 JUMP JUMPDEST PUSH2 0x4B2 PUSH2 0x4AD CALLDATASIZE PUSH1 0x4 PUSH2 0x12C6 JUMP JUMPDEST PUSH2 0xBE2 JUMP JUMPDEST PUSH1 0x40 MLOAD PUSH2 0x227 SWAP2 SWAP1 PUSH2 0x130F JUMP JUMPDEST PUSH2 0x38D PUSH2 0x4CD CALLDATASIZE PUSH1 0x4 PUSH2 0x12C6 JUMP JUMPDEST PUSH2 0xC5B JUMP JUMPDEST PUSH2 0x38D PUSH2 0x4E0 CALLDATASIZE PUSH1 0x4 PUSH2 0x12C6 JUMP JUMPDEST PUSH1 0x1 PUSH1 0x1 PUSH1 0xA0 SHL SUB AND PUSH1 0x0 SWAP1 DUP2 MSTORE PUSH1 0x8 PUSH1 0x20 MSTORE PUSH1 0x40 SWAP1 KECCAK256 PUSH1 0x1 ADD SLOAD SWAP1 JUMP JUMPDEST PUSH1 0x7 SLOAD PUSH1 0x1 PUSH1 0x80 SHL SWAP1 DIV PUSH8 0xFFFFFFFFFFFFFFFF AND PUSH2 0x242 JUMP JUMPDEST PUSH2 0x2C0 PUSH2 0xCA4 JUMP JUMPDEST PUSH2 0x2C0 PUSH2 0xE5A JUMP JUMPDEST PUSH2 0x213 PUSH2 0x535 CALLDATASIZE PUSH1 0x4 PUSH2 0x12C6 JUMP JUMPDEST PUSH1 0x1 PUSH1 0x1 PUSH1 0xA0 SHL SUB SWAP1 DUP2 AND PUSH1 0x0 SWAP1 DUP2 MSTORE PUSH1 0x8 PUSH1 0x20 MSTORE PUSH1 0x40 SWAP1 KECCAK256 SLOAD AND SWAP1 JUMP JUMPDEST PUSH1 0x7 SLOAD PUSH1 0x1 PUSH1 0x60 SHL SWAP1 DIV PUSH4 0xFFFFFFFF AND PUSH2 0x36C JUMP JUMPDEST PUSH1 0x4 SLOAD PUSH2 0x38D JUMP JUMPDEST PUSH1 0x7 SLOAD PUSH4 0xFFFFFFFF AND PUSH2 0x242 JUMP JUMPDEST PUSH2 0x2C0 PUSH2 0x58C CALLDATASIZE PUSH1 0x4 PUSH2 0x12C6 JUMP JUMPDEST PUSH2 0x118F JUMP JUMPDEST PUSH2 0x2C0 PUSH2 0x59F CALLDATASIZE PUSH1 0x4 PUSH2 0x12C6 JUMP JUMPDEST PUSH2 0x122A JUMP JUMPDEST PUSH1 0x0 SLOAD PUSH1 0x1 PUSH1 0x1 PUSH1 0xA0 SHL SUB AND CALLER EQ PUSH2 0x5D7 JUMPI PUSH1 0x40 MLOAD PUSH3 0x461BCD PUSH1 0xE5 SHL DUP2 MSTORE PUSH1 0x4 ADD PUSH2 0x5CE SWAP1 PUSH2 0x135C JUMP JUMPDEST PUSH1 0x40 MLOAD DUP1 SWAP2 SUB SWAP1 REVERT JUMPDEST PUSH1 0x4 SSTORE JUMP JUMPDEST PUSH1 0x7 SLOAD TIMESTAMP PUSH1 0x1 PUSH1 0xC0 SHL SWAP1 SWAP2 DIV PUSH8 0xFFFFFFFFFFFFFFFF AND LT PUSH2 0x631 JUMPI PUSH1 0x40 MLOAD PUSH3 0x461BCD PUSH1 0xE5 SHL DUP2 MSTORE PUSH1 0x20 PUSH1 0x4 DUP3 ADD MSTORE PUSH1 0xF PUSH1 0x24 DUP3 ADD MSTORE PUSH15 0x1C1C995CD95B1B081B9BDD08195B99 PUSH1 0x8A SHL PUSH1 0x44 DUP3 ADD MSTORE PUSH1 0x64 ADD PUSH2 0x5CE JUMP JUMPDEST CALLER PUSH1 0x0 SWAP1 DUP2 MSTORE PUSH1 0xA PUSH1 0x20 MSTORE PUSH1 0x40 SWAP1 KECCAK256 SLOAD PUSH1 0xFF AND ISZERO ISZERO PUSH1 0x1 EQ PUSH2 0x687 JUMPI PUSH1 0x40 MLOAD PUSH3 0x461BCD PUSH1 0xE5 SHL DUP2 MSTORE PUSH1 0x20 PUSH1 0x4 DUP3 ADD MSTORE PUSH1 0xF PUSH1 0x24 DUP3 ADD MSTORE PUSH15 0x75736572206E6F7420696E76697465 PUSH1 0x88 SHL PUSH1 0x44 DUP3 ADD MSTORE PUSH1 0x64 ADD PUSH2 0x5CE JUMP JUMPDEST PUSH1 0x0 PUSH32 0x0 PUSH1 0x1 PUSH1 0x1 PUSH1 0xA0 SHL SUB AND PUSH4 0xA9059CBB CALLER PUSH2 0x6C2 CALLER PUSH2 0xC5B JUMP JUMPDEST PUSH1 0x40 MLOAD PUSH1 0x1 PUSH1 0x1 PUSH1 0xE0 SHL SUB NOT PUSH1 0xE0 DUP6 SWAP1 SHL AND DUP2 MSTORE PUSH1 0x1 PUSH1 0x1 PUSH1 0xA0 SHL SUB SWAP1 SWAP3 AND PUSH1 0x4 DUP4 ADD MSTORE PUSH1 0x24 DUP3 ADD MSTORE PUSH1 0x44 ADD PUSH1 0x20 PUSH1 0x40 MLOAD DUP1 DUP4 SUB DUP2 PUSH1 0x0 DUP8 GAS CALL ISZERO DUP1 ISZERO PUSH2 0x70D JUMPI RETURNDATASIZE PUSH1 0x0 DUP1 RETURNDATACOPY RETURNDATASIZE PUSH1 0x0 REVERT JUMPDEST POP POP POP POP PUSH1 0x40 MLOAD RETURNDATASIZE PUSH1 0x1F NOT PUSH1 0x1F DUP3 ADD AND DUP3 ADD DUP1 PUSH1 0x40 MSTORE POP DUP2 ADD SWAP1 PUSH2 0x731 SWAP2 SWAP1 PUSH2 0x1391 JUMP JUMPDEST SWAP1 POP DUP1 PUSH2 0x750 JUMPI PUSH1 0x40 MLOAD PUSH3 0x461BCD PUSH1 0xE5 SHL DUP2 MSTORE PUSH1 0x4 ADD PUSH2 0x5CE SWAP1 PUSH2 0x13B3 JUMP JUMPDEST POP CALLER PUSH1 0x0 SWAP1 DUP2 MSTORE PUSH1 0xA PUSH1 0x20 MSTORE PUSH1 0x40 SWAP1 KECCAK256 DUP1 SLOAD PUSH1 0xFF NOT AND SWAP1 SSTORE JUMP JUMPDEST PUSH1 0x0 SLOAD PUSH1 0x1 PUSH1 0x1 PUSH1 0xA0 SHL SUB AND CALLER EQ PUSH2 0x794 JUMPI PUSH1 0x40 MLOAD PUSH3 0x461BCD PUSH1 0xE5 SHL DUP2 MSTORE PUSH1 0x4 ADD PUSH2 0x5CE SWAP1 PUSH2 0x135C JUMP JUMPDEST PUSH1 0x40 MLOAD PUSH4 0xA9059CBB PUSH1 0xE0 SHL DUP2 MSTORE CALLER PUSH1 0x4 DUP3 ADD MSTORE PUSH1 0x24 DUP2 ADD DUP3 SWAP1 MSTORE PUSH1 0x0 SWAP1 PUSH32 0x0 PUSH1 0x1 PUSH1 0x1 PUSH1 0xA0 SHL SUB AND SWAP1 PUSH4 0xA9059CBB SWAP1 PUSH1 0x44 ADD PUSH1 0x20 PUSH1 0x40 MLOAD DUP1 DUP4 SUB DUP2 PUSH1 0x0 DUP8 GAS CALL ISZERO DUP1 ISZERO PUSH2 0x804 JUMPI RETURNDATASIZE PUSH1 0x0 DUP1 RETURNDATACOPY RETURNDATASIZE PUSH1 0x0 REVERT JUMPDEST POP POP POP POP PUSH1 0x40 MLOAD RETURNDATASIZE PUSH1 0x1F NOT PUSH1 0x1F DUP3 ADD AND DUP3 ADD DUP1 PUSH1 0x40 MSTORE POP DUP2 ADD SWAP1 PUSH2 0x828 SWAP2 SWAP1 PUSH2 0x1391 JUMP JUMPDEST SWAP1 POP DUP1 PUSH2 0x847 JUMPI PUSH1 0x40 MLOAD PUSH3 0x461BCD PUSH1 0xE5 SHL DUP2 MSTORE PUSH1 0x4 ADD PUSH2 0x5CE SWAP1 PUSH2 0x13B3 JUMP JUMPDEST POP POP JUMP JUMPDEST PUSH1 0x0 SLOAD PUSH1 0x1 PUSH1 0x1 PUSH1 0xA0 SHL SUB AND CALLER EQ PUSH2 0x875 JUMPI PUSH1 0x40 MLOAD PUSH3 0x461BCD PUSH1 0xE5 SHL DUP2 MSTORE PUSH1 0x4 ADD PUSH2 0x5CE SWAP1 PUSH2 0x135C JUMP JUMPDEST PUSH2 0x87F PUSH1 0x0 PUSH2 0x1276 JUMP JUMPDEST JUMP JUMPDEST PUSH1 0x7 SLOAD PUSH1 0x0 SWAP1 TIMESTAMP PUSH1 0x1 PUSH1 0x80 SHL SWAP1 SWAP2 DIV PUSH8 0xFFFFFFFFFFFFFFFF AND LT PUSH2 0x8D3 JUMPI PUSH1 0x40 MLOAD PUSH3 0x461BCD PUSH1 0xE5 SHL DUP2 MSTORE PUSH1 0x20 PUSH1 0x4 DUP3 ADD MSTORE PUSH1 0x9 PUSH1 0x24 DUP3 ADD MSTORE PUSH9 0x1B9BDD081CDD185C9D PUSH1 0xBA SHL PUSH1 0x44 DUP3 ADD MSTORE PUSH1 0x64 ADD PUSH2 0x5CE JUMP JUMPDEST PUSH1 0x7 SLOAD TIMESTAMP PUSH1 0x1 PUSH1 0xC0 SHL SWAP1 SWAP2 DIV PUSH8 0xFFFFFFFFFFFFFFFF AND GT PUSH2 0x920 JUMPI PUSH1 0x40 MLOAD PUSH3 0x461BCD PUSH1 0xE5 SHL DUP2 MSTORE PUSH1 0x20 PUSH1 0x4 DUP3 ADD MSTORE PUSH1 0x7 PUSH1 0x24 DUP3 ADD MSTORE PUSH7 0x1A185CC8195B99 PUSH1 0xCA SHL PUSH1 0x44 DUP3 ADD MSTORE PUSH1 0x64 ADD PUSH2 0x5CE JUMP JUMPDEST PUSH1 0x1 PUSH1 0x1 PUSH1 0xA0 SHL SUB DUP3 AND PUSH1 0x0 SWAP1 DUP2 MSTORE PUSH1 0xB PUSH1 0x20 MSTORE PUSH1 0x40 SWAP1 KECCAK256 SLOAD PUSH1 0xFF AND PUSH2 0x97C JUMPI PUSH1 0x40 MLOAD PUSH3 0x461BCD PUSH1 0xE5 SHL DUP2 MSTORE PUSH1 0x20 PUSH1 0x4 DUP3 ADD MSTORE PUSH1 0x11 PUSH1 0x24 DUP3 ADD MSTORE PUSH17 0x4265653A7570706572206E6F7420627579 PUSH1 0x78 SHL PUSH1 0x44 DUP3 ADD MSTORE PUSH1 0x64 ADD PUSH2 0x5CE JUMP JUMPDEST CALLER PUSH1 0x0 SWAP1 DUP2 MSTORE PUSH1 0xB PUSH1 0x20 MSTORE PUSH1 0x40 SWAP1 KECCAK256 SLOAD PUSH1 0xFF AND PUSH2 0x9CE JUMPI PUSH1 0x40 MLOAD PUSH3 0x461BCD PUSH1 0xE5 SHL DUP2 MSTORE PUSH1 0x20 PUSH1 0x4 DUP3 ADD MSTORE PUSH1 0x10 PUSH1 0x24 DUP3 ADD MSTORE PUSH16 0x4265653A75736572206E6F7420627579 PUSH1 0x80 SHL PUSH1 0x44 DUP3 ADD MSTORE PUSH1 0x64 ADD PUSH2 0x5CE JUMP JUMPDEST PUSH1 0x1 PUSH1 0x1 PUSH1 0xA0 SHL SUB DUP3 AND CALLER SUB PUSH2 0xA16 JUMPI PUSH1 0x40 MLOAD PUSH3 0x461BCD PUSH1 0xE5 SHL DUP2 MSTORE PUSH1 0x20 PUSH1 0x4 DUP3 ADD MSTORE PUSH1 0xD PUSH1 0x24 DUP3 ADD MSTORE PUSH13 0x2132B29D2327A92124A22222A7 PUSH1 0x99 SHL PUSH1 0x44 DUP3 ADD MSTORE PUSH1 0x64 ADD PUSH2 0x5CE JUMP JUMPDEST CALLER PUSH1 0x0 DUP2 DUP2 MSTORE PUSH1 0x8 PUSH1 0x20 MSTORE PUSH1 0x40 DUP1 DUP3 KECCAK256 PUSH1 0x1 PUSH1 0x1 PUSH1 0xA0 SHL SUB DUP7 DUP2 AND DUP5 MSTORE SWAP2 SWAP1 SWAP3 KECCAK256 DUP1 SLOAD SWAP3 SWAP4 SWAP1 SWAP3 SWAP1 SWAP2 AND SUB PUSH2 0xA98 JUMPI PUSH1 0x40 MLOAD PUSH3 0x461BCD PUSH1 0xE5 SHL DUP2 MSTORE PUSH1 0x20 PUSH1 0x4 DUP3 ADD MSTORE PUSH1 0x22 PUSH1 0x24 DUP3 ADD MSTORE PUSH32 0x54686520696E76697465722069732061206C6F77657220746F20746865207573 PUSH1 0x44 DUP3 ADD MSTORE PUSH2 0x32B9 PUSH1 0xF1 SHL PUSH1 0x64 DUP3 ADD MSTORE PUSH1 0x84 ADD PUSH2 0x5CE JUMP JUMPDEST DUP2 SLOAD PUSH1 0x1 PUSH1 0x1 PUSH1 0xA0 SHL SUB DUP1 DUP7 AND SWAP2 AND SUB PUSH2 0xAEA JUMPI PUSH1 0x40 MLOAD PUSH3 0x461BCD PUSH1 0xE5 SHL DUP2 MSTORE PUSH1 0x20 PUSH1 0x4 DUP3 ADD MSTORE PUSH1 0x13 PUSH1 0x24 DUP3 ADD MSTORE PUSH19 0x2932B832B0BA32B21034B73B34BA30BA34B7B7 PUSH1 0x69 SHL PUSH1 0x44 DUP3 ADD MSTORE PUSH1 0x64 ADD PUSH2 0x5CE JUMP JUMPDEST DUP2 SLOAD PUSH1 0x1 PUSH1 0x1 PUSH1 0xA0 SHL SUB AND ISZERO PUSH2 0xB39 JUMPI PUSH1 0x40 MLOAD PUSH3 0x461BCD PUSH1 0xE5 SHL DUP2 MSTORE PUSH1 0x20 PUSH1 0x4 DUP3 ADD MSTORE PUSH1 0x14 PUSH1 0x24 DUP3 ADD MSTORE PUSH20 0x20B63932B0B23C903430BB329030903AB83832B9 PUSH1 0x61 SHL PUSH1 0x44 DUP3 ADD MSTORE PUSH1 0x64 ADD PUSH2 0x5CE JUMP JUMPDEST DUP2 SLOAD PUSH1 0x1 PUSH1 0x1 PUSH1 0xA0 SHL SUB DUP6 AND PUSH1 0x1 PUSH1 0x1 PUSH1 0xA0 SHL SUB NOT SWAP2 DUP3 AND DUP2 OR DUP5 SSTORE NUMBER PUSH1 0x2 DUP1 DUP7 ADD DUP3 SWAP1 SSTORE DUP5 ADD SSTORE PUSH1 0x1 DUP4 DUP2 ADD DUP1 SLOAD DUP1 DUP4 ADD DUP3 SSTORE PUSH1 0x0 SWAP2 DUP3 MSTORE PUSH1 0x20 DUP1 DUP4 KECCAK256 SWAP1 SWAP2 ADD DUP1 SLOAD SWAP1 SWAP6 AND CALLER OR SWAP1 SWAP5 SSTORE SWAP2 DUP3 MSTORE PUSH1 0xA SWAP1 SWAP3 MSTORE PUSH1 0x40 SWAP1 KECCAK256 DUP1 SLOAD PUSH1 0xFF NOT AND SWAP1 SWAP2 OR SWAP1 SSTORE PUSH1 0x7 DUP1 SLOAD PUSH1 0x8 SWAP1 PUSH2 0xBB9 SWAP1 PUSH4 0xFFFFFFFF PUSH1 0x1 PUSH1 0x40 SHL SWAP1 SWAP2 DIV AND PUSH2 0x13F8 JUMP JUMPDEST SWAP2 SWAP1 PUSH2 0x100 EXP DUP2 SLOAD DUP2 PUSH4 0xFFFFFFFF MUL NOT AND SWAP1 DUP4 PUSH4 0xFFFFFFFF AND MUL OR SWAP1 SSTORE POP PUSH1 0x1 SWAP3 POP POP POP SWAP2 SWAP1 POP JUMP JUMPDEST PUSH1 0x1 PUSH1 0x1 PUSH1 0xA0 SHL SUB DUP2 AND PUSH1 0x0 SWAP1 DUP2 MSTORE PUSH1 0x8 PUSH1 0x20 SWAP1 DUP2 MSTORE PUSH1 0x40 SWAP2 DUP3 SWAP1 KECCAK256 PUSH1 0x1 ADD DUP1 SLOAD DUP4 MLOAD DUP2 DUP5 MUL DUP2 ADD DUP5 ADD SWAP1 SWAP5 MSTORE DUP1 DUP5 MSTORE PUSH1 0x60 SWAP4 SWAP3 DUP4 ADD DUP3 DUP3 DUP1 ISZERO PUSH2 0xC4F JUMPI PUSH1 0x20 MUL DUP3 ADD SWAP2 SWAP1 PUSH1 0x0 MSTORE PUSH1 0x20 PUSH1 0x0 KECCAK256 SWAP1 JUMPDEST DUP2 SLOAD PUSH1 0x1 PUSH1 0x1 PUSH1 0xA0 SHL SUB AND DUP2 MSTORE PUSH1 0x1 SWAP1 SWAP2 ADD SWAP1 PUSH1 0x20 ADD DUP1 DUP4 GT PUSH2 0xC31 JUMPI JUMPDEST POP POP POP POP POP SWAP1 POP SWAP2 SWAP1 POP JUMP JUMPDEST PUSH1 0x1 PUSH1 0x1 PUSH1 0xA0 SHL SUB DUP2 AND PUSH1 0x0 SWAP1 DUP2 MSTORE PUSH1 0x8 PUSH1 0x20 MSTORE PUSH1 0x40 DUP2 KECCAK256 PUSH1 0x1 ADD SLOAD PUSH1 0x7 SLOAD PUSH1 0x6 SLOAD PUSH2 0xC94 SWAP2 PUSH1 0x1 PUSH1 0x40 SHL SWAP1 DIV PUSH4 0xFFFFFFFF AND SWAP1 PUSH2 0x141B JUMP JUMPDEST PUSH2 0xC9E SWAP2 SWAP1 PUSH2 0x143D JUMP JUMPDEST SWAP3 SWAP2 POP POP JUMP JUMPDEST PUSH1 0x7 SLOAD TIMESTAMP PUSH1 0x1 PUSH1 0xC0 SHL SWAP1 SWAP2 DIV PUSH8 0xFFFFFFFFFFFFFFFF AND LT PUSH2 0xCF9 JUMPI PUSH1 0x40 MLOAD PUSH3 0x461BCD PUSH1 0xE5 SHL DUP2 MSTORE PUSH1 0x20 PUSH1 0x4 DUP3 ADD MSTORE PUSH1 0xF PUSH1 0x24 DUP3 ADD MSTORE PUSH15 0x1C1C995CD95B1B081B9BDD08195B99 PUSH1 0x8A SHL PUSH1 0x44 DUP3 ADD MSTORE PUSH1 0x64 ADD PUSH2 0x5CE JUMP JUMPDEST CALLER PUSH1 0x0 SWAP1 DUP2 MSTORE PUSH1 0x9 PUSH1 0x20 MSTORE PUSH1 0x40 SWAP1 KECCAK256 SLOAD PUSH2 0xD49 JUMPI PUSH1 0x40 MLOAD PUSH3 0x461BCD PUSH1 0xE5 SHL DUP2 MSTORE PUSH1 0x20 PUSH1 0x4 DUP3 ADD MSTORE PUSH1 0x11 PUSH1 0x24 DUP3 ADD MSTORE PUSH17 0x757365722062616C616E6365207A65726F PUSH1 0x78 SHL PUSH1 0x44 DUP3 ADD MSTORE PUSH1 0x64 ADD PUSH2 0x5CE JUMP JUMPDEST CALLER PUSH1 0x0 DUP2 DUP2 MSTORE PUSH1 0x9 PUSH1 0x20 MSTORE PUSH1 0x40 DUP1 DUP3 KECCAK256 SLOAD SWAP1 MLOAD PUSH4 0xA9059CBB PUSH1 0xE0 SHL DUP2 MSTORE PUSH1 0x4 DUP2 ADD SWAP4 SWAP1 SWAP4 MSTORE PUSH1 0x24 DUP4 ADD MSTORE SWAP1 PUSH32 0x0 PUSH1 0x1 PUSH1 0x1 PUSH1 0xA0 SHL SUB AND SWAP1 PUSH4 0xA9059CBB SWAP1 PUSH1 0x44 ADD PUSH1 0x20 PUSH1 0x40 MLOAD DUP1 DUP4 SUB DUP2 PUSH1 0x0 DUP8 GAS CALL ISZERO DUP1 ISZERO PUSH2 0xDC7 JUMPI RETURNDATASIZE PUSH1 0x0 DUP1 RETURNDATACOPY RETURNDATASIZE PUSH1 0x0 REVERT JUMPDEST POP POP POP POP PUSH1 0x40 MLOAD RETURNDATASIZE PUSH1 0x1F NOT PUSH1 0x1F DUP3 ADD AND DUP3 ADD DUP1 PUSH1 0x40 MSTORE POP DUP2 ADD SWAP1 PUSH2 0xDEB SWAP2 SWAP1 PUSH2 0x1391 JUMP JUMPDEST SWAP1 POP DUP1 PUSH2 0xE0A JUMPI PUSH1 0x40 MLOAD PUSH3 0x461BCD PUSH1 0xE5 SHL DUP2 MSTORE PUSH1 0x4 ADD PUSH2 0x5CE SWAP1 PUSH2 0x13B3 JUMP JUMPDEST CALLER PUSH1 0x0 SWAP1 DUP2 MSTORE PUSH1 0x9 PUSH1 0x20 MSTORE PUSH1 0x40 DUP2 KECCAK256 SSTORE PUSH1 0x7 DUP1 SLOAD PUSH5 0x100000000 SWAP1 DIV PUSH4 0xFFFFFFFF AND SWAP1 PUSH1 0x4 PUSH2 0xE38 DUP4 PUSH2 0x13F8 JUMP JUMPDEST SWAP2 SWAP1 PUSH2 0x100 EXP DUP2 SLOAD DUP2 PUSH4 0xFFFFFFFF MUL NOT AND SWAP1 DUP4 PUSH4 0xFFFFFFFF AND MUL OR SWAP1 SSTORE POP POP POP JUMP JUMPDEST PUSH1 0x7 SLOAD TIMESTAMP PUSH1 0x1 PUSH1 0x80 SHL SWAP1 SWAP2 DIV PUSH8 0xFFFFFFFFFFFFFFFF AND LT PUSH2 0xEA9 JUMPI PUSH1 0x40 MLOAD PUSH3 0x461BCD PUSH1 0xE5 SHL DUP2 MSTORE PUSH1 0x20 PUSH1 0x4 DUP3 ADD MSTORE PUSH1 0x9 PUSH1 0x24 DUP3 ADD MSTORE PUSH9 0x1B9BDD081CDD185C9D PUSH1 0xBA SHL PUSH1 0x44 DUP3 ADD MSTORE PUSH1 0x64 ADD PUSH2 0x5CE JUMP JUMPDEST PUSH1 0x7 SLOAD TIMESTAMP PUSH1 0x1 PUSH1 0xC0 SHL SWAP1 SWAP2 DIV PUSH8 0xFFFFFFFFFFFFFFFF AND GT PUSH2 0xEF6 JUMPI PUSH1 0x40 MLOAD PUSH3 0x461BCD PUSH1 0xE5 SHL DUP2 MSTORE PUSH1 0x20 PUSH1 0x4 DUP3 ADD MSTORE PUSH1 0x7 PUSH1 0x24 DUP3 ADD MSTORE PUSH7 0x1A185CC8195B99 PUSH1 0xCA SHL PUSH1 0x44 DUP3 ADD MSTORE PUSH1 0x64 ADD PUSH2 0x5CE JUMP JUMPDEST PUSH1 0x7 SLOAD PUSH4 0xFFFFFFFF PUSH1 0x1 PUSH1 0x60 SHL DUP3 DIV DUP2 AND SWAP2 AND GT ISZERO PUSH2 0xF57 JUMPI PUSH1 0x40 MLOAD PUSH3 0x461BCD PUSH1 0xE5 SHL DUP2 MSTORE PUSH1 0x20 PUSH1 0x4 DUP3 ADD MSTORE PUSH1 0x17 PUSH1 0x24 DUP3 ADD MSTORE PUSH32 0x5072652D6F72646572732061726520736F6C64206F7574000000000000000000 PUSH1 0x44 DUP3 ADD MSTORE PUSH1 0x64 ADD PUSH2 0x5CE JUMP JUMPDEST CALLER PUSH1 0x0 SWAP1 DUP2 MSTORE PUSH1 0xB PUSH1 0x20 MSTORE PUSH1 0x40 SWAP1 KECCAK256 SLOAD PUSH1 0xFF AND ISZERO PUSH2 0xFAB JUMPI PUSH1 0x40 MLOAD PUSH3 0x461BCD PUSH1 0xE5 SHL DUP2 MSTORE PUSH1 0x20 PUSH1 0x4 DUP3 ADD MSTORE PUSH1 0x11 PUSH1 0x24 DUP3 ADD MSTORE PUSH17 0x185B1C9958591E481C1D5C98DA185CD959 PUSH1 0x7A SHL PUSH1 0x44 DUP3 ADD MSTORE PUSH1 0x64 ADD PUSH2 0x5CE JUMP JUMPDEST PUSH1 0x4 DUP1 SLOAD PUSH1 0x40 MLOAD PUSH4 0x6EB1769F PUSH1 0xE1 SHL DUP2 MSTORE CALLER SWAP3 DUP2 ADD SWAP3 SWAP1 SWAP3 MSTORE ADDRESS PUSH1 0x24 DUP4 ADD MSTORE SWAP1 PUSH1 0x1 PUSH1 0x1 PUSH1 0xA0 SHL SUB PUSH32 0x0 AND SWAP1 PUSH4 0xDD62ED3E SWAP1 PUSH1 0x44 ADD PUSH1 0x20 PUSH1 0x40 MLOAD DUP1 DUP4 SUB DUP2 DUP7 GAS STATICCALL ISZERO DUP1 ISZERO PUSH2 0x101C JUMPI RETURNDATASIZE PUSH1 0x0 DUP1 RETURNDATACOPY RETURNDATASIZE PUSH1 0x0 REVERT JUMPDEST POP POP POP POP PUSH1 0x40 MLOAD RETURNDATASIZE PUSH1 0x1F NOT PUSH1 0x1F DUP3 ADD AND DUP3 ADD DUP1 PUSH1 0x40 MSTORE POP DUP2 ADD SWAP1 PUSH2 0x1040 SWAP2 SWAP1 PUSH2 0x145C JUMP JUMPDEST LT ISZERO PUSH2 0x108E JUMPI PUSH1 0x40 MLOAD PUSH3 0x461BCD PUSH1 0xE5 SHL DUP2 MSTORE PUSH1 0x20 PUSH1 0x4 DUP3 ADD MSTORE PUSH1 0x1B PUSH1 0x24 DUP3 ADD MSTORE PUSH32 0x75736474546F6B656E20616C6C6F77616E636520746F6F206C6F770000000000 PUSH1 0x44 DUP3 ADD MSTORE PUSH1 0x64 ADD PUSH2 0x5CE JUMP JUMPDEST PUSH1 0x3 SLOAD PUSH1 0x4 DUP1 SLOAD PUSH1 0x40 MLOAD PUSH4 0x23B872DD PUSH1 0xE0 SHL DUP2 MSTORE CALLER SWAP3 DUP2 ADD SWAP3 SWAP1 SWAP3 MSTORE PUSH1 0x1 PUSH1 0x1 PUSH1 0xA0 SHL SUB SWAP3 DUP4 AND PUSH1 0x24 DUP4 ADD MSTORE PUSH1 0x44 DUP3 ADD MSTORE PUSH1 0x0 SWAP2 PUSH32 0x0 AND SWAP1 PUSH4 0x23B872DD SWAP1 PUSH1 0x64 ADD PUSH1 0x20 PUSH1 0x40 MLOAD DUP1 DUP4 SUB DUP2 PUSH1 0x0 DUP8 GAS CALL ISZERO DUP1 ISZERO PUSH2 0x110D JUMPI RETURNDATASIZE PUSH1 0x0 DUP1 RETURNDATACOPY RETURNDATASIZE PUSH1 0x0 REVERT JUMPDEST POP POP POP POP PUSH1 0x40 MLOAD RETURNDATASIZE PUSH1 0x1F NOT PUSH1 0x1F DUP3 ADD AND DUP3 ADD DUP1 PUSH1 0x40 MSTORE POP DUP2 ADD SWAP1 PUSH2 0x1131 SWAP2 SWAP1 PUSH2 0x1391 JUMP JUMPDEST SWAP1 POP DUP1 PUSH2 0x1150 JUMPI PUSH1 0x40 MLOAD PUSH3 0x461BCD PUSH1 0xE5 SHL DUP2 MSTORE PUSH1 0x4 ADD PUSH2 0x5CE SWAP1 PUSH2 0x13B3 JUMP JUMPDEST PUSH1 0x5 SLOAD CALLER PUSH1 0x0 SWAP1 DUP2 MSTORE PUSH1 0x9 PUSH1 0x20 SWAP1 DUP2 MSTORE PUSH1 0x40 DUP1 DUP4 KECCAK256 SWAP4 SWAP1 SWAP4 SSTORE PUSH1 0xB SWAP1 MSTORE SWAP1 DUP2 KECCAK256 DUP1 SLOAD PUSH1 0xFF NOT AND PUSH1 0x1 OR SWAP1 SSTORE PUSH1 0x7 DUP1 SLOAD PUSH4 0xFFFFFFFF AND SWAP2 PUSH2 0xE38 DUP4 PUSH2 0x13F8 JUMP JUMPDEST PUSH1 0x0 SLOAD PUSH1 0x1 PUSH1 0x1 PUSH1 0xA0 SHL SUB AND CALLER EQ PUSH2 0x11B9 JUMPI PUSH1 0x40 MLOAD PUSH3 0x461BCD PUSH1 0xE5 SHL DUP2 MSTORE PUSH1 0x4 ADD PUSH2 0x5CE SWAP1 PUSH2 0x135C JUMP JUMPDEST PUSH1 0x1 PUSH1 0x1 PUSH1 0xA0 SHL SUB DUP2 AND PUSH2 0x121E JUMPI PUSH1 0x40 MLOAD PUSH3 0x461BCD PUSH1 0xE5 SHL DUP2 MSTORE PUSH1 0x20 PUSH1 0x4 DUP3 ADD MSTORE PUSH1 0x26 PUSH1 0x24 DUP3 ADD MSTORE PUSH32 0x4F776E61626C653A206E6577206F776E657220697320746865207A65726F2061 PUSH1 0x44 DUP3 ADD MSTORE PUSH6 0x646472657373 PUSH1 0xD0 SHL PUSH1 0x64 DUP3 ADD MSTORE PUSH1 0x84 ADD PUSH2 0x5CE JUMP JUMPDEST PUSH2 0x1227 DUP2 PUSH2 0x1276 JUMP JUMPDEST POP JUMP JUMPDEST PUSH1 0x0 SLOAD PUSH1 0x1 PUSH1 0x1 PUSH1 0xA0 SHL SUB AND CALLER EQ PUSH2 0x1254 JUMPI PUSH1 0x40 MLOAD PUSH3 0x461BCD PUSH1 0xE5 SHL DUP2 MSTORE PUSH1 0x4 ADD PUSH2 0x5CE SWAP1 PUSH2 0x135C JUMP JUMPDEST PUSH1 0x3 DUP1 SLOAD PUSH1 0x1 PUSH1 0x1 PUSH1 0xA0 SHL SUB NOT AND PUSH1 0x1 PUSH1 0x1 PUSH1 0xA0 SHL SUB SWAP3 SWAP1 SWAP3 AND SWAP2 SWAP1 SWAP2 OR SWAP1 SSTORE JUMP JUMPDEST PUSH1 0x0 DUP1 SLOAD PUSH1 0x1 PUSH1 0x1 PUSH1 0xA0 SHL SUB DUP4 DUP2 AND PUSH1 0x1 PUSH1 0x1 PUSH1 0xA0 SHL SUB NOT DUP4 AND DUP2 OR DUP5 SSTORE PUSH1 0x40 MLOAD SWAP2 SWAP1 SWAP3 AND SWAP3 DUP4 SWAP2 PUSH32 0x8BE0079C531659141344CD1FD0A4F28419497F9722A3DAAFE3B4186F6B6457E0 SWAP2 SWAP1 LOG3 POP POP JUMP JUMPDEST PUSH1 0x0 PUSH1 0x20 DUP3 DUP5 SUB SLT ISZERO PUSH2 0x12D8 JUMPI PUSH1 0x0 DUP1 REVERT JUMPDEST DUP2 CALLDATALOAD PUSH1 0x1 PUSH1 0x1 PUSH1 0xA0 SHL SUB DUP2 AND DUP2 EQ PUSH2 0x12EF JUMPI PUSH1 0x0 DUP1 REVERT JUMPDEST SWAP4 SWAP3 POP POP POP JUMP JUMPDEST PUSH1 0x0 PUSH1 0x20 DUP3 DUP5 SUB SLT ISZERO PUSH2 0x1308 JUMPI PUSH1 0x0 DUP1 REVERT JUMPDEST POP CALLDATALOAD SWAP2 SWAP1 POP JUMP JUMPDEST PUSH1 0x20 DUP1 DUP3 MSTORE DUP3 MLOAD DUP3 DUP3 ADD DUP2 SWAP1 MSTORE PUSH1 0x0 SWAP2 SWAP1 DUP5 DUP3 ADD SWAP1 PUSH1 0x40 DUP6 ADD SWAP1 DUP5 JUMPDEST DUP2 DUP2 LT ISZERO PUSH2 0x1350 JUMPI DUP4 MLOAD PUSH1 0x1 PUSH1 0x1 PUSH1 0xA0 SHL SUB AND DUP4 MSTORE SWAP3 DUP5 ADD SWAP3 SWAP2 DUP5 ADD SWAP2 PUSH1 0x1 ADD PUSH2 0x132B JUMP JUMPDEST POP SWAP1 SWAP7 SWAP6 POP POP POP POP POP POP JUMP JUMPDEST PUSH1 0x20 DUP1 DUP3 MSTORE DUP2 DUP2 ADD MSTORE PUSH32 0x4F776E61626C653A2063616C6C6572206973206E6F7420746865206F776E6572 PUSH1 0x40 DUP3 ADD MSTORE PUSH1 0x60 ADD SWAP1 JUMP JUMPDEST PUSH1 0x0 PUSH1 0x20 DUP3 DUP5 SUB SLT ISZERO PUSH2 0x13A3 JUMPI PUSH1 0x0 DUP1 REVERT JUMPDEST DUP2 MLOAD DUP1 ISZERO ISZERO DUP2 EQ PUSH2 0x12EF JUMPI PUSH1 0x0 DUP1 REVERT JUMPDEST PUSH1 0x20 DUP1 DUP3 MSTORE PUSH1 0x15 SWAP1 DUP3 ADD MSTORE PUSH21 0x151BDAD95B881D1C985B9CD9995C8819985A5B1959 PUSH1 0x5A SHL PUSH1 0x40 DUP3 ADD MSTORE PUSH1 0x60 ADD SWAP1 JUMP JUMPDEST PUSH4 0x4E487B71 PUSH1 0xE0 SHL PUSH1 0x0 MSTORE PUSH1 0x11 PUSH1 0x4 MSTORE PUSH1 0x24 PUSH1 0x0 REVERT JUMPDEST PUSH1 0x0 PUSH4 0xFFFFFFFF DUP1 DUP4 AND DUP2 DUP2 SUB PUSH2 0x1411 JUMPI PUSH2 0x1411 PUSH2 0x13E2 JUMP JUMPDEST PUSH1 0x1 ADD SWAP4 SWAP3 POP POP POP JUMP JUMPDEST PUSH1 0x0 DUP3 PUSH2 0x1438 JUMPI PUSH4 0x4E487B71 PUSH1 0xE0 SHL PUSH1 0x0 MSTORE PUSH1 0x12 PUSH1 0x4 MSTORE PUSH1 0x24 PUSH1 0x0 REVERT JUMPDEST POP DIV SWAP1 JUMP JUMPDEST PUSH1 0x0 DUP2 PUSH1 0x0 NOT DIV DUP4 GT DUP3 ISZERO ISZERO AND ISZERO PUSH2 0x1457 JUMPI PUSH2 0x1457 PUSH2 0x13E2 JUMP JUMPDEST POP MUL SWAP1 JUMP JUMPDEST PUSH1 0x0 PUSH1 0x20 DUP3 DUP5 SUB SLT ISZERO PUSH2 0x146E JUMPI PUSH1 0x0 DUP1 REVERT JUMPDEST POP MLOAD SWAP2 SWAP1 POP JUMP INVALID LOG2 PUSH5 0x6970667358 0x22 SLT KECCAK256 0x2E 0xD4 0xA6 0xAB PUSH10 0xB46817387FB9305756EF 0x2F INVALID 0xDC 0xED 0xD3 MULMOD PUSH27 0x2F438F2A5FF794DD104764736F6C634300080D0033000000000000 "
				},
				"gasEstimates": {
					"creation": {
						"codeDepositCost": "1058200",
						"executionCost": "infinite",
						"totalCost": "infinite"
					},
					"external": {
						"acceptInvitation(address)": "183618",
						"buyTokens()": "infinite",
						"exigencyWithdraw(uint256)": "infinite",
						"getEndTime()": "2436",
						"getPreSellCoinAmount()": "2393",
						"getPreSellCounter()": "2395",
						"getPresellMax()": "2368",
						"getStartTime()": "2369",
						"getUsdtAmount()": "2358",
						"getUserHasBuy(address)": "2582",
						"getUserInviteAirdropCoinAmount(address)": "7000",
						"getUserLowers(address)": "infinite",
						"getUserLowersCount(address)": "2619",
						"getUserPreSellCoinAmount(address)": "2547",
						"getUserUpper(address)": "2632",
						"getWithdrawCounter()": "2376",
						"hasBuy(address)": "2586",
						"inviteInfo(address)": "4762",
						"lowersCounter()": "2398",
						"marketAddress()": "2394",
						"owner()": "2409",
						"presellTokenMintAddress()": "2373",
						"renounceOwnership()": "28204",
						"sellToken()": "infinite",
						"setAmount(uint256)": "24577",
						"setMarketAddress(address)": "26808",
						"transferOwnership(address)": "28384",
						"usdtMintAddress()": "2393",
						"usdtToken()": "infinite",
						"userInviteBalancelMap(address)": "2608",
						"userPresellBalanceMap(address)": "2530",
						"withdrawInviteAirdropTokens()": "infinite",
						"withdrawPresellTokens()": "infinite"
					}
				},
				"methodIdentifiers": {
					"acceptInvitation(address)": "9018c818",
					"buyTokens()": "d0febe4c",
					"exigencyWithdraw(uint256)": "6531e61c",
					"getEndTime()": "439f5ac2",
					"getPreSellCoinAmount()": "78eb6c6f",
					"getPreSellCounter()": "f01fc57c",
					"getPresellMax()": "d1d04e1f",
					"getStartTime()": "c828371e",
					"getUsdtAmount()": "d35cde41",
					"getUserHasBuy(address)": "374eedef",
					"getUserInviteAirdropCoinAmount(address)": "b9f9231a",
					"getUserLowers(address)": "a98b9144",
					"getUserLowersCount(address)": "c556feca",
					"getUserPreSellCoinAmount(address)": "8568f4ce",
					"getUserUpper(address)": "d139f56d",
					"getWithdrawCounter()": "03d7424d",
					"hasBuy(address)": "3d719da7",
					"inviteInfo(address)": "1eb43f1a",
					"lowersCounter()": "6de34ce0",
					"marketAddress()": "95623641",
					"owner()": "8da5cb5b",
					"presellTokenMintAddress()": "027734fa",
					"renounceOwnership()": "715018a6",
					"sellToken()": "9769f0b0",
					"setAmount(uint256)": "271f88b4",
					"setMarketAddress(address)": "fae92612",
					"transferOwnership(address)": "f2fde38b",
					"usdtMintAddress()": "88af60c6",
					"usdtToken()": "a98ad46c",
					"userInviteBalancelMap(address)": "9e2a0418",
					"userPresellBalanceMap(address)": "90f5881a",
					"withdrawInviteAirdropTokens()": "304d8dea",
					"withdrawPresellTokens()": "c9ede793"
				}
			},
			"storageLayout": {
				"storage": [
					{
						"astId": 70,
						"contract": "msc_token/BeePresell.sol:BeePresell",
						"label": "_owner",
						"offset": 0,
						"slot": "0",
						"type": "t_address"
					},
					{
						"astId": 180,
						"contract": "msc_token/BeePresell.sol:BeePresell",
						"label": "usdtMintAddress",
						"offset": 0,
						"slot": "1",
						"type": "t_address"
					},
					{
						"astId": 183,
						"contract": "msc_token/BeePresell.sol:BeePresell",
						"label": "presellTokenMintAddress",
						"offset": 0,
						"slot": "2",
						"type": "t_address"
					},
					{
						"astId": 186,
						"contract": "msc_token/BeePresell.sol:BeePresell",
						"label": "marketAddress",
						"offset": 0,
						"slot": "3",
						"type": "t_address"
					},
					{
						"astId": 193,
						"contract": "msc_token/BeePresell.sol:BeePresell",
						"label": "usdtAmount",
						"offset": 0,
						"slot": "4",
						"type": "t_uint256"
					},
					{
						"astId": 200,
						"contract": "msc_token/BeePresell.sol:BeePresell",
						"label": "preSellCoinPreAmount",
						"offset": 0,
						"slot": "5",
						"type": "t_uint256"
					},
					{
						"astId": 207,
						"contract": "msc_token/BeePresell.sol:BeePresell",
						"label": "inviteAirdropCoinAmount",
						"offset": 0,
						"slot": "6",
						"type": "t_uint256"
					},
					{
						"astId": 209,
						"contract": "msc_token/BeePresell.sol:BeePresell",
						"label": "counter",
						"offset": 0,
						"slot": "7",
						"type": "t_uint32"
					},
					{
						"astId": 211,
						"contract": "msc_token/BeePresell.sol:BeePresell",
						"label": "withdrawCounter",
						"offset": 4,
						"slot": "7",
						"type": "t_uint32"
					},
					{
						"astId": 213,
						"contract": "msc_token/BeePresell.sol:BeePresell",
						"label": "lowersCounter",
						"offset": 8,
						"slot": "7",
						"type": "t_uint32"
					},
					{
						"astId": 216,
						"contract": "msc_token/BeePresell.sol:BeePresell",
						"label": "preMax",
						"offset": 12,
						"slot": "7",
						"type": "t_uint32"
					},
					{
						"astId": 218,
						"contract": "msc_token/BeePresell.sol:BeePresell",
						"label": "startAt",
						"offset": 16,
						"slot": "7",
						"type": "t_uint64"
					},
					{
						"astId": 220,
						"contract": "msc_token/BeePresell.sol:BeePresell",
						"label": "endAt",
						"offset": 24,
						"slot": "7",
						"type": "t_uint64"
					},
					{
						"astId": 225,
						"contract": "msc_token/BeePresell.sol:BeePresell",
						"label": "inviteInfo",
						"offset": 0,
						"slot": "8",
						"type": "t_mapping(t_address,t_struct(UserInfo)177_storage)"
					},
					{
						"astId": 235,
						"contract": "msc_token/BeePresell.sol:BeePresell",
						"label": "userPresellBalanceMap",
						"offset": 0,
						"slot": "9",
						"type": "t_mapping(t_address,t_uint256)"
					},
					{
						"astId": 239,
						"contract": "msc_token/BeePresell.sol:BeePresell",
						"label": "userInviteBalancelMap",
						"offset": 0,
						"slot": "10",
						"type": "t_mapping(t_address,t_bool)"
					},
					{
						"astId": 243,
						"contract": "msc_token/BeePresell.sol:BeePresell",
						"label": "hasBuy",
						"offset": 0,
						"slot": "11",
						"type": "t_mapping(t_address,t_bool)"
					}
				],
				"types": {
					"t_address": {
						"encoding": "inplace",
						"label": "address",
						"numberOfBytes": "20"
					},
					"t_array(t_address)dyn_storage": {
						"base": "t_address",
						"encoding": "dynamic_array",
						"label": "address[]",
						"numberOfBytes": "32"
					},
					"t_bool": {
						"encoding": "inplace",
						"label": "bool",
						"numberOfBytes": "1"
					},
					"t_mapping(t_address,t_bool)": {
						"encoding": "mapping",
						"key": "t_address",
						"label": "mapping(address => bool)",
						"numberOfBytes": "32",
						"value": "t_bool"
					},
					"t_mapping(t_address,t_struct(UserInfo)177_storage)": {
						"encoding": "mapping",
						"key": "t_address",
						"label": "mapping(address => struct BeePresell.UserInfo)",
						"numberOfBytes": "32",
						"value": "t_struct(UserInfo)177_storage"
					},
					"t_mapping(t_address,t_uint256)": {
						"encoding": "mapping",
						"key": "t_address",
						"label": "mapping(address => uint256)",
						"numberOfBytes": "32",
						"value": "t_uint256"
					},
					"t_struct(UserInfo)177_storage": {
						"encoding": "inplace",
						"label": "struct BeePresell.UserInfo",
						"members": [
							{
								"astId": 171,
								"contract": "msc_token/BeePresell.sol:BeePresell",
								"label": "upper",
								"offset": 0,
								"slot": "0",
								"type": "t_address"
							},
							{
								"astId": 174,
								"contract": "msc_token/BeePresell.sol:BeePresell",
								"label": "lowers",
								"offset": 0,
								"slot": "1",
								"type": "t_array(t_address)dyn_storage"
							},
							{
								"astId": 176,
								"contract": "msc_token/BeePresell.sol:BeePresell",
								"label": "startBlock",
								"offset": 0,
								"slot": "2",
								"type": "t_uint256"
							}
						],
						"numberOfBytes": "96"
					},
					"t_uint256": {
						"encoding": "inplace",
						"label": "uint256",
						"numberOfBytes": "32"
					},
					"t_uint32": {
						"encoding": "inplace",
						"label": "uint32",
						"numberOfBytes": "4"
					},
					"t_uint64": {
						"encoding": "inplace",
						"label": "uint64",
						"numberOfBytes": "8"
					}
				}
			},
			"userdoc": {
				"kind": "user",
				"methods": {},
				"version": 1
			}
		}
	}
}