{
	"upgradeable/ERC20Updateable.sol": {
		"Proxiable": {
			"abi": [
				{
					"inputs": [],
					"name": "proxiableUUID",
					"outputs": [
						{
							"internalType": "bytes32",
							"name": "",
							"type": "bytes32"
						}
					],
					"stateMutability": "pure",
					"type": "function"
				}
			],
			"devdoc": {
				"kind": "dev",
				"methods": {},
				"version": 1
			},
			"evm": {
				"assembly": "    /* \"upgradeable/ERC20Updateable.sol\":1260:1985  contract Proxiable {\r... */\n  mstore(0x40, 0x80)\n  callvalue\n  dup1\n  iszero\n  tag_1\n  jumpi\n  0x00\n  dup1\n  revert\ntag_1:\n  pop\n  dataSize(sub_0)\n  dup1\n  dataOffset(sub_0)\n  0x00\n  codecopy\n  0x00\n  return\nstop\n\nsub_0: assembly {\n        /* \"upgradeable/ERC20Updateable.sol\":1260:1985  contract Proxiable {\r... */\n      mstore(0x40, 0x80)\n      callvalue\n      dup1\n      iszero\n      tag_1\n      jumpi\n      0x00\n      dup1\n      revert\n    tag_1:\n      pop\n      jumpi(tag_2, lt(calldatasize, 0x04))\n      shr(0xe0, calldataload(0x00))\n      dup1\n      0x52d1902d\n      eq\n      tag_3\n      jumpi\n    tag_2:\n      0x00\n      dup1\n      revert\n        /* \"upgradeable/ERC20Updateable.sol\":1835:1982  function proxiableUUID() public pure returns (bytes32) {\r... */\n    tag_3:\n      tag_4\n      tag_5\n      jump\t// in\n    tag_4:\n      mload(0x40)\n      tag_6\n      swap2\n      swap1\n      tag_7\n      jump\t// in\n    tag_6:\n      mload(0x40)\n      dup1\n      swap2\n      sub\n      swap1\n      return\n    tag_5:\n        /* \"upgradeable/ERC20Updateable.sol\":1908:1974  0xc5f16f0fcc639fa48a6947836d9850f504798523bf8c9a3a87d5876cf622bcf7 */\n      0xc5f16f0fcc639fa48a6947836d9850f504798523bf8c9a3a87d5876cf622bcf7\n        /* \"upgradeable/ERC20Updateable.sol\":1835:1982  function proxiableUUID() public pure returns (bytes32) {\r... */\n      swap1\n      jump\t// out\n        /* \"#utility.yul\":14:191   */\n    tag_7:\n        /* \"#utility.yul\":160:185   */\n      swap1\n      dup2\n      mstore\n        /* \"#utility.yul\":148:150   */\n      0x20\n        /* \"#utility.yul\":133:151   */\n      add\n      swap1\n        /* \"#utility.yul\":115:191   */\n      jump\t// out\n\n    auxdata: 0xa26469706673582212207b9c9c437c883a7e1e50841ed015b74b6809528ff864eed0d11e24b9cabb506264736f6c63430008010033\n}\n",
				"bytecode": {
					"linkReferences": {},
					"object": "6080604052348015600f57600080fd5b5060aa8061001e6000396000f3fe6080604052348015600f57600080fd5b506004361060285760003560e01c806352d1902d14602d575b600080fd5b60336047565b604051603e9190606b565b60405180910390f35b7fc5f16f0fcc639fa48a6947836d9850f504798523bf8c9a3a87d5876cf622bcf790565b9081526020019056fea26469706673582212207b9c9c437c883a7e1e50841ed015b74b6809528ff864eed0d11e24b9cabb506264736f6c63430008010033",
					"opcodes": "PUSH1 0x80 PUSH1 0x40 MSTORE CALLVALUE DUP1 ISZERO PUSH1 0xF JUMPI PUSH1 0x0 DUP1 REVERT JUMPDEST POP PUSH1 0xAA DUP1 PUSH2 0x1E PUSH1 0x0 CODECOPY PUSH1 0x0 RETURN INVALID PUSH1 0x80 PUSH1 0x40 MSTORE CALLVALUE DUP1 ISZERO PUSH1 0xF JUMPI PUSH1 0x0 DUP1 REVERT JUMPDEST POP PUSH1 0x4 CALLDATASIZE LT PUSH1 0x28 JUMPI PUSH1 0x0 CALLDATALOAD PUSH1 0xE0 SHR DUP1 PUSH4 0x52D1902D EQ PUSH1 0x2D JUMPI JUMPDEST PUSH1 0x0 DUP1 REVERT JUMPDEST PUSH1 0x33 PUSH1 0x47 JUMP JUMPDEST PUSH1 0x40 MLOAD PUSH1 0x3E SWAP2 SWAP1 PUSH1 0x6B JUMP JUMPDEST PUSH1 0x40 MLOAD DUP1 SWAP2 SUB SWAP1 RETURN JUMPDEST PUSH32 0xC5F16F0FCC639FA48A6947836D9850F504798523BF8C9A3A87D5876CF622BCF7 SWAP1 JUMP JUMPDEST SWAP1 DUP2 MSTORE PUSH1 0x20 ADD SWAP1 JUMP INVALID LOG2 PUSH5 0x6970667358 0x22 SLT KECCAK256 PUSH28 0x9C9C437C883A7E1E50841ED015B74B6809528FF864EED0D11E24B9CA 0xBB POP PUSH3 0x64736F PUSH13 0x63430008010033000000000000 "
				},
				"gasEstimates": {
					"creation": {
						"codeDepositCost": "34000",
						"executionCost": "87",
						"totalCost": "34087"
					},
					"external": {
						"proxiableUUID()": "206"
					},
					"internal": {
						"updateCodeAddress(address)": "infinite"
					}
				},
				"methodIdentifiers": {
					"proxiableUUID()": "52d1902d"
				}
			},
			"storageLayout": {
				"storage": [],
				"types": null
			},
			"userdoc": {
				"kind": "user",
				"methods": {},
				"version": 1
			}
		}
	}
}