{
	"upgradeable/ERC20Updateable.sol": {
		"MyTokenV1": {
			"abi": [
				{
					"inputs": [],
					"stateMutability": "nonpayable",
					"type": "constructor"
				},
				{
					"anonymous": false,
					"inputs": [
						{
							"indexed": true,
							"internalType": "address",
							"name": "owner",
							"type": "address"
						},
						{
							"indexed": true,
							"internalType": "address",
							"name": "spender",
							"type": "address"
						},
						{
							"indexed": false,
							"internalType": "uint256",
							"name": "value",
							"type": "uint256"
						}
					],
					"name": "Approval",
					"type": "event"
				},
				{
					"anonymous": false,
					"inputs": [
						{
							"indexed": false,
							"internalType": "uint8",
							"name": "version",
							"type": "uint8"
						}
					],
					"name": "Initialized",
					"type": "event"
				},
				{
					"anonymous": false,
					"inputs": [
						{
							"indexed": true,
							"internalType": "address",
							"name": "from",
							"type": "address"
						},
						{
							"indexed": true,
							"internalType": "address",
							"name": "to",
							"type": "address"
						},
						{
							"indexed": false,
							"internalType": "uint256",
							"name": "value",
							"type": "uint256"
						}
					],
					"name": "Transfer",
					"type": "event"
				},
				{
					"inputs": [
						{
							"internalType": "address",
							"name": "owner",
							"type": "address"
						},
						{
							"internalType": "address",
							"name": "spender",
							"type": "address"
						}
					],
					"name": "allowance",
					"outputs": [
						{
							"internalType": "uint256",
							"name": "",
							"type": "uint256"
						}
					],
					"stateMutability": "view",
					"type": "function"
				},
				{
					"inputs": [
						{
							"internalType": "address",
							"name": "spender",
							"type": "address"
						},
						{
							"internalType": "uint256",
							"name": "amount",
							"type": "uint256"
						}
					],
					"name": "approve",
					"outputs": [
						{
							"internalType": "bool",
							"name": "",
							"type": "bool"
						}
					],
					"stateMutability": "nonpayable",
					"type": "function"
				},
				{
					"inputs": [
						{
							"internalType": "address",
							"name": "account",
							"type": "address"
						}
					],
					"name": "balanceOf",
					"outputs": [
						{
							"internalType": "uint256",
							"name": "",
							"type": "uint256"
						}
					],
					"stateMutability": "view",
					"type": "function"
				},
				{
					"inputs": [],
					"name": "decimals",
					"outputs": [
						{
							"internalType": "uint8",
							"name": "",
							"type": "uint8"
						}
					],
					"stateMutability": "view",
					"type": "function"
				},
				{
					"inputs": [
						{
							"internalType": "address",
							"name": "spender",
							"type": "address"
						},
						{
							"internalType": "uint256",
							"name": "subtractedValue",
							"type": "uint256"
						}
					],
					"name": "decreaseAllowance",
					"outputs": [
						{
							"internalType": "bool",
							"name": "",
							"type": "bool"
						}
					],
					"stateMutability": "nonpayable",
					"type": "function"
				},
				{
					"inputs": [
						{
							"internalType": "address",
							"name": "spender",
							"type": "address"
						},
						{
							"internalType": "uint256",
							"name": "addedValue",
							"type": "uint256"
						}
					],
					"name": "increaseAllowance",
					"outputs": [
						{
							"internalType": "bool",
							"name": "",
							"type": "bool"
						}
					],
					"stateMutability": "nonpayable",
					"type": "function"
				},
				{
					"inputs": [],
					"name": "initialize",
					"outputs": [],
					"stateMutability": "nonpayable",
					"type": "function"
				},
				{
					"inputs": [],
					"name": "name",
					"outputs": [
						{
							"internalType": "string",
							"name": "",
							"type": "string"
						}
					],
					"stateMutability": "view",
					"type": "function"
				},
				{
					"inputs": [],
					"name": "symbol",
					"outputs": [
						{
							"internalType": "string",
							"name": "",
							"type": "string"
						}
					],
					"stateMutability": "view",
					"type": "function"
				},
				{
					"inputs": [],
					"name": "totalSupply",
					"outputs": [
						{
							"internalType": "uint256",
							"name": "",
							"type": "uint256"
						}
					],
					"stateMutability": "view",
					"type": "function"
				},
				{
					"inputs": [
						{
							"internalType": "address",
							"name": "to",
							"type": "address"
						},
						{
							"internalType": "uint256",
							"name": "amount",
							"type": "uint256"
						}
					],
					"name": "transfer",
					"outputs": [
						{
							"internalType": "bool",
							"name": "",
							"type": "bool"
						}
					],
					"stateMutability": "nonpayable",
					"type": "function"
				},
				{
					"inputs": [
						{
							"internalType": "address",
							"name": "from",
							"type": "address"
						},
						{
							"internalType": "address",
							"name": "to",
							"type": "address"
						},
						{
							"internalType": "uint256",
							"name": "amount",
							"type": "uint256"
						}
					],
					"name": "transferFrom",
					"outputs": [
						{
							"internalType": "bool",
							"name": "",
							"type": "bool"
						}
					],
					"stateMutability": "nonpayable",
					"type": "function"
				}
			],
			"devdoc": {
				"kind": "dev",
				"methods": {
					"allowance(address,address)": {
						"details": "See {IERC20-allowance}."
					},
					"approve(address,uint256)": {
						"details": "See {IERC20-approve}. NOTE: If `amount` is the maximum `uint256`, the allowance is not updated on `transferFrom`. This is semantically equivalent to an infinite approval. Requirements: - `spender` cannot be the zero address."
					},
					"balanceOf(address)": {
						"details": "See {IERC20-balanceOf}."
					},
					"constructor": {
						"custom:oz-upgrades-unsafe-allow": "constructor"
					},
					"decimals()": {
						"details": "Returns the number of decimals used to get its user representation. For example, if `decimals` equals `2`, a balance of `505` tokens should be displayed to a user as `5.05` (`505 / 10 ** 2`). Tokens usually opt for a value of 18, imitating the relationship between Ether and Wei. This is the value {ERC20} uses, unless this function is overridden; NOTE: This information is only used for _display_ purposes: it in no way affects any of the arithmetic of the contract, including {IERC20-balanceOf} and {IERC20-transfer}."
					},
					"decreaseAllowance(address,uint256)": {
						"details": "Atomically decreases the allowance granted to `spender` by the caller. This is an alternative to {approve} that can be used as a mitigation for problems described in {IERC20-approve}. Emits an {Approval} event indicating the updated allowance. Requirements: - `spender` cannot be the zero address. - `spender` must have allowance for the caller of at least `subtractedValue`."
					},
					"increaseAllowance(address,uint256)": {
						"details": "Atomically increases the allowance granted to `spender` by the caller. This is an alternative to {approve} that can be used as a mitigation for problems described in {IERC20-approve}. Emits an {Approval} event indicating the updated allowance. Requirements: - `spender` cannot be the zero address."
					},
					"name()": {
						"details": "Returns the name of the token."
					},
					"symbol()": {
						"details": "Returns the symbol of the token, usually a shorter version of the name."
					},
					"totalSupply()": {
						"details": "See {IERC20-totalSupply}."
					},
					"transfer(address,uint256)": {
						"details": "See {IERC20-transfer}. Requirements: - `to` cannot be the zero address. - the caller must have a balance of at least `amount`."
					},
					"transferFrom(address,address,uint256)": {
						"details": "See {IERC20-transferFrom}. Emits an {Approval} event indicating the updated allowance. This is not required by the EIP. See the note at the beginning of {ERC20}. NOTE: Does not update the allowance if the current allowance is the maximum `uint256`. Requirements: - `from` and `to` cannot be the zero address. - `from` must have a balance of at least `amount`. - the caller must have allowance for ``from``'s tokens of at least `amount`."
					}
				},
				"version": 1
			},
			"evm": {
				"assembly": "    /* \"upgradeable/ERC20Updateable.sol\":374:669  contract MyTokenV1 is Initializable, ERC20Upgradeable {... */\n  mstore(0x40, 0x80)\n    /* \"upgradeable/ERC20Updateable.sol\":638:666  constructor() initializer {} */\n  callvalue\n  dup1\n  iszero\n  tag_1\n  jumpi\n  0x00\n  dup1\n  revert\ntag_1:\n  pop\n    /* \"node_modules/@openzeppelin-contracts-upgradeable/proxy/utils/Initializable.sol\":3189:3208  bool isTopLevelCall */\n  0x00\n    /* \"node_modules/@openzeppelin-contracts-upgradeable/proxy/utils/Initializable.sol\":3212:3225  _initializing */\n  sload\n  0x0100\n  swap1\n  div\n  0xff\n  and\n    /* \"node_modules/@openzeppelin-contracts-upgradeable/proxy/utils/Initializable.sol\":3211:3225  !_initializing */\n  iszero\n  dup1\n    /* \"node_modules/@openzeppelin-contracts-upgradeable/proxy/utils/Initializable.sol\":3259:3293  isTopLevelCall && _initialized < 1 */\n  dup1\n  iszero\n  tag_4\n  jumpi\n  pop\n    /* \"node_modules/@openzeppelin-contracts-upgradeable/proxy/utils/Initializable.sol\":3277:3289  _initialized */\n  sload(0x00)\n    /* \"node_modules/@openzeppelin-contracts-upgradeable/proxy/utils/Initializable.sol\":3292:3293  1 */\n  0x01\n    /* \"node_modules/@openzeppelin-contracts-upgradeable/proxy/utils/Initializable.sol\":3277:3289  _initialized */\n  0xff\n  swap1\n  swap2\n  and\n    /* \"node_modules/@openzeppelin-contracts-upgradeable/proxy/utils/Initializable.sol\":3277:3293  _initialized < 1 */\n  lt\n    /* \"node_modules/@openzeppelin-contracts-upgradeable/proxy/utils/Initializable.sol\":3259:3293  isTopLevelCall && _initialized < 1 */\ntag_4:\n    /* \"node_modules/@openzeppelin-contracts-upgradeable/proxy/utils/Initializable.sol\":3258:3366  (isTopLevelCall && _initialized < 1) || (!AddressUpgradeable.isContract(address(this)) && _initialized == 1) */\n  dup1\n  tag_8\n  jumpi\n  pop\n    /* \"node_modules/@openzeppelin-contracts-upgradeable/proxy/utils/Initializable.sol\":3300:3344  AddressUpgradeable.isContract(address(this)) */\n  tag_6\n    /* \"node_modules/@openzeppelin-contracts-upgradeable/proxy/utils/Initializable.sol\":3338:3342  this */\n  address\n    /* \"node_modules/@openzeppelin-contracts-upgradeable/proxy/utils/Initializable.sol\":3300:3329  AddressUpgradeable.isContract */\n  or(tag_0_66, shl(0x20, tag_7))\n    /* \"node_modules/@openzeppelin-contracts-upgradeable/proxy/utils/Initializable.sol\":3300:3344  AddressUpgradeable.isContract(address(this)) */\n  0x20\n  shr\n  jump\t// in\ntag_6:\n    /* \"node_modules/@openzeppelin-contracts-upgradeable/proxy/utils/Initializable.sol\":3299:3344  !AddressUpgradeable.isContract(address(this)) */\n  iszero\n    /* \"node_modules/@openzeppelin-contracts-upgradeable/proxy/utils/Initializable.sol\":3299:3365  !AddressUpgradeable.isContract(address(this)) && _initialized == 1 */\n  dup1\n  iszero\n  tag_8\n  jumpi\n  pop\n    /* \"node_modules/@openzeppelin-contracts-upgradeable/proxy/utils/Initializable.sol\":3348:3360  _initialized */\n  and(0xff, sload(0x00))\n  0x01\n    /* \"node_modules/@openzeppelin-contracts-upgradeable/proxy/utils/Initializable.sol\":3348:3365  _initialized == 1 */\n  eq\n    /* \"node_modules/@openzeppelin-contracts-upgradeable/proxy/utils/Initializable.sol\":3299:3365  !AddressUpgradeable.isContract(address(this)) && _initialized == 1 */\ntag_8:\n    /* \"node_modules/@openzeppelin-contracts-upgradeable/proxy/utils/Initializable.sol\":3236:3440  require(... */\n  tag_9\n  jumpi\n  mload(0x40)\n  shl(0xe5, 0x461bcd)\n  dup2\n  mstore\n    /* \"#utility.yul\":216:218   */\n  0x20\n    /* \"node_modules/@openzeppelin-contracts-upgradeable/proxy/utils/Initializable.sol\":3236:3440  require(... */\n  0x04\n  dup3\n  add\n    /* \"#utility.yul\":198:219   */\n  mstore\n    /* \"#utility.yul\":255:257   */\n  0x2e\n    /* \"#utility.yul\":235:253   */\n  0x24\n  dup3\n  add\n    /* \"#utility.yul\":228:258   */\n  mstore\n    /* \"#utility.yul\":294:328   */\n  0x496e697469616c697a61626c653a20636f6e747261637420697320616c726561\n    /* \"#utility.yul\":274:292   */\n  0x44\n  dup3\n  add\n    /* \"#utility.yul\":267:329   */\n  mstore\n  shl(0x92, 0x191e481a5b9a5d1a585b1a5e9959)\n    /* \"#utility.yul\":345:363   */\n  0x64\n  dup3\n  add\n    /* \"#utility.yul\":338:382   */\n  mstore\n    /* \"#utility.yul\":399:418   */\n  0x84\n  add\n    /* \"node_modules/@openzeppelin-contracts-upgradeable/proxy/utils/Initializable.sol\":3236:3440  require(... */\n  mload(0x40)\n  dup1\n  swap2\n  sub\n  swap1\n  revert\ntag_9:\n    /* \"node_modules/@openzeppelin-contracts-upgradeable/proxy/utils/Initializable.sol\":3451:3463  _initialized */\n  0x00\n    /* \"node_modules/@openzeppelin-contracts-upgradeable/proxy/utils/Initializable.sol\":3451:3467  _initialized = 1 */\n  dup1\n  sload\n  not(0xff)\n  and\n    /* \"node_modules/@openzeppelin-contracts-upgradeable/proxy/utils/Initializable.sol\":3466:3467  1 */\n  0x01\n    /* \"node_modules/@openzeppelin-contracts-upgradeable/proxy/utils/Initializable.sol\":3451:3467  _initialized = 1 */\n  or\n  swap1\n  sstore\n    /* \"node_modules/@openzeppelin-contracts-upgradeable/proxy/utils/Initializable.sol\":3478:3545  if (isTopLevelCall) {... */\n  dup1\n  iszero\n  tag_12\n  jumpi\n    /* \"node_modules/@openzeppelin-contracts-upgradeable/proxy/utils/Initializable.sol\":3513:3526  _initializing */\n  0x00\n    /* \"node_modules/@openzeppelin-contracts-upgradeable/proxy/utils/Initializable.sol\":3513:3533  _initializing = true */\n  dup1\n  sload\n  not(0xff00)\n  and\n  0x0100\n  or\n  swap1\n  sstore\n    /* \"node_modules/@openzeppelin-contracts-upgradeable/proxy/utils/Initializable.sol\":3478:3545  if (isTopLevelCall) {... */\ntag_12:\n    /* \"node_modules/@openzeppelin-contracts-upgradeable/proxy/utils/Initializable.sol\":3571:3585  isTopLevelCall */\n  dup1\n    /* \"node_modules/@openzeppelin-contracts-upgradeable/proxy/utils/Initializable.sol\":3567:3669  if (isTopLevelCall) {... */\n  iszero\n  tag_14\n  jumpi\n    /* \"node_modules/@openzeppelin-contracts-upgradeable/proxy/utils/Initializable.sol\":3618:3623  false */\n  0x00\n    /* \"node_modules/@openzeppelin-contracts-upgradeable/proxy/utils/Initializable.sol\":3602:3623  _initializing = false */\n  dup1\n  sload\n  not(0xff00)\n  and\n  swap1\n  sstore\n    /* \"node_modules/@openzeppelin-contracts-upgradeable/proxy/utils/Initializable.sol\":3643:3657  Initialized(1) */\n  mload(0x40)\n  0x01\n    /* \"#utility.yul\":581:617   */\n  dup2\n  mstore\n    /* \"node_modules/@openzeppelin-contracts-upgradeable/proxy/utils/Initializable.sol\":3643:3657  Initialized(1) */\n  0x7f26b83ff96e1f2b6a682f133852f6798a09c465da95921460cefb3847402498\n  swap1\n    /* \"#utility.yul\":569:571   */\n  0x20\n    /* \"#utility.yul\":554:572   */\n  add\n    /* \"node_modules/@openzeppelin-contracts-upgradeable/proxy/utils/Initializable.sol\":3643:3657  Initialized(1) */\n  mload(0x40)\n  dup1\n  swap2\n  sub\n  swap1\n  log1\n    /* \"node_modules/@openzeppelin-contracts-upgradeable/proxy/utils/Initializable.sol\":3567:3669  if (isTopLevelCall) {... */\ntag_14:\n    /* \"node_modules/@openzeppelin-contracts-upgradeable/proxy/utils/Initializable.sol\":3178:3676  {... */\n  pop\n    /* \"upgradeable/ERC20Updateable.sol\":374:669  contract MyTokenV1 is Initializable, ERC20Upgradeable {... */\n  jump(tag_19)\n    /* \"node_modules/@openzeppelin-contracts-upgradeable/utils/AddressUpgradeable.sol\":1221:1547  function isContract(address account) internal view returns (bool) {... */\ntag_7:\n  sub(shl(0xa0, 0x01), 0x01)\n    /* \"node_modules/@openzeppelin-contracts-upgradeable/utils/AddressUpgradeable.sol\":1516:1535  account.code.length */\n  and\n  extcodesize\n    /* \"node_modules/@openzeppelin-contracts-upgradeable/utils/AddressUpgradeable.sol\":1516:1539  account.code.length > 0 */\n  iszero\n  iszero\n  swap1\n    /* \"node_modules/@openzeppelin-contracts-upgradeable/utils/AddressUpgradeable.sol\":1221:1547  function isContract(address account) internal view returns (bool) {... */\n  jump\t// out\n    /* \"#utility.yul\":429:623   */\ntag_19:\n    /* \"upgradeable/ERC20Updateable.sol\":374:669  contract MyTokenV1 is Initializable, ERC20Upgradeable {... */\n  dataSize(sub_0)\n  dup1\n  dataOffset(sub_0)\n  0x00\n  codecopy\n  0x00\n  return\nstop\n\nsub_0: assembly {\n        /* \"upgradeable/ERC20Updateable.sol\":374:669  contract MyTokenV1 is Initializable, ERC20Upgradeable {... */\n      mstore(0x40, 0x80)\n      callvalue\n      dup1\n      iszero\n      tag_1\n      jumpi\n      0x00\n      dup1\n      revert\n    tag_1:\n      pop\n      jumpi(tag_2, lt(calldatasize, 0x04))\n      shr(0xe0, calldataload(0x00))\n      dup1\n      0x70a08231\n      gt\n      tag_15\n      jumpi\n      dup1\n      0x70a08231\n      eq\n      tag_9\n      jumpi\n      dup1\n      0x8129fc1c\n      eq\n      tag_10\n      jumpi\n      dup1\n      0x95d89b41\n      eq\n      tag_11\n      jumpi\n      dup1\n      0xa457c2d7\n      eq\n      tag_12\n      jumpi\n      dup1\n      0xa9059cbb\n      eq\n      tag_13\n      jumpi\n      dup1\n      0xdd62ed3e\n      eq\n      tag_14\n      jumpi\n      0x00\n      dup1\n      revert\n    tag_15:\n      dup1\n      0x06fdde03\n      eq\n      tag_3\n      jumpi\n      dup1\n      0x095ea7b3\n      eq\n      tag_4\n      jumpi\n      dup1\n      0x18160ddd\n      eq\n      tag_5\n      jumpi\n      dup1\n      0x23b872dd\n      eq\n      tag_6\n      jumpi\n      dup1\n      0x313ce567\n      eq\n      tag_7\n      jumpi\n      dup1\n      0x39509351\n      eq\n      tag_8\n      jumpi\n    tag_2:\n      0x00\n      dup1\n      revert\n        /* \"node_modules/@openzeppelin-contracts-upgradeable/token/ERC20/ERC20Upgradeable.sol\":2557:2657  function name() public view virtual override returns (string memory) {... */\n    tag_3:\n      tag_16\n      tag_17\n      jump\t// in\n    tag_16:\n      mload(0x40)\n      tag_18\n      swap2\n      swap1\n      tag_19\n      jump\t// in\n    tag_18:\n      mload(0x40)\n      dup1\n      swap2\n      sub\n      swap1\n      return\n        /* \"node_modules/@openzeppelin-contracts-upgradeable/token/ERC20/ERC20Upgradeable.sol\":4908:5109  function approve(address spender, uint256 amount) public virtual override returns (bool) {... */\n    tag_4:\n      tag_20\n      tag_21\n      calldatasize\n      0x04\n      tag_22\n      jump\t// in\n    tag_21:\n      tag_23\n      jump\t// in\n    tag_20:\n      mload(0x40)\n        /* \"#utility.yul\":1218:1232   */\n      swap1\n      iszero\n        /* \"#utility.yul\":1211:1233   */\n      iszero\n        /* \"#utility.yul\":1193:1234   */\n      dup2\n      mstore\n        /* \"#utility.yul\":1181:1183   */\n      0x20\n        /* \"#utility.yul\":1166:1184   */\n      add\n        /* \"node_modules/@openzeppelin-contracts-upgradeable/token/ERC20/ERC20Upgradeable.sol\":4908:5109  function approve(address spender, uint256 amount) public virtual override returns (bool) {... */\n      tag_18\n        /* \"#utility.yul\":1053:1240   */\n      jump\n        /* \"node_modules/@openzeppelin-contracts-upgradeable/token/ERC20/ERC20Upgradeable.sol\":3677:3785  function totalSupply() public view virtual override returns (uint256) {... */\n    tag_5:\n        /* \"node_modules/@openzeppelin-contracts-upgradeable/token/ERC20/ERC20Upgradeable.sol\":3765:3777  _totalSupply */\n      sload(0x35)\n        /* \"node_modules/@openzeppelin-contracts-upgradeable/token/ERC20/ERC20Upgradeable.sol\":3677:3785  function totalSupply() public view virtual override returns (uint256) {... */\n    tag_26:\n      mload(0x40)\n        /* \"#utility.yul\":1391:1416   */\n      swap1\n      dup2\n      mstore\n        /* \"#utility.yul\":1379:1381   */\n      0x20\n        /* \"#utility.yul\":1364:1382   */\n      add\n        /* \"node_modules/@openzeppelin-contracts-upgradeable/token/ERC20/ERC20Upgradeable.sol\":3677:3785  function totalSupply() public view virtual override returns (uint256) {... */\n      tag_18\n        /* \"#utility.yul\":1245:1422   */\n      jump\n        /* \"node_modules/@openzeppelin-contracts-upgradeable/token/ERC20/ERC20Upgradeable.sol\":5689:5984  function transferFrom(... */\n    tag_6:\n      tag_20\n      tag_31\n      calldatasize\n      0x04\n      tag_32\n      jump\t// in\n    tag_31:\n      tag_33\n      jump\t// in\n        /* \"node_modules/@openzeppelin-contracts-upgradeable/token/ERC20/ERC20Upgradeable.sol\":3519:3612  function decimals() public view virtual override returns (uint8) {... */\n    tag_7:\n      mload(0x40)\n        /* \"node_modules/@openzeppelin-contracts-upgradeable/token/ERC20/ERC20Upgradeable.sol\":3602:3604  18 */\n      0x12\n        /* \"#utility.yul\":1902:1938   */\n      dup2\n      mstore\n        /* \"#utility.yul\":1890:1892   */\n      0x20\n        /* \"#utility.yul\":1875:1893   */\n      add\n        /* \"node_modules/@openzeppelin-contracts-upgradeable/token/ERC20/ERC20Upgradeable.sol\":3519:3612  function decimals() public view virtual override returns (uint8) {... */\n      tag_18\n        /* \"#utility.yul\":1760:1944   */\n      jump\n        /* \"node_modules/@openzeppelin-contracts-upgradeable/token/ERC20/ERC20Upgradeable.sol\":6393:6631  function increaseAllowance(address spender, uint256 addedValue) public virtual returns (bool) {... */\n    tag_8:\n      tag_20\n      tag_40\n      calldatasize\n      0x04\n      tag_22\n      jump\t// in\n    tag_40:\n      tag_41\n      jump\t// in\n        /* \"node_modules/@openzeppelin-contracts-upgradeable/token/ERC20/ERC20Upgradeable.sol\":3848:3975  function balanceOf(address account) public view virtual override returns (uint256) {... */\n    tag_9:\n      tag_26\n      tag_44\n      calldatasize\n      0x04\n      tag_45\n      jump\t// in\n    tag_44:\n      sub(shl(0xa0, 0x01), 0x01)\n        /* \"node_modules/@openzeppelin-contracts-upgradeable/token/ERC20/ERC20Upgradeable.sol\":3949:3967  _balances[account] */\n      and\n        /* \"node_modules/@openzeppelin-contracts-upgradeable/token/ERC20/ERC20Upgradeable.sol\":3922:3929  uint256 */\n      0x00\n        /* \"node_modules/@openzeppelin-contracts-upgradeable/token/ERC20/ERC20Upgradeable.sol\":3949:3967  _balances[account] */\n      swap1\n      dup2\n      mstore\n        /* \"node_modules/@openzeppelin-contracts-upgradeable/token/ERC20/ERC20Upgradeable.sol\":3949:3958  _balances */\n      0x33\n        /* \"node_modules/@openzeppelin-contracts-upgradeable/token/ERC20/ERC20Upgradeable.sol\":3949:3967  _balances[account] */\n      0x20\n      mstore\n      0x40\n      swap1\n      keccak256\n      sload\n      swap1\n        /* \"node_modules/@openzeppelin-contracts-upgradeable/token/ERC20/ERC20Upgradeable.sol\":3848:3975  function balanceOf(address account) public view virtual override returns (uint256) {... */\n      jump\n        /* \"upgradeable/ERC20Updateable.sol\":435:576  function initialize() initializer public {... */\n    tag_10:\n      tag_48\n      tag_49\n      jump\t// in\n    tag_48:\n      stop\n        /* \"node_modules/@openzeppelin-contracts-upgradeable/token/ERC20/ERC20Upgradeable.sol\":2776:2880  function symbol() public view virtual override returns (string memory) {... */\n    tag_11:\n      tag_16\n      tag_51\n      jump\t// in\n        /* \"node_modules/@openzeppelin-contracts-upgradeable/token/ERC20/ERC20Upgradeable.sol\":7134:7570  function decreaseAllowance(address spender, uint256 subtractedValue) public virtual returns (bool) {... */\n    tag_12:\n      tag_20\n      tag_54\n      calldatasize\n      0x04\n      tag_22\n      jump\t// in\n    tag_54:\n      tag_55\n      jump\t// in\n        /* \"node_modules/@openzeppelin-contracts-upgradeable/token/ERC20/ERC20Upgradeable.sol\":4181:4374  function transfer(address to, uint256 amount) public virtual override returns (bool) {... */\n    tag_13:\n      tag_20\n      tag_58\n      calldatasize\n      0x04\n      tag_22\n      jump\t// in\n    tag_58:\n      tag_59\n      jump\t// in\n        /* \"node_modules/@openzeppelin-contracts-upgradeable/token/ERC20/ERC20Upgradeable.sol\":4437:4588  function allowance(address owner, address spender) public view virtual override returns (uint256) {... */\n    tag_14:\n      tag_26\n      tag_62\n      calldatasize\n      0x04\n      tag_63\n      jump\t// in\n    tag_62:\n      tag_64\n      jump\t// in\n        /* \"node_modules/@openzeppelin-contracts-upgradeable/token/ERC20/ERC20Upgradeable.sol\":2557:2657  function name() public view virtual override returns (string memory) {... */\n    tag_17:\n        /* \"node_modules/@openzeppelin-contracts-upgradeable/token/ERC20/ERC20Upgradeable.sol\":2611:2624  string memory */\n      0x60\n        /* \"node_modules/@openzeppelin-contracts-upgradeable/token/ERC20/ERC20Upgradeable.sol\":2644:2649  _name */\n      0x36\n        /* \"node_modules/@openzeppelin-contracts-upgradeable/token/ERC20/ERC20Upgradeable.sol\":2637:2649  return _name */\n      dup1\n      sload\n      tag_68\n      swap1\n      tag_69\n      jump\t// in\n    tag_68:\n      dup1\n      0x1f\n      add\n      0x20\n      dup1\n      swap2\n      div\n      mul\n      0x20\n      add\n      mload(0x40)\n      swap1\n      dup2\n      add\n      0x40\n      mstore\n      dup1\n      swap3\n      swap2\n      swap1\n      dup2\n      dup2\n      mstore\n      0x20\n      add\n      dup3\n      dup1\n      sload\n      tag_70\n      swap1\n      tag_69\n      jump\t// in\n    tag_70:\n      dup1\n      iszero\n      tag_71\n      jumpi\n      dup1\n      0x1f\n      lt\n      tag_72\n      jumpi\n      0x0100\n      dup1\n      dup4\n      sload\n      div\n      mul\n      dup4\n      mstore\n      swap2\n      0x20\n      add\n      swap2\n      jump(tag_71)\n    tag_72:\n      dup3\n      add\n      swap2\n      swap1\n      0x00\n      mstore\n      keccak256(0x00, 0x20)\n      swap1\n    tag_73:\n      dup2\n      sload\n      dup2\n      mstore\n      swap1\n      0x01\n      add\n      swap1\n      0x20\n      add\n      dup1\n      dup4\n      gt\n      tag_73\n      jumpi\n      dup3\n      swap1\n      sub\n      0x1f\n      and\n      dup3\n      add\n      swap2\n    tag_71:\n      pop\n      pop\n      pop\n      pop\n      pop\n      swap1\n      pop\n        /* \"node_modules/@openzeppelin-contracts-upgradeable/token/ERC20/ERC20Upgradeable.sol\":2557:2657  function name() public view virtual override returns (string memory) {... */\n      swap1\n      jump\t// out\n        /* \"node_modules/@openzeppelin-contracts-upgradeable/token/ERC20/ERC20Upgradeable.sol\":4908:5109  function approve(address spender, uint256 amount) public virtual override returns (bool) {... */\n    tag_23:\n        /* \"node_modules/@openzeppelin-contracts-upgradeable/token/ERC20/ERC20Upgradeable.sol\":4991:4995  bool */\n      0x00\n        /* \"node_modules/@openzeppelin-contracts-upgradeable/utils/ContextUpgradeable.sol\":952:962  msg.sender */\n      caller\n        /* \"node_modules/@openzeppelin-contracts-upgradeable/token/ERC20/ERC20Upgradeable.sol\":5047:5079  _approve(owner, spender, amount) */\n      tag_77\n        /* \"node_modules/@openzeppelin-contracts-upgradeable/utils/ContextUpgradeable.sol\":952:962  msg.sender */\n      dup2\n        /* \"node_modules/@openzeppelin-contracts-upgradeable/token/ERC20/ERC20Upgradeable.sol\":5063:5070  spender */\n      dup6\n        /* \"node_modules/@openzeppelin-contracts-upgradeable/token/ERC20/ERC20Upgradeable.sol\":5072:5078  amount */\n      dup6\n        /* \"node_modules/@openzeppelin-contracts-upgradeable/token/ERC20/ERC20Upgradeable.sol\":5047:5055  _approve */\n      tag_78\n        /* \"node_modules/@openzeppelin-contracts-upgradeable/token/ERC20/ERC20Upgradeable.sol\":5047:5079  _approve(owner, spender, amount) */\n      jump\t// in\n    tag_77:\n        /* \"node_modules/@openzeppelin-contracts-upgradeable/token/ERC20/ERC20Upgradeable.sol\":5097:5101  true */\n      0x01\n        /* \"node_modules/@openzeppelin-contracts-upgradeable/token/ERC20/ERC20Upgradeable.sol\":5090:5101  return true */\n      swap2\n      pop\n      pop\n        /* \"node_modules/@openzeppelin-contracts-upgradeable/token/ERC20/ERC20Upgradeable.sol\":4908:5109  function approve(address spender, uint256 amount) public virtual override returns (bool) {... */\n    tag_74:\n      swap3\n      swap2\n      pop\n      pop\n      jump\t// out\n        /* \"node_modules/@openzeppelin-contracts-upgradeable/token/ERC20/ERC20Upgradeable.sol\":5689:5984  function transferFrom(... */\n    tag_33:\n        /* \"node_modules/@openzeppelin-contracts-upgradeable/token/ERC20/ERC20Upgradeable.sol\":5820:5824  bool */\n      0x00\n        /* \"node_modules/@openzeppelin-contracts-upgradeable/utils/ContextUpgradeable.sol\":952:962  msg.sender */\n      caller\n        /* \"node_modules/@openzeppelin-contracts-upgradeable/token/ERC20/ERC20Upgradeable.sol\":5878:5916  _spendAllowance(from, spender, amount) */\n      tag_82\n        /* \"node_modules/@openzeppelin-contracts-upgradeable/token/ERC20/ERC20Upgradeable.sol\":5894:5898  from */\n      dup6\n        /* \"node_modules/@openzeppelin-contracts-upgradeable/utils/ContextUpgradeable.sol\":952:962  msg.sender */\n      dup3\n        /* \"node_modules/@openzeppelin-contracts-upgradeable/token/ERC20/ERC20Upgradeable.sol\":5909:5915  amount */\n      dup6\n        /* \"node_modules/@openzeppelin-contracts-upgradeable/token/ERC20/ERC20Upgradeable.sol\":5878:5893  _spendAllowance */\n      tag_83\n        /* \"node_modules/@openzeppelin-contracts-upgradeable/token/ERC20/ERC20Upgradeable.sol\":5878:5916  _spendAllowance(from, spender, amount) */\n      jump\t// in\n    tag_82:\n        /* \"node_modules/@openzeppelin-contracts-upgradeable/token/ERC20/ERC20Upgradeable.sol\":5927:5954  _transfer(from, to, amount) */\n      tag_84\n        /* \"node_modules/@openzeppelin-contracts-upgradeable/token/ERC20/ERC20Upgradeable.sol\":5937:5941  from */\n      dup6\n        /* \"node_modules/@openzeppelin-contracts-upgradeable/token/ERC20/ERC20Upgradeable.sol\":5943:5945  to */\n      dup6\n        /* \"node_modules/@openzeppelin-contracts-upgradeable/token/ERC20/ERC20Upgradeable.sol\":5947:5953  amount */\n      dup6\n        /* \"node_modules/@openzeppelin-contracts-upgradeable/token/ERC20/ERC20Upgradeable.sol\":5927:5936  _transfer */\n      tag_85\n        /* \"node_modules/@openzeppelin-contracts-upgradeable/token/ERC20/ERC20Upgradeable.sol\":5927:5954  _transfer(from, to, amount) */\n      jump\t// in\n    tag_84:\n      pop\n        /* \"node_modules/@openzeppelin-contracts-upgradeable/token/ERC20/ERC20Upgradeable.sol\":5972:5976  true */\n      0x01\n      swap5\n        /* \"node_modules/@openzeppelin-contracts-upgradeable/token/ERC20/ERC20Upgradeable.sol\":5689:5984  function transferFrom(... */\n      swap4\n      pop\n      pop\n      pop\n      pop\n      jump\t// out\n        /* \"node_modules/@openzeppelin-contracts-upgradeable/token/ERC20/ERC20Upgradeable.sol\":6393:6631  function increaseAllowance(address spender, uint256 addedValue) public virtual returns (bool) {... */\n    tag_41:\n        /* \"node_modules/@openzeppelin-contracts-upgradeable/token/ERC20/ERC20Upgradeable.sol\":6481:6485  bool */\n      0x00\n        /* \"node_modules/@openzeppelin-contracts-upgradeable/utils/ContextUpgradeable.sol\":952:962  msg.sender */\n      caller\n        /* \"node_modules/@openzeppelin-contracts-upgradeable/token/ERC20/ERC20Upgradeable.sol\":6537:6601  _approve(owner, spender, allowance(owner, spender) + addedValue) */\n      tag_77\n        /* \"node_modules/@openzeppelin-contracts-upgradeable/utils/ContextUpgradeable.sol\":952:962  msg.sender */\n      dup2\n        /* \"node_modules/@openzeppelin-contracts-upgradeable/token/ERC20/ERC20Upgradeable.sol\":6553:6560  spender */\n      dup6\n        /* \"node_modules/@openzeppelin-contracts-upgradeable/token/ERC20/ERC20Upgradeable.sol\":6590:6600  addedValue */\n      dup6\n        /* \"node_modules/@openzeppelin-contracts-upgradeable/token/ERC20/ERC20Upgradeable.sol\":6562:6587  allowance(owner, spender) */\n      tag_90\n        /* \"node_modules/@openzeppelin-contracts-upgradeable/utils/ContextUpgradeable.sol\":952:962  msg.sender */\n      dup4\n        /* \"node_modules/@openzeppelin-contracts-upgradeable/token/ERC20/ERC20Upgradeable.sol\":6553:6560  spender */\n      dup4\n        /* \"node_modules/@openzeppelin-contracts-upgradeable/token/ERC20/ERC20Upgradeable.sol\":6562:6571  allowance */\n      tag_64\n        /* \"node_modules/@openzeppelin-contracts-upgradeable/token/ERC20/ERC20Upgradeable.sol\":6562:6587  allowance(owner, spender) */\n      jump\t// in\n    tag_90:\n        /* \"node_modules/@openzeppelin-contracts-upgradeable/token/ERC20/ERC20Upgradeable.sol\":6562:6600  allowance(owner, spender) + addedValue */\n      tag_91\n      swap2\n      swap1\n      tag_92\n      jump\t// in\n    tag_91:\n        /* \"node_modules/@openzeppelin-contracts-upgradeable/token/ERC20/ERC20Upgradeable.sol\":6537:6545  _approve */\n      tag_78\n        /* \"node_modules/@openzeppelin-contracts-upgradeable/token/ERC20/ERC20Upgradeable.sol\":6537:6601  _approve(owner, spender, allowance(owner, spender) + addedValue) */\n      jump\t// in\n        /* \"upgradeable/ERC20Updateable.sol\":435:576  function initialize() initializer public {... */\n    tag_49:\n        /* \"node_modules/@openzeppelin-contracts-upgradeable/proxy/utils/Initializable.sol\":3189:3208  bool isTopLevelCall */\n      0x00\n        /* \"node_modules/@openzeppelin-contracts-upgradeable/proxy/utils/Initializable.sol\":3212:3225  _initializing */\n      sload\n      0x0100\n      swap1\n      div\n      0xff\n      and\n        /* \"node_modules/@openzeppelin-contracts-upgradeable/proxy/utils/Initializable.sol\":3211:3225  !_initializing */\n      iszero\n      dup1\n        /* \"node_modules/@openzeppelin-contracts-upgradeable/proxy/utils/Initializable.sol\":3259:3293  isTopLevelCall && _initialized < 1 */\n      dup1\n      iszero\n      tag_95\n      jumpi\n      pop\n        /* \"node_modules/@openzeppelin-contracts-upgradeable/proxy/utils/Initializable.sol\":3277:3289  _initialized */\n      sload(0x00)\n        /* \"node_modules/@openzeppelin-contracts-upgradeable/proxy/utils/Initializable.sol\":3292:3293  1 */\n      0x01\n        /* \"node_modules/@openzeppelin-contracts-upgradeable/proxy/utils/Initializable.sol\":3277:3289  _initialized */\n      0xff\n      swap1\n      swap2\n      and\n        /* \"node_modules/@openzeppelin-contracts-upgradeable/proxy/utils/Initializable.sol\":3277:3293  _initialized < 1 */\n      lt\n        /* \"node_modules/@openzeppelin-contracts-upgradeable/proxy/utils/Initializable.sol\":3259:3293  isTopLevelCall && _initialized < 1 */\n    tag_95:\n        /* \"node_modules/@openzeppelin-contracts-upgradeable/proxy/utils/Initializable.sol\":3258:3366  (isTopLevelCall && _initialized < 1) || (!AddressUpgradeable.isContract(address(this)) && _initialized == 1) */\n      dup1\n      tag_98\n      jumpi\n      pop\n        /* \"node_modules/@openzeppelin-contracts-upgradeable/proxy/utils/Initializable.sol\":3338:3342  this */\n      address\n        /* \"node_modules/@openzeppelin-contracts-upgradeable/utils/AddressUpgradeable.sol\":1516:1535  account.code.length */\n      extcodesize\n        /* \"node_modules/@openzeppelin-contracts-upgradeable/utils/AddressUpgradeable.sol\":1516:1539  account.code.length > 0 */\n      iszero\n      dup1\n      iszero\n        /* \"node_modules/@openzeppelin-contracts-upgradeable/proxy/utils/Initializable.sol\":3299:3365  !AddressUpgradeable.isContract(address(this)) && _initialized == 1 */\n      tag_98\n      jumpi\n      pop\n        /* \"node_modules/@openzeppelin-contracts-upgradeable/proxy/utils/Initializable.sol\":3348:3360  _initialized */\n      and(0xff, sload(0x00))\n      0x01\n        /* \"node_modules/@openzeppelin-contracts-upgradeable/proxy/utils/Initializable.sol\":3348:3365  _initialized == 1 */\n      eq\n        /* \"node_modules/@openzeppelin-contracts-upgradeable/proxy/utils/Initializable.sol\":3299:3365  !AddressUpgradeable.isContract(address(this)) && _initialized == 1 */\n    tag_98:\n        /* \"node_modules/@openzeppelin-contracts-upgradeable/proxy/utils/Initializable.sol\":3236:3440  require(... */\n      tag_99\n      jumpi\n      mload(0x40)\n      shl(0xe5, 0x461bcd)\n      dup2\n      mstore\n        /* \"#utility.yul\":3257:3259   */\n      0x20\n        /* \"node_modules/@openzeppelin-contracts-upgradeable/proxy/utils/Initializable.sol\":3236:3440  require(... */\n      0x04\n      dup3\n      add\n        /* \"#utility.yul\":3239:3260   */\n      mstore\n        /* \"#utility.yul\":3296:3298   */\n      0x2e\n        /* \"#utility.yul\":3276:3294   */\n      0x24\n      dup3\n      add\n        /* \"#utility.yul\":3269:3299   */\n      mstore\n        /* \"#utility.yul\":3335:3369   */\n      0x496e697469616c697a61626c653a20636f6e747261637420697320616c726561\n        /* \"#utility.yul\":3315:3333   */\n      0x44\n      dup3\n      add\n        /* \"#utility.yul\":3308:3370   */\n      mstore\n      shl(0x92, 0x191e481a5b9a5d1a585b1a5e9959)\n        /* \"#utility.yul\":3386:3404   */\n      0x64\n      dup3\n      add\n        /* \"#utility.yul\":3379:3423   */\n      mstore\n        /* \"#utility.yul\":3440:3459   */\n      0x84\n      add\n        /* \"node_modules/@openzeppelin-contracts-upgradeable/proxy/utils/Initializable.sol\":3236:3440  require(... */\n    tag_100:\n      mload(0x40)\n      dup1\n      swap2\n      sub\n      swap1\n      revert\n    tag_99:\n        /* \"node_modules/@openzeppelin-contracts-upgradeable/proxy/utils/Initializable.sol\":3451:3463  _initialized */\n      0x00\n        /* \"node_modules/@openzeppelin-contracts-upgradeable/proxy/utils/Initializable.sol\":3451:3467  _initialized = 1 */\n      dup1\n      sload\n      not(0xff)\n      and\n        /* \"node_modules/@openzeppelin-contracts-upgradeable/proxy/utils/Initializable.sol\":3466:3467  1 */\n      0x01\n        /* \"node_modules/@openzeppelin-contracts-upgradeable/proxy/utils/Initializable.sol\":3451:3467  _initialized = 1 */\n      or\n      swap1\n      sstore\n        /* \"node_modules/@openzeppelin-contracts-upgradeable/proxy/utils/Initializable.sol\":3478:3545  if (isTopLevelCall) {... */\n      dup1\n      iszero\n      tag_102\n      jumpi\n        /* \"node_modules/@openzeppelin-contracts-upgradeable/proxy/utils/Initializable.sol\":3513:3526  _initializing */\n      0x00\n        /* \"node_modules/@openzeppelin-contracts-upgradeable/proxy/utils/Initializable.sol\":3513:3533  _initializing = true */\n      dup1\n      sload\n      not(0xff00)\n      and\n      0x0100\n      or\n      swap1\n      sstore\n        /* \"node_modules/@openzeppelin-contracts-upgradeable/proxy/utils/Initializable.sol\":3478:3545  if (isTopLevelCall) {... */\n    tag_102:\n        /* \"upgradeable/ERC20Updateable.sol\":485:515  __ERC20_init(\"MyToken\", \"MTK\") */\n      tag_104\n      mload(0x40)\n      dup1\n      0x40\n      add\n      0x40\n      mstore\n      dup1\n      0x07\n      dup2\n      mstore\n      0x20\n      add\n      shl(0xc9, 0x26bcaa37b5b2b7)\n      dup2\n      mstore\n      pop\n      mload(0x40)\n      dup1\n      0x40\n      add\n      0x40\n      mstore\n      dup1\n      0x03\n      dup2\n      mstore\n      0x20\n      add\n      shl(0xe8, 0x4d544b)\n      dup2\n      mstore\n      pop\n        /* \"upgradeable/ERC20Updateable.sol\":485:497  __ERC20_init */\n      tag_105\n        /* \"upgradeable/ERC20Updateable.sol\":485:515  __ERC20_init(\"MyToken\", \"MTK\") */\n      jump\t// in\n    tag_104:\n        /* \"upgradeable/ERC20Updateable.sol\":526:568  _mint(msg.sender, 1000 * 10 ** decimals()) */\n      tag_106\n        /* \"upgradeable/ERC20Updateable.sol\":532:542  msg.sender */\n      caller\n        /* \"upgradeable/ERC20Updateable.sol\":551:567  10 ** decimals() */\n      tag_108\n        /* \"node_modules/@openzeppelin-contracts-upgradeable/token/ERC20/ERC20Upgradeable.sol\":3602:3604  18 */\n      0x12\n        /* \"upgradeable/ERC20Updateable.sol\":551:553  10 */\n      0x0a\n        /* \"upgradeable/ERC20Updateable.sol\":551:567  10 ** decimals() */\n      tag_109\n      jump\t// in\n    tag_108:\n        /* \"upgradeable/ERC20Updateable.sol\":544:567  1000 * 10 ** decimals() */\n      tag_110\n      swap1\n        /* \"upgradeable/ERC20Updateable.sol\":544:548  1000 */\n      0x03e8\n        /* \"upgradeable/ERC20Updateable.sol\":544:567  1000 * 10 ** decimals() */\n      tag_111\n      jump\t// in\n    tag_110:\n        /* \"upgradeable/ERC20Updateable.sol\":526:531  _mint */\n      tag_112\n        /* \"upgradeable/ERC20Updateable.sol\":526:568  _mint(msg.sender, 1000 * 10 ** decimals()) */\n      jump\t// in\n    tag_106:\n        /* \"node_modules/@openzeppelin-contracts-upgradeable/proxy/utils/Initializable.sol\":3571:3585  isTopLevelCall */\n      dup1\n        /* \"node_modules/@openzeppelin-contracts-upgradeable/proxy/utils/Initializable.sol\":3567:3669  if (isTopLevelCall) {... */\n      iszero\n      tag_113\n      jumpi\n        /* \"node_modules/@openzeppelin-contracts-upgradeable/proxy/utils/Initializable.sol\":3618:3623  false */\n      0x00\n        /* \"node_modules/@openzeppelin-contracts-upgradeable/proxy/utils/Initializable.sol\":3602:3623  _initializing = false */\n      dup1\n      sload\n      not(0xff00)\n      and\n      swap1\n      sstore\n        /* \"node_modules/@openzeppelin-contracts-upgradeable/proxy/utils/Initializable.sol\":3643:3657  Initialized(1) */\n      mload(0x40)\n      0x01\n        /* \"#utility.yul\":1902:1938   */\n      dup2\n      mstore\n        /* \"node_modules/@openzeppelin-contracts-upgradeable/proxy/utils/Initializable.sol\":3643:3657  Initialized(1) */\n      0x7f26b83ff96e1f2b6a682f133852f6798a09c465da95921460cefb3847402498\n      swap1\n        /* \"#utility.yul\":1890:1892   */\n      0x20\n        /* \"#utility.yul\":1875:1893   */\n      add\n        /* \"node_modules/@openzeppelin-contracts-upgradeable/proxy/utils/Initializable.sol\":3643:3657  Initialized(1) */\n      mload(0x40)\n      dup1\n      swap2\n      sub\n      swap1\n      log1\n        /* \"node_modules/@openzeppelin-contracts-upgradeable/proxy/utils/Initializable.sol\":3567:3669  if (isTopLevelCall) {... */\n    tag_113:\n        /* \"node_modules/@openzeppelin-contracts-upgradeable/proxy/utils/Initializable.sol\":3178:3676  {... */\n      pop\n        /* \"upgradeable/ERC20Updateable.sol\":435:576  function initialize() initializer public {... */\n      jump\t// out\n        /* \"node_modules/@openzeppelin-contracts-upgradeable/token/ERC20/ERC20Upgradeable.sol\":2776:2880  function symbol() public view virtual override returns (string memory) {... */\n    tag_51:\n        /* \"node_modules/@openzeppelin-contracts-upgradeable/token/ERC20/ERC20Upgradeable.sol\":2832:2845  string memory */\n      0x60\n        /* \"node_modules/@openzeppelin-contracts-upgradeable/token/ERC20/ERC20Upgradeable.sol\":2865:2872  _symbol */\n      0x37\n        /* \"node_modules/@openzeppelin-contracts-upgradeable/token/ERC20/ERC20Upgradeable.sol\":2858:2872  return _symbol */\n      dup1\n      sload\n      tag_68\n      swap1\n      tag_69\n      jump\t// in\n        /* \"node_modules/@openzeppelin-contracts-upgradeable/token/ERC20/ERC20Upgradeable.sol\":7134:7570  function decreaseAllowance(address spender, uint256 subtractedValue) public virtual returns (bool) {... */\n    tag_55:\n        /* \"node_modules/@openzeppelin-contracts-upgradeable/token/ERC20/ERC20Upgradeable.sol\":7227:7231  bool */\n      0x00\n        /* \"node_modules/@openzeppelin-contracts-upgradeable/utils/ContextUpgradeable.sol\":952:962  msg.sender */\n      caller\n        /* \"node_modules/@openzeppelin-contracts-upgradeable/token/ERC20/ERC20Upgradeable.sol\":7227:7231  bool */\n      dup2\n        /* \"node_modules/@openzeppelin-contracts-upgradeable/token/ERC20/ERC20Upgradeable.sol\":7310:7335  allowance(owner, spender) */\n      tag_124\n        /* \"node_modules/@openzeppelin-contracts-upgradeable/utils/ContextUpgradeable.sol\":952:962  msg.sender */\n      dup3\n        /* \"node_modules/@openzeppelin-contracts-upgradeable/token/ERC20/ERC20Upgradeable.sol\":7327:7334  spender */\n      dup7\n        /* \"node_modules/@openzeppelin-contracts-upgradeable/token/ERC20/ERC20Upgradeable.sol\":7310:7319  allowance */\n      tag_64\n        /* \"node_modules/@openzeppelin-contracts-upgradeable/token/ERC20/ERC20Upgradeable.sol\":7310:7335  allowance(owner, spender) */\n      jump\t// in\n    tag_124:\n        /* \"node_modules/@openzeppelin-contracts-upgradeable/token/ERC20/ERC20Upgradeable.sol\":7283:7335  uint256 currentAllowance = allowance(owner, spender) */\n      swap1\n      pop\n        /* \"node_modules/@openzeppelin-contracts-upgradeable/token/ERC20/ERC20Upgradeable.sol\":7374:7389  subtractedValue */\n      dup4\n        /* \"node_modules/@openzeppelin-contracts-upgradeable/token/ERC20/ERC20Upgradeable.sol\":7354:7370  currentAllowance */\n      dup2\n        /* \"node_modules/@openzeppelin-contracts-upgradeable/token/ERC20/ERC20Upgradeable.sol\":7354:7389  currentAllowance >= subtractedValue */\n      lt\n      iszero\n        /* \"node_modules/@openzeppelin-contracts-upgradeable/token/ERC20/ERC20Upgradeable.sol\":7346:7431  require(currentAllowance >= subtractedValue, \"ERC20: decreased allowance below zero\") */\n      tag_125\n      jumpi\n      mload(0x40)\n      shl(0xe5, 0x461bcd)\n      dup2\n      mstore\n        /* \"#utility.yul\":5427:5429   */\n      0x20\n        /* \"node_modules/@openzeppelin-contracts-upgradeable/token/ERC20/ERC20Upgradeable.sol\":7346:7431  require(currentAllowance >= subtractedValue, \"ERC20: decreased allowance below zero\") */\n      0x04\n      dup3\n      add\n        /* \"#utility.yul\":5409:5430   */\n      mstore\n        /* \"#utility.yul\":5466:5468   */\n      0x25\n        /* \"#utility.yul\":5446:5464   */\n      0x24\n      dup3\n      add\n        /* \"#utility.yul\":5439:5469   */\n      mstore\n        /* \"#utility.yul\":5505:5539   */\n      0x45524332303a2064656372656173656420616c6c6f77616e63652062656c6f77\n        /* \"#utility.yul\":5485:5503   */\n      0x44\n      dup3\n      add\n        /* \"#utility.yul\":5478:5540   */\n      mstore\n      shl(0xd8, 0x207a65726f)\n        /* \"#utility.yul\":5556:5574   */\n      0x64\n      dup3\n      add\n        /* \"#utility.yul\":5549:5584   */\n      mstore\n        /* \"#utility.yul\":5601:5620   */\n      0x84\n      add\n        /* \"node_modules/@openzeppelin-contracts-upgradeable/token/ERC20/ERC20Upgradeable.sol\":7346:7431  require(currentAllowance >= subtractedValue, \"ERC20: decreased allowance below zero\") */\n      tag_100\n        /* \"#utility.yul\":5225:5626   */\n      jump\n        /* \"node_modules/@openzeppelin-contracts-upgradeable/token/ERC20/ERC20Upgradeable.sol\":7346:7431  require(currentAllowance >= subtractedValue, \"ERC20: decreased allowance below zero\") */\n    tag_125:\n        /* \"node_modules/@openzeppelin-contracts-upgradeable/token/ERC20/ERC20Upgradeable.sol\":7467:7527  _approve(owner, spender, currentAllowance - subtractedValue) */\n      tag_84\n        /* \"node_modules/@openzeppelin-contracts-upgradeable/token/ERC20/ERC20Upgradeable.sol\":7476:7481  owner */\n      dup3\n        /* \"node_modules/@openzeppelin-contracts-upgradeable/token/ERC20/ERC20Upgradeable.sol\":7483:7490  spender */\n      dup7\n        /* \"node_modules/@openzeppelin-contracts-upgradeable/token/ERC20/ERC20Upgradeable.sol\":7511:7526  subtractedValue */\n      dup7\n        /* \"node_modules/@openzeppelin-contracts-upgradeable/token/ERC20/ERC20Upgradeable.sol\":7492:7508  currentAllowance */\n      dup5\n        /* \"node_modules/@openzeppelin-contracts-upgradeable/token/ERC20/ERC20Upgradeable.sol\":7492:7526  currentAllowance - subtractedValue */\n      sub\n        /* \"node_modules/@openzeppelin-contracts-upgradeable/token/ERC20/ERC20Upgradeable.sol\":7467:7475  _approve */\n      tag_78\n        /* \"node_modules/@openzeppelin-contracts-upgradeable/token/ERC20/ERC20Upgradeable.sol\":7467:7527  _approve(owner, spender, currentAllowance - subtractedValue) */\n      jump\t// in\n        /* \"node_modules/@openzeppelin-contracts-upgradeable/token/ERC20/ERC20Upgradeable.sol\":4181:4374  function transfer(address to, uint256 amount) public virtual override returns (bool) {... */\n    tag_59:\n        /* \"node_modules/@openzeppelin-contracts-upgradeable/token/ERC20/ERC20Upgradeable.sol\":4260:4264  bool */\n      0x00\n        /* \"node_modules/@openzeppelin-contracts-upgradeable/utils/ContextUpgradeable.sol\":952:962  msg.sender */\n      caller\n        /* \"node_modules/@openzeppelin-contracts-upgradeable/token/ERC20/ERC20Upgradeable.sol\":4316:4344  _transfer(owner, to, amount) */\n      tag_77\n        /* \"node_modules/@openzeppelin-contracts-upgradeable/utils/ContextUpgradeable.sol\":952:962  msg.sender */\n      dup2\n        /* \"node_modules/@openzeppelin-contracts-upgradeable/token/ERC20/ERC20Upgradeable.sol\":4333:4335  to */\n      dup6\n        /* \"node_modules/@openzeppelin-contracts-upgradeable/token/ERC20/ERC20Upgradeable.sol\":4337:4343  amount */\n      dup6\n        /* \"node_modules/@openzeppelin-contracts-upgradeable/token/ERC20/ERC20Upgradeable.sol\":4316:4325  _transfer */\n      tag_85\n        /* \"node_modules/@openzeppelin-contracts-upgradeable/token/ERC20/ERC20Upgradeable.sol\":4316:4344  _transfer(owner, to, amount) */\n      jump\t// in\n        /* \"node_modules/@openzeppelin-contracts-upgradeable/token/ERC20/ERC20Upgradeable.sol\":4437:4588  function allowance(address owner, address spender) public view virtual override returns (uint256) {... */\n    tag_64:\n      sub(shl(0xa0, 0x01), 0x01)\n        /* \"node_modules/@openzeppelin-contracts-upgradeable/token/ERC20/ERC20Upgradeable.sol\":4553:4571  _allowances[owner] */\n      swap2\n      dup3\n      and\n        /* \"node_modules/@openzeppelin-contracts-upgradeable/token/ERC20/ERC20Upgradeable.sol\":4526:4533  uint256 */\n      0x00\n        /* \"node_modules/@openzeppelin-contracts-upgradeable/token/ERC20/ERC20Upgradeable.sol\":4553:4571  _allowances[owner] */\n      swap1\n      dup2\n      mstore\n        /* \"node_modules/@openzeppelin-contracts-upgradeable/token/ERC20/ERC20Upgradeable.sol\":4553:4564  _allowances */\n      0x34\n        /* \"node_modules/@openzeppelin-contracts-upgradeable/token/ERC20/ERC20Upgradeable.sol\":4553:4571  _allowances[owner] */\n      0x20\n      swap1\n      dup2\n      mstore\n      0x40\n      dup1\n      dup4\n      keccak256\n        /* \"node_modules/@openzeppelin-contracts-upgradeable/token/ERC20/ERC20Upgradeable.sol\":4553:4580  _allowances[owner][spender] */\n      swap4\n      swap1\n      swap5\n      and\n      dup3\n      mstore\n      swap2\n      swap1\n      swap2\n      mstore\n      keccak256\n      sload\n      swap1\n        /* \"node_modules/@openzeppelin-contracts-upgradeable/token/ERC20/ERC20Upgradeable.sol\":4437:4588  function allowance(address owner, address spender) public view virtual override returns (uint256) {... */\n      jump\t// out\n        /* \"node_modules/@openzeppelin-contracts-upgradeable/utils/AddressUpgradeable.sol\":1221:1547  function isContract(address account) internal view returns (bool) {... */\n    tag_66:\n      sub(shl(0xa0, 0x01), 0x01)\n        /* \"node_modules/@openzeppelin-contracts-upgradeable/utils/AddressUpgradeable.sol\":1516:1535  account.code.length */\n      and\n      extcodesize\n        /* \"node_modules/@openzeppelin-contracts-upgradeable/utils/AddressUpgradeable.sol\":1516:1539  account.code.length > 0 */\n      iszero\n      iszero\n      swap1\n        /* \"node_modules/@openzeppelin-contracts-upgradeable/utils/AddressUpgradeable.sol\":1221:1547  function isContract(address account) internal view returns (bool) {... */\n      jump\t// out\n        /* \"node_modules/@openzeppelin-contracts-upgradeable/token/ERC20/ERC20Upgradeable.sol\":11161:11541  function _approve(... */\n    tag_78:\n      sub(shl(0xa0, 0x01), 0x01)\n        /* \"node_modules/@openzeppelin-contracts-upgradeable/token/ERC20/ERC20Upgradeable.sol\":11297:11316  owner != address(0) */\n      dup4\n      and\n        /* \"node_modules/@openzeppelin-contracts-upgradeable/token/ERC20/ERC20Upgradeable.sol\":11289:11357  require(owner != address(0), \"ERC20: approve from the zero address\") */\n      tag_136\n      jumpi\n      mload(0x40)\n      shl(0xe5, 0x461bcd)\n      dup2\n      mstore\n        /* \"#utility.yul\":5833:5835   */\n      0x20\n        /* \"node_modules/@openzeppelin-contracts-upgradeable/token/ERC20/ERC20Upgradeable.sol\":11289:11357  require(owner != address(0), \"ERC20: approve from the zero address\") */\n      0x04\n      dup3\n      add\n        /* \"#utility.yul\":5815:5836   */\n      mstore\n        /* \"#utility.yul\":5872:5874   */\n      0x24\n        /* \"#utility.yul\":5852:5870   */\n      dup1\n      dup3\n      add\n        /* \"#utility.yul\":5845:5875   */\n      mstore\n        /* \"#utility.yul\":5911:5945   */\n      0x45524332303a20617070726f76652066726f6d20746865207a65726f20616464\n        /* \"#utility.yul\":5891:5909   */\n      0x44\n      dup3\n      add\n        /* \"#utility.yul\":5884:5946   */\n      mstore\n      shl(0xe0, 0x72657373)\n        /* \"#utility.yul\":5962:5980   */\n      0x64\n      dup3\n      add\n        /* \"#utility.yul\":5955:5989   */\n      mstore\n        /* \"#utility.yul\":6006:6025   */\n      0x84\n      add\n        /* \"node_modules/@openzeppelin-contracts-upgradeable/token/ERC20/ERC20Upgradeable.sol\":11289:11357  require(owner != address(0), \"ERC20: approve from the zero address\") */\n      tag_100\n        /* \"#utility.yul\":5631:6031   */\n      jump\n        /* \"node_modules/@openzeppelin-contracts-upgradeable/token/ERC20/ERC20Upgradeable.sol\":11289:11357  require(owner != address(0), \"ERC20: approve from the zero address\") */\n    tag_136:\n      sub(shl(0xa0, 0x01), 0x01)\n        /* \"node_modules/@openzeppelin-contracts-upgradeable/token/ERC20/ERC20Upgradeable.sol\":11376:11397  spender != address(0) */\n      dup3\n      and\n        /* \"node_modules/@openzeppelin-contracts-upgradeable/token/ERC20/ERC20Upgradeable.sol\":11368:11436  require(spender != address(0), \"ERC20: approve to the zero address\") */\n      tag_139\n      jumpi\n      mload(0x40)\n      shl(0xe5, 0x461bcd)\n      dup2\n      mstore\n        /* \"#utility.yul\":6238:6240   */\n      0x20\n        /* \"node_modules/@openzeppelin-contracts-upgradeable/token/ERC20/ERC20Upgradeable.sol\":11368:11436  require(spender != address(0), \"ERC20: approve to the zero address\") */\n      0x04\n      dup3\n      add\n        /* \"#utility.yul\":6220:6241   */\n      mstore\n        /* \"#utility.yul\":6277:6279   */\n      0x22\n        /* \"#utility.yul\":6257:6275   */\n      0x24\n      dup3\n      add\n        /* \"#utility.yul\":6250:6280   */\n      mstore\n        /* \"#utility.yul\":6316:6350   */\n      0x45524332303a20617070726f766520746f20746865207a65726f206164647265\n        /* \"#utility.yul\":6296:6314   */\n      0x44\n      dup3\n      add\n        /* \"#utility.yul\":6289:6351   */\n      mstore\n      shl(0xf0, 0x7373)\n        /* \"#utility.yul\":6367:6385   */\n      0x64\n      dup3\n      add\n        /* \"#utility.yul\":6360:6392   */\n      mstore\n        /* \"#utility.yul\":6409:6428   */\n      0x84\n      add\n        /* \"node_modules/@openzeppelin-contracts-upgradeable/token/ERC20/ERC20Upgradeable.sol\":11368:11436  require(spender != address(0), \"ERC20: approve to the zero address\") */\n      tag_100\n        /* \"#utility.yul\":6036:6434   */\n      jump\n        /* \"node_modules/@openzeppelin-contracts-upgradeable/token/ERC20/ERC20Upgradeable.sol\":11368:11436  require(spender != address(0), \"ERC20: approve to the zero address\") */\n    tag_139:\n      sub(shl(0xa0, 0x01), 0x01)\n        /* \"node_modules/@openzeppelin-contracts-upgradeable/token/ERC20/ERC20Upgradeable.sol\":11449:11467  _allowances[owner] */\n      dup4\n      dup2\n      and\n      0x00\n      dup2\n      dup2\n      mstore\n        /* \"node_modules/@openzeppelin-contracts-upgradeable/token/ERC20/ERC20Upgradeable.sol\":11449:11460  _allowances */\n      0x34\n        /* \"node_modules/@openzeppelin-contracts-upgradeable/token/ERC20/ERC20Upgradeable.sol\":11449:11467  _allowances[owner] */\n      0x20\n      swap1\n      dup2\n      mstore\n      0x40\n      dup1\n      dup4\n      keccak256\n        /* \"node_modules/@openzeppelin-contracts-upgradeable/token/ERC20/ERC20Upgradeable.sol\":11449:11476  _allowances[owner][spender] */\n      swap5\n      dup8\n      and\n      dup1\n      dup5\n      mstore\n      swap5\n      dup3\n      mstore\n      swap2\n      dup3\n      swap1\n      keccak256\n        /* \"node_modules/@openzeppelin-contracts-upgradeable/token/ERC20/ERC20Upgradeable.sol\":11449:11485  _allowances[owner][spender] = amount */\n      dup6\n      swap1\n      sstore\n        /* \"node_modules/@openzeppelin-contracts-upgradeable/token/ERC20/ERC20Upgradeable.sol\":11501:11533  Approval(owner, spender, amount) */\n      swap1\n      mload\n        /* \"#utility.yul\":1391:1416   */\n      dup5\n      dup2\n      mstore\n        /* \"node_modules/@openzeppelin-contracts-upgradeable/token/ERC20/ERC20Upgradeable.sol\":11501:11533  Approval(owner, spender, amount) */\n      0x8c5be1e5ebec7d5bd14f71427d1e84f3dd0314c0f7b2291e5b200ac8c7c3b925\n      swap2\n        /* \"#utility.yul\":1364:1382   */\n      add\n        /* \"node_modules/@openzeppelin-contracts-upgradeable/token/ERC20/ERC20Upgradeable.sol\":11501:11533  Approval(owner, spender, amount) */\n      mload(0x40)\n      dup1\n      swap2\n      sub\n      swap1\n      log3\n        /* \"node_modules/@openzeppelin-contracts-upgradeable/token/ERC20/ERC20Upgradeable.sol\":11161:11541  function _approve(... */\n      pop\n      pop\n      pop\n      jump\t// out\n        /* \"node_modules/@openzeppelin-contracts-upgradeable/token/ERC20/ERC20Upgradeable.sol\":11832:12285  function _spendAllowance(... */\n    tag_83:\n        /* \"node_modules/@openzeppelin-contracts-upgradeable/token/ERC20/ERC20Upgradeable.sol\":11967:11991  uint256 currentAllowance */\n      0x00\n        /* \"node_modules/@openzeppelin-contracts-upgradeable/token/ERC20/ERC20Upgradeable.sol\":11994:12019  allowance(owner, spender) */\n      tag_144\n        /* \"node_modules/@openzeppelin-contracts-upgradeable/token/ERC20/ERC20Upgradeable.sol\":12004:12009  owner */\n      dup5\n        /* \"node_modules/@openzeppelin-contracts-upgradeable/token/ERC20/ERC20Upgradeable.sol\":12011:12018  spender */\n      dup5\n        /* \"node_modules/@openzeppelin-contracts-upgradeable/token/ERC20/ERC20Upgradeable.sol\":11994:12003  allowance */\n      tag_64\n        /* \"node_modules/@openzeppelin-contracts-upgradeable/token/ERC20/ERC20Upgradeable.sol\":11994:12019  allowance(owner, spender) */\n      jump\t// in\n    tag_144:\n        /* \"node_modules/@openzeppelin-contracts-upgradeable/token/ERC20/ERC20Upgradeable.sol\":11967:12019  uint256 currentAllowance = allowance(owner, spender) */\n      swap1\n      pop\n      not(0x00)\n        /* \"node_modules/@openzeppelin-contracts-upgradeable/token/ERC20/ERC20Upgradeable.sol\":12034:12050  currentAllowance */\n      dup2\n        /* \"node_modules/@openzeppelin-contracts-upgradeable/token/ERC20/ERC20Upgradeable.sol\":12034:12071  currentAllowance != type(uint256).max */\n      eq\n        /* \"node_modules/@openzeppelin-contracts-upgradeable/token/ERC20/ERC20Upgradeable.sol\":12030:12278  if (currentAllowance != type(uint256).max) {... */\n      tag_149\n      jumpi\n        /* \"node_modules/@openzeppelin-contracts-upgradeable/token/ERC20/ERC20Upgradeable.sol\":12116:12122  amount */\n      dup2\n        /* \"node_modules/@openzeppelin-contracts-upgradeable/token/ERC20/ERC20Upgradeable.sol\":12096:12112  currentAllowance */\n      dup2\n        /* \"node_modules/@openzeppelin-contracts-upgradeable/token/ERC20/ERC20Upgradeable.sol\":12096:12122  currentAllowance >= amount */\n      lt\n      iszero\n        /* \"node_modules/@openzeppelin-contracts-upgradeable/token/ERC20/ERC20Upgradeable.sol\":12088:12156  require(currentAllowance >= amount, \"ERC20: insufficient allowance\") */\n      tag_146\n      jumpi\n      mload(0x40)\n      shl(0xe5, 0x461bcd)\n      dup2\n      mstore\n        /* \"#utility.yul\":6641:6643   */\n      0x20\n        /* \"node_modules/@openzeppelin-contracts-upgradeable/token/ERC20/ERC20Upgradeable.sol\":12088:12156  require(currentAllowance >= amount, \"ERC20: insufficient allowance\") */\n      0x04\n      dup3\n      add\n        /* \"#utility.yul\":6623:6644   */\n      mstore\n        /* \"#utility.yul\":6680:6682   */\n      0x1d\n        /* \"#utility.yul\":6660:6678   */\n      0x24\n      dup3\n      add\n        /* \"#utility.yul\":6653:6683   */\n      mstore\n        /* \"#utility.yul\":6719:6750   */\n      0x45524332303a20696e73756666696369656e7420616c6c6f77616e6365000000\n        /* \"#utility.yul\":6699:6717   */\n      0x44\n      dup3\n      add\n        /* \"#utility.yul\":6692:6751   */\n      mstore\n        /* \"#utility.yul\":6768:6786   */\n      0x64\n      add\n        /* \"node_modules/@openzeppelin-contracts-upgradeable/token/ERC20/ERC20Upgradeable.sol\":12088:12156  require(currentAllowance >= amount, \"ERC20: insufficient allowance\") */\n      tag_100\n        /* \"#utility.yul\":6439:6792   */\n      jump\n        /* \"node_modules/@openzeppelin-contracts-upgradeable/token/ERC20/ERC20Upgradeable.sol\":12088:12156  require(currentAllowance >= amount, \"ERC20: insufficient allowance\") */\n    tag_146:\n        /* \"node_modules/@openzeppelin-contracts-upgradeable/token/ERC20/ERC20Upgradeable.sol\":12200:12251  _approve(owner, spender, currentAllowance - amount) */\n      tag_149\n        /* \"node_modules/@openzeppelin-contracts-upgradeable/token/ERC20/ERC20Upgradeable.sol\":12209:12214  owner */\n      dup5\n        /* \"node_modules/@openzeppelin-contracts-upgradeable/token/ERC20/ERC20Upgradeable.sol\":12216:12223  spender */\n      dup5\n        /* \"node_modules/@openzeppelin-contracts-upgradeable/token/ERC20/ERC20Upgradeable.sol\":12244:12250  amount */\n      dup5\n        /* \"node_modules/@openzeppelin-contracts-upgradeable/token/ERC20/ERC20Upgradeable.sol\":12225:12241  currentAllowance */\n      dup5\n        /* \"node_modules/@openzeppelin-contracts-upgradeable/token/ERC20/ERC20Upgradeable.sol\":12225:12250  currentAllowance - amount */\n      sub\n        /* \"node_modules/@openzeppelin-contracts-upgradeable/token/ERC20/ERC20Upgradeable.sol\":12200:12208  _approve */\n      tag_78\n        /* \"node_modules/@openzeppelin-contracts-upgradeable/token/ERC20/ERC20Upgradeable.sol\":12200:12251  _approve(owner, spender, currentAllowance - amount) */\n      jump\t// in\n    tag_149:\n        /* \"node_modules/@openzeppelin-contracts-upgradeable/token/ERC20/ERC20Upgradeable.sol\":11956:12285  {... */\n      pop\n        /* \"node_modules/@openzeppelin-contracts-upgradeable/token/ERC20/ERC20Upgradeable.sol\":11832:12285  function _spendAllowance(... */\n      pop\n      pop\n      pop\n      jump\t// out\n        /* \"node_modules/@openzeppelin-contracts-upgradeable/token/ERC20/ERC20Upgradeable.sol\":8040:8880  function _transfer(... */\n    tag_85:\n      sub(shl(0xa0, 0x01), 0x01)\n        /* \"node_modules/@openzeppelin-contracts-upgradeable/token/ERC20/ERC20Upgradeable.sol\":8171:8189  from != address(0) */\n      dup4\n      and\n        /* \"node_modules/@openzeppelin-contracts-upgradeable/token/ERC20/ERC20Upgradeable.sol\":8163:8231  require(from != address(0), \"ERC20: transfer from the zero address\") */\n      tag_151\n      jumpi\n      mload(0x40)\n      shl(0xe5, 0x461bcd)\n      dup2\n      mstore\n        /* \"#utility.yul\":6999:7001   */\n      0x20\n        /* \"node_modules/@openzeppelin-contracts-upgradeable/token/ERC20/ERC20Upgradeable.sol\":8163:8231  require(from != address(0), \"ERC20: transfer from the zero address\") */\n      0x04\n      dup3\n      add\n        /* \"#utility.yul\":6981:7002   */\n      mstore\n        /* \"#utility.yul\":7038:7040   */\n      0x25\n        /* \"#utility.yul\":7018:7036   */\n      0x24\n      dup3\n      add\n        /* \"#utility.yul\":7011:7041   */\n      mstore\n        /* \"#utility.yul\":7077:7111   */\n      0x45524332303a207472616e736665722066726f6d20746865207a65726f206164\n        /* \"#utility.yul\":7057:7075   */\n      0x44\n      dup3\n      add\n        /* \"#utility.yul\":7050:7112   */\n      mstore\n      shl(0xd8, 0x6472657373)\n        /* \"#utility.yul\":7128:7146   */\n      0x64\n      dup3\n      add\n        /* \"#utility.yul\":7121:7156   */\n      mstore\n        /* \"#utility.yul\":7173:7192   */\n      0x84\n      add\n        /* \"node_modules/@openzeppelin-contracts-upgradeable/token/ERC20/ERC20Upgradeable.sol\":8163:8231  require(from != address(0), \"ERC20: transfer from the zero address\") */\n      tag_100\n        /* \"#utility.yul\":6797:7198   */\n      jump\n        /* \"node_modules/@openzeppelin-contracts-upgradeable/token/ERC20/ERC20Upgradeable.sol\":8163:8231  require(from != address(0), \"ERC20: transfer from the zero address\") */\n    tag_151:\n      sub(shl(0xa0, 0x01), 0x01)\n        /* \"node_modules/@openzeppelin-contracts-upgradeable/token/ERC20/ERC20Upgradeable.sol\":8250:8266  to != address(0) */\n      dup3\n      and\n        /* \"node_modules/@openzeppelin-contracts-upgradeable/token/ERC20/ERC20Upgradeable.sol\":8242:8306  require(to != address(0), \"ERC20: transfer to the zero address\") */\n      tag_154\n      jumpi\n      mload(0x40)\n      shl(0xe5, 0x461bcd)\n      dup2\n      mstore\n        /* \"#utility.yul\":7405:7407   */\n      0x20\n        /* \"node_modules/@openzeppelin-contracts-upgradeable/token/ERC20/ERC20Upgradeable.sol\":8242:8306  require(to != address(0), \"ERC20: transfer to the zero address\") */\n      0x04\n      dup3\n      add\n        /* \"#utility.yul\":7387:7408   */\n      mstore\n        /* \"#utility.yul\":7444:7446   */\n      0x23\n        /* \"#utility.yul\":7424:7442   */\n      0x24\n      dup3\n      add\n        /* \"#utility.yul\":7417:7447   */\n      mstore\n        /* \"#utility.yul\":7483:7517   */\n      0x45524332303a207472616e7366657220746f20746865207a65726f2061646472\n        /* \"#utility.yul\":7463:7481   */\n      0x44\n      dup3\n      add\n        /* \"#utility.yul\":7456:7518   */\n      mstore\n      shl(0xe8, 0x657373)\n        /* \"#utility.yul\":7534:7552   */\n      0x64\n      dup3\n      add\n        /* \"#utility.yul\":7527:7560   */\n      mstore\n        /* \"#utility.yul\":7577:7596   */\n      0x84\n      add\n        /* \"node_modules/@openzeppelin-contracts-upgradeable/token/ERC20/ERC20Upgradeable.sol\":8242:8306  require(to != address(0), \"ERC20: transfer to the zero address\") */\n      tag_100\n        /* \"#utility.yul\":7203:7602   */\n      jump\n        /* \"node_modules/@openzeppelin-contracts-upgradeable/token/ERC20/ERC20Upgradeable.sol\":8242:8306  require(to != address(0), \"ERC20: transfer to the zero address\") */\n    tag_154:\n      sub(shl(0xa0, 0x01), 0x01)\n        /* \"node_modules/@openzeppelin-contracts-upgradeable/token/ERC20/ERC20Upgradeable.sol\":8392:8407  _balances[from] */\n      dup4\n      and\n        /* \"node_modules/@openzeppelin-contracts-upgradeable/token/ERC20/ERC20Upgradeable.sol\":8370:8389  uint256 fromBalance */\n      0x00\n        /* \"node_modules/@openzeppelin-contracts-upgradeable/token/ERC20/ERC20Upgradeable.sol\":8392:8407  _balances[from] */\n      swap1\n      dup2\n      mstore\n        /* \"node_modules/@openzeppelin-contracts-upgradeable/token/ERC20/ERC20Upgradeable.sol\":8392:8401  _balances */\n      0x33\n        /* \"node_modules/@openzeppelin-contracts-upgradeable/token/ERC20/ERC20Upgradeable.sol\":8392:8407  _balances[from] */\n      0x20\n      mstore\n      0x40\n      swap1\n      keccak256\n      sload\n        /* \"node_modules/@openzeppelin-contracts-upgradeable/token/ERC20/ERC20Upgradeable.sol\":8426:8447  fromBalance >= amount */\n      dup2\n      dup2\n      lt\n      iszero\n        /* \"node_modules/@openzeppelin-contracts-upgradeable/token/ERC20/ERC20Upgradeable.sol\":8418:8490  require(fromBalance >= amount, \"ERC20: transfer amount exceeds balance\") */\n      tag_159\n      jumpi\n      mload(0x40)\n      shl(0xe5, 0x461bcd)\n      dup2\n      mstore\n        /* \"#utility.yul\":7809:7811   */\n      0x20\n        /* \"node_modules/@openzeppelin-contracts-upgradeable/token/ERC20/ERC20Upgradeable.sol\":8418:8490  require(fromBalance >= amount, \"ERC20: transfer amount exceeds balance\") */\n      0x04\n      dup3\n      add\n        /* \"#utility.yul\":7791:7812   */\n      mstore\n        /* \"#utility.yul\":7848:7850   */\n      0x26\n        /* \"#utility.yul\":7828:7846   */\n      0x24\n      dup3\n      add\n        /* \"#utility.yul\":7821:7851   */\n      mstore\n        /* \"#utility.yul\":7887:7921   */\n      0x45524332303a207472616e7366657220616d6f756e7420657863656564732062\n        /* \"#utility.yul\":7867:7885   */\n      0x44\n      dup3\n      add\n        /* \"#utility.yul\":7860:7922   */\n      mstore\n      shl(0xd0, 0x616c616e6365)\n        /* \"#utility.yul\":7938:7956   */\n      0x64\n      dup3\n      add\n        /* \"#utility.yul\":7931:7967   */\n      mstore\n        /* \"#utility.yul\":7984:8003   */\n      0x84\n      add\n        /* \"node_modules/@openzeppelin-contracts-upgradeable/token/ERC20/ERC20Upgradeable.sol\":8418:8490  require(fromBalance >= amount, \"ERC20: transfer amount exceeds balance\") */\n      tag_100\n        /* \"#utility.yul\":7607:8009   */\n      jump\n        /* \"node_modules/@openzeppelin-contracts-upgradeable/token/ERC20/ERC20Upgradeable.sol\":8418:8490  require(fromBalance >= amount, \"ERC20: transfer amount exceeds balance\") */\n    tag_159:\n      sub(shl(0xa0, 0x01), 0x01)\n        /* \"node_modules/@openzeppelin-contracts-upgradeable/token/ERC20/ERC20Upgradeable.sol\":8526:8541  _balances[from] */\n      dup1\n      dup6\n      and\n      0x00\n      dup2\n      dup2\n      mstore\n        /* \"node_modules/@openzeppelin-contracts-upgradeable/token/ERC20/ERC20Upgradeable.sol\":8526:8535  _balances */\n      0x33\n        /* \"node_modules/@openzeppelin-contracts-upgradeable/token/ERC20/ERC20Upgradeable.sol\":8526:8541  _balances[from] */\n      0x20\n      mstore\n      0x40\n      dup1\n      dup3\n      keccak256\n        /* \"node_modules/@openzeppelin-contracts-upgradeable/token/ERC20/ERC20Upgradeable.sol\":8544:8564  fromBalance - amount */\n      dup7\n      dup7\n      sub\n        /* \"node_modules/@openzeppelin-contracts-upgradeable/token/ERC20/ERC20Upgradeable.sol\":8526:8564  _balances[from] = fromBalance - amount */\n      swap1\n      sstore\n        /* \"node_modules/@openzeppelin-contracts-upgradeable/token/ERC20/ERC20Upgradeable.sol\":8744:8757  _balances[to] */\n      swap3\n      dup7\n      and\n      dup1\n      dup3\n      mstore\n      swap1\n      dup4\n      swap1\n      keccak256\n        /* \"node_modules/@openzeppelin-contracts-upgradeable/token/ERC20/ERC20Upgradeable.sol\":8744:8767  _balances[to] += amount */\n      dup1\n      sload\n      dup7\n      add\n      swap1\n      sstore\n        /* \"node_modules/@openzeppelin-contracts-upgradeable/token/ERC20/ERC20Upgradeable.sol\":8796:8822  Transfer(from, to, amount) */\n      swap2\n      mload\n      0xddf252ad1be2c89b69c2b068fc378daa952ba7f163c4a11628f55a4df523b3ef\n      swap1\n      tag_162\n      swap1\n        /* \"node_modules/@openzeppelin-contracts-upgradeable/token/ERC20/ERC20Upgradeable.sol\":8558:8564  amount */\n      dup7\n        /* \"#utility.yul\":1391:1416   */\n      dup2\n      mstore\n        /* \"#utility.yul\":1379:1381   */\n      0x20\n        /* \"#utility.yul\":1364:1382   */\n      add\n      swap1\n        /* \"#utility.yul\":1245:1422   */\n      jump\n        /* \"node_modules/@openzeppelin-contracts-upgradeable/token/ERC20/ERC20Upgradeable.sol\":8796:8822  Transfer(from, to, amount) */\n    tag_162:\n      mload(0x40)\n      dup1\n      swap2\n      sub\n      swap1\n      log3\n        /* \"node_modules/@openzeppelin-contracts-upgradeable/token/ERC20/ERC20Upgradeable.sol\":8835:8872  _afterTokenTransfer(from, to, amount) */\n      tag_149\n        /* \"node_modules/@openzeppelin-contracts-upgradeable/token/ERC20/ERC20Upgradeable.sol\":12885:13010  function _beforeTokenTransfer(... */\n      jump\n        /* \"node_modules/@openzeppelin-contracts-upgradeable/token/ERC20/ERC20Upgradeable.sol\":2168:2317  function __ERC20_init(string memory name_, string memory symbol_) internal onlyInitializing {... */\n    tag_105:\n        /* \"node_modules/@openzeppelin-contracts-upgradeable/proxy/utils/Initializable.sol\":5030:5043  _initializing */\n      sload(0x00)\n      0x0100\n      swap1\n      div\n      0xff\n      and\n        /* \"node_modules/@openzeppelin-contracts-upgradeable/proxy/utils/Initializable.sol\":5022:5091  require(_initializing, \"Initializable: contract is not initializing\") */\n      tag_166\n      jumpi\n      mload(0x40)\n      shl(0xe5, 0x461bcd)\n      dup2\n      mstore\n      0x04\n      add\n      tag_100\n      swap1\n      tag_168\n      jump\t// in\n    tag_166:\n        /* \"node_modules/@openzeppelin-contracts-upgradeable/token/ERC20/ERC20Upgradeable.sol\":2271:2309  __ERC20_init_unchained(name_, symbol_) */\n      tag_170\n        /* \"node_modules/@openzeppelin-contracts-upgradeable/token/ERC20/ERC20Upgradeable.sol\":2294:2299  name_ */\n      dup3\n        /* \"node_modules/@openzeppelin-contracts-upgradeable/token/ERC20/ERC20Upgradeable.sol\":2301:2308  symbol_ */\n      dup3\n        /* \"node_modules/@openzeppelin-contracts-upgradeable/token/ERC20/ERC20Upgradeable.sol\":2271:2293  __ERC20_init_unchained */\n      tag_171\n        /* \"node_modules/@openzeppelin-contracts-upgradeable/token/ERC20/ERC20Upgradeable.sol\":2271:2309  __ERC20_init_unchained(name_, symbol_) */\n      jump\t// in\n    tag_170:\n        /* \"node_modules/@openzeppelin-contracts-upgradeable/token/ERC20/ERC20Upgradeable.sol\":2168:2317  function __ERC20_init(string memory name_, string memory symbol_) internal onlyInitializing {... */\n      pop\n      pop\n      jump\t// out\n        /* \"node_modules/@openzeppelin-contracts-upgradeable/token/ERC20/ERC20Upgradeable.sol\":9167:9715  function _mint(address account, uint256 amount) internal virtual {... */\n    tag_112:\n      sub(shl(0xa0, 0x01), 0x01)\n        /* \"node_modules/@openzeppelin-contracts-upgradeable/token/ERC20/ERC20Upgradeable.sol\":9251:9272  account != address(0) */\n      dup3\n      and\n        /* \"node_modules/@openzeppelin-contracts-upgradeable/token/ERC20/ERC20Upgradeable.sol\":9243:9308  require(account != address(0), \"ERC20: mint to the zero address\") */\n      tag_173\n      jumpi\n      mload(0x40)\n      shl(0xe5, 0x461bcd)\n      dup2\n      mstore\n        /* \"#utility.yul\":8628:8630   */\n      0x20\n        /* \"node_modules/@openzeppelin-contracts-upgradeable/token/ERC20/ERC20Upgradeable.sol\":9243:9308  require(account != address(0), \"ERC20: mint to the zero address\") */\n      0x04\n      dup3\n      add\n        /* \"#utility.yul\":8610:8631   */\n      mstore\n        /* \"#utility.yul\":8667:8669   */\n      0x1f\n        /* \"#utility.yul\":8647:8665   */\n      0x24\n      dup3\n      add\n        /* \"#utility.yul\":8640:8670   */\n      mstore\n        /* \"#utility.yul\":8706:8739   */\n      0x45524332303a206d696e7420746f20746865207a65726f206164647265737300\n        /* \"#utility.yul\":8686:8704   */\n      0x44\n      dup3\n      add\n        /* \"#utility.yul\":8679:8740   */\n      mstore\n        /* \"#utility.yul\":8757:8775   */\n      0x64\n      add\n        /* \"node_modules/@openzeppelin-contracts-upgradeable/token/ERC20/ERC20Upgradeable.sol\":9243:9308  require(account != address(0), \"ERC20: mint to the zero address\") */\n      tag_100\n        /* \"#utility.yul\":8426:8781   */\n      jump\n        /* \"node_modules/@openzeppelin-contracts-upgradeable/token/ERC20/ERC20Upgradeable.sol\":9243:9308  require(account != address(0), \"ERC20: mint to the zero address\") */\n    tag_173:\n        /* \"node_modules/@openzeppelin-contracts-upgradeable/token/ERC20/ERC20Upgradeable.sol\":9399:9405  amount */\n      dup1\n        /* \"node_modules/@openzeppelin-contracts-upgradeable/token/ERC20/ERC20Upgradeable.sol\":9383:9395  _totalSupply */\n      0x35\n      0x00\n        /* \"node_modules/@openzeppelin-contracts-upgradeable/token/ERC20/ERC20Upgradeable.sol\":9383:9405  _totalSupply += amount */\n      dup3\n      dup3\n      sload\n      tag_177\n      swap2\n      swap1\n      tag_92\n      jump\t// in\n    tag_177:\n      swap1\n      swap2\n      sstore\n      pop\n      pop\n      sub(shl(0xa0, 0x01), 0x01)\n        /* \"node_modules/@openzeppelin-contracts-upgradeable/token/ERC20/ERC20Upgradeable.sol\":9554:9572  _balances[account] */\n      dup3\n      and\n      0x00\n      dup2\n      dup2\n      mstore\n        /* \"node_modules/@openzeppelin-contracts-upgradeable/token/ERC20/ERC20Upgradeable.sol\":9554:9563  _balances */\n      0x33\n        /* \"node_modules/@openzeppelin-contracts-upgradeable/token/ERC20/ERC20Upgradeable.sol\":9554:9572  _balances[account] */\n      0x20\n      swap1\n      dup2\n      mstore\n      0x40\n      dup1\n      dup4\n      keccak256\n        /* \"node_modules/@openzeppelin-contracts-upgradeable/token/ERC20/ERC20Upgradeable.sol\":9554:9582  _balances[account] += amount */\n      dup1\n      sload\n      dup7\n      add\n      swap1\n      sstore\n        /* \"node_modules/@openzeppelin-contracts-upgradeable/token/ERC20/ERC20Upgradeable.sol\":9609:9646  Transfer(address(0), account, amount) */\n      mload\n        /* \"#utility.yul\":1391:1416   */\n      dup5\n      dup2\n      mstore\n        /* \"node_modules/@openzeppelin-contracts-upgradeable/token/ERC20/ERC20Upgradeable.sol\":9609:9646  Transfer(address(0), account, amount) */\n      0xddf252ad1be2c89b69c2b068fc378daa952ba7f163c4a11628f55a4df523b3ef\n      swap2\n        /* \"#utility.yul\":1364:1382   */\n      add\n        /* \"node_modules/@openzeppelin-contracts-upgradeable/token/ERC20/ERC20Upgradeable.sol\":9609:9646  Transfer(address(0), account, amount) */\n      mload(0x40)\n      dup1\n      swap2\n      sub\n      swap1\n      log3\n        /* \"node_modules/@openzeppelin-contracts-upgradeable/token/ERC20/ERC20Upgradeable.sol\":2168:2317  function __ERC20_init(string memory name_, string memory symbol_) internal onlyInitializing {... */\n      pop\n      pop\n      jump\t// out\n        /* \"node_modules/@openzeppelin-contracts-upgradeable/token/ERC20/ERC20Upgradeable.sol\":12885:13010  function _beforeTokenTransfer(... */\n    tag_158:\n      pop\n      pop\n      pop\n      jump\t// out\n        /* \"node_modules/@openzeppelin-contracts-upgradeable/token/ERC20/ERC20Upgradeable.sol\":2325:2487  function __ERC20_init_unchained(string memory name_, string memory symbol_) internal onlyInitializing {... */\n    tag_171:\n        /* \"node_modules/@openzeppelin-contracts-upgradeable/proxy/utils/Initializable.sol\":5030:5043  _initializing */\n      sload(0x00)\n      0x0100\n      swap1\n      div\n      0xff\n      and\n        /* \"node_modules/@openzeppelin-contracts-upgradeable/proxy/utils/Initializable.sol\":5022:5091  require(_initializing, \"Initializable: contract is not initializing\") */\n      tag_183\n      jumpi\n      mload(0x40)\n      shl(0xe5, 0x461bcd)\n      dup2\n      mstore\n      0x04\n      add\n      tag_100\n      swap1\n      tag_168\n      jump\t// in\n    tag_183:\n        /* \"node_modules/@openzeppelin-contracts-upgradeable/token/ERC20/ERC20Upgradeable.sol\":2438:2443  _name */\n      0x36\n        /* \"node_modules/@openzeppelin-contracts-upgradeable/token/ERC20/ERC20Upgradeable.sol\":2438:2451  _name = name_ */\n      tag_186\n        /* \"node_modules/@openzeppelin-contracts-upgradeable/token/ERC20/ERC20Upgradeable.sol\":2446:2451  name_ */\n      dup4\n        /* \"node_modules/@openzeppelin-contracts-upgradeable/token/ERC20/ERC20Upgradeable.sol\":2438:2443  _name */\n      dup3\n        /* \"node_modules/@openzeppelin-contracts-upgradeable/token/ERC20/ERC20Upgradeable.sol\":2438:2451  _name = name_ */\n      tag_187\n      jump\t// in\n    tag_186:\n      pop\n        /* \"node_modules/@openzeppelin-contracts-upgradeable/token/ERC20/ERC20Upgradeable.sol\":2462:2469  _symbol */\n      0x37\n        /* \"node_modules/@openzeppelin-contracts-upgradeable/token/ERC20/ERC20Upgradeable.sol\":2462:2479  _symbol = symbol_ */\n      tag_158\n        /* \"node_modules/@openzeppelin-contracts-upgradeable/token/ERC20/ERC20Upgradeable.sol\":2472:2479  symbol_ */\n      dup3\n        /* \"node_modules/@openzeppelin-contracts-upgradeable/token/ERC20/ERC20Upgradeable.sol\":2462:2469  _symbol */\n      dup3\n        /* \"node_modules/@openzeppelin-contracts-upgradeable/token/ERC20/ERC20Upgradeable.sol\":2462:2479  _symbol = symbol_ */\n      tag_187\n      jump\t// in\n        /* \"#utility.yul\":14:611   */\n    tag_19:\n        /* \"#utility.yul\":126:130   */\n      0x00\n        /* \"#utility.yul\":155:157   */\n      0x20\n        /* \"#utility.yul\":184:186   */\n      dup1\n        /* \"#utility.yul\":173:182   */\n      dup4\n        /* \"#utility.yul\":166:187   */\n      mstore\n        /* \"#utility.yul\":216:222   */\n      dup4\n        /* \"#utility.yul\":210:223   */\n      mload\n        /* \"#utility.yul\":259:265   */\n      dup1\n        /* \"#utility.yul\":254:256   */\n      dup3\n        /* \"#utility.yul\":243:252   */\n      dup6\n        /* \"#utility.yul\":239:257   */\n      add\n        /* \"#utility.yul\":232:266   */\n      mstore\n        /* \"#utility.yul\":284:285   */\n      0x00\n        /* \"#utility.yul\":294:434   */\n    tag_199:\n        /* \"#utility.yul\":308:314   */\n      dup2\n        /* \"#utility.yul\":305:306   */\n      dup2\n        /* \"#utility.yul\":302:315   */\n      lt\n        /* \"#utility.yul\":294:434   */\n      iszero\n      tag_201\n      jumpi\n        /* \"#utility.yul\":403:417   */\n      dup6\n      dup2\n      add\n        /* \"#utility.yul\":399:422   */\n      dup4\n      add\n        /* \"#utility.yul\":393:423   */\n      mload\n        /* \"#utility.yul\":369:386   */\n      dup6\n      dup3\n      add\n        /* \"#utility.yul\":388:390   */\n      0x40\n        /* \"#utility.yul\":365:391   */\n      add\n        /* \"#utility.yul\":358:424   */\n      mstore\n        /* \"#utility.yul\":323:333   */\n      dup3\n      add\n        /* \"#utility.yul\":294:434   */\n      jump(tag_199)\n    tag_201:\n        /* \"#utility.yul\":452:458   */\n      dup2\n        /* \"#utility.yul\":449:450   */\n      dup2\n        /* \"#utility.yul\":446:459   */\n      gt\n        /* \"#utility.yul\":443:534   */\n      iszero\n      tag_202\n      jumpi\n        /* \"#utility.yul\":522:523   */\n      0x00\n        /* \"#utility.yul\":517:519   */\n      0x40\n        /* \"#utility.yul\":508:514   */\n      dup4\n        /* \"#utility.yul\":497:506   */\n      dup8\n        /* \"#utility.yul\":493:515   */\n      add\n        /* \"#utility.yul\":489:520   */\n      add\n        /* \"#utility.yul\":482:524   */\n      mstore\n        /* \"#utility.yul\":443:534   */\n    tag_202:\n      pop\n        /* \"#utility.yul\":595:597   */\n      0x1f\n        /* \"#utility.yul\":574:589   */\n      add\n      not(0x1f)\n        /* \"#utility.yul\":570:599   */\n      and\n        /* \"#utility.yul\":555:600   */\n      swap3\n      swap1\n      swap3\n      add\n        /* \"#utility.yul\":602:604   */\n      0x40\n        /* \"#utility.yul\":551:605   */\n      add\n      swap4\n        /* \"#utility.yul\":14:611   */\n      swap3\n      pop\n      pop\n      pop\n      jump\t// out\n        /* \"#utility.yul\":616:789   */\n    tag_189:\n        /* \"#utility.yul\":684:704   */\n      dup1\n      calldataload\n      sub(shl(0xa0, 0x01), 0x01)\n        /* \"#utility.yul\":733:764   */\n      dup2\n      and\n        /* \"#utility.yul\":723:765   */\n      dup2\n      eq\n        /* \"#utility.yul\":713:783   */\n      tag_204\n      jumpi\n        /* \"#utility.yul\":779:780   */\n      0x00\n        /* \"#utility.yul\":776:777   */\n      dup1\n        /* \"#utility.yul\":769:781   */\n      revert\n        /* \"#utility.yul\":713:783   */\n    tag_204:\n        /* \"#utility.yul\":616:789   */\n      swap2\n      swap1\n      pop\n      jump\t// out\n        /* \"#utility.yul\":794:1048   */\n    tag_22:\n        /* \"#utility.yul\":862:868   */\n      0x00\n        /* \"#utility.yul\":870:876   */\n      dup1\n        /* \"#utility.yul\":923:925   */\n      0x40\n        /* \"#utility.yul\":911:920   */\n      dup4\n        /* \"#utility.yul\":902:909   */\n      dup6\n        /* \"#utility.yul\":898:921   */\n      sub\n        /* \"#utility.yul\":894:926   */\n      slt\n        /* \"#utility.yul\":891:943   */\n      iszero\n      tag_206\n      jumpi\n        /* \"#utility.yul\":939:940   */\n      0x00\n        /* \"#utility.yul\":936:937   */\n      dup1\n        /* \"#utility.yul\":929:941   */\n      revert\n        /* \"#utility.yul\":891:943   */\n    tag_206:\n        /* \"#utility.yul\":962:991   */\n      tag_207\n        /* \"#utility.yul\":981:990   */\n      dup4\n        /* \"#utility.yul\":962:991   */\n      tag_189\n      jump\t// in\n    tag_207:\n        /* \"#utility.yul\":952:991   */\n      swap5\n        /* \"#utility.yul\":1038:1040   */\n      0x20\n        /* \"#utility.yul\":1023:1041   */\n      swap4\n      swap1\n      swap4\n      add\n        /* \"#utility.yul\":1010:1042   */\n      calldataload\n      swap4\n      pop\n      pop\n      pop\n        /* \"#utility.yul\":794:1048   */\n      jump\t// out\n        /* \"#utility.yul\":1427:1755   */\n    tag_32:\n        /* \"#utility.yul\":1504:1510   */\n      0x00\n        /* \"#utility.yul\":1512:1518   */\n      dup1\n        /* \"#utility.yul\":1520:1526   */\n      0x00\n        /* \"#utility.yul\":1573:1575   */\n      0x60\n        /* \"#utility.yul\":1561:1570   */\n      dup5\n        /* \"#utility.yul\":1552:1559   */\n      dup7\n        /* \"#utility.yul\":1548:1571   */\n      sub\n        /* \"#utility.yul\":1544:1576   */\n      slt\n        /* \"#utility.yul\":1541:1593   */\n      iszero\n      tag_211\n      jumpi\n        /* \"#utility.yul\":1589:1590   */\n      0x00\n        /* \"#utility.yul\":1586:1587   */\n      dup1\n        /* \"#utility.yul\":1579:1591   */\n      revert\n        /* \"#utility.yul\":1541:1593   */\n    tag_211:\n        /* \"#utility.yul\":1612:1641   */\n      tag_212\n        /* \"#utility.yul\":1631:1640   */\n      dup5\n        /* \"#utility.yul\":1612:1641   */\n      tag_189\n      jump\t// in\n    tag_212:\n        /* \"#utility.yul\":1602:1641   */\n      swap3\n      pop\n        /* \"#utility.yul\":1660:1698   */\n      tag_213\n        /* \"#utility.yul\":1694:1696   */\n      0x20\n        /* \"#utility.yul\":1683:1692   */\n      dup6\n        /* \"#utility.yul\":1679:1697   */\n      add\n        /* \"#utility.yul\":1660:1698   */\n      tag_189\n      jump\t// in\n    tag_213:\n        /* \"#utility.yul\":1650:1698   */\n      swap2\n      pop\n        /* \"#utility.yul\":1745:1747   */\n      0x40\n        /* \"#utility.yul\":1734:1743   */\n      dup5\n        /* \"#utility.yul\":1730:1748   */\n      add\n        /* \"#utility.yul\":1717:1749   */\n      calldataload\n        /* \"#utility.yul\":1707:1749   */\n      swap1\n      pop\n        /* \"#utility.yul\":1427:1755   */\n      swap3\n      pop\n      swap3\n      pop\n      swap3\n      jump\t// out\n        /* \"#utility.yul\":1949:2135   */\n    tag_45:\n        /* \"#utility.yul\":2008:2014   */\n      0x00\n        /* \"#utility.yul\":2061:2063   */\n      0x20\n        /* \"#utility.yul\":2049:2058   */\n      dup3\n        /* \"#utility.yul\":2040:2047   */\n      dup5\n        /* \"#utility.yul\":2036:2059   */\n      sub\n        /* \"#utility.yul\":2032:2064   */\n      slt\n        /* \"#utility.yul\":2029:2081   */\n      iszero\n      tag_216\n      jumpi\n        /* \"#utility.yul\":2077:2078   */\n      0x00\n        /* \"#utility.yul\":2074:2075   */\n      dup1\n        /* \"#utility.yul\":2067:2079   */\n      revert\n        /* \"#utility.yul\":2029:2081   */\n    tag_216:\n        /* \"#utility.yul\":2100:2129   */\n      tag_217\n        /* \"#utility.yul\":2119:2128   */\n      dup3\n        /* \"#utility.yul\":2100:2129   */\n      tag_189\n      jump\t// in\n    tag_217:\n        /* \"#utility.yul\":2090:2129   */\n      swap4\n        /* \"#utility.yul\":1949:2135   */\n      swap3\n      pop\n      pop\n      pop\n      jump\t// out\n        /* \"#utility.yul\":2140:2400   */\n    tag_63:\n        /* \"#utility.yul\":2208:2214   */\n      0x00\n        /* \"#utility.yul\":2216:2222   */\n      dup1\n        /* \"#utility.yul\":2269:2271   */\n      0x40\n        /* \"#utility.yul\":2257:2266   */\n      dup4\n        /* \"#utility.yul\":2248:2255   */\n      dup6\n        /* \"#utility.yul\":2244:2267   */\n      sub\n        /* \"#utility.yul\":2240:2272   */\n      slt\n        /* \"#utility.yul\":2237:2289   */\n      iszero\n      tag_219\n      jumpi\n        /* \"#utility.yul\":2285:2286   */\n      0x00\n        /* \"#utility.yul\":2282:2283   */\n      dup1\n        /* \"#utility.yul\":2275:2287   */\n      revert\n        /* \"#utility.yul\":2237:2289   */\n    tag_219:\n        /* \"#utility.yul\":2308:2337   */\n      tag_220\n        /* \"#utility.yul\":2327:2336   */\n      dup4\n        /* \"#utility.yul\":2308:2337   */\n      tag_189\n      jump\t// in\n    tag_220:\n        /* \"#utility.yul\":2298:2337   */\n      swap2\n      pop\n        /* \"#utility.yul\":2356:2394   */\n      tag_221\n        /* \"#utility.yul\":2390:2392   */\n      0x20\n        /* \"#utility.yul\":2379:2388   */\n      dup5\n        /* \"#utility.yul\":2375:2393   */\n      add\n        /* \"#utility.yul\":2356:2394   */\n      tag_189\n      jump\t// in\n    tag_221:\n        /* \"#utility.yul\":2346:2394   */\n      swap1\n      pop\n        /* \"#utility.yul\":2140:2400   */\n      swap3\n      pop\n      swap3\n      swap1\n      pop\n      jump\t// out\n        /* \"#utility.yul\":2405:2785   */\n    tag_69:\n        /* \"#utility.yul\":2484:2485   */\n      0x01\n        /* \"#utility.yul\":2480:2492   */\n      dup2\n      dup2\n      shr\n      swap1\n        /* \"#utility.yul\":2527:2539   */\n      dup3\n      and\n      dup1\n        /* \"#utility.yul\":2548:2609   */\n      tag_223\n      jumpi\n        /* \"#utility.yul\":2602:2606   */\n      0x7f\n        /* \"#utility.yul\":2594:2600   */\n      dup3\n        /* \"#utility.yul\":2590:2607   */\n      and\n        /* \"#utility.yul\":2580:2607   */\n      swap2\n      pop\n        /* \"#utility.yul\":2548:2609   */\n    tag_223:\n        /* \"#utility.yul\":2655:2657   */\n      0x20\n        /* \"#utility.yul\":2647:2653   */\n      dup3\n        /* \"#utility.yul\":2644:2658   */\n      lt\n        /* \"#utility.yul\":2624:2642   */\n      dup2\n        /* \"#utility.yul\":2621:2659   */\n      sub\n        /* \"#utility.yul\":2618:2779   */\n      tag_224\n      jumpi\n        /* \"#utility.yul\":2701:2711   */\n      0x4e487b71\n        /* \"#utility.yul\":2696:2699   */\n      0xe0\n        /* \"#utility.yul\":2692:2712   */\n      shl\n        /* \"#utility.yul\":2689:2690   */\n      0x00\n        /* \"#utility.yul\":2682:2713   */\n      mstore\n        /* \"#utility.yul\":2736:2740   */\n      0x22\n        /* \"#utility.yul\":2733:2734   */\n      0x04\n        /* \"#utility.yul\":2726:2741   */\n      mstore\n        /* \"#utility.yul\":2764:2768   */\n      0x24\n        /* \"#utility.yul\":2761:2762   */\n      0x00\n        /* \"#utility.yul\":2754:2769   */\n      revert\n        /* \"#utility.yul\":2618:2779   */\n    tag_224:\n      pop\n        /* \"#utility.yul\":2405:2785   */\n      swap2\n      swap1\n      pop\n      jump\t// out\n        /* \"#utility.yul\":2790:2917   */\n    tag_190:\n        /* \"#utility.yul\":2851:2861   */\n      0x4e487b71\n        /* \"#utility.yul\":2846:2849   */\n      0xe0\n        /* \"#utility.yul\":2842:2862   */\n      shl\n        /* \"#utility.yul\":2839:2840   */\n      0x00\n        /* \"#utility.yul\":2832:2863   */\n      mstore\n        /* \"#utility.yul\":2882:2886   */\n      0x11\n        /* \"#utility.yul\":2879:2880   */\n      0x04\n        /* \"#utility.yul\":2872:2887   */\n      mstore\n        /* \"#utility.yul\":2906:2910   */\n      0x24\n        /* \"#utility.yul\":2903:2904   */\n      0x00\n        /* \"#utility.yul\":2896:2911   */\n      revert\n        /* \"#utility.yul\":2922:3050   */\n    tag_92:\n        /* \"#utility.yul\":2962:2965   */\n      0x00\n        /* \"#utility.yul\":2993:2994   */\n      dup3\n        /* \"#utility.yul\":2989:2995   */\n      not\n        /* \"#utility.yul\":2986:2987   */\n      dup3\n        /* \"#utility.yul\":2983:2996   */\n      gt\n        /* \"#utility.yul\":2980:3019   */\n      iszero\n      tag_228\n      jumpi\n        /* \"#utility.yul\":2999:3017   */\n      tag_228\n      tag_190\n      jump\t// in\n    tag_228:\n      pop\n        /* \"#utility.yul\":3035:3044   */\n      add\n      swap1\n        /* \"#utility.yul\":2922:3050   */\n      jump\t// out\n        /* \"#utility.yul\":3470:3892   */\n    tag_191:\n        /* \"#utility.yul\":3559:3560   */\n      0x01\n        /* \"#utility.yul\":3602:3607   */\n      dup2\n        /* \"#utility.yul\":3559:3560   */\n      dup2\n        /* \"#utility.yul\":3616:3886   */\n    tag_231:\n        /* \"#utility.yul\":3637:3644   */\n      dup1\n        /* \"#utility.yul\":3627:3635   */\n      dup6\n        /* \"#utility.yul\":3624:3645   */\n      gt\n        /* \"#utility.yul\":3616:3886   */\n      iszero\n      tag_233\n      jumpi\n        /* \"#utility.yul\":3696:3700   */\n      dup2\n        /* \"#utility.yul\":3692:3693   */\n      0x00\n        /* \"#utility.yul\":3688:3694   */\n      not\n        /* \"#utility.yul\":3684:3701   */\n      div\n        /* \"#utility.yul\":3678:3682   */\n      dup3\n        /* \"#utility.yul\":3675:3702   */\n      gt\n        /* \"#utility.yul\":3672:3725   */\n      iszero\n      tag_235\n      jumpi\n        /* \"#utility.yul\":3705:3723   */\n      tag_235\n      tag_190\n      jump\t// in\n    tag_235:\n        /* \"#utility.yul\":3755:3762   */\n      dup1\n        /* \"#utility.yul\":3745:3753   */\n      dup6\n        /* \"#utility.yul\":3741:3763   */\n      and\n        /* \"#utility.yul\":3738:3793   */\n      iszero\n      tag_236\n      jumpi\n        /* \"#utility.yul\":3775:3791   */\n      swap2\n      dup2\n      mul\n      swap2\n        /* \"#utility.yul\":3738:3793   */\n    tag_236:\n        /* \"#utility.yul\":3854:3876   */\n      swap4\n      dup5\n      shr\n      swap4\n        /* \"#utility.yul\":3814:3829   */\n      swap1\n      dup1\n      mul\n      swap1\n        /* \"#utility.yul\":3616:3886   */\n      jump(tag_231)\n    tag_233:\n        /* \"#utility.yul\":3620:3623   */\n      pop\n        /* \"#utility.yul\":3470:3892   */\n      swap3\n      pop\n      swap3\n      swap1\n      pop\n      jump\t// out\n        /* \"#utility.yul\":3897:4703   */\n    tag_192:\n        /* \"#utility.yul\":3946:3951   */\n      0x00\n        /* \"#utility.yul\":3976:3984   */\n      dup3\n        /* \"#utility.yul\":3966:4046   */\n      tag_238\n      jumpi\n      pop\n        /* \"#utility.yul\":4017:4018   */\n      0x01\n        /* \"#utility.yul\":4031:4036   */\n      jump(tag_74)\n        /* \"#utility.yul\":3966:4046   */\n    tag_238:\n        /* \"#utility.yul\":4065:4069   */\n      dup2\n        /* \"#utility.yul\":4055:4131   */\n      tag_239\n      jumpi\n      pop\n        /* \"#utility.yul\":4102:4103   */\n      0x00\n        /* \"#utility.yul\":4116:4121   */\n      jump(tag_74)\n        /* \"#utility.yul\":4055:4131   */\n    tag_239:\n        /* \"#utility.yul\":4147:4151   */\n      dup2\n        /* \"#utility.yul\":4165:4166   */\n      0x01\n        /* \"#utility.yul\":4160:4219   */\n      dup2\n      eq\n      tag_241\n      jumpi\n        /* \"#utility.yul\":4233:4234   */\n      0x02\n        /* \"#utility.yul\":4228:4358   */\n      dup2\n      eq\n      tag_242\n      jumpi\n        /* \"#utility.yul\":4140:4358   */\n      jump(tag_240)\n        /* \"#utility.yul\":4160:4219   */\n    tag_241:\n        /* \"#utility.yul\":4190:4191   */\n      0x01\n        /* \"#utility.yul\":4181:4191   */\n      swap2\n      pop\n        /* \"#utility.yul\":4204:4209   */\n      pop\n      jump(tag_74)\n        /* \"#utility.yul\":4228:4358   */\n    tag_242:\n        /* \"#utility.yul\":4265:4268   */\n      0xff\n        /* \"#utility.yul\":4255:4263   */\n      dup5\n        /* \"#utility.yul\":4252:4269   */\n      gt\n        /* \"#utility.yul\":4249:4292   */\n      iszero\n      tag_244\n      jumpi\n        /* \"#utility.yul\":4272:4290   */\n      tag_244\n      tag_190\n      jump\t// in\n    tag_244:\n      pop\n      pop\n        /* \"#utility.yul\":4328:4329   */\n      0x01\n        /* \"#utility.yul\":4314:4330   */\n      dup3\n      shl\n        /* \"#utility.yul\":4343:4348   */\n      jump(tag_74)\n        /* \"#utility.yul\":4140:4358   */\n    tag_240:\n      pop\n        /* \"#utility.yul\":4442:4444   */\n      0x20\n        /* \"#utility.yul\":4432:4440   */\n      dup4\n        /* \"#utility.yul\":4429:4445   */\n      lt\n        /* \"#utility.yul\":4423:4426   */\n      0x0133\n        /* \"#utility.yul\":4417:4421   */\n      dup4\n        /* \"#utility.yul\":4414:4427   */\n      lt\n        /* \"#utility.yul\":4410:4446   */\n      and\n        /* \"#utility.yul\":4404:4406   */\n      0x4e\n        /* \"#utility.yul\":4394:4402   */\n      dup5\n        /* \"#utility.yul\":4391:4407   */\n      lt\n        /* \"#utility.yul\":4386:4388   */\n      0x0b\n        /* \"#utility.yul\":4380:4384   */\n      dup5\n        /* \"#utility.yul\":4377:4389   */\n      lt\n        /* \"#utility.yul\":4373:4408   */\n      and\n        /* \"#utility.yul\":4370:4447   */\n      or\n        /* \"#utility.yul\":4367:4526   */\n      iszero\n      tag_245\n      jumpi\n      pop\n        /* \"#utility.yul\":4479:4498   */\n      dup2\n      dup2\n      exp\n        /* \"#utility.yul\":4511:4516   */\n      jump(tag_74)\n        /* \"#utility.yul\":4367:4526   */\n    tag_245:\n        /* \"#utility.yul\":4558:4592   */\n      tag_246\n        /* \"#utility.yul\":4583:4591   */\n      dup4\n        /* \"#utility.yul\":4577:4581   */\n      dup4\n        /* \"#utility.yul\":4558:4592   */\n      tag_191\n      jump\t// in\n    tag_246:\n        /* \"#utility.yul\":4628:4634   */\n      dup1\n        /* \"#utility.yul\":4624:4625   */\n      0x00\n        /* \"#utility.yul\":4620:4626   */\n      not\n        /* \"#utility.yul\":4616:4635   */\n      div\n        /* \"#utility.yul\":4607:4614   */\n      dup3\n        /* \"#utility.yul\":4604:4636   */\n      gt\n        /* \"#utility.yul\":4601:4659   */\n      iszero\n      tag_248\n      jumpi\n        /* \"#utility.yul\":4639:4657   */\n      tag_248\n      tag_190\n      jump\t// in\n    tag_248:\n        /* \"#utility.yul\":4677:4697   */\n      mul\n      swap4\n        /* \"#utility.yul\":3897:4703   */\n      swap3\n      pop\n      pop\n      pop\n      jump\t// out\n        /* \"#utility.yul\":4708:4848   */\n    tag_109:\n        /* \"#utility.yul\":4766:4771   */\n      0x00\n        /* \"#utility.yul\":4795:4842   */\n      tag_217\n        /* \"#utility.yul\":4836:4840   */\n      0xff\n        /* \"#utility.yul\":4826:4834   */\n      dup5\n        /* \"#utility.yul\":4822:4841   */\n      and\n        /* \"#utility.yul\":4816:4820   */\n      dup4\n        /* \"#utility.yul\":4795:4842   */\n      tag_192\n      jump\t// in\n        /* \"#utility.yul\":4853:5021   */\n    tag_111:\n        /* \"#utility.yul\":4893:4900   */\n      0x00\n        /* \"#utility.yul\":4959:4960   */\n      dup2\n        /* \"#utility.yul\":4955:4956   */\n      0x00\n        /* \"#utility.yul\":4951:4957   */\n      not\n        /* \"#utility.yul\":4947:4961   */\n      div\n        /* \"#utility.yul\":4944:4945   */\n      dup4\n        /* \"#utility.yul\":4941:4962   */\n      gt\n        /* \"#utility.yul\":4936:4937   */\n      dup3\n        /* \"#utility.yul\":4929:4938   */\n      iszero\n        /* \"#utility.yul\":4922:4939   */\n      iszero\n        /* \"#utility.yul\":4918:4963   */\n      and\n        /* \"#utility.yul\":4915:4986   */\n      iszero\n      tag_253\n      jumpi\n        /* \"#utility.yul\":4966:4984   */\n      tag_253\n      tag_190\n      jump\t// in\n    tag_253:\n      pop\n        /* \"#utility.yul\":5006:5015   */\n      mul\n      swap1\n        /* \"#utility.yul\":4853:5021   */\n      jump\t// out\n        /* \"#utility.yul\":8014:8421   */\n    tag_168:\n        /* \"#utility.yul\":8216:8218   */\n      0x20\n        /* \"#utility.yul\":8198:8219   */\n      dup1\n      dup3\n      mstore\n        /* \"#utility.yul\":8255:8257   */\n      0x2b\n        /* \"#utility.yul\":8235:8253   */\n      swap1\n      dup3\n      add\n        /* \"#utility.yul\":8228:8258   */\n      mstore\n        /* \"#utility.yul\":8294:8328   */\n      0x496e697469616c697a61626c653a20636f6e7472616374206973206e6f742069\n        /* \"#utility.yul\":8289:8291   */\n      0x40\n        /* \"#utility.yul\":8274:8292   */\n      dup3\n      add\n        /* \"#utility.yul\":8267:8329   */\n      mstore\n      shl(0xa8, 0x6e697469616c697a696e67)\n        /* \"#utility.yul\":8360:8362   */\n      0x60\n        /* \"#utility.yul\":8345:8363   */\n      dup3\n      add\n        /* \"#utility.yul\":8338:8379   */\n      mstore\n        /* \"#utility.yul\":8411:8414   */\n      0x80\n        /* \"#utility.yul\":8396:8415   */\n      add\n      swap1\n        /* \"#utility.yul\":8014:8421   */\n      jump\t// out\n        /* \"#utility.yul\":8786:8913   */\n    tag_193:\n        /* \"#utility.yul\":8847:8857   */\n      0x4e487b71\n        /* \"#utility.yul\":8842:8845   */\n      0xe0\n        /* \"#utility.yul\":8838:8858   */\n      shl\n        /* \"#utility.yul\":8835:8836   */\n      0x00\n        /* \"#utility.yul\":8828:8859   */\n      mstore\n        /* \"#utility.yul\":8878:8882   */\n      0x41\n        /* \"#utility.yul\":8875:8876   */\n      0x04\n        /* \"#utility.yul\":8868:8883   */\n      mstore\n        /* \"#utility.yul\":8902:8906   */\n      0x24\n        /* \"#utility.yul\":8899:8900   */\n      0x00\n        /* \"#utility.yul\":8892:8907   */\n      revert\n        /* \"#utility.yul\":9044:9589   */\n    tag_195:\n        /* \"#utility.yul\":9146:9148   */\n      0x1f\n        /* \"#utility.yul\":9141:9144   */\n      dup3\n        /* \"#utility.yul\":9138:9149   */\n      gt\n        /* \"#utility.yul\":9135:9583   */\n      iszero\n      tag_158\n      jumpi\n        /* \"#utility.yul\":9182:9183   */\n      0x00\n        /* \"#utility.yul\":9207:9212   */\n      dup2\n        /* \"#utility.yul\":9203:9205   */\n      dup2\n        /* \"#utility.yul\":9196:9213   */\n      mstore\n        /* \"#utility.yul\":9252:9256   */\n      0x20\n        /* \"#utility.yul\":9248:9250   */\n      dup2\n        /* \"#utility.yul\":9238:9257   */\n      keccak256\n        /* \"#utility.yul\":9322:9324   */\n      0x1f\n        /* \"#utility.yul\":9310:9320   */\n      dup6\n        /* \"#utility.yul\":9306:9325   */\n      add\n        /* \"#utility.yul\":9303:9304   */\n      0x05\n        /* \"#utility.yul\":9299:9326   */\n      shr\n        /* \"#utility.yul\":9293:9297   */\n      dup2\n        /* \"#utility.yul\":9289:9327   */\n      add\n        /* \"#utility.yul\":9358:9362   */\n      0x20\n        /* \"#utility.yul\":9346:9356   */\n      dup7\n        /* \"#utility.yul\":9343:9363   */\n      lt\n        /* \"#utility.yul\":9340:9387   */\n      iszero\n      tag_268\n      jumpi\n      pop\n        /* \"#utility.yul\":9381:9385   */\n      dup1\n        /* \"#utility.yul\":9340:9387   */\n    tag_268:\n        /* \"#utility.yul\":9436:9438   */\n      0x1f\n        /* \"#utility.yul\":9431:9434   */\n      dup6\n        /* \"#utility.yul\":9427:9439   */\n      add\n        /* \"#utility.yul\":9424:9425   */\n      0x05\n        /* \"#utility.yul\":9420:9440   */\n      shr\n        /* \"#utility.yul\":9414:9418   */\n      dup3\n        /* \"#utility.yul\":9410:9441   */\n      add\n        /* \"#utility.yul\":9400:9441   */\n      swap2\n      pop\n        /* \"#utility.yul\":9491:9573   */\n    tag_269:\n        /* \"#utility.yul\":9509:9511   */\n      dup2\n        /* \"#utility.yul\":9502:9507   */\n      dup2\n        /* \"#utility.yul\":9499:9512   */\n      lt\n        /* \"#utility.yul\":9491:9573   */\n      iszero\n      tag_271\n      jumpi\n        /* \"#utility.yul\":9554:9571   */\n      dup3\n      dup2\n      sstore\n        /* \"#utility.yul\":9535:9536   */\n      0x01\n        /* \"#utility.yul\":9524:9537   */\n      add\n        /* \"#utility.yul\":9491:9573   */\n      jump(tag_269)\n    tag_271:\n        /* \"#utility.yul\":9495:9498   */\n      pop\n      pop\n      pop\n        /* \"#utility.yul\":9044:9589   */\n      pop\n      pop\n      pop\n      jump\t// out\n        /* \"#utility.yul\":9765:11117   */\n    tag_187:\n        /* \"#utility.yul\":9891:9894   */\n      dup2\n        /* \"#utility.yul\":9885:9895   */\n      mload\n        /* \"#utility.yul\":9918:9936   */\n      0xffffffffffffffff\n        /* \"#utility.yul\":9910:9916   */\n      dup2\n        /* \"#utility.yul\":9907:9937   */\n      gt\n        /* \"#utility.yul\":9904:9960   */\n      iszero\n      tag_275\n      jumpi\n        /* \"#utility.yul\":9940:9958   */\n      tag_275\n      tag_193\n      jump\t// in\n    tag_275:\n        /* \"#utility.yul\":9969:10066   */\n      tag_276\n        /* \"#utility.yul\":10059:10065   */\n      dup2\n        /* \"#utility.yul\":10019:10057   */\n      tag_277\n        /* \"#utility.yul\":10051:10055   */\n      dup5\n        /* \"#utility.yul\":10045:10056   */\n      sload\n        /* \"#utility.yul\":10019:10057   */\n      tag_69\n      jump\t// in\n    tag_277:\n        /* \"#utility.yul\":10013:10017   */\n      dup5\n        /* \"#utility.yul\":9969:10066   */\n      tag_195\n      jump\t// in\n    tag_276:\n        /* \"#utility.yul\":10121:10125   */\n      0x20\n      dup1\n        /* \"#utility.yul\":10185:10187   */\n      0x1f\n        /* \"#utility.yul\":10174:10188   */\n      dup4\n      gt\n        /* \"#utility.yul\":10202:10203   */\n      0x01\n        /* \"#utility.yul\":10197:10860   */\n      dup2\n      eq\n      tag_279\n      jumpi\n        /* \"#utility.yul\":10904:10905   */\n      0x00\n        /* \"#utility.yul\":10921:10927   */\n      dup5\n        /* \"#utility.yul\":10918:11007   */\n      iszero\n      tag_280\n      jumpi\n      pop\n        /* \"#utility.yul\":10973:10992   */\n      dup6\n      dup4\n      add\n        /* \"#utility.yul\":10967:10993   */\n      mload\n        /* \"#utility.yul\":10918:11007   */\n    tag_280:\n      not(0x00)\n        /* \"#utility.yul\":9722:9723   */\n      0x03\n        /* \"#utility.yul\":9718:9729   */\n      dup7\n      swap1\n      shl\n        /* \"#utility.yul\":9714:9738   */\n      shr\n        /* \"#utility.yul\":9710:9739   */\n      not\n        /* \"#utility.yul\":9700:9740   */\n      and\n        /* \"#utility.yul\":9746:9747   */\n      0x01\n        /* \"#utility.yul\":9742:9753   */\n      dup6\n      swap1\n      shl\n        /* \"#utility.yul\":9697:9754   */\n      or\n        /* \"#utility.yul\":11020:11101   */\n      dup6\n      sstore\n        /* \"#utility.yul\":10167:11111   */\n      jump(tag_271)\n        /* \"#utility.yul\":10197:10860   */\n    tag_279:\n        /* \"#utility.yul\":8991:8992   */\n      0x00\n        /* \"#utility.yul\":8984:8998   */\n      dup6\n      dup2\n      mstore\n        /* \"#utility.yul\":9028:9032   */\n      0x20\n        /* \"#utility.yul\":9015:9033   */\n      dup2\n      keccak256\n      not(0x1f)\n        /* \"#utility.yul\":10233:10253   */\n      dup7\n      and\n      swap2\n        /* \"#utility.yul\":10351:10587   */\n    tag_283:\n        /* \"#utility.yul\":10365:10372   */\n      dup3\n        /* \"#utility.yul\":10362:10363   */\n      dup2\n        /* \"#utility.yul\":10359:10373   */\n      lt\n        /* \"#utility.yul\":10351:10587   */\n      iszero\n      tag_285\n      jumpi\n        /* \"#utility.yul\":10454:10473   */\n      dup9\n      dup7\n      add\n        /* \"#utility.yul\":10448:10474   */\n      mload\n        /* \"#utility.yul\":10433:10475   */\n      dup3\n      sstore\n        /* \"#utility.yul\":10546:10573   */\n      swap5\n      dup5\n      add\n      swap5\n        /* \"#utility.yul\":10514:10515   */\n      0x01\n        /* \"#utility.yul\":10502:10516   */\n      swap1\n      swap2\n      add\n      swap1\n        /* \"#utility.yul\":10381:10400   */\n      dup5\n      add\n        /* \"#utility.yul\":10351:10587   */\n      jump(tag_283)\n    tag_285:\n        /* \"#utility.yul\":10355:10358   */\n      pop\n        /* \"#utility.yul\":10615:10621   */\n      dup6\n        /* \"#utility.yul\":10606:10613   */\n      dup3\n        /* \"#utility.yul\":10603:10622   */\n      lt\n        /* \"#utility.yul\":10600:10801   */\n      iszero\n      tag_286\n      jumpi\n        /* \"#utility.yul\":10676:10695   */\n      dup8\n      dup6\n      add\n        /* \"#utility.yul\":10670:10696   */\n      mload\n      not(0x00)\n        /* \"#utility.yul\":10759:10760   */\n      0x03\n        /* \"#utility.yul\":10755:10769   */\n      dup9\n      swap1\n      shl\n        /* \"#utility.yul\":10771:10774   */\n      0xf8\n        /* \"#utility.yul\":10751:10775   */\n      and\n        /* \"#utility.yul\":10747:10784   */\n      shr\n        /* \"#utility.yul\":10743:10785   */\n      not\n        /* \"#utility.yul\":10728:10786   */\n      and\n        /* \"#utility.yul\":10713:10787   */\n      dup2\n      sstore\n        /* \"#utility.yul\":10600:10801   */\n    tag_286:\n      pop\n      pop\n      pop\n      pop\n      pop\n        /* \"#utility.yul\":10847:10848   */\n      0x01\n        /* \"#utility.yul\":10831:10845   */\n      swap1\n      dup2\n      shl\n        /* \"#utility.yul\":10827:10849   */\n      add\n        /* \"#utility.yul\":10814:10850   */\n      swap1\n      sstore\n      pop\n        /* \"#utility.yul\":9765:11117   */\n      jump\t// out\n\n    auxdata: 0xa26469706673582212209cac22c944e2ec9de7b92f113f7d69c63985dac3d1558e90bfdb448a28355e7664736f6c634300080f0033\n}\n",
				"bytecode": {
					"linkReferences": {},
					"object": "608060405234801561001057600080fd5b50600054610100900460ff16158080156100315750600054600160ff909116105b8061005c575061004a3061013260201b6104dd1760201c565b15801561005c575060005460ff166001145b6100c35760405162461bcd60e51b815260206004820152602e60248201527f496e697469616c697a61626c653a20636f6e747261637420697320616c72656160448201526d191e481a5b9a5d1a585b1a5e995960921b606482015260840160405180910390fd5b6000805460ff1916600117905580156100e6576000805461ff0019166101001790555b801561012c576000805461ff0019169055604051600181527f7f26b83ff96e1f2b6a682f133852f6798a09c465da95921460cefb38474024989060200160405180910390a15b50610141565b6001600160a01b03163b151590565b610dbb806101506000396000f3fe608060405234801561001057600080fd5b50600436106100b45760003560e01c806370a082311161007157806370a08231146101415780638129fc1c1461016a57806395d89b4114610174578063a457c2d71461017c578063a9059cbb1461018f578063dd62ed3e146101a257600080fd5b806306fdde03146100b9578063095ea7b3146100d757806318160ddd146100fa57806323b872dd1461010c578063313ce5671461011f578063395093511461012e575b600080fd5b6100c16101b5565b6040516100ce9190610970565b60405180910390f35b6100ea6100e53660046109e1565b610247565b60405190151581526020016100ce565b6035545b6040519081526020016100ce565b6100ea61011a366004610a0b565b610261565b604051601281526020016100ce565b6100ea61013c3660046109e1565b610285565b6100fe61014f366004610a47565b6001600160a01b031660009081526033602052604090205490565b6101726102a7565b005b6100c161041a565b6100ea61018a3660046109e1565b610429565b6100ea61019d3660046109e1565b6104a4565b6100fe6101b0366004610a69565b6104b2565b6060603680546101c490610a9c565b80601f01602080910402602001604051908101604052809291908181526020018280546101f090610a9c565b801561023d5780601f106102125761010080835404028352916020019161023d565b820191906000526020600020905b81548152906001019060200180831161022057829003601f168201915b5050505050905090565b6000336102558185856104ec565b60019150505b92915050565b60003361026f858285610610565b61027a85858561068a565b506001949350505050565b60003361025581858561029883836104b2565b6102a29190610aec565b6104ec565b600054610100900460ff16158080156102c75750600054600160ff909116105b806102e15750303b1580156102e1575060005460ff166001145b6103495760405162461bcd60e51b815260206004820152602e60248201527f496e697469616c697a61626c653a20636f6e747261637420697320616c72656160448201526d191e481a5b9a5d1a585b1a5e995960921b60648201526084015b60405180910390fd5b6000805460ff19166001179055801561036c576000805461ff0019166101001790555b6103b06040518060400160405280600781526020016626bcaa37b5b2b760c91b815250604051806040016040528060038152602001624d544b60e81b815250610835565b6103d1336103c06012600a610be8565b6103cc906103e8610bf7565b61086a565b8015610417576000805461ff0019169055604051600181527f7f26b83ff96e1f2b6a682f133852f6798a09c465da95921460cefb38474024989060200160405180910390a15b50565b6060603780546101c490610a9c565b6000338161043782866104b2565b9050838110156104975760405162461bcd60e51b815260206004820152602560248201527f45524332303a2064656372656173656420616c6c6f77616e63652062656c6f77604482015264207a65726f60d81b6064820152608401610340565b61027a82868684036104ec565b60003361025581858561068a565b6001600160a01b03918216600090815260346020908152604080832093909416825291909152205490565b6001600160a01b03163b151590565b6001600160a01b03831661054e5760405162461bcd60e51b8152602060048201526024808201527f45524332303a20617070726f76652066726f6d20746865207a65726f206164646044820152637265737360e01b6064820152608401610340565b6001600160a01b0382166105af5760405162461bcd60e51b815260206004820152602260248201527f45524332303a20617070726f766520746f20746865207a65726f206164647265604482015261737360f01b6064820152608401610340565b6001600160a01b0383811660008181526034602090815260408083209487168084529482529182902085905590518481527f8c5be1e5ebec7d5bd14f71427d1e84f3dd0314c0f7b2291e5b200ac8c7c3b925910160405180910390a3505050565b600061061c84846104b2565b9050600019811461068457818110156106775760405162461bcd60e51b815260206004820152601d60248201527f45524332303a20696e73756666696369656e7420616c6c6f77616e63650000006044820152606401610340565b61068484848484036104ec565b50505050565b6001600160a01b0383166106ee5760405162461bcd60e51b815260206004820152602560248201527f45524332303a207472616e736665722066726f6d20746865207a65726f206164604482015264647265737360d81b6064820152608401610340565b6001600160a01b0382166107505760405162461bcd60e51b815260206004820152602360248201527f45524332303a207472616e7366657220746f20746865207a65726f206164647260448201526265737360e81b6064820152608401610340565b6001600160a01b038316600090815260336020526040902054818110156107c85760405162461bcd60e51b815260206004820152602660248201527f45524332303a207472616e7366657220616d6f756e7420657863656564732062604482015265616c616e636560d01b6064820152608401610340565b6001600160a01b0380851660008181526033602052604080822086860390559286168082529083902080548601905591517fddf252ad1be2c89b69c2b068fc378daa952ba7f163c4a11628f55a4df523b3ef906108289086815260200190565b60405180910390a3610684565b600054610100900460ff1661085c5760405162461bcd60e51b815260040161034090610c16565b6108668282610930565b5050565b6001600160a01b0382166108c05760405162461bcd60e51b815260206004820152601f60248201527f45524332303a206d696e7420746f20746865207a65726f2061646472657373006044820152606401610340565b80603560008282546108d29190610aec565b90915550506001600160a01b0382166000818152603360209081526040808320805486019055518481527fddf252ad1be2c89b69c2b068fc378daa952ba7f163c4a11628f55a4df523b3ef910160405180910390a35050565b505050565b600054610100900460ff166109575760405162461bcd60e51b815260040161034090610c16565b60366109638382610cc5565b50603761092b8282610cc5565b600060208083528351808285015260005b8181101561099d57858101830151858201604001528201610981565b818111156109af576000604083870101525b50601f01601f1916929092016040019392505050565b80356001600160a01b03811681146109dc57600080fd5b919050565b600080604083850312156109f457600080fd5b6109fd836109c5565b946020939093013593505050565b600080600060608486031215610a2057600080fd5b610a29846109c5565b9250610a37602085016109c5565b9150604084013590509250925092565b600060208284031215610a5957600080fd5b610a62826109c5565b9392505050565b60008060408385031215610a7c57600080fd5b610a85836109c5565b9150610a93602084016109c5565b90509250929050565b600181811c90821680610ab057607f821691505b602082108103610ad057634e487b7160e01b600052602260045260246000fd5b50919050565b634e487b7160e01b600052601160045260246000fd5b60008219821115610aff57610aff610ad6565b500190565b600181815b80851115610b3f578160001904821115610b2557610b25610ad6565b80851615610b3257918102915b93841c9390800290610b09565b509250929050565b600082610b565750600161025b565b81610b635750600061025b565b8160018114610b795760028114610b8357610b9f565b600191505061025b565b60ff841115610b9457610b94610ad6565b50506001821b61025b565b5060208310610133831016604e8410600b8410161715610bc2575081810a61025b565b610bcc8383610b04565b8060001904821115610be057610be0610ad6565b029392505050565b6000610a6260ff841683610b47565b6000816000190483118215151615610c1157610c11610ad6565b500290565b6020808252602b908201527f496e697469616c697a61626c653a20636f6e7472616374206973206e6f74206960408201526a6e697469616c697a696e6760a81b606082015260800190565b634e487b7160e01b600052604160045260246000fd5b601f82111561092b57600081815260208120601f850160051c81016020861015610c9e5750805b601f850160051c820191505b81811015610cbd57828155600101610caa565b505050505050565b815167ffffffffffffffff811115610cdf57610cdf610c61565b610cf381610ced8454610a9c565b84610c77565b602080601f831160018114610d285760008415610d105750858301515b600019600386901b1c1916600185901b178555610cbd565b600085815260208120601f198616915b82811015610d5757888601518255948401946001909101908401610d38565b5085821015610d755787850151600019600388901b60f8161c191681555b5050505050600190811b0190555056fea26469706673582212209cac22c944e2ec9de7b92f113f7d69c63985dac3d1558e90bfdb448a28355e7664736f6c634300080f0033",
					"opcodes": "PUSH1 0x80 PUSH1 0x40 MSTORE CALLVALUE DUP1 ISZERO PUSH2 0x10 JUMPI PUSH1 0x0 DUP1 REVERT JUMPDEST POP PUSH1 0x0 SLOAD PUSH2 0x100 SWAP1 DIV PUSH1 0xFF AND ISZERO DUP1 DUP1 ISZERO PUSH2 0x31 JUMPI POP PUSH1 0x0 SLOAD PUSH1 0x1 PUSH1 0xFF SWAP1 SWAP2 AND LT JUMPDEST DUP1 PUSH2 0x5C JUMPI POP PUSH2 0x4A ADDRESS PUSH2 0x132 PUSH1 0x20 SHL PUSH2 0x4DD OR PUSH1 0x20 SHR JUMP JUMPDEST ISZERO DUP1 ISZERO PUSH2 0x5C JUMPI POP PUSH1 0x0 SLOAD PUSH1 0xFF AND PUSH1 0x1 EQ JUMPDEST PUSH2 0xC3 JUMPI PUSH1 0x40 MLOAD PUSH3 0x461BCD PUSH1 0xE5 SHL DUP2 MSTORE PUSH1 0x20 PUSH1 0x4 DUP3 ADD MSTORE PUSH1 0x2E PUSH1 0x24 DUP3 ADD MSTORE PUSH32 0x496E697469616C697A61626C653A20636F6E747261637420697320616C726561 PUSH1 0x44 DUP3 ADD MSTORE PUSH14 0x191E481A5B9A5D1A585B1A5E9959 PUSH1 0x92 SHL PUSH1 0x64 DUP3 ADD MSTORE PUSH1 0x84 ADD PUSH1 0x40 MLOAD DUP1 SWAP2 SUB SWAP1 REVERT JUMPDEST PUSH1 0x0 DUP1 SLOAD PUSH1 0xFF NOT AND PUSH1 0x1 OR SWAP1 SSTORE DUP1 ISZERO PUSH2 0xE6 JUMPI PUSH1 0x0 DUP1 SLOAD PUSH2 0xFF00 NOT AND PUSH2 0x100 OR SWAP1 SSTORE JUMPDEST DUP1 ISZERO PUSH2 0x12C JUMPI PUSH1 0x0 DUP1 SLOAD PUSH2 0xFF00 NOT AND SWAP1 SSTORE PUSH1 0x40 MLOAD PUSH1 0x1 DUP2 MSTORE PUSH32 0x7F26B83FF96E1F2B6A682F133852F6798A09C465DA95921460CEFB3847402498 SWAP1 PUSH1 0x20 ADD PUSH1 0x40 MLOAD DUP1 SWAP2 SUB SWAP1 LOG1 JUMPDEST POP PUSH2 0x141 JUMP JUMPDEST PUSH1 0x1 PUSH1 0x1 PUSH1 0xA0 SHL SUB AND EXTCODESIZE ISZERO ISZERO SWAP1 JUMP JUMPDEST PUSH2 0xDBB DUP1 PUSH2 0x150 PUSH1 0x0 CODECOPY PUSH1 0x0 RETURN INVALID PUSH1 0x80 PUSH1 0x40 MSTORE CALLVALUE DUP1 ISZERO PUSH2 0x10 JUMPI PUSH1 0x0 DUP1 REVERT JUMPDEST POP PUSH1 0x4 CALLDATASIZE LT PUSH2 0xB4 JUMPI PUSH1 0x0 CALLDATALOAD PUSH1 0xE0 SHR DUP1 PUSH4 0x70A08231 GT PUSH2 0x71 JUMPI DUP1 PUSH4 0x70A08231 EQ PUSH2 0x141 JUMPI DUP1 PUSH4 0x8129FC1C EQ PUSH2 0x16A JUMPI DUP1 PUSH4 0x95D89B41 EQ PUSH2 0x174 JUMPI DUP1 PUSH4 0xA457C2D7 EQ PUSH2 0x17C JUMPI DUP1 PUSH4 0xA9059CBB EQ PUSH2 0x18F JUMPI DUP1 PUSH4 0xDD62ED3E EQ PUSH2 0x1A2 JUMPI PUSH1 0x0 DUP1 REVERT JUMPDEST DUP1 PUSH4 0x6FDDE03 EQ PUSH2 0xB9 JUMPI DUP1 PUSH4 0x95EA7B3 EQ PUSH2 0xD7 JUMPI DUP1 PUSH4 0x18160DDD EQ PUSH2 0xFA JUMPI DUP1 PUSH4 0x23B872DD EQ PUSH2 0x10C JUMPI DUP1 PUSH4 0x313CE567 EQ PUSH2 0x11F JUMPI DUP1 PUSH4 0x39509351 EQ PUSH2 0x12E JUMPI JUMPDEST PUSH1 0x0 DUP1 REVERT JUMPDEST PUSH2 0xC1 PUSH2 0x1B5 JUMP JUMPDEST PUSH1 0x40 MLOAD PUSH2 0xCE SWAP2 SWAP1 PUSH2 0x970 JUMP JUMPDEST PUSH1 0x40 MLOAD DUP1 SWAP2 SUB SWAP1 RETURN JUMPDEST PUSH2 0xEA PUSH2 0xE5 CALLDATASIZE PUSH1 0x4 PUSH2 0x9E1 JUMP JUMPDEST PUSH2 0x247 JUMP JUMPDEST PUSH1 0x40 MLOAD SWAP1 ISZERO ISZERO DUP2 MSTORE PUSH1 0x20 ADD PUSH2 0xCE JUMP JUMPDEST PUSH1 0x35 SLOAD JUMPDEST PUSH1 0x40 MLOAD SWAP1 DUP2 MSTORE PUSH1 0x20 ADD PUSH2 0xCE JUMP JUMPDEST PUSH2 0xEA PUSH2 0x11A CALLDATASIZE PUSH1 0x4 PUSH2 0xA0B JUMP JUMPDEST PUSH2 0x261 JUMP JUMPDEST PUSH1 0x40 MLOAD PUSH1 0x12 DUP2 MSTORE PUSH1 0x20 ADD PUSH2 0xCE JUMP JUMPDEST PUSH2 0xEA PUSH2 0x13C CALLDATASIZE PUSH1 0x4 PUSH2 0x9E1 JUMP JUMPDEST PUSH2 0x285 JUMP JUMPDEST PUSH2 0xFE PUSH2 0x14F CALLDATASIZE PUSH1 0x4 PUSH2 0xA47 JUMP JUMPDEST PUSH1 0x1 PUSH1 0x1 PUSH1 0xA0 SHL SUB AND PUSH1 0x0 SWAP1 DUP2 MSTORE PUSH1 0x33 PUSH1 0x20 MSTORE PUSH1 0x40 SWAP1 KECCAK256 SLOAD SWAP1 JUMP JUMPDEST PUSH2 0x172 PUSH2 0x2A7 JUMP JUMPDEST STOP JUMPDEST PUSH2 0xC1 PUSH2 0x41A JUMP JUMPDEST PUSH2 0xEA PUSH2 0x18A CALLDATASIZE PUSH1 0x4 PUSH2 0x9E1 JUMP JUMPDEST PUSH2 0x429 JUMP JUMPDEST PUSH2 0xEA PUSH2 0x19D CALLDATASIZE PUSH1 0x4 PUSH2 0x9E1 JUMP JUMPDEST PUSH2 0x4A4 JUMP JUMPDEST PUSH2 0xFE PUSH2 0x1B0 CALLDATASIZE PUSH1 0x4 PUSH2 0xA69 JUMP JUMPDEST PUSH2 0x4B2 JUMP JUMPDEST PUSH1 0x60 PUSH1 0x36 DUP1 SLOAD PUSH2 0x1C4 SWAP1 PUSH2 0xA9C JUMP JUMPDEST DUP1 PUSH1 0x1F ADD PUSH1 0x20 DUP1 SWAP2 DIV MUL PUSH1 0x20 ADD PUSH1 0x40 MLOAD SWAP1 DUP2 ADD PUSH1 0x40 MSTORE DUP1 SWAP3 SWAP2 SWAP1 DUP2 DUP2 MSTORE PUSH1 0x20 ADD DUP3 DUP1 SLOAD PUSH2 0x1F0 SWAP1 PUSH2 0xA9C JUMP JUMPDEST DUP1 ISZERO PUSH2 0x23D JUMPI DUP1 PUSH1 0x1F LT PUSH2 0x212 JUMPI PUSH2 0x100 DUP1 DUP4 SLOAD DIV MUL DUP4 MSTORE SWAP2 PUSH1 0x20 ADD SWAP2 PUSH2 0x23D JUMP JUMPDEST DUP3 ADD SWAP2 SWAP1 PUSH1 0x0 MSTORE PUSH1 0x20 PUSH1 0x0 KECCAK256 SWAP1 JUMPDEST DUP2 SLOAD DUP2 MSTORE SWAP1 PUSH1 0x1 ADD SWAP1 PUSH1 0x20 ADD DUP1 DUP4 GT PUSH2 0x220 JUMPI DUP3 SWAP1 SUB PUSH1 0x1F AND DUP3 ADD SWAP2 JUMPDEST POP POP POP POP POP SWAP1 POP SWAP1 JUMP JUMPDEST PUSH1 0x0 CALLER PUSH2 0x255 DUP2 DUP6 DUP6 PUSH2 0x4EC JUMP JUMPDEST PUSH1 0x1 SWAP2 POP POP JUMPDEST SWAP3 SWAP2 POP POP JUMP JUMPDEST PUSH1 0x0 CALLER PUSH2 0x26F DUP6 DUP3 DUP6 PUSH2 0x610 JUMP JUMPDEST PUSH2 0x27A DUP6 DUP6 DUP6 PUSH2 0x68A JUMP JUMPDEST POP PUSH1 0x1 SWAP5 SWAP4 POP POP POP POP JUMP JUMPDEST PUSH1 0x0 CALLER PUSH2 0x255 DUP2 DUP6 DUP6 PUSH2 0x298 DUP4 DUP4 PUSH2 0x4B2 JUMP JUMPDEST PUSH2 0x2A2 SWAP2 SWAP1 PUSH2 0xAEC JUMP JUMPDEST PUSH2 0x4EC JUMP JUMPDEST PUSH1 0x0 SLOAD PUSH2 0x100 SWAP1 DIV PUSH1 0xFF AND ISZERO DUP1 DUP1 ISZERO PUSH2 0x2C7 JUMPI POP PUSH1 0x0 SLOAD PUSH1 0x1 PUSH1 0xFF SWAP1 SWAP2 AND LT JUMPDEST DUP1 PUSH2 0x2E1 JUMPI POP ADDRESS EXTCODESIZE ISZERO DUP1 ISZERO PUSH2 0x2E1 JUMPI POP PUSH1 0x0 SLOAD PUSH1 0xFF AND PUSH1 0x1 EQ JUMPDEST PUSH2 0x349 JUMPI PUSH1 0x40 MLOAD PUSH3 0x461BCD PUSH1 0xE5 SHL DUP2 MSTORE PUSH1 0x20 PUSH1 0x4 DUP3 ADD MSTORE PUSH1 0x2E PUSH1 0x24 DUP3 ADD MSTORE PUSH32 0x496E697469616C697A61626C653A20636F6E747261637420697320616C726561 PUSH1 0x44 DUP3 ADD MSTORE PUSH14 0x191E481A5B9A5D1A585B1A5E9959 PUSH1 0x92 SHL PUSH1 0x64 DUP3 ADD MSTORE PUSH1 0x84 ADD JUMPDEST PUSH1 0x40 MLOAD DUP1 SWAP2 SUB SWAP1 REVERT JUMPDEST PUSH1 0x0 DUP1 SLOAD PUSH1 0xFF NOT AND PUSH1 0x1 OR SWAP1 SSTORE DUP1 ISZERO PUSH2 0x36C JUMPI PUSH1 0x0 DUP1 SLOAD PUSH2 0xFF00 NOT AND PUSH2 0x100 OR SWAP1 SSTORE JUMPDEST PUSH2 0x3B0 PUSH1 0x40 MLOAD DUP1 PUSH1 0x40 ADD PUSH1 0x40 MSTORE DUP1 PUSH1 0x7 DUP2 MSTORE PUSH1 0x20 ADD PUSH7 0x26BCAA37B5B2B7 PUSH1 0xC9 SHL DUP2 MSTORE POP PUSH1 0x40 MLOAD DUP1 PUSH1 0x40 ADD PUSH1 0x40 MSTORE DUP1 PUSH1 0x3 DUP2 MSTORE PUSH1 0x20 ADD PUSH3 0x4D544B PUSH1 0xE8 SHL DUP2 MSTORE POP PUSH2 0x835 JUMP JUMPDEST PUSH2 0x3D1 CALLER PUSH2 0x3C0 PUSH1 0x12 PUSH1 0xA PUSH2 0xBE8 JUMP JUMPDEST PUSH2 0x3CC SWAP1 PUSH2 0x3E8 PUSH2 0xBF7 JUMP JUMPDEST PUSH2 0x86A JUMP JUMPDEST DUP1 ISZERO PUSH2 0x417 JUMPI PUSH1 0x0 DUP1 SLOAD PUSH2 0xFF00 NOT AND SWAP1 SSTORE PUSH1 0x40 MLOAD PUSH1 0x1 DUP2 MSTORE PUSH32 0x7F26B83FF96E1F2B6A682F133852F6798A09C465DA95921460CEFB3847402498 SWAP1 PUSH1 0x20 ADD PUSH1 0x40 MLOAD DUP1 SWAP2 SUB SWAP1 LOG1 JUMPDEST POP JUMP JUMPDEST PUSH1 0x60 PUSH1 0x37 DUP1 SLOAD PUSH2 0x1C4 SWAP1 PUSH2 0xA9C JUMP JUMPDEST PUSH1 0x0 CALLER DUP2 PUSH2 0x437 DUP3 DUP7 PUSH2 0x4B2 JUMP JUMPDEST SWAP1 POP DUP4 DUP2 LT ISZERO PUSH2 0x497 JUMPI PUSH1 0x40 MLOAD PUSH3 0x461BCD PUSH1 0xE5 SHL DUP2 MSTORE PUSH1 0x20 PUSH1 0x4 DUP3 ADD MSTORE PUSH1 0x25 PUSH1 0x24 DUP3 ADD MSTORE PUSH32 0x45524332303A2064656372656173656420616C6C6F77616E63652062656C6F77 PUSH1 0x44 DUP3 ADD MSTORE PUSH5 0x207A65726F PUSH1 0xD8 SHL PUSH1 0x64 DUP3 ADD MSTORE PUSH1 0x84 ADD PUSH2 0x340 JUMP JUMPDEST PUSH2 0x27A DUP3 DUP7 DUP7 DUP5 SUB PUSH2 0x4EC JUMP JUMPDEST PUSH1 0x0 CALLER PUSH2 0x255 DUP2 DUP6 DUP6 PUSH2 0x68A JUMP JUMPDEST PUSH1 0x1 PUSH1 0x1 PUSH1 0xA0 SHL SUB SWAP2 DUP3 AND PUSH1 0x0 SWAP1 DUP2 MSTORE PUSH1 0x34 PUSH1 0x20 SWAP1 DUP2 MSTORE PUSH1 0x40 DUP1 DUP4 KECCAK256 SWAP4 SWAP1 SWAP5 AND DUP3 MSTORE SWAP2 SWAP1 SWAP2 MSTORE KECCAK256 SLOAD SWAP1 JUMP JUMPDEST PUSH1 0x1 PUSH1 0x1 PUSH1 0xA0 SHL SUB AND EXTCODESIZE ISZERO ISZERO SWAP1 JUMP JUMPDEST PUSH1 0x1 PUSH1 0x1 PUSH1 0xA0 SHL SUB DUP4 AND PUSH2 0x54E JUMPI PUSH1 0x40 MLOAD PUSH3 0x461BCD PUSH1 0xE5 SHL DUP2 MSTORE PUSH1 0x20 PUSH1 0x4 DUP3 ADD MSTORE PUSH1 0x24 DUP1 DUP3 ADD MSTORE PUSH32 0x45524332303A20617070726F76652066726F6D20746865207A65726F20616464 PUSH1 0x44 DUP3 ADD MSTORE PUSH4 0x72657373 PUSH1 0xE0 SHL PUSH1 0x64 DUP3 ADD MSTORE PUSH1 0x84 ADD PUSH2 0x340 JUMP JUMPDEST PUSH1 0x1 PUSH1 0x1 PUSH1 0xA0 SHL SUB DUP3 AND PUSH2 0x5AF JUMPI PUSH1 0x40 MLOAD PUSH3 0x461BCD PUSH1 0xE5 SHL DUP2 MSTORE PUSH1 0x20 PUSH1 0x4 DUP3 ADD MSTORE PUSH1 0x22 PUSH1 0x24 DUP3 ADD MSTORE PUSH32 0x45524332303A20617070726F766520746F20746865207A65726F206164647265 PUSH1 0x44 DUP3 ADD MSTORE PUSH2 0x7373 PUSH1 0xF0 SHL PUSH1 0x64 DUP3 ADD MSTORE PUSH1 0x84 ADD PUSH2 0x340 JUMP JUMPDEST PUSH1 0x1 PUSH1 0x1 PUSH1 0xA0 SHL SUB DUP4 DUP2 AND PUSH1 0x0 DUP2 DUP2 MSTORE PUSH1 0x34 PUSH1 0x20 SWAP1 DUP2 MSTORE PUSH1 0x40 DUP1 DUP4 KECCAK256 SWAP5 DUP8 AND DUP1 DUP5 MSTORE SWAP5 DUP3 MSTORE SWAP2 DUP3 SWAP1 KECCAK256 DUP6 SWAP1 SSTORE SWAP1 MLOAD DUP5 DUP2 MSTORE PUSH32 0x8C5BE1E5EBEC7D5BD14F71427D1E84F3DD0314C0F7B2291E5B200AC8C7C3B925 SWAP2 ADD PUSH1 0x40 MLOAD DUP1 SWAP2 SUB SWAP1 LOG3 POP POP POP JUMP JUMPDEST PUSH1 0x0 PUSH2 0x61C DUP5 DUP5 PUSH2 0x4B2 JUMP JUMPDEST SWAP1 POP PUSH1 0x0 NOT DUP2 EQ PUSH2 0x684 JUMPI DUP2 DUP2 LT ISZERO PUSH2 0x677 JUMPI PUSH1 0x40 MLOAD PUSH3 0x461BCD PUSH1 0xE5 SHL DUP2 MSTORE PUSH1 0x20 PUSH1 0x4 DUP3 ADD MSTORE PUSH1 0x1D PUSH1 0x24 DUP3 ADD MSTORE PUSH32 0x45524332303A20696E73756666696369656E7420616C6C6F77616E6365000000 PUSH1 0x44 DUP3 ADD MSTORE PUSH1 0x64 ADD PUSH2 0x340 JUMP JUMPDEST PUSH2 0x684 DUP5 DUP5 DUP5 DUP5 SUB PUSH2 0x4EC JUMP JUMPDEST POP POP POP POP JUMP JUMPDEST PUSH1 0x1 PUSH1 0x1 PUSH1 0xA0 SHL SUB DUP4 AND PUSH2 0x6EE JUMPI PUSH1 0x40 MLOAD PUSH3 0x461BCD PUSH1 0xE5 SHL DUP2 MSTORE PUSH1 0x20 PUSH1 0x4 DUP3 ADD MSTORE PUSH1 0x25 PUSH1 0x24 DUP3 ADD MSTORE PUSH32 0x45524332303A207472616E736665722066726F6D20746865207A65726F206164 PUSH1 0x44 DUP3 ADD MSTORE PUSH5 0x6472657373 PUSH1 0xD8 SHL PUSH1 0x64 DUP3 ADD MSTORE PUSH1 0x84 ADD PUSH2 0x340 JUMP JUMPDEST PUSH1 0x1 PUSH1 0x1 PUSH1 0xA0 SHL SUB DUP3 AND PUSH2 0x750 JUMPI PUSH1 0x40 MLOAD PUSH3 0x461BCD PUSH1 0xE5 SHL DUP2 MSTORE PUSH1 0x20 PUSH1 0x4 DUP3 ADD MSTORE PUSH1 0x23 PUSH1 0x24 DUP3 ADD MSTORE PUSH32 0x45524332303A207472616E7366657220746F20746865207A65726F2061646472 PUSH1 0x44 DUP3 ADD MSTORE PUSH3 0x657373 PUSH1 0xE8 SHL PUSH1 0x64 DUP3 ADD MSTORE PUSH1 0x84 ADD PUSH2 0x340 JUMP JUMPDEST PUSH1 0x1 PUSH1 0x1 PUSH1 0xA0 SHL SUB DUP4 AND PUSH1 0x0 SWAP1 DUP2 MSTORE PUSH1 0x33 PUSH1 0x20 MSTORE PUSH1 0x40 SWAP1 KECCAK256 SLOAD DUP2 DUP2 LT ISZERO PUSH2 0x7C8 JUMPI PUSH1 0x40 MLOAD PUSH3 0x461BCD PUSH1 0xE5 SHL DUP2 MSTORE PUSH1 0x20 PUSH1 0x4 DUP3 ADD MSTORE PUSH1 0x26 PUSH1 0x24 DUP3 ADD MSTORE PUSH32 0x45524332303A207472616E7366657220616D6F756E7420657863656564732062 PUSH1 0x44 DUP3 ADD MSTORE PUSH6 0x616C616E6365 PUSH1 0xD0 SHL PUSH1 0x64 DUP3 ADD MSTORE PUSH1 0x84 ADD PUSH2 0x340 JUMP JUMPDEST PUSH1 0x1 PUSH1 0x1 PUSH1 0xA0 SHL SUB DUP1 DUP6 AND PUSH1 0x0 DUP2 DUP2 MSTORE PUSH1 0x33 PUSH1 0x20 MSTORE PUSH1 0x40 DUP1 DUP3 KECCAK256 DUP7 DUP7 SUB SWAP1 SSTORE SWAP3 DUP7 AND DUP1 DUP3 MSTORE SWAP1 DUP4 SWAP1 KECCAK256 DUP1 SLOAD DUP7 ADD SWAP1 SSTORE SWAP2 MLOAD PUSH32 0xDDF252AD1BE2C89B69C2B068FC378DAA952BA7F163C4A11628F55A4DF523B3EF SWAP1 PUSH2 0x828 SWAP1 DUP7 DUP2 MSTORE PUSH1 0x20 ADD SWAP1 JUMP JUMPDEST PUSH1 0x40 MLOAD DUP1 SWAP2 SUB SWAP1 LOG3 PUSH2 0x684 JUMP JUMPDEST PUSH1 0x0 SLOAD PUSH2 0x100 SWAP1 DIV PUSH1 0xFF AND PUSH2 0x85C JUMPI PUSH1 0x40 MLOAD PUSH3 0x461BCD PUSH1 0xE5 SHL DUP2 MSTORE PUSH1 0x4 ADD PUSH2 0x340 SWAP1 PUSH2 0xC16 JUMP JUMPDEST PUSH2 0x866 DUP3 DUP3 PUSH2 0x930 JUMP JUMPDEST POP POP JUMP JUMPDEST PUSH1 0x1 PUSH1 0x1 PUSH1 0xA0 SHL SUB DUP3 AND PUSH2 0x8C0 JUMPI PUSH1 0x40 MLOAD PUSH3 0x461BCD PUSH1 0xE5 SHL DUP2 MSTORE PUSH1 0x20 PUSH1 0x4 DUP3 ADD MSTORE PUSH1 0x1F PUSH1 0x24 DUP3 ADD MSTORE PUSH32 0x45524332303A206D696E7420746F20746865207A65726F206164647265737300 PUSH1 0x44 DUP3 ADD MSTORE PUSH1 0x64 ADD PUSH2 0x340 JUMP JUMPDEST DUP1 PUSH1 0x35 PUSH1 0x0 DUP3 DUP3 SLOAD PUSH2 0x8D2 SWAP2 SWAP1 PUSH2 0xAEC JUMP JUMPDEST SWAP1 SWAP2 SSTORE POP POP PUSH1 0x1 PUSH1 0x1 PUSH1 0xA0 SHL SUB DUP3 AND PUSH1 0x0 DUP2 DUP2 MSTORE PUSH1 0x33 PUSH1 0x20 SWAP1 DUP2 MSTORE PUSH1 0x40 DUP1 DUP4 KECCAK256 DUP1 SLOAD DUP7 ADD SWAP1 SSTORE MLOAD DUP5 DUP2 MSTORE PUSH32 0xDDF252AD1BE2C89B69C2B068FC378DAA952BA7F163C4A11628F55A4DF523B3EF SWAP2 ADD PUSH1 0x40 MLOAD DUP1 SWAP2 SUB SWAP1 LOG3 POP POP JUMP JUMPDEST POP POP POP JUMP JUMPDEST PUSH1 0x0 SLOAD PUSH2 0x100 SWAP1 DIV PUSH1 0xFF AND PUSH2 0x957 JUMPI PUSH1 0x40 MLOAD PUSH3 0x461BCD PUSH1 0xE5 SHL DUP2 MSTORE PUSH1 0x4 ADD PUSH2 0x340 SWAP1 PUSH2 0xC16 JUMP JUMPDEST PUSH1 0x36 PUSH2 0x963 DUP4 DUP3 PUSH2 0xCC5 JUMP JUMPDEST POP PUSH1 0x37 PUSH2 0x92B DUP3 DUP3 PUSH2 0xCC5 JUMP JUMPDEST PUSH1 0x0 PUSH1 0x20 DUP1 DUP4 MSTORE DUP4 MLOAD DUP1 DUP3 DUP6 ADD MSTORE PUSH1 0x0 JUMPDEST DUP2 DUP2 LT ISZERO PUSH2 0x99D JUMPI DUP6 DUP2 ADD DUP4 ADD MLOAD DUP6 DUP3 ADD PUSH1 0x40 ADD MSTORE DUP3 ADD PUSH2 0x981 JUMP JUMPDEST DUP2 DUP2 GT ISZERO PUSH2 0x9AF JUMPI PUSH1 0x0 PUSH1 0x40 DUP4 DUP8 ADD ADD MSTORE JUMPDEST POP PUSH1 0x1F ADD PUSH1 0x1F NOT AND SWAP3 SWAP1 SWAP3 ADD PUSH1 0x40 ADD SWAP4 SWAP3 POP POP POP JUMP JUMPDEST DUP1 CALLDATALOAD PUSH1 0x1 PUSH1 0x1 PUSH1 0xA0 SHL SUB DUP2 AND DUP2 EQ PUSH2 0x9DC JUMPI PUSH1 0x0 DUP1 REVERT JUMPDEST SWAP2 SWAP1 POP JUMP JUMPDEST PUSH1 0x0 DUP1 PUSH1 0x40 DUP4 DUP6 SUB SLT ISZERO PUSH2 0x9F4 JUMPI PUSH1 0x0 DUP1 REVERT JUMPDEST PUSH2 0x9FD DUP4 PUSH2 0x9C5 JUMP JUMPDEST SWAP5 PUSH1 0x20 SWAP4 SWAP1 SWAP4 ADD CALLDATALOAD SWAP4 POP POP POP JUMP JUMPDEST PUSH1 0x0 DUP1 PUSH1 0x0 PUSH1 0x60 DUP5 DUP7 SUB SLT ISZERO PUSH2 0xA20 JUMPI PUSH1 0x0 DUP1 REVERT JUMPDEST PUSH2 0xA29 DUP5 PUSH2 0x9C5 JUMP JUMPDEST SWAP3 POP PUSH2 0xA37 PUSH1 0x20 DUP6 ADD PUSH2 0x9C5 JUMP JUMPDEST SWAP2 POP PUSH1 0x40 DUP5 ADD CALLDATALOAD SWAP1 POP SWAP3 POP SWAP3 POP SWAP3 JUMP JUMPDEST PUSH1 0x0 PUSH1 0x20 DUP3 DUP5 SUB SLT ISZERO PUSH2 0xA59 JUMPI PUSH1 0x0 DUP1 REVERT JUMPDEST PUSH2 0xA62 DUP3 PUSH2 0x9C5 JUMP JUMPDEST SWAP4 SWAP3 POP POP POP JUMP JUMPDEST PUSH1 0x0 DUP1 PUSH1 0x40 DUP4 DUP6 SUB SLT ISZERO PUSH2 0xA7C JUMPI PUSH1 0x0 DUP1 REVERT JUMPDEST PUSH2 0xA85 DUP4 PUSH2 0x9C5 JUMP JUMPDEST SWAP2 POP PUSH2 0xA93 PUSH1 0x20 DUP5 ADD PUSH2 0x9C5 JUMP JUMPDEST SWAP1 POP SWAP3 POP SWAP3 SWAP1 POP JUMP JUMPDEST PUSH1 0x1 DUP2 DUP2 SHR SWAP1 DUP3 AND DUP1 PUSH2 0xAB0 JUMPI PUSH1 0x7F DUP3 AND SWAP2 POP JUMPDEST PUSH1 0x20 DUP3 LT DUP2 SUB PUSH2 0xAD0 JUMPI PUSH4 0x4E487B71 PUSH1 0xE0 SHL PUSH1 0x0 MSTORE PUSH1 0x22 PUSH1 0x4 MSTORE PUSH1 0x24 PUSH1 0x0 REVERT JUMPDEST POP SWAP2 SWAP1 POP JUMP JUMPDEST PUSH4 0x4E487B71 PUSH1 0xE0 SHL PUSH1 0x0 MSTORE PUSH1 0x11 PUSH1 0x4 MSTORE PUSH1 0x24 PUSH1 0x0 REVERT JUMPDEST PUSH1 0x0 DUP3 NOT DUP3 GT ISZERO PUSH2 0xAFF JUMPI PUSH2 0xAFF PUSH2 0xAD6 JUMP JUMPDEST POP ADD SWAP1 JUMP JUMPDEST PUSH1 0x1 DUP2 DUP2 JUMPDEST DUP1 DUP6 GT ISZERO PUSH2 0xB3F JUMPI DUP2 PUSH1 0x0 NOT DIV DUP3 GT ISZERO PUSH2 0xB25 JUMPI PUSH2 0xB25 PUSH2 0xAD6 JUMP JUMPDEST DUP1 DUP6 AND ISZERO PUSH2 0xB32 JUMPI SWAP2 DUP2 MUL SWAP2 JUMPDEST SWAP4 DUP5 SHR SWAP4 SWAP1 DUP1 MUL SWAP1 PUSH2 0xB09 JUMP JUMPDEST POP SWAP3 POP SWAP3 SWAP1 POP JUMP JUMPDEST PUSH1 0x0 DUP3 PUSH2 0xB56 JUMPI POP PUSH1 0x1 PUSH2 0x25B JUMP JUMPDEST DUP2 PUSH2 0xB63 JUMPI POP PUSH1 0x0 PUSH2 0x25B JUMP JUMPDEST DUP2 PUSH1 0x1 DUP2 EQ PUSH2 0xB79 JUMPI PUSH1 0x2 DUP2 EQ PUSH2 0xB83 JUMPI PUSH2 0xB9F JUMP JUMPDEST PUSH1 0x1 SWAP2 POP POP PUSH2 0x25B JUMP JUMPDEST PUSH1 0xFF DUP5 GT ISZERO PUSH2 0xB94 JUMPI PUSH2 0xB94 PUSH2 0xAD6 JUMP JUMPDEST POP POP PUSH1 0x1 DUP3 SHL PUSH2 0x25B JUMP JUMPDEST POP PUSH1 0x20 DUP4 LT PUSH2 0x133 DUP4 LT AND PUSH1 0x4E DUP5 LT PUSH1 0xB DUP5 LT AND OR ISZERO PUSH2 0xBC2 JUMPI POP DUP2 DUP2 EXP PUSH2 0x25B JUMP JUMPDEST PUSH2 0xBCC DUP4 DUP4 PUSH2 0xB04 JUMP JUMPDEST DUP1 PUSH1 0x0 NOT DIV DUP3 GT ISZERO PUSH2 0xBE0 JUMPI PUSH2 0xBE0 PUSH2 0xAD6 JUMP JUMPDEST MUL SWAP4 SWAP3 POP POP POP JUMP JUMPDEST PUSH1 0x0 PUSH2 0xA62 PUSH1 0xFF DUP5 AND DUP4 PUSH2 0xB47 JUMP JUMPDEST PUSH1 0x0 DUP2 PUSH1 0x0 NOT DIV DUP4 GT DUP3 ISZERO ISZERO AND ISZERO PUSH2 0xC11 JUMPI PUSH2 0xC11 PUSH2 0xAD6 JUMP JUMPDEST POP MUL SWAP1 JUMP JUMPDEST PUSH1 0x20 DUP1 DUP3 MSTORE PUSH1 0x2B SWAP1 DUP3 ADD MSTORE PUSH32 0x496E697469616C697A61626C653A20636F6E7472616374206973206E6F742069 PUSH1 0x40 DUP3 ADD MSTORE PUSH11 0x6E697469616C697A696E67 PUSH1 0xA8 SHL PUSH1 0x60 DUP3 ADD MSTORE PUSH1 0x80 ADD SWAP1 JUMP JUMPDEST PUSH4 0x4E487B71 PUSH1 0xE0 SHL PUSH1 0x0 MSTORE PUSH1 0x41 PUSH1 0x4 MSTORE PUSH1 0x24 PUSH1 0x0 REVERT JUMPDEST PUSH1 0x1F DUP3 GT ISZERO PUSH2 0x92B JUMPI PUSH1 0x0 DUP2 DUP2 MSTORE PUSH1 0x20 DUP2 KECCAK256 PUSH1 0x1F DUP6 ADD PUSH1 0x5 SHR DUP2 ADD PUSH1 0x20 DUP7 LT ISZERO PUSH2 0xC9E JUMPI POP DUP1 JUMPDEST PUSH1 0x1F DUP6 ADD PUSH1 0x5 SHR DUP3 ADD SWAP2 POP JUMPDEST DUP2 DUP2 LT ISZERO PUSH2 0xCBD JUMPI DUP3 DUP2 SSTORE PUSH1 0x1 ADD PUSH2 0xCAA JUMP JUMPDEST POP POP POP POP POP POP JUMP JUMPDEST DUP2 MLOAD PUSH8 0xFFFFFFFFFFFFFFFF DUP2 GT ISZERO PUSH2 0xCDF JUMPI PUSH2 0xCDF PUSH2 0xC61 JUMP JUMPDEST PUSH2 0xCF3 DUP2 PUSH2 0xCED DUP5 SLOAD PUSH2 0xA9C JUMP JUMPDEST DUP5 PUSH2 0xC77 JUMP JUMPDEST PUSH1 0x20 DUP1 PUSH1 0x1F DUP4 GT PUSH1 0x1 DUP2 EQ PUSH2 0xD28 JUMPI PUSH1 0x0 DUP5 ISZERO PUSH2 0xD10 JUMPI POP DUP6 DUP4 ADD MLOAD JUMPDEST PUSH1 0x0 NOT PUSH1 0x3 DUP7 SWAP1 SHL SHR NOT AND PUSH1 0x1 DUP6 SWAP1 SHL OR DUP6 SSTORE PUSH2 0xCBD JUMP JUMPDEST PUSH1 0x0 DUP6 DUP2 MSTORE PUSH1 0x20 DUP2 KECCAK256 PUSH1 0x1F NOT DUP7 AND SWAP2 JUMPDEST DUP3 DUP2 LT ISZERO PUSH2 0xD57 JUMPI DUP9 DUP7 ADD MLOAD DUP3 SSTORE SWAP5 DUP5 ADD SWAP5 PUSH1 0x1 SWAP1 SWAP2 ADD SWAP1 DUP5 ADD PUSH2 0xD38 JUMP JUMPDEST POP DUP6 DUP3 LT ISZERO PUSH2 0xD75 JUMPI DUP8 DUP6 ADD MLOAD PUSH1 0x0 NOT PUSH1 0x3 DUP9 SWAP1 SHL PUSH1 0xF8 AND SHR NOT AND DUP2 SSTORE JUMPDEST POP POP POP POP POP PUSH1 0x1 SWAP1 DUP2 SHL ADD SWAP1 SSTORE POP JUMP INVALID LOG2 PUSH5 0x6970667358 0x22 SLT KECCAK256 SWAP13 0xAC 0x22 0xC9 DIFFICULTY 0xE2 0xEC SWAP14 0xE7 0xB9 0x2F GT EXTCODEHASH PUSH30 0x69C63985DAC3D1558E90BFDB448A28355E7664736F6C634300080F003300 "
				},
				"gasEstimates": {
					"creation": {
						"codeDepositCost": "703000",
						"executionCost": "infinite",
						"totalCost": "infinite"
					},
					"external": {
						"allowance(address,address)": "infinite",
						"approve(address,uint256)": "24628",
						"balanceOf(address)": "2537",
						"decimals()": "266",
						"decreaseAllowance(address,uint256)": "27016",
						"increaseAllowance(address,uint256)": "27093",
						"initialize()": "infinite",
						"name()": "infinite",
						"symbol()": "infinite",
						"totalSupply()": "2326",
						"transfer(address,uint256)": "51147",
						"transferFrom(address,address,uint256)": "infinite"
					}
				},
				"methodIdentifiers": {
					"allowance(address,address)": "dd62ed3e",
					"approve(address,uint256)": "095ea7b3",
					"balanceOf(address)": "70a08231",
					"decimals()": "313ce567",
					"decreaseAllowance(address,uint256)": "a457c2d7",
					"increaseAllowance(address,uint256)": "39509351",
					"initialize()": "8129fc1c",
					"name()": "06fdde03",
					"symbol()": "95d89b41",
					"totalSupply()": "18160ddd",
					"transfer(address,uint256)": "a9059cbb",
					"transferFrom(address,address,uint256)": "23b872dd"
				}
			},
			"storageLayout": {
				"storage": [
					{
						"astId": 138,
						"contract": "upgradeable/ERC20Updateable.sol:MyTokenV1",
						"label": "_initialized",
						"offset": 0,
						"slot": "0",
						"type": "t_uint8"
					},
					{
						"astId": 141,
						"contract": "upgradeable/ERC20Updateable.sol:MyTokenV1",
						"label": "_initializing",
						"offset": 1,
						"slot": "0",
						"type": "t_bool"
					},
					{
						"astId": 1322,
						"contract": "upgradeable/ERC20Updateable.sol:MyTokenV1",
						"label": "__gap",
						"offset": 0,
						"slot": "1",
						"type": "t_array(t_uint256)50_storage"
					},
					{
						"astId": 301,
						"contract": "upgradeable/ERC20Updateable.sol:MyTokenV1",
						"label": "_balances",
						"offset": 0,
						"slot": "51",
						"type": "t_mapping(t_address,t_uint256)"
					},
					{
						"astId": 307,
						"contract": "upgradeable/ERC20Updateable.sol:MyTokenV1",
						"label": "_allowances",
						"offset": 0,
						"slot": "52",
						"type": "t_mapping(t_address,t_mapping(t_address,t_uint256))"
					},
					{
						"astId": 309,
						"contract": "upgradeable/ERC20Updateable.sol:MyTokenV1",
						"label": "_totalSupply",
						"offset": 0,
						"slot": "53",
						"type": "t_uint256"
					},
					{
						"astId": 311,
						"contract": "upgradeable/ERC20Updateable.sol:MyTokenV1",
						"label": "_name",
						"offset": 0,
						"slot": "54",
						"type": "t_string_storage"
					},
					{
						"astId": 313,
						"contract": "upgradeable/ERC20Updateable.sol:MyTokenV1",
						"label": "_symbol",
						"offset": 0,
						"slot": "55",
						"type": "t_string_storage"
					},
					{
						"astId": 893,
						"contract": "upgradeable/ERC20Updateable.sol:MyTokenV1",
						"label": "__gap",
						"offset": 0,
						"slot": "56",
						"type": "t_array(t_uint256)45_storage"
					}
				],
				"types": {
					"t_address": {
						"encoding": "inplace",
						"label": "address",
						"numberOfBytes": "20"
					},
					"t_array(t_uint256)45_storage": {
						"base": "t_uint256",
						"encoding": "inplace",
						"label": "uint256[45]",
						"numberOfBytes": "1440"
					},
					"t_array(t_uint256)50_storage": {
						"base": "t_uint256",
						"encoding": "inplace",
						"label": "uint256[50]",
						"numberOfBytes": "1600"
					},
					"t_bool": {
						"encoding": "inplace",
						"label": "bool",
						"numberOfBytes": "1"
					},
					"t_mapping(t_address,t_mapping(t_address,t_uint256))": {
						"encoding": "mapping",
						"key": "t_address",
						"label": "mapping(address => mapping(address => uint256))",
						"numberOfBytes": "32",
						"value": "t_mapping(t_address,t_uint256)"
					},
					"t_mapping(t_address,t_uint256)": {
						"encoding": "mapping",
						"key": "t_address",
						"label": "mapping(address => uint256)",
						"numberOfBytes": "32",
						"value": "t_uint256"
					},
					"t_string_storage": {
						"encoding": "bytes",
						"label": "string",
						"numberOfBytes": "32"
					},
					"t_uint256": {
						"encoding": "inplace",
						"label": "uint256",
						"numberOfBytes": "32"
					},
					"t_uint8": {
						"encoding": "inplace",
						"label": "uint8",
						"numberOfBytes": "1"
					}
				}
			},
			"userdoc": {
				"kind": "user",
				"methods": {},
				"version": 1
			}
		}
	}
}