{
	"data": {
		"bytecode": {
			"linkReferences": {},
			"object": "60e0604052600180546001600160a01b0319908116737ef95a0fee0dd31b22626fa2e10ee6a223f8a68417909155600280548216738babbb98678facc7342735486c851abd7a0d17ca1790556003805482167335f7e1bdb53ceff51cb2095068dcd9675e27aead179055600480548216733caa5abc857473f8a31b619f0f7fe7bfbde3581617905560058054909116739ac64cc6e4415144c455bd8e4837fea55603e5c3179055670de0b6b3a7640000600655610258600955674563918244f40000600a55678ac7230489e80000600b55600c8054690400000000000000000063ffffffff60401b199091161790553480156100fa57600080fd5b506040516117b23803806117b28339810160408190526101199161022a565b610122336101da565b428210156101685760405162461bcd60e51b815260206004820152600e60248201526d7374617274206174203c206e6f7760901b60448201526064015b60405180910390fd5b818110156101ac5760405162461bcd60e51b8152602060048201526011602482015270195b9908185d080f081cdd185c9d08185d607a1b604482015260640161015f565b6007919091556008556001546001600160a01b03908116608052600254811660a0526003541660c05261024e565b600080546001600160a01b038381166001600160a01b0319831681178455604051919092169283917f8be0079c531659141344cd1fd0a4f28419497f9722a3daafe3b4186f6b6457e09190a35050565b6000806040838503121561023d57600080fd5b505080516020909101519092909150565b60805160a05160c0516115126102a0600039600081816103c601526109130152600081816104fe01528181610c8d0152610e6a01526000818161040801528181610bb70152610d8301526115126000f3fe608060405234801561001057600080fd5b50600436106102065760003560e01c80639769f0b01161011a578063d0febe4c116100ad578063f01fc57c1161007c578063f01fc57c146104a8578063f2fde38b146104b6578063fae92612146104c9578063faffbc5b146104dc578063fe05cc9c146104f957600080fd5b8063d0febe4c14610460578063d1d04e1f14610468578063d4cfbbca1461048d578063db2e21bc146104a057600080fd5b8063af94862c116100e9578063af94862c1461042a578063c493b6e51461043d578063c828371e14610450578063c9ede7931461045857600080fd5b80639769f0b0146103c15780639e5288a0146103e8578063a4c3b091146103f0578063a98ad46c1461040357600080fd5b80634c8b16f41161019d5780638568f4ce1161016c5780638568f4ce1461034157806388af60c61461036a5780638da5cb5b1461037d57806390f5881a1461038e57806395623641146103ae57600080fd5b80634c8b16f4146103165780636a5ff66f14610329578063715018a61461033157806378eb6c6f1461033957600080fd5b8063374eedef116101d9578063374eedef1461029c5780633817c9c1146102d85780633d719da7146102eb578063439f5ac21461030e57600080fd5b8063027734fa1461020b57806303d7424d1461023b57806304be093f14610266578063224a7c6a14610287575b600080fd5b60035461021e906001600160a01b031681565b6040516001600160a01b0390911681526020015b60405180910390f35b600c54640100000000900463ffffffff165b60405167ffffffffffffffff9091168152602001610232565b610279610274366004611208565b610520565b604051908152602001610232565b61029a610295366004611208565b610644565b005b6102c86102aa36600461123d565b6001600160a01b03166000908152600e602052604090205460ff1690565b6040519015158152602001610232565b6102796102e6366004611208565b61067c565b6102c86102f936600461123d565b600e6020526000908152604090205460ff1681565b600854610279565b61029a610324366004611208565b6106f2565b600b54610279565b61029a610721565b600654610279565b61027961034f36600461123d565b6001600160a01b03166000908152600d602052604090205490565b60015461021e906001600160a01b031681565b6000546001600160a01b031661021e565b61027961039c36600461123d565b600d6020526000908152604090205481565b60045461021e906001600160a01b031681565b61021e7f000000000000000000000000000000000000000000000000000000000000000081565b610279610757565b61029a6103fe366004611258565b610784565b61021e7f000000000000000000000000000000000000000000000000000000000000000081565b61029a610438366004611208565b610824565b60055461021e906001600160a01b031681565b600754610279565b61029a610853565b61029a610a55565b600c54600160401b900463ffffffff1660405163ffffffff9091168152602001610232565b60025461021e906001600160a01b031681565b61029a610fcb565b600c5463ffffffff1661024d565b61029a6104c436600461123d565b611032565b61029a6104d736600461123d565b6110ca565b6104e4611116565b60408051928352602083019190915201610232565b61021e7f000000000000000000000000000000000000000000000000000000000000000081565b60408051600280825260608201835260009283929190602083019080368337505060025482519293506001600160a01b03169183915060009061056557610565611298565b6001600160a01b039283166020918202929092010152600180548351921691839190811061059557610595611298565b6001600160a01b03928316602091820292909201015260055460405163d06ca61f60e01b8152600092919091169063d06ca61f906105d990879086906004016112ae565b600060405180830381865afa1580156105f6573d6000803e3d6000fd5b505050506040513d6000823e601f3d908101601f1916820160405261061e9190810190611305565b90508060018151811061063357610633611298565b602002602001015192505050919050565b6000546001600160a01b031633146106775760405162461bcd60e51b815260040161066e906113c3565b60405180910390fd5b600b55565b60408051600280825260608201835260009283929190602083019080368337505060015482519293506001600160a01b0316918391506000906106c1576106c1611298565b6001600160a01b03928316602091820292909201015260025482519116908290600190811061059557610595611298565b6000546001600160a01b0316331461071c5760405162461bcd60e51b815260040161066e906113c3565b600955565b6000546001600160a01b0316331461074b5760405162461bcd60e51b815260040161066e906113c3565b6107556000611181565b565b60008042905061077e600954610778600754846111d190919063ffffffff16565b906111e4565b91505090565b6000546001600160a01b031633146107ae5760405162461bcd60e51b815260040161066e906113c3565b60405163a9059cbb60e01b8152336004820152602481018290526001600160a01b0383169063a9059cbb906044016020604051808303816000875af11580156107fb573d6000803e3d6000fd5b505050506040513d601f19601f8201168201806040525081019061081f91906113f8565b505050565b6000546001600160a01b0316331461084e5760405162461bcd60e51b815260040161066e906113c3565b600a55565b42600854106108965760405162461bcd60e51b815260206004820152600f60248201526e1c1c995cd95b1b081b9bdd08195b99608a1b604482015260640161066e565b336000908152600d60205260409020546108e65760405162461bcd60e51b8152602060048201526011602482015270757365722062616c616e6365207a65726f60781b604482015260640161066e565b336000818152600d602052604080822054905163a9059cbb60e01b815260048101939093526024830152907f00000000000000000000000000000000000000000000000000000000000000006001600160a01b03169063a9059cbb906044016020604051808303816000875af1158015610964573d6000803e3d6000fd5b505050506040513d601f19601f8201168201806040525081019061098891906113f8565b9050806109cf5760405162461bcd60e51b8152602060048201526015602482015274151bdad95b881d1c985b9cd9995c8819985a5b1959605a1b604482015260640161066e565b336000908152600d6020526040812055600c8054640100000000900463ffffffff169060046109fd83611430565b91906101000a81548163ffffffff021916908363ffffffff16021790555050336001600160a01b03167ff67611512e0a2d90c96fd3f08dca4971bc45fba9dc679eabe839a32abbe58a8e60405160405180910390a250565b4260075410610a925760405162461bcd60e51b81526020600482015260096024820152681b9bdd081cdd185c9d60ba1b604482015260640161066e565b4260085411610acd5760405162461bcd60e51b81526020600482015260076024820152661a185cc8195b9960ca1b604482015260640161066e565b600c5463ffffffff600160401b8204811691161115610b2e5760405162461bcd60e51b815260206004820152601760248201527f5072652d6f72646572732061726520736f6c64206f7574000000000000000000604482015260640161066e565b336000908152600e602052604090205460ff1615610b825760405162461bcd60e51b8152602060048201526011602482015270185b1c9958591e481c1d5c98da185cd959607a1b604482015260640161066e565b600080610b8d611116565b604051636eb1769f60e11b8152336004820152306024820152919350915081906001600160a01b037f0000000000000000000000000000000000000000000000000000000000000000169063dd62ed3e90604401602060405180830381865afa158015610bfe573d6000803e3d6000fd5b505050506040513d601f19601f82011682018060405250810190610c229190611453565b1015610c705760405162461bcd60e51b815260206004820152601b60248201527f75736474546f6b656e20616c6c6f77616e636520746f6f206c6f770000000000604482015260640161066e565b604051636eb1769f60e11b815233600482015230602482015282907f00000000000000000000000000000000000000000000000000000000000000006001600160a01b03169063dd62ed3e90604401602060405180830381865afa158015610cdc573d6000803e3d6000fd5b505050506040513d601f19601f82011682018060405250810190610d009190611453565b1015610d4e5760405162461bcd60e51b815260206004820152601a60248201527f6d7363546f6b656e20616c6c6f77616e636520746f6f206c6f77000000000000604482015260640161066e565b600480546040516323b872dd60e01b815233928101929092526001600160a01b039081166024830152604482018390526000917f0000000000000000000000000000000000000000000000000000000000000000909116906323b872dd906064016020604051808303816000875af1158015610dce573d6000803e3d6000fd5b505050506040513d601f19601f82011682018060405250810190610df291906113f8565b905080610e385760405162461bcd60e51b8152602060048201526014602482015273155cd91d081d1c985b9cd9995c8819985a5b195960621b604482015260640161066e565b600480546040516323b872dd60e01b815233928101929092526001600160a01b039081166024830152604482018590527f000000000000000000000000000000000000000000000000000000000000000016906323b872dd906064016020604051808303816000875af1158015610eb3573d6000803e3d6000fd5b505050506040513d601f19601f82011682018060405250810190610ed791906113f8565b905080610f1c5760405162461bcd60e51b8152602060048201526013602482015272135cd8c81d1c985b9cd9995c8819985a5b1959606a1b604482015260640161066e565b600654336000908152600d6020908152604080832093909355600e9052908120805460ff19166001179055600c805463ffffffff1691610f5b83611430565b91906101000a81548163ffffffff021916908363ffffffff16021790555050336001600160a01b03167f936801119fce055a11a9ae8106c09cd34006a6c3d16bf925c2d8af5c234e7d2b8484604051610fbe929190918252602082015260400190565b60405180910390a2505050565b6000546001600160a01b03163314610ff55760405162461bcd60e51b815260040161066e906113c3565b600080546040516001600160a01b03909116914780156108fc02929091818181858888f1935050505015801561102f573d6000803e3d6000fd5b50565b6000546001600160a01b0316331461105c5760405162461bcd60e51b815260040161066e906113c3565b6001600160a01b0381166110c15760405162461bcd60e51b815260206004820152602660248201527f4f776e61626c653a206e6577206f776e657220697320746865207a65726f206160448201526564647265737360d01b606482015260840161066e565b61102f81611181565b6000546001600160a01b031633146110f45760405162461bcd60e51b815260040161066e906113c3565b600480546001600160a01b0319166001600160a01b0392909216919091179055565b6000806000611123610757565b90506000611148600a5461114284600b546111f090919063ffffffff16565b906111fc565b9050600061115c60646107788460506111fc565b9050600061116a83836111d1565b90506111758161067c565b96919550909350505050565b600080546001600160a01b038381166001600160a01b0319831681178455604051919092169283917f8be0079c531659141344cd1fd0a4f28419497f9722a3daafe3b4186f6b6457e09190a35050565b60006111dd828461146c565b9392505050565b60006111dd8284611483565b60006111dd82846114a5565b60006111dd82846114bd565b60006020828403121561121a57600080fd5b5035919050565b80356001600160a01b038116811461123857600080fd5b919050565b60006020828403121561124f57600080fd5b6111dd82611221565b6000806040838503121561126b57600080fd5b61127483611221565b946020939093013593505050565b634e487b7160e01b600052604160045260246000fd5b634e487b7160e01b600052603260045260246000fd5b6000604082018483526020604081850152818551808452606086019150828701935060005b818110156112f85784516001600160a01b0316835293830193918301916001016112d3565b5090979650505050505050565b6000602080838503121561131857600080fd5b825167ffffffffffffffff8082111561133057600080fd5b818501915085601f83011261134457600080fd5b81518181111561135657611356611282565b8060051b604051601f19603f8301168101818110858211171561137b5761137b611282565b60405291825284820192508381018501918883111561139957600080fd5b938501935b828510156113b75784518452938501939285019261139e565b98975050505050505050565b6020808252818101527f4f776e61626c653a2063616c6c6572206973206e6f7420746865206f776e6572604082015260600190565b60006020828403121561140a57600080fd5b815180151581146111dd57600080fd5b634e487b7160e01b600052601160045260246000fd5b600063ffffffff8083168181036114495761144961141a565b6001019392505050565b60006020828403121561146557600080fd5b5051919050565b60008282101561147e5761147e61141a565b500390565b6000826114a057634e487b7160e01b600052601260045260246000fd5b500490565b600082198211156114b8576114b861141a565b500190565b60008160001904831182151516156114d7576114d761141a565b50029056fea2646970667358221220db76080eadfe1bc895af0521c504282b3c30fc2d3c5555e6dff8392043b9c80a64736f6c634300080f0033",
			"opcodes": "PUSH1 0xE0 PUSH1 0x40 MSTORE PUSH1 0x1 DUP1 SLOAD PUSH1 0x1 PUSH1 0x1 PUSH1 0xA0 SHL SUB NOT SWAP1 DUP2 AND PUSH20 0x7EF95A0FEE0DD31B22626FA2E10EE6A223F8A684 OR SWAP1 SWAP2 SSTORE PUSH1 0x2 DUP1 SLOAD DUP3 AND PUSH20 0x8BABBB98678FACC7342735486C851ABD7A0D17CA OR SWAP1 SSTORE PUSH1 0x3 DUP1 SLOAD DUP3 AND PUSH20 0x35F7E1BDB53CEFF51CB2095068DCD9675E27AEAD OR SWAP1 SSTORE PUSH1 0x4 DUP1 SLOAD DUP3 AND PUSH20 0x3CAA5ABC857473F8A31B619F0F7FE7BFBDE35816 OR SWAP1 SSTORE PUSH1 0x5 DUP1 SLOAD SWAP1 SWAP2 AND PUSH20 0x9AC64CC6E4415144C455BD8E4837FEA55603E5C3 OR SWAP1 SSTORE PUSH8 0xDE0B6B3A7640000 PUSH1 0x6 SSTORE PUSH2 0x258 PUSH1 0x9 SSTORE PUSH8 0x4563918244F40000 PUSH1 0xA SSTORE PUSH8 0x8AC7230489E80000 PUSH1 0xB SSTORE PUSH1 0xC DUP1 SLOAD PUSH10 0x4000000000000000000 PUSH4 0xFFFFFFFF PUSH1 0x40 SHL NOT SWAP1 SWAP2 AND OR SWAP1 SSTORE CALLVALUE DUP1 ISZERO PUSH2 0xFA JUMPI PUSH1 0x0 DUP1 REVERT JUMPDEST POP PUSH1 0x40 MLOAD PUSH2 0x17B2 CODESIZE SUB DUP1 PUSH2 0x17B2 DUP4 CODECOPY DUP2 ADD PUSH1 0x40 DUP2 SWAP1 MSTORE PUSH2 0x119 SWAP2 PUSH2 0x22A JUMP JUMPDEST PUSH2 0x122 CALLER PUSH2 0x1DA JUMP JUMPDEST TIMESTAMP DUP3 LT ISZERO PUSH2 0x168 JUMPI PUSH1 0x40 MLOAD PUSH3 0x461BCD PUSH1 0xE5 SHL DUP2 MSTORE PUSH1 0x20 PUSH1 0x4 DUP3 ADD MSTORE PUSH1 0xE PUSH1 0x24 DUP3 ADD MSTORE PUSH14 0x7374617274206174203C206E6F77 PUSH1 0x90 SHL PUSH1 0x44 DUP3 ADD MSTORE PUSH1 0x64 ADD JUMPDEST PUSH1 0x40 MLOAD DUP1 SWAP2 SUB SWAP1 REVERT JUMPDEST DUP2 DUP2 LT ISZERO PUSH2 0x1AC JUMPI PUSH1 0x40 MLOAD PUSH3 0x461BCD PUSH1 0xE5 SHL DUP2 MSTORE PUSH1 0x20 PUSH1 0x4 DUP3 ADD MSTORE PUSH1 0x11 PUSH1 0x24 DUP3 ADD MSTORE PUSH17 0x195B9908185D080F081CDD185C9D08185D PUSH1 0x7A SHL PUSH1 0x44 DUP3 ADD MSTORE PUSH1 0x64 ADD PUSH2 0x15F JUMP JUMPDEST PUSH1 0x7 SWAP2 SWAP1 SWAP2 SSTORE PUSH1 0x8 SSTORE PUSH1 0x1 SLOAD PUSH1 0x1 PUSH1 0x1 PUSH1 0xA0 SHL SUB SWAP1 DUP2 AND PUSH1 0x80 MSTORE PUSH1 0x2 SLOAD DUP2 AND PUSH1 0xA0 MSTORE PUSH1 0x3 SLOAD AND PUSH1 0xC0 MSTORE PUSH2 0x24E JUMP JUMPDEST PUSH1 0x0 DUP1 SLOAD PUSH1 0x1 PUSH1 0x1 PUSH1 0xA0 SHL SUB DUP4 DUP2 AND PUSH1 0x1 PUSH1 0x1 PUSH1 0xA0 SHL SUB NOT DUP4 AND DUP2 OR DUP5 SSTORE PUSH1 0x40 MLOAD SWAP2 SWAP1 SWAP3 AND SWAP3 DUP4 SWAP2 PUSH32 0x8BE0079C531659141344CD1FD0A4F28419497F9722A3DAAFE3B4186F6B6457E0 SWAP2 SWAP1 LOG3 POP POP JUMP JUMPDEST PUSH1 0x0 DUP1 PUSH1 0x40 DUP4 DUP6 SUB SLT ISZERO PUSH2 0x23D JUMPI PUSH1 0x0 DUP1 REVERT JUMPDEST POP POP DUP1 MLOAD PUSH1 0x20 SWAP1 SWAP2 ADD MLOAD SWAP1 SWAP3 SWAP1 SWAP2 POP JUMP JUMPDEST PUSH1 0x80 MLOAD PUSH1 0xA0 MLOAD PUSH1 0xC0 MLOAD PUSH2 0x1512 PUSH2 0x2A0 PUSH1 0x0 CODECOPY PUSH1 0x0 DUP2 DUP2 PUSH2 0x3C6 ADD MSTORE PUSH2 0x913 ADD MSTORE PUSH1 0x0 DUP2 DUP2 PUSH2 0x4FE ADD MSTORE DUP2 DUP2 PUSH2 0xC8D ADD MSTORE PUSH2 0xE6A ADD MSTORE PUSH1 0x0 DUP2 DUP2 PUSH2 0x408 ADD MSTORE DUP2 DUP2 PUSH2 0xBB7 ADD MSTORE PUSH2 0xD83 ADD MSTORE PUSH2 0x1512 PUSH1 0x0 RETURN INVALID PUSH1 0x80 PUSH1 0x40 MSTORE CALLVALUE DUP1 ISZERO PUSH2 0x10 JUMPI PUSH1 0x0 DUP1 REVERT JUMPDEST POP PUSH1 0x4 CALLDATASIZE LT PUSH2 0x206 JUMPI PUSH1 0x0 CALLDATALOAD PUSH1 0xE0 SHR DUP1 PUSH4 0x9769F0B0 GT PUSH2 0x11A JUMPI DUP1 PUSH4 0xD0FEBE4C GT PUSH2 0xAD JUMPI DUP1 PUSH4 0xF01FC57C GT PUSH2 0x7C JUMPI DUP1 PUSH4 0xF01FC57C EQ PUSH2 0x4A8 JUMPI DUP1 PUSH4 0xF2FDE38B EQ PUSH2 0x4B6 JUMPI DUP1 PUSH4 0xFAE92612 EQ PUSH2 0x4C9 JUMPI DUP1 PUSH4 0xFAFFBC5B EQ PUSH2 0x4DC JUMPI DUP1 PUSH4 0xFE05CC9C EQ PUSH2 0x4F9 JUMPI PUSH1 0x0 DUP1 REVERT JUMPDEST DUP1 PUSH4 0xD0FEBE4C EQ PUSH2 0x460 JUMPI DUP1 PUSH4 0xD1D04E1F EQ PUSH2 0x468 JUMPI DUP1 PUSH4 0xD4CFBBCA EQ PUSH2 0x48D JUMPI DUP1 PUSH4 0xDB2E21BC EQ PUSH2 0x4A0 JUMPI PUSH1 0x0 DUP1 REVERT JUMPDEST DUP1 PUSH4 0xAF94862C GT PUSH2 0xE9 JUMPI DUP1 PUSH4 0xAF94862C EQ PUSH2 0x42A JUMPI DUP1 PUSH4 0xC493B6E5 EQ PUSH2 0x43D JUMPI DUP1 PUSH4 0xC828371E EQ PUSH2 0x450 JUMPI DUP1 PUSH4 0xC9EDE793 EQ PUSH2 0x458 JUMPI PUSH1 0x0 DUP1 REVERT JUMPDEST DUP1 PUSH4 0x9769F0B0 EQ PUSH2 0x3C1 JUMPI DUP1 PUSH4 0x9E5288A0 EQ PUSH2 0x3E8 JUMPI DUP1 PUSH4 0xA4C3B091 EQ PUSH2 0x3F0 JUMPI DUP1 PUSH4 0xA98AD46C EQ PUSH2 0x403 JUMPI PUSH1 0x0 DUP1 REVERT JUMPDEST DUP1 PUSH4 0x4C8B16F4 GT PUSH2 0x19D JUMPI DUP1 PUSH4 0x8568F4CE GT PUSH2 0x16C JUMPI DUP1 PUSH4 0x8568F4CE EQ PUSH2 0x341 JUMPI DUP1 PUSH4 0x88AF60C6 EQ PUSH2 0x36A JUMPI DUP1 PUSH4 0x8DA5CB5B EQ PUSH2 0x37D JUMPI DUP1 PUSH4 0x90F5881A EQ PUSH2 0x38E JUMPI DUP1 PUSH4 0x95623641 EQ PUSH2 0x3AE JUMPI PUSH1 0x0 DUP1 REVERT JUMPDEST DUP1 PUSH4 0x4C8B16F4 EQ PUSH2 0x316 JUMPI DUP1 PUSH4 0x6A5FF66F EQ PUSH2 0x329 JUMPI DUP1 PUSH4 0x715018A6 EQ PUSH2 0x331 JUMPI DUP1 PUSH4 0x78EB6C6F EQ PUSH2 0x339 JUMPI PUSH1 0x0 DUP1 REVERT JUMPDEST DUP1 PUSH4 0x374EEDEF GT PUSH2 0x1D9 JUMPI DUP1 PUSH4 0x374EEDEF EQ PUSH2 0x29C JUMPI DUP1 PUSH4 0x3817C9C1 EQ PUSH2 0x2D8 JUMPI DUP1 PUSH4 0x3D719DA7 EQ PUSH2 0x2EB JUMPI DUP1 PUSH4 0x439F5AC2 EQ PUSH2 0x30E JUMPI PUSH1 0x0 DUP1 REVERT JUMPDEST DUP1 PUSH4 0x27734FA EQ PUSH2 0x20B JUMPI DUP1 PUSH4 0x3D7424D EQ PUSH2 0x23B JUMPI DUP1 PUSH4 0x4BE093F EQ PUSH2 0x266 JUMPI DUP1 PUSH4 0x224A7C6A EQ PUSH2 0x287 JUMPI JUMPDEST PUSH1 0x0 DUP1 REVERT JUMPDEST PUSH1 0x3 SLOAD PUSH2 0x21E SWAP1 PUSH1 0x1 PUSH1 0x1 PUSH1 0xA0 SHL SUB AND DUP2 JUMP JUMPDEST PUSH1 0x40 MLOAD PUSH1 0x1 PUSH1 0x1 PUSH1 0xA0 SHL SUB SWAP1 SWAP2 AND DUP2 MSTORE PUSH1 0x20 ADD JUMPDEST PUSH1 0x40 MLOAD DUP1 SWAP2 SUB SWAP1 RETURN JUMPDEST PUSH1 0xC SLOAD PUSH5 0x100000000 SWAP1 DIV PUSH4 0xFFFFFFFF AND JUMPDEST PUSH1 0x40 MLOAD PUSH8 0xFFFFFFFFFFFFFFFF SWAP1 SWAP2 AND DUP2 MSTORE PUSH1 0x20 ADD PUSH2 0x232 JUMP JUMPDEST PUSH2 0x279 PUSH2 0x274 CALLDATASIZE PUSH1 0x4 PUSH2 0x1208 JUMP JUMPDEST PUSH2 0x520 JUMP JUMPDEST PUSH1 0x40 MLOAD SWAP1 DUP2 MSTORE PUSH1 0x20 ADD PUSH2 0x232 JUMP JUMPDEST PUSH2 0x29A PUSH2 0x295 CALLDATASIZE PUSH1 0x4 PUSH2 0x1208 JUMP JUMPDEST PUSH2 0x644 JUMP JUMPDEST STOP JUMPDEST PUSH2 0x2C8 PUSH2 0x2AA CALLDATASIZE PUSH1 0x4 PUSH2 0x123D JUMP JUMPDEST PUSH1 0x1 PUSH1 0x1 PUSH1 0xA0 SHL SUB AND PUSH1 0x0 SWAP1 DUP2 MSTORE PUSH1 0xE PUSH1 0x20 MSTORE PUSH1 0x40 SWAP1 KECCAK256 SLOAD PUSH1 0xFF AND SWAP1 JUMP JUMPDEST PUSH1 0x40 MLOAD SWAP1 ISZERO ISZERO DUP2 MSTORE PUSH1 0x20 ADD PUSH2 0x232 JUMP JUMPDEST PUSH2 0x279 PUSH2 0x2E6 CALLDATASIZE PUSH1 0x4 PUSH2 0x1208 JUMP JUMPDEST PUSH2 0x67C JUMP JUMPDEST PUSH2 0x2C8 PUSH2 0x2F9 CALLDATASIZE PUSH1 0x4 PUSH2 0x123D JUMP JUMPDEST PUSH1 0xE PUSH1 0x20 MSTORE PUSH1 0x0 SWAP1 DUP2 MSTORE PUSH1 0x40 SWAP1 KECCAK256 SLOAD PUSH1 0xFF AND DUP2 JUMP JUMPDEST PUSH1 0x8 SLOAD PUSH2 0x279 JUMP JUMPDEST PUSH2 0x29A PUSH2 0x324 CALLDATASIZE PUSH1 0x4 PUSH2 0x1208 JUMP JUMPDEST PUSH2 0x6F2 JUMP JUMPDEST PUSH1 0xB SLOAD PUSH2 0x279 JUMP JUMPDEST PUSH2 0x29A PUSH2 0x721 JUMP JUMPDEST PUSH1 0x6 SLOAD PUSH2 0x279 JUMP JUMPDEST PUSH2 0x279 PUSH2 0x34F CALLDATASIZE PUSH1 0x4 PUSH2 0x123D JUMP JUMPDEST PUSH1 0x1 PUSH1 0x1 PUSH1 0xA0 SHL SUB AND PUSH1 0x0 SWAP1 DUP2 MSTORE PUSH1 0xD PUSH1 0x20 MSTORE PUSH1 0x40 SWAP1 KECCAK256 SLOAD SWAP1 JUMP JUMPDEST PUSH1 0x1 SLOAD PUSH2 0x21E SWAP1 PUSH1 0x1 PUSH1 0x1 PUSH1 0xA0 SHL SUB AND DUP2 JUMP JUMPDEST PUSH1 0x0 SLOAD PUSH1 0x1 PUSH1 0x1 PUSH1 0xA0 SHL SUB AND PUSH2 0x21E JUMP JUMPDEST PUSH2 0x279 PUSH2 0x39C CALLDATASIZE PUSH1 0x4 PUSH2 0x123D JUMP JUMPDEST PUSH1 0xD PUSH1 0x20 MSTORE PUSH1 0x0 SWAP1 DUP2 MSTORE PUSH1 0x40 SWAP1 KECCAK256 SLOAD DUP2 JUMP JUMPDEST PUSH1 0x4 SLOAD PUSH2 0x21E SWAP1 PUSH1 0x1 PUSH1 0x1 PUSH1 0xA0 SHL SUB AND DUP2 JUMP JUMPDEST PUSH2 0x21E PUSH32 0x0 DUP2 JUMP JUMPDEST PUSH2 0x279 PUSH2 0x757 JUMP JUMPDEST PUSH2 0x29A PUSH2 0x3FE CALLDATASIZE PUSH1 0x4 PUSH2 0x1258 JUMP JUMPDEST PUSH2 0x784 JUMP JUMPDEST PUSH2 0x21E PUSH32 0x0 DUP2 JUMP JUMPDEST PUSH2 0x29A PUSH2 0x438 CALLDATASIZE PUSH1 0x4 PUSH2 0x1208 JUMP JUMPDEST PUSH2 0x824 JUMP JUMPDEST PUSH1 0x5 SLOAD PUSH2 0x21E SWAP1 PUSH1 0x1 PUSH1 0x1 PUSH1 0xA0 SHL SUB AND DUP2 JUMP JUMPDEST PUSH1 0x7 SLOAD PUSH2 0x279 JUMP JUMPDEST PUSH2 0x29A PUSH2 0x853 JUMP JUMPDEST PUSH2 0x29A PUSH2 0xA55 JUMP JUMPDEST PUSH1 0xC SLOAD PUSH1 0x1 PUSH1 0x40 SHL SWAP1 DIV PUSH4 0xFFFFFFFF AND PUSH1 0x40 MLOAD PUSH4 0xFFFFFFFF SWAP1 SWAP2 AND DUP2 MSTORE PUSH1 0x20 ADD PUSH2 0x232 JUMP JUMPDEST PUSH1 0x2 SLOAD PUSH2 0x21E SWAP1 PUSH1 0x1 PUSH1 0x1 PUSH1 0xA0 SHL SUB AND DUP2 JUMP JUMPDEST PUSH2 0x29A PUSH2 0xFCB JUMP JUMPDEST PUSH1 0xC SLOAD PUSH4 0xFFFFFFFF AND PUSH2 0x24D JUMP JUMPDEST PUSH2 0x29A PUSH2 0x4C4 CALLDATASIZE PUSH1 0x4 PUSH2 0x123D JUMP JUMPDEST PUSH2 0x1032 JUMP JUMPDEST PUSH2 0x29A PUSH2 0x4D7 CALLDATASIZE PUSH1 0x4 PUSH2 0x123D JUMP JUMPDEST PUSH2 0x10CA JUMP JUMPDEST PUSH2 0x4E4 PUSH2 0x1116 JUMP JUMPDEST PUSH1 0x40 DUP1 MLOAD SWAP3 DUP4 MSTORE PUSH1 0x20 DUP4 ADD SWAP2 SWAP1 SWAP2 MSTORE ADD PUSH2 0x232 JUMP JUMPDEST PUSH2 0x21E PUSH32 0x0 DUP2 JUMP JUMPDEST PUSH1 0x40 DUP1 MLOAD PUSH1 0x2 DUP1 DUP3 MSTORE PUSH1 0x60 DUP3 ADD DUP4 MSTORE PUSH1 0x0 SWAP3 DUP4 SWAP3 SWAP2 SWAP1 PUSH1 0x20 DUP4 ADD SWAP1 DUP1 CALLDATASIZE DUP4 CALLDATACOPY POP POP PUSH1 0x2 SLOAD DUP3 MLOAD SWAP3 SWAP4 POP PUSH1 0x1 PUSH1 0x1 PUSH1 0xA0 SHL SUB AND SWAP2 DUP4 SWAP2 POP PUSH1 0x0 SWAP1 PUSH2 0x565 JUMPI PUSH2 0x565 PUSH2 0x1298 JUMP JUMPDEST PUSH1 0x1 PUSH1 0x1 PUSH1 0xA0 SHL SUB SWAP3 DUP4 AND PUSH1 0x20 SWAP2 DUP3 MUL SWAP3 SWAP1 SWAP3 ADD ADD MSTORE PUSH1 0x1 DUP1 SLOAD DUP4 MLOAD SWAP3 AND SWAP2 DUP4 SWAP2 SWAP1 DUP2 LT PUSH2 0x595 JUMPI PUSH2 0x595 PUSH2 0x1298 JUMP JUMPDEST PUSH1 0x1 PUSH1 0x1 PUSH1 0xA0 SHL SUB SWAP3 DUP4 AND PUSH1 0x20 SWAP2 DUP3 MUL SWAP3 SWAP1 SWAP3 ADD ADD MSTORE PUSH1 0x5 SLOAD PUSH1 0x40 MLOAD PUSH4 0xD06CA61F PUSH1 0xE0 SHL DUP2 MSTORE PUSH1 0x0 SWAP3 SWAP2 SWAP1 SWAP2 AND SWAP1 PUSH4 0xD06CA61F SWAP1 PUSH2 0x5D9 SWAP1 DUP8 SWAP1 DUP7 SWAP1 PUSH1 0x4 ADD PUSH2 0x12AE JUMP JUMPDEST PUSH1 0x0 PUSH1 0x40 MLOAD DUP1 DUP4 SUB DUP2 DUP7 GAS STATICCALL ISZERO DUP1 ISZERO PUSH2 0x5F6 JUMPI RETURNDATASIZE PUSH1 0x0 DUP1 RETURNDATACOPY RETURNDATASIZE PUSH1 0x0 REVERT JUMPDEST POP POP POP POP PUSH1 0x40 MLOAD RETURNDATASIZE PUSH1 0x0 DUP3 RETURNDATACOPY PUSH1 0x1F RETURNDATASIZE SWAP1 DUP2 ADD PUSH1 0x1F NOT AND DUP3 ADD PUSH1 0x40 MSTORE PUSH2 0x61E SWAP2 SWAP1 DUP2 ADD SWAP1 PUSH2 0x1305 JUMP JUMPDEST SWAP1 POP DUP1 PUSH1 0x1 DUP2 MLOAD DUP2 LT PUSH2 0x633 JUMPI PUSH2 0x633 PUSH2 0x1298 JUMP JUMPDEST PUSH1 0x20 MUL PUSH1 0x20 ADD ADD MLOAD SWAP3 POP POP POP SWAP2 SWAP1 POP JUMP JUMPDEST PUSH1 0x0 SLOAD PUSH1 0x1 PUSH1 0x1 PUSH1 0xA0 SHL SUB AND CALLER EQ PUSH2 0x677 JUMPI PUSH1 0x40 MLOAD PUSH3 0x461BCD PUSH1 0xE5 SHL DUP2 MSTORE PUSH1 0x4 ADD PUSH2 0x66E SWAP1 PUSH2 0x13C3 JUMP JUMPDEST PUSH1 0x40 MLOAD DUP1 SWAP2 SUB SWAP1 REVERT JUMPDEST PUSH1 0xB SSTORE JUMP JUMPDEST PUSH1 0x40 DUP1 MLOAD PUSH1 0x2 DUP1 DUP3 MSTORE PUSH1 0x60 DUP3 ADD DUP4 MSTORE PUSH1 0x0 SWAP3 DUP4 SWAP3 SWAP2 SWAP1 PUSH1 0x20 DUP4 ADD SWAP1 DUP1 CALLDATASIZE DUP4 CALLDATACOPY POP POP PUSH1 0x1 SLOAD DUP3 MLOAD SWAP3 SWAP4 POP PUSH1 0x1 PUSH1 0x1 PUSH1 0xA0 SHL SUB AND SWAP2 DUP4 SWAP2 POP PUSH1 0x0 SWAP1 PUSH2 0x6C1 JUMPI PUSH2 0x6C1 PUSH2 0x1298 JUMP JUMPDEST PUSH1 0x1 PUSH1 0x1 PUSH1 0xA0 SHL SUB SWAP3 DUP4 AND PUSH1 0x20 SWAP2 DUP3 MUL SWAP3 SWAP1 SWAP3 ADD ADD MSTORE PUSH1 0x2 SLOAD DUP3 MLOAD SWAP2 AND SWAP1 DUP3 SWAP1 PUSH1 0x1 SWAP1 DUP2 LT PUSH2 0x595 JUMPI PUSH2 0x595 PUSH2 0x1298 JUMP JUMPDEST PUSH1 0x0 SLOAD PUSH1 0x1 PUSH1 0x1 PUSH1 0xA0 SHL SUB AND CALLER EQ PUSH2 0x71C JUMPI PUSH1 0x40 MLOAD PUSH3 0x461BCD PUSH1 0xE5 SHL DUP2 MSTORE PUSH1 0x4 ADD PUSH2 0x66E SWAP1 PUSH2 0x13C3 JUMP JUMPDEST PUSH1 0x9 SSTORE JUMP JUMPDEST PUSH1 0x0 SLOAD PUSH1 0x1 PUSH1 0x1 PUSH1 0xA0 SHL SUB AND CALLER EQ PUSH2 0x74B JUMPI PUSH1 0x40 MLOAD PUSH3 0x461BCD PUSH1 0xE5 SHL DUP2 MSTORE PUSH1 0x4 ADD PUSH2 0x66E SWAP1 PUSH2 0x13C3 JUMP JUMPDEST PUSH2 0x755 PUSH1 0x0 PUSH2 0x1181 JUMP JUMPDEST JUMP JUMPDEST PUSH1 0x0 DUP1 TIMESTAMP SWAP1 POP PUSH2 0x77E PUSH1 0x9 SLOAD PUSH2 0x778 PUSH1 0x7 SLOAD DUP5 PUSH2 0x11D1 SWAP1 SWAP2 SWAP1 PUSH4 0xFFFFFFFF AND JUMP JUMPDEST SWAP1 PUSH2 0x11E4 JUMP JUMPDEST SWAP2 POP POP SWAP1 JUMP JUMPDEST PUSH1 0x0 SLOAD PUSH1 0x1 PUSH1 0x1 PUSH1 0xA0 SHL SUB AND CALLER EQ PUSH2 0x7AE JUMPI PUSH1 0x40 MLOAD PUSH3 0x461BCD PUSH1 0xE5 SHL DUP2 MSTORE PUSH1 0x4 ADD PUSH2 0x66E SWAP1 PUSH2 0x13C3 JUMP JUMPDEST PUSH1 0x40 MLOAD PUSH4 0xA9059CBB PUSH1 0xE0 SHL DUP2 MSTORE CALLER PUSH1 0x4 DUP3 ADD MSTORE PUSH1 0x24 DUP2 ADD DUP3 SWAP1 MSTORE PUSH1 0x1 PUSH1 0x1 PUSH1 0xA0 SHL SUB DUP4 AND SWAP1 PUSH4 0xA9059CBB SWAP1 PUSH1 0x44 ADD PUSH1 0x20 PUSH1 0x40 MLOAD DUP1 DUP4 SUB DUP2 PUSH1 0x0 DUP8 GAS CALL ISZERO DUP1 ISZERO PUSH2 0x7FB JUMPI RETURNDATASIZE PUSH1 0x0 DUP1 RETURNDATACOPY RETURNDATASIZE PUSH1 0x0 REVERT JUMPDEST POP POP POP POP PUSH1 0x40 MLOAD RETURNDATASIZE PUSH1 0x1F NOT PUSH1 0x1F DUP3 ADD AND DUP3 ADD DUP1 PUSH1 0x40 MSTORE POP DUP2 ADD SWAP1 PUSH2 0x81F SWAP2 SWAP1 PUSH2 0x13F8 JUMP JUMPDEST POP POP POP JUMP JUMPDEST PUSH1 0x0 SLOAD PUSH1 0x1 PUSH1 0x1 PUSH1 0xA0 SHL SUB AND CALLER EQ PUSH2 0x84E JUMPI PUSH1 0x40 MLOAD PUSH3 0x461BCD PUSH1 0xE5 SHL DUP2 MSTORE PUSH1 0x4 ADD PUSH2 0x66E SWAP1 PUSH2 0x13C3 JUMP JUMPDEST PUSH1 0xA SSTORE JUMP JUMPDEST TIMESTAMP PUSH1 0x8 SLOAD LT PUSH2 0x896 JUMPI PUSH1 0x40 MLOAD PUSH3 0x461BCD PUSH1 0xE5 SHL DUP2 MSTORE PUSH1 0x20 PUSH1 0x4 DUP3 ADD MSTORE PUSH1 0xF PUSH1 0x24 DUP3 ADD MSTORE PUSH15 0x1C1C995CD95B1B081B9BDD08195B99 PUSH1 0x8A SHL PUSH1 0x44 DUP3 ADD MSTORE PUSH1 0x64 ADD PUSH2 0x66E JUMP JUMPDEST CALLER PUSH1 0x0 SWAP1 DUP2 MSTORE PUSH1 0xD PUSH1 0x20 MSTORE PUSH1 0x40 SWAP1 KECCAK256 SLOAD PUSH2 0x8E6 JUMPI PUSH1 0x40 MLOAD PUSH3 0x461BCD PUSH1 0xE5 SHL DUP2 MSTORE PUSH1 0x20 PUSH1 0x4 DUP3 ADD MSTORE PUSH1 0x11 PUSH1 0x24 DUP3 ADD MSTORE PUSH17 0x757365722062616C616E6365207A65726F PUSH1 0x78 SHL PUSH1 0x44 DUP3 ADD MSTORE PUSH1 0x64 ADD PUSH2 0x66E JUMP JUMPDEST CALLER PUSH1 0x0 DUP2 DUP2 MSTORE PUSH1 0xD PUSH1 0x20 MSTORE PUSH1 0x40 DUP1 DUP3 KECCAK256 SLOAD SWAP1 MLOAD PUSH4 0xA9059CBB PUSH1 0xE0 SHL DUP2 MSTORE PUSH1 0x4 DUP2 ADD SWAP4 SWAP1 SWAP4 MSTORE PUSH1 0x24 DUP4 ADD MSTORE SWAP1 PUSH32 0x0 PUSH1 0x1 PUSH1 0x1 PUSH1 0xA0 SHL SUB AND SWAP1 PUSH4 0xA9059CBB SWAP1 PUSH1 0x44 ADD PUSH1 0x20 PUSH1 0x40 MLOAD DUP1 DUP4 SUB DUP2 PUSH1 0x0 DUP8 GAS CALL ISZERO DUP1 ISZERO PUSH2 0x964 JUMPI RETURNDATASIZE PUSH1 0x0 DUP1 RETURNDATACOPY RETURNDATASIZE PUSH1 0x0 REVERT JUMPDEST POP POP POP POP PUSH1 0x40 MLOAD RETURNDATASIZE PUSH1 0x1F NOT PUSH1 0x1F DUP3 ADD AND DUP3 ADD DUP1 PUSH1 0x40 MSTORE POP DUP2 ADD SWAP1 PUSH2 0x988 SWAP2 SWAP1 PUSH2 0x13F8 JUMP JUMPDEST SWAP1 POP DUP1 PUSH2 0x9CF JUMPI PUSH1 0x40 MLOAD PUSH3 0x461BCD PUSH1 0xE5 SHL DUP2 MSTORE PUSH1 0x20 PUSH1 0x4 DUP3 ADD MSTORE PUSH1 0x15 PUSH1 0x24 DUP3 ADD MSTORE PUSH21 0x151BDAD95B881D1C985B9CD9995C8819985A5B1959 PUSH1 0x5A SHL PUSH1 0x44 DUP3 ADD MSTORE PUSH1 0x64 ADD PUSH2 0x66E JUMP JUMPDEST CALLER PUSH1 0x0 SWAP1 DUP2 MSTORE PUSH1 0xD PUSH1 0x20 MSTORE PUSH1 0x40 DUP2 KECCAK256 SSTORE PUSH1 0xC DUP1 SLOAD PUSH5 0x100000000 SWAP1 DIV PUSH4 0xFFFFFFFF AND SWAP1 PUSH1 0x4 PUSH2 0x9FD DUP4 PUSH2 0x1430 JUMP JUMPDEST SWAP2 SWAP1 PUSH2 0x100 EXP DUP2 SLOAD DUP2 PUSH4 0xFFFFFFFF MUL NOT AND SWAP1 DUP4 PUSH4 0xFFFFFFFF AND MUL OR SWAP1 SSTORE POP POP CALLER PUSH1 0x1 PUSH1 0x1 PUSH1 0xA0 SHL SUB AND PUSH32 0xF67611512E0A2D90C96FD3F08DCA4971BC45FBA9DC679EABE839A32ABBE58A8E PUSH1 0x40 MLOAD PUSH1 0x40 MLOAD DUP1 SWAP2 SUB SWAP1 LOG2 POP JUMP JUMPDEST TIMESTAMP PUSH1 0x7 SLOAD LT PUSH2 0xA92 JUMPI PUSH1 0x40 MLOAD PUSH3 0x461BCD PUSH1 0xE5 SHL DUP2 MSTORE PUSH1 0x20 PUSH1 0x4 DUP3 ADD MSTORE PUSH1 0x9 PUSH1 0x24 DUP3 ADD MSTORE PUSH9 0x1B9BDD081CDD185C9D PUSH1 0xBA SHL PUSH1 0x44 DUP3 ADD MSTORE PUSH1 0x64 ADD PUSH2 0x66E JUMP JUMPDEST TIMESTAMP PUSH1 0x8 SLOAD GT PUSH2 0xACD JUMPI PUSH1 0x40 MLOAD PUSH3 0x461BCD PUSH1 0xE5 SHL DUP2 MSTORE PUSH1 0x20 PUSH1 0x4 DUP3 ADD MSTORE PUSH1 0x7 PUSH1 0x24 DUP3 ADD MSTORE PUSH7 0x1A185CC8195B99 PUSH1 0xCA SHL PUSH1 0x44 DUP3 ADD MSTORE PUSH1 0x64 ADD PUSH2 0x66E JUMP JUMPDEST PUSH1 0xC SLOAD PUSH4 0xFFFFFFFF PUSH1 0x1 PUSH1 0x40 SHL DUP3 DIV DUP2 AND SWAP2 AND GT ISZERO PUSH2 0xB2E JUMPI PUSH1 0x40 MLOAD PUSH3 0x461BCD PUSH1 0xE5 SHL DUP2 MSTORE PUSH1 0x20 PUSH1 0x4 DUP3 ADD MSTORE PUSH1 0x17 PUSH1 0x24 DUP3 ADD MSTORE PUSH32 0x5072652D6F72646572732061726520736F6C64206F7574000000000000000000 PUSH1 0x44 DUP3 ADD MSTORE PUSH1 0x64 ADD PUSH2 0x66E JUMP JUMPDEST CALLER PUSH1 0x0 SWAP1 DUP2 MSTORE PUSH1 0xE PUSH1 0x20 MSTORE PUSH1 0x40 SWAP1 KECCAK256 SLOAD PUSH1 0xFF AND ISZERO PUSH2 0xB82 JUMPI PUSH1 0x40 MLOAD PUSH3 0x461BCD PUSH1 0xE5 SHL DUP2 MSTORE PUSH1 0x20 PUSH1 0x4 DUP3 ADD MSTORE PUSH1 0x11 PUSH1 0x24 DUP3 ADD MSTORE PUSH17 0x185B1C9958591E481C1D5C98DA185CD959 PUSH1 0x7A SHL PUSH1 0x44 DUP3 ADD MSTORE PUSH1 0x64 ADD PUSH2 0x66E JUMP JUMPDEST PUSH1 0x0 DUP1 PUSH2 0xB8D PUSH2 0x1116 JUMP JUMPDEST PUSH1 0x40 MLOAD PUSH4 0x6EB1769F PUSH1 0xE1 SHL DUP2 MSTORE CALLER PUSH1 0x4 DUP3 ADD MSTORE ADDRESS PUSH1 0x24 DUP3 ADD MSTORE SWAP2 SWAP4 POP SWAP2 POP DUP2 SWAP1 PUSH1 0x1 PUSH1 0x1 PUSH1 0xA0 SHL SUB PUSH32 0x0 AND SWAP1 PUSH4 0xDD62ED3E SWAP1 PUSH1 0x44 ADD PUSH1 0x20 PUSH1 0x40 MLOAD DUP1 DUP4 SUB DUP2 DUP7 GAS STATICCALL ISZERO DUP1 ISZERO PUSH2 0xBFE JUMPI RETURNDATASIZE PUSH1 0x0 DUP1 RETURNDATACOPY RETURNDATASIZE PUSH1 0x0 REVERT JUMPDEST POP POP POP POP PUSH1 0x40 MLOAD RETURNDATASIZE PUSH1 0x1F NOT PUSH1 0x1F DUP3 ADD AND DUP3 ADD DUP1 PUSH1 0x40 MSTORE POP DUP2 ADD SWAP1 PUSH2 0xC22 SWAP2 SWAP1 PUSH2 0x1453 JUMP JUMPDEST LT ISZERO PUSH2 0xC70 JUMPI PUSH1 0x40 MLOAD PUSH3 0x461BCD PUSH1 0xE5 SHL DUP2 MSTORE PUSH1 0x20 PUSH1 0x4 DUP3 ADD MSTORE PUSH1 0x1B PUSH1 0x24 DUP3 ADD MSTORE PUSH32 0x75736474546F6B656E20616C6C6F77616E636520746F6F206C6F770000000000 PUSH1 0x44 DUP3 ADD MSTORE PUSH1 0x64 ADD PUSH2 0x66E JUMP JUMPDEST PUSH1 0x40 MLOAD PUSH4 0x6EB1769F PUSH1 0xE1 SHL DUP2 MSTORE CALLER PUSH1 0x4 DUP3 ADD MSTORE ADDRESS PUSH1 0x24 DUP3 ADD MSTORE DUP3 SWAP1 PUSH32 0x0 PUSH1 0x1 PUSH1 0x1 PUSH1 0xA0 SHL SUB AND SWAP1 PUSH4 0xDD62ED3E SWAP1 PUSH1 0x44 ADD PUSH1 0x20 PUSH1 0x40 MLOAD DUP1 DUP4 SUB DUP2 DUP7 GAS STATICCALL ISZERO DUP1 ISZERO PUSH2 0xCDC JUMPI RETURNDATASIZE PUSH1 0x0 DUP1 RETURNDATACOPY RETURNDATASIZE PUSH1 0x0 REVERT JUMPDEST POP POP POP POP PUSH1 0x40 MLOAD RETURNDATASIZE PUSH1 0x1F NOT PUSH1 0x1F DUP3 ADD AND DUP3 ADD DUP1 PUSH1 0x40 MSTORE POP DUP2 ADD SWAP1 PUSH2 0xD00 SWAP2 SWAP1 PUSH2 0x1453 JUMP JUMPDEST LT ISZERO PUSH2 0xD4E JUMPI PUSH1 0x40 MLOAD PUSH3 0x461BCD PUSH1 0xE5 SHL DUP2 MSTORE PUSH1 0x20 PUSH1 0x4 DUP3 ADD MSTORE PUSH1 0x1A PUSH1 0x24 DUP3 ADD MSTORE PUSH32 0x6D7363546F6B656E20616C6C6F77616E636520746F6F206C6F77000000000000 PUSH1 0x44 DUP3 ADD MSTORE PUSH1 0x64 ADD PUSH2 0x66E JUMP JUMPDEST PUSH1 0x4 DUP1 SLOAD PUSH1 0x40 MLOAD PUSH4 0x23B872DD PUSH1 0xE0 SHL DUP2 MSTORE CALLER SWAP3 DUP2 ADD SWAP3 SWAP1 SWAP3 MSTORE PUSH1 0x1 PUSH1 0x1 PUSH1 0xA0 SHL SUB SWAP1 DUP2 AND PUSH1 0x24 DUP4 ADD MSTORE PUSH1 0x44 DUP3 ADD DUP4 SWAP1 MSTORE PUSH1 0x0 SWAP2 PUSH32 0x0 SWAP1 SWAP2 AND SWAP1 PUSH4 0x23B872DD SWAP1 PUSH1 0x64 ADD PUSH1 0x20 PUSH1 0x40 MLOAD DUP1 DUP4 SUB DUP2 PUSH1 0x0 DUP8 GAS CALL ISZERO DUP1 ISZERO PUSH2 0xDCE JUMPI RETURNDATASIZE PUSH1 0x0 DUP1 RETURNDATACOPY RETURNDATASIZE PUSH1 0x0 REVERT JUMPDEST POP POP POP POP PUSH1 0x40 MLOAD RETURNDATASIZE PUSH1 0x1F NOT PUSH1 0x1F DUP3 ADD AND DUP3 ADD DUP1 PUSH1 0x40 MSTORE POP DUP2 ADD SWAP1 PUSH2 0xDF2 SWAP2 SWAP1 PUSH2 0x13F8 JUMP JUMPDEST SWAP1 POP DUP1 PUSH2 0xE38 JUMPI PUSH1 0x40 MLOAD PUSH3 0x461BCD PUSH1 0xE5 SHL DUP2 MSTORE PUSH1 0x20 PUSH1 0x4 DUP3 ADD MSTORE PUSH1 0x14 PUSH1 0x24 DUP3 ADD MSTORE PUSH20 0x155CD91D081D1C985B9CD9995C8819985A5B1959 PUSH1 0x62 SHL PUSH1 0x44 DUP3 ADD MSTORE PUSH1 0x64 ADD PUSH2 0x66E JUMP JUMPDEST PUSH1 0x4 DUP1 SLOAD PUSH1 0x40 MLOAD PUSH4 0x23B872DD PUSH1 0xE0 SHL DUP2 MSTORE CALLER SWAP3 DUP2 ADD SWAP3 SWAP1 SWAP3 MSTORE PUSH1 0x1 PUSH1 0x1 PUSH1 0xA0 SHL SUB SWAP1 DUP2 AND PUSH1 0x24 DUP4 ADD MSTORE PUSH1 0x44 DUP3 ADD DUP6 SWAP1 MSTORE PUSH32 0x0 AND SWAP1 PUSH4 0x23B872DD SWAP1 PUSH1 0x64 ADD PUSH1 0x20 PUSH1 0x40 MLOAD DUP1 DUP4 SUB DUP2 PUSH1 0x0 DUP8 GAS CALL ISZERO DUP1 ISZERO PUSH2 0xEB3 JUMPI RETURNDATASIZE PUSH1 0x0 DUP1 RETURNDATACOPY RETURNDATASIZE PUSH1 0x0 REVERT JUMPDEST POP POP POP POP PUSH1 0x40 MLOAD RETURNDATASIZE PUSH1 0x1F NOT PUSH1 0x1F DUP3 ADD AND DUP3 ADD DUP1 PUSH1 0x40 MSTORE POP DUP2 ADD SWAP1 PUSH2 0xED7 SWAP2 SWAP1 PUSH2 0x13F8 JUMP JUMPDEST SWAP1 POP DUP1 PUSH2 0xF1C JUMPI PUSH1 0x40 MLOAD PUSH3 0x461BCD PUSH1 0xE5 SHL DUP2 MSTORE PUSH1 0x20 PUSH1 0x4 DUP3 ADD MSTORE PUSH1 0x13 PUSH1 0x24 DUP3 ADD MSTORE PUSH19 0x135CD8C81D1C985B9CD9995C8819985A5B1959 PUSH1 0x6A SHL PUSH1 0x44 DUP3 ADD MSTORE PUSH1 0x64 ADD PUSH2 0x66E JUMP JUMPDEST PUSH1 0x6 SLOAD CALLER PUSH1 0x0 SWAP1 DUP2 MSTORE PUSH1 0xD PUSH1 0x20 SWAP1 DUP2 MSTORE PUSH1 0x40 DUP1 DUP4 KECCAK256 SWAP4 SWAP1 SWAP4 SSTORE PUSH1 0xE SWAP1 MSTORE SWAP1 DUP2 KECCAK256 DUP1 SLOAD PUSH1 0xFF NOT AND PUSH1 0x1 OR SWAP1 SSTORE PUSH1 0xC DUP1 SLOAD PUSH4 0xFFFFFFFF AND SWAP2 PUSH2 0xF5B DUP4 PUSH2 0x1430 JUMP JUMPDEST SWAP2 SWAP1 PUSH2 0x100 EXP DUP2 SLOAD DUP2 PUSH4 0xFFFFFFFF MUL NOT AND SWAP1 DUP4 PUSH4 0xFFFFFFFF AND MUL OR SWAP1 SSTORE POP POP CALLER PUSH1 0x1 PUSH1 0x1 PUSH1 0xA0 SHL SUB AND PUSH32 0x936801119FCE055A11A9AE8106C09CD34006A6C3D16BF925C2D8AF5C234E7D2B DUP5 DUP5 PUSH1 0x40 MLOAD PUSH2 0xFBE SWAP3 SWAP2 SWAP1 SWAP2 DUP3 MSTORE PUSH1 0x20 DUP3 ADD MSTORE PUSH1 0x40 ADD SWAP1 JUMP JUMPDEST PUSH1 0x40 MLOAD DUP1 SWAP2 SUB SWAP1 LOG2 POP POP POP JUMP JUMPDEST PUSH1 0x0 SLOAD PUSH1 0x1 PUSH1 0x1 PUSH1 0xA0 SHL SUB AND CALLER EQ PUSH2 0xFF5 JUMPI PUSH1 0x40 MLOAD PUSH3 0x461BCD PUSH1 0xE5 SHL DUP2 MSTORE PUSH1 0x4 ADD PUSH2 0x66E SWAP1 PUSH2 0x13C3 JUMP JUMPDEST PUSH1 0x0 DUP1 SLOAD PUSH1 0x40 MLOAD PUSH1 0x1 PUSH1 0x1 PUSH1 0xA0 SHL SUB SWAP1 SWAP2 AND SWAP2 SELFBALANCE DUP1 ISZERO PUSH2 0x8FC MUL SWAP3 SWAP1 SWAP2 DUP2 DUP2 DUP2 DUP6 DUP9 DUP9 CALL SWAP4 POP POP POP POP ISZERO DUP1 ISZERO PUSH2 0x102F JUMPI RETURNDATASIZE PUSH1 0x0 DUP1 RETURNDATACOPY RETURNDATASIZE PUSH1 0x0 REVERT JUMPDEST POP JUMP JUMPDEST PUSH1 0x0 SLOAD PUSH1 0x1 PUSH1 0x1 PUSH1 0xA0 SHL SUB AND CALLER EQ PUSH2 0x105C JUMPI PUSH1 0x40 MLOAD PUSH3 0x461BCD PUSH1 0xE5 SHL DUP2 MSTORE PUSH1 0x4 ADD PUSH2 0x66E SWAP1 PUSH2 0x13C3 JUMP JUMPDEST PUSH1 0x1 PUSH1 0x1 PUSH1 0xA0 SHL SUB DUP2 AND PUSH2 0x10C1 JUMPI PUSH1 0x40 MLOAD PUSH3 0x461BCD PUSH1 0xE5 SHL DUP2 MSTORE PUSH1 0x20 PUSH1 0x4 DUP3 ADD MSTORE PUSH1 0x26 PUSH1 0x24 DUP3 ADD MSTORE PUSH32 0x4F776E61626C653A206E6577206F776E657220697320746865207A65726F2061 PUSH1 0x44 DUP3 ADD MSTORE PUSH6 0x646472657373 PUSH1 0xD0 SHL PUSH1 0x64 DUP3 ADD MSTORE PUSH1 0x84 ADD PUSH2 0x66E JUMP JUMPDEST PUSH2 0x102F DUP2 PUSH2 0x1181 JUMP JUMPDEST PUSH1 0x0 SLOAD PUSH1 0x1 PUSH1 0x1 PUSH1 0xA0 SHL SUB AND CALLER EQ PUSH2 0x10F4 JUMPI PUSH1 0x40 MLOAD PUSH3 0x461BCD PUSH1 0xE5 SHL DUP2 MSTORE PUSH1 0x4 ADD PUSH2 0x66E SWAP1 PUSH2 0x13C3 JUMP JUMPDEST PUSH1 0x4 DUP1 SLOAD PUSH1 0x1 PUSH1 0x1 PUSH1 0xA0 SHL SUB NOT AND PUSH1 0x1 PUSH1 0x1 PUSH1 0xA0 SHL SUB SWAP3 SWAP1 SWAP3 AND SWAP2 SWAP1 SWAP2 OR SWAP1 SSTORE JUMP JUMPDEST PUSH1 0x0 DUP1 PUSH1 0x0 PUSH2 0x1123 PUSH2 0x757 JUMP JUMPDEST SWAP1 POP PUSH1 0x0 PUSH2 0x1148 PUSH1 0xA SLOAD PUSH2 0x1142 DUP5 PUSH1 0xB SLOAD PUSH2 0x11F0 SWAP1 SWAP2 SWAP1 PUSH4 0xFFFFFFFF AND JUMP JUMPDEST SWAP1 PUSH2 0x11FC JUMP JUMPDEST SWAP1 POP PUSH1 0x0 PUSH2 0x115C PUSH1 0x64 PUSH2 0x778 DUP5 PUSH1 0x50 PUSH2 0x11FC JUMP JUMPDEST SWAP1 POP PUSH1 0x0 PUSH2 0x116A DUP4 DUP4 PUSH2 0x11D1 JUMP JUMPDEST SWAP1 POP PUSH2 0x1175 DUP2 PUSH2 0x67C JUMP JUMPDEST SWAP7 SWAP2 SWAP6 POP SWAP1 SWAP4 POP POP POP POP JUMP JUMPDEST PUSH1 0x0 DUP1 SLOAD PUSH1 0x1 PUSH1 0x1 PUSH1 0xA0 SHL SUB DUP4 DUP2 AND PUSH1 0x1 PUSH1 0x1 PUSH1 0xA0 SHL SUB NOT DUP4 AND DUP2 OR DUP5 SSTORE PUSH1 0x40 MLOAD SWAP2 SWAP1 SWAP3 AND SWAP3 DUP4 SWAP2 PUSH32 0x8BE0079C531659141344CD1FD0A4F28419497F9722A3DAAFE3B4186F6B6457E0 SWAP2 SWAP1 LOG3 POP POP JUMP JUMPDEST PUSH1 0x0 PUSH2 0x11DD DUP3 DUP5 PUSH2 0x146C JUMP JUMPDEST SWAP4 SWAP3 POP POP POP JUMP JUMPDEST PUSH1 0x0 PUSH2 0x11DD DUP3 DUP5 PUSH2 0x1483 JUMP JUMPDEST PUSH1 0x0 PUSH2 0x11DD DUP3 DUP5 PUSH2 0x14A5 JUMP JUMPDEST PUSH1 0x0 PUSH2 0x11DD DUP3 DUP5 PUSH2 0x14BD JUMP JUMPDEST PUSH1 0x0 PUSH1 0x20 DUP3 DUP5 SUB SLT ISZERO PUSH2 0x121A JUMPI PUSH1 0x0 DUP1 REVERT JUMPDEST POP CALLDATALOAD SWAP2 SWAP1 POP JUMP JUMPDEST DUP1 CALLDATALOAD PUSH1 0x1 PUSH1 0x1 PUSH1 0xA0 SHL SUB DUP2 AND DUP2 EQ PUSH2 0x1238 JUMPI PUSH1 0x0 DUP1 REVERT JUMPDEST SWAP2 SWAP1 POP JUMP JUMPDEST PUSH1 0x0 PUSH1 0x20 DUP3 DUP5 SUB SLT ISZERO PUSH2 0x124F JUMPI PUSH1 0x0 DUP1 REVERT JUMPDEST PUSH2 0x11DD DUP3 PUSH2 0x1221 JUMP JUMPDEST PUSH1 0x0 DUP1 PUSH1 0x40 DUP4 DUP6 SUB SLT ISZERO PUSH2 0x126B JUMPI PUSH1 0x0 DUP1 REVERT JUMPDEST PUSH2 0x1274 DUP4 PUSH2 0x1221 JUMP JUMPDEST SWAP5 PUSH1 0x20 SWAP4 SWAP1 SWAP4 ADD CALLDATALOAD SWAP4 POP POP POP JUMP JUMPDEST PUSH4 0x4E487B71 PUSH1 0xE0 SHL PUSH1 0x0 MSTORE PUSH1 0x41 PUSH1 0x4 MSTORE PUSH1 0x24 PUSH1 0x0 REVERT JUMPDEST PUSH4 0x4E487B71 PUSH1 0xE0 SHL PUSH1 0x0 MSTORE PUSH1 0x32 PUSH1 0x4 MSTORE PUSH1 0x24 PUSH1 0x0 REVERT JUMPDEST PUSH1 0x0 PUSH1 0x40 DUP3 ADD DUP5 DUP4 MSTORE PUSH1 0x20 PUSH1 0x40 DUP2 DUP6 ADD MSTORE DUP2 DUP6 MLOAD DUP1 DUP5 MSTORE PUSH1 0x60 DUP7 ADD SWAP2 POP DUP3 DUP8 ADD SWAP4 POP PUSH1 0x0 JUMPDEST DUP2 DUP2 LT ISZERO PUSH2 0x12F8 JUMPI DUP5 MLOAD PUSH1 0x1 PUSH1 0x1 PUSH1 0xA0 SHL SUB AND DUP4 MSTORE SWAP4 DUP4 ADD SWAP4 SWAP2 DUP4 ADD SWAP2 PUSH1 0x1 ADD PUSH2 0x12D3 JUMP JUMPDEST POP SWAP1 SWAP8 SWAP7 POP POP POP POP POP POP POP JUMP JUMPDEST PUSH1 0x0 PUSH1 0x20 DUP1 DUP4 DUP6 SUB SLT ISZERO PUSH2 0x1318 JUMPI PUSH1 0x0 DUP1 REVERT JUMPDEST DUP3 MLOAD PUSH8 0xFFFFFFFFFFFFFFFF DUP1 DUP3 GT ISZERO PUSH2 0x1330 JUMPI PUSH1 0x0 DUP1 REVERT JUMPDEST DUP2 DUP6 ADD SWAP2 POP DUP6 PUSH1 0x1F DUP4 ADD SLT PUSH2 0x1344 JUMPI PUSH1 0x0 DUP1 REVERT JUMPDEST DUP2 MLOAD DUP2 DUP2 GT ISZERO PUSH2 0x1356 JUMPI PUSH2 0x1356 PUSH2 0x1282 JUMP JUMPDEST DUP1 PUSH1 0x5 SHL PUSH1 0x40 MLOAD PUSH1 0x1F NOT PUSH1 0x3F DUP4 ADD AND DUP2 ADD DUP2 DUP2 LT DUP6 DUP3 GT OR ISZERO PUSH2 0x137B JUMPI PUSH2 0x137B PUSH2 0x1282 JUMP JUMPDEST PUSH1 0x40 MSTORE SWAP2 DUP3 MSTORE DUP5 DUP3 ADD SWAP3 POP DUP4 DUP2 ADD DUP6 ADD SWAP2 DUP9 DUP4 GT ISZERO PUSH2 0x1399 JUMPI PUSH1 0x0 DUP1 REVERT JUMPDEST SWAP4 DUP6 ADD SWAP4 JUMPDEST DUP3 DUP6 LT ISZERO PUSH2 0x13B7 JUMPI DUP5 MLOAD DUP5 MSTORE SWAP4 DUP6 ADD SWAP4 SWAP3 DUP6 ADD SWAP3 PUSH2 0x139E JUMP JUMPDEST SWAP9 SWAP8 POP POP POP POP POP POP POP POP JUMP JUMPDEST PUSH1 0x20 DUP1 DUP3 MSTORE DUP2 DUP2 ADD MSTORE PUSH32 0x4F776E61626C653A2063616C6C6572206973206E6F7420746865206F776E6572 PUSH1 0x40 DUP3 ADD MSTORE PUSH1 0x60 ADD SWAP1 JUMP JUMPDEST PUSH1 0x0 PUSH1 0x20 DUP3 DUP5 SUB SLT ISZERO PUSH2 0x140A JUMPI PUSH1 0x0 DUP1 REVERT JUMPDEST DUP2 MLOAD DUP1 ISZERO ISZERO DUP2 EQ PUSH2 0x11DD JUMPI PUSH1 0x0 DUP1 REVERT JUMPDEST PUSH4 0x4E487B71 PUSH1 0xE0 SHL PUSH1 0x0 MSTORE PUSH1 0x11 PUSH1 0x4 MSTORE PUSH1 0x24 PUSH1 0x0 REVERT JUMPDEST PUSH1 0x0 PUSH4 0xFFFFFFFF DUP1 DUP4 AND DUP2 DUP2 SUB PUSH2 0x1449 JUMPI PUSH2 0x1449 PUSH2 0x141A JUMP JUMPDEST PUSH1 0x1 ADD SWAP4 SWAP3 POP POP POP JUMP JUMPDEST PUSH1 0x0 PUSH1 0x20 DUP3 DUP5 SUB SLT ISZERO PUSH2 0x1465 JUMPI PUSH1 0x0 DUP1 REVERT JUMPDEST POP MLOAD SWAP2 SWAP1 POP JUMP JUMPDEST PUSH1 0x0 DUP3 DUP3 LT ISZERO PUSH2 0x147E JUMPI PUSH2 0x147E PUSH2 0x141A JUMP JUMPDEST POP SUB SWAP1 JUMP JUMPDEST PUSH1 0x0 DUP3 PUSH2 0x14A0 JUMPI PUSH4 0x4E487B71 PUSH1 0xE0 SHL PUSH1 0x0 MSTORE PUSH1 0x12 PUSH1 0x4 MSTORE PUSH1 0x24 PUSH1 0x0 REVERT JUMPDEST POP DIV SWAP1 JUMP JUMPDEST PUSH1 0x0 DUP3 NOT DUP3 GT ISZERO PUSH2 0x14B8 JUMPI PUSH2 0x14B8 PUSH2 0x141A JUMP JUMPDEST POP ADD SWAP1 JUMP JUMPDEST PUSH1 0x0 DUP2 PUSH1 0x0 NOT DIV DUP4 GT DUP3 ISZERO ISZERO AND ISZERO PUSH2 0x14D7 JUMPI PUSH2 0x14D7 PUSH2 0x141A JUMP JUMPDEST POP MUL SWAP1 JUMP INVALID LOG2 PUSH5 0x6970667358 0x22 SLT KECCAK256 0xDB PUSH23 0x80EADFE1BC895AF0521C504282B3C30FC2D3C5555E6DF 0xF8 CODECOPY KECCAK256 NUMBER 0xB9 0xC8 EXP PUSH5 0x736F6C6343 STOP ADDMOD 0xF STOP CALLER "
		},
		"gasEstimates": {
			"creation": {
				"codeDepositCost": "1078800",
				"executionCost": "infinite",
				"totalCost": "infinite"
			},
			"external": {
				"buyTokens()": "infinite",
				"emergencyWithdraw()": "infinite",
				"emergencyWithdrawToken(address,uint256)": "infinite",
				"getBaseAmount()": "2360",
				"getEndTime()": "2404",
				"getMscAmountOut(uint256)": "infinite",
				"getMscPrice(uint256)": "infinite",
				"getPreSellCoinAmount()": "2404",
				"getPreSellCounter()": "2351",
				"getPresellMax()": "2379",
				"getPresellMscAndUsdtAmount()": "infinite",
				"getStartTime()": "2381",
				"getStep()": "infinite",
				"getUserHasBuy(address)": "2595",
				"getUserPreSellCoinAmount(address)": "2582",
				"getWithdrawCounter()": "2376",
				"hasBuy(address)": "2621",
				"marketAddress()": "2459",
				"mscMintAddress()": "2415",
				"mscToken()": "infinite",
				"owner()": "2409",
				"pancakeRoute2()": "2393",
				"presellTokenMintAddress()": "2373",
				"renounceOwnership()": "28204",
				"sellToken()": "infinite",
				"setBaseAmount(uint256)": "24577",
				"setMarketAddress(address)": "26799",
				"setPriceStep(uint256)": "24509",
				"setTimeStep(uint256)": "24510",
				"transferOwnership(address)": "28375",
				"usdtMintAddress()": "2393",
				"usdtToken()": "infinite",
				"userPresellBalanceMap(address)": "2630",
				"withdrawPresellTokens()": "infinite"
			}
		},
		"methodIdentifiers": {
			"buyTokens()": "d0febe4c",
			"emergencyWithdraw()": "db2e21bc",
			"emergencyWithdrawToken(address,uint256)": "a4c3b091",
			"getBaseAmount()": "6a5ff66f",
			"getEndTime()": "439f5ac2",
			"getMscAmountOut(uint256)": "3817c9c1",
			"getMscPrice(uint256)": "04be093f",
			"getPreSellCoinAmount()": "78eb6c6f",
			"getPreSellCounter()": "f01fc57c",
			"getPresellMax()": "d1d04e1f",
			"getPresellMscAndUsdtAmount()": "faffbc5b",
			"getStartTime()": "c828371e",
			"getStep()": "9e5288a0",
			"getUserHasBuy(address)": "374eedef",
			"getUserPreSellCoinAmount(address)": "8568f4ce",
			"getWithdrawCounter()": "03d7424d",
			"hasBuy(address)": "3d719da7",
			"marketAddress()": "95623641",
			"mscMintAddress()": "d4cfbbca",
			"mscToken()": "fe05cc9c",
			"owner()": "8da5cb5b",
			"pancakeRoute2()": "c493b6e5",
			"presellTokenMintAddress()": "027734fa",
			"renounceOwnership()": "715018a6",
			"sellToken()": "9769f0b0",
			"setBaseAmount(uint256)": "224a7c6a",
			"setMarketAddress(address)": "fae92612",
			"setPriceStep(uint256)": "af94862c",
			"setTimeStep(uint256)": "4c8b16f4",
			"transferOwnership(address)": "f2fde38b",
			"usdtMintAddress()": "88af60c6",
			"usdtToken()": "a98ad46c",
			"userPresellBalanceMap(address)": "90f5881a",
			"withdrawPresellTokens()": "c9ede793"
		}
	},
	"abi": [
		{
			"inputs": [
				{
					"internalType": "uint256",
					"name": "_startAt",
					"type": "uint256"
				},
				{
					"internalType": "uint256",
					"name": "_endAt",
					"type": "uint256"
				}
			],
			"stateMutability": "nonpayable",
			"type": "constructor"
		},
		{
			"anonymous": false,
			"inputs": [
				{
					"indexed": true,
					"internalType": "address",
					"name": "user",
					"type": "address"
				},
				{
					"indexed": false,
					"internalType": "uint256",
					"name": "mscAmount",
					"type": "uint256"
				},
				{
					"indexed": false,
					"internalType": "uint256",
					"name": "usdtAmount",
					"type": "uint256"
				}
			],
			"name": "BuyPresell",
			"type": "event"
		},
		{
			"anonymous": false,
			"inputs": [
				{
					"indexed": true,
					"internalType": "address",
					"name": "previousOwner",
					"type": "address"
				},
				{
					"indexed": true,
					"internalType": "address",
					"name": "newOwner",
					"type": "address"
				}
			],
			"name": "OwnershipTransferred",
			"type": "event"
		},
		{
			"anonymous": false,
			"inputs": [
				{
					"indexed": true,
					"internalType": "address",
					"name": "user",
					"type": "address"
				}
			],
			"name": "Withdraw",
			"type": "event"
		},
		{
			"inputs": [],
			"name": "buyTokens",
			"outputs": [],
			"stateMutability": "nonpayable",
			"type": "function"
		},
		{
			"inputs": [],
			"name": "emergencyWithdraw",
			"outputs": [],
			"stateMutability": "nonpayable",
			"type": "function"
		},
		{
			"inputs": [
				{
					"internalType": "address",
					"name": "token",
					"type": "address"
				},
				{
					"internalType": "uint256",
					"name": "amount",
					"type": "uint256"
				}
			],
			"name": "emergencyWithdrawToken",
			"outputs": [],
			"stateMutability": "nonpayable",
			"type": "function"
		},
		{
			"inputs": [],
			"name": "getBaseAmount",
			"outputs": [
				{
					"internalType": "uint256",
					"name": "",
					"type": "uint256"
				}
			],
			"stateMutability": "view",
			"type": "function"
		},
		{
			"inputs": [],
			"name": "getEndTime",
			"outputs": [
				{
					"internalType": "uint256",
					"name": "",
					"type": "uint256"
				}
			],
			"stateMutability": "view",
			"type": "function"
		},
		{
			"inputs": [
				{
					"internalType": "uint256",
					"name": "usdtAmountIn",
					"type": "uint256"
				}
			],
			"name": "getMscAmountOut",
			"outputs": [
				{
					"internalType": "uint256",
					"name": "",
					"type": "uint256"
				}
			],
			"stateMutability": "view",
			"type": "function"
		},
		{
			"inputs": [
				{
					"internalType": "uint256",
					"name": "mscAmountIn",
					"type": "uint256"
				}
			],
			"name": "getMscPrice",
			"outputs": [
				{
					"internalType": "uint256",
					"name": "",
					"type": "uint256"
				}
			],
			"stateMutability": "view",
			"type": "function"
		},
		{
			"inputs": [],
			"name": "getPreSellCoinAmount",
			"outputs": [
				{
					"internalType": "uint256",
					"name": "",
					"type": "uint256"
				}
			],
			"stateMutability": "view",
			"type": "function"
		},
		{
			"inputs": [],
			"name": "getPreSellCounter",
			"outputs": [
				{
					"internalType": "uint64",
					"name": "",
					"type": "uint64"
				}
			],
			"stateMutability": "view",
			"type": "function"
		},
		{
			"inputs": [],
			"name": "getPresellMax",
			"outputs": [
				{
					"internalType": "uint32",
					"name": "",
					"type": "uint32"
				}
			],
			"stateMutability": "view",
			"type": "function"
		},
		{
			"inputs": [],
			"name": "getPresellMscAndUsdtAmount",
			"outputs": [
				{
					"internalType": "uint256",
					"name": "",
					"type": "uint256"
				},
				{
					"internalType": "uint256",
					"name": "",
					"type": "uint256"
				}
			],
			"stateMutability": "view",
			"type": "function"
		},
		{
			"inputs": [],
			"name": "getStartTime",
			"outputs": [
				{
					"internalType": "uint256",
					"name": "",
					"type": "uint256"
				}
			],
			"stateMutability": "view",
			"type": "function"
		},
		{
			"inputs": [],
			"name": "getStep",
			"outputs": [
				{
					"internalType": "uint256",
					"name": "",
					"type": "uint256"
				}
			],
			"stateMutability": "view",
			"type": "function"
		},
		{
			"inputs": [
				{
					"internalType": "address",
					"name": "user",
					"type": "address"
				}
			],
			"name": "getUserHasBuy",
			"outputs": [
				{
					"internalType": "bool",
					"name": "",
					"type": "bool"
				}
			],
			"stateMutability": "view",
			"type": "function"
		},
		{
			"inputs": [
				{
					"internalType": "address",
					"name": "user",
					"type": "address"
				}
			],
			"name": "getUserPreSellCoinAmount",
			"outputs": [
				{
					"internalType": "uint256",
					"name": "",
					"type": "uint256"
				}
			],
			"stateMutability": "view",
			"type": "function"
		},
		{
			"inputs": [],
			"name": "getWithdrawCounter",
			"outputs": [
				{
					"internalType": "uint64",
					"name": "",
					"type": "uint64"
				}
			],
			"stateMutability": "view",
			"type": "function"
		},
		{
			"inputs": [
				{
					"internalType": "address",
					"name": "",
					"type": "address"
				}
			],
			"name": "hasBuy",
			"outputs": [
				{
					"internalType": "bool",
					"name": "",
					"type": "bool"
				}
			],
			"stateMutability": "view",
			"type": "function"
		},
		{
			"inputs": [],
			"name": "marketAddress",
			"outputs": [
				{
					"internalType": "address",
					"name": "",
					"type": "address"
				}
			],
			"stateMutability": "view",
			"type": "function"
		},
		{
			"inputs": [],
			"name": "mscMintAddress",
			"outputs": [
				{
					"internalType": "address",
					"name": "",
					"type": "address"
				}
			],
			"stateMutability": "view",
			"type": "function"
		},
		{
			"inputs": [],
			"name": "mscToken",
			"outputs": [
				{
					"internalType": "contract IERC20",
					"name": "",
					"type": "address"
				}
			],
			"stateMutability": "view",
			"type": "function"
		},
		{
			"inputs": [],
			"name": "owner",
			"outputs": [
				{
					"internalType": "address",
					"name": "",
					"type": "address"
				}
			],
			"stateMutability": "view",
			"type": "function"
		},
		{
			"inputs": [],
			"name": "pancakeRoute2",
			"outputs": [
				{
					"internalType": "address",
					"name": "",
					"type": "address"
				}
			],
			"stateMutability": "view",
			"type": "function"
		},
		{
			"inputs": [],
			"name": "presellTokenMintAddress",
			"outputs": [
				{
					"internalType": "address",
					"name": "",
					"type": "address"
				}
			],
			"stateMutability": "view",
			"type": "function"
		},
		{
			"inputs": [],
			"name": "renounceOwnership",
			"outputs": [],
			"stateMutability": "nonpayable",
			"type": "function"
		},
		{
			"inputs": [],
			"name": "sellToken",
			"outputs": [
				{
					"internalType": "contract IERC20",
					"name": "",
					"type": "address"
				}
			],
			"stateMutability": "view",
			"type": "function"
		},
		{
			"inputs": [
				{
					"internalType": "uint256",
					"name": "newAmount",
					"type": "uint256"
				}
			],
			"name": "setBaseAmount",
			"outputs": [],
			"stateMutability": "nonpayable",
			"type": "function"
		},
		{
			"inputs": [
				{
					"internalType": "address",
					"name": "newAddress",
					"type": "address"
				}
			],
			"name": "setMarketAddress",
			"outputs": [],
			"stateMutability": "nonpayable",
			"type": "function"
		},
		{
			"inputs": [
				{
					"internalType": "uint256",
					"name": "step",
					"type": "uint256"
				}
			],
			"name": "setPriceStep",
			"outputs": [],
			"stateMutability": "nonpayable",
			"type": "function"
		},
		{
			"inputs": [
				{
					"internalType": "uint256",
					"name": "step",
					"type": "uint256"
				}
			],
			"name": "setTimeStep",
			"outputs": [],
			"stateMutability": "nonpayable",
			"type": "function"
		},
		{
			"inputs": [
				{
					"internalType": "address",
					"name": "newOwner",
					"type": "address"
				}
			],
			"name": "transferOwnership",
			"outputs": [],
			"stateMutability": "nonpayable",
			"type": "function"
		},
		{
			"inputs": [],
			"name": "usdtMintAddress",
			"outputs": [
				{
					"internalType": "address",
					"name": "",
					"type": "address"
				}
			],
			"stateMutability": "view",
			"type": "function"
		},
		{
			"inputs": [],
			"name": "usdtToken",
			"outputs": [
				{
					"internalType": "contract IERC20",
					"name": "",
					"type": "address"
				}
			],
			"stateMutability": "view",
			"type": "function"
		},
		{
			"inputs": [
				{
					"internalType": "address",
					"name": "",
					"type": "address"
				}
			],
			"name": "userPresellBalanceMap",
			"outputs": [
				{
					"internalType": "uint256",
					"name": "",
					"type": "uint256"
				}
			],
			"stateMutability": "view",
			"type": "function"
		},
		{
			"inputs": [],
			"name": "withdrawPresellTokens",
			"outputs": [],
			"stateMutability": "nonpayable",
			"type": "function"
		}
	]
}