{
	"nft/test.sol": {
		"Decode": {
			"abi": [
				{
					"constant": false,
					"inputs": [],
					"name": "testGas",
					"outputs": [],
					"payable": false,
					"stateMutability": "nonpayable",
					"type": "function"
				},
				{
					"constant": false,
					"inputs": [
						{
							"name": "r",
							"type": "bytes32"
						},
						{
							"name": "s",
							"type": "bytes32"
						},
						{
							"name": "v1",
							"type": "bytes1"
						}
					],
					"name": "ecrecoverDecode",
					"outputs": [
						{
							"name": "addr",
							"type": "address"
						}
					],
					"payable": false,
					"stateMutability": "nonpayable",
					"type": "function"
				},
				{
					"constant": false,
					"inputs": [
						{
							"name": "source",
							"type": "bytes"
						}
					],
					"name": "bytesToBytes32",
					"outputs": [
						{
							"name": "result",
							"type": "bytes32"
						}
					],
					"payable": false,
					"stateMutability": "nonpayable",
					"type": "function"
				},
				{
					"constant": false,
					"inputs": [],
					"name": "decode",
					"outputs": [
						{
							"name": "",
							"type": "address"
						}
					],
					"payable": false,
					"stateMutability": "nonpayable",
					"type": "function"
				},
				{
					"constant": false,
					"inputs": [
						{
							"name": "data",
							"type": "bytes"
						},
						{
							"name": "start",
							"type": "uint256"
						},
						{
							"name": "len",
							"type": "uint256"
						}
					],
					"name": "slice",
					"outputs": [
						{
							"name": "",
							"type": "bytes"
						}
					],
					"payable": false,
					"stateMutability": "nonpayable",
					"type": "function"
				}
			],
			"devdoc": {
				"methods": {}
			},
			"evm": {
				"assembly": "    /* \"nft/test.sol\":27:1618  contract Decode{\r... */\n  mstore(0x40, 0x80)\n  callvalue\n    /* \"--CODEGEN--\":8:17   */\n  dup1\n    /* \"--CODEGEN--\":5:7   */\n  iszero\n  tag_1\n  jumpi\n    /* \"--CODEGEN--\":30:31   */\n  0x0\n    /* \"--CODEGEN--\":27:28   */\n  dup1\n    /* \"--CODEGEN--\":20:32   */\n  revert\n    /* \"--CODEGEN--\":5:7   */\ntag_1:\n    /* \"nft/test.sol\":27:1618  contract Decode{\r... */\n  pop\n  dataSize(sub_0)\n  dup1\n  dataOffset(sub_0)\n  0x0\n  codecopy\n  0x0\n  return\nstop\n\nsub_0: assembly {\n        /* \"nft/test.sol\":27:1618  contract Decode{\r... */\n      mstore(0x40, 0x80)\n      jumpi(tag_1, lt(calldatasize, 0x4))\n      calldataload(0x0)\n      0x100000000000000000000000000000000000000000000000000000000\n      swap1\n      div\n      0xffffffff\n      and\n      dup1\n      0x4a6661ff\n      eq\n      tag_2\n      jumpi\n      dup1\n      0x9f9d5793\n      eq\n      tag_3\n      jumpi\n      dup1\n      0xbfe370d9\n      eq\n      tag_4\n      jumpi\n      dup1\n      0xc0f8940c\n      eq\n      tag_5\n      jumpi\n      dup1\n      0xe0041396\n      eq\n      tag_6\n      jumpi\n    tag_1:\n      0x0\n      dup1\n      revert\n        /* \"nft/test.sol\":1523:1615  function testGas() public {\r... */\n    tag_2:\n      callvalue\n        /* \"--CODEGEN--\":8:17   */\n      dup1\n        /* \"--CODEGEN--\":5:7   */\n      iszero\n      tag_7\n      jumpi\n        /* \"--CODEGEN--\":30:31   */\n      0x0\n        /* \"--CODEGEN--\":27:28   */\n      dup1\n        /* \"--CODEGEN--\":20:32   */\n      revert\n        /* \"--CODEGEN--\":5:7   */\n    tag_7:\n        /* \"nft/test.sol\":1523:1615  function testGas() public {\r... */\n      pop\n      tag_8\n      jump(tag_9)\n    tag_8:\n      stop\n        /* \"nft/test.sol\":1123:1343  function ecrecoverDecode(bytes32 r, bytes32 s, byte v1) returns (address addr){\r... */\n    tag_3:\n      callvalue\n        /* \"--CODEGEN--\":8:17   */\n      dup1\n        /* \"--CODEGEN--\":5:7   */\n      iszero\n      tag_10\n      jumpi\n        /* \"--CODEGEN--\":30:31   */\n      0x0\n        /* \"--CODEGEN--\":27:28   */\n      dup1\n        /* \"--CODEGEN--\":20:32   */\n      revert\n        /* \"--CODEGEN--\":5:7   */\n    tag_10:\n        /* \"nft/test.sol\":1123:1343  function ecrecoverDecode(bytes32 r, bytes32 s, byte v1) returns (address addr){\r... */\n      pop\n      tag_11\n      0x4\n      dup1\n      calldatasize\n      sub\n      dup2\n      add\n      swap1\n      dup1\n      dup1\n      calldataload\n      not(0x0)\n      and\n      swap1\n      0x20\n      add\n      swap1\n      swap3\n      swap2\n      swap1\n      dup1\n      calldataload\n      not(0x0)\n      and\n      swap1\n      0x20\n      add\n      swap1\n      swap3\n      swap2\n      swap1\n      dup1\n      calldataload\n      not(0xffffffffffffffffffffffffffffffffffffffffffffffffffffffffffffff)\n      and\n      swap1\n      0x20\n      add\n      swap1\n      swap3\n      swap2\n      swap1\n      pop\n      pop\n      pop\n      jump(tag_12)\n    tag_11:\n      mload(0x40)\n      dup1\n      dup3\n      0xffffffffffffffffffffffffffffffffffffffff\n      and\n      0xffffffffffffffffffffffffffffffffffffffff\n      and\n      dup2\n      mstore\n      0x20\n      add\n      swap2\n      pop\n      pop\n      mload(0x40)\n      dup1\n      swap2\n      sub\n      swap1\n      return\n        /* \"nft/test.sol\":1376:1517  function bytesToBytes32(bytes memory source) returns (bytes32 result) {\r... */\n    tag_4:\n      callvalue\n        /* \"--CODEGEN--\":8:17   */\n      dup1\n        /* \"--CODEGEN--\":5:7   */\n      iszero\n      tag_13\n      jumpi\n        /* \"--CODEGEN--\":30:31   */\n      0x0\n        /* \"--CODEGEN--\":27:28   */\n      dup1\n        /* \"--CODEGEN--\":20:32   */\n      revert\n        /* \"--CODEGEN--\":5:7   */\n    tag_13:\n        /* \"nft/test.sol\":1376:1517  function bytesToBytes32(bytes memory source) returns (bytes32 result) {\r... */\n      pop\n      tag_14\n      0x4\n      dup1\n      calldatasize\n      sub\n      dup2\n      add\n      swap1\n      dup1\n      dup1\n      calldataload\n      swap1\n      0x20\n      add\n      swap1\n      dup3\n      add\n      dup1\n      calldataload\n      swap1\n      0x20\n      add\n      swap1\n      dup1\n      dup1\n      0x1f\n      add\n      0x20\n      dup1\n      swap2\n      div\n      mul\n      0x20\n      add\n      mload(0x40)\n      swap1\n      dup2\n      add\n      0x40\n      mstore\n      dup1\n      swap4\n      swap3\n      swap2\n      swap1\n      dup2\n      dup2\n      mstore\n      0x20\n      add\n      dup4\n      dup4\n      dup1\n      dup3\n      dup5\n      calldatacopy\n      dup3\n      add\n      swap2\n      pop\n      pop\n      pop\n      pop\n      pop\n      pop\n      swap2\n      swap3\n      swap2\n      swap3\n      swap1\n      pop\n      pop\n      pop\n      jump(tag_15)\n    tag_14:\n      mload(0x40)\n      dup1\n      dup3\n      not(0x0)\n      and\n      not(0x0)\n      and\n      dup2\n      mstore\n      0x20\n      add\n      swap2\n      pop\n      pop\n      mload(0x40)\n      dup1\n      swap2\n      sub\n      swap1\n      return\n        /* \"nft/test.sol\":398:819  function decode() returns (address){\r... */\n    tag_5:\n      callvalue\n        /* \"--CODEGEN--\":8:17   */\n      dup1\n        /* \"--CODEGEN--\":5:7   */\n      iszero\n      tag_16\n      jumpi\n        /* \"--CODEGEN--\":30:31   */\n      0x0\n        /* \"--CODEGEN--\":27:28   */\n      dup1\n        /* \"--CODEGEN--\":20:32   */\n      revert\n        /* \"--CODEGEN--\":5:7   */\n    tag_16:\n        /* \"nft/test.sol\":398:819  function decode() returns (address){\r... */\n      pop\n      tag_17\n      jump(tag_18)\n    tag_17:\n      mload(0x40)\n      dup1\n      dup3\n      0xffffffffffffffffffffffffffffffffffffffff\n      and\n      0xffffffffffffffffffffffffffffffffffffffff\n      and\n      dup2\n      mstore\n      0x20\n      add\n      swap2\n      pop\n      pop\n      mload(0x40)\n      dup1\n      swap2\n      sub\n      swap1\n      return\n        /* \"nft/test.sol\":876:1084  function slice(bytes memory data, uint start, uint len) returns (bytes){\r... */\n    tag_6:\n      callvalue\n        /* \"--CODEGEN--\":8:17   */\n      dup1\n        /* \"--CODEGEN--\":5:7   */\n      iszero\n      tag_19\n      jumpi\n        /* \"--CODEGEN--\":30:31   */\n      0x0\n        /* \"--CODEGEN--\":27:28   */\n      dup1\n        /* \"--CODEGEN--\":20:32   */\n      revert\n        /* \"--CODEGEN--\":5:7   */\n    tag_19:\n        /* \"nft/test.sol\":876:1084  function slice(bytes memory data, uint start, uint len) returns (bytes){\r... */\n      pop\n      tag_20\n      0x4\n      dup1\n      calldatasize\n      sub\n      dup2\n      add\n      swap1\n      dup1\n      dup1\n      calldataload\n      swap1\n      0x20\n      add\n      swap1\n      dup3\n      add\n      dup1\n      calldataload\n      swap1\n      0x20\n      add\n      swap1\n      dup1\n      dup1\n      0x1f\n      add\n      0x20\n      dup1\n      swap2\n      div\n      mul\n      0x20\n      add\n      mload(0x40)\n      swap1\n      dup2\n      add\n      0x40\n      mstore\n      dup1\n      swap4\n      swap3\n      swap2\n      swap1\n      dup2\n      dup2\n      mstore\n      0x20\n      add\n      dup4\n      dup4\n      dup1\n      dup3\n      dup5\n      calldatacopy\n      dup3\n      add\n      swap2\n      pop\n      pop\n      pop\n      pop\n      pop\n      pop\n      swap2\n      swap3\n      swap2\n      swap3\n      swap1\n      dup1\n      calldataload\n      swap1\n      0x20\n      add\n      swap1\n      swap3\n      swap2\n      swap1\n      dup1\n      calldataload\n      swap1\n      0x20\n      add\n      swap1\n      swap3\n      swap2\n      swap1\n      pop\n      pop\n      pop\n      jump(tag_21)\n    tag_20:\n      mload(0x40)\n      dup1\n      dup1\n      0x20\n      add\n      dup3\n      dup2\n      sub\n      dup3\n      mstore\n      dup4\n      dup2\n      dup2\n      mload\n      dup2\n      mstore\n      0x20\n      add\n      swap2\n      pop\n      dup1\n      mload\n      swap1\n      0x20\n      add\n      swap1\n      dup1\n      dup4\n      dup4\n        /* \"--CODEGEN--\":23:24   */\n      0x0\n        /* \"--CODEGEN--\":8:108   */\n    tag_22:\n        /* \"--CODEGEN--\":33:36   */\n      dup4\n        /* \"--CODEGEN--\":30:31   */\n      dup2\n        /* \"--CODEGEN--\":27:37   */\n      lt\n        /* \"--CODEGEN--\":8:108   */\n      iszero\n      tag_23\n      jumpi\n        /* \"--CODEGEN--\":99:100   */\n      dup1\n        /* \"--CODEGEN--\":94:97   */\n      dup3\n        /* \"--CODEGEN--\":90:101   */\n      add\n        /* \"--CODEGEN--\":84:102   */\n      mload\n        /* \"--CODEGEN--\":80:81   */\n      dup2\n        /* \"--CODEGEN--\":75:78   */\n      dup5\n        /* \"--CODEGEN--\":71:82   */\n      add\n        /* \"--CODEGEN--\":64:103   */\n      mstore\n        /* \"--CODEGEN--\":52:54   */\n      0x20\n        /* \"--CODEGEN--\":49:50   */\n      dup2\n        /* \"--CODEGEN--\":45:55   */\n      add\n        /* \"--CODEGEN--\":40:55   */\n      swap1\n      pop\n        /* \"--CODEGEN--\":8:108   */\n      jump(tag_22)\n    tag_23:\n        /* \"--CODEGEN--\":12:26   */\n      pop\n        /* \"nft/test.sol\":876:1084  function slice(bytes memory data, uint start, uint len) returns (bytes){\r... */\n      pop\n      pop\n      pop\n      swap1\n      pop\n      swap1\n      dup2\n      add\n      swap1\n      0x1f\n      and\n      dup1\n      iszero\n      tag_25\n      jumpi\n      dup1\n      dup3\n      sub\n      dup1\n      mload\n      0x1\n      dup4\n      0x20\n      sub\n      0x100\n      exp\n      sub\n      not\n      and\n      dup2\n      mstore\n      0x20\n      add\n      swap2\n      pop\n    tag_25:\n      pop\n      swap3\n      pop\n      pop\n      pop\n      mload(0x40)\n      dup1\n      swap2\n      sub\n      swap1\n      return\n        /* \"nft/test.sol\":1523:1615  function testGas() public {\r... */\n    tag_9:\n        /* \"nft/test.sol\":1556:1566  uint count */\n      0x0\n        /* \"nft/test.sol\":1577:1583  uint i */\n      dup1\n        /* \"nft/test.sol\":1586:1587  0 */\n      0x0\n        /* \"nft/test.sol\":1577:1587  uint i = 0 */\n      swap1\n      pop\n        /* \"nft/test.sol\":1573:1610  for(uint i = 0; i < 10; i++) {\r... */\n    tag_27:\n        /* \"nft/test.sol\":1593:1595  10 */\n      0xa\n        /* \"nft/test.sol\":1589:1590  i */\n      dup2\n        /* \"nft/test.sol\":1589:1595  i < 10 */\n      lt\n        /* \"nft/test.sol\":1573:1610  for(uint i = 0; i < 10; i++) {\r... */\n      iszero\n      tag_28\n      jumpi\n        /* \"nft/test.sol\":1597:1600  i++ */\n      dup1\n      dup1\n      0x1\n      add\n      swap2\n      pop\n      pop\n        /* \"nft/test.sol\":1573:1610  for(uint i = 0; i < 10; i++) {\r... */\n      jump(tag_27)\n    tag_28:\n        /* \"nft/test.sol\":1523:1615  function testGas() public {\r... */\n      pop\n      pop\n      jump\t// out\n        /* \"nft/test.sol\":1123:1343  function ecrecoverDecode(bytes32 r, bytes32 s, byte v1) returns (address addr){\r... */\n    tag_12:\n        /* \"nft/test.sol\":1188:1200  address addr */\n      0x0\n        /* \"nft/test.sol\":1209:1216  uint8 v */\n      dup1\n        /* \"nft/test.sol\":1231:1233  27 */\n      0x1b\n        /* \"nft/test.sol\":1225:1227  v1 */\n      dup4\n        /* \"nft/test.sol\":1219:1228  uint8(v1) */\n      0x100000000000000000000000000000000000000000000000000000000000000\n      swap1\n      div\n        /* \"nft/test.sol\":1219:1233  uint8(v1) + 27 */\n      add\n        /* \"nft/test.sol\":1209:1233  uint8 v = uint8(v1) + 27 */\n      swap1\n      pop\n        /* \"nft/test.sol\":1248:1337  ecrecover(hex\"f761dd7550224ec252e544c77097a6b94c9a0cab6ff4bfa068b5edf83e6da563\", v, r, s) */\n      0x1\n        /* \"nft/test.sol\":1329:1330  v */\n      dup2\n        /* \"nft/test.sol\":1332:1333  r */\n      dup7\n        /* \"nft/test.sol\":1335:1336  s */\n      dup7\n        /* \"nft/test.sol\":1248:1337  ecrecover(hex\"f761dd7550224ec252e544c77097a6b94c9a0cab6ff4bfa068b5edf83e6da563\", v, r, s) */\n      mload(0x40)\n      0x0\n      dup2\n      mstore\n      0x20\n      add\n      0x40\n      mstore\n      mload(0x40)\n      dup1\n      dup1\n      0xf761dd7550224ec252e544c77097a6b94c9a0cab6ff4bfa068b5edf83e6da563\n      dup2\n      mstore\n      pop\n      0x20\n      add\n      dup5\n      0xff\n      and\n      0xff\n      and\n      dup2\n      mstore\n      0x20\n      add\n      dup4\n      not(0x0)\n      and\n      not(0x0)\n      and\n      dup2\n      mstore\n      0x20\n      add\n      dup3\n      not(0x0)\n      and\n      not(0x0)\n      and\n      dup2\n      mstore\n      0x20\n      add\n      swap4\n      pop\n      pop\n      pop\n      pop\n      0x20\n      mload(0x40)\n      0x20\n      dup2\n      sub\n      swap1\n      dup1\n      dup5\n      sub\n      swap1\n      0x0\n      dup7\n      gas\n      call\n      iszero\n        /* \"--CODEGEN--\":8:17   */\n      dup1\n        /* \"--CODEGEN--\":5:7   */\n      iszero\n      tag_31\n      jumpi\n        /* \"--CODEGEN--\":45:61   */\n      returndatasize\n        /* \"--CODEGEN--\":42:43   */\n      0x0\n        /* \"--CODEGEN--\":39:40   */\n      dup1\n        /* \"--CODEGEN--\":24:62   */\n      returndatacopy\n        /* \"--CODEGEN--\":77:93   */\n      returndatasize\n        /* \"--CODEGEN--\":74:75   */\n      0x0\n        /* \"--CODEGEN--\":67:94   */\n      revert\n        /* \"--CODEGEN--\":5:7   */\n    tag_31:\n        /* \"nft/test.sol\":1248:1337  ecrecover(hex\"f761dd7550224ec252e544c77097a6b94c9a0cab6ff4bfa068b5edf83e6da563\", v, r, s) */\n      pop\n      pop\n      pop\n      mload(sub(mload(0x40), 0x20))\n        /* \"nft/test.sol\":1241:1337  addr = ecrecover(hex\"f761dd7550224ec252e544c77097a6b94c9a0cab6ff4bfa068b5edf83e6da563\", v, r, s) */\n      swap2\n      pop\n        /* \"nft/test.sol\":1123:1343  function ecrecoverDecode(bytes32 r, bytes32 s, byte v1) returns (address addr){\r... */\n      pop\n      swap4\n      swap3\n      pop\n      pop\n      pop\n      jump\t// out\n        /* \"nft/test.sol\":1376:1517  function bytesToBytes32(bytes memory source) returns (bytes32 result) {\r... */\n    tag_15:\n        /* \"nft/test.sol\":1430:1444  bytes32 result */\n      0x0\n        /* \"nft/test.sol\":1501:1503  32 */\n      0x20\n        /* \"nft/test.sol\":1493:1499  source */\n      dup3\n        /* \"nft/test.sol\":1489:1504  add(source, 32) */\n      add\n        /* \"nft/test.sol\":1483:1505  mload(add(source, 32)) */\n      mload\n        /* \"nft/test.sol\":1473:1505  result := mload(add(source, 32)) */\n      swap1\n      pop\n        /* \"nft/test.sol\":1462:1512  {\r... */\n      swap2\n      swap1\n      pop\n      jump\t// out\n        /* \"nft/test.sol\":398:819  function decode() returns (address){\r... */\n    tag_18:\n        /* \"nft/test.sol\":425:432  address */\n      0x0\n        /* \"nft/test.sol\":440:465  bytes memory signedString */\n      0x60\n        /* \"nft/test.sol\":611:621  bytes32  r */\n      0x0\n        /* \"nft/test.sol\":673:683  bytes32  s */\n      dup1\n        /* \"nft/test.sol\":736:743  byte  v */\n      0x0\n        /* \"nft/test.sol\":440:602  bytes memory signedString =hex\"c6f0926cc935839316144b325ebddcd0a60d16b29b0fbf1dedec47be8c34362f4491e15d2c72ae0598f302d34ee5244cfaf11f81f59b18fa3cbd24705d43e0a001\" */\n      0x80\n      mload(0x40)\n      swap1\n      dup2\n      add\n      0x40\n      mstore\n      dup1\n      0x41\n      dup2\n      mstore\n      0x20\n      add\n      0xc6f0926cc935839316144b325ebddcd0a60d16b29b0fbf1dedec47be8c34362f\n      dup2\n      mstore\n      0x20\n      add\n      0x4491e15d2c72ae0598f302d34ee5244cfaf11f81f59b18fa3cbd24705d43e0a0\n      dup2\n      mstore\n      0x20\n      add\n      0x100000000000000000000000000000000000000000000000000000000000000\n      dup2\n      mstore\n      pop\n      swap4\n      pop\n        /* \"nft/test.sol\":624:666  bytesToBytes32(slice(signedString, 0, 32)) */\n      tag_34\n        /* \"nft/test.sol\":639:665  slice(signedString, 0, 32) */\n      tag_35\n        /* \"nft/test.sol\":645:657  signedString */\n      dup6\n        /* \"nft/test.sol\":659:660  0 */\n      0x0\n        /* \"nft/test.sol\":662:664  32 */\n      0x20\n        /* \"nft/test.sol\":639:644  slice */\n      tag_21\n        /* \"nft/test.sol\":639:665  slice(signedString, 0, 32) */\n      jump\t// in\n    tag_35:\n        /* \"nft/test.sol\":624:638  bytesToBytes32 */\n      tag_15\n        /* \"nft/test.sol\":624:666  bytesToBytes32(slice(signedString, 0, 32)) */\n      jump\t// in\n    tag_34:\n        /* \"nft/test.sol\":611:666  bytes32  r = bytesToBytes32(slice(signedString, 0, 32)) */\n      swap3\n      pop\n        /* \"nft/test.sol\":686:729  bytesToBytes32(slice(signedString, 32, 32)) */\n      tag_36\n        /* \"nft/test.sol\":701:728  slice(signedString, 32, 32) */\n      tag_37\n        /* \"nft/test.sol\":707:719  signedString */\n      dup6\n        /* \"nft/test.sol\":721:723  32 */\n      0x20\n        /* \"nft/test.sol\":725:727  32 */\n      dup1\n        /* \"nft/test.sol\":701:706  slice */\n      tag_21\n        /* \"nft/test.sol\":701:728  slice(signedString, 32, 32) */\n      jump\t// in\n    tag_37:\n        /* \"nft/test.sol\":686:700  bytesToBytes32 */\n      tag_15\n        /* \"nft/test.sol\":686:729  bytesToBytes32(slice(signedString, 32, 32)) */\n      jump\t// in\n    tag_36:\n        /* \"nft/test.sol\":673:729  bytes32  s = bytesToBytes32(slice(signedString, 32, 32)) */\n      swap2\n      pop\n        /* \"nft/test.sol\":746:772  slice(signedString, 64, 1) */\n      tag_38\n        /* \"nft/test.sol\":752:764  signedString */\n      dup5\n        /* \"nft/test.sol\":766:768  64 */\n      0x40\n        /* \"nft/test.sol\":770:771  1 */\n      0x1\n        /* \"nft/test.sol\":746:751  slice */\n      tag_21\n        /* \"nft/test.sol\":746:772  slice(signedString, 64, 1) */\n      jump\t// in\n    tag_38:\n        /* \"nft/test.sol\":773:774  0 */\n      0x0\n        /* \"nft/test.sol\":746:775  slice(signedString, 64, 1)[0] */\n      dup2\n      mload\n      dup2\n      lt\n      iszero\n      iszero\n      tag_39\n      jumpi\n      invalid\n    tag_39:\n      swap1\n      0x20\n      add\n      add\n      mload\n      0x100000000000000000000000000000000000000000000000000000000000000\n      swap1\n      div\n      0x100000000000000000000000000000000000000000000000000000000000000\n      mul\n        /* \"nft/test.sol\":736:775  byte  v = slice(signedString, 64, 1)[0] */\n      swap1\n      pop\n        /* \"nft/test.sol\":789:813  ecrecoverDecode(r, s, v) */\n      tag_40\n        /* \"nft/test.sol\":805:806  r */\n      dup4\n        /* \"nft/test.sol\":808:809  s */\n      dup4\n        /* \"nft/test.sol\":811:812  v */\n      dup4\n        /* \"nft/test.sol\":789:804  ecrecoverDecode */\n      tag_12\n        /* \"nft/test.sol\":789:813  ecrecoverDecode(r, s, v) */\n      jump\t// in\n    tag_40:\n        /* \"nft/test.sol\":782:813  return ecrecoverDecode(r, s, v) */\n      swap5\n      pop\n        /* \"nft/test.sol\":398:819  function decode() returns (address){\r... */\n      pop\n      pop\n      pop\n      pop\n      swap1\n      jump\t// out\n        /* \"nft/test.sol\":876:1084  function slice(bytes memory data, uint start, uint len) returns (bytes){\r... */\n    tag_21:\n        /* \"nft/test.sol\":941:946  bytes */\n      0x60\n        /* \"nft/test.sol\":954:968  bytes memory b */\n      dup1\n        /* \"nft/test.sol\":998:1004  uint i */\n      0x0\n        /* \"nft/test.sol\":981:984  len */\n      dup4\n        /* \"nft/test.sol\":971:985  new bytes(len) */\n      mload(0x40)\n      swap1\n      dup1\n      dup3\n      mstore\n      dup1\n      0x1f\n      add\n      not(0x1f)\n      and\n      0x20\n      add\n      dup3\n      add\n      0x40\n      mstore\n      dup1\n      iszero\n      tag_42\n      jumpi\n      dup2\n      0x20\n      add\n        /* \"--CODEGEN--\":29:31   */\n      0x20\n        /* \"--CODEGEN--\":21:27   */\n      dup3\n        /* \"--CODEGEN--\":17:32   */\n      mul\n        /* \"--CODEGEN--\":117:121   */\n      dup1\n        /* \"--CODEGEN--\":105:115   */\n      codesize\n        /* \"--CODEGEN--\":97:103   */\n      dup4\n        /* \"--CODEGEN--\":88:122   */\n      codecopy\n        /* \"--CODEGEN--\":148:152   */\n      dup1\n        /* \"--CODEGEN--\":140:146   */\n      dup3\n        /* \"--CODEGEN--\":136:153   */\n      add\n        /* \"--CODEGEN--\":126:153   */\n      swap2\n      pop\n        /* \"--CODEGEN--\":0:157   */\n      pop\n        /* \"nft/test.sol\":971:985  new bytes(len) */\n      swap1\n      pop\n    tag_42:\n      pop\n        /* \"nft/test.sol\":954:985  bytes memory b = new bytes(len) */\n      swap2\n      pop\n        /* \"nft/test.sol\":1007:1008  0 */\n      0x0\n        /* \"nft/test.sol\":998:1008  uint i = 0 */\n      swap1\n      pop\n        /* \"nft/test.sol\":994:1062  for(uint i = 0; i < len; i++){\r... */\n    tag_43:\n        /* \"nft/test.sol\":1014:1017  len */\n      dup4\n        /* \"nft/test.sol\":1010:1011  i */\n      dup2\n        /* \"nft/test.sol\":1010:1017  i < len */\n      lt\n        /* \"nft/test.sol\":994:1062  for(uint i = 0; i < len; i++){\r... */\n      iszero\n      tag_44\n      jumpi\n        /* \"nft/test.sol\":1039:1043  data */\n      dup6\n        /* \"nft/test.sol\":1048:1053  start */\n      dup6\n        /* \"nft/test.sol\":1044:1045  i */\n      dup3\n        /* \"nft/test.sol\":1044:1053  i + start */\n      add\n        /* \"nft/test.sol\":1039:1054  data[i + start] */\n      dup2\n      mload\n      dup2\n      lt\n      iszero\n      iszero\n      tag_46\n      jumpi\n      invalid\n    tag_46:\n      swap1\n      0x20\n      add\n      add\n      mload\n      0x100000000000000000000000000000000000000000000000000000000000000\n      swap1\n      div\n      0x100000000000000000000000000000000000000000000000000000000000000\n      mul\n        /* \"nft/test.sol\":1032:1033  b */\n      dup3\n        /* \"nft/test.sol\":1034:1035  i */\n      dup3\n        /* \"nft/test.sol\":1032:1036  b[i] */\n      dup2\n      mload\n      dup2\n      lt\n      iszero\n      iszero\n      tag_47\n      jumpi\n      invalid\n    tag_47:\n      swap1\n      0x20\n      add\n      add\n        /* \"nft/test.sol\":1032:1054  b[i] = data[i + start] */\n      swap1\n      not(0xffffffffffffffffffffffffffffffffffffffffffffffffffffffffffffff)\n      and\n      swap1\n      dup2\n      0x0\n      byte\n      swap1\n      mstore8\n      pop\n        /* \"nft/test.sol\":1019:1022  i++ */\n      dup1\n      dup1\n      0x1\n      add\n      swap2\n      pop\n      pop\n        /* \"nft/test.sol\":994:1062  for(uint i = 0; i < len; i++){\r... */\n      jump(tag_43)\n    tag_44:\n        /* \"nft/test.sol\":1077:1078  b */\n      dup2\n        /* \"nft/test.sol\":1070:1078  return b */\n      swap3\n      pop\n        /* \"nft/test.sol\":876:1084  function slice(bytes memory data, uint start, uint len) returns (bytes){\r... */\n      pop\n      pop\n      swap4\n      swap3\n      pop\n      pop\n      pop\n      jump\t// out\n\n    auxdata: 0xa165627a7a7230582015f9a7cfc211043676783a8808c73d8c8e5b0f5ad4ed10fad7d77ee31efa82e20029\n}\n",
				"bytecode": {
					"linkReferences": {},
					"object": "608060405234801561001057600080fd5b50610662806100206000396000f30060806040526004361061006d576000357c0100000000000000000000000000000000000000000000000000000000900463ffffffff1680634a6661ff146100725780639f9d579314610089578063bfe370d914610134578063c0f8940c146101b9578063e004139614610210575b600080fd5b34801561007e57600080fd5b50610087610306565b005b34801561009557600080fd5b506100f26004803603810190808035600019169060200190929190803560001916906020019092919080357effffffffffffffffffffffffffffffffffffffffffffffffffffffffffffff19169060200190929190505050610328565b604051808273ffffffffffffffffffffffffffffffffffffffff1673ffffffffffffffffffffffffffffffffffffffff16815260200191505060405180910390f35b34801561014057600080fd5b5061019b600480360381019080803590602001908201803590602001908080601f01602080910402602001604051908101604052809392919081815260200183838082843782019150505050505091929192905050506103f7565b60405180826000191660001916815260200191505060405180910390f35b3480156101c557600080fd5b506101ce610405565b604051808273ffffffffffffffffffffffffffffffffffffffff1673ffffffffffffffffffffffffffffffffffffffff16815260200191505060405180910390f35b34801561021c57600080fd5b5061028b600480360381019080803590602001908201803590602001908080601f0160208091040260200160405190810160405280939291908181526020018383808284378201915050505050509192919290803590602001909291908035906020019092919050505061053c565b6040518080602001828103825283818151815260200191508051906020019080838360005b838110156102cb5780820151818401526020810190506102b0565b50505050905090810190601f1680156102f85780820380516001836020036101000a031916815260200191505b509250505060405180910390f35b600080600090505b600a81101561032457808060010191505061030e565b5050565b600080601b837f0100000000000000000000000000000000000000000000000000000000000000900401905060018186866040516000815260200160405260405180807ff761dd7550224ec252e544c77097a6b94c9a0cab6ff4bfa068b5edf83e6da5638152506020018460ff1660ff16815260200183600019166000191681526020018260001916600019168152602001935050505060206040516020810390808403906000865af11580156103e3573d6000803e3d6000fd5b505050602060405103519150509392505050565b600060208201519050919050565b600060606000806000608060405190810160405280604181526020017fc6f0926cc935839316144b325ebddcd0a60d16b29b0fbf1dedec47be8c34362f81526020017f4491e15d2c72ae0598f302d34ee5244cfaf11f81f59b18fa3cbd24705d43e0a081526020017f010000000000000000000000000000000000000000000000000000000000000081525093506104a86104a3856000602061053c565b6103f7565b92506104be6104b98560208061053c565b6103f7565b91506104cd846040600161053c565b60008151811015156104db57fe5b9060200101517f010000000000000000000000000000000000000000000000000000000000000090047f0100000000000000000000000000000000000000000000000000000000000000029050610533838383610328565b94505050505090565b6060806000836040519080825280601f01601f1916602001820160405280156105745781602001602082028038833980820191505090505b509150600090505b8381101561062a578585820181518110151561059457fe5b9060200101517f010000000000000000000000000000000000000000000000000000000000000090047f01000000000000000000000000000000000000000000000000000000000000000282828151811015156105ed57fe5b9060200101907effffffffffffffffffffffffffffffffffffffffffffffffffffffffffffff1916908160001a905350808060010191505061057c565b819250505093925050505600a165627a7a7230582015f9a7cfc211043676783a8808c73d8c8e5b0f5ad4ed10fad7d77ee31efa82e20029",
					"opcodes": "PUSH1 0x80 PUSH1 0x40 MSTORE CALLVALUE DUP1 ISZERO PUSH2 0x10 JUMPI PUSH1 0x0 DUP1 REVERT JUMPDEST POP PUSH2 0x662 DUP1 PUSH2 0x20 PUSH1 0x0 CODECOPY PUSH1 0x0 RETURN STOP PUSH1 0x80 PUSH1 0x40 MSTORE PUSH1 0x4 CALLDATASIZE LT PUSH2 0x6D JUMPI PUSH1 0x0 CALLDATALOAD PUSH29 0x100000000000000000000000000000000000000000000000000000000 SWAP1 DIV PUSH4 0xFFFFFFFF AND DUP1 PUSH4 0x4A6661FF EQ PUSH2 0x72 JUMPI DUP1 PUSH4 0x9F9D5793 EQ PUSH2 0x89 JUMPI DUP1 PUSH4 0xBFE370D9 EQ PUSH2 0x134 JUMPI DUP1 PUSH4 0xC0F8940C EQ PUSH2 0x1B9 JUMPI DUP1 PUSH4 0xE0041396 EQ PUSH2 0x210 JUMPI JUMPDEST PUSH1 0x0 DUP1 REVERT JUMPDEST CALLVALUE DUP1 ISZERO PUSH2 0x7E JUMPI PUSH1 0x0 DUP1 REVERT JUMPDEST POP PUSH2 0x87 PUSH2 0x306 JUMP JUMPDEST STOP JUMPDEST CALLVALUE DUP1 ISZERO PUSH2 0x95 JUMPI PUSH1 0x0 DUP1 REVERT JUMPDEST POP PUSH2 0xF2 PUSH1 0x4 DUP1 CALLDATASIZE SUB DUP2 ADD SWAP1 DUP1 DUP1 CALLDATALOAD PUSH1 0x0 NOT AND SWAP1 PUSH1 0x20 ADD SWAP1 SWAP3 SWAP2 SWAP1 DUP1 CALLDATALOAD PUSH1 0x0 NOT AND SWAP1 PUSH1 0x20 ADD SWAP1 SWAP3 SWAP2 SWAP1 DUP1 CALLDATALOAD PUSH31 0xFFFFFFFFFFFFFFFFFFFFFFFFFFFFFFFFFFFFFFFFFFFFFFFFFFFFFFFFFFFFFF NOT AND SWAP1 PUSH1 0x20 ADD SWAP1 SWAP3 SWAP2 SWAP1 POP POP POP PUSH2 0x328 JUMP JUMPDEST PUSH1 0x40 MLOAD DUP1 DUP3 PUSH20 0xFFFFFFFFFFFFFFFFFFFFFFFFFFFFFFFFFFFFFFFF AND PUSH20 0xFFFFFFFFFFFFFFFFFFFFFFFFFFFFFFFFFFFFFFFF AND DUP2 MSTORE PUSH1 0x20 ADD SWAP2 POP POP PUSH1 0x40 MLOAD DUP1 SWAP2 SUB SWAP1 RETURN JUMPDEST CALLVALUE DUP1 ISZERO PUSH2 0x140 JUMPI PUSH1 0x0 DUP1 REVERT JUMPDEST POP PUSH2 0x19B PUSH1 0x4 DUP1 CALLDATASIZE SUB DUP2 ADD SWAP1 DUP1 DUP1 CALLDATALOAD SWAP1 PUSH1 0x20 ADD SWAP1 DUP3 ADD DUP1 CALLDATALOAD SWAP1 PUSH1 0x20 ADD SWAP1 DUP1 DUP1 PUSH1 0x1F ADD PUSH1 0x20 DUP1 SWAP2 DIV MUL PUSH1 0x20 ADD PUSH1 0x40 MLOAD SWAP1 DUP2 ADD PUSH1 0x40 MSTORE DUP1 SWAP4 SWAP3 SWAP2 SWAP1 DUP2 DUP2 MSTORE PUSH1 0x20 ADD DUP4 DUP4 DUP1 DUP3 DUP5 CALLDATACOPY DUP3 ADD SWAP2 POP POP POP POP POP POP SWAP2 SWAP3 SWAP2 SWAP3 SWAP1 POP POP POP PUSH2 0x3F7 JUMP JUMPDEST PUSH1 0x40 MLOAD DUP1 DUP3 PUSH1 0x0 NOT AND PUSH1 0x0 NOT AND DUP2 MSTORE PUSH1 0x20 ADD SWAP2 POP POP PUSH1 0x40 MLOAD DUP1 SWAP2 SUB SWAP1 RETURN JUMPDEST CALLVALUE DUP1 ISZERO PUSH2 0x1C5 JUMPI PUSH1 0x0 DUP1 REVERT JUMPDEST POP PUSH2 0x1CE PUSH2 0x405 JUMP JUMPDEST PUSH1 0x40 MLOAD DUP1 DUP3 PUSH20 0xFFFFFFFFFFFFFFFFFFFFFFFFFFFFFFFFFFFFFFFF AND PUSH20 0xFFFFFFFFFFFFFFFFFFFFFFFFFFFFFFFFFFFFFFFF AND DUP2 MSTORE PUSH1 0x20 ADD SWAP2 POP POP PUSH1 0x40 MLOAD DUP1 SWAP2 SUB SWAP1 RETURN JUMPDEST CALLVALUE DUP1 ISZERO PUSH2 0x21C JUMPI PUSH1 0x0 DUP1 REVERT JUMPDEST POP PUSH2 0x28B PUSH1 0x4 DUP1 CALLDATASIZE SUB DUP2 ADD SWAP1 DUP1 DUP1 CALLDATALOAD SWAP1 PUSH1 0x20 ADD SWAP1 DUP3 ADD DUP1 CALLDATALOAD SWAP1 PUSH1 0x20 ADD SWAP1 DUP1 DUP1 PUSH1 0x1F ADD PUSH1 0x20 DUP1 SWAP2 DIV MUL PUSH1 0x20 ADD PUSH1 0x40 MLOAD SWAP1 DUP2 ADD PUSH1 0x40 MSTORE DUP1 SWAP4 SWAP3 SWAP2 SWAP1 DUP2 DUP2 MSTORE PUSH1 0x20 ADD DUP4 DUP4 DUP1 DUP3 DUP5 CALLDATACOPY DUP3 ADD SWAP2 POP POP POP POP POP POP SWAP2 SWAP3 SWAP2 SWAP3 SWAP1 DUP1 CALLDATALOAD SWAP1 PUSH1 0x20 ADD SWAP1 SWAP3 SWAP2 SWAP1 DUP1 CALLDATALOAD SWAP1 PUSH1 0x20 ADD SWAP1 SWAP3 SWAP2 SWAP1 POP POP POP PUSH2 0x53C JUMP JUMPDEST PUSH1 0x40 MLOAD DUP1 DUP1 PUSH1 0x20 ADD DUP3 DUP2 SUB DUP3 MSTORE DUP4 DUP2 DUP2 MLOAD DUP2 MSTORE PUSH1 0x20 ADD SWAP2 POP DUP1 MLOAD SWAP1 PUSH1 0x20 ADD SWAP1 DUP1 DUP4 DUP4 PUSH1 0x0 JUMPDEST DUP4 DUP2 LT ISZERO PUSH2 0x2CB JUMPI DUP1 DUP3 ADD MLOAD DUP2 DUP5 ADD MSTORE PUSH1 0x20 DUP2 ADD SWAP1 POP PUSH2 0x2B0 JUMP JUMPDEST POP POP POP POP SWAP1 POP SWAP1 DUP2 ADD SWAP1 PUSH1 0x1F AND DUP1 ISZERO PUSH2 0x2F8 JUMPI DUP1 DUP3 SUB DUP1 MLOAD PUSH1 0x1 DUP4 PUSH1 0x20 SUB PUSH2 0x100 EXP SUB NOT AND DUP2 MSTORE PUSH1 0x20 ADD SWAP2 POP JUMPDEST POP SWAP3 POP POP POP PUSH1 0x40 MLOAD DUP1 SWAP2 SUB SWAP1 RETURN JUMPDEST PUSH1 0x0 DUP1 PUSH1 0x0 SWAP1 POP JUMPDEST PUSH1 0xA DUP2 LT ISZERO PUSH2 0x324 JUMPI DUP1 DUP1 PUSH1 0x1 ADD SWAP2 POP POP PUSH2 0x30E JUMP JUMPDEST POP POP JUMP JUMPDEST PUSH1 0x0 DUP1 PUSH1 0x1B DUP4 PUSH32 0x100000000000000000000000000000000000000000000000000000000000000 SWAP1 DIV ADD SWAP1 POP PUSH1 0x1 DUP2 DUP7 DUP7 PUSH1 0x40 MLOAD PUSH1 0x0 DUP2 MSTORE PUSH1 0x20 ADD PUSH1 0x40 MSTORE PUSH1 0x40 MLOAD DUP1 DUP1 PUSH32 0xF761DD7550224EC252E544C77097A6B94C9A0CAB6FF4BFA068B5EDF83E6DA563 DUP2 MSTORE POP PUSH1 0x20 ADD DUP5 PUSH1 0xFF AND PUSH1 0xFF AND DUP2 MSTORE PUSH1 0x20 ADD DUP4 PUSH1 0x0 NOT AND PUSH1 0x0 NOT AND DUP2 MSTORE PUSH1 0x20 ADD DUP3 PUSH1 0x0 NOT AND PUSH1 0x0 NOT AND DUP2 MSTORE PUSH1 0x20 ADD SWAP4 POP POP POP POP PUSH1 0x20 PUSH1 0x40 MLOAD PUSH1 0x20 DUP2 SUB SWAP1 DUP1 DUP5 SUB SWAP1 PUSH1 0x0 DUP7 GAS CALL ISZERO DUP1 ISZERO PUSH2 0x3E3 JUMPI RETURNDATASIZE PUSH1 0x0 DUP1 RETURNDATACOPY RETURNDATASIZE PUSH1 0x0 REVERT JUMPDEST POP POP POP PUSH1 0x20 PUSH1 0x40 MLOAD SUB MLOAD SWAP2 POP POP SWAP4 SWAP3 POP POP POP JUMP JUMPDEST PUSH1 0x0 PUSH1 0x20 DUP3 ADD MLOAD SWAP1 POP SWAP2 SWAP1 POP JUMP JUMPDEST PUSH1 0x0 PUSH1 0x60 PUSH1 0x0 DUP1 PUSH1 0x0 PUSH1 0x80 PUSH1 0x40 MLOAD SWAP1 DUP2 ADD PUSH1 0x40 MSTORE DUP1 PUSH1 0x41 DUP2 MSTORE PUSH1 0x20 ADD PUSH32 0xC6F0926CC935839316144B325EBDDCD0A60D16B29B0FBF1DEDEC47BE8C34362F DUP2 MSTORE PUSH1 0x20 ADD PUSH32 0x4491E15D2C72AE0598F302D34EE5244CFAF11F81F59B18FA3CBD24705D43E0A0 DUP2 MSTORE PUSH1 0x20 ADD PUSH32 0x100000000000000000000000000000000000000000000000000000000000000 DUP2 MSTORE POP SWAP4 POP PUSH2 0x4A8 PUSH2 0x4A3 DUP6 PUSH1 0x0 PUSH1 0x20 PUSH2 0x53C JUMP JUMPDEST PUSH2 0x3F7 JUMP JUMPDEST SWAP3 POP PUSH2 0x4BE PUSH2 0x4B9 DUP6 PUSH1 0x20 DUP1 PUSH2 0x53C JUMP JUMPDEST PUSH2 0x3F7 JUMP JUMPDEST SWAP2 POP PUSH2 0x4CD DUP5 PUSH1 0x40 PUSH1 0x1 PUSH2 0x53C JUMP JUMPDEST PUSH1 0x0 DUP2 MLOAD DUP2 LT ISZERO ISZERO PUSH2 0x4DB JUMPI INVALID JUMPDEST SWAP1 PUSH1 0x20 ADD ADD MLOAD PUSH32 0x100000000000000000000000000000000000000000000000000000000000000 SWAP1 DIV PUSH32 0x100000000000000000000000000000000000000000000000000000000000000 MUL SWAP1 POP PUSH2 0x533 DUP4 DUP4 DUP4 PUSH2 0x328 JUMP JUMPDEST SWAP5 POP POP POP POP POP SWAP1 JUMP JUMPDEST PUSH1 0x60 DUP1 PUSH1 0x0 DUP4 PUSH1 0x40 MLOAD SWAP1 DUP1 DUP3 MSTORE DUP1 PUSH1 0x1F ADD PUSH1 0x1F NOT AND PUSH1 0x20 ADD DUP3 ADD PUSH1 0x40 MSTORE DUP1 ISZERO PUSH2 0x574 JUMPI DUP2 PUSH1 0x20 ADD PUSH1 0x20 DUP3 MUL DUP1 CODESIZE DUP4 CODECOPY DUP1 DUP3 ADD SWAP2 POP POP SWAP1 POP JUMPDEST POP SWAP2 POP PUSH1 0x0 SWAP1 POP JUMPDEST DUP4 DUP2 LT ISZERO PUSH2 0x62A JUMPI DUP6 DUP6 DUP3 ADD DUP2 MLOAD DUP2 LT ISZERO ISZERO PUSH2 0x594 JUMPI INVALID JUMPDEST SWAP1 PUSH1 0x20 ADD ADD MLOAD PUSH32 0x100000000000000000000000000000000000000000000000000000000000000 SWAP1 DIV PUSH32 0x100000000000000000000000000000000000000000000000000000000000000 MUL DUP3 DUP3 DUP2 MLOAD DUP2 LT ISZERO ISZERO PUSH2 0x5ED JUMPI INVALID JUMPDEST SWAP1 PUSH1 0x20 ADD ADD SWAP1 PUSH31 0xFFFFFFFFFFFFFFFFFFFFFFFFFFFFFFFFFFFFFFFFFFFFFFFFFFFFFFFFFFFFFF NOT AND SWAP1 DUP2 PUSH1 0x0 BYTE SWAP1 MSTORE8 POP DUP1 DUP1 PUSH1 0x1 ADD SWAP2 POP POP PUSH2 0x57C JUMP JUMPDEST DUP2 SWAP3 POP POP POP SWAP4 SWAP3 POP POP POP JUMP STOP LOG1 PUSH6 0x627A7A723058 KECCAK256 ISZERO 0xf9 0xa7 0xcf 0xc2 GT DIV CALLDATASIZE PUSH23 0x783A8808C73D8C8E5B0F5AD4ED10FAD7D77EE31EFA82E2 STOP 0x29 "
				},
				"gasEstimates": {
					"creation": {
						"codeDepositCost": "326800",
						"executionCost": "368",
						"totalCost": "327168"
					},
					"external": {
						"bytesToBytes32(bytes)": "infinite",
						"decode()": "infinite",
						"ecrecoverDecode(bytes32,bytes32,bytes1)": "infinite",
						"slice(bytes,uint256,uint256)": "infinite",
						"testGas()": "infinite"
					}
				},
				"methodIdentifiers": {
					"bytesToBytes32(bytes)": "bfe370d9",
					"decode()": "c0f8940c",
					"ecrecoverDecode(bytes32,bytes32,bytes1)": "9f9d5793",
					"slice(bytes,uint256,uint256)": "e0041396",
					"testGas()": "4a6661ff"
				}
			},
			"userdoc": {
				"methods": {}
			}
		}
	}
}