{
	"nft/SignatureDemo.sol": {
		"VerifySignature": {
			"abi": [
				{
					"inputs": [
						{
							"internalType": "bytes32",
							"name": "_messageHash",
							"type": "bytes32"
						}
					],
					"name": "getEthSignedMessageHash",
					"outputs": [
						{
							"internalType": "bytes32",
							"name": "",
							"type": "bytes32"
						}
					],
					"stateMutability": "pure",
					"type": "function"
				},
				{
					"inputs": [
						{
							"internalType": "address",
							"name": "_to",
							"type": "address"
						},
						{
							"internalType": "uint256",
							"name": "_amount",
							"type": "uint256"
						},
						{
							"internalType": "string",
							"name": "_message",
							"type": "string"
						},
						{
							"internalType": "uint256",
							"name": "_nonce",
							"type": "uint256"
						}
					],
					"name": "getMessageHash",
					"outputs": [
						{
							"internalType": "bytes32",
							"name": "",
							"type": "bytes32"
						}
					],
					"stateMutability": "pure",
					"type": "function"
				},
				{
					"inputs": [
						{
							"internalType": "bytes32",
							"name": "_ethSignedMessageHash",
							"type": "bytes32"
						},
						{
							"internalType": "bytes",
							"name": "_signature",
							"type": "bytes"
						}
					],
					"name": "recoverSigner",
					"outputs": [
						{
							"internalType": "address",
							"name": "",
							"type": "address"
						}
					],
					"stateMutability": "pure",
					"type": "function"
				},
				{
					"inputs": [
						{
							"internalType": "bytes",
							"name": "sig",
							"type": "bytes"
						}
					],
					"name": "splitSignature",
					"outputs": [
						{
							"internalType": "bytes32",
							"name": "r",
							"type": "bytes32"
						},
						{
							"internalType": "bytes32",
							"name": "s",
							"type": "bytes32"
						},
						{
							"internalType": "uint8",
							"name": "v",
							"type": "uint8"
						}
					],
					"stateMutability": "pure",
					"type": "function"
				},
				{
					"inputs": [
						{
							"internalType": "address",
							"name": "_signer",
							"type": "address"
						},
						{
							"internalType": "address",
							"name": "_to",
							"type": "address"
						},
						{
							"internalType": "uint256",
							"name": "_amount",
							"type": "uint256"
						},
						{
							"internalType": "string",
							"name": "_message",
							"type": "string"
						},
						{
							"internalType": "uint256",
							"name": "_nonce",
							"type": "uint256"
						},
						{
							"internalType": "bytes",
							"name": "signature",
							"type": "bytes"
						}
					],
					"name": "verify",
					"outputs": [
						{
							"internalType": "bool",
							"name": "",
							"type": "bool"
						}
					],
					"stateMutability": "pure",
					"type": "function"
				}
			],
			"devdoc": {
				"kind": "dev",
				"methods": {},
				"version": 1
			},
			"evm": {
				"assembly": "    /* \"nft/SignatureDemo.sol\":385:3944  contract VerifySignature {... */\n  mstore(0x40, 0x80)\n  callvalue\n  dup1\n  iszero\n  tag_1\n  jumpi\n  0x00\n  dup1\n  revert\ntag_1:\n  pop\n  dataSize(sub_0)\n  dup1\n  dataOffset(sub_0)\n  0x00\n  codecopy\n  0x00\n  return\nstop\n\nsub_0: assembly {\n        /* \"nft/SignatureDemo.sol\":385:3944  contract VerifySignature {... */\n      mstore(0x40, 0x80)\n      callvalue\n      dup1\n      iszero\n      tag_1\n      jumpi\n      0x00\n      dup1\n      revert\n    tag_1:\n      pop\n      jumpi(tag_2, lt(calldatasize, 0x04))\n      shr(0xe0, calldataload(0x00))\n      dup1\n      0x97aba7f9\n      eq\n      tag_3\n      jumpi\n      dup1\n      0xa35f8a40\n      eq\n      tag_4\n      jumpi\n      dup1\n      0xa7bb5803\n      eq\n      tag_5\n      jumpi\n      dup1\n      0xabe5026a\n      eq\n      tag_6\n      jumpi\n      dup1\n      0xfa540801\n      eq\n      tag_7\n      jumpi\n    tag_2:\n      0x00\n      dup1\n      revert\n        /* \"nft/SignatureDemo.sol\":2761:3042  function recoverSigner(bytes32 _ethSignedMessageHash, bytes memory _signature)... */\n    tag_3:\n      tag_8\n      0x04\n      dup1\n      calldatasize\n      sub\n      dup2\n      add\n      swap1\n      tag_9\n      swap2\n      swap1\n      tag_10\n      jump\t// in\n    tag_9:\n      tag_11\n      jump\t// in\n    tag_8:\n      mload(0x40)\n      tag_12\n      swap2\n      swap1\n      tag_13\n      jump\t// in\n    tag_12:\n      mload(0x40)\n      dup1\n      swap2\n      sub\n      swap1\n      return\n        /* \"nft/SignatureDemo.sol\":748:994  function getMessageHash(... */\n    tag_4:\n      tag_14\n      0x04\n      dup1\n      calldatasize\n      sub\n      dup2\n      add\n      swap1\n      tag_15\n      swap2\n      swap1\n      tag_16\n      jump\t// in\n    tag_15:\n      tag_17\n      jump\t// in\n    tag_14:\n      mload(0x40)\n      tag_18\n      swap2\n      swap1\n      tag_19\n      jump\t// in\n    tag_18:\n      mload(0x40)\n      dup1\n      swap2\n      sub\n      swap1\n      return\n        /* \"nft/SignatureDemo.sol\":3050:3941  function splitSignature(bytes memory sig)... */\n    tag_5:\n      tag_20\n      0x04\n      dup1\n      calldatasize\n      sub\n      dup2\n      add\n      swap1\n      tag_21\n      swap2\n      swap1\n      tag_22\n      jump\t// in\n    tag_21:\n      tag_23\n      jump\t// in\n    tag_20:\n      mload(0x40)\n      tag_24\n      swap4\n      swap3\n      swap2\n      swap1\n      tag_25\n      jump\t// in\n    tag_24:\n      mload(0x40)\n      dup1\n      swap2\n      sub\n      swap1\n      return\n        /* \"nft/SignatureDemo.sol\":2302:2753  function verify(... */\n    tag_6:\n      tag_26\n      0x04\n      dup1\n      calldatasize\n      sub\n      dup2\n      add\n      swap1\n      tag_27\n      swap2\n      swap1\n      tag_28\n      jump\t// in\n    tag_27:\n      tag_29\n      jump\t// in\n    tag_26:\n      mload(0x40)\n      tag_30\n      swap2\n      swap1\n      tag_31\n      jump\t// in\n    tag_30:\n      mload(0x40)\n      dup1\n      swap2\n      sub\n      swap1\n      return\n        /* \"nft/SignatureDemo.sol\":1488:1921  function getEthSignedMessageHash(bytes32 _messageHash)... */\n    tag_7:\n      tag_32\n      0x04\n      dup1\n      calldatasize\n      sub\n      dup2\n      add\n      swap1\n      tag_33\n      swap2\n      swap1\n      tag_34\n      jump\t// in\n    tag_33:\n      tag_35\n      jump\t// in\n    tag_32:\n      mload(0x40)\n      tag_36\n      swap2\n      swap1\n      tag_19\n      jump\t// in\n    tag_36:\n      mload(0x40)\n      dup1\n      swap2\n      sub\n      swap1\n      return\n        /* \"nft/SignatureDemo.sol\":2761:3042  function recoverSigner(bytes32 _ethSignedMessageHash, bytes memory _signature)... */\n    tag_11:\n        /* \"nft/SignatureDemo.sol\":2888:2895  address */\n      0x00\n        /* \"nft/SignatureDemo.sol\":2914:2923  bytes32 r */\n      dup1\n        /* \"nft/SignatureDemo.sol\":2925:2934  bytes32 s */\n      0x00\n        /* \"nft/SignatureDemo.sol\":2936:2943  uint8 v */\n      dup1\n        /* \"nft/SignatureDemo.sol\":2947:2973  splitSignature(_signature) */\n      tag_38\n        /* \"nft/SignatureDemo.sol\":2962:2972  _signature */\n      dup6\n        /* \"nft/SignatureDemo.sol\":2947:2961  splitSignature */\n      tag_23\n        /* \"nft/SignatureDemo.sol\":2947:2973  splitSignature(_signature) */\n      jump\t// in\n    tag_38:\n        /* \"nft/SignatureDemo.sol\":2913:2973  (bytes32 r, bytes32 s, uint8 v) = splitSignature(_signature) */\n      swap3\n      pop\n      swap3\n      pop\n      swap3\n      pop\n        /* \"nft/SignatureDemo.sol\":2993:3034  ecrecover(_ethSignedMessageHash, v, r, s) */\n      0x01\n        /* \"nft/SignatureDemo.sol\":3003:3024  _ethSignedMessageHash */\n      dup7\n        /* \"nft/SignatureDemo.sol\":3026:3027  v */\n      dup3\n        /* \"nft/SignatureDemo.sol\":3029:3030  r */\n      dup6\n        /* \"nft/SignatureDemo.sol\":3032:3033  s */\n      dup6\n        /* \"nft/SignatureDemo.sol\":2993:3034  ecrecover(_ethSignedMessageHash, v, r, s) */\n      mload(0x40)\n      0x00\n      dup2\n      mstore\n      0x20\n      add\n      0x40\n      mstore\n      mload(0x40)\n      tag_39\n      swap5\n      swap4\n      swap3\n      swap2\n      swap1\n      tag_40\n      jump\t// in\n    tag_39:\n      0x20\n      mload(0x40)\n      0x20\n      dup2\n      sub\n      swap1\n      dup1\n      dup5\n      sub\n      swap1\n      dup6\n      gas\n      staticcall\n      iszero\n      dup1\n      iszero\n      tag_42\n      jumpi\n      returndatasize\n      0x00\n      dup1\n      returndatacopy\n      revert(0x00, returndatasize)\n    tag_42:\n      pop\n      pop\n      pop\n      mload(sub(mload(0x40), 0x20))\n        /* \"nft/SignatureDemo.sol\":2986:3034  return ecrecover(_ethSignedMessageHash, v, r, s) */\n      swap4\n      pop\n      pop\n      pop\n      pop\n        /* \"nft/SignatureDemo.sol\":2761:3042  function recoverSigner(bytes32 _ethSignedMessageHash, bytes memory _signature)... */\n      swap3\n      swap2\n      pop\n      pop\n      jump\t// out\n        /* \"nft/SignatureDemo.sol\":748:994  function getMessageHash(... */\n    tag_17:\n        /* \"nft/SignatureDemo.sol\":900:907  bytes32 */\n      0x00\n        /* \"nft/SignatureDemo.sol\":954:957  _to */\n      dup5\n        /* \"nft/SignatureDemo.sol\":959:966  _amount */\n      dup5\n        /* \"nft/SignatureDemo.sol\":968:976  _message */\n      dup5\n        /* \"nft/SignatureDemo.sol\":978:984  _nonce */\n      dup5\n        /* \"nft/SignatureDemo.sol\":937:985  abi.encodePacked(_to, _amount, _message, _nonce) */\n      add(0x20, mload(0x40))\n      tag_44\n      swap5\n      swap4\n      swap3\n      swap2\n      swap1\n      tag_45\n      jump\t// in\n    tag_44:\n      mload(0x40)\n      0x20\n      dup2\n      dup4\n      sub\n      sub\n      dup2\n      mstore\n      swap1\n      0x40\n      mstore\n        /* \"nft/SignatureDemo.sol\":927:986  keccak256(abi.encodePacked(_to, _amount, _message, _nonce)) */\n      dup1\n      mload\n      swap1\n      0x20\n      add\n      keccak256\n        /* \"nft/SignatureDemo.sol\":920:986  return keccak256(abi.encodePacked(_to, _amount, _message, _nonce)) */\n      swap1\n      pop\n        /* \"nft/SignatureDemo.sol\":748:994  function getMessageHash(... */\n      swap5\n      swap4\n      pop\n      pop\n      pop\n      pop\n      jump\t// out\n        /* \"nft/SignatureDemo.sol\":3050:3941  function splitSignature(bytes memory sig)... */\n    tag_23:\n        /* \"nft/SignatureDemo.sol\":3154:3163  bytes32 r */\n      0x00\n        /* \"nft/SignatureDemo.sol\":3178:3187  bytes32 s */\n      dup1\n        /* \"nft/SignatureDemo.sol\":3202:3209  uint8 v */\n      0x00\n        /* \"nft/SignatureDemo.sol\":3259:3261  65 */\n      0x41\n        /* \"nft/SignatureDemo.sol\":3245:3248  sig */\n      dup5\n        /* \"nft/SignatureDemo.sol\":3245:3255  sig.length */\n      mload\n        /* \"nft/SignatureDemo.sol\":3245:3261  sig.length == 65 */\n      eq\n        /* \"nft/SignatureDemo.sol\":3237:3290  require(sig.length == 65, \"invalid signature length\") */\n      tag_47\n      jumpi\n      mload(0x40)\n      0x08c379a000000000000000000000000000000000000000000000000000000000\n      dup2\n      mstore\n      0x04\n      add\n      tag_48\n      swap1\n      tag_49\n      jump\t// in\n    tag_48:\n      mload(0x40)\n      dup1\n      swap2\n      sub\n      swap1\n      revert\n    tag_47:\n        /* \"nft/SignatureDemo.sol\":3699:3701  32 */\n      0x20\n        /* \"nft/SignatureDemo.sol\":3694:3697  sig */\n      dup5\n        /* \"nft/SignatureDemo.sol\":3690:3702  add(sig, 32) */\n      add\n        /* \"nft/SignatureDemo.sol\":3684:3703  mload(add(sig, 32)) */\n      mload\n        /* \"nft/SignatureDemo.sol\":3679:3703  r := mload(add(sig, 32)) */\n      swap3\n      pop\n        /* \"nft/SignatureDemo.sol\":3769:3771  64 */\n      0x40\n        /* \"nft/SignatureDemo.sol\":3764:3767  sig */\n      dup5\n        /* \"nft/SignatureDemo.sol\":3760:3772  add(sig, 64) */\n      add\n        /* \"nft/SignatureDemo.sol\":3754:3773  mload(add(sig, 64)) */\n      mload\n        /* \"nft/SignatureDemo.sol\":3749:3773  s := mload(add(sig, 64)) */\n      swap2\n      pop\n        /* \"nft/SignatureDemo.sol\":3876:3878  96 */\n      0x60\n        /* \"nft/SignatureDemo.sol\":3871:3874  sig */\n      dup5\n        /* \"nft/SignatureDemo.sol\":3867:3879  add(sig, 96) */\n      add\n        /* \"nft/SignatureDemo.sol\":3861:3880  mload(add(sig, 96)) */\n      mload\n        /* \"nft/SignatureDemo.sol\":3858:3859  0 */\n      0x00\n        /* \"nft/SignatureDemo.sol\":3853:3881  byte(0, mload(add(sig, 96))) */\n      byte\n        /* \"nft/SignatureDemo.sol\":3848:3881  v := byte(0, mload(add(sig, 96))) */\n      swap1\n      pop\n        /* \"nft/SignatureDemo.sol\":3050:3941  function splitSignature(bytes memory sig)... */\n      swap2\n      swap4\n      swap1\n      swap3\n      pop\n      jump\t// out\n        /* \"nft/SignatureDemo.sol\":2302:2753  function verify(... */\n    tag_29:\n        /* \"nft/SignatureDemo.sol\":2505:2509  bool */\n      0x00\n        /* \"nft/SignatureDemo.sol\":2522:2541  bytes32 messageHash */\n      dup1\n        /* \"nft/SignatureDemo.sol\":2544:2590  getMessageHash(_to, _amount, _message, _nonce) */\n      tag_51\n        /* \"nft/SignatureDemo.sol\":2559:2562  _to */\n      dup8\n        /* \"nft/SignatureDemo.sol\":2564:2571  _amount */\n      dup8\n        /* \"nft/SignatureDemo.sol\":2573:2581  _message */\n      dup8\n        /* \"nft/SignatureDemo.sol\":2583:2589  _nonce */\n      dup8\n        /* \"nft/SignatureDemo.sol\":2544:2558  getMessageHash */\n      tag_17\n        /* \"nft/SignatureDemo.sol\":2544:2590  getMessageHash(_to, _amount, _message, _nonce) */\n      jump\t// in\n    tag_51:\n        /* \"nft/SignatureDemo.sol\":2522:2590  bytes32 messageHash = getMessageHash(_to, _amount, _message, _nonce) */\n      swap1\n      pop\n        /* \"nft/SignatureDemo.sol\":2601:2629  bytes32 ethSignedMessageHash */\n      0x00\n        /* \"nft/SignatureDemo.sol\":2632:2668  getEthSignedMessageHash(messageHash) */\n      tag_52\n        /* \"nft/SignatureDemo.sol\":2656:2667  messageHash */\n      dup3\n        /* \"nft/SignatureDemo.sol\":2632:2655  getEthSignedMessageHash */\n      tag_35\n        /* \"nft/SignatureDemo.sol\":2632:2668  getEthSignedMessageHash(messageHash) */\n      jump\t// in\n    tag_52:\n        /* \"nft/SignatureDemo.sol\":2601:2668  bytes32 ethSignedMessageHash = getEthSignedMessageHash(messageHash) */\n      swap1\n      pop\n        /* \"nft/SignatureDemo.sol\":2738:2745  _signer */\n      dup9\n        /* \"nft/SignatureDemo.sol\":2688:2745  recoverSigner(ethSignedMessageHash, signature) == _signer */\n      0xffffffffffffffffffffffffffffffffffffffff\n      and\n        /* \"nft/SignatureDemo.sol\":2688:2734  recoverSigner(ethSignedMessageHash, signature) */\n      tag_53\n        /* \"nft/SignatureDemo.sol\":2702:2722  ethSignedMessageHash */\n      dup3\n        /* \"nft/SignatureDemo.sol\":2724:2733  signature */\n      dup7\n        /* \"nft/SignatureDemo.sol\":2688:2701  recoverSigner */\n      tag_11\n        /* \"nft/SignatureDemo.sol\":2688:2734  recoverSigner(ethSignedMessageHash, signature) */\n      jump\t// in\n    tag_53:\n        /* \"nft/SignatureDemo.sol\":2688:2745  recoverSigner(ethSignedMessageHash, signature) == _signer */\n      0xffffffffffffffffffffffffffffffffffffffff\n      and\n      eq\n        /* \"nft/SignatureDemo.sol\":2681:2745  return recoverSigner(ethSignedMessageHash, signature) == _signer */\n      swap3\n      pop\n      pop\n      pop\n        /* \"nft/SignatureDemo.sol\":2302:2753  function verify(... */\n      swap7\n      swap6\n      pop\n      pop\n      pop\n      pop\n      pop\n      pop\n      jump\t// out\n        /* \"nft/SignatureDemo.sol\":1488:1921  function getEthSignedMessageHash(bytes32 _messageHash)... */\n    tag_35:\n        /* \"nft/SignatureDemo.sol\":1591:1598  bytes32 */\n      0x00\n        /* \"nft/SignatureDemo.sol\":1885:1897  _messageHash */\n      dup2\n        /* \"nft/SignatureDemo.sol\":1832:1898  abi.encodePacked(\"\\x19Ethereum Signed Message:\\n32\", _messageHash) */\n      add(0x20, mload(0x40))\n      tag_55\n      swap2\n      swap1\n      tag_56\n      jump\t// in\n    tag_55:\n      mload(0x40)\n      0x20\n      dup2\n      dup4\n      sub\n      sub\n      dup2\n      mstore\n      swap1\n      0x40\n      mstore\n        /* \"nft/SignatureDemo.sol\":1804:1913  keccak256(... */\n      dup1\n      mload\n      swap1\n      0x20\n      add\n      keccak256\n        /* \"nft/SignatureDemo.sol\":1784:1913  return... */\n      swap1\n      pop\n        /* \"nft/SignatureDemo.sol\":1488:1921  function getEthSignedMessageHash(bytes32 _messageHash)... */\n      swap2\n      swap1\n      pop\n      jump\t// out\n        /* \"#utility.yul\":7:82   */\n    tag_57:\n        /* \"#utility.yul\":40:46   */\n      0x00\n        /* \"#utility.yul\":73:75   */\n      0x40\n        /* \"#utility.yul\":67:76   */\n      mload\n        /* \"#utility.yul\":57:76   */\n      swap1\n      pop\n        /* \"#utility.yul\":7:82   */\n      swap1\n      jump\t// out\n        /* \"#utility.yul\":88:205   */\n    tag_58:\n        /* \"#utility.yul\":197:198   */\n      0x00\n        /* \"#utility.yul\":194:195   */\n      dup1\n        /* \"#utility.yul\":187:199   */\n      revert\n        /* \"#utility.yul\":211:328   */\n    tag_59:\n        /* \"#utility.yul\":320:321   */\n      0x00\n        /* \"#utility.yul\":317:318   */\n      dup1\n        /* \"#utility.yul\":310:322   */\n      revert\n        /* \"#utility.yul\":334:411   */\n    tag_60:\n        /* \"#utility.yul\":371:378   */\n      0x00\n        /* \"#utility.yul\":400:405   */\n      dup2\n        /* \"#utility.yul\":389:405   */\n      swap1\n      pop\n        /* \"#utility.yul\":334:411   */\n      swap2\n      swap1\n      pop\n      jump\t// out\n        /* \"#utility.yul\":417:539   */\n    tag_61:\n        /* \"#utility.yul\":490:514   */\n      tag_112\n        /* \"#utility.yul\":508:513   */\n      dup2\n        /* \"#utility.yul\":490:514   */\n      tag_60\n      jump\t// in\n    tag_112:\n        /* \"#utility.yul\":483:488   */\n      dup2\n        /* \"#utility.yul\":480:515   */\n      eq\n        /* \"#utility.yul\":470:533   */\n      tag_113\n      jumpi\n        /* \"#utility.yul\":529:530   */\n      0x00\n        /* \"#utility.yul\":526:527   */\n      dup1\n        /* \"#utility.yul\":519:531   */\n      revert\n        /* \"#utility.yul\":470:533   */\n    tag_113:\n        /* \"#utility.yul\":417:539   */\n      pop\n      jump\t// out\n        /* \"#utility.yul\":545:684   */\n    tag_62:\n        /* \"#utility.yul\":591:596   */\n      0x00\n        /* \"#utility.yul\":629:635   */\n      dup2\n        /* \"#utility.yul\":616:636   */\n      calldataload\n        /* \"#utility.yul\":607:636   */\n      swap1\n      pop\n        /* \"#utility.yul\":645:678   */\n      tag_115\n        /* \"#utility.yul\":672:677   */\n      dup2\n        /* \"#utility.yul\":645:678   */\n      tag_61\n      jump\t// in\n    tag_115:\n        /* \"#utility.yul\":545:684   */\n      swap3\n      swap2\n      pop\n      pop\n      jump\t// out\n        /* \"#utility.yul\":690:807   */\n    tag_63:\n        /* \"#utility.yul\":799:800   */\n      0x00\n        /* \"#utility.yul\":796:797   */\n      dup1\n        /* \"#utility.yul\":789:801   */\n      revert\n        /* \"#utility.yul\":813:930   */\n    tag_64:\n        /* \"#utility.yul\":922:923   */\n      0x00\n        /* \"#utility.yul\":919:920   */\n      dup1\n        /* \"#utility.yul\":912:924   */\n      revert\n        /* \"#utility.yul\":936:1038   */\n    tag_65:\n        /* \"#utility.yul\":977:983   */\n      0x00\n        /* \"#utility.yul\":1028:1030   */\n      0x1f\n        /* \"#utility.yul\":1024:1031   */\n      not\n        /* \"#utility.yul\":1019:1021   */\n      0x1f\n        /* \"#utility.yul\":1012:1017   */\n      dup4\n        /* \"#utility.yul\":1008:1022   */\n      add\n        /* \"#utility.yul\":1004:1032   */\n      and\n        /* \"#utility.yul\":994:1032   */\n      swap1\n      pop\n        /* \"#utility.yul\":936:1038   */\n      swap2\n      swap1\n      pop\n      jump\t// out\n        /* \"#utility.yul\":1044:1224   */\n    tag_66:\n        /* \"#utility.yul\":1092:1169   */\n      0x4e487b7100000000000000000000000000000000000000000000000000000000\n        /* \"#utility.yul\":1089:1090   */\n      0x00\n        /* \"#utility.yul\":1082:1170   */\n      mstore\n        /* \"#utility.yul\":1189:1193   */\n      0x41\n        /* \"#utility.yul\":1186:1187   */\n      0x04\n        /* \"#utility.yul\":1179:1194   */\n      mstore\n        /* \"#utility.yul\":1213:1217   */\n      0x24\n        /* \"#utility.yul\":1210:1211   */\n      0x00\n        /* \"#utility.yul\":1203:1218   */\n      revert\n        /* \"#utility.yul\":1230:1511   */\n    tag_67:\n        /* \"#utility.yul\":1313:1340   */\n      tag_121\n        /* \"#utility.yul\":1335:1339   */\n      dup3\n        /* \"#utility.yul\":1313:1340   */\n      tag_65\n      jump\t// in\n    tag_121:\n        /* \"#utility.yul\":1305:1311   */\n      dup2\n        /* \"#utility.yul\":1301:1341   */\n      add\n        /* \"#utility.yul\":1443:1449   */\n      dup2\n        /* \"#utility.yul\":1431:1441   */\n      dup2\n        /* \"#utility.yul\":1428:1450   */\n      lt\n        /* \"#utility.yul\":1407:1425   */\n      0xffffffffffffffff\n        /* \"#utility.yul\":1395:1405   */\n      dup3\n        /* \"#utility.yul\":1392:1426   */\n      gt\n        /* \"#utility.yul\":1389:1451   */\n      or\n        /* \"#utility.yul\":1386:1474   */\n      iszero\n      tag_122\n      jumpi\n        /* \"#utility.yul\":1454:1472   */\n      tag_123\n      tag_66\n      jump\t// in\n    tag_123:\n        /* \"#utility.yul\":1386:1474   */\n    tag_122:\n        /* \"#utility.yul\":1494:1504   */\n      dup1\n        /* \"#utility.yul\":1490:1492   */\n      0x40\n        /* \"#utility.yul\":1483:1505   */\n      mstore\n        /* \"#utility.yul\":1273:1511   */\n      pop\n        /* \"#utility.yul\":1230:1511   */\n      pop\n      pop\n      jump\t// out\n        /* \"#utility.yul\":1517:1646   */\n    tag_68:\n        /* \"#utility.yul\":1551:1557   */\n      0x00\n        /* \"#utility.yul\":1578:1598   */\n      tag_125\n      tag_57\n      jump\t// in\n    tag_125:\n        /* \"#utility.yul\":1568:1598   */\n      swap1\n      pop\n        /* \"#utility.yul\":1607:1640   */\n      tag_126\n        /* \"#utility.yul\":1635:1639   */\n      dup3\n        /* \"#utility.yul\":1627:1633   */\n      dup3\n        /* \"#utility.yul\":1607:1640   */\n      tag_67\n      jump\t// in\n    tag_126:\n        /* \"#utility.yul\":1517:1646   */\n      swap2\n      swap1\n      pop\n      jump\t// out\n        /* \"#utility.yul\":1652:1959   */\n    tag_69:\n        /* \"#utility.yul\":1713:1717   */\n      0x00\n        /* \"#utility.yul\":1803:1821   */\n      0xffffffffffffffff\n        /* \"#utility.yul\":1795:1801   */\n      dup3\n        /* \"#utility.yul\":1792:1822   */\n      gt\n        /* \"#utility.yul\":1789:1845   */\n      iszero\n      tag_128\n      jumpi\n        /* \"#utility.yul\":1825:1843   */\n      tag_129\n      tag_66\n      jump\t// in\n    tag_129:\n        /* \"#utility.yul\":1789:1845   */\n    tag_128:\n        /* \"#utility.yul\":1863:1892   */\n      tag_130\n        /* \"#utility.yul\":1885:1891   */\n      dup3\n        /* \"#utility.yul\":1863:1892   */\n      tag_65\n      jump\t// in\n    tag_130:\n        /* \"#utility.yul\":1855:1892   */\n      swap1\n      pop\n        /* \"#utility.yul\":1947:1951   */\n      0x20\n        /* \"#utility.yul\":1941:1945   */\n      dup2\n        /* \"#utility.yul\":1937:1952   */\n      add\n        /* \"#utility.yul\":1929:1952   */\n      swap1\n      pop\n        /* \"#utility.yul\":1652:1959   */\n      swap2\n      swap1\n      pop\n      jump\t// out\n        /* \"#utility.yul\":1965:2119   */\n    tag_70:\n        /* \"#utility.yul\":2049:2055   */\n      dup3\n        /* \"#utility.yul\":2044:2047   */\n      dup2\n        /* \"#utility.yul\":2039:2042   */\n      dup4\n        /* \"#utility.yul\":2026:2056   */\n      calldatacopy\n        /* \"#utility.yul\":2111:2112   */\n      0x00\n        /* \"#utility.yul\":2102:2108   */\n      dup4\n        /* \"#utility.yul\":2097:2100   */\n      dup4\n        /* \"#utility.yul\":2093:2109   */\n      add\n        /* \"#utility.yul\":2086:2113   */\n      mstore\n        /* \"#utility.yul\":1965:2119   */\n      pop\n      pop\n      pop\n      jump\t// out\n        /* \"#utility.yul\":2125:2535   */\n    tag_71:\n        /* \"#utility.yul\":2202:2207   */\n      0x00\n        /* \"#utility.yul\":2227:2292   */\n      tag_133\n        /* \"#utility.yul\":2243:2291   */\n      tag_134\n        /* \"#utility.yul\":2284:2290   */\n      dup5\n        /* \"#utility.yul\":2243:2291   */\n      tag_69\n      jump\t// in\n    tag_134:\n        /* \"#utility.yul\":2227:2292   */\n      tag_68\n      jump\t// in\n    tag_133:\n        /* \"#utility.yul\":2218:2292   */\n      swap1\n      pop\n        /* \"#utility.yul\":2315:2321   */\n      dup3\n        /* \"#utility.yul\":2308:2313   */\n      dup2\n        /* \"#utility.yul\":2301:2322   */\n      mstore\n        /* \"#utility.yul\":2353:2357   */\n      0x20\n        /* \"#utility.yul\":2346:2351   */\n      dup2\n        /* \"#utility.yul\":2342:2358   */\n      add\n        /* \"#utility.yul\":2391:2394   */\n      dup5\n        /* \"#utility.yul\":2382:2388   */\n      dup5\n        /* \"#utility.yul\":2377:2380   */\n      dup5\n        /* \"#utility.yul\":2373:2389   */\n      add\n        /* \"#utility.yul\":2370:2395   */\n      gt\n        /* \"#utility.yul\":2367:2479   */\n      iszero\n      tag_135\n      jumpi\n        /* \"#utility.yul\":2398:2477   */\n      tag_136\n      tag_64\n      jump\t// in\n    tag_136:\n        /* \"#utility.yul\":2367:2479   */\n    tag_135:\n        /* \"#utility.yul\":2488:2529   */\n      tag_137\n        /* \"#utility.yul\":2522:2528   */\n      dup5\n        /* \"#utility.yul\":2517:2520   */\n      dup3\n        /* \"#utility.yul\":2512:2515   */\n      dup6\n        /* \"#utility.yul\":2488:2529   */\n      tag_70\n      jump\t// in\n    tag_137:\n        /* \"#utility.yul\":2208:2535   */\n      pop\n        /* \"#utility.yul\":2125:2535   */\n      swap4\n      swap3\n      pop\n      pop\n      pop\n      jump\t// out\n        /* \"#utility.yul\":2554:2892   */\n    tag_72:\n        /* \"#utility.yul\":2609:2614   */\n      0x00\n        /* \"#utility.yul\":2658:2661   */\n      dup3\n        /* \"#utility.yul\":2651:2655   */\n      0x1f\n        /* \"#utility.yul\":2643:2649   */\n      dup4\n        /* \"#utility.yul\":2639:2656   */\n      add\n        /* \"#utility.yul\":2635:2662   */\n      slt\n        /* \"#utility.yul\":2625:2747   */\n      tag_139\n      jumpi\n        /* \"#utility.yul\":2666:2745   */\n      tag_140\n      tag_63\n      jump\t// in\n    tag_140:\n        /* \"#utility.yul\":2625:2747   */\n    tag_139:\n        /* \"#utility.yul\":2783:2789   */\n      dup2\n        /* \"#utility.yul\":2770:2790   */\n      calldataload\n        /* \"#utility.yul\":2808:2886   */\n      tag_141\n        /* \"#utility.yul\":2882:2885   */\n      dup5\n        /* \"#utility.yul\":2874:2880   */\n      dup3\n        /* \"#utility.yul\":2867:2871   */\n      0x20\n        /* \"#utility.yul\":2859:2865   */\n      dup7\n        /* \"#utility.yul\":2855:2872   */\n      add\n        /* \"#utility.yul\":2808:2886   */\n      tag_71\n      jump\t// in\n    tag_141:\n        /* \"#utility.yul\":2799:2886   */\n      swap2\n      pop\n        /* \"#utility.yul\":2615:2892   */\n      pop\n        /* \"#utility.yul\":2554:2892   */\n      swap3\n      swap2\n      pop\n      pop\n      jump\t// out\n        /* \"#utility.yul\":2898:3550   */\n    tag_10:\n        /* \"#utility.yul\":2975:2981   */\n      0x00\n        /* \"#utility.yul\":2983:2989   */\n      dup1\n        /* \"#utility.yul\":3032:3034   */\n      0x40\n        /* \"#utility.yul\":3020:3029   */\n      dup4\n        /* \"#utility.yul\":3011:3018   */\n      dup6\n        /* \"#utility.yul\":3007:3030   */\n      sub\n        /* \"#utility.yul\":3003:3035   */\n      slt\n        /* \"#utility.yul\":3000:3119   */\n      iszero\n      tag_143\n      jumpi\n        /* \"#utility.yul\":3038:3117   */\n      tag_144\n      tag_58\n      jump\t// in\n    tag_144:\n        /* \"#utility.yul\":3000:3119   */\n    tag_143:\n        /* \"#utility.yul\":3158:3159   */\n      0x00\n        /* \"#utility.yul\":3183:3236   */\n      tag_145\n        /* \"#utility.yul\":3228:3235   */\n      dup6\n        /* \"#utility.yul\":3219:3225   */\n      dup3\n        /* \"#utility.yul\":3208:3217   */\n      dup7\n        /* \"#utility.yul\":3204:3226   */\n      add\n        /* \"#utility.yul\":3183:3236   */\n      tag_62\n      jump\t// in\n    tag_145:\n        /* \"#utility.yul\":3173:3236   */\n      swap3\n      pop\n        /* \"#utility.yul\":3129:3246   */\n      pop\n        /* \"#utility.yul\":3313:3315   */\n      0x20\n        /* \"#utility.yul\":3302:3311   */\n      dup4\n        /* \"#utility.yul\":3298:3316   */\n      add\n        /* \"#utility.yul\":3285:3317   */\n      calldataload\n        /* \"#utility.yul\":3344:3362   */\n      0xffffffffffffffff\n        /* \"#utility.yul\":3336:3342   */\n      dup2\n        /* \"#utility.yul\":3333:3363   */\n      gt\n        /* \"#utility.yul\":3330:3447   */\n      iszero\n      tag_146\n      jumpi\n        /* \"#utility.yul\":3366:3445   */\n      tag_147\n      tag_59\n      jump\t// in\n    tag_147:\n        /* \"#utility.yul\":3330:3447   */\n    tag_146:\n        /* \"#utility.yul\":3471:3533   */\n      tag_148\n        /* \"#utility.yul\":3525:3532   */\n      dup6\n        /* \"#utility.yul\":3516:3522   */\n      dup3\n        /* \"#utility.yul\":3505:3514   */\n      dup7\n        /* \"#utility.yul\":3501:3523   */\n      add\n        /* \"#utility.yul\":3471:3533   */\n      tag_72\n      jump\t// in\n    tag_148:\n        /* \"#utility.yul\":3461:3533   */\n      swap2\n      pop\n        /* \"#utility.yul\":3256:3543   */\n      pop\n        /* \"#utility.yul\":2898:3550   */\n      swap3\n      pop\n      swap3\n      swap1\n      pop\n      jump\t// out\n        /* \"#utility.yul\":3556:3682   */\n    tag_73:\n        /* \"#utility.yul\":3593:3600   */\n      0x00\n        /* \"#utility.yul\":3633:3675   */\n      0xffffffffffffffffffffffffffffffffffffffff\n        /* \"#utility.yul\":3626:3631   */\n      dup3\n        /* \"#utility.yul\":3622:3676   */\n      and\n        /* \"#utility.yul\":3611:3676   */\n      swap1\n      pop\n        /* \"#utility.yul\":3556:3682   */\n      swap2\n      swap1\n      pop\n      jump\t// out\n        /* \"#utility.yul\":3688:3784   */\n    tag_74:\n        /* \"#utility.yul\":3725:3732   */\n      0x00\n        /* \"#utility.yul\":3754:3778   */\n      tag_151\n        /* \"#utility.yul\":3772:3777   */\n      dup3\n        /* \"#utility.yul\":3754:3778   */\n      tag_73\n      jump\t// in\n    tag_151:\n        /* \"#utility.yul\":3743:3778   */\n      swap1\n      pop\n        /* \"#utility.yul\":3688:3784   */\n      swap2\n      swap1\n      pop\n      jump\t// out\n        /* \"#utility.yul\":3790:3908   */\n    tag_75:\n        /* \"#utility.yul\":3877:3901   */\n      tag_153\n        /* \"#utility.yul\":3895:3900   */\n      dup2\n        /* \"#utility.yul\":3877:3901   */\n      tag_74\n      jump\t// in\n    tag_153:\n        /* \"#utility.yul\":3872:3875   */\n      dup3\n        /* \"#utility.yul\":3865:3902   */\n      mstore\n        /* \"#utility.yul\":3790:3908   */\n      pop\n      pop\n      jump\t// out\n        /* \"#utility.yul\":3914:4136   */\n    tag_13:\n        /* \"#utility.yul\":4007:4011   */\n      0x00\n        /* \"#utility.yul\":4045:4047   */\n      0x20\n        /* \"#utility.yul\":4034:4043   */\n      dup3\n        /* \"#utility.yul\":4030:4048   */\n      add\n        /* \"#utility.yul\":4022:4048   */\n      swap1\n      pop\n        /* \"#utility.yul\":4058:4129   */\n      tag_155\n        /* \"#utility.yul\":4126:4127   */\n      0x00\n        /* \"#utility.yul\":4115:4124   */\n      dup4\n        /* \"#utility.yul\":4111:4128   */\n      add\n        /* \"#utility.yul\":4102:4108   */\n      dup5\n        /* \"#utility.yul\":4058:4129   */\n      tag_75\n      jump\t// in\n    tag_155:\n        /* \"#utility.yul\":3914:4136   */\n      swap3\n      swap2\n      pop\n      pop\n      jump\t// out\n        /* \"#utility.yul\":4142:4264   */\n    tag_76:\n        /* \"#utility.yul\":4215:4239   */\n      tag_157\n        /* \"#utility.yul\":4233:4238   */\n      dup2\n        /* \"#utility.yul\":4215:4239   */\n      tag_74\n      jump\t// in\n    tag_157:\n        /* \"#utility.yul\":4208:4213   */\n      dup2\n        /* \"#utility.yul\":4205:4240   */\n      eq\n        /* \"#utility.yul\":4195:4258   */\n      tag_158\n      jumpi\n        /* \"#utility.yul\":4254:4255   */\n      0x00\n        /* \"#utility.yul\":4251:4252   */\n      dup1\n        /* \"#utility.yul\":4244:4256   */\n      revert\n        /* \"#utility.yul\":4195:4258   */\n    tag_158:\n        /* \"#utility.yul\":4142:4264   */\n      pop\n      jump\t// out\n        /* \"#utility.yul\":4270:4409   */\n    tag_77:\n        /* \"#utility.yul\":4316:4321   */\n      0x00\n        /* \"#utility.yul\":4354:4360   */\n      dup2\n        /* \"#utility.yul\":4341:4361   */\n      calldataload\n        /* \"#utility.yul\":4332:4361   */\n      swap1\n      pop\n        /* \"#utility.yul\":4370:4403   */\n      tag_160\n        /* \"#utility.yul\":4397:4402   */\n      dup2\n        /* \"#utility.yul\":4370:4403   */\n      tag_76\n      jump\t// in\n    tag_160:\n        /* \"#utility.yul\":4270:4409   */\n      swap3\n      swap2\n      pop\n      pop\n      jump\t// out\n        /* \"#utility.yul\":4415:4492   */\n    tag_78:\n        /* \"#utility.yul\":4452:4459   */\n      0x00\n        /* \"#utility.yul\":4481:4486   */\n      dup2\n        /* \"#utility.yul\":4470:4486   */\n      swap1\n      pop\n        /* \"#utility.yul\":4415:4492   */\n      swap2\n      swap1\n      pop\n      jump\t// out\n        /* \"#utility.yul\":4498:4620   */\n    tag_79:\n        /* \"#utility.yul\":4571:4595   */\n      tag_163\n        /* \"#utility.yul\":4589:4594   */\n      dup2\n        /* \"#utility.yul\":4571:4595   */\n      tag_78\n      jump\t// in\n    tag_163:\n        /* \"#utility.yul\":4564:4569   */\n      dup2\n        /* \"#utility.yul\":4561:4596   */\n      eq\n        /* \"#utility.yul\":4551:4614   */\n      tag_164\n      jumpi\n        /* \"#utility.yul\":4610:4611   */\n      0x00\n        /* \"#utility.yul\":4607:4608   */\n      dup1\n        /* \"#utility.yul\":4600:4612   */\n      revert\n        /* \"#utility.yul\":4551:4614   */\n    tag_164:\n        /* \"#utility.yul\":4498:4620   */\n      pop\n      jump\t// out\n        /* \"#utility.yul\":4626:4765   */\n    tag_80:\n        /* \"#utility.yul\":4672:4677   */\n      0x00\n        /* \"#utility.yul\":4710:4716   */\n      dup2\n        /* \"#utility.yul\":4697:4717   */\n      calldataload\n        /* \"#utility.yul\":4688:4717   */\n      swap1\n      pop\n        /* \"#utility.yul\":4726:4759   */\n      tag_166\n        /* \"#utility.yul\":4753:4758   */\n      dup2\n        /* \"#utility.yul\":4726:4759   */\n      tag_79\n      jump\t// in\n    tag_166:\n        /* \"#utility.yul\":4626:4765   */\n      swap3\n      swap2\n      pop\n      pop\n      jump\t// out\n        /* \"#utility.yul\":4771:5079   */\n    tag_81:\n        /* \"#utility.yul\":4833:4837   */\n      0x00\n        /* \"#utility.yul\":4923:4941   */\n      0xffffffffffffffff\n        /* \"#utility.yul\":4915:4921   */\n      dup3\n        /* \"#utility.yul\":4912:4942   */\n      gt\n        /* \"#utility.yul\":4909:4965   */\n      iszero\n      tag_168\n      jumpi\n        /* \"#utility.yul\":4945:4963   */\n      tag_169\n      tag_66\n      jump\t// in\n    tag_169:\n        /* \"#utility.yul\":4909:4965   */\n    tag_168:\n        /* \"#utility.yul\":4983:5012   */\n      tag_170\n        /* \"#utility.yul\":5005:5011   */\n      dup3\n        /* \"#utility.yul\":4983:5012   */\n      tag_65\n      jump\t// in\n    tag_170:\n        /* \"#utility.yul\":4975:5012   */\n      swap1\n      pop\n        /* \"#utility.yul\":5067:5071   */\n      0x20\n        /* \"#utility.yul\":5061:5065   */\n      dup2\n        /* \"#utility.yul\":5057:5072   */\n      add\n        /* \"#utility.yul\":5049:5072   */\n      swap1\n      pop\n        /* \"#utility.yul\":4771:5079   */\n      swap2\n      swap1\n      pop\n      jump\t// out\n        /* \"#utility.yul\":5085:5497   */\n    tag_82:\n        /* \"#utility.yul\":5163:5168   */\n      0x00\n        /* \"#utility.yul\":5188:5254   */\n      tag_172\n        /* \"#utility.yul\":5204:5253   */\n      tag_173\n        /* \"#utility.yul\":5246:5252   */\n      dup5\n        /* \"#utility.yul\":5204:5253   */\n      tag_81\n      jump\t// in\n    tag_173:\n        /* \"#utility.yul\":5188:5254   */\n      tag_68\n      jump\t// in\n    tag_172:\n        /* \"#utility.yul\":5179:5254   */\n      swap1\n      pop\n        /* \"#utility.yul\":5277:5283   */\n      dup3\n        /* \"#utility.yul\":5270:5275   */\n      dup2\n        /* \"#utility.yul\":5263:5284   */\n      mstore\n        /* \"#utility.yul\":5315:5319   */\n      0x20\n        /* \"#utility.yul\":5308:5313   */\n      dup2\n        /* \"#utility.yul\":5304:5320   */\n      add\n        /* \"#utility.yul\":5353:5356   */\n      dup5\n        /* \"#utility.yul\":5344:5350   */\n      dup5\n        /* \"#utility.yul\":5339:5342   */\n      dup5\n        /* \"#utility.yul\":5335:5351   */\n      add\n        /* \"#utility.yul\":5332:5357   */\n      gt\n        /* \"#utility.yul\":5329:5441   */\n      iszero\n      tag_174\n      jumpi\n        /* \"#utility.yul\":5360:5439   */\n      tag_175\n      tag_64\n      jump\t// in\n    tag_175:\n        /* \"#utility.yul\":5329:5441   */\n    tag_174:\n        /* \"#utility.yul\":5450:5491   */\n      tag_176\n        /* \"#utility.yul\":5484:5490   */\n      dup5\n        /* \"#utility.yul\":5479:5482   */\n      dup3\n        /* \"#utility.yul\":5474:5477   */\n      dup6\n        /* \"#utility.yul\":5450:5491   */\n      tag_70\n      jump\t// in\n    tag_176:\n        /* \"#utility.yul\":5169:5497   */\n      pop\n        /* \"#utility.yul\":5085:5497   */\n      swap4\n      swap3\n      pop\n      pop\n      pop\n      jump\t// out\n        /* \"#utility.yul\":5517:5857   */\n    tag_83:\n        /* \"#utility.yul\":5573:5578   */\n      0x00\n        /* \"#utility.yul\":5622:5625   */\n      dup3\n        /* \"#utility.yul\":5615:5619   */\n      0x1f\n        /* \"#utility.yul\":5607:5613   */\n      dup4\n        /* \"#utility.yul\":5603:5620   */\n      add\n        /* \"#utility.yul\":5599:5626   */\n      slt\n        /* \"#utility.yul\":5589:5711   */\n      tag_178\n      jumpi\n        /* \"#utility.yul\":5630:5709   */\n      tag_179\n      tag_63\n      jump\t// in\n    tag_179:\n        /* \"#utility.yul\":5589:5711   */\n    tag_178:\n        /* \"#utility.yul\":5747:5753   */\n      dup2\n        /* \"#utility.yul\":5734:5754   */\n      calldataload\n        /* \"#utility.yul\":5772:5851   */\n      tag_180\n        /* \"#utility.yul\":5847:5850   */\n      dup5\n        /* \"#utility.yul\":5839:5845   */\n      dup3\n        /* \"#utility.yul\":5832:5836   */\n      0x20\n        /* \"#utility.yul\":5824:5830   */\n      dup7\n        /* \"#utility.yul\":5820:5837   */\n      add\n        /* \"#utility.yul\":5772:5851   */\n      tag_82\n      jump\t// in\n    tag_180:\n        /* \"#utility.yul\":5763:5851   */\n      swap2\n      pop\n        /* \"#utility.yul\":5579:5857   */\n      pop\n        /* \"#utility.yul\":5517:5857   */\n      swap3\n      swap2\n      pop\n      pop\n      jump\t// out\n        /* \"#utility.yul\":5863:6808   */\n    tag_16:\n        /* \"#utility.yul\":5959:5965   */\n      0x00\n        /* \"#utility.yul\":5967:5973   */\n      dup1\n        /* \"#utility.yul\":5975:5981   */\n      0x00\n        /* \"#utility.yul\":5983:5989   */\n      dup1\n        /* \"#utility.yul\":6032:6035   */\n      0x80\n        /* \"#utility.yul\":6020:6029   */\n      dup6\n        /* \"#utility.yul\":6011:6018   */\n      dup8\n        /* \"#utility.yul\":6007:6030   */\n      sub\n        /* \"#utility.yul\":6003:6036   */\n      slt\n        /* \"#utility.yul\":6000:6120   */\n      iszero\n      tag_182\n      jumpi\n        /* \"#utility.yul\":6039:6118   */\n      tag_183\n      tag_58\n      jump\t// in\n    tag_183:\n        /* \"#utility.yul\":6000:6120   */\n    tag_182:\n        /* \"#utility.yul\":6159:6160   */\n      0x00\n        /* \"#utility.yul\":6184:6237   */\n      tag_184\n        /* \"#utility.yul\":6229:6236   */\n      dup8\n        /* \"#utility.yul\":6220:6226   */\n      dup3\n        /* \"#utility.yul\":6209:6218   */\n      dup9\n        /* \"#utility.yul\":6205:6227   */\n      add\n        /* \"#utility.yul\":6184:6237   */\n      tag_77\n      jump\t// in\n    tag_184:\n        /* \"#utility.yul\":6174:6237   */\n      swap5\n      pop\n        /* \"#utility.yul\":6130:6247   */\n      pop\n        /* \"#utility.yul\":6286:6288   */\n      0x20\n        /* \"#utility.yul\":6312:6365   */\n      tag_185\n        /* \"#utility.yul\":6357:6364   */\n      dup8\n        /* \"#utility.yul\":6348:6354   */\n      dup3\n        /* \"#utility.yul\":6337:6346   */\n      dup9\n        /* \"#utility.yul\":6333:6355   */\n      add\n        /* \"#utility.yul\":6312:6365   */\n      tag_80\n      jump\t// in\n    tag_185:\n        /* \"#utility.yul\":6302:6365   */\n      swap4\n      pop\n        /* \"#utility.yul\":6257:6375   */\n      pop\n        /* \"#utility.yul\":6442:6444   */\n      0x40\n        /* \"#utility.yul\":6431:6440   */\n      dup6\n        /* \"#utility.yul\":6427:6445   */\n      add\n        /* \"#utility.yul\":6414:6446   */\n      calldataload\n        /* \"#utility.yul\":6473:6491   */\n      0xffffffffffffffff\n        /* \"#utility.yul\":6465:6471   */\n      dup2\n        /* \"#utility.yul\":6462:6492   */\n      gt\n        /* \"#utility.yul\":6459:6576   */\n      iszero\n      tag_186\n      jumpi\n        /* \"#utility.yul\":6495:6574   */\n      tag_187\n      tag_59\n      jump\t// in\n    tag_187:\n        /* \"#utility.yul\":6459:6576   */\n    tag_186:\n        /* \"#utility.yul\":6600:6663   */\n      tag_188\n        /* \"#utility.yul\":6655:6662   */\n      dup8\n        /* \"#utility.yul\":6646:6652   */\n      dup3\n        /* \"#utility.yul\":6635:6644   */\n      dup9\n        /* \"#utility.yul\":6631:6653   */\n      add\n        /* \"#utility.yul\":6600:6663   */\n      tag_83\n      jump\t// in\n    tag_188:\n        /* \"#utility.yul\":6590:6663   */\n      swap3\n      pop\n        /* \"#utility.yul\":6385:6673   */\n      pop\n        /* \"#utility.yul\":6712:6714   */\n      0x60\n        /* \"#utility.yul\":6738:6791   */\n      tag_189\n        /* \"#utility.yul\":6783:6790   */\n      dup8\n        /* \"#utility.yul\":6774:6780   */\n      dup3\n        /* \"#utility.yul\":6763:6772   */\n      dup9\n        /* \"#utility.yul\":6759:6781   */\n      add\n        /* \"#utility.yul\":6738:6791   */\n      tag_80\n      jump\t// in\n    tag_189:\n        /* \"#utility.yul\":6728:6791   */\n      swap2\n      pop\n        /* \"#utility.yul\":6683:6801   */\n      pop\n        /* \"#utility.yul\":5863:6808   */\n      swap3\n      swap6\n      swap2\n      swap5\n      pop\n      swap3\n      pop\n      jump\t// out\n        /* \"#utility.yul\":6814:6932   */\n    tag_84:\n        /* \"#utility.yul\":6901:6925   */\n      tag_191\n        /* \"#utility.yul\":6919:6924   */\n      dup2\n        /* \"#utility.yul\":6901:6925   */\n      tag_60\n      jump\t// in\n    tag_191:\n        /* \"#utility.yul\":6896:6899   */\n      dup3\n        /* \"#utility.yul\":6889:6926   */\n      mstore\n        /* \"#utility.yul\":6814:6932   */\n      pop\n      pop\n      jump\t// out\n        /* \"#utility.yul\":6938:7160   */\n    tag_19:\n        /* \"#utility.yul\":7031:7035   */\n      0x00\n        /* \"#utility.yul\":7069:7071   */\n      0x20\n        /* \"#utility.yul\":7058:7067   */\n      dup3\n        /* \"#utility.yul\":7054:7072   */\n      add\n        /* \"#utility.yul\":7046:7072   */\n      swap1\n      pop\n        /* \"#utility.yul\":7082:7153   */\n      tag_193\n        /* \"#utility.yul\":7150:7151   */\n      0x00\n        /* \"#utility.yul\":7139:7148   */\n      dup4\n        /* \"#utility.yul\":7135:7152   */\n      add\n        /* \"#utility.yul\":7126:7132   */\n      dup5\n        /* \"#utility.yul\":7082:7153   */\n      tag_84\n      jump\t// in\n    tag_193:\n        /* \"#utility.yul\":6938:7160   */\n      swap3\n      swap2\n      pop\n      pop\n      jump\t// out\n        /* \"#utility.yul\":7166:7673   */\n    tag_22:\n        /* \"#utility.yul\":7234:7240   */\n      0x00\n        /* \"#utility.yul\":7283:7285   */\n      0x20\n        /* \"#utility.yul\":7271:7280   */\n      dup3\n        /* \"#utility.yul\":7262:7269   */\n      dup5\n        /* \"#utility.yul\":7258:7281   */\n      sub\n        /* \"#utility.yul\":7254:7286   */\n      slt\n        /* \"#utility.yul\":7251:7370   */\n      iszero\n      tag_195\n      jumpi\n        /* \"#utility.yul\":7289:7368   */\n      tag_196\n      tag_58\n      jump\t// in\n    tag_196:\n        /* \"#utility.yul\":7251:7370   */\n    tag_195:\n        /* \"#utility.yul\":7437:7438   */\n      0x00\n        /* \"#utility.yul\":7426:7435   */\n      dup3\n        /* \"#utility.yul\":7422:7439   */\n      add\n        /* \"#utility.yul\":7409:7440   */\n      calldataload\n        /* \"#utility.yul\":7467:7485   */\n      0xffffffffffffffff\n        /* \"#utility.yul\":7459:7465   */\n      dup2\n        /* \"#utility.yul\":7456:7486   */\n      gt\n        /* \"#utility.yul\":7453:7570   */\n      iszero\n      tag_197\n      jumpi\n        /* \"#utility.yul\":7489:7568   */\n      tag_198\n      tag_59\n      jump\t// in\n    tag_198:\n        /* \"#utility.yul\":7453:7570   */\n    tag_197:\n        /* \"#utility.yul\":7594:7656   */\n      tag_199\n        /* \"#utility.yul\":7648:7655   */\n      dup5\n        /* \"#utility.yul\":7639:7645   */\n      dup3\n        /* \"#utility.yul\":7628:7637   */\n      dup6\n        /* \"#utility.yul\":7624:7646   */\n      add\n        /* \"#utility.yul\":7594:7656   */\n      tag_72\n      jump\t// in\n    tag_199:\n        /* \"#utility.yul\":7584:7656   */\n      swap2\n      pop\n        /* \"#utility.yul\":7380:7666   */\n      pop\n        /* \"#utility.yul\":7166:7673   */\n      swap3\n      swap2\n      pop\n      pop\n      jump\t// out\n        /* \"#utility.yul\":7679:7765   */\n    tag_85:\n        /* \"#utility.yul\":7714:7721   */\n      0x00\n        /* \"#utility.yul\":7754:7758   */\n      0xff\n        /* \"#utility.yul\":7747:7752   */\n      dup3\n        /* \"#utility.yul\":7743:7759   */\n      and\n        /* \"#utility.yul\":7732:7759   */\n      swap1\n      pop\n        /* \"#utility.yul\":7679:7765   */\n      swap2\n      swap1\n      pop\n      jump\t// out\n        /* \"#utility.yul\":7771:7883   */\n    tag_86:\n        /* \"#utility.yul\":7854:7876   */\n      tag_202\n        /* \"#utility.yul\":7870:7875   */\n      dup2\n        /* \"#utility.yul\":7854:7876   */\n      tag_85\n      jump\t// in\n    tag_202:\n        /* \"#utility.yul\":7849:7852   */\n      dup3\n        /* \"#utility.yul\":7842:7877   */\n      mstore\n        /* \"#utility.yul\":7771:7883   */\n      pop\n      pop\n      jump\t// out\n        /* \"#utility.yul\":7889:8323   */\n    tag_25:\n        /* \"#utility.yul\":8034:8038   */\n      0x00\n        /* \"#utility.yul\":8072:8074   */\n      0x60\n        /* \"#utility.yul\":8061:8070   */\n      dup3\n        /* \"#utility.yul\":8057:8075   */\n      add\n        /* \"#utility.yul\":8049:8075   */\n      swap1\n      pop\n        /* \"#utility.yul\":8085:8156   */\n      tag_204\n        /* \"#utility.yul\":8153:8154   */\n      0x00\n        /* \"#utility.yul\":8142:8151   */\n      dup4\n        /* \"#utility.yul\":8138:8155   */\n      add\n        /* \"#utility.yul\":8129:8135   */\n      dup7\n        /* \"#utility.yul\":8085:8156   */\n      tag_84\n      jump\t// in\n    tag_204:\n        /* \"#utility.yul\":8166:8238   */\n      tag_205\n        /* \"#utility.yul\":8234:8236   */\n      0x20\n        /* \"#utility.yul\":8223:8232   */\n      dup4\n        /* \"#utility.yul\":8219:8237   */\n      add\n        /* \"#utility.yul\":8210:8216   */\n      dup6\n        /* \"#utility.yul\":8166:8238   */\n      tag_84\n      jump\t// in\n    tag_205:\n        /* \"#utility.yul\":8248:8316   */\n      tag_206\n        /* \"#utility.yul\":8312:8314   */\n      0x40\n        /* \"#utility.yul\":8301:8310   */\n      dup4\n        /* \"#utility.yul\":8297:8315   */\n      add\n        /* \"#utility.yul\":8288:8294   */\n      dup5\n        /* \"#utility.yul\":8248:8316   */\n      tag_86\n      jump\t// in\n    tag_206:\n        /* \"#utility.yul\":7889:8323   */\n      swap5\n      swap4\n      pop\n      pop\n      pop\n      pop\n      jump\t// out\n        /* \"#utility.yul\":8329:9744   */\n    tag_28:\n        /* \"#utility.yul\":8452:8458   */\n      0x00\n        /* \"#utility.yul\":8460:8466   */\n      dup1\n        /* \"#utility.yul\":8468:8474   */\n      0x00\n        /* \"#utility.yul\":8476:8482   */\n      dup1\n        /* \"#utility.yul\":8484:8490   */\n      0x00\n        /* \"#utility.yul\":8492:8498   */\n      dup1\n        /* \"#utility.yul\":8541:8544   */\n      0xc0\n        /* \"#utility.yul\":8529:8538   */\n      dup8\n        /* \"#utility.yul\":8520:8527   */\n      dup10\n        /* \"#utility.yul\":8516:8539   */\n      sub\n        /* \"#utility.yul\":8512:8545   */\n      slt\n        /* \"#utility.yul\":8509:8629   */\n      iszero\n      tag_208\n      jumpi\n        /* \"#utility.yul\":8548:8627   */\n      tag_209\n      tag_58\n      jump\t// in\n    tag_209:\n        /* \"#utility.yul\":8509:8629   */\n    tag_208:\n        /* \"#utility.yul\":8668:8669   */\n      0x00\n        /* \"#utility.yul\":8693:8746   */\n      tag_210\n        /* \"#utility.yul\":8738:8745   */\n      dup10\n        /* \"#utility.yul\":8729:8735   */\n      dup3\n        /* \"#utility.yul\":8718:8727   */\n      dup11\n        /* \"#utility.yul\":8714:8736   */\n      add\n        /* \"#utility.yul\":8693:8746   */\n      tag_77\n      jump\t// in\n    tag_210:\n        /* \"#utility.yul\":8683:8746   */\n      swap7\n      pop\n        /* \"#utility.yul\":8639:8756   */\n      pop\n        /* \"#utility.yul\":8795:8797   */\n      0x20\n        /* \"#utility.yul\":8821:8874   */\n      tag_211\n        /* \"#utility.yul\":8866:8873   */\n      dup10\n        /* \"#utility.yul\":8857:8863   */\n      dup3\n        /* \"#utility.yul\":8846:8855   */\n      dup11\n        /* \"#utility.yul\":8842:8864   */\n      add\n        /* \"#utility.yul\":8821:8874   */\n      tag_77\n      jump\t// in\n    tag_211:\n        /* \"#utility.yul\":8811:8874   */\n      swap6\n      pop\n        /* \"#utility.yul\":8766:8884   */\n      pop\n        /* \"#utility.yul\":8923:8925   */\n      0x40\n        /* \"#utility.yul\":8949:9002   */\n      tag_212\n        /* \"#utility.yul\":8994:9001   */\n      dup10\n        /* \"#utility.yul\":8985:8991   */\n      dup3\n        /* \"#utility.yul\":8974:8983   */\n      dup11\n        /* \"#utility.yul\":8970:8992   */\n      add\n        /* \"#utility.yul\":8949:9002   */\n      tag_80\n      jump\t// in\n    tag_212:\n        /* \"#utility.yul\":8939:9002   */\n      swap5\n      pop\n        /* \"#utility.yul\":8894:9012   */\n      pop\n        /* \"#utility.yul\":9079:9081   */\n      0x60\n        /* \"#utility.yul\":9068:9077   */\n      dup8\n        /* \"#utility.yul\":9064:9082   */\n      add\n        /* \"#utility.yul\":9051:9083   */\n      calldataload\n        /* \"#utility.yul\":9110:9128   */\n      0xffffffffffffffff\n        /* \"#utility.yul\":9102:9108   */\n      dup2\n        /* \"#utility.yul\":9099:9129   */\n      gt\n        /* \"#utility.yul\":9096:9213   */\n      iszero\n      tag_213\n      jumpi\n        /* \"#utility.yul\":9132:9211   */\n      tag_214\n      tag_59\n      jump\t// in\n    tag_214:\n        /* \"#utility.yul\":9096:9213   */\n    tag_213:\n        /* \"#utility.yul\":9237:9300   */\n      tag_215\n        /* \"#utility.yul\":9292:9299   */\n      dup10\n        /* \"#utility.yul\":9283:9289   */\n      dup3\n        /* \"#utility.yul\":9272:9281   */\n      dup11\n        /* \"#utility.yul\":9268:9290   */\n      add\n        /* \"#utility.yul\":9237:9300   */\n      tag_83\n      jump\t// in\n    tag_215:\n        /* \"#utility.yul\":9227:9300   */\n      swap4\n      pop\n        /* \"#utility.yul\":9022:9310   */\n      pop\n        /* \"#utility.yul\":9349:9352   */\n      0x80\n        /* \"#utility.yul\":9376:9429   */\n      tag_216\n        /* \"#utility.yul\":9421:9428   */\n      dup10\n        /* \"#utility.yul\":9412:9418   */\n      dup3\n        /* \"#utility.yul\":9401:9410   */\n      dup11\n        /* \"#utility.yul\":9397:9419   */\n      add\n        /* \"#utility.yul\":9376:9429   */\n      tag_80\n      jump\t// in\n    tag_216:\n        /* \"#utility.yul\":9366:9429   */\n      swap3\n      pop\n        /* \"#utility.yul\":9320:9439   */\n      pop\n        /* \"#utility.yul\":9506:9509   */\n      0xa0\n        /* \"#utility.yul\":9495:9504   */\n      dup8\n        /* \"#utility.yul\":9491:9510   */\n      add\n        /* \"#utility.yul\":9478:9511   */\n      calldataload\n        /* \"#utility.yul\":9538:9556   */\n      0xffffffffffffffff\n        /* \"#utility.yul\":9530:9536   */\n      dup2\n        /* \"#utility.yul\":9527:9557   */\n      gt\n        /* \"#utility.yul\":9524:9641   */\n      iszero\n      tag_217\n      jumpi\n        /* \"#utility.yul\":9560:9639   */\n      tag_218\n      tag_59\n      jump\t// in\n    tag_218:\n        /* \"#utility.yul\":9524:9641   */\n    tag_217:\n        /* \"#utility.yul\":9665:9727   */\n      tag_219\n        /* \"#utility.yul\":9719:9726   */\n      dup10\n        /* \"#utility.yul\":9710:9716   */\n      dup3\n        /* \"#utility.yul\":9699:9708   */\n      dup11\n        /* \"#utility.yul\":9695:9717   */\n      add\n        /* \"#utility.yul\":9665:9727   */\n      tag_72\n      jump\t// in\n    tag_219:\n        /* \"#utility.yul\":9655:9727   */\n      swap2\n      pop\n        /* \"#utility.yul\":9449:9737   */\n      pop\n        /* \"#utility.yul\":8329:9744   */\n      swap3\n      swap6\n      pop\n      swap3\n      swap6\n      pop\n      swap3\n      swap6\n      jump\t// out\n        /* \"#utility.yul\":9750:9840   */\n    tag_87:\n        /* \"#utility.yul\":9784:9791   */\n      0x00\n        /* \"#utility.yul\":9827:9832   */\n      dup2\n        /* \"#utility.yul\":9820:9833   */\n      iszero\n        /* \"#utility.yul\":9813:9834   */\n      iszero\n        /* \"#utility.yul\":9802:9834   */\n      swap1\n      pop\n        /* \"#utility.yul\":9750:9840   */\n      swap2\n      swap1\n      pop\n      jump\t// out\n        /* \"#utility.yul\":9846:9955   */\n    tag_88:\n        /* \"#utility.yul\":9927:9948   */\n      tag_222\n        /* \"#utility.yul\":9942:9947   */\n      dup2\n        /* \"#utility.yul\":9927:9948   */\n      tag_87\n      jump\t// in\n    tag_222:\n        /* \"#utility.yul\":9922:9925   */\n      dup3\n        /* \"#utility.yul\":9915:9949   */\n      mstore\n        /* \"#utility.yul\":9846:9955   */\n      pop\n      pop\n      jump\t// out\n        /* \"#utility.yul\":9961:10171   */\n    tag_31:\n        /* \"#utility.yul\":10048:10052   */\n      0x00\n        /* \"#utility.yul\":10086:10088   */\n      0x20\n        /* \"#utility.yul\":10075:10084   */\n      dup3\n        /* \"#utility.yul\":10071:10089   */\n      add\n        /* \"#utility.yul\":10063:10089   */\n      swap1\n      pop\n        /* \"#utility.yul\":10099:10164   */\n      tag_224\n        /* \"#utility.yul\":10161:10162   */\n      0x00\n        /* \"#utility.yul\":10150:10159   */\n      dup4\n        /* \"#utility.yul\":10146:10163   */\n      add\n        /* \"#utility.yul\":10137:10143   */\n      dup5\n        /* \"#utility.yul\":10099:10164   */\n      tag_88\n      jump\t// in\n    tag_224:\n        /* \"#utility.yul\":9961:10171   */\n      swap3\n      swap2\n      pop\n      pop\n      jump\t// out\n        /* \"#utility.yul\":10177:10506   */\n    tag_34:\n        /* \"#utility.yul\":10236:10242   */\n      0x00\n        /* \"#utility.yul\":10285:10287   */\n      0x20\n        /* \"#utility.yul\":10273:10282   */\n      dup3\n        /* \"#utility.yul\":10264:10271   */\n      dup5\n        /* \"#utility.yul\":10260:10283   */\n      sub\n        /* \"#utility.yul\":10256:10288   */\n      slt\n        /* \"#utility.yul\":10253:10372   */\n      iszero\n      tag_226\n      jumpi\n        /* \"#utility.yul\":10291:10370   */\n      tag_227\n      tag_58\n      jump\t// in\n    tag_227:\n        /* \"#utility.yul\":10253:10372   */\n    tag_226:\n        /* \"#utility.yul\":10411:10412   */\n      0x00\n        /* \"#utility.yul\":10436:10489   */\n      tag_228\n        /* \"#utility.yul\":10481:10488   */\n      dup5\n        /* \"#utility.yul\":10472:10478   */\n      dup3\n        /* \"#utility.yul\":10461:10470   */\n      dup6\n        /* \"#utility.yul\":10457:10479   */\n      add\n        /* \"#utility.yul\":10436:10489   */\n      tag_62\n      jump\t// in\n    tag_228:\n        /* \"#utility.yul\":10426:10489   */\n      swap2\n      pop\n        /* \"#utility.yul\":10382:10499   */\n      pop\n        /* \"#utility.yul\":10177:10506   */\n      swap3\n      swap2\n      pop\n      pop\n      jump\t// out\n        /* \"#utility.yul\":10512:11057   */\n    tag_40:\n        /* \"#utility.yul\":10685:10689   */\n      0x00\n        /* \"#utility.yul\":10723:10726   */\n      0x80\n        /* \"#utility.yul\":10712:10721   */\n      dup3\n        /* \"#utility.yul\":10708:10727   */\n      add\n        /* \"#utility.yul\":10700:10727   */\n      swap1\n      pop\n        /* \"#utility.yul\":10737:10808   */\n      tag_230\n        /* \"#utility.yul\":10805:10806   */\n      0x00\n        /* \"#utility.yul\":10794:10803   */\n      dup4\n        /* \"#utility.yul\":10790:10807   */\n      add\n        /* \"#utility.yul\":10781:10787   */\n      dup8\n        /* \"#utility.yul\":10737:10808   */\n      tag_84\n      jump\t// in\n    tag_230:\n        /* \"#utility.yul\":10818:10886   */\n      tag_231\n        /* \"#utility.yul\":10882:10884   */\n      0x20\n        /* \"#utility.yul\":10871:10880   */\n      dup4\n        /* \"#utility.yul\":10867:10885   */\n      add\n        /* \"#utility.yul\":10858:10864   */\n      dup7\n        /* \"#utility.yul\":10818:10886   */\n      tag_86\n      jump\t// in\n    tag_231:\n        /* \"#utility.yul\":10896:10968   */\n      tag_232\n        /* \"#utility.yul\":10964:10966   */\n      0x40\n        /* \"#utility.yul\":10953:10962   */\n      dup4\n        /* \"#utility.yul\":10949:10967   */\n      add\n        /* \"#utility.yul\":10940:10946   */\n      dup6\n        /* \"#utility.yul\":10896:10968   */\n      tag_84\n      jump\t// in\n    tag_232:\n        /* \"#utility.yul\":10978:11050   */\n      tag_233\n        /* \"#utility.yul\":11046:11048   */\n      0x60\n        /* \"#utility.yul\":11035:11044   */\n      dup4\n        /* \"#utility.yul\":11031:11049   */\n      add\n        /* \"#utility.yul\":11022:11028   */\n      dup5\n        /* \"#utility.yul\":10978:11050   */\n      tag_84\n      jump\t// in\n    tag_233:\n        /* \"#utility.yul\":10512:11057   */\n      swap6\n      swap5\n      pop\n      pop\n      pop\n      pop\n      pop\n      jump\t// out\n        /* \"#utility.yul\":11063:11157   */\n    tag_89:\n        /* \"#utility.yul\":11096:11104   */\n      0x00\n        /* \"#utility.yul\":11144:11149   */\n      dup2\n        /* \"#utility.yul\":11140:11142   */\n      0x60\n        /* \"#utility.yul\":11136:11150   */\n      shl\n        /* \"#utility.yul\":11115:11150   */\n      swap1\n      pop\n        /* \"#utility.yul\":11063:11157   */\n      swap2\n      swap1\n      pop\n      jump\t// out\n        /* \"#utility.yul\":11163:11257   */\n    tag_90:\n        /* \"#utility.yul\":11202:11209   */\n      0x00\n        /* \"#utility.yul\":11231:11251   */\n      tag_236\n        /* \"#utility.yul\":11245:11250   */\n      dup3\n        /* \"#utility.yul\":11231:11251   */\n      tag_89\n      jump\t// in\n    tag_236:\n        /* \"#utility.yul\":11220:11251   */\n      swap1\n      pop\n        /* \"#utility.yul\":11163:11257   */\n      swap2\n      swap1\n      pop\n      jump\t// out\n        /* \"#utility.yul\":11263:11363   */\n    tag_91:\n        /* \"#utility.yul\":11302:11309   */\n      0x00\n        /* \"#utility.yul\":11331:11357   */\n      tag_238\n        /* \"#utility.yul\":11351:11356   */\n      dup3\n        /* \"#utility.yul\":11331:11357   */\n      tag_90\n      jump\t// in\n    tag_238:\n        /* \"#utility.yul\":11320:11357   */\n      swap1\n      pop\n        /* \"#utility.yul\":11263:11363   */\n      swap2\n      swap1\n      pop\n      jump\t// out\n        /* \"#utility.yul\":11369:11526   */\n    tag_92:\n        /* \"#utility.yul\":11474:11519   */\n      tag_240\n        /* \"#utility.yul\":11494:11518   */\n      tag_241\n        /* \"#utility.yul\":11512:11517   */\n      dup3\n        /* \"#utility.yul\":11494:11518   */\n      tag_74\n      jump\t// in\n    tag_241:\n        /* \"#utility.yul\":11474:11519   */\n      tag_91\n      jump\t// in\n    tag_240:\n        /* \"#utility.yul\":11469:11472   */\n      dup3\n        /* \"#utility.yul\":11462:11520   */\n      mstore\n        /* \"#utility.yul\":11369:11526   */\n      pop\n      pop\n      jump\t// out\n        /* \"#utility.yul\":11532:11611   */\n    tag_93:\n        /* \"#utility.yul\":11571:11578   */\n      0x00\n        /* \"#utility.yul\":11600:11605   */\n      dup2\n        /* \"#utility.yul\":11589:11605   */\n      swap1\n      pop\n        /* \"#utility.yul\":11532:11611   */\n      swap2\n      swap1\n      pop\n      jump\t// out\n        /* \"#utility.yul\":11617:11774   */\n    tag_94:\n        /* \"#utility.yul\":11722:11767   */\n      tag_244\n        /* \"#utility.yul\":11742:11766   */\n      tag_245\n        /* \"#utility.yul\":11760:11765   */\n      dup3\n        /* \"#utility.yul\":11742:11766   */\n      tag_78\n      jump\t// in\n    tag_245:\n        /* \"#utility.yul\":11722:11767   */\n      tag_93\n      jump\t// in\n    tag_244:\n        /* \"#utility.yul\":11717:11720   */\n      dup3\n        /* \"#utility.yul\":11710:11768   */\n      mstore\n        /* \"#utility.yul\":11617:11774   */\n      pop\n      pop\n      jump\t// out\n        /* \"#utility.yul\":11780:11879   */\n    tag_95:\n        /* \"#utility.yul\":11832:11838   */\n      0x00\n        /* \"#utility.yul\":11866:11871   */\n      dup2\n        /* \"#utility.yul\":11860:11872   */\n      mload\n        /* \"#utility.yul\":11850:11872   */\n      swap1\n      pop\n        /* \"#utility.yul\":11780:11879   */\n      swap2\n      swap1\n      pop\n      jump\t// out\n        /* \"#utility.yul\":11885:12033   */\n    tag_96:\n        /* \"#utility.yul\":11987:11998   */\n      0x00\n        /* \"#utility.yul\":12024:12027   */\n      dup2\n        /* \"#utility.yul\":12009:12027   */\n      swap1\n      pop\n        /* \"#utility.yul\":11885:12033   */\n      swap3\n      swap2\n      pop\n      pop\n      jump\t// out\n        /* \"#utility.yul\":12039:12346   */\n    tag_97:\n        /* \"#utility.yul\":12107:12108   */\n      0x00\n        /* \"#utility.yul\":12117:12230   */\n    tag_249:\n        /* \"#utility.yul\":12131:12137   */\n      dup4\n        /* \"#utility.yul\":12128:12129   */\n      dup2\n        /* \"#utility.yul\":12125:12138   */\n      lt\n        /* \"#utility.yul\":12117:12230   */\n      iszero\n      tag_251\n      jumpi\n        /* \"#utility.yul\":12216:12217   */\n      dup1\n        /* \"#utility.yul\":12211:12214   */\n      dup3\n        /* \"#utility.yul\":12207:12218   */\n      add\n        /* \"#utility.yul\":12201:12219   */\n      mload\n        /* \"#utility.yul\":12197:12198   */\n      dup2\n        /* \"#utility.yul\":12192:12195   */\n      dup5\n        /* \"#utility.yul\":12188:12199   */\n      add\n        /* \"#utility.yul\":12181:12220   */\n      mstore\n        /* \"#utility.yul\":12153:12155   */\n      0x20\n        /* \"#utility.yul\":12150:12151   */\n      dup2\n        /* \"#utility.yul\":12146:12156   */\n      add\n        /* \"#utility.yul\":12141:12156   */\n      swap1\n      pop\n        /* \"#utility.yul\":12117:12230   */\n      jump(tag_249)\n    tag_251:\n        /* \"#utility.yul\":12248:12254   */\n      dup4\n        /* \"#utility.yul\":12245:12246   */\n      dup2\n        /* \"#utility.yul\":12242:12255   */\n      gt\n        /* \"#utility.yul\":12239:12340   */\n      iszero\n      tag_252\n      jumpi\n        /* \"#utility.yul\":12328:12329   */\n      0x00\n        /* \"#utility.yul\":12319:12325   */\n      dup5\n        /* \"#utility.yul\":12314:12317   */\n      dup5\n        /* \"#utility.yul\":12310:12326   */\n      add\n        /* \"#utility.yul\":12303:12330   */\n      mstore\n        /* \"#utility.yul\":12239:12340   */\n    tag_252:\n        /* \"#utility.yul\":12088:12346   */\n      pop\n        /* \"#utility.yul\":12039:12346   */\n      pop\n      pop\n      pop\n      jump\t// out\n        /* \"#utility.yul\":12352:12729   */\n    tag_98:\n        /* \"#utility.yul\":12458:12461   */\n      0x00\n        /* \"#utility.yul\":12486:12525   */\n      tag_254\n        /* \"#utility.yul\":12519:12524   */\n      dup3\n        /* \"#utility.yul\":12486:12525   */\n      tag_95\n      jump\t// in\n    tag_254:\n        /* \"#utility.yul\":12541:12630   */\n      tag_255\n        /* \"#utility.yul\":12623:12629   */\n      dup2\n        /* \"#utility.yul\":12618:12621   */\n      dup6\n        /* \"#utility.yul\":12541:12630   */\n      tag_96\n      jump\t// in\n    tag_255:\n        /* \"#utility.yul\":12534:12630   */\n      swap4\n      pop\n        /* \"#utility.yul\":12639:12691   */\n      tag_256\n        /* \"#utility.yul\":12684:12690   */\n      dup2\n        /* \"#utility.yul\":12679:12682   */\n      dup6\n        /* \"#utility.yul\":12672:12676   */\n      0x20\n        /* \"#utility.yul\":12665:12670   */\n      dup7\n        /* \"#utility.yul\":12661:12677   */\n      add\n        /* \"#utility.yul\":12639:12691   */\n      tag_97\n      jump\t// in\n    tag_256:\n        /* \"#utility.yul\":12716:12722   */\n      dup1\n        /* \"#utility.yul\":12711:12714   */\n      dup5\n        /* \"#utility.yul\":12707:12723   */\n      add\n        /* \"#utility.yul\":12700:12723   */\n      swap2\n      pop\n        /* \"#utility.yul\":12462:12729   */\n      pop\n        /* \"#utility.yul\":12352:12729   */\n      swap3\n      swap2\n      pop\n      pop\n      jump\t// out\n        /* \"#utility.yul\":12735:13433   */\n    tag_45:\n        /* \"#utility.yul\":12951:12954   */\n      0x00\n        /* \"#utility.yul\":12966:13041   */\n      tag_258\n        /* \"#utility.yul\":13037:13040   */\n      dup3\n        /* \"#utility.yul\":13028:13034   */\n      dup8\n        /* \"#utility.yul\":12966:13041   */\n      tag_92\n      jump\t// in\n    tag_258:\n        /* \"#utility.yul\":13066:13068   */\n      0x14\n        /* \"#utility.yul\":13061:13064   */\n      dup3\n        /* \"#utility.yul\":13057:13069   */\n      add\n        /* \"#utility.yul\":13050:13069   */\n      swap2\n      pop\n        /* \"#utility.yul\":13079:13154   */\n      tag_259\n        /* \"#utility.yul\":13150:13153   */\n      dup3\n        /* \"#utility.yul\":13141:13147   */\n      dup7\n        /* \"#utility.yul\":13079:13154   */\n      tag_94\n      jump\t// in\n    tag_259:\n        /* \"#utility.yul\":13179:13181   */\n      0x20\n        /* \"#utility.yul\":13174:13177   */\n      dup3\n        /* \"#utility.yul\":13170:13182   */\n      add\n        /* \"#utility.yul\":13163:13182   */\n      swap2\n      pop\n        /* \"#utility.yul\":13199:13294   */\n      tag_260\n        /* \"#utility.yul\":13290:13293   */\n      dup3\n        /* \"#utility.yul\":13281:13287   */\n      dup6\n        /* \"#utility.yul\":13199:13294   */\n      tag_98\n      jump\t// in\n    tag_260:\n        /* \"#utility.yul\":13192:13294   */\n      swap2\n      pop\n        /* \"#utility.yul\":13304:13379   */\n      tag_261\n        /* \"#utility.yul\":13375:13378   */\n      dup3\n        /* \"#utility.yul\":13366:13372   */\n      dup5\n        /* \"#utility.yul\":13304:13379   */\n      tag_94\n      jump\t// in\n    tag_261:\n        /* \"#utility.yul\":13404:13406   */\n      0x20\n        /* \"#utility.yul\":13399:13402   */\n      dup3\n        /* \"#utility.yul\":13395:13407   */\n      add\n        /* \"#utility.yul\":13388:13407   */\n      swap2\n      pop\n        /* \"#utility.yul\":13424:13427   */\n      dup2\n        /* \"#utility.yul\":13417:13427   */\n      swap1\n      pop\n        /* \"#utility.yul\":12735:13433   */\n      swap6\n      swap5\n      pop\n      pop\n      pop\n      pop\n      pop\n      jump\t// out\n        /* \"#utility.yul\":13439:13608   */\n    tag_99:\n        /* \"#utility.yul\":13523:13534   */\n      0x00\n        /* \"#utility.yul\":13557:13563   */\n      dup3\n        /* \"#utility.yul\":13552:13555   */\n      dup3\n        /* \"#utility.yul\":13545:13564   */\n      mstore\n        /* \"#utility.yul\":13597:13601   */\n      0x20\n        /* \"#utility.yul\":13592:13595   */\n      dup3\n        /* \"#utility.yul\":13588:13602   */\n      add\n        /* \"#utility.yul\":13573:13602   */\n      swap1\n      pop\n        /* \"#utility.yul\":13439:13608   */\n      swap3\n      swap2\n      pop\n      pop\n      jump\t// out\n        /* \"#utility.yul\":13614:13788   */\n    tag_100:\n        /* \"#utility.yul\":13754:13780   */\n      0x696e76616c6964207369676e6174757265206c656e6774680000000000000000\n        /* \"#utility.yul\":13750:13751   */\n      0x00\n        /* \"#utility.yul\":13742:13748   */\n      dup3\n        /* \"#utility.yul\":13738:13752   */\n      add\n        /* \"#utility.yul\":13731:13781   */\n      mstore\n        /* \"#utility.yul\":13614:13788   */\n      pop\n      jump\t// out\n        /* \"#utility.yul\":13794:14160   */\n    tag_101:\n        /* \"#utility.yul\":13936:13939   */\n      0x00\n        /* \"#utility.yul\":13957:14024   */\n      tag_265\n        /* \"#utility.yul\":14021:14023   */\n      0x18\n        /* \"#utility.yul\":14016:14019   */\n      dup4\n        /* \"#utility.yul\":13957:14024   */\n      tag_99\n      jump\t// in\n    tag_265:\n        /* \"#utility.yul\":13950:14024   */\n      swap2\n      pop\n        /* \"#utility.yul\":14033:14126   */\n      tag_266\n        /* \"#utility.yul\":14122:14125   */\n      dup3\n        /* \"#utility.yul\":14033:14126   */\n      tag_100\n      jump\t// in\n    tag_266:\n        /* \"#utility.yul\":14151:14153   */\n      0x20\n        /* \"#utility.yul\":14146:14149   */\n      dup3\n        /* \"#utility.yul\":14142:14154   */\n      add\n        /* \"#utility.yul\":14135:14154   */\n      swap1\n      pop\n        /* \"#utility.yul\":13794:14160   */\n      swap2\n      swap1\n      pop\n      jump\t// out\n        /* \"#utility.yul\":14166:14585   */\n    tag_49:\n        /* \"#utility.yul\":14332:14336   */\n      0x00\n        /* \"#utility.yul\":14370:14372   */\n      0x20\n        /* \"#utility.yul\":14359:14368   */\n      dup3\n        /* \"#utility.yul\":14355:14373   */\n      add\n        /* \"#utility.yul\":14347:14373   */\n      swap1\n      pop\n        /* \"#utility.yul\":14419:14428   */\n      dup2\n        /* \"#utility.yul\":14413:14417   */\n      dup2\n        /* \"#utility.yul\":14409:14429   */\n      sub\n        /* \"#utility.yul\":14405:14406   */\n      0x00\n        /* \"#utility.yul\":14394:14403   */\n      dup4\n        /* \"#utility.yul\":14390:14407   */\n      add\n        /* \"#utility.yul\":14383:14430   */\n      mstore\n        /* \"#utility.yul\":14447:14578   */\n      tag_268\n        /* \"#utility.yul\":14573:14577   */\n      dup2\n        /* \"#utility.yul\":14447:14578   */\n      tag_101\n      jump\t// in\n    tag_268:\n        /* \"#utility.yul\":14439:14578   */\n      swap1\n      pop\n        /* \"#utility.yul\":14166:14585   */\n      swap2\n      swap1\n      pop\n      jump\t// out\n        /* \"#utility.yul\":14591:14805   */\n    tag_102:\n        /* \"#utility.yul\":14731:14797   */\n      0x19457468657265756d205369676e6564204d6573736167653a0a333200000000\n        /* \"#utility.yul\":14727:14728   */\n      0x00\n        /* \"#utility.yul\":14719:14725   */\n      dup3\n        /* \"#utility.yul\":14715:14729   */\n      add\n        /* \"#utility.yul\":14708:14798   */\n      mstore\n        /* \"#utility.yul\":14591:14805   */\n      pop\n      jump\t// out\n        /* \"#utility.yul\":14811:15213   */\n    tag_103:\n        /* \"#utility.yul\":14971:14974   */\n      0x00\n        /* \"#utility.yul\":14992:15077   */\n      tag_271\n        /* \"#utility.yul\":15074:15076   */\n      0x1c\n        /* \"#utility.yul\":15069:15072   */\n      dup4\n        /* \"#utility.yul\":14992:15077   */\n      tag_96\n      jump\t// in\n    tag_271:\n        /* \"#utility.yul\":14985:15077   */\n      swap2\n      pop\n        /* \"#utility.yul\":15086:15179   */\n      tag_272\n        /* \"#utility.yul\":15175:15178   */\n      dup3\n        /* \"#utility.yul\":15086:15179   */\n      tag_102\n      jump\t// in\n    tag_272:\n        /* \"#utility.yul\":15204:15206   */\n      0x1c\n        /* \"#utility.yul\":15199:15202   */\n      dup3\n        /* \"#utility.yul\":15195:15207   */\n      add\n        /* \"#utility.yul\":15188:15207   */\n      swap1\n      pop\n        /* \"#utility.yul\":14811:15213   */\n      swap2\n      swap1\n      pop\n      jump\t// out\n        /* \"#utility.yul\":15219:15298   */\n    tag_104:\n        /* \"#utility.yul\":15258:15265   */\n      0x00\n        /* \"#utility.yul\":15287:15292   */\n      dup2\n        /* \"#utility.yul\":15276:15292   */\n      swap1\n      pop\n        /* \"#utility.yul\":15219:15298   */\n      swap2\n      swap1\n      pop\n      jump\t// out\n        /* \"#utility.yul\":15304:15461   */\n    tag_105:\n        /* \"#utility.yul\":15409:15454   */\n      tag_275\n        /* \"#utility.yul\":15429:15453   */\n      tag_276\n        /* \"#utility.yul\":15447:15452   */\n      dup3\n        /* \"#utility.yul\":15429:15453   */\n      tag_60\n      jump\t// in\n    tag_276:\n        /* \"#utility.yul\":15409:15454   */\n      tag_104\n      jump\t// in\n    tag_275:\n        /* \"#utility.yul\":15404:15407   */\n      dup3\n        /* \"#utility.yul\":15397:15455   */\n      mstore\n        /* \"#utility.yul\":15304:15461   */\n      pop\n      pop\n      jump\t// out\n        /* \"#utility.yul\":15467:15989   */\n    tag_56:\n        /* \"#utility.yul\":15680:15683   */\n      0x00\n        /* \"#utility.yul\":15702:15850   */\n      tag_278\n        /* \"#utility.yul\":15846:15849   */\n      dup3\n        /* \"#utility.yul\":15702:15850   */\n      tag_103\n      jump\t// in\n    tag_278:\n        /* \"#utility.yul\":15695:15850   */\n      swap2\n      pop\n        /* \"#utility.yul\":15860:15935   */\n      tag_279\n        /* \"#utility.yul\":15931:15934   */\n      dup3\n        /* \"#utility.yul\":15922:15928   */\n      dup5\n        /* \"#utility.yul\":15860:15935   */\n      tag_105\n      jump\t// in\n    tag_279:\n        /* \"#utility.yul\":15960:15962   */\n      0x20\n        /* \"#utility.yul\":15955:15958   */\n      dup3\n        /* \"#utility.yul\":15951:15963   */\n      add\n        /* \"#utility.yul\":15944:15963   */\n      swap2\n      pop\n        /* \"#utility.yul\":15980:15983   */\n      dup2\n        /* \"#utility.yul\":15973:15983   */\n      swap1\n      pop\n        /* \"#utility.yul\":15467:15989   */\n      swap3\n      swap2\n      pop\n      pop\n      jump\t// out\n\n    auxdata: 0xa26469706673582212209bc1ca6522f017508e1bb8065c2e0e5703646fc749a0bb5ff793066e29d7d39d64736f6c634300080d0033\n}\n",
				"bytecode": {
					"linkReferences": {},
					"object": "608060405234801561001057600080fd5b50610b66806100206000396000f3fe608060405234801561001057600080fd5b50600436106100575760003560e01c806397aba7f91461005c578063a35f8a401461008c578063a7bb5803146100bc578063abe5026a146100ee578063fa5408011461011e575b600080fd5b61007660048036038101906100719190610482565b61014e565b604051610083919061051f565b60405180910390f35b6100a660048036038101906100a1919061063d565b6101bd565b6040516100b391906106cf565b60405180910390f35b6100d660048036038101906100d191906106ea565b6101f6565b6040516100e59392919061074f565b60405180910390f35b61010860048036038101906101039190610786565b61025e565b6040516101159190610866565b60405180910390f35b61013860048036038101906101339190610881565b6102c2565b60405161014591906106cf565b60405180910390f35b60008060008061015d856101f6565b9250925092506001868285856040516000815260200160405260405161018694939291906108ae565b6020604051602081039080840390855afa1580156101a8573d6000803e3d6000fd5b50505060206040510351935050505092915050565b6000848484846040516020016101d694939291906109d6565b604051602081830303815290604052805190602001209050949350505050565b6000806000604184511461023f576040517f08c379a000000000000000000000000000000000000000000000000000000000815260040161023690610a7d565b60405180910390fd5b6020840151925060408401519150606084015160001a90509193909250565b60008061026d878787876101bd565b9050600061027a826102c2565b90508873ffffffffffffffffffffffffffffffffffffffff1661029d828661014e565b73ffffffffffffffffffffffffffffffffffffffff1614925050509695505050505050565b6000816040516020016102d59190610b0a565b604051602081830303815290604052805190602001209050919050565b6000604051905090565b600080fd5b600080fd5b6000819050919050565b61031981610306565b811461032457600080fd5b50565b60008135905061033681610310565b92915050565b600080fd5b600080fd5b6000601f19601f8301169050919050565b7f4e487b7100000000000000000000000000000000000000000000000000000000600052604160045260246000fd5b61038f82610346565b810181811067ffffffffffffffff821117156103ae576103ad610357565b5b80604052505050565b60006103c16102f2565b90506103cd8282610386565b919050565b600067ffffffffffffffff8211156103ed576103ec610357565b5b6103f682610346565b9050602081019050919050565b82818337600083830152505050565b6000610425610420846103d2565b6103b7565b90508281526020810184848401111561044157610440610341565b5b61044c848285610403565b509392505050565b600082601f8301126104695761046861033c565b5b8135610479848260208601610412565b91505092915050565b60008060408385031215610499576104986102fc565b5b60006104a785828601610327565b925050602083013567ffffffffffffffff8111156104c8576104c7610301565b5b6104d485828601610454565b9150509250929050565b600073ffffffffffffffffffffffffffffffffffffffff82169050919050565b6000610509826104de565b9050919050565b610519816104fe565b82525050565b60006020820190506105346000830184610510565b92915050565b610543816104fe565b811461054e57600080fd5b50565b6000813590506105608161053a565b92915050565b6000819050919050565b61057981610566565b811461058457600080fd5b50565b60008135905061059681610570565b92915050565b600067ffffffffffffffff8211156105b7576105b6610357565b5b6105c082610346565b9050602081019050919050565b60006105e06105db8461059c565b6103b7565b9050828152602081018484840111156105fc576105fb610341565b5b610607848285610403565b509392505050565b600082601f8301126106245761062361033c565b5b81356106348482602086016105cd565b91505092915050565b60008060008060808587031215610657576106566102fc565b5b600061066587828801610551565b945050602061067687828801610587565b935050604085013567ffffffffffffffff81111561069757610696610301565b5b6106a38782880161060f565b92505060606106b487828801610587565b91505092959194509250565b6106c981610306565b82525050565b60006020820190506106e460008301846106c0565b92915050565b600060208284031215610700576106ff6102fc565b5b600082013567ffffffffffffffff81111561071e5761071d610301565b5b61072a84828501610454565b91505092915050565b600060ff82169050919050565b61074981610733565b82525050565b600060608201905061076460008301866106c0565b61077160208301856106c0565b61077e6040830184610740565b949350505050565b60008060008060008060c087890312156107a3576107a26102fc565b5b60006107b189828a01610551565b96505060206107c289828a01610551565b95505060406107d389828a01610587565b945050606087013567ffffffffffffffff8111156107f4576107f3610301565b5b61080089828a0161060f565b935050608061081189828a01610587565b92505060a087013567ffffffffffffffff81111561083257610831610301565b5b61083e89828a01610454565b9150509295509295509295565b60008115159050919050565b6108608161084b565b82525050565b600060208201905061087b6000830184610857565b92915050565b600060208284031215610897576108966102fc565b5b60006108a584828501610327565b91505092915050565b60006080820190506108c360008301876106c0565b6108d06020830186610740565b6108dd60408301856106c0565b6108ea60608301846106c0565b95945050505050565b60008160601b9050919050565b600061090b826108f3565b9050919050565b600061091d82610900565b9050919050565b610935610930826104fe565b610912565b82525050565b6000819050919050565b61095661095182610566565b61093b565b82525050565b600081519050919050565b600081905092915050565b60005b83811015610990578082015181840152602081019050610975565b8381111561099f576000848401525b50505050565b60006109b08261095c565b6109ba8185610967565b93506109ca818560208601610972565b80840191505092915050565b60006109e28287610924565b6014820191506109f28286610945565b602082019150610a0282856109a5565b9150610a0e8284610945565b60208201915081905095945050505050565b600082825260208201905092915050565b7f696e76616c6964207369676e6174757265206c656e6774680000000000000000600082015250565b6000610a67601883610a20565b9150610a7282610a31565b602082019050919050565b60006020820190508181036000830152610a9681610a5a565b9050919050565b7f19457468657265756d205369676e6564204d6573736167653a0a333200000000600082015250565b6000610ad3601c83610967565b9150610ade82610a9d565b601c82019050919050565b6000819050919050565b610b04610aff82610306565b610ae9565b82525050565b6000610b1582610ac6565b9150610b218284610af3565b6020820191508190509291505056fea26469706673582212209bc1ca6522f017508e1bb8065c2e0e5703646fc749a0bb5ff793066e29d7d39d64736f6c634300080d0033",
					"opcodes": "PUSH1 0x80 PUSH1 0x40 MSTORE CALLVALUE DUP1 ISZERO PUSH2 0x10 JUMPI PUSH1 0x0 DUP1 REVERT JUMPDEST POP PUSH2 0xB66 DUP1 PUSH2 0x20 PUSH1 0x0 CODECOPY PUSH1 0x0 RETURN INVALID PUSH1 0x80 PUSH1 0x40 MSTORE CALLVALUE DUP1 ISZERO PUSH2 0x10 JUMPI PUSH1 0x0 DUP1 REVERT JUMPDEST POP PUSH1 0x4 CALLDATASIZE LT PUSH2 0x57 JUMPI PUSH1 0x0 CALLDATALOAD PUSH1 0xE0 SHR DUP1 PUSH4 0x97ABA7F9 EQ PUSH2 0x5C JUMPI DUP1 PUSH4 0xA35F8A40 EQ PUSH2 0x8C JUMPI DUP1 PUSH4 0xA7BB5803 EQ PUSH2 0xBC JUMPI DUP1 PUSH4 0xABE5026A EQ PUSH2 0xEE JUMPI DUP1 PUSH4 0xFA540801 EQ PUSH2 0x11E JUMPI JUMPDEST PUSH1 0x0 DUP1 REVERT JUMPDEST PUSH2 0x76 PUSH1 0x4 DUP1 CALLDATASIZE SUB DUP2 ADD SWAP1 PUSH2 0x71 SWAP2 SWAP1 PUSH2 0x482 JUMP JUMPDEST PUSH2 0x14E JUMP JUMPDEST PUSH1 0x40 MLOAD PUSH2 0x83 SWAP2 SWAP1 PUSH2 0x51F JUMP JUMPDEST PUSH1 0x40 MLOAD DUP1 SWAP2 SUB SWAP1 RETURN JUMPDEST PUSH2 0xA6 PUSH1 0x4 DUP1 CALLDATASIZE SUB DUP2 ADD SWAP1 PUSH2 0xA1 SWAP2 SWAP1 PUSH2 0x63D JUMP JUMPDEST PUSH2 0x1BD JUMP JUMPDEST PUSH1 0x40 MLOAD PUSH2 0xB3 SWAP2 SWAP1 PUSH2 0x6CF JUMP JUMPDEST PUSH1 0x40 MLOAD DUP1 SWAP2 SUB SWAP1 RETURN JUMPDEST PUSH2 0xD6 PUSH1 0x4 DUP1 CALLDATASIZE SUB DUP2 ADD SWAP1 PUSH2 0xD1 SWAP2 SWAP1 PUSH2 0x6EA JUMP JUMPDEST PUSH2 0x1F6 JUMP JUMPDEST PUSH1 0x40 MLOAD PUSH2 0xE5 SWAP4 SWAP3 SWAP2 SWAP1 PUSH2 0x74F JUMP JUMPDEST PUSH1 0x40 MLOAD DUP1 SWAP2 SUB SWAP1 RETURN JUMPDEST PUSH2 0x108 PUSH1 0x4 DUP1 CALLDATASIZE SUB DUP2 ADD SWAP1 PUSH2 0x103 SWAP2 SWAP1 PUSH2 0x786 JUMP JUMPDEST PUSH2 0x25E JUMP JUMPDEST PUSH1 0x40 MLOAD PUSH2 0x115 SWAP2 SWAP1 PUSH2 0x866 JUMP JUMPDEST PUSH1 0x40 MLOAD DUP1 SWAP2 SUB SWAP1 RETURN JUMPDEST PUSH2 0x138 PUSH1 0x4 DUP1 CALLDATASIZE SUB DUP2 ADD SWAP1 PUSH2 0x133 SWAP2 SWAP1 PUSH2 0x881 JUMP JUMPDEST PUSH2 0x2C2 JUMP JUMPDEST PUSH1 0x40 MLOAD PUSH2 0x145 SWAP2 SWAP1 PUSH2 0x6CF JUMP JUMPDEST PUSH1 0x40 MLOAD DUP1 SWAP2 SUB SWAP1 RETURN JUMPDEST PUSH1 0x0 DUP1 PUSH1 0x0 DUP1 PUSH2 0x15D DUP6 PUSH2 0x1F6 JUMP JUMPDEST SWAP3 POP SWAP3 POP SWAP3 POP PUSH1 0x1 DUP7 DUP3 DUP6 DUP6 PUSH1 0x40 MLOAD PUSH1 0x0 DUP2 MSTORE PUSH1 0x20 ADD PUSH1 0x40 MSTORE PUSH1 0x40 MLOAD PUSH2 0x186 SWAP5 SWAP4 SWAP3 SWAP2 SWAP1 PUSH2 0x8AE JUMP JUMPDEST PUSH1 0x20 PUSH1 0x40 MLOAD PUSH1 0x20 DUP2 SUB SWAP1 DUP1 DUP5 SUB SWAP1 DUP6 GAS STATICCALL ISZERO DUP1 ISZERO PUSH2 0x1A8 JUMPI RETURNDATASIZE PUSH1 0x0 DUP1 RETURNDATACOPY RETURNDATASIZE PUSH1 0x0 REVERT JUMPDEST POP POP POP PUSH1 0x20 PUSH1 0x40 MLOAD SUB MLOAD SWAP4 POP POP POP POP SWAP3 SWAP2 POP POP JUMP JUMPDEST PUSH1 0x0 DUP5 DUP5 DUP5 DUP5 PUSH1 0x40 MLOAD PUSH1 0x20 ADD PUSH2 0x1D6 SWAP5 SWAP4 SWAP3 SWAP2 SWAP1 PUSH2 0x9D6 JUMP JUMPDEST PUSH1 0x40 MLOAD PUSH1 0x20 DUP2 DUP4 SUB SUB DUP2 MSTORE SWAP1 PUSH1 0x40 MSTORE DUP1 MLOAD SWAP1 PUSH1 0x20 ADD KECCAK256 SWAP1 POP SWAP5 SWAP4 POP POP POP POP JUMP JUMPDEST PUSH1 0x0 DUP1 PUSH1 0x0 PUSH1 0x41 DUP5 MLOAD EQ PUSH2 0x23F JUMPI PUSH1 0x40 MLOAD PUSH32 0x8C379A000000000000000000000000000000000000000000000000000000000 DUP2 MSTORE PUSH1 0x4 ADD PUSH2 0x236 SWAP1 PUSH2 0xA7D JUMP JUMPDEST PUSH1 0x40 MLOAD DUP1 SWAP2 SUB SWAP1 REVERT JUMPDEST PUSH1 0x20 DUP5 ADD MLOAD SWAP3 POP PUSH1 0x40 DUP5 ADD MLOAD SWAP2 POP PUSH1 0x60 DUP5 ADD MLOAD PUSH1 0x0 BYTE SWAP1 POP SWAP2 SWAP4 SWAP1 SWAP3 POP JUMP JUMPDEST PUSH1 0x0 DUP1 PUSH2 0x26D DUP8 DUP8 DUP8 DUP8 PUSH2 0x1BD JUMP JUMPDEST SWAP1 POP PUSH1 0x0 PUSH2 0x27A DUP3 PUSH2 0x2C2 JUMP JUMPDEST SWAP1 POP DUP9 PUSH20 0xFFFFFFFFFFFFFFFFFFFFFFFFFFFFFFFFFFFFFFFF AND PUSH2 0x29D DUP3 DUP7 PUSH2 0x14E JUMP JUMPDEST PUSH20 0xFFFFFFFFFFFFFFFFFFFFFFFFFFFFFFFFFFFFFFFF AND EQ SWAP3 POP POP POP SWAP7 SWAP6 POP POP POP POP POP POP JUMP JUMPDEST PUSH1 0x0 DUP2 PUSH1 0x40 MLOAD PUSH1 0x20 ADD PUSH2 0x2D5 SWAP2 SWAP1 PUSH2 0xB0A JUMP JUMPDEST PUSH1 0x40 MLOAD PUSH1 0x20 DUP2 DUP4 SUB SUB DUP2 MSTORE SWAP1 PUSH1 0x40 MSTORE DUP1 MLOAD SWAP1 PUSH1 0x20 ADD KECCAK256 SWAP1 POP SWAP2 SWAP1 POP JUMP JUMPDEST PUSH1 0x0 PUSH1 0x40 MLOAD SWAP1 POP SWAP1 JUMP JUMPDEST PUSH1 0x0 DUP1 REVERT JUMPDEST PUSH1 0x0 DUP1 REVERT JUMPDEST PUSH1 0x0 DUP2 SWAP1 POP SWAP2 SWAP1 POP JUMP JUMPDEST PUSH2 0x319 DUP2 PUSH2 0x306 JUMP JUMPDEST DUP2 EQ PUSH2 0x324 JUMPI PUSH1 0x0 DUP1 REVERT JUMPDEST POP JUMP JUMPDEST PUSH1 0x0 DUP2 CALLDATALOAD SWAP1 POP PUSH2 0x336 DUP2 PUSH2 0x310 JUMP JUMPDEST SWAP3 SWAP2 POP POP JUMP JUMPDEST PUSH1 0x0 DUP1 REVERT JUMPDEST PUSH1 0x0 DUP1 REVERT JUMPDEST PUSH1 0x0 PUSH1 0x1F NOT PUSH1 0x1F DUP4 ADD AND SWAP1 POP SWAP2 SWAP1 POP JUMP JUMPDEST PUSH32 0x4E487B7100000000000000000000000000000000000000000000000000000000 PUSH1 0x0 MSTORE PUSH1 0x41 PUSH1 0x4 MSTORE PUSH1 0x24 PUSH1 0x0 REVERT JUMPDEST PUSH2 0x38F DUP3 PUSH2 0x346 JUMP JUMPDEST DUP2 ADD DUP2 DUP2 LT PUSH8 0xFFFFFFFFFFFFFFFF DUP3 GT OR ISZERO PUSH2 0x3AE JUMPI PUSH2 0x3AD PUSH2 0x357 JUMP JUMPDEST JUMPDEST DUP1 PUSH1 0x40 MSTORE POP POP POP JUMP JUMPDEST PUSH1 0x0 PUSH2 0x3C1 PUSH2 0x2F2 JUMP JUMPDEST SWAP1 POP PUSH2 0x3CD DUP3 DUP3 PUSH2 0x386 JUMP JUMPDEST SWAP2 SWAP1 POP JUMP JUMPDEST PUSH1 0x0 PUSH8 0xFFFFFFFFFFFFFFFF DUP3 GT ISZERO PUSH2 0x3ED JUMPI PUSH2 0x3EC PUSH2 0x357 JUMP JUMPDEST JUMPDEST PUSH2 0x3F6 DUP3 PUSH2 0x346 JUMP JUMPDEST SWAP1 POP PUSH1 0x20 DUP2 ADD SWAP1 POP SWAP2 SWAP1 POP JUMP JUMPDEST DUP3 DUP2 DUP4 CALLDATACOPY PUSH1 0x0 DUP4 DUP4 ADD MSTORE POP POP POP JUMP JUMPDEST PUSH1 0x0 PUSH2 0x425 PUSH2 0x420 DUP5 PUSH2 0x3D2 JUMP JUMPDEST PUSH2 0x3B7 JUMP JUMPDEST SWAP1 POP DUP3 DUP2 MSTORE PUSH1 0x20 DUP2 ADD DUP5 DUP5 DUP5 ADD GT ISZERO PUSH2 0x441 JUMPI PUSH2 0x440 PUSH2 0x341 JUMP JUMPDEST JUMPDEST PUSH2 0x44C DUP5 DUP3 DUP6 PUSH2 0x403 JUMP JUMPDEST POP SWAP4 SWAP3 POP POP POP JUMP JUMPDEST PUSH1 0x0 DUP3 PUSH1 0x1F DUP4 ADD SLT PUSH2 0x469 JUMPI PUSH2 0x468 PUSH2 0x33C JUMP JUMPDEST JUMPDEST DUP2 CALLDATALOAD PUSH2 0x479 DUP5 DUP3 PUSH1 0x20 DUP7 ADD PUSH2 0x412 JUMP JUMPDEST SWAP2 POP POP SWAP3 SWAP2 POP POP JUMP JUMPDEST PUSH1 0x0 DUP1 PUSH1 0x40 DUP4 DUP6 SUB SLT ISZERO PUSH2 0x499 JUMPI PUSH2 0x498 PUSH2 0x2FC JUMP JUMPDEST JUMPDEST PUSH1 0x0 PUSH2 0x4A7 DUP6 DUP3 DUP7 ADD PUSH2 0x327 JUMP JUMPDEST SWAP3 POP POP PUSH1 0x20 DUP4 ADD CALLDATALOAD PUSH8 0xFFFFFFFFFFFFFFFF DUP2 GT ISZERO PUSH2 0x4C8 JUMPI PUSH2 0x4C7 PUSH2 0x301 JUMP JUMPDEST JUMPDEST PUSH2 0x4D4 DUP6 DUP3 DUP7 ADD PUSH2 0x454 JUMP JUMPDEST SWAP2 POP POP SWAP3 POP SWAP3 SWAP1 POP JUMP JUMPDEST PUSH1 0x0 PUSH20 0xFFFFFFFFFFFFFFFFFFFFFFFFFFFFFFFFFFFFFFFF DUP3 AND SWAP1 POP SWAP2 SWAP1 POP JUMP JUMPDEST PUSH1 0x0 PUSH2 0x509 DUP3 PUSH2 0x4DE JUMP JUMPDEST SWAP1 POP SWAP2 SWAP1 POP JUMP JUMPDEST PUSH2 0x519 DUP2 PUSH2 0x4FE JUMP JUMPDEST DUP3 MSTORE POP POP JUMP JUMPDEST PUSH1 0x0 PUSH1 0x20 DUP3 ADD SWAP1 POP PUSH2 0x534 PUSH1 0x0 DUP4 ADD DUP5 PUSH2 0x510 JUMP JUMPDEST SWAP3 SWAP2 POP POP JUMP JUMPDEST PUSH2 0x543 DUP2 PUSH2 0x4FE JUMP JUMPDEST DUP2 EQ PUSH2 0x54E JUMPI PUSH1 0x0 DUP1 REVERT JUMPDEST POP JUMP JUMPDEST PUSH1 0x0 DUP2 CALLDATALOAD SWAP1 POP PUSH2 0x560 DUP2 PUSH2 0x53A JUMP JUMPDEST SWAP3 SWAP2 POP POP JUMP JUMPDEST PUSH1 0x0 DUP2 SWAP1 POP SWAP2 SWAP1 POP JUMP JUMPDEST PUSH2 0x579 DUP2 PUSH2 0x566 JUMP JUMPDEST DUP2 EQ PUSH2 0x584 JUMPI PUSH1 0x0 DUP1 REVERT JUMPDEST POP JUMP JUMPDEST PUSH1 0x0 DUP2 CALLDATALOAD SWAP1 POP PUSH2 0x596 DUP2 PUSH2 0x570 JUMP JUMPDEST SWAP3 SWAP2 POP POP JUMP JUMPDEST PUSH1 0x0 PUSH8 0xFFFFFFFFFFFFFFFF DUP3 GT ISZERO PUSH2 0x5B7 JUMPI PUSH2 0x5B6 PUSH2 0x357 JUMP JUMPDEST JUMPDEST PUSH2 0x5C0 DUP3 PUSH2 0x346 JUMP JUMPDEST SWAP1 POP PUSH1 0x20 DUP2 ADD SWAP1 POP SWAP2 SWAP1 POP JUMP JUMPDEST PUSH1 0x0 PUSH2 0x5E0 PUSH2 0x5DB DUP5 PUSH2 0x59C JUMP JUMPDEST PUSH2 0x3B7 JUMP JUMPDEST SWAP1 POP DUP3 DUP2 MSTORE PUSH1 0x20 DUP2 ADD DUP5 DUP5 DUP5 ADD GT ISZERO PUSH2 0x5FC JUMPI PUSH2 0x5FB PUSH2 0x341 JUMP JUMPDEST JUMPDEST PUSH2 0x607 DUP5 DUP3 DUP6 PUSH2 0x403 JUMP JUMPDEST POP SWAP4 SWAP3 POP POP POP JUMP JUMPDEST PUSH1 0x0 DUP3 PUSH1 0x1F DUP4 ADD SLT PUSH2 0x624 JUMPI PUSH2 0x623 PUSH2 0x33C JUMP JUMPDEST JUMPDEST DUP2 CALLDATALOAD PUSH2 0x634 DUP5 DUP3 PUSH1 0x20 DUP7 ADD PUSH2 0x5CD JUMP JUMPDEST SWAP2 POP POP SWAP3 SWAP2 POP POP JUMP JUMPDEST PUSH1 0x0 DUP1 PUSH1 0x0 DUP1 PUSH1 0x80 DUP6 DUP8 SUB SLT ISZERO PUSH2 0x657 JUMPI PUSH2 0x656 PUSH2 0x2FC JUMP JUMPDEST JUMPDEST PUSH1 0x0 PUSH2 0x665 DUP8 DUP3 DUP9 ADD PUSH2 0x551 JUMP JUMPDEST SWAP5 POP POP PUSH1 0x20 PUSH2 0x676 DUP8 DUP3 DUP9 ADD PUSH2 0x587 JUMP JUMPDEST SWAP4 POP POP PUSH1 0x40 DUP6 ADD CALLDATALOAD PUSH8 0xFFFFFFFFFFFFFFFF DUP2 GT ISZERO PUSH2 0x697 JUMPI PUSH2 0x696 PUSH2 0x301 JUMP JUMPDEST JUMPDEST PUSH2 0x6A3 DUP8 DUP3 DUP9 ADD PUSH2 0x60F JUMP JUMPDEST SWAP3 POP POP PUSH1 0x60 PUSH2 0x6B4 DUP8 DUP3 DUP9 ADD PUSH2 0x587 JUMP JUMPDEST SWAP2 POP POP SWAP3 SWAP6 SWAP2 SWAP5 POP SWAP3 POP JUMP JUMPDEST PUSH2 0x6C9 DUP2 PUSH2 0x306 JUMP JUMPDEST DUP3 MSTORE POP POP JUMP JUMPDEST PUSH1 0x0 PUSH1 0x20 DUP3 ADD SWAP1 POP PUSH2 0x6E4 PUSH1 0x0 DUP4 ADD DUP5 PUSH2 0x6C0 JUMP JUMPDEST SWAP3 SWAP2 POP POP JUMP JUMPDEST PUSH1 0x0 PUSH1 0x20 DUP3 DUP5 SUB SLT ISZERO PUSH2 0x700 JUMPI PUSH2 0x6FF PUSH2 0x2FC JUMP JUMPDEST JUMPDEST PUSH1 0x0 DUP3 ADD CALLDATALOAD PUSH8 0xFFFFFFFFFFFFFFFF DUP2 GT ISZERO PUSH2 0x71E JUMPI PUSH2 0x71D PUSH2 0x301 JUMP JUMPDEST JUMPDEST PUSH2 0x72A DUP5 DUP3 DUP6 ADD PUSH2 0x454 JUMP JUMPDEST SWAP2 POP POP SWAP3 SWAP2 POP POP JUMP JUMPDEST PUSH1 0x0 PUSH1 0xFF DUP3 AND SWAP1 POP SWAP2 SWAP1 POP JUMP JUMPDEST PUSH2 0x749 DUP2 PUSH2 0x733 JUMP JUMPDEST DUP3 MSTORE POP POP JUMP JUMPDEST PUSH1 0x0 PUSH1 0x60 DUP3 ADD SWAP1 POP PUSH2 0x764 PUSH1 0x0 DUP4 ADD DUP7 PUSH2 0x6C0 JUMP JUMPDEST PUSH2 0x771 PUSH1 0x20 DUP4 ADD DUP6 PUSH2 0x6C0 JUMP JUMPDEST PUSH2 0x77E PUSH1 0x40 DUP4 ADD DUP5 PUSH2 0x740 JUMP JUMPDEST SWAP5 SWAP4 POP POP POP POP JUMP JUMPDEST PUSH1 0x0 DUP1 PUSH1 0x0 DUP1 PUSH1 0x0 DUP1 PUSH1 0xC0 DUP8 DUP10 SUB SLT ISZERO PUSH2 0x7A3 JUMPI PUSH2 0x7A2 PUSH2 0x2FC JUMP JUMPDEST JUMPDEST PUSH1 0x0 PUSH2 0x7B1 DUP10 DUP3 DUP11 ADD PUSH2 0x551 JUMP JUMPDEST SWAP7 POP POP PUSH1 0x20 PUSH2 0x7C2 DUP10 DUP3 DUP11 ADD PUSH2 0x551 JUMP JUMPDEST SWAP6 POP POP PUSH1 0x40 PUSH2 0x7D3 DUP10 DUP3 DUP11 ADD PUSH2 0x587 JUMP JUMPDEST SWAP5 POP POP PUSH1 0x60 DUP8 ADD CALLDATALOAD PUSH8 0xFFFFFFFFFFFFFFFF DUP2 GT ISZERO PUSH2 0x7F4 JUMPI PUSH2 0x7F3 PUSH2 0x301 JUMP JUMPDEST JUMPDEST PUSH2 0x800 DUP10 DUP3 DUP11 ADD PUSH2 0x60F JUMP JUMPDEST SWAP4 POP POP PUSH1 0x80 PUSH2 0x811 DUP10 DUP3 DUP11 ADD PUSH2 0x587 JUMP JUMPDEST SWAP3 POP POP PUSH1 0xA0 DUP8 ADD CALLDATALOAD PUSH8 0xFFFFFFFFFFFFFFFF DUP2 GT ISZERO PUSH2 0x832 JUMPI PUSH2 0x831 PUSH2 0x301 JUMP JUMPDEST JUMPDEST PUSH2 0x83E DUP10 DUP3 DUP11 ADD PUSH2 0x454 JUMP JUMPDEST SWAP2 POP POP SWAP3 SWAP6 POP SWAP3 SWAP6 POP SWAP3 SWAP6 JUMP JUMPDEST PUSH1 0x0 DUP2 ISZERO ISZERO SWAP1 POP SWAP2 SWAP1 POP JUMP JUMPDEST PUSH2 0x860 DUP2 PUSH2 0x84B JUMP JUMPDEST DUP3 MSTORE POP POP JUMP JUMPDEST PUSH1 0x0 PUSH1 0x20 DUP3 ADD SWAP1 POP PUSH2 0x87B PUSH1 0x0 DUP4 ADD DUP5 PUSH2 0x857 JUMP JUMPDEST SWAP3 SWAP2 POP POP JUMP JUMPDEST PUSH1 0x0 PUSH1 0x20 DUP3 DUP5 SUB SLT ISZERO PUSH2 0x897 JUMPI PUSH2 0x896 PUSH2 0x2FC JUMP JUMPDEST JUMPDEST PUSH1 0x0 PUSH2 0x8A5 DUP5 DUP3 DUP6 ADD PUSH2 0x327 JUMP JUMPDEST SWAP2 POP POP SWAP3 SWAP2 POP POP JUMP JUMPDEST PUSH1 0x0 PUSH1 0x80 DUP3 ADD SWAP1 POP PUSH2 0x8C3 PUSH1 0x0 DUP4 ADD DUP8 PUSH2 0x6C0 JUMP JUMPDEST PUSH2 0x8D0 PUSH1 0x20 DUP4 ADD DUP7 PUSH2 0x740 JUMP JUMPDEST PUSH2 0x8DD PUSH1 0x40 DUP4 ADD DUP6 PUSH2 0x6C0 JUMP JUMPDEST PUSH2 0x8EA PUSH1 0x60 DUP4 ADD DUP5 PUSH2 0x6C0 JUMP JUMPDEST SWAP6 SWAP5 POP POP POP POP POP JUMP JUMPDEST PUSH1 0x0 DUP2 PUSH1 0x60 SHL SWAP1 POP SWAP2 SWAP1 POP JUMP JUMPDEST PUSH1 0x0 PUSH2 0x90B DUP3 PUSH2 0x8F3 JUMP JUMPDEST SWAP1 POP SWAP2 SWAP1 POP JUMP JUMPDEST PUSH1 0x0 PUSH2 0x91D DUP3 PUSH2 0x900 JUMP JUMPDEST SWAP1 POP SWAP2 SWAP1 POP JUMP JUMPDEST PUSH2 0x935 PUSH2 0x930 DUP3 PUSH2 0x4FE JUMP JUMPDEST PUSH2 0x912 JUMP JUMPDEST DUP3 MSTORE POP POP JUMP JUMPDEST PUSH1 0x0 DUP2 SWAP1 POP SWAP2 SWAP1 POP JUMP JUMPDEST PUSH2 0x956 PUSH2 0x951 DUP3 PUSH2 0x566 JUMP JUMPDEST PUSH2 0x93B JUMP JUMPDEST DUP3 MSTORE POP POP JUMP JUMPDEST PUSH1 0x0 DUP2 MLOAD SWAP1 POP SWAP2 SWAP1 POP JUMP JUMPDEST PUSH1 0x0 DUP2 SWAP1 POP SWAP3 SWAP2 POP POP JUMP JUMPDEST PUSH1 0x0 JUMPDEST DUP4 DUP2 LT ISZERO PUSH2 0x990 JUMPI DUP1 DUP3 ADD MLOAD DUP2 DUP5 ADD MSTORE PUSH1 0x20 DUP2 ADD SWAP1 POP PUSH2 0x975 JUMP JUMPDEST DUP4 DUP2 GT ISZERO PUSH2 0x99F JUMPI PUSH1 0x0 DUP5 DUP5 ADD MSTORE JUMPDEST POP POP POP POP JUMP JUMPDEST PUSH1 0x0 PUSH2 0x9B0 DUP3 PUSH2 0x95C JUMP JUMPDEST PUSH2 0x9BA DUP2 DUP6 PUSH2 0x967 JUMP JUMPDEST SWAP4 POP PUSH2 0x9CA DUP2 DUP6 PUSH1 0x20 DUP7 ADD PUSH2 0x972 JUMP JUMPDEST DUP1 DUP5 ADD SWAP2 POP POP SWAP3 SWAP2 POP POP JUMP JUMPDEST PUSH1 0x0 PUSH2 0x9E2 DUP3 DUP8 PUSH2 0x924 JUMP JUMPDEST PUSH1 0x14 DUP3 ADD SWAP2 POP PUSH2 0x9F2 DUP3 DUP7 PUSH2 0x945 JUMP JUMPDEST PUSH1 0x20 DUP3 ADD SWAP2 POP PUSH2 0xA02 DUP3 DUP6 PUSH2 0x9A5 JUMP JUMPDEST SWAP2 POP PUSH2 0xA0E DUP3 DUP5 PUSH2 0x945 JUMP JUMPDEST PUSH1 0x20 DUP3 ADD SWAP2 POP DUP2 SWAP1 POP SWAP6 SWAP5 POP POP POP POP POP JUMP JUMPDEST PUSH1 0x0 DUP3 DUP3 MSTORE PUSH1 0x20 DUP3 ADD SWAP1 POP SWAP3 SWAP2 POP POP JUMP JUMPDEST PUSH32 0x696E76616C6964207369676E6174757265206C656E6774680000000000000000 PUSH1 0x0 DUP3 ADD MSTORE POP JUMP JUMPDEST PUSH1 0x0 PUSH2 0xA67 PUSH1 0x18 DUP4 PUSH2 0xA20 JUMP JUMPDEST SWAP2 POP PUSH2 0xA72 DUP3 PUSH2 0xA31 JUMP JUMPDEST PUSH1 0x20 DUP3 ADD SWAP1 POP SWAP2 SWAP1 POP JUMP JUMPDEST PUSH1 0x0 PUSH1 0x20 DUP3 ADD SWAP1 POP DUP2 DUP2 SUB PUSH1 0x0 DUP4 ADD MSTORE PUSH2 0xA96 DUP2 PUSH2 0xA5A JUMP JUMPDEST SWAP1 POP SWAP2 SWAP1 POP JUMP JUMPDEST PUSH32 0x19457468657265756D205369676E6564204D6573736167653A0A333200000000 PUSH1 0x0 DUP3 ADD MSTORE POP JUMP JUMPDEST PUSH1 0x0 PUSH2 0xAD3 PUSH1 0x1C DUP4 PUSH2 0x967 JUMP JUMPDEST SWAP2 POP PUSH2 0xADE DUP3 PUSH2 0xA9D JUMP JUMPDEST PUSH1 0x1C DUP3 ADD SWAP1 POP SWAP2 SWAP1 POP JUMP JUMPDEST PUSH1 0x0 DUP2 SWAP1 POP SWAP2 SWAP1 POP JUMP JUMPDEST PUSH2 0xB04 PUSH2 0xAFF DUP3 PUSH2 0x306 JUMP JUMPDEST PUSH2 0xAE9 JUMP JUMPDEST DUP3 MSTORE POP POP JUMP JUMPDEST PUSH1 0x0 PUSH2 0xB15 DUP3 PUSH2 0xAC6 JUMP JUMPDEST SWAP2 POP PUSH2 0xB21 DUP3 DUP5 PUSH2 0xAF3 JUMP JUMPDEST PUSH1 0x20 DUP3 ADD SWAP2 POP DUP2 SWAP1 POP SWAP3 SWAP2 POP POP JUMP INVALID LOG2 PUSH5 0x6970667358 0x22 SLT KECCAK256 SWAP12 0xC1 0xCA PUSH6 0x22F017508E1B 0xB8 MOD 0x5C 0x2E 0xE JUMPI SUB PUSH5 0x6FC749A0BB 0x5F 0xF7 SWAP4 MOD PUSH15 0x29D7D39D64736F6C634300080D0033 "
				},
				"gasEstimates": {
					"creation": {
						"codeDepositCost": "583600",
						"executionCost": "619",
						"totalCost": "584219"
					},
					"external": {
						"getEthSignedMessageHash(bytes32)": "infinite",
						"getMessageHash(address,uint256,string,uint256)": "infinite",
						"recoverSigner(bytes32,bytes)": "infinite",
						"splitSignature(bytes)": "infinite",
						"verify(address,address,uint256,string,uint256,bytes)": "infinite"
					}
				},
				"methodIdentifiers": {
					"getEthSignedMessageHash(bytes32)": "fa540801",
					"getMessageHash(address,uint256,string,uint256)": "a35f8a40",
					"recoverSigner(bytes32,bytes)": "97aba7f9",
					"splitSignature(bytes)": "a7bb5803",
					"verify(address,address,uint256,string,uint256,bytes)": "abe5026a"
				}
			},
			"storageLayout": {
				"storage": [],
				"types": null
			},
			"userdoc": {
				"kind": "user",
				"methods": {},
				"version": 1
			}
		}
	}
}