{
	"nft/ERC1155.sol": {
		"BeeItems": {
			"abi": [
				{
					"inputs": [],
					"stateMutability": "nonpayable",
					"type": "constructor"
				},
				{
					"anonymous": false,
					"inputs": [
						{
							"indexed": true,
							"internalType": "address",
							"name": "account",
							"type": "address"
						},
						{
							"indexed": true,
							"internalType": "address",
							"name": "operator",
							"type": "address"
						},
						{
							"indexed": false,
							"internalType": "bool",
							"name": "approved",
							"type": "bool"
						}
					],
					"name": "ApprovalForAll",
					"type": "event"
				},
				{
					"anonymous": false,
					"inputs": [
						{
							"indexed": true,
							"internalType": "address",
							"name": "previousOwner",
							"type": "address"
						},
						{
							"indexed": true,
							"internalType": "address",
							"name": "newOwner",
							"type": "address"
						}
					],
					"name": "OwnershipTransferred",
					"type": "event"
				},
				{
					"anonymous": false,
					"inputs": [
						{
							"indexed": true,
							"internalType": "address",
							"name": "operator",
							"type": "address"
						},
						{
							"indexed": true,
							"internalType": "address",
							"name": "from",
							"type": "address"
						},
						{
							"indexed": true,
							"internalType": "address",
							"name": "to",
							"type": "address"
						},
						{
							"indexed": false,
							"internalType": "uint256[]",
							"name": "ids",
							"type": "uint256[]"
						},
						{
							"indexed": false,
							"internalType": "uint256[]",
							"name": "values",
							"type": "uint256[]"
						}
					],
					"name": "TransferBatch",
					"type": "event"
				},
				{
					"anonymous": false,
					"inputs": [
						{
							"indexed": true,
							"internalType": "address",
							"name": "operator",
							"type": "address"
						},
						{
							"indexed": true,
							"internalType": "address",
							"name": "from",
							"type": "address"
						},
						{
							"indexed": true,
							"internalType": "address",
							"name": "to",
							"type": "address"
						},
						{
							"indexed": false,
							"internalType": "uint256",
							"name": "id",
							"type": "uint256"
						},
						{
							"indexed": false,
							"internalType": "uint256",
							"name": "value",
							"type": "uint256"
						}
					],
					"name": "TransferSingle",
					"type": "event"
				},
				{
					"anonymous": false,
					"inputs": [
						{
							"indexed": false,
							"internalType": "string",
							"name": "value",
							"type": "string"
						},
						{
							"indexed": true,
							"internalType": "uint256",
							"name": "id",
							"type": "uint256"
						}
					],
					"name": "URI",
					"type": "event"
				},
				{
					"inputs": [
						{
							"internalType": "address",
							"name": "account",
							"type": "address"
						},
						{
							"internalType": "uint256",
							"name": "id",
							"type": "uint256"
						}
					],
					"name": "balanceOf",
					"outputs": [
						{
							"internalType": "uint256",
							"name": "",
							"type": "uint256"
						}
					],
					"stateMutability": "view",
					"type": "function"
				},
				{
					"inputs": [
						{
							"internalType": "address[]",
							"name": "accounts",
							"type": "address[]"
						},
						{
							"internalType": "uint256[]",
							"name": "ids",
							"type": "uint256[]"
						}
					],
					"name": "balanceOfBatch",
					"outputs": [
						{
							"internalType": "uint256[]",
							"name": "",
							"type": "uint256[]"
						}
					],
					"stateMutability": "view",
					"type": "function"
				},
				{
					"inputs": [
						{
							"internalType": "address",
							"name": "account",
							"type": "address"
						},
						{
							"internalType": "uint256",
							"name": "id",
							"type": "uint256"
						},
						{
							"internalType": "uint256",
							"name": "value",
							"type": "uint256"
						}
					],
					"name": "brun",
					"outputs": [],
					"stateMutability": "nonpayable",
					"type": "function"
				},
				{
					"inputs": [],
					"name": "getTokenSupply",
					"outputs": [
						{
							"internalType": "uint256",
							"name": "",
							"type": "uint256"
						}
					],
					"stateMutability": "view",
					"type": "function"
				},
				{
					"inputs": [
						{
							"internalType": "address",
							"name": "account",
							"type": "address"
						},
						{
							"internalType": "address",
							"name": "operator",
							"type": "address"
						}
					],
					"name": "isApprovedForAll",
					"outputs": [
						{
							"internalType": "bool",
							"name": "",
							"type": "bool"
						}
					],
					"stateMutability": "view",
					"type": "function"
				},
				{
					"inputs": [
						{
							"internalType": "address",
							"name": "to",
							"type": "address"
						},
						{
							"internalType": "uint256[]",
							"name": "ids",
							"type": "uint256[]"
						},
						{
							"internalType": "uint256[]",
							"name": "amounts",
							"type": "uint256[]"
						},
						{
							"internalType": "bytes",
							"name": "data",
							"type": "bytes"
						}
					],
					"name": "mintBatch",
					"outputs": [],
					"stateMutability": "nonpayable",
					"type": "function"
				},
				{
					"inputs": [
						{
							"internalType": "uint256",
							"name": "idsNumber",
							"type": "uint256"
						}
					],
					"name": "mintBatchWithNumber",
					"outputs": [],
					"stateMutability": "nonpayable",
					"type": "function"
				},
				{
					"inputs": [],
					"name": "owner",
					"outputs": [
						{
							"internalType": "address",
							"name": "",
							"type": "address"
						}
					],
					"stateMutability": "view",
					"type": "function"
				},
				{
					"inputs": [],
					"name": "renounceOwnership",
					"outputs": [],
					"stateMutability": "nonpayable",
					"type": "function"
				},
				{
					"inputs": [
						{
							"internalType": "address",
							"name": "from",
							"type": "address"
						},
						{
							"internalType": "address",
							"name": "to",
							"type": "address"
						},
						{
							"internalType": "uint256[]",
							"name": "ids",
							"type": "uint256[]"
						},
						{
							"internalType": "uint256[]",
							"name": "amounts",
							"type": "uint256[]"
						},
						{
							"internalType": "bytes",
							"name": "data",
							"type": "bytes"
						}
					],
					"name": "safeBatchTransferFrom",
					"outputs": [],
					"stateMutability": "nonpayable",
					"type": "function"
				},
				{
					"inputs": [
						{
							"internalType": "address",
							"name": "from",
							"type": "address"
						},
						{
							"internalType": "address",
							"name": "to",
							"type": "address"
						},
						{
							"internalType": "uint256",
							"name": "id",
							"type": "uint256"
						},
						{
							"internalType": "uint256",
							"name": "amount",
							"type": "uint256"
						},
						{
							"internalType": "bytes",
							"name": "data",
							"type": "bytes"
						}
					],
					"name": "safeTransferFrom",
					"outputs": [],
					"stateMutability": "nonpayable",
					"type": "function"
				},
				{
					"inputs": [
						{
							"internalType": "address",
							"name": "operator",
							"type": "address"
						},
						{
							"internalType": "bool",
							"name": "approved",
							"type": "bool"
						}
					],
					"name": "setApprovalForAll",
					"outputs": [],
					"stateMutability": "nonpayable",
					"type": "function"
				},
				{
					"inputs": [
						{
							"internalType": "string",
							"name": "newuri",
							"type": "string"
						}
					],
					"name": "setURI",
					"outputs": [],
					"stateMutability": "nonpayable",
					"type": "function"
				},
				{
					"inputs": [
						{
							"internalType": "bytes4",
							"name": "interfaceId",
							"type": "bytes4"
						}
					],
					"name": "supportsInterface",
					"outputs": [
						{
							"internalType": "bool",
							"name": "",
							"type": "bool"
						}
					],
					"stateMutability": "view",
					"type": "function"
				},
				{
					"inputs": [],
					"name": "tokenSupply",
					"outputs": [
						{
							"internalType": "uint256",
							"name": "",
							"type": "uint256"
						}
					],
					"stateMutability": "view",
					"type": "function"
				},
				{
					"inputs": [
						{
							"internalType": "address",
							"name": "newOwner",
							"type": "address"
						}
					],
					"name": "transferOwnership",
					"outputs": [],
					"stateMutability": "nonpayable",
					"type": "function"
				},
				{
					"inputs": [
						{
							"internalType": "uint256",
							"name": "start",
							"type": "uint256"
						},
						{
							"internalType": "uint256",
							"name": "idsNumber",
							"type": "uint256"
						},
						{
							"internalType": "address",
							"name": "to",
							"type": "address"
						}
					],
					"name": "transferWithNumber",
					"outputs": [],
					"stateMutability": "nonpayable",
					"type": "function"
				},
				{
					"inputs": [
						{
							"internalType": "uint256",
							"name": "",
							"type": "uint256"
						}
					],
					"name": "uri",
					"outputs": [
						{
							"internalType": "string",
							"name": "",
							"type": "string"
						}
					],
					"stateMutability": "view",
					"type": "function"
				}
			],
			"devdoc": {
				"kind": "dev",
				"methods": {
					"balanceOf(address,uint256)": {
						"details": "See {IERC1155-balanceOf}. Requirements: - `account` cannot be the zero address."
					},
					"balanceOfBatch(address[],uint256[])": {
						"details": "See {IERC1155-balanceOfBatch}. Requirements: - `accounts` and `ids` must have the same length."
					},
					"isApprovedForAll(address,address)": {
						"details": "See {IERC1155-isApprovedForAll}."
					},
					"owner()": {
						"details": "Returns the address of the current owner."
					},
					"renounceOwnership()": {
						"details": "Leaves the contract without owner. It will not be possible to call `onlyOwner` functions anymore. Can only be called by the current owner. NOTE: Renouncing ownership will leave the contract without an owner, thereby removing any functionality that is only available to the owner."
					},
					"safeBatchTransferFrom(address,address,uint256[],uint256[],bytes)": {
						"details": "See {IERC1155-safeBatchTransferFrom}."
					},
					"safeTransferFrom(address,address,uint256,uint256,bytes)": {
						"details": "See {IERC1155-safeTransferFrom}."
					},
					"setApprovalForAll(address,bool)": {
						"details": "See {IERC1155-setApprovalForAll}."
					},
					"supportsInterface(bytes4)": {
						"details": "See {IERC165-supportsInterface}."
					},
					"transferOwnership(address)": {
						"details": "Transfers ownership of the contract to a new account (`newOwner`). Can only be called by the current owner."
					},
					"uri(uint256)": {
						"details": "See {IERC1155MetadataURI-uri}. This implementation returns the same URI for *all* token types. It relies on the token type ID substitution mechanism https://eips.ethereum.org/EIPS/eip-1155#metadata[defined in the EIP]. Clients calling this function must replace the `\\{id\\}` substring with the actual token type ID."
					}
				},
				"version": 1
			},
			"evm": {
				"assembly": "    /* \"nft/ERC1155.sol\":184:2031  contract BeeItems is  ERC1155 , Ownable{... */\n  mstore(0x40, 0x80)\n    /* \"nft/ERC1155.sol\":269:342  constructor() ERC1155(\"https://game.example/api/item/{id}.json\") {... */\n  callvalue\n  dup1\n  iszero\n  tag_1\n  jumpi\n  0x00\n  dup1\n  revert\ntag_1:\n  pop\n    /* \"node_modules/@openzeppelin/contracts/token/ERC1155/ERC1155.sol\":1126:1190  constructor(string memory uri_) {... */\n  mload(0x40)\n  dup1\n  0x60\n  add\n  0x40\n  mstore\n  dup1\n  0x27\n  dup2\n  mstore\n  0x20\n  add\n  data_9be393994f02169c966a8f7d954e5f555f9d6fdea83c170362ff79cf2c5ce4f1\n  0x27\n  swap2\n  codecopy\n    /* \"node_modules/@openzeppelin/contracts/token/ERC1155/ERC1155.sol\":1169:1182  _setURI(uri_) */\n  tag_6\n    /* \"node_modules/@openzeppelin/contracts/token/ERC1155/ERC1155.sol\":1177:1181  uri_ */\n  dup2\n    /* \"node_modules/@openzeppelin/contracts/token/ERC1155/ERC1155.sol\":1169:1176  _setURI */\n  tag_7\n    /* \"node_modules/@openzeppelin/contracts/token/ERC1155/ERC1155.sol\":1169:1182  _setURI(uri_) */\n  jump\t// in\ntag_6:\n  pop\n    /* \"node_modules/@openzeppelin/contracts/access/Ownable.sol\":949:981  _transferOwnership(_msgSender()) */\n  tag_9\n    /* \"node_modules/@openzeppelin/contracts/utils/Context.sol\":736:746  msg.sender */\n  caller\n    /* \"node_modules/@openzeppelin/contracts/access/Ownable.sol\":949:967  _transferOwnership */\n  tag_12\n    /* \"node_modules/@openzeppelin/contracts/access/Ownable.sol\":949:981  _transferOwnership(_msgSender()) */\n  jump\t// in\ntag_9:\n    /* \"nft/ERC1155.sol\":184:2031  contract BeeItems is  ERC1155 , Ownable{... */\n  jump(tag_31)\n    /* \"node_modules/@openzeppelin/contracts/token/ERC1155/ERC1155.sol\":8180:8268  function _setURI(string memory newuri) internal virtual {... */\ntag_7:\n    /* \"node_modules/@openzeppelin/contracts/token/ERC1155/ERC1155.sol\":8247:8260  _uri = newuri */\n  dup1\n  mload\n  tag_16\n  swap1\n    /* \"node_modules/@openzeppelin/contracts/token/ERC1155/ERC1155.sol\":8247:8251  _uri */\n  0x02\n  swap1\n    /* \"node_modules/@openzeppelin/contracts/token/ERC1155/ERC1155.sol\":8247:8260  _uri = newuri */\n  0x20\n  dup5\n  add\n  swap1\n  tag_17\n  jump\t// in\ntag_16:\n  pop\n    /* \"node_modules/@openzeppelin/contracts/token/ERC1155/ERC1155.sol\":8180:8268  function _setURI(string memory newuri) internal virtual {... */\n  pop\n  jump\t// out\n    /* \"node_modules/@openzeppelin/contracts/access/Ownable.sol\":2340:2531  function _transferOwnership(address newOwner) internal virtual {... */\ntag_12:\n    /* \"node_modules/@openzeppelin/contracts/access/Ownable.sol\":2433:2439  _owner */\n  0x03\n  dup1\n  sload\n  sub(shl(0xa0, 0x01), 0x01)\n    /* \"node_modules/@openzeppelin/contracts/access/Ownable.sol\":2450:2467  _owner = newOwner */\n  dup4\n  dup2\n  and\n  not(sub(shl(0xa0, 0x01), 0x01))\n  dup4\n  and\n  dup2\n  or\n  swap1\n  swap4\n  sstore\n    /* \"node_modules/@openzeppelin/contracts/access/Ownable.sol\":2483:2523  OwnershipTransferred(oldOwner, newOwner) */\n  mload(0x40)\n    /* \"node_modules/@openzeppelin/contracts/access/Ownable.sol\":2433:2439  _owner */\n  swap2\n  and\n  swap2\n    /* \"node_modules/@openzeppelin/contracts/access/Ownable.sol\":2450:2467  _owner = newOwner */\n  swap1\n    /* \"node_modules/@openzeppelin/contracts/access/Ownable.sol\":2433:2439  _owner */\n  dup3\n  swap1\n    /* \"node_modules/@openzeppelin/contracts/access/Ownable.sol\":2483:2523  OwnershipTransferred(oldOwner, newOwner) */\n  0x8be0079c531659141344cd1fd0a4f28419497f9722a3daafe3b4186f6b6457e0\n  swap1\n    /* \"node_modules/@openzeppelin/contracts/access/Ownable.sol\":2414:2430  address oldOwner */\n  0x00\n  swap1\n    /* \"node_modules/@openzeppelin/contracts/access/Ownable.sol\":2483:2523  OwnershipTransferred(oldOwner, newOwner) */\n  log3\n    /* \"node_modules/@openzeppelin/contracts/access/Ownable.sol\":2403:2531  {... */\n  pop\n    /* \"node_modules/@openzeppelin/contracts/access/Ownable.sol\":2340:2531  function _transferOwnership(address newOwner) internal virtual {... */\n  pop\n  jump\t// out\n    /* \"nft/ERC1155.sol\":184:2031  contract BeeItems is  ERC1155 , Ownable{... */\ntag_17:\n  dup3\n  dup1\n  sload\n  tag_20\n  swap1\n  tag_21\n  jump\t// in\ntag_20:\n  swap1\n  0x00\n  mstore\n  keccak256(0x00, 0x20)\n  swap1\n  0x1f\n  add\n  0x20\n  swap1\n  div\n  dup2\n  add\n  swap3\n  dup3\n  tag_23\n  jumpi\n  0x00\n  dup6\n  sstore\n  jump(tag_26)\ntag_23:\n  dup3\n  0x1f\n  lt\n  tag_24\n  jumpi\n  dup1\n  mload\n  not(0xff)\n  and\n  dup4\n  dup1\n  add\n  or\n  dup6\n  sstore\n  jump(tag_26)\ntag_24:\n  dup3\n  dup1\n  add\n  0x01\n  add\n  dup6\n  sstore\n  dup3\n  iszero\n  tag_26\n  jumpi\n  swap2\n  dup3\n  add\ntag_25:\n  dup3\n  dup2\n  gt\n  iszero\n  tag_26\n  jumpi\n  dup3\n  mload\n  dup3\n  sstore\n  swap2\n  0x20\n  add\n  swap2\n  swap1\n  0x01\n  add\n  swap1\n  jump(tag_25)\ntag_26:\n  pop\n  tag_27\n  swap3\n  swap2\n  pop\n  tag_28\n  jump\t// in\ntag_27:\n  pop\n  swap1\n  jump\t// out\ntag_28:\ntag_29:\n  dup1\n  dup3\n  gt\n  iszero\n  tag_27\n  jumpi\n  0x00\n  dup2\n  sstore\n  0x01\n  add\n  jump(tag_29)\n    /* \"#utility.yul\":14:394   */\ntag_21:\n    /* \"#utility.yul\":93:94   */\n  0x01\n    /* \"#utility.yul\":89:101   */\n  dup2\n  dup2\n  shr\n  swap1\n    /* \"#utility.yul\":136:148   */\n  dup3\n  and\n  dup1\n    /* \"#utility.yul\":157:218   */\n  tag_33\n  jumpi\n    /* \"#utility.yul\":211:215   */\n  0x7f\n    /* \"#utility.yul\":203:209   */\n  dup3\n    /* \"#utility.yul\":199:216   */\n  and\n    /* \"#utility.yul\":189:216   */\n  swap2\n  pop\n    /* \"#utility.yul\":157:218   */\ntag_33:\n    /* \"#utility.yul\":264:266   */\n  0x20\n    /* \"#utility.yul\":256:262   */\n  dup3\n    /* \"#utility.yul\":253:267   */\n  lt\n    /* \"#utility.yul\":233:251   */\n  dup2\n    /* \"#utility.yul\":230:268   */\n  sub\n    /* \"#utility.yul\":227:388   */\n  tag_34\n  jumpi\n    /* \"#utility.yul\":310:320   */\n  0x4e487b71\n    /* \"#utility.yul\":305:308   */\n  0xe0\n    /* \"#utility.yul\":301:321   */\n  shl\n    /* \"#utility.yul\":298:299   */\n  0x00\n    /* \"#utility.yul\":291:322   */\n  mstore\n    /* \"#utility.yul\":345:349   */\n  0x22\n    /* \"#utility.yul\":342:343   */\n  0x04\n    /* \"#utility.yul\":335:350   */\n  mstore\n    /* \"#utility.yul\":373:377   */\n  0x24\n    /* \"#utility.yul\":370:371   */\n  0x00\n    /* \"#utility.yul\":363:378   */\n  revert\n    /* \"#utility.yul\":227:388   */\ntag_34:\n  pop\n    /* \"#utility.yul\":14:394   */\n  swap2\n  swap1\n  pop\n  jump\t// out\ntag_31:\n    /* \"nft/ERC1155.sol\":184:2031  contract BeeItems is  ERC1155 , Ownable{... */\n  dataSize(sub_0)\n  dup1\n  dataOffset(sub_0)\n  0x00\n  codecopy\n  0x00\n  return\nstop\ndata_9be393994f02169c966a8f7d954e5f555f9d6fdea83c170362ff79cf2c5ce4f1 68747470733a2f2f67616d652e6578616d706c652f6170692f6974656d2f7b69647d2e6a736f6e\n\nsub_0: assembly {\n        /* \"nft/ERC1155.sol\":184:2031  contract BeeItems is  ERC1155 , Ownable{... */\n      mstore(0x40, 0x80)\n      callvalue\n      dup1\n      iszero\n      tag_1\n      jumpi\n      0x00\n      dup1\n      revert\n    tag_1:\n      pop\n      jumpi(tag_2, lt(calldatasize, 0x04))\n      shr(0xe0, calldataload(0x00))\n      dup1\n      0x71ac14e6\n      gt\n      tag_21\n      jumpi\n      dup1\n      0xa22cb465\n      gt\n      tag_22\n      jumpi\n      dup1\n      0xa22cb465\n      eq\n      tag_16\n      jumpi\n      dup1\n      0xad974f4c\n      eq\n      tag_17\n      jumpi\n      dup1\n      0xe985e9c5\n      eq\n      tag_18\n      jumpi\n      dup1\n      0xf242432a\n      eq\n      tag_19\n      jumpi\n      dup1\n      0xf2fde38b\n      eq\n      tag_20\n      jumpi\n      0x00\n      dup1\n      revert\n    tag_22:\n      dup1\n      0x71ac14e6\n      eq\n      tag_12\n      jumpi\n      dup1\n      0x7824407f\n      eq\n      tag_13\n      jumpi\n      dup1\n      0x8da5cb5b\n      eq\n      tag_14\n      jumpi\n      dup1\n      0x9416308e\n      eq\n      tag_15\n      jumpi\n      0x00\n      dup1\n      revert\n    tag_21:\n      dup1\n      0x0e89341c\n      gt\n      tag_23\n      jumpi\n      dup1\n      0x0e89341c\n      eq\n      tag_7\n      jumpi\n      dup1\n      0x1f7fdffa\n      eq\n      tag_8\n      jumpi\n      dup1\n      0x2eb2c2d6\n      eq\n      tag_9\n      jumpi\n      dup1\n      0x4e1273f4\n      eq\n      tag_10\n      jumpi\n      dup1\n      0x715018a6\n      eq\n      tag_11\n      jumpi\n      0x00\n      dup1\n      revert\n    tag_23:\n      dup1\n      0xfdd58e\n      eq\n      tag_3\n      jumpi\n      dup1\n      0x01ffc9a7\n      eq\n      tag_4\n      jumpi\n      dup1\n      0x02fe5305\n      eq\n      tag_5\n      jumpi\n      dup1\n      0x092f2dbf\n      eq\n      tag_6\n      jumpi\n    tag_2:\n      0x00\n      dup1\n      revert\n        /* \"node_modules/@openzeppelin/contracts/token/ERC1155/ERC1155.sol\":2239:2470  function balanceOf(address account, uint256 id) public view virtual override returns (uint256) {... */\n    tag_3:\n      tag_24\n      tag_25\n      calldatasize\n      0x04\n      tag_26\n      jump\t// in\n    tag_25:\n      tag_27\n      jump\t// in\n    tag_24:\n      mload(0x40)\n        /* \"#utility.yul\":597:622   */\n      swap1\n      dup2\n      mstore\n        /* \"#utility.yul\":585:587   */\n      0x20\n        /* \"#utility.yul\":570:588   */\n      add\n        /* \"node_modules/@openzeppelin/contracts/token/ERC1155/ERC1155.sol\":2239:2470  function balanceOf(address account, uint256 id) public view virtual override returns (uint256) {... */\n    tag_28:\n      mload(0x40)\n      dup1\n      swap2\n      sub\n      swap1\n      return\n        /* \"node_modules/@openzeppelin/contracts/token/ERC1155/ERC1155.sol\":1262:1572  function supportsInterface(bytes4 interfaceId) public view virtual override(ERC165, IERC165) returns (bool) {... */\n    tag_4:\n      tag_30\n      tag_31\n      calldatasize\n      0x04\n      tag_32\n      jump\t// in\n    tag_31:\n      tag_33\n      jump\t// in\n    tag_30:\n      mload(0x40)\n        /* \"#utility.yul\":1184:1198   */\n      swap1\n      iszero\n        /* \"#utility.yul\":1177:1199   */\n      iszero\n        /* \"#utility.yul\":1159:1200   */\n      dup2\n      mstore\n        /* \"#utility.yul\":1147:1149   */\n      0x20\n        /* \"#utility.yul\":1132:1150   */\n      add\n        /* \"node_modules/@openzeppelin/contracts/token/ERC1155/ERC1155.sol\":1262:1572  function supportsInterface(bytes4 interfaceId) public view virtual override(ERC165, IERC165) returns (bool) {... */\n      tag_28\n        /* \"#utility.yul\":1019:1206   */\n      jump\n        /* \"nft/ERC1155.sol\":1250:1338  function setURI(string memory newuri) public onlyOwner{... */\n    tag_5:\n      tag_36\n      tag_37\n      calldatasize\n      0x04\n      tag_38\n      jump\t// in\n    tag_37:\n      tag_39\n      jump\t// in\n    tag_36:\n      stop\n        /* \"nft/ERC1155.sol\":1695:2028  function brun(... */\n    tag_6:\n      tag_36\n      tag_41\n      calldatasize\n      0x04\n      tag_42\n      jump\t// in\n    tag_41:\n      tag_43\n      jump\t// in\n        /* \"node_modules/@openzeppelin/contracts/token/ERC1155/ERC1155.sol\":1983:2088  function uri(uint256) public view virtual override returns (string memory) {... */\n    tag_7:\n      tag_44\n      tag_45\n      calldatasize\n      0x04\n      tag_46\n      jump\t// in\n    tag_45:\n      tag_47\n      jump\t// in\n    tag_44:\n      mload(0x40)\n      tag_28\n      swap2\n      swap1\n      tag_49\n      jump\t// in\n        /* \"nft/ERC1155.sol\":1346:1586  function mintBatch(address to, uint256[] memory ids, uint256[] memory amounts, bytes memory data)... */\n    tag_8:\n      tag_36\n      tag_51\n      calldatasize\n      0x04\n      tag_52\n      jump\t// in\n    tag_51:\n      tag_53\n      jump\t// in\n        /* \"node_modules/@openzeppelin/contracts/token/ERC1155/ERC1155.sol\":4178:4620  function safeBatchTransferFrom(... */\n    tag_9:\n      tag_36\n      tag_55\n      calldatasize\n      0x04\n      tag_56\n      jump\t// in\n    tag_55:\n      tag_57\n      jump\t// in\n        /* \"node_modules/@openzeppelin/contracts/token/ERC1155/ERC1155.sol\":2636:3160  function balanceOfBatch(address[] memory accounts, uint256[] memory ids)... */\n    tag_10:\n      tag_58\n      tag_59\n      calldatasize\n      0x04\n      tag_60\n      jump\t// in\n    tag_59:\n      tag_61\n      jump\t// in\n    tag_58:\n      mload(0x40)\n      tag_28\n      swap2\n      swap1\n      tag_63\n      jump\t// in\n        /* \"node_modules/@openzeppelin/contracts/access/Ownable.sol\":1721:1824  function renounceOwnership() public virtual onlyOwner {... */\n    tag_11:\n      tag_36\n      tag_65\n      jump\t// in\n        /* \"nft/ERC1155.sol\":350:811  function mintBatchWithNumber(uint256 idsNumber) public onlyOwner{... */\n    tag_12:\n      tag_36\n      tag_67\n      calldatasize\n      0x04\n      tag_46\n      jump\t// in\n    tag_67:\n      tag_68\n      jump\t// in\n        /* \"nft/ERC1155.sol\":232:258  uint256 public tokenSupply */\n    tag_13:\n      tag_24\n      sload(0x04)\n      dup2\n      jump\n        /* \"node_modules/@openzeppelin/contracts/access/Ownable.sol\":1070:1157  function owner() public view virtual returns (address) {... */\n    tag_14:\n        /* \"node_modules/@openzeppelin/contracts/access/Ownable.sol\":1143:1149  _owner */\n      sload(0x03)\n        /* \"node_modules/@openzeppelin/contracts/access/Ownable.sol\":1070:1157  function owner() public view virtual returns (address) {... */\n      mload(0x40)\n      sub(shl(0xa0, 0x01), 0x01)\n        /* \"node_modules/@openzeppelin/contracts/access/Ownable.sol\":1143:1149  _owner */\n      swap1\n      swap2\n      and\n        /* \"#utility.yul\":8770:8821   */\n      dup2\n      mstore\n        /* \"#utility.yul\":8758:8760   */\n      0x20\n        /* \"#utility.yul\":8743:8761   */\n      add\n        /* \"node_modules/@openzeppelin/contracts/access/Ownable.sol\":1070:1157  function owner() public view virtual returns (address) {... */\n      tag_28\n        /* \"#utility.yul\":8624:8827   */\n      jump\n        /* \"nft/ERC1155.sol\":819:1240  function transferWithNumber(uint256 start, uint256 idsNumber, address to) public {... */\n    tag_15:\n      tag_36\n      tag_77\n      calldatasize\n      0x04\n      tag_78\n      jump\t// in\n    tag_77:\n      tag_79\n      jump\t// in\n        /* \"node_modules/@openzeppelin/contracts/token/ERC1155/ERC1155.sol\":3233:3388  function setApprovalForAll(address operator, bool approved) public virtual override {... */\n    tag_16:\n      tag_36\n      tag_81\n      calldatasize\n      0x04\n      tag_82\n      jump\t// in\n    tag_81:\n      tag_83\n      jump\t// in\n        /* \"nft/ERC1155.sol\":1594:1687  function getTokenSupply() public view returns (uint256) {... */\n    tag_17:\n        /* \"nft/ERC1155.sol\":1668:1679  tokenSupply */\n      sload(0x04)\n        /* \"nft/ERC1155.sol\":1594:1687  function getTokenSupply() public view returns (uint256) {... */\n      jump(tag_24)\n        /* \"node_modules/@openzeppelin/contracts/token/ERC1155/ERC1155.sol\":3460:3628  function isApprovedForAll(address account, address operator) public view virtual override returns (bool) {... */\n    tag_18:\n      tag_30\n      tag_88\n      calldatasize\n      0x04\n      tag_89\n      jump\t// in\n    tag_88:\n      sub(shl(0xa0, 0x01), 0x01)\n        /* \"node_modules/@openzeppelin/contracts/token/ERC1155/ERC1155.sol\":3583:3610  _operatorApprovals[account] */\n      swap2\n      dup3\n      and\n        /* \"node_modules/@openzeppelin/contracts/token/ERC1155/ERC1155.sol\":3559:3563  bool */\n      0x00\n        /* \"node_modules/@openzeppelin/contracts/token/ERC1155/ERC1155.sol\":3583:3610  _operatorApprovals[account] */\n      swap1\n      dup2\n      mstore\n        /* \"node_modules/@openzeppelin/contracts/token/ERC1155/ERC1155.sol\":3583:3601  _operatorApprovals */\n      0x01\n        /* \"node_modules/@openzeppelin/contracts/token/ERC1155/ERC1155.sol\":3583:3610  _operatorApprovals[account] */\n      0x20\n      swap1\n      dup2\n      mstore\n      0x40\n      dup1\n      dup4\n      keccak256\n        /* \"node_modules/@openzeppelin/contracts/token/ERC1155/ERC1155.sol\":3583:3620  _operatorApprovals[account][operator] */\n      swap4\n      swap1\n      swap5\n      and\n      dup3\n      mstore\n      swap2\n      swap1\n      swap2\n      mstore\n      keccak256\n      sload\n      0xff\n      and\n      swap1\n        /* \"node_modules/@openzeppelin/contracts/token/ERC1155/ERC1155.sol\":3460:3628  function isApprovedForAll(address account, address operator) public view virtual override returns (bool) {... */\n      jump\n        /* \"node_modules/@openzeppelin/contracts/token/ERC1155/ERC1155.sol\":3700:4101  function safeTransferFrom(... */\n    tag_19:\n      tag_36\n      tag_93\n      calldatasize\n      0x04\n      tag_94\n      jump\t// in\n    tag_93:\n      tag_95\n      jump\t// in\n        /* \"node_modules/@openzeppelin/contracts/access/Ownable.sol\":1979:2180  function transferOwnership(address newOwner) public virtual onlyOwner {... */\n    tag_20:\n      tag_36\n      tag_97\n      calldatasize\n      0x04\n      tag_98\n      jump\t// in\n    tag_97:\n      tag_99\n      jump\t// in\n        /* \"node_modules/@openzeppelin/contracts/token/ERC1155/ERC1155.sol\":2239:2470  function balanceOf(address account, uint256 id) public view virtual override returns (uint256) {... */\n    tag_27:\n        /* \"node_modules/@openzeppelin/contracts/token/ERC1155/ERC1155.sol\":2325:2332  uint256 */\n      0x00\n      sub(shl(0xa0, 0x01), 0x01)\n        /* \"node_modules/@openzeppelin/contracts/token/ERC1155/ERC1155.sol\":2353:2374  account != address(0) */\n      dup4\n      and\n        /* \"node_modules/@openzeppelin/contracts/token/ERC1155/ERC1155.sol\":2345:2422  require(account != address(0), \"ERC1155: balance query for the zero address\") */\n      tag_101\n      jumpi\n      mload(0x40)\n      shl(0xe5, 0x461bcd)\n      dup2\n      mstore\n        /* \"#utility.yul\":10780:10782   */\n      0x20\n        /* \"node_modules/@openzeppelin/contracts/token/ERC1155/ERC1155.sol\":2345:2422  require(account != address(0), \"ERC1155: balance query for the zero address\") */\n      0x04\n      dup3\n      add\n        /* \"#utility.yul\":10762:10783   */\n      mstore\n        /* \"#utility.yul\":10819:10821   */\n      0x2b\n        /* \"#utility.yul\":10799:10817   */\n      0x24\n      dup3\n      add\n        /* \"#utility.yul\":10792:10822   */\n      mstore\n        /* \"#utility.yul\":10858:10892   */\n      0x455243313135353a2062616c616e636520717565727920666f7220746865207a\n        /* \"#utility.yul\":10838:10856   */\n      0x44\n      dup3\n      add\n        /* \"#utility.yul\":10831:10893   */\n      mstore\n      shl(0xa8, 0x65726f2061646472657373)\n        /* \"#utility.yul\":10909:10927   */\n      0x64\n      dup3\n      add\n        /* \"#utility.yul\":10902:10943   */\n      mstore\n        /* \"#utility.yul\":10960:10979   */\n      0x84\n      add\n        /* \"node_modules/@openzeppelin/contracts/token/ERC1155/ERC1155.sol\":2345:2422  require(account != address(0), \"ERC1155: balance query for the zero address\") */\n    tag_102:\n      mload(0x40)\n      dup1\n      swap2\n      sub\n      swap1\n      revert\n    tag_101:\n      pop\n        /* \"node_modules/@openzeppelin/contracts/token/ERC1155/ERC1155.sol\":2440:2449  _balances */\n      0x00\n        /* \"node_modules/@openzeppelin/contracts/token/ERC1155/ERC1155.sol\":2440:2453  _balances[id] */\n      swap1\n      dup2\n      mstore\n      0x20\n      dup2\n      dup2\n      mstore\n      0x40\n      dup1\n      dup4\n      keccak256\n      sub(shl(0xa0, 0x01), 0x01)\n        /* \"node_modules/@openzeppelin/contracts/token/ERC1155/ERC1155.sol\":2440:2462  _balances[id][account] */\n      swap5\n      swap1\n      swap5\n      and\n      dup4\n      mstore\n      swap3\n      swap1\n      mstore\n      keccak256\n      sload\n      swap1\n        /* \"node_modules/@openzeppelin/contracts/token/ERC1155/ERC1155.sol\":2239:2470  function balanceOf(address account, uint256 id) public view virtual override returns (uint256) {... */\n      jump\t// out\n        /* \"node_modules/@openzeppelin/contracts/token/ERC1155/ERC1155.sol\":1262:1572  function supportsInterface(bytes4 interfaceId) public view virtual override(ERC165, IERC165) returns (bool) {... */\n    tag_33:\n        /* \"node_modules/@openzeppelin/contracts/token/ERC1155/ERC1155.sol\":1364:1368  bool */\n      0x00\n      not(sub(shl(0xe0, 0x01), 0x01))\n        /* \"node_modules/@openzeppelin/contracts/token/ERC1155/ERC1155.sol\":1401:1442  interfaceId == type(IERC1155).interfaceId */\n      dup3\n      and\n      shl(0xe1, 0x6cdb3d13)\n      eq\n      dup1\n        /* \"node_modules/@openzeppelin/contracts/token/ERC1155/ERC1155.sol\":1401:1511  interfaceId == type(IERC1155).interfaceId ||... */\n      tag_105\n      jumpi\n      pop\n      not(sub(shl(0xe0, 0x01), 0x01))\n        /* \"node_modules/@openzeppelin/contracts/token/ERC1155/ERC1155.sol\":1459:1511  interfaceId == type(IERC1155MetadataURI).interfaceId */\n      dup3\n      and\n      shl(0xe2, 0x03a24d07)\n      eq\n        /* \"node_modules/@openzeppelin/contracts/token/ERC1155/ERC1155.sol\":1401:1511  interfaceId == type(IERC1155).interfaceId ||... */\n    tag_105:\n        /* \"node_modules/@openzeppelin/contracts/token/ERC1155/ERC1155.sol\":1401:1564  interfaceId == type(IERC1155).interfaceId ||... */\n      dup1\n      tag_107\n      jumpi\n      pop\n      shl(0xe0, 0x01ffc9a7)\n      not(sub(shl(0xe0, 0x01), 0x01))\n        /* \"node_modules/@openzeppelin/contracts/utils/introspection/ERC165.sol\":963:1003  interfaceId == type(IERC165).interfaceId */\n      dup4\n      and\n      eq\n        /* \"node_modules/@openzeppelin/contracts/token/ERC1155/ERC1155.sol\":1528:1564  super.supportsInterface(interfaceId) */\n    tag_107:\n        /* \"node_modules/@openzeppelin/contracts/token/ERC1155/ERC1155.sol\":1381:1564  return... */\n      swap3\n        /* \"node_modules/@openzeppelin/contracts/token/ERC1155/ERC1155.sol\":1262:1572  function supportsInterface(bytes4 interfaceId) public view virtual override(ERC165, IERC165) returns (bool) {... */\n      swap2\n      pop\n      pop\n      jump\t// out\n        /* \"nft/ERC1155.sol\":1250:1338  function setURI(string memory newuri) public onlyOwner{... */\n    tag_39:\n        /* \"node_modules/@openzeppelin/contracts/access/Ownable.sol\":1143:1149  _owner */\n      and(sub(shl(0xa0, 0x01), 0x01), sload(0x03))\n        /* \"node_modules/@openzeppelin/contracts/utils/Context.sol\":736:746  msg.sender */\n      caller\n        /* \"node_modules/@openzeppelin/contracts/access/Ownable.sol\":1290:1313  owner() == _msgSender() */\n      eq\n        /* \"node_modules/@openzeppelin/contracts/access/Ownable.sol\":1282:1350  require(owner() == _msgSender(), \"Ownable: caller is not the owner\") */\n      tag_113\n      jumpi\n      mload(0x40)\n      shl(0xe5, 0x461bcd)\n      dup2\n      mstore\n      0x04\n      add\n      tag_102\n      swap1\n      tag_115\n      jump\t// in\n    tag_113:\n        /* \"nft/ERC1155.sol\":1315:1330  _setURI(newuri) */\n      tag_117\n        /* \"nft/ERC1155.sol\":1323:1329  newuri */\n      dup2\n        /* \"nft/ERC1155.sol\":1315:1322  _setURI */\n      tag_118\n        /* \"nft/ERC1155.sol\":1315:1330  _setURI(newuri) */\n      jump\t// in\n    tag_117:\n        /* \"nft/ERC1155.sol\":1250:1338  function setURI(string memory newuri) public onlyOwner{... */\n      pop\n      jump\t// out\n        /* \"nft/ERC1155.sol\":1695:2028  function brun(... */\n    tag_43:\n      sub(shl(0xa0, 0x01), 0x01)\n        /* \"nft/ERC1155.sol\":1823:1846  account == _msgSender() */\n      dup4\n      and\n        /* \"node_modules/@openzeppelin/contracts/utils/Context.sol\":736:746  msg.sender */\n      caller\n        /* \"nft/ERC1155.sol\":1823:1846  account == _msgSender() */\n      eq\n      dup1\n        /* \"nft/ERC1155.sol\":1823:1889  account == _msgSender() || isApprovedForAll(account, _msgSender()) */\n      tag_122\n      jumpi\n      pop\n        /* \"nft/ERC1155.sol\":1850:1889  isApprovedForAll(account, _msgSender()) */\n      tag_122\n        /* \"nft/ERC1155.sol\":1867:1874  account */\n      dup4\n        /* \"node_modules/@openzeppelin/contracts/utils/Context.sol\":736:746  msg.sender */\n      caller\n        /* \"node_modules/@openzeppelin/contracts/token/ERC1155/ERC1155.sol\":3460:3628  function isApprovedForAll(address account, address operator) public view virtual override returns (bool) {... */\n      tag_88\n      jump\t// in\n        /* \"nft/ERC1155.sol\":1850:1889  isApprovedForAll(account, _msgSender()) */\n    tag_122:\n        /* \"nft/ERC1155.sol\":1801:1958  require(... */\n      tag_124\n      jumpi\n      mload(0x40)\n      shl(0xe5, 0x461bcd)\n      dup2\n      mstore\n      0x04\n      add\n      tag_102\n      swap1\n      tag_126\n      jump\t// in\n    tag_124:\n        /* \"nft/ERC1155.sol\":1971:1996  _burn(account, id, value) */\n      tag_127\n        /* \"nft/ERC1155.sol\":1977:1984  account */\n      dup4\n        /* \"nft/ERC1155.sol\":1986:1988  id */\n      dup4\n        /* \"nft/ERC1155.sol\":1990:1995  value */\n      dup4\n        /* \"nft/ERC1155.sol\":1971:1976  _burn */\n      tag_128\n        /* \"nft/ERC1155.sol\":1971:1996  _burn(account, id, value) */\n      jump\t// in\n    tag_127:\n        /* \"nft/ERC1155.sol\":2009:2020  tokenSupply */\n      0x04\n      0x00\n        /* \"nft/ERC1155.sol\":2007:2020  --tokenSupply */\n      dup2\n      sload\n      tag_129\n      swap1\n      tag_130\n      jump\t// in\n    tag_129:\n      swap1\n      swap2\n      sstore\n      pop\n      pop\n      pop\n      pop\n        /* \"nft/ERC1155.sol\":1695:2028  function brun(... */\n      jump\t// out\n        /* \"node_modules/@openzeppelin/contracts/token/ERC1155/ERC1155.sol\":1983:2088  function uri(uint256) public view virtual override returns (string memory) {... */\n    tag_47:\n        /* \"node_modules/@openzeppelin/contracts/token/ERC1155/ERC1155.sol\":2043:2056  string memory */\n      0x60\n        /* \"node_modules/@openzeppelin/contracts/token/ERC1155/ERC1155.sol\":2076:2080  _uri */\n      0x02\n        /* \"node_modules/@openzeppelin/contracts/token/ERC1155/ERC1155.sol\":2069:2080  return _uri */\n      dup1\n      sload\n      tag_132\n      swap1\n      tag_133\n      jump\t// in\n    tag_132:\n      dup1\n      0x1f\n      add\n      0x20\n      dup1\n      swap2\n      div\n      mul\n      0x20\n      add\n      mload(0x40)\n      swap1\n      dup2\n      add\n      0x40\n      mstore\n      dup1\n      swap3\n      swap2\n      swap1\n      dup2\n      dup2\n      mstore\n      0x20\n      add\n      dup3\n      dup1\n      sload\n      tag_134\n      swap1\n      tag_133\n      jump\t// in\n    tag_134:\n      dup1\n      iszero\n      tag_135\n      jumpi\n      dup1\n      0x1f\n      lt\n      tag_136\n      jumpi\n      0x0100\n      dup1\n      dup4\n      sload\n      div\n      mul\n      dup4\n      mstore\n      swap2\n      0x20\n      add\n      swap2\n      jump(tag_135)\n    tag_136:\n      dup3\n      add\n      swap2\n      swap1\n      0x00\n      mstore\n      keccak256(0x00, 0x20)\n      swap1\n    tag_137:\n      dup2\n      sload\n      dup2\n      mstore\n      swap1\n      0x01\n      add\n      swap1\n      0x20\n      add\n      dup1\n      dup4\n      gt\n      tag_137\n      jumpi\n      dup3\n      swap1\n      sub\n      0x1f\n      and\n      dup3\n      add\n      swap2\n    tag_135:\n      pop\n      pop\n      pop\n      pop\n      pop\n      swap1\n      pop\n        /* \"node_modules/@openzeppelin/contracts/token/ERC1155/ERC1155.sol\":1983:2088  function uri(uint256) public view virtual override returns (string memory) {... */\n      swap2\n      swap1\n      pop\n      jump\t// out\n        /* \"nft/ERC1155.sol\":1346:1586  function mintBatch(address to, uint256[] memory ids, uint256[] memory amounts, bytes memory data)... */\n    tag_53:\n        /* \"node_modules/@openzeppelin/contracts/access/Ownable.sol\":1143:1149  _owner */\n      and(sub(shl(0xa0, 0x01), 0x01), sload(0x03))\n        /* \"node_modules/@openzeppelin/contracts/utils/Context.sol\":736:746  msg.sender */\n      caller\n        /* \"node_modules/@openzeppelin/contracts/access/Ownable.sol\":1290:1313  owner() == _msgSender() */\n      eq\n        /* \"node_modules/@openzeppelin/contracts/access/Ownable.sol\":1282:1350  require(owner() == _msgSender(), \"Ownable: caller is not the owner\") */\n      tag_141\n      jumpi\n      mload(0x40)\n      shl(0xe5, 0x461bcd)\n      dup2\n      mstore\n      0x04\n      add\n      tag_102\n      swap1\n      tag_115\n      jump\t// in\n    tag_141:\n        /* \"nft/ERC1155.sol\":1495:1529  _mintBatch(to, ids, amounts, data) */\n      tag_144\n        /* \"nft/ERC1155.sol\":1506:1508  to */\n      dup5\n        /* \"nft/ERC1155.sol\":1510:1513  ids */\n      dup5\n        /* \"nft/ERC1155.sol\":1515:1522  amounts */\n      dup5\n        /* \"nft/ERC1155.sol\":1524:1528  data */\n      dup5\n        /* \"nft/ERC1155.sol\":1495:1505  _mintBatch */\n      tag_145\n        /* \"nft/ERC1155.sol\":1495:1529  _mintBatch(to, ids, amounts, data) */\n      jump\t// in\n    tag_144:\n        /* \"nft/ERC1155.sol\":1568:1571  ids */\n      dup3\n        /* \"nft/ERC1155.sol\":1568:1578  ids.length */\n      mload\n        /* \"nft/ERC1155.sol\":1554:1565  tokenSupply */\n      sload(0x04)\n        /* \"nft/ERC1155.sol\":1554:1578  tokenSupply + ids.length */\n      tag_146\n      swap2\n      swap1\n      tag_147\n      jump\t// in\n    tag_146:\n        /* \"nft/ERC1155.sol\":1540:1551  tokenSupply */\n      0x04\n        /* \"nft/ERC1155.sol\":1540:1578  tokenSupply = tokenSupply + ids.length */\n      sstore\n      pop\n      pop\n      pop\n      pop\n        /* \"nft/ERC1155.sol\":1346:1586  function mintBatch(address to, uint256[] memory ids, uint256[] memory amounts, bytes memory data)... */\n      jump\t// out\n        /* \"node_modules/@openzeppelin/contracts/token/ERC1155/ERC1155.sol\":4178:4620  function safeBatchTransferFrom(... */\n    tag_57:\n      sub(shl(0xa0, 0x01), 0x01)\n        /* \"node_modules/@openzeppelin/contracts/token/ERC1155/ERC1155.sol\":4411:4431  from == _msgSender() */\n      dup6\n      and\n        /* \"node_modules/@openzeppelin/contracts/utils/Context.sol\":736:746  msg.sender */\n      caller\n        /* \"node_modules/@openzeppelin/contracts/token/ERC1155/ERC1155.sol\":4411:4431  from == _msgSender() */\n      eq\n      dup1\n        /* \"node_modules/@openzeppelin/contracts/token/ERC1155/ERC1155.sol\":4411:4471  from == _msgSender() || isApprovedForAll(from, _msgSender()) */\n      tag_151\n      jumpi\n      pop\n        /* \"node_modules/@openzeppelin/contracts/token/ERC1155/ERC1155.sol\":4435:4471  isApprovedForAll(from, _msgSender()) */\n      tag_151\n        /* \"node_modules/@openzeppelin/contracts/token/ERC1155/ERC1155.sol\":4452:4456  from */\n      dup6\n        /* \"node_modules/@openzeppelin/contracts/utils/Context.sol\":736:746  msg.sender */\n      caller\n        /* \"node_modules/@openzeppelin/contracts/token/ERC1155/ERC1155.sol\":3460:3628  function isApprovedForAll(address account, address operator) public view virtual override returns (bool) {... */\n      tag_88\n      jump\t// in\n        /* \"node_modules/@openzeppelin/contracts/token/ERC1155/ERC1155.sol\":4435:4471  isApprovedForAll(from, _msgSender()) */\n    tag_151:\n        /* \"node_modules/@openzeppelin/contracts/token/ERC1155/ERC1155.sol\":4389:4549  require(... */\n      tag_153\n      jumpi\n      mload(0x40)\n      shl(0xe5, 0x461bcd)\n      dup2\n      mstore\n        /* \"#utility.yul\":12754:12756   */\n      0x20\n        /* \"node_modules/@openzeppelin/contracts/token/ERC1155/ERC1155.sol\":4389:4549  require(... */\n      0x04\n      dup3\n      add\n        /* \"#utility.yul\":12736:12757   */\n      mstore\n        /* \"#utility.yul\":12793:12795   */\n      0x32\n        /* \"#utility.yul\":12773:12791   */\n      0x24\n      dup3\n      add\n        /* \"#utility.yul\":12766:12796   */\n      mstore\n        /* \"#utility.yul\":12832:12866   */\n      0x455243313135353a207472616e736665722063616c6c6572206973206e6f7420\n        /* \"#utility.yul\":12812:12830   */\n      0x44\n      dup3\n      add\n        /* \"#utility.yul\":12805:12867   */\n      mstore\n      shl(0x72, 0x1bdddb995c881b9bdc88185c1c1c9bdd9959)\n        /* \"#utility.yul\":12883:12901   */\n      0x64\n      dup3\n      add\n        /* \"#utility.yul\":12876:12924   */\n      mstore\n        /* \"#utility.yul\":12941:12960   */\n      0x84\n      add\n        /* \"node_modules/@openzeppelin/contracts/token/ERC1155/ERC1155.sol\":4389:4549  require(... */\n      tag_102\n        /* \"#utility.yul\":12552:12966   */\n      jump\n        /* \"node_modules/@openzeppelin/contracts/token/ERC1155/ERC1155.sol\":4389:4549  require(... */\n    tag_153:\n        /* \"node_modules/@openzeppelin/contracts/token/ERC1155/ERC1155.sol\":4560:4612  _safeBatchTransferFrom(from, to, ids, amounts, data) */\n      tag_156\n        /* \"node_modules/@openzeppelin/contracts/token/ERC1155/ERC1155.sol\":4583:4587  from */\n      dup6\n        /* \"node_modules/@openzeppelin/contracts/token/ERC1155/ERC1155.sol\":4589:4591  to */\n      dup6\n        /* \"node_modules/@openzeppelin/contracts/token/ERC1155/ERC1155.sol\":4593:4596  ids */\n      dup6\n        /* \"node_modules/@openzeppelin/contracts/token/ERC1155/ERC1155.sol\":4598:4605  amounts */\n      dup6\n        /* \"node_modules/@openzeppelin/contracts/token/ERC1155/ERC1155.sol\":4607:4611  data */\n      dup6\n        /* \"node_modules/@openzeppelin/contracts/token/ERC1155/ERC1155.sol\":4560:4582  _safeBatchTransferFrom */\n      tag_157\n        /* \"node_modules/@openzeppelin/contracts/token/ERC1155/ERC1155.sol\":4560:4612  _safeBatchTransferFrom(from, to, ids, amounts, data) */\n      jump\t// in\n    tag_156:\n        /* \"node_modules/@openzeppelin/contracts/token/ERC1155/ERC1155.sol\":4178:4620  function safeBatchTransferFrom(... */\n      pop\n      pop\n      pop\n      pop\n      pop\n      jump\t// out\n        /* \"node_modules/@openzeppelin/contracts/token/ERC1155/ERC1155.sol\":2636:3160  function balanceOfBatch(address[] memory accounts, uint256[] memory ids)... */\n    tag_61:\n        /* \"node_modules/@openzeppelin/contracts/token/ERC1155/ERC1155.sol\":2792:2808  uint256[] memory */\n      0x60\n        /* \"node_modules/@openzeppelin/contracts/token/ERC1155/ERC1155.sol\":2853:2856  ids */\n      dup2\n        /* \"node_modules/@openzeppelin/contracts/token/ERC1155/ERC1155.sol\":2853:2863  ids.length */\n      mload\n        /* \"node_modules/@openzeppelin/contracts/token/ERC1155/ERC1155.sol\":2834:2842  accounts */\n      dup4\n        /* \"node_modules/@openzeppelin/contracts/token/ERC1155/ERC1155.sol\":2834:2849  accounts.length */\n      mload\n        /* \"node_modules/@openzeppelin/contracts/token/ERC1155/ERC1155.sol\":2834:2863  accounts.length == ids.length */\n      eq\n        /* \"node_modules/@openzeppelin/contracts/token/ERC1155/ERC1155.sol\":2826:2909  require(accounts.length == ids.length, \"ERC1155: accounts and ids length mismatch\") */\n      tag_159\n      jumpi\n      mload(0x40)\n      shl(0xe5, 0x461bcd)\n      dup2\n      mstore\n        /* \"#utility.yul\":13173:13175   */\n      0x20\n        /* \"node_modules/@openzeppelin/contracts/token/ERC1155/ERC1155.sol\":2826:2909  require(accounts.length == ids.length, \"ERC1155: accounts and ids length mismatch\") */\n      0x04\n      dup3\n      add\n        /* \"#utility.yul\":13155:13176   */\n      mstore\n        /* \"#utility.yul\":13212:13214   */\n      0x29\n        /* \"#utility.yul\":13192:13210   */\n      0x24\n      dup3\n      add\n        /* \"#utility.yul\":13185:13215   */\n      mstore\n        /* \"#utility.yul\":13251:13285   */\n      0x455243313135353a206163636f756e747320616e6420696473206c656e677468\n        /* \"#utility.yul\":13231:13249   */\n      0x44\n      dup3\n      add\n        /* \"#utility.yul\":13224:13286   */\n      mstore\n      shl(0xbb, 0x040dad2e6dac2e8c6d)\n        /* \"#utility.yul\":13302:13320   */\n      0x64\n      dup3\n      add\n        /* \"#utility.yul\":13295:13334   */\n      mstore\n        /* \"#utility.yul\":13351:13370   */\n      0x84\n      add\n        /* \"node_modules/@openzeppelin/contracts/token/ERC1155/ERC1155.sol\":2826:2909  require(accounts.length == ids.length, \"ERC1155: accounts and ids length mismatch\") */\n      tag_102\n        /* \"#utility.yul\":12971:13376   */\n      jump\n        /* \"node_modules/@openzeppelin/contracts/token/ERC1155/ERC1155.sol\":2826:2909  require(accounts.length == ids.length, \"ERC1155: accounts and ids length mismatch\") */\n    tag_159:\n        /* \"node_modules/@openzeppelin/contracts/token/ERC1155/ERC1155.sol\":2922:2952  uint256[] memory batchBalances */\n      0x00\n        /* \"node_modules/@openzeppelin/contracts/token/ERC1155/ERC1155.sol\":2969:2977  accounts */\n      dup4\n        /* \"node_modules/@openzeppelin/contracts/token/ERC1155/ERC1155.sol\":2969:2984  accounts.length */\n      mload\n      sub(shl(0x40, 0x01), 0x01)\n        /* \"node_modules/@openzeppelin/contracts/token/ERC1155/ERC1155.sol\":2955:2985  new uint256[](accounts.length) */\n      dup2\n      gt\n      iszero\n      tag_163\n      jumpi\n      tag_163\n      tag_164\n      jump\t// in\n    tag_163:\n      mload(0x40)\n      swap1\n      dup1\n      dup3\n      mstore\n      dup1\n      0x20\n      mul\n      0x20\n      add\n      dup3\n      add\n      0x40\n      mstore\n      dup1\n      iszero\n      tag_165\n      jumpi\n      dup2\n      0x20\n      add\n      0x20\n      dup3\n      mul\n      dup1\n      calldatasize\n      dup4\n      calldatacopy\n      add\n      swap1\n      pop\n    tag_165:\n      pop\n        /* \"node_modules/@openzeppelin/contracts/token/ERC1155/ERC1155.sol\":2922:2985  uint256[] memory batchBalances = new uint256[](accounts.length) */\n      swap1\n      pop\n        /* \"node_modules/@openzeppelin/contracts/token/ERC1155/ERC1155.sol\":3003:3012  uint256 i */\n      0x00\n        /* \"node_modules/@openzeppelin/contracts/token/ERC1155/ERC1155.sol\":2998:3120  for (uint256 i = 0; i < accounts.length; ++i) {... */\n    tag_166:\n        /* \"node_modules/@openzeppelin/contracts/token/ERC1155/ERC1155.sol\":3022:3030  accounts */\n      dup5\n        /* \"node_modules/@openzeppelin/contracts/token/ERC1155/ERC1155.sol\":3022:3037  accounts.length */\n      mload\n        /* \"node_modules/@openzeppelin/contracts/token/ERC1155/ERC1155.sol\":3018:3019  i */\n      dup2\n        /* \"node_modules/@openzeppelin/contracts/token/ERC1155/ERC1155.sol\":3018:3037  i < accounts.length */\n      lt\n        /* \"node_modules/@openzeppelin/contracts/token/ERC1155/ERC1155.sol\":2998:3120  for (uint256 i = 0; i < accounts.length; ++i) {... */\n      iszero\n      tag_167\n      jumpi\n        /* \"node_modules/@openzeppelin/contracts/token/ERC1155/ERC1155.sol\":3078:3108  balanceOf(accounts[i], ids[i]) */\n      tag_169\n        /* \"node_modules/@openzeppelin/contracts/token/ERC1155/ERC1155.sol\":3088:3096  accounts */\n      dup6\n        /* \"node_modules/@openzeppelin/contracts/token/ERC1155/ERC1155.sol\":3097:3098  i */\n      dup3\n        /* \"node_modules/@openzeppelin/contracts/token/ERC1155/ERC1155.sol\":3088:3099  accounts[i] */\n      dup2\n      mload\n      dup2\n      lt\n      tag_171\n      jumpi\n      tag_171\n      tag_172\n      jump\t// in\n    tag_171:\n      0x20\n      mul\n      0x20\n      add\n      add\n      mload\n        /* \"node_modules/@openzeppelin/contracts/token/ERC1155/ERC1155.sol\":3101:3104  ids */\n      dup6\n        /* \"node_modules/@openzeppelin/contracts/token/ERC1155/ERC1155.sol\":3105:3106  i */\n      dup4\n        /* \"node_modules/@openzeppelin/contracts/token/ERC1155/ERC1155.sol\":3101:3107  ids[i] */\n      dup2\n      mload\n      dup2\n      lt\n      tag_174\n      jumpi\n      tag_174\n      tag_172\n      jump\t// in\n    tag_174:\n      0x20\n      mul\n      0x20\n      add\n      add\n      mload\n        /* \"node_modules/@openzeppelin/contracts/token/ERC1155/ERC1155.sol\":3078:3087  balanceOf */\n      tag_27\n        /* \"node_modules/@openzeppelin/contracts/token/ERC1155/ERC1155.sol\":3078:3108  balanceOf(accounts[i], ids[i]) */\n      jump\t// in\n    tag_169:\n        /* \"node_modules/@openzeppelin/contracts/token/ERC1155/ERC1155.sol\":3059:3072  batchBalances */\n      dup3\n        /* \"node_modules/@openzeppelin/contracts/token/ERC1155/ERC1155.sol\":3073:3074  i */\n      dup3\n        /* \"node_modules/@openzeppelin/contracts/token/ERC1155/ERC1155.sol\":3059:3075  batchBalances[i] */\n      dup2\n      mload\n      dup2\n      lt\n      tag_176\n      jumpi\n      tag_176\n      tag_172\n      jump\t// in\n    tag_176:\n      0x20\n      swap1\n      dup2\n      mul\n      swap2\n      swap1\n      swap2\n      add\n      add\n        /* \"node_modules/@openzeppelin/contracts/token/ERC1155/ERC1155.sol\":3059:3108  batchBalances[i] = balanceOf(accounts[i], ids[i]) */\n      mstore\n        /* \"node_modules/@openzeppelin/contracts/token/ERC1155/ERC1155.sol\":3039:3042  ++i */\n      tag_177\n      dup2\n      tag_178\n      jump\t// in\n    tag_177:\n      swap1\n      pop\n        /* \"node_modules/@openzeppelin/contracts/token/ERC1155/ERC1155.sol\":2998:3120  for (uint256 i = 0; i < accounts.length; ++i) {... */\n      jump(tag_166)\n    tag_167:\n      pop\n        /* \"node_modules/@openzeppelin/contracts/token/ERC1155/ERC1155.sol\":3139:3152  batchBalances */\n      swap4\n        /* \"node_modules/@openzeppelin/contracts/token/ERC1155/ERC1155.sol\":2636:3160  function balanceOfBatch(address[] memory accounts, uint256[] memory ids)... */\n      swap3\n      pop\n      pop\n      pop\n      jump\t// out\n        /* \"node_modules/@openzeppelin/contracts/access/Ownable.sol\":1721:1824  function renounceOwnership() public virtual onlyOwner {... */\n    tag_65:\n        /* \"node_modules/@openzeppelin/contracts/access/Ownable.sol\":1143:1149  _owner */\n      and(sub(shl(0xa0, 0x01), 0x01), sload(0x03))\n        /* \"node_modules/@openzeppelin/contracts/utils/Context.sol\":736:746  msg.sender */\n      caller\n        /* \"node_modules/@openzeppelin/contracts/access/Ownable.sol\":1290:1313  owner() == _msgSender() */\n      eq\n        /* \"node_modules/@openzeppelin/contracts/access/Ownable.sol\":1282:1350  require(owner() == _msgSender(), \"Ownable: caller is not the owner\") */\n      tag_182\n      jumpi\n      mload(0x40)\n      shl(0xe5, 0x461bcd)\n      dup2\n      mstore\n      0x04\n      add\n      tag_102\n      swap1\n      tag_115\n      jump\t// in\n    tag_182:\n        /* \"node_modules/@openzeppelin/contracts/access/Ownable.sol\":1786:1816  _transferOwnership(address(0)) */\n      tag_185\n        /* \"node_modules/@openzeppelin/contracts/access/Ownable.sol\":1813:1814  0 */\n      0x00\n        /* \"node_modules/@openzeppelin/contracts/access/Ownable.sol\":1786:1804  _transferOwnership */\n      tag_186\n        /* \"node_modules/@openzeppelin/contracts/access/Ownable.sol\":1786:1816  _transferOwnership(address(0)) */\n      jump\t// in\n    tag_185:\n        /* \"node_modules/@openzeppelin/contracts/access/Ownable.sol\":1721:1824  function renounceOwnership() public virtual onlyOwner {... */\n      jump\t// out\n        /* \"nft/ERC1155.sol\":350:811  function mintBatchWithNumber(uint256 idsNumber) public onlyOwner{... */\n    tag_68:\n        /* \"node_modules/@openzeppelin/contracts/access/Ownable.sol\":1143:1149  _owner */\n      and(sub(shl(0xa0, 0x01), 0x01), sload(0x03))\n        /* \"node_modules/@openzeppelin/contracts/utils/Context.sol\":736:746  msg.sender */\n      caller\n        /* \"node_modules/@openzeppelin/contracts/access/Ownable.sol\":1290:1313  owner() == _msgSender() */\n      eq\n        /* \"node_modules/@openzeppelin/contracts/access/Ownable.sol\":1282:1350  require(owner() == _msgSender(), \"Ownable: caller is not the owner\") */\n      tag_190\n      jumpi\n      mload(0x40)\n      shl(0xe5, 0x461bcd)\n      dup2\n      mstore\n      0x04\n      add\n      tag_102\n      swap1\n      tag_115\n      jump\t// in\n    tag_190:\n        /* \"nft/ERC1155.sol\":425:445  uint256[] memory ids */\n      0x00\n        /* \"nft/ERC1155.sol\":462:471  idsNumber */\n      dup2\n      sub(shl(0x40, 0x01), 0x01)\n        /* \"nft/ERC1155.sol\":448:472  new uint256[](idsNumber) */\n      dup2\n      gt\n      iszero\n      tag_194\n      jumpi\n      tag_194\n      tag_164\n      jump\t// in\n    tag_194:\n      mload(0x40)\n      swap1\n      dup1\n      dup3\n      mstore\n      dup1\n      0x20\n      mul\n      0x20\n      add\n      dup3\n      add\n      0x40\n      mstore\n      dup1\n      iszero\n      tag_195\n      jumpi\n      dup2\n      0x20\n      add\n      0x20\n      dup3\n      mul\n      dup1\n      calldatasize\n      dup4\n      calldatacopy\n      add\n      swap1\n      pop\n    tag_195:\n      pop\n        /* \"nft/ERC1155.sol\":425:472  uint256[] memory ids = new uint256[](idsNumber) */\n      swap1\n      pop\n        /* \"nft/ERC1155.sol\":483:507  uint256[] memory amounts */\n      0x00\n        /* \"nft/ERC1155.sol\":524:533  idsNumber */\n      dup3\n      sub(shl(0x40, 0x01), 0x01)\n        /* \"nft/ERC1155.sol\":510:534  new uint256[](idsNumber) */\n      dup2\n      gt\n      iszero\n      tag_197\n      jumpi\n      tag_197\n      tag_164\n      jump\t// in\n    tag_197:\n      mload(0x40)\n      swap1\n      dup1\n      dup3\n      mstore\n      dup1\n      0x20\n      mul\n      0x20\n      add\n      dup3\n      add\n      0x40\n      mstore\n      dup1\n      iszero\n      tag_198\n      jumpi\n      dup2\n      0x20\n      add\n      0x20\n      dup3\n      mul\n      dup1\n      calldatasize\n      dup4\n      calldatacopy\n      add\n      swap1\n      pop\n    tag_198:\n      pop\n        /* \"nft/ERC1155.sol\":562:573  tokenSupply */\n      sload(0x04)\n        /* \"nft/ERC1155.sol\":483:534  uint256[] memory amounts = new uint256[](idsNumber) */\n      swap1\n      swap2\n      pop\n        /* \"nft/ERC1155.sol\":545:705  for (uint256 i = tokenSupply; i < (idsNumber + tokenSupply); i++) {... */\n    tag_199:\n        /* \"nft/ERC1155.sol\":592:603  tokenSupply */\n      sload(0x04)\n        /* \"nft/ERC1155.sol\":580:603  idsNumber + tokenSupply */\n      tag_202\n      swap1\n        /* \"nft/ERC1155.sol\":580:589  idsNumber */\n      dup6\n        /* \"nft/ERC1155.sol\":580:603  idsNumber + tokenSupply */\n      tag_147\n      jump\t// in\n    tag_202:\n        /* \"nft/ERC1155.sol\":575:576  i */\n      dup2\n        /* \"nft/ERC1155.sol\":575:604  i < (idsNumber + tokenSupply) */\n      lt\n        /* \"nft/ERC1155.sol\":545:705  for (uint256 i = tokenSupply; i < (idsNumber + tokenSupply); i++) {... */\n      iszero\n      tag_200\n      jumpi\n        /* \"nft/ERC1155.sol\":649:650  i */\n      dup1\n        /* \"nft/ERC1155.sol\":626:629  ids */\n      dup4\n        /* \"nft/ERC1155.sol\":634:645  tokenSupply */\n      sload(0x04)\n        /* \"nft/ERC1155.sol\":630:631  i */\n      dup4\n        /* \"nft/ERC1155.sol\":630:645  i - tokenSupply */\n      tag_203\n      swap2\n      swap1\n      tag_204\n      jump\t// in\n    tag_203:\n        /* \"nft/ERC1155.sol\":626:646  ids[i - tokenSupply] */\n      dup2\n      mload\n      dup2\n      lt\n      tag_206\n      jumpi\n      tag_206\n      tag_172\n      jump\t// in\n    tag_206:\n      0x20\n      mul\n      0x20\n      add\n      add\n        /* \"nft/ERC1155.sol\":626:650  ids[i - tokenSupply] = i */\n      dup2\n      dup2\n      mstore\n      pop\n      pop\n        /* \"nft/ERC1155.sol\":692:693  1 */\n      0x01\n        /* \"nft/ERC1155.sol\":665:672  amounts */\n      dup3\n        /* \"nft/ERC1155.sol\":677:688  tokenSupply */\n      sload(0x04)\n        /* \"nft/ERC1155.sol\":673:674  i */\n      dup4\n        /* \"nft/ERC1155.sol\":673:688  i - tokenSupply */\n      tag_207\n      swap2\n      swap1\n      tag_204\n      jump\t// in\n    tag_207:\n        /* \"nft/ERC1155.sol\":665:689  amounts[i - tokenSupply] */\n      dup2\n      mload\n      dup2\n      lt\n      tag_209\n      jumpi\n      tag_209\n      tag_172\n      jump\t// in\n    tag_209:\n      0x20\n      swap1\n      dup2\n      mul\n      swap2\n      swap1\n      swap2\n      add\n      add\n        /* \"nft/ERC1155.sol\":665:693  amounts[i - tokenSupply] = 1 */\n      mstore\n        /* \"nft/ERC1155.sol\":606:609  i++ */\n      dup1\n      tag_210\n      dup2\n      tag_178\n      jump\t// in\n    tag_210:\n      swap2\n      pop\n      pop\n        /* \"nft/ERC1155.sol\":545:705  for (uint256 i = tokenSupply; i < (idsNumber + tokenSupply); i++) {... */\n      jump(tag_199)\n    tag_200:\n      pop\n        /* \"nft/ERC1155.sol\":715:755  _mintBatch(msg.sender, ids, amounts, \"\") */\n      tag_211\n        /* \"nft/ERC1155.sol\":726:736  msg.sender */\n      caller\n        /* \"nft/ERC1155.sol\":738:741  ids */\n      dup4\n        /* \"nft/ERC1155.sol\":743:750  amounts */\n      dup4\n        /* \"nft/ERC1155.sol\":715:755  _mintBatch(msg.sender, ids, amounts, \"\") */\n      mload(0x40)\n      dup1\n      0x20\n      add\n      0x40\n      mstore\n      dup1\n      0x00\n      dup2\n      mstore\n      pop\n        /* \"nft/ERC1155.sol\":715:725  _mintBatch */\n      tag_145\n        /* \"nft/ERC1155.sol\":715:755  _mintBatch(msg.sender, ids, amounts, \"\") */\n      jump\t// in\n    tag_211:\n        /* \"nft/ERC1155.sol\":794:803  idsNumber */\n      dup3\n        /* \"nft/ERC1155.sol\":780:791  tokenSupply */\n      sload(0x04)\n        /* \"nft/ERC1155.sol\":780:803  tokenSupply + idsNumber */\n      tag_212\n      swap2\n      swap1\n      tag_147\n      jump\t// in\n    tag_212:\n        /* \"nft/ERC1155.sol\":766:777  tokenSupply */\n      0x04\n        /* \"nft/ERC1155.sol\":766:803  tokenSupply = tokenSupply + idsNumber */\n      sstore\n      pop\n      pop\n      pop\n        /* \"nft/ERC1155.sol\":350:811  function mintBatchWithNumber(uint256 idsNumber) public onlyOwner{... */\n      jump\t// out\n        /* \"nft/ERC1155.sol\":819:1240  function transferWithNumber(uint256 start, uint256 idsNumber, address to) public {... */\n    tag_79:\n        /* \"nft/ERC1155.sol\":911:931  uint256[] memory ids */\n      0x00\n        /* \"nft/ERC1155.sol\":948:957  idsNumber */\n      dup3\n      sub(shl(0x40, 0x01), 0x01)\n        /* \"nft/ERC1155.sol\":934:958  new uint256[](idsNumber) */\n      dup2\n      gt\n      iszero\n      tag_216\n      jumpi\n      tag_216\n      tag_164\n      jump\t// in\n    tag_216:\n      mload(0x40)\n      swap1\n      dup1\n      dup3\n      mstore\n      dup1\n      0x20\n      mul\n      0x20\n      add\n      dup3\n      add\n      0x40\n      mstore\n      dup1\n      iszero\n      tag_217\n      jumpi\n      dup2\n      0x20\n      add\n      0x20\n      dup3\n      mul\n      dup1\n      calldatasize\n      dup4\n      calldatacopy\n      add\n      swap1\n      pop\n    tag_217:\n      pop\n        /* \"nft/ERC1155.sol\":911:958  uint256[] memory ids = new uint256[](idsNumber) */\n      swap1\n      pop\n        /* \"nft/ERC1155.sol\":969:993  uint256[] memory amounts */\n      0x00\n        /* \"nft/ERC1155.sol\":1010:1019  idsNumber */\n      dup4\n      sub(shl(0x40, 0x01), 0x01)\n        /* \"nft/ERC1155.sol\":996:1020  new uint256[](idsNumber) */\n      dup2\n      gt\n      iszero\n      tag_219\n      jumpi\n      tag_219\n      tag_164\n      jump\t// in\n    tag_219:\n      mload(0x40)\n      swap1\n      dup1\n      dup3\n      mstore\n      dup1\n      0x20\n      mul\n      0x20\n      add\n      dup3\n      add\n      0x40\n      mstore\n      dup1\n      iszero\n      tag_220\n      jumpi\n      dup2\n      0x20\n      add\n      0x20\n      dup3\n      mul\n      dup1\n      calldatasize\n      dup4\n      calldatacopy\n      add\n      swap1\n      pop\n    tag_220:\n      pop\n        /* \"nft/ERC1155.sol\":969:1020  uint256[] memory amounts = new uint256[](idsNumber) */\n      swap1\n      pop\n        /* \"nft/ERC1155.sol\":1048:1053  start */\n      dup5\n        /* \"nft/ERC1155.sol\":1031:1167  for (uint256 i = start; i < (idsNumber + start); i++) {... */\n    tag_221:\n        /* \"nft/ERC1155.sol\":1060:1077  idsNumber + start */\n      tag_224\n        /* \"nft/ERC1155.sol\":1072:1077  start */\n      dup7\n        /* \"nft/ERC1155.sol\":1060:1069  idsNumber */\n      dup7\n        /* \"nft/ERC1155.sol\":1060:1077  idsNumber + start */\n      tag_147\n      jump\t// in\n    tag_224:\n        /* \"nft/ERC1155.sol\":1055:1056  i */\n      dup2\n        /* \"nft/ERC1155.sol\":1055:1078  i < (idsNumber + start) */\n      lt\n        /* \"nft/ERC1155.sol\":1031:1167  for (uint256 i = start; i < (idsNumber + start); i++) {... */\n      iszero\n      tag_222\n      jumpi\n        /* \"nft/ERC1155.sol\":1117:1118  i */\n      dup1\n        /* \"nft/ERC1155.sol\":1100:1103  ids */\n      dup4\n        /* \"nft/ERC1155.sol\":1104:1113  i - start */\n      tag_225\n        /* \"nft/ERC1155.sol\":1108:1113  start */\n      dup9\n        /* \"nft/ERC1155.sol\":1117:1118  i */\n      dup4\n        /* \"nft/ERC1155.sol\":1104:1113  i - start */\n      tag_204\n      jump\t// in\n    tag_225:\n        /* \"nft/ERC1155.sol\":1100:1114  ids[i - start] */\n      dup2\n      mload\n      dup2\n      lt\n      tag_227\n      jumpi\n      tag_227\n      tag_172\n      jump\t// in\n    tag_227:\n      0x20\n      swap1\n      dup2\n      mul\n      swap2\n      swap1\n      swap2\n      add\n      add\n        /* \"nft/ERC1155.sol\":1100:1118  ids[i - start] = i */\n      mstore\n        /* \"nft/ERC1155.sol\":1154:1155  1 */\n      0x01\n        /* \"nft/ERC1155.sol\":1133:1140  amounts */\n      dup3\n        /* \"nft/ERC1155.sol\":1141:1150  i - start */\n      tag_228\n        /* \"nft/ERC1155.sol\":1145:1150  start */\n      dup9\n        /* \"nft/ERC1155.sol\":1141:1142  i */\n      dup5\n        /* \"nft/ERC1155.sol\":1141:1150  i - start */\n      tag_204\n      jump\t// in\n    tag_228:\n        /* \"nft/ERC1155.sol\":1133:1151  amounts[i - start] */\n      dup2\n      mload\n      dup2\n      lt\n      tag_230\n      jumpi\n      tag_230\n      tag_172\n      jump\t// in\n    tag_230:\n      0x20\n      swap1\n      dup2\n      mul\n      swap2\n      swap1\n      swap2\n      add\n      add\n        /* \"nft/ERC1155.sol\":1133:1155  amounts[i - start] = 1 */\n      mstore\n        /* \"nft/ERC1155.sol\":1080:1083  i++ */\n      dup1\n      tag_231\n      dup2\n      tag_178\n      jump\t// in\n    tag_231:\n      swap2\n      pop\n      pop\n        /* \"nft/ERC1155.sol\":1031:1167  for (uint256 i = start; i < (idsNumber + start); i++) {... */\n      jump(tag_221)\n    tag_222:\n      pop\n        /* \"nft/ERC1155.sol\":1177:1232  safeBatchTransferFrom(msg.sender, to, ids, amounts, \"\") */\n      tag_156\n        /* \"nft/ERC1155.sol\":1199:1209  msg.sender */\n      caller\n        /* \"nft/ERC1155.sol\":1211:1213  to */\n      dup5\n        /* \"nft/ERC1155.sol\":1215:1218  ids */\n      dup5\n        /* \"nft/ERC1155.sol\":1220:1227  amounts */\n      dup5\n        /* \"nft/ERC1155.sol\":1177:1232  safeBatchTransferFrom(msg.sender, to, ids, amounts, \"\") */\n      mload(0x40)\n      dup1\n      0x20\n      add\n      0x40\n      mstore\n      dup1\n      0x00\n      dup2\n      mstore\n      pop\n        /* \"nft/ERC1155.sol\":1177:1198  safeBatchTransferFrom */\n      tag_57\n        /* \"nft/ERC1155.sol\":1177:1232  safeBatchTransferFrom(msg.sender, to, ids, amounts, \"\") */\n      jump\t// in\n        /* \"node_modules/@openzeppelin/contracts/token/ERC1155/ERC1155.sol\":3233:3388  function setApprovalForAll(address operator, bool approved) public virtual override {... */\n    tag_83:\n        /* \"node_modules/@openzeppelin/contracts/token/ERC1155/ERC1155.sol\":3328:3380  _setApprovalForAll(_msgSender(), operator, approved) */\n      tag_234\n        /* \"node_modules/@openzeppelin/contracts/utils/Context.sol\":736:746  msg.sender */\n      caller\n        /* \"node_modules/@openzeppelin/contracts/token/ERC1155/ERC1155.sol\":3361:3369  operator */\n      dup4\n        /* \"node_modules/@openzeppelin/contracts/token/ERC1155/ERC1155.sol\":3371:3379  approved */\n      dup4\n        /* \"node_modules/@openzeppelin/contracts/token/ERC1155/ERC1155.sol\":3328:3346  _setApprovalForAll */\n      tag_236\n        /* \"node_modules/@openzeppelin/contracts/token/ERC1155/ERC1155.sol\":3328:3380  _setApprovalForAll(_msgSender(), operator, approved) */\n      jump\t// in\n    tag_234:\n        /* \"node_modules/@openzeppelin/contracts/token/ERC1155/ERC1155.sol\":3233:3388  function setApprovalForAll(address operator, bool approved) public virtual override {... */\n      pop\n      pop\n      jump\t// out\n        /* \"node_modules/@openzeppelin/contracts/token/ERC1155/ERC1155.sol\":3700:4101  function safeTransferFrom(... */\n    tag_95:\n      sub(shl(0xa0, 0x01), 0x01)\n        /* \"node_modules/@openzeppelin/contracts/token/ERC1155/ERC1155.sol\":3908:3928  from == _msgSender() */\n      dup6\n      and\n        /* \"node_modules/@openzeppelin/contracts/utils/Context.sol\":736:746  msg.sender */\n      caller\n        /* \"node_modules/@openzeppelin/contracts/token/ERC1155/ERC1155.sol\":3908:3928  from == _msgSender() */\n      eq\n      dup1\n        /* \"node_modules/@openzeppelin/contracts/token/ERC1155/ERC1155.sol\":3908:3968  from == _msgSender() || isApprovedForAll(from, _msgSender()) */\n      tag_242\n      jumpi\n      pop\n        /* \"node_modules/@openzeppelin/contracts/token/ERC1155/ERC1155.sol\":3932:3968  isApprovedForAll(from, _msgSender()) */\n      tag_242\n        /* \"node_modules/@openzeppelin/contracts/token/ERC1155/ERC1155.sol\":3949:3953  from */\n      dup6\n        /* \"node_modules/@openzeppelin/contracts/utils/Context.sol\":736:746  msg.sender */\n      caller\n        /* \"node_modules/@openzeppelin/contracts/token/ERC1155/ERC1155.sol\":3460:3628  function isApprovedForAll(address account, address operator) public view virtual override returns (bool) {... */\n      tag_88\n      jump\t// in\n        /* \"node_modules/@openzeppelin/contracts/token/ERC1155/ERC1155.sol\":3932:3968  isApprovedForAll(from, _msgSender()) */\n    tag_242:\n        /* \"node_modules/@openzeppelin/contracts/token/ERC1155/ERC1155.sol\":3886:4037  require(... */\n      tag_244\n      jumpi\n      mload(0x40)\n      shl(0xe5, 0x461bcd)\n      dup2\n      mstore\n      0x04\n      add\n      tag_102\n      swap1\n      tag_126\n      jump\t// in\n    tag_244:\n        /* \"node_modules/@openzeppelin/contracts/token/ERC1155/ERC1155.sol\":4048:4093  _safeTransferFrom(from, to, id, amount, data) */\n      tag_156\n        /* \"node_modules/@openzeppelin/contracts/token/ERC1155/ERC1155.sol\":4066:4070  from */\n      dup6\n        /* \"node_modules/@openzeppelin/contracts/token/ERC1155/ERC1155.sol\":4072:4074  to */\n      dup6\n        /* \"node_modules/@openzeppelin/contracts/token/ERC1155/ERC1155.sol\":4076:4078  id */\n      dup6\n        /* \"node_modules/@openzeppelin/contracts/token/ERC1155/ERC1155.sol\":4080:4086  amount */\n      dup6\n        /* \"node_modules/@openzeppelin/contracts/token/ERC1155/ERC1155.sol\":4088:4092  data */\n      dup6\n        /* \"node_modules/@openzeppelin/contracts/token/ERC1155/ERC1155.sol\":4048:4065  _safeTransferFrom */\n      tag_247\n        /* \"node_modules/@openzeppelin/contracts/token/ERC1155/ERC1155.sol\":4048:4093  _safeTransferFrom(from, to, id, amount, data) */\n      jump\t// in\n        /* \"node_modules/@openzeppelin/contracts/access/Ownable.sol\":1979:2180  function transferOwnership(address newOwner) public virtual onlyOwner {... */\n    tag_99:\n        /* \"node_modules/@openzeppelin/contracts/access/Ownable.sol\":1143:1149  _owner */\n      and(sub(shl(0xa0, 0x01), 0x01), sload(0x03))\n        /* \"node_modules/@openzeppelin/contracts/utils/Context.sol\":736:746  msg.sender */\n      caller\n        /* \"node_modules/@openzeppelin/contracts/access/Ownable.sol\":1290:1313  owner() == _msgSender() */\n      eq\n        /* \"node_modules/@openzeppelin/contracts/access/Ownable.sol\":1282:1350  require(owner() == _msgSender(), \"Ownable: caller is not the owner\") */\n      tag_251\n      jumpi\n      mload(0x40)\n      shl(0xe5, 0x461bcd)\n      dup2\n      mstore\n      0x04\n      add\n      tag_102\n      swap1\n      tag_115\n      jump\t// in\n    tag_251:\n      sub(shl(0xa0, 0x01), 0x01)\n        /* \"node_modules/@openzeppelin/contracts/access/Ownable.sol\":2068:2090  newOwner != address(0) */\n      dup2\n      and\n        /* \"node_modules/@openzeppelin/contracts/access/Ownable.sol\":2060:2133  require(newOwner != address(0), \"Ownable: new owner is the zero address\") */\n      tag_254\n      jumpi\n      mload(0x40)\n      shl(0xe5, 0x461bcd)\n      dup2\n      mstore\n        /* \"#utility.yul\":13985:13987   */\n      0x20\n        /* \"node_modules/@openzeppelin/contracts/access/Ownable.sol\":2060:2133  require(newOwner != address(0), \"Ownable: new owner is the zero address\") */\n      0x04\n      dup3\n      add\n        /* \"#utility.yul\":13967:13988   */\n      mstore\n        /* \"#utility.yul\":14024:14026   */\n      0x26\n        /* \"#utility.yul\":14004:14022   */\n      0x24\n      dup3\n      add\n        /* \"#utility.yul\":13997:14027   */\n      mstore\n        /* \"#utility.yul\":14063:14097   */\n      0x4f776e61626c653a206e6577206f776e657220697320746865207a65726f2061\n        /* \"#utility.yul\":14043:14061   */\n      0x44\n      dup3\n      add\n        /* \"#utility.yul\":14036:14098   */\n      mstore\n      shl(0xd0, 0x646472657373)\n        /* \"#utility.yul\":14114:14132   */\n      0x64\n      dup3\n      add\n        /* \"#utility.yul\":14107:14143   */\n      mstore\n        /* \"#utility.yul\":14160:14179   */\n      0x84\n      add\n        /* \"node_modules/@openzeppelin/contracts/access/Ownable.sol\":2060:2133  require(newOwner != address(0), \"Ownable: new owner is the zero address\") */\n      tag_102\n        /* \"#utility.yul\":13783:14185   */\n      jump\n        /* \"node_modules/@openzeppelin/contracts/access/Ownable.sol\":2060:2133  require(newOwner != address(0), \"Ownable: new owner is the zero address\") */\n    tag_254:\n        /* \"node_modules/@openzeppelin/contracts/access/Ownable.sol\":2144:2172  _transferOwnership(newOwner) */\n      tag_117\n        /* \"node_modules/@openzeppelin/contracts/access/Ownable.sol\":2163:2171  newOwner */\n      dup2\n        /* \"node_modules/@openzeppelin/contracts/access/Ownable.sol\":2144:2162  _transferOwnership */\n      tag_186\n        /* \"node_modules/@openzeppelin/contracts/access/Ownable.sol\":2144:2172  _transferOwnership(newOwner) */\n      jump\t// in\n        /* \"node_modules/@openzeppelin/contracts/token/ERC1155/ERC1155.sol\":8180:8268  function _setURI(string memory newuri) internal virtual {... */\n    tag_118:\n        /* \"node_modules/@openzeppelin/contracts/token/ERC1155/ERC1155.sol\":8247:8260  _uri = newuri */\n      dup1\n      mload\n      tag_234\n      swap1\n        /* \"node_modules/@openzeppelin/contracts/token/ERC1155/ERC1155.sol\":8247:8251  _uri */\n      0x02\n      swap1\n        /* \"node_modules/@openzeppelin/contracts/token/ERC1155/ERC1155.sol\":8247:8260  _uri = newuri */\n      0x20\n      dup5\n      add\n      swap1\n      tag_262\n      jump\t// in\n        /* \"node_modules/@openzeppelin/contracts/token/ERC1155/ERC1155.sol\":10564:11212  function _burn(... */\n    tag_128:\n      sub(shl(0xa0, 0x01), 0x01)\n        /* \"node_modules/@openzeppelin/contracts/token/ERC1155/ERC1155.sol\":10691:10709  from != address(0) */\n      dup4\n      and\n        /* \"node_modules/@openzeppelin/contracts/token/ERC1155/ERC1155.sol\":10683:10749  require(from != address(0), \"ERC1155: burn from the zero address\") */\n      tag_264\n      jumpi\n      mload(0x40)\n      shl(0xe5, 0x461bcd)\n      dup2\n      mstore\n        /* \"#utility.yul\":14392:14394   */\n      0x20\n        /* \"node_modules/@openzeppelin/contracts/token/ERC1155/ERC1155.sol\":10683:10749  require(from != address(0), \"ERC1155: burn from the zero address\") */\n      0x04\n      dup3\n      add\n        /* \"#utility.yul\":14374:14395   */\n      mstore\n        /* \"#utility.yul\":14431:14433   */\n      0x23\n        /* \"#utility.yul\":14411:14429   */\n      0x24\n      dup3\n      add\n        /* \"#utility.yul\":14404:14434   */\n      mstore\n        /* \"#utility.yul\":14470:14504   */\n      0x455243313135353a206275726e2066726f6d20746865207a65726f2061646472\n        /* \"#utility.yul\":14450:14468   */\n      0x44\n      dup3\n      add\n        /* \"#utility.yul\":14443:14505   */\n      mstore\n      shl(0xe8, 0x657373)\n        /* \"#utility.yul\":14521:14539   */\n      0x64\n      dup3\n      add\n        /* \"#utility.yul\":14514:14547   */\n      mstore\n        /* \"#utility.yul\":14564:14583   */\n      0x84\n      add\n        /* \"node_modules/@openzeppelin/contracts/token/ERC1155/ERC1155.sol\":10683:10749  require(from != address(0), \"ERC1155: burn from the zero address\") */\n      tag_102\n        /* \"#utility.yul\":14190:14589   */\n      jump\n        /* \"node_modules/@openzeppelin/contracts/token/ERC1155/ERC1155.sol\":10683:10749  require(from != address(0), \"ERC1155: burn from the zero address\") */\n    tag_264:\n        /* \"node_modules/@openzeppelin/contracts/utils/Context.sol\":736:746  msg.sender */\n      caller\n        /* \"node_modules/@openzeppelin/contracts/token/ERC1155/ERC1155.sol\":10806:10908  _beforeTokenTransfer(operator, from, address(0), _asSingletonArray(id), _asSingletonArray(amount), \"\") */\n      tag_268\n        /* \"node_modules/@openzeppelin/contracts/utils/Context.sol\":736:746  msg.sender */\n      dup2\n        /* \"node_modules/@openzeppelin/contracts/token/ERC1155/ERC1155.sol\":10837:10841  from */\n      dup6\n        /* \"node_modules/@openzeppelin/contracts/token/ERC1155/ERC1155.sol\":10762:10778  address operator */\n      0x00\n        /* \"node_modules/@openzeppelin/contracts/token/ERC1155/ERC1155.sol\":10855:10876  _asSingletonArray(id) */\n      tag_269\n        /* \"node_modules/@openzeppelin/contracts/token/ERC1155/ERC1155.sol\":10873:10875  id */\n      dup8\n        /* \"node_modules/@openzeppelin/contracts/token/ERC1155/ERC1155.sol\":10855:10872  _asSingletonArray */\n      tag_270\n        /* \"node_modules/@openzeppelin/contracts/token/ERC1155/ERC1155.sol\":10855:10876  _asSingletonArray(id) */\n      jump\t// in\n    tag_269:\n        /* \"node_modules/@openzeppelin/contracts/token/ERC1155/ERC1155.sol\":10878:10903  _asSingletonArray(amount) */\n      tag_271\n        /* \"node_modules/@openzeppelin/contracts/token/ERC1155/ERC1155.sol\":10896:10902  amount */\n      dup8\n        /* \"node_modules/@openzeppelin/contracts/token/ERC1155/ERC1155.sol\":10878:10895  _asSingletonArray */\n      tag_270\n        /* \"node_modules/@openzeppelin/contracts/token/ERC1155/ERC1155.sol\":10878:10903  _asSingletonArray(amount) */\n      jump\t// in\n    tag_271:\n      pop\n      pop\n        /* \"node_modules/@openzeppelin/contracts/token/ERC1155/ERC1155.sol\":10806:10908  _beforeTokenTransfer(operator, from, address(0), _asSingletonArray(id), _asSingletonArray(amount), \"\") */\n      0x40\n      dup1\n      mload\n      0x20\n      dup2\n      add\n      swap1\n      swap2\n      mstore\n      0x00\n      swap1\n      mstore\n      pop\n      pop\n      pop\n        /* \"node_modules/@openzeppelin/contracts/token/ERC1155/ERC1155.sol\":6262:7336  function _safeBatchTransferFrom(... */\n      jump\n        /* \"node_modules/@openzeppelin/contracts/token/ERC1155/ERC1155.sol\":10806:10908  _beforeTokenTransfer(operator, from, address(0), _asSingletonArray(id), _asSingletonArray(amount), \"\") */\n    tag_268:\n        /* \"node_modules/@openzeppelin/contracts/token/ERC1155/ERC1155.sol\":10921:10940  uint256 fromBalance */\n      0x00\n        /* \"node_modules/@openzeppelin/contracts/token/ERC1155/ERC1155.sol\":10943:10956  _balances[id] */\n      dup4\n      dup2\n      mstore\n      0x20\n      dup2\n      dup2\n      mstore\n      0x40\n      dup1\n      dup4\n      keccak256\n      sub(shl(0xa0, 0x01), 0x01)\n        /* \"node_modules/@openzeppelin/contracts/token/ERC1155/ERC1155.sol\":10943:10962  _balances[id][from] */\n      dup9\n      and\n      dup5\n      mstore\n      swap1\n      swap2\n      mstore\n      swap1\n      keccak256\n      sload\n        /* \"node_modules/@openzeppelin/contracts/token/ERC1155/ERC1155.sol\":10981:11002  fromBalance >= amount */\n      dup3\n      dup2\n      lt\n      iszero\n        /* \"node_modules/@openzeppelin/contracts/token/ERC1155/ERC1155.sol\":10973:11043  require(fromBalance >= amount, \"ERC1155: burn amount exceeds balance\") */\n      tag_273\n      jumpi\n      mload(0x40)\n      shl(0xe5, 0x461bcd)\n      dup2\n      mstore\n        /* \"#utility.yul\":14796:14798   */\n      0x20\n        /* \"node_modules/@openzeppelin/contracts/token/ERC1155/ERC1155.sol\":10973:11043  require(fromBalance >= amount, \"ERC1155: burn amount exceeds balance\") */\n      0x04\n      dup3\n      add\n        /* \"#utility.yul\":14778:14799   */\n      mstore\n        /* \"#utility.yul\":14835:14837   */\n      0x24\n        /* \"#utility.yul\":14815:14833   */\n      dup1\n      dup3\n      add\n        /* \"#utility.yul\":14808:14838   */\n      mstore\n        /* \"#utility.yul\":14874:14908   */\n      0x455243313135353a206275726e20616d6f756e7420657863656564732062616c\n        /* \"#utility.yul\":14854:14872   */\n      0x44\n      dup3\n      add\n        /* \"#utility.yul\":14847:14909   */\n      mstore\n      shl(0xe0, 0x616e6365)\n        /* \"#utility.yul\":14925:14943   */\n      0x64\n      dup3\n      add\n        /* \"#utility.yul\":14918:14952   */\n      mstore\n        /* \"#utility.yul\":14969:14988   */\n      0x84\n      add\n        /* \"node_modules/@openzeppelin/contracts/token/ERC1155/ERC1155.sol\":10973:11043  require(fromBalance >= amount, \"ERC1155: burn amount exceeds balance\") */\n      tag_102\n        /* \"#utility.yul\":14594:14994   */\n      jump\n        /* \"node_modules/@openzeppelin/contracts/token/ERC1155/ERC1155.sol\":10973:11043  require(fromBalance >= amount, \"ERC1155: burn amount exceeds balance\") */\n    tag_273:\n        /* \"node_modules/@openzeppelin/contracts/token/ERC1155/ERC1155.sol\":11079:11088  _balances */\n      0x00\n        /* \"node_modules/@openzeppelin/contracts/token/ERC1155/ERC1155.sol\":11079:11092  _balances[id] */\n      dup5\n      dup2\n      mstore\n      0x20\n      dup2\n      dup2\n      mstore\n      0x40\n      dup1\n      dup4\n      keccak256\n      sub(shl(0xa0, 0x01), 0x01)\n        /* \"node_modules/@openzeppelin/contracts/token/ERC1155/ERC1155.sol\":11079:11098  _balances[id][from] */\n      dup10\n      dup2\n      and\n      dup1\n      dup7\n      mstore\n      swap2\n      dup5\n      mstore\n      dup3\n      dup6\n      keccak256\n        /* \"node_modules/@openzeppelin/contracts/token/ERC1155/ERC1155.sol\":11101:11121  fromBalance - amount */\n      dup9\n      dup8\n      sub\n        /* \"node_modules/@openzeppelin/contracts/token/ERC1155/ERC1155.sol\":11079:11121  _balances[id][from] = fromBalance - amount */\n      swap1\n      sstore\n        /* \"node_modules/@openzeppelin/contracts/token/ERC1155/ERC1155.sol\":11150:11204  TransferSingle(operator, from, address(0), id, amount) */\n      dup3\n      mload\n        /* \"#utility.yul\":15173:15198   */\n      dup10\n      dup2\n      mstore\n        /* \"#utility.yul\":15214:15232   */\n      swap4\n      dup5\n      add\n        /* \"#utility.yul\":15207:15241   */\n      dup9\n      swap1\n      mstore\n        /* \"node_modules/@openzeppelin/contracts/token/ERC1155/ERC1155.sol\":11079:11098  _balances[id][from] */\n      swap1\n      swap3\n        /* \"node_modules/@openzeppelin/contracts/token/ERC1155/ERC1155.sol\":11150:11204  TransferSingle(operator, from, address(0), id, amount) */\n      swap1\n      dup7\n      and\n      swap2\n      0xc3d58168c5ae7397731d063d5bbf3d657854427343f4c083240f7aacaa2d0f62\n      swap2\n        /* \"#utility.yul\":15146:15164   */\n      add\n        /* \"node_modules/@openzeppelin/contracts/token/ERC1155/ERC1155.sol\":11150:11204  TransferSingle(operator, from, address(0), id, amount) */\n      mload(0x40)\n      dup1\n      swap2\n      sub\n      swap1\n      log4\n        /* \"node_modules/@openzeppelin/contracts/token/ERC1155/ERC1155.sol\":10672:11212  {... */\n      pop\n      pop\n        /* \"node_modules/@openzeppelin/contracts/token/ERC1155/ERC1155.sol\":10564:11212  function _burn(... */\n      pop\n      pop\n      pop\n      jump\t// out\n        /* \"node_modules/@openzeppelin/contracts/token/ERC1155/ERC1155.sol\":9579:10314  function _mintBatch(... */\n    tag_145:\n      sub(shl(0xa0, 0x01), 0x01)\n        /* \"node_modules/@openzeppelin/contracts/token/ERC1155/ERC1155.sol\":9757:9773  to != address(0) */\n      dup5\n      and\n        /* \"node_modules/@openzeppelin/contracts/token/ERC1155/ERC1155.sol\":9749:9811  require(to != address(0), \"ERC1155: mint to the zero address\") */\n      tag_279\n      jumpi\n      mload(0x40)\n      shl(0xe5, 0x461bcd)\n      dup2\n      mstore\n        /* \"#utility.yul\":15454:15456   */\n      0x20\n        /* \"node_modules/@openzeppelin/contracts/token/ERC1155/ERC1155.sol\":9749:9811  require(to != address(0), \"ERC1155: mint to the zero address\") */\n      0x04\n      dup3\n      add\n        /* \"#utility.yul\":15436:15457   */\n      mstore\n        /* \"#utility.yul\":15493:15495   */\n      0x21\n        /* \"#utility.yul\":15473:15491   */\n      0x24\n      dup3\n      add\n        /* \"#utility.yul\":15466:15496   */\n      mstore\n        /* \"#utility.yul\":15532:15566   */\n      0x455243313135353a206d696e7420746f20746865207a65726f20616464726573\n        /* \"#utility.yul\":15512:15530   */\n      0x44\n      dup3\n      add\n        /* \"#utility.yul\":15505:15567   */\n      mstore\n      shl(0xf8, 0x73)\n        /* \"#utility.yul\":15583:15601   */\n      0x64\n      dup3\n      add\n        /* \"#utility.yul\":15576:15607   */\n      mstore\n        /* \"#utility.yul\":15624:15643   */\n      0x84\n      add\n        /* \"node_modules/@openzeppelin/contracts/token/ERC1155/ERC1155.sol\":9749:9811  require(to != address(0), \"ERC1155: mint to the zero address\") */\n      tag_102\n        /* \"#utility.yul\":15252:15649   */\n      jump\n        /* \"node_modules/@openzeppelin/contracts/token/ERC1155/ERC1155.sol\":9749:9811  require(to != address(0), \"ERC1155: mint to the zero address\") */\n    tag_279:\n        /* \"node_modules/@openzeppelin/contracts/token/ERC1155/ERC1155.sol\":9844:9851  amounts */\n      dup2\n        /* \"node_modules/@openzeppelin/contracts/token/ERC1155/ERC1155.sol\":9844:9858  amounts.length */\n      mload\n        /* \"node_modules/@openzeppelin/contracts/token/ERC1155/ERC1155.sol\":9830:9833  ids */\n      dup4\n        /* \"node_modules/@openzeppelin/contracts/token/ERC1155/ERC1155.sol\":9830:9840  ids.length */\n      mload\n        /* \"node_modules/@openzeppelin/contracts/token/ERC1155/ERC1155.sol\":9830:9858  ids.length == amounts.length */\n      eq\n        /* \"node_modules/@openzeppelin/contracts/token/ERC1155/ERC1155.sol\":9822:9903  require(ids.length == amounts.length, \"ERC1155: ids and amounts length mismatch\") */\n      tag_282\n      jumpi\n      mload(0x40)\n      shl(0xe5, 0x461bcd)\n      dup2\n      mstore\n      0x04\n      add\n      tag_102\n      swap1\n      tag_284\n      jump\t// in\n    tag_282:\n        /* \"node_modules/@openzeppelin/contracts/utils/Context.sol\":736:746  msg.sender */\n      caller\n        /* \"node_modules/@openzeppelin/contracts/token/ERC1155/ERC1155.sol\":9916:9932  address operator */\n      0x00\n        /* \"node_modules/@openzeppelin/contracts/token/ERC1155/ERC1155.sol\":10039:10142  for (uint256 i = 0; i < ids.length; i++) {... */\n    tag_287:\n        /* \"node_modules/@openzeppelin/contracts/token/ERC1155/ERC1155.sol\":10063:10066  ids */\n      dup5\n        /* \"node_modules/@openzeppelin/contracts/token/ERC1155/ERC1155.sol\":10063:10073  ids.length */\n      mload\n        /* \"node_modules/@openzeppelin/contracts/token/ERC1155/ERC1155.sol\":10059:10060  i */\n      dup2\n        /* \"node_modules/@openzeppelin/contracts/token/ERC1155/ERC1155.sol\":10059:10073  i < ids.length */\n      lt\n        /* \"node_modules/@openzeppelin/contracts/token/ERC1155/ERC1155.sol\":10039:10142  for (uint256 i = 0; i < ids.length; i++) {... */\n      iszero\n      tag_288\n      jumpi\n        /* \"node_modules/@openzeppelin/contracts/token/ERC1155/ERC1155.sol\":10120:10127  amounts */\n      dup4\n        /* \"node_modules/@openzeppelin/contracts/token/ERC1155/ERC1155.sol\":10128:10129  i */\n      dup2\n        /* \"node_modules/@openzeppelin/contracts/token/ERC1155/ERC1155.sol\":10120:10130  amounts[i] */\n      dup2\n      mload\n      dup2\n      lt\n      tag_291\n      jumpi\n      tag_291\n      tag_172\n      jump\t// in\n    tag_291:\n      0x20\n      mul\n      0x20\n      add\n      add\n      mload\n        /* \"node_modules/@openzeppelin/contracts/token/ERC1155/ERC1155.sol\":10095:10104  _balances */\n      0x00\n        /* \"node_modules/@openzeppelin/contracts/token/ERC1155/ERC1155.sol\":10095:10112  _balances[ids[i]] */\n      dup1\n        /* \"node_modules/@openzeppelin/contracts/token/ERC1155/ERC1155.sol\":10105:10108  ids */\n      dup8\n        /* \"node_modules/@openzeppelin/contracts/token/ERC1155/ERC1155.sol\":10109:10110  i */\n      dup5\n        /* \"node_modules/@openzeppelin/contracts/token/ERC1155/ERC1155.sol\":10105:10111  ids[i] */\n      dup2\n      mload\n      dup2\n      lt\n      tag_293\n      jumpi\n      tag_293\n      tag_172\n      jump\t// in\n    tag_293:\n      0x20\n      mul\n      0x20\n      add\n      add\n      mload\n        /* \"node_modules/@openzeppelin/contracts/token/ERC1155/ERC1155.sol\":10095:10112  _balances[ids[i]] */\n      dup2\n      mstore\n      0x20\n      add\n      swap1\n      dup2\n      mstore\n      0x20\n      add\n      0x00\n      keccak256\n        /* \"node_modules/@openzeppelin/contracts/token/ERC1155/ERC1155.sol\":10095:10116  _balances[ids[i]][to] */\n      0x00\n        /* \"node_modules/@openzeppelin/contracts/token/ERC1155/ERC1155.sol\":10113:10115  to */\n      dup9\n      sub(shl(0xa0, 0x01), 0x01)\n        /* \"node_modules/@openzeppelin/contracts/token/ERC1155/ERC1155.sol\":10095:10116  _balances[ids[i]][to] */\n      and\n      sub(shl(0xa0, 0x01), 0x01)\n      and\n      dup2\n      mstore\n      0x20\n      add\n      swap1\n      dup2\n      mstore\n      0x20\n      add\n      0x00\n      keccak256\n      0x00\n        /* \"node_modules/@openzeppelin/contracts/token/ERC1155/ERC1155.sol\":10095:10130  _balances[ids[i]][to] += amounts[i] */\n      dup3\n      dup3\n      sload\n      tag_294\n      swap2\n      swap1\n      tag_147\n      jump\t// in\n    tag_294:\n      swap1\n      swap2\n      sstore\n      pop\n        /* \"node_modules/@openzeppelin/contracts/token/ERC1155/ERC1155.sol\":10075:10078  i++ */\n      dup2\n      swap1\n      pop\n      tag_295\n      dup2\n      tag_178\n      jump\t// in\n    tag_295:\n      swap2\n      pop\n      pop\n        /* \"node_modules/@openzeppelin/contracts/token/ERC1155/ERC1155.sol\":10039:10142  for (uint256 i = 0; i < ids.length; i++) {... */\n      jump(tag_287)\n    tag_288:\n      pop\n        /* \"node_modules/@openzeppelin/contracts/token/ERC1155/ERC1155.sol\":10195:10197  to */\n      dup5\n      sub(shl(0xa0, 0x01), 0x01)\n        /* \"node_modules/@openzeppelin/contracts/token/ERC1155/ERC1155.sol\":10159:10212  TransferBatch(operator, address(0), to, ids, amounts) */\n      and\n        /* \"node_modules/@openzeppelin/contracts/token/ERC1155/ERC1155.sol\":10191:10192  0 */\n      0x00\n      sub(shl(0xa0, 0x01), 0x01)\n        /* \"node_modules/@openzeppelin/contracts/token/ERC1155/ERC1155.sol\":10159:10212  TransferBatch(operator, address(0), to, ids, amounts) */\n      and\n        /* \"node_modules/@openzeppelin/contracts/token/ERC1155/ERC1155.sol\":10173:10181  operator */\n      dup3\n      sub(shl(0xa0, 0x01), 0x01)\n        /* \"node_modules/@openzeppelin/contracts/token/ERC1155/ERC1155.sol\":10159:10212  TransferBatch(operator, address(0), to, ids, amounts) */\n      and\n      0x4a39dc06d4c0dbc64b70af90fd698a233a518aa5d07e595d983b8c0526c8f7fb\n        /* \"node_modules/@openzeppelin/contracts/token/ERC1155/ERC1155.sol\":10199:10202  ids */\n      dup8\n        /* \"node_modules/@openzeppelin/contracts/token/ERC1155/ERC1155.sol\":10204:10211  amounts */\n      dup8\n        /* \"node_modules/@openzeppelin/contracts/token/ERC1155/ERC1155.sol\":10159:10212  TransferBatch(operator, address(0), to, ids, amounts) */\n      mload(0x40)\n      tag_296\n      swap3\n      swap2\n      swap1\n      tag_297\n      jump\t// in\n    tag_296:\n      mload(0x40)\n      dup1\n      swap2\n      sub\n      swap1\n      log4\n        /* \"node_modules/@openzeppelin/contracts/token/ERC1155/ERC1155.sol\":10225:10306  _doSafeBatchTransferAcceptanceCheck(operator, address(0), to, ids, amounts, data) */\n      tag_156\n        /* \"node_modules/@openzeppelin/contracts/token/ERC1155/ERC1155.sol\":10261:10269  operator */\n      dup2\n        /* \"node_modules/@openzeppelin/contracts/token/ERC1155/ERC1155.sol\":10279:10280  0 */\n      0x00\n        /* \"node_modules/@openzeppelin/contracts/token/ERC1155/ERC1155.sol\":10283:10285  to */\n      dup8\n        /* \"node_modules/@openzeppelin/contracts/token/ERC1155/ERC1155.sol\":10287:10290  ids */\n      dup8\n        /* \"node_modules/@openzeppelin/contracts/token/ERC1155/ERC1155.sol\":10292:10299  amounts */\n      dup8\n        /* \"node_modules/@openzeppelin/contracts/token/ERC1155/ERC1155.sol\":10301:10305  data */\n      dup8\n        /* \"node_modules/@openzeppelin/contracts/token/ERC1155/ERC1155.sol\":10225:10260  _doSafeBatchTransferAcceptanceCheck */\n      tag_299\n        /* \"node_modules/@openzeppelin/contracts/token/ERC1155/ERC1155.sol\":10225:10306  _doSafeBatchTransferAcceptanceCheck(operator, address(0), to, ids, amounts, data) */\n      jump\t// in\n        /* \"node_modules/@openzeppelin/contracts/token/ERC1155/ERC1155.sol\":6262:7336  function _safeBatchTransferFrom(... */\n    tag_157:\n        /* \"node_modules/@openzeppelin/contracts/token/ERC1155/ERC1155.sol\":6489:6496  amounts */\n      dup2\n        /* \"node_modules/@openzeppelin/contracts/token/ERC1155/ERC1155.sol\":6489:6503  amounts.length */\n      mload\n        /* \"node_modules/@openzeppelin/contracts/token/ERC1155/ERC1155.sol\":6475:6478  ids */\n      dup4\n        /* \"node_modules/@openzeppelin/contracts/token/ERC1155/ERC1155.sol\":6475:6485  ids.length */\n      mload\n        /* \"node_modules/@openzeppelin/contracts/token/ERC1155/ERC1155.sol\":6475:6503  ids.length == amounts.length */\n      eq\n        /* \"node_modules/@openzeppelin/contracts/token/ERC1155/ERC1155.sol\":6467:6548  require(ids.length == amounts.length, \"ERC1155: ids and amounts length mismatch\") */\n      tag_301\n      jumpi\n      mload(0x40)\n      shl(0xe5, 0x461bcd)\n      dup2\n      mstore\n      0x04\n      add\n      tag_102\n      swap1\n      tag_284\n      jump\t// in\n    tag_301:\n      sub(shl(0xa0, 0x01), 0x01)\n        /* \"node_modules/@openzeppelin/contracts/token/ERC1155/ERC1155.sol\":6567:6583  to != address(0) */\n      dup5\n      and\n        /* \"node_modules/@openzeppelin/contracts/token/ERC1155/ERC1155.sol\":6559:6625  require(to != address(0), \"ERC1155: transfer to the zero address\") */\n      tag_303\n      jumpi\n      mload(0x40)\n      shl(0xe5, 0x461bcd)\n      dup2\n      mstore\n      0x04\n      add\n      tag_102\n      swap1\n      tag_305\n      jump\t// in\n    tag_303:\n        /* \"node_modules/@openzeppelin/contracts/utils/Context.sol\":736:746  msg.sender */\n      caller\n        /* \"node_modules/@openzeppelin/contracts/token/ERC1155/ERC1155.sol\":6638:6654  address operator */\n      0x00\n        /* \"node_modules/@openzeppelin/contracts/token/ERC1155/ERC1155.sol\":6755:7176  for (uint256 i = 0; i < ids.length; ++i) {... */\n    tag_308:\n        /* \"node_modules/@openzeppelin/contracts/token/ERC1155/ERC1155.sol\":6779:6782  ids */\n      dup5\n        /* \"node_modules/@openzeppelin/contracts/token/ERC1155/ERC1155.sol\":6779:6789  ids.length */\n      mload\n        /* \"node_modules/@openzeppelin/contracts/token/ERC1155/ERC1155.sol\":6775:6776  i */\n      dup2\n        /* \"node_modules/@openzeppelin/contracts/token/ERC1155/ERC1155.sol\":6775:6789  i < ids.length */\n      lt\n        /* \"node_modules/@openzeppelin/contracts/token/ERC1155/ERC1155.sol\":6755:7176  for (uint256 i = 0; i < ids.length; ++i) {... */\n      iszero\n      tag_309\n      jumpi\n        /* \"node_modules/@openzeppelin/contracts/token/ERC1155/ERC1155.sol\":6811:6821  uint256 id */\n      0x00\n        /* \"node_modules/@openzeppelin/contracts/token/ERC1155/ERC1155.sol\":6824:6827  ids */\n      dup6\n        /* \"node_modules/@openzeppelin/contracts/token/ERC1155/ERC1155.sol\":6828:6829  i */\n      dup3\n        /* \"node_modules/@openzeppelin/contracts/token/ERC1155/ERC1155.sol\":6824:6830  ids[i] */\n      dup2\n      mload\n      dup2\n      lt\n      tag_312\n      jumpi\n      tag_312\n      tag_172\n      jump\t// in\n    tag_312:\n      0x20\n      mul\n      0x20\n      add\n      add\n      mload\n        /* \"node_modules/@openzeppelin/contracts/token/ERC1155/ERC1155.sol\":6811:6830  uint256 id = ids[i] */\n      swap1\n      pop\n        /* \"node_modules/@openzeppelin/contracts/token/ERC1155/ERC1155.sol\":6845:6859  uint256 amount */\n      0x00\n        /* \"node_modules/@openzeppelin/contracts/token/ERC1155/ERC1155.sol\":6862:6869  amounts */\n      dup6\n        /* \"node_modules/@openzeppelin/contracts/token/ERC1155/ERC1155.sol\":6870:6871  i */\n      dup4\n        /* \"node_modules/@openzeppelin/contracts/token/ERC1155/ERC1155.sol\":6862:6872  amounts[i] */\n      dup2\n      mload\n      dup2\n      lt\n      tag_314\n      jumpi\n      tag_314\n      tag_172\n      jump\t// in\n    tag_314:\n      0x20\n      swap1\n      dup2\n      mul\n      swap2\n      swap1\n      swap2\n      add\n      dup2\n      add\n      mload\n        /* \"node_modules/@openzeppelin/contracts/token/ERC1155/ERC1155.sol\":6889:6908  uint256 fromBalance */\n      0x00\n        /* \"node_modules/@openzeppelin/contracts/token/ERC1155/ERC1155.sol\":6911:6924  _balances[id] */\n      dup5\n      dup2\n      mstore\n      dup1\n      dup4\n      mstore\n      0x40\n      dup1\n      dup3\n      keccak256\n      sub(shl(0xa0, 0x01), 0x01)\n        /* \"node_modules/@openzeppelin/contracts/token/ERC1155/ERC1155.sol\":6911:6930  _balances[id][from] */\n      dup15\n      and\n      dup4\n      mstore\n      swap1\n      swap4\n      mstore\n      swap2\n      swap1\n      swap2\n      keccak256\n      sload\n        /* \"node_modules/@openzeppelin/contracts/token/ERC1155/ERC1155.sol\":6862:6872  amounts[i] */\n      swap1\n      swap2\n      pop\n        /* \"node_modules/@openzeppelin/contracts/token/ERC1155/ERC1155.sol\":6953:6974  fromBalance >= amount */\n      dup2\n      dup2\n      lt\n      iszero\n        /* \"node_modules/@openzeppelin/contracts/token/ERC1155/ERC1155.sol\":6945:7021  require(fromBalance >= amount, \"ERC1155: insufficient balance for transfer\") */\n      tag_315\n      jumpi\n      mload(0x40)\n      shl(0xe5, 0x461bcd)\n      dup2\n      mstore\n      0x04\n      add\n      tag_102\n      swap1\n      tag_317\n      jump\t// in\n    tag_315:\n        /* \"node_modules/@openzeppelin/contracts/token/ERC1155/ERC1155.sol\":7065:7074  _balances */\n      0x00\n        /* \"node_modules/@openzeppelin/contracts/token/ERC1155/ERC1155.sol\":7065:7078  _balances[id] */\n      dup4\n      dup2\n      mstore\n      0x20\n      dup2\n      dup2\n      mstore\n      0x40\n      dup1\n      dup4\n      keccak256\n      sub(shl(0xa0, 0x01), 0x01)\n        /* \"node_modules/@openzeppelin/contracts/token/ERC1155/ERC1155.sol\":7065:7084  _balances[id][from] */\n      dup15\n      dup2\n      and\n      dup6\n      mstore\n      swap3\n      mstore\n      dup1\n      dup4\n      keccak256\n        /* \"node_modules/@openzeppelin/contracts/token/ERC1155/ERC1155.sol\":7087:7107  fromBalance - amount */\n      dup6\n      dup6\n      sub\n        /* \"node_modules/@openzeppelin/contracts/token/ERC1155/ERC1155.sol\":7065:7107  _balances[id][from] = fromBalance - amount */\n      swap1\n      sstore\n        /* \"node_modules/@openzeppelin/contracts/token/ERC1155/ERC1155.sol\":7137:7154  _balances[id][to] */\n      swap1\n      dup12\n      and\n      dup3\n      mstore\n      dup2\n      keccak256\n        /* \"node_modules/@openzeppelin/contracts/token/ERC1155/ERC1155.sol\":7137:7164  _balances[id][to] += amount */\n      dup1\n      sload\n        /* \"node_modules/@openzeppelin/contracts/token/ERC1155/ERC1155.sol\":7087:7107  fromBalance - amount */\n      dup5\n      swap3\n        /* \"node_modules/@openzeppelin/contracts/token/ERC1155/ERC1155.sol\":7065:7074  _balances */\n      swap1\n        /* \"node_modules/@openzeppelin/contracts/token/ERC1155/ERC1155.sol\":7137:7164  _balances[id][to] += amount */\n      tag_318\n      swap1\n        /* \"node_modules/@openzeppelin/contracts/token/ERC1155/ERC1155.sol\":7087:7107  fromBalance - amount */\n      dup5\n      swap1\n        /* \"node_modules/@openzeppelin/contracts/token/ERC1155/ERC1155.sol\":7137:7164  _balances[id][to] += amount */\n      tag_147\n      jump\t// in\n    tag_318:\n      swap3\n      pop\n      pop\n      dup2\n      swap1\n      sstore\n      pop\n        /* \"node_modules/@openzeppelin/contracts/token/ERC1155/ERC1155.sol\":6796:7176  {... */\n      pop\n      pop\n      pop\n        /* \"node_modules/@openzeppelin/contracts/token/ERC1155/ERC1155.sol\":6791:6794  ++i */\n      dup1\n      tag_319\n      swap1\n      tag_178\n      jump\t// in\n    tag_319:\n      swap1\n      pop\n        /* \"node_modules/@openzeppelin/contracts/token/ERC1155/ERC1155.sol\":6755:7176  for (uint256 i = 0; i < ids.length; ++i) {... */\n      jump(tag_308)\n    tag_309:\n      pop\n        /* \"node_modules/@openzeppelin/contracts/token/ERC1155/ERC1155.sol\":7223:7225  to */\n      dup5\n      sub(shl(0xa0, 0x01), 0x01)\n        /* \"node_modules/@openzeppelin/contracts/token/ERC1155/ERC1155.sol\":7193:7240  TransferBatch(operator, from, to, ids, amounts) */\n      and\n        /* \"node_modules/@openzeppelin/contracts/token/ERC1155/ERC1155.sol\":7217:7221  from */\n      dup7\n      sub(shl(0xa0, 0x01), 0x01)\n        /* \"node_modules/@openzeppelin/contracts/token/ERC1155/ERC1155.sol\":7193:7240  TransferBatch(operator, from, to, ids, amounts) */\n      and\n        /* \"node_modules/@openzeppelin/contracts/token/ERC1155/ERC1155.sol\":7207:7215  operator */\n      dup3\n      sub(shl(0xa0, 0x01), 0x01)\n        /* \"node_modules/@openzeppelin/contracts/token/ERC1155/ERC1155.sol\":7193:7240  TransferBatch(operator, from, to, ids, amounts) */\n      and\n      0x4a39dc06d4c0dbc64b70af90fd698a233a518aa5d07e595d983b8c0526c8f7fb\n        /* \"node_modules/@openzeppelin/contracts/token/ERC1155/ERC1155.sol\":7227:7230  ids */\n      dup8\n        /* \"node_modules/@openzeppelin/contracts/token/ERC1155/ERC1155.sol\":7232:7239  amounts */\n      dup8\n        /* \"node_modules/@openzeppelin/contracts/token/ERC1155/ERC1155.sol\":7193:7240  TransferBatch(operator, from, to, ids, amounts) */\n      mload(0x40)\n      tag_320\n      swap3\n      swap2\n      swap1\n      tag_297\n      jump\t// in\n    tag_320:\n      mload(0x40)\n      dup1\n      swap2\n      sub\n      swap1\n      log4\n        /* \"node_modules/@openzeppelin/contracts/token/ERC1155/ERC1155.sol\":7253:7328  _doSafeBatchTransferAcceptanceCheck(operator, from, to, ids, amounts, data) */\n      tag_321\n        /* \"node_modules/@openzeppelin/contracts/token/ERC1155/ERC1155.sol\":7289:7297  operator */\n      dup2\n        /* \"node_modules/@openzeppelin/contracts/token/ERC1155/ERC1155.sol\":7299:7303  from */\n      dup8\n        /* \"node_modules/@openzeppelin/contracts/token/ERC1155/ERC1155.sol\":7305:7307  to */\n      dup8\n        /* \"node_modules/@openzeppelin/contracts/token/ERC1155/ERC1155.sol\":7309:7312  ids */\n      dup8\n        /* \"node_modules/@openzeppelin/contracts/token/ERC1155/ERC1155.sol\":7314:7321  amounts */\n      dup8\n        /* \"node_modules/@openzeppelin/contracts/token/ERC1155/ERC1155.sol\":7323:7327  data */\n      dup8\n        /* \"node_modules/@openzeppelin/contracts/token/ERC1155/ERC1155.sol\":7253:7288  _doSafeBatchTransferAcceptanceCheck */\n      tag_299\n        /* \"node_modules/@openzeppelin/contracts/token/ERC1155/ERC1155.sol\":7253:7328  _doSafeBatchTransferAcceptanceCheck(operator, from, to, ids, amounts, data) */\n      jump\t// in\n    tag_321:\n        /* \"node_modules/@openzeppelin/contracts/token/ERC1155/ERC1155.sol\":6456:7336  {... */\n      pop\n        /* \"node_modules/@openzeppelin/contracts/token/ERC1155/ERC1155.sol\":6262:7336  function _safeBatchTransferFrom(... */\n      pop\n      pop\n      pop\n      pop\n      pop\n      jump\t// out\n        /* \"node_modules/@openzeppelin/contracts/access/Ownable.sol\":2340:2531  function _transferOwnership(address newOwner) internal virtual {... */\n    tag_186:\n        /* \"node_modules/@openzeppelin/contracts/access/Ownable.sol\":2433:2439  _owner */\n      0x03\n      dup1\n      sload\n      sub(shl(0xa0, 0x01), 0x01)\n        /* \"node_modules/@openzeppelin/contracts/access/Ownable.sol\":2450:2467  _owner = newOwner */\n      dup4\n      dup2\n      and\n      not(sub(shl(0xa0, 0x01), 0x01))\n      dup4\n      and\n      dup2\n      or\n      swap1\n      swap4\n      sstore\n        /* \"node_modules/@openzeppelin/contracts/access/Ownable.sol\":2483:2523  OwnershipTransferred(oldOwner, newOwner) */\n      mload(0x40)\n        /* \"node_modules/@openzeppelin/contracts/access/Ownable.sol\":2433:2439  _owner */\n      swap2\n      and\n      swap2\n        /* \"node_modules/@openzeppelin/contracts/access/Ownable.sol\":2450:2467  _owner = newOwner */\n      swap1\n        /* \"node_modules/@openzeppelin/contracts/access/Ownable.sol\":2433:2439  _owner */\n      dup3\n      swap1\n        /* \"node_modules/@openzeppelin/contracts/access/Ownable.sol\":2483:2523  OwnershipTransferred(oldOwner, newOwner) */\n      0x8be0079c531659141344cd1fd0a4f28419497f9722a3daafe3b4186f6b6457e0\n      swap1\n        /* \"node_modules/@openzeppelin/contracts/access/Ownable.sol\":2414:2430  address oldOwner */\n      0x00\n      swap1\n        /* \"node_modules/@openzeppelin/contracts/access/Ownable.sol\":2483:2523  OwnershipTransferred(oldOwner, newOwner) */\n      log3\n        /* \"node_modules/@openzeppelin/contracts/access/Ownable.sol\":2403:2531  {... */\n      pop\n        /* \"node_modules/@openzeppelin/contracts/access/Ownable.sol\":2340:2531  function _transferOwnership(address newOwner) internal virtual {... */\n      pop\n      jump\t// out\n        /* \"node_modules/@openzeppelin/contracts/token/ERC1155/ERC1155.sol\":12448:12779  function _setApprovalForAll(... */\n    tag_236:\n        /* \"node_modules/@openzeppelin/contracts/token/ERC1155/ERC1155.sol\":12603:12611  operator */\n      dup2\n      sub(shl(0xa0, 0x01), 0x01)\n        /* \"node_modules/@openzeppelin/contracts/token/ERC1155/ERC1155.sol\":12594:12611  owner != operator */\n      and\n        /* \"node_modules/@openzeppelin/contracts/token/ERC1155/ERC1155.sol\":12594:12599  owner */\n      dup4\n      sub(shl(0xa0, 0x01), 0x01)\n        /* \"node_modules/@openzeppelin/contracts/token/ERC1155/ERC1155.sol\":12594:12611  owner != operator */\n      and\n      sub\n        /* \"node_modules/@openzeppelin/contracts/token/ERC1155/ERC1155.sol\":12586:12657  require(owner != operator, \"ERC1155: setting approval status for self\") */\n      tag_324\n      jumpi\n      mload(0x40)\n      shl(0xe5, 0x461bcd)\n      dup2\n      mstore\n        /* \"#utility.yul\":17552:17554   */\n      0x20\n        /* \"node_modules/@openzeppelin/contracts/token/ERC1155/ERC1155.sol\":12586:12657  require(owner != operator, \"ERC1155: setting approval status for self\") */\n      0x04\n      dup3\n      add\n        /* \"#utility.yul\":17534:17555   */\n      mstore\n        /* \"#utility.yul\":17591:17593   */\n      0x29\n        /* \"#utility.yul\":17571:17589   */\n      0x24\n      dup3\n      add\n        /* \"#utility.yul\":17564:17594   */\n      mstore\n        /* \"#utility.yul\":17630:17664   */\n      0x455243313135353a2073657474696e6720617070726f76616c20737461747573\n        /* \"#utility.yul\":17610:17628   */\n      0x44\n      dup3\n      add\n        /* \"#utility.yul\":17603:17665   */\n      mstore\n      shl(0xb9, 0x103337b91039b2b633)\n        /* \"#utility.yul\":17681:17699   */\n      0x64\n      dup3\n      add\n        /* \"#utility.yul\":17674:17713   */\n      mstore\n        /* \"#utility.yul\":17730:17749   */\n      0x84\n      add\n        /* \"node_modules/@openzeppelin/contracts/token/ERC1155/ERC1155.sol\":12586:12657  require(owner != operator, \"ERC1155: setting approval status for self\") */\n      tag_102\n        /* \"#utility.yul\":17350:17755   */\n      jump\n        /* \"node_modules/@openzeppelin/contracts/token/ERC1155/ERC1155.sol\":12586:12657  require(owner != operator, \"ERC1155: setting approval status for self\") */\n    tag_324:\n      sub(shl(0xa0, 0x01), 0x01)\n        /* \"node_modules/@openzeppelin/contracts/token/ERC1155/ERC1155.sol\":12668:12693  _operatorApprovals[owner] */\n      dup4\n      dup2\n      and\n      0x00\n      dup2\n      dup2\n      mstore\n        /* \"node_modules/@openzeppelin/contracts/token/ERC1155/ERC1155.sol\":12668:12686  _operatorApprovals */\n      0x01\n        /* \"node_modules/@openzeppelin/contracts/token/ERC1155/ERC1155.sol\":12668:12693  _operatorApprovals[owner] */\n      0x20\n      swap1\n      dup2\n      mstore\n      0x40\n      dup1\n      dup4\n      keccak256\n        /* \"node_modules/@openzeppelin/contracts/token/ERC1155/ERC1155.sol\":12668:12703  _operatorApprovals[owner][operator] */\n      swap5\n      dup8\n      and\n      dup1\n      dup5\n      mstore\n      swap5\n      dup3\n      mstore\n      swap2\n      dup3\n      swap1\n      keccak256\n        /* \"node_modules/@openzeppelin/contracts/token/ERC1155/ERC1155.sol\":12668:12714  _operatorApprovals[owner][operator] = approved */\n      dup1\n      sload\n      not(0xff)\n      and\n      dup7\n      iszero\n      iszero\n      swap1\n      dup2\n      or\n      swap1\n      swap2\n      sstore\n        /* \"node_modules/@openzeppelin/contracts/token/ERC1155/ERC1155.sol\":12730:12771  ApprovalForAll(owner, operator, approved) */\n      swap2\n      mload\n        /* \"#utility.yul\":1159:1200   */\n      swap2\n      dup3\n      mstore\n        /* \"node_modules/@openzeppelin/contracts/token/ERC1155/ERC1155.sol\":12730:12771  ApprovalForAll(owner, operator, approved) */\n      0x17307eab39ab6107e8899845ad3d59bd9653f200f220920489ca2b5937696c31\n      swap2\n        /* \"#utility.yul\":1132:1150   */\n      add\n        /* \"node_modules/@openzeppelin/contracts/token/ERC1155/ERC1155.sol\":12730:12771  ApprovalForAll(owner, operator, approved) */\n      mload(0x40)\n      dup1\n      swap2\n      sub\n      swap1\n      log3\n        /* \"node_modules/@openzeppelin/contracts/token/ERC1155/ERC1155.sol\":12448:12779  function _setApprovalForAll(... */\n      pop\n      pop\n      pop\n      jump\t// out\n        /* \"node_modules/@openzeppelin/contracts/token/ERC1155/ERC1155.sol\":5084:5904  function _safeTransferFrom(... */\n    tag_247:\n      sub(shl(0xa0, 0x01), 0x01)\n        /* \"node_modules/@openzeppelin/contracts/token/ERC1155/ERC1155.sol\":5272:5288  to != address(0) */\n      dup5\n      and\n        /* \"node_modules/@openzeppelin/contracts/token/ERC1155/ERC1155.sol\":5264:5330  require(to != address(0), \"ERC1155: transfer to the zero address\") */\n      tag_329\n      jumpi\n      mload(0x40)\n      shl(0xe5, 0x461bcd)\n      dup2\n      mstore\n      0x04\n      add\n      tag_102\n      swap1\n      tag_305\n      jump\t// in\n    tag_329:\n        /* \"node_modules/@openzeppelin/contracts/utils/Context.sol\":736:746  msg.sender */\n      caller\n        /* \"node_modules/@openzeppelin/contracts/token/ERC1155/ERC1155.sol\":5387:5483  _beforeTokenTransfer(operator, from, to, _asSingletonArray(id), _asSingletonArray(amount), data) */\n      tag_332\n        /* \"node_modules/@openzeppelin/contracts/utils/Context.sol\":736:746  msg.sender */\n      dup2\n        /* \"node_modules/@openzeppelin/contracts/token/ERC1155/ERC1155.sol\":5418:5422  from */\n      dup8\n        /* \"node_modules/@openzeppelin/contracts/token/ERC1155/ERC1155.sol\":5424:5426  to */\n      dup8\n        /* \"node_modules/@openzeppelin/contracts/token/ERC1155/ERC1155.sol\":5428:5449  _asSingletonArray(id) */\n      tag_333\n        /* \"node_modules/@openzeppelin/contracts/token/ERC1155/ERC1155.sol\":5446:5448  id */\n      dup9\n        /* \"node_modules/@openzeppelin/contracts/token/ERC1155/ERC1155.sol\":5428:5445  _asSingletonArray */\n      tag_270\n        /* \"node_modules/@openzeppelin/contracts/token/ERC1155/ERC1155.sol\":5428:5449  _asSingletonArray(id) */\n      jump\t// in\n    tag_333:\n        /* \"node_modules/@openzeppelin/contracts/token/ERC1155/ERC1155.sol\":5451:5476  _asSingletonArray(amount) */\n      tag_156\n        /* \"node_modules/@openzeppelin/contracts/token/ERC1155/ERC1155.sol\":5469:5475  amount */\n      dup9\n        /* \"node_modules/@openzeppelin/contracts/token/ERC1155/ERC1155.sol\":5451:5468  _asSingletonArray */\n      tag_270\n        /* \"node_modules/@openzeppelin/contracts/token/ERC1155/ERC1155.sol\":5451:5476  _asSingletonArray(amount) */\n      jump\t// in\n        /* \"node_modules/@openzeppelin/contracts/token/ERC1155/ERC1155.sol\":5387:5483  _beforeTokenTransfer(operator, from, to, _asSingletonArray(id), _asSingletonArray(amount), data) */\n    tag_332:\n        /* \"node_modules/@openzeppelin/contracts/token/ERC1155/ERC1155.sol\":5496:5515  uint256 fromBalance */\n      0x00\n        /* \"node_modules/@openzeppelin/contracts/token/ERC1155/ERC1155.sol\":5518:5531  _balances[id] */\n      dup5\n      dup2\n      mstore\n      0x20\n      dup2\n      dup2\n      mstore\n      0x40\n      dup1\n      dup4\n      keccak256\n      sub(shl(0xa0, 0x01), 0x01)\n        /* \"node_modules/@openzeppelin/contracts/token/ERC1155/ERC1155.sol\":5518:5537  _balances[id][from] */\n      dup11\n      and\n      dup5\n      mstore\n      swap1\n      swap2\n      mstore\n      swap1\n      keccak256\n      sload\n        /* \"node_modules/@openzeppelin/contracts/token/ERC1155/ERC1155.sol\":5556:5577  fromBalance >= amount */\n      dup4\n      dup2\n      lt\n      iszero\n        /* \"node_modules/@openzeppelin/contracts/token/ERC1155/ERC1155.sol\":5548:5624  require(fromBalance >= amount, \"ERC1155: insufficient balance for transfer\") */\n      tag_335\n      jumpi\n      mload(0x40)\n      shl(0xe5, 0x461bcd)\n      dup2\n      mstore\n      0x04\n      add\n      tag_102\n      swap1\n      tag_317\n      jump\t// in\n    tag_335:\n        /* \"node_modules/@openzeppelin/contracts/token/ERC1155/ERC1155.sol\":5660:5669  _balances */\n      0x00\n        /* \"node_modules/@openzeppelin/contracts/token/ERC1155/ERC1155.sol\":5660:5673  _balances[id] */\n      dup6\n      dup2\n      mstore\n      0x20\n      dup2\n      dup2\n      mstore\n      0x40\n      dup1\n      dup4\n      keccak256\n      sub(shl(0xa0, 0x01), 0x01)\n        /* \"node_modules/@openzeppelin/contracts/token/ERC1155/ERC1155.sol\":5660:5679  _balances[id][from] */\n      dup12\n      dup2\n      and\n      dup6\n      mstore\n      swap3\n      mstore\n      dup1\n      dup4\n      keccak256\n        /* \"node_modules/@openzeppelin/contracts/token/ERC1155/ERC1155.sol\":5682:5702  fromBalance - amount */\n      dup8\n      dup6\n      sub\n        /* \"node_modules/@openzeppelin/contracts/token/ERC1155/ERC1155.sol\":5660:5702  _balances[id][from] = fromBalance - amount */\n      swap1\n      sstore\n        /* \"node_modules/@openzeppelin/contracts/token/ERC1155/ERC1155.sol\":5724:5741  _balances[id][to] */\n      swap1\n      dup9\n      and\n      dup3\n      mstore\n      dup2\n      keccak256\n        /* \"node_modules/@openzeppelin/contracts/token/ERC1155/ERC1155.sol\":5724:5751  _balances[id][to] += amount */\n      dup1\n      sload\n        /* \"node_modules/@openzeppelin/contracts/token/ERC1155/ERC1155.sol\":5682:5702  fromBalance - amount */\n      dup7\n      swap3\n        /* \"node_modules/@openzeppelin/contracts/token/ERC1155/ERC1155.sol\":5660:5669  _balances */\n      swap1\n        /* \"node_modules/@openzeppelin/contracts/token/ERC1155/ERC1155.sol\":5724:5751  _balances[id][to] += amount */\n      tag_337\n      swap1\n        /* \"node_modules/@openzeppelin/contracts/token/ERC1155/ERC1155.sol\":5682:5702  fromBalance - amount */\n      dup5\n      swap1\n        /* \"node_modules/@openzeppelin/contracts/token/ERC1155/ERC1155.sol\":5724:5751  _balances[id][to] += amount */\n      tag_147\n      jump\t// in\n    tag_337:\n      swap1\n      swap2\n      sstore\n      pop\n      pop\n        /* \"node_modules/@openzeppelin/contracts/token/ERC1155/ERC1155.sol\":5769:5815  TransferSingle(operator, from, to, id, amount) */\n      0x40\n      dup1\n      mload\n        /* \"#utility.yul\":15173:15198   */\n      dup7\n      dup2\n      mstore\n        /* \"#utility.yul\":15229:15231   */\n      0x20\n        /* \"#utility.yul\":15214:15232   */\n      dup2\n      add\n        /* \"#utility.yul\":15207:15241   */\n      dup7\n      swap1\n      mstore\n      sub(shl(0xa0, 0x01), 0x01)\n        /* \"node_modules/@openzeppelin/contracts/token/ERC1155/ERC1155.sol\":5769:5815  TransferSingle(operator, from, to, id, amount) */\n      dup1\n      dup10\n      and\n      swap3\n      dup11\n      dup3\n      and\n      swap3\n      swap2\n      dup7\n      and\n      swap2\n      0xc3d58168c5ae7397731d063d5bbf3d657854427343f4c083240f7aacaa2d0f62\n      swap2\n        /* \"#utility.yul\":15146:15164   */\n      add\n        /* \"node_modules/@openzeppelin/contracts/token/ERC1155/ERC1155.sol\":5769:5815  TransferSingle(operator, from, to, id, amount) */\n      mload(0x40)\n      dup1\n      swap2\n      sub\n      swap1\n      log4\n        /* \"node_modules/@openzeppelin/contracts/token/ERC1155/ERC1155.sol\":5828:5896  _doSafeTransferAcceptanceCheck(operator, from, to, id, amount, data) */\n      tag_339\n        /* \"node_modules/@openzeppelin/contracts/token/ERC1155/ERC1155.sol\":5859:5867  operator */\n      dup3\n        /* \"node_modules/@openzeppelin/contracts/token/ERC1155/ERC1155.sol\":5869:5873  from */\n      dup9\n        /* \"node_modules/@openzeppelin/contracts/token/ERC1155/ERC1155.sol\":5875:5877  to */\n      dup9\n        /* \"node_modules/@openzeppelin/contracts/token/ERC1155/ERC1155.sol\":5879:5881  id */\n      dup9\n        /* \"node_modules/@openzeppelin/contracts/token/ERC1155/ERC1155.sol\":5883:5889  amount */\n      dup9\n        /* \"node_modules/@openzeppelin/contracts/token/ERC1155/ERC1155.sol\":5891:5895  data */\n      dup9\n        /* \"node_modules/@openzeppelin/contracts/token/ERC1155/ERC1155.sol\":5828:5858  _doSafeTransferAcceptanceCheck */\n      tag_340\n        /* \"node_modules/@openzeppelin/contracts/token/ERC1155/ERC1155.sol\":5828:5896  _doSafeTransferAcceptanceCheck(operator, from, to, id, amount, data) */\n      jump\t// in\n    tag_339:\n        /* \"node_modules/@openzeppelin/contracts/token/ERC1155/ERC1155.sol\":5253:5904  {... */\n      pop\n      pop\n        /* \"node_modules/@openzeppelin/contracts/token/ERC1155/ERC1155.sol\":5084:5904  function _safeTransferFrom(... */\n      pop\n      pop\n      pop\n      pop\n      pop\n      jump\t// out\n        /* \"node_modules/@openzeppelin/contracts/token/ERC1155/ERC1155.sol\":15537:15735  function _asSingletonArray(uint256 element) private pure returns (uint256[] memory) {... */\n    tag_270:\n        /* \"node_modules/@openzeppelin/contracts/token/ERC1155/ERC1155.sol\":15657:15673  new uint256[](1) */\n      0x40\n      dup1\n      mload\n        /* \"node_modules/@openzeppelin/contracts/token/ERC1155/ERC1155.sol\":15671:15672  1 */\n      0x01\n        /* \"node_modules/@openzeppelin/contracts/token/ERC1155/ERC1155.sol\":15657:15673  new uint256[](1) */\n      dup1\n      dup3\n      mstore\n      dup2\n      dup4\n      add\n      swap1\n      swap3\n      mstore\n        /* \"node_modules/@openzeppelin/contracts/token/ERC1155/ERC1155.sol\":15603:15619  uint256[] memory */\n      0x60\n      swap2\n        /* \"node_modules/@openzeppelin/contracts/token/ERC1155/ERC1155.sol\":15632:15654  uint256[] memory array */\n      0x00\n      swap2\n        /* \"node_modules/@openzeppelin/contracts/token/ERC1155/ERC1155.sol\":15657:15673  new uint256[](1) */\n      swap1\n      0x20\n      dup1\n      dup4\n      add\n      swap1\n      dup1\n      calldatasize\n      dup4\n      calldatacopy\n      add\n      swap1\n      pop\n      pop\n        /* \"node_modules/@openzeppelin/contracts/token/ERC1155/ERC1155.sol\":15632:15673  uint256[] memory array = new uint256[](1) */\n      swap1\n      pop\n        /* \"node_modules/@openzeppelin/contracts/token/ERC1155/ERC1155.sol\":15695:15702  element */\n      dup3\n        /* \"node_modules/@openzeppelin/contracts/token/ERC1155/ERC1155.sol\":15684:15689  array */\n      dup2\n        /* \"node_modules/@openzeppelin/contracts/token/ERC1155/ERC1155.sol\":15690:15691  0 */\n      0x00\n        /* \"node_modules/@openzeppelin/contracts/token/ERC1155/ERC1155.sol\":15684:15692  array[0] */\n      dup2\n      mload\n      dup2\n      lt\n      tag_346\n      jumpi\n      tag_346\n      tag_172\n      jump\t// in\n    tag_346:\n      0x20\n      swap1\n      dup2\n      mul\n      swap2\n      swap1\n      swap2\n      add\n      add\n        /* \"node_modules/@openzeppelin/contracts/token/ERC1155/ERC1155.sol\":15684:15702  array[0] = element */\n      mstore\n        /* \"node_modules/@openzeppelin/contracts/token/ERC1155/ERC1155.sol\":15722:15727  array */\n      swap3\n        /* \"node_modules/@openzeppelin/contracts/token/ERC1155/ERC1155.sol\":15537:15735  function _asSingletonArray(uint256 element) private pure returns (uint256[] memory) {... */\n      swap2\n      pop\n      pop\n      jump\t// out\n        /* \"node_modules/@openzeppelin/contracts/token/ERC1155/ERC1155.sol\":14716:15529  function _doSafeBatchTransferAcceptanceCheck(... */\n    tag_299:\n      sub(shl(0xa0, 0x01), 0x01)\n        /* \"node_modules/@openzeppelin/contracts/token/ERC1155/ERC1155.sol\":14956:14969  to.isContract */\n      dup5\n      and\n        /* \"node_modules/@openzeppelin/contracts/utils/Address.sol\":1120:1140  extcodesize(account) */\n      extcodesize\n        /* \"node_modules/@openzeppelin/contracts/utils/Address.sol\":1168:1176  size > 0 */\n      iszero\n        /* \"node_modules/@openzeppelin/contracts/token/ERC1155/ERC1155.sol\":14952:15522  if (to.isContract()) {... */\n      tag_321\n      jumpi\n        /* \"node_modules/@openzeppelin/contracts/token/ERC1155/ERC1155.sol\":14992:15071  IERC1155Receiver(to).onERC1155BatchReceived(operator, from, ids, amounts, data) */\n      mload(0x40)\n      shl(0xe0, 0xbc197c81)\n      dup2\n      mstore\n      sub(shl(0xa0, 0x01), 0x01)\n        /* \"node_modules/@openzeppelin/contracts/token/ERC1155/ERC1155.sol\":14992:15035  IERC1155Receiver(to).onERC1155BatchReceived */\n      dup6\n      and\n      swap1\n      0xbc197c81\n      swap1\n        /* \"node_modules/@openzeppelin/contracts/token/ERC1155/ERC1155.sol\":14992:15071  IERC1155Receiver(to).onERC1155BatchReceived(operator, from, ids, amounts, data) */\n      tag_352\n      swap1\n        /* \"node_modules/@openzeppelin/contracts/token/ERC1155/ERC1155.sol\":15036:15044  operator */\n      dup10\n      swap1\n        /* \"node_modules/@openzeppelin/contracts/token/ERC1155/ERC1155.sol\":15046:15050  from */\n      dup10\n      swap1\n        /* \"node_modules/@openzeppelin/contracts/token/ERC1155/ERC1155.sol\":15052:15055  ids */\n      dup9\n      swap1\n        /* \"node_modules/@openzeppelin/contracts/token/ERC1155/ERC1155.sol\":15057:15064  amounts */\n      dup9\n      swap1\n        /* \"node_modules/@openzeppelin/contracts/token/ERC1155/ERC1155.sol\":15066:15070  data */\n      dup9\n      swap1\n        /* \"node_modules/@openzeppelin/contracts/token/ERC1155/ERC1155.sol\":14992:15071  IERC1155Receiver(to).onERC1155BatchReceived(operator, from, ids, amounts, data) */\n      0x04\n      add\n      tag_353\n      jump\t// in\n    tag_352:\n      0x20\n      mload(0x40)\n      dup1\n      dup4\n      sub\n      dup2\n      0x00\n      dup8\n      gas\n      call\n      swap3\n      pop\n      pop\n      pop\n      dup1\n      iszero\n      tag_354\n      jumpi\n      pop\n      0x40\n      dup1\n      mload\n      0x1f\n      returndatasize\n      swap1\n      dup2\n      add\n      not(0x1f)\n      and\n      dup3\n      add\n      swap1\n      swap3\n      mstore\n      tag_355\n      swap2\n      dup2\n      add\n      swap1\n      tag_356\n      jump\t// in\n    tag_355:\n      0x01\n    tag_354:\n        /* \"node_modules/@openzeppelin/contracts/token/ERC1155/ERC1155.sol\":14988:15511  try IERC1155Receiver(to).onERC1155BatchReceived(operator, from, ids, amounts, data) returns (... */\n      tag_357\n      jumpi\n      tag_361\n      tag_362\n      jump\t// in\n    tag_361:\n      dup1\n      0x08c379a0\n      sub\n      tag_360\n      jumpi\n      pop\n      tag_363\n      tag_364\n      jump\t// in\n    tag_363:\n      dup1\n      tag_365\n      jumpi\n      pop\n      jump(tag_359)\n    tag_365:\n        /* \"node_modules/@openzeppelin/contracts/token/ERC1155/ERC1155.sol\":15384:15390  reason */\n      dup1\n        /* \"node_modules/@openzeppelin/contracts/token/ERC1155/ERC1155.sol\":15377:15391  revert(reason) */\n      mload(0x40)\n      shl(0xe5, 0x461bcd)\n      dup2\n      mstore\n      0x04\n      add\n      tag_102\n      swap2\n      swap1\n      tag_49\n      jump\t// in\n        /* \"node_modules/@openzeppelin/contracts/token/ERC1155/ERC1155.sol\":14988:15511  try IERC1155Receiver(to).onERC1155BatchReceived(operator, from, ids, amounts, data) returns (... */\n    tag_360:\n      pop\n    tag_359:\n        /* \"node_modules/@openzeppelin/contracts/token/ERC1155/ERC1155.sol\":15433:15495  revert(\"ERC1155: transfer to non ERC1155Receiver implementer\") */\n      mload(0x40)\n      shl(0xe5, 0x461bcd)\n      dup2\n      mstore\n        /* \"#utility.yul\":19908:19910   */\n      0x20\n        /* \"node_modules/@openzeppelin/contracts/token/ERC1155/ERC1155.sol\":15433:15495  revert(\"ERC1155: transfer to non ERC1155Receiver implementer\") */\n      0x04\n      dup3\n      add\n        /* \"#utility.yul\":19890:19911   */\n      mstore\n        /* \"#utility.yul\":19947:19949   */\n      0x34\n        /* \"#utility.yul\":19927:19945   */\n      0x24\n      dup3\n      add\n        /* \"#utility.yul\":19920:19950   */\n      mstore\n        /* \"#utility.yul\":19986:20020   */\n      0x455243313135353a207472616e7366657220746f206e6f6e2045524331313535\n        /* \"#utility.yul\":19966:19984   */\n      0x44\n      dup3\n      add\n        /* \"#utility.yul\":19959:20021   */\n      mstore\n      shl(0x61, 0x2932b1b2b4bb32b91034b6b83632b6b2b73a32b9)\n        /* \"#utility.yul\":20037:20055   */\n      0x64\n      dup3\n      add\n        /* \"#utility.yul\":20030:20080   */\n      mstore\n        /* \"#utility.yul\":20097:20116   */\n      0x84\n      add\n        /* \"node_modules/@openzeppelin/contracts/token/ERC1155/ERC1155.sol\":15433:15495  revert(\"ERC1155: transfer to non ERC1155Receiver implementer\") */\n      tag_102\n        /* \"#utility.yul\":19706:20122   */\n      jump\n        /* \"node_modules/@openzeppelin/contracts/token/ERC1155/ERC1155.sol\":14988:15511  try IERC1155Receiver(to).onERC1155BatchReceived(operator, from, ids, amounts, data) returns (... */\n    tag_357:\n      not(sub(shl(0xe0, 0x01), 0x01))\n        /* \"node_modules/@openzeppelin/contracts/token/ERC1155/ERC1155.sol\":15153:15213  response != IERC1155Receiver.onERC1155BatchReceived.selector */\n      dup2\n      and\n      shl(0xe0, 0xbc197c81)\n      eq\n        /* \"node_modules/@openzeppelin/contracts/token/ERC1155/ERC1155.sol\":15149:15308  if (response != IERC1155Receiver.onERC1155BatchReceived.selector) {... */\n      tag_339\n      jumpi\n        /* \"node_modules/@openzeppelin/contracts/token/ERC1155/ERC1155.sol\":15238:15288  revert(\"ERC1155: ERC1155Receiver rejected tokens\") */\n      mload(0x40)\n      shl(0xe5, 0x461bcd)\n      dup2\n      mstore\n      0x04\n      add\n      tag_102\n      swap1\n      tag_372\n      jump\t// in\n        /* \"node_modules/@openzeppelin/contracts/token/ERC1155/ERC1155.sol\":13964:14708  function _doSafeTransferAcceptanceCheck(... */\n    tag_340:\n      sub(shl(0xa0, 0x01), 0x01)\n        /* \"node_modules/@openzeppelin/contracts/token/ERC1155/ERC1155.sol\":14179:14192  to.isContract */\n      dup5\n      and\n        /* \"node_modules/@openzeppelin/contracts/utils/Address.sol\":1120:1140  extcodesize(account) */\n      extcodesize\n        /* \"node_modules/@openzeppelin/contracts/utils/Address.sol\":1168:1176  size > 0 */\n      iszero\n        /* \"node_modules/@openzeppelin/contracts/token/ERC1155/ERC1155.sol\":14175:14701  if (to.isContract()) {... */\n      tag_321\n      jumpi\n        /* \"node_modules/@openzeppelin/contracts/token/ERC1155/ERC1155.sol\":14215:14287  IERC1155Receiver(to).onERC1155Received(operator, from, id, amount, data) */\n      mload(0x40)\n      shl(0xe0, 0xf23a6e61)\n      dup2\n      mstore\n      sub(shl(0xa0, 0x01), 0x01)\n        /* \"node_modules/@openzeppelin/contracts/token/ERC1155/ERC1155.sol\":14215:14253  IERC1155Receiver(to).onERC1155Received */\n      dup6\n      and\n      swap1\n      0xf23a6e61\n      swap1\n        /* \"node_modules/@openzeppelin/contracts/token/ERC1155/ERC1155.sol\":14215:14287  IERC1155Receiver(to).onERC1155Received(operator, from, id, amount, data) */\n      tag_376\n      swap1\n        /* \"node_modules/@openzeppelin/contracts/token/ERC1155/ERC1155.sol\":14254:14262  operator */\n      dup10\n      swap1\n        /* \"node_modules/@openzeppelin/contracts/token/ERC1155/ERC1155.sol\":14264:14268  from */\n      dup10\n      swap1\n        /* \"node_modules/@openzeppelin/contracts/token/ERC1155/ERC1155.sol\":14270:14272  id */\n      dup9\n      swap1\n        /* \"node_modules/@openzeppelin/contracts/token/ERC1155/ERC1155.sol\":14274:14280  amount */\n      dup9\n      swap1\n        /* \"node_modules/@openzeppelin/contracts/token/ERC1155/ERC1155.sol\":14282:14286  data */\n      dup9\n      swap1\n        /* \"node_modules/@openzeppelin/contracts/token/ERC1155/ERC1155.sol\":14215:14287  IERC1155Receiver(to).onERC1155Received(operator, from, id, amount, data) */\n      0x04\n      add\n      tag_377\n      jump\t// in\n    tag_376:\n      0x20\n      mload(0x40)\n      dup1\n      dup4\n      sub\n      dup2\n      0x00\n      dup8\n      gas\n      call\n      swap3\n      pop\n      pop\n      pop\n      dup1\n      iszero\n      tag_378\n      jumpi\n      pop\n      0x40\n      dup1\n      mload\n      0x1f\n      returndatasize\n      swap1\n      dup2\n      add\n      not(0x1f)\n      and\n      dup3\n      add\n      swap1\n      swap3\n      mstore\n      tag_379\n      swap2\n      dup2\n      add\n      swap1\n      tag_356\n      jump\t// in\n    tag_379:\n      0x01\n    tag_378:\n        /* \"node_modules/@openzeppelin/contracts/token/ERC1155/ERC1155.sol\":14211:14690  try IERC1155Receiver(to).onERC1155Received(operator, from, id, amount, data) returns (bytes4 response) {... */\n      tag_380\n      jumpi\n      tag_361\n      tag_362\n      jump\t// in\n    tag_380:\n      not(sub(shl(0xe0, 0x01), 0x01))\n        /* \"node_modules/@openzeppelin/contracts/token/ERC1155/ERC1155.sol\":14337:14392  response != IERC1155Receiver.onERC1155Received.selector */\n      dup2\n      and\n      shl(0xe0, 0xf23a6e61)\n      eq\n        /* \"node_modules/@openzeppelin/contracts/token/ERC1155/ERC1155.sol\":14333:14487  if (response != IERC1155Receiver.onERC1155Received.selector) {... */\n      tag_339\n      jumpi\n        /* \"node_modules/@openzeppelin/contracts/token/ERC1155/ERC1155.sol\":14417:14467  revert(\"ERC1155: ERC1155Receiver rejected tokens\") */\n      mload(0x40)\n      shl(0xe5, 0x461bcd)\n      dup2\n      mstore\n      0x04\n      add\n      tag_102\n      swap1\n      tag_372\n      jump\t// in\n    tag_262:\n      dup3\n      dup1\n      sload\n      tag_393\n      swap1\n      tag_133\n      jump\t// in\n    tag_393:\n      swap1\n      0x00\n      mstore\n      keccak256(0x00, 0x20)\n      swap1\n      0x1f\n      add\n      0x20\n      swap1\n      div\n      dup2\n      add\n      swap3\n      dup3\n      tag_395\n      jumpi\n      0x00\n      dup6\n      sstore\n      jump(tag_398)\n    tag_395:\n      dup3\n      0x1f\n      lt\n      tag_396\n      jumpi\n      dup1\n      mload\n      not(0xff)\n      and\n      dup4\n      dup1\n      add\n      or\n      dup6\n      sstore\n      jump(tag_398)\n    tag_396:\n      dup3\n      dup1\n      add\n      0x01\n      add\n      dup6\n      sstore\n      dup3\n      iszero\n      tag_398\n      jumpi\n      swap2\n      dup3\n      add\n    tag_397:\n      dup3\n      dup2\n      gt\n      iszero\n      tag_398\n      jumpi\n      dup3\n      mload\n      dup3\n      sstore\n      swap2\n      0x20\n      add\n      swap2\n      swap1\n      0x01\n      add\n      swap1\n      jump(tag_397)\n    tag_398:\n      pop\n      tag_399\n      swap3\n      swap2\n      pop\n      tag_400\n      jump\t// in\n    tag_399:\n      pop\n      swap1\n      jump\t// out\n    tag_400:\n    tag_401:\n      dup1\n      dup3\n      gt\n      iszero\n      tag_399\n      jumpi\n      0x00\n      dup2\n      sstore\n      0x01\n      add\n      jump(tag_401)\n        /* \"#utility.yul\":14:187   */\n    tag_403:\n        /* \"#utility.yul\":82:102   */\n      dup1\n      calldataload\n      sub(shl(0xa0, 0x01), 0x01)\n        /* \"#utility.yul\":131:162   */\n      dup2\n      and\n        /* \"#utility.yul\":121:163   */\n      dup2\n      eq\n        /* \"#utility.yul\":111:181   */\n      tag_415\n      jumpi\n        /* \"#utility.yul\":177:178   */\n      0x00\n        /* \"#utility.yul\":174:175   */\n      dup1\n        /* \"#utility.yul\":167:179   */\n      revert\n        /* \"#utility.yul\":111:181   */\n    tag_415:\n        /* \"#utility.yul\":14:187   */\n      swap2\n      swap1\n      pop\n      jump\t// out\n        /* \"#utility.yul\":192:446   */\n    tag_26:\n        /* \"#utility.yul\":260:266   */\n      0x00\n        /* \"#utility.yul\":268:274   */\n      dup1\n        /* \"#utility.yul\":321:323   */\n      0x40\n        /* \"#utility.yul\":309:318   */\n      dup4\n        /* \"#utility.yul\":300:307   */\n      dup6\n        /* \"#utility.yul\":296:319   */\n      sub\n        /* \"#utility.yul\":292:324   */\n      slt\n        /* \"#utility.yul\":289:341   */\n      iszero\n      tag_417\n      jumpi\n        /* \"#utility.yul\":337:338   */\n      0x00\n        /* \"#utility.yul\":334:335   */\n      dup1\n        /* \"#utility.yul\":327:339   */\n      revert\n        /* \"#utility.yul\":289:341   */\n    tag_417:\n        /* \"#utility.yul\":360:389   */\n      tag_418\n        /* \"#utility.yul\":379:388   */\n      dup4\n        /* \"#utility.yul\":360:389   */\n      tag_403\n      jump\t// in\n    tag_418:\n        /* \"#utility.yul\":350:389   */\n      swap5\n        /* \"#utility.yul\":436:438   */\n      0x20\n        /* \"#utility.yul\":421:439   */\n      swap4\n      swap1\n      swap4\n      add\n        /* \"#utility.yul\":408:440   */\n      calldataload\n      swap4\n      pop\n      pop\n      pop\n        /* \"#utility.yul\":192:446   */\n      jump\t// out\n        /* \"#utility.yul\":633:764   */\n    tag_404:\n      not(sub(shl(0xe0, 0x01), 0x01))\n        /* \"#utility.yul\":707:739   */\n      dup2\n      and\n        /* \"#utility.yul\":697:740   */\n      dup2\n      eq\n        /* \"#utility.yul\":687:758   */\n      tag_117\n      jumpi\n        /* \"#utility.yul\":754:755   */\n      0x00\n        /* \"#utility.yul\":751:752   */\n      dup1\n        /* \"#utility.yul\":744:756   */\n      revert\n        /* \"#utility.yul\":769:1014   */\n    tag_32:\n        /* \"#utility.yul\":827:833   */\n      0x00\n        /* \"#utility.yul\":880:882   */\n      0x20\n        /* \"#utility.yul\":868:877   */\n      dup3\n        /* \"#utility.yul\":859:866   */\n      dup5\n        /* \"#utility.yul\":855:878   */\n      sub\n        /* \"#utility.yul\":851:883   */\n      slt\n        /* \"#utility.yul\":848:900   */\n      iszero\n      tag_423\n      jumpi\n        /* \"#utility.yul\":896:897   */\n      0x00\n        /* \"#utility.yul\":893:894   */\n      dup1\n        /* \"#utility.yul\":886:898   */\n      revert\n        /* \"#utility.yul\":848:900   */\n    tag_423:\n        /* \"#utility.yul\":935:944   */\n      dup2\n        /* \"#utility.yul\":922:945   */\n      calldataload\n        /* \"#utility.yul\":954:984   */\n      tag_424\n        /* \"#utility.yul\":978:983   */\n      dup2\n        /* \"#utility.yul\":954:984   */\n      tag_404\n      jump\t// in\n    tag_424:\n        /* \"#utility.yul\":1003:1008   */\n      swap4\n        /* \"#utility.yul\":769:1014   */\n      swap3\n      pop\n      pop\n      pop\n      jump\t// out\n        /* \"#utility.yul\":1211:1338   */\n    tag_164:\n        /* \"#utility.yul\":1272:1282   */\n      0x4e487b71\n        /* \"#utility.yul\":1267:1270   */\n      0xe0\n        /* \"#utility.yul\":1263:1283   */\n      shl\n        /* \"#utility.yul\":1260:1261   */\n      0x00\n        /* \"#utility.yul\":1253:1284   */\n      mstore\n        /* \"#utility.yul\":1303:1307   */\n      0x41\n        /* \"#utility.yul\":1300:1301   */\n      0x04\n        /* \"#utility.yul\":1293:1308   */\n      mstore\n        /* \"#utility.yul\":1327:1331   */\n      0x24\n        /* \"#utility.yul\":1324:1325   */\n      0x00\n        /* \"#utility.yul\":1317:1332   */\n      revert\n        /* \"#utility.yul\":1343:1592   */\n    tag_405:\n        /* \"#utility.yul\":1453:1455   */\n      0x1f\n        /* \"#utility.yul\":1434:1447   */\n      dup3\n      add\n      not(0x1f)\n        /* \"#utility.yul\":1430:1457   */\n      and\n        /* \"#utility.yul\":1418:1458   */\n      dup2\n      add\n      sub(shl(0x40, 0x01), 0x01)\n        /* \"#utility.yul\":1473:1507   */\n      dup2\n      gt\n        /* \"#utility.yul\":1509:1531   */\n      dup3\n      dup3\n      lt\n        /* \"#utility.yul\":1470:1532   */\n      or\n        /* \"#utility.yul\":1467:1555   */\n      iszero\n      tag_429\n      jumpi\n        /* \"#utility.yul\":1535:1553   */\n      tag_429\n      tag_164\n      jump\t// in\n    tag_429:\n        /* \"#utility.yul\":1571:1573   */\n      0x40\n        /* \"#utility.yul\":1564:1586   */\n      mstore\n      pop\n      pop\n        /* \"#utility.yul\":1343:1592   */\n      jump\t// out\n        /* \"#utility.yul\":1597:2066   */\n    tag_406:\n        /* \"#utility.yul\":1662:1667   */\n      0x00\n      sub(shl(0x40, 0x01), 0x01)\n        /* \"#utility.yul\":1688:1694   */\n      dup4\n        /* \"#utility.yul\":1685:1715   */\n      gt\n        /* \"#utility.yul\":1682:1738   */\n      iszero\n      tag_432\n      jumpi\n        /* \"#utility.yul\":1718:1736   */\n      tag_432\n      tag_164\n      jump\t// in\n    tag_432:\n        /* \"#utility.yul\":1767:1769   */\n      0x40\n        /* \"#utility.yul\":1761:1770   */\n      mload\n        /* \"#utility.yul\":1779:1848   */\n      tag_433\n        /* \"#utility.yul\":1836:1838   */\n      0x1f\n        /* \"#utility.yul\":1815:1830   */\n      dup6\n      add\n      not(0x1f)\n        /* \"#utility.yul\":1811:1840   */\n      and\n        /* \"#utility.yul\":1842:1846   */\n      0x20\n        /* \"#utility.yul\":1807:1847   */\n      add\n        /* \"#utility.yul\":1761:1770   */\n      dup3\n        /* \"#utility.yul\":1779:1848   */\n      tag_405\n      jump\t// in\n    tag_433:\n        /* \"#utility.yul\":1866:1872   */\n      dup1\n        /* \"#utility.yul\":1857:1872   */\n      swap2\n      pop\n        /* \"#utility.yul\":1896:1902   */\n      dup4\n        /* \"#utility.yul\":1888:1894   */\n      dup2\n        /* \"#utility.yul\":1881:1903   */\n      mstore\n        /* \"#utility.yul\":1936:1939   */\n      dup5\n        /* \"#utility.yul\":1927:1933   */\n      dup5\n        /* \"#utility.yul\":1922:1925   */\n      dup5\n        /* \"#utility.yul\":1918:1934   */\n      add\n        /* \"#utility.yul\":1915:1940   */\n      gt\n        /* \"#utility.yul\":1912:1957   */\n      iszero\n      tag_434\n      jumpi\n        /* \"#utility.yul\":1953:1954   */\n      0x00\n        /* \"#utility.yul\":1950:1951   */\n      dup1\n        /* \"#utility.yul\":1943:1955   */\n      revert\n        /* \"#utility.yul\":1912:1957   */\n    tag_434:\n        /* \"#utility.yul\":2003:2009   */\n      dup4\n        /* \"#utility.yul\":1998:2001   */\n      dup4\n        /* \"#utility.yul\":1991:1995   */\n      0x20\n        /* \"#utility.yul\":1983:1989   */\n      dup4\n        /* \"#utility.yul\":1979:1996   */\n      add\n        /* \"#utility.yul\":1966:2010   */\n      calldatacopy\n        /* \"#utility.yul\":2058:2059   */\n      0x00\n        /* \"#utility.yul\":2051:2055   */\n      0x20\n        /* \"#utility.yul\":2042:2048   */\n      dup6\n        /* \"#utility.yul\":2034:2040   */\n      dup4\n        /* \"#utility.yul\":2030:2049   */\n      add\n        /* \"#utility.yul\":2026:2056   */\n      add\n        /* \"#utility.yul\":2019:2060   */\n      mstore\n      pop\n        /* \"#utility.yul\":1597:2066   */\n      swap4\n      swap3\n      pop\n      pop\n      pop\n      jump\t// out\n        /* \"#utility.yul\":2071:2522   */\n    tag_38:\n        /* \"#utility.yul\":2140:2146   */\n      0x00\n        /* \"#utility.yul\":2193:2195   */\n      0x20\n        /* \"#utility.yul\":2181:2190   */\n      dup3\n        /* \"#utility.yul\":2172:2179   */\n      dup5\n        /* \"#utility.yul\":2168:2191   */\n      sub\n        /* \"#utility.yul\":2164:2196   */\n      slt\n        /* \"#utility.yul\":2161:2213   */\n      iszero\n      tag_436\n      jumpi\n        /* \"#utility.yul\":2209:2210   */\n      0x00\n        /* \"#utility.yul\":2206:2207   */\n      dup1\n        /* \"#utility.yul\":2199:2211   */\n      revert\n        /* \"#utility.yul\":2161:2213   */\n    tag_436:\n        /* \"#utility.yul\":2249:2258   */\n      dup2\n        /* \"#utility.yul\":2236:2259   */\n      calldataload\n      sub(shl(0x40, 0x01), 0x01)\n        /* \"#utility.yul\":2274:2280   */\n      dup2\n        /* \"#utility.yul\":2271:2301   */\n      gt\n        /* \"#utility.yul\":2268:2318   */\n      iszero\n      tag_437\n      jumpi\n        /* \"#utility.yul\":2314:2315   */\n      0x00\n        /* \"#utility.yul\":2311:2312   */\n      dup1\n        /* \"#utility.yul\":2304:2316   */\n      revert\n        /* \"#utility.yul\":2268:2318   */\n    tag_437:\n        /* \"#utility.yul\":2337:2359   */\n      dup3\n      add\n        /* \"#utility.yul\":2390:2394   */\n      0x1f\n        /* \"#utility.yul\":2382:2395   */\n      dup2\n      add\n        /* \"#utility.yul\":2378:2405   */\n      dup5\n      sgt\n        /* \"#utility.yul\":2368:2423   */\n      tag_438\n      jumpi\n        /* \"#utility.yul\":2419:2420   */\n      0x00\n        /* \"#utility.yul\":2416:2417   */\n      dup1\n        /* \"#utility.yul\":2409:2421   */\n      revert\n        /* \"#utility.yul\":2368:2423   */\n    tag_438:\n        /* \"#utility.yul\":2442:2516   */\n      tag_439\n        /* \"#utility.yul\":2508:2515   */\n      dup5\n        /* \"#utility.yul\":2503:2505   */\n      dup3\n        /* \"#utility.yul\":2490:2506   */\n      calldataload\n        /* \"#utility.yul\":2485:2487   */\n      0x20\n        /* \"#utility.yul\":2481:2483   */\n      dup5\n        /* \"#utility.yul\":2477:2488   */\n      add\n        /* \"#utility.yul\":2442:2516   */\n      tag_406\n      jump\t// in\n    tag_439:\n        /* \"#utility.yul\":2432:2516   */\n      swap5\n        /* \"#utility.yul\":2071:2522   */\n      swap4\n      pop\n      pop\n      pop\n      pop\n      jump\t// out\n        /* \"#utility.yul\":2527:2849   */\n    tag_42:\n        /* \"#utility.yul\":2604:2610   */\n      0x00\n        /* \"#utility.yul\":2612:2618   */\n      dup1\n        /* \"#utility.yul\":2620:2626   */\n      0x00\n        /* \"#utility.yul\":2673:2675   */\n      0x60\n        /* \"#utility.yul\":2661:2670   */\n      dup5\n        /* \"#utility.yul\":2652:2659   */\n      dup7\n        /* \"#utility.yul\":2648:2671   */\n      sub\n        /* \"#utility.yul\":2644:2676   */\n      slt\n        /* \"#utility.yul\":2641:2693   */\n      iszero\n      tag_441\n      jumpi\n        /* \"#utility.yul\":2689:2690   */\n      0x00\n        /* \"#utility.yul\":2686:2687   */\n      dup1\n        /* \"#utility.yul\":2679:2691   */\n      revert\n        /* \"#utility.yul\":2641:2693   */\n    tag_441:\n        /* \"#utility.yul\":2712:2741   */\n      tag_442\n        /* \"#utility.yul\":2731:2740   */\n      dup5\n        /* \"#utility.yul\":2712:2741   */\n      tag_403\n      jump\t// in\n    tag_442:\n        /* \"#utility.yul\":2702:2741   */\n      swap6\n        /* \"#utility.yul\":2788:2790   */\n      0x20\n        /* \"#utility.yul\":2773:2791   */\n      dup6\n      add\n        /* \"#utility.yul\":2760:2792   */\n      calldataload\n      swap6\n      pop\n        /* \"#utility.yul\":2839:2841   */\n      0x40\n        /* \"#utility.yul\":2824:2842   */\n      swap1\n      swap5\n      add\n        /* \"#utility.yul\":2811:2843   */\n      calldataload\n      swap4\n        /* \"#utility.yul\":2527:2849   */\n      swap3\n      pop\n      pop\n      pop\n      jump\t// out\n        /* \"#utility.yul\":2854:3034   */\n    tag_46:\n        /* \"#utility.yul\":2913:2919   */\n      0x00\n        /* \"#utility.yul\":2966:2968   */\n      0x20\n        /* \"#utility.yul\":2954:2963   */\n      dup3\n        /* \"#utility.yul\":2945:2952   */\n      dup5\n        /* \"#utility.yul\":2941:2964   */\n      sub\n        /* \"#utility.yul\":2937:2969   */\n      slt\n        /* \"#utility.yul\":2934:2986   */\n      iszero\n      tag_444\n      jumpi\n        /* \"#utility.yul\":2982:2983   */\n      0x00\n        /* \"#utility.yul\":2979:2980   */\n      dup1\n        /* \"#utility.yul\":2972:2984   */\n      revert\n        /* \"#utility.yul\":2934:2986   */\n    tag_444:\n      pop\n        /* \"#utility.yul\":3005:3028   */\n      calldataload\n      swap2\n        /* \"#utility.yul\":2854:3034   */\n      swap1\n      pop\n      jump\t// out\n        /* \"#utility.yul\":3039:3511   */\n    tag_407:\n        /* \"#utility.yul\":3081:3084   */\n      0x00\n        /* \"#utility.yul\":3119:3124   */\n      dup2\n        /* \"#utility.yul\":3113:3125   */\n      mload\n        /* \"#utility.yul\":3146:3152   */\n      dup1\n        /* \"#utility.yul\":3141:3144   */\n      dup5\n        /* \"#utility.yul\":3134:3153   */\n      mstore\n        /* \"#utility.yul\":3171:3172   */\n      0x00\n        /* \"#utility.yul\":3181:3343   */\n    tag_446:\n        /* \"#utility.yul\":3195:3201   */\n      dup2\n        /* \"#utility.yul\":3192:3193   */\n      dup2\n        /* \"#utility.yul\":3189:3202   */\n      lt\n        /* \"#utility.yul\":3181:3343   */\n      iszero\n      tag_448\n      jumpi\n        /* \"#utility.yul\":3257:3261   */\n      0x20\n        /* \"#utility.yul\":3313:3326   */\n      dup2\n      dup6\n      add\n        /* \"#utility.yul\":3309:3331   */\n      dup2\n      add\n        /* \"#utility.yul\":3303:3332   */\n      mload\n        /* \"#utility.yul\":3285:3296   */\n      dup7\n      dup4\n      add\n        /* \"#utility.yul\":3281:3301   */\n      dup3\n      add\n        /* \"#utility.yul\":3274:3333   */\n      mstore\n        /* \"#utility.yul\":3210:3222   */\n      add\n        /* \"#utility.yul\":3181:3343   */\n      jump(tag_446)\n    tag_448:\n        /* \"#utility.yul\":3361:3367   */\n      dup2\n        /* \"#utility.yul\":3358:3359   */\n      dup2\n        /* \"#utility.yul\":3355:3368   */\n      gt\n        /* \"#utility.yul\":3352:3439   */\n      iszero\n      tag_449\n      jumpi\n        /* \"#utility.yul\":3427:3428   */\n      0x00\n        /* \"#utility.yul\":3420:3424   */\n      0x20\n        /* \"#utility.yul\":3411:3417   */\n      dup4\n        /* \"#utility.yul\":3406:3409   */\n      dup8\n        /* \"#utility.yul\":3402:3418   */\n      add\n        /* \"#utility.yul\":3398:3425   */\n      add\n        /* \"#utility.yul\":3391:3429   */\n      mstore\n        /* \"#utility.yul\":3352:3439   */\n    tag_449:\n      pop\n        /* \"#utility.yul\":3493:3495   */\n      0x1f\n        /* \"#utility.yul\":3472:3487   */\n      add\n      not(0x1f)\n        /* \"#utility.yul\":3468:3497   */\n      and\n        /* \"#utility.yul\":3459:3498   */\n      swap3\n      swap1\n      swap3\n      add\n        /* \"#utility.yul\":3500:3504   */\n      0x20\n        /* \"#utility.yul\":3455:3505   */\n      add\n      swap3\n        /* \"#utility.yul\":3039:3511   */\n      swap2\n      pop\n      pop\n      jump\t// out\n        /* \"#utility.yul\":3516:3736   */\n    tag_49:\n        /* \"#utility.yul\":3665:3667   */\n      0x20\n        /* \"#utility.yul\":3654:3663   */\n      dup2\n        /* \"#utility.yul\":3647:3668   */\n      mstore\n        /* \"#utility.yul\":3628:3632   */\n      0x00\n        /* \"#utility.yul\":3685:3730   */\n      tag_424\n        /* \"#utility.yul\":3726:3728   */\n      0x20\n        /* \"#utility.yul\":3715:3724   */\n      dup4\n        /* \"#utility.yul\":3711:3729   */\n      add\n        /* \"#utility.yul\":3703:3709   */\n      dup5\n        /* \"#utility.yul\":3685:3730   */\n      tag_407\n      jump\t// in\n        /* \"#utility.yul\":3741:3924   */\n    tag_408:\n        /* \"#utility.yul\":3801:3805   */\n      0x00\n      sub(shl(0x40, 0x01), 0x01)\n        /* \"#utility.yul\":3826:3832   */\n      dup3\n        /* \"#utility.yul\":3823:3853   */\n      gt\n        /* \"#utility.yul\":3820:3876   */\n      iszero\n      tag_454\n      jumpi\n        /* \"#utility.yul\":3856:3874   */\n      tag_454\n      tag_164\n      jump\t// in\n    tag_454:\n      pop\n        /* \"#utility.yul\":3901:3902   */\n      0x05\n        /* \"#utility.yul\":3897:3911   */\n      shl\n        /* \"#utility.yul\":3913:3917   */\n      0x20\n        /* \"#utility.yul\":3893:3918   */\n      add\n      swap1\n        /* \"#utility.yul\":3741:3924   */\n      jump\t// out\n        /* \"#utility.yul\":3929:4653   */\n    tag_409:\n        /* \"#utility.yul\":3983:3988   */\n      0x00\n        /* \"#utility.yul\":4036:4039   */\n      dup3\n        /* \"#utility.yul\":4029:4033   */\n      0x1f\n        /* \"#utility.yul\":4021:4027   */\n      dup4\n        /* \"#utility.yul\":4017:4034   */\n      add\n        /* \"#utility.yul\":4013:4040   */\n      slt\n        /* \"#utility.yul\":4003:4058   */\n      tag_456\n      jumpi\n        /* \"#utility.yul\":4054:4055   */\n      0x00\n        /* \"#utility.yul\":4051:4052   */\n      dup1\n        /* \"#utility.yul\":4044:4056   */\n      revert\n        /* \"#utility.yul\":4003:4058   */\n    tag_456:\n        /* \"#utility.yul\":4090:4096   */\n      dup2\n        /* \"#utility.yul\":4077:4097   */\n      calldataload\n        /* \"#utility.yul\":4116:4120   */\n      0x20\n        /* \"#utility.yul\":4139:4182   */\n      tag_457\n        /* \"#utility.yul\":4179:4181   */\n      dup3\n        /* \"#utility.yul\":4139:4182   */\n      tag_408\n      jump\t// in\n    tag_457:\n        /* \"#utility.yul\":4211:4213   */\n      0x40\n        /* \"#utility.yul\":4205:4214   */\n      mload\n        /* \"#utility.yul\":4223:4254   */\n      tag_458\n        /* \"#utility.yul\":4251:4253   */\n      dup3\n        /* \"#utility.yul\":4243:4249   */\n      dup3\n        /* \"#utility.yul\":4223:4254   */\n      tag_405\n      jump\t// in\n    tag_458:\n        /* \"#utility.yul\":4289:4307   */\n      dup4\n      dup2\n      mstore\n        /* \"#utility.yul\":4381:4382   */\n      0x05\n        /* \"#utility.yul\":4377:4387   */\n      swap4\n      swap1\n      swap4\n      shl\n        /* \"#utility.yul\":4365:4388   */\n      dup6\n      add\n        /* \"#utility.yul\":4361:4393   */\n      dup3\n      add\n      swap3\n        /* \"#utility.yul\":4323:4338   */\n      dup3\n      dup2\n      add\n      swap2\n      pop\n        /* \"#utility.yul\":4405:4420   */\n      dup7\n      dup5\n      gt\n        /* \"#utility.yul\":4402:4437   */\n      iszero\n      tag_459\n      jumpi\n        /* \"#utility.yul\":4433:4434   */\n      0x00\n        /* \"#utility.yul\":4430:4431   */\n      dup1\n        /* \"#utility.yul\":4423:4435   */\n      revert\n        /* \"#utility.yul\":4402:4437   */\n    tag_459:\n        /* \"#utility.yul\":4469:4471   */\n      dup3\n        /* \"#utility.yul\":4461:4467   */\n      dup7\n        /* \"#utility.yul\":4457:4472   */\n      add\n        /* \"#utility.yul\":4481:4623   */\n    tag_460:\n        /* \"#utility.yul\":4497:4503   */\n      dup5\n        /* \"#utility.yul\":4492:4495   */\n      dup2\n        /* \"#utility.yul\":4489:4504   */\n      lt\n        /* \"#utility.yul\":4481:4623   */\n      iszero\n      tag_462\n      jumpi\n        /* \"#utility.yul\":4563:4580   */\n      dup1\n      calldataload\n        /* \"#utility.yul\":4551:4581   */\n      dup4\n      mstore\n        /* \"#utility.yul\":4601:4613   */\n      swap2\n      dup4\n      add\n      swap2\n        /* \"#utility.yul\":4514:4526   */\n      dup4\n      add\n        /* \"#utility.yul\":4481:4623   */\n      jump(tag_460)\n    tag_462:\n      pop\n        /* \"#utility.yul\":4641:4647   */\n      swap7\n        /* \"#utility.yul\":3929:4653   */\n      swap6\n      pop\n      pop\n      pop\n      pop\n      pop\n      pop\n      jump\t// out\n        /* \"#utility.yul\":4658:4879   */\n    tag_410:\n        /* \"#utility.yul\":4700:4705   */\n      0x00\n        /* \"#utility.yul\":4753:4756   */\n      dup3\n        /* \"#utility.yul\":4746:4750   */\n      0x1f\n        /* \"#utility.yul\":4738:4744   */\n      dup4\n        /* \"#utility.yul\":4734:4751   */\n      add\n        /* \"#utility.yul\":4730:4757   */\n      slt\n        /* \"#utility.yul\":4720:4775   */\n      tag_464\n      jumpi\n        /* \"#utility.yul\":4771:4772   */\n      0x00\n        /* \"#utility.yul\":4768:4769   */\n      dup1\n        /* \"#utility.yul\":4761:4773   */\n      revert\n        /* \"#utility.yul\":4720:4775   */\n    tag_464:\n        /* \"#utility.yul\":4793:4873   */\n      tag_424\n        /* \"#utility.yul\":4869:4872   */\n      dup4\n        /* \"#utility.yul\":4860:4866   */\n      dup4\n        /* \"#utility.yul\":4847:4867   */\n      calldataload\n        /* \"#utility.yul\":4840:4844   */\n      0x20\n        /* \"#utility.yul\":4832:4838   */\n      dup6\n        /* \"#utility.yul\":4828:4845   */\n      add\n        /* \"#utility.yul\":4793:4873   */\n      tag_406\n      jump\t// in\n        /* \"#utility.yul\":4884:5752   */\n    tag_52:\n        /* \"#utility.yul\":5029:5035   */\n      0x00\n        /* \"#utility.yul\":5037:5043   */\n      dup1\n        /* \"#utility.yul\":5045:5051   */\n      0x00\n        /* \"#utility.yul\":5053:5059   */\n      dup1\n        /* \"#utility.yul\":5106:5109   */\n      0x80\n        /* \"#utility.yul\":5094:5103   */\n      dup6\n        /* \"#utility.yul\":5085:5092   */\n      dup8\n        /* \"#utility.yul\":5081:5104   */\n      sub\n        /* \"#utility.yul\":5077:5110   */\n      slt\n        /* \"#utility.yul\":5074:5127   */\n      iszero\n      tag_467\n      jumpi\n        /* \"#utility.yul\":5123:5124   */\n      0x00\n        /* \"#utility.yul\":5120:5121   */\n      dup1\n        /* \"#utility.yul\":5113:5125   */\n      revert\n        /* \"#utility.yul\":5074:5127   */\n    tag_467:\n        /* \"#utility.yul\":5146:5175   */\n      tag_468\n        /* \"#utility.yul\":5165:5174   */\n      dup6\n        /* \"#utility.yul\":5146:5175   */\n      tag_403\n      jump\t// in\n    tag_468:\n        /* \"#utility.yul\":5136:5175   */\n      swap4\n      pop\n        /* \"#utility.yul\":5226:5228   */\n      0x20\n        /* \"#utility.yul\":5215:5224   */\n      dup6\n        /* \"#utility.yul\":5211:5229   */\n      add\n        /* \"#utility.yul\":5198:5230   */\n      calldataload\n      sub(shl(0x40, 0x01), 0x01)\n        /* \"#utility.yul\":5290:5292   */\n      dup1\n        /* \"#utility.yul\":5282:5288   */\n      dup3\n        /* \"#utility.yul\":5279:5293   */\n      gt\n        /* \"#utility.yul\":5276:5310   */\n      iszero\n      tag_469\n      jumpi\n        /* \"#utility.yul\":5306:5307   */\n      0x00\n        /* \"#utility.yul\":5303:5304   */\n      dup1\n        /* \"#utility.yul\":5296:5308   */\n      revert\n        /* \"#utility.yul\":5276:5310   */\n    tag_469:\n        /* \"#utility.yul\":5329:5390   */\n      tag_470\n        /* \"#utility.yul\":5382:5389   */\n      dup9\n        /* \"#utility.yul\":5373:5379   */\n      dup4\n        /* \"#utility.yul\":5362:5371   */\n      dup10\n        /* \"#utility.yul\":5358:5380   */\n      add\n        /* \"#utility.yul\":5329:5390   */\n      tag_409\n      jump\t// in\n    tag_470:\n        /* \"#utility.yul\":5319:5390   */\n      swap5\n      pop\n        /* \"#utility.yul\":5443:5445   */\n      0x40\n        /* \"#utility.yul\":5432:5441   */\n      dup8\n        /* \"#utility.yul\":5428:5446   */\n      add\n        /* \"#utility.yul\":5415:5447   */\n      calldataload\n        /* \"#utility.yul\":5399:5447   */\n      swap2\n      pop\n        /* \"#utility.yul\":5472:5474   */\n      dup1\n        /* \"#utility.yul\":5462:5470   */\n      dup3\n        /* \"#utility.yul\":5459:5475   */\n      gt\n        /* \"#utility.yul\":5456:5492   */\n      iszero\n      tag_471\n      jumpi\n        /* \"#utility.yul\":5488:5489   */\n      0x00\n        /* \"#utility.yul\":5485:5486   */\n      dup1\n        /* \"#utility.yul\":5478:5490   */\n      revert\n        /* \"#utility.yul\":5456:5492   */\n    tag_471:\n        /* \"#utility.yul\":5511:5574   */\n      tag_472\n        /* \"#utility.yul\":5566:5573   */\n      dup9\n        /* \"#utility.yul\":5555:5563   */\n      dup4\n        /* \"#utility.yul\":5544:5553   */\n      dup10\n        /* \"#utility.yul\":5540:5564   */\n      add\n        /* \"#utility.yul\":5511:5574   */\n      tag_409\n      jump\t// in\n    tag_472:\n        /* \"#utility.yul\":5501:5574   */\n      swap4\n      pop\n        /* \"#utility.yul\":5627:5629   */\n      0x60\n        /* \"#utility.yul\":5616:5625   */\n      dup8\n        /* \"#utility.yul\":5612:5630   */\n      add\n        /* \"#utility.yul\":5599:5631   */\n      calldataload\n        /* \"#utility.yul\":5583:5631   */\n      swap2\n      pop\n        /* \"#utility.yul\":5656:5658   */\n      dup1\n        /* \"#utility.yul\":5646:5654   */\n      dup3\n        /* \"#utility.yul\":5643:5659   */\n      gt\n        /* \"#utility.yul\":5640:5676   */\n      iszero\n      tag_473\n      jumpi\n        /* \"#utility.yul\":5672:5673   */\n      0x00\n        /* \"#utility.yul\":5669:5670   */\n      dup1\n        /* \"#utility.yul\":5662:5674   */\n      revert\n        /* \"#utility.yul\":5640:5676   */\n    tag_473:\n      pop\n        /* \"#utility.yul\":5695:5746   */\n      tag_474\n        /* \"#utility.yul\":5738:5745   */\n      dup8\n        /* \"#utility.yul\":5727:5735   */\n      dup3\n        /* \"#utility.yul\":5716:5725   */\n      dup9\n        /* \"#utility.yul\":5712:5736   */\n      add\n        /* \"#utility.yul\":5695:5746   */\n      tag_410\n      jump\t// in\n    tag_474:\n        /* \"#utility.yul\":5685:5746   */\n      swap2\n      pop\n      pop\n        /* \"#utility.yul\":4884:5752   */\n      swap3\n      swap6\n      swap2\n      swap5\n      pop\n      swap3\n      pop\n      jump\t// out\n        /* \"#utility.yul\":5757:6700   */\n    tag_56:\n        /* \"#utility.yul\":5911:5917   */\n      0x00\n        /* \"#utility.yul\":5919:5925   */\n      dup1\n        /* \"#utility.yul\":5927:5933   */\n      0x00\n        /* \"#utility.yul\":5935:5941   */\n      dup1\n        /* \"#utility.yul\":5943:5949   */\n      0x00\n        /* \"#utility.yul\":5996:5999   */\n      0xa0\n        /* \"#utility.yul\":5984:5993   */\n      dup7\n        /* \"#utility.yul\":5975:5982   */\n      dup9\n        /* \"#utility.yul\":5971:5994   */\n      sub\n        /* \"#utility.yul\":5967:6000   */\n      slt\n        /* \"#utility.yul\":5964:6017   */\n      iszero\n      tag_476\n      jumpi\n        /* \"#utility.yul\":6013:6014   */\n      0x00\n        /* \"#utility.yul\":6010:6011   */\n      dup1\n        /* \"#utility.yul\":6003:6015   */\n      revert\n        /* \"#utility.yul\":5964:6017   */\n    tag_476:\n        /* \"#utility.yul\":6036:6065   */\n      tag_477\n        /* \"#utility.yul\":6055:6064   */\n      dup7\n        /* \"#utility.yul\":6036:6065   */\n      tag_403\n      jump\t// in\n    tag_477:\n        /* \"#utility.yul\":6026:6065   */\n      swap5\n      pop\n        /* \"#utility.yul\":6084:6122   */\n      tag_478\n        /* \"#utility.yul\":6118:6120   */\n      0x20\n        /* \"#utility.yul\":6107:6116   */\n      dup8\n        /* \"#utility.yul\":6103:6121   */\n      add\n        /* \"#utility.yul\":6084:6122   */\n      tag_403\n      jump\t// in\n    tag_478:\n        /* \"#utility.yul\":6074:6122   */\n      swap4\n      pop\n        /* \"#utility.yul\":6173:6175   */\n      0x40\n        /* \"#utility.yul\":6162:6171   */\n      dup7\n        /* \"#utility.yul\":6158:6176   */\n      add\n        /* \"#utility.yul\":6145:6177   */\n      calldataload\n      sub(shl(0x40, 0x01), 0x01)\n        /* \"#utility.yul\":6237:6239   */\n      dup1\n        /* \"#utility.yul\":6229:6235   */\n      dup3\n        /* \"#utility.yul\":6226:6240   */\n      gt\n        /* \"#utility.yul\":6223:6257   */\n      iszero\n      tag_479\n      jumpi\n        /* \"#utility.yul\":6253:6254   */\n      0x00\n        /* \"#utility.yul\":6250:6251   */\n      dup1\n        /* \"#utility.yul\":6243:6255   */\n      revert\n        /* \"#utility.yul\":6223:6257   */\n    tag_479:\n        /* \"#utility.yul\":6276:6337   */\n      tag_480\n        /* \"#utility.yul\":6329:6336   */\n      dup10\n        /* \"#utility.yul\":6320:6326   */\n      dup4\n        /* \"#utility.yul\":6309:6318   */\n      dup11\n        /* \"#utility.yul\":6305:6327   */\n      add\n        /* \"#utility.yul\":6276:6337   */\n      tag_409\n      jump\t// in\n    tag_480:\n        /* \"#utility.yul\":6266:6337   */\n      swap5\n      pop\n        /* \"#utility.yul\":6390:6392   */\n      0x60\n        /* \"#utility.yul\":6379:6388   */\n      dup9\n        /* \"#utility.yul\":6375:6393   */\n      add\n        /* \"#utility.yul\":6362:6394   */\n      calldataload\n        /* \"#utility.yul\":6346:6394   */\n      swap2\n      pop\n        /* \"#utility.yul\":6419:6421   */\n      dup1\n        /* \"#utility.yul\":6409:6417   */\n      dup3\n        /* \"#utility.yul\":6406:6422   */\n      gt\n        /* \"#utility.yul\":6403:6439   */\n      iszero\n      tag_481\n      jumpi\n        /* \"#utility.yul\":6435:6436   */\n      0x00\n        /* \"#utility.yul\":6432:6433   */\n      dup1\n        /* \"#utility.yul\":6425:6437   */\n      revert\n        /* \"#utility.yul\":6403:6439   */\n    tag_481:\n        /* \"#utility.yul\":6458:6521   */\n      tag_482\n        /* \"#utility.yul\":6513:6520   */\n      dup10\n        /* \"#utility.yul\":6502:6510   */\n      dup4\n        /* \"#utility.yul\":6491:6500   */\n      dup11\n        /* \"#utility.yul\":6487:6511   */\n      add\n        /* \"#utility.yul\":6458:6521   */\n      tag_409\n      jump\t// in\n    tag_482:\n        /* \"#utility.yul\":6448:6521   */\n      swap4\n      pop\n        /* \"#utility.yul\":6574:6577   */\n      0x80\n        /* \"#utility.yul\":6563:6572   */\n      dup9\n        /* \"#utility.yul\":6559:6578   */\n      add\n        /* \"#utility.yul\":6546:6579   */\n      calldataload\n        /* \"#utility.yul\":6530:6579   */\n      swap2\n      pop\n        /* \"#utility.yul\":6604:6606   */\n      dup1\n        /* \"#utility.yul\":6594:6602   */\n      dup3\n        /* \"#utility.yul\":6591:6607   */\n      gt\n        /* \"#utility.yul\":6588:6624   */\n      iszero\n      tag_483\n      jumpi\n        /* \"#utility.yul\":6620:6621   */\n      0x00\n        /* \"#utility.yul\":6617:6618   */\n      dup1\n        /* \"#utility.yul\":6610:6622   */\n      revert\n        /* \"#utility.yul\":6588:6624   */\n    tag_483:\n      pop\n        /* \"#utility.yul\":6643:6694   */\n      tag_484\n        /* \"#utility.yul\":6686:6693   */\n      dup9\n        /* \"#utility.yul\":6675:6683   */\n      dup3\n        /* \"#utility.yul\":6664:6673   */\n      dup10\n        /* \"#utility.yul\":6660:6684   */\n      add\n        /* \"#utility.yul\":6643:6694   */\n      tag_410\n      jump\t// in\n    tag_484:\n        /* \"#utility.yul\":6633:6694   */\n      swap2\n      pop\n      pop\n        /* \"#utility.yul\":5757:6700   */\n      swap3\n      swap6\n      pop\n      swap3\n      swap6\n      swap1\n      swap4\n      pop\n      jump\t// out\n        /* \"#utility.yul\":6705:7913   */\n    tag_60:\n        /* \"#utility.yul\":6823:6829   */\n      0x00\n        /* \"#utility.yul\":6831:6837   */\n      dup1\n        /* \"#utility.yul\":6884:6886   */\n      0x40\n        /* \"#utility.yul\":6872:6881   */\n      dup4\n        /* \"#utility.yul\":6863:6870   */\n      dup6\n        /* \"#utility.yul\":6859:6882   */\n      sub\n        /* \"#utility.yul\":6855:6887   */\n      slt\n        /* \"#utility.yul\":6852:6904   */\n      iszero\n      tag_486\n      jumpi\n        /* \"#utility.yul\":6900:6901   */\n      0x00\n        /* \"#utility.yul\":6897:6898   */\n      dup1\n        /* \"#utility.yul\":6890:6902   */\n      revert\n        /* \"#utility.yul\":6852:6904   */\n    tag_486:\n        /* \"#utility.yul\":6940:6949   */\n      dup3\n        /* \"#utility.yul\":6927:6950   */\n      calldataload\n      sub(shl(0x40, 0x01), 0x01)\n        /* \"#utility.yul\":7010:7012   */\n      dup1\n        /* \"#utility.yul\":7002:7008   */\n      dup3\n        /* \"#utility.yul\":6999:7013   */\n      gt\n        /* \"#utility.yul\":6996:7030   */\n      iszero\n      tag_487\n      jumpi\n        /* \"#utility.yul\":7026:7027   */\n      0x00\n        /* \"#utility.yul\":7023:7024   */\n      dup1\n        /* \"#utility.yul\":7016:7028   */\n      revert\n        /* \"#utility.yul\":6996:7030   */\n    tag_487:\n        /* \"#utility.yul\":7064:7070   */\n      dup2\n        /* \"#utility.yul\":7053:7062   */\n      dup6\n        /* \"#utility.yul\":7049:7071   */\n      add\n        /* \"#utility.yul\":7039:7071   */\n      swap2\n      pop\n        /* \"#utility.yul\":7109:7116   */\n      dup6\n        /* \"#utility.yul\":7102:7106   */\n      0x1f\n        /* \"#utility.yul\":7098:7100   */\n      dup4\n        /* \"#utility.yul\":7094:7107   */\n      add\n        /* \"#utility.yul\":7090:7117   */\n      slt\n        /* \"#utility.yul\":7080:7135   */\n      tag_488\n      jumpi\n        /* \"#utility.yul\":7131:7132   */\n      0x00\n        /* \"#utility.yul\":7128:7129   */\n      dup1\n        /* \"#utility.yul\":7121:7133   */\n      revert\n        /* \"#utility.yul\":7080:7135   */\n    tag_488:\n        /* \"#utility.yul\":7167:7169   */\n      dup2\n        /* \"#utility.yul\":7154:7170   */\n      calldataload\n        /* \"#utility.yul\":7189:7193   */\n      0x20\n        /* \"#utility.yul\":7212:7255   */\n      tag_489\n        /* \"#utility.yul\":7252:7254   */\n      dup3\n        /* \"#utility.yul\":7212:7255   */\n      tag_408\n      jump\t// in\n    tag_489:\n        /* \"#utility.yul\":7284:7286   */\n      0x40\n        /* \"#utility.yul\":7278:7287   */\n      mload\n        /* \"#utility.yul\":7296:7327   */\n      tag_490\n        /* \"#utility.yul\":7324:7326   */\n      dup3\n        /* \"#utility.yul\":7316:7322   */\n      dup3\n        /* \"#utility.yul\":7296:7327   */\n      tag_405\n      jump\t// in\n    tag_490:\n        /* \"#utility.yul\":7362:7380   */\n      dup4\n      dup2\n      mstore\n        /* \"#utility.yul\":7450:7451   */\n      0x05\n        /* \"#utility.yul\":7446:7456   */\n      swap4\n      swap1\n      swap4\n      shl\n        /* \"#utility.yul\":7438:7457   */\n      dup6\n      add\n        /* \"#utility.yul\":7434:7462   */\n      dup3\n      add\n      swap3\n        /* \"#utility.yul\":7396:7411   */\n      dup3\n      dup2\n      add\n      swap2\n      pop\n        /* \"#utility.yul\":7474:7493   */\n      dup10\n      dup5\n      gt\n        /* \"#utility.yul\":7471:7510   */\n      iszero\n      tag_491\n      jumpi\n        /* \"#utility.yul\":7506:7507   */\n      0x00\n        /* \"#utility.yul\":7503:7504   */\n      dup1\n        /* \"#utility.yul\":7496:7508   */\n      revert\n        /* \"#utility.yul\":7471:7510   */\n    tag_491:\n        /* \"#utility.yul\":7530:7541   */\n      swap5\n      dup3\n      add\n      swap5\n        /* \"#utility.yul\":7550:7698   */\n    tag_492:\n        /* \"#utility.yul\":7566:7572   */\n      dup4\n        /* \"#utility.yul\":7561:7564   */\n      dup7\n        /* \"#utility.yul\":7558:7573   */\n      lt\n        /* \"#utility.yul\":7550:7698   */\n      iszero\n      tag_494\n      jumpi\n        /* \"#utility.yul\":7632:7655   */\n      tag_495\n        /* \"#utility.yul\":7651:7654   */\n      dup7\n        /* \"#utility.yul\":7632:7655   */\n      tag_403\n      jump\t// in\n    tag_495:\n        /* \"#utility.yul\":7620:7656   */\n      dup3\n      mstore\n        /* \"#utility.yul\":7583:7595   */\n      swap5\n      dup3\n      add\n      swap5\n        /* \"#utility.yul\":7676:7688   */\n      swap1\n      dup3\n      add\n      swap1\n        /* \"#utility.yul\":7550:7698   */\n      jump(tag_492)\n    tag_494:\n        /* \"#utility.yul\":7717:7723   */\n      swap7\n      pop\n      pop\n        /* \"#utility.yul\":7761:7779   */\n      dup7\n      add\n        /* \"#utility.yul\":7748:7780   */\n      calldataload\n      swap3\n      pop\n      pop\n        /* \"#utility.yul\":7792:7808   */\n      dup1\n      dup3\n      gt\n        /* \"#utility.yul\":7789:7825   */\n      iszero\n      tag_496\n      jumpi\n        /* \"#utility.yul\":7821:7822   */\n      0x00\n        /* \"#utility.yul\":7818:7819   */\n      dup1\n        /* \"#utility.yul\":7811:7823   */\n      revert\n        /* \"#utility.yul\":7789:7825   */\n    tag_496:\n      pop\n        /* \"#utility.yul\":7844:7907   */\n      tag_497\n        /* \"#utility.yul\":7899:7906   */\n      dup6\n        /* \"#utility.yul\":7888:7896   */\n      dup3\n        /* \"#utility.yul\":7877:7886   */\n      dup7\n        /* \"#utility.yul\":7873:7897   */\n      add\n        /* \"#utility.yul\":7844:7907   */\n      tag_409\n      jump\t// in\n    tag_497:\n        /* \"#utility.yul\":7834:7907   */\n      swap2\n      pop\n      pop\n        /* \"#utility.yul\":6705:7913   */\n      swap3\n      pop\n      swap3\n      swap1\n      pop\n      jump\t// out\n        /* \"#utility.yul\":7918:8353   */\n    tag_411:\n        /* \"#utility.yul\":7971:7974   */\n      0x00\n        /* \"#utility.yul\":8009:8014   */\n      dup2\n        /* \"#utility.yul\":8003:8015   */\n      mload\n        /* \"#utility.yul\":8036:8042   */\n      dup1\n        /* \"#utility.yul\":8031:8034   */\n      dup5\n        /* \"#utility.yul\":8024:8043   */\n      mstore\n        /* \"#utility.yul\":8062:8066   */\n      0x20\n        /* \"#utility.yul\":8091:8093   */\n      dup1\n        /* \"#utility.yul\":8086:8089   */\n      dup6\n        /* \"#utility.yul\":8082:8094   */\n      add\n        /* \"#utility.yul\":8075:8094   */\n      swap5\n      pop\n        /* \"#utility.yul\":8128:8130   */\n      dup1\n        /* \"#utility.yul\":8121:8126   */\n      dup5\n        /* \"#utility.yul\":8117:8131   */\n      add\n        /* \"#utility.yul\":8149:8150   */\n      0x00\n        /* \"#utility.yul\":8159:8328   */\n    tag_499:\n        /* \"#utility.yul\":8173:8179   */\n      dup4\n        /* \"#utility.yul\":8170:8171   */\n      dup2\n        /* \"#utility.yul\":8167:8180   */\n      lt\n        /* \"#utility.yul\":8159:8328   */\n      iszero\n      tag_501\n      jumpi\n        /* \"#utility.yul\":8234:8247   */\n      dup2\n      mload\n        /* \"#utility.yul\":8222:8248   */\n      dup8\n      mstore\n        /* \"#utility.yul\":8268:8280   */\n      swap6\n      dup3\n      add\n      swap6\n        /* \"#utility.yul\":8303:8318   */\n      swap1\n      dup3\n      add\n      swap1\n        /* \"#utility.yul\":8195:8196   */\n      0x01\n        /* \"#utility.yul\":8188:8197   */\n      add\n        /* \"#utility.yul\":8159:8328   */\n      jump(tag_499)\n    tag_501:\n      pop\n        /* \"#utility.yul\":8344:8347   */\n      swap5\n      swap6\n        /* \"#utility.yul\":7918:8353   */\n      swap5\n      pop\n      pop\n      pop\n      pop\n      pop\n      jump\t// out\n        /* \"#utility.yul\":8358:8619   */\n    tag_63:\n        /* \"#utility.yul\":8537:8539   */\n      0x20\n        /* \"#utility.yul\":8526:8535   */\n      dup2\n        /* \"#utility.yul\":8519:8540   */\n      mstore\n        /* \"#utility.yul\":8500:8504   */\n      0x00\n        /* \"#utility.yul\":8557:8613   */\n      tag_424\n        /* \"#utility.yul\":8609:8611   */\n      0x20\n        /* \"#utility.yul\":8598:8607   */\n      dup4\n        /* \"#utility.yul\":8594:8612   */\n      add\n        /* \"#utility.yul\":8586:8592   */\n      dup5\n        /* \"#utility.yul\":8557:8613   */\n      tag_411\n      jump\t// in\n        /* \"#utility.yul\":8832:9154   */\n    tag_78:\n        /* \"#utility.yul\":8909:8915   */\n      0x00\n        /* \"#utility.yul\":8917:8923   */\n      dup1\n        /* \"#utility.yul\":8925:8931   */\n      0x00\n        /* \"#utility.yul\":8978:8980   */\n      0x60\n        /* \"#utility.yul\":8966:8975   */\n      dup5\n        /* \"#utility.yul\":8957:8964   */\n      dup7\n        /* \"#utility.yul\":8953:8976   */\n      sub\n        /* \"#utility.yul\":8949:8981   */\n      slt\n        /* \"#utility.yul\":8946:8998   */\n      iszero\n      tag_506\n      jumpi\n        /* \"#utility.yul\":8994:8995   */\n      0x00\n        /* \"#utility.yul\":8991:8992   */\n      dup1\n        /* \"#utility.yul\":8984:8996   */\n      revert\n        /* \"#utility.yul\":8946:8998   */\n    tag_506:\n        /* \"#utility.yul\":9030:9039   */\n      dup4\n        /* \"#utility.yul\":9017:9040   */\n      calldataload\n        /* \"#utility.yul\":9007:9040   */\n      swap3\n      pop\n        /* \"#utility.yul\":9087:9089   */\n      0x20\n        /* \"#utility.yul\":9076:9085   */\n      dup5\n        /* \"#utility.yul\":9072:9090   */\n      add\n        /* \"#utility.yul\":9059:9091   */\n      calldataload\n        /* \"#utility.yul\":9049:9091   */\n      swap2\n      pop\n        /* \"#utility.yul\":9110:9148   */\n      tag_507\n        /* \"#utility.yul\":9144:9146   */\n      0x40\n        /* \"#utility.yul\":9133:9142   */\n      dup6\n        /* \"#utility.yul\":9129:9147   */\n      add\n        /* \"#utility.yul\":9110:9148   */\n      tag_403\n      jump\t// in\n    tag_507:\n        /* \"#utility.yul\":9100:9148   */\n      swap1\n      pop\n        /* \"#utility.yul\":8832:9154   */\n      swap3\n      pop\n      swap3\n      pop\n      swap3\n      jump\t// out\n        /* \"#utility.yul\":9159:9506   */\n    tag_82:\n        /* \"#utility.yul\":9224:9230   */\n      0x00\n        /* \"#utility.yul\":9232:9238   */\n      dup1\n        /* \"#utility.yul\":9285:9287   */\n      0x40\n        /* \"#utility.yul\":9273:9282   */\n      dup4\n        /* \"#utility.yul\":9264:9271   */\n      dup6\n        /* \"#utility.yul\":9260:9283   */\n      sub\n        /* \"#utility.yul\":9256:9288   */\n      slt\n        /* \"#utility.yul\":9253:9305   */\n      iszero\n      tag_509\n      jumpi\n        /* \"#utility.yul\":9301:9302   */\n      0x00\n        /* \"#utility.yul\":9298:9299   */\n      dup1\n        /* \"#utility.yul\":9291:9303   */\n      revert\n        /* \"#utility.yul\":9253:9305   */\n    tag_509:\n        /* \"#utility.yul\":9324:9353   */\n      tag_510\n        /* \"#utility.yul\":9343:9352   */\n      dup4\n        /* \"#utility.yul\":9324:9353   */\n      tag_403\n      jump\t// in\n    tag_510:\n        /* \"#utility.yul\":9314:9353   */\n      swap2\n      pop\n        /* \"#utility.yul\":9403:9405   */\n      0x20\n        /* \"#utility.yul\":9392:9401   */\n      dup4\n        /* \"#utility.yul\":9388:9406   */\n      add\n        /* \"#utility.yul\":9375:9407   */\n      calldataload\n        /* \"#utility.yul\":9450:9455   */\n      dup1\n        /* \"#utility.yul\":9443:9456   */\n      iszero\n        /* \"#utility.yul\":9436:9457   */\n      iszero\n        /* \"#utility.yul\":9429:9434   */\n      dup2\n        /* \"#utility.yul\":9426:9458   */\n      eq\n        /* \"#utility.yul\":9416:9476   */\n      tag_511\n      jumpi\n        /* \"#utility.yul\":9472:9473   */\n      0x00\n        /* \"#utility.yul\":9469:9470   */\n      dup1\n        /* \"#utility.yul\":9462:9474   */\n      revert\n        /* \"#utility.yul\":9416:9476   */\n    tag_511:\n        /* \"#utility.yul\":9495:9500   */\n      dup1\n        /* \"#utility.yul\":9485:9500   */\n      swap2\n      pop\n      pop\n        /* \"#utility.yul\":9159:9506   */\n      swap3\n      pop\n      swap3\n      swap1\n      pop\n      jump\t// out\n        /* \"#utility.yul\":9511:9771   */\n    tag_89:\n        /* \"#utility.yul\":9579:9585   */\n      0x00\n        /* \"#utility.yul\":9587:9593   */\n      dup1\n        /* \"#utility.yul\":9640:9642   */\n      0x40\n        /* \"#utility.yul\":9628:9637   */\n      dup4\n        /* \"#utility.yul\":9619:9626   */\n      dup6\n        /* \"#utility.yul\":9615:9638   */\n      sub\n        /* \"#utility.yul\":9611:9643   */\n      slt\n        /* \"#utility.yul\":9608:9660   */\n      iszero\n      tag_513\n      jumpi\n        /* \"#utility.yul\":9656:9657   */\n      0x00\n        /* \"#utility.yul\":9653:9654   */\n      dup1\n        /* \"#utility.yul\":9646:9658   */\n      revert\n        /* \"#utility.yul\":9608:9660   */\n    tag_513:\n        /* \"#utility.yul\":9679:9708   */\n      tag_514\n        /* \"#utility.yul\":9698:9707   */\n      dup4\n        /* \"#utility.yul\":9679:9708   */\n      tag_403\n      jump\t// in\n    tag_514:\n        /* \"#utility.yul\":9669:9708   */\n      swap2\n      pop\n        /* \"#utility.yul\":9727:9765   */\n      tag_515\n        /* \"#utility.yul\":9761:9763   */\n      0x20\n        /* \"#utility.yul\":9750:9759   */\n      dup5\n        /* \"#utility.yul\":9746:9764   */\n      add\n        /* \"#utility.yul\":9727:9765   */\n      tag_403\n      jump\t// in\n    tag_515:\n        /* \"#utility.yul\":9717:9765   */\n      swap1\n      pop\n        /* \"#utility.yul\":9511:9771   */\n      swap3\n      pop\n      swap3\n      swap1\n      pop\n      jump\t// out\n        /* \"#utility.yul\":9776:10382   */\n    tag_94:\n        /* \"#utility.yul\":9880:9886   */\n      0x00\n        /* \"#utility.yul\":9888:9894   */\n      dup1\n        /* \"#utility.yul\":9896:9902   */\n      0x00\n        /* \"#utility.yul\":9904:9910   */\n      dup1\n        /* \"#utility.yul\":9912:9918   */\n      0x00\n        /* \"#utility.yul\":9965:9968   */\n      0xa0\n        /* \"#utility.yul\":9953:9962   */\n      dup7\n        /* \"#utility.yul\":9944:9951   */\n      dup9\n        /* \"#utility.yul\":9940:9963   */\n      sub\n        /* \"#utility.yul\":9936:9969   */\n      slt\n        /* \"#utility.yul\":9933:9986   */\n      iszero\n      tag_517\n      jumpi\n        /* \"#utility.yul\":9982:9983   */\n      0x00\n        /* \"#utility.yul\":9979:9980   */\n      dup1\n        /* \"#utility.yul\":9972:9984   */\n      revert\n        /* \"#utility.yul\":9933:9986   */\n    tag_517:\n        /* \"#utility.yul\":10005:10034   */\n      tag_518\n        /* \"#utility.yul\":10024:10033   */\n      dup7\n        /* \"#utility.yul\":10005:10034   */\n      tag_403\n      jump\t// in\n    tag_518:\n        /* \"#utility.yul\":9995:10034   */\n      swap5\n      pop\n        /* \"#utility.yul\":10053:10091   */\n      tag_519\n        /* \"#utility.yul\":10087:10089   */\n      0x20\n        /* \"#utility.yul\":10076:10085   */\n      dup8\n        /* \"#utility.yul\":10072:10090   */\n      add\n        /* \"#utility.yul\":10053:10091   */\n      tag_403\n      jump\t// in\n    tag_519:\n        /* \"#utility.yul\":10043:10091   */\n      swap4\n      pop\n        /* \"#utility.yul\":10138:10140   */\n      0x40\n        /* \"#utility.yul\":10127:10136   */\n      dup7\n        /* \"#utility.yul\":10123:10141   */\n      add\n        /* \"#utility.yul\":10110:10142   */\n      calldataload\n        /* \"#utility.yul\":10100:10142   */\n      swap3\n      pop\n        /* \"#utility.yul\":10189:10191   */\n      0x60\n        /* \"#utility.yul\":10178:10187   */\n      dup7\n        /* \"#utility.yul\":10174:10192   */\n      add\n        /* \"#utility.yul\":10161:10193   */\n      calldataload\n        /* \"#utility.yul\":10151:10193   */\n      swap2\n      pop\n        /* \"#utility.yul\":10244:10247   */\n      0x80\n        /* \"#utility.yul\":10233:10242   */\n      dup7\n        /* \"#utility.yul\":10229:10248   */\n      add\n        /* \"#utility.yul\":10216:10249   */\n      calldataload\n      sub(shl(0x40, 0x01), 0x01)\n        /* \"#utility.yul\":10264:10270   */\n      dup2\n        /* \"#utility.yul\":10261:10291   */\n      gt\n        /* \"#utility.yul\":10258:10308   */\n      iszero\n      tag_520\n      jumpi\n        /* \"#utility.yul\":10304:10305   */\n      0x00\n        /* \"#utility.yul\":10301:10302   */\n      dup1\n        /* \"#utility.yul\":10294:10306   */\n      revert\n        /* \"#utility.yul\":10258:10308   */\n    tag_520:\n        /* \"#utility.yul\":10327:10376   */\n      tag_484\n        /* \"#utility.yul\":10368:10375   */\n      dup9\n        /* \"#utility.yul\":10359:10365   */\n      dup3\n        /* \"#utility.yul\":10348:10357   */\n      dup10\n        /* \"#utility.yul\":10344:10366   */\n      add\n        /* \"#utility.yul\":10327:10376   */\n      tag_410\n      jump\t// in\n        /* \"#utility.yul\":10387:10573   */\n    tag_98:\n        /* \"#utility.yul\":10446:10452   */\n      0x00\n        /* \"#utility.yul\":10499:10501   */\n      0x20\n        /* \"#utility.yul\":10487:10496   */\n      dup3\n        /* \"#utility.yul\":10478:10485   */\n      dup5\n        /* \"#utility.yul\":10474:10497   */\n      sub\n        /* \"#utility.yul\":10470:10502   */\n      slt\n        /* \"#utility.yul\":10467:10519   */\n      iszero\n      tag_523\n      jumpi\n        /* \"#utility.yul\":10515:10516   */\n      0x00\n        /* \"#utility.yul\":10512:10513   */\n      dup1\n        /* \"#utility.yul\":10505:10517   */\n      revert\n        /* \"#utility.yul\":10467:10519   */\n    tag_523:\n        /* \"#utility.yul\":10538:10567   */\n      tag_424\n        /* \"#utility.yul\":10557:10566   */\n      dup3\n        /* \"#utility.yul\":10538:10567   */\n      tag_403\n      jump\t// in\n        /* \"#utility.yul\":10990:11346   */\n    tag_115:\n        /* \"#utility.yul\":11192:11194   */\n      0x20\n        /* \"#utility.yul\":11174:11195   */\n      dup1\n      dup3\n      mstore\n        /* \"#utility.yul\":11211:11229   */\n      dup2\n      dup2\n      add\n        /* \"#utility.yul\":11204:11234   */\n      mstore\n        /* \"#utility.yul\":11270:11304   */\n      0x4f776e61626c653a2063616c6c6572206973206e6f7420746865206f776e6572\n        /* \"#utility.yul\":11265:11267   */\n      0x40\n        /* \"#utility.yul\":11250:11268   */\n      dup3\n      add\n        /* \"#utility.yul\":11243:11305   */\n      mstore\n        /* \"#utility.yul\":11337:11339   */\n      0x60\n        /* \"#utility.yul\":11322:11340   */\n      add\n      swap1\n        /* \"#utility.yul\":10990:11346   */\n      jump\t// out\n        /* \"#utility.yul\":11351:11756   */\n    tag_126:\n        /* \"#utility.yul\":11553:11555   */\n      0x20\n        /* \"#utility.yul\":11535:11556   */\n      dup1\n      dup3\n      mstore\n        /* \"#utility.yul\":11592:11594   */\n      0x29\n        /* \"#utility.yul\":11572:11590   */\n      swap1\n      dup3\n      add\n        /* \"#utility.yul\":11565:11595   */\n      mstore\n        /* \"#utility.yul\":11631:11665   */\n      0x455243313135353a2063616c6c6572206973206e6f74206f776e6572206e6f72\n        /* \"#utility.yul\":11626:11628   */\n      0x40\n        /* \"#utility.yul\":11611:11629   */\n      dup3\n      add\n        /* \"#utility.yul\":11604:11666   */\n      mstore\n      shl(0xba, 0x08185c1c1c9bdd9959)\n        /* \"#utility.yul\":11697:11699   */\n      0x60\n        /* \"#utility.yul\":11682:11700   */\n      dup3\n      add\n        /* \"#utility.yul\":11675:11714   */\n      mstore\n        /* \"#utility.yul\":11746:11749   */\n      0x80\n        /* \"#utility.yul\":11731:11750   */\n      add\n      swap1\n        /* \"#utility.yul\":11351:11756   */\n      jump\t// out\n        /* \"#utility.yul\":11761:11888   */\n    tag_412:\n        /* \"#utility.yul\":11822:11832   */\n      0x4e487b71\n        /* \"#utility.yul\":11817:11820   */\n      0xe0\n        /* \"#utility.yul\":11813:11833   */\n      shl\n        /* \"#utility.yul\":11810:11811   */\n      0x00\n        /* \"#utility.yul\":11803:11834   */\n      mstore\n        /* \"#utility.yul\":11853:11857   */\n      0x11\n        /* \"#utility.yul\":11850:11851   */\n      0x04\n        /* \"#utility.yul\":11843:11858   */\n      mstore\n        /* \"#utility.yul\":11877:11881   */\n      0x24\n        /* \"#utility.yul\":11874:11875   */\n      0x00\n        /* \"#utility.yul\":11867:11882   */\n      revert\n        /* \"#utility.yul\":11893:12029   */\n    tag_130:\n        /* \"#utility.yul\":11932:11935   */\n      0x00\n        /* \"#utility.yul\":11960:11965   */\n      dup2\n        /* \"#utility.yul\":11950:11989   */\n      tag_531\n      jumpi\n        /* \"#utility.yul\":11969:11987   */\n      tag_531\n      tag_412\n      jump\t// in\n    tag_531:\n      pop\n      not(0x00)\n        /* \"#utility.yul\":12005:12023   */\n      add\n      swap1\n        /* \"#utility.yul\":11893:12029   */\n      jump\t// out\n        /* \"#utility.yul\":12034:12414   */\n    tag_133:\n        /* \"#utility.yul\":12113:12114   */\n      0x01\n        /* \"#utility.yul\":12109:12121   */\n      dup2\n      dup2\n      shr\n      swap1\n        /* \"#utility.yul\":12156:12168   */\n      dup3\n      and\n      dup1\n        /* \"#utility.yul\":12177:12238   */\n      tag_533\n      jumpi\n        /* \"#utility.yul\":12231:12235   */\n      0x7f\n        /* \"#utility.yul\":12223:12229   */\n      dup3\n        /* \"#utility.yul\":12219:12236   */\n      and\n        /* \"#utility.yul\":12209:12236   */\n      swap2\n      pop\n        /* \"#utility.yul\":12177:12238   */\n    tag_533:\n        /* \"#utility.yul\":12284:12286   */\n      0x20\n        /* \"#utility.yul\":12276:12282   */\n      dup3\n        /* \"#utility.yul\":12273:12287   */\n      lt\n        /* \"#utility.yul\":12253:12271   */\n      dup2\n        /* \"#utility.yul\":12250:12288   */\n      sub\n        /* \"#utility.yul\":12247:12408   */\n      tag_534\n      jumpi\n        /* \"#utility.yul\":12330:12340   */\n      0x4e487b71\n        /* \"#utility.yul\":12325:12328   */\n      0xe0\n        /* \"#utility.yul\":12321:12341   */\n      shl\n        /* \"#utility.yul\":12318:12319   */\n      0x00\n        /* \"#utility.yul\":12311:12342   */\n      mstore\n        /* \"#utility.yul\":12365:12369   */\n      0x22\n        /* \"#utility.yul\":12362:12363   */\n      0x04\n        /* \"#utility.yul\":12355:12370   */\n      mstore\n        /* \"#utility.yul\":12393:12397   */\n      0x24\n        /* \"#utility.yul\":12390:12391   */\n      0x00\n        /* \"#utility.yul\":12383:12398   */\n      revert\n        /* \"#utility.yul\":12247:12408   */\n    tag_534:\n      pop\n        /* \"#utility.yul\":12034:12414   */\n      swap2\n      swap1\n      pop\n      jump\t// out\n        /* \"#utility.yul\":12419:12547   */\n    tag_147:\n        /* \"#utility.yul\":12459:12462   */\n      0x00\n        /* \"#utility.yul\":12490:12491   */\n      dup3\n        /* \"#utility.yul\":12486:12492   */\n      not\n        /* \"#utility.yul\":12483:12484   */\n      dup3\n        /* \"#utility.yul\":12480:12493   */\n      gt\n        /* \"#utility.yul\":12477:12516   */\n      iszero\n      tag_537\n      jumpi\n        /* \"#utility.yul\":12496:12514   */\n      tag_537\n      tag_412\n      jump\t// in\n    tag_537:\n      pop\n        /* \"#utility.yul\":12532:12541   */\n      add\n      swap1\n        /* \"#utility.yul\":12419:12547   */\n      jump\t// out\n        /* \"#utility.yul\":13381:13508   */\n    tag_172:\n        /* \"#utility.yul\":13442:13452   */\n      0x4e487b71\n        /* \"#utility.yul\":13437:13440   */\n      0xe0\n        /* \"#utility.yul\":13433:13453   */\n      shl\n        /* \"#utility.yul\":13430:13431   */\n      0x00\n        /* \"#utility.yul\":13423:13454   */\n      mstore\n        /* \"#utility.yul\":13473:13477   */\n      0x32\n        /* \"#utility.yul\":13470:13471   */\n      0x04\n        /* \"#utility.yul\":13463:13478   */\n      mstore\n        /* \"#utility.yul\":13497:13501   */\n      0x24\n        /* \"#utility.yul\":13494:13495   */\n      0x00\n        /* \"#utility.yul\":13487:13502   */\n      revert\n        /* \"#utility.yul\":13513:13648   */\n    tag_178:\n        /* \"#utility.yul\":13552:13555   */\n      0x00\n        /* \"#utility.yul\":13573:13590   */\n      0x01\n      dup3\n      add\n        /* \"#utility.yul\":13570:13613   */\n      tag_543\n      jumpi\n        /* \"#utility.yul\":13593:13611   */\n      tag_543\n      tag_412\n      jump\t// in\n    tag_543:\n      pop\n        /* \"#utility.yul\":13640:13641   */\n      0x01\n        /* \"#utility.yul\":13629:13642   */\n      add\n      swap1\n        /* \"#utility.yul\":13513:13648   */\n      jump\t// out\n        /* \"#utility.yul\":13653:13778   */\n    tag_204:\n        /* \"#utility.yul\":13693:13697   */\n      0x00\n        /* \"#utility.yul\":13721:13722   */\n      dup3\n        /* \"#utility.yul\":13718:13719   */\n      dup3\n        /* \"#utility.yul\":13715:13723   */\n      lt\n        /* \"#utility.yul\":13712:13746   */\n      iszero\n      tag_546\n      jumpi\n        /* \"#utility.yul\":13726:13744   */\n      tag_546\n      tag_412\n      jump\t// in\n    tag_546:\n      pop\n        /* \"#utility.yul\":13763:13772   */\n      sub\n      swap1\n        /* \"#utility.yul\":13653:13778   */\n      jump\t// out\n        /* \"#utility.yul\":15654:16058   */\n    tag_284:\n        /* \"#utility.yul\":15856:15858   */\n      0x20\n        /* \"#utility.yul\":15838:15859   */\n      dup1\n      dup3\n      mstore\n        /* \"#utility.yul\":15895:15897   */\n      0x28\n        /* \"#utility.yul\":15875:15893   */\n      swap1\n      dup3\n      add\n        /* \"#utility.yul\":15868:15898   */\n      mstore\n        /* \"#utility.yul\":15934:15968   */\n      0x455243313135353a2069647320616e6420616d6f756e7473206c656e67746820\n        /* \"#utility.yul\":15929:15931   */\n      0x40\n        /* \"#utility.yul\":15914:15932   */\n      dup3\n      add\n        /* \"#utility.yul\":15907:15969   */\n      mstore\n      shl(0xc3, 0x0dad2e6dac2e8c6d)\n        /* \"#utility.yul\":16000:16002   */\n      0x60\n        /* \"#utility.yul\":15985:16003   */\n      dup3\n      add\n        /* \"#utility.yul\":15978:16016   */\n      mstore\n        /* \"#utility.yul\":16048:16051   */\n      0x80\n        /* \"#utility.yul\":16033:16052   */\n      add\n      swap1\n        /* \"#utility.yul\":15654:16058   */\n      jump\t// out\n        /* \"#utility.yul\":16063:16528   */\n    tag_297:\n        /* \"#utility.yul\":16320:16322   */\n      0x40\n        /* \"#utility.yul\":16309:16318   */\n      dup2\n        /* \"#utility.yul\":16302:16323   */\n      mstore\n        /* \"#utility.yul\":16283:16287   */\n      0x00\n        /* \"#utility.yul\":16346:16402   */\n      tag_554\n        /* \"#utility.yul\":16398:16400   */\n      0x40\n        /* \"#utility.yul\":16387:16396   */\n      dup4\n        /* \"#utility.yul\":16383:16401   */\n      add\n        /* \"#utility.yul\":16375:16381   */\n      dup6\n        /* \"#utility.yul\":16346:16402   */\n      tag_411\n      jump\t// in\n    tag_554:\n        /* \"#utility.yul\":16450:16459   */\n      dup3\n        /* \"#utility.yul\":16442:16448   */\n      dup2\n        /* \"#utility.yul\":16438:16460   */\n      sub\n        /* \"#utility.yul\":16433:16435   */\n      0x20\n        /* \"#utility.yul\":16422:16431   */\n      dup5\n        /* \"#utility.yul\":16418:16436   */\n      add\n        /* \"#utility.yul\":16411:16461   */\n      mstore\n        /* \"#utility.yul\":16478:16522   */\n      tag_555\n        /* \"#utility.yul\":16515:16521   */\n      dup2\n        /* \"#utility.yul\":16507:16513   */\n      dup6\n        /* \"#utility.yul\":16478:16522   */\n      tag_411\n      jump\t// in\n    tag_555:\n        /* \"#utility.yul\":16470:16522   */\n      swap6\n        /* \"#utility.yul\":16063:16528   */\n      swap5\n      pop\n      pop\n      pop\n      pop\n      pop\n      jump\t// out\n        /* \"#utility.yul\":16533:16934   */\n    tag_305:\n        /* \"#utility.yul\":16735:16737   */\n      0x20\n        /* \"#utility.yul\":16717:16738   */\n      dup1\n      dup3\n      mstore\n        /* \"#utility.yul\":16774:16776   */\n      0x25\n        /* \"#utility.yul\":16754:16772   */\n      swap1\n      dup3\n      add\n        /* \"#utility.yul\":16747:16777   */\n      mstore\n        /* \"#utility.yul\":16813:16847   */\n      0x455243313135353a207472616e7366657220746f20746865207a65726f206164\n        /* \"#utility.yul\":16808:16810   */\n      0x40\n        /* \"#utility.yul\":16793:16811   */\n      dup3\n      add\n        /* \"#utility.yul\":16786:16848   */\n      mstore\n      shl(0xd8, 0x6472657373)\n        /* \"#utility.yul\":16879:16881   */\n      0x60\n        /* \"#utility.yul\":16864:16882   */\n      dup3\n      add\n        /* \"#utility.yul\":16857:16892   */\n      mstore\n        /* \"#utility.yul\":16924:16927   */\n      0x80\n        /* \"#utility.yul\":16909:16928   */\n      add\n      swap1\n        /* \"#utility.yul\":16533:16934   */\n      jump\t// out\n        /* \"#utility.yul\":16939:17345   */\n    tag_317:\n        /* \"#utility.yul\":17141:17143   */\n      0x20\n        /* \"#utility.yul\":17123:17144   */\n      dup1\n      dup3\n      mstore\n        /* \"#utility.yul\":17180:17182   */\n      0x2a\n        /* \"#utility.yul\":17160:17178   */\n      swap1\n      dup3\n      add\n        /* \"#utility.yul\":17153:17183   */\n      mstore\n        /* \"#utility.yul\":17219:17253   */\n      0x455243313135353a20696e73756666696369656e742062616c616e636520666f\n        /* \"#utility.yul\":17214:17216   */\n      0x40\n        /* \"#utility.yul\":17199:17217   */\n      dup3\n      add\n        /* \"#utility.yul\":17192:17254   */\n      mstore\n      shl(0xb1, 0x39103a3930b739b332b9)\n        /* \"#utility.yul\":17285:17287   */\n      0x60\n        /* \"#utility.yul\":17270:17288   */\n      dup3\n      add\n        /* \"#utility.yul\":17263:17303   */\n      mstore\n        /* \"#utility.yul\":17335:17338   */\n      0x80\n        /* \"#utility.yul\":17320:17339   */\n      add\n      swap1\n        /* \"#utility.yul\":16939:17345   */\n      jump\t// out\n        /* \"#utility.yul\":17760:18587   */\n    tag_353:\n      sub(shl(0xa0, 0x01), 0x01)\n        /* \"#utility.yul\":18157:18172   */\n      dup7\n      dup2\n      and\n        /* \"#utility.yul\":18139:18173   */\n      dup3\n      mstore\n        /* \"#utility.yul\":18209:18224   */\n      dup6\n      and\n        /* \"#utility.yul\":18204:18206   */\n      0x20\n        /* \"#utility.yul\":18189:18207   */\n      dup3\n      add\n        /* \"#utility.yul\":18182:18225   */\n      mstore\n        /* \"#utility.yul\":18119:18122   */\n      0xa0\n        /* \"#utility.yul\":18256:18258   */\n      0x40\n        /* \"#utility.yul\":18241:18259   */\n      dup3\n      add\n        /* \"#utility.yul\":18234:18265   */\n      dup2\n      swap1\n      mstore\n        /* \"#utility.yul\":18082:18086   */\n      0x00\n      swap1\n        /* \"#utility.yul\":18288:18345   */\n      tag_560\n      swap1\n        /* \"#utility.yul\":18325:18344   */\n      dup4\n      add\n        /* \"#utility.yul\":18317:18323   */\n      dup7\n        /* \"#utility.yul\":18288:18345   */\n      tag_411\n      jump\t// in\n    tag_560:\n        /* \"#utility.yul\":18393:18402   */\n      dup3\n        /* \"#utility.yul\":18385:18391   */\n      dup2\n        /* \"#utility.yul\":18381:18403   */\n      sub\n        /* \"#utility.yul\":18376:18378   */\n      0x60\n        /* \"#utility.yul\":18365:18374   */\n      dup5\n        /* \"#utility.yul\":18361:18379   */\n      add\n        /* \"#utility.yul\":18354:18404   */\n      mstore\n        /* \"#utility.yul\":18427:18471   */\n      tag_561\n        /* \"#utility.yul\":18464:18470   */\n      dup2\n        /* \"#utility.yul\":18456:18462   */\n      dup7\n        /* \"#utility.yul\":18427:18471   */\n      tag_411\n      jump\t// in\n    tag_561:\n        /* \"#utility.yul\":18413:18471   */\n      swap1\n      pop\n        /* \"#utility.yul\":18520:18529   */\n      dup3\n        /* \"#utility.yul\":18512:18518   */\n      dup2\n        /* \"#utility.yul\":18508:18530   */\n      sub\n        /* \"#utility.yul\":18502:18505   */\n      0x80\n        /* \"#utility.yul\":18491:18500   */\n      dup5\n        /* \"#utility.yul\":18487:18506   */\n      add\n        /* \"#utility.yul\":18480:18531   */\n      mstore\n        /* \"#utility.yul\":18548:18581   */\n      tag_562\n        /* \"#utility.yul\":18574:18580   */\n      dup2\n        /* \"#utility.yul\":18566:18572   */\n      dup6\n        /* \"#utility.yul\":18548:18581   */\n      tag_407\n      jump\t// in\n    tag_562:\n        /* \"#utility.yul\":18540:18581   */\n      swap9\n        /* \"#utility.yul\":17760:18587   */\n      swap8\n      pop\n      pop\n      pop\n      pop\n      pop\n      pop\n      pop\n      pop\n      jump\t// out\n        /* \"#utility.yul\":18592:18841   */\n    tag_356:\n        /* \"#utility.yul\":18661:18667   */\n      0x00\n        /* \"#utility.yul\":18714:18716   */\n      0x20\n        /* \"#utility.yul\":18702:18711   */\n      dup3\n        /* \"#utility.yul\":18693:18700   */\n      dup5\n        /* \"#utility.yul\":18689:18712   */\n      sub\n        /* \"#utility.yul\":18685:18717   */\n      slt\n        /* \"#utility.yul\":18682:18734   */\n      iszero\n      tag_564\n      jumpi\n        /* \"#utility.yul\":18730:18731   */\n      0x00\n        /* \"#utility.yul\":18727:18728   */\n      dup1\n        /* \"#utility.yul\":18720:18732   */\n      revert\n        /* \"#utility.yul\":18682:18734   */\n    tag_564:\n        /* \"#utility.yul\":18762:18771   */\n      dup2\n        /* \"#utility.yul\":18756:18772   */\n      mload\n        /* \"#utility.yul\":18781:18811   */\n      tag_424\n        /* \"#utility.yul\":18805:18810   */\n      dup2\n        /* \"#utility.yul\":18781:18811   */\n      tag_404\n      jump\t// in\n        /* \"#utility.yul\":18846:19025   */\n    tag_362:\n        /* \"#utility.yul\":18881:18884   */\n      0x00\n        /* \"#utility.yul\":18923:18924   */\n      0x03\n        /* \"#utility.yul\":18905:18921   */\n      returndatasize\n        /* \"#utility.yul\":18902:18925   */\n      gt\n        /* \"#utility.yul\":18899:19019   */\n      iszero\n      tag_567\n      jumpi\n        /* \"#utility.yul\":18969:18970   */\n      0x04\n        /* \"#utility.yul\":18966:18967   */\n      0x00\n        /* \"#utility.yul\":18963:18964   */\n      dup1\n        /* \"#utility.yul\":18948:18971   */\n      returndatacopy\n      pop\n        /* \"#utility.yul\":19006:19007   */\n      0x00\n        /* \"#utility.yul\":19000:19008   */\n      mload\n        /* \"#utility.yul\":18995:18998   */\n      0xe0\n        /* \"#utility.yul\":18991:19009   */\n      shr\n        /* \"#utility.yul\":18899:19019   */\n    tag_567:\n        /* \"#utility.yul\":18846:19025   */\n      swap1\n      jump\t// out\n        /* \"#utility.yul\":19030:19701   */\n    tag_364:\n        /* \"#utility.yul\":19069:19072   */\n      0x00\n        /* \"#utility.yul\":19111:19115   */\n      0x44\n        /* \"#utility.yul\":19093:19109   */\n      returndatasize\n        /* \"#utility.yul\":19090:19116   */\n      lt\n        /* \"#utility.yul\":19087:19126   */\n      iszero\n      tag_569\n      jumpi\n        /* \"#utility.yul\":19030:19701   */\n      swap1\n      jump\t// out\n        /* \"#utility.yul\":19087:19126   */\n    tag_569:\n        /* \"#utility.yul\":19153:19155   */\n      0x40\n        /* \"#utility.yul\":19147:19156   */\n      mload\n      not(0x03)\n        /* \"#utility.yul\":19218:19234   */\n      returndatasize\n        /* \"#utility.yul\":19214:19239   */\n      dup2\n      add\n        /* \"#utility.yul\":19211:19212   */\n      0x04\n        /* \"#utility.yul\":19147:19156   */\n      dup4\n        /* \"#utility.yul\":19190:19240   */\n      returndatacopy\n        /* \"#utility.yul\":19269:19273   */\n      dup2\n        /* \"#utility.yul\":19263:19274   */\n      mload\n        /* \"#utility.yul\":19293:19309   */\n      returndatasize\n      sub(shl(0x40, 0x01), 0x01)\n        /* \"#utility.yul\":19399:19401   */\n      dup2\n        /* \"#utility.yul\":19392:19396   */\n      0x24\n        /* \"#utility.yul\":19384:19390   */\n      dup5\n        /* \"#utility.yul\":19380:19397   */\n      add\n        /* \"#utility.yul\":19377:19402   */\n      gt\n        /* \"#utility.yul\":19372:19374   */\n      dup2\n        /* \"#utility.yul\":19364:19370   */\n      dup5\n        /* \"#utility.yul\":19361:19375   */\n      gt\n        /* \"#utility.yul\":19358:19403   */\n      or\n        /* \"#utility.yul\":19355:19413   */\n      iszero\n      tag_570\n      jumpi\n        /* \"#utility.yul\":19406:19411   */\n      pop\n      pop\n      pop\n      pop\n      pop\n        /* \"#utility.yul\":19030:19701   */\n      swap1\n      jump\t// out\n        /* \"#utility.yul\":19355:19413   */\n    tag_570:\n        /* \"#utility.yul\":19443:19449   */\n      dup3\n        /* \"#utility.yul\":19437:19441   */\n      dup6\n        /* \"#utility.yul\":19433:19450   */\n      add\n        /* \"#utility.yul\":19422:19450   */\n      swap2\n      pop\n        /* \"#utility.yul\":19479:19482   */\n      dup2\n        /* \"#utility.yul\":19473:19483   */\n      mload\n        /* \"#utility.yul\":19506:19508   */\n      dup2\n        /* \"#utility.yul\":19498:19504   */\n      dup2\n        /* \"#utility.yul\":19495:19509   */\n      gt\n        /* \"#utility.yul\":19492:19519   */\n      iszero\n      tag_571\n      jumpi\n        /* \"#utility.yul\":19512:19517   */\n      pop\n      pop\n      pop\n      pop\n      pop\n      pop\n        /* \"#utility.yul\":19030:19701   */\n      swap1\n      jump\t// out\n        /* \"#utility.yul\":19492:19519   */\n    tag_571:\n        /* \"#utility.yul\":19596:19598   */\n      dup5\n        /* \"#utility.yul\":19577:19593   */\n      returndatasize\n        /* \"#utility.yul\":19571:19575   */\n      dup8\n        /* \"#utility.yul\":19567:19594   */\n      add\n        /* \"#utility.yul\":19563:19599   */\n      add\n        /* \"#utility.yul\":19556:19560   */\n      0x20\n        /* \"#utility.yul\":19547:19553   */\n      dup3\n        /* \"#utility.yul\":19542:19545   */\n      dup6\n        /* \"#utility.yul\":19538:19554   */\n      add\n        /* \"#utility.yul\":19534:19561   */\n      add\n        /* \"#utility.yul\":19531:19600   */\n      gt\n        /* \"#utility.yul\":19528:19610   */\n      iszero\n      tag_572\n      jumpi\n        /* \"#utility.yul\":19603:19608   */\n      pop\n      pop\n      pop\n      pop\n      pop\n      pop\n        /* \"#utility.yul\":19030:19701   */\n      swap1\n      jump\t// out\n        /* \"#utility.yul\":19528:19610   */\n    tag_572:\n        /* \"#utility.yul\":19619:19676   */\n      tag_573\n        /* \"#utility.yul\":19670:19674   */\n      0x20\n        /* \"#utility.yul\":19661:19667   */\n      dup3\n        /* \"#utility.yul\":19653:19659   */\n      dup7\n        /* \"#utility.yul\":19649:19668   */\n      add\n        /* \"#utility.yul\":19645:19675   */\n      add\n        /* \"#utility.yul\":19639:19643   */\n      dup8\n        /* \"#utility.yul\":19619:19676   */\n      tag_405\n      jump\t// in\n    tag_573:\n      pop\n        /* \"#utility.yul\":19692:19695   */\n      swap1\n      swap6\n        /* \"#utility.yul\":19030:19701   */\n      swap5\n      pop\n      pop\n      pop\n      pop\n      pop\n      jump\t// out\n        /* \"#utility.yul\":20127:20531   */\n    tag_372:\n        /* \"#utility.yul\":20329:20331   */\n      0x20\n        /* \"#utility.yul\":20311:20332   */\n      dup1\n      dup3\n      mstore\n        /* \"#utility.yul\":20368:20370   */\n      0x28\n        /* \"#utility.yul\":20348:20366   */\n      swap1\n      dup3\n      add\n        /* \"#utility.yul\":20341:20371   */\n      mstore\n        /* \"#utility.yul\":20407:20441   */\n      0x455243313135353a204552433131353552656365697665722072656a65637465\n        /* \"#utility.yul\":20402:20404   */\n      0x40\n        /* \"#utility.yul\":20387:20405   */\n      dup3\n      add\n        /* \"#utility.yul\":20380:20442   */\n      mstore\n      shl(0xc0, 0x6420746f6b656e73)\n        /* \"#utility.yul\":20473:20475   */\n      0x60\n        /* \"#utility.yul\":20458:20476   */\n      dup3\n      add\n        /* \"#utility.yul\":20451:20489   */\n      mstore\n        /* \"#utility.yul\":20521:20524   */\n      0x80\n        /* \"#utility.yul\":20506:20525   */\n      add\n      swap1\n        /* \"#utility.yul\":20127:20531   */\n      jump\t// out\n        /* \"#utility.yul\":20536:21097   */\n    tag_377:\n      sub(shl(0xa0, 0x01), 0x01)\n        /* \"#utility.yul\":20833:20848   */\n      dup7\n      dup2\n      and\n        /* \"#utility.yul\":20815:20849   */\n      dup3\n      mstore\n        /* \"#utility.yul\":20885:20900   */\n      dup6\n      and\n        /* \"#utility.yul\":20880:20882   */\n      0x20\n        /* \"#utility.yul\":20865:20883   */\n      dup3\n      add\n        /* \"#utility.yul\":20858:20901   */\n      mstore\n        /* \"#utility.yul\":20932:20934   */\n      0x40\n        /* \"#utility.yul\":20917:20935   */\n      dup2\n      add\n        /* \"#utility.yul\":20910:20944   */\n      dup5\n      swap1\n      mstore\n        /* \"#utility.yul\":20975:20977   */\n      0x60\n        /* \"#utility.yul\":20960:20978   */\n      dup2\n      add\n        /* \"#utility.yul\":20953:20987   */\n      dup4\n      swap1\n      mstore\n        /* \"#utility.yul\":20795:20798   */\n      0xa0\n        /* \"#utility.yul\":21018:21021   */\n      0x80\n        /* \"#utility.yul\":21003:21022   */\n      dup3\n      add\n        /* \"#utility.yul\":20996:21028   */\n      dup2\n      swap1\n      mstore\n        /* \"#utility.yul\":20758:20762   */\n      0x00\n      swap1\n        /* \"#utility.yul\":21045:21091   */\n      tag_577\n      swap1\n        /* \"#utility.yul\":21071:21090   */\n      dup4\n      add\n        /* \"#utility.yul\":21063:21069   */\n      dup5\n        /* \"#utility.yul\":21045:21091   */\n      tag_407\n      jump\t// in\n    tag_577:\n        /* \"#utility.yul\":21037:21091   */\n      swap8\n        /* \"#utility.yul\":20536:21097   */\n      swap7\n      pop\n      pop\n      pop\n      pop\n      pop\n      pop\n      pop\n      jump\t// out\n\n    auxdata: 0xa26469706673582212201f72452adf6d4d0760c56819a37b7bbe0a3ae49c492fd97c9b80ee783754a1f364736f6c634300080d0033\n}\n",
				"bytecode": {
					"linkReferences": {},
					"object": "60806040523480156200001157600080fd5b50604051806060016040528060278152602001620020a260279139620000378162000049565b50620000433362000062565b62000196565b80516200005e906002906020840190620000b4565b5050565b600380546001600160a01b038381166001600160a01b0319831681179093556040519116919082907f8be0079c531659141344cd1fd0a4f28419497f9722a3daafe3b4186f6b6457e090600090a35050565b828054620000c2906200015a565b90600052602060002090601f016020900481019282620000e6576000855562000131565b82601f106200010157805160ff191683800117855562000131565b8280016001018555821562000131579182015b828111156200013157825182559160200191906001019062000114565b506200013f92915062000143565b5090565b5b808211156200013f576000815560010162000144565b600181811c908216806200016f57607f821691505b6020821081036200019057634e487b7160e01b600052602260045260246000fd5b50919050565b611efc80620001a66000396000f3fe608060405234801561001057600080fd5b50600436106101155760003560e01c806371ac14e6116100a2578063a22cb46511610071578063a22cb46514610243578063ad974f4c14610256578063e985e9c51461025e578063f242432a1461029a578063f2fde38b146102ad57600080fd5b806371ac14e6146101f95780637824407f1461020c5780638da5cb5b146102155780639416308e1461023057600080fd5b80630e89341c116100e95780630e89341c1461018b5780631f7fdffa146101ab5780632eb2c2d6146101be5780634e1273f4146101d1578063715018a6146101f157600080fd5b8062fdd58e1461011a57806301ffc9a71461014057806302fe530514610163578063092f2dbf14610178575b600080fd5b61012d6101283660046114a2565b6102c0565b6040519081526020015b60405180910390f35b61015361014e3660046114e2565b610357565b6040519015158152602001610137565b6101766101713660046115a5565b6103a9565b005b6101766101863660046115f5565b6103df565b61019e610199366004611628565b61043a565b604051610137919061168e565b6101766101b9366004611755565b6104ce565b6101766101cc3660046117ed565b61051c565b6101e46101df366004611896565b6105b3565b604051610137919061199b565b6101766106dc565b610176610207366004611628565b610712565b61012d60045481565b6003546040516001600160a01b039091168152602001610137565b61017661023e3660046119ae565b61087d565b6101766102513660046119e3565b61099a565b60045461012d565b61015361026c366004611a1f565b6001600160a01b03918216600090815260016020908152604080832093909416825291909152205460ff1690565b6101766102a8366004611a52565b6109a9565b6101766102bb366004611ab6565b6109ee565b60006001600160a01b0383166103315760405162461bcd60e51b815260206004820152602b60248201527f455243313135353a2062616c616e636520717565727920666f7220746865207a60448201526a65726f206164647265737360a81b60648201526084015b60405180910390fd5b506000908152602081815260408083206001600160a01b03949094168352929052205490565b60006001600160e01b03198216636cdb3d1360e11b148061038857506001600160e01b031982166303a24d0760e21b145b806103a357506301ffc9a760e01b6001600160e01b03198316145b92915050565b6003546001600160a01b031633146103d35760405162461bcd60e51b815260040161032890611ad1565b6103dc81610a86565b50565b6001600160a01b0383163314806103fb57506103fb833361026c565b6104175760405162461bcd60e51b815260040161032890611b06565b610422838383610a99565b60046000815461043190611b65565b90915550505050565b60606002805461044990611b7c565b80601f016020809104026020016040519081016040528092919081815260200182805461047590611b7c565b80156104c25780601f10610497576101008083540402835291602001916104c2565b820191906000526020600020905b8154815290600101906020018083116104a557829003601f168201915b50505050509050919050565b6003546001600160a01b031633146104f85760405162461bcd60e51b815260040161032890611ad1565b61050484848484610c13565b82516004546105139190611bb6565b60045550505050565b6001600160a01b0385163314806105385750610538853361026c565b61059f5760405162461bcd60e51b815260206004820152603260248201527f455243313135353a207472616e736665722063616c6c6572206973206e6f74206044820152711bdddb995c881b9bdc88185c1c1c9bdd995960721b6064820152608401610328565b6105ac8585858585610d98565b5050505050565b606081518351146106185760405162461bcd60e51b815260206004820152602960248201527f455243313135353a206163636f756e747320616e6420696473206c656e677468604482015268040dad2e6dac2e8c6d60bb1b6064820152608401610328565b600083516001600160401b0381111561063357610633611506565b60405190808252806020026020018201604052801561065c578160200160208202803683370190505b50905060005b84518110156106d4576106a785828151811061068057610680611bce565b602002602001015185838151811061069a5761069a611bce565b60200260200101516102c0565b8282815181106106b9576106b9611bce565b60209081029190910101526106cd81611be4565b9050610662565b509392505050565b6003546001600160a01b031633146107065760405162461bcd60e51b815260040161032890611ad1565b6107106000610f34565b565b6003546001600160a01b0316331461073c5760405162461bcd60e51b815260040161032890611ad1565b6000816001600160401b0381111561075657610756611506565b60405190808252806020026020018201604052801561077f578160200160208202803683370190505b5090506000826001600160401b0381111561079c5761079c611506565b6040519080825280602002602001820160405280156107c5578160200160208202803683370190505b506004549091505b6004546107da9085611bb6565b81101561084b578083600454836107f19190611bfd565b8151811061080157610801611bce565b6020026020010181815250506001826004548361081e9190611bfd565b8151811061082e5761082e611bce565b60209081029190910101528061084381611be4565b9150506107cd565b5061086733838360405180602001604052806000815250610c13565b826004546108759190611bb6565b600455505050565b6000826001600160401b0381111561089757610897611506565b6040519080825280602002602001820160405280156108c0578160200160208202803683370190505b5090506000836001600160401b038111156108dd576108dd611506565b604051908082528060200260200182016040528015610906578160200160208202803683370190505b509050845b6109158686611bb6565b81101561097d5780836109288883611bfd565b8151811061093857610938611bce565b60209081029190910101526001826109508884611bfd565b8151811061096057610960611bce565b60209081029190910101528061097581611be4565b91505061090b565b506105ac338484846040518060200160405280600081525061051c565b6109a5338383610f86565b5050565b6001600160a01b0385163314806109c557506109c5853361026c565b6109e15760405162461bcd60e51b815260040161032890611b06565b6105ac8585858585611066565b6003546001600160a01b03163314610a185760405162461bcd60e51b815260040161032890611ad1565b6001600160a01b038116610a7d5760405162461bcd60e51b815260206004820152602660248201527f4f776e61626c653a206e6577206f776e657220697320746865207a65726f206160448201526564647265737360d01b6064820152608401610328565b6103dc81610f34565b80516109a59060029060208401906113ed565b6001600160a01b038316610afb5760405162461bcd60e51b815260206004820152602360248201527f455243313135353a206275726e2066726f6d20746865207a65726f206164647260448201526265737360e81b6064820152608401610328565b33610b2b81856000610b0c8761118c565b610b158761118c565b5050604080516020810190915260009052505050565b6000838152602081815260408083206001600160a01b038816845290915290205482811015610ba85760405162461bcd60e51b8152602060048201526024808201527f455243313135353a206275726e20616d6f756e7420657863656564732062616c604482015263616e636560e01b6064820152608401610328565b6000848152602081815260408083206001600160a01b03898116808652918452828520888703905582518981529384018890529092908616917fc3d58168c5ae7397731d063d5bbf3d657854427343f4c083240f7aacaa2d0f62910160405180910390a45050505050565b6001600160a01b038416610c735760405162461bcd60e51b815260206004820152602160248201527f455243313135353a206d696e7420746f20746865207a65726f206164647265736044820152607360f81b6064820152608401610328565b8151835114610c945760405162461bcd60e51b815260040161032890611c14565b3360005b8451811015610d3057838181518110610cb357610cb3611bce565b6020026020010151600080878481518110610cd057610cd0611bce565b602002602001015181526020019081526020016000206000886001600160a01b03166001600160a01b031681526020019081526020016000206000828254610d189190611bb6565b90915550819050610d2881611be4565b915050610c98565b50846001600160a01b031660006001600160a01b0316826001600160a01b03167f4a39dc06d4c0dbc64b70af90fd698a233a518aa5d07e595d983b8c0526c8f7fb8787604051610d81929190611c5c565b60405180910390a46105ac816000878787876111d7565b8151835114610db95760405162461bcd60e51b815260040161032890611c14565b6001600160a01b038416610ddf5760405162461bcd60e51b815260040161032890611c8a565b3360005b8451811015610ec6576000858281518110610e0057610e00611bce565b602002602001015190506000858381518110610e1e57610e1e611bce565b602090810291909101810151600084815280835260408082206001600160a01b038e168352909352919091205490915081811015610e6e5760405162461bcd60e51b815260040161032890611ccf565b6000838152602081815260408083206001600160a01b038e8116855292528083208585039055908b16825281208054849290610eab908490611bb6565b9250508190555050505080610ebf90611be4565b9050610de3565b50846001600160a01b0316866001600160a01b0316826001600160a01b03167f4a39dc06d4c0dbc64b70af90fd698a233a518aa5d07e595d983b8c0526c8f7fb8787604051610f16929190611c5c565b60405180910390a4610f2c8187878787876111d7565b505050505050565b600380546001600160a01b038381166001600160a01b0319831681179093556040519116919082907f8be0079c531659141344cd1fd0a4f28419497f9722a3daafe3b4186f6b6457e090600090a35050565b816001600160a01b0316836001600160a01b031603610ff95760405162461bcd60e51b815260206004820152602960248201527f455243313135353a2073657474696e6720617070726f76616c20737461747573604482015268103337b91039b2b63360b91b6064820152608401610328565b6001600160a01b03838116600081815260016020908152604080832094871680845294825291829020805460ff191686151590811790915591519182527f17307eab39ab6107e8899845ad3d59bd9653f200f220920489ca2b5937696c31910160405180910390a3505050565b6001600160a01b03841661108c5760405162461bcd60e51b815260040161032890611c8a565b336110a581878761109c8861118c565b6105ac8861118c565b6000848152602081815260408083206001600160a01b038a168452909152902054838110156110e65760405162461bcd60e51b815260040161032890611ccf565b6000858152602081815260408083206001600160a01b038b8116855292528083208785039055908816825281208054869290611123908490611bb6565b909155505060408051868152602081018690526001600160a01b03808916928a821692918616917fc3d58168c5ae7397731d063d5bbf3d657854427343f4c083240f7aacaa2d0f62910160405180910390a4611183828888888888611332565b50505050505050565b604080516001808252818301909252606091600091906020808301908036833701905050905082816000815181106111c6576111c6611bce565b602090810291909101015292915050565b6001600160a01b0384163b15610f2c5760405163bc197c8160e01b81526001600160a01b0385169063bc197c819061121b9089908990889088908890600401611d19565b6020604051808303816000875af1925050508015611256575060408051601f3d908101601f1916820190925261125391810190611d77565b60015b61130257611262611d94565b806308c379a00361129b5750611276611db0565b80611281575061129d565b8060405162461bcd60e51b8152600401610328919061168e565b505b60405162461bcd60e51b815260206004820152603460248201527f455243313135353a207472616e7366657220746f206e6f6e20455243313135356044820152732932b1b2b4bb32b91034b6b83632b6b2b73a32b960611b6064820152608401610328565b6001600160e01b0319811663bc197c8160e01b146111835760405162461bcd60e51b815260040161032890611e39565b6001600160a01b0384163b15610f2c5760405163f23a6e6160e01b81526001600160a01b0385169063f23a6e61906113769089908990889088908890600401611e81565b6020604051808303816000875af19250505080156113b1575060408051601f3d908101601f191682019092526113ae91810190611d77565b60015b6113bd57611262611d94565b6001600160e01b0319811663f23a6e6160e01b146111835760405162461bcd60e51b815260040161032890611e39565b8280546113f990611b7c565b90600052602060002090601f01602090048101928261141b5760008555611461565b82601f1061143457805160ff1916838001178555611461565b82800160010185558215611461579182015b82811115611461578251825591602001919060010190611446565b5061146d929150611471565b5090565b5b8082111561146d5760008155600101611472565b80356001600160a01b038116811461149d57600080fd5b919050565b600080604083850312156114b557600080fd5b6114be83611486565b946020939093013593505050565b6001600160e01b0319811681146103dc57600080fd5b6000602082840312156114f457600080fd5b81356114ff816114cc565b9392505050565b634e487b7160e01b600052604160045260246000fd5b601f8201601f191681016001600160401b038111828210171561154157611541611506565b6040525050565b60006001600160401b0383111561156157611561611506565b604051611578601f8501601f19166020018261151c565b80915083815284848401111561158d57600080fd5b83836020830137600060208583010152509392505050565b6000602082840312156115b757600080fd5b81356001600160401b038111156115cd57600080fd5b8201601f810184136115de57600080fd5b6115ed84823560208401611548565b949350505050565b60008060006060848603121561160a57600080fd5b61161384611486565b95602085013595506040909401359392505050565b60006020828403121561163a57600080fd5b5035919050565b6000815180845260005b818110156116675760208185018101518683018201520161164b565b81811115611679576000602083870101525b50601f01601f19169290920160200192915050565b6020815260006114ff6020830184611641565b60006001600160401b038211156116ba576116ba611506565b5060051b60200190565b600082601f8301126116d557600080fd5b813560206116e2826116a1565b6040516116ef828261151c565b83815260059390931b850182019282810191508684111561170f57600080fd5b8286015b8481101561172a5780358352918301918301611713565b509695505050505050565b600082601f83011261174657600080fd5b6114ff83833560208501611548565b6000806000806080858703121561176b57600080fd5b61177485611486565b935060208501356001600160401b038082111561179057600080fd5b61179c888389016116c4565b945060408701359150808211156117b257600080fd5b6117be888389016116c4565b935060608701359150808211156117d457600080fd5b506117e187828801611735565b91505092959194509250565b600080600080600060a0868803121561180557600080fd5b61180e86611486565b945061181c60208701611486565b935060408601356001600160401b038082111561183857600080fd5b61184489838a016116c4565b9450606088013591508082111561185a57600080fd5b61186689838a016116c4565b9350608088013591508082111561187c57600080fd5b5061188988828901611735565b9150509295509295909350565b600080604083850312156118a957600080fd5b82356001600160401b03808211156118c057600080fd5b818501915085601f8301126118d457600080fd5b813560206118e1826116a1565b6040516118ee828261151c565b83815260059390931b850182019282810191508984111561190e57600080fd5b948201945b838610156119335761192486611486565b82529482019490820190611913565b9650508601359250508082111561194957600080fd5b50611956858286016116c4565b9150509250929050565b600081518084526020808501945080840160005b8381101561199057815187529582019590820190600101611974565b509495945050505050565b6020815260006114ff6020830184611960565b6000806000606084860312156119c357600080fd5b83359250602084013591506119da60408501611486565b90509250925092565b600080604083850312156119f657600080fd5b6119ff83611486565b915060208301358015158114611a1457600080fd5b809150509250929050565b60008060408385031215611a3257600080fd5b611a3b83611486565b9150611a4960208401611486565b90509250929050565b600080600080600060a08688031215611a6a57600080fd5b611a7386611486565b9450611a8160208701611486565b9350604086013592506060860135915060808601356001600160401b03811115611aaa57600080fd5b61188988828901611735565b600060208284031215611ac857600080fd5b6114ff82611486565b6020808252818101527f4f776e61626c653a2063616c6c6572206973206e6f7420746865206f776e6572604082015260600190565b60208082526029908201527f455243313135353a2063616c6c6572206973206e6f74206f776e6572206e6f7260408201526808185c1c1c9bdd995960ba1b606082015260800190565b634e487b7160e01b600052601160045260246000fd5b600081611b7457611b74611b4f565b506000190190565b600181811c90821680611b9057607f821691505b602082108103611bb057634e487b7160e01b600052602260045260246000fd5b50919050565b60008219821115611bc957611bc9611b4f565b500190565b634e487b7160e01b600052603260045260246000fd5b600060018201611bf657611bf6611b4f565b5060010190565b600082821015611c0f57611c0f611b4f565b500390565b60208082526028908201527f455243313135353a2069647320616e6420616d6f756e7473206c656e677468206040820152670dad2e6dac2e8c6d60c31b606082015260800190565b604081526000611c6f6040830185611960565b8281036020840152611c818185611960565b95945050505050565b60208082526025908201527f455243313135353a207472616e7366657220746f20746865207a65726f206164604082015264647265737360d81b606082015260800190565b6020808252602a908201527f455243313135353a20696e73756666696369656e742062616c616e636520666f60408201526939103a3930b739b332b960b11b606082015260800190565b6001600160a01b0386811682528516602082015260a060408201819052600090611d4590830186611960565b8281036060840152611d578186611960565b90508281036080840152611d6b8185611641565b98975050505050505050565b600060208284031215611d8957600080fd5b81516114ff816114cc565b600060033d1115611dad5760046000803e5060005160e01c5b90565b600060443d1015611dbe5790565b6040516003193d81016004833e81513d6001600160401b038160248401118184111715611ded57505050505090565b8285019150815181811115611e055750505050505090565b843d8701016020828501011115611e1f5750505050505090565b611e2e6020828601018761151c565b509095945050505050565b60208082526028908201527f455243313135353a204552433131353552656365697665722072656a656374656040820152676420746f6b656e7360c01b606082015260800190565b6001600160a01b03868116825285166020820152604081018490526060810183905260a060808201819052600090611ebb90830184611641565b97965050505050505056fea26469706673582212201f72452adf6d4d0760c56819a37b7bbe0a3ae49c492fd97c9b80ee783754a1f364736f6c634300080d003368747470733a2f2f67616d652e6578616d706c652f6170692f6974656d2f7b69647d2e6a736f6e",
					"opcodes": "PUSH1 0x80 PUSH1 0x40 MSTORE CALLVALUE DUP1 ISZERO PUSH3 0x11 JUMPI PUSH1 0x0 DUP1 REVERT JUMPDEST POP PUSH1 0x40 MLOAD DUP1 PUSH1 0x60 ADD PUSH1 0x40 MSTORE DUP1 PUSH1 0x27 DUP2 MSTORE PUSH1 0x20 ADD PUSH3 0x20A2 PUSH1 0x27 SWAP2 CODECOPY PUSH3 0x37 DUP2 PUSH3 0x49 JUMP JUMPDEST POP PUSH3 0x43 CALLER PUSH3 0x62 JUMP JUMPDEST PUSH3 0x196 JUMP JUMPDEST DUP1 MLOAD PUSH3 0x5E SWAP1 PUSH1 0x2 SWAP1 PUSH1 0x20 DUP5 ADD SWAP1 PUSH3 0xB4 JUMP JUMPDEST POP POP JUMP JUMPDEST PUSH1 0x3 DUP1 SLOAD PUSH1 0x1 PUSH1 0x1 PUSH1 0xA0 SHL SUB DUP4 DUP2 AND PUSH1 0x1 PUSH1 0x1 PUSH1 0xA0 SHL SUB NOT DUP4 AND DUP2 OR SWAP1 SWAP4 SSTORE PUSH1 0x40 MLOAD SWAP2 AND SWAP2 SWAP1 DUP3 SWAP1 PUSH32 0x8BE0079C531659141344CD1FD0A4F28419497F9722A3DAAFE3B4186F6B6457E0 SWAP1 PUSH1 0x0 SWAP1 LOG3 POP POP JUMP JUMPDEST DUP3 DUP1 SLOAD PUSH3 0xC2 SWAP1 PUSH3 0x15A JUMP JUMPDEST SWAP1 PUSH1 0x0 MSTORE PUSH1 0x20 PUSH1 0x0 KECCAK256 SWAP1 PUSH1 0x1F ADD PUSH1 0x20 SWAP1 DIV DUP2 ADD SWAP3 DUP3 PUSH3 0xE6 JUMPI PUSH1 0x0 DUP6 SSTORE PUSH3 0x131 JUMP JUMPDEST DUP3 PUSH1 0x1F LT PUSH3 0x101 JUMPI DUP1 MLOAD PUSH1 0xFF NOT AND DUP4 DUP1 ADD OR DUP6 SSTORE PUSH3 0x131 JUMP JUMPDEST DUP3 DUP1 ADD PUSH1 0x1 ADD DUP6 SSTORE DUP3 ISZERO PUSH3 0x131 JUMPI SWAP2 DUP3 ADD JUMPDEST DUP3 DUP2 GT ISZERO PUSH3 0x131 JUMPI DUP3 MLOAD DUP3 SSTORE SWAP2 PUSH1 0x20 ADD SWAP2 SWAP1 PUSH1 0x1 ADD SWAP1 PUSH3 0x114 JUMP JUMPDEST POP PUSH3 0x13F SWAP3 SWAP2 POP PUSH3 0x143 JUMP JUMPDEST POP SWAP1 JUMP JUMPDEST JUMPDEST DUP1 DUP3 GT ISZERO PUSH3 0x13F JUMPI PUSH1 0x0 DUP2 SSTORE PUSH1 0x1 ADD PUSH3 0x144 JUMP JUMPDEST PUSH1 0x1 DUP2 DUP2 SHR SWAP1 DUP3 AND DUP1 PUSH3 0x16F JUMPI PUSH1 0x7F DUP3 AND SWAP2 POP JUMPDEST PUSH1 0x20 DUP3 LT DUP2 SUB PUSH3 0x190 JUMPI PUSH4 0x4E487B71 PUSH1 0xE0 SHL PUSH1 0x0 MSTORE PUSH1 0x22 PUSH1 0x4 MSTORE PUSH1 0x24 PUSH1 0x0 REVERT JUMPDEST POP SWAP2 SWAP1 POP JUMP JUMPDEST PUSH2 0x1EFC DUP1 PUSH3 0x1A6 PUSH1 0x0 CODECOPY PUSH1 0x0 RETURN INVALID PUSH1 0x80 PUSH1 0x40 MSTORE CALLVALUE DUP1 ISZERO PUSH2 0x10 JUMPI PUSH1 0x0 DUP1 REVERT JUMPDEST POP PUSH1 0x4 CALLDATASIZE LT PUSH2 0x115 JUMPI PUSH1 0x0 CALLDATALOAD PUSH1 0xE0 SHR DUP1 PUSH4 0x71AC14E6 GT PUSH2 0xA2 JUMPI DUP1 PUSH4 0xA22CB465 GT PUSH2 0x71 JUMPI DUP1 PUSH4 0xA22CB465 EQ PUSH2 0x243 JUMPI DUP1 PUSH4 0xAD974F4C EQ PUSH2 0x256 JUMPI DUP1 PUSH4 0xE985E9C5 EQ PUSH2 0x25E JUMPI DUP1 PUSH4 0xF242432A EQ PUSH2 0x29A JUMPI DUP1 PUSH4 0xF2FDE38B EQ PUSH2 0x2AD JUMPI PUSH1 0x0 DUP1 REVERT JUMPDEST DUP1 PUSH4 0x71AC14E6 EQ PUSH2 0x1F9 JUMPI DUP1 PUSH4 0x7824407F EQ PUSH2 0x20C JUMPI DUP1 PUSH4 0x8DA5CB5B EQ PUSH2 0x215 JUMPI DUP1 PUSH4 0x9416308E EQ PUSH2 0x230 JUMPI PUSH1 0x0 DUP1 REVERT JUMPDEST DUP1 PUSH4 0xE89341C GT PUSH2 0xE9 JUMPI DUP1 PUSH4 0xE89341C EQ PUSH2 0x18B JUMPI DUP1 PUSH4 0x1F7FDFFA EQ PUSH2 0x1AB JUMPI DUP1 PUSH4 0x2EB2C2D6 EQ PUSH2 0x1BE JUMPI DUP1 PUSH4 0x4E1273F4 EQ PUSH2 0x1D1 JUMPI DUP1 PUSH4 0x715018A6 EQ PUSH2 0x1F1 JUMPI PUSH1 0x0 DUP1 REVERT JUMPDEST DUP1 PUSH3 0xFDD58E EQ PUSH2 0x11A JUMPI DUP1 PUSH4 0x1FFC9A7 EQ PUSH2 0x140 JUMPI DUP1 PUSH4 0x2FE5305 EQ PUSH2 0x163 JUMPI DUP1 PUSH4 0x92F2DBF EQ PUSH2 0x178 JUMPI JUMPDEST PUSH1 0x0 DUP1 REVERT JUMPDEST PUSH2 0x12D PUSH2 0x128 CALLDATASIZE PUSH1 0x4 PUSH2 0x14A2 JUMP JUMPDEST PUSH2 0x2C0 JUMP JUMPDEST PUSH1 0x40 MLOAD SWAP1 DUP2 MSTORE PUSH1 0x20 ADD JUMPDEST PUSH1 0x40 MLOAD DUP1 SWAP2 SUB SWAP1 RETURN JUMPDEST PUSH2 0x153 PUSH2 0x14E CALLDATASIZE PUSH1 0x4 PUSH2 0x14E2 JUMP JUMPDEST PUSH2 0x357 JUMP JUMPDEST PUSH1 0x40 MLOAD SWAP1 ISZERO ISZERO DUP2 MSTORE PUSH1 0x20 ADD PUSH2 0x137 JUMP JUMPDEST PUSH2 0x176 PUSH2 0x171 CALLDATASIZE PUSH1 0x4 PUSH2 0x15A5 JUMP JUMPDEST PUSH2 0x3A9 JUMP JUMPDEST STOP JUMPDEST PUSH2 0x176 PUSH2 0x186 CALLDATASIZE PUSH1 0x4 PUSH2 0x15F5 JUMP JUMPDEST PUSH2 0x3DF JUMP JUMPDEST PUSH2 0x19E PUSH2 0x199 CALLDATASIZE PUSH1 0x4 PUSH2 0x1628 JUMP JUMPDEST PUSH2 0x43A JUMP JUMPDEST PUSH1 0x40 MLOAD PUSH2 0x137 SWAP2 SWAP1 PUSH2 0x168E JUMP JUMPDEST PUSH2 0x176 PUSH2 0x1B9 CALLDATASIZE PUSH1 0x4 PUSH2 0x1755 JUMP JUMPDEST PUSH2 0x4CE JUMP JUMPDEST PUSH2 0x176 PUSH2 0x1CC CALLDATASIZE PUSH1 0x4 PUSH2 0x17ED JUMP JUMPDEST PUSH2 0x51C JUMP JUMPDEST PUSH2 0x1E4 PUSH2 0x1DF CALLDATASIZE PUSH1 0x4 PUSH2 0x1896 JUMP JUMPDEST PUSH2 0x5B3 JUMP JUMPDEST PUSH1 0x40 MLOAD PUSH2 0x137 SWAP2 SWAP1 PUSH2 0x199B JUMP JUMPDEST PUSH2 0x176 PUSH2 0x6DC JUMP JUMPDEST PUSH2 0x176 PUSH2 0x207 CALLDATASIZE PUSH1 0x4 PUSH2 0x1628 JUMP JUMPDEST PUSH2 0x712 JUMP JUMPDEST PUSH2 0x12D PUSH1 0x4 SLOAD DUP2 JUMP JUMPDEST PUSH1 0x3 SLOAD PUSH1 0x40 MLOAD PUSH1 0x1 PUSH1 0x1 PUSH1 0xA0 SHL SUB SWAP1 SWAP2 AND DUP2 MSTORE PUSH1 0x20 ADD PUSH2 0x137 JUMP JUMPDEST PUSH2 0x176 PUSH2 0x23E CALLDATASIZE PUSH1 0x4 PUSH2 0x19AE JUMP JUMPDEST PUSH2 0x87D JUMP JUMPDEST PUSH2 0x176 PUSH2 0x251 CALLDATASIZE PUSH1 0x4 PUSH2 0x19E3 JUMP JUMPDEST PUSH2 0x99A JUMP JUMPDEST PUSH1 0x4 SLOAD PUSH2 0x12D JUMP JUMPDEST PUSH2 0x153 PUSH2 0x26C CALLDATASIZE PUSH1 0x4 PUSH2 0x1A1F JUMP JUMPDEST PUSH1 0x1 PUSH1 0x1 PUSH1 0xA0 SHL SUB SWAP2 DUP3 AND PUSH1 0x0 SWAP1 DUP2 MSTORE PUSH1 0x1 PUSH1 0x20 SWAP1 DUP2 MSTORE PUSH1 0x40 DUP1 DUP4 KECCAK256 SWAP4 SWAP1 SWAP5 AND DUP3 MSTORE SWAP2 SWAP1 SWAP2 MSTORE KECCAK256 SLOAD PUSH1 0xFF AND SWAP1 JUMP JUMPDEST PUSH2 0x176 PUSH2 0x2A8 CALLDATASIZE PUSH1 0x4 PUSH2 0x1A52 JUMP JUMPDEST PUSH2 0x9A9 JUMP JUMPDEST PUSH2 0x176 PUSH2 0x2BB CALLDATASIZE PUSH1 0x4 PUSH2 0x1AB6 JUMP JUMPDEST PUSH2 0x9EE JUMP JUMPDEST PUSH1 0x0 PUSH1 0x1 PUSH1 0x1 PUSH1 0xA0 SHL SUB DUP4 AND PUSH2 0x331 JUMPI PUSH1 0x40 MLOAD PUSH3 0x461BCD PUSH1 0xE5 SHL DUP2 MSTORE PUSH1 0x20 PUSH1 0x4 DUP3 ADD MSTORE PUSH1 0x2B PUSH1 0x24 DUP3 ADD MSTORE PUSH32 0x455243313135353A2062616C616E636520717565727920666F7220746865207A PUSH1 0x44 DUP3 ADD MSTORE PUSH11 0x65726F2061646472657373 PUSH1 0xA8 SHL PUSH1 0x64 DUP3 ADD MSTORE PUSH1 0x84 ADD JUMPDEST PUSH1 0x40 MLOAD DUP1 SWAP2 SUB SWAP1 REVERT JUMPDEST POP PUSH1 0x0 SWAP1 DUP2 MSTORE PUSH1 0x20 DUP2 DUP2 MSTORE PUSH1 0x40 DUP1 DUP4 KECCAK256 PUSH1 0x1 PUSH1 0x1 PUSH1 0xA0 SHL SUB SWAP5 SWAP1 SWAP5 AND DUP4 MSTORE SWAP3 SWAP1 MSTORE KECCAK256 SLOAD SWAP1 JUMP JUMPDEST PUSH1 0x0 PUSH1 0x1 PUSH1 0x1 PUSH1 0xE0 SHL SUB NOT DUP3 AND PUSH4 0x6CDB3D13 PUSH1 0xE1 SHL EQ DUP1 PUSH2 0x388 JUMPI POP PUSH1 0x1 PUSH1 0x1 PUSH1 0xE0 SHL SUB NOT DUP3 AND PUSH4 0x3A24D07 PUSH1 0xE2 SHL EQ JUMPDEST DUP1 PUSH2 0x3A3 JUMPI POP PUSH4 0x1FFC9A7 PUSH1 0xE0 SHL PUSH1 0x1 PUSH1 0x1 PUSH1 0xE0 SHL SUB NOT DUP4 AND EQ JUMPDEST SWAP3 SWAP2 POP POP JUMP JUMPDEST PUSH1 0x3 SLOAD PUSH1 0x1 PUSH1 0x1 PUSH1 0xA0 SHL SUB AND CALLER EQ PUSH2 0x3D3 JUMPI PUSH1 0x40 MLOAD PUSH3 0x461BCD PUSH1 0xE5 SHL DUP2 MSTORE PUSH1 0x4 ADD PUSH2 0x328 SWAP1 PUSH2 0x1AD1 JUMP JUMPDEST PUSH2 0x3DC DUP2 PUSH2 0xA86 JUMP JUMPDEST POP JUMP JUMPDEST PUSH1 0x1 PUSH1 0x1 PUSH1 0xA0 SHL SUB DUP4 AND CALLER EQ DUP1 PUSH2 0x3FB JUMPI POP PUSH2 0x3FB DUP4 CALLER PUSH2 0x26C JUMP JUMPDEST PUSH2 0x417 JUMPI PUSH1 0x40 MLOAD PUSH3 0x461BCD PUSH1 0xE5 SHL DUP2 MSTORE PUSH1 0x4 ADD PUSH2 0x328 SWAP1 PUSH2 0x1B06 JUMP JUMPDEST PUSH2 0x422 DUP4 DUP4 DUP4 PUSH2 0xA99 JUMP JUMPDEST PUSH1 0x4 PUSH1 0x0 DUP2 SLOAD PUSH2 0x431 SWAP1 PUSH2 0x1B65 JUMP JUMPDEST SWAP1 SWAP2 SSTORE POP POP POP POP JUMP JUMPDEST PUSH1 0x60 PUSH1 0x2 DUP1 SLOAD PUSH2 0x449 SWAP1 PUSH2 0x1B7C JUMP JUMPDEST DUP1 PUSH1 0x1F ADD PUSH1 0x20 DUP1 SWAP2 DIV MUL PUSH1 0x20 ADD PUSH1 0x40 MLOAD SWAP1 DUP2 ADD PUSH1 0x40 MSTORE DUP1 SWAP3 SWAP2 SWAP1 DUP2 DUP2 MSTORE PUSH1 0x20 ADD DUP3 DUP1 SLOAD PUSH2 0x475 SWAP1 PUSH2 0x1B7C JUMP JUMPDEST DUP1 ISZERO PUSH2 0x4C2 JUMPI DUP1 PUSH1 0x1F LT PUSH2 0x497 JUMPI PUSH2 0x100 DUP1 DUP4 SLOAD DIV MUL DUP4 MSTORE SWAP2 PUSH1 0x20 ADD SWAP2 PUSH2 0x4C2 JUMP JUMPDEST DUP3 ADD SWAP2 SWAP1 PUSH1 0x0 MSTORE PUSH1 0x20 PUSH1 0x0 KECCAK256 SWAP1 JUMPDEST DUP2 SLOAD DUP2 MSTORE SWAP1 PUSH1 0x1 ADD SWAP1 PUSH1 0x20 ADD DUP1 DUP4 GT PUSH2 0x4A5 JUMPI DUP3 SWAP1 SUB PUSH1 0x1F AND DUP3 ADD SWAP2 JUMPDEST POP POP POP POP POP SWAP1 POP SWAP2 SWAP1 POP JUMP JUMPDEST PUSH1 0x3 SLOAD PUSH1 0x1 PUSH1 0x1 PUSH1 0xA0 SHL SUB AND CALLER EQ PUSH2 0x4F8 JUMPI PUSH1 0x40 MLOAD PUSH3 0x461BCD PUSH1 0xE5 SHL DUP2 MSTORE PUSH1 0x4 ADD PUSH2 0x328 SWAP1 PUSH2 0x1AD1 JUMP JUMPDEST PUSH2 0x504 DUP5 DUP5 DUP5 DUP5 PUSH2 0xC13 JUMP JUMPDEST DUP3 MLOAD PUSH1 0x4 SLOAD PUSH2 0x513 SWAP2 SWAP1 PUSH2 0x1BB6 JUMP JUMPDEST PUSH1 0x4 SSTORE POP POP POP POP JUMP JUMPDEST PUSH1 0x1 PUSH1 0x1 PUSH1 0xA0 SHL SUB DUP6 AND CALLER EQ DUP1 PUSH2 0x538 JUMPI POP PUSH2 0x538 DUP6 CALLER PUSH2 0x26C JUMP JUMPDEST PUSH2 0x59F JUMPI PUSH1 0x40 MLOAD PUSH3 0x461BCD PUSH1 0xE5 SHL DUP2 MSTORE PUSH1 0x20 PUSH1 0x4 DUP3 ADD MSTORE PUSH1 0x32 PUSH1 0x24 DUP3 ADD MSTORE PUSH32 0x455243313135353A207472616E736665722063616C6C6572206973206E6F7420 PUSH1 0x44 DUP3 ADD MSTORE PUSH18 0x1BDDDB995C881B9BDC88185C1C1C9BDD9959 PUSH1 0x72 SHL PUSH1 0x64 DUP3 ADD MSTORE PUSH1 0x84 ADD PUSH2 0x328 JUMP JUMPDEST PUSH2 0x5AC DUP6 DUP6 DUP6 DUP6 DUP6 PUSH2 0xD98 JUMP JUMPDEST POP POP POP POP POP JUMP JUMPDEST PUSH1 0x60 DUP2 MLOAD DUP4 MLOAD EQ PUSH2 0x618 JUMPI PUSH1 0x40 MLOAD PUSH3 0x461BCD PUSH1 0xE5 SHL DUP2 MSTORE PUSH1 0x20 PUSH1 0x4 DUP3 ADD MSTORE PUSH1 0x29 PUSH1 0x24 DUP3 ADD MSTORE PUSH32 0x455243313135353A206163636F756E747320616E6420696473206C656E677468 PUSH1 0x44 DUP3 ADD MSTORE PUSH9 0x40DAD2E6DAC2E8C6D PUSH1 0xBB SHL PUSH1 0x64 DUP3 ADD MSTORE PUSH1 0x84 ADD PUSH2 0x328 JUMP JUMPDEST PUSH1 0x0 DUP4 MLOAD PUSH1 0x1 PUSH1 0x1 PUSH1 0x40 SHL SUB DUP2 GT ISZERO PUSH2 0x633 JUMPI PUSH2 0x633 PUSH2 0x1506 JUMP JUMPDEST PUSH1 0x40 MLOAD SWAP1 DUP1 DUP3 MSTORE DUP1 PUSH1 0x20 MUL PUSH1 0x20 ADD DUP3 ADD PUSH1 0x40 MSTORE DUP1 ISZERO PUSH2 0x65C JUMPI DUP2 PUSH1 0x20 ADD PUSH1 0x20 DUP3 MUL DUP1 CALLDATASIZE DUP4 CALLDATACOPY ADD SWAP1 POP JUMPDEST POP SWAP1 POP PUSH1 0x0 JUMPDEST DUP5 MLOAD DUP2 LT ISZERO PUSH2 0x6D4 JUMPI PUSH2 0x6A7 DUP6 DUP3 DUP2 MLOAD DUP2 LT PUSH2 0x680 JUMPI PUSH2 0x680 PUSH2 0x1BCE JUMP JUMPDEST PUSH1 0x20 MUL PUSH1 0x20 ADD ADD MLOAD DUP6 DUP4 DUP2 MLOAD DUP2 LT PUSH2 0x69A JUMPI PUSH2 0x69A PUSH2 0x1BCE JUMP JUMPDEST PUSH1 0x20 MUL PUSH1 0x20 ADD ADD MLOAD PUSH2 0x2C0 JUMP JUMPDEST DUP3 DUP3 DUP2 MLOAD DUP2 LT PUSH2 0x6B9 JUMPI PUSH2 0x6B9 PUSH2 0x1BCE JUMP JUMPDEST PUSH1 0x20 SWAP1 DUP2 MUL SWAP2 SWAP1 SWAP2 ADD ADD MSTORE PUSH2 0x6CD DUP2 PUSH2 0x1BE4 JUMP JUMPDEST SWAP1 POP PUSH2 0x662 JUMP JUMPDEST POP SWAP4 SWAP3 POP POP POP JUMP JUMPDEST PUSH1 0x3 SLOAD PUSH1 0x1 PUSH1 0x1 PUSH1 0xA0 SHL SUB AND CALLER EQ PUSH2 0x706 JUMPI PUSH1 0x40 MLOAD PUSH3 0x461BCD PUSH1 0xE5 SHL DUP2 MSTORE PUSH1 0x4 ADD PUSH2 0x328 SWAP1 PUSH2 0x1AD1 JUMP JUMPDEST PUSH2 0x710 PUSH1 0x0 PUSH2 0xF34 JUMP JUMPDEST JUMP JUMPDEST PUSH1 0x3 SLOAD PUSH1 0x1 PUSH1 0x1 PUSH1 0xA0 SHL SUB AND CALLER EQ PUSH2 0x73C JUMPI PUSH1 0x40 MLOAD PUSH3 0x461BCD PUSH1 0xE5 SHL DUP2 MSTORE PUSH1 0x4 ADD PUSH2 0x328 SWAP1 PUSH2 0x1AD1 JUMP JUMPDEST PUSH1 0x0 DUP2 PUSH1 0x1 PUSH1 0x1 PUSH1 0x40 SHL SUB DUP2 GT ISZERO PUSH2 0x756 JUMPI PUSH2 0x756 PUSH2 0x1506 JUMP JUMPDEST PUSH1 0x40 MLOAD SWAP1 DUP1 DUP3 MSTORE DUP1 PUSH1 0x20 MUL PUSH1 0x20 ADD DUP3 ADD PUSH1 0x40 MSTORE DUP1 ISZERO PUSH2 0x77F JUMPI DUP2 PUSH1 0x20 ADD PUSH1 0x20 DUP3 MUL DUP1 CALLDATASIZE DUP4 CALLDATACOPY ADD SWAP1 POP JUMPDEST POP SWAP1 POP PUSH1 0x0 DUP3 PUSH1 0x1 PUSH1 0x1 PUSH1 0x40 SHL SUB DUP2 GT ISZERO PUSH2 0x79C JUMPI PUSH2 0x79C PUSH2 0x1506 JUMP JUMPDEST PUSH1 0x40 MLOAD SWAP1 DUP1 DUP3 MSTORE DUP1 PUSH1 0x20 MUL PUSH1 0x20 ADD DUP3 ADD PUSH1 0x40 MSTORE DUP1 ISZERO PUSH2 0x7C5 JUMPI DUP2 PUSH1 0x20 ADD PUSH1 0x20 DUP3 MUL DUP1 CALLDATASIZE DUP4 CALLDATACOPY ADD SWAP1 POP JUMPDEST POP PUSH1 0x4 SLOAD SWAP1 SWAP2 POP JUMPDEST PUSH1 0x4 SLOAD PUSH2 0x7DA SWAP1 DUP6 PUSH2 0x1BB6 JUMP JUMPDEST DUP2 LT ISZERO PUSH2 0x84B JUMPI DUP1 DUP4 PUSH1 0x4 SLOAD DUP4 PUSH2 0x7F1 SWAP2 SWAP1 PUSH2 0x1BFD JUMP JUMPDEST DUP2 MLOAD DUP2 LT PUSH2 0x801 JUMPI PUSH2 0x801 PUSH2 0x1BCE JUMP JUMPDEST PUSH1 0x20 MUL PUSH1 0x20 ADD ADD DUP2 DUP2 MSTORE POP POP PUSH1 0x1 DUP3 PUSH1 0x4 SLOAD DUP4 PUSH2 0x81E SWAP2 SWAP1 PUSH2 0x1BFD JUMP JUMPDEST DUP2 MLOAD DUP2 LT PUSH2 0x82E JUMPI PUSH2 0x82E PUSH2 0x1BCE JUMP JUMPDEST PUSH1 0x20 SWAP1 DUP2 MUL SWAP2 SWAP1 SWAP2 ADD ADD MSTORE DUP1 PUSH2 0x843 DUP2 PUSH2 0x1BE4 JUMP JUMPDEST SWAP2 POP POP PUSH2 0x7CD JUMP JUMPDEST POP PUSH2 0x867 CALLER DUP4 DUP4 PUSH1 0x40 MLOAD DUP1 PUSH1 0x20 ADD PUSH1 0x40 MSTORE DUP1 PUSH1 0x0 DUP2 MSTORE POP PUSH2 0xC13 JUMP JUMPDEST DUP3 PUSH1 0x4 SLOAD PUSH2 0x875 SWAP2 SWAP1 PUSH2 0x1BB6 JUMP JUMPDEST PUSH1 0x4 SSTORE POP POP POP JUMP JUMPDEST PUSH1 0x0 DUP3 PUSH1 0x1 PUSH1 0x1 PUSH1 0x40 SHL SUB DUP2 GT ISZERO PUSH2 0x897 JUMPI PUSH2 0x897 PUSH2 0x1506 JUMP JUMPDEST PUSH1 0x40 MLOAD SWAP1 DUP1 DUP3 MSTORE DUP1 PUSH1 0x20 MUL PUSH1 0x20 ADD DUP3 ADD PUSH1 0x40 MSTORE DUP1 ISZERO PUSH2 0x8C0 JUMPI DUP2 PUSH1 0x20 ADD PUSH1 0x20 DUP3 MUL DUP1 CALLDATASIZE DUP4 CALLDATACOPY ADD SWAP1 POP JUMPDEST POP SWAP1 POP PUSH1 0x0 DUP4 PUSH1 0x1 PUSH1 0x1 PUSH1 0x40 SHL SUB DUP2 GT ISZERO PUSH2 0x8DD JUMPI PUSH2 0x8DD PUSH2 0x1506 JUMP JUMPDEST PUSH1 0x40 MLOAD SWAP1 DUP1 DUP3 MSTORE DUP1 PUSH1 0x20 MUL PUSH1 0x20 ADD DUP3 ADD PUSH1 0x40 MSTORE DUP1 ISZERO PUSH2 0x906 JUMPI DUP2 PUSH1 0x20 ADD PUSH1 0x20 DUP3 MUL DUP1 CALLDATASIZE DUP4 CALLDATACOPY ADD SWAP1 POP JUMPDEST POP SWAP1 POP DUP5 JUMPDEST PUSH2 0x915 DUP7 DUP7 PUSH2 0x1BB6 JUMP JUMPDEST DUP2 LT ISZERO PUSH2 0x97D JUMPI DUP1 DUP4 PUSH2 0x928 DUP9 DUP4 PUSH2 0x1BFD JUMP JUMPDEST DUP2 MLOAD DUP2 LT PUSH2 0x938 JUMPI PUSH2 0x938 PUSH2 0x1BCE JUMP JUMPDEST PUSH1 0x20 SWAP1 DUP2 MUL SWAP2 SWAP1 SWAP2 ADD ADD MSTORE PUSH1 0x1 DUP3 PUSH2 0x950 DUP9 DUP5 PUSH2 0x1BFD JUMP JUMPDEST DUP2 MLOAD DUP2 LT PUSH2 0x960 JUMPI PUSH2 0x960 PUSH2 0x1BCE JUMP JUMPDEST PUSH1 0x20 SWAP1 DUP2 MUL SWAP2 SWAP1 SWAP2 ADD ADD MSTORE DUP1 PUSH2 0x975 DUP2 PUSH2 0x1BE4 JUMP JUMPDEST SWAP2 POP POP PUSH2 0x90B JUMP JUMPDEST POP PUSH2 0x5AC CALLER DUP5 DUP5 DUP5 PUSH1 0x40 MLOAD DUP1 PUSH1 0x20 ADD PUSH1 0x40 MSTORE DUP1 PUSH1 0x0 DUP2 MSTORE POP PUSH2 0x51C JUMP JUMPDEST PUSH2 0x9A5 CALLER DUP4 DUP4 PUSH2 0xF86 JUMP JUMPDEST POP POP JUMP JUMPDEST PUSH1 0x1 PUSH1 0x1 PUSH1 0xA0 SHL SUB DUP6 AND CALLER EQ DUP1 PUSH2 0x9C5 JUMPI POP PUSH2 0x9C5 DUP6 CALLER PUSH2 0x26C JUMP JUMPDEST PUSH2 0x9E1 JUMPI PUSH1 0x40 MLOAD PUSH3 0x461BCD PUSH1 0xE5 SHL DUP2 MSTORE PUSH1 0x4 ADD PUSH2 0x328 SWAP1 PUSH2 0x1B06 JUMP JUMPDEST PUSH2 0x5AC DUP6 DUP6 DUP6 DUP6 DUP6 PUSH2 0x1066 JUMP JUMPDEST PUSH1 0x3 SLOAD PUSH1 0x1 PUSH1 0x1 PUSH1 0xA0 SHL SUB AND CALLER EQ PUSH2 0xA18 JUMPI PUSH1 0x40 MLOAD PUSH3 0x461BCD PUSH1 0xE5 SHL DUP2 MSTORE PUSH1 0x4 ADD PUSH2 0x328 SWAP1 PUSH2 0x1AD1 JUMP JUMPDEST PUSH1 0x1 PUSH1 0x1 PUSH1 0xA0 SHL SUB DUP2 AND PUSH2 0xA7D JUMPI PUSH1 0x40 MLOAD PUSH3 0x461BCD PUSH1 0xE5 SHL DUP2 MSTORE PUSH1 0x20 PUSH1 0x4 DUP3 ADD MSTORE PUSH1 0x26 PUSH1 0x24 DUP3 ADD MSTORE PUSH32 0x4F776E61626C653A206E6577206F776E657220697320746865207A65726F2061 PUSH1 0x44 DUP3 ADD MSTORE PUSH6 0x646472657373 PUSH1 0xD0 SHL PUSH1 0x64 DUP3 ADD MSTORE PUSH1 0x84 ADD PUSH2 0x328 JUMP JUMPDEST PUSH2 0x3DC DUP2 PUSH2 0xF34 JUMP JUMPDEST DUP1 MLOAD PUSH2 0x9A5 SWAP1 PUSH1 0x2 SWAP1 PUSH1 0x20 DUP5 ADD SWAP1 PUSH2 0x13ED JUMP JUMPDEST PUSH1 0x1 PUSH1 0x1 PUSH1 0xA0 SHL SUB DUP4 AND PUSH2 0xAFB JUMPI PUSH1 0x40 MLOAD PUSH3 0x461BCD PUSH1 0xE5 SHL DUP2 MSTORE PUSH1 0x20 PUSH1 0x4 DUP3 ADD MSTORE PUSH1 0x23 PUSH1 0x24 DUP3 ADD MSTORE PUSH32 0x455243313135353A206275726E2066726F6D20746865207A65726F2061646472 PUSH1 0x44 DUP3 ADD MSTORE PUSH3 0x657373 PUSH1 0xE8 SHL PUSH1 0x64 DUP3 ADD MSTORE PUSH1 0x84 ADD PUSH2 0x328 JUMP JUMPDEST CALLER PUSH2 0xB2B DUP2 DUP6 PUSH1 0x0 PUSH2 0xB0C DUP8 PUSH2 0x118C JUMP JUMPDEST PUSH2 0xB15 DUP8 PUSH2 0x118C JUMP JUMPDEST POP POP PUSH1 0x40 DUP1 MLOAD PUSH1 0x20 DUP2 ADD SWAP1 SWAP2 MSTORE PUSH1 0x0 SWAP1 MSTORE POP POP POP JUMP JUMPDEST PUSH1 0x0 DUP4 DUP2 MSTORE PUSH1 0x20 DUP2 DUP2 MSTORE PUSH1 0x40 DUP1 DUP4 KECCAK256 PUSH1 0x1 PUSH1 0x1 PUSH1 0xA0 SHL SUB DUP9 AND DUP5 MSTORE SWAP1 SWAP2 MSTORE SWAP1 KECCAK256 SLOAD DUP3 DUP2 LT ISZERO PUSH2 0xBA8 JUMPI PUSH1 0x40 MLOAD PUSH3 0x461BCD PUSH1 0xE5 SHL DUP2 MSTORE PUSH1 0x20 PUSH1 0x4 DUP3 ADD MSTORE PUSH1 0x24 DUP1 DUP3 ADD MSTORE PUSH32 0x455243313135353A206275726E20616D6F756E7420657863656564732062616C PUSH1 0x44 DUP3 ADD MSTORE PUSH4 0x616E6365 PUSH1 0xE0 SHL PUSH1 0x64 DUP3 ADD MSTORE PUSH1 0x84 ADD PUSH2 0x328 JUMP JUMPDEST PUSH1 0x0 DUP5 DUP2 MSTORE PUSH1 0x20 DUP2 DUP2 MSTORE PUSH1 0x40 DUP1 DUP4 KECCAK256 PUSH1 0x1 PUSH1 0x1 PUSH1 0xA0 SHL SUB DUP10 DUP2 AND DUP1 DUP7 MSTORE SWAP2 DUP5 MSTORE DUP3 DUP6 KECCAK256 DUP9 DUP8 SUB SWAP1 SSTORE DUP3 MLOAD DUP10 DUP2 MSTORE SWAP4 DUP5 ADD DUP9 SWAP1 MSTORE SWAP1 SWAP3 SWAP1 DUP7 AND SWAP2 PUSH32 0xC3D58168C5AE7397731D063D5BBF3D657854427343F4C083240F7AACAA2D0F62 SWAP2 ADD PUSH1 0x40 MLOAD DUP1 SWAP2 SUB SWAP1 LOG4 POP POP POP POP POP JUMP JUMPDEST PUSH1 0x1 PUSH1 0x1 PUSH1 0xA0 SHL SUB DUP5 AND PUSH2 0xC73 JUMPI PUSH1 0x40 MLOAD PUSH3 0x461BCD PUSH1 0xE5 SHL DUP2 MSTORE PUSH1 0x20 PUSH1 0x4 DUP3 ADD MSTORE PUSH1 0x21 PUSH1 0x24 DUP3 ADD MSTORE PUSH32 0x455243313135353A206D696E7420746F20746865207A65726F20616464726573 PUSH1 0x44 DUP3 ADD MSTORE PUSH1 0x73 PUSH1 0xF8 SHL PUSH1 0x64 DUP3 ADD MSTORE PUSH1 0x84 ADD PUSH2 0x328 JUMP JUMPDEST DUP2 MLOAD DUP4 MLOAD EQ PUSH2 0xC94 JUMPI PUSH1 0x40 MLOAD PUSH3 0x461BCD PUSH1 0xE5 SHL DUP2 MSTORE PUSH1 0x4 ADD PUSH2 0x328 SWAP1 PUSH2 0x1C14 JUMP JUMPDEST CALLER PUSH1 0x0 JUMPDEST DUP5 MLOAD DUP2 LT ISZERO PUSH2 0xD30 JUMPI DUP4 DUP2 DUP2 MLOAD DUP2 LT PUSH2 0xCB3 JUMPI PUSH2 0xCB3 PUSH2 0x1BCE JUMP JUMPDEST PUSH1 0x20 MUL PUSH1 0x20 ADD ADD MLOAD PUSH1 0x0 DUP1 DUP8 DUP5 DUP2 MLOAD DUP2 LT PUSH2 0xCD0 JUMPI PUSH2 0xCD0 PUSH2 0x1BCE JUMP JUMPDEST PUSH1 0x20 MUL PUSH1 0x20 ADD ADD MLOAD DUP2 MSTORE PUSH1 0x20 ADD SWAP1 DUP2 MSTORE PUSH1 0x20 ADD PUSH1 0x0 KECCAK256 PUSH1 0x0 DUP9 PUSH1 0x1 PUSH1 0x1 PUSH1 0xA0 SHL SUB AND PUSH1 0x1 PUSH1 0x1 PUSH1 0xA0 SHL SUB AND DUP2 MSTORE PUSH1 0x20 ADD SWAP1 DUP2 MSTORE PUSH1 0x20 ADD PUSH1 0x0 KECCAK256 PUSH1 0x0 DUP3 DUP3 SLOAD PUSH2 0xD18 SWAP2 SWAP1 PUSH2 0x1BB6 JUMP JUMPDEST SWAP1 SWAP2 SSTORE POP DUP2 SWAP1 POP PUSH2 0xD28 DUP2 PUSH2 0x1BE4 JUMP JUMPDEST SWAP2 POP POP PUSH2 0xC98 JUMP JUMPDEST POP DUP5 PUSH1 0x1 PUSH1 0x1 PUSH1 0xA0 SHL SUB AND PUSH1 0x0 PUSH1 0x1 PUSH1 0x1 PUSH1 0xA0 SHL SUB AND DUP3 PUSH1 0x1 PUSH1 0x1 PUSH1 0xA0 SHL SUB AND PUSH32 0x4A39DC06D4C0DBC64B70AF90FD698A233A518AA5D07E595D983B8C0526C8F7FB DUP8 DUP8 PUSH1 0x40 MLOAD PUSH2 0xD81 SWAP3 SWAP2 SWAP1 PUSH2 0x1C5C JUMP JUMPDEST PUSH1 0x40 MLOAD DUP1 SWAP2 SUB SWAP1 LOG4 PUSH2 0x5AC DUP2 PUSH1 0x0 DUP8 DUP8 DUP8 DUP8 PUSH2 0x11D7 JUMP JUMPDEST DUP2 MLOAD DUP4 MLOAD EQ PUSH2 0xDB9 JUMPI PUSH1 0x40 MLOAD PUSH3 0x461BCD PUSH1 0xE5 SHL DUP2 MSTORE PUSH1 0x4 ADD PUSH2 0x328 SWAP1 PUSH2 0x1C14 JUMP JUMPDEST PUSH1 0x1 PUSH1 0x1 PUSH1 0xA0 SHL SUB DUP5 AND PUSH2 0xDDF JUMPI PUSH1 0x40 MLOAD PUSH3 0x461BCD PUSH1 0xE5 SHL DUP2 MSTORE PUSH1 0x4 ADD PUSH2 0x328 SWAP1 PUSH2 0x1C8A JUMP JUMPDEST CALLER PUSH1 0x0 JUMPDEST DUP5 MLOAD DUP2 LT ISZERO PUSH2 0xEC6 JUMPI PUSH1 0x0 DUP6 DUP3 DUP2 MLOAD DUP2 LT PUSH2 0xE00 JUMPI PUSH2 0xE00 PUSH2 0x1BCE JUMP JUMPDEST PUSH1 0x20 MUL PUSH1 0x20 ADD ADD MLOAD SWAP1 POP PUSH1 0x0 DUP6 DUP4 DUP2 MLOAD DUP2 LT PUSH2 0xE1E JUMPI PUSH2 0xE1E PUSH2 0x1BCE JUMP JUMPDEST PUSH1 0x20 SWAP1 DUP2 MUL SWAP2 SWAP1 SWAP2 ADD DUP2 ADD MLOAD PUSH1 0x0 DUP5 DUP2 MSTORE DUP1 DUP4 MSTORE PUSH1 0x40 DUP1 DUP3 KECCAK256 PUSH1 0x1 PUSH1 0x1 PUSH1 0xA0 SHL SUB DUP15 AND DUP4 MSTORE SWAP1 SWAP4 MSTORE SWAP2 SWAP1 SWAP2 KECCAK256 SLOAD SWAP1 SWAP2 POP DUP2 DUP2 LT ISZERO PUSH2 0xE6E JUMPI PUSH1 0x40 MLOAD PUSH3 0x461BCD PUSH1 0xE5 SHL DUP2 MSTORE PUSH1 0x4 ADD PUSH2 0x328 SWAP1 PUSH2 0x1CCF JUMP JUMPDEST PUSH1 0x0 DUP4 DUP2 MSTORE PUSH1 0x20 DUP2 DUP2 MSTORE PUSH1 0x40 DUP1 DUP4 KECCAK256 PUSH1 0x1 PUSH1 0x1 PUSH1 0xA0 SHL SUB DUP15 DUP2 AND DUP6 MSTORE SWAP3 MSTORE DUP1 DUP4 KECCAK256 DUP6 DUP6 SUB SWAP1 SSTORE SWAP1 DUP12 AND DUP3 MSTORE DUP2 KECCAK256 DUP1 SLOAD DUP5 SWAP3 SWAP1 PUSH2 0xEAB SWAP1 DUP5 SWAP1 PUSH2 0x1BB6 JUMP JUMPDEST SWAP3 POP POP DUP2 SWAP1 SSTORE POP POP POP POP DUP1 PUSH2 0xEBF SWAP1 PUSH2 0x1BE4 JUMP JUMPDEST SWAP1 POP PUSH2 0xDE3 JUMP JUMPDEST POP DUP5 PUSH1 0x1 PUSH1 0x1 PUSH1 0xA0 SHL SUB AND DUP7 PUSH1 0x1 PUSH1 0x1 PUSH1 0xA0 SHL SUB AND DUP3 PUSH1 0x1 PUSH1 0x1 PUSH1 0xA0 SHL SUB AND PUSH32 0x4A39DC06D4C0DBC64B70AF90FD698A233A518AA5D07E595D983B8C0526C8F7FB DUP8 DUP8 PUSH1 0x40 MLOAD PUSH2 0xF16 SWAP3 SWAP2 SWAP1 PUSH2 0x1C5C JUMP JUMPDEST PUSH1 0x40 MLOAD DUP1 SWAP2 SUB SWAP1 LOG4 PUSH2 0xF2C DUP2 DUP8 DUP8 DUP8 DUP8 DUP8 PUSH2 0x11D7 JUMP JUMPDEST POP POP POP POP POP POP JUMP JUMPDEST PUSH1 0x3 DUP1 SLOAD PUSH1 0x1 PUSH1 0x1 PUSH1 0xA0 SHL SUB DUP4 DUP2 AND PUSH1 0x1 PUSH1 0x1 PUSH1 0xA0 SHL SUB NOT DUP4 AND DUP2 OR SWAP1 SWAP4 SSTORE PUSH1 0x40 MLOAD SWAP2 AND SWAP2 SWAP1 DUP3 SWAP1 PUSH32 0x8BE0079C531659141344CD1FD0A4F28419497F9722A3DAAFE3B4186F6B6457E0 SWAP1 PUSH1 0x0 SWAP1 LOG3 POP POP JUMP JUMPDEST DUP2 PUSH1 0x1 PUSH1 0x1 PUSH1 0xA0 SHL SUB AND DUP4 PUSH1 0x1 PUSH1 0x1 PUSH1 0xA0 SHL SUB AND SUB PUSH2 0xFF9 JUMPI PUSH1 0x40 MLOAD PUSH3 0x461BCD PUSH1 0xE5 SHL DUP2 MSTORE PUSH1 0x20 PUSH1 0x4 DUP3 ADD MSTORE PUSH1 0x29 PUSH1 0x24 DUP3 ADD MSTORE PUSH32 0x455243313135353A2073657474696E6720617070726F76616C20737461747573 PUSH1 0x44 DUP3 ADD MSTORE PUSH9 0x103337B91039B2B633 PUSH1 0xB9 SHL PUSH1 0x64 DUP3 ADD MSTORE PUSH1 0x84 ADD PUSH2 0x328 JUMP JUMPDEST PUSH1 0x1 PUSH1 0x1 PUSH1 0xA0 SHL SUB DUP4 DUP2 AND PUSH1 0x0 DUP2 DUP2 MSTORE PUSH1 0x1 PUSH1 0x20 SWAP1 DUP2 MSTORE PUSH1 0x40 DUP1 DUP4 KECCAK256 SWAP5 DUP8 AND DUP1 DUP5 MSTORE SWAP5 DUP3 MSTORE SWAP2 DUP3 SWAP1 KECCAK256 DUP1 SLOAD PUSH1 0xFF NOT AND DUP7 ISZERO ISZERO SWAP1 DUP2 OR SWAP1 SWAP2 SSTORE SWAP2 MLOAD SWAP2 DUP3 MSTORE PUSH32 0x17307EAB39AB6107E8899845AD3D59BD9653F200F220920489CA2B5937696C31 SWAP2 ADD PUSH1 0x40 MLOAD DUP1 SWAP2 SUB SWAP1 LOG3 POP POP POP JUMP JUMPDEST PUSH1 0x1 PUSH1 0x1 PUSH1 0xA0 SHL SUB DUP5 AND PUSH2 0x108C JUMPI PUSH1 0x40 MLOAD PUSH3 0x461BCD PUSH1 0xE5 SHL DUP2 MSTORE PUSH1 0x4 ADD PUSH2 0x328 SWAP1 PUSH2 0x1C8A JUMP JUMPDEST CALLER PUSH2 0x10A5 DUP2 DUP8 DUP8 PUSH2 0x109C DUP9 PUSH2 0x118C JUMP JUMPDEST PUSH2 0x5AC DUP9 PUSH2 0x118C JUMP JUMPDEST PUSH1 0x0 DUP5 DUP2 MSTORE PUSH1 0x20 DUP2 DUP2 MSTORE PUSH1 0x40 DUP1 DUP4 KECCAK256 PUSH1 0x1 PUSH1 0x1 PUSH1 0xA0 SHL SUB DUP11 AND DUP5 MSTORE SWAP1 SWAP2 MSTORE SWAP1 KECCAK256 SLOAD DUP4 DUP2 LT ISZERO PUSH2 0x10E6 JUMPI PUSH1 0x40 MLOAD PUSH3 0x461BCD PUSH1 0xE5 SHL DUP2 MSTORE PUSH1 0x4 ADD PUSH2 0x328 SWAP1 PUSH2 0x1CCF JUMP JUMPDEST PUSH1 0x0 DUP6 DUP2 MSTORE PUSH1 0x20 DUP2 DUP2 MSTORE PUSH1 0x40 DUP1 DUP4 KECCAK256 PUSH1 0x1 PUSH1 0x1 PUSH1 0xA0 SHL SUB DUP12 DUP2 AND DUP6 MSTORE SWAP3 MSTORE DUP1 DUP4 KECCAK256 DUP8 DUP6 SUB SWAP1 SSTORE SWAP1 DUP9 AND DUP3 MSTORE DUP2 KECCAK256 DUP1 SLOAD DUP7 SWAP3 SWAP1 PUSH2 0x1123 SWAP1 DUP5 SWAP1 PUSH2 0x1BB6 JUMP JUMPDEST SWAP1 SWAP2 SSTORE POP POP PUSH1 0x40 DUP1 MLOAD DUP7 DUP2 MSTORE PUSH1 0x20 DUP2 ADD DUP7 SWAP1 MSTORE PUSH1 0x1 PUSH1 0x1 PUSH1 0xA0 SHL SUB DUP1 DUP10 AND SWAP3 DUP11 DUP3 AND SWAP3 SWAP2 DUP7 AND SWAP2 PUSH32 0xC3D58168C5AE7397731D063D5BBF3D657854427343F4C083240F7AACAA2D0F62 SWAP2 ADD PUSH1 0x40 MLOAD DUP1 SWAP2 SUB SWAP1 LOG4 PUSH2 0x1183 DUP3 DUP9 DUP9 DUP9 DUP9 DUP9 PUSH2 0x1332 JUMP JUMPDEST POP POP POP POP POP POP POP JUMP JUMPDEST PUSH1 0x40 DUP1 MLOAD PUSH1 0x1 DUP1 DUP3 MSTORE DUP2 DUP4 ADD SWAP1 SWAP3 MSTORE PUSH1 0x60 SWAP2 PUSH1 0x0 SWAP2 SWAP1 PUSH1 0x20 DUP1 DUP4 ADD SWAP1 DUP1 CALLDATASIZE DUP4 CALLDATACOPY ADD SWAP1 POP POP SWAP1 POP DUP3 DUP2 PUSH1 0x0 DUP2 MLOAD DUP2 LT PUSH2 0x11C6 JUMPI PUSH2 0x11C6 PUSH2 0x1BCE JUMP JUMPDEST PUSH1 0x20 SWAP1 DUP2 MUL SWAP2 SWAP1 SWAP2 ADD ADD MSTORE SWAP3 SWAP2 POP POP JUMP JUMPDEST PUSH1 0x1 PUSH1 0x1 PUSH1 0xA0 SHL SUB DUP5 AND EXTCODESIZE ISZERO PUSH2 0xF2C JUMPI PUSH1 0x40 MLOAD PUSH4 0xBC197C81 PUSH1 0xE0 SHL DUP2 MSTORE PUSH1 0x1 PUSH1 0x1 PUSH1 0xA0 SHL SUB DUP6 AND SWAP1 PUSH4 0xBC197C81 SWAP1 PUSH2 0x121B SWAP1 DUP10 SWAP1 DUP10 SWAP1 DUP9 SWAP1 DUP9 SWAP1 DUP9 SWAP1 PUSH1 0x4 ADD PUSH2 0x1D19 JUMP JUMPDEST PUSH1 0x20 PUSH1 0x40 MLOAD DUP1 DUP4 SUB DUP2 PUSH1 0x0 DUP8 GAS CALL SWAP3 POP POP POP DUP1 ISZERO PUSH2 0x1256 JUMPI POP PUSH1 0x40 DUP1 MLOAD PUSH1 0x1F RETURNDATASIZE SWAP1 DUP2 ADD PUSH1 0x1F NOT AND DUP3 ADD SWAP1 SWAP3 MSTORE PUSH2 0x1253 SWAP2 DUP2 ADD SWAP1 PUSH2 0x1D77 JUMP JUMPDEST PUSH1 0x1 JUMPDEST PUSH2 0x1302 JUMPI PUSH2 0x1262 PUSH2 0x1D94 JUMP JUMPDEST DUP1 PUSH4 0x8C379A0 SUB PUSH2 0x129B JUMPI POP PUSH2 0x1276 PUSH2 0x1DB0 JUMP JUMPDEST DUP1 PUSH2 0x1281 JUMPI POP PUSH2 0x129D JUMP JUMPDEST DUP1 PUSH1 0x40 MLOAD PUSH3 0x461BCD PUSH1 0xE5 SHL DUP2 MSTORE PUSH1 0x4 ADD PUSH2 0x328 SWAP2 SWAP1 PUSH2 0x168E JUMP JUMPDEST POP JUMPDEST PUSH1 0x40 MLOAD PUSH3 0x461BCD PUSH1 0xE5 SHL DUP2 MSTORE PUSH1 0x20 PUSH1 0x4 DUP3 ADD MSTORE PUSH1 0x34 PUSH1 0x24 DUP3 ADD MSTORE PUSH32 0x455243313135353A207472616E7366657220746F206E6F6E2045524331313535 PUSH1 0x44 DUP3 ADD MSTORE PUSH20 0x2932B1B2B4BB32B91034B6B83632B6B2B73A32B9 PUSH1 0x61 SHL PUSH1 0x64 DUP3 ADD MSTORE PUSH1 0x84 ADD PUSH2 0x328 JUMP JUMPDEST PUSH1 0x1 PUSH1 0x1 PUSH1 0xE0 SHL SUB NOT DUP2 AND PUSH4 0xBC197C81 PUSH1 0xE0 SHL EQ PUSH2 0x1183 JUMPI PUSH1 0x40 MLOAD PUSH3 0x461BCD PUSH1 0xE5 SHL DUP2 MSTORE PUSH1 0x4 ADD PUSH2 0x328 SWAP1 PUSH2 0x1E39 JUMP JUMPDEST PUSH1 0x1 PUSH1 0x1 PUSH1 0xA0 SHL SUB DUP5 AND EXTCODESIZE ISZERO PUSH2 0xF2C JUMPI PUSH1 0x40 MLOAD PUSH4 0xF23A6E61 PUSH1 0xE0 SHL DUP2 MSTORE PUSH1 0x1 PUSH1 0x1 PUSH1 0xA0 SHL SUB DUP6 AND SWAP1 PUSH4 0xF23A6E61 SWAP1 PUSH2 0x1376 SWAP1 DUP10 SWAP1 DUP10 SWAP1 DUP9 SWAP1 DUP9 SWAP1 DUP9 SWAP1 PUSH1 0x4 ADD PUSH2 0x1E81 JUMP JUMPDEST PUSH1 0x20 PUSH1 0x40 MLOAD DUP1 DUP4 SUB DUP2 PUSH1 0x0 DUP8 GAS CALL SWAP3 POP POP POP DUP1 ISZERO PUSH2 0x13B1 JUMPI POP PUSH1 0x40 DUP1 MLOAD PUSH1 0x1F RETURNDATASIZE SWAP1 DUP2 ADD PUSH1 0x1F NOT AND DUP3 ADD SWAP1 SWAP3 MSTORE PUSH2 0x13AE SWAP2 DUP2 ADD SWAP1 PUSH2 0x1D77 JUMP JUMPDEST PUSH1 0x1 JUMPDEST PUSH2 0x13BD JUMPI PUSH2 0x1262 PUSH2 0x1D94 JUMP JUMPDEST PUSH1 0x1 PUSH1 0x1 PUSH1 0xE0 SHL SUB NOT DUP2 AND PUSH4 0xF23A6E61 PUSH1 0xE0 SHL EQ PUSH2 0x1183 JUMPI PUSH1 0x40 MLOAD PUSH3 0x461BCD PUSH1 0xE5 SHL DUP2 MSTORE PUSH1 0x4 ADD PUSH2 0x328 SWAP1 PUSH2 0x1E39 JUMP JUMPDEST DUP3 DUP1 SLOAD PUSH2 0x13F9 SWAP1 PUSH2 0x1B7C JUMP JUMPDEST SWAP1 PUSH1 0x0 MSTORE PUSH1 0x20 PUSH1 0x0 KECCAK256 SWAP1 PUSH1 0x1F ADD PUSH1 0x20 SWAP1 DIV DUP2 ADD SWAP3 DUP3 PUSH2 0x141B JUMPI PUSH1 0x0 DUP6 SSTORE PUSH2 0x1461 JUMP JUMPDEST DUP3 PUSH1 0x1F LT PUSH2 0x1434 JUMPI DUP1 MLOAD PUSH1 0xFF NOT AND DUP4 DUP1 ADD OR DUP6 SSTORE PUSH2 0x1461 JUMP JUMPDEST DUP3 DUP1 ADD PUSH1 0x1 ADD DUP6 SSTORE DUP3 ISZERO PUSH2 0x1461 JUMPI SWAP2 DUP3 ADD JUMPDEST DUP3 DUP2 GT ISZERO PUSH2 0x1461 JUMPI DUP3 MLOAD DUP3 SSTORE SWAP2 PUSH1 0x20 ADD SWAP2 SWAP1 PUSH1 0x1 ADD SWAP1 PUSH2 0x1446 JUMP JUMPDEST POP PUSH2 0x146D SWAP3 SWAP2 POP PUSH2 0x1471 JUMP JUMPDEST POP SWAP1 JUMP JUMPDEST JUMPDEST DUP1 DUP3 GT ISZERO PUSH2 0x146D JUMPI PUSH1 0x0 DUP2 SSTORE PUSH1 0x1 ADD PUSH2 0x1472 JUMP JUMPDEST DUP1 CALLDATALOAD PUSH1 0x1 PUSH1 0x1 PUSH1 0xA0 SHL SUB DUP2 AND DUP2 EQ PUSH2 0x149D JUMPI PUSH1 0x0 DUP1 REVERT JUMPDEST SWAP2 SWAP1 POP JUMP JUMPDEST PUSH1 0x0 DUP1 PUSH1 0x40 DUP4 DUP6 SUB SLT ISZERO PUSH2 0x14B5 JUMPI PUSH1 0x0 DUP1 REVERT JUMPDEST PUSH2 0x14BE DUP4 PUSH2 0x1486 JUMP JUMPDEST SWAP5 PUSH1 0x20 SWAP4 SWAP1 SWAP4 ADD CALLDATALOAD SWAP4 POP POP POP JUMP JUMPDEST PUSH1 0x1 PUSH1 0x1 PUSH1 0xE0 SHL SUB NOT DUP2 AND DUP2 EQ PUSH2 0x3DC JUMPI PUSH1 0x0 DUP1 REVERT JUMPDEST PUSH1 0x0 PUSH1 0x20 DUP3 DUP5 SUB SLT ISZERO PUSH2 0x14F4 JUMPI PUSH1 0x0 DUP1 REVERT JUMPDEST DUP2 CALLDATALOAD PUSH2 0x14FF DUP2 PUSH2 0x14CC JUMP JUMPDEST SWAP4 SWAP3 POP POP POP JUMP JUMPDEST PUSH4 0x4E487B71 PUSH1 0xE0 SHL PUSH1 0x0 MSTORE PUSH1 0x41 PUSH1 0x4 MSTORE PUSH1 0x24 PUSH1 0x0 REVERT JUMPDEST PUSH1 0x1F DUP3 ADD PUSH1 0x1F NOT AND DUP2 ADD PUSH1 0x1 PUSH1 0x1 PUSH1 0x40 SHL SUB DUP2 GT DUP3 DUP3 LT OR ISZERO PUSH2 0x1541 JUMPI PUSH2 0x1541 PUSH2 0x1506 JUMP JUMPDEST PUSH1 0x40 MSTORE POP POP JUMP JUMPDEST PUSH1 0x0 PUSH1 0x1 PUSH1 0x1 PUSH1 0x40 SHL SUB DUP4 GT ISZERO PUSH2 0x1561 JUMPI PUSH2 0x1561 PUSH2 0x1506 JUMP JUMPDEST PUSH1 0x40 MLOAD PUSH2 0x1578 PUSH1 0x1F DUP6 ADD PUSH1 0x1F NOT AND PUSH1 0x20 ADD DUP3 PUSH2 0x151C JUMP JUMPDEST DUP1 SWAP2 POP DUP4 DUP2 MSTORE DUP5 DUP5 DUP5 ADD GT ISZERO PUSH2 0x158D JUMPI PUSH1 0x0 DUP1 REVERT JUMPDEST DUP4 DUP4 PUSH1 0x20 DUP4 ADD CALLDATACOPY PUSH1 0x0 PUSH1 0x20 DUP6 DUP4 ADD ADD MSTORE POP SWAP4 SWAP3 POP POP POP JUMP JUMPDEST PUSH1 0x0 PUSH1 0x20 DUP3 DUP5 SUB SLT ISZERO PUSH2 0x15B7 JUMPI PUSH1 0x0 DUP1 REVERT JUMPDEST DUP2 CALLDATALOAD PUSH1 0x1 PUSH1 0x1 PUSH1 0x40 SHL SUB DUP2 GT ISZERO PUSH2 0x15CD JUMPI PUSH1 0x0 DUP1 REVERT JUMPDEST DUP3 ADD PUSH1 0x1F DUP2 ADD DUP5 SGT PUSH2 0x15DE JUMPI PUSH1 0x0 DUP1 REVERT JUMPDEST PUSH2 0x15ED DUP5 DUP3 CALLDATALOAD PUSH1 0x20 DUP5 ADD PUSH2 0x1548 JUMP JUMPDEST SWAP5 SWAP4 POP POP POP POP JUMP JUMPDEST PUSH1 0x0 DUP1 PUSH1 0x0 PUSH1 0x60 DUP5 DUP7 SUB SLT ISZERO PUSH2 0x160A JUMPI PUSH1 0x0 DUP1 REVERT JUMPDEST PUSH2 0x1613 DUP5 PUSH2 0x1486 JUMP JUMPDEST SWAP6 PUSH1 0x20 DUP6 ADD CALLDATALOAD SWAP6 POP PUSH1 0x40 SWAP1 SWAP5 ADD CALLDATALOAD SWAP4 SWAP3 POP POP POP JUMP JUMPDEST PUSH1 0x0 PUSH1 0x20 DUP3 DUP5 SUB SLT ISZERO PUSH2 0x163A JUMPI PUSH1 0x0 DUP1 REVERT JUMPDEST POP CALLDATALOAD SWAP2 SWAP1 POP JUMP JUMPDEST PUSH1 0x0 DUP2 MLOAD DUP1 DUP5 MSTORE PUSH1 0x0 JUMPDEST DUP2 DUP2 LT ISZERO PUSH2 0x1667 JUMPI PUSH1 0x20 DUP2 DUP6 ADD DUP2 ADD MLOAD DUP7 DUP4 ADD DUP3 ADD MSTORE ADD PUSH2 0x164B JUMP JUMPDEST DUP2 DUP2 GT ISZERO PUSH2 0x1679 JUMPI PUSH1 0x0 PUSH1 0x20 DUP4 DUP8 ADD ADD MSTORE JUMPDEST POP PUSH1 0x1F ADD PUSH1 0x1F NOT AND SWAP3 SWAP1 SWAP3 ADD PUSH1 0x20 ADD SWAP3 SWAP2 POP POP JUMP JUMPDEST PUSH1 0x20 DUP2 MSTORE PUSH1 0x0 PUSH2 0x14FF PUSH1 0x20 DUP4 ADD DUP5 PUSH2 0x1641 JUMP JUMPDEST PUSH1 0x0 PUSH1 0x1 PUSH1 0x1 PUSH1 0x40 SHL SUB DUP3 GT ISZERO PUSH2 0x16BA JUMPI PUSH2 0x16BA PUSH2 0x1506 JUMP JUMPDEST POP PUSH1 0x5 SHL PUSH1 0x20 ADD SWAP1 JUMP JUMPDEST PUSH1 0x0 DUP3 PUSH1 0x1F DUP4 ADD SLT PUSH2 0x16D5 JUMPI PUSH1 0x0 DUP1 REVERT JUMPDEST DUP2 CALLDATALOAD PUSH1 0x20 PUSH2 0x16E2 DUP3 PUSH2 0x16A1 JUMP JUMPDEST PUSH1 0x40 MLOAD PUSH2 0x16EF DUP3 DUP3 PUSH2 0x151C JUMP JUMPDEST DUP4 DUP2 MSTORE PUSH1 0x5 SWAP4 SWAP1 SWAP4 SHL DUP6 ADD DUP3 ADD SWAP3 DUP3 DUP2 ADD SWAP2 POP DUP7 DUP5 GT ISZERO PUSH2 0x170F JUMPI PUSH1 0x0 DUP1 REVERT JUMPDEST DUP3 DUP7 ADD JUMPDEST DUP5 DUP2 LT ISZERO PUSH2 0x172A JUMPI DUP1 CALLDATALOAD DUP4 MSTORE SWAP2 DUP4 ADD SWAP2 DUP4 ADD PUSH2 0x1713 JUMP JUMPDEST POP SWAP7 SWAP6 POP POP POP POP POP POP JUMP JUMPDEST PUSH1 0x0 DUP3 PUSH1 0x1F DUP4 ADD SLT PUSH2 0x1746 JUMPI PUSH1 0x0 DUP1 REVERT JUMPDEST PUSH2 0x14FF DUP4 DUP4 CALLDATALOAD PUSH1 0x20 DUP6 ADD PUSH2 0x1548 JUMP JUMPDEST PUSH1 0x0 DUP1 PUSH1 0x0 DUP1 PUSH1 0x80 DUP6 DUP8 SUB SLT ISZERO PUSH2 0x176B JUMPI PUSH1 0x0 DUP1 REVERT JUMPDEST PUSH2 0x1774 DUP6 PUSH2 0x1486 JUMP JUMPDEST SWAP4 POP PUSH1 0x20 DUP6 ADD CALLDATALOAD PUSH1 0x1 PUSH1 0x1 PUSH1 0x40 SHL SUB DUP1 DUP3 GT ISZERO PUSH2 0x1790 JUMPI PUSH1 0x0 DUP1 REVERT JUMPDEST PUSH2 0x179C DUP9 DUP4 DUP10 ADD PUSH2 0x16C4 JUMP JUMPDEST SWAP5 POP PUSH1 0x40 DUP8 ADD CALLDATALOAD SWAP2 POP DUP1 DUP3 GT ISZERO PUSH2 0x17B2 JUMPI PUSH1 0x0 DUP1 REVERT JUMPDEST PUSH2 0x17BE DUP9 DUP4 DUP10 ADD PUSH2 0x16C4 JUMP JUMPDEST SWAP4 POP PUSH1 0x60 DUP8 ADD CALLDATALOAD SWAP2 POP DUP1 DUP3 GT ISZERO PUSH2 0x17D4 JUMPI PUSH1 0x0 DUP1 REVERT JUMPDEST POP PUSH2 0x17E1 DUP8 DUP3 DUP9 ADD PUSH2 0x1735 JUMP JUMPDEST SWAP2 POP POP SWAP3 SWAP6 SWAP2 SWAP5 POP SWAP3 POP JUMP JUMPDEST PUSH1 0x0 DUP1 PUSH1 0x0 DUP1 PUSH1 0x0 PUSH1 0xA0 DUP7 DUP9 SUB SLT ISZERO PUSH2 0x1805 JUMPI PUSH1 0x0 DUP1 REVERT JUMPDEST PUSH2 0x180E DUP7 PUSH2 0x1486 JUMP JUMPDEST SWAP5 POP PUSH2 0x181C PUSH1 0x20 DUP8 ADD PUSH2 0x1486 JUMP JUMPDEST SWAP4 POP PUSH1 0x40 DUP7 ADD CALLDATALOAD PUSH1 0x1 PUSH1 0x1 PUSH1 0x40 SHL SUB DUP1 DUP3 GT ISZERO PUSH2 0x1838 JUMPI PUSH1 0x0 DUP1 REVERT JUMPDEST PUSH2 0x1844 DUP10 DUP4 DUP11 ADD PUSH2 0x16C4 JUMP JUMPDEST SWAP5 POP PUSH1 0x60 DUP9 ADD CALLDATALOAD SWAP2 POP DUP1 DUP3 GT ISZERO PUSH2 0x185A JUMPI PUSH1 0x0 DUP1 REVERT JUMPDEST PUSH2 0x1866 DUP10 DUP4 DUP11 ADD PUSH2 0x16C4 JUMP JUMPDEST SWAP4 POP PUSH1 0x80 DUP9 ADD CALLDATALOAD SWAP2 POP DUP1 DUP3 GT ISZERO PUSH2 0x187C JUMPI PUSH1 0x0 DUP1 REVERT JUMPDEST POP PUSH2 0x1889 DUP9 DUP3 DUP10 ADD PUSH2 0x1735 JUMP JUMPDEST SWAP2 POP POP SWAP3 SWAP6 POP SWAP3 SWAP6 SWAP1 SWAP4 POP JUMP JUMPDEST PUSH1 0x0 DUP1 PUSH1 0x40 DUP4 DUP6 SUB SLT ISZERO PUSH2 0x18A9 JUMPI PUSH1 0x0 DUP1 REVERT JUMPDEST DUP3 CALLDATALOAD PUSH1 0x1 PUSH1 0x1 PUSH1 0x40 SHL SUB DUP1 DUP3 GT ISZERO PUSH2 0x18C0 JUMPI PUSH1 0x0 DUP1 REVERT JUMPDEST DUP2 DUP6 ADD SWAP2 POP DUP6 PUSH1 0x1F DUP4 ADD SLT PUSH2 0x18D4 JUMPI PUSH1 0x0 DUP1 REVERT JUMPDEST DUP2 CALLDATALOAD PUSH1 0x20 PUSH2 0x18E1 DUP3 PUSH2 0x16A1 JUMP JUMPDEST PUSH1 0x40 MLOAD PUSH2 0x18EE DUP3 DUP3 PUSH2 0x151C JUMP JUMPDEST DUP4 DUP2 MSTORE PUSH1 0x5 SWAP4 SWAP1 SWAP4 SHL DUP6 ADD DUP3 ADD SWAP3 DUP3 DUP2 ADD SWAP2 POP DUP10 DUP5 GT ISZERO PUSH2 0x190E JUMPI PUSH1 0x0 DUP1 REVERT JUMPDEST SWAP5 DUP3 ADD SWAP5 JUMPDEST DUP4 DUP7 LT ISZERO PUSH2 0x1933 JUMPI PUSH2 0x1924 DUP7 PUSH2 0x1486 JUMP JUMPDEST DUP3 MSTORE SWAP5 DUP3 ADD SWAP5 SWAP1 DUP3 ADD SWAP1 PUSH2 0x1913 JUMP JUMPDEST SWAP7 POP POP DUP7 ADD CALLDATALOAD SWAP3 POP POP DUP1 DUP3 GT ISZERO PUSH2 0x1949 JUMPI PUSH1 0x0 DUP1 REVERT JUMPDEST POP PUSH2 0x1956 DUP6 DUP3 DUP7 ADD PUSH2 0x16C4 JUMP JUMPDEST SWAP2 POP POP SWAP3 POP SWAP3 SWAP1 POP JUMP JUMPDEST PUSH1 0x0 DUP2 MLOAD DUP1 DUP5 MSTORE PUSH1 0x20 DUP1 DUP6 ADD SWAP5 POP DUP1 DUP5 ADD PUSH1 0x0 JUMPDEST DUP4 DUP2 LT ISZERO PUSH2 0x1990 JUMPI DUP2 MLOAD DUP8 MSTORE SWAP6 DUP3 ADD SWAP6 SWAP1 DUP3 ADD SWAP1 PUSH1 0x1 ADD PUSH2 0x1974 JUMP JUMPDEST POP SWAP5 SWAP6 SWAP5 POP POP POP POP POP JUMP JUMPDEST PUSH1 0x20 DUP2 MSTORE PUSH1 0x0 PUSH2 0x14FF PUSH1 0x20 DUP4 ADD DUP5 PUSH2 0x1960 JUMP JUMPDEST PUSH1 0x0 DUP1 PUSH1 0x0 PUSH1 0x60 DUP5 DUP7 SUB SLT ISZERO PUSH2 0x19C3 JUMPI PUSH1 0x0 DUP1 REVERT JUMPDEST DUP4 CALLDATALOAD SWAP3 POP PUSH1 0x20 DUP5 ADD CALLDATALOAD SWAP2 POP PUSH2 0x19DA PUSH1 0x40 DUP6 ADD PUSH2 0x1486 JUMP JUMPDEST SWAP1 POP SWAP3 POP SWAP3 POP SWAP3 JUMP JUMPDEST PUSH1 0x0 DUP1 PUSH1 0x40 DUP4 DUP6 SUB SLT ISZERO PUSH2 0x19F6 JUMPI PUSH1 0x0 DUP1 REVERT JUMPDEST PUSH2 0x19FF DUP4 PUSH2 0x1486 JUMP JUMPDEST SWAP2 POP PUSH1 0x20 DUP4 ADD CALLDATALOAD DUP1 ISZERO ISZERO DUP2 EQ PUSH2 0x1A14 JUMPI PUSH1 0x0 DUP1 REVERT JUMPDEST DUP1 SWAP2 POP POP SWAP3 POP SWAP3 SWAP1 POP JUMP JUMPDEST PUSH1 0x0 DUP1 PUSH1 0x40 DUP4 DUP6 SUB SLT ISZERO PUSH2 0x1A32 JUMPI PUSH1 0x0 DUP1 REVERT JUMPDEST PUSH2 0x1A3B DUP4 PUSH2 0x1486 JUMP JUMPDEST SWAP2 POP PUSH2 0x1A49 PUSH1 0x20 DUP5 ADD PUSH2 0x1486 JUMP JUMPDEST SWAP1 POP SWAP3 POP SWAP3 SWAP1 POP JUMP JUMPDEST PUSH1 0x0 DUP1 PUSH1 0x0 DUP1 PUSH1 0x0 PUSH1 0xA0 DUP7 DUP9 SUB SLT ISZERO PUSH2 0x1A6A JUMPI PUSH1 0x0 DUP1 REVERT JUMPDEST PUSH2 0x1A73 DUP7 PUSH2 0x1486 JUMP JUMPDEST SWAP5 POP PUSH2 0x1A81 PUSH1 0x20 DUP8 ADD PUSH2 0x1486 JUMP JUMPDEST SWAP4 POP PUSH1 0x40 DUP7 ADD CALLDATALOAD SWAP3 POP PUSH1 0x60 DUP7 ADD CALLDATALOAD SWAP2 POP PUSH1 0x80 DUP7 ADD CALLDATALOAD PUSH1 0x1 PUSH1 0x1 PUSH1 0x40 SHL SUB DUP2 GT ISZERO PUSH2 0x1AAA JUMPI PUSH1 0x0 DUP1 REVERT JUMPDEST PUSH2 0x1889 DUP9 DUP3 DUP10 ADD PUSH2 0x1735 JUMP JUMPDEST PUSH1 0x0 PUSH1 0x20 DUP3 DUP5 SUB SLT ISZERO PUSH2 0x1AC8 JUMPI PUSH1 0x0 DUP1 REVERT JUMPDEST PUSH2 0x14FF DUP3 PUSH2 0x1486 JUMP JUMPDEST PUSH1 0x20 DUP1 DUP3 MSTORE DUP2 DUP2 ADD MSTORE PUSH32 0x4F776E61626C653A2063616C6C6572206973206E6F7420746865206F776E6572 PUSH1 0x40 DUP3 ADD MSTORE PUSH1 0x60 ADD SWAP1 JUMP JUMPDEST PUSH1 0x20 DUP1 DUP3 MSTORE PUSH1 0x29 SWAP1 DUP3 ADD MSTORE PUSH32 0x455243313135353A2063616C6C6572206973206E6F74206F776E6572206E6F72 PUSH1 0x40 DUP3 ADD MSTORE PUSH9 0x8185C1C1C9BDD9959 PUSH1 0xBA SHL PUSH1 0x60 DUP3 ADD MSTORE PUSH1 0x80 ADD SWAP1 JUMP JUMPDEST PUSH4 0x4E487B71 PUSH1 0xE0 SHL PUSH1 0x0 MSTORE PUSH1 0x11 PUSH1 0x4 MSTORE PUSH1 0x24 PUSH1 0x0 REVERT JUMPDEST PUSH1 0x0 DUP2 PUSH2 0x1B74 JUMPI PUSH2 0x1B74 PUSH2 0x1B4F JUMP JUMPDEST POP PUSH1 0x0 NOT ADD SWAP1 JUMP JUMPDEST PUSH1 0x1 DUP2 DUP2 SHR SWAP1 DUP3 AND DUP1 PUSH2 0x1B90 JUMPI PUSH1 0x7F DUP3 AND SWAP2 POP JUMPDEST PUSH1 0x20 DUP3 LT DUP2 SUB PUSH2 0x1BB0 JUMPI PUSH4 0x4E487B71 PUSH1 0xE0 SHL PUSH1 0x0 MSTORE PUSH1 0x22 PUSH1 0x4 MSTORE PUSH1 0x24 PUSH1 0x0 REVERT JUMPDEST POP SWAP2 SWAP1 POP JUMP JUMPDEST PUSH1 0x0 DUP3 NOT DUP3 GT ISZERO PUSH2 0x1BC9 JUMPI PUSH2 0x1BC9 PUSH2 0x1B4F JUMP JUMPDEST POP ADD SWAP1 JUMP JUMPDEST PUSH4 0x4E487B71 PUSH1 0xE0 SHL PUSH1 0x0 MSTORE PUSH1 0x32 PUSH1 0x4 MSTORE PUSH1 0x24 PUSH1 0x0 REVERT JUMPDEST PUSH1 0x0 PUSH1 0x1 DUP3 ADD PUSH2 0x1BF6 JUMPI PUSH2 0x1BF6 PUSH2 0x1B4F JUMP JUMPDEST POP PUSH1 0x1 ADD SWAP1 JUMP JUMPDEST PUSH1 0x0 DUP3 DUP3 LT ISZERO PUSH2 0x1C0F JUMPI PUSH2 0x1C0F PUSH2 0x1B4F JUMP JUMPDEST POP SUB SWAP1 JUMP JUMPDEST PUSH1 0x20 DUP1 DUP3 MSTORE PUSH1 0x28 SWAP1 DUP3 ADD MSTORE PUSH32 0x455243313135353A2069647320616E6420616D6F756E7473206C656E67746820 PUSH1 0x40 DUP3 ADD MSTORE PUSH8 0xDAD2E6DAC2E8C6D PUSH1 0xC3 SHL PUSH1 0x60 DUP3 ADD MSTORE PUSH1 0x80 ADD SWAP1 JUMP JUMPDEST PUSH1 0x40 DUP2 MSTORE PUSH1 0x0 PUSH2 0x1C6F PUSH1 0x40 DUP4 ADD DUP6 PUSH2 0x1960 JUMP JUMPDEST DUP3 DUP2 SUB PUSH1 0x20 DUP5 ADD MSTORE PUSH2 0x1C81 DUP2 DUP6 PUSH2 0x1960 JUMP JUMPDEST SWAP6 SWAP5 POP POP POP POP POP JUMP JUMPDEST PUSH1 0x20 DUP1 DUP3 MSTORE PUSH1 0x25 SWAP1 DUP3 ADD MSTORE PUSH32 0x455243313135353A207472616E7366657220746F20746865207A65726F206164 PUSH1 0x40 DUP3 ADD MSTORE PUSH5 0x6472657373 PUSH1 0xD8 SHL PUSH1 0x60 DUP3 ADD MSTORE PUSH1 0x80 ADD SWAP1 JUMP JUMPDEST PUSH1 0x20 DUP1 DUP3 MSTORE PUSH1 0x2A SWAP1 DUP3 ADD MSTORE PUSH32 0x455243313135353A20696E73756666696369656E742062616C616E636520666F PUSH1 0x40 DUP3 ADD MSTORE PUSH10 0x39103A3930B739B332B9 PUSH1 0xB1 SHL PUSH1 0x60 DUP3 ADD MSTORE PUSH1 0x80 ADD SWAP1 JUMP JUMPDEST PUSH1 0x1 PUSH1 0x1 PUSH1 0xA0 SHL SUB DUP7 DUP2 AND DUP3 MSTORE DUP6 AND PUSH1 0x20 DUP3 ADD MSTORE PUSH1 0xA0 PUSH1 0x40 DUP3 ADD DUP2 SWAP1 MSTORE PUSH1 0x0 SWAP1 PUSH2 0x1D45 SWAP1 DUP4 ADD DUP7 PUSH2 0x1960 JUMP JUMPDEST DUP3 DUP2 SUB PUSH1 0x60 DUP5 ADD MSTORE PUSH2 0x1D57 DUP2 DUP7 PUSH2 0x1960 JUMP JUMPDEST SWAP1 POP DUP3 DUP2 SUB PUSH1 0x80 DUP5 ADD MSTORE PUSH2 0x1D6B DUP2 DUP6 PUSH2 0x1641 JUMP JUMPDEST SWAP9 SWAP8 POP POP POP POP POP POP POP POP JUMP JUMPDEST PUSH1 0x0 PUSH1 0x20 DUP3 DUP5 SUB SLT ISZERO PUSH2 0x1D89 JUMPI PUSH1 0x0 DUP1 REVERT JUMPDEST DUP2 MLOAD PUSH2 0x14FF DUP2 PUSH2 0x14CC JUMP JUMPDEST PUSH1 0x0 PUSH1 0x3 RETURNDATASIZE GT ISZERO PUSH2 0x1DAD JUMPI PUSH1 0x4 PUSH1 0x0 DUP1 RETURNDATACOPY POP PUSH1 0x0 MLOAD PUSH1 0xE0 SHR JUMPDEST SWAP1 JUMP JUMPDEST PUSH1 0x0 PUSH1 0x44 RETURNDATASIZE LT ISZERO PUSH2 0x1DBE JUMPI SWAP1 JUMP JUMPDEST PUSH1 0x40 MLOAD PUSH1 0x3 NOT RETURNDATASIZE DUP2 ADD PUSH1 0x4 DUP4 RETURNDATACOPY DUP2 MLOAD RETURNDATASIZE PUSH1 0x1 PUSH1 0x1 PUSH1 0x40 SHL SUB DUP2 PUSH1 0x24 DUP5 ADD GT DUP2 DUP5 GT OR ISZERO PUSH2 0x1DED JUMPI POP POP POP POP POP SWAP1 JUMP JUMPDEST DUP3 DUP6 ADD SWAP2 POP DUP2 MLOAD DUP2 DUP2 GT ISZERO PUSH2 0x1E05 JUMPI POP POP POP POP POP POP SWAP1 JUMP JUMPDEST DUP5 RETURNDATASIZE DUP8 ADD ADD PUSH1 0x20 DUP3 DUP6 ADD ADD GT ISZERO PUSH2 0x1E1F JUMPI POP POP POP POP POP POP SWAP1 JUMP JUMPDEST PUSH2 0x1E2E PUSH1 0x20 DUP3 DUP7 ADD ADD DUP8 PUSH2 0x151C JUMP JUMPDEST POP SWAP1 SWAP6 SWAP5 POP POP POP POP POP JUMP JUMPDEST PUSH1 0x20 DUP1 DUP3 MSTORE PUSH1 0x28 SWAP1 DUP3 ADD MSTORE PUSH32 0x455243313135353A204552433131353552656365697665722072656A65637465 PUSH1 0x40 DUP3 ADD MSTORE PUSH8 0x6420746F6B656E73 PUSH1 0xC0 SHL PUSH1 0x60 DUP3 ADD MSTORE PUSH1 0x80 ADD SWAP1 JUMP JUMPDEST PUSH1 0x1 PUSH1 0x1 PUSH1 0xA0 SHL SUB DUP7 DUP2 AND DUP3 MSTORE DUP6 AND PUSH1 0x20 DUP3 ADD MSTORE PUSH1 0x40 DUP2 ADD DUP5 SWAP1 MSTORE PUSH1 0x60 DUP2 ADD DUP4 SWAP1 MSTORE PUSH1 0xA0 PUSH1 0x80 DUP3 ADD DUP2 SWAP1 MSTORE PUSH1 0x0 SWAP1 PUSH2 0x1EBB SWAP1 DUP4 ADD DUP5 PUSH2 0x1641 JUMP JUMPDEST SWAP8 SWAP7 POP POP POP POP POP POP POP JUMP INVALID LOG2 PUSH5 0x6970667358 0x22 SLT KECCAK256 0x1F PUSH19 0x452ADF6D4D0760C56819A37B7BBE0A3AE49C49 0x2F 0xD9 PUSH29 0x9B80EE783754A1F364736F6C634300080D003368747470733A2F2F6761 PUSH14 0x652E6578616D706C652F6170692F PUSH10 0x74656D2F7B69647D2E6A PUSH20 0x6F6E000000000000000000000000000000000000 "
				},
				"gasEstimates": {
					"creation": {
						"codeDepositCost": "1586400",
						"executionCost": "infinite",
						"totalCost": "infinite"
					},
					"external": {
						"balanceOf(address,uint256)": "2695",
						"balanceOfBatch(address[],uint256[])": "infinite",
						"brun(address,uint256,uint256)": "infinite",
						"getTokenSupply()": "2325",
						"isApprovedForAll(address,address)": "infinite",
						"mintBatch(address,uint256[],uint256[],bytes)": "infinite",
						"mintBatchWithNumber(uint256)": "infinite",
						"owner()": "2368",
						"renounceOwnership()": "28228",
						"safeBatchTransferFrom(address,address,uint256[],uint256[],bytes)": "infinite",
						"safeTransferFrom(address,address,uint256,uint256,bytes)": "infinite",
						"setApprovalForAll(address,bool)": "26705",
						"setURI(string)": "infinite",
						"supportsInterface(bytes4)": "567",
						"tokenSupply()": "2329",
						"transferOwnership(address)": "28422",
						"transferWithNumber(uint256,uint256,address)": "infinite",
						"uri(uint256)": "infinite"
					}
				},
				"methodIdentifiers": {
					"balanceOf(address,uint256)": "00fdd58e",
					"balanceOfBatch(address[],uint256[])": "4e1273f4",
					"brun(address,uint256,uint256)": "092f2dbf",
					"getTokenSupply()": "ad974f4c",
					"isApprovedForAll(address,address)": "e985e9c5",
					"mintBatch(address,uint256[],uint256[],bytes)": "1f7fdffa",
					"mintBatchWithNumber(uint256)": "71ac14e6",
					"owner()": "8da5cb5b",
					"renounceOwnership()": "715018a6",
					"safeBatchTransferFrom(address,address,uint256[],uint256[],bytes)": "2eb2c2d6",
					"safeTransferFrom(address,address,uint256,uint256,bytes)": "f242432a",
					"setApprovalForAll(address,bool)": "a22cb465",
					"setURI(string)": "02fe5305",
					"supportsInterface(bytes4)": "01ffc9a7",
					"tokenSupply()": "7824407f",
					"transferOwnership(address)": "f2fde38b",
					"transferWithNumber(uint256,uint256,address)": "9416308e",
					"uri(uint256)": "0e89341c"
				}
			},
			"storageLayout": {
				"storage": [
					{
						"astId": 378,
						"contract": "nft/ERC1155.sol:BeeItems",
						"label": "_balances",
						"offset": 0,
						"slot": "0",
						"type": "t_mapping(t_uint256,t_mapping(t_address,t_uint256))"
					},
					{
						"astId": 384,
						"contract": "nft/ERC1155.sol:BeeItems",
						"label": "_operatorApprovals",
						"offset": 0,
						"slot": "1",
						"type": "t_mapping(t_address,t_mapping(t_address,t_bool))"
					},
					{
						"astId": 386,
						"contract": "nft/ERC1155.sol:BeeItems",
						"label": "_uri",
						"offset": 0,
						"slot": "2",
						"type": "t_string_storage"
					},
					{
						"astId": 255,
						"contract": "nft/ERC1155.sol:BeeItems",
						"label": "_owner",
						"offset": 0,
						"slot": "3",
						"type": "t_address"
					},
					{
						"astId": 9,
						"contract": "nft/ERC1155.sol:BeeItems",
						"label": "tokenSupply",
						"offset": 0,
						"slot": "4",
						"type": "t_uint256"
					}
				],
				"types": {
					"t_address": {
						"encoding": "inplace",
						"label": "address",
						"numberOfBytes": "20"
					},
					"t_bool": {
						"encoding": "inplace",
						"label": "bool",
						"numberOfBytes": "1"
					},
					"t_mapping(t_address,t_bool)": {
						"encoding": "mapping",
						"key": "t_address",
						"label": "mapping(address => bool)",
						"numberOfBytes": "32",
						"value": "t_bool"
					},
					"t_mapping(t_address,t_mapping(t_address,t_bool))": {
						"encoding": "mapping",
						"key": "t_address",
						"label": "mapping(address => mapping(address => bool))",
						"numberOfBytes": "32",
						"value": "t_mapping(t_address,t_bool)"
					},
					"t_mapping(t_address,t_uint256)": {
						"encoding": "mapping",
						"key": "t_address",
						"label": "mapping(address => uint256)",
						"numberOfBytes": "32",
						"value": "t_uint256"
					},
					"t_mapping(t_uint256,t_mapping(t_address,t_uint256))": {
						"encoding": "mapping",
						"key": "t_uint256",
						"label": "mapping(uint256 => mapping(address => uint256))",
						"numberOfBytes": "32",
						"value": "t_mapping(t_address,t_uint256)"
					},
					"t_string_storage": {
						"encoding": "bytes",
						"label": "string",
						"numberOfBytes": "32"
					},
					"t_uint256": {
						"encoding": "inplace",
						"label": "uint256",
						"numberOfBytes": "32"
					}
				}
			},
			"userdoc": {
				"kind": "user",
				"methods": {},
				"version": 1
			}
		}
	}
}