{
	"smart_contract/node_modules/@openzeppelin/contracts/token/ERC1155/utils/ERC1155Holder.sol": {
		"ERC1155Holder": {
			"abi": [
				{
					"inputs": [
						{
							"internalType": "address",
							"name": "",
							"type": "address"
						},
						{
							"internalType": "address",
							"name": "",
							"type": "address"
						},
						{
							"internalType": "uint256[]",
							"name": "",
							"type": "uint256[]"
						},
						{
							"internalType": "uint256[]",
							"name": "",
							"type": "uint256[]"
						},
						{
							"internalType": "bytes",
							"name": "",
							"type": "bytes"
						}
					],
					"name": "onERC1155BatchReceived",
					"outputs": [
						{
							"internalType": "bytes4",
							"name": "",
							"type": "bytes4"
						}
					],
					"stateMutability": "nonpayable",
					"type": "function"
				},
				{
					"inputs": [
						{
							"internalType": "address",
							"name": "",
							"type": "address"
						},
						{
							"internalType": "address",
							"name": "",
							"type": "address"
						},
						{
							"internalType": "uint256",
							"name": "",
							"type": "uint256"
						},
						{
							"internalType": "uint256",
							"name": "",
							"type": "uint256"
						},
						{
							"internalType": "bytes",
							"name": "",
							"type": "bytes"
						}
					],
					"name": "onERC1155Received",
					"outputs": [
						{
							"internalType": "bytes4",
							"name": "",
							"type": "bytes4"
						}
					],
					"stateMutability": "nonpayable",
					"type": "function"
				},
				{
					"inputs": [
						{
							"internalType": "bytes4",
							"name": "interfaceId",
							"type": "bytes4"
						}
					],
					"name": "supportsInterface",
					"outputs": [
						{
							"internalType": "bool",
							"name": "",
							"type": "bool"
						}
					],
					"stateMutability": "view",
					"type": "function"
				}
			],
			"devdoc": {
				"details": "_Available since v3.1._",
				"kind": "dev",
				"methods": {
					"supportsInterface(bytes4)": {
						"details": "See {IERC165-supportsInterface}."
					}
				},
				"version": 1
			},
			"evm": {
				"assembly": "    /* \"smart_contract/node_modules/@openzeppelin/contracts/token/ERC1155/utils/ERC1155Holder.sol\":214:756  contract ERC1155Holder is ERC1155Receiver {... */\n  mstore(0x40, 0x80)\n  callvalue\n  dup1\n  iszero\n  tag_1\n  jumpi\n  0x00\n  dup1\n  revert\ntag_1:\n  pop\n  dataSize(sub_0)\n  dup1\n  dataOffset(sub_0)\n  0x00\n  codecopy\n  0x00\n  return\nstop\n\nsub_0: assembly {\n        /* \"smart_contract/node_modules/@openzeppelin/contracts/token/ERC1155/utils/ERC1155Holder.sol\":214:756  contract ERC1155Holder is ERC1155Receiver {... */\n      mstore(0x40, 0x80)\n      callvalue\n      dup1\n      iszero\n      tag_1\n      jumpi\n      0x00\n      dup1\n      revert\n    tag_1:\n      pop\n      jumpi(tag_2, lt(calldatasize, 0x04))\n      shr(0xe0, calldataload(0x00))\n      dup1\n      0x01ffc9a7\n      eq\n      tag_3\n      jumpi\n      dup1\n      0xbc197c81\n      eq\n      tag_4\n      jumpi\n      dup1\n      0xf23a6e61\n      eq\n      tag_5\n      jumpi\n    tag_2:\n      0x00\n      dup1\n      revert\n        /* \"smart_contract/node_modules/@openzeppelin/contracts/token/ERC1155/utils/ERC1155Receiver.sol\":402:625  function supportsInterface(bytes4 interfaceId) public view virtual override(ERC165, IERC165) returns (bool) {... */\n    tag_3:\n      tag_6\n      0x04\n      dup1\n      calldatasize\n      sub\n      dup2\n      add\n      swap1\n      tag_7\n      swap2\n      swap1\n      tag_8\n      jump\t// in\n    tag_7:\n      tag_9\n      jump\t// in\n    tag_6:\n      mload(0x40)\n      tag_10\n      swap2\n      swap1\n      tag_11\n      jump\t// in\n    tag_10:\n      mload(0x40)\n      dup1\n      swap2\n      sub\n      swap1\n      return\n        /* \"smart_contract/node_modules/@openzeppelin/contracts/token/ERC1155/utils/ERC1155Holder.sol\":498:753  function onERC1155BatchReceived(... */\n    tag_4:\n      tag_12\n      0x04\n      dup1\n      calldatasize\n      sub\n      dup2\n      add\n      swap1\n      tag_13\n      swap2\n      swap1\n      tag_14\n      jump\t// in\n    tag_13:\n      tag_15\n      jump\t// in\n    tag_12:\n      mload(0x40)\n      tag_16\n      swap2\n      swap1\n      tag_17\n      jump\t// in\n    tag_16:\n      mload(0x40)\n      dup1\n      swap2\n      sub\n      swap1\n      return\n        /* \"smart_contract/node_modules/@openzeppelin/contracts/token/ERC1155/utils/ERC1155Holder.sol\":263:490  function onERC1155Received(... */\n    tag_5:\n      tag_18\n      0x04\n      dup1\n      calldatasize\n      sub\n      dup2\n      add\n      swap1\n      tag_19\n      swap2\n      swap1\n      tag_20\n      jump\t// in\n    tag_19:\n      tag_21\n      jump\t// in\n    tag_18:\n      mload(0x40)\n      tag_22\n      swap2\n      swap1\n      tag_17\n      jump\t// in\n    tag_22:\n      mload(0x40)\n      dup1\n      swap2\n      sub\n      swap1\n      return\n        /* \"smart_contract/node_modules/@openzeppelin/contracts/token/ERC1155/utils/ERC1155Receiver.sol\":402:625  function supportsInterface(bytes4 interfaceId) public view virtual override(ERC165, IERC165) returns (bool) {... */\n    tag_9:\n        /* \"smart_contract/node_modules/@openzeppelin/contracts/token/ERC1155/utils/ERC1155Receiver.sol\":504:508  bool */\n      0x00\n        /* \"smart_contract/node_modules/@openzeppelin/contracts/token/ERC1155/utils/ERC1155Receiver.sol\":543:577  type(IERC1155Receiver).interfaceId */\n      0x4e2312e000000000000000000000000000000000000000000000000000000000\n        /* \"smart_contract/node_modules/@openzeppelin/contracts/token/ERC1155/utils/ERC1155Receiver.sol\":528:577  interfaceId == type(IERC1155Receiver).interfaceId */\n      not(0xffffffffffffffffffffffffffffffffffffffffffffffffffffffff)\n      and\n        /* \"smart_contract/node_modules/@openzeppelin/contracts/token/ERC1155/utils/ERC1155Receiver.sol\":528:539  interfaceId */\n      dup3\n        /* \"smart_contract/node_modules/@openzeppelin/contracts/token/ERC1155/utils/ERC1155Receiver.sol\":528:577  interfaceId == type(IERC1155Receiver).interfaceId */\n      not(0xffffffffffffffffffffffffffffffffffffffffffffffffffffffff)\n      and\n      eq\n        /* \"smart_contract/node_modules/@openzeppelin/contracts/token/ERC1155/utils/ERC1155Receiver.sol\":528:617  interfaceId == type(IERC1155Receiver).interfaceId || super.supportsInterface(interfaceId) */\n      dup1\n      tag_24\n      jumpi\n      pop\n        /* \"smart_contract/node_modules/@openzeppelin/contracts/token/ERC1155/utils/ERC1155Receiver.sol\":581:617  super.supportsInterface(interfaceId) */\n      tag_25\n        /* \"smart_contract/node_modules/@openzeppelin/contracts/token/ERC1155/utils/ERC1155Receiver.sol\":605:616  interfaceId */\n      dup3\n        /* \"smart_contract/node_modules/@openzeppelin/contracts/token/ERC1155/utils/ERC1155Receiver.sol\":581:604  super.supportsInterface */\n      tag_26\n        /* \"smart_contract/node_modules/@openzeppelin/contracts/token/ERC1155/utils/ERC1155Receiver.sol\":581:617  super.supportsInterface(interfaceId) */\n      jump\t// in\n    tag_25:\n        /* \"smart_contract/node_modules/@openzeppelin/contracts/token/ERC1155/utils/ERC1155Receiver.sol\":528:617  interfaceId == type(IERC1155Receiver).interfaceId || super.supportsInterface(interfaceId) */\n    tag_24:\n        /* \"smart_contract/node_modules/@openzeppelin/contracts/token/ERC1155/utils/ERC1155Receiver.sol\":521:617  return interfaceId == type(IERC1155Receiver).interfaceId || super.supportsInterface(interfaceId) */\n      swap1\n      pop\n        /* \"smart_contract/node_modules/@openzeppelin/contracts/token/ERC1155/utils/ERC1155Receiver.sol\":402:625  function supportsInterface(bytes4 interfaceId) public view virtual override(ERC165, IERC165) returns (bool) {... */\n      swap2\n      swap1\n      pop\n      jump\t// out\n        /* \"smart_contract/node_modules/@openzeppelin/contracts/token/ERC1155/utils/ERC1155Holder.sol\":498:753  function onERC1155BatchReceived(... */\n    tag_15:\n        /* \"smart_contract/node_modules/@openzeppelin/contracts/token/ERC1155/utils/ERC1155Holder.sol\":683:689  bytes4 */\n      0x00\n        /* \"smart_contract/node_modules/@openzeppelin/contracts/token/ERC1155/utils/ERC1155Holder.sol\":709:745  this.onERC1155BatchReceived.selector */\n      shl(0xe0, 0xbc197c81)\n        /* \"smart_contract/node_modules/@openzeppelin/contracts/token/ERC1155/utils/ERC1155Holder.sol\":702:745  return this.onERC1155BatchReceived.selector */\n      swap1\n      pop\n        /* \"smart_contract/node_modules/@openzeppelin/contracts/token/ERC1155/utils/ERC1155Holder.sol\":498:753  function onERC1155BatchReceived(... */\n      swap6\n      swap5\n      pop\n      pop\n      pop\n      pop\n      pop\n      jump\t// out\n        /* \"smart_contract/node_modules/@openzeppelin/contracts/token/ERC1155/utils/ERC1155Holder.sol\":263:490  function onERC1155Received(... */\n    tag_21:\n        /* \"smart_contract/node_modules/@openzeppelin/contracts/token/ERC1155/utils/ERC1155Holder.sol\":425:431  bytes4 */\n      0x00\n        /* \"smart_contract/node_modules/@openzeppelin/contracts/token/ERC1155/utils/ERC1155Holder.sol\":451:482  this.onERC1155Received.selector */\n      shl(0xe0, 0xf23a6e61)\n        /* \"smart_contract/node_modules/@openzeppelin/contracts/token/ERC1155/utils/ERC1155Holder.sol\":444:482  return this.onERC1155Received.selector */\n      swap1\n      pop\n        /* \"smart_contract/node_modules/@openzeppelin/contracts/token/ERC1155/utils/ERC1155Holder.sol\":263:490  function onERC1155Received(... */\n      swap6\n      swap5\n      pop\n      pop\n      pop\n      pop\n      pop\n      jump\t// out\n        /* \"smart_contract/node_modules/@openzeppelin/contracts/utils/introspection/ERC165.sol\":854:1011  function supportsInterface(bytes4 interfaceId) public view virtual override returns (bool) {... */\n    tag_26:\n        /* \"smart_contract/node_modules/@openzeppelin/contracts/utils/introspection/ERC165.sol\":939:943  bool */\n      0x00\n        /* \"smart_contract/node_modules/@openzeppelin/contracts/utils/introspection/ERC165.sol\":978:1003  type(IERC165).interfaceId */\n      0x01ffc9a700000000000000000000000000000000000000000000000000000000\n        /* \"smart_contract/node_modules/@openzeppelin/contracts/utils/introspection/ERC165.sol\":963:1003  interfaceId == type(IERC165).interfaceId */\n      not(0xffffffffffffffffffffffffffffffffffffffffffffffffffffffff)\n      and\n        /* \"smart_contract/node_modules/@openzeppelin/contracts/utils/introspection/ERC165.sol\":963:974  interfaceId */\n      dup3\n        /* \"smart_contract/node_modules/@openzeppelin/contracts/utils/introspection/ERC165.sol\":963:1003  interfaceId == type(IERC165).interfaceId */\n      not(0xffffffffffffffffffffffffffffffffffffffffffffffffffffffff)\n      and\n      eq\n        /* \"smart_contract/node_modules/@openzeppelin/contracts/utils/introspection/ERC165.sol\":956:1003  return interfaceId == type(IERC165).interfaceId */\n      swap1\n      pop\n        /* \"smart_contract/node_modules/@openzeppelin/contracts/utils/introspection/ERC165.sol\":854:1011  function supportsInterface(bytes4 interfaceId) public view virtual override returns (bool) {... */\n      swap2\n      swap1\n      pop\n      jump\t// out\n        /* \"#utility.yul\":7:82   */\n    tag_30:\n        /* \"#utility.yul\":40:46   */\n      0x00\n        /* \"#utility.yul\":73:75   */\n      0x40\n        /* \"#utility.yul\":67:76   */\n      mload\n        /* \"#utility.yul\":57:76   */\n      swap1\n      pop\n        /* \"#utility.yul\":7:82   */\n      swap1\n      jump\t// out\n        /* \"#utility.yul\":88:205   */\n    tag_31:\n        /* \"#utility.yul\":197:198   */\n      0x00\n        /* \"#utility.yul\":194:195   */\n      dup1\n        /* \"#utility.yul\":187:199   */\n      revert\n        /* \"#utility.yul\":211:328   */\n    tag_32:\n        /* \"#utility.yul\":320:321   */\n      0x00\n        /* \"#utility.yul\":317:318   */\n      dup1\n        /* \"#utility.yul\":310:322   */\n      revert\n        /* \"#utility.yul\":334:483   */\n    tag_33:\n        /* \"#utility.yul\":370:377   */\n      0x00\n        /* \"#utility.yul\":410:476   */\n      0xffffffff00000000000000000000000000000000000000000000000000000000\n        /* \"#utility.yul\":403:408   */\n      dup3\n        /* \"#utility.yul\":399:477   */\n      and\n        /* \"#utility.yul\":388:477   */\n      swap1\n      pop\n        /* \"#utility.yul\":334:483   */\n      swap2\n      swap1\n      pop\n      jump\t// out\n        /* \"#utility.yul\":489:609   */\n    tag_34:\n        /* \"#utility.yul\":561:584   */\n      tag_66\n        /* \"#utility.yul\":578:583   */\n      dup2\n        /* \"#utility.yul\":561:584   */\n      tag_33\n      jump\t// in\n    tag_66:\n        /* \"#utility.yul\":554:559   */\n      dup2\n        /* \"#utility.yul\":551:585   */\n      eq\n        /* \"#utility.yul\":541:603   */\n      tag_67\n      jumpi\n        /* \"#utility.yul\":599:600   */\n      0x00\n        /* \"#utility.yul\":596:597   */\n      dup1\n        /* \"#utility.yul\":589:601   */\n      revert\n        /* \"#utility.yul\":541:603   */\n    tag_67:\n        /* \"#utility.yul\":489:609   */\n      pop\n      jump\t// out\n        /* \"#utility.yul\":615:752   */\n    tag_35:\n        /* \"#utility.yul\":660:665   */\n      0x00\n        /* \"#utility.yul\":698:704   */\n      dup2\n        /* \"#utility.yul\":685:705   */\n      calldataload\n        /* \"#utility.yul\":676:705   */\n      swap1\n      pop\n        /* \"#utility.yul\":714:746   */\n      tag_69\n        /* \"#utility.yul\":740:745   */\n      dup2\n        /* \"#utility.yul\":714:746   */\n      tag_34\n      jump\t// in\n    tag_69:\n        /* \"#utility.yul\":615:752   */\n      swap3\n      swap2\n      pop\n      pop\n      jump\t// out\n        /* \"#utility.yul\":758:1085   */\n    tag_8:\n        /* \"#utility.yul\":816:822   */\n      0x00\n        /* \"#utility.yul\":865:867   */\n      0x20\n        /* \"#utility.yul\":853:862   */\n      dup3\n        /* \"#utility.yul\":844:851   */\n      dup5\n        /* \"#utility.yul\":840:863   */\n      sub\n        /* \"#utility.yul\":836:868   */\n      slt\n        /* \"#utility.yul\":833:952   */\n      iszero\n      tag_71\n      jumpi\n        /* \"#utility.yul\":871:950   */\n      tag_72\n      tag_31\n      jump\t// in\n    tag_72:\n        /* \"#utility.yul\":833:952   */\n    tag_71:\n        /* \"#utility.yul\":991:992   */\n      0x00\n        /* \"#utility.yul\":1016:1068   */\n      tag_73\n        /* \"#utility.yul\":1060:1067   */\n      dup5\n        /* \"#utility.yul\":1051:1057   */\n      dup3\n        /* \"#utility.yul\":1040:1049   */\n      dup6\n        /* \"#utility.yul\":1036:1058   */\n      add\n        /* \"#utility.yul\":1016:1068   */\n      tag_35\n      jump\t// in\n    tag_73:\n        /* \"#utility.yul\":1006:1068   */\n      swap2\n      pop\n        /* \"#utility.yul\":962:1078   */\n      pop\n        /* \"#utility.yul\":758:1085   */\n      swap3\n      swap2\n      pop\n      pop\n      jump\t// out\n        /* \"#utility.yul\":1091:1181   */\n    tag_36:\n        /* \"#utility.yul\":1125:1132   */\n      0x00\n        /* \"#utility.yul\":1168:1173   */\n      dup2\n        /* \"#utility.yul\":1161:1174   */\n      iszero\n        /* \"#utility.yul\":1154:1175   */\n      iszero\n        /* \"#utility.yul\":1143:1175   */\n      swap1\n      pop\n        /* \"#utility.yul\":1091:1181   */\n      swap2\n      swap1\n      pop\n      jump\t// out\n        /* \"#utility.yul\":1187:1296   */\n    tag_37:\n        /* \"#utility.yul\":1268:1289   */\n      tag_76\n        /* \"#utility.yul\":1283:1288   */\n      dup2\n        /* \"#utility.yul\":1268:1289   */\n      tag_36\n      jump\t// in\n    tag_76:\n        /* \"#utility.yul\":1263:1266   */\n      dup3\n        /* \"#utility.yul\":1256:1290   */\n      mstore\n        /* \"#utility.yul\":1187:1296   */\n      pop\n      pop\n      jump\t// out\n        /* \"#utility.yul\":1302:1512   */\n    tag_11:\n        /* \"#utility.yul\":1389:1393   */\n      0x00\n        /* \"#utility.yul\":1427:1429   */\n      0x20\n        /* \"#utility.yul\":1416:1425   */\n      dup3\n        /* \"#utility.yul\":1412:1430   */\n      add\n        /* \"#utility.yul\":1404:1430   */\n      swap1\n      pop\n        /* \"#utility.yul\":1440:1505   */\n      tag_78\n        /* \"#utility.yul\":1502:1503   */\n      0x00\n        /* \"#utility.yul\":1491:1500   */\n      dup4\n        /* \"#utility.yul\":1487:1504   */\n      add\n        /* \"#utility.yul\":1478:1484   */\n      dup5\n        /* \"#utility.yul\":1440:1505   */\n      tag_37\n      jump\t// in\n    tag_78:\n        /* \"#utility.yul\":1302:1512   */\n      swap3\n      swap2\n      pop\n      pop\n      jump\t// out\n        /* \"#utility.yul\":1518:1644   */\n    tag_38:\n        /* \"#utility.yul\":1555:1562   */\n      0x00\n        /* \"#utility.yul\":1595:1637   */\n      0xffffffffffffffffffffffffffffffffffffffff\n        /* \"#utility.yul\":1588:1593   */\n      dup3\n        /* \"#utility.yul\":1584:1638   */\n      and\n        /* \"#utility.yul\":1573:1638   */\n      swap1\n      pop\n        /* \"#utility.yul\":1518:1644   */\n      swap2\n      swap1\n      pop\n      jump\t// out\n        /* \"#utility.yul\":1650:1746   */\n    tag_39:\n        /* \"#utility.yul\":1687:1694   */\n      0x00\n        /* \"#utility.yul\":1716:1740   */\n      tag_81\n        /* \"#utility.yul\":1734:1739   */\n      dup3\n        /* \"#utility.yul\":1716:1740   */\n      tag_38\n      jump\t// in\n    tag_81:\n        /* \"#utility.yul\":1705:1740   */\n      swap1\n      pop\n        /* \"#utility.yul\":1650:1746   */\n      swap2\n      swap1\n      pop\n      jump\t// out\n        /* \"#utility.yul\":1752:1874   */\n    tag_40:\n        /* \"#utility.yul\":1825:1849   */\n      tag_83\n        /* \"#utility.yul\":1843:1848   */\n      dup2\n        /* \"#utility.yul\":1825:1849   */\n      tag_39\n      jump\t// in\n    tag_83:\n        /* \"#utility.yul\":1818:1823   */\n      dup2\n        /* \"#utility.yul\":1815:1850   */\n      eq\n        /* \"#utility.yul\":1805:1868   */\n      tag_84\n      jumpi\n        /* \"#utility.yul\":1864:1865   */\n      0x00\n        /* \"#utility.yul\":1861:1862   */\n      dup1\n        /* \"#utility.yul\":1854:1866   */\n      revert\n        /* \"#utility.yul\":1805:1868   */\n    tag_84:\n        /* \"#utility.yul\":1752:1874   */\n      pop\n      jump\t// out\n        /* \"#utility.yul\":1880:2019   */\n    tag_41:\n        /* \"#utility.yul\":1926:1931   */\n      0x00\n        /* \"#utility.yul\":1964:1970   */\n      dup2\n        /* \"#utility.yul\":1951:1971   */\n      calldataload\n        /* \"#utility.yul\":1942:1971   */\n      swap1\n      pop\n        /* \"#utility.yul\":1980:2013   */\n      tag_86\n        /* \"#utility.yul\":2007:2012   */\n      dup2\n        /* \"#utility.yul\":1980:2013   */\n      tag_40\n      jump\t// in\n    tag_86:\n        /* \"#utility.yul\":1880:2019   */\n      swap3\n      swap2\n      pop\n      pop\n      jump\t// out\n        /* \"#utility.yul\":2025:2142   */\n    tag_42:\n        /* \"#utility.yul\":2134:2135   */\n      0x00\n        /* \"#utility.yul\":2131:2132   */\n      dup1\n        /* \"#utility.yul\":2124:2136   */\n      revert\n        /* \"#utility.yul\":2148:2250   */\n    tag_43:\n        /* \"#utility.yul\":2189:2195   */\n      0x00\n        /* \"#utility.yul\":2240:2242   */\n      0x1f\n        /* \"#utility.yul\":2236:2243   */\n      not\n        /* \"#utility.yul\":2231:2233   */\n      0x1f\n        /* \"#utility.yul\":2224:2229   */\n      dup4\n        /* \"#utility.yul\":2220:2234   */\n      add\n        /* \"#utility.yul\":2216:2244   */\n      and\n        /* \"#utility.yul\":2206:2244   */\n      swap1\n      pop\n        /* \"#utility.yul\":2148:2250   */\n      swap2\n      swap1\n      pop\n      jump\t// out\n        /* \"#utility.yul\":2256:2436   */\n    tag_44:\n        /* \"#utility.yul\":2304:2381   */\n      0x4e487b7100000000000000000000000000000000000000000000000000000000\n        /* \"#utility.yul\":2301:2302   */\n      0x00\n        /* \"#utility.yul\":2294:2382   */\n      mstore\n        /* \"#utility.yul\":2401:2405   */\n      0x41\n        /* \"#utility.yul\":2398:2399   */\n      0x04\n        /* \"#utility.yul\":2391:2406   */\n      mstore\n        /* \"#utility.yul\":2425:2429   */\n      0x24\n        /* \"#utility.yul\":2422:2423   */\n      0x00\n        /* \"#utility.yul\":2415:2430   */\n      revert\n        /* \"#utility.yul\":2442:2723   */\n    tag_45:\n        /* \"#utility.yul\":2525:2552   */\n      tag_91\n        /* \"#utility.yul\":2547:2551   */\n      dup3\n        /* \"#utility.yul\":2525:2552   */\n      tag_43\n      jump\t// in\n    tag_91:\n        /* \"#utility.yul\":2517:2523   */\n      dup2\n        /* \"#utility.yul\":2513:2553   */\n      add\n        /* \"#utility.yul\":2655:2661   */\n      dup2\n        /* \"#utility.yul\":2643:2653   */\n      dup2\n        /* \"#utility.yul\":2640:2662   */\n      lt\n        /* \"#utility.yul\":2619:2637   */\n      0xffffffffffffffff\n        /* \"#utility.yul\":2607:2617   */\n      dup3\n        /* \"#utility.yul\":2604:2638   */\n      gt\n        /* \"#utility.yul\":2601:2663   */\n      or\n        /* \"#utility.yul\":2598:2686   */\n      iszero\n      tag_92\n      jumpi\n        /* \"#utility.yul\":2666:2684   */\n      tag_93\n      tag_44\n      jump\t// in\n    tag_93:\n        /* \"#utility.yul\":2598:2686   */\n    tag_92:\n        /* \"#utility.yul\":2706:2716   */\n      dup1\n        /* \"#utility.yul\":2702:2704   */\n      0x40\n        /* \"#utility.yul\":2695:2717   */\n      mstore\n        /* \"#utility.yul\":2485:2723   */\n      pop\n        /* \"#utility.yul\":2442:2723   */\n      pop\n      pop\n      jump\t// out\n        /* \"#utility.yul\":2729:2858   */\n    tag_46:\n        /* \"#utility.yul\":2763:2769   */\n      0x00\n        /* \"#utility.yul\":2790:2810   */\n      tag_95\n      tag_30\n      jump\t// in\n    tag_95:\n        /* \"#utility.yul\":2780:2810   */\n      swap1\n      pop\n        /* \"#utility.yul\":2819:2852   */\n      tag_96\n        /* \"#utility.yul\":2847:2851   */\n      dup3\n        /* \"#utility.yul\":2839:2845   */\n      dup3\n        /* \"#utility.yul\":2819:2852   */\n      tag_45\n      jump\t// in\n    tag_96:\n        /* \"#utility.yul\":2729:2858   */\n      swap2\n      swap1\n      pop\n      jump\t// out\n        /* \"#utility.yul\":2864:3175   */\n    tag_47:\n        /* \"#utility.yul\":2941:2945   */\n      0x00\n        /* \"#utility.yul\":3031:3049   */\n      0xffffffffffffffff\n        /* \"#utility.yul\":3023:3029   */\n      dup3\n        /* \"#utility.yul\":3020:3050   */\n      gt\n        /* \"#utility.yul\":3017:3073   */\n      iszero\n      tag_98\n      jumpi\n        /* \"#utility.yul\":3053:3071   */\n      tag_99\n      tag_44\n      jump\t// in\n    tag_99:\n        /* \"#utility.yul\":3017:3073   */\n    tag_98:\n        /* \"#utility.yul\":3103:3107   */\n      0x20\n        /* \"#utility.yul\":3095:3101   */\n      dup3\n        /* \"#utility.yul\":3091:3108   */\n      mul\n        /* \"#utility.yul\":3083:3108   */\n      swap1\n      pop\n        /* \"#utility.yul\":3163:3167   */\n      0x20\n        /* \"#utility.yul\":3157:3161   */\n      dup2\n        /* \"#utility.yul\":3153:3168   */\n      add\n        /* \"#utility.yul\":3145:3168   */\n      swap1\n      pop\n        /* \"#utility.yul\":2864:3175   */\n      swap2\n      swap1\n      pop\n      jump\t// out\n        /* \"#utility.yul\":3181:3298   */\n    tag_48:\n        /* \"#utility.yul\":3290:3291   */\n      0x00\n        /* \"#utility.yul\":3287:3288   */\n      dup1\n        /* \"#utility.yul\":3280:3292   */\n      revert\n        /* \"#utility.yul\":3304:3381   */\n    tag_49:\n        /* \"#utility.yul\":3341:3348   */\n      0x00\n        /* \"#utility.yul\":3370:3375   */\n      dup2\n        /* \"#utility.yul\":3359:3375   */\n      swap1\n      pop\n        /* \"#utility.yul\":3304:3381   */\n      swap2\n      swap1\n      pop\n      jump\t// out\n        /* \"#utility.yul\":3387:3509   */\n    tag_50:\n        /* \"#utility.yul\":3460:3484   */\n      tag_103\n        /* \"#utility.yul\":3478:3483   */\n      dup2\n        /* \"#utility.yul\":3460:3484   */\n      tag_49\n      jump\t// in\n    tag_103:\n        /* \"#utility.yul\":3453:3458   */\n      dup2\n        /* \"#utility.yul\":3450:3485   */\n      eq\n        /* \"#utility.yul\":3440:3503   */\n      tag_104\n      jumpi\n        /* \"#utility.yul\":3499:3500   */\n      0x00\n        /* \"#utility.yul\":3496:3497   */\n      dup1\n        /* \"#utility.yul\":3489:3501   */\n      revert\n        /* \"#utility.yul\":3440:3503   */\n    tag_104:\n        /* \"#utility.yul\":3387:3509   */\n      pop\n      jump\t// out\n        /* \"#utility.yul\":3515:3654   */\n    tag_51:\n        /* \"#utility.yul\":3561:3566   */\n      0x00\n        /* \"#utility.yul\":3599:3605   */\n      dup2\n        /* \"#utility.yul\":3586:3606   */\n      calldataload\n        /* \"#utility.yul\":3577:3606   */\n      swap1\n      pop\n        /* \"#utility.yul\":3615:3648   */\n      tag_106\n        /* \"#utility.yul\":3642:3647   */\n      dup2\n        /* \"#utility.yul\":3615:3648   */\n      tag_50\n      jump\t// in\n    tag_106:\n        /* \"#utility.yul\":3515:3654   */\n      swap3\n      swap2\n      pop\n      pop\n      jump\t// out\n        /* \"#utility.yul\":3677:4387   */\n    tag_52:\n        /* \"#utility.yul\":3773:3778   */\n      0x00\n        /* \"#utility.yul\":3798:3879   */\n      tag_108\n        /* \"#utility.yul\":3814:3878   */\n      tag_109\n        /* \"#utility.yul\":3871:3877   */\n      dup5\n        /* \"#utility.yul\":3814:3878   */\n      tag_47\n      jump\t// in\n    tag_109:\n        /* \"#utility.yul\":3798:3879   */\n      tag_46\n      jump\t// in\n    tag_108:\n        /* \"#utility.yul\":3789:3879   */\n      swap1\n      pop\n        /* \"#utility.yul\":3899:3904   */\n      dup1\n        /* \"#utility.yul\":3928:3934   */\n      dup4\n        /* \"#utility.yul\":3921:3926   */\n      dup3\n        /* \"#utility.yul\":3914:3935   */\n      mstore\n        /* \"#utility.yul\":3962:3966   */\n      0x20\n        /* \"#utility.yul\":3955:3960   */\n      dup3\n        /* \"#utility.yul\":3951:3967   */\n      add\n        /* \"#utility.yul\":3944:3967   */\n      swap1\n      pop\n        /* \"#utility.yul\":4015:4019   */\n      0x20\n        /* \"#utility.yul\":4007:4013   */\n      dup5\n        /* \"#utility.yul\":4003:4020   */\n      mul\n        /* \"#utility.yul\":3995:4001   */\n      dup4\n        /* \"#utility.yul\":3991:4021   */\n      add\n        /* \"#utility.yul\":4044:4047   */\n      dup6\n        /* \"#utility.yul\":4036:4042   */\n      dup2\n        /* \"#utility.yul\":4033:4048   */\n      gt\n        /* \"#utility.yul\":4030:4152   */\n      iszero\n      tag_110\n      jumpi\n        /* \"#utility.yul\":4063:4142   */\n      tag_111\n      tag_48\n      jump\t// in\n    tag_111:\n        /* \"#utility.yul\":4030:4152   */\n    tag_110:\n        /* \"#utility.yul\":4178:4184   */\n      dup4\n        /* \"#utility.yul\":4161:4381   */\n    tag_112:\n        /* \"#utility.yul\":4195:4201   */\n      dup2\n        /* \"#utility.yul\":4190:4193   */\n      dup2\n        /* \"#utility.yul\":4187:4202   */\n      lt\n        /* \"#utility.yul\":4161:4381   */\n      iszero\n      tag_114\n      jumpi\n        /* \"#utility.yul\":4270:4273   */\n      dup1\n        /* \"#utility.yul\":4299:4336   */\n      tag_115\n        /* \"#utility.yul\":4332:4335   */\n      dup9\n        /* \"#utility.yul\":4320:4330   */\n      dup3\n        /* \"#utility.yul\":4299:4336   */\n      tag_51\n      jump\t// in\n    tag_115:\n        /* \"#utility.yul\":4294:4297   */\n      dup5\n        /* \"#utility.yul\":4287:4337   */\n      mstore\n        /* \"#utility.yul\":4366:4370   */\n      0x20\n        /* \"#utility.yul\":4361:4364   */\n      dup5\n        /* \"#utility.yul\":4357:4371   */\n      add\n        /* \"#utility.yul\":4350:4371   */\n      swap4\n      pop\n        /* \"#utility.yul\":4237:4381   */\n      pop\n        /* \"#utility.yul\":4221:4225   */\n      0x20\n        /* \"#utility.yul\":4216:4219   */\n      dup2\n        /* \"#utility.yul\":4212:4226   */\n      add\n        /* \"#utility.yul\":4205:4226   */\n      swap1\n      pop\n        /* \"#utility.yul\":4161:4381   */\n      jump(tag_112)\n    tag_114:\n        /* \"#utility.yul\":4165:4186   */\n      pop\n        /* \"#utility.yul\":3779:4387   */\n      pop\n      pop\n        /* \"#utility.yul\":3677:4387   */\n      swap4\n      swap3\n      pop\n      pop\n      pop\n      jump\t// out\n        /* \"#utility.yul\":4410:4780   */\n    tag_53:\n        /* \"#utility.yul\":4481:4486   */\n      0x00\n        /* \"#utility.yul\":4530:4533   */\n      dup3\n        /* \"#utility.yul\":4523:4527   */\n      0x1f\n        /* \"#utility.yul\":4515:4521   */\n      dup4\n        /* \"#utility.yul\":4511:4528   */\n      add\n        /* \"#utility.yul\":4507:4534   */\n      slt\n        /* \"#utility.yul\":4497:4619   */\n      tag_117\n      jumpi\n        /* \"#utility.yul\":4538:4617   */\n      tag_118\n      tag_42\n      jump\t// in\n    tag_118:\n        /* \"#utility.yul\":4497:4619   */\n    tag_117:\n        /* \"#utility.yul\":4655:4661   */\n      dup2\n        /* \"#utility.yul\":4642:4662   */\n      calldataload\n        /* \"#utility.yul\":4680:4774   */\n      tag_119\n        /* \"#utility.yul\":4770:4773   */\n      dup5\n        /* \"#utility.yul\":4762:4768   */\n      dup3\n        /* \"#utility.yul\":4755:4759   */\n      0x20\n        /* \"#utility.yul\":4747:4753   */\n      dup7\n        /* \"#utility.yul\":4743:4760   */\n      add\n        /* \"#utility.yul\":4680:4774   */\n      tag_52\n      jump\t// in\n    tag_119:\n        /* \"#utility.yul\":4671:4774   */\n      swap2\n      pop\n        /* \"#utility.yul\":4487:4780   */\n      pop\n        /* \"#utility.yul\":4410:4780   */\n      swap3\n      swap2\n      pop\n      pop\n      jump\t// out\n        /* \"#utility.yul\":4786:4903   */\n    tag_54:\n        /* \"#utility.yul\":4895:4896   */\n      0x00\n        /* \"#utility.yul\":4892:4893   */\n      dup1\n        /* \"#utility.yul\":4885:4897   */\n      revert\n        /* \"#utility.yul\":4909:5216   */\n    tag_55:\n        /* \"#utility.yul\":4970:4974   */\n      0x00\n        /* \"#utility.yul\":5060:5078   */\n      0xffffffffffffffff\n        /* \"#utility.yul\":5052:5058   */\n      dup3\n        /* \"#utility.yul\":5049:5079   */\n      gt\n        /* \"#utility.yul\":5046:5102   */\n      iszero\n      tag_122\n      jumpi\n        /* \"#utility.yul\":5082:5100   */\n      tag_123\n      tag_44\n      jump\t// in\n    tag_123:\n        /* \"#utility.yul\":5046:5102   */\n    tag_122:\n        /* \"#utility.yul\":5120:5149   */\n      tag_124\n        /* \"#utility.yul\":5142:5148   */\n      dup3\n        /* \"#utility.yul\":5120:5149   */\n      tag_43\n      jump\t// in\n    tag_124:\n        /* \"#utility.yul\":5112:5149   */\n      swap1\n      pop\n        /* \"#utility.yul\":5204:5208   */\n      0x20\n        /* \"#utility.yul\":5198:5202   */\n      dup2\n        /* \"#utility.yul\":5194:5209   */\n      add\n        /* \"#utility.yul\":5186:5209   */\n      swap1\n      pop\n        /* \"#utility.yul\":4909:5216   */\n      swap2\n      swap1\n      pop\n      jump\t// out\n        /* \"#utility.yul\":5222:5376   */\n    tag_56:\n        /* \"#utility.yul\":5306:5312   */\n      dup3\n        /* \"#utility.yul\":5301:5304   */\n      dup2\n        /* \"#utility.yul\":5296:5299   */\n      dup4\n        /* \"#utility.yul\":5283:5313   */\n      calldatacopy\n        /* \"#utility.yul\":5368:5369   */\n      0x00\n        /* \"#utility.yul\":5359:5365   */\n      dup4\n        /* \"#utility.yul\":5354:5357   */\n      dup4\n        /* \"#utility.yul\":5350:5366   */\n      add\n        /* \"#utility.yul\":5343:5370   */\n      mstore\n        /* \"#utility.yul\":5222:5376   */\n      pop\n      pop\n      pop\n      jump\t// out\n        /* \"#utility.yul\":5382:5792   */\n    tag_57:\n        /* \"#utility.yul\":5459:5464   */\n      0x00\n        /* \"#utility.yul\":5484:5549   */\n      tag_127\n        /* \"#utility.yul\":5500:5548   */\n      tag_128\n        /* \"#utility.yul\":5541:5547   */\n      dup5\n        /* \"#utility.yul\":5500:5548   */\n      tag_55\n      jump\t// in\n    tag_128:\n        /* \"#utility.yul\":5484:5549   */\n      tag_46\n      jump\t// in\n    tag_127:\n        /* \"#utility.yul\":5475:5549   */\n      swap1\n      pop\n        /* \"#utility.yul\":5572:5578   */\n      dup3\n        /* \"#utility.yul\":5565:5570   */\n      dup2\n        /* \"#utility.yul\":5558:5579   */\n      mstore\n        /* \"#utility.yul\":5610:5614   */\n      0x20\n        /* \"#utility.yul\":5603:5608   */\n      dup2\n        /* \"#utility.yul\":5599:5615   */\n      add\n        /* \"#utility.yul\":5648:5651   */\n      dup5\n        /* \"#utility.yul\":5639:5645   */\n      dup5\n        /* \"#utility.yul\":5634:5637   */\n      dup5\n        /* \"#utility.yul\":5630:5646   */\n      add\n        /* \"#utility.yul\":5627:5652   */\n      gt\n        /* \"#utility.yul\":5624:5736   */\n      iszero\n      tag_129\n      jumpi\n        /* \"#utility.yul\":5655:5734   */\n      tag_130\n      tag_54\n      jump\t// in\n    tag_130:\n        /* \"#utility.yul\":5624:5736   */\n    tag_129:\n        /* \"#utility.yul\":5745:5786   */\n      tag_131\n        /* \"#utility.yul\":5779:5785   */\n      dup5\n        /* \"#utility.yul\":5774:5777   */\n      dup3\n        /* \"#utility.yul\":5769:5772   */\n      dup6\n        /* \"#utility.yul\":5745:5786   */\n      tag_56\n      jump\t// in\n    tag_131:\n        /* \"#utility.yul\":5465:5792   */\n      pop\n        /* \"#utility.yul\":5382:5792   */\n      swap4\n      swap3\n      pop\n      pop\n      pop\n      jump\t// out\n        /* \"#utility.yul\":5811:6149   */\n    tag_58:\n        /* \"#utility.yul\":5866:5871   */\n      0x00\n        /* \"#utility.yul\":5915:5918   */\n      dup3\n        /* \"#utility.yul\":5908:5912   */\n      0x1f\n        /* \"#utility.yul\":5900:5906   */\n      dup4\n        /* \"#utility.yul\":5896:5913   */\n      add\n        /* \"#utility.yul\":5892:5919   */\n      slt\n        /* \"#utility.yul\":5882:6004   */\n      tag_133\n      jumpi\n        /* \"#utility.yul\":5923:6002   */\n      tag_134\n      tag_42\n      jump\t// in\n    tag_134:\n        /* \"#utility.yul\":5882:6004   */\n    tag_133:\n        /* \"#utility.yul\":6040:6046   */\n      dup2\n        /* \"#utility.yul\":6027:6047   */\n      calldataload\n        /* \"#utility.yul\":6065:6143   */\n      tag_135\n        /* \"#utility.yul\":6139:6142   */\n      dup5\n        /* \"#utility.yul\":6131:6137   */\n      dup3\n        /* \"#utility.yul\":6124:6128   */\n      0x20\n        /* \"#utility.yul\":6116:6122   */\n      dup7\n        /* \"#utility.yul\":6112:6129   */\n      add\n        /* \"#utility.yul\":6065:6143   */\n      tag_57\n      jump\t// in\n    tag_135:\n        /* \"#utility.yul\":6056:6143   */\n      swap2\n      pop\n        /* \"#utility.yul\":5872:6149   */\n      pop\n        /* \"#utility.yul\":5811:6149   */\n      swap3\n      swap2\n      pop\n      pop\n      jump\t// out\n        /* \"#utility.yul\":6155:7664   */\n    tag_14:\n        /* \"#utility.yul\":6309:6315   */\n      0x00\n        /* \"#utility.yul\":6317:6323   */\n      dup1\n        /* \"#utility.yul\":6325:6331   */\n      0x00\n        /* \"#utility.yul\":6333:6339   */\n      dup1\n        /* \"#utility.yul\":6341:6347   */\n      0x00\n        /* \"#utility.yul\":6390:6393   */\n      0xa0\n        /* \"#utility.yul\":6378:6387   */\n      dup7\n        /* \"#utility.yul\":6369:6376   */\n      dup9\n        /* \"#utility.yul\":6365:6388   */\n      sub\n        /* \"#utility.yul\":6361:6394   */\n      slt\n        /* \"#utility.yul\":6358:6478   */\n      iszero\n      tag_137\n      jumpi\n        /* \"#utility.yul\":6397:6476   */\n      tag_138\n      tag_31\n      jump\t// in\n    tag_138:\n        /* \"#utility.yul\":6358:6478   */\n    tag_137:\n        /* \"#utility.yul\":6517:6518   */\n      0x00\n        /* \"#utility.yul\":6542:6595   */\n      tag_139\n        /* \"#utility.yul\":6587:6594   */\n      dup9\n        /* \"#utility.yul\":6578:6584   */\n      dup3\n        /* \"#utility.yul\":6567:6576   */\n      dup10\n        /* \"#utility.yul\":6563:6585   */\n      add\n        /* \"#utility.yul\":6542:6595   */\n      tag_41\n      jump\t// in\n    tag_139:\n        /* \"#utility.yul\":6532:6595   */\n      swap6\n      pop\n        /* \"#utility.yul\":6488:6605   */\n      pop\n        /* \"#utility.yul\":6644:6646   */\n      0x20\n        /* \"#utility.yul\":6670:6723   */\n      tag_140\n        /* \"#utility.yul\":6715:6722   */\n      dup9\n        /* \"#utility.yul\":6706:6712   */\n      dup3\n        /* \"#utility.yul\":6695:6704   */\n      dup10\n        /* \"#utility.yul\":6691:6713   */\n      add\n        /* \"#utility.yul\":6670:6723   */\n      tag_41\n      jump\t// in\n    tag_140:\n        /* \"#utility.yul\":6660:6723   */\n      swap5\n      pop\n        /* \"#utility.yul\":6615:6733   */\n      pop\n        /* \"#utility.yul\":6800:6802   */\n      0x40\n        /* \"#utility.yul\":6789:6798   */\n      dup7\n        /* \"#utility.yul\":6785:6803   */\n      add\n        /* \"#utility.yul\":6772:6804   */\n      calldataload\n        /* \"#utility.yul\":6831:6849   */\n      0xffffffffffffffff\n        /* \"#utility.yul\":6823:6829   */\n      dup2\n        /* \"#utility.yul\":6820:6850   */\n      gt\n        /* \"#utility.yul\":6817:6934   */\n      iszero\n      tag_141\n      jumpi\n        /* \"#utility.yul\":6853:6932   */\n      tag_142\n      tag_32\n      jump\t// in\n    tag_142:\n        /* \"#utility.yul\":6817:6934   */\n    tag_141:\n        /* \"#utility.yul\":6958:7036   */\n      tag_143\n        /* \"#utility.yul\":7028:7035   */\n      dup9\n        /* \"#utility.yul\":7019:7025   */\n      dup3\n        /* \"#utility.yul\":7008:7017   */\n      dup10\n        /* \"#utility.yul\":7004:7026   */\n      add\n        /* \"#utility.yul\":6958:7036   */\n      tag_53\n      jump\t// in\n    tag_143:\n        /* \"#utility.yul\":6948:7036   */\n      swap4\n      pop\n        /* \"#utility.yul\":6743:7046   */\n      pop\n        /* \"#utility.yul\":7113:7115   */\n      0x60\n        /* \"#utility.yul\":7102:7111   */\n      dup7\n        /* \"#utility.yul\":7098:7116   */\n      add\n        /* \"#utility.yul\":7085:7117   */\n      calldataload\n        /* \"#utility.yul\":7144:7162   */\n      0xffffffffffffffff\n        /* \"#utility.yul\":7136:7142   */\n      dup2\n        /* \"#utility.yul\":7133:7163   */\n      gt\n        /* \"#utility.yul\":7130:7247   */\n      iszero\n      tag_144\n      jumpi\n        /* \"#utility.yul\":7166:7245   */\n      tag_145\n      tag_32\n      jump\t// in\n    tag_145:\n        /* \"#utility.yul\":7130:7247   */\n    tag_144:\n        /* \"#utility.yul\":7271:7349   */\n      tag_146\n        /* \"#utility.yul\":7341:7348   */\n      dup9\n        /* \"#utility.yul\":7332:7338   */\n      dup3\n        /* \"#utility.yul\":7321:7330   */\n      dup10\n        /* \"#utility.yul\":7317:7339   */\n      add\n        /* \"#utility.yul\":7271:7349   */\n      tag_53\n      jump\t// in\n    tag_146:\n        /* \"#utility.yul\":7261:7349   */\n      swap3\n      pop\n        /* \"#utility.yul\":7056:7359   */\n      pop\n        /* \"#utility.yul\":7426:7429   */\n      0x80\n        /* \"#utility.yul\":7415:7424   */\n      dup7\n        /* \"#utility.yul\":7411:7430   */\n      add\n        /* \"#utility.yul\":7398:7431   */\n      calldataload\n        /* \"#utility.yul\":7458:7476   */\n      0xffffffffffffffff\n        /* \"#utility.yul\":7450:7456   */\n      dup2\n        /* \"#utility.yul\":7447:7477   */\n      gt\n        /* \"#utility.yul\":7444:7561   */\n      iszero\n      tag_147\n      jumpi\n        /* \"#utility.yul\":7480:7559   */\n      tag_148\n      tag_32\n      jump\t// in\n    tag_148:\n        /* \"#utility.yul\":7444:7561   */\n    tag_147:\n        /* \"#utility.yul\":7585:7647   */\n      tag_149\n        /* \"#utility.yul\":7639:7646   */\n      dup9\n        /* \"#utility.yul\":7630:7636   */\n      dup3\n        /* \"#utility.yul\":7619:7628   */\n      dup10\n        /* \"#utility.yul\":7615:7637   */\n      add\n        /* \"#utility.yul\":7585:7647   */\n      tag_58\n      jump\t// in\n    tag_149:\n        /* \"#utility.yul\":7575:7647   */\n      swap2\n      pop\n        /* \"#utility.yul\":7369:7657   */\n      pop\n        /* \"#utility.yul\":6155:7664   */\n      swap3\n      swap6\n      pop\n      swap3\n      swap6\n      swap1\n      swap4\n      pop\n      jump\t// out\n        /* \"#utility.yul\":7670:7785   */\n    tag_59:\n        /* \"#utility.yul\":7755:7778   */\n      tag_151\n        /* \"#utility.yul\":7772:7777   */\n      dup2\n        /* \"#utility.yul\":7755:7778   */\n      tag_33\n      jump\t// in\n    tag_151:\n        /* \"#utility.yul\":7750:7753   */\n      dup3\n        /* \"#utility.yul\":7743:7779   */\n      mstore\n        /* \"#utility.yul\":7670:7785   */\n      pop\n      pop\n      jump\t// out\n        /* \"#utility.yul\":7791:8009   */\n    tag_17:\n        /* \"#utility.yul\":7882:7886   */\n      0x00\n        /* \"#utility.yul\":7920:7922   */\n      0x20\n        /* \"#utility.yul\":7909:7918   */\n      dup3\n        /* \"#utility.yul\":7905:7923   */\n      add\n        /* \"#utility.yul\":7897:7923   */\n      swap1\n      pop\n        /* \"#utility.yul\":7933:8002   */\n      tag_153\n        /* \"#utility.yul\":7999:8000   */\n      0x00\n        /* \"#utility.yul\":7988:7997   */\n      dup4\n        /* \"#utility.yul\":7984:8001   */\n      add\n        /* \"#utility.yul\":7975:7981   */\n      dup5\n        /* \"#utility.yul\":7933:8002   */\n      tag_59\n      jump\t// in\n    tag_153:\n        /* \"#utility.yul\":7791:8009   */\n      swap3\n      swap2\n      pop\n      pop\n      jump\t// out\n        /* \"#utility.yul\":8015:9104   */\n    tag_20:\n        /* \"#utility.yul\":8119:8125   */\n      0x00\n        /* \"#utility.yul\":8127:8133   */\n      dup1\n        /* \"#utility.yul\":8135:8141   */\n      0x00\n        /* \"#utility.yul\":8143:8149   */\n      dup1\n        /* \"#utility.yul\":8151:8157   */\n      0x00\n        /* \"#utility.yul\":8200:8203   */\n      0xa0\n        /* \"#utility.yul\":8188:8197   */\n      dup7\n        /* \"#utility.yul\":8179:8186   */\n      dup9\n        /* \"#utility.yul\":8175:8198   */\n      sub\n        /* \"#utility.yul\":8171:8204   */\n      slt\n        /* \"#utility.yul\":8168:8288   */\n      iszero\n      tag_155\n      jumpi\n        /* \"#utility.yul\":8207:8286   */\n      tag_156\n      tag_31\n      jump\t// in\n    tag_156:\n        /* \"#utility.yul\":8168:8288   */\n    tag_155:\n        /* \"#utility.yul\":8327:8328   */\n      0x00\n        /* \"#utility.yul\":8352:8405   */\n      tag_157\n        /* \"#utility.yul\":8397:8404   */\n      dup9\n        /* \"#utility.yul\":8388:8394   */\n      dup3\n        /* \"#utility.yul\":8377:8386   */\n      dup10\n        /* \"#utility.yul\":8373:8395   */\n      add\n        /* \"#utility.yul\":8352:8405   */\n      tag_41\n      jump\t// in\n    tag_157:\n        /* \"#utility.yul\":8342:8405   */\n      swap6\n      pop\n        /* \"#utility.yul\":8298:8415   */\n      pop\n        /* \"#utility.yul\":8454:8456   */\n      0x20\n        /* \"#utility.yul\":8480:8533   */\n      tag_158\n        /* \"#utility.yul\":8525:8532   */\n      dup9\n        /* \"#utility.yul\":8516:8522   */\n      dup3\n        /* \"#utility.yul\":8505:8514   */\n      dup10\n        /* \"#utility.yul\":8501:8523   */\n      add\n        /* \"#utility.yul\":8480:8533   */\n      tag_41\n      jump\t// in\n    tag_158:\n        /* \"#utility.yul\":8470:8533   */\n      swap5\n      pop\n        /* \"#utility.yul\":8425:8543   */\n      pop\n        /* \"#utility.yul\":8582:8584   */\n      0x40\n        /* \"#utility.yul\":8608:8661   */\n      tag_159\n        /* \"#utility.yul\":8653:8660   */\n      dup9\n        /* \"#utility.yul\":8644:8650   */\n      dup3\n        /* \"#utility.yul\":8633:8642   */\n      dup10\n        /* \"#utility.yul\":8629:8651   */\n      add\n        /* \"#utility.yul\":8608:8661   */\n      tag_51\n      jump\t// in\n    tag_159:\n        /* \"#utility.yul\":8598:8661   */\n      swap4\n      pop\n        /* \"#utility.yul\":8553:8671   */\n      pop\n        /* \"#utility.yul\":8710:8712   */\n      0x60\n        /* \"#utility.yul\":8736:8789   */\n      tag_160\n        /* \"#utility.yul\":8781:8788   */\n      dup9\n        /* \"#utility.yul\":8772:8778   */\n      dup3\n        /* \"#utility.yul\":8761:8770   */\n      dup10\n        /* \"#utility.yul\":8757:8779   */\n      add\n        /* \"#utility.yul\":8736:8789   */\n      tag_51\n      jump\t// in\n    tag_160:\n        /* \"#utility.yul\":8726:8789   */\n      swap3\n      pop\n        /* \"#utility.yul\":8681:8799   */\n      pop\n        /* \"#utility.yul\":8866:8869   */\n      0x80\n        /* \"#utility.yul\":8855:8864   */\n      dup7\n        /* \"#utility.yul\":8851:8870   */\n      add\n        /* \"#utility.yul\":8838:8871   */\n      calldataload\n        /* \"#utility.yul\":8898:8916   */\n      0xffffffffffffffff\n        /* \"#utility.yul\":8890:8896   */\n      dup2\n        /* \"#utility.yul\":8887:8917   */\n      gt\n        /* \"#utility.yul\":8884:9001   */\n      iszero\n      tag_161\n      jumpi\n        /* \"#utility.yul\":8920:8999   */\n      tag_162\n      tag_32\n      jump\t// in\n    tag_162:\n        /* \"#utility.yul\":8884:9001   */\n    tag_161:\n        /* \"#utility.yul\":9025:9087   */\n      tag_163\n        /* \"#utility.yul\":9079:9086   */\n      dup9\n        /* \"#utility.yul\":9070:9076   */\n      dup3\n        /* \"#utility.yul\":9059:9068   */\n      dup10\n        /* \"#utility.yul\":9055:9077   */\n      add\n        /* \"#utility.yul\":9025:9087   */\n      tag_58\n      jump\t// in\n    tag_163:\n        /* \"#utility.yul\":9015:9087   */\n      swap2\n      pop\n        /* \"#utility.yul\":8809:9097   */\n      pop\n        /* \"#utility.yul\":8015:9104   */\n      swap3\n      swap6\n      pop\n      swap3\n      swap6\n      swap1\n      swap4\n      pop\n      jump\t// out\n\n    auxdata: 0xa264697066735822122095237998d3aedf56aa780a1ef7ed9d93425db8f2e088f8d337104b94f3e0e8a164736f6c634300080d0033\n}\n",
				"bytecode": {
					"linkReferences": {},
					"object": "608060405234801561001057600080fd5b5061071b806100206000396000f3fe608060405234801561001057600080fd5b50600436106100415760003560e01c806301ffc9a714610046578063bc197c8114610076578063f23a6e61146100a6575b600080fd5b610060600480360381019061005b9190610250565b6100d6565b60405161006d9190610298565b60405180910390f35b610090600480360381019061008b9190610555565b610150565b60405161009d9190610633565b60405180910390f35b6100c060048036038101906100bb919061064e565b610165565b6040516100cd9190610633565b60405180910390f35b60007f4e2312e0000000000000000000000000000000000000000000000000000000007bffffffffffffffffffffffffffffffffffffffffffffffffffffffff1916827bffffffffffffffffffffffffffffffffffffffffffffffffffffffff1916148061014957506101488261017a565b5b9050919050565b600063bc197c8160e01b905095945050505050565b600063f23a6e6160e01b905095945050505050565b60007f01ffc9a7000000000000000000000000000000000000000000000000000000007bffffffffffffffffffffffffffffffffffffffffffffffffffffffff1916827bffffffffffffffffffffffffffffffffffffffffffffffffffffffff1916149050919050565b6000604051905090565b600080fd5b600080fd5b60007fffffffff0000000000000000000000000000000000000000000000000000000082169050919050565b61022d816101f8565b811461023857600080fd5b50565b60008135905061024a81610224565b92915050565b600060208284031215610266576102656101ee565b5b60006102748482850161023b565b91505092915050565b60008115159050919050565b6102928161027d565b82525050565b60006020820190506102ad6000830184610289565b92915050565b600073ffffffffffffffffffffffffffffffffffffffff82169050919050565b60006102de826102b3565b9050919050565b6102ee816102d3565b81146102f957600080fd5b50565b60008135905061030b816102e5565b92915050565b600080fd5b6000601f19601f8301169050919050565b7f4e487b7100000000000000000000000000000000000000000000000000000000600052604160045260246000fd5b61035f82610316565b810181811067ffffffffffffffff8211171561037e5761037d610327565b5b80604052505050565b60006103916101e4565b905061039d8282610356565b919050565b600067ffffffffffffffff8211156103bd576103bc610327565b5b602082029050602081019050919050565b600080fd5b6000819050919050565b6103e6816103d3565b81146103f157600080fd5b50565b600081359050610403816103dd565b92915050565b600061041c610417846103a2565b610387565b9050808382526020820190506020840283018581111561043f5761043e6103ce565b5b835b81811015610468578061045488826103f4565b845260208401935050602081019050610441565b5050509392505050565b600082601f83011261048757610486610311565b5b8135610497848260208601610409565b91505092915050565b600080fd5b600067ffffffffffffffff8211156104c0576104bf610327565b5b6104c982610316565b9050602081019050919050565b82818337600083830152505050565b60006104f86104f3846104a5565b610387565b905082815260208101848484011115610514576105136104a0565b5b61051f8482856104d6565b509392505050565b600082601f83011261053c5761053b610311565b5b813561054c8482602086016104e5565b91505092915050565b600080600080600060a08688031215610571576105706101ee565b5b600061057f888289016102fc565b9550506020610590888289016102fc565b945050604086013567ffffffffffffffff8111156105b1576105b06101f3565b5b6105bd88828901610472565b935050606086013567ffffffffffffffff8111156105de576105dd6101f3565b5b6105ea88828901610472565b925050608086013567ffffffffffffffff81111561060b5761060a6101f3565b5b61061788828901610527565b9150509295509295909350565b61062d816101f8565b82525050565b60006020820190506106486000830184610624565b92915050565b600080600080600060a0868803121561066a576106696101ee565b5b6000610678888289016102fc565b9550506020610689888289016102fc565b945050604061069a888289016103f4565b93505060606106ab888289016103f4565b925050608086013567ffffffffffffffff8111156106cc576106cb6101f3565b5b6106d888828901610527565b915050929550929590935056fea264697066735822122095237998d3aedf56aa780a1ef7ed9d93425db8f2e088f8d337104b94f3e0e8a164736f6c634300080d0033",
					"opcodes": "PUSH1 0x80 PUSH1 0x40 MSTORE CALLVALUE DUP1 ISZERO PUSH2 0x10 JUMPI PUSH1 0x0 DUP1 REVERT JUMPDEST POP PUSH2 0x71B DUP1 PUSH2 0x20 PUSH1 0x0 CODECOPY PUSH1 0x0 RETURN INVALID PUSH1 0x80 PUSH1 0x40 MSTORE CALLVALUE DUP1 ISZERO PUSH2 0x10 JUMPI PUSH1 0x0 DUP1 REVERT JUMPDEST POP PUSH1 0x4 CALLDATASIZE LT PUSH2 0x41 JUMPI PUSH1 0x0 CALLDATALOAD PUSH1 0xE0 SHR DUP1 PUSH4 0x1FFC9A7 EQ PUSH2 0x46 JUMPI DUP1 PUSH4 0xBC197C81 EQ PUSH2 0x76 JUMPI DUP1 PUSH4 0xF23A6E61 EQ PUSH2 0xA6 JUMPI JUMPDEST PUSH1 0x0 DUP1 REVERT JUMPDEST PUSH2 0x60 PUSH1 0x4 DUP1 CALLDATASIZE SUB DUP2 ADD SWAP1 PUSH2 0x5B SWAP2 SWAP1 PUSH2 0x250 JUMP JUMPDEST PUSH2 0xD6 JUMP JUMPDEST PUSH1 0x40 MLOAD PUSH2 0x6D SWAP2 SWAP1 PUSH2 0x298 JUMP JUMPDEST PUSH1 0x40 MLOAD DUP1 SWAP2 SUB SWAP1 RETURN JUMPDEST PUSH2 0x90 PUSH1 0x4 DUP1 CALLDATASIZE SUB DUP2 ADD SWAP1 PUSH2 0x8B SWAP2 SWAP1 PUSH2 0x555 JUMP JUMPDEST PUSH2 0x150 JUMP JUMPDEST PUSH1 0x40 MLOAD PUSH2 0x9D SWAP2 SWAP1 PUSH2 0x633 JUMP JUMPDEST PUSH1 0x40 MLOAD DUP1 SWAP2 SUB SWAP1 RETURN JUMPDEST PUSH2 0xC0 PUSH1 0x4 DUP1 CALLDATASIZE SUB DUP2 ADD SWAP1 PUSH2 0xBB SWAP2 SWAP1 PUSH2 0x64E JUMP JUMPDEST PUSH2 0x165 JUMP JUMPDEST PUSH1 0x40 MLOAD PUSH2 0xCD SWAP2 SWAP1 PUSH2 0x633 JUMP JUMPDEST PUSH1 0x40 MLOAD DUP1 SWAP2 SUB SWAP1 RETURN JUMPDEST PUSH1 0x0 PUSH32 0x4E2312E000000000000000000000000000000000000000000000000000000000 PUSH28 0xFFFFFFFFFFFFFFFFFFFFFFFFFFFFFFFFFFFFFFFFFFFFFFFFFFFFFFFF NOT AND DUP3 PUSH28 0xFFFFFFFFFFFFFFFFFFFFFFFFFFFFFFFFFFFFFFFFFFFFFFFFFFFFFFFF NOT AND EQ DUP1 PUSH2 0x149 JUMPI POP PUSH2 0x148 DUP3 PUSH2 0x17A JUMP JUMPDEST JUMPDEST SWAP1 POP SWAP2 SWAP1 POP JUMP JUMPDEST PUSH1 0x0 PUSH4 0xBC197C81 PUSH1 0xE0 SHL SWAP1 POP SWAP6 SWAP5 POP POP POP POP POP JUMP JUMPDEST PUSH1 0x0 PUSH4 0xF23A6E61 PUSH1 0xE0 SHL SWAP1 POP SWAP6 SWAP5 POP POP POP POP POP JUMP JUMPDEST PUSH1 0x0 PUSH32 0x1FFC9A700000000000000000000000000000000000000000000000000000000 PUSH28 0xFFFFFFFFFFFFFFFFFFFFFFFFFFFFFFFFFFFFFFFFFFFFFFFFFFFFFFFF NOT AND DUP3 PUSH28 0xFFFFFFFFFFFFFFFFFFFFFFFFFFFFFFFFFFFFFFFFFFFFFFFFFFFFFFFF NOT AND EQ SWAP1 POP SWAP2 SWAP1 POP JUMP JUMPDEST PUSH1 0x0 PUSH1 0x40 MLOAD SWAP1 POP SWAP1 JUMP JUMPDEST PUSH1 0x0 DUP1 REVERT JUMPDEST PUSH1 0x0 DUP1 REVERT JUMPDEST PUSH1 0x0 PUSH32 0xFFFFFFFF00000000000000000000000000000000000000000000000000000000 DUP3 AND SWAP1 POP SWAP2 SWAP1 POP JUMP JUMPDEST PUSH2 0x22D DUP2 PUSH2 0x1F8 JUMP JUMPDEST DUP2 EQ PUSH2 0x238 JUMPI PUSH1 0x0 DUP1 REVERT JUMPDEST POP JUMP JUMPDEST PUSH1 0x0 DUP2 CALLDATALOAD SWAP1 POP PUSH2 0x24A DUP2 PUSH2 0x224 JUMP JUMPDEST SWAP3 SWAP2 POP POP JUMP JUMPDEST PUSH1 0x0 PUSH1 0x20 DUP3 DUP5 SUB SLT ISZERO PUSH2 0x266 JUMPI PUSH2 0x265 PUSH2 0x1EE JUMP JUMPDEST JUMPDEST PUSH1 0x0 PUSH2 0x274 DUP5 DUP3 DUP6 ADD PUSH2 0x23B JUMP JUMPDEST SWAP2 POP POP SWAP3 SWAP2 POP POP JUMP JUMPDEST PUSH1 0x0 DUP2 ISZERO ISZERO SWAP1 POP SWAP2 SWAP1 POP JUMP JUMPDEST PUSH2 0x292 DUP2 PUSH2 0x27D JUMP JUMPDEST DUP3 MSTORE POP POP JUMP JUMPDEST PUSH1 0x0 PUSH1 0x20 DUP3 ADD SWAP1 POP PUSH2 0x2AD PUSH1 0x0 DUP4 ADD DUP5 PUSH2 0x289 JUMP JUMPDEST SWAP3 SWAP2 POP POP JUMP JUMPDEST PUSH1 0x0 PUSH20 0xFFFFFFFFFFFFFFFFFFFFFFFFFFFFFFFFFFFFFFFF DUP3 AND SWAP1 POP SWAP2 SWAP1 POP JUMP JUMPDEST PUSH1 0x0 PUSH2 0x2DE DUP3 PUSH2 0x2B3 JUMP JUMPDEST SWAP1 POP SWAP2 SWAP1 POP JUMP JUMPDEST PUSH2 0x2EE DUP2 PUSH2 0x2D3 JUMP JUMPDEST DUP2 EQ PUSH2 0x2F9 JUMPI PUSH1 0x0 DUP1 REVERT JUMPDEST POP JUMP JUMPDEST PUSH1 0x0 DUP2 CALLDATALOAD SWAP1 POP PUSH2 0x30B DUP2 PUSH2 0x2E5 JUMP JUMPDEST SWAP3 SWAP2 POP POP JUMP JUMPDEST PUSH1 0x0 DUP1 REVERT JUMPDEST PUSH1 0x0 PUSH1 0x1F NOT PUSH1 0x1F DUP4 ADD AND SWAP1 POP SWAP2 SWAP1 POP JUMP JUMPDEST PUSH32 0x4E487B7100000000000000000000000000000000000000000000000000000000 PUSH1 0x0 MSTORE PUSH1 0x41 PUSH1 0x4 MSTORE PUSH1 0x24 PUSH1 0x0 REVERT JUMPDEST PUSH2 0x35F DUP3 PUSH2 0x316 JUMP JUMPDEST DUP2 ADD DUP2 DUP2 LT PUSH8 0xFFFFFFFFFFFFFFFF DUP3 GT OR ISZERO PUSH2 0x37E JUMPI PUSH2 0x37D PUSH2 0x327 JUMP JUMPDEST JUMPDEST DUP1 PUSH1 0x40 MSTORE POP POP POP JUMP JUMPDEST PUSH1 0x0 PUSH2 0x391 PUSH2 0x1E4 JUMP JUMPDEST SWAP1 POP PUSH2 0x39D DUP3 DUP3 PUSH2 0x356 JUMP JUMPDEST SWAP2 SWAP1 POP JUMP JUMPDEST PUSH1 0x0 PUSH8 0xFFFFFFFFFFFFFFFF DUP3 GT ISZERO PUSH2 0x3BD JUMPI PUSH2 0x3BC PUSH2 0x327 JUMP JUMPDEST JUMPDEST PUSH1 0x20 DUP3 MUL SWAP1 POP PUSH1 0x20 DUP2 ADD SWAP1 POP SWAP2 SWAP1 POP JUMP JUMPDEST PUSH1 0x0 DUP1 REVERT JUMPDEST PUSH1 0x0 DUP2 SWAP1 POP SWAP2 SWAP1 POP JUMP JUMPDEST PUSH2 0x3E6 DUP2 PUSH2 0x3D3 JUMP JUMPDEST DUP2 EQ PUSH2 0x3F1 JUMPI PUSH1 0x0 DUP1 REVERT JUMPDEST POP JUMP JUMPDEST PUSH1 0x0 DUP2 CALLDATALOAD SWAP1 POP PUSH2 0x403 DUP2 PUSH2 0x3DD JUMP JUMPDEST SWAP3 SWAP2 POP POP JUMP JUMPDEST PUSH1 0x0 PUSH2 0x41C PUSH2 0x417 DUP5 PUSH2 0x3A2 JUMP JUMPDEST PUSH2 0x387 JUMP JUMPDEST SWAP1 POP DUP1 DUP4 DUP3 MSTORE PUSH1 0x20 DUP3 ADD SWAP1 POP PUSH1 0x20 DUP5 MUL DUP4 ADD DUP6 DUP2 GT ISZERO PUSH2 0x43F JUMPI PUSH2 0x43E PUSH2 0x3CE JUMP JUMPDEST JUMPDEST DUP4 JUMPDEST DUP2 DUP2 LT ISZERO PUSH2 0x468 JUMPI DUP1 PUSH2 0x454 DUP9 DUP3 PUSH2 0x3F4 JUMP JUMPDEST DUP5 MSTORE PUSH1 0x20 DUP5 ADD SWAP4 POP POP PUSH1 0x20 DUP2 ADD SWAP1 POP PUSH2 0x441 JUMP JUMPDEST POP POP POP SWAP4 SWAP3 POP POP POP JUMP JUMPDEST PUSH1 0x0 DUP3 PUSH1 0x1F DUP4 ADD SLT PUSH2 0x487 JUMPI PUSH2 0x486 PUSH2 0x311 JUMP JUMPDEST JUMPDEST DUP2 CALLDATALOAD PUSH2 0x497 DUP5 DUP3 PUSH1 0x20 DUP7 ADD PUSH2 0x409 JUMP JUMPDEST SWAP2 POP POP SWAP3 SWAP2 POP POP JUMP JUMPDEST PUSH1 0x0 DUP1 REVERT JUMPDEST PUSH1 0x0 PUSH8 0xFFFFFFFFFFFFFFFF DUP3 GT ISZERO PUSH2 0x4C0 JUMPI PUSH2 0x4BF PUSH2 0x327 JUMP JUMPDEST JUMPDEST PUSH2 0x4C9 DUP3 PUSH2 0x316 JUMP JUMPDEST SWAP1 POP PUSH1 0x20 DUP2 ADD SWAP1 POP SWAP2 SWAP1 POP JUMP JUMPDEST DUP3 DUP2 DUP4 CALLDATACOPY PUSH1 0x0 DUP4 DUP4 ADD MSTORE POP POP POP JUMP JUMPDEST PUSH1 0x0 PUSH2 0x4F8 PUSH2 0x4F3 DUP5 PUSH2 0x4A5 JUMP JUMPDEST PUSH2 0x387 JUMP JUMPDEST SWAP1 POP DUP3 DUP2 MSTORE PUSH1 0x20 DUP2 ADD DUP5 DUP5 DUP5 ADD GT ISZERO PUSH2 0x514 JUMPI PUSH2 0x513 PUSH2 0x4A0 JUMP JUMPDEST JUMPDEST PUSH2 0x51F DUP5 DUP3 DUP6 PUSH2 0x4D6 JUMP JUMPDEST POP SWAP4 SWAP3 POP POP POP JUMP JUMPDEST PUSH1 0x0 DUP3 PUSH1 0x1F DUP4 ADD SLT PUSH2 0x53C JUMPI PUSH2 0x53B PUSH2 0x311 JUMP JUMPDEST JUMPDEST DUP2 CALLDATALOAD PUSH2 0x54C DUP5 DUP3 PUSH1 0x20 DUP7 ADD PUSH2 0x4E5 JUMP JUMPDEST SWAP2 POP POP SWAP3 SWAP2 POP POP JUMP JUMPDEST PUSH1 0x0 DUP1 PUSH1 0x0 DUP1 PUSH1 0x0 PUSH1 0xA0 DUP7 DUP9 SUB SLT ISZERO PUSH2 0x571 JUMPI PUSH2 0x570 PUSH2 0x1EE JUMP JUMPDEST JUMPDEST PUSH1 0x0 PUSH2 0x57F DUP9 DUP3 DUP10 ADD PUSH2 0x2FC JUMP JUMPDEST SWAP6 POP POP PUSH1 0x20 PUSH2 0x590 DUP9 DUP3 DUP10 ADD PUSH2 0x2FC JUMP JUMPDEST SWAP5 POP POP PUSH1 0x40 DUP7 ADD CALLDATALOAD PUSH8 0xFFFFFFFFFFFFFFFF DUP2 GT ISZERO PUSH2 0x5B1 JUMPI PUSH2 0x5B0 PUSH2 0x1F3 JUMP JUMPDEST JUMPDEST PUSH2 0x5BD DUP9 DUP3 DUP10 ADD PUSH2 0x472 JUMP JUMPDEST SWAP4 POP POP PUSH1 0x60 DUP7 ADD CALLDATALOAD PUSH8 0xFFFFFFFFFFFFFFFF DUP2 GT ISZERO PUSH2 0x5DE JUMPI PUSH2 0x5DD PUSH2 0x1F3 JUMP JUMPDEST JUMPDEST PUSH2 0x5EA DUP9 DUP3 DUP10 ADD PUSH2 0x472 JUMP JUMPDEST SWAP3 POP POP PUSH1 0x80 DUP7 ADD CALLDATALOAD PUSH8 0xFFFFFFFFFFFFFFFF DUP2 GT ISZERO PUSH2 0x60B JUMPI PUSH2 0x60A PUSH2 0x1F3 JUMP JUMPDEST JUMPDEST PUSH2 0x617 DUP9 DUP3 DUP10 ADD PUSH2 0x527 JUMP JUMPDEST SWAP2 POP POP SWAP3 SWAP6 POP SWAP3 SWAP6 SWAP1 SWAP4 POP JUMP JUMPDEST PUSH2 0x62D DUP2 PUSH2 0x1F8 JUMP JUMPDEST DUP3 MSTORE POP POP JUMP JUMPDEST PUSH1 0x0 PUSH1 0x20 DUP3 ADD SWAP1 POP PUSH2 0x648 PUSH1 0x0 DUP4 ADD DUP5 PUSH2 0x624 JUMP JUMPDEST SWAP3 SWAP2 POP POP JUMP JUMPDEST PUSH1 0x0 DUP1 PUSH1 0x0 DUP1 PUSH1 0x0 PUSH1 0xA0 DUP7 DUP9 SUB SLT ISZERO PUSH2 0x66A JUMPI PUSH2 0x669 PUSH2 0x1EE JUMP JUMPDEST JUMPDEST PUSH1 0x0 PUSH2 0x678 DUP9 DUP3 DUP10 ADD PUSH2 0x2FC JUMP JUMPDEST SWAP6 POP POP PUSH1 0x20 PUSH2 0x689 DUP9 DUP3 DUP10 ADD PUSH2 0x2FC JUMP JUMPDEST SWAP5 POP POP PUSH1 0x40 PUSH2 0x69A DUP9 DUP3 DUP10 ADD PUSH2 0x3F4 JUMP JUMPDEST SWAP4 POP POP PUSH1 0x60 PUSH2 0x6AB DUP9 DUP3 DUP10 ADD PUSH2 0x3F4 JUMP JUMPDEST SWAP3 POP POP PUSH1 0x80 DUP7 ADD CALLDATALOAD PUSH8 0xFFFFFFFFFFFFFFFF DUP2 GT ISZERO PUSH2 0x6CC JUMPI PUSH2 0x6CB PUSH2 0x1F3 JUMP JUMPDEST JUMPDEST PUSH2 0x6D8 DUP9 DUP3 DUP10 ADD PUSH2 0x527 JUMP JUMPDEST SWAP2 POP POP SWAP3 SWAP6 POP SWAP3 SWAP6 SWAP1 SWAP4 POP JUMP INVALID LOG2 PUSH5 0x6970667358 0x22 SLT KECCAK256 SWAP6 0x23 PUSH26 0x98D3AEDF56AA780A1EF7ED9D93425DB8F2E088F8D337104B94F3 0xE0 0xE8 LOG1 PUSH5 0x736F6C6343 STOP ADDMOD 0xD STOP CALLER "
				},
				"gasEstimates": {
					"creation": {
						"codeDepositCost": "363800",
						"executionCost": "399",
						"totalCost": "364199"
					},
					"external": {
						"onERC1155BatchReceived(address,address,uint256[],uint256[],bytes)": "infinite",
						"onERC1155Received(address,address,uint256,uint256,bytes)": "infinite",
						"supportsInterface(bytes4)": "705"
					}
				},
				"methodIdentifiers": {
					"onERC1155BatchReceived(address,address,uint256[],uint256[],bytes)": "bc197c81",
					"onERC1155Received(address,address,uint256,uint256,bytes)": "f23a6e61",
					"supportsInterface(bytes4)": "01ffc9a7"
				}
			},
			"storageLayout": {
				"storage": [],
				"types": null
			},
			"userdoc": {
				"kind": "user",
				"methods": {},
				"version": 1
			}
		}
	}
}