{
	"node_modules/@openzeppelin/contracts/token/ERC1155/utils/ERC1155Holder.sol": {
		"ERC1155Holder": {
			"abi": [
				{
					"inputs": [
						{
							"internalType": "address",
							"name": "",
							"type": "address"
						},
						{
							"internalType": "address",
							"name": "",
							"type": "address"
						},
						{
							"internalType": "uint256[]",
							"name": "",
							"type": "uint256[]"
						},
						{
							"internalType": "uint256[]",
							"name": "",
							"type": "uint256[]"
						},
						{
							"internalType": "bytes",
							"name": "",
							"type": "bytes"
						}
					],
					"name": "onERC1155BatchReceived",
					"outputs": [
						{
							"internalType": "bytes4",
							"name": "",
							"type": "bytes4"
						}
					],
					"stateMutability": "nonpayable",
					"type": "function"
				},
				{
					"inputs": [
						{
							"internalType": "address",
							"name": "",
							"type": "address"
						},
						{
							"internalType": "address",
							"name": "",
							"type": "address"
						},
						{
							"internalType": "uint256",
							"name": "",
							"type": "uint256"
						},
						{
							"internalType": "uint256",
							"name": "",
							"type": "uint256"
						},
						{
							"internalType": "bytes",
							"name": "",
							"type": "bytes"
						}
					],
					"name": "onERC1155Received",
					"outputs": [
						{
							"internalType": "bytes4",
							"name": "",
							"type": "bytes4"
						}
					],
					"stateMutability": "nonpayable",
					"type": "function"
				},
				{
					"inputs": [
						{
							"internalType": "bytes4",
							"name": "interfaceId",
							"type": "bytes4"
						}
					],
					"name": "supportsInterface",
					"outputs": [
						{
							"internalType": "bool",
							"name": "",
							"type": "bool"
						}
					],
					"stateMutability": "view",
					"type": "function"
				}
			],
			"devdoc": {
				"details": "_Available since v3.1._",
				"kind": "dev",
				"methods": {
					"supportsInterface(bytes4)": {
						"details": "See {IERC165-supportsInterface}."
					}
				},
				"version": 1
			},
			"evm": {
				"assembly": "    /* \"node_modules/@openzeppelin/contracts/token/ERC1155/utils/ERC1155Holder.sol\":204:726  contract ERC1155Holder is ERC1155Receiver {... */\n  mstore(0x40, 0x80)\n  callvalue\n  dup1\n  iszero\n  tag_1\n  jumpi\n  0x00\n  dup1\n  revert\ntag_1:\n  pop\n  dataSize(sub_0)\n  dup1\n  dataOffset(sub_0)\n  0x00\n  codecopy\n  0x00\n  return\nstop\n\nsub_0: assembly {\n        /* \"node_modules/@openzeppelin/contracts/token/ERC1155/utils/ERC1155Holder.sol\":204:726  contract ERC1155Holder is ERC1155Receiver {... */\n      mstore(0x40, 0x80)\n      callvalue\n      dup1\n      iszero\n      tag_1\n      jumpi\n      0x00\n      dup1\n      revert\n    tag_1:\n      pop\n      jumpi(tag_2, lt(calldatasize, 0x04))\n      shr(0xe0, calldataload(0x00))\n      dup1\n      0x01ffc9a7\n      eq\n      tag_3\n      jumpi\n      dup1\n      0xbc197c81\n      eq\n      tag_4\n      jumpi\n      dup1\n      0xf23a6e61\n      eq\n      tag_5\n      jumpi\n    tag_2:\n      0x00\n      dup1\n      revert\n        /* \"node_modules/@openzeppelin/contracts/token/ERC1155/utils/ERC1155Receiver.sol\":387:608  function supportsInterface(bytes4 interfaceId) public view virtual override(ERC165, IERC165) returns (bool) {... */\n    tag_3:\n      tag_6\n      tag_7\n      calldatasize\n      0x04\n      tag_8\n      jump\t// in\n    tag_7:\n      tag_9\n      jump\t// in\n    tag_6:\n      mload(0x40)\n        /* \"#utility.yul\":470:484   */\n      swap1\n      iszero\n        /* \"#utility.yul\":463:485   */\n      iszero\n        /* \"#utility.yul\":445:486   */\n      dup2\n      mstore\n        /* \"#utility.yul\":433:435   */\n      0x20\n        /* \"#utility.yul\":418:436   */\n      add\n        /* \"node_modules/@openzeppelin/contracts/token/ERC1155/utils/ERC1155Receiver.sol\":387:608  function supportsInterface(bytes4 interfaceId) public view virtual override(ERC165, IERC165) returns (bool) {... */\n    tag_10:\n      mload(0x40)\n      dup1\n      swap2\n      sub\n      swap1\n      return\n        /* \"node_modules/@openzeppelin/contracts/token/ERC1155/utils/ERC1155Holder.sol\":477:724  function onERC1155BatchReceived(... */\n    tag_4:\n      tag_12\n      tag_13\n      calldatasize\n      0x04\n      tag_14\n      jump\t// in\n    tag_13:\n      shl(0xe0, 0xbc197c81)\n      swap6\n      swap5\n      pop\n      pop\n      pop\n      pop\n      pop\n      jump\n    tag_12:\n      mload(0x40)\n      not(sub(shl(0xe0, 0x01), 0x01))\n        /* \"#utility.yul\":3449:3482   */\n      swap1\n      swap2\n      and\n        /* \"#utility.yul\":3431:3483   */\n      dup2\n      mstore\n        /* \"#utility.yul\":3419:3421   */\n      0x20\n        /* \"#utility.yul\":3404:3422   */\n      add\n        /* \"node_modules/@openzeppelin/contracts/token/ERC1155/utils/ERC1155Holder.sol\":477:724  function onERC1155BatchReceived(... */\n      tag_10\n        /* \"#utility.yul\":3287:3489   */\n      jump\n        /* \"node_modules/@openzeppelin/contracts/token/ERC1155/utils/ERC1155Holder.sol\":252:471  function onERC1155Received(... */\n    tag_5:\n      tag_12\n      tag_19\n      calldatasize\n      0x04\n      tag_20\n      jump\t// in\n    tag_19:\n      shl(0xe0, 0xf23a6e61)\n      swap6\n      swap5\n      pop\n      pop\n      pop\n      pop\n      pop\n      jump\n        /* \"node_modules/@openzeppelin/contracts/token/ERC1155/utils/ERC1155Receiver.sol\":387:608  function supportsInterface(bytes4 interfaceId) public view virtual override(ERC165, IERC165) returns (bool) {... */\n    tag_9:\n        /* \"node_modules/@openzeppelin/contracts/token/ERC1155/utils/ERC1155Receiver.sol\":489:493  bool */\n      0x00\n      not(sub(shl(0xe0, 0x01), 0x01))\n        /* \"node_modules/@openzeppelin/contracts/token/ERC1155/utils/ERC1155Receiver.sol\":512:561  interfaceId == type(IERC1155Receiver).interfaceId */\n      dup3\n      and\n      shl(0xe5, 0x02711897)\n      eq\n      dup1\n        /* \"node_modules/@openzeppelin/contracts/token/ERC1155/utils/ERC1155Receiver.sol\":512:601  interfaceId == type(IERC1155Receiver).interfaceId || super.supportsInterface(interfaceId) */\n      tag_25\n      jumpi\n      pop\n      shl(0xe0, 0x01ffc9a7)\n      not(sub(shl(0xe0, 0x01), 0x01))\n        /* \"node_modules/@openzeppelin/contracts/utils/introspection/ERC165.sol\":937:977  interfaceId == type(IERC165).interfaceId */\n      dup4\n      and\n      eq\n        /* \"node_modules/@openzeppelin/contracts/token/ERC1155/utils/ERC1155Receiver.sol\":565:601  super.supportsInterface(interfaceId) */\n    tag_25:\n        /* \"node_modules/@openzeppelin/contracts/token/ERC1155/utils/ERC1155Receiver.sol\":505:601  return interfaceId == type(IERC1155Receiver).interfaceId || super.supportsInterface(interfaceId) */\n      swap3\n        /* \"node_modules/@openzeppelin/contracts/token/ERC1155/utils/ERC1155Receiver.sol\":387:608  function supportsInterface(bytes4 interfaceId) public view virtual override(ERC165, IERC165) returns (bool) {... */\n      swap2\n      pop\n      pop\n      jump\t// out\n        /* \"#utility.yul\":14:300   */\n    tag_8:\n        /* \"#utility.yul\":72:78   */\n      0x00\n        /* \"#utility.yul\":125:127   */\n      0x20\n        /* \"#utility.yul\":113:122   */\n      dup3\n        /* \"#utility.yul\":104:111   */\n      dup5\n        /* \"#utility.yul\":100:123   */\n      sub\n        /* \"#utility.yul\":96:128   */\n      slt\n        /* \"#utility.yul\":93:145   */\n      iszero\n      tag_37\n      jumpi\n        /* \"#utility.yul\":141:142   */\n      0x00\n        /* \"#utility.yul\":138:139   */\n      dup1\n        /* \"#utility.yul\":131:143   */\n      revert\n        /* \"#utility.yul\":93:145   */\n    tag_37:\n        /* \"#utility.yul\":167:190   */\n      dup2\n      calldataload\n      not(sub(shl(0xe0, 0x01), 0x01))\n        /* \"#utility.yul\":219:251   */\n      dup2\n      and\n        /* \"#utility.yul\":209:252   */\n      dup2\n      eq\n        /* \"#utility.yul\":199:270   */\n      tag_38\n      jumpi\n        /* \"#utility.yul\":266:267   */\n      0x00\n        /* \"#utility.yul\":263:264   */\n      dup1\n        /* \"#utility.yul\":256:268   */\n      revert\n        /* \"#utility.yul\":199:270   */\n    tag_38:\n        /* \"#utility.yul\":289:294   */\n      swap4\n        /* \"#utility.yul\":14:300   */\n      swap3\n      pop\n      pop\n      pop\n      jump\t// out\n        /* \"#utility.yul\":497:670   */\n    tag_30:\n        /* \"#utility.yul\":565:585   */\n      dup1\n      calldataload\n      sub(shl(0xa0, 0x01), 0x01)\n        /* \"#utility.yul\":614:645   */\n      dup2\n      and\n        /* \"#utility.yul\":604:646   */\n      dup2\n      eq\n        /* \"#utility.yul\":594:664   */\n      tag_41\n      jumpi\n        /* \"#utility.yul\":660:661   */\n      0x00\n        /* \"#utility.yul\":657:658   */\n      dup1\n        /* \"#utility.yul\":650:662   */\n      revert\n        /* \"#utility.yul\":594:664   */\n    tag_41:\n        /* \"#utility.yul\":497:670   */\n      swap2\n      swap1\n      pop\n      jump\t// out\n        /* \"#utility.yul\":675:802   */\n    tag_31:\n        /* \"#utility.yul\":736:746   */\n      0x4e487b71\n        /* \"#utility.yul\":731:734   */\n      0xe0\n        /* \"#utility.yul\":727:747   */\n      shl\n        /* \"#utility.yul\":724:725   */\n      0x00\n        /* \"#utility.yul\":717:748   */\n      mstore\n        /* \"#utility.yul\":767:771   */\n      0x41\n        /* \"#utility.yul\":764:765   */\n      0x04\n        /* \"#utility.yul\":757:772   */\n      mstore\n        /* \"#utility.yul\":791:795   */\n      0x24\n        /* \"#utility.yul\":788:789   */\n      0x00\n        /* \"#utility.yul\":781:796   */\n      revert\n        /* \"#utility.yul\":807:1082   */\n    tag_32:\n        /* \"#utility.yul\":878:880   */\n      0x40\n        /* \"#utility.yul\":872:881   */\n      mload\n        /* \"#utility.yul\":943:945   */\n      0x1f\n        /* \"#utility.yul\":924:937   */\n      dup3\n      add\n      not(0x1f)\n        /* \"#utility.yul\":920:947   */\n      and\n        /* \"#utility.yul\":908:948   */\n      dup2\n      add\n        /* \"#utility.yul\":978:996   */\n      0xffffffffffffffff\n        /* \"#utility.yul\":963:997   */\n      dup2\n      gt\n        /* \"#utility.yul\":999:1021   */\n      dup3\n      dup3\n      lt\n        /* \"#utility.yul\":960:1022   */\n      or\n        /* \"#utility.yul\":957:1045   */\n      iszero\n      tag_45\n      jumpi\n        /* \"#utility.yul\":1025:1043   */\n      tag_45\n      tag_31\n      jump\t// in\n    tag_45:\n        /* \"#utility.yul\":1061:1063   */\n      0x40\n        /* \"#utility.yul\":1054:1076   */\n      mstore\n        /* \"#utility.yul\":807:1082   */\n      swap2\n      swap1\n      pop\n      jump\t// out\n        /* \"#utility.yul\":1087:1799   */\n    tag_33:\n        /* \"#utility.yul\":1141:1146   */\n      0x00\n        /* \"#utility.yul\":1194:1197   */\n      dup3\n        /* \"#utility.yul\":1187:1191   */\n      0x1f\n        /* \"#utility.yul\":1179:1185   */\n      dup4\n        /* \"#utility.yul\":1175:1192   */\n      add\n        /* \"#utility.yul\":1171:1198   */\n      slt\n        /* \"#utility.yul\":1161:1216   */\n      tag_47\n      jumpi\n        /* \"#utility.yul\":1212:1213   */\n      0x00\n        /* \"#utility.yul\":1209:1210   */\n      dup1\n        /* \"#utility.yul\":1202:1214   */\n      revert\n        /* \"#utility.yul\":1161:1216   */\n    tag_47:\n        /* \"#utility.yul\":1248:1254   */\n      dup2\n        /* \"#utility.yul\":1235:1255   */\n      calldataload\n        /* \"#utility.yul\":1274:1278   */\n      0x20\n        /* \"#utility.yul\":1297:1315   */\n      0xffffffffffffffff\n        /* \"#utility.yul\":1293:1295   */\n      dup3\n        /* \"#utility.yul\":1290:1316   */\n      gt\n        /* \"#utility.yul\":1287:1339   */\n      iszero\n      tag_49\n      jumpi\n        /* \"#utility.yul\":1319:1337   */\n      tag_49\n      tag_31\n      jump\t// in\n    tag_49:\n        /* \"#utility.yul\":1365:1367   */\n      dup2\n        /* \"#utility.yul\":1362:1363   */\n      0x05\n        /* \"#utility.yul\":1358:1368   */\n      shl\n        /* \"#utility.yul\":1388:1416   */\n      tag_50\n        /* \"#utility.yul\":1412:1414   */\n      dup3\n        /* \"#utility.yul\":1408:1410   */\n      dup3\n        /* \"#utility.yul\":1404:1415   */\n      add\n        /* \"#utility.yul\":1388:1416   */\n      tag_32\n      jump\t// in\n    tag_50:\n        /* \"#utility.yul\":1450:1465   */\n      swap3\n      dup4\n      mstore\n        /* \"#utility.yul\":1520:1535   */\n      dup5\n      dup2\n      add\n        /* \"#utility.yul\":1516:1540   */\n      dup3\n      add\n      swap3\n        /* \"#utility.yul\":1481:1493   */\n      dup3\n      dup2\n      add\n      swap1\n        /* \"#utility.yul\":1552:1567   */\n      dup8\n      dup6\n      gt\n        /* \"#utility.yul\":1549:1584   */\n      iszero\n      tag_51\n      jumpi\n        /* \"#utility.yul\":1580:1581   */\n      0x00\n        /* \"#utility.yul\":1577:1578   */\n      dup1\n        /* \"#utility.yul\":1570:1582   */\n      revert\n        /* \"#utility.yul\":1549:1584   */\n    tag_51:\n        /* \"#utility.yul\":1616:1618   */\n      dup4\n        /* \"#utility.yul\":1608:1614   */\n      dup8\n        /* \"#utility.yul\":1604:1619   */\n      add\n        /* \"#utility.yul\":1593:1619   */\n      swap3\n      pop\n        /* \"#utility.yul\":1628:1770   */\n    tag_52:\n        /* \"#utility.yul\":1644:1650   */\n      dup5\n        /* \"#utility.yul\":1639:1642   */\n      dup4\n        /* \"#utility.yul\":1636:1651   */\n      lt\n        /* \"#utility.yul\":1628:1770   */\n      iszero\n      tag_54\n      jumpi\n        /* \"#utility.yul\":1710:1727   */\n      dup3\n      calldataload\n        /* \"#utility.yul\":1698:1728   */\n      dup3\n      mstore\n        /* \"#utility.yul\":1661:1673   */\n      swap2\n      dup4\n      add\n      swap2\n        /* \"#utility.yul\":1748:1760   */\n      swap1\n      dup4\n      add\n      swap1\n        /* \"#utility.yul\":1628:1770   */\n      jump(tag_52)\n    tag_54:\n        /* \"#utility.yul\":1788:1793   */\n      swap8\n        /* \"#utility.yul\":1087:1799   */\n      swap7\n      pop\n      pop\n      pop\n      pop\n      pop\n      pop\n      pop\n      jump\t// out\n        /* \"#utility.yul\":1804:2334   */\n    tag_34:\n        /* \"#utility.yul\":1846:1851   */\n      0x00\n        /* \"#utility.yul\":1899:1902   */\n      dup3\n        /* \"#utility.yul\":1892:1896   */\n      0x1f\n        /* \"#utility.yul\":1884:1890   */\n      dup4\n        /* \"#utility.yul\":1880:1897   */\n      add\n        /* \"#utility.yul\":1876:1903   */\n      slt\n        /* \"#utility.yul\":1866:1921   */\n      tag_56\n      jumpi\n        /* \"#utility.yul\":1917:1918   */\n      0x00\n        /* \"#utility.yul\":1914:1915   */\n      dup1\n        /* \"#utility.yul\":1907:1919   */\n      revert\n        /* \"#utility.yul\":1866:1921   */\n    tag_56:\n        /* \"#utility.yul\":1953:1959   */\n      dup2\n        /* \"#utility.yul\":1940:1960   */\n      calldataload\n        /* \"#utility.yul\":1979:1997   */\n      0xffffffffffffffff\n        /* \"#utility.yul\":1975:1977   */\n      dup2\n        /* \"#utility.yul\":1972:1998   */\n      gt\n        /* \"#utility.yul\":1969:2021   */\n      iszero\n      tag_58\n      jumpi\n        /* \"#utility.yul\":2001:2019   */\n      tag_58\n      tag_31\n      jump\t// in\n    tag_58:\n        /* \"#utility.yul\":2045:2100   */\n      tag_59\n        /* \"#utility.yul\":2088:2090   */\n      0x1f\n        /* \"#utility.yul\":2069:2082   */\n      dup3\n      add\n      not(0x1f)\n        /* \"#utility.yul\":2065:2092   */\n      and\n        /* \"#utility.yul\":2094:2098   */\n      0x20\n        /* \"#utility.yul\":2061:2099   */\n      add\n        /* \"#utility.yul\":2045:2100   */\n      tag_32\n      jump\t// in\n    tag_59:\n        /* \"#utility.yul\":2125:2127   */\n      dup2\n        /* \"#utility.yul\":2116:2123   */\n      dup2\n        /* \"#utility.yul\":2109:2128   */\n      mstore\n        /* \"#utility.yul\":2171:2174   */\n      dup5\n        /* \"#utility.yul\":2164:2168   */\n      0x20\n        /* \"#utility.yul\":2159:2161   */\n      dup4\n        /* \"#utility.yul\":2151:2157   */\n      dup7\n        /* \"#utility.yul\":2147:2162   */\n      add\n        /* \"#utility.yul\":2143:2169   */\n      add\n        /* \"#utility.yul\":2140:2175   */\n      gt\n        /* \"#utility.yul\":2137:2192   */\n      iszero\n      tag_60\n      jumpi\n        /* \"#utility.yul\":2188:2189   */\n      0x00\n        /* \"#utility.yul\":2185:2186   */\n      dup1\n        /* \"#utility.yul\":2178:2190   */\n      revert\n        /* \"#utility.yul\":2137:2192   */\n    tag_60:\n        /* \"#utility.yul\":2253:2255   */\n      dup2\n        /* \"#utility.yul\":2246:2250   */\n      0x20\n        /* \"#utility.yul\":2238:2244   */\n      dup6\n        /* \"#utility.yul\":2234:2251   */\n      add\n        /* \"#utility.yul\":2227:2231   */\n      0x20\n        /* \"#utility.yul\":2218:2225   */\n      dup4\n        /* \"#utility.yul\":2214:2232   */\n      add\n        /* \"#utility.yul\":2201:2256   */\n      calldatacopy\n        /* \"#utility.yul\":2301:2302   */\n      0x00\n        /* \"#utility.yul\":2276:2292   */\n      swap2\n      dup2\n      add\n        /* \"#utility.yul\":2294:2298   */\n      0x20\n        /* \"#utility.yul\":2272:2299   */\n      add\n        /* \"#utility.yul\":2265:2303   */\n      swap2\n      swap1\n      swap2\n      mstore\n        /* \"#utility.yul\":2280:2287   */\n      swap4\n        /* \"#utility.yul\":1804:2334   */\n      swap3\n      pop\n      pop\n      pop\n      jump\t// out\n        /* \"#utility.yul\":2339:3282   */\n    tag_14:\n        /* \"#utility.yul\":2493:2499   */\n      0x00\n        /* \"#utility.yul\":2501:2507   */\n      dup1\n        /* \"#utility.yul\":2509:2515   */\n      0x00\n        /* \"#utility.yul\":2517:2523   */\n      dup1\n        /* \"#utility.yul\":2525:2531   */\n      0x00\n        /* \"#utility.yul\":2578:2581   */\n      0xa0\n        /* \"#utility.yul\":2566:2575   */\n      dup7\n        /* \"#utility.yul\":2557:2564   */\n      dup9\n        /* \"#utility.yul\":2553:2576   */\n      sub\n        /* \"#utility.yul\":2549:2582   */\n      slt\n        /* \"#utility.yul\":2546:2599   */\n      iszero\n      tag_62\n      jumpi\n        /* \"#utility.yul\":2595:2596   */\n      0x00\n        /* \"#utility.yul\":2592:2593   */\n      dup1\n        /* \"#utility.yul\":2585:2597   */\n      revert\n        /* \"#utility.yul\":2546:2599   */\n    tag_62:\n        /* \"#utility.yul\":2618:2647   */\n      tag_63\n        /* \"#utility.yul\":2637:2646   */\n      dup7\n        /* \"#utility.yul\":2618:2647   */\n      tag_30\n      jump\t// in\n    tag_63:\n        /* \"#utility.yul\":2608:2647   */\n      swap5\n      pop\n        /* \"#utility.yul\":2666:2704   */\n      tag_64\n        /* \"#utility.yul\":2700:2702   */\n      0x20\n        /* \"#utility.yul\":2689:2698   */\n      dup8\n        /* \"#utility.yul\":2685:2703   */\n      add\n        /* \"#utility.yul\":2666:2704   */\n      tag_30\n      jump\t// in\n    tag_64:\n        /* \"#utility.yul\":2656:2704   */\n      swap4\n      pop\n        /* \"#utility.yul\":2755:2757   */\n      0x40\n        /* \"#utility.yul\":2744:2753   */\n      dup7\n        /* \"#utility.yul\":2740:2758   */\n      add\n        /* \"#utility.yul\":2727:2759   */\n      calldataload\n        /* \"#utility.yul\":2778:2796   */\n      0xffffffffffffffff\n        /* \"#utility.yul\":2819:2821   */\n      dup1\n        /* \"#utility.yul\":2811:2817   */\n      dup3\n        /* \"#utility.yul\":2808:2822   */\n      gt\n        /* \"#utility.yul\":2805:2839   */\n      iszero\n      tag_65\n      jumpi\n        /* \"#utility.yul\":2835:2836   */\n      0x00\n        /* \"#utility.yul\":2832:2833   */\n      dup1\n        /* \"#utility.yul\":2825:2837   */\n      revert\n        /* \"#utility.yul\":2805:2839   */\n    tag_65:\n        /* \"#utility.yul\":2858:2919   */\n      tag_66\n        /* \"#utility.yul\":2911:2918   */\n      dup10\n        /* \"#utility.yul\":2902:2908   */\n      dup4\n        /* \"#utility.yul\":2891:2900   */\n      dup11\n        /* \"#utility.yul\":2887:2909   */\n      add\n        /* \"#utility.yul\":2858:2919   */\n      tag_33\n      jump\t// in\n    tag_66:\n        /* \"#utility.yul\":2848:2919   */\n      swap5\n      pop\n        /* \"#utility.yul\":2972:2974   */\n      0x60\n        /* \"#utility.yul\":2961:2970   */\n      dup9\n        /* \"#utility.yul\":2957:2975   */\n      add\n        /* \"#utility.yul\":2944:2976   */\n      calldataload\n        /* \"#utility.yul\":2928:2976   */\n      swap2\n      pop\n        /* \"#utility.yul\":3001:3003   */\n      dup1\n        /* \"#utility.yul\":2991:2999   */\n      dup3\n        /* \"#utility.yul\":2988:3004   */\n      gt\n        /* \"#utility.yul\":2985:3021   */\n      iszero\n      tag_67\n      jumpi\n        /* \"#utility.yul\":3017:3018   */\n      0x00\n        /* \"#utility.yul\":3014:3015   */\n      dup1\n        /* \"#utility.yul\":3007:3019   */\n      revert\n        /* \"#utility.yul\":2985:3021   */\n    tag_67:\n        /* \"#utility.yul\":3040:3103   */\n      tag_68\n        /* \"#utility.yul\":3095:3102   */\n      dup10\n        /* \"#utility.yul\":3084:3092   */\n      dup4\n        /* \"#utility.yul\":3073:3082   */\n      dup11\n        /* \"#utility.yul\":3069:3093   */\n      add\n        /* \"#utility.yul\":3040:3103   */\n      tag_33\n      jump\t// in\n    tag_68:\n        /* \"#utility.yul\":3030:3103   */\n      swap4\n      pop\n        /* \"#utility.yul\":3156:3159   */\n      0x80\n        /* \"#utility.yul\":3145:3154   */\n      dup9\n        /* \"#utility.yul\":3141:3160   */\n      add\n        /* \"#utility.yul\":3128:3161   */\n      calldataload\n        /* \"#utility.yul\":3112:3161   */\n      swap2\n      pop\n        /* \"#utility.yul\":3186:3188   */\n      dup1\n        /* \"#utility.yul\":3176:3184   */\n      dup3\n        /* \"#utility.yul\":3173:3189   */\n      gt\n        /* \"#utility.yul\":3170:3206   */\n      iszero\n      tag_69\n      jumpi\n        /* \"#utility.yul\":3202:3203   */\n      0x00\n        /* \"#utility.yul\":3199:3200   */\n      dup1\n        /* \"#utility.yul\":3192:3204   */\n      revert\n        /* \"#utility.yul\":3170:3206   */\n    tag_69:\n      pop\n        /* \"#utility.yul\":3225:3276   */\n      tag_70\n        /* \"#utility.yul\":3268:3275   */\n      dup9\n        /* \"#utility.yul\":3257:3265   */\n      dup3\n        /* \"#utility.yul\":3246:3255   */\n      dup10\n        /* \"#utility.yul\":3242:3266   */\n      add\n        /* \"#utility.yul\":3225:3276   */\n      tag_34\n      jump\t// in\n    tag_70:\n        /* \"#utility.yul\":3215:3276   */\n      swap2\n      pop\n      pop\n        /* \"#utility.yul\":2339:3282   */\n      swap3\n      swap6\n      pop\n      swap3\n      swap6\n      swap1\n      swap4\n      pop\n      jump\t// out\n        /* \"#utility.yul\":3494:4100   */\n    tag_20:\n        /* \"#utility.yul\":3598:3604   */\n      0x00\n        /* \"#utility.yul\":3606:3612   */\n      dup1\n        /* \"#utility.yul\":3614:3620   */\n      0x00\n        /* \"#utility.yul\":3622:3628   */\n      dup1\n        /* \"#utility.yul\":3630:3636   */\n      0x00\n        /* \"#utility.yul\":3683:3686   */\n      0xa0\n        /* \"#utility.yul\":3671:3680   */\n      dup7\n        /* \"#utility.yul\":3662:3669   */\n      dup9\n        /* \"#utility.yul\":3658:3681   */\n      sub\n        /* \"#utility.yul\":3654:3687   */\n      slt\n        /* \"#utility.yul\":3651:3704   */\n      iszero\n      tag_73\n      jumpi\n        /* \"#utility.yul\":3700:3701   */\n      0x00\n        /* \"#utility.yul\":3697:3698   */\n      dup1\n        /* \"#utility.yul\":3690:3702   */\n      revert\n        /* \"#utility.yul\":3651:3704   */\n    tag_73:\n        /* \"#utility.yul\":3723:3752   */\n      tag_74\n        /* \"#utility.yul\":3742:3751   */\n      dup7\n        /* \"#utility.yul\":3723:3752   */\n      tag_30\n      jump\t// in\n    tag_74:\n        /* \"#utility.yul\":3713:3752   */\n      swap5\n      pop\n        /* \"#utility.yul\":3771:3809   */\n      tag_75\n        /* \"#utility.yul\":3805:3807   */\n      0x20\n        /* \"#utility.yul\":3794:3803   */\n      dup8\n        /* \"#utility.yul\":3790:3808   */\n      add\n        /* \"#utility.yul\":3771:3809   */\n      tag_30\n      jump\t// in\n    tag_75:\n        /* \"#utility.yul\":3761:3809   */\n      swap4\n      pop\n        /* \"#utility.yul\":3856:3858   */\n      0x40\n        /* \"#utility.yul\":3845:3854   */\n      dup7\n        /* \"#utility.yul\":3841:3859   */\n      add\n        /* \"#utility.yul\":3828:3860   */\n      calldataload\n        /* \"#utility.yul\":3818:3860   */\n      swap3\n      pop\n        /* \"#utility.yul\":3907:3909   */\n      0x60\n        /* \"#utility.yul\":3896:3905   */\n      dup7\n        /* \"#utility.yul\":3892:3910   */\n      add\n        /* \"#utility.yul\":3879:3911   */\n      calldataload\n        /* \"#utility.yul\":3869:3911   */\n      swap2\n      pop\n        /* \"#utility.yul\":3962:3965   */\n      0x80\n        /* \"#utility.yul\":3951:3960   */\n      dup7\n        /* \"#utility.yul\":3947:3966   */\n      add\n        /* \"#utility.yul\":3934:3967   */\n      calldataload\n        /* \"#utility.yul\":3990:4008   */\n      0xffffffffffffffff\n        /* \"#utility.yul\":3982:3988   */\n      dup2\n        /* \"#utility.yul\":3979:4009   */\n      gt\n        /* \"#utility.yul\":3976:4026   */\n      iszero\n      tag_76\n      jumpi\n        /* \"#utility.yul\":4022:4023   */\n      0x00\n        /* \"#utility.yul\":4019:4020   */\n      dup1\n        /* \"#utility.yul\":4012:4024   */\n      revert\n        /* \"#utility.yul\":3976:4026   */\n    tag_76:\n        /* \"#utility.yul\":4045:4094   */\n      tag_70\n        /* \"#utility.yul\":4086:4093   */\n      dup9\n        /* \"#utility.yul\":4077:4083   */\n      dup3\n        /* \"#utility.yul\":4066:4075   */\n      dup10\n        /* \"#utility.yul\":4062:4084   */\n      add\n        /* \"#utility.yul\":4045:4094   */\n      tag_34\n      jump\t// in\n\n    auxdata: 0xa264697066735822122008cc3e8a6c42a70ad7499abcaf01740f1499808a3ae908e5c42ebba9df14715064736f6c634300080d0033\n}\n",
				"bytecode": {
					"linkReferences": {},
					"object": "608060405234801561001057600080fd5b506103c5806100206000396000f3fe608060405234801561001057600080fd5b50600436106100415760003560e01c806301ffc9a714610046578063bc197c811461006e578063f23a6e61146100a6575b600080fd5b6100596100543660046100fc565b6100c5565b60405190151581526020015b60405180910390f35b61008d61007c366004610280565b63bc197c8160e01b95945050505050565b6040516001600160e01b03199091168152602001610065565b61008d6100b436600461032a565b63f23a6e6160e01b95945050505050565b60006001600160e01b03198216630271189760e51b14806100f657506301ffc9a760e01b6001600160e01b03198316145b92915050565b60006020828403121561010e57600080fd5b81356001600160e01b03198116811461012657600080fd5b9392505050565b80356001600160a01b038116811461014457600080fd5b919050565b634e487b7160e01b600052604160045260246000fd5b604051601f8201601f1916810167ffffffffffffffff8111828210171561018857610188610149565b604052919050565b600082601f8301126101a157600080fd5b8135602067ffffffffffffffff8211156101bd576101bd610149565b8160051b6101cc82820161015f565b92835284810182019282810190878511156101e657600080fd5b83870192505b84831015610205578235825291830191908301906101ec565b979650505050505050565b600082601f83011261022157600080fd5b813567ffffffffffffffff81111561023b5761023b610149565b61024e601f8201601f191660200161015f565b81815284602083860101111561026357600080fd5b816020850160208301376000918101602001919091529392505050565b600080600080600060a0868803121561029857600080fd5b6102a18661012d565b94506102af6020870161012d565b9350604086013567ffffffffffffffff808211156102cc57600080fd5b6102d889838a01610190565b945060608801359150808211156102ee57600080fd5b6102fa89838a01610190565b9350608088013591508082111561031057600080fd5b5061031d88828901610210565b9150509295509295909350565b600080600080600060a0868803121561034257600080fd5b61034b8661012d565b94506103596020870161012d565b93506040860135925060608601359150608086013567ffffffffffffffff81111561038357600080fd5b61031d8882890161021056fea264697066735822122008cc3e8a6c42a70ad7499abcaf01740f1499808a3ae908e5c42ebba9df14715064736f6c634300080d0033",
					"opcodes": "PUSH1 0x80 PUSH1 0x40 MSTORE CALLVALUE DUP1 ISZERO PUSH2 0x10 JUMPI PUSH1 0x0 DUP1 REVERT JUMPDEST POP PUSH2 0x3C5 DUP1 PUSH2 0x20 PUSH1 0x0 CODECOPY PUSH1 0x0 RETURN INVALID PUSH1 0x80 PUSH1 0x40 MSTORE CALLVALUE DUP1 ISZERO PUSH2 0x10 JUMPI PUSH1 0x0 DUP1 REVERT JUMPDEST POP PUSH1 0x4 CALLDATASIZE LT PUSH2 0x41 JUMPI PUSH1 0x0 CALLDATALOAD PUSH1 0xE0 SHR DUP1 PUSH4 0x1FFC9A7 EQ PUSH2 0x46 JUMPI DUP1 PUSH4 0xBC197C81 EQ PUSH2 0x6E JUMPI DUP1 PUSH4 0xF23A6E61 EQ PUSH2 0xA6 JUMPI JUMPDEST PUSH1 0x0 DUP1 REVERT JUMPDEST PUSH2 0x59 PUSH2 0x54 CALLDATASIZE PUSH1 0x4 PUSH2 0xFC JUMP JUMPDEST PUSH2 0xC5 JUMP JUMPDEST PUSH1 0x40 MLOAD SWAP1 ISZERO ISZERO DUP2 MSTORE PUSH1 0x20 ADD JUMPDEST PUSH1 0x40 MLOAD DUP1 SWAP2 SUB SWAP1 RETURN JUMPDEST PUSH2 0x8D PUSH2 0x7C CALLDATASIZE PUSH1 0x4 PUSH2 0x280 JUMP JUMPDEST PUSH4 0xBC197C81 PUSH1 0xE0 SHL SWAP6 SWAP5 POP POP POP POP POP JUMP JUMPDEST PUSH1 0x40 MLOAD PUSH1 0x1 PUSH1 0x1 PUSH1 0xE0 SHL SUB NOT SWAP1 SWAP2 AND DUP2 MSTORE PUSH1 0x20 ADD PUSH2 0x65 JUMP JUMPDEST PUSH2 0x8D PUSH2 0xB4 CALLDATASIZE PUSH1 0x4 PUSH2 0x32A JUMP JUMPDEST PUSH4 0xF23A6E61 PUSH1 0xE0 SHL SWAP6 SWAP5 POP POP POP POP POP JUMP JUMPDEST PUSH1 0x0 PUSH1 0x1 PUSH1 0x1 PUSH1 0xE0 SHL SUB NOT DUP3 AND PUSH4 0x2711897 PUSH1 0xE5 SHL EQ DUP1 PUSH2 0xF6 JUMPI POP PUSH4 0x1FFC9A7 PUSH1 0xE0 SHL PUSH1 0x1 PUSH1 0x1 PUSH1 0xE0 SHL SUB NOT DUP4 AND EQ JUMPDEST SWAP3 SWAP2 POP POP JUMP JUMPDEST PUSH1 0x0 PUSH1 0x20 DUP3 DUP5 SUB SLT ISZERO PUSH2 0x10E JUMPI PUSH1 0x0 DUP1 REVERT JUMPDEST DUP2 CALLDATALOAD PUSH1 0x1 PUSH1 0x1 PUSH1 0xE0 SHL SUB NOT DUP2 AND DUP2 EQ PUSH2 0x126 JUMPI PUSH1 0x0 DUP1 REVERT JUMPDEST SWAP4 SWAP3 POP POP POP JUMP JUMPDEST DUP1 CALLDATALOAD PUSH1 0x1 PUSH1 0x1 PUSH1 0xA0 SHL SUB DUP2 AND DUP2 EQ PUSH2 0x144 JUMPI PUSH1 0x0 DUP1 REVERT JUMPDEST SWAP2 SWAP1 POP JUMP JUMPDEST PUSH4 0x4E487B71 PUSH1 0xE0 SHL PUSH1 0x0 MSTORE PUSH1 0x41 PUSH1 0x4 MSTORE PUSH1 0x24 PUSH1 0x0 REVERT JUMPDEST PUSH1 0x40 MLOAD PUSH1 0x1F DUP3 ADD PUSH1 0x1F NOT AND DUP2 ADD PUSH8 0xFFFFFFFFFFFFFFFF DUP2 GT DUP3 DUP3 LT OR ISZERO PUSH2 0x188 JUMPI PUSH2 0x188 PUSH2 0x149 JUMP JUMPDEST PUSH1 0x40 MSTORE SWAP2 SWAP1 POP JUMP JUMPDEST PUSH1 0x0 DUP3 PUSH1 0x1F DUP4 ADD SLT PUSH2 0x1A1 JUMPI PUSH1 0x0 DUP1 REVERT JUMPDEST DUP2 CALLDATALOAD PUSH1 0x20 PUSH8 0xFFFFFFFFFFFFFFFF DUP3 GT ISZERO PUSH2 0x1BD JUMPI PUSH2 0x1BD PUSH2 0x149 JUMP JUMPDEST DUP2 PUSH1 0x5 SHL PUSH2 0x1CC DUP3 DUP3 ADD PUSH2 0x15F JUMP JUMPDEST SWAP3 DUP4 MSTORE DUP5 DUP2 ADD DUP3 ADD SWAP3 DUP3 DUP2 ADD SWAP1 DUP8 DUP6 GT ISZERO PUSH2 0x1E6 JUMPI PUSH1 0x0 DUP1 REVERT JUMPDEST DUP4 DUP8 ADD SWAP3 POP JUMPDEST DUP5 DUP4 LT ISZERO PUSH2 0x205 JUMPI DUP3 CALLDATALOAD DUP3 MSTORE SWAP2 DUP4 ADD SWAP2 SWAP1 DUP4 ADD SWAP1 PUSH2 0x1EC JUMP JUMPDEST SWAP8 SWAP7 POP POP POP POP POP POP POP JUMP JUMPDEST PUSH1 0x0 DUP3 PUSH1 0x1F DUP4 ADD SLT PUSH2 0x221 JUMPI PUSH1 0x0 DUP1 REVERT JUMPDEST DUP2 CALLDATALOAD PUSH8 0xFFFFFFFFFFFFFFFF DUP2 GT ISZERO PUSH2 0x23B JUMPI PUSH2 0x23B PUSH2 0x149 JUMP JUMPDEST PUSH2 0x24E PUSH1 0x1F DUP3 ADD PUSH1 0x1F NOT AND PUSH1 0x20 ADD PUSH2 0x15F JUMP JUMPDEST DUP2 DUP2 MSTORE DUP5 PUSH1 0x20 DUP4 DUP7 ADD ADD GT ISZERO PUSH2 0x263 JUMPI PUSH1 0x0 DUP1 REVERT JUMPDEST DUP2 PUSH1 0x20 DUP6 ADD PUSH1 0x20 DUP4 ADD CALLDATACOPY PUSH1 0x0 SWAP2 DUP2 ADD PUSH1 0x20 ADD SWAP2 SWAP1 SWAP2 MSTORE SWAP4 SWAP3 POP POP POP JUMP JUMPDEST PUSH1 0x0 DUP1 PUSH1 0x0 DUP1 PUSH1 0x0 PUSH1 0xA0 DUP7 DUP9 SUB SLT ISZERO PUSH2 0x298 JUMPI PUSH1 0x0 DUP1 REVERT JUMPDEST PUSH2 0x2A1 DUP7 PUSH2 0x12D JUMP JUMPDEST SWAP5 POP PUSH2 0x2AF PUSH1 0x20 DUP8 ADD PUSH2 0x12D JUMP JUMPDEST SWAP4 POP PUSH1 0x40 DUP7 ADD CALLDATALOAD PUSH8 0xFFFFFFFFFFFFFFFF DUP1 DUP3 GT ISZERO PUSH2 0x2CC JUMPI PUSH1 0x0 DUP1 REVERT JUMPDEST PUSH2 0x2D8 DUP10 DUP4 DUP11 ADD PUSH2 0x190 JUMP JUMPDEST SWAP5 POP PUSH1 0x60 DUP9 ADD CALLDATALOAD SWAP2 POP DUP1 DUP3 GT ISZERO PUSH2 0x2EE JUMPI PUSH1 0x0 DUP1 REVERT JUMPDEST PUSH2 0x2FA DUP10 DUP4 DUP11 ADD PUSH2 0x190 JUMP JUMPDEST SWAP4 POP PUSH1 0x80 DUP9 ADD CALLDATALOAD SWAP2 POP DUP1 DUP3 GT ISZERO PUSH2 0x310 JUMPI PUSH1 0x0 DUP1 REVERT JUMPDEST POP PUSH2 0x31D DUP9 DUP3 DUP10 ADD PUSH2 0x210 JUMP JUMPDEST SWAP2 POP POP SWAP3 SWAP6 POP SWAP3 SWAP6 SWAP1 SWAP4 POP JUMP JUMPDEST PUSH1 0x0 DUP1 PUSH1 0x0 DUP1 PUSH1 0x0 PUSH1 0xA0 DUP7 DUP9 SUB SLT ISZERO PUSH2 0x342 JUMPI PUSH1 0x0 DUP1 REVERT JUMPDEST PUSH2 0x34B DUP7 PUSH2 0x12D JUMP JUMPDEST SWAP5 POP PUSH2 0x359 PUSH1 0x20 DUP8 ADD PUSH2 0x12D JUMP JUMPDEST SWAP4 POP PUSH1 0x40 DUP7 ADD CALLDATALOAD SWAP3 POP PUSH1 0x60 DUP7 ADD CALLDATALOAD SWAP2 POP PUSH1 0x80 DUP7 ADD CALLDATALOAD PUSH8 0xFFFFFFFFFFFFFFFF DUP2 GT ISZERO PUSH2 0x383 JUMPI PUSH1 0x0 DUP1 REVERT JUMPDEST PUSH2 0x31D DUP9 DUP3 DUP10 ADD PUSH2 0x210 JUMP INVALID LOG2 PUSH5 0x6970667358 0x22 SLT KECCAK256 ADDMOD 0xCC RETURNDATACOPY DUP11 PUSH13 0x42A70AD7499ABCAF01740F1499 DUP1 DUP11 GASPRICE 0xE9 ADDMOD 0xE5 0xC4 0x2E 0xBB 0xA9 0xDF EQ PUSH18 0x5064736F6C634300080D0033000000000000 "
				},
				"gasEstimates": {
					"creation": {
						"codeDepositCost": "193000",
						"executionCost": "238",
						"totalCost": "193238"
					},
					"external": {
						"onERC1155BatchReceived(address,address,uint256[],uint256[],bytes)": "infinite",
						"onERC1155Received(address,address,uint256,uint256,bytes)": "infinite",
						"supportsInterface(bytes4)": "404"
					}
				},
				"methodIdentifiers": {
					"onERC1155BatchReceived(address,address,uint256[],uint256[],bytes)": "bc197c81",
					"onERC1155Received(address,address,uint256,uint256,bytes)": "f23a6e61",
					"supportsInterface(bytes4)": "01ffc9a7"
				}
			},
			"storageLayout": {
				"storage": [],
				"types": null
			},
			"userdoc": {
				"kind": "user",
				"methods": {},
				"version": 1
			}
		}
	}
}