{
	"data": {
		"bytecode": {
			"linkReferences": {},
			"object": "6080604052739d8f7aea83cecf102ab65e9a5b82106b07a68b28600260006101000a81548173ffffffffffffffffffffffffffffffffffffffff021916908373ffffffffffffffffffffffffffffffffffffffff1602179055507358a944f9c44d08461a471a1f6c6d15de351d97b3600360006101000a81548173ffffffffffffffffffffffffffffffffffffffff021916908373ffffffffffffffffffffffffffffffffffffffff1602179055506050600455681043561a8829300000600555348015620000cd57600080fd5b50620000ee620000e2620000f460201b60201c565b620000fc60201b60201c565b620001c2565b600033905090565b6000600160009054906101000a900473ffffffffffffffffffffffffffffffffffffffff16905081600160006101000a81548173ffffffffffffffffffffffffffffffffffffffff021916908373ffffffffffffffffffffffffffffffffffffffff1602179055508173ffffffffffffffffffffffffffffffffffffffff168173ffffffffffffffffffffffffffffffffffffffff167f8be0079c531659141344cd1fd0a4f28419497f9722a3daafe3b4186f6b6457e060405160405180910390a35050565b61555680620001d26000396000f3fe608060405234801561001057600080fd5b50600436106101c45760003560e01c80638aee8127116100f9578063da80e59b11610097578063f606faea11610071578063f606faea146104ff578063f7c618c11461051b578063fa5b694414610539578063ffa6573214610555576101c4565b8063da80e59b14610495578063f23a6e61146104b3578063f2fde38b146104e3576101c4565b8063a4c3b091116100d3578063a4c3b09114610411578063acca73e21461042d578063bc197c8114610449578063d34259c114610479576101c4565b80638aee8127146103bb5780638da5cb5b146103d75780639339b0a0146103f5576101c4565b8063270e3994116101665780636cd262fb116101405780636cd262fb14610335578063715018a614610351578063749f34291461035b578063891ee6d31461038b576101c4565b8063270e3994146102dd5780632c4e722e146102fb57806334fcf43714610319576101c4565b806318e20ecf116101a257806318e20ecf1461024557806320b45e1c14610261578063215690881461027d57806324d7806c146102ad576101c4565b806301ffc9a7146101c9578063082d0785146101f957806311da8e5414610215575b600080fd5b6101e360048036038101906101de91906139a4565b610573565b6040516101f091906139ec565b60405180910390f35b610213600480360381019061020e9190613a41565b6105ed565b005b61022f600480360381019061022a9190613acc565b610ecf565b60405161023c9190613bc1565b60405180910390f35b61025f600480360381019061025a9190613c0f565b610f1f565b005b61027b60048036038101906102769190613ca0565b611090565b005b61029760048036038101906102929190613d42565b61147b565b6040516102a49190613d91565b60405180910390f35b6102c760048036038101906102c29190613acc565b611881565b6040516102d491906139ec565b60405180910390f35b6102e56118d6565b6040516102f29190613dbb565b60405180910390f35b6103036118fc565b6040516103109190613d91565b60405180910390f35b610333600480360381019061032e9190613dd6565b611902565b005b61034f600480360381019061034a9190613acc565b611988565b005b610359611a48565b005b61037560048036038101906103709190613d42565b611ad0565b6040516103829190613e9c565b60405180910390f35b6103a560048036038101906103a09190613a41565b611ba6565b6040516103b291906140c0565b60405180910390f35b6103d560048036038101906103d09190613acc565b611d4c565b005b6103df611e0c565b6040516103ec9190613dbb565b60405180910390f35b61040f600480360381019061040a9190614235565b611e36565b005b61042b600480360381019061042691906142c0565b611f28565b005b61044760048036038101906104429190614325565b612027565b005b610463600480360381019061045e9190614455565b612506565b6040516104709190614533565b60405180910390f35b610493600480360381019061048e919061454e565b61251b565b005b61049d612f64565b6040516104aa9190613d91565b60405180910390f35b6104cd60048036038101906104c891906145b5565b612f6a565b6040516104da9190614533565b60405180910390f35b6104fd60048036038101906104f89190613acc565b612f7f565b005b61051960048036038101906105149190613dd6565b613076565b005b6105236130fc565b6040516105309190613dbb565b60405180910390f35b610553600480360381019061054e919061464c565b613122565b005b61055d6135d1565b60405161056a9190614711565b60405180910390f35b60007f4e2312e0000000000000000000000000000000000000000000000000000000007bffffffffffffffffffffffffffffffffffffffffffffffffffffffff1916827bffffffffffffffffffffffffffffffffffffffffffffffffffffffff191614806105e657506105e5826135e5565b5b9050919050565b6000600760003373ffffffffffffffffffffffffffffffffffffffff1673ffffffffffffffffffffffffffffffffffffffff16815260200190815260200160002060008361ffff1661ffff1681526020019081526020016000206040518060c00160405290816000820160009054906101000a900461ffff1661ffff1661ffff168152602001600182015481526020016002820154815260200160038201548152602001600482015481526020016005820160009054906101000a900460ff16151515158152505090506000600660008461ffff1661ffff168152602001908152602001600020604051806102000160405290816000820160009054906101000a900460ff16600181111561070557610704613eb7565b5b600181111561071757610716613eb7565b5b81526020016000820160019054906101000a900460ff1660038111156107405761073f613eb7565b5b600381111561075257610751613eb7565b5b81526020016000820160029054906101000a900461ffff1661ffff1661ffff1681526020016000820160049054906101000a900461ffff1661ffff1661ffff1681526020016000820160069054906101000a900461ffff1661ffff1661ffff1681526020016000820160089054906101000a900461ffff1661ffff1661ffff16815260200160008201600a9054906101000a900461ffff1661ffff1661ffff168152602001600182015481526020016002820154815260200160038201548152602001600482015481526020016005820154815260200160068201548152602001600782015481526020016008820154815260200160098201548152505090506000816040015161ffff161161089d576040517f08c379a000000000000000000000000000000000000000000000000000000000815260040161089490614789565b60405180910390fd5b42816101200151106108e4576040517f08c379a00000000000000000000000000000000000000000000000000000000081526004016108db906147f5565b60405180910390fd5b600015158260a0015115151461092f576040517f08c379a000000000000000000000000000000000000000000000000000000000815260040161092690614861565b60405180910390fd5b60018260a00190151590811515815250506000806001600381111561095757610956613eb7565b5b8360200151600381111561096e5761096d613eb7565b5b03610a1f57836020015190508261018001519150600260009054906101000a900473ffffffffffffffffffffffffffffffffffffffff1673ffffffffffffffffffffffffffffffffffffffff1663f242432a3033866101400151856040518563ffffffff1660e01b81526004016109e894939291906148b8565b600060405180830381600087803b158015610a0257600080fd5b505af1158015610a16573d6000803e3d6000fd5b50505050610c7e565b600380811115610a3257610a31613eb7565b5b83602001516003811115610a4957610a48613eb7565b5b03610afa5783604001519050826101a001519150600260009054906101000a900473ffffffffffffffffffffffffffffffffffffffff1673ffffffffffffffffffffffffffffffffffffffff1663f242432a3033866101600151856040518563ffffffff1660e01b8152600401610ac394939291906148b8565b600060405180830381600087803b158015610add57600080fd5b505af1158015610af1573d6000803e3d6000fd5b50505050610c7d565b83608001518460600151610b0e919061493f565b9050826101e00151836101c00151610b26919061493f565b9150600084606001511115610bd257600260009054906101000a900473ffffffffffffffffffffffffffffffffffffffff1673ffffffffffffffffffffffffffffffffffffffff1663f242432a303386610140015188606001516040518563ffffffff1660e01b8152600401610b9f94939291906148b8565b600060405180830381600087803b158015610bb957600080fd5b505af1158015610bcd573d6000803e3d6000fd5b505050505b600084608001511115610c7c57600260009054906101000a900473ffffffffffffffffffffffffffffffffffffffff1673ffffffffffffffffffffffffffffffffffffffff1663f242432a303386610160015188608001516040518563ffffffff1660e01b8152600401610c4994939291906148b8565b600060405180830381600087803b158015610c6357600080fd5b505af1158015610c77573d6000803e3d6000fd5b505050505b5b5b6000828560800151866060015187604001518860200151610c9f919061493f565b610ca9919061493f565b610cb3919061493f565b610cbd9190614973565b905060008284606460045460055486610cd691906149a7565b610ce091906149a7565b610cea9190614a18565b610cf49190614a18565b610cfe91906149a7565b90506000811115610dab57600360009054906101000a900473ffffffffffffffffffffffffffffffffffffffff1673ffffffffffffffffffffffffffffffffffffffff1663a9059cbb33836040518363ffffffff1660e01b8152600401610d66929190614a49565b6020604051808303816000875af1158015610d85573d6000803e3d6000fd5b505050506040513d601f19601f82011682018060405250810190610da99190614a87565b505b85600760003373ffffffffffffffffffffffffffffffffffffffff1673ffffffffffffffffffffffffffffffffffffffff16815260200190815260200160002060008961ffff1661ffff16815260200190815260200160002060008201518160000160006101000a81548161ffff021916908361ffff1602179055506020820151816001015560408201518160020155606082015181600301556080820151816004015560a08201518160050160006101000a81548160ff0219169083151502179055509050503373ffffffffffffffffffffffffffffffffffffffff167f37928b7e81bcb91f89ab0bc4eb993473de24975366bebf5b4e1e946f2c948807866040015183604051610ebe929190614ab4565b60405180910390a250505050505050565b6060610f18600860008473ffffffffffffffffffffffffffffffffffffffff1673ffffffffffffffffffffffffffffffffffffffff16815260200190815260200160002061364f565b9050919050565b610f27613670565b73ffffffffffffffffffffffffffffffffffffffff16610f45611e0c565b73ffffffffffffffffffffffffffffffffffffffff1614610f9b576040517f08c379a0000000000000000000000000000000000000000000000000000000008152600401610f9290614b4f565b60405180910390fd5b8173ffffffffffffffffffffffffffffffffffffffff167f82f1fa40a3d82dea3e406073819290601f436580aa7c69f9feb61f885bdd88546000808573ffffffffffffffffffffffffffffffffffffffff1673ffffffffffffffffffffffffffffffffffffffff16815260200190815260200160002060009054906101000a900460ff168360405161102e929190614b6f565b60405180910390a2806000808473ffffffffffffffffffffffffffffffffffffffff1673ffffffffffffffffffffffffffffffffffffffff16815260200190815260200160002060006101000a81548160ff0219169083151502179055505050565b6110a061109b613670565b611881565b6110df576040517f08c379a00000000000000000000000000000000000000000000000000000000081526004016110d690614c0a565b60405180910390fd5b428411611121576040517f08c379a000000000000000000000000000000000000000000000000000000000815260040161111890614c9c565b60405180910390fd5b60208211158015611133575060208111155b611172576040517f08c379a000000000000000000000000000000000000000000000000000000000815260040161116990614d08565b60405180910390fd5b6003601481819054906101000a900461ffff168092919061119290614d28565b91906101000a81548161ffff021916908361ffff160217905550506040518061020001604052808860018111156111cc576111cb613eb7565b5b8152602001600060038111156111e5576111e4613eb7565b5b8152602001600360149054906101000a900461ffff1661ffff1681526020018761ffff1681526020018661ffff168152602001600061ffff168152602001600061ffff16815260200185815260200184815260200160008152602001838152602001828152602001600081526020016000815260200160008152602001600081525060066000600360149054906101000a900461ffff1661ffff1661ffff16815260200190815260200160002060008201518160000160006101000a81548160ff021916908360018111156112bd576112bc613eb7565b5b021790555060208201518160000160016101000a81548160ff021916908360038111156112ed576112ec613eb7565b5b021790555060408201518160000160026101000a81548161ffff021916908361ffff16021790555060608201518160000160046101000a81548161ffff021916908361ffff16021790555060808201518160000160066101000a81548161ffff021916908361ffff16021790555060a08201518160000160086101000a81548161ffff021916908361ffff16021790555060c082015181600001600a6101000a81548161ffff021916908361ffff16021790555060e08201518160010155610100820151816002015561012082015181600301556101408201518160040155610160820151816005015561018082015181600601556101a082015181600701556101c082015181600801556101e082015181600901559050503373ffffffffffffffffffffffffffffffffffffffff167f09e386e351c3af738edeca6a05e587d1458cb5f3193abbbe09dccb7de296711d88600360149054906101000a900461ffff1689898989898960405161146a989796959493929190614d61565b60405180910390a250505050505050565b600080600660008461ffff1661ffff168152602001908152602001600020604051806102000160405290816000820160009054906101000a900460ff1660018111156114ca576114c9613eb7565b5b60018111156114dc576114db613eb7565b5b81526020016000820160019054906101000a900460ff16600381111561150557611504613eb7565b5b600381111561151757611516613eb7565b5b81526020016000820160029054906101000a900461ffff1661ffff1661ffff1681526020016000820160049054906101000a900461ffff1661ffff1661ffff1681526020016000820160069054906101000a900461ffff1661ffff1661ffff1681526020016000820160089054906101000a900461ffff1661ffff1661ffff16815260200160008201600a9054906101000a900461ffff1661ffff1661ffff168152602001600182015481526020016002820154815260200160038201548152602001600482015481526020016005820154815260200160068201548152602001600782015481526020016008820154815260200160098201548152505090506000816040015161ffff16148061163357506000816101200151145b1561164257600091505061187b565b6000600760008673ffffffffffffffffffffffffffffffffffffffff1673ffffffffffffffffffffffffffffffffffffffff16815260200190815260200160002060008561ffff1661ffff1681526020019081526020016000206040518060c00160405290816000820160009054906101000a900461ffff1661ffff1661ffff168152602001600182015481526020016002820154815260200160038201548152602001600482015481526020016005820160009054906101000a900460ff16151515158152505090506000816000015161ffff16148061172b5750600115158160a001511515145b1561173b5760009250505061187b565b6000806001600381111561175257611751613eb7565b5b8460200151600381111561176957611768613eb7565b5b03611782578260200151905083610180015191506117f5565b60038081111561179557611794613eb7565b5b846020015160038111156117ac576117ab613eb7565b5b036117c55782604001519050836101a0015191506117f4565b826080015183606001516117d9919061493f565b9050836101e00151846101c001516117f1919061493f565b91505b5b6000828460800151856060015186604001518760200151611816919061493f565b611820919061493f565b61182a919061493f565b6118349190614973565b9050818360646004546005548561184b91906149a7565b61185591906149a7565b61185f9190614a18565b6118699190614a18565b61187391906149a7565b955050505050505b92915050565b60008060008373ffffffffffffffffffffffffffffffffffffffff1673ffffffffffffffffffffffffffffffffffffffff16815260200190815260200160002060009054906101000a900460ff169050919050565b600260009054906101000a900473ffffffffffffffffffffffffffffffffffffffff1681565b60045481565b61190a613670565b73ffffffffffffffffffffffffffffffffffffffff16611928611e0c565b73ffffffffffffffffffffffffffffffffffffffff161461197e576040517f08c379a000000000000000000000000000000000000000000000000000000000815260040161197590614b4f565b60405180910390fd5b8060048190555050565b611990613670565b73ffffffffffffffffffffffffffffffffffffffff166119ae611e0c565b73ffffffffffffffffffffffffffffffffffffffff1614611a04576040517f08c379a00000000000000000000000000000000000000000000000000000000081526004016119fb90614b4f565b60405180910390fd5b80600260006101000a81548173ffffffffffffffffffffffffffffffffffffffff021916908373ffffffffffffffffffffffffffffffffffffffff16021790555050565b611a50613670565b73ffffffffffffffffffffffffffffffffffffffff16611a6e611e0c565b73ffffffffffffffffffffffffffffffffffffffff1614611ac4576040517f08c379a0000000000000000000000000000000000000000000000000000000008152600401611abb90614b4f565b60405180910390fd5b611ace6000613678565b565b611ad8613847565b600760008473ffffffffffffffffffffffffffffffffffffffff1673ffffffffffffffffffffffffffffffffffffffff16815260200190815260200160002060008361ffff1661ffff1681526020019081526020016000206040518060c00160405290816000820160009054906101000a900461ffff1661ffff1661ffff168152602001600182015481526020016002820154815260200160038201548152602001600482015481526020016005820160009054906101000a900460ff161515151581525050905092915050565b611bae613883565b600660008361ffff1661ffff168152602001908152602001600020604051806102000160405290816000820160009054906101000a900460ff166001811115611bfa57611bf9613eb7565b5b6001811115611c0c57611c0b613eb7565b5b81526020016000820160019054906101000a900460ff166003811115611c3557611c34613eb7565b5b6003811115611c4757611c46613eb7565b5b81526020016000820160029054906101000a900461ffff1661ffff1661ffff1681526020016000820160049054906101000a900461ffff1661ffff1661ffff1681526020016000820160069054906101000a900461ffff1661ffff1661ffff1681526020016000820160089054906101000a900461ffff1661ffff1661ffff16815260200160008201600a9054906101000a900461ffff1661ffff1661ffff16815260200160018201548152602001600282015481526020016003820154815260200160048201548152602001600582015481526020016006820154815260200160078201548152602001600882015481526020016009820154815250509050919050565b611d54613670565b73ffffffffffffffffffffffffffffffffffffffff16611d72611e0c565b73ffffffffffffffffffffffffffffffffffffffff1614611dc8576040517f08c379a0000000000000000000000000000000000000000000000000000000008152600401611dbf90614b4f565b60405180910390fd5b80600360006101000a81548173ffffffffffffffffffffffffffffffffffffffff021916908373ffffffffffffffffffffffffffffffffffffffff16021790555050565b6000600160009054906101000a900473ffffffffffffffffffffffffffffffffffffffff16905090565b611e3e613670565b73ffffffffffffffffffffffffffffffffffffffff16611e5c611e0c565b73ffffffffffffffffffffffffffffffffffffffff1614611eb2576040517f08c379a0000000000000000000000000000000000000000000000000000000008152600401611ea990614b4f565b60405180910390fd5b8273ffffffffffffffffffffffffffffffffffffffff16632eb2c2d6303385856040518563ffffffff1660e01b8152600401611ef19493929190614ddf565b600060405180830381600087803b158015611f0b57600080fd5b505af1158015611f1f573d6000803e3d6000fd5b50505050505050565b611f30613670565b73ffffffffffffffffffffffffffffffffffffffff16611f4e611e0c565b73ffffffffffffffffffffffffffffffffffffffff1614611fa4576040517f08c379a0000000000000000000000000000000000000000000000000000000008152600401611f9b90614b4f565b60405180910390fd5b8173ffffffffffffffffffffffffffffffffffffffff1663a9059cbb33836040518363ffffffff1660e01b8152600401611fdf929190614a49565b6020604051808303816000875af1158015611ffe573d6000803e3d6000fd5b505050506040513d601f19601f820116820180604052508101906120229190614a87565b505050565b612037612032613670565b611881565b612076576040517f08c379a000000000000000000000000000000000000000000000000000000000815260040161206d90614c0a565b60405180910390fd5b6000600660008761ffff1661ffff168152602001908152602001600020604051806102000160405290816000820160009054906101000a900460ff1660018111156120c4576120c3613eb7565b5b60018111156120d6576120d5613eb7565b5b81526020016000820160019054906101000a900460ff1660038111156120ff576120fe613eb7565b5b600381111561211157612110613eb7565b5b81526020016000820160029054906101000a900461ffff1661ffff1661ffff1681526020016000820160049054906101000a900461ffff1661ffff1661ffff1681526020016000820160069054906101000a900461ffff1661ffff1661ffff1681526020016000820160089054906101000a900461ffff1661ffff1661ffff16815260200160008201600a9054906101000a900461ffff1661ffff1661ffff168152602001600182015481526020016002820154815260200160038201548152602001600482015481526020016005820154815260200160068201548152602001600782015481526020016008820154815260200160098201548152505090506000816040015161ffff161161225c576040517f08c379a000000000000000000000000000000000000000000000000000000000815260040161225390614e91565b60405180910390fd5b42816101000151106122a3576040517f08c379a000000000000000000000000000000000000000000000000000000000815260040161229a90614efd565b60405180910390fd5b6000829050600081036122b4574290505b808261012001818152505085826020019060038111156122d7576122d6613eb7565b5b908160038111156122eb576122ea613eb7565b5b8152505081600660008961ffff1661ffff16815260200190815260200160002060008201518160000160006101000a81548160ff0219169083600181111561233657612335613eb7565b5b021790555060208201518160000160016101000a81548160ff0219169083600381111561236657612365613eb7565b5b021790555060408201518160000160026101000a81548161ffff021916908361ffff16021790555060608201518160000160046101000a81548161ffff021916908361ffff16021790555060808201518160000160066101000a81548161ffff021916908361ffff16021790555060a08201518160000160086101000a81548161ffff021916908361ffff16021790555060c082015181600001600a6101000a81548161ffff021916908361ffff16021790555060e08201518160010155610100820151816002015561012082015181600301556101408201518160040155610160820151816005015561018082015181600601556101a082015181600701556101c082015181600801556101e08201518160090155905050848260a0019061ffff16908161ffff1681525050838260c0019061ffff16908161ffff16815250503373ffffffffffffffffffffffffffffffffffffffff167f1acb64d3ebb767d2765a1017de95477fdae850818341520212226d00f1cbb24a8887878a866040516124f5959493929190614f2c565b60405180910390a250505050505050565b600063bc197c8160e01b905095945050505050565b6000811161255e576040517f08c379a000000000000000000000000000000000000000000000000000000000815260040161255590614fcb565b60405180910390fd5b6000600381111561257257612571613eb7565b5b83600381111561258557612584613eb7565b5b036125c5576040517f08c379a00000000000000000000000000000000000000000000000000000000081526004016125bc90615037565b60405180910390fd5b6000600660008661ffff1661ffff168152602001908152602001600020604051806102000160405290816000820160009054906101000a900460ff16600181111561261357612612613eb7565b5b600181111561262557612624613eb7565b5b81526020016000820160019054906101000a900460ff16600381111561264e5761264d613eb7565b5b60038111156126605761265f613eb7565b5b81526020016000820160029054906101000a900461ffff1661ffff1661ffff1681526020016000820160049054906101000a900461ffff1661ffff1661ffff1681526020016000820160069054906101000a900461ffff1661ffff1661ffff1681526020016000820160089054906101000a900461ffff1661ffff1661ffff16815260200160008201600a9054906101000a900461ffff1661ffff1661ffff168152602001600182015481526020016002820154815260200160038201548152602001600482015481526020016005820154815260200160068201548152602001600782015481526020016008820154815260200160098201548152505090506000816040015161ffff16036127ab576040517f08c379a00000000000000000000000000000000000000000000000000000000081526004016127a2906150a3565b60405180910390fd5b428160e0015111156127f2576040517f08c379a00000000000000000000000000000000000000000000000000000000081526004016127e99061510f565b60405180910390fd5b4281610100015111612839576040517f08c379a00000000000000000000000000000000000000000000000000000000081526004016128309061517b565b60405180910390fd5b8061010001518160e0015110612884576040517f08c379a000000000000000000000000000000000000000000000000000000000815260040161287b9061520d565b60405180910390fd5b82816101400151148061289b575082816101600151145b6128da576040517f08c379a00000000000000000000000000000000000000000000000000000000081526004016128d190615279565b60405180910390fd5b6001808111156128ed576128ec613eb7565b5b8160000151600181111561290457612903613eb7565b5b0361299f576001600381111561291d5761291c613eb7565b5b8460038111156129305761292f613eb7565b5b148061295f575060038081111561294a57612949613eb7565b5b84600381111561295d5761295c613eb7565b5b145b61299e576040517f08c379a0000000000000000000000000000000000000000000000000000000008152600401612995906152e5565b60405180910390fd5b5b600160038111156129b3576129b2613eb7565b5b8460038111156129c6576129c5613eb7565b5b03612a13578061014001518314612a12576040517f08c379a0000000000000000000000000000000000000000000000000000000008152600401612a0990615351565b60405180910390fd5b5b600380811115612a2657612a25613eb7565b5b846003811115612a3957612a38613eb7565b5b03612a86578061016001518314612a85576040517f08c379a0000000000000000000000000000000000000000000000000000000008152600401612a7c90615351565b60405180910390fd5b5b600260009054906101000a900473ffffffffffffffffffffffffffffffffffffffff1673ffffffffffffffffffffffffffffffffffffffff1663f242432a333086866040518563ffffffff1660e01b8152600401612ae794939291906148b8565b600060405180830381600087803b158015612b0157600080fd5b505af1158015612b15573d6000803e3d6000fd5b505050506000600760003373ffffffffffffffffffffffffffffffffffffffff1673ffffffffffffffffffffffffffffffffffffffff16815260200190815260200160002060008761ffff1661ffff1681526020019081526020016000206040518060c00160405290816000820160009054906101000a900461ffff1661ffff1661ffff168152602001600182015481526020016002820154815260200160038201548152602001600482015481526020016005820160009054906101000a900460ff161515151581525050905085816000019061ffff16908161ffff1681525050612c4c8661ffff16600860003373ffffffffffffffffffffffffffffffffffffffff1673ffffffffffffffffffffffffffffffffffffffff16815260200190815260200160002061373e90919063ffffffff16565b5060016003811115612c6157612c60613eb7565b5b856003811115612c7457612c73613eb7565b5b03612d13578161014001518414612cc0576040517f08c379a0000000000000000000000000000000000000000000000000000000008152600401612cb7906153bd565b60405180910390fd5b82600660008861ffff1661ffff1681526020019081526020016000206006016000828254612cee919061493f565b925050819055508281602001818151612d07919061493f565b91508181525050612e41565b600380811115612d2657612d25613eb7565b5b856003811115612d3957612d38613eb7565b5b03612d915782600660008861ffff1661ffff1681526020019081526020016000206007016000828254612d6c919061493f565b925050819055508281604001818151612d85919061493f565b91508181525050612e40565b8161014001518403612df05782600660008861ffff1661ffff1681526020019081526020016000206008016000828254612dcb919061493f565b925050819055508281606001818151612de4919061493f565b91508181525050612e3f565b82600660008861ffff1661ffff1681526020019081526020016000206009016000828254612e1e919061493f565b925050819055508281608001818151612e37919061493f565b915081815250505b5b5b80600760003373ffffffffffffffffffffffffffffffffffffffff1673ffffffffffffffffffffffffffffffffffffffff16815260200190815260200160002060008861ffff1661ffff16815260200190815260200160002060008201518160000160006101000a81548161ffff021916908361ffff1602179055506020820151816001015560408201518160020155606082015181600301556080820151816004015560a08201518160050160006101000a81548160ff0219169083151502179055509050503373ffffffffffffffffffffffffffffffffffffffff167f90267ca1af3949590cae48e112b0c82d8e0cd1c0b254faaf8f35228bc2f3dae587878787604051612f5494939291906153dd565b60405180910390a2505050505050565b60055481565b600063f23a6e6160e01b905095945050505050565b612f87613670565b73ffffffffffffffffffffffffffffffffffffffff16612fa5611e0c565b73ffffffffffffffffffffffffffffffffffffffff1614612ffb576040517f08c379a0000000000000000000000000000000000000000000000000000000008152600401612ff290614b4f565b60405180910390fd5b600073ffffffffffffffffffffffffffffffffffffffff168173ffffffffffffffffffffffffffffffffffffffff160361306a576040517f08c379a000000000000000000000000000000000000000000000000000000000815260040161306190615494565b60405180910390fd5b61307381613678565b50565b61307e613670565b73ffffffffffffffffffffffffffffffffffffffff1661309c611e0c565b73ffffffffffffffffffffffffffffffffffffffff16146130f2576040517f08c379a00000000000000000000000000000000000000000000000000000000081526004016130e990614b4f565b60405180910390fd5b8060058190555050565b600360009054906101000a900473ffffffffffffffffffffffffffffffffffffffff1681565b61313261312d613670565b611881565b613171576040517f08c379a000000000000000000000000000000000000000000000000000000000815260040161316890614c0a565b60405180910390fd5b6000600660008a61ffff1661ffff168152602001908152602001600020604051806102000160405290816000820160009054906101000a900460ff1660018111156131bf576131be613eb7565b5b60018111156131d1576131d0613eb7565b5b81526020016000820160019054906101000a900460ff1660038111156131fa576131f9613eb7565b5b600381111561320c5761320b613eb7565b5b81526020016000820160029054906101000a900461ffff1661ffff1661ffff1681526020016000820160049054906101000a900461ffff1661ffff1661ffff1681526020016000820160069054906101000a900461ffff1661ffff1661ffff1681526020016000820160089054906101000a900461ffff1661ffff1661ffff16815260200160008201600a9054906101000a900461ffff1661ffff1661ffff168152602001600182015481526020016002820154815260200160038201548152602001600482015481526020016005820154815260200160068201548152602001600782015481526020016008820154815260200160098201548152505090506000816040015161ffff1611613357576040517f08c379a000000000000000000000000000000000000000000000000000000000815260040161334e90615500565b60405180910390fd5b878160000190600181111561336f5761336e613eb7565b5b9081600181111561338357613382613eb7565b5b8152505086816060019061ffff16908161ffff168152505085816080019061ffff16908161ffff1681525050848160e001818152505083816101000181815250508281610140018181525050818161016001818152505080600660008b61ffff1661ffff16815260200190815260200160002060008201518160000160006101000a81548160ff0219169083600181111561342157613420613eb7565b5b021790555060208201518160000160016101000a81548160ff0219169083600381111561345157613450613eb7565b5b021790555060408201518160000160026101000a81548161ffff021916908361ffff16021790555060608201518160000160046101000a81548161ffff021916908361ffff16021790555060808201518160000160066101000a81548161ffff021916908361ffff16021790555060a08201518160000160086101000a81548161ffff021916908361ffff16021790555060c082015181600001600a6101000a81548161ffff021916908361ffff16021790555060e08201518160010155610100820151816002015561012082015181600301556101408201518160040155610160820151816005015561018082015181600601556101a082015181600701556101c082015181600801556101e082015181600901559050503373ffffffffffffffffffffffffffffffffffffffff167fd083e2ef62102a69352d39b2a9a28acc07b62713713b386c605c70b4a1c83633898b8a8a8a8a8a8a6040516135be989796959493929190614d61565b60405180910390a2505050505050505050565b600360149054906101000a900461ffff1681565b60007f01ffc9a7000000000000000000000000000000000000000000000000000000007bffffffffffffffffffffffffffffffffffffffffffffffffffffffff1916827bffffffffffffffffffffffffffffffffffffffffffffffffffffffff1916149050919050565b6060600061365f83600001613758565b905060608190508092505050919050565b600033905090565b6000600160009054906101000a900473ffffffffffffffffffffffffffffffffffffffff16905081600160006101000a81548173ffffffffffffffffffffffffffffffffffffffff021916908373ffffffffffffffffffffffffffffffffffffffff1602179055508173ffffffffffffffffffffffffffffffffffffffff168173ffffffffffffffffffffffffffffffffffffffff167f8be0079c531659141344cd1fd0a4f28419497f9722a3daafe3b4186f6b6457e060405160405180910390a35050565b6000613750836000018360001b6137b4565b905092915050565b6060816000018054806020026020016040519081016040528092919081815260200182805480156137a857602002820191906000526020600020905b815481526020019060010190808311613794575b50505050509050919050565b60006137c08383613824565b61381957826000018290806001815401808255809150506001900390600052602060002001600090919091909150558260000180549050836001016000848152602001908152602001600020819055506001905061381e565b600090505b92915050565b600080836001016000848152602001908152602001600020541415905092915050565b6040518060c00160405280600061ffff168152602001600081526020016000815260200160008152602001600081526020016000151581525090565b604051806102000160405280600060018111156138a3576138a2613eb7565b5b8152602001600060038111156138bc576138bb613eb7565b5b8152602001600061ffff168152602001600061ffff168152602001600061ffff168152602001600061ffff168152602001600061ffff1681526020016000815260200160008152602001600081526020016000815260200160008152602001600081526020016000815260200160008152602001600081525090565b6000604051905090565b600080fd5b600080fd5b60007fffffffff0000000000000000000000000000000000000000000000000000000082169050919050565b6139818161394c565b811461398c57600080fd5b50565b60008135905061399e81613978565b92915050565b6000602082840312156139ba576139b9613942565b5b60006139c88482850161398f565b91505092915050565b60008115159050919050565b6139e6816139d1565b82525050565b6000602082019050613a0160008301846139dd565b92915050565b600061ffff82169050919050565b613a1e81613a07565b8114613a2957600080fd5b50565b600081359050613a3b81613a15565b92915050565b600060208284031215613a5757613a56613942565b5b6000613a6584828501613a2c565b91505092915050565b600073ffffffffffffffffffffffffffffffffffffffff82169050919050565b6000613a9982613a6e565b9050919050565b613aa981613a8e565b8114613ab457600080fd5b50565b600081359050613ac681613aa0565b92915050565b600060208284031215613ae257613ae1613942565b5b6000613af084828501613ab7565b91505092915050565b600081519050919050565b600082825260208201905092915050565b6000819050602082019050919050565b6000819050919050565b613b3881613b25565b82525050565b6000613b4a8383613b2f565b60208301905092915050565b6000602082019050919050565b6000613b6e82613af9565b613b788185613b04565b9350613b8383613b15565b8060005b83811015613bb4578151613b9b8882613b3e565b9750613ba683613b56565b925050600181019050613b87565b5085935050505092915050565b60006020820190508181036000830152613bdb8184613b63565b905092915050565b613bec816139d1565b8114613bf757600080fd5b50565b600081359050613c0981613be3565b92915050565b60008060408385031215613c2657613c25613942565b5b6000613c3485828601613ab7565b9250506020613c4585828601613bfa565b9150509250929050565b60028110613c5c57600080fd5b50565b600081359050613c6e81613c4f565b92915050565b613c7d81613b25565b8114613c8857600080fd5b50565b600081359050613c9a81613c74565b92915050565b600080600080600080600060e0888a031215613cbf57613cbe613942565b5b6000613ccd8a828b01613c5f565b9750506020613cde8a828b01613a2c565b9650506040613cef8a828b01613a2c565b9550506060613d008a828b01613c8b565b9450506080613d118a828b01613c8b565b93505060a0613d228a828b01613c8b565b92505060c0613d338a828b01613c8b565b91505092959891949750929550565b60008060408385031215613d5957613d58613942565b5b6000613d6785828601613ab7565b9250506020613d7885828601613a2c565b9150509250929050565b613d8b81613b25565b82525050565b6000602082019050613da66000830184613d82565b92915050565b613db581613a8e565b82525050565b6000602082019050613dd06000830184613dac565b92915050565b600060208284031215613dec57613deb613942565b5b6000613dfa84828501613c8b565b91505092915050565b613e0c81613a07565b82525050565b613e1b816139d1565b82525050565b60c082016000820151613e376000850182613e03565b506020820151613e4a6020850182613b2f565b506040820151613e5d6040850182613b2f565b506060820151613e706060850182613b2f565b506080820151613e836080850182613b2f565b5060a0820151613e9660a0850182613e12565b50505050565b600060c082019050613eb16000830184613e21565b92915050565b7f4e487b7100000000000000000000000000000000000000000000000000000000600052602160045260246000fd5b60028110613ef757613ef6613eb7565b5b50565b6000819050613f0882613ee6565b919050565b6000613f1882613efa565b9050919050565b613f2881613f0d565b82525050565b60048110613f3f57613f3e613eb7565b5b50565b6000819050613f5082613f2e565b919050565b6000613f6082613f42565b9050919050565b613f7081613f55565b82525050565b61020082016000820151613f8d6000850182613f1f565b506020820151613fa06020850182613f67565b506040820151613fb36040850182613e03565b506060820151613fc66060850182613e03565b506080820151613fd96080850182613e03565b5060a0820151613fec60a0850182613e03565b5060c0820151613fff60c0850182613e03565b5060e082015161401260e0850182613b2f565b50610100820151614027610100850182613b2f565b5061012082015161403c610120850182613b2f565b50610140820151614051610140850182613b2f565b50610160820151614066610160850182613b2f565b5061018082015161407b610180850182613b2f565b506101a08201516140906101a0850182613b2f565b506101c08201516140a56101c0850182613b2f565b506101e08201516140ba6101e0850182613b2f565b50505050565b6000610200820190506140d66000830184613f76565b92915050565b600080fd5b6000601f19601f8301169050919050565b7f4e487b7100000000000000000000000000000000000000000000000000000000600052604160045260246000fd5b61412a826140e1565b810181811067ffffffffffffffff82111715614149576141486140f2565b5b80604052505050565b600061415c613938565b90506141688282614121565b919050565b600067ffffffffffffffff821115614188576141876140f2565b5b602082029050602081019050919050565b600080fd5b60006141b16141ac8461416d565b614152565b905080838252602082019050602084028301858111156141d4576141d3614199565b5b835b818110156141fd57806141e98882613c8b565b8452602084019350506020810190506141d6565b5050509392505050565b600082601f83011261421c5761421b6140dc565b5b813561422c84826020860161419e565b91505092915050565b60008060006060848603121561424e5761424d613942565b5b600061425c86828701613ab7565b935050602084013567ffffffffffffffff81111561427d5761427c613947565b5b61428986828701614207565b925050604084013567ffffffffffffffff8111156142aa576142a9613947565b5b6142b686828701614207565b9150509250925092565b600080604083850312156142d7576142d6613942565b5b60006142e585828601613ab7565b92505060206142f685828601613c8b565b9150509250929050565b6004811061430d57600080fd5b50565b60008135905061431f81614300565b92915050565b600080600080600060a0868803121561434157614340613942565b5b600061434f88828901613a2c565b955050602061436088828901614310565b945050604061437188828901613a2c565b935050606061438288828901613a2c565b925050608061439388828901613c8b565b9150509295509295909350565b600080fd5b600067ffffffffffffffff8211156143c0576143bf6140f2565b5b6143c9826140e1565b9050602081019050919050565b82818337600083830152505050565b60006143f86143f3846143a5565b614152565b905082815260208101848484011115614414576144136143a0565b5b61441f8482856143d6565b509392505050565b600082601f83011261443c5761443b6140dc565b5b813561444c8482602086016143e5565b91505092915050565b600080600080600060a0868803121561447157614470613942565b5b600061447f88828901613ab7565b955050602061449088828901613ab7565b945050604086013567ffffffffffffffff8111156144b1576144b0613947565b5b6144bd88828901614207565b935050606086013567ffffffffffffffff8111156144de576144dd613947565b5b6144ea88828901614207565b925050608086013567ffffffffffffffff81111561450b5761450a613947565b5b61451788828901614427565b9150509295509295909350565b61452d8161394c565b82525050565b60006020820190506145486000830184614524565b92915050565b6000806000806080858703121561456857614567613942565b5b600061457687828801613a2c565b945050602061458787828801614310565b935050604061459887828801613c8b565b92505060606145a987828801613c8b565b91505092959194509250565b600080600080600060a086880312156145d1576145d0613942565b5b60006145df88828901613ab7565b95505060206145f088828901613ab7565b945050604061460188828901613c8b565b935050606061461288828901613c8b565b925050608086013567ffffffffffffffff81111561463357614632613947565b5b61463f88828901614427565b9150509295509295909350565b600080600080600080600080610100898b03121561466d5761466c613942565b5b600061467b8b828c01613a2c565b985050602061468c8b828c01613c5f565b975050604061469d8b828c01613a2c565b96505060606146ae8b828c01613a2c565b95505060806146bf8b828c01613c8b565b94505060a06146d08b828c01613c8b565b93505060c06146e18b828c01613c8b565b92505060e06146f28b828c01613c8b565b9150509295985092959890939650565b61470b81613a07565b82525050565b60006020820190506147266000830184614702565b92915050565b600082825260208201905092915050565b7f496e76616c6964206368616c6c656e6167650000000000000000000000000000600082015250565b600061477360128361472c565b915061477e8261473d565b602082019050919050565b600060208201905081810360008301526147a281614766565b9050919050565b7f4368616c6c656e616765206e6f74206f70656e65640000000000000000000000600082015250565b60006147df60158361472c565b91506147ea826147a9565b602082019050919050565b6000602082019050818103600083015261480e816147d2565b9050919050565b7f4861732074616b65207265776172640000000000000000000000000000000000600082015250565b600061484b600f8361472c565b915061485682614815565b602082019050919050565b6000602082019050818103600083015261487a8161483e565b9050919050565b600082825260208201905092915050565b50565b60006148a2600083614881565b91506148ad82614892565b600082019050919050565b600060a0820190506148cd6000830187613dac565b6148da6020830186613dac565b6148e76040830185613d82565b6148f46060830184613d82565b818103608083015261490581614895565b905095945050505050565b7f4e487b7100000000000000000000000000000000000000000000000000000000600052601160045260246000fd5b600061494a82613b25565b915061495583613b25565b925082820190508082111561496d5761496c614910565b5b92915050565b600061497e82613b25565b915061498983613b25565b92508282039050818111156149a1576149a0614910565b5b92915050565b60006149b282613b25565b91506149bd83613b25565b92508282026149cb81613b25565b915082820484148315176149e2576149e1614910565b5b5092915050565b7f4e487b7100000000000000000000000000000000000000000000000000000000600052601260045260246000fd5b6000614a2382613b25565b9150614a2e83613b25565b925082614a3e57614a3d6149e9565b5b828204905092915050565b6000604082019050614a5e6000830185613dac565b614a6b6020830184613d82565b9392505050565b600081519050614a8181613be3565b92915050565b600060208284031215614a9d57614a9c613942565b5b6000614aab84828501614a72565b91505092915050565b6000604082019050614ac96000830185614702565b614ad66020830184613d82565b9392505050565b7f41646d696e61626c653a2063616c6c6572206973206e6f7420746865206f776e60008201527f6572000000000000000000000000000000000000000000000000000000000000602082015250565b6000614b3960228361472c565b9150614b4482614add565b604082019050919050565b60006020820190508181036000830152614b6881614b2c565b9050919050565b6000604082019050614b8460008301856139dd565b614b9160208301846139dd565b9392505050565b7f41646d696e61626c653a2063616c6c6572206973206e6f74207468652061646d60008201527f696e000000000000000000000000000000000000000000000000000000000000602082015250565b6000614bf460228361472c565b9150614bff82614b98565b604082019050919050565b60006020820190508181036000830152614c2381614be7565b9050919050565b7f53746172742074696d65206d757374206d6f7265207468616e2070726573656e60008201527f742074696d650000000000000000000000000000000000000000000000000000602082015250565b6000614c8660268361472c565b9150614c9182614c2a565b604082019050919050565b60006020820190508181036000830152614cb581614c79565b9050919050565b7f546f6b656e206964206d757374206c657373207468616e203337000000000000600082015250565b6000614cf2601a8361472c565b9150614cfd82614cbc565b602082019050919050565b60006020820190508181036000830152614d2181614ce5565b9050919050565b6000614d3382613a07565b915061ffff8203614d4757614d46614910565b5b600182019050919050565b614d5b81613f0d565b82525050565b600061010082019050614d77600083018b614d52565b614d84602083018a614702565b614d916040830189614702565b614d9e6060830188614702565b614dab6080830187613d82565b614db860a0830186613d82565b614dc560c0830185613d82565b614dd260e0830184613d82565b9998505050505050505050565b600060a082019050614df46000830187613dac565b614e016020830186613dac565b8181036040830152614e138185613b63565b90508181036060830152614e278184613b63565b90508181036080830152614e3a81614895565b905095945050505050565b7f496e76616c6964206368616c6c656e6765206964000000000000000000000000600082015250565b6000614e7b60148361472c565b9150614e8682614e45565b602082019050919050565b60006020820190508181036000830152614eaa81614e6e565b9050919050565b7f4368616c6c656e6765206e6f7420656e64000000000000000000000000000000600082015250565b6000614ee760118361472c565b9150614ef282614eb1565b602082019050919050565b60006020820190508181036000830152614f1681614eda565b9050919050565b614f2681613f55565b82525050565b600060a082019050614f416000830188614702565b614f4e6020830187614702565b614f5b6040830186614702565b614f686060830185614f1d565b614f756080830184613d82565b9695505050505050565b7f416d6f756e74206973207a65726f000000000000000000000000000000000000600082015250565b6000614fb5600e8361472c565b9150614fc082614f7f565b602082019050919050565b60006020820190508181036000830152614fe481614fa8565b9050919050565b7f5461726765742063616e74204e4f4d414c000000000000000000000000000000600082015250565b600061502160118361472c565b915061502c82614feb565b602082019050919050565b6000602082019050818103600083015261505081615014565b9050919050565b7f4964206572726f72000000000000000000000000000000000000000000000000600082015250565b600061508d60088361472c565b915061509882615057565b602082019050919050565b600060208201905081810360008301526150bc81615080565b9050919050565b7f4368616c6c656e6765206e6f7420737461727400000000000000000000000000600082015250565b60006150f960138361472c565b9150615104826150c3565b602082019050919050565b60006020820190508181036000830152615128816150ec565b9050919050565b7f4368616c6c656e676520697320656e6400000000000000000000000000000000600082015250565b600061516560108361472c565b91506151708261512f565b602082019050919050565b6000602082019050818103600083015261519481615158565b9050919050565b7f53746172742074696d65206d757374206c657373207468616e20656e6420746960008201527f6d65000000000000000000000000000000000000000000000000000000000000602082015250565b60006151f760228361472c565b91506152028261519b565b604082019050919050565b60006020820190508181036000830152615226816151ea565b9050919050565b7f546f6b656e206964206e6f7420696e206368616c6c656e676500000000000000600082015250565b600061526360198361472c565b915061526e8261522d565b602082019050919050565b6000602082019050818103600083015261529281615256565b9050919050565b7f546172676574206572726f720000000000000000000000000000000000000000600082015250565b60006152cf600c8361472c565b91506152da82615299565b602082019050919050565b600060208201905081810360008301526152fe816152c2565b9050919050565b7f746f6b656e496420616e6420746172676574206e6f74206d6174636800000000600082015250565b600061533b601c8361472c565b915061534682615305565b602082019050919050565b6000602082019050818103600083015261536a8161532e565b9050919050565b7f546f6b656e206964206e6f74206d756368000000000000000000000000000000600082015250565b60006153a760118361472c565b91506153b282615371565b602082019050919050565b600060208201905081810360008301526153d68161539a565b9050919050565b60006080820190506153f26000830187614702565b6153ff6020830186614f1d565b61540c6040830185613d82565b6154196060830184613d82565b95945050505050565b7f4f776e61626c653a206e6577206f776e657220697320746865207a65726f206160008201527f6464726573730000000000000000000000000000000000000000000000000000602082015250565b600061547e60268361472c565b915061548982615422565b604082019050919050565b600060208201905081810360008301526154ad81615471565b9050919050565b7f4368616c6c656e6765206e6f7420666f756e6400000000000000000000000000600082015250565b60006154ea60138361472c565b91506154f5826154b4565b602082019050919050565b60006020820190508181036000830152615519816154dd565b905091905056fea264697066735822122066f5a03b81c1a95f84b359757da443b4adb9d702fad0acebd55c6d9a7475549a64736f6c63430008110033",
			"opcodes": "PUSH1 0x80 PUSH1 0x40 MSTORE PUSH20 0x9D8F7AEA83CECF102AB65E9A5B82106B07A68B28 PUSH1 0x2 PUSH1 0x0 PUSH2 0x100 EXP DUP2 SLOAD DUP2 PUSH20 0xFFFFFFFFFFFFFFFFFFFFFFFFFFFFFFFFFFFFFFFF MUL NOT AND SWAP1 DUP4 PUSH20 0xFFFFFFFFFFFFFFFFFFFFFFFFFFFFFFFFFFFFFFFF AND MUL OR SWAP1 SSTORE POP PUSH20 0x58A944F9C44D08461A471A1F6C6D15DE351D97B3 PUSH1 0x3 PUSH1 0x0 PUSH2 0x100 EXP DUP2 SLOAD DUP2 PUSH20 0xFFFFFFFFFFFFFFFFFFFFFFFFFFFFFFFFFFFFFFFF MUL NOT AND SWAP1 DUP4 PUSH20 0xFFFFFFFFFFFFFFFFFFFFFFFFFFFFFFFFFFFFFFFF AND MUL OR SWAP1 SSTORE POP PUSH1 0x50 PUSH1 0x4 SSTORE PUSH9 0x1043561A8829300000 PUSH1 0x5 SSTORE CALLVALUE DUP1 ISZERO PUSH3 0xCD JUMPI PUSH1 0x0 DUP1 REVERT JUMPDEST POP PUSH3 0xEE PUSH3 0xE2 PUSH3 0xF4 PUSH1 0x20 SHL PUSH1 0x20 SHR JUMP JUMPDEST PUSH3 0xFC PUSH1 0x20 SHL PUSH1 0x20 SHR JUMP JUMPDEST PUSH3 0x1C2 JUMP JUMPDEST PUSH1 0x0 CALLER SWAP1 POP SWAP1 JUMP JUMPDEST PUSH1 0x0 PUSH1 0x1 PUSH1 0x0 SWAP1 SLOAD SWAP1 PUSH2 0x100 EXP SWAP1 DIV PUSH20 0xFFFFFFFFFFFFFFFFFFFFFFFFFFFFFFFFFFFFFFFF AND SWAP1 POP DUP2 PUSH1 0x1 PUSH1 0x0 PUSH2 0x100 EXP DUP2 SLOAD DUP2 PUSH20 0xFFFFFFFFFFFFFFFFFFFFFFFFFFFFFFFFFFFFFFFF MUL NOT AND SWAP1 DUP4 PUSH20 0xFFFFFFFFFFFFFFFFFFFFFFFFFFFFFFFFFFFFFFFF AND MUL OR SWAP1 SSTORE POP DUP2 PUSH20 0xFFFFFFFFFFFFFFFFFFFFFFFFFFFFFFFFFFFFFFFF AND DUP2 PUSH20 0xFFFFFFFFFFFFFFFFFFFFFFFFFFFFFFFFFFFFFFFF AND PUSH32 0x8BE0079C531659141344CD1FD0A4F28419497F9722A3DAAFE3B4186F6B6457E0 PUSH1 0x40 MLOAD PUSH1 0x40 MLOAD DUP1 SWAP2 SUB SWAP1 LOG3 POP POP JUMP JUMPDEST PUSH2 0x5556 DUP1 PUSH3 0x1D2 PUSH1 0x0 CODECOPY PUSH1 0x0 RETURN INVALID PUSH1 0x80 PUSH1 0x40 MSTORE CALLVALUE DUP1 ISZERO PUSH2 0x10 JUMPI PUSH1 0x0 DUP1 REVERT JUMPDEST POP PUSH1 0x4 CALLDATASIZE LT PUSH2 0x1C4 JUMPI PUSH1 0x0 CALLDATALOAD PUSH1 0xE0 SHR DUP1 PUSH4 0x8AEE8127 GT PUSH2 0xF9 JUMPI DUP1 PUSH4 0xDA80E59B GT PUSH2 0x97 JUMPI DUP1 PUSH4 0xF606FAEA GT PUSH2 0x71 JUMPI DUP1 PUSH4 0xF606FAEA EQ PUSH2 0x4FF JUMPI DUP1 PUSH4 0xF7C618C1 EQ PUSH2 0x51B JUMPI DUP1 PUSH4 0xFA5B6944 EQ PUSH2 0x539 JUMPI DUP1 PUSH4 0xFFA65732 EQ PUSH2 0x555 JUMPI PUSH2 0x1C4 JUMP JUMPDEST DUP1 PUSH4 0xDA80E59B EQ PUSH2 0x495 JUMPI DUP1 PUSH4 0xF23A6E61 EQ PUSH2 0x4B3 JUMPI DUP1 PUSH4 0xF2FDE38B EQ PUSH2 0x4E3 JUMPI PUSH2 0x1C4 JUMP JUMPDEST DUP1 PUSH4 0xA4C3B091 GT PUSH2 0xD3 JUMPI DUP1 PUSH4 0xA4C3B091 EQ PUSH2 0x411 JUMPI DUP1 PUSH4 0xACCA73E2 EQ PUSH2 0x42D JUMPI DUP1 PUSH4 0xBC197C81 EQ PUSH2 0x449 JUMPI DUP1 PUSH4 0xD34259C1 EQ PUSH2 0x479 JUMPI PUSH2 0x1C4 JUMP JUMPDEST DUP1 PUSH4 0x8AEE8127 EQ PUSH2 0x3BB JUMPI DUP1 PUSH4 0x8DA5CB5B EQ PUSH2 0x3D7 JUMPI DUP1 PUSH4 0x9339B0A0 EQ PUSH2 0x3F5 JUMPI PUSH2 0x1C4 JUMP JUMPDEST DUP1 PUSH4 0x270E3994 GT PUSH2 0x166 JUMPI DUP1 PUSH4 0x6CD262FB GT PUSH2 0x140 JUMPI DUP1 PUSH4 0x6CD262FB EQ PUSH2 0x335 JUMPI DUP1 PUSH4 0x715018A6 EQ PUSH2 0x351 JUMPI DUP1 PUSH4 0x749F3429 EQ PUSH2 0x35B JUMPI DUP1 PUSH4 0x891EE6D3 EQ PUSH2 0x38B JUMPI PUSH2 0x1C4 JUMP JUMPDEST DUP1 PUSH4 0x270E3994 EQ PUSH2 0x2DD JUMPI DUP1 PUSH4 0x2C4E722E EQ PUSH2 0x2FB JUMPI DUP1 PUSH4 0x34FCF437 EQ PUSH2 0x319 JUMPI PUSH2 0x1C4 JUMP JUMPDEST DUP1 PUSH4 0x18E20ECF GT PUSH2 0x1A2 JUMPI DUP1 PUSH4 0x18E20ECF EQ PUSH2 0x245 JUMPI DUP1 PUSH4 0x20B45E1C EQ PUSH2 0x261 JUMPI DUP1 PUSH4 0x21569088 EQ PUSH2 0x27D JUMPI DUP1 PUSH4 0x24D7806C EQ PUSH2 0x2AD JUMPI PUSH2 0x1C4 JUMP JUMPDEST DUP1 PUSH4 0x1FFC9A7 EQ PUSH2 0x1C9 JUMPI DUP1 PUSH4 0x82D0785 EQ PUSH2 0x1F9 JUMPI DUP1 PUSH4 0x11DA8E54 EQ PUSH2 0x215 JUMPI JUMPDEST PUSH1 0x0 DUP1 REVERT JUMPDEST PUSH2 0x1E3 PUSH1 0x4 DUP1 CALLDATASIZE SUB DUP2 ADD SWAP1 PUSH2 0x1DE SWAP2 SWAP1 PUSH2 0x39A4 JUMP JUMPDEST PUSH2 0x573 JUMP JUMPDEST PUSH1 0x40 MLOAD PUSH2 0x1F0 SWAP2 SWAP1 PUSH2 0x39EC JUMP JUMPDEST PUSH1 0x40 MLOAD DUP1 SWAP2 SUB SWAP1 RETURN JUMPDEST PUSH2 0x213 PUSH1 0x4 DUP1 CALLDATASIZE SUB DUP2 ADD SWAP1 PUSH2 0x20E SWAP2 SWAP1 PUSH2 0x3A41 JUMP JUMPDEST PUSH2 0x5ED JUMP JUMPDEST STOP JUMPDEST PUSH2 0x22F PUSH1 0x4 DUP1 CALLDATASIZE SUB DUP2 ADD SWAP1 PUSH2 0x22A SWAP2 SWAP1 PUSH2 0x3ACC JUMP JUMPDEST PUSH2 0xECF JUMP JUMPDEST PUSH1 0x40 MLOAD PUSH2 0x23C SWAP2 SWAP1 PUSH2 0x3BC1 JUMP JUMPDEST PUSH1 0x40 MLOAD DUP1 SWAP2 SUB SWAP1 RETURN JUMPDEST PUSH2 0x25F PUSH1 0x4 DUP1 CALLDATASIZE SUB DUP2 ADD SWAP1 PUSH2 0x25A SWAP2 SWAP1 PUSH2 0x3C0F JUMP JUMPDEST PUSH2 0xF1F JUMP JUMPDEST STOP JUMPDEST PUSH2 0x27B PUSH1 0x4 DUP1 CALLDATASIZE SUB DUP2 ADD SWAP1 PUSH2 0x276 SWAP2 SWAP1 PUSH2 0x3CA0 JUMP JUMPDEST PUSH2 0x1090 JUMP JUMPDEST STOP JUMPDEST PUSH2 0x297 PUSH1 0x4 DUP1 CALLDATASIZE SUB DUP2 ADD SWAP1 PUSH2 0x292 SWAP2 SWAP1 PUSH2 0x3D42 JUMP JUMPDEST PUSH2 0x147B JUMP JUMPDEST PUSH1 0x40 MLOAD PUSH2 0x2A4 SWAP2 SWAP1 PUSH2 0x3D91 JUMP JUMPDEST PUSH1 0x40 MLOAD DUP1 SWAP2 SUB SWAP1 RETURN JUMPDEST PUSH2 0x2C7 PUSH1 0x4 DUP1 CALLDATASIZE SUB DUP2 ADD SWAP1 PUSH2 0x2C2 SWAP2 SWAP1 PUSH2 0x3ACC JUMP JUMPDEST PUSH2 0x1881 JUMP JUMPDEST PUSH1 0x40 MLOAD PUSH2 0x2D4 SWAP2 SWAP1 PUSH2 0x39EC JUMP JUMPDEST PUSH1 0x40 MLOAD DUP1 SWAP2 SUB SWAP1 RETURN JUMPDEST PUSH2 0x2E5 PUSH2 0x18D6 JUMP JUMPDEST PUSH1 0x40 MLOAD PUSH2 0x2F2 SWAP2 SWAP1 PUSH2 0x3DBB JUMP JUMPDEST PUSH1 0x40 MLOAD DUP1 SWAP2 SUB SWAP1 RETURN JUMPDEST PUSH2 0x303 PUSH2 0x18FC JUMP JUMPDEST PUSH1 0x40 MLOAD PUSH2 0x310 SWAP2 SWAP1 PUSH2 0x3D91 JUMP JUMPDEST PUSH1 0x40 MLOAD DUP1 SWAP2 SUB SWAP1 RETURN JUMPDEST PUSH2 0x333 PUSH1 0x4 DUP1 CALLDATASIZE SUB DUP2 ADD SWAP1 PUSH2 0x32E SWAP2 SWAP1 PUSH2 0x3DD6 JUMP JUMPDEST PUSH2 0x1902 JUMP JUMPDEST STOP JUMPDEST PUSH2 0x34F PUSH1 0x4 DUP1 CALLDATASIZE SUB DUP2 ADD SWAP1 PUSH2 0x34A SWAP2 SWAP1 PUSH2 0x3ACC JUMP JUMPDEST PUSH2 0x1988 JUMP JUMPDEST STOP JUMPDEST PUSH2 0x359 PUSH2 0x1A48 JUMP JUMPDEST STOP JUMPDEST PUSH2 0x375 PUSH1 0x4 DUP1 CALLDATASIZE SUB DUP2 ADD SWAP1 PUSH2 0x370 SWAP2 SWAP1 PUSH2 0x3D42 JUMP JUMPDEST PUSH2 0x1AD0 JUMP JUMPDEST PUSH1 0x40 MLOAD PUSH2 0x382 SWAP2 SWAP1 PUSH2 0x3E9C JUMP JUMPDEST PUSH1 0x40 MLOAD DUP1 SWAP2 SUB SWAP1 RETURN JUMPDEST PUSH2 0x3A5 PUSH1 0x4 DUP1 CALLDATASIZE SUB DUP2 ADD SWAP1 PUSH2 0x3A0 SWAP2 SWAP1 PUSH2 0x3A41 JUMP JUMPDEST PUSH2 0x1BA6 JUMP JUMPDEST PUSH1 0x40 MLOAD PUSH2 0x3B2 SWAP2 SWAP1 PUSH2 0x40C0 JUMP JUMPDEST PUSH1 0x40 MLOAD DUP1 SWAP2 SUB SWAP1 RETURN JUMPDEST PUSH2 0x3D5 PUSH1 0x4 DUP1 CALLDATASIZE SUB DUP2 ADD SWAP1 PUSH2 0x3D0 SWAP2 SWAP1 PUSH2 0x3ACC JUMP JUMPDEST PUSH2 0x1D4C JUMP JUMPDEST STOP JUMPDEST PUSH2 0x3DF PUSH2 0x1E0C JUMP JUMPDEST PUSH1 0x40 MLOAD PUSH2 0x3EC SWAP2 SWAP1 PUSH2 0x3DBB JUMP JUMPDEST PUSH1 0x40 MLOAD DUP1 SWAP2 SUB SWAP1 RETURN JUMPDEST PUSH2 0x40F PUSH1 0x4 DUP1 CALLDATASIZE SUB DUP2 ADD SWAP1 PUSH2 0x40A SWAP2 SWAP1 PUSH2 0x4235 JUMP JUMPDEST PUSH2 0x1E36 JUMP JUMPDEST STOP JUMPDEST PUSH2 0x42B PUSH1 0x4 DUP1 CALLDATASIZE SUB DUP2 ADD SWAP1 PUSH2 0x426 SWAP2 SWAP1 PUSH2 0x42C0 JUMP JUMPDEST PUSH2 0x1F28 JUMP JUMPDEST STOP JUMPDEST PUSH2 0x447 PUSH1 0x4 DUP1 CALLDATASIZE SUB DUP2 ADD SWAP1 PUSH2 0x442 SWAP2 SWAP1 PUSH2 0x4325 JUMP JUMPDEST PUSH2 0x2027 JUMP JUMPDEST STOP JUMPDEST PUSH2 0x463 PUSH1 0x4 DUP1 CALLDATASIZE SUB DUP2 ADD SWAP1 PUSH2 0x45E SWAP2 SWAP1 PUSH2 0x4455 JUMP JUMPDEST PUSH2 0x2506 JUMP JUMPDEST PUSH1 0x40 MLOAD PUSH2 0x470 SWAP2 SWAP1 PUSH2 0x4533 JUMP JUMPDEST PUSH1 0x40 MLOAD DUP1 SWAP2 SUB SWAP1 RETURN JUMPDEST PUSH2 0x493 PUSH1 0x4 DUP1 CALLDATASIZE SUB DUP2 ADD SWAP1 PUSH2 0x48E SWAP2 SWAP1 PUSH2 0x454E JUMP JUMPDEST PUSH2 0x251B JUMP JUMPDEST STOP JUMPDEST PUSH2 0x49D PUSH2 0x2F64 JUMP JUMPDEST PUSH1 0x40 MLOAD PUSH2 0x4AA SWAP2 SWAP1 PUSH2 0x3D91 JUMP JUMPDEST PUSH1 0x40 MLOAD DUP1 SWAP2 SUB SWAP1 RETURN JUMPDEST PUSH2 0x4CD PUSH1 0x4 DUP1 CALLDATASIZE SUB DUP2 ADD SWAP1 PUSH2 0x4C8 SWAP2 SWAP1 PUSH2 0x45B5 JUMP JUMPDEST PUSH2 0x2F6A JUMP JUMPDEST PUSH1 0x40 MLOAD PUSH2 0x4DA SWAP2 SWAP1 PUSH2 0x4533 JUMP JUMPDEST PUSH1 0x40 MLOAD DUP1 SWAP2 SUB SWAP1 RETURN JUMPDEST PUSH2 0x4FD PUSH1 0x4 DUP1 CALLDATASIZE SUB DUP2 ADD SWAP1 PUSH2 0x4F8 SWAP2 SWAP1 PUSH2 0x3ACC JUMP JUMPDEST PUSH2 0x2F7F JUMP JUMPDEST STOP JUMPDEST PUSH2 0x519 PUSH1 0x4 DUP1 CALLDATASIZE SUB DUP2 ADD SWAP1 PUSH2 0x514 SWAP2 SWAP1 PUSH2 0x3DD6 JUMP JUMPDEST PUSH2 0x3076 JUMP JUMPDEST STOP JUMPDEST PUSH2 0x523 PUSH2 0x30FC JUMP JUMPDEST PUSH1 0x40 MLOAD PUSH2 0x530 SWAP2 SWAP1 PUSH2 0x3DBB JUMP JUMPDEST PUSH1 0x40 MLOAD DUP1 SWAP2 SUB SWAP1 RETURN JUMPDEST PUSH2 0x553 PUSH1 0x4 DUP1 CALLDATASIZE SUB DUP2 ADD SWAP1 PUSH2 0x54E SWAP2 SWAP1 PUSH2 0x464C JUMP JUMPDEST PUSH2 0x3122 JUMP JUMPDEST STOP JUMPDEST PUSH2 0x55D PUSH2 0x35D1 JUMP JUMPDEST PUSH1 0x40 MLOAD PUSH2 0x56A SWAP2 SWAP1 PUSH2 0x4711 JUMP JUMPDEST PUSH1 0x40 MLOAD DUP1 SWAP2 SUB SWAP1 RETURN JUMPDEST PUSH1 0x0 PUSH32 0x4E2312E000000000000000000000000000000000000000000000000000000000 PUSH28 0xFFFFFFFFFFFFFFFFFFFFFFFFFFFFFFFFFFFFFFFFFFFFFFFFFFFFFFFF NOT AND DUP3 PUSH28 0xFFFFFFFFFFFFFFFFFFFFFFFFFFFFFFFFFFFFFFFFFFFFFFFFFFFFFFFF NOT AND EQ DUP1 PUSH2 0x5E6 JUMPI POP PUSH2 0x5E5 DUP3 PUSH2 0x35E5 JUMP JUMPDEST JUMPDEST SWAP1 POP SWAP2 SWAP1 POP JUMP JUMPDEST PUSH1 0x0 PUSH1 0x7 PUSH1 0x0 CALLER PUSH20 0xFFFFFFFFFFFFFFFFFFFFFFFFFFFFFFFFFFFFFFFF AND PUSH20 0xFFFFFFFFFFFFFFFFFFFFFFFFFFFFFFFFFFFFFFFF AND DUP2 MSTORE PUSH1 0x20 ADD SWAP1 DUP2 MSTORE PUSH1 0x20 ADD PUSH1 0x0 KECCAK256 PUSH1 0x0 DUP4 PUSH2 0xFFFF AND PUSH2 0xFFFF AND DUP2 MSTORE PUSH1 0x20 ADD SWAP1 DUP2 MSTORE PUSH1 0x20 ADD PUSH1 0x0 KECCAK256 PUSH1 0x40 MLOAD DUP1 PUSH1 0xC0 ADD PUSH1 0x40 MSTORE SWAP1 DUP2 PUSH1 0x0 DUP3 ADD PUSH1 0x0 SWAP1 SLOAD SWAP1 PUSH2 0x100 EXP SWAP1 DIV PUSH2 0xFFFF AND PUSH2 0xFFFF AND PUSH2 0xFFFF AND DUP2 MSTORE PUSH1 0x20 ADD PUSH1 0x1 DUP3 ADD SLOAD DUP2 MSTORE PUSH1 0x20 ADD PUSH1 0x2 DUP3 ADD SLOAD DUP2 MSTORE PUSH1 0x20 ADD PUSH1 0x3 DUP3 ADD SLOAD DUP2 MSTORE PUSH1 0x20 ADD PUSH1 0x4 DUP3 ADD SLOAD DUP2 MSTORE PUSH1 0x20 ADD PUSH1 0x5 DUP3 ADD PUSH1 0x0 SWAP1 SLOAD SWAP1 PUSH2 0x100 EXP SWAP1 DIV PUSH1 0xFF AND ISZERO ISZERO ISZERO ISZERO DUP2 MSTORE POP POP SWAP1 POP PUSH1 0x0 PUSH1 0x6 PUSH1 0x0 DUP5 PUSH2 0xFFFF AND PUSH2 0xFFFF AND DUP2 MSTORE PUSH1 0x20 ADD SWAP1 DUP2 MSTORE PUSH1 0x20 ADD PUSH1 0x0 KECCAK256 PUSH1 0x40 MLOAD DUP1 PUSH2 0x200 ADD PUSH1 0x40 MSTORE SWAP1 DUP2 PUSH1 0x0 DUP3 ADD PUSH1 0x0 SWAP1 SLOAD SWAP1 PUSH2 0x100 EXP SWAP1 DIV PUSH1 0xFF AND PUSH1 0x1 DUP2 GT ISZERO PUSH2 0x705 JUMPI PUSH2 0x704 PUSH2 0x3EB7 JUMP JUMPDEST JUMPDEST PUSH1 0x1 DUP2 GT ISZERO PUSH2 0x717 JUMPI PUSH2 0x716 PUSH2 0x3EB7 JUMP JUMPDEST JUMPDEST DUP2 MSTORE PUSH1 0x20 ADD PUSH1 0x0 DUP3 ADD PUSH1 0x1 SWAP1 SLOAD SWAP1 PUSH2 0x100 EXP SWAP1 DIV PUSH1 0xFF AND PUSH1 0x3 DUP2 GT ISZERO PUSH2 0x740 JUMPI PUSH2 0x73F PUSH2 0x3EB7 JUMP JUMPDEST JUMPDEST PUSH1 0x3 DUP2 GT ISZERO PUSH2 0x752 JUMPI PUSH2 0x751 PUSH2 0x3EB7 JUMP JUMPDEST JUMPDEST DUP2 MSTORE PUSH1 0x20 ADD PUSH1 0x0 DUP3 ADD PUSH1 0x2 SWAP1 SLOAD SWAP1 PUSH2 0x100 EXP SWAP1 DIV PUSH2 0xFFFF AND PUSH2 0xFFFF AND PUSH2 0xFFFF AND DUP2 MSTORE PUSH1 0x20 ADD PUSH1 0x0 DUP3 ADD PUSH1 0x4 SWAP1 SLOAD SWAP1 PUSH2 0x100 EXP SWAP1 DIV PUSH2 0xFFFF AND PUSH2 0xFFFF AND PUSH2 0xFFFF AND DUP2 MSTORE PUSH1 0x20 ADD PUSH1 0x0 DUP3 ADD PUSH1 0x6 SWAP1 SLOAD SWAP1 PUSH2 0x100 EXP SWAP1 DIV PUSH2 0xFFFF AND PUSH2 0xFFFF AND PUSH2 0xFFFF AND DUP2 MSTORE PUSH1 0x20 ADD PUSH1 0x0 DUP3 ADD PUSH1 0x8 SWAP1 SLOAD SWAP1 PUSH2 0x100 EXP SWAP1 DIV PUSH2 0xFFFF AND PUSH2 0xFFFF AND PUSH2 0xFFFF AND DUP2 MSTORE PUSH1 0x20 ADD PUSH1 0x0 DUP3 ADD PUSH1 0xA SWAP1 SLOAD SWAP1 PUSH2 0x100 EXP SWAP1 DIV PUSH2 0xFFFF AND PUSH2 0xFFFF AND PUSH2 0xFFFF AND DUP2 MSTORE PUSH1 0x20 ADD PUSH1 0x1 DUP3 ADD SLOAD DUP2 MSTORE PUSH1 0x20 ADD PUSH1 0x2 DUP3 ADD SLOAD DUP2 MSTORE PUSH1 0x20 ADD PUSH1 0x3 DUP3 ADD SLOAD DUP2 MSTORE PUSH1 0x20 ADD PUSH1 0x4 DUP3 ADD SLOAD DUP2 MSTORE PUSH1 0x20 ADD PUSH1 0x5 DUP3 ADD SLOAD DUP2 MSTORE PUSH1 0x20 ADD PUSH1 0x6 DUP3 ADD SLOAD DUP2 MSTORE PUSH1 0x20 ADD PUSH1 0x7 DUP3 ADD SLOAD DUP2 MSTORE PUSH1 0x20 ADD PUSH1 0x8 DUP3 ADD SLOAD DUP2 MSTORE PUSH1 0x20 ADD PUSH1 0x9 DUP3 ADD SLOAD DUP2 MSTORE POP POP SWAP1 POP PUSH1 0x0 DUP2 PUSH1 0x40 ADD MLOAD PUSH2 0xFFFF AND GT PUSH2 0x89D JUMPI PUSH1 0x40 MLOAD PUSH32 0x8C379A000000000000000000000000000000000000000000000000000000000 DUP2 MSTORE PUSH1 0x4 ADD PUSH2 0x894 SWAP1 PUSH2 0x4789 JUMP JUMPDEST PUSH1 0x40 MLOAD DUP1 SWAP2 SUB SWAP1 REVERT JUMPDEST TIMESTAMP DUP2 PUSH2 0x120 ADD MLOAD LT PUSH2 0x8E4 JUMPI PUSH1 0x40 MLOAD PUSH32 0x8C379A000000000000000000000000000000000000000000000000000000000 DUP2 MSTORE PUSH1 0x4 ADD PUSH2 0x8DB SWAP1 PUSH2 0x47F5 JUMP JUMPDEST PUSH1 0x40 MLOAD DUP1 SWAP2 SUB SWAP1 REVERT JUMPDEST PUSH1 0x0 ISZERO ISZERO DUP3 PUSH1 0xA0 ADD MLOAD ISZERO ISZERO EQ PUSH2 0x92F JUMPI PUSH1 0x40 MLOAD PUSH32 0x8C379A000000000000000000000000000000000000000000000000000000000 DUP2 MSTORE PUSH1 0x4 ADD PUSH2 0x926 SWAP1 PUSH2 0x4861 JUMP JUMPDEST PUSH1 0x40 MLOAD DUP1 SWAP2 SUB SWAP1 REVERT JUMPDEST PUSH1 0x1 DUP3 PUSH1 0xA0 ADD SWAP1 ISZERO ISZERO SWAP1 DUP2 ISZERO ISZERO DUP2 MSTORE POP POP PUSH1 0x0 DUP1 PUSH1 0x1 PUSH1 0x3 DUP2 GT ISZERO PUSH2 0x957 JUMPI PUSH2 0x956 PUSH2 0x3EB7 JUMP JUMPDEST JUMPDEST DUP4 PUSH1 0x20 ADD MLOAD PUSH1 0x3 DUP2 GT ISZERO PUSH2 0x96E JUMPI PUSH2 0x96D PUSH2 0x3EB7 JUMP JUMPDEST JUMPDEST SUB PUSH2 0xA1F JUMPI DUP4 PUSH1 0x20 ADD MLOAD SWAP1 POP DUP3 PUSH2 0x180 ADD MLOAD SWAP2 POP PUSH1 0x2 PUSH1 0x0 SWAP1 SLOAD SWAP1 PUSH2 0x100 EXP SWAP1 DIV PUSH20 0xFFFFFFFFFFFFFFFFFFFFFFFFFFFFFFFFFFFFFFFF AND PUSH20 0xFFFFFFFFFFFFFFFFFFFFFFFFFFFFFFFFFFFFFFFF AND PUSH4 0xF242432A ADDRESS CALLER DUP7 PUSH2 0x140 ADD MLOAD DUP6 PUSH1 0x40 MLOAD DUP6 PUSH4 0xFFFFFFFF AND PUSH1 0xE0 SHL DUP2 MSTORE PUSH1 0x4 ADD PUSH2 0x9E8 SWAP5 SWAP4 SWAP3 SWAP2 SWAP1 PUSH2 0x48B8 JUMP JUMPDEST PUSH1 0x0 PUSH1 0x40 MLOAD DUP1 DUP4 SUB DUP2 PUSH1 0x0 DUP8 DUP1 EXTCODESIZE ISZERO DUP1 ISZERO PUSH2 0xA02 JUMPI PUSH1 0x0 DUP1 REVERT JUMPDEST POP GAS CALL ISZERO DUP1 ISZERO PUSH2 0xA16 JUMPI RETURNDATASIZE PUSH1 0x0 DUP1 RETURNDATACOPY RETURNDATASIZE PUSH1 0x0 REVERT JUMPDEST POP POP POP POP PUSH2 0xC7E JUMP JUMPDEST PUSH1 0x3 DUP1 DUP2 GT ISZERO PUSH2 0xA32 JUMPI PUSH2 0xA31 PUSH2 0x3EB7 JUMP JUMPDEST JUMPDEST DUP4 PUSH1 0x20 ADD MLOAD PUSH1 0x3 DUP2 GT ISZERO PUSH2 0xA49 JUMPI PUSH2 0xA48 PUSH2 0x3EB7 JUMP JUMPDEST JUMPDEST SUB PUSH2 0xAFA JUMPI DUP4 PUSH1 0x40 ADD MLOAD SWAP1 POP DUP3 PUSH2 0x1A0 ADD MLOAD SWAP2 POP PUSH1 0x2 PUSH1 0x0 SWAP1 SLOAD SWAP1 PUSH2 0x100 EXP SWAP1 DIV PUSH20 0xFFFFFFFFFFFFFFFFFFFFFFFFFFFFFFFFFFFFFFFF AND PUSH20 0xFFFFFFFFFFFFFFFFFFFFFFFFFFFFFFFFFFFFFFFF AND PUSH4 0xF242432A ADDRESS CALLER DUP7 PUSH2 0x160 ADD MLOAD DUP6 PUSH1 0x40 MLOAD DUP6 PUSH4 0xFFFFFFFF AND PUSH1 0xE0 SHL DUP2 MSTORE PUSH1 0x4 ADD PUSH2 0xAC3 SWAP5 SWAP4 SWAP3 SWAP2 SWAP1 PUSH2 0x48B8 JUMP JUMPDEST PUSH1 0x0 PUSH1 0x40 MLOAD DUP1 DUP4 SUB DUP2 PUSH1 0x0 DUP8 DUP1 EXTCODESIZE ISZERO DUP1 ISZERO PUSH2 0xADD JUMPI PUSH1 0x0 DUP1 REVERT JUMPDEST POP GAS CALL ISZERO DUP1 ISZERO PUSH2 0xAF1 JUMPI RETURNDATASIZE PUSH1 0x0 DUP1 RETURNDATACOPY RETURNDATASIZE PUSH1 0x0 REVERT JUMPDEST POP POP POP POP PUSH2 0xC7D JUMP JUMPDEST DUP4 PUSH1 0x80 ADD MLOAD DUP5 PUSH1 0x60 ADD MLOAD PUSH2 0xB0E SWAP2 SWAP1 PUSH2 0x493F JUMP JUMPDEST SWAP1 POP DUP3 PUSH2 0x1E0 ADD MLOAD DUP4 PUSH2 0x1C0 ADD MLOAD PUSH2 0xB26 SWAP2 SWAP1 PUSH2 0x493F JUMP JUMPDEST SWAP2 POP PUSH1 0x0 DUP5 PUSH1 0x60 ADD MLOAD GT ISZERO PUSH2 0xBD2 JUMPI PUSH1 0x2 PUSH1 0x0 SWAP1 SLOAD SWAP1 PUSH2 0x100 EXP SWAP1 DIV PUSH20 0xFFFFFFFFFFFFFFFFFFFFFFFFFFFFFFFFFFFFFFFF AND PUSH20 0xFFFFFFFFFFFFFFFFFFFFFFFFFFFFFFFFFFFFFFFF AND PUSH4 0xF242432A ADDRESS CALLER DUP7 PUSH2 0x140 ADD MLOAD DUP9 PUSH1 0x60 ADD MLOAD PUSH1 0x40 MLOAD DUP6 PUSH4 0xFFFFFFFF AND PUSH1 0xE0 SHL DUP2 MSTORE PUSH1 0x4 ADD PUSH2 0xB9F SWAP5 SWAP4 SWAP3 SWAP2 SWAP1 PUSH2 0x48B8 JUMP JUMPDEST PUSH1 0x0 PUSH1 0x40 MLOAD DUP1 DUP4 SUB DUP2 PUSH1 0x0 DUP8 DUP1 EXTCODESIZE ISZERO DUP1 ISZERO PUSH2 0xBB9 JUMPI PUSH1 0x0 DUP1 REVERT JUMPDEST POP GAS CALL ISZERO DUP1 ISZERO PUSH2 0xBCD JUMPI RETURNDATASIZE PUSH1 0x0 DUP1 RETURNDATACOPY RETURNDATASIZE PUSH1 0x0 REVERT JUMPDEST POP POP POP POP JUMPDEST PUSH1 0x0 DUP5 PUSH1 0x80 ADD MLOAD GT ISZERO PUSH2 0xC7C JUMPI PUSH1 0x2 PUSH1 0x0 SWAP1 SLOAD SWAP1 PUSH2 0x100 EXP SWAP1 DIV PUSH20 0xFFFFFFFFFFFFFFFFFFFFFFFFFFFFFFFFFFFFFFFF AND PUSH20 0xFFFFFFFFFFFFFFFFFFFFFFFFFFFFFFFFFFFFFFFF AND PUSH4 0xF242432A ADDRESS CALLER DUP7 PUSH2 0x160 ADD MLOAD DUP9 PUSH1 0x80 ADD MLOAD PUSH1 0x40 MLOAD DUP6 PUSH4 0xFFFFFFFF AND PUSH1 0xE0 SHL DUP2 MSTORE PUSH1 0x4 ADD PUSH2 0xC49 SWAP5 SWAP4 SWAP3 SWAP2 SWAP1 PUSH2 0x48B8 JUMP JUMPDEST PUSH1 0x0 PUSH1 0x40 MLOAD DUP1 DUP4 SUB DUP2 PUSH1 0x0 DUP8 DUP1 EXTCODESIZE ISZERO DUP1 ISZERO PUSH2 0xC63 JUMPI PUSH1 0x0 DUP1 REVERT JUMPDEST POP GAS CALL ISZERO DUP1 ISZERO PUSH2 0xC77 JUMPI RETURNDATASIZE PUSH1 0x0 DUP1 RETURNDATACOPY RETURNDATASIZE PUSH1 0x0 REVERT JUMPDEST POP POP POP POP JUMPDEST JUMPDEST JUMPDEST PUSH1 0x0 DUP3 DUP6 PUSH1 0x80 ADD MLOAD DUP7 PUSH1 0x60 ADD MLOAD DUP8 PUSH1 0x40 ADD MLOAD DUP9 PUSH1 0x20 ADD MLOAD PUSH2 0xC9F SWAP2 SWAP1 PUSH2 0x493F JUMP JUMPDEST PUSH2 0xCA9 SWAP2 SWAP1 PUSH2 0x493F JUMP JUMPDEST PUSH2 0xCB3 SWAP2 SWAP1 PUSH2 0x493F JUMP JUMPDEST PUSH2 0xCBD SWAP2 SWAP1 PUSH2 0x4973 JUMP JUMPDEST SWAP1 POP PUSH1 0x0 DUP3 DUP5 PUSH1 0x64 PUSH1 0x4 SLOAD PUSH1 0x5 SLOAD DUP7 PUSH2 0xCD6 SWAP2 SWAP1 PUSH2 0x49A7 JUMP JUMPDEST PUSH2 0xCE0 SWAP2 SWAP1 PUSH2 0x49A7 JUMP JUMPDEST PUSH2 0xCEA SWAP2 SWAP1 PUSH2 0x4A18 JUMP JUMPDEST PUSH2 0xCF4 SWAP2 SWAP1 PUSH2 0x4A18 JUMP JUMPDEST PUSH2 0xCFE SWAP2 SWAP1 PUSH2 0x49A7 JUMP JUMPDEST SWAP1 POP PUSH1 0x0 DUP2 GT ISZERO PUSH2 0xDAB JUMPI PUSH1 0x3 PUSH1 0x0 SWAP1 SLOAD SWAP1 PUSH2 0x100 EXP SWAP1 DIV PUSH20 0xFFFFFFFFFFFFFFFFFFFFFFFFFFFFFFFFFFFFFFFF AND PUSH20 0xFFFFFFFFFFFFFFFFFFFFFFFFFFFFFFFFFFFFFFFF AND PUSH4 0xA9059CBB CALLER DUP4 PUSH1 0x40 MLOAD DUP4 PUSH4 0xFFFFFFFF AND PUSH1 0xE0 SHL DUP2 MSTORE PUSH1 0x4 ADD PUSH2 0xD66 SWAP3 SWAP2 SWAP1 PUSH2 0x4A49 JUMP JUMPDEST PUSH1 0x20 PUSH1 0x40 MLOAD DUP1 DUP4 SUB DUP2 PUSH1 0x0 DUP8 GAS CALL ISZERO DUP1 ISZERO PUSH2 0xD85 JUMPI RETURNDATASIZE PUSH1 0x0 DUP1 RETURNDATACOPY RETURNDATASIZE PUSH1 0x0 REVERT JUMPDEST POP POP POP POP PUSH1 0x40 MLOAD RETURNDATASIZE PUSH1 0x1F NOT PUSH1 0x1F DUP3 ADD AND DUP3 ADD DUP1 PUSH1 0x40 MSTORE POP DUP2 ADD SWAP1 PUSH2 0xDA9 SWAP2 SWAP1 PUSH2 0x4A87 JUMP JUMPDEST POP JUMPDEST DUP6 PUSH1 0x7 PUSH1 0x0 CALLER PUSH20 0xFFFFFFFFFFFFFFFFFFFFFFFFFFFFFFFFFFFFFFFF AND PUSH20 0xFFFFFFFFFFFFFFFFFFFFFFFFFFFFFFFFFFFFFFFF AND DUP2 MSTORE PUSH1 0x20 ADD SWAP1 DUP2 MSTORE PUSH1 0x20 ADD PUSH1 0x0 KECCAK256 PUSH1 0x0 DUP10 PUSH2 0xFFFF AND PUSH2 0xFFFF AND DUP2 MSTORE PUSH1 0x20 ADD SWAP1 DUP2 MSTORE PUSH1 0x20 ADD PUSH1 0x0 KECCAK256 PUSH1 0x0 DUP3 ADD MLOAD DUP2 PUSH1 0x0 ADD PUSH1 0x0 PUSH2 0x100 EXP DUP2 SLOAD DUP2 PUSH2 0xFFFF MUL NOT AND SWAP1 DUP4 PUSH2 0xFFFF AND MUL OR SWAP1 SSTORE POP PUSH1 0x20 DUP3 ADD MLOAD DUP2 PUSH1 0x1 ADD SSTORE PUSH1 0x40 DUP3 ADD MLOAD DUP2 PUSH1 0x2 ADD SSTORE PUSH1 0x60 DUP3 ADD MLOAD DUP2 PUSH1 0x3 ADD SSTORE PUSH1 0x80 DUP3 ADD MLOAD DUP2 PUSH1 0x4 ADD SSTORE PUSH1 0xA0 DUP3 ADD MLOAD DUP2 PUSH1 0x5 ADD PUSH1 0x0 PUSH2 0x100 EXP DUP2 SLOAD DUP2 PUSH1 0xFF MUL NOT AND SWAP1 DUP4 ISZERO ISZERO MUL OR SWAP1 SSTORE POP SWAP1 POP POP CALLER PUSH20 0xFFFFFFFFFFFFFFFFFFFFFFFFFFFFFFFFFFFFFFFF AND PUSH32 0x37928B7E81BCB91F89AB0BC4EB993473DE24975366BEBF5B4E1E946F2C948807 DUP7 PUSH1 0x40 ADD MLOAD DUP4 PUSH1 0x40 MLOAD PUSH2 0xEBE SWAP3 SWAP2 SWAP1 PUSH2 0x4AB4 JUMP JUMPDEST PUSH1 0x40 MLOAD DUP1 SWAP2 SUB SWAP1 LOG2 POP POP POP POP POP POP POP JUMP JUMPDEST PUSH1 0x60 PUSH2 0xF18 PUSH1 0x8 PUSH1 0x0 DUP5 PUSH20 0xFFFFFFFFFFFFFFFFFFFFFFFFFFFFFFFFFFFFFFFF AND PUSH20 0xFFFFFFFFFFFFFFFFFFFFFFFFFFFFFFFFFFFFFFFF AND DUP2 MSTORE PUSH1 0x20 ADD SWAP1 DUP2 MSTORE PUSH1 0x20 ADD PUSH1 0x0 KECCAK256 PUSH2 0x364F JUMP JUMPDEST SWAP1 POP SWAP2 SWAP1 POP JUMP JUMPDEST PUSH2 0xF27 PUSH2 0x3670 JUMP JUMPDEST PUSH20 0xFFFFFFFFFFFFFFFFFFFFFFFFFFFFFFFFFFFFFFFF AND PUSH2 0xF45 PUSH2 0x1E0C JUMP JUMPDEST PUSH20 0xFFFFFFFFFFFFFFFFFFFFFFFFFFFFFFFFFFFFFFFF AND EQ PUSH2 0xF9B JUMPI PUSH1 0x40 MLOAD PUSH32 0x8C379A000000000000000000000000000000000000000000000000000000000 DUP2 MSTORE PUSH1 0x4 ADD PUSH2 0xF92 SWAP1 PUSH2 0x4B4F JUMP JUMPDEST PUSH1 0x40 MLOAD DUP1 SWAP2 SUB SWAP1 REVERT JUMPDEST DUP2 PUSH20 0xFFFFFFFFFFFFFFFFFFFFFFFFFFFFFFFFFFFFFFFF AND PUSH32 0x82F1FA40A3D82DEA3E406073819290601F436580AA7C69F9FEB61F885BDD8854 PUSH1 0x0 DUP1 DUP6 PUSH20 0xFFFFFFFFFFFFFFFFFFFFFFFFFFFFFFFFFFFFFFFF AND PUSH20 0xFFFFFFFFFFFFFFFFFFFFFFFFFFFFFFFFFFFFFFFF AND DUP2 MSTORE PUSH1 0x20 ADD SWAP1 DUP2 MSTORE PUSH1 0x20 ADD PUSH1 0x0 KECCAK256 PUSH1 0x0 SWAP1 SLOAD SWAP1 PUSH2 0x100 EXP SWAP1 DIV PUSH1 0xFF AND DUP4 PUSH1 0x40 MLOAD PUSH2 0x102E SWAP3 SWAP2 SWAP1 PUSH2 0x4B6F JUMP JUMPDEST PUSH1 0x40 MLOAD DUP1 SWAP2 SUB SWAP1 LOG2 DUP1 PUSH1 0x0 DUP1 DUP5 PUSH20 0xFFFFFFFFFFFFFFFFFFFFFFFFFFFFFFFFFFFFFFFF AND PUSH20 0xFFFFFFFFFFFFFFFFFFFFFFFFFFFFFFFFFFFFFFFF AND DUP2 MSTORE PUSH1 0x20 ADD SWAP1 DUP2 MSTORE PUSH1 0x20 ADD PUSH1 0x0 KECCAK256 PUSH1 0x0 PUSH2 0x100 EXP DUP2 SLOAD DUP2 PUSH1 0xFF MUL NOT AND SWAP1 DUP4 ISZERO ISZERO MUL OR SWAP1 SSTORE POP POP POP JUMP JUMPDEST PUSH2 0x10A0 PUSH2 0x109B PUSH2 0x3670 JUMP JUMPDEST PUSH2 0x1881 JUMP JUMPDEST PUSH2 0x10DF JUMPI PUSH1 0x40 MLOAD PUSH32 0x8C379A000000000000000000000000000000000000000000000000000000000 DUP2 MSTORE PUSH1 0x4 ADD PUSH2 0x10D6 SWAP1 PUSH2 0x4C0A JUMP JUMPDEST PUSH1 0x40 MLOAD DUP1 SWAP2 SUB SWAP1 REVERT JUMPDEST TIMESTAMP DUP5 GT PUSH2 0x1121 JUMPI PUSH1 0x40 MLOAD PUSH32 0x8C379A000000000000000000000000000000000000000000000000000000000 DUP2 MSTORE PUSH1 0x4 ADD PUSH2 0x1118 SWAP1 PUSH2 0x4C9C JUMP JUMPDEST PUSH1 0x40 MLOAD DUP1 SWAP2 SUB SWAP1 REVERT JUMPDEST PUSH1 0x20 DUP3 GT ISZERO DUP1 ISZERO PUSH2 0x1133 JUMPI POP PUSH1 0x20 DUP2 GT ISZERO JUMPDEST PUSH2 0x1172 JUMPI PUSH1 0x40 MLOAD PUSH32 0x8C379A000000000000000000000000000000000000000000000000000000000 DUP2 MSTORE PUSH1 0x4 ADD PUSH2 0x1169 SWAP1 PUSH2 0x4D08 JUMP JUMPDEST PUSH1 0x40 MLOAD DUP1 SWAP2 SUB SWAP1 REVERT JUMPDEST PUSH1 0x3 PUSH1 0x14 DUP2 DUP2 SWAP1 SLOAD SWAP1 PUSH2 0x100 EXP SWAP1 DIV PUSH2 0xFFFF AND DUP1 SWAP3 SWAP2 SWAP1 PUSH2 0x1192 SWAP1 PUSH2 0x4D28 JUMP JUMPDEST SWAP2 SWAP1 PUSH2 0x100 EXP DUP2 SLOAD DUP2 PUSH2 0xFFFF MUL NOT AND SWAP1 DUP4 PUSH2 0xFFFF AND MUL OR SWAP1 SSTORE POP POP PUSH1 0x40 MLOAD DUP1 PUSH2 0x200 ADD PUSH1 0x40 MSTORE DUP1 DUP9 PUSH1 0x1 DUP2 GT ISZERO PUSH2 0x11CC JUMPI PUSH2 0x11CB PUSH2 0x3EB7 JUMP JUMPDEST JUMPDEST DUP2 MSTORE PUSH1 0x20 ADD PUSH1 0x0 PUSH1 0x3 DUP2 GT ISZERO PUSH2 0x11E5 JUMPI PUSH2 0x11E4 PUSH2 0x3EB7 JUMP JUMPDEST JUMPDEST DUP2 MSTORE PUSH1 0x20 ADD PUSH1 0x3 PUSH1 0x14 SWAP1 SLOAD SWAP1 PUSH2 0x100 EXP SWAP1 DIV PUSH2 0xFFFF AND PUSH2 0xFFFF AND DUP2 MSTORE PUSH1 0x20 ADD DUP8 PUSH2 0xFFFF AND DUP2 MSTORE PUSH1 0x20 ADD DUP7 PUSH2 0xFFFF AND DUP2 MSTORE PUSH1 0x20 ADD PUSH1 0x0 PUSH2 0xFFFF AND DUP2 MSTORE PUSH1 0x20 ADD PUSH1 0x0 PUSH2 0xFFFF AND DUP2 MSTORE PUSH1 0x20 ADD DUP6 DUP2 MSTORE PUSH1 0x20 ADD DUP5 DUP2 MSTORE PUSH1 0x20 ADD PUSH1 0x0 DUP2 MSTORE PUSH1 0x20 ADD DUP4 DUP2 MSTORE PUSH1 0x20 ADD DUP3 DUP2 MSTORE PUSH1 0x20 ADD PUSH1 0x0 DUP2 MSTORE PUSH1 0x20 ADD PUSH1 0x0 DUP2 MSTORE PUSH1 0x20 ADD PUSH1 0x0 DUP2 MSTORE PUSH1 0x20 ADD PUSH1 0x0 DUP2 MSTORE POP PUSH1 0x6 PUSH1 0x0 PUSH1 0x3 PUSH1 0x14 SWAP1 SLOAD SWAP1 PUSH2 0x100 EXP SWAP1 DIV PUSH2 0xFFFF AND PUSH2 0xFFFF AND PUSH2 0xFFFF AND DUP2 MSTORE PUSH1 0x20 ADD SWAP1 DUP2 MSTORE PUSH1 0x20 ADD PUSH1 0x0 KECCAK256 PUSH1 0x0 DUP3 ADD MLOAD DUP2 PUSH1 0x0 ADD PUSH1 0x0 PUSH2 0x100 EXP DUP2 SLOAD DUP2 PUSH1 0xFF MUL NOT AND SWAP1 DUP4 PUSH1 0x1 DUP2 GT ISZERO PUSH2 0x12BD JUMPI PUSH2 0x12BC PUSH2 0x3EB7 JUMP JUMPDEST JUMPDEST MUL OR SWAP1 SSTORE POP PUSH1 0x20 DUP3 ADD MLOAD DUP2 PUSH1 0x0 ADD PUSH1 0x1 PUSH2 0x100 EXP DUP2 SLOAD DUP2 PUSH1 0xFF MUL NOT AND SWAP1 DUP4 PUSH1 0x3 DUP2 GT ISZERO PUSH2 0x12ED JUMPI PUSH2 0x12EC PUSH2 0x3EB7 JUMP JUMPDEST JUMPDEST MUL OR SWAP1 SSTORE POP PUSH1 0x40 DUP3 ADD MLOAD DUP2 PUSH1 0x0 ADD PUSH1 0x2 PUSH2 0x100 EXP DUP2 SLOAD DUP2 PUSH2 0xFFFF MUL NOT AND SWAP1 DUP4 PUSH2 0xFFFF AND MUL OR SWAP1 SSTORE POP PUSH1 0x60 DUP3 ADD MLOAD DUP2 PUSH1 0x0 ADD PUSH1 0x4 PUSH2 0x100 EXP DUP2 SLOAD DUP2 PUSH2 0xFFFF MUL NOT AND SWAP1 DUP4 PUSH2 0xFFFF AND MUL OR SWAP1 SSTORE POP PUSH1 0x80 DUP3 ADD MLOAD DUP2 PUSH1 0x0 ADD PUSH1 0x6 PUSH2 0x100 EXP DUP2 SLOAD DUP2 PUSH2 0xFFFF MUL NOT AND SWAP1 DUP4 PUSH2 0xFFFF AND MUL OR SWAP1 SSTORE POP PUSH1 0xA0 DUP3 ADD MLOAD DUP2 PUSH1 0x0 ADD PUSH1 0x8 PUSH2 0x100 EXP DUP2 SLOAD DUP2 PUSH2 0xFFFF MUL NOT AND SWAP1 DUP4 PUSH2 0xFFFF AND MUL OR SWAP1 SSTORE POP PUSH1 0xC0 DUP3 ADD MLOAD DUP2 PUSH1 0x0 ADD PUSH1 0xA PUSH2 0x100 EXP DUP2 SLOAD DUP2 PUSH2 0xFFFF MUL NOT AND SWAP1 DUP4 PUSH2 0xFFFF AND MUL OR SWAP1 SSTORE POP PUSH1 0xE0 DUP3 ADD MLOAD DUP2 PUSH1 0x1 ADD SSTORE PUSH2 0x100 DUP3 ADD MLOAD DUP2 PUSH1 0x2 ADD SSTORE PUSH2 0x120 DUP3 ADD MLOAD DUP2 PUSH1 0x3 ADD SSTORE PUSH2 0x140 DUP3 ADD MLOAD DUP2 PUSH1 0x4 ADD SSTORE PUSH2 0x160 DUP3 ADD MLOAD DUP2 PUSH1 0x5 ADD SSTORE PUSH2 0x180 DUP3 ADD MLOAD DUP2 PUSH1 0x6 ADD SSTORE PUSH2 0x1A0 DUP3 ADD MLOAD DUP2 PUSH1 0x7 ADD SSTORE PUSH2 0x1C0 DUP3 ADD MLOAD DUP2 PUSH1 0x8 ADD SSTORE PUSH2 0x1E0 DUP3 ADD MLOAD DUP2 PUSH1 0x9 ADD SSTORE SWAP1 POP POP CALLER PUSH20 0xFFFFFFFFFFFFFFFFFFFFFFFFFFFFFFFFFFFFFFFF AND PUSH32 0x9E386E351C3AF738EDECA6A05E587D1458CB5F3193ABBBE09DCCB7DE296711D DUP9 PUSH1 0x3 PUSH1 0x14 SWAP1 SLOAD SWAP1 PUSH2 0x100 EXP SWAP1 DIV PUSH2 0xFFFF AND DUP10 DUP10 DUP10 DUP10 DUP10 DUP10 PUSH1 0x40 MLOAD PUSH2 0x146A SWAP9 SWAP8 SWAP7 SWAP6 SWAP5 SWAP4 SWAP3 SWAP2 SWAP1 PUSH2 0x4D61 JUMP JUMPDEST PUSH1 0x40 MLOAD DUP1 SWAP2 SUB SWAP1 LOG2 POP POP POP POP POP POP POP JUMP JUMPDEST PUSH1 0x0 DUP1 PUSH1 0x6 PUSH1 0x0 DUP5 PUSH2 0xFFFF AND PUSH2 0xFFFF AND DUP2 MSTORE PUSH1 0x20 ADD SWAP1 DUP2 MSTORE PUSH1 0x20 ADD PUSH1 0x0 KECCAK256 PUSH1 0x40 MLOAD DUP1 PUSH2 0x200 ADD PUSH1 0x40 MSTORE SWAP1 DUP2 PUSH1 0x0 DUP3 ADD PUSH1 0x0 SWAP1 SLOAD SWAP1 PUSH2 0x100 EXP SWAP1 DIV PUSH1 0xFF AND PUSH1 0x1 DUP2 GT ISZERO PUSH2 0x14CA JUMPI PUSH2 0x14C9 PUSH2 0x3EB7 JUMP JUMPDEST JUMPDEST PUSH1 0x1 DUP2 GT ISZERO PUSH2 0x14DC JUMPI PUSH2 0x14DB PUSH2 0x3EB7 JUMP JUMPDEST JUMPDEST DUP2 MSTORE PUSH1 0x20 ADD PUSH1 0x0 DUP3 ADD PUSH1 0x1 SWAP1 SLOAD SWAP1 PUSH2 0x100 EXP SWAP1 DIV PUSH1 0xFF AND PUSH1 0x3 DUP2 GT ISZERO PUSH2 0x1505 JUMPI PUSH2 0x1504 PUSH2 0x3EB7 JUMP JUMPDEST JUMPDEST PUSH1 0x3 DUP2 GT ISZERO PUSH2 0x1517 JUMPI PUSH2 0x1516 PUSH2 0x3EB7 JUMP JUMPDEST JUMPDEST DUP2 MSTORE PUSH1 0x20 ADD PUSH1 0x0 DUP3 ADD PUSH1 0x2 SWAP1 SLOAD SWAP1 PUSH2 0x100 EXP SWAP1 DIV PUSH2 0xFFFF AND PUSH2 0xFFFF AND PUSH2 0xFFFF AND DUP2 MSTORE PUSH1 0x20 ADD PUSH1 0x0 DUP3 ADD PUSH1 0x4 SWAP1 SLOAD SWAP1 PUSH2 0x100 EXP SWAP1 DIV PUSH2 0xFFFF AND PUSH2 0xFFFF AND PUSH2 0xFFFF AND DUP2 MSTORE PUSH1 0x20 ADD PUSH1 0x0 DUP3 ADD PUSH1 0x6 SWAP1 SLOAD SWAP1 PUSH2 0x100 EXP SWAP1 DIV PUSH2 0xFFFF AND PUSH2 0xFFFF AND PUSH2 0xFFFF AND DUP2 MSTORE PUSH1 0x20 ADD PUSH1 0x0 DUP3 ADD PUSH1 0x8 SWAP1 SLOAD SWAP1 PUSH2 0x100 EXP SWAP1 DIV PUSH2 0xFFFF AND PUSH2 0xFFFF AND PUSH2 0xFFFF AND DUP2 MSTORE PUSH1 0x20 ADD PUSH1 0x0 DUP3 ADD PUSH1 0xA SWAP1 SLOAD SWAP1 PUSH2 0x100 EXP SWAP1 DIV PUSH2 0xFFFF AND PUSH2 0xFFFF AND PUSH2 0xFFFF AND DUP2 MSTORE PUSH1 0x20 ADD PUSH1 0x1 DUP3 ADD SLOAD DUP2 MSTORE PUSH1 0x20 ADD PUSH1 0x2 DUP3 ADD SLOAD DUP2 MSTORE PUSH1 0x20 ADD PUSH1 0x3 DUP3 ADD SLOAD DUP2 MSTORE PUSH1 0x20 ADD PUSH1 0x4 DUP3 ADD SLOAD DUP2 MSTORE PUSH1 0x20 ADD PUSH1 0x5 DUP3 ADD SLOAD DUP2 MSTORE PUSH1 0x20 ADD PUSH1 0x6 DUP3 ADD SLOAD DUP2 MSTORE PUSH1 0x20 ADD PUSH1 0x7 DUP3 ADD SLOAD DUP2 MSTORE PUSH1 0x20 ADD PUSH1 0x8 DUP3 ADD SLOAD DUP2 MSTORE PUSH1 0x20 ADD PUSH1 0x9 DUP3 ADD SLOAD DUP2 MSTORE POP POP SWAP1 POP PUSH1 0x0 DUP2 PUSH1 0x40 ADD MLOAD PUSH2 0xFFFF AND EQ DUP1 PUSH2 0x1633 JUMPI POP PUSH1 0x0 DUP2 PUSH2 0x120 ADD MLOAD EQ JUMPDEST ISZERO PUSH2 0x1642 JUMPI PUSH1 0x0 SWAP2 POP POP PUSH2 0x187B JUMP JUMPDEST PUSH1 0x0 PUSH1 0x7 PUSH1 0x0 DUP7 PUSH20 0xFFFFFFFFFFFFFFFFFFFFFFFFFFFFFFFFFFFFFFFF AND PUSH20 0xFFFFFFFFFFFFFFFFFFFFFFFFFFFFFFFFFFFFFFFF AND DUP2 MSTORE PUSH1 0x20 ADD SWAP1 DUP2 MSTORE PUSH1 0x20 ADD PUSH1 0x0 KECCAK256 PUSH1 0x0 DUP6 PUSH2 0xFFFF AND PUSH2 0xFFFF AND DUP2 MSTORE PUSH1 0x20 ADD SWAP1 DUP2 MSTORE PUSH1 0x20 ADD PUSH1 0x0 KECCAK256 PUSH1 0x40 MLOAD DUP1 PUSH1 0xC0 ADD PUSH1 0x40 MSTORE SWAP1 DUP2 PUSH1 0x0 DUP3 ADD PUSH1 0x0 SWAP1 SLOAD SWAP1 PUSH2 0x100 EXP SWAP1 DIV PUSH2 0xFFFF AND PUSH2 0xFFFF AND PUSH2 0xFFFF AND DUP2 MSTORE PUSH1 0x20 ADD PUSH1 0x1 DUP3 ADD SLOAD DUP2 MSTORE PUSH1 0x20 ADD PUSH1 0x2 DUP3 ADD SLOAD DUP2 MSTORE PUSH1 0x20 ADD PUSH1 0x3 DUP3 ADD SLOAD DUP2 MSTORE PUSH1 0x20 ADD PUSH1 0x4 DUP3 ADD SLOAD DUP2 MSTORE PUSH1 0x20 ADD PUSH1 0x5 DUP3 ADD PUSH1 0x0 SWAP1 SLOAD SWAP1 PUSH2 0x100 EXP SWAP1 DIV PUSH1 0xFF AND ISZERO ISZERO ISZERO ISZERO DUP2 MSTORE POP POP SWAP1 POP PUSH1 0x0 DUP2 PUSH1 0x0 ADD MLOAD PUSH2 0xFFFF AND EQ DUP1 PUSH2 0x172B JUMPI POP PUSH1 0x1 ISZERO ISZERO DUP2 PUSH1 0xA0 ADD MLOAD ISZERO ISZERO EQ JUMPDEST ISZERO PUSH2 0x173B JUMPI PUSH1 0x0 SWAP3 POP POP POP PUSH2 0x187B JUMP JUMPDEST PUSH1 0x0 DUP1 PUSH1 0x1 PUSH1 0x3 DUP2 GT ISZERO PUSH2 0x1752 JUMPI PUSH2 0x1751 PUSH2 0x3EB7 JUMP JUMPDEST JUMPDEST DUP5 PUSH1 0x20 ADD MLOAD PUSH1 0x3 DUP2 GT ISZERO PUSH2 0x1769 JUMPI PUSH2 0x1768 PUSH2 0x3EB7 JUMP JUMPDEST JUMPDEST SUB PUSH2 0x1782 JUMPI DUP3 PUSH1 0x20 ADD MLOAD SWAP1 POP DUP4 PUSH2 0x180 ADD MLOAD SWAP2 POP PUSH2 0x17F5 JUMP JUMPDEST PUSH1 0x3 DUP1 DUP2 GT ISZERO PUSH2 0x1795 JUMPI PUSH2 0x1794 PUSH2 0x3EB7 JUMP JUMPDEST JUMPDEST DUP5 PUSH1 0x20 ADD MLOAD PUSH1 0x3 DUP2 GT ISZERO PUSH2 0x17AC JUMPI PUSH2 0x17AB PUSH2 0x3EB7 JUMP JUMPDEST JUMPDEST SUB PUSH2 0x17C5 JUMPI DUP3 PUSH1 0x40 ADD MLOAD SWAP1 POP DUP4 PUSH2 0x1A0 ADD MLOAD SWAP2 POP PUSH2 0x17F4 JUMP JUMPDEST DUP3 PUSH1 0x80 ADD MLOAD DUP4 PUSH1 0x60 ADD MLOAD PUSH2 0x17D9 SWAP2 SWAP1 PUSH2 0x493F JUMP JUMPDEST SWAP1 POP DUP4 PUSH2 0x1E0 ADD MLOAD DUP5 PUSH2 0x1C0 ADD MLOAD PUSH2 0x17F1 SWAP2 SWAP1 PUSH2 0x493F JUMP JUMPDEST SWAP2 POP JUMPDEST JUMPDEST PUSH1 0x0 DUP3 DUP5 PUSH1 0x80 ADD MLOAD DUP6 PUSH1 0x60 ADD MLOAD DUP7 PUSH1 0x40 ADD MLOAD DUP8 PUSH1 0x20 ADD MLOAD PUSH2 0x1816 SWAP2 SWAP1 PUSH2 0x493F JUMP JUMPDEST PUSH2 0x1820 SWAP2 SWAP1 PUSH2 0x493F JUMP JUMPDEST PUSH2 0x182A SWAP2 SWAP1 PUSH2 0x493F JUMP JUMPDEST PUSH2 0x1834 SWAP2 SWAP1 PUSH2 0x4973 JUMP JUMPDEST SWAP1 POP DUP2 DUP4 PUSH1 0x64 PUSH1 0x4 SLOAD PUSH1 0x5 SLOAD DUP6 PUSH2 0x184B SWAP2 SWAP1 PUSH2 0x49A7 JUMP JUMPDEST PUSH2 0x1855 SWAP2 SWAP1 PUSH2 0x49A7 JUMP JUMPDEST PUSH2 0x185F SWAP2 SWAP1 PUSH2 0x4A18 JUMP JUMPDEST PUSH2 0x1869 SWAP2 SWAP1 PUSH2 0x4A18 JUMP JUMPDEST PUSH2 0x1873 SWAP2 SWAP1 PUSH2 0x49A7 JUMP JUMPDEST SWAP6 POP POP POP POP POP POP JUMPDEST SWAP3 SWAP2 POP POP JUMP JUMPDEST PUSH1 0x0 DUP1 PUSH1 0x0 DUP4 PUSH20 0xFFFFFFFFFFFFFFFFFFFFFFFFFFFFFFFFFFFFFFFF AND PUSH20 0xFFFFFFFFFFFFFFFFFFFFFFFFFFFFFFFFFFFFFFFF AND DUP2 MSTORE PUSH1 0x20 ADD SWAP1 DUP2 MSTORE PUSH1 0x20 ADD PUSH1 0x0 KECCAK256 PUSH1 0x0 SWAP1 SLOAD SWAP1 PUSH2 0x100 EXP SWAP1 DIV PUSH1 0xFF AND SWAP1 POP SWAP2 SWAP1 POP JUMP JUMPDEST PUSH1 0x2 PUSH1 0x0 SWAP1 SLOAD SWAP1 PUSH2 0x100 EXP SWAP1 DIV PUSH20 0xFFFFFFFFFFFFFFFFFFFFFFFFFFFFFFFFFFFFFFFF AND DUP2 JUMP JUMPDEST PUSH1 0x4 SLOAD DUP2 JUMP JUMPDEST PUSH2 0x190A PUSH2 0x3670 JUMP JUMPDEST PUSH20 0xFFFFFFFFFFFFFFFFFFFFFFFFFFFFFFFFFFFFFFFF AND PUSH2 0x1928 PUSH2 0x1E0C JUMP JUMPDEST PUSH20 0xFFFFFFFFFFFFFFFFFFFFFFFFFFFFFFFFFFFFFFFF AND EQ PUSH2 0x197E JUMPI PUSH1 0x40 MLOAD PUSH32 0x8C379A000000000000000000000000000000000000000000000000000000000 DUP2 MSTORE PUSH1 0x4 ADD PUSH2 0x1975 SWAP1 PUSH2 0x4B4F JUMP JUMPDEST PUSH1 0x40 MLOAD DUP1 SWAP2 SUB SWAP1 REVERT JUMPDEST DUP1 PUSH1 0x4 DUP2 SWAP1 SSTORE POP POP JUMP JUMPDEST PUSH2 0x1990 PUSH2 0x3670 JUMP JUMPDEST PUSH20 0xFFFFFFFFFFFFFFFFFFFFFFFFFFFFFFFFFFFFFFFF AND PUSH2 0x19AE PUSH2 0x1E0C JUMP JUMPDEST PUSH20 0xFFFFFFFFFFFFFFFFFFFFFFFFFFFFFFFFFFFFFFFF AND EQ PUSH2 0x1A04 JUMPI PUSH1 0x40 MLOAD PUSH32 0x8C379A000000000000000000000000000000000000000000000000000000000 DUP2 MSTORE PUSH1 0x4 ADD PUSH2 0x19FB SWAP1 PUSH2 0x4B4F JUMP JUMPDEST PUSH1 0x40 MLOAD DUP1 SWAP2 SUB SWAP1 REVERT JUMPDEST DUP1 PUSH1 0x2 PUSH1 0x0 PUSH2 0x100 EXP DUP2 SLOAD DUP2 PUSH20 0xFFFFFFFFFFFFFFFFFFFFFFFFFFFFFFFFFFFFFFFF MUL NOT AND SWAP1 DUP4 PUSH20 0xFFFFFFFFFFFFFFFFFFFFFFFFFFFFFFFFFFFFFFFF AND MUL OR SWAP1 SSTORE POP POP JUMP JUMPDEST PUSH2 0x1A50 PUSH2 0x3670 JUMP JUMPDEST PUSH20 0xFFFFFFFFFFFFFFFFFFFFFFFFFFFFFFFFFFFFFFFF AND PUSH2 0x1A6E PUSH2 0x1E0C JUMP JUMPDEST PUSH20 0xFFFFFFFFFFFFFFFFFFFFFFFFFFFFFFFFFFFFFFFF AND EQ PUSH2 0x1AC4 JUMPI PUSH1 0x40 MLOAD PUSH32 0x8C379A000000000000000000000000000000000000000000000000000000000 DUP2 MSTORE PUSH1 0x4 ADD PUSH2 0x1ABB SWAP1 PUSH2 0x4B4F JUMP JUMPDEST PUSH1 0x40 MLOAD DUP1 SWAP2 SUB SWAP1 REVERT JUMPDEST PUSH2 0x1ACE PUSH1 0x0 PUSH2 0x3678 JUMP JUMPDEST JUMP JUMPDEST PUSH2 0x1AD8 PUSH2 0x3847 JUMP JUMPDEST PUSH1 0x7 PUSH1 0x0 DUP5 PUSH20 0xFFFFFFFFFFFFFFFFFFFFFFFFFFFFFFFFFFFFFFFF AND PUSH20 0xFFFFFFFFFFFFFFFFFFFFFFFFFFFFFFFFFFFFFFFF AND DUP2 MSTORE PUSH1 0x20 ADD SWAP1 DUP2 MSTORE PUSH1 0x20 ADD PUSH1 0x0 KECCAK256 PUSH1 0x0 DUP4 PUSH2 0xFFFF AND PUSH2 0xFFFF AND DUP2 MSTORE PUSH1 0x20 ADD SWAP1 DUP2 MSTORE PUSH1 0x20 ADD PUSH1 0x0 KECCAK256 PUSH1 0x40 MLOAD DUP1 PUSH1 0xC0 ADD PUSH1 0x40 MSTORE SWAP1 DUP2 PUSH1 0x0 DUP3 ADD PUSH1 0x0 SWAP1 SLOAD SWAP1 PUSH2 0x100 EXP SWAP1 DIV PUSH2 0xFFFF AND PUSH2 0xFFFF AND PUSH2 0xFFFF AND DUP2 MSTORE PUSH1 0x20 ADD PUSH1 0x1 DUP3 ADD SLOAD DUP2 MSTORE PUSH1 0x20 ADD PUSH1 0x2 DUP3 ADD SLOAD DUP2 MSTORE PUSH1 0x20 ADD PUSH1 0x3 DUP3 ADD SLOAD DUP2 MSTORE PUSH1 0x20 ADD PUSH1 0x4 DUP3 ADD SLOAD DUP2 MSTORE PUSH1 0x20 ADD PUSH1 0x5 DUP3 ADD PUSH1 0x0 SWAP1 SLOAD SWAP1 PUSH2 0x100 EXP SWAP1 DIV PUSH1 0xFF AND ISZERO ISZERO ISZERO ISZERO DUP2 MSTORE POP POP SWAP1 POP SWAP3 SWAP2 POP POP JUMP JUMPDEST PUSH2 0x1BAE PUSH2 0x3883 JUMP JUMPDEST PUSH1 0x6 PUSH1 0x0 DUP4 PUSH2 0xFFFF AND PUSH2 0xFFFF AND DUP2 MSTORE PUSH1 0x20 ADD SWAP1 DUP2 MSTORE PUSH1 0x20 ADD PUSH1 0x0 KECCAK256 PUSH1 0x40 MLOAD DUP1 PUSH2 0x200 ADD PUSH1 0x40 MSTORE SWAP1 DUP2 PUSH1 0x0 DUP3 ADD PUSH1 0x0 SWAP1 SLOAD SWAP1 PUSH2 0x100 EXP SWAP1 DIV PUSH1 0xFF AND PUSH1 0x1 DUP2 GT ISZERO PUSH2 0x1BFA JUMPI PUSH2 0x1BF9 PUSH2 0x3EB7 JUMP JUMPDEST JUMPDEST PUSH1 0x1 DUP2 GT ISZERO PUSH2 0x1C0C JUMPI PUSH2 0x1C0B PUSH2 0x3EB7 JUMP JUMPDEST JUMPDEST DUP2 MSTORE PUSH1 0x20 ADD PUSH1 0x0 DUP3 ADD PUSH1 0x1 SWAP1 SLOAD SWAP1 PUSH2 0x100 EXP SWAP1 DIV PUSH1 0xFF AND PUSH1 0x3 DUP2 GT ISZERO PUSH2 0x1C35 JUMPI PUSH2 0x1C34 PUSH2 0x3EB7 JUMP JUMPDEST JUMPDEST PUSH1 0x3 DUP2 GT ISZERO PUSH2 0x1C47 JUMPI PUSH2 0x1C46 PUSH2 0x3EB7 JUMP JUMPDEST JUMPDEST DUP2 MSTORE PUSH1 0x20 ADD PUSH1 0x0 DUP3 ADD PUSH1 0x2 SWAP1 SLOAD SWAP1 PUSH2 0x100 EXP SWAP1 DIV PUSH2 0xFFFF AND PUSH2 0xFFFF AND PUSH2 0xFFFF AND DUP2 MSTORE PUSH1 0x20 ADD PUSH1 0x0 DUP3 ADD PUSH1 0x4 SWAP1 SLOAD SWAP1 PUSH2 0x100 EXP SWAP1 DIV PUSH2 0xFFFF AND PUSH2 0xFFFF AND PUSH2 0xFFFF AND DUP2 MSTORE PUSH1 0x20 ADD PUSH1 0x0 DUP3 ADD PUSH1 0x6 SWAP1 SLOAD SWAP1 PUSH2 0x100 EXP SWAP1 DIV PUSH2 0xFFFF AND PUSH2 0xFFFF AND PUSH2 0xFFFF AND DUP2 MSTORE PUSH1 0x20 ADD PUSH1 0x0 DUP3 ADD PUSH1 0x8 SWAP1 SLOAD SWAP1 PUSH2 0x100 EXP SWAP1 DIV PUSH2 0xFFFF AND PUSH2 0xFFFF AND PUSH2 0xFFFF AND DUP2 MSTORE PUSH1 0x20 ADD PUSH1 0x0 DUP3 ADD PUSH1 0xA SWAP1 SLOAD SWAP1 PUSH2 0x100 EXP SWAP1 DIV PUSH2 0xFFFF AND PUSH2 0xFFFF AND PUSH2 0xFFFF AND DUP2 MSTORE PUSH1 0x20 ADD PUSH1 0x1 DUP3 ADD SLOAD DUP2 MSTORE PUSH1 0x20 ADD PUSH1 0x2 DUP3 ADD SLOAD DUP2 MSTORE PUSH1 0x20 ADD PUSH1 0x3 DUP3 ADD SLOAD DUP2 MSTORE PUSH1 0x20 ADD PUSH1 0x4 DUP3 ADD SLOAD DUP2 MSTORE PUSH1 0x20 ADD PUSH1 0x5 DUP3 ADD SLOAD DUP2 MSTORE PUSH1 0x20 ADD PUSH1 0x6 DUP3 ADD SLOAD DUP2 MSTORE PUSH1 0x20 ADD PUSH1 0x7 DUP3 ADD SLOAD DUP2 MSTORE PUSH1 0x20 ADD PUSH1 0x8 DUP3 ADD SLOAD DUP2 MSTORE PUSH1 0x20 ADD PUSH1 0x9 DUP3 ADD SLOAD DUP2 MSTORE POP POP SWAP1 POP SWAP2 SWAP1 POP JUMP JUMPDEST PUSH2 0x1D54 PUSH2 0x3670 JUMP JUMPDEST PUSH20 0xFFFFFFFFFFFFFFFFFFFFFFFFFFFFFFFFFFFFFFFF AND PUSH2 0x1D72 PUSH2 0x1E0C JUMP JUMPDEST PUSH20 0xFFFFFFFFFFFFFFFFFFFFFFFFFFFFFFFFFFFFFFFF AND EQ PUSH2 0x1DC8 JUMPI PUSH1 0x40 MLOAD PUSH32 0x8C379A000000000000000000000000000000000000000000000000000000000 DUP2 MSTORE PUSH1 0x4 ADD PUSH2 0x1DBF SWAP1 PUSH2 0x4B4F JUMP JUMPDEST PUSH1 0x40 MLOAD DUP1 SWAP2 SUB SWAP1 REVERT JUMPDEST DUP1 PUSH1 0x3 PUSH1 0x0 PUSH2 0x100 EXP DUP2 SLOAD DUP2 PUSH20 0xFFFFFFFFFFFFFFFFFFFFFFFFFFFFFFFFFFFFFFFF MUL NOT AND SWAP1 DUP4 PUSH20 0xFFFFFFFFFFFFFFFFFFFFFFFFFFFFFFFFFFFFFFFF AND MUL OR SWAP1 SSTORE POP POP JUMP JUMPDEST PUSH1 0x0 PUSH1 0x1 PUSH1 0x0 SWAP1 SLOAD SWAP1 PUSH2 0x100 EXP SWAP1 DIV PUSH20 0xFFFFFFFFFFFFFFFFFFFFFFFFFFFFFFFFFFFFFFFF AND SWAP1 POP SWAP1 JUMP JUMPDEST PUSH2 0x1E3E PUSH2 0x3670 JUMP JUMPDEST PUSH20 0xFFFFFFFFFFFFFFFFFFFFFFFFFFFFFFFFFFFFFFFF AND PUSH2 0x1E5C PUSH2 0x1E0C JUMP JUMPDEST PUSH20 0xFFFFFFFFFFFFFFFFFFFFFFFFFFFFFFFFFFFFFFFF AND EQ PUSH2 0x1EB2 JUMPI PUSH1 0x40 MLOAD PUSH32 0x8C379A000000000000000000000000000000000000000000000000000000000 DUP2 MSTORE PUSH1 0x4 ADD PUSH2 0x1EA9 SWAP1 PUSH2 0x4B4F JUMP JUMPDEST PUSH1 0x40 MLOAD DUP1 SWAP2 SUB SWAP1 REVERT JUMPDEST DUP3 PUSH20 0xFFFFFFFFFFFFFFFFFFFFFFFFFFFFFFFFFFFFFFFF AND PUSH4 0x2EB2C2D6 ADDRESS CALLER DUP6 DUP6 PUSH1 0x40 MLOAD DUP6 PUSH4 0xFFFFFFFF AND PUSH1 0xE0 SHL DUP2 MSTORE PUSH1 0x4 ADD PUSH2 0x1EF1 SWAP5 SWAP4 SWAP3 SWAP2 SWAP1 PUSH2 0x4DDF JUMP JUMPDEST PUSH1 0x0 PUSH1 0x40 MLOAD DUP1 DUP4 SUB DUP2 PUSH1 0x0 DUP8 DUP1 EXTCODESIZE ISZERO DUP1 ISZERO PUSH2 0x1F0B JUMPI PUSH1 0x0 DUP1 REVERT JUMPDEST POP GAS CALL ISZERO DUP1 ISZERO PUSH2 0x1F1F JUMPI RETURNDATASIZE PUSH1 0x0 DUP1 RETURNDATACOPY RETURNDATASIZE PUSH1 0x0 REVERT JUMPDEST POP POP POP POP POP POP POP JUMP JUMPDEST PUSH2 0x1F30 PUSH2 0x3670 JUMP JUMPDEST PUSH20 0xFFFFFFFFFFFFFFFFFFFFFFFFFFFFFFFFFFFFFFFF AND PUSH2 0x1F4E PUSH2 0x1E0C JUMP JUMPDEST PUSH20 0xFFFFFFFFFFFFFFFFFFFFFFFFFFFFFFFFFFFFFFFF AND EQ PUSH2 0x1FA4 JUMPI PUSH1 0x40 MLOAD PUSH32 0x8C379A000000000000000000000000000000000000000000000000000000000 DUP2 MSTORE PUSH1 0x4 ADD PUSH2 0x1F9B SWAP1 PUSH2 0x4B4F JUMP JUMPDEST PUSH1 0x40 MLOAD DUP1 SWAP2 SUB SWAP1 REVERT JUMPDEST DUP2 PUSH20 0xFFFFFFFFFFFFFFFFFFFFFFFFFFFFFFFFFFFFFFFF AND PUSH4 0xA9059CBB CALLER DUP4 PUSH1 0x40 MLOAD DUP4 PUSH4 0xFFFFFFFF AND PUSH1 0xE0 SHL DUP2 MSTORE PUSH1 0x4 ADD PUSH2 0x1FDF SWAP3 SWAP2 SWAP1 PUSH2 0x4A49 JUMP JUMPDEST PUSH1 0x20 PUSH1 0x40 MLOAD DUP1 DUP4 SUB DUP2 PUSH1 0x0 DUP8 GAS CALL ISZERO DUP1 ISZERO PUSH2 0x1FFE JUMPI RETURNDATASIZE PUSH1 0x0 DUP1 RETURNDATACOPY RETURNDATASIZE PUSH1 0x0 REVERT JUMPDEST POP POP POP POP PUSH1 0x40 MLOAD RETURNDATASIZE PUSH1 0x1F NOT PUSH1 0x1F DUP3 ADD AND DUP3 ADD DUP1 PUSH1 0x40 MSTORE POP DUP2 ADD SWAP1 PUSH2 0x2022 SWAP2 SWAP1 PUSH2 0x4A87 JUMP JUMPDEST POP POP POP JUMP JUMPDEST PUSH2 0x2037 PUSH2 0x2032 PUSH2 0x3670 JUMP JUMPDEST PUSH2 0x1881 JUMP JUMPDEST PUSH2 0x2076 JUMPI PUSH1 0x40 MLOAD PUSH32 0x8C379A000000000000000000000000000000000000000000000000000000000 DUP2 MSTORE PUSH1 0x4 ADD PUSH2 0x206D SWAP1 PUSH2 0x4C0A JUMP JUMPDEST PUSH1 0x40 MLOAD DUP1 SWAP2 SUB SWAP1 REVERT JUMPDEST PUSH1 0x0 PUSH1 0x6 PUSH1 0x0 DUP8 PUSH2 0xFFFF AND PUSH2 0xFFFF AND DUP2 MSTORE PUSH1 0x20 ADD SWAP1 DUP2 MSTORE PUSH1 0x20 ADD PUSH1 0x0 KECCAK256 PUSH1 0x40 MLOAD DUP1 PUSH2 0x200 ADD PUSH1 0x40 MSTORE SWAP1 DUP2 PUSH1 0x0 DUP3 ADD PUSH1 0x0 SWAP1 SLOAD SWAP1 PUSH2 0x100 EXP SWAP1 DIV PUSH1 0xFF AND PUSH1 0x1 DUP2 GT ISZERO PUSH2 0x20C4 JUMPI PUSH2 0x20C3 PUSH2 0x3EB7 JUMP JUMPDEST JUMPDEST PUSH1 0x1 DUP2 GT ISZERO PUSH2 0x20D6 JUMPI PUSH2 0x20D5 PUSH2 0x3EB7 JUMP JUMPDEST JUMPDEST DUP2 MSTORE PUSH1 0x20 ADD PUSH1 0x0 DUP3 ADD PUSH1 0x1 SWAP1 SLOAD SWAP1 PUSH2 0x100 EXP SWAP1 DIV PUSH1 0xFF AND PUSH1 0x3 DUP2 GT ISZERO PUSH2 0x20FF JUMPI PUSH2 0x20FE PUSH2 0x3EB7 JUMP JUMPDEST JUMPDEST PUSH1 0x3 DUP2 GT ISZERO PUSH2 0x2111 JUMPI PUSH2 0x2110 PUSH2 0x3EB7 JUMP JUMPDEST JUMPDEST DUP2 MSTORE PUSH1 0x20 ADD PUSH1 0x0 DUP3 ADD PUSH1 0x2 SWAP1 SLOAD SWAP1 PUSH2 0x100 EXP SWAP1 DIV PUSH2 0xFFFF AND PUSH2 0xFFFF AND PUSH2 0xFFFF AND DUP2 MSTORE PUSH1 0x20 ADD PUSH1 0x0 DUP3 ADD PUSH1 0x4 SWAP1 SLOAD SWAP1 PUSH2 0x100 EXP SWAP1 DIV PUSH2 0xFFFF AND PUSH2 0xFFFF AND PUSH2 0xFFFF AND DUP2 MSTORE PUSH1 0x20 ADD PUSH1 0x0 DUP3 ADD PUSH1 0x6 SWAP1 SLOAD SWAP1 PUSH2 0x100 EXP SWAP1 DIV PUSH2 0xFFFF AND PUSH2 0xFFFF AND PUSH2 0xFFFF AND DUP2 MSTORE PUSH1 0x20 ADD PUSH1 0x0 DUP3 ADD PUSH1 0x8 SWAP1 SLOAD SWAP1 PUSH2 0x100 EXP SWAP1 DIV PUSH2 0xFFFF AND PUSH2 0xFFFF AND PUSH2 0xFFFF AND DUP2 MSTORE PUSH1 0x20 ADD PUSH1 0x0 DUP3 ADD PUSH1 0xA SWAP1 SLOAD SWAP1 PUSH2 0x100 EXP SWAP1 DIV PUSH2 0xFFFF AND PUSH2 0xFFFF AND PUSH2 0xFFFF AND DUP2 MSTORE PUSH1 0x20 ADD PUSH1 0x1 DUP3 ADD SLOAD DUP2 MSTORE PUSH1 0x20 ADD PUSH1 0x2 DUP3 ADD SLOAD DUP2 MSTORE PUSH1 0x20 ADD PUSH1 0x3 DUP3 ADD SLOAD DUP2 MSTORE PUSH1 0x20 ADD PUSH1 0x4 DUP3 ADD SLOAD DUP2 MSTORE PUSH1 0x20 ADD PUSH1 0x5 DUP3 ADD SLOAD DUP2 MSTORE PUSH1 0x20 ADD PUSH1 0x6 DUP3 ADD SLOAD DUP2 MSTORE PUSH1 0x20 ADD PUSH1 0x7 DUP3 ADD SLOAD DUP2 MSTORE PUSH1 0x20 ADD PUSH1 0x8 DUP3 ADD SLOAD DUP2 MSTORE PUSH1 0x20 ADD PUSH1 0x9 DUP3 ADD SLOAD DUP2 MSTORE POP POP SWAP1 POP PUSH1 0x0 DUP2 PUSH1 0x40 ADD MLOAD PUSH2 0xFFFF AND GT PUSH2 0x225C JUMPI PUSH1 0x40 MLOAD PUSH32 0x8C379A000000000000000000000000000000000000000000000000000000000 DUP2 MSTORE PUSH1 0x4 ADD PUSH2 0x2253 SWAP1 PUSH2 0x4E91 JUMP JUMPDEST PUSH1 0x40 MLOAD DUP1 SWAP2 SUB SWAP1 REVERT JUMPDEST TIMESTAMP DUP2 PUSH2 0x100 ADD MLOAD LT PUSH2 0x22A3 JUMPI PUSH1 0x40 MLOAD PUSH32 0x8C379A000000000000000000000000000000000000000000000000000000000 DUP2 MSTORE PUSH1 0x4 ADD PUSH2 0x229A SWAP1 PUSH2 0x4EFD JUMP JUMPDEST PUSH1 0x40 MLOAD DUP1 SWAP2 SUB SWAP1 REVERT JUMPDEST PUSH1 0x0 DUP3 SWAP1 POP PUSH1 0x0 DUP2 SUB PUSH2 0x22B4 JUMPI TIMESTAMP SWAP1 POP JUMPDEST DUP1 DUP3 PUSH2 0x120 ADD DUP2 DUP2 MSTORE POP POP DUP6 DUP3 PUSH1 0x20 ADD SWAP1 PUSH1 0x3 DUP2 GT ISZERO PUSH2 0x22D7 JUMPI PUSH2 0x22D6 PUSH2 0x3EB7 JUMP JUMPDEST JUMPDEST SWAP1 DUP2 PUSH1 0x3 DUP2 GT ISZERO PUSH2 0x22EB JUMPI PUSH2 0x22EA PUSH2 0x3EB7 JUMP JUMPDEST JUMPDEST DUP2 MSTORE POP POP DUP2 PUSH1 0x6 PUSH1 0x0 DUP10 PUSH2 0xFFFF AND PUSH2 0xFFFF AND DUP2 MSTORE PUSH1 0x20 ADD SWAP1 DUP2 MSTORE PUSH1 0x20 ADD PUSH1 0x0 KECCAK256 PUSH1 0x0 DUP3 ADD MLOAD DUP2 PUSH1 0x0 ADD PUSH1 0x0 PUSH2 0x100 EXP DUP2 SLOAD DUP2 PUSH1 0xFF MUL NOT AND SWAP1 DUP4 PUSH1 0x1 DUP2 GT ISZERO PUSH2 0x2336 JUMPI PUSH2 0x2335 PUSH2 0x3EB7 JUMP JUMPDEST JUMPDEST MUL OR SWAP1 SSTORE POP PUSH1 0x20 DUP3 ADD MLOAD DUP2 PUSH1 0x0 ADD PUSH1 0x1 PUSH2 0x100 EXP DUP2 SLOAD DUP2 PUSH1 0xFF MUL NOT AND SWAP1 DUP4 PUSH1 0x3 DUP2 GT ISZERO PUSH2 0x2366 JUMPI PUSH2 0x2365 PUSH2 0x3EB7 JUMP JUMPDEST JUMPDEST MUL OR SWAP1 SSTORE POP PUSH1 0x40 DUP3 ADD MLOAD DUP2 PUSH1 0x0 ADD PUSH1 0x2 PUSH2 0x100 EXP DUP2 SLOAD DUP2 PUSH2 0xFFFF MUL NOT AND SWAP1 DUP4 PUSH2 0xFFFF AND MUL OR SWAP1 SSTORE POP PUSH1 0x60 DUP3 ADD MLOAD DUP2 PUSH1 0x0 ADD PUSH1 0x4 PUSH2 0x100 EXP DUP2 SLOAD DUP2 PUSH2 0xFFFF MUL NOT AND SWAP1 DUP4 PUSH2 0xFFFF AND MUL OR SWAP1 SSTORE POP PUSH1 0x80 DUP3 ADD MLOAD DUP2 PUSH1 0x0 ADD PUSH1 0x6 PUSH2 0x100 EXP DUP2 SLOAD DUP2 PUSH2 0xFFFF MUL NOT AND SWAP1 DUP4 PUSH2 0xFFFF AND MUL OR SWAP1 SSTORE POP PUSH1 0xA0 DUP3 ADD MLOAD DUP2 PUSH1 0x0 ADD PUSH1 0x8 PUSH2 0x100 EXP DUP2 SLOAD DUP2 PUSH2 0xFFFF MUL NOT AND SWAP1 DUP4 PUSH2 0xFFFF AND MUL OR SWAP1 SSTORE POP PUSH1 0xC0 DUP3 ADD MLOAD DUP2 PUSH1 0x0 ADD PUSH1 0xA PUSH2 0x100 EXP DUP2 SLOAD DUP2 PUSH2 0xFFFF MUL NOT AND SWAP1 DUP4 PUSH2 0xFFFF AND MUL OR SWAP1 SSTORE POP PUSH1 0xE0 DUP3 ADD MLOAD DUP2 PUSH1 0x1 ADD SSTORE PUSH2 0x100 DUP3 ADD MLOAD DUP2 PUSH1 0x2 ADD SSTORE PUSH2 0x120 DUP3 ADD MLOAD DUP2 PUSH1 0x3 ADD SSTORE PUSH2 0x140 DUP3 ADD MLOAD DUP2 PUSH1 0x4 ADD SSTORE PUSH2 0x160 DUP3 ADD MLOAD DUP2 PUSH1 0x5 ADD SSTORE PUSH2 0x180 DUP3 ADD MLOAD DUP2 PUSH1 0x6 ADD SSTORE PUSH2 0x1A0 DUP3 ADD MLOAD DUP2 PUSH1 0x7 ADD SSTORE PUSH2 0x1C0 DUP3 ADD MLOAD DUP2 PUSH1 0x8 ADD SSTORE PUSH2 0x1E0 DUP3 ADD MLOAD DUP2 PUSH1 0x9 ADD SSTORE SWAP1 POP POP DUP5 DUP3 PUSH1 0xA0 ADD SWAP1 PUSH2 0xFFFF AND SWAP1 DUP2 PUSH2 0xFFFF AND DUP2 MSTORE POP POP DUP4 DUP3 PUSH1 0xC0 ADD SWAP1 PUSH2 0xFFFF AND SWAP1 DUP2 PUSH2 0xFFFF AND DUP2 MSTORE POP POP CALLER PUSH20 0xFFFFFFFFFFFFFFFFFFFFFFFFFFFFFFFFFFFFFFFF AND PUSH32 0x1ACB64D3EBB767D2765A1017DE95477FDAE850818341520212226D00F1CBB24A DUP9 DUP8 DUP8 DUP11 DUP7 PUSH1 0x40 MLOAD PUSH2 0x24F5 SWAP6 SWAP5 SWAP4 SWAP3 SWAP2 SWAP1 PUSH2 0x4F2C JUMP JUMPDEST PUSH1 0x40 MLOAD DUP1 SWAP2 SUB SWAP1 LOG2 POP POP POP POP POP POP POP JUMP JUMPDEST PUSH1 0x0 PUSH4 0xBC197C81 PUSH1 0xE0 SHL SWAP1 POP SWAP6 SWAP5 POP POP POP POP POP JUMP JUMPDEST PUSH1 0x0 DUP2 GT PUSH2 0x255E JUMPI PUSH1 0x40 MLOAD PUSH32 0x8C379A000000000000000000000000000000000000000000000000000000000 DUP2 MSTORE PUSH1 0x4 ADD PUSH2 0x2555 SWAP1 PUSH2 0x4FCB JUMP JUMPDEST PUSH1 0x40 MLOAD DUP1 SWAP2 SUB SWAP1 REVERT JUMPDEST PUSH1 0x0 PUSH1 0x3 DUP2 GT ISZERO PUSH2 0x2572 JUMPI PUSH2 0x2571 PUSH2 0x3EB7 JUMP JUMPDEST JUMPDEST DUP4 PUSH1 0x3 DUP2 GT ISZERO PUSH2 0x2585 JUMPI PUSH2 0x2584 PUSH2 0x3EB7 JUMP JUMPDEST JUMPDEST SUB PUSH2 0x25C5 JUMPI PUSH1 0x40 MLOAD PUSH32 0x8C379A000000000000000000000000000000000000000000000000000000000 DUP2 MSTORE PUSH1 0x4 ADD PUSH2 0x25BC SWAP1 PUSH2 0x5037 JUMP JUMPDEST PUSH1 0x40 MLOAD DUP1 SWAP2 SUB SWAP1 REVERT JUMPDEST PUSH1 0x0 PUSH1 0x6 PUSH1 0x0 DUP7 PUSH2 0xFFFF AND PUSH2 0xFFFF AND DUP2 MSTORE PUSH1 0x20 ADD SWAP1 DUP2 MSTORE PUSH1 0x20 ADD PUSH1 0x0 KECCAK256 PUSH1 0x40 MLOAD DUP1 PUSH2 0x200 ADD PUSH1 0x40 MSTORE SWAP1 DUP2 PUSH1 0x0 DUP3 ADD PUSH1 0x0 SWAP1 SLOAD SWAP1 PUSH2 0x100 EXP SWAP1 DIV PUSH1 0xFF AND PUSH1 0x1 DUP2 GT ISZERO PUSH2 0x2613 JUMPI PUSH2 0x2612 PUSH2 0x3EB7 JUMP JUMPDEST JUMPDEST PUSH1 0x1 DUP2 GT ISZERO PUSH2 0x2625 JUMPI PUSH2 0x2624 PUSH2 0x3EB7 JUMP JUMPDEST JUMPDEST DUP2 MSTORE PUSH1 0x20 ADD PUSH1 0x0 DUP3 ADD PUSH1 0x1 SWAP1 SLOAD SWAP1 PUSH2 0x100 EXP SWAP1 DIV PUSH1 0xFF AND PUSH1 0x3 DUP2 GT ISZERO PUSH2 0x264E JUMPI PUSH2 0x264D PUSH2 0x3EB7 JUMP JUMPDEST JUMPDEST PUSH1 0x3 DUP2 GT ISZERO PUSH2 0x2660 JUMPI PUSH2 0x265F PUSH2 0x3EB7 JUMP JUMPDEST JUMPDEST DUP2 MSTORE PUSH1 0x20 ADD PUSH1 0x0 DUP3 ADD PUSH1 0x2 SWAP1 SLOAD SWAP1 PUSH2 0x100 EXP SWAP1 DIV PUSH2 0xFFFF AND PUSH2 0xFFFF AND PUSH2 0xFFFF AND DUP2 MSTORE PUSH1 0x20 ADD PUSH1 0x0 DUP3 ADD PUSH1 0x4 SWAP1 SLOAD SWAP1 PUSH2 0x100 EXP SWAP1 DIV PUSH2 0xFFFF AND PUSH2 0xFFFF AND PUSH2 0xFFFF AND DUP2 MSTORE PUSH1 0x20 ADD PUSH1 0x0 DUP3 ADD PUSH1 0x6 SWAP1 SLOAD SWAP1 PUSH2 0x100 EXP SWAP1 DIV PUSH2 0xFFFF AND PUSH2 0xFFFF AND PUSH2 0xFFFF AND DUP2 MSTORE PUSH1 0x20 ADD PUSH1 0x0 DUP3 ADD PUSH1 0x8 SWAP1 SLOAD SWAP1 PUSH2 0x100 EXP SWAP1 DIV PUSH2 0xFFFF AND PUSH2 0xFFFF AND PUSH2 0xFFFF AND DUP2 MSTORE PUSH1 0x20 ADD PUSH1 0x0 DUP3 ADD PUSH1 0xA SWAP1 SLOAD SWAP1 PUSH2 0x100 EXP SWAP1 DIV PUSH2 0xFFFF AND PUSH2 0xFFFF AND PUSH2 0xFFFF AND DUP2 MSTORE PUSH1 0x20 ADD PUSH1 0x1 DUP3 ADD SLOAD DUP2 MSTORE PUSH1 0x20 ADD PUSH1 0x2 DUP3 ADD SLOAD DUP2 MSTORE PUSH1 0x20 ADD PUSH1 0x3 DUP3 ADD SLOAD DUP2 MSTORE PUSH1 0x20 ADD PUSH1 0x4 DUP3 ADD SLOAD DUP2 MSTORE PUSH1 0x20 ADD PUSH1 0x5 DUP3 ADD SLOAD DUP2 MSTORE PUSH1 0x20 ADD PUSH1 0x6 DUP3 ADD SLOAD DUP2 MSTORE PUSH1 0x20 ADD PUSH1 0x7 DUP3 ADD SLOAD DUP2 MSTORE PUSH1 0x20 ADD PUSH1 0x8 DUP3 ADD SLOAD DUP2 MSTORE PUSH1 0x20 ADD PUSH1 0x9 DUP3 ADD SLOAD DUP2 MSTORE POP POP SWAP1 POP PUSH1 0x0 DUP2 PUSH1 0x40 ADD MLOAD PUSH2 0xFFFF AND SUB PUSH2 0x27AB JUMPI PUSH1 0x40 MLOAD PUSH32 0x8C379A000000000000000000000000000000000000000000000000000000000 DUP2 MSTORE PUSH1 0x4 ADD PUSH2 0x27A2 SWAP1 PUSH2 0x50A3 JUMP JUMPDEST PUSH1 0x40 MLOAD DUP1 SWAP2 SUB SWAP1 REVERT JUMPDEST TIMESTAMP DUP2 PUSH1 0xE0 ADD MLOAD GT ISZERO PUSH2 0x27F2 JUMPI PUSH1 0x40 MLOAD PUSH32 0x8C379A000000000000000000000000000000000000000000000000000000000 DUP2 MSTORE PUSH1 0x4 ADD PUSH2 0x27E9 SWAP1 PUSH2 0x510F JUMP JUMPDEST PUSH1 0x40 MLOAD DUP1 SWAP2 SUB SWAP1 REVERT JUMPDEST TIMESTAMP DUP2 PUSH2 0x100 ADD MLOAD GT PUSH2 0x2839 JUMPI PUSH1 0x40 MLOAD PUSH32 0x8C379A000000000000000000000000000000000000000000000000000000000 DUP2 MSTORE PUSH1 0x4 ADD PUSH2 0x2830 SWAP1 PUSH2 0x517B JUMP JUMPDEST PUSH1 0x40 MLOAD DUP1 SWAP2 SUB SWAP1 REVERT JUMPDEST DUP1 PUSH2 0x100 ADD MLOAD DUP2 PUSH1 0xE0 ADD MLOAD LT PUSH2 0x2884 JUMPI PUSH1 0x40 MLOAD PUSH32 0x8C379A000000000000000000000000000000000000000000000000000000000 DUP2 MSTORE PUSH1 0x4 ADD PUSH2 0x287B SWAP1 PUSH2 0x520D JUMP JUMPDEST PUSH1 0x40 MLOAD DUP1 SWAP2 SUB SWAP1 REVERT JUMPDEST DUP3 DUP2 PUSH2 0x140 ADD MLOAD EQ DUP1 PUSH2 0x289B JUMPI POP DUP3 DUP2 PUSH2 0x160 ADD MLOAD EQ JUMPDEST PUSH2 0x28DA JUMPI PUSH1 0x40 MLOAD PUSH32 0x8C379A000000000000000000000000000000000000000000000000000000000 DUP2 MSTORE PUSH1 0x4 ADD PUSH2 0x28D1 SWAP1 PUSH2 0x5279 JUMP JUMPDEST PUSH1 0x40 MLOAD DUP1 SWAP2 SUB SWAP1 REVERT JUMPDEST PUSH1 0x1 DUP1 DUP2 GT ISZERO PUSH2 0x28ED JUMPI PUSH2 0x28EC PUSH2 0x3EB7 JUMP JUMPDEST JUMPDEST DUP2 PUSH1 0x0 ADD MLOAD PUSH1 0x1 DUP2 GT ISZERO PUSH2 0x2904 JUMPI PUSH2 0x2903 PUSH2 0x3EB7 JUMP JUMPDEST JUMPDEST SUB PUSH2 0x299F JUMPI PUSH1 0x1 PUSH1 0x3 DUP2 GT ISZERO PUSH2 0x291D JUMPI PUSH2 0x291C PUSH2 0x3EB7 JUMP JUMPDEST JUMPDEST DUP5 PUSH1 0x3 DUP2 GT ISZERO PUSH2 0x2930 JUMPI PUSH2 0x292F PUSH2 0x3EB7 JUMP JUMPDEST JUMPDEST EQ DUP1 PUSH2 0x295F JUMPI POP PUSH1 0x3 DUP1 DUP2 GT ISZERO PUSH2 0x294A JUMPI PUSH2 0x2949 PUSH2 0x3EB7 JUMP JUMPDEST JUMPDEST DUP5 PUSH1 0x3 DUP2 GT ISZERO PUSH2 0x295D JUMPI PUSH2 0x295C PUSH2 0x3EB7 JUMP JUMPDEST JUMPDEST EQ JUMPDEST PUSH2 0x299E JUMPI PUSH1 0x40 MLOAD PUSH32 0x8C379A000000000000000000000000000000000000000000000000000000000 DUP2 MSTORE PUSH1 0x4 ADD PUSH2 0x2995 SWAP1 PUSH2 0x52E5 JUMP JUMPDEST PUSH1 0x40 MLOAD DUP1 SWAP2 SUB SWAP1 REVERT JUMPDEST JUMPDEST PUSH1 0x1 PUSH1 0x3 DUP2 GT ISZERO PUSH2 0x29B3 JUMPI PUSH2 0x29B2 PUSH2 0x3EB7 JUMP JUMPDEST JUMPDEST DUP5 PUSH1 0x3 DUP2 GT ISZERO PUSH2 0x29C6 JUMPI PUSH2 0x29C5 PUSH2 0x3EB7 JUMP JUMPDEST JUMPDEST SUB PUSH2 0x2A13 JUMPI DUP1 PUSH2 0x140 ADD MLOAD DUP4 EQ PUSH2 0x2A12 JUMPI PUSH1 0x40 MLOAD PUSH32 0x8C379A000000000000000000000000000000000000000000000000000000000 DUP2 MSTORE PUSH1 0x4 ADD PUSH2 0x2A09 SWAP1 PUSH2 0x5351 JUMP JUMPDEST PUSH1 0x40 MLOAD DUP1 SWAP2 SUB SWAP1 REVERT JUMPDEST JUMPDEST PUSH1 0x3 DUP1 DUP2 GT ISZERO PUSH2 0x2A26 JUMPI PUSH2 0x2A25 PUSH2 0x3EB7 JUMP JUMPDEST JUMPDEST DUP5 PUSH1 0x3 DUP2 GT ISZERO PUSH2 0x2A39 JUMPI PUSH2 0x2A38 PUSH2 0x3EB7 JUMP JUMPDEST JUMPDEST SUB PUSH2 0x2A86 JUMPI DUP1 PUSH2 0x160 ADD MLOAD DUP4 EQ PUSH2 0x2A85 JUMPI PUSH1 0x40 MLOAD PUSH32 0x8C379A000000000000000000000000000000000000000000000000000000000 DUP2 MSTORE PUSH1 0x4 ADD PUSH2 0x2A7C SWAP1 PUSH2 0x5351 JUMP JUMPDEST PUSH1 0x40 MLOAD DUP1 SWAP2 SUB SWAP1 REVERT JUMPDEST JUMPDEST PUSH1 0x2 PUSH1 0x0 SWAP1 SLOAD SWAP1 PUSH2 0x100 EXP SWAP1 DIV PUSH20 0xFFFFFFFFFFFFFFFFFFFFFFFFFFFFFFFFFFFFFFFF AND PUSH20 0xFFFFFFFFFFFFFFFFFFFFFFFFFFFFFFFFFFFFFFFF AND PUSH4 0xF242432A CALLER ADDRESS DUP7 DUP7 PUSH1 0x40 MLOAD DUP6 PUSH4 0xFFFFFFFF AND PUSH1 0xE0 SHL DUP2 MSTORE PUSH1 0x4 ADD PUSH2 0x2AE7 SWAP5 SWAP4 SWAP3 SWAP2 SWAP1 PUSH2 0x48B8 JUMP JUMPDEST PUSH1 0x0 PUSH1 0x40 MLOAD DUP1 DUP4 SUB DUP2 PUSH1 0x0 DUP8 DUP1 EXTCODESIZE ISZERO DUP1 ISZERO PUSH2 0x2B01 JUMPI PUSH1 0x0 DUP1 REVERT JUMPDEST POP GAS CALL ISZERO DUP1 ISZERO PUSH2 0x2B15 JUMPI RETURNDATASIZE PUSH1 0x0 DUP1 RETURNDATACOPY RETURNDATASIZE PUSH1 0x0 REVERT JUMPDEST POP POP POP POP PUSH1 0x0 PUSH1 0x7 PUSH1 0x0 CALLER PUSH20 0xFFFFFFFFFFFFFFFFFFFFFFFFFFFFFFFFFFFFFFFF AND PUSH20 0xFFFFFFFFFFFFFFFFFFFFFFFFFFFFFFFFFFFFFFFF AND DUP2 MSTORE PUSH1 0x20 ADD SWAP1 DUP2 MSTORE PUSH1 0x20 ADD PUSH1 0x0 KECCAK256 PUSH1 0x0 DUP8 PUSH2 0xFFFF AND PUSH2 0xFFFF AND DUP2 MSTORE PUSH1 0x20 ADD SWAP1 DUP2 MSTORE PUSH1 0x20 ADD PUSH1 0x0 KECCAK256 PUSH1 0x40 MLOAD DUP1 PUSH1 0xC0 ADD PUSH1 0x40 MSTORE SWAP1 DUP2 PUSH1 0x0 DUP3 ADD PUSH1 0x0 SWAP1 SLOAD SWAP1 PUSH2 0x100 EXP SWAP1 DIV PUSH2 0xFFFF AND PUSH2 0xFFFF AND PUSH2 0xFFFF AND DUP2 MSTORE PUSH1 0x20 ADD PUSH1 0x1 DUP3 ADD SLOAD DUP2 MSTORE PUSH1 0x20 ADD PUSH1 0x2 DUP3 ADD SLOAD DUP2 MSTORE PUSH1 0x20 ADD PUSH1 0x3 DUP3 ADD SLOAD DUP2 MSTORE PUSH1 0x20 ADD PUSH1 0x4 DUP3 ADD SLOAD DUP2 MSTORE PUSH1 0x20 ADD PUSH1 0x5 DUP3 ADD PUSH1 0x0 SWAP1 SLOAD SWAP1 PUSH2 0x100 EXP SWAP1 DIV PUSH1 0xFF AND ISZERO ISZERO ISZERO ISZERO DUP2 MSTORE POP POP SWAP1 POP DUP6 DUP2 PUSH1 0x0 ADD SWAP1 PUSH2 0xFFFF AND SWAP1 DUP2 PUSH2 0xFFFF AND DUP2 MSTORE POP POP PUSH2 0x2C4C DUP7 PUSH2 0xFFFF AND PUSH1 0x8 PUSH1 0x0 CALLER PUSH20 0xFFFFFFFFFFFFFFFFFFFFFFFFFFFFFFFFFFFFFFFF AND PUSH20 0xFFFFFFFFFFFFFFFFFFFFFFFFFFFFFFFFFFFFFFFF AND DUP2 MSTORE PUSH1 0x20 ADD SWAP1 DUP2 MSTORE PUSH1 0x20 ADD PUSH1 0x0 KECCAK256 PUSH2 0x373E SWAP1 SWAP2 SWAP1 PUSH4 0xFFFFFFFF AND JUMP JUMPDEST POP PUSH1 0x1 PUSH1 0x3 DUP2 GT ISZERO PUSH2 0x2C61 JUMPI PUSH2 0x2C60 PUSH2 0x3EB7 JUMP JUMPDEST JUMPDEST DUP6 PUSH1 0x3 DUP2 GT ISZERO PUSH2 0x2C74 JUMPI PUSH2 0x2C73 PUSH2 0x3EB7 JUMP JUMPDEST JUMPDEST SUB PUSH2 0x2D13 JUMPI DUP2 PUSH2 0x140 ADD MLOAD DUP5 EQ PUSH2 0x2CC0 JUMPI PUSH1 0x40 MLOAD PUSH32 0x8C379A000000000000000000000000000000000000000000000000000000000 DUP2 MSTORE PUSH1 0x4 ADD PUSH2 0x2CB7 SWAP1 PUSH2 0x53BD JUMP JUMPDEST PUSH1 0x40 MLOAD DUP1 SWAP2 SUB SWAP1 REVERT JUMPDEST DUP3 PUSH1 0x6 PUSH1 0x0 DUP9 PUSH2 0xFFFF AND PUSH2 0xFFFF AND DUP2 MSTORE PUSH1 0x20 ADD SWAP1 DUP2 MSTORE PUSH1 0x20 ADD PUSH1 0x0 KECCAK256 PUSH1 0x6 ADD PUSH1 0x0 DUP3 DUP3 SLOAD PUSH2 0x2CEE SWAP2 SWAP1 PUSH2 0x493F JUMP JUMPDEST SWAP3 POP POP DUP2 SWAP1 SSTORE POP DUP3 DUP2 PUSH1 0x20 ADD DUP2 DUP2 MLOAD PUSH2 0x2D07 SWAP2 SWAP1 PUSH2 0x493F JUMP JUMPDEST SWAP2 POP DUP2 DUP2 MSTORE POP POP PUSH2 0x2E41 JUMP JUMPDEST PUSH1 0x3 DUP1 DUP2 GT ISZERO PUSH2 0x2D26 JUMPI PUSH2 0x2D25 PUSH2 0x3EB7 JUMP JUMPDEST JUMPDEST DUP6 PUSH1 0x3 DUP2 GT ISZERO PUSH2 0x2D39 JUMPI PUSH2 0x2D38 PUSH2 0x3EB7 JUMP JUMPDEST JUMPDEST SUB PUSH2 0x2D91 JUMPI DUP3 PUSH1 0x6 PUSH1 0x0 DUP9 PUSH2 0xFFFF AND PUSH2 0xFFFF AND DUP2 MSTORE PUSH1 0x20 ADD SWAP1 DUP2 MSTORE PUSH1 0x20 ADD PUSH1 0x0 KECCAK256 PUSH1 0x7 ADD PUSH1 0x0 DUP3 DUP3 SLOAD PUSH2 0x2D6C SWAP2 SWAP1 PUSH2 0x493F JUMP JUMPDEST SWAP3 POP POP DUP2 SWAP1 SSTORE POP DUP3 DUP2 PUSH1 0x40 ADD DUP2 DUP2 MLOAD PUSH2 0x2D85 SWAP2 SWAP1 PUSH2 0x493F JUMP JUMPDEST SWAP2 POP DUP2 DUP2 MSTORE POP POP PUSH2 0x2E40 JUMP JUMPDEST DUP2 PUSH2 0x140 ADD MLOAD DUP5 SUB PUSH2 0x2DF0 JUMPI DUP3 PUSH1 0x6 PUSH1 0x0 DUP9 PUSH2 0xFFFF AND PUSH2 0xFFFF AND DUP2 MSTORE PUSH1 0x20 ADD SWAP1 DUP2 MSTORE PUSH1 0x20 ADD PUSH1 0x0 KECCAK256 PUSH1 0x8 ADD PUSH1 0x0 DUP3 DUP3 SLOAD PUSH2 0x2DCB SWAP2 SWAP1 PUSH2 0x493F JUMP JUMPDEST SWAP3 POP POP DUP2 SWAP1 SSTORE POP DUP3 DUP2 PUSH1 0x60 ADD DUP2 DUP2 MLOAD PUSH2 0x2DE4 SWAP2 SWAP1 PUSH2 0x493F JUMP JUMPDEST SWAP2 POP DUP2 DUP2 MSTORE POP POP PUSH2 0x2E3F JUMP JUMPDEST DUP3 PUSH1 0x6 PUSH1 0x0 DUP9 PUSH2 0xFFFF AND PUSH2 0xFFFF AND DUP2 MSTORE PUSH1 0x20 ADD SWAP1 DUP2 MSTORE PUSH1 0x20 ADD PUSH1 0x0 KECCAK256 PUSH1 0x9 ADD PUSH1 0x0 DUP3 DUP3 SLOAD PUSH2 0x2E1E SWAP2 SWAP1 PUSH2 0x493F JUMP JUMPDEST SWAP3 POP POP DUP2 SWAP1 SSTORE POP DUP3 DUP2 PUSH1 0x80 ADD DUP2 DUP2 MLOAD PUSH2 0x2E37 SWAP2 SWAP1 PUSH2 0x493F JUMP JUMPDEST SWAP2 POP DUP2 DUP2 MSTORE POP POP JUMPDEST JUMPDEST JUMPDEST DUP1 PUSH1 0x7 PUSH1 0x0 CALLER PUSH20 0xFFFFFFFFFFFFFFFFFFFFFFFFFFFFFFFFFFFFFFFF AND PUSH20 0xFFFFFFFFFFFFFFFFFFFFFFFFFFFFFFFFFFFFFFFF AND DUP2 MSTORE PUSH1 0x20 ADD SWAP1 DUP2 MSTORE PUSH1 0x20 ADD PUSH1 0x0 KECCAK256 PUSH1 0x0 DUP9 PUSH2 0xFFFF AND PUSH2 0xFFFF AND DUP2 MSTORE PUSH1 0x20 ADD SWAP1 DUP2 MSTORE PUSH1 0x20 ADD PUSH1 0x0 KECCAK256 PUSH1 0x0 DUP3 ADD MLOAD DUP2 PUSH1 0x0 ADD PUSH1 0x0 PUSH2 0x100 EXP DUP2 SLOAD DUP2 PUSH2 0xFFFF MUL NOT AND SWAP1 DUP4 PUSH2 0xFFFF AND MUL OR SWAP1 SSTORE POP PUSH1 0x20 DUP3 ADD MLOAD DUP2 PUSH1 0x1 ADD SSTORE PUSH1 0x40 DUP3 ADD MLOAD DUP2 PUSH1 0x2 ADD SSTORE PUSH1 0x60 DUP3 ADD MLOAD DUP2 PUSH1 0x3 ADD SSTORE PUSH1 0x80 DUP3 ADD MLOAD DUP2 PUSH1 0x4 ADD SSTORE PUSH1 0xA0 DUP3 ADD MLOAD DUP2 PUSH1 0x5 ADD PUSH1 0x0 PUSH2 0x100 EXP DUP2 SLOAD DUP2 PUSH1 0xFF MUL NOT AND SWAP1 DUP4 ISZERO ISZERO MUL OR SWAP1 SSTORE POP SWAP1 POP POP CALLER PUSH20 0xFFFFFFFFFFFFFFFFFFFFFFFFFFFFFFFFFFFFFFFF AND PUSH32 0x90267CA1AF3949590CAE48E112B0C82D8E0CD1C0B254FAAF8F35228BC2F3DAE5 DUP8 DUP8 DUP8 DUP8 PUSH1 0x40 MLOAD PUSH2 0x2F54 SWAP5 SWAP4 SWAP3 SWAP2 SWAP1 PUSH2 0x53DD JUMP JUMPDEST PUSH1 0x40 MLOAD DUP1 SWAP2 SUB SWAP1 LOG2 POP POP POP POP POP POP JUMP JUMPDEST PUSH1 0x5 SLOAD DUP2 JUMP JUMPDEST PUSH1 0x0 PUSH4 0xF23A6E61 PUSH1 0xE0 SHL SWAP1 POP SWAP6 SWAP5 POP POP POP POP POP JUMP JUMPDEST PUSH2 0x2F87 PUSH2 0x3670 JUMP JUMPDEST PUSH20 0xFFFFFFFFFFFFFFFFFFFFFFFFFFFFFFFFFFFFFFFF AND PUSH2 0x2FA5 PUSH2 0x1E0C JUMP JUMPDEST PUSH20 0xFFFFFFFFFFFFFFFFFFFFFFFFFFFFFFFFFFFFFFFF AND EQ PUSH2 0x2FFB JUMPI PUSH1 0x40 MLOAD PUSH32 0x8C379A000000000000000000000000000000000000000000000000000000000 DUP2 MSTORE PUSH1 0x4 ADD PUSH2 0x2FF2 SWAP1 PUSH2 0x4B4F JUMP JUMPDEST PUSH1 0x40 MLOAD DUP1 SWAP2 SUB SWAP1 REVERT JUMPDEST PUSH1 0x0 PUSH20 0xFFFFFFFFFFFFFFFFFFFFFFFFFFFFFFFFFFFFFFFF AND DUP2 PUSH20 0xFFFFFFFFFFFFFFFFFFFFFFFFFFFFFFFFFFFFFFFF AND SUB PUSH2 0x306A JUMPI PUSH1 0x40 MLOAD PUSH32 0x8C379A000000000000000000000000000000000000000000000000000000000 DUP2 MSTORE PUSH1 0x4 ADD PUSH2 0x3061 SWAP1 PUSH2 0x5494 JUMP JUMPDEST PUSH1 0x40 MLOAD DUP1 SWAP2 SUB SWAP1 REVERT JUMPDEST PUSH2 0x3073 DUP2 PUSH2 0x3678 JUMP JUMPDEST POP JUMP JUMPDEST PUSH2 0x307E PUSH2 0x3670 JUMP JUMPDEST PUSH20 0xFFFFFFFFFFFFFFFFFFFFFFFFFFFFFFFFFFFFFFFF AND PUSH2 0x309C PUSH2 0x1E0C JUMP JUMPDEST PUSH20 0xFFFFFFFFFFFFFFFFFFFFFFFFFFFFFFFFFFFFFFFF AND EQ PUSH2 0x30F2 JUMPI PUSH1 0x40 MLOAD PUSH32 0x8C379A000000000000000000000000000000000000000000000000000000000 DUP2 MSTORE PUSH1 0x4 ADD PUSH2 0x30E9 SWAP1 PUSH2 0x4B4F JUMP JUMPDEST PUSH1 0x40 MLOAD DUP1 SWAP2 SUB SWAP1 REVERT JUMPDEST DUP1 PUSH1 0x5 DUP2 SWAP1 SSTORE POP POP JUMP JUMPDEST PUSH1 0x3 PUSH1 0x0 SWAP1 SLOAD SWAP1 PUSH2 0x100 EXP SWAP1 DIV PUSH20 0xFFFFFFFFFFFFFFFFFFFFFFFFFFFFFFFFFFFFFFFF AND DUP2 JUMP JUMPDEST PUSH2 0x3132 PUSH2 0x312D PUSH2 0x3670 JUMP JUMPDEST PUSH2 0x1881 JUMP JUMPDEST PUSH2 0x3171 JUMPI PUSH1 0x40 MLOAD PUSH32 0x8C379A000000000000000000000000000000000000000000000000000000000 DUP2 MSTORE PUSH1 0x4 ADD PUSH2 0x3168 SWAP1 PUSH2 0x4C0A JUMP JUMPDEST PUSH1 0x40 MLOAD DUP1 SWAP2 SUB SWAP1 REVERT JUMPDEST PUSH1 0x0 PUSH1 0x6 PUSH1 0x0 DUP11 PUSH2 0xFFFF AND PUSH2 0xFFFF AND DUP2 MSTORE PUSH1 0x20 ADD SWAP1 DUP2 MSTORE PUSH1 0x20 ADD PUSH1 0x0 KECCAK256 PUSH1 0x40 MLOAD DUP1 PUSH2 0x200 ADD PUSH1 0x40 MSTORE SWAP1 DUP2 PUSH1 0x0 DUP3 ADD PUSH1 0x0 SWAP1 SLOAD SWAP1 PUSH2 0x100 EXP SWAP1 DIV PUSH1 0xFF AND PUSH1 0x1 DUP2 GT ISZERO PUSH2 0x31BF JUMPI PUSH2 0x31BE PUSH2 0x3EB7 JUMP JUMPDEST JUMPDEST PUSH1 0x1 DUP2 GT ISZERO PUSH2 0x31D1 JUMPI PUSH2 0x31D0 PUSH2 0x3EB7 JUMP JUMPDEST JUMPDEST DUP2 MSTORE PUSH1 0x20 ADD PUSH1 0x0 DUP3 ADD PUSH1 0x1 SWAP1 SLOAD SWAP1 PUSH2 0x100 EXP SWAP1 DIV PUSH1 0xFF AND PUSH1 0x3 DUP2 GT ISZERO PUSH2 0x31FA JUMPI PUSH2 0x31F9 PUSH2 0x3EB7 JUMP JUMPDEST JUMPDEST PUSH1 0x3 DUP2 GT ISZERO PUSH2 0x320C JUMPI PUSH2 0x320B PUSH2 0x3EB7 JUMP JUMPDEST JUMPDEST DUP2 MSTORE PUSH1 0x20 ADD PUSH1 0x0 DUP3 ADD PUSH1 0x2 SWAP1 SLOAD SWAP1 PUSH2 0x100 EXP SWAP1 DIV PUSH2 0xFFFF AND PUSH2 0xFFFF AND PUSH2 0xFFFF AND DUP2 MSTORE PUSH1 0x20 ADD PUSH1 0x0 DUP3 ADD PUSH1 0x4 SWAP1 SLOAD SWAP1 PUSH2 0x100 EXP SWAP1 DIV PUSH2 0xFFFF AND PUSH2 0xFFFF AND PUSH2 0xFFFF AND DUP2 MSTORE PUSH1 0x20 ADD PUSH1 0x0 DUP3 ADD PUSH1 0x6 SWAP1 SLOAD SWAP1 PUSH2 0x100 EXP SWAP1 DIV PUSH2 0xFFFF AND PUSH2 0xFFFF AND PUSH2 0xFFFF AND DUP2 MSTORE PUSH1 0x20 ADD PUSH1 0x0 DUP3 ADD PUSH1 0x8 SWAP1 SLOAD SWAP1 PUSH2 0x100 EXP SWAP1 DIV PUSH2 0xFFFF AND PUSH2 0xFFFF AND PUSH2 0xFFFF AND DUP2 MSTORE PUSH1 0x20 ADD PUSH1 0x0 DUP3 ADD PUSH1 0xA SWAP1 SLOAD SWAP1 PUSH2 0x100 EXP SWAP1 DIV PUSH2 0xFFFF AND PUSH2 0xFFFF AND PUSH2 0xFFFF AND DUP2 MSTORE PUSH1 0x20 ADD PUSH1 0x1 DUP3 ADD SLOAD DUP2 MSTORE PUSH1 0x20 ADD PUSH1 0x2 DUP3 ADD SLOAD DUP2 MSTORE PUSH1 0x20 ADD PUSH1 0x3 DUP3 ADD SLOAD DUP2 MSTORE PUSH1 0x20 ADD PUSH1 0x4 DUP3 ADD SLOAD DUP2 MSTORE PUSH1 0x20 ADD PUSH1 0x5 DUP3 ADD SLOAD DUP2 MSTORE PUSH1 0x20 ADD PUSH1 0x6 DUP3 ADD SLOAD DUP2 MSTORE PUSH1 0x20 ADD PUSH1 0x7 DUP3 ADD SLOAD DUP2 MSTORE PUSH1 0x20 ADD PUSH1 0x8 DUP3 ADD SLOAD DUP2 MSTORE PUSH1 0x20 ADD PUSH1 0x9 DUP3 ADD SLOAD DUP2 MSTORE POP POP SWAP1 POP PUSH1 0x0 DUP2 PUSH1 0x40 ADD MLOAD PUSH2 0xFFFF AND GT PUSH2 0x3357 JUMPI PUSH1 0x40 MLOAD PUSH32 0x8C379A000000000000000000000000000000000000000000000000000000000 DUP2 MSTORE PUSH1 0x4 ADD PUSH2 0x334E SWAP1 PUSH2 0x5500 JUMP JUMPDEST PUSH1 0x40 MLOAD DUP1 SWAP2 SUB SWAP1 REVERT JUMPDEST DUP8 DUP2 PUSH1 0x0 ADD SWAP1 PUSH1 0x1 DUP2 GT ISZERO PUSH2 0x336F JUMPI PUSH2 0x336E PUSH2 0x3EB7 JUMP JUMPDEST JUMPDEST SWAP1 DUP2 PUSH1 0x1 DUP2 GT ISZERO PUSH2 0x3383 JUMPI PUSH2 0x3382 PUSH2 0x3EB7 JUMP JUMPDEST JUMPDEST DUP2 MSTORE POP POP DUP7 DUP2 PUSH1 0x60 ADD SWAP1 PUSH2 0xFFFF AND SWAP1 DUP2 PUSH2 0xFFFF AND DUP2 MSTORE POP POP DUP6 DUP2 PUSH1 0x80 ADD SWAP1 PUSH2 0xFFFF AND SWAP1 DUP2 PUSH2 0xFFFF AND DUP2 MSTORE POP POP DUP5 DUP2 PUSH1 0xE0 ADD DUP2 DUP2 MSTORE POP POP DUP4 DUP2 PUSH2 0x100 ADD DUP2 DUP2 MSTORE POP POP DUP3 DUP2 PUSH2 0x140 ADD DUP2 DUP2 MSTORE POP POP DUP2 DUP2 PUSH2 0x160 ADD DUP2 DUP2 MSTORE POP POP DUP1 PUSH1 0x6 PUSH1 0x0 DUP12 PUSH2 0xFFFF AND PUSH2 0xFFFF AND DUP2 MSTORE PUSH1 0x20 ADD SWAP1 DUP2 MSTORE PUSH1 0x20 ADD PUSH1 0x0 KECCAK256 PUSH1 0x0 DUP3 ADD MLOAD DUP2 PUSH1 0x0 ADD PUSH1 0x0 PUSH2 0x100 EXP DUP2 SLOAD DUP2 PUSH1 0xFF MUL NOT AND SWAP1 DUP4 PUSH1 0x1 DUP2 GT ISZERO PUSH2 0x3421 JUMPI PUSH2 0x3420 PUSH2 0x3EB7 JUMP JUMPDEST JUMPDEST MUL OR SWAP1 SSTORE POP PUSH1 0x20 DUP3 ADD MLOAD DUP2 PUSH1 0x0 ADD PUSH1 0x1 PUSH2 0x100 EXP DUP2 SLOAD DUP2 PUSH1 0xFF MUL NOT AND SWAP1 DUP4 PUSH1 0x3 DUP2 GT ISZERO PUSH2 0x3451 JUMPI PUSH2 0x3450 PUSH2 0x3EB7 JUMP JUMPDEST JUMPDEST MUL OR SWAP1 SSTORE POP PUSH1 0x40 DUP3 ADD MLOAD DUP2 PUSH1 0x0 ADD PUSH1 0x2 PUSH2 0x100 EXP DUP2 SLOAD DUP2 PUSH2 0xFFFF MUL NOT AND SWAP1 DUP4 PUSH2 0xFFFF AND MUL OR SWAP1 SSTORE POP PUSH1 0x60 DUP3 ADD MLOAD DUP2 PUSH1 0x0 ADD PUSH1 0x4 PUSH2 0x100 EXP DUP2 SLOAD DUP2 PUSH2 0xFFFF MUL NOT AND SWAP1 DUP4 PUSH2 0xFFFF AND MUL OR SWAP1 SSTORE POP PUSH1 0x80 DUP3 ADD MLOAD DUP2 PUSH1 0x0 ADD PUSH1 0x6 PUSH2 0x100 EXP DUP2 SLOAD DUP2 PUSH2 0xFFFF MUL NOT AND SWAP1 DUP4 PUSH2 0xFFFF AND MUL OR SWAP1 SSTORE POP PUSH1 0xA0 DUP3 ADD MLOAD DUP2 PUSH1 0x0 ADD PUSH1 0x8 PUSH2 0x100 EXP DUP2 SLOAD DUP2 PUSH2 0xFFFF MUL NOT AND SWAP1 DUP4 PUSH2 0xFFFF AND MUL OR SWAP1 SSTORE POP PUSH1 0xC0 DUP3 ADD MLOAD DUP2 PUSH1 0x0 ADD PUSH1 0xA PUSH2 0x100 EXP DUP2 SLOAD DUP2 PUSH2 0xFFFF MUL NOT AND SWAP1 DUP4 PUSH2 0xFFFF AND MUL OR SWAP1 SSTORE POP PUSH1 0xE0 DUP3 ADD MLOAD DUP2 PUSH1 0x1 ADD SSTORE PUSH2 0x100 DUP3 ADD MLOAD DUP2 PUSH1 0x2 ADD SSTORE PUSH2 0x120 DUP3 ADD MLOAD DUP2 PUSH1 0x3 ADD SSTORE PUSH2 0x140 DUP3 ADD MLOAD DUP2 PUSH1 0x4 ADD SSTORE PUSH2 0x160 DUP3 ADD MLOAD DUP2 PUSH1 0x5 ADD SSTORE PUSH2 0x180 DUP3 ADD MLOAD DUP2 PUSH1 0x6 ADD SSTORE PUSH2 0x1A0 DUP3 ADD MLOAD DUP2 PUSH1 0x7 ADD SSTORE PUSH2 0x1C0 DUP3 ADD MLOAD DUP2 PUSH1 0x8 ADD SSTORE PUSH2 0x1E0 DUP3 ADD MLOAD DUP2 PUSH1 0x9 ADD SSTORE SWAP1 POP POP CALLER PUSH20 0xFFFFFFFFFFFFFFFFFFFFFFFFFFFFFFFFFFFFFFFF AND PUSH32 0xD083E2EF62102A69352D39B2A9A28ACC07B62713713B386C605C70B4A1C83633 DUP10 DUP12 DUP11 DUP11 DUP11 DUP11 DUP11 DUP11 PUSH1 0x40 MLOAD PUSH2 0x35BE SWAP9 SWAP8 SWAP7 SWAP6 SWAP5 SWAP4 SWAP3 SWAP2 SWAP1 PUSH2 0x4D61 JUMP JUMPDEST PUSH1 0x40 MLOAD DUP1 SWAP2 SUB SWAP1 LOG2 POP POP POP POP POP POP POP POP POP JUMP JUMPDEST PUSH1 0x3 PUSH1 0x14 SWAP1 SLOAD SWAP1 PUSH2 0x100 EXP SWAP1 DIV PUSH2 0xFFFF AND DUP2 JUMP JUMPDEST PUSH1 0x0 PUSH32 0x1FFC9A700000000000000000000000000000000000000000000000000000000 PUSH28 0xFFFFFFFFFFFFFFFFFFFFFFFFFFFFFFFFFFFFFFFFFFFFFFFFFFFFFFFF NOT AND DUP3 PUSH28 0xFFFFFFFFFFFFFFFFFFFFFFFFFFFFFFFFFFFFFFFFFFFFFFFFFFFFFFFF NOT AND EQ SWAP1 POP SWAP2 SWAP1 POP JUMP JUMPDEST PUSH1 0x60 PUSH1 0x0 PUSH2 0x365F DUP4 PUSH1 0x0 ADD PUSH2 0x3758 JUMP JUMPDEST SWAP1 POP PUSH1 0x60 DUP2 SWAP1 POP DUP1 SWAP3 POP POP POP SWAP2 SWAP1 POP JUMP JUMPDEST PUSH1 0x0 CALLER SWAP1 POP SWAP1 JUMP JUMPDEST PUSH1 0x0 PUSH1 0x1 PUSH1 0x0 SWAP1 SLOAD SWAP1 PUSH2 0x100 EXP SWAP1 DIV PUSH20 0xFFFFFFFFFFFFFFFFFFFFFFFFFFFFFFFFFFFFFFFF AND SWAP1 POP DUP2 PUSH1 0x1 PUSH1 0x0 PUSH2 0x100 EXP DUP2 SLOAD DUP2 PUSH20 0xFFFFFFFFFFFFFFFFFFFFFFFFFFFFFFFFFFFFFFFF MUL NOT AND SWAP1 DUP4 PUSH20 0xFFFFFFFFFFFFFFFFFFFFFFFFFFFFFFFFFFFFFFFF AND MUL OR SWAP1 SSTORE POP DUP2 PUSH20 0xFFFFFFFFFFFFFFFFFFFFFFFFFFFFFFFFFFFFFFFF AND DUP2 PUSH20 0xFFFFFFFFFFFFFFFFFFFFFFFFFFFFFFFFFFFFFFFF AND PUSH32 0x8BE0079C531659141344CD1FD0A4F28419497F9722A3DAAFE3B4186F6B6457E0 PUSH1 0x40 MLOAD PUSH1 0x40 MLOAD DUP1 SWAP2 SUB SWAP1 LOG3 POP POP JUMP JUMPDEST PUSH1 0x0 PUSH2 0x3750 DUP4 PUSH1 0x0 ADD DUP4 PUSH1 0x0 SHL PUSH2 0x37B4 JUMP JUMPDEST SWAP1 POP SWAP3 SWAP2 POP POP JUMP JUMPDEST PUSH1 0x60 DUP2 PUSH1 0x0 ADD DUP1 SLOAD DUP1 PUSH1 0x20 MUL PUSH1 0x20 ADD PUSH1 0x40 MLOAD SWAP1 DUP2 ADD PUSH1 0x40 MSTORE DUP1 SWAP3 SWAP2 SWAP1 DUP2 DUP2 MSTORE PUSH1 0x20 ADD DUP3 DUP1 SLOAD DUP1 ISZERO PUSH2 0x37A8 JUMPI PUSH1 0x20 MUL DUP3 ADD SWAP2 SWAP1 PUSH1 0x0 MSTORE PUSH1 0x20 PUSH1 0x0 KECCAK256 SWAP1 JUMPDEST DUP2 SLOAD DUP2 MSTORE PUSH1 0x20 ADD SWAP1 PUSH1 0x1 ADD SWAP1 DUP1 DUP4 GT PUSH2 0x3794 JUMPI JUMPDEST POP POP POP POP POP SWAP1 POP SWAP2 SWAP1 POP JUMP JUMPDEST PUSH1 0x0 PUSH2 0x37C0 DUP4 DUP4 PUSH2 0x3824 JUMP JUMPDEST PUSH2 0x3819 JUMPI DUP3 PUSH1 0x0 ADD DUP3 SWAP1 DUP1 PUSH1 0x1 DUP2 SLOAD ADD DUP1 DUP3 SSTORE DUP1 SWAP2 POP POP PUSH1 0x1 SWAP1 SUB SWAP1 PUSH1 0x0 MSTORE PUSH1 0x20 PUSH1 0x0 KECCAK256 ADD PUSH1 0x0 SWAP1 SWAP2 SWAP1 SWAP2 SWAP1 SWAP2 POP SSTORE DUP3 PUSH1 0x0 ADD DUP1 SLOAD SWAP1 POP DUP4 PUSH1 0x1 ADD PUSH1 0x0 DUP5 DUP2 MSTORE PUSH1 0x20 ADD SWAP1 DUP2 MSTORE PUSH1 0x20 ADD PUSH1 0x0 KECCAK256 DUP2 SWAP1 SSTORE POP PUSH1 0x1 SWAP1 POP PUSH2 0x381E JUMP JUMPDEST PUSH1 0x0 SWAP1 POP JUMPDEST SWAP3 SWAP2 POP POP JUMP JUMPDEST PUSH1 0x0 DUP1 DUP4 PUSH1 0x1 ADD PUSH1 0x0 DUP5 DUP2 MSTORE PUSH1 0x20 ADD SWAP1 DUP2 MSTORE PUSH1 0x20 ADD PUSH1 0x0 KECCAK256 SLOAD EQ ISZERO SWAP1 POP SWAP3 SWAP2 POP POP JUMP JUMPDEST PUSH1 0x40 MLOAD DUP1 PUSH1 0xC0 ADD PUSH1 0x40 MSTORE DUP1 PUSH1 0x0 PUSH2 0xFFFF AND DUP2 MSTORE PUSH1 0x20 ADD PUSH1 0x0 DUP2 MSTORE PUSH1 0x20 ADD PUSH1 0x0 DUP2 MSTORE PUSH1 0x20 ADD PUSH1 0x0 DUP2 MSTORE PUSH1 0x20 ADD PUSH1 0x0 DUP2 MSTORE PUSH1 0x20 ADD PUSH1 0x0 ISZERO ISZERO DUP2 MSTORE POP SWAP1 JUMP JUMPDEST PUSH1 0x40 MLOAD DUP1 PUSH2 0x200 ADD PUSH1 0x40 MSTORE DUP1 PUSH1 0x0 PUSH1 0x1 DUP2 GT ISZERO PUSH2 0x38A3 JUMPI PUSH2 0x38A2 PUSH2 0x3EB7 JUMP JUMPDEST JUMPDEST DUP2 MSTORE PUSH1 0x20 ADD PUSH1 0x0 PUSH1 0x3 DUP2 GT ISZERO PUSH2 0x38BC JUMPI PUSH2 0x38BB PUSH2 0x3EB7 JUMP JUMPDEST JUMPDEST DUP2 MSTORE PUSH1 0x20 ADD PUSH1 0x0 PUSH2 0xFFFF AND DUP2 MSTORE PUSH1 0x20 ADD PUSH1 0x0 PUSH2 0xFFFF AND DUP2 MSTORE PUSH1 0x20 ADD PUSH1 0x0 PUSH2 0xFFFF AND DUP2 MSTORE PUSH1 0x20 ADD PUSH1 0x0 PUSH2 0xFFFF AND DUP2 MSTORE PUSH1 0x20 ADD PUSH1 0x0 PUSH2 0xFFFF AND DUP2 MSTORE PUSH1 0x20 ADD PUSH1 0x0 DUP2 MSTORE PUSH1 0x20 ADD PUSH1 0x0 DUP2 MSTORE PUSH1 0x20 ADD PUSH1 0x0 DUP2 MSTORE PUSH1 0x20 ADD PUSH1 0x0 DUP2 MSTORE PUSH1 0x20 ADD PUSH1 0x0 DUP2 MSTORE PUSH1 0x20 ADD PUSH1 0x0 DUP2 MSTORE PUSH1 0x20 ADD PUSH1 0x0 DUP2 MSTORE PUSH1 0x20 ADD PUSH1 0x0 DUP2 MSTORE PUSH1 0x20 ADD PUSH1 0x0 DUP2 MSTORE POP SWAP1 JUMP JUMPDEST PUSH1 0x0 PUSH1 0x40 MLOAD SWAP1 POP SWAP1 JUMP JUMPDEST PUSH1 0x0 DUP1 REVERT JUMPDEST PUSH1 0x0 DUP1 REVERT JUMPDEST PUSH1 0x0 PUSH32 0xFFFFFFFF00000000000000000000000000000000000000000000000000000000 DUP3 AND SWAP1 POP SWAP2 SWAP1 POP JUMP JUMPDEST PUSH2 0x3981 DUP2 PUSH2 0x394C JUMP JUMPDEST DUP2 EQ PUSH2 0x398C JUMPI PUSH1 0x0 DUP1 REVERT JUMPDEST POP JUMP JUMPDEST PUSH1 0x0 DUP2 CALLDATALOAD SWAP1 POP PUSH2 0x399E DUP2 PUSH2 0x3978 JUMP JUMPDEST SWAP3 SWAP2 POP POP JUMP JUMPDEST PUSH1 0x0 PUSH1 0x20 DUP3 DUP5 SUB SLT ISZERO PUSH2 0x39BA JUMPI PUSH2 0x39B9 PUSH2 0x3942 JUMP JUMPDEST JUMPDEST PUSH1 0x0 PUSH2 0x39C8 DUP5 DUP3 DUP6 ADD PUSH2 0x398F JUMP JUMPDEST SWAP2 POP POP SWAP3 SWAP2 POP POP JUMP JUMPDEST PUSH1 0x0 DUP2 ISZERO ISZERO SWAP1 POP SWAP2 SWAP1 POP JUMP JUMPDEST PUSH2 0x39E6 DUP2 PUSH2 0x39D1 JUMP JUMPDEST DUP3 MSTORE POP POP JUMP JUMPDEST PUSH1 0x0 PUSH1 0x20 DUP3 ADD SWAP1 POP PUSH2 0x3A01 PUSH1 0x0 DUP4 ADD DUP5 PUSH2 0x39DD JUMP JUMPDEST SWAP3 SWAP2 POP POP JUMP JUMPDEST PUSH1 0x0 PUSH2 0xFFFF DUP3 AND SWAP1 POP SWAP2 SWAP1 POP JUMP JUMPDEST PUSH2 0x3A1E DUP2 PUSH2 0x3A07 JUMP JUMPDEST DUP2 EQ PUSH2 0x3A29 JUMPI PUSH1 0x0 DUP1 REVERT JUMPDEST POP JUMP JUMPDEST PUSH1 0x0 DUP2 CALLDATALOAD SWAP1 POP PUSH2 0x3A3B DUP2 PUSH2 0x3A15 JUMP JUMPDEST SWAP3 SWAP2 POP POP JUMP JUMPDEST PUSH1 0x0 PUSH1 0x20 DUP3 DUP5 SUB SLT ISZERO PUSH2 0x3A57 JUMPI PUSH2 0x3A56 PUSH2 0x3942 JUMP JUMPDEST JUMPDEST PUSH1 0x0 PUSH2 0x3A65 DUP5 DUP3 DUP6 ADD PUSH2 0x3A2C JUMP JUMPDEST SWAP2 POP POP SWAP3 SWAP2 POP POP JUMP JUMPDEST PUSH1 0x0 PUSH20 0xFFFFFFFFFFFFFFFFFFFFFFFFFFFFFFFFFFFFFFFF DUP3 AND SWAP1 POP SWAP2 SWAP1 POP JUMP JUMPDEST PUSH1 0x0 PUSH2 0x3A99 DUP3 PUSH2 0x3A6E JUMP JUMPDEST SWAP1 POP SWAP2 SWAP1 POP JUMP JUMPDEST PUSH2 0x3AA9 DUP2 PUSH2 0x3A8E JUMP JUMPDEST DUP2 EQ PUSH2 0x3AB4 JUMPI PUSH1 0x0 DUP1 REVERT JUMPDEST POP JUMP JUMPDEST PUSH1 0x0 DUP2 CALLDATALOAD SWAP1 POP PUSH2 0x3AC6 DUP2 PUSH2 0x3AA0 JUMP JUMPDEST SWAP3 SWAP2 POP POP JUMP JUMPDEST PUSH1 0x0 PUSH1 0x20 DUP3 DUP5 SUB SLT ISZERO PUSH2 0x3AE2 JUMPI PUSH2 0x3AE1 PUSH2 0x3942 JUMP JUMPDEST JUMPDEST PUSH1 0x0 PUSH2 0x3AF0 DUP5 DUP3 DUP6 ADD PUSH2 0x3AB7 JUMP JUMPDEST SWAP2 POP POP SWAP3 SWAP2 POP POP JUMP JUMPDEST PUSH1 0x0 DUP2 MLOAD SWAP1 POP SWAP2 SWAP1 POP JUMP JUMPDEST PUSH1 0x0 DUP3 DUP3 MSTORE PUSH1 0x20 DUP3 ADD SWAP1 POP SWAP3 SWAP2 POP POP JUMP JUMPDEST PUSH1 0x0 DUP2 SWAP1 POP PUSH1 0x20 DUP3 ADD SWAP1 POP SWAP2 SWAP1 POP JUMP JUMPDEST PUSH1 0x0 DUP2 SWAP1 POP SWAP2 SWAP1 POP JUMP JUMPDEST PUSH2 0x3B38 DUP2 PUSH2 0x3B25 JUMP JUMPDEST DUP3 MSTORE POP POP JUMP JUMPDEST PUSH1 0x0 PUSH2 0x3B4A DUP4 DUP4 PUSH2 0x3B2F JUMP JUMPDEST PUSH1 0x20 DUP4 ADD SWAP1 POP SWAP3 SWAP2 POP POP JUMP JUMPDEST PUSH1 0x0 PUSH1 0x20 DUP3 ADD SWAP1 POP SWAP2 SWAP1 POP JUMP JUMPDEST PUSH1 0x0 PUSH2 0x3B6E DUP3 PUSH2 0x3AF9 JUMP JUMPDEST PUSH2 0x3B78 DUP2 DUP6 PUSH2 0x3B04 JUMP JUMPDEST SWAP4 POP PUSH2 0x3B83 DUP4 PUSH2 0x3B15 JUMP JUMPDEST DUP1 PUSH1 0x0 JUMPDEST DUP4 DUP2 LT ISZERO PUSH2 0x3BB4 JUMPI DUP2 MLOAD PUSH2 0x3B9B DUP9 DUP3 PUSH2 0x3B3E JUMP JUMPDEST SWAP8 POP PUSH2 0x3BA6 DUP4 PUSH2 0x3B56 JUMP JUMPDEST SWAP3 POP POP PUSH1 0x1 DUP2 ADD SWAP1 POP PUSH2 0x3B87 JUMP JUMPDEST POP DUP6 SWAP4 POP POP POP POP SWAP3 SWAP2 POP POP JUMP JUMPDEST PUSH1 0x0 PUSH1 0x20 DUP3 ADD SWAP1 POP DUP2 DUP2 SUB PUSH1 0x0 DUP4 ADD MSTORE PUSH2 0x3BDB DUP2 DUP5 PUSH2 0x3B63 JUMP JUMPDEST SWAP1 POP SWAP3 SWAP2 POP POP JUMP JUMPDEST PUSH2 0x3BEC DUP2 PUSH2 0x39D1 JUMP JUMPDEST DUP2 EQ PUSH2 0x3BF7 JUMPI PUSH1 0x0 DUP1 REVERT JUMPDEST POP JUMP JUMPDEST PUSH1 0x0 DUP2 CALLDATALOAD SWAP1 POP PUSH2 0x3C09 DUP2 PUSH2 0x3BE3 JUMP JUMPDEST SWAP3 SWAP2 POP POP JUMP JUMPDEST PUSH1 0x0 DUP1 PUSH1 0x40 DUP4 DUP6 SUB SLT ISZERO PUSH2 0x3C26 JUMPI PUSH2 0x3C25 PUSH2 0x3942 JUMP JUMPDEST JUMPDEST PUSH1 0x0 PUSH2 0x3C34 DUP6 DUP3 DUP7 ADD PUSH2 0x3AB7 JUMP JUMPDEST SWAP3 POP POP PUSH1 0x20 PUSH2 0x3C45 DUP6 DUP3 DUP7 ADD PUSH2 0x3BFA JUMP JUMPDEST SWAP2 POP POP SWAP3 POP SWAP3 SWAP1 POP JUMP JUMPDEST PUSH1 0x2 DUP2 LT PUSH2 0x3C5C JUMPI PUSH1 0x0 DUP1 REVERT JUMPDEST POP JUMP JUMPDEST PUSH1 0x0 DUP2 CALLDATALOAD SWAP1 POP PUSH2 0x3C6E DUP2 PUSH2 0x3C4F JUMP JUMPDEST SWAP3 SWAP2 POP POP JUMP JUMPDEST PUSH2 0x3C7D DUP2 PUSH2 0x3B25 JUMP JUMPDEST DUP2 EQ PUSH2 0x3C88 JUMPI PUSH1 0x0 DUP1 REVERT JUMPDEST POP JUMP JUMPDEST PUSH1 0x0 DUP2 CALLDATALOAD SWAP1 POP PUSH2 0x3C9A DUP2 PUSH2 0x3C74 JUMP JUMPDEST SWAP3 SWAP2 POP POP JUMP JUMPDEST PUSH1 0x0 DUP1 PUSH1 0x0 DUP1 PUSH1 0x0 DUP1 PUSH1 0x0 PUSH1 0xE0 DUP9 DUP11 SUB SLT ISZERO PUSH2 0x3CBF JUMPI PUSH2 0x3CBE PUSH2 0x3942 JUMP JUMPDEST JUMPDEST PUSH1 0x0 PUSH2 0x3CCD DUP11 DUP3 DUP12 ADD PUSH2 0x3C5F JUMP JUMPDEST SWAP8 POP POP PUSH1 0x20 PUSH2 0x3CDE DUP11 DUP3 DUP12 ADD PUSH2 0x3A2C JUMP JUMPDEST SWAP7 POP POP PUSH1 0x40 PUSH2 0x3CEF DUP11 DUP3 DUP12 ADD PUSH2 0x3A2C JUMP JUMPDEST SWAP6 POP POP PUSH1 0x60 PUSH2 0x3D00 DUP11 DUP3 DUP12 ADD PUSH2 0x3C8B JUMP JUMPDEST SWAP5 POP POP PUSH1 0x80 PUSH2 0x3D11 DUP11 DUP3 DUP12 ADD PUSH2 0x3C8B JUMP JUMPDEST SWAP4 POP POP PUSH1 0xA0 PUSH2 0x3D22 DUP11 DUP3 DUP12 ADD PUSH2 0x3C8B JUMP JUMPDEST SWAP3 POP POP PUSH1 0xC0 PUSH2 0x3D33 DUP11 DUP3 DUP12 ADD PUSH2 0x3C8B JUMP JUMPDEST SWAP2 POP POP SWAP3 SWAP6 SWAP9 SWAP2 SWAP5 SWAP8 POP SWAP3 SWAP6 POP JUMP JUMPDEST PUSH1 0x0 DUP1 PUSH1 0x40 DUP4 DUP6 SUB SLT ISZERO PUSH2 0x3D59 JUMPI PUSH2 0x3D58 PUSH2 0x3942 JUMP JUMPDEST JUMPDEST PUSH1 0x0 PUSH2 0x3D67 DUP6 DUP3 DUP7 ADD PUSH2 0x3AB7 JUMP JUMPDEST SWAP3 POP POP PUSH1 0x20 PUSH2 0x3D78 DUP6 DUP3 DUP7 ADD PUSH2 0x3A2C JUMP JUMPDEST SWAP2 POP POP SWAP3 POP SWAP3 SWAP1 POP JUMP JUMPDEST PUSH2 0x3D8B DUP2 PUSH2 0x3B25 JUMP JUMPDEST DUP3 MSTORE POP POP JUMP JUMPDEST PUSH1 0x0 PUSH1 0x20 DUP3 ADD SWAP1 POP PUSH2 0x3DA6 PUSH1 0x0 DUP4 ADD DUP5 PUSH2 0x3D82 JUMP JUMPDEST SWAP3 SWAP2 POP POP JUMP JUMPDEST PUSH2 0x3DB5 DUP2 PUSH2 0x3A8E JUMP JUMPDEST DUP3 MSTORE POP POP JUMP JUMPDEST PUSH1 0x0 PUSH1 0x20 DUP3 ADD SWAP1 POP PUSH2 0x3DD0 PUSH1 0x0 DUP4 ADD DUP5 PUSH2 0x3DAC JUMP JUMPDEST SWAP3 SWAP2 POP POP JUMP JUMPDEST PUSH1 0x0 PUSH1 0x20 DUP3 DUP5 SUB SLT ISZERO PUSH2 0x3DEC JUMPI PUSH2 0x3DEB PUSH2 0x3942 JUMP JUMPDEST JUMPDEST PUSH1 0x0 PUSH2 0x3DFA DUP5 DUP3 DUP6 ADD PUSH2 0x3C8B JUMP JUMPDEST SWAP2 POP POP SWAP3 SWAP2 POP POP JUMP JUMPDEST PUSH2 0x3E0C DUP2 PUSH2 0x3A07 JUMP JUMPDEST DUP3 MSTORE POP POP JUMP JUMPDEST PUSH2 0x3E1B DUP2 PUSH2 0x39D1 JUMP JUMPDEST DUP3 MSTORE POP POP JUMP JUMPDEST PUSH1 0xC0 DUP3 ADD PUSH1 0x0 DUP3 ADD MLOAD PUSH2 0x3E37 PUSH1 0x0 DUP6 ADD DUP3 PUSH2 0x3E03 JUMP JUMPDEST POP PUSH1 0x20 DUP3 ADD MLOAD PUSH2 0x3E4A PUSH1 0x20 DUP6 ADD DUP3 PUSH2 0x3B2F JUMP JUMPDEST POP PUSH1 0x40 DUP3 ADD MLOAD PUSH2 0x3E5D PUSH1 0x40 DUP6 ADD DUP3 PUSH2 0x3B2F JUMP JUMPDEST POP PUSH1 0x60 DUP3 ADD MLOAD PUSH2 0x3E70 PUSH1 0x60 DUP6 ADD DUP3 PUSH2 0x3B2F JUMP JUMPDEST POP PUSH1 0x80 DUP3 ADD MLOAD PUSH2 0x3E83 PUSH1 0x80 DUP6 ADD DUP3 PUSH2 0x3B2F JUMP JUMPDEST POP PUSH1 0xA0 DUP3 ADD MLOAD PUSH2 0x3E96 PUSH1 0xA0 DUP6 ADD DUP3 PUSH2 0x3E12 JUMP JUMPDEST POP POP POP POP JUMP JUMPDEST PUSH1 0x0 PUSH1 0xC0 DUP3 ADD SWAP1 POP PUSH2 0x3EB1 PUSH1 0x0 DUP4 ADD DUP5 PUSH2 0x3E21 JUMP JUMPDEST SWAP3 SWAP2 POP POP JUMP JUMPDEST PUSH32 0x4E487B7100000000000000000000000000000000000000000000000000000000 PUSH1 0x0 MSTORE PUSH1 0x21 PUSH1 0x4 MSTORE PUSH1 0x24 PUSH1 0x0 REVERT JUMPDEST PUSH1 0x2 DUP2 LT PUSH2 0x3EF7 JUMPI PUSH2 0x3EF6 PUSH2 0x3EB7 JUMP JUMPDEST JUMPDEST POP JUMP JUMPDEST PUSH1 0x0 DUP2 SWAP1 POP PUSH2 0x3F08 DUP3 PUSH2 0x3EE6 JUMP JUMPDEST SWAP2 SWAP1 POP JUMP JUMPDEST PUSH1 0x0 PUSH2 0x3F18 DUP3 PUSH2 0x3EFA JUMP JUMPDEST SWAP1 POP SWAP2 SWAP1 POP JUMP JUMPDEST PUSH2 0x3F28 DUP2 PUSH2 0x3F0D JUMP JUMPDEST DUP3 MSTORE POP POP JUMP JUMPDEST PUSH1 0x4 DUP2 LT PUSH2 0x3F3F JUMPI PUSH2 0x3F3E PUSH2 0x3EB7 JUMP JUMPDEST JUMPDEST POP JUMP JUMPDEST PUSH1 0x0 DUP2 SWAP1 POP PUSH2 0x3F50 DUP3 PUSH2 0x3F2E JUMP JUMPDEST SWAP2 SWAP1 POP JUMP JUMPDEST PUSH1 0x0 PUSH2 0x3F60 DUP3 PUSH2 0x3F42 JUMP JUMPDEST SWAP1 POP SWAP2 SWAP1 POP JUMP JUMPDEST PUSH2 0x3F70 DUP2 PUSH2 0x3F55 JUMP JUMPDEST DUP3 MSTORE POP POP JUMP JUMPDEST PUSH2 0x200 DUP3 ADD PUSH1 0x0 DUP3 ADD MLOAD PUSH2 0x3F8D PUSH1 0x0 DUP6 ADD DUP3 PUSH2 0x3F1F JUMP JUMPDEST POP PUSH1 0x20 DUP3 ADD MLOAD PUSH2 0x3FA0 PUSH1 0x20 DUP6 ADD DUP3 PUSH2 0x3F67 JUMP JUMPDEST POP PUSH1 0x40 DUP3 ADD MLOAD PUSH2 0x3FB3 PUSH1 0x40 DUP6 ADD DUP3 PUSH2 0x3E03 JUMP JUMPDEST POP PUSH1 0x60 DUP3 ADD MLOAD PUSH2 0x3FC6 PUSH1 0x60 DUP6 ADD DUP3 PUSH2 0x3E03 JUMP JUMPDEST POP PUSH1 0x80 DUP3 ADD MLOAD PUSH2 0x3FD9 PUSH1 0x80 DUP6 ADD DUP3 PUSH2 0x3E03 JUMP JUMPDEST POP PUSH1 0xA0 DUP3 ADD MLOAD PUSH2 0x3FEC PUSH1 0xA0 DUP6 ADD DUP3 PUSH2 0x3E03 JUMP JUMPDEST POP PUSH1 0xC0 DUP3 ADD MLOAD PUSH2 0x3FFF PUSH1 0xC0 DUP6 ADD DUP3 PUSH2 0x3E03 JUMP JUMPDEST POP PUSH1 0xE0 DUP3 ADD MLOAD PUSH2 0x4012 PUSH1 0xE0 DUP6 ADD DUP3 PUSH2 0x3B2F JUMP JUMPDEST POP PUSH2 0x100 DUP3 ADD MLOAD PUSH2 0x4027 PUSH2 0x100 DUP6 ADD DUP3 PUSH2 0x3B2F JUMP JUMPDEST POP PUSH2 0x120 DUP3 ADD MLOAD PUSH2 0x403C PUSH2 0x120 DUP6 ADD DUP3 PUSH2 0x3B2F JUMP JUMPDEST POP PUSH2 0x140 DUP3 ADD MLOAD PUSH2 0x4051 PUSH2 0x140 DUP6 ADD DUP3 PUSH2 0x3B2F JUMP JUMPDEST POP PUSH2 0x160 DUP3 ADD MLOAD PUSH2 0x4066 PUSH2 0x160 DUP6 ADD DUP3 PUSH2 0x3B2F JUMP JUMPDEST POP PUSH2 0x180 DUP3 ADD MLOAD PUSH2 0x407B PUSH2 0x180 DUP6 ADD DUP3 PUSH2 0x3B2F JUMP JUMPDEST POP PUSH2 0x1A0 DUP3 ADD MLOAD PUSH2 0x4090 PUSH2 0x1A0 DUP6 ADD DUP3 PUSH2 0x3B2F JUMP JUMPDEST POP PUSH2 0x1C0 DUP3 ADD MLOAD PUSH2 0x40A5 PUSH2 0x1C0 DUP6 ADD DUP3 PUSH2 0x3B2F JUMP JUMPDEST POP PUSH2 0x1E0 DUP3 ADD MLOAD PUSH2 0x40BA PUSH2 0x1E0 DUP6 ADD DUP3 PUSH2 0x3B2F JUMP JUMPDEST POP POP POP POP JUMP JUMPDEST PUSH1 0x0 PUSH2 0x200 DUP3 ADD SWAP1 POP PUSH2 0x40D6 PUSH1 0x0 DUP4 ADD DUP5 PUSH2 0x3F76 JUMP JUMPDEST SWAP3 SWAP2 POP POP JUMP JUMPDEST PUSH1 0x0 DUP1 REVERT JUMPDEST PUSH1 0x0 PUSH1 0x1F NOT PUSH1 0x1F DUP4 ADD AND SWAP1 POP SWAP2 SWAP1 POP JUMP JUMPDEST PUSH32 0x4E487B7100000000000000000000000000000000000000000000000000000000 PUSH1 0x0 MSTORE PUSH1 0x41 PUSH1 0x4 MSTORE PUSH1 0x24 PUSH1 0x0 REVERT JUMPDEST PUSH2 0x412A DUP3 PUSH2 0x40E1 JUMP JUMPDEST DUP2 ADD DUP2 DUP2 LT PUSH8 0xFFFFFFFFFFFFFFFF DUP3 GT OR ISZERO PUSH2 0x4149 JUMPI PUSH2 0x4148 PUSH2 0x40F2 JUMP JUMPDEST JUMPDEST DUP1 PUSH1 0x40 MSTORE POP POP POP JUMP JUMPDEST PUSH1 0x0 PUSH2 0x415C PUSH2 0x3938 JUMP JUMPDEST SWAP1 POP PUSH2 0x4168 DUP3 DUP3 PUSH2 0x4121 JUMP JUMPDEST SWAP2 SWAP1 POP JUMP JUMPDEST PUSH1 0x0 PUSH8 0xFFFFFFFFFFFFFFFF DUP3 GT ISZERO PUSH2 0x4188 JUMPI PUSH2 0x4187 PUSH2 0x40F2 JUMP JUMPDEST JUMPDEST PUSH1 0x20 DUP3 MUL SWAP1 POP PUSH1 0x20 DUP2 ADD SWAP1 POP SWAP2 SWAP1 POP JUMP JUMPDEST PUSH1 0x0 DUP1 REVERT JUMPDEST PUSH1 0x0 PUSH2 0x41B1 PUSH2 0x41AC DUP5 PUSH2 0x416D JUMP JUMPDEST PUSH2 0x4152 JUMP JUMPDEST SWAP1 POP DUP1 DUP4 DUP3 MSTORE PUSH1 0x20 DUP3 ADD SWAP1 POP PUSH1 0x20 DUP5 MUL DUP4 ADD DUP6 DUP2 GT ISZERO PUSH2 0x41D4 JUMPI PUSH2 0x41D3 PUSH2 0x4199 JUMP JUMPDEST JUMPDEST DUP4 JUMPDEST DUP2 DUP2 LT ISZERO PUSH2 0x41FD JUMPI DUP1 PUSH2 0x41E9 DUP9 DUP3 PUSH2 0x3C8B JUMP JUMPDEST DUP5 MSTORE PUSH1 0x20 DUP5 ADD SWAP4 POP POP PUSH1 0x20 DUP2 ADD SWAP1 POP PUSH2 0x41D6 JUMP JUMPDEST POP POP POP SWAP4 SWAP3 POP POP POP JUMP JUMPDEST PUSH1 0x0 DUP3 PUSH1 0x1F DUP4 ADD SLT PUSH2 0x421C JUMPI PUSH2 0x421B PUSH2 0x40DC JUMP JUMPDEST JUMPDEST DUP2 CALLDATALOAD PUSH2 0x422C DUP5 DUP3 PUSH1 0x20 DUP7 ADD PUSH2 0x419E JUMP JUMPDEST SWAP2 POP POP SWAP3 SWAP2 POP POP JUMP JUMPDEST PUSH1 0x0 DUP1 PUSH1 0x0 PUSH1 0x60 DUP5 DUP7 SUB SLT ISZERO PUSH2 0x424E JUMPI PUSH2 0x424D PUSH2 0x3942 JUMP JUMPDEST JUMPDEST PUSH1 0x0 PUSH2 0x425C DUP7 DUP3 DUP8 ADD PUSH2 0x3AB7 JUMP JUMPDEST SWAP4 POP POP PUSH1 0x20 DUP5 ADD CALLDATALOAD PUSH8 0xFFFFFFFFFFFFFFFF DUP2 GT ISZERO PUSH2 0x427D JUMPI PUSH2 0x427C PUSH2 0x3947 JUMP JUMPDEST JUMPDEST PUSH2 0x4289 DUP7 DUP3 DUP8 ADD PUSH2 0x4207 JUMP JUMPDEST SWAP3 POP POP PUSH1 0x40 DUP5 ADD CALLDATALOAD PUSH8 0xFFFFFFFFFFFFFFFF DUP2 GT ISZERO PUSH2 0x42AA JUMPI PUSH2 0x42A9 PUSH2 0x3947 JUMP JUMPDEST JUMPDEST PUSH2 0x42B6 DUP7 DUP3 DUP8 ADD PUSH2 0x4207 JUMP JUMPDEST SWAP2 POP POP SWAP3 POP SWAP3 POP SWAP3 JUMP JUMPDEST PUSH1 0x0 DUP1 PUSH1 0x40 DUP4 DUP6 SUB SLT ISZERO PUSH2 0x42D7 JUMPI PUSH2 0x42D6 PUSH2 0x3942 JUMP JUMPDEST JUMPDEST PUSH1 0x0 PUSH2 0x42E5 DUP6 DUP3 DUP7 ADD PUSH2 0x3AB7 JUMP JUMPDEST SWAP3 POP POP PUSH1 0x20 PUSH2 0x42F6 DUP6 DUP3 DUP7 ADD PUSH2 0x3C8B JUMP JUMPDEST SWAP2 POP POP SWAP3 POP SWAP3 SWAP1 POP JUMP JUMPDEST PUSH1 0x4 DUP2 LT PUSH2 0x430D JUMPI PUSH1 0x0 DUP1 REVERT JUMPDEST POP JUMP JUMPDEST PUSH1 0x0 DUP2 CALLDATALOAD SWAP1 POP PUSH2 0x431F DUP2 PUSH2 0x4300 JUMP JUMPDEST SWAP3 SWAP2 POP POP JUMP JUMPDEST PUSH1 0x0 DUP1 PUSH1 0x0 DUP1 PUSH1 0x0 PUSH1 0xA0 DUP7 DUP9 SUB SLT ISZERO PUSH2 0x4341 JUMPI PUSH2 0x4340 PUSH2 0x3942 JUMP JUMPDEST JUMPDEST PUSH1 0x0 PUSH2 0x434F DUP9 DUP3 DUP10 ADD PUSH2 0x3A2C JUMP JUMPDEST SWAP6 POP POP PUSH1 0x20 PUSH2 0x4360 DUP9 DUP3 DUP10 ADD PUSH2 0x4310 JUMP JUMPDEST SWAP5 POP POP PUSH1 0x40 PUSH2 0x4371 DUP9 DUP3 DUP10 ADD PUSH2 0x3A2C JUMP JUMPDEST SWAP4 POP POP PUSH1 0x60 PUSH2 0x4382 DUP9 DUP3 DUP10 ADD PUSH2 0x3A2C JUMP JUMPDEST SWAP3 POP POP PUSH1 0x80 PUSH2 0x4393 DUP9 DUP3 DUP10 ADD PUSH2 0x3C8B JUMP JUMPDEST SWAP2 POP POP SWAP3 SWAP6 POP SWAP3 SWAP6 SWAP1 SWAP4 POP JUMP JUMPDEST PUSH1 0x0 DUP1 REVERT JUMPDEST PUSH1 0x0 PUSH8 0xFFFFFFFFFFFFFFFF DUP3 GT ISZERO PUSH2 0x43C0 JUMPI PUSH2 0x43BF PUSH2 0x40F2 JUMP JUMPDEST JUMPDEST PUSH2 0x43C9 DUP3 PUSH2 0x40E1 JUMP JUMPDEST SWAP1 POP PUSH1 0x20 DUP2 ADD SWAP1 POP SWAP2 SWAP1 POP JUMP JUMPDEST DUP3 DUP2 DUP4 CALLDATACOPY PUSH1 0x0 DUP4 DUP4 ADD MSTORE POP POP POP JUMP JUMPDEST PUSH1 0x0 PUSH2 0x43F8 PUSH2 0x43F3 DUP5 PUSH2 0x43A5 JUMP JUMPDEST PUSH2 0x4152 JUMP JUMPDEST SWAP1 POP DUP3 DUP2 MSTORE PUSH1 0x20 DUP2 ADD DUP5 DUP5 DUP5 ADD GT ISZERO PUSH2 0x4414 JUMPI PUSH2 0x4413 PUSH2 0x43A0 JUMP JUMPDEST JUMPDEST PUSH2 0x441F DUP5 DUP3 DUP6 PUSH2 0x43D6 JUMP JUMPDEST POP SWAP4 SWAP3 POP POP POP JUMP JUMPDEST PUSH1 0x0 DUP3 PUSH1 0x1F DUP4 ADD SLT PUSH2 0x443C JUMPI PUSH2 0x443B PUSH2 0x40DC JUMP JUMPDEST JUMPDEST DUP2 CALLDATALOAD PUSH2 0x444C DUP5 DUP3 PUSH1 0x20 DUP7 ADD PUSH2 0x43E5 JUMP JUMPDEST SWAP2 POP POP SWAP3 SWAP2 POP POP JUMP JUMPDEST PUSH1 0x0 DUP1 PUSH1 0x0 DUP1 PUSH1 0x0 PUSH1 0xA0 DUP7 DUP9 SUB SLT ISZERO PUSH2 0x4471 JUMPI PUSH2 0x4470 PUSH2 0x3942 JUMP JUMPDEST JUMPDEST PUSH1 0x0 PUSH2 0x447F DUP9 DUP3 DUP10 ADD PUSH2 0x3AB7 JUMP JUMPDEST SWAP6 POP POP PUSH1 0x20 PUSH2 0x4490 DUP9 DUP3 DUP10 ADD PUSH2 0x3AB7 JUMP JUMPDEST SWAP5 POP POP PUSH1 0x40 DUP7 ADD CALLDATALOAD PUSH8 0xFFFFFFFFFFFFFFFF DUP2 GT ISZERO PUSH2 0x44B1 JUMPI PUSH2 0x44B0 PUSH2 0x3947 JUMP JUMPDEST JUMPDEST PUSH2 0x44BD DUP9 DUP3 DUP10 ADD PUSH2 0x4207 JUMP JUMPDEST SWAP4 POP POP PUSH1 0x60 DUP7 ADD CALLDATALOAD PUSH8 0xFFFFFFFFFFFFFFFF DUP2 GT ISZERO PUSH2 0x44DE JUMPI PUSH2 0x44DD PUSH2 0x3947 JUMP JUMPDEST JUMPDEST PUSH2 0x44EA DUP9 DUP3 DUP10 ADD PUSH2 0x4207 JUMP JUMPDEST SWAP3 POP POP PUSH1 0x80 DUP7 ADD CALLDATALOAD PUSH8 0xFFFFFFFFFFFFFFFF DUP2 GT ISZERO PUSH2 0x450B JUMPI PUSH2 0x450A PUSH2 0x3947 JUMP JUMPDEST JUMPDEST PUSH2 0x4517 DUP9 DUP3 DUP10 ADD PUSH2 0x4427 JUMP JUMPDEST SWAP2 POP POP SWAP3 SWAP6 POP SWAP3 SWAP6 SWAP1 SWAP4 POP JUMP JUMPDEST PUSH2 0x452D DUP2 PUSH2 0x394C JUMP JUMPDEST DUP3 MSTORE POP POP JUMP JUMPDEST PUSH1 0x0 PUSH1 0x20 DUP3 ADD SWAP1 POP PUSH2 0x4548 PUSH1 0x0 DUP4 ADD DUP5 PUSH2 0x4524 JUMP JUMPDEST SWAP3 SWAP2 POP POP JUMP JUMPDEST PUSH1 0x0 DUP1 PUSH1 0x0 DUP1 PUSH1 0x80 DUP6 DUP8 SUB SLT ISZERO PUSH2 0x4568 JUMPI PUSH2 0x4567 PUSH2 0x3942 JUMP JUMPDEST JUMPDEST PUSH1 0x0 PUSH2 0x4576 DUP8 DUP3 DUP9 ADD PUSH2 0x3A2C JUMP JUMPDEST SWAP5 POP POP PUSH1 0x20 PUSH2 0x4587 DUP8 DUP3 DUP9 ADD PUSH2 0x4310 JUMP JUMPDEST SWAP4 POP POP PUSH1 0x40 PUSH2 0x4598 DUP8 DUP3 DUP9 ADD PUSH2 0x3C8B JUMP JUMPDEST SWAP3 POP POP PUSH1 0x60 PUSH2 0x45A9 DUP8 DUP3 DUP9 ADD PUSH2 0x3C8B JUMP JUMPDEST SWAP2 POP POP SWAP3 SWAP6 SWAP2 SWAP5 POP SWAP3 POP JUMP JUMPDEST PUSH1 0x0 DUP1 PUSH1 0x0 DUP1 PUSH1 0x0 PUSH1 0xA0 DUP7 DUP9 SUB SLT ISZERO PUSH2 0x45D1 JUMPI PUSH2 0x45D0 PUSH2 0x3942 JUMP JUMPDEST JUMPDEST PUSH1 0x0 PUSH2 0x45DF DUP9 DUP3 DUP10 ADD PUSH2 0x3AB7 JUMP JUMPDEST SWAP6 POP POP PUSH1 0x20 PUSH2 0x45F0 DUP9 DUP3 DUP10 ADD PUSH2 0x3AB7 JUMP JUMPDEST SWAP5 POP POP PUSH1 0x40 PUSH2 0x4601 DUP9 DUP3 DUP10 ADD PUSH2 0x3C8B JUMP JUMPDEST SWAP4 POP POP PUSH1 0x60 PUSH2 0x4612 DUP9 DUP3 DUP10 ADD PUSH2 0x3C8B JUMP JUMPDEST SWAP3 POP POP PUSH1 0x80 DUP7 ADD CALLDATALOAD PUSH8 0xFFFFFFFFFFFFFFFF DUP2 GT ISZERO PUSH2 0x4633 JUMPI PUSH2 0x4632 PUSH2 0x3947 JUMP JUMPDEST JUMPDEST PUSH2 0x463F DUP9 DUP3 DUP10 ADD PUSH2 0x4427 JUMP JUMPDEST SWAP2 POP POP SWAP3 SWAP6 POP SWAP3 SWAP6 SWAP1 SWAP4 POP JUMP JUMPDEST PUSH1 0x0 DUP1 PUSH1 0x0 DUP1 PUSH1 0x0 DUP1 PUSH1 0x0 DUP1 PUSH2 0x100 DUP10 DUP12 SUB SLT ISZERO PUSH2 0x466D JUMPI PUSH2 0x466C PUSH2 0x3942 JUMP JUMPDEST JUMPDEST PUSH1 0x0 PUSH2 0x467B DUP12 DUP3 DUP13 ADD PUSH2 0x3A2C JUMP JUMPDEST SWAP9 POP POP PUSH1 0x20 PUSH2 0x468C DUP12 DUP3 DUP13 ADD PUSH2 0x3C5F JUMP JUMPDEST SWAP8 POP POP PUSH1 0x40 PUSH2 0x469D DUP12 DUP3 DUP13 ADD PUSH2 0x3A2C JUMP JUMPDEST SWAP7 POP POP PUSH1 0x60 PUSH2 0x46AE DUP12 DUP3 DUP13 ADD PUSH2 0x3A2C JUMP JUMPDEST SWAP6 POP POP PUSH1 0x80 PUSH2 0x46BF DUP12 DUP3 DUP13 ADD PUSH2 0x3C8B JUMP JUMPDEST SWAP5 POP POP PUSH1 0xA0 PUSH2 0x46D0 DUP12 DUP3 DUP13 ADD PUSH2 0x3C8B JUMP JUMPDEST SWAP4 POP POP PUSH1 0xC0 PUSH2 0x46E1 DUP12 DUP3 DUP13 ADD PUSH2 0x3C8B JUMP JUMPDEST SWAP3 POP POP PUSH1 0xE0 PUSH2 0x46F2 DUP12 DUP3 DUP13 ADD PUSH2 0x3C8B JUMP JUMPDEST SWAP2 POP POP SWAP3 SWAP6 SWAP9 POP SWAP3 SWAP6 SWAP9 SWAP1 SWAP4 SWAP7 POP JUMP JUMPDEST PUSH2 0x470B DUP2 PUSH2 0x3A07 JUMP JUMPDEST DUP3 MSTORE POP POP JUMP JUMPDEST PUSH1 0x0 PUSH1 0x20 DUP3 ADD SWAP1 POP PUSH2 0x4726 PUSH1 0x0 DUP4 ADD DUP5 PUSH2 0x4702 JUMP JUMPDEST SWAP3 SWAP2 POP POP JUMP JUMPDEST PUSH1 0x0 DUP3 DUP3 MSTORE PUSH1 0x20 DUP3 ADD SWAP1 POP SWAP3 SWAP2 POP POP JUMP JUMPDEST PUSH32 0x496E76616C6964206368616C6C656E6167650000000000000000000000000000 PUSH1 0x0 DUP3 ADD MSTORE POP JUMP JUMPDEST PUSH1 0x0 PUSH2 0x4773 PUSH1 0x12 DUP4 PUSH2 0x472C JUMP JUMPDEST SWAP2 POP PUSH2 0x477E DUP3 PUSH2 0x473D JUMP JUMPDEST PUSH1 0x20 DUP3 ADD SWAP1 POP SWAP2 SWAP1 POP JUMP JUMPDEST PUSH1 0x0 PUSH1 0x20 DUP3 ADD SWAP1 POP DUP2 DUP2 SUB PUSH1 0x0 DUP4 ADD MSTORE PUSH2 0x47A2 DUP2 PUSH2 0x4766 JUMP JUMPDEST SWAP1 POP SWAP2 SWAP1 POP JUMP JUMPDEST PUSH32 0x4368616C6C656E616765206E6F74206F70656E65640000000000000000000000 PUSH1 0x0 DUP3 ADD MSTORE POP JUMP JUMPDEST PUSH1 0x0 PUSH2 0x47DF PUSH1 0x15 DUP4 PUSH2 0x472C JUMP JUMPDEST SWAP2 POP PUSH2 0x47EA DUP3 PUSH2 0x47A9 JUMP JUMPDEST PUSH1 0x20 DUP3 ADD SWAP1 POP SWAP2 SWAP1 POP JUMP JUMPDEST PUSH1 0x0 PUSH1 0x20 DUP3 ADD SWAP1 POP DUP2 DUP2 SUB PUSH1 0x0 DUP4 ADD MSTORE PUSH2 0x480E DUP2 PUSH2 0x47D2 JUMP JUMPDEST SWAP1 POP SWAP2 SWAP1 POP JUMP JUMPDEST PUSH32 0x4861732074616B65207265776172640000000000000000000000000000000000 PUSH1 0x0 DUP3 ADD MSTORE POP JUMP JUMPDEST PUSH1 0x0 PUSH2 0x484B PUSH1 0xF DUP4 PUSH2 0x472C JUMP JUMPDEST SWAP2 POP PUSH2 0x4856 DUP3 PUSH2 0x4815 JUMP JUMPDEST PUSH1 0x20 DUP3 ADD SWAP1 POP SWAP2 SWAP1 POP JUMP JUMPDEST PUSH1 0x0 PUSH1 0x20 DUP3 ADD SWAP1 POP DUP2 DUP2 SUB PUSH1 0x0 DUP4 ADD MSTORE PUSH2 0x487A DUP2 PUSH2 0x483E JUMP JUMPDEST SWAP1 POP SWAP2 SWAP1 POP JUMP JUMPDEST PUSH1 0x0 DUP3 DUP3 MSTORE PUSH1 0x20 DUP3 ADD SWAP1 POP SWAP3 SWAP2 POP POP JUMP JUMPDEST POP JUMP JUMPDEST PUSH1 0x0 PUSH2 0x48A2 PUSH1 0x0 DUP4 PUSH2 0x4881 JUMP JUMPDEST SWAP2 POP PUSH2 0x48AD DUP3 PUSH2 0x4892 JUMP JUMPDEST PUSH1 0x0 DUP3 ADD SWAP1 POP SWAP2 SWAP1 POP JUMP JUMPDEST PUSH1 0x0 PUSH1 0xA0 DUP3 ADD SWAP1 POP PUSH2 0x48CD PUSH1 0x0 DUP4 ADD DUP8 PUSH2 0x3DAC JUMP JUMPDEST PUSH2 0x48DA PUSH1 0x20 DUP4 ADD DUP7 PUSH2 0x3DAC JUMP JUMPDEST PUSH2 0x48E7 PUSH1 0x40 DUP4 ADD DUP6 PUSH2 0x3D82 JUMP JUMPDEST PUSH2 0x48F4 PUSH1 0x60 DUP4 ADD DUP5 PUSH2 0x3D82 JUMP JUMPDEST DUP2 DUP2 SUB PUSH1 0x80 DUP4 ADD MSTORE PUSH2 0x4905 DUP2 PUSH2 0x4895 JUMP JUMPDEST SWAP1 POP SWAP6 SWAP5 POP POP POP POP POP JUMP JUMPDEST PUSH32 0x4E487B7100000000000000000000000000000000000000000000000000000000 PUSH1 0x0 MSTORE PUSH1 0x11 PUSH1 0x4 MSTORE PUSH1 0x24 PUSH1 0x0 REVERT JUMPDEST PUSH1 0x0 PUSH2 0x494A DUP3 PUSH2 0x3B25 JUMP JUMPDEST SWAP2 POP PUSH2 0x4955 DUP4 PUSH2 0x3B25 JUMP JUMPDEST SWAP3 POP DUP3 DUP3 ADD SWAP1 POP DUP1 DUP3 GT ISZERO PUSH2 0x496D JUMPI PUSH2 0x496C PUSH2 0x4910 JUMP JUMPDEST JUMPDEST SWAP3 SWAP2 POP POP JUMP JUMPDEST PUSH1 0x0 PUSH2 0x497E DUP3 PUSH2 0x3B25 JUMP JUMPDEST SWAP2 POP PUSH2 0x4989 DUP4 PUSH2 0x3B25 JUMP JUMPDEST SWAP3 POP DUP3 DUP3 SUB SWAP1 POP DUP2 DUP2 GT ISZERO PUSH2 0x49A1 JUMPI PUSH2 0x49A0 PUSH2 0x4910 JUMP JUMPDEST JUMPDEST SWAP3 SWAP2 POP POP JUMP JUMPDEST PUSH1 0x0 PUSH2 0x49B2 DUP3 PUSH2 0x3B25 JUMP JUMPDEST SWAP2 POP PUSH2 0x49BD DUP4 PUSH2 0x3B25 JUMP JUMPDEST SWAP3 POP DUP3 DUP3 MUL PUSH2 0x49CB DUP2 PUSH2 0x3B25 JUMP JUMPDEST SWAP2 POP DUP3 DUP3 DIV DUP5 EQ DUP4 ISZERO OR PUSH2 0x49E2 JUMPI PUSH2 0x49E1 PUSH2 0x4910 JUMP JUMPDEST JUMPDEST POP SWAP3 SWAP2 POP POP JUMP JUMPDEST PUSH32 0x4E487B7100000000000000000000000000000000000000000000000000000000 PUSH1 0x0 MSTORE PUSH1 0x12 PUSH1 0x4 MSTORE PUSH1 0x24 PUSH1 0x0 REVERT JUMPDEST PUSH1 0x0 PUSH2 0x4A23 DUP3 PUSH2 0x3B25 JUMP JUMPDEST SWAP2 POP PUSH2 0x4A2E DUP4 PUSH2 0x3B25 JUMP JUMPDEST SWAP3 POP DUP3 PUSH2 0x4A3E JUMPI PUSH2 0x4A3D PUSH2 0x49E9 JUMP JUMPDEST JUMPDEST DUP3 DUP3 DIV SWAP1 POP SWAP3 SWAP2 POP POP JUMP JUMPDEST PUSH1 0x0 PUSH1 0x40 DUP3 ADD SWAP1 POP PUSH2 0x4A5E PUSH1 0x0 DUP4 ADD DUP6 PUSH2 0x3DAC JUMP JUMPDEST PUSH2 0x4A6B PUSH1 0x20 DUP4 ADD DUP5 PUSH2 0x3D82 JUMP JUMPDEST SWAP4 SWAP3 POP POP POP JUMP JUMPDEST PUSH1 0x0 DUP2 MLOAD SWAP1 POP PUSH2 0x4A81 DUP2 PUSH2 0x3BE3 JUMP JUMPDEST SWAP3 SWAP2 POP POP JUMP JUMPDEST PUSH1 0x0 PUSH1 0x20 DUP3 DUP5 SUB SLT ISZERO PUSH2 0x4A9D JUMPI PUSH2 0x4A9C PUSH2 0x3942 JUMP JUMPDEST JUMPDEST PUSH1 0x0 PUSH2 0x4AAB DUP5 DUP3 DUP6 ADD PUSH2 0x4A72 JUMP JUMPDEST SWAP2 POP POP SWAP3 SWAP2 POP POP JUMP JUMPDEST PUSH1 0x0 PUSH1 0x40 DUP3 ADD SWAP1 POP PUSH2 0x4AC9 PUSH1 0x0 DUP4 ADD DUP6 PUSH2 0x4702 JUMP JUMPDEST PUSH2 0x4AD6 PUSH1 0x20 DUP4 ADD DUP5 PUSH2 0x3D82 JUMP JUMPDEST SWAP4 SWAP3 POP POP POP JUMP JUMPDEST PUSH32 0x41646D696E61626C653A2063616C6C6572206973206E6F7420746865206F776E PUSH1 0x0 DUP3 ADD MSTORE PUSH32 0x6572000000000000000000000000000000000000000000000000000000000000 PUSH1 0x20 DUP3 ADD MSTORE POP JUMP JUMPDEST PUSH1 0x0 PUSH2 0x4B39 PUSH1 0x22 DUP4 PUSH2 0x472C JUMP JUMPDEST SWAP2 POP PUSH2 0x4B44 DUP3 PUSH2 0x4ADD JUMP JUMPDEST PUSH1 0x40 DUP3 ADD SWAP1 POP SWAP2 SWAP1 POP JUMP JUMPDEST PUSH1 0x0 PUSH1 0x20 DUP3 ADD SWAP1 POP DUP2 DUP2 SUB PUSH1 0x0 DUP4 ADD MSTORE PUSH2 0x4B68 DUP2 PUSH2 0x4B2C JUMP JUMPDEST SWAP1 POP SWAP2 SWAP1 POP JUMP JUMPDEST PUSH1 0x0 PUSH1 0x40 DUP3 ADD SWAP1 POP PUSH2 0x4B84 PUSH1 0x0 DUP4 ADD DUP6 PUSH2 0x39DD JUMP JUMPDEST PUSH2 0x4B91 PUSH1 0x20 DUP4 ADD DUP5 PUSH2 0x39DD JUMP JUMPDEST SWAP4 SWAP3 POP POP POP JUMP JUMPDEST PUSH32 0x41646D696E61626C653A2063616C6C6572206973206E6F74207468652061646D PUSH1 0x0 DUP3 ADD MSTORE PUSH32 0x696E000000000000000000000000000000000000000000000000000000000000 PUSH1 0x20 DUP3 ADD MSTORE POP JUMP JUMPDEST PUSH1 0x0 PUSH2 0x4BF4 PUSH1 0x22 DUP4 PUSH2 0x472C JUMP JUMPDEST SWAP2 POP PUSH2 0x4BFF DUP3 PUSH2 0x4B98 JUMP JUMPDEST PUSH1 0x40 DUP3 ADD SWAP1 POP SWAP2 SWAP1 POP JUMP JUMPDEST PUSH1 0x0 PUSH1 0x20 DUP3 ADD SWAP1 POP DUP2 DUP2 SUB PUSH1 0x0 DUP4 ADD MSTORE PUSH2 0x4C23 DUP2 PUSH2 0x4BE7 JUMP JUMPDEST SWAP1 POP SWAP2 SWAP1 POP JUMP JUMPDEST PUSH32 0x53746172742074696D65206D757374206D6F7265207468616E2070726573656E PUSH1 0x0 DUP3 ADD MSTORE PUSH32 0x742074696D650000000000000000000000000000000000000000000000000000 PUSH1 0x20 DUP3 ADD MSTORE POP JUMP JUMPDEST PUSH1 0x0 PUSH2 0x4C86 PUSH1 0x26 DUP4 PUSH2 0x472C JUMP JUMPDEST SWAP2 POP PUSH2 0x4C91 DUP3 PUSH2 0x4C2A JUMP JUMPDEST PUSH1 0x40 DUP3 ADD SWAP1 POP SWAP2 SWAP1 POP JUMP JUMPDEST PUSH1 0x0 PUSH1 0x20 DUP3 ADD SWAP1 POP DUP2 DUP2 SUB PUSH1 0x0 DUP4 ADD MSTORE PUSH2 0x4CB5 DUP2 PUSH2 0x4C79 JUMP JUMPDEST SWAP1 POP SWAP2 SWAP1 POP JUMP JUMPDEST PUSH32 0x546F6B656E206964206D757374206C657373207468616E203337000000000000 PUSH1 0x0 DUP3 ADD MSTORE POP JUMP JUMPDEST PUSH1 0x0 PUSH2 0x4CF2 PUSH1 0x1A DUP4 PUSH2 0x472C JUMP JUMPDEST SWAP2 POP PUSH2 0x4CFD DUP3 PUSH2 0x4CBC JUMP JUMPDEST PUSH1 0x20 DUP3 ADD SWAP1 POP SWAP2 SWAP1 POP JUMP JUMPDEST PUSH1 0x0 PUSH1 0x20 DUP3 ADD SWAP1 POP DUP2 DUP2 SUB PUSH1 0x0 DUP4 ADD MSTORE PUSH2 0x4D21 DUP2 PUSH2 0x4CE5 JUMP JUMPDEST SWAP1 POP SWAP2 SWAP1 POP JUMP JUMPDEST PUSH1 0x0 PUSH2 0x4D33 DUP3 PUSH2 0x3A07 JUMP JUMPDEST SWAP2 POP PUSH2 0xFFFF DUP3 SUB PUSH2 0x4D47 JUMPI PUSH2 0x4D46 PUSH2 0x4910 JUMP JUMPDEST JUMPDEST PUSH1 0x1 DUP3 ADD SWAP1 POP SWAP2 SWAP1 POP JUMP JUMPDEST PUSH2 0x4D5B DUP2 PUSH2 0x3F0D JUMP JUMPDEST DUP3 MSTORE POP POP JUMP JUMPDEST PUSH1 0x0 PUSH2 0x100 DUP3 ADD SWAP1 POP PUSH2 0x4D77 PUSH1 0x0 DUP4 ADD DUP12 PUSH2 0x4D52 JUMP JUMPDEST PUSH2 0x4D84 PUSH1 0x20 DUP4 ADD DUP11 PUSH2 0x4702 JUMP JUMPDEST PUSH2 0x4D91 PUSH1 0x40 DUP4 ADD DUP10 PUSH2 0x4702 JUMP JUMPDEST PUSH2 0x4D9E PUSH1 0x60 DUP4 ADD DUP9 PUSH2 0x4702 JUMP JUMPDEST PUSH2 0x4DAB PUSH1 0x80 DUP4 ADD DUP8 PUSH2 0x3D82 JUMP JUMPDEST PUSH2 0x4DB8 PUSH1 0xA0 DUP4 ADD DUP7 PUSH2 0x3D82 JUMP JUMPDEST PUSH2 0x4DC5 PUSH1 0xC0 DUP4 ADD DUP6 PUSH2 0x3D82 JUMP JUMPDEST PUSH2 0x4DD2 PUSH1 0xE0 DUP4 ADD DUP5 PUSH2 0x3D82 JUMP JUMPDEST SWAP10 SWAP9 POP POP POP POP POP POP POP POP POP JUMP JUMPDEST PUSH1 0x0 PUSH1 0xA0 DUP3 ADD SWAP1 POP PUSH2 0x4DF4 PUSH1 0x0 DUP4 ADD DUP8 PUSH2 0x3DAC JUMP JUMPDEST PUSH2 0x4E01 PUSH1 0x20 DUP4 ADD DUP7 PUSH2 0x3DAC JUMP JUMPDEST DUP2 DUP2 SUB PUSH1 0x40 DUP4 ADD MSTORE PUSH2 0x4E13 DUP2 DUP6 PUSH2 0x3B63 JUMP JUMPDEST SWAP1 POP DUP2 DUP2 SUB PUSH1 0x60 DUP4 ADD MSTORE PUSH2 0x4E27 DUP2 DUP5 PUSH2 0x3B63 JUMP JUMPDEST SWAP1 POP DUP2 DUP2 SUB PUSH1 0x80 DUP4 ADD MSTORE PUSH2 0x4E3A DUP2 PUSH2 0x4895 JUMP JUMPDEST SWAP1 POP SWAP6 SWAP5 POP POP POP POP POP JUMP JUMPDEST PUSH32 0x496E76616C6964206368616C6C656E6765206964000000000000000000000000 PUSH1 0x0 DUP3 ADD MSTORE POP JUMP JUMPDEST PUSH1 0x0 PUSH2 0x4E7B PUSH1 0x14 DUP4 PUSH2 0x472C JUMP JUMPDEST SWAP2 POP PUSH2 0x4E86 DUP3 PUSH2 0x4E45 JUMP JUMPDEST PUSH1 0x20 DUP3 ADD SWAP1 POP SWAP2 SWAP1 POP JUMP JUMPDEST PUSH1 0x0 PUSH1 0x20 DUP3 ADD SWAP1 POP DUP2 DUP2 SUB PUSH1 0x0 DUP4 ADD MSTORE PUSH2 0x4EAA DUP2 PUSH2 0x4E6E JUMP JUMPDEST SWAP1 POP SWAP2 SWAP1 POP JUMP JUMPDEST PUSH32 0x4368616C6C656E6765206E6F7420656E64000000000000000000000000000000 PUSH1 0x0 DUP3 ADD MSTORE POP JUMP JUMPDEST PUSH1 0x0 PUSH2 0x4EE7 PUSH1 0x11 DUP4 PUSH2 0x472C JUMP JUMPDEST SWAP2 POP PUSH2 0x4EF2 DUP3 PUSH2 0x4EB1 JUMP JUMPDEST PUSH1 0x20 DUP3 ADD SWAP1 POP SWAP2 SWAP1 POP JUMP JUMPDEST PUSH1 0x0 PUSH1 0x20 DUP3 ADD SWAP1 POP DUP2 DUP2 SUB PUSH1 0x0 DUP4 ADD MSTORE PUSH2 0x4F16 DUP2 PUSH2 0x4EDA JUMP JUMPDEST SWAP1 POP SWAP2 SWAP1 POP JUMP JUMPDEST PUSH2 0x4F26 DUP2 PUSH2 0x3F55 JUMP JUMPDEST DUP3 MSTORE POP POP JUMP JUMPDEST PUSH1 0x0 PUSH1 0xA0 DUP3 ADD SWAP1 POP PUSH2 0x4F41 PUSH1 0x0 DUP4 ADD DUP9 PUSH2 0x4702 JUMP JUMPDEST PUSH2 0x4F4E PUSH1 0x20 DUP4 ADD DUP8 PUSH2 0x4702 JUMP JUMPDEST PUSH2 0x4F5B PUSH1 0x40 DUP4 ADD DUP7 PUSH2 0x4702 JUMP JUMPDEST PUSH2 0x4F68 PUSH1 0x60 DUP4 ADD DUP6 PUSH2 0x4F1D JUMP JUMPDEST PUSH2 0x4F75 PUSH1 0x80 DUP4 ADD DUP5 PUSH2 0x3D82 JUMP JUMPDEST SWAP7 SWAP6 POP POP POP POP POP POP JUMP JUMPDEST PUSH32 0x416D6F756E74206973207A65726F000000000000000000000000000000000000 PUSH1 0x0 DUP3 ADD MSTORE POP JUMP JUMPDEST PUSH1 0x0 PUSH2 0x4FB5 PUSH1 0xE DUP4 PUSH2 0x472C JUMP JUMPDEST SWAP2 POP PUSH2 0x4FC0 DUP3 PUSH2 0x4F7F JUMP JUMPDEST PUSH1 0x20 DUP3 ADD SWAP1 POP SWAP2 SWAP1 POP JUMP JUMPDEST PUSH1 0x0 PUSH1 0x20 DUP3 ADD SWAP1 POP DUP2 DUP2 SUB PUSH1 0x0 DUP4 ADD MSTORE PUSH2 0x4FE4 DUP2 PUSH2 0x4FA8 JUMP JUMPDEST SWAP1 POP SWAP2 SWAP1 POP JUMP JUMPDEST PUSH32 0x5461726765742063616E74204E4F4D414C000000000000000000000000000000 PUSH1 0x0 DUP3 ADD MSTORE POP JUMP JUMPDEST PUSH1 0x0 PUSH2 0x5021 PUSH1 0x11 DUP4 PUSH2 0x472C JUMP JUMPDEST SWAP2 POP PUSH2 0x502C DUP3 PUSH2 0x4FEB JUMP JUMPDEST PUSH1 0x20 DUP3 ADD SWAP1 POP SWAP2 SWAP1 POP JUMP JUMPDEST PUSH1 0x0 PUSH1 0x20 DUP3 ADD SWAP1 POP DUP2 DUP2 SUB PUSH1 0x0 DUP4 ADD MSTORE PUSH2 0x5050 DUP2 PUSH2 0x5014 JUMP JUMPDEST SWAP1 POP SWAP2 SWAP1 POP JUMP JUMPDEST PUSH32 0x4964206572726F72000000000000000000000000000000000000000000000000 PUSH1 0x0 DUP3 ADD MSTORE POP JUMP JUMPDEST PUSH1 0x0 PUSH2 0x508D PUSH1 0x8 DUP4 PUSH2 0x472C JUMP JUMPDEST SWAP2 POP PUSH2 0x5098 DUP3 PUSH2 0x5057 JUMP JUMPDEST PUSH1 0x20 DUP3 ADD SWAP1 POP SWAP2 SWAP1 POP JUMP JUMPDEST PUSH1 0x0 PUSH1 0x20 DUP3 ADD SWAP1 POP DUP2 DUP2 SUB PUSH1 0x0 DUP4 ADD MSTORE PUSH2 0x50BC DUP2 PUSH2 0x5080 JUMP JUMPDEST SWAP1 POP SWAP2 SWAP1 POP JUMP JUMPDEST PUSH32 0x4368616C6C656E6765206E6F7420737461727400000000000000000000000000 PUSH1 0x0 DUP3 ADD MSTORE POP JUMP JUMPDEST PUSH1 0x0 PUSH2 0x50F9 PUSH1 0x13 DUP4 PUSH2 0x472C JUMP JUMPDEST SWAP2 POP PUSH2 0x5104 DUP3 PUSH2 0x50C3 JUMP JUMPDEST PUSH1 0x20 DUP3 ADD SWAP1 POP SWAP2 SWAP1 POP JUMP JUMPDEST PUSH1 0x0 PUSH1 0x20 DUP3 ADD SWAP1 POP DUP2 DUP2 SUB PUSH1 0x0 DUP4 ADD MSTORE PUSH2 0x5128 DUP2 PUSH2 0x50EC JUMP JUMPDEST SWAP1 POP SWAP2 SWAP1 POP JUMP JUMPDEST PUSH32 0x4368616C6C656E676520697320656E6400000000000000000000000000000000 PUSH1 0x0 DUP3 ADD MSTORE POP JUMP JUMPDEST PUSH1 0x0 PUSH2 0x5165 PUSH1 0x10 DUP4 PUSH2 0x472C JUMP JUMPDEST SWAP2 POP PUSH2 0x5170 DUP3 PUSH2 0x512F JUMP JUMPDEST PUSH1 0x20 DUP3 ADD SWAP1 POP SWAP2 SWAP1 POP JUMP JUMPDEST PUSH1 0x0 PUSH1 0x20 DUP3 ADD SWAP1 POP DUP2 DUP2 SUB PUSH1 0x0 DUP4 ADD MSTORE PUSH2 0x5194 DUP2 PUSH2 0x5158 JUMP JUMPDEST SWAP1 POP SWAP2 SWAP1 POP JUMP JUMPDEST PUSH32 0x53746172742074696D65206D757374206C657373207468616E20656E64207469 PUSH1 0x0 DUP3 ADD MSTORE PUSH32 0x6D65000000000000000000000000000000000000000000000000000000000000 PUSH1 0x20 DUP3 ADD MSTORE POP JUMP JUMPDEST PUSH1 0x0 PUSH2 0x51F7 PUSH1 0x22 DUP4 PUSH2 0x472C JUMP JUMPDEST SWAP2 POP PUSH2 0x5202 DUP3 PUSH2 0x519B JUMP JUMPDEST PUSH1 0x40 DUP3 ADD SWAP1 POP SWAP2 SWAP1 POP JUMP JUMPDEST PUSH1 0x0 PUSH1 0x20 DUP3 ADD SWAP1 POP DUP2 DUP2 SUB PUSH1 0x0 DUP4 ADD MSTORE PUSH2 0x5226 DUP2 PUSH2 0x51EA JUMP JUMPDEST SWAP1 POP SWAP2 SWAP1 POP JUMP JUMPDEST PUSH32 0x546F6B656E206964206E6F7420696E206368616C6C656E676500000000000000 PUSH1 0x0 DUP3 ADD MSTORE POP JUMP JUMPDEST PUSH1 0x0 PUSH2 0x5263 PUSH1 0x19 DUP4 PUSH2 0x472C JUMP JUMPDEST SWAP2 POP PUSH2 0x526E DUP3 PUSH2 0x522D JUMP JUMPDEST PUSH1 0x20 DUP3 ADD SWAP1 POP SWAP2 SWAP1 POP JUMP JUMPDEST PUSH1 0x0 PUSH1 0x20 DUP3 ADD SWAP1 POP DUP2 DUP2 SUB PUSH1 0x0 DUP4 ADD MSTORE PUSH2 0x5292 DUP2 PUSH2 0x5256 JUMP JUMPDEST SWAP1 POP SWAP2 SWAP1 POP JUMP JUMPDEST PUSH32 0x546172676574206572726F720000000000000000000000000000000000000000 PUSH1 0x0 DUP3 ADD MSTORE POP JUMP JUMPDEST PUSH1 0x0 PUSH2 0x52CF PUSH1 0xC DUP4 PUSH2 0x472C JUMP JUMPDEST SWAP2 POP PUSH2 0x52DA DUP3 PUSH2 0x5299 JUMP JUMPDEST PUSH1 0x20 DUP3 ADD SWAP1 POP SWAP2 SWAP1 POP JUMP JUMPDEST PUSH1 0x0 PUSH1 0x20 DUP3 ADD SWAP1 POP DUP2 DUP2 SUB PUSH1 0x0 DUP4 ADD MSTORE PUSH2 0x52FE DUP2 PUSH2 0x52C2 JUMP JUMPDEST SWAP1 POP SWAP2 SWAP1 POP JUMP JUMPDEST PUSH32 0x746F6B656E496420616E6420746172676574206E6F74206D6174636800000000 PUSH1 0x0 DUP3 ADD MSTORE POP JUMP JUMPDEST PUSH1 0x0 PUSH2 0x533B PUSH1 0x1C DUP4 PUSH2 0x472C JUMP JUMPDEST SWAP2 POP PUSH2 0x5346 DUP3 PUSH2 0x5305 JUMP JUMPDEST PUSH1 0x20 DUP3 ADD SWAP1 POP SWAP2 SWAP1 POP JUMP JUMPDEST PUSH1 0x0 PUSH1 0x20 DUP3 ADD SWAP1 POP DUP2 DUP2 SUB PUSH1 0x0 DUP4 ADD MSTORE PUSH2 0x536A DUP2 PUSH2 0x532E JUMP JUMPDEST SWAP1 POP SWAP2 SWAP1 POP JUMP JUMPDEST PUSH32 0x546F6B656E206964206E6F74206D756368000000000000000000000000000000 PUSH1 0x0 DUP3 ADD MSTORE POP JUMP JUMPDEST PUSH1 0x0 PUSH2 0x53A7 PUSH1 0x11 DUP4 PUSH2 0x472C JUMP JUMPDEST SWAP2 POP PUSH2 0x53B2 DUP3 PUSH2 0x5371 JUMP JUMPDEST PUSH1 0x20 DUP3 ADD SWAP1 POP SWAP2 SWAP1 POP JUMP JUMPDEST PUSH1 0x0 PUSH1 0x20 DUP3 ADD SWAP1 POP DUP2 DUP2 SUB PUSH1 0x0 DUP4 ADD MSTORE PUSH2 0x53D6 DUP2 PUSH2 0x539A JUMP JUMPDEST SWAP1 POP SWAP2 SWAP1 POP JUMP JUMPDEST PUSH1 0x0 PUSH1 0x80 DUP3 ADD SWAP1 POP PUSH2 0x53F2 PUSH1 0x0 DUP4 ADD DUP8 PUSH2 0x4702 JUMP JUMPDEST PUSH2 0x53FF PUSH1 0x20 DUP4 ADD DUP7 PUSH2 0x4F1D JUMP JUMPDEST PUSH2 0x540C PUSH1 0x40 DUP4 ADD DUP6 PUSH2 0x3D82 JUMP JUMPDEST PUSH2 0x5419 PUSH1 0x60 DUP4 ADD DUP5 PUSH2 0x3D82 JUMP JUMPDEST SWAP6 SWAP5 POP POP POP POP POP JUMP JUMPDEST PUSH32 0x4F776E61626C653A206E6577206F776E657220697320746865207A65726F2061 PUSH1 0x0 DUP3 ADD MSTORE PUSH32 0x6464726573730000000000000000000000000000000000000000000000000000 PUSH1 0x20 DUP3 ADD MSTORE POP JUMP JUMPDEST PUSH1 0x0 PUSH2 0x547E PUSH1 0x26 DUP4 PUSH2 0x472C JUMP JUMPDEST SWAP2 POP PUSH2 0x5489 DUP3 PUSH2 0x5422 JUMP JUMPDEST PUSH1 0x40 DUP3 ADD SWAP1 POP SWAP2 SWAP1 POP JUMP JUMPDEST PUSH1 0x0 PUSH1 0x20 DUP3 ADD SWAP1 POP DUP2 DUP2 SUB PUSH1 0x0 DUP4 ADD MSTORE PUSH2 0x54AD DUP2 PUSH2 0x5471 JUMP JUMPDEST SWAP1 POP SWAP2 SWAP1 POP JUMP JUMPDEST PUSH32 0x4368616C6C656E6765206E6F7420666F756E6400000000000000000000000000 PUSH1 0x0 DUP3 ADD MSTORE POP JUMP JUMPDEST PUSH1 0x0 PUSH2 0x54EA PUSH1 0x13 DUP4 PUSH2 0x472C JUMP JUMPDEST SWAP2 POP PUSH2 0x54F5 DUP3 PUSH2 0x54B4 JUMP JUMPDEST PUSH1 0x20 DUP3 ADD SWAP1 POP SWAP2 SWAP1 POP JUMP JUMPDEST PUSH1 0x0 PUSH1 0x20 DUP3 ADD SWAP1 POP DUP2 DUP2 SUB PUSH1 0x0 DUP4 ADD MSTORE PUSH2 0x5519 DUP2 PUSH2 0x54DD JUMP JUMPDEST SWAP1 POP SWAP2 SWAP1 POP JUMP INVALID LOG2 PUSH5 0x6970667358 0x22 SLT KECCAK256 PUSH7 0xF5A03B81C1A95F DUP5 0xB3 MSIZE PUSH22 0x7DA443B4ADB9D702FAD0ACEBD55C6D9A7475549A6473 PUSH16 0x6C634300081100330000000000000000 "
		},
		"gasEstimates": {
			"creation": {
				"codeDepositCost": "4369200",
				"executionCost": "infinite",
				"totalCost": "infinite"
			},
			"external": {
				"addChallenge(uint8,uint16,uint16,uint256,uint256,uint256,uint256)": "infinite",
				"challengeIdInex()": "2631",
				"emergencyWithdrawToken(address,uint256)": "infinite",
				"enterChallenge(uint16,uint8,uint256,uint256)": "infinite",
				"getChallengeInfo(uint16)": "infinite",
				"getUserChallengeInfo(address,uint16)": "infinite",
				"getUserChallenges(address)": "infinite",
				"getUserRewards(address,uint16)": "infinite",
				"isAdmin(address)": "2995",
				"modificationAdmin(address,bool)": "infinite",
				"modifyChallenge(uint16,uint8,uint16,uint16,uint256,uint256,uint256,uint256)": "infinite",
				"nftCost()": "2474",
				"onERC1155BatchReceived(address,address,uint256[],uint256[],bytes)": "infinite",
				"onERC1155Received(address,address,uint256,uint256,bytes)": "infinite",
				"openChallenge(uint16,uint8,uint16,uint16,uint256)": "infinite",
				"owner()": "2590",
				"rate()": "2497",
				"renounceOwnership()": "30441",
				"rewardToken()": "2580",
				"setNftCost(uint256)": "24804",
				"setRate(uint256)": "24850",
				"setRewardToken(address)": "27008",
				"setTeamNft(address)": "27007",
				"supportsInterface(bytes4)": "774",
				"teamNft()": "2560",
				"transferOwnership(address)": "30809",
				"withdraw(address,uint256[],uint256[])": "infinite",
				"withdrawReward(uint16)": "infinite"
			}
		},
		"methodIdentifiers": {
			"addChallenge(uint8,uint16,uint16,uint256,uint256,uint256,uint256)": "20b45e1c",
			"challengeIdInex()": "ffa65732",
			"emergencyWithdrawToken(address,uint256)": "a4c3b091",
			"enterChallenge(uint16,uint8,uint256,uint256)": "d34259c1",
			"getChallengeInfo(uint16)": "891ee6d3",
			"getUserChallengeInfo(address,uint16)": "749f3429",
			"getUserChallenges(address)": "11da8e54",
			"getUserRewards(address,uint16)": "21569088",
			"isAdmin(address)": "24d7806c",
			"modificationAdmin(address,bool)": "18e20ecf",
			"modifyChallenge(uint16,uint8,uint16,uint16,uint256,uint256,uint256,uint256)": "fa5b6944",
			"nftCost()": "da80e59b",
			"onERC1155BatchReceived(address,address,uint256[],uint256[],bytes)": "bc197c81",
			"onERC1155Received(address,address,uint256,uint256,bytes)": "f23a6e61",
			"openChallenge(uint16,uint8,uint16,uint16,uint256)": "acca73e2",
			"owner()": "8da5cb5b",
			"rate()": "2c4e722e",
			"renounceOwnership()": "715018a6",
			"rewardToken()": "f7c618c1",
			"setNftCost(uint256)": "f606faea",
			"setRate(uint256)": "34fcf437",
			"setRewardToken(address)": "8aee8127",
			"setTeamNft(address)": "6cd262fb",
			"supportsInterface(bytes4)": "01ffc9a7",
			"teamNft()": "270e3994",
			"transferOwnership(address)": "f2fde38b",
			"withdraw(address,uint256[],uint256[])": "9339b0a0",
			"withdrawReward(uint16)": "082d0785"
		}
	},
	"abi": [
		{
			"anonymous": false,
			"inputs": [
				{
					"indexed": true,
					"internalType": "address",
					"name": "admin",
					"type": "address"
				},
				{
					"indexed": false,
					"internalType": "enum DreamChallenge.Ctype",
					"name": "ctype",
					"type": "uint8"
				},
				{
					"indexed": false,
					"internalType": "uint16",
					"name": "challengeId",
					"type": "uint16"
				},
				{
					"indexed": false,
					"internalType": "uint16",
					"name": "placeId",
					"type": "uint16"
				},
				{
					"indexed": false,
					"internalType": "uint16",
					"name": "matchId",
					"type": "uint16"
				},
				{
					"indexed": false,
					"internalType": "uint256",
					"name": "startAt",
					"type": "uint256"
				},
				{
					"indexed": false,
					"internalType": "uint256",
					"name": "endAt",
					"type": "uint256"
				},
				{
					"indexed": false,
					"internalType": "uint256",
					"name": "tokenIdLeft",
					"type": "uint256"
				},
				{
					"indexed": false,
					"internalType": "uint256",
					"name": "tokenIdRight",
					"type": "uint256"
				}
			],
			"name": "AddChallenge",
			"type": "event"
		},
		{
			"anonymous": false,
			"inputs": [
				{
					"indexed": true,
					"internalType": "address",
					"name": "user",
					"type": "address"
				},
				{
					"indexed": false,
					"internalType": "uint16",
					"name": "challengeId",
					"type": "uint16"
				},
				{
					"indexed": false,
					"internalType": "enum DreamChallenge.Target",
					"name": "target",
					"type": "uint8"
				},
				{
					"indexed": false,
					"internalType": "uint256",
					"name": "tokenid",
					"type": "uint256"
				},
				{
					"indexed": false,
					"internalType": "uint256",
					"name": "amount",
					"type": "uint256"
				}
			],
			"name": "EnterChallenge",
			"type": "event"
		},
		{
			"anonymous": false,
			"inputs": [
				{
					"indexed": true,
					"internalType": "address",
					"name": "admin",
					"type": "address"
				},
				{
					"indexed": false,
					"internalType": "bool",
					"name": "oldState",
					"type": "bool"
				},
				{
					"indexed": false,
					"internalType": "bool",
					"name": "newState",
					"type": "bool"
				}
			],
			"name": "ModificationAdmin",
			"type": "event"
		},
		{
			"anonymous": false,
			"inputs": [
				{
					"indexed": true,
					"internalType": "address",
					"name": "admin",
					"type": "address"
				},
				{
					"indexed": false,
					"internalType": "enum DreamChallenge.Ctype",
					"name": "ctype",
					"type": "uint8"
				},
				{
					"indexed": false,
					"internalType": "uint16",
					"name": "challengeId",
					"type": "uint16"
				},
				{
					"indexed": false,
					"internalType": "uint16",
					"name": "placeId",
					"type": "uint16"
				},
				{
					"indexed": false,
					"internalType": "uint16",
					"name": "matchId",
					"type": "uint16"
				},
				{
					"indexed": false,
					"internalType": "uint256",
					"name": "startAt",
					"type": "uint256"
				},
				{
					"indexed": false,
					"internalType": "uint256",
					"name": "endAt",
					"type": "uint256"
				},
				{
					"indexed": false,
					"internalType": "uint256",
					"name": "tokenIdLeft",
					"type": "uint256"
				},
				{
					"indexed": false,
					"internalType": "uint256",
					"name": "tokenIdRight",
					"type": "uint256"
				}
			],
			"name": "ModifyChallenge",
			"type": "event"
		},
		{
			"anonymous": false,
			"inputs": [
				{
					"indexed": true,
					"internalType": "address",
					"name": "admin",
					"type": "address"
				},
				{
					"indexed": false,
					"internalType": "uint16",
					"name": "challenageId",
					"type": "uint16"
				},
				{
					"indexed": false,
					"internalType": "uint16",
					"name": "leftScore",
					"type": "uint16"
				},
				{
					"indexed": false,
					"internalType": "uint16",
					"name": "rightScore",
					"type": "uint16"
				},
				{
					"indexed": false,
					"internalType": "enum DreamChallenge.Target",
					"name": "target",
					"type": "uint8"
				},
				{
					"indexed": false,
					"internalType": "uint256",
					"name": "openTime",
					"type": "uint256"
				}
			],
			"name": "OpenChallenge",
			"type": "event"
		},
		{
			"anonymous": false,
			"inputs": [
				{
					"indexed": true,
					"internalType": "address",
					"name": "previousOwner",
					"type": "address"
				},
				{
					"indexed": true,
					"internalType": "address",
					"name": "newOwner",
					"type": "address"
				}
			],
			"name": "OwnershipTransferred",
			"type": "event"
		},
		{
			"anonymous": false,
			"inputs": [
				{
					"indexed": true,
					"internalType": "address",
					"name": "user",
					"type": "address"
				},
				{
					"indexed": false,
					"internalType": "uint16",
					"name": "challageId",
					"type": "uint16"
				},
				{
					"indexed": false,
					"internalType": "uint256",
					"name": "amount",
					"type": "uint256"
				}
			],
			"name": "WithdrawReward",
			"type": "event"
		},
		{
			"inputs": [
				{
					"internalType": "enum DreamChallenge.Ctype",
					"name": "_ctype",
					"type": "uint8"
				},
				{
					"internalType": "uint16",
					"name": "_placeId",
					"type": "uint16"
				},
				{
					"internalType": "uint16",
					"name": "_matchId",
					"type": "uint16"
				},
				{
					"internalType": "uint256",
					"name": "_startAt",
					"type": "uint256"
				},
				{
					"internalType": "uint256",
					"name": "_endAt",
					"type": "uint256"
				},
				{
					"internalType": "uint256",
					"name": "_tokenIdLeft",
					"type": "uint256"
				},
				{
					"internalType": "uint256",
					"name": "_tokenIdRight",
					"type": "uint256"
				}
			],
			"name": "addChallenge",
			"outputs": [],
			"stateMutability": "nonpayable",
			"type": "function"
		},
		{
			"inputs": [],
			"name": "challengeIdInex",
			"outputs": [
				{
					"internalType": "uint16",
					"name": "",
					"type": "uint16"
				}
			],
			"stateMutability": "view",
			"type": "function"
		},
		{
			"inputs": [
				{
					"internalType": "address",
					"name": "token",
					"type": "address"
				},
				{
					"internalType": "uint256",
					"name": "amount",
					"type": "uint256"
				}
			],
			"name": "emergencyWithdrawToken",
			"outputs": [],
			"stateMutability": "nonpayable",
			"type": "function"
		},
		{
			"inputs": [
				{
					"internalType": "uint16",
					"name": "_id",
					"type": "uint16"
				},
				{
					"internalType": "enum DreamChallenge.Target",
					"name": "_target",
					"type": "uint8"
				},
				{
					"internalType": "uint256",
					"name": "_tokenid",
					"type": "uint256"
				},
				{
					"internalType": "uint256",
					"name": "_amount",
					"type": "uint256"
				}
			],
			"name": "enterChallenge",
			"outputs": [],
			"stateMutability": "nonpayable",
			"type": "function"
		},
		{
			"inputs": [
				{
					"internalType": "uint16",
					"name": "challengeId",
					"type": "uint16"
				}
			],
			"name": "getChallengeInfo",
			"outputs": [
				{
					"components": [
						{
							"internalType": "enum DreamChallenge.Ctype",
							"name": "ctype",
							"type": "uint8"
						},
						{
							"internalType": "enum DreamChallenge.Target",
							"name": "winnerTarget",
							"type": "uint8"
						},
						{
							"internalType": "uint16",
							"name": "id",
							"type": "uint16"
						},
						{
							"internalType": "uint16",
							"name": "placeId",
							"type": "uint16"
						},
						{
							"internalType": "uint16",
							"name": "matchId",
							"type": "uint16"
						},
						{
							"internalType": "uint16",
							"name": "leftScore",
							"type": "uint16"
						},
						{
							"internalType": "uint16",
							"name": "rightScore",
							"type": "uint16"
						},
						{
							"internalType": "uint256",
							"name": "startAt",
							"type": "uint256"
						},
						{
							"internalType": "uint256",
							"name": "endAt",
							"type": "uint256"
						},
						{
							"internalType": "uint256",
							"name": "openAt",
							"type": "uint256"
						},
						{
							"internalType": "uint256",
							"name": "tokenIdLeft",
							"type": "uint256"
						},
						{
							"internalType": "uint256",
							"name": "tokenIdRight",
							"type": "uint256"
						},
						{
							"internalType": "uint256",
							"name": "leftTotalAmount",
							"type": "uint256"
						},
						{
							"internalType": "uint256",
							"name": "rightTotalAmount",
							"type": "uint256"
						},
						{
							"internalType": "uint256",
							"name": "leftMiddleTotalAmount",
							"type": "uint256"
						},
						{
							"internalType": "uint256",
							"name": "rightMiddleTotalAmount",
							"type": "uint256"
						}
					],
					"internalType": "struct DreamChallenge.Challenge",
					"name": "",
					"type": "tuple"
				}
			],
			"stateMutability": "view",
			"type": "function"
		},
		{
			"inputs": [
				{
					"internalType": "address",
					"name": "account",
					"type": "address"
				},
				{
					"internalType": "uint16",
					"name": "challengeId",
					"type": "uint16"
				}
			],
			"name": "getUserChallengeInfo",
			"outputs": [
				{
					"components": [
						{
							"internalType": "uint16",
							"name": "challengeId",
							"type": "uint16"
						},
						{
							"internalType": "uint256",
							"name": "amountsLeft",
							"type": "uint256"
						},
						{
							"internalType": "uint256",
							"name": "amountsRight",
							"type": "uint256"
						},
						{
							"internalType": "uint256",
							"name": "amountMiddleL",
							"type": "uint256"
						},
						{
							"internalType": "uint256",
							"name": "amountMiddleR",
							"type": "uint256"
						},
						{
							"internalType": "bool",
							"name": "isTakeReward",
							"type": "bool"
						}
					],
					"internalType": "struct DreamChallenge.UserInfo",
					"name": "",
					"type": "tuple"
				}
			],
			"stateMutability": "view",
			"type": "function"
		},
		{
			"inputs": [
				{
					"internalType": "address",
					"name": "account",
					"type": "address"
				}
			],
			"name": "getUserChallenges",
			"outputs": [
				{
					"internalType": "uint256[]",
					"name": "",
					"type": "uint256[]"
				}
			],
			"stateMutability": "view",
			"type": "function"
		},
		{
			"inputs": [
				{
					"internalType": "address",
					"name": "account",
					"type": "address"
				},
				{
					"internalType": "uint16",
					"name": "challengeId",
					"type": "uint16"
				}
			],
			"name": "getUserRewards",
			"outputs": [
				{
					"internalType": "uint256",
					"name": "",
					"type": "uint256"
				}
			],
			"stateMutability": "view",
			"type": "function"
		},
		{
			"inputs": [
				{
					"internalType": "address",
					"name": "account",
					"type": "address"
				}
			],
			"name": "isAdmin",
			"outputs": [
				{
					"internalType": "bool",
					"name": "",
					"type": "bool"
				}
			],
			"stateMutability": "view",
			"type": "function"
		},
		{
			"inputs": [
				{
					"internalType": "address",
					"name": "admin",
					"type": "address"
				},
				{
					"internalType": "bool",
					"name": "state",
					"type": "bool"
				}
			],
			"name": "modificationAdmin",
			"outputs": [],
			"stateMutability": "nonpayable",
			"type": "function"
		},
		{
			"inputs": [
				{
					"internalType": "uint16",
					"name": "_cId",
					"type": "uint16"
				},
				{
					"internalType": "enum DreamChallenge.Ctype",
					"name": "_ctype",
					"type": "uint8"
				},
				{
					"internalType": "uint16",
					"name": "_placeId",
					"type": "uint16"
				},
				{
					"internalType": "uint16",
					"name": "_matchId",
					"type": "uint16"
				},
				{
					"internalType": "uint256",
					"name": "_startAt",
					"type": "uint256"
				},
				{
					"internalType": "uint256",
					"name": "_endAt",
					"type": "uint256"
				},
				{
					"internalType": "uint256",
					"name": "_tokenIdLeft",
					"type": "uint256"
				},
				{
					"internalType": "uint256",
					"name": "_tokenIdRight",
					"type": "uint256"
				}
			],
			"name": "modifyChallenge",
			"outputs": [],
			"stateMutability": "nonpayable",
			"type": "function"
		},
		{
			"inputs": [],
			"name": "nftCost",
			"outputs": [
				{
					"internalType": "uint256",
					"name": "",
					"type": "uint256"
				}
			],
			"stateMutability": "view",
			"type": "function"
		},
		{
			"inputs": [
				{
					"internalType": "address",
					"name": "",
					"type": "address"
				},
				{
					"internalType": "address",
					"name": "",
					"type": "address"
				},
				{
					"internalType": "uint256[]",
					"name": "",
					"type": "uint256[]"
				},
				{
					"internalType": "uint256[]",
					"name": "",
					"type": "uint256[]"
				},
				{
					"internalType": "bytes",
					"name": "",
					"type": "bytes"
				}
			],
			"name": "onERC1155BatchReceived",
			"outputs": [
				{
					"internalType": "bytes4",
					"name": "",
					"type": "bytes4"
				}
			],
			"stateMutability": "nonpayable",
			"type": "function"
		},
		{
			"inputs": [
				{
					"internalType": "address",
					"name": "",
					"type": "address"
				},
				{
					"internalType": "address",
					"name": "",
					"type": "address"
				},
				{
					"internalType": "uint256",
					"name": "",
					"type": "uint256"
				},
				{
					"internalType": "uint256",
					"name": "",
					"type": "uint256"
				},
				{
					"internalType": "bytes",
					"name": "",
					"type": "bytes"
				}
			],
			"name": "onERC1155Received",
			"outputs": [
				{
					"internalType": "bytes4",
					"name": "",
					"type": "bytes4"
				}
			],
			"stateMutability": "nonpayable",
			"type": "function"
		},
		{
			"inputs": [
				{
					"internalType": "uint16",
					"name": "challengeId",
					"type": "uint16"
				},
				{
					"internalType": "enum DreamChallenge.Target",
					"name": "winnerTarget",
					"type": "uint8"
				},
				{
					"internalType": "uint16",
					"name": "leftScore",
					"type": "uint16"
				},
				{
					"internalType": "uint16",
					"name": "rightScore",
					"type": "uint16"
				},
				{
					"internalType": "uint256",
					"name": "time",
					"type": "uint256"
				}
			],
			"name": "openChallenge",
			"outputs": [],
			"stateMutability": "nonpayable",
			"type": "function"
		},
		{
			"inputs": [],
			"name": "owner",
			"outputs": [
				{
					"internalType": "address",
					"name": "",
					"type": "address"
				}
			],
			"stateMutability": "view",
			"type": "function"
		},
		{
			"inputs": [],
			"name": "rate",
			"outputs": [
				{
					"internalType": "uint256",
					"name": "",
					"type": "uint256"
				}
			],
			"stateMutability": "view",
			"type": "function"
		},
		{
			"inputs": [],
			"name": "renounceOwnership",
			"outputs": [],
			"stateMutability": "nonpayable",
			"type": "function"
		},
		{
			"inputs": [],
			"name": "rewardToken",
			"outputs": [
				{
					"internalType": "address",
					"name": "",
					"type": "address"
				}
			],
			"stateMutability": "view",
			"type": "function"
		},
		{
			"inputs": [
				{
					"internalType": "uint256",
					"name": "_amount",
					"type": "uint256"
				}
			],
			"name": "setNftCost",
			"outputs": [],
			"stateMutability": "nonpayable",
			"type": "function"
		},
		{
			"inputs": [
				{
					"internalType": "uint256",
					"name": "_rate",
					"type": "uint256"
				}
			],
			"name": "setRate",
			"outputs": [],
			"stateMutability": "nonpayable",
			"type": "function"
		},
		{
			"inputs": [
				{
					"internalType": "address",
					"name": "_token",
					"type": "address"
				}
			],
			"name": "setRewardToken",
			"outputs": [],
			"stateMutability": "nonpayable",
			"type": "function"
		},
		{
			"inputs": [
				{
					"internalType": "address",
					"name": "_nft",
					"type": "address"
				}
			],
			"name": "setTeamNft",
			"outputs": [],
			"stateMutability": "nonpayable",
			"type": "function"
		},
		{
			"inputs": [
				{
					"internalType": "bytes4",
					"name": "interfaceId",
					"type": "bytes4"
				}
			],
			"name": "supportsInterface",
			"outputs": [
				{
					"internalType": "bool",
					"name": "",
					"type": "bool"
				}
			],
			"stateMutability": "view",
			"type": "function"
		},
		{
			"inputs": [],
			"name": "teamNft",
			"outputs": [
				{
					"internalType": "address",
					"name": "",
					"type": "address"
				}
			],
			"stateMutability": "view",
			"type": "function"
		},
		{
			"inputs": [
				{
					"internalType": "address",
					"name": "newOwner",
					"type": "address"
				}
			],
			"name": "transferOwnership",
			"outputs": [],
			"stateMutability": "nonpayable",
			"type": "function"
		},
		{
			"inputs": [
				{
					"internalType": "address",
					"name": "nftContractAddress",
					"type": "address"
				},
				{
					"internalType": "uint256[]",
					"name": "tokenids",
					"type": "uint256[]"
				},
				{
					"internalType": "uint256[]",
					"name": "amounts",
					"type": "uint256[]"
				}
			],
			"name": "withdraw",
			"outputs": [],
			"stateMutability": "nonpayable",
			"type": "function"
		},
		{
			"inputs": [
				{
					"internalType": "uint16",
					"name": "_challengeId",
					"type": "uint16"
				}
			],
			"name": "withdrawReward",
			"outputs": [],
			"stateMutability": "nonpayable",
			"type": "function"
		}
	]
}