{
	"data": {
		"bytecode": {
			"linkReferences": {},
			"object": "6080604052600280546001600160a01b0319908116739d8f7aea83cecf102ab65e9a5b82106b07a68b2817909155600380549091167358a944f9c44d08461a471a1f6c6d15de351d97b31790556050600455681043561a882930000060055534801561006a57600080fd5b5061007433610079565b6100cb565b600180546001600160a01b038381166001600160a01b0319831681179093556040519116919082907f8be0079c531659141344cd1fd0a4f28419497f9722a3daafe3b4186f6b6457e090600090a35050565b61324680620000db6000396000f3fe608060405234801561001057600080fd5b50600436106101c45760003560e01c80638aee8127116100f9578063da80e59b11610097578063f606faea11610071578063f606faea14610463578063f7c618c114610476578063fa5b694414610489578063ffa657321461049c57600080fd5b8063da80e59b14610428578063f23a6e6114610431578063f2fde38b1461045057600080fd5b8063a4c3b091116100d3578063a4c3b091146103b7578063acca73e2146103ca578063bc197c81146103dd578063d34259c11461041557600080fd5b80638aee8127146103805780638da5cb5b146103935780639339b0a0146103a457600080fd5b8063270e3994116101665780636cd262fb116101405780636cd262fb146102e0578063715018a6146102f3578063749f3429146102fb578063891ee6d31461036057600080fd5b8063270e3994146102995780632c4e722e146102c457806334fcf437146102cd57600080fd5b806318e20ecf116101a257806318e20ecf1461022657806320b45e1c14610239578063215690881461024c57806324d7806c1461026d57600080fd5b806301ffc9a7146101c9578063082d0785146101f157806311da8e5414610206575b600080fd5b6101dc6101d7366004612876565b6104c4565b60405190151581526020015b60405180910390f35b6102046101ff3660046128b7565b6104fb565b005b6102196102143660046128e9565b610b56565b6040516101e8919061293f565b610204610234366004612960565b610b7a565b6102046102473660046129a6565b610c2a565b61025f61025a366004612a0e565b610f7f565b6040519081526020016101e8565b6101dc61027b3660046128e9565b6001600160a01b031660009081526020819052604090205460ff1690565b6002546102ac906001600160a01b031681565b6040516001600160a01b0390911681526020016101e8565b61025f60045481565b6102046102db366004612a41565b61128c565b6102046102ee3660046128e9565b6112bb565b610204611307565b61030e610309366004612a0e565b61133d565b6040516101e89190600060c08201905061ffff83511682526020830151602083015260408301516040830152606083015160608301526080830151608083015260a0830151151560a083015292915050565b61037361036e3660046128b7565b6113f3565b6040516101e89190612a94565b61020461038e3660046128e9565b6115b9565b6001546001600160a01b03166102ac565b6102046103b2366004612c59565b611605565b6102046103c5366004612ccd565b611698565b6102046103d8366004612d06565b611738565b6103fc6103eb366004612dd2565b63bc197c8160e01b95945050505050565b6040516001600160e01b031990911681526020016101e8565b610204610423366004612e7c565b611b0d565b61025f60055481565b6103fc61043f366004612ebe565b63f23a6e6160e01b95945050505050565b61020461045e3660046128e9565b6122f1565b610204610471366004612a41565b61238c565b6003546102ac906001600160a01b031681565b610204610497366004612f23565b6123bb565b6003546104b190600160a01b900461ffff1681565b60405161ffff90911681526020016101e8565b60006001600160e01b03198216630271189760e51b14806104f557506301ffc9a760e01b6001600160e01b03198316145b92915050565b33600090815260076020908152604080832061ffff808616808652918452828520835160c0810185528154909216825260018082015483870152600282015483860152600382015460608401526004820154608084015260059091015460ff908116151560a0840152928652600690945282852083516102008101909452805491959490928492169081111561059357610593612a5a565b60018111156105a4576105a4612a5a565b81528154602090910190610100900460ff1660038111156105c7576105c7612a5a565b60038111156105d8576105d8612a5a565b8152815461ffff62010000820481166020840152600160201b82048116604080850191909152600160301b830482166060850152600160401b830482166080850152600160501b909204811660a0840152600184015460c0840152600284015460e08401526003840154610100840152600484015461012084015260058401546101408401526006840154610160840152600784015461018084015260088401546101a08401526009909301546101c090920191909152820151919250166106dc5760405162461bcd60e51b8152602060048201526012602482015271496e76616c6964206368616c6c656e61676560701b60448201526064015b60405180910390fd5b42816101200151106107285760405162461bcd60e51b815260206004820152601560248201527410da185b1b195b9859d9481b9bdd081bdc195b9959605a1b60448201526064016106d3565b60a08201511561076c5760405162461bcd60e51b815260206004820152600f60248201526e12185cc81d185ad9481c995dd85c99608a1b60448201526064016106d3565b600160a0830181905260009081908360200151600381111561079057610790612a5a565b036108165750506020820151610180820151600254610140840151604051637921219560e11b81529293926001600160a01b039092169163f242432a916107df91309133918790600401612f9b565b600060405180830381600087803b1580156107f957600080fd5b505af115801561080d573d6000803e3d6000fd5b505050506109a3565b60038360200151600381111561082e5761082e612a5a565b0361087c5750506040808301516101a08301516002546101608501519351637921219560e11b815291936001600160a01b039091169163f242432a916107df91309133918790600401612f9b565b836080015184606001516108909190612fe9565b9050826101e00151836101c001516108a89190612fe9565b606085015190925015610927576002546101408401516060860151604051637921219560e11b81526001600160a01b039093169263f242432a926108f492309233929190600401612f9b565b600060405180830381600087803b15801561090e57600080fd5b505af1158015610922573d6000803e3d6000fd5b505050505b6080840151156109a3576002546101608401516080860151604051637921219560e11b81526001600160a01b039093169263f242432a9261097092309233929190600401612f9b565b600060405180830381600087803b15801561098a57600080fd5b505af115801561099e573d6000803e3d6000fd5b505050505b60008285608001518660600151876040015188602001516109c49190612fe9565b6109ce9190612fe9565b6109d89190612fe9565b6109e29190612ffc565b9050600082846064600454600554866109fb919061300f565b610a05919061300f565b610a0f9190613026565b610a199190613026565b610a23919061300f565b90508015610aa25760035460405163a9059cbb60e01b8152336004820152602481018390526001600160a01b039091169063a9059cbb906044016020604051808303816000875af1158015610a7c573d6000803e3d6000fd5b505050506040513d601f19601f82011682018060405250810190610aa09190613048565b505b33600081815260076020908152604080832061ffff8c81168552908352928190208a51815461ffff19169085161781558a83015160018201558a820151600282015560608b0151600382015560808b0151600482015560a08b01516005909101805460ff1916911515919091179055888101518151931683529082018490527f37928b7e81bcb91f89ab0bc4eb993473de24975366bebf5b4e1e946f2c94880791015b60405180910390a250505050505050565b6001600160a01b03811660009081526008602052604090206060906104f590612759565b6001546001600160a01b03163314610ba45760405162461bcd60e51b81526004016106d390613065565b6001600160a01b0382166000818152602081815260409182902054825160ff90911615158152841515918101919091527f82f1fa40a3d82dea3e406073819290601f436580aa7c69f9feb61f885bdd8854910160405180910390a26001600160a01b03919091166000908152602081905260409020805460ff1916911515919091179055565b610c333361027b565b610c4f5760405162461bcd60e51b81526004016106d3906130a7565b428411610cad5760405162461bcd60e51b815260206004820152602660248201527f53746172742074696d65206d757374206d6f7265207468616e2070726573656e604482015265742074696d6560d01b60648201526084016106d3565b60208211158015610cbf575060208111155b610d0b5760405162461bcd60e51b815260206004820152601a60248201527f546f6b656e206964206d757374206c657373207468616e20333700000000000060448201526064016106d3565b60038054600160a01b900461ffff16906014610d26836130e9565b91906101000a81548161ffff021916908361ffff16021790555050604051806102000160405280886001811115610d5f57610d5f612a5a565b815260006020808301829052600354600160a01b900461ffff90811660408086018290528c83166060870152918b16608086015260a0850184905260c0850184905260e085018a9052610100850189905261012085018490526101408501889052610160850187905261018085018490526101a085018490526101c085018490526101e0909401839052928252600690522081518154829060ff191660018381811115610e0e57610e0e612a5a565b021790555060208201518154829061ff001916610100836003811115610e3657610e36612a5a565b021790555060408281015182546060850151608086015160a087015160c088015165ffffffff0000199094166201000061ffff9687160265ffff00000000191617600160201b938616939093029290921763ffffffff60301b1916600160301b9185169190910261ffff60401b191617600160401b918416919091021761ffff60501b1916600160501b9183169190910217835560e0840151600184015561010084015160028401556101208401516003808501919091556101408501516004850155610160850151600585015561018085015160068501556101a085015160078501556101c085015160088501556101e0909401516009909301929092559154915133927f09e386e351c3af738edeca6a05e587d1458cb5f3193abbbe09dccb7de296711d92610b45928c92600160a01b9004909116908b908b908b908b908b908b9061310a565b61ffff811660009081526006602052604080822081516102008101909252805483929190829060ff166001811115610fb957610fb9612a5a565b6001811115610fca57610fca612a5a565b81528154602090910190610100900460ff166003811115610fed57610fed612a5a565b6003811115610ffe57610ffe612a5a565b8152815461ffff62010000820481166020840152600160201b82048116604080850191909152600160301b830482166060850152600160401b830482166080850152600160501b909204811660a0840152600184015460c0840152600284015460e08401526003840154610100840152600484015461012084015260058401546101408401526006840154610160840152600784015461018084015260088401546101a08401526009909301546101c0909201919091528201519192501615806110cb5750610120810151155b156110da5760009150506104f5565b6001600160a01b038416600090815260076020908152604080832061ffff808816855290835292819020815160c081018352815490941680855260018201549385019390935260028101549184019190915260038101546060840152600481015460808401526005015460ff16151560a08301521580611160575060a081015115156001145b15611170576000925050506104f5565b60008060018460200151600381111561118b5761118b612a5a565b036111a3575050602081015161018083015190611202565b6003846020015160038111156111bb576111bb612a5a565b036111d357505060408101516101a083015190611202565b826080015183606001516111e79190612fe9565b9050836101e00151846101c001516111ff9190612fe9565b91505b60008284608001518560600151866040015187602001516112239190612fe9565b61122d9190612fe9565b6112379190612fe9565b6112419190612ffc565b90508183606460045460055485611258919061300f565b611262919061300f565b61126c9190613026565b6112769190613026565b611280919061300f565b98975050505050505050565b6001546001600160a01b031633146112b65760405162461bcd60e51b81526004016106d390613065565b600455565b6001546001600160a01b031633146112e55760405162461bcd60e51b81526004016106d390613065565b600280546001600160a01b0319166001600160a01b0392909216919091179055565b6001546001600160a01b031633146113315760405162461bcd60e51b81526004016106d390613065565b61133b600061276d565b565b61137c6040518060c00160405280600061ffff168152602001600081526020016000815260200160008152602001600081526020016000151581525090565b506001600160a01b038216600090815260076020908152604080832061ffff808616855290835292819020815160c0810183528154909416845260018101549284019290925260028201549083015260038101546060830152600481015460808301526005015460ff16151560a082015292915050565b611488604080516102008101909152806000815260200160008152602001600061ffff168152602001600061ffff168152602001600061ffff168152602001600061ffff168152602001600061ffff1681526020016000815260200160008152602001600081526020016000815260200160008152602001600081526020016000815260200160008152602001600081525090565b61ffff821660009081526006602052604090819020815161020081019092528054829060ff1660018111156114bf576114bf612a5a565b60018111156114d0576114d0612a5a565b81528154602090910190610100900460ff1660038111156114f3576114f3612a5a565b600381111561150457611504612a5a565b8152815461ffff62010000820481166020840152600160201b820481166040840152600160301b820481166060840152600160401b820481166080840152600160501b9091041660a0820152600182015460c0820152600282015460e08201526003820154610100820152600482015461012082015260058201546101408201526006820154610160820152600782015461018082015260088201546101a08201526009909101546101c09091015292915050565b6001546001600160a01b031633146115e35760405162461bcd60e51b81526004016106d390613065565b600380546001600160a01b0319166001600160a01b0392909216919091179055565b6001546001600160a01b0316331461162f5760405162461bcd60e51b81526004016106d390613065565b604051631759616b60e11b81526001600160a01b03841690632eb2c2d690611661903090339087908790600401613153565b600060405180830381600087803b15801561167b57600080fd5b505af115801561168f573d6000803e3d6000fd5b50505050505050565b6001546001600160a01b031633146116c25760405162461bcd60e51b81526004016106d390613065565b60405163a9059cbb60e01b8152336004820152602481018290526001600160a01b0383169063a9059cbb906044016020604051808303816000875af115801561170f573d6000803e3d6000fd5b505050506040513d601f19601f820116820180604052508101906117339190613048565b505050565b6117413361027b565b61175d5760405162461bcd60e51b81526004016106d3906130a7565b61ffff8516600090815260066020526040808220815161020081019092528054829060ff16600181111561179357611793612a5a565b60018111156117a4576117a4612a5a565b81528154602090910190610100900460ff1660038111156117c7576117c7612a5a565b60038111156117d8576117d8612a5a565b8152815461ffff62010000820481166020840152600160201b82048116604080850191909152600160301b830482166060850152600160401b830482166080850152600160501b909204811660a0840152600184015460c0840152600284015460e08401526003840154610100840152600484015461012084015260058401546101408401526006840154610160840152600784015461018084015260088401546101a08401526009909301546101c090920191909152820151919250166118d95760405162461bcd60e51b8152602060048201526014602482015273125b9d985b1a590818da185b1b195b99d9481a5960621b60448201526064016106d3565b42816101000151106119215760405162461bcd60e51b815260206004820152601160248201527010da185b1b195b99d9481b9bdd08195b99607a1b60448201526064016106d3565b81600081900361192e5750425b61012082018190526020820186600381111561194c5761194c612a5a565b9081600381111561195f5761195f612a5a565b90525061ffff871660009081526006602052604090208251815484929190829060ff19166001838181111561199657611996612a5a565b021790555060208201518154829061ff0019166101008360038111156119be576119be612a5a565b021790555060408281015182546060850151608086015160a08088015160c0808a015161ffff908116600160501b0261ffff60501b19938216600160401b0261ffff60401b19968316600160301b029690961663ffffffff60301b19978316600160201b0265ffff00000000199a841662010000029a909a1665ffffffff00001990991698909817989098179590951695909517929092179190911693909317855560e08601516001860155610100860151600286015561012086015160038601556101408601516004860155610160860151600586015561018086015160068601556101a086015160078601556101c086015160088601556101e09095015160099094019390935588841690860152918616908401525133907f1acb64d3ebb767d2765a1017de95477fdae850818341520212226d00f1cbb24a90610b45908a90899089908c9088906131ae565b60008111611b4e5760405162461bcd60e51b815260206004820152600e60248201526d416d6f756e74206973207a65726f60901b60448201526064016106d3565b6000836003811115611b6257611b62612a5a565b03611ba35760405162461bcd60e51b815260206004820152601160248201527015185c99d95d0818d85b9d081393d35053607a1b60448201526064016106d3565b61ffff8416600090815260066020526040808220815161020081019092528054829060ff166001811115611bd957611bd9612a5a565b6001811115611bea57611bea612a5a565b81528154602090910190610100900460ff166003811115611c0d57611c0d612a5a565b6003811115611c1e57611c1e612a5a565b8152815461ffff62010000820481166020840152600160201b82048116604080850191909152600160301b830482166060850152600160401b830482166080850152600160501b909204811660a0840152600184015460c0840152600284015460e08401526003840154610100840152600484015461012084015260058401546101408401526006840154610160840152600784015461018084015260088401546101a08401526009909301546101c09092019190915282015191925016600003611d165760405162461bcd60e51b815260206004820152600860248201526724b21032b93937b960c11b60448201526064016106d3565b428160e001511115611d605760405162461bcd60e51b815260206004820152601360248201527210da185b1b195b99d9481b9bdd081cdd185c9d606a1b60448201526064016106d3565b4281610100015111611da75760405162461bcd60e51b815260206004820152601060248201526f10da185b1b195b99d9481a5cc8195b9960821b60448201526064016106d3565b8061010001518160e0015110611e0a5760405162461bcd60e51b815260206004820152602260248201527f53746172742074696d65206d757374206c657373207468616e20656e642074696044820152616d6560f01b60648201526084016106d3565b828161014001511480611e21575082816101600151145b611e6d5760405162461bcd60e51b815260206004820152601960248201527f546f6b656e206964206e6f7420696e206368616c6c656e67650000000000000060448201526064016106d3565b600181516001811115611e8257611e82612a5a565b03611ef3576001846003811115611e9b57611e9b612a5a565b1480611eb857506003846003811115611eb657611eb6612a5a565b145b611ef35760405162461bcd60e51b815260206004820152600c60248201526b2a30b933b2ba1032b93937b960a11b60448201526064016106d3565b6001846003811115611f0757611f07612a5a565b03611f60578061014001518314611f605760405162461bcd60e51b815260206004820152601c60248201527f746f6b656e496420616e6420746172676574206e6f74206d617463680000000060448201526064016106d3565b6003846003811115611f7457611f74612a5a565b03611fcd578061016001518314611fcd5760405162461bcd60e51b815260206004820152601c60248201527f746f6b656e496420616e6420746172676574206e6f74206d617463680000000060448201526064016106d3565b600254604051637921219560e11b81526001600160a01b039091169063f242432a90612003903390309088908890600401612f9b565b600060405180830381600087803b15801561201d57600080fd5b505af1158015612031573d6000803e3d6000fd5b505033600081815260076020908152604080832061ffff8c16808552908352818420825160c081018452600182015481860152600282015481850152600382015460608201526004820154608082015260059091015460ff16151560a082015281815294845260089092529091209193506120ac92506127bf565b5060018560038111156120c1576120c1612a5a565b0361215557816101400151841461210e5760405162461bcd60e51b81526020600482015260116024820152700a8ded6cadc40d2c840dcdee840daeac6d607b1b60448201526064016106d3565b61ffff861660009081526006602081905260408220018054859290612134908490612fe9565b92505081905550828160200181815161214d9190612fe9565b90525061223b565b600385600381111561216957612169612a5a565b036121ad5761ffff861660009081526006602052604081206007018054859290612194908490612fe9565b92505081905550828160400181815161214d9190612fe9565b81610140015184036121f85761ffff8616600090815260066020526040812060080180548592906121df908490612fe9565b92505081905550828160600181815161214d9190612fe9565b61ffff86166000908152600660205260408120600901805485929061221e908490612fe9565b9250508190555082816080018181516122379190612fe9565b9052505b33600081815260076020908152604080832061ffff8b81168552908352928190208551815461ffff19169416939093178355908401516001830155838101516002830155606084015160038301556080840151600483015560a08401516005909201805460ff191692151592909217909155517f90267ca1af3949590cae48e112b0c82d8e0cd1c0b254faaf8f35228bc2f3dae5906122e19089908990899089906131e6565b60405180910390a2505050505050565b6001546001600160a01b0316331461231b5760405162461bcd60e51b81526004016106d390613065565b6001600160a01b0381166123805760405162461bcd60e51b815260206004820152602660248201527f4f776e61626c653a206e6577206f776e657220697320746865207a65726f206160448201526564647265737360d01b60648201526084016106d3565b6123898161276d565b50565b6001546001600160a01b031633146123b65760405162461bcd60e51b81526004016106d390613065565b600555565b6123c43361027b565b6123e05760405162461bcd60e51b81526004016106d3906130a7565b61ffff8816600090815260066020526040808220815161020081019092528054829060ff16600181111561241657612416612a5a565b600181111561242757612427612a5a565b81528154602090910190610100900460ff16600381111561244a5761244a612a5a565b600381111561245b5761245b612a5a565b8152815461ffff62010000820481166020840152600160201b82048116604080850191909152600160301b830482166060850152600160401b830482166080850152600160501b909204811660a0840152600184015460c0840152600284015460e08401526003840154610100840152600484015461012084015260058401546101408401526006840154610160840152600784015461018084015260088401546101a08401526009909301546101c0909201919091528201519192501661255b5760405162461bcd60e51b815260206004820152601360248201527210da185b1b195b99d9481b9bdd08199bdd5b99606a1b60448201526064016106d3565b8088600181111561256e5761256e612a5a565b9081600181111561258157612581612a5a565b90525061ffff8088166060830152868116608083015260e08201869052610100820185905261014082018490526101608201839052891660009081526006602052604090208151815483929190829060ff1916600183818111156125e7576125e7612a5a565b021790555060208201518154829061ff00191661010083600381111561260f5761260f612a5a565b021790555060408281015182546060850151608086015160a087015160c088015165ffffffff0000199094166201000061ffff9687160265ffff00000000191617600160201b938616939093029290921763ffffffff60301b1916600160301b9185169190910261ffff60401b191617600160401b918416919091021761ffff60501b1916600160501b929091169190910217825560e08301516001830155610100830151600283015561012083015160038301556101408301516004830155610160830151600583015561018083015160068301556101a083015160078301556101c083015160088301556101e0909201516009909101555133907fd083e2ef62102a69352d39b2a9a28acc07b62713713b386c605c70b4a1c8363390612746908b908d908c908c908c908c908c908c9061310a565b60405180910390a2505050505050505050565b60606000612766836127cb565b9392505050565b600180546001600160a01b038381166001600160a01b0319831681179093556040519116919082907f8be0079c531659141344cd1fd0a4f28419497f9722a3daafe3b4186f6b6457e090600090a35050565b60006127668383612827565b60608160000180548060200260200160405190810160405280929190818152602001828054801561281b57602002820191906000526020600020905b815481526020019060010190808311612807575b50505050509050919050565b600081815260018301602052604081205461286e575081546001818101845560008481526020808220909301849055845484825282860190935260409020919091556104f5565b5060006104f5565b60006020828403121561288857600080fd5b81356001600160e01b03198116811461276657600080fd5b803561ffff811681146128b257600080fd5b919050565b6000602082840312156128c957600080fd5b612766826128a0565b80356001600160a01b03811681146128b257600080fd5b6000602082840312156128fb57600080fd5b612766826128d2565b600081518084526020808501945080840160005b8381101561293457815187529582019590820190600101612918565b509495945050505050565b6020815260006127666020830184612904565b801515811461238957600080fd5b6000806040838503121561297357600080fd5b61297c836128d2565b9150602083013561298c81612952565b809150509250929050565b8035600281106128b257600080fd5b600080600080600080600060e0888a0312156129c157600080fd5b6129ca88612997565b96506129d8602089016128a0565b95506129e6604089016128a0565b969995985095966060810135965060808101359560a0820135955060c0909101359350915050565b60008060408385031215612a2157600080fd5b612a2a836128d2565b9150612a38602084016128a0565b90509250929050565b600060208284031215612a5357600080fd5b5035919050565b634e487b7160e01b600052602160045260246000fd5b60028110612a8057612a80612a5a565b9052565b60048110612a8057612a80612a5a565b600061020082019050612aa8828451612a70565b6020830151612aba6020840182612a84565b506040830151612ad0604084018261ffff169052565b506060830151612ae6606084018261ffff169052565b506080830151612afc608084018261ffff169052565b5060a0830151612b1260a084018261ffff169052565b5060c0830151612b2860c084018261ffff169052565b5060e08381015190830152610100808401519083015261012080840151908301526101408084015190830152610160808401519083015261018080840151908301526101a080840151908301526101c080840151908301526101e092830151929091019190915290565b634e487b7160e01b600052604160045260246000fd5b604051601f8201601f1916810167ffffffffffffffff81118282101715612bd157612bd1612b92565b604052919050565b600082601f830112612bea57600080fd5b8135602067ffffffffffffffff821115612c0657612c06612b92565b8160051b612c15828201612ba8565b9283528481018201928281019087851115612c2f57600080fd5b83870192505b84831015612c4e57823582529183019190830190612c35565b979650505050505050565b600080600060608486031215612c6e57600080fd5b612c77846128d2565b9250602084013567ffffffffffffffff80821115612c9457600080fd5b612ca087838801612bd9565b93506040860135915080821115612cb657600080fd5b50612cc386828701612bd9565b9150509250925092565b60008060408385031215612ce057600080fd5b612ce9836128d2565b946020939093013593505050565b8035600481106128b257600080fd5b600080600080600060a08688031215612d1e57600080fd5b612d27866128a0565b9450612d3560208701612cf7565b9350612d43604087016128a0565b9250612d51606087016128a0565b949793965091946080013592915050565b600082601f830112612d7357600080fd5b813567ffffffffffffffff811115612d8d57612d8d612b92565b612da0601f8201601f1916602001612ba8565b818152846020838601011115612db557600080fd5b816020850160208301376000918101602001919091529392505050565b600080600080600060a08688031215612dea57600080fd5b612df3866128d2565b9450612e01602087016128d2565b9350604086013567ffffffffffffffff80821115612e1e57600080fd5b612e2a89838a01612bd9565b94506060880135915080821115612e4057600080fd5b612e4c89838a01612bd9565b93506080880135915080821115612e6257600080fd5b50612e6f88828901612d62565b9150509295509295909350565b60008060008060808587031215612e9257600080fd5b612e9b856128a0565b9350612ea960208601612cf7565b93969395505050506040820135916060013590565b600080600080600060a08688031215612ed657600080fd5b612edf866128d2565b9450612eed602087016128d2565b93506040860135925060608601359150608086013567ffffffffffffffff811115612f1757600080fd5b612e6f88828901612d62565b600080600080600080600080610100898b031215612f4057600080fd5b612f49896128a0565b9750612f5760208a01612997565b9650612f6560408a016128a0565b9550612f7360608a016128a0565b979a969950949760808101359660a0820135965060c0820135955060e0909101359350915050565b6001600160a01b0394851681529290931660208301526040820152606081019190915260a06080820181905260009082015260c00190565b634e487b7160e01b600052601160045260246000fd5b808201808211156104f5576104f5612fd3565b818103818111156104f5576104f5612fd3565b80820281158282048414176104f5576104f5612fd3565b60008261304357634e487b7160e01b600052601260045260246000fd5b500490565b60006020828403121561305a57600080fd5b815161276681612952565b60208082526022908201527f41646d696e61626c653a2063616c6c6572206973206e6f7420746865206f776e60408201526132b960f11b606082015260800190565b60208082526022908201527f41646d696e61626c653a2063616c6c6572206973206e6f74207468652061646d60408201526134b760f11b606082015260800190565b600061ffff80831681810361310057613100612fd3565b6001019392505050565b6101008101613119828b612a70565b61ffff98891660208301529688166040820152949096166060850152608084019290925260a083015260c082015260e00191909152919050565b6001600160a01b0385811682528416602082015260a06040820181905260009061317f90830185612904565b82810360608401526131918185612904565b838103608090940193909352505060008152602001949350505050565b61ffff868116825285811660208301528416604082015260a081016131d66060830185612a84565b8260808301529695505050505050565b61ffff85168152608081016131fe6020830186612a84565b6040820193909352606001529291505056fea2646970667358221220f20e7b731105ccce269950fdc9434c25f80ded2de010f6958c993e30642c311d64736f6c63430008110033",
			"opcodes": "PUSH1 0x80 PUSH1 0x40 MSTORE PUSH1 0x2 DUP1 SLOAD PUSH1 0x1 PUSH1 0x1 PUSH1 0xA0 SHL SUB NOT SWAP1 DUP2 AND PUSH20 0x9D8F7AEA83CECF102AB65E9A5B82106B07A68B28 OR SWAP1 SWAP2 SSTORE PUSH1 0x3 DUP1 SLOAD SWAP1 SWAP2 AND PUSH20 0x58A944F9C44D08461A471A1F6C6D15DE351D97B3 OR SWAP1 SSTORE PUSH1 0x50 PUSH1 0x4 SSTORE PUSH9 0x1043561A8829300000 PUSH1 0x5 SSTORE CALLVALUE DUP1 ISZERO PUSH2 0x6A JUMPI PUSH1 0x0 DUP1 REVERT JUMPDEST POP PUSH2 0x74 CALLER PUSH2 0x79 JUMP JUMPDEST PUSH2 0xCB JUMP JUMPDEST PUSH1 0x1 DUP1 SLOAD PUSH1 0x1 PUSH1 0x1 PUSH1 0xA0 SHL SUB DUP4 DUP2 AND PUSH1 0x1 PUSH1 0x1 PUSH1 0xA0 SHL SUB NOT DUP4 AND DUP2 OR SWAP1 SWAP4 SSTORE PUSH1 0x40 MLOAD SWAP2 AND SWAP2 SWAP1 DUP3 SWAP1 PUSH32 0x8BE0079C531659141344CD1FD0A4F28419497F9722A3DAAFE3B4186F6B6457E0 SWAP1 PUSH1 0x0 SWAP1 LOG3 POP POP JUMP JUMPDEST PUSH2 0x3246 DUP1 PUSH3 0xDB PUSH1 0x0 CODECOPY PUSH1 0x0 RETURN INVALID PUSH1 0x80 PUSH1 0x40 MSTORE CALLVALUE DUP1 ISZERO PUSH2 0x10 JUMPI PUSH1 0x0 DUP1 REVERT JUMPDEST POP PUSH1 0x4 CALLDATASIZE LT PUSH2 0x1C4 JUMPI PUSH1 0x0 CALLDATALOAD PUSH1 0xE0 SHR DUP1 PUSH4 0x8AEE8127 GT PUSH2 0xF9 JUMPI DUP1 PUSH4 0xDA80E59B GT PUSH2 0x97 JUMPI DUP1 PUSH4 0xF606FAEA GT PUSH2 0x71 JUMPI DUP1 PUSH4 0xF606FAEA EQ PUSH2 0x463 JUMPI DUP1 PUSH4 0xF7C618C1 EQ PUSH2 0x476 JUMPI DUP1 PUSH4 0xFA5B6944 EQ PUSH2 0x489 JUMPI DUP1 PUSH4 0xFFA65732 EQ PUSH2 0x49C JUMPI PUSH1 0x0 DUP1 REVERT JUMPDEST DUP1 PUSH4 0xDA80E59B EQ PUSH2 0x428 JUMPI DUP1 PUSH4 0xF23A6E61 EQ PUSH2 0x431 JUMPI DUP1 PUSH4 0xF2FDE38B EQ PUSH2 0x450 JUMPI PUSH1 0x0 DUP1 REVERT JUMPDEST DUP1 PUSH4 0xA4C3B091 GT PUSH2 0xD3 JUMPI DUP1 PUSH4 0xA4C3B091 EQ PUSH2 0x3B7 JUMPI DUP1 PUSH4 0xACCA73E2 EQ PUSH2 0x3CA JUMPI DUP1 PUSH4 0xBC197C81 EQ PUSH2 0x3DD JUMPI DUP1 PUSH4 0xD34259C1 EQ PUSH2 0x415 JUMPI PUSH1 0x0 DUP1 REVERT JUMPDEST DUP1 PUSH4 0x8AEE8127 EQ PUSH2 0x380 JUMPI DUP1 PUSH4 0x8DA5CB5B EQ PUSH2 0x393 JUMPI DUP1 PUSH4 0x9339B0A0 EQ PUSH2 0x3A4 JUMPI PUSH1 0x0 DUP1 REVERT JUMPDEST DUP1 PUSH4 0x270E3994 GT PUSH2 0x166 JUMPI DUP1 PUSH4 0x6CD262FB GT PUSH2 0x140 JUMPI DUP1 PUSH4 0x6CD262FB EQ PUSH2 0x2E0 JUMPI DUP1 PUSH4 0x715018A6 EQ PUSH2 0x2F3 JUMPI DUP1 PUSH4 0x749F3429 EQ PUSH2 0x2FB JUMPI DUP1 PUSH4 0x891EE6D3 EQ PUSH2 0x360 JUMPI PUSH1 0x0 DUP1 REVERT JUMPDEST DUP1 PUSH4 0x270E3994 EQ PUSH2 0x299 JUMPI DUP1 PUSH4 0x2C4E722E EQ PUSH2 0x2C4 JUMPI DUP1 PUSH4 0x34FCF437 EQ PUSH2 0x2CD JUMPI PUSH1 0x0 DUP1 REVERT JUMPDEST DUP1 PUSH4 0x18E20ECF GT PUSH2 0x1A2 JUMPI DUP1 PUSH4 0x18E20ECF EQ PUSH2 0x226 JUMPI DUP1 PUSH4 0x20B45E1C EQ PUSH2 0x239 JUMPI DUP1 PUSH4 0x21569088 EQ PUSH2 0x24C JUMPI DUP1 PUSH4 0x24D7806C EQ PUSH2 0x26D JUMPI PUSH1 0x0 DUP1 REVERT JUMPDEST DUP1 PUSH4 0x1FFC9A7 EQ PUSH2 0x1C9 JUMPI DUP1 PUSH4 0x82D0785 EQ PUSH2 0x1F1 JUMPI DUP1 PUSH4 0x11DA8E54 EQ PUSH2 0x206 JUMPI JUMPDEST PUSH1 0x0 DUP1 REVERT JUMPDEST PUSH2 0x1DC PUSH2 0x1D7 CALLDATASIZE PUSH1 0x4 PUSH2 0x2876 JUMP JUMPDEST PUSH2 0x4C4 JUMP JUMPDEST PUSH1 0x40 MLOAD SWAP1 ISZERO ISZERO DUP2 MSTORE PUSH1 0x20 ADD JUMPDEST PUSH1 0x40 MLOAD DUP1 SWAP2 SUB SWAP1 RETURN JUMPDEST PUSH2 0x204 PUSH2 0x1FF CALLDATASIZE PUSH1 0x4 PUSH2 0x28B7 JUMP JUMPDEST PUSH2 0x4FB JUMP JUMPDEST STOP JUMPDEST PUSH2 0x219 PUSH2 0x214 CALLDATASIZE PUSH1 0x4 PUSH2 0x28E9 JUMP JUMPDEST PUSH2 0xB56 JUMP JUMPDEST PUSH1 0x40 MLOAD PUSH2 0x1E8 SWAP2 SWAP1 PUSH2 0x293F JUMP JUMPDEST PUSH2 0x204 PUSH2 0x234 CALLDATASIZE PUSH1 0x4 PUSH2 0x2960 JUMP JUMPDEST PUSH2 0xB7A JUMP JUMPDEST PUSH2 0x204 PUSH2 0x247 CALLDATASIZE PUSH1 0x4 PUSH2 0x29A6 JUMP JUMPDEST PUSH2 0xC2A JUMP JUMPDEST PUSH2 0x25F PUSH2 0x25A CALLDATASIZE PUSH1 0x4 PUSH2 0x2A0E JUMP JUMPDEST PUSH2 0xF7F JUMP JUMPDEST PUSH1 0x40 MLOAD SWAP1 DUP2 MSTORE PUSH1 0x20 ADD PUSH2 0x1E8 JUMP JUMPDEST PUSH2 0x1DC PUSH2 0x27B CALLDATASIZE PUSH1 0x4 PUSH2 0x28E9 JUMP JUMPDEST PUSH1 0x1 PUSH1 0x1 PUSH1 0xA0 SHL SUB AND PUSH1 0x0 SWAP1 DUP2 MSTORE PUSH1 0x20 DUP2 SWAP1 MSTORE PUSH1 0x40 SWAP1 KECCAK256 SLOAD PUSH1 0xFF AND SWAP1 JUMP JUMPDEST PUSH1 0x2 SLOAD PUSH2 0x2AC SWAP1 PUSH1 0x1 PUSH1 0x1 PUSH1 0xA0 SHL SUB AND DUP2 JUMP JUMPDEST PUSH1 0x40 MLOAD PUSH1 0x1 PUSH1 0x1 PUSH1 0xA0 SHL SUB SWAP1 SWAP2 AND DUP2 MSTORE PUSH1 0x20 ADD PUSH2 0x1E8 JUMP JUMPDEST PUSH2 0x25F PUSH1 0x4 SLOAD DUP2 JUMP JUMPDEST PUSH2 0x204 PUSH2 0x2DB CALLDATASIZE PUSH1 0x4 PUSH2 0x2A41 JUMP JUMPDEST PUSH2 0x128C JUMP JUMPDEST PUSH2 0x204 PUSH2 0x2EE CALLDATASIZE PUSH1 0x4 PUSH2 0x28E9 JUMP JUMPDEST PUSH2 0x12BB JUMP JUMPDEST PUSH2 0x204 PUSH2 0x1307 JUMP JUMPDEST PUSH2 0x30E PUSH2 0x309 CALLDATASIZE PUSH1 0x4 PUSH2 0x2A0E JUMP JUMPDEST PUSH2 0x133D JUMP JUMPDEST PUSH1 0x40 MLOAD PUSH2 0x1E8 SWAP2 SWAP1 PUSH1 0x0 PUSH1 0xC0 DUP3 ADD SWAP1 POP PUSH2 0xFFFF DUP4 MLOAD AND DUP3 MSTORE PUSH1 0x20 DUP4 ADD MLOAD PUSH1 0x20 DUP4 ADD MSTORE PUSH1 0x40 DUP4 ADD MLOAD PUSH1 0x40 DUP4 ADD MSTORE PUSH1 0x60 DUP4 ADD MLOAD PUSH1 0x60 DUP4 ADD MSTORE PUSH1 0x80 DUP4 ADD MLOAD PUSH1 0x80 DUP4 ADD MSTORE PUSH1 0xA0 DUP4 ADD MLOAD ISZERO ISZERO PUSH1 0xA0 DUP4 ADD MSTORE SWAP3 SWAP2 POP POP JUMP JUMPDEST PUSH2 0x373 PUSH2 0x36E CALLDATASIZE PUSH1 0x4 PUSH2 0x28B7 JUMP JUMPDEST PUSH2 0x13F3 JUMP JUMPDEST PUSH1 0x40 MLOAD PUSH2 0x1E8 SWAP2 SWAP1 PUSH2 0x2A94 JUMP JUMPDEST PUSH2 0x204 PUSH2 0x38E CALLDATASIZE PUSH1 0x4 PUSH2 0x28E9 JUMP JUMPDEST PUSH2 0x15B9 JUMP JUMPDEST PUSH1 0x1 SLOAD PUSH1 0x1 PUSH1 0x1 PUSH1 0xA0 SHL SUB AND PUSH2 0x2AC JUMP JUMPDEST PUSH2 0x204 PUSH2 0x3B2 CALLDATASIZE PUSH1 0x4 PUSH2 0x2C59 JUMP JUMPDEST PUSH2 0x1605 JUMP JUMPDEST PUSH2 0x204 PUSH2 0x3C5 CALLDATASIZE PUSH1 0x4 PUSH2 0x2CCD JUMP JUMPDEST PUSH2 0x1698 JUMP JUMPDEST PUSH2 0x204 PUSH2 0x3D8 CALLDATASIZE PUSH1 0x4 PUSH2 0x2D06 JUMP JUMPDEST PUSH2 0x1738 JUMP JUMPDEST PUSH2 0x3FC PUSH2 0x3EB CALLDATASIZE PUSH1 0x4 PUSH2 0x2DD2 JUMP JUMPDEST PUSH4 0xBC197C81 PUSH1 0xE0 SHL SWAP6 SWAP5 POP POP POP POP POP JUMP JUMPDEST PUSH1 0x40 MLOAD PUSH1 0x1 PUSH1 0x1 PUSH1 0xE0 SHL SUB NOT SWAP1 SWAP2 AND DUP2 MSTORE PUSH1 0x20 ADD PUSH2 0x1E8 JUMP JUMPDEST PUSH2 0x204 PUSH2 0x423 CALLDATASIZE PUSH1 0x4 PUSH2 0x2E7C JUMP JUMPDEST PUSH2 0x1B0D JUMP JUMPDEST PUSH2 0x25F PUSH1 0x5 SLOAD DUP2 JUMP JUMPDEST PUSH2 0x3FC PUSH2 0x43F CALLDATASIZE PUSH1 0x4 PUSH2 0x2EBE JUMP JUMPDEST PUSH4 0xF23A6E61 PUSH1 0xE0 SHL SWAP6 SWAP5 POP POP POP POP POP JUMP JUMPDEST PUSH2 0x204 PUSH2 0x45E CALLDATASIZE PUSH1 0x4 PUSH2 0x28E9 JUMP JUMPDEST PUSH2 0x22F1 JUMP JUMPDEST PUSH2 0x204 PUSH2 0x471 CALLDATASIZE PUSH1 0x4 PUSH2 0x2A41 JUMP JUMPDEST PUSH2 0x238C JUMP JUMPDEST PUSH1 0x3 SLOAD PUSH2 0x2AC SWAP1 PUSH1 0x1 PUSH1 0x1 PUSH1 0xA0 SHL SUB AND DUP2 JUMP JUMPDEST PUSH2 0x204 PUSH2 0x497 CALLDATASIZE PUSH1 0x4 PUSH2 0x2F23 JUMP JUMPDEST PUSH2 0x23BB JUMP JUMPDEST PUSH1 0x3 SLOAD PUSH2 0x4B1 SWAP1 PUSH1 0x1 PUSH1 0xA0 SHL SWAP1 DIV PUSH2 0xFFFF AND DUP2 JUMP JUMPDEST PUSH1 0x40 MLOAD PUSH2 0xFFFF SWAP1 SWAP2 AND DUP2 MSTORE PUSH1 0x20 ADD PUSH2 0x1E8 JUMP JUMPDEST PUSH1 0x0 PUSH1 0x1 PUSH1 0x1 PUSH1 0xE0 SHL SUB NOT DUP3 AND PUSH4 0x2711897 PUSH1 0xE5 SHL EQ DUP1 PUSH2 0x4F5 JUMPI POP PUSH4 0x1FFC9A7 PUSH1 0xE0 SHL PUSH1 0x1 PUSH1 0x1 PUSH1 0xE0 SHL SUB NOT DUP4 AND EQ JUMPDEST SWAP3 SWAP2 POP POP JUMP JUMPDEST CALLER PUSH1 0x0 SWAP1 DUP2 MSTORE PUSH1 0x7 PUSH1 0x20 SWAP1 DUP2 MSTORE PUSH1 0x40 DUP1 DUP4 KECCAK256 PUSH2 0xFFFF DUP1 DUP7 AND DUP1 DUP7 MSTORE SWAP2 DUP5 MSTORE DUP3 DUP6 KECCAK256 DUP4 MLOAD PUSH1 0xC0 DUP2 ADD DUP6 MSTORE DUP2 SLOAD SWAP1 SWAP3 AND DUP3 MSTORE PUSH1 0x1 DUP1 DUP3 ADD SLOAD DUP4 DUP8 ADD MSTORE PUSH1 0x2 DUP3 ADD SLOAD DUP4 DUP7 ADD MSTORE PUSH1 0x3 DUP3 ADD SLOAD PUSH1 0x60 DUP5 ADD MSTORE PUSH1 0x4 DUP3 ADD SLOAD PUSH1 0x80 DUP5 ADD MSTORE PUSH1 0x5 SWAP1 SWAP2 ADD SLOAD PUSH1 0xFF SWAP1 DUP2 AND ISZERO ISZERO PUSH1 0xA0 DUP5 ADD MSTORE SWAP3 DUP7 MSTORE PUSH1 0x6 SWAP1 SWAP5 MSTORE DUP3 DUP6 KECCAK256 DUP4 MLOAD PUSH2 0x200 DUP2 ADD SWAP1 SWAP5 MSTORE DUP1 SLOAD SWAP2 SWAP6 SWAP5 SWAP1 SWAP3 DUP5 SWAP3 AND SWAP1 DUP2 GT ISZERO PUSH2 0x593 JUMPI PUSH2 0x593 PUSH2 0x2A5A JUMP JUMPDEST PUSH1 0x1 DUP2 GT ISZERO PUSH2 0x5A4 JUMPI PUSH2 0x5A4 PUSH2 0x2A5A JUMP JUMPDEST DUP2 MSTORE DUP2 SLOAD PUSH1 0x20 SWAP1 SWAP2 ADD SWAP1 PUSH2 0x100 SWAP1 DIV PUSH1 0xFF AND PUSH1 0x3 DUP2 GT ISZERO PUSH2 0x5C7 JUMPI PUSH2 0x5C7 PUSH2 0x2A5A JUMP JUMPDEST PUSH1 0x3 DUP2 GT ISZERO PUSH2 0x5D8 JUMPI PUSH2 0x5D8 PUSH2 0x2A5A JUMP JUMPDEST DUP2 MSTORE DUP2 SLOAD PUSH2 0xFFFF PUSH3 0x10000 DUP3 DIV DUP2 AND PUSH1 0x20 DUP5 ADD MSTORE PUSH1 0x1 PUSH1 0x20 SHL DUP3 DIV DUP2 AND PUSH1 0x40 DUP1 DUP6 ADD SWAP2 SWAP1 SWAP2 MSTORE PUSH1 0x1 PUSH1 0x30 SHL DUP4 DIV DUP3 AND PUSH1 0x60 DUP6 ADD MSTORE PUSH1 0x1 PUSH1 0x40 SHL DUP4 DIV DUP3 AND PUSH1 0x80 DUP6 ADD MSTORE PUSH1 0x1 PUSH1 0x50 SHL SWAP1 SWAP3 DIV DUP2 AND PUSH1 0xA0 DUP5 ADD MSTORE PUSH1 0x1 DUP5 ADD SLOAD PUSH1 0xC0 DUP5 ADD MSTORE PUSH1 0x2 DUP5 ADD SLOAD PUSH1 0xE0 DUP5 ADD MSTORE PUSH1 0x3 DUP5 ADD SLOAD PUSH2 0x100 DUP5 ADD MSTORE PUSH1 0x4 DUP5 ADD SLOAD PUSH2 0x120 DUP5 ADD MSTORE PUSH1 0x5 DUP5 ADD SLOAD PUSH2 0x140 DUP5 ADD MSTORE PUSH1 0x6 DUP5 ADD SLOAD PUSH2 0x160 DUP5 ADD MSTORE PUSH1 0x7 DUP5 ADD SLOAD PUSH2 0x180 DUP5 ADD MSTORE PUSH1 0x8 DUP5 ADD SLOAD PUSH2 0x1A0 DUP5 ADD MSTORE PUSH1 0x9 SWAP1 SWAP4 ADD SLOAD PUSH2 0x1C0 SWAP1 SWAP3 ADD SWAP2 SWAP1 SWAP2 MSTORE DUP3 ADD MLOAD SWAP2 SWAP3 POP AND PUSH2 0x6DC JUMPI PUSH1 0x40 MLOAD PUSH3 0x461BCD PUSH1 0xE5 SHL DUP2 MSTORE PUSH1 0x20 PUSH1 0x4 DUP3 ADD MSTORE PUSH1 0x12 PUSH1 0x24 DUP3 ADD MSTORE PUSH18 0x496E76616C6964206368616C6C656E616765 PUSH1 0x70 SHL PUSH1 0x44 DUP3 ADD MSTORE PUSH1 0x64 ADD JUMPDEST PUSH1 0x40 MLOAD DUP1 SWAP2 SUB SWAP1 REVERT JUMPDEST TIMESTAMP DUP2 PUSH2 0x120 ADD MLOAD LT PUSH2 0x728 JUMPI PUSH1 0x40 MLOAD PUSH3 0x461BCD PUSH1 0xE5 SHL DUP2 MSTORE PUSH1 0x20 PUSH1 0x4 DUP3 ADD MSTORE PUSH1 0x15 PUSH1 0x24 DUP3 ADD MSTORE PUSH21 0x10DA185B1B195B9859D9481B9BDD081BDC195B9959 PUSH1 0x5A SHL PUSH1 0x44 DUP3 ADD MSTORE PUSH1 0x64 ADD PUSH2 0x6D3 JUMP JUMPDEST PUSH1 0xA0 DUP3 ADD MLOAD ISZERO PUSH2 0x76C JUMPI PUSH1 0x40 MLOAD PUSH3 0x461BCD PUSH1 0xE5 SHL DUP2 MSTORE PUSH1 0x20 PUSH1 0x4 DUP3 ADD MSTORE PUSH1 0xF PUSH1 0x24 DUP3 ADD MSTORE PUSH15 0x12185CC81D185AD9481C995DD85C99 PUSH1 0x8A SHL PUSH1 0x44 DUP3 ADD MSTORE PUSH1 0x64 ADD PUSH2 0x6D3 JUMP JUMPDEST PUSH1 0x1 PUSH1 0xA0 DUP4 ADD DUP2 SWAP1 MSTORE PUSH1 0x0 SWAP1 DUP2 SWAP1 DUP4 PUSH1 0x20 ADD MLOAD PUSH1 0x3 DUP2 GT ISZERO PUSH2 0x790 JUMPI PUSH2 0x790 PUSH2 0x2A5A JUMP JUMPDEST SUB PUSH2 0x816 JUMPI POP POP PUSH1 0x20 DUP3 ADD MLOAD PUSH2 0x180 DUP3 ADD MLOAD PUSH1 0x2 SLOAD PUSH2 0x140 DUP5 ADD MLOAD PUSH1 0x40 MLOAD PUSH4 0x79212195 PUSH1 0xE1 SHL DUP2 MSTORE SWAP3 SWAP4 SWAP3 PUSH1 0x1 PUSH1 0x1 PUSH1 0xA0 SHL SUB SWAP1 SWAP3 AND SWAP2 PUSH4 0xF242432A SWAP2 PUSH2 0x7DF SWAP2 ADDRESS SWAP2 CALLER SWAP2 DUP8 SWAP1 PUSH1 0x4 ADD PUSH2 0x2F9B JUMP JUMPDEST PUSH1 0x0 PUSH1 0x40 MLOAD DUP1 DUP4 SUB DUP2 PUSH1 0x0 DUP8 DUP1 EXTCODESIZE ISZERO DUP1 ISZERO PUSH2 0x7F9 JUMPI PUSH1 0x0 DUP1 REVERT JUMPDEST POP GAS CALL ISZERO DUP1 ISZERO PUSH2 0x80D JUMPI RETURNDATASIZE PUSH1 0x0 DUP1 RETURNDATACOPY RETURNDATASIZE PUSH1 0x0 REVERT JUMPDEST POP POP POP POP PUSH2 0x9A3 JUMP JUMPDEST PUSH1 0x3 DUP4 PUSH1 0x20 ADD MLOAD PUSH1 0x3 DUP2 GT ISZERO PUSH2 0x82E JUMPI PUSH2 0x82E PUSH2 0x2A5A JUMP JUMPDEST SUB PUSH2 0x87C JUMPI POP POP PUSH1 0x40 DUP1 DUP4 ADD MLOAD PUSH2 0x1A0 DUP4 ADD MLOAD PUSH1 0x2 SLOAD PUSH2 0x160 DUP6 ADD MLOAD SWAP4 MLOAD PUSH4 0x79212195 PUSH1 0xE1 SHL DUP2 MSTORE SWAP2 SWAP4 PUSH1 0x1 PUSH1 0x1 PUSH1 0xA0 SHL SUB SWAP1 SWAP2 AND SWAP2 PUSH4 0xF242432A SWAP2 PUSH2 0x7DF SWAP2 ADDRESS SWAP2 CALLER SWAP2 DUP8 SWAP1 PUSH1 0x4 ADD PUSH2 0x2F9B JUMP JUMPDEST DUP4 PUSH1 0x80 ADD MLOAD DUP5 PUSH1 0x60 ADD MLOAD PUSH2 0x890 SWAP2 SWAP1 PUSH2 0x2FE9 JUMP JUMPDEST SWAP1 POP DUP3 PUSH2 0x1E0 ADD MLOAD DUP4 PUSH2 0x1C0 ADD MLOAD PUSH2 0x8A8 SWAP2 SWAP1 PUSH2 0x2FE9 JUMP JUMPDEST PUSH1 0x60 DUP6 ADD MLOAD SWAP1 SWAP3 POP ISZERO PUSH2 0x927 JUMPI PUSH1 0x2 SLOAD PUSH2 0x140 DUP5 ADD MLOAD PUSH1 0x60 DUP7 ADD MLOAD PUSH1 0x40 MLOAD PUSH4 0x79212195 PUSH1 0xE1 SHL DUP2 MSTORE PUSH1 0x1 PUSH1 0x1 PUSH1 0xA0 SHL SUB SWAP1 SWAP4 AND SWAP3 PUSH4 0xF242432A SWAP3 PUSH2 0x8F4 SWAP3 ADDRESS SWAP3 CALLER SWAP3 SWAP2 SWAP1 PUSH1 0x4 ADD PUSH2 0x2F9B JUMP JUMPDEST PUSH1 0x0 PUSH1 0x40 MLOAD DUP1 DUP4 SUB DUP2 PUSH1 0x0 DUP8 DUP1 EXTCODESIZE ISZERO DUP1 ISZERO PUSH2 0x90E JUMPI PUSH1 0x0 DUP1 REVERT JUMPDEST POP GAS CALL ISZERO DUP1 ISZERO PUSH2 0x922 JUMPI RETURNDATASIZE PUSH1 0x0 DUP1 RETURNDATACOPY RETURNDATASIZE PUSH1 0x0 REVERT JUMPDEST POP POP POP POP JUMPDEST PUSH1 0x80 DUP5 ADD MLOAD ISZERO PUSH2 0x9A3 JUMPI PUSH1 0x2 SLOAD PUSH2 0x160 DUP5 ADD MLOAD PUSH1 0x80 DUP7 ADD MLOAD PUSH1 0x40 MLOAD PUSH4 0x79212195 PUSH1 0xE1 SHL DUP2 MSTORE PUSH1 0x1 PUSH1 0x1 PUSH1 0xA0 SHL SUB SWAP1 SWAP4 AND SWAP3 PUSH4 0xF242432A SWAP3 PUSH2 0x970 SWAP3 ADDRESS SWAP3 CALLER SWAP3 SWAP2 SWAP1 PUSH1 0x4 ADD PUSH2 0x2F9B JUMP JUMPDEST PUSH1 0x0 PUSH1 0x40 MLOAD DUP1 DUP4 SUB DUP2 PUSH1 0x0 DUP8 DUP1 EXTCODESIZE ISZERO DUP1 ISZERO PUSH2 0x98A JUMPI PUSH1 0x0 DUP1 REVERT JUMPDEST POP GAS CALL ISZERO DUP1 ISZERO PUSH2 0x99E JUMPI RETURNDATASIZE PUSH1 0x0 DUP1 RETURNDATACOPY RETURNDATASIZE PUSH1 0x0 REVERT JUMPDEST POP POP POP POP JUMPDEST PUSH1 0x0 DUP3 DUP6 PUSH1 0x80 ADD MLOAD DUP7 PUSH1 0x60 ADD MLOAD DUP8 PUSH1 0x40 ADD MLOAD DUP9 PUSH1 0x20 ADD MLOAD PUSH2 0x9C4 SWAP2 SWAP1 PUSH2 0x2FE9 JUMP JUMPDEST PUSH2 0x9CE SWAP2 SWAP1 PUSH2 0x2FE9 JUMP JUMPDEST PUSH2 0x9D8 SWAP2 SWAP1 PUSH2 0x2FE9 JUMP JUMPDEST PUSH2 0x9E2 SWAP2 SWAP1 PUSH2 0x2FFC JUMP JUMPDEST SWAP1 POP PUSH1 0x0 DUP3 DUP5 PUSH1 0x64 PUSH1 0x4 SLOAD PUSH1 0x5 SLOAD DUP7 PUSH2 0x9FB SWAP2 SWAP1 PUSH2 0x300F JUMP JUMPDEST PUSH2 0xA05 SWAP2 SWAP1 PUSH2 0x300F JUMP JUMPDEST PUSH2 0xA0F SWAP2 SWAP1 PUSH2 0x3026 JUMP JUMPDEST PUSH2 0xA19 SWAP2 SWAP1 PUSH2 0x3026 JUMP JUMPDEST PUSH2 0xA23 SWAP2 SWAP1 PUSH2 0x300F JUMP JUMPDEST SWAP1 POP DUP1 ISZERO PUSH2 0xAA2 JUMPI PUSH1 0x3 SLOAD PUSH1 0x40 MLOAD PUSH4 0xA9059CBB PUSH1 0xE0 SHL DUP2 MSTORE CALLER PUSH1 0x4 DUP3 ADD MSTORE PUSH1 0x24 DUP2 ADD DUP4 SWAP1 MSTORE PUSH1 0x1 PUSH1 0x1 PUSH1 0xA0 SHL SUB SWAP1 SWAP2 AND SWAP1 PUSH4 0xA9059CBB SWAP1 PUSH1 0x44 ADD PUSH1 0x20 PUSH1 0x40 MLOAD DUP1 DUP4 SUB DUP2 PUSH1 0x0 DUP8 GAS CALL ISZERO DUP1 ISZERO PUSH2 0xA7C JUMPI RETURNDATASIZE PUSH1 0x0 DUP1 RETURNDATACOPY RETURNDATASIZE PUSH1 0x0 REVERT JUMPDEST POP POP POP POP PUSH1 0x40 MLOAD RETURNDATASIZE PUSH1 0x1F NOT PUSH1 0x1F DUP3 ADD AND DUP3 ADD DUP1 PUSH1 0x40 MSTORE POP DUP2 ADD SWAP1 PUSH2 0xAA0 SWAP2 SWAP1 PUSH2 0x3048 JUMP JUMPDEST POP JUMPDEST CALLER PUSH1 0x0 DUP2 DUP2 MSTORE PUSH1 0x7 PUSH1 0x20 SWAP1 DUP2 MSTORE PUSH1 0x40 DUP1 DUP4 KECCAK256 PUSH2 0xFFFF DUP13 DUP2 AND DUP6 MSTORE SWAP1 DUP4 MSTORE SWAP3 DUP2 SWAP1 KECCAK256 DUP11 MLOAD DUP2 SLOAD PUSH2 0xFFFF NOT AND SWAP1 DUP6 AND OR DUP2 SSTORE DUP11 DUP4 ADD MLOAD PUSH1 0x1 DUP3 ADD SSTORE DUP11 DUP3 ADD MLOAD PUSH1 0x2 DUP3 ADD SSTORE PUSH1 0x60 DUP12 ADD MLOAD PUSH1 0x3 DUP3 ADD SSTORE PUSH1 0x80 DUP12 ADD MLOAD PUSH1 0x4 DUP3 ADD SSTORE PUSH1 0xA0 DUP12 ADD MLOAD PUSH1 0x5 SWAP1 SWAP2 ADD DUP1 SLOAD PUSH1 0xFF NOT AND SWAP2 ISZERO ISZERO SWAP2 SWAP1 SWAP2 OR SWAP1 SSTORE DUP9 DUP2 ADD MLOAD DUP2 MLOAD SWAP4 AND DUP4 MSTORE SWAP1 DUP3 ADD DUP5 SWAP1 MSTORE PUSH32 0x37928B7E81BCB91F89AB0BC4EB993473DE24975366BEBF5B4E1E946F2C948807 SWAP2 ADD JUMPDEST PUSH1 0x40 MLOAD DUP1 SWAP2 SUB SWAP1 LOG2 POP POP POP POP POP POP POP JUMP JUMPDEST PUSH1 0x1 PUSH1 0x1 PUSH1 0xA0 SHL SUB DUP2 AND PUSH1 0x0 SWAP1 DUP2 MSTORE PUSH1 0x8 PUSH1 0x20 MSTORE PUSH1 0x40 SWAP1 KECCAK256 PUSH1 0x60 SWAP1 PUSH2 0x4F5 SWAP1 PUSH2 0x2759 JUMP JUMPDEST PUSH1 0x1 SLOAD PUSH1 0x1 PUSH1 0x1 PUSH1 0xA0 SHL SUB AND CALLER EQ PUSH2 0xBA4 JUMPI PUSH1 0x40 MLOAD PUSH3 0x461BCD PUSH1 0xE5 SHL DUP2 MSTORE PUSH1 0x4 ADD PUSH2 0x6D3 SWAP1 PUSH2 0x3065 JUMP JUMPDEST PUSH1 0x1 PUSH1 0x1 PUSH1 0xA0 SHL SUB DUP3 AND PUSH1 0x0 DUP2 DUP2 MSTORE PUSH1 0x20 DUP2 DUP2 MSTORE PUSH1 0x40 SWAP2 DUP3 SWAP1 KECCAK256 SLOAD DUP3 MLOAD PUSH1 0xFF SWAP1 SWAP2 AND ISZERO ISZERO DUP2 MSTORE DUP5 ISZERO ISZERO SWAP2 DUP2 ADD SWAP2 SWAP1 SWAP2 MSTORE PUSH32 0x82F1FA40A3D82DEA3E406073819290601F436580AA7C69F9FEB61F885BDD8854 SWAP2 ADD PUSH1 0x40 MLOAD DUP1 SWAP2 SUB SWAP1 LOG2 PUSH1 0x1 PUSH1 0x1 PUSH1 0xA0 SHL SUB SWAP2 SWAP1 SWAP2 AND PUSH1 0x0 SWAP1 DUP2 MSTORE PUSH1 0x20 DUP2 SWAP1 MSTORE PUSH1 0x40 SWAP1 KECCAK256 DUP1 SLOAD PUSH1 0xFF NOT AND SWAP2 ISZERO ISZERO SWAP2 SWAP1 SWAP2 OR SWAP1 SSTORE JUMP JUMPDEST PUSH2 0xC33 CALLER PUSH2 0x27B JUMP JUMPDEST PUSH2 0xC4F JUMPI PUSH1 0x40 MLOAD PUSH3 0x461BCD PUSH1 0xE5 SHL DUP2 MSTORE PUSH1 0x4 ADD PUSH2 0x6D3 SWAP1 PUSH2 0x30A7 JUMP JUMPDEST TIMESTAMP DUP5 GT PUSH2 0xCAD JUMPI PUSH1 0x40 MLOAD PUSH3 0x461BCD PUSH1 0xE5 SHL DUP2 MSTORE PUSH1 0x20 PUSH1 0x4 DUP3 ADD MSTORE PUSH1 0x26 PUSH1 0x24 DUP3 ADD MSTORE PUSH32 0x53746172742074696D65206D757374206D6F7265207468616E2070726573656E PUSH1 0x44 DUP3 ADD MSTORE PUSH6 0x742074696D65 PUSH1 0xD0 SHL PUSH1 0x64 DUP3 ADD MSTORE PUSH1 0x84 ADD PUSH2 0x6D3 JUMP JUMPDEST PUSH1 0x20 DUP3 GT ISZERO DUP1 ISZERO PUSH2 0xCBF JUMPI POP PUSH1 0x20 DUP2 GT ISZERO JUMPDEST PUSH2 0xD0B JUMPI PUSH1 0x40 MLOAD PUSH3 0x461BCD PUSH1 0xE5 SHL DUP2 MSTORE PUSH1 0x20 PUSH1 0x4 DUP3 ADD MSTORE PUSH1 0x1A PUSH1 0x24 DUP3 ADD MSTORE PUSH32 0x546F6B656E206964206D757374206C657373207468616E203337000000000000 PUSH1 0x44 DUP3 ADD MSTORE PUSH1 0x64 ADD PUSH2 0x6D3 JUMP JUMPDEST PUSH1 0x3 DUP1 SLOAD PUSH1 0x1 PUSH1 0xA0 SHL SWAP1 DIV PUSH2 0xFFFF AND SWAP1 PUSH1 0x14 PUSH2 0xD26 DUP4 PUSH2 0x30E9 JUMP JUMPDEST SWAP2 SWAP1 PUSH2 0x100 EXP DUP2 SLOAD DUP2 PUSH2 0xFFFF MUL NOT AND SWAP1 DUP4 PUSH2 0xFFFF AND MUL OR SWAP1 SSTORE POP POP PUSH1 0x40 MLOAD DUP1 PUSH2 0x200 ADD PUSH1 0x40 MSTORE DUP1 DUP9 PUSH1 0x1 DUP2 GT ISZERO PUSH2 0xD5F JUMPI PUSH2 0xD5F PUSH2 0x2A5A JUMP JUMPDEST DUP2 MSTORE PUSH1 0x0 PUSH1 0x20 DUP1 DUP4 ADD DUP3 SWAP1 MSTORE PUSH1 0x3 SLOAD PUSH1 0x1 PUSH1 0xA0 SHL SWAP1 DIV PUSH2 0xFFFF SWAP1 DUP2 AND PUSH1 0x40 DUP1 DUP7 ADD DUP3 SWAP1 MSTORE DUP13 DUP4 AND PUSH1 0x60 DUP8 ADD MSTORE SWAP2 DUP12 AND PUSH1 0x80 DUP7 ADD MSTORE PUSH1 0xA0 DUP6 ADD DUP5 SWAP1 MSTORE PUSH1 0xC0 DUP6 ADD DUP5 SWAP1 MSTORE PUSH1 0xE0 DUP6 ADD DUP11 SWAP1 MSTORE PUSH2 0x100 DUP6 ADD DUP10 SWAP1 MSTORE PUSH2 0x120 DUP6 ADD DUP5 SWAP1 MSTORE PUSH2 0x140 DUP6 ADD DUP9 SWAP1 MSTORE PUSH2 0x160 DUP6 ADD DUP8 SWAP1 MSTORE PUSH2 0x180 DUP6 ADD DUP5 SWAP1 MSTORE PUSH2 0x1A0 DUP6 ADD DUP5 SWAP1 MSTORE PUSH2 0x1C0 DUP6 ADD DUP5 SWAP1 MSTORE PUSH2 0x1E0 SWAP1 SWAP5 ADD DUP4 SWAP1 MSTORE SWAP3 DUP3 MSTORE PUSH1 0x6 SWAP1 MSTORE KECCAK256 DUP2 MLOAD DUP2 SLOAD DUP3 SWAP1 PUSH1 0xFF NOT AND PUSH1 0x1 DUP4 DUP2 DUP2 GT ISZERO PUSH2 0xE0E JUMPI PUSH2 0xE0E PUSH2 0x2A5A JUMP JUMPDEST MUL OR SWAP1 SSTORE POP PUSH1 0x20 DUP3 ADD MLOAD DUP2 SLOAD DUP3 SWAP1 PUSH2 0xFF00 NOT AND PUSH2 0x100 DUP4 PUSH1 0x3 DUP2 GT ISZERO PUSH2 0xE36 JUMPI PUSH2 0xE36 PUSH2 0x2A5A JUMP JUMPDEST MUL OR SWAP1 SSTORE POP PUSH1 0x40 DUP3 DUP2 ADD MLOAD DUP3 SLOAD PUSH1 0x60 DUP6 ADD MLOAD PUSH1 0x80 DUP7 ADD MLOAD PUSH1 0xA0 DUP8 ADD MLOAD PUSH1 0xC0 DUP9 ADD MLOAD PUSH6 0xFFFFFFFF0000 NOT SWAP1 SWAP5 AND PUSH3 0x10000 PUSH2 0xFFFF SWAP7 DUP8 AND MUL PUSH6 0xFFFF00000000 NOT AND OR PUSH1 0x1 PUSH1 0x20 SHL SWAP4 DUP7 AND SWAP4 SWAP1 SWAP4 MUL SWAP3 SWAP1 SWAP3 OR PUSH4 0xFFFFFFFF PUSH1 0x30 SHL NOT AND PUSH1 0x1 PUSH1 0x30 SHL SWAP2 DUP6 AND SWAP2 SWAP1 SWAP2 MUL PUSH2 0xFFFF PUSH1 0x40 SHL NOT AND OR PUSH1 0x1 PUSH1 0x40 SHL SWAP2 DUP5 AND SWAP2 SWAP1 SWAP2 MUL OR PUSH2 0xFFFF PUSH1 0x50 SHL NOT AND PUSH1 0x1 PUSH1 0x50 SHL SWAP2 DUP4 AND SWAP2 SWAP1 SWAP2 MUL OR DUP4 SSTORE PUSH1 0xE0 DUP5 ADD MLOAD PUSH1 0x1 DUP5 ADD SSTORE PUSH2 0x100 DUP5 ADD MLOAD PUSH1 0x2 DUP5 ADD SSTORE PUSH2 0x120 DUP5 ADD MLOAD PUSH1 0x3 DUP1 DUP6 ADD SWAP2 SWAP1 SWAP2 SSTORE PUSH2 0x140 DUP6 ADD MLOAD PUSH1 0x4 DUP6 ADD SSTORE PUSH2 0x160 DUP6 ADD MLOAD PUSH1 0x5 DUP6 ADD SSTORE PUSH2 0x180 DUP6 ADD MLOAD PUSH1 0x6 DUP6 ADD SSTORE PUSH2 0x1A0 DUP6 ADD MLOAD PUSH1 0x7 DUP6 ADD SSTORE PUSH2 0x1C0 DUP6 ADD MLOAD PUSH1 0x8 DUP6 ADD SSTORE PUSH2 0x1E0 SWAP1 SWAP5 ADD MLOAD PUSH1 0x9 SWAP1 SWAP4 ADD SWAP3 SWAP1 SWAP3 SSTORE SWAP2 SLOAD SWAP2 MLOAD CALLER SWAP3 PUSH32 0x9E386E351C3AF738EDECA6A05E587D1458CB5F3193ABBBE09DCCB7DE296711D SWAP3 PUSH2 0xB45 SWAP3 DUP13 SWAP3 PUSH1 0x1 PUSH1 0xA0 SHL SWAP1 DIV SWAP1 SWAP2 AND SWAP1 DUP12 SWAP1 DUP12 SWAP1 DUP12 SWAP1 DUP12 SWAP1 DUP12 SWAP1 DUP12 SWAP1 PUSH2 0x310A JUMP JUMPDEST PUSH2 0xFFFF DUP2 AND PUSH1 0x0 SWAP1 DUP2 MSTORE PUSH1 0x6 PUSH1 0x20 MSTORE PUSH1 0x40 DUP1 DUP3 KECCAK256 DUP2 MLOAD PUSH2 0x200 DUP2 ADD SWAP1 SWAP3 MSTORE DUP1 SLOAD DUP4 SWAP3 SWAP2 SWAP1 DUP3 SWAP1 PUSH1 0xFF AND PUSH1 0x1 DUP2 GT ISZERO PUSH2 0xFB9 JUMPI PUSH2 0xFB9 PUSH2 0x2A5A JUMP JUMPDEST PUSH1 0x1 DUP2 GT ISZERO PUSH2 0xFCA JUMPI PUSH2 0xFCA PUSH2 0x2A5A JUMP JUMPDEST DUP2 MSTORE DUP2 SLOAD PUSH1 0x20 SWAP1 SWAP2 ADD SWAP1 PUSH2 0x100 SWAP1 DIV PUSH1 0xFF AND PUSH1 0x3 DUP2 GT ISZERO PUSH2 0xFED JUMPI PUSH2 0xFED PUSH2 0x2A5A JUMP JUMPDEST PUSH1 0x3 DUP2 GT ISZERO PUSH2 0xFFE JUMPI PUSH2 0xFFE PUSH2 0x2A5A JUMP JUMPDEST DUP2 MSTORE DUP2 SLOAD PUSH2 0xFFFF PUSH3 0x10000 DUP3 DIV DUP2 AND PUSH1 0x20 DUP5 ADD MSTORE PUSH1 0x1 PUSH1 0x20 SHL DUP3 DIV DUP2 AND PUSH1 0x40 DUP1 DUP6 ADD SWAP2 SWAP1 SWAP2 MSTORE PUSH1 0x1 PUSH1 0x30 SHL DUP4 DIV DUP3 AND PUSH1 0x60 DUP6 ADD MSTORE PUSH1 0x1 PUSH1 0x40 SHL DUP4 DIV DUP3 AND PUSH1 0x80 DUP6 ADD MSTORE PUSH1 0x1 PUSH1 0x50 SHL SWAP1 SWAP3 DIV DUP2 AND PUSH1 0xA0 DUP5 ADD MSTORE PUSH1 0x1 DUP5 ADD SLOAD PUSH1 0xC0 DUP5 ADD MSTORE PUSH1 0x2 DUP5 ADD SLOAD PUSH1 0xE0 DUP5 ADD MSTORE PUSH1 0x3 DUP5 ADD SLOAD PUSH2 0x100 DUP5 ADD MSTORE PUSH1 0x4 DUP5 ADD SLOAD PUSH2 0x120 DUP5 ADD MSTORE PUSH1 0x5 DUP5 ADD SLOAD PUSH2 0x140 DUP5 ADD MSTORE PUSH1 0x6 DUP5 ADD SLOAD PUSH2 0x160 DUP5 ADD MSTORE PUSH1 0x7 DUP5 ADD SLOAD PUSH2 0x180 DUP5 ADD MSTORE PUSH1 0x8 DUP5 ADD SLOAD PUSH2 0x1A0 DUP5 ADD MSTORE PUSH1 0x9 SWAP1 SWAP4 ADD SLOAD PUSH2 0x1C0 SWAP1 SWAP3 ADD SWAP2 SWAP1 SWAP2 MSTORE DUP3 ADD MLOAD SWAP2 SWAP3 POP AND ISZERO DUP1 PUSH2 0x10CB JUMPI POP PUSH2 0x120 DUP2 ADD MLOAD ISZERO JUMPDEST ISZERO PUSH2 0x10DA JUMPI PUSH1 0x0 SWAP2 POP POP PUSH2 0x4F5 JUMP JUMPDEST PUSH1 0x1 PUSH1 0x1 PUSH1 0xA0 SHL SUB DUP5 AND PUSH1 0x0 SWAP1 DUP2 MSTORE PUSH1 0x7 PUSH1 0x20 SWAP1 DUP2 MSTORE PUSH1 0x40 DUP1 DUP4 KECCAK256 PUSH2 0xFFFF DUP1 DUP9 AND DUP6 MSTORE SWAP1 DUP4 MSTORE SWAP3 DUP2 SWAP1 KECCAK256 DUP2 MLOAD PUSH1 0xC0 DUP2 ADD DUP4 MSTORE DUP2 SLOAD SWAP1 SWAP5 AND DUP1 DUP6 MSTORE PUSH1 0x1 DUP3 ADD SLOAD SWAP4 DUP6 ADD SWAP4 SWAP1 SWAP4 MSTORE PUSH1 0x2 DUP2 ADD SLOAD SWAP2 DUP5 ADD SWAP2 SWAP1 SWAP2 MSTORE PUSH1 0x3 DUP2 ADD SLOAD PUSH1 0x60 DUP5 ADD MSTORE PUSH1 0x4 DUP2 ADD SLOAD PUSH1 0x80 DUP5 ADD MSTORE PUSH1 0x5 ADD SLOAD PUSH1 0xFF AND ISZERO ISZERO PUSH1 0xA0 DUP4 ADD MSTORE ISZERO DUP1 PUSH2 0x1160 JUMPI POP PUSH1 0xA0 DUP2 ADD MLOAD ISZERO ISZERO PUSH1 0x1 EQ JUMPDEST ISZERO PUSH2 0x1170 JUMPI PUSH1 0x0 SWAP3 POP POP POP PUSH2 0x4F5 JUMP JUMPDEST PUSH1 0x0 DUP1 PUSH1 0x1 DUP5 PUSH1 0x20 ADD MLOAD PUSH1 0x3 DUP2 GT ISZERO PUSH2 0x118B JUMPI PUSH2 0x118B PUSH2 0x2A5A JUMP JUMPDEST SUB PUSH2 0x11A3 JUMPI POP POP PUSH1 0x20 DUP2 ADD MLOAD PUSH2 0x180 DUP4 ADD MLOAD SWAP1 PUSH2 0x1202 JUMP JUMPDEST PUSH1 0x3 DUP5 PUSH1 0x20 ADD MLOAD PUSH1 0x3 DUP2 GT ISZERO PUSH2 0x11BB JUMPI PUSH2 0x11BB PUSH2 0x2A5A JUMP JUMPDEST SUB PUSH2 0x11D3 JUMPI POP POP PUSH1 0x40 DUP2 ADD MLOAD PUSH2 0x1A0 DUP4 ADD MLOAD SWAP1 PUSH2 0x1202 JUMP JUMPDEST DUP3 PUSH1 0x80 ADD MLOAD DUP4 PUSH1 0x60 ADD MLOAD PUSH2 0x11E7 SWAP2 SWAP1 PUSH2 0x2FE9 JUMP JUMPDEST SWAP1 POP DUP4 PUSH2 0x1E0 ADD MLOAD DUP5 PUSH2 0x1C0 ADD MLOAD PUSH2 0x11FF SWAP2 SWAP1 PUSH2 0x2FE9 JUMP JUMPDEST SWAP2 POP JUMPDEST PUSH1 0x0 DUP3 DUP5 PUSH1 0x80 ADD MLOAD DUP6 PUSH1 0x60 ADD MLOAD DUP7 PUSH1 0x40 ADD MLOAD DUP8 PUSH1 0x20 ADD MLOAD PUSH2 0x1223 SWAP2 SWAP1 PUSH2 0x2FE9 JUMP JUMPDEST PUSH2 0x122D SWAP2 SWAP1 PUSH2 0x2FE9 JUMP JUMPDEST PUSH2 0x1237 SWAP2 SWAP1 PUSH2 0x2FE9 JUMP JUMPDEST PUSH2 0x1241 SWAP2 SWAP1 PUSH2 0x2FFC JUMP JUMPDEST SWAP1 POP DUP2 DUP4 PUSH1 0x64 PUSH1 0x4 SLOAD PUSH1 0x5 SLOAD DUP6 PUSH2 0x1258 SWAP2 SWAP1 PUSH2 0x300F JUMP JUMPDEST PUSH2 0x1262 SWAP2 SWAP1 PUSH2 0x300F JUMP JUMPDEST PUSH2 0x126C SWAP2 SWAP1 PUSH2 0x3026 JUMP JUMPDEST PUSH2 0x1276 SWAP2 SWAP1 PUSH2 0x3026 JUMP JUMPDEST PUSH2 0x1280 SWAP2 SWAP1 PUSH2 0x300F JUMP JUMPDEST SWAP9 SWAP8 POP POP POP POP POP POP POP POP JUMP JUMPDEST PUSH1 0x1 SLOAD PUSH1 0x1 PUSH1 0x1 PUSH1 0xA0 SHL SUB AND CALLER EQ PUSH2 0x12B6 JUMPI PUSH1 0x40 MLOAD PUSH3 0x461BCD PUSH1 0xE5 SHL DUP2 MSTORE PUSH1 0x4 ADD PUSH2 0x6D3 SWAP1 PUSH2 0x3065 JUMP JUMPDEST PUSH1 0x4 SSTORE JUMP JUMPDEST PUSH1 0x1 SLOAD PUSH1 0x1 PUSH1 0x1 PUSH1 0xA0 SHL SUB AND CALLER EQ PUSH2 0x12E5 JUMPI PUSH1 0x40 MLOAD PUSH3 0x461BCD PUSH1 0xE5 SHL DUP2 MSTORE PUSH1 0x4 ADD PUSH2 0x6D3 SWAP1 PUSH2 0x3065 JUMP JUMPDEST PUSH1 0x2 DUP1 SLOAD PUSH1 0x1 PUSH1 0x1 PUSH1 0xA0 SHL SUB NOT AND PUSH1 0x1 PUSH1 0x1 PUSH1 0xA0 SHL SUB SWAP3 SWAP1 SWAP3 AND SWAP2 SWAP1 SWAP2 OR SWAP1 SSTORE JUMP JUMPDEST PUSH1 0x1 SLOAD PUSH1 0x1 PUSH1 0x1 PUSH1 0xA0 SHL SUB AND CALLER EQ PUSH2 0x1331 JUMPI PUSH1 0x40 MLOAD PUSH3 0x461BCD PUSH1 0xE5 SHL DUP2 MSTORE PUSH1 0x4 ADD PUSH2 0x6D3 SWAP1 PUSH2 0x3065 JUMP JUMPDEST PUSH2 0x133B PUSH1 0x0 PUSH2 0x276D JUMP JUMPDEST JUMP JUMPDEST PUSH2 0x137C PUSH1 0x40 MLOAD DUP1 PUSH1 0xC0 ADD PUSH1 0x40 MSTORE DUP1 PUSH1 0x0 PUSH2 0xFFFF AND DUP2 MSTORE PUSH1 0x20 ADD PUSH1 0x0 DUP2 MSTORE PUSH1 0x20 ADD PUSH1 0x0 DUP2 MSTORE PUSH1 0x20 ADD PUSH1 0x0 DUP2 MSTORE PUSH1 0x20 ADD PUSH1 0x0 DUP2 MSTORE PUSH1 0x20 ADD PUSH1 0x0 ISZERO ISZERO DUP2 MSTORE POP SWAP1 JUMP JUMPDEST POP PUSH1 0x1 PUSH1 0x1 PUSH1 0xA0 SHL SUB DUP3 AND PUSH1 0x0 SWAP1 DUP2 MSTORE PUSH1 0x7 PUSH1 0x20 SWAP1 DUP2 MSTORE PUSH1 0x40 DUP1 DUP4 KECCAK256 PUSH2 0xFFFF DUP1 DUP7 AND DUP6 MSTORE SWAP1 DUP4 MSTORE SWAP3 DUP2 SWAP1 KECCAK256 DUP2 MLOAD PUSH1 0xC0 DUP2 ADD DUP4 MSTORE DUP2 SLOAD SWAP1 SWAP5 AND DUP5 MSTORE PUSH1 0x1 DUP2 ADD SLOAD SWAP3 DUP5 ADD SWAP3 SWAP1 SWAP3 MSTORE PUSH1 0x2 DUP3 ADD SLOAD SWAP1 DUP4 ADD MSTORE PUSH1 0x3 DUP2 ADD SLOAD PUSH1 0x60 DUP4 ADD MSTORE PUSH1 0x4 DUP2 ADD SLOAD PUSH1 0x80 DUP4 ADD MSTORE PUSH1 0x5 ADD SLOAD PUSH1 0xFF AND ISZERO ISZERO PUSH1 0xA0 DUP3 ADD MSTORE SWAP3 SWAP2 POP POP JUMP JUMPDEST PUSH2 0x1488 PUSH1 0x40 DUP1 MLOAD PUSH2 0x200 DUP2 ADD SWAP1 SWAP2 MSTORE DUP1 PUSH1 0x0 DUP2 MSTORE PUSH1 0x20 ADD PUSH1 0x0 DUP2 MSTORE PUSH1 0x20 ADD PUSH1 0x0 PUSH2 0xFFFF AND DUP2 MSTORE PUSH1 0x20 ADD PUSH1 0x0 PUSH2 0xFFFF AND DUP2 MSTORE PUSH1 0x20 ADD PUSH1 0x0 PUSH2 0xFFFF AND DUP2 MSTORE PUSH1 0x20 ADD PUSH1 0x0 PUSH2 0xFFFF AND DUP2 MSTORE PUSH1 0x20 ADD PUSH1 0x0 PUSH2 0xFFFF AND DUP2 MSTORE PUSH1 0x20 ADD PUSH1 0x0 DUP2 MSTORE PUSH1 0x20 ADD PUSH1 0x0 DUP2 MSTORE PUSH1 0x20 ADD PUSH1 0x0 DUP2 MSTORE PUSH1 0x20 ADD PUSH1 0x0 DUP2 MSTORE PUSH1 0x20 ADD PUSH1 0x0 DUP2 MSTORE PUSH1 0x20 ADD PUSH1 0x0 DUP2 MSTORE PUSH1 0x20 ADD PUSH1 0x0 DUP2 MSTORE PUSH1 0x20 ADD PUSH1 0x0 DUP2 MSTORE PUSH1 0x20 ADD PUSH1 0x0 DUP2 MSTORE POP SWAP1 JUMP JUMPDEST PUSH2 0xFFFF DUP3 AND PUSH1 0x0 SWAP1 DUP2 MSTORE PUSH1 0x6 PUSH1 0x20 MSTORE PUSH1 0x40 SWAP1 DUP2 SWAP1 KECCAK256 DUP2 MLOAD PUSH2 0x200 DUP2 ADD SWAP1 SWAP3 MSTORE DUP1 SLOAD DUP3 SWAP1 PUSH1 0xFF AND PUSH1 0x1 DUP2 GT ISZERO PUSH2 0x14BF JUMPI PUSH2 0x14BF PUSH2 0x2A5A JUMP JUMPDEST PUSH1 0x1 DUP2 GT ISZERO PUSH2 0x14D0 JUMPI PUSH2 0x14D0 PUSH2 0x2A5A JUMP JUMPDEST DUP2 MSTORE DUP2 SLOAD PUSH1 0x20 SWAP1 SWAP2 ADD SWAP1 PUSH2 0x100 SWAP1 DIV PUSH1 0xFF AND PUSH1 0x3 DUP2 GT ISZERO PUSH2 0x14F3 JUMPI PUSH2 0x14F3 PUSH2 0x2A5A JUMP JUMPDEST PUSH1 0x3 DUP2 GT ISZERO PUSH2 0x1504 JUMPI PUSH2 0x1504 PUSH2 0x2A5A JUMP JUMPDEST DUP2 MSTORE DUP2 SLOAD PUSH2 0xFFFF PUSH3 0x10000 DUP3 DIV DUP2 AND PUSH1 0x20 DUP5 ADD MSTORE PUSH1 0x1 PUSH1 0x20 SHL DUP3 DIV DUP2 AND PUSH1 0x40 DUP5 ADD MSTORE PUSH1 0x1 PUSH1 0x30 SHL DUP3 DIV DUP2 AND PUSH1 0x60 DUP5 ADD MSTORE PUSH1 0x1 PUSH1 0x40 SHL DUP3 DIV DUP2 AND PUSH1 0x80 DUP5 ADD MSTORE PUSH1 0x1 PUSH1 0x50 SHL SWAP1 SWAP2 DIV AND PUSH1 0xA0 DUP3 ADD MSTORE PUSH1 0x1 DUP3 ADD SLOAD PUSH1 0xC0 DUP3 ADD MSTORE PUSH1 0x2 DUP3 ADD SLOAD PUSH1 0xE0 DUP3 ADD MSTORE PUSH1 0x3 DUP3 ADD SLOAD PUSH2 0x100 DUP3 ADD MSTORE PUSH1 0x4 DUP3 ADD SLOAD PUSH2 0x120 DUP3 ADD MSTORE PUSH1 0x5 DUP3 ADD SLOAD PUSH2 0x140 DUP3 ADD MSTORE PUSH1 0x6 DUP3 ADD SLOAD PUSH2 0x160 DUP3 ADD MSTORE PUSH1 0x7 DUP3 ADD SLOAD PUSH2 0x180 DUP3 ADD MSTORE PUSH1 0x8 DUP3 ADD SLOAD PUSH2 0x1A0 DUP3 ADD MSTORE PUSH1 0x9 SWAP1 SWAP2 ADD SLOAD PUSH2 0x1C0 SWAP1 SWAP2 ADD MSTORE SWAP3 SWAP2 POP POP JUMP JUMPDEST PUSH1 0x1 SLOAD PUSH1 0x1 PUSH1 0x1 PUSH1 0xA0 SHL SUB AND CALLER EQ PUSH2 0x15E3 JUMPI PUSH1 0x40 MLOAD PUSH3 0x461BCD PUSH1 0xE5 SHL DUP2 MSTORE PUSH1 0x4 ADD PUSH2 0x6D3 SWAP1 PUSH2 0x3065 JUMP JUMPDEST PUSH1 0x3 DUP1 SLOAD PUSH1 0x1 PUSH1 0x1 PUSH1 0xA0 SHL SUB NOT AND PUSH1 0x1 PUSH1 0x1 PUSH1 0xA0 SHL SUB SWAP3 SWAP1 SWAP3 AND SWAP2 SWAP1 SWAP2 OR SWAP1 SSTORE JUMP JUMPDEST PUSH1 0x1 SLOAD PUSH1 0x1 PUSH1 0x1 PUSH1 0xA0 SHL SUB AND CALLER EQ PUSH2 0x162F JUMPI PUSH1 0x40 MLOAD PUSH3 0x461BCD PUSH1 0xE5 SHL DUP2 MSTORE PUSH1 0x4 ADD PUSH2 0x6D3 SWAP1 PUSH2 0x3065 JUMP JUMPDEST PUSH1 0x40 MLOAD PUSH4 0x1759616B PUSH1 0xE1 SHL DUP2 MSTORE PUSH1 0x1 PUSH1 0x1 PUSH1 0xA0 SHL SUB DUP5 AND SWAP1 PUSH4 0x2EB2C2D6 SWAP1 PUSH2 0x1661 SWAP1 ADDRESS SWAP1 CALLER SWAP1 DUP8 SWAP1 DUP8 SWAP1 PUSH1 0x4 ADD PUSH2 0x3153 JUMP JUMPDEST PUSH1 0x0 PUSH1 0x40 MLOAD DUP1 DUP4 SUB DUP2 PUSH1 0x0 DUP8 DUP1 EXTCODESIZE ISZERO DUP1 ISZERO PUSH2 0x167B JUMPI PUSH1 0x0 DUP1 REVERT JUMPDEST POP GAS CALL ISZERO DUP1 ISZERO PUSH2 0x168F JUMPI RETURNDATASIZE PUSH1 0x0 DUP1 RETURNDATACOPY RETURNDATASIZE PUSH1 0x0 REVERT JUMPDEST POP POP POP POP POP POP POP JUMP JUMPDEST PUSH1 0x1 SLOAD PUSH1 0x1 PUSH1 0x1 PUSH1 0xA0 SHL SUB AND CALLER EQ PUSH2 0x16C2 JUMPI PUSH1 0x40 MLOAD PUSH3 0x461BCD PUSH1 0xE5 SHL DUP2 MSTORE PUSH1 0x4 ADD PUSH2 0x6D3 SWAP1 PUSH2 0x3065 JUMP JUMPDEST PUSH1 0x40 MLOAD PUSH4 0xA9059CBB PUSH1 0xE0 SHL DUP2 MSTORE CALLER PUSH1 0x4 DUP3 ADD MSTORE PUSH1 0x24 DUP2 ADD DUP3 SWAP1 MSTORE PUSH1 0x1 PUSH1 0x1 PUSH1 0xA0 SHL SUB DUP4 AND SWAP1 PUSH4 0xA9059CBB SWAP1 PUSH1 0x44 ADD PUSH1 0x20 PUSH1 0x40 MLOAD DUP1 DUP4 SUB DUP2 PUSH1 0x0 DUP8 GAS CALL ISZERO DUP1 ISZERO PUSH2 0x170F JUMPI RETURNDATASIZE PUSH1 0x0 DUP1 RETURNDATACOPY RETURNDATASIZE PUSH1 0x0 REVERT JUMPDEST POP POP POP POP PUSH1 0x40 MLOAD RETURNDATASIZE PUSH1 0x1F NOT PUSH1 0x1F DUP3 ADD AND DUP3 ADD DUP1 PUSH1 0x40 MSTORE POP DUP2 ADD SWAP1 PUSH2 0x1733 SWAP2 SWAP1 PUSH2 0x3048 JUMP JUMPDEST POP POP POP JUMP JUMPDEST PUSH2 0x1741 CALLER PUSH2 0x27B JUMP JUMPDEST PUSH2 0x175D JUMPI PUSH1 0x40 MLOAD PUSH3 0x461BCD PUSH1 0xE5 SHL DUP2 MSTORE PUSH1 0x4 ADD PUSH2 0x6D3 SWAP1 PUSH2 0x30A7 JUMP JUMPDEST PUSH2 0xFFFF DUP6 AND PUSH1 0x0 SWAP1 DUP2 MSTORE PUSH1 0x6 PUSH1 0x20 MSTORE PUSH1 0x40 DUP1 DUP3 KECCAK256 DUP2 MLOAD PUSH2 0x200 DUP2 ADD SWAP1 SWAP3 MSTORE DUP1 SLOAD DUP3 SWAP1 PUSH1 0xFF AND PUSH1 0x1 DUP2 GT ISZERO PUSH2 0x1793 JUMPI PUSH2 0x1793 PUSH2 0x2A5A JUMP JUMPDEST PUSH1 0x1 DUP2 GT ISZERO PUSH2 0x17A4 JUMPI PUSH2 0x17A4 PUSH2 0x2A5A JUMP JUMPDEST DUP2 MSTORE DUP2 SLOAD PUSH1 0x20 SWAP1 SWAP2 ADD SWAP1 PUSH2 0x100 SWAP1 DIV PUSH1 0xFF AND PUSH1 0x3 DUP2 GT ISZERO PUSH2 0x17C7 JUMPI PUSH2 0x17C7 PUSH2 0x2A5A JUMP JUMPDEST PUSH1 0x3 DUP2 GT ISZERO PUSH2 0x17D8 JUMPI PUSH2 0x17D8 PUSH2 0x2A5A JUMP JUMPDEST DUP2 MSTORE DUP2 SLOAD PUSH2 0xFFFF PUSH3 0x10000 DUP3 DIV DUP2 AND PUSH1 0x20 DUP5 ADD MSTORE PUSH1 0x1 PUSH1 0x20 SHL DUP3 DIV DUP2 AND PUSH1 0x40 DUP1 DUP6 ADD SWAP2 SWAP1 SWAP2 MSTORE PUSH1 0x1 PUSH1 0x30 SHL DUP4 DIV DUP3 AND PUSH1 0x60 DUP6 ADD MSTORE PUSH1 0x1 PUSH1 0x40 SHL DUP4 DIV DUP3 AND PUSH1 0x80 DUP6 ADD MSTORE PUSH1 0x1 PUSH1 0x50 SHL SWAP1 SWAP3 DIV DUP2 AND PUSH1 0xA0 DUP5 ADD MSTORE PUSH1 0x1 DUP5 ADD SLOAD PUSH1 0xC0 DUP5 ADD MSTORE PUSH1 0x2 DUP5 ADD SLOAD PUSH1 0xE0 DUP5 ADD MSTORE PUSH1 0x3 DUP5 ADD SLOAD PUSH2 0x100 DUP5 ADD MSTORE PUSH1 0x4 DUP5 ADD SLOAD PUSH2 0x120 DUP5 ADD MSTORE PUSH1 0x5 DUP5 ADD SLOAD PUSH2 0x140 DUP5 ADD MSTORE PUSH1 0x6 DUP5 ADD SLOAD PUSH2 0x160 DUP5 ADD MSTORE PUSH1 0x7 DUP5 ADD SLOAD PUSH2 0x180 DUP5 ADD MSTORE PUSH1 0x8 DUP5 ADD SLOAD PUSH2 0x1A0 DUP5 ADD MSTORE PUSH1 0x9 SWAP1 SWAP4 ADD SLOAD PUSH2 0x1C0 SWAP1 SWAP3 ADD SWAP2 SWAP1 SWAP2 MSTORE DUP3 ADD MLOAD SWAP2 SWAP3 POP AND PUSH2 0x18D9 JUMPI PUSH1 0x40 MLOAD PUSH3 0x461BCD PUSH1 0xE5 SHL DUP2 MSTORE PUSH1 0x20 PUSH1 0x4 DUP3 ADD MSTORE PUSH1 0x14 PUSH1 0x24 DUP3 ADD MSTORE PUSH20 0x125B9D985B1A590818DA185B1B195B99D9481A59 PUSH1 0x62 SHL PUSH1 0x44 DUP3 ADD MSTORE PUSH1 0x64 ADD PUSH2 0x6D3 JUMP JUMPDEST TIMESTAMP DUP2 PUSH2 0x100 ADD MLOAD LT PUSH2 0x1921 JUMPI PUSH1 0x40 MLOAD PUSH3 0x461BCD PUSH1 0xE5 SHL DUP2 MSTORE PUSH1 0x20 PUSH1 0x4 DUP3 ADD MSTORE PUSH1 0x11 PUSH1 0x24 DUP3 ADD MSTORE PUSH17 0x10DA185B1B195B99D9481B9BDD08195B99 PUSH1 0x7A SHL PUSH1 0x44 DUP3 ADD MSTORE PUSH1 0x64 ADD PUSH2 0x6D3 JUMP JUMPDEST DUP2 PUSH1 0x0 DUP2 SWAP1 SUB PUSH2 0x192E JUMPI POP TIMESTAMP JUMPDEST PUSH2 0x120 DUP3 ADD DUP2 SWAP1 MSTORE PUSH1 0x20 DUP3 ADD DUP7 PUSH1 0x3 DUP2 GT ISZERO PUSH2 0x194C JUMPI PUSH2 0x194C PUSH2 0x2A5A JUMP JUMPDEST SWAP1 DUP2 PUSH1 0x3 DUP2 GT ISZERO PUSH2 0x195F JUMPI PUSH2 0x195F PUSH2 0x2A5A JUMP JUMPDEST SWAP1 MSTORE POP PUSH2 0xFFFF DUP8 AND PUSH1 0x0 SWAP1 DUP2 MSTORE PUSH1 0x6 PUSH1 0x20 MSTORE PUSH1 0x40 SWAP1 KECCAK256 DUP3 MLOAD DUP2 SLOAD DUP5 SWAP3 SWAP2 SWAP1 DUP3 SWAP1 PUSH1 0xFF NOT AND PUSH1 0x1 DUP4 DUP2 DUP2 GT ISZERO PUSH2 0x1996 JUMPI PUSH2 0x1996 PUSH2 0x2A5A JUMP JUMPDEST MUL OR SWAP1 SSTORE POP PUSH1 0x20 DUP3 ADD MLOAD DUP2 SLOAD DUP3 SWAP1 PUSH2 0xFF00 NOT AND PUSH2 0x100 DUP4 PUSH1 0x3 DUP2 GT ISZERO PUSH2 0x19BE JUMPI PUSH2 0x19BE PUSH2 0x2A5A JUMP JUMPDEST MUL OR SWAP1 SSTORE POP PUSH1 0x40 DUP3 DUP2 ADD MLOAD DUP3 SLOAD PUSH1 0x60 DUP6 ADD MLOAD PUSH1 0x80 DUP7 ADD MLOAD PUSH1 0xA0 DUP1 DUP9 ADD MLOAD PUSH1 0xC0 DUP1 DUP11 ADD MLOAD PUSH2 0xFFFF SWAP1 DUP2 AND PUSH1 0x1 PUSH1 0x50 SHL MUL PUSH2 0xFFFF PUSH1 0x50 SHL NOT SWAP4 DUP3 AND PUSH1 0x1 PUSH1 0x40 SHL MUL PUSH2 0xFFFF PUSH1 0x40 SHL NOT SWAP7 DUP4 AND PUSH1 0x1 PUSH1 0x30 SHL MUL SWAP7 SWAP1 SWAP7 AND PUSH4 0xFFFFFFFF PUSH1 0x30 SHL NOT SWAP8 DUP4 AND PUSH1 0x1 PUSH1 0x20 SHL MUL PUSH6 0xFFFF00000000 NOT SWAP11 DUP5 AND PUSH3 0x10000 MUL SWAP11 SWAP1 SWAP11 AND PUSH6 0xFFFFFFFF0000 NOT SWAP1 SWAP10 AND SWAP9 SWAP1 SWAP9 OR SWAP9 SWAP1 SWAP9 OR SWAP6 SWAP1 SWAP6 AND SWAP6 SWAP1 SWAP6 OR SWAP3 SWAP1 SWAP3 OR SWAP2 SWAP1 SWAP2 AND SWAP4 SWAP1 SWAP4 OR DUP6 SSTORE PUSH1 0xE0 DUP7 ADD MLOAD PUSH1 0x1 DUP7 ADD SSTORE PUSH2 0x100 DUP7 ADD MLOAD PUSH1 0x2 DUP7 ADD SSTORE PUSH2 0x120 DUP7 ADD MLOAD PUSH1 0x3 DUP7 ADD SSTORE PUSH2 0x140 DUP7 ADD MLOAD PUSH1 0x4 DUP7 ADD SSTORE PUSH2 0x160 DUP7 ADD MLOAD PUSH1 0x5 DUP7 ADD SSTORE PUSH2 0x180 DUP7 ADD MLOAD PUSH1 0x6 DUP7 ADD SSTORE PUSH2 0x1A0 DUP7 ADD MLOAD PUSH1 0x7 DUP7 ADD SSTORE PUSH2 0x1C0 DUP7 ADD MLOAD PUSH1 0x8 DUP7 ADD SSTORE PUSH2 0x1E0 SWAP1 SWAP6 ADD MLOAD PUSH1 0x9 SWAP1 SWAP5 ADD SWAP4 SWAP1 SWAP4 SSTORE DUP9 DUP5 AND SWAP1 DUP7 ADD MSTORE SWAP2 DUP7 AND SWAP1 DUP5 ADD MSTORE MLOAD CALLER SWAP1 PUSH32 0x1ACB64D3EBB767D2765A1017DE95477FDAE850818341520212226D00F1CBB24A SWAP1 PUSH2 0xB45 SWAP1 DUP11 SWAP1 DUP10 SWAP1 DUP10 SWAP1 DUP13 SWAP1 DUP9 SWAP1 PUSH2 0x31AE JUMP JUMPDEST PUSH1 0x0 DUP2 GT PUSH2 0x1B4E JUMPI PUSH1 0x40 MLOAD PUSH3 0x461BCD PUSH1 0xE5 SHL DUP2 MSTORE PUSH1 0x20 PUSH1 0x4 DUP3 ADD MSTORE PUSH1 0xE PUSH1 0x24 DUP3 ADD MSTORE PUSH14 0x416D6F756E74206973207A65726F PUSH1 0x90 SHL PUSH1 0x44 DUP3 ADD MSTORE PUSH1 0x64 ADD PUSH2 0x6D3 JUMP JUMPDEST PUSH1 0x0 DUP4 PUSH1 0x3 DUP2 GT ISZERO PUSH2 0x1B62 JUMPI PUSH2 0x1B62 PUSH2 0x2A5A JUMP JUMPDEST SUB PUSH2 0x1BA3 JUMPI PUSH1 0x40 MLOAD PUSH3 0x461BCD PUSH1 0xE5 SHL DUP2 MSTORE PUSH1 0x20 PUSH1 0x4 DUP3 ADD MSTORE PUSH1 0x11 PUSH1 0x24 DUP3 ADD MSTORE PUSH17 0x15185C99D95D0818D85B9D081393D35053 PUSH1 0x7A SHL PUSH1 0x44 DUP3 ADD MSTORE PUSH1 0x64 ADD PUSH2 0x6D3 JUMP JUMPDEST PUSH2 0xFFFF DUP5 AND PUSH1 0x0 SWAP1 DUP2 MSTORE PUSH1 0x6 PUSH1 0x20 MSTORE PUSH1 0x40 DUP1 DUP3 KECCAK256 DUP2 MLOAD PUSH2 0x200 DUP2 ADD SWAP1 SWAP3 MSTORE DUP1 SLOAD DUP3 SWAP1 PUSH1 0xFF AND PUSH1 0x1 DUP2 GT ISZERO PUSH2 0x1BD9 JUMPI PUSH2 0x1BD9 PUSH2 0x2A5A JUMP JUMPDEST PUSH1 0x1 DUP2 GT ISZERO PUSH2 0x1BEA JUMPI PUSH2 0x1BEA PUSH2 0x2A5A JUMP JUMPDEST DUP2 MSTORE DUP2 SLOAD PUSH1 0x20 SWAP1 SWAP2 ADD SWAP1 PUSH2 0x100 SWAP1 DIV PUSH1 0xFF AND PUSH1 0x3 DUP2 GT ISZERO PUSH2 0x1C0D JUMPI PUSH2 0x1C0D PUSH2 0x2A5A JUMP JUMPDEST PUSH1 0x3 DUP2 GT ISZERO PUSH2 0x1C1E JUMPI PUSH2 0x1C1E PUSH2 0x2A5A JUMP JUMPDEST DUP2 MSTORE DUP2 SLOAD PUSH2 0xFFFF PUSH3 0x10000 DUP3 DIV DUP2 AND PUSH1 0x20 DUP5 ADD MSTORE PUSH1 0x1 PUSH1 0x20 SHL DUP3 DIV DUP2 AND PUSH1 0x40 DUP1 DUP6 ADD SWAP2 SWAP1 SWAP2 MSTORE PUSH1 0x1 PUSH1 0x30 SHL DUP4 DIV DUP3 AND PUSH1 0x60 DUP6 ADD MSTORE PUSH1 0x1 PUSH1 0x40 SHL DUP4 DIV DUP3 AND PUSH1 0x80 DUP6 ADD MSTORE PUSH1 0x1 PUSH1 0x50 SHL SWAP1 SWAP3 DIV DUP2 AND PUSH1 0xA0 DUP5 ADD MSTORE PUSH1 0x1 DUP5 ADD SLOAD PUSH1 0xC0 DUP5 ADD MSTORE PUSH1 0x2 DUP5 ADD SLOAD PUSH1 0xE0 DUP5 ADD MSTORE PUSH1 0x3 DUP5 ADD SLOAD PUSH2 0x100 DUP5 ADD MSTORE PUSH1 0x4 DUP5 ADD SLOAD PUSH2 0x120 DUP5 ADD MSTORE PUSH1 0x5 DUP5 ADD SLOAD PUSH2 0x140 DUP5 ADD MSTORE PUSH1 0x6 DUP5 ADD SLOAD PUSH2 0x160 DUP5 ADD MSTORE PUSH1 0x7 DUP5 ADD SLOAD PUSH2 0x180 DUP5 ADD MSTORE PUSH1 0x8 DUP5 ADD SLOAD PUSH2 0x1A0 DUP5 ADD MSTORE PUSH1 0x9 SWAP1 SWAP4 ADD SLOAD PUSH2 0x1C0 SWAP1 SWAP3 ADD SWAP2 SWAP1 SWAP2 MSTORE DUP3 ADD MLOAD SWAP2 SWAP3 POP AND PUSH1 0x0 SUB PUSH2 0x1D16 JUMPI PUSH1 0x40 MLOAD PUSH3 0x461BCD PUSH1 0xE5 SHL DUP2 MSTORE PUSH1 0x20 PUSH1 0x4 DUP3 ADD MSTORE PUSH1 0x8 PUSH1 0x24 DUP3 ADD MSTORE PUSH8 0x24B21032B93937B9 PUSH1 0xC1 SHL PUSH1 0x44 DUP3 ADD MSTORE PUSH1 0x64 ADD PUSH2 0x6D3 JUMP JUMPDEST TIMESTAMP DUP2 PUSH1 0xE0 ADD MLOAD GT ISZERO PUSH2 0x1D60 JUMPI PUSH1 0x40 MLOAD PUSH3 0x461BCD PUSH1 0xE5 SHL DUP2 MSTORE PUSH1 0x20 PUSH1 0x4 DUP3 ADD MSTORE PUSH1 0x13 PUSH1 0x24 DUP3 ADD MSTORE PUSH19 0x10DA185B1B195B99D9481B9BDD081CDD185C9D PUSH1 0x6A SHL PUSH1 0x44 DUP3 ADD MSTORE PUSH1 0x64 ADD PUSH2 0x6D3 JUMP JUMPDEST TIMESTAMP DUP2 PUSH2 0x100 ADD MLOAD GT PUSH2 0x1DA7 JUMPI PUSH1 0x40 MLOAD PUSH3 0x461BCD PUSH1 0xE5 SHL DUP2 MSTORE PUSH1 0x20 PUSH1 0x4 DUP3 ADD MSTORE PUSH1 0x10 PUSH1 0x24 DUP3 ADD MSTORE PUSH16 0x10DA185B1B195B99D9481A5CC8195B99 PUSH1 0x82 SHL PUSH1 0x44 DUP3 ADD MSTORE PUSH1 0x64 ADD PUSH2 0x6D3 JUMP JUMPDEST DUP1 PUSH2 0x100 ADD MLOAD DUP2 PUSH1 0xE0 ADD MLOAD LT PUSH2 0x1E0A JUMPI PUSH1 0x40 MLOAD PUSH3 0x461BCD PUSH1 0xE5 SHL DUP2 MSTORE PUSH1 0x20 PUSH1 0x4 DUP3 ADD MSTORE PUSH1 0x22 PUSH1 0x24 DUP3 ADD MSTORE PUSH32 0x53746172742074696D65206D757374206C657373207468616E20656E64207469 PUSH1 0x44 DUP3 ADD MSTORE PUSH2 0x6D65 PUSH1 0xF0 SHL PUSH1 0x64 DUP3 ADD MSTORE PUSH1 0x84 ADD PUSH2 0x6D3 JUMP JUMPDEST DUP3 DUP2 PUSH2 0x140 ADD MLOAD EQ DUP1 PUSH2 0x1E21 JUMPI POP DUP3 DUP2 PUSH2 0x160 ADD MLOAD EQ JUMPDEST PUSH2 0x1E6D JUMPI PUSH1 0x40 MLOAD PUSH3 0x461BCD PUSH1 0xE5 SHL DUP2 MSTORE PUSH1 0x20 PUSH1 0x4 DUP3 ADD MSTORE PUSH1 0x19 PUSH1 0x24 DUP3 ADD MSTORE PUSH32 0x546F6B656E206964206E6F7420696E206368616C6C656E676500000000000000 PUSH1 0x44 DUP3 ADD MSTORE PUSH1 0x64 ADD PUSH2 0x6D3 JUMP JUMPDEST PUSH1 0x1 DUP2 MLOAD PUSH1 0x1 DUP2 GT ISZERO PUSH2 0x1E82 JUMPI PUSH2 0x1E82 PUSH2 0x2A5A JUMP JUMPDEST SUB PUSH2 0x1EF3 JUMPI PUSH1 0x1 DUP5 PUSH1 0x3 DUP2 GT ISZERO PUSH2 0x1E9B JUMPI PUSH2 0x1E9B PUSH2 0x2A5A JUMP JUMPDEST EQ DUP1 PUSH2 0x1EB8 JUMPI POP PUSH1 0x3 DUP5 PUSH1 0x3 DUP2 GT ISZERO PUSH2 0x1EB6 JUMPI PUSH2 0x1EB6 PUSH2 0x2A5A JUMP JUMPDEST EQ JUMPDEST PUSH2 0x1EF3 JUMPI PUSH1 0x40 MLOAD PUSH3 0x461BCD PUSH1 0xE5 SHL DUP2 MSTORE PUSH1 0x20 PUSH1 0x4 DUP3 ADD MSTORE PUSH1 0xC PUSH1 0x24 DUP3 ADD MSTORE PUSH12 0x2A30B933B2BA1032B93937B9 PUSH1 0xA1 SHL PUSH1 0x44 DUP3 ADD MSTORE PUSH1 0x64 ADD PUSH2 0x6D3 JUMP JUMPDEST PUSH1 0x1 DUP5 PUSH1 0x3 DUP2 GT ISZERO PUSH2 0x1F07 JUMPI PUSH2 0x1F07 PUSH2 0x2A5A JUMP JUMPDEST SUB PUSH2 0x1F60 JUMPI DUP1 PUSH2 0x140 ADD MLOAD DUP4 EQ PUSH2 0x1F60 JUMPI PUSH1 0x40 MLOAD PUSH3 0x461BCD PUSH1 0xE5 SHL DUP2 MSTORE PUSH1 0x20 PUSH1 0x4 DUP3 ADD MSTORE PUSH1 0x1C PUSH1 0x24 DUP3 ADD MSTORE PUSH32 0x746F6B656E496420616E6420746172676574206E6F74206D6174636800000000 PUSH1 0x44 DUP3 ADD MSTORE PUSH1 0x64 ADD PUSH2 0x6D3 JUMP JUMPDEST PUSH1 0x3 DUP5 PUSH1 0x3 DUP2 GT ISZERO PUSH2 0x1F74 JUMPI PUSH2 0x1F74 PUSH2 0x2A5A JUMP JUMPDEST SUB PUSH2 0x1FCD JUMPI DUP1 PUSH2 0x160 ADD MLOAD DUP4 EQ PUSH2 0x1FCD JUMPI PUSH1 0x40 MLOAD PUSH3 0x461BCD PUSH1 0xE5 SHL DUP2 MSTORE PUSH1 0x20 PUSH1 0x4 DUP3 ADD MSTORE PUSH1 0x1C PUSH1 0x24 DUP3 ADD MSTORE PUSH32 0x746F6B656E496420616E6420746172676574206E6F74206D6174636800000000 PUSH1 0x44 DUP3 ADD MSTORE PUSH1 0x64 ADD PUSH2 0x6D3 JUMP JUMPDEST PUSH1 0x2 SLOAD PUSH1 0x40 MLOAD PUSH4 0x79212195 PUSH1 0xE1 SHL DUP2 MSTORE PUSH1 0x1 PUSH1 0x1 PUSH1 0xA0 SHL SUB SWAP1 SWAP2 AND SWAP1 PUSH4 0xF242432A SWAP1 PUSH2 0x2003 SWAP1 CALLER SWAP1 ADDRESS SWAP1 DUP9 SWAP1 DUP9 SWAP1 PUSH1 0x4 ADD PUSH2 0x2F9B JUMP JUMPDEST PUSH1 0x0 PUSH1 0x40 MLOAD DUP1 DUP4 SUB DUP2 PUSH1 0x0 DUP8 DUP1 EXTCODESIZE ISZERO DUP1 ISZERO PUSH2 0x201D JUMPI PUSH1 0x0 DUP1 REVERT JUMPDEST POP GAS CALL ISZERO DUP1 ISZERO PUSH2 0x2031 JUMPI RETURNDATASIZE PUSH1 0x0 DUP1 RETURNDATACOPY RETURNDATASIZE PUSH1 0x0 REVERT JUMPDEST POP POP CALLER PUSH1 0x0 DUP2 DUP2 MSTORE PUSH1 0x7 PUSH1 0x20 SWAP1 DUP2 MSTORE PUSH1 0x40 DUP1 DUP4 KECCAK256 PUSH2 0xFFFF DUP13 AND DUP1 DUP6 MSTORE SWAP1 DUP4 MSTORE DUP2 DUP5 KECCAK256 DUP3 MLOAD PUSH1 0xC0 DUP2 ADD DUP5 MSTORE PUSH1 0x1 DUP3 ADD SLOAD DUP2 DUP7 ADD MSTORE PUSH1 0x2 DUP3 ADD SLOAD DUP2 DUP6 ADD MSTORE PUSH1 0x3 DUP3 ADD SLOAD PUSH1 0x60 DUP3 ADD MSTORE PUSH1 0x4 DUP3 ADD SLOAD PUSH1 0x80 DUP3 ADD MSTORE PUSH1 0x5 SWAP1 SWAP2 ADD SLOAD PUSH1 0xFF AND ISZERO ISZERO PUSH1 0xA0 DUP3 ADD MSTORE DUP2 DUP2 MSTORE SWAP5 DUP5 MSTORE PUSH1 0x8 SWAP1 SWAP3 MSTORE SWAP1 SWAP2 KECCAK256 SWAP2 SWAP4 POP PUSH2 0x20AC SWAP3 POP PUSH2 0x27BF JUMP JUMPDEST POP PUSH1 0x1 DUP6 PUSH1 0x3 DUP2 GT ISZERO PUSH2 0x20C1 JUMPI PUSH2 0x20C1 PUSH2 0x2A5A JUMP JUMPDEST SUB PUSH2 0x2155 JUMPI DUP2 PUSH2 0x140 ADD MLOAD DUP5 EQ PUSH2 0x210E JUMPI PUSH1 0x40 MLOAD PUSH3 0x461BCD PUSH1 0xE5 SHL DUP2 MSTORE PUSH1 0x20 PUSH1 0x4 DUP3 ADD MSTORE PUSH1 0x11 PUSH1 0x24 DUP3 ADD MSTORE PUSH17 0xA8DED6CADC40D2C840DCDEE840DAEAC6D PUSH1 0x7B SHL PUSH1 0x44 DUP3 ADD MSTORE PUSH1 0x64 ADD PUSH2 0x6D3 JUMP JUMPDEST PUSH2 0xFFFF DUP7 AND PUSH1 0x0 SWAP1 DUP2 MSTORE PUSH1 0x6 PUSH1 0x20 DUP2 SWAP1 MSTORE PUSH1 0x40 DUP3 KECCAK256 ADD DUP1 SLOAD DUP6 SWAP3 SWAP1 PUSH2 0x2134 SWAP1 DUP5 SWAP1 PUSH2 0x2FE9 JUMP JUMPDEST SWAP3 POP POP DUP2 SWAP1 SSTORE POP DUP3 DUP2 PUSH1 0x20 ADD DUP2 DUP2 MLOAD PUSH2 0x214D SWAP2 SWAP1 PUSH2 0x2FE9 JUMP JUMPDEST SWAP1 MSTORE POP PUSH2 0x223B JUMP JUMPDEST PUSH1 0x3 DUP6 PUSH1 0x3 DUP2 GT ISZERO PUSH2 0x2169 JUMPI PUSH2 0x2169 PUSH2 0x2A5A JUMP JUMPDEST SUB PUSH2 0x21AD JUMPI PUSH2 0xFFFF DUP7 AND PUSH1 0x0 SWAP1 DUP2 MSTORE PUSH1 0x6 PUSH1 0x20 MSTORE PUSH1 0x40 DUP2 KECCAK256 PUSH1 0x7 ADD DUP1 SLOAD DUP6 SWAP3 SWAP1 PUSH2 0x2194 SWAP1 DUP5 SWAP1 PUSH2 0x2FE9 JUMP JUMPDEST SWAP3 POP POP DUP2 SWAP1 SSTORE POP DUP3 DUP2 PUSH1 0x40 ADD DUP2 DUP2 MLOAD PUSH2 0x214D SWAP2 SWAP1 PUSH2 0x2FE9 JUMP JUMPDEST DUP2 PUSH2 0x140 ADD MLOAD DUP5 SUB PUSH2 0x21F8 JUMPI PUSH2 0xFFFF DUP7 AND PUSH1 0x0 SWAP1 DUP2 MSTORE PUSH1 0x6 PUSH1 0x20 MSTORE PUSH1 0x40 DUP2 KECCAK256 PUSH1 0x8 ADD DUP1 SLOAD DUP6 SWAP3 SWAP1 PUSH2 0x21DF SWAP1 DUP5 SWAP1 PUSH2 0x2FE9 JUMP JUMPDEST SWAP3 POP POP DUP2 SWAP1 SSTORE POP DUP3 DUP2 PUSH1 0x60 ADD DUP2 DUP2 MLOAD PUSH2 0x214D SWAP2 SWAP1 PUSH2 0x2FE9 JUMP JUMPDEST PUSH2 0xFFFF DUP7 AND PUSH1 0x0 SWAP1 DUP2 MSTORE PUSH1 0x6 PUSH1 0x20 MSTORE PUSH1 0x40 DUP2 KECCAK256 PUSH1 0x9 ADD DUP1 SLOAD DUP6 SWAP3 SWAP1 PUSH2 0x221E SWAP1 DUP5 SWAP1 PUSH2 0x2FE9 JUMP JUMPDEST SWAP3 POP POP DUP2 SWAP1 SSTORE POP DUP3 DUP2 PUSH1 0x80 ADD DUP2 DUP2 MLOAD PUSH2 0x2237 SWAP2 SWAP1 PUSH2 0x2FE9 JUMP JUMPDEST SWAP1 MSTORE POP JUMPDEST CALLER PUSH1 0x0 DUP2 DUP2 MSTORE PUSH1 0x7 PUSH1 0x20 SWAP1 DUP2 MSTORE PUSH1 0x40 DUP1 DUP4 KECCAK256 PUSH2 0xFFFF DUP12 DUP2 AND DUP6 MSTORE SWAP1 DUP4 MSTORE SWAP3 DUP2 SWAP1 KECCAK256 DUP6 MLOAD DUP2 SLOAD PUSH2 0xFFFF NOT AND SWAP5 AND SWAP4 SWAP1 SWAP4 OR DUP4 SSTORE SWAP1 DUP5 ADD MLOAD PUSH1 0x1 DUP4 ADD SSTORE DUP4 DUP2 ADD MLOAD PUSH1 0x2 DUP4 ADD SSTORE PUSH1 0x60 DUP5 ADD MLOAD PUSH1 0x3 DUP4 ADD SSTORE PUSH1 0x80 DUP5 ADD MLOAD PUSH1 0x4 DUP4 ADD SSTORE PUSH1 0xA0 DUP5 ADD MLOAD PUSH1 0x5 SWAP1 SWAP3 ADD DUP1 SLOAD PUSH1 0xFF NOT AND SWAP3 ISZERO ISZERO SWAP3 SWAP1 SWAP3 OR SWAP1 SWAP2 SSTORE MLOAD PUSH32 0x90267CA1AF3949590CAE48E112B0C82D8E0CD1C0B254FAAF8F35228BC2F3DAE5 SWAP1 PUSH2 0x22E1 SWAP1 DUP10 SWAP1 DUP10 SWAP1 DUP10 SWAP1 DUP10 SWAP1 PUSH2 0x31E6 JUMP JUMPDEST PUSH1 0x40 MLOAD DUP1 SWAP2 SUB SWAP1 LOG2 POP POP POP POP POP POP JUMP JUMPDEST PUSH1 0x1 SLOAD PUSH1 0x1 PUSH1 0x1 PUSH1 0xA0 SHL SUB AND CALLER EQ PUSH2 0x231B JUMPI PUSH1 0x40 MLOAD PUSH3 0x461BCD PUSH1 0xE5 SHL DUP2 MSTORE PUSH1 0x4 ADD PUSH2 0x6D3 SWAP1 PUSH2 0x3065 JUMP JUMPDEST PUSH1 0x1 PUSH1 0x1 PUSH1 0xA0 SHL SUB DUP2 AND PUSH2 0x2380 JUMPI PUSH1 0x40 MLOAD PUSH3 0x461BCD PUSH1 0xE5 SHL DUP2 MSTORE PUSH1 0x20 PUSH1 0x4 DUP3 ADD MSTORE PUSH1 0x26 PUSH1 0x24 DUP3 ADD MSTORE PUSH32 0x4F776E61626C653A206E6577206F776E657220697320746865207A65726F2061 PUSH1 0x44 DUP3 ADD MSTORE PUSH6 0x646472657373 PUSH1 0xD0 SHL PUSH1 0x64 DUP3 ADD MSTORE PUSH1 0x84 ADD PUSH2 0x6D3 JUMP JUMPDEST PUSH2 0x2389 DUP2 PUSH2 0x276D JUMP JUMPDEST POP JUMP JUMPDEST PUSH1 0x1 SLOAD PUSH1 0x1 PUSH1 0x1 PUSH1 0xA0 SHL SUB AND CALLER EQ PUSH2 0x23B6 JUMPI PUSH1 0x40 MLOAD PUSH3 0x461BCD PUSH1 0xE5 SHL DUP2 MSTORE PUSH1 0x4 ADD PUSH2 0x6D3 SWAP1 PUSH2 0x3065 JUMP JUMPDEST PUSH1 0x5 SSTORE JUMP JUMPDEST PUSH2 0x23C4 CALLER PUSH2 0x27B JUMP JUMPDEST PUSH2 0x23E0 JUMPI PUSH1 0x40 MLOAD PUSH3 0x461BCD PUSH1 0xE5 SHL DUP2 MSTORE PUSH1 0x4 ADD PUSH2 0x6D3 SWAP1 PUSH2 0x30A7 JUMP JUMPDEST PUSH2 0xFFFF DUP9 AND PUSH1 0x0 SWAP1 DUP2 MSTORE PUSH1 0x6 PUSH1 0x20 MSTORE PUSH1 0x40 DUP1 DUP3 KECCAK256 DUP2 MLOAD PUSH2 0x200 DUP2 ADD SWAP1 SWAP3 MSTORE DUP1 SLOAD DUP3 SWAP1 PUSH1 0xFF AND PUSH1 0x1 DUP2 GT ISZERO PUSH2 0x2416 JUMPI PUSH2 0x2416 PUSH2 0x2A5A JUMP JUMPDEST PUSH1 0x1 DUP2 GT ISZERO PUSH2 0x2427 JUMPI PUSH2 0x2427 PUSH2 0x2A5A JUMP JUMPDEST DUP2 MSTORE DUP2 SLOAD PUSH1 0x20 SWAP1 SWAP2 ADD SWAP1 PUSH2 0x100 SWAP1 DIV PUSH1 0xFF AND PUSH1 0x3 DUP2 GT ISZERO PUSH2 0x244A JUMPI PUSH2 0x244A PUSH2 0x2A5A JUMP JUMPDEST PUSH1 0x3 DUP2 GT ISZERO PUSH2 0x245B JUMPI PUSH2 0x245B PUSH2 0x2A5A JUMP JUMPDEST DUP2 MSTORE DUP2 SLOAD PUSH2 0xFFFF PUSH3 0x10000 DUP3 DIV DUP2 AND PUSH1 0x20 DUP5 ADD MSTORE PUSH1 0x1 PUSH1 0x20 SHL DUP3 DIV DUP2 AND PUSH1 0x40 DUP1 DUP6 ADD SWAP2 SWAP1 SWAP2 MSTORE PUSH1 0x1 PUSH1 0x30 SHL DUP4 DIV DUP3 AND PUSH1 0x60 DUP6 ADD MSTORE PUSH1 0x1 PUSH1 0x40 SHL DUP4 DIV DUP3 AND PUSH1 0x80 DUP6 ADD MSTORE PUSH1 0x1 PUSH1 0x50 SHL SWAP1 SWAP3 DIV DUP2 AND PUSH1 0xA0 DUP5 ADD MSTORE PUSH1 0x1 DUP5 ADD SLOAD PUSH1 0xC0 DUP5 ADD MSTORE PUSH1 0x2 DUP5 ADD SLOAD PUSH1 0xE0 DUP5 ADD MSTORE PUSH1 0x3 DUP5 ADD SLOAD PUSH2 0x100 DUP5 ADD MSTORE PUSH1 0x4 DUP5 ADD SLOAD PUSH2 0x120 DUP5 ADD MSTORE PUSH1 0x5 DUP5 ADD SLOAD PUSH2 0x140 DUP5 ADD MSTORE PUSH1 0x6 DUP5 ADD SLOAD PUSH2 0x160 DUP5 ADD MSTORE PUSH1 0x7 DUP5 ADD SLOAD PUSH2 0x180 DUP5 ADD MSTORE PUSH1 0x8 DUP5 ADD SLOAD PUSH2 0x1A0 DUP5 ADD MSTORE PUSH1 0x9 SWAP1 SWAP4 ADD SLOAD PUSH2 0x1C0 SWAP1 SWAP3 ADD SWAP2 SWAP1 SWAP2 MSTORE DUP3 ADD MLOAD SWAP2 SWAP3 POP AND PUSH2 0x255B JUMPI PUSH1 0x40 MLOAD PUSH3 0x461BCD PUSH1 0xE5 SHL DUP2 MSTORE PUSH1 0x20 PUSH1 0x4 DUP3 ADD MSTORE PUSH1 0x13 PUSH1 0x24 DUP3 ADD MSTORE PUSH19 0x10DA185B1B195B99D9481B9BDD08199BDD5B99 PUSH1 0x6A SHL PUSH1 0x44 DUP3 ADD MSTORE PUSH1 0x64 ADD PUSH2 0x6D3 JUMP JUMPDEST DUP1 DUP9 PUSH1 0x1 DUP2 GT ISZERO PUSH2 0x256E JUMPI PUSH2 0x256E PUSH2 0x2A5A JUMP JUMPDEST SWAP1 DUP2 PUSH1 0x1 DUP2 GT ISZERO PUSH2 0x2581 JUMPI PUSH2 0x2581 PUSH2 0x2A5A JUMP JUMPDEST SWAP1 MSTORE POP PUSH2 0xFFFF DUP1 DUP9 AND PUSH1 0x60 DUP4 ADD MSTORE DUP7 DUP2 AND PUSH1 0x80 DUP4 ADD MSTORE PUSH1 0xE0 DUP3 ADD DUP7 SWAP1 MSTORE PUSH2 0x100 DUP3 ADD DUP6 SWAP1 MSTORE PUSH2 0x140 DUP3 ADD DUP5 SWAP1 MSTORE PUSH2 0x160 DUP3 ADD DUP4 SWAP1 MSTORE DUP10 AND PUSH1 0x0 SWAP1 DUP2 MSTORE PUSH1 0x6 PUSH1 0x20 MSTORE PUSH1 0x40 SWAP1 KECCAK256 DUP2 MLOAD DUP2 SLOAD DUP4 SWAP3 SWAP2 SWAP1 DUP3 SWAP1 PUSH1 0xFF NOT AND PUSH1 0x1 DUP4 DUP2 DUP2 GT ISZERO PUSH2 0x25E7 JUMPI PUSH2 0x25E7 PUSH2 0x2A5A JUMP JUMPDEST MUL OR SWAP1 SSTORE POP PUSH1 0x20 DUP3 ADD MLOAD DUP2 SLOAD DUP3 SWAP1 PUSH2 0xFF00 NOT AND PUSH2 0x100 DUP4 PUSH1 0x3 DUP2 GT ISZERO PUSH2 0x260F JUMPI PUSH2 0x260F PUSH2 0x2A5A JUMP JUMPDEST MUL OR SWAP1 SSTORE POP PUSH1 0x40 DUP3 DUP2 ADD MLOAD DUP3 SLOAD PUSH1 0x60 DUP6 ADD MLOAD PUSH1 0x80 DUP7 ADD MLOAD PUSH1 0xA0 DUP8 ADD MLOAD PUSH1 0xC0 DUP9 ADD MLOAD PUSH6 0xFFFFFFFF0000 NOT SWAP1 SWAP5 AND PUSH3 0x10000 PUSH2 0xFFFF SWAP7 DUP8 AND MUL PUSH6 0xFFFF00000000 NOT AND OR PUSH1 0x1 PUSH1 0x20 SHL SWAP4 DUP7 AND SWAP4 SWAP1 SWAP4 MUL SWAP3 SWAP1 SWAP3 OR PUSH4 0xFFFFFFFF PUSH1 0x30 SHL NOT AND PUSH1 0x1 PUSH1 0x30 SHL SWAP2 DUP6 AND SWAP2 SWAP1 SWAP2 MUL PUSH2 0xFFFF PUSH1 0x40 SHL NOT AND OR PUSH1 0x1 PUSH1 0x40 SHL SWAP2 DUP5 AND SWAP2 SWAP1 SWAP2 MUL OR PUSH2 0xFFFF PUSH1 0x50 SHL NOT AND PUSH1 0x1 PUSH1 0x50 SHL SWAP3 SWAP1 SWAP2 AND SWAP2 SWAP1 SWAP2 MUL OR DUP3 SSTORE PUSH1 0xE0 DUP4 ADD MLOAD PUSH1 0x1 DUP4 ADD SSTORE PUSH2 0x100 DUP4 ADD MLOAD PUSH1 0x2 DUP4 ADD SSTORE PUSH2 0x120 DUP4 ADD MLOAD PUSH1 0x3 DUP4 ADD SSTORE PUSH2 0x140 DUP4 ADD MLOAD PUSH1 0x4 DUP4 ADD SSTORE PUSH2 0x160 DUP4 ADD MLOAD PUSH1 0x5 DUP4 ADD SSTORE PUSH2 0x180 DUP4 ADD MLOAD PUSH1 0x6 DUP4 ADD SSTORE PUSH2 0x1A0 DUP4 ADD MLOAD PUSH1 0x7 DUP4 ADD SSTORE PUSH2 0x1C0 DUP4 ADD MLOAD PUSH1 0x8 DUP4 ADD SSTORE PUSH2 0x1E0 SWAP1 SWAP3 ADD MLOAD PUSH1 0x9 SWAP1 SWAP2 ADD SSTORE MLOAD CALLER SWAP1 PUSH32 0xD083E2EF62102A69352D39B2A9A28ACC07B62713713B386C605C70B4A1C83633 SWAP1 PUSH2 0x2746 SWAP1 DUP12 SWAP1 DUP14 SWAP1 DUP13 SWAP1 DUP13 SWAP1 DUP13 SWAP1 DUP13 SWAP1 DUP13 SWAP1 DUP13 SWAP1 PUSH2 0x310A JUMP JUMPDEST PUSH1 0x40 MLOAD DUP1 SWAP2 SUB SWAP1 LOG2 POP POP POP POP POP POP POP POP POP JUMP JUMPDEST PUSH1 0x60 PUSH1 0x0 PUSH2 0x2766 DUP4 PUSH2 0x27CB JUMP JUMPDEST SWAP4 SWAP3 POP POP POP JUMP JUMPDEST PUSH1 0x1 DUP1 SLOAD PUSH1 0x1 PUSH1 0x1 PUSH1 0xA0 SHL SUB DUP4 DUP2 AND PUSH1 0x1 PUSH1 0x1 PUSH1 0xA0 SHL SUB NOT DUP4 AND DUP2 OR SWAP1 SWAP4 SSTORE PUSH1 0x40 MLOAD SWAP2 AND SWAP2 SWAP1 DUP3 SWAP1 PUSH32 0x8BE0079C531659141344CD1FD0A4F28419497F9722A3DAAFE3B4186F6B6457E0 SWAP1 PUSH1 0x0 SWAP1 LOG3 POP POP JUMP JUMPDEST PUSH1 0x0 PUSH2 0x2766 DUP4 DUP4 PUSH2 0x2827 JUMP JUMPDEST PUSH1 0x60 DUP2 PUSH1 0x0 ADD DUP1 SLOAD DUP1 PUSH1 0x20 MUL PUSH1 0x20 ADD PUSH1 0x40 MLOAD SWAP1 DUP2 ADD PUSH1 0x40 MSTORE DUP1 SWAP3 SWAP2 SWAP1 DUP2 DUP2 MSTORE PUSH1 0x20 ADD DUP3 DUP1 SLOAD DUP1 ISZERO PUSH2 0x281B JUMPI PUSH1 0x20 MUL DUP3 ADD SWAP2 SWAP1 PUSH1 0x0 MSTORE PUSH1 0x20 PUSH1 0x0 KECCAK256 SWAP1 JUMPDEST DUP2 SLOAD DUP2 MSTORE PUSH1 0x20 ADD SWAP1 PUSH1 0x1 ADD SWAP1 DUP1 DUP4 GT PUSH2 0x2807 JUMPI JUMPDEST POP POP POP POP POP SWAP1 POP SWAP2 SWAP1 POP JUMP JUMPDEST PUSH1 0x0 DUP2 DUP2 MSTORE PUSH1 0x1 DUP4 ADD PUSH1 0x20 MSTORE PUSH1 0x40 DUP2 KECCAK256 SLOAD PUSH2 0x286E JUMPI POP DUP2 SLOAD PUSH1 0x1 DUP2 DUP2 ADD DUP5 SSTORE PUSH1 0x0 DUP5 DUP2 MSTORE PUSH1 0x20 DUP1 DUP3 KECCAK256 SWAP1 SWAP4 ADD DUP5 SWAP1 SSTORE DUP5 SLOAD DUP5 DUP3 MSTORE DUP3 DUP7 ADD SWAP1 SWAP4 MSTORE PUSH1 0x40 SWAP1 KECCAK256 SWAP2 SWAP1 SWAP2 SSTORE PUSH2 0x4F5 JUMP JUMPDEST POP PUSH1 0x0 PUSH2 0x4F5 JUMP JUMPDEST PUSH1 0x0 PUSH1 0x20 DUP3 DUP5 SUB SLT ISZERO PUSH2 0x2888 JUMPI PUSH1 0x0 DUP1 REVERT JUMPDEST DUP2 CALLDATALOAD PUSH1 0x1 PUSH1 0x1 PUSH1 0xE0 SHL SUB NOT DUP2 AND DUP2 EQ PUSH2 0x2766 JUMPI PUSH1 0x0 DUP1 REVERT JUMPDEST DUP1 CALLDATALOAD PUSH2 0xFFFF DUP2 AND DUP2 EQ PUSH2 0x28B2 JUMPI PUSH1 0x0 DUP1 REVERT JUMPDEST SWAP2 SWAP1 POP JUMP JUMPDEST PUSH1 0x0 PUSH1 0x20 DUP3 DUP5 SUB SLT ISZERO PUSH2 0x28C9 JUMPI PUSH1 0x0 DUP1 REVERT JUMPDEST PUSH2 0x2766 DUP3 PUSH2 0x28A0 JUMP JUMPDEST DUP1 CALLDATALOAD PUSH1 0x1 PUSH1 0x1 PUSH1 0xA0 SHL SUB DUP2 AND DUP2 EQ PUSH2 0x28B2 JUMPI PUSH1 0x0 DUP1 REVERT JUMPDEST PUSH1 0x0 PUSH1 0x20 DUP3 DUP5 SUB SLT ISZERO PUSH2 0x28FB JUMPI PUSH1 0x0 DUP1 REVERT JUMPDEST PUSH2 0x2766 DUP3 PUSH2 0x28D2 JUMP JUMPDEST PUSH1 0x0 DUP2 MLOAD DUP1 DUP5 MSTORE PUSH1 0x20 DUP1 DUP6 ADD SWAP5 POP DUP1 DUP5 ADD PUSH1 0x0 JUMPDEST DUP4 DUP2 LT ISZERO PUSH2 0x2934 JUMPI DUP2 MLOAD DUP8 MSTORE SWAP6 DUP3 ADD SWAP6 SWAP1 DUP3 ADD SWAP1 PUSH1 0x1 ADD PUSH2 0x2918 JUMP JUMPDEST POP SWAP5 SWAP6 SWAP5 POP POP POP POP POP JUMP JUMPDEST PUSH1 0x20 DUP2 MSTORE PUSH1 0x0 PUSH2 0x2766 PUSH1 0x20 DUP4 ADD DUP5 PUSH2 0x2904 JUMP JUMPDEST DUP1 ISZERO ISZERO DUP2 EQ PUSH2 0x2389 JUMPI PUSH1 0x0 DUP1 REVERT JUMPDEST PUSH1 0x0 DUP1 PUSH1 0x40 DUP4 DUP6 SUB SLT ISZERO PUSH2 0x2973 JUMPI PUSH1 0x0 DUP1 REVERT JUMPDEST PUSH2 0x297C DUP4 PUSH2 0x28D2 JUMP JUMPDEST SWAP2 POP PUSH1 0x20 DUP4 ADD CALLDATALOAD PUSH2 0x298C DUP2 PUSH2 0x2952 JUMP JUMPDEST DUP1 SWAP2 POP POP SWAP3 POP SWAP3 SWAP1 POP JUMP JUMPDEST DUP1 CALLDATALOAD PUSH1 0x2 DUP2 LT PUSH2 0x28B2 JUMPI PUSH1 0x0 DUP1 REVERT JUMPDEST PUSH1 0x0 DUP1 PUSH1 0x0 DUP1 PUSH1 0x0 DUP1 PUSH1 0x0 PUSH1 0xE0 DUP9 DUP11 SUB SLT ISZERO PUSH2 0x29C1 JUMPI PUSH1 0x0 DUP1 REVERT JUMPDEST PUSH2 0x29CA DUP9 PUSH2 0x2997 JUMP JUMPDEST SWAP7 POP PUSH2 0x29D8 PUSH1 0x20 DUP10 ADD PUSH2 0x28A0 JUMP JUMPDEST SWAP6 POP PUSH2 0x29E6 PUSH1 0x40 DUP10 ADD PUSH2 0x28A0 JUMP JUMPDEST SWAP7 SWAP10 SWAP6 SWAP9 POP SWAP6 SWAP7 PUSH1 0x60 DUP2 ADD CALLDATALOAD SWAP7 POP PUSH1 0x80 DUP2 ADD CALLDATALOAD SWAP6 PUSH1 0xA0 DUP3 ADD CALLDATALOAD SWAP6 POP PUSH1 0xC0 SWAP1 SWAP2 ADD CALLDATALOAD SWAP4 POP SWAP2 POP POP JUMP JUMPDEST PUSH1 0x0 DUP1 PUSH1 0x40 DUP4 DUP6 SUB SLT ISZERO PUSH2 0x2A21 JUMPI PUSH1 0x0 DUP1 REVERT JUMPDEST PUSH2 0x2A2A DUP4 PUSH2 0x28D2 JUMP JUMPDEST SWAP2 POP PUSH2 0x2A38 PUSH1 0x20 DUP5 ADD PUSH2 0x28A0 JUMP JUMPDEST SWAP1 POP SWAP3 POP SWAP3 SWAP1 POP JUMP JUMPDEST PUSH1 0x0 PUSH1 0x20 DUP3 DUP5 SUB SLT ISZERO PUSH2 0x2A53 JUMPI PUSH1 0x0 DUP1 REVERT JUMPDEST POP CALLDATALOAD SWAP2 SWAP1 POP JUMP JUMPDEST PUSH4 0x4E487B71 PUSH1 0xE0 SHL PUSH1 0x0 MSTORE PUSH1 0x21 PUSH1 0x4 MSTORE PUSH1 0x24 PUSH1 0x0 REVERT JUMPDEST PUSH1 0x2 DUP2 LT PUSH2 0x2A80 JUMPI PUSH2 0x2A80 PUSH2 0x2A5A JUMP JUMPDEST SWAP1 MSTORE JUMP JUMPDEST PUSH1 0x4 DUP2 LT PUSH2 0x2A80 JUMPI PUSH2 0x2A80 PUSH2 0x2A5A JUMP JUMPDEST PUSH1 0x0 PUSH2 0x200 DUP3 ADD SWAP1 POP PUSH2 0x2AA8 DUP3 DUP5 MLOAD PUSH2 0x2A70 JUMP JUMPDEST PUSH1 0x20 DUP4 ADD MLOAD PUSH2 0x2ABA PUSH1 0x20 DUP5 ADD DUP3 PUSH2 0x2A84 JUMP JUMPDEST POP PUSH1 0x40 DUP4 ADD MLOAD PUSH2 0x2AD0 PUSH1 0x40 DUP5 ADD DUP3 PUSH2 0xFFFF AND SWAP1 MSTORE JUMP JUMPDEST POP PUSH1 0x60 DUP4 ADD MLOAD PUSH2 0x2AE6 PUSH1 0x60 DUP5 ADD DUP3 PUSH2 0xFFFF AND SWAP1 MSTORE JUMP JUMPDEST POP PUSH1 0x80 DUP4 ADD MLOAD PUSH2 0x2AFC PUSH1 0x80 DUP5 ADD DUP3 PUSH2 0xFFFF AND SWAP1 MSTORE JUMP JUMPDEST POP PUSH1 0xA0 DUP4 ADD MLOAD PUSH2 0x2B12 PUSH1 0xA0 DUP5 ADD DUP3 PUSH2 0xFFFF AND SWAP1 MSTORE JUMP JUMPDEST POP PUSH1 0xC0 DUP4 ADD MLOAD PUSH2 0x2B28 PUSH1 0xC0 DUP5 ADD DUP3 PUSH2 0xFFFF AND SWAP1 MSTORE JUMP JUMPDEST POP PUSH1 0xE0 DUP4 DUP2 ADD MLOAD SWAP1 DUP4 ADD MSTORE PUSH2 0x100 DUP1 DUP5 ADD MLOAD SWAP1 DUP4 ADD MSTORE PUSH2 0x120 DUP1 DUP5 ADD MLOAD SWAP1 DUP4 ADD MSTORE PUSH2 0x140 DUP1 DUP5 ADD MLOAD SWAP1 DUP4 ADD MSTORE PUSH2 0x160 DUP1 DUP5 ADD MLOAD SWAP1 DUP4 ADD MSTORE PUSH2 0x180 DUP1 DUP5 ADD MLOAD SWAP1 DUP4 ADD MSTORE PUSH2 0x1A0 DUP1 DUP5 ADD MLOAD SWAP1 DUP4 ADD MSTORE PUSH2 0x1C0 DUP1 DUP5 ADD MLOAD SWAP1 DUP4 ADD MSTORE PUSH2 0x1E0 SWAP3 DUP4 ADD MLOAD SWAP3 SWAP1 SWAP2 ADD SWAP2 SWAP1 SWAP2 MSTORE SWAP1 JUMP JUMPDEST PUSH4 0x4E487B71 PUSH1 0xE0 SHL PUSH1 0x0 MSTORE PUSH1 0x41 PUSH1 0x4 MSTORE PUSH1 0x24 PUSH1 0x0 REVERT JUMPDEST PUSH1 0x40 MLOAD PUSH1 0x1F DUP3 ADD PUSH1 0x1F NOT AND DUP2 ADD PUSH8 0xFFFFFFFFFFFFFFFF DUP2 GT DUP3 DUP3 LT OR ISZERO PUSH2 0x2BD1 JUMPI PUSH2 0x2BD1 PUSH2 0x2B92 JUMP JUMPDEST PUSH1 0x40 MSTORE SWAP2 SWAP1 POP JUMP JUMPDEST PUSH1 0x0 DUP3 PUSH1 0x1F DUP4 ADD SLT PUSH2 0x2BEA JUMPI PUSH1 0x0 DUP1 REVERT JUMPDEST DUP2 CALLDATALOAD PUSH1 0x20 PUSH8 0xFFFFFFFFFFFFFFFF DUP3 GT ISZERO PUSH2 0x2C06 JUMPI PUSH2 0x2C06 PUSH2 0x2B92 JUMP JUMPDEST DUP2 PUSH1 0x5 SHL PUSH2 0x2C15 DUP3 DUP3 ADD PUSH2 0x2BA8 JUMP JUMPDEST SWAP3 DUP4 MSTORE DUP5 DUP2 ADD DUP3 ADD SWAP3 DUP3 DUP2 ADD SWAP1 DUP8 DUP6 GT ISZERO PUSH2 0x2C2F JUMPI PUSH1 0x0 DUP1 REVERT JUMPDEST DUP4 DUP8 ADD SWAP3 POP JUMPDEST DUP5 DUP4 LT ISZERO PUSH2 0x2C4E JUMPI DUP3 CALLDATALOAD DUP3 MSTORE SWAP2 DUP4 ADD SWAP2 SWAP1 DUP4 ADD SWAP1 PUSH2 0x2C35 JUMP JUMPDEST SWAP8 SWAP7 POP POP POP POP POP POP POP JUMP JUMPDEST PUSH1 0x0 DUP1 PUSH1 0x0 PUSH1 0x60 DUP5 DUP7 SUB SLT ISZERO PUSH2 0x2C6E JUMPI PUSH1 0x0 DUP1 REVERT JUMPDEST PUSH2 0x2C77 DUP5 PUSH2 0x28D2 JUMP JUMPDEST SWAP3 POP PUSH1 0x20 DUP5 ADD CALLDATALOAD PUSH8 0xFFFFFFFFFFFFFFFF DUP1 DUP3 GT ISZERO PUSH2 0x2C94 JUMPI PUSH1 0x0 DUP1 REVERT JUMPDEST PUSH2 0x2CA0 DUP8 DUP4 DUP9 ADD PUSH2 0x2BD9 JUMP JUMPDEST SWAP4 POP PUSH1 0x40 DUP7 ADD CALLDATALOAD SWAP2 POP DUP1 DUP3 GT ISZERO PUSH2 0x2CB6 JUMPI PUSH1 0x0 DUP1 REVERT JUMPDEST POP PUSH2 0x2CC3 DUP7 DUP3 DUP8 ADD PUSH2 0x2BD9 JUMP JUMPDEST SWAP2 POP POP SWAP3 POP SWAP3 POP SWAP3 JUMP JUMPDEST PUSH1 0x0 DUP1 PUSH1 0x40 DUP4 DUP6 SUB SLT ISZERO PUSH2 0x2CE0 JUMPI PUSH1 0x0 DUP1 REVERT JUMPDEST PUSH2 0x2CE9 DUP4 PUSH2 0x28D2 JUMP JUMPDEST SWAP5 PUSH1 0x20 SWAP4 SWAP1 SWAP4 ADD CALLDATALOAD SWAP4 POP POP POP JUMP JUMPDEST DUP1 CALLDATALOAD PUSH1 0x4 DUP2 LT PUSH2 0x28B2 JUMPI PUSH1 0x0 DUP1 REVERT JUMPDEST PUSH1 0x0 DUP1 PUSH1 0x0 DUP1 PUSH1 0x0 PUSH1 0xA0 DUP7 DUP9 SUB SLT ISZERO PUSH2 0x2D1E JUMPI PUSH1 0x0 DUP1 REVERT JUMPDEST PUSH2 0x2D27 DUP7 PUSH2 0x28A0 JUMP JUMPDEST SWAP5 POP PUSH2 0x2D35 PUSH1 0x20 DUP8 ADD PUSH2 0x2CF7 JUMP JUMPDEST SWAP4 POP PUSH2 0x2D43 PUSH1 0x40 DUP8 ADD PUSH2 0x28A0 JUMP JUMPDEST SWAP3 POP PUSH2 0x2D51 PUSH1 0x60 DUP8 ADD PUSH2 0x28A0 JUMP JUMPDEST SWAP5 SWAP8 SWAP4 SWAP7 POP SWAP2 SWAP5 PUSH1 0x80 ADD CALLDATALOAD SWAP3 SWAP2 POP POP JUMP JUMPDEST PUSH1 0x0 DUP3 PUSH1 0x1F DUP4 ADD SLT PUSH2 0x2D73 JUMPI PUSH1 0x0 DUP1 REVERT JUMPDEST DUP2 CALLDATALOAD PUSH8 0xFFFFFFFFFFFFFFFF DUP2 GT ISZERO PUSH2 0x2D8D JUMPI PUSH2 0x2D8D PUSH2 0x2B92 JUMP JUMPDEST PUSH2 0x2DA0 PUSH1 0x1F DUP3 ADD PUSH1 0x1F NOT AND PUSH1 0x20 ADD PUSH2 0x2BA8 JUMP JUMPDEST DUP2 DUP2 MSTORE DUP5 PUSH1 0x20 DUP4 DUP7 ADD ADD GT ISZERO PUSH2 0x2DB5 JUMPI PUSH1 0x0 DUP1 REVERT JUMPDEST DUP2 PUSH1 0x20 DUP6 ADD PUSH1 0x20 DUP4 ADD CALLDATACOPY PUSH1 0x0 SWAP2 DUP2 ADD PUSH1 0x20 ADD SWAP2 SWAP1 SWAP2 MSTORE SWAP4 SWAP3 POP POP POP JUMP JUMPDEST PUSH1 0x0 DUP1 PUSH1 0x0 DUP1 PUSH1 0x0 PUSH1 0xA0 DUP7 DUP9 SUB SLT ISZERO PUSH2 0x2DEA JUMPI PUSH1 0x0 DUP1 REVERT JUMPDEST PUSH2 0x2DF3 DUP7 PUSH2 0x28D2 JUMP JUMPDEST SWAP5 POP PUSH2 0x2E01 PUSH1 0x20 DUP8 ADD PUSH2 0x28D2 JUMP JUMPDEST SWAP4 POP PUSH1 0x40 DUP7 ADD CALLDATALOAD PUSH8 0xFFFFFFFFFFFFFFFF DUP1 DUP3 GT ISZERO PUSH2 0x2E1E JUMPI PUSH1 0x0 DUP1 REVERT JUMPDEST PUSH2 0x2E2A DUP10 DUP4 DUP11 ADD PUSH2 0x2BD9 JUMP JUMPDEST SWAP5 POP PUSH1 0x60 DUP9 ADD CALLDATALOAD SWAP2 POP DUP1 DUP3 GT ISZERO PUSH2 0x2E40 JUMPI PUSH1 0x0 DUP1 REVERT JUMPDEST PUSH2 0x2E4C DUP10 DUP4 DUP11 ADD PUSH2 0x2BD9 JUMP JUMPDEST SWAP4 POP PUSH1 0x80 DUP9 ADD CALLDATALOAD SWAP2 POP DUP1 DUP3 GT ISZERO PUSH2 0x2E62 JUMPI PUSH1 0x0 DUP1 REVERT JUMPDEST POP PUSH2 0x2E6F DUP9 DUP3 DUP10 ADD PUSH2 0x2D62 JUMP JUMPDEST SWAP2 POP POP SWAP3 SWAP6 POP SWAP3 SWAP6 SWAP1 SWAP4 POP JUMP JUMPDEST PUSH1 0x0 DUP1 PUSH1 0x0 DUP1 PUSH1 0x80 DUP6 DUP8 SUB SLT ISZERO PUSH2 0x2E92 JUMPI PUSH1 0x0 DUP1 REVERT JUMPDEST PUSH2 0x2E9B DUP6 PUSH2 0x28A0 JUMP JUMPDEST SWAP4 POP PUSH2 0x2EA9 PUSH1 0x20 DUP7 ADD PUSH2 0x2CF7 JUMP JUMPDEST SWAP4 SWAP7 SWAP4 SWAP6 POP POP POP POP PUSH1 0x40 DUP3 ADD CALLDATALOAD SWAP2 PUSH1 0x60 ADD CALLDATALOAD SWAP1 JUMP JUMPDEST PUSH1 0x0 DUP1 PUSH1 0x0 DUP1 PUSH1 0x0 PUSH1 0xA0 DUP7 DUP9 SUB SLT ISZERO PUSH2 0x2ED6 JUMPI PUSH1 0x0 DUP1 REVERT JUMPDEST PUSH2 0x2EDF DUP7 PUSH2 0x28D2 JUMP JUMPDEST SWAP5 POP PUSH2 0x2EED PUSH1 0x20 DUP8 ADD PUSH2 0x28D2 JUMP JUMPDEST SWAP4 POP PUSH1 0x40 DUP7 ADD CALLDATALOAD SWAP3 POP PUSH1 0x60 DUP7 ADD CALLDATALOAD SWAP2 POP PUSH1 0x80 DUP7 ADD CALLDATALOAD PUSH8 0xFFFFFFFFFFFFFFFF DUP2 GT ISZERO PUSH2 0x2F17 JUMPI PUSH1 0x0 DUP1 REVERT JUMPDEST PUSH2 0x2E6F DUP9 DUP3 DUP10 ADD PUSH2 0x2D62 JUMP JUMPDEST PUSH1 0x0 DUP1 PUSH1 0x0 DUP1 PUSH1 0x0 DUP1 PUSH1 0x0 DUP1 PUSH2 0x100 DUP10 DUP12 SUB SLT ISZERO PUSH2 0x2F40 JUMPI PUSH1 0x0 DUP1 REVERT JUMPDEST PUSH2 0x2F49 DUP10 PUSH2 0x28A0 JUMP JUMPDEST SWAP8 POP PUSH2 0x2F57 PUSH1 0x20 DUP11 ADD PUSH2 0x2997 JUMP JUMPDEST SWAP7 POP PUSH2 0x2F65 PUSH1 0x40 DUP11 ADD PUSH2 0x28A0 JUMP JUMPDEST SWAP6 POP PUSH2 0x2F73 PUSH1 0x60 DUP11 ADD PUSH2 0x28A0 JUMP JUMPDEST SWAP8 SWAP11 SWAP7 SWAP10 POP SWAP5 SWAP8 PUSH1 0x80 DUP2 ADD CALLDATALOAD SWAP7 PUSH1 0xA0 DUP3 ADD CALLDATALOAD SWAP7 POP PUSH1 0xC0 DUP3 ADD CALLDATALOAD SWAP6 POP PUSH1 0xE0 SWAP1 SWAP2 ADD CALLDATALOAD SWAP4 POP SWAP2 POP POP JUMP JUMPDEST PUSH1 0x1 PUSH1 0x1 PUSH1 0xA0 SHL SUB SWAP5 DUP6 AND DUP2 MSTORE SWAP3 SWAP1 SWAP4 AND PUSH1 0x20 DUP4 ADD MSTORE PUSH1 0x40 DUP3 ADD MSTORE PUSH1 0x60 DUP2 ADD SWAP2 SWAP1 SWAP2 MSTORE PUSH1 0xA0 PUSH1 0x80 DUP3 ADD DUP2 SWAP1 MSTORE PUSH1 0x0 SWAP1 DUP3 ADD MSTORE PUSH1 0xC0 ADD SWAP1 JUMP JUMPDEST PUSH4 0x4E487B71 PUSH1 0xE0 SHL PUSH1 0x0 MSTORE PUSH1 0x11 PUSH1 0x4 MSTORE PUSH1 0x24 PUSH1 0x0 REVERT JUMPDEST DUP1 DUP3 ADD DUP1 DUP3 GT ISZERO PUSH2 0x4F5 JUMPI PUSH2 0x4F5 PUSH2 0x2FD3 JUMP JUMPDEST DUP2 DUP2 SUB DUP2 DUP2 GT ISZERO PUSH2 0x4F5 JUMPI PUSH2 0x4F5 PUSH2 0x2FD3 JUMP JUMPDEST DUP1 DUP3 MUL DUP2 ISZERO DUP3 DUP3 DIV DUP5 EQ OR PUSH2 0x4F5 JUMPI PUSH2 0x4F5 PUSH2 0x2FD3 JUMP JUMPDEST PUSH1 0x0 DUP3 PUSH2 0x3043 JUMPI PUSH4 0x4E487B71 PUSH1 0xE0 SHL PUSH1 0x0 MSTORE PUSH1 0x12 PUSH1 0x4 MSTORE PUSH1 0x24 PUSH1 0x0 REVERT JUMPDEST POP DIV SWAP1 JUMP JUMPDEST PUSH1 0x0 PUSH1 0x20 DUP3 DUP5 SUB SLT ISZERO PUSH2 0x305A JUMPI PUSH1 0x0 DUP1 REVERT JUMPDEST DUP2 MLOAD PUSH2 0x2766 DUP2 PUSH2 0x2952 JUMP JUMPDEST PUSH1 0x20 DUP1 DUP3 MSTORE PUSH1 0x22 SWAP1 DUP3 ADD MSTORE PUSH32 0x41646D696E61626C653A2063616C6C6572206973206E6F7420746865206F776E PUSH1 0x40 DUP3 ADD MSTORE PUSH2 0x32B9 PUSH1 0xF1 SHL PUSH1 0x60 DUP3 ADD MSTORE PUSH1 0x80 ADD SWAP1 JUMP JUMPDEST PUSH1 0x20 DUP1 DUP3 MSTORE PUSH1 0x22 SWAP1 DUP3 ADD MSTORE PUSH32 0x41646D696E61626C653A2063616C6C6572206973206E6F74207468652061646D PUSH1 0x40 DUP3 ADD MSTORE PUSH2 0x34B7 PUSH1 0xF1 SHL PUSH1 0x60 DUP3 ADD MSTORE PUSH1 0x80 ADD SWAP1 JUMP JUMPDEST PUSH1 0x0 PUSH2 0xFFFF DUP1 DUP4 AND DUP2 DUP2 SUB PUSH2 0x3100 JUMPI PUSH2 0x3100 PUSH2 0x2FD3 JUMP JUMPDEST PUSH1 0x1 ADD SWAP4 SWAP3 POP POP POP JUMP JUMPDEST PUSH2 0x100 DUP2 ADD PUSH2 0x3119 DUP3 DUP12 PUSH2 0x2A70 JUMP JUMPDEST PUSH2 0xFFFF SWAP9 DUP10 AND PUSH1 0x20 DUP4 ADD MSTORE SWAP7 DUP9 AND PUSH1 0x40 DUP3 ADD MSTORE SWAP5 SWAP1 SWAP7 AND PUSH1 0x60 DUP6 ADD MSTORE PUSH1 0x80 DUP5 ADD SWAP3 SWAP1 SWAP3 MSTORE PUSH1 0xA0 DUP4 ADD MSTORE PUSH1 0xC0 DUP3 ADD MSTORE PUSH1 0xE0 ADD SWAP2 SWAP1 SWAP2 MSTORE SWAP2 SWAP1 POP JUMP JUMPDEST PUSH1 0x1 PUSH1 0x1 PUSH1 0xA0 SHL SUB DUP6 DUP2 AND DUP3 MSTORE DUP5 AND PUSH1 0x20 DUP3 ADD MSTORE PUSH1 0xA0 PUSH1 0x40 DUP3 ADD DUP2 SWAP1 MSTORE PUSH1 0x0 SWAP1 PUSH2 0x317F SWAP1 DUP4 ADD DUP6 PUSH2 0x2904 JUMP JUMPDEST DUP3 DUP2 SUB PUSH1 0x60 DUP5 ADD MSTORE PUSH2 0x3191 DUP2 DUP6 PUSH2 0x2904 JUMP JUMPDEST DUP4 DUP2 SUB PUSH1 0x80 SWAP1 SWAP5 ADD SWAP4 SWAP1 SWAP4 MSTORE POP POP PUSH1 0x0 DUP2 MSTORE PUSH1 0x20 ADD SWAP5 SWAP4 POP POP POP POP JUMP JUMPDEST PUSH2 0xFFFF DUP7 DUP2 AND DUP3 MSTORE DUP6 DUP2 AND PUSH1 0x20 DUP4 ADD MSTORE DUP5 AND PUSH1 0x40 DUP3 ADD MSTORE PUSH1 0xA0 DUP2 ADD PUSH2 0x31D6 PUSH1 0x60 DUP4 ADD DUP6 PUSH2 0x2A84 JUMP JUMPDEST DUP3 PUSH1 0x80 DUP4 ADD MSTORE SWAP7 SWAP6 POP POP POP POP POP POP JUMP JUMPDEST PUSH2 0xFFFF DUP6 AND DUP2 MSTORE PUSH1 0x80 DUP2 ADD PUSH2 0x31FE PUSH1 0x20 DUP4 ADD DUP7 PUSH2 0x2A84 JUMP JUMPDEST PUSH1 0x40 DUP3 ADD SWAP4 SWAP1 SWAP4 MSTORE PUSH1 0x60 ADD MSTORE SWAP3 SWAP2 POP POP JUMP INVALID LOG2 PUSH5 0x6970667358 0x22 SLT KECCAK256 CALLCODE 0xE PUSH28 0x731105CCCE269950FDC9434C25F80DED2DE010F6958C993E30642C31 SAR PUSH5 0x736F6C6343 STOP ADDMOD GT STOP CALLER "
		},
		"gasEstimates": {
			"creation": {
				"codeDepositCost": "2574000",
				"executionCost": "121311",
				"totalCost": "2695311"
			},
			"external": {
				"addChallenge(uint8,uint16,uint16,uint256,uint256,uint256,uint256)": "infinite",
				"challengeIdInex()": "2440",
				"emergencyWithdrawToken(address,uint256)": "infinite",
				"enterChallenge(uint16,uint8,uint256,uint256)": "infinite",
				"getChallengeInfo(uint16)": "infinite",
				"getUserChallengeInfo(address,uint16)": "infinite",
				"getUserChallenges(address)": "infinite",
				"getUserRewards(address,uint16)": "infinite",
				"isAdmin(address)": "2653",
				"modificationAdmin(address,bool)": "30844",
				"modifyChallenge(uint16,uint8,uint16,uint16,uint256,uint256,uint256,uint256)": "infinite",
				"nftCost()": "2340",
				"onERC1155BatchReceived(address,address,uint256[],uint256[],bytes)": "infinite",
				"onERC1155Received(address,address,uint256,uint256,bytes)": "infinite",
				"openChallenge(uint16,uint8,uint16,uint16,uint256)": "infinite",
				"owner()": "2399",
				"rate()": "2363",
				"renounceOwnership()": "28184",
				"rewardToken()": "2403",
				"setNftCost(uint256)": "24508",
				"setRate(uint256)": "24554",
				"setRewardToken(address)": "26757",
				"setTeamNft(address)": "26756",
				"supportsInterface(bytes4)": "473",
				"teamNft()": "2383",
				"transferOwnership(address)": "28401",
				"withdraw(address,uint256[],uint256[])": "infinite",
				"withdrawReward(uint16)": "infinite"
			}
		},
		"methodIdentifiers": {
			"addChallenge(uint8,uint16,uint16,uint256,uint256,uint256,uint256)": "20b45e1c",
			"challengeIdInex()": "ffa65732",
			"emergencyWithdrawToken(address,uint256)": "a4c3b091",
			"enterChallenge(uint16,uint8,uint256,uint256)": "d34259c1",
			"getChallengeInfo(uint16)": "891ee6d3",
			"getUserChallengeInfo(address,uint16)": "749f3429",
			"getUserChallenges(address)": "11da8e54",
			"getUserRewards(address,uint16)": "21569088",
			"isAdmin(address)": "24d7806c",
			"modificationAdmin(address,bool)": "18e20ecf",
			"modifyChallenge(uint16,uint8,uint16,uint16,uint256,uint256,uint256,uint256)": "fa5b6944",
			"nftCost()": "da80e59b",
			"onERC1155BatchReceived(address,address,uint256[],uint256[],bytes)": "bc197c81",
			"onERC1155Received(address,address,uint256,uint256,bytes)": "f23a6e61",
			"openChallenge(uint16,uint8,uint16,uint16,uint256)": "acca73e2",
			"owner()": "8da5cb5b",
			"rate()": "2c4e722e",
			"renounceOwnership()": "715018a6",
			"rewardToken()": "f7c618c1",
			"setNftCost(uint256)": "f606faea",
			"setRate(uint256)": "34fcf437",
			"setRewardToken(address)": "8aee8127",
			"setTeamNft(address)": "6cd262fb",
			"supportsInterface(bytes4)": "01ffc9a7",
			"teamNft()": "270e3994",
			"transferOwnership(address)": "f2fde38b",
			"withdraw(address,uint256[],uint256[])": "9339b0a0",
			"withdrawReward(uint16)": "082d0785"
		}
	},
	"abi": [
		{
			"anonymous": false,
			"inputs": [
				{
					"indexed": true,
					"internalType": "address",
					"name": "admin",
					"type": "address"
				},
				{
					"indexed": false,
					"internalType": "enum DreamChallenge.Ctype",
					"name": "ctype",
					"type": "uint8"
				},
				{
					"indexed": false,
					"internalType": "uint16",
					"name": "challengeId",
					"type": "uint16"
				},
				{
					"indexed": false,
					"internalType": "uint16",
					"name": "placeId",
					"type": "uint16"
				},
				{
					"indexed": false,
					"internalType": "uint16",
					"name": "matchId",
					"type": "uint16"
				},
				{
					"indexed": false,
					"internalType": "uint256",
					"name": "startAt",
					"type": "uint256"
				},
				{
					"indexed": false,
					"internalType": "uint256",
					"name": "endAt",
					"type": "uint256"
				},
				{
					"indexed": false,
					"internalType": "uint256",
					"name": "tokenIdLeft",
					"type": "uint256"
				},
				{
					"indexed": false,
					"internalType": "uint256",
					"name": "tokenIdRight",
					"type": "uint256"
				}
			],
			"name": "AddChallenge",
			"type": "event"
		},
		{
			"anonymous": false,
			"inputs": [
				{
					"indexed": true,
					"internalType": "address",
					"name": "user",
					"type": "address"
				},
				{
					"indexed": false,
					"internalType": "uint16",
					"name": "challengeId",
					"type": "uint16"
				},
				{
					"indexed": false,
					"internalType": "enum DreamChallenge.Target",
					"name": "target",
					"type": "uint8"
				},
				{
					"indexed": false,
					"internalType": "uint256",
					"name": "tokenid",
					"type": "uint256"
				},
				{
					"indexed": false,
					"internalType": "uint256",
					"name": "amount",
					"type": "uint256"
				}
			],
			"name": "EnterChallenge",
			"type": "event"
		},
		{
			"anonymous": false,
			"inputs": [
				{
					"indexed": true,
					"internalType": "address",
					"name": "admin",
					"type": "address"
				},
				{
					"indexed": false,
					"internalType": "bool",
					"name": "oldState",
					"type": "bool"
				},
				{
					"indexed": false,
					"internalType": "bool",
					"name": "newState",
					"type": "bool"
				}
			],
			"name": "ModificationAdmin",
			"type": "event"
		},
		{
			"anonymous": false,
			"inputs": [
				{
					"indexed": true,
					"internalType": "address",
					"name": "admin",
					"type": "address"
				},
				{
					"indexed": false,
					"internalType": "enum DreamChallenge.Ctype",
					"name": "ctype",
					"type": "uint8"
				},
				{
					"indexed": false,
					"internalType": "uint16",
					"name": "challengeId",
					"type": "uint16"
				},
				{
					"indexed": false,
					"internalType": "uint16",
					"name": "placeId",
					"type": "uint16"
				},
				{
					"indexed": false,
					"internalType": "uint16",
					"name": "matchId",
					"type": "uint16"
				},
				{
					"indexed": false,
					"internalType": "uint256",
					"name": "startAt",
					"type": "uint256"
				},
				{
					"indexed": false,
					"internalType": "uint256",
					"name": "endAt",
					"type": "uint256"
				},
				{
					"indexed": false,
					"internalType": "uint256",
					"name": "tokenIdLeft",
					"type": "uint256"
				},
				{
					"indexed": false,
					"internalType": "uint256",
					"name": "tokenIdRight",
					"type": "uint256"
				}
			],
			"name": "ModifyChallenge",
			"type": "event"
		},
		{
			"anonymous": false,
			"inputs": [
				{
					"indexed": true,
					"internalType": "address",
					"name": "admin",
					"type": "address"
				},
				{
					"indexed": false,
					"internalType": "uint16",
					"name": "challenageId",
					"type": "uint16"
				},
				{
					"indexed": false,
					"internalType": "uint16",
					"name": "leftScore",
					"type": "uint16"
				},
				{
					"indexed": false,
					"internalType": "uint16",
					"name": "rightScore",
					"type": "uint16"
				},
				{
					"indexed": false,
					"internalType": "enum DreamChallenge.Target",
					"name": "target",
					"type": "uint8"
				},
				{
					"indexed": false,
					"internalType": "uint256",
					"name": "openTime",
					"type": "uint256"
				}
			],
			"name": "OpenChallenge",
			"type": "event"
		},
		{
			"anonymous": false,
			"inputs": [
				{
					"indexed": true,
					"internalType": "address",
					"name": "previousOwner",
					"type": "address"
				},
				{
					"indexed": true,
					"internalType": "address",
					"name": "newOwner",
					"type": "address"
				}
			],
			"name": "OwnershipTransferred",
			"type": "event"
		},
		{
			"anonymous": false,
			"inputs": [
				{
					"indexed": true,
					"internalType": "address",
					"name": "user",
					"type": "address"
				},
				{
					"indexed": false,
					"internalType": "uint16",
					"name": "challageId",
					"type": "uint16"
				},
				{
					"indexed": false,
					"internalType": "uint256",
					"name": "amount",
					"type": "uint256"
				}
			],
			"name": "WithdrawReward",
			"type": "event"
		},
		{
			"inputs": [
				{
					"internalType": "enum DreamChallenge.Ctype",
					"name": "_ctype",
					"type": "uint8"
				},
				{
					"internalType": "uint16",
					"name": "_placeId",
					"type": "uint16"
				},
				{
					"internalType": "uint16",
					"name": "_matchId",
					"type": "uint16"
				},
				{
					"internalType": "uint256",
					"name": "_startAt",
					"type": "uint256"
				},
				{
					"internalType": "uint256",
					"name": "_endAt",
					"type": "uint256"
				},
				{
					"internalType": "uint256",
					"name": "_tokenIdLeft",
					"type": "uint256"
				},
				{
					"internalType": "uint256",
					"name": "_tokenIdRight",
					"type": "uint256"
				}
			],
			"name": "addChallenge",
			"outputs": [],
			"stateMutability": "nonpayable",
			"type": "function"
		},
		{
			"inputs": [],
			"name": "challengeIdInex",
			"outputs": [
				{
					"internalType": "uint16",
					"name": "",
					"type": "uint16"
				}
			],
			"stateMutability": "view",
			"type": "function"
		},
		{
			"inputs": [
				{
					"internalType": "address",
					"name": "token",
					"type": "address"
				},
				{
					"internalType": "uint256",
					"name": "amount",
					"type": "uint256"
				}
			],
			"name": "emergencyWithdrawToken",
			"outputs": [],
			"stateMutability": "nonpayable",
			"type": "function"
		},
		{
			"inputs": [
				{
					"internalType": "uint16",
					"name": "_id",
					"type": "uint16"
				},
				{
					"internalType": "enum DreamChallenge.Target",
					"name": "_target",
					"type": "uint8"
				},
				{
					"internalType": "uint256",
					"name": "_tokenid",
					"type": "uint256"
				},
				{
					"internalType": "uint256",
					"name": "_amount",
					"type": "uint256"
				}
			],
			"name": "enterChallenge",
			"outputs": [],
			"stateMutability": "nonpayable",
			"type": "function"
		},
		{
			"inputs": [
				{
					"internalType": "uint16",
					"name": "challengeId",
					"type": "uint16"
				}
			],
			"name": "getChallengeInfo",
			"outputs": [
				{
					"components": [
						{
							"internalType": "enum DreamChallenge.Ctype",
							"name": "ctype",
							"type": "uint8"
						},
						{
							"internalType": "enum DreamChallenge.Target",
							"name": "winnerTarget",
							"type": "uint8"
						},
						{
							"internalType": "uint16",
							"name": "id",
							"type": "uint16"
						},
						{
							"internalType": "uint16",
							"name": "placeId",
							"type": "uint16"
						},
						{
							"internalType": "uint16",
							"name": "matchId",
							"type": "uint16"
						},
						{
							"internalType": "uint16",
							"name": "leftScore",
							"type": "uint16"
						},
						{
							"internalType": "uint16",
							"name": "rightScore",
							"type": "uint16"
						},
						{
							"internalType": "uint256",
							"name": "startAt",
							"type": "uint256"
						},
						{
							"internalType": "uint256",
							"name": "endAt",
							"type": "uint256"
						},
						{
							"internalType": "uint256",
							"name": "openAt",
							"type": "uint256"
						},
						{
							"internalType": "uint256",
							"name": "tokenIdLeft",
							"type": "uint256"
						},
						{
							"internalType": "uint256",
							"name": "tokenIdRight",
							"type": "uint256"
						},
						{
							"internalType": "uint256",
							"name": "leftTotalAmount",
							"type": "uint256"
						},
						{
							"internalType": "uint256",
							"name": "rightTotalAmount",
							"type": "uint256"
						},
						{
							"internalType": "uint256",
							"name": "leftMiddleTotalAmount",
							"type": "uint256"
						},
						{
							"internalType": "uint256",
							"name": "rightMiddleTotalAmount",
							"type": "uint256"
						}
					],
					"internalType": "struct DreamChallenge.Challenge",
					"name": "",
					"type": "tuple"
				}
			],
			"stateMutability": "view",
			"type": "function"
		},
		{
			"inputs": [
				{
					"internalType": "address",
					"name": "account",
					"type": "address"
				},
				{
					"internalType": "uint16",
					"name": "challengeId",
					"type": "uint16"
				}
			],
			"name": "getUserChallengeInfo",
			"outputs": [
				{
					"components": [
						{
							"internalType": "uint16",
							"name": "challengeId",
							"type": "uint16"
						},
						{
							"internalType": "uint256",
							"name": "amountsLeft",
							"type": "uint256"
						},
						{
							"internalType": "uint256",
							"name": "amountsRight",
							"type": "uint256"
						},
						{
							"internalType": "uint256",
							"name": "amountMiddleL",
							"type": "uint256"
						},
						{
							"internalType": "uint256",
							"name": "amountMiddleR",
							"type": "uint256"
						},
						{
							"internalType": "bool",
							"name": "isTakeReward",
							"type": "bool"
						}
					],
					"internalType": "struct DreamChallenge.UserInfo",
					"name": "",
					"type": "tuple"
				}
			],
			"stateMutability": "view",
			"type": "function"
		},
		{
			"inputs": [
				{
					"internalType": "address",
					"name": "account",
					"type": "address"
				}
			],
			"name": "getUserChallenges",
			"outputs": [
				{
					"internalType": "uint256[]",
					"name": "",
					"type": "uint256[]"
				}
			],
			"stateMutability": "view",
			"type": "function"
		},
		{
			"inputs": [
				{
					"internalType": "address",
					"name": "account",
					"type": "address"
				},
				{
					"internalType": "uint16",
					"name": "challengeId",
					"type": "uint16"
				}
			],
			"name": "getUserRewards",
			"outputs": [
				{
					"internalType": "uint256",
					"name": "",
					"type": "uint256"
				}
			],
			"stateMutability": "view",
			"type": "function"
		},
		{
			"inputs": [
				{
					"internalType": "address",
					"name": "account",
					"type": "address"
				}
			],
			"name": "isAdmin",
			"outputs": [
				{
					"internalType": "bool",
					"name": "",
					"type": "bool"
				}
			],
			"stateMutability": "view",
			"type": "function"
		},
		{
			"inputs": [
				{
					"internalType": "address",
					"name": "admin",
					"type": "address"
				},
				{
					"internalType": "bool",
					"name": "state",
					"type": "bool"
				}
			],
			"name": "modificationAdmin",
			"outputs": [],
			"stateMutability": "nonpayable",
			"type": "function"
		},
		{
			"inputs": [
				{
					"internalType": "uint16",
					"name": "_cId",
					"type": "uint16"
				},
				{
					"internalType": "enum DreamChallenge.Ctype",
					"name": "_ctype",
					"type": "uint8"
				},
				{
					"internalType": "uint16",
					"name": "_placeId",
					"type": "uint16"
				},
				{
					"internalType": "uint16",
					"name": "_matchId",
					"type": "uint16"
				},
				{
					"internalType": "uint256",
					"name": "_startAt",
					"type": "uint256"
				},
				{
					"internalType": "uint256",
					"name": "_endAt",
					"type": "uint256"
				},
				{
					"internalType": "uint256",
					"name": "_tokenIdLeft",
					"type": "uint256"
				},
				{
					"internalType": "uint256",
					"name": "_tokenIdRight",
					"type": "uint256"
				}
			],
			"name": "modifyChallenge",
			"outputs": [],
			"stateMutability": "nonpayable",
			"type": "function"
		},
		{
			"inputs": [],
			"name": "nftCost",
			"outputs": [
				{
					"internalType": "uint256",
					"name": "",
					"type": "uint256"
				}
			],
			"stateMutability": "view",
			"type": "function"
		},
		{
			"inputs": [
				{
					"internalType": "address",
					"name": "",
					"type": "address"
				},
				{
					"internalType": "address",
					"name": "",
					"type": "address"
				},
				{
					"internalType": "uint256[]",
					"name": "",
					"type": "uint256[]"
				},
				{
					"internalType": "uint256[]",
					"name": "",
					"type": "uint256[]"
				},
				{
					"internalType": "bytes",
					"name": "",
					"type": "bytes"
				}
			],
			"name": "onERC1155BatchReceived",
			"outputs": [
				{
					"internalType": "bytes4",
					"name": "",
					"type": "bytes4"
				}
			],
			"stateMutability": "nonpayable",
			"type": "function"
		},
		{
			"inputs": [
				{
					"internalType": "address",
					"name": "",
					"type": "address"
				},
				{
					"internalType": "address",
					"name": "",
					"type": "address"
				},
				{
					"internalType": "uint256",
					"name": "",
					"type": "uint256"
				},
				{
					"internalType": "uint256",
					"name": "",
					"type": "uint256"
				},
				{
					"internalType": "bytes",
					"name": "",
					"type": "bytes"
				}
			],
			"name": "onERC1155Received",
			"outputs": [
				{
					"internalType": "bytes4",
					"name": "",
					"type": "bytes4"
				}
			],
			"stateMutability": "nonpayable",
			"type": "function"
		},
		{
			"inputs": [
				{
					"internalType": "uint16",
					"name": "challengeId",
					"type": "uint16"
				},
				{
					"internalType": "enum DreamChallenge.Target",
					"name": "winnerTarget",
					"type": "uint8"
				},
				{
					"internalType": "uint16",
					"name": "leftScore",
					"type": "uint16"
				},
				{
					"internalType": "uint16",
					"name": "rightScore",
					"type": "uint16"
				},
				{
					"internalType": "uint256",
					"name": "time",
					"type": "uint256"
				}
			],
			"name": "openChallenge",
			"outputs": [],
			"stateMutability": "nonpayable",
			"type": "function"
		},
		{
			"inputs": [],
			"name": "owner",
			"outputs": [
				{
					"internalType": "address",
					"name": "",
					"type": "address"
				}
			],
			"stateMutability": "view",
			"type": "function"
		},
		{
			"inputs": [],
			"name": "rate",
			"outputs": [
				{
					"internalType": "uint256",
					"name": "",
					"type": "uint256"
				}
			],
			"stateMutability": "view",
			"type": "function"
		},
		{
			"inputs": [],
			"name": "renounceOwnership",
			"outputs": [],
			"stateMutability": "nonpayable",
			"type": "function"
		},
		{
			"inputs": [],
			"name": "rewardToken",
			"outputs": [
				{
					"internalType": "address",
					"name": "",
					"type": "address"
				}
			],
			"stateMutability": "view",
			"type": "function"
		},
		{
			"inputs": [
				{
					"internalType": "uint256",
					"name": "_amount",
					"type": "uint256"
				}
			],
			"name": "setNftCost",
			"outputs": [],
			"stateMutability": "nonpayable",
			"type": "function"
		},
		{
			"inputs": [
				{
					"internalType": "uint256",
					"name": "_rate",
					"type": "uint256"
				}
			],
			"name": "setRate",
			"outputs": [],
			"stateMutability": "nonpayable",
			"type": "function"
		},
		{
			"inputs": [
				{
					"internalType": "address",
					"name": "_token",
					"type": "address"
				}
			],
			"name": "setRewardToken",
			"outputs": [],
			"stateMutability": "nonpayable",
			"type": "function"
		},
		{
			"inputs": [
				{
					"internalType": "address",
					"name": "_nft",
					"type": "address"
				}
			],
			"name": "setTeamNft",
			"outputs": [],
			"stateMutability": "nonpayable",
			"type": "function"
		},
		{
			"inputs": [
				{
					"internalType": "bytes4",
					"name": "interfaceId",
					"type": "bytes4"
				}
			],
			"name": "supportsInterface",
			"outputs": [
				{
					"internalType": "bool",
					"name": "",
					"type": "bool"
				}
			],
			"stateMutability": "view",
			"type": "function"
		},
		{
			"inputs": [],
			"name": "teamNft",
			"outputs": [
				{
					"internalType": "address",
					"name": "",
					"type": "address"
				}
			],
			"stateMutability": "view",
			"type": "function"
		},
		{
			"inputs": [
				{
					"internalType": "address",
					"name": "newOwner",
					"type": "address"
				}
			],
			"name": "transferOwnership",
			"outputs": [],
			"stateMutability": "nonpayable",
			"type": "function"
		},
		{
			"inputs": [
				{
					"internalType": "address",
					"name": "nftContractAddress",
					"type": "address"
				},
				{
					"internalType": "uint256[]",
					"name": "tokenids",
					"type": "uint256[]"
				},
				{
					"internalType": "uint256[]",
					"name": "amounts",
					"type": "uint256[]"
				}
			],
			"name": "withdraw",
			"outputs": [],
			"stateMutability": "nonpayable",
			"type": "function"
		},
		{
			"inputs": [
				{
					"internalType": "uint16",
					"name": "_challengeId",
					"type": "uint16"
				}
			],
			"name": "withdrawReward",
			"outputs": [],
			"stateMutability": "nonpayable",
			"type": "function"
		}
	]
}