{
	"data": {
		"bytecode": {
			"linkReferences": {},
			"object": "6024600281815561050060405260006080908152600160a05260c091909152600360e081905260046101005260056101205260066101405260076101605260086101805260096101a052600a6101c052600b6101e052600c61020052600d61022052600e61024052600f6102605260106102805260116102a05260126102c05260136102e05260146103005260156103205260166103405260176103605260186103805260196103a052601a6103c052601b6103e052601c61040052601d61042052601e61044052601f6104605260206104805260216104a05260226104c05260236104e0526100f19290919061029a565b5060408051610480810182526001815260026020808301919091526003928201929092526004606082015260056080820152600660a0820152600760c0820152600860e08201526009610100820152600a610120820152600b610140820152600c610160820152600d610180820152600e6101a0820152600f6101c082015260106101e08201526011610200820152601261022082015260136102408201526014610260820152601561028082015260166102a082015260176102c082015260186102e08201526019610300820152601a610320820152601b610340820152601c610360820152601d610380820152601e6103a0820152601f6103c08201526103e0810191909152602161040082015260226104208201526023610440820152602461046082018190526102279160279161029a565b50600a604f5534801561023957600080fd5b5061024333610248565b6102f2565b600180546001600160a01b038381166001600160a01b0319831681179093556040519116919082907f8be0079c531659141344cd1fd0a4f28419497f9722a3daafe3b4186f6b6457e090600090a35050565b82602481019282156102cd579160200282015b828111156102cd578251829060ff169055916020019190600101906102ad565b506102d99291506102dd565b5090565b5b808211156102d957600081556001016102de565b610d6d806103016000396000f3fe608060405234801561001057600080fd5b50600436106101005760003560e01c8063715018a611610097578063a035b1fe11610066578063a035b1fe14610228578063ccc0f89b14610231578063f2fde38b14610244578063f84d13ef1461025757600080fd5b8063715018a6146101e557806376cdb03b146101ed5780638da5cb5b14610200578063996517cf1461021157600080fd5b80631cf11ca3116100d35780631cf11ca31461017057806324d7806c146101835780634ddd108a146101bf5780636cd262fb146101d257600080fd5b8063090d23b9146101055780630bcced1c1461011a5780631129490d1461012d57806318e20ecf1461015d575b600080fd5b610118610113366004610a2e565b61026a565b005b610118610128366004610afa565b6102bf565b604b54610140906001600160a01b031681565b6040516001600160a01b0390911681526020015b60405180910390f35b61011861016b366004610b75565b610432565b61011861017e366004610a2e565b6104e2565b6101af610191366004610a2e565b6001600160a01b031660009081526020819052604090205460ff1690565b6040519015158152602001610154565b604c54610140906001600160a01b031681565b6101186101e0366004610a2e565b61052e565b61011861057a565b604d54610140906001600160a01b031681565b6001546001600160a01b0316610140565b61021a604f5481565b604051908152602001610154565b61021a604e5481565b61011861023f366004610bac565b6105b0565b610118610252366004610a2e565b6107f6565b610118610265366004610bac565b610891565b6001546001600160a01b0316331461029d5760405162461bcd60e51b815260040161029490610bc5565b60405180910390fd5b604d80546001600160a01b0319166001600160a01b0392909216919091179055565b6102c833610191565b61031f5760405162461bcd60e51b815260206004820152602260248201527f41646d696e61626c653a2063616c6c6572206973206e6f74207468652061646d60448201526134b760f11b6064820152608401610294565b828251146103645760405162461bcd60e51b81526020600482015260126024820152713632b33a39903632b733ba341032b93937b960711b6044820152606401610294565b828151146103aa5760405162461bcd60e51b81526020600482015260136024820152723934b3b43a39903632b733ba341032b93937b960691b6044820152606401610294565b600283905560005b60025481101561042c578281815181106103ce576103ce610c07565b6020026020010151600382602481106103e9576103e9610c07565b015581518290829081106103ff576103ff610c07565b60200260200101516027826024811061041a5761041a610c07565b015561042581610c33565b90506103b2565b50505050565b6001546001600160a01b0316331461045c5760405162461bcd60e51b815260040161029490610bc5565b6001600160a01b0382166000818152602081815260409182902054825160ff90911615158152841515918101919091527f82f1fa40a3d82dea3e406073819290601f436580aa7c69f9feb61f885bdd8854910160405180910390a26001600160a01b03919091166000908152602081905260409020805460ff1916911515919091179055565b6001546001600160a01b0316331461050c5760405162461bcd60e51b815260040161029490610bc5565b604c80546001600160a01b0319166001600160a01b0392909216919091179055565b6001546001600160a01b031633146105585760405162461bcd60e51b815260040161029490610bc5565b604b80546001600160a01b0319166001600160a01b0392909216919091179055565b6001546001600160a01b031633146105a45760405162461bcd60e51b815260040161029490610bc5565b6105ae60006108c0565b565b604f548111156106025760405162461bcd60e51b815260206004820152601860248201527f45786365656420746865206d6178696d756d206c696d697400000000000000006044820152606401610294565b600081604e546106129190610c4c565b604c54604d546040516323b872dd60e01b81523360048201526001600160a01b0391821660248201526044810184905292935016906323b872dd906064016020604051808303816000875af115801561066f573d6000803e3d6000fd5b505050506040513d601f19601f820116820180604052508101906106939190610c63565b5060008267ffffffffffffffff8111156106af576106af610a49565b6040519080825280602002602001820160405280156106d8578160200160208202803683370190505b50905060008367ffffffffffffffff8111156106f6576106f6610a49565b60405190808252806020026020018201604052801561071f578160200160208202803683370190505b50905060005b8481101561078957600061073882610912565b90508084838151811061074d5761074d610c07565b602002602001018181525050600183838151811061076d5761076d610c07565b60209081029190910101525061078281610c33565b9050610725565b50604b5460405163ee1e944560e01b81526001600160a01b039091169063ee1e9445906107be90339086908690600401610cc2565b600060405180830381600087803b1580156107d857600080fd5b505af11580156107ec573d6000803e3d6000fd5b5050505050505050565b6001546001600160a01b031633146108205760405162461bcd60e51b815260040161029490610bc5565b6001600160a01b0381166108855760405162461bcd60e51b815260206004820152602660248201527f4f776e61626c653a206e6577206f776e657220697320746865207a65726f206160448201526564647265737360d01b6064820152608401610294565b61088e816108c0565b50565b6001546001600160a01b031633146108bb5760405162461bcd60e51b815260040161029490610bc5565b604e55565b600180546001600160a01b038381166001600160a01b0319831681179093556040519116919082907f8be0079c531659141344cd1fd0a4f28419497f9722a3daafe3b4186f6b6457e090600090a35050565b60008061092160025484610999565b905060005b60025481101561098f576003816024811061094357610943610c07565b01548211801561096757506027816024811061096157610961610c07565b01548211155b1561097f57610977816001610d02565b949350505050565b61098881610c33565b9050610926565b5060009392505050565b600082424433856040516020016109db9493929190938452602084019290925260601b6bffffffffffffffffffffffff19166040830152605482015260740190565b6040516020818303038152906040528051906020012060001c6109fe9190610d15565b610a09906001610d02565b90505b92915050565b80356001600160a01b0381168114610a2957600080fd5b919050565b600060208284031215610a4057600080fd5b610a0982610a12565b634e487b7160e01b600052604160045260246000fd5b600082601f830112610a7057600080fd5b8135602067ffffffffffffffff80831115610a8d57610a8d610a49565b8260051b604051601f19603f83011681018181108482111715610ab257610ab2610a49565b604052938452858101830193838101925087851115610ad057600080fd5b83870191505b84821015610aef57813583529183019190830190610ad6565b979650505050505050565b600080600060608486031215610b0f57600080fd5b83359250602084013567ffffffffffffffff80821115610b2e57600080fd5b610b3a87838801610a5f565b93506040860135915080821115610b5057600080fd5b50610b5d86828701610a5f565b9150509250925092565b801515811461088e57600080fd5b60008060408385031215610b8857600080fd5b610b9183610a12565b91506020830135610ba181610b67565b809150509250929050565b600060208284031215610bbe57600080fd5b5035919050565b60208082526022908201527f41646d696e61626c653a2063616c6c6572206973206e6f7420746865206f776e60408201526132b960f11b606082015260800190565b634e487b7160e01b600052603260045260246000fd5b634e487b7160e01b600052601160045260246000fd5b600060018201610c4557610c45610c1d565b5060010190565b8082028115828204841417610a0c57610a0c610c1d565b600060208284031215610c7557600080fd5b8151610c8081610b67565b9392505050565b600081518084526020808501945080840160005b83811015610cb757815187529582019590820190600101610c9b565b509495945050505050565b6001600160a01b0384168152606060208201819052600090610ce690830185610c87565b8281036040840152610cf88185610c87565b9695505050505050565b80820180821115610a0c57610a0c610c1d565b600082610d3257634e487b7160e01b600052601260045260246000fd5b50069056fea26469706673582212206a4c5bda3c3a9d49c988b15ac571f275ceefc5b81c7c7e24c8bee9e770b6db8364736f6c63430008110033",
			"opcodes": "PUSH1 0x24 PUSH1 0x2 DUP2 DUP2 SSTORE PUSH2 0x500 PUSH1 0x40 MSTORE PUSH1 0x0 PUSH1 0x80 SWAP1 DUP2 MSTORE PUSH1 0x1 PUSH1 0xA0 MSTORE PUSH1 0xC0 SWAP2 SWAP1 SWAP2 MSTORE PUSH1 0x3 PUSH1 0xE0 DUP2 SWAP1 MSTORE PUSH1 0x4 PUSH2 0x100 MSTORE PUSH1 0x5 PUSH2 0x120 MSTORE PUSH1 0x6 PUSH2 0x140 MSTORE PUSH1 0x7 PUSH2 0x160 MSTORE PUSH1 0x8 PUSH2 0x180 MSTORE PUSH1 0x9 PUSH2 0x1A0 MSTORE PUSH1 0xA PUSH2 0x1C0 MSTORE PUSH1 0xB PUSH2 0x1E0 MSTORE PUSH1 0xC PUSH2 0x200 MSTORE PUSH1 0xD PUSH2 0x220 MSTORE PUSH1 0xE PUSH2 0x240 MSTORE PUSH1 0xF PUSH2 0x260 MSTORE PUSH1 0x10 PUSH2 0x280 MSTORE PUSH1 0x11 PUSH2 0x2A0 MSTORE PUSH1 0x12 PUSH2 0x2C0 MSTORE PUSH1 0x13 PUSH2 0x2E0 MSTORE PUSH1 0x14 PUSH2 0x300 MSTORE PUSH1 0x15 PUSH2 0x320 MSTORE PUSH1 0x16 PUSH2 0x340 MSTORE PUSH1 0x17 PUSH2 0x360 MSTORE PUSH1 0x18 PUSH2 0x380 MSTORE PUSH1 0x19 PUSH2 0x3A0 MSTORE PUSH1 0x1A PUSH2 0x3C0 MSTORE PUSH1 0x1B PUSH2 0x3E0 MSTORE PUSH1 0x1C PUSH2 0x400 MSTORE PUSH1 0x1D PUSH2 0x420 MSTORE PUSH1 0x1E PUSH2 0x440 MSTORE PUSH1 0x1F PUSH2 0x460 MSTORE PUSH1 0x20 PUSH2 0x480 MSTORE PUSH1 0x21 PUSH2 0x4A0 MSTORE PUSH1 0x22 PUSH2 0x4C0 MSTORE PUSH1 0x23 PUSH2 0x4E0 MSTORE PUSH2 0xF1 SWAP3 SWAP1 SWAP2 SWAP1 PUSH2 0x29A JUMP JUMPDEST POP PUSH1 0x40 DUP1 MLOAD PUSH2 0x480 DUP2 ADD DUP3 MSTORE PUSH1 0x1 DUP2 MSTORE PUSH1 0x2 PUSH1 0x20 DUP1 DUP4 ADD SWAP2 SWAP1 SWAP2 MSTORE PUSH1 0x3 SWAP3 DUP3 ADD SWAP3 SWAP1 SWAP3 MSTORE PUSH1 0x4 PUSH1 0x60 DUP3 ADD MSTORE PUSH1 0x5 PUSH1 0x80 DUP3 ADD MSTORE PUSH1 0x6 PUSH1 0xA0 DUP3 ADD MSTORE PUSH1 0x7 PUSH1 0xC0 DUP3 ADD MSTORE PUSH1 0x8 PUSH1 0xE0 DUP3 ADD MSTORE PUSH1 0x9 PUSH2 0x100 DUP3 ADD MSTORE PUSH1 0xA PUSH2 0x120 DUP3 ADD MSTORE PUSH1 0xB PUSH2 0x140 DUP3 ADD MSTORE PUSH1 0xC PUSH2 0x160 DUP3 ADD MSTORE PUSH1 0xD PUSH2 0x180 DUP3 ADD MSTORE PUSH1 0xE PUSH2 0x1A0 DUP3 ADD MSTORE PUSH1 0xF PUSH2 0x1C0 DUP3 ADD MSTORE PUSH1 0x10 PUSH2 0x1E0 DUP3 ADD MSTORE PUSH1 0x11 PUSH2 0x200 DUP3 ADD MSTORE PUSH1 0x12 PUSH2 0x220 DUP3 ADD MSTORE PUSH1 0x13 PUSH2 0x240 DUP3 ADD MSTORE PUSH1 0x14 PUSH2 0x260 DUP3 ADD MSTORE PUSH1 0x15 PUSH2 0x280 DUP3 ADD MSTORE PUSH1 0x16 PUSH2 0x2A0 DUP3 ADD MSTORE PUSH1 0x17 PUSH2 0x2C0 DUP3 ADD MSTORE PUSH1 0x18 PUSH2 0x2E0 DUP3 ADD MSTORE PUSH1 0x19 PUSH2 0x300 DUP3 ADD MSTORE PUSH1 0x1A PUSH2 0x320 DUP3 ADD MSTORE PUSH1 0x1B PUSH2 0x340 DUP3 ADD MSTORE PUSH1 0x1C PUSH2 0x360 DUP3 ADD MSTORE PUSH1 0x1D PUSH2 0x380 DUP3 ADD MSTORE PUSH1 0x1E PUSH2 0x3A0 DUP3 ADD MSTORE PUSH1 0x1F PUSH2 0x3C0 DUP3 ADD MSTORE PUSH2 0x3E0 DUP2 ADD SWAP2 SWAP1 SWAP2 MSTORE PUSH1 0x21 PUSH2 0x400 DUP3 ADD MSTORE PUSH1 0x22 PUSH2 0x420 DUP3 ADD MSTORE PUSH1 0x23 PUSH2 0x440 DUP3 ADD MSTORE PUSH1 0x24 PUSH2 0x460 DUP3 ADD DUP2 SWAP1 MSTORE PUSH2 0x227 SWAP2 PUSH1 0x27 SWAP2 PUSH2 0x29A JUMP JUMPDEST POP PUSH1 0xA PUSH1 0x4F SSTORE CALLVALUE DUP1 ISZERO PUSH2 0x239 JUMPI PUSH1 0x0 DUP1 REVERT JUMPDEST POP PUSH2 0x243 CALLER PUSH2 0x248 JUMP JUMPDEST PUSH2 0x2F2 JUMP JUMPDEST PUSH1 0x1 DUP1 SLOAD PUSH1 0x1 PUSH1 0x1 PUSH1 0xA0 SHL SUB DUP4 DUP2 AND PUSH1 0x1 PUSH1 0x1 PUSH1 0xA0 SHL SUB NOT DUP4 AND DUP2 OR SWAP1 SWAP4 SSTORE PUSH1 0x40 MLOAD SWAP2 AND SWAP2 SWAP1 DUP3 SWAP1 PUSH32 0x8BE0079C531659141344CD1FD0A4F28419497F9722A3DAAFE3B4186F6B6457E0 SWAP1 PUSH1 0x0 SWAP1 LOG3 POP POP JUMP JUMPDEST DUP3 PUSH1 0x24 DUP2 ADD SWAP3 DUP3 ISZERO PUSH2 0x2CD JUMPI SWAP2 PUSH1 0x20 MUL DUP3 ADD JUMPDEST DUP3 DUP2 GT ISZERO PUSH2 0x2CD JUMPI DUP3 MLOAD DUP3 SWAP1 PUSH1 0xFF AND SWAP1 SSTORE SWAP2 PUSH1 0x20 ADD SWAP2 SWAP1 PUSH1 0x1 ADD SWAP1 PUSH2 0x2AD JUMP JUMPDEST POP PUSH2 0x2D9 SWAP3 SWAP2 POP PUSH2 0x2DD JUMP JUMPDEST POP SWAP1 JUMP JUMPDEST JUMPDEST DUP1 DUP3 GT ISZERO PUSH2 0x2D9 JUMPI PUSH1 0x0 DUP2 SSTORE PUSH1 0x1 ADD PUSH2 0x2DE JUMP JUMPDEST PUSH2 0xD6D DUP1 PUSH2 0x301 PUSH1 0x0 CODECOPY PUSH1 0x0 RETURN INVALID PUSH1 0x80 PUSH1 0x40 MSTORE CALLVALUE DUP1 ISZERO PUSH2 0x10 JUMPI PUSH1 0x0 DUP1 REVERT JUMPDEST POP PUSH1 0x4 CALLDATASIZE LT PUSH2 0x100 JUMPI PUSH1 0x0 CALLDATALOAD PUSH1 0xE0 SHR DUP1 PUSH4 0x715018A6 GT PUSH2 0x97 JUMPI DUP1 PUSH4 0xA035B1FE GT PUSH2 0x66 JUMPI DUP1 PUSH4 0xA035B1FE EQ PUSH2 0x228 JUMPI DUP1 PUSH4 0xCCC0F89B EQ PUSH2 0x231 JUMPI DUP1 PUSH4 0xF2FDE38B EQ PUSH2 0x244 JUMPI DUP1 PUSH4 0xF84D13EF EQ PUSH2 0x257 JUMPI PUSH1 0x0 DUP1 REVERT JUMPDEST DUP1 PUSH4 0x715018A6 EQ PUSH2 0x1E5 JUMPI DUP1 PUSH4 0x76CDB03B EQ PUSH2 0x1ED JUMPI DUP1 PUSH4 0x8DA5CB5B EQ PUSH2 0x200 JUMPI DUP1 PUSH4 0x996517CF EQ PUSH2 0x211 JUMPI PUSH1 0x0 DUP1 REVERT JUMPDEST DUP1 PUSH4 0x1CF11CA3 GT PUSH2 0xD3 JUMPI DUP1 PUSH4 0x1CF11CA3 EQ PUSH2 0x170 JUMPI DUP1 PUSH4 0x24D7806C EQ PUSH2 0x183 JUMPI DUP1 PUSH4 0x4DDD108A EQ PUSH2 0x1BF JUMPI DUP1 PUSH4 0x6CD262FB EQ PUSH2 0x1D2 JUMPI PUSH1 0x0 DUP1 REVERT JUMPDEST DUP1 PUSH4 0x90D23B9 EQ PUSH2 0x105 JUMPI DUP1 PUSH4 0xBCCED1C EQ PUSH2 0x11A JUMPI DUP1 PUSH4 0x1129490D EQ PUSH2 0x12D JUMPI DUP1 PUSH4 0x18E20ECF EQ PUSH2 0x15D JUMPI JUMPDEST PUSH1 0x0 DUP1 REVERT JUMPDEST PUSH2 0x118 PUSH2 0x113 CALLDATASIZE PUSH1 0x4 PUSH2 0xA2E JUMP JUMPDEST PUSH2 0x26A JUMP JUMPDEST STOP JUMPDEST PUSH2 0x118 PUSH2 0x128 CALLDATASIZE PUSH1 0x4 PUSH2 0xAFA JUMP JUMPDEST PUSH2 0x2BF JUMP JUMPDEST PUSH1 0x4B SLOAD PUSH2 0x140 SWAP1 PUSH1 0x1 PUSH1 0x1 PUSH1 0xA0 SHL SUB AND DUP2 JUMP JUMPDEST PUSH1 0x40 MLOAD PUSH1 0x1 PUSH1 0x1 PUSH1 0xA0 SHL SUB SWAP1 SWAP2 AND DUP2 MSTORE PUSH1 0x20 ADD JUMPDEST PUSH1 0x40 MLOAD DUP1 SWAP2 SUB SWAP1 RETURN JUMPDEST PUSH2 0x118 PUSH2 0x16B CALLDATASIZE PUSH1 0x4 PUSH2 0xB75 JUMP JUMPDEST PUSH2 0x432 JUMP JUMPDEST PUSH2 0x118 PUSH2 0x17E CALLDATASIZE PUSH1 0x4 PUSH2 0xA2E JUMP JUMPDEST PUSH2 0x4E2 JUMP JUMPDEST PUSH2 0x1AF PUSH2 0x191 CALLDATASIZE PUSH1 0x4 PUSH2 0xA2E JUMP JUMPDEST PUSH1 0x1 PUSH1 0x1 PUSH1 0xA0 SHL SUB AND PUSH1 0x0 SWAP1 DUP2 MSTORE PUSH1 0x20 DUP2 SWAP1 MSTORE PUSH1 0x40 SWAP1 KECCAK256 SLOAD PUSH1 0xFF AND SWAP1 JUMP JUMPDEST PUSH1 0x40 MLOAD SWAP1 ISZERO ISZERO DUP2 MSTORE PUSH1 0x20 ADD PUSH2 0x154 JUMP JUMPDEST PUSH1 0x4C SLOAD PUSH2 0x140 SWAP1 PUSH1 0x1 PUSH1 0x1 PUSH1 0xA0 SHL SUB AND DUP2 JUMP JUMPDEST PUSH2 0x118 PUSH2 0x1E0 CALLDATASIZE PUSH1 0x4 PUSH2 0xA2E JUMP JUMPDEST PUSH2 0x52E JUMP JUMPDEST PUSH2 0x118 PUSH2 0x57A JUMP JUMPDEST PUSH1 0x4D SLOAD PUSH2 0x140 SWAP1 PUSH1 0x1 PUSH1 0x1 PUSH1 0xA0 SHL SUB AND DUP2 JUMP JUMPDEST PUSH1 0x1 SLOAD PUSH1 0x1 PUSH1 0x1 PUSH1 0xA0 SHL SUB AND PUSH2 0x140 JUMP JUMPDEST PUSH2 0x21A PUSH1 0x4F SLOAD DUP2 JUMP JUMPDEST PUSH1 0x40 MLOAD SWAP1 DUP2 MSTORE PUSH1 0x20 ADD PUSH2 0x154 JUMP JUMPDEST PUSH2 0x21A PUSH1 0x4E SLOAD DUP2 JUMP JUMPDEST PUSH2 0x118 PUSH2 0x23F CALLDATASIZE PUSH1 0x4 PUSH2 0xBAC JUMP JUMPDEST PUSH2 0x5B0 JUMP JUMPDEST PUSH2 0x118 PUSH2 0x252 CALLDATASIZE PUSH1 0x4 PUSH2 0xA2E JUMP JUMPDEST PUSH2 0x7F6 JUMP JUMPDEST PUSH2 0x118 PUSH2 0x265 CALLDATASIZE PUSH1 0x4 PUSH2 0xBAC JUMP JUMPDEST PUSH2 0x891 JUMP JUMPDEST PUSH1 0x1 SLOAD PUSH1 0x1 PUSH1 0x1 PUSH1 0xA0 SHL SUB AND CALLER EQ PUSH2 0x29D JUMPI PUSH1 0x40 MLOAD PUSH3 0x461BCD PUSH1 0xE5 SHL DUP2 MSTORE PUSH1 0x4 ADD PUSH2 0x294 SWAP1 PUSH2 0xBC5 JUMP JUMPDEST PUSH1 0x40 MLOAD DUP1 SWAP2 SUB SWAP1 REVERT JUMPDEST PUSH1 0x4D DUP1 SLOAD PUSH1 0x1 PUSH1 0x1 PUSH1 0xA0 SHL SUB NOT AND PUSH1 0x1 PUSH1 0x1 PUSH1 0xA0 SHL SUB SWAP3 SWAP1 SWAP3 AND SWAP2 SWAP1 SWAP2 OR SWAP1 SSTORE JUMP JUMPDEST PUSH2 0x2C8 CALLER PUSH2 0x191 JUMP JUMPDEST PUSH2 0x31F JUMPI PUSH1 0x40 MLOAD PUSH3 0x461BCD PUSH1 0xE5 SHL DUP2 MSTORE PUSH1 0x20 PUSH1 0x4 DUP3 ADD MSTORE PUSH1 0x22 PUSH1 0x24 DUP3 ADD MSTORE PUSH32 0x41646D696E61626C653A2063616C6C6572206973206E6F74207468652061646D PUSH1 0x44 DUP3 ADD MSTORE PUSH2 0x34B7 PUSH1 0xF1 SHL PUSH1 0x64 DUP3 ADD MSTORE PUSH1 0x84 ADD PUSH2 0x294 JUMP JUMPDEST DUP3 DUP3 MLOAD EQ PUSH2 0x364 JUMPI PUSH1 0x40 MLOAD PUSH3 0x461BCD PUSH1 0xE5 SHL DUP2 MSTORE PUSH1 0x20 PUSH1 0x4 DUP3 ADD MSTORE PUSH1 0x12 PUSH1 0x24 DUP3 ADD MSTORE PUSH18 0x3632B33A39903632B733BA341032B93937B9 PUSH1 0x71 SHL PUSH1 0x44 DUP3 ADD MSTORE PUSH1 0x64 ADD PUSH2 0x294 JUMP JUMPDEST DUP3 DUP2 MLOAD EQ PUSH2 0x3AA JUMPI PUSH1 0x40 MLOAD PUSH3 0x461BCD PUSH1 0xE5 SHL DUP2 MSTORE PUSH1 0x20 PUSH1 0x4 DUP3 ADD MSTORE PUSH1 0x13 PUSH1 0x24 DUP3 ADD MSTORE PUSH19 0x3934B3B43A39903632B733BA341032B93937B9 PUSH1 0x69 SHL PUSH1 0x44 DUP3 ADD MSTORE PUSH1 0x64 ADD PUSH2 0x294 JUMP JUMPDEST PUSH1 0x2 DUP4 SWAP1 SSTORE PUSH1 0x0 JUMPDEST PUSH1 0x2 SLOAD DUP2 LT ISZERO PUSH2 0x42C JUMPI DUP3 DUP2 DUP2 MLOAD DUP2 LT PUSH2 0x3CE JUMPI PUSH2 0x3CE PUSH2 0xC07 JUMP JUMPDEST PUSH1 0x20 MUL PUSH1 0x20 ADD ADD MLOAD PUSH1 0x3 DUP3 PUSH1 0x24 DUP2 LT PUSH2 0x3E9 JUMPI PUSH2 0x3E9 PUSH2 0xC07 JUMP JUMPDEST ADD SSTORE DUP2 MLOAD DUP3 SWAP1 DUP3 SWAP1 DUP2 LT PUSH2 0x3FF JUMPI PUSH2 0x3FF PUSH2 0xC07 JUMP JUMPDEST PUSH1 0x20 MUL PUSH1 0x20 ADD ADD MLOAD PUSH1 0x27 DUP3 PUSH1 0x24 DUP2 LT PUSH2 0x41A JUMPI PUSH2 0x41A PUSH2 0xC07 JUMP JUMPDEST ADD SSTORE PUSH2 0x425 DUP2 PUSH2 0xC33 JUMP JUMPDEST SWAP1 POP PUSH2 0x3B2 JUMP JUMPDEST POP POP POP POP JUMP JUMPDEST PUSH1 0x1 SLOAD PUSH1 0x1 PUSH1 0x1 PUSH1 0xA0 SHL SUB AND CALLER EQ PUSH2 0x45C JUMPI PUSH1 0x40 MLOAD PUSH3 0x461BCD PUSH1 0xE5 SHL DUP2 MSTORE PUSH1 0x4 ADD PUSH2 0x294 SWAP1 PUSH2 0xBC5 JUMP JUMPDEST PUSH1 0x1 PUSH1 0x1 PUSH1 0xA0 SHL SUB DUP3 AND PUSH1 0x0 DUP2 DUP2 MSTORE PUSH1 0x20 DUP2 DUP2 MSTORE PUSH1 0x40 SWAP2 DUP3 SWAP1 KECCAK256 SLOAD DUP3 MLOAD PUSH1 0xFF SWAP1 SWAP2 AND ISZERO ISZERO DUP2 MSTORE DUP5 ISZERO ISZERO SWAP2 DUP2 ADD SWAP2 SWAP1 SWAP2 MSTORE PUSH32 0x82F1FA40A3D82DEA3E406073819290601F436580AA7C69F9FEB61F885BDD8854 SWAP2 ADD PUSH1 0x40 MLOAD DUP1 SWAP2 SUB SWAP1 LOG2 PUSH1 0x1 PUSH1 0x1 PUSH1 0xA0 SHL SUB SWAP2 SWAP1 SWAP2 AND PUSH1 0x0 SWAP1 DUP2 MSTORE PUSH1 0x20 DUP2 SWAP1 MSTORE PUSH1 0x40 SWAP1 KECCAK256 DUP1 SLOAD PUSH1 0xFF NOT AND SWAP2 ISZERO ISZERO SWAP2 SWAP1 SWAP2 OR SWAP1 SSTORE JUMP JUMPDEST PUSH1 0x1 SLOAD PUSH1 0x1 PUSH1 0x1 PUSH1 0xA0 SHL SUB AND CALLER EQ PUSH2 0x50C JUMPI PUSH1 0x40 MLOAD PUSH3 0x461BCD PUSH1 0xE5 SHL DUP2 MSTORE PUSH1 0x4 ADD PUSH2 0x294 SWAP1 PUSH2 0xBC5 JUMP JUMPDEST PUSH1 0x4C DUP1 SLOAD PUSH1 0x1 PUSH1 0x1 PUSH1 0xA0 SHL SUB NOT AND PUSH1 0x1 PUSH1 0x1 PUSH1 0xA0 SHL SUB SWAP3 SWAP1 SWAP3 AND SWAP2 SWAP1 SWAP2 OR SWAP1 SSTORE JUMP JUMPDEST PUSH1 0x1 SLOAD PUSH1 0x1 PUSH1 0x1 PUSH1 0xA0 SHL SUB AND CALLER EQ PUSH2 0x558 JUMPI PUSH1 0x40 MLOAD PUSH3 0x461BCD PUSH1 0xE5 SHL DUP2 MSTORE PUSH1 0x4 ADD PUSH2 0x294 SWAP1 PUSH2 0xBC5 JUMP JUMPDEST PUSH1 0x4B DUP1 SLOAD PUSH1 0x1 PUSH1 0x1 PUSH1 0xA0 SHL SUB NOT AND PUSH1 0x1 PUSH1 0x1 PUSH1 0xA0 SHL SUB SWAP3 SWAP1 SWAP3 AND SWAP2 SWAP1 SWAP2 OR SWAP1 SSTORE JUMP JUMPDEST PUSH1 0x1 SLOAD PUSH1 0x1 PUSH1 0x1 PUSH1 0xA0 SHL SUB AND CALLER EQ PUSH2 0x5A4 JUMPI PUSH1 0x40 MLOAD PUSH3 0x461BCD PUSH1 0xE5 SHL DUP2 MSTORE PUSH1 0x4 ADD PUSH2 0x294 SWAP1 PUSH2 0xBC5 JUMP JUMPDEST PUSH2 0x5AE PUSH1 0x0 PUSH2 0x8C0 JUMP JUMPDEST JUMP JUMPDEST PUSH1 0x4F SLOAD DUP2 GT ISZERO PUSH2 0x602 JUMPI PUSH1 0x40 MLOAD PUSH3 0x461BCD PUSH1 0xE5 SHL DUP2 MSTORE PUSH1 0x20 PUSH1 0x4 DUP3 ADD MSTORE PUSH1 0x18 PUSH1 0x24 DUP3 ADD MSTORE PUSH32 0x45786365656420746865206D6178696D756D206C696D69740000000000000000 PUSH1 0x44 DUP3 ADD MSTORE PUSH1 0x64 ADD PUSH2 0x294 JUMP JUMPDEST PUSH1 0x0 DUP2 PUSH1 0x4E SLOAD PUSH2 0x612 SWAP2 SWAP1 PUSH2 0xC4C JUMP JUMPDEST PUSH1 0x4C SLOAD PUSH1 0x4D SLOAD PUSH1 0x40 MLOAD PUSH4 0x23B872DD PUSH1 0xE0 SHL DUP2 MSTORE CALLER PUSH1 0x4 DUP3 ADD MSTORE PUSH1 0x1 PUSH1 0x1 PUSH1 0xA0 SHL SUB SWAP2 DUP3 AND PUSH1 0x24 DUP3 ADD MSTORE PUSH1 0x44 DUP2 ADD DUP5 SWAP1 MSTORE SWAP3 SWAP4 POP AND SWAP1 PUSH4 0x23B872DD SWAP1 PUSH1 0x64 ADD PUSH1 0x20 PUSH1 0x40 MLOAD DUP1 DUP4 SUB DUP2 PUSH1 0x0 DUP8 GAS CALL ISZERO DUP1 ISZERO PUSH2 0x66F JUMPI RETURNDATASIZE PUSH1 0x0 DUP1 RETURNDATACOPY RETURNDATASIZE PUSH1 0x0 REVERT JUMPDEST POP POP POP POP PUSH1 0x40 MLOAD RETURNDATASIZE PUSH1 0x1F NOT PUSH1 0x1F DUP3 ADD AND DUP3 ADD DUP1 PUSH1 0x40 MSTORE POP DUP2 ADD SWAP1 PUSH2 0x693 SWAP2 SWAP1 PUSH2 0xC63 JUMP JUMPDEST POP PUSH1 0x0 DUP3 PUSH8 0xFFFFFFFFFFFFFFFF DUP2 GT ISZERO PUSH2 0x6AF JUMPI PUSH2 0x6AF PUSH2 0xA49 JUMP JUMPDEST PUSH1 0x40 MLOAD SWAP1 DUP1 DUP3 MSTORE DUP1 PUSH1 0x20 MUL PUSH1 0x20 ADD DUP3 ADD PUSH1 0x40 MSTORE DUP1 ISZERO PUSH2 0x6D8 JUMPI DUP2 PUSH1 0x20 ADD PUSH1 0x20 DUP3 MUL DUP1 CALLDATASIZE DUP4 CALLDATACOPY ADD SWAP1 POP JUMPDEST POP SWAP1 POP PUSH1 0x0 DUP4 PUSH8 0xFFFFFFFFFFFFFFFF DUP2 GT ISZERO PUSH2 0x6F6 JUMPI PUSH2 0x6F6 PUSH2 0xA49 JUMP JUMPDEST PUSH1 0x40 MLOAD SWAP1 DUP1 DUP3 MSTORE DUP1 PUSH1 0x20 MUL PUSH1 0x20 ADD DUP3 ADD PUSH1 0x40 MSTORE DUP1 ISZERO PUSH2 0x71F JUMPI DUP2 PUSH1 0x20 ADD PUSH1 0x20 DUP3 MUL DUP1 CALLDATASIZE DUP4 CALLDATACOPY ADD SWAP1 POP JUMPDEST POP SWAP1 POP PUSH1 0x0 JUMPDEST DUP5 DUP2 LT ISZERO PUSH2 0x789 JUMPI PUSH1 0x0 PUSH2 0x738 DUP3 PUSH2 0x912 JUMP JUMPDEST SWAP1 POP DUP1 DUP5 DUP4 DUP2 MLOAD DUP2 LT PUSH2 0x74D JUMPI PUSH2 0x74D PUSH2 0xC07 JUMP JUMPDEST PUSH1 0x20 MUL PUSH1 0x20 ADD ADD DUP2 DUP2 MSTORE POP POP PUSH1 0x1 DUP4 DUP4 DUP2 MLOAD DUP2 LT PUSH2 0x76D JUMPI PUSH2 0x76D PUSH2 0xC07 JUMP JUMPDEST PUSH1 0x20 SWAP1 DUP2 MUL SWAP2 SWAP1 SWAP2 ADD ADD MSTORE POP PUSH2 0x782 DUP2 PUSH2 0xC33 JUMP JUMPDEST SWAP1 POP PUSH2 0x725 JUMP JUMPDEST POP PUSH1 0x4B SLOAD PUSH1 0x40 MLOAD PUSH4 0xEE1E9445 PUSH1 0xE0 SHL DUP2 MSTORE PUSH1 0x1 PUSH1 0x1 PUSH1 0xA0 SHL SUB SWAP1 SWAP2 AND SWAP1 PUSH4 0xEE1E9445 SWAP1 PUSH2 0x7BE SWAP1 CALLER SWAP1 DUP7 SWAP1 DUP7 SWAP1 PUSH1 0x4 ADD PUSH2 0xCC2 JUMP JUMPDEST PUSH1 0x0 PUSH1 0x40 MLOAD DUP1 DUP4 SUB DUP2 PUSH1 0x0 DUP8 DUP1 EXTCODESIZE ISZERO DUP1 ISZERO PUSH2 0x7D8 JUMPI PUSH1 0x0 DUP1 REVERT JUMPDEST POP GAS CALL ISZERO DUP1 ISZERO PUSH2 0x7EC JUMPI RETURNDATASIZE PUSH1 0x0 DUP1 RETURNDATACOPY RETURNDATASIZE PUSH1 0x0 REVERT JUMPDEST POP POP POP POP POP POP POP POP JUMP JUMPDEST PUSH1 0x1 SLOAD PUSH1 0x1 PUSH1 0x1 PUSH1 0xA0 SHL SUB AND CALLER EQ PUSH2 0x820 JUMPI PUSH1 0x40 MLOAD PUSH3 0x461BCD PUSH1 0xE5 SHL DUP2 MSTORE PUSH1 0x4 ADD PUSH2 0x294 SWAP1 PUSH2 0xBC5 JUMP JUMPDEST PUSH1 0x1 PUSH1 0x1 PUSH1 0xA0 SHL SUB DUP2 AND PUSH2 0x885 JUMPI PUSH1 0x40 MLOAD PUSH3 0x461BCD PUSH1 0xE5 SHL DUP2 MSTORE PUSH1 0x20 PUSH1 0x4 DUP3 ADD MSTORE PUSH1 0x26 PUSH1 0x24 DUP3 ADD MSTORE PUSH32 0x4F776E61626C653A206E6577206F776E657220697320746865207A65726F2061 PUSH1 0x44 DUP3 ADD MSTORE PUSH6 0x646472657373 PUSH1 0xD0 SHL PUSH1 0x64 DUP3 ADD MSTORE PUSH1 0x84 ADD PUSH2 0x294 JUMP JUMPDEST PUSH2 0x88E DUP2 PUSH2 0x8C0 JUMP JUMPDEST POP JUMP JUMPDEST PUSH1 0x1 SLOAD PUSH1 0x1 PUSH1 0x1 PUSH1 0xA0 SHL SUB AND CALLER EQ PUSH2 0x8BB JUMPI PUSH1 0x40 MLOAD PUSH3 0x461BCD PUSH1 0xE5 SHL DUP2 MSTORE PUSH1 0x4 ADD PUSH2 0x294 SWAP1 PUSH2 0xBC5 JUMP JUMPDEST PUSH1 0x4E SSTORE JUMP JUMPDEST PUSH1 0x1 DUP1 SLOAD PUSH1 0x1 PUSH1 0x1 PUSH1 0xA0 SHL SUB DUP4 DUP2 AND PUSH1 0x1 PUSH1 0x1 PUSH1 0xA0 SHL SUB NOT DUP4 AND DUP2 OR SWAP1 SWAP4 SSTORE PUSH1 0x40 MLOAD SWAP2 AND SWAP2 SWAP1 DUP3 SWAP1 PUSH32 0x8BE0079C531659141344CD1FD0A4F28419497F9722A3DAAFE3B4186F6B6457E0 SWAP1 PUSH1 0x0 SWAP1 LOG3 POP POP JUMP JUMPDEST PUSH1 0x0 DUP1 PUSH2 0x921 PUSH1 0x2 SLOAD DUP5 PUSH2 0x999 JUMP JUMPDEST SWAP1 POP PUSH1 0x0 JUMPDEST PUSH1 0x2 SLOAD DUP2 LT ISZERO PUSH2 0x98F JUMPI PUSH1 0x3 DUP2 PUSH1 0x24 DUP2 LT PUSH2 0x943 JUMPI PUSH2 0x943 PUSH2 0xC07 JUMP JUMPDEST ADD SLOAD DUP3 GT DUP1 ISZERO PUSH2 0x967 JUMPI POP PUSH1 0x27 DUP2 PUSH1 0x24 DUP2 LT PUSH2 0x961 JUMPI PUSH2 0x961 PUSH2 0xC07 JUMP JUMPDEST ADD SLOAD DUP3 GT ISZERO JUMPDEST ISZERO PUSH2 0x97F JUMPI PUSH2 0x977 DUP2 PUSH1 0x1 PUSH2 0xD02 JUMP JUMPDEST SWAP5 SWAP4 POP POP POP POP JUMP JUMPDEST PUSH2 0x988 DUP2 PUSH2 0xC33 JUMP JUMPDEST SWAP1 POP PUSH2 0x926 JUMP JUMPDEST POP PUSH1 0x0 SWAP4 SWAP3 POP POP POP JUMP JUMPDEST PUSH1 0x0 DUP3 TIMESTAMP DIFFICULTY CALLER DUP6 PUSH1 0x40 MLOAD PUSH1 0x20 ADD PUSH2 0x9DB SWAP5 SWAP4 SWAP3 SWAP2 SWAP1 SWAP4 DUP5 MSTORE PUSH1 0x20 DUP5 ADD SWAP3 SWAP1 SWAP3 MSTORE PUSH1 0x60 SHL PUSH12 0xFFFFFFFFFFFFFFFFFFFFFFFF NOT AND PUSH1 0x40 DUP4 ADD MSTORE PUSH1 0x54 DUP3 ADD MSTORE PUSH1 0x74 ADD SWAP1 JUMP JUMPDEST PUSH1 0x40 MLOAD PUSH1 0x20 DUP2 DUP4 SUB SUB DUP2 MSTORE SWAP1 PUSH1 0x40 MSTORE DUP1 MLOAD SWAP1 PUSH1 0x20 ADD KECCAK256 PUSH1 0x0 SHR PUSH2 0x9FE SWAP2 SWAP1 PUSH2 0xD15 JUMP JUMPDEST PUSH2 0xA09 SWAP1 PUSH1 0x1 PUSH2 0xD02 JUMP JUMPDEST SWAP1 POP JUMPDEST SWAP3 SWAP2 POP POP JUMP JUMPDEST DUP1 CALLDATALOAD PUSH1 0x1 PUSH1 0x1 PUSH1 0xA0 SHL SUB DUP2 AND DUP2 EQ PUSH2 0xA29 JUMPI PUSH1 0x0 DUP1 REVERT JUMPDEST SWAP2 SWAP1 POP JUMP JUMPDEST PUSH1 0x0 PUSH1 0x20 DUP3 DUP5 SUB SLT ISZERO PUSH2 0xA40 JUMPI PUSH1 0x0 DUP1 REVERT JUMPDEST PUSH2 0xA09 DUP3 PUSH2 0xA12 JUMP JUMPDEST PUSH4 0x4E487B71 PUSH1 0xE0 SHL PUSH1 0x0 MSTORE PUSH1 0x41 PUSH1 0x4 MSTORE PUSH1 0x24 PUSH1 0x0 REVERT JUMPDEST PUSH1 0x0 DUP3 PUSH1 0x1F DUP4 ADD SLT PUSH2 0xA70 JUMPI PUSH1 0x0 DUP1 REVERT JUMPDEST DUP2 CALLDATALOAD PUSH1 0x20 PUSH8 0xFFFFFFFFFFFFFFFF DUP1 DUP4 GT ISZERO PUSH2 0xA8D JUMPI PUSH2 0xA8D PUSH2 0xA49 JUMP JUMPDEST DUP3 PUSH1 0x5 SHL PUSH1 0x40 MLOAD PUSH1 0x1F NOT PUSH1 0x3F DUP4 ADD AND DUP2 ADD DUP2 DUP2 LT DUP5 DUP3 GT OR ISZERO PUSH2 0xAB2 JUMPI PUSH2 0xAB2 PUSH2 0xA49 JUMP JUMPDEST PUSH1 0x40 MSTORE SWAP4 DUP5 MSTORE DUP6 DUP2 ADD DUP4 ADD SWAP4 DUP4 DUP2 ADD SWAP3 POP DUP8 DUP6 GT ISZERO PUSH2 0xAD0 JUMPI PUSH1 0x0 DUP1 REVERT JUMPDEST DUP4 DUP8 ADD SWAP2 POP JUMPDEST DUP5 DUP3 LT ISZERO PUSH2 0xAEF JUMPI DUP2 CALLDATALOAD DUP4 MSTORE SWAP2 DUP4 ADD SWAP2 SWAP1 DUP4 ADD SWAP1 PUSH2 0xAD6 JUMP JUMPDEST SWAP8 SWAP7 POP POP POP POP POP POP POP JUMP JUMPDEST PUSH1 0x0 DUP1 PUSH1 0x0 PUSH1 0x60 DUP5 DUP7 SUB SLT ISZERO PUSH2 0xB0F JUMPI PUSH1 0x0 DUP1 REVERT JUMPDEST DUP4 CALLDATALOAD SWAP3 POP PUSH1 0x20 DUP5 ADD CALLDATALOAD PUSH8 0xFFFFFFFFFFFFFFFF DUP1 DUP3 GT ISZERO PUSH2 0xB2E JUMPI PUSH1 0x0 DUP1 REVERT JUMPDEST PUSH2 0xB3A DUP8 DUP4 DUP9 ADD PUSH2 0xA5F JUMP JUMPDEST SWAP4 POP PUSH1 0x40 DUP7 ADD CALLDATALOAD SWAP2 POP DUP1 DUP3 GT ISZERO PUSH2 0xB50 JUMPI PUSH1 0x0 DUP1 REVERT JUMPDEST POP PUSH2 0xB5D DUP7 DUP3 DUP8 ADD PUSH2 0xA5F JUMP JUMPDEST SWAP2 POP POP SWAP3 POP SWAP3 POP SWAP3 JUMP JUMPDEST DUP1 ISZERO ISZERO DUP2 EQ PUSH2 0x88E JUMPI PUSH1 0x0 DUP1 REVERT JUMPDEST PUSH1 0x0 DUP1 PUSH1 0x40 DUP4 DUP6 SUB SLT ISZERO PUSH2 0xB88 JUMPI PUSH1 0x0 DUP1 REVERT JUMPDEST PUSH2 0xB91 DUP4 PUSH2 0xA12 JUMP JUMPDEST SWAP2 POP PUSH1 0x20 DUP4 ADD CALLDATALOAD PUSH2 0xBA1 DUP2 PUSH2 0xB67 JUMP JUMPDEST DUP1 SWAP2 POP POP SWAP3 POP SWAP3 SWAP1 POP JUMP JUMPDEST PUSH1 0x0 PUSH1 0x20 DUP3 DUP5 SUB SLT ISZERO PUSH2 0xBBE JUMPI PUSH1 0x0 DUP1 REVERT JUMPDEST POP CALLDATALOAD SWAP2 SWAP1 POP JUMP JUMPDEST PUSH1 0x20 DUP1 DUP3 MSTORE PUSH1 0x22 SWAP1 DUP3 ADD MSTORE PUSH32 0x41646D696E61626C653A2063616C6C6572206973206E6F7420746865206F776E PUSH1 0x40 DUP3 ADD MSTORE PUSH2 0x32B9 PUSH1 0xF1 SHL PUSH1 0x60 DUP3 ADD MSTORE PUSH1 0x80 ADD SWAP1 JUMP JUMPDEST PUSH4 0x4E487B71 PUSH1 0xE0 SHL PUSH1 0x0 MSTORE PUSH1 0x32 PUSH1 0x4 MSTORE PUSH1 0x24 PUSH1 0x0 REVERT JUMPDEST PUSH4 0x4E487B71 PUSH1 0xE0 SHL PUSH1 0x0 MSTORE PUSH1 0x11 PUSH1 0x4 MSTORE PUSH1 0x24 PUSH1 0x0 REVERT JUMPDEST PUSH1 0x0 PUSH1 0x1 DUP3 ADD PUSH2 0xC45 JUMPI PUSH2 0xC45 PUSH2 0xC1D JUMP JUMPDEST POP PUSH1 0x1 ADD SWAP1 JUMP JUMPDEST DUP1 DUP3 MUL DUP2 ISZERO DUP3 DUP3 DIV DUP5 EQ OR PUSH2 0xA0C JUMPI PUSH2 0xA0C PUSH2 0xC1D JUMP JUMPDEST PUSH1 0x0 PUSH1 0x20 DUP3 DUP5 SUB SLT ISZERO PUSH2 0xC75 JUMPI PUSH1 0x0 DUP1 REVERT JUMPDEST DUP2 MLOAD PUSH2 0xC80 DUP2 PUSH2 0xB67 JUMP JUMPDEST SWAP4 SWAP3 POP POP POP JUMP JUMPDEST PUSH1 0x0 DUP2 MLOAD DUP1 DUP5 MSTORE PUSH1 0x20 DUP1 DUP6 ADD SWAP5 POP DUP1 DUP5 ADD PUSH1 0x0 JUMPDEST DUP4 DUP2 LT ISZERO PUSH2 0xCB7 JUMPI DUP2 MLOAD DUP8 MSTORE SWAP6 DUP3 ADD SWAP6 SWAP1 DUP3 ADD SWAP1 PUSH1 0x1 ADD PUSH2 0xC9B JUMP JUMPDEST POP SWAP5 SWAP6 SWAP5 POP POP POP POP POP JUMP JUMPDEST PUSH1 0x1 PUSH1 0x1 PUSH1 0xA0 SHL SUB DUP5 AND DUP2 MSTORE PUSH1 0x60 PUSH1 0x20 DUP3 ADD DUP2 SWAP1 MSTORE PUSH1 0x0 SWAP1 PUSH2 0xCE6 SWAP1 DUP4 ADD DUP6 PUSH2 0xC87 JUMP JUMPDEST DUP3 DUP2 SUB PUSH1 0x40 DUP5 ADD MSTORE PUSH2 0xCF8 DUP2 DUP6 PUSH2 0xC87 JUMP JUMPDEST SWAP7 SWAP6 POP POP POP POP POP POP JUMP JUMPDEST DUP1 DUP3 ADD DUP1 DUP3 GT ISZERO PUSH2 0xA0C JUMPI PUSH2 0xA0C PUSH2 0xC1D JUMP JUMPDEST PUSH1 0x0 DUP3 PUSH2 0xD32 JUMPI PUSH4 0x4E487B71 PUSH1 0xE0 SHL PUSH1 0x0 MSTORE PUSH1 0x12 PUSH1 0x4 MSTORE PUSH1 0x24 PUSH1 0x0 REVERT JUMPDEST POP MOD SWAP1 JUMP INVALID LOG2 PUSH5 0x6970667358 0x22 SLT KECCAK256 PUSH11 0x4C5BDA3C3A9D49C988B15A 0xC5 PUSH18 0xF275CEEFC5B81C7C7E24C8BEE9E770B6DB83 PUSH5 0x736F6C6343 STOP ADDMOD GT STOP CALLER "
		},
		"gasEstimates": {
			"creation": {
				"codeDepositCost": "687400",
				"executionCost": "infinite",
				"totalCost": "infinite"
			},
			"external": {
				"bank()": "2371",
				"isAdmin(address)": "2601",
				"mintLimit()": "2384",
				"mintWithBlindBox(uint256)": "infinite",
				"modificationAdmin(address,bool)": "30888",
				"money()": "2393",
				"owner()": "2387",
				"price()": "2317",
				"renounceOwnership()": "28140",
				"setBank(address)": "26739",
				"setBlindBoxPrice(uint256)": "24552",
				"setPayMoney(address)": "26738",
				"setRange(uint256,uint256[],uint256[])": "infinite",
				"setTeamNft(address)": "26804",
				"teamnft()": "2394",
				"transferOwnership(address)": "28382"
			}
		},
		"methodIdentifiers": {
			"bank()": "76cdb03b",
			"isAdmin(address)": "24d7806c",
			"mintLimit()": "996517cf",
			"mintWithBlindBox(uint256)": "ccc0f89b",
			"modificationAdmin(address,bool)": "18e20ecf",
			"money()": "4ddd108a",
			"owner()": "8da5cb5b",
			"price()": "a035b1fe",
			"renounceOwnership()": "715018a6",
			"setBank(address)": "090d23b9",
			"setBlindBoxPrice(uint256)": "f84d13ef",
			"setPayMoney(address)": "1cf11ca3",
			"setRange(uint256,uint256[],uint256[])": "0bcced1c",
			"setTeamNft(address)": "6cd262fb",
			"teamnft()": "1129490d",
			"transferOwnership(address)": "f2fde38b"
		}
	},
	"abi": [
		{
			"anonymous": false,
			"inputs": [
				{
					"indexed": true,
					"internalType": "address",
					"name": "user",
					"type": "address"
				},
				{
					"indexed": false,
					"internalType": "uint256",
					"name": "tokenid",
					"type": "uint256"
				},
				{
					"indexed": false,
					"internalType": "uint256",
					"name": "amount",
					"type": "uint256"
				}
			],
			"name": "MintBlindBox",
			"type": "event"
		},
		{
			"anonymous": false,
			"inputs": [
				{
					"indexed": true,
					"internalType": "address",
					"name": "admin",
					"type": "address"
				},
				{
					"indexed": false,
					"internalType": "bool",
					"name": "oldState",
					"type": "bool"
				},
				{
					"indexed": false,
					"internalType": "bool",
					"name": "newState",
					"type": "bool"
				}
			],
			"name": "ModificationAdmin",
			"type": "event"
		},
		{
			"anonymous": false,
			"inputs": [
				{
					"indexed": true,
					"internalType": "address",
					"name": "previousOwner",
					"type": "address"
				},
				{
					"indexed": true,
					"internalType": "address",
					"name": "newOwner",
					"type": "address"
				}
			],
			"name": "OwnershipTransferred",
			"type": "event"
		},
		{
			"inputs": [],
			"name": "bank",
			"outputs": [
				{
					"internalType": "address",
					"name": "",
					"type": "address"
				}
			],
			"stateMutability": "view",
			"type": "function"
		},
		{
			"inputs": [
				{
					"internalType": "address",
					"name": "account",
					"type": "address"
				}
			],
			"name": "isAdmin",
			"outputs": [
				{
					"internalType": "bool",
					"name": "",
					"type": "bool"
				}
			],
			"stateMutability": "view",
			"type": "function"
		},
		{
			"inputs": [],
			"name": "mintLimit",
			"outputs": [
				{
					"internalType": "uint256",
					"name": "",
					"type": "uint256"
				}
			],
			"stateMutability": "view",
			"type": "function"
		},
		{
			"inputs": [
				{
					"internalType": "uint256",
					"name": "quantity",
					"type": "uint256"
				}
			],
			"name": "mintWithBlindBox",
			"outputs": [],
			"stateMutability": "nonpayable",
			"type": "function"
		},
		{
			"inputs": [
				{
					"internalType": "address",
					"name": "admin",
					"type": "address"
				},
				{
					"internalType": "bool",
					"name": "state",
					"type": "bool"
				}
			],
			"name": "modificationAdmin",
			"outputs": [],
			"stateMutability": "nonpayable",
			"type": "function"
		},
		{
			"inputs": [],
			"name": "money",
			"outputs": [
				{
					"internalType": "address",
					"name": "",
					"type": "address"
				}
			],
			"stateMutability": "view",
			"type": "function"
		},
		{
			"inputs": [],
			"name": "owner",
			"outputs": [
				{
					"internalType": "address",
					"name": "",
					"type": "address"
				}
			],
			"stateMutability": "view",
			"type": "function"
		},
		{
			"inputs": [],
			"name": "price",
			"outputs": [
				{
					"internalType": "uint256",
					"name": "",
					"type": "uint256"
				}
			],
			"stateMutability": "view",
			"type": "function"
		},
		{
			"inputs": [],
			"name": "renounceOwnership",
			"outputs": [],
			"stateMutability": "nonpayable",
			"type": "function"
		},
		{
			"inputs": [
				{
					"internalType": "address",
					"name": "_bank",
					"type": "address"
				}
			],
			"name": "setBank",
			"outputs": [],
			"stateMutability": "nonpayable",
			"type": "function"
		},
		{
			"inputs": [
				{
					"internalType": "uint256",
					"name": "_price",
					"type": "uint256"
				}
			],
			"name": "setBlindBoxPrice",
			"outputs": [],
			"stateMutability": "nonpayable",
			"type": "function"
		},
		{
			"inputs": [
				{
					"internalType": "address",
					"name": "paymoney",
					"type": "address"
				}
			],
			"name": "setPayMoney",
			"outputs": [],
			"stateMutability": "nonpayable",
			"type": "function"
		},
		{
			"inputs": [
				{
					"internalType": "uint256",
					"name": "_numbers",
					"type": "uint256"
				},
				{
					"internalType": "uint256[]",
					"name": "_lefts",
					"type": "uint256[]"
				},
				{
					"internalType": "uint256[]",
					"name": "_rights",
					"type": "uint256[]"
				}
			],
			"name": "setRange",
			"outputs": [],
			"stateMutability": "nonpayable",
			"type": "function"
		},
		{
			"inputs": [
				{
					"internalType": "address",
					"name": "nft",
					"type": "address"
				}
			],
			"name": "setTeamNft",
			"outputs": [],
			"stateMutability": "nonpayable",
			"type": "function"
		},
		{
			"inputs": [],
			"name": "teamnft",
			"outputs": [
				{
					"internalType": "address",
					"name": "",
					"type": "address"
				}
			],
			"stateMutability": "view",
			"type": "function"
		},
		{
			"inputs": [
				{
					"internalType": "address",
					"name": "newOwner",
					"type": "address"
				}
			],
			"name": "transferOwnership",
			"outputs": [],
			"stateMutability": "nonpayable",
			"type": "function"
		}
	]
}