{
	"data": {
		"bytecode": {
			"linkReferences": {},
			"object": "602060008181556104806040526080908152600160a0819052600260c052600360e05260046101005260056101205260066101405260076101605260086101805260096101a052600a6101c052600b6101e052600c61020052600d61022052600e61024052600f6102605260106102805260116102a05260126102c05260136102e05260146103005260156103205260166103405260176103605260186103805260196103a052601a6103c052601b6103e052601c61040052601d61042052601e61044052601f610460526100d69290919061029b565b5060408051610400810182526001815260026020808301919091526003928201929092526004606082015260056080820152600660a0820152600760c0820152600860e08201526009610100820152600a610120820152600b610140820152600c610160820152600d610180820152600e6101a0820152600f6101c082015260106101e08201526011610200820152601261022082015260136102408201526014610260820152601561028082015260166102a082015260176102c082015260186102e08201526019610300820152601a610320820152601b610340820152601c610360820152601d610380820152601e6103a0820152601f6103c08201526103e081018290526101ea916021919061029b565b5060418054600160a31b63ffffffff60a01b199091161790556000604255604380546001600160a01b031916731b782899853e1f070df4452927702ac6e8b7c84f17905534801561023a57600080fd5b5061024433610249565b6102f3565b604180546001600160a01b038381166001600160a01b0319831681179093556040519116919082907f8be0079c531659141344cd1fd0a4f28419497f9722a3daafe3b4186f6b6457e090600090a35050565b82602081019282156102ce579160200282015b828111156102ce578251829060ff169055916020019190600101906102ae565b506102da9291506102de565b5090565b5b808211156102da57600081556001016102df565b61096e806103026000396000f3fe608060405234801561001057600080fd5b50600436106100ea5760003560e01c8063715018a61161008c578063a01df6b111610066578063a01df6b1146101b4578063c3d1ae8a146101c7578063e9ef2113146101f3578063f2fde38b1461020657600080fd5b8063715018a6146101885780637ede97ea146101905780638da5cb5b146101a357600080fd5b8063277fdeec116100c8578063277fdeec1461014f578063490c8ce2146101645780634f76a9241461016c5780636cd262fb1461017557600080fd5b80630a0c061d146100ef578063270e39941461010d57806327722f6a14610138575b600080fd5b6100f7610219565b60405161010491906106f4565b60405180910390f35b604354610120906001600160a01b031681565b6040516001600160a01b039091168152602001610104565b61014160005481565b604051908152602001610104565b61016261015d366004610740565b610255565b005b6100f76104e7565b61014160425481565b6101626101833660046107fe565b61051d565b610162610547565b61016261019e36600461082e565b61055b565b6041546001600160a01b0316610120565b6101416101c2366004610854565b610589565b6041546101de90600160a01b900463ffffffff1681565b60405163ffffffff9091168152602001610104565b610141610201366004610854565b6105a0565b6101626102143660046107fe565b6105b0565b6102216106d5565b604080516104008101918290529060019060209082845b815481526020019060010190808311610238575050505050905090565b6041548151600160a01b90910463ffffffff16146102b25760405162461bcd60e51b81526020600482015260156024820152743a37b5b2b734b210373ab6b132b9399032b93937b960591b60448201526064015b60405180910390fd5b6000815167ffffffffffffffff8111156102ce576102ce61072a565b6040519080825280602002602001820160405280156102f7578160200160208202803683370190505b50905060005b825181101561033557600182828151811061031a5761031a61086d565b602090810291909101015261032e81610883565b90506102fd565b506043546040516301e262b360e11b81526001600160a01b03909116906303c4c5669061036a903390869086906004016108e5565b600060405180830381600087803b15801561038457600080fd5b505af1158015610398573d6000803e3d6000fd5b5060009250600191506103a89050565b6040519080825280602002602001820160405280156103d1578160200160208202803683370190505b5060408051600180825281830190925291925060009190602080830190803683370190505090506042548260008151811061040e5761040e61086d565b60200260200101818152505060018160008151811061042f5761042f61086d565b602090810291909101015260435460405163ee1e944560e01b81526001600160a01b039091169063ee1e94459061046e903390869086906004016108e5565b600060405180830381600087803b15801561048857600080fd5b505af115801561049c573d6000803e3d6000fd5b50505050336001600160a01b03167f9db537efb3445bc4ffbb13f196ecad5449b45e9c26ebecc35b0b03751d017dc5856040516104d99190610925565b60405180910390a250505050565b6104ef6106d5565b6040805161040081019182905260218054825290916020906022828501808311610238575050505050905090565b610525610629565b604380546001600160a01b0319166001600160a01b0392909216919091179055565b61054f610629565b6105596000610683565b565b610563610629565b6041805463ffffffff909216600160a01b0263ffffffff60a01b19909216919091179055565b6001816020811061059957600080fd5b0154905081565b6021816020811061059957600080fd5b6105b8610629565b6001600160a01b03811661061d5760405162461bcd60e51b815260206004820152602660248201527f4f776e61626c653a206e6577206f776e657220697320746865207a65726f206160448201526564647265737360d01b60648201526084016102a9565b61062681610683565b50565b6041546001600160a01b031633146105595760405162461bcd60e51b815260206004820181905260248201527f4f776e61626c653a2063616c6c6572206973206e6f7420746865206f776e657260448201526064016102a9565b604180546001600160a01b038381166001600160a01b0319831681179093556040519116919082907f8be0079c531659141344cd1fd0a4f28419497f9722a3daafe3b4186f6b6457e090600090a35050565b6040518061040001604052806020906020820280368337509192915050565b6104008101818360005b602080821061070d5750610721565b8251845292830192909101906001016106fe565b50505092915050565b634e487b7160e01b600052604160045260246000fd5b6000602080838503121561075357600080fd5b823567ffffffffffffffff8082111561076b57600080fd5b818501915085601f83011261077f57600080fd5b8135818111156107915761079161072a565b8060051b604051601f19603f830116810181811085821117156107b6576107b661072a565b6040529182528482019250838101850191888311156107d457600080fd5b938501935b828510156107f2578435845293850193928501926107d9565b98975050505050505050565b60006020828403121561081057600080fd5b81356001600160a01b038116811461082757600080fd5b9392505050565b60006020828403121561084057600080fd5b813563ffffffff8116811461082757600080fd5b60006020828403121561086657600080fd5b5035919050565b634e487b7160e01b600052603260045260246000fd5b6000600182016108a357634e487b7160e01b600052601160045260246000fd5b5060010190565b600081518084526020808501945080840160005b838110156108da578151875295820195908201906001016108be565b509495945050505050565b6001600160a01b0384168152606060208201819052600090610909908301856108aa565b828103604084015261091b81856108aa565b9695505050505050565b60208152600061082760208301846108aa56fea2646970667358221220dd52bf992d995f64f0620308f5144348355c385bbe49c655cfe2a6595fd2ed1f64736f6c63430008110033",
			"opcodes": "PUSH1 0x20 PUSH1 0x0 DUP2 DUP2 SSTORE PUSH2 0x480 PUSH1 0x40 MSTORE PUSH1 0x80 SWAP1 DUP2 MSTORE PUSH1 0x1 PUSH1 0xA0 DUP2 SWAP1 MSTORE PUSH1 0x2 PUSH1 0xC0 MSTORE PUSH1 0x3 PUSH1 0xE0 MSTORE PUSH1 0x4 PUSH2 0x100 MSTORE PUSH1 0x5 PUSH2 0x120 MSTORE PUSH1 0x6 PUSH2 0x140 MSTORE PUSH1 0x7 PUSH2 0x160 MSTORE PUSH1 0x8 PUSH2 0x180 MSTORE PUSH1 0x9 PUSH2 0x1A0 MSTORE PUSH1 0xA PUSH2 0x1C0 MSTORE PUSH1 0xB PUSH2 0x1E0 MSTORE PUSH1 0xC PUSH2 0x200 MSTORE PUSH1 0xD PUSH2 0x220 MSTORE PUSH1 0xE PUSH2 0x240 MSTORE PUSH1 0xF PUSH2 0x260 MSTORE PUSH1 0x10 PUSH2 0x280 MSTORE PUSH1 0x11 PUSH2 0x2A0 MSTORE PUSH1 0x12 PUSH2 0x2C0 MSTORE PUSH1 0x13 PUSH2 0x2E0 MSTORE PUSH1 0x14 PUSH2 0x300 MSTORE PUSH1 0x15 PUSH2 0x320 MSTORE PUSH1 0x16 PUSH2 0x340 MSTORE PUSH1 0x17 PUSH2 0x360 MSTORE PUSH1 0x18 PUSH2 0x380 MSTORE PUSH1 0x19 PUSH2 0x3A0 MSTORE PUSH1 0x1A PUSH2 0x3C0 MSTORE PUSH1 0x1B PUSH2 0x3E0 MSTORE PUSH1 0x1C PUSH2 0x400 MSTORE PUSH1 0x1D PUSH2 0x420 MSTORE PUSH1 0x1E PUSH2 0x440 MSTORE PUSH1 0x1F PUSH2 0x460 MSTORE PUSH2 0xD6 SWAP3 SWAP1 SWAP2 SWAP1 PUSH2 0x29B JUMP JUMPDEST POP PUSH1 0x40 DUP1 MLOAD PUSH2 0x400 DUP2 ADD DUP3 MSTORE PUSH1 0x1 DUP2 MSTORE PUSH1 0x2 PUSH1 0x20 DUP1 DUP4 ADD SWAP2 SWAP1 SWAP2 MSTORE PUSH1 0x3 SWAP3 DUP3 ADD SWAP3 SWAP1 SWAP3 MSTORE PUSH1 0x4 PUSH1 0x60 DUP3 ADD MSTORE PUSH1 0x5 PUSH1 0x80 DUP3 ADD MSTORE PUSH1 0x6 PUSH1 0xA0 DUP3 ADD MSTORE PUSH1 0x7 PUSH1 0xC0 DUP3 ADD MSTORE PUSH1 0x8 PUSH1 0xE0 DUP3 ADD MSTORE PUSH1 0x9 PUSH2 0x100 DUP3 ADD MSTORE PUSH1 0xA PUSH2 0x120 DUP3 ADD MSTORE PUSH1 0xB PUSH2 0x140 DUP3 ADD MSTORE PUSH1 0xC PUSH2 0x160 DUP3 ADD MSTORE PUSH1 0xD PUSH2 0x180 DUP3 ADD MSTORE PUSH1 0xE PUSH2 0x1A0 DUP3 ADD MSTORE PUSH1 0xF PUSH2 0x1C0 DUP3 ADD MSTORE PUSH1 0x10 PUSH2 0x1E0 DUP3 ADD MSTORE PUSH1 0x11 PUSH2 0x200 DUP3 ADD MSTORE PUSH1 0x12 PUSH2 0x220 DUP3 ADD MSTORE PUSH1 0x13 PUSH2 0x240 DUP3 ADD MSTORE PUSH1 0x14 PUSH2 0x260 DUP3 ADD MSTORE PUSH1 0x15 PUSH2 0x280 DUP3 ADD MSTORE PUSH1 0x16 PUSH2 0x2A0 DUP3 ADD MSTORE PUSH1 0x17 PUSH2 0x2C0 DUP3 ADD MSTORE PUSH1 0x18 PUSH2 0x2E0 DUP3 ADD MSTORE PUSH1 0x19 PUSH2 0x300 DUP3 ADD MSTORE PUSH1 0x1A PUSH2 0x320 DUP3 ADD MSTORE PUSH1 0x1B PUSH2 0x340 DUP3 ADD MSTORE PUSH1 0x1C PUSH2 0x360 DUP3 ADD MSTORE PUSH1 0x1D PUSH2 0x380 DUP3 ADD MSTORE PUSH1 0x1E PUSH2 0x3A0 DUP3 ADD MSTORE PUSH1 0x1F PUSH2 0x3C0 DUP3 ADD MSTORE PUSH2 0x3E0 DUP2 ADD DUP3 SWAP1 MSTORE PUSH2 0x1EA SWAP2 PUSH1 0x21 SWAP2 SWAP1 PUSH2 0x29B JUMP JUMPDEST POP PUSH1 0x41 DUP1 SLOAD PUSH1 0x1 PUSH1 0xA3 SHL PUSH4 0xFFFFFFFF PUSH1 0xA0 SHL NOT SWAP1 SWAP2 AND OR SWAP1 SSTORE PUSH1 0x0 PUSH1 0x42 SSTORE PUSH1 0x43 DUP1 SLOAD PUSH1 0x1 PUSH1 0x1 PUSH1 0xA0 SHL SUB NOT AND PUSH20 0x1B782899853E1F070DF4452927702AC6E8B7C84F OR SWAP1 SSTORE CALLVALUE DUP1 ISZERO PUSH2 0x23A JUMPI PUSH1 0x0 DUP1 REVERT JUMPDEST POP PUSH2 0x244 CALLER PUSH2 0x249 JUMP JUMPDEST PUSH2 0x2F3 JUMP JUMPDEST PUSH1 0x41 DUP1 SLOAD PUSH1 0x1 PUSH1 0x1 PUSH1 0xA0 SHL SUB DUP4 DUP2 AND PUSH1 0x1 PUSH1 0x1 PUSH1 0xA0 SHL SUB NOT DUP4 AND DUP2 OR SWAP1 SWAP4 SSTORE PUSH1 0x40 MLOAD SWAP2 AND SWAP2 SWAP1 DUP3 SWAP1 PUSH32 0x8BE0079C531659141344CD1FD0A4F28419497F9722A3DAAFE3B4186F6B6457E0 SWAP1 PUSH1 0x0 SWAP1 LOG3 POP POP JUMP JUMPDEST DUP3 PUSH1 0x20 DUP2 ADD SWAP3 DUP3 ISZERO PUSH2 0x2CE JUMPI SWAP2 PUSH1 0x20 MUL DUP3 ADD JUMPDEST DUP3 DUP2 GT ISZERO PUSH2 0x2CE JUMPI DUP3 MLOAD DUP3 SWAP1 PUSH1 0xFF AND SWAP1 SSTORE SWAP2 PUSH1 0x20 ADD SWAP2 SWAP1 PUSH1 0x1 ADD SWAP1 PUSH2 0x2AE JUMP JUMPDEST POP PUSH2 0x2DA SWAP3 SWAP2 POP PUSH2 0x2DE JUMP JUMPDEST POP SWAP1 JUMP JUMPDEST JUMPDEST DUP1 DUP3 GT ISZERO PUSH2 0x2DA JUMPI PUSH1 0x0 DUP2 SSTORE PUSH1 0x1 ADD PUSH2 0x2DF JUMP JUMPDEST PUSH2 0x96E DUP1 PUSH2 0x302 PUSH1 0x0 CODECOPY PUSH1 0x0 RETURN INVALID PUSH1 0x80 PUSH1 0x40 MSTORE CALLVALUE DUP1 ISZERO PUSH2 0x10 JUMPI PUSH1 0x0 DUP1 REVERT JUMPDEST POP PUSH1 0x4 CALLDATASIZE LT PUSH2 0xEA JUMPI PUSH1 0x0 CALLDATALOAD PUSH1 0xE0 SHR DUP1 PUSH4 0x715018A6 GT PUSH2 0x8C JUMPI DUP1 PUSH4 0xA01DF6B1 GT PUSH2 0x66 JUMPI DUP1 PUSH4 0xA01DF6B1 EQ PUSH2 0x1B4 JUMPI DUP1 PUSH4 0xC3D1AE8A EQ PUSH2 0x1C7 JUMPI DUP1 PUSH4 0xE9EF2113 EQ PUSH2 0x1F3 JUMPI DUP1 PUSH4 0xF2FDE38B EQ PUSH2 0x206 JUMPI PUSH1 0x0 DUP1 REVERT JUMPDEST DUP1 PUSH4 0x715018A6 EQ PUSH2 0x188 JUMPI DUP1 PUSH4 0x7EDE97EA EQ PUSH2 0x190 JUMPI DUP1 PUSH4 0x8DA5CB5B EQ PUSH2 0x1A3 JUMPI PUSH1 0x0 DUP1 REVERT JUMPDEST DUP1 PUSH4 0x277FDEEC GT PUSH2 0xC8 JUMPI DUP1 PUSH4 0x277FDEEC EQ PUSH2 0x14F JUMPI DUP1 PUSH4 0x490C8CE2 EQ PUSH2 0x164 JUMPI DUP1 PUSH4 0x4F76A924 EQ PUSH2 0x16C JUMPI DUP1 PUSH4 0x6CD262FB EQ PUSH2 0x175 JUMPI PUSH1 0x0 DUP1 REVERT JUMPDEST DUP1 PUSH4 0xA0C061D EQ PUSH2 0xEF JUMPI DUP1 PUSH4 0x270E3994 EQ PUSH2 0x10D JUMPI DUP1 PUSH4 0x27722F6A EQ PUSH2 0x138 JUMPI JUMPDEST PUSH1 0x0 DUP1 REVERT JUMPDEST PUSH2 0xF7 PUSH2 0x219 JUMP JUMPDEST PUSH1 0x40 MLOAD PUSH2 0x104 SWAP2 SWAP1 PUSH2 0x6F4 JUMP JUMPDEST PUSH1 0x40 MLOAD DUP1 SWAP2 SUB SWAP1 RETURN JUMPDEST PUSH1 0x43 SLOAD PUSH2 0x120 SWAP1 PUSH1 0x1 PUSH1 0x1 PUSH1 0xA0 SHL SUB AND DUP2 JUMP JUMPDEST PUSH1 0x40 MLOAD PUSH1 0x1 PUSH1 0x1 PUSH1 0xA0 SHL SUB SWAP1 SWAP2 AND DUP2 MSTORE PUSH1 0x20 ADD PUSH2 0x104 JUMP JUMPDEST PUSH2 0x141 PUSH1 0x0 SLOAD DUP2 JUMP JUMPDEST PUSH1 0x40 MLOAD SWAP1 DUP2 MSTORE PUSH1 0x20 ADD PUSH2 0x104 JUMP JUMPDEST PUSH2 0x162 PUSH2 0x15D CALLDATASIZE PUSH1 0x4 PUSH2 0x740 JUMP JUMPDEST PUSH2 0x255 JUMP JUMPDEST STOP JUMPDEST PUSH2 0xF7 PUSH2 0x4E7 JUMP JUMPDEST PUSH2 0x141 PUSH1 0x42 SLOAD DUP2 JUMP JUMPDEST PUSH2 0x162 PUSH2 0x183 CALLDATASIZE PUSH1 0x4 PUSH2 0x7FE JUMP JUMPDEST PUSH2 0x51D JUMP JUMPDEST PUSH2 0x162 PUSH2 0x547 JUMP JUMPDEST PUSH2 0x162 PUSH2 0x19E CALLDATASIZE PUSH1 0x4 PUSH2 0x82E JUMP JUMPDEST PUSH2 0x55B JUMP JUMPDEST PUSH1 0x41 SLOAD PUSH1 0x1 PUSH1 0x1 PUSH1 0xA0 SHL SUB AND PUSH2 0x120 JUMP JUMPDEST PUSH2 0x141 PUSH2 0x1C2 CALLDATASIZE PUSH1 0x4 PUSH2 0x854 JUMP JUMPDEST PUSH2 0x589 JUMP JUMPDEST PUSH1 0x41 SLOAD PUSH2 0x1DE SWAP1 PUSH1 0x1 PUSH1 0xA0 SHL SWAP1 DIV PUSH4 0xFFFFFFFF AND DUP2 JUMP JUMPDEST PUSH1 0x40 MLOAD PUSH4 0xFFFFFFFF SWAP1 SWAP2 AND DUP2 MSTORE PUSH1 0x20 ADD PUSH2 0x104 JUMP JUMPDEST PUSH2 0x141 PUSH2 0x201 CALLDATASIZE PUSH1 0x4 PUSH2 0x854 JUMP JUMPDEST PUSH2 0x5A0 JUMP JUMPDEST PUSH2 0x162 PUSH2 0x214 CALLDATASIZE PUSH1 0x4 PUSH2 0x7FE JUMP JUMPDEST PUSH2 0x5B0 JUMP JUMPDEST PUSH2 0x221 PUSH2 0x6D5 JUMP JUMPDEST PUSH1 0x40 DUP1 MLOAD PUSH2 0x400 DUP2 ADD SWAP2 DUP3 SWAP1 MSTORE SWAP1 PUSH1 0x1 SWAP1 PUSH1 0x20 SWAP1 DUP3 DUP5 JUMPDEST DUP2 SLOAD DUP2 MSTORE PUSH1 0x20 ADD SWAP1 PUSH1 0x1 ADD SWAP1 DUP1 DUP4 GT PUSH2 0x238 JUMPI POP POP POP POP POP SWAP1 POP SWAP1 JUMP JUMPDEST PUSH1 0x41 SLOAD DUP2 MLOAD PUSH1 0x1 PUSH1 0xA0 SHL SWAP1 SWAP2 DIV PUSH4 0xFFFFFFFF AND EQ PUSH2 0x2B2 JUMPI PUSH1 0x40 MLOAD PUSH3 0x461BCD PUSH1 0xE5 SHL DUP2 MSTORE PUSH1 0x20 PUSH1 0x4 DUP3 ADD MSTORE PUSH1 0x15 PUSH1 0x24 DUP3 ADD MSTORE PUSH21 0x3A37B5B2B734B210373AB6B132B9399032B93937B9 PUSH1 0x59 SHL PUSH1 0x44 DUP3 ADD MSTORE PUSH1 0x64 ADD JUMPDEST PUSH1 0x40 MLOAD DUP1 SWAP2 SUB SWAP1 REVERT JUMPDEST PUSH1 0x0 DUP2 MLOAD PUSH8 0xFFFFFFFFFFFFFFFF DUP2 GT ISZERO PUSH2 0x2CE JUMPI PUSH2 0x2CE PUSH2 0x72A JUMP JUMPDEST PUSH1 0x40 MLOAD SWAP1 DUP1 DUP3 MSTORE DUP1 PUSH1 0x20 MUL PUSH1 0x20 ADD DUP3 ADD PUSH1 0x40 MSTORE DUP1 ISZERO PUSH2 0x2F7 JUMPI DUP2 PUSH1 0x20 ADD PUSH1 0x20 DUP3 MUL DUP1 CALLDATASIZE DUP4 CALLDATACOPY ADD SWAP1 POP JUMPDEST POP SWAP1 POP PUSH1 0x0 JUMPDEST DUP3 MLOAD DUP2 LT ISZERO PUSH2 0x335 JUMPI PUSH1 0x1 DUP3 DUP3 DUP2 MLOAD DUP2 LT PUSH2 0x31A JUMPI PUSH2 0x31A PUSH2 0x86D JUMP JUMPDEST PUSH1 0x20 SWAP1 DUP2 MUL SWAP2 SWAP1 SWAP2 ADD ADD MSTORE PUSH2 0x32E DUP2 PUSH2 0x883 JUMP JUMPDEST SWAP1 POP PUSH2 0x2FD JUMP JUMPDEST POP PUSH1 0x43 SLOAD PUSH1 0x40 MLOAD PUSH4 0x1E262B3 PUSH1 0xE1 SHL DUP2 MSTORE PUSH1 0x1 PUSH1 0x1 PUSH1 0xA0 SHL SUB SWAP1 SWAP2 AND SWAP1 PUSH4 0x3C4C566 SWAP1 PUSH2 0x36A SWAP1 CALLER SWAP1 DUP7 SWAP1 DUP7 SWAP1 PUSH1 0x4 ADD PUSH2 0x8E5 JUMP JUMPDEST PUSH1 0x0 PUSH1 0x40 MLOAD DUP1 DUP4 SUB DUP2 PUSH1 0x0 DUP8 DUP1 EXTCODESIZE ISZERO DUP1 ISZERO PUSH2 0x384 JUMPI PUSH1 0x0 DUP1 REVERT JUMPDEST POP GAS CALL ISZERO DUP1 ISZERO PUSH2 0x398 JUMPI RETURNDATASIZE PUSH1 0x0 DUP1 RETURNDATACOPY RETURNDATASIZE PUSH1 0x0 REVERT JUMPDEST POP PUSH1 0x0 SWAP3 POP PUSH1 0x1 SWAP2 POP PUSH2 0x3A8 SWAP1 POP JUMP JUMPDEST PUSH1 0x40 MLOAD SWAP1 DUP1 DUP3 MSTORE DUP1 PUSH1 0x20 MUL PUSH1 0x20 ADD DUP3 ADD PUSH1 0x40 MSTORE DUP1 ISZERO PUSH2 0x3D1 JUMPI DUP2 PUSH1 0x20 ADD PUSH1 0x20 DUP3 MUL DUP1 CALLDATASIZE DUP4 CALLDATACOPY ADD SWAP1 POP JUMPDEST POP PUSH1 0x40 DUP1 MLOAD PUSH1 0x1 DUP1 DUP3 MSTORE DUP2 DUP4 ADD SWAP1 SWAP3 MSTORE SWAP2 SWAP3 POP PUSH1 0x0 SWAP2 SWAP1 PUSH1 0x20 DUP1 DUP4 ADD SWAP1 DUP1 CALLDATASIZE DUP4 CALLDATACOPY ADD SWAP1 POP POP SWAP1 POP PUSH1 0x42 SLOAD DUP3 PUSH1 0x0 DUP2 MLOAD DUP2 LT PUSH2 0x40E JUMPI PUSH2 0x40E PUSH2 0x86D JUMP JUMPDEST PUSH1 0x20 MUL PUSH1 0x20 ADD ADD DUP2 DUP2 MSTORE POP POP PUSH1 0x1 DUP2 PUSH1 0x0 DUP2 MLOAD DUP2 LT PUSH2 0x42F JUMPI PUSH2 0x42F PUSH2 0x86D JUMP JUMPDEST PUSH1 0x20 SWAP1 DUP2 MUL SWAP2 SWAP1 SWAP2 ADD ADD MSTORE PUSH1 0x43 SLOAD PUSH1 0x40 MLOAD PUSH4 0xEE1E9445 PUSH1 0xE0 SHL DUP2 MSTORE PUSH1 0x1 PUSH1 0x1 PUSH1 0xA0 SHL SUB SWAP1 SWAP2 AND SWAP1 PUSH4 0xEE1E9445 SWAP1 PUSH2 0x46E SWAP1 CALLER SWAP1 DUP7 SWAP1 DUP7 SWAP1 PUSH1 0x4 ADD PUSH2 0x8E5 JUMP JUMPDEST PUSH1 0x0 PUSH1 0x40 MLOAD DUP1 DUP4 SUB DUP2 PUSH1 0x0 DUP8 DUP1 EXTCODESIZE ISZERO DUP1 ISZERO PUSH2 0x488 JUMPI PUSH1 0x0 DUP1 REVERT JUMPDEST POP GAS CALL ISZERO DUP1 ISZERO PUSH2 0x49C JUMPI RETURNDATASIZE PUSH1 0x0 DUP1 RETURNDATACOPY RETURNDATASIZE PUSH1 0x0 REVERT JUMPDEST POP POP POP POP CALLER PUSH1 0x1 PUSH1 0x1 PUSH1 0xA0 SHL SUB AND PUSH32 0x9DB537EFB3445BC4FFBB13F196ECAD5449B45E9C26EBECC35B0B03751D017DC5 DUP6 PUSH1 0x40 MLOAD PUSH2 0x4D9 SWAP2 SWAP1 PUSH2 0x925 JUMP JUMPDEST PUSH1 0x40 MLOAD DUP1 SWAP2 SUB SWAP1 LOG2 POP POP POP POP JUMP JUMPDEST PUSH2 0x4EF PUSH2 0x6D5 JUMP JUMPDEST PUSH1 0x40 DUP1 MLOAD PUSH2 0x400 DUP2 ADD SWAP2 DUP3 SWAP1 MSTORE PUSH1 0x21 DUP1 SLOAD DUP3 MSTORE SWAP1 SWAP2 PUSH1 0x20 SWAP1 PUSH1 0x22 DUP3 DUP6 ADD DUP1 DUP4 GT PUSH2 0x238 JUMPI POP POP POP POP POP SWAP1 POP SWAP1 JUMP JUMPDEST PUSH2 0x525 PUSH2 0x629 JUMP JUMPDEST PUSH1 0x43 DUP1 SLOAD PUSH1 0x1 PUSH1 0x1 PUSH1 0xA0 SHL SUB NOT AND PUSH1 0x1 PUSH1 0x1 PUSH1 0xA0 SHL SUB SWAP3 SWAP1 SWAP3 AND SWAP2 SWAP1 SWAP2 OR SWAP1 SSTORE JUMP JUMPDEST PUSH2 0x54F PUSH2 0x629 JUMP JUMPDEST PUSH2 0x559 PUSH1 0x0 PUSH2 0x683 JUMP JUMPDEST JUMP JUMPDEST PUSH2 0x563 PUSH2 0x629 JUMP JUMPDEST PUSH1 0x41 DUP1 SLOAD PUSH4 0xFFFFFFFF SWAP1 SWAP3 AND PUSH1 0x1 PUSH1 0xA0 SHL MUL PUSH4 0xFFFFFFFF PUSH1 0xA0 SHL NOT SWAP1 SWAP3 AND SWAP2 SWAP1 SWAP2 OR SWAP1 SSTORE JUMP JUMPDEST PUSH1 0x1 DUP2 PUSH1 0x20 DUP2 LT PUSH2 0x599 JUMPI PUSH1 0x0 DUP1 REVERT JUMPDEST ADD SLOAD SWAP1 POP DUP2 JUMP JUMPDEST PUSH1 0x21 DUP2 PUSH1 0x20 DUP2 LT PUSH2 0x599 JUMPI PUSH1 0x0 DUP1 REVERT JUMPDEST PUSH2 0x5B8 PUSH2 0x629 JUMP JUMPDEST PUSH1 0x1 PUSH1 0x1 PUSH1 0xA0 SHL SUB DUP2 AND PUSH2 0x61D JUMPI PUSH1 0x40 MLOAD PUSH3 0x461BCD PUSH1 0xE5 SHL DUP2 MSTORE PUSH1 0x20 PUSH1 0x4 DUP3 ADD MSTORE PUSH1 0x26 PUSH1 0x24 DUP3 ADD MSTORE PUSH32 0x4F776E61626C653A206E6577206F776E657220697320746865207A65726F2061 PUSH1 0x44 DUP3 ADD MSTORE PUSH6 0x646472657373 PUSH1 0xD0 SHL PUSH1 0x64 DUP3 ADD MSTORE PUSH1 0x84 ADD PUSH2 0x2A9 JUMP JUMPDEST PUSH2 0x626 DUP2 PUSH2 0x683 JUMP JUMPDEST POP JUMP JUMPDEST PUSH1 0x41 SLOAD PUSH1 0x1 PUSH1 0x1 PUSH1 0xA0 SHL SUB AND CALLER EQ PUSH2 0x559 JUMPI PUSH1 0x40 MLOAD PUSH3 0x461BCD PUSH1 0xE5 SHL DUP2 MSTORE PUSH1 0x20 PUSH1 0x4 DUP3 ADD DUP2 SWAP1 MSTORE PUSH1 0x24 DUP3 ADD MSTORE PUSH32 0x4F776E61626C653A2063616C6C6572206973206E6F7420746865206F776E6572 PUSH1 0x44 DUP3 ADD MSTORE PUSH1 0x64 ADD PUSH2 0x2A9 JUMP JUMPDEST PUSH1 0x41 DUP1 SLOAD PUSH1 0x1 PUSH1 0x1 PUSH1 0xA0 SHL SUB DUP4 DUP2 AND PUSH1 0x1 PUSH1 0x1 PUSH1 0xA0 SHL SUB NOT DUP4 AND DUP2 OR SWAP1 SWAP4 SSTORE PUSH1 0x40 MLOAD SWAP2 AND SWAP2 SWAP1 DUP3 SWAP1 PUSH32 0x8BE0079C531659141344CD1FD0A4F28419497F9722A3DAAFE3B4186F6B6457E0 SWAP1 PUSH1 0x0 SWAP1 LOG3 POP POP JUMP JUMPDEST PUSH1 0x40 MLOAD DUP1 PUSH2 0x400 ADD PUSH1 0x40 MSTORE DUP1 PUSH1 0x20 SWAP1 PUSH1 0x20 DUP3 MUL DUP1 CALLDATASIZE DUP4 CALLDATACOPY POP SWAP2 SWAP3 SWAP2 POP POP JUMP JUMPDEST PUSH2 0x400 DUP2 ADD DUP2 DUP4 PUSH1 0x0 JUMPDEST PUSH1 0x20 DUP1 DUP3 LT PUSH2 0x70D JUMPI POP PUSH2 0x721 JUMP JUMPDEST DUP3 MLOAD DUP5 MSTORE SWAP3 DUP4 ADD SWAP3 SWAP1 SWAP2 ADD SWAP1 PUSH1 0x1 ADD PUSH2 0x6FE JUMP JUMPDEST POP POP POP SWAP3 SWAP2 POP POP JUMP JUMPDEST PUSH4 0x4E487B71 PUSH1 0xE0 SHL PUSH1 0x0 MSTORE PUSH1 0x41 PUSH1 0x4 MSTORE PUSH1 0x24 PUSH1 0x0 REVERT JUMPDEST PUSH1 0x0 PUSH1 0x20 DUP1 DUP4 DUP6 SUB SLT ISZERO PUSH2 0x753 JUMPI PUSH1 0x0 DUP1 REVERT JUMPDEST DUP3 CALLDATALOAD PUSH8 0xFFFFFFFFFFFFFFFF DUP1 DUP3 GT ISZERO PUSH2 0x76B JUMPI PUSH1 0x0 DUP1 REVERT JUMPDEST DUP2 DUP6 ADD SWAP2 POP DUP6 PUSH1 0x1F DUP4 ADD SLT PUSH2 0x77F JUMPI PUSH1 0x0 DUP1 REVERT JUMPDEST DUP2 CALLDATALOAD DUP2 DUP2 GT ISZERO PUSH2 0x791 JUMPI PUSH2 0x791 PUSH2 0x72A JUMP JUMPDEST DUP1 PUSH1 0x5 SHL PUSH1 0x40 MLOAD PUSH1 0x1F NOT PUSH1 0x3F DUP4 ADD AND DUP2 ADD DUP2 DUP2 LT DUP6 DUP3 GT OR ISZERO PUSH2 0x7B6 JUMPI PUSH2 0x7B6 PUSH2 0x72A JUMP JUMPDEST PUSH1 0x40 MSTORE SWAP2 DUP3 MSTORE DUP5 DUP3 ADD SWAP3 POP DUP4 DUP2 ADD DUP6 ADD SWAP2 DUP9 DUP4 GT ISZERO PUSH2 0x7D4 JUMPI PUSH1 0x0 DUP1 REVERT JUMPDEST SWAP4 DUP6 ADD SWAP4 JUMPDEST DUP3 DUP6 LT ISZERO PUSH2 0x7F2 JUMPI DUP5 CALLDATALOAD DUP5 MSTORE SWAP4 DUP6 ADD SWAP4 SWAP3 DUP6 ADD SWAP3 PUSH2 0x7D9 JUMP JUMPDEST SWAP9 SWAP8 POP POP POP POP POP POP POP POP JUMP JUMPDEST PUSH1 0x0 PUSH1 0x20 DUP3 DUP5 SUB SLT ISZERO PUSH2 0x810 JUMPI PUSH1 0x0 DUP1 REVERT JUMPDEST DUP2 CALLDATALOAD PUSH1 0x1 PUSH1 0x1 PUSH1 0xA0 SHL SUB DUP2 AND DUP2 EQ PUSH2 0x827 JUMPI PUSH1 0x0 DUP1 REVERT JUMPDEST SWAP4 SWAP3 POP POP POP JUMP JUMPDEST PUSH1 0x0 PUSH1 0x20 DUP3 DUP5 SUB SLT ISZERO PUSH2 0x840 JUMPI PUSH1 0x0 DUP1 REVERT JUMPDEST DUP2 CALLDATALOAD PUSH4 0xFFFFFFFF DUP2 AND DUP2 EQ PUSH2 0x827 JUMPI PUSH1 0x0 DUP1 REVERT JUMPDEST PUSH1 0x0 PUSH1 0x20 DUP3 DUP5 SUB SLT ISZERO PUSH2 0x866 JUMPI PUSH1 0x0 DUP1 REVERT JUMPDEST POP CALLDATALOAD SWAP2 SWAP1 POP JUMP JUMPDEST PUSH4 0x4E487B71 PUSH1 0xE0 SHL PUSH1 0x0 MSTORE PUSH1 0x32 PUSH1 0x4 MSTORE PUSH1 0x24 PUSH1 0x0 REVERT JUMPDEST PUSH1 0x0 PUSH1 0x1 DUP3 ADD PUSH2 0x8A3 JUMPI PUSH4 0x4E487B71 PUSH1 0xE0 SHL PUSH1 0x0 MSTORE PUSH1 0x11 PUSH1 0x4 MSTORE PUSH1 0x24 PUSH1 0x0 REVERT JUMPDEST POP PUSH1 0x1 ADD SWAP1 JUMP JUMPDEST PUSH1 0x0 DUP2 MLOAD DUP1 DUP5 MSTORE PUSH1 0x20 DUP1 DUP6 ADD SWAP5 POP DUP1 DUP5 ADD PUSH1 0x0 JUMPDEST DUP4 DUP2 LT ISZERO PUSH2 0x8DA JUMPI DUP2 MLOAD DUP8 MSTORE SWAP6 DUP3 ADD SWAP6 SWAP1 DUP3 ADD SWAP1 PUSH1 0x1 ADD PUSH2 0x8BE JUMP JUMPDEST POP SWAP5 SWAP6 SWAP5 POP POP POP POP POP JUMP JUMPDEST PUSH1 0x1 PUSH1 0x1 PUSH1 0xA0 SHL SUB DUP5 AND DUP2 MSTORE PUSH1 0x60 PUSH1 0x20 DUP3 ADD DUP2 SWAP1 MSTORE PUSH1 0x0 SWAP1 PUSH2 0x909 SWAP1 DUP4 ADD DUP6 PUSH2 0x8AA JUMP JUMPDEST DUP3 DUP2 SUB PUSH1 0x40 DUP5 ADD MSTORE PUSH2 0x91B DUP2 DUP6 PUSH2 0x8AA JUMP JUMPDEST SWAP7 SWAP6 POP POP POP POP POP POP JUMP JUMPDEST PUSH1 0x20 DUP2 MSTORE PUSH1 0x0 PUSH2 0x827 PUSH1 0x20 DUP4 ADD DUP5 PUSH2 0x8AA JUMP INVALID LOG2 PUSH5 0x6970667358 0x22 SLT KECCAK256 0xDD MSTORE 0xBF SWAP10 0x2D SWAP10 0x5F PUSH5 0xF0620308F5 EQ NUMBER BASEFEE CALLDATALOAD 0x5C CODESIZE JUMPDEST 0xBE 0x49 0xC6 SSTORE 0xCF 0xE2 0xA6 MSIZE 0x5F 0xD2 0xED 0x1F PUSH5 0x736F6C6343 STOP ADDMOD GT STOP CALLER "
		},
		"gasEstimates": {
			"creation": {
				"codeDepositCost": "482800",
				"executionCost": "infinite",
				"totalCost": "infinite"
			},
			"external": {
				"compoundNft(uint256[])": "infinite",
				"compoundNumbers()": "2374",
				"getLefts()": "infinite",
				"getRights()": "infinite",
				"lefts(uint256)": "2440",
				"numbers()": "2363",
				"owner()": "2398",
				"renounceOwnership()": "infinite",
				"rights(uint256)": "2484",
				"setNumbers(uint32)": "26732",
				"setTeamNft(address)": "26789",
				"teamNft()": "2383",
				"transferOwnership(address)": "28389",
				"worldcupTokenId()": "2362"
			}
		},
		"methodIdentifiers": {
			"compoundNft(uint256[])": "277fdeec",
			"compoundNumbers()": "c3d1ae8a",
			"getLefts()": "0a0c061d",
			"getRights()": "490c8ce2",
			"lefts(uint256)": "a01df6b1",
			"numbers()": "27722f6a",
			"owner()": "8da5cb5b",
			"renounceOwnership()": "715018a6",
			"rights(uint256)": "e9ef2113",
			"setNumbers(uint32)": "7ede97ea",
			"setTeamNft(address)": "6cd262fb",
			"teamNft()": "270e3994",
			"transferOwnership(address)": "f2fde38b",
			"worldcupTokenId()": "4f76a924"
		}
	},
	"abi": [
		{
			"anonymous": false,
			"inputs": [
				{
					"indexed": true,
					"internalType": "address",
					"name": "user",
					"type": "address"
				},
				{
					"indexed": false,
					"internalType": "uint256[]",
					"name": "tokenids",
					"type": "uint256[]"
				}
			],
			"name": "CompoundNft",
			"type": "event"
		},
		{
			"anonymous": false,
			"inputs": [
				{
					"indexed": true,
					"internalType": "address",
					"name": "previousOwner",
					"type": "address"
				},
				{
					"indexed": true,
					"internalType": "address",
					"name": "newOwner",
					"type": "address"
				}
			],
			"name": "OwnershipTransferred",
			"type": "event"
		},
		{
			"inputs": [
				{
					"internalType": "uint256[]",
					"name": "tokenids",
					"type": "uint256[]"
				}
			],
			"name": "compoundNft",
			"outputs": [],
			"stateMutability": "nonpayable",
			"type": "function"
		},
		{
			"inputs": [],
			"name": "compoundNumbers",
			"outputs": [
				{
					"internalType": "uint32",
					"name": "",
					"type": "uint32"
				}
			],
			"stateMutability": "view",
			"type": "function"
		},
		{
			"inputs": [],
			"name": "getLefts",
			"outputs": [
				{
					"internalType": "uint256[32]",
					"name": "",
					"type": "uint256[32]"
				}
			],
			"stateMutability": "view",
			"type": "function"
		},
		{
			"inputs": [],
			"name": "getRights",
			"outputs": [
				{
					"internalType": "uint256[32]",
					"name": "",
					"type": "uint256[32]"
				}
			],
			"stateMutability": "view",
			"type": "function"
		},
		{
			"inputs": [
				{
					"internalType": "uint256",
					"name": "",
					"type": "uint256"
				}
			],
			"name": "lefts",
			"outputs": [
				{
					"internalType": "uint256",
					"name": "",
					"type": "uint256"
				}
			],
			"stateMutability": "view",
			"type": "function"
		},
		{
			"inputs": [],
			"name": "numbers",
			"outputs": [
				{
					"internalType": "uint256",
					"name": "",
					"type": "uint256"
				}
			],
			"stateMutability": "view",
			"type": "function"
		},
		{
			"inputs": [],
			"name": "owner",
			"outputs": [
				{
					"internalType": "address",
					"name": "",
					"type": "address"
				}
			],
			"stateMutability": "view",
			"type": "function"
		},
		{
			"inputs": [],
			"name": "renounceOwnership",
			"outputs": [],
			"stateMutability": "nonpayable",
			"type": "function"
		},
		{
			"inputs": [
				{
					"internalType": "uint256",
					"name": "",
					"type": "uint256"
				}
			],
			"name": "rights",
			"outputs": [
				{
					"internalType": "uint256",
					"name": "",
					"type": "uint256"
				}
			],
			"stateMutability": "view",
			"type": "function"
		},
		{
			"inputs": [
				{
					"internalType": "uint32",
					"name": "_numbers",
					"type": "uint32"
				}
			],
			"name": "setNumbers",
			"outputs": [],
			"stateMutability": "nonpayable",
			"type": "function"
		},
		{
			"inputs": [
				{
					"internalType": "address",
					"name": "nft",
					"type": "address"
				}
			],
			"name": "setTeamNft",
			"outputs": [],
			"stateMutability": "nonpayable",
			"type": "function"
		},
		{
			"inputs": [],
			"name": "teamNft",
			"outputs": [
				{
					"internalType": "address",
					"name": "",
					"type": "address"
				}
			],
			"stateMutability": "view",
			"type": "function"
		},
		{
			"inputs": [
				{
					"internalType": "address",
					"name": "newOwner",
					"type": "address"
				}
			],
			"name": "transferOwnership",
			"outputs": [],
			"stateMutability": "nonpayable",
			"type": "function"
		},
		{
			"inputs": [],
			"name": "worldcupTokenId",
			"outputs": [
				{
					"internalType": "uint256",
					"name": "",
					"type": "uint256"
				}
			],
			"stateMutability": "view",
			"type": "function"
		}
	]
}