{
	"data": {
		"bytecode": {
			"linkReferences": {},
			"object": "60806040526815af1d78b58c400000600555603c60075560056008556103e860095534801561002d57600080fd5b5061003733610041565b6001600255610093565b600180546001600160a01b038381166001600160a01b0319831681179093556040519116919082907f8be0079c531659141344cd1fd0a4f28419497f9722a3daafe3b4186f6b6457e090600090a35050565b611210806100a26000396000f3fe608060405234801561001057600080fd5b50600436106101fa5760003560e01c80638107368b1161011a578063adc9772e116100ad578063d1af0c7d1161007c578063d1af0c7d1461040d578063da4f843114610420578063db2e21bc14610433578063df136d651461043b578063f2fde38b1461044457600080fd5b8063adc9772e146103c0578063b79ec812146103d3578063c8f33c91146103fc578063cdda56e01461040557600080fd5b80638da5cb5b116100e95780638da5cb5b146103805780639499c549146103a55780639a5b17b014610314578063a4c3b091146103ad57600080fd5b80638107368b1461031a578063874c120b1461033a5780638aee81271461034d5780638b8763471461036057600080fd5b80634dbdc4eb11610192578063715018a611610161578063715018a6146102fa57806378e97925146103025780637a6fcee71461030b57806380faa57d1461031457600080fd5b80634dbdc4eb146102c35780635cfa91f4146102d65780636139d4b4146102e95780636917c501146102f257600080fd5b806324d7806c116101ce57806324d7806c146102635780633c4045cf1461029f5780633d18b912146102a85780633e0a322d146102b057600080fd5b80628cc262146101ff5780630700037d146102255780630e15561a1461024557806318e20ecf1461024e575b600080fd5b61021261020d366004610fca565b610457565b6040519081526020015b60405180910390f35b610212610233366004610fca565b60046020526000908152604090205481565b61021260055481565b61026161025c366004610ff3565b6104ff565b005b61028f610271366004610fca565b6001600160a01b031660009081526020819052604090205460ff1690565b604051901515815260200161021c565b61021260085481565b6102616105b8565b6102616102be36600461102a565b610775565b6102126102d136600461102a565b61079f565b6102126102e436600461102a565b61082a565b61021260075481565b600e54610212565b6102616108d0565b61021260065481565b61021260095481565b42610212565b610212610328366004610fca565b600d6020526000908152604090205481565b61021261034836600461102a565b610906565b61026161035b366004610fca565b610955565b61021261036e366004610fca565b600c6020526000908152604090205481565b6001546001600160a01b03165b6040516001600160a01b03909116815260200161021c565b6102126109a1565b6102616103bb366004611043565b6109b1565b6102616103ce366004611043565b610a51565b6102126103e1366004610fca565b6001600160a01b03166000908152600f602052604090205490565b610212600a5481565b610212610c29565b60035461038d906001600160a01b031681565b61021261042e36600461106d565b610c34565b610261610e09565b610212600b5481565b610261610452366004610fca565b610e6f565b6001600160a01b0381166000908152600d6020526040812054819061047c9042610c34565b6001600160a01b038416600090815260046020908152604080832054600c909252909120549192506104f8916104f290670de0b6b3a7640000906104ec906104cd906104c788610906565b90610f07565b6001600160a01b0389166000908152600f602052604090205490610f13565b90610f1f565b90610f2b565b9392505050565b6001546001600160a01b031633146105325760405162461bcd60e51b81526004016105299061108f565b60405180910390fd5b6001600160a01b0382166000818152602081815260409182902054825160ff90911615158152841515918101919091527f82f1fa40a3d82dea3e406073819290601f436580aa7c69f9feb61f885bdd8854910160405180910390a26001600160a01b03919091166000908152602081905260409020805460ff1916911515919091179055565b60028054036106095760405162461bcd60e51b815260206004820152601f60248201527f5265656e7472616e637947756172643a207265656e7472616e742063616c6c006044820152606401610529565b60028055336000818152600d6020526040902054600654811161062b57506006545b60006106378242610c34565b905061064281610906565b600b5542600a556001600160a01b038316156106945761066183610457565b6001600160a01b038416600090815260046020908152604080832093909355600b54600c825283832055600d9052204290555b33600090815260046020526040902054801561076a5733600081815260046020819052604080832092909255600354915163a9059cbb60e01b815290810192909252602482018390526001600160a01b03169063a9059cbb906044016020604051808303816000875af115801561070f573d6000803e3d6000fd5b505050506040513d601f19601f8201168201806040525081019061073391906110d1565b5060405181815233907fe2403640ba68fed3a2f88b7557551d1993f84b99bb10ff833f0cf8db0c5e04869060200160405180910390a25b505060016002555050565b61077e33610271565b61079a5760405162461bcd60e51b8152600401610529906110ee565b600655565b60006006546000036107b357505060065490565b6000600754600654846107c69190611146565b6107d0919061116f565b6107db906001611183565b60055490915060005b82811015610822576009546008546107fc9084611196565b610806919061116f565b6108109083611146565b915061081b816111ad565b90506107e4565b509392505050565b600060065460000361083e57505060065490565b6000600754600654846108519190611146565b61085b919061116f565b610866906001611183565b60055490915060005b828110156108ad576009546008546108879084611196565b610891919061116f565b61089b9083611146565b91506108a6816111ad565b905061086f565b506009546008546108be9083611196565b6108c8919061116f565b949350505050565b6001546001600160a01b031633146108fa5760405162461bcd60e51b81526004016105299061108f565b6109046000610f37565b565b6000600e5460000361091a575050600b5490565b61094f610946600e546104ec670de0b6b3a764000061094087610940600a546104c74290565b90610f13565b600b5490610f2b565b92915050565b6001546001600160a01b0316331461097f5760405162461bcd60e51b81526004016105299061108f565b600380546001600160a01b0319166001600160a01b0392909216919091179055565b60006109ac4261082a565b905090565b6001546001600160a01b031633146109db5760405162461bcd60e51b81526004016105299061108f565b60405163a9059cbb60e01b8152336004820152602481018290526001600160a01b0383169063a9059cbb906044016020604051808303816000875af1158015610a28573d6000803e3d6000fd5b505050506040513d601f19601f82011682018060405250810190610a4c91906110d1565b505050565b6002805403610aa25760405162461bcd60e51b815260206004820152601f60248201527f5265656e7472616e637947756172643a207265656e7472616e742063616c6c006044820152606401610529565b60028055610aaf33610271565b610acb5760405162461bcd60e51b8152600401610529906110ee565b336000818152600d60205260409020546006548111610ae957506006545b6000610af58242610c34565b9050610b0081610906565b600b5542600a556001600160a01b03831615610b5257610b1f83610457565b6001600160a01b038416600090815260046020908152604080832093909355600b54600c825283832055600d9052204290555b60008411610b935760405162461bcd60e51b815260206004820152600e60248201526d043616e6e6f74207374616b6520360941b6044820152606401610529565b600e54610ba09085610f2b565b600e556001600160a01b0385166000908152600f6020526040902054610bc69085610f2b565b6001600160a01b0386166000818152600f6020526040908190209290925590517f9e71bc8eea02a63969f509818f2dafb9254532904319f9dbda79b67bd34a5f3d90610c159087815260200190565b60405180910390a250506001600255505050565b60006109ac42610f89565b600060065460001480610c475750818310155b80610c50575082155b15610c5d5750600061094f565b600654831015610c6d5760065492505b600060075460075460065486610c839190611146565b610c8d91906111c6565b600754610c9a9190611146565b610ca491906111c6565b9050600060075482610cb58761082a565b610cbf9190611196565b610cc9919061116f565b9050600060075460065486610cde9190611146565b610ce891906111c6565b9050600060075482610cf98861082a565b610d039190611196565b610d0d919061116f565b905085610d1a8589611183565b1115610d3457610d2987610f89565b94505050505061094f565b60008488610d42858a611146565b610d4c9190611146565b610d569190611146565b90506000610d638961079f565b90506000806000839050600060075486610d7d919061116f565b905060005b81811015610dce57600954600854610d9a9085611196565b610da4919061116f565b9350610db08484611146565b9250610dbc8486611183565b9450610dc7816111ad565b9050610d82565b50610dd98d8d611146565b87610de48b87611183565b610dee9190611183565b610df8919061116f565b9d9c50505050505050505050505050565b6001546001600160a01b03163314610e335760405162461bcd60e51b81526004016105299061108f565b6001546040516001600160a01b03909116904780156108fc02916000818181858888f19350505050158015610e6c573d6000803e3d6000fd5b50565b6001546001600160a01b03163314610e995760405162461bcd60e51b81526004016105299061108f565b6001600160a01b038116610efe5760405162461bcd60e51b815260206004820152602660248201527f4f776e61626c653a206e6577206f776e657220697320746865207a65726f206160448201526564647265737360d01b6064820152608401610529565b610e6c81610f37565b60006104f88284611146565b60006104f88284611196565b60006104f8828461116f565b60006104f88284611183565b600180546001600160a01b038381166001600160a01b0319831681179093556040519116919082907f8be0079c531659141344cd1fd0a4f28419497f9722a3daafe3b4186f6b6457e090600090a35050565b600080610f958361082a565b905060006108c860075483610f1f90919063ffffffff16565b80356001600160a01b0381168114610fc557600080fd5b919050565b600060208284031215610fdc57600080fd5b6104f882610fae565b8015158114610e6c57600080fd5b6000806040838503121561100657600080fd5b61100f83610fae565b9150602083013561101f81610fe5565b809150509250929050565b60006020828403121561103c57600080fd5b5035919050565b6000806040838503121561105657600080fd5b61105f83610fae565b946020939093013593505050565b6000806040838503121561108057600080fd5b50508035926020909101359150565b60208082526022908201527f41646d696e61626c653a2063616c6c6572206973206e6f7420746865206f776e60408201526132b960f11b606082015260800190565b6000602082840312156110e357600080fd5b81516104f881610fe5565b60208082526022908201527f41646d696e61626c653a2063616c6c6572206973206e6f74207468652061646d60408201526134b760f11b606082015260800190565b634e487b7160e01b600052601160045260246000fd5b8181038181111561094f5761094f611130565b634e487b7160e01b600052601260045260246000fd5b60008261117e5761117e611159565b500490565b8082018082111561094f5761094f611130565b808202811582820484141761094f5761094f611130565b6000600182016111bf576111bf611130565b5060010190565b6000826111d5576111d5611159565b50069056fea26469706673582212209d98e36d622ea2d5e7b534896534cd7fea55bebeaed9806c23ddc03ef2d98ab964736f6c63430008110033",
			"opcodes": "PUSH1 0x80 PUSH1 0x40 MSTORE PUSH9 0x15AF1D78B58C400000 PUSH1 0x5 SSTORE PUSH1 0x3C PUSH1 0x7 SSTORE PUSH1 0x5 PUSH1 0x8 SSTORE PUSH2 0x3E8 PUSH1 0x9 SSTORE CALLVALUE DUP1 ISZERO PUSH2 0x2D JUMPI PUSH1 0x0 DUP1 REVERT JUMPDEST POP PUSH2 0x37 CALLER PUSH2 0x41 JUMP JUMPDEST PUSH1 0x1 PUSH1 0x2 SSTORE PUSH2 0x93 JUMP JUMPDEST PUSH1 0x1 DUP1 SLOAD PUSH1 0x1 PUSH1 0x1 PUSH1 0xA0 SHL SUB DUP4 DUP2 AND PUSH1 0x1 PUSH1 0x1 PUSH1 0xA0 SHL SUB NOT DUP4 AND DUP2 OR SWAP1 SWAP4 SSTORE PUSH1 0x40 MLOAD SWAP2 AND SWAP2 SWAP1 DUP3 SWAP1 PUSH32 0x8BE0079C531659141344CD1FD0A4F28419497F9722A3DAAFE3B4186F6B6457E0 SWAP1 PUSH1 0x0 SWAP1 LOG3 POP POP JUMP JUMPDEST PUSH2 0x1210 DUP1 PUSH2 0xA2 PUSH1 0x0 CODECOPY PUSH1 0x0 RETURN INVALID PUSH1 0x80 PUSH1 0x40 MSTORE CALLVALUE DUP1 ISZERO PUSH2 0x10 JUMPI PUSH1 0x0 DUP1 REVERT JUMPDEST POP PUSH1 0x4 CALLDATASIZE LT PUSH2 0x1FA JUMPI PUSH1 0x0 CALLDATALOAD PUSH1 0xE0 SHR DUP1 PUSH4 0x8107368B GT PUSH2 0x11A JUMPI DUP1 PUSH4 0xADC9772E GT PUSH2 0xAD JUMPI DUP1 PUSH4 0xD1AF0C7D GT PUSH2 0x7C JUMPI DUP1 PUSH4 0xD1AF0C7D EQ PUSH2 0x40D JUMPI DUP1 PUSH4 0xDA4F8431 EQ PUSH2 0x420 JUMPI DUP1 PUSH4 0xDB2E21BC EQ PUSH2 0x433 JUMPI DUP1 PUSH4 0xDF136D65 EQ PUSH2 0x43B JUMPI DUP1 PUSH4 0xF2FDE38B EQ PUSH2 0x444 JUMPI PUSH1 0x0 DUP1 REVERT JUMPDEST DUP1 PUSH4 0xADC9772E EQ PUSH2 0x3C0 JUMPI DUP1 PUSH4 0xB79EC812 EQ PUSH2 0x3D3 JUMPI DUP1 PUSH4 0xC8F33C91 EQ PUSH2 0x3FC JUMPI DUP1 PUSH4 0xCDDA56E0 EQ PUSH2 0x405 JUMPI PUSH1 0x0 DUP1 REVERT JUMPDEST DUP1 PUSH4 0x8DA5CB5B GT PUSH2 0xE9 JUMPI DUP1 PUSH4 0x8DA5CB5B EQ PUSH2 0x380 JUMPI DUP1 PUSH4 0x9499C549 EQ PUSH2 0x3A5 JUMPI DUP1 PUSH4 0x9A5B17B0 EQ PUSH2 0x314 JUMPI DUP1 PUSH4 0xA4C3B091 EQ PUSH2 0x3AD JUMPI PUSH1 0x0 DUP1 REVERT JUMPDEST DUP1 PUSH4 0x8107368B EQ PUSH2 0x31A JUMPI DUP1 PUSH4 0x874C120B EQ PUSH2 0x33A JUMPI DUP1 PUSH4 0x8AEE8127 EQ PUSH2 0x34D JUMPI DUP1 PUSH4 0x8B876347 EQ PUSH2 0x360 JUMPI PUSH1 0x0 DUP1 REVERT JUMPDEST DUP1 PUSH4 0x4DBDC4EB GT PUSH2 0x192 JUMPI DUP1 PUSH4 0x715018A6 GT PUSH2 0x161 JUMPI DUP1 PUSH4 0x715018A6 EQ PUSH2 0x2FA JUMPI DUP1 PUSH4 0x78E97925 EQ PUSH2 0x302 JUMPI DUP1 PUSH4 0x7A6FCEE7 EQ PUSH2 0x30B JUMPI DUP1 PUSH4 0x80FAA57D EQ PUSH2 0x314 JUMPI PUSH1 0x0 DUP1 REVERT JUMPDEST DUP1 PUSH4 0x4DBDC4EB EQ PUSH2 0x2C3 JUMPI DUP1 PUSH4 0x5CFA91F4 EQ PUSH2 0x2D6 JUMPI DUP1 PUSH4 0x6139D4B4 EQ PUSH2 0x2E9 JUMPI DUP1 PUSH4 0x6917C501 EQ PUSH2 0x2F2 JUMPI PUSH1 0x0 DUP1 REVERT JUMPDEST DUP1 PUSH4 0x24D7806C GT PUSH2 0x1CE JUMPI DUP1 PUSH4 0x24D7806C EQ PUSH2 0x263 JUMPI DUP1 PUSH4 0x3C4045CF EQ PUSH2 0x29F JUMPI DUP1 PUSH4 0x3D18B912 EQ PUSH2 0x2A8 JUMPI DUP1 PUSH4 0x3E0A322D EQ PUSH2 0x2B0 JUMPI PUSH1 0x0 DUP1 REVERT JUMPDEST DUP1 PUSH3 0x8CC262 EQ PUSH2 0x1FF JUMPI DUP1 PUSH4 0x700037D EQ PUSH2 0x225 JUMPI DUP1 PUSH4 0xE15561A EQ PUSH2 0x245 JUMPI DUP1 PUSH4 0x18E20ECF EQ PUSH2 0x24E JUMPI JUMPDEST PUSH1 0x0 DUP1 REVERT JUMPDEST PUSH2 0x212 PUSH2 0x20D CALLDATASIZE PUSH1 0x4 PUSH2 0xFCA JUMP JUMPDEST PUSH2 0x457 JUMP JUMPDEST PUSH1 0x40 MLOAD SWAP1 DUP2 MSTORE PUSH1 0x20 ADD JUMPDEST PUSH1 0x40 MLOAD DUP1 SWAP2 SUB SWAP1 RETURN JUMPDEST PUSH2 0x212 PUSH2 0x233 CALLDATASIZE PUSH1 0x4 PUSH2 0xFCA JUMP JUMPDEST PUSH1 0x4 PUSH1 0x20 MSTORE PUSH1 0x0 SWAP1 DUP2 MSTORE PUSH1 0x40 SWAP1 KECCAK256 SLOAD DUP2 JUMP JUMPDEST PUSH2 0x212 PUSH1 0x5 SLOAD DUP2 JUMP JUMPDEST PUSH2 0x261 PUSH2 0x25C CALLDATASIZE PUSH1 0x4 PUSH2 0xFF3 JUMP JUMPDEST PUSH2 0x4FF JUMP JUMPDEST STOP JUMPDEST PUSH2 0x28F PUSH2 0x271 CALLDATASIZE PUSH1 0x4 PUSH2 0xFCA JUMP JUMPDEST PUSH1 0x1 PUSH1 0x1 PUSH1 0xA0 SHL SUB AND PUSH1 0x0 SWAP1 DUP2 MSTORE PUSH1 0x20 DUP2 SWAP1 MSTORE PUSH1 0x40 SWAP1 KECCAK256 SLOAD PUSH1 0xFF AND SWAP1 JUMP JUMPDEST PUSH1 0x40 MLOAD SWAP1 ISZERO ISZERO DUP2 MSTORE PUSH1 0x20 ADD PUSH2 0x21C JUMP JUMPDEST PUSH2 0x212 PUSH1 0x8 SLOAD DUP2 JUMP JUMPDEST PUSH2 0x261 PUSH2 0x5B8 JUMP JUMPDEST PUSH2 0x261 PUSH2 0x2BE CALLDATASIZE PUSH1 0x4 PUSH2 0x102A JUMP JUMPDEST PUSH2 0x775 JUMP JUMPDEST PUSH2 0x212 PUSH2 0x2D1 CALLDATASIZE PUSH1 0x4 PUSH2 0x102A JUMP JUMPDEST PUSH2 0x79F JUMP JUMPDEST PUSH2 0x212 PUSH2 0x2E4 CALLDATASIZE PUSH1 0x4 PUSH2 0x102A JUMP JUMPDEST PUSH2 0x82A JUMP JUMPDEST PUSH2 0x212 PUSH1 0x7 SLOAD DUP2 JUMP JUMPDEST PUSH1 0xE SLOAD PUSH2 0x212 JUMP JUMPDEST PUSH2 0x261 PUSH2 0x8D0 JUMP JUMPDEST PUSH2 0x212 PUSH1 0x6 SLOAD DUP2 JUMP JUMPDEST PUSH2 0x212 PUSH1 0x9 SLOAD DUP2 JUMP JUMPDEST TIMESTAMP PUSH2 0x212 JUMP JUMPDEST PUSH2 0x212 PUSH2 0x328 CALLDATASIZE PUSH1 0x4 PUSH2 0xFCA JUMP JUMPDEST PUSH1 0xD PUSH1 0x20 MSTORE PUSH1 0x0 SWAP1 DUP2 MSTORE PUSH1 0x40 SWAP1 KECCAK256 SLOAD DUP2 JUMP JUMPDEST PUSH2 0x212 PUSH2 0x348 CALLDATASIZE PUSH1 0x4 PUSH2 0x102A JUMP JUMPDEST PUSH2 0x906 JUMP JUMPDEST PUSH2 0x261 PUSH2 0x35B CALLDATASIZE PUSH1 0x4 PUSH2 0xFCA JUMP JUMPDEST PUSH2 0x955 JUMP JUMPDEST PUSH2 0x212 PUSH2 0x36E CALLDATASIZE PUSH1 0x4 PUSH2 0xFCA JUMP JUMPDEST PUSH1 0xC PUSH1 0x20 MSTORE PUSH1 0x0 SWAP1 DUP2 MSTORE PUSH1 0x40 SWAP1 KECCAK256 SLOAD DUP2 JUMP JUMPDEST PUSH1 0x1 SLOAD PUSH1 0x1 PUSH1 0x1 PUSH1 0xA0 SHL SUB AND JUMPDEST PUSH1 0x40 MLOAD PUSH1 0x1 PUSH1 0x1 PUSH1 0xA0 SHL SUB SWAP1 SWAP2 AND DUP2 MSTORE PUSH1 0x20 ADD PUSH2 0x21C JUMP JUMPDEST PUSH2 0x212 PUSH2 0x9A1 JUMP JUMPDEST PUSH2 0x261 PUSH2 0x3BB CALLDATASIZE PUSH1 0x4 PUSH2 0x1043 JUMP JUMPDEST PUSH2 0x9B1 JUMP JUMPDEST PUSH2 0x261 PUSH2 0x3CE CALLDATASIZE PUSH1 0x4 PUSH2 0x1043 JUMP JUMPDEST PUSH2 0xA51 JUMP JUMPDEST PUSH2 0x212 PUSH2 0x3E1 CALLDATASIZE PUSH1 0x4 PUSH2 0xFCA JUMP JUMPDEST PUSH1 0x1 PUSH1 0x1 PUSH1 0xA0 SHL SUB AND PUSH1 0x0 SWAP1 DUP2 MSTORE PUSH1 0xF PUSH1 0x20 MSTORE PUSH1 0x40 SWAP1 KECCAK256 SLOAD SWAP1 JUMP JUMPDEST PUSH2 0x212 PUSH1 0xA SLOAD DUP2 JUMP JUMPDEST PUSH2 0x212 PUSH2 0xC29 JUMP JUMPDEST PUSH1 0x3 SLOAD PUSH2 0x38D SWAP1 PUSH1 0x1 PUSH1 0x1 PUSH1 0xA0 SHL SUB AND DUP2 JUMP JUMPDEST PUSH2 0x212 PUSH2 0x42E CALLDATASIZE PUSH1 0x4 PUSH2 0x106D JUMP JUMPDEST PUSH2 0xC34 JUMP JUMPDEST PUSH2 0x261 PUSH2 0xE09 JUMP JUMPDEST PUSH2 0x212 PUSH1 0xB SLOAD DUP2 JUMP JUMPDEST PUSH2 0x261 PUSH2 0x452 CALLDATASIZE PUSH1 0x4 PUSH2 0xFCA JUMP JUMPDEST PUSH2 0xE6F JUMP JUMPDEST PUSH1 0x1 PUSH1 0x1 PUSH1 0xA0 SHL SUB DUP2 AND PUSH1 0x0 SWAP1 DUP2 MSTORE PUSH1 0xD PUSH1 0x20 MSTORE PUSH1 0x40 DUP2 KECCAK256 SLOAD DUP2 SWAP1 PUSH2 0x47C SWAP1 TIMESTAMP PUSH2 0xC34 JUMP JUMPDEST PUSH1 0x1 PUSH1 0x1 PUSH1 0xA0 SHL SUB DUP5 AND PUSH1 0x0 SWAP1 DUP2 MSTORE PUSH1 0x4 PUSH1 0x20 SWAP1 DUP2 MSTORE PUSH1 0x40 DUP1 DUP4 KECCAK256 SLOAD PUSH1 0xC SWAP1 SWAP3 MSTORE SWAP1 SWAP2 KECCAK256 SLOAD SWAP2 SWAP3 POP PUSH2 0x4F8 SWAP2 PUSH2 0x4F2 SWAP1 PUSH8 0xDE0B6B3A7640000 SWAP1 PUSH2 0x4EC SWAP1 PUSH2 0x4CD SWAP1 PUSH2 0x4C7 DUP9 PUSH2 0x906 JUMP JUMPDEST SWAP1 PUSH2 0xF07 JUMP JUMPDEST PUSH1 0x1 PUSH1 0x1 PUSH1 0xA0 SHL SUB DUP10 AND PUSH1 0x0 SWAP1 DUP2 MSTORE PUSH1 0xF PUSH1 0x20 MSTORE PUSH1 0x40 SWAP1 KECCAK256 SLOAD SWAP1 PUSH2 0xF13 JUMP JUMPDEST SWAP1 PUSH2 0xF1F JUMP JUMPDEST SWAP1 PUSH2 0xF2B JUMP JUMPDEST SWAP4 SWAP3 POP POP POP JUMP JUMPDEST PUSH1 0x1 SLOAD PUSH1 0x1 PUSH1 0x1 PUSH1 0xA0 SHL SUB AND CALLER EQ PUSH2 0x532 JUMPI PUSH1 0x40 MLOAD PUSH3 0x461BCD PUSH1 0xE5 SHL DUP2 MSTORE PUSH1 0x4 ADD PUSH2 0x529 SWAP1 PUSH2 0x108F JUMP JUMPDEST PUSH1 0x40 MLOAD DUP1 SWAP2 SUB SWAP1 REVERT JUMPDEST PUSH1 0x1 PUSH1 0x1 PUSH1 0xA0 SHL SUB DUP3 AND PUSH1 0x0 DUP2 DUP2 MSTORE PUSH1 0x20 DUP2 DUP2 MSTORE PUSH1 0x40 SWAP2 DUP3 SWAP1 KECCAK256 SLOAD DUP3 MLOAD PUSH1 0xFF SWAP1 SWAP2 AND ISZERO ISZERO DUP2 MSTORE DUP5 ISZERO ISZERO SWAP2 DUP2 ADD SWAP2 SWAP1 SWAP2 MSTORE PUSH32 0x82F1FA40A3D82DEA3E406073819290601F436580AA7C69F9FEB61F885BDD8854 SWAP2 ADD PUSH1 0x40 MLOAD DUP1 SWAP2 SUB SWAP1 LOG2 PUSH1 0x1 PUSH1 0x1 PUSH1 0xA0 SHL SUB SWAP2 SWAP1 SWAP2 AND PUSH1 0x0 SWAP1 DUP2 MSTORE PUSH1 0x20 DUP2 SWAP1 MSTORE PUSH1 0x40 SWAP1 KECCAK256 DUP1 SLOAD PUSH1 0xFF NOT AND SWAP2 ISZERO ISZERO SWAP2 SWAP1 SWAP2 OR SWAP1 SSTORE JUMP JUMPDEST PUSH1 0x2 DUP1 SLOAD SUB PUSH2 0x609 JUMPI PUSH1 0x40 MLOAD PUSH3 0x461BCD PUSH1 0xE5 SHL DUP2 MSTORE PUSH1 0x20 PUSH1 0x4 DUP3 ADD MSTORE PUSH1 0x1F PUSH1 0x24 DUP3 ADD MSTORE PUSH32 0x5265656E7472616E637947756172643A207265656E7472616E742063616C6C00 PUSH1 0x44 DUP3 ADD MSTORE PUSH1 0x64 ADD PUSH2 0x529 JUMP JUMPDEST PUSH1 0x2 DUP1 SSTORE CALLER PUSH1 0x0 DUP2 DUP2 MSTORE PUSH1 0xD PUSH1 0x20 MSTORE PUSH1 0x40 SWAP1 KECCAK256 SLOAD PUSH1 0x6 SLOAD DUP2 GT PUSH2 0x62B JUMPI POP PUSH1 0x6 SLOAD JUMPDEST PUSH1 0x0 PUSH2 0x637 DUP3 TIMESTAMP PUSH2 0xC34 JUMP JUMPDEST SWAP1 POP PUSH2 0x642 DUP2 PUSH2 0x906 JUMP JUMPDEST PUSH1 0xB SSTORE TIMESTAMP PUSH1 0xA SSTORE PUSH1 0x1 PUSH1 0x1 PUSH1 0xA0 SHL SUB DUP4 AND ISZERO PUSH2 0x694 JUMPI PUSH2 0x661 DUP4 PUSH2 0x457 JUMP JUMPDEST PUSH1 0x1 PUSH1 0x1 PUSH1 0xA0 SHL SUB DUP5 AND PUSH1 0x0 SWAP1 DUP2 MSTORE PUSH1 0x4 PUSH1 0x20 SWAP1 DUP2 MSTORE PUSH1 0x40 DUP1 DUP4 KECCAK256 SWAP4 SWAP1 SWAP4 SSTORE PUSH1 0xB SLOAD PUSH1 0xC DUP3 MSTORE DUP4 DUP4 KECCAK256 SSTORE PUSH1 0xD SWAP1 MSTORE KECCAK256 TIMESTAMP SWAP1 SSTORE JUMPDEST CALLER PUSH1 0x0 SWAP1 DUP2 MSTORE PUSH1 0x4 PUSH1 0x20 MSTORE PUSH1 0x40 SWAP1 KECCAK256 SLOAD DUP1 ISZERO PUSH2 0x76A JUMPI CALLER PUSH1 0x0 DUP2 DUP2 MSTORE PUSH1 0x4 PUSH1 0x20 DUP2 SWAP1 MSTORE PUSH1 0x40 DUP1 DUP4 KECCAK256 SWAP3 SWAP1 SWAP3 SSTORE PUSH1 0x3 SLOAD SWAP2 MLOAD PUSH4 0xA9059CBB PUSH1 0xE0 SHL DUP2 MSTORE SWAP1 DUP2 ADD SWAP3 SWAP1 SWAP3 MSTORE PUSH1 0x24 DUP3 ADD DUP4 SWAP1 MSTORE PUSH1 0x1 PUSH1 0x1 PUSH1 0xA0 SHL SUB AND SWAP1 PUSH4 0xA9059CBB SWAP1 PUSH1 0x44 ADD PUSH1 0x20 PUSH1 0x40 MLOAD DUP1 DUP4 SUB DUP2 PUSH1 0x0 DUP8 GAS CALL ISZERO DUP1 ISZERO PUSH2 0x70F JUMPI RETURNDATASIZE PUSH1 0x0 DUP1 RETURNDATACOPY RETURNDATASIZE PUSH1 0x0 REVERT JUMPDEST POP POP POP POP PUSH1 0x40 MLOAD RETURNDATASIZE PUSH1 0x1F NOT PUSH1 0x1F DUP3 ADD AND DUP3 ADD DUP1 PUSH1 0x40 MSTORE POP DUP2 ADD SWAP1 PUSH2 0x733 SWAP2 SWAP1 PUSH2 0x10D1 JUMP JUMPDEST POP PUSH1 0x40 MLOAD DUP2 DUP2 MSTORE CALLER SWAP1 PUSH32 0xE2403640BA68FED3A2F88B7557551D1993F84B99BB10FF833F0CF8DB0C5E0486 SWAP1 PUSH1 0x20 ADD PUSH1 0x40 MLOAD DUP1 SWAP2 SUB SWAP1 LOG2 JUMPDEST POP POP PUSH1 0x1 PUSH1 0x2 SSTORE POP POP JUMP JUMPDEST PUSH2 0x77E CALLER PUSH2 0x271 JUMP JUMPDEST PUSH2 0x79A JUMPI PUSH1 0x40 MLOAD PUSH3 0x461BCD PUSH1 0xE5 SHL DUP2 MSTORE PUSH1 0x4 ADD PUSH2 0x529 SWAP1 PUSH2 0x10EE JUMP JUMPDEST PUSH1 0x6 SSTORE JUMP JUMPDEST PUSH1 0x0 PUSH1 0x6 SLOAD PUSH1 0x0 SUB PUSH2 0x7B3 JUMPI POP POP PUSH1 0x6 SLOAD SWAP1 JUMP JUMPDEST PUSH1 0x0 PUSH1 0x7 SLOAD PUSH1 0x6 SLOAD DUP5 PUSH2 0x7C6 SWAP2 SWAP1 PUSH2 0x1146 JUMP JUMPDEST PUSH2 0x7D0 SWAP2 SWAP1 PUSH2 0x116F JUMP JUMPDEST PUSH2 0x7DB SWAP1 PUSH1 0x1 PUSH2 0x1183 JUMP JUMPDEST PUSH1 0x5 SLOAD SWAP1 SWAP2 POP PUSH1 0x0 JUMPDEST DUP3 DUP2 LT ISZERO PUSH2 0x822 JUMPI PUSH1 0x9 SLOAD PUSH1 0x8 SLOAD PUSH2 0x7FC SWAP1 DUP5 PUSH2 0x1196 JUMP JUMPDEST PUSH2 0x806 SWAP2 SWAP1 PUSH2 0x116F JUMP JUMPDEST PUSH2 0x810 SWAP1 DUP4 PUSH2 0x1146 JUMP JUMPDEST SWAP2 POP PUSH2 0x81B DUP2 PUSH2 0x11AD JUMP JUMPDEST SWAP1 POP PUSH2 0x7E4 JUMP JUMPDEST POP SWAP4 SWAP3 POP POP POP JUMP JUMPDEST PUSH1 0x0 PUSH1 0x6 SLOAD PUSH1 0x0 SUB PUSH2 0x83E JUMPI POP POP PUSH1 0x6 SLOAD SWAP1 JUMP JUMPDEST PUSH1 0x0 PUSH1 0x7 SLOAD PUSH1 0x6 SLOAD DUP5 PUSH2 0x851 SWAP2 SWAP1 PUSH2 0x1146 JUMP JUMPDEST PUSH2 0x85B SWAP2 SWAP1 PUSH2 0x116F JUMP JUMPDEST PUSH2 0x866 SWAP1 PUSH1 0x1 PUSH2 0x1183 JUMP JUMPDEST PUSH1 0x5 SLOAD SWAP1 SWAP2 POP PUSH1 0x0 JUMPDEST DUP3 DUP2 LT ISZERO PUSH2 0x8AD JUMPI PUSH1 0x9 SLOAD PUSH1 0x8 SLOAD PUSH2 0x887 SWAP1 DUP5 PUSH2 0x1196 JUMP JUMPDEST PUSH2 0x891 SWAP2 SWAP1 PUSH2 0x116F JUMP JUMPDEST PUSH2 0x89B SWAP1 DUP4 PUSH2 0x1146 JUMP JUMPDEST SWAP2 POP PUSH2 0x8A6 DUP2 PUSH2 0x11AD JUMP JUMPDEST SWAP1 POP PUSH2 0x86F JUMP JUMPDEST POP PUSH1 0x9 SLOAD PUSH1 0x8 SLOAD PUSH2 0x8BE SWAP1 DUP4 PUSH2 0x1196 JUMP JUMPDEST PUSH2 0x8C8 SWAP2 SWAP1 PUSH2 0x116F JUMP JUMPDEST SWAP5 SWAP4 POP POP POP POP JUMP JUMPDEST PUSH1 0x1 SLOAD PUSH1 0x1 PUSH1 0x1 PUSH1 0xA0 SHL SUB AND CALLER EQ PUSH2 0x8FA JUMPI PUSH1 0x40 MLOAD PUSH3 0x461BCD PUSH1 0xE5 SHL DUP2 MSTORE PUSH1 0x4 ADD PUSH2 0x529 SWAP1 PUSH2 0x108F JUMP JUMPDEST PUSH2 0x904 PUSH1 0x0 PUSH2 0xF37 JUMP JUMPDEST JUMP JUMPDEST PUSH1 0x0 PUSH1 0xE SLOAD PUSH1 0x0 SUB PUSH2 0x91A JUMPI POP POP PUSH1 0xB SLOAD SWAP1 JUMP JUMPDEST PUSH2 0x94F PUSH2 0x946 PUSH1 0xE SLOAD PUSH2 0x4EC PUSH8 0xDE0B6B3A7640000 PUSH2 0x940 DUP8 PUSH2 0x940 PUSH1 0xA SLOAD PUSH2 0x4C7 TIMESTAMP SWAP1 JUMP JUMPDEST SWAP1 PUSH2 0xF13 JUMP JUMPDEST PUSH1 0xB SLOAD SWAP1 PUSH2 0xF2B JUMP JUMPDEST SWAP3 SWAP2 POP POP JUMP JUMPDEST PUSH1 0x1 SLOAD PUSH1 0x1 PUSH1 0x1 PUSH1 0xA0 SHL SUB AND CALLER EQ PUSH2 0x97F JUMPI PUSH1 0x40 MLOAD PUSH3 0x461BCD PUSH1 0xE5 SHL DUP2 MSTORE PUSH1 0x4 ADD PUSH2 0x529 SWAP1 PUSH2 0x108F JUMP JUMPDEST PUSH1 0x3 DUP1 SLOAD PUSH1 0x1 PUSH1 0x1 PUSH1 0xA0 SHL SUB NOT AND PUSH1 0x1 PUSH1 0x1 PUSH1 0xA0 SHL SUB SWAP3 SWAP1 SWAP3 AND SWAP2 SWAP1 SWAP2 OR SWAP1 SSTORE JUMP JUMPDEST PUSH1 0x0 PUSH2 0x9AC TIMESTAMP PUSH2 0x82A JUMP JUMPDEST SWAP1 POP SWAP1 JUMP JUMPDEST PUSH1 0x1 SLOAD PUSH1 0x1 PUSH1 0x1 PUSH1 0xA0 SHL SUB AND CALLER EQ PUSH2 0x9DB JUMPI PUSH1 0x40 MLOAD PUSH3 0x461BCD PUSH1 0xE5 SHL DUP2 MSTORE PUSH1 0x4 ADD PUSH2 0x529 SWAP1 PUSH2 0x108F JUMP JUMPDEST PUSH1 0x40 MLOAD PUSH4 0xA9059CBB PUSH1 0xE0 SHL DUP2 MSTORE CALLER PUSH1 0x4 DUP3 ADD MSTORE PUSH1 0x24 DUP2 ADD DUP3 SWAP1 MSTORE PUSH1 0x1 PUSH1 0x1 PUSH1 0xA0 SHL SUB DUP4 AND SWAP1 PUSH4 0xA9059CBB SWAP1 PUSH1 0x44 ADD PUSH1 0x20 PUSH1 0x40 MLOAD DUP1 DUP4 SUB DUP2 PUSH1 0x0 DUP8 GAS CALL ISZERO DUP1 ISZERO PUSH2 0xA28 JUMPI RETURNDATASIZE PUSH1 0x0 DUP1 RETURNDATACOPY RETURNDATASIZE PUSH1 0x0 REVERT JUMPDEST POP POP POP POP PUSH1 0x40 MLOAD RETURNDATASIZE PUSH1 0x1F NOT PUSH1 0x1F DUP3 ADD AND DUP3 ADD DUP1 PUSH1 0x40 MSTORE POP DUP2 ADD SWAP1 PUSH2 0xA4C SWAP2 SWAP1 PUSH2 0x10D1 JUMP JUMPDEST POP POP POP JUMP JUMPDEST PUSH1 0x2 DUP1 SLOAD SUB PUSH2 0xAA2 JUMPI PUSH1 0x40 MLOAD PUSH3 0x461BCD PUSH1 0xE5 SHL DUP2 MSTORE PUSH1 0x20 PUSH1 0x4 DUP3 ADD MSTORE PUSH1 0x1F PUSH1 0x24 DUP3 ADD MSTORE PUSH32 0x5265656E7472616E637947756172643A207265656E7472616E742063616C6C00 PUSH1 0x44 DUP3 ADD MSTORE PUSH1 0x64 ADD PUSH2 0x529 JUMP JUMPDEST PUSH1 0x2 DUP1 SSTORE PUSH2 0xAAF CALLER PUSH2 0x271 JUMP JUMPDEST PUSH2 0xACB JUMPI PUSH1 0x40 MLOAD PUSH3 0x461BCD PUSH1 0xE5 SHL DUP2 MSTORE PUSH1 0x4 ADD PUSH2 0x529 SWAP1 PUSH2 0x10EE JUMP JUMPDEST CALLER PUSH1 0x0 DUP2 DUP2 MSTORE PUSH1 0xD PUSH1 0x20 MSTORE PUSH1 0x40 SWAP1 KECCAK256 SLOAD PUSH1 0x6 SLOAD DUP2 GT PUSH2 0xAE9 JUMPI POP PUSH1 0x6 SLOAD JUMPDEST PUSH1 0x0 PUSH2 0xAF5 DUP3 TIMESTAMP PUSH2 0xC34 JUMP JUMPDEST SWAP1 POP PUSH2 0xB00 DUP2 PUSH2 0x906 JUMP JUMPDEST PUSH1 0xB SSTORE TIMESTAMP PUSH1 0xA SSTORE PUSH1 0x1 PUSH1 0x1 PUSH1 0xA0 SHL SUB DUP4 AND ISZERO PUSH2 0xB52 JUMPI PUSH2 0xB1F DUP4 PUSH2 0x457 JUMP JUMPDEST PUSH1 0x1 PUSH1 0x1 PUSH1 0xA0 SHL SUB DUP5 AND PUSH1 0x0 SWAP1 DUP2 MSTORE PUSH1 0x4 PUSH1 0x20 SWAP1 DUP2 MSTORE PUSH1 0x40 DUP1 DUP4 KECCAK256 SWAP4 SWAP1 SWAP4 SSTORE PUSH1 0xB SLOAD PUSH1 0xC DUP3 MSTORE DUP4 DUP4 KECCAK256 SSTORE PUSH1 0xD SWAP1 MSTORE KECCAK256 TIMESTAMP SWAP1 SSTORE JUMPDEST PUSH1 0x0 DUP5 GT PUSH2 0xB93 JUMPI PUSH1 0x40 MLOAD PUSH3 0x461BCD PUSH1 0xE5 SHL DUP2 MSTORE PUSH1 0x20 PUSH1 0x4 DUP3 ADD MSTORE PUSH1 0xE PUSH1 0x24 DUP3 ADD MSTORE PUSH14 0x43616E6E6F74207374616B65203 PUSH1 0x94 SHL PUSH1 0x44 DUP3 ADD MSTORE PUSH1 0x64 ADD PUSH2 0x529 JUMP JUMPDEST PUSH1 0xE SLOAD PUSH2 0xBA0 SWAP1 DUP6 PUSH2 0xF2B JUMP JUMPDEST PUSH1 0xE SSTORE PUSH1 0x1 PUSH1 0x1 PUSH1 0xA0 SHL SUB DUP6 AND PUSH1 0x0 SWAP1 DUP2 MSTORE PUSH1 0xF PUSH1 0x20 MSTORE PUSH1 0x40 SWAP1 KECCAK256 SLOAD PUSH2 0xBC6 SWAP1 DUP6 PUSH2 0xF2B JUMP JUMPDEST PUSH1 0x1 PUSH1 0x1 PUSH1 0xA0 SHL SUB DUP7 AND PUSH1 0x0 DUP2 DUP2 MSTORE PUSH1 0xF PUSH1 0x20 MSTORE PUSH1 0x40 SWAP1 DUP2 SWAP1 KECCAK256 SWAP3 SWAP1 SWAP3 SSTORE SWAP1 MLOAD PUSH32 0x9E71BC8EEA02A63969F509818F2DAFB9254532904319F9DBDA79B67BD34A5F3D SWAP1 PUSH2 0xC15 SWAP1 DUP8 DUP2 MSTORE PUSH1 0x20 ADD SWAP1 JUMP JUMPDEST PUSH1 0x40 MLOAD DUP1 SWAP2 SUB SWAP1 LOG2 POP POP PUSH1 0x1 PUSH1 0x2 SSTORE POP POP POP JUMP JUMPDEST PUSH1 0x0 PUSH2 0x9AC TIMESTAMP PUSH2 0xF89 JUMP JUMPDEST PUSH1 0x0 PUSH1 0x6 SLOAD PUSH1 0x0 EQ DUP1 PUSH2 0xC47 JUMPI POP DUP2 DUP4 LT ISZERO JUMPDEST DUP1 PUSH2 0xC50 JUMPI POP DUP3 ISZERO JUMPDEST ISZERO PUSH2 0xC5D JUMPI POP PUSH1 0x0 PUSH2 0x94F JUMP JUMPDEST PUSH1 0x6 SLOAD DUP4 LT ISZERO PUSH2 0xC6D JUMPI PUSH1 0x6 SLOAD SWAP3 POP JUMPDEST PUSH1 0x0 PUSH1 0x7 SLOAD PUSH1 0x7 SLOAD PUSH1 0x6 SLOAD DUP7 PUSH2 0xC83 SWAP2 SWAP1 PUSH2 0x1146 JUMP JUMPDEST PUSH2 0xC8D SWAP2 SWAP1 PUSH2 0x11C6 JUMP JUMPDEST PUSH1 0x7 SLOAD PUSH2 0xC9A SWAP2 SWAP1 PUSH2 0x1146 JUMP JUMPDEST PUSH2 0xCA4 SWAP2 SWAP1 PUSH2 0x11C6 JUMP JUMPDEST SWAP1 POP PUSH1 0x0 PUSH1 0x7 SLOAD DUP3 PUSH2 0xCB5 DUP8 PUSH2 0x82A JUMP JUMPDEST PUSH2 0xCBF SWAP2 SWAP1 PUSH2 0x1196 JUMP JUMPDEST PUSH2 0xCC9 SWAP2 SWAP1 PUSH2 0x116F JUMP JUMPDEST SWAP1 POP PUSH1 0x0 PUSH1 0x7 SLOAD PUSH1 0x6 SLOAD DUP7 PUSH2 0xCDE SWAP2 SWAP1 PUSH2 0x1146 JUMP JUMPDEST PUSH2 0xCE8 SWAP2 SWAP1 PUSH2 0x11C6 JUMP JUMPDEST SWAP1 POP PUSH1 0x0 PUSH1 0x7 SLOAD DUP3 PUSH2 0xCF9 DUP9 PUSH2 0x82A JUMP JUMPDEST PUSH2 0xD03 SWAP2 SWAP1 PUSH2 0x1196 JUMP JUMPDEST PUSH2 0xD0D SWAP2 SWAP1 PUSH2 0x116F JUMP JUMPDEST SWAP1 POP DUP6 PUSH2 0xD1A DUP6 DUP10 PUSH2 0x1183 JUMP JUMPDEST GT ISZERO PUSH2 0xD34 JUMPI PUSH2 0xD29 DUP8 PUSH2 0xF89 JUMP JUMPDEST SWAP5 POP POP POP POP POP PUSH2 0x94F JUMP JUMPDEST PUSH1 0x0 DUP5 DUP9 PUSH2 0xD42 DUP6 DUP11 PUSH2 0x1146 JUMP JUMPDEST PUSH2 0xD4C SWAP2 SWAP1 PUSH2 0x1146 JUMP JUMPDEST PUSH2 0xD56 SWAP2 SWAP1 PUSH2 0x1146 JUMP JUMPDEST SWAP1 POP PUSH1 0x0 PUSH2 0xD63 DUP10 PUSH2 0x79F JUMP JUMPDEST SWAP1 POP PUSH1 0x0 DUP1 PUSH1 0x0 DUP4 SWAP1 POP PUSH1 0x0 PUSH1 0x7 SLOAD DUP7 PUSH2 0xD7D SWAP2 SWAP1 PUSH2 0x116F JUMP JUMPDEST SWAP1 POP PUSH1 0x0 JUMPDEST DUP2 DUP2 LT ISZERO PUSH2 0xDCE JUMPI PUSH1 0x9 SLOAD PUSH1 0x8 SLOAD PUSH2 0xD9A SWAP1 DUP6 PUSH2 0x1196 JUMP JUMPDEST PUSH2 0xDA4 SWAP2 SWAP1 PUSH2 0x116F JUMP JUMPDEST SWAP4 POP PUSH2 0xDB0 DUP5 DUP5 PUSH2 0x1146 JUMP JUMPDEST SWAP3 POP PUSH2 0xDBC DUP5 DUP7 PUSH2 0x1183 JUMP JUMPDEST SWAP5 POP PUSH2 0xDC7 DUP2 PUSH2 0x11AD JUMP JUMPDEST SWAP1 POP PUSH2 0xD82 JUMP JUMPDEST POP PUSH2 0xDD9 DUP14 DUP14 PUSH2 0x1146 JUMP JUMPDEST DUP8 PUSH2 0xDE4 DUP12 DUP8 PUSH2 0x1183 JUMP JUMPDEST PUSH2 0xDEE SWAP2 SWAP1 PUSH2 0x1183 JUMP JUMPDEST PUSH2 0xDF8 SWAP2 SWAP1 PUSH2 0x116F JUMP JUMPDEST SWAP14 SWAP13 POP POP POP POP POP POP POP POP POP POP POP POP POP JUMP JUMPDEST PUSH1 0x1 SLOAD PUSH1 0x1 PUSH1 0x1 PUSH1 0xA0 SHL SUB AND CALLER EQ PUSH2 0xE33 JUMPI PUSH1 0x40 MLOAD PUSH3 0x461BCD PUSH1 0xE5 SHL DUP2 MSTORE PUSH1 0x4 ADD PUSH2 0x529 SWAP1 PUSH2 0x108F JUMP JUMPDEST PUSH1 0x1 SLOAD PUSH1 0x40 MLOAD PUSH1 0x1 PUSH1 0x1 PUSH1 0xA0 SHL SUB SWAP1 SWAP2 AND SWAP1 SELFBALANCE DUP1 ISZERO PUSH2 0x8FC MUL SWAP2 PUSH1 0x0 DUP2 DUP2 DUP2 DUP6 DUP9 DUP9 CALL SWAP4 POP POP POP POP ISZERO DUP1 ISZERO PUSH2 0xE6C JUMPI RETURNDATASIZE PUSH1 0x0 DUP1 RETURNDATACOPY RETURNDATASIZE PUSH1 0x0 REVERT JUMPDEST POP JUMP JUMPDEST PUSH1 0x1 SLOAD PUSH1 0x1 PUSH1 0x1 PUSH1 0xA0 SHL SUB AND CALLER EQ PUSH2 0xE99 JUMPI PUSH1 0x40 MLOAD PUSH3 0x461BCD PUSH1 0xE5 SHL DUP2 MSTORE PUSH1 0x4 ADD PUSH2 0x529 SWAP1 PUSH2 0x108F JUMP JUMPDEST PUSH1 0x1 PUSH1 0x1 PUSH1 0xA0 SHL SUB DUP2 AND PUSH2 0xEFE JUMPI PUSH1 0x40 MLOAD PUSH3 0x461BCD PUSH1 0xE5 SHL DUP2 MSTORE PUSH1 0x20 PUSH1 0x4 DUP3 ADD MSTORE PUSH1 0x26 PUSH1 0x24 DUP3 ADD MSTORE PUSH32 0x4F776E61626C653A206E6577206F776E657220697320746865207A65726F2061 PUSH1 0x44 DUP3 ADD MSTORE PUSH6 0x646472657373 PUSH1 0xD0 SHL PUSH1 0x64 DUP3 ADD MSTORE PUSH1 0x84 ADD PUSH2 0x529 JUMP JUMPDEST PUSH2 0xE6C DUP2 PUSH2 0xF37 JUMP JUMPDEST PUSH1 0x0 PUSH2 0x4F8 DUP3 DUP5 PUSH2 0x1146 JUMP JUMPDEST PUSH1 0x0 PUSH2 0x4F8 DUP3 DUP5 PUSH2 0x1196 JUMP JUMPDEST PUSH1 0x0 PUSH2 0x4F8 DUP3 DUP5 PUSH2 0x116F JUMP JUMPDEST PUSH1 0x0 PUSH2 0x4F8 DUP3 DUP5 PUSH2 0x1183 JUMP JUMPDEST PUSH1 0x1 DUP1 SLOAD PUSH1 0x1 PUSH1 0x1 PUSH1 0xA0 SHL SUB DUP4 DUP2 AND PUSH1 0x1 PUSH1 0x1 PUSH1 0xA0 SHL SUB NOT DUP4 AND DUP2 OR SWAP1 SWAP4 SSTORE PUSH1 0x40 MLOAD SWAP2 AND SWAP2 SWAP1 DUP3 SWAP1 PUSH32 0x8BE0079C531659141344CD1FD0A4F28419497F9722A3DAAFE3B4186F6B6457E0 SWAP1 PUSH1 0x0 SWAP1 LOG3 POP POP JUMP JUMPDEST PUSH1 0x0 DUP1 PUSH2 0xF95 DUP4 PUSH2 0x82A JUMP JUMPDEST SWAP1 POP PUSH1 0x0 PUSH2 0x8C8 PUSH1 0x7 SLOAD DUP4 PUSH2 0xF1F SWAP1 SWAP2 SWAP1 PUSH4 0xFFFFFFFF AND JUMP JUMPDEST DUP1 CALLDATALOAD PUSH1 0x1 PUSH1 0x1 PUSH1 0xA0 SHL SUB DUP2 AND DUP2 EQ PUSH2 0xFC5 JUMPI PUSH1 0x0 DUP1 REVERT JUMPDEST SWAP2 SWAP1 POP JUMP JUMPDEST PUSH1 0x0 PUSH1 0x20 DUP3 DUP5 SUB SLT ISZERO PUSH2 0xFDC JUMPI PUSH1 0x0 DUP1 REVERT JUMPDEST PUSH2 0x4F8 DUP3 PUSH2 0xFAE JUMP JUMPDEST DUP1 ISZERO ISZERO DUP2 EQ PUSH2 0xE6C JUMPI PUSH1 0x0 DUP1 REVERT JUMPDEST PUSH1 0x0 DUP1 PUSH1 0x40 DUP4 DUP6 SUB SLT ISZERO PUSH2 0x1006 JUMPI PUSH1 0x0 DUP1 REVERT JUMPDEST PUSH2 0x100F DUP4 PUSH2 0xFAE JUMP JUMPDEST SWAP2 POP PUSH1 0x20 DUP4 ADD CALLDATALOAD PUSH2 0x101F DUP2 PUSH2 0xFE5 JUMP JUMPDEST DUP1 SWAP2 POP POP SWAP3 POP SWAP3 SWAP1 POP JUMP JUMPDEST PUSH1 0x0 PUSH1 0x20 DUP3 DUP5 SUB SLT ISZERO PUSH2 0x103C JUMPI PUSH1 0x0 DUP1 REVERT JUMPDEST POP CALLDATALOAD SWAP2 SWAP1 POP JUMP JUMPDEST PUSH1 0x0 DUP1 PUSH1 0x40 DUP4 DUP6 SUB SLT ISZERO PUSH2 0x1056 JUMPI PUSH1 0x0 DUP1 REVERT JUMPDEST PUSH2 0x105F DUP4 PUSH2 0xFAE JUMP JUMPDEST SWAP5 PUSH1 0x20 SWAP4 SWAP1 SWAP4 ADD CALLDATALOAD SWAP4 POP POP POP JUMP JUMPDEST PUSH1 0x0 DUP1 PUSH1 0x40 DUP4 DUP6 SUB SLT ISZERO PUSH2 0x1080 JUMPI PUSH1 0x0 DUP1 REVERT JUMPDEST POP POP DUP1 CALLDATALOAD SWAP3 PUSH1 0x20 SWAP1 SWAP2 ADD CALLDATALOAD SWAP2 POP JUMP JUMPDEST PUSH1 0x20 DUP1 DUP3 MSTORE PUSH1 0x22 SWAP1 DUP3 ADD MSTORE PUSH32 0x41646D696E61626C653A2063616C6C6572206973206E6F7420746865206F776E PUSH1 0x40 DUP3 ADD MSTORE PUSH2 0x32B9 PUSH1 0xF1 SHL PUSH1 0x60 DUP3 ADD MSTORE PUSH1 0x80 ADD SWAP1 JUMP JUMPDEST PUSH1 0x0 PUSH1 0x20 DUP3 DUP5 SUB SLT ISZERO PUSH2 0x10E3 JUMPI PUSH1 0x0 DUP1 REVERT JUMPDEST DUP2 MLOAD PUSH2 0x4F8 DUP2 PUSH2 0xFE5 JUMP JUMPDEST PUSH1 0x20 DUP1 DUP3 MSTORE PUSH1 0x22 SWAP1 DUP3 ADD MSTORE PUSH32 0x41646D696E61626C653A2063616C6C6572206973206E6F74207468652061646D PUSH1 0x40 DUP3 ADD MSTORE PUSH2 0x34B7 PUSH1 0xF1 SHL PUSH1 0x60 DUP3 ADD MSTORE PUSH1 0x80 ADD SWAP1 JUMP JUMPDEST PUSH4 0x4E487B71 PUSH1 0xE0 SHL PUSH1 0x0 MSTORE PUSH1 0x11 PUSH1 0x4 MSTORE PUSH1 0x24 PUSH1 0x0 REVERT JUMPDEST DUP2 DUP2 SUB DUP2 DUP2 GT ISZERO PUSH2 0x94F JUMPI PUSH2 0x94F PUSH2 0x1130 JUMP JUMPDEST PUSH4 0x4E487B71 PUSH1 0xE0 SHL PUSH1 0x0 MSTORE PUSH1 0x12 PUSH1 0x4 MSTORE PUSH1 0x24 PUSH1 0x0 REVERT JUMPDEST PUSH1 0x0 DUP3 PUSH2 0x117E JUMPI PUSH2 0x117E PUSH2 0x1159 JUMP JUMPDEST POP DIV SWAP1 JUMP JUMPDEST DUP1 DUP3 ADD DUP1 DUP3 GT ISZERO PUSH2 0x94F JUMPI PUSH2 0x94F PUSH2 0x1130 JUMP JUMPDEST DUP1 DUP3 MUL DUP2 ISZERO DUP3 DUP3 DIV DUP5 EQ OR PUSH2 0x94F JUMPI PUSH2 0x94F PUSH2 0x1130 JUMP JUMPDEST PUSH1 0x0 PUSH1 0x1 DUP3 ADD PUSH2 0x11BF JUMPI PUSH2 0x11BF PUSH2 0x1130 JUMP JUMPDEST POP PUSH1 0x1 ADD SWAP1 JUMP JUMPDEST PUSH1 0x0 DUP3 PUSH2 0x11D5 JUMPI PUSH2 0x11D5 PUSH2 0x1159 JUMP JUMPDEST POP MOD SWAP1 JUMP INVALID LOG2 PUSH5 0x6970667358 0x22 SLT KECCAK256 SWAP14 SWAP9 0xE3 PUSH14 0x622EA2D5E7B534896534CD7FEA55 0xBE 0xBE 0xAE 0xD9 DUP1 PUSH13 0x23DDC03EF2D98AB964736F6C63 NUMBER STOP ADDMOD GT STOP CALLER "
		},
		"gasEstimates": {
			"creation": {
				"codeDepositCost": "924800",
				"executionCost": "137336",
				"totalCost": "1062136"
			},
			"external": {
				"curTime()": "269",
				"earned(address)": "infinite",
				"emergencyWithdraw()": "infinite",
				"emergencyWithdrawToken(address,uint256)": "infinite",
				"getCurRewardPool()": "infinite",
				"getCurRewardRate()": "infinite",
				"getRemainPool(uint256)": "infinite",
				"getReward()": "infinite",
				"getRewardPool(uint256)": "infinite",
				"getTimeWeightedAveRate(uint256,uint256)": "infinite",
				"isAdmin(address)": "2598",
				"lastTimeRewardApplicable()": "291",
				"lastUpdateTime()": "2373",
				"modificationAdmin(address,bool)": "30911",
				"owner()": "2365",
				"powersOf(address)": "2593",
				"rateInterval()": "2374",
				"rateIntervalDenominator()": "2373",
				"rateIntervalNumerator()": "2352",
				"renounceOwnership()": "28162",
				"rewardPerToken(uint256)": "infinite",
				"rewardPerTokenStored()": "2394",
				"rewards(address)": "2577",
				"rewardsToken()": "2381",
				"setRewardToken(address)": "26801",
				"setStartTime(uint256)": "24675",
				"stake(address,uint256)": "infinite",
				"startTime()": "2351",
				"totalPowers()": "2393",
				"totalRewards()": "2375",
				"transferOwnership(address)": "28444",
				"userLastUpdateTime(address)": "2554",
				"userRewardPerTokenPaid(address)": "2620"
			},
			"internal": {
				"_getRewardRate(uint256)": "infinite"
			}
		},
		"methodIdentifiers": {
			"curTime()": "9a5b17b0",
			"earned(address)": "008cc262",
			"emergencyWithdraw()": "db2e21bc",
			"emergencyWithdrawToken(address,uint256)": "a4c3b091",
			"getCurRewardPool()": "9499c549",
			"getCurRewardRate()": "cdda56e0",
			"getRemainPool(uint256)": "4dbdc4eb",
			"getReward()": "3d18b912",
			"getRewardPool(uint256)": "5cfa91f4",
			"getTimeWeightedAveRate(uint256,uint256)": "da4f8431",
			"isAdmin(address)": "24d7806c",
			"lastTimeRewardApplicable()": "80faa57d",
			"lastUpdateTime()": "c8f33c91",
			"modificationAdmin(address,bool)": "18e20ecf",
			"owner()": "8da5cb5b",
			"powersOf(address)": "b79ec812",
			"rateInterval()": "6139d4b4",
			"rateIntervalDenominator()": "7a6fcee7",
			"rateIntervalNumerator()": "3c4045cf",
			"renounceOwnership()": "715018a6",
			"rewardPerToken(uint256)": "874c120b",
			"rewardPerTokenStored()": "df136d65",
			"rewards(address)": "0700037d",
			"rewardsToken()": "d1af0c7d",
			"setRewardToken(address)": "8aee8127",
			"setStartTime(uint256)": "3e0a322d",
			"stake(address,uint256)": "adc9772e",
			"startTime()": "78e97925",
			"totalPowers()": "6917c501",
			"totalRewards()": "0e15561a",
			"transferOwnership(address)": "f2fde38b",
			"userLastUpdateTime(address)": "8107368b",
			"userRewardPerTokenPaid(address)": "8b876347"
		}
	},
	"abi": [
		{
			"anonymous": false,
			"inputs": [
				{
					"indexed": true,
					"internalType": "address",
					"name": "admin",
					"type": "address"
				},
				{
					"indexed": false,
					"internalType": "bool",
					"name": "oldState",
					"type": "bool"
				},
				{
					"indexed": false,
					"internalType": "bool",
					"name": "newState",
					"type": "bool"
				}
			],
			"name": "ModificationAdmin",
			"type": "event"
		},
		{
			"anonymous": false,
			"inputs": [
				{
					"indexed": true,
					"internalType": "address",
					"name": "previousOwner",
					"type": "address"
				},
				{
					"indexed": true,
					"internalType": "address",
					"name": "newOwner",
					"type": "address"
				}
			],
			"name": "OwnershipTransferred",
			"type": "event"
		},
		{
			"anonymous": false,
			"inputs": [
				{
					"indexed": true,
					"internalType": "address",
					"name": "user",
					"type": "address"
				},
				{
					"indexed": false,
					"internalType": "uint256",
					"name": "reward",
					"type": "uint256"
				}
			],
			"name": "RewardPaid",
			"type": "event"
		},
		{
			"anonymous": false,
			"inputs": [
				{
					"indexed": true,
					"internalType": "address",
					"name": "user",
					"type": "address"
				},
				{
					"indexed": false,
					"internalType": "uint256",
					"name": "amount",
					"type": "uint256"
				}
			],
			"name": "Staked",
			"type": "event"
		},
		{
			"inputs": [],
			"name": "curTime",
			"outputs": [
				{
					"internalType": "uint256",
					"name": "",
					"type": "uint256"
				}
			],
			"stateMutability": "view",
			"type": "function"
		},
		{
			"inputs": [
				{
					"internalType": "address",
					"name": "account",
					"type": "address"
				}
			],
			"name": "earned",
			"outputs": [
				{
					"internalType": "uint256",
					"name": "",
					"type": "uint256"
				}
			],
			"stateMutability": "view",
			"type": "function"
		},
		{
			"inputs": [],
			"name": "emergencyWithdraw",
			"outputs": [],
			"stateMutability": "nonpayable",
			"type": "function"
		},
		{
			"inputs": [
				{
					"internalType": "address",
					"name": "token",
					"type": "address"
				},
				{
					"internalType": "uint256",
					"name": "amount",
					"type": "uint256"
				}
			],
			"name": "emergencyWithdrawToken",
			"outputs": [],
			"stateMutability": "nonpayable",
			"type": "function"
		},
		{
			"inputs": [],
			"name": "getCurRewardPool",
			"outputs": [
				{
					"internalType": "uint256",
					"name": "",
					"type": "uint256"
				}
			],
			"stateMutability": "view",
			"type": "function"
		},
		{
			"inputs": [],
			"name": "getCurRewardRate",
			"outputs": [
				{
					"internalType": "uint256",
					"name": "",
					"type": "uint256"
				}
			],
			"stateMutability": "view",
			"type": "function"
		},
		{
			"inputs": [
				{
					"internalType": "uint256",
					"name": "time",
					"type": "uint256"
				}
			],
			"name": "getRemainPool",
			"outputs": [
				{
					"internalType": "uint256",
					"name": "",
					"type": "uint256"
				}
			],
			"stateMutability": "view",
			"type": "function"
		},
		{
			"inputs": [],
			"name": "getReward",
			"outputs": [],
			"stateMutability": "nonpayable",
			"type": "function"
		},
		{
			"inputs": [
				{
					"internalType": "uint256",
					"name": "time",
					"type": "uint256"
				}
			],
			"name": "getRewardPool",
			"outputs": [
				{
					"internalType": "uint256",
					"name": "",
					"type": "uint256"
				}
			],
			"stateMutability": "view",
			"type": "function"
		},
		{
			"inputs": [
				{
					"internalType": "uint256",
					"name": "leftTime",
					"type": "uint256"
				},
				{
					"internalType": "uint256",
					"name": "rightTime",
					"type": "uint256"
				}
			],
			"name": "getTimeWeightedAveRate",
			"outputs": [
				{
					"internalType": "uint256",
					"name": "",
					"type": "uint256"
				}
			],
			"stateMutability": "view",
			"type": "function"
		},
		{
			"inputs": [
				{
					"internalType": "address",
					"name": "account",
					"type": "address"
				}
			],
			"name": "isAdmin",
			"outputs": [
				{
					"internalType": "bool",
					"name": "",
					"type": "bool"
				}
			],
			"stateMutability": "view",
			"type": "function"
		},
		{
			"inputs": [],
			"name": "lastTimeRewardApplicable",
			"outputs": [
				{
					"internalType": "uint256",
					"name": "",
					"type": "uint256"
				}
			],
			"stateMutability": "view",
			"type": "function"
		},
		{
			"inputs": [],
			"name": "lastUpdateTime",
			"outputs": [
				{
					"internalType": "uint256",
					"name": "",
					"type": "uint256"
				}
			],
			"stateMutability": "view",
			"type": "function"
		},
		{
			"inputs": [
				{
					"internalType": "address",
					"name": "admin",
					"type": "address"
				},
				{
					"internalType": "bool",
					"name": "state",
					"type": "bool"
				}
			],
			"name": "modificationAdmin",
			"outputs": [],
			"stateMutability": "nonpayable",
			"type": "function"
		},
		{
			"inputs": [],
			"name": "owner",
			"outputs": [
				{
					"internalType": "address",
					"name": "",
					"type": "address"
				}
			],
			"stateMutability": "view",
			"type": "function"
		},
		{
			"inputs": [
				{
					"internalType": "address",
					"name": "account",
					"type": "address"
				}
			],
			"name": "powersOf",
			"outputs": [
				{
					"internalType": "uint256",
					"name": "",
					"type": "uint256"
				}
			],
			"stateMutability": "view",
			"type": "function"
		},
		{
			"inputs": [],
			"name": "rateInterval",
			"outputs": [
				{
					"internalType": "uint256",
					"name": "",
					"type": "uint256"
				}
			],
			"stateMutability": "view",
			"type": "function"
		},
		{
			"inputs": [],
			"name": "rateIntervalDenominator",
			"outputs": [
				{
					"internalType": "uint256",
					"name": "",
					"type": "uint256"
				}
			],
			"stateMutability": "view",
			"type": "function"
		},
		{
			"inputs": [],
			"name": "rateIntervalNumerator",
			"outputs": [
				{
					"internalType": "uint256",
					"name": "",
					"type": "uint256"
				}
			],
			"stateMutability": "view",
			"type": "function"
		},
		{
			"inputs": [],
			"name": "renounceOwnership",
			"outputs": [],
			"stateMutability": "nonpayable",
			"type": "function"
		},
		{
			"inputs": [
				{
					"internalType": "uint256",
					"name": "rewardRate",
					"type": "uint256"
				}
			],
			"name": "rewardPerToken",
			"outputs": [
				{
					"internalType": "uint256",
					"name": "",
					"type": "uint256"
				}
			],
			"stateMutability": "view",
			"type": "function"
		},
		{
			"inputs": [],
			"name": "rewardPerTokenStored",
			"outputs": [
				{
					"internalType": "uint256",
					"name": "",
					"type": "uint256"
				}
			],
			"stateMutability": "view",
			"type": "function"
		},
		{
			"inputs": [
				{
					"internalType": "address",
					"name": "",
					"type": "address"
				}
			],
			"name": "rewards",
			"outputs": [
				{
					"internalType": "uint256",
					"name": "",
					"type": "uint256"
				}
			],
			"stateMutability": "view",
			"type": "function"
		},
		{
			"inputs": [],
			"name": "rewardsToken",
			"outputs": [
				{
					"internalType": "contract IERC20",
					"name": "",
					"type": "address"
				}
			],
			"stateMutability": "view",
			"type": "function"
		},
		{
			"inputs": [
				{
					"internalType": "address",
					"name": "token",
					"type": "address"
				}
			],
			"name": "setRewardToken",
			"outputs": [],
			"stateMutability": "nonpayable",
			"type": "function"
		},
		{
			"inputs": [
				{
					"internalType": "uint256",
					"name": "time",
					"type": "uint256"
				}
			],
			"name": "setStartTime",
			"outputs": [],
			"stateMutability": "nonpayable",
			"type": "function"
		},
		{
			"inputs": [
				{
					"internalType": "address",
					"name": "user",
					"type": "address"
				},
				{
					"internalType": "uint256",
					"name": "amount",
					"type": "uint256"
				}
			],
			"name": "stake",
			"outputs": [],
			"stateMutability": "nonpayable",
			"type": "function"
		},
		{
			"inputs": [],
			"name": "startTime",
			"outputs": [
				{
					"internalType": "uint256",
					"name": "",
					"type": "uint256"
				}
			],
			"stateMutability": "view",
			"type": "function"
		},
		{
			"inputs": [],
			"name": "totalPowers",
			"outputs": [
				{
					"internalType": "uint256",
					"name": "",
					"type": "uint256"
				}
			],
			"stateMutability": "view",
			"type": "function"
		},
		{
			"inputs": [],
			"name": "totalRewards",
			"outputs": [
				{
					"internalType": "uint256",
					"name": "",
					"type": "uint256"
				}
			],
			"stateMutability": "view",
			"type": "function"
		},
		{
			"inputs": [
				{
					"internalType": "address",
					"name": "newOwner",
					"type": "address"
				}
			],
			"name": "transferOwnership",
			"outputs": [],
			"stateMutability": "nonpayable",
			"type": "function"
		},
		{
			"inputs": [
				{
					"internalType": "address",
					"name": "",
					"type": "address"
				}
			],
			"name": "userLastUpdateTime",
			"outputs": [
				{
					"internalType": "uint256",
					"name": "",
					"type": "uint256"
				}
			],
			"stateMutability": "view",
			"type": "function"
		},
		{
			"inputs": [
				{
					"internalType": "address",
					"name": "",
					"type": "address"
				}
			],
			"name": "userRewardPerTokenPaid",
			"outputs": [
				{
					"internalType": "uint256",
					"name": "",
					"type": "uint256"
				}
			],
			"stateMutability": "view",
			"type": "function"
		}
	]
}