{
	"ex/token/Baby.sol": {
		"Bee": {
			"abi": [
				{
					"inputs": [],
					"stateMutability": "nonpayable",
					"type": "constructor"
				},
				{
					"anonymous": false,
					"inputs": [
						{
							"indexed": true,
							"internalType": "address",
							"name": "owner",
							"type": "address"
						},
						{
							"indexed": true,
							"internalType": "address",
							"name": "spender",
							"type": "address"
						},
						{
							"indexed": false,
							"internalType": "uint256",
							"name": "value",
							"type": "uint256"
						}
					],
					"name": "Approval",
					"type": "event"
				},
				{
					"anonymous": false,
					"inputs": [
						{
							"indexed": true,
							"internalType": "address",
							"name": "previousOwner",
							"type": "address"
						},
						{
							"indexed": true,
							"internalType": "address",
							"name": "newOwner",
							"type": "address"
						}
					],
					"name": "OwnershipTransferred",
					"type": "event"
				},
				{
					"anonymous": false,
					"inputs": [
						{
							"indexed": true,
							"internalType": "address",
							"name": "from",
							"type": "address"
						},
						{
							"indexed": true,
							"internalType": "address",
							"name": "to",
							"type": "address"
						},
						{
							"indexed": false,
							"internalType": "uint256",
							"name": "value",
							"type": "uint256"
						}
					],
					"name": "Transfer",
					"type": "event"
				},
				{
					"inputs": [
						{
							"internalType": "address",
							"name": "",
							"type": "address"
						}
					],
					"name": "DEXs",
					"outputs": [
						{
							"internalType": "bool",
							"name": "",
							"type": "bool"
						}
					],
					"stateMutability": "view",
					"type": "function"
				},
				{
					"inputs": [
						{
							"internalType": "address",
							"name": "_pair",
							"type": "address"
						}
					],
					"name": "addDex",
					"outputs": [],
					"stateMutability": "nonpayable",
					"type": "function"
				},
				{
					"inputs": [
						{
							"internalType": "address",
							"name": "owner",
							"type": "address"
						},
						{
							"internalType": "address",
							"name": "spender",
							"type": "address"
						}
					],
					"name": "allowance",
					"outputs": [
						{
							"internalType": "uint256",
							"name": "",
							"type": "uint256"
						}
					],
					"stateMutability": "view",
					"type": "function"
				},
				{
					"inputs": [
						{
							"internalType": "address",
							"name": "spender",
							"type": "address"
						},
						{
							"internalType": "uint256",
							"name": "amount",
							"type": "uint256"
						}
					],
					"name": "approve",
					"outputs": [
						{
							"internalType": "bool",
							"name": "",
							"type": "bool"
						}
					],
					"stateMutability": "nonpayable",
					"type": "function"
				},
				{
					"inputs": [
						{
							"internalType": "address",
							"name": "account",
							"type": "address"
						}
					],
					"name": "balanceOf",
					"outputs": [
						{
							"internalType": "uint256",
							"name": "",
							"type": "uint256"
						}
					],
					"stateMutability": "view",
					"type": "function"
				},
				{
					"inputs": [
						{
							"internalType": "uint256",
							"name": "amount",
							"type": "uint256"
						}
					],
					"name": "burn",
					"outputs": [],
					"stateMutability": "nonpayable",
					"type": "function"
				},
				{
					"inputs": [],
					"name": "decimals",
					"outputs": [
						{
							"internalType": "uint8",
							"name": "",
							"type": "uint8"
						}
					],
					"stateMutability": "view",
					"type": "function"
				},
				{
					"inputs": [
						{
							"internalType": "address",
							"name": "spender",
							"type": "address"
						},
						{
							"internalType": "uint256",
							"name": "subtractedValue",
							"type": "uint256"
						}
					],
					"name": "decreaseAllowance",
					"outputs": [
						{
							"internalType": "bool",
							"name": "",
							"type": "bool"
						}
					],
					"stateMutability": "nonpayable",
					"type": "function"
				},
				{
					"inputs": [
						{
							"internalType": "address",
							"name": "spender",
							"type": "address"
						},
						{
							"internalType": "uint256",
							"name": "addedValue",
							"type": "uint256"
						}
					],
					"name": "increaseAllowance",
					"outputs": [
						{
							"internalType": "bool",
							"name": "",
							"type": "bool"
						}
					],
					"stateMutability": "nonpayable",
					"type": "function"
				},
				{
					"inputs": [],
					"name": "marketAddress",
					"outputs": [
						{
							"internalType": "address",
							"name": "",
							"type": "address"
						}
					],
					"stateMutability": "view",
					"type": "function"
				},
				{
					"inputs": [],
					"name": "name",
					"outputs": [
						{
							"internalType": "string",
							"name": "",
							"type": "string"
						}
					],
					"stateMutability": "view",
					"type": "function"
				},
				{
					"inputs": [],
					"name": "owner",
					"outputs": [
						{
							"internalType": "address",
							"name": "",
							"type": "address"
						}
					],
					"stateMutability": "view",
					"type": "function"
				},
				{
					"inputs": [],
					"name": "renounceOwnership",
					"outputs": [],
					"stateMutability": "nonpayable",
					"type": "function"
				},
				{
					"inputs": [
						{
							"internalType": "address",
							"name": "addr",
							"type": "address"
						}
					],
					"name": "setExcludeds",
					"outputs": [],
					"stateMutability": "nonpayable",
					"type": "function"
				},
				{
					"inputs": [
						{
							"internalType": "address",
							"name": "addr",
							"type": "address"
						}
					],
					"name": "setMarketAddress",
					"outputs": [],
					"stateMutability": "nonpayable",
					"type": "function"
				},
				{
					"inputs": [],
					"name": "symbol",
					"outputs": [
						{
							"internalType": "string",
							"name": "",
							"type": "string"
						}
					],
					"stateMutability": "view",
					"type": "function"
				},
				{
					"inputs": [],
					"name": "totalSupply",
					"outputs": [
						{
							"internalType": "uint256",
							"name": "",
							"type": "uint256"
						}
					],
					"stateMutability": "view",
					"type": "function"
				},
				{
					"inputs": [
						{
							"internalType": "address",
							"name": "recipient",
							"type": "address"
						},
						{
							"internalType": "uint256",
							"name": "amount",
							"type": "uint256"
						}
					],
					"name": "transfer",
					"outputs": [
						{
							"internalType": "bool",
							"name": "",
							"type": "bool"
						}
					],
					"stateMutability": "nonpayable",
					"type": "function"
				},
				{
					"inputs": [
						{
							"internalType": "address",
							"name": "sender",
							"type": "address"
						},
						{
							"internalType": "address",
							"name": "recipient",
							"type": "address"
						},
						{
							"internalType": "uint256",
							"name": "amount",
							"type": "uint256"
						}
					],
					"name": "transferFrom",
					"outputs": [
						{
							"internalType": "bool",
							"name": "",
							"type": "bool"
						}
					],
					"stateMutability": "nonpayable",
					"type": "function"
				},
				{
					"inputs": [
						{
							"internalType": "address",
							"name": "newOwner",
							"type": "address"
						}
					],
					"name": "transferOwnership",
					"outputs": [],
					"stateMutability": "nonpayable",
					"type": "function"
				},
				{
					"inputs": [],
					"name": "uniswapUsdtV2Pair",
					"outputs": [
						{
							"internalType": "address",
							"name": "",
							"type": "address"
						}
					],
					"stateMutability": "view",
					"type": "function"
				},
				{
					"inputs": [],
					"name": "uniswapV2Pair",
					"outputs": [
						{
							"internalType": "address",
							"name": "",
							"type": "address"
						}
					],
					"stateMutability": "view",
					"type": "function"
				},
				{
					"inputs": [],
					"name": "uniswapV2Router",
					"outputs": [
						{
							"internalType": "contract IPancakeSwapV2Router02",
							"name": "",
							"type": "address"
						}
					],
					"stateMutability": "view",
					"type": "function"
				},
				{
					"inputs": [],
					"name": "usdtMintAddress",
					"outputs": [
						{
							"internalType": "address",
							"name": "",
							"type": "address"
						}
					],
					"stateMutability": "view",
					"type": "function"
				},
				{
					"stateMutability": "payable",
					"type": "receive"
				}
			],
			"devdoc": {
				"kind": "dev",
				"methods": {
					"owner()": {
						"details": "Returns the address of the current owner."
					},
					"renounceOwnership()": {
						"details": "Leaves the contract without owner. It will not be possible to call `onlyOwner` functions anymore. Can only be called by the current owner. NOTE: Renouncing ownership will leave the contract without an owner, thereby removing any functionality that is only available to the owner."
					},
					"transferOwnership(address)": {
						"details": "Transfers ownership of the contract to a new account (`newOwner`). Can only be called by the current owner."
					}
				},
				"version": 1
			},
			"evm": {
				"assembly": "    /* \"ex/token/Baby.sol\":15784:23362  contract Bee is Context, IERC20, IERC20Metadata, Ownable{... */\n  mstore(0x40, 0xe0)\n    /* \"ex/token/Baby.sol\":16441:16483  0xd3c0b6Aa1538d639912789be705F18b5Fd89fcE6 */\n  0xd3c0b6aa1538d639912789be705f18b5fd89fce6\n    /* \"ex/token/Baby.sol\":16410:16483  address public marketAddress = 0xd3c0b6Aa1538d639912789be705F18b5Fd89fcE6 */\n  0x08\n  exp(0x0100, 0x01)\n  dup2\n  sload\n  dup2\n  0xffffffffffffffffffffffffffffffffffffffff\n  mul\n  not\n  and\n  swap1\n  dup4\n  0xffffffffffffffffffffffffffffffffffffffff\n  and\n  mul\n  or\n  swap1\n  sstore\n  pop\n    /* \"ex/token/Baby.sol\":16585:16627  0x55d398326f99059fF775485246999027B3197955 */\n  0x55d398326f99059ff775485246999027b3197955\n    /* \"ex/token/Baby.sol\":16552:16627  address public usdtMintAddress = 0x55d398326f99059fF775485246999027B3197955 */\n  0x09\n  exp(0x0100, 0x00)\n  dup2\n  sload\n  dup2\n  0xffffffffffffffffffffffffffffffffffffffff\n  mul\n  not\n  and\n  swap1\n  dup4\n  0xffffffffffffffffffffffffffffffffffffffff\n  and\n  mul\n  or\n  swap1\n  sstore\n  pop\n    /* \"ex/token/Baby.sol\":16758:17640  constructor () {... */\n  callvalue\n  dup1\n  iszero\n  tag_1\n  jumpi\n  0x00\n  dup1\n  revert\ntag_1:\n  pop\n    /* \"ex/token/Baby.sol\":3049:3081  _transferOwnership(_msgSender()) */\n  tag_5\n    /* \"ex/token/Baby.sol\":3068:3080  _msgSender() */\n  tag_6\n    /* \"ex/token/Baby.sol\":3068:3078  _msgSender */\n  shl(0x20, tag_7)\n    /* \"ex/token/Baby.sol\":3068:3080  _msgSender() */\n  0x20\n  shr\n  jump\t// in\ntag_6:\n    /* \"ex/token/Baby.sol\":3049:3067  _transferOwnership */\n  shl(0x20, tag_8)\n    /* \"ex/token/Baby.sol\":3049:3081  _transferOwnership(_msgSender()) */\n  0x20\n  shr\n  jump\t// in\ntag_5:\n    /* \"ex/token/Baby.sol\":16784:16820  _mint(_msgSender(), 10240000 * 1e18) */\n  tag_10\n    /* \"ex/token/Baby.sol\":16790:16802  _msgSender() */\n  tag_11\n    /* \"ex/token/Baby.sol\":16790:16800  _msgSender */\n  shl(0x20, tag_7)\n    /* \"ex/token/Baby.sol\":16790:16802  _msgSender() */\n  0x20\n  shr\n  jump\t// in\ntag_11:\n    /* \"ex/token/Baby.sol\":16804:16819  10240000 * 1e18 */\n  0x0878678326eac900000000\n    /* \"ex/token/Baby.sol\":16784:16789  _mint */\n  shl(0x20, tag_12)\n    /* \"ex/token/Baby.sol\":16784:16820  _mint(_msgSender(), 10240000 * 1e18) */\n  0x20\n  shr\n  jump\t// in\ntag_10:\n    /* \"ex/token/Baby.sol\":16857:16869  _msgSender() */\n  tag_13\n    /* \"ex/token/Baby.sol\":16857:16867  _msgSender */\n  shl(0x20, tag_7)\n    /* \"ex/token/Baby.sol\":16857:16869  _msgSender() */\n  0x20\n  shr\n  jump\t// in\ntag_13:\n    /* \"ex/token/Baby.sol\":16836:16887  Transfer(address(0), _msgSender(), 10240000 * 1e18) */\n  0xffffffffffffffffffffffffffffffffffffffff\n  and\n    /* \"ex/token/Baby.sol\":16853:16854  0 */\n  0x00\n    /* \"ex/token/Baby.sol\":16836:16887  Transfer(address(0), _msgSender(), 10240000 * 1e18) */\n  0xffffffffffffffffffffffffffffffffffffffff\n  and\n  0xddf252ad1be2c89b69c2b068fc378daa952ba7f163c4a11628f55a4df523b3ef\n    /* \"ex/token/Baby.sol\":16871:16886  10240000 * 1e18 */\n  0x0878678326eac900000000\n    /* \"ex/token/Baby.sol\":16836:16887  Transfer(address(0), _msgSender(), 10240000 * 1e18) */\n  mload(0x40)\n  tag_14\n  swap2\n  swap1\n  tag_15\n  jump\t// in\ntag_14:\n  mload(0x40)\n  dup1\n  swap2\n  sub\n  swap1\n  log3\n    /* \"ex/token/Baby.sol\":17101:17140  IPancakeSwapV2Router02 _uniswapV2Router */\n  0x00\n    /* \"ex/token/Baby.sol\":17166:17208  0x10ED43C718714eb63d5aA57B78B54704E256024E */\n  0x10ed43c718714eb63d5aa57b78b54704e256024e\n    /* \"ex/token/Baby.sol\":17101:17209  IPancakeSwapV2Router02 _uniswapV2Router = IPancakeSwapV2Router02(0x10ED43C718714eb63d5aA57B78B54704E256024E) */\n  swap1\n  pop\n    /* \"ex/token/Baby.sol\":17258:17274  _uniswapV2Router */\n  dup1\n    /* \"ex/token/Baby.sol\":17258:17282  _uniswapV2Router.factory */\n  0xffffffffffffffffffffffffffffffffffffffff\n  and\n  0xc45a0155\n    /* \"ex/token/Baby.sol\":17258:17284  _uniswapV2Router.factory() */\n  mload(0x40)\n  dup2\n  0xffffffff\n  and\n  0xe0\n  shl\n  dup2\n  mstore\n  0x04\n  add\n  0x20\n  mload(0x40)\n  dup1\n  dup4\n  sub\n  dup2\n  dup7\n  gas\n  staticcall\n  iszero\n  dup1\n  iszero\n  tag_17\n  jumpi\n  returndatasize\n  0x00\n  dup1\n  returndatacopy\n  revert(0x00, returndatasize)\ntag_17:\n  pop\n  pop\n  pop\n  pop\n  mload(0x40)\n  returndatasize\n  not(0x1f)\n  0x1f\n  dup3\n  add\n  and\n  dup3\n  add\n  dup1\n  0x40\n  mstore\n  pop\n  dup2\n  add\n  swap1\n  tag_18\n  swap2\n  swap1\n  tag_19\n  jump\t// in\ntag_18:\n    /* \"ex/token/Baby.sol\":17236:17310  IPancakeSwapV2Factory(_uniswapV2Router.factory())... */\n  0xffffffffffffffffffffffffffffffffffffffff\n  and\n  0xc9c65396\n    /* \"ex/token/Baby.sol\":17319:17323  this */\n  address\n    /* \"ex/token/Baby.sol\":17326:17342  _uniswapV2Router */\n  dup4\n    /* \"ex/token/Baby.sol\":17326:17347  _uniswapV2Router.WETH */\n  0xffffffffffffffffffffffffffffffffffffffff\n  and\n  0xad5c4648\n    /* \"ex/token/Baby.sol\":17326:17349  _uniswapV2Router.WETH() */\n  mload(0x40)\n  dup2\n  0xffffffff\n  and\n  0xe0\n  shl\n  dup2\n  mstore\n  0x04\n  add\n  0x20\n  mload(0x40)\n  dup1\n  dup4\n  sub\n  dup2\n  dup7\n  gas\n  staticcall\n  iszero\n  dup1\n  iszero\n  tag_21\n  jumpi\n  returndatasize\n  0x00\n  dup1\n  returndatacopy\n  revert(0x00, returndatasize)\ntag_21:\n  pop\n  pop\n  pop\n  pop\n  mload(0x40)\n  returndatasize\n  not(0x1f)\n  0x1f\n  dup3\n  add\n  and\n  dup3\n  add\n  dup1\n  0x40\n  mstore\n  pop\n  dup2\n  add\n  swap1\n  tag_22\n  swap2\n  swap1\n  tag_19\n  jump\t// in\ntag_22:\n    /* \"ex/token/Baby.sol\":17236:17350  IPancakeSwapV2Factory(_uniswapV2Router.factory())... */\n  mload(0x40)\n  dup4\n  0xffffffff\n  and\n  0xe0\n  shl\n  dup2\n  mstore\n  0x04\n  add\n  tag_23\n  swap3\n  swap2\n  swap1\n  tag_24\n  jump\t// in\ntag_23:\n  0x20\n  mload(0x40)\n  dup1\n  dup4\n  sub\n  dup2\n  0x00\n  dup8\n  gas\n  call\n  iszero\n  dup1\n  iszero\n  tag_26\n  jumpi\n  returndatasize\n  0x00\n  dup1\n  returndatacopy\n  revert(0x00, returndatasize)\ntag_26:\n  pop\n  pop\n  pop\n  pop\n  mload(0x40)\n  returndatasize\n  not(0x1f)\n  0x1f\n  dup3\n  add\n  and\n  dup3\n  add\n  dup1\n  0x40\n  mstore\n  pop\n  dup2\n  add\n  swap1\n  tag_27\n  swap2\n  swap1\n  tag_19\n  jump\t// in\ntag_27:\n    /* \"ex/token/Baby.sol\":17220:17350  uniswapV2Pair = IPancakeSwapV2Factory(_uniswapV2Router.factory())... */\n  0xffffffffffffffffffffffffffffffffffffffff\n  and\n  0xa0\n  dup2\n  0xffffffffffffffffffffffffffffffffffffffff\n  and\n  dup2\n  mstore\n  pop\n  pop\n    /* \"ex/token/Baby.sol\":17405:17421  _uniswapV2Router */\n  dup1\n    /* \"ex/token/Baby.sol\":17405:17429  _uniswapV2Router.factory */\n  0xffffffffffffffffffffffffffffffffffffffff\n  and\n  0xc45a0155\n    /* \"ex/token/Baby.sol\":17405:17431  _uniswapV2Router.factory() */\n  mload(0x40)\n  dup2\n  0xffffffff\n  and\n  0xe0\n  shl\n  dup2\n  mstore\n  0x04\n  add\n  0x20\n  mload(0x40)\n  dup1\n  dup4\n  sub\n  dup2\n  dup7\n  gas\n  staticcall\n  iszero\n  dup1\n  iszero\n  tag_29\n  jumpi\n  returndatasize\n  0x00\n  dup1\n  returndatacopy\n  revert(0x00, returndatasize)\ntag_29:\n  pop\n  pop\n  pop\n  pop\n  mload(0x40)\n  returndatasize\n  not(0x1f)\n  0x1f\n  dup3\n  add\n  and\n  dup3\n  add\n  dup1\n  0x40\n  mstore\n  pop\n  dup2\n  add\n  swap1\n  tag_30\n  swap2\n  swap1\n  tag_19\n  jump\t// in\ntag_30:\n    /* \"ex/token/Baby.sol\":17383:17457  IPancakeSwapV2Factory(_uniswapV2Router.factory())... */\n  0xffffffffffffffffffffffffffffffffffffffff\n  and\n  0xc9c65396\n    /* \"ex/token/Baby.sol\":17466:17470  this */\n  address\n    /* \"ex/token/Baby.sol\":17473:17488  usdtMintAddress */\n  0x09\n  0x00\n  swap1\n  sload\n  swap1\n  0x0100\n  exp\n  swap1\n  div\n  0xffffffffffffffffffffffffffffffffffffffff\n  and\n    /* \"ex/token/Baby.sol\":17383:17489  IPancakeSwapV2Factory(_uniswapV2Router.factory())... */\n  mload(0x40)\n  dup4\n  0xffffffff\n  and\n  0xe0\n  shl\n  dup2\n  mstore\n  0x04\n  add\n  tag_31\n  swap3\n  swap2\n  swap1\n  tag_24\n  jump\t// in\ntag_31:\n  0x20\n  mload(0x40)\n  dup1\n  dup4\n  sub\n  dup2\n  0x00\n  dup8\n  gas\n  call\n  iszero\n  dup1\n  iszero\n  tag_33\n  jumpi\n  returndatasize\n  0x00\n  dup1\n  returndatacopy\n  revert(0x00, returndatasize)\ntag_33:\n  pop\n  pop\n  pop\n  pop\n  mload(0x40)\n  returndatasize\n  not(0x1f)\n  0x1f\n  dup3\n  add\n  and\n  dup3\n  add\n  dup1\n  0x40\n  mstore\n  pop\n  dup2\n  add\n  swap1\n  tag_34\n  swap2\n  swap1\n  tag_19\n  jump\t// in\ntag_34:\n    /* \"ex/token/Baby.sol\":17363:17489  uniswapUsdtV2Pair = IPancakeSwapV2Factory(_uniswapV2Router.factory())... */\n  0xffffffffffffffffffffffffffffffffffffffff\n  and\n  0xc0\n  dup2\n  0xffffffffffffffffffffffffffffffffffffffff\n  and\n  dup2\n  mstore\n  pop\n  pop\n    /* \"ex/token/Baby.sol\":17520:17536  _uniswapV2Router */\n  dup1\n    /* \"ex/token/Baby.sol\":17502:17536  uniswapV2Router = _uniswapV2Router */\n  0xffffffffffffffffffffffffffffffffffffffff\n  and\n  0x80\n  dup2\n  0xffffffffffffffffffffffffffffffffffffffff\n  and\n  dup2\n  mstore\n  pop\n  pop\n    /* \"ex/token/Baby.sol\":17578:17582  true */\n  0x01\n    /* \"ex/token/Baby.sol\":17547:17551  DEXs */\n  0x07\n    /* \"ex/token/Baby.sol\":17547:17575  DEXs[address(uniswapV2Pair)] */\n  0x00\n    /* \"ex/token/Baby.sol\":17560:17573  uniswapV2Pair */\n  mload(0xa0)\n    /* \"ex/token/Baby.sol\":17547:17575  DEXs[address(uniswapV2Pair)] */\n  0xffffffffffffffffffffffffffffffffffffffff\n  and\n  0xffffffffffffffffffffffffffffffffffffffff\n  and\n  dup2\n  mstore\n  0x20\n  add\n  swap1\n  dup2\n  mstore\n  0x20\n  add\n  0x00\n  keccak256\n  0x00\n    /* \"ex/token/Baby.sol\":17547:17582  DEXs[address(uniswapV2Pair)] = true */\n  0x0100\n  exp\n  dup2\n  sload\n  dup2\n  0xff\n  mul\n  not\n  and\n  swap1\n  dup4\n  iszero\n  iszero\n  mul\n  or\n  swap1\n  sstore\n  pop\n    /* \"ex/token/Baby.sol\":17628:17632  true */\n  0x01\n    /* \"ex/token/Baby.sol\":17593:17597  DEXs */\n  0x07\n    /* \"ex/token/Baby.sol\":17593:17625  DEXs[address(uniswapUsdtV2Pair)] */\n  0x00\n    /* \"ex/token/Baby.sol\":17606:17623  uniswapUsdtV2Pair */\n  mload(0xc0)\n    /* \"ex/token/Baby.sol\":17593:17625  DEXs[address(uniswapUsdtV2Pair)] */\n  0xffffffffffffffffffffffffffffffffffffffff\n  and\n  0xffffffffffffffffffffffffffffffffffffffff\n  and\n  dup2\n  mstore\n  0x20\n  add\n  swap1\n  dup2\n  mstore\n  0x20\n  add\n  0x00\n  keccak256\n  0x00\n    /* \"ex/token/Baby.sol\":17593:17632  DEXs[address(uniswapUsdtV2Pair)] = true */\n  0x0100\n  exp\n  dup2\n  sload\n  dup2\n  0xff\n  mul\n  not\n  and\n  swap1\n  dup4\n  iszero\n  iszero\n  mul\n  or\n  swap1\n  sstore\n  pop\n    /* \"ex/token/Baby.sol\":16773:17640  {... */\n  pop\n    /* \"ex/token/Baby.sol\":15784:23362  contract Bee is Context, IERC20, IERC20Metadata, Ownable{... */\n  jump(tag_35)\n    /* \"ex/token/Baby.sol\":2532:2630  function _msgSender() internal view virtual returns (address) {... */\ntag_7:\n    /* \"ex/token/Baby.sol\":2585:2592  address */\n  0x00\n    /* \"ex/token/Baby.sol\":2612:2622  msg.sender */\n  caller\n    /* \"ex/token/Baby.sol\":2605:2622  return msg.sender */\n  swap1\n  pop\n    /* \"ex/token/Baby.sol\":2532:2630  function _msgSender() internal view virtual returns (address) {... */\n  swap1\n  jump\t// out\n    /* \"ex/token/Baby.sol\":4440:4631  function _transferOwnership(address newOwner) internal virtual {... */\ntag_8:\n    /* \"ex/token/Baby.sol\":4514:4530  address oldOwner */\n  0x00\n    /* \"ex/token/Baby.sol\":4533:4539  _owner */\n  dup1\n  0x00\n  swap1\n  sload\n  swap1\n  0x0100\n  exp\n  swap1\n  div\n  0xffffffffffffffffffffffffffffffffffffffff\n  and\n    /* \"ex/token/Baby.sol\":4514:4539  address oldOwner = _owner */\n  swap1\n  pop\n    /* \"ex/token/Baby.sol\":4559:4567  newOwner */\n  dup2\n    /* \"ex/token/Baby.sol\":4550:4556  _owner */\n  0x00\n  dup1\n    /* \"ex/token/Baby.sol\":4550:4567  _owner = newOwner */\n  0x0100\n  exp\n  dup2\n  sload\n  dup2\n  0xffffffffffffffffffffffffffffffffffffffff\n  mul\n  not\n  and\n  swap1\n  dup4\n  0xffffffffffffffffffffffffffffffffffffffff\n  and\n  mul\n  or\n  swap1\n  sstore\n  pop\n    /* \"ex/token/Baby.sol\":4614:4622  newOwner */\n  dup2\n    /* \"ex/token/Baby.sol\":4583:4623  OwnershipTransferred(oldOwner, newOwner) */\n  0xffffffffffffffffffffffffffffffffffffffff\n  and\n    /* \"ex/token/Baby.sol\":4604:4612  oldOwner */\n  dup2\n    /* \"ex/token/Baby.sol\":4583:4623  OwnershipTransferred(oldOwner, newOwner) */\n  0xffffffffffffffffffffffffffffffffffffffff\n  and\n  0x8be0079c531659141344cd1fd0a4f28419497f9722a3daafe3b4186f6b6457e0\n  mload(0x40)\n  mload(0x40)\n  dup1\n  swap2\n  sub\n  swap1\n  log3\n    /* \"ex/token/Baby.sol\":4503:4631  {... */\n  pop\n    /* \"ex/token/Baby.sol\":4440:4631  function _transferOwnership(address newOwner) internal virtual {... */\n  pop\n  jump\t// out\n    /* \"ex/token/Baby.sol\":21386:21584  function _mint(address account, uint256 amount) internal virtual {... */\ntag_12:\n    /* \"ex/token/Baby.sol\":21484:21490  amount */\n  dup1\n    /* \"ex/token/Baby.sol\":21462:21471  _balances */\n  0x01\n    /* \"ex/token/Baby.sol\":21462:21480  _balances[account] */\n  0x00\n    /* \"ex/token/Baby.sol\":21472:21479  account */\n  dup5\n    /* \"ex/token/Baby.sol\":21462:21480  _balances[account] */\n  0xffffffffffffffffffffffffffffffffffffffff\n  and\n  0xffffffffffffffffffffffffffffffffffffffff\n  and\n  dup2\n  mstore\n  0x20\n  add\n  swap1\n  dup2\n  mstore\n  0x20\n  add\n  0x00\n  keccak256\n  0x00\n    /* \"ex/token/Baby.sol\":21462:21490  _balances[account] += amount */\n  dup3\n  dup3\n  sload\n  tag_39\n  swap2\n  swap1\n  tag_40\n  jump\t// in\ntag_39:\n  swap3\n  pop\n  pop\n  dup2\n  swap1\n  sstore\n  pop\n    /* \"ex/token/Baby.sol\":21517:21523  amount */\n  dup1\n    /* \"ex/token/Baby.sol\":21501:21513  _totalSupply */\n  0x03\n  0x00\n    /* \"ex/token/Baby.sol\":21501:21523  _totalSupply += amount */\n  dup3\n  dup3\n  sload\n  tag_41\n  swap2\n  swap1\n  tag_40\n  jump\t// in\ntag_41:\n  swap3\n  pop\n  pop\n  dup2\n  swap1\n  sstore\n  pop\n    /* \"ex/token/Baby.sol\":21560:21567  account */\n  dup2\n    /* \"ex/token/Baby.sol\":21539:21576  Transfer(address(0), account, amount) */\n  0xffffffffffffffffffffffffffffffffffffffff\n  and\n    /* \"ex/token/Baby.sol\":21556:21557  0 */\n  0x00\n    /* \"ex/token/Baby.sol\":21539:21576  Transfer(address(0), account, amount) */\n  0xffffffffffffffffffffffffffffffffffffffff\n  and\n  0xddf252ad1be2c89b69c2b068fc378daa952ba7f163c4a11628f55a4df523b3ef\n    /* \"ex/token/Baby.sol\":21569:21575  amount */\n  dup4\n    /* \"ex/token/Baby.sol\":21539:21576  Transfer(address(0), account, amount) */\n  mload(0x40)\n  tag_42\n  swap2\n  swap1\n  tag_43\n  jump\t// in\ntag_42:\n  mload(0x40)\n  dup1\n  swap2\n  sub\n  swap1\n  log3\n    /* \"ex/token/Baby.sol\":21386:21584  function _mint(address account, uint256 amount) internal virtual {... */\n  pop\n  pop\n  jump\t// out\n    /* \"#utility.yul\":7:117   */\ntag_44:\n    /* \"#utility.yul\":77:84   */\n  0x00\n    /* \"#utility.yul\":106:111   */\n  dup2\n    /* \"#utility.yul\":95:111   */\n  swap1\n  pop\n    /* \"#utility.yul\":7:117   */\n  swap2\n  swap1\n  pop\n  jump\t// out\n    /* \"#utility.yul\":123:200   */\ntag_45:\n    /* \"#utility.yul\":160:167   */\n  0x00\n    /* \"#utility.yul\":189:194   */\n  dup2\n    /* \"#utility.yul\":178:194   */\n  swap1\n  pop\n    /* \"#utility.yul\":123:200   */\n  swap2\n  swap1\n  pop\n  jump\t// out\n    /* \"#utility.yul\":206:266   */\ntag_46:\n    /* \"#utility.yul\":234:237   */\n  0x00\n    /* \"#utility.yul\":255:260   */\n  dup2\n    /* \"#utility.yul\":248:260   */\n  swap1\n  pop\n    /* \"#utility.yul\":206:266   */\n  swap2\n  swap1\n  pop\n  jump\t// out\n    /* \"#utility.yul\":272:480   */\ntag_47:\n    /* \"#utility.yul\":355:364   */\n  0x00\n    /* \"#utility.yul\":388:474   */\n  tag_64\n    /* \"#utility.yul\":406:473   */\n  tag_65\n    /* \"#utility.yul\":415:472   */\n  tag_66\n    /* \"#utility.yul\":466:471   */\n  dup5\n    /* \"#utility.yul\":415:472   */\n  tag_44\n  jump\t// in\ntag_66:\n    /* \"#utility.yul\":406:473   */\n  tag_46\n  jump\t// in\ntag_65:\n    /* \"#utility.yul\":388:474   */\n  tag_45\n  jump\t// in\ntag_64:\n    /* \"#utility.yul\":375:474   */\n  swap1\n  pop\n    /* \"#utility.yul\":272:480   */\n  swap2\n  swap1\n  pop\n  jump\t// out\n    /* \"#utility.yul\":486:683   */\ntag_48:\n    /* \"#utility.yul\":606:676   */\n  tag_68\n    /* \"#utility.yul\":670:675   */\n  dup2\n    /* \"#utility.yul\":606:676   */\n  tag_47\n  jump\t// in\ntag_68:\n    /* \"#utility.yul\":601:604   */\n  dup3\n    /* \"#utility.yul\":594:677   */\n  mstore\n    /* \"#utility.yul\":486:683   */\n  pop\n  pop\n  jump\t// out\n    /* \"#utility.yul\":689:977   */\ntag_15:\n    /* \"#utility.yul\":815:819   */\n  0x00\n    /* \"#utility.yul\":853:855   */\n  0x20\n    /* \"#utility.yul\":842:851   */\n  dup3\n    /* \"#utility.yul\":838:856   */\n  add\n    /* \"#utility.yul\":830:856   */\n  swap1\n  pop\n    /* \"#utility.yul\":866:970   */\n  tag_70\n    /* \"#utility.yul\":967:968   */\n  0x00\n    /* \"#utility.yul\":956:965   */\n  dup4\n    /* \"#utility.yul\":952:969   */\n  add\n    /* \"#utility.yul\":943:949   */\n  dup5\n    /* \"#utility.yul\":866:970   */\n  tag_48\n  jump\t// in\ntag_70:\n    /* \"#utility.yul\":689:977   */\n  swap3\n  swap2\n  pop\n  pop\n  jump\t// out\n    /* \"#utility.yul\":1064:1181   */\ntag_50:\n    /* \"#utility.yul\":1173:1174   */\n  0x00\n    /* \"#utility.yul\":1170:1171   */\n  dup1\n    /* \"#utility.yul\":1163:1175   */\n  revert\n    /* \"#utility.yul\":1310:1436   */\ntag_52:\n    /* \"#utility.yul\":1347:1354   */\n  0x00\n    /* \"#utility.yul\":1387:1429   */\n  0xffffffffffffffffffffffffffffffffffffffff\n    /* \"#utility.yul\":1380:1385   */\n  dup3\n    /* \"#utility.yul\":1376:1430   */\n  and\n    /* \"#utility.yul\":1365:1430   */\n  swap1\n  pop\n    /* \"#utility.yul\":1310:1436   */\n  swap2\n  swap1\n  pop\n  jump\t// out\n    /* \"#utility.yul\":1442:1538   */\ntag_53:\n    /* \"#utility.yul\":1479:1486   */\n  0x00\n    /* \"#utility.yul\":1508:1532   */\n  tag_76\n    /* \"#utility.yul\":1526:1531   */\n  dup3\n    /* \"#utility.yul\":1508:1532   */\n  tag_52\n  jump\t// in\ntag_76:\n    /* \"#utility.yul\":1497:1532   */\n  swap1\n  pop\n    /* \"#utility.yul\":1442:1538   */\n  swap2\n  swap1\n  pop\n  jump\t// out\n    /* \"#utility.yul\":1544:1666   */\ntag_54:\n    /* \"#utility.yul\":1617:1641   */\n  tag_78\n    /* \"#utility.yul\":1635:1640   */\n  dup2\n    /* \"#utility.yul\":1617:1641   */\n  tag_53\n  jump\t// in\ntag_78:\n    /* \"#utility.yul\":1610:1615   */\n  dup2\n    /* \"#utility.yul\":1607:1642   */\n  eq\n    /* \"#utility.yul\":1597:1660   */\n  tag_79\n  jumpi\n    /* \"#utility.yul\":1656:1657   */\n  0x00\n    /* \"#utility.yul\":1653:1654   */\n  dup1\n    /* \"#utility.yul\":1646:1658   */\n  revert\n    /* \"#utility.yul\":1597:1660   */\ntag_79:\n    /* \"#utility.yul\":1544:1666   */\n  pop\n  jump\t// out\n    /* \"#utility.yul\":1672:1815   */\ntag_55:\n    /* \"#utility.yul\":1729:1734   */\n  0x00\n    /* \"#utility.yul\":1760:1766   */\n  dup2\n    /* \"#utility.yul\":1754:1767   */\n  mload\n    /* \"#utility.yul\":1745:1767   */\n  swap1\n  pop\n    /* \"#utility.yul\":1776:1809   */\n  tag_81\n    /* \"#utility.yul\":1803:1808   */\n  dup2\n    /* \"#utility.yul\":1776:1809   */\n  tag_54\n  jump\t// in\ntag_81:\n    /* \"#utility.yul\":1672:1815   */\n  swap3\n  swap2\n  pop\n  pop\n  jump\t// out\n    /* \"#utility.yul\":1821:2172   */\ntag_19:\n    /* \"#utility.yul\":1891:1897   */\n  0x00\n    /* \"#utility.yul\":1940:1942   */\n  0x20\n    /* \"#utility.yul\":1928:1937   */\n  dup3\n    /* \"#utility.yul\":1919:1926   */\n  dup5\n    /* \"#utility.yul\":1915:1938   */\n  sub\n    /* \"#utility.yul\":1911:1943   */\n  slt\n    /* \"#utility.yul\":1908:2027   */\n  iszero\n  tag_83\n  jumpi\n    /* \"#utility.yul\":1946:2025   */\n  tag_84\n  tag_50\n  jump\t// in\ntag_84:\n    /* \"#utility.yul\":1908:2027   */\ntag_83:\n    /* \"#utility.yul\":2066:2067   */\n  0x00\n    /* \"#utility.yul\":2091:2155   */\n  tag_85\n    /* \"#utility.yul\":2147:2154   */\n  dup5\n    /* \"#utility.yul\":2138:2144   */\n  dup3\n    /* \"#utility.yul\":2127:2136   */\n  dup6\n    /* \"#utility.yul\":2123:2145   */\n  add\n    /* \"#utility.yul\":2091:2155   */\n  tag_55\n  jump\t// in\ntag_85:\n    /* \"#utility.yul\":2081:2155   */\n  swap2\n  pop\n    /* \"#utility.yul\":2037:2165   */\n  pop\n    /* \"#utility.yul\":1821:2172   */\n  swap3\n  swap2\n  pop\n  pop\n  jump\t// out\n    /* \"#utility.yul\":2178:2296   */\ntag_56:\n    /* \"#utility.yul\":2265:2289   */\n  tag_87\n    /* \"#utility.yul\":2283:2288   */\n  dup2\n    /* \"#utility.yul\":2265:2289   */\n  tag_53\n  jump\t// in\ntag_87:\n    /* \"#utility.yul\":2260:2263   */\n  dup3\n    /* \"#utility.yul\":2253:2290   */\n  mstore\n    /* \"#utility.yul\":2178:2296   */\n  pop\n  pop\n  jump\t// out\n    /* \"#utility.yul\":2302:2634   */\ntag_24:\n    /* \"#utility.yul\":2423:2427   */\n  0x00\n    /* \"#utility.yul\":2461:2463   */\n  0x40\n    /* \"#utility.yul\":2450:2459   */\n  dup3\n    /* \"#utility.yul\":2446:2464   */\n  add\n    /* \"#utility.yul\":2438:2464   */\n  swap1\n  pop\n    /* \"#utility.yul\":2474:2545   */\n  tag_89\n    /* \"#utility.yul\":2542:2543   */\n  0x00\n    /* \"#utility.yul\":2531:2540   */\n  dup4\n    /* \"#utility.yul\":2527:2544   */\n  add\n    /* \"#utility.yul\":2518:2524   */\n  dup6\n    /* \"#utility.yul\":2474:2545   */\n  tag_56\n  jump\t// in\ntag_89:\n    /* \"#utility.yul\":2555:2627   */\n  tag_90\n    /* \"#utility.yul\":2623:2625   */\n  0x20\n    /* \"#utility.yul\":2612:2621   */\n  dup4\n    /* \"#utility.yul\":2608:2626   */\n  add\n    /* \"#utility.yul\":2599:2605   */\n  dup5\n    /* \"#utility.yul\":2555:2627   */\n  tag_56\n  jump\t// in\ntag_90:\n    /* \"#utility.yul\":2302:2634   */\n  swap4\n  swap3\n  pop\n  pop\n  pop\n  jump\t// out\n    /* \"#utility.yul\":2640:2820   */\ntag_57:\n    /* \"#utility.yul\":2688:2765   */\n  0x4e487b7100000000000000000000000000000000000000000000000000000000\n    /* \"#utility.yul\":2685:2686   */\n  0x00\n    /* \"#utility.yul\":2678:2766   */\n  mstore\n    /* \"#utility.yul\":2785:2789   */\n  0x11\n    /* \"#utility.yul\":2782:2783   */\n  0x04\n    /* \"#utility.yul\":2775:2790   */\n  mstore\n    /* \"#utility.yul\":2809:2813   */\n  0x24\n    /* \"#utility.yul\":2806:2807   */\n  0x00\n    /* \"#utility.yul\":2799:2814   */\n  revert\n    /* \"#utility.yul\":2826:3017   */\ntag_40:\n    /* \"#utility.yul\":2866:2869   */\n  0x00\n    /* \"#utility.yul\":2885:2905   */\n  tag_93\n    /* \"#utility.yul\":2903:2904   */\n  dup3\n    /* \"#utility.yul\":2885:2905   */\n  tag_45\n  jump\t// in\ntag_93:\n    /* \"#utility.yul\":2880:2905   */\n  swap2\n  pop\n    /* \"#utility.yul\":2919:2939   */\n  tag_94\n    /* \"#utility.yul\":2937:2938   */\n  dup4\n    /* \"#utility.yul\":2919:2939   */\n  tag_45\n  jump\t// in\ntag_94:\n    /* \"#utility.yul\":2914:2939   */\n  swap3\n  pop\n    /* \"#utility.yul\":2962:2963   */\n  dup3\n    /* \"#utility.yul\":2959:2960   */\n  dup3\n    /* \"#utility.yul\":2955:2964   */\n  add\n    /* \"#utility.yul\":2948:2964   */\n  swap1\n  pop\n    /* \"#utility.yul\":2983:2986   */\n  dup1\n    /* \"#utility.yul\":2980:2981   */\n  dup3\n    /* \"#utility.yul\":2977:2987   */\n  gt\n    /* \"#utility.yul\":2974:3010   */\n  iszero\n  tag_95\n  jumpi\n    /* \"#utility.yul\":2990:3008   */\n  tag_96\n  tag_57\n  jump\t// in\ntag_96:\n    /* \"#utility.yul\":2974:3010   */\ntag_95:\n    /* \"#utility.yul\":2826:3017   */\n  swap3\n  swap2\n  pop\n  pop\n  jump\t// out\n    /* \"#utility.yul\":3023:3141   */\ntag_58:\n    /* \"#utility.yul\":3110:3134   */\n  tag_98\n    /* \"#utility.yul\":3128:3133   */\n  dup2\n    /* \"#utility.yul\":3110:3134   */\n  tag_45\n  jump\t// in\ntag_98:\n    /* \"#utility.yul\":3105:3108   */\n  dup3\n    /* \"#utility.yul\":3098:3135   */\n  mstore\n    /* \"#utility.yul\":3023:3141   */\n  pop\n  pop\n  jump\t// out\n    /* \"#utility.yul\":3147:3369   */\ntag_43:\n    /* \"#utility.yul\":3240:3244   */\n  0x00\n    /* \"#utility.yul\":3278:3280   */\n  0x20\n    /* \"#utility.yul\":3267:3276   */\n  dup3\n    /* \"#utility.yul\":3263:3281   */\n  add\n    /* \"#utility.yul\":3255:3281   */\n  swap1\n  pop\n    /* \"#utility.yul\":3291:3362   */\n  tag_100\n    /* \"#utility.yul\":3359:3360   */\n  0x00\n    /* \"#utility.yul\":3348:3357   */\n  dup4\n    /* \"#utility.yul\":3344:3361   */\n  add\n    /* \"#utility.yul\":3335:3341   */\n  dup5\n    /* \"#utility.yul\":3291:3362   */\n  tag_58\n  jump\t// in\ntag_100:\n    /* \"#utility.yul\":3147:3369   */\n  swap3\n  swap2\n  pop\n  pop\n  jump\t// out\n    /* \"ex/token/Baby.sol\":15784:23362  contract Bee is Context, IERC20, IERC20Metadata, Ownable{... */\ntag_35:\n  mload(0x80)\n  mload(0xa0)\n  mload(0xc0)\n  codecopy(0x00, dataOffset(sub_0), dataSize(sub_0))\n  0x00\n  assignImmutable(\"0xc3259c45f9e3c1055fdcabf98c9c354977536b311a2495291202379be8e06e09\")\n  0x00\n  assignImmutable(\"0xcf847823cd05fc0701b9c43d16f83004daff2637516797a8151c5b74447a7127\")\n  0x00\n  assignImmutable(\"0x0257654a82461e8a1d15ee210f9c68af767d2a4dc70df683f0ecf9e700bd8bac\")\n  return(0x00, dataSize(sub_0))\nstop\n\nsub_0: assembly {\n        /* \"ex/token/Baby.sol\":15784:23362  contract Bee is Context, IERC20, IERC20Metadata, Ownable{... */\n      mstore(0x40, 0x80)\n      jumpi(tag_1, lt(calldatasize, 0x04))\n      shr(0xe0, calldataload(0x00))\n      dup1\n      0x715018a6\n      gt\n      tag_27\n      jumpi\n      dup1\n      0xa8808fcc\n      gt\n      tag_28\n      jumpi\n      dup1\n      0xa8808fcc\n      eq\n      tag_21\n      jumpi\n      dup1\n      0xa9059cbb\n      eq\n      tag_22\n      jumpi\n      dup1\n      0xdd62ed3e\n      eq\n      tag_23\n      jumpi\n      dup1\n      0xdec1a6f6\n      eq\n      tag_24\n      jumpi\n      dup1\n      0xf2fde38b\n      eq\n      tag_25\n      jumpi\n      dup1\n      0xfae92612\n      eq\n      tag_26\n      jumpi\n      jump(tag_2)\n    tag_28:\n      dup1\n      0x715018a6\n      eq\n      tag_15\n      jumpi\n      dup1\n      0x88af60c6\n      eq\n      tag_16\n      jumpi\n      dup1\n      0x8da5cb5b\n      eq\n      tag_17\n      jumpi\n      dup1\n      0x95623641\n      eq\n      tag_18\n      jumpi\n      dup1\n      0x95d89b41\n      eq\n      tag_19\n      jumpi\n      dup1\n      0xa457c2d7\n      eq\n      tag_20\n      jumpi\n      jump(tag_2)\n    tag_27:\n      dup1\n      0x313ce567\n      gt\n      tag_29\n      jumpi\n      dup1\n      0x313ce567\n      eq\n      tag_9\n      jumpi\n      dup1\n      0x39509351\n      eq\n      tag_10\n      jumpi\n      dup1\n      0x42966c68\n      eq\n      tag_11\n      jumpi\n      dup1\n      0x49bd5a5e\n      eq\n      tag_12\n      jumpi\n      dup1\n      0x536db266\n      eq\n      tag_13\n      jumpi\n      dup1\n      0x70a08231\n      eq\n      tag_14\n      jumpi\n      jump(tag_2)\n    tag_29:\n      dup1\n      0x06fdde03\n      eq\n      tag_3\n      jumpi\n      dup1\n      0x095ea7b3\n      eq\n      tag_4\n      jumpi\n      dup1\n      0x1694505e\n      eq\n      tag_5\n      jumpi\n      dup1\n      0x18160ddd\n      eq\n      tag_6\n      jumpi\n      dup1\n      0x23b872dd\n      eq\n      tag_7\n      jumpi\n      dup1\n      0x2aafa283\n      eq\n      tag_8\n      jumpi\n      jump(tag_2)\n    tag_1:\n      jumpi(tag_2, calldatasize)\n      stop\n    tag_2:\n      0x00\n      dup1\n      revert\n        /* \"ex/token/Baby.sol\":17648:17753  function name() public view virtual override returns (string memory) {... */\n    tag_3:\n      callvalue\n      dup1\n      iszero\n      tag_32\n      jumpi\n      0x00\n      dup1\n      revert\n    tag_32:\n      pop\n      tag_33\n      tag_34\n      jump\t// in\n    tag_33:\n      mload(0x40)\n      tag_35\n      swap2\n      swap1\n      tag_36\n      jump\t// in\n    tag_35:\n      mload(0x40)\n      dup1\n      swap2\n      sub\n      swap1\n      return\n        /* \"ex/token/Baby.sol\":18566:18735  function approve(address spender, uint256 amount) public virtual override returns (bool) {... */\n    tag_4:\n      callvalue\n      dup1\n      iszero\n      tag_37\n      jumpi\n      0x00\n      dup1\n      revert\n    tag_37:\n      pop\n      tag_38\n      0x04\n      dup1\n      calldatasize\n      sub\n      dup2\n      add\n      swap1\n      tag_39\n      swap2\n      swap1\n      tag_40\n      jump\t// in\n    tag_39:\n      tag_41\n      jump\t// in\n    tag_38:\n      mload(0x40)\n      tag_42\n      swap2\n      swap1\n      tag_43\n      jump\t// in\n    tag_42:\n      mload(0x40)\n      dup1\n      swap2\n      sub\n      swap1\n      return\n        /* \"ex/token/Baby.sol\":16131:16186  IPancakeSwapV2Router02 public immutable uniswapV2Router */\n    tag_5:\n      callvalue\n      dup1\n      iszero\n      tag_44\n      jumpi\n      0x00\n      dup1\n      revert\n    tag_44:\n      pop\n      tag_45\n      tag_46\n      jump\t// in\n    tag_45:\n      mload(0x40)\n      tag_47\n      swap2\n      swap1\n      tag_48\n      jump\t// in\n    tag_47:\n      mload(0x40)\n      dup1\n      swap2\n      sub\n      swap1\n      return\n        /* \"ex/token/Baby.sol\":17973:18081  function totalSupply() public view virtual override returns (uint256) {... */\n    tag_6:\n      callvalue\n      dup1\n      iszero\n      tag_49\n      jumpi\n      0x00\n      dup1\n      revert\n    tag_49:\n      pop\n      tag_50\n      tag_51\n      jump\t// in\n    tag_50:\n      mload(0x40)\n      tag_52\n      swap2\n      swap1\n      tag_53\n      jump\t// in\n    tag_52:\n      mload(0x40)\n      dup1\n      swap2\n      sub\n      swap1\n      return\n        /* \"ex/token/Baby.sol\":18743:19231  function transferFrom(... */\n    tag_7:\n      callvalue\n      dup1\n      iszero\n      tag_54\n      jumpi\n      0x00\n      dup1\n      revert\n    tag_54:\n      pop\n      tag_55\n      0x04\n      dup1\n      calldatasize\n      sub\n      dup2\n      add\n      swap1\n      tag_56\n      swap2\n      swap1\n      tag_57\n      jump\t// in\n    tag_56:\n      tag_58\n      jump\t// in\n    tag_55:\n      mload(0x40)\n      tag_59\n      swap2\n      swap1\n      tag_43\n      jump\t// in\n    tag_59:\n      mload(0x40)\n      dup1\n      swap2\n      sub\n      swap1\n      return\n        /* \"ex/token/Baby.sol\":16238:16280  address public immutable uniswapUsdtV2Pair */\n    tag_8:\n      callvalue\n      dup1\n      iszero\n      tag_60\n      jumpi\n      0x00\n      dup1\n      revert\n    tag_60:\n      pop\n      tag_61\n      tag_62\n      jump\t// in\n    tag_61:\n      mload(0x40)\n      tag_63\n      swap2\n      swap1\n      tag_64\n      jump\t// in\n    tag_63:\n      mload(0x40)\n      dup1\n      swap2\n      sub\n      swap1\n      return\n        /* \"ex/token/Baby.sol\":17872:17965  function decimals() public view virtual override returns (uint8) {... */\n    tag_9:\n      callvalue\n      dup1\n      iszero\n      tag_65\n      jumpi\n      0x00\n      dup1\n      revert\n    tag_65:\n      pop\n      tag_66\n      tag_67\n      jump\t// in\n    tag_66:\n      mload(0x40)\n      tag_68\n      swap2\n      swap1\n      tag_69\n      jump\t// in\n    tag_68:\n      mload(0x40)\n      dup1\n      swap2\n      sub\n      swap1\n      return\n        /* \"ex/token/Baby.sol\":19239:19454  function increaseAllowance(address spender, uint256 addedValue) public virtual returns (bool) {... */\n    tag_10:\n      callvalue\n      dup1\n      iszero\n      tag_70\n      jumpi\n      0x00\n      dup1\n      revert\n    tag_70:\n      pop\n      tag_71\n      0x04\n      dup1\n      calldatasize\n      sub\n      dup2\n      add\n      swap1\n      tag_72\n      swap2\n      swap1\n      tag_40\n      jump\t// in\n    tag_72:\n      tag_73\n      jump\t// in\n    tag_71:\n      mload(0x40)\n      tag_74\n      swap2\n      swap1\n      tag_43\n      jump\t// in\n    tag_74:\n      mload(0x40)\n      dup1\n      swap2\n      sub\n      swap1\n      return\n        /* \"ex/token/Baby.sol\":22060:22145  function burn(uint256 amount) external {... */\n    tag_11:\n      callvalue\n      dup1\n      iszero\n      tag_75\n      jumpi\n      0x00\n      dup1\n      revert\n    tag_75:\n      pop\n      tag_76\n      0x04\n      dup1\n      calldatasize\n      sub\n      dup2\n      add\n      swap1\n      tag_77\n      swap2\n      swap1\n      tag_78\n      jump\t// in\n    tag_77:\n      tag_79\n      jump\t// in\n    tag_76:\n      stop\n        /* \"ex/token/Baby.sol\":16193:16231  address public immutable uniswapV2Pair */\n    tag_12:\n      callvalue\n      dup1\n      iszero\n      tag_80\n      jumpi\n      0x00\n      dup1\n      revert\n    tag_80:\n      pop\n      tag_81\n      tag_82\n      jump\t// in\n    tag_81:\n      mload(0x40)\n      tag_83\n      swap2\n      swap1\n      tag_64\n      jump\t// in\n    tag_83:\n      mload(0x40)\n      dup1\n      swap2\n      sub\n      swap1\n      return\n        /* \"ex/token/Baby.sol\":19879:20070  function addDex(address _pair) external onlyOwner {... */\n    tag_13:\n      callvalue\n      dup1\n      iszero\n      tag_84\n      jumpi\n      0x00\n      dup1\n      revert\n    tag_84:\n      pop\n      tag_85\n      0x04\n      dup1\n      calldatasize\n      sub\n      dup2\n      add\n      swap1\n      tag_86\n      swap2\n      swap1\n      tag_87\n      jump\t// in\n    tag_86:\n      tag_88\n      jump\t// in\n    tag_85:\n      stop\n        /* \"ex/token/Baby.sol\":18089:18216  function balanceOf(address account) public view virtual override returns (uint256) {... */\n    tag_14:\n      callvalue\n      dup1\n      iszero\n      tag_89\n      jumpi\n      0x00\n      dup1\n      revert\n    tag_89:\n      pop\n      tag_90\n      0x04\n      dup1\n      calldatasize\n      sub\n      dup2\n      add\n      swap1\n      tag_91\n      swap2\n      swap1\n      tag_87\n      jump\t// in\n    tag_91:\n      tag_92\n      jump\t// in\n    tag_90:\n      mload(0x40)\n      tag_93\n      swap2\n      swap1\n      tag_53\n      jump\t// in\n    tag_93:\n      mload(0x40)\n      dup1\n      swap2\n      sub\n      swap1\n      return\n        /* \"ex/token/Baby.sol\":3821:3924  function renounceOwnership() public virtual onlyOwner {... */\n    tag_15:\n      callvalue\n      dup1\n      iszero\n      tag_94\n      jumpi\n      0x00\n      dup1\n      revert\n    tag_94:\n      pop\n      tag_95\n      tag_96\n      jump\t// in\n    tag_95:\n      stop\n        /* \"ex/token/Baby.sol\":16552:16627  address public usdtMintAddress = 0x55d398326f99059fF775485246999027B3197955 */\n    tag_16:\n      callvalue\n      dup1\n      iszero\n      tag_97\n      jumpi\n      0x00\n      dup1\n      revert\n    tag_97:\n      pop\n      tag_98\n      tag_99\n      jump\t// in\n    tag_98:\n      mload(0x40)\n      tag_100\n      swap2\n      swap1\n      tag_64\n      jump\t// in\n    tag_100:\n      mload(0x40)\n      dup1\n      swap2\n      sub\n      swap1\n      return\n        /* \"ex/token/Baby.sol\":3170:3257  function owner() public view virtual returns (address) {... */\n    tag_17:\n      callvalue\n      dup1\n      iszero\n      tag_101\n      jumpi\n      0x00\n      dup1\n      revert\n    tag_101:\n      pop\n      tag_102\n      tag_103\n      jump\t// in\n    tag_102:\n      mload(0x40)\n      tag_104\n      swap2\n      swap1\n      tag_64\n      jump\t// in\n    tag_104:\n      mload(0x40)\n      dup1\n      swap2\n      sub\n      swap1\n      return\n        /* \"ex/token/Baby.sol\":16410:16483  address public marketAddress = 0xd3c0b6Aa1538d639912789be705F18b5Fd89fcE6 */\n    tag_18:\n      callvalue\n      dup1\n      iszero\n      tag_105\n      jumpi\n      0x00\n      dup1\n      revert\n    tag_105:\n      pop\n      tag_106\n      tag_107\n      jump\t// in\n    tag_106:\n      mload(0x40)\n      tag_108\n      swap2\n      swap1\n      tag_64\n      jump\t// in\n    tag_108:\n      mload(0x40)\n      dup1\n      swap2\n      sub\n      swap1\n      return\n        /* \"ex/token/Baby.sol\":17761:17864  function symbol() public view virtual override returns (string memory) {... */\n    tag_19:\n      callvalue\n      dup1\n      iszero\n      tag_109\n      jumpi\n      0x00\n      dup1\n      revert\n    tag_109:\n      pop\n      tag_110\n      tag_111\n      jump\t// in\n    tag_110:\n      mload(0x40)\n      tag_112\n      swap2\n      swap1\n      tag_36\n      jump\t// in\n    tag_112:\n      mload(0x40)\n      dup1\n      swap2\n      sub\n      swap1\n      return\n        /* \"ex/token/Baby.sol\":19462:19871  function decreaseAllowance(address spender, uint256 subtractedValue) public virtual returns (bool) {... */\n    tag_20:\n      callvalue\n      dup1\n      iszero\n      tag_113\n      jumpi\n      0x00\n      dup1\n      revert\n    tag_113:\n      pop\n      tag_114\n      0x04\n      dup1\n      calldatasize\n      sub\n      dup2\n      add\n      swap1\n      tag_115\n      swap2\n      swap1\n      tag_40\n      jump\t// in\n    tag_115:\n      tag_116\n      jump\t// in\n    tag_114:\n      mload(0x40)\n      tag_117\n      swap2\n      swap1\n      tag_43\n      jump\t// in\n    tag_117:\n      mload(0x40)\n      dup1\n      swap2\n      sub\n      swap1\n      return\n        /* \"ex/token/Baby.sol\":22383:22598  function setExcludeds(address addr) public onlyOwner {... */\n    tag_21:\n      callvalue\n      dup1\n      iszero\n      tag_118\n      jumpi\n      0x00\n      dup1\n      revert\n    tag_118:\n      pop\n      tag_119\n      0x04\n      dup1\n      calldatasize\n      sub\n      dup2\n      add\n      swap1\n      tag_120\n      swap2\n      swap1\n      tag_87\n      jump\t// in\n    tag_120:\n      tag_121\n      jump\t// in\n    tag_119:\n      stop\n        /* \"ex/token/Baby.sol\":18224:18399  function transfer(address recipient, uint256 amount) public virtual override returns (bool) {... */\n    tag_22:\n      callvalue\n      dup1\n      iszero\n      tag_122\n      jumpi\n      0x00\n      dup1\n      revert\n    tag_122:\n      pop\n      tag_123\n      0x04\n      dup1\n      calldatasize\n      sub\n      dup2\n      add\n      swap1\n      tag_124\n      swap2\n      swap1\n      tag_40\n      jump\t// in\n    tag_124:\n      tag_125\n      jump\t// in\n    tag_123:\n      mload(0x40)\n      tag_126\n      swap2\n      swap1\n      tag_43\n      jump\t// in\n    tag_126:\n      mload(0x40)\n      dup1\n      swap2\n      sub\n      swap1\n      return\n        /* \"ex/token/Baby.sol\":18407:18558  function allowance(address owner, address spender) public view virtual override returns (uint256) {... */\n    tag_23:\n      callvalue\n      dup1\n      iszero\n      tag_127\n      jumpi\n      0x00\n      dup1\n      revert\n    tag_127:\n      pop\n      tag_128\n      0x04\n      dup1\n      calldatasize\n      sub\n      dup2\n      add\n      swap1\n      tag_129\n      swap2\n      swap1\n      tag_130\n      jump\t// in\n    tag_129:\n      tag_131\n      jump\t// in\n    tag_128:\n      mload(0x40)\n      tag_132\n      swap2\n      swap1\n      tag_53\n      jump\t// in\n    tag_132:\n      mload(0x40)\n      dup1\n      swap2\n      sub\n      swap1\n      return\n        /* \"ex/token/Baby.sol\":16340:16375  mapping (address=>bool) public DEXs */\n    tag_24:\n      callvalue\n      dup1\n      iszero\n      tag_133\n      jumpi\n      0x00\n      dup1\n      revert\n    tag_133:\n      pop\n      tag_134\n      0x04\n      dup1\n      calldatasize\n      sub\n      dup2\n      add\n      swap1\n      tag_135\n      swap2\n      swap1\n      tag_87\n      jump\t// in\n    tag_135:\n      tag_136\n      jump\t// in\n    tag_134:\n      mload(0x40)\n      tag_137\n      swap2\n      swap1\n      tag_43\n      jump\t// in\n    tag_137:\n      mload(0x40)\n      dup1\n      swap2\n      sub\n      swap1\n      return\n        /* \"ex/token/Baby.sol\":4079:4280  function transferOwnership(address newOwner) public virtual onlyOwner {... */\n    tag_25:\n      callvalue\n      dup1\n      iszero\n      tag_138\n      jumpi\n      0x00\n      dup1\n      revert\n    tag_138:\n      pop\n      tag_139\n      0x04\n      dup1\n      calldatasize\n      sub\n      dup2\n      add\n      swap1\n      tag_140\n      swap2\n      swap1\n      tag_87\n      jump\t// in\n    tag_140:\n      tag_141\n      jump\t// in\n    tag_139:\n      stop\n        /* \"ex/token/Baby.sol\":22606:22702  function setMarketAddress(address addr) public onlyOwner {... */\n    tag_26:\n      callvalue\n      dup1\n      iszero\n      tag_142\n      jumpi\n      0x00\n      dup1\n      revert\n    tag_142:\n      pop\n      tag_143\n      0x04\n      dup1\n      calldatasize\n      sub\n      dup2\n      add\n      swap1\n      tag_144\n      swap2\n      swap1\n      tag_87\n      jump\t// in\n    tag_144:\n      tag_145\n      jump\t// in\n    tag_143:\n      stop\n        /* \"ex/token/Baby.sol\":17648:17753  function name() public view virtual override returns (string memory) {... */\n    tag_34:\n        /* \"ex/token/Baby.sol\":17702:17715  string memory */\n      0x60\n        /* \"ex/token/Baby.sol\":17728:17745  return \"AIR TEST\" */\n      mload(0x40)\n      dup1\n      0x40\n      add\n      0x40\n      mstore\n      dup1\n      0x08\n      dup2\n      mstore\n      0x20\n      add\n      0x4149522054455354000000000000000000000000000000000000000000000000\n      dup2\n      mstore\n      pop\n      swap1\n      pop\n        /* \"ex/token/Baby.sol\":17648:17753  function name() public view virtual override returns (string memory) {... */\n      swap1\n      jump\t// out\n        /* \"ex/token/Baby.sol\":18566:18735  function approve(address spender, uint256 amount) public virtual override returns (bool) {... */\n    tag_41:\n        /* \"ex/token/Baby.sol\":18649:18653  bool */\n      0x00\n        /* \"ex/token/Baby.sol\":18666:18705  _approve(_msgSender(), spender, amount) */\n      tag_148\n        /* \"ex/token/Baby.sol\":18675:18687  _msgSender() */\n      tag_149\n        /* \"ex/token/Baby.sol\":18675:18685  _msgSender */\n      tag_150\n        /* \"ex/token/Baby.sol\":18675:18687  _msgSender() */\n      jump\t// in\n    tag_149:\n        /* \"ex/token/Baby.sol\":18689:18696  spender */\n      dup5\n        /* \"ex/token/Baby.sol\":18698:18704  amount */\n      dup5\n        /* \"ex/token/Baby.sol\":18666:18674  _approve */\n      tag_151\n        /* \"ex/token/Baby.sol\":18666:18705  _approve(_msgSender(), spender, amount) */\n      jump\t// in\n    tag_148:\n        /* \"ex/token/Baby.sol\":18723:18727  true */\n      0x01\n        /* \"ex/token/Baby.sol\":18716:18727  return true */\n      swap1\n      pop\n        /* \"ex/token/Baby.sol\":18566:18735  function approve(address spender, uint256 amount) public virtual override returns (bool) {... */\n      swap3\n      swap2\n      pop\n      pop\n      jump\t// out\n        /* \"ex/token/Baby.sol\":16131:16186  IPancakeSwapV2Router02 public immutable uniswapV2Router */\n    tag_46:\n      immutable(\"0x0257654a82461e8a1d15ee210f9c68af767d2a4dc70df683f0ecf9e700bd8bac\")\n      dup2\n      jump\t// out\n        /* \"ex/token/Baby.sol\":17973:18081  function totalSupply() public view virtual override returns (uint256) {... */\n    tag_51:\n        /* \"ex/token/Baby.sol\":18034:18041  uint256 */\n      0x00\n        /* \"ex/token/Baby.sol\":18061:18073  _totalSupply */\n      sload(0x03)\n        /* \"ex/token/Baby.sol\":18054:18073  return _totalSupply */\n      swap1\n      pop\n        /* \"ex/token/Baby.sol\":17973:18081  function totalSupply() public view virtual override returns (uint256) {... */\n      swap1\n      jump\t// out\n        /* \"ex/token/Baby.sol\":18743:19231  function transferFrom(... */\n    tag_58:\n        /* \"ex/token/Baby.sol\":18883:18887  bool */\n      0x00\n        /* \"ex/token/Baby.sol\":18900:18936  _transfer(sender, recipient, amount) */\n      tag_154\n        /* \"ex/token/Baby.sol\":18910:18916  sender */\n      dup5\n        /* \"ex/token/Baby.sol\":18918:18927  recipient */\n      dup5\n        /* \"ex/token/Baby.sol\":18929:18935  amount */\n      dup5\n        /* \"ex/token/Baby.sol\":18900:18909  _transfer */\n      tag_155\n        /* \"ex/token/Baby.sol\":18900:18936  _transfer(sender, recipient, amount) */\n      jump\t// in\n    tag_154:\n        /* \"ex/token/Baby.sol\":18949:18973  uint256 currentAllowance */\n      0x00\n        /* \"ex/token/Baby.sol\":18976:18987  _allowances */\n      0x02\n        /* \"ex/token/Baby.sol\":18976:18995  _allowances[sender] */\n      0x00\n        /* \"ex/token/Baby.sol\":18988:18994  sender */\n      dup7\n        /* \"ex/token/Baby.sol\":18976:18995  _allowances[sender] */\n      0xffffffffffffffffffffffffffffffffffffffff\n      and\n      0xffffffffffffffffffffffffffffffffffffffff\n      and\n      dup2\n      mstore\n      0x20\n      add\n      swap1\n      dup2\n      mstore\n      0x20\n      add\n      0x00\n      keccak256\n        /* \"ex/token/Baby.sol\":18976:19009  _allowances[sender][_msgSender()] */\n      0x00\n        /* \"ex/token/Baby.sol\":18996:19008  _msgSender() */\n      tag_156\n        /* \"ex/token/Baby.sol\":18996:19006  _msgSender */\n      tag_150\n        /* \"ex/token/Baby.sol\":18996:19008  _msgSender() */\n      jump\t// in\n    tag_156:\n        /* \"ex/token/Baby.sol\":18976:19009  _allowances[sender][_msgSender()] */\n      0xffffffffffffffffffffffffffffffffffffffff\n      and\n      0xffffffffffffffffffffffffffffffffffffffff\n      and\n      dup2\n      mstore\n      0x20\n      add\n      swap1\n      dup2\n      mstore\n      0x20\n      add\n      0x00\n      keccak256\n      sload\n        /* \"ex/token/Baby.sol\":18949:19009  uint256 currentAllowance = _allowances[sender][_msgSender()] */\n      swap1\n      pop\n        /* \"ex/token/Baby.sol\":19048:19054  amount */\n      dup3\n        /* \"ex/token/Baby.sol\":19028:19044  currentAllowance */\n      dup2\n        /* \"ex/token/Baby.sol\":19028:19054  currentAllowance >= amount */\n      lt\n      iszero\n        /* \"ex/token/Baby.sol\":19020:19097  require(currentAllowance >= amount, \"BEE: transfer amount exceeds allowance\") */\n      tag_157\n      jumpi\n      mload(0x40)\n      0x08c379a000000000000000000000000000000000000000000000000000000000\n      dup2\n      mstore\n      0x04\n      add\n      tag_158\n      swap1\n      tag_159\n      jump\t// in\n    tag_158:\n      mload(0x40)\n      dup1\n      swap2\n      sub\n      swap1\n      revert\n    tag_157:\n        /* \"ex/token/Baby.sol\":19133:19190  _approve(sender, _msgSender(), currentAllowance - amount) */\n      tag_160\n        /* \"ex/token/Baby.sol\":19142:19148  sender */\n      dup6\n        /* \"ex/token/Baby.sol\":19150:19162  _msgSender() */\n      tag_161\n        /* \"ex/token/Baby.sol\":19150:19160  _msgSender */\n      tag_150\n        /* \"ex/token/Baby.sol\":19150:19162  _msgSender() */\n      jump\t// in\n    tag_161:\n        /* \"ex/token/Baby.sol\":19183:19189  amount */\n      dup6\n        /* \"ex/token/Baby.sol\":19164:19180  currentAllowance */\n      dup5\n        /* \"ex/token/Baby.sol\":19164:19189  currentAllowance - amount */\n      sub\n        /* \"ex/token/Baby.sol\":19133:19141  _approve */\n      tag_151\n        /* \"ex/token/Baby.sol\":19133:19190  _approve(sender, _msgSender(), currentAllowance - amount) */\n      jump\t// in\n    tag_160:\n        /* \"ex/token/Baby.sol\":19219:19223  true */\n      0x01\n        /* \"ex/token/Baby.sol\":19212:19223  return true */\n      swap2\n      pop\n      pop\n        /* \"ex/token/Baby.sol\":18743:19231  function transferFrom(... */\n      swap4\n      swap3\n      pop\n      pop\n      pop\n      jump\t// out\n        /* \"ex/token/Baby.sol\":16238:16280  address public immutable uniswapUsdtV2Pair */\n    tag_62:\n      immutable(\"0xc3259c45f9e3c1055fdcabf98c9c354977536b311a2495291202379be8e06e09\")\n      dup2\n      jump\t// out\n        /* \"ex/token/Baby.sol\":17872:17965  function decimals() public view virtual override returns (uint8) {... */\n    tag_67:\n        /* \"ex/token/Baby.sol\":17930:17935  uint8 */\n      0x00\n        /* \"ex/token/Baby.sol\":17955:17957  18 */\n      0x12\n        /* \"ex/token/Baby.sol\":17948:17957  return 18 */\n      swap1\n      pop\n        /* \"ex/token/Baby.sol\":17872:17965  function decimals() public view virtual override returns (uint8) {... */\n      swap1\n      jump\t// out\n        /* \"ex/token/Baby.sol\":19239:19454  function increaseAllowance(address spender, uint256 addedValue) public virtual returns (bool) {... */\n    tag_73:\n        /* \"ex/token/Baby.sol\":19327:19331  bool */\n      0x00\n        /* \"ex/token/Baby.sol\":19344:19424  _approve(_msgSender(), spender, _allowances[_msgSender()][spender] + addedValue) */\n      tag_164\n        /* \"ex/token/Baby.sol\":19353:19365  _msgSender() */\n      tag_165\n        /* \"ex/token/Baby.sol\":19353:19363  _msgSender */\n      tag_150\n        /* \"ex/token/Baby.sol\":19353:19365  _msgSender() */\n      jump\t// in\n    tag_165:\n        /* \"ex/token/Baby.sol\":19367:19374  spender */\n      dup5\n        /* \"ex/token/Baby.sol\":19413:19423  addedValue */\n      dup5\n        /* \"ex/token/Baby.sol\":19376:19387  _allowances */\n      0x02\n        /* \"ex/token/Baby.sol\":19376:19401  _allowances[_msgSender()] */\n      0x00\n        /* \"ex/token/Baby.sol\":19388:19400  _msgSender() */\n      tag_166\n        /* \"ex/token/Baby.sol\":19388:19398  _msgSender */\n      tag_150\n        /* \"ex/token/Baby.sol\":19388:19400  _msgSender() */\n      jump\t// in\n    tag_166:\n        /* \"ex/token/Baby.sol\":19376:19401  _allowances[_msgSender()] */\n      0xffffffffffffffffffffffffffffffffffffffff\n      and\n      0xffffffffffffffffffffffffffffffffffffffff\n      and\n      dup2\n      mstore\n      0x20\n      add\n      swap1\n      dup2\n      mstore\n      0x20\n      add\n      0x00\n      keccak256\n        /* \"ex/token/Baby.sol\":19376:19410  _allowances[_msgSender()][spender] */\n      0x00\n        /* \"ex/token/Baby.sol\":19402:19409  spender */\n      dup9\n        /* \"ex/token/Baby.sol\":19376:19410  _allowances[_msgSender()][spender] */\n      0xffffffffffffffffffffffffffffffffffffffff\n      and\n      0xffffffffffffffffffffffffffffffffffffffff\n      and\n      dup2\n      mstore\n      0x20\n      add\n      swap1\n      dup2\n      mstore\n      0x20\n      add\n      0x00\n      keccak256\n      sload\n        /* \"ex/token/Baby.sol\":19376:19423  _allowances[_msgSender()][spender] + addedValue */\n      tag_167\n      swap2\n      swap1\n      tag_168\n      jump\t// in\n    tag_167:\n        /* \"ex/token/Baby.sol\":19344:19352  _approve */\n      tag_151\n        /* \"ex/token/Baby.sol\":19344:19424  _approve(_msgSender(), spender, _allowances[_msgSender()][spender] + addedValue) */\n      jump\t// in\n    tag_164:\n        /* \"ex/token/Baby.sol\":19442:19446  true */\n      0x01\n        /* \"ex/token/Baby.sol\":19435:19446  return true */\n      swap1\n      pop\n        /* \"ex/token/Baby.sol\":19239:19454  function increaseAllowance(address spender, uint256 addedValue) public virtual returns (bool) {... */\n      swap3\n      swap2\n      pop\n      pop\n      jump\t// out\n        /* \"ex/token/Baby.sol\":22060:22145  function burn(uint256 amount) external {... */\n    tag_79:\n        /* \"ex/token/Baby.sol\":22110:22137  _burn(_msgSender(), amount) */\n      tag_170\n        /* \"ex/token/Baby.sol\":22116:22128  _msgSender() */\n      tag_171\n        /* \"ex/token/Baby.sol\":22116:22126  _msgSender */\n      tag_150\n        /* \"ex/token/Baby.sol\":22116:22128  _msgSender() */\n      jump\t// in\n    tag_171:\n        /* \"ex/token/Baby.sol\":22130:22136  amount */\n      dup3\n        /* \"ex/token/Baby.sol\":22110:22115  _burn */\n      tag_172\n        /* \"ex/token/Baby.sol\":22110:22137  _burn(_msgSender(), amount) */\n      jump\t// in\n    tag_170:\n        /* \"ex/token/Baby.sol\":22060:22145  function burn(uint256 amount) external {... */\n      pop\n      jump\t// out\n        /* \"ex/token/Baby.sol\":16193:16231  address public immutable uniswapV2Pair */\n    tag_82:\n      immutable(\"0xcf847823cd05fc0701b9c43d16f83004daff2637516797a8151c5b74447a7127\")\n      dup2\n      jump\t// out\n        /* \"ex/token/Baby.sol\":19879:20070  function addDex(address _pair) external onlyOwner {... */\n    tag_88:\n        /* \"ex/token/Baby.sol\":3401:3413  _msgSender() */\n      tag_174\n        /* \"ex/token/Baby.sol\":3401:3411  _msgSender */\n      tag_150\n        /* \"ex/token/Baby.sol\":3401:3413  _msgSender() */\n      jump\t// in\n    tag_174:\n        /* \"ex/token/Baby.sol\":3390:3413  owner() == _msgSender() */\n      0xffffffffffffffffffffffffffffffffffffffff\n      and\n        /* \"ex/token/Baby.sol\":3390:3397  owner() */\n      tag_175\n        /* \"ex/token/Baby.sol\":3390:3395  owner */\n      tag_103\n        /* \"ex/token/Baby.sol\":3390:3397  owner() */\n      jump\t// in\n    tag_175:\n        /* \"ex/token/Baby.sol\":3390:3413  owner() == _msgSender() */\n      0xffffffffffffffffffffffffffffffffffffffff\n      and\n      eq\n        /* \"ex/token/Baby.sol\":3382:3450  require(owner() == _msgSender(), \"Ownable: caller is not the owner\") */\n      tag_176\n      jumpi\n      mload(0x40)\n      0x08c379a000000000000000000000000000000000000000000000000000000000\n      dup2\n      mstore\n      0x04\n      add\n      tag_177\n      swap1\n      tag_178\n      jump\t// in\n    tag_177:\n      mload(0x40)\n      dup1\n      swap2\n      sub\n      swap1\n      revert\n    tag_176:\n        /* \"ex/token/Baby.sol\":19944:19948  DEXs */\n      0x07\n        /* \"ex/token/Baby.sol\":19944:19955  DEXs[_pair] */\n      0x00\n        /* \"ex/token/Baby.sol\":19949:19954  _pair */\n      dup3\n        /* \"ex/token/Baby.sol\":19944:19955  DEXs[_pair] */\n      0xffffffffffffffffffffffffffffffffffffffff\n      and\n      0xffffffffffffffffffffffffffffffffffffffff\n      and\n      dup2\n      mstore\n      0x20\n      add\n      swap1\n      dup2\n      mstore\n      0x20\n      add\n      0x00\n      keccak256\n      0x00\n      swap1\n      sload\n      swap1\n      0x0100\n      exp\n      swap1\n      div\n      0xff\n      and\n        /* \"ex/token/Baby.sol\":19940:20054  if (DEXs[_pair]) {... */\n      iszero\n      tag_180\n      jumpi\n        /* \"ex/token/Baby.sol\":19986:19991  false */\n      0x00\n        /* \"ex/token/Baby.sol\":19972:19976  DEXs */\n      0x07\n        /* \"ex/token/Baby.sol\":19972:19983  DEXs[_pair] */\n      0x00\n        /* \"ex/token/Baby.sol\":19977:19982  _pair */\n      dup4\n        /* \"ex/token/Baby.sol\":19972:19983  DEXs[_pair] */\n      0xffffffffffffffffffffffffffffffffffffffff\n      and\n      0xffffffffffffffffffffffffffffffffffffffff\n      and\n      dup2\n      mstore\n      0x20\n      add\n      swap1\n      dup2\n      mstore\n      0x20\n      add\n      0x00\n      keccak256\n      0x00\n        /* \"ex/token/Baby.sol\":19972:19991  DEXs[_pair] = false */\n      0x0100\n      exp\n      dup2\n      sload\n      dup2\n      0xff\n      mul\n      not\n      and\n      swap1\n      dup4\n      iszero\n      iszero\n      mul\n      or\n      swap1\n      sstore\n      pop\n        /* \"ex/token/Baby.sol\":19940:20054  if (DEXs[_pair]) {... */\n      jump(tag_181)\n    tag_180:\n        /* \"ex/token/Baby.sol\":20038:20042  true */\n      0x01\n        /* \"ex/token/Baby.sol\":20024:20028  DEXs */\n      0x07\n        /* \"ex/token/Baby.sol\":20024:20035  DEXs[_pair] */\n      0x00\n        /* \"ex/token/Baby.sol\":20029:20034  _pair */\n      dup4\n        /* \"ex/token/Baby.sol\":20024:20035  DEXs[_pair] */\n      0xffffffffffffffffffffffffffffffffffffffff\n      and\n      0xffffffffffffffffffffffffffffffffffffffff\n      and\n      dup2\n      mstore\n      0x20\n      add\n      swap1\n      dup2\n      mstore\n      0x20\n      add\n      0x00\n      keccak256\n      0x00\n        /* \"ex/token/Baby.sol\":20024:20042  DEXs[_pair] = true */\n      0x0100\n      exp\n      dup2\n      sload\n      dup2\n      0xff\n      mul\n      not\n      and\n      swap1\n      dup4\n      iszero\n      iszero\n      mul\n      or\n      swap1\n      sstore\n      pop\n        /* \"ex/token/Baby.sol\":19940:20054  if (DEXs[_pair]) {... */\n    tag_181:\n        /* \"ex/token/Baby.sol\":19879:20070  function addDex(address _pair) external onlyOwner {... */\n      pop\n      jump\t// out\n        /* \"ex/token/Baby.sol\":18089:18216  function balanceOf(address account) public view virtual override returns (uint256) {... */\n    tag_92:\n        /* \"ex/token/Baby.sol\":18163:18170  uint256 */\n      0x00\n        /* \"ex/token/Baby.sol\":18190:18199  _balances */\n      0x01\n        /* \"ex/token/Baby.sol\":18190:18208  _balances[account] */\n      0x00\n        /* \"ex/token/Baby.sol\":18200:18207  account */\n      dup4\n        /* \"ex/token/Baby.sol\":18190:18208  _balances[account] */\n      0xffffffffffffffffffffffffffffffffffffffff\n      and\n      0xffffffffffffffffffffffffffffffffffffffff\n      and\n      dup2\n      mstore\n      0x20\n      add\n      swap1\n      dup2\n      mstore\n      0x20\n      add\n      0x00\n      keccak256\n      sload\n        /* \"ex/token/Baby.sol\":18183:18208  return _balances[account] */\n      swap1\n      pop\n        /* \"ex/token/Baby.sol\":18089:18216  function balanceOf(address account) public view virtual override returns (uint256) {... */\n      swap2\n      swap1\n      pop\n      jump\t// out\n        /* \"ex/token/Baby.sol\":3821:3924  function renounceOwnership() public virtual onlyOwner {... */\n    tag_96:\n        /* \"ex/token/Baby.sol\":3401:3413  _msgSender() */\n      tag_184\n        /* \"ex/token/Baby.sol\":3401:3411  _msgSender */\n      tag_150\n        /* \"ex/token/Baby.sol\":3401:3413  _msgSender() */\n      jump\t// in\n    tag_184:\n        /* \"ex/token/Baby.sol\":3390:3413  owner() == _msgSender() */\n      0xffffffffffffffffffffffffffffffffffffffff\n      and\n        /* \"ex/token/Baby.sol\":3390:3397  owner() */\n      tag_185\n        /* \"ex/token/Baby.sol\":3390:3395  owner */\n      tag_103\n        /* \"ex/token/Baby.sol\":3390:3397  owner() */\n      jump\t// in\n    tag_185:\n        /* \"ex/token/Baby.sol\":3390:3413  owner() == _msgSender() */\n      0xffffffffffffffffffffffffffffffffffffffff\n      and\n      eq\n        /* \"ex/token/Baby.sol\":3382:3450  require(owner() == _msgSender(), \"Ownable: caller is not the owner\") */\n      tag_186\n      jumpi\n      mload(0x40)\n      0x08c379a000000000000000000000000000000000000000000000000000000000\n      dup2\n      mstore\n      0x04\n      add\n      tag_187\n      swap1\n      tag_178\n      jump\t// in\n    tag_187:\n      mload(0x40)\n      dup1\n      swap2\n      sub\n      swap1\n      revert\n    tag_186:\n        /* \"ex/token/Baby.sol\":3886:3916  _transferOwnership(address(0)) */\n      tag_189\n        /* \"ex/token/Baby.sol\":3913:3914  0 */\n      0x00\n        /* \"ex/token/Baby.sol\":3886:3904  _transferOwnership */\n      tag_190\n        /* \"ex/token/Baby.sol\":3886:3916  _transferOwnership(address(0)) */\n      jump\t// in\n    tag_189:\n        /* \"ex/token/Baby.sol\":3821:3924  function renounceOwnership() public virtual onlyOwner {... */\n      jump\t// out\n        /* \"ex/token/Baby.sol\":16552:16627  address public usdtMintAddress = 0x55d398326f99059fF775485246999027B3197955 */\n    tag_99:\n      0x09\n      0x00\n      swap1\n      sload\n      swap1\n      0x0100\n      exp\n      swap1\n      div\n      0xffffffffffffffffffffffffffffffffffffffff\n      and\n      dup2\n      jump\t// out\n        /* \"ex/token/Baby.sol\":3170:3257  function owner() public view virtual returns (address) {... */\n    tag_103:\n        /* \"ex/token/Baby.sol\":3216:3223  address */\n      0x00\n        /* \"ex/token/Baby.sol\":3243:3249  _owner */\n      dup1\n      0x00\n      swap1\n      sload\n      swap1\n      0x0100\n      exp\n      swap1\n      div\n      0xffffffffffffffffffffffffffffffffffffffff\n      and\n        /* \"ex/token/Baby.sol\":3236:3249  return _owner */\n      swap1\n      pop\n        /* \"ex/token/Baby.sol\":3170:3257  function owner() public view virtual returns (address) {... */\n      swap1\n      jump\t// out\n        /* \"ex/token/Baby.sol\":16410:16483  address public marketAddress = 0xd3c0b6Aa1538d639912789be705F18b5Fd89fcE6 */\n    tag_107:\n      0x08\n      0x01\n      swap1\n      sload\n      swap1\n      0x0100\n      exp\n      swap1\n      div\n      0xffffffffffffffffffffffffffffffffffffffff\n      and\n      dup2\n      jump\t// out\n        /* \"ex/token/Baby.sol\":17761:17864  function symbol() public view virtual override returns (string memory) {... */\n    tag_111:\n        /* \"ex/token/Baby.sol\":17817:17830  string memory */\n      0x60\n        /* \"ex/token/Baby.sol\":17843:17856  return \"AIRT\" */\n      mload(0x40)\n      dup1\n      0x40\n      add\n      0x40\n      mstore\n      dup1\n      0x04\n      dup2\n      mstore\n      0x20\n      add\n      0x4149525400000000000000000000000000000000000000000000000000000000\n      dup2\n      mstore\n      pop\n      swap1\n      pop\n        /* \"ex/token/Baby.sol\":17761:17864  function symbol() public view virtual override returns (string memory) {... */\n      swap1\n      jump\t// out\n        /* \"ex/token/Baby.sol\":19462:19871  function decreaseAllowance(address spender, uint256 subtractedValue) public virtual returns (bool) {... */\n    tag_116:\n        /* \"ex/token/Baby.sol\":19555:19559  bool */\n      0x00\n        /* \"ex/token/Baby.sol\":19572:19596  uint256 currentAllowance */\n      dup1\n        /* \"ex/token/Baby.sol\":19599:19610  _allowances */\n      0x02\n        /* \"ex/token/Baby.sol\":19599:19624  _allowances[_msgSender()] */\n      0x00\n        /* \"ex/token/Baby.sol\":19611:19623  _msgSender() */\n      tag_194\n        /* \"ex/token/Baby.sol\":19611:19621  _msgSender */\n      tag_150\n        /* \"ex/token/Baby.sol\":19611:19623  _msgSender() */\n      jump\t// in\n    tag_194:\n        /* \"ex/token/Baby.sol\":19599:19624  _allowances[_msgSender()] */\n      0xffffffffffffffffffffffffffffffffffffffff\n      and\n      0xffffffffffffffffffffffffffffffffffffffff\n      and\n      dup2\n      mstore\n      0x20\n      add\n      swap1\n      dup2\n      mstore\n      0x20\n      add\n      0x00\n      keccak256\n        /* \"ex/token/Baby.sol\":19599:19633  _allowances[_msgSender()][spender] */\n      0x00\n        /* \"ex/token/Baby.sol\":19625:19632  spender */\n      dup6\n        /* \"ex/token/Baby.sol\":19599:19633  _allowances[_msgSender()][spender] */\n      0xffffffffffffffffffffffffffffffffffffffff\n      and\n      0xffffffffffffffffffffffffffffffffffffffff\n      and\n      dup2\n      mstore\n      0x20\n      add\n      swap1\n      dup2\n      mstore\n      0x20\n      add\n      0x00\n      keccak256\n      sload\n        /* \"ex/token/Baby.sol\":19572:19633  uint256 currentAllowance = _allowances[_msgSender()][spender] */\n      swap1\n      pop\n        /* \"ex/token/Baby.sol\":19672:19687  subtractedValue */\n      dup3\n        /* \"ex/token/Baby.sol\":19652:19668  currentAllowance */\n      dup2\n        /* \"ex/token/Baby.sol\":19652:19687  currentAllowance >= subtractedValue */\n      lt\n      iszero\n        /* \"ex/token/Baby.sol\":19644:19727  require(currentAllowance >= subtractedValue, \"BEE: decreased allowance below zero\") */\n      tag_195\n      jumpi\n      mload(0x40)\n      0x08c379a000000000000000000000000000000000000000000000000000000000\n      dup2\n      mstore\n      0x04\n      add\n      tag_196\n      swap1\n      tag_197\n      jump\t// in\n    tag_196:\n      mload(0x40)\n      dup1\n      swap2\n      sub\n      swap1\n      revert\n    tag_195:\n        /* \"ex/token/Baby.sol\":19763:19830  _approve(_msgSender(), spender, currentAllowance - subtractedValue) */\n      tag_198\n        /* \"ex/token/Baby.sol\":19772:19784  _msgSender() */\n      tag_199\n        /* \"ex/token/Baby.sol\":19772:19782  _msgSender */\n      tag_150\n        /* \"ex/token/Baby.sol\":19772:19784  _msgSender() */\n      jump\t// in\n    tag_199:\n        /* \"ex/token/Baby.sol\":19786:19793  spender */\n      dup6\n        /* \"ex/token/Baby.sol\":19814:19829  subtractedValue */\n      dup6\n        /* \"ex/token/Baby.sol\":19795:19811  currentAllowance */\n      dup5\n        /* \"ex/token/Baby.sol\":19795:19829  currentAllowance - subtractedValue */\n      sub\n        /* \"ex/token/Baby.sol\":19763:19771  _approve */\n      tag_151\n        /* \"ex/token/Baby.sol\":19763:19830  _approve(_msgSender(), spender, currentAllowance - subtractedValue) */\n      jump\t// in\n    tag_198:\n        /* \"ex/token/Baby.sol\":19859:19863  true */\n      0x01\n        /* \"ex/token/Baby.sol\":19852:19863  return true */\n      swap2\n      pop\n      pop\n        /* \"ex/token/Baby.sol\":19462:19871  function decreaseAllowance(address spender, uint256 subtractedValue) public virtual returns (bool) {... */\n      swap3\n      swap2\n      pop\n      pop\n      jump\t// out\n        /* \"ex/token/Baby.sol\":22383:22598  function setExcludeds(address addr) public onlyOwner {... */\n    tag_121:\n        /* \"ex/token/Baby.sol\":3401:3413  _msgSender() */\n      tag_201\n        /* \"ex/token/Baby.sol\":3401:3411  _msgSender */\n      tag_150\n        /* \"ex/token/Baby.sol\":3401:3413  _msgSender() */\n      jump\t// in\n    tag_201:\n        /* \"ex/token/Baby.sol\":3390:3413  owner() == _msgSender() */\n      0xffffffffffffffffffffffffffffffffffffffff\n      and\n        /* \"ex/token/Baby.sol\":3390:3397  owner() */\n      tag_202\n        /* \"ex/token/Baby.sol\":3390:3395  owner */\n      tag_103\n        /* \"ex/token/Baby.sol\":3390:3397  owner() */\n      jump\t// in\n    tag_202:\n        /* \"ex/token/Baby.sol\":3390:3413  owner() == _msgSender() */\n      0xffffffffffffffffffffffffffffffffffffffff\n      and\n      eq\n        /* \"ex/token/Baby.sol\":3382:3450  require(owner() == _msgSender(), \"Ownable: caller is not the owner\") */\n      tag_203\n      jumpi\n      mload(0x40)\n      0x08c379a000000000000000000000000000000000000000000000000000000000\n      dup2\n      mstore\n      0x04\n      add\n      tag_204\n      swap1\n      tag_178\n      jump\t// in\n    tag_204:\n      mload(0x40)\n      dup1\n      swap2\n      sub\n      swap1\n      revert\n    tag_203:\n        /* \"ex/token/Baby.sol\":22473:22477  true */\n      0x01\n        /* \"ex/token/Baby.sol\":22451:22477  _isExcludeds[addr] == true */\n      iszero\n      iszero\n        /* \"ex/token/Baby.sol\":22451:22463  _isExcludeds */\n      0x06\n        /* \"ex/token/Baby.sol\":22451:22469  _isExcludeds[addr] */\n      0x00\n        /* \"ex/token/Baby.sol\":22464:22468  addr */\n      dup4\n        /* \"ex/token/Baby.sol\":22451:22469  _isExcludeds[addr] */\n      0xffffffffffffffffffffffffffffffffffffffff\n      and\n      0xffffffffffffffffffffffffffffffffffffffff\n      and\n      dup2\n      mstore\n      0x20\n      add\n      swap1\n      dup2\n      mstore\n      0x20\n      add\n      0x00\n      keccak256\n      0x00\n      swap1\n      sload\n      swap1\n      0x0100\n      exp\n      swap1\n      div\n      0xff\n      and\n        /* \"ex/token/Baby.sol\":22451:22477  _isExcludeds[addr] == true */\n      iszero\n      iszero\n      sub\n        /* \"ex/token/Baby.sol\":22447:22591  if (_isExcludeds[addr] == true) {... */\n      tag_206\n      jumpi\n        /* \"ex/token/Baby.sol\":22515:22520  false */\n      0x00\n        /* \"ex/token/Baby.sol\":22494:22506  _isExcludeds */\n      0x06\n        /* \"ex/token/Baby.sol\":22494:22512  _isExcludeds[addr] */\n      0x00\n        /* \"ex/token/Baby.sol\":22507:22511  addr */\n      dup4\n        /* \"ex/token/Baby.sol\":22494:22512  _isExcludeds[addr] */\n      0xffffffffffffffffffffffffffffffffffffffff\n      and\n      0xffffffffffffffffffffffffffffffffffffffff\n      and\n      dup2\n      mstore\n      0x20\n      add\n      swap1\n      dup2\n      mstore\n      0x20\n      add\n      0x00\n      keccak256\n      0x00\n        /* \"ex/token/Baby.sol\":22494:22520  _isExcludeds[addr] = false */\n      0x0100\n      exp\n      dup2\n      sload\n      dup2\n      0xff\n      mul\n      not\n      and\n      swap1\n      dup4\n      iszero\n      iszero\n      mul\n      or\n      swap1\n      sstore\n      pop\n        /* \"ex/token/Baby.sol\":22447:22591  if (_isExcludeds[addr] == true) {... */\n      jump(tag_207)\n    tag_206:\n        /* \"ex/token/Baby.sol\":22575:22579  true */\n      0x01\n        /* \"ex/token/Baby.sol\":22554:22566  _isExcludeds */\n      0x06\n        /* \"ex/token/Baby.sol\":22554:22572  _isExcludeds[addr] */\n      0x00\n        /* \"ex/token/Baby.sol\":22567:22571  addr */\n      dup4\n        /* \"ex/token/Baby.sol\":22554:22572  _isExcludeds[addr] */\n      0xffffffffffffffffffffffffffffffffffffffff\n      and\n      0xffffffffffffffffffffffffffffffffffffffff\n      and\n      dup2\n      mstore\n      0x20\n      add\n      swap1\n      dup2\n      mstore\n      0x20\n      add\n      0x00\n      keccak256\n      0x00\n        /* \"ex/token/Baby.sol\":22554:22579  _isExcludeds[addr] = true */\n      0x0100\n      exp\n      dup2\n      sload\n      dup2\n      0xff\n      mul\n      not\n      and\n      swap1\n      dup4\n      iszero\n      iszero\n      mul\n      or\n      swap1\n      sstore\n      pop\n        /* \"ex/token/Baby.sol\":22447:22591  if (_isExcludeds[addr] == true) {... */\n    tag_207:\n        /* \"ex/token/Baby.sol\":22383:22598  function setExcludeds(address addr) public onlyOwner {... */\n      pop\n      jump\t// out\n        /* \"ex/token/Baby.sol\":18224:18399  function transfer(address recipient, uint256 amount) public virtual override returns (bool) {... */\n    tag_125:\n        /* \"ex/token/Baby.sol\":18310:18314  bool */\n      0x00\n        /* \"ex/token/Baby.sol\":18327:18369  _transfer(_msgSender(), recipient, amount) */\n      tag_209\n        /* \"ex/token/Baby.sol\":18337:18349  _msgSender() */\n      tag_210\n        /* \"ex/token/Baby.sol\":18337:18347  _msgSender */\n      tag_150\n        /* \"ex/token/Baby.sol\":18337:18349  _msgSender() */\n      jump\t// in\n    tag_210:\n        /* \"ex/token/Baby.sol\":18351:18360  recipient */\n      dup5\n        /* \"ex/token/Baby.sol\":18362:18368  amount */\n      dup5\n        /* \"ex/token/Baby.sol\":18327:18336  _transfer */\n      tag_155\n        /* \"ex/token/Baby.sol\":18327:18369  _transfer(_msgSender(), recipient, amount) */\n      jump\t// in\n    tag_209:\n        /* \"ex/token/Baby.sol\":18387:18391  true */\n      0x01\n        /* \"ex/token/Baby.sol\":18380:18391  return true */\n      swap1\n      pop\n        /* \"ex/token/Baby.sol\":18224:18399  function transfer(address recipient, uint256 amount) public virtual override returns (bool) {... */\n      swap3\n      swap2\n      pop\n      pop\n      jump\t// out\n        /* \"ex/token/Baby.sol\":18407:18558  function allowance(address owner, address spender) public view virtual override returns (uint256) {... */\n    tag_131:\n        /* \"ex/token/Baby.sol\":18496:18503  uint256 */\n      0x00\n        /* \"ex/token/Baby.sol\":18523:18534  _allowances */\n      0x02\n        /* \"ex/token/Baby.sol\":18523:18541  _allowances[owner] */\n      0x00\n        /* \"ex/token/Baby.sol\":18535:18540  owner */\n      dup5\n        /* \"ex/token/Baby.sol\":18523:18541  _allowances[owner] */\n      0xffffffffffffffffffffffffffffffffffffffff\n      and\n      0xffffffffffffffffffffffffffffffffffffffff\n      and\n      dup2\n      mstore\n      0x20\n      add\n      swap1\n      dup2\n      mstore\n      0x20\n      add\n      0x00\n      keccak256\n        /* \"ex/token/Baby.sol\":18523:18550  _allowances[owner][spender] */\n      0x00\n        /* \"ex/token/Baby.sol\":18542:18549  spender */\n      dup4\n        /* \"ex/token/Baby.sol\":18523:18550  _allowances[owner][spender] */\n      0xffffffffffffffffffffffffffffffffffffffff\n      and\n      0xffffffffffffffffffffffffffffffffffffffff\n      and\n      dup2\n      mstore\n      0x20\n      add\n      swap1\n      dup2\n      mstore\n      0x20\n      add\n      0x00\n      keccak256\n      sload\n        /* \"ex/token/Baby.sol\":18516:18550  return _allowances[owner][spender] */\n      swap1\n      pop\n        /* \"ex/token/Baby.sol\":18407:18558  function allowance(address owner, address spender) public view virtual override returns (uint256) {... */\n      swap3\n      swap2\n      pop\n      pop\n      jump\t// out\n        /* \"ex/token/Baby.sol\":16340:16375  mapping (address=>bool) public DEXs */\n    tag_136:\n      mstore(0x20, 0x07)\n      dup1\n      0x00\n      mstore\n      keccak256(0x00, 0x40)\n      0x00\n      swap2\n      pop\n      sload\n      swap1\n      0x0100\n      exp\n      swap1\n      div\n      0xff\n      and\n      dup2\n      jump\t// out\n        /* \"ex/token/Baby.sol\":4079:4280  function transferOwnership(address newOwner) public virtual onlyOwner {... */\n    tag_141:\n        /* \"ex/token/Baby.sol\":3401:3413  _msgSender() */\n      tag_213\n        /* \"ex/token/Baby.sol\":3401:3411  _msgSender */\n      tag_150\n        /* \"ex/token/Baby.sol\":3401:3413  _msgSender() */\n      jump\t// in\n    tag_213:\n        /* \"ex/token/Baby.sol\":3390:3413  owner() == _msgSender() */\n      0xffffffffffffffffffffffffffffffffffffffff\n      and\n        /* \"ex/token/Baby.sol\":3390:3397  owner() */\n      tag_214\n        /* \"ex/token/Baby.sol\":3390:3395  owner */\n      tag_103\n        /* \"ex/token/Baby.sol\":3390:3397  owner() */\n      jump\t// in\n    tag_214:\n        /* \"ex/token/Baby.sol\":3390:3413  owner() == _msgSender() */\n      0xffffffffffffffffffffffffffffffffffffffff\n      and\n      eq\n        /* \"ex/token/Baby.sol\":3382:3450  require(owner() == _msgSender(), \"Ownable: caller is not the owner\") */\n      tag_215\n      jumpi\n      mload(0x40)\n      0x08c379a000000000000000000000000000000000000000000000000000000000\n      dup2\n      mstore\n      0x04\n      add\n      tag_216\n      swap1\n      tag_178\n      jump\t// in\n    tag_216:\n      mload(0x40)\n      dup1\n      swap2\n      sub\n      swap1\n      revert\n    tag_215:\n        /* \"ex/token/Baby.sol\":4188:4189  0 */\n      0x00\n        /* \"ex/token/Baby.sol\":4168:4190  newOwner != address(0) */\n      0xffffffffffffffffffffffffffffffffffffffff\n      and\n        /* \"ex/token/Baby.sol\":4168:4176  newOwner */\n      dup2\n        /* \"ex/token/Baby.sol\":4168:4190  newOwner != address(0) */\n      0xffffffffffffffffffffffffffffffffffffffff\n      and\n      sub\n        /* \"ex/token/Baby.sol\":4160:4233  require(newOwner != address(0), \"Ownable: new owner is the zero address\") */\n      tag_218\n      jumpi\n      mload(0x40)\n      0x08c379a000000000000000000000000000000000000000000000000000000000\n      dup2\n      mstore\n      0x04\n      add\n      tag_219\n      swap1\n      tag_220\n      jump\t// in\n    tag_219:\n      mload(0x40)\n      dup1\n      swap2\n      sub\n      swap1\n      revert\n    tag_218:\n        /* \"ex/token/Baby.sol\":4244:4272  _transferOwnership(newOwner) */\n      tag_221\n        /* \"ex/token/Baby.sol\":4263:4271  newOwner */\n      dup2\n        /* \"ex/token/Baby.sol\":4244:4262  _transferOwnership */\n      tag_190\n        /* \"ex/token/Baby.sol\":4244:4272  _transferOwnership(newOwner) */\n      jump\t// in\n    tag_221:\n        /* \"ex/token/Baby.sol\":4079:4280  function transferOwnership(address newOwner) public virtual onlyOwner {... */\n      pop\n      jump\t// out\n        /* \"ex/token/Baby.sol\":22606:22702  function setMarketAddress(address addr) public onlyOwner {... */\n    tag_145:\n        /* \"ex/token/Baby.sol\":3401:3413  _msgSender() */\n      tag_223\n        /* \"ex/token/Baby.sol\":3401:3411  _msgSender */\n      tag_150\n        /* \"ex/token/Baby.sol\":3401:3413  _msgSender() */\n      jump\t// in\n    tag_223:\n        /* \"ex/token/Baby.sol\":3390:3413  owner() == _msgSender() */\n      0xffffffffffffffffffffffffffffffffffffffff\n      and\n        /* \"ex/token/Baby.sol\":3390:3397  owner() */\n      tag_224\n        /* \"ex/token/Baby.sol\":3390:3395  owner */\n      tag_103\n        /* \"ex/token/Baby.sol\":3390:3397  owner() */\n      jump\t// in\n    tag_224:\n        /* \"ex/token/Baby.sol\":3390:3413  owner() == _msgSender() */\n      0xffffffffffffffffffffffffffffffffffffffff\n      and\n      eq\n        /* \"ex/token/Baby.sol\":3382:3450  require(owner() == _msgSender(), \"Ownable: caller is not the owner\") */\n      tag_225\n      jumpi\n      mload(0x40)\n      0x08c379a000000000000000000000000000000000000000000000000000000000\n      dup2\n      mstore\n      0x04\n      add\n      tag_226\n      swap1\n      tag_178\n      jump\t// in\n    tag_226:\n      mload(0x40)\n      dup1\n      swap2\n      sub\n      swap1\n      revert\n    tag_225:\n        /* \"ex/token/Baby.sol\":22690:22694  addr */\n      dup1\n        /* \"ex/token/Baby.sol\":22674:22687  marketAddress */\n      0x08\n      0x01\n        /* \"ex/token/Baby.sol\":22674:22694  marketAddress = addr */\n      0x0100\n      exp\n      dup2\n      sload\n      dup2\n      0xffffffffffffffffffffffffffffffffffffffff\n      mul\n      not\n      and\n      swap1\n      dup4\n      0xffffffffffffffffffffffffffffffffffffffff\n      and\n      mul\n      or\n      swap1\n      sstore\n      pop\n        /* \"ex/token/Baby.sol\":22606:22702  function setMarketAddress(address addr) public onlyOwner {... */\n      pop\n      jump\t// out\n        /* \"ex/token/Baby.sol\":2532:2630  function _msgSender() internal view virtual returns (address) {... */\n    tag_150:\n        /* \"ex/token/Baby.sol\":2585:2592  address */\n      0x00\n        /* \"ex/token/Baby.sol\":2612:2622  msg.sender */\n      caller\n        /* \"ex/token/Baby.sol\":2605:2622  return msg.sender */\n      swap1\n      pop\n        /* \"ex/token/Baby.sol\":2532:2630  function _msgSender() internal view virtual returns (address) {... */\n      swap1\n      jump\t// out\n        /* \"ex/token/Baby.sol\":22153:22373  function _approve(... */\n    tag_151:\n        /* \"ex/token/Baby.sol\":22311:22317  amount */\n      dup1\n        /* \"ex/token/Baby.sol\":22281:22292  _allowances */\n      0x02\n        /* \"ex/token/Baby.sol\":22281:22299  _allowances[owner] */\n      0x00\n        /* \"ex/token/Baby.sol\":22293:22298  owner */\n      dup6\n        /* \"ex/token/Baby.sol\":22281:22299  _allowances[owner] */\n      0xffffffffffffffffffffffffffffffffffffffff\n      and\n      0xffffffffffffffffffffffffffffffffffffffff\n      and\n      dup2\n      mstore\n      0x20\n      add\n      swap1\n      dup2\n      mstore\n      0x20\n      add\n      0x00\n      keccak256\n        /* \"ex/token/Baby.sol\":22281:22308  _allowances[owner][spender] */\n      0x00\n        /* \"ex/token/Baby.sol\":22300:22307  spender */\n      dup5\n        /* \"ex/token/Baby.sol\":22281:22308  _allowances[owner][spender] */\n      0xffffffffffffffffffffffffffffffffffffffff\n      and\n      0xffffffffffffffffffffffffffffffffffffffff\n      and\n      dup2\n      mstore\n      0x20\n      add\n      swap1\n      dup2\n      mstore\n      0x20\n      add\n      0x00\n      keccak256\n        /* \"ex/token/Baby.sol\":22281:22317  _allowances[owner][spender] = amount */\n      dup2\n      swap1\n      sstore\n      pop\n        /* \"ex/token/Baby.sol\":22349:22356  spender */\n      dup2\n        /* \"ex/token/Baby.sol\":22333:22365  Approval(owner, spender, amount) */\n      0xffffffffffffffffffffffffffffffffffffffff\n      and\n        /* \"ex/token/Baby.sol\":22342:22347  owner */\n      dup4\n        /* \"ex/token/Baby.sol\":22333:22365  Approval(owner, spender, amount) */\n      0xffffffffffffffffffffffffffffffffffffffff\n      and\n      0x8c5be1e5ebec7d5bd14f71427d1e84f3dd0314c0f7b2291e5b200ac8c7c3b925\n        /* \"ex/token/Baby.sol\":22358:22364  amount */\n      dup4\n        /* \"ex/token/Baby.sol\":22333:22365  Approval(owner, spender, amount) */\n      mload(0x40)\n      tag_230\n      swap2\n      swap1\n      tag_53\n      jump\t// in\n    tag_230:\n      mload(0x40)\n      dup1\n      swap2\n      sub\n      swap1\n      log3\n        /* \"ex/token/Baby.sol\":22153:22373  function _approve(... */\n      pop\n      pop\n      pop\n      jump\t// out\n        /* \"ex/token/Baby.sol\":20078:21378  function _transfer(... */\n    tag_155:\n        /* \"ex/token/Baby.sol\":20236:20237  0 */\n      0x00\n        /* \"ex/token/Baby.sol\":20218:20238  sender != address(0) */\n      0xffffffffffffffffffffffffffffffffffffffff\n      and\n        /* \"ex/token/Baby.sol\":20218:20224  sender */\n      dup4\n        /* \"ex/token/Baby.sol\":20218:20238  sender != address(0) */\n      0xffffffffffffffffffffffffffffffffffffffff\n      and\n      sub\n        /* \"ex/token/Baby.sol\":20210:20278  require(sender != address(0), \"BEE: transfer from the zero address\") */\n      tag_232\n      jumpi\n      mload(0x40)\n      0x08c379a000000000000000000000000000000000000000000000000000000000\n      dup2\n      mstore\n      0x04\n      add\n      tag_233\n      swap1\n      tag_234\n      jump\t// in\n    tag_233:\n      mload(0x40)\n      dup1\n      swap2\n      sub\n      swap1\n      revert\n    tag_232:\n        /* \"ex/token/Baby.sol\":20318:20319  0 */\n      0x00\n        /* \"ex/token/Baby.sol\":20297:20320  recipient != address(0) */\n      0xffffffffffffffffffffffffffffffffffffffff\n      and\n        /* \"ex/token/Baby.sol\":20297:20306  recipient */\n      dup3\n        /* \"ex/token/Baby.sol\":20297:20320  recipient != address(0) */\n      0xffffffffffffffffffffffffffffffffffffffff\n      and\n      sub\n        /* \"ex/token/Baby.sol\":20289:20358  require(recipient != address(0), \"BEE: transfer to the zero address\") */\n      tag_235\n      jumpi\n      mload(0x40)\n      0x08c379a000000000000000000000000000000000000000000000000000000000\n      dup2\n      mstore\n      0x04\n      add\n      tag_236\n      swap1\n      tag_237\n      jump\t// in\n    tag_236:\n      mload(0x40)\n      dup1\n      swap2\n      sub\n      swap1\n      revert\n    tag_235:\n        /* \"ex/token/Baby.sol\":20369:20390  uint256 senderBalance */\n      0x00\n        /* \"ex/token/Baby.sol\":20393:20402  _balances */\n      0x01\n        /* \"ex/token/Baby.sol\":20393:20410  _balances[sender] */\n      0x00\n        /* \"ex/token/Baby.sol\":20403:20409  sender */\n      dup6\n        /* \"ex/token/Baby.sol\":20393:20410  _balances[sender] */\n      0xffffffffffffffffffffffffffffffffffffffff\n      and\n      0xffffffffffffffffffffffffffffffffffffffff\n      and\n      dup2\n      mstore\n      0x20\n      add\n      swap1\n      dup2\n      mstore\n      0x20\n      add\n      0x00\n      keccak256\n      sload\n        /* \"ex/token/Baby.sol\":20369:20410  uint256 senderBalance = _balances[sender] */\n      swap1\n      pop\n        /* \"ex/token/Baby.sol\":20446:20452  amount */\n      dup2\n        /* \"ex/token/Baby.sol\":20429:20442  senderBalance */\n      dup2\n        /* \"ex/token/Baby.sol\":20429:20452  senderBalance >= amount */\n      lt\n      iszero\n        /* \"ex/token/Baby.sol\":20421:20493  require(senderBalance >= amount, \"BEE: transfer amount exceeds balance\") */\n      tag_238\n      jumpi\n      mload(0x40)\n      0x08c379a000000000000000000000000000000000000000000000000000000000\n      dup2\n      mstore\n      0x04\n      add\n      tag_239\n      swap1\n      tag_240\n      jump\t// in\n    tag_239:\n      mload(0x40)\n      dup1\n      swap2\n      sub\n      swap1\n      revert\n    tag_238:\n        /* \"ex/token/Baby.sol\":20504:20519  uint256 _amount */\n      0x00\n        /* \"ex/token/Baby.sol\":20522:20528  amount */\n      dup3\n        /* \"ex/token/Baby.sol\":20504:20528  uint256 _amount = amount */\n      swap1\n      pop\n        /* \"ex/token/Baby.sol\":20546:20550  DEXs */\n      0x07\n        /* \"ex/token/Baby.sol\":20546:20558  DEXs[sender] */\n      0x00\n        /* \"ex/token/Baby.sol\":20551:20557  sender */\n      dup7\n        /* \"ex/token/Baby.sol\":20546:20558  DEXs[sender] */\n      0xffffffffffffffffffffffffffffffffffffffff\n      and\n      0xffffffffffffffffffffffffffffffffffffffff\n      and\n      dup2\n      mstore\n      0x20\n      add\n      swap1\n      dup2\n      mstore\n      0x20\n      add\n      0x00\n      keccak256\n      0x00\n      swap1\n      sload\n      swap1\n      0x0100\n      exp\n      swap1\n      div\n      0xff\n      and\n        /* \"ex/token/Baby.sol\":20546:20599  DEXs[sender] && recipient != address(uniswapV2Router) */\n      dup1\n      iszero\n      tag_241\n      jumpi\n      pop\n        /* \"ex/token/Baby.sol\":20583:20598  uniswapV2Router */\n      immutable(\"0x0257654a82461e8a1d15ee210f9c68af767d2a4dc70df683f0ecf9e700bd8bac\")\n        /* \"ex/token/Baby.sol\":20562:20599  recipient != address(uniswapV2Router) */\n      0xffffffffffffffffffffffffffffffffffffffff\n      and\n        /* \"ex/token/Baby.sol\":20562:20571  recipient */\n      dup5\n        /* \"ex/token/Baby.sol\":20562:20599  recipient != address(uniswapV2Router) */\n      0xffffffffffffffffffffffffffffffffffffffff\n      and\n      eq\n      iszero\n        /* \"ex/token/Baby.sol\":20546:20599  DEXs[sender] && recipient != address(uniswapV2Router) */\n    tag_241:\n        /* \"ex/token/Baby.sol\":20545:20619  (DEXs[sender] && recipient != address(uniswapV2Router)) || DEXs[recipient] */\n      dup1\n      tag_242\n      jumpi\n      pop\n        /* \"ex/token/Baby.sol\":20604:20608  DEXs */\n      0x07\n        /* \"ex/token/Baby.sol\":20604:20619  DEXs[recipient] */\n      0x00\n        /* \"ex/token/Baby.sol\":20609:20618  recipient */\n      dup6\n        /* \"ex/token/Baby.sol\":20604:20619  DEXs[recipient] */\n      0xffffffffffffffffffffffffffffffffffffffff\n      and\n      0xffffffffffffffffffffffffffffffffffffffff\n      and\n      dup2\n      mstore\n      0x20\n      add\n      swap1\n      dup2\n      mstore\n      0x20\n      add\n      0x00\n      keccak256\n      0x00\n      swap1\n      sload\n      swap1\n      0x0100\n      exp\n      swap1\n      div\n      0xff\n      and\n        /* \"ex/token/Baby.sol\":20545:20619  (DEXs[sender] && recipient != address(uniswapV2Router)) || DEXs[recipient] */\n    tag_242:\n        /* \"ex/token/Baby.sol\":20544:20658  ((DEXs[sender] && recipient != address(uniswapV2Router)) || DEXs[recipient]) &&... */\n      dup1\n      iszero\n      tag_243\n      jumpi\n      pop\n        /* \"ex/token/Baby.sol\":20638:20650  _isExcludeds */\n      0x06\n        /* \"ex/token/Baby.sol\":20638:20658  _isExcludeds[sender] */\n      0x00\n        /* \"ex/token/Baby.sol\":20651:20657  sender */\n      dup7\n        /* \"ex/token/Baby.sol\":20638:20658  _isExcludeds[sender] */\n      0xffffffffffffffffffffffffffffffffffffffff\n      and\n      0xffffffffffffffffffffffffffffffffffffffff\n      and\n      dup2\n      mstore\n      0x20\n      add\n      swap1\n      dup2\n      mstore\n      0x20\n      add\n      0x00\n      keccak256\n      0x00\n      swap1\n      sload\n      swap1\n      0x0100\n      exp\n      swap1\n      div\n      0xff\n      and\n        /* \"ex/token/Baby.sol\":20637:20658  !_isExcludeds[sender] */\n      iszero\n        /* \"ex/token/Baby.sol\":20544:20658  ((DEXs[sender] && recipient != address(uniswapV2Router)) || DEXs[recipient]) &&... */\n    tag_243:\n        /* \"ex/token/Baby.sol\":20544:20699  ((DEXs[sender] && recipient != address(uniswapV2Router)) || DEXs[recipient]) &&... */\n      dup1\n      iszero\n      tag_244\n      jumpi\n      pop\n        /* \"ex/token/Baby.sol\":20676:20688  _isExcludeds */\n      0x06\n        /* \"ex/token/Baby.sol\":20676:20699  _isExcludeds[recipient] */\n      0x00\n        /* \"ex/token/Baby.sol\":20689:20698  recipient */\n      dup6\n        /* \"ex/token/Baby.sol\":20676:20699  _isExcludeds[recipient] */\n      0xffffffffffffffffffffffffffffffffffffffff\n      and\n      0xffffffffffffffffffffffffffffffffffffffff\n      and\n      dup2\n      mstore\n      0x20\n      add\n      swap1\n      dup2\n      mstore\n      0x20\n      add\n      0x00\n      keccak256\n      0x00\n      swap1\n      sload\n      swap1\n      0x0100\n      exp\n      swap1\n      div\n      0xff\n      and\n        /* \"ex/token/Baby.sol\":20675:20699  !_isExcludeds[recipient] */\n      iszero\n        /* \"ex/token/Baby.sol\":20544:20699  ((DEXs[sender] && recipient != address(uniswapV2Router)) || DEXs[recipient]) &&... */\n    tag_244:\n        /* \"ex/token/Baby.sol\":20539:21192  if ( ((DEXs[sender] && recipient != address(uniswapV2Router)) || DEXs[recipient]) &&... */\n      iszero\n      tag_245\n      jumpi\n        /* \"ex/token/Baby.sol\":20744:20798  _balances[address(this)].add(amount.mul(10).div(1000)) */\n      tag_246\n        /* \"ex/token/Baby.sol\":20773:20797  amount.mul(10).div(1000) */\n      tag_247\n        /* \"ex/token/Baby.sol\":20792:20796  1000 */\n      0x03e8\n        /* \"ex/token/Baby.sol\":20773:20787  amount.mul(10) */\n      tag_248\n        /* \"ex/token/Baby.sol\":20784:20786  10 */\n      0x0a\n        /* \"ex/token/Baby.sol\":20773:20779  amount */\n      dup8\n        /* \"ex/token/Baby.sol\":20773:20783  amount.mul */\n      tag_249\n      swap1\n        /* \"ex/token/Baby.sol\":20773:20787  amount.mul(10) */\n      swap2\n      swap1\n      0xffffffff\n      and\n      jump\t// in\n    tag_248:\n        /* \"ex/token/Baby.sol\":20773:20791  amount.mul(10).div */\n      tag_250\n      swap1\n        /* \"ex/token/Baby.sol\":20773:20797  amount.mul(10).div(1000) */\n      swap2\n      swap1\n      0xffffffff\n      and\n      jump\t// in\n    tag_247:\n        /* \"ex/token/Baby.sol\":20744:20753  _balances */\n      0x01\n        /* \"ex/token/Baby.sol\":20744:20768  _balances[address(this)] */\n      0x00\n        /* \"ex/token/Baby.sol\":20762:20766  this */\n      address\n        /* \"ex/token/Baby.sol\":20744:20768  _balances[address(this)] */\n      0xffffffffffffffffffffffffffffffffffffffff\n      and\n      0xffffffffffffffffffffffffffffffffffffffff\n      and\n      dup2\n      mstore\n      0x20\n      add\n      swap1\n      dup2\n      mstore\n      0x20\n      add\n      0x00\n      keccak256\n      sload\n        /* \"ex/token/Baby.sol\":20744:20772  _balances[address(this)].add */\n      tag_251\n      swap1\n        /* \"ex/token/Baby.sol\":20744:20798  _balances[address(this)].add(amount.mul(10).div(1000)) */\n      swap2\n      swap1\n      0xffffffff\n      and\n      jump\t// in\n    tag_246:\n        /* \"ex/token/Baby.sol\":20717:20726  _balances */\n      0x01\n        /* \"ex/token/Baby.sol\":20717:20741  _balances[address(this)] */\n      0x00\n        /* \"ex/token/Baby.sol\":20735:20739  this */\n      address\n        /* \"ex/token/Baby.sol\":20717:20741  _balances[address(this)] */\n      0xffffffffffffffffffffffffffffffffffffffff\n      and\n      0xffffffffffffffffffffffffffffffffffffffff\n      and\n      dup2\n      mstore\n      0x20\n      add\n      swap1\n      dup2\n      mstore\n      0x20\n      add\n      0x00\n      keccak256\n        /* \"ex/token/Baby.sol\":20717:20798  _balances[address(this)] = _balances[address(this)].add(amount.mul(10).div(1000)) */\n      dup2\n      swap1\n      sstore\n      pop\n        /* \"ex/token/Baby.sol\":20843:20847  this */\n      address\n        /* \"ex/token/Baby.sol\":20818:20875  Transfer(sender, address(this), amount.mul(10).div(1000)) */\n      0xffffffffffffffffffffffffffffffffffffffff\n      and\n        /* \"ex/token/Baby.sol\":20827:20833  sender */\n      dup6\n        /* \"ex/token/Baby.sol\":20818:20875  Transfer(sender, address(this), amount.mul(10).div(1000)) */\n      0xffffffffffffffffffffffffffffffffffffffff\n      and\n      0xddf252ad1be2c89b69c2b068fc378daa952ba7f163c4a11628f55a4df523b3ef\n        /* \"ex/token/Baby.sol\":20850:20874  amount.mul(10).div(1000) */\n      tag_252\n        /* \"ex/token/Baby.sol\":20869:20873  1000 */\n      0x03e8\n        /* \"ex/token/Baby.sol\":20850:20864  amount.mul(10) */\n      tag_253\n        /* \"ex/token/Baby.sol\":20861:20863  10 */\n      0x0a\n        /* \"ex/token/Baby.sol\":20850:20856  amount */\n      dup10\n        /* \"ex/token/Baby.sol\":20850:20860  amount.mul */\n      tag_249\n      swap1\n        /* \"ex/token/Baby.sol\":20850:20864  amount.mul(10) */\n      swap2\n      swap1\n      0xffffffff\n      and\n      jump\t// in\n    tag_253:\n        /* \"ex/token/Baby.sol\":20850:20868  amount.mul(10).div */\n      tag_250\n      swap1\n        /* \"ex/token/Baby.sol\":20850:20874  amount.mul(10).div(1000) */\n      swap2\n      swap1\n      0xffffffff\n      and\n      jump\t// in\n    tag_252:\n        /* \"ex/token/Baby.sol\":20818:20875  Transfer(sender, address(this), amount.mul(10).div(1000)) */\n      mload(0x40)\n      tag_254\n      swap2\n      swap1\n      tag_53\n      jump\t// in\n    tag_254:\n      mload(0x40)\n      dup1\n      swap2\n      sub\n      swap1\n      log3\n        /* \"ex/token/Baby.sol\":20900:20925  amount.div(1000).mul(990) */\n      tag_255\n        /* \"ex/token/Baby.sol\":20921:20924  990 */\n      0x03de\n        /* \"ex/token/Baby.sol\":20900:20916  amount.div(1000) */\n      tag_256\n        /* \"ex/token/Baby.sol\":20911:20915  1000 */\n      0x03e8\n        /* \"ex/token/Baby.sol\":20900:20906  amount */\n      dup7\n        /* \"ex/token/Baby.sol\":20900:20910  amount.div */\n      tag_250\n      swap1\n        /* \"ex/token/Baby.sol\":20900:20916  amount.div(1000) */\n      swap2\n      swap1\n      0xffffffff\n      and\n      jump\t// in\n    tag_256:\n        /* \"ex/token/Baby.sol\":20900:20920  amount.div(1000).mul */\n      tag_249\n      swap1\n        /* \"ex/token/Baby.sol\":20900:20925  amount.div(1000).mul(990) */\n      swap2\n      swap1\n      0xffffffff\n      and\n      jump\t// in\n    tag_255:\n        /* \"ex/token/Baby.sol\":20890:20925  _amount = amount.div(1000).mul(990) */\n      swap1\n      pop\n        /* \"ex/token/Baby.sol\":20946:20962  inSwapAndLiquify */\n      0x08\n      0x00\n      swap1\n      sload\n      swap1\n      0x0100\n      exp\n      swap1\n      div\n      0xff\n      and\n        /* \"ex/token/Baby.sol\":20945:20962  !inSwapAndLiquify */\n      iszero\n        /* \"ex/token/Baby.sol\":20945:20979  !inSwapAndLiquify && !DEXs[sender] */\n      dup1\n      iszero\n      tag_257\n      jumpi\n      pop\n        /* \"ex/token/Baby.sol\":20967:20971  DEXs */\n      0x07\n        /* \"ex/token/Baby.sol\":20967:20979  DEXs[sender] */\n      0x00\n        /* \"ex/token/Baby.sol\":20972:20978  sender */\n      dup7\n        /* \"ex/token/Baby.sol\":20967:20979  DEXs[sender] */\n      0xffffffffffffffffffffffffffffffffffffffff\n      and\n      0xffffffffffffffffffffffffffffffffffffffff\n      and\n      dup2\n      mstore\n      0x20\n      add\n      swap1\n      dup2\n      mstore\n      0x20\n      add\n      0x00\n      keccak256\n      0x00\n      swap1\n      sload\n      swap1\n      0x0100\n      exp\n      swap1\n      div\n      0xff\n      and\n        /* \"ex/token/Baby.sol\":20966:20979  !DEXs[sender] */\n      iszero\n        /* \"ex/token/Baby.sol\":20945:20979  !inSwapAndLiquify && !DEXs[sender] */\n    tag_257:\n        /* \"ex/token/Baby.sol\":20942:21181  if(!inSwapAndLiquify && !DEXs[sender]) {... */\n      iszero\n      tag_258\n      jumpi\n        /* \"ex/token/Baby.sol\":21000:21018  uint256 amountThis */\n      0x00\n        /* \"ex/token/Baby.sol\":21021:21045  balanceOf(address(this)) */\n      tag_259\n        /* \"ex/token/Baby.sol\":21039:21043  this */\n      address\n        /* \"ex/token/Baby.sol\":21021:21030  balanceOf */\n      tag_92\n        /* \"ex/token/Baby.sol\":21021:21045  balanceOf(address(this)) */\n      jump\t// in\n    tag_259:\n        /* \"ex/token/Baby.sol\":21000:21045  uint256 amountThis = balanceOf(address(this)) */\n      swap1\n      pop\n        /* \"ex/token/Baby.sol\":21080:21093  10 * 10 ** 18 */\n      0x8ac7230489e80000\n        /* \"ex/token/Baby.sol\":21067:21077  amountThis */\n      dup2\n        /* \"ex/token/Baby.sol\":21067:21093  amountThis > 10 * 10 ** 18 */\n      gt\n        /* \"ex/token/Baby.sol\":21064:21166  if(amountThis > 10 * 10 ** 18){... */\n      iszero\n      tag_260\n      jumpi\n        /* \"ex/token/Baby.sol\":21117:21146  swapTokensForUsdt(amountThis) */\n      tag_261\n        /* \"ex/token/Baby.sol\":21135:21145  amountThis */\n      dup2\n        /* \"ex/token/Baby.sol\":21117:21134  swapTokensForUsdt */\n      tag_262\n        /* \"ex/token/Baby.sol\":21117:21146  swapTokensForUsdt(amountThis) */\n      jump\t// in\n    tag_261:\n        /* \"ex/token/Baby.sol\":21064:21166  if(amountThis > 10 * 10 ** 18){... */\n    tag_260:\n        /* \"ex/token/Baby.sol\":20981:21181  {... */\n      pop\n        /* \"ex/token/Baby.sol\":20942:21181  if(!inSwapAndLiquify && !DEXs[sender]) {... */\n    tag_258:\n        /* \"ex/token/Baby.sol\":20539:21192  if ( ((DEXs[sender] && recipient != address(uniswapV2Router)) || DEXs[recipient]) &&... */\n    tag_245:\n        /* \"ex/token/Baby.sol\":21226:21251  senderBalance.sub(amount) */\n      tag_263\n        /* \"ex/token/Baby.sol\":21244:21250  amount */\n      dup4\n        /* \"ex/token/Baby.sol\":21226:21239  senderBalance */\n      dup4\n        /* \"ex/token/Baby.sol\":21226:21243  senderBalance.sub */\n      tag_264\n      swap1\n        /* \"ex/token/Baby.sol\":21226:21251  senderBalance.sub(amount) */\n      swap2\n      swap1\n      0xffffffff\n      and\n      jump\t// in\n    tag_263:\n        /* \"ex/token/Baby.sol\":21206:21215  _balances */\n      0x01\n        /* \"ex/token/Baby.sol\":21206:21223  _balances[sender] */\n      0x00\n        /* \"ex/token/Baby.sol\":21216:21222  sender */\n      dup8\n        /* \"ex/token/Baby.sol\":21206:21223  _balances[sender] */\n      0xffffffffffffffffffffffffffffffffffffffff\n      and\n      0xffffffffffffffffffffffffffffffffffffffff\n      and\n      dup2\n      mstore\n      0x20\n      add\n      swap1\n      dup2\n      mstore\n      0x20\n      add\n      0x00\n      keccak256\n        /* \"ex/token/Baby.sol\":21206:21251  _balances[sender] = senderBalance.sub(amount) */\n      dup2\n      swap1\n      sstore\n      pop\n        /* \"ex/token/Baby.sol\":21285:21318  _balances[recipient].add(_amount) */\n      tag_265\n        /* \"ex/token/Baby.sol\":21310:21317  _amount */\n      dup2\n        /* \"ex/token/Baby.sol\":21285:21294  _balances */\n      0x01\n        /* \"ex/token/Baby.sol\":21285:21305  _balances[recipient] */\n      0x00\n        /* \"ex/token/Baby.sol\":21295:21304  recipient */\n      dup8\n        /* \"ex/token/Baby.sol\":21285:21305  _balances[recipient] */\n      0xffffffffffffffffffffffffffffffffffffffff\n      and\n      0xffffffffffffffffffffffffffffffffffffffff\n      and\n      dup2\n      mstore\n      0x20\n      add\n      swap1\n      dup2\n      mstore\n      0x20\n      add\n      0x00\n      keccak256\n      sload\n        /* \"ex/token/Baby.sol\":21285:21309  _balances[recipient].add */\n      tag_251\n      swap1\n        /* \"ex/token/Baby.sol\":21285:21318  _balances[recipient].add(_amount) */\n      swap2\n      swap1\n      0xffffffff\n      and\n      jump\t// in\n    tag_265:\n        /* \"ex/token/Baby.sol\":21262:21271  _balances */\n      0x01\n        /* \"ex/token/Baby.sol\":21262:21282  _balances[recipient] */\n      0x00\n        /* \"ex/token/Baby.sol\":21272:21281  recipient */\n      dup7\n        /* \"ex/token/Baby.sol\":21262:21282  _balances[recipient] */\n      0xffffffffffffffffffffffffffffffffffffffff\n      and\n      0xffffffffffffffffffffffffffffffffffffffff\n      and\n      dup2\n      mstore\n      0x20\n      add\n      swap1\n      dup2\n      mstore\n      0x20\n      add\n      0x00\n      keccak256\n        /* \"ex/token/Baby.sol\":21262:21318  _balances[recipient] = _balances[recipient].add(_amount) */\n      dup2\n      swap1\n      sstore\n      pop\n        /* \"ex/token/Baby.sol\":21351:21360  recipient */\n      dup4\n        /* \"ex/token/Baby.sol\":21334:21370  Transfer(sender, recipient, _amount) */\n      0xffffffffffffffffffffffffffffffffffffffff\n      and\n        /* \"ex/token/Baby.sol\":21343:21349  sender */\n      dup6\n        /* \"ex/token/Baby.sol\":21334:21370  Transfer(sender, recipient, _amount) */\n      0xffffffffffffffffffffffffffffffffffffffff\n      and\n      0xddf252ad1be2c89b69c2b068fc378daa952ba7f163c4a11628f55a4df523b3ef\n        /* \"ex/token/Baby.sol\":21362:21369  _amount */\n      dup4\n        /* \"ex/token/Baby.sol\":21334:21370  Transfer(sender, recipient, _amount) */\n      mload(0x40)\n      tag_266\n      swap2\n      swap1\n      tag_53\n      jump\t// in\n    tag_266:\n      mload(0x40)\n      dup1\n      swap2\n      sub\n      swap1\n      log3\n        /* \"ex/token/Baby.sol\":20199:21378  {... */\n      pop\n      pop\n        /* \"ex/token/Baby.sol\":20078:21378  function _transfer(... */\n      pop\n      pop\n      pop\n      jump\t// out\n        /* \"ex/token/Baby.sol\":21592:22052  function _burn(address account, uint256 amount) internal virtual {... */\n    tag_172:\n        /* \"ex/token/Baby.sol\":21695:21696  0 */\n      0x00\n        /* \"ex/token/Baby.sol\":21676:21697  account != address(0) */\n      0xffffffffffffffffffffffffffffffffffffffff\n      and\n        /* \"ex/token/Baby.sol\":21676:21683  account */\n      dup3\n        /* \"ex/token/Baby.sol\":21676:21697  account != address(0) */\n      0xffffffffffffffffffffffffffffffffffffffff\n      and\n      sub\n        /* \"ex/token/Baby.sol\":21668:21733  require(account != address(0), \"BEE: burn from the zero address\") */\n      tag_268\n      jumpi\n      mload(0x40)\n      0x08c379a000000000000000000000000000000000000000000000000000000000\n      dup2\n      mstore\n      0x04\n      add\n      tag_269\n      swap1\n      tag_270\n      jump\t// in\n    tag_269:\n      mload(0x40)\n      dup1\n      swap2\n      sub\n      swap1\n      revert\n    tag_268:\n        /* \"ex/token/Baby.sol\":21744:21766  uint256 accountBalance */\n      0x00\n        /* \"ex/token/Baby.sol\":21769:21778  _balances */\n      0x01\n        /* \"ex/token/Baby.sol\":21769:21787  _balances[account] */\n      0x00\n        /* \"ex/token/Baby.sol\":21779:21786  account */\n      dup5\n        /* \"ex/token/Baby.sol\":21769:21787  _balances[account] */\n      0xffffffffffffffffffffffffffffffffffffffff\n      and\n      0xffffffffffffffffffffffffffffffffffffffff\n      and\n      dup2\n      mstore\n      0x20\n      add\n      swap1\n      dup2\n      mstore\n      0x20\n      add\n      0x00\n      keccak256\n      sload\n        /* \"ex/token/Baby.sol\":21744:21787  uint256 accountBalance = _balances[account] */\n      swap1\n      pop\n        /* \"ex/token/Baby.sol\":21824:21830  amount */\n      dup2\n        /* \"ex/token/Baby.sol\":21806:21820  accountBalance */\n      dup2\n        /* \"ex/token/Baby.sol\":21806:21830  accountBalance >= amount */\n      lt\n      iszero\n        /* \"ex/token/Baby.sol\":21798:21867  require(accountBalance >= amount, \"BEE: burn amount exceeds balance\") */\n      tag_271\n      jumpi\n      mload(0x40)\n      0x08c379a000000000000000000000000000000000000000000000000000000000\n      dup2\n      mstore\n      0x04\n      add\n      tag_272\n      swap1\n      tag_273\n      jump\t// in\n    tag_272:\n      mload(0x40)\n      dup1\n      swap2\n      sub\n      swap1\n      revert\n    tag_271:\n        /* \"ex/token/Baby.sol\":21941:21947  amount */\n      dup2\n        /* \"ex/token/Baby.sol\":21924:21938  accountBalance */\n      dup2\n        /* \"ex/token/Baby.sol\":21924:21947  accountBalance - amount */\n      sub\n        /* \"ex/token/Baby.sol\":21903:21912  _balances */\n      0x01\n        /* \"ex/token/Baby.sol\":21903:21921  _balances[account] */\n      0x00\n        /* \"ex/token/Baby.sol\":21913:21920  account */\n      dup6\n        /* \"ex/token/Baby.sol\":21903:21921  _balances[account] */\n      0xffffffffffffffffffffffffffffffffffffffff\n      and\n      0xffffffffffffffffffffffffffffffffffffffff\n      and\n      dup2\n      mstore\n      0x20\n      add\n      swap1\n      dup2\n      mstore\n      0x20\n      add\n      0x00\n      keccak256\n        /* \"ex/token/Baby.sol\":21903:21947  _balances[account] = accountBalance - amount */\n      dup2\n      swap1\n      sstore\n      pop\n        /* \"ex/token/Baby.sol\":21985:21991  amount */\n      dup2\n        /* \"ex/token/Baby.sol\":21969:21981  _totalSupply */\n      0x03\n      0x00\n        /* \"ex/token/Baby.sol\":21969:21991  _totalSupply -= amount */\n      dup3\n      dup3\n      sload\n      tag_274\n      swap2\n      swap1\n      tag_275\n      jump\t// in\n    tag_274:\n      swap3\n      pop\n      pop\n      dup2\n      swap1\n      sstore\n      pop\n        /* \"ex/token/Baby.sol\":22033:22034  0 */\n      0x00\n        /* \"ex/token/Baby.sol\":22007:22044  Transfer(account, address(0), amount) */\n      0xffffffffffffffffffffffffffffffffffffffff\n      and\n        /* \"ex/token/Baby.sol\":22016:22023  account */\n      dup4\n        /* \"ex/token/Baby.sol\":22007:22044  Transfer(account, address(0), amount) */\n      0xffffffffffffffffffffffffffffffffffffffff\n      and\n      0xddf252ad1be2c89b69c2b068fc378daa952ba7f163c4a11628f55a4df523b3ef\n        /* \"ex/token/Baby.sol\":22037:22043  amount */\n      dup5\n        /* \"ex/token/Baby.sol\":22007:22044  Transfer(account, address(0), amount) */\n      mload(0x40)\n      tag_276\n      swap2\n      swap1\n      tag_53\n      jump\t// in\n    tag_276:\n      mload(0x40)\n      dup1\n      swap2\n      sub\n      swap1\n      log3\n        /* \"ex/token/Baby.sol\":21657:22052  {... */\n      pop\n        /* \"ex/token/Baby.sol\":21592:22052  function _burn(address account, uint256 amount) internal virtual {... */\n      pop\n      pop\n      jump\t// out\n        /* \"ex/token/Baby.sol\":4440:4631  function _transferOwnership(address newOwner) internal virtual {... */\n    tag_190:\n        /* \"ex/token/Baby.sol\":4514:4530  address oldOwner */\n      0x00\n        /* \"ex/token/Baby.sol\":4533:4539  _owner */\n      dup1\n      0x00\n      swap1\n      sload\n      swap1\n      0x0100\n      exp\n      swap1\n      div\n      0xffffffffffffffffffffffffffffffffffffffff\n      and\n        /* \"ex/token/Baby.sol\":4514:4539  address oldOwner = _owner */\n      swap1\n      pop\n        /* \"ex/token/Baby.sol\":4559:4567  newOwner */\n      dup2\n        /* \"ex/token/Baby.sol\":4550:4556  _owner */\n      0x00\n      dup1\n        /* \"ex/token/Baby.sol\":4550:4567  _owner = newOwner */\n      0x0100\n      exp\n      dup2\n      sload\n      dup2\n      0xffffffffffffffffffffffffffffffffffffffff\n      mul\n      not\n      and\n      swap1\n      dup4\n      0xffffffffffffffffffffffffffffffffffffffff\n      and\n      mul\n      or\n      swap1\n      sstore\n      pop\n        /* \"ex/token/Baby.sol\":4614:4622  newOwner */\n      dup2\n        /* \"ex/token/Baby.sol\":4583:4623  OwnershipTransferred(oldOwner, newOwner) */\n      0xffffffffffffffffffffffffffffffffffffffff\n      and\n        /* \"ex/token/Baby.sol\":4604:4612  oldOwner */\n      dup2\n        /* \"ex/token/Baby.sol\":4583:4623  OwnershipTransferred(oldOwner, newOwner) */\n      0xffffffffffffffffffffffffffffffffffffffff\n      and\n      0x8be0079c531659141344cd1fd0a4f28419497f9722a3daafe3b4186f6b6457e0\n      mload(0x40)\n      mload(0x40)\n      dup1\n      swap2\n      sub\n      swap1\n      log3\n        /* \"ex/token/Baby.sol\":4503:4631  {... */\n      pop\n        /* \"ex/token/Baby.sol\":4440:4631  function _transferOwnership(address newOwner) internal virtual {... */\n      pop\n      jump\t// out\n        /* \"ex/token/Baby.sol\":1609:1855  function mul(uint256 a, uint256 b) internal pure returns (uint256) {... */\n    tag_249:\n        /* \"ex/token/Baby.sol\":1667:1674  uint256 */\n      0x00\n        /* \"ex/token/Baby.sol\":1696:1697  0 */\n      dup1\n        /* \"ex/token/Baby.sol\":1691:1692  a */\n      dup4\n        /* \"ex/token/Baby.sol\":1691:1697  a == 0 */\n      sub\n        /* \"ex/token/Baby.sol\":1687:1734  if (a == 0) {... */\n      tag_279\n      jumpi\n        /* \"ex/token/Baby.sol\":1721:1722  0 */\n      0x00\n        /* \"ex/token/Baby.sol\":1714:1722  return 0 */\n      swap1\n      pop\n      jump(tag_278)\n        /* \"ex/token/Baby.sol\":1687:1734  if (a == 0) {... */\n    tag_279:\n        /* \"ex/token/Baby.sol\":1744:1753  uint256 c */\n      0x00\n        /* \"ex/token/Baby.sol\":1760:1761  b */\n      dup3\n        /* \"ex/token/Baby.sol\":1756:1757  a */\n      dup5\n        /* \"ex/token/Baby.sol\":1756:1761  a * b */\n      tag_280\n      swap2\n      swap1\n      tag_281\n      jump\t// in\n    tag_280:\n        /* \"ex/token/Baby.sol\":1744:1761  uint256 c = a * b */\n      swap1\n      pop\n        /* \"ex/token/Baby.sol\":1789:1790  b */\n      dup3\n        /* \"ex/token/Baby.sol\":1784:1785  a */\n      dup5\n        /* \"ex/token/Baby.sol\":1780:1781  c */\n      dup3\n        /* \"ex/token/Baby.sol\":1780:1785  c / a */\n      tag_282\n      swap2\n      swap1\n      tag_283\n      jump\t// in\n    tag_282:\n        /* \"ex/token/Baby.sol\":1780:1790  c / a == b */\n      eq\n        /* \"ex/token/Baby.sol\":1772:1828  require(c / a == b, \"SafeMath: multiplication overflow\") */\n      tag_284\n      jumpi\n      mload(0x40)\n      0x08c379a000000000000000000000000000000000000000000000000000000000\n      dup2\n      mstore\n      0x04\n      add\n      tag_285\n      swap1\n      tag_286\n      jump\t// in\n    tag_285:\n      mload(0x40)\n      dup1\n      swap2\n      sub\n      swap1\n      revert\n    tag_284:\n        /* \"ex/token/Baby.sol\":1846:1847  c */\n      dup1\n        /* \"ex/token/Baby.sol\":1839:1847  return c */\n      swap2\n      pop\n      pop\n        /* \"ex/token/Baby.sol\":1609:1855  function mul(uint256 a, uint256 b) internal pure returns (uint256) {... */\n    tag_278:\n      swap3\n      swap2\n      pop\n      pop\n      jump\t// out\n        /* \"ex/token/Baby.sol\":1861:1993  function div(uint256 a, uint256 b) internal pure returns (uint256) {... */\n    tag_250:\n        /* \"ex/token/Baby.sol\":1919:1926  uint256 */\n      0x00\n        /* \"ex/token/Baby.sol\":1946:1985  div(a, b, \"SafeMath: division by zero\") */\n      tag_288\n        /* \"ex/token/Baby.sol\":1950:1951  a */\n      dup4\n        /* \"ex/token/Baby.sol\":1953:1954  b */\n      dup4\n        /* \"ex/token/Baby.sol\":1946:1985  div(a, b, \"SafeMath: division by zero\") */\n      mload(0x40)\n      dup1\n      0x40\n      add\n      0x40\n      mstore\n      dup1\n      0x1a\n      dup2\n      mstore\n      0x20\n      add\n      0x536166654d6174683a206469766973696f6e206279207a65726f000000000000\n      dup2\n      mstore\n      pop\n        /* \"ex/token/Baby.sol\":1946:1949  div */\n      tag_289\n        /* \"ex/token/Baby.sol\":1946:1985  div(a, b, \"SafeMath: division by zero\") */\n      jump\t// in\n    tag_288:\n        /* \"ex/token/Baby.sol\":1939:1985  return div(a, b, \"SafeMath: division by zero\") */\n      swap1\n      pop\n        /* \"ex/token/Baby.sol\":1861:1993  function div(uint256 a, uint256 b) internal pure returns (uint256) {... */\n      swap3\n      swap2\n      pop\n      pop\n      jump\t// out\n        /* \"ex/token/Baby.sol\":1086:1265  function add(uint256 a, uint256 b) internal pure returns (uint256) {... */\n    tag_251:\n        /* \"ex/token/Baby.sol\":1144:1151  uint256 */\n      0x00\n        /* \"ex/token/Baby.sol\":1164:1173  uint256 c */\n      dup1\n        /* \"ex/token/Baby.sol\":1180:1181  b */\n      dup3\n        /* \"ex/token/Baby.sol\":1176:1177  a */\n      dup5\n        /* \"ex/token/Baby.sol\":1176:1181  a + b */\n      tag_291\n      swap2\n      swap1\n      tag_168\n      jump\t// in\n    tag_291:\n        /* \"ex/token/Baby.sol\":1164:1181  uint256 c = a + b */\n      swap1\n      pop\n        /* \"ex/token/Baby.sol\":1205:1206  a */\n      dup4\n        /* \"ex/token/Baby.sol\":1200:1201  c */\n      dup2\n        /* \"ex/token/Baby.sol\":1200:1206  c >= a */\n      lt\n      iszero\n        /* \"ex/token/Baby.sol\":1192:1238  require(c >= a, \"SafeMath: addition overflow\") */\n      tag_292\n      jumpi\n      mload(0x40)\n      0x08c379a000000000000000000000000000000000000000000000000000000000\n      dup2\n      mstore\n      0x04\n      add\n      tag_293\n      swap1\n      tag_294\n      jump\t// in\n    tag_293:\n      mload(0x40)\n      dup1\n      swap2\n      sub\n      swap1\n      revert\n    tag_292:\n        /* \"ex/token/Baby.sol\":1256:1257  c */\n      dup1\n        /* \"ex/token/Baby.sol\":1249:1257  return c */\n      swap2\n      pop\n      pop\n        /* \"ex/token/Baby.sol\":1086:1265  function add(uint256 a, uint256 b) internal pure returns (uint256) {... */\n      swap3\n      swap2\n      pop\n      pop\n      jump\t// out\n        /* \"ex/token/Baby.sol\":22875:23355  function swapTokensForUsdt(uint256 tokenAmount) private lockTheSwap{... */\n    tag_262:\n        /* \"ex/token/Baby.sol\":16691:16695  true */\n      0x01\n        /* \"ex/token/Baby.sol\":16672:16688  inSwapAndLiquify */\n      0x08\n      0x00\n        /* \"ex/token/Baby.sol\":16672:16695  inSwapAndLiquify = true */\n      0x0100\n      exp\n      dup2\n      sload\n      dup2\n      0xff\n      mul\n      not\n      and\n      swap1\n      dup4\n      iszero\n      iszero\n      mul\n      or\n      swap1\n      sstore\n      pop\n        /* \"ex/token/Baby.sol\":22953:22974  address[] memory path */\n      0x00\n        /* \"ex/token/Baby.sol\":22991:22992  2 */\n      0x02\n        /* \"ex/token/Baby.sol\":22977:22993  new address[](2) */\n      0xffffffffffffffff\n      dup2\n      gt\n      iszero\n      tag_297\n      jumpi\n      tag_298\n      tag_299\n      jump\t// in\n    tag_298:\n    tag_297:\n      mload(0x40)\n      swap1\n      dup1\n      dup3\n      mstore\n      dup1\n      0x20\n      mul\n      0x20\n      add\n      dup3\n      add\n      0x40\n      mstore\n      dup1\n      iszero\n      tag_300\n      jumpi\n      dup2\n      0x20\n      add\n      0x20\n      dup3\n      mul\n      dup1\n      calldatasize\n      dup4\n      calldatacopy\n      dup1\n      dup3\n      add\n      swap2\n      pop\n      pop\n      swap1\n      pop\n    tag_300:\n      pop\n        /* \"ex/token/Baby.sol\":22953:22993  address[] memory path = new address[](2) */\n      swap1\n      pop\n        /* \"ex/token/Baby.sol\":23022:23026  this */\n      address\n        /* \"ex/token/Baby.sol\":23004:23008  path */\n      dup2\n        /* \"ex/token/Baby.sol\":23009:23010  0 */\n      0x00\n        /* \"ex/token/Baby.sol\":23004:23011  path[0] */\n      dup2\n      mload\n      dup2\n      lt\n      tag_301\n      jumpi\n      tag_302\n      tag_303\n      jump\t// in\n    tag_302:\n    tag_301:\n      0x20\n      mul\n      0x20\n      add\n      add\n        /* \"ex/token/Baby.sol\":23004:23027  path[0] = address(this) */\n      swap1\n      0xffffffffffffffffffffffffffffffffffffffff\n      and\n      swap1\n      dup2\n      0xffffffffffffffffffffffffffffffffffffffff\n      and\n      dup2\n      mstore\n      pop\n      pop\n        /* \"ex/token/Baby.sol\":23048:23063  usdtMintAddress */\n      0x09\n      0x00\n      swap1\n      sload\n      swap1\n      0x0100\n      exp\n      swap1\n      div\n      0xffffffffffffffffffffffffffffffffffffffff\n      and\n        /* \"ex/token/Baby.sol\":23038:23042  path */\n      dup2\n        /* \"ex/token/Baby.sol\":23043:23044  1 */\n      0x01\n        /* \"ex/token/Baby.sol\":23038:23045  path[1] */\n      dup2\n      mload\n      dup2\n      lt\n      tag_304\n      jumpi\n      tag_305\n      tag_303\n      jump\t// in\n    tag_305:\n    tag_304:\n      0x20\n      mul\n      0x20\n      add\n      add\n        /* \"ex/token/Baby.sol\":23038:23063  path[1] = usdtMintAddress */\n      swap1\n      0xffffffffffffffffffffffffffffffffffffffff\n      and\n      swap1\n      dup2\n      0xffffffffffffffffffffffffffffffffffffffff\n      and\n      dup2\n      mstore\n      pop\n      pop\n        /* \"ex/token/Baby.sol\":23074:23136  _approve(address(this), address(uniswapV2Router), tokenAmount) */\n      tag_306\n        /* \"ex/token/Baby.sol\":23091:23095  this */\n      address\n        /* \"ex/token/Baby.sol\":23106:23121  uniswapV2Router */\n      immutable(\"0x0257654a82461e8a1d15ee210f9c68af767d2a4dc70df683f0ecf9e700bd8bac\")\n        /* \"ex/token/Baby.sol\":23124:23135  tokenAmount */\n      dup5\n        /* \"ex/token/Baby.sol\":23074:23082  _approve */\n      tag_151\n        /* \"ex/token/Baby.sol\":23074:23136  _approve(address(this), address(uniswapV2Router), tokenAmount) */\n      jump\t// in\n    tag_306:\n        /* \"ex/token/Baby.sol\":23147:23162  uniswapV2Router */\n      immutable(\"0x0257654a82461e8a1d15ee210f9c68af767d2a4dc70df683f0ecf9e700bd8bac\")\n        /* \"ex/token/Baby.sol\":23147:23216  uniswapV2Router.swapExactTokensForTokensSupportingFeeOnTransferTokens */\n      0xffffffffffffffffffffffffffffffffffffffff\n      and\n      0x5c11d795\n        /* \"ex/token/Baby.sol\":23231:23242  tokenAmount */\n      dup4\n        /* \"ex/token/Baby.sol\":23257:23258  0 */\n      0x00\n        /* \"ex/token/Baby.sol\":23274:23278  path */\n      dup5\n        /* \"ex/token/Baby.sol\":23301:23305  this */\n      address\n        /* \"ex/token/Baby.sol\":23321:23336  block.timestamp */\n      timestamp\n        /* \"ex/token/Baby.sol\":23147:23347  uniswapV2Router.swapExactTokensForTokensSupportingFeeOnTransferTokens(... */\n      mload(0x40)\n      dup7\n      0xffffffff\n      and\n      0xe0\n      shl\n      dup2\n      mstore\n      0x04\n      add\n      tag_307\n      swap6\n      swap5\n      swap4\n      swap3\n      swap2\n      swap1\n      tag_308\n      jump\t// in\n    tag_307:\n      0x00\n      mload(0x40)\n      dup1\n      dup4\n      sub\n      dup2\n      0x00\n      dup8\n      dup1\n      extcodesize\n      iszero\n      dup1\n      iszero\n      tag_309\n      jumpi\n      0x00\n      dup1\n      revert\n    tag_309:\n      pop\n      gas\n      call\n      iszero\n      dup1\n      iszero\n      tag_311\n      jumpi\n      returndatasize\n      0x00\n      dup1\n      returndatacopy\n      revert(0x00, returndatasize)\n    tag_311:\n      pop\n      pop\n      pop\n      pop\n        /* \"ex/token/Baby.sol\":22942:23355  {... */\n      pop\n        /* \"ex/token/Baby.sol\":16737:16742  false */\n      0x00\n        /* \"ex/token/Baby.sol\":16718:16734  inSwapAndLiquify */\n      0x08\n      0x00\n        /* \"ex/token/Baby.sol\":16718:16742  inSwapAndLiquify = false */\n      0x0100\n      exp\n      dup2\n      sload\n      dup2\n      0xff\n      mul\n      not\n      and\n      swap1\n      dup4\n      iszero\n      iszero\n      mul\n      or\n      swap1\n      sstore\n      pop\n        /* \"ex/token/Baby.sol\":22875:23355  function swapTokensForUsdt(uint256 tokenAmount) private lockTheSwap{... */\n      pop\n      jump\t// out\n        /* \"ex/token/Baby.sol\":1271:1407  function sub(uint256 a, uint256 b) internal pure returns (uint256) {... */\n    tag_264:\n        /* \"ex/token/Baby.sol\":1329:1336  uint256 */\n      0x00\n        /* \"ex/token/Baby.sol\":1356:1399  sub(a, b, \"SafeMath: subtraction overflow\") */\n      tag_313\n        /* \"ex/token/Baby.sol\":1360:1361  a */\n      dup4\n        /* \"ex/token/Baby.sol\":1363:1364  b */\n      dup4\n        /* \"ex/token/Baby.sol\":1356:1399  sub(a, b, \"SafeMath: subtraction overflow\") */\n      mload(0x40)\n      dup1\n      0x40\n      add\n      0x40\n      mstore\n      dup1\n      0x1e\n      dup2\n      mstore\n      0x20\n      add\n      0x536166654d6174683a207375627472616374696f6e206f766572666c6f770000\n      dup2\n      mstore\n      pop\n        /* \"ex/token/Baby.sol\":1356:1359  sub */\n      tag_314\n        /* \"ex/token/Baby.sol\":1356:1399  sub(a, b, \"SafeMath: subtraction overflow\") */\n      jump\t// in\n    tag_313:\n        /* \"ex/token/Baby.sol\":1349:1399  return sub(a, b, \"SafeMath: subtraction overflow\") */\n      swap1\n      pop\n        /* \"ex/token/Baby.sol\":1271:1407  function sub(uint256 a, uint256 b) internal pure returns (uint256) {... */\n      swap3\n      swap2\n      pop\n      pop\n      jump\t// out\n        /* \"ex/token/Baby.sol\":1997:2184  function div(uint256 a, uint256 b, string memory errorMessage) internal pure returns (uint256) {... */\n    tag_289:\n        /* \"ex/token/Baby.sol\":2083:2090  uint256 */\n      0x00\n        /* \"ex/token/Baby.sol\":2115:2116  0 */\n      dup1\n        /* \"ex/token/Baby.sol\":2111:2112  b */\n      dup4\n        /* \"ex/token/Baby.sol\":2111:2116  b > 0 */\n      gt\n        /* \"ex/token/Baby.sol\":2118:2130  errorMessage */\n      dup3\n        /* \"ex/token/Baby.sol\":2103:2131  require(b > 0, errorMessage) */\n      swap1\n      tag_316\n      jumpi\n      mload(0x40)\n      0x08c379a000000000000000000000000000000000000000000000000000000000\n      dup2\n      mstore\n      0x04\n      add\n      tag_317\n      swap2\n      swap1\n      tag_36\n      jump\t// in\n    tag_317:\n      mload(0x40)\n      dup1\n      swap2\n      sub\n      swap1\n      revert\n    tag_316:\n      pop\n        /* \"ex/token/Baby.sol\":2142:2151  uint256 c */\n      0x00\n        /* \"ex/token/Baby.sol\":2158:2159  b */\n      dup4\n        /* \"ex/token/Baby.sol\":2154:2155  a */\n      dup6\n        /* \"ex/token/Baby.sol\":2154:2159  a / b */\n      tag_318\n      swap2\n      swap1\n      tag_283\n      jump\t// in\n    tag_318:\n        /* \"ex/token/Baby.sol\":2142:2159  uint256 c = a / b */\n      swap1\n      pop\n        /* \"ex/token/Baby.sol\":2175:2176  c */\n      dup1\n        /* \"ex/token/Baby.sol\":2168:2176  return c */\n      swap2\n      pop\n      pop\n        /* \"ex/token/Baby.sol\":1997:2184  function div(uint256 a, uint256 b, string memory errorMessage) internal pure returns (uint256) {... */\n      swap4\n      swap3\n      pop\n      pop\n      pop\n      jump\t// out\n        /* \"ex/token/Baby.sol\":1413:1603  function sub(uint256 a, uint256 b, string memory errorMessage) internal pure returns (uint256) {... */\n    tag_314:\n        /* \"ex/token/Baby.sol\":1499:1506  uint256 */\n      0x00\n        /* \"ex/token/Baby.sol\":1532:1533  a */\n      dup4\n        /* \"ex/token/Baby.sol\":1527:1528  b */\n      dup4\n        /* \"ex/token/Baby.sol\":1527:1533  b <= a */\n      gt\n      iszero\n        /* \"ex/token/Baby.sol\":1535:1547  errorMessage */\n      dup3\n        /* \"ex/token/Baby.sol\":1519:1548  require(b <= a, errorMessage) */\n      swap1\n      tag_320\n      jumpi\n      mload(0x40)\n      0x08c379a000000000000000000000000000000000000000000000000000000000\n      dup2\n      mstore\n      0x04\n      add\n      tag_321\n      swap2\n      swap1\n      tag_36\n      jump\t// in\n    tag_321:\n      mload(0x40)\n      dup1\n      swap2\n      sub\n      swap1\n      revert\n    tag_320:\n      pop\n        /* \"ex/token/Baby.sol\":1559:1568  uint256 c */\n      0x00\n        /* \"ex/token/Baby.sol\":1575:1576  b */\n      dup4\n        /* \"ex/token/Baby.sol\":1571:1572  a */\n      dup6\n        /* \"ex/token/Baby.sol\":1571:1576  a - b */\n      tag_322\n      swap2\n      swap1\n      tag_275\n      jump\t// in\n    tag_322:\n        /* \"ex/token/Baby.sol\":1559:1576  uint256 c = a - b */\n      swap1\n      pop\n        /* \"ex/token/Baby.sol\":1594:1595  c */\n      dup1\n        /* \"ex/token/Baby.sol\":1587:1595  return c */\n      swap2\n      pop\n      pop\n        /* \"ex/token/Baby.sol\":1413:1603  function sub(uint256 a, uint256 b, string memory errorMessage) internal pure returns (uint256) {... */\n      swap4\n      swap3\n      pop\n      pop\n      pop\n      jump\t// out\n        /* \"#utility.yul\":7:106   */\n    tag_323:\n        /* \"#utility.yul\":59:65   */\n      0x00\n        /* \"#utility.yul\":93:98   */\n      dup2\n        /* \"#utility.yul\":87:99   */\n      mload\n        /* \"#utility.yul\":77:99   */\n      swap1\n      pop\n        /* \"#utility.yul\":7:106   */\n      swap2\n      swap1\n      pop\n      jump\t// out\n        /* \"#utility.yul\":112:281   */\n    tag_324:\n        /* \"#utility.yul\":196:207   */\n      0x00\n        /* \"#utility.yul\":230:236   */\n      dup3\n        /* \"#utility.yul\":225:228   */\n      dup3\n        /* \"#utility.yul\":218:237   */\n      mstore\n        /* \"#utility.yul\":270:274   */\n      0x20\n        /* \"#utility.yul\":265:268   */\n      dup3\n        /* \"#utility.yul\":261:275   */\n      add\n        /* \"#utility.yul\":246:275   */\n      swap1\n      pop\n        /* \"#utility.yul\":112:281   */\n      swap3\n      swap2\n      pop\n      pop\n      jump\t// out\n        /* \"#utility.yul\":287:533   */\n    tag_325:\n        /* \"#utility.yul\":368:369   */\n      0x00\n        /* \"#utility.yul\":378:491   */\n    tag_387:\n        /* \"#utility.yul\":392:398   */\n      dup4\n        /* \"#utility.yul\":389:390   */\n      dup2\n        /* \"#utility.yul\":386:399   */\n      lt\n        /* \"#utility.yul\":378:491   */\n      iszero\n      tag_389\n      jumpi\n        /* \"#utility.yul\":477:478   */\n      dup1\n        /* \"#utility.yul\":472:475   */\n      dup3\n        /* \"#utility.yul\":468:479   */\n      add\n        /* \"#utility.yul\":462:480   */\n      mload\n        /* \"#utility.yul\":458:459   */\n      dup2\n        /* \"#utility.yul\":453:456   */\n      dup5\n        /* \"#utility.yul\":449:460   */\n      add\n        /* \"#utility.yul\":442:481   */\n      mstore\n        /* \"#utility.yul\":414:416   */\n      0x20\n        /* \"#utility.yul\":411:412   */\n      dup2\n        /* \"#utility.yul\":407:417   */\n      add\n        /* \"#utility.yul\":402:417   */\n      swap1\n      pop\n        /* \"#utility.yul\":378:491   */\n      jump(tag_387)\n    tag_389:\n        /* \"#utility.yul\":525:526   */\n      0x00\n        /* \"#utility.yul\":516:522   */\n      dup5\n        /* \"#utility.yul\":511:514   */\n      dup5\n        /* \"#utility.yul\":507:523   */\n      add\n        /* \"#utility.yul\":500:527   */\n      mstore\n        /* \"#utility.yul\":349:533   */\n      pop\n        /* \"#utility.yul\":287:533   */\n      pop\n      pop\n      pop\n      jump\t// out\n        /* \"#utility.yul\":539:641   */\n    tag_326:\n        /* \"#utility.yul\":580:586   */\n      0x00\n        /* \"#utility.yul\":631:633   */\n      0x1f\n        /* \"#utility.yul\":627:634   */\n      not\n        /* \"#utility.yul\":622:624   */\n      0x1f\n        /* \"#utility.yul\":615:620   */\n      dup4\n        /* \"#utility.yul\":611:625   */\n      add\n        /* \"#utility.yul\":607:635   */\n      and\n        /* \"#utility.yul\":597:635   */\n      swap1\n      pop\n        /* \"#utility.yul\":539:641   */\n      swap2\n      swap1\n      pop\n      jump\t// out\n        /* \"#utility.yul\":647:1024   */\n    tag_327:\n        /* \"#utility.yul\":735:738   */\n      0x00\n        /* \"#utility.yul\":763:802   */\n      tag_392\n        /* \"#utility.yul\":796:801   */\n      dup3\n        /* \"#utility.yul\":763:802   */\n      tag_323\n      jump\t// in\n    tag_392:\n        /* \"#utility.yul\":818:889   */\n      tag_393\n        /* \"#utility.yul\":882:888   */\n      dup2\n        /* \"#utility.yul\":877:880   */\n      dup6\n        /* \"#utility.yul\":818:889   */\n      tag_324\n      jump\t// in\n    tag_393:\n        /* \"#utility.yul\":811:889   */\n      swap4\n      pop\n        /* \"#utility.yul\":898:963   */\n      tag_394\n        /* \"#utility.yul\":956:962   */\n      dup2\n        /* \"#utility.yul\":951:954   */\n      dup6\n        /* \"#utility.yul\":944:948   */\n      0x20\n        /* \"#utility.yul\":937:942   */\n      dup7\n        /* \"#utility.yul\":933:949   */\n      add\n        /* \"#utility.yul\":898:963   */\n      tag_325\n      jump\t// in\n    tag_394:\n        /* \"#utility.yul\":988:1017   */\n      tag_395\n        /* \"#utility.yul\":1010:1016   */\n      dup2\n        /* \"#utility.yul\":988:1017   */\n      tag_326\n      jump\t// in\n    tag_395:\n        /* \"#utility.yul\":983:986   */\n      dup5\n        /* \"#utility.yul\":979:1018   */\n      add\n        /* \"#utility.yul\":972:1018   */\n      swap2\n      pop\n        /* \"#utility.yul\":739:1024   */\n      pop\n        /* \"#utility.yul\":647:1024   */\n      swap3\n      swap2\n      pop\n      pop\n      jump\t// out\n        /* \"#utility.yul\":1030:1343   */\n    tag_36:\n        /* \"#utility.yul\":1143:1147   */\n      0x00\n        /* \"#utility.yul\":1181:1183   */\n      0x20\n        /* \"#utility.yul\":1170:1179   */\n      dup3\n        /* \"#utility.yul\":1166:1184   */\n      add\n        /* \"#utility.yul\":1158:1184   */\n      swap1\n      pop\n        /* \"#utility.yul\":1230:1239   */\n      dup2\n        /* \"#utility.yul\":1224:1228   */\n      dup2\n        /* \"#utility.yul\":1220:1240   */\n      sub\n        /* \"#utility.yul\":1216:1217   */\n      0x00\n        /* \"#utility.yul\":1205:1214   */\n      dup4\n        /* \"#utility.yul\":1201:1218   */\n      add\n        /* \"#utility.yul\":1194:1241   */\n      mstore\n        /* \"#utility.yul\":1258:1336   */\n      tag_397\n        /* \"#utility.yul\":1331:1335   */\n      dup2\n        /* \"#utility.yul\":1322:1328   */\n      dup5\n        /* \"#utility.yul\":1258:1336   */\n      tag_327\n      jump\t// in\n    tag_397:\n        /* \"#utility.yul\":1250:1336   */\n      swap1\n      pop\n        /* \"#utility.yul\":1030:1343   */\n      swap3\n      swap2\n      pop\n      pop\n      jump\t// out\n        /* \"#utility.yul\":1430:1547   */\n    tag_329:\n        /* \"#utility.yul\":1539:1540   */\n      0x00\n        /* \"#utility.yul\":1536:1537   */\n      dup1\n        /* \"#utility.yul\":1529:1541   */\n      revert\n        /* \"#utility.yul\":1676:1802   */\n    tag_331:\n        /* \"#utility.yul\":1713:1720   */\n      0x00\n        /* \"#utility.yul\":1753:1795   */\n      0xffffffffffffffffffffffffffffffffffffffff\n        /* \"#utility.yul\":1746:1751   */\n      dup3\n        /* \"#utility.yul\":1742:1796   */\n      and\n        /* \"#utility.yul\":1731:1796   */\n      swap1\n      pop\n        /* \"#utility.yul\":1676:1802   */\n      swap2\n      swap1\n      pop\n      jump\t// out\n        /* \"#utility.yul\":1808:1904   */\n    tag_332:\n        /* \"#utility.yul\":1845:1852   */\n      0x00\n        /* \"#utility.yul\":1874:1898   */\n      tag_403\n        /* \"#utility.yul\":1892:1897   */\n      dup3\n        /* \"#utility.yul\":1874:1898   */\n      tag_331\n      jump\t// in\n    tag_403:\n        /* \"#utility.yul\":1863:1898   */\n      swap1\n      pop\n        /* \"#utility.yul\":1808:1904   */\n      swap2\n      swap1\n      pop\n      jump\t// out\n        /* \"#utility.yul\":1910:2032   */\n    tag_333:\n        /* \"#utility.yul\":1983:2007   */\n      tag_405\n        /* \"#utility.yul\":2001:2006   */\n      dup2\n        /* \"#utility.yul\":1983:2007   */\n      tag_332\n      jump\t// in\n    tag_405:\n        /* \"#utility.yul\":1976:1981   */\n      dup2\n        /* \"#utility.yul\":1973:2008   */\n      eq\n        /* \"#utility.yul\":1963:2026   */\n      tag_406\n      jumpi\n        /* \"#utility.yul\":2022:2023   */\n      0x00\n        /* \"#utility.yul\":2019:2020   */\n      dup1\n        /* \"#utility.yul\":2012:2024   */\n      revert\n        /* \"#utility.yul\":1963:2026   */\n    tag_406:\n        /* \"#utility.yul\":1910:2032   */\n      pop\n      jump\t// out\n        /* \"#utility.yul\":2038:2177   */\n    tag_334:\n        /* \"#utility.yul\":2084:2089   */\n      0x00\n        /* \"#utility.yul\":2122:2128   */\n      dup2\n        /* \"#utility.yul\":2109:2129   */\n      calldataload\n        /* \"#utility.yul\":2100:2129   */\n      swap1\n      pop\n        /* \"#utility.yul\":2138:2171   */\n      tag_408\n        /* \"#utility.yul\":2165:2170   */\n      dup2\n        /* \"#utility.yul\":2138:2171   */\n      tag_333\n      jump\t// in\n    tag_408:\n        /* \"#utility.yul\":2038:2177   */\n      swap3\n      swap2\n      pop\n      pop\n      jump\t// out\n        /* \"#utility.yul\":2183:2260   */\n    tag_335:\n        /* \"#utility.yul\":2220:2227   */\n      0x00\n        /* \"#utility.yul\":2249:2254   */\n      dup2\n        /* \"#utility.yul\":2238:2254   */\n      swap1\n      pop\n        /* \"#utility.yul\":2183:2260   */\n      swap2\n      swap1\n      pop\n      jump\t// out\n        /* \"#utility.yul\":2266:2388   */\n    tag_336:\n        /* \"#utility.yul\":2339:2363   */\n      tag_411\n        /* \"#utility.yul\":2357:2362   */\n      dup2\n        /* \"#utility.yul\":2339:2363   */\n      tag_335\n      jump\t// in\n    tag_411:\n        /* \"#utility.yul\":2332:2337   */\n      dup2\n        /* \"#utility.yul\":2329:2364   */\n      eq\n        /* \"#utility.yul\":2319:2382   */\n      tag_412\n      jumpi\n        /* \"#utility.yul\":2378:2379   */\n      0x00\n        /* \"#utility.yul\":2375:2376   */\n      dup1\n        /* \"#utility.yul\":2368:2380   */\n      revert\n        /* \"#utility.yul\":2319:2382   */\n    tag_412:\n        /* \"#utility.yul\":2266:2388   */\n      pop\n      jump\t// out\n        /* \"#utility.yul\":2394:2533   */\n    tag_337:\n        /* \"#utility.yul\":2440:2445   */\n      0x00\n        /* \"#utility.yul\":2478:2484   */\n      dup2\n        /* \"#utility.yul\":2465:2485   */\n      calldataload\n        /* \"#utility.yul\":2456:2485   */\n      swap1\n      pop\n        /* \"#utility.yul\":2494:2527   */\n      tag_414\n        /* \"#utility.yul\":2521:2526   */\n      dup2\n        /* \"#utility.yul\":2494:2527   */\n      tag_336\n      jump\t// in\n    tag_414:\n        /* \"#utility.yul\":2394:2533   */\n      swap3\n      swap2\n      pop\n      pop\n      jump\t// out\n        /* \"#utility.yul\":2539:3013   */\n    tag_40:\n        /* \"#utility.yul\":2607:2613   */\n      0x00\n        /* \"#utility.yul\":2615:2621   */\n      dup1\n        /* \"#utility.yul\":2664:2666   */\n      0x40\n        /* \"#utility.yul\":2652:2661   */\n      dup4\n        /* \"#utility.yul\":2643:2650   */\n      dup6\n        /* \"#utility.yul\":2639:2662   */\n      sub\n        /* \"#utility.yul\":2635:2667   */\n      slt\n        /* \"#utility.yul\":2632:2751   */\n      iszero\n      tag_416\n      jumpi\n        /* \"#utility.yul\":2670:2749   */\n      tag_417\n      tag_329\n      jump\t// in\n    tag_417:\n        /* \"#utility.yul\":2632:2751   */\n    tag_416:\n        /* \"#utility.yul\":2790:2791   */\n      0x00\n        /* \"#utility.yul\":2815:2868   */\n      tag_418\n        /* \"#utility.yul\":2860:2867   */\n      dup6\n        /* \"#utility.yul\":2851:2857   */\n      dup3\n        /* \"#utility.yul\":2840:2849   */\n      dup7\n        /* \"#utility.yul\":2836:2858   */\n      add\n        /* \"#utility.yul\":2815:2868   */\n      tag_334\n      jump\t// in\n    tag_418:\n        /* \"#utility.yul\":2805:2868   */\n      swap3\n      pop\n        /* \"#utility.yul\":2761:2878   */\n      pop\n        /* \"#utility.yul\":2917:2919   */\n      0x20\n        /* \"#utility.yul\":2943:2996   */\n      tag_419\n        /* \"#utility.yul\":2988:2995   */\n      dup6\n        /* \"#utility.yul\":2979:2985   */\n      dup3\n        /* \"#utility.yul\":2968:2977   */\n      dup7\n        /* \"#utility.yul\":2964:2986   */\n      add\n        /* \"#utility.yul\":2943:2996   */\n      tag_337\n      jump\t// in\n    tag_419:\n        /* \"#utility.yul\":2933:2996   */\n      swap2\n      pop\n        /* \"#utility.yul\":2888:3006   */\n      pop\n        /* \"#utility.yul\":2539:3013   */\n      swap3\n      pop\n      swap3\n      swap1\n      pop\n      jump\t// out\n        /* \"#utility.yul\":3019:3109   */\n    tag_338:\n        /* \"#utility.yul\":3053:3060   */\n      0x00\n        /* \"#utility.yul\":3096:3101   */\n      dup2\n        /* \"#utility.yul\":3089:3102   */\n      iszero\n        /* \"#utility.yul\":3082:3103   */\n      iszero\n        /* \"#utility.yul\":3071:3103   */\n      swap1\n      pop\n        /* \"#utility.yul\":3019:3109   */\n      swap2\n      swap1\n      pop\n      jump\t// out\n        /* \"#utility.yul\":3115:3224   */\n    tag_339:\n        /* \"#utility.yul\":3196:3217   */\n      tag_422\n        /* \"#utility.yul\":3211:3216   */\n      dup2\n        /* \"#utility.yul\":3196:3217   */\n      tag_338\n      jump\t// in\n    tag_422:\n        /* \"#utility.yul\":3191:3194   */\n      dup3\n        /* \"#utility.yul\":3184:3218   */\n      mstore\n        /* \"#utility.yul\":3115:3224   */\n      pop\n      pop\n      jump\t// out\n        /* \"#utility.yul\":3230:3440   */\n    tag_43:\n        /* \"#utility.yul\":3317:3321   */\n      0x00\n        /* \"#utility.yul\":3355:3357   */\n      0x20\n        /* \"#utility.yul\":3344:3353   */\n      dup3\n        /* \"#utility.yul\":3340:3358   */\n      add\n        /* \"#utility.yul\":3332:3358   */\n      swap1\n      pop\n        /* \"#utility.yul\":3368:3433   */\n      tag_424\n        /* \"#utility.yul\":3430:3431   */\n      0x00\n        /* \"#utility.yul\":3419:3428   */\n      dup4\n        /* \"#utility.yul\":3415:3432   */\n      add\n        /* \"#utility.yul\":3406:3412   */\n      dup5\n        /* \"#utility.yul\":3368:3433   */\n      tag_339\n      jump\t// in\n    tag_424:\n        /* \"#utility.yul\":3230:3440   */\n      swap3\n      swap2\n      pop\n      pop\n      jump\t// out\n        /* \"#utility.yul\":3446:3506   */\n    tag_340:\n        /* \"#utility.yul\":3474:3477   */\n      0x00\n        /* \"#utility.yul\":3495:3500   */\n      dup2\n        /* \"#utility.yul\":3488:3500   */\n      swap1\n      pop\n        /* \"#utility.yul\":3446:3506   */\n      swap2\n      swap1\n      pop\n      jump\t// out\n        /* \"#utility.yul\":3512:3654   */\n    tag_341:\n        /* \"#utility.yul\":3562:3571   */\n      0x00\n        /* \"#utility.yul\":3595:3648   */\n      tag_427\n        /* \"#utility.yul\":3613:3647   */\n      tag_428\n        /* \"#utility.yul\":3622:3646   */\n      tag_429\n        /* \"#utility.yul\":3640:3645   */\n      dup5\n        /* \"#utility.yul\":3622:3646   */\n      tag_331\n      jump\t// in\n    tag_429:\n        /* \"#utility.yul\":3613:3647   */\n      tag_340\n      jump\t// in\n    tag_428:\n        /* \"#utility.yul\":3595:3648   */\n      tag_331\n      jump\t// in\n    tag_427:\n        /* \"#utility.yul\":3582:3648   */\n      swap1\n      pop\n        /* \"#utility.yul\":3512:3654   */\n      swap2\n      swap1\n      pop\n      jump\t// out\n        /* \"#utility.yul\":3660:3786   */\n    tag_342:\n        /* \"#utility.yul\":3710:3719   */\n      0x00\n        /* \"#utility.yul\":3743:3780   */\n      tag_431\n        /* \"#utility.yul\":3774:3779   */\n      dup3\n        /* \"#utility.yul\":3743:3780   */\n      tag_341\n      jump\t// in\n    tag_431:\n        /* \"#utility.yul\":3730:3780   */\n      swap1\n      pop\n        /* \"#utility.yul\":3660:3786   */\n      swap2\n      swap1\n      pop\n      jump\t// out\n        /* \"#utility.yul\":3792:3949   */\n    tag_343:\n        /* \"#utility.yul\":3873:3882   */\n      0x00\n        /* \"#utility.yul\":3906:3943   */\n      tag_433\n        /* \"#utility.yul\":3937:3942   */\n      dup3\n        /* \"#utility.yul\":3906:3943   */\n      tag_342\n      jump\t// in\n    tag_433:\n        /* \"#utility.yul\":3893:3943   */\n      swap1\n      pop\n        /* \"#utility.yul\":3792:3949   */\n      swap2\n      swap1\n      pop\n      jump\t// out\n        /* \"#utility.yul\":3955:4148   */\n    tag_344:\n        /* \"#utility.yul\":4073:4141   */\n      tag_435\n        /* \"#utility.yul\":4135:4140   */\n      dup2\n        /* \"#utility.yul\":4073:4141   */\n      tag_343\n      jump\t// in\n    tag_435:\n        /* \"#utility.yul\":4068:4071   */\n      dup3\n        /* \"#utility.yul\":4061:4142   */\n      mstore\n        /* \"#utility.yul\":3955:4148   */\n      pop\n      pop\n      jump\t// out\n        /* \"#utility.yul\":4154:4438   */\n    tag_48:\n        /* \"#utility.yul\":4278:4282   */\n      0x00\n        /* \"#utility.yul\":4316:4318   */\n      0x20\n        /* \"#utility.yul\":4305:4314   */\n      dup3\n        /* \"#utility.yul\":4301:4319   */\n      add\n        /* \"#utility.yul\":4293:4319   */\n      swap1\n      pop\n        /* \"#utility.yul\":4329:4431   */\n      tag_437\n        /* \"#utility.yul\":4428:4429   */\n      0x00\n        /* \"#utility.yul\":4417:4426   */\n      dup4\n        /* \"#utility.yul\":4413:4430   */\n      add\n        /* \"#utility.yul\":4404:4410   */\n      dup5\n        /* \"#utility.yul\":4329:4431   */\n      tag_344\n      jump\t// in\n    tag_437:\n        /* \"#utility.yul\":4154:4438   */\n      swap3\n      swap2\n      pop\n      pop\n      jump\t// out\n        /* \"#utility.yul\":4444:4562   */\n    tag_345:\n        /* \"#utility.yul\":4531:4555   */\n      tag_439\n        /* \"#utility.yul\":4549:4554   */\n      dup2\n        /* \"#utility.yul\":4531:4555   */\n      tag_335\n      jump\t// in\n    tag_439:\n        /* \"#utility.yul\":4526:4529   */\n      dup3\n        /* \"#utility.yul\":4519:4556   */\n      mstore\n        /* \"#utility.yul\":4444:4562   */\n      pop\n      pop\n      jump\t// out\n        /* \"#utility.yul\":4568:4790   */\n    tag_53:\n        /* \"#utility.yul\":4661:4665   */\n      0x00\n        /* \"#utility.yul\":4699:4701   */\n      0x20\n        /* \"#utility.yul\":4688:4697   */\n      dup3\n        /* \"#utility.yul\":4684:4702   */\n      add\n        /* \"#utility.yul\":4676:4702   */\n      swap1\n      pop\n        /* \"#utility.yul\":4712:4783   */\n      tag_441\n        /* \"#utility.yul\":4780:4781   */\n      0x00\n        /* \"#utility.yul\":4769:4778   */\n      dup4\n        /* \"#utility.yul\":4765:4782   */\n      add\n        /* \"#utility.yul\":4756:4762   */\n      dup5\n        /* \"#utility.yul\":4712:4783   */\n      tag_345\n      jump\t// in\n    tag_441:\n        /* \"#utility.yul\":4568:4790   */\n      swap3\n      swap2\n      pop\n      pop\n      jump\t// out\n        /* \"#utility.yul\":4796:5415   */\n    tag_57:\n        /* \"#utility.yul\":4873:4879   */\n      0x00\n        /* \"#utility.yul\":4881:4887   */\n      dup1\n        /* \"#utility.yul\":4889:4895   */\n      0x00\n        /* \"#utility.yul\":4938:4940   */\n      0x60\n        /* \"#utility.yul\":4926:4935   */\n      dup5\n        /* \"#utility.yul\":4917:4924   */\n      dup7\n        /* \"#utility.yul\":4913:4936   */\n      sub\n        /* \"#utility.yul\":4909:4941   */\n      slt\n        /* \"#utility.yul\":4906:5025   */\n      iszero\n      tag_443\n      jumpi\n        /* \"#utility.yul\":4944:5023   */\n      tag_444\n      tag_329\n      jump\t// in\n    tag_444:\n        /* \"#utility.yul\":4906:5025   */\n    tag_443:\n        /* \"#utility.yul\":5064:5065   */\n      0x00\n        /* \"#utility.yul\":5089:5142   */\n      tag_445\n        /* \"#utility.yul\":5134:5141   */\n      dup7\n        /* \"#utility.yul\":5125:5131   */\n      dup3\n        /* \"#utility.yul\":5114:5123   */\n      dup8\n        /* \"#utility.yul\":5110:5132   */\n      add\n        /* \"#utility.yul\":5089:5142   */\n      tag_334\n      jump\t// in\n    tag_445:\n        /* \"#utility.yul\":5079:5142   */\n      swap4\n      pop\n        /* \"#utility.yul\":5035:5152   */\n      pop\n        /* \"#utility.yul\":5191:5193   */\n      0x20\n        /* \"#utility.yul\":5217:5270   */\n      tag_446\n        /* \"#utility.yul\":5262:5269   */\n      dup7\n        /* \"#utility.yul\":5253:5259   */\n      dup3\n        /* \"#utility.yul\":5242:5251   */\n      dup8\n        /* \"#utility.yul\":5238:5260   */\n      add\n        /* \"#utility.yul\":5217:5270   */\n      tag_334\n      jump\t// in\n    tag_446:\n        /* \"#utility.yul\":5207:5270   */\n      swap3\n      pop\n        /* \"#utility.yul\":5162:5280   */\n      pop\n        /* \"#utility.yul\":5319:5321   */\n      0x40\n        /* \"#utility.yul\":5345:5398   */\n      tag_447\n        /* \"#utility.yul\":5390:5397   */\n      dup7\n        /* \"#utility.yul\":5381:5387   */\n      dup3\n        /* \"#utility.yul\":5370:5379   */\n      dup8\n        /* \"#utility.yul\":5366:5388   */\n      add\n        /* \"#utility.yul\":5345:5398   */\n      tag_337\n      jump\t// in\n    tag_447:\n        /* \"#utility.yul\":5335:5398   */\n      swap2\n      pop\n        /* \"#utility.yul\":5290:5408   */\n      pop\n        /* \"#utility.yul\":4796:5415   */\n      swap3\n      pop\n      swap3\n      pop\n      swap3\n      jump\t// out\n        /* \"#utility.yul\":5421:5539   */\n    tag_346:\n        /* \"#utility.yul\":5508:5532   */\n      tag_449\n        /* \"#utility.yul\":5526:5531   */\n      dup2\n        /* \"#utility.yul\":5508:5532   */\n      tag_332\n      jump\t// in\n    tag_449:\n        /* \"#utility.yul\":5503:5506   */\n      dup3\n        /* \"#utility.yul\":5496:5533   */\n      mstore\n        /* \"#utility.yul\":5421:5539   */\n      pop\n      pop\n      jump\t// out\n        /* \"#utility.yul\":5545:5767   */\n    tag_64:\n        /* \"#utility.yul\":5638:5642   */\n      0x00\n        /* \"#utility.yul\":5676:5678   */\n      0x20\n        /* \"#utility.yul\":5665:5674   */\n      dup3\n        /* \"#utility.yul\":5661:5679   */\n      add\n        /* \"#utility.yul\":5653:5679   */\n      swap1\n      pop\n        /* \"#utility.yul\":5689:5760   */\n      tag_451\n        /* \"#utility.yul\":5757:5758   */\n      0x00\n        /* \"#utility.yul\":5746:5755   */\n      dup4\n        /* \"#utility.yul\":5742:5759   */\n      add\n        /* \"#utility.yul\":5733:5739   */\n      dup5\n        /* \"#utility.yul\":5689:5760   */\n      tag_346\n      jump\t// in\n    tag_451:\n        /* \"#utility.yul\":5545:5767   */\n      swap3\n      swap2\n      pop\n      pop\n      jump\t// out\n        /* \"#utility.yul\":5773:5859   */\n    tag_347:\n        /* \"#utility.yul\":5808:5815   */\n      0x00\n        /* \"#utility.yul\":5848:5852   */\n      0xff\n        /* \"#utility.yul\":5841:5846   */\n      dup3\n        /* \"#utility.yul\":5837:5853   */\n      and\n        /* \"#utility.yul\":5826:5853   */\n      swap1\n      pop\n        /* \"#utility.yul\":5773:5859   */\n      swap2\n      swap1\n      pop\n      jump\t// out\n        /* \"#utility.yul\":5865:5977   */\n    tag_348:\n        /* \"#utility.yul\":5948:5970   */\n      tag_454\n        /* \"#utility.yul\":5964:5969   */\n      dup2\n        /* \"#utility.yul\":5948:5970   */\n      tag_347\n      jump\t// in\n    tag_454:\n        /* \"#utility.yul\":5943:5946   */\n      dup3\n        /* \"#utility.yul\":5936:5971   */\n      mstore\n        /* \"#utility.yul\":5865:5977   */\n      pop\n      pop\n      jump\t// out\n        /* \"#utility.yul\":5983:6197   */\n    tag_69:\n        /* \"#utility.yul\":6072:6076   */\n      0x00\n        /* \"#utility.yul\":6110:6112   */\n      0x20\n        /* \"#utility.yul\":6099:6108   */\n      dup3\n        /* \"#utility.yul\":6095:6113   */\n      add\n        /* \"#utility.yul\":6087:6113   */\n      swap1\n      pop\n        /* \"#utility.yul\":6123:6190   */\n      tag_456\n        /* \"#utility.yul\":6187:6188   */\n      0x00\n        /* \"#utility.yul\":6176:6185   */\n      dup4\n        /* \"#utility.yul\":6172:6189   */\n      add\n        /* \"#utility.yul\":6163:6169   */\n      dup5\n        /* \"#utility.yul\":6123:6190   */\n      tag_348\n      jump\t// in\n    tag_456:\n        /* \"#utility.yul\":5983:6197   */\n      swap3\n      swap2\n      pop\n      pop\n      jump\t// out\n        /* \"#utility.yul\":6203:6532   */\n    tag_78:\n        /* \"#utility.yul\":6262:6268   */\n      0x00\n        /* \"#utility.yul\":6311:6313   */\n      0x20\n        /* \"#utility.yul\":6299:6308   */\n      dup3\n        /* \"#utility.yul\":6290:6297   */\n      dup5\n        /* \"#utility.yul\":6286:6309   */\n      sub\n        /* \"#utility.yul\":6282:6314   */\n      slt\n        /* \"#utility.yul\":6279:6398   */\n      iszero\n      tag_458\n      jumpi\n        /* \"#utility.yul\":6317:6396   */\n      tag_459\n      tag_329\n      jump\t// in\n    tag_459:\n        /* \"#utility.yul\":6279:6398   */\n    tag_458:\n        /* \"#utility.yul\":6437:6438   */\n      0x00\n        /* \"#utility.yul\":6462:6515   */\n      tag_460\n        /* \"#utility.yul\":6507:6514   */\n      dup5\n        /* \"#utility.yul\":6498:6504   */\n      dup3\n        /* \"#utility.yul\":6487:6496   */\n      dup6\n        /* \"#utility.yul\":6483:6505   */\n      add\n        /* \"#utility.yul\":6462:6515   */\n      tag_337\n      jump\t// in\n    tag_460:\n        /* \"#utility.yul\":6452:6515   */\n      swap2\n      pop\n        /* \"#utility.yul\":6408:6525   */\n      pop\n        /* \"#utility.yul\":6203:6532   */\n      swap3\n      swap2\n      pop\n      pop\n      jump\t// out\n        /* \"#utility.yul\":6538:6867   */\n    tag_87:\n        /* \"#utility.yul\":6597:6603   */\n      0x00\n        /* \"#utility.yul\":6646:6648   */\n      0x20\n        /* \"#utility.yul\":6634:6643   */\n      dup3\n        /* \"#utility.yul\":6625:6632   */\n      dup5\n        /* \"#utility.yul\":6621:6644   */\n      sub\n        /* \"#utility.yul\":6617:6649   */\n      slt\n        /* \"#utility.yul\":6614:6733   */\n      iszero\n      tag_462\n      jumpi\n        /* \"#utility.yul\":6652:6731   */\n      tag_463\n      tag_329\n      jump\t// in\n    tag_463:\n        /* \"#utility.yul\":6614:6733   */\n    tag_462:\n        /* \"#utility.yul\":6772:6773   */\n      0x00\n        /* \"#utility.yul\":6797:6850   */\n      tag_464\n        /* \"#utility.yul\":6842:6849   */\n      dup5\n        /* \"#utility.yul\":6833:6839   */\n      dup3\n        /* \"#utility.yul\":6822:6831   */\n      dup6\n        /* \"#utility.yul\":6818:6840   */\n      add\n        /* \"#utility.yul\":6797:6850   */\n      tag_334\n      jump\t// in\n    tag_464:\n        /* \"#utility.yul\":6787:6850   */\n      swap2\n      pop\n        /* \"#utility.yul\":6743:6860   */\n      pop\n        /* \"#utility.yul\":6538:6867   */\n      swap3\n      swap2\n      pop\n      pop\n      jump\t// out\n        /* \"#utility.yul\":6873:7347   */\n    tag_130:\n        /* \"#utility.yul\":6941:6947   */\n      0x00\n        /* \"#utility.yul\":6949:6955   */\n      dup1\n        /* \"#utility.yul\":6998:7000   */\n      0x40\n        /* \"#utility.yul\":6986:6995   */\n      dup4\n        /* \"#utility.yul\":6977:6984   */\n      dup6\n        /* \"#utility.yul\":6973:6996   */\n      sub\n        /* \"#utility.yul\":6969:7001   */\n      slt\n        /* \"#utility.yul\":6966:7085   */\n      iszero\n      tag_466\n      jumpi\n        /* \"#utility.yul\":7004:7083   */\n      tag_467\n      tag_329\n      jump\t// in\n    tag_467:\n        /* \"#utility.yul\":6966:7085   */\n    tag_466:\n        /* \"#utility.yul\":7124:7125   */\n      0x00\n        /* \"#utility.yul\":7149:7202   */\n      tag_468\n        /* \"#utility.yul\":7194:7201   */\n      dup6\n        /* \"#utility.yul\":7185:7191   */\n      dup3\n        /* \"#utility.yul\":7174:7183   */\n      dup7\n        /* \"#utility.yul\":7170:7192   */\n      add\n        /* \"#utility.yul\":7149:7202   */\n      tag_334\n      jump\t// in\n    tag_468:\n        /* \"#utility.yul\":7139:7202   */\n      swap3\n      pop\n        /* \"#utility.yul\":7095:7212   */\n      pop\n        /* \"#utility.yul\":7251:7253   */\n      0x20\n        /* \"#utility.yul\":7277:7330   */\n      tag_469\n        /* \"#utility.yul\":7322:7329   */\n      dup6\n        /* \"#utility.yul\":7313:7319   */\n      dup3\n        /* \"#utility.yul\":7302:7311   */\n      dup7\n        /* \"#utility.yul\":7298:7320   */\n      add\n        /* \"#utility.yul\":7277:7330   */\n      tag_334\n      jump\t// in\n    tag_469:\n        /* \"#utility.yul\":7267:7330   */\n      swap2\n      pop\n        /* \"#utility.yul\":7222:7340   */\n      pop\n        /* \"#utility.yul\":6873:7347   */\n      swap3\n      pop\n      swap3\n      swap1\n      pop\n      jump\t// out\n        /* \"#utility.yul\":7353:7578   */\n    tag_349:\n        /* \"#utility.yul\":7493:7527   */\n      0x4245453a207472616e7366657220616d6f756e74206578636565647320616c6c\n        /* \"#utility.yul\":7489:7490   */\n      0x00\n        /* \"#utility.yul\":7481:7487   */\n      dup3\n        /* \"#utility.yul\":7477:7491   */\n      add\n        /* \"#utility.yul\":7470:7528   */\n      mstore\n        /* \"#utility.yul\":7562:7570   */\n      0x6f77616e63650000000000000000000000000000000000000000000000000000\n        /* \"#utility.yul\":7557:7559   */\n      0x20\n        /* \"#utility.yul\":7549:7555   */\n      dup3\n        /* \"#utility.yul\":7545:7560   */\n      add\n        /* \"#utility.yul\":7538:7571   */\n      mstore\n        /* \"#utility.yul\":7353:7578   */\n      pop\n      jump\t// out\n        /* \"#utility.yul\":7584:7950   */\n    tag_350:\n        /* \"#utility.yul\":7726:7729   */\n      0x00\n        /* \"#utility.yul\":7747:7814   */\n      tag_472\n        /* \"#utility.yul\":7811:7813   */\n      0x26\n        /* \"#utility.yul\":7806:7809   */\n      dup4\n        /* \"#utility.yul\":7747:7814   */\n      tag_324\n      jump\t// in\n    tag_472:\n        /* \"#utility.yul\":7740:7814   */\n      swap2\n      pop\n        /* \"#utility.yul\":7823:7916   */\n      tag_473\n        /* \"#utility.yul\":7912:7915   */\n      dup3\n        /* \"#utility.yul\":7823:7916   */\n      tag_349\n      jump\t// in\n    tag_473:\n        /* \"#utility.yul\":7941:7943   */\n      0x40\n        /* \"#utility.yul\":7936:7939   */\n      dup3\n        /* \"#utility.yul\":7932:7944   */\n      add\n        /* \"#utility.yul\":7925:7944   */\n      swap1\n      pop\n        /* \"#utility.yul\":7584:7950   */\n      swap2\n      swap1\n      pop\n      jump\t// out\n        /* \"#utility.yul\":7956:8375   */\n    tag_159:\n        /* \"#utility.yul\":8122:8126   */\n      0x00\n        /* \"#utility.yul\":8160:8162   */\n      0x20\n        /* \"#utility.yul\":8149:8158   */\n      dup3\n        /* \"#utility.yul\":8145:8163   */\n      add\n        /* \"#utility.yul\":8137:8163   */\n      swap1\n      pop\n        /* \"#utility.yul\":8209:8218   */\n      dup2\n        /* \"#utility.yul\":8203:8207   */\n      dup2\n        /* \"#utility.yul\":8199:8219   */\n      sub\n        /* \"#utility.yul\":8195:8196   */\n      0x00\n        /* \"#utility.yul\":8184:8193   */\n      dup4\n        /* \"#utility.yul\":8180:8197   */\n      add\n        /* \"#utility.yul\":8173:8220   */\n      mstore\n        /* \"#utility.yul\":8237:8368   */\n      tag_475\n        /* \"#utility.yul\":8363:8367   */\n      dup2\n        /* \"#utility.yul\":8237:8368   */\n      tag_350\n      jump\t// in\n    tag_475:\n        /* \"#utility.yul\":8229:8368   */\n      swap1\n      pop\n        /* \"#utility.yul\":7956:8375   */\n      swap2\n      swap1\n      pop\n      jump\t// out\n        /* \"#utility.yul\":8381:8561   */\n    tag_351:\n        /* \"#utility.yul\":8429:8506   */\n      0x4e487b7100000000000000000000000000000000000000000000000000000000\n        /* \"#utility.yul\":8426:8427   */\n      0x00\n        /* \"#utility.yul\":8419:8507   */\n      mstore\n        /* \"#utility.yul\":8526:8530   */\n      0x11\n        /* \"#utility.yul\":8523:8524   */\n      0x04\n        /* \"#utility.yul\":8516:8531   */\n      mstore\n        /* \"#utility.yul\":8550:8554   */\n      0x24\n        /* \"#utility.yul\":8547:8548   */\n      0x00\n        /* \"#utility.yul\":8540:8555   */\n      revert\n        /* \"#utility.yul\":8567:8758   */\n    tag_168:\n        /* \"#utility.yul\":8607:8610   */\n      0x00\n        /* \"#utility.yul\":8626:8646   */\n      tag_478\n        /* \"#utility.yul\":8644:8645   */\n      dup3\n        /* \"#utility.yul\":8626:8646   */\n      tag_335\n      jump\t// in\n    tag_478:\n        /* \"#utility.yul\":8621:8646   */\n      swap2\n      pop\n        /* \"#utility.yul\":8660:8680   */\n      tag_479\n        /* \"#utility.yul\":8678:8679   */\n      dup4\n        /* \"#utility.yul\":8660:8680   */\n      tag_335\n      jump\t// in\n    tag_479:\n        /* \"#utility.yul\":8655:8680   */\n      swap3\n      pop\n        /* \"#utility.yul\":8703:8704   */\n      dup3\n        /* \"#utility.yul\":8700:8701   */\n      dup3\n        /* \"#utility.yul\":8696:8705   */\n      add\n        /* \"#utility.yul\":8689:8705   */\n      swap1\n      pop\n        /* \"#utility.yul\":8724:8727   */\n      dup1\n        /* \"#utility.yul\":8721:8722   */\n      dup3\n        /* \"#utility.yul\":8718:8728   */\n      gt\n        /* \"#utility.yul\":8715:8751   */\n      iszero\n      tag_480\n      jumpi\n        /* \"#utility.yul\":8731:8749   */\n      tag_481\n      tag_351\n      jump\t// in\n    tag_481:\n        /* \"#utility.yul\":8715:8751   */\n    tag_480:\n        /* \"#utility.yul\":8567:8758   */\n      swap3\n      swap2\n      pop\n      pop\n      jump\t// out\n        /* \"#utility.yul\":8764:8946   */\n    tag_352:\n        /* \"#utility.yul\":8904:8938   */\n      0x4f776e61626c653a2063616c6c6572206973206e6f7420746865206f776e6572\n        /* \"#utility.yul\":8900:8901   */\n      0x00\n        /* \"#utility.yul\":8892:8898   */\n      dup3\n        /* \"#utility.yul\":8888:8902   */\n      add\n        /* \"#utility.yul\":8881:8939   */\n      mstore\n        /* \"#utility.yul\":8764:8946   */\n      pop\n      jump\t// out\n        /* \"#utility.yul\":8952:9318   */\n    tag_353:\n        /* \"#utility.yul\":9094:9097   */\n      0x00\n        /* \"#utility.yul\":9115:9182   */\n      tag_484\n        /* \"#utility.yul\":9179:9181   */\n      0x20\n        /* \"#utility.yul\":9174:9177   */\n      dup4\n        /* \"#utility.yul\":9115:9182   */\n      tag_324\n      jump\t// in\n    tag_484:\n        /* \"#utility.yul\":9108:9182   */\n      swap2\n      pop\n        /* \"#utility.yul\":9191:9284   */\n      tag_485\n        /* \"#utility.yul\":9280:9283   */\n      dup3\n        /* \"#utility.yul\":9191:9284   */\n      tag_352\n      jump\t// in\n    tag_485:\n        /* \"#utility.yul\":9309:9311   */\n      0x20\n        /* \"#utility.yul\":9304:9307   */\n      dup3\n        /* \"#utility.yul\":9300:9312   */\n      add\n        /* \"#utility.yul\":9293:9312   */\n      swap1\n      pop\n        /* \"#utility.yul\":8952:9318   */\n      swap2\n      swap1\n      pop\n      jump\t// out\n        /* \"#utility.yul\":9324:9743   */\n    tag_178:\n        /* \"#utility.yul\":9490:9494   */\n      0x00\n        /* \"#utility.yul\":9528:9530   */\n      0x20\n        /* \"#utility.yul\":9517:9526   */\n      dup3\n        /* \"#utility.yul\":9513:9531   */\n      add\n        /* \"#utility.yul\":9505:9531   */\n      swap1\n      pop\n        /* \"#utility.yul\":9577:9586   */\n      dup2\n        /* \"#utility.yul\":9571:9575   */\n      dup2\n        /* \"#utility.yul\":9567:9587   */\n      sub\n        /* \"#utility.yul\":9563:9564   */\n      0x00\n        /* \"#utility.yul\":9552:9561   */\n      dup4\n        /* \"#utility.yul\":9548:9565   */\n      add\n        /* \"#utility.yul\":9541:9588   */\n      mstore\n        /* \"#utility.yul\":9605:9736   */\n      tag_487\n        /* \"#utility.yul\":9731:9735   */\n      dup2\n        /* \"#utility.yul\":9605:9736   */\n      tag_353\n      jump\t// in\n    tag_487:\n        /* \"#utility.yul\":9597:9736   */\n      swap1\n      pop\n        /* \"#utility.yul\":9324:9743   */\n      swap2\n      swap1\n      pop\n      jump\t// out\n        /* \"#utility.yul\":9749:9971   */\n    tag_354:\n        /* \"#utility.yul\":9889:9923   */\n      0x4245453a2064656372656173656420616c6c6f77616e63652062656c6f77207a\n        /* \"#utility.yul\":9885:9886   */\n      0x00\n        /* \"#utility.yul\":9877:9883   */\n      dup3\n        /* \"#utility.yul\":9873:9887   */\n      add\n        /* \"#utility.yul\":9866:9924   */\n      mstore\n        /* \"#utility.yul\":9958:9963   */\n      0x65726f0000000000000000000000000000000000000000000000000000000000\n        /* \"#utility.yul\":9953:9955   */\n      0x20\n        /* \"#utility.yul\":9945:9951   */\n      dup3\n        /* \"#utility.yul\":9941:9956   */\n      add\n        /* \"#utility.yul\":9934:9964   */\n      mstore\n        /* \"#utility.yul\":9749:9971   */\n      pop\n      jump\t// out\n        /* \"#utility.yul\":9977:10343   */\n    tag_355:\n        /* \"#utility.yul\":10119:10122   */\n      0x00\n        /* \"#utility.yul\":10140:10207   */\n      tag_490\n        /* \"#utility.yul\":10204:10206   */\n      0x23\n        /* \"#utility.yul\":10199:10202   */\n      dup4\n        /* \"#utility.yul\":10140:10207   */\n      tag_324\n      jump\t// in\n    tag_490:\n        /* \"#utility.yul\":10133:10207   */\n      swap2\n      pop\n        /* \"#utility.yul\":10216:10309   */\n      tag_491\n        /* \"#utility.yul\":10305:10308   */\n      dup3\n        /* \"#utility.yul\":10216:10309   */\n      tag_354\n      jump\t// in\n    tag_491:\n        /* \"#utility.yul\":10334:10336   */\n      0x40\n        /* \"#utility.yul\":10329:10332   */\n      dup3\n        /* \"#utility.yul\":10325:10337   */\n      add\n        /* \"#utility.yul\":10318:10337   */\n      swap1\n      pop\n        /* \"#utility.yul\":9977:10343   */\n      swap2\n      swap1\n      pop\n      jump\t// out\n        /* \"#utility.yul\":10349:10768   */\n    tag_197:\n        /* \"#utility.yul\":10515:10519   */\n      0x00\n        /* \"#utility.yul\":10553:10555   */\n      0x20\n        /* \"#utility.yul\":10542:10551   */\n      dup3\n        /* \"#utility.yul\":10538:10556   */\n      add\n        /* \"#utility.yul\":10530:10556   */\n      swap1\n      pop\n        /* \"#utility.yul\":10602:10611   */\n      dup2\n        /* \"#utility.yul\":10596:10600   */\n      dup2\n        /* \"#utility.yul\":10592:10612   */\n      sub\n        /* \"#utility.yul\":10588:10589   */\n      0x00\n        /* \"#utility.yul\":10577:10586   */\n      dup4\n        /* \"#utility.yul\":10573:10590   */\n      add\n        /* \"#utility.yul\":10566:10613   */\n      mstore\n        /* \"#utility.yul\":10630:10761   */\n      tag_493\n        /* \"#utility.yul\":10756:10760   */\n      dup2\n        /* \"#utility.yul\":10630:10761   */\n      tag_355\n      jump\t// in\n    tag_493:\n        /* \"#utility.yul\":10622:10761   */\n      swap1\n      pop\n        /* \"#utility.yul\":10349:10768   */\n      swap2\n      swap1\n      pop\n      jump\t// out\n        /* \"#utility.yul\":10774:10999   */\n    tag_356:\n        /* \"#utility.yul\":10914:10948   */\n      0x4f776e61626c653a206e6577206f776e657220697320746865207a65726f2061\n        /* \"#utility.yul\":10910:10911   */\n      0x00\n        /* \"#utility.yul\":10902:10908   */\n      dup3\n        /* \"#utility.yul\":10898:10912   */\n      add\n        /* \"#utility.yul\":10891:10949   */\n      mstore\n        /* \"#utility.yul\":10983:10991   */\n      0x6464726573730000000000000000000000000000000000000000000000000000\n        /* \"#utility.yul\":10978:10980   */\n      0x20\n        /* \"#utility.yul\":10970:10976   */\n      dup3\n        /* \"#utility.yul\":10966:10981   */\n      add\n        /* \"#utility.yul\":10959:10992   */\n      mstore\n        /* \"#utility.yul\":10774:10999   */\n      pop\n      jump\t// out\n        /* \"#utility.yul\":11005:11371   */\n    tag_357:\n        /* \"#utility.yul\":11147:11150   */\n      0x00\n        /* \"#utility.yul\":11168:11235   */\n      tag_496\n        /* \"#utility.yul\":11232:11234   */\n      0x26\n        /* \"#utility.yul\":11227:11230   */\n      dup4\n        /* \"#utility.yul\":11168:11235   */\n      tag_324\n      jump\t// in\n    tag_496:\n        /* \"#utility.yul\":11161:11235   */\n      swap2\n      pop\n        /* \"#utility.yul\":11244:11337   */\n      tag_497\n        /* \"#utility.yul\":11333:11336   */\n      dup3\n        /* \"#utility.yul\":11244:11337   */\n      tag_356\n      jump\t// in\n    tag_497:\n        /* \"#utility.yul\":11362:11364   */\n      0x40\n        /* \"#utility.yul\":11357:11360   */\n      dup3\n        /* \"#utility.yul\":11353:11365   */\n      add\n        /* \"#utility.yul\":11346:11365   */\n      swap1\n      pop\n        /* \"#utility.yul\":11005:11371   */\n      swap2\n      swap1\n      pop\n      jump\t// out\n        /* \"#utility.yul\":11377:11796   */\n    tag_220:\n        /* \"#utility.yul\":11543:11547   */\n      0x00\n        /* \"#utility.yul\":11581:11583   */\n      0x20\n        /* \"#utility.yul\":11570:11579   */\n      dup3\n        /* \"#utility.yul\":11566:11584   */\n      add\n        /* \"#utility.yul\":11558:11584   */\n      swap1\n      pop\n        /* \"#utility.yul\":11630:11639   */\n      dup2\n        /* \"#utility.yul\":11624:11628   */\n      dup2\n        /* \"#utility.yul\":11620:11640   */\n      sub\n        /* \"#utility.yul\":11616:11617   */\n      0x00\n        /* \"#utility.yul\":11605:11614   */\n      dup4\n        /* \"#utility.yul\":11601:11618   */\n      add\n        /* \"#utility.yul\":11594:11641   */\n      mstore\n        /* \"#utility.yul\":11658:11789   */\n      tag_499\n        /* \"#utility.yul\":11784:11788   */\n      dup2\n        /* \"#utility.yul\":11658:11789   */\n      tag_357\n      jump\t// in\n    tag_499:\n        /* \"#utility.yul\":11650:11789   */\n      swap1\n      pop\n        /* \"#utility.yul\":11377:11796   */\n      swap2\n      swap1\n      pop\n      jump\t// out\n        /* \"#utility.yul\":11802:12024   */\n    tag_358:\n        /* \"#utility.yul\":11942:11976   */\n      0x4245453a207472616e736665722066726f6d20746865207a65726f2061646472\n        /* \"#utility.yul\":11938:11939   */\n      0x00\n        /* \"#utility.yul\":11930:11936   */\n      dup3\n        /* \"#utility.yul\":11926:11940   */\n      add\n        /* \"#utility.yul\":11919:11977   */\n      mstore\n        /* \"#utility.yul\":12011:12016   */\n      0x6573730000000000000000000000000000000000000000000000000000000000\n        /* \"#utility.yul\":12006:12008   */\n      0x20\n        /* \"#utility.yul\":11998:12004   */\n      dup3\n        /* \"#utility.yul\":11994:12009   */\n      add\n        /* \"#utility.yul\":11987:12017   */\n      mstore\n        /* \"#utility.yul\":11802:12024   */\n      pop\n      jump\t// out\n        /* \"#utility.yul\":12030:12396   */\n    tag_359:\n        /* \"#utility.yul\":12172:12175   */\n      0x00\n        /* \"#utility.yul\":12193:12260   */\n      tag_502\n        /* \"#utility.yul\":12257:12259   */\n      0x23\n        /* \"#utility.yul\":12252:12255   */\n      dup4\n        /* \"#utility.yul\":12193:12260   */\n      tag_324\n      jump\t// in\n    tag_502:\n        /* \"#utility.yul\":12186:12260   */\n      swap2\n      pop\n        /* \"#utility.yul\":12269:12362   */\n      tag_503\n        /* \"#utility.yul\":12358:12361   */\n      dup3\n        /* \"#utility.yul\":12269:12362   */\n      tag_358\n      jump\t// in\n    tag_503:\n        /* \"#utility.yul\":12387:12389   */\n      0x40\n        /* \"#utility.yul\":12382:12385   */\n      dup3\n        /* \"#utility.yul\":12378:12390   */\n      add\n        /* \"#utility.yul\":12371:12390   */\n      swap1\n      pop\n        /* \"#utility.yul\":12030:12396   */\n      swap2\n      swap1\n      pop\n      jump\t// out\n        /* \"#utility.yul\":12402:12821   */\n    tag_234:\n        /* \"#utility.yul\":12568:12572   */\n      0x00\n        /* \"#utility.yul\":12606:12608   */\n      0x20\n        /* \"#utility.yul\":12595:12604   */\n      dup3\n        /* \"#utility.yul\":12591:12609   */\n      add\n        /* \"#utility.yul\":12583:12609   */\n      swap1\n      pop\n        /* \"#utility.yul\":12655:12664   */\n      dup2\n        /* \"#utility.yul\":12649:12653   */\n      dup2\n        /* \"#utility.yul\":12645:12665   */\n      sub\n        /* \"#utility.yul\":12641:12642   */\n      0x00\n        /* \"#utility.yul\":12630:12639   */\n      dup4\n        /* \"#utility.yul\":12626:12643   */\n      add\n        /* \"#utility.yul\":12619:12666   */\n      mstore\n        /* \"#utility.yul\":12683:12814   */\n      tag_505\n        /* \"#utility.yul\":12809:12813   */\n      dup2\n        /* \"#utility.yul\":12683:12814   */\n      tag_359\n      jump\t// in\n    tag_505:\n        /* \"#utility.yul\":12675:12814   */\n      swap1\n      pop\n        /* \"#utility.yul\":12402:12821   */\n      swap2\n      swap1\n      pop\n      jump\t// out\n        /* \"#utility.yul\":12827:13047   */\n    tag_360:\n        /* \"#utility.yul\":12967:13001   */\n      0x4245453a207472616e7366657220746f20746865207a65726f20616464726573\n        /* \"#utility.yul\":12963:12964   */\n      0x00\n        /* \"#utility.yul\":12955:12961   */\n      dup3\n        /* \"#utility.yul\":12951:12965   */\n      add\n        /* \"#utility.yul\":12944:13002   */\n      mstore\n        /* \"#utility.yul\":13036:13039   */\n      0x7300000000000000000000000000000000000000000000000000000000000000\n        /* \"#utility.yul\":13031:13033   */\n      0x20\n        /* \"#utility.yul\":13023:13029   */\n      dup3\n        /* \"#utility.yul\":13019:13034   */\n      add\n        /* \"#utility.yul\":13012:13040   */\n      mstore\n        /* \"#utility.yul\":12827:13047   */\n      pop\n      jump\t// out\n        /* \"#utility.yul\":13053:13419   */\n    tag_361:\n        /* \"#utility.yul\":13195:13198   */\n      0x00\n        /* \"#utility.yul\":13216:13283   */\n      tag_508\n        /* \"#utility.yul\":13280:13282   */\n      0x21\n        /* \"#utility.yul\":13275:13278   */\n      dup4\n        /* \"#utility.yul\":13216:13283   */\n      tag_324\n      jump\t// in\n    tag_508:\n        /* \"#utility.yul\":13209:13283   */\n      swap2\n      pop\n        /* \"#utility.yul\":13292:13385   */\n      tag_509\n        /* \"#utility.yul\":13381:13384   */\n      dup3\n        /* \"#utility.yul\":13292:13385   */\n      tag_360\n      jump\t// in\n    tag_509:\n        /* \"#utility.yul\":13410:13412   */\n      0x40\n        /* \"#utility.yul\":13405:13408   */\n      dup3\n        /* \"#utility.yul\":13401:13413   */\n      add\n        /* \"#utility.yul\":13394:13413   */\n      swap1\n      pop\n        /* \"#utility.yul\":13053:13419   */\n      swap2\n      swap1\n      pop\n      jump\t// out\n        /* \"#utility.yul\":13425:13844   */\n    tag_237:\n        /* \"#utility.yul\":13591:13595   */\n      0x00\n        /* \"#utility.yul\":13629:13631   */\n      0x20\n        /* \"#utility.yul\":13618:13627   */\n      dup3\n        /* \"#utility.yul\":13614:13632   */\n      add\n        /* \"#utility.yul\":13606:13632   */\n      swap1\n      pop\n        /* \"#utility.yul\":13678:13687   */\n      dup2\n        /* \"#utility.yul\":13672:13676   */\n      dup2\n        /* \"#utility.yul\":13668:13688   */\n      sub\n        /* \"#utility.yul\":13664:13665   */\n      0x00\n        /* \"#utility.yul\":13653:13662   */\n      dup4\n        /* \"#utility.yul\":13649:13666   */\n      add\n        /* \"#utility.yul\":13642:13689   */\n      mstore\n        /* \"#utility.yul\":13706:13837   */\n      tag_511\n        /* \"#utility.yul\":13832:13836   */\n      dup2\n        /* \"#utility.yul\":13706:13837   */\n      tag_361\n      jump\t// in\n    tag_511:\n        /* \"#utility.yul\":13698:13837   */\n      swap1\n      pop\n        /* \"#utility.yul\":13425:13844   */\n      swap2\n      swap1\n      pop\n      jump\t// out\n        /* \"#utility.yul\":13850:14073   */\n    tag_362:\n        /* \"#utility.yul\":13990:14024   */\n      0x4245453a207472616e7366657220616d6f756e7420657863656564732062616c\n        /* \"#utility.yul\":13986:13987   */\n      0x00\n        /* \"#utility.yul\":13978:13984   */\n      dup3\n        /* \"#utility.yul\":13974:13988   */\n      add\n        /* \"#utility.yul\":13967:14025   */\n      mstore\n        /* \"#utility.yul\":14059:14065   */\n      0x616e636500000000000000000000000000000000000000000000000000000000\n        /* \"#utility.yul\":14054:14056   */\n      0x20\n        /* \"#utility.yul\":14046:14052   */\n      dup3\n        /* \"#utility.yul\":14042:14057   */\n      add\n        /* \"#utility.yul\":14035:14066   */\n      mstore\n        /* \"#utility.yul\":13850:14073   */\n      pop\n      jump\t// out\n        /* \"#utility.yul\":14079:14445   */\n    tag_363:\n        /* \"#utility.yul\":14221:14224   */\n      0x00\n        /* \"#utility.yul\":14242:14309   */\n      tag_514\n        /* \"#utility.yul\":14306:14308   */\n      0x24\n        /* \"#utility.yul\":14301:14304   */\n      dup4\n        /* \"#utility.yul\":14242:14309   */\n      tag_324\n      jump\t// in\n    tag_514:\n        /* \"#utility.yul\":14235:14309   */\n      swap2\n      pop\n        /* \"#utility.yul\":14318:14411   */\n      tag_515\n        /* \"#utility.yul\":14407:14410   */\n      dup3\n        /* \"#utility.yul\":14318:14411   */\n      tag_362\n      jump\t// in\n    tag_515:\n        /* \"#utility.yul\":14436:14438   */\n      0x40\n        /* \"#utility.yul\":14431:14434   */\n      dup3\n        /* \"#utility.yul\":14427:14439   */\n      add\n        /* \"#utility.yul\":14420:14439   */\n      swap1\n      pop\n        /* \"#utility.yul\":14079:14445   */\n      swap2\n      swap1\n      pop\n      jump\t// out\n        /* \"#utility.yul\":14451:14870   */\n    tag_240:\n        /* \"#utility.yul\":14617:14621   */\n      0x00\n        /* \"#utility.yul\":14655:14657   */\n      0x20\n        /* \"#utility.yul\":14644:14653   */\n      dup3\n        /* \"#utility.yul\":14640:14658   */\n      add\n        /* \"#utility.yul\":14632:14658   */\n      swap1\n      pop\n        /* \"#utility.yul\":14704:14713   */\n      dup2\n        /* \"#utility.yul\":14698:14702   */\n      dup2\n        /* \"#utility.yul\":14694:14714   */\n      sub\n        /* \"#utility.yul\":14690:14691   */\n      0x00\n        /* \"#utility.yul\":14679:14688   */\n      dup4\n        /* \"#utility.yul\":14675:14692   */\n      add\n        /* \"#utility.yul\":14668:14715   */\n      mstore\n        /* \"#utility.yul\":14732:14863   */\n      tag_517\n        /* \"#utility.yul\":14858:14862   */\n      dup2\n        /* \"#utility.yul\":14732:14863   */\n      tag_363\n      jump\t// in\n    tag_517:\n        /* \"#utility.yul\":14724:14863   */\n      swap1\n      pop\n        /* \"#utility.yul\":14451:14870   */\n      swap2\n      swap1\n      pop\n      jump\t// out\n        /* \"#utility.yul\":14876:15057   */\n    tag_364:\n        /* \"#utility.yul\":15016:15049   */\n      0x4245453a206275726e2066726f6d20746865207a65726f206164647265737300\n        /* \"#utility.yul\":15012:15013   */\n      0x00\n        /* \"#utility.yul\":15004:15010   */\n      dup3\n        /* \"#utility.yul\":15000:15014   */\n      add\n        /* \"#utility.yul\":14993:15050   */\n      mstore\n        /* \"#utility.yul\":14876:15057   */\n      pop\n      jump\t// out\n        /* \"#utility.yul\":15063:15429   */\n    tag_365:\n        /* \"#utility.yul\":15205:15208   */\n      0x00\n        /* \"#utility.yul\":15226:15293   */\n      tag_520\n        /* \"#utility.yul\":15290:15292   */\n      0x1f\n        /* \"#utility.yul\":15285:15288   */\n      dup4\n        /* \"#utility.yul\":15226:15293   */\n      tag_324\n      jump\t// in\n    tag_520:\n        /* \"#utility.yul\":15219:15293   */\n      swap2\n      pop\n        /* \"#utility.yul\":15302:15395   */\n      tag_521\n        /* \"#utility.yul\":15391:15394   */\n      dup3\n        /* \"#utility.yul\":15302:15395   */\n      tag_364\n      jump\t// in\n    tag_521:\n        /* \"#utility.yul\":15420:15422   */\n      0x20\n        /* \"#utility.yul\":15415:15418   */\n      dup3\n        /* \"#utility.yul\":15411:15423   */\n      add\n        /* \"#utility.yul\":15404:15423   */\n      swap1\n      pop\n        /* \"#utility.yul\":15063:15429   */\n      swap2\n      swap1\n      pop\n      jump\t// out\n        /* \"#utility.yul\":15435:15854   */\n    tag_270:\n        /* \"#utility.yul\":15601:15605   */\n      0x00\n        /* \"#utility.yul\":15639:15641   */\n      0x20\n        /* \"#utility.yul\":15628:15637   */\n      dup3\n        /* \"#utility.yul\":15624:15642   */\n      add\n        /* \"#utility.yul\":15616:15642   */\n      swap1\n      pop\n        /* \"#utility.yul\":15688:15697   */\n      dup2\n        /* \"#utility.yul\":15682:15686   */\n      dup2\n        /* \"#utility.yul\":15678:15698   */\n      sub\n        /* \"#utility.yul\":15674:15675   */\n      0x00\n        /* \"#utility.yul\":15663:15672   */\n      dup4\n        /* \"#utility.yul\":15659:15676   */\n      add\n        /* \"#utility.yul\":15652:15699   */\n      mstore\n        /* \"#utility.yul\":15716:15847   */\n      tag_523\n        /* \"#utility.yul\":15842:15846   */\n      dup2\n        /* \"#utility.yul\":15716:15847   */\n      tag_365\n      jump\t// in\n    tag_523:\n        /* \"#utility.yul\":15708:15847   */\n      swap1\n      pop\n        /* \"#utility.yul\":15435:15854   */\n      swap2\n      swap1\n      pop\n      jump\t// out\n        /* \"#utility.yul\":15860:16042   */\n    tag_366:\n        /* \"#utility.yul\":16000:16034   */\n      0x4245453a206275726e20616d6f756e7420657863656564732062616c616e6365\n        /* \"#utility.yul\":15996:15997   */\n      0x00\n        /* \"#utility.yul\":15988:15994   */\n      dup3\n        /* \"#utility.yul\":15984:15998   */\n      add\n        /* \"#utility.yul\":15977:16035   */\n      mstore\n        /* \"#utility.yul\":15860:16042   */\n      pop\n      jump\t// out\n        /* \"#utility.yul\":16048:16414   */\n    tag_367:\n        /* \"#utility.yul\":16190:16193   */\n      0x00\n        /* \"#utility.yul\":16211:16278   */\n      tag_526\n        /* \"#utility.yul\":16275:16277   */\n      0x20\n        /* \"#utility.yul\":16270:16273   */\n      dup4\n        /* \"#utility.yul\":16211:16278   */\n      tag_324\n      jump\t// in\n    tag_526:\n        /* \"#utility.yul\":16204:16278   */\n      swap2\n      pop\n        /* \"#utility.yul\":16287:16380   */\n      tag_527\n        /* \"#utility.yul\":16376:16379   */\n      dup3\n        /* \"#utility.yul\":16287:16380   */\n      tag_366\n      jump\t// in\n    tag_527:\n        /* \"#utility.yul\":16405:16407   */\n      0x20\n        /* \"#utility.yul\":16400:16403   */\n      dup3\n        /* \"#utility.yul\":16396:16408   */\n      add\n        /* \"#utility.yul\":16389:16408   */\n      swap1\n      pop\n        /* \"#utility.yul\":16048:16414   */\n      swap2\n      swap1\n      pop\n      jump\t// out\n        /* \"#utility.yul\":16420:16839   */\n    tag_273:\n        /* \"#utility.yul\":16586:16590   */\n      0x00\n        /* \"#utility.yul\":16624:16626   */\n      0x20\n        /* \"#utility.yul\":16613:16622   */\n      dup3\n        /* \"#utility.yul\":16609:16627   */\n      add\n        /* \"#utility.yul\":16601:16627   */\n      swap1\n      pop\n        /* \"#utility.yul\":16673:16682   */\n      dup2\n        /* \"#utility.yul\":16667:16671   */\n      dup2\n        /* \"#utility.yul\":16663:16683   */\n      sub\n        /* \"#utility.yul\":16659:16660   */\n      0x00\n        /* \"#utility.yul\":16648:16657   */\n      dup4\n        /* \"#utility.yul\":16644:16661   */\n      add\n        /* \"#utility.yul\":16637:16684   */\n      mstore\n        /* \"#utility.yul\":16701:16832   */\n      tag_529\n        /* \"#utility.yul\":16827:16831   */\n      dup2\n        /* \"#utility.yul\":16701:16832   */\n      tag_367\n      jump\t// in\n    tag_529:\n        /* \"#utility.yul\":16693:16832   */\n      swap1\n      pop\n        /* \"#utility.yul\":16420:16839   */\n      swap2\n      swap1\n      pop\n      jump\t// out\n        /* \"#utility.yul\":16845:17039   */\n    tag_275:\n        /* \"#utility.yul\":16885:16889   */\n      0x00\n        /* \"#utility.yul\":16905:16925   */\n      tag_531\n        /* \"#utility.yul\":16923:16924   */\n      dup3\n        /* \"#utility.yul\":16905:16925   */\n      tag_335\n      jump\t// in\n    tag_531:\n        /* \"#utility.yul\":16900:16925   */\n      swap2\n      pop\n        /* \"#utility.yul\":16939:16959   */\n      tag_532\n        /* \"#utility.yul\":16957:16958   */\n      dup4\n        /* \"#utility.yul\":16939:16959   */\n      tag_335\n      jump\t// in\n    tag_532:\n        /* \"#utility.yul\":16934:16959   */\n      swap3\n      pop\n        /* \"#utility.yul\":16983:16984   */\n      dup3\n        /* \"#utility.yul\":16980:16981   */\n      dup3\n        /* \"#utility.yul\":16976:16985   */\n      sub\n        /* \"#utility.yul\":16968:16985   */\n      swap1\n      pop\n        /* \"#utility.yul\":17007:17008   */\n      dup2\n        /* \"#utility.yul\":17001:17005   */\n      dup2\n        /* \"#utility.yul\":16998:17009   */\n      gt\n        /* \"#utility.yul\":16995:17032   */\n      iszero\n      tag_533\n      jumpi\n        /* \"#utility.yul\":17012:17030   */\n      tag_534\n      tag_351\n      jump\t// in\n    tag_534:\n        /* \"#utility.yul\":16995:17032   */\n    tag_533:\n        /* \"#utility.yul\":16845:17039   */\n      swap3\n      swap2\n      pop\n      pop\n      jump\t// out\n        /* \"#utility.yul\":17045:17455   */\n    tag_281:\n        /* \"#utility.yul\":17085:17092   */\n      0x00\n        /* \"#utility.yul\":17108:17128   */\n      tag_536\n        /* \"#utility.yul\":17126:17127   */\n      dup3\n        /* \"#utility.yul\":17108:17128   */\n      tag_335\n      jump\t// in\n    tag_536:\n        /* \"#utility.yul\":17103:17128   */\n      swap2\n      pop\n        /* \"#utility.yul\":17142:17162   */\n      tag_537\n        /* \"#utility.yul\":17160:17161   */\n      dup4\n        /* \"#utility.yul\":17142:17162   */\n      tag_335\n      jump\t// in\n    tag_537:\n        /* \"#utility.yul\":17137:17162   */\n      swap3\n      pop\n        /* \"#utility.yul\":17197:17198   */\n      dup3\n        /* \"#utility.yul\":17194:17195   */\n      dup3\n        /* \"#utility.yul\":17190:17199   */\n      mul\n        /* \"#utility.yul\":17219:17249   */\n      tag_538\n        /* \"#utility.yul\":17237:17248   */\n      dup2\n        /* \"#utility.yul\":17219:17249   */\n      tag_335\n      jump\t// in\n    tag_538:\n        /* \"#utility.yul\":17208:17249   */\n      swap2\n      pop\n        /* \"#utility.yul\":17398:17399   */\n      dup3\n        /* \"#utility.yul\":17389:17396   */\n      dup3\n        /* \"#utility.yul\":17385:17400   */\n      div\n        /* \"#utility.yul\":17382:17383   */\n      dup5\n        /* \"#utility.yul\":17379:17401   */\n      eq\n        /* \"#utility.yul\":17359:17360   */\n      dup4\n        /* \"#utility.yul\":17352:17361   */\n      iszero\n        /* \"#utility.yul\":17332:17415   */\n      or\n        /* \"#utility.yul\":17309:17448   */\n      tag_539\n      jumpi\n        /* \"#utility.yul\":17428:17446   */\n      tag_540\n      tag_351\n      jump\t// in\n    tag_540:\n        /* \"#utility.yul\":17309:17448   */\n    tag_539:\n        /* \"#utility.yul\":17093:17455   */\n      pop\n        /* \"#utility.yul\":17045:17455   */\n      swap3\n      swap2\n      pop\n      pop\n      jump\t// out\n        /* \"#utility.yul\":17461:17641   */\n    tag_368:\n        /* \"#utility.yul\":17509:17586   */\n      0x4e487b7100000000000000000000000000000000000000000000000000000000\n        /* \"#utility.yul\":17506:17507   */\n      0x00\n        /* \"#utility.yul\":17499:17587   */\n      mstore\n        /* \"#utility.yul\":17606:17610   */\n      0x12\n        /* \"#utility.yul\":17603:17604   */\n      0x04\n        /* \"#utility.yul\":17596:17611   */\n      mstore\n        /* \"#utility.yul\":17630:17634   */\n      0x24\n        /* \"#utility.yul\":17627:17628   */\n      0x00\n        /* \"#utility.yul\":17620:17635   */\n      revert\n        /* \"#utility.yul\":17647:17832   */\n    tag_283:\n        /* \"#utility.yul\":17687:17688   */\n      0x00\n        /* \"#utility.yul\":17704:17724   */\n      tag_543\n        /* \"#utility.yul\":17722:17723   */\n      dup3\n        /* \"#utility.yul\":17704:17724   */\n      tag_335\n      jump\t// in\n    tag_543:\n        /* \"#utility.yul\":17699:17724   */\n      swap2\n      pop\n        /* \"#utility.yul\":17738:17758   */\n      tag_544\n        /* \"#utility.yul\":17756:17757   */\n      dup4\n        /* \"#utility.yul\":17738:17758   */\n      tag_335\n      jump\t// in\n    tag_544:\n        /* \"#utility.yul\":17733:17758   */\n      swap3\n      pop\n        /* \"#utility.yul\":17777:17778   */\n      dup3\n        /* \"#utility.yul\":17767:17802   */\n      tag_545\n      jumpi\n        /* \"#utility.yul\":17782:17800   */\n      tag_546\n      tag_368\n      jump\t// in\n    tag_546:\n        /* \"#utility.yul\":17767:17802   */\n    tag_545:\n        /* \"#utility.yul\":17824:17825   */\n      dup3\n        /* \"#utility.yul\":17821:17822   */\n      dup3\n        /* \"#utility.yul\":17817:17826   */\n      div\n        /* \"#utility.yul\":17812:17826   */\n      swap1\n      pop\n        /* \"#utility.yul\":17647:17832   */\n      swap3\n      swap2\n      pop\n      pop\n      jump\t// out\n        /* \"#utility.yul\":17838:18058   */\n    tag_369:\n        /* \"#utility.yul\":17978:18012   */\n      0x536166654d6174683a206d756c7469706c69636174696f6e206f766572666c6f\n        /* \"#utility.yul\":17974:17975   */\n      0x00\n        /* \"#utility.yul\":17966:17972   */\n      dup3\n        /* \"#utility.yul\":17962:17976   */\n      add\n        /* \"#utility.yul\":17955:18013   */\n      mstore\n        /* \"#utility.yul\":18047:18050   */\n      0x7700000000000000000000000000000000000000000000000000000000000000\n        /* \"#utility.yul\":18042:18044   */\n      0x20\n        /* \"#utility.yul\":18034:18040   */\n      dup3\n        /* \"#utility.yul\":18030:18045   */\n      add\n        /* \"#utility.yul\":18023:18051   */\n      mstore\n        /* \"#utility.yul\":17838:18058   */\n      pop\n      jump\t// out\n        /* \"#utility.yul\":18064:18430   */\n    tag_370:\n        /* \"#utility.yul\":18206:18209   */\n      0x00\n        /* \"#utility.yul\":18227:18294   */\n      tag_549\n        /* \"#utility.yul\":18291:18293   */\n      0x21\n        /* \"#utility.yul\":18286:18289   */\n      dup4\n        /* \"#utility.yul\":18227:18294   */\n      tag_324\n      jump\t// in\n    tag_549:\n        /* \"#utility.yul\":18220:18294   */\n      swap2\n      pop\n        /* \"#utility.yul\":18303:18396   */\n      tag_550\n        /* \"#utility.yul\":18392:18395   */\n      dup3\n        /* \"#utility.yul\":18303:18396   */\n      tag_369\n      jump\t// in\n    tag_550:\n        /* \"#utility.yul\":18421:18423   */\n      0x40\n        /* \"#utility.yul\":18416:18419   */\n      dup3\n        /* \"#utility.yul\":18412:18424   */\n      add\n        /* \"#utility.yul\":18405:18424   */\n      swap1\n      pop\n        /* \"#utility.yul\":18064:18430   */\n      swap2\n      swap1\n      pop\n      jump\t// out\n        /* \"#utility.yul\":18436:18855   */\n    tag_286:\n        /* \"#utility.yul\":18602:18606   */\n      0x00\n        /* \"#utility.yul\":18640:18642   */\n      0x20\n        /* \"#utility.yul\":18629:18638   */\n      dup3\n        /* \"#utility.yul\":18625:18643   */\n      add\n        /* \"#utility.yul\":18617:18643   */\n      swap1\n      pop\n        /* \"#utility.yul\":18689:18698   */\n      dup2\n        /* \"#utility.yul\":18683:18687   */\n      dup2\n        /* \"#utility.yul\":18679:18699   */\n      sub\n        /* \"#utility.yul\":18675:18676   */\n      0x00\n        /* \"#utility.yul\":18664:18673   */\n      dup4\n        /* \"#utility.yul\":18660:18677   */\n      add\n        /* \"#utility.yul\":18653:18700   */\n      mstore\n        /* \"#utility.yul\":18717:18848   */\n      tag_552\n        /* \"#utility.yul\":18843:18847   */\n      dup2\n        /* \"#utility.yul\":18717:18848   */\n      tag_370\n      jump\t// in\n    tag_552:\n        /* \"#utility.yul\":18709:18848   */\n      swap1\n      pop\n        /* \"#utility.yul\":18436:18855   */\n      swap2\n      swap1\n      pop\n      jump\t// out\n        /* \"#utility.yul\":18861:19038   */\n    tag_371:\n        /* \"#utility.yul\":19001:19030   */\n      0x536166654d6174683a206164646974696f6e206f766572666c6f770000000000\n        /* \"#utility.yul\":18997:18998   */\n      0x00\n        /* \"#utility.yul\":18989:18995   */\n      dup3\n        /* \"#utility.yul\":18985:18999   */\n      add\n        /* \"#utility.yul\":18978:19031   */\n      mstore\n        /* \"#utility.yul\":18861:19038   */\n      pop\n      jump\t// out\n        /* \"#utility.yul\":19044:19410   */\n    tag_372:\n        /* \"#utility.yul\":19186:19189   */\n      0x00\n        /* \"#utility.yul\":19207:19274   */\n      tag_555\n        /* \"#utility.yul\":19271:19273   */\n      0x1b\n        /* \"#utility.yul\":19266:19269   */\n      dup4\n        /* \"#utility.yul\":19207:19274   */\n      tag_324\n      jump\t// in\n    tag_555:\n        /* \"#utility.yul\":19200:19274   */\n      swap2\n      pop\n        /* \"#utility.yul\":19283:19376   */\n      tag_556\n        /* \"#utility.yul\":19372:19375   */\n      dup3\n        /* \"#utility.yul\":19283:19376   */\n      tag_371\n      jump\t// in\n    tag_556:\n        /* \"#utility.yul\":19401:19403   */\n      0x20\n        /* \"#utility.yul\":19396:19399   */\n      dup3\n        /* \"#utility.yul\":19392:19404   */\n      add\n        /* \"#utility.yul\":19385:19404   */\n      swap1\n      pop\n        /* \"#utility.yul\":19044:19410   */\n      swap2\n      swap1\n      pop\n      jump\t// out\n        /* \"#utility.yul\":19416:19835   */\n    tag_294:\n        /* \"#utility.yul\":19582:19586   */\n      0x00\n        /* \"#utility.yul\":19620:19622   */\n      0x20\n        /* \"#utility.yul\":19609:19618   */\n      dup3\n        /* \"#utility.yul\":19605:19623   */\n      add\n        /* \"#utility.yul\":19597:19623   */\n      swap1\n      pop\n        /* \"#utility.yul\":19669:19678   */\n      dup2\n        /* \"#utility.yul\":19663:19667   */\n      dup2\n        /* \"#utility.yul\":19659:19679   */\n      sub\n        /* \"#utility.yul\":19655:19656   */\n      0x00\n        /* \"#utility.yul\":19644:19653   */\n      dup4\n        /* \"#utility.yul\":19640:19657   */\n      add\n        /* \"#utility.yul\":19633:19680   */\n      mstore\n        /* \"#utility.yul\":19697:19828   */\n      tag_558\n        /* \"#utility.yul\":19823:19827   */\n      dup2\n        /* \"#utility.yul\":19697:19828   */\n      tag_372\n      jump\t// in\n    tag_558:\n        /* \"#utility.yul\":19689:19828   */\n      swap1\n      pop\n        /* \"#utility.yul\":19416:19835   */\n      swap2\n      swap1\n      pop\n      jump\t// out\n        /* \"#utility.yul\":19841:20021   */\n    tag_299:\n        /* \"#utility.yul\":19889:19966   */\n      0x4e487b7100000000000000000000000000000000000000000000000000000000\n        /* \"#utility.yul\":19886:19887   */\n      0x00\n        /* \"#utility.yul\":19879:19967   */\n      mstore\n        /* \"#utility.yul\":19986:19990   */\n      0x41\n        /* \"#utility.yul\":19983:19984   */\n      0x04\n        /* \"#utility.yul\":19976:19991   */\n      mstore\n        /* \"#utility.yul\":20010:20014   */\n      0x24\n        /* \"#utility.yul\":20007:20008   */\n      0x00\n        /* \"#utility.yul\":20000:20015   */\n      revert\n        /* \"#utility.yul\":20027:20207   */\n    tag_303:\n        /* \"#utility.yul\":20075:20152   */\n      0x4e487b7100000000000000000000000000000000000000000000000000000000\n        /* \"#utility.yul\":20072:20073   */\n      0x00\n        /* \"#utility.yul\":20065:20153   */\n      mstore\n        /* \"#utility.yul\":20172:20176   */\n      0x32\n        /* \"#utility.yul\":20169:20170   */\n      0x04\n        /* \"#utility.yul\":20162:20177   */\n      mstore\n        /* \"#utility.yul\":20196:20200   */\n      0x24\n        /* \"#utility.yul\":20193:20194   */\n      0x00\n        /* \"#utility.yul\":20186:20201   */\n      revert\n        /* \"#utility.yul\":20213:20298   */\n    tag_373:\n        /* \"#utility.yul\":20258:20265   */\n      0x00\n        /* \"#utility.yul\":20287:20292   */\n      dup2\n        /* \"#utility.yul\":20276:20292   */\n      swap1\n      pop\n        /* \"#utility.yul\":20213:20298   */\n      swap2\n      swap1\n      pop\n      jump\t// out\n        /* \"#utility.yul\":20304:20462   */\n    tag_374:\n        /* \"#utility.yul\":20362:20371   */\n      0x00\n        /* \"#utility.yul\":20395:20456   */\n      tag_563\n        /* \"#utility.yul\":20413:20455   */\n      tag_564\n        /* \"#utility.yul\":20422:20454   */\n      tag_565\n        /* \"#utility.yul\":20448:20453   */\n      dup5\n        /* \"#utility.yul\":20422:20454   */\n      tag_373\n      jump\t// in\n    tag_565:\n        /* \"#utility.yul\":20413:20455   */\n      tag_340\n      jump\t// in\n    tag_564:\n        /* \"#utility.yul\":20395:20456   */\n      tag_335\n      jump\t// in\n    tag_563:\n        /* \"#utility.yul\":20382:20456   */\n      swap1\n      pop\n        /* \"#utility.yul\":20304:20462   */\n      swap2\n      swap1\n      pop\n      jump\t// out\n        /* \"#utility.yul\":20468:20615   */\n    tag_375:\n        /* \"#utility.yul\":20563:20608   */\n      tag_567\n        /* \"#utility.yul\":20602:20607   */\n      dup2\n        /* \"#utility.yul\":20563:20608   */\n      tag_374\n      jump\t// in\n    tag_567:\n        /* \"#utility.yul\":20558:20561   */\n      dup3\n        /* \"#utility.yul\":20551:20609   */\n      mstore\n        /* \"#utility.yul\":20468:20615   */\n      pop\n      pop\n      jump\t// out\n        /* \"#utility.yul\":20621:20735   */\n    tag_376:\n        /* \"#utility.yul\":20688:20694   */\n      0x00\n        /* \"#utility.yul\":20722:20727   */\n      dup2\n        /* \"#utility.yul\":20716:20728   */\n      mload\n        /* \"#utility.yul\":20706:20728   */\n      swap1\n      pop\n        /* \"#utility.yul\":20621:20735   */\n      swap2\n      swap1\n      pop\n      jump\t// out\n        /* \"#utility.yul\":20741:20925   */\n    tag_377:\n        /* \"#utility.yul\":20840:20851   */\n      0x00\n        /* \"#utility.yul\":20874:20880   */\n      dup3\n        /* \"#utility.yul\":20869:20872   */\n      dup3\n        /* \"#utility.yul\":20862:20881   */\n      mstore\n        /* \"#utility.yul\":20914:20918   */\n      0x20\n        /* \"#utility.yul\":20909:20912   */\n      dup3\n        /* \"#utility.yul\":20905:20919   */\n      add\n        /* \"#utility.yul\":20890:20919   */\n      swap1\n      pop\n        /* \"#utility.yul\":20741:20925   */\n      swap3\n      swap2\n      pop\n      pop\n      jump\t// out\n        /* \"#utility.yul\":20931:21063   */\n    tag_378:\n        /* \"#utility.yul\":20998:21002   */\n      0x00\n        /* \"#utility.yul\":21021:21024   */\n      dup2\n        /* \"#utility.yul\":21013:21024   */\n      swap1\n      pop\n        /* \"#utility.yul\":21051:21055   */\n      0x20\n        /* \"#utility.yul\":21046:21049   */\n      dup3\n        /* \"#utility.yul\":21042:21056   */\n      add\n        /* \"#utility.yul\":21034:21056   */\n      swap1\n      pop\n        /* \"#utility.yul\":20931:21063   */\n      swap2\n      swap1\n      pop\n      jump\t// out\n        /* \"#utility.yul\":21069:21177   */\n    tag_379:\n        /* \"#utility.yul\":21146:21170   */\n      tag_572\n        /* \"#utility.yul\":21164:21169   */\n      dup2\n        /* \"#utility.yul\":21146:21170   */\n      tag_332\n      jump\t// in\n    tag_572:\n        /* \"#utility.yul\":21141:21144   */\n      dup3\n        /* \"#utility.yul\":21134:21171   */\n      mstore\n        /* \"#utility.yul\":21069:21177   */\n      pop\n      pop\n      jump\t// out\n        /* \"#utility.yul\":21183:21362   */\n    tag_380:\n        /* \"#utility.yul\":21252:21262   */\n      0x00\n        /* \"#utility.yul\":21273:21319   */\n      tag_574\n        /* \"#utility.yul\":21315:21318   */\n      dup4\n        /* \"#utility.yul\":21307:21313   */\n      dup4\n        /* \"#utility.yul\":21273:21319   */\n      tag_379\n      jump\t// in\n    tag_574:\n        /* \"#utility.yul\":21351:21355   */\n      0x20\n        /* \"#utility.yul\":21346:21349   */\n      dup4\n        /* \"#utility.yul\":21342:21356   */\n      add\n        /* \"#utility.yul\":21328:21356   */\n      swap1\n      pop\n        /* \"#utility.yul\":21183:21362   */\n      swap3\n      swap2\n      pop\n      pop\n      jump\t// out\n        /* \"#utility.yul\":21368:21481   */\n    tag_381:\n        /* \"#utility.yul\":21438:21442   */\n      0x00\n        /* \"#utility.yul\":21470:21474   */\n      0x20\n        /* \"#utility.yul\":21465:21468   */\n      dup3\n        /* \"#utility.yul\":21461:21475   */\n      add\n        /* \"#utility.yul\":21453:21475   */\n      swap1\n      pop\n        /* \"#utility.yul\":21368:21481   */\n      swap2\n      swap1\n      pop\n      jump\t// out\n        /* \"#utility.yul\":21517:22249   */\n    tag_382:\n        /* \"#utility.yul\":21636:21639   */\n      0x00\n        /* \"#utility.yul\":21665:21719   */\n      tag_577\n        /* \"#utility.yul\":21713:21718   */\n      dup3\n        /* \"#utility.yul\":21665:21719   */\n      tag_376\n      jump\t// in\n    tag_577:\n        /* \"#utility.yul\":21735:21821   */\n      tag_578\n        /* \"#utility.yul\":21814:21820   */\n      dup2\n        /* \"#utility.yul\":21809:21812   */\n      dup6\n        /* \"#utility.yul\":21735:21821   */\n      tag_377\n      jump\t// in\n    tag_578:\n        /* \"#utility.yul\":21728:21821   */\n      swap4\n      pop\n        /* \"#utility.yul\":21845:21901   */\n      tag_579\n        /* \"#utility.yul\":21895:21900   */\n      dup4\n        /* \"#utility.yul\":21845:21901   */\n      tag_378\n      jump\t// in\n    tag_579:\n        /* \"#utility.yul\":21924:21931   */\n      dup1\n        /* \"#utility.yul\":21955:21956   */\n      0x00\n        /* \"#utility.yul\":21940:22224   */\n    tag_580:\n        /* \"#utility.yul\":21965:21971   */\n      dup4\n        /* \"#utility.yul\":21962:21963   */\n      dup2\n        /* \"#utility.yul\":21959:21972   */\n      lt\n        /* \"#utility.yul\":21940:22224   */\n      iszero\n      tag_582\n      jumpi\n        /* \"#utility.yul\":22041:22047   */\n      dup2\n        /* \"#utility.yul\":22035:22048   */\n      mload\n        /* \"#utility.yul\":22068:22131   */\n      tag_583\n        /* \"#utility.yul\":22127:22130   */\n      dup9\n        /* \"#utility.yul\":22112:22125   */\n      dup3\n        /* \"#utility.yul\":22068:22131   */\n      tag_380\n      jump\t// in\n    tag_583:\n        /* \"#utility.yul\":22061:22131   */\n      swap8\n      pop\n        /* \"#utility.yul\":22154:22214   */\n      tag_584\n        /* \"#utility.yul\":22207:22213   */\n      dup4\n        /* \"#utility.yul\":22154:22214   */\n      tag_381\n      jump\t// in\n    tag_584:\n        /* \"#utility.yul\":22144:22214   */\n      swap3\n      pop\n        /* \"#utility.yul\":22000:22224   */\n      pop\n        /* \"#utility.yul\":21987:21988   */\n      0x01\n        /* \"#utility.yul\":21984:21985   */\n      dup2\n        /* \"#utility.yul\":21980:21989   */\n      add\n        /* \"#utility.yul\":21975:21989   */\n      swap1\n      pop\n        /* \"#utility.yul\":21940:22224   */\n      jump(tag_580)\n    tag_582:\n        /* \"#utility.yul\":21944:21958   */\n      pop\n        /* \"#utility.yul\":22240:22243   */\n      dup6\n        /* \"#utility.yul\":22233:22243   */\n      swap4\n      pop\n        /* \"#utility.yul\":21641:22249   */\n      pop\n      pop\n      pop\n        /* \"#utility.yul\":21517:22249   */\n      swap3\n      swap2\n      pop\n      pop\n      jump\t// out\n        /* \"#utility.yul\":22255:23086   */\n    tag_308:\n        /* \"#utility.yul\":22518:22522   */\n      0x00\n        /* \"#utility.yul\":22556:22559   */\n      0xa0\n        /* \"#utility.yul\":22545:22554   */\n      dup3\n        /* \"#utility.yul\":22541:22560   */\n      add\n        /* \"#utility.yul\":22533:22560   */\n      swap1\n      pop\n        /* \"#utility.yul\":22570:22641   */\n      tag_586\n        /* \"#utility.yul\":22638:22639   */\n      0x00\n        /* \"#utility.yul\":22627:22636   */\n      dup4\n        /* \"#utility.yul\":22623:22640   */\n      add\n        /* \"#utility.yul\":22614:22620   */\n      dup9\n        /* \"#utility.yul\":22570:22641   */\n      tag_345\n      jump\t// in\n    tag_586:\n        /* \"#utility.yul\":22651:22731   */\n      tag_587\n        /* \"#utility.yul\":22727:22729   */\n      0x20\n        /* \"#utility.yul\":22716:22725   */\n      dup4\n        /* \"#utility.yul\":22712:22730   */\n      add\n        /* \"#utility.yul\":22703:22709   */\n      dup8\n        /* \"#utility.yul\":22651:22731   */\n      tag_375\n      jump\t// in\n    tag_587:\n        /* \"#utility.yul\":22778:22787   */\n      dup2\n        /* \"#utility.yul\":22772:22776   */\n      dup2\n        /* \"#utility.yul\":22768:22788   */\n      sub\n        /* \"#utility.yul\":22763:22765   */\n      0x40\n        /* \"#utility.yul\":22752:22761   */\n      dup4\n        /* \"#utility.yul\":22748:22766   */\n      add\n        /* \"#utility.yul\":22741:22789   */\n      mstore\n        /* \"#utility.yul\":22806:22914   */\n      tag_588\n        /* \"#utility.yul\":22909:22913   */\n      dup2\n        /* \"#utility.yul\":22900:22906   */\n      dup7\n        /* \"#utility.yul\":22806:22914   */\n      tag_382\n      jump\t// in\n    tag_588:\n        /* \"#utility.yul\":22798:22914   */\n      swap1\n      pop\n        /* \"#utility.yul\":22924:22996   */\n      tag_589\n        /* \"#utility.yul\":22992:22994   */\n      0x60\n        /* \"#utility.yul\":22981:22990   */\n      dup4\n        /* \"#utility.yul\":22977:22995   */\n      add\n        /* \"#utility.yul\":22968:22974   */\n      dup6\n        /* \"#utility.yul\":22924:22996   */\n      tag_346\n      jump\t// in\n    tag_589:\n        /* \"#utility.yul\":23006:23079   */\n      tag_590\n        /* \"#utility.yul\":23074:23077   */\n      0x80\n        /* \"#utility.yul\":23063:23072   */\n      dup4\n        /* \"#utility.yul\":23059:23078   */\n      add\n        /* \"#utility.yul\":23050:23056   */\n      dup5\n        /* \"#utility.yul\":23006:23079   */\n      tag_345\n      jump\t// in\n    tag_590:\n        /* \"#utility.yul\":22255:23086   */\n      swap7\n      swap6\n      pop\n      pop\n      pop\n      pop\n      pop\n      pop\n      jump\t// out\n\n    auxdata: 0xa26469706673582212208186539ad6ed100ec212135feeb7d9b0f4ff4729fd52163e15fddc8835f8d83064736f6c63430008110033\n}\n",
				"bytecode": {
					"linkReferences": {},
					"object": "60e060405273d3c0b6aa1538d639912789be705f18b5fd89fce6600860016101000a81548173ffffffffffffffffffffffffffffffffffffffff021916908373ffffffffffffffffffffffffffffffffffffffff1602179055507355d398326f99059ff775485246999027b3197955600960006101000a81548173ffffffffffffffffffffffffffffffffffffffff021916908373ffffffffffffffffffffffffffffffffffffffff160217905550348015620000bb57600080fd5b50620000dc620000d06200057360201b60201c565b6200057b60201b60201c565b62000108620000f06200057360201b60201c565b6a0878678326eac9000000006200063f60201b60201c565b620001186200057360201b60201c565b73ffffffffffffffffffffffffffffffffffffffff16600073ffffffffffffffffffffffffffffffffffffffff167fddf252ad1be2c89b69c2b068fc378daa952ba7f163c4a11628f55a4df523b3ef6a0878678326eac90000000060405162000182919062000775565b60405180910390a360007310ed43c718714eb63d5aa57b78b54704e256024e90508073ffffffffffffffffffffffffffffffffffffffff1663c45a01556040518163ffffffff1660e01b8152600401602060405180830381865afa158015620001ef573d6000803e3d6000fd5b505050506040513d601f19601f82011682018060405250810190620002159190620007fc565b73ffffffffffffffffffffffffffffffffffffffff1663c9c65396308373ffffffffffffffffffffffffffffffffffffffff1663ad5c46486040518163ffffffff1660e01b8152600401602060405180830381865afa1580156200027d573d6000803e3d6000fd5b505050506040513d601f19601f82011682018060405250810190620002a39190620007fc565b6040518363ffffffff1660e01b8152600401620002c29291906200083f565b6020604051808303816000875af1158015620002e2573d6000803e3d6000fd5b505050506040513d601f19601f82011682018060405250810190620003089190620007fc565b73ffffffffffffffffffffffffffffffffffffffff1660a08173ffffffffffffffffffffffffffffffffffffffff16815250508073ffffffffffffffffffffffffffffffffffffffff1663c45a01556040518163ffffffff1660e01b8152600401602060405180830381865afa15801562000387573d6000803e3d6000fd5b505050506040513d601f19601f82011682018060405250810190620003ad9190620007fc565b73ffffffffffffffffffffffffffffffffffffffff1663c9c6539630600960009054906101000a900473ffffffffffffffffffffffffffffffffffffffff166040518363ffffffff1660e01b81526004016200040b9291906200083f565b6020604051808303816000875af11580156200042b573d6000803e3d6000fd5b505050506040513d601f19601f82011682018060405250810190620004519190620007fc565b73ffffffffffffffffffffffffffffffffffffffff1660c08173ffffffffffffffffffffffffffffffffffffffff16815250508073ffffffffffffffffffffffffffffffffffffffff1660808173ffffffffffffffffffffffffffffffffffffffff168152505060016007600060a05173ffffffffffffffffffffffffffffffffffffffff1673ffffffffffffffffffffffffffffffffffffffff16815260200190815260200160002060006101000a81548160ff02191690831515021790555060016007600060c05173ffffffffffffffffffffffffffffffffffffffff1673ffffffffffffffffffffffffffffffffffffffff16815260200190815260200160002060006101000a81548160ff0219169083151502179055505062000904565b600033905090565b60008060009054906101000a900473ffffffffffffffffffffffffffffffffffffffff169050816000806101000a81548173ffffffffffffffffffffffffffffffffffffffff021916908373ffffffffffffffffffffffffffffffffffffffff1602179055508173ffffffffffffffffffffffffffffffffffffffff168173ffffffffffffffffffffffffffffffffffffffff167f8be0079c531659141344cd1fd0a4f28419497f9722a3daafe3b4186f6b6457e060405160405180910390a35050565b80600160008473ffffffffffffffffffffffffffffffffffffffff1673ffffffffffffffffffffffffffffffffffffffff16815260200190815260200160002060008282546200069091906200089b565b925050819055508060036000828254620006ab91906200089b565b925050819055508173ffffffffffffffffffffffffffffffffffffffff16600073ffffffffffffffffffffffffffffffffffffffff167fddf252ad1be2c89b69c2b068fc378daa952ba7f163c4a11628f55a4df523b3ef83604051620007129190620008e7565b60405180910390a35050565b6000819050919050565b6000819050919050565b6000819050919050565b60006200075d6200075762000751846200071e565b62000732565b62000728565b9050919050565b6200076f816200073c565b82525050565b60006020820190506200078c600083018462000764565b92915050565b600080fd5b600073ffffffffffffffffffffffffffffffffffffffff82169050919050565b6000620007c48262000797565b9050919050565b620007d681620007b7565b8114620007e257600080fd5b50565b600081519050620007f681620007cb565b92915050565b60006020828403121562000815576200081462000792565b5b60006200082584828501620007e5565b91505092915050565b6200083981620007b7565b82525050565b60006040820190506200085660008301856200082e565b6200086560208301846200082e565b9392505050565b7f4e487b7100000000000000000000000000000000000000000000000000000000600052601160045260246000fd5b6000620008a88262000728565b9150620008b58362000728565b9250828201905080821115620008d057620008cf6200086c565b5b92915050565b620008e18162000728565b82525050565b6000602082019050620008fe6000830184620008d6565b92915050565b60805160a05160c051612b0b620009496000396000610758015260006108450152600081816106320152818161131801528181611ca10152611cc80152612b0b6000f3fe60806040526004361061014f5760003560e01c8063715018a6116100b6578063a8808fcc1161006f578063a8808fcc146104a3578063a9059cbb146104cc578063dd62ed3e14610509578063dec1a6f614610546578063f2fde38b14610583578063fae92612146105ac57610156565b8063715018a6146103a357806388af60c6146103ba5780638da5cb5b146103e5578063956236411461041057806395d89b411461043b578063a457c2d71461046657610156565b8063313ce56711610108578063313ce5671461028157806339509351146102ac57806342966c68146102e957806349bd5a5e14610312578063536db2661461033d57806370a082311461036657610156565b806306fdde031461015b578063095ea7b3146101865780631694505e146101c357806318160ddd146101ee57806323b872dd146102195780632aafa2831461025657610156565b3661015657005b600080fd5b34801561016757600080fd5b506101706105d5565b60405161017d9190611f1a565b60405180910390f35b34801561019257600080fd5b506101ad60048036038101906101a89190611fd5565b610612565b6040516101ba9190612030565b60405180910390f35b3480156101cf57600080fd5b506101d8610630565b6040516101e591906120aa565b60405180910390f35b3480156101fa57600080fd5b50610203610654565b60405161021091906120d4565b60405180910390f35b34801561022557600080fd5b50610240600480360381019061023b91906120ef565b61065e565b60405161024d9190612030565b60405180910390f35b34801561026257600080fd5b5061026b610756565b6040516102789190612151565b60405180910390f35b34801561028d57600080fd5b5061029661077a565b6040516102a39190612188565b60405180910390f35b3480156102b857600080fd5b506102d360048036038101906102ce9190611fd5565b610783565b6040516102e09190612030565b60405180910390f35b3480156102f557600080fd5b50610310600480360381019061030b91906121a3565b61082f565b005b34801561031e57600080fd5b50610327610843565b6040516103349190612151565b60405180910390f35b34801561034957600080fd5b50610364600480360381019061035f91906121d0565b610867565b005b34801561037257600080fd5b5061038d600480360381019061038891906121d0565b6109ee565b60405161039a91906120d4565b60405180910390f35b3480156103af57600080fd5b506103b8610a37565b005b3480156103c657600080fd5b506103cf610abf565b6040516103dc9190612151565b60405180910390f35b3480156103f157600080fd5b506103fa610ae5565b6040516104079190612151565b60405180910390f35b34801561041c57600080fd5b50610425610b0e565b6040516104329190612151565b60405180910390f35b34801561044757600080fd5b50610450610b34565b60405161045d9190611f1a565b60405180910390f35b34801561047257600080fd5b5061048d60048036038101906104889190611fd5565b610b71565b60405161049a9190612030565b60405180910390f35b3480156104af57600080fd5b506104ca60048036038101906104c591906121d0565b610c5c565b005b3480156104d857600080fd5b506104f360048036038101906104ee9190611fd5565b610de9565b6040516105009190612030565b60405180910390f35b34801561051557600080fd5b50610530600480360381019061052b91906121fd565b610e07565b60405161053d91906120d4565b60405180910390f35b34801561055257600080fd5b5061056d600480360381019061056891906121d0565b610e8e565b60405161057a9190612030565b60405180910390f35b34801561058f57600080fd5b506105aa60048036038101906105a591906121d0565b610eae565b005b3480156105b857600080fd5b506105d360048036038101906105ce91906121d0565b610fa5565b005b60606040518060400160405280600881526020017f4149522054455354000000000000000000000000000000000000000000000000815250905090565b600061062661061f611065565b848461106d565b6001905092915050565b7f000000000000000000000000000000000000000000000000000000000000000081565b6000600354905090565b600061066b848484611158565b6000600260008673ffffffffffffffffffffffffffffffffffffffff1673ffffffffffffffffffffffffffffffffffffffff16815260200190815260200160002060006106b6611065565b73ffffffffffffffffffffffffffffffffffffffff1673ffffffffffffffffffffffffffffffffffffffff16815260200190815260200160002054905082811015610736576040517f08c379a000000000000000000000000000000000000000000000000000000000815260040161072d906122af565b60405180910390fd5b61074a85610742611065565b85840361106d565b60019150509392505050565b7f000000000000000000000000000000000000000000000000000000000000000081565b60006012905090565b6000610825610790611065565b84846002600061079e611065565b73ffffffffffffffffffffffffffffffffffffffff1673ffffffffffffffffffffffffffffffffffffffff16815260200190815260200160002060008873ffffffffffffffffffffffffffffffffffffffff1673ffffffffffffffffffffffffffffffffffffffff1681526020019081526020016000205461082091906122fe565b61106d565b6001905092915050565b61084061083a611065565b826117cc565b50565b7f000000000000000000000000000000000000000000000000000000000000000081565b61086f611065565b73ffffffffffffffffffffffffffffffffffffffff1661088d610ae5565b73ffffffffffffffffffffffffffffffffffffffff16146108e3576040517f08c379a00000000000000000000000000000000000000000000000000000000081526004016108da9061237e565b60405180910390fd5b600760008273ffffffffffffffffffffffffffffffffffffffff1673ffffffffffffffffffffffffffffffffffffffff16815260200190815260200160002060009054906101000a900460ff1615610992576000600760008373ffffffffffffffffffffffffffffffffffffffff1673ffffffffffffffffffffffffffffffffffffffff16815260200190815260200160002060006101000a81548160ff0219169083151502179055506109eb565b6001600760008373ffffffffffffffffffffffffffffffffffffffff1673ffffffffffffffffffffffffffffffffffffffff16815260200190815260200160002060006101000a81548160ff0219169083151502179055505b50565b6000600160008373ffffffffffffffffffffffffffffffffffffffff1673ffffffffffffffffffffffffffffffffffffffff168152602001908152602001600020549050919050565b610a3f611065565b73ffffffffffffffffffffffffffffffffffffffff16610a5d610ae5565b73ffffffffffffffffffffffffffffffffffffffff1614610ab3576040517f08c379a0000000000000000000000000000000000000000000000000000000008152600401610aaa9061237e565b60405180910390fd5b610abd600061198c565b565b600960009054906101000a900473ffffffffffffffffffffffffffffffffffffffff1681565b60008060009054906101000a900473ffffffffffffffffffffffffffffffffffffffff16905090565b600860019054906101000a900473ffffffffffffffffffffffffffffffffffffffff1681565b60606040518060400160405280600481526020017f4149525400000000000000000000000000000000000000000000000000000000815250905090565b60008060026000610b80611065565b73ffffffffffffffffffffffffffffffffffffffff1673ffffffffffffffffffffffffffffffffffffffff16815260200190815260200160002060008573ffffffffffffffffffffffffffffffffffffffff1673ffffffffffffffffffffffffffffffffffffffff16815260200190815260200160002054905082811015610c3d576040517f08c379a0000000000000000000000000000000000000000000000000000000008152600401610c3490612410565b60405180910390fd5b610c51610c48611065565b8585840361106d565b600191505092915050565b610c64611065565b73ffffffffffffffffffffffffffffffffffffffff16610c82610ae5565b73ffffffffffffffffffffffffffffffffffffffff1614610cd8576040517f08c379a0000000000000000000000000000000000000000000000000000000008152600401610ccf9061237e565b60405180910390fd5b60011515600660008373ffffffffffffffffffffffffffffffffffffffff1673ffffffffffffffffffffffffffffffffffffffff16815260200190815260200160002060009054906101000a900460ff16151503610d8d576000600660008373ffffffffffffffffffffffffffffffffffffffff1673ffffffffffffffffffffffffffffffffffffffff16815260200190815260200160002060006101000a81548160ff021916908315150217905550610de6565b6001600660008373ffffffffffffffffffffffffffffffffffffffff1673ffffffffffffffffffffffffffffffffffffffff16815260200190815260200160002060006101000a81548160ff0219169083151502179055505b50565b6000610dfd610df6611065565b8484611158565b6001905092915050565b6000600260008473ffffffffffffffffffffffffffffffffffffffff1673ffffffffffffffffffffffffffffffffffffffff16815260200190815260200160002060008373ffffffffffffffffffffffffffffffffffffffff1673ffffffffffffffffffffffffffffffffffffffff16815260200190815260200160002054905092915050565b60076020528060005260406000206000915054906101000a900460ff1681565b610eb6611065565b73ffffffffffffffffffffffffffffffffffffffff16610ed4610ae5565b73ffffffffffffffffffffffffffffffffffffffff1614610f2a576040517f08c379a0000000000000000000000000000000000000000000000000000000008152600401610f219061237e565b60405180910390fd5b600073ffffffffffffffffffffffffffffffffffffffff168173ffffffffffffffffffffffffffffffffffffffff1603610f99576040517f08c379a0000000000000000000000000000000000000000000000000000000008152600401610f90906124a2565b60405180910390fd5b610fa28161198c565b50565b610fad611065565b73ffffffffffffffffffffffffffffffffffffffff16610fcb610ae5565b73ffffffffffffffffffffffffffffffffffffffff1614611021576040517f08c379a00000000000000000000000000000000000000000000000000000000081526004016110189061237e565b60405180910390fd5b80600860016101000a81548173ffffffffffffffffffffffffffffffffffffffff021916908373ffffffffffffffffffffffffffffffffffffffff16021790555050565b600033905090565b80600260008573ffffffffffffffffffffffffffffffffffffffff1673ffffffffffffffffffffffffffffffffffffffff16815260200190815260200160002060008473ffffffffffffffffffffffffffffffffffffffff1673ffffffffffffffffffffffffffffffffffffffff168152602001908152602001600020819055508173ffffffffffffffffffffffffffffffffffffffff168373ffffffffffffffffffffffffffffffffffffffff167f8c5be1e5ebec7d5bd14f71427d1e84f3dd0314c0f7b2291e5b200ac8c7c3b9258360405161114b91906120d4565b60405180910390a3505050565b600073ffffffffffffffffffffffffffffffffffffffff168373ffffffffffffffffffffffffffffffffffffffff16036111c7576040517f08c379a00000000000000000000000000000000000000000000000000000000081526004016111be90612534565b60405180910390fd5b600073ffffffffffffffffffffffffffffffffffffffff168273ffffffffffffffffffffffffffffffffffffffff1603611236576040517f08c379a000000000000000000000000000000000000000000000000000000000815260040161122d906125c6565b60405180910390fd5b6000600160008573ffffffffffffffffffffffffffffffffffffffff1673ffffffffffffffffffffffffffffffffffffffff168152602001908152602001600020549050818110156112bd576040517f08c379a00000000000000000000000000000000000000000000000000000000081526004016112b490612658565b60405180910390fd5b6000829050600760008673ffffffffffffffffffffffffffffffffffffffff1673ffffffffffffffffffffffffffffffffffffffff16815260200190815260200160002060009054906101000a900460ff16801561136757507f000000000000000000000000000000000000000000000000000000000000000073ffffffffffffffffffffffffffffffffffffffff168473ffffffffffffffffffffffffffffffffffffffff1614155b806113bb5750600760008573ffffffffffffffffffffffffffffffffffffffff1673ffffffffffffffffffffffffffffffffffffffff16815260200190815260200160002060009054906101000a900460ff165b80156114115750600660008673ffffffffffffffffffffffffffffffffffffffff1673ffffffffffffffffffffffffffffffffffffffff16815260200190815260200160002060009054906101000a900460ff16155b80156114675750600660008573ffffffffffffffffffffffffffffffffffffffff1673ffffffffffffffffffffffffffffffffffffffff16815260200190815260200160002060009054906101000a900460ff16155b15611675576114e56114976103e8611489600a87611a5090919063ffffffff16565b611aca90919063ffffffff16565b600160003073ffffffffffffffffffffffffffffffffffffffff1673ffffffffffffffffffffffffffffffffffffffff16815260200190815260200160002054611b1490919063ffffffff16565b600160003073ffffffffffffffffffffffffffffffffffffffff1673ffffffffffffffffffffffffffffffffffffffff168152602001908152602001600020819055503073ffffffffffffffffffffffffffffffffffffffff168573ffffffffffffffffffffffffffffffffffffffff167fddf252ad1be2c89b69c2b068fc378daa952ba7f163c4a11628f55a4df523b3ef61159f6103e8611591600a89611a5090919063ffffffff16565b611aca90919063ffffffff16565b6040516115ac91906120d4565b60405180910390a36115dd6103de6115cf6103e886611aca90919063ffffffff16565b611a5090919063ffffffff16565b9050600860009054906101000a900460ff161580156116465750600760008673ffffffffffffffffffffffffffffffffffffffff1673ffffffffffffffffffffffffffffffffffffffff16815260200190815260200160002060009054906101000a900460ff16155b15611674576000611656306109ee565b9050678ac7230489e800008111156116725761167181611b72565b5b505b5b6116888383611d7990919063ffffffff16565b600160008773ffffffffffffffffffffffffffffffffffffffff1673ffffffffffffffffffffffffffffffffffffffff1681526020019081526020016000208190555061171d81600160008773ffffffffffffffffffffffffffffffffffffffff1673ffffffffffffffffffffffffffffffffffffffff16815260200190815260200160002054611b1490919063ffffffff16565b600160008673ffffffffffffffffffffffffffffffffffffffff1673ffffffffffffffffffffffffffffffffffffffff168152602001908152602001600020819055508373ffffffffffffffffffffffffffffffffffffffff168573ffffffffffffffffffffffffffffffffffffffff167fddf252ad1be2c89b69c2b068fc378daa952ba7f163c4a11628f55a4df523b3ef836040516117bd91906120d4565b60405180910390a35050505050565b600073ffffffffffffffffffffffffffffffffffffffff168273ffffffffffffffffffffffffffffffffffffffff160361183b576040517f08c379a0000000000000000000000000000000000000000000000000000000008152600401611832906126c4565b60405180910390fd5b6000600160008473ffffffffffffffffffffffffffffffffffffffff1673ffffffffffffffffffffffffffffffffffffffff168152602001908152602001600020549050818110156118c2576040517f08c379a00000000000000000000000000000000000000000000000000000000081526004016118b990612730565b60405180910390fd5b818103600160008573ffffffffffffffffffffffffffffffffffffffff1673ffffffffffffffffffffffffffffffffffffffff16815260200190815260200160002081905550816003600082825461191a9190612750565b92505081905550600073ffffffffffffffffffffffffffffffffffffffff168373ffffffffffffffffffffffffffffffffffffffff167fddf252ad1be2c89b69c2b068fc378daa952ba7f163c4a11628f55a4df523b3ef8460405161197f91906120d4565b60405180910390a3505050565b60008060009054906101000a900473ffffffffffffffffffffffffffffffffffffffff169050816000806101000a81548173ffffffffffffffffffffffffffffffffffffffff021916908373ffffffffffffffffffffffffffffffffffffffff1602179055508173ffffffffffffffffffffffffffffffffffffffff168173ffffffffffffffffffffffffffffffffffffffff167f8be0079c531659141344cd1fd0a4f28419497f9722a3daafe3b4186f6b6457e060405160405180910390a35050565b6000808303611a625760009050611ac4565b60008284611a709190612784565b9050828482611a7f91906127f5565b14611abf576040517f08c379a0000000000000000000000000000000000000000000000000000000008152600401611ab690612898565b60405180910390fd5b809150505b92915050565b6000611b0c83836040518060400160405280601a81526020017f536166654d6174683a206469766973696f6e206279207a65726f000000000000815250611dc3565b905092915050565b6000808284611b2391906122fe565b905083811015611b68576040517f08c379a0000000000000000000000000000000000000000000000000000000008152600401611b5f90612904565b60405180910390fd5b8091505092915050565b6001600860006101000a81548160ff0219169083151502179055506000600267ffffffffffffffff811115611baa57611ba9612924565b5b604051908082528060200260200182016040528015611bd85781602001602082028036833780820191505090505b5090503081600081518110611bf057611bef612953565b5b602002602001019073ffffffffffffffffffffffffffffffffffffffff16908173ffffffffffffffffffffffffffffffffffffffff1681525050600960009054906101000a900473ffffffffffffffffffffffffffffffffffffffff1681600181518110611c6157611c60612953565b5b602002602001019073ffffffffffffffffffffffffffffffffffffffff16908173ffffffffffffffffffffffffffffffffffffffff1681525050611cc6307f00000000000000000000000000000000000000000000000000000000000000008461106d565b7f000000000000000000000000000000000000000000000000000000000000000073ffffffffffffffffffffffffffffffffffffffff16635c11d7958360008430426040518663ffffffff1660e01b8152600401611d28959493929190612a7b565b600060405180830381600087803b158015611d4257600080fd5b505af1158015611d56573d6000803e3d6000fd5b50505050506000600860006101000a81548160ff02191690831515021790555050565b6000611dbb83836040518060400160405280601e81526020017f536166654d6174683a207375627472616374696f6e206f766572666c6f770000815250611e26565b905092915050565b60008083118290611e0a576040517f08c379a0000000000000000000000000000000000000000000000000000000008152600401611e019190611f1a565b60405180910390fd5b5060008385611e1991906127f5565b9050809150509392505050565b6000838311158290611e6e576040517f08c379a0000000000000000000000000000000000000000000000000000000008152600401611e659190611f1a565b60405180910390fd5b5060008385611e7d9190612750565b9050809150509392505050565b600081519050919050565b600082825260208201905092915050565b60005b83811015611ec4578082015181840152602081019050611ea9565b60008484015250505050565b6000601f19601f8301169050919050565b6000611eec82611e8a565b611ef68185611e95565b9350611f06818560208601611ea6565b611f0f81611ed0565b840191505092915050565b60006020820190508181036000830152611f348184611ee1565b905092915050565b600080fd5b600073ffffffffffffffffffffffffffffffffffffffff82169050919050565b6000611f6c82611f41565b9050919050565b611f7c81611f61565b8114611f8757600080fd5b50565b600081359050611f9981611f73565b92915050565b6000819050919050565b611fb281611f9f565b8114611fbd57600080fd5b50565b600081359050611fcf81611fa9565b92915050565b60008060408385031215611fec57611feb611f3c565b5b6000611ffa85828601611f8a565b925050602061200b85828601611fc0565b9150509250929050565b60008115159050919050565b61202a81612015565b82525050565b60006020820190506120456000830184612021565b92915050565b6000819050919050565b600061207061206b61206684611f41565b61204b565b611f41565b9050919050565b600061208282612055565b9050919050565b600061209482612077565b9050919050565b6120a481612089565b82525050565b60006020820190506120bf600083018461209b565b92915050565b6120ce81611f9f565b82525050565b60006020820190506120e960008301846120c5565b92915050565b60008060006060848603121561210857612107611f3c565b5b600061211686828701611f8a565b935050602061212786828701611f8a565b925050604061213886828701611fc0565b9150509250925092565b61214b81611f61565b82525050565b60006020820190506121666000830184612142565b92915050565b600060ff82169050919050565b6121828161216c565b82525050565b600060208201905061219d6000830184612179565b92915050565b6000602082840312156121b9576121b8611f3c565b5b60006121c784828501611fc0565b91505092915050565b6000602082840312156121e6576121e5611f3c565b5b60006121f484828501611f8a565b91505092915050565b6000806040838503121561221457612213611f3c565b5b600061222285828601611f8a565b925050602061223385828601611f8a565b9150509250929050565b7f4245453a207472616e7366657220616d6f756e74206578636565647320616c6c60008201527f6f77616e63650000000000000000000000000000000000000000000000000000602082015250565b6000612299602683611e95565b91506122a48261223d565b604082019050919050565b600060208201905081810360008301526122c88161228c565b9050919050565b7f4e487b7100000000000000000000000000000000000000000000000000000000600052601160045260246000fd5b600061230982611f9f565b915061231483611f9f565b925082820190508082111561232c5761232b6122cf565b5b92915050565b7f4f776e61626c653a2063616c6c6572206973206e6f7420746865206f776e6572600082015250565b6000612368602083611e95565b915061237382612332565b602082019050919050565b600060208201905081810360008301526123978161235b565b9050919050565b7f4245453a2064656372656173656420616c6c6f77616e63652062656c6f77207a60008201527f65726f0000000000000000000000000000000000000000000000000000000000602082015250565b60006123fa602383611e95565b91506124058261239e565b604082019050919050565b60006020820190508181036000830152612429816123ed565b9050919050565b7f4f776e61626c653a206e6577206f776e657220697320746865207a65726f206160008201527f6464726573730000000000000000000000000000000000000000000000000000602082015250565b600061248c602683611e95565b915061249782612430565b604082019050919050565b600060208201905081810360008301526124bb8161247f565b9050919050565b7f4245453a207472616e736665722066726f6d20746865207a65726f206164647260008201527f6573730000000000000000000000000000000000000000000000000000000000602082015250565b600061251e602383611e95565b9150612529826124c2565b604082019050919050565b6000602082019050818103600083015261254d81612511565b9050919050565b7f4245453a207472616e7366657220746f20746865207a65726f2061646472657360008201527f7300000000000000000000000000000000000000000000000000000000000000602082015250565b60006125b0602183611e95565b91506125bb82612554565b604082019050919050565b600060208201905081810360008301526125df816125a3565b9050919050565b7f4245453a207472616e7366657220616d6f756e7420657863656564732062616c60008201527f616e636500000000000000000000000000000000000000000000000000000000602082015250565b6000612642602483611e95565b915061264d826125e6565b604082019050919050565b6000602082019050818103600083015261267181612635565b9050919050565b7f4245453a206275726e2066726f6d20746865207a65726f206164647265737300600082015250565b60006126ae601f83611e95565b91506126b982612678565b602082019050919050565b600060208201905081810360008301526126dd816126a1565b9050919050565b7f4245453a206275726e20616d6f756e7420657863656564732062616c616e6365600082015250565b600061271a602083611e95565b9150612725826126e4565b602082019050919050565b600060208201905081810360008301526127498161270d565b9050919050565b600061275b82611f9f565b915061276683611f9f565b925082820390508181111561277e5761277d6122cf565b5b92915050565b600061278f82611f9f565b915061279a83611f9f565b92508282026127a881611f9f565b915082820484148315176127bf576127be6122cf565b5b5092915050565b7f4e487b7100000000000000000000000000000000000000000000000000000000600052601260045260246000fd5b600061280082611f9f565b915061280b83611f9f565b92508261281b5761281a6127c6565b5b828204905092915050565b7f536166654d6174683a206d756c7469706c69636174696f6e206f766572666c6f60008201527f7700000000000000000000000000000000000000000000000000000000000000602082015250565b6000612882602183611e95565b915061288d82612826565b604082019050919050565b600060208201905081810360008301526128b181612875565b9050919050565b7f536166654d6174683a206164646974696f6e206f766572666c6f770000000000600082015250565b60006128ee601b83611e95565b91506128f9826128b8565b602082019050919050565b6000602082019050818103600083015261291d816128e1565b9050919050565b7f4e487b7100000000000000000000000000000000000000000000000000000000600052604160045260246000fd5b7f4e487b7100000000000000000000000000000000000000000000000000000000600052603260045260246000fd5b6000819050919050565b60006129a76129a261299d84612982565b61204b565b611f9f565b9050919050565b6129b78161298c565b82525050565b600081519050919050565b600082825260208201905092915050565b6000819050602082019050919050565b6129f281611f61565b82525050565b6000612a0483836129e9565b60208301905092915050565b6000602082019050919050565b6000612a28826129bd565b612a3281856129c8565b9350612a3d836129d9565b8060005b83811015612a6e578151612a5588826129f8565b9750612a6083612a10565b925050600181019050612a41565b5085935050505092915050565b600060a082019050612a9060008301886120c5565b612a9d60208301876129ae565b8181036040830152612aaf8186612a1d565b9050612abe6060830185612142565b612acb60808301846120c5565b969550505050505056fea26469706673582212208186539ad6ed100ec212135feeb7d9b0f4ff4729fd52163e15fddc8835f8d83064736f6c63430008110033",
					"opcodes": "PUSH1 0xE0 PUSH1 0x40 MSTORE PUSH20 0xD3C0B6AA1538D639912789BE705F18B5FD89FCE6 PUSH1 0x8 PUSH1 0x1 PUSH2 0x100 EXP DUP2 SLOAD DUP2 PUSH20 0xFFFFFFFFFFFFFFFFFFFFFFFFFFFFFFFFFFFFFFFF MUL NOT AND SWAP1 DUP4 PUSH20 0xFFFFFFFFFFFFFFFFFFFFFFFFFFFFFFFFFFFFFFFF AND MUL OR SWAP1 SSTORE POP PUSH20 0x55D398326F99059FF775485246999027B3197955 PUSH1 0x9 PUSH1 0x0 PUSH2 0x100 EXP DUP2 SLOAD DUP2 PUSH20 0xFFFFFFFFFFFFFFFFFFFFFFFFFFFFFFFFFFFFFFFF MUL NOT AND SWAP1 DUP4 PUSH20 0xFFFFFFFFFFFFFFFFFFFFFFFFFFFFFFFFFFFFFFFF AND MUL OR SWAP1 SSTORE POP CALLVALUE DUP1 ISZERO PUSH3 0xBB JUMPI PUSH1 0x0 DUP1 REVERT JUMPDEST POP PUSH3 0xDC PUSH3 0xD0 PUSH3 0x573 PUSH1 0x20 SHL PUSH1 0x20 SHR JUMP JUMPDEST PUSH3 0x57B PUSH1 0x20 SHL PUSH1 0x20 SHR JUMP JUMPDEST PUSH3 0x108 PUSH3 0xF0 PUSH3 0x573 PUSH1 0x20 SHL PUSH1 0x20 SHR JUMP JUMPDEST PUSH11 0x878678326EAC900000000 PUSH3 0x63F PUSH1 0x20 SHL PUSH1 0x20 SHR JUMP JUMPDEST PUSH3 0x118 PUSH3 0x573 PUSH1 0x20 SHL PUSH1 0x20 SHR JUMP JUMPDEST PUSH20 0xFFFFFFFFFFFFFFFFFFFFFFFFFFFFFFFFFFFFFFFF AND PUSH1 0x0 PUSH20 0xFFFFFFFFFFFFFFFFFFFFFFFFFFFFFFFFFFFFFFFF AND PUSH32 0xDDF252AD1BE2C89B69C2B068FC378DAA952BA7F163C4A11628F55A4DF523B3EF PUSH11 0x878678326EAC900000000 PUSH1 0x40 MLOAD PUSH3 0x182 SWAP2 SWAP1 PUSH3 0x775 JUMP JUMPDEST PUSH1 0x40 MLOAD DUP1 SWAP2 SUB SWAP1 LOG3 PUSH1 0x0 PUSH20 0x10ED43C718714EB63D5AA57B78B54704E256024E SWAP1 POP DUP1 PUSH20 0xFFFFFFFFFFFFFFFFFFFFFFFFFFFFFFFFFFFFFFFF AND PUSH4 0xC45A0155 PUSH1 0x40 MLOAD DUP2 PUSH4 0xFFFFFFFF AND PUSH1 0xE0 SHL DUP2 MSTORE PUSH1 0x4 ADD PUSH1 0x20 PUSH1 0x40 MLOAD DUP1 DUP4 SUB DUP2 DUP7 GAS STATICCALL ISZERO DUP1 ISZERO PUSH3 0x1EF JUMPI RETURNDATASIZE PUSH1 0x0 DUP1 RETURNDATACOPY RETURNDATASIZE PUSH1 0x0 REVERT JUMPDEST POP POP POP POP PUSH1 0x40 MLOAD RETURNDATASIZE PUSH1 0x1F NOT PUSH1 0x1F DUP3 ADD AND DUP3 ADD DUP1 PUSH1 0x40 MSTORE POP DUP2 ADD SWAP1 PUSH3 0x215 SWAP2 SWAP1 PUSH3 0x7FC JUMP JUMPDEST PUSH20 0xFFFFFFFFFFFFFFFFFFFFFFFFFFFFFFFFFFFFFFFF AND PUSH4 0xC9C65396 ADDRESS DUP4 PUSH20 0xFFFFFFFFFFFFFFFFFFFFFFFFFFFFFFFFFFFFFFFF AND PUSH4 0xAD5C4648 PUSH1 0x40 MLOAD DUP2 PUSH4 0xFFFFFFFF AND PUSH1 0xE0 SHL DUP2 MSTORE PUSH1 0x4 ADD PUSH1 0x20 PUSH1 0x40 MLOAD DUP1 DUP4 SUB DUP2 DUP7 GAS STATICCALL ISZERO DUP1 ISZERO PUSH3 0x27D JUMPI RETURNDATASIZE PUSH1 0x0 DUP1 RETURNDATACOPY RETURNDATASIZE PUSH1 0x0 REVERT JUMPDEST POP POP POP POP PUSH1 0x40 MLOAD RETURNDATASIZE PUSH1 0x1F NOT PUSH1 0x1F DUP3 ADD AND DUP3 ADD DUP1 PUSH1 0x40 MSTORE POP DUP2 ADD SWAP1 PUSH3 0x2A3 SWAP2 SWAP1 PUSH3 0x7FC JUMP JUMPDEST PUSH1 0x40 MLOAD DUP4 PUSH4 0xFFFFFFFF AND PUSH1 0xE0 SHL DUP2 MSTORE PUSH1 0x4 ADD PUSH3 0x2C2 SWAP3 SWAP2 SWAP1 PUSH3 0x83F JUMP JUMPDEST PUSH1 0x20 PUSH1 0x40 MLOAD DUP1 DUP4 SUB DUP2 PUSH1 0x0 DUP8 GAS CALL ISZERO DUP1 ISZERO PUSH3 0x2E2 JUMPI RETURNDATASIZE PUSH1 0x0 DUP1 RETURNDATACOPY RETURNDATASIZE PUSH1 0x0 REVERT JUMPDEST POP POP POP POP PUSH1 0x40 MLOAD RETURNDATASIZE PUSH1 0x1F NOT PUSH1 0x1F DUP3 ADD AND DUP3 ADD DUP1 PUSH1 0x40 MSTORE POP DUP2 ADD SWAP1 PUSH3 0x308 SWAP2 SWAP1 PUSH3 0x7FC JUMP JUMPDEST PUSH20 0xFFFFFFFFFFFFFFFFFFFFFFFFFFFFFFFFFFFFFFFF AND PUSH1 0xA0 DUP2 PUSH20 0xFFFFFFFFFFFFFFFFFFFFFFFFFFFFFFFFFFFFFFFF AND DUP2 MSTORE POP POP DUP1 PUSH20 0xFFFFFFFFFFFFFFFFFFFFFFFFFFFFFFFFFFFFFFFF AND PUSH4 0xC45A0155 PUSH1 0x40 MLOAD DUP2 PUSH4 0xFFFFFFFF AND PUSH1 0xE0 SHL DUP2 MSTORE PUSH1 0x4 ADD PUSH1 0x20 PUSH1 0x40 MLOAD DUP1 DUP4 SUB DUP2 DUP7 GAS STATICCALL ISZERO DUP1 ISZERO PUSH3 0x387 JUMPI RETURNDATASIZE PUSH1 0x0 DUP1 RETURNDATACOPY RETURNDATASIZE PUSH1 0x0 REVERT JUMPDEST POP POP POP POP PUSH1 0x40 MLOAD RETURNDATASIZE PUSH1 0x1F NOT PUSH1 0x1F DUP3 ADD AND DUP3 ADD DUP1 PUSH1 0x40 MSTORE POP DUP2 ADD SWAP1 PUSH3 0x3AD SWAP2 SWAP1 PUSH3 0x7FC JUMP JUMPDEST PUSH20 0xFFFFFFFFFFFFFFFFFFFFFFFFFFFFFFFFFFFFFFFF AND PUSH4 0xC9C65396 ADDRESS PUSH1 0x9 PUSH1 0x0 SWAP1 SLOAD SWAP1 PUSH2 0x100 EXP SWAP1 DIV PUSH20 0xFFFFFFFFFFFFFFFFFFFFFFFFFFFFFFFFFFFFFFFF AND PUSH1 0x40 MLOAD DUP4 PUSH4 0xFFFFFFFF AND PUSH1 0xE0 SHL DUP2 MSTORE PUSH1 0x4 ADD PUSH3 0x40B SWAP3 SWAP2 SWAP1 PUSH3 0x83F JUMP JUMPDEST PUSH1 0x20 PUSH1 0x40 MLOAD DUP1 DUP4 SUB DUP2 PUSH1 0x0 DUP8 GAS CALL ISZERO DUP1 ISZERO PUSH3 0x42B JUMPI RETURNDATASIZE PUSH1 0x0 DUP1 RETURNDATACOPY RETURNDATASIZE PUSH1 0x0 REVERT JUMPDEST POP POP POP POP PUSH1 0x40 MLOAD RETURNDATASIZE PUSH1 0x1F NOT PUSH1 0x1F DUP3 ADD AND DUP3 ADD DUP1 PUSH1 0x40 MSTORE POP DUP2 ADD SWAP1 PUSH3 0x451 SWAP2 SWAP1 PUSH3 0x7FC JUMP JUMPDEST PUSH20 0xFFFFFFFFFFFFFFFFFFFFFFFFFFFFFFFFFFFFFFFF AND PUSH1 0xC0 DUP2 PUSH20 0xFFFFFFFFFFFFFFFFFFFFFFFFFFFFFFFFFFFFFFFF AND DUP2 MSTORE POP POP DUP1 PUSH20 0xFFFFFFFFFFFFFFFFFFFFFFFFFFFFFFFFFFFFFFFF AND PUSH1 0x80 DUP2 PUSH20 0xFFFFFFFFFFFFFFFFFFFFFFFFFFFFFFFFFFFFFFFF AND DUP2 MSTORE POP POP PUSH1 0x1 PUSH1 0x7 PUSH1 0x0 PUSH1 0xA0 MLOAD PUSH20 0xFFFFFFFFFFFFFFFFFFFFFFFFFFFFFFFFFFFFFFFF AND PUSH20 0xFFFFFFFFFFFFFFFFFFFFFFFFFFFFFFFFFFFFFFFF AND DUP2 MSTORE PUSH1 0x20 ADD SWAP1 DUP2 MSTORE PUSH1 0x20 ADD PUSH1 0x0 KECCAK256 PUSH1 0x0 PUSH2 0x100 EXP DUP2 SLOAD DUP2 PUSH1 0xFF MUL NOT AND SWAP1 DUP4 ISZERO ISZERO MUL OR SWAP1 SSTORE POP PUSH1 0x1 PUSH1 0x7 PUSH1 0x0 PUSH1 0xC0 MLOAD PUSH20 0xFFFFFFFFFFFFFFFFFFFFFFFFFFFFFFFFFFFFFFFF AND PUSH20 0xFFFFFFFFFFFFFFFFFFFFFFFFFFFFFFFFFFFFFFFF AND DUP2 MSTORE PUSH1 0x20 ADD SWAP1 DUP2 MSTORE PUSH1 0x20 ADD PUSH1 0x0 KECCAK256 PUSH1 0x0 PUSH2 0x100 EXP DUP2 SLOAD DUP2 PUSH1 0xFF MUL NOT AND SWAP1 DUP4 ISZERO ISZERO MUL OR SWAP1 SSTORE POP POP PUSH3 0x904 JUMP JUMPDEST PUSH1 0x0 CALLER SWAP1 POP SWAP1 JUMP JUMPDEST PUSH1 0x0 DUP1 PUSH1 0x0 SWAP1 SLOAD SWAP1 PUSH2 0x100 EXP SWAP1 DIV PUSH20 0xFFFFFFFFFFFFFFFFFFFFFFFFFFFFFFFFFFFFFFFF AND SWAP1 POP DUP2 PUSH1 0x0 DUP1 PUSH2 0x100 EXP DUP2 SLOAD DUP2 PUSH20 0xFFFFFFFFFFFFFFFFFFFFFFFFFFFFFFFFFFFFFFFF MUL NOT AND SWAP1 DUP4 PUSH20 0xFFFFFFFFFFFFFFFFFFFFFFFFFFFFFFFFFFFFFFFF AND MUL OR SWAP1 SSTORE POP DUP2 PUSH20 0xFFFFFFFFFFFFFFFFFFFFFFFFFFFFFFFFFFFFFFFF AND DUP2 PUSH20 0xFFFFFFFFFFFFFFFFFFFFFFFFFFFFFFFFFFFFFFFF AND PUSH32 0x8BE0079C531659141344CD1FD0A4F28419497F9722A3DAAFE3B4186F6B6457E0 PUSH1 0x40 MLOAD PUSH1 0x40 MLOAD DUP1 SWAP2 SUB SWAP1 LOG3 POP POP JUMP JUMPDEST DUP1 PUSH1 0x1 PUSH1 0x0 DUP5 PUSH20 0xFFFFFFFFFFFFFFFFFFFFFFFFFFFFFFFFFFFFFFFF AND PUSH20 0xFFFFFFFFFFFFFFFFFFFFFFFFFFFFFFFFFFFFFFFF AND DUP2 MSTORE PUSH1 0x20 ADD SWAP1 DUP2 MSTORE PUSH1 0x20 ADD PUSH1 0x0 KECCAK256 PUSH1 0x0 DUP3 DUP3 SLOAD PUSH3 0x690 SWAP2 SWAP1 PUSH3 0x89B JUMP JUMPDEST SWAP3 POP POP DUP2 SWAP1 SSTORE POP DUP1 PUSH1 0x3 PUSH1 0x0 DUP3 DUP3 SLOAD PUSH3 0x6AB SWAP2 SWAP1 PUSH3 0x89B JUMP JUMPDEST SWAP3 POP POP DUP2 SWAP1 SSTORE POP DUP2 PUSH20 0xFFFFFFFFFFFFFFFFFFFFFFFFFFFFFFFFFFFFFFFF AND PUSH1 0x0 PUSH20 0xFFFFFFFFFFFFFFFFFFFFFFFFFFFFFFFFFFFFFFFF AND PUSH32 0xDDF252AD1BE2C89B69C2B068FC378DAA952BA7F163C4A11628F55A4DF523B3EF DUP4 PUSH1 0x40 MLOAD PUSH3 0x712 SWAP2 SWAP1 PUSH3 0x8E7 JUMP JUMPDEST PUSH1 0x40 MLOAD DUP1 SWAP2 SUB SWAP1 LOG3 POP POP JUMP JUMPDEST PUSH1 0x0 DUP2 SWAP1 POP SWAP2 SWAP1 POP JUMP JUMPDEST PUSH1 0x0 DUP2 SWAP1 POP SWAP2 SWAP1 POP JUMP JUMPDEST PUSH1 0x0 DUP2 SWAP1 POP SWAP2 SWAP1 POP JUMP JUMPDEST PUSH1 0x0 PUSH3 0x75D PUSH3 0x757 PUSH3 0x751 DUP5 PUSH3 0x71E JUMP JUMPDEST PUSH3 0x732 JUMP JUMPDEST PUSH3 0x728 JUMP JUMPDEST SWAP1 POP SWAP2 SWAP1 POP JUMP JUMPDEST PUSH3 0x76F DUP2 PUSH3 0x73C JUMP JUMPDEST DUP3 MSTORE POP POP JUMP JUMPDEST PUSH1 0x0 PUSH1 0x20 DUP3 ADD SWAP1 POP PUSH3 0x78C PUSH1 0x0 DUP4 ADD DUP5 PUSH3 0x764 JUMP JUMPDEST SWAP3 SWAP2 POP POP JUMP JUMPDEST PUSH1 0x0 DUP1 REVERT JUMPDEST PUSH1 0x0 PUSH20 0xFFFFFFFFFFFFFFFFFFFFFFFFFFFFFFFFFFFFFFFF DUP3 AND SWAP1 POP SWAP2 SWAP1 POP JUMP JUMPDEST PUSH1 0x0 PUSH3 0x7C4 DUP3 PUSH3 0x797 JUMP JUMPDEST SWAP1 POP SWAP2 SWAP1 POP JUMP JUMPDEST PUSH3 0x7D6 DUP2 PUSH3 0x7B7 JUMP JUMPDEST DUP2 EQ PUSH3 0x7E2 JUMPI PUSH1 0x0 DUP1 REVERT JUMPDEST POP JUMP JUMPDEST PUSH1 0x0 DUP2 MLOAD SWAP1 POP PUSH3 0x7F6 DUP2 PUSH3 0x7CB JUMP JUMPDEST SWAP3 SWAP2 POP POP JUMP JUMPDEST PUSH1 0x0 PUSH1 0x20 DUP3 DUP5 SUB SLT ISZERO PUSH3 0x815 JUMPI PUSH3 0x814 PUSH3 0x792 JUMP JUMPDEST JUMPDEST PUSH1 0x0 PUSH3 0x825 DUP5 DUP3 DUP6 ADD PUSH3 0x7E5 JUMP JUMPDEST SWAP2 POP POP SWAP3 SWAP2 POP POP JUMP JUMPDEST PUSH3 0x839 DUP2 PUSH3 0x7B7 JUMP JUMPDEST DUP3 MSTORE POP POP JUMP JUMPDEST PUSH1 0x0 PUSH1 0x40 DUP3 ADD SWAP1 POP PUSH3 0x856 PUSH1 0x0 DUP4 ADD DUP6 PUSH3 0x82E JUMP JUMPDEST PUSH3 0x865 PUSH1 0x20 DUP4 ADD DUP5 PUSH3 0x82E JUMP JUMPDEST SWAP4 SWAP3 POP POP POP JUMP JUMPDEST PUSH32 0x4E487B7100000000000000000000000000000000000000000000000000000000 PUSH1 0x0 MSTORE PUSH1 0x11 PUSH1 0x4 MSTORE PUSH1 0x24 PUSH1 0x0 REVERT JUMPDEST PUSH1 0x0 PUSH3 0x8A8 DUP3 PUSH3 0x728 JUMP JUMPDEST SWAP2 POP PUSH3 0x8B5 DUP4 PUSH3 0x728 JUMP JUMPDEST SWAP3 POP DUP3 DUP3 ADD SWAP1 POP DUP1 DUP3 GT ISZERO PUSH3 0x8D0 JUMPI PUSH3 0x8CF PUSH3 0x86C JUMP JUMPDEST JUMPDEST SWAP3 SWAP2 POP POP JUMP JUMPDEST PUSH3 0x8E1 DUP2 PUSH3 0x728 JUMP JUMPDEST DUP3 MSTORE POP POP JUMP JUMPDEST PUSH1 0x0 PUSH1 0x20 DUP3 ADD SWAP1 POP PUSH3 0x8FE PUSH1 0x0 DUP4 ADD DUP5 PUSH3 0x8D6 JUMP JUMPDEST SWAP3 SWAP2 POP POP JUMP JUMPDEST PUSH1 0x80 MLOAD PUSH1 0xA0 MLOAD PUSH1 0xC0 MLOAD PUSH2 0x2B0B PUSH3 0x949 PUSH1 0x0 CODECOPY PUSH1 0x0 PUSH2 0x758 ADD MSTORE PUSH1 0x0 PUSH2 0x845 ADD MSTORE PUSH1 0x0 DUP2 DUP2 PUSH2 0x632 ADD MSTORE DUP2 DUP2 PUSH2 0x1318 ADD MSTORE DUP2 DUP2 PUSH2 0x1CA1 ADD MSTORE PUSH2 0x1CC8 ADD MSTORE PUSH2 0x2B0B PUSH1 0x0 RETURN INVALID PUSH1 0x80 PUSH1 0x40 MSTORE PUSH1 0x4 CALLDATASIZE LT PUSH2 0x14F JUMPI PUSH1 0x0 CALLDATALOAD PUSH1 0xE0 SHR DUP1 PUSH4 0x715018A6 GT PUSH2 0xB6 JUMPI DUP1 PUSH4 0xA8808FCC GT PUSH2 0x6F JUMPI DUP1 PUSH4 0xA8808FCC EQ PUSH2 0x4A3 JUMPI DUP1 PUSH4 0xA9059CBB EQ PUSH2 0x4CC JUMPI DUP1 PUSH4 0xDD62ED3E EQ PUSH2 0x509 JUMPI DUP1 PUSH4 0xDEC1A6F6 EQ PUSH2 0x546 JUMPI DUP1 PUSH4 0xF2FDE38B EQ PUSH2 0x583 JUMPI DUP1 PUSH4 0xFAE92612 EQ PUSH2 0x5AC JUMPI PUSH2 0x156 JUMP JUMPDEST DUP1 PUSH4 0x715018A6 EQ PUSH2 0x3A3 JUMPI DUP1 PUSH4 0x88AF60C6 EQ PUSH2 0x3BA JUMPI DUP1 PUSH4 0x8DA5CB5B EQ PUSH2 0x3E5 JUMPI DUP1 PUSH4 0x95623641 EQ PUSH2 0x410 JUMPI DUP1 PUSH4 0x95D89B41 EQ PUSH2 0x43B JUMPI DUP1 PUSH4 0xA457C2D7 EQ PUSH2 0x466 JUMPI PUSH2 0x156 JUMP JUMPDEST DUP1 PUSH4 0x313CE567 GT PUSH2 0x108 JUMPI DUP1 PUSH4 0x313CE567 EQ PUSH2 0x281 JUMPI DUP1 PUSH4 0x39509351 EQ PUSH2 0x2AC JUMPI DUP1 PUSH4 0x42966C68 EQ PUSH2 0x2E9 JUMPI DUP1 PUSH4 0x49BD5A5E EQ PUSH2 0x312 JUMPI DUP1 PUSH4 0x536DB266 EQ PUSH2 0x33D JUMPI DUP1 PUSH4 0x70A08231 EQ PUSH2 0x366 JUMPI PUSH2 0x156 JUMP JUMPDEST DUP1 PUSH4 0x6FDDE03 EQ PUSH2 0x15B JUMPI DUP1 PUSH4 0x95EA7B3 EQ PUSH2 0x186 JUMPI DUP1 PUSH4 0x1694505E EQ PUSH2 0x1C3 JUMPI DUP1 PUSH4 0x18160DDD EQ PUSH2 0x1EE JUMPI DUP1 PUSH4 0x23B872DD EQ PUSH2 0x219 JUMPI DUP1 PUSH4 0x2AAFA283 EQ PUSH2 0x256 JUMPI PUSH2 0x156 JUMP JUMPDEST CALLDATASIZE PUSH2 0x156 JUMPI STOP JUMPDEST PUSH1 0x0 DUP1 REVERT JUMPDEST CALLVALUE DUP1 ISZERO PUSH2 0x167 JUMPI PUSH1 0x0 DUP1 REVERT JUMPDEST POP PUSH2 0x170 PUSH2 0x5D5 JUMP JUMPDEST PUSH1 0x40 MLOAD PUSH2 0x17D SWAP2 SWAP1 PUSH2 0x1F1A JUMP JUMPDEST PUSH1 0x40 MLOAD DUP1 SWAP2 SUB SWAP1 RETURN JUMPDEST CALLVALUE DUP1 ISZERO PUSH2 0x192 JUMPI PUSH1 0x0 DUP1 REVERT JUMPDEST POP PUSH2 0x1AD PUSH1 0x4 DUP1 CALLDATASIZE SUB DUP2 ADD SWAP1 PUSH2 0x1A8 SWAP2 SWAP1 PUSH2 0x1FD5 JUMP JUMPDEST PUSH2 0x612 JUMP JUMPDEST PUSH1 0x40 MLOAD PUSH2 0x1BA SWAP2 SWAP1 PUSH2 0x2030 JUMP JUMPDEST PUSH1 0x40 MLOAD DUP1 SWAP2 SUB SWAP1 RETURN JUMPDEST CALLVALUE DUP1 ISZERO PUSH2 0x1CF JUMPI PUSH1 0x0 DUP1 REVERT JUMPDEST POP PUSH2 0x1D8 PUSH2 0x630 JUMP JUMPDEST PUSH1 0x40 MLOAD PUSH2 0x1E5 SWAP2 SWAP1 PUSH2 0x20AA JUMP JUMPDEST PUSH1 0x40 MLOAD DUP1 SWAP2 SUB SWAP1 RETURN JUMPDEST CALLVALUE DUP1 ISZERO PUSH2 0x1FA JUMPI PUSH1 0x0 DUP1 REVERT JUMPDEST POP PUSH2 0x203 PUSH2 0x654 JUMP JUMPDEST PUSH1 0x40 MLOAD PUSH2 0x210 SWAP2 SWAP1 PUSH2 0x20D4 JUMP JUMPDEST PUSH1 0x40 MLOAD DUP1 SWAP2 SUB SWAP1 RETURN JUMPDEST CALLVALUE DUP1 ISZERO PUSH2 0x225 JUMPI PUSH1 0x0 DUP1 REVERT JUMPDEST POP PUSH2 0x240 PUSH1 0x4 DUP1 CALLDATASIZE SUB DUP2 ADD SWAP1 PUSH2 0x23B SWAP2 SWAP1 PUSH2 0x20EF JUMP JUMPDEST PUSH2 0x65E JUMP JUMPDEST PUSH1 0x40 MLOAD PUSH2 0x24D SWAP2 SWAP1 PUSH2 0x2030 JUMP JUMPDEST PUSH1 0x40 MLOAD DUP1 SWAP2 SUB SWAP1 RETURN JUMPDEST CALLVALUE DUP1 ISZERO PUSH2 0x262 JUMPI PUSH1 0x0 DUP1 REVERT JUMPDEST POP PUSH2 0x26B PUSH2 0x756 JUMP JUMPDEST PUSH1 0x40 MLOAD PUSH2 0x278 SWAP2 SWAP1 PUSH2 0x2151 JUMP JUMPDEST PUSH1 0x40 MLOAD DUP1 SWAP2 SUB SWAP1 RETURN JUMPDEST CALLVALUE DUP1 ISZERO PUSH2 0x28D JUMPI PUSH1 0x0 DUP1 REVERT JUMPDEST POP PUSH2 0x296 PUSH2 0x77A JUMP JUMPDEST PUSH1 0x40 MLOAD PUSH2 0x2A3 SWAP2 SWAP1 PUSH2 0x2188 JUMP JUMPDEST PUSH1 0x40 MLOAD DUP1 SWAP2 SUB SWAP1 RETURN JUMPDEST CALLVALUE DUP1 ISZERO PUSH2 0x2B8 JUMPI PUSH1 0x0 DUP1 REVERT JUMPDEST POP PUSH2 0x2D3 PUSH1 0x4 DUP1 CALLDATASIZE SUB DUP2 ADD SWAP1 PUSH2 0x2CE SWAP2 SWAP1 PUSH2 0x1FD5 JUMP JUMPDEST PUSH2 0x783 JUMP JUMPDEST PUSH1 0x40 MLOAD PUSH2 0x2E0 SWAP2 SWAP1 PUSH2 0x2030 JUMP JUMPDEST PUSH1 0x40 MLOAD DUP1 SWAP2 SUB SWAP1 RETURN JUMPDEST CALLVALUE DUP1 ISZERO PUSH2 0x2F5 JUMPI PUSH1 0x0 DUP1 REVERT JUMPDEST POP PUSH2 0x310 PUSH1 0x4 DUP1 CALLDATASIZE SUB DUP2 ADD SWAP1 PUSH2 0x30B SWAP2 SWAP1 PUSH2 0x21A3 JUMP JUMPDEST PUSH2 0x82F JUMP JUMPDEST STOP JUMPDEST CALLVALUE DUP1 ISZERO PUSH2 0x31E JUMPI PUSH1 0x0 DUP1 REVERT JUMPDEST POP PUSH2 0x327 PUSH2 0x843 JUMP JUMPDEST PUSH1 0x40 MLOAD PUSH2 0x334 SWAP2 SWAP1 PUSH2 0x2151 JUMP JUMPDEST PUSH1 0x40 MLOAD DUP1 SWAP2 SUB SWAP1 RETURN JUMPDEST CALLVALUE DUP1 ISZERO PUSH2 0x349 JUMPI PUSH1 0x0 DUP1 REVERT JUMPDEST POP PUSH2 0x364 PUSH1 0x4 DUP1 CALLDATASIZE SUB DUP2 ADD SWAP1 PUSH2 0x35F SWAP2 SWAP1 PUSH2 0x21D0 JUMP JUMPDEST PUSH2 0x867 JUMP JUMPDEST STOP JUMPDEST CALLVALUE DUP1 ISZERO PUSH2 0x372 JUMPI PUSH1 0x0 DUP1 REVERT JUMPDEST POP PUSH2 0x38D PUSH1 0x4 DUP1 CALLDATASIZE SUB DUP2 ADD SWAP1 PUSH2 0x388 SWAP2 SWAP1 PUSH2 0x21D0 JUMP JUMPDEST PUSH2 0x9EE JUMP JUMPDEST PUSH1 0x40 MLOAD PUSH2 0x39A SWAP2 SWAP1 PUSH2 0x20D4 JUMP JUMPDEST PUSH1 0x40 MLOAD DUP1 SWAP2 SUB SWAP1 RETURN JUMPDEST CALLVALUE DUP1 ISZERO PUSH2 0x3AF JUMPI PUSH1 0x0 DUP1 REVERT JUMPDEST POP PUSH2 0x3B8 PUSH2 0xA37 JUMP JUMPDEST STOP JUMPDEST CALLVALUE DUP1 ISZERO PUSH2 0x3C6 JUMPI PUSH1 0x0 DUP1 REVERT JUMPDEST POP PUSH2 0x3CF PUSH2 0xABF JUMP JUMPDEST PUSH1 0x40 MLOAD PUSH2 0x3DC SWAP2 SWAP1 PUSH2 0x2151 JUMP JUMPDEST PUSH1 0x40 MLOAD DUP1 SWAP2 SUB SWAP1 RETURN JUMPDEST CALLVALUE DUP1 ISZERO PUSH2 0x3F1 JUMPI PUSH1 0x0 DUP1 REVERT JUMPDEST POP PUSH2 0x3FA PUSH2 0xAE5 JUMP JUMPDEST PUSH1 0x40 MLOAD PUSH2 0x407 SWAP2 SWAP1 PUSH2 0x2151 JUMP JUMPDEST PUSH1 0x40 MLOAD DUP1 SWAP2 SUB SWAP1 RETURN JUMPDEST CALLVALUE DUP1 ISZERO PUSH2 0x41C JUMPI PUSH1 0x0 DUP1 REVERT JUMPDEST POP PUSH2 0x425 PUSH2 0xB0E JUMP JUMPDEST PUSH1 0x40 MLOAD PUSH2 0x432 SWAP2 SWAP1 PUSH2 0x2151 JUMP JUMPDEST PUSH1 0x40 MLOAD DUP1 SWAP2 SUB SWAP1 RETURN JUMPDEST CALLVALUE DUP1 ISZERO PUSH2 0x447 JUMPI PUSH1 0x0 DUP1 REVERT JUMPDEST POP PUSH2 0x450 PUSH2 0xB34 JUMP JUMPDEST PUSH1 0x40 MLOAD PUSH2 0x45D SWAP2 SWAP1 PUSH2 0x1F1A JUMP JUMPDEST PUSH1 0x40 MLOAD DUP1 SWAP2 SUB SWAP1 RETURN JUMPDEST CALLVALUE DUP1 ISZERO PUSH2 0x472 JUMPI PUSH1 0x0 DUP1 REVERT JUMPDEST POP PUSH2 0x48D PUSH1 0x4 DUP1 CALLDATASIZE SUB DUP2 ADD SWAP1 PUSH2 0x488 SWAP2 SWAP1 PUSH2 0x1FD5 JUMP JUMPDEST PUSH2 0xB71 JUMP JUMPDEST PUSH1 0x40 MLOAD PUSH2 0x49A SWAP2 SWAP1 PUSH2 0x2030 JUMP JUMPDEST PUSH1 0x40 MLOAD DUP1 SWAP2 SUB SWAP1 RETURN JUMPDEST CALLVALUE DUP1 ISZERO PUSH2 0x4AF JUMPI PUSH1 0x0 DUP1 REVERT JUMPDEST POP PUSH2 0x4CA PUSH1 0x4 DUP1 CALLDATASIZE SUB DUP2 ADD SWAP1 PUSH2 0x4C5 SWAP2 SWAP1 PUSH2 0x21D0 JUMP JUMPDEST PUSH2 0xC5C JUMP JUMPDEST STOP JUMPDEST CALLVALUE DUP1 ISZERO PUSH2 0x4D8 JUMPI PUSH1 0x0 DUP1 REVERT JUMPDEST POP PUSH2 0x4F3 PUSH1 0x4 DUP1 CALLDATASIZE SUB DUP2 ADD SWAP1 PUSH2 0x4EE SWAP2 SWAP1 PUSH2 0x1FD5 JUMP JUMPDEST PUSH2 0xDE9 JUMP JUMPDEST PUSH1 0x40 MLOAD PUSH2 0x500 SWAP2 SWAP1 PUSH2 0x2030 JUMP JUMPDEST PUSH1 0x40 MLOAD DUP1 SWAP2 SUB SWAP1 RETURN JUMPDEST CALLVALUE DUP1 ISZERO PUSH2 0x515 JUMPI PUSH1 0x0 DUP1 REVERT JUMPDEST POP PUSH2 0x530 PUSH1 0x4 DUP1 CALLDATASIZE SUB DUP2 ADD SWAP1 PUSH2 0x52B SWAP2 SWAP1 PUSH2 0x21FD JUMP JUMPDEST PUSH2 0xE07 JUMP JUMPDEST PUSH1 0x40 MLOAD PUSH2 0x53D SWAP2 SWAP1 PUSH2 0x20D4 JUMP JUMPDEST PUSH1 0x40 MLOAD DUP1 SWAP2 SUB SWAP1 RETURN JUMPDEST CALLVALUE DUP1 ISZERO PUSH2 0x552 JUMPI PUSH1 0x0 DUP1 REVERT JUMPDEST POP PUSH2 0x56D PUSH1 0x4 DUP1 CALLDATASIZE SUB DUP2 ADD SWAP1 PUSH2 0x568 SWAP2 SWAP1 PUSH2 0x21D0 JUMP JUMPDEST PUSH2 0xE8E JUMP JUMPDEST PUSH1 0x40 MLOAD PUSH2 0x57A SWAP2 SWAP1 PUSH2 0x2030 JUMP JUMPDEST PUSH1 0x40 MLOAD DUP1 SWAP2 SUB SWAP1 RETURN JUMPDEST CALLVALUE DUP1 ISZERO PUSH2 0x58F JUMPI PUSH1 0x0 DUP1 REVERT JUMPDEST POP PUSH2 0x5AA PUSH1 0x4 DUP1 CALLDATASIZE SUB DUP2 ADD SWAP1 PUSH2 0x5A5 SWAP2 SWAP1 PUSH2 0x21D0 JUMP JUMPDEST PUSH2 0xEAE JUMP JUMPDEST STOP JUMPDEST CALLVALUE DUP1 ISZERO PUSH2 0x5B8 JUMPI PUSH1 0x0 DUP1 REVERT JUMPDEST POP PUSH2 0x5D3 PUSH1 0x4 DUP1 CALLDATASIZE SUB DUP2 ADD SWAP1 PUSH2 0x5CE SWAP2 SWAP1 PUSH2 0x21D0 JUMP JUMPDEST PUSH2 0xFA5 JUMP JUMPDEST STOP JUMPDEST PUSH1 0x60 PUSH1 0x40 MLOAD DUP1 PUSH1 0x40 ADD PUSH1 0x40 MSTORE DUP1 PUSH1 0x8 DUP2 MSTORE PUSH1 0x20 ADD PUSH32 0x4149522054455354000000000000000000000000000000000000000000000000 DUP2 MSTORE POP SWAP1 POP SWAP1 JUMP JUMPDEST PUSH1 0x0 PUSH2 0x626 PUSH2 0x61F PUSH2 0x1065 JUMP JUMPDEST DUP5 DUP5 PUSH2 0x106D JUMP JUMPDEST PUSH1 0x1 SWAP1 POP SWAP3 SWAP2 POP POP JUMP JUMPDEST PUSH32 0x0 DUP2 JUMP JUMPDEST PUSH1 0x0 PUSH1 0x3 SLOAD SWAP1 POP SWAP1 JUMP JUMPDEST PUSH1 0x0 PUSH2 0x66B DUP5 DUP5 DUP5 PUSH2 0x1158 JUMP JUMPDEST PUSH1 0x0 PUSH1 0x2 PUSH1 0x0 DUP7 PUSH20 0xFFFFFFFFFFFFFFFFFFFFFFFFFFFFFFFFFFFFFFFF AND PUSH20 0xFFFFFFFFFFFFFFFFFFFFFFFFFFFFFFFFFFFFFFFF AND DUP2 MSTORE PUSH1 0x20 ADD SWAP1 DUP2 MSTORE PUSH1 0x20 ADD PUSH1 0x0 KECCAK256 PUSH1 0x0 PUSH2 0x6B6 PUSH2 0x1065 JUMP JUMPDEST PUSH20 0xFFFFFFFFFFFFFFFFFFFFFFFFFFFFFFFFFFFFFFFF AND PUSH20 0xFFFFFFFFFFFFFFFFFFFFFFFFFFFFFFFFFFFFFFFF AND DUP2 MSTORE PUSH1 0x20 ADD SWAP1 DUP2 MSTORE PUSH1 0x20 ADD PUSH1 0x0 KECCAK256 SLOAD SWAP1 POP DUP3 DUP2 LT ISZERO PUSH2 0x736 JUMPI PUSH1 0x40 MLOAD PUSH32 0x8C379A000000000000000000000000000000000000000000000000000000000 DUP2 MSTORE PUSH1 0x4 ADD PUSH2 0x72D SWAP1 PUSH2 0x22AF JUMP JUMPDEST PUSH1 0x40 MLOAD DUP1 SWAP2 SUB SWAP1 REVERT JUMPDEST PUSH2 0x74A DUP6 PUSH2 0x742 PUSH2 0x1065 JUMP JUMPDEST DUP6 DUP5 SUB PUSH2 0x106D JUMP JUMPDEST PUSH1 0x1 SWAP2 POP POP SWAP4 SWAP3 POP POP POP JUMP JUMPDEST PUSH32 0x0 DUP2 JUMP JUMPDEST PUSH1 0x0 PUSH1 0x12 SWAP1 POP SWAP1 JUMP JUMPDEST PUSH1 0x0 PUSH2 0x825 PUSH2 0x790 PUSH2 0x1065 JUMP JUMPDEST DUP5 DUP5 PUSH1 0x2 PUSH1 0x0 PUSH2 0x79E PUSH2 0x1065 JUMP JUMPDEST PUSH20 0xFFFFFFFFFFFFFFFFFFFFFFFFFFFFFFFFFFFFFFFF AND PUSH20 0xFFFFFFFFFFFFFFFFFFFFFFFFFFFFFFFFFFFFFFFF AND DUP2 MSTORE PUSH1 0x20 ADD SWAP1 DUP2 MSTORE PUSH1 0x20 ADD PUSH1 0x0 KECCAK256 PUSH1 0x0 DUP9 PUSH20 0xFFFFFFFFFFFFFFFFFFFFFFFFFFFFFFFFFFFFFFFF AND PUSH20 0xFFFFFFFFFFFFFFFFFFFFFFFFFFFFFFFFFFFFFFFF AND DUP2 MSTORE PUSH1 0x20 ADD SWAP1 DUP2 MSTORE PUSH1 0x20 ADD PUSH1 0x0 KECCAK256 SLOAD PUSH2 0x820 SWAP2 SWAP1 PUSH2 0x22FE JUMP JUMPDEST PUSH2 0x106D JUMP JUMPDEST PUSH1 0x1 SWAP1 POP SWAP3 SWAP2 POP POP JUMP JUMPDEST PUSH2 0x840 PUSH2 0x83A PUSH2 0x1065 JUMP JUMPDEST DUP3 PUSH2 0x17CC JUMP JUMPDEST POP JUMP JUMPDEST PUSH32 0x0 DUP2 JUMP JUMPDEST PUSH2 0x86F PUSH2 0x1065 JUMP JUMPDEST PUSH20 0xFFFFFFFFFFFFFFFFFFFFFFFFFFFFFFFFFFFFFFFF AND PUSH2 0x88D PUSH2 0xAE5 JUMP JUMPDEST PUSH20 0xFFFFFFFFFFFFFFFFFFFFFFFFFFFFFFFFFFFFFFFF AND EQ PUSH2 0x8E3 JUMPI PUSH1 0x40 MLOAD PUSH32 0x8C379A000000000000000000000000000000000000000000000000000000000 DUP2 MSTORE PUSH1 0x4 ADD PUSH2 0x8DA SWAP1 PUSH2 0x237E JUMP JUMPDEST PUSH1 0x40 MLOAD DUP1 SWAP2 SUB SWAP1 REVERT JUMPDEST PUSH1 0x7 PUSH1 0x0 DUP3 PUSH20 0xFFFFFFFFFFFFFFFFFFFFFFFFFFFFFFFFFFFFFFFF AND PUSH20 0xFFFFFFFFFFFFFFFFFFFFFFFFFFFFFFFFFFFFFFFF AND DUP2 MSTORE PUSH1 0x20 ADD SWAP1 DUP2 MSTORE PUSH1 0x20 ADD PUSH1 0x0 KECCAK256 PUSH1 0x0 SWAP1 SLOAD SWAP1 PUSH2 0x100 EXP SWAP1 DIV PUSH1 0xFF AND ISZERO PUSH2 0x992 JUMPI PUSH1 0x0 PUSH1 0x7 PUSH1 0x0 DUP4 PUSH20 0xFFFFFFFFFFFFFFFFFFFFFFFFFFFFFFFFFFFFFFFF AND PUSH20 0xFFFFFFFFFFFFFFFFFFFFFFFFFFFFFFFFFFFFFFFF AND DUP2 MSTORE PUSH1 0x20 ADD SWAP1 DUP2 MSTORE PUSH1 0x20 ADD PUSH1 0x0 KECCAK256 PUSH1 0x0 PUSH2 0x100 EXP DUP2 SLOAD DUP2 PUSH1 0xFF MUL NOT AND SWAP1 DUP4 ISZERO ISZERO MUL OR SWAP1 SSTORE POP PUSH2 0x9EB JUMP JUMPDEST PUSH1 0x1 PUSH1 0x7 PUSH1 0x0 DUP4 PUSH20 0xFFFFFFFFFFFFFFFFFFFFFFFFFFFFFFFFFFFFFFFF AND PUSH20 0xFFFFFFFFFFFFFFFFFFFFFFFFFFFFFFFFFFFFFFFF AND DUP2 MSTORE PUSH1 0x20 ADD SWAP1 DUP2 MSTORE PUSH1 0x20 ADD PUSH1 0x0 KECCAK256 PUSH1 0x0 PUSH2 0x100 EXP DUP2 SLOAD DUP2 PUSH1 0xFF MUL NOT AND SWAP1 DUP4 ISZERO ISZERO MUL OR SWAP1 SSTORE POP JUMPDEST POP JUMP JUMPDEST PUSH1 0x0 PUSH1 0x1 PUSH1 0x0 DUP4 PUSH20 0xFFFFFFFFFFFFFFFFFFFFFFFFFFFFFFFFFFFFFFFF AND PUSH20 0xFFFFFFFFFFFFFFFFFFFFFFFFFFFFFFFFFFFFFFFF AND DUP2 MSTORE PUSH1 0x20 ADD SWAP1 DUP2 MSTORE PUSH1 0x20 ADD PUSH1 0x0 KECCAK256 SLOAD SWAP1 POP SWAP2 SWAP1 POP JUMP JUMPDEST PUSH2 0xA3F PUSH2 0x1065 JUMP JUMPDEST PUSH20 0xFFFFFFFFFFFFFFFFFFFFFFFFFFFFFFFFFFFFFFFF AND PUSH2 0xA5D PUSH2 0xAE5 JUMP JUMPDEST PUSH20 0xFFFFFFFFFFFFFFFFFFFFFFFFFFFFFFFFFFFFFFFF AND EQ PUSH2 0xAB3 JUMPI PUSH1 0x40 MLOAD PUSH32 0x8C379A000000000000000000000000000000000000000000000000000000000 DUP2 MSTORE PUSH1 0x4 ADD PUSH2 0xAAA SWAP1 PUSH2 0x237E JUMP JUMPDEST PUSH1 0x40 MLOAD DUP1 SWAP2 SUB SWAP1 REVERT JUMPDEST PUSH2 0xABD PUSH1 0x0 PUSH2 0x198C JUMP JUMPDEST JUMP JUMPDEST PUSH1 0x9 PUSH1 0x0 SWAP1 SLOAD SWAP1 PUSH2 0x100 EXP SWAP1 DIV PUSH20 0xFFFFFFFFFFFFFFFFFFFFFFFFFFFFFFFFFFFFFFFF AND DUP2 JUMP JUMPDEST PUSH1 0x0 DUP1 PUSH1 0x0 SWAP1 SLOAD SWAP1 PUSH2 0x100 EXP SWAP1 DIV PUSH20 0xFFFFFFFFFFFFFFFFFFFFFFFFFFFFFFFFFFFFFFFF AND SWAP1 POP SWAP1 JUMP JUMPDEST PUSH1 0x8 PUSH1 0x1 SWAP1 SLOAD SWAP1 PUSH2 0x100 EXP SWAP1 DIV PUSH20 0xFFFFFFFFFFFFFFFFFFFFFFFFFFFFFFFFFFFFFFFF AND DUP2 JUMP JUMPDEST PUSH1 0x60 PUSH1 0x40 MLOAD DUP1 PUSH1 0x40 ADD PUSH1 0x40 MSTORE DUP1 PUSH1 0x4 DUP2 MSTORE PUSH1 0x20 ADD PUSH32 0x4149525400000000000000000000000000000000000000000000000000000000 DUP2 MSTORE POP SWAP1 POP SWAP1 JUMP JUMPDEST PUSH1 0x0 DUP1 PUSH1 0x2 PUSH1 0x0 PUSH2 0xB80 PUSH2 0x1065 JUMP JUMPDEST PUSH20 0xFFFFFFFFFFFFFFFFFFFFFFFFFFFFFFFFFFFFFFFF AND PUSH20 0xFFFFFFFFFFFFFFFFFFFFFFFFFFFFFFFFFFFFFFFF AND DUP2 MSTORE PUSH1 0x20 ADD SWAP1 DUP2 MSTORE PUSH1 0x20 ADD PUSH1 0x0 KECCAK256 PUSH1 0x0 DUP6 PUSH20 0xFFFFFFFFFFFFFFFFFFFFFFFFFFFFFFFFFFFFFFFF AND PUSH20 0xFFFFFFFFFFFFFFFFFFFFFFFFFFFFFFFFFFFFFFFF AND DUP2 MSTORE PUSH1 0x20 ADD SWAP1 DUP2 MSTORE PUSH1 0x20 ADD PUSH1 0x0 KECCAK256 SLOAD SWAP1 POP DUP3 DUP2 LT ISZERO PUSH2 0xC3D JUMPI PUSH1 0x40 MLOAD PUSH32 0x8C379A000000000000000000000000000000000000000000000000000000000 DUP2 MSTORE PUSH1 0x4 ADD PUSH2 0xC34 SWAP1 PUSH2 0x2410 JUMP JUMPDEST PUSH1 0x40 MLOAD DUP1 SWAP2 SUB SWAP1 REVERT JUMPDEST PUSH2 0xC51 PUSH2 0xC48 PUSH2 0x1065 JUMP JUMPDEST DUP6 DUP6 DUP5 SUB PUSH2 0x106D JUMP JUMPDEST PUSH1 0x1 SWAP2 POP POP SWAP3 SWAP2 POP POP JUMP JUMPDEST PUSH2 0xC64 PUSH2 0x1065 JUMP JUMPDEST PUSH20 0xFFFFFFFFFFFFFFFFFFFFFFFFFFFFFFFFFFFFFFFF AND PUSH2 0xC82 PUSH2 0xAE5 JUMP JUMPDEST PUSH20 0xFFFFFFFFFFFFFFFFFFFFFFFFFFFFFFFFFFFFFFFF AND EQ PUSH2 0xCD8 JUMPI PUSH1 0x40 MLOAD PUSH32 0x8C379A000000000000000000000000000000000000000000000000000000000 DUP2 MSTORE PUSH1 0x4 ADD PUSH2 0xCCF SWAP1 PUSH2 0x237E JUMP JUMPDEST PUSH1 0x40 MLOAD DUP1 SWAP2 SUB SWAP1 REVERT JUMPDEST PUSH1 0x1 ISZERO ISZERO PUSH1 0x6 PUSH1 0x0 DUP4 PUSH20 0xFFFFFFFFFFFFFFFFFFFFFFFFFFFFFFFFFFFFFFFF AND PUSH20 0xFFFFFFFFFFFFFFFFFFFFFFFFFFFFFFFFFFFFFFFF AND DUP2 MSTORE PUSH1 0x20 ADD SWAP1 DUP2 MSTORE PUSH1 0x20 ADD PUSH1 0x0 KECCAK256 PUSH1 0x0 SWAP1 SLOAD SWAP1 PUSH2 0x100 EXP SWAP1 DIV PUSH1 0xFF AND ISZERO ISZERO SUB PUSH2 0xD8D JUMPI PUSH1 0x0 PUSH1 0x6 PUSH1 0x0 DUP4 PUSH20 0xFFFFFFFFFFFFFFFFFFFFFFFFFFFFFFFFFFFFFFFF AND PUSH20 0xFFFFFFFFFFFFFFFFFFFFFFFFFFFFFFFFFFFFFFFF AND DUP2 MSTORE PUSH1 0x20 ADD SWAP1 DUP2 MSTORE PUSH1 0x20 ADD PUSH1 0x0 KECCAK256 PUSH1 0x0 PUSH2 0x100 EXP DUP2 SLOAD DUP2 PUSH1 0xFF MUL NOT AND SWAP1 DUP4 ISZERO ISZERO MUL OR SWAP1 SSTORE POP PUSH2 0xDE6 JUMP JUMPDEST PUSH1 0x1 PUSH1 0x6 PUSH1 0x0 DUP4 PUSH20 0xFFFFFFFFFFFFFFFFFFFFFFFFFFFFFFFFFFFFFFFF AND PUSH20 0xFFFFFFFFFFFFFFFFFFFFFFFFFFFFFFFFFFFFFFFF AND DUP2 MSTORE PUSH1 0x20 ADD SWAP1 DUP2 MSTORE PUSH1 0x20 ADD PUSH1 0x0 KECCAK256 PUSH1 0x0 PUSH2 0x100 EXP DUP2 SLOAD DUP2 PUSH1 0xFF MUL NOT AND SWAP1 DUP4 ISZERO ISZERO MUL OR SWAP1 SSTORE POP JUMPDEST POP JUMP JUMPDEST PUSH1 0x0 PUSH2 0xDFD PUSH2 0xDF6 PUSH2 0x1065 JUMP JUMPDEST DUP5 DUP5 PUSH2 0x1158 JUMP JUMPDEST PUSH1 0x1 SWAP1 POP SWAP3 SWAP2 POP POP JUMP JUMPDEST PUSH1 0x0 PUSH1 0x2 PUSH1 0x0 DUP5 PUSH20 0xFFFFFFFFFFFFFFFFFFFFFFFFFFFFFFFFFFFFFFFF AND PUSH20 0xFFFFFFFFFFFFFFFFFFFFFFFFFFFFFFFFFFFFFFFF AND DUP2 MSTORE PUSH1 0x20 ADD SWAP1 DUP2 MSTORE PUSH1 0x20 ADD PUSH1 0x0 KECCAK256 PUSH1 0x0 DUP4 PUSH20 0xFFFFFFFFFFFFFFFFFFFFFFFFFFFFFFFFFFFFFFFF AND PUSH20 0xFFFFFFFFFFFFFFFFFFFFFFFFFFFFFFFFFFFFFFFF AND DUP2 MSTORE PUSH1 0x20 ADD SWAP1 DUP2 MSTORE PUSH1 0x20 ADD PUSH1 0x0 KECCAK256 SLOAD SWAP1 POP SWAP3 SWAP2 POP POP JUMP JUMPDEST PUSH1 0x7 PUSH1 0x20 MSTORE DUP1 PUSH1 0x0 MSTORE PUSH1 0x40 PUSH1 0x0 KECCAK256 PUSH1 0x0 SWAP2 POP SLOAD SWAP1 PUSH2 0x100 EXP SWAP1 DIV PUSH1 0xFF AND DUP2 JUMP JUMPDEST PUSH2 0xEB6 PUSH2 0x1065 JUMP JUMPDEST PUSH20 0xFFFFFFFFFFFFFFFFFFFFFFFFFFFFFFFFFFFFFFFF AND PUSH2 0xED4 PUSH2 0xAE5 JUMP JUMPDEST PUSH20 0xFFFFFFFFFFFFFFFFFFFFFFFFFFFFFFFFFFFFFFFF AND EQ PUSH2 0xF2A JUMPI PUSH1 0x40 MLOAD PUSH32 0x8C379A000000000000000000000000000000000000000000000000000000000 DUP2 MSTORE PUSH1 0x4 ADD PUSH2 0xF21 SWAP1 PUSH2 0x237E JUMP JUMPDEST PUSH1 0x40 MLOAD DUP1 SWAP2 SUB SWAP1 REVERT JUMPDEST PUSH1 0x0 PUSH20 0xFFFFFFFFFFFFFFFFFFFFFFFFFFFFFFFFFFFFFFFF AND DUP2 PUSH20 0xFFFFFFFFFFFFFFFFFFFFFFFFFFFFFFFFFFFFFFFF AND SUB PUSH2 0xF99 JUMPI PUSH1 0x40 MLOAD PUSH32 0x8C379A000000000000000000000000000000000000000000000000000000000 DUP2 MSTORE PUSH1 0x4 ADD PUSH2 0xF90 SWAP1 PUSH2 0x24A2 JUMP JUMPDEST PUSH1 0x40 MLOAD DUP1 SWAP2 SUB SWAP1 REVERT JUMPDEST PUSH2 0xFA2 DUP2 PUSH2 0x198C JUMP JUMPDEST POP JUMP JUMPDEST PUSH2 0xFAD PUSH2 0x1065 JUMP JUMPDEST PUSH20 0xFFFFFFFFFFFFFFFFFFFFFFFFFFFFFFFFFFFFFFFF AND PUSH2 0xFCB PUSH2 0xAE5 JUMP JUMPDEST PUSH20 0xFFFFFFFFFFFFFFFFFFFFFFFFFFFFFFFFFFFFFFFF AND EQ PUSH2 0x1021 JUMPI PUSH1 0x40 MLOAD PUSH32 0x8C379A000000000000000000000000000000000000000000000000000000000 DUP2 MSTORE PUSH1 0x4 ADD PUSH2 0x1018 SWAP1 PUSH2 0x237E JUMP JUMPDEST PUSH1 0x40 MLOAD DUP1 SWAP2 SUB SWAP1 REVERT JUMPDEST DUP1 PUSH1 0x8 PUSH1 0x1 PUSH2 0x100 EXP DUP2 SLOAD DUP2 PUSH20 0xFFFFFFFFFFFFFFFFFFFFFFFFFFFFFFFFFFFFFFFF MUL NOT AND SWAP1 DUP4 PUSH20 0xFFFFFFFFFFFFFFFFFFFFFFFFFFFFFFFFFFFFFFFF AND MUL OR SWAP1 SSTORE POP POP JUMP JUMPDEST PUSH1 0x0 CALLER SWAP1 POP SWAP1 JUMP JUMPDEST DUP1 PUSH1 0x2 PUSH1 0x0 DUP6 PUSH20 0xFFFFFFFFFFFFFFFFFFFFFFFFFFFFFFFFFFFFFFFF AND PUSH20 0xFFFFFFFFFFFFFFFFFFFFFFFFFFFFFFFFFFFFFFFF AND DUP2 MSTORE PUSH1 0x20 ADD SWAP1 DUP2 MSTORE PUSH1 0x20 ADD PUSH1 0x0 KECCAK256 PUSH1 0x0 DUP5 PUSH20 0xFFFFFFFFFFFFFFFFFFFFFFFFFFFFFFFFFFFFFFFF AND PUSH20 0xFFFFFFFFFFFFFFFFFFFFFFFFFFFFFFFFFFFFFFFF AND DUP2 MSTORE PUSH1 0x20 ADD SWAP1 DUP2 MSTORE PUSH1 0x20 ADD PUSH1 0x0 KECCAK256 DUP2 SWAP1 SSTORE POP DUP2 PUSH20 0xFFFFFFFFFFFFFFFFFFFFFFFFFFFFFFFFFFFFFFFF AND DUP4 PUSH20 0xFFFFFFFFFFFFFFFFFFFFFFFFFFFFFFFFFFFFFFFF AND PUSH32 0x8C5BE1E5EBEC7D5BD14F71427D1E84F3DD0314C0F7B2291E5B200AC8C7C3B925 DUP4 PUSH1 0x40 MLOAD PUSH2 0x114B SWAP2 SWAP1 PUSH2 0x20D4 JUMP JUMPDEST PUSH1 0x40 MLOAD DUP1 SWAP2 SUB SWAP1 LOG3 POP POP POP JUMP JUMPDEST PUSH1 0x0 PUSH20 0xFFFFFFFFFFFFFFFFFFFFFFFFFFFFFFFFFFFFFFFF AND DUP4 PUSH20 0xFFFFFFFFFFFFFFFFFFFFFFFFFFFFFFFFFFFFFFFF AND SUB PUSH2 0x11C7 JUMPI PUSH1 0x40 MLOAD PUSH32 0x8C379A000000000000000000000000000000000000000000000000000000000 DUP2 MSTORE PUSH1 0x4 ADD PUSH2 0x11BE SWAP1 PUSH2 0x2534 JUMP JUMPDEST PUSH1 0x40 MLOAD DUP1 SWAP2 SUB SWAP1 REVERT JUMPDEST PUSH1 0x0 PUSH20 0xFFFFFFFFFFFFFFFFFFFFFFFFFFFFFFFFFFFFFFFF AND DUP3 PUSH20 0xFFFFFFFFFFFFFFFFFFFFFFFFFFFFFFFFFFFFFFFF AND SUB PUSH2 0x1236 JUMPI PUSH1 0x40 MLOAD PUSH32 0x8C379A000000000000000000000000000000000000000000000000000000000 DUP2 MSTORE PUSH1 0x4 ADD PUSH2 0x122D SWAP1 PUSH2 0x25C6 JUMP JUMPDEST PUSH1 0x40 MLOAD DUP1 SWAP2 SUB SWAP1 REVERT JUMPDEST PUSH1 0x0 PUSH1 0x1 PUSH1 0x0 DUP6 PUSH20 0xFFFFFFFFFFFFFFFFFFFFFFFFFFFFFFFFFFFFFFFF AND PUSH20 0xFFFFFFFFFFFFFFFFFFFFFFFFFFFFFFFFFFFFFFFF AND DUP2 MSTORE PUSH1 0x20 ADD SWAP1 DUP2 MSTORE PUSH1 0x20 ADD PUSH1 0x0 KECCAK256 SLOAD SWAP1 POP DUP2 DUP2 LT ISZERO PUSH2 0x12BD JUMPI PUSH1 0x40 MLOAD PUSH32 0x8C379A000000000000000000000000000000000000000000000000000000000 DUP2 MSTORE PUSH1 0x4 ADD PUSH2 0x12B4 SWAP1 PUSH2 0x2658 JUMP JUMPDEST PUSH1 0x40 MLOAD DUP1 SWAP2 SUB SWAP1 REVERT JUMPDEST PUSH1 0x0 DUP3 SWAP1 POP PUSH1 0x7 PUSH1 0x0 DUP7 PUSH20 0xFFFFFFFFFFFFFFFFFFFFFFFFFFFFFFFFFFFFFFFF AND PUSH20 0xFFFFFFFFFFFFFFFFFFFFFFFFFFFFFFFFFFFFFFFF AND DUP2 MSTORE PUSH1 0x20 ADD SWAP1 DUP2 MSTORE PUSH1 0x20 ADD PUSH1 0x0 KECCAK256 PUSH1 0x0 SWAP1 SLOAD SWAP1 PUSH2 0x100 EXP SWAP1 DIV PUSH1 0xFF AND DUP1 ISZERO PUSH2 0x1367 JUMPI POP PUSH32 0x0 PUSH20 0xFFFFFFFFFFFFFFFFFFFFFFFFFFFFFFFFFFFFFFFF AND DUP5 PUSH20 0xFFFFFFFFFFFFFFFFFFFFFFFFFFFFFFFFFFFFFFFF AND EQ ISZERO JUMPDEST DUP1 PUSH2 0x13BB JUMPI POP PUSH1 0x7 PUSH1 0x0 DUP6 PUSH20 0xFFFFFFFFFFFFFFFFFFFFFFFFFFFFFFFFFFFFFFFF AND PUSH20 0xFFFFFFFFFFFFFFFFFFFFFFFFFFFFFFFFFFFFFFFF AND DUP2 MSTORE PUSH1 0x20 ADD SWAP1 DUP2 MSTORE PUSH1 0x20 ADD PUSH1 0x0 KECCAK256 PUSH1 0x0 SWAP1 SLOAD SWAP1 PUSH2 0x100 EXP SWAP1 DIV PUSH1 0xFF AND JUMPDEST DUP1 ISZERO PUSH2 0x1411 JUMPI POP PUSH1 0x6 PUSH1 0x0 DUP7 PUSH20 0xFFFFFFFFFFFFFFFFFFFFFFFFFFFFFFFFFFFFFFFF AND PUSH20 0xFFFFFFFFFFFFFFFFFFFFFFFFFFFFFFFFFFFFFFFF AND DUP2 MSTORE PUSH1 0x20 ADD SWAP1 DUP2 MSTORE PUSH1 0x20 ADD PUSH1 0x0 KECCAK256 PUSH1 0x0 SWAP1 SLOAD SWAP1 PUSH2 0x100 EXP SWAP1 DIV PUSH1 0xFF AND ISZERO JUMPDEST DUP1 ISZERO PUSH2 0x1467 JUMPI POP PUSH1 0x6 PUSH1 0x0 DUP6 PUSH20 0xFFFFFFFFFFFFFFFFFFFFFFFFFFFFFFFFFFFFFFFF AND PUSH20 0xFFFFFFFFFFFFFFFFFFFFFFFFFFFFFFFFFFFFFFFF AND DUP2 MSTORE PUSH1 0x20 ADD SWAP1 DUP2 MSTORE PUSH1 0x20 ADD PUSH1 0x0 KECCAK256 PUSH1 0x0 SWAP1 SLOAD SWAP1 PUSH2 0x100 EXP SWAP1 DIV PUSH1 0xFF AND ISZERO JUMPDEST ISZERO PUSH2 0x1675 JUMPI PUSH2 0x14E5 PUSH2 0x1497 PUSH2 0x3E8 PUSH2 0x1489 PUSH1 0xA DUP8 PUSH2 0x1A50 SWAP1 SWAP2 SWAP1 PUSH4 0xFFFFFFFF AND JUMP JUMPDEST PUSH2 0x1ACA SWAP1 SWAP2 SWAP1 PUSH4 0xFFFFFFFF AND JUMP JUMPDEST PUSH1 0x1 PUSH1 0x0 ADDRESS PUSH20 0xFFFFFFFFFFFFFFFFFFFFFFFFFFFFFFFFFFFFFFFF AND PUSH20 0xFFFFFFFFFFFFFFFFFFFFFFFFFFFFFFFFFFFFFFFF AND DUP2 MSTORE PUSH1 0x20 ADD SWAP1 DUP2 MSTORE PUSH1 0x20 ADD PUSH1 0x0 KECCAK256 SLOAD PUSH2 0x1B14 SWAP1 SWAP2 SWAP1 PUSH4 0xFFFFFFFF AND JUMP JUMPDEST PUSH1 0x1 PUSH1 0x0 ADDRESS PUSH20 0xFFFFFFFFFFFFFFFFFFFFFFFFFFFFFFFFFFFFFFFF AND PUSH20 0xFFFFFFFFFFFFFFFFFFFFFFFFFFFFFFFFFFFFFFFF AND DUP2 MSTORE PUSH1 0x20 ADD SWAP1 DUP2 MSTORE PUSH1 0x20 ADD PUSH1 0x0 KECCAK256 DUP2 SWAP1 SSTORE POP ADDRESS PUSH20 0xFFFFFFFFFFFFFFFFFFFFFFFFFFFFFFFFFFFFFFFF AND DUP6 PUSH20 0xFFFFFFFFFFFFFFFFFFFFFFFFFFFFFFFFFFFFFFFF AND PUSH32 0xDDF252AD1BE2C89B69C2B068FC378DAA952BA7F163C4A11628F55A4DF523B3EF PUSH2 0x159F PUSH2 0x3E8 PUSH2 0x1591 PUSH1 0xA DUP10 PUSH2 0x1A50 SWAP1 SWAP2 SWAP1 PUSH4 0xFFFFFFFF AND JUMP JUMPDEST PUSH2 0x1ACA SWAP1 SWAP2 SWAP1 PUSH4 0xFFFFFFFF AND JUMP JUMPDEST PUSH1 0x40 MLOAD PUSH2 0x15AC SWAP2 SWAP1 PUSH2 0x20D4 JUMP JUMPDEST PUSH1 0x40 MLOAD DUP1 SWAP2 SUB SWAP1 LOG3 PUSH2 0x15DD PUSH2 0x3DE PUSH2 0x15CF PUSH2 0x3E8 DUP7 PUSH2 0x1ACA SWAP1 SWAP2 SWAP1 PUSH4 0xFFFFFFFF AND JUMP JUMPDEST PUSH2 0x1A50 SWAP1 SWAP2 SWAP1 PUSH4 0xFFFFFFFF AND JUMP JUMPDEST SWAP1 POP PUSH1 0x8 PUSH1 0x0 SWAP1 SLOAD SWAP1 PUSH2 0x100 EXP SWAP1 DIV PUSH1 0xFF AND ISZERO DUP1 ISZERO PUSH2 0x1646 JUMPI POP PUSH1 0x7 PUSH1 0x0 DUP7 PUSH20 0xFFFFFFFFFFFFFFFFFFFFFFFFFFFFFFFFFFFFFFFF AND PUSH20 0xFFFFFFFFFFFFFFFFFFFFFFFFFFFFFFFFFFFFFFFF AND DUP2 MSTORE PUSH1 0x20 ADD SWAP1 DUP2 MSTORE PUSH1 0x20 ADD PUSH1 0x0 KECCAK256 PUSH1 0x0 SWAP1 SLOAD SWAP1 PUSH2 0x100 EXP SWAP1 DIV PUSH1 0xFF AND ISZERO JUMPDEST ISZERO PUSH2 0x1674 JUMPI PUSH1 0x0 PUSH2 0x1656 ADDRESS PUSH2 0x9EE JUMP JUMPDEST SWAP1 POP PUSH8 0x8AC7230489E80000 DUP2 GT ISZERO PUSH2 0x1672 JUMPI PUSH2 0x1671 DUP2 PUSH2 0x1B72 JUMP JUMPDEST JUMPDEST POP JUMPDEST JUMPDEST PUSH2 0x1688 DUP4 DUP4 PUSH2 0x1D79 SWAP1 SWAP2 SWAP1 PUSH4 0xFFFFFFFF AND JUMP JUMPDEST PUSH1 0x1 PUSH1 0x0 DUP8 PUSH20 0xFFFFFFFFFFFFFFFFFFFFFFFFFFFFFFFFFFFFFFFF AND PUSH20 0xFFFFFFFFFFFFFFFFFFFFFFFFFFFFFFFFFFFFFFFF AND DUP2 MSTORE PUSH1 0x20 ADD SWAP1 DUP2 MSTORE PUSH1 0x20 ADD PUSH1 0x0 KECCAK256 DUP2 SWAP1 SSTORE POP PUSH2 0x171D DUP2 PUSH1 0x1 PUSH1 0x0 DUP8 PUSH20 0xFFFFFFFFFFFFFFFFFFFFFFFFFFFFFFFFFFFFFFFF AND PUSH20 0xFFFFFFFFFFFFFFFFFFFFFFFFFFFFFFFFFFFFFFFF AND DUP2 MSTORE PUSH1 0x20 ADD SWAP1 DUP2 MSTORE PUSH1 0x20 ADD PUSH1 0x0 KECCAK256 SLOAD PUSH2 0x1B14 SWAP1 SWAP2 SWAP1 PUSH4 0xFFFFFFFF AND JUMP JUMPDEST PUSH1 0x1 PUSH1 0x0 DUP7 PUSH20 0xFFFFFFFFFFFFFFFFFFFFFFFFFFFFFFFFFFFFFFFF AND PUSH20 0xFFFFFFFFFFFFFFFFFFFFFFFFFFFFFFFFFFFFFFFF AND DUP2 MSTORE PUSH1 0x20 ADD SWAP1 DUP2 MSTORE PUSH1 0x20 ADD PUSH1 0x0 KECCAK256 DUP2 SWAP1 SSTORE POP DUP4 PUSH20 0xFFFFFFFFFFFFFFFFFFFFFFFFFFFFFFFFFFFFFFFF AND DUP6 PUSH20 0xFFFFFFFFFFFFFFFFFFFFFFFFFFFFFFFFFFFFFFFF AND PUSH32 0xDDF252AD1BE2C89B69C2B068FC378DAA952BA7F163C4A11628F55A4DF523B3EF DUP4 PUSH1 0x40 MLOAD PUSH2 0x17BD SWAP2 SWAP1 PUSH2 0x20D4 JUMP JUMPDEST PUSH1 0x40 MLOAD DUP1 SWAP2 SUB SWAP1 LOG3 POP POP POP POP POP JUMP JUMPDEST PUSH1 0x0 PUSH20 0xFFFFFFFFFFFFFFFFFFFFFFFFFFFFFFFFFFFFFFFF AND DUP3 PUSH20 0xFFFFFFFFFFFFFFFFFFFFFFFFFFFFFFFFFFFFFFFF AND SUB PUSH2 0x183B JUMPI PUSH1 0x40 MLOAD PUSH32 0x8C379A000000000000000000000000000000000000000000000000000000000 DUP2 MSTORE PUSH1 0x4 ADD PUSH2 0x1832 SWAP1 PUSH2 0x26C4 JUMP JUMPDEST PUSH1 0x40 MLOAD DUP1 SWAP2 SUB SWAP1 REVERT JUMPDEST PUSH1 0x0 PUSH1 0x1 PUSH1 0x0 DUP5 PUSH20 0xFFFFFFFFFFFFFFFFFFFFFFFFFFFFFFFFFFFFFFFF AND PUSH20 0xFFFFFFFFFFFFFFFFFFFFFFFFFFFFFFFFFFFFFFFF AND DUP2 MSTORE PUSH1 0x20 ADD SWAP1 DUP2 MSTORE PUSH1 0x20 ADD PUSH1 0x0 KECCAK256 SLOAD SWAP1 POP DUP2 DUP2 LT ISZERO PUSH2 0x18C2 JUMPI PUSH1 0x40 MLOAD PUSH32 0x8C379A000000000000000000000000000000000000000000000000000000000 DUP2 MSTORE PUSH1 0x4 ADD PUSH2 0x18B9 SWAP1 PUSH2 0x2730 JUMP JUMPDEST PUSH1 0x40 MLOAD DUP1 SWAP2 SUB SWAP1 REVERT JUMPDEST DUP2 DUP2 SUB PUSH1 0x1 PUSH1 0x0 DUP6 PUSH20 0xFFFFFFFFFFFFFFFFFFFFFFFFFFFFFFFFFFFFFFFF AND PUSH20 0xFFFFFFFFFFFFFFFFFFFFFFFFFFFFFFFFFFFFFFFF AND DUP2 MSTORE PUSH1 0x20 ADD SWAP1 DUP2 MSTORE PUSH1 0x20 ADD PUSH1 0x0 KECCAK256 DUP2 SWAP1 SSTORE POP DUP2 PUSH1 0x3 PUSH1 0x0 DUP3 DUP3 SLOAD PUSH2 0x191A SWAP2 SWAP1 PUSH2 0x2750 JUMP JUMPDEST SWAP3 POP POP DUP2 SWAP1 SSTORE POP PUSH1 0x0 PUSH20 0xFFFFFFFFFFFFFFFFFFFFFFFFFFFFFFFFFFFFFFFF AND DUP4 PUSH20 0xFFFFFFFFFFFFFFFFFFFFFFFFFFFFFFFFFFFFFFFF AND PUSH32 0xDDF252AD1BE2C89B69C2B068FC378DAA952BA7F163C4A11628F55A4DF523B3EF DUP5 PUSH1 0x40 MLOAD PUSH2 0x197F SWAP2 SWAP1 PUSH2 0x20D4 JUMP JUMPDEST PUSH1 0x40 MLOAD DUP1 SWAP2 SUB SWAP1 LOG3 POP POP POP JUMP JUMPDEST PUSH1 0x0 DUP1 PUSH1 0x0 SWAP1 SLOAD SWAP1 PUSH2 0x100 EXP SWAP1 DIV PUSH20 0xFFFFFFFFFFFFFFFFFFFFFFFFFFFFFFFFFFFFFFFF AND SWAP1 POP DUP2 PUSH1 0x0 DUP1 PUSH2 0x100 EXP DUP2 SLOAD DUP2 PUSH20 0xFFFFFFFFFFFFFFFFFFFFFFFFFFFFFFFFFFFFFFFF MUL NOT AND SWAP1 DUP4 PUSH20 0xFFFFFFFFFFFFFFFFFFFFFFFFFFFFFFFFFFFFFFFF AND MUL OR SWAP1 SSTORE POP DUP2 PUSH20 0xFFFFFFFFFFFFFFFFFFFFFFFFFFFFFFFFFFFFFFFF AND DUP2 PUSH20 0xFFFFFFFFFFFFFFFFFFFFFFFFFFFFFFFFFFFFFFFF AND PUSH32 0x8BE0079C531659141344CD1FD0A4F28419497F9722A3DAAFE3B4186F6B6457E0 PUSH1 0x40 MLOAD PUSH1 0x40 MLOAD DUP1 SWAP2 SUB SWAP1 LOG3 POP POP JUMP JUMPDEST PUSH1 0x0 DUP1 DUP4 SUB PUSH2 0x1A62 JUMPI PUSH1 0x0 SWAP1 POP PUSH2 0x1AC4 JUMP JUMPDEST PUSH1 0x0 DUP3 DUP5 PUSH2 0x1A70 SWAP2 SWAP1 PUSH2 0x2784 JUMP JUMPDEST SWAP1 POP DUP3 DUP5 DUP3 PUSH2 0x1A7F SWAP2 SWAP1 PUSH2 0x27F5 JUMP JUMPDEST EQ PUSH2 0x1ABF JUMPI PUSH1 0x40 MLOAD PUSH32 0x8C379A000000000000000000000000000000000000000000000000000000000 DUP2 MSTORE PUSH1 0x4 ADD PUSH2 0x1AB6 SWAP1 PUSH2 0x2898 JUMP JUMPDEST PUSH1 0x40 MLOAD DUP1 SWAP2 SUB SWAP1 REVERT JUMPDEST DUP1 SWAP2 POP POP JUMPDEST SWAP3 SWAP2 POP POP JUMP JUMPDEST PUSH1 0x0 PUSH2 0x1B0C DUP4 DUP4 PUSH1 0x40 MLOAD DUP1 PUSH1 0x40 ADD PUSH1 0x40 MSTORE DUP1 PUSH1 0x1A DUP2 MSTORE PUSH1 0x20 ADD PUSH32 0x536166654D6174683A206469766973696F6E206279207A65726F000000000000 DUP2 MSTORE POP PUSH2 0x1DC3 JUMP JUMPDEST SWAP1 POP SWAP3 SWAP2 POP POP JUMP JUMPDEST PUSH1 0x0 DUP1 DUP3 DUP5 PUSH2 0x1B23 SWAP2 SWAP1 PUSH2 0x22FE JUMP JUMPDEST SWAP1 POP DUP4 DUP2 LT ISZERO PUSH2 0x1B68 JUMPI PUSH1 0x40 MLOAD PUSH32 0x8C379A000000000000000000000000000000000000000000000000000000000 DUP2 MSTORE PUSH1 0x4 ADD PUSH2 0x1B5F SWAP1 PUSH2 0x2904 JUMP JUMPDEST PUSH1 0x40 MLOAD DUP1 SWAP2 SUB SWAP1 REVERT JUMPDEST DUP1 SWAP2 POP POP SWAP3 SWAP2 POP POP JUMP JUMPDEST PUSH1 0x1 PUSH1 0x8 PUSH1 0x0 PUSH2 0x100 EXP DUP2 SLOAD DUP2 PUSH1 0xFF MUL NOT AND SWAP1 DUP4 ISZERO ISZERO MUL OR SWAP1 SSTORE POP PUSH1 0x0 PUSH1 0x2 PUSH8 0xFFFFFFFFFFFFFFFF DUP2 GT ISZERO PUSH2 0x1BAA JUMPI PUSH2 0x1BA9 PUSH2 0x2924 JUMP JUMPDEST JUMPDEST PUSH1 0x40 MLOAD SWAP1 DUP1 DUP3 MSTORE DUP1 PUSH1 0x20 MUL PUSH1 0x20 ADD DUP3 ADD PUSH1 0x40 MSTORE DUP1 ISZERO PUSH2 0x1BD8 JUMPI DUP2 PUSH1 0x20 ADD PUSH1 0x20 DUP3 MUL DUP1 CALLDATASIZE DUP4 CALLDATACOPY DUP1 DUP3 ADD SWAP2 POP POP SWAP1 POP JUMPDEST POP SWAP1 POP ADDRESS DUP2 PUSH1 0x0 DUP2 MLOAD DUP2 LT PUSH2 0x1BF0 JUMPI PUSH2 0x1BEF PUSH2 0x2953 JUMP JUMPDEST JUMPDEST PUSH1 0x20 MUL PUSH1 0x20 ADD ADD SWAP1 PUSH20 0xFFFFFFFFFFFFFFFFFFFFFFFFFFFFFFFFFFFFFFFF AND SWAP1 DUP2 PUSH20 0xFFFFFFFFFFFFFFFFFFFFFFFFFFFFFFFFFFFFFFFF AND DUP2 MSTORE POP POP PUSH1 0x9 PUSH1 0x0 SWAP1 SLOAD SWAP1 PUSH2 0x100 EXP SWAP1 DIV PUSH20 0xFFFFFFFFFFFFFFFFFFFFFFFFFFFFFFFFFFFFFFFF AND DUP2 PUSH1 0x1 DUP2 MLOAD DUP2 LT PUSH2 0x1C61 JUMPI PUSH2 0x1C60 PUSH2 0x2953 JUMP JUMPDEST JUMPDEST PUSH1 0x20 MUL PUSH1 0x20 ADD ADD SWAP1 PUSH20 0xFFFFFFFFFFFFFFFFFFFFFFFFFFFFFFFFFFFFFFFF AND SWAP1 DUP2 PUSH20 0xFFFFFFFFFFFFFFFFFFFFFFFFFFFFFFFFFFFFFFFF AND DUP2 MSTORE POP POP PUSH2 0x1CC6 ADDRESS PUSH32 0x0 DUP5 PUSH2 0x106D JUMP JUMPDEST PUSH32 0x0 PUSH20 0xFFFFFFFFFFFFFFFFFFFFFFFFFFFFFFFFFFFFFFFF AND PUSH4 0x5C11D795 DUP4 PUSH1 0x0 DUP5 ADDRESS TIMESTAMP PUSH1 0x40 MLOAD DUP7 PUSH4 0xFFFFFFFF AND PUSH1 0xE0 SHL DUP2 MSTORE PUSH1 0x4 ADD PUSH2 0x1D28 SWAP6 SWAP5 SWAP4 SWAP3 SWAP2 SWAP1 PUSH2 0x2A7B JUMP JUMPDEST PUSH1 0x0 PUSH1 0x40 MLOAD DUP1 DUP4 SUB DUP2 PUSH1 0x0 DUP8 DUP1 EXTCODESIZE ISZERO DUP1 ISZERO PUSH2 0x1D42 JUMPI PUSH1 0x0 DUP1 REVERT JUMPDEST POP GAS CALL ISZERO DUP1 ISZERO PUSH2 0x1D56 JUMPI RETURNDATASIZE PUSH1 0x0 DUP1 RETURNDATACOPY RETURNDATASIZE PUSH1 0x0 REVERT JUMPDEST POP POP POP POP POP PUSH1 0x0 PUSH1 0x8 PUSH1 0x0 PUSH2 0x100 EXP DUP2 SLOAD DUP2 PUSH1 0xFF MUL NOT AND SWAP1 DUP4 ISZERO ISZERO MUL OR SWAP1 SSTORE POP POP JUMP JUMPDEST PUSH1 0x0 PUSH2 0x1DBB DUP4 DUP4 PUSH1 0x40 MLOAD DUP1 PUSH1 0x40 ADD PUSH1 0x40 MSTORE DUP1 PUSH1 0x1E DUP2 MSTORE PUSH1 0x20 ADD PUSH32 0x536166654D6174683A207375627472616374696F6E206F766572666C6F770000 DUP2 MSTORE POP PUSH2 0x1E26 JUMP JUMPDEST SWAP1 POP SWAP3 SWAP2 POP POP JUMP JUMPDEST PUSH1 0x0 DUP1 DUP4 GT DUP3 SWAP1 PUSH2 0x1E0A JUMPI PUSH1 0x40 MLOAD PUSH32 0x8C379A000000000000000000000000000000000000000000000000000000000 DUP2 MSTORE PUSH1 0x4 ADD PUSH2 0x1E01 SWAP2 SWAP1 PUSH2 0x1F1A JUMP JUMPDEST PUSH1 0x40 MLOAD DUP1 SWAP2 SUB SWAP1 REVERT JUMPDEST POP PUSH1 0x0 DUP4 DUP6 PUSH2 0x1E19 SWAP2 SWAP1 PUSH2 0x27F5 JUMP JUMPDEST SWAP1 POP DUP1 SWAP2 POP POP SWAP4 SWAP3 POP POP POP JUMP JUMPDEST PUSH1 0x0 DUP4 DUP4 GT ISZERO DUP3 SWAP1 PUSH2 0x1E6E JUMPI PUSH1 0x40 MLOAD PUSH32 0x8C379A000000000000000000000000000000000000000000000000000000000 DUP2 MSTORE PUSH1 0x4 ADD PUSH2 0x1E65 SWAP2 SWAP1 PUSH2 0x1F1A JUMP JUMPDEST PUSH1 0x40 MLOAD DUP1 SWAP2 SUB SWAP1 REVERT JUMPDEST POP PUSH1 0x0 DUP4 DUP6 PUSH2 0x1E7D SWAP2 SWAP1 PUSH2 0x2750 JUMP JUMPDEST SWAP1 POP DUP1 SWAP2 POP POP SWAP4 SWAP3 POP POP POP JUMP JUMPDEST PUSH1 0x0 DUP2 MLOAD SWAP1 POP SWAP2 SWAP1 POP JUMP JUMPDEST PUSH1 0x0 DUP3 DUP3 MSTORE PUSH1 0x20 DUP3 ADD SWAP1 POP SWAP3 SWAP2 POP POP JUMP JUMPDEST PUSH1 0x0 JUMPDEST DUP4 DUP2 LT ISZERO PUSH2 0x1EC4 JUMPI DUP1 DUP3 ADD MLOAD DUP2 DUP5 ADD MSTORE PUSH1 0x20 DUP2 ADD SWAP1 POP PUSH2 0x1EA9 JUMP JUMPDEST PUSH1 0x0 DUP5 DUP5 ADD MSTORE POP POP POP POP JUMP JUMPDEST PUSH1 0x0 PUSH1 0x1F NOT PUSH1 0x1F DUP4 ADD AND SWAP1 POP SWAP2 SWAP1 POP JUMP JUMPDEST PUSH1 0x0 PUSH2 0x1EEC DUP3 PUSH2 0x1E8A JUMP JUMPDEST PUSH2 0x1EF6 DUP2 DUP6 PUSH2 0x1E95 JUMP JUMPDEST SWAP4 POP PUSH2 0x1F06 DUP2 DUP6 PUSH1 0x20 DUP7 ADD PUSH2 0x1EA6 JUMP JUMPDEST PUSH2 0x1F0F DUP2 PUSH2 0x1ED0 JUMP JUMPDEST DUP5 ADD SWAP2 POP POP SWAP3 SWAP2 POP POP JUMP JUMPDEST PUSH1 0x0 PUSH1 0x20 DUP3 ADD SWAP1 POP DUP2 DUP2 SUB PUSH1 0x0 DUP4 ADD MSTORE PUSH2 0x1F34 DUP2 DUP5 PUSH2 0x1EE1 JUMP JUMPDEST SWAP1 POP SWAP3 SWAP2 POP POP JUMP JUMPDEST PUSH1 0x0 DUP1 REVERT JUMPDEST PUSH1 0x0 PUSH20 0xFFFFFFFFFFFFFFFFFFFFFFFFFFFFFFFFFFFFFFFF DUP3 AND SWAP1 POP SWAP2 SWAP1 POP JUMP JUMPDEST PUSH1 0x0 PUSH2 0x1F6C DUP3 PUSH2 0x1F41 JUMP JUMPDEST SWAP1 POP SWAP2 SWAP1 POP JUMP JUMPDEST PUSH2 0x1F7C DUP2 PUSH2 0x1F61 JUMP JUMPDEST DUP2 EQ PUSH2 0x1F87 JUMPI PUSH1 0x0 DUP1 REVERT JUMPDEST POP JUMP JUMPDEST PUSH1 0x0 DUP2 CALLDATALOAD SWAP1 POP PUSH2 0x1F99 DUP2 PUSH2 0x1F73 JUMP JUMPDEST SWAP3 SWAP2 POP POP JUMP JUMPDEST PUSH1 0x0 DUP2 SWAP1 POP SWAP2 SWAP1 POP JUMP JUMPDEST PUSH2 0x1FB2 DUP2 PUSH2 0x1F9F JUMP JUMPDEST DUP2 EQ PUSH2 0x1FBD JUMPI PUSH1 0x0 DUP1 REVERT JUMPDEST POP JUMP JUMPDEST PUSH1 0x0 DUP2 CALLDATALOAD SWAP1 POP PUSH2 0x1FCF DUP2 PUSH2 0x1FA9 JUMP JUMPDEST SWAP3 SWAP2 POP POP JUMP JUMPDEST PUSH1 0x0 DUP1 PUSH1 0x40 DUP4 DUP6 SUB SLT ISZERO PUSH2 0x1FEC JUMPI PUSH2 0x1FEB PUSH2 0x1F3C JUMP JUMPDEST JUMPDEST PUSH1 0x0 PUSH2 0x1FFA DUP6 DUP3 DUP7 ADD PUSH2 0x1F8A JUMP JUMPDEST SWAP3 POP POP PUSH1 0x20 PUSH2 0x200B DUP6 DUP3 DUP7 ADD PUSH2 0x1FC0 JUMP JUMPDEST SWAP2 POP POP SWAP3 POP SWAP3 SWAP1 POP JUMP JUMPDEST PUSH1 0x0 DUP2 ISZERO ISZERO SWAP1 POP SWAP2 SWAP1 POP JUMP JUMPDEST PUSH2 0x202A DUP2 PUSH2 0x2015 JUMP JUMPDEST DUP3 MSTORE POP POP JUMP JUMPDEST PUSH1 0x0 PUSH1 0x20 DUP3 ADD SWAP1 POP PUSH2 0x2045 PUSH1 0x0 DUP4 ADD DUP5 PUSH2 0x2021 JUMP JUMPDEST SWAP3 SWAP2 POP POP JUMP JUMPDEST PUSH1 0x0 DUP2 SWAP1 POP SWAP2 SWAP1 POP JUMP JUMPDEST PUSH1 0x0 PUSH2 0x2070 PUSH2 0x206B PUSH2 0x2066 DUP5 PUSH2 0x1F41 JUMP JUMPDEST PUSH2 0x204B JUMP JUMPDEST PUSH2 0x1F41 JUMP JUMPDEST SWAP1 POP SWAP2 SWAP1 POP JUMP JUMPDEST PUSH1 0x0 PUSH2 0x2082 DUP3 PUSH2 0x2055 JUMP JUMPDEST SWAP1 POP SWAP2 SWAP1 POP JUMP JUMPDEST PUSH1 0x0 PUSH2 0x2094 DUP3 PUSH2 0x2077 JUMP JUMPDEST SWAP1 POP SWAP2 SWAP1 POP JUMP JUMPDEST PUSH2 0x20A4 DUP2 PUSH2 0x2089 JUMP JUMPDEST DUP3 MSTORE POP POP JUMP JUMPDEST PUSH1 0x0 PUSH1 0x20 DUP3 ADD SWAP1 POP PUSH2 0x20BF PUSH1 0x0 DUP4 ADD DUP5 PUSH2 0x209B JUMP JUMPDEST SWAP3 SWAP2 POP POP JUMP JUMPDEST PUSH2 0x20CE DUP2 PUSH2 0x1F9F JUMP JUMPDEST DUP3 MSTORE POP POP JUMP JUMPDEST PUSH1 0x0 PUSH1 0x20 DUP3 ADD SWAP1 POP PUSH2 0x20E9 PUSH1 0x0 DUP4 ADD DUP5 PUSH2 0x20C5 JUMP JUMPDEST SWAP3 SWAP2 POP POP JUMP JUMPDEST PUSH1 0x0 DUP1 PUSH1 0x0 PUSH1 0x60 DUP5 DUP7 SUB SLT ISZERO PUSH2 0x2108 JUMPI PUSH2 0x2107 PUSH2 0x1F3C JUMP JUMPDEST JUMPDEST PUSH1 0x0 PUSH2 0x2116 DUP7 DUP3 DUP8 ADD PUSH2 0x1F8A JUMP JUMPDEST SWAP4 POP POP PUSH1 0x20 PUSH2 0x2127 DUP7 DUP3 DUP8 ADD PUSH2 0x1F8A JUMP JUMPDEST SWAP3 POP POP PUSH1 0x40 PUSH2 0x2138 DUP7 DUP3 DUP8 ADD PUSH2 0x1FC0 JUMP JUMPDEST SWAP2 POP POP SWAP3 POP SWAP3 POP SWAP3 JUMP JUMPDEST PUSH2 0x214B DUP2 PUSH2 0x1F61 JUMP JUMPDEST DUP3 MSTORE POP POP JUMP JUMPDEST PUSH1 0x0 PUSH1 0x20 DUP3 ADD SWAP1 POP PUSH2 0x2166 PUSH1 0x0 DUP4 ADD DUP5 PUSH2 0x2142 JUMP JUMPDEST SWAP3 SWAP2 POP POP JUMP JUMPDEST PUSH1 0x0 PUSH1 0xFF DUP3 AND SWAP1 POP SWAP2 SWAP1 POP JUMP JUMPDEST PUSH2 0x2182 DUP2 PUSH2 0x216C JUMP JUMPDEST DUP3 MSTORE POP POP JUMP JUMPDEST PUSH1 0x0 PUSH1 0x20 DUP3 ADD SWAP1 POP PUSH2 0x219D PUSH1 0x0 DUP4 ADD DUP5 PUSH2 0x2179 JUMP JUMPDEST SWAP3 SWAP2 POP POP JUMP JUMPDEST PUSH1 0x0 PUSH1 0x20 DUP3 DUP5 SUB SLT ISZERO PUSH2 0x21B9 JUMPI PUSH2 0x21B8 PUSH2 0x1F3C JUMP JUMPDEST JUMPDEST PUSH1 0x0 PUSH2 0x21C7 DUP5 DUP3 DUP6 ADD PUSH2 0x1FC0 JUMP JUMPDEST SWAP2 POP POP SWAP3 SWAP2 POP POP JUMP JUMPDEST PUSH1 0x0 PUSH1 0x20 DUP3 DUP5 SUB SLT ISZERO PUSH2 0x21E6 JUMPI PUSH2 0x21E5 PUSH2 0x1F3C JUMP JUMPDEST JUMPDEST PUSH1 0x0 PUSH2 0x21F4 DUP5 DUP3 DUP6 ADD PUSH2 0x1F8A JUMP JUMPDEST SWAP2 POP POP SWAP3 SWAP2 POP POP JUMP JUMPDEST PUSH1 0x0 DUP1 PUSH1 0x40 DUP4 DUP6 SUB SLT ISZERO PUSH2 0x2214 JUMPI PUSH2 0x2213 PUSH2 0x1F3C JUMP JUMPDEST JUMPDEST PUSH1 0x0 PUSH2 0x2222 DUP6 DUP3 DUP7 ADD PUSH2 0x1F8A JUMP JUMPDEST SWAP3 POP POP PUSH1 0x20 PUSH2 0x2233 DUP6 DUP3 DUP7 ADD PUSH2 0x1F8A JUMP JUMPDEST SWAP2 POP POP SWAP3 POP SWAP3 SWAP1 POP JUMP JUMPDEST PUSH32 0x4245453A207472616E7366657220616D6F756E74206578636565647320616C6C PUSH1 0x0 DUP3 ADD MSTORE PUSH32 0x6F77616E63650000000000000000000000000000000000000000000000000000 PUSH1 0x20 DUP3 ADD MSTORE POP JUMP JUMPDEST PUSH1 0x0 PUSH2 0x2299 PUSH1 0x26 DUP4 PUSH2 0x1E95 JUMP JUMPDEST SWAP2 POP PUSH2 0x22A4 DUP3 PUSH2 0x223D JUMP JUMPDEST PUSH1 0x40 DUP3 ADD SWAP1 POP SWAP2 SWAP1 POP JUMP JUMPDEST PUSH1 0x0 PUSH1 0x20 DUP3 ADD SWAP1 POP DUP2 DUP2 SUB PUSH1 0x0 DUP4 ADD MSTORE PUSH2 0x22C8 DUP2 PUSH2 0x228C JUMP JUMPDEST SWAP1 POP SWAP2 SWAP1 POP JUMP JUMPDEST PUSH32 0x4E487B7100000000000000000000000000000000000000000000000000000000 PUSH1 0x0 MSTORE PUSH1 0x11 PUSH1 0x4 MSTORE PUSH1 0x24 PUSH1 0x0 REVERT JUMPDEST PUSH1 0x0 PUSH2 0x2309 DUP3 PUSH2 0x1F9F JUMP JUMPDEST SWAP2 POP PUSH2 0x2314 DUP4 PUSH2 0x1F9F JUMP JUMPDEST SWAP3 POP DUP3 DUP3 ADD SWAP1 POP DUP1 DUP3 GT ISZERO PUSH2 0x232C JUMPI PUSH2 0x232B PUSH2 0x22CF JUMP JUMPDEST JUMPDEST SWAP3 SWAP2 POP POP JUMP JUMPDEST PUSH32 0x4F776E61626C653A2063616C6C6572206973206E6F7420746865206F776E6572 PUSH1 0x0 DUP3 ADD MSTORE POP JUMP JUMPDEST PUSH1 0x0 PUSH2 0x2368 PUSH1 0x20 DUP4 PUSH2 0x1E95 JUMP JUMPDEST SWAP2 POP PUSH2 0x2373 DUP3 PUSH2 0x2332 JUMP JUMPDEST PUSH1 0x20 DUP3 ADD SWAP1 POP SWAP2 SWAP1 POP JUMP JUMPDEST PUSH1 0x0 PUSH1 0x20 DUP3 ADD SWAP1 POP DUP2 DUP2 SUB PUSH1 0x0 DUP4 ADD MSTORE PUSH2 0x2397 DUP2 PUSH2 0x235B JUMP JUMPDEST SWAP1 POP SWAP2 SWAP1 POP JUMP JUMPDEST PUSH32 0x4245453A2064656372656173656420616C6C6F77616E63652062656C6F77207A PUSH1 0x0 DUP3 ADD MSTORE PUSH32 0x65726F0000000000000000000000000000000000000000000000000000000000 PUSH1 0x20 DUP3 ADD MSTORE POP JUMP JUMPDEST PUSH1 0x0 PUSH2 0x23FA PUSH1 0x23 DUP4 PUSH2 0x1E95 JUMP JUMPDEST SWAP2 POP PUSH2 0x2405 DUP3 PUSH2 0x239E JUMP JUMPDEST PUSH1 0x40 DUP3 ADD SWAP1 POP SWAP2 SWAP1 POP JUMP JUMPDEST PUSH1 0x0 PUSH1 0x20 DUP3 ADD SWAP1 POP DUP2 DUP2 SUB PUSH1 0x0 DUP4 ADD MSTORE PUSH2 0x2429 DUP2 PUSH2 0x23ED JUMP JUMPDEST SWAP1 POP SWAP2 SWAP1 POP JUMP JUMPDEST PUSH32 0x4F776E61626C653A206E6577206F776E657220697320746865207A65726F2061 PUSH1 0x0 DUP3 ADD MSTORE PUSH32 0x6464726573730000000000000000000000000000000000000000000000000000 PUSH1 0x20 DUP3 ADD MSTORE POP JUMP JUMPDEST PUSH1 0x0 PUSH2 0x248C PUSH1 0x26 DUP4 PUSH2 0x1E95 JUMP JUMPDEST SWAP2 POP PUSH2 0x2497 DUP3 PUSH2 0x2430 JUMP JUMPDEST PUSH1 0x40 DUP3 ADD SWAP1 POP SWAP2 SWAP1 POP JUMP JUMPDEST PUSH1 0x0 PUSH1 0x20 DUP3 ADD SWAP1 POP DUP2 DUP2 SUB PUSH1 0x0 DUP4 ADD MSTORE PUSH2 0x24BB DUP2 PUSH2 0x247F JUMP JUMPDEST SWAP1 POP SWAP2 SWAP1 POP JUMP JUMPDEST PUSH32 0x4245453A207472616E736665722066726F6D20746865207A65726F2061646472 PUSH1 0x0 DUP3 ADD MSTORE PUSH32 0x6573730000000000000000000000000000000000000000000000000000000000 PUSH1 0x20 DUP3 ADD MSTORE POP JUMP JUMPDEST PUSH1 0x0 PUSH2 0x251E PUSH1 0x23 DUP4 PUSH2 0x1E95 JUMP JUMPDEST SWAP2 POP PUSH2 0x2529 DUP3 PUSH2 0x24C2 JUMP JUMPDEST PUSH1 0x40 DUP3 ADD SWAP1 POP SWAP2 SWAP1 POP JUMP JUMPDEST PUSH1 0x0 PUSH1 0x20 DUP3 ADD SWAP1 POP DUP2 DUP2 SUB PUSH1 0x0 DUP4 ADD MSTORE PUSH2 0x254D DUP2 PUSH2 0x2511 JUMP JUMPDEST SWAP1 POP SWAP2 SWAP1 POP JUMP JUMPDEST PUSH32 0x4245453A207472616E7366657220746F20746865207A65726F20616464726573 PUSH1 0x0 DUP3 ADD MSTORE PUSH32 0x7300000000000000000000000000000000000000000000000000000000000000 PUSH1 0x20 DUP3 ADD MSTORE POP JUMP JUMPDEST PUSH1 0x0 PUSH2 0x25B0 PUSH1 0x21 DUP4 PUSH2 0x1E95 JUMP JUMPDEST SWAP2 POP PUSH2 0x25BB DUP3 PUSH2 0x2554 JUMP JUMPDEST PUSH1 0x40 DUP3 ADD SWAP1 POP SWAP2 SWAP1 POP JUMP JUMPDEST PUSH1 0x0 PUSH1 0x20 DUP3 ADD SWAP1 POP DUP2 DUP2 SUB PUSH1 0x0 DUP4 ADD MSTORE PUSH2 0x25DF DUP2 PUSH2 0x25A3 JUMP JUMPDEST SWAP1 POP SWAP2 SWAP1 POP JUMP JUMPDEST PUSH32 0x4245453A207472616E7366657220616D6F756E7420657863656564732062616C PUSH1 0x0 DUP3 ADD MSTORE PUSH32 0x616E636500000000000000000000000000000000000000000000000000000000 PUSH1 0x20 DUP3 ADD MSTORE POP JUMP JUMPDEST PUSH1 0x0 PUSH2 0x2642 PUSH1 0x24 DUP4 PUSH2 0x1E95 JUMP JUMPDEST SWAP2 POP PUSH2 0x264D DUP3 PUSH2 0x25E6 JUMP JUMPDEST PUSH1 0x40 DUP3 ADD SWAP1 POP SWAP2 SWAP1 POP JUMP JUMPDEST PUSH1 0x0 PUSH1 0x20 DUP3 ADD SWAP1 POP DUP2 DUP2 SUB PUSH1 0x0 DUP4 ADD MSTORE PUSH2 0x2671 DUP2 PUSH2 0x2635 JUMP JUMPDEST SWAP1 POP SWAP2 SWAP1 POP JUMP JUMPDEST PUSH32 0x4245453A206275726E2066726F6D20746865207A65726F206164647265737300 PUSH1 0x0 DUP3 ADD MSTORE POP JUMP JUMPDEST PUSH1 0x0 PUSH2 0x26AE PUSH1 0x1F DUP4 PUSH2 0x1E95 JUMP JUMPDEST SWAP2 POP PUSH2 0x26B9 DUP3 PUSH2 0x2678 JUMP JUMPDEST PUSH1 0x20 DUP3 ADD SWAP1 POP SWAP2 SWAP1 POP JUMP JUMPDEST PUSH1 0x0 PUSH1 0x20 DUP3 ADD SWAP1 POP DUP2 DUP2 SUB PUSH1 0x0 DUP4 ADD MSTORE PUSH2 0x26DD DUP2 PUSH2 0x26A1 JUMP JUMPDEST SWAP1 POP SWAP2 SWAP1 POP JUMP JUMPDEST PUSH32 0x4245453A206275726E20616D6F756E7420657863656564732062616C616E6365 PUSH1 0x0 DUP3 ADD MSTORE POP JUMP JUMPDEST PUSH1 0x0 PUSH2 0x271A PUSH1 0x20 DUP4 PUSH2 0x1E95 JUMP JUMPDEST SWAP2 POP PUSH2 0x2725 DUP3 PUSH2 0x26E4 JUMP JUMPDEST PUSH1 0x20 DUP3 ADD SWAP1 POP SWAP2 SWAP1 POP JUMP JUMPDEST PUSH1 0x0 PUSH1 0x20 DUP3 ADD SWAP1 POP DUP2 DUP2 SUB PUSH1 0x0 DUP4 ADD MSTORE PUSH2 0x2749 DUP2 PUSH2 0x270D JUMP JUMPDEST SWAP1 POP SWAP2 SWAP1 POP JUMP JUMPDEST PUSH1 0x0 PUSH2 0x275B DUP3 PUSH2 0x1F9F JUMP JUMPDEST SWAP2 POP PUSH2 0x2766 DUP4 PUSH2 0x1F9F JUMP JUMPDEST SWAP3 POP DUP3 DUP3 SUB SWAP1 POP DUP2 DUP2 GT ISZERO PUSH2 0x277E JUMPI PUSH2 0x277D PUSH2 0x22CF JUMP JUMPDEST JUMPDEST SWAP3 SWAP2 POP POP JUMP JUMPDEST PUSH1 0x0 PUSH2 0x278F DUP3 PUSH2 0x1F9F JUMP JUMPDEST SWAP2 POP PUSH2 0x279A DUP4 PUSH2 0x1F9F JUMP JUMPDEST SWAP3 POP DUP3 DUP3 MUL PUSH2 0x27A8 DUP2 PUSH2 0x1F9F JUMP JUMPDEST SWAP2 POP DUP3 DUP3 DIV DUP5 EQ DUP4 ISZERO OR PUSH2 0x27BF JUMPI PUSH2 0x27BE PUSH2 0x22CF JUMP JUMPDEST JUMPDEST POP SWAP3 SWAP2 POP POP JUMP JUMPDEST PUSH32 0x4E487B7100000000000000000000000000000000000000000000000000000000 PUSH1 0x0 MSTORE PUSH1 0x12 PUSH1 0x4 MSTORE PUSH1 0x24 PUSH1 0x0 REVERT JUMPDEST PUSH1 0x0 PUSH2 0x2800 DUP3 PUSH2 0x1F9F JUMP JUMPDEST SWAP2 POP PUSH2 0x280B DUP4 PUSH2 0x1F9F JUMP JUMPDEST SWAP3 POP DUP3 PUSH2 0x281B JUMPI PUSH2 0x281A PUSH2 0x27C6 JUMP JUMPDEST JUMPDEST DUP3 DUP3 DIV SWAP1 POP SWAP3 SWAP2 POP POP JUMP JUMPDEST PUSH32 0x536166654D6174683A206D756C7469706C69636174696F6E206F766572666C6F PUSH1 0x0 DUP3 ADD MSTORE PUSH32 0x7700000000000000000000000000000000000000000000000000000000000000 PUSH1 0x20 DUP3 ADD MSTORE POP JUMP JUMPDEST PUSH1 0x0 PUSH2 0x2882 PUSH1 0x21 DUP4 PUSH2 0x1E95 JUMP JUMPDEST SWAP2 POP PUSH2 0x288D DUP3 PUSH2 0x2826 JUMP JUMPDEST PUSH1 0x40 DUP3 ADD SWAP1 POP SWAP2 SWAP1 POP JUMP JUMPDEST PUSH1 0x0 PUSH1 0x20 DUP3 ADD SWAP1 POP DUP2 DUP2 SUB PUSH1 0x0 DUP4 ADD MSTORE PUSH2 0x28B1 DUP2 PUSH2 0x2875 JUMP JUMPDEST SWAP1 POP SWAP2 SWAP1 POP JUMP JUMPDEST PUSH32 0x536166654D6174683A206164646974696F6E206F766572666C6F770000000000 PUSH1 0x0 DUP3 ADD MSTORE POP JUMP JUMPDEST PUSH1 0x0 PUSH2 0x28EE PUSH1 0x1B DUP4 PUSH2 0x1E95 JUMP JUMPDEST SWAP2 POP PUSH2 0x28F9 DUP3 PUSH2 0x28B8 JUMP JUMPDEST PUSH1 0x20 DUP3 ADD SWAP1 POP SWAP2 SWAP1 POP JUMP JUMPDEST PUSH1 0x0 PUSH1 0x20 DUP3 ADD SWAP1 POP DUP2 DUP2 SUB PUSH1 0x0 DUP4 ADD MSTORE PUSH2 0x291D DUP2 PUSH2 0x28E1 JUMP JUMPDEST SWAP1 POP SWAP2 SWAP1 POP JUMP JUMPDEST PUSH32 0x4E487B7100000000000000000000000000000000000000000000000000000000 PUSH1 0x0 MSTORE PUSH1 0x41 PUSH1 0x4 MSTORE PUSH1 0x24 PUSH1 0x0 REVERT JUMPDEST PUSH32 0x4E487B7100000000000000000000000000000000000000000000000000000000 PUSH1 0x0 MSTORE PUSH1 0x32 PUSH1 0x4 MSTORE PUSH1 0x24 PUSH1 0x0 REVERT JUMPDEST PUSH1 0x0 DUP2 SWAP1 POP SWAP2 SWAP1 POP JUMP JUMPDEST PUSH1 0x0 PUSH2 0x29A7 PUSH2 0x29A2 PUSH2 0x299D DUP5 PUSH2 0x2982 JUMP JUMPDEST PUSH2 0x204B JUMP JUMPDEST PUSH2 0x1F9F JUMP JUMPDEST SWAP1 POP SWAP2 SWAP1 POP JUMP JUMPDEST PUSH2 0x29B7 DUP2 PUSH2 0x298C JUMP JUMPDEST DUP3 MSTORE POP POP JUMP JUMPDEST PUSH1 0x0 DUP2 MLOAD SWAP1 POP SWAP2 SWAP1 POP JUMP JUMPDEST PUSH1 0x0 DUP3 DUP3 MSTORE PUSH1 0x20 DUP3 ADD SWAP1 POP SWAP3 SWAP2 POP POP JUMP JUMPDEST PUSH1 0x0 DUP2 SWAP1 POP PUSH1 0x20 DUP3 ADD SWAP1 POP SWAP2 SWAP1 POP JUMP JUMPDEST PUSH2 0x29F2 DUP2 PUSH2 0x1F61 JUMP JUMPDEST DUP3 MSTORE POP POP JUMP JUMPDEST PUSH1 0x0 PUSH2 0x2A04 DUP4 DUP4 PUSH2 0x29E9 JUMP JUMPDEST PUSH1 0x20 DUP4 ADD SWAP1 POP SWAP3 SWAP2 POP POP JUMP JUMPDEST PUSH1 0x0 PUSH1 0x20 DUP3 ADD SWAP1 POP SWAP2 SWAP1 POP JUMP JUMPDEST PUSH1 0x0 PUSH2 0x2A28 DUP3 PUSH2 0x29BD JUMP JUMPDEST PUSH2 0x2A32 DUP2 DUP6 PUSH2 0x29C8 JUMP JUMPDEST SWAP4 POP PUSH2 0x2A3D DUP4 PUSH2 0x29D9 JUMP JUMPDEST DUP1 PUSH1 0x0 JUMPDEST DUP4 DUP2 LT ISZERO PUSH2 0x2A6E JUMPI DUP2 MLOAD PUSH2 0x2A55 DUP9 DUP3 PUSH2 0x29F8 JUMP JUMPDEST SWAP8 POP PUSH2 0x2A60 DUP4 PUSH2 0x2A10 JUMP JUMPDEST SWAP3 POP POP PUSH1 0x1 DUP2 ADD SWAP1 POP PUSH2 0x2A41 JUMP JUMPDEST POP DUP6 SWAP4 POP POP POP POP SWAP3 SWAP2 POP POP JUMP JUMPDEST PUSH1 0x0 PUSH1 0xA0 DUP3 ADD SWAP1 POP PUSH2 0x2A90 PUSH1 0x0 DUP4 ADD DUP9 PUSH2 0x20C5 JUMP JUMPDEST PUSH2 0x2A9D PUSH1 0x20 DUP4 ADD DUP8 PUSH2 0x29AE JUMP JUMPDEST DUP2 DUP2 SUB PUSH1 0x40 DUP4 ADD MSTORE PUSH2 0x2AAF DUP2 DUP7 PUSH2 0x2A1D JUMP JUMPDEST SWAP1 POP PUSH2 0x2ABE PUSH1 0x60 DUP4 ADD DUP6 PUSH2 0x2142 JUMP JUMPDEST PUSH2 0x2ACB PUSH1 0x80 DUP4 ADD DUP5 PUSH2 0x20C5 JUMP JUMPDEST SWAP7 SWAP6 POP POP POP POP POP POP JUMP INVALID LOG2 PUSH5 0x6970667358 0x22 SLT KECCAK256 DUP2 DUP7 MSTORE8 SWAP11 0xD6 0xED LT 0xE 0xC2 SLT SGT 0x5F 0xEE 0xB7 0xD9 0xB0 DELEGATECALL SELFDESTRUCT SELFBALANCE 0x29 REVERT MSTORE AND RETURNDATACOPY ISZERO REVERT 0xDC DUP9 CALLDATALOAD 0xF8 0xD8 ADDRESS PUSH5 0x736F6C6343 STOP ADDMOD GT STOP CALLER "
				},
				"gasEstimates": {
					"creation": {
						"codeDepositCost": "2203800",
						"executionCost": "infinite",
						"totalCost": "infinite"
					},
					"external": {
						"DEXs(address)": "2933",
						"addDex(address)": "29420",
						"allowance(address,address)": "infinite",
						"approve(address,uint256)": "infinite",
						"balanceOf(address)": "2974",
						"burn(uint256)": "infinite",
						"decimals()": "366",
						"decreaseAllowance(address,uint256)": "infinite",
						"increaseAllowance(address,uint256)": "infinite",
						"marketAddress()": "2653",
						"name()": "infinite",
						"owner()": "2589",
						"renounceOwnership()": "30397",
						"setExcludeds(address)": "29346",
						"setMarketAddress(address)": "27144",
						"symbol()": "infinite",
						"totalSupply()": "2527",
						"transfer(address,uint256)": "infinite",
						"transferFrom(address,address,uint256)": "infinite",
						"transferOwnership(address)": "30830",
						"uniswapUsdtV2Pair()": "infinite",
						"uniswapV2Pair()": "infinite",
						"uniswapV2Router()": "infinite",
						"usdtMintAddress()": "2559"
					},
					"internal": {
						"_approve(address,address,uint256)": "infinite",
						"_burn(address,uint256)": "infinite",
						"_mint(address,uint256)": "infinite",
						"_transfer(address,address,uint256)": "infinite",
						"swapTokensForUsdt(uint256)": "infinite"
					}
				},
				"methodIdentifiers": {
					"DEXs(address)": "dec1a6f6",
					"addDex(address)": "536db266",
					"allowance(address,address)": "dd62ed3e",
					"approve(address,uint256)": "095ea7b3",
					"balanceOf(address)": "70a08231",
					"burn(uint256)": "42966c68",
					"decimals()": "313ce567",
					"decreaseAllowance(address,uint256)": "a457c2d7",
					"increaseAllowance(address,uint256)": "39509351",
					"marketAddress()": "95623641",
					"name()": "06fdde03",
					"owner()": "8da5cb5b",
					"renounceOwnership()": "715018a6",
					"setExcludeds(address)": "a8808fcc",
					"setMarketAddress(address)": "fae92612",
					"symbol()": "95d89b41",
					"totalSupply()": "18160ddd",
					"transfer(address,uint256)": "a9059cbb",
					"transferFrom(address,address,uint256)": "23b872dd",
					"transferOwnership(address)": "f2fde38b",
					"uniswapUsdtV2Pair()": "2aafa283",
					"uniswapV2Pair()": "49bd5a5e",
					"uniswapV2Router()": "1694505e",
					"usdtMintAddress()": "88af60c6"
				}
			},
			"storageLayout": {
				"storage": [
					{
						"astId": 296,
						"contract": "ex/token/Baby.sol:Bee",
						"label": "_owner",
						"offset": 0,
						"slot": "0",
						"type": "t_address"
					},
					{
						"astId": 1377,
						"contract": "ex/token/Baby.sol:Bee",
						"label": "_balances",
						"offset": 0,
						"slot": "1",
						"type": "t_mapping(t_address,t_uint256)"
					},
					{
						"astId": 1383,
						"contract": "ex/token/Baby.sol:Bee",
						"label": "_allowances",
						"offset": 0,
						"slot": "2",
						"type": "t_mapping(t_address,t_mapping(t_address,t_uint256))"
					},
					{
						"astId": 1385,
						"contract": "ex/token/Baby.sol:Bee",
						"label": "_totalSupply",
						"offset": 0,
						"slot": "3",
						"type": "t_uint256"
					},
					{
						"astId": 1387,
						"contract": "ex/token/Baby.sol:Bee",
						"label": "_name",
						"offset": 0,
						"slot": "4",
						"type": "t_string_storage"
					},
					{
						"astId": 1389,
						"contract": "ex/token/Baby.sol:Bee",
						"label": "_symbol",
						"offset": 0,
						"slot": "5",
						"type": "t_string_storage"
					},
					{
						"astId": 1400,
						"contract": "ex/token/Baby.sol:Bee",
						"label": "_isExcludeds",
						"offset": 0,
						"slot": "6",
						"type": "t_mapping(t_address,t_bool)"
					},
					{
						"astId": 1404,
						"contract": "ex/token/Baby.sol:Bee",
						"label": "DEXs",
						"offset": 0,
						"slot": "7",
						"type": "t_mapping(t_address,t_bool)"
					},
					{
						"astId": 1406,
						"contract": "ex/token/Baby.sol:Bee",
						"label": "inSwapAndLiquify",
						"offset": 0,
						"slot": "8",
						"type": "t_bool"
					},
					{
						"astId": 1409,
						"contract": "ex/token/Baby.sol:Bee",
						"label": "marketAddress",
						"offset": 1,
						"slot": "8",
						"type": "t_address"
					},
					{
						"astId": 1412,
						"contract": "ex/token/Baby.sol:Bee",
						"label": "usdtMintAddress",
						"offset": 0,
						"slot": "9",
						"type": "t_address"
					}
				],
				"types": {
					"t_address": {
						"encoding": "inplace",
						"label": "address",
						"numberOfBytes": "20"
					},
					"t_bool": {
						"encoding": "inplace",
						"label": "bool",
						"numberOfBytes": "1"
					},
					"t_mapping(t_address,t_bool)": {
						"encoding": "mapping",
						"key": "t_address",
						"label": "mapping(address => bool)",
						"numberOfBytes": "32",
						"value": "t_bool"
					},
					"t_mapping(t_address,t_mapping(t_address,t_uint256))": {
						"encoding": "mapping",
						"key": "t_address",
						"label": "mapping(address => mapping(address => uint256))",
						"numberOfBytes": "32",
						"value": "t_mapping(t_address,t_uint256)"
					},
					"t_mapping(t_address,t_uint256)": {
						"encoding": "mapping",
						"key": "t_address",
						"label": "mapping(address => uint256)",
						"numberOfBytes": "32",
						"value": "t_uint256"
					},
					"t_string_storage": {
						"encoding": "bytes",
						"label": "string",
						"numberOfBytes": "32"
					},
					"t_uint256": {
						"encoding": "inplace",
						"label": "uint256",
						"numberOfBytes": "32"
					}
				}
			},
			"userdoc": {
				"kind": "user",
				"methods": {},
				"version": 1
			}
		}
	}
}