{
	"ex/token/Baby.sol": {
		"Bee": {
			"abi": [
				{
					"inputs": [],
					"stateMutability": "nonpayable",
					"type": "constructor"
				},
				{
					"anonymous": false,
					"inputs": [
						{
							"indexed": true,
							"internalType": "address",
							"name": "owner",
							"type": "address"
						},
						{
							"indexed": true,
							"internalType": "address",
							"name": "spender",
							"type": "address"
						},
						{
							"indexed": false,
							"internalType": "uint256",
							"name": "value",
							"type": "uint256"
						}
					],
					"name": "Approval",
					"type": "event"
				},
				{
					"anonymous": false,
					"inputs": [
						{
							"indexed": true,
							"internalType": "address",
							"name": "previousOwner",
							"type": "address"
						},
						{
							"indexed": true,
							"internalType": "address",
							"name": "newOwner",
							"type": "address"
						}
					],
					"name": "OwnershipTransferred",
					"type": "event"
				},
				{
					"anonymous": false,
					"inputs": [
						{
							"indexed": true,
							"internalType": "address",
							"name": "from",
							"type": "address"
						},
						{
							"indexed": true,
							"internalType": "address",
							"name": "to",
							"type": "address"
						},
						{
							"indexed": false,
							"internalType": "uint256",
							"name": "value",
							"type": "uint256"
						}
					],
					"name": "Transfer",
					"type": "event"
				},
				{
					"inputs": [
						{
							"internalType": "address",
							"name": "",
							"type": "address"
						}
					],
					"name": "DEXs",
					"outputs": [
						{
							"internalType": "bool",
							"name": "",
							"type": "bool"
						}
					],
					"stateMutability": "view",
					"type": "function"
				},
				{
					"inputs": [
						{
							"internalType": "address",
							"name": "_pair",
							"type": "address"
						}
					],
					"name": "addDex",
					"outputs": [],
					"stateMutability": "nonpayable",
					"type": "function"
				},
				{
					"inputs": [
						{
							"internalType": "address",
							"name": "owner",
							"type": "address"
						},
						{
							"internalType": "address",
							"name": "spender",
							"type": "address"
						}
					],
					"name": "allowance",
					"outputs": [
						{
							"internalType": "uint256",
							"name": "",
							"type": "uint256"
						}
					],
					"stateMutability": "view",
					"type": "function"
				},
				{
					"inputs": [
						{
							"internalType": "address",
							"name": "spender",
							"type": "address"
						},
						{
							"internalType": "uint256",
							"name": "amount",
							"type": "uint256"
						}
					],
					"name": "approve",
					"outputs": [
						{
							"internalType": "bool",
							"name": "",
							"type": "bool"
						}
					],
					"stateMutability": "nonpayable",
					"type": "function"
				},
				{
					"inputs": [
						{
							"internalType": "address",
							"name": "account",
							"type": "address"
						}
					],
					"name": "balanceOf",
					"outputs": [
						{
							"internalType": "uint256",
							"name": "",
							"type": "uint256"
						}
					],
					"stateMutability": "view",
					"type": "function"
				},
				{
					"inputs": [
						{
							"internalType": "uint256",
							"name": "amount",
							"type": "uint256"
						}
					],
					"name": "burn",
					"outputs": [],
					"stateMutability": "nonpayable",
					"type": "function"
				},
				{
					"inputs": [],
					"name": "decimals",
					"outputs": [
						{
							"internalType": "uint8",
							"name": "",
							"type": "uint8"
						}
					],
					"stateMutability": "view",
					"type": "function"
				},
				{
					"inputs": [
						{
							"internalType": "address",
							"name": "spender",
							"type": "address"
						},
						{
							"internalType": "uint256",
							"name": "subtractedValue",
							"type": "uint256"
						}
					],
					"name": "decreaseAllowance",
					"outputs": [
						{
							"internalType": "bool",
							"name": "",
							"type": "bool"
						}
					],
					"stateMutability": "nonpayable",
					"type": "function"
				},
				{
					"inputs": [
						{
							"internalType": "address",
							"name": "spender",
							"type": "address"
						},
						{
							"internalType": "uint256",
							"name": "addedValue",
							"type": "uint256"
						}
					],
					"name": "increaseAllowance",
					"outputs": [
						{
							"internalType": "bool",
							"name": "",
							"type": "bool"
						}
					],
					"stateMutability": "nonpayable",
					"type": "function"
				},
				{
					"inputs": [],
					"name": "marketAddress",
					"outputs": [
						{
							"internalType": "address",
							"name": "",
							"type": "address"
						}
					],
					"stateMutability": "view",
					"type": "function"
				},
				{
					"inputs": [],
					"name": "name",
					"outputs": [
						{
							"internalType": "string",
							"name": "",
							"type": "string"
						}
					],
					"stateMutability": "view",
					"type": "function"
				},
				{
					"inputs": [],
					"name": "owner",
					"outputs": [
						{
							"internalType": "address",
							"name": "",
							"type": "address"
						}
					],
					"stateMutability": "view",
					"type": "function"
				},
				{
					"inputs": [],
					"name": "renounceOwnership",
					"outputs": [],
					"stateMutability": "nonpayable",
					"type": "function"
				},
				{
					"inputs": [
						{
							"internalType": "address",
							"name": "addr",
							"type": "address"
						}
					],
					"name": "setExcludeds",
					"outputs": [],
					"stateMutability": "nonpayable",
					"type": "function"
				},
				{
					"inputs": [
						{
							"internalType": "address",
							"name": "addr",
							"type": "address"
						}
					],
					"name": "setMarketAddress",
					"outputs": [],
					"stateMutability": "nonpayable",
					"type": "function"
				},
				{
					"inputs": [
						{
							"internalType": "uint256",
							"name": "tokenAmount",
							"type": "uint256"
						}
					],
					"name": "swapTokensForUsdt",
					"outputs": [],
					"stateMutability": "nonpayable",
					"type": "function"
				},
				{
					"inputs": [],
					"name": "symbol",
					"outputs": [
						{
							"internalType": "string",
							"name": "",
							"type": "string"
						}
					],
					"stateMutability": "view",
					"type": "function"
				},
				{
					"inputs": [],
					"name": "totalSupply",
					"outputs": [
						{
							"internalType": "uint256",
							"name": "",
							"type": "uint256"
						}
					],
					"stateMutability": "view",
					"type": "function"
				},
				{
					"inputs": [
						{
							"internalType": "address",
							"name": "recipient",
							"type": "address"
						},
						{
							"internalType": "uint256",
							"name": "amount",
							"type": "uint256"
						}
					],
					"name": "transfer",
					"outputs": [
						{
							"internalType": "bool",
							"name": "",
							"type": "bool"
						}
					],
					"stateMutability": "nonpayable",
					"type": "function"
				},
				{
					"inputs": [
						{
							"internalType": "address",
							"name": "sender",
							"type": "address"
						},
						{
							"internalType": "address",
							"name": "recipient",
							"type": "address"
						},
						{
							"internalType": "uint256",
							"name": "amount",
							"type": "uint256"
						}
					],
					"name": "transferFrom",
					"outputs": [
						{
							"internalType": "bool",
							"name": "",
							"type": "bool"
						}
					],
					"stateMutability": "nonpayable",
					"type": "function"
				},
				{
					"inputs": [
						{
							"internalType": "address",
							"name": "newOwner",
							"type": "address"
						}
					],
					"name": "transferOwnership",
					"outputs": [],
					"stateMutability": "nonpayable",
					"type": "function"
				},
				{
					"inputs": [],
					"name": "uniswapUsdtV2Pair",
					"outputs": [
						{
							"internalType": "address",
							"name": "",
							"type": "address"
						}
					],
					"stateMutability": "view",
					"type": "function"
				},
				{
					"inputs": [],
					"name": "uniswapV2Pair",
					"outputs": [
						{
							"internalType": "address",
							"name": "",
							"type": "address"
						}
					],
					"stateMutability": "view",
					"type": "function"
				},
				{
					"inputs": [],
					"name": "uniswapV2Router",
					"outputs": [
						{
							"internalType": "contract IPancakeSwapV2Router02",
							"name": "",
							"type": "address"
						}
					],
					"stateMutability": "view",
					"type": "function"
				},
				{
					"inputs": [],
					"name": "usdtMintAddress",
					"outputs": [
						{
							"internalType": "address",
							"name": "",
							"type": "address"
						}
					],
					"stateMutability": "view",
					"type": "function"
				},
				{
					"stateMutability": "payable",
					"type": "receive"
				}
			],
			"devdoc": {
				"kind": "dev",
				"methods": {
					"owner()": {
						"details": "Returns the address of the current owner."
					},
					"renounceOwnership()": {
						"details": "Leaves the contract without owner. It will not be possible to call `onlyOwner` functions anymore. Can only be called by the current owner. NOTE: Renouncing ownership will leave the contract without an owner, thereby removing any functionality that is only available to the owner."
					},
					"transferOwnership(address)": {
						"details": "Transfers ownership of the contract to a new account (`newOwner`). Can only be called by the current owner."
					}
				},
				"version": 1
			},
			"evm": {
				"assembly": "    /* \"ex/token/Baby.sol\":15784:23421  contract Bee is Context, IERC20, IERC20Metadata, Ownable{... */\n  mstore(0x40, 0xe0)\n    /* \"ex/token/Baby.sol\":16441:16483  0xd3c0b6Aa1538d639912789be705F18b5Fd89fcE6 */\n  0xd3c0b6aa1538d639912789be705f18b5fd89fce6\n    /* \"ex/token/Baby.sol\":16410:16483  address public marketAddress = 0xd3c0b6Aa1538d639912789be705F18b5Fd89fcE6 */\n  0x08\n  exp(0x0100, 0x01)\n  dup2\n  sload\n  dup2\n  0xffffffffffffffffffffffffffffffffffffffff\n  mul\n  not\n  and\n  swap1\n  dup4\n  0xffffffffffffffffffffffffffffffffffffffff\n  and\n  mul\n  or\n  swap1\n  sstore\n  pop\n    /* \"ex/token/Baby.sol\":16645:16687  0x7ef95a0FEE0Dd31b22626fA2e10Ee6A223F8a684 */\n  0x7ef95a0fee0dd31b22626fa2e10ee6a223f8a684\n    /* \"ex/token/Baby.sol\":16612:16687  address public usdtMintAddress = 0x7ef95a0FEE0Dd31b22626fA2e10Ee6A223F8a684 */\n  0x09\n  exp(0x0100, 0x00)\n  dup2\n  sload\n  dup2\n  0xffffffffffffffffffffffffffffffffffffffff\n  mul\n  not\n  and\n  swap1\n  dup4\n  0xffffffffffffffffffffffffffffffffffffffff\n  and\n  mul\n  or\n  swap1\n  sstore\n  pop\n    /* \"ex/token/Baby.sol\":16818:17700  constructor () {... */\n  callvalue\n  dup1\n  iszero\n  tag_1\n  jumpi\n  0x00\n  dup1\n  revert\ntag_1:\n  pop\n    /* \"ex/token/Baby.sol\":3049:3081  _transferOwnership(_msgSender()) */\n  tag_5\n    /* \"ex/token/Baby.sol\":3068:3080  _msgSender() */\n  tag_6\n    /* \"ex/token/Baby.sol\":3068:3078  _msgSender */\n  shl(0x20, tag_7)\n    /* \"ex/token/Baby.sol\":3068:3080  _msgSender() */\n  0x20\n  shr\n  jump\t// in\ntag_6:\n    /* \"ex/token/Baby.sol\":3049:3067  _transferOwnership */\n  shl(0x20, tag_8)\n    /* \"ex/token/Baby.sol\":3049:3081  _transferOwnership(_msgSender()) */\n  0x20\n  shr\n  jump\t// in\ntag_5:\n    /* \"ex/token/Baby.sol\":16844:16880  _mint(_msgSender(), 10240000 * 1e18) */\n  tag_10\n    /* \"ex/token/Baby.sol\":16850:16862  _msgSender() */\n  tag_11\n    /* \"ex/token/Baby.sol\":16850:16860  _msgSender */\n  shl(0x20, tag_7)\n    /* \"ex/token/Baby.sol\":16850:16862  _msgSender() */\n  0x20\n  shr\n  jump\t// in\ntag_11:\n    /* \"ex/token/Baby.sol\":16864:16879  10240000 * 1e18 */\n  0x0878678326eac900000000\n    /* \"ex/token/Baby.sol\":16844:16849  _mint */\n  shl(0x20, tag_12)\n    /* \"ex/token/Baby.sol\":16844:16880  _mint(_msgSender(), 10240000 * 1e18) */\n  0x20\n  shr\n  jump\t// in\ntag_10:\n    /* \"ex/token/Baby.sol\":16917:16929  _msgSender() */\n  tag_13\n    /* \"ex/token/Baby.sol\":16917:16927  _msgSender */\n  shl(0x20, tag_7)\n    /* \"ex/token/Baby.sol\":16917:16929  _msgSender() */\n  0x20\n  shr\n  jump\t// in\ntag_13:\n    /* \"ex/token/Baby.sol\":16896:16947  Transfer(address(0), _msgSender(), 10240000 * 1e18) */\n  0xffffffffffffffffffffffffffffffffffffffff\n  and\n    /* \"ex/token/Baby.sol\":16913:16914  0 */\n  0x00\n    /* \"ex/token/Baby.sol\":16896:16947  Transfer(address(0), _msgSender(), 10240000 * 1e18) */\n  0xffffffffffffffffffffffffffffffffffffffff\n  and\n  0xddf252ad1be2c89b69c2b068fc378daa952ba7f163c4a11628f55a4df523b3ef\n    /* \"ex/token/Baby.sol\":16931:16946  10240000 * 1e18 */\n  0x0878678326eac900000000\n    /* \"ex/token/Baby.sol\":16896:16947  Transfer(address(0), _msgSender(), 10240000 * 1e18) */\n  mload(0x40)\n  tag_14\n  swap2\n  swap1\n  tag_15\n  jump\t// in\ntag_14:\n  mload(0x40)\n  dup1\n  swap2\n  sub\n  swap1\n  log3\n    /* \"ex/token/Baby.sol\":17161:17200  IPancakeSwapV2Router02 _uniswapV2Router */\n  0x00\n    /* \"ex/token/Baby.sol\":17226:17268  0x9Ac64Cc6e4415144C455BD8E4837Fea55603e5c3 */\n  0x9ac64cc6e4415144c455bd8e4837fea55603e5c3\n    /* \"ex/token/Baby.sol\":17161:17269  IPancakeSwapV2Router02 _uniswapV2Router = IPancakeSwapV2Router02(0x9Ac64Cc6e4415144C455BD8E4837Fea55603e5c3) */\n  swap1\n  pop\n    /* \"ex/token/Baby.sol\":17318:17334  _uniswapV2Router */\n  dup1\n    /* \"ex/token/Baby.sol\":17318:17342  _uniswapV2Router.factory */\n  0xffffffffffffffffffffffffffffffffffffffff\n  and\n  0xc45a0155\n    /* \"ex/token/Baby.sol\":17318:17344  _uniswapV2Router.factory() */\n  mload(0x40)\n  dup2\n  0xffffffff\n  and\n  0xe0\n  shl\n  dup2\n  mstore\n  0x04\n  add\n  0x20\n  mload(0x40)\n  dup1\n  dup4\n  sub\n  dup2\n  dup7\n  gas\n  staticcall\n  iszero\n  dup1\n  iszero\n  tag_17\n  jumpi\n  returndatasize\n  0x00\n  dup1\n  returndatacopy\n  revert(0x00, returndatasize)\ntag_17:\n  pop\n  pop\n  pop\n  pop\n  mload(0x40)\n  returndatasize\n  not(0x1f)\n  0x1f\n  dup3\n  add\n  and\n  dup3\n  add\n  dup1\n  0x40\n  mstore\n  pop\n  dup2\n  add\n  swap1\n  tag_18\n  swap2\n  swap1\n  tag_19\n  jump\t// in\ntag_18:\n    /* \"ex/token/Baby.sol\":17296:17370  IPancakeSwapV2Factory(_uniswapV2Router.factory())... */\n  0xffffffffffffffffffffffffffffffffffffffff\n  and\n  0xc9c65396\n    /* \"ex/token/Baby.sol\":17379:17383  this */\n  address\n    /* \"ex/token/Baby.sol\":17386:17402  _uniswapV2Router */\n  dup4\n    /* \"ex/token/Baby.sol\":17386:17407  _uniswapV2Router.WETH */\n  0xffffffffffffffffffffffffffffffffffffffff\n  and\n  0xad5c4648\n    /* \"ex/token/Baby.sol\":17386:17409  _uniswapV2Router.WETH() */\n  mload(0x40)\n  dup2\n  0xffffffff\n  and\n  0xe0\n  shl\n  dup2\n  mstore\n  0x04\n  add\n  0x20\n  mload(0x40)\n  dup1\n  dup4\n  sub\n  dup2\n  dup7\n  gas\n  staticcall\n  iszero\n  dup1\n  iszero\n  tag_21\n  jumpi\n  returndatasize\n  0x00\n  dup1\n  returndatacopy\n  revert(0x00, returndatasize)\ntag_21:\n  pop\n  pop\n  pop\n  pop\n  mload(0x40)\n  returndatasize\n  not(0x1f)\n  0x1f\n  dup3\n  add\n  and\n  dup3\n  add\n  dup1\n  0x40\n  mstore\n  pop\n  dup2\n  add\n  swap1\n  tag_22\n  swap2\n  swap1\n  tag_19\n  jump\t// in\ntag_22:\n    /* \"ex/token/Baby.sol\":17296:17410  IPancakeSwapV2Factory(_uniswapV2Router.factory())... */\n  mload(0x40)\n  dup4\n  0xffffffff\n  and\n  0xe0\n  shl\n  dup2\n  mstore\n  0x04\n  add\n  tag_23\n  swap3\n  swap2\n  swap1\n  tag_24\n  jump\t// in\ntag_23:\n  0x20\n  mload(0x40)\n  dup1\n  dup4\n  sub\n  dup2\n  0x00\n  dup8\n  gas\n  call\n  iszero\n  dup1\n  iszero\n  tag_26\n  jumpi\n  returndatasize\n  0x00\n  dup1\n  returndatacopy\n  revert(0x00, returndatasize)\ntag_26:\n  pop\n  pop\n  pop\n  pop\n  mload(0x40)\n  returndatasize\n  not(0x1f)\n  0x1f\n  dup3\n  add\n  and\n  dup3\n  add\n  dup1\n  0x40\n  mstore\n  pop\n  dup2\n  add\n  swap1\n  tag_27\n  swap2\n  swap1\n  tag_19\n  jump\t// in\ntag_27:\n    /* \"ex/token/Baby.sol\":17280:17410  uniswapV2Pair = IPancakeSwapV2Factory(_uniswapV2Router.factory())... */\n  0xffffffffffffffffffffffffffffffffffffffff\n  and\n  0xa0\n  dup2\n  0xffffffffffffffffffffffffffffffffffffffff\n  and\n  dup2\n  mstore\n  pop\n  pop\n    /* \"ex/token/Baby.sol\":17465:17481  _uniswapV2Router */\n  dup1\n    /* \"ex/token/Baby.sol\":17465:17489  _uniswapV2Router.factory */\n  0xffffffffffffffffffffffffffffffffffffffff\n  and\n  0xc45a0155\n    /* \"ex/token/Baby.sol\":17465:17491  _uniswapV2Router.factory() */\n  mload(0x40)\n  dup2\n  0xffffffff\n  and\n  0xe0\n  shl\n  dup2\n  mstore\n  0x04\n  add\n  0x20\n  mload(0x40)\n  dup1\n  dup4\n  sub\n  dup2\n  dup7\n  gas\n  staticcall\n  iszero\n  dup1\n  iszero\n  tag_29\n  jumpi\n  returndatasize\n  0x00\n  dup1\n  returndatacopy\n  revert(0x00, returndatasize)\ntag_29:\n  pop\n  pop\n  pop\n  pop\n  mload(0x40)\n  returndatasize\n  not(0x1f)\n  0x1f\n  dup3\n  add\n  and\n  dup3\n  add\n  dup1\n  0x40\n  mstore\n  pop\n  dup2\n  add\n  swap1\n  tag_30\n  swap2\n  swap1\n  tag_19\n  jump\t// in\ntag_30:\n    /* \"ex/token/Baby.sol\":17443:17517  IPancakeSwapV2Factory(_uniswapV2Router.factory())... */\n  0xffffffffffffffffffffffffffffffffffffffff\n  and\n  0xc9c65396\n    /* \"ex/token/Baby.sol\":17526:17530  this */\n  address\n    /* \"ex/token/Baby.sol\":17533:17548  usdtMintAddress */\n  0x09\n  0x00\n  swap1\n  sload\n  swap1\n  0x0100\n  exp\n  swap1\n  div\n  0xffffffffffffffffffffffffffffffffffffffff\n  and\n    /* \"ex/token/Baby.sol\":17443:17549  IPancakeSwapV2Factory(_uniswapV2Router.factory())... */\n  mload(0x40)\n  dup4\n  0xffffffff\n  and\n  0xe0\n  shl\n  dup2\n  mstore\n  0x04\n  add\n  tag_31\n  swap3\n  swap2\n  swap1\n  tag_24\n  jump\t// in\ntag_31:\n  0x20\n  mload(0x40)\n  dup1\n  dup4\n  sub\n  dup2\n  0x00\n  dup8\n  gas\n  call\n  iszero\n  dup1\n  iszero\n  tag_33\n  jumpi\n  returndatasize\n  0x00\n  dup1\n  returndatacopy\n  revert(0x00, returndatasize)\ntag_33:\n  pop\n  pop\n  pop\n  pop\n  mload(0x40)\n  returndatasize\n  not(0x1f)\n  0x1f\n  dup3\n  add\n  and\n  dup3\n  add\n  dup1\n  0x40\n  mstore\n  pop\n  dup2\n  add\n  swap1\n  tag_34\n  swap2\n  swap1\n  tag_19\n  jump\t// in\ntag_34:\n    /* \"ex/token/Baby.sol\":17423:17549  uniswapUsdtV2Pair = IPancakeSwapV2Factory(_uniswapV2Router.factory())... */\n  0xffffffffffffffffffffffffffffffffffffffff\n  and\n  0xc0\n  dup2\n  0xffffffffffffffffffffffffffffffffffffffff\n  and\n  dup2\n  mstore\n  pop\n  pop\n    /* \"ex/token/Baby.sol\":17580:17596  _uniswapV2Router */\n  dup1\n    /* \"ex/token/Baby.sol\":17562:17596  uniswapV2Router = _uniswapV2Router */\n  0xffffffffffffffffffffffffffffffffffffffff\n  and\n  0x80\n  dup2\n  0xffffffffffffffffffffffffffffffffffffffff\n  and\n  dup2\n  mstore\n  pop\n  pop\n    /* \"ex/token/Baby.sol\":17638:17642  true */\n  0x01\n    /* \"ex/token/Baby.sol\":17607:17611  DEXs */\n  0x07\n    /* \"ex/token/Baby.sol\":17607:17635  DEXs[address(uniswapV2Pair)] */\n  0x00\n    /* \"ex/token/Baby.sol\":17620:17633  uniswapV2Pair */\n  mload(0xa0)\n    /* \"ex/token/Baby.sol\":17607:17635  DEXs[address(uniswapV2Pair)] */\n  0xffffffffffffffffffffffffffffffffffffffff\n  and\n  0xffffffffffffffffffffffffffffffffffffffff\n  and\n  dup2\n  mstore\n  0x20\n  add\n  swap1\n  dup2\n  mstore\n  0x20\n  add\n  0x00\n  keccak256\n  0x00\n    /* \"ex/token/Baby.sol\":17607:17642  DEXs[address(uniswapV2Pair)] = true */\n  0x0100\n  exp\n  dup2\n  sload\n  dup2\n  0xff\n  mul\n  not\n  and\n  swap1\n  dup4\n  iszero\n  iszero\n  mul\n  or\n  swap1\n  sstore\n  pop\n    /* \"ex/token/Baby.sol\":17688:17692  true */\n  0x01\n    /* \"ex/token/Baby.sol\":17653:17657  DEXs */\n  0x07\n    /* \"ex/token/Baby.sol\":17653:17685  DEXs[address(uniswapUsdtV2Pair)] */\n  0x00\n    /* \"ex/token/Baby.sol\":17666:17683  uniswapUsdtV2Pair */\n  mload(0xc0)\n    /* \"ex/token/Baby.sol\":17653:17685  DEXs[address(uniswapUsdtV2Pair)] */\n  0xffffffffffffffffffffffffffffffffffffffff\n  and\n  0xffffffffffffffffffffffffffffffffffffffff\n  and\n  dup2\n  mstore\n  0x20\n  add\n  swap1\n  dup2\n  mstore\n  0x20\n  add\n  0x00\n  keccak256\n  0x00\n    /* \"ex/token/Baby.sol\":17653:17692  DEXs[address(uniswapUsdtV2Pair)] = true */\n  0x0100\n  exp\n  dup2\n  sload\n  dup2\n  0xff\n  mul\n  not\n  and\n  swap1\n  dup4\n  iszero\n  iszero\n  mul\n  or\n  swap1\n  sstore\n  pop\n    /* \"ex/token/Baby.sol\":16833:17700  {... */\n  pop\n    /* \"ex/token/Baby.sol\":15784:23421  contract Bee is Context, IERC20, IERC20Metadata, Ownable{... */\n  jump(tag_35)\n    /* \"ex/token/Baby.sol\":2532:2630  function _msgSender() internal view virtual returns (address) {... */\ntag_7:\n    /* \"ex/token/Baby.sol\":2585:2592  address */\n  0x00\n    /* \"ex/token/Baby.sol\":2612:2622  msg.sender */\n  caller\n    /* \"ex/token/Baby.sol\":2605:2622  return msg.sender */\n  swap1\n  pop\n    /* \"ex/token/Baby.sol\":2532:2630  function _msgSender() internal view virtual returns (address) {... */\n  swap1\n  jump\t// out\n    /* \"ex/token/Baby.sol\":4440:4631  function _transferOwnership(address newOwner) internal virtual {... */\ntag_8:\n    /* \"ex/token/Baby.sol\":4514:4530  address oldOwner */\n  0x00\n    /* \"ex/token/Baby.sol\":4533:4539  _owner */\n  dup1\n  0x00\n  swap1\n  sload\n  swap1\n  0x0100\n  exp\n  swap1\n  div\n  0xffffffffffffffffffffffffffffffffffffffff\n  and\n    /* \"ex/token/Baby.sol\":4514:4539  address oldOwner = _owner */\n  swap1\n  pop\n    /* \"ex/token/Baby.sol\":4559:4567  newOwner */\n  dup2\n    /* \"ex/token/Baby.sol\":4550:4556  _owner */\n  0x00\n  dup1\n    /* \"ex/token/Baby.sol\":4550:4567  _owner = newOwner */\n  0x0100\n  exp\n  dup2\n  sload\n  dup2\n  0xffffffffffffffffffffffffffffffffffffffff\n  mul\n  not\n  and\n  swap1\n  dup4\n  0xffffffffffffffffffffffffffffffffffffffff\n  and\n  mul\n  or\n  swap1\n  sstore\n  pop\n    /* \"ex/token/Baby.sol\":4614:4622  newOwner */\n  dup2\n    /* \"ex/token/Baby.sol\":4583:4623  OwnershipTransferred(oldOwner, newOwner) */\n  0xffffffffffffffffffffffffffffffffffffffff\n  and\n    /* \"ex/token/Baby.sol\":4604:4612  oldOwner */\n  dup2\n    /* \"ex/token/Baby.sol\":4583:4623  OwnershipTransferred(oldOwner, newOwner) */\n  0xffffffffffffffffffffffffffffffffffffffff\n  and\n  0x8be0079c531659141344cd1fd0a4f28419497f9722a3daafe3b4186f6b6457e0\n  mload(0x40)\n  mload(0x40)\n  dup1\n  swap2\n  sub\n  swap1\n  log3\n    /* \"ex/token/Baby.sol\":4503:4631  {... */\n  pop\n    /* \"ex/token/Baby.sol\":4440:4631  function _transferOwnership(address newOwner) internal virtual {... */\n  pop\n  jump\t// out\n    /* \"ex/token/Baby.sol\":21446:21644  function _mint(address account, uint256 amount) internal virtual {... */\ntag_12:\n    /* \"ex/token/Baby.sol\":21544:21550  amount */\n  dup1\n    /* \"ex/token/Baby.sol\":21522:21531  _balances */\n  0x01\n    /* \"ex/token/Baby.sol\":21522:21540  _balances[account] */\n  0x00\n    /* \"ex/token/Baby.sol\":21532:21539  account */\n  dup5\n    /* \"ex/token/Baby.sol\":21522:21540  _balances[account] */\n  0xffffffffffffffffffffffffffffffffffffffff\n  and\n  0xffffffffffffffffffffffffffffffffffffffff\n  and\n  dup2\n  mstore\n  0x20\n  add\n  swap1\n  dup2\n  mstore\n  0x20\n  add\n  0x00\n  keccak256\n  0x00\n    /* \"ex/token/Baby.sol\":21522:21550  _balances[account] += amount */\n  dup3\n  dup3\n  sload\n  tag_39\n  swap2\n  swap1\n  tag_40\n  jump\t// in\ntag_39:\n  swap3\n  pop\n  pop\n  dup2\n  swap1\n  sstore\n  pop\n    /* \"ex/token/Baby.sol\":21577:21583  amount */\n  dup1\n    /* \"ex/token/Baby.sol\":21561:21573  _totalSupply */\n  0x03\n  0x00\n    /* \"ex/token/Baby.sol\":21561:21583  _totalSupply += amount */\n  dup3\n  dup3\n  sload\n  tag_41\n  swap2\n  swap1\n  tag_40\n  jump\t// in\ntag_41:\n  swap3\n  pop\n  pop\n  dup2\n  swap1\n  sstore\n  pop\n    /* \"ex/token/Baby.sol\":21620:21627  account */\n  dup2\n    /* \"ex/token/Baby.sol\":21599:21636  Transfer(address(0), account, amount) */\n  0xffffffffffffffffffffffffffffffffffffffff\n  and\n    /* \"ex/token/Baby.sol\":21616:21617  0 */\n  0x00\n    /* \"ex/token/Baby.sol\":21599:21636  Transfer(address(0), account, amount) */\n  0xffffffffffffffffffffffffffffffffffffffff\n  and\n  0xddf252ad1be2c89b69c2b068fc378daa952ba7f163c4a11628f55a4df523b3ef\n    /* \"ex/token/Baby.sol\":21629:21635  amount */\n  dup4\n    /* \"ex/token/Baby.sol\":21599:21636  Transfer(address(0), account, amount) */\n  mload(0x40)\n  tag_42\n  swap2\n  swap1\n  tag_43\n  jump\t// in\ntag_42:\n  mload(0x40)\n  dup1\n  swap2\n  sub\n  swap1\n  log3\n    /* \"ex/token/Baby.sol\":21446:21644  function _mint(address account, uint256 amount) internal virtual {... */\n  pop\n  pop\n  jump\t// out\n    /* \"#utility.yul\":7:117   */\ntag_44:\n    /* \"#utility.yul\":77:84   */\n  0x00\n    /* \"#utility.yul\":106:111   */\n  dup2\n    /* \"#utility.yul\":95:111   */\n  swap1\n  pop\n    /* \"#utility.yul\":7:117   */\n  swap2\n  swap1\n  pop\n  jump\t// out\n    /* \"#utility.yul\":123:200   */\ntag_45:\n    /* \"#utility.yul\":160:167   */\n  0x00\n    /* \"#utility.yul\":189:194   */\n  dup2\n    /* \"#utility.yul\":178:194   */\n  swap1\n  pop\n    /* \"#utility.yul\":123:200   */\n  swap2\n  swap1\n  pop\n  jump\t// out\n    /* \"#utility.yul\":206:266   */\ntag_46:\n    /* \"#utility.yul\":234:237   */\n  0x00\n    /* \"#utility.yul\":255:260   */\n  dup2\n    /* \"#utility.yul\":248:260   */\n  swap1\n  pop\n    /* \"#utility.yul\":206:266   */\n  swap2\n  swap1\n  pop\n  jump\t// out\n    /* \"#utility.yul\":272:480   */\ntag_47:\n    /* \"#utility.yul\":355:364   */\n  0x00\n    /* \"#utility.yul\":388:474   */\n  tag_64\n    /* \"#utility.yul\":406:473   */\n  tag_65\n    /* \"#utility.yul\":415:472   */\n  tag_66\n    /* \"#utility.yul\":466:471   */\n  dup5\n    /* \"#utility.yul\":415:472   */\n  tag_44\n  jump\t// in\ntag_66:\n    /* \"#utility.yul\":406:473   */\n  tag_46\n  jump\t// in\ntag_65:\n    /* \"#utility.yul\":388:474   */\n  tag_45\n  jump\t// in\ntag_64:\n    /* \"#utility.yul\":375:474   */\n  swap1\n  pop\n    /* \"#utility.yul\":272:480   */\n  swap2\n  swap1\n  pop\n  jump\t// out\n    /* \"#utility.yul\":486:683   */\ntag_48:\n    /* \"#utility.yul\":606:676   */\n  tag_68\n    /* \"#utility.yul\":670:675   */\n  dup2\n    /* \"#utility.yul\":606:676   */\n  tag_47\n  jump\t// in\ntag_68:\n    /* \"#utility.yul\":601:604   */\n  dup3\n    /* \"#utility.yul\":594:677   */\n  mstore\n    /* \"#utility.yul\":486:683   */\n  pop\n  pop\n  jump\t// out\n    /* \"#utility.yul\":689:977   */\ntag_15:\n    /* \"#utility.yul\":815:819   */\n  0x00\n    /* \"#utility.yul\":853:855   */\n  0x20\n    /* \"#utility.yul\":842:851   */\n  dup3\n    /* \"#utility.yul\":838:856   */\n  add\n    /* \"#utility.yul\":830:856   */\n  swap1\n  pop\n    /* \"#utility.yul\":866:970   */\n  tag_70\n    /* \"#utility.yul\":967:968   */\n  0x00\n    /* \"#utility.yul\":956:965   */\n  dup4\n    /* \"#utility.yul\":952:969   */\n  add\n    /* \"#utility.yul\":943:949   */\n  dup5\n    /* \"#utility.yul\":866:970   */\n  tag_48\n  jump\t// in\ntag_70:\n    /* \"#utility.yul\":689:977   */\n  swap3\n  swap2\n  pop\n  pop\n  jump\t// out\n    /* \"#utility.yul\":1064:1181   */\ntag_50:\n    /* \"#utility.yul\":1173:1174   */\n  0x00\n    /* \"#utility.yul\":1170:1171   */\n  dup1\n    /* \"#utility.yul\":1163:1175   */\n  revert\n    /* \"#utility.yul\":1310:1436   */\ntag_52:\n    /* \"#utility.yul\":1347:1354   */\n  0x00\n    /* \"#utility.yul\":1387:1429   */\n  0xffffffffffffffffffffffffffffffffffffffff\n    /* \"#utility.yul\":1380:1385   */\n  dup3\n    /* \"#utility.yul\":1376:1430   */\n  and\n    /* \"#utility.yul\":1365:1430   */\n  swap1\n  pop\n    /* \"#utility.yul\":1310:1436   */\n  swap2\n  swap1\n  pop\n  jump\t// out\n    /* \"#utility.yul\":1442:1538   */\ntag_53:\n    /* \"#utility.yul\":1479:1486   */\n  0x00\n    /* \"#utility.yul\":1508:1532   */\n  tag_76\n    /* \"#utility.yul\":1526:1531   */\n  dup3\n    /* \"#utility.yul\":1508:1532   */\n  tag_52\n  jump\t// in\ntag_76:\n    /* \"#utility.yul\":1497:1532   */\n  swap1\n  pop\n    /* \"#utility.yul\":1442:1538   */\n  swap2\n  swap1\n  pop\n  jump\t// out\n    /* \"#utility.yul\":1544:1666   */\ntag_54:\n    /* \"#utility.yul\":1617:1641   */\n  tag_78\n    /* \"#utility.yul\":1635:1640   */\n  dup2\n    /* \"#utility.yul\":1617:1641   */\n  tag_53\n  jump\t// in\ntag_78:\n    /* \"#utility.yul\":1610:1615   */\n  dup2\n    /* \"#utility.yul\":1607:1642   */\n  eq\n    /* \"#utility.yul\":1597:1660   */\n  tag_79\n  jumpi\n    /* \"#utility.yul\":1656:1657   */\n  0x00\n    /* \"#utility.yul\":1653:1654   */\n  dup1\n    /* \"#utility.yul\":1646:1658   */\n  revert\n    /* \"#utility.yul\":1597:1660   */\ntag_79:\n    /* \"#utility.yul\":1544:1666   */\n  pop\n  jump\t// out\n    /* \"#utility.yul\":1672:1815   */\ntag_55:\n    /* \"#utility.yul\":1729:1734   */\n  0x00\n    /* \"#utility.yul\":1760:1766   */\n  dup2\n    /* \"#utility.yul\":1754:1767   */\n  mload\n    /* \"#utility.yul\":1745:1767   */\n  swap1\n  pop\n    /* \"#utility.yul\":1776:1809   */\n  tag_81\n    /* \"#utility.yul\":1803:1808   */\n  dup2\n    /* \"#utility.yul\":1776:1809   */\n  tag_54\n  jump\t// in\ntag_81:\n    /* \"#utility.yul\":1672:1815   */\n  swap3\n  swap2\n  pop\n  pop\n  jump\t// out\n    /* \"#utility.yul\":1821:2172   */\ntag_19:\n    /* \"#utility.yul\":1891:1897   */\n  0x00\n    /* \"#utility.yul\":1940:1942   */\n  0x20\n    /* \"#utility.yul\":1928:1937   */\n  dup3\n    /* \"#utility.yul\":1919:1926   */\n  dup5\n    /* \"#utility.yul\":1915:1938   */\n  sub\n    /* \"#utility.yul\":1911:1943   */\n  slt\n    /* \"#utility.yul\":1908:2027   */\n  iszero\n  tag_83\n  jumpi\n    /* \"#utility.yul\":1946:2025   */\n  tag_84\n  tag_50\n  jump\t// in\ntag_84:\n    /* \"#utility.yul\":1908:2027   */\ntag_83:\n    /* \"#utility.yul\":2066:2067   */\n  0x00\n    /* \"#utility.yul\":2091:2155   */\n  tag_85\n    /* \"#utility.yul\":2147:2154   */\n  dup5\n    /* \"#utility.yul\":2138:2144   */\n  dup3\n    /* \"#utility.yul\":2127:2136   */\n  dup6\n    /* \"#utility.yul\":2123:2145   */\n  add\n    /* \"#utility.yul\":2091:2155   */\n  tag_55\n  jump\t// in\ntag_85:\n    /* \"#utility.yul\":2081:2155   */\n  swap2\n  pop\n    /* \"#utility.yul\":2037:2165   */\n  pop\n    /* \"#utility.yul\":1821:2172   */\n  swap3\n  swap2\n  pop\n  pop\n  jump\t// out\n    /* \"#utility.yul\":2178:2296   */\ntag_56:\n    /* \"#utility.yul\":2265:2289   */\n  tag_87\n    /* \"#utility.yul\":2283:2288   */\n  dup2\n    /* \"#utility.yul\":2265:2289   */\n  tag_53\n  jump\t// in\ntag_87:\n    /* \"#utility.yul\":2260:2263   */\n  dup3\n    /* \"#utility.yul\":2253:2290   */\n  mstore\n    /* \"#utility.yul\":2178:2296   */\n  pop\n  pop\n  jump\t// out\n    /* \"#utility.yul\":2302:2634   */\ntag_24:\n    /* \"#utility.yul\":2423:2427   */\n  0x00\n    /* \"#utility.yul\":2461:2463   */\n  0x40\n    /* \"#utility.yul\":2450:2459   */\n  dup3\n    /* \"#utility.yul\":2446:2464   */\n  add\n    /* \"#utility.yul\":2438:2464   */\n  swap1\n  pop\n    /* \"#utility.yul\":2474:2545   */\n  tag_89\n    /* \"#utility.yul\":2542:2543   */\n  0x00\n    /* \"#utility.yul\":2531:2540   */\n  dup4\n    /* \"#utility.yul\":2527:2544   */\n  add\n    /* \"#utility.yul\":2518:2524   */\n  dup6\n    /* \"#utility.yul\":2474:2545   */\n  tag_56\n  jump\t// in\ntag_89:\n    /* \"#utility.yul\":2555:2627   */\n  tag_90\n    /* \"#utility.yul\":2623:2625   */\n  0x20\n    /* \"#utility.yul\":2612:2621   */\n  dup4\n    /* \"#utility.yul\":2608:2626   */\n  add\n    /* \"#utility.yul\":2599:2605   */\n  dup5\n    /* \"#utility.yul\":2555:2627   */\n  tag_56\n  jump\t// in\ntag_90:\n    /* \"#utility.yul\":2302:2634   */\n  swap4\n  swap3\n  pop\n  pop\n  pop\n  jump\t// out\n    /* \"#utility.yul\":2640:2820   */\ntag_57:\n    /* \"#utility.yul\":2688:2765   */\n  0x4e487b7100000000000000000000000000000000000000000000000000000000\n    /* \"#utility.yul\":2685:2686   */\n  0x00\n    /* \"#utility.yul\":2678:2766   */\n  mstore\n    /* \"#utility.yul\":2785:2789   */\n  0x11\n    /* \"#utility.yul\":2782:2783   */\n  0x04\n    /* \"#utility.yul\":2775:2790   */\n  mstore\n    /* \"#utility.yul\":2809:2813   */\n  0x24\n    /* \"#utility.yul\":2806:2807   */\n  0x00\n    /* \"#utility.yul\":2799:2814   */\n  revert\n    /* \"#utility.yul\":2826:3017   */\ntag_40:\n    /* \"#utility.yul\":2866:2869   */\n  0x00\n    /* \"#utility.yul\":2885:2905   */\n  tag_93\n    /* \"#utility.yul\":2903:2904   */\n  dup3\n    /* \"#utility.yul\":2885:2905   */\n  tag_45\n  jump\t// in\ntag_93:\n    /* \"#utility.yul\":2880:2905   */\n  swap2\n  pop\n    /* \"#utility.yul\":2919:2939   */\n  tag_94\n    /* \"#utility.yul\":2937:2938   */\n  dup4\n    /* \"#utility.yul\":2919:2939   */\n  tag_45\n  jump\t// in\ntag_94:\n    /* \"#utility.yul\":2914:2939   */\n  swap3\n  pop\n    /* \"#utility.yul\":2962:2963   */\n  dup3\n    /* \"#utility.yul\":2959:2960   */\n  dup3\n    /* \"#utility.yul\":2955:2964   */\n  add\n    /* \"#utility.yul\":2948:2964   */\n  swap1\n  pop\n    /* \"#utility.yul\":2983:2986   */\n  dup1\n    /* \"#utility.yul\":2980:2981   */\n  dup3\n    /* \"#utility.yul\":2977:2987   */\n  gt\n    /* \"#utility.yul\":2974:3010   */\n  iszero\n  tag_95\n  jumpi\n    /* \"#utility.yul\":2990:3008   */\n  tag_96\n  tag_57\n  jump\t// in\ntag_96:\n    /* \"#utility.yul\":2974:3010   */\ntag_95:\n    /* \"#utility.yul\":2826:3017   */\n  swap3\n  swap2\n  pop\n  pop\n  jump\t// out\n    /* \"#utility.yul\":3023:3141   */\ntag_58:\n    /* \"#utility.yul\":3110:3134   */\n  tag_98\n    /* \"#utility.yul\":3128:3133   */\n  dup2\n    /* \"#utility.yul\":3110:3134   */\n  tag_45\n  jump\t// in\ntag_98:\n    /* \"#utility.yul\":3105:3108   */\n  dup3\n    /* \"#utility.yul\":3098:3135   */\n  mstore\n    /* \"#utility.yul\":3023:3141   */\n  pop\n  pop\n  jump\t// out\n    /* \"#utility.yul\":3147:3369   */\ntag_43:\n    /* \"#utility.yul\":3240:3244   */\n  0x00\n    /* \"#utility.yul\":3278:3280   */\n  0x20\n    /* \"#utility.yul\":3267:3276   */\n  dup3\n    /* \"#utility.yul\":3263:3281   */\n  add\n    /* \"#utility.yul\":3255:3281   */\n  swap1\n  pop\n    /* \"#utility.yul\":3291:3362   */\n  tag_100\n    /* \"#utility.yul\":3359:3360   */\n  0x00\n    /* \"#utility.yul\":3348:3357   */\n  dup4\n    /* \"#utility.yul\":3344:3361   */\n  add\n    /* \"#utility.yul\":3335:3341   */\n  dup5\n    /* \"#utility.yul\":3291:3362   */\n  tag_58\n  jump\t// in\ntag_100:\n    /* \"#utility.yul\":3147:3369   */\n  swap3\n  swap2\n  pop\n  pop\n  jump\t// out\n    /* \"ex/token/Baby.sol\":15784:23421  contract Bee is Context, IERC20, IERC20Metadata, Ownable{... */\ntag_35:\n  mload(0x80)\n  mload(0xa0)\n  mload(0xc0)\n  codecopy(0x00, dataOffset(sub_0), dataSize(sub_0))\n  0x00\n  assignImmutable(\"0xc3259c45f9e3c1055fdcabf98c9c354977536b311a2495291202379be8e06e09\")\n  0x00\n  assignImmutable(\"0xcf847823cd05fc0701b9c43d16f83004daff2637516797a8151c5b74447a7127\")\n  0x00\n  assignImmutable(\"0x0257654a82461e8a1d15ee210f9c68af767d2a4dc70df683f0ecf9e700bd8bac\")\n  return(0x00, dataSize(sub_0))\nstop\n\nsub_0: assembly {\n        /* \"ex/token/Baby.sol\":15784:23421  contract Bee is Context, IERC20, IERC20Metadata, Ownable{... */\n      mstore(0x40, 0x80)\n      jumpi(tag_1, lt(calldatasize, 0x04))\n      shr(0xe0, calldataload(0x00))\n      dup1\n      0x715018a6\n      gt\n      tag_28\n      jumpi\n      dup1\n      0xa8808fcc\n      gt\n      tag_29\n      jumpi\n      dup1\n      0xdd62ed3e\n      gt\n      tag_30\n      jumpi\n      dup1\n      0xdd62ed3e\n      eq\n      tag_24\n      jumpi\n      dup1\n      0xdec1a6f6\n      eq\n      tag_25\n      jumpi\n      dup1\n      0xf2fde38b\n      eq\n      tag_26\n      jumpi\n      dup1\n      0xfae92612\n      eq\n      tag_27\n      jumpi\n      jump(tag_2)\n    tag_30:\n      dup1\n      0xa8808fcc\n      eq\n      tag_21\n      jumpi\n      dup1\n      0xa9059cbb\n      eq\n      tag_22\n      jumpi\n      dup1\n      0xce0594aa\n      eq\n      tag_23\n      jumpi\n      jump(tag_2)\n    tag_29:\n      dup1\n      0x715018a6\n      eq\n      tag_15\n      jumpi\n      dup1\n      0x88af60c6\n      eq\n      tag_16\n      jumpi\n      dup1\n      0x8da5cb5b\n      eq\n      tag_17\n      jumpi\n      dup1\n      0x95623641\n      eq\n      tag_18\n      jumpi\n      dup1\n      0x95d89b41\n      eq\n      tag_19\n      jumpi\n      dup1\n      0xa457c2d7\n      eq\n      tag_20\n      jumpi\n      jump(tag_2)\n    tag_28:\n      dup1\n      0x313ce567\n      gt\n      tag_31\n      jumpi\n      dup1\n      0x313ce567\n      eq\n      tag_9\n      jumpi\n      dup1\n      0x39509351\n      eq\n      tag_10\n      jumpi\n      dup1\n      0x42966c68\n      eq\n      tag_11\n      jumpi\n      dup1\n      0x49bd5a5e\n      eq\n      tag_12\n      jumpi\n      dup1\n      0x536db266\n      eq\n      tag_13\n      jumpi\n      dup1\n      0x70a08231\n      eq\n      tag_14\n      jumpi\n      jump(tag_2)\n    tag_31:\n      dup1\n      0x06fdde03\n      eq\n      tag_3\n      jumpi\n      dup1\n      0x095ea7b3\n      eq\n      tag_4\n      jumpi\n      dup1\n      0x1694505e\n      eq\n      tag_5\n      jumpi\n      dup1\n      0x18160ddd\n      eq\n      tag_6\n      jumpi\n      dup1\n      0x23b872dd\n      eq\n      tag_7\n      jumpi\n      dup1\n      0x2aafa283\n      eq\n      tag_8\n      jumpi\n      jump(tag_2)\n    tag_1:\n      jumpi(tag_2, calldatasize)\n      stop\n    tag_2:\n      0x00\n      dup1\n      revert\n        /* \"ex/token/Baby.sol\":17708:17813  function name() public view virtual override returns (string memory) {... */\n    tag_3:\n      callvalue\n      dup1\n      iszero\n      tag_34\n      jumpi\n      0x00\n      dup1\n      revert\n    tag_34:\n      pop\n      tag_35\n      tag_36\n      jump\t// in\n    tag_35:\n      mload(0x40)\n      tag_37\n      swap2\n      swap1\n      tag_38\n      jump\t// in\n    tag_37:\n      mload(0x40)\n      dup1\n      swap2\n      sub\n      swap1\n      return\n        /* \"ex/token/Baby.sol\":18626:18795  function approve(address spender, uint256 amount) public virtual override returns (bool) {... */\n    tag_4:\n      callvalue\n      dup1\n      iszero\n      tag_39\n      jumpi\n      0x00\n      dup1\n      revert\n    tag_39:\n      pop\n      tag_40\n      0x04\n      dup1\n      calldatasize\n      sub\n      dup2\n      add\n      swap1\n      tag_41\n      swap2\n      swap1\n      tag_42\n      jump\t// in\n    tag_41:\n      tag_43\n      jump\t// in\n    tag_40:\n      mload(0x40)\n      tag_44\n      swap2\n      swap1\n      tag_45\n      jump\t// in\n    tag_44:\n      mload(0x40)\n      dup1\n      swap2\n      sub\n      swap1\n      return\n        /* \"ex/token/Baby.sol\":16131:16186  IPancakeSwapV2Router02 public immutable uniswapV2Router */\n    tag_5:\n      callvalue\n      dup1\n      iszero\n      tag_46\n      jumpi\n      0x00\n      dup1\n      revert\n    tag_46:\n      pop\n      tag_47\n      tag_48\n      jump\t// in\n    tag_47:\n      mload(0x40)\n      tag_49\n      swap2\n      swap1\n      tag_50\n      jump\t// in\n    tag_49:\n      mload(0x40)\n      dup1\n      swap2\n      sub\n      swap1\n      return\n        /* \"ex/token/Baby.sol\":18033:18141  function totalSupply() public view virtual override returns (uint256) {... */\n    tag_6:\n      callvalue\n      dup1\n      iszero\n      tag_51\n      jumpi\n      0x00\n      dup1\n      revert\n    tag_51:\n      pop\n      tag_52\n      tag_53\n      jump\t// in\n    tag_52:\n      mload(0x40)\n      tag_54\n      swap2\n      swap1\n      tag_55\n      jump\t// in\n    tag_54:\n      mload(0x40)\n      dup1\n      swap2\n      sub\n      swap1\n      return\n        /* \"ex/token/Baby.sol\":18803:19291  function transferFrom(... */\n    tag_7:\n      callvalue\n      dup1\n      iszero\n      tag_56\n      jumpi\n      0x00\n      dup1\n      revert\n    tag_56:\n      pop\n      tag_57\n      0x04\n      dup1\n      calldatasize\n      sub\n      dup2\n      add\n      swap1\n      tag_58\n      swap2\n      swap1\n      tag_59\n      jump\t// in\n    tag_58:\n      tag_60\n      jump\t// in\n    tag_57:\n      mload(0x40)\n      tag_61\n      swap2\n      swap1\n      tag_45\n      jump\t// in\n    tag_61:\n      mload(0x40)\n      dup1\n      swap2\n      sub\n      swap1\n      return\n        /* \"ex/token/Baby.sol\":16238:16280  address public immutable uniswapUsdtV2Pair */\n    tag_8:\n      callvalue\n      dup1\n      iszero\n      tag_62\n      jumpi\n      0x00\n      dup1\n      revert\n    tag_62:\n      pop\n      tag_63\n      tag_64\n      jump\t// in\n    tag_63:\n      mload(0x40)\n      tag_65\n      swap2\n      swap1\n      tag_66\n      jump\t// in\n    tag_65:\n      mload(0x40)\n      dup1\n      swap2\n      sub\n      swap1\n      return\n        /* \"ex/token/Baby.sol\":17932:18025  function decimals() public view virtual override returns (uint8) {... */\n    tag_9:\n      callvalue\n      dup1\n      iszero\n      tag_67\n      jumpi\n      0x00\n      dup1\n      revert\n    tag_67:\n      pop\n      tag_68\n      tag_69\n      jump\t// in\n    tag_68:\n      mload(0x40)\n      tag_70\n      swap2\n      swap1\n      tag_71\n      jump\t// in\n    tag_70:\n      mload(0x40)\n      dup1\n      swap2\n      sub\n      swap1\n      return\n        /* \"ex/token/Baby.sol\":19299:19514  function increaseAllowance(address spender, uint256 addedValue) public virtual returns (bool) {... */\n    tag_10:\n      callvalue\n      dup1\n      iszero\n      tag_72\n      jumpi\n      0x00\n      dup1\n      revert\n    tag_72:\n      pop\n      tag_73\n      0x04\n      dup1\n      calldatasize\n      sub\n      dup2\n      add\n      swap1\n      tag_74\n      swap2\n      swap1\n      tag_42\n      jump\t// in\n    tag_74:\n      tag_75\n      jump\t// in\n    tag_73:\n      mload(0x40)\n      tag_76\n      swap2\n      swap1\n      tag_45\n      jump\t// in\n    tag_76:\n      mload(0x40)\n      dup1\n      swap2\n      sub\n      swap1\n      return\n        /* \"ex/token/Baby.sol\":22120:22205  function burn(uint256 amount) external {... */\n    tag_11:\n      callvalue\n      dup1\n      iszero\n      tag_77\n      jumpi\n      0x00\n      dup1\n      revert\n    tag_77:\n      pop\n      tag_78\n      0x04\n      dup1\n      calldatasize\n      sub\n      dup2\n      add\n      swap1\n      tag_79\n      swap2\n      swap1\n      tag_80\n      jump\t// in\n    tag_79:\n      tag_81\n      jump\t// in\n    tag_78:\n      stop\n        /* \"ex/token/Baby.sol\":16193:16231  address public immutable uniswapV2Pair */\n    tag_12:\n      callvalue\n      dup1\n      iszero\n      tag_82\n      jumpi\n      0x00\n      dup1\n      revert\n    tag_82:\n      pop\n      tag_83\n      tag_84\n      jump\t// in\n    tag_83:\n      mload(0x40)\n      tag_85\n      swap2\n      swap1\n      tag_66\n      jump\t// in\n    tag_85:\n      mload(0x40)\n      dup1\n      swap2\n      sub\n      swap1\n      return\n        /* \"ex/token/Baby.sol\":19939:20130  function addDex(address _pair) external onlyOwner {... */\n    tag_13:\n      callvalue\n      dup1\n      iszero\n      tag_86\n      jumpi\n      0x00\n      dup1\n      revert\n    tag_86:\n      pop\n      tag_87\n      0x04\n      dup1\n      calldatasize\n      sub\n      dup2\n      add\n      swap1\n      tag_88\n      swap2\n      swap1\n      tag_89\n      jump\t// in\n    tag_88:\n      tag_90\n      jump\t// in\n    tag_87:\n      stop\n        /* \"ex/token/Baby.sol\":18149:18276  function balanceOf(address account) public view virtual override returns (uint256) {... */\n    tag_14:\n      callvalue\n      dup1\n      iszero\n      tag_91\n      jumpi\n      0x00\n      dup1\n      revert\n    tag_91:\n      pop\n      tag_92\n      0x04\n      dup1\n      calldatasize\n      sub\n      dup2\n      add\n      swap1\n      tag_93\n      swap2\n      swap1\n      tag_89\n      jump\t// in\n    tag_93:\n      tag_94\n      jump\t// in\n    tag_92:\n      mload(0x40)\n      tag_95\n      swap2\n      swap1\n      tag_55\n      jump\t// in\n    tag_95:\n      mload(0x40)\n      dup1\n      swap2\n      sub\n      swap1\n      return\n        /* \"ex/token/Baby.sol\":3821:3924  function renounceOwnership() public virtual onlyOwner {... */\n    tag_15:\n      callvalue\n      dup1\n      iszero\n      tag_96\n      jumpi\n      0x00\n      dup1\n      revert\n    tag_96:\n      pop\n      tag_97\n      tag_98\n      jump\t// in\n    tag_97:\n      stop\n        /* \"ex/token/Baby.sol\":16612:16687  address public usdtMintAddress = 0x7ef95a0FEE0Dd31b22626fA2e10Ee6A223F8a684 */\n    tag_16:\n      callvalue\n      dup1\n      iszero\n      tag_99\n      jumpi\n      0x00\n      dup1\n      revert\n    tag_99:\n      pop\n      tag_100\n      tag_101\n      jump\t// in\n    tag_100:\n      mload(0x40)\n      tag_102\n      swap2\n      swap1\n      tag_66\n      jump\t// in\n    tag_102:\n      mload(0x40)\n      dup1\n      swap2\n      sub\n      swap1\n      return\n        /* \"ex/token/Baby.sol\":3170:3257  function owner() public view virtual returns (address) {... */\n    tag_17:\n      callvalue\n      dup1\n      iszero\n      tag_103\n      jumpi\n      0x00\n      dup1\n      revert\n    tag_103:\n      pop\n      tag_104\n      tag_105\n      jump\t// in\n    tag_104:\n      mload(0x40)\n      tag_106\n      swap2\n      swap1\n      tag_66\n      jump\t// in\n    tag_106:\n      mload(0x40)\n      dup1\n      swap2\n      sub\n      swap1\n      return\n        /* \"ex/token/Baby.sol\":16410:16483  address public marketAddress = 0xd3c0b6Aa1538d639912789be705F18b5Fd89fcE6 */\n    tag_18:\n      callvalue\n      dup1\n      iszero\n      tag_107\n      jumpi\n      0x00\n      dup1\n      revert\n    tag_107:\n      pop\n      tag_108\n      tag_109\n      jump\t// in\n    tag_108:\n      mload(0x40)\n      tag_110\n      swap2\n      swap1\n      tag_66\n      jump\t// in\n    tag_110:\n      mload(0x40)\n      dup1\n      swap2\n      sub\n      swap1\n      return\n        /* \"ex/token/Baby.sol\":17821:17924  function symbol() public view virtual override returns (string memory) {... */\n    tag_19:\n      callvalue\n      dup1\n      iszero\n      tag_111\n      jumpi\n      0x00\n      dup1\n      revert\n    tag_111:\n      pop\n      tag_112\n      tag_113\n      jump\t// in\n    tag_112:\n      mload(0x40)\n      tag_114\n      swap2\n      swap1\n      tag_38\n      jump\t// in\n    tag_114:\n      mload(0x40)\n      dup1\n      swap2\n      sub\n      swap1\n      return\n        /* \"ex/token/Baby.sol\":19522:19931  function decreaseAllowance(address spender, uint256 subtractedValue) public virtual returns (bool) {... */\n    tag_20:\n      callvalue\n      dup1\n      iszero\n      tag_115\n      jumpi\n      0x00\n      dup1\n      revert\n    tag_115:\n      pop\n      tag_116\n      0x04\n      dup1\n      calldatasize\n      sub\n      dup2\n      add\n      swap1\n      tag_117\n      swap2\n      swap1\n      tag_42\n      jump\t// in\n    tag_117:\n      tag_118\n      jump\t// in\n    tag_116:\n      mload(0x40)\n      tag_119\n      swap2\n      swap1\n      tag_45\n      jump\t// in\n    tag_119:\n      mload(0x40)\n      dup1\n      swap2\n      sub\n      swap1\n      return\n        /* \"ex/token/Baby.sol\":22443:22658  function setExcludeds(address addr) public onlyOwner {... */\n    tag_21:\n      callvalue\n      dup1\n      iszero\n      tag_120\n      jumpi\n      0x00\n      dup1\n      revert\n    tag_120:\n      pop\n      tag_121\n      0x04\n      dup1\n      calldatasize\n      sub\n      dup2\n      add\n      swap1\n      tag_122\n      swap2\n      swap1\n      tag_89\n      jump\t// in\n    tag_122:\n      tag_123\n      jump\t// in\n    tag_121:\n      stop\n        /* \"ex/token/Baby.sol\":18284:18459  function transfer(address recipient, uint256 amount) public virtual override returns (bool) {... */\n    tag_22:\n      callvalue\n      dup1\n      iszero\n      tag_124\n      jumpi\n      0x00\n      dup1\n      revert\n    tag_124:\n      pop\n      tag_125\n      0x04\n      dup1\n      calldatasize\n      sub\n      dup2\n      add\n      swap1\n      tag_126\n      swap2\n      swap1\n      tag_42\n      jump\t// in\n    tag_126:\n      tag_127\n      jump\t// in\n    tag_125:\n      mload(0x40)\n      tag_128\n      swap2\n      swap1\n      tag_45\n      jump\t// in\n    tag_128:\n      mload(0x40)\n      dup1\n      swap2\n      sub\n      swap1\n      return\n        /* \"ex/token/Baby.sol\":22935:23414  function swapTokensForUsdt(uint256 tokenAmount) public lockTheSwap{... */\n    tag_23:\n      callvalue\n      dup1\n      iszero\n      tag_129\n      jumpi\n      0x00\n      dup1\n      revert\n    tag_129:\n      pop\n      tag_130\n      0x04\n      dup1\n      calldatasize\n      sub\n      dup2\n      add\n      swap1\n      tag_131\n      swap2\n      swap1\n      tag_80\n      jump\t// in\n    tag_131:\n      tag_132\n      jump\t// in\n    tag_130:\n      stop\n        /* \"ex/token/Baby.sol\":18467:18618  function allowance(address owner, address spender) public view virtual override returns (uint256) {... */\n    tag_24:\n      callvalue\n      dup1\n      iszero\n      tag_133\n      jumpi\n      0x00\n      dup1\n      revert\n    tag_133:\n      pop\n      tag_134\n      0x04\n      dup1\n      calldatasize\n      sub\n      dup2\n      add\n      swap1\n      tag_135\n      swap2\n      swap1\n      tag_136\n      jump\t// in\n    tag_135:\n      tag_137\n      jump\t// in\n    tag_134:\n      mload(0x40)\n      tag_138\n      swap2\n      swap1\n      tag_55\n      jump\t// in\n    tag_138:\n      mload(0x40)\n      dup1\n      swap2\n      sub\n      swap1\n      return\n        /* \"ex/token/Baby.sol\":16340:16375  mapping (address=>bool) public DEXs */\n    tag_25:\n      callvalue\n      dup1\n      iszero\n      tag_139\n      jumpi\n      0x00\n      dup1\n      revert\n    tag_139:\n      pop\n      tag_140\n      0x04\n      dup1\n      calldatasize\n      sub\n      dup2\n      add\n      swap1\n      tag_141\n      swap2\n      swap1\n      tag_89\n      jump\t// in\n    tag_141:\n      tag_142\n      jump\t// in\n    tag_140:\n      mload(0x40)\n      tag_143\n      swap2\n      swap1\n      tag_45\n      jump\t// in\n    tag_143:\n      mload(0x40)\n      dup1\n      swap2\n      sub\n      swap1\n      return\n        /* \"ex/token/Baby.sol\":4079:4280  function transferOwnership(address newOwner) public virtual onlyOwner {... */\n    tag_26:\n      callvalue\n      dup1\n      iszero\n      tag_144\n      jumpi\n      0x00\n      dup1\n      revert\n    tag_144:\n      pop\n      tag_145\n      0x04\n      dup1\n      calldatasize\n      sub\n      dup2\n      add\n      swap1\n      tag_146\n      swap2\n      swap1\n      tag_89\n      jump\t// in\n    tag_146:\n      tag_147\n      jump\t// in\n    tag_145:\n      stop\n        /* \"ex/token/Baby.sol\":22666:22762  function setMarketAddress(address addr) public onlyOwner {... */\n    tag_27:\n      callvalue\n      dup1\n      iszero\n      tag_148\n      jumpi\n      0x00\n      dup1\n      revert\n    tag_148:\n      pop\n      tag_149\n      0x04\n      dup1\n      calldatasize\n      sub\n      dup2\n      add\n      swap1\n      tag_150\n      swap2\n      swap1\n      tag_89\n      jump\t// in\n    tag_150:\n      tag_151\n      jump\t// in\n    tag_149:\n      stop\n        /* \"ex/token/Baby.sol\":17708:17813  function name() public view virtual override returns (string memory) {... */\n    tag_36:\n        /* \"ex/token/Baby.sol\":17762:17775  string memory */\n      0x60\n        /* \"ex/token/Baby.sol\":17788:17805  return \"AIR TEST\" */\n      mload(0x40)\n      dup1\n      0x40\n      add\n      0x40\n      mstore\n      dup1\n      0x08\n      dup2\n      mstore\n      0x20\n      add\n      0x4149522054455354000000000000000000000000000000000000000000000000\n      dup2\n      mstore\n      pop\n      swap1\n      pop\n        /* \"ex/token/Baby.sol\":17708:17813  function name() public view virtual override returns (string memory) {... */\n      swap1\n      jump\t// out\n        /* \"ex/token/Baby.sol\":18626:18795  function approve(address spender, uint256 amount) public virtual override returns (bool) {... */\n    tag_43:\n        /* \"ex/token/Baby.sol\":18709:18713  bool */\n      0x00\n        /* \"ex/token/Baby.sol\":18726:18765  _approve(_msgSender(), spender, amount) */\n      tag_154\n        /* \"ex/token/Baby.sol\":18735:18747  _msgSender() */\n      tag_155\n        /* \"ex/token/Baby.sol\":18735:18745  _msgSender */\n      tag_156\n        /* \"ex/token/Baby.sol\":18735:18747  _msgSender() */\n      jump\t// in\n    tag_155:\n        /* \"ex/token/Baby.sol\":18749:18756  spender */\n      dup5\n        /* \"ex/token/Baby.sol\":18758:18764  amount */\n      dup5\n        /* \"ex/token/Baby.sol\":18726:18734  _approve */\n      tag_157\n        /* \"ex/token/Baby.sol\":18726:18765  _approve(_msgSender(), spender, amount) */\n      jump\t// in\n    tag_154:\n        /* \"ex/token/Baby.sol\":18783:18787  true */\n      0x01\n        /* \"ex/token/Baby.sol\":18776:18787  return true */\n      swap1\n      pop\n        /* \"ex/token/Baby.sol\":18626:18795  function approve(address spender, uint256 amount) public virtual override returns (bool) {... */\n      swap3\n      swap2\n      pop\n      pop\n      jump\t// out\n        /* \"ex/token/Baby.sol\":16131:16186  IPancakeSwapV2Router02 public immutable uniswapV2Router */\n    tag_48:\n      immutable(\"0x0257654a82461e8a1d15ee210f9c68af767d2a4dc70df683f0ecf9e700bd8bac\")\n      dup2\n      jump\t// out\n        /* \"ex/token/Baby.sol\":18033:18141  function totalSupply() public view virtual override returns (uint256) {... */\n    tag_53:\n        /* \"ex/token/Baby.sol\":18094:18101  uint256 */\n      0x00\n        /* \"ex/token/Baby.sol\":18121:18133  _totalSupply */\n      sload(0x03)\n        /* \"ex/token/Baby.sol\":18114:18133  return _totalSupply */\n      swap1\n      pop\n        /* \"ex/token/Baby.sol\":18033:18141  function totalSupply() public view virtual override returns (uint256) {... */\n      swap1\n      jump\t// out\n        /* \"ex/token/Baby.sol\":18803:19291  function transferFrom(... */\n    tag_60:\n        /* \"ex/token/Baby.sol\":18943:18947  bool */\n      0x00\n        /* \"ex/token/Baby.sol\":18960:18996  _transfer(sender, recipient, amount) */\n      tag_160\n        /* \"ex/token/Baby.sol\":18970:18976  sender */\n      dup5\n        /* \"ex/token/Baby.sol\":18978:18987  recipient */\n      dup5\n        /* \"ex/token/Baby.sol\":18989:18995  amount */\n      dup5\n        /* \"ex/token/Baby.sol\":18960:18969  _transfer */\n      tag_161\n        /* \"ex/token/Baby.sol\":18960:18996  _transfer(sender, recipient, amount) */\n      jump\t// in\n    tag_160:\n        /* \"ex/token/Baby.sol\":19009:19033  uint256 currentAllowance */\n      0x00\n        /* \"ex/token/Baby.sol\":19036:19047  _allowances */\n      0x02\n        /* \"ex/token/Baby.sol\":19036:19055  _allowances[sender] */\n      0x00\n        /* \"ex/token/Baby.sol\":19048:19054  sender */\n      dup7\n        /* \"ex/token/Baby.sol\":19036:19055  _allowances[sender] */\n      0xffffffffffffffffffffffffffffffffffffffff\n      and\n      0xffffffffffffffffffffffffffffffffffffffff\n      and\n      dup2\n      mstore\n      0x20\n      add\n      swap1\n      dup2\n      mstore\n      0x20\n      add\n      0x00\n      keccak256\n        /* \"ex/token/Baby.sol\":19036:19069  _allowances[sender][_msgSender()] */\n      0x00\n        /* \"ex/token/Baby.sol\":19056:19068  _msgSender() */\n      tag_162\n        /* \"ex/token/Baby.sol\":19056:19066  _msgSender */\n      tag_156\n        /* \"ex/token/Baby.sol\":19056:19068  _msgSender() */\n      jump\t// in\n    tag_162:\n        /* \"ex/token/Baby.sol\":19036:19069  _allowances[sender][_msgSender()] */\n      0xffffffffffffffffffffffffffffffffffffffff\n      and\n      0xffffffffffffffffffffffffffffffffffffffff\n      and\n      dup2\n      mstore\n      0x20\n      add\n      swap1\n      dup2\n      mstore\n      0x20\n      add\n      0x00\n      keccak256\n      sload\n        /* \"ex/token/Baby.sol\":19009:19069  uint256 currentAllowance = _allowances[sender][_msgSender()] */\n      swap1\n      pop\n        /* \"ex/token/Baby.sol\":19108:19114  amount */\n      dup3\n        /* \"ex/token/Baby.sol\":19088:19104  currentAllowance */\n      dup2\n        /* \"ex/token/Baby.sol\":19088:19114  currentAllowance >= amount */\n      lt\n      iszero\n        /* \"ex/token/Baby.sol\":19080:19157  require(currentAllowance >= amount, \"BEE: transfer amount exceeds allowance\") */\n      tag_163\n      jumpi\n      mload(0x40)\n      0x08c379a000000000000000000000000000000000000000000000000000000000\n      dup2\n      mstore\n      0x04\n      add\n      tag_164\n      swap1\n      tag_165\n      jump\t// in\n    tag_164:\n      mload(0x40)\n      dup1\n      swap2\n      sub\n      swap1\n      revert\n    tag_163:\n        /* \"ex/token/Baby.sol\":19193:19250  _approve(sender, _msgSender(), currentAllowance - amount) */\n      tag_166\n        /* \"ex/token/Baby.sol\":19202:19208  sender */\n      dup6\n        /* \"ex/token/Baby.sol\":19210:19222  _msgSender() */\n      tag_167\n        /* \"ex/token/Baby.sol\":19210:19220  _msgSender */\n      tag_156\n        /* \"ex/token/Baby.sol\":19210:19222  _msgSender() */\n      jump\t// in\n    tag_167:\n        /* \"ex/token/Baby.sol\":19243:19249  amount */\n      dup6\n        /* \"ex/token/Baby.sol\":19224:19240  currentAllowance */\n      dup5\n        /* \"ex/token/Baby.sol\":19224:19249  currentAllowance - amount */\n      sub\n        /* \"ex/token/Baby.sol\":19193:19201  _approve */\n      tag_157\n        /* \"ex/token/Baby.sol\":19193:19250  _approve(sender, _msgSender(), currentAllowance - amount) */\n      jump\t// in\n    tag_166:\n        /* \"ex/token/Baby.sol\":19279:19283  true */\n      0x01\n        /* \"ex/token/Baby.sol\":19272:19283  return true */\n      swap2\n      pop\n      pop\n        /* \"ex/token/Baby.sol\":18803:19291  function transferFrom(... */\n      swap4\n      swap3\n      pop\n      pop\n      pop\n      jump\t// out\n        /* \"ex/token/Baby.sol\":16238:16280  address public immutable uniswapUsdtV2Pair */\n    tag_64:\n      immutable(\"0xc3259c45f9e3c1055fdcabf98c9c354977536b311a2495291202379be8e06e09\")\n      dup2\n      jump\t// out\n        /* \"ex/token/Baby.sol\":17932:18025  function decimals() public view virtual override returns (uint8) {... */\n    tag_69:\n        /* \"ex/token/Baby.sol\":17990:17995  uint8 */\n      0x00\n        /* \"ex/token/Baby.sol\":18015:18017  18 */\n      0x12\n        /* \"ex/token/Baby.sol\":18008:18017  return 18 */\n      swap1\n      pop\n        /* \"ex/token/Baby.sol\":17932:18025  function decimals() public view virtual override returns (uint8) {... */\n      swap1\n      jump\t// out\n        /* \"ex/token/Baby.sol\":19299:19514  function increaseAllowance(address spender, uint256 addedValue) public virtual returns (bool) {... */\n    tag_75:\n        /* \"ex/token/Baby.sol\":19387:19391  bool */\n      0x00\n        /* \"ex/token/Baby.sol\":19404:19484  _approve(_msgSender(), spender, _allowances[_msgSender()][spender] + addedValue) */\n      tag_170\n        /* \"ex/token/Baby.sol\":19413:19425  _msgSender() */\n      tag_171\n        /* \"ex/token/Baby.sol\":19413:19423  _msgSender */\n      tag_156\n        /* \"ex/token/Baby.sol\":19413:19425  _msgSender() */\n      jump\t// in\n    tag_171:\n        /* \"ex/token/Baby.sol\":19427:19434  spender */\n      dup5\n        /* \"ex/token/Baby.sol\":19473:19483  addedValue */\n      dup5\n        /* \"ex/token/Baby.sol\":19436:19447  _allowances */\n      0x02\n        /* \"ex/token/Baby.sol\":19436:19461  _allowances[_msgSender()] */\n      0x00\n        /* \"ex/token/Baby.sol\":19448:19460  _msgSender() */\n      tag_172\n        /* \"ex/token/Baby.sol\":19448:19458  _msgSender */\n      tag_156\n        /* \"ex/token/Baby.sol\":19448:19460  _msgSender() */\n      jump\t// in\n    tag_172:\n        /* \"ex/token/Baby.sol\":19436:19461  _allowances[_msgSender()] */\n      0xffffffffffffffffffffffffffffffffffffffff\n      and\n      0xffffffffffffffffffffffffffffffffffffffff\n      and\n      dup2\n      mstore\n      0x20\n      add\n      swap1\n      dup2\n      mstore\n      0x20\n      add\n      0x00\n      keccak256\n        /* \"ex/token/Baby.sol\":19436:19470  _allowances[_msgSender()][spender] */\n      0x00\n        /* \"ex/token/Baby.sol\":19462:19469  spender */\n      dup9\n        /* \"ex/token/Baby.sol\":19436:19470  _allowances[_msgSender()][spender] */\n      0xffffffffffffffffffffffffffffffffffffffff\n      and\n      0xffffffffffffffffffffffffffffffffffffffff\n      and\n      dup2\n      mstore\n      0x20\n      add\n      swap1\n      dup2\n      mstore\n      0x20\n      add\n      0x00\n      keccak256\n      sload\n        /* \"ex/token/Baby.sol\":19436:19483  _allowances[_msgSender()][spender] + addedValue */\n      tag_173\n      swap2\n      swap1\n      tag_174\n      jump\t// in\n    tag_173:\n        /* \"ex/token/Baby.sol\":19404:19412  _approve */\n      tag_157\n        /* \"ex/token/Baby.sol\":19404:19484  _approve(_msgSender(), spender, _allowances[_msgSender()][spender] + addedValue) */\n      jump\t// in\n    tag_170:\n        /* \"ex/token/Baby.sol\":19502:19506  true */\n      0x01\n        /* \"ex/token/Baby.sol\":19495:19506  return true */\n      swap1\n      pop\n        /* \"ex/token/Baby.sol\":19299:19514  function increaseAllowance(address spender, uint256 addedValue) public virtual returns (bool) {... */\n      swap3\n      swap2\n      pop\n      pop\n      jump\t// out\n        /* \"ex/token/Baby.sol\":22120:22205  function burn(uint256 amount) external {... */\n    tag_81:\n        /* \"ex/token/Baby.sol\":22170:22197  _burn(_msgSender(), amount) */\n      tag_176\n        /* \"ex/token/Baby.sol\":22176:22188  _msgSender() */\n      tag_177\n        /* \"ex/token/Baby.sol\":22176:22186  _msgSender */\n      tag_156\n        /* \"ex/token/Baby.sol\":22176:22188  _msgSender() */\n      jump\t// in\n    tag_177:\n        /* \"ex/token/Baby.sol\":22190:22196  amount */\n      dup3\n        /* \"ex/token/Baby.sol\":22170:22175  _burn */\n      tag_178\n        /* \"ex/token/Baby.sol\":22170:22197  _burn(_msgSender(), amount) */\n      jump\t// in\n    tag_176:\n        /* \"ex/token/Baby.sol\":22120:22205  function burn(uint256 amount) external {... */\n      pop\n      jump\t// out\n        /* \"ex/token/Baby.sol\":16193:16231  address public immutable uniswapV2Pair */\n    tag_84:\n      immutable(\"0xcf847823cd05fc0701b9c43d16f83004daff2637516797a8151c5b74447a7127\")\n      dup2\n      jump\t// out\n        /* \"ex/token/Baby.sol\":19939:20130  function addDex(address _pair) external onlyOwner {... */\n    tag_90:\n        /* \"ex/token/Baby.sol\":3401:3413  _msgSender() */\n      tag_180\n        /* \"ex/token/Baby.sol\":3401:3411  _msgSender */\n      tag_156\n        /* \"ex/token/Baby.sol\":3401:3413  _msgSender() */\n      jump\t// in\n    tag_180:\n        /* \"ex/token/Baby.sol\":3390:3413  owner() == _msgSender() */\n      0xffffffffffffffffffffffffffffffffffffffff\n      and\n        /* \"ex/token/Baby.sol\":3390:3397  owner() */\n      tag_181\n        /* \"ex/token/Baby.sol\":3390:3395  owner */\n      tag_105\n        /* \"ex/token/Baby.sol\":3390:3397  owner() */\n      jump\t// in\n    tag_181:\n        /* \"ex/token/Baby.sol\":3390:3413  owner() == _msgSender() */\n      0xffffffffffffffffffffffffffffffffffffffff\n      and\n      eq\n        /* \"ex/token/Baby.sol\":3382:3450  require(owner() == _msgSender(), \"Ownable: caller is not the owner\") */\n      tag_182\n      jumpi\n      mload(0x40)\n      0x08c379a000000000000000000000000000000000000000000000000000000000\n      dup2\n      mstore\n      0x04\n      add\n      tag_183\n      swap1\n      tag_184\n      jump\t// in\n    tag_183:\n      mload(0x40)\n      dup1\n      swap2\n      sub\n      swap1\n      revert\n    tag_182:\n        /* \"ex/token/Baby.sol\":20004:20008  DEXs */\n      0x07\n        /* \"ex/token/Baby.sol\":20004:20015  DEXs[_pair] */\n      0x00\n        /* \"ex/token/Baby.sol\":20009:20014  _pair */\n      dup3\n        /* \"ex/token/Baby.sol\":20004:20015  DEXs[_pair] */\n      0xffffffffffffffffffffffffffffffffffffffff\n      and\n      0xffffffffffffffffffffffffffffffffffffffff\n      and\n      dup2\n      mstore\n      0x20\n      add\n      swap1\n      dup2\n      mstore\n      0x20\n      add\n      0x00\n      keccak256\n      0x00\n      swap1\n      sload\n      swap1\n      0x0100\n      exp\n      swap1\n      div\n      0xff\n      and\n        /* \"ex/token/Baby.sol\":20000:20114  if (DEXs[_pair]) {... */\n      iszero\n      tag_186\n      jumpi\n        /* \"ex/token/Baby.sol\":20046:20051  false */\n      0x00\n        /* \"ex/token/Baby.sol\":20032:20036  DEXs */\n      0x07\n        /* \"ex/token/Baby.sol\":20032:20043  DEXs[_pair] */\n      0x00\n        /* \"ex/token/Baby.sol\":20037:20042  _pair */\n      dup4\n        /* \"ex/token/Baby.sol\":20032:20043  DEXs[_pair] */\n      0xffffffffffffffffffffffffffffffffffffffff\n      and\n      0xffffffffffffffffffffffffffffffffffffffff\n      and\n      dup2\n      mstore\n      0x20\n      add\n      swap1\n      dup2\n      mstore\n      0x20\n      add\n      0x00\n      keccak256\n      0x00\n        /* \"ex/token/Baby.sol\":20032:20051  DEXs[_pair] = false */\n      0x0100\n      exp\n      dup2\n      sload\n      dup2\n      0xff\n      mul\n      not\n      and\n      swap1\n      dup4\n      iszero\n      iszero\n      mul\n      or\n      swap1\n      sstore\n      pop\n        /* \"ex/token/Baby.sol\":20000:20114  if (DEXs[_pair]) {... */\n      jump(tag_187)\n    tag_186:\n        /* \"ex/token/Baby.sol\":20098:20102  true */\n      0x01\n        /* \"ex/token/Baby.sol\":20084:20088  DEXs */\n      0x07\n        /* \"ex/token/Baby.sol\":20084:20095  DEXs[_pair] */\n      0x00\n        /* \"ex/token/Baby.sol\":20089:20094  _pair */\n      dup4\n        /* \"ex/token/Baby.sol\":20084:20095  DEXs[_pair] */\n      0xffffffffffffffffffffffffffffffffffffffff\n      and\n      0xffffffffffffffffffffffffffffffffffffffff\n      and\n      dup2\n      mstore\n      0x20\n      add\n      swap1\n      dup2\n      mstore\n      0x20\n      add\n      0x00\n      keccak256\n      0x00\n        /* \"ex/token/Baby.sol\":20084:20102  DEXs[_pair] = true */\n      0x0100\n      exp\n      dup2\n      sload\n      dup2\n      0xff\n      mul\n      not\n      and\n      swap1\n      dup4\n      iszero\n      iszero\n      mul\n      or\n      swap1\n      sstore\n      pop\n        /* \"ex/token/Baby.sol\":20000:20114  if (DEXs[_pair]) {... */\n    tag_187:\n        /* \"ex/token/Baby.sol\":19939:20130  function addDex(address _pair) external onlyOwner {... */\n      pop\n      jump\t// out\n        /* \"ex/token/Baby.sol\":18149:18276  function balanceOf(address account) public view virtual override returns (uint256) {... */\n    tag_94:\n        /* \"ex/token/Baby.sol\":18223:18230  uint256 */\n      0x00\n        /* \"ex/token/Baby.sol\":18250:18259  _balances */\n      0x01\n        /* \"ex/token/Baby.sol\":18250:18268  _balances[account] */\n      0x00\n        /* \"ex/token/Baby.sol\":18260:18267  account */\n      dup4\n        /* \"ex/token/Baby.sol\":18250:18268  _balances[account] */\n      0xffffffffffffffffffffffffffffffffffffffff\n      and\n      0xffffffffffffffffffffffffffffffffffffffff\n      and\n      dup2\n      mstore\n      0x20\n      add\n      swap1\n      dup2\n      mstore\n      0x20\n      add\n      0x00\n      keccak256\n      sload\n        /* \"ex/token/Baby.sol\":18243:18268  return _balances[account] */\n      swap1\n      pop\n        /* \"ex/token/Baby.sol\":18149:18276  function balanceOf(address account) public view virtual override returns (uint256) {... */\n      swap2\n      swap1\n      pop\n      jump\t// out\n        /* \"ex/token/Baby.sol\":3821:3924  function renounceOwnership() public virtual onlyOwner {... */\n    tag_98:\n        /* \"ex/token/Baby.sol\":3401:3413  _msgSender() */\n      tag_190\n        /* \"ex/token/Baby.sol\":3401:3411  _msgSender */\n      tag_156\n        /* \"ex/token/Baby.sol\":3401:3413  _msgSender() */\n      jump\t// in\n    tag_190:\n        /* \"ex/token/Baby.sol\":3390:3413  owner() == _msgSender() */\n      0xffffffffffffffffffffffffffffffffffffffff\n      and\n        /* \"ex/token/Baby.sol\":3390:3397  owner() */\n      tag_191\n        /* \"ex/token/Baby.sol\":3390:3395  owner */\n      tag_105\n        /* \"ex/token/Baby.sol\":3390:3397  owner() */\n      jump\t// in\n    tag_191:\n        /* \"ex/token/Baby.sol\":3390:3413  owner() == _msgSender() */\n      0xffffffffffffffffffffffffffffffffffffffff\n      and\n      eq\n        /* \"ex/token/Baby.sol\":3382:3450  require(owner() == _msgSender(), \"Ownable: caller is not the owner\") */\n      tag_192\n      jumpi\n      mload(0x40)\n      0x08c379a000000000000000000000000000000000000000000000000000000000\n      dup2\n      mstore\n      0x04\n      add\n      tag_193\n      swap1\n      tag_184\n      jump\t// in\n    tag_193:\n      mload(0x40)\n      dup1\n      swap2\n      sub\n      swap1\n      revert\n    tag_192:\n        /* \"ex/token/Baby.sol\":3886:3916  _transferOwnership(address(0)) */\n      tag_195\n        /* \"ex/token/Baby.sol\":3913:3914  0 */\n      0x00\n        /* \"ex/token/Baby.sol\":3886:3904  _transferOwnership */\n      tag_196\n        /* \"ex/token/Baby.sol\":3886:3916  _transferOwnership(address(0)) */\n      jump\t// in\n    tag_195:\n        /* \"ex/token/Baby.sol\":3821:3924  function renounceOwnership() public virtual onlyOwner {... */\n      jump\t// out\n        /* \"ex/token/Baby.sol\":16612:16687  address public usdtMintAddress = 0x7ef95a0FEE0Dd31b22626fA2e10Ee6A223F8a684 */\n    tag_101:\n      0x09\n      0x00\n      swap1\n      sload\n      swap1\n      0x0100\n      exp\n      swap1\n      div\n      0xffffffffffffffffffffffffffffffffffffffff\n      and\n      dup2\n      jump\t// out\n        /* \"ex/token/Baby.sol\":3170:3257  function owner() public view virtual returns (address) {... */\n    tag_105:\n        /* \"ex/token/Baby.sol\":3216:3223  address */\n      0x00\n        /* \"ex/token/Baby.sol\":3243:3249  _owner */\n      dup1\n      0x00\n      swap1\n      sload\n      swap1\n      0x0100\n      exp\n      swap1\n      div\n      0xffffffffffffffffffffffffffffffffffffffff\n      and\n        /* \"ex/token/Baby.sol\":3236:3249  return _owner */\n      swap1\n      pop\n        /* \"ex/token/Baby.sol\":3170:3257  function owner() public view virtual returns (address) {... */\n      swap1\n      jump\t// out\n        /* \"ex/token/Baby.sol\":16410:16483  address public marketAddress = 0xd3c0b6Aa1538d639912789be705F18b5Fd89fcE6 */\n    tag_109:\n      0x08\n      0x01\n      swap1\n      sload\n      swap1\n      0x0100\n      exp\n      swap1\n      div\n      0xffffffffffffffffffffffffffffffffffffffff\n      and\n      dup2\n      jump\t// out\n        /* \"ex/token/Baby.sol\":17821:17924  function symbol() public view virtual override returns (string memory) {... */\n    tag_113:\n        /* \"ex/token/Baby.sol\":17877:17890  string memory */\n      0x60\n        /* \"ex/token/Baby.sol\":17903:17916  return \"AIRT\" */\n      mload(0x40)\n      dup1\n      0x40\n      add\n      0x40\n      mstore\n      dup1\n      0x04\n      dup2\n      mstore\n      0x20\n      add\n      0x4149525400000000000000000000000000000000000000000000000000000000\n      dup2\n      mstore\n      pop\n      swap1\n      pop\n        /* \"ex/token/Baby.sol\":17821:17924  function symbol() public view virtual override returns (string memory) {... */\n      swap1\n      jump\t// out\n        /* \"ex/token/Baby.sol\":19522:19931  function decreaseAllowance(address spender, uint256 subtractedValue) public virtual returns (bool) {... */\n    tag_118:\n        /* \"ex/token/Baby.sol\":19615:19619  bool */\n      0x00\n        /* \"ex/token/Baby.sol\":19632:19656  uint256 currentAllowance */\n      dup1\n        /* \"ex/token/Baby.sol\":19659:19670  _allowances */\n      0x02\n        /* \"ex/token/Baby.sol\":19659:19684  _allowances[_msgSender()] */\n      0x00\n        /* \"ex/token/Baby.sol\":19671:19683  _msgSender() */\n      tag_200\n        /* \"ex/token/Baby.sol\":19671:19681  _msgSender */\n      tag_156\n        /* \"ex/token/Baby.sol\":19671:19683  _msgSender() */\n      jump\t// in\n    tag_200:\n        /* \"ex/token/Baby.sol\":19659:19684  _allowances[_msgSender()] */\n      0xffffffffffffffffffffffffffffffffffffffff\n      and\n      0xffffffffffffffffffffffffffffffffffffffff\n      and\n      dup2\n      mstore\n      0x20\n      add\n      swap1\n      dup2\n      mstore\n      0x20\n      add\n      0x00\n      keccak256\n        /* \"ex/token/Baby.sol\":19659:19693  _allowances[_msgSender()][spender] */\n      0x00\n        /* \"ex/token/Baby.sol\":19685:19692  spender */\n      dup6\n        /* \"ex/token/Baby.sol\":19659:19693  _allowances[_msgSender()][spender] */\n      0xffffffffffffffffffffffffffffffffffffffff\n      and\n      0xffffffffffffffffffffffffffffffffffffffff\n      and\n      dup2\n      mstore\n      0x20\n      add\n      swap1\n      dup2\n      mstore\n      0x20\n      add\n      0x00\n      keccak256\n      sload\n        /* \"ex/token/Baby.sol\":19632:19693  uint256 currentAllowance = _allowances[_msgSender()][spender] */\n      swap1\n      pop\n        /* \"ex/token/Baby.sol\":19732:19747  subtractedValue */\n      dup3\n        /* \"ex/token/Baby.sol\":19712:19728  currentAllowance */\n      dup2\n        /* \"ex/token/Baby.sol\":19712:19747  currentAllowance >= subtractedValue */\n      lt\n      iszero\n        /* \"ex/token/Baby.sol\":19704:19787  require(currentAllowance >= subtractedValue, \"BEE: decreased allowance below zero\") */\n      tag_201\n      jumpi\n      mload(0x40)\n      0x08c379a000000000000000000000000000000000000000000000000000000000\n      dup2\n      mstore\n      0x04\n      add\n      tag_202\n      swap1\n      tag_203\n      jump\t// in\n    tag_202:\n      mload(0x40)\n      dup1\n      swap2\n      sub\n      swap1\n      revert\n    tag_201:\n        /* \"ex/token/Baby.sol\":19823:19890  _approve(_msgSender(), spender, currentAllowance - subtractedValue) */\n      tag_204\n        /* \"ex/token/Baby.sol\":19832:19844  _msgSender() */\n      tag_205\n        /* \"ex/token/Baby.sol\":19832:19842  _msgSender */\n      tag_156\n        /* \"ex/token/Baby.sol\":19832:19844  _msgSender() */\n      jump\t// in\n    tag_205:\n        /* \"ex/token/Baby.sol\":19846:19853  spender */\n      dup6\n        /* \"ex/token/Baby.sol\":19874:19889  subtractedValue */\n      dup6\n        /* \"ex/token/Baby.sol\":19855:19871  currentAllowance */\n      dup5\n        /* \"ex/token/Baby.sol\":19855:19889  currentAllowance - subtractedValue */\n      sub\n        /* \"ex/token/Baby.sol\":19823:19831  _approve */\n      tag_157\n        /* \"ex/token/Baby.sol\":19823:19890  _approve(_msgSender(), spender, currentAllowance - subtractedValue) */\n      jump\t// in\n    tag_204:\n        /* \"ex/token/Baby.sol\":19919:19923  true */\n      0x01\n        /* \"ex/token/Baby.sol\":19912:19923  return true */\n      swap2\n      pop\n      pop\n        /* \"ex/token/Baby.sol\":19522:19931  function decreaseAllowance(address spender, uint256 subtractedValue) public virtual returns (bool) {... */\n      swap3\n      swap2\n      pop\n      pop\n      jump\t// out\n        /* \"ex/token/Baby.sol\":22443:22658  function setExcludeds(address addr) public onlyOwner {... */\n    tag_123:\n        /* \"ex/token/Baby.sol\":3401:3413  _msgSender() */\n      tag_207\n        /* \"ex/token/Baby.sol\":3401:3411  _msgSender */\n      tag_156\n        /* \"ex/token/Baby.sol\":3401:3413  _msgSender() */\n      jump\t// in\n    tag_207:\n        /* \"ex/token/Baby.sol\":3390:3413  owner() == _msgSender() */\n      0xffffffffffffffffffffffffffffffffffffffff\n      and\n        /* \"ex/token/Baby.sol\":3390:3397  owner() */\n      tag_208\n        /* \"ex/token/Baby.sol\":3390:3395  owner */\n      tag_105\n        /* \"ex/token/Baby.sol\":3390:3397  owner() */\n      jump\t// in\n    tag_208:\n        /* \"ex/token/Baby.sol\":3390:3413  owner() == _msgSender() */\n      0xffffffffffffffffffffffffffffffffffffffff\n      and\n      eq\n        /* \"ex/token/Baby.sol\":3382:3450  require(owner() == _msgSender(), \"Ownable: caller is not the owner\") */\n      tag_209\n      jumpi\n      mload(0x40)\n      0x08c379a000000000000000000000000000000000000000000000000000000000\n      dup2\n      mstore\n      0x04\n      add\n      tag_210\n      swap1\n      tag_184\n      jump\t// in\n    tag_210:\n      mload(0x40)\n      dup1\n      swap2\n      sub\n      swap1\n      revert\n    tag_209:\n        /* \"ex/token/Baby.sol\":22533:22537  true */\n      0x01\n        /* \"ex/token/Baby.sol\":22511:22537  _isExcludeds[addr] == true */\n      iszero\n      iszero\n        /* \"ex/token/Baby.sol\":22511:22523  _isExcludeds */\n      0x06\n        /* \"ex/token/Baby.sol\":22511:22529  _isExcludeds[addr] */\n      0x00\n        /* \"ex/token/Baby.sol\":22524:22528  addr */\n      dup4\n        /* \"ex/token/Baby.sol\":22511:22529  _isExcludeds[addr] */\n      0xffffffffffffffffffffffffffffffffffffffff\n      and\n      0xffffffffffffffffffffffffffffffffffffffff\n      and\n      dup2\n      mstore\n      0x20\n      add\n      swap1\n      dup2\n      mstore\n      0x20\n      add\n      0x00\n      keccak256\n      0x00\n      swap1\n      sload\n      swap1\n      0x0100\n      exp\n      swap1\n      div\n      0xff\n      and\n        /* \"ex/token/Baby.sol\":22511:22537  _isExcludeds[addr] == true */\n      iszero\n      iszero\n      sub\n        /* \"ex/token/Baby.sol\":22507:22651  if (_isExcludeds[addr] == true) {... */\n      tag_212\n      jumpi\n        /* \"ex/token/Baby.sol\":22575:22580  false */\n      0x00\n        /* \"ex/token/Baby.sol\":22554:22566  _isExcludeds */\n      0x06\n        /* \"ex/token/Baby.sol\":22554:22572  _isExcludeds[addr] */\n      0x00\n        /* \"ex/token/Baby.sol\":22567:22571  addr */\n      dup4\n        /* \"ex/token/Baby.sol\":22554:22572  _isExcludeds[addr] */\n      0xffffffffffffffffffffffffffffffffffffffff\n      and\n      0xffffffffffffffffffffffffffffffffffffffff\n      and\n      dup2\n      mstore\n      0x20\n      add\n      swap1\n      dup2\n      mstore\n      0x20\n      add\n      0x00\n      keccak256\n      0x00\n        /* \"ex/token/Baby.sol\":22554:22580  _isExcludeds[addr] = false */\n      0x0100\n      exp\n      dup2\n      sload\n      dup2\n      0xff\n      mul\n      not\n      and\n      swap1\n      dup4\n      iszero\n      iszero\n      mul\n      or\n      swap1\n      sstore\n      pop\n        /* \"ex/token/Baby.sol\":22507:22651  if (_isExcludeds[addr] == true) {... */\n      jump(tag_213)\n    tag_212:\n        /* \"ex/token/Baby.sol\":22635:22639  true */\n      0x01\n        /* \"ex/token/Baby.sol\":22614:22626  _isExcludeds */\n      0x06\n        /* \"ex/token/Baby.sol\":22614:22632  _isExcludeds[addr] */\n      0x00\n        /* \"ex/token/Baby.sol\":22627:22631  addr */\n      dup4\n        /* \"ex/token/Baby.sol\":22614:22632  _isExcludeds[addr] */\n      0xffffffffffffffffffffffffffffffffffffffff\n      and\n      0xffffffffffffffffffffffffffffffffffffffff\n      and\n      dup2\n      mstore\n      0x20\n      add\n      swap1\n      dup2\n      mstore\n      0x20\n      add\n      0x00\n      keccak256\n      0x00\n        /* \"ex/token/Baby.sol\":22614:22639  _isExcludeds[addr] = true */\n      0x0100\n      exp\n      dup2\n      sload\n      dup2\n      0xff\n      mul\n      not\n      and\n      swap1\n      dup4\n      iszero\n      iszero\n      mul\n      or\n      swap1\n      sstore\n      pop\n        /* \"ex/token/Baby.sol\":22507:22651  if (_isExcludeds[addr] == true) {... */\n    tag_213:\n        /* \"ex/token/Baby.sol\":22443:22658  function setExcludeds(address addr) public onlyOwner {... */\n      pop\n      jump\t// out\n        /* \"ex/token/Baby.sol\":18284:18459  function transfer(address recipient, uint256 amount) public virtual override returns (bool) {... */\n    tag_127:\n        /* \"ex/token/Baby.sol\":18370:18374  bool */\n      0x00\n        /* \"ex/token/Baby.sol\":18387:18429  _transfer(_msgSender(), recipient, amount) */\n      tag_215\n        /* \"ex/token/Baby.sol\":18397:18409  _msgSender() */\n      tag_216\n        /* \"ex/token/Baby.sol\":18397:18407  _msgSender */\n      tag_156\n        /* \"ex/token/Baby.sol\":18397:18409  _msgSender() */\n      jump\t// in\n    tag_216:\n        /* \"ex/token/Baby.sol\":18411:18420  recipient */\n      dup5\n        /* \"ex/token/Baby.sol\":18422:18428  amount */\n      dup5\n        /* \"ex/token/Baby.sol\":18387:18396  _transfer */\n      tag_161\n        /* \"ex/token/Baby.sol\":18387:18429  _transfer(_msgSender(), recipient, amount) */\n      jump\t// in\n    tag_215:\n        /* \"ex/token/Baby.sol\":18447:18451  true */\n      0x01\n        /* \"ex/token/Baby.sol\":18440:18451  return true */\n      swap1\n      pop\n        /* \"ex/token/Baby.sol\":18284:18459  function transfer(address recipient, uint256 amount) public virtual override returns (bool) {... */\n      swap3\n      swap2\n      pop\n      pop\n      jump\t// out\n        /* \"ex/token/Baby.sol\":22935:23414  function swapTokensForUsdt(uint256 tokenAmount) public lockTheSwap{... */\n    tag_132:\n        /* \"ex/token/Baby.sol\":16751:16755  true */\n      0x01\n        /* \"ex/token/Baby.sol\":16732:16748  inSwapAndLiquify */\n      0x08\n      0x00\n        /* \"ex/token/Baby.sol\":16732:16755  inSwapAndLiquify = true */\n      0x0100\n      exp\n      dup2\n      sload\n      dup2\n      0xff\n      mul\n      not\n      and\n      swap1\n      dup4\n      iszero\n      iszero\n      mul\n      or\n      swap1\n      sstore\n      pop\n        /* \"ex/token/Baby.sol\":23012:23033  address[] memory path */\n      0x00\n        /* \"ex/token/Baby.sol\":23050:23051  2 */\n      0x02\n        /* \"ex/token/Baby.sol\":23036:23052  new address[](2) */\n      0xffffffffffffffff\n      dup2\n      gt\n      iszero\n      tag_219\n      jumpi\n      tag_220\n      tag_221\n      jump\t// in\n    tag_220:\n    tag_219:\n      mload(0x40)\n      swap1\n      dup1\n      dup3\n      mstore\n      dup1\n      0x20\n      mul\n      0x20\n      add\n      dup3\n      add\n      0x40\n      mstore\n      dup1\n      iszero\n      tag_222\n      jumpi\n      dup2\n      0x20\n      add\n      0x20\n      dup3\n      mul\n      dup1\n      calldatasize\n      dup4\n      calldatacopy\n      dup1\n      dup3\n      add\n      swap2\n      pop\n      pop\n      swap1\n      pop\n    tag_222:\n      pop\n        /* \"ex/token/Baby.sol\":23012:23052  address[] memory path = new address[](2) */\n      swap1\n      pop\n        /* \"ex/token/Baby.sol\":23081:23085  this */\n      address\n        /* \"ex/token/Baby.sol\":23063:23067  path */\n      dup2\n        /* \"ex/token/Baby.sol\":23068:23069  0 */\n      0x00\n        /* \"ex/token/Baby.sol\":23063:23070  path[0] */\n      dup2\n      mload\n      dup2\n      lt\n      tag_223\n      jumpi\n      tag_224\n      tag_225\n      jump\t// in\n    tag_224:\n    tag_223:\n      0x20\n      mul\n      0x20\n      add\n      add\n        /* \"ex/token/Baby.sol\":23063:23086  path[0] = address(this) */\n      swap1\n      0xffffffffffffffffffffffffffffffffffffffff\n      and\n      swap1\n      dup2\n      0xffffffffffffffffffffffffffffffffffffffff\n      and\n      dup2\n      mstore\n      pop\n      pop\n        /* \"ex/token/Baby.sol\":23107:23122  usdtMintAddress */\n      0x09\n      0x00\n      swap1\n      sload\n      swap1\n      0x0100\n      exp\n      swap1\n      div\n      0xffffffffffffffffffffffffffffffffffffffff\n      and\n        /* \"ex/token/Baby.sol\":23097:23101  path */\n      dup2\n        /* \"ex/token/Baby.sol\":23102:23103  1 */\n      0x01\n        /* \"ex/token/Baby.sol\":23097:23104  path[1] */\n      dup2\n      mload\n      dup2\n      lt\n      tag_226\n      jumpi\n      tag_227\n      tag_225\n      jump\t// in\n    tag_227:\n    tag_226:\n      0x20\n      mul\n      0x20\n      add\n      add\n        /* \"ex/token/Baby.sol\":23097:23122  path[1] = usdtMintAddress */\n      swap1\n      0xffffffffffffffffffffffffffffffffffffffff\n      and\n      swap1\n      dup2\n      0xffffffffffffffffffffffffffffffffffffffff\n      and\n      dup2\n      mstore\n      pop\n      pop\n        /* \"ex/token/Baby.sol\":23133:23195  _approve(address(this), address(uniswapV2Router), tokenAmount) */\n      tag_228\n        /* \"ex/token/Baby.sol\":23150:23154  this */\n      address\n        /* \"ex/token/Baby.sol\":23165:23180  uniswapV2Router */\n      immutable(\"0x0257654a82461e8a1d15ee210f9c68af767d2a4dc70df683f0ecf9e700bd8bac\")\n        /* \"ex/token/Baby.sol\":23183:23194  tokenAmount */\n      dup5\n        /* \"ex/token/Baby.sol\":23133:23141  _approve */\n      tag_157\n        /* \"ex/token/Baby.sol\":23133:23195  _approve(address(this), address(uniswapV2Router), tokenAmount) */\n      jump\t// in\n    tag_228:\n        /* \"ex/token/Baby.sol\":23206:23221  uniswapV2Router */\n      immutable(\"0x0257654a82461e8a1d15ee210f9c68af767d2a4dc70df683f0ecf9e700bd8bac\")\n        /* \"ex/token/Baby.sol\":23206:23275  uniswapV2Router.swapExactTokensForTokensSupportingFeeOnTransferTokens */\n      0xffffffffffffffffffffffffffffffffffffffff\n      and\n      0x5c11d795\n        /* \"ex/token/Baby.sol\":23290:23301  tokenAmount */\n      dup4\n        /* \"ex/token/Baby.sol\":23316:23317  0 */\n      0x00\n        /* \"ex/token/Baby.sol\":23333:23337  path */\n      dup5\n        /* \"ex/token/Baby.sol\":23352:23365  marketAddress */\n      0x08\n      0x01\n      swap1\n      sload\n      swap1\n      0x0100\n      exp\n      swap1\n      div\n      0xffffffffffffffffffffffffffffffffffffffff\n      and\n        /* \"ex/token/Baby.sol\":23380:23395  block.timestamp */\n      timestamp\n        /* \"ex/token/Baby.sol\":23206:23406  uniswapV2Router.swapExactTokensForTokensSupportingFeeOnTransferTokens(... */\n      mload(0x40)\n      dup7\n      0xffffffff\n      and\n      0xe0\n      shl\n      dup2\n      mstore\n      0x04\n      add\n      tag_229\n      swap6\n      swap5\n      swap4\n      swap3\n      swap2\n      swap1\n      tag_230\n      jump\t// in\n    tag_229:\n      0x00\n      mload(0x40)\n      dup1\n      dup4\n      sub\n      dup2\n      0x00\n      dup8\n      dup1\n      extcodesize\n      iszero\n      dup1\n      iszero\n      tag_231\n      jumpi\n      0x00\n      dup1\n      revert\n    tag_231:\n      pop\n      gas\n      call\n      iszero\n      dup1\n      iszero\n      tag_233\n      jumpi\n      returndatasize\n      0x00\n      dup1\n      returndatacopy\n      revert(0x00, returndatasize)\n    tag_233:\n      pop\n      pop\n      pop\n      pop\n        /* \"ex/token/Baby.sol\":23001:23414  {... */\n      pop\n        /* \"ex/token/Baby.sol\":16797:16802  false */\n      0x00\n        /* \"ex/token/Baby.sol\":16778:16794  inSwapAndLiquify */\n      0x08\n      0x00\n        /* \"ex/token/Baby.sol\":16778:16802  inSwapAndLiquify = false */\n      0x0100\n      exp\n      dup2\n      sload\n      dup2\n      0xff\n      mul\n      not\n      and\n      swap1\n      dup4\n      iszero\n      iszero\n      mul\n      or\n      swap1\n      sstore\n      pop\n        /* \"ex/token/Baby.sol\":22935:23414  function swapTokensForUsdt(uint256 tokenAmount) public lockTheSwap{... */\n      pop\n      jump\t// out\n        /* \"ex/token/Baby.sol\":18467:18618  function allowance(address owner, address spender) public view virtual override returns (uint256) {... */\n    tag_137:\n        /* \"ex/token/Baby.sol\":18556:18563  uint256 */\n      0x00\n        /* \"ex/token/Baby.sol\":18583:18594  _allowances */\n      0x02\n        /* \"ex/token/Baby.sol\":18583:18601  _allowances[owner] */\n      0x00\n        /* \"ex/token/Baby.sol\":18595:18600  owner */\n      dup5\n        /* \"ex/token/Baby.sol\":18583:18601  _allowances[owner] */\n      0xffffffffffffffffffffffffffffffffffffffff\n      and\n      0xffffffffffffffffffffffffffffffffffffffff\n      and\n      dup2\n      mstore\n      0x20\n      add\n      swap1\n      dup2\n      mstore\n      0x20\n      add\n      0x00\n      keccak256\n        /* \"ex/token/Baby.sol\":18583:18610  _allowances[owner][spender] */\n      0x00\n        /* \"ex/token/Baby.sol\":18602:18609  spender */\n      dup4\n        /* \"ex/token/Baby.sol\":18583:18610  _allowances[owner][spender] */\n      0xffffffffffffffffffffffffffffffffffffffff\n      and\n      0xffffffffffffffffffffffffffffffffffffffff\n      and\n      dup2\n      mstore\n      0x20\n      add\n      swap1\n      dup2\n      mstore\n      0x20\n      add\n      0x00\n      keccak256\n      sload\n        /* \"ex/token/Baby.sol\":18576:18610  return _allowances[owner][spender] */\n      swap1\n      pop\n        /* \"ex/token/Baby.sol\":18467:18618  function allowance(address owner, address spender) public view virtual override returns (uint256) {... */\n      swap3\n      swap2\n      pop\n      pop\n      jump\t// out\n        /* \"ex/token/Baby.sol\":16340:16375  mapping (address=>bool) public DEXs */\n    tag_142:\n      mstore(0x20, 0x07)\n      dup1\n      0x00\n      mstore\n      keccak256(0x00, 0x40)\n      0x00\n      swap2\n      pop\n      sload\n      swap1\n      0x0100\n      exp\n      swap1\n      div\n      0xff\n      and\n      dup2\n      jump\t// out\n        /* \"ex/token/Baby.sol\":4079:4280  function transferOwnership(address newOwner) public virtual onlyOwner {... */\n    tag_147:\n        /* \"ex/token/Baby.sol\":3401:3413  _msgSender() */\n      tag_236\n        /* \"ex/token/Baby.sol\":3401:3411  _msgSender */\n      tag_156\n        /* \"ex/token/Baby.sol\":3401:3413  _msgSender() */\n      jump\t// in\n    tag_236:\n        /* \"ex/token/Baby.sol\":3390:3413  owner() == _msgSender() */\n      0xffffffffffffffffffffffffffffffffffffffff\n      and\n        /* \"ex/token/Baby.sol\":3390:3397  owner() */\n      tag_237\n        /* \"ex/token/Baby.sol\":3390:3395  owner */\n      tag_105\n        /* \"ex/token/Baby.sol\":3390:3397  owner() */\n      jump\t// in\n    tag_237:\n        /* \"ex/token/Baby.sol\":3390:3413  owner() == _msgSender() */\n      0xffffffffffffffffffffffffffffffffffffffff\n      and\n      eq\n        /* \"ex/token/Baby.sol\":3382:3450  require(owner() == _msgSender(), \"Ownable: caller is not the owner\") */\n      tag_238\n      jumpi\n      mload(0x40)\n      0x08c379a000000000000000000000000000000000000000000000000000000000\n      dup2\n      mstore\n      0x04\n      add\n      tag_239\n      swap1\n      tag_184\n      jump\t// in\n    tag_239:\n      mload(0x40)\n      dup1\n      swap2\n      sub\n      swap1\n      revert\n    tag_238:\n        /* \"ex/token/Baby.sol\":4188:4189  0 */\n      0x00\n        /* \"ex/token/Baby.sol\":4168:4190  newOwner != address(0) */\n      0xffffffffffffffffffffffffffffffffffffffff\n      and\n        /* \"ex/token/Baby.sol\":4168:4176  newOwner */\n      dup2\n        /* \"ex/token/Baby.sol\":4168:4190  newOwner != address(0) */\n      0xffffffffffffffffffffffffffffffffffffffff\n      and\n      sub\n        /* \"ex/token/Baby.sol\":4160:4233  require(newOwner != address(0), \"Ownable: new owner is the zero address\") */\n      tag_241\n      jumpi\n      mload(0x40)\n      0x08c379a000000000000000000000000000000000000000000000000000000000\n      dup2\n      mstore\n      0x04\n      add\n      tag_242\n      swap1\n      tag_243\n      jump\t// in\n    tag_242:\n      mload(0x40)\n      dup1\n      swap2\n      sub\n      swap1\n      revert\n    tag_241:\n        /* \"ex/token/Baby.sol\":4244:4272  _transferOwnership(newOwner) */\n      tag_244\n        /* \"ex/token/Baby.sol\":4263:4271  newOwner */\n      dup2\n        /* \"ex/token/Baby.sol\":4244:4262  _transferOwnership */\n      tag_196\n        /* \"ex/token/Baby.sol\":4244:4272  _transferOwnership(newOwner) */\n      jump\t// in\n    tag_244:\n        /* \"ex/token/Baby.sol\":4079:4280  function transferOwnership(address newOwner) public virtual onlyOwner {... */\n      pop\n      jump\t// out\n        /* \"ex/token/Baby.sol\":22666:22762  function setMarketAddress(address addr) public onlyOwner {... */\n    tag_151:\n        /* \"ex/token/Baby.sol\":3401:3413  _msgSender() */\n      tag_246\n        /* \"ex/token/Baby.sol\":3401:3411  _msgSender */\n      tag_156\n        /* \"ex/token/Baby.sol\":3401:3413  _msgSender() */\n      jump\t// in\n    tag_246:\n        /* \"ex/token/Baby.sol\":3390:3413  owner() == _msgSender() */\n      0xffffffffffffffffffffffffffffffffffffffff\n      and\n        /* \"ex/token/Baby.sol\":3390:3397  owner() */\n      tag_247\n        /* \"ex/token/Baby.sol\":3390:3395  owner */\n      tag_105\n        /* \"ex/token/Baby.sol\":3390:3397  owner() */\n      jump\t// in\n    tag_247:\n        /* \"ex/token/Baby.sol\":3390:3413  owner() == _msgSender() */\n      0xffffffffffffffffffffffffffffffffffffffff\n      and\n      eq\n        /* \"ex/token/Baby.sol\":3382:3450  require(owner() == _msgSender(), \"Ownable: caller is not the owner\") */\n      tag_248\n      jumpi\n      mload(0x40)\n      0x08c379a000000000000000000000000000000000000000000000000000000000\n      dup2\n      mstore\n      0x04\n      add\n      tag_249\n      swap1\n      tag_184\n      jump\t// in\n    tag_249:\n      mload(0x40)\n      dup1\n      swap2\n      sub\n      swap1\n      revert\n    tag_248:\n        /* \"ex/token/Baby.sol\":22750:22754  addr */\n      dup1\n        /* \"ex/token/Baby.sol\":22734:22747  marketAddress */\n      0x08\n      0x01\n        /* \"ex/token/Baby.sol\":22734:22754  marketAddress = addr */\n      0x0100\n      exp\n      dup2\n      sload\n      dup2\n      0xffffffffffffffffffffffffffffffffffffffff\n      mul\n      not\n      and\n      swap1\n      dup4\n      0xffffffffffffffffffffffffffffffffffffffff\n      and\n      mul\n      or\n      swap1\n      sstore\n      pop\n        /* \"ex/token/Baby.sol\":22666:22762  function setMarketAddress(address addr) public onlyOwner {... */\n      pop\n      jump\t// out\n        /* \"ex/token/Baby.sol\":2532:2630  function _msgSender() internal view virtual returns (address) {... */\n    tag_156:\n        /* \"ex/token/Baby.sol\":2585:2592  address */\n      0x00\n        /* \"ex/token/Baby.sol\":2612:2622  msg.sender */\n      caller\n        /* \"ex/token/Baby.sol\":2605:2622  return msg.sender */\n      swap1\n      pop\n        /* \"ex/token/Baby.sol\":2532:2630  function _msgSender() internal view virtual returns (address) {... */\n      swap1\n      jump\t// out\n        /* \"ex/token/Baby.sol\":22213:22433  function _approve(... */\n    tag_157:\n        /* \"ex/token/Baby.sol\":22371:22377  amount */\n      dup1\n        /* \"ex/token/Baby.sol\":22341:22352  _allowances */\n      0x02\n        /* \"ex/token/Baby.sol\":22341:22359  _allowances[owner] */\n      0x00\n        /* \"ex/token/Baby.sol\":22353:22358  owner */\n      dup6\n        /* \"ex/token/Baby.sol\":22341:22359  _allowances[owner] */\n      0xffffffffffffffffffffffffffffffffffffffff\n      and\n      0xffffffffffffffffffffffffffffffffffffffff\n      and\n      dup2\n      mstore\n      0x20\n      add\n      swap1\n      dup2\n      mstore\n      0x20\n      add\n      0x00\n      keccak256\n        /* \"ex/token/Baby.sol\":22341:22368  _allowances[owner][spender] */\n      0x00\n        /* \"ex/token/Baby.sol\":22360:22367  spender */\n      dup5\n        /* \"ex/token/Baby.sol\":22341:22368  _allowances[owner][spender] */\n      0xffffffffffffffffffffffffffffffffffffffff\n      and\n      0xffffffffffffffffffffffffffffffffffffffff\n      and\n      dup2\n      mstore\n      0x20\n      add\n      swap1\n      dup2\n      mstore\n      0x20\n      add\n      0x00\n      keccak256\n        /* \"ex/token/Baby.sol\":22341:22377  _allowances[owner][spender] = amount */\n      dup2\n      swap1\n      sstore\n      pop\n        /* \"ex/token/Baby.sol\":22409:22416  spender */\n      dup2\n        /* \"ex/token/Baby.sol\":22393:22425  Approval(owner, spender, amount) */\n      0xffffffffffffffffffffffffffffffffffffffff\n      and\n        /* \"ex/token/Baby.sol\":22402:22407  owner */\n      dup4\n        /* \"ex/token/Baby.sol\":22393:22425  Approval(owner, spender, amount) */\n      0xffffffffffffffffffffffffffffffffffffffff\n      and\n      0x8c5be1e5ebec7d5bd14f71427d1e84f3dd0314c0f7b2291e5b200ac8c7c3b925\n        /* \"ex/token/Baby.sol\":22418:22424  amount */\n      dup4\n        /* \"ex/token/Baby.sol\":22393:22425  Approval(owner, spender, amount) */\n      mload(0x40)\n      tag_253\n      swap2\n      swap1\n      tag_55\n      jump\t// in\n    tag_253:\n      mload(0x40)\n      dup1\n      swap2\n      sub\n      swap1\n      log3\n        /* \"ex/token/Baby.sol\":22213:22433  function _approve(... */\n      pop\n      pop\n      pop\n      jump\t// out\n        /* \"ex/token/Baby.sol\":20138:21438  function _transfer(... */\n    tag_161:\n        /* \"ex/token/Baby.sol\":20296:20297  0 */\n      0x00\n        /* \"ex/token/Baby.sol\":20278:20298  sender != address(0) */\n      0xffffffffffffffffffffffffffffffffffffffff\n      and\n        /* \"ex/token/Baby.sol\":20278:20284  sender */\n      dup4\n        /* \"ex/token/Baby.sol\":20278:20298  sender != address(0) */\n      0xffffffffffffffffffffffffffffffffffffffff\n      and\n      sub\n        /* \"ex/token/Baby.sol\":20270:20338  require(sender != address(0), \"BEE: transfer from the zero address\") */\n      tag_255\n      jumpi\n      mload(0x40)\n      0x08c379a000000000000000000000000000000000000000000000000000000000\n      dup2\n      mstore\n      0x04\n      add\n      tag_256\n      swap1\n      tag_257\n      jump\t// in\n    tag_256:\n      mload(0x40)\n      dup1\n      swap2\n      sub\n      swap1\n      revert\n    tag_255:\n        /* \"ex/token/Baby.sol\":20378:20379  0 */\n      0x00\n        /* \"ex/token/Baby.sol\":20357:20380  recipient != address(0) */\n      0xffffffffffffffffffffffffffffffffffffffff\n      and\n        /* \"ex/token/Baby.sol\":20357:20366  recipient */\n      dup3\n        /* \"ex/token/Baby.sol\":20357:20380  recipient != address(0) */\n      0xffffffffffffffffffffffffffffffffffffffff\n      and\n      sub\n        /* \"ex/token/Baby.sol\":20349:20418  require(recipient != address(0), \"BEE: transfer to the zero address\") */\n      tag_258\n      jumpi\n      mload(0x40)\n      0x08c379a000000000000000000000000000000000000000000000000000000000\n      dup2\n      mstore\n      0x04\n      add\n      tag_259\n      swap1\n      tag_260\n      jump\t// in\n    tag_259:\n      mload(0x40)\n      dup1\n      swap2\n      sub\n      swap1\n      revert\n    tag_258:\n        /* \"ex/token/Baby.sol\":20429:20450  uint256 senderBalance */\n      0x00\n        /* \"ex/token/Baby.sol\":20453:20462  _balances */\n      0x01\n        /* \"ex/token/Baby.sol\":20453:20470  _balances[sender] */\n      0x00\n        /* \"ex/token/Baby.sol\":20463:20469  sender */\n      dup6\n        /* \"ex/token/Baby.sol\":20453:20470  _balances[sender] */\n      0xffffffffffffffffffffffffffffffffffffffff\n      and\n      0xffffffffffffffffffffffffffffffffffffffff\n      and\n      dup2\n      mstore\n      0x20\n      add\n      swap1\n      dup2\n      mstore\n      0x20\n      add\n      0x00\n      keccak256\n      sload\n        /* \"ex/token/Baby.sol\":20429:20470  uint256 senderBalance = _balances[sender] */\n      swap1\n      pop\n        /* \"ex/token/Baby.sol\":20506:20512  amount */\n      dup2\n        /* \"ex/token/Baby.sol\":20489:20502  senderBalance */\n      dup2\n        /* \"ex/token/Baby.sol\":20489:20512  senderBalance >= amount */\n      lt\n      iszero\n        /* \"ex/token/Baby.sol\":20481:20553  require(senderBalance >= amount, \"BEE: transfer amount exceeds balance\") */\n      tag_261\n      jumpi\n      mload(0x40)\n      0x08c379a000000000000000000000000000000000000000000000000000000000\n      dup2\n      mstore\n      0x04\n      add\n      tag_262\n      swap1\n      tag_263\n      jump\t// in\n    tag_262:\n      mload(0x40)\n      dup1\n      swap2\n      sub\n      swap1\n      revert\n    tag_261:\n        /* \"ex/token/Baby.sol\":20564:20579  uint256 _amount */\n      0x00\n        /* \"ex/token/Baby.sol\":20582:20588  amount */\n      dup3\n        /* \"ex/token/Baby.sol\":20564:20588  uint256 _amount = amount */\n      swap1\n      pop\n        /* \"ex/token/Baby.sol\":20606:20610  DEXs */\n      0x07\n        /* \"ex/token/Baby.sol\":20606:20618  DEXs[sender] */\n      0x00\n        /* \"ex/token/Baby.sol\":20611:20617  sender */\n      dup7\n        /* \"ex/token/Baby.sol\":20606:20618  DEXs[sender] */\n      0xffffffffffffffffffffffffffffffffffffffff\n      and\n      0xffffffffffffffffffffffffffffffffffffffff\n      and\n      dup2\n      mstore\n      0x20\n      add\n      swap1\n      dup2\n      mstore\n      0x20\n      add\n      0x00\n      keccak256\n      0x00\n      swap1\n      sload\n      swap1\n      0x0100\n      exp\n      swap1\n      div\n      0xff\n      and\n        /* \"ex/token/Baby.sol\":20606:20659  DEXs[sender] && recipient != address(uniswapV2Router) */\n      dup1\n      iszero\n      tag_264\n      jumpi\n      pop\n        /* \"ex/token/Baby.sol\":20643:20658  uniswapV2Router */\n      immutable(\"0x0257654a82461e8a1d15ee210f9c68af767d2a4dc70df683f0ecf9e700bd8bac\")\n        /* \"ex/token/Baby.sol\":20622:20659  recipient != address(uniswapV2Router) */\n      0xffffffffffffffffffffffffffffffffffffffff\n      and\n        /* \"ex/token/Baby.sol\":20622:20631  recipient */\n      dup5\n        /* \"ex/token/Baby.sol\":20622:20659  recipient != address(uniswapV2Router) */\n      0xffffffffffffffffffffffffffffffffffffffff\n      and\n      eq\n      iszero\n        /* \"ex/token/Baby.sol\":20606:20659  DEXs[sender] && recipient != address(uniswapV2Router) */\n    tag_264:\n        /* \"ex/token/Baby.sol\":20605:20679  (DEXs[sender] && recipient != address(uniswapV2Router)) || DEXs[recipient] */\n      dup1\n      tag_265\n      jumpi\n      pop\n        /* \"ex/token/Baby.sol\":20664:20668  DEXs */\n      0x07\n        /* \"ex/token/Baby.sol\":20664:20679  DEXs[recipient] */\n      0x00\n        /* \"ex/token/Baby.sol\":20669:20678  recipient */\n      dup6\n        /* \"ex/token/Baby.sol\":20664:20679  DEXs[recipient] */\n      0xffffffffffffffffffffffffffffffffffffffff\n      and\n      0xffffffffffffffffffffffffffffffffffffffff\n      and\n      dup2\n      mstore\n      0x20\n      add\n      swap1\n      dup2\n      mstore\n      0x20\n      add\n      0x00\n      keccak256\n      0x00\n      swap1\n      sload\n      swap1\n      0x0100\n      exp\n      swap1\n      div\n      0xff\n      and\n        /* \"ex/token/Baby.sol\":20605:20679  (DEXs[sender] && recipient != address(uniswapV2Router)) || DEXs[recipient] */\n    tag_265:\n        /* \"ex/token/Baby.sol\":20604:20718  ((DEXs[sender] && recipient != address(uniswapV2Router)) || DEXs[recipient]) &&... */\n      dup1\n      iszero\n      tag_266\n      jumpi\n      pop\n        /* \"ex/token/Baby.sol\":20698:20710  _isExcludeds */\n      0x06\n        /* \"ex/token/Baby.sol\":20698:20718  _isExcludeds[sender] */\n      0x00\n        /* \"ex/token/Baby.sol\":20711:20717  sender */\n      dup7\n        /* \"ex/token/Baby.sol\":20698:20718  _isExcludeds[sender] */\n      0xffffffffffffffffffffffffffffffffffffffff\n      and\n      0xffffffffffffffffffffffffffffffffffffffff\n      and\n      dup2\n      mstore\n      0x20\n      add\n      swap1\n      dup2\n      mstore\n      0x20\n      add\n      0x00\n      keccak256\n      0x00\n      swap1\n      sload\n      swap1\n      0x0100\n      exp\n      swap1\n      div\n      0xff\n      and\n        /* \"ex/token/Baby.sol\":20697:20718  !_isExcludeds[sender] */\n      iszero\n        /* \"ex/token/Baby.sol\":20604:20718  ((DEXs[sender] && recipient != address(uniswapV2Router)) || DEXs[recipient]) &&... */\n    tag_266:\n        /* \"ex/token/Baby.sol\":20604:20759  ((DEXs[sender] && recipient != address(uniswapV2Router)) || DEXs[recipient]) &&... */\n      dup1\n      iszero\n      tag_267\n      jumpi\n      pop\n        /* \"ex/token/Baby.sol\":20736:20748  _isExcludeds */\n      0x06\n        /* \"ex/token/Baby.sol\":20736:20759  _isExcludeds[recipient] */\n      0x00\n        /* \"ex/token/Baby.sol\":20749:20758  recipient */\n      dup6\n        /* \"ex/token/Baby.sol\":20736:20759  _isExcludeds[recipient] */\n      0xffffffffffffffffffffffffffffffffffffffff\n      and\n      0xffffffffffffffffffffffffffffffffffffffff\n      and\n      dup2\n      mstore\n      0x20\n      add\n      swap1\n      dup2\n      mstore\n      0x20\n      add\n      0x00\n      keccak256\n      0x00\n      swap1\n      sload\n      swap1\n      0x0100\n      exp\n      swap1\n      div\n      0xff\n      and\n        /* \"ex/token/Baby.sol\":20735:20759  !_isExcludeds[recipient] */\n      iszero\n        /* \"ex/token/Baby.sol\":20604:20759  ((DEXs[sender] && recipient != address(uniswapV2Router)) || DEXs[recipient]) &&... */\n    tag_267:\n        /* \"ex/token/Baby.sol\":20599:21252  if ( ((DEXs[sender] && recipient != address(uniswapV2Router)) || DEXs[recipient]) &&... */\n      iszero\n      tag_268\n      jumpi\n        /* \"ex/token/Baby.sol\":20804:20858  _balances[address(this)].add(amount.mul(10).div(1000)) */\n      tag_269\n        /* \"ex/token/Baby.sol\":20833:20857  amount.mul(10).div(1000) */\n      tag_270\n        /* \"ex/token/Baby.sol\":20852:20856  1000 */\n      0x03e8\n        /* \"ex/token/Baby.sol\":20833:20847  amount.mul(10) */\n      tag_271\n        /* \"ex/token/Baby.sol\":20844:20846  10 */\n      0x0a\n        /* \"ex/token/Baby.sol\":20833:20839  amount */\n      dup8\n        /* \"ex/token/Baby.sol\":20833:20843  amount.mul */\n      tag_272\n      swap1\n        /* \"ex/token/Baby.sol\":20833:20847  amount.mul(10) */\n      swap2\n      swap1\n      0xffffffff\n      and\n      jump\t// in\n    tag_271:\n        /* \"ex/token/Baby.sol\":20833:20851  amount.mul(10).div */\n      tag_273\n      swap1\n        /* \"ex/token/Baby.sol\":20833:20857  amount.mul(10).div(1000) */\n      swap2\n      swap1\n      0xffffffff\n      and\n      jump\t// in\n    tag_270:\n        /* \"ex/token/Baby.sol\":20804:20813  _balances */\n      0x01\n        /* \"ex/token/Baby.sol\":20804:20828  _balances[address(this)] */\n      0x00\n        /* \"ex/token/Baby.sol\":20822:20826  this */\n      address\n        /* \"ex/token/Baby.sol\":20804:20828  _balances[address(this)] */\n      0xffffffffffffffffffffffffffffffffffffffff\n      and\n      0xffffffffffffffffffffffffffffffffffffffff\n      and\n      dup2\n      mstore\n      0x20\n      add\n      swap1\n      dup2\n      mstore\n      0x20\n      add\n      0x00\n      keccak256\n      sload\n        /* \"ex/token/Baby.sol\":20804:20832  _balances[address(this)].add */\n      tag_274\n      swap1\n        /* \"ex/token/Baby.sol\":20804:20858  _balances[address(this)].add(amount.mul(10).div(1000)) */\n      swap2\n      swap1\n      0xffffffff\n      and\n      jump\t// in\n    tag_269:\n        /* \"ex/token/Baby.sol\":20777:20786  _balances */\n      0x01\n        /* \"ex/token/Baby.sol\":20777:20801  _balances[address(this)] */\n      0x00\n        /* \"ex/token/Baby.sol\":20795:20799  this */\n      address\n        /* \"ex/token/Baby.sol\":20777:20801  _balances[address(this)] */\n      0xffffffffffffffffffffffffffffffffffffffff\n      and\n      0xffffffffffffffffffffffffffffffffffffffff\n      and\n      dup2\n      mstore\n      0x20\n      add\n      swap1\n      dup2\n      mstore\n      0x20\n      add\n      0x00\n      keccak256\n        /* \"ex/token/Baby.sol\":20777:20858  _balances[address(this)] = _balances[address(this)].add(amount.mul(10).div(1000)) */\n      dup2\n      swap1\n      sstore\n      pop\n        /* \"ex/token/Baby.sol\":20903:20907  this */\n      address\n        /* \"ex/token/Baby.sol\":20878:20935  Transfer(sender, address(this), amount.mul(10).div(1000)) */\n      0xffffffffffffffffffffffffffffffffffffffff\n      and\n        /* \"ex/token/Baby.sol\":20887:20893  sender */\n      dup6\n        /* \"ex/token/Baby.sol\":20878:20935  Transfer(sender, address(this), amount.mul(10).div(1000)) */\n      0xffffffffffffffffffffffffffffffffffffffff\n      and\n      0xddf252ad1be2c89b69c2b068fc378daa952ba7f163c4a11628f55a4df523b3ef\n        /* \"ex/token/Baby.sol\":20910:20934  amount.mul(10).div(1000) */\n      tag_275\n        /* \"ex/token/Baby.sol\":20929:20933  1000 */\n      0x03e8\n        /* \"ex/token/Baby.sol\":20910:20924  amount.mul(10) */\n      tag_276\n        /* \"ex/token/Baby.sol\":20921:20923  10 */\n      0x0a\n        /* \"ex/token/Baby.sol\":20910:20916  amount */\n      dup10\n        /* \"ex/token/Baby.sol\":20910:20920  amount.mul */\n      tag_272\n      swap1\n        /* \"ex/token/Baby.sol\":20910:20924  amount.mul(10) */\n      swap2\n      swap1\n      0xffffffff\n      and\n      jump\t// in\n    tag_276:\n        /* \"ex/token/Baby.sol\":20910:20928  amount.mul(10).div */\n      tag_273\n      swap1\n        /* \"ex/token/Baby.sol\":20910:20934  amount.mul(10).div(1000) */\n      swap2\n      swap1\n      0xffffffff\n      and\n      jump\t// in\n    tag_275:\n        /* \"ex/token/Baby.sol\":20878:20935  Transfer(sender, address(this), amount.mul(10).div(1000)) */\n      mload(0x40)\n      tag_277\n      swap2\n      swap1\n      tag_55\n      jump\t// in\n    tag_277:\n      mload(0x40)\n      dup1\n      swap2\n      sub\n      swap1\n      log3\n        /* \"ex/token/Baby.sol\":20960:20985  amount.div(1000).mul(990) */\n      tag_278\n        /* \"ex/token/Baby.sol\":20981:20984  990 */\n      0x03de\n        /* \"ex/token/Baby.sol\":20960:20976  amount.div(1000) */\n      tag_279\n        /* \"ex/token/Baby.sol\":20971:20975  1000 */\n      0x03e8\n        /* \"ex/token/Baby.sol\":20960:20966  amount */\n      dup7\n        /* \"ex/token/Baby.sol\":20960:20970  amount.div */\n      tag_273\n      swap1\n        /* \"ex/token/Baby.sol\":20960:20976  amount.div(1000) */\n      swap2\n      swap1\n      0xffffffff\n      and\n      jump\t// in\n    tag_279:\n        /* \"ex/token/Baby.sol\":20960:20980  amount.div(1000).mul */\n      tag_272\n      swap1\n        /* \"ex/token/Baby.sol\":20960:20985  amount.div(1000).mul(990) */\n      swap2\n      swap1\n      0xffffffff\n      and\n      jump\t// in\n    tag_278:\n        /* \"ex/token/Baby.sol\":20950:20985  _amount = amount.div(1000).mul(990) */\n      swap1\n      pop\n        /* \"ex/token/Baby.sol\":21006:21022  inSwapAndLiquify */\n      0x08\n      0x00\n      swap1\n      sload\n      swap1\n      0x0100\n      exp\n      swap1\n      div\n      0xff\n      and\n        /* \"ex/token/Baby.sol\":21005:21022  !inSwapAndLiquify */\n      iszero\n        /* \"ex/token/Baby.sol\":21005:21039  !inSwapAndLiquify && !DEXs[sender] */\n      dup1\n      iszero\n      tag_280\n      jumpi\n      pop\n        /* \"ex/token/Baby.sol\":21027:21031  DEXs */\n      0x07\n        /* \"ex/token/Baby.sol\":21027:21039  DEXs[sender] */\n      0x00\n        /* \"ex/token/Baby.sol\":21032:21038  sender */\n      dup7\n        /* \"ex/token/Baby.sol\":21027:21039  DEXs[sender] */\n      0xffffffffffffffffffffffffffffffffffffffff\n      and\n      0xffffffffffffffffffffffffffffffffffffffff\n      and\n      dup2\n      mstore\n      0x20\n      add\n      swap1\n      dup2\n      mstore\n      0x20\n      add\n      0x00\n      keccak256\n      0x00\n      swap1\n      sload\n      swap1\n      0x0100\n      exp\n      swap1\n      div\n      0xff\n      and\n        /* \"ex/token/Baby.sol\":21026:21039  !DEXs[sender] */\n      iszero\n        /* \"ex/token/Baby.sol\":21005:21039  !inSwapAndLiquify && !DEXs[sender] */\n    tag_280:\n        /* \"ex/token/Baby.sol\":21002:21241  if(!inSwapAndLiquify && !DEXs[sender]) {... */\n      iszero\n      tag_281\n      jumpi\n        /* \"ex/token/Baby.sol\":21060:21078  uint256 amountThis */\n      0x00\n        /* \"ex/token/Baby.sol\":21081:21105  balanceOf(address(this)) */\n      tag_282\n        /* \"ex/token/Baby.sol\":21099:21103  this */\n      address\n        /* \"ex/token/Baby.sol\":21081:21090  balanceOf */\n      tag_94\n        /* \"ex/token/Baby.sol\":21081:21105  balanceOf(address(this)) */\n      jump\t// in\n    tag_282:\n        /* \"ex/token/Baby.sol\":21060:21105  uint256 amountThis = balanceOf(address(this)) */\n      swap1\n      pop\n        /* \"ex/token/Baby.sol\":21140:21153  10 * 10 ** 18 */\n      0x8ac7230489e80000\n        /* \"ex/token/Baby.sol\":21127:21137  amountThis */\n      dup2\n        /* \"ex/token/Baby.sol\":21127:21153  amountThis > 10 * 10 ** 18 */\n      gt\n        /* \"ex/token/Baby.sol\":21124:21226  if(amountThis > 10 * 10 ** 18){... */\n      iszero\n      tag_283\n      jumpi\n        /* \"ex/token/Baby.sol\":21177:21206  swapTokensForUsdt(amountThis) */\n      tag_284\n        /* \"ex/token/Baby.sol\":21195:21205  amountThis */\n      dup2\n        /* \"ex/token/Baby.sol\":21177:21194  swapTokensForUsdt */\n      tag_132\n        /* \"ex/token/Baby.sol\":21177:21206  swapTokensForUsdt(amountThis) */\n      jump\t// in\n    tag_284:\n        /* \"ex/token/Baby.sol\":21124:21226  if(amountThis > 10 * 10 ** 18){... */\n    tag_283:\n        /* \"ex/token/Baby.sol\":21041:21241  {... */\n      pop\n        /* \"ex/token/Baby.sol\":21002:21241  if(!inSwapAndLiquify && !DEXs[sender]) {... */\n    tag_281:\n        /* \"ex/token/Baby.sol\":20599:21252  if ( ((DEXs[sender] && recipient != address(uniswapV2Router)) || DEXs[recipient]) &&... */\n    tag_268:\n        /* \"ex/token/Baby.sol\":21286:21311  senderBalance.sub(amount) */\n      tag_285\n        /* \"ex/token/Baby.sol\":21304:21310  amount */\n      dup4\n        /* \"ex/token/Baby.sol\":21286:21299  senderBalance */\n      dup4\n        /* \"ex/token/Baby.sol\":21286:21303  senderBalance.sub */\n      tag_286\n      swap1\n        /* \"ex/token/Baby.sol\":21286:21311  senderBalance.sub(amount) */\n      swap2\n      swap1\n      0xffffffff\n      and\n      jump\t// in\n    tag_285:\n        /* \"ex/token/Baby.sol\":21266:21275  _balances */\n      0x01\n        /* \"ex/token/Baby.sol\":21266:21283  _balances[sender] */\n      0x00\n        /* \"ex/token/Baby.sol\":21276:21282  sender */\n      dup8\n        /* \"ex/token/Baby.sol\":21266:21283  _balances[sender] */\n      0xffffffffffffffffffffffffffffffffffffffff\n      and\n      0xffffffffffffffffffffffffffffffffffffffff\n      and\n      dup2\n      mstore\n      0x20\n      add\n      swap1\n      dup2\n      mstore\n      0x20\n      add\n      0x00\n      keccak256\n        /* \"ex/token/Baby.sol\":21266:21311  _balances[sender] = senderBalance.sub(amount) */\n      dup2\n      swap1\n      sstore\n      pop\n        /* \"ex/token/Baby.sol\":21345:21378  _balances[recipient].add(_amount) */\n      tag_287\n        /* \"ex/token/Baby.sol\":21370:21377  _amount */\n      dup2\n        /* \"ex/token/Baby.sol\":21345:21354  _balances */\n      0x01\n        /* \"ex/token/Baby.sol\":21345:21365  _balances[recipient] */\n      0x00\n        /* \"ex/token/Baby.sol\":21355:21364  recipient */\n      dup8\n        /* \"ex/token/Baby.sol\":21345:21365  _balances[recipient] */\n      0xffffffffffffffffffffffffffffffffffffffff\n      and\n      0xffffffffffffffffffffffffffffffffffffffff\n      and\n      dup2\n      mstore\n      0x20\n      add\n      swap1\n      dup2\n      mstore\n      0x20\n      add\n      0x00\n      keccak256\n      sload\n        /* \"ex/token/Baby.sol\":21345:21369  _balances[recipient].add */\n      tag_274\n      swap1\n        /* \"ex/token/Baby.sol\":21345:21378  _balances[recipient].add(_amount) */\n      swap2\n      swap1\n      0xffffffff\n      and\n      jump\t// in\n    tag_287:\n        /* \"ex/token/Baby.sol\":21322:21331  _balances */\n      0x01\n        /* \"ex/token/Baby.sol\":21322:21342  _balances[recipient] */\n      0x00\n        /* \"ex/token/Baby.sol\":21332:21341  recipient */\n      dup7\n        /* \"ex/token/Baby.sol\":21322:21342  _balances[recipient] */\n      0xffffffffffffffffffffffffffffffffffffffff\n      and\n      0xffffffffffffffffffffffffffffffffffffffff\n      and\n      dup2\n      mstore\n      0x20\n      add\n      swap1\n      dup2\n      mstore\n      0x20\n      add\n      0x00\n      keccak256\n        /* \"ex/token/Baby.sol\":21322:21378  _balances[recipient] = _balances[recipient].add(_amount) */\n      dup2\n      swap1\n      sstore\n      pop\n        /* \"ex/token/Baby.sol\":21411:21420  recipient */\n      dup4\n        /* \"ex/token/Baby.sol\":21394:21430  Transfer(sender, recipient, _amount) */\n      0xffffffffffffffffffffffffffffffffffffffff\n      and\n        /* \"ex/token/Baby.sol\":21403:21409  sender */\n      dup6\n        /* \"ex/token/Baby.sol\":21394:21430  Transfer(sender, recipient, _amount) */\n      0xffffffffffffffffffffffffffffffffffffffff\n      and\n      0xddf252ad1be2c89b69c2b068fc378daa952ba7f163c4a11628f55a4df523b3ef\n        /* \"ex/token/Baby.sol\":21422:21429  _amount */\n      dup4\n        /* \"ex/token/Baby.sol\":21394:21430  Transfer(sender, recipient, _amount) */\n      mload(0x40)\n      tag_288\n      swap2\n      swap1\n      tag_55\n      jump\t// in\n    tag_288:\n      mload(0x40)\n      dup1\n      swap2\n      sub\n      swap1\n      log3\n        /* \"ex/token/Baby.sol\":20259:21438  {... */\n      pop\n      pop\n        /* \"ex/token/Baby.sol\":20138:21438  function _transfer(... */\n      pop\n      pop\n      pop\n      jump\t// out\n        /* \"ex/token/Baby.sol\":21652:22112  function _burn(address account, uint256 amount) internal virtual {... */\n    tag_178:\n        /* \"ex/token/Baby.sol\":21755:21756  0 */\n      0x00\n        /* \"ex/token/Baby.sol\":21736:21757  account != address(0) */\n      0xffffffffffffffffffffffffffffffffffffffff\n      and\n        /* \"ex/token/Baby.sol\":21736:21743  account */\n      dup3\n        /* \"ex/token/Baby.sol\":21736:21757  account != address(0) */\n      0xffffffffffffffffffffffffffffffffffffffff\n      and\n      sub\n        /* \"ex/token/Baby.sol\":21728:21793  require(account != address(0), \"BEE: burn from the zero address\") */\n      tag_290\n      jumpi\n      mload(0x40)\n      0x08c379a000000000000000000000000000000000000000000000000000000000\n      dup2\n      mstore\n      0x04\n      add\n      tag_291\n      swap1\n      tag_292\n      jump\t// in\n    tag_291:\n      mload(0x40)\n      dup1\n      swap2\n      sub\n      swap1\n      revert\n    tag_290:\n        /* \"ex/token/Baby.sol\":21804:21826  uint256 accountBalance */\n      0x00\n        /* \"ex/token/Baby.sol\":21829:21838  _balances */\n      0x01\n        /* \"ex/token/Baby.sol\":21829:21847  _balances[account] */\n      0x00\n        /* \"ex/token/Baby.sol\":21839:21846  account */\n      dup5\n        /* \"ex/token/Baby.sol\":21829:21847  _balances[account] */\n      0xffffffffffffffffffffffffffffffffffffffff\n      and\n      0xffffffffffffffffffffffffffffffffffffffff\n      and\n      dup2\n      mstore\n      0x20\n      add\n      swap1\n      dup2\n      mstore\n      0x20\n      add\n      0x00\n      keccak256\n      sload\n        /* \"ex/token/Baby.sol\":21804:21847  uint256 accountBalance = _balances[account] */\n      swap1\n      pop\n        /* \"ex/token/Baby.sol\":21884:21890  amount */\n      dup2\n        /* \"ex/token/Baby.sol\":21866:21880  accountBalance */\n      dup2\n        /* \"ex/token/Baby.sol\":21866:21890  accountBalance >= amount */\n      lt\n      iszero\n        /* \"ex/token/Baby.sol\":21858:21927  require(accountBalance >= amount, \"BEE: burn amount exceeds balance\") */\n      tag_293\n      jumpi\n      mload(0x40)\n      0x08c379a000000000000000000000000000000000000000000000000000000000\n      dup2\n      mstore\n      0x04\n      add\n      tag_294\n      swap1\n      tag_295\n      jump\t// in\n    tag_294:\n      mload(0x40)\n      dup1\n      swap2\n      sub\n      swap1\n      revert\n    tag_293:\n        /* \"ex/token/Baby.sol\":22001:22007  amount */\n      dup2\n        /* \"ex/token/Baby.sol\":21984:21998  accountBalance */\n      dup2\n        /* \"ex/token/Baby.sol\":21984:22007  accountBalance - amount */\n      sub\n        /* \"ex/token/Baby.sol\":21963:21972  _balances */\n      0x01\n        /* \"ex/token/Baby.sol\":21963:21981  _balances[account] */\n      0x00\n        /* \"ex/token/Baby.sol\":21973:21980  account */\n      dup6\n        /* \"ex/token/Baby.sol\":21963:21981  _balances[account] */\n      0xffffffffffffffffffffffffffffffffffffffff\n      and\n      0xffffffffffffffffffffffffffffffffffffffff\n      and\n      dup2\n      mstore\n      0x20\n      add\n      swap1\n      dup2\n      mstore\n      0x20\n      add\n      0x00\n      keccak256\n        /* \"ex/token/Baby.sol\":21963:22007  _balances[account] = accountBalance - amount */\n      dup2\n      swap1\n      sstore\n      pop\n        /* \"ex/token/Baby.sol\":22045:22051  amount */\n      dup2\n        /* \"ex/token/Baby.sol\":22029:22041  _totalSupply */\n      0x03\n      0x00\n        /* \"ex/token/Baby.sol\":22029:22051  _totalSupply -= amount */\n      dup3\n      dup3\n      sload\n      tag_296\n      swap2\n      swap1\n      tag_297\n      jump\t// in\n    tag_296:\n      swap3\n      pop\n      pop\n      dup2\n      swap1\n      sstore\n      pop\n        /* \"ex/token/Baby.sol\":22093:22094  0 */\n      0x00\n        /* \"ex/token/Baby.sol\":22067:22104  Transfer(account, address(0), amount) */\n      0xffffffffffffffffffffffffffffffffffffffff\n      and\n        /* \"ex/token/Baby.sol\":22076:22083  account */\n      dup4\n        /* \"ex/token/Baby.sol\":22067:22104  Transfer(account, address(0), amount) */\n      0xffffffffffffffffffffffffffffffffffffffff\n      and\n      0xddf252ad1be2c89b69c2b068fc378daa952ba7f163c4a11628f55a4df523b3ef\n        /* \"ex/token/Baby.sol\":22097:22103  amount */\n      dup5\n        /* \"ex/token/Baby.sol\":22067:22104  Transfer(account, address(0), amount) */\n      mload(0x40)\n      tag_298\n      swap2\n      swap1\n      tag_55\n      jump\t// in\n    tag_298:\n      mload(0x40)\n      dup1\n      swap2\n      sub\n      swap1\n      log3\n        /* \"ex/token/Baby.sol\":21717:22112  {... */\n      pop\n        /* \"ex/token/Baby.sol\":21652:22112  function _burn(address account, uint256 amount) internal virtual {... */\n      pop\n      pop\n      jump\t// out\n        /* \"ex/token/Baby.sol\":4440:4631  function _transferOwnership(address newOwner) internal virtual {... */\n    tag_196:\n        /* \"ex/token/Baby.sol\":4514:4530  address oldOwner */\n      0x00\n        /* \"ex/token/Baby.sol\":4533:4539  _owner */\n      dup1\n      0x00\n      swap1\n      sload\n      swap1\n      0x0100\n      exp\n      swap1\n      div\n      0xffffffffffffffffffffffffffffffffffffffff\n      and\n        /* \"ex/token/Baby.sol\":4514:4539  address oldOwner = _owner */\n      swap1\n      pop\n        /* \"ex/token/Baby.sol\":4559:4567  newOwner */\n      dup2\n        /* \"ex/token/Baby.sol\":4550:4556  _owner */\n      0x00\n      dup1\n        /* \"ex/token/Baby.sol\":4550:4567  _owner = newOwner */\n      0x0100\n      exp\n      dup2\n      sload\n      dup2\n      0xffffffffffffffffffffffffffffffffffffffff\n      mul\n      not\n      and\n      swap1\n      dup4\n      0xffffffffffffffffffffffffffffffffffffffff\n      and\n      mul\n      or\n      swap1\n      sstore\n      pop\n        /* \"ex/token/Baby.sol\":4614:4622  newOwner */\n      dup2\n        /* \"ex/token/Baby.sol\":4583:4623  OwnershipTransferred(oldOwner, newOwner) */\n      0xffffffffffffffffffffffffffffffffffffffff\n      and\n        /* \"ex/token/Baby.sol\":4604:4612  oldOwner */\n      dup2\n        /* \"ex/token/Baby.sol\":4583:4623  OwnershipTransferred(oldOwner, newOwner) */\n      0xffffffffffffffffffffffffffffffffffffffff\n      and\n      0x8be0079c531659141344cd1fd0a4f28419497f9722a3daafe3b4186f6b6457e0\n      mload(0x40)\n      mload(0x40)\n      dup1\n      swap2\n      sub\n      swap1\n      log3\n        /* \"ex/token/Baby.sol\":4503:4631  {... */\n      pop\n        /* \"ex/token/Baby.sol\":4440:4631  function _transferOwnership(address newOwner) internal virtual {... */\n      pop\n      jump\t// out\n        /* \"ex/token/Baby.sol\":1609:1855  function mul(uint256 a, uint256 b) internal pure returns (uint256) {... */\n    tag_272:\n        /* \"ex/token/Baby.sol\":1667:1674  uint256 */\n      0x00\n        /* \"ex/token/Baby.sol\":1696:1697  0 */\n      dup1\n        /* \"ex/token/Baby.sol\":1691:1692  a */\n      dup4\n        /* \"ex/token/Baby.sol\":1691:1697  a == 0 */\n      sub\n        /* \"ex/token/Baby.sol\":1687:1734  if (a == 0) {... */\n      tag_301\n      jumpi\n        /* \"ex/token/Baby.sol\":1721:1722  0 */\n      0x00\n        /* \"ex/token/Baby.sol\":1714:1722  return 0 */\n      swap1\n      pop\n      jump(tag_300)\n        /* \"ex/token/Baby.sol\":1687:1734  if (a == 0) {... */\n    tag_301:\n        /* \"ex/token/Baby.sol\":1744:1753  uint256 c */\n      0x00\n        /* \"ex/token/Baby.sol\":1760:1761  b */\n      dup3\n        /* \"ex/token/Baby.sol\":1756:1757  a */\n      dup5\n        /* \"ex/token/Baby.sol\":1756:1761  a * b */\n      tag_302\n      swap2\n      swap1\n      tag_303\n      jump\t// in\n    tag_302:\n        /* \"ex/token/Baby.sol\":1744:1761  uint256 c = a * b */\n      swap1\n      pop\n        /* \"ex/token/Baby.sol\":1789:1790  b */\n      dup3\n        /* \"ex/token/Baby.sol\":1784:1785  a */\n      dup5\n        /* \"ex/token/Baby.sol\":1780:1781  c */\n      dup3\n        /* \"ex/token/Baby.sol\":1780:1785  c / a */\n      tag_304\n      swap2\n      swap1\n      tag_305\n      jump\t// in\n    tag_304:\n        /* \"ex/token/Baby.sol\":1780:1790  c / a == b */\n      eq\n        /* \"ex/token/Baby.sol\":1772:1828  require(c / a == b, \"SafeMath: multiplication overflow\") */\n      tag_306\n      jumpi\n      mload(0x40)\n      0x08c379a000000000000000000000000000000000000000000000000000000000\n      dup2\n      mstore\n      0x04\n      add\n      tag_307\n      swap1\n      tag_308\n      jump\t// in\n    tag_307:\n      mload(0x40)\n      dup1\n      swap2\n      sub\n      swap1\n      revert\n    tag_306:\n        /* \"ex/token/Baby.sol\":1846:1847  c */\n      dup1\n        /* \"ex/token/Baby.sol\":1839:1847  return c */\n      swap2\n      pop\n      pop\n        /* \"ex/token/Baby.sol\":1609:1855  function mul(uint256 a, uint256 b) internal pure returns (uint256) {... */\n    tag_300:\n      swap3\n      swap2\n      pop\n      pop\n      jump\t// out\n        /* \"ex/token/Baby.sol\":1861:1993  function div(uint256 a, uint256 b) internal pure returns (uint256) {... */\n    tag_273:\n        /* \"ex/token/Baby.sol\":1919:1926  uint256 */\n      0x00\n        /* \"ex/token/Baby.sol\":1946:1985  div(a, b, \"SafeMath: division by zero\") */\n      tag_310\n        /* \"ex/token/Baby.sol\":1950:1951  a */\n      dup4\n        /* \"ex/token/Baby.sol\":1953:1954  b */\n      dup4\n        /* \"ex/token/Baby.sol\":1946:1985  div(a, b, \"SafeMath: division by zero\") */\n      mload(0x40)\n      dup1\n      0x40\n      add\n      0x40\n      mstore\n      dup1\n      0x1a\n      dup2\n      mstore\n      0x20\n      add\n      0x536166654d6174683a206469766973696f6e206279207a65726f000000000000\n      dup2\n      mstore\n      pop\n        /* \"ex/token/Baby.sol\":1946:1949  div */\n      tag_311\n        /* \"ex/token/Baby.sol\":1946:1985  div(a, b, \"SafeMath: division by zero\") */\n      jump\t// in\n    tag_310:\n        /* \"ex/token/Baby.sol\":1939:1985  return div(a, b, \"SafeMath: division by zero\") */\n      swap1\n      pop\n        /* \"ex/token/Baby.sol\":1861:1993  function div(uint256 a, uint256 b) internal pure returns (uint256) {... */\n      swap3\n      swap2\n      pop\n      pop\n      jump\t// out\n        /* \"ex/token/Baby.sol\":1086:1265  function add(uint256 a, uint256 b) internal pure returns (uint256) {... */\n    tag_274:\n        /* \"ex/token/Baby.sol\":1144:1151  uint256 */\n      0x00\n        /* \"ex/token/Baby.sol\":1164:1173  uint256 c */\n      dup1\n        /* \"ex/token/Baby.sol\":1180:1181  b */\n      dup3\n        /* \"ex/token/Baby.sol\":1176:1177  a */\n      dup5\n        /* \"ex/token/Baby.sol\":1176:1181  a + b */\n      tag_313\n      swap2\n      swap1\n      tag_174\n      jump\t// in\n    tag_313:\n        /* \"ex/token/Baby.sol\":1164:1181  uint256 c = a + b */\n      swap1\n      pop\n        /* \"ex/token/Baby.sol\":1205:1206  a */\n      dup4\n        /* \"ex/token/Baby.sol\":1200:1201  c */\n      dup2\n        /* \"ex/token/Baby.sol\":1200:1206  c >= a */\n      lt\n      iszero\n        /* \"ex/token/Baby.sol\":1192:1238  require(c >= a, \"SafeMath: addition overflow\") */\n      tag_314\n      jumpi\n      mload(0x40)\n      0x08c379a000000000000000000000000000000000000000000000000000000000\n      dup2\n      mstore\n      0x04\n      add\n      tag_315\n      swap1\n      tag_316\n      jump\t// in\n    tag_315:\n      mload(0x40)\n      dup1\n      swap2\n      sub\n      swap1\n      revert\n    tag_314:\n        /* \"ex/token/Baby.sol\":1256:1257  c */\n      dup1\n        /* \"ex/token/Baby.sol\":1249:1257  return c */\n      swap2\n      pop\n      pop\n        /* \"ex/token/Baby.sol\":1086:1265  function add(uint256 a, uint256 b) internal pure returns (uint256) {... */\n      swap3\n      swap2\n      pop\n      pop\n      jump\t// out\n        /* \"ex/token/Baby.sol\":1271:1407  function sub(uint256 a, uint256 b) internal pure returns (uint256) {... */\n    tag_286:\n        /* \"ex/token/Baby.sol\":1329:1336  uint256 */\n      0x00\n        /* \"ex/token/Baby.sol\":1356:1399  sub(a, b, \"SafeMath: subtraction overflow\") */\n      tag_318\n        /* \"ex/token/Baby.sol\":1360:1361  a */\n      dup4\n        /* \"ex/token/Baby.sol\":1363:1364  b */\n      dup4\n        /* \"ex/token/Baby.sol\":1356:1399  sub(a, b, \"SafeMath: subtraction overflow\") */\n      mload(0x40)\n      dup1\n      0x40\n      add\n      0x40\n      mstore\n      dup1\n      0x1e\n      dup2\n      mstore\n      0x20\n      add\n      0x536166654d6174683a207375627472616374696f6e206f766572666c6f770000\n      dup2\n      mstore\n      pop\n        /* \"ex/token/Baby.sol\":1356:1359  sub */\n      tag_319\n        /* \"ex/token/Baby.sol\":1356:1399  sub(a, b, \"SafeMath: subtraction overflow\") */\n      jump\t// in\n    tag_318:\n        /* \"ex/token/Baby.sol\":1349:1399  return sub(a, b, \"SafeMath: subtraction overflow\") */\n      swap1\n      pop\n        /* \"ex/token/Baby.sol\":1271:1407  function sub(uint256 a, uint256 b) internal pure returns (uint256) {... */\n      swap3\n      swap2\n      pop\n      pop\n      jump\t// out\n        /* \"ex/token/Baby.sol\":1997:2184  function div(uint256 a, uint256 b, string memory errorMessage) internal pure returns (uint256) {... */\n    tag_311:\n        /* \"ex/token/Baby.sol\":2083:2090  uint256 */\n      0x00\n        /* \"ex/token/Baby.sol\":2115:2116  0 */\n      dup1\n        /* \"ex/token/Baby.sol\":2111:2112  b */\n      dup4\n        /* \"ex/token/Baby.sol\":2111:2116  b > 0 */\n      gt\n        /* \"ex/token/Baby.sol\":2118:2130  errorMessage */\n      dup3\n        /* \"ex/token/Baby.sol\":2103:2131  require(b > 0, errorMessage) */\n      swap1\n      tag_321\n      jumpi\n      mload(0x40)\n      0x08c379a000000000000000000000000000000000000000000000000000000000\n      dup2\n      mstore\n      0x04\n      add\n      tag_322\n      swap2\n      swap1\n      tag_38\n      jump\t// in\n    tag_322:\n      mload(0x40)\n      dup1\n      swap2\n      sub\n      swap1\n      revert\n    tag_321:\n      pop\n        /* \"ex/token/Baby.sol\":2142:2151  uint256 c */\n      0x00\n        /* \"ex/token/Baby.sol\":2158:2159  b */\n      dup4\n        /* \"ex/token/Baby.sol\":2154:2155  a */\n      dup6\n        /* \"ex/token/Baby.sol\":2154:2159  a / b */\n      tag_323\n      swap2\n      swap1\n      tag_305\n      jump\t// in\n    tag_323:\n        /* \"ex/token/Baby.sol\":2142:2159  uint256 c = a / b */\n      swap1\n      pop\n        /* \"ex/token/Baby.sol\":2175:2176  c */\n      dup1\n        /* \"ex/token/Baby.sol\":2168:2176  return c */\n      swap2\n      pop\n      pop\n        /* \"ex/token/Baby.sol\":1997:2184  function div(uint256 a, uint256 b, string memory errorMessage) internal pure returns (uint256) {... */\n      swap4\n      swap3\n      pop\n      pop\n      pop\n      jump\t// out\n        /* \"ex/token/Baby.sol\":1413:1603  function sub(uint256 a, uint256 b, string memory errorMessage) internal pure returns (uint256) {... */\n    tag_319:\n        /* \"ex/token/Baby.sol\":1499:1506  uint256 */\n      0x00\n        /* \"ex/token/Baby.sol\":1532:1533  a */\n      dup4\n        /* \"ex/token/Baby.sol\":1527:1528  b */\n      dup4\n        /* \"ex/token/Baby.sol\":1527:1533  b <= a */\n      gt\n      iszero\n        /* \"ex/token/Baby.sol\":1535:1547  errorMessage */\n      dup3\n        /* \"ex/token/Baby.sol\":1519:1548  require(b <= a, errorMessage) */\n      swap1\n      tag_325\n      jumpi\n      mload(0x40)\n      0x08c379a000000000000000000000000000000000000000000000000000000000\n      dup2\n      mstore\n      0x04\n      add\n      tag_326\n      swap2\n      swap1\n      tag_38\n      jump\t// in\n    tag_326:\n      mload(0x40)\n      dup1\n      swap2\n      sub\n      swap1\n      revert\n    tag_325:\n      pop\n        /* \"ex/token/Baby.sol\":1559:1568  uint256 c */\n      0x00\n        /* \"ex/token/Baby.sol\":1575:1576  b */\n      dup4\n        /* \"ex/token/Baby.sol\":1571:1572  a */\n      dup6\n        /* \"ex/token/Baby.sol\":1571:1576  a - b */\n      tag_327\n      swap2\n      swap1\n      tag_297\n      jump\t// in\n    tag_327:\n        /* \"ex/token/Baby.sol\":1559:1576  uint256 c = a - b */\n      swap1\n      pop\n        /* \"ex/token/Baby.sol\":1594:1595  c */\n      dup1\n        /* \"ex/token/Baby.sol\":1587:1595  return c */\n      swap2\n      pop\n      pop\n        /* \"ex/token/Baby.sol\":1413:1603  function sub(uint256 a, uint256 b, string memory errorMessage) internal pure returns (uint256) {... */\n      swap4\n      swap3\n      pop\n      pop\n      pop\n      jump\t// out\n        /* \"#utility.yul\":7:106   */\n    tag_328:\n        /* \"#utility.yul\":59:65   */\n      0x00\n        /* \"#utility.yul\":93:98   */\n      dup2\n        /* \"#utility.yul\":87:99   */\n      mload\n        /* \"#utility.yul\":77:99   */\n      swap1\n      pop\n        /* \"#utility.yul\":7:106   */\n      swap2\n      swap1\n      pop\n      jump\t// out\n        /* \"#utility.yul\":112:281   */\n    tag_329:\n        /* \"#utility.yul\":196:207   */\n      0x00\n        /* \"#utility.yul\":230:236   */\n      dup3\n        /* \"#utility.yul\":225:228   */\n      dup3\n        /* \"#utility.yul\":218:237   */\n      mstore\n        /* \"#utility.yul\":270:274   */\n      0x20\n        /* \"#utility.yul\":265:268   */\n      dup3\n        /* \"#utility.yul\":261:275   */\n      add\n        /* \"#utility.yul\":246:275   */\n      swap1\n      pop\n        /* \"#utility.yul\":112:281   */\n      swap3\n      swap2\n      pop\n      pop\n      jump\t// out\n        /* \"#utility.yul\":287:533   */\n    tag_330:\n        /* \"#utility.yul\":368:369   */\n      0x00\n        /* \"#utility.yul\":378:491   */\n    tag_392:\n        /* \"#utility.yul\":392:398   */\n      dup4\n        /* \"#utility.yul\":389:390   */\n      dup2\n        /* \"#utility.yul\":386:399   */\n      lt\n        /* \"#utility.yul\":378:491   */\n      iszero\n      tag_394\n      jumpi\n        /* \"#utility.yul\":477:478   */\n      dup1\n        /* \"#utility.yul\":472:475   */\n      dup3\n        /* \"#utility.yul\":468:479   */\n      add\n        /* \"#utility.yul\":462:480   */\n      mload\n        /* \"#utility.yul\":458:459   */\n      dup2\n        /* \"#utility.yul\":453:456   */\n      dup5\n        /* \"#utility.yul\":449:460   */\n      add\n        /* \"#utility.yul\":442:481   */\n      mstore\n        /* \"#utility.yul\":414:416   */\n      0x20\n        /* \"#utility.yul\":411:412   */\n      dup2\n        /* \"#utility.yul\":407:417   */\n      add\n        /* \"#utility.yul\":402:417   */\n      swap1\n      pop\n        /* \"#utility.yul\":378:491   */\n      jump(tag_392)\n    tag_394:\n        /* \"#utility.yul\":525:526   */\n      0x00\n        /* \"#utility.yul\":516:522   */\n      dup5\n        /* \"#utility.yul\":511:514   */\n      dup5\n        /* \"#utility.yul\":507:523   */\n      add\n        /* \"#utility.yul\":500:527   */\n      mstore\n        /* \"#utility.yul\":349:533   */\n      pop\n        /* \"#utility.yul\":287:533   */\n      pop\n      pop\n      pop\n      jump\t// out\n        /* \"#utility.yul\":539:641   */\n    tag_331:\n        /* \"#utility.yul\":580:586   */\n      0x00\n        /* \"#utility.yul\":631:633   */\n      0x1f\n        /* \"#utility.yul\":627:634   */\n      not\n        /* \"#utility.yul\":622:624   */\n      0x1f\n        /* \"#utility.yul\":615:620   */\n      dup4\n        /* \"#utility.yul\":611:625   */\n      add\n        /* \"#utility.yul\":607:635   */\n      and\n        /* \"#utility.yul\":597:635   */\n      swap1\n      pop\n        /* \"#utility.yul\":539:641   */\n      swap2\n      swap1\n      pop\n      jump\t// out\n        /* \"#utility.yul\":647:1024   */\n    tag_332:\n        /* \"#utility.yul\":735:738   */\n      0x00\n        /* \"#utility.yul\":763:802   */\n      tag_397\n        /* \"#utility.yul\":796:801   */\n      dup3\n        /* \"#utility.yul\":763:802   */\n      tag_328\n      jump\t// in\n    tag_397:\n        /* \"#utility.yul\":818:889   */\n      tag_398\n        /* \"#utility.yul\":882:888   */\n      dup2\n        /* \"#utility.yul\":877:880   */\n      dup6\n        /* \"#utility.yul\":818:889   */\n      tag_329\n      jump\t// in\n    tag_398:\n        /* \"#utility.yul\":811:889   */\n      swap4\n      pop\n        /* \"#utility.yul\":898:963   */\n      tag_399\n        /* \"#utility.yul\":956:962   */\n      dup2\n        /* \"#utility.yul\":951:954   */\n      dup6\n        /* \"#utility.yul\":944:948   */\n      0x20\n        /* \"#utility.yul\":937:942   */\n      dup7\n        /* \"#utility.yul\":933:949   */\n      add\n        /* \"#utility.yul\":898:963   */\n      tag_330\n      jump\t// in\n    tag_399:\n        /* \"#utility.yul\":988:1017   */\n      tag_400\n        /* \"#utility.yul\":1010:1016   */\n      dup2\n        /* \"#utility.yul\":988:1017   */\n      tag_331\n      jump\t// in\n    tag_400:\n        /* \"#utility.yul\":983:986   */\n      dup5\n        /* \"#utility.yul\":979:1018   */\n      add\n        /* \"#utility.yul\":972:1018   */\n      swap2\n      pop\n        /* \"#utility.yul\":739:1024   */\n      pop\n        /* \"#utility.yul\":647:1024   */\n      swap3\n      swap2\n      pop\n      pop\n      jump\t// out\n        /* \"#utility.yul\":1030:1343   */\n    tag_38:\n        /* \"#utility.yul\":1143:1147   */\n      0x00\n        /* \"#utility.yul\":1181:1183   */\n      0x20\n        /* \"#utility.yul\":1170:1179   */\n      dup3\n        /* \"#utility.yul\":1166:1184   */\n      add\n        /* \"#utility.yul\":1158:1184   */\n      swap1\n      pop\n        /* \"#utility.yul\":1230:1239   */\n      dup2\n        /* \"#utility.yul\":1224:1228   */\n      dup2\n        /* \"#utility.yul\":1220:1240   */\n      sub\n        /* \"#utility.yul\":1216:1217   */\n      0x00\n        /* \"#utility.yul\":1205:1214   */\n      dup4\n        /* \"#utility.yul\":1201:1218   */\n      add\n        /* \"#utility.yul\":1194:1241   */\n      mstore\n        /* \"#utility.yul\":1258:1336   */\n      tag_402\n        /* \"#utility.yul\":1331:1335   */\n      dup2\n        /* \"#utility.yul\":1322:1328   */\n      dup5\n        /* \"#utility.yul\":1258:1336   */\n      tag_332\n      jump\t// in\n    tag_402:\n        /* \"#utility.yul\":1250:1336   */\n      swap1\n      pop\n        /* \"#utility.yul\":1030:1343   */\n      swap3\n      swap2\n      pop\n      pop\n      jump\t// out\n        /* \"#utility.yul\":1430:1547   */\n    tag_334:\n        /* \"#utility.yul\":1539:1540   */\n      0x00\n        /* \"#utility.yul\":1536:1537   */\n      dup1\n        /* \"#utility.yul\":1529:1541   */\n      revert\n        /* \"#utility.yul\":1676:1802   */\n    tag_336:\n        /* \"#utility.yul\":1713:1720   */\n      0x00\n        /* \"#utility.yul\":1753:1795   */\n      0xffffffffffffffffffffffffffffffffffffffff\n        /* \"#utility.yul\":1746:1751   */\n      dup3\n        /* \"#utility.yul\":1742:1796   */\n      and\n        /* \"#utility.yul\":1731:1796   */\n      swap1\n      pop\n        /* \"#utility.yul\":1676:1802   */\n      swap2\n      swap1\n      pop\n      jump\t// out\n        /* \"#utility.yul\":1808:1904   */\n    tag_337:\n        /* \"#utility.yul\":1845:1852   */\n      0x00\n        /* \"#utility.yul\":1874:1898   */\n      tag_408\n        /* \"#utility.yul\":1892:1897   */\n      dup3\n        /* \"#utility.yul\":1874:1898   */\n      tag_336\n      jump\t// in\n    tag_408:\n        /* \"#utility.yul\":1863:1898   */\n      swap1\n      pop\n        /* \"#utility.yul\":1808:1904   */\n      swap2\n      swap1\n      pop\n      jump\t// out\n        /* \"#utility.yul\":1910:2032   */\n    tag_338:\n        /* \"#utility.yul\":1983:2007   */\n      tag_410\n        /* \"#utility.yul\":2001:2006   */\n      dup2\n        /* \"#utility.yul\":1983:2007   */\n      tag_337\n      jump\t// in\n    tag_410:\n        /* \"#utility.yul\":1976:1981   */\n      dup2\n        /* \"#utility.yul\":1973:2008   */\n      eq\n        /* \"#utility.yul\":1963:2026   */\n      tag_411\n      jumpi\n        /* \"#utility.yul\":2022:2023   */\n      0x00\n        /* \"#utility.yul\":2019:2020   */\n      dup1\n        /* \"#utility.yul\":2012:2024   */\n      revert\n        /* \"#utility.yul\":1963:2026   */\n    tag_411:\n        /* \"#utility.yul\":1910:2032   */\n      pop\n      jump\t// out\n        /* \"#utility.yul\":2038:2177   */\n    tag_339:\n        /* \"#utility.yul\":2084:2089   */\n      0x00\n        /* \"#utility.yul\":2122:2128   */\n      dup2\n        /* \"#utility.yul\":2109:2129   */\n      calldataload\n        /* \"#utility.yul\":2100:2129   */\n      swap1\n      pop\n        /* \"#utility.yul\":2138:2171   */\n      tag_413\n        /* \"#utility.yul\":2165:2170   */\n      dup2\n        /* \"#utility.yul\":2138:2171   */\n      tag_338\n      jump\t// in\n    tag_413:\n        /* \"#utility.yul\":2038:2177   */\n      swap3\n      swap2\n      pop\n      pop\n      jump\t// out\n        /* \"#utility.yul\":2183:2260   */\n    tag_340:\n        /* \"#utility.yul\":2220:2227   */\n      0x00\n        /* \"#utility.yul\":2249:2254   */\n      dup2\n        /* \"#utility.yul\":2238:2254   */\n      swap1\n      pop\n        /* \"#utility.yul\":2183:2260   */\n      swap2\n      swap1\n      pop\n      jump\t// out\n        /* \"#utility.yul\":2266:2388   */\n    tag_341:\n        /* \"#utility.yul\":2339:2363   */\n      tag_416\n        /* \"#utility.yul\":2357:2362   */\n      dup2\n        /* \"#utility.yul\":2339:2363   */\n      tag_340\n      jump\t// in\n    tag_416:\n        /* \"#utility.yul\":2332:2337   */\n      dup2\n        /* \"#utility.yul\":2329:2364   */\n      eq\n        /* \"#utility.yul\":2319:2382   */\n      tag_417\n      jumpi\n        /* \"#utility.yul\":2378:2379   */\n      0x00\n        /* \"#utility.yul\":2375:2376   */\n      dup1\n        /* \"#utility.yul\":2368:2380   */\n      revert\n        /* \"#utility.yul\":2319:2382   */\n    tag_417:\n        /* \"#utility.yul\":2266:2388   */\n      pop\n      jump\t// out\n        /* \"#utility.yul\":2394:2533   */\n    tag_342:\n        /* \"#utility.yul\":2440:2445   */\n      0x00\n        /* \"#utility.yul\":2478:2484   */\n      dup2\n        /* \"#utility.yul\":2465:2485   */\n      calldataload\n        /* \"#utility.yul\":2456:2485   */\n      swap1\n      pop\n        /* \"#utility.yul\":2494:2527   */\n      tag_419\n        /* \"#utility.yul\":2521:2526   */\n      dup2\n        /* \"#utility.yul\":2494:2527   */\n      tag_341\n      jump\t// in\n    tag_419:\n        /* \"#utility.yul\":2394:2533   */\n      swap3\n      swap2\n      pop\n      pop\n      jump\t// out\n        /* \"#utility.yul\":2539:3013   */\n    tag_42:\n        /* \"#utility.yul\":2607:2613   */\n      0x00\n        /* \"#utility.yul\":2615:2621   */\n      dup1\n        /* \"#utility.yul\":2664:2666   */\n      0x40\n        /* \"#utility.yul\":2652:2661   */\n      dup4\n        /* \"#utility.yul\":2643:2650   */\n      dup6\n        /* \"#utility.yul\":2639:2662   */\n      sub\n        /* \"#utility.yul\":2635:2667   */\n      slt\n        /* \"#utility.yul\":2632:2751   */\n      iszero\n      tag_421\n      jumpi\n        /* \"#utility.yul\":2670:2749   */\n      tag_422\n      tag_334\n      jump\t// in\n    tag_422:\n        /* \"#utility.yul\":2632:2751   */\n    tag_421:\n        /* \"#utility.yul\":2790:2791   */\n      0x00\n        /* \"#utility.yul\":2815:2868   */\n      tag_423\n        /* \"#utility.yul\":2860:2867   */\n      dup6\n        /* \"#utility.yul\":2851:2857   */\n      dup3\n        /* \"#utility.yul\":2840:2849   */\n      dup7\n        /* \"#utility.yul\":2836:2858   */\n      add\n        /* \"#utility.yul\":2815:2868   */\n      tag_339\n      jump\t// in\n    tag_423:\n        /* \"#utility.yul\":2805:2868   */\n      swap3\n      pop\n        /* \"#utility.yul\":2761:2878   */\n      pop\n        /* \"#utility.yul\":2917:2919   */\n      0x20\n        /* \"#utility.yul\":2943:2996   */\n      tag_424\n        /* \"#utility.yul\":2988:2995   */\n      dup6\n        /* \"#utility.yul\":2979:2985   */\n      dup3\n        /* \"#utility.yul\":2968:2977   */\n      dup7\n        /* \"#utility.yul\":2964:2986   */\n      add\n        /* \"#utility.yul\":2943:2996   */\n      tag_342\n      jump\t// in\n    tag_424:\n        /* \"#utility.yul\":2933:2996   */\n      swap2\n      pop\n        /* \"#utility.yul\":2888:3006   */\n      pop\n        /* \"#utility.yul\":2539:3013   */\n      swap3\n      pop\n      swap3\n      swap1\n      pop\n      jump\t// out\n        /* \"#utility.yul\":3019:3109   */\n    tag_343:\n        /* \"#utility.yul\":3053:3060   */\n      0x00\n        /* \"#utility.yul\":3096:3101   */\n      dup2\n        /* \"#utility.yul\":3089:3102   */\n      iszero\n        /* \"#utility.yul\":3082:3103   */\n      iszero\n        /* \"#utility.yul\":3071:3103   */\n      swap1\n      pop\n        /* \"#utility.yul\":3019:3109   */\n      swap2\n      swap1\n      pop\n      jump\t// out\n        /* \"#utility.yul\":3115:3224   */\n    tag_344:\n        /* \"#utility.yul\":3196:3217   */\n      tag_427\n        /* \"#utility.yul\":3211:3216   */\n      dup2\n        /* \"#utility.yul\":3196:3217   */\n      tag_343\n      jump\t// in\n    tag_427:\n        /* \"#utility.yul\":3191:3194   */\n      dup3\n        /* \"#utility.yul\":3184:3218   */\n      mstore\n        /* \"#utility.yul\":3115:3224   */\n      pop\n      pop\n      jump\t// out\n        /* \"#utility.yul\":3230:3440   */\n    tag_45:\n        /* \"#utility.yul\":3317:3321   */\n      0x00\n        /* \"#utility.yul\":3355:3357   */\n      0x20\n        /* \"#utility.yul\":3344:3353   */\n      dup3\n        /* \"#utility.yul\":3340:3358   */\n      add\n        /* \"#utility.yul\":3332:3358   */\n      swap1\n      pop\n        /* \"#utility.yul\":3368:3433   */\n      tag_429\n        /* \"#utility.yul\":3430:3431   */\n      0x00\n        /* \"#utility.yul\":3419:3428   */\n      dup4\n        /* \"#utility.yul\":3415:3432   */\n      add\n        /* \"#utility.yul\":3406:3412   */\n      dup5\n        /* \"#utility.yul\":3368:3433   */\n      tag_344\n      jump\t// in\n    tag_429:\n        /* \"#utility.yul\":3230:3440   */\n      swap3\n      swap2\n      pop\n      pop\n      jump\t// out\n        /* \"#utility.yul\":3446:3506   */\n    tag_345:\n        /* \"#utility.yul\":3474:3477   */\n      0x00\n        /* \"#utility.yul\":3495:3500   */\n      dup2\n        /* \"#utility.yul\":3488:3500   */\n      swap1\n      pop\n        /* \"#utility.yul\":3446:3506   */\n      swap2\n      swap1\n      pop\n      jump\t// out\n        /* \"#utility.yul\":3512:3654   */\n    tag_346:\n        /* \"#utility.yul\":3562:3571   */\n      0x00\n        /* \"#utility.yul\":3595:3648   */\n      tag_432\n        /* \"#utility.yul\":3613:3647   */\n      tag_433\n        /* \"#utility.yul\":3622:3646   */\n      tag_434\n        /* \"#utility.yul\":3640:3645   */\n      dup5\n        /* \"#utility.yul\":3622:3646   */\n      tag_336\n      jump\t// in\n    tag_434:\n        /* \"#utility.yul\":3613:3647   */\n      tag_345\n      jump\t// in\n    tag_433:\n        /* \"#utility.yul\":3595:3648   */\n      tag_336\n      jump\t// in\n    tag_432:\n        /* \"#utility.yul\":3582:3648   */\n      swap1\n      pop\n        /* \"#utility.yul\":3512:3654   */\n      swap2\n      swap1\n      pop\n      jump\t// out\n        /* \"#utility.yul\":3660:3786   */\n    tag_347:\n        /* \"#utility.yul\":3710:3719   */\n      0x00\n        /* \"#utility.yul\":3743:3780   */\n      tag_436\n        /* \"#utility.yul\":3774:3779   */\n      dup3\n        /* \"#utility.yul\":3743:3780   */\n      tag_346\n      jump\t// in\n    tag_436:\n        /* \"#utility.yul\":3730:3780   */\n      swap1\n      pop\n        /* \"#utility.yul\":3660:3786   */\n      swap2\n      swap1\n      pop\n      jump\t// out\n        /* \"#utility.yul\":3792:3949   */\n    tag_348:\n        /* \"#utility.yul\":3873:3882   */\n      0x00\n        /* \"#utility.yul\":3906:3943   */\n      tag_438\n        /* \"#utility.yul\":3937:3942   */\n      dup3\n        /* \"#utility.yul\":3906:3943   */\n      tag_347\n      jump\t// in\n    tag_438:\n        /* \"#utility.yul\":3893:3943   */\n      swap1\n      pop\n        /* \"#utility.yul\":3792:3949   */\n      swap2\n      swap1\n      pop\n      jump\t// out\n        /* \"#utility.yul\":3955:4148   */\n    tag_349:\n        /* \"#utility.yul\":4073:4141   */\n      tag_440\n        /* \"#utility.yul\":4135:4140   */\n      dup2\n        /* \"#utility.yul\":4073:4141   */\n      tag_348\n      jump\t// in\n    tag_440:\n        /* \"#utility.yul\":4068:4071   */\n      dup3\n        /* \"#utility.yul\":4061:4142   */\n      mstore\n        /* \"#utility.yul\":3955:4148   */\n      pop\n      pop\n      jump\t// out\n        /* \"#utility.yul\":4154:4438   */\n    tag_50:\n        /* \"#utility.yul\":4278:4282   */\n      0x00\n        /* \"#utility.yul\":4316:4318   */\n      0x20\n        /* \"#utility.yul\":4305:4314   */\n      dup3\n        /* \"#utility.yul\":4301:4319   */\n      add\n        /* \"#utility.yul\":4293:4319   */\n      swap1\n      pop\n        /* \"#utility.yul\":4329:4431   */\n      tag_442\n        /* \"#utility.yul\":4428:4429   */\n      0x00\n        /* \"#utility.yul\":4417:4426   */\n      dup4\n        /* \"#utility.yul\":4413:4430   */\n      add\n        /* \"#utility.yul\":4404:4410   */\n      dup5\n        /* \"#utility.yul\":4329:4431   */\n      tag_349\n      jump\t// in\n    tag_442:\n        /* \"#utility.yul\":4154:4438   */\n      swap3\n      swap2\n      pop\n      pop\n      jump\t// out\n        /* \"#utility.yul\":4444:4562   */\n    tag_350:\n        /* \"#utility.yul\":4531:4555   */\n      tag_444\n        /* \"#utility.yul\":4549:4554   */\n      dup2\n        /* \"#utility.yul\":4531:4555   */\n      tag_340\n      jump\t// in\n    tag_444:\n        /* \"#utility.yul\":4526:4529   */\n      dup3\n        /* \"#utility.yul\":4519:4556   */\n      mstore\n        /* \"#utility.yul\":4444:4562   */\n      pop\n      pop\n      jump\t// out\n        /* \"#utility.yul\":4568:4790   */\n    tag_55:\n        /* \"#utility.yul\":4661:4665   */\n      0x00\n        /* \"#utility.yul\":4699:4701   */\n      0x20\n        /* \"#utility.yul\":4688:4697   */\n      dup3\n        /* \"#utility.yul\":4684:4702   */\n      add\n        /* \"#utility.yul\":4676:4702   */\n      swap1\n      pop\n        /* \"#utility.yul\":4712:4783   */\n      tag_446\n        /* \"#utility.yul\":4780:4781   */\n      0x00\n        /* \"#utility.yul\":4769:4778   */\n      dup4\n        /* \"#utility.yul\":4765:4782   */\n      add\n        /* \"#utility.yul\":4756:4762   */\n      dup5\n        /* \"#utility.yul\":4712:4783   */\n      tag_350\n      jump\t// in\n    tag_446:\n        /* \"#utility.yul\":4568:4790   */\n      swap3\n      swap2\n      pop\n      pop\n      jump\t// out\n        /* \"#utility.yul\":4796:5415   */\n    tag_59:\n        /* \"#utility.yul\":4873:4879   */\n      0x00\n        /* \"#utility.yul\":4881:4887   */\n      dup1\n        /* \"#utility.yul\":4889:4895   */\n      0x00\n        /* \"#utility.yul\":4938:4940   */\n      0x60\n        /* \"#utility.yul\":4926:4935   */\n      dup5\n        /* \"#utility.yul\":4917:4924   */\n      dup7\n        /* \"#utility.yul\":4913:4936   */\n      sub\n        /* \"#utility.yul\":4909:4941   */\n      slt\n        /* \"#utility.yul\":4906:5025   */\n      iszero\n      tag_448\n      jumpi\n        /* \"#utility.yul\":4944:5023   */\n      tag_449\n      tag_334\n      jump\t// in\n    tag_449:\n        /* \"#utility.yul\":4906:5025   */\n    tag_448:\n        /* \"#utility.yul\":5064:5065   */\n      0x00\n        /* \"#utility.yul\":5089:5142   */\n      tag_450\n        /* \"#utility.yul\":5134:5141   */\n      dup7\n        /* \"#utility.yul\":5125:5131   */\n      dup3\n        /* \"#utility.yul\":5114:5123   */\n      dup8\n        /* \"#utility.yul\":5110:5132   */\n      add\n        /* \"#utility.yul\":5089:5142   */\n      tag_339\n      jump\t// in\n    tag_450:\n        /* \"#utility.yul\":5079:5142   */\n      swap4\n      pop\n        /* \"#utility.yul\":5035:5152   */\n      pop\n        /* \"#utility.yul\":5191:5193   */\n      0x20\n        /* \"#utility.yul\":5217:5270   */\n      tag_451\n        /* \"#utility.yul\":5262:5269   */\n      dup7\n        /* \"#utility.yul\":5253:5259   */\n      dup3\n        /* \"#utility.yul\":5242:5251   */\n      dup8\n        /* \"#utility.yul\":5238:5260   */\n      add\n        /* \"#utility.yul\":5217:5270   */\n      tag_339\n      jump\t// in\n    tag_451:\n        /* \"#utility.yul\":5207:5270   */\n      swap3\n      pop\n        /* \"#utility.yul\":5162:5280   */\n      pop\n        /* \"#utility.yul\":5319:5321   */\n      0x40\n        /* \"#utility.yul\":5345:5398   */\n      tag_452\n        /* \"#utility.yul\":5390:5397   */\n      dup7\n        /* \"#utility.yul\":5381:5387   */\n      dup3\n        /* \"#utility.yul\":5370:5379   */\n      dup8\n        /* \"#utility.yul\":5366:5388   */\n      add\n        /* \"#utility.yul\":5345:5398   */\n      tag_342\n      jump\t// in\n    tag_452:\n        /* \"#utility.yul\":5335:5398   */\n      swap2\n      pop\n        /* \"#utility.yul\":5290:5408   */\n      pop\n        /* \"#utility.yul\":4796:5415   */\n      swap3\n      pop\n      swap3\n      pop\n      swap3\n      jump\t// out\n        /* \"#utility.yul\":5421:5539   */\n    tag_351:\n        /* \"#utility.yul\":5508:5532   */\n      tag_454\n        /* \"#utility.yul\":5526:5531   */\n      dup2\n        /* \"#utility.yul\":5508:5532   */\n      tag_337\n      jump\t// in\n    tag_454:\n        /* \"#utility.yul\":5503:5506   */\n      dup3\n        /* \"#utility.yul\":5496:5533   */\n      mstore\n        /* \"#utility.yul\":5421:5539   */\n      pop\n      pop\n      jump\t// out\n        /* \"#utility.yul\":5545:5767   */\n    tag_66:\n        /* \"#utility.yul\":5638:5642   */\n      0x00\n        /* \"#utility.yul\":5676:5678   */\n      0x20\n        /* \"#utility.yul\":5665:5674   */\n      dup3\n        /* \"#utility.yul\":5661:5679   */\n      add\n        /* \"#utility.yul\":5653:5679   */\n      swap1\n      pop\n        /* \"#utility.yul\":5689:5760   */\n      tag_456\n        /* \"#utility.yul\":5757:5758   */\n      0x00\n        /* \"#utility.yul\":5746:5755   */\n      dup4\n        /* \"#utility.yul\":5742:5759   */\n      add\n        /* \"#utility.yul\":5733:5739   */\n      dup5\n        /* \"#utility.yul\":5689:5760   */\n      tag_351\n      jump\t// in\n    tag_456:\n        /* \"#utility.yul\":5545:5767   */\n      swap3\n      swap2\n      pop\n      pop\n      jump\t// out\n        /* \"#utility.yul\":5773:5859   */\n    tag_352:\n        /* \"#utility.yul\":5808:5815   */\n      0x00\n        /* \"#utility.yul\":5848:5852   */\n      0xff\n        /* \"#utility.yul\":5841:5846   */\n      dup3\n        /* \"#utility.yul\":5837:5853   */\n      and\n        /* \"#utility.yul\":5826:5853   */\n      swap1\n      pop\n        /* \"#utility.yul\":5773:5859   */\n      swap2\n      swap1\n      pop\n      jump\t// out\n        /* \"#utility.yul\":5865:5977   */\n    tag_353:\n        /* \"#utility.yul\":5948:5970   */\n      tag_459\n        /* \"#utility.yul\":5964:5969   */\n      dup2\n        /* \"#utility.yul\":5948:5970   */\n      tag_352\n      jump\t// in\n    tag_459:\n        /* \"#utility.yul\":5943:5946   */\n      dup3\n        /* \"#utility.yul\":5936:5971   */\n      mstore\n        /* \"#utility.yul\":5865:5977   */\n      pop\n      pop\n      jump\t// out\n        /* \"#utility.yul\":5983:6197   */\n    tag_71:\n        /* \"#utility.yul\":6072:6076   */\n      0x00\n        /* \"#utility.yul\":6110:6112   */\n      0x20\n        /* \"#utility.yul\":6099:6108   */\n      dup3\n        /* \"#utility.yul\":6095:6113   */\n      add\n        /* \"#utility.yul\":6087:6113   */\n      swap1\n      pop\n        /* \"#utility.yul\":6123:6190   */\n      tag_461\n        /* \"#utility.yul\":6187:6188   */\n      0x00\n        /* \"#utility.yul\":6176:6185   */\n      dup4\n        /* \"#utility.yul\":6172:6189   */\n      add\n        /* \"#utility.yul\":6163:6169   */\n      dup5\n        /* \"#utility.yul\":6123:6190   */\n      tag_353\n      jump\t// in\n    tag_461:\n        /* \"#utility.yul\":5983:6197   */\n      swap3\n      swap2\n      pop\n      pop\n      jump\t// out\n        /* \"#utility.yul\":6203:6532   */\n    tag_80:\n        /* \"#utility.yul\":6262:6268   */\n      0x00\n        /* \"#utility.yul\":6311:6313   */\n      0x20\n        /* \"#utility.yul\":6299:6308   */\n      dup3\n        /* \"#utility.yul\":6290:6297   */\n      dup5\n        /* \"#utility.yul\":6286:6309   */\n      sub\n        /* \"#utility.yul\":6282:6314   */\n      slt\n        /* \"#utility.yul\":6279:6398   */\n      iszero\n      tag_463\n      jumpi\n        /* \"#utility.yul\":6317:6396   */\n      tag_464\n      tag_334\n      jump\t// in\n    tag_464:\n        /* \"#utility.yul\":6279:6398   */\n    tag_463:\n        /* \"#utility.yul\":6437:6438   */\n      0x00\n        /* \"#utility.yul\":6462:6515   */\n      tag_465\n        /* \"#utility.yul\":6507:6514   */\n      dup5\n        /* \"#utility.yul\":6498:6504   */\n      dup3\n        /* \"#utility.yul\":6487:6496   */\n      dup6\n        /* \"#utility.yul\":6483:6505   */\n      add\n        /* \"#utility.yul\":6462:6515   */\n      tag_342\n      jump\t// in\n    tag_465:\n        /* \"#utility.yul\":6452:6515   */\n      swap2\n      pop\n        /* \"#utility.yul\":6408:6525   */\n      pop\n        /* \"#utility.yul\":6203:6532   */\n      swap3\n      swap2\n      pop\n      pop\n      jump\t// out\n        /* \"#utility.yul\":6538:6867   */\n    tag_89:\n        /* \"#utility.yul\":6597:6603   */\n      0x00\n        /* \"#utility.yul\":6646:6648   */\n      0x20\n        /* \"#utility.yul\":6634:6643   */\n      dup3\n        /* \"#utility.yul\":6625:6632   */\n      dup5\n        /* \"#utility.yul\":6621:6644   */\n      sub\n        /* \"#utility.yul\":6617:6649   */\n      slt\n        /* \"#utility.yul\":6614:6733   */\n      iszero\n      tag_467\n      jumpi\n        /* \"#utility.yul\":6652:6731   */\n      tag_468\n      tag_334\n      jump\t// in\n    tag_468:\n        /* \"#utility.yul\":6614:6733   */\n    tag_467:\n        /* \"#utility.yul\":6772:6773   */\n      0x00\n        /* \"#utility.yul\":6797:6850   */\n      tag_469\n        /* \"#utility.yul\":6842:6849   */\n      dup5\n        /* \"#utility.yul\":6833:6839   */\n      dup3\n        /* \"#utility.yul\":6822:6831   */\n      dup6\n        /* \"#utility.yul\":6818:6840   */\n      add\n        /* \"#utility.yul\":6797:6850   */\n      tag_339\n      jump\t// in\n    tag_469:\n        /* \"#utility.yul\":6787:6850   */\n      swap2\n      pop\n        /* \"#utility.yul\":6743:6860   */\n      pop\n        /* \"#utility.yul\":6538:6867   */\n      swap3\n      swap2\n      pop\n      pop\n      jump\t// out\n        /* \"#utility.yul\":6873:7347   */\n    tag_136:\n        /* \"#utility.yul\":6941:6947   */\n      0x00\n        /* \"#utility.yul\":6949:6955   */\n      dup1\n        /* \"#utility.yul\":6998:7000   */\n      0x40\n        /* \"#utility.yul\":6986:6995   */\n      dup4\n        /* \"#utility.yul\":6977:6984   */\n      dup6\n        /* \"#utility.yul\":6973:6996   */\n      sub\n        /* \"#utility.yul\":6969:7001   */\n      slt\n        /* \"#utility.yul\":6966:7085   */\n      iszero\n      tag_471\n      jumpi\n        /* \"#utility.yul\":7004:7083   */\n      tag_472\n      tag_334\n      jump\t// in\n    tag_472:\n        /* \"#utility.yul\":6966:7085   */\n    tag_471:\n        /* \"#utility.yul\":7124:7125   */\n      0x00\n        /* \"#utility.yul\":7149:7202   */\n      tag_473\n        /* \"#utility.yul\":7194:7201   */\n      dup6\n        /* \"#utility.yul\":7185:7191   */\n      dup3\n        /* \"#utility.yul\":7174:7183   */\n      dup7\n        /* \"#utility.yul\":7170:7192   */\n      add\n        /* \"#utility.yul\":7149:7202   */\n      tag_339\n      jump\t// in\n    tag_473:\n        /* \"#utility.yul\":7139:7202   */\n      swap3\n      pop\n        /* \"#utility.yul\":7095:7212   */\n      pop\n        /* \"#utility.yul\":7251:7253   */\n      0x20\n        /* \"#utility.yul\":7277:7330   */\n      tag_474\n        /* \"#utility.yul\":7322:7329   */\n      dup6\n        /* \"#utility.yul\":7313:7319   */\n      dup3\n        /* \"#utility.yul\":7302:7311   */\n      dup7\n        /* \"#utility.yul\":7298:7320   */\n      add\n        /* \"#utility.yul\":7277:7330   */\n      tag_339\n      jump\t// in\n    tag_474:\n        /* \"#utility.yul\":7267:7330   */\n      swap2\n      pop\n        /* \"#utility.yul\":7222:7340   */\n      pop\n        /* \"#utility.yul\":6873:7347   */\n      swap3\n      pop\n      swap3\n      swap1\n      pop\n      jump\t// out\n        /* \"#utility.yul\":7353:7578   */\n    tag_354:\n        /* \"#utility.yul\":7493:7527   */\n      0x4245453a207472616e7366657220616d6f756e74206578636565647320616c6c\n        /* \"#utility.yul\":7489:7490   */\n      0x00\n        /* \"#utility.yul\":7481:7487   */\n      dup3\n        /* \"#utility.yul\":7477:7491   */\n      add\n        /* \"#utility.yul\":7470:7528   */\n      mstore\n        /* \"#utility.yul\":7562:7570   */\n      0x6f77616e63650000000000000000000000000000000000000000000000000000\n        /* \"#utility.yul\":7557:7559   */\n      0x20\n        /* \"#utility.yul\":7549:7555   */\n      dup3\n        /* \"#utility.yul\":7545:7560   */\n      add\n        /* \"#utility.yul\":7538:7571   */\n      mstore\n        /* \"#utility.yul\":7353:7578   */\n      pop\n      jump\t// out\n        /* \"#utility.yul\":7584:7950   */\n    tag_355:\n        /* \"#utility.yul\":7726:7729   */\n      0x00\n        /* \"#utility.yul\":7747:7814   */\n      tag_477\n        /* \"#utility.yul\":7811:7813   */\n      0x26\n        /* \"#utility.yul\":7806:7809   */\n      dup4\n        /* \"#utility.yul\":7747:7814   */\n      tag_329\n      jump\t// in\n    tag_477:\n        /* \"#utility.yul\":7740:7814   */\n      swap2\n      pop\n        /* \"#utility.yul\":7823:7916   */\n      tag_478\n        /* \"#utility.yul\":7912:7915   */\n      dup3\n        /* \"#utility.yul\":7823:7916   */\n      tag_354\n      jump\t// in\n    tag_478:\n        /* \"#utility.yul\":7941:7943   */\n      0x40\n        /* \"#utility.yul\":7936:7939   */\n      dup3\n        /* \"#utility.yul\":7932:7944   */\n      add\n        /* \"#utility.yul\":7925:7944   */\n      swap1\n      pop\n        /* \"#utility.yul\":7584:7950   */\n      swap2\n      swap1\n      pop\n      jump\t// out\n        /* \"#utility.yul\":7956:8375   */\n    tag_165:\n        /* \"#utility.yul\":8122:8126   */\n      0x00\n        /* \"#utility.yul\":8160:8162   */\n      0x20\n        /* \"#utility.yul\":8149:8158   */\n      dup3\n        /* \"#utility.yul\":8145:8163   */\n      add\n        /* \"#utility.yul\":8137:8163   */\n      swap1\n      pop\n        /* \"#utility.yul\":8209:8218   */\n      dup2\n        /* \"#utility.yul\":8203:8207   */\n      dup2\n        /* \"#utility.yul\":8199:8219   */\n      sub\n        /* \"#utility.yul\":8195:8196   */\n      0x00\n        /* \"#utility.yul\":8184:8193   */\n      dup4\n        /* \"#utility.yul\":8180:8197   */\n      add\n        /* \"#utility.yul\":8173:8220   */\n      mstore\n        /* \"#utility.yul\":8237:8368   */\n      tag_480\n        /* \"#utility.yul\":8363:8367   */\n      dup2\n        /* \"#utility.yul\":8237:8368   */\n      tag_355\n      jump\t// in\n    tag_480:\n        /* \"#utility.yul\":8229:8368   */\n      swap1\n      pop\n        /* \"#utility.yul\":7956:8375   */\n      swap2\n      swap1\n      pop\n      jump\t// out\n        /* \"#utility.yul\":8381:8561   */\n    tag_356:\n        /* \"#utility.yul\":8429:8506   */\n      0x4e487b7100000000000000000000000000000000000000000000000000000000\n        /* \"#utility.yul\":8426:8427   */\n      0x00\n        /* \"#utility.yul\":8419:8507   */\n      mstore\n        /* \"#utility.yul\":8526:8530   */\n      0x11\n        /* \"#utility.yul\":8523:8524   */\n      0x04\n        /* \"#utility.yul\":8516:8531   */\n      mstore\n        /* \"#utility.yul\":8550:8554   */\n      0x24\n        /* \"#utility.yul\":8547:8548   */\n      0x00\n        /* \"#utility.yul\":8540:8555   */\n      revert\n        /* \"#utility.yul\":8567:8758   */\n    tag_174:\n        /* \"#utility.yul\":8607:8610   */\n      0x00\n        /* \"#utility.yul\":8626:8646   */\n      tag_483\n        /* \"#utility.yul\":8644:8645   */\n      dup3\n        /* \"#utility.yul\":8626:8646   */\n      tag_340\n      jump\t// in\n    tag_483:\n        /* \"#utility.yul\":8621:8646   */\n      swap2\n      pop\n        /* \"#utility.yul\":8660:8680   */\n      tag_484\n        /* \"#utility.yul\":8678:8679   */\n      dup4\n        /* \"#utility.yul\":8660:8680   */\n      tag_340\n      jump\t// in\n    tag_484:\n        /* \"#utility.yul\":8655:8680   */\n      swap3\n      pop\n        /* \"#utility.yul\":8703:8704   */\n      dup3\n        /* \"#utility.yul\":8700:8701   */\n      dup3\n        /* \"#utility.yul\":8696:8705   */\n      add\n        /* \"#utility.yul\":8689:8705   */\n      swap1\n      pop\n        /* \"#utility.yul\":8724:8727   */\n      dup1\n        /* \"#utility.yul\":8721:8722   */\n      dup3\n        /* \"#utility.yul\":8718:8728   */\n      gt\n        /* \"#utility.yul\":8715:8751   */\n      iszero\n      tag_485\n      jumpi\n        /* \"#utility.yul\":8731:8749   */\n      tag_486\n      tag_356\n      jump\t// in\n    tag_486:\n        /* \"#utility.yul\":8715:8751   */\n    tag_485:\n        /* \"#utility.yul\":8567:8758   */\n      swap3\n      swap2\n      pop\n      pop\n      jump\t// out\n        /* \"#utility.yul\":8764:8946   */\n    tag_357:\n        /* \"#utility.yul\":8904:8938   */\n      0x4f776e61626c653a2063616c6c6572206973206e6f7420746865206f776e6572\n        /* \"#utility.yul\":8900:8901   */\n      0x00\n        /* \"#utility.yul\":8892:8898   */\n      dup3\n        /* \"#utility.yul\":8888:8902   */\n      add\n        /* \"#utility.yul\":8881:8939   */\n      mstore\n        /* \"#utility.yul\":8764:8946   */\n      pop\n      jump\t// out\n        /* \"#utility.yul\":8952:9318   */\n    tag_358:\n        /* \"#utility.yul\":9094:9097   */\n      0x00\n        /* \"#utility.yul\":9115:9182   */\n      tag_489\n        /* \"#utility.yul\":9179:9181   */\n      0x20\n        /* \"#utility.yul\":9174:9177   */\n      dup4\n        /* \"#utility.yul\":9115:9182   */\n      tag_329\n      jump\t// in\n    tag_489:\n        /* \"#utility.yul\":9108:9182   */\n      swap2\n      pop\n        /* \"#utility.yul\":9191:9284   */\n      tag_490\n        /* \"#utility.yul\":9280:9283   */\n      dup3\n        /* \"#utility.yul\":9191:9284   */\n      tag_357\n      jump\t// in\n    tag_490:\n        /* \"#utility.yul\":9309:9311   */\n      0x20\n        /* \"#utility.yul\":9304:9307   */\n      dup3\n        /* \"#utility.yul\":9300:9312   */\n      add\n        /* \"#utility.yul\":9293:9312   */\n      swap1\n      pop\n        /* \"#utility.yul\":8952:9318   */\n      swap2\n      swap1\n      pop\n      jump\t// out\n        /* \"#utility.yul\":9324:9743   */\n    tag_184:\n        /* \"#utility.yul\":9490:9494   */\n      0x00\n        /* \"#utility.yul\":9528:9530   */\n      0x20\n        /* \"#utility.yul\":9517:9526   */\n      dup3\n        /* \"#utility.yul\":9513:9531   */\n      add\n        /* \"#utility.yul\":9505:9531   */\n      swap1\n      pop\n        /* \"#utility.yul\":9577:9586   */\n      dup2\n        /* \"#utility.yul\":9571:9575   */\n      dup2\n        /* \"#utility.yul\":9567:9587   */\n      sub\n        /* \"#utility.yul\":9563:9564   */\n      0x00\n        /* \"#utility.yul\":9552:9561   */\n      dup4\n        /* \"#utility.yul\":9548:9565   */\n      add\n        /* \"#utility.yul\":9541:9588   */\n      mstore\n        /* \"#utility.yul\":9605:9736   */\n      tag_492\n        /* \"#utility.yul\":9731:9735   */\n      dup2\n        /* \"#utility.yul\":9605:9736   */\n      tag_358\n      jump\t// in\n    tag_492:\n        /* \"#utility.yul\":9597:9736   */\n      swap1\n      pop\n        /* \"#utility.yul\":9324:9743   */\n      swap2\n      swap1\n      pop\n      jump\t// out\n        /* \"#utility.yul\":9749:9971   */\n    tag_359:\n        /* \"#utility.yul\":9889:9923   */\n      0x4245453a2064656372656173656420616c6c6f77616e63652062656c6f77207a\n        /* \"#utility.yul\":9885:9886   */\n      0x00\n        /* \"#utility.yul\":9877:9883   */\n      dup3\n        /* \"#utility.yul\":9873:9887   */\n      add\n        /* \"#utility.yul\":9866:9924   */\n      mstore\n        /* \"#utility.yul\":9958:9963   */\n      0x65726f0000000000000000000000000000000000000000000000000000000000\n        /* \"#utility.yul\":9953:9955   */\n      0x20\n        /* \"#utility.yul\":9945:9951   */\n      dup3\n        /* \"#utility.yul\":9941:9956   */\n      add\n        /* \"#utility.yul\":9934:9964   */\n      mstore\n        /* \"#utility.yul\":9749:9971   */\n      pop\n      jump\t// out\n        /* \"#utility.yul\":9977:10343   */\n    tag_360:\n        /* \"#utility.yul\":10119:10122   */\n      0x00\n        /* \"#utility.yul\":10140:10207   */\n      tag_495\n        /* \"#utility.yul\":10204:10206   */\n      0x23\n        /* \"#utility.yul\":10199:10202   */\n      dup4\n        /* \"#utility.yul\":10140:10207   */\n      tag_329\n      jump\t// in\n    tag_495:\n        /* \"#utility.yul\":10133:10207   */\n      swap2\n      pop\n        /* \"#utility.yul\":10216:10309   */\n      tag_496\n        /* \"#utility.yul\":10305:10308   */\n      dup3\n        /* \"#utility.yul\":10216:10309   */\n      tag_359\n      jump\t// in\n    tag_496:\n        /* \"#utility.yul\":10334:10336   */\n      0x40\n        /* \"#utility.yul\":10329:10332   */\n      dup3\n        /* \"#utility.yul\":10325:10337   */\n      add\n        /* \"#utility.yul\":10318:10337   */\n      swap1\n      pop\n        /* \"#utility.yul\":9977:10343   */\n      swap2\n      swap1\n      pop\n      jump\t// out\n        /* \"#utility.yul\":10349:10768   */\n    tag_203:\n        /* \"#utility.yul\":10515:10519   */\n      0x00\n        /* \"#utility.yul\":10553:10555   */\n      0x20\n        /* \"#utility.yul\":10542:10551   */\n      dup3\n        /* \"#utility.yul\":10538:10556   */\n      add\n        /* \"#utility.yul\":10530:10556   */\n      swap1\n      pop\n        /* \"#utility.yul\":10602:10611   */\n      dup2\n        /* \"#utility.yul\":10596:10600   */\n      dup2\n        /* \"#utility.yul\":10592:10612   */\n      sub\n        /* \"#utility.yul\":10588:10589   */\n      0x00\n        /* \"#utility.yul\":10577:10586   */\n      dup4\n        /* \"#utility.yul\":10573:10590   */\n      add\n        /* \"#utility.yul\":10566:10613   */\n      mstore\n        /* \"#utility.yul\":10630:10761   */\n      tag_498\n        /* \"#utility.yul\":10756:10760   */\n      dup2\n        /* \"#utility.yul\":10630:10761   */\n      tag_360\n      jump\t// in\n    tag_498:\n        /* \"#utility.yul\":10622:10761   */\n      swap1\n      pop\n        /* \"#utility.yul\":10349:10768   */\n      swap2\n      swap1\n      pop\n      jump\t// out\n        /* \"#utility.yul\":10774:10954   */\n    tag_221:\n        /* \"#utility.yul\":10822:10899   */\n      0x4e487b7100000000000000000000000000000000000000000000000000000000\n        /* \"#utility.yul\":10819:10820   */\n      0x00\n        /* \"#utility.yul\":10812:10900   */\n      mstore\n        /* \"#utility.yul\":10919:10923   */\n      0x41\n        /* \"#utility.yul\":10916:10917   */\n      0x04\n        /* \"#utility.yul\":10909:10924   */\n      mstore\n        /* \"#utility.yul\":10943:10947   */\n      0x24\n        /* \"#utility.yul\":10940:10941   */\n      0x00\n        /* \"#utility.yul\":10933:10948   */\n      revert\n        /* \"#utility.yul\":10960:11140   */\n    tag_225:\n        /* \"#utility.yul\":11008:11085   */\n      0x4e487b7100000000000000000000000000000000000000000000000000000000\n        /* \"#utility.yul\":11005:11006   */\n      0x00\n        /* \"#utility.yul\":10998:11086   */\n      mstore\n        /* \"#utility.yul\":11105:11109   */\n      0x32\n        /* \"#utility.yul\":11102:11103   */\n      0x04\n        /* \"#utility.yul\":11095:11110   */\n      mstore\n        /* \"#utility.yul\":11129:11133   */\n      0x24\n        /* \"#utility.yul\":11126:11127   */\n      0x00\n        /* \"#utility.yul\":11119:11134   */\n      revert\n        /* \"#utility.yul\":11146:11231   */\n    tag_361:\n        /* \"#utility.yul\":11191:11198   */\n      0x00\n        /* \"#utility.yul\":11220:11225   */\n      dup2\n        /* \"#utility.yul\":11209:11225   */\n      swap1\n      pop\n        /* \"#utility.yul\":11146:11231   */\n      swap2\n      swap1\n      pop\n      jump\t// out\n        /* \"#utility.yul\":11237:11395   */\n    tag_362:\n        /* \"#utility.yul\":11295:11304   */\n      0x00\n        /* \"#utility.yul\":11328:11389   */\n      tag_503\n        /* \"#utility.yul\":11346:11388   */\n      tag_504\n        /* \"#utility.yul\":11355:11387   */\n      tag_505\n        /* \"#utility.yul\":11381:11386   */\n      dup5\n        /* \"#utility.yul\":11355:11387   */\n      tag_361\n      jump\t// in\n    tag_505:\n        /* \"#utility.yul\":11346:11388   */\n      tag_345\n      jump\t// in\n    tag_504:\n        /* \"#utility.yul\":11328:11389   */\n      tag_340\n      jump\t// in\n    tag_503:\n        /* \"#utility.yul\":11315:11389   */\n      swap1\n      pop\n        /* \"#utility.yul\":11237:11395   */\n      swap2\n      swap1\n      pop\n      jump\t// out\n        /* \"#utility.yul\":11401:11548   */\n    tag_363:\n        /* \"#utility.yul\":11496:11541   */\n      tag_507\n        /* \"#utility.yul\":11535:11540   */\n      dup2\n        /* \"#utility.yul\":11496:11541   */\n      tag_362\n      jump\t// in\n    tag_507:\n        /* \"#utility.yul\":11491:11494   */\n      dup3\n        /* \"#utility.yul\":11484:11542   */\n      mstore\n        /* \"#utility.yul\":11401:11548   */\n      pop\n      pop\n      jump\t// out\n        /* \"#utility.yul\":11554:11668   */\n    tag_364:\n        /* \"#utility.yul\":11621:11627   */\n      0x00\n        /* \"#utility.yul\":11655:11660   */\n      dup2\n        /* \"#utility.yul\":11649:11661   */\n      mload\n        /* \"#utility.yul\":11639:11661   */\n      swap1\n      pop\n        /* \"#utility.yul\":11554:11668   */\n      swap2\n      swap1\n      pop\n      jump\t// out\n        /* \"#utility.yul\":11674:11858   */\n    tag_365:\n        /* \"#utility.yul\":11773:11784   */\n      0x00\n        /* \"#utility.yul\":11807:11813   */\n      dup3\n        /* \"#utility.yul\":11802:11805   */\n      dup3\n        /* \"#utility.yul\":11795:11814   */\n      mstore\n        /* \"#utility.yul\":11847:11851   */\n      0x20\n        /* \"#utility.yul\":11842:11845   */\n      dup3\n        /* \"#utility.yul\":11838:11852   */\n      add\n        /* \"#utility.yul\":11823:11852   */\n      swap1\n      pop\n        /* \"#utility.yul\":11674:11858   */\n      swap3\n      swap2\n      pop\n      pop\n      jump\t// out\n        /* \"#utility.yul\":11864:11996   */\n    tag_366:\n        /* \"#utility.yul\":11931:11935   */\n      0x00\n        /* \"#utility.yul\":11954:11957   */\n      dup2\n        /* \"#utility.yul\":11946:11957   */\n      swap1\n      pop\n        /* \"#utility.yul\":11984:11988   */\n      0x20\n        /* \"#utility.yul\":11979:11982   */\n      dup3\n        /* \"#utility.yul\":11975:11989   */\n      add\n        /* \"#utility.yul\":11967:11989   */\n      swap1\n      pop\n        /* \"#utility.yul\":11864:11996   */\n      swap2\n      swap1\n      pop\n      jump\t// out\n        /* \"#utility.yul\":12002:12110   */\n    tag_367:\n        /* \"#utility.yul\":12079:12103   */\n      tag_512\n        /* \"#utility.yul\":12097:12102   */\n      dup2\n        /* \"#utility.yul\":12079:12103   */\n      tag_337\n      jump\t// in\n    tag_512:\n        /* \"#utility.yul\":12074:12077   */\n      dup3\n        /* \"#utility.yul\":12067:12104   */\n      mstore\n        /* \"#utility.yul\":12002:12110   */\n      pop\n      pop\n      jump\t// out\n        /* \"#utility.yul\":12116:12295   */\n    tag_368:\n        /* \"#utility.yul\":12185:12195   */\n      0x00\n        /* \"#utility.yul\":12206:12252   */\n      tag_514\n        /* \"#utility.yul\":12248:12251   */\n      dup4\n        /* \"#utility.yul\":12240:12246   */\n      dup4\n        /* \"#utility.yul\":12206:12252   */\n      tag_367\n      jump\t// in\n    tag_514:\n        /* \"#utility.yul\":12284:12288   */\n      0x20\n        /* \"#utility.yul\":12279:12282   */\n      dup4\n        /* \"#utility.yul\":12275:12289   */\n      add\n        /* \"#utility.yul\":12261:12289   */\n      swap1\n      pop\n        /* \"#utility.yul\":12116:12295   */\n      swap3\n      swap2\n      pop\n      pop\n      jump\t// out\n        /* \"#utility.yul\":12301:12414   */\n    tag_369:\n        /* \"#utility.yul\":12371:12375   */\n      0x00\n        /* \"#utility.yul\":12403:12407   */\n      0x20\n        /* \"#utility.yul\":12398:12401   */\n      dup3\n        /* \"#utility.yul\":12394:12408   */\n      add\n        /* \"#utility.yul\":12386:12408   */\n      swap1\n      pop\n        /* \"#utility.yul\":12301:12414   */\n      swap2\n      swap1\n      pop\n      jump\t// out\n        /* \"#utility.yul\":12450:13182   */\n    tag_370:\n        /* \"#utility.yul\":12569:12572   */\n      0x00\n        /* \"#utility.yul\":12598:12652   */\n      tag_517\n        /* \"#utility.yul\":12646:12651   */\n      dup3\n        /* \"#utility.yul\":12598:12652   */\n      tag_364\n      jump\t// in\n    tag_517:\n        /* \"#utility.yul\":12668:12754   */\n      tag_518\n        /* \"#utility.yul\":12747:12753   */\n      dup2\n        /* \"#utility.yul\":12742:12745   */\n      dup6\n        /* \"#utility.yul\":12668:12754   */\n      tag_365\n      jump\t// in\n    tag_518:\n        /* \"#utility.yul\":12661:12754   */\n      swap4\n      pop\n        /* \"#utility.yul\":12778:12834   */\n      tag_519\n        /* \"#utility.yul\":12828:12833   */\n      dup4\n        /* \"#utility.yul\":12778:12834   */\n      tag_366\n      jump\t// in\n    tag_519:\n        /* \"#utility.yul\":12857:12864   */\n      dup1\n        /* \"#utility.yul\":12888:12889   */\n      0x00\n        /* \"#utility.yul\":12873:13157   */\n    tag_520:\n        /* \"#utility.yul\":12898:12904   */\n      dup4\n        /* \"#utility.yul\":12895:12896   */\n      dup2\n        /* \"#utility.yul\":12892:12905   */\n      lt\n        /* \"#utility.yul\":12873:13157   */\n      iszero\n      tag_522\n      jumpi\n        /* \"#utility.yul\":12974:12980   */\n      dup2\n        /* \"#utility.yul\":12968:12981   */\n      mload\n        /* \"#utility.yul\":13001:13064   */\n      tag_523\n        /* \"#utility.yul\":13060:13063   */\n      dup9\n        /* \"#utility.yul\":13045:13058   */\n      dup3\n        /* \"#utility.yul\":13001:13064   */\n      tag_368\n      jump\t// in\n    tag_523:\n        /* \"#utility.yul\":12994:13064   */\n      swap8\n      pop\n        /* \"#utility.yul\":13087:13147   */\n      tag_524\n        /* \"#utility.yul\":13140:13146   */\n      dup4\n        /* \"#utility.yul\":13087:13147   */\n      tag_369\n      jump\t// in\n    tag_524:\n        /* \"#utility.yul\":13077:13147   */\n      swap3\n      pop\n        /* \"#utility.yul\":12933:13157   */\n      pop\n        /* \"#utility.yul\":12920:12921   */\n      0x01\n        /* \"#utility.yul\":12917:12918   */\n      dup2\n        /* \"#utility.yul\":12913:12922   */\n      add\n        /* \"#utility.yul\":12908:12922   */\n      swap1\n      pop\n        /* \"#utility.yul\":12873:13157   */\n      jump(tag_520)\n    tag_522:\n        /* \"#utility.yul\":12877:12891   */\n      pop\n        /* \"#utility.yul\":13173:13176   */\n      dup6\n        /* \"#utility.yul\":13166:13176   */\n      swap4\n      pop\n        /* \"#utility.yul\":12574:13182   */\n      pop\n      pop\n      pop\n        /* \"#utility.yul\":12450:13182   */\n      swap3\n      swap2\n      pop\n      pop\n      jump\t// out\n        /* \"#utility.yul\":13188:14019   */\n    tag_230:\n        /* \"#utility.yul\":13451:13455   */\n      0x00\n        /* \"#utility.yul\":13489:13492   */\n      0xa0\n        /* \"#utility.yul\":13478:13487   */\n      dup3\n        /* \"#utility.yul\":13474:13493   */\n      add\n        /* \"#utility.yul\":13466:13493   */\n      swap1\n      pop\n        /* \"#utility.yul\":13503:13574   */\n      tag_526\n        /* \"#utility.yul\":13571:13572   */\n      0x00\n        /* \"#utility.yul\":13560:13569   */\n      dup4\n        /* \"#utility.yul\":13556:13573   */\n      add\n        /* \"#utility.yul\":13547:13553   */\n      dup9\n        /* \"#utility.yul\":13503:13574   */\n      tag_350\n      jump\t// in\n    tag_526:\n        /* \"#utility.yul\":13584:13664   */\n      tag_527\n        /* \"#utility.yul\":13660:13662   */\n      0x20\n        /* \"#utility.yul\":13649:13658   */\n      dup4\n        /* \"#utility.yul\":13645:13663   */\n      add\n        /* \"#utility.yul\":13636:13642   */\n      dup8\n        /* \"#utility.yul\":13584:13664   */\n      tag_363\n      jump\t// in\n    tag_527:\n        /* \"#utility.yul\":13711:13720   */\n      dup2\n        /* \"#utility.yul\":13705:13709   */\n      dup2\n        /* \"#utility.yul\":13701:13721   */\n      sub\n        /* \"#utility.yul\":13696:13698   */\n      0x40\n        /* \"#utility.yul\":13685:13694   */\n      dup4\n        /* \"#utility.yul\":13681:13699   */\n      add\n        /* \"#utility.yul\":13674:13722   */\n      mstore\n        /* \"#utility.yul\":13739:13847   */\n      tag_528\n        /* \"#utility.yul\":13842:13846   */\n      dup2\n        /* \"#utility.yul\":13833:13839   */\n      dup7\n        /* \"#utility.yul\":13739:13847   */\n      tag_370\n      jump\t// in\n    tag_528:\n        /* \"#utility.yul\":13731:13847   */\n      swap1\n      pop\n        /* \"#utility.yul\":13857:13929   */\n      tag_529\n        /* \"#utility.yul\":13925:13927   */\n      0x60\n        /* \"#utility.yul\":13914:13923   */\n      dup4\n        /* \"#utility.yul\":13910:13928   */\n      add\n        /* \"#utility.yul\":13901:13907   */\n      dup6\n        /* \"#utility.yul\":13857:13929   */\n      tag_351\n      jump\t// in\n    tag_529:\n        /* \"#utility.yul\":13939:14012   */\n      tag_530\n        /* \"#utility.yul\":14007:14010   */\n      0x80\n        /* \"#utility.yul\":13996:14005   */\n      dup4\n        /* \"#utility.yul\":13992:14011   */\n      add\n        /* \"#utility.yul\":13983:13989   */\n      dup5\n        /* \"#utility.yul\":13939:14012   */\n      tag_350\n      jump\t// in\n    tag_530:\n        /* \"#utility.yul\":13188:14019   */\n      swap7\n      swap6\n      pop\n      pop\n      pop\n      pop\n      pop\n      pop\n      jump\t// out\n        /* \"#utility.yul\":14025:14250   */\n    tag_371:\n        /* \"#utility.yul\":14165:14199   */\n      0x4f776e61626c653a206e6577206f776e657220697320746865207a65726f2061\n        /* \"#utility.yul\":14161:14162   */\n      0x00\n        /* \"#utility.yul\":14153:14159   */\n      dup3\n        /* \"#utility.yul\":14149:14163   */\n      add\n        /* \"#utility.yul\":14142:14200   */\n      mstore\n        /* \"#utility.yul\":14234:14242   */\n      0x6464726573730000000000000000000000000000000000000000000000000000\n        /* \"#utility.yul\":14229:14231   */\n      0x20\n        /* \"#utility.yul\":14221:14227   */\n      dup3\n        /* \"#utility.yul\":14217:14232   */\n      add\n        /* \"#utility.yul\":14210:14243   */\n      mstore\n        /* \"#utility.yul\":14025:14250   */\n      pop\n      jump\t// out\n        /* \"#utility.yul\":14256:14622   */\n    tag_372:\n        /* \"#utility.yul\":14398:14401   */\n      0x00\n        /* \"#utility.yul\":14419:14486   */\n      tag_533\n        /* \"#utility.yul\":14483:14485   */\n      0x26\n        /* \"#utility.yul\":14478:14481   */\n      dup4\n        /* \"#utility.yul\":14419:14486   */\n      tag_329\n      jump\t// in\n    tag_533:\n        /* \"#utility.yul\":14412:14486   */\n      swap2\n      pop\n        /* \"#utility.yul\":14495:14588   */\n      tag_534\n        /* \"#utility.yul\":14584:14587   */\n      dup3\n        /* \"#utility.yul\":14495:14588   */\n      tag_371\n      jump\t// in\n    tag_534:\n        /* \"#utility.yul\":14613:14615   */\n      0x40\n        /* \"#utility.yul\":14608:14611   */\n      dup3\n        /* \"#utility.yul\":14604:14616   */\n      add\n        /* \"#utility.yul\":14597:14616   */\n      swap1\n      pop\n        /* \"#utility.yul\":14256:14622   */\n      swap2\n      swap1\n      pop\n      jump\t// out\n        /* \"#utility.yul\":14628:15047   */\n    tag_243:\n        /* \"#utility.yul\":14794:14798   */\n      0x00\n        /* \"#utility.yul\":14832:14834   */\n      0x20\n        /* \"#utility.yul\":14821:14830   */\n      dup3\n        /* \"#utility.yul\":14817:14835   */\n      add\n        /* \"#utility.yul\":14809:14835   */\n      swap1\n      pop\n        /* \"#utility.yul\":14881:14890   */\n      dup2\n        /* \"#utility.yul\":14875:14879   */\n      dup2\n        /* \"#utility.yul\":14871:14891   */\n      sub\n        /* \"#utility.yul\":14867:14868   */\n      0x00\n        /* \"#utility.yul\":14856:14865   */\n      dup4\n        /* \"#utility.yul\":14852:14869   */\n      add\n        /* \"#utility.yul\":14845:14892   */\n      mstore\n        /* \"#utility.yul\":14909:15040   */\n      tag_536\n        /* \"#utility.yul\":15035:15039   */\n      dup2\n        /* \"#utility.yul\":14909:15040   */\n      tag_372\n      jump\t// in\n    tag_536:\n        /* \"#utility.yul\":14901:15040   */\n      swap1\n      pop\n        /* \"#utility.yul\":14628:15047   */\n      swap2\n      swap1\n      pop\n      jump\t// out\n        /* \"#utility.yul\":15053:15275   */\n    tag_373:\n        /* \"#utility.yul\":15193:15227   */\n      0x4245453a207472616e736665722066726f6d20746865207a65726f2061646472\n        /* \"#utility.yul\":15189:15190   */\n      0x00\n        /* \"#utility.yul\":15181:15187   */\n      dup3\n        /* \"#utility.yul\":15177:15191   */\n      add\n        /* \"#utility.yul\":15170:15228   */\n      mstore\n        /* \"#utility.yul\":15262:15267   */\n      0x6573730000000000000000000000000000000000000000000000000000000000\n        /* \"#utility.yul\":15257:15259   */\n      0x20\n        /* \"#utility.yul\":15249:15255   */\n      dup3\n        /* \"#utility.yul\":15245:15260   */\n      add\n        /* \"#utility.yul\":15238:15268   */\n      mstore\n        /* \"#utility.yul\":15053:15275   */\n      pop\n      jump\t// out\n        /* \"#utility.yul\":15281:15647   */\n    tag_374:\n        /* \"#utility.yul\":15423:15426   */\n      0x00\n        /* \"#utility.yul\":15444:15511   */\n      tag_539\n        /* \"#utility.yul\":15508:15510   */\n      0x23\n        /* \"#utility.yul\":15503:15506   */\n      dup4\n        /* \"#utility.yul\":15444:15511   */\n      tag_329\n      jump\t// in\n    tag_539:\n        /* \"#utility.yul\":15437:15511   */\n      swap2\n      pop\n        /* \"#utility.yul\":15520:15613   */\n      tag_540\n        /* \"#utility.yul\":15609:15612   */\n      dup3\n        /* \"#utility.yul\":15520:15613   */\n      tag_373\n      jump\t// in\n    tag_540:\n        /* \"#utility.yul\":15638:15640   */\n      0x40\n        /* \"#utility.yul\":15633:15636   */\n      dup3\n        /* \"#utility.yul\":15629:15641   */\n      add\n        /* \"#utility.yul\":15622:15641   */\n      swap1\n      pop\n        /* \"#utility.yul\":15281:15647   */\n      swap2\n      swap1\n      pop\n      jump\t// out\n        /* \"#utility.yul\":15653:16072   */\n    tag_257:\n        /* \"#utility.yul\":15819:15823   */\n      0x00\n        /* \"#utility.yul\":15857:15859   */\n      0x20\n        /* \"#utility.yul\":15846:15855   */\n      dup3\n        /* \"#utility.yul\":15842:15860   */\n      add\n        /* \"#utility.yul\":15834:15860   */\n      swap1\n      pop\n        /* \"#utility.yul\":15906:15915   */\n      dup2\n        /* \"#utility.yul\":15900:15904   */\n      dup2\n        /* \"#utility.yul\":15896:15916   */\n      sub\n        /* \"#utility.yul\":15892:15893   */\n      0x00\n        /* \"#utility.yul\":15881:15890   */\n      dup4\n        /* \"#utility.yul\":15877:15894   */\n      add\n        /* \"#utility.yul\":15870:15917   */\n      mstore\n        /* \"#utility.yul\":15934:16065   */\n      tag_542\n        /* \"#utility.yul\":16060:16064   */\n      dup2\n        /* \"#utility.yul\":15934:16065   */\n      tag_374\n      jump\t// in\n    tag_542:\n        /* \"#utility.yul\":15926:16065   */\n      swap1\n      pop\n        /* \"#utility.yul\":15653:16072   */\n      swap2\n      swap1\n      pop\n      jump\t// out\n        /* \"#utility.yul\":16078:16298   */\n    tag_375:\n        /* \"#utility.yul\":16218:16252   */\n      0x4245453a207472616e7366657220746f20746865207a65726f20616464726573\n        /* \"#utility.yul\":16214:16215   */\n      0x00\n        /* \"#utility.yul\":16206:16212   */\n      dup3\n        /* \"#utility.yul\":16202:16216   */\n      add\n        /* \"#utility.yul\":16195:16253   */\n      mstore\n        /* \"#utility.yul\":16287:16290   */\n      0x7300000000000000000000000000000000000000000000000000000000000000\n        /* \"#utility.yul\":16282:16284   */\n      0x20\n        /* \"#utility.yul\":16274:16280   */\n      dup3\n        /* \"#utility.yul\":16270:16285   */\n      add\n        /* \"#utility.yul\":16263:16291   */\n      mstore\n        /* \"#utility.yul\":16078:16298   */\n      pop\n      jump\t// out\n        /* \"#utility.yul\":16304:16670   */\n    tag_376:\n        /* \"#utility.yul\":16446:16449   */\n      0x00\n        /* \"#utility.yul\":16467:16534   */\n      tag_545\n        /* \"#utility.yul\":16531:16533   */\n      0x21\n        /* \"#utility.yul\":16526:16529   */\n      dup4\n        /* \"#utility.yul\":16467:16534   */\n      tag_329\n      jump\t// in\n    tag_545:\n        /* \"#utility.yul\":16460:16534   */\n      swap2\n      pop\n        /* \"#utility.yul\":16543:16636   */\n      tag_546\n        /* \"#utility.yul\":16632:16635   */\n      dup3\n        /* \"#utility.yul\":16543:16636   */\n      tag_375\n      jump\t// in\n    tag_546:\n        /* \"#utility.yul\":16661:16663   */\n      0x40\n        /* \"#utility.yul\":16656:16659   */\n      dup3\n        /* \"#utility.yul\":16652:16664   */\n      add\n        /* \"#utility.yul\":16645:16664   */\n      swap1\n      pop\n        /* \"#utility.yul\":16304:16670   */\n      swap2\n      swap1\n      pop\n      jump\t// out\n        /* \"#utility.yul\":16676:17095   */\n    tag_260:\n        /* \"#utility.yul\":16842:16846   */\n      0x00\n        /* \"#utility.yul\":16880:16882   */\n      0x20\n        /* \"#utility.yul\":16869:16878   */\n      dup3\n        /* \"#utility.yul\":16865:16883   */\n      add\n        /* \"#utility.yul\":16857:16883   */\n      swap1\n      pop\n        /* \"#utility.yul\":16929:16938   */\n      dup2\n        /* \"#utility.yul\":16923:16927   */\n      dup2\n        /* \"#utility.yul\":16919:16939   */\n      sub\n        /* \"#utility.yul\":16915:16916   */\n      0x00\n        /* \"#utility.yul\":16904:16913   */\n      dup4\n        /* \"#utility.yul\":16900:16917   */\n      add\n        /* \"#utility.yul\":16893:16940   */\n      mstore\n        /* \"#utility.yul\":16957:17088   */\n      tag_548\n        /* \"#utility.yul\":17083:17087   */\n      dup2\n        /* \"#utility.yul\":16957:17088   */\n      tag_376\n      jump\t// in\n    tag_548:\n        /* \"#utility.yul\":16949:17088   */\n      swap1\n      pop\n        /* \"#utility.yul\":16676:17095   */\n      swap2\n      swap1\n      pop\n      jump\t// out\n        /* \"#utility.yul\":17101:17324   */\n    tag_377:\n        /* \"#utility.yul\":17241:17275   */\n      0x4245453a207472616e7366657220616d6f756e7420657863656564732062616c\n        /* \"#utility.yul\":17237:17238   */\n      0x00\n        /* \"#utility.yul\":17229:17235   */\n      dup3\n        /* \"#utility.yul\":17225:17239   */\n      add\n        /* \"#utility.yul\":17218:17276   */\n      mstore\n        /* \"#utility.yul\":17310:17316   */\n      0x616e636500000000000000000000000000000000000000000000000000000000\n        /* \"#utility.yul\":17305:17307   */\n      0x20\n        /* \"#utility.yul\":17297:17303   */\n      dup3\n        /* \"#utility.yul\":17293:17308   */\n      add\n        /* \"#utility.yul\":17286:17317   */\n      mstore\n        /* \"#utility.yul\":17101:17324   */\n      pop\n      jump\t// out\n        /* \"#utility.yul\":17330:17696   */\n    tag_378:\n        /* \"#utility.yul\":17472:17475   */\n      0x00\n        /* \"#utility.yul\":17493:17560   */\n      tag_551\n        /* \"#utility.yul\":17557:17559   */\n      0x24\n        /* \"#utility.yul\":17552:17555   */\n      dup4\n        /* \"#utility.yul\":17493:17560   */\n      tag_329\n      jump\t// in\n    tag_551:\n        /* \"#utility.yul\":17486:17560   */\n      swap2\n      pop\n        /* \"#utility.yul\":17569:17662   */\n      tag_552\n        /* \"#utility.yul\":17658:17661   */\n      dup3\n        /* \"#utility.yul\":17569:17662   */\n      tag_377\n      jump\t// in\n    tag_552:\n        /* \"#utility.yul\":17687:17689   */\n      0x40\n        /* \"#utility.yul\":17682:17685   */\n      dup3\n        /* \"#utility.yul\":17678:17690   */\n      add\n        /* \"#utility.yul\":17671:17690   */\n      swap1\n      pop\n        /* \"#utility.yul\":17330:17696   */\n      swap2\n      swap1\n      pop\n      jump\t// out\n        /* \"#utility.yul\":17702:18121   */\n    tag_263:\n        /* \"#utility.yul\":17868:17872   */\n      0x00\n        /* \"#utility.yul\":17906:17908   */\n      0x20\n        /* \"#utility.yul\":17895:17904   */\n      dup3\n        /* \"#utility.yul\":17891:17909   */\n      add\n        /* \"#utility.yul\":17883:17909   */\n      swap1\n      pop\n        /* \"#utility.yul\":17955:17964   */\n      dup2\n        /* \"#utility.yul\":17949:17953   */\n      dup2\n        /* \"#utility.yul\":17945:17965   */\n      sub\n        /* \"#utility.yul\":17941:17942   */\n      0x00\n        /* \"#utility.yul\":17930:17939   */\n      dup4\n        /* \"#utility.yul\":17926:17943   */\n      add\n        /* \"#utility.yul\":17919:17966   */\n      mstore\n        /* \"#utility.yul\":17983:18114   */\n      tag_554\n        /* \"#utility.yul\":18109:18113   */\n      dup2\n        /* \"#utility.yul\":17983:18114   */\n      tag_378\n      jump\t// in\n    tag_554:\n        /* \"#utility.yul\":17975:18114   */\n      swap1\n      pop\n        /* \"#utility.yul\":17702:18121   */\n      swap2\n      swap1\n      pop\n      jump\t// out\n        /* \"#utility.yul\":18127:18308   */\n    tag_379:\n        /* \"#utility.yul\":18267:18300   */\n      0x4245453a206275726e2066726f6d20746865207a65726f206164647265737300\n        /* \"#utility.yul\":18263:18264   */\n      0x00\n        /* \"#utility.yul\":18255:18261   */\n      dup3\n        /* \"#utility.yul\":18251:18265   */\n      add\n        /* \"#utility.yul\":18244:18301   */\n      mstore\n        /* \"#utility.yul\":18127:18308   */\n      pop\n      jump\t// out\n        /* \"#utility.yul\":18314:18680   */\n    tag_380:\n        /* \"#utility.yul\":18456:18459   */\n      0x00\n        /* \"#utility.yul\":18477:18544   */\n      tag_557\n        /* \"#utility.yul\":18541:18543   */\n      0x1f\n        /* \"#utility.yul\":18536:18539   */\n      dup4\n        /* \"#utility.yul\":18477:18544   */\n      tag_329\n      jump\t// in\n    tag_557:\n        /* \"#utility.yul\":18470:18544   */\n      swap2\n      pop\n        /* \"#utility.yul\":18553:18646   */\n      tag_558\n        /* \"#utility.yul\":18642:18645   */\n      dup3\n        /* \"#utility.yul\":18553:18646   */\n      tag_379\n      jump\t// in\n    tag_558:\n        /* \"#utility.yul\":18671:18673   */\n      0x20\n        /* \"#utility.yul\":18666:18669   */\n      dup3\n        /* \"#utility.yul\":18662:18674   */\n      add\n        /* \"#utility.yul\":18655:18674   */\n      swap1\n      pop\n        /* \"#utility.yul\":18314:18680   */\n      swap2\n      swap1\n      pop\n      jump\t// out\n        /* \"#utility.yul\":18686:19105   */\n    tag_292:\n        /* \"#utility.yul\":18852:18856   */\n      0x00\n        /* \"#utility.yul\":18890:18892   */\n      0x20\n        /* \"#utility.yul\":18879:18888   */\n      dup3\n        /* \"#utility.yul\":18875:18893   */\n      add\n        /* \"#utility.yul\":18867:18893   */\n      swap1\n      pop\n        /* \"#utility.yul\":18939:18948   */\n      dup2\n        /* \"#utility.yul\":18933:18937   */\n      dup2\n        /* \"#utility.yul\":18929:18949   */\n      sub\n        /* \"#utility.yul\":18925:18926   */\n      0x00\n        /* \"#utility.yul\":18914:18923   */\n      dup4\n        /* \"#utility.yul\":18910:18927   */\n      add\n        /* \"#utility.yul\":18903:18950   */\n      mstore\n        /* \"#utility.yul\":18967:19098   */\n      tag_560\n        /* \"#utility.yul\":19093:19097   */\n      dup2\n        /* \"#utility.yul\":18967:19098   */\n      tag_380\n      jump\t// in\n    tag_560:\n        /* \"#utility.yul\":18959:19098   */\n      swap1\n      pop\n        /* \"#utility.yul\":18686:19105   */\n      swap2\n      swap1\n      pop\n      jump\t// out\n        /* \"#utility.yul\":19111:19293   */\n    tag_381:\n        /* \"#utility.yul\":19251:19285   */\n      0x4245453a206275726e20616d6f756e7420657863656564732062616c616e6365\n        /* \"#utility.yul\":19247:19248   */\n      0x00\n        /* \"#utility.yul\":19239:19245   */\n      dup3\n        /* \"#utility.yul\":19235:19249   */\n      add\n        /* \"#utility.yul\":19228:19286   */\n      mstore\n        /* \"#utility.yul\":19111:19293   */\n      pop\n      jump\t// out\n        /* \"#utility.yul\":19299:19665   */\n    tag_382:\n        /* \"#utility.yul\":19441:19444   */\n      0x00\n        /* \"#utility.yul\":19462:19529   */\n      tag_563\n        /* \"#utility.yul\":19526:19528   */\n      0x20\n        /* \"#utility.yul\":19521:19524   */\n      dup4\n        /* \"#utility.yul\":19462:19529   */\n      tag_329\n      jump\t// in\n    tag_563:\n        /* \"#utility.yul\":19455:19529   */\n      swap2\n      pop\n        /* \"#utility.yul\":19538:19631   */\n      tag_564\n        /* \"#utility.yul\":19627:19630   */\n      dup3\n        /* \"#utility.yul\":19538:19631   */\n      tag_381\n      jump\t// in\n    tag_564:\n        /* \"#utility.yul\":19656:19658   */\n      0x20\n        /* \"#utility.yul\":19651:19654   */\n      dup3\n        /* \"#utility.yul\":19647:19659   */\n      add\n        /* \"#utility.yul\":19640:19659   */\n      swap1\n      pop\n        /* \"#utility.yul\":19299:19665   */\n      swap2\n      swap1\n      pop\n      jump\t// out\n        /* \"#utility.yul\":19671:20090   */\n    tag_295:\n        /* \"#utility.yul\":19837:19841   */\n      0x00\n        /* \"#utility.yul\":19875:19877   */\n      0x20\n        /* \"#utility.yul\":19864:19873   */\n      dup3\n        /* \"#utility.yul\":19860:19878   */\n      add\n        /* \"#utility.yul\":19852:19878   */\n      swap1\n      pop\n        /* \"#utility.yul\":19924:19933   */\n      dup2\n        /* \"#utility.yul\":19918:19922   */\n      dup2\n        /* \"#utility.yul\":19914:19934   */\n      sub\n        /* \"#utility.yul\":19910:19911   */\n      0x00\n        /* \"#utility.yul\":19899:19908   */\n      dup4\n        /* \"#utility.yul\":19895:19912   */\n      add\n        /* \"#utility.yul\":19888:19935   */\n      mstore\n        /* \"#utility.yul\":19952:20083   */\n      tag_566\n        /* \"#utility.yul\":20078:20082   */\n      dup2\n        /* \"#utility.yul\":19952:20083   */\n      tag_382\n      jump\t// in\n    tag_566:\n        /* \"#utility.yul\":19944:20083   */\n      swap1\n      pop\n        /* \"#utility.yul\":19671:20090   */\n      swap2\n      swap1\n      pop\n      jump\t// out\n        /* \"#utility.yul\":20096:20290   */\n    tag_297:\n        /* \"#utility.yul\":20136:20140   */\n      0x00\n        /* \"#utility.yul\":20156:20176   */\n      tag_568\n        /* \"#utility.yul\":20174:20175   */\n      dup3\n        /* \"#utility.yul\":20156:20176   */\n      tag_340\n      jump\t// in\n    tag_568:\n        /* \"#utility.yul\":20151:20176   */\n      swap2\n      pop\n        /* \"#utility.yul\":20190:20210   */\n      tag_569\n        /* \"#utility.yul\":20208:20209   */\n      dup4\n        /* \"#utility.yul\":20190:20210   */\n      tag_340\n      jump\t// in\n    tag_569:\n        /* \"#utility.yul\":20185:20210   */\n      swap3\n      pop\n        /* \"#utility.yul\":20234:20235   */\n      dup3\n        /* \"#utility.yul\":20231:20232   */\n      dup3\n        /* \"#utility.yul\":20227:20236   */\n      sub\n        /* \"#utility.yul\":20219:20236   */\n      swap1\n      pop\n        /* \"#utility.yul\":20258:20259   */\n      dup2\n        /* \"#utility.yul\":20252:20256   */\n      dup2\n        /* \"#utility.yul\":20249:20260   */\n      gt\n        /* \"#utility.yul\":20246:20283   */\n      iszero\n      tag_570\n      jumpi\n        /* \"#utility.yul\":20263:20281   */\n      tag_571\n      tag_356\n      jump\t// in\n    tag_571:\n        /* \"#utility.yul\":20246:20283   */\n    tag_570:\n        /* \"#utility.yul\":20096:20290   */\n      swap3\n      swap2\n      pop\n      pop\n      jump\t// out\n        /* \"#utility.yul\":20296:20706   */\n    tag_303:\n        /* \"#utility.yul\":20336:20343   */\n      0x00\n        /* \"#utility.yul\":20359:20379   */\n      tag_573\n        /* \"#utility.yul\":20377:20378   */\n      dup3\n        /* \"#utility.yul\":20359:20379   */\n      tag_340\n      jump\t// in\n    tag_573:\n        /* \"#utility.yul\":20354:20379   */\n      swap2\n      pop\n        /* \"#utility.yul\":20393:20413   */\n      tag_574\n        /* \"#utility.yul\":20411:20412   */\n      dup4\n        /* \"#utility.yul\":20393:20413   */\n      tag_340\n      jump\t// in\n    tag_574:\n        /* \"#utility.yul\":20388:20413   */\n      swap3\n      pop\n        /* \"#utility.yul\":20448:20449   */\n      dup3\n        /* \"#utility.yul\":20445:20446   */\n      dup3\n        /* \"#utility.yul\":20441:20450   */\n      mul\n        /* \"#utility.yul\":20470:20500   */\n      tag_575\n        /* \"#utility.yul\":20488:20499   */\n      dup2\n        /* \"#utility.yul\":20470:20500   */\n      tag_340\n      jump\t// in\n    tag_575:\n        /* \"#utility.yul\":20459:20500   */\n      swap2\n      pop\n        /* \"#utility.yul\":20649:20650   */\n      dup3\n        /* \"#utility.yul\":20640:20647   */\n      dup3\n        /* \"#utility.yul\":20636:20651   */\n      div\n        /* \"#utility.yul\":20633:20634   */\n      dup5\n        /* \"#utility.yul\":20630:20652   */\n      eq\n        /* \"#utility.yul\":20610:20611   */\n      dup4\n        /* \"#utility.yul\":20603:20612   */\n      iszero\n        /* \"#utility.yul\":20583:20666   */\n      or\n        /* \"#utility.yul\":20560:20699   */\n      tag_576\n      jumpi\n        /* \"#utility.yul\":20679:20697   */\n      tag_577\n      tag_356\n      jump\t// in\n    tag_577:\n        /* \"#utility.yul\":20560:20699   */\n    tag_576:\n        /* \"#utility.yul\":20344:20706   */\n      pop\n        /* \"#utility.yul\":20296:20706   */\n      swap3\n      swap2\n      pop\n      pop\n      jump\t// out\n        /* \"#utility.yul\":20712:20892   */\n    tag_383:\n        /* \"#utility.yul\":20760:20837   */\n      0x4e487b7100000000000000000000000000000000000000000000000000000000\n        /* \"#utility.yul\":20757:20758   */\n      0x00\n        /* \"#utility.yul\":20750:20838   */\n      mstore\n        /* \"#utility.yul\":20857:20861   */\n      0x12\n        /* \"#utility.yul\":20854:20855   */\n      0x04\n        /* \"#utility.yul\":20847:20862   */\n      mstore\n        /* \"#utility.yul\":20881:20885   */\n      0x24\n        /* \"#utility.yul\":20878:20879   */\n      0x00\n        /* \"#utility.yul\":20871:20886   */\n      revert\n        /* \"#utility.yul\":20898:21083   */\n    tag_305:\n        /* \"#utility.yul\":20938:20939   */\n      0x00\n        /* \"#utility.yul\":20955:20975   */\n      tag_580\n        /* \"#utility.yul\":20973:20974   */\n      dup3\n        /* \"#utility.yul\":20955:20975   */\n      tag_340\n      jump\t// in\n    tag_580:\n        /* \"#utility.yul\":20950:20975   */\n      swap2\n      pop\n        /* \"#utility.yul\":20989:21009   */\n      tag_581\n        /* \"#utility.yul\":21007:21008   */\n      dup4\n        /* \"#utility.yul\":20989:21009   */\n      tag_340\n      jump\t// in\n    tag_581:\n        /* \"#utility.yul\":20984:21009   */\n      swap3\n      pop\n        /* \"#utility.yul\":21028:21029   */\n      dup3\n        /* \"#utility.yul\":21018:21053   */\n      tag_582\n      jumpi\n        /* \"#utility.yul\":21033:21051   */\n      tag_583\n      tag_383\n      jump\t// in\n    tag_583:\n        /* \"#utility.yul\":21018:21053   */\n    tag_582:\n        /* \"#utility.yul\":21075:21076   */\n      dup3\n        /* \"#utility.yul\":21072:21073   */\n      dup3\n        /* \"#utility.yul\":21068:21077   */\n      div\n        /* \"#utility.yul\":21063:21077   */\n      swap1\n      pop\n        /* \"#utility.yul\":20898:21083   */\n      swap3\n      swap2\n      pop\n      pop\n      jump\t// out\n        /* \"#utility.yul\":21089:21309   */\n    tag_384:\n        /* \"#utility.yul\":21229:21263   */\n      0x536166654d6174683a206d756c7469706c69636174696f6e206f766572666c6f\n        /* \"#utility.yul\":21225:21226   */\n      0x00\n        /* \"#utility.yul\":21217:21223   */\n      dup3\n        /* \"#utility.yul\":21213:21227   */\n      add\n        /* \"#utility.yul\":21206:21264   */\n      mstore\n        /* \"#utility.yul\":21298:21301   */\n      0x7700000000000000000000000000000000000000000000000000000000000000\n        /* \"#utility.yul\":21293:21295   */\n      0x20\n        /* \"#utility.yul\":21285:21291   */\n      dup3\n        /* \"#utility.yul\":21281:21296   */\n      add\n        /* \"#utility.yul\":21274:21302   */\n      mstore\n        /* \"#utility.yul\":21089:21309   */\n      pop\n      jump\t// out\n        /* \"#utility.yul\":21315:21681   */\n    tag_385:\n        /* \"#utility.yul\":21457:21460   */\n      0x00\n        /* \"#utility.yul\":21478:21545   */\n      tag_586\n        /* \"#utility.yul\":21542:21544   */\n      0x21\n        /* \"#utility.yul\":21537:21540   */\n      dup4\n        /* \"#utility.yul\":21478:21545   */\n      tag_329\n      jump\t// in\n    tag_586:\n        /* \"#utility.yul\":21471:21545   */\n      swap2\n      pop\n        /* \"#utility.yul\":21554:21647   */\n      tag_587\n        /* \"#utility.yul\":21643:21646   */\n      dup3\n        /* \"#utility.yul\":21554:21647   */\n      tag_384\n      jump\t// in\n    tag_587:\n        /* \"#utility.yul\":21672:21674   */\n      0x40\n        /* \"#utility.yul\":21667:21670   */\n      dup3\n        /* \"#utility.yul\":21663:21675   */\n      add\n        /* \"#utility.yul\":21656:21675   */\n      swap1\n      pop\n        /* \"#utility.yul\":21315:21681   */\n      swap2\n      swap1\n      pop\n      jump\t// out\n        /* \"#utility.yul\":21687:22106   */\n    tag_308:\n        /* \"#utility.yul\":21853:21857   */\n      0x00\n        /* \"#utility.yul\":21891:21893   */\n      0x20\n        /* \"#utility.yul\":21880:21889   */\n      dup3\n        /* \"#utility.yul\":21876:21894   */\n      add\n        /* \"#utility.yul\":21868:21894   */\n      swap1\n      pop\n        /* \"#utility.yul\":21940:21949   */\n      dup2\n        /* \"#utility.yul\":21934:21938   */\n      dup2\n        /* \"#utility.yul\":21930:21950   */\n      sub\n        /* \"#utility.yul\":21926:21927   */\n      0x00\n        /* \"#utility.yul\":21915:21924   */\n      dup4\n        /* \"#utility.yul\":21911:21928   */\n      add\n        /* \"#utility.yul\":21904:21951   */\n      mstore\n        /* \"#utility.yul\":21968:22099   */\n      tag_589\n        /* \"#utility.yul\":22094:22098   */\n      dup2\n        /* \"#utility.yul\":21968:22099   */\n      tag_385\n      jump\t// in\n    tag_589:\n        /* \"#utility.yul\":21960:22099   */\n      swap1\n      pop\n        /* \"#utility.yul\":21687:22106   */\n      swap2\n      swap1\n      pop\n      jump\t// out\n        /* \"#utility.yul\":22112:22289   */\n    tag_386:\n        /* \"#utility.yul\":22252:22281   */\n      0x536166654d6174683a206164646974696f6e206f766572666c6f770000000000\n        /* \"#utility.yul\":22248:22249   */\n      0x00\n        /* \"#utility.yul\":22240:22246   */\n      dup3\n        /* \"#utility.yul\":22236:22250   */\n      add\n        /* \"#utility.yul\":22229:22282   */\n      mstore\n        /* \"#utility.yul\":22112:22289   */\n      pop\n      jump\t// out\n        /* \"#utility.yul\":22295:22661   */\n    tag_387:\n        /* \"#utility.yul\":22437:22440   */\n      0x00\n        /* \"#utility.yul\":22458:22525   */\n      tag_592\n        /* \"#utility.yul\":22522:22524   */\n      0x1b\n        /* \"#utility.yul\":22517:22520   */\n      dup4\n        /* \"#utility.yul\":22458:22525   */\n      tag_329\n      jump\t// in\n    tag_592:\n        /* \"#utility.yul\":22451:22525   */\n      swap2\n      pop\n        /* \"#utility.yul\":22534:22627   */\n      tag_593\n        /* \"#utility.yul\":22623:22626   */\n      dup3\n        /* \"#utility.yul\":22534:22627   */\n      tag_386\n      jump\t// in\n    tag_593:\n        /* \"#utility.yul\":22652:22654   */\n      0x20\n        /* \"#utility.yul\":22647:22650   */\n      dup3\n        /* \"#utility.yul\":22643:22655   */\n      add\n        /* \"#utility.yul\":22636:22655   */\n      swap1\n      pop\n        /* \"#utility.yul\":22295:22661   */\n      swap2\n      swap1\n      pop\n      jump\t// out\n        /* \"#utility.yul\":22667:23086   */\n    tag_316:\n        /* \"#utility.yul\":22833:22837   */\n      0x00\n        /* \"#utility.yul\":22871:22873   */\n      0x20\n        /* \"#utility.yul\":22860:22869   */\n      dup3\n        /* \"#utility.yul\":22856:22874   */\n      add\n        /* \"#utility.yul\":22848:22874   */\n      swap1\n      pop\n        /* \"#utility.yul\":22920:22929   */\n      dup2\n        /* \"#utility.yul\":22914:22918   */\n      dup2\n        /* \"#utility.yul\":22910:22930   */\n      sub\n        /* \"#utility.yul\":22906:22907   */\n      0x00\n        /* \"#utility.yul\":22895:22904   */\n      dup4\n        /* \"#utility.yul\":22891:22908   */\n      add\n        /* \"#utility.yul\":22884:22931   */\n      mstore\n        /* \"#utility.yul\":22948:23079   */\n      tag_595\n        /* \"#utility.yul\":23074:23078   */\n      dup2\n        /* \"#utility.yul\":22948:23079   */\n      tag_387\n      jump\t// in\n    tag_595:\n        /* \"#utility.yul\":22940:23079   */\n      swap1\n      pop\n        /* \"#utility.yul\":22667:23086   */\n      swap2\n      swap1\n      pop\n      jump\t// out\n\n    auxdata: 0xa2646970667358221220726882bbd294d92f93a64b34c99926236d276d63331e1d21dc985b6b538b2ca864736f6c63430008110033\n}\n",
				"bytecode": {
					"linkReferences": {},
					"object": "60e060405273d3c0b6aa1538d639912789be705f18b5fd89fce6600860016101000a81548173ffffffffffffffffffffffffffffffffffffffff021916908373ffffffffffffffffffffffffffffffffffffffff160217905550737ef95a0fee0dd31b22626fa2e10ee6a223f8a684600960006101000a81548173ffffffffffffffffffffffffffffffffffffffff021916908373ffffffffffffffffffffffffffffffffffffffff160217905550348015620000bb57600080fd5b50620000dc620000d06200057360201b60201c565b6200057b60201b60201c565b62000108620000f06200057360201b60201c565b6a0878678326eac9000000006200063f60201b60201c565b620001186200057360201b60201c565b73ffffffffffffffffffffffffffffffffffffffff16600073ffffffffffffffffffffffffffffffffffffffff167fddf252ad1be2c89b69c2b068fc378daa952ba7f163c4a11628f55a4df523b3ef6a0878678326eac90000000060405162000182919062000775565b60405180910390a36000739ac64cc6e4415144c455bd8e4837fea55603e5c390508073ffffffffffffffffffffffffffffffffffffffff1663c45a01556040518163ffffffff1660e01b8152600401602060405180830381865afa158015620001ef573d6000803e3d6000fd5b505050506040513d601f19601f82011682018060405250810190620002159190620007fc565b73ffffffffffffffffffffffffffffffffffffffff1663c9c65396308373ffffffffffffffffffffffffffffffffffffffff1663ad5c46486040518163ffffffff1660e01b8152600401602060405180830381865afa1580156200027d573d6000803e3d6000fd5b505050506040513d601f19601f82011682018060405250810190620002a39190620007fc565b6040518363ffffffff1660e01b8152600401620002c29291906200083f565b6020604051808303816000875af1158015620002e2573d6000803e3d6000fd5b505050506040513d601f19601f82011682018060405250810190620003089190620007fc565b73ffffffffffffffffffffffffffffffffffffffff1660a08173ffffffffffffffffffffffffffffffffffffffff16815250508073ffffffffffffffffffffffffffffffffffffffff1663c45a01556040518163ffffffff1660e01b8152600401602060405180830381865afa15801562000387573d6000803e3d6000fd5b505050506040513d601f19601f82011682018060405250810190620003ad9190620007fc565b73ffffffffffffffffffffffffffffffffffffffff1663c9c6539630600960009054906101000a900473ffffffffffffffffffffffffffffffffffffffff166040518363ffffffff1660e01b81526004016200040b9291906200083f565b6020604051808303816000875af11580156200042b573d6000803e3d6000fd5b505050506040513d601f19601f82011682018060405250810190620004519190620007fc565b73ffffffffffffffffffffffffffffffffffffffff1660c08173ffffffffffffffffffffffffffffffffffffffff16815250508073ffffffffffffffffffffffffffffffffffffffff1660808173ffffffffffffffffffffffffffffffffffffffff168152505060016007600060a05173ffffffffffffffffffffffffffffffffffffffff1673ffffffffffffffffffffffffffffffffffffffff16815260200190815260200160002060006101000a81548160ff02191690831515021790555060016007600060c05173ffffffffffffffffffffffffffffffffffffffff1673ffffffffffffffffffffffffffffffffffffffff16815260200190815260200160002060006101000a81548160ff0219169083151502179055505062000904565b600033905090565b60008060009054906101000a900473ffffffffffffffffffffffffffffffffffffffff169050816000806101000a81548173ffffffffffffffffffffffffffffffffffffffff021916908373ffffffffffffffffffffffffffffffffffffffff1602179055508173ffffffffffffffffffffffffffffffffffffffff168173ffffffffffffffffffffffffffffffffffffffff167f8be0079c531659141344cd1fd0a4f28419497f9722a3daafe3b4186f6b6457e060405160405180910390a35050565b80600160008473ffffffffffffffffffffffffffffffffffffffff1673ffffffffffffffffffffffffffffffffffffffff16815260200190815260200160002060008282546200069091906200089b565b925050819055508060036000828254620006ab91906200089b565b925050819055508173ffffffffffffffffffffffffffffffffffffffff16600073ffffffffffffffffffffffffffffffffffffffff167fddf252ad1be2c89b69c2b068fc378daa952ba7f163c4a11628f55a4df523b3ef83604051620007129190620008e7565b60405180910390a35050565b6000819050919050565b6000819050919050565b6000819050919050565b60006200075d6200075762000751846200071e565b62000732565b62000728565b9050919050565b6200076f816200073c565b82525050565b60006020820190506200078c600083018462000764565b92915050565b600080fd5b600073ffffffffffffffffffffffffffffffffffffffff82169050919050565b6000620007c48262000797565b9050919050565b620007d681620007b7565b8114620007e257600080fd5b50565b600081519050620007f681620007cb565b92915050565b60006020828403121562000815576200081462000792565b5b60006200082584828501620007e5565b91505092915050565b6200083981620007b7565b82525050565b60006040820190506200085660008301856200082e565b6200086560208301846200082e565b9392505050565b7f4e487b7100000000000000000000000000000000000000000000000000000000600052601160045260246000fd5b6000620008a88262000728565b9150620008b58362000728565b9250828201905080821115620008d057620008cf6200086c565b5b92915050565b620008e18162000728565b82525050565b6000602082019050620008fe6000830184620008d6565b92915050565b60805160a05160c051612b7162000949600039600061079c0152600061088901526000818161067601528181610f7a01528181610fa101526115850152612b716000f3fe60806040526004361061016a5760003560e01c8063715018a6116100d1578063a8808fcc1161008a578063dd62ed3e11610064578063dd62ed3e1461054d578063dec1a6f61461058a578063f2fde38b146105c7578063fae92612146105f057610171565b8063a8808fcc146104be578063a9059cbb146104e7578063ce0594aa1461052457610171565b8063715018a6146103be57806388af60c6146103d55780638da5cb5b14610400578063956236411461042b57806395d89b4114610456578063a457c2d71461048157610171565b8063313ce56711610123578063313ce5671461029c57806339509351146102c757806342966c681461030457806349bd5a5e1461032d578063536db2661461035857806370a082311461038157610171565b806306fdde0314610176578063095ea7b3146101a15780631694505e146101de57806318160ddd1461020957806323b872dd146102345780632aafa2831461027157610171565b3661017157005b600080fd5b34801561018257600080fd5b5061018b610619565b6040516101989190611f80565b60405180910390f35b3480156101ad57600080fd5b506101c860048036038101906101c3919061203b565b610656565b6040516101d59190612096565b60405180910390f35b3480156101ea57600080fd5b506101f3610674565b6040516102009190612110565b60405180910390f35b34801561021557600080fd5b5061021e610698565b60405161022b919061213a565b60405180910390f35b34801561024057600080fd5b5061025b60048036038101906102569190612155565b6106a2565b6040516102689190612096565b60405180910390f35b34801561027d57600080fd5b5061028661079a565b60405161029391906121b7565b60405180910390f35b3480156102a857600080fd5b506102b16107be565b6040516102be91906121ee565b60405180910390f35b3480156102d357600080fd5b506102ee60048036038101906102e9919061203b565b6107c7565b6040516102fb9190612096565b60405180910390f35b34801561031057600080fd5b5061032b60048036038101906103269190612209565b610873565b005b34801561033957600080fd5b50610342610887565b60405161034f91906121b7565b60405180910390f35b34801561036457600080fd5b5061037f600480360381019061037a9190612236565b6108ab565b005b34801561038d57600080fd5b506103a860048036038101906103a39190612236565b610a32565b6040516103b5919061213a565b60405180910390f35b3480156103ca57600080fd5b506103d3610a7b565b005b3480156103e157600080fd5b506103ea610b03565b6040516103f791906121b7565b60405180910390f35b34801561040c57600080fd5b50610415610b29565b60405161042291906121b7565b60405180910390f35b34801561043757600080fd5b50610440610b52565b60405161044d91906121b7565b60405180910390f35b34801561046257600080fd5b5061046b610b78565b6040516104789190611f80565b60405180910390f35b34801561048d57600080fd5b506104a860048036038101906104a3919061203b565b610bb5565b6040516104b59190612096565b60405180910390f35b3480156104ca57600080fd5b506104e560048036038101906104e09190612236565b610ca0565b005b3480156104f357600080fd5b5061050e6004803603810190610509919061203b565b610e2d565b60405161051b9190612096565b60405180910390f35b34801561053057600080fd5b5061054b60048036038101906105469190612209565b610e4b565b005b34801561055957600080fd5b50610574600480360381019061056f9190612263565b611074565b604051610581919061213a565b60405180910390f35b34801561059657600080fd5b506105b160048036038101906105ac9190612236565b6110fb565b6040516105be9190612096565b60405180910390f35b3480156105d357600080fd5b506105ee60048036038101906105e99190612236565b61111b565b005b3480156105fc57600080fd5b5061061760048036038101906106129190612236565b611212565b005b60606040518060400160405280600881526020017f4149522054455354000000000000000000000000000000000000000000000000815250905090565b600061066a6106636112d2565b84846112da565b6001905092915050565b7f000000000000000000000000000000000000000000000000000000000000000081565b6000600354905090565b60006106af8484846113c5565b6000600260008673ffffffffffffffffffffffffffffffffffffffff1673ffffffffffffffffffffffffffffffffffffffff16815260200190815260200160002060006106fa6112d2565b73ffffffffffffffffffffffffffffffffffffffff1673ffffffffffffffffffffffffffffffffffffffff1681526020019081526020016000205490508281101561077a576040517f08c379a000000000000000000000000000000000000000000000000000000000815260040161077190612315565b60405180910390fd5b61078e856107866112d2565b8584036112da565b60019150509392505050565b7f000000000000000000000000000000000000000000000000000000000000000081565b60006012905090565b60006108696107d46112d2565b8484600260006107e26112d2565b73ffffffffffffffffffffffffffffffffffffffff1673ffffffffffffffffffffffffffffffffffffffff16815260200190815260200160002060008873ffffffffffffffffffffffffffffffffffffffff1673ffffffffffffffffffffffffffffffffffffffff168152602001908152602001600020546108649190612364565b6112da565b6001905092915050565b61088461087e6112d2565b82611a39565b50565b7f000000000000000000000000000000000000000000000000000000000000000081565b6108b36112d2565b73ffffffffffffffffffffffffffffffffffffffff166108d1610b29565b73ffffffffffffffffffffffffffffffffffffffff1614610927576040517f08c379a000000000000000000000000000000000000000000000000000000000815260040161091e906123e4565b60405180910390fd5b600760008273ffffffffffffffffffffffffffffffffffffffff1673ffffffffffffffffffffffffffffffffffffffff16815260200190815260200160002060009054906101000a900460ff16156109d6576000600760008373ffffffffffffffffffffffffffffffffffffffff1673ffffffffffffffffffffffffffffffffffffffff16815260200190815260200160002060006101000a81548160ff021916908315150217905550610a2f565b6001600760008373ffffffffffffffffffffffffffffffffffffffff1673ffffffffffffffffffffffffffffffffffffffff16815260200190815260200160002060006101000a81548160ff0219169083151502179055505b50565b6000600160008373ffffffffffffffffffffffffffffffffffffffff1673ffffffffffffffffffffffffffffffffffffffff168152602001908152602001600020549050919050565b610a836112d2565b73ffffffffffffffffffffffffffffffffffffffff16610aa1610b29565b73ffffffffffffffffffffffffffffffffffffffff1614610af7576040517f08c379a0000000000000000000000000000000000000000000000000000000008152600401610aee906123e4565b60405180910390fd5b610b016000611bf9565b565b600960009054906101000a900473ffffffffffffffffffffffffffffffffffffffff1681565b60008060009054906101000a900473ffffffffffffffffffffffffffffffffffffffff16905090565b600860019054906101000a900473ffffffffffffffffffffffffffffffffffffffff1681565b60606040518060400160405280600481526020017f4149525400000000000000000000000000000000000000000000000000000000815250905090565b60008060026000610bc46112d2565b73ffffffffffffffffffffffffffffffffffffffff1673ffffffffffffffffffffffffffffffffffffffff16815260200190815260200160002060008573ffffffffffffffffffffffffffffffffffffffff1673ffffffffffffffffffffffffffffffffffffffff16815260200190815260200160002054905082811015610c81576040517f08c379a0000000000000000000000000000000000000000000000000000000008152600401610c7890612476565b60405180910390fd5b610c95610c8c6112d2565b858584036112da565b600191505092915050565b610ca86112d2565b73ffffffffffffffffffffffffffffffffffffffff16610cc6610b29565b73ffffffffffffffffffffffffffffffffffffffff1614610d1c576040517f08c379a0000000000000000000000000000000000000000000000000000000008152600401610d13906123e4565b60405180910390fd5b60011515600660008373ffffffffffffffffffffffffffffffffffffffff1673ffffffffffffffffffffffffffffffffffffffff16815260200190815260200160002060009054906101000a900460ff16151503610dd1576000600660008373ffffffffffffffffffffffffffffffffffffffff1673ffffffffffffffffffffffffffffffffffffffff16815260200190815260200160002060006101000a81548160ff021916908315150217905550610e2a565b6001600660008373ffffffffffffffffffffffffffffffffffffffff1673ffffffffffffffffffffffffffffffffffffffff16815260200190815260200160002060006101000a81548160ff0219169083151502179055505b50565b6000610e41610e3a6112d2565b84846113c5565b6001905092915050565b6001600860006101000a81548160ff0219169083151502179055506000600267ffffffffffffffff811115610e8357610e82612496565b5b604051908082528060200260200182016040528015610eb15781602001602082028036833780820191505090505b5090503081600081518110610ec957610ec86124c5565b5b602002602001019073ffffffffffffffffffffffffffffffffffffffff16908173ffffffffffffffffffffffffffffffffffffffff1681525050600960009054906101000a900473ffffffffffffffffffffffffffffffffffffffff1681600181518110610f3a57610f396124c5565b5b602002602001019073ffffffffffffffffffffffffffffffffffffffff16908173ffffffffffffffffffffffffffffffffffffffff1681525050610f9f307f0000000000000000000000000000000000000000000000000000000000000000846112da565b7f000000000000000000000000000000000000000000000000000000000000000073ffffffffffffffffffffffffffffffffffffffff16635c11d79583600084600860019054906101000a900473ffffffffffffffffffffffffffffffffffffffff16426040518663ffffffff1660e01b81526004016110239594939291906125ed565b600060405180830381600087803b15801561103d57600080fd5b505af1158015611051573d6000803e3d6000fd5b50505050506000600860006101000a81548160ff02191690831515021790555050565b6000600260008473ffffffffffffffffffffffffffffffffffffffff1673ffffffffffffffffffffffffffffffffffffffff16815260200190815260200160002060008373ffffffffffffffffffffffffffffffffffffffff1673ffffffffffffffffffffffffffffffffffffffff16815260200190815260200160002054905092915050565b60076020528060005260406000206000915054906101000a900460ff1681565b6111236112d2565b73ffffffffffffffffffffffffffffffffffffffff16611141610b29565b73ffffffffffffffffffffffffffffffffffffffff1614611197576040517f08c379a000000000000000000000000000000000000000000000000000000000815260040161118e906123e4565b60405180910390fd5b600073ffffffffffffffffffffffffffffffffffffffff168173ffffffffffffffffffffffffffffffffffffffff1603611206576040517f08c379a00000000000000000000000000000000000000000000000000000000081526004016111fd906126b9565b60405180910390fd5b61120f81611bf9565b50565b61121a6112d2565b73ffffffffffffffffffffffffffffffffffffffff16611238610b29565b73ffffffffffffffffffffffffffffffffffffffff161461128e576040517f08c379a0000000000000000000000000000000000000000000000000000000008152600401611285906123e4565b60405180910390fd5b80600860016101000a81548173ffffffffffffffffffffffffffffffffffffffff021916908373ffffffffffffffffffffffffffffffffffffffff16021790555050565b600033905090565b80600260008573ffffffffffffffffffffffffffffffffffffffff1673ffffffffffffffffffffffffffffffffffffffff16815260200190815260200160002060008473ffffffffffffffffffffffffffffffffffffffff1673ffffffffffffffffffffffffffffffffffffffff168152602001908152602001600020819055508173ffffffffffffffffffffffffffffffffffffffff168373ffffffffffffffffffffffffffffffffffffffff167f8c5be1e5ebec7d5bd14f71427d1e84f3dd0314c0f7b2291e5b200ac8c7c3b925836040516113b8919061213a565b60405180910390a3505050565b600073ffffffffffffffffffffffffffffffffffffffff168373ffffffffffffffffffffffffffffffffffffffff1603611434576040517f08c379a000000000000000000000000000000000000000000000000000000000815260040161142b9061274b565b60405180910390fd5b600073ffffffffffffffffffffffffffffffffffffffff168273ffffffffffffffffffffffffffffffffffffffff16036114a3576040517f08c379a000000000000000000000000000000000000000000000000000000000815260040161149a906127dd565b60405180910390fd5b6000600160008573ffffffffffffffffffffffffffffffffffffffff1673ffffffffffffffffffffffffffffffffffffffff1681526020019081526020016000205490508181101561152a576040517f08c379a00000000000000000000000000000000000000000000000000000000081526004016115219061286f565b60405180910390fd5b6000829050600760008673ffffffffffffffffffffffffffffffffffffffff1673ffffffffffffffffffffffffffffffffffffffff16815260200190815260200160002060009054906101000a900460ff1680156115d457507f000000000000000000000000000000000000000000000000000000000000000073ffffffffffffffffffffffffffffffffffffffff168473ffffffffffffffffffffffffffffffffffffffff1614155b806116285750600760008573ffffffffffffffffffffffffffffffffffffffff1673ffffffffffffffffffffffffffffffffffffffff16815260200190815260200160002060009054906101000a900460ff165b801561167e5750600660008673ffffffffffffffffffffffffffffffffffffffff1673ffffffffffffffffffffffffffffffffffffffff16815260200190815260200160002060009054906101000a900460ff16155b80156116d45750600660008573ffffffffffffffffffffffffffffffffffffffff1673ffffffffffffffffffffffffffffffffffffffff16815260200190815260200160002060009054906101000a900460ff16155b156118e2576117526117046103e86116f6600a87611cbd90919063ffffffff16565b611d3790919063ffffffff16565b600160003073ffffffffffffffffffffffffffffffffffffffff1673ffffffffffffffffffffffffffffffffffffffff16815260200190815260200160002054611d8190919063ffffffff16565b600160003073ffffffffffffffffffffffffffffffffffffffff1673ffffffffffffffffffffffffffffffffffffffff168152602001908152602001600020819055503073ffffffffffffffffffffffffffffffffffffffff168573ffffffffffffffffffffffffffffffffffffffff167fddf252ad1be2c89b69c2b068fc378daa952ba7f163c4a11628f55a4df523b3ef61180c6103e86117fe600a89611cbd90919063ffffffff16565b611d3790919063ffffffff16565b604051611819919061213a565b60405180910390a361184a6103de61183c6103e886611d3790919063ffffffff16565b611cbd90919063ffffffff16565b9050600860009054906101000a900460ff161580156118b35750600760008673ffffffffffffffffffffffffffffffffffffffff1673ffffffffffffffffffffffffffffffffffffffff16815260200190815260200160002060009054906101000a900460ff16155b156118e15760006118c330610a32565b9050678ac7230489e800008111156118df576118de81610e4b565b5b505b5b6118f58383611ddf90919063ffffffff16565b600160008773ffffffffffffffffffffffffffffffffffffffff1673ffffffffffffffffffffffffffffffffffffffff1681526020019081526020016000208190555061198a81600160008773ffffffffffffffffffffffffffffffffffffffff1673ffffffffffffffffffffffffffffffffffffffff16815260200190815260200160002054611d8190919063ffffffff16565b600160008673ffffffffffffffffffffffffffffffffffffffff1673ffffffffffffffffffffffffffffffffffffffff168152602001908152602001600020819055508373ffffffffffffffffffffffffffffffffffffffff168573ffffffffffffffffffffffffffffffffffffffff167fddf252ad1be2c89b69c2b068fc378daa952ba7f163c4a11628f55a4df523b3ef83604051611a2a919061213a565b60405180910390a35050505050565b600073ffffffffffffffffffffffffffffffffffffffff168273ffffffffffffffffffffffffffffffffffffffff1603611aa8576040517f08c379a0000000000000000000000000000000000000000000000000000000008152600401611a9f906128db565b60405180910390fd5b6000600160008473ffffffffffffffffffffffffffffffffffffffff1673ffffffffffffffffffffffffffffffffffffffff16815260200190815260200160002054905081811015611b2f576040517f08c379a0000000000000000000000000000000000000000000000000000000008152600401611b2690612947565b60405180910390fd5b818103600160008573ffffffffffffffffffffffffffffffffffffffff1673ffffffffffffffffffffffffffffffffffffffff168152602001908152602001600020819055508160036000828254611b879190612967565b92505081905550600073ffffffffffffffffffffffffffffffffffffffff168373ffffffffffffffffffffffffffffffffffffffff167fddf252ad1be2c89b69c2b068fc378daa952ba7f163c4a11628f55a4df523b3ef84604051611bec919061213a565b60405180910390a3505050565b60008060009054906101000a900473ffffffffffffffffffffffffffffffffffffffff169050816000806101000a81548173ffffffffffffffffffffffffffffffffffffffff021916908373ffffffffffffffffffffffffffffffffffffffff1602179055508173ffffffffffffffffffffffffffffffffffffffff168173ffffffffffffffffffffffffffffffffffffffff167f8be0079c531659141344cd1fd0a4f28419497f9722a3daafe3b4186f6b6457e060405160405180910390a35050565b6000808303611ccf5760009050611d31565b60008284611cdd919061299b565b9050828482611cec9190612a0c565b14611d2c576040517f08c379a0000000000000000000000000000000000000000000000000000000008152600401611d2390612aaf565b60405180910390fd5b809150505b92915050565b6000611d7983836040518060400160405280601a81526020017f536166654d6174683a206469766973696f6e206279207a65726f000000000000815250611e29565b905092915050565b6000808284611d909190612364565b905083811015611dd5576040517f08c379a0000000000000000000000000000000000000000000000000000000008152600401611dcc90612b1b565b60405180910390fd5b8091505092915050565b6000611e2183836040518060400160405280601e81526020017f536166654d6174683a207375627472616374696f6e206f766572666c6f770000815250611e8c565b905092915050565b60008083118290611e70576040517f08c379a0000000000000000000000000000000000000000000000000000000008152600401611e679190611f80565b60405180910390fd5b5060008385611e7f9190612a0c565b9050809150509392505050565b6000838311158290611ed4576040517f08c379a0000000000000000000000000000000000000000000000000000000008152600401611ecb9190611f80565b60405180910390fd5b5060008385611ee39190612967565b9050809150509392505050565b600081519050919050565b600082825260208201905092915050565b60005b83811015611f2a578082015181840152602081019050611f0f565b60008484015250505050565b6000601f19601f8301169050919050565b6000611f5282611ef0565b611f5c8185611efb565b9350611f6c818560208601611f0c565b611f7581611f36565b840191505092915050565b60006020820190508181036000830152611f9a8184611f47565b905092915050565b600080fd5b600073ffffffffffffffffffffffffffffffffffffffff82169050919050565b6000611fd282611fa7565b9050919050565b611fe281611fc7565b8114611fed57600080fd5b50565b600081359050611fff81611fd9565b92915050565b6000819050919050565b61201881612005565b811461202357600080fd5b50565b6000813590506120358161200f565b92915050565b6000806040838503121561205257612051611fa2565b5b600061206085828601611ff0565b925050602061207185828601612026565b9150509250929050565b60008115159050919050565b6120908161207b565b82525050565b60006020820190506120ab6000830184612087565b92915050565b6000819050919050565b60006120d66120d16120cc84611fa7565b6120b1565b611fa7565b9050919050565b60006120e8826120bb565b9050919050565b60006120fa826120dd565b9050919050565b61210a816120ef565b82525050565b60006020820190506121256000830184612101565b92915050565b61213481612005565b82525050565b600060208201905061214f600083018461212b565b92915050565b60008060006060848603121561216e5761216d611fa2565b5b600061217c86828701611ff0565b935050602061218d86828701611ff0565b925050604061219e86828701612026565b9150509250925092565b6121b181611fc7565b82525050565b60006020820190506121cc60008301846121a8565b92915050565b600060ff82169050919050565b6121e8816121d2565b82525050565b600060208201905061220360008301846121df565b92915050565b60006020828403121561221f5761221e611fa2565b5b600061222d84828501612026565b91505092915050565b60006020828403121561224c5761224b611fa2565b5b600061225a84828501611ff0565b91505092915050565b6000806040838503121561227a57612279611fa2565b5b600061228885828601611ff0565b925050602061229985828601611ff0565b9150509250929050565b7f4245453a207472616e7366657220616d6f756e74206578636565647320616c6c60008201527f6f77616e63650000000000000000000000000000000000000000000000000000602082015250565b60006122ff602683611efb565b915061230a826122a3565b604082019050919050565b6000602082019050818103600083015261232e816122f2565b9050919050565b7f4e487b7100000000000000000000000000000000000000000000000000000000600052601160045260246000fd5b600061236f82612005565b915061237a83612005565b925082820190508082111561239257612391612335565b5b92915050565b7f4f776e61626c653a2063616c6c6572206973206e6f7420746865206f776e6572600082015250565b60006123ce602083611efb565b91506123d982612398565b602082019050919050565b600060208201905081810360008301526123fd816123c1565b9050919050565b7f4245453a2064656372656173656420616c6c6f77616e63652062656c6f77207a60008201527f65726f0000000000000000000000000000000000000000000000000000000000602082015250565b6000612460602383611efb565b915061246b82612404565b604082019050919050565b6000602082019050818103600083015261248f81612453565b9050919050565b7f4e487b7100000000000000000000000000000000000000000000000000000000600052604160045260246000fd5b7f4e487b7100000000000000000000000000000000000000000000000000000000600052603260045260246000fd5b6000819050919050565b600061251961251461250f846124f4565b6120b1565b612005565b9050919050565b612529816124fe565b82525050565b600081519050919050565b600082825260208201905092915050565b6000819050602082019050919050565b61256481611fc7565b82525050565b6000612576838361255b565b60208301905092915050565b6000602082019050919050565b600061259a8261252f565b6125a4818561253a565b93506125af8361254b565b8060005b838110156125e05781516125c7888261256a565b97506125d283612582565b9250506001810190506125b3565b5085935050505092915050565b600060a082019050612602600083018861212b565b61260f6020830187612520565b8181036040830152612621818661258f565b905061263060608301856121a8565b61263d608083018461212b565b9695505050505050565b7f4f776e61626c653a206e6577206f776e657220697320746865207a65726f206160008201527f6464726573730000000000000000000000000000000000000000000000000000602082015250565b60006126a3602683611efb565b91506126ae82612647565b604082019050919050565b600060208201905081810360008301526126d281612696565b9050919050565b7f4245453a207472616e736665722066726f6d20746865207a65726f206164647260008201527f6573730000000000000000000000000000000000000000000000000000000000602082015250565b6000612735602383611efb565b9150612740826126d9565b604082019050919050565b6000602082019050818103600083015261276481612728565b9050919050565b7f4245453a207472616e7366657220746f20746865207a65726f2061646472657360008201527f7300000000000000000000000000000000000000000000000000000000000000602082015250565b60006127c7602183611efb565b91506127d28261276b565b604082019050919050565b600060208201905081810360008301526127f6816127ba565b9050919050565b7f4245453a207472616e7366657220616d6f756e7420657863656564732062616c60008201527f616e636500000000000000000000000000000000000000000000000000000000602082015250565b6000612859602483611efb565b9150612864826127fd565b604082019050919050565b600060208201905081810360008301526128888161284c565b9050919050565b7f4245453a206275726e2066726f6d20746865207a65726f206164647265737300600082015250565b60006128c5601f83611efb565b91506128d08261288f565b602082019050919050565b600060208201905081810360008301526128f4816128b8565b9050919050565b7f4245453a206275726e20616d6f756e7420657863656564732062616c616e6365600082015250565b6000612931602083611efb565b915061293c826128fb565b602082019050919050565b6000602082019050818103600083015261296081612924565b9050919050565b600061297282612005565b915061297d83612005565b925082820390508181111561299557612994612335565b5b92915050565b60006129a682612005565b91506129b183612005565b92508282026129bf81612005565b915082820484148315176129d6576129d5612335565b5b5092915050565b7f4e487b7100000000000000000000000000000000000000000000000000000000600052601260045260246000fd5b6000612a1782612005565b9150612a2283612005565b925082612a3257612a316129dd565b5b828204905092915050565b7f536166654d6174683a206d756c7469706c69636174696f6e206f766572666c6f60008201527f7700000000000000000000000000000000000000000000000000000000000000602082015250565b6000612a99602183611efb565b9150612aa482612a3d565b604082019050919050565b60006020820190508181036000830152612ac881612a8c565b9050919050565b7f536166654d6174683a206164646974696f6e206f766572666c6f770000000000600082015250565b6000612b05601b83611efb565b9150612b1082612acf565b602082019050919050565b60006020820190508181036000830152612b3481612af8565b905091905056fea2646970667358221220726882bbd294d92f93a64b34c99926236d276d63331e1d21dc985b6b538b2ca864736f6c63430008110033",
					"opcodes": "PUSH1 0xE0 PUSH1 0x40 MSTORE PUSH20 0xD3C0B6AA1538D639912789BE705F18B5FD89FCE6 PUSH1 0x8 PUSH1 0x1 PUSH2 0x100 EXP DUP2 SLOAD DUP2 PUSH20 0xFFFFFFFFFFFFFFFFFFFFFFFFFFFFFFFFFFFFFFFF MUL NOT AND SWAP1 DUP4 PUSH20 0xFFFFFFFFFFFFFFFFFFFFFFFFFFFFFFFFFFFFFFFF AND MUL OR SWAP1 SSTORE POP PUSH20 0x7EF95A0FEE0DD31B22626FA2E10EE6A223F8A684 PUSH1 0x9 PUSH1 0x0 PUSH2 0x100 EXP DUP2 SLOAD DUP2 PUSH20 0xFFFFFFFFFFFFFFFFFFFFFFFFFFFFFFFFFFFFFFFF MUL NOT AND SWAP1 DUP4 PUSH20 0xFFFFFFFFFFFFFFFFFFFFFFFFFFFFFFFFFFFFFFFF AND MUL OR SWAP1 SSTORE POP CALLVALUE DUP1 ISZERO PUSH3 0xBB JUMPI PUSH1 0x0 DUP1 REVERT JUMPDEST POP PUSH3 0xDC PUSH3 0xD0 PUSH3 0x573 PUSH1 0x20 SHL PUSH1 0x20 SHR JUMP JUMPDEST PUSH3 0x57B PUSH1 0x20 SHL PUSH1 0x20 SHR JUMP JUMPDEST PUSH3 0x108 PUSH3 0xF0 PUSH3 0x573 PUSH1 0x20 SHL PUSH1 0x20 SHR JUMP JUMPDEST PUSH11 0x878678326EAC900000000 PUSH3 0x63F PUSH1 0x20 SHL PUSH1 0x20 SHR JUMP JUMPDEST PUSH3 0x118 PUSH3 0x573 PUSH1 0x20 SHL PUSH1 0x20 SHR JUMP JUMPDEST PUSH20 0xFFFFFFFFFFFFFFFFFFFFFFFFFFFFFFFFFFFFFFFF AND PUSH1 0x0 PUSH20 0xFFFFFFFFFFFFFFFFFFFFFFFFFFFFFFFFFFFFFFFF AND PUSH32 0xDDF252AD1BE2C89B69C2B068FC378DAA952BA7F163C4A11628F55A4DF523B3EF PUSH11 0x878678326EAC900000000 PUSH1 0x40 MLOAD PUSH3 0x182 SWAP2 SWAP1 PUSH3 0x775 JUMP JUMPDEST PUSH1 0x40 MLOAD DUP1 SWAP2 SUB SWAP1 LOG3 PUSH1 0x0 PUSH20 0x9AC64CC6E4415144C455BD8E4837FEA55603E5C3 SWAP1 POP DUP1 PUSH20 0xFFFFFFFFFFFFFFFFFFFFFFFFFFFFFFFFFFFFFFFF AND PUSH4 0xC45A0155 PUSH1 0x40 MLOAD DUP2 PUSH4 0xFFFFFFFF AND PUSH1 0xE0 SHL DUP2 MSTORE PUSH1 0x4 ADD PUSH1 0x20 PUSH1 0x40 MLOAD DUP1 DUP4 SUB DUP2 DUP7 GAS STATICCALL ISZERO DUP1 ISZERO PUSH3 0x1EF JUMPI RETURNDATASIZE PUSH1 0x0 DUP1 RETURNDATACOPY RETURNDATASIZE PUSH1 0x0 REVERT JUMPDEST POP POP POP POP PUSH1 0x40 MLOAD RETURNDATASIZE PUSH1 0x1F NOT PUSH1 0x1F DUP3 ADD AND DUP3 ADD DUP1 PUSH1 0x40 MSTORE POP DUP2 ADD SWAP1 PUSH3 0x215 SWAP2 SWAP1 PUSH3 0x7FC JUMP JUMPDEST PUSH20 0xFFFFFFFFFFFFFFFFFFFFFFFFFFFFFFFFFFFFFFFF AND PUSH4 0xC9C65396 ADDRESS DUP4 PUSH20 0xFFFFFFFFFFFFFFFFFFFFFFFFFFFFFFFFFFFFFFFF AND PUSH4 0xAD5C4648 PUSH1 0x40 MLOAD DUP2 PUSH4 0xFFFFFFFF AND PUSH1 0xE0 SHL DUP2 MSTORE PUSH1 0x4 ADD PUSH1 0x20 PUSH1 0x40 MLOAD DUP1 DUP4 SUB DUP2 DUP7 GAS STATICCALL ISZERO DUP1 ISZERO PUSH3 0x27D JUMPI RETURNDATASIZE PUSH1 0x0 DUP1 RETURNDATACOPY RETURNDATASIZE PUSH1 0x0 REVERT JUMPDEST POP POP POP POP PUSH1 0x40 MLOAD RETURNDATASIZE PUSH1 0x1F NOT PUSH1 0x1F DUP3 ADD AND DUP3 ADD DUP1 PUSH1 0x40 MSTORE POP DUP2 ADD SWAP1 PUSH3 0x2A3 SWAP2 SWAP1 PUSH3 0x7FC JUMP JUMPDEST PUSH1 0x40 MLOAD DUP4 PUSH4 0xFFFFFFFF AND PUSH1 0xE0 SHL DUP2 MSTORE PUSH1 0x4 ADD PUSH3 0x2C2 SWAP3 SWAP2 SWAP1 PUSH3 0x83F JUMP JUMPDEST PUSH1 0x20 PUSH1 0x40 MLOAD DUP1 DUP4 SUB DUP2 PUSH1 0x0 DUP8 GAS CALL ISZERO DUP1 ISZERO PUSH3 0x2E2 JUMPI RETURNDATASIZE PUSH1 0x0 DUP1 RETURNDATACOPY RETURNDATASIZE PUSH1 0x0 REVERT JUMPDEST POP POP POP POP PUSH1 0x40 MLOAD RETURNDATASIZE PUSH1 0x1F NOT PUSH1 0x1F DUP3 ADD AND DUP3 ADD DUP1 PUSH1 0x40 MSTORE POP DUP2 ADD SWAP1 PUSH3 0x308 SWAP2 SWAP1 PUSH3 0x7FC JUMP JUMPDEST PUSH20 0xFFFFFFFFFFFFFFFFFFFFFFFFFFFFFFFFFFFFFFFF AND PUSH1 0xA0 DUP2 PUSH20 0xFFFFFFFFFFFFFFFFFFFFFFFFFFFFFFFFFFFFFFFF AND DUP2 MSTORE POP POP DUP1 PUSH20 0xFFFFFFFFFFFFFFFFFFFFFFFFFFFFFFFFFFFFFFFF AND PUSH4 0xC45A0155 PUSH1 0x40 MLOAD DUP2 PUSH4 0xFFFFFFFF AND PUSH1 0xE0 SHL DUP2 MSTORE PUSH1 0x4 ADD PUSH1 0x20 PUSH1 0x40 MLOAD DUP1 DUP4 SUB DUP2 DUP7 GAS STATICCALL ISZERO DUP1 ISZERO PUSH3 0x387 JUMPI RETURNDATASIZE PUSH1 0x0 DUP1 RETURNDATACOPY RETURNDATASIZE PUSH1 0x0 REVERT JUMPDEST POP POP POP POP PUSH1 0x40 MLOAD RETURNDATASIZE PUSH1 0x1F NOT PUSH1 0x1F DUP3 ADD AND DUP3 ADD DUP1 PUSH1 0x40 MSTORE POP DUP2 ADD SWAP1 PUSH3 0x3AD SWAP2 SWAP1 PUSH3 0x7FC JUMP JUMPDEST PUSH20 0xFFFFFFFFFFFFFFFFFFFFFFFFFFFFFFFFFFFFFFFF AND PUSH4 0xC9C65396 ADDRESS PUSH1 0x9 PUSH1 0x0 SWAP1 SLOAD SWAP1 PUSH2 0x100 EXP SWAP1 DIV PUSH20 0xFFFFFFFFFFFFFFFFFFFFFFFFFFFFFFFFFFFFFFFF AND PUSH1 0x40 MLOAD DUP4 PUSH4 0xFFFFFFFF AND PUSH1 0xE0 SHL DUP2 MSTORE PUSH1 0x4 ADD PUSH3 0x40B SWAP3 SWAP2 SWAP1 PUSH3 0x83F JUMP JUMPDEST PUSH1 0x20 PUSH1 0x40 MLOAD DUP1 DUP4 SUB DUP2 PUSH1 0x0 DUP8 GAS CALL ISZERO DUP1 ISZERO PUSH3 0x42B JUMPI RETURNDATASIZE PUSH1 0x0 DUP1 RETURNDATACOPY RETURNDATASIZE PUSH1 0x0 REVERT JUMPDEST POP POP POP POP PUSH1 0x40 MLOAD RETURNDATASIZE PUSH1 0x1F NOT PUSH1 0x1F DUP3 ADD AND DUP3 ADD DUP1 PUSH1 0x40 MSTORE POP DUP2 ADD SWAP1 PUSH3 0x451 SWAP2 SWAP1 PUSH3 0x7FC JUMP JUMPDEST PUSH20 0xFFFFFFFFFFFFFFFFFFFFFFFFFFFFFFFFFFFFFFFF AND PUSH1 0xC0 DUP2 PUSH20 0xFFFFFFFFFFFFFFFFFFFFFFFFFFFFFFFFFFFFFFFF AND DUP2 MSTORE POP POP DUP1 PUSH20 0xFFFFFFFFFFFFFFFFFFFFFFFFFFFFFFFFFFFFFFFF AND PUSH1 0x80 DUP2 PUSH20 0xFFFFFFFFFFFFFFFFFFFFFFFFFFFFFFFFFFFFFFFF AND DUP2 MSTORE POP POP PUSH1 0x1 PUSH1 0x7 PUSH1 0x0 PUSH1 0xA0 MLOAD PUSH20 0xFFFFFFFFFFFFFFFFFFFFFFFFFFFFFFFFFFFFFFFF AND PUSH20 0xFFFFFFFFFFFFFFFFFFFFFFFFFFFFFFFFFFFFFFFF AND DUP2 MSTORE PUSH1 0x20 ADD SWAP1 DUP2 MSTORE PUSH1 0x20 ADD PUSH1 0x0 KECCAK256 PUSH1 0x0 PUSH2 0x100 EXP DUP2 SLOAD DUP2 PUSH1 0xFF MUL NOT AND SWAP1 DUP4 ISZERO ISZERO MUL OR SWAP1 SSTORE POP PUSH1 0x1 PUSH1 0x7 PUSH1 0x0 PUSH1 0xC0 MLOAD PUSH20 0xFFFFFFFFFFFFFFFFFFFFFFFFFFFFFFFFFFFFFFFF AND PUSH20 0xFFFFFFFFFFFFFFFFFFFFFFFFFFFFFFFFFFFFFFFF AND DUP2 MSTORE PUSH1 0x20 ADD SWAP1 DUP2 MSTORE PUSH1 0x20 ADD PUSH1 0x0 KECCAK256 PUSH1 0x0 PUSH2 0x100 EXP DUP2 SLOAD DUP2 PUSH1 0xFF MUL NOT AND SWAP1 DUP4 ISZERO ISZERO MUL OR SWAP1 SSTORE POP POP PUSH3 0x904 JUMP JUMPDEST PUSH1 0x0 CALLER SWAP1 POP SWAP1 JUMP JUMPDEST PUSH1 0x0 DUP1 PUSH1 0x0 SWAP1 SLOAD SWAP1 PUSH2 0x100 EXP SWAP1 DIV PUSH20 0xFFFFFFFFFFFFFFFFFFFFFFFFFFFFFFFFFFFFFFFF AND SWAP1 POP DUP2 PUSH1 0x0 DUP1 PUSH2 0x100 EXP DUP2 SLOAD DUP2 PUSH20 0xFFFFFFFFFFFFFFFFFFFFFFFFFFFFFFFFFFFFFFFF MUL NOT AND SWAP1 DUP4 PUSH20 0xFFFFFFFFFFFFFFFFFFFFFFFFFFFFFFFFFFFFFFFF AND MUL OR SWAP1 SSTORE POP DUP2 PUSH20 0xFFFFFFFFFFFFFFFFFFFFFFFFFFFFFFFFFFFFFFFF AND DUP2 PUSH20 0xFFFFFFFFFFFFFFFFFFFFFFFFFFFFFFFFFFFFFFFF AND PUSH32 0x8BE0079C531659141344CD1FD0A4F28419497F9722A3DAAFE3B4186F6B6457E0 PUSH1 0x40 MLOAD PUSH1 0x40 MLOAD DUP1 SWAP2 SUB SWAP1 LOG3 POP POP JUMP JUMPDEST DUP1 PUSH1 0x1 PUSH1 0x0 DUP5 PUSH20 0xFFFFFFFFFFFFFFFFFFFFFFFFFFFFFFFFFFFFFFFF AND PUSH20 0xFFFFFFFFFFFFFFFFFFFFFFFFFFFFFFFFFFFFFFFF AND DUP2 MSTORE PUSH1 0x20 ADD SWAP1 DUP2 MSTORE PUSH1 0x20 ADD PUSH1 0x0 KECCAK256 PUSH1 0x0 DUP3 DUP3 SLOAD PUSH3 0x690 SWAP2 SWAP1 PUSH3 0x89B JUMP JUMPDEST SWAP3 POP POP DUP2 SWAP1 SSTORE POP DUP1 PUSH1 0x3 PUSH1 0x0 DUP3 DUP3 SLOAD PUSH3 0x6AB SWAP2 SWAP1 PUSH3 0x89B JUMP JUMPDEST SWAP3 POP POP DUP2 SWAP1 SSTORE POP DUP2 PUSH20 0xFFFFFFFFFFFFFFFFFFFFFFFFFFFFFFFFFFFFFFFF AND PUSH1 0x0 PUSH20 0xFFFFFFFFFFFFFFFFFFFFFFFFFFFFFFFFFFFFFFFF AND PUSH32 0xDDF252AD1BE2C89B69C2B068FC378DAA952BA7F163C4A11628F55A4DF523B3EF DUP4 PUSH1 0x40 MLOAD PUSH3 0x712 SWAP2 SWAP1 PUSH3 0x8E7 JUMP JUMPDEST PUSH1 0x40 MLOAD DUP1 SWAP2 SUB SWAP1 LOG3 POP POP JUMP JUMPDEST PUSH1 0x0 DUP2 SWAP1 POP SWAP2 SWAP1 POP JUMP JUMPDEST PUSH1 0x0 DUP2 SWAP1 POP SWAP2 SWAP1 POP JUMP JUMPDEST PUSH1 0x0 DUP2 SWAP1 POP SWAP2 SWAP1 POP JUMP JUMPDEST PUSH1 0x0 PUSH3 0x75D PUSH3 0x757 PUSH3 0x751 DUP5 PUSH3 0x71E JUMP JUMPDEST PUSH3 0x732 JUMP JUMPDEST PUSH3 0x728 JUMP JUMPDEST SWAP1 POP SWAP2 SWAP1 POP JUMP JUMPDEST PUSH3 0x76F DUP2 PUSH3 0x73C JUMP JUMPDEST DUP3 MSTORE POP POP JUMP JUMPDEST PUSH1 0x0 PUSH1 0x20 DUP3 ADD SWAP1 POP PUSH3 0x78C PUSH1 0x0 DUP4 ADD DUP5 PUSH3 0x764 JUMP JUMPDEST SWAP3 SWAP2 POP POP JUMP JUMPDEST PUSH1 0x0 DUP1 REVERT JUMPDEST PUSH1 0x0 PUSH20 0xFFFFFFFFFFFFFFFFFFFFFFFFFFFFFFFFFFFFFFFF DUP3 AND SWAP1 POP SWAP2 SWAP1 POP JUMP JUMPDEST PUSH1 0x0 PUSH3 0x7C4 DUP3 PUSH3 0x797 JUMP JUMPDEST SWAP1 POP SWAP2 SWAP1 POP JUMP JUMPDEST PUSH3 0x7D6 DUP2 PUSH3 0x7B7 JUMP JUMPDEST DUP2 EQ PUSH3 0x7E2 JUMPI PUSH1 0x0 DUP1 REVERT JUMPDEST POP JUMP JUMPDEST PUSH1 0x0 DUP2 MLOAD SWAP1 POP PUSH3 0x7F6 DUP2 PUSH3 0x7CB JUMP JUMPDEST SWAP3 SWAP2 POP POP JUMP JUMPDEST PUSH1 0x0 PUSH1 0x20 DUP3 DUP5 SUB SLT ISZERO PUSH3 0x815 JUMPI PUSH3 0x814 PUSH3 0x792 JUMP JUMPDEST JUMPDEST PUSH1 0x0 PUSH3 0x825 DUP5 DUP3 DUP6 ADD PUSH3 0x7E5 JUMP JUMPDEST SWAP2 POP POP SWAP3 SWAP2 POP POP JUMP JUMPDEST PUSH3 0x839 DUP2 PUSH3 0x7B7 JUMP JUMPDEST DUP3 MSTORE POP POP JUMP JUMPDEST PUSH1 0x0 PUSH1 0x40 DUP3 ADD SWAP1 POP PUSH3 0x856 PUSH1 0x0 DUP4 ADD DUP6 PUSH3 0x82E JUMP JUMPDEST PUSH3 0x865 PUSH1 0x20 DUP4 ADD DUP5 PUSH3 0x82E JUMP JUMPDEST SWAP4 SWAP3 POP POP POP JUMP JUMPDEST PUSH32 0x4E487B7100000000000000000000000000000000000000000000000000000000 PUSH1 0x0 MSTORE PUSH1 0x11 PUSH1 0x4 MSTORE PUSH1 0x24 PUSH1 0x0 REVERT JUMPDEST PUSH1 0x0 PUSH3 0x8A8 DUP3 PUSH3 0x728 JUMP JUMPDEST SWAP2 POP PUSH3 0x8B5 DUP4 PUSH3 0x728 JUMP JUMPDEST SWAP3 POP DUP3 DUP3 ADD SWAP1 POP DUP1 DUP3 GT ISZERO PUSH3 0x8D0 JUMPI PUSH3 0x8CF PUSH3 0x86C JUMP JUMPDEST JUMPDEST SWAP3 SWAP2 POP POP JUMP JUMPDEST PUSH3 0x8E1 DUP2 PUSH3 0x728 JUMP JUMPDEST DUP3 MSTORE POP POP JUMP JUMPDEST PUSH1 0x0 PUSH1 0x20 DUP3 ADD SWAP1 POP PUSH3 0x8FE PUSH1 0x0 DUP4 ADD DUP5 PUSH3 0x8D6 JUMP JUMPDEST SWAP3 SWAP2 POP POP JUMP JUMPDEST PUSH1 0x80 MLOAD PUSH1 0xA0 MLOAD PUSH1 0xC0 MLOAD PUSH2 0x2B71 PUSH3 0x949 PUSH1 0x0 CODECOPY PUSH1 0x0 PUSH2 0x79C ADD MSTORE PUSH1 0x0 PUSH2 0x889 ADD MSTORE PUSH1 0x0 DUP2 DUP2 PUSH2 0x676 ADD MSTORE DUP2 DUP2 PUSH2 0xF7A ADD MSTORE DUP2 DUP2 PUSH2 0xFA1 ADD MSTORE PUSH2 0x1585 ADD MSTORE PUSH2 0x2B71 PUSH1 0x0 RETURN INVALID PUSH1 0x80 PUSH1 0x40 MSTORE PUSH1 0x4 CALLDATASIZE LT PUSH2 0x16A JUMPI PUSH1 0x0 CALLDATALOAD PUSH1 0xE0 SHR DUP1 PUSH4 0x715018A6 GT PUSH2 0xD1 JUMPI DUP1 PUSH4 0xA8808FCC GT PUSH2 0x8A JUMPI DUP1 PUSH4 0xDD62ED3E GT PUSH2 0x64 JUMPI DUP1 PUSH4 0xDD62ED3E EQ PUSH2 0x54D JUMPI DUP1 PUSH4 0xDEC1A6F6 EQ PUSH2 0x58A JUMPI DUP1 PUSH4 0xF2FDE38B EQ PUSH2 0x5C7 JUMPI DUP1 PUSH4 0xFAE92612 EQ PUSH2 0x5F0 JUMPI PUSH2 0x171 JUMP JUMPDEST DUP1 PUSH4 0xA8808FCC EQ PUSH2 0x4BE JUMPI DUP1 PUSH4 0xA9059CBB EQ PUSH2 0x4E7 JUMPI DUP1 PUSH4 0xCE0594AA EQ PUSH2 0x524 JUMPI PUSH2 0x171 JUMP JUMPDEST DUP1 PUSH4 0x715018A6 EQ PUSH2 0x3BE JUMPI DUP1 PUSH4 0x88AF60C6 EQ PUSH2 0x3D5 JUMPI DUP1 PUSH4 0x8DA5CB5B EQ PUSH2 0x400 JUMPI DUP1 PUSH4 0x95623641 EQ PUSH2 0x42B JUMPI DUP1 PUSH4 0x95D89B41 EQ PUSH2 0x456 JUMPI DUP1 PUSH4 0xA457C2D7 EQ PUSH2 0x481 JUMPI PUSH2 0x171 JUMP JUMPDEST DUP1 PUSH4 0x313CE567 GT PUSH2 0x123 JUMPI DUP1 PUSH4 0x313CE567 EQ PUSH2 0x29C JUMPI DUP1 PUSH4 0x39509351 EQ PUSH2 0x2C7 JUMPI DUP1 PUSH4 0x42966C68 EQ PUSH2 0x304 JUMPI DUP1 PUSH4 0x49BD5A5E EQ PUSH2 0x32D JUMPI DUP1 PUSH4 0x536DB266 EQ PUSH2 0x358 JUMPI DUP1 PUSH4 0x70A08231 EQ PUSH2 0x381 JUMPI PUSH2 0x171 JUMP JUMPDEST DUP1 PUSH4 0x6FDDE03 EQ PUSH2 0x176 JUMPI DUP1 PUSH4 0x95EA7B3 EQ PUSH2 0x1A1 JUMPI DUP1 PUSH4 0x1694505E EQ PUSH2 0x1DE JUMPI DUP1 PUSH4 0x18160DDD EQ PUSH2 0x209 JUMPI DUP1 PUSH4 0x23B872DD EQ PUSH2 0x234 JUMPI DUP1 PUSH4 0x2AAFA283 EQ PUSH2 0x271 JUMPI PUSH2 0x171 JUMP JUMPDEST CALLDATASIZE PUSH2 0x171 JUMPI STOP JUMPDEST PUSH1 0x0 DUP1 REVERT JUMPDEST CALLVALUE DUP1 ISZERO PUSH2 0x182 JUMPI PUSH1 0x0 DUP1 REVERT JUMPDEST POP PUSH2 0x18B PUSH2 0x619 JUMP JUMPDEST PUSH1 0x40 MLOAD PUSH2 0x198 SWAP2 SWAP1 PUSH2 0x1F80 JUMP JUMPDEST PUSH1 0x40 MLOAD DUP1 SWAP2 SUB SWAP1 RETURN JUMPDEST CALLVALUE DUP1 ISZERO PUSH2 0x1AD JUMPI PUSH1 0x0 DUP1 REVERT JUMPDEST POP PUSH2 0x1C8 PUSH1 0x4 DUP1 CALLDATASIZE SUB DUP2 ADD SWAP1 PUSH2 0x1C3 SWAP2 SWAP1 PUSH2 0x203B JUMP JUMPDEST PUSH2 0x656 JUMP JUMPDEST PUSH1 0x40 MLOAD PUSH2 0x1D5 SWAP2 SWAP1 PUSH2 0x2096 JUMP JUMPDEST PUSH1 0x40 MLOAD DUP1 SWAP2 SUB SWAP1 RETURN JUMPDEST CALLVALUE DUP1 ISZERO PUSH2 0x1EA JUMPI PUSH1 0x0 DUP1 REVERT JUMPDEST POP PUSH2 0x1F3 PUSH2 0x674 JUMP JUMPDEST PUSH1 0x40 MLOAD PUSH2 0x200 SWAP2 SWAP1 PUSH2 0x2110 JUMP JUMPDEST PUSH1 0x40 MLOAD DUP1 SWAP2 SUB SWAP1 RETURN JUMPDEST CALLVALUE DUP1 ISZERO PUSH2 0x215 JUMPI PUSH1 0x0 DUP1 REVERT JUMPDEST POP PUSH2 0x21E PUSH2 0x698 JUMP JUMPDEST PUSH1 0x40 MLOAD PUSH2 0x22B SWAP2 SWAP1 PUSH2 0x213A JUMP JUMPDEST PUSH1 0x40 MLOAD DUP1 SWAP2 SUB SWAP1 RETURN JUMPDEST CALLVALUE DUP1 ISZERO PUSH2 0x240 JUMPI PUSH1 0x0 DUP1 REVERT JUMPDEST POP PUSH2 0x25B PUSH1 0x4 DUP1 CALLDATASIZE SUB DUP2 ADD SWAP1 PUSH2 0x256 SWAP2 SWAP1 PUSH2 0x2155 JUMP JUMPDEST PUSH2 0x6A2 JUMP JUMPDEST PUSH1 0x40 MLOAD PUSH2 0x268 SWAP2 SWAP1 PUSH2 0x2096 JUMP JUMPDEST PUSH1 0x40 MLOAD DUP1 SWAP2 SUB SWAP1 RETURN JUMPDEST CALLVALUE DUP1 ISZERO PUSH2 0x27D JUMPI PUSH1 0x0 DUP1 REVERT JUMPDEST POP PUSH2 0x286 PUSH2 0x79A JUMP JUMPDEST PUSH1 0x40 MLOAD PUSH2 0x293 SWAP2 SWAP1 PUSH2 0x21B7 JUMP JUMPDEST PUSH1 0x40 MLOAD DUP1 SWAP2 SUB SWAP1 RETURN JUMPDEST CALLVALUE DUP1 ISZERO PUSH2 0x2A8 JUMPI PUSH1 0x0 DUP1 REVERT JUMPDEST POP PUSH2 0x2B1 PUSH2 0x7BE JUMP JUMPDEST PUSH1 0x40 MLOAD PUSH2 0x2BE SWAP2 SWAP1 PUSH2 0x21EE JUMP JUMPDEST PUSH1 0x40 MLOAD DUP1 SWAP2 SUB SWAP1 RETURN JUMPDEST CALLVALUE DUP1 ISZERO PUSH2 0x2D3 JUMPI PUSH1 0x0 DUP1 REVERT JUMPDEST POP PUSH2 0x2EE PUSH1 0x4 DUP1 CALLDATASIZE SUB DUP2 ADD SWAP1 PUSH2 0x2E9 SWAP2 SWAP1 PUSH2 0x203B JUMP JUMPDEST PUSH2 0x7C7 JUMP JUMPDEST PUSH1 0x40 MLOAD PUSH2 0x2FB SWAP2 SWAP1 PUSH2 0x2096 JUMP JUMPDEST PUSH1 0x40 MLOAD DUP1 SWAP2 SUB SWAP1 RETURN JUMPDEST CALLVALUE DUP1 ISZERO PUSH2 0x310 JUMPI PUSH1 0x0 DUP1 REVERT JUMPDEST POP PUSH2 0x32B PUSH1 0x4 DUP1 CALLDATASIZE SUB DUP2 ADD SWAP1 PUSH2 0x326 SWAP2 SWAP1 PUSH2 0x2209 JUMP JUMPDEST PUSH2 0x873 JUMP JUMPDEST STOP JUMPDEST CALLVALUE DUP1 ISZERO PUSH2 0x339 JUMPI PUSH1 0x0 DUP1 REVERT JUMPDEST POP PUSH2 0x342 PUSH2 0x887 JUMP JUMPDEST PUSH1 0x40 MLOAD PUSH2 0x34F SWAP2 SWAP1 PUSH2 0x21B7 JUMP JUMPDEST PUSH1 0x40 MLOAD DUP1 SWAP2 SUB SWAP1 RETURN JUMPDEST CALLVALUE DUP1 ISZERO PUSH2 0x364 JUMPI PUSH1 0x0 DUP1 REVERT JUMPDEST POP PUSH2 0x37F PUSH1 0x4 DUP1 CALLDATASIZE SUB DUP2 ADD SWAP1 PUSH2 0x37A SWAP2 SWAP1 PUSH2 0x2236 JUMP JUMPDEST PUSH2 0x8AB JUMP JUMPDEST STOP JUMPDEST CALLVALUE DUP1 ISZERO PUSH2 0x38D JUMPI PUSH1 0x0 DUP1 REVERT JUMPDEST POP PUSH2 0x3A8 PUSH1 0x4 DUP1 CALLDATASIZE SUB DUP2 ADD SWAP1 PUSH2 0x3A3 SWAP2 SWAP1 PUSH2 0x2236 JUMP JUMPDEST PUSH2 0xA32 JUMP JUMPDEST PUSH1 0x40 MLOAD PUSH2 0x3B5 SWAP2 SWAP1 PUSH2 0x213A JUMP JUMPDEST PUSH1 0x40 MLOAD DUP1 SWAP2 SUB SWAP1 RETURN JUMPDEST CALLVALUE DUP1 ISZERO PUSH2 0x3CA JUMPI PUSH1 0x0 DUP1 REVERT JUMPDEST POP PUSH2 0x3D3 PUSH2 0xA7B JUMP JUMPDEST STOP JUMPDEST CALLVALUE DUP1 ISZERO PUSH2 0x3E1 JUMPI PUSH1 0x0 DUP1 REVERT JUMPDEST POP PUSH2 0x3EA PUSH2 0xB03 JUMP JUMPDEST PUSH1 0x40 MLOAD PUSH2 0x3F7 SWAP2 SWAP1 PUSH2 0x21B7 JUMP JUMPDEST PUSH1 0x40 MLOAD DUP1 SWAP2 SUB SWAP1 RETURN JUMPDEST CALLVALUE DUP1 ISZERO PUSH2 0x40C JUMPI PUSH1 0x0 DUP1 REVERT JUMPDEST POP PUSH2 0x415 PUSH2 0xB29 JUMP JUMPDEST PUSH1 0x40 MLOAD PUSH2 0x422 SWAP2 SWAP1 PUSH2 0x21B7 JUMP JUMPDEST PUSH1 0x40 MLOAD DUP1 SWAP2 SUB SWAP1 RETURN JUMPDEST CALLVALUE DUP1 ISZERO PUSH2 0x437 JUMPI PUSH1 0x0 DUP1 REVERT JUMPDEST POP PUSH2 0x440 PUSH2 0xB52 JUMP JUMPDEST PUSH1 0x40 MLOAD PUSH2 0x44D SWAP2 SWAP1 PUSH2 0x21B7 JUMP JUMPDEST PUSH1 0x40 MLOAD DUP1 SWAP2 SUB SWAP1 RETURN JUMPDEST CALLVALUE DUP1 ISZERO PUSH2 0x462 JUMPI PUSH1 0x0 DUP1 REVERT JUMPDEST POP PUSH2 0x46B PUSH2 0xB78 JUMP JUMPDEST PUSH1 0x40 MLOAD PUSH2 0x478 SWAP2 SWAP1 PUSH2 0x1F80 JUMP JUMPDEST PUSH1 0x40 MLOAD DUP1 SWAP2 SUB SWAP1 RETURN JUMPDEST CALLVALUE DUP1 ISZERO PUSH2 0x48D JUMPI PUSH1 0x0 DUP1 REVERT JUMPDEST POP PUSH2 0x4A8 PUSH1 0x4 DUP1 CALLDATASIZE SUB DUP2 ADD SWAP1 PUSH2 0x4A3 SWAP2 SWAP1 PUSH2 0x203B JUMP JUMPDEST PUSH2 0xBB5 JUMP JUMPDEST PUSH1 0x40 MLOAD PUSH2 0x4B5 SWAP2 SWAP1 PUSH2 0x2096 JUMP JUMPDEST PUSH1 0x40 MLOAD DUP1 SWAP2 SUB SWAP1 RETURN JUMPDEST CALLVALUE DUP1 ISZERO PUSH2 0x4CA JUMPI PUSH1 0x0 DUP1 REVERT JUMPDEST POP PUSH2 0x4E5 PUSH1 0x4 DUP1 CALLDATASIZE SUB DUP2 ADD SWAP1 PUSH2 0x4E0 SWAP2 SWAP1 PUSH2 0x2236 JUMP JUMPDEST PUSH2 0xCA0 JUMP JUMPDEST STOP JUMPDEST CALLVALUE DUP1 ISZERO PUSH2 0x4F3 JUMPI PUSH1 0x0 DUP1 REVERT JUMPDEST POP PUSH2 0x50E PUSH1 0x4 DUP1 CALLDATASIZE SUB DUP2 ADD SWAP1 PUSH2 0x509 SWAP2 SWAP1 PUSH2 0x203B JUMP JUMPDEST PUSH2 0xE2D JUMP JUMPDEST PUSH1 0x40 MLOAD PUSH2 0x51B SWAP2 SWAP1 PUSH2 0x2096 JUMP JUMPDEST PUSH1 0x40 MLOAD DUP1 SWAP2 SUB SWAP1 RETURN JUMPDEST CALLVALUE DUP1 ISZERO PUSH2 0x530 JUMPI PUSH1 0x0 DUP1 REVERT JUMPDEST POP PUSH2 0x54B PUSH1 0x4 DUP1 CALLDATASIZE SUB DUP2 ADD SWAP1 PUSH2 0x546 SWAP2 SWAP1 PUSH2 0x2209 JUMP JUMPDEST PUSH2 0xE4B JUMP JUMPDEST STOP JUMPDEST CALLVALUE DUP1 ISZERO PUSH2 0x559 JUMPI PUSH1 0x0 DUP1 REVERT JUMPDEST POP PUSH2 0x574 PUSH1 0x4 DUP1 CALLDATASIZE SUB DUP2 ADD SWAP1 PUSH2 0x56F SWAP2 SWAP1 PUSH2 0x2263 JUMP JUMPDEST PUSH2 0x1074 JUMP JUMPDEST PUSH1 0x40 MLOAD PUSH2 0x581 SWAP2 SWAP1 PUSH2 0x213A JUMP JUMPDEST PUSH1 0x40 MLOAD DUP1 SWAP2 SUB SWAP1 RETURN JUMPDEST CALLVALUE DUP1 ISZERO PUSH2 0x596 JUMPI PUSH1 0x0 DUP1 REVERT JUMPDEST POP PUSH2 0x5B1 PUSH1 0x4 DUP1 CALLDATASIZE SUB DUP2 ADD SWAP1 PUSH2 0x5AC SWAP2 SWAP1 PUSH2 0x2236 JUMP JUMPDEST PUSH2 0x10FB JUMP JUMPDEST PUSH1 0x40 MLOAD PUSH2 0x5BE SWAP2 SWAP1 PUSH2 0x2096 JUMP JUMPDEST PUSH1 0x40 MLOAD DUP1 SWAP2 SUB SWAP1 RETURN JUMPDEST CALLVALUE DUP1 ISZERO PUSH2 0x5D3 JUMPI PUSH1 0x0 DUP1 REVERT JUMPDEST POP PUSH2 0x5EE PUSH1 0x4 DUP1 CALLDATASIZE SUB DUP2 ADD SWAP1 PUSH2 0x5E9 SWAP2 SWAP1 PUSH2 0x2236 JUMP JUMPDEST PUSH2 0x111B JUMP JUMPDEST STOP JUMPDEST CALLVALUE DUP1 ISZERO PUSH2 0x5FC JUMPI PUSH1 0x0 DUP1 REVERT JUMPDEST POP PUSH2 0x617 PUSH1 0x4 DUP1 CALLDATASIZE SUB DUP2 ADD SWAP1 PUSH2 0x612 SWAP2 SWAP1 PUSH2 0x2236 JUMP JUMPDEST PUSH2 0x1212 JUMP JUMPDEST STOP JUMPDEST PUSH1 0x60 PUSH1 0x40 MLOAD DUP1 PUSH1 0x40 ADD PUSH1 0x40 MSTORE DUP1 PUSH1 0x8 DUP2 MSTORE PUSH1 0x20 ADD PUSH32 0x4149522054455354000000000000000000000000000000000000000000000000 DUP2 MSTORE POP SWAP1 POP SWAP1 JUMP JUMPDEST PUSH1 0x0 PUSH2 0x66A PUSH2 0x663 PUSH2 0x12D2 JUMP JUMPDEST DUP5 DUP5 PUSH2 0x12DA JUMP JUMPDEST PUSH1 0x1 SWAP1 POP SWAP3 SWAP2 POP POP JUMP JUMPDEST PUSH32 0x0 DUP2 JUMP JUMPDEST PUSH1 0x0 PUSH1 0x3 SLOAD SWAP1 POP SWAP1 JUMP JUMPDEST PUSH1 0x0 PUSH2 0x6AF DUP5 DUP5 DUP5 PUSH2 0x13C5 JUMP JUMPDEST PUSH1 0x0 PUSH1 0x2 PUSH1 0x0 DUP7 PUSH20 0xFFFFFFFFFFFFFFFFFFFFFFFFFFFFFFFFFFFFFFFF AND PUSH20 0xFFFFFFFFFFFFFFFFFFFFFFFFFFFFFFFFFFFFFFFF AND DUP2 MSTORE PUSH1 0x20 ADD SWAP1 DUP2 MSTORE PUSH1 0x20 ADD PUSH1 0x0 KECCAK256 PUSH1 0x0 PUSH2 0x6FA PUSH2 0x12D2 JUMP JUMPDEST PUSH20 0xFFFFFFFFFFFFFFFFFFFFFFFFFFFFFFFFFFFFFFFF AND PUSH20 0xFFFFFFFFFFFFFFFFFFFFFFFFFFFFFFFFFFFFFFFF AND DUP2 MSTORE PUSH1 0x20 ADD SWAP1 DUP2 MSTORE PUSH1 0x20 ADD PUSH1 0x0 KECCAK256 SLOAD SWAP1 POP DUP3 DUP2 LT ISZERO PUSH2 0x77A JUMPI PUSH1 0x40 MLOAD PUSH32 0x8C379A000000000000000000000000000000000000000000000000000000000 DUP2 MSTORE PUSH1 0x4 ADD PUSH2 0x771 SWAP1 PUSH2 0x2315 JUMP JUMPDEST PUSH1 0x40 MLOAD DUP1 SWAP2 SUB SWAP1 REVERT JUMPDEST PUSH2 0x78E DUP6 PUSH2 0x786 PUSH2 0x12D2 JUMP JUMPDEST DUP6 DUP5 SUB PUSH2 0x12DA JUMP JUMPDEST PUSH1 0x1 SWAP2 POP POP SWAP4 SWAP3 POP POP POP JUMP JUMPDEST PUSH32 0x0 DUP2 JUMP JUMPDEST PUSH1 0x0 PUSH1 0x12 SWAP1 POP SWAP1 JUMP JUMPDEST PUSH1 0x0 PUSH2 0x869 PUSH2 0x7D4 PUSH2 0x12D2 JUMP JUMPDEST DUP5 DUP5 PUSH1 0x2 PUSH1 0x0 PUSH2 0x7E2 PUSH2 0x12D2 JUMP JUMPDEST PUSH20 0xFFFFFFFFFFFFFFFFFFFFFFFFFFFFFFFFFFFFFFFF AND PUSH20 0xFFFFFFFFFFFFFFFFFFFFFFFFFFFFFFFFFFFFFFFF AND DUP2 MSTORE PUSH1 0x20 ADD SWAP1 DUP2 MSTORE PUSH1 0x20 ADD PUSH1 0x0 KECCAK256 PUSH1 0x0 DUP9 PUSH20 0xFFFFFFFFFFFFFFFFFFFFFFFFFFFFFFFFFFFFFFFF AND PUSH20 0xFFFFFFFFFFFFFFFFFFFFFFFFFFFFFFFFFFFFFFFF AND DUP2 MSTORE PUSH1 0x20 ADD SWAP1 DUP2 MSTORE PUSH1 0x20 ADD PUSH1 0x0 KECCAK256 SLOAD PUSH2 0x864 SWAP2 SWAP1 PUSH2 0x2364 JUMP JUMPDEST PUSH2 0x12DA JUMP JUMPDEST PUSH1 0x1 SWAP1 POP SWAP3 SWAP2 POP POP JUMP JUMPDEST PUSH2 0x884 PUSH2 0x87E PUSH2 0x12D2 JUMP JUMPDEST DUP3 PUSH2 0x1A39 JUMP JUMPDEST POP JUMP JUMPDEST PUSH32 0x0 DUP2 JUMP JUMPDEST PUSH2 0x8B3 PUSH2 0x12D2 JUMP JUMPDEST PUSH20 0xFFFFFFFFFFFFFFFFFFFFFFFFFFFFFFFFFFFFFFFF AND PUSH2 0x8D1 PUSH2 0xB29 JUMP JUMPDEST PUSH20 0xFFFFFFFFFFFFFFFFFFFFFFFFFFFFFFFFFFFFFFFF AND EQ PUSH2 0x927 JUMPI PUSH1 0x40 MLOAD PUSH32 0x8C379A000000000000000000000000000000000000000000000000000000000 DUP2 MSTORE PUSH1 0x4 ADD PUSH2 0x91E SWAP1 PUSH2 0x23E4 JUMP JUMPDEST PUSH1 0x40 MLOAD DUP1 SWAP2 SUB SWAP1 REVERT JUMPDEST PUSH1 0x7 PUSH1 0x0 DUP3 PUSH20 0xFFFFFFFFFFFFFFFFFFFFFFFFFFFFFFFFFFFFFFFF AND PUSH20 0xFFFFFFFFFFFFFFFFFFFFFFFFFFFFFFFFFFFFFFFF AND DUP2 MSTORE PUSH1 0x20 ADD SWAP1 DUP2 MSTORE PUSH1 0x20 ADD PUSH1 0x0 KECCAK256 PUSH1 0x0 SWAP1 SLOAD SWAP1 PUSH2 0x100 EXP SWAP1 DIV PUSH1 0xFF AND ISZERO PUSH2 0x9D6 JUMPI PUSH1 0x0 PUSH1 0x7 PUSH1 0x0 DUP4 PUSH20 0xFFFFFFFFFFFFFFFFFFFFFFFFFFFFFFFFFFFFFFFF AND PUSH20 0xFFFFFFFFFFFFFFFFFFFFFFFFFFFFFFFFFFFFFFFF AND DUP2 MSTORE PUSH1 0x20 ADD SWAP1 DUP2 MSTORE PUSH1 0x20 ADD PUSH1 0x0 KECCAK256 PUSH1 0x0 PUSH2 0x100 EXP DUP2 SLOAD DUP2 PUSH1 0xFF MUL NOT AND SWAP1 DUP4 ISZERO ISZERO MUL OR SWAP1 SSTORE POP PUSH2 0xA2F JUMP JUMPDEST PUSH1 0x1 PUSH1 0x7 PUSH1 0x0 DUP4 PUSH20 0xFFFFFFFFFFFFFFFFFFFFFFFFFFFFFFFFFFFFFFFF AND PUSH20 0xFFFFFFFFFFFFFFFFFFFFFFFFFFFFFFFFFFFFFFFF AND DUP2 MSTORE PUSH1 0x20 ADD SWAP1 DUP2 MSTORE PUSH1 0x20 ADD PUSH1 0x0 KECCAK256 PUSH1 0x0 PUSH2 0x100 EXP DUP2 SLOAD DUP2 PUSH1 0xFF MUL NOT AND SWAP1 DUP4 ISZERO ISZERO MUL OR SWAP1 SSTORE POP JUMPDEST POP JUMP JUMPDEST PUSH1 0x0 PUSH1 0x1 PUSH1 0x0 DUP4 PUSH20 0xFFFFFFFFFFFFFFFFFFFFFFFFFFFFFFFFFFFFFFFF AND PUSH20 0xFFFFFFFFFFFFFFFFFFFFFFFFFFFFFFFFFFFFFFFF AND DUP2 MSTORE PUSH1 0x20 ADD SWAP1 DUP2 MSTORE PUSH1 0x20 ADD PUSH1 0x0 KECCAK256 SLOAD SWAP1 POP SWAP2 SWAP1 POP JUMP JUMPDEST PUSH2 0xA83 PUSH2 0x12D2 JUMP JUMPDEST PUSH20 0xFFFFFFFFFFFFFFFFFFFFFFFFFFFFFFFFFFFFFFFF AND PUSH2 0xAA1 PUSH2 0xB29 JUMP JUMPDEST PUSH20 0xFFFFFFFFFFFFFFFFFFFFFFFFFFFFFFFFFFFFFFFF AND EQ PUSH2 0xAF7 JUMPI PUSH1 0x40 MLOAD PUSH32 0x8C379A000000000000000000000000000000000000000000000000000000000 DUP2 MSTORE PUSH1 0x4 ADD PUSH2 0xAEE SWAP1 PUSH2 0x23E4 JUMP JUMPDEST PUSH1 0x40 MLOAD DUP1 SWAP2 SUB SWAP1 REVERT JUMPDEST PUSH2 0xB01 PUSH1 0x0 PUSH2 0x1BF9 JUMP JUMPDEST JUMP JUMPDEST PUSH1 0x9 PUSH1 0x0 SWAP1 SLOAD SWAP1 PUSH2 0x100 EXP SWAP1 DIV PUSH20 0xFFFFFFFFFFFFFFFFFFFFFFFFFFFFFFFFFFFFFFFF AND DUP2 JUMP JUMPDEST PUSH1 0x0 DUP1 PUSH1 0x0 SWAP1 SLOAD SWAP1 PUSH2 0x100 EXP SWAP1 DIV PUSH20 0xFFFFFFFFFFFFFFFFFFFFFFFFFFFFFFFFFFFFFFFF AND SWAP1 POP SWAP1 JUMP JUMPDEST PUSH1 0x8 PUSH1 0x1 SWAP1 SLOAD SWAP1 PUSH2 0x100 EXP SWAP1 DIV PUSH20 0xFFFFFFFFFFFFFFFFFFFFFFFFFFFFFFFFFFFFFFFF AND DUP2 JUMP JUMPDEST PUSH1 0x60 PUSH1 0x40 MLOAD DUP1 PUSH1 0x40 ADD PUSH1 0x40 MSTORE DUP1 PUSH1 0x4 DUP2 MSTORE PUSH1 0x20 ADD PUSH32 0x4149525400000000000000000000000000000000000000000000000000000000 DUP2 MSTORE POP SWAP1 POP SWAP1 JUMP JUMPDEST PUSH1 0x0 DUP1 PUSH1 0x2 PUSH1 0x0 PUSH2 0xBC4 PUSH2 0x12D2 JUMP JUMPDEST PUSH20 0xFFFFFFFFFFFFFFFFFFFFFFFFFFFFFFFFFFFFFFFF AND PUSH20 0xFFFFFFFFFFFFFFFFFFFFFFFFFFFFFFFFFFFFFFFF AND DUP2 MSTORE PUSH1 0x20 ADD SWAP1 DUP2 MSTORE PUSH1 0x20 ADD PUSH1 0x0 KECCAK256 PUSH1 0x0 DUP6 PUSH20 0xFFFFFFFFFFFFFFFFFFFFFFFFFFFFFFFFFFFFFFFF AND PUSH20 0xFFFFFFFFFFFFFFFFFFFFFFFFFFFFFFFFFFFFFFFF AND DUP2 MSTORE PUSH1 0x20 ADD SWAP1 DUP2 MSTORE PUSH1 0x20 ADD PUSH1 0x0 KECCAK256 SLOAD SWAP1 POP DUP3 DUP2 LT ISZERO PUSH2 0xC81 JUMPI PUSH1 0x40 MLOAD PUSH32 0x8C379A000000000000000000000000000000000000000000000000000000000 DUP2 MSTORE PUSH1 0x4 ADD PUSH2 0xC78 SWAP1 PUSH2 0x2476 JUMP JUMPDEST PUSH1 0x40 MLOAD DUP1 SWAP2 SUB SWAP1 REVERT JUMPDEST PUSH2 0xC95 PUSH2 0xC8C PUSH2 0x12D2 JUMP JUMPDEST DUP6 DUP6 DUP5 SUB PUSH2 0x12DA JUMP JUMPDEST PUSH1 0x1 SWAP2 POP POP SWAP3 SWAP2 POP POP JUMP JUMPDEST PUSH2 0xCA8 PUSH2 0x12D2 JUMP JUMPDEST PUSH20 0xFFFFFFFFFFFFFFFFFFFFFFFFFFFFFFFFFFFFFFFF AND PUSH2 0xCC6 PUSH2 0xB29 JUMP JUMPDEST PUSH20 0xFFFFFFFFFFFFFFFFFFFFFFFFFFFFFFFFFFFFFFFF AND EQ PUSH2 0xD1C JUMPI PUSH1 0x40 MLOAD PUSH32 0x8C379A000000000000000000000000000000000000000000000000000000000 DUP2 MSTORE PUSH1 0x4 ADD PUSH2 0xD13 SWAP1 PUSH2 0x23E4 JUMP JUMPDEST PUSH1 0x40 MLOAD DUP1 SWAP2 SUB SWAP1 REVERT JUMPDEST PUSH1 0x1 ISZERO ISZERO PUSH1 0x6 PUSH1 0x0 DUP4 PUSH20 0xFFFFFFFFFFFFFFFFFFFFFFFFFFFFFFFFFFFFFFFF AND PUSH20 0xFFFFFFFFFFFFFFFFFFFFFFFFFFFFFFFFFFFFFFFF AND DUP2 MSTORE PUSH1 0x20 ADD SWAP1 DUP2 MSTORE PUSH1 0x20 ADD PUSH1 0x0 KECCAK256 PUSH1 0x0 SWAP1 SLOAD SWAP1 PUSH2 0x100 EXP SWAP1 DIV PUSH1 0xFF AND ISZERO ISZERO SUB PUSH2 0xDD1 JUMPI PUSH1 0x0 PUSH1 0x6 PUSH1 0x0 DUP4 PUSH20 0xFFFFFFFFFFFFFFFFFFFFFFFFFFFFFFFFFFFFFFFF AND PUSH20 0xFFFFFFFFFFFFFFFFFFFFFFFFFFFFFFFFFFFFFFFF AND DUP2 MSTORE PUSH1 0x20 ADD SWAP1 DUP2 MSTORE PUSH1 0x20 ADD PUSH1 0x0 KECCAK256 PUSH1 0x0 PUSH2 0x100 EXP DUP2 SLOAD DUP2 PUSH1 0xFF MUL NOT AND SWAP1 DUP4 ISZERO ISZERO MUL OR SWAP1 SSTORE POP PUSH2 0xE2A JUMP JUMPDEST PUSH1 0x1 PUSH1 0x6 PUSH1 0x0 DUP4 PUSH20 0xFFFFFFFFFFFFFFFFFFFFFFFFFFFFFFFFFFFFFFFF AND PUSH20 0xFFFFFFFFFFFFFFFFFFFFFFFFFFFFFFFFFFFFFFFF AND DUP2 MSTORE PUSH1 0x20 ADD SWAP1 DUP2 MSTORE PUSH1 0x20 ADD PUSH1 0x0 KECCAK256 PUSH1 0x0 PUSH2 0x100 EXP DUP2 SLOAD DUP2 PUSH1 0xFF MUL NOT AND SWAP1 DUP4 ISZERO ISZERO MUL OR SWAP1 SSTORE POP JUMPDEST POP JUMP JUMPDEST PUSH1 0x0 PUSH2 0xE41 PUSH2 0xE3A PUSH2 0x12D2 JUMP JUMPDEST DUP5 DUP5 PUSH2 0x13C5 JUMP JUMPDEST PUSH1 0x1 SWAP1 POP SWAP3 SWAP2 POP POP JUMP JUMPDEST PUSH1 0x1 PUSH1 0x8 PUSH1 0x0 PUSH2 0x100 EXP DUP2 SLOAD DUP2 PUSH1 0xFF MUL NOT AND SWAP1 DUP4 ISZERO ISZERO MUL OR SWAP1 SSTORE POP PUSH1 0x0 PUSH1 0x2 PUSH8 0xFFFFFFFFFFFFFFFF DUP2 GT ISZERO PUSH2 0xE83 JUMPI PUSH2 0xE82 PUSH2 0x2496 JUMP JUMPDEST JUMPDEST PUSH1 0x40 MLOAD SWAP1 DUP1 DUP3 MSTORE DUP1 PUSH1 0x20 MUL PUSH1 0x20 ADD DUP3 ADD PUSH1 0x40 MSTORE DUP1 ISZERO PUSH2 0xEB1 JUMPI DUP2 PUSH1 0x20 ADD PUSH1 0x20 DUP3 MUL DUP1 CALLDATASIZE DUP4 CALLDATACOPY DUP1 DUP3 ADD SWAP2 POP POP SWAP1 POP JUMPDEST POP SWAP1 POP ADDRESS DUP2 PUSH1 0x0 DUP2 MLOAD DUP2 LT PUSH2 0xEC9 JUMPI PUSH2 0xEC8 PUSH2 0x24C5 JUMP JUMPDEST JUMPDEST PUSH1 0x20 MUL PUSH1 0x20 ADD ADD SWAP1 PUSH20 0xFFFFFFFFFFFFFFFFFFFFFFFFFFFFFFFFFFFFFFFF AND SWAP1 DUP2 PUSH20 0xFFFFFFFFFFFFFFFFFFFFFFFFFFFFFFFFFFFFFFFF AND DUP2 MSTORE POP POP PUSH1 0x9 PUSH1 0x0 SWAP1 SLOAD SWAP1 PUSH2 0x100 EXP SWAP1 DIV PUSH20 0xFFFFFFFFFFFFFFFFFFFFFFFFFFFFFFFFFFFFFFFF AND DUP2 PUSH1 0x1 DUP2 MLOAD DUP2 LT PUSH2 0xF3A JUMPI PUSH2 0xF39 PUSH2 0x24C5 JUMP JUMPDEST JUMPDEST PUSH1 0x20 MUL PUSH1 0x20 ADD ADD SWAP1 PUSH20 0xFFFFFFFFFFFFFFFFFFFFFFFFFFFFFFFFFFFFFFFF AND SWAP1 DUP2 PUSH20 0xFFFFFFFFFFFFFFFFFFFFFFFFFFFFFFFFFFFFFFFF AND DUP2 MSTORE POP POP PUSH2 0xF9F ADDRESS PUSH32 0x0 DUP5 PUSH2 0x12DA JUMP JUMPDEST PUSH32 0x0 PUSH20 0xFFFFFFFFFFFFFFFFFFFFFFFFFFFFFFFFFFFFFFFF AND PUSH4 0x5C11D795 DUP4 PUSH1 0x0 DUP5 PUSH1 0x8 PUSH1 0x1 SWAP1 SLOAD SWAP1 PUSH2 0x100 EXP SWAP1 DIV PUSH20 0xFFFFFFFFFFFFFFFFFFFFFFFFFFFFFFFFFFFFFFFF AND TIMESTAMP PUSH1 0x40 MLOAD DUP7 PUSH4 0xFFFFFFFF AND PUSH1 0xE0 SHL DUP2 MSTORE PUSH1 0x4 ADD PUSH2 0x1023 SWAP6 SWAP5 SWAP4 SWAP3 SWAP2 SWAP1 PUSH2 0x25ED JUMP JUMPDEST PUSH1 0x0 PUSH1 0x40 MLOAD DUP1 DUP4 SUB DUP2 PUSH1 0x0 DUP8 DUP1 EXTCODESIZE ISZERO DUP1 ISZERO PUSH2 0x103D JUMPI PUSH1 0x0 DUP1 REVERT JUMPDEST POP GAS CALL ISZERO DUP1 ISZERO PUSH2 0x1051 JUMPI RETURNDATASIZE PUSH1 0x0 DUP1 RETURNDATACOPY RETURNDATASIZE PUSH1 0x0 REVERT JUMPDEST POP POP POP POP POP PUSH1 0x0 PUSH1 0x8 PUSH1 0x0 PUSH2 0x100 EXP DUP2 SLOAD DUP2 PUSH1 0xFF MUL NOT AND SWAP1 DUP4 ISZERO ISZERO MUL OR SWAP1 SSTORE POP POP JUMP JUMPDEST PUSH1 0x0 PUSH1 0x2 PUSH1 0x0 DUP5 PUSH20 0xFFFFFFFFFFFFFFFFFFFFFFFFFFFFFFFFFFFFFFFF AND PUSH20 0xFFFFFFFFFFFFFFFFFFFFFFFFFFFFFFFFFFFFFFFF AND DUP2 MSTORE PUSH1 0x20 ADD SWAP1 DUP2 MSTORE PUSH1 0x20 ADD PUSH1 0x0 KECCAK256 PUSH1 0x0 DUP4 PUSH20 0xFFFFFFFFFFFFFFFFFFFFFFFFFFFFFFFFFFFFFFFF AND PUSH20 0xFFFFFFFFFFFFFFFFFFFFFFFFFFFFFFFFFFFFFFFF AND DUP2 MSTORE PUSH1 0x20 ADD SWAP1 DUP2 MSTORE PUSH1 0x20 ADD PUSH1 0x0 KECCAK256 SLOAD SWAP1 POP SWAP3 SWAP2 POP POP JUMP JUMPDEST PUSH1 0x7 PUSH1 0x20 MSTORE DUP1 PUSH1 0x0 MSTORE PUSH1 0x40 PUSH1 0x0 KECCAK256 PUSH1 0x0 SWAP2 POP SLOAD SWAP1 PUSH2 0x100 EXP SWAP1 DIV PUSH1 0xFF AND DUP2 JUMP JUMPDEST PUSH2 0x1123 PUSH2 0x12D2 JUMP JUMPDEST PUSH20 0xFFFFFFFFFFFFFFFFFFFFFFFFFFFFFFFFFFFFFFFF AND PUSH2 0x1141 PUSH2 0xB29 JUMP JUMPDEST PUSH20 0xFFFFFFFFFFFFFFFFFFFFFFFFFFFFFFFFFFFFFFFF AND EQ PUSH2 0x1197 JUMPI PUSH1 0x40 MLOAD PUSH32 0x8C379A000000000000000000000000000000000000000000000000000000000 DUP2 MSTORE PUSH1 0x4 ADD PUSH2 0x118E SWAP1 PUSH2 0x23E4 JUMP JUMPDEST PUSH1 0x40 MLOAD DUP1 SWAP2 SUB SWAP1 REVERT JUMPDEST PUSH1 0x0 PUSH20 0xFFFFFFFFFFFFFFFFFFFFFFFFFFFFFFFFFFFFFFFF AND DUP2 PUSH20 0xFFFFFFFFFFFFFFFFFFFFFFFFFFFFFFFFFFFFFFFF AND SUB PUSH2 0x1206 JUMPI PUSH1 0x40 MLOAD PUSH32 0x8C379A000000000000000000000000000000000000000000000000000000000 DUP2 MSTORE PUSH1 0x4 ADD PUSH2 0x11FD SWAP1 PUSH2 0x26B9 JUMP JUMPDEST PUSH1 0x40 MLOAD DUP1 SWAP2 SUB SWAP1 REVERT JUMPDEST PUSH2 0x120F DUP2 PUSH2 0x1BF9 JUMP JUMPDEST POP JUMP JUMPDEST PUSH2 0x121A PUSH2 0x12D2 JUMP JUMPDEST PUSH20 0xFFFFFFFFFFFFFFFFFFFFFFFFFFFFFFFFFFFFFFFF AND PUSH2 0x1238 PUSH2 0xB29 JUMP JUMPDEST PUSH20 0xFFFFFFFFFFFFFFFFFFFFFFFFFFFFFFFFFFFFFFFF AND EQ PUSH2 0x128E JUMPI PUSH1 0x40 MLOAD PUSH32 0x8C379A000000000000000000000000000000000000000000000000000000000 DUP2 MSTORE PUSH1 0x4 ADD PUSH2 0x1285 SWAP1 PUSH2 0x23E4 JUMP JUMPDEST PUSH1 0x40 MLOAD DUP1 SWAP2 SUB SWAP1 REVERT JUMPDEST DUP1 PUSH1 0x8 PUSH1 0x1 PUSH2 0x100 EXP DUP2 SLOAD DUP2 PUSH20 0xFFFFFFFFFFFFFFFFFFFFFFFFFFFFFFFFFFFFFFFF MUL NOT AND SWAP1 DUP4 PUSH20 0xFFFFFFFFFFFFFFFFFFFFFFFFFFFFFFFFFFFFFFFF AND MUL OR SWAP1 SSTORE POP POP JUMP JUMPDEST PUSH1 0x0 CALLER SWAP1 POP SWAP1 JUMP JUMPDEST DUP1 PUSH1 0x2 PUSH1 0x0 DUP6 PUSH20 0xFFFFFFFFFFFFFFFFFFFFFFFFFFFFFFFFFFFFFFFF AND PUSH20 0xFFFFFFFFFFFFFFFFFFFFFFFFFFFFFFFFFFFFFFFF AND DUP2 MSTORE PUSH1 0x20 ADD SWAP1 DUP2 MSTORE PUSH1 0x20 ADD PUSH1 0x0 KECCAK256 PUSH1 0x0 DUP5 PUSH20 0xFFFFFFFFFFFFFFFFFFFFFFFFFFFFFFFFFFFFFFFF AND PUSH20 0xFFFFFFFFFFFFFFFFFFFFFFFFFFFFFFFFFFFFFFFF AND DUP2 MSTORE PUSH1 0x20 ADD SWAP1 DUP2 MSTORE PUSH1 0x20 ADD PUSH1 0x0 KECCAK256 DUP2 SWAP1 SSTORE POP DUP2 PUSH20 0xFFFFFFFFFFFFFFFFFFFFFFFFFFFFFFFFFFFFFFFF AND DUP4 PUSH20 0xFFFFFFFFFFFFFFFFFFFFFFFFFFFFFFFFFFFFFFFF AND PUSH32 0x8C5BE1E5EBEC7D5BD14F71427D1E84F3DD0314C0F7B2291E5B200AC8C7C3B925 DUP4 PUSH1 0x40 MLOAD PUSH2 0x13B8 SWAP2 SWAP1 PUSH2 0x213A JUMP JUMPDEST PUSH1 0x40 MLOAD DUP1 SWAP2 SUB SWAP1 LOG3 POP POP POP JUMP JUMPDEST PUSH1 0x0 PUSH20 0xFFFFFFFFFFFFFFFFFFFFFFFFFFFFFFFFFFFFFFFF AND DUP4 PUSH20 0xFFFFFFFFFFFFFFFFFFFFFFFFFFFFFFFFFFFFFFFF AND SUB PUSH2 0x1434 JUMPI PUSH1 0x40 MLOAD PUSH32 0x8C379A000000000000000000000000000000000000000000000000000000000 DUP2 MSTORE PUSH1 0x4 ADD PUSH2 0x142B SWAP1 PUSH2 0x274B JUMP JUMPDEST PUSH1 0x40 MLOAD DUP1 SWAP2 SUB SWAP1 REVERT JUMPDEST PUSH1 0x0 PUSH20 0xFFFFFFFFFFFFFFFFFFFFFFFFFFFFFFFFFFFFFFFF AND DUP3 PUSH20 0xFFFFFFFFFFFFFFFFFFFFFFFFFFFFFFFFFFFFFFFF AND SUB PUSH2 0x14A3 JUMPI PUSH1 0x40 MLOAD PUSH32 0x8C379A000000000000000000000000000000000000000000000000000000000 DUP2 MSTORE PUSH1 0x4 ADD PUSH2 0x149A SWAP1 PUSH2 0x27DD JUMP JUMPDEST PUSH1 0x40 MLOAD DUP1 SWAP2 SUB SWAP1 REVERT JUMPDEST PUSH1 0x0 PUSH1 0x1 PUSH1 0x0 DUP6 PUSH20 0xFFFFFFFFFFFFFFFFFFFFFFFFFFFFFFFFFFFFFFFF AND PUSH20 0xFFFFFFFFFFFFFFFFFFFFFFFFFFFFFFFFFFFFFFFF AND DUP2 MSTORE PUSH1 0x20 ADD SWAP1 DUP2 MSTORE PUSH1 0x20 ADD PUSH1 0x0 KECCAK256 SLOAD SWAP1 POP DUP2 DUP2 LT ISZERO PUSH2 0x152A JUMPI PUSH1 0x40 MLOAD PUSH32 0x8C379A000000000000000000000000000000000000000000000000000000000 DUP2 MSTORE PUSH1 0x4 ADD PUSH2 0x1521 SWAP1 PUSH2 0x286F JUMP JUMPDEST PUSH1 0x40 MLOAD DUP1 SWAP2 SUB SWAP1 REVERT JUMPDEST PUSH1 0x0 DUP3 SWAP1 POP PUSH1 0x7 PUSH1 0x0 DUP7 PUSH20 0xFFFFFFFFFFFFFFFFFFFFFFFFFFFFFFFFFFFFFFFF AND PUSH20 0xFFFFFFFFFFFFFFFFFFFFFFFFFFFFFFFFFFFFFFFF AND DUP2 MSTORE PUSH1 0x20 ADD SWAP1 DUP2 MSTORE PUSH1 0x20 ADD PUSH1 0x0 KECCAK256 PUSH1 0x0 SWAP1 SLOAD SWAP1 PUSH2 0x100 EXP SWAP1 DIV PUSH1 0xFF AND DUP1 ISZERO PUSH2 0x15D4 JUMPI POP PUSH32 0x0 PUSH20 0xFFFFFFFFFFFFFFFFFFFFFFFFFFFFFFFFFFFFFFFF AND DUP5 PUSH20 0xFFFFFFFFFFFFFFFFFFFFFFFFFFFFFFFFFFFFFFFF AND EQ ISZERO JUMPDEST DUP1 PUSH2 0x1628 JUMPI POP PUSH1 0x7 PUSH1 0x0 DUP6 PUSH20 0xFFFFFFFFFFFFFFFFFFFFFFFFFFFFFFFFFFFFFFFF AND PUSH20 0xFFFFFFFFFFFFFFFFFFFFFFFFFFFFFFFFFFFFFFFF AND DUP2 MSTORE PUSH1 0x20 ADD SWAP1 DUP2 MSTORE PUSH1 0x20 ADD PUSH1 0x0 KECCAK256 PUSH1 0x0 SWAP1 SLOAD SWAP1 PUSH2 0x100 EXP SWAP1 DIV PUSH1 0xFF AND JUMPDEST DUP1 ISZERO PUSH2 0x167E JUMPI POP PUSH1 0x6 PUSH1 0x0 DUP7 PUSH20 0xFFFFFFFFFFFFFFFFFFFFFFFFFFFFFFFFFFFFFFFF AND PUSH20 0xFFFFFFFFFFFFFFFFFFFFFFFFFFFFFFFFFFFFFFFF AND DUP2 MSTORE PUSH1 0x20 ADD SWAP1 DUP2 MSTORE PUSH1 0x20 ADD PUSH1 0x0 KECCAK256 PUSH1 0x0 SWAP1 SLOAD SWAP1 PUSH2 0x100 EXP SWAP1 DIV PUSH1 0xFF AND ISZERO JUMPDEST DUP1 ISZERO PUSH2 0x16D4 JUMPI POP PUSH1 0x6 PUSH1 0x0 DUP6 PUSH20 0xFFFFFFFFFFFFFFFFFFFFFFFFFFFFFFFFFFFFFFFF AND PUSH20 0xFFFFFFFFFFFFFFFFFFFFFFFFFFFFFFFFFFFFFFFF AND DUP2 MSTORE PUSH1 0x20 ADD SWAP1 DUP2 MSTORE PUSH1 0x20 ADD PUSH1 0x0 KECCAK256 PUSH1 0x0 SWAP1 SLOAD SWAP1 PUSH2 0x100 EXP SWAP1 DIV PUSH1 0xFF AND ISZERO JUMPDEST ISZERO PUSH2 0x18E2 JUMPI PUSH2 0x1752 PUSH2 0x1704 PUSH2 0x3E8 PUSH2 0x16F6 PUSH1 0xA DUP8 PUSH2 0x1CBD SWAP1 SWAP2 SWAP1 PUSH4 0xFFFFFFFF AND JUMP JUMPDEST PUSH2 0x1D37 SWAP1 SWAP2 SWAP1 PUSH4 0xFFFFFFFF AND JUMP JUMPDEST PUSH1 0x1 PUSH1 0x0 ADDRESS PUSH20 0xFFFFFFFFFFFFFFFFFFFFFFFFFFFFFFFFFFFFFFFF AND PUSH20 0xFFFFFFFFFFFFFFFFFFFFFFFFFFFFFFFFFFFFFFFF AND DUP2 MSTORE PUSH1 0x20 ADD SWAP1 DUP2 MSTORE PUSH1 0x20 ADD PUSH1 0x0 KECCAK256 SLOAD PUSH2 0x1D81 SWAP1 SWAP2 SWAP1 PUSH4 0xFFFFFFFF AND JUMP JUMPDEST PUSH1 0x1 PUSH1 0x0 ADDRESS PUSH20 0xFFFFFFFFFFFFFFFFFFFFFFFFFFFFFFFFFFFFFFFF AND PUSH20 0xFFFFFFFFFFFFFFFFFFFFFFFFFFFFFFFFFFFFFFFF AND DUP2 MSTORE PUSH1 0x20 ADD SWAP1 DUP2 MSTORE PUSH1 0x20 ADD PUSH1 0x0 KECCAK256 DUP2 SWAP1 SSTORE POP ADDRESS PUSH20 0xFFFFFFFFFFFFFFFFFFFFFFFFFFFFFFFFFFFFFFFF AND DUP6 PUSH20 0xFFFFFFFFFFFFFFFFFFFFFFFFFFFFFFFFFFFFFFFF AND PUSH32 0xDDF252AD1BE2C89B69C2B068FC378DAA952BA7F163C4A11628F55A4DF523B3EF PUSH2 0x180C PUSH2 0x3E8 PUSH2 0x17FE PUSH1 0xA DUP10 PUSH2 0x1CBD SWAP1 SWAP2 SWAP1 PUSH4 0xFFFFFFFF AND JUMP JUMPDEST PUSH2 0x1D37 SWAP1 SWAP2 SWAP1 PUSH4 0xFFFFFFFF AND JUMP JUMPDEST PUSH1 0x40 MLOAD PUSH2 0x1819 SWAP2 SWAP1 PUSH2 0x213A JUMP JUMPDEST PUSH1 0x40 MLOAD DUP1 SWAP2 SUB SWAP1 LOG3 PUSH2 0x184A PUSH2 0x3DE PUSH2 0x183C PUSH2 0x3E8 DUP7 PUSH2 0x1D37 SWAP1 SWAP2 SWAP1 PUSH4 0xFFFFFFFF AND JUMP JUMPDEST PUSH2 0x1CBD SWAP1 SWAP2 SWAP1 PUSH4 0xFFFFFFFF AND JUMP JUMPDEST SWAP1 POP PUSH1 0x8 PUSH1 0x0 SWAP1 SLOAD SWAP1 PUSH2 0x100 EXP SWAP1 DIV PUSH1 0xFF AND ISZERO DUP1 ISZERO PUSH2 0x18B3 JUMPI POP PUSH1 0x7 PUSH1 0x0 DUP7 PUSH20 0xFFFFFFFFFFFFFFFFFFFFFFFFFFFFFFFFFFFFFFFF AND PUSH20 0xFFFFFFFFFFFFFFFFFFFFFFFFFFFFFFFFFFFFFFFF AND DUP2 MSTORE PUSH1 0x20 ADD SWAP1 DUP2 MSTORE PUSH1 0x20 ADD PUSH1 0x0 KECCAK256 PUSH1 0x0 SWAP1 SLOAD SWAP1 PUSH2 0x100 EXP SWAP1 DIV PUSH1 0xFF AND ISZERO JUMPDEST ISZERO PUSH2 0x18E1 JUMPI PUSH1 0x0 PUSH2 0x18C3 ADDRESS PUSH2 0xA32 JUMP JUMPDEST SWAP1 POP PUSH8 0x8AC7230489E80000 DUP2 GT ISZERO PUSH2 0x18DF JUMPI PUSH2 0x18DE DUP2 PUSH2 0xE4B JUMP JUMPDEST JUMPDEST POP JUMPDEST JUMPDEST PUSH2 0x18F5 DUP4 DUP4 PUSH2 0x1DDF SWAP1 SWAP2 SWAP1 PUSH4 0xFFFFFFFF AND JUMP JUMPDEST PUSH1 0x1 PUSH1 0x0 DUP8 PUSH20 0xFFFFFFFFFFFFFFFFFFFFFFFFFFFFFFFFFFFFFFFF AND PUSH20 0xFFFFFFFFFFFFFFFFFFFFFFFFFFFFFFFFFFFFFFFF AND DUP2 MSTORE PUSH1 0x20 ADD SWAP1 DUP2 MSTORE PUSH1 0x20 ADD PUSH1 0x0 KECCAK256 DUP2 SWAP1 SSTORE POP PUSH2 0x198A DUP2 PUSH1 0x1 PUSH1 0x0 DUP8 PUSH20 0xFFFFFFFFFFFFFFFFFFFFFFFFFFFFFFFFFFFFFFFF AND PUSH20 0xFFFFFFFFFFFFFFFFFFFFFFFFFFFFFFFFFFFFFFFF AND DUP2 MSTORE PUSH1 0x20 ADD SWAP1 DUP2 MSTORE PUSH1 0x20 ADD PUSH1 0x0 KECCAK256 SLOAD PUSH2 0x1D81 SWAP1 SWAP2 SWAP1 PUSH4 0xFFFFFFFF AND JUMP JUMPDEST PUSH1 0x1 PUSH1 0x0 DUP7 PUSH20 0xFFFFFFFFFFFFFFFFFFFFFFFFFFFFFFFFFFFFFFFF AND PUSH20 0xFFFFFFFFFFFFFFFFFFFFFFFFFFFFFFFFFFFFFFFF AND DUP2 MSTORE PUSH1 0x20 ADD SWAP1 DUP2 MSTORE PUSH1 0x20 ADD PUSH1 0x0 KECCAK256 DUP2 SWAP1 SSTORE POP DUP4 PUSH20 0xFFFFFFFFFFFFFFFFFFFFFFFFFFFFFFFFFFFFFFFF AND DUP6 PUSH20 0xFFFFFFFFFFFFFFFFFFFFFFFFFFFFFFFFFFFFFFFF AND PUSH32 0xDDF252AD1BE2C89B69C2B068FC378DAA952BA7F163C4A11628F55A4DF523B3EF DUP4 PUSH1 0x40 MLOAD PUSH2 0x1A2A SWAP2 SWAP1 PUSH2 0x213A JUMP JUMPDEST PUSH1 0x40 MLOAD DUP1 SWAP2 SUB SWAP1 LOG3 POP POP POP POP POP JUMP JUMPDEST PUSH1 0x0 PUSH20 0xFFFFFFFFFFFFFFFFFFFFFFFFFFFFFFFFFFFFFFFF AND DUP3 PUSH20 0xFFFFFFFFFFFFFFFFFFFFFFFFFFFFFFFFFFFFFFFF AND SUB PUSH2 0x1AA8 JUMPI PUSH1 0x40 MLOAD PUSH32 0x8C379A000000000000000000000000000000000000000000000000000000000 DUP2 MSTORE PUSH1 0x4 ADD PUSH2 0x1A9F SWAP1 PUSH2 0x28DB JUMP JUMPDEST PUSH1 0x40 MLOAD DUP1 SWAP2 SUB SWAP1 REVERT JUMPDEST PUSH1 0x0 PUSH1 0x1 PUSH1 0x0 DUP5 PUSH20 0xFFFFFFFFFFFFFFFFFFFFFFFFFFFFFFFFFFFFFFFF AND PUSH20 0xFFFFFFFFFFFFFFFFFFFFFFFFFFFFFFFFFFFFFFFF AND DUP2 MSTORE PUSH1 0x20 ADD SWAP1 DUP2 MSTORE PUSH1 0x20 ADD PUSH1 0x0 KECCAK256 SLOAD SWAP1 POP DUP2 DUP2 LT ISZERO PUSH2 0x1B2F JUMPI PUSH1 0x40 MLOAD PUSH32 0x8C379A000000000000000000000000000000000000000000000000000000000 DUP2 MSTORE PUSH1 0x4 ADD PUSH2 0x1B26 SWAP1 PUSH2 0x2947 JUMP JUMPDEST PUSH1 0x40 MLOAD DUP1 SWAP2 SUB SWAP1 REVERT JUMPDEST DUP2 DUP2 SUB PUSH1 0x1 PUSH1 0x0 DUP6 PUSH20 0xFFFFFFFFFFFFFFFFFFFFFFFFFFFFFFFFFFFFFFFF AND PUSH20 0xFFFFFFFFFFFFFFFFFFFFFFFFFFFFFFFFFFFFFFFF AND DUP2 MSTORE PUSH1 0x20 ADD SWAP1 DUP2 MSTORE PUSH1 0x20 ADD PUSH1 0x0 KECCAK256 DUP2 SWAP1 SSTORE POP DUP2 PUSH1 0x3 PUSH1 0x0 DUP3 DUP3 SLOAD PUSH2 0x1B87 SWAP2 SWAP1 PUSH2 0x2967 JUMP JUMPDEST SWAP3 POP POP DUP2 SWAP1 SSTORE POP PUSH1 0x0 PUSH20 0xFFFFFFFFFFFFFFFFFFFFFFFFFFFFFFFFFFFFFFFF AND DUP4 PUSH20 0xFFFFFFFFFFFFFFFFFFFFFFFFFFFFFFFFFFFFFFFF AND PUSH32 0xDDF252AD1BE2C89B69C2B068FC378DAA952BA7F163C4A11628F55A4DF523B3EF DUP5 PUSH1 0x40 MLOAD PUSH2 0x1BEC SWAP2 SWAP1 PUSH2 0x213A JUMP JUMPDEST PUSH1 0x40 MLOAD DUP1 SWAP2 SUB SWAP1 LOG3 POP POP POP JUMP JUMPDEST PUSH1 0x0 DUP1 PUSH1 0x0 SWAP1 SLOAD SWAP1 PUSH2 0x100 EXP SWAP1 DIV PUSH20 0xFFFFFFFFFFFFFFFFFFFFFFFFFFFFFFFFFFFFFFFF AND SWAP1 POP DUP2 PUSH1 0x0 DUP1 PUSH2 0x100 EXP DUP2 SLOAD DUP2 PUSH20 0xFFFFFFFFFFFFFFFFFFFFFFFFFFFFFFFFFFFFFFFF MUL NOT AND SWAP1 DUP4 PUSH20 0xFFFFFFFFFFFFFFFFFFFFFFFFFFFFFFFFFFFFFFFF AND MUL OR SWAP1 SSTORE POP DUP2 PUSH20 0xFFFFFFFFFFFFFFFFFFFFFFFFFFFFFFFFFFFFFFFF AND DUP2 PUSH20 0xFFFFFFFFFFFFFFFFFFFFFFFFFFFFFFFFFFFFFFFF AND PUSH32 0x8BE0079C531659141344CD1FD0A4F28419497F9722A3DAAFE3B4186F6B6457E0 PUSH1 0x40 MLOAD PUSH1 0x40 MLOAD DUP1 SWAP2 SUB SWAP1 LOG3 POP POP JUMP JUMPDEST PUSH1 0x0 DUP1 DUP4 SUB PUSH2 0x1CCF JUMPI PUSH1 0x0 SWAP1 POP PUSH2 0x1D31 JUMP JUMPDEST PUSH1 0x0 DUP3 DUP5 PUSH2 0x1CDD SWAP2 SWAP1 PUSH2 0x299B JUMP JUMPDEST SWAP1 POP DUP3 DUP5 DUP3 PUSH2 0x1CEC SWAP2 SWAP1 PUSH2 0x2A0C JUMP JUMPDEST EQ PUSH2 0x1D2C JUMPI PUSH1 0x40 MLOAD PUSH32 0x8C379A000000000000000000000000000000000000000000000000000000000 DUP2 MSTORE PUSH1 0x4 ADD PUSH2 0x1D23 SWAP1 PUSH2 0x2AAF JUMP JUMPDEST PUSH1 0x40 MLOAD DUP1 SWAP2 SUB SWAP1 REVERT JUMPDEST DUP1 SWAP2 POP POP JUMPDEST SWAP3 SWAP2 POP POP JUMP JUMPDEST PUSH1 0x0 PUSH2 0x1D79 DUP4 DUP4 PUSH1 0x40 MLOAD DUP1 PUSH1 0x40 ADD PUSH1 0x40 MSTORE DUP1 PUSH1 0x1A DUP2 MSTORE PUSH1 0x20 ADD PUSH32 0x536166654D6174683A206469766973696F6E206279207A65726F000000000000 DUP2 MSTORE POP PUSH2 0x1E29 JUMP JUMPDEST SWAP1 POP SWAP3 SWAP2 POP POP JUMP JUMPDEST PUSH1 0x0 DUP1 DUP3 DUP5 PUSH2 0x1D90 SWAP2 SWAP1 PUSH2 0x2364 JUMP JUMPDEST SWAP1 POP DUP4 DUP2 LT ISZERO PUSH2 0x1DD5 JUMPI PUSH1 0x40 MLOAD PUSH32 0x8C379A000000000000000000000000000000000000000000000000000000000 DUP2 MSTORE PUSH1 0x4 ADD PUSH2 0x1DCC SWAP1 PUSH2 0x2B1B JUMP JUMPDEST PUSH1 0x40 MLOAD DUP1 SWAP2 SUB SWAP1 REVERT JUMPDEST DUP1 SWAP2 POP POP SWAP3 SWAP2 POP POP JUMP JUMPDEST PUSH1 0x0 PUSH2 0x1E21 DUP4 DUP4 PUSH1 0x40 MLOAD DUP1 PUSH1 0x40 ADD PUSH1 0x40 MSTORE DUP1 PUSH1 0x1E DUP2 MSTORE PUSH1 0x20 ADD PUSH32 0x536166654D6174683A207375627472616374696F6E206F766572666C6F770000 DUP2 MSTORE POP PUSH2 0x1E8C JUMP JUMPDEST SWAP1 POP SWAP3 SWAP2 POP POP JUMP JUMPDEST PUSH1 0x0 DUP1 DUP4 GT DUP3 SWAP1 PUSH2 0x1E70 JUMPI PUSH1 0x40 MLOAD PUSH32 0x8C379A000000000000000000000000000000000000000000000000000000000 DUP2 MSTORE PUSH1 0x4 ADD PUSH2 0x1E67 SWAP2 SWAP1 PUSH2 0x1F80 JUMP JUMPDEST PUSH1 0x40 MLOAD DUP1 SWAP2 SUB SWAP1 REVERT JUMPDEST POP PUSH1 0x0 DUP4 DUP6 PUSH2 0x1E7F SWAP2 SWAP1 PUSH2 0x2A0C JUMP JUMPDEST SWAP1 POP DUP1 SWAP2 POP POP SWAP4 SWAP3 POP POP POP JUMP JUMPDEST PUSH1 0x0 DUP4 DUP4 GT ISZERO DUP3 SWAP1 PUSH2 0x1ED4 JUMPI PUSH1 0x40 MLOAD PUSH32 0x8C379A000000000000000000000000000000000000000000000000000000000 DUP2 MSTORE PUSH1 0x4 ADD PUSH2 0x1ECB SWAP2 SWAP1 PUSH2 0x1F80 JUMP JUMPDEST PUSH1 0x40 MLOAD DUP1 SWAP2 SUB SWAP1 REVERT JUMPDEST POP PUSH1 0x0 DUP4 DUP6 PUSH2 0x1EE3 SWAP2 SWAP1 PUSH2 0x2967 JUMP JUMPDEST SWAP1 POP DUP1 SWAP2 POP POP SWAP4 SWAP3 POP POP POP JUMP JUMPDEST PUSH1 0x0 DUP2 MLOAD SWAP1 POP SWAP2 SWAP1 POP JUMP JUMPDEST PUSH1 0x0 DUP3 DUP3 MSTORE PUSH1 0x20 DUP3 ADD SWAP1 POP SWAP3 SWAP2 POP POP JUMP JUMPDEST PUSH1 0x0 JUMPDEST DUP4 DUP2 LT ISZERO PUSH2 0x1F2A JUMPI DUP1 DUP3 ADD MLOAD DUP2 DUP5 ADD MSTORE PUSH1 0x20 DUP2 ADD SWAP1 POP PUSH2 0x1F0F JUMP JUMPDEST PUSH1 0x0 DUP5 DUP5 ADD MSTORE POP POP POP POP JUMP JUMPDEST PUSH1 0x0 PUSH1 0x1F NOT PUSH1 0x1F DUP4 ADD AND SWAP1 POP SWAP2 SWAP1 POP JUMP JUMPDEST PUSH1 0x0 PUSH2 0x1F52 DUP3 PUSH2 0x1EF0 JUMP JUMPDEST PUSH2 0x1F5C DUP2 DUP6 PUSH2 0x1EFB JUMP JUMPDEST SWAP4 POP PUSH2 0x1F6C DUP2 DUP6 PUSH1 0x20 DUP7 ADD PUSH2 0x1F0C JUMP JUMPDEST PUSH2 0x1F75 DUP2 PUSH2 0x1F36 JUMP JUMPDEST DUP5 ADD SWAP2 POP POP SWAP3 SWAP2 POP POP JUMP JUMPDEST PUSH1 0x0 PUSH1 0x20 DUP3 ADD SWAP1 POP DUP2 DUP2 SUB PUSH1 0x0 DUP4 ADD MSTORE PUSH2 0x1F9A DUP2 DUP5 PUSH2 0x1F47 JUMP JUMPDEST SWAP1 POP SWAP3 SWAP2 POP POP JUMP JUMPDEST PUSH1 0x0 DUP1 REVERT JUMPDEST PUSH1 0x0 PUSH20 0xFFFFFFFFFFFFFFFFFFFFFFFFFFFFFFFFFFFFFFFF DUP3 AND SWAP1 POP SWAP2 SWAP1 POP JUMP JUMPDEST PUSH1 0x0 PUSH2 0x1FD2 DUP3 PUSH2 0x1FA7 JUMP JUMPDEST SWAP1 POP SWAP2 SWAP1 POP JUMP JUMPDEST PUSH2 0x1FE2 DUP2 PUSH2 0x1FC7 JUMP JUMPDEST DUP2 EQ PUSH2 0x1FED JUMPI PUSH1 0x0 DUP1 REVERT JUMPDEST POP JUMP JUMPDEST PUSH1 0x0 DUP2 CALLDATALOAD SWAP1 POP PUSH2 0x1FFF DUP2 PUSH2 0x1FD9 JUMP JUMPDEST SWAP3 SWAP2 POP POP JUMP JUMPDEST PUSH1 0x0 DUP2 SWAP1 POP SWAP2 SWAP1 POP JUMP JUMPDEST PUSH2 0x2018 DUP2 PUSH2 0x2005 JUMP JUMPDEST DUP2 EQ PUSH2 0x2023 JUMPI PUSH1 0x0 DUP1 REVERT JUMPDEST POP JUMP JUMPDEST PUSH1 0x0 DUP2 CALLDATALOAD SWAP1 POP PUSH2 0x2035 DUP2 PUSH2 0x200F JUMP JUMPDEST SWAP3 SWAP2 POP POP JUMP JUMPDEST PUSH1 0x0 DUP1 PUSH1 0x40 DUP4 DUP6 SUB SLT ISZERO PUSH2 0x2052 JUMPI PUSH2 0x2051 PUSH2 0x1FA2 JUMP JUMPDEST JUMPDEST PUSH1 0x0 PUSH2 0x2060 DUP6 DUP3 DUP7 ADD PUSH2 0x1FF0 JUMP JUMPDEST SWAP3 POP POP PUSH1 0x20 PUSH2 0x2071 DUP6 DUP3 DUP7 ADD PUSH2 0x2026 JUMP JUMPDEST SWAP2 POP POP SWAP3 POP SWAP3 SWAP1 POP JUMP JUMPDEST PUSH1 0x0 DUP2 ISZERO ISZERO SWAP1 POP SWAP2 SWAP1 POP JUMP JUMPDEST PUSH2 0x2090 DUP2 PUSH2 0x207B JUMP JUMPDEST DUP3 MSTORE POP POP JUMP JUMPDEST PUSH1 0x0 PUSH1 0x20 DUP3 ADD SWAP1 POP PUSH2 0x20AB PUSH1 0x0 DUP4 ADD DUP5 PUSH2 0x2087 JUMP JUMPDEST SWAP3 SWAP2 POP POP JUMP JUMPDEST PUSH1 0x0 DUP2 SWAP1 POP SWAP2 SWAP1 POP JUMP JUMPDEST PUSH1 0x0 PUSH2 0x20D6 PUSH2 0x20D1 PUSH2 0x20CC DUP5 PUSH2 0x1FA7 JUMP JUMPDEST PUSH2 0x20B1 JUMP JUMPDEST PUSH2 0x1FA7 JUMP JUMPDEST SWAP1 POP SWAP2 SWAP1 POP JUMP JUMPDEST PUSH1 0x0 PUSH2 0x20E8 DUP3 PUSH2 0x20BB JUMP JUMPDEST SWAP1 POP SWAP2 SWAP1 POP JUMP JUMPDEST PUSH1 0x0 PUSH2 0x20FA DUP3 PUSH2 0x20DD JUMP JUMPDEST SWAP1 POP SWAP2 SWAP1 POP JUMP JUMPDEST PUSH2 0x210A DUP2 PUSH2 0x20EF JUMP JUMPDEST DUP3 MSTORE POP POP JUMP JUMPDEST PUSH1 0x0 PUSH1 0x20 DUP3 ADD SWAP1 POP PUSH2 0x2125 PUSH1 0x0 DUP4 ADD DUP5 PUSH2 0x2101 JUMP JUMPDEST SWAP3 SWAP2 POP POP JUMP JUMPDEST PUSH2 0x2134 DUP2 PUSH2 0x2005 JUMP JUMPDEST DUP3 MSTORE POP POP JUMP JUMPDEST PUSH1 0x0 PUSH1 0x20 DUP3 ADD SWAP1 POP PUSH2 0x214F PUSH1 0x0 DUP4 ADD DUP5 PUSH2 0x212B JUMP JUMPDEST SWAP3 SWAP2 POP POP JUMP JUMPDEST PUSH1 0x0 DUP1 PUSH1 0x0 PUSH1 0x60 DUP5 DUP7 SUB SLT ISZERO PUSH2 0x216E JUMPI PUSH2 0x216D PUSH2 0x1FA2 JUMP JUMPDEST JUMPDEST PUSH1 0x0 PUSH2 0x217C DUP7 DUP3 DUP8 ADD PUSH2 0x1FF0 JUMP JUMPDEST SWAP4 POP POP PUSH1 0x20 PUSH2 0x218D DUP7 DUP3 DUP8 ADD PUSH2 0x1FF0 JUMP JUMPDEST SWAP3 POP POP PUSH1 0x40 PUSH2 0x219E DUP7 DUP3 DUP8 ADD PUSH2 0x2026 JUMP JUMPDEST SWAP2 POP POP SWAP3 POP SWAP3 POP SWAP3 JUMP JUMPDEST PUSH2 0x21B1 DUP2 PUSH2 0x1FC7 JUMP JUMPDEST DUP3 MSTORE POP POP JUMP JUMPDEST PUSH1 0x0 PUSH1 0x20 DUP3 ADD SWAP1 POP PUSH2 0x21CC PUSH1 0x0 DUP4 ADD DUP5 PUSH2 0x21A8 JUMP JUMPDEST SWAP3 SWAP2 POP POP JUMP JUMPDEST PUSH1 0x0 PUSH1 0xFF DUP3 AND SWAP1 POP SWAP2 SWAP1 POP JUMP JUMPDEST PUSH2 0x21E8 DUP2 PUSH2 0x21D2 JUMP JUMPDEST DUP3 MSTORE POP POP JUMP JUMPDEST PUSH1 0x0 PUSH1 0x20 DUP3 ADD SWAP1 POP PUSH2 0x2203 PUSH1 0x0 DUP4 ADD DUP5 PUSH2 0x21DF JUMP JUMPDEST SWAP3 SWAP2 POP POP JUMP JUMPDEST PUSH1 0x0 PUSH1 0x20 DUP3 DUP5 SUB SLT ISZERO PUSH2 0x221F JUMPI PUSH2 0x221E PUSH2 0x1FA2 JUMP JUMPDEST JUMPDEST PUSH1 0x0 PUSH2 0x222D DUP5 DUP3 DUP6 ADD PUSH2 0x2026 JUMP JUMPDEST SWAP2 POP POP SWAP3 SWAP2 POP POP JUMP JUMPDEST PUSH1 0x0 PUSH1 0x20 DUP3 DUP5 SUB SLT ISZERO PUSH2 0x224C JUMPI PUSH2 0x224B PUSH2 0x1FA2 JUMP JUMPDEST JUMPDEST PUSH1 0x0 PUSH2 0x225A DUP5 DUP3 DUP6 ADD PUSH2 0x1FF0 JUMP JUMPDEST SWAP2 POP POP SWAP3 SWAP2 POP POP JUMP JUMPDEST PUSH1 0x0 DUP1 PUSH1 0x40 DUP4 DUP6 SUB SLT ISZERO PUSH2 0x227A JUMPI PUSH2 0x2279 PUSH2 0x1FA2 JUMP JUMPDEST JUMPDEST PUSH1 0x0 PUSH2 0x2288 DUP6 DUP3 DUP7 ADD PUSH2 0x1FF0 JUMP JUMPDEST SWAP3 POP POP PUSH1 0x20 PUSH2 0x2299 DUP6 DUP3 DUP7 ADD PUSH2 0x1FF0 JUMP JUMPDEST SWAP2 POP POP SWAP3 POP SWAP3 SWAP1 POP JUMP JUMPDEST PUSH32 0x4245453A207472616E7366657220616D6F756E74206578636565647320616C6C PUSH1 0x0 DUP3 ADD MSTORE PUSH32 0x6F77616E63650000000000000000000000000000000000000000000000000000 PUSH1 0x20 DUP3 ADD MSTORE POP JUMP JUMPDEST PUSH1 0x0 PUSH2 0x22FF PUSH1 0x26 DUP4 PUSH2 0x1EFB JUMP JUMPDEST SWAP2 POP PUSH2 0x230A DUP3 PUSH2 0x22A3 JUMP JUMPDEST PUSH1 0x40 DUP3 ADD SWAP1 POP SWAP2 SWAP1 POP JUMP JUMPDEST PUSH1 0x0 PUSH1 0x20 DUP3 ADD SWAP1 POP DUP2 DUP2 SUB PUSH1 0x0 DUP4 ADD MSTORE PUSH2 0x232E DUP2 PUSH2 0x22F2 JUMP JUMPDEST SWAP1 POP SWAP2 SWAP1 POP JUMP JUMPDEST PUSH32 0x4E487B7100000000000000000000000000000000000000000000000000000000 PUSH1 0x0 MSTORE PUSH1 0x11 PUSH1 0x4 MSTORE PUSH1 0x24 PUSH1 0x0 REVERT JUMPDEST PUSH1 0x0 PUSH2 0x236F DUP3 PUSH2 0x2005 JUMP JUMPDEST SWAP2 POP PUSH2 0x237A DUP4 PUSH2 0x2005 JUMP JUMPDEST SWAP3 POP DUP3 DUP3 ADD SWAP1 POP DUP1 DUP3 GT ISZERO PUSH2 0x2392 JUMPI PUSH2 0x2391 PUSH2 0x2335 JUMP JUMPDEST JUMPDEST SWAP3 SWAP2 POP POP JUMP JUMPDEST PUSH32 0x4F776E61626C653A2063616C6C6572206973206E6F7420746865206F776E6572 PUSH1 0x0 DUP3 ADD MSTORE POP JUMP JUMPDEST PUSH1 0x0 PUSH2 0x23CE PUSH1 0x20 DUP4 PUSH2 0x1EFB JUMP JUMPDEST SWAP2 POP PUSH2 0x23D9 DUP3 PUSH2 0x2398 JUMP JUMPDEST PUSH1 0x20 DUP3 ADD SWAP1 POP SWAP2 SWAP1 POP JUMP JUMPDEST PUSH1 0x0 PUSH1 0x20 DUP3 ADD SWAP1 POP DUP2 DUP2 SUB PUSH1 0x0 DUP4 ADD MSTORE PUSH2 0x23FD DUP2 PUSH2 0x23C1 JUMP JUMPDEST SWAP1 POP SWAP2 SWAP1 POP JUMP JUMPDEST PUSH32 0x4245453A2064656372656173656420616C6C6F77616E63652062656C6F77207A PUSH1 0x0 DUP3 ADD MSTORE PUSH32 0x65726F0000000000000000000000000000000000000000000000000000000000 PUSH1 0x20 DUP3 ADD MSTORE POP JUMP JUMPDEST PUSH1 0x0 PUSH2 0x2460 PUSH1 0x23 DUP4 PUSH2 0x1EFB JUMP JUMPDEST SWAP2 POP PUSH2 0x246B DUP3 PUSH2 0x2404 JUMP JUMPDEST PUSH1 0x40 DUP3 ADD SWAP1 POP SWAP2 SWAP1 POP JUMP JUMPDEST PUSH1 0x0 PUSH1 0x20 DUP3 ADD SWAP1 POP DUP2 DUP2 SUB PUSH1 0x0 DUP4 ADD MSTORE PUSH2 0x248F DUP2 PUSH2 0x2453 JUMP JUMPDEST SWAP1 POP SWAP2 SWAP1 POP JUMP JUMPDEST PUSH32 0x4E487B7100000000000000000000000000000000000000000000000000000000 PUSH1 0x0 MSTORE PUSH1 0x41 PUSH1 0x4 MSTORE PUSH1 0x24 PUSH1 0x0 REVERT JUMPDEST PUSH32 0x4E487B7100000000000000000000000000000000000000000000000000000000 PUSH1 0x0 MSTORE PUSH1 0x32 PUSH1 0x4 MSTORE PUSH1 0x24 PUSH1 0x0 REVERT JUMPDEST PUSH1 0x0 DUP2 SWAP1 POP SWAP2 SWAP1 POP JUMP JUMPDEST PUSH1 0x0 PUSH2 0x2519 PUSH2 0x2514 PUSH2 0x250F DUP5 PUSH2 0x24F4 JUMP JUMPDEST PUSH2 0x20B1 JUMP JUMPDEST PUSH2 0x2005 JUMP JUMPDEST SWAP1 POP SWAP2 SWAP1 POP JUMP JUMPDEST PUSH2 0x2529 DUP2 PUSH2 0x24FE JUMP JUMPDEST DUP3 MSTORE POP POP JUMP JUMPDEST PUSH1 0x0 DUP2 MLOAD SWAP1 POP SWAP2 SWAP1 POP JUMP JUMPDEST PUSH1 0x0 DUP3 DUP3 MSTORE PUSH1 0x20 DUP3 ADD SWAP1 POP SWAP3 SWAP2 POP POP JUMP JUMPDEST PUSH1 0x0 DUP2 SWAP1 POP PUSH1 0x20 DUP3 ADD SWAP1 POP SWAP2 SWAP1 POP JUMP JUMPDEST PUSH2 0x2564 DUP2 PUSH2 0x1FC7 JUMP JUMPDEST DUP3 MSTORE POP POP JUMP JUMPDEST PUSH1 0x0 PUSH2 0x2576 DUP4 DUP4 PUSH2 0x255B JUMP JUMPDEST PUSH1 0x20 DUP4 ADD SWAP1 POP SWAP3 SWAP2 POP POP JUMP JUMPDEST PUSH1 0x0 PUSH1 0x20 DUP3 ADD SWAP1 POP SWAP2 SWAP1 POP JUMP JUMPDEST PUSH1 0x0 PUSH2 0x259A DUP3 PUSH2 0x252F JUMP JUMPDEST PUSH2 0x25A4 DUP2 DUP6 PUSH2 0x253A JUMP JUMPDEST SWAP4 POP PUSH2 0x25AF DUP4 PUSH2 0x254B JUMP JUMPDEST DUP1 PUSH1 0x0 JUMPDEST DUP4 DUP2 LT ISZERO PUSH2 0x25E0 JUMPI DUP2 MLOAD PUSH2 0x25C7 DUP9 DUP3 PUSH2 0x256A JUMP JUMPDEST SWAP8 POP PUSH2 0x25D2 DUP4 PUSH2 0x2582 JUMP JUMPDEST SWAP3 POP POP PUSH1 0x1 DUP2 ADD SWAP1 POP PUSH2 0x25B3 JUMP JUMPDEST POP DUP6 SWAP4 POP POP POP POP SWAP3 SWAP2 POP POP JUMP JUMPDEST PUSH1 0x0 PUSH1 0xA0 DUP3 ADD SWAP1 POP PUSH2 0x2602 PUSH1 0x0 DUP4 ADD DUP9 PUSH2 0x212B JUMP JUMPDEST PUSH2 0x260F PUSH1 0x20 DUP4 ADD DUP8 PUSH2 0x2520 JUMP JUMPDEST DUP2 DUP2 SUB PUSH1 0x40 DUP4 ADD MSTORE PUSH2 0x2621 DUP2 DUP7 PUSH2 0x258F JUMP JUMPDEST SWAP1 POP PUSH2 0x2630 PUSH1 0x60 DUP4 ADD DUP6 PUSH2 0x21A8 JUMP JUMPDEST PUSH2 0x263D PUSH1 0x80 DUP4 ADD DUP5 PUSH2 0x212B JUMP JUMPDEST SWAP7 SWAP6 POP POP POP POP POP POP JUMP JUMPDEST PUSH32 0x4F776E61626C653A206E6577206F776E657220697320746865207A65726F2061 PUSH1 0x0 DUP3 ADD MSTORE PUSH32 0x6464726573730000000000000000000000000000000000000000000000000000 PUSH1 0x20 DUP3 ADD MSTORE POP JUMP JUMPDEST PUSH1 0x0 PUSH2 0x26A3 PUSH1 0x26 DUP4 PUSH2 0x1EFB JUMP JUMPDEST SWAP2 POP PUSH2 0x26AE DUP3 PUSH2 0x2647 JUMP JUMPDEST PUSH1 0x40 DUP3 ADD SWAP1 POP SWAP2 SWAP1 POP JUMP JUMPDEST PUSH1 0x0 PUSH1 0x20 DUP3 ADD SWAP1 POP DUP2 DUP2 SUB PUSH1 0x0 DUP4 ADD MSTORE PUSH2 0x26D2 DUP2 PUSH2 0x2696 JUMP JUMPDEST SWAP1 POP SWAP2 SWAP1 POP JUMP JUMPDEST PUSH32 0x4245453A207472616E736665722066726F6D20746865207A65726F2061646472 PUSH1 0x0 DUP3 ADD MSTORE PUSH32 0x6573730000000000000000000000000000000000000000000000000000000000 PUSH1 0x20 DUP3 ADD MSTORE POP JUMP JUMPDEST PUSH1 0x0 PUSH2 0x2735 PUSH1 0x23 DUP4 PUSH2 0x1EFB JUMP JUMPDEST SWAP2 POP PUSH2 0x2740 DUP3 PUSH2 0x26D9 JUMP JUMPDEST PUSH1 0x40 DUP3 ADD SWAP1 POP SWAP2 SWAP1 POP JUMP JUMPDEST PUSH1 0x0 PUSH1 0x20 DUP3 ADD SWAP1 POP DUP2 DUP2 SUB PUSH1 0x0 DUP4 ADD MSTORE PUSH2 0x2764 DUP2 PUSH2 0x2728 JUMP JUMPDEST SWAP1 POP SWAP2 SWAP1 POP JUMP JUMPDEST PUSH32 0x4245453A207472616E7366657220746F20746865207A65726F20616464726573 PUSH1 0x0 DUP3 ADD MSTORE PUSH32 0x7300000000000000000000000000000000000000000000000000000000000000 PUSH1 0x20 DUP3 ADD MSTORE POP JUMP JUMPDEST PUSH1 0x0 PUSH2 0x27C7 PUSH1 0x21 DUP4 PUSH2 0x1EFB JUMP JUMPDEST SWAP2 POP PUSH2 0x27D2 DUP3 PUSH2 0x276B JUMP JUMPDEST PUSH1 0x40 DUP3 ADD SWAP1 POP SWAP2 SWAP1 POP JUMP JUMPDEST PUSH1 0x0 PUSH1 0x20 DUP3 ADD SWAP1 POP DUP2 DUP2 SUB PUSH1 0x0 DUP4 ADD MSTORE PUSH2 0x27F6 DUP2 PUSH2 0x27BA JUMP JUMPDEST SWAP1 POP SWAP2 SWAP1 POP JUMP JUMPDEST PUSH32 0x4245453A207472616E7366657220616D6F756E7420657863656564732062616C PUSH1 0x0 DUP3 ADD MSTORE PUSH32 0x616E636500000000000000000000000000000000000000000000000000000000 PUSH1 0x20 DUP3 ADD MSTORE POP JUMP JUMPDEST PUSH1 0x0 PUSH2 0x2859 PUSH1 0x24 DUP4 PUSH2 0x1EFB JUMP JUMPDEST SWAP2 POP PUSH2 0x2864 DUP3 PUSH2 0x27FD JUMP JUMPDEST PUSH1 0x40 DUP3 ADD SWAP1 POP SWAP2 SWAP1 POP JUMP JUMPDEST PUSH1 0x0 PUSH1 0x20 DUP3 ADD SWAP1 POP DUP2 DUP2 SUB PUSH1 0x0 DUP4 ADD MSTORE PUSH2 0x2888 DUP2 PUSH2 0x284C JUMP JUMPDEST SWAP1 POP SWAP2 SWAP1 POP JUMP JUMPDEST PUSH32 0x4245453A206275726E2066726F6D20746865207A65726F206164647265737300 PUSH1 0x0 DUP3 ADD MSTORE POP JUMP JUMPDEST PUSH1 0x0 PUSH2 0x28C5 PUSH1 0x1F DUP4 PUSH2 0x1EFB JUMP JUMPDEST SWAP2 POP PUSH2 0x28D0 DUP3 PUSH2 0x288F JUMP JUMPDEST PUSH1 0x20 DUP3 ADD SWAP1 POP SWAP2 SWAP1 POP JUMP JUMPDEST PUSH1 0x0 PUSH1 0x20 DUP3 ADD SWAP1 POP DUP2 DUP2 SUB PUSH1 0x0 DUP4 ADD MSTORE PUSH2 0x28F4 DUP2 PUSH2 0x28B8 JUMP JUMPDEST SWAP1 POP SWAP2 SWAP1 POP JUMP JUMPDEST PUSH32 0x4245453A206275726E20616D6F756E7420657863656564732062616C616E6365 PUSH1 0x0 DUP3 ADD MSTORE POP JUMP JUMPDEST PUSH1 0x0 PUSH2 0x2931 PUSH1 0x20 DUP4 PUSH2 0x1EFB JUMP JUMPDEST SWAP2 POP PUSH2 0x293C DUP3 PUSH2 0x28FB JUMP JUMPDEST PUSH1 0x20 DUP3 ADD SWAP1 POP SWAP2 SWAP1 POP JUMP JUMPDEST PUSH1 0x0 PUSH1 0x20 DUP3 ADD SWAP1 POP DUP2 DUP2 SUB PUSH1 0x0 DUP4 ADD MSTORE PUSH2 0x2960 DUP2 PUSH2 0x2924 JUMP JUMPDEST SWAP1 POP SWAP2 SWAP1 POP JUMP JUMPDEST PUSH1 0x0 PUSH2 0x2972 DUP3 PUSH2 0x2005 JUMP JUMPDEST SWAP2 POP PUSH2 0x297D DUP4 PUSH2 0x2005 JUMP JUMPDEST SWAP3 POP DUP3 DUP3 SUB SWAP1 POP DUP2 DUP2 GT ISZERO PUSH2 0x2995 JUMPI PUSH2 0x2994 PUSH2 0x2335 JUMP JUMPDEST JUMPDEST SWAP3 SWAP2 POP POP JUMP JUMPDEST PUSH1 0x0 PUSH2 0x29A6 DUP3 PUSH2 0x2005 JUMP JUMPDEST SWAP2 POP PUSH2 0x29B1 DUP4 PUSH2 0x2005 JUMP JUMPDEST SWAP3 POP DUP3 DUP3 MUL PUSH2 0x29BF DUP2 PUSH2 0x2005 JUMP JUMPDEST SWAP2 POP DUP3 DUP3 DIV DUP5 EQ DUP4 ISZERO OR PUSH2 0x29D6 JUMPI PUSH2 0x29D5 PUSH2 0x2335 JUMP JUMPDEST JUMPDEST POP SWAP3 SWAP2 POP POP JUMP JUMPDEST PUSH32 0x4E487B7100000000000000000000000000000000000000000000000000000000 PUSH1 0x0 MSTORE PUSH1 0x12 PUSH1 0x4 MSTORE PUSH1 0x24 PUSH1 0x0 REVERT JUMPDEST PUSH1 0x0 PUSH2 0x2A17 DUP3 PUSH2 0x2005 JUMP JUMPDEST SWAP2 POP PUSH2 0x2A22 DUP4 PUSH2 0x2005 JUMP JUMPDEST SWAP3 POP DUP3 PUSH2 0x2A32 JUMPI PUSH2 0x2A31 PUSH2 0x29DD JUMP JUMPDEST JUMPDEST DUP3 DUP3 DIV SWAP1 POP SWAP3 SWAP2 POP POP JUMP JUMPDEST PUSH32 0x536166654D6174683A206D756C7469706C69636174696F6E206F766572666C6F PUSH1 0x0 DUP3 ADD MSTORE PUSH32 0x7700000000000000000000000000000000000000000000000000000000000000 PUSH1 0x20 DUP3 ADD MSTORE POP JUMP JUMPDEST PUSH1 0x0 PUSH2 0x2A99 PUSH1 0x21 DUP4 PUSH2 0x1EFB JUMP JUMPDEST SWAP2 POP PUSH2 0x2AA4 DUP3 PUSH2 0x2A3D JUMP JUMPDEST PUSH1 0x40 DUP3 ADD SWAP1 POP SWAP2 SWAP1 POP JUMP JUMPDEST PUSH1 0x0 PUSH1 0x20 DUP3 ADD SWAP1 POP DUP2 DUP2 SUB PUSH1 0x0 DUP4 ADD MSTORE PUSH2 0x2AC8 DUP2 PUSH2 0x2A8C JUMP JUMPDEST SWAP1 POP SWAP2 SWAP1 POP JUMP JUMPDEST PUSH32 0x536166654D6174683A206164646974696F6E206F766572666C6F770000000000 PUSH1 0x0 DUP3 ADD MSTORE POP JUMP JUMPDEST PUSH1 0x0 PUSH2 0x2B05 PUSH1 0x1B DUP4 PUSH2 0x1EFB JUMP JUMPDEST SWAP2 POP PUSH2 0x2B10 DUP3 PUSH2 0x2ACF JUMP JUMPDEST PUSH1 0x20 DUP3 ADD SWAP1 POP SWAP2 SWAP1 POP JUMP JUMPDEST PUSH1 0x0 PUSH1 0x20 DUP3 ADD SWAP1 POP DUP2 DUP2 SUB PUSH1 0x0 DUP4 ADD MSTORE PUSH2 0x2B34 DUP2 PUSH2 0x2AF8 JUMP JUMPDEST SWAP1 POP SWAP2 SWAP1 POP JUMP INVALID LOG2 PUSH5 0x6970667358 0x22 SLT KECCAK256 PUSH19 0x6882BBD294D92F93A64B34C99926236D276D63 CALLER 0x1E SAR 0x21 0xDC SWAP9 JUMPDEST PUSH12 0x538B2CA864736F6C63430008 GT STOP CALLER "
				},
				"gasEstimates": {
					"creation": {
						"codeDepositCost": "2224200",
						"executionCost": "infinite",
						"totalCost": "infinite"
					},
					"external": {
						"DEXs(address)": "2911",
						"addDex(address)": "29420",
						"allowance(address,address)": "infinite",
						"approve(address,uint256)": "infinite",
						"balanceOf(address)": "2974",
						"burn(uint256)": "infinite",
						"decimals()": "366",
						"decreaseAllowance(address,uint256)": "infinite",
						"increaseAllowance(address,uint256)": "infinite",
						"marketAddress()": "2653",
						"name()": "infinite",
						"owner()": "2589",
						"renounceOwnership()": "30397",
						"setExcludeds(address)": "29369",
						"setMarketAddress(address)": "27122",
						"swapTokensForUsdt(uint256)": "infinite",
						"symbol()": "infinite",
						"totalSupply()": "2527",
						"transfer(address,uint256)": "infinite",
						"transferFrom(address,address,uint256)": "infinite",
						"transferOwnership(address)": "30808",
						"uniswapUsdtV2Pair()": "infinite",
						"uniswapV2Pair()": "infinite",
						"uniswapV2Router()": "infinite",
						"usdtMintAddress()": "2559"
					},
					"internal": {
						"_approve(address,address,uint256)": "infinite",
						"_burn(address,uint256)": "infinite",
						"_mint(address,uint256)": "infinite",
						"_transfer(address,address,uint256)": "infinite"
					}
				},
				"methodIdentifiers": {
					"DEXs(address)": "dec1a6f6",
					"addDex(address)": "536db266",
					"allowance(address,address)": "dd62ed3e",
					"approve(address,uint256)": "095ea7b3",
					"balanceOf(address)": "70a08231",
					"burn(uint256)": "42966c68",
					"decimals()": "313ce567",
					"decreaseAllowance(address,uint256)": "a457c2d7",
					"increaseAllowance(address,uint256)": "39509351",
					"marketAddress()": "95623641",
					"name()": "06fdde03",
					"owner()": "8da5cb5b",
					"renounceOwnership()": "715018a6",
					"setExcludeds(address)": "a8808fcc",
					"setMarketAddress(address)": "fae92612",
					"swapTokensForUsdt(uint256)": "ce0594aa",
					"symbol()": "95d89b41",
					"totalSupply()": "18160ddd",
					"transfer(address,uint256)": "a9059cbb",
					"transferFrom(address,address,uint256)": "23b872dd",
					"transferOwnership(address)": "f2fde38b",
					"uniswapUsdtV2Pair()": "2aafa283",
					"uniswapV2Pair()": "49bd5a5e",
					"uniswapV2Router()": "1694505e",
					"usdtMintAddress()": "88af60c6"
				}
			},
			"storageLayout": {
				"storage": [
					{
						"astId": 296,
						"contract": "ex/token/Baby.sol:Bee",
						"label": "_owner",
						"offset": 0,
						"slot": "0",
						"type": "t_address"
					},
					{
						"astId": 1377,
						"contract": "ex/token/Baby.sol:Bee",
						"label": "_balances",
						"offset": 0,
						"slot": "1",
						"type": "t_mapping(t_address,t_uint256)"
					},
					{
						"astId": 1383,
						"contract": "ex/token/Baby.sol:Bee",
						"label": "_allowances",
						"offset": 0,
						"slot": "2",
						"type": "t_mapping(t_address,t_mapping(t_address,t_uint256))"
					},
					{
						"astId": 1385,
						"contract": "ex/token/Baby.sol:Bee",
						"label": "_totalSupply",
						"offset": 0,
						"slot": "3",
						"type": "t_uint256"
					},
					{
						"astId": 1387,
						"contract": "ex/token/Baby.sol:Bee",
						"label": "_name",
						"offset": 0,
						"slot": "4",
						"type": "t_string_storage"
					},
					{
						"astId": 1389,
						"contract": "ex/token/Baby.sol:Bee",
						"label": "_symbol",
						"offset": 0,
						"slot": "5",
						"type": "t_string_storage"
					},
					{
						"astId": 1400,
						"contract": "ex/token/Baby.sol:Bee",
						"label": "_isExcludeds",
						"offset": 0,
						"slot": "6",
						"type": "t_mapping(t_address,t_bool)"
					},
					{
						"astId": 1404,
						"contract": "ex/token/Baby.sol:Bee",
						"label": "DEXs",
						"offset": 0,
						"slot": "7",
						"type": "t_mapping(t_address,t_bool)"
					},
					{
						"astId": 1406,
						"contract": "ex/token/Baby.sol:Bee",
						"label": "inSwapAndLiquify",
						"offset": 0,
						"slot": "8",
						"type": "t_bool"
					},
					{
						"astId": 1409,
						"contract": "ex/token/Baby.sol:Bee",
						"label": "marketAddress",
						"offset": 1,
						"slot": "8",
						"type": "t_address"
					},
					{
						"astId": 1412,
						"contract": "ex/token/Baby.sol:Bee",
						"label": "usdtMintAddress",
						"offset": 0,
						"slot": "9",
						"type": "t_address"
					}
				],
				"types": {
					"t_address": {
						"encoding": "inplace",
						"label": "address",
						"numberOfBytes": "20"
					},
					"t_bool": {
						"encoding": "inplace",
						"label": "bool",
						"numberOfBytes": "1"
					},
					"t_mapping(t_address,t_bool)": {
						"encoding": "mapping",
						"key": "t_address",
						"label": "mapping(address => bool)",
						"numberOfBytes": "32",
						"value": "t_bool"
					},
					"t_mapping(t_address,t_mapping(t_address,t_uint256))": {
						"encoding": "mapping",
						"key": "t_address",
						"label": "mapping(address => mapping(address => uint256))",
						"numberOfBytes": "32",
						"value": "t_mapping(t_address,t_uint256)"
					},
					"t_mapping(t_address,t_uint256)": {
						"encoding": "mapping",
						"key": "t_address",
						"label": "mapping(address => uint256)",
						"numberOfBytes": "32",
						"value": "t_uint256"
					},
					"t_string_storage": {
						"encoding": "bytes",
						"label": "string",
						"numberOfBytes": "32"
					},
					"t_uint256": {
						"encoding": "inplace",
						"label": "uint256",
						"numberOfBytes": "32"
					}
				}
			},
			"userdoc": {
				"kind": "user",
				"methods": {},
				"version": 1
			}
		}
	}
}