{
	"ex/BPresell.sol": {
		"BabyPresell": {
			"abi": [
				{
					"inputs": [
						{
							"internalType": "uint64",
							"name": "_startAt",
							"type": "uint64"
						},
						{
							"internalType": "uint64",
							"name": "_endAt",
							"type": "uint64"
						}
					],
					"stateMutability": "nonpayable",
					"type": "constructor"
				},
				{
					"anonymous": false,
					"inputs": [
						{
							"indexed": true,
							"internalType": "address",
							"name": "user",
							"type": "address"
						},
						{
							"indexed": false,
							"internalType": "uint256",
							"name": "umount",
							"type": "uint256"
						},
						{
							"indexed": false,
							"internalType": "uint256",
							"name": "coinamount",
							"type": "uint256"
						}
					],
					"name": "BuyTokens",
					"type": "event"
				},
				{
					"anonymous": false,
					"inputs": [
						{
							"indexed": true,
							"internalType": "address",
							"name": "previousOwner",
							"type": "address"
						},
						{
							"indexed": true,
							"internalType": "address",
							"name": "newOwner",
							"type": "address"
						}
					],
					"name": "OwnershipTransferred",
					"type": "event"
				},
				{
					"anonymous": false,
					"inputs": [
						{
							"indexed": true,
							"internalType": "address",
							"name": "user",
							"type": "address"
						},
						{
							"indexed": false,
							"internalType": "uint256",
							"name": "coinamount",
							"type": "uint256"
						}
					],
					"name": "WithdrawTokens",
					"type": "event"
				},
				{
					"inputs": [],
					"name": "buyTokens",
					"outputs": [],
					"stateMutability": "nonpayable",
					"type": "function"
				},
				{
					"inputs": [
						{
							"internalType": "address",
							"name": "account",
							"type": "address"
						},
						{
							"internalType": "bool",
							"name": "state",
							"type": "bool"
						}
					],
					"name": "changeWhiteList",
					"outputs": [],
					"stateMutability": "nonpayable",
					"type": "function"
				},
				{
					"inputs": [
						{
							"internalType": "address[]",
							"name": "accounts",
							"type": "address[]"
						},
						{
							"internalType": "bool[]",
							"name": "states",
							"type": "bool[]"
						}
					],
					"name": "changeWhiteListBatch",
					"outputs": [],
					"stateMutability": "nonpayable",
					"type": "function"
				},
				{
					"inputs": [],
					"name": "disableWhiteList",
					"outputs": [
						{
							"internalType": "bool",
							"name": "",
							"type": "bool"
						}
					],
					"stateMutability": "view",
					"type": "function"
				},
				{
					"inputs": [],
					"name": "emergencyWithdraw",
					"outputs": [],
					"stateMutability": "nonpayable",
					"type": "function"
				},
				{
					"inputs": [
						{
							"internalType": "uint256",
							"name": "amount",
							"type": "uint256"
						}
					],
					"name": "exigencyWithdrawToken",
					"outputs": [],
					"stateMutability": "nonpayable",
					"type": "function"
				},
				{
					"inputs": [],
					"name": "getEndTime",
					"outputs": [
						{
							"internalType": "uint64",
							"name": "",
							"type": "uint64"
						}
					],
					"stateMutability": "view",
					"type": "function"
				},
				{
					"inputs": [],
					"name": "getPreSellCoinAmount",
					"outputs": [
						{
							"internalType": "uint256",
							"name": "",
							"type": "uint256"
						}
					],
					"stateMutability": "view",
					"type": "function"
				},
				{
					"inputs": [],
					"name": "getPreSellCounter",
					"outputs": [
						{
							"internalType": "uint64",
							"name": "",
							"type": "uint64"
						}
					],
					"stateMutability": "view",
					"type": "function"
				},
				{
					"inputs": [],
					"name": "getPresellMax",
					"outputs": [
						{
							"internalType": "uint32",
							"name": "",
							"type": "uint32"
						}
					],
					"stateMutability": "view",
					"type": "function"
				},
				{
					"inputs": [],
					"name": "getStartTime",
					"outputs": [
						{
							"internalType": "uint64",
							"name": "",
							"type": "uint64"
						}
					],
					"stateMutability": "view",
					"type": "function"
				},
				{
					"inputs": [],
					"name": "getUsdtAmount",
					"outputs": [
						{
							"internalType": "uint256",
							"name": "",
							"type": "uint256"
						}
					],
					"stateMutability": "view",
					"type": "function"
				},
				{
					"inputs": [
						{
							"internalType": "address",
							"name": "user",
							"type": "address"
						}
					],
					"name": "getUserHasBuy",
					"outputs": [
						{
							"internalType": "bool",
							"name": "",
							"type": "bool"
						}
					],
					"stateMutability": "view",
					"type": "function"
				},
				{
					"inputs": [
						{
							"internalType": "address",
							"name": "user",
							"type": "address"
						}
					],
					"name": "getUserPreSellCoinAmount",
					"outputs": [
						{
							"internalType": "uint256",
							"name": "",
							"type": "uint256"
						}
					],
					"stateMutability": "view",
					"type": "function"
				},
				{
					"inputs": [],
					"name": "getWithdrawCounter",
					"outputs": [
						{
							"internalType": "uint64",
							"name": "",
							"type": "uint64"
						}
					],
					"stateMutability": "view",
					"type": "function"
				},
				{
					"inputs": [
						{
							"internalType": "address",
							"name": "",
							"type": "address"
						}
					],
					"name": "hasBuy",
					"outputs": [
						{
							"internalType": "bool",
							"name": "",
							"type": "bool"
						}
					],
					"stateMutability": "view",
					"type": "function"
				},
				{
					"inputs": [],
					"name": "marketAddress",
					"outputs": [
						{
							"internalType": "address",
							"name": "",
							"type": "address"
						}
					],
					"stateMutability": "view",
					"type": "function"
				},
				{
					"inputs": [],
					"name": "owner",
					"outputs": [
						{
							"internalType": "address",
							"name": "",
							"type": "address"
						}
					],
					"stateMutability": "view",
					"type": "function"
				},
				{
					"inputs": [],
					"name": "presellTokenMintAddress",
					"outputs": [
						{
							"internalType": "address",
							"name": "",
							"type": "address"
						}
					],
					"stateMutability": "view",
					"type": "function"
				},
				{
					"inputs": [],
					"name": "renounceOwnership",
					"outputs": [],
					"stateMutability": "nonpayable",
					"type": "function"
				},
				{
					"inputs": [],
					"name": "sellToken",
					"outputs": [
						{
							"internalType": "contract IERC20",
							"name": "",
							"type": "address"
						}
					],
					"stateMutability": "view",
					"type": "function"
				},
				{
					"inputs": [
						{
							"internalType": "uint256",
							"name": "newAmount",
							"type": "uint256"
						}
					],
					"name": "setAmount",
					"outputs": [],
					"stateMutability": "nonpayable",
					"type": "function"
				},
				{
					"inputs": [
						{
							"internalType": "bool",
							"name": "op",
							"type": "bool"
						}
					],
					"name": "setDisableWhiteList",
					"outputs": [],
					"stateMutability": "nonpayable",
					"type": "function"
				},
				{
					"inputs": [
						{
							"internalType": "address",
							"name": "newAddress",
							"type": "address"
						}
					],
					"name": "setMarketAddress",
					"outputs": [],
					"stateMutability": "nonpayable",
					"type": "function"
				},
				{
					"inputs": [
						{
							"internalType": "uint32",
							"name": "amount",
							"type": "uint32"
						}
					],
					"name": "setPresellMax",
					"outputs": [],
					"stateMutability": "nonpayable",
					"type": "function"
				},
				{
					"inputs": [
						{
							"internalType": "uint64",
							"name": "start",
							"type": "uint64"
						},
						{
							"internalType": "uint64",
							"name": "end",
							"type": "uint64"
						}
					],
					"name": "setTime",
					"outputs": [],
					"stateMutability": "nonpayable",
					"type": "function"
				},
				{
					"inputs": [
						{
							"internalType": "address",
							"name": "newOwner",
							"type": "address"
						}
					],
					"name": "transferOwnership",
					"outputs": [],
					"stateMutability": "nonpayable",
					"type": "function"
				},
				{
					"inputs": [],
					"name": "usdtMintAddress",
					"outputs": [
						{
							"internalType": "address",
							"name": "",
							"type": "address"
						}
					],
					"stateMutability": "view",
					"type": "function"
				},
				{
					"inputs": [],
					"name": "usdtToken",
					"outputs": [
						{
							"internalType": "contract IERC20",
							"name": "",
							"type": "address"
						}
					],
					"stateMutability": "view",
					"type": "function"
				},
				{
					"inputs": [
						{
							"internalType": "address",
							"name": "",
							"type": "address"
						}
					],
					"name": "userPresellBalanceMap",
					"outputs": [
						{
							"internalType": "uint256",
							"name": "",
							"type": "uint256"
						}
					],
					"stateMutability": "view",
					"type": "function"
				},
				{
					"inputs": [
						{
							"internalType": "address",
							"name": "",
							"type": "address"
						}
					],
					"name": "whiteList",
					"outputs": [
						{
							"internalType": "bool",
							"name": "",
							"type": "bool"
						}
					],
					"stateMutability": "view",
					"type": "function"
				},
				{
					"inputs": [],
					"name": "withdrawPresellTokens",
					"outputs": [],
					"stateMutability": "nonpayable",
					"type": "function"
				}
			],
			"devdoc": {
				"kind": "dev",
				"methods": {
					"owner()": {
						"details": "Returns the address of the current owner."
					},
					"renounceOwnership()": {
						"details": "Leaves the contract without owner. It will not be possible to call `onlyOwner` functions anymore. Can only be called by the current owner. NOTE: Renouncing ownership will leave the contract without an owner, thereby removing any functionality that is only available to the owner."
					},
					"transferOwnership(address)": {
						"details": "Transfers ownership of the contract to a new account (`newOwner`). Can only be called by the current owner."
					}
				},
				"version": 1
			},
			"evm": {
				"assembly": "    /* \"ex/BPresell.sol\":2649:7878  contract BabyPresell is Ownable {... */\n  mstore(0x40, 0xc0)\n    /* \"ex/BPresell.sol\":2843:2885  0x55d398326f99059fF775485246999027B3197955 */\n  0x55d398326f99059ff775485246999027b3197955\n    /* \"ex/BPresell.sol\":2810:2885  address public usdtMintAddress = 0x55d398326f99059fF775485246999027B3197955 */\n  0x01\n  exp(0x0100, 0x00)\n  dup2\n  sload\n  dup2\n  0xffffffffffffffffffffffffffffffffffffffff\n  mul\n  not\n  and\n  swap1\n  dup4\n  0xffffffffffffffffffffffffffffffffffffffff\n  and\n  mul\n  or\n  swap1\n  sstore\n  pop\n    /* \"ex/BPresell.sol\":2933:2975  0xA3247B33baA9eA15b699C77237d5B16f5CFD822f */\n  0xa3247b33baa9ea15b699c77237d5b16f5cfd822f\n    /* \"ex/BPresell.sol\":2892:2975  address public presellTokenMintAddress = 0xA3247B33baA9eA15b699C77237d5B16f5CFD822f */\n  0x02\n  exp(0x0100, 0x00)\n  dup2\n  sload\n  dup2\n  0xffffffffffffffffffffffffffffffffffffffff\n  mul\n  not\n  and\n  swap1\n  dup4\n  0xffffffffffffffffffffffffffffffffffffffff\n  and\n  mul\n  or\n  swap1\n  sstore\n  pop\n    /* \"ex/BPresell.sol\":3013:3055  0xd3c0b6Aa1538d639912789be705F18b5Fd89fcE6 */\n  0xd3c0b6aa1538d639912789be705f18b5fd89fce6\n    /* \"ex/BPresell.sol\":2982:3055  address public marketAddress = 0xd3c0b6Aa1538d639912789be705F18b5Fd89fcE6 */\n  0x03\n  exp(0x0100, 0x00)\n  dup2\n  sload\n  dup2\n  0xffffffffffffffffffffffffffffffffffffffff\n  mul\n  not\n  and\n  swap1\n  dup4\n  0xffffffffffffffffffffffffffffffffffffffff\n  and\n  mul\n  or\n  swap1\n  sstore\n  pop\n    /* \"ex/BPresell.sol\":3139:3151  1 * 10 ** 18 */\n  0x0de0b6b3a7640000\n    /* \"ex/BPresell.sol\":3110:3151  uint256 private usdtAmount = 1 * 10 ** 18 */\n  0x04\n  sstore\n    /* \"ex/BPresell.sol\":3197:3212  4500 * 10 ** 18 */\n  0xf3f20b8dfa69d00000\n    /* \"ex/BPresell.sol\":3158:3212  uint256 private preSellCoinPreAmount = 4500 * 10 ** 18 */\n  0x05\n  sstore\n    /* \"ex/BPresell.sol\":3359:3361  10 */\n  0x0a\n    /* \"ex/BPresell.sol\":3335:3361  uint32 private preMax = 10 */\n  0x06\n  exp(0x0100, 0x08)\n  dup2\n  sload\n  dup2\n  0xffffffff\n  mul\n  not\n  and\n  swap1\n  dup4\n  0xffffffff\n  and\n  mul\n  or\n  swap1\n  sstore\n  pop\n    /* \"ex/BPresell.sol\":3855:4216  constructor(... */\n  callvalue\n  dup1\n  iszero\n  tag_1\n  jumpi\n  0x00\n  dup1\n  revert\ntag_1:\n  pop\n  mload(0x40)\n  sub(codesize, bytecodeSize)\n  dup1\n  bytecodeSize\n  dup4\n  codecopy\n  dup2\n  dup2\n  add\n  0x40\n  mstore\n  dup2\n  add\n  swap1\n  tag_2\n  swap2\n  swap1\n  tag_3\n  jump\t// in\ntag_2:\n    /* \"ex/BPresell.sol\":1060:1092  _transferOwnership(_msgSender()) */\n  tag_7\n    /* \"ex/BPresell.sol\":1079:1091  _msgSender() */\n  tag_8\n    /* \"ex/BPresell.sol\":1079:1089  _msgSender */\n  shl(0x20, tag_9)\n    /* \"ex/BPresell.sol\":1079:1091  _msgSender() */\n  0x20\n  shr\n  jump\t// in\ntag_8:\n    /* \"ex/BPresell.sol\":1060:1078  _transferOwnership */\n  shl(0x20, tag_10)\n    /* \"ex/BPresell.sol\":1060:1092  _transferOwnership(_msgSender()) */\n  0x20\n  shr\n  jump\t// in\ntag_7:\n    /* \"ex/BPresell.sol\":3959:3974  block.timestamp */\n  timestamp\n    /* \"ex/BPresell.sol\":3947:3955  _startAt */\n  dup3\n    /* \"ex/BPresell.sol\":3947:3974  _startAt >= block.timestamp */\n  0xffffffffffffffff\n  and\n  lt\n  iszero\n    /* \"ex/BPresell.sol\":3939:3993  require(_startAt >= block.timestamp, \"start at < now\") */\n  tag_12\n  jumpi\n  mload(0x40)\n  0x08c379a000000000000000000000000000000000000000000000000000000000\n  dup2\n  mstore\n  0x04\n  add\n  tag_13\n  swap1\n  tag_14\n  jump\t// in\ntag_13:\n  mload(0x40)\n  dup1\n  swap2\n  sub\n  swap1\n  revert\ntag_12:\n    /* \"ex/BPresell.sol\":4022:4030  _startAt */\n  dup2\n    /* \"ex/BPresell.sol\":4012:4030  _endAt >= _startAt */\n  0xffffffffffffffff\n  and\n    /* \"ex/BPresell.sol\":4012:4018  _endAt */\n  dup2\n    /* \"ex/BPresell.sol\":4012:4030  _endAt >= _startAt */\n  0xffffffffffffffff\n  and\n  lt\n  iszero\n    /* \"ex/BPresell.sol\":4004:4052  require(_endAt >= _startAt, \"end at < start at\") */\n  tag_15\n  jumpi\n  mload(0x40)\n  0x08c379a000000000000000000000000000000000000000000000000000000000\n  dup2\n  mstore\n  0x04\n  add\n  tag_16\n  swap1\n  tag_17\n  jump\t// in\ntag_16:\n  mload(0x40)\n  dup1\n  swap2\n  sub\n  swap1\n  revert\ntag_15:\n    /* \"ex/BPresell.sol\":4075:4083  _startAt */\n  dup2\n    /* \"ex/BPresell.sol\":4065:4072  startAt */\n  0x06\n  0x0c\n    /* \"ex/BPresell.sol\":4065:4083  startAt = _startAt */\n  0x0100\n  exp\n  dup2\n  sload\n  dup2\n  0xffffffffffffffff\n  mul\n  not\n  and\n  swap1\n  dup4\n  0xffffffffffffffff\n  and\n  mul\n  or\n  swap1\n  sstore\n  pop\n    /* \"ex/BPresell.sol\":4102:4108  _endAt */\n  dup1\n    /* \"ex/BPresell.sol\":4094:4099  endAt */\n  0x06\n  0x14\n    /* \"ex/BPresell.sol\":4094:4108  endAt = _endAt */\n  0x0100\n  exp\n  dup2\n  sload\n  dup2\n  0xffffffffffffffff\n  mul\n  not\n  and\n  swap1\n  dup4\n  0xffffffffffffffff\n  and\n  mul\n  or\n  swap1\n  sstore\n  pop\n    /* \"ex/BPresell.sol\":4138:4153  usdtMintAddress */\n  0x01\n  0x00\n  swap1\n  sload\n  swap1\n  0x0100\n  exp\n  swap1\n  div\n  0xffffffffffffffffffffffffffffffffffffffff\n  and\n    /* \"ex/BPresell.sol\":4119:4154  usdtToken = IERC20(usdtMintAddress) */\n  0xffffffffffffffffffffffffffffffffffffffff\n  and\n  0x80\n  dup2\n  0xffffffffffffffffffffffffffffffffffffffff\n  and\n  dup2\n  mstore\n  pop\n  pop\n    /* \"ex/BPresell.sol\":4184:4207  presellTokenMintAddress */\n  0x02\n  0x00\n  swap1\n  sload\n  swap1\n  0x0100\n  exp\n  swap1\n  div\n  0xffffffffffffffffffffffffffffffffffffffff\n  and\n    /* \"ex/BPresell.sol\":4165:4208  sellToken = IERC20(presellTokenMintAddress) */\n  0xffffffffffffffffffffffffffffffffffffffff\n  and\n  0xa0\n  dup2\n  0xffffffffffffffffffffffffffffffffffffffff\n  and\n  dup2\n  mstore\n  pop\n  pop\n    /* \"ex/BPresell.sol\":3855:4216  constructor(... */\n  pop\n  pop\n    /* \"ex/BPresell.sol\":2649:7878  contract BabyPresell is Ownable {... */\n  jump(tag_18)\n    /* \"ex/BPresell.sol\":555:653  function _msgSender() internal view virtual returns (address) {... */\ntag_9:\n    /* \"ex/BPresell.sol\":608:615  address */\n  0x00\n    /* \"ex/BPresell.sol\":635:645  msg.sender */\n  caller\n    /* \"ex/BPresell.sol\":628:645  return msg.sender */\n  swap1\n  pop\n    /* \"ex/BPresell.sol\":555:653  function _msgSender() internal view virtual returns (address) {... */\n  swap1\n  jump\t// out\n    /* \"ex/BPresell.sol\":2451:2642  function _transferOwnership(address newOwner) internal virtual {... */\ntag_10:\n    /* \"ex/BPresell.sol\":2525:2541  address oldOwner */\n  0x00\n    /* \"ex/BPresell.sol\":2544:2550  _owner */\n  dup1\n  0x00\n  swap1\n  sload\n  swap1\n  0x0100\n  exp\n  swap1\n  div\n  0xffffffffffffffffffffffffffffffffffffffff\n  and\n    /* \"ex/BPresell.sol\":2525:2550  address oldOwner = _owner */\n  swap1\n  pop\n    /* \"ex/BPresell.sol\":2570:2578  newOwner */\n  dup2\n    /* \"ex/BPresell.sol\":2561:2567  _owner */\n  0x00\n  dup1\n    /* \"ex/BPresell.sol\":2561:2578  _owner = newOwner */\n  0x0100\n  exp\n  dup2\n  sload\n  dup2\n  0xffffffffffffffffffffffffffffffffffffffff\n  mul\n  not\n  and\n  swap1\n  dup4\n  0xffffffffffffffffffffffffffffffffffffffff\n  and\n  mul\n  or\n  swap1\n  sstore\n  pop\n    /* \"ex/BPresell.sol\":2625:2633  newOwner */\n  dup2\n    /* \"ex/BPresell.sol\":2594:2634  OwnershipTransferred(oldOwner, newOwner) */\n  0xffffffffffffffffffffffffffffffffffffffff\n  and\n    /* \"ex/BPresell.sol\":2615:2623  oldOwner */\n  dup2\n    /* \"ex/BPresell.sol\":2594:2634  OwnershipTransferred(oldOwner, newOwner) */\n  0xffffffffffffffffffffffffffffffffffffffff\n  and\n  0x8be0079c531659141344cd1fd0a4f28419497f9722a3daafe3b4186f6b6457e0\n  mload(0x40)\n  mload(0x40)\n  dup1\n  swap2\n  sub\n  swap1\n  log3\n    /* \"ex/BPresell.sol\":2514:2642  {... */\n  pop\n    /* \"ex/BPresell.sol\":2451:2642  function _transferOwnership(address newOwner) internal virtual {... */\n  pop\n  jump\t// out\n    /* \"#utility.yul\":88:205   */\ntag_22:\n    /* \"#utility.yul\":197:198   */\n  0x00\n    /* \"#utility.yul\":194:195   */\n  dup1\n    /* \"#utility.yul\":187:199   */\n  revert\n    /* \"#utility.yul\":334:435   */\ntag_24:\n    /* \"#utility.yul\":370:377   */\n  0x00\n    /* \"#utility.yul\":410:428   */\n  0xffffffffffffffff\n    /* \"#utility.yul\":403:408   */\n  dup3\n    /* \"#utility.yul\":399:429   */\n  and\n    /* \"#utility.yul\":388:429   */\n  swap1\n  pop\n    /* \"#utility.yul\":334:435   */\n  swap2\n  swap1\n  pop\n  jump\t// out\n    /* \"#utility.yul\":441:561   */\ntag_25:\n    /* \"#utility.yul\":513:536   */\n  tag_38\n    /* \"#utility.yul\":530:535   */\n  dup2\n    /* \"#utility.yul\":513:536   */\n  tag_24\n  jump\t// in\ntag_38:\n    /* \"#utility.yul\":506:511   */\n  dup2\n    /* \"#utility.yul\":503:537   */\n  eq\n    /* \"#utility.yul\":493:555   */\n  tag_39\n  jumpi\n    /* \"#utility.yul\":551:552   */\n  0x00\n    /* \"#utility.yul\":548:549   */\n  dup1\n    /* \"#utility.yul\":541:553   */\n  revert\n    /* \"#utility.yul\":493:555   */\ntag_39:\n    /* \"#utility.yul\":441:561   */\n  pop\n  jump\t// out\n    /* \"#utility.yul\":567:708   */\ntag_26:\n    /* \"#utility.yul\":623:628   */\n  0x00\n    /* \"#utility.yul\":654:660   */\n  dup2\n    /* \"#utility.yul\":648:661   */\n  mload\n    /* \"#utility.yul\":639:661   */\n  swap1\n  pop\n    /* \"#utility.yul\":670:702   */\n  tag_41\n    /* \"#utility.yul\":696:701   */\n  dup2\n    /* \"#utility.yul\":670:702   */\n  tag_25\n  jump\t// in\ntag_41:\n    /* \"#utility.yul\":567:708   */\n  swap3\n  swap2\n  pop\n  pop\n  jump\t// out\n    /* \"#utility.yul\":714:1217   */\ntag_3:\n    /* \"#utility.yul\":791:797   */\n  0x00\n    /* \"#utility.yul\":799:805   */\n  dup1\n    /* \"#utility.yul\":848:850   */\n  0x40\n    /* \"#utility.yul\":836:845   */\n  dup4\n    /* \"#utility.yul\":827:834   */\n  dup6\n    /* \"#utility.yul\":823:846   */\n  sub\n    /* \"#utility.yul\":819:851   */\n  slt\n    /* \"#utility.yul\":816:935   */\n  iszero\n  tag_43\n  jumpi\n    /* \"#utility.yul\":854:933   */\n  tag_44\n  tag_22\n  jump\t// in\ntag_44:\n    /* \"#utility.yul\":816:935   */\ntag_43:\n    /* \"#utility.yul\":974:975   */\n  0x00\n    /* \"#utility.yul\":999:1062   */\n  tag_45\n    /* \"#utility.yul\":1054:1061   */\n  dup6\n    /* \"#utility.yul\":1045:1051   */\n  dup3\n    /* \"#utility.yul\":1034:1043   */\n  dup7\n    /* \"#utility.yul\":1030:1052   */\n  add\n    /* \"#utility.yul\":999:1062   */\n  tag_26\n  jump\t// in\ntag_45:\n    /* \"#utility.yul\":989:1062   */\n  swap3\n  pop\n    /* \"#utility.yul\":945:1072   */\n  pop\n    /* \"#utility.yul\":1111:1113   */\n  0x20\n    /* \"#utility.yul\":1137:1200   */\n  tag_46\n    /* \"#utility.yul\":1192:1199   */\n  dup6\n    /* \"#utility.yul\":1183:1189   */\n  dup3\n    /* \"#utility.yul\":1172:1181   */\n  dup7\n    /* \"#utility.yul\":1168:1190   */\n  add\n    /* \"#utility.yul\":1137:1200   */\n  tag_26\n  jump\t// in\ntag_46:\n    /* \"#utility.yul\":1127:1200   */\n  swap2\n  pop\n    /* \"#utility.yul\":1082:1210   */\n  pop\n    /* \"#utility.yul\":714:1217   */\n  swap3\n  pop\n  swap3\n  swap1\n  pop\n  jump\t// out\n    /* \"#utility.yul\":1223:1392   */\ntag_27:\n    /* \"#utility.yul\":1307:1318   */\n  0x00\n    /* \"#utility.yul\":1341:1347   */\n  dup3\n    /* \"#utility.yul\":1336:1339   */\n  dup3\n    /* \"#utility.yul\":1329:1348   */\n  mstore\n    /* \"#utility.yul\":1381:1385   */\n  0x20\n    /* \"#utility.yul\":1376:1379   */\n  dup3\n    /* \"#utility.yul\":1372:1386   */\n  add\n    /* \"#utility.yul\":1357:1386   */\n  swap1\n  pop\n    /* \"#utility.yul\":1223:1392   */\n  swap3\n  swap2\n  pop\n  pop\n  jump\t// out\n    /* \"#utility.yul\":1398:1562   */\ntag_28:\n    /* \"#utility.yul\":1538:1554   */\n  0x7374617274206174203c206e6f77000000000000000000000000000000000000\n    /* \"#utility.yul\":1534:1535   */\n  0x00\n    /* \"#utility.yul\":1526:1532   */\n  dup3\n    /* \"#utility.yul\":1522:1536   */\n  add\n    /* \"#utility.yul\":1515:1555   */\n  mstore\n    /* \"#utility.yul\":1398:1562   */\n  pop\n  jump\t// out\n    /* \"#utility.yul\":1568:1934   */\ntag_29:\n    /* \"#utility.yul\":1710:1713   */\n  0x00\n    /* \"#utility.yul\":1731:1798   */\n  tag_50\n    /* \"#utility.yul\":1795:1797   */\n  0x0e\n    /* \"#utility.yul\":1790:1793   */\n  dup4\n    /* \"#utility.yul\":1731:1798   */\n  tag_27\n  jump\t// in\ntag_50:\n    /* \"#utility.yul\":1724:1798   */\n  swap2\n  pop\n    /* \"#utility.yul\":1807:1900   */\n  tag_51\n    /* \"#utility.yul\":1896:1899   */\n  dup3\n    /* \"#utility.yul\":1807:1900   */\n  tag_28\n  jump\t// in\ntag_51:\n    /* \"#utility.yul\":1925:1927   */\n  0x20\n    /* \"#utility.yul\":1920:1923   */\n  dup3\n    /* \"#utility.yul\":1916:1928   */\n  add\n    /* \"#utility.yul\":1909:1928   */\n  swap1\n  pop\n    /* \"#utility.yul\":1568:1934   */\n  swap2\n  swap1\n  pop\n  jump\t// out\n    /* \"#utility.yul\":1940:2359   */\ntag_14:\n    /* \"#utility.yul\":2106:2110   */\n  0x00\n    /* \"#utility.yul\":2144:2146   */\n  0x20\n    /* \"#utility.yul\":2133:2142   */\n  dup3\n    /* \"#utility.yul\":2129:2147   */\n  add\n    /* \"#utility.yul\":2121:2147   */\n  swap1\n  pop\n    /* \"#utility.yul\":2193:2202   */\n  dup2\n    /* \"#utility.yul\":2187:2191   */\n  dup2\n    /* \"#utility.yul\":2183:2203   */\n  sub\n    /* \"#utility.yul\":2179:2180   */\n  0x00\n    /* \"#utility.yul\":2168:2177   */\n  dup4\n    /* \"#utility.yul\":2164:2181   */\n  add\n    /* \"#utility.yul\":2157:2204   */\n  mstore\n    /* \"#utility.yul\":2221:2352   */\n  tag_53\n    /* \"#utility.yul\":2347:2351   */\n  dup2\n    /* \"#utility.yul\":2221:2352   */\n  tag_29\n  jump\t// in\ntag_53:\n    /* \"#utility.yul\":2213:2352   */\n  swap1\n  pop\n    /* \"#utility.yul\":1940:2359   */\n  swap2\n  swap1\n  pop\n  jump\t// out\n    /* \"#utility.yul\":2365:2532   */\ntag_30:\n    /* \"#utility.yul\":2505:2524   */\n  0x656e64206174203c207374617274206174000000000000000000000000000000\n    /* \"#utility.yul\":2501:2502   */\n  0x00\n    /* \"#utility.yul\":2493:2499   */\n  dup3\n    /* \"#utility.yul\":2489:2503   */\n  add\n    /* \"#utility.yul\":2482:2525   */\n  mstore\n    /* \"#utility.yul\":2365:2532   */\n  pop\n  jump\t// out\n    /* \"#utility.yul\":2538:2904   */\ntag_31:\n    /* \"#utility.yul\":2680:2683   */\n  0x00\n    /* \"#utility.yul\":2701:2768   */\n  tag_56\n    /* \"#utility.yul\":2765:2767   */\n  0x11\n    /* \"#utility.yul\":2760:2763   */\n  dup4\n    /* \"#utility.yul\":2701:2768   */\n  tag_27\n  jump\t// in\ntag_56:\n    /* \"#utility.yul\":2694:2768   */\n  swap2\n  pop\n    /* \"#utility.yul\":2777:2870   */\n  tag_57\n    /* \"#utility.yul\":2866:2869   */\n  dup3\n    /* \"#utility.yul\":2777:2870   */\n  tag_30\n  jump\t// in\ntag_57:\n    /* \"#utility.yul\":2895:2897   */\n  0x20\n    /* \"#utility.yul\":2890:2893   */\n  dup3\n    /* \"#utility.yul\":2886:2898   */\n  add\n    /* \"#utility.yul\":2879:2898   */\n  swap1\n  pop\n    /* \"#utility.yul\":2538:2904   */\n  swap2\n  swap1\n  pop\n  jump\t// out\n    /* \"#utility.yul\":2910:3329   */\ntag_17:\n    /* \"#utility.yul\":3076:3080   */\n  0x00\n    /* \"#utility.yul\":3114:3116   */\n  0x20\n    /* \"#utility.yul\":3103:3112   */\n  dup3\n    /* \"#utility.yul\":3099:3117   */\n  add\n    /* \"#utility.yul\":3091:3117   */\n  swap1\n  pop\n    /* \"#utility.yul\":3163:3172   */\n  dup2\n    /* \"#utility.yul\":3157:3161   */\n  dup2\n    /* \"#utility.yul\":3153:3173   */\n  sub\n    /* \"#utility.yul\":3149:3150   */\n  0x00\n    /* \"#utility.yul\":3138:3147   */\n  dup4\n    /* \"#utility.yul\":3134:3151   */\n  add\n    /* \"#utility.yul\":3127:3174   */\n  mstore\n    /* \"#utility.yul\":3191:3322   */\n  tag_59\n    /* \"#utility.yul\":3317:3321   */\n  dup2\n    /* \"#utility.yul\":3191:3322   */\n  tag_31\n  jump\t// in\ntag_59:\n    /* \"#utility.yul\":3183:3322   */\n  swap1\n  pop\n    /* \"#utility.yul\":2910:3329   */\n  swap2\n  swap1\n  pop\n  jump\t// out\n    /* \"ex/BPresell.sol\":2649:7878  contract BabyPresell is Ownable {... */\ntag_18:\n  mload(0x80)\n  mload(0xa0)\n  codecopy(0x00, dataOffset(sub_0), dataSize(sub_0))\n  0x00\n  assignImmutable(\"0xe5dc5b472d77ffeb68b1bb241b2a30a23da4805b6fe423e8c4bcb52699f7038d\")\n  0x00\n  assignImmutable(\"0x555b0a599f654d63fa786356aaa3ed32af39ca11efd351bedfbf54d34ad77d1b\")\n  return(0x00, dataSize(sub_0))\nstop\n\nsub_0: assembly {\n        /* \"ex/BPresell.sol\":2649:7878  contract BabyPresell is Ownable {... */\n      mstore(0x40, 0x80)\n      callvalue\n      dup1\n      iszero\n      tag_1\n      jumpi\n      0x00\n      dup1\n      revert\n    tag_1:\n      pop\n      jumpi(tag_2, lt(calldatasize, 0x04))\n      shr(0xe0, calldataload(0x00))\n      dup1\n      0x8da5cb5b\n      gt\n      tag_35\n      jumpi\n      dup1\n      0xd0febe4c\n      gt\n      tag_36\n      jumpi\n      dup1\n      0xdcd83616\n      gt\n      tag_37\n      jumpi\n      dup1\n      0xdcd83616\n      eq\n      tag_31\n      jumpi\n      dup1\n      0xf01fc57c\n      eq\n      tag_32\n      jumpi\n      dup1\n      0xf2fde38b\n      eq\n      tag_33\n      jumpi\n      dup1\n      0xfae92612\n      eq\n      tag_34\n      jumpi\n      jump(tag_2)\n    tag_37:\n      dup1\n      0xd0febe4c\n      eq\n      tag_27\n      jumpi\n      dup1\n      0xd1d04e1f\n      eq\n      tag_28\n      jumpi\n      dup1\n      0xd35cde41\n      eq\n      tag_29\n      jumpi\n      dup1\n      0xdb2e21bc\n      eq\n      tag_30\n      jumpi\n      jump(tag_2)\n    tag_36:\n      dup1\n      0xa98ad46c\n      gt\n      tag_38\n      jumpi\n      dup1\n      0xa98ad46c\n      eq\n      tag_23\n      jumpi\n      dup1\n      0xacf6c91c\n      eq\n      tag_24\n      jumpi\n      dup1\n      0xc828371e\n      eq\n      tag_25\n      jumpi\n      dup1\n      0xc9ede793\n      eq\n      tag_26\n      jumpi\n      jump(tag_2)\n    tag_38:\n      dup1\n      0x8da5cb5b\n      eq\n      tag_19\n      jumpi\n      dup1\n      0x90f5881a\n      eq\n      tag_20\n      jumpi\n      dup1\n      0x95623641\n      eq\n      tag_21\n      jumpi\n      dup1\n      0x9769f0b0\n      eq\n      tag_22\n      jumpi\n      jump(tag_2)\n    tag_35:\n      dup1\n      0x439f5ac2\n      gt\n      tag_39\n      jumpi\n      dup1\n      0x715018a6\n      gt\n      tag_40\n      jumpi\n      dup1\n      0x715018a6\n      eq\n      tag_15\n      jumpi\n      dup1\n      0x78eb6c6f\n      eq\n      tag_16\n      jumpi\n      dup1\n      0x8568f4ce\n      eq\n      tag_17\n      jumpi\n      dup1\n      0x88af60c6\n      eq\n      tag_18\n      jumpi\n      jump(tag_2)\n    tag_40:\n      dup1\n      0x439f5ac2\n      eq\n      tag_11\n      jumpi\n      dup1\n      0x50b2b0a4\n      eq\n      tag_12\n      jumpi\n      dup1\n      0x5fc1cb63\n      eq\n      tag_13\n      jumpi\n      dup1\n      0x69c82ef7\n      eq\n      tag_14\n      jumpi\n      jump(tag_2)\n    tag_39:\n      dup1\n      0x372c12b1\n      gt\n      tag_41\n      jumpi\n      dup1\n      0x372c12b1\n      eq\n      tag_7\n      jumpi\n      dup1\n      0x374eedef\n      eq\n      tag_8\n      jumpi\n      dup1\n      0x39b417b7\n      eq\n      tag_9\n      jumpi\n      dup1\n      0x3d719da7\n      eq\n      tag_10\n      jumpi\n      jump(tag_2)\n    tag_41:\n      dup1\n      0x027734fa\n      eq\n      tag_3\n      jumpi\n      dup1\n      0x03d7424d\n      eq\n      tag_4\n      jumpi\n      dup1\n      0x08c9d227\n      eq\n      tag_5\n      jumpi\n      dup1\n      0x271f88b4\n      eq\n      tag_6\n      jumpi\n    tag_2:\n      0x00\n      dup1\n      revert\n        /* \"ex/BPresell.sol\":2892:2975  address public presellTokenMintAddress = 0xA3247B33baA9eA15b699C77237d5B16f5CFD822f */\n    tag_3:\n      tag_42\n      tag_43\n      jump\t// in\n    tag_42:\n      mload(0x40)\n      tag_44\n      swap2\n      swap1\n      tag_45\n      jump\t// in\n    tag_44:\n      mload(0x40)\n      dup1\n      swap2\n      sub\n      swap1\n      return\n        /* \"ex/BPresell.sol\":5163:5263  function getWithdrawCounter() public view returns (uint64) {... */\n    tag_4:\n      tag_46\n      tag_47\n      jump\t// in\n    tag_46:\n      mload(0x40)\n      tag_48\n      swap2\n      swap1\n      tag_49\n      jump\t// in\n    tag_48:\n      mload(0x40)\n      dup1\n      swap2\n      sub\n      swap1\n      return\n        /* \"ex/BPresell.sol\":7463:7762  function changeWhiteListBatch(address[] memory accounts, bool[] memory states) public onlyOwner {... */\n    tag_5:\n      tag_50\n      0x04\n      dup1\n      calldatasize\n      sub\n      dup2\n      add\n      swap1\n      tag_51\n      swap2\n      swap1\n      tag_52\n      jump\t// in\n    tag_51:\n      tag_53\n      jump\t// in\n    tag_50:\n      stop\n        /* \"ex/BPresell.sol\":6991:7087  function setAmount(uint256 newAmount) public onlyOwner {... */\n    tag_6:\n      tag_54\n      0x04\n      dup1\n      calldatasize\n      sub\n      dup2\n      add\n      swap1\n      tag_55\n      swap2\n      swap1\n      tag_56\n      jump\t// in\n    tag_55:\n      tag_57\n      jump\t// in\n    tag_54:\n      stop\n        /* \"ex/BPresell.sol\":3655:3696  mapping(address => bool) public whiteList */\n    tag_7:\n      tag_58\n      0x04\n      dup1\n      calldatasize\n      sub\n      dup2\n      add\n      swap1\n      tag_59\n      swap2\n      swap1\n      tag_60\n      jump\t// in\n    tag_59:\n      tag_61\n      jump\t// in\n    tag_58:\n      mload(0x40)\n      tag_62\n      swap2\n      swap1\n      tag_63\n      jump\t// in\n    tag_62:\n      mload(0x40)\n      dup1\n      swap2\n      sub\n      swap1\n      return\n        /* \"ex/BPresell.sol\":4954:5056  function getUserHasBuy(address user) public view returns (bool) {... */\n    tag_8:\n      tag_64\n      0x04\n      dup1\n      calldatasize\n      sub\n      dup2\n      add\n      swap1\n      tag_65\n      swap2\n      swap1\n      tag_60\n      jump\t// in\n    tag_65:\n      tag_66\n      jump\t// in\n    tag_64:\n      mload(0x40)\n      tag_67\n      swap2\n      swap1\n      tag_63\n      jump\t// in\n    tag_67:\n      mload(0x40)\n      dup1\n      swap2\n      sub\n      swap1\n      return\n        /* \"ex/BPresell.sol\":7339:7455  function changeWhiteList(address account, bool state) public onlyOwner {... */\n    tag_9:\n      tag_68\n      0x04\n      dup1\n      calldatasize\n      sub\n      dup2\n      add\n      swap1\n      tag_69\n      swap2\n      swap1\n      tag_70\n      jump\t// in\n    tag_69:\n      tag_71\n      jump\t// in\n    tag_68:\n      stop\n        /* \"ex/BPresell.sol\":3610:3648  mapping(address => bool) public hasBuy */\n    tag_10:\n      tag_72\n      0x04\n      dup1\n      calldatasize\n      sub\n      dup2\n      add\n      swap1\n      tag_73\n      swap2\n      swap1\n      tag_60\n      jump\t// in\n    tag_73:\n      tag_74\n      jump\t// in\n    tag_72:\n      mload(0x40)\n      tag_75\n      swap2\n      swap1\n      tag_63\n      jump\t// in\n    tag_75:\n      mload(0x40)\n      dup1\n      swap2\n      sub\n      swap1\n      return\n        /* \"ex/BPresell.sol\":4864:4946  function getEndTime() public view returns (uint64) {... */\n    tag_11:\n      tag_76\n      tag_77\n      jump\t// in\n    tag_76:\n      mload(0x40)\n      tag_78\n      swap2\n      swap1\n      tag_49\n      jump\t// in\n    tag_78:\n      mload(0x40)\n      dup1\n      swap2\n      sub\n      swap1\n      return\n        /* \"ex/BPresell.sol\":7770:7865  function setDisableWhiteList(bool op) public onlyOwner {... */\n    tag_12:\n      tag_79\n      0x04\n      dup1\n      calldatasize\n      sub\n      dup2\n      add\n      swap1\n      tag_80\n      swap2\n      swap1\n      tag_81\n      jump\t// in\n    tag_80:\n      tag_82\n      jump\t// in\n    tag_79:\n      stop\n        /* \"ex/BPresell.sol\":6556:6738  function exigencyWithdrawToken(uint256 amount) public onlyOwner {... */\n    tag_13:\n      tag_83\n      0x04\n      dup1\n      calldatasize\n      sub\n      dup2\n      add\n      swap1\n      tag_84\n      swap2\n      swap1\n      tag_56\n      jump\t// in\n    tag_84:\n      tag_85\n      jump\t// in\n    tag_83:\n      stop\n        /* \"ex/BPresell.sol\":4417:4505  function setPresellMax(uint32 amount) public onlyOwner{... */\n    tag_14:\n      tag_86\n      0x04\n      dup1\n      calldatasize\n      sub\n      dup2\n      add\n      swap1\n      tag_87\n      swap2\n      swap1\n      tag_88\n      jump\t// in\n    tag_87:\n      tag_89\n      jump\t// in\n    tag_86:\n      stop\n        /* \"ex/BPresell.sol\":1832:1935  function renounceOwnership() public virtual onlyOwner {... */\n    tag_15:\n      tag_90\n      tag_91\n      jump\t// in\n    tag_90:\n      stop\n        /* \"ex/BPresell.sol\":4515:4623  function getPreSellCoinAmount() public view returns (uint256) {... */\n    tag_16:\n      tag_92\n      tag_93\n      jump\t// in\n    tag_92:\n      mload(0x40)\n      tag_94\n      swap2\n      swap1\n      tag_95\n      jump\t// in\n    tag_94:\n      mload(0x40)\n      dup1\n      swap2\n      sub\n      swap1\n      return\n        /* \"ex/BPresell.sol\":4631:4762  function getUserPreSellCoinAmount(address user) public view returns (uint256) {... */\n    tag_17:\n      tag_96\n      0x04\n      dup1\n      calldatasize\n      sub\n      dup2\n      add\n      swap1\n      tag_97\n      swap2\n      swap1\n      tag_60\n      jump\t// in\n    tag_97:\n      tag_98\n      jump\t// in\n    tag_96:\n      mload(0x40)\n      tag_99\n      swap2\n      swap1\n      tag_95\n      jump\t// in\n    tag_99:\n      mload(0x40)\n      dup1\n      swap2\n      sub\n      swap1\n      return\n        /* \"ex/BPresell.sol\":2810:2885  address public usdtMintAddress = 0x55d398326f99059fF775485246999027B3197955 */\n    tag_18:\n      tag_100\n      tag_101\n      jump\t// in\n    tag_100:\n      mload(0x40)\n      tag_102\n      swap2\n      swap1\n      tag_45\n      jump\t// in\n    tag_102:\n      mload(0x40)\n      dup1\n      swap2\n      sub\n      swap1\n      return\n        /* \"ex/BPresell.sol\":1181:1268  function owner() public view virtual returns (address) {... */\n    tag_19:\n      tag_103\n      tag_104\n      jump\t// in\n    tag_103:\n      mload(0x40)\n      tag_105\n      swap2\n      swap1\n      tag_45\n      jump\t// in\n    tag_105:\n      mload(0x40)\n      dup1\n      swap2\n      sub\n      swap1\n      return\n        /* \"ex/BPresell.sol\":3547:3603  mapping(address => uint256) public userPresellBalanceMap */\n    tag_20:\n      tag_106\n      0x04\n      dup1\n      calldatasize\n      sub\n      dup2\n      add\n      swap1\n      tag_107\n      swap2\n      swap1\n      tag_60\n      jump\t// in\n    tag_107:\n      tag_108\n      jump\t// in\n    tag_106:\n      mload(0x40)\n      tag_109\n      swap2\n      swap1\n      tag_95\n      jump\t// in\n    tag_109:\n      mload(0x40)\n      dup1\n      swap2\n      sub\n      swap1\n      return\n        /* \"ex/BPresell.sol\":2982:3055  address public marketAddress = 0xd3c0b6Aa1538d639912789be705F18b5Fd89fcE6 */\n    tag_21:\n      tag_110\n      tag_111\n      jump\t// in\n    tag_110:\n      mload(0x40)\n      tag_112\n      swap2\n      swap1\n      tag_45\n      jump\t// in\n    tag_112:\n      mload(0x40)\n      dup1\n      swap2\n      sub\n      swap1\n      return\n        /* \"ex/BPresell.sol\":3507:3540  IERC20 public immutable sellToken */\n    tag_22:\n      tag_113\n      tag_114\n      jump\t// in\n    tag_113:\n      mload(0x40)\n      tag_115\n      swap2\n      swap1\n      tag_116\n      jump\t// in\n    tag_115:\n      mload(0x40)\n      dup1\n      swap2\n      sub\n      swap1\n      return\n        /* \"ex/BPresell.sol\":3467:3500  IERC20 public immutable usdtToken */\n    tag_23:\n      tag_117\n      tag_118\n      jump\t// in\n    tag_117:\n      mload(0x40)\n      tag_119\n      swap2\n      swap1\n      tag_116\n      jump\t// in\n    tag_119:\n      mload(0x40)\n      dup1\n      swap2\n      sub\n      swap1\n      return\n        /* \"ex/BPresell.sol\":7095:7331  function setTime(uint64 start, uint64 end) public onlyOwner {... */\n    tag_24:\n      tag_120\n      0x04\n      dup1\n      calldatasize\n      sub\n      dup2\n      add\n      swap1\n      tag_121\n      swap2\n      swap1\n      tag_122\n      jump\t// in\n    tag_121:\n      tag_123\n      jump\t// in\n    tag_120:\n      stop\n        /* \"ex/BPresell.sol\":4770:4856  function getStartTime() public view returns (uint64) {... */\n    tag_25:\n      tag_124\n      tag_125\n      jump\t// in\n    tag_124:\n      mload(0x40)\n      tag_126\n      swap2\n      swap1\n      tag_49\n      jump\t// in\n    tag_126:\n      mload(0x40)\n      dup1\n      swap2\n      sub\n      swap1\n      return\n        /* \"ex/BPresell.sol\":6082:6548  function withdrawPresellTokens() public {... */\n    tag_26:\n      tag_127\n      tag_128\n      jump\t// in\n    tag_127:\n      stop\n        /* \"ex/BPresell.sol\":5271:6074  function buyTokens() public {... */\n    tag_27:\n      tag_129\n      tag_130\n      jump\t// in\n    tag_129:\n      stop\n        /* \"ex/BPresell.sol\":4323:4409  function getPresellMax() public view returns (uint32) {... */\n    tag_28:\n      tag_131\n      tag_132\n      jump\t// in\n    tag_131:\n      mload(0x40)\n      tag_133\n      swap2\n      swap1\n      tag_134\n      jump\t// in\n    tag_133:\n      mload(0x40)\n      dup1\n      swap2\n      sub\n      swap1\n      return\n        /* \"ex/BPresell.sol\":4224:4315  function getUsdtAmount() public view returns (uint256) {... */\n    tag_29:\n      tag_135\n      tag_136\n      jump\t// in\n    tag_135:\n      mload(0x40)\n      tag_137\n      swap2\n      swap1\n      tag_95\n      jump\t// in\n    tag_137:\n      mload(0x40)\n      dup1\n      swap2\n      sub\n      swap1\n      return\n        /* \"ex/BPresell.sol\":6746:6861  function emergencyWithdraw() external onlyOwner {... */\n    tag_30:\n      tag_138\n      tag_139\n      jump\t// in\n    tag_138:\n      stop\n        /* \"ex/BPresell.sol\":3430:3458  bool public disableWhiteList */\n    tag_31:\n      tag_140\n      tag_141\n      jump\t// in\n    tag_140:\n      mload(0x40)\n      tag_142\n      swap2\n      swap1\n      tag_63\n      jump\t// in\n    tag_142:\n      mload(0x40)\n      dup1\n      swap2\n      sub\n      swap1\n      return\n        /* \"ex/BPresell.sol\":5064:5155  function getPreSellCounter() public view returns (uint64) {... */\n    tag_32:\n      tag_143\n      tag_144\n      jump\t// in\n    tag_143:\n      mload(0x40)\n      tag_145\n      swap2\n      swap1\n      tag_49\n      jump\t// in\n    tag_145:\n      mload(0x40)\n      dup1\n      swap2\n      sub\n      swap1\n      return\n        /* \"ex/BPresell.sol\":2090:2291  function transferOwnership(address newOwner) public virtual onlyOwner {... */\n    tag_33:\n      tag_146\n      0x04\n      dup1\n      calldatasize\n      sub\n      dup2\n      add\n      swap1\n      tag_147\n      swap2\n      swap1\n      tag_60\n      jump\t// in\n    tag_147:\n      tag_148\n      jump\t// in\n    tag_146:\n      stop\n        /* \"ex/BPresell.sol\":6869:6977  function setMarketAddress(address newAddress) public onlyOwner {... */\n    tag_34:\n      tag_149\n      0x04\n      dup1\n      calldatasize\n      sub\n      dup2\n      add\n      swap1\n      tag_150\n      swap2\n      swap1\n      tag_60\n      jump\t// in\n    tag_150:\n      tag_151\n      jump\t// in\n    tag_149:\n      stop\n        /* \"ex/BPresell.sol\":2892:2975  address public presellTokenMintAddress = 0xA3247B33baA9eA15b699C77237d5B16f5CFD822f */\n    tag_43:\n      0x02\n      0x00\n      swap1\n      sload\n      swap1\n      0x0100\n      exp\n      swap1\n      div\n      0xffffffffffffffffffffffffffffffffffffffff\n      and\n      dup2\n      jump\t// out\n        /* \"ex/BPresell.sol\":5163:5263  function getWithdrawCounter() public view returns (uint64) {... */\n    tag_47:\n        /* \"ex/BPresell.sol\":5214:5220  uint64 */\n      0x00\n        /* \"ex/BPresell.sol\":5240:5255  withdrawCounter */\n      0x06\n      0x04\n      swap1\n      sload\n      swap1\n      0x0100\n      exp\n      swap1\n      div\n      0xffffffff\n      and\n        /* \"ex/BPresell.sol\":5233:5255  return withdrawCounter */\n      0xffffffff\n      and\n      swap1\n      pop\n        /* \"ex/BPresell.sol\":5163:5263  function getWithdrawCounter() public view returns (uint64) {... */\n      swap1\n      jump\t// out\n        /* \"ex/BPresell.sol\":7463:7762  function changeWhiteListBatch(address[] memory accounts, bool[] memory states) public onlyOwner {... */\n    tag_53:\n        /* \"ex/BPresell.sol\":1412:1424  _msgSender() */\n      tag_154\n        /* \"ex/BPresell.sol\":1412:1422  _msgSender */\n      tag_155\n        /* \"ex/BPresell.sol\":1412:1424  _msgSender() */\n      jump\t// in\n    tag_154:\n        /* \"ex/BPresell.sol\":1401:1424  owner() == _msgSender() */\n      0xffffffffffffffffffffffffffffffffffffffff\n      and\n        /* \"ex/BPresell.sol\":1401:1408  owner() */\n      tag_156\n        /* \"ex/BPresell.sol\":1401:1406  owner */\n      tag_104\n        /* \"ex/BPresell.sol\":1401:1408  owner() */\n      jump\t// in\n    tag_156:\n        /* \"ex/BPresell.sol\":1401:1424  owner() == _msgSender() */\n      0xffffffffffffffffffffffffffffffffffffffff\n      and\n      eq\n        /* \"ex/BPresell.sol\":1393:1461  require(owner() == _msgSender(), \"Ownable: caller is not the owner\") */\n      tag_157\n      jumpi\n      mload(0x40)\n      0x08c379a000000000000000000000000000000000000000000000000000000000\n      dup2\n      mstore\n      0x04\n      add\n      tag_158\n      swap1\n      tag_159\n      jump\t// in\n    tag_158:\n      mload(0x40)\n      dup1\n      swap2\n      sub\n      swap1\n      revert\n    tag_157:\n        /* \"ex/BPresell.sol\":7597:7603  states */\n      dup1\n        /* \"ex/BPresell.sol\":7597:7610  states.length */\n      mload\n        /* \"ex/BPresell.sol\":7578:7586  accounts */\n      dup3\n        /* \"ex/BPresell.sol\":7578:7593  accounts.length */\n      mload\n        /* \"ex/BPresell.sol\":7578:7610  accounts.length == states.length */\n      eq\n        /* \"ex/BPresell.sol\":7570:7633  require(accounts.length == states.length, \"arrat length error\") */\n      tag_161\n      jumpi\n      mload(0x40)\n      0x08c379a000000000000000000000000000000000000000000000000000000000\n      dup2\n      mstore\n      0x04\n      add\n      tag_162\n      swap1\n      tag_163\n      jump\t// in\n    tag_162:\n      mload(0x40)\n      dup1\n      swap2\n      sub\n      swap1\n      revert\n    tag_161:\n        /* \"ex/BPresell.sol\":7648:7657  uint256 i */\n      0x00\n        /* \"ex/BPresell.sol\":7644:7755  for(uint256 i = 0; i < accounts.length; ++i) {... */\n    tag_164:\n        /* \"ex/BPresell.sol\":7667:7675  accounts */\n      dup3\n        /* \"ex/BPresell.sol\":7667:7682  accounts.length */\n      mload\n        /* \"ex/BPresell.sol\":7663:7664  i */\n      dup2\n        /* \"ex/BPresell.sol\":7663:7682  i < accounts.length */\n      lt\n        /* \"ex/BPresell.sol\":7644:7755  for(uint256 i = 0; i < accounts.length; ++i) {... */\n      iszero\n      tag_165\n      jumpi\n        /* \"ex/BPresell.sol\":7704:7743  changeWhiteList(accounts[i], states[i]) */\n      tag_167\n        /* \"ex/BPresell.sol\":7720:7728  accounts */\n      dup4\n        /* \"ex/BPresell.sol\":7729:7730  i */\n      dup3\n        /* \"ex/BPresell.sol\":7720:7731  accounts[i] */\n      dup2\n      mload\n      dup2\n      lt\n      tag_168\n      jumpi\n      tag_169\n      tag_170\n      jump\t// in\n    tag_169:\n    tag_168:\n      0x20\n      mul\n      0x20\n      add\n      add\n      mload\n        /* \"ex/BPresell.sol\":7733:7739  states */\n      dup4\n        /* \"ex/BPresell.sol\":7740:7741  i */\n      dup4\n        /* \"ex/BPresell.sol\":7733:7742  states[i] */\n      dup2\n      mload\n      dup2\n      lt\n      tag_171\n      jumpi\n      tag_172\n      tag_170\n      jump\t// in\n    tag_172:\n    tag_171:\n      0x20\n      mul\n      0x20\n      add\n      add\n      mload\n        /* \"ex/BPresell.sol\":7704:7719  changeWhiteList */\n      tag_71\n        /* \"ex/BPresell.sol\":7704:7743  changeWhiteList(accounts[i], states[i]) */\n      jump\t// in\n    tag_167:\n        /* \"ex/BPresell.sol\":7684:7687  ++i */\n      dup1\n      tag_173\n      swap1\n      tag_174\n      jump\t// in\n    tag_173:\n      swap1\n      pop\n        /* \"ex/BPresell.sol\":7644:7755  for(uint256 i = 0; i < accounts.length; ++i) {... */\n      jump(tag_164)\n    tag_165:\n      pop\n        /* \"ex/BPresell.sol\":7463:7762  function changeWhiteListBatch(address[] memory accounts, bool[] memory states) public onlyOwner {... */\n      pop\n      pop\n      jump\t// out\n        /* \"ex/BPresell.sol\":6991:7087  function setAmount(uint256 newAmount) public onlyOwner {... */\n    tag_57:\n        /* \"ex/BPresell.sol\":1412:1424  _msgSender() */\n      tag_176\n        /* \"ex/BPresell.sol\":1412:1422  _msgSender */\n      tag_155\n        /* \"ex/BPresell.sol\":1412:1424  _msgSender() */\n      jump\t// in\n    tag_176:\n        /* \"ex/BPresell.sol\":1401:1424  owner() == _msgSender() */\n      0xffffffffffffffffffffffffffffffffffffffff\n      and\n        /* \"ex/BPresell.sol\":1401:1408  owner() */\n      tag_177\n        /* \"ex/BPresell.sol\":1401:1406  owner */\n      tag_104\n        /* \"ex/BPresell.sol\":1401:1408  owner() */\n      jump\t// in\n    tag_177:\n        /* \"ex/BPresell.sol\":1401:1424  owner() == _msgSender() */\n      0xffffffffffffffffffffffffffffffffffffffff\n      and\n      eq\n        /* \"ex/BPresell.sol\":1393:1461  require(owner() == _msgSender(), \"Ownable: caller is not the owner\") */\n      tag_178\n      jumpi\n      mload(0x40)\n      0x08c379a000000000000000000000000000000000000000000000000000000000\n      dup2\n      mstore\n      0x04\n      add\n      tag_179\n      swap1\n      tag_159\n      jump\t// in\n    tag_179:\n      mload(0x40)\n      dup1\n      swap2\n      sub\n      swap1\n      revert\n    tag_178:\n        /* \"ex/BPresell.sol\":7070:7079  newAmount */\n      dup1\n        /* \"ex/BPresell.sol\":7057:7067  usdtAmount */\n      0x04\n        /* \"ex/BPresell.sol\":7057:7079  usdtAmount = newAmount */\n      dup2\n      swap1\n      sstore\n      pop\n        /* \"ex/BPresell.sol\":6991:7087  function setAmount(uint256 newAmount) public onlyOwner {... */\n      pop\n      jump\t// out\n        /* \"ex/BPresell.sol\":3655:3696  mapping(address => bool) public whiteList */\n    tag_61:\n      mstore(0x20, 0x09)\n      dup1\n      0x00\n      mstore\n      keccak256(0x00, 0x40)\n      0x00\n      swap2\n      pop\n      sload\n      swap1\n      0x0100\n      exp\n      swap1\n      div\n      0xff\n      and\n      dup2\n      jump\t// out\n        /* \"ex/BPresell.sol\":4954:5056  function getUserHasBuy(address user) public view returns (bool) {... */\n    tag_66:\n        /* \"ex/BPresell.sol\":5012:5016  bool */\n      0x00\n        /* \"ex/BPresell.sol\":5036:5042  hasBuy */\n      0x08\n        /* \"ex/BPresell.sol\":5036:5048  hasBuy[user] */\n      0x00\n        /* \"ex/BPresell.sol\":5043:5047  user */\n      dup4\n        /* \"ex/BPresell.sol\":5036:5048  hasBuy[user] */\n      0xffffffffffffffffffffffffffffffffffffffff\n      and\n      0xffffffffffffffffffffffffffffffffffffffff\n      and\n      dup2\n      mstore\n      0x20\n      add\n      swap1\n      dup2\n      mstore\n      0x20\n      add\n      0x00\n      keccak256\n      0x00\n      swap1\n      sload\n      swap1\n      0x0100\n      exp\n      swap1\n      div\n      0xff\n      and\n        /* \"ex/BPresell.sol\":5029:5048  return hasBuy[user] */\n      swap1\n      pop\n        /* \"ex/BPresell.sol\":4954:5056  function getUserHasBuy(address user) public view returns (bool) {... */\n      swap2\n      swap1\n      pop\n      jump\t// out\n        /* \"ex/BPresell.sol\":7339:7455  function changeWhiteList(address account, bool state) public onlyOwner {... */\n    tag_71:\n        /* \"ex/BPresell.sol\":1412:1424  _msgSender() */\n      tag_183\n        /* \"ex/BPresell.sol\":1412:1422  _msgSender */\n      tag_155\n        /* \"ex/BPresell.sol\":1412:1424  _msgSender() */\n      jump\t// in\n    tag_183:\n        /* \"ex/BPresell.sol\":1401:1424  owner() == _msgSender() */\n      0xffffffffffffffffffffffffffffffffffffffff\n      and\n        /* \"ex/BPresell.sol\":1401:1408  owner() */\n      tag_184\n        /* \"ex/BPresell.sol\":1401:1406  owner */\n      tag_104\n        /* \"ex/BPresell.sol\":1401:1408  owner() */\n      jump\t// in\n    tag_184:\n        /* \"ex/BPresell.sol\":1401:1424  owner() == _msgSender() */\n      0xffffffffffffffffffffffffffffffffffffffff\n      and\n      eq\n        /* \"ex/BPresell.sol\":1393:1461  require(owner() == _msgSender(), \"Ownable: caller is not the owner\") */\n      tag_185\n      jumpi\n      mload(0x40)\n      0x08c379a000000000000000000000000000000000000000000000000000000000\n      dup2\n      mstore\n      0x04\n      add\n      tag_186\n      swap1\n      tag_159\n      jump\t// in\n    tag_186:\n      mload(0x40)\n      dup1\n      swap2\n      sub\n      swap1\n      revert\n    tag_185:\n        /* \"ex/BPresell.sol\":7442:7447  state */\n      dup1\n        /* \"ex/BPresell.sol\":7421:7430  whiteList */\n      0x09\n        /* \"ex/BPresell.sol\":7421:7439  whiteList[account] */\n      0x00\n        /* \"ex/BPresell.sol\":7431:7438  account */\n      dup5\n        /* \"ex/BPresell.sol\":7421:7439  whiteList[account] */\n      0xffffffffffffffffffffffffffffffffffffffff\n      and\n      0xffffffffffffffffffffffffffffffffffffffff\n      and\n      dup2\n      mstore\n      0x20\n      add\n      swap1\n      dup2\n      mstore\n      0x20\n      add\n      0x00\n      keccak256\n      0x00\n        /* \"ex/BPresell.sol\":7421:7447  whiteList[account] = state */\n      0x0100\n      exp\n      dup2\n      sload\n      dup2\n      0xff\n      mul\n      not\n      and\n      swap1\n      dup4\n      iszero\n      iszero\n      mul\n      or\n      swap1\n      sstore\n      pop\n        /* \"ex/BPresell.sol\":7339:7455  function changeWhiteList(address account, bool state) public onlyOwner {... */\n      pop\n      pop\n      jump\t// out\n        /* \"ex/BPresell.sol\":3610:3648  mapping(address => bool) public hasBuy */\n    tag_74:\n      mstore(0x20, 0x08)\n      dup1\n      0x00\n      mstore\n      keccak256(0x00, 0x40)\n      0x00\n      swap2\n      pop\n      sload\n      swap1\n      0x0100\n      exp\n      swap1\n      div\n      0xff\n      and\n      dup2\n      jump\t// out\n        /* \"ex/BPresell.sol\":4864:4946  function getEndTime() public view returns (uint64) {... */\n    tag_77:\n        /* \"ex/BPresell.sol\":4907:4913  uint64 */\n      0x00\n        /* \"ex/BPresell.sol\":4933:4938  endAt */\n      0x06\n      0x14\n      swap1\n      sload\n      swap1\n      0x0100\n      exp\n      swap1\n      div\n      0xffffffffffffffff\n      and\n        /* \"ex/BPresell.sol\":4926:4938  return endAt */\n      swap1\n      pop\n        /* \"ex/BPresell.sol\":4864:4946  function getEndTime() public view returns (uint64) {... */\n      swap1\n      jump\t// out\n        /* \"ex/BPresell.sol\":7770:7865  function setDisableWhiteList(bool op) public onlyOwner {... */\n    tag_82:\n        /* \"ex/BPresell.sol\":1412:1424  _msgSender() */\n      tag_190\n        /* \"ex/BPresell.sol\":1412:1422  _msgSender */\n      tag_155\n        /* \"ex/BPresell.sol\":1412:1424  _msgSender() */\n      jump\t// in\n    tag_190:\n        /* \"ex/BPresell.sol\":1401:1424  owner() == _msgSender() */\n      0xffffffffffffffffffffffffffffffffffffffff\n      and\n        /* \"ex/BPresell.sol\":1401:1408  owner() */\n      tag_191\n        /* \"ex/BPresell.sol\":1401:1406  owner */\n      tag_104\n        /* \"ex/BPresell.sol\":1401:1408  owner() */\n      jump\t// in\n    tag_191:\n        /* \"ex/BPresell.sol\":1401:1424  owner() == _msgSender() */\n      0xffffffffffffffffffffffffffffffffffffffff\n      and\n      eq\n        /* \"ex/BPresell.sol\":1393:1461  require(owner() == _msgSender(), \"Ownable: caller is not the owner\") */\n      tag_192\n      jumpi\n      mload(0x40)\n      0x08c379a000000000000000000000000000000000000000000000000000000000\n      dup2\n      mstore\n      0x04\n      add\n      tag_193\n      swap1\n      tag_159\n      jump\t// in\n    tag_193:\n      mload(0x40)\n      dup1\n      swap2\n      sub\n      swap1\n      revert\n    tag_192:\n        /* \"ex/BPresell.sol\":7855:7857  op */\n      dup1\n        /* \"ex/BPresell.sol\":7836:7852  disableWhiteList */\n      0x06\n      0x1c\n        /* \"ex/BPresell.sol\":7836:7857  disableWhiteList = op */\n      0x0100\n      exp\n      dup2\n      sload\n      dup2\n      0xff\n      mul\n      not\n      and\n      swap1\n      dup4\n      iszero\n      iszero\n      mul\n      or\n      swap1\n      sstore\n      pop\n        /* \"ex/BPresell.sol\":7770:7865  function setDisableWhiteList(bool op) public onlyOwner {... */\n      pop\n      jump\t// out\n        /* \"ex/BPresell.sol\":6556:6738  function exigencyWithdrawToken(uint256 amount) public onlyOwner {... */\n    tag_85:\n        /* \"ex/BPresell.sol\":1412:1424  _msgSender() */\n      tag_196\n        /* \"ex/BPresell.sol\":1412:1422  _msgSender */\n      tag_155\n        /* \"ex/BPresell.sol\":1412:1424  _msgSender() */\n      jump\t// in\n    tag_196:\n        /* \"ex/BPresell.sol\":1401:1424  owner() == _msgSender() */\n      0xffffffffffffffffffffffffffffffffffffffff\n      and\n        /* \"ex/BPresell.sol\":1401:1408  owner() */\n      tag_197\n        /* \"ex/BPresell.sol\":1401:1406  owner */\n      tag_104\n        /* \"ex/BPresell.sol\":1401:1408  owner() */\n      jump\t// in\n    tag_197:\n        /* \"ex/BPresell.sol\":1401:1424  owner() == _msgSender() */\n      0xffffffffffffffffffffffffffffffffffffffff\n      and\n      eq\n        /* \"ex/BPresell.sol\":1393:1461  require(owner() == _msgSender(), \"Ownable: caller is not the owner\") */\n      tag_198\n      jumpi\n      mload(0x40)\n      0x08c379a000000000000000000000000000000000000000000000000000000000\n      dup2\n      mstore\n      0x04\n      add\n      tag_199\n      swap1\n      tag_159\n      jump\t// in\n    tag_199:\n      mload(0x40)\n      dup1\n      swap2\n      sub\n      swap1\n      revert\n    tag_198:\n        /* \"ex/BPresell.sol\":6631:6640  bool sent */\n      0x00\n        /* \"ex/BPresell.sol\":6643:6652  sellToken */\n      immutable(\"0xe5dc5b472d77ffeb68b1bb241b2a30a23da4805b6fe423e8c4bcb52699f7038d\")\n        /* \"ex/BPresell.sol\":6643:6661  sellToken.transfer */\n      0xffffffffffffffffffffffffffffffffffffffff\n      and\n      0xa9059cbb\n        /* \"ex/BPresell.sol\":6662:6672  msg.sender */\n      caller\n        /* \"ex/BPresell.sol\":6674:6680  amount */\n      dup5\n        /* \"ex/BPresell.sol\":6643:6681  sellToken.transfer(msg.sender, amount) */\n      mload(0x40)\n      dup4\n      0xffffffff\n      and\n      0xe0\n      shl\n      dup2\n      mstore\n      0x04\n      add\n      tag_201\n      swap3\n      swap2\n      swap1\n      tag_202\n      jump\t// in\n    tag_201:\n      0x20\n      mload(0x40)\n      dup1\n      dup4\n      sub\n      dup2\n      0x00\n      dup8\n      gas\n      call\n      iszero\n      dup1\n      iszero\n      tag_204\n      jumpi\n      returndatasize\n      0x00\n      dup1\n      returndatacopy\n      revert(0x00, returndatasize)\n    tag_204:\n      pop\n      pop\n      pop\n      pop\n      mload(0x40)\n      returndatasize\n      not(0x1f)\n      0x1f\n      dup3\n      add\n      and\n      dup3\n      add\n      dup1\n      0x40\n      mstore\n      pop\n      dup2\n      add\n      swap1\n      tag_205\n      swap2\n      swap1\n      tag_206\n      jump\t// in\n    tag_205:\n        /* \"ex/BPresell.sol\":6631:6681  bool sent = sellToken.transfer(msg.sender, amount) */\n      swap1\n      pop\n        /* \"ex/BPresell.sol\":6700:6704  sent */\n      dup1\n        /* \"ex/BPresell.sol\":6692:6730  require(sent, \"Token transfer failed\") */\n      tag_207\n      jumpi\n      mload(0x40)\n      0x08c379a000000000000000000000000000000000000000000000000000000000\n      dup2\n      mstore\n      0x04\n      add\n      tag_208\n      swap1\n      tag_209\n      jump\t// in\n    tag_208:\n      mload(0x40)\n      dup1\n      swap2\n      sub\n      swap1\n      revert\n    tag_207:\n        /* \"ex/BPresell.sol\":6620:6738  {... */\n      pop\n        /* \"ex/BPresell.sol\":6556:6738  function exigencyWithdrawToken(uint256 amount) public onlyOwner {... */\n      pop\n      jump\t// out\n        /* \"ex/BPresell.sol\":4417:4505  function setPresellMax(uint32 amount) public onlyOwner{... */\n    tag_89:\n        /* \"ex/BPresell.sol\":1412:1424  _msgSender() */\n      tag_211\n        /* \"ex/BPresell.sol\":1412:1422  _msgSender */\n      tag_155\n        /* \"ex/BPresell.sol\":1412:1424  _msgSender() */\n      jump\t// in\n    tag_211:\n        /* \"ex/BPresell.sol\":1401:1424  owner() == _msgSender() */\n      0xffffffffffffffffffffffffffffffffffffffff\n      and\n        /* \"ex/BPresell.sol\":1401:1408  owner() */\n      tag_212\n        /* \"ex/BPresell.sol\":1401:1406  owner */\n      tag_104\n        /* \"ex/BPresell.sol\":1401:1408  owner() */\n      jump\t// in\n    tag_212:\n        /* \"ex/BPresell.sol\":1401:1424  owner() == _msgSender() */\n      0xffffffffffffffffffffffffffffffffffffffff\n      and\n      eq\n        /* \"ex/BPresell.sol\":1393:1461  require(owner() == _msgSender(), \"Ownable: caller is not the owner\") */\n      tag_213\n      jumpi\n      mload(0x40)\n      0x08c379a000000000000000000000000000000000000000000000000000000000\n      dup2\n      mstore\n      0x04\n      add\n      tag_214\n      swap1\n      tag_159\n      jump\t// in\n    tag_214:\n      mload(0x40)\n      dup1\n      swap2\n      sub\n      swap1\n      revert\n    tag_213:\n        /* \"ex/BPresell.sol\":4491:4497  amount */\n      dup1\n        /* \"ex/BPresell.sol\":4482:4488  preMax */\n      0x06\n      0x08\n        /* \"ex/BPresell.sol\":4482:4497  preMax = amount */\n      0x0100\n      exp\n      dup2\n      sload\n      dup2\n      0xffffffff\n      mul\n      not\n      and\n      swap1\n      dup4\n      0xffffffff\n      and\n      mul\n      or\n      swap1\n      sstore\n      pop\n        /* \"ex/BPresell.sol\":4417:4505  function setPresellMax(uint32 amount) public onlyOwner{... */\n      pop\n      jump\t// out\n        /* \"ex/BPresell.sol\":1832:1935  function renounceOwnership() public virtual onlyOwner {... */\n    tag_91:\n        /* \"ex/BPresell.sol\":1412:1424  _msgSender() */\n      tag_217\n        /* \"ex/BPresell.sol\":1412:1422  _msgSender */\n      tag_155\n        /* \"ex/BPresell.sol\":1412:1424  _msgSender() */\n      jump\t// in\n    tag_217:\n        /* \"ex/BPresell.sol\":1401:1424  owner() == _msgSender() */\n      0xffffffffffffffffffffffffffffffffffffffff\n      and\n        /* \"ex/BPresell.sol\":1401:1408  owner() */\n      tag_218\n        /* \"ex/BPresell.sol\":1401:1406  owner */\n      tag_104\n        /* \"ex/BPresell.sol\":1401:1408  owner() */\n      jump\t// in\n    tag_218:\n        /* \"ex/BPresell.sol\":1401:1424  owner() == _msgSender() */\n      0xffffffffffffffffffffffffffffffffffffffff\n      and\n      eq\n        /* \"ex/BPresell.sol\":1393:1461  require(owner() == _msgSender(), \"Ownable: caller is not the owner\") */\n      tag_219\n      jumpi\n      mload(0x40)\n      0x08c379a000000000000000000000000000000000000000000000000000000000\n      dup2\n      mstore\n      0x04\n      add\n      tag_220\n      swap1\n      tag_159\n      jump\t// in\n    tag_220:\n      mload(0x40)\n      dup1\n      swap2\n      sub\n      swap1\n      revert\n    tag_219:\n        /* \"ex/BPresell.sol\":1897:1927  _transferOwnership(address(0)) */\n      tag_222\n        /* \"ex/BPresell.sol\":1924:1925  0 */\n      0x00\n        /* \"ex/BPresell.sol\":1897:1915  _transferOwnership */\n      tag_223\n        /* \"ex/BPresell.sol\":1897:1927  _transferOwnership(address(0)) */\n      jump\t// in\n    tag_222:\n        /* \"ex/BPresell.sol\":1832:1935  function renounceOwnership() public virtual onlyOwner {... */\n      jump\t// out\n        /* \"ex/BPresell.sol\":4515:4623  function getPreSellCoinAmount() public view returns (uint256) {... */\n    tag_93:\n        /* \"ex/BPresell.sol\":4568:4575  uint256 */\n      0x00\n        /* \"ex/BPresell.sol\":4595:4615  preSellCoinPreAmount */\n      sload(0x05)\n        /* \"ex/BPresell.sol\":4588:4615  return preSellCoinPreAmount */\n      swap1\n      pop\n        /* \"ex/BPresell.sol\":4515:4623  function getPreSellCoinAmount() public view returns (uint256) {... */\n      swap1\n      jump\t// out\n        /* \"ex/BPresell.sol\":4631:4762  function getUserPreSellCoinAmount(address user) public view returns (uint256) {... */\n    tag_98:\n        /* \"ex/BPresell.sol\":4700:4707  uint256 */\n      0x00\n        /* \"ex/BPresell.sol\":4727:4748  userPresellBalanceMap */\n      0x07\n        /* \"ex/BPresell.sol\":4727:4754  userPresellBalanceMap[user] */\n      0x00\n        /* \"ex/BPresell.sol\":4749:4753  user */\n      dup4\n        /* \"ex/BPresell.sol\":4727:4754  userPresellBalanceMap[user] */\n      0xffffffffffffffffffffffffffffffffffffffff\n      and\n      0xffffffffffffffffffffffffffffffffffffffff\n      and\n      dup2\n      mstore\n      0x20\n      add\n      swap1\n      dup2\n      mstore\n      0x20\n      add\n      0x00\n      keccak256\n      sload\n        /* \"ex/BPresell.sol\":4720:4754  return userPresellBalanceMap[user] */\n      swap1\n      pop\n        /* \"ex/BPresell.sol\":4631:4762  function getUserPreSellCoinAmount(address user) public view returns (uint256) {... */\n      swap2\n      swap1\n      pop\n      jump\t// out\n        /* \"ex/BPresell.sol\":2810:2885  address public usdtMintAddress = 0x55d398326f99059fF775485246999027B3197955 */\n    tag_101:\n      0x01\n      0x00\n      swap1\n      sload\n      swap1\n      0x0100\n      exp\n      swap1\n      div\n      0xffffffffffffffffffffffffffffffffffffffff\n      and\n      dup2\n      jump\t// out\n        /* \"ex/BPresell.sol\":1181:1268  function owner() public view virtual returns (address) {... */\n    tag_104:\n        /* \"ex/BPresell.sol\":1227:1234  address */\n      0x00\n        /* \"ex/BPresell.sol\":1254:1260  _owner */\n      dup1\n      0x00\n      swap1\n      sload\n      swap1\n      0x0100\n      exp\n      swap1\n      div\n      0xffffffffffffffffffffffffffffffffffffffff\n      and\n        /* \"ex/BPresell.sol\":1247:1260  return _owner */\n      swap1\n      pop\n        /* \"ex/BPresell.sol\":1181:1268  function owner() public view virtual returns (address) {... */\n      swap1\n      jump\t// out\n        /* \"ex/BPresell.sol\":3547:3603  mapping(address => uint256) public userPresellBalanceMap */\n    tag_108:\n      mstore(0x20, 0x07)\n      dup1\n      0x00\n      mstore\n      keccak256(0x00, 0x40)\n      0x00\n      swap2\n      pop\n      swap1\n      pop\n      sload\n      dup2\n      jump\t// out\n        /* \"ex/BPresell.sol\":2982:3055  address public marketAddress = 0xd3c0b6Aa1538d639912789be705F18b5Fd89fcE6 */\n    tag_111:\n      0x03\n      0x00\n      swap1\n      sload\n      swap1\n      0x0100\n      exp\n      swap1\n      div\n      0xffffffffffffffffffffffffffffffffffffffff\n      and\n      dup2\n      jump\t// out\n        /* \"ex/BPresell.sol\":3507:3540  IERC20 public immutable sellToken */\n    tag_114:\n      immutable(\"0xe5dc5b472d77ffeb68b1bb241b2a30a23da4805b6fe423e8c4bcb52699f7038d\")\n      dup2\n      jump\t// out\n        /* \"ex/BPresell.sol\":3467:3500  IERC20 public immutable usdtToken */\n    tag_118:\n      immutable(\"0x555b0a599f654d63fa786356aaa3ed32af39ca11efd351bedfbf54d34ad77d1b\")\n      dup2\n      jump\t// out\n        /* \"ex/BPresell.sol\":7095:7331  function setTime(uint64 start, uint64 end) public onlyOwner {... */\n    tag_123:\n        /* \"ex/BPresell.sol\":1412:1424  _msgSender() */\n      tag_228\n        /* \"ex/BPresell.sol\":1412:1422  _msgSender */\n      tag_155\n        /* \"ex/BPresell.sol\":1412:1424  _msgSender() */\n      jump\t// in\n    tag_228:\n        /* \"ex/BPresell.sol\":1401:1424  owner() == _msgSender() */\n      0xffffffffffffffffffffffffffffffffffffffff\n      and\n        /* \"ex/BPresell.sol\":1401:1408  owner() */\n      tag_229\n        /* \"ex/BPresell.sol\":1401:1406  owner */\n      tag_104\n        /* \"ex/BPresell.sol\":1401:1408  owner() */\n      jump\t// in\n    tag_229:\n        /* \"ex/BPresell.sol\":1401:1424  owner() == _msgSender() */\n      0xffffffffffffffffffffffffffffffffffffffff\n      and\n      eq\n        /* \"ex/BPresell.sol\":1393:1461  require(owner() == _msgSender(), \"Ownable: caller is not the owner\") */\n      tag_230\n      jumpi\n      mload(0x40)\n      0x08c379a000000000000000000000000000000000000000000000000000000000\n      dup2\n      mstore\n      0x04\n      add\n      tag_231\n      swap1\n      tag_159\n      jump\t// in\n    tag_231:\n      mload(0x40)\n      dup1\n      swap2\n      sub\n      swap1\n      revert\n    tag_230:\n        /* \"ex/BPresell.sol\":7182:7197  block.timestamp */\n      timestamp\n        /* \"ex/BPresell.sol\":7174:7179  start */\n      dup3\n        /* \"ex/BPresell.sol\":7174:7197  start > block.timestamp */\n      0xffffffffffffffff\n      and\n      gt\n        /* \"ex/BPresell.sol\":7174:7212  start > block.timestamp && end > start */\n      dup1\n      iszero\n      tag_233\n      jumpi\n      pop\n        /* \"ex/BPresell.sol\":7207:7212  start */\n      dup2\n        /* \"ex/BPresell.sol\":7201:7212  end > start */\n      0xffffffffffffffff\n      and\n        /* \"ex/BPresell.sol\":7201:7204  end */\n      dup2\n        /* \"ex/BPresell.sol\":7201:7212  end > start */\n      0xffffffffffffffff\n      and\n      gt\n        /* \"ex/BPresell.sol\":7174:7212  start > block.timestamp && end > start */\n    tag_233:\n        /* \"ex/BPresell.sol\":7166:7275  require(start > block.timestamp && end > start, \"The start time has passed or end time must more than start\") */\n      tag_234\n      jumpi\n      mload(0x40)\n      0x08c379a000000000000000000000000000000000000000000000000000000000\n      dup2\n      mstore\n      0x04\n      add\n      tag_235\n      swap1\n      tag_236\n      jump\t// in\n    tag_235:\n      mload(0x40)\n      dup1\n      swap2\n      sub\n      swap1\n      revert\n    tag_234:\n        /* \"ex/BPresell.sol\":7296:7301  start */\n      dup2\n        /* \"ex/BPresell.sol\":7286:7293  startAt */\n      0x06\n      0x0c\n        /* \"ex/BPresell.sol\":7286:7301  startAt = start */\n      0x0100\n      exp\n      dup2\n      sload\n      dup2\n      0xffffffffffffffff\n      mul\n      not\n      and\n      swap1\n      dup4\n      0xffffffffffffffff\n      and\n      mul\n      or\n      swap1\n      sstore\n      pop\n        /* \"ex/BPresell.sol\":7320:7323  end */\n      dup1\n        /* \"ex/BPresell.sol\":7312:7317  endAt */\n      0x06\n      0x14\n        /* \"ex/BPresell.sol\":7312:7323  endAt = end */\n      0x0100\n      exp\n      dup2\n      sload\n      dup2\n      0xffffffffffffffff\n      mul\n      not\n      and\n      swap1\n      dup4\n      0xffffffffffffffff\n      and\n      mul\n      or\n      swap1\n      sstore\n      pop\n        /* \"ex/BPresell.sol\":7095:7331  function setTime(uint64 start, uint64 end) public onlyOwner {... */\n      pop\n      pop\n      jump\t// out\n        /* \"ex/BPresell.sol\":4770:4856  function getStartTime() public view returns (uint64) {... */\n    tag_125:\n        /* \"ex/BPresell.sol\":4815:4821  uint64 */\n      0x00\n        /* \"ex/BPresell.sol\":4841:4848  startAt */\n      0x06\n      0x0c\n      swap1\n      sload\n      swap1\n      0x0100\n      exp\n      swap1\n      div\n      0xffffffffffffffff\n      and\n        /* \"ex/BPresell.sol\":4834:4848  return startAt */\n      swap1\n      pop\n        /* \"ex/BPresell.sol\":4770:4856  function getStartTime() public view returns (uint64) {... */\n      swap1\n      jump\t// out\n        /* \"ex/BPresell.sol\":6082:6548  function withdrawPresellTokens() public {... */\n    tag_128:\n        /* \"ex/BPresell.sol\":6149:6164  block.timestamp */\n      timestamp\n        /* \"ex/BPresell.sol\":6141:6146  endAt */\n      0x06\n      0x14\n      swap1\n      sload\n      swap1\n      0x0100\n      exp\n      swap1\n      div\n      0xffffffffffffffff\n      and\n        /* \"ex/BPresell.sol\":6141:6164  endAt < block.timestamp */\n      0xffffffffffffffff\n      and\n      lt\n        /* \"ex/BPresell.sol\":6133:6184  require(endAt < block.timestamp, \"presell not end\") */\n      tag_239\n      jumpi\n      mload(0x40)\n      0x08c379a000000000000000000000000000000000000000000000000000000000\n      dup2\n      mstore\n      0x04\n      add\n      tag_240\n      swap1\n      tag_241\n      jump\t// in\n    tag_240:\n      mload(0x40)\n      dup1\n      swap2\n      sub\n      swap1\n      revert\n    tag_239:\n        /* \"ex/BPresell.sol\":6197:6211  uint256 amount */\n      0x00\n        /* \"ex/BPresell.sol\":6214:6235  userPresellBalanceMap */\n      0x07\n        /* \"ex/BPresell.sol\":6214:6247  userPresellBalanceMap[msg.sender] */\n      0x00\n        /* \"ex/BPresell.sol\":6236:6246  msg.sender */\n      caller\n        /* \"ex/BPresell.sol\":6214:6247  userPresellBalanceMap[msg.sender] */\n      0xffffffffffffffffffffffffffffffffffffffff\n      and\n      0xffffffffffffffffffffffffffffffffffffffff\n      and\n      dup2\n      mstore\n      0x20\n      add\n      swap1\n      dup2\n      mstore\n      0x20\n      add\n      0x00\n      keccak256\n      sload\n        /* \"ex/BPresell.sol\":6197:6247  uint256 amount = userPresellBalanceMap[msg.sender] */\n      swap1\n      pop\n        /* \"ex/BPresell.sol\":6277:6278  0 */\n      0x00\n        /* \"ex/BPresell.sol\":6268:6274  amount */\n      dup2\n        /* \"ex/BPresell.sol\":6268:6278  amount > 0 */\n      gt\n        /* \"ex/BPresell.sol\":6260:6300  require(amount > 0, 'user balance zero') */\n      tag_242\n      jumpi\n      mload(0x40)\n      0x08c379a000000000000000000000000000000000000000000000000000000000\n      dup2\n      mstore\n      0x04\n      add\n      tag_243\n      swap1\n      tag_244\n      jump\t// in\n    tag_243:\n      mload(0x40)\n      dup1\n      swap2\n      sub\n      swap1\n      revert\n    tag_242:\n        /* \"ex/BPresell.sol\":6313:6322  bool sent */\n      0x00\n        /* \"ex/BPresell.sol\":6325:6334  sellToken */\n      immutable(\"0xe5dc5b472d77ffeb68b1bb241b2a30a23da4805b6fe423e8c4bcb52699f7038d\")\n        /* \"ex/BPresell.sol\":6325:6343  sellToken.transfer */\n      0xffffffffffffffffffffffffffffffffffffffff\n      and\n      0xa9059cbb\n        /* \"ex/BPresell.sol\":6344:6354  msg.sender */\n      caller\n        /* \"ex/BPresell.sol\":6356:6362  amount */\n      dup5\n        /* \"ex/BPresell.sol\":6325:6363  sellToken.transfer(msg.sender, amount) */\n      mload(0x40)\n      dup4\n      0xffffffff\n      and\n      0xe0\n      shl\n      dup2\n      mstore\n      0x04\n      add\n      tag_245\n      swap3\n      swap2\n      swap1\n      tag_202\n      jump\t// in\n    tag_245:\n      0x20\n      mload(0x40)\n      dup1\n      dup4\n      sub\n      dup2\n      0x00\n      dup8\n      gas\n      call\n      iszero\n      dup1\n      iszero\n      tag_247\n      jumpi\n      returndatasize\n      0x00\n      dup1\n      returndatacopy\n      revert(0x00, returndatasize)\n    tag_247:\n      pop\n      pop\n      pop\n      pop\n      mload(0x40)\n      returndatasize\n      not(0x1f)\n      0x1f\n      dup3\n      add\n      and\n      dup3\n      add\n      dup1\n      0x40\n      mstore\n      pop\n      dup2\n      add\n      swap1\n      tag_248\n      swap2\n      swap1\n      tag_206\n      jump\t// in\n    tag_248:\n        /* \"ex/BPresell.sol\":6313:6363  bool sent = sellToken.transfer(msg.sender, amount) */\n      swap1\n      pop\n        /* \"ex/BPresell.sol\":6382:6386  sent */\n      dup1\n        /* \"ex/BPresell.sol\":6374:6412  require(sent, \"Token transfer failed\") */\n      tag_249\n      jumpi\n      mload(0x40)\n      0x08c379a000000000000000000000000000000000000000000000000000000000\n      dup2\n      mstore\n      0x04\n      add\n      tag_250\n      swap1\n      tag_209\n      jump\t// in\n    tag_250:\n      mload(0x40)\n      dup1\n      swap2\n      sub\n      swap1\n      revert\n    tag_249:\n        /* \"ex/BPresell.sol\":6461:6462  0 */\n      0x00\n        /* \"ex/BPresell.sol\":6425:6446  userPresellBalanceMap */\n      0x07\n        /* \"ex/BPresell.sol\":6425:6458  userPresellBalanceMap[msg.sender] */\n      0x00\n        /* \"ex/BPresell.sol\":6447:6457  msg.sender */\n      caller\n        /* \"ex/BPresell.sol\":6425:6458  userPresellBalanceMap[msg.sender] */\n      0xffffffffffffffffffffffffffffffffffffffff\n      and\n      0xffffffffffffffffffffffffffffffffffffffff\n      and\n      dup2\n      mstore\n      0x20\n      add\n      swap1\n      dup2\n      mstore\n      0x20\n      add\n      0x00\n      keccak256\n        /* \"ex/BPresell.sol\":6425:6462  userPresellBalanceMap[msg.sender] = 0 */\n      dup2\n      swap1\n      sstore\n      pop\n        /* \"ex/BPresell.sol\":6473:6488  withdrawCounter */\n      0x06\n      0x04\n        /* \"ex/BPresell.sol\":6473:6490  withdrawCounter++ */\n      dup2\n      dup2\n      swap1\n      sload\n      swap1\n      0x0100\n      exp\n      swap1\n      div\n      0xffffffff\n      and\n      dup1\n      swap3\n      swap2\n      swap1\n      tag_251\n      swap1\n      tag_252\n      jump\t// in\n    tag_251:\n      swap2\n      swap1\n      0x0100\n      exp\n      dup2\n      sload\n      dup2\n      0xffffffff\n      mul\n      not\n      and\n      swap1\n      dup4\n      0xffffffff\n      and\n      mul\n      or\n      swap1\n      sstore\n      pop\n      pop\n        /* \"ex/BPresell.sol\":6521:6531  msg.sender */\n      caller\n        /* \"ex/BPresell.sol\":6506:6540  WithdrawTokens(msg.sender, amount) */\n      0xffffffffffffffffffffffffffffffffffffffff\n      and\n      0x680f2e4f4032ebf1774e8cdbaddcb1b617a5a606411c8ca96257ada338d3833c\n        /* \"ex/BPresell.sol\":6533:6539  amount */\n      dup4\n        /* \"ex/BPresell.sol\":6506:6540  WithdrawTokens(msg.sender, amount) */\n      mload(0x40)\n      tag_253\n      swap2\n      swap1\n      tag_95\n      jump\t// in\n    tag_253:\n      mload(0x40)\n      dup1\n      swap2\n      sub\n      swap1\n      log2\n        /* \"ex/BPresell.sol\":6122:6548  {... */\n      pop\n      pop\n        /* \"ex/BPresell.sol\":6082:6548  function withdrawPresellTokens() public {... */\n      jump\t// out\n        /* \"ex/BPresell.sol\":5271:6074  function buyTokens() public {... */\n    tag_130:\n        /* \"ex/BPresell.sol\":5319:5335  disableWhiteList */\n      0x06\n      0x1c\n      swap1\n      sload\n      swap1\n      0x0100\n      exp\n      swap1\n      div\n      0xff\n      and\n        /* \"ex/BPresell.sol\":5318:5335  !disableWhiteList */\n      iszero\n        /* \"ex/BPresell.sol\":5318:5360  !disableWhiteList && whiteList[msg.sender] */\n      dup1\n      iszero\n      tag_255\n      jumpi\n      pop\n        /* \"ex/BPresell.sol\":5339:5348  whiteList */\n      0x09\n        /* \"ex/BPresell.sol\":5339:5360  whiteList[msg.sender] */\n      0x00\n        /* \"ex/BPresell.sol\":5349:5359  msg.sender */\n      caller\n        /* \"ex/BPresell.sol\":5339:5360  whiteList[msg.sender] */\n      0xffffffffffffffffffffffffffffffffffffffff\n      and\n      0xffffffffffffffffffffffffffffffffffffffff\n      and\n      dup2\n      mstore\n      0x20\n      add\n      swap1\n      dup2\n      mstore\n      0x20\n      add\n      0x00\n      keccak256\n      0x00\n      swap1\n      sload\n      swap1\n      0x0100\n      exp\n      swap1\n      div\n      0xff\n      and\n        /* \"ex/BPresell.sol\":5318:5360  !disableWhiteList && whiteList[msg.sender] */\n    tag_255:\n        /* \"ex/BPresell.sol\":5310:5381  require(!disableWhiteList && whiteList[msg.sender], \"not in whiteList\") */\n      tag_256\n      jumpi\n      mload(0x40)\n      0x08c379a000000000000000000000000000000000000000000000000000000000\n      dup2\n      mstore\n      0x04\n      add\n      tag_257\n      swap1\n      tag_258\n      jump\t// in\n    tag_257:\n      mload(0x40)\n      dup1\n      swap2\n      sub\n      swap1\n      revert\n    tag_256:\n        /* \"ex/BPresell.sol\":5412:5427  block.timestamp */\n      timestamp\n        /* \"ex/BPresell.sol\":5402:5409  startAt */\n      0x06\n      0x0c\n      swap1\n      sload\n      swap1\n      0x0100\n      exp\n      swap1\n      div\n      0xffffffffffffffff\n      and\n        /* \"ex/BPresell.sol\":5402:5427  startAt < block.timestamp */\n      0xffffffffffffffff\n      and\n      lt\n        /* \"ex/BPresell.sol\":5394:5441  require(startAt < block.timestamp, \"not start\") */\n      tag_259\n      jumpi\n      mload(0x40)\n      0x08c379a000000000000000000000000000000000000000000000000000000000\n      dup2\n      mstore\n      0x04\n      add\n      tag_260\n      swap1\n      tag_261\n      jump\t// in\n    tag_260:\n      mload(0x40)\n      dup1\n      swap2\n      sub\n      swap1\n      revert\n    tag_259:\n        /* \"ex/BPresell.sol\":5470:5485  block.timestamp */\n      timestamp\n        /* \"ex/BPresell.sol\":5462:5467  endAt */\n      0x06\n      0x14\n      swap1\n      sload\n      swap1\n      0x0100\n      exp\n      swap1\n      div\n      0xffffffffffffffff\n      and\n        /* \"ex/BPresell.sol\":5462:5485  endAt > block.timestamp */\n      0xffffffffffffffff\n      and\n      gt\n        /* \"ex/BPresell.sol\":5454:5497  require(endAt > block.timestamp, \"has end\") */\n      tag_262\n      jumpi\n      mload(0x40)\n      0x08c379a000000000000000000000000000000000000000000000000000000000\n      dup2\n      mstore\n      0x04\n      add\n      tag_263\n      swap1\n      tag_264\n      jump\t// in\n    tag_263:\n      mload(0x40)\n      dup1\n      swap2\n      sub\n      swap1\n      revert\n    tag_262:\n        /* \"ex/BPresell.sol\":5529:5535  preMax */\n      0x06\n      0x08\n      swap1\n      sload\n      swap1\n      0x0100\n      exp\n      swap1\n      div\n      0xffffffff\n      and\n        /* \"ex/BPresell.sol\":5518:5535  counter <= preMax */\n      0xffffffff\n      and\n        /* \"ex/BPresell.sol\":5518:5525  counter */\n      0x06\n      0x00\n      swap1\n      sload\n      swap1\n      0x0100\n      exp\n      swap1\n      div\n      0xffffffff\n      and\n        /* \"ex/BPresell.sol\":5518:5535  counter <= preMax */\n      0xffffffff\n      and\n      gt\n      iszero\n        /* \"ex/BPresell.sol\":5510:5563  require(counter <= preMax, \"Pre-orders are sold out\") */\n      tag_265\n      jumpi\n      mload(0x40)\n      0x08c379a000000000000000000000000000000000000000000000000000000000\n      dup2\n      mstore\n      0x04\n      add\n      tag_266\n      swap1\n      tag_267\n      jump\t// in\n    tag_266:\n      mload(0x40)\n      dup1\n      swap2\n      sub\n      swap1\n      revert\n    tag_265:\n        /* \"ex/BPresell.sol\":5585:5591  hasBuy */\n      0x08\n        /* \"ex/BPresell.sol\":5585:5603  hasBuy[msg.sender] */\n      0x00\n        /* \"ex/BPresell.sol\":5592:5602  msg.sender */\n      caller\n        /* \"ex/BPresell.sol\":5585:5603  hasBuy[msg.sender] */\n      0xffffffffffffffffffffffffffffffffffffffff\n      and\n      0xffffffffffffffffffffffffffffffffffffffff\n      and\n      dup2\n      mstore\n      0x20\n      add\n      swap1\n      dup2\n      mstore\n      0x20\n      add\n      0x00\n      keccak256\n      0x00\n      swap1\n      sload\n      swap1\n      0x0100\n      exp\n      swap1\n      div\n      0xff\n      and\n        /* \"ex/BPresell.sol\":5584:5603  !hasBuy[msg.sender] */\n      iszero\n        /* \"ex/BPresell.sol\":5576:5624  require(!hasBuy[msg.sender],\"already purchased\") */\n      tag_268\n      jumpi\n      mload(0x40)\n      0x08c379a000000000000000000000000000000000000000000000000000000000\n      dup2\n      mstore\n      0x04\n      add\n      tag_269\n      swap1\n      tag_270\n      jump\t// in\n    tag_269:\n      mload(0x40)\n      dup1\n      swap2\n      sub\n      swap1\n      revert\n    tag_268:\n        /* \"ex/BPresell.sol\":5695:5705  usdtAmount */\n      sload(0x04)\n        /* \"ex/BPresell.sol\":5645:5654  usdtToken */\n      immutable(\"0x555b0a599f654d63fa786356aaa3ed32af39ca11efd351bedfbf54d34ad77d1b\")\n        /* \"ex/BPresell.sol\":5645:5664  usdtToken.allowance */\n      0xffffffffffffffffffffffffffffffffffffffff\n      and\n      0xdd62ed3e\n        /* \"ex/BPresell.sol\":5665:5675  msg.sender */\n      caller\n        /* \"ex/BPresell.sol\":5685:5689  this */\n      address\n        /* \"ex/BPresell.sol\":5645:5691  usdtToken.allowance(msg.sender, address(this)) */\n      mload(0x40)\n      dup4\n      0xffffffff\n      and\n      0xe0\n      shl\n      dup2\n      mstore\n      0x04\n      add\n      tag_271\n      swap3\n      swap2\n      swap1\n      tag_272\n      jump\t// in\n    tag_271:\n      0x20\n      mload(0x40)\n      dup1\n      dup4\n      sub\n      dup2\n      dup7\n      gas\n      staticcall\n      iszero\n      dup1\n      iszero\n      tag_274\n      jumpi\n      returndatasize\n      0x00\n      dup1\n      returndatacopy\n      revert(0x00, returndatasize)\n    tag_274:\n      pop\n      pop\n      pop\n      pop\n      mload(0x40)\n      returndatasize\n      not(0x1f)\n      0x1f\n      dup3\n      add\n      and\n      dup3\n      add\n      dup1\n      0x40\n      mstore\n      pop\n      dup2\n      add\n      swap1\n      tag_275\n      swap2\n      swap1\n      tag_276\n      jump\t// in\n    tag_275:\n        /* \"ex/BPresell.sol\":5645:5705  usdtToken.allowance(msg.sender, address(this)) >= usdtAmount */\n      lt\n      iszero\n        /* \"ex/BPresell.sol\":5637:5737  require(usdtToken.allowance(msg.sender, address(this)) >= usdtAmount, \"usdtToken allowance too low\") */\n      tag_277\n      jumpi\n      mload(0x40)\n      0x08c379a000000000000000000000000000000000000000000000000000000000\n      dup2\n      mstore\n      0x04\n      add\n      tag_278\n      swap1\n      tag_279\n      jump\t// in\n    tag_278:\n      mload(0x40)\n      dup1\n      swap2\n      sub\n      swap1\n      revert\n    tag_277:\n        /* \"ex/BPresell.sol\":5750:5759  bool sent */\n      0x00\n        /* \"ex/BPresell.sol\":5762:5771  usdtToken */\n      immutable(\"0x555b0a599f654d63fa786356aaa3ed32af39ca11efd351bedfbf54d34ad77d1b\")\n        /* \"ex/BPresell.sol\":5762:5784  usdtToken.transferFrom */\n      0xffffffffffffffffffffffffffffffffffffffff\n      and\n      0x23b872dd\n        /* \"ex/BPresell.sol\":5785:5795  msg.sender */\n      caller\n        /* \"ex/BPresell.sol\":5797:5810  marketAddress */\n      0x03\n      0x00\n      swap1\n      sload\n      swap1\n      0x0100\n      exp\n      swap1\n      div\n      0xffffffffffffffffffffffffffffffffffffffff\n      and\n        /* \"ex/BPresell.sol\":5812:5822  usdtAmount */\n      sload(0x04)\n        /* \"ex/BPresell.sol\":5762:5823  usdtToken.transferFrom(msg.sender, marketAddress, usdtAmount) */\n      mload(0x40)\n      dup5\n      0xffffffff\n      and\n      0xe0\n      shl\n      dup2\n      mstore\n      0x04\n      add\n      tag_280\n      swap4\n      swap3\n      swap2\n      swap1\n      tag_281\n      jump\t// in\n    tag_280:\n      0x20\n      mload(0x40)\n      dup1\n      dup4\n      sub\n      dup2\n      0x00\n      dup8\n      gas\n      call\n      iszero\n      dup1\n      iszero\n      tag_283\n      jumpi\n      returndatasize\n      0x00\n      dup1\n      returndatacopy\n      revert(0x00, returndatasize)\n    tag_283:\n      pop\n      pop\n      pop\n      pop\n      mload(0x40)\n      returndatasize\n      not(0x1f)\n      0x1f\n      dup3\n      add\n      and\n      dup3\n      add\n      dup1\n      0x40\n      mstore\n      pop\n      dup2\n      add\n      swap1\n      tag_284\n      swap2\n      swap1\n      tag_206\n      jump\t// in\n    tag_284:\n        /* \"ex/BPresell.sol\":5750:5823  bool sent = usdtToken.transferFrom(msg.sender, marketAddress, usdtAmount) */\n      swap1\n      pop\n        /* \"ex/BPresell.sol\":5842:5846  sent */\n      dup1\n        /* \"ex/BPresell.sol\":5834:5872  require(sent, \"Token transfer failed\") */\n      tag_285\n      jumpi\n      mload(0x40)\n      0x08c379a000000000000000000000000000000000000000000000000000000000\n      dup2\n      mstore\n      0x04\n      add\n      tag_286\n      swap1\n      tag_209\n      jump\t// in\n    tag_286:\n      mload(0x40)\n      dup1\n      swap2\n      sub\n      swap1\n      revert\n    tag_285:\n        /* \"ex/BPresell.sol\":5919:5939  preSellCoinPreAmount */\n      sload(0x05)\n        /* \"ex/BPresell.sol\":5883:5904  userPresellBalanceMap */\n      0x07\n        /* \"ex/BPresell.sol\":5883:5916  userPresellBalanceMap[msg.sender] */\n      0x00\n        /* \"ex/BPresell.sol\":5905:5915  msg.sender */\n      caller\n        /* \"ex/BPresell.sol\":5883:5916  userPresellBalanceMap[msg.sender] */\n      0xffffffffffffffffffffffffffffffffffffffff\n      and\n      0xffffffffffffffffffffffffffffffffffffffff\n      and\n      dup2\n      mstore\n      0x20\n      add\n      swap1\n      dup2\n      mstore\n      0x20\n      add\n      0x00\n      keccak256\n        /* \"ex/BPresell.sol\":5883:5939  userPresellBalanceMap[msg.sender] = preSellCoinPreAmount */\n      dup2\n      swap1\n      sstore\n      pop\n        /* \"ex/BPresell.sol\":5971:5975  true */\n      0x01\n        /* \"ex/BPresell.sol\":5950:5956  hasBuy */\n      0x08\n        /* \"ex/BPresell.sol\":5950:5968  hasBuy[msg.sender] */\n      0x00\n        /* \"ex/BPresell.sol\":5957:5967  msg.sender */\n      caller\n        /* \"ex/BPresell.sol\":5950:5968  hasBuy[msg.sender] */\n      0xffffffffffffffffffffffffffffffffffffffff\n      and\n      0xffffffffffffffffffffffffffffffffffffffff\n      and\n      dup2\n      mstore\n      0x20\n      add\n      swap1\n      dup2\n      mstore\n      0x20\n      add\n      0x00\n      keccak256\n      0x00\n        /* \"ex/BPresell.sol\":5950:5975  hasBuy[msg.sender] = true */\n      0x0100\n      exp\n      dup2\n      sload\n      dup2\n      0xff\n      mul\n      not\n      and\n      swap1\n      dup4\n      iszero\n      iszero\n      mul\n      or\n      swap1\n      sstore\n      pop\n        /* \"ex/BPresell.sol\":5986:5993  counter */\n      0x06\n      0x00\n        /* \"ex/BPresell.sol\":5986:5995  counter++ */\n      dup2\n      dup2\n      swap1\n      sload\n      swap1\n      0x0100\n      exp\n      swap1\n      div\n      0xffffffff\n      and\n      dup1\n      swap3\n      swap2\n      swap1\n      tag_287\n      swap1\n      tag_252\n      jump\t// in\n    tag_287:\n      swap2\n      swap1\n      0x0100\n      exp\n      dup2\n      sload\n      dup2\n      0xffffffff\n      mul\n      not\n      and\n      swap1\n      dup4\n      0xffffffff\n      and\n      mul\n      or\n      swap1\n      sstore\n      pop\n      pop\n        /* \"ex/BPresell.sol\":6021:6031  msg.sender */\n      caller\n        /* \"ex/BPresell.sol\":6011:6066  BuyTokens(msg.sender, usdtAmount, preSellCoinPreAmount) */\n      0xffffffffffffffffffffffffffffffffffffffff\n      and\n      0x0a37b72bb67eee30e09084cf386f8a17817c57f620c3ab95fb25d6a20356ec77\n        /* \"ex/BPresell.sol\":6033:6043  usdtAmount */\n      sload(0x04)\n        /* \"ex/BPresell.sol\":6045:6065  preSellCoinPreAmount */\n      sload(0x05)\n        /* \"ex/BPresell.sol\":6011:6066  BuyTokens(msg.sender, usdtAmount, preSellCoinPreAmount) */\n      mload(0x40)\n      tag_288\n      swap3\n      swap2\n      swap1\n      tag_289\n      jump\t// in\n    tag_288:\n      mload(0x40)\n      dup1\n      swap2\n      sub\n      swap1\n      log2\n        /* \"ex/BPresell.sol\":5299:6074  {... */\n      pop\n        /* \"ex/BPresell.sol\":5271:6074  function buyTokens() public {... */\n      jump\t// out\n        /* \"ex/BPresell.sol\":4323:4409  function getPresellMax() public view returns (uint32) {... */\n    tag_132:\n        /* \"ex/BPresell.sol\":4369:4375  uint32 */\n      0x00\n        /* \"ex/BPresell.sol\":4395:4401  preMax */\n      0x06\n      0x08\n      swap1\n      sload\n      swap1\n      0x0100\n      exp\n      swap1\n      div\n      0xffffffff\n      and\n        /* \"ex/BPresell.sol\":4388:4401  return preMax */\n      swap1\n      pop\n        /* \"ex/BPresell.sol\":4323:4409  function getPresellMax() public view returns (uint32) {... */\n      swap1\n      jump\t// out\n        /* \"ex/BPresell.sol\":4224:4315  function getUsdtAmount() public view returns (uint256) {... */\n    tag_136:\n        /* \"ex/BPresell.sol\":4270:4277  uint256 */\n      0x00\n        /* \"ex/BPresell.sol\":4297:4307  usdtAmount */\n      sload(0x04)\n        /* \"ex/BPresell.sol\":4290:4307  return usdtAmount */\n      swap1\n      pop\n        /* \"ex/BPresell.sol\":4224:4315  function getUsdtAmount() public view returns (uint256) {... */\n      swap1\n      jump\t// out\n        /* \"ex/BPresell.sol\":6746:6861  function emergencyWithdraw() external onlyOwner {... */\n    tag_139:\n        /* \"ex/BPresell.sol\":1412:1424  _msgSender() */\n      tag_293\n        /* \"ex/BPresell.sol\":1412:1422  _msgSender */\n      tag_155\n        /* \"ex/BPresell.sol\":1412:1424  _msgSender() */\n      jump\t// in\n    tag_293:\n        /* \"ex/BPresell.sol\":1401:1424  owner() == _msgSender() */\n      0xffffffffffffffffffffffffffffffffffffffff\n      and\n        /* \"ex/BPresell.sol\":1401:1408  owner() */\n      tag_294\n        /* \"ex/BPresell.sol\":1401:1406  owner */\n      tag_104\n        /* \"ex/BPresell.sol\":1401:1408  owner() */\n      jump\t// in\n    tag_294:\n        /* \"ex/BPresell.sol\":1401:1424  owner() == _msgSender() */\n      0xffffffffffffffffffffffffffffffffffffffff\n      and\n      eq\n        /* \"ex/BPresell.sol\":1393:1461  require(owner() == _msgSender(), \"Ownable: caller is not the owner\") */\n      tag_295\n      jumpi\n      mload(0x40)\n      0x08c379a000000000000000000000000000000000000000000000000000000000\n      dup2\n      mstore\n      0x04\n      add\n      tag_296\n      swap1\n      tag_159\n      jump\t// in\n    tag_296:\n      mload(0x40)\n      dup1\n      swap2\n      sub\n      swap1\n      revert\n    tag_295:\n        /* \"ex/BPresell.sol\":6813:6820  owner() */\n      tag_298\n        /* \"ex/BPresell.sol\":6813:6818  owner */\n      tag_104\n        /* \"ex/BPresell.sol\":6813:6820  owner() */\n      jump\t// in\n    tag_298:\n        /* \"ex/BPresell.sol\":6805:6830  payable(owner()).transfer */\n      0xffffffffffffffffffffffffffffffffffffffff\n      and\n        /* \"ex/BPresell.sol\":6805:6853  payable(owner()).transfer(address(this).balance) */\n      0x08fc\n        /* \"ex/BPresell.sol\":6831:6852  address(this).balance */\n      selfbalance\n        /* \"ex/BPresell.sol\":6805:6853  payable(owner()).transfer(address(this).balance) */\n      swap1\n      dup2\n      iszero\n      mul\n      swap1\n      mload(0x40)\n      0x00\n      mload(0x40)\n      dup1\n      dup4\n      sub\n      dup2\n      dup6\n      dup9\n      dup9\n      call\n      swap4\n      pop\n      pop\n      pop\n      pop\n      iszero\n      dup1\n      iszero\n      tag_300\n      jumpi\n      returndatasize\n      0x00\n      dup1\n      returndatacopy\n      revert(0x00, returndatasize)\n    tag_300:\n      pop\n        /* \"ex/BPresell.sol\":6746:6861  function emergencyWithdraw() external onlyOwner {... */\n      jump\t// out\n        /* \"ex/BPresell.sol\":3430:3458  bool public disableWhiteList */\n    tag_141:\n      0x06\n      0x1c\n      swap1\n      sload\n      swap1\n      0x0100\n      exp\n      swap1\n      div\n      0xff\n      and\n      dup2\n      jump\t// out\n        /* \"ex/BPresell.sol\":5064:5155  function getPreSellCounter() public view returns (uint64) {... */\n    tag_144:\n        /* \"ex/BPresell.sol\":5114:5120  uint64 */\n      0x00\n        /* \"ex/BPresell.sol\":5140:5147  counter */\n      0x06\n      0x00\n      swap1\n      sload\n      swap1\n      0x0100\n      exp\n      swap1\n      div\n      0xffffffff\n      and\n        /* \"ex/BPresell.sol\":5133:5147  return counter */\n      0xffffffff\n      and\n      swap1\n      pop\n        /* \"ex/BPresell.sol\":5064:5155  function getPreSellCounter() public view returns (uint64) {... */\n      swap1\n      jump\t// out\n        /* \"ex/BPresell.sol\":2090:2291  function transferOwnership(address newOwner) public virtual onlyOwner {... */\n    tag_148:\n        /* \"ex/BPresell.sol\":1412:1424  _msgSender() */\n      tag_303\n        /* \"ex/BPresell.sol\":1412:1422  _msgSender */\n      tag_155\n        /* \"ex/BPresell.sol\":1412:1424  _msgSender() */\n      jump\t// in\n    tag_303:\n        /* \"ex/BPresell.sol\":1401:1424  owner() == _msgSender() */\n      0xffffffffffffffffffffffffffffffffffffffff\n      and\n        /* \"ex/BPresell.sol\":1401:1408  owner() */\n      tag_304\n        /* \"ex/BPresell.sol\":1401:1406  owner */\n      tag_104\n        /* \"ex/BPresell.sol\":1401:1408  owner() */\n      jump\t// in\n    tag_304:\n        /* \"ex/BPresell.sol\":1401:1424  owner() == _msgSender() */\n      0xffffffffffffffffffffffffffffffffffffffff\n      and\n      eq\n        /* \"ex/BPresell.sol\":1393:1461  require(owner() == _msgSender(), \"Ownable: caller is not the owner\") */\n      tag_305\n      jumpi\n      mload(0x40)\n      0x08c379a000000000000000000000000000000000000000000000000000000000\n      dup2\n      mstore\n      0x04\n      add\n      tag_306\n      swap1\n      tag_159\n      jump\t// in\n    tag_306:\n      mload(0x40)\n      dup1\n      swap2\n      sub\n      swap1\n      revert\n    tag_305:\n        /* \"ex/BPresell.sol\":2199:2200  0 */\n      0x00\n        /* \"ex/BPresell.sol\":2179:2201  newOwner != address(0) */\n      0xffffffffffffffffffffffffffffffffffffffff\n      and\n        /* \"ex/BPresell.sol\":2179:2187  newOwner */\n      dup2\n        /* \"ex/BPresell.sol\":2179:2201  newOwner != address(0) */\n      0xffffffffffffffffffffffffffffffffffffffff\n      and\n      sub\n        /* \"ex/BPresell.sol\":2171:2244  require(newOwner != address(0), \"Ownable: new owner is the zero address\") */\n      tag_308\n      jumpi\n      mload(0x40)\n      0x08c379a000000000000000000000000000000000000000000000000000000000\n      dup2\n      mstore\n      0x04\n      add\n      tag_309\n      swap1\n      tag_310\n      jump\t// in\n    tag_309:\n      mload(0x40)\n      dup1\n      swap2\n      sub\n      swap1\n      revert\n    tag_308:\n        /* \"ex/BPresell.sol\":2255:2283  _transferOwnership(newOwner) */\n      tag_311\n        /* \"ex/BPresell.sol\":2274:2282  newOwner */\n      dup2\n        /* \"ex/BPresell.sol\":2255:2273  _transferOwnership */\n      tag_223\n        /* \"ex/BPresell.sol\":2255:2283  _transferOwnership(newOwner) */\n      jump\t// in\n    tag_311:\n        /* \"ex/BPresell.sol\":2090:2291  function transferOwnership(address newOwner) public virtual onlyOwner {... */\n      pop\n      jump\t// out\n        /* \"ex/BPresell.sol\":6869:6977  function setMarketAddress(address newAddress) public onlyOwner {... */\n    tag_151:\n        /* \"ex/BPresell.sol\":1412:1424  _msgSender() */\n      tag_313\n        /* \"ex/BPresell.sol\":1412:1422  _msgSender */\n      tag_155\n        /* \"ex/BPresell.sol\":1412:1424  _msgSender() */\n      jump\t// in\n    tag_313:\n        /* \"ex/BPresell.sol\":1401:1424  owner() == _msgSender() */\n      0xffffffffffffffffffffffffffffffffffffffff\n      and\n        /* \"ex/BPresell.sol\":1401:1408  owner() */\n      tag_314\n        /* \"ex/BPresell.sol\":1401:1406  owner */\n      tag_104\n        /* \"ex/BPresell.sol\":1401:1408  owner() */\n      jump\t// in\n    tag_314:\n        /* \"ex/BPresell.sol\":1401:1424  owner() == _msgSender() */\n      0xffffffffffffffffffffffffffffffffffffffff\n      and\n      eq\n        /* \"ex/BPresell.sol\":1393:1461  require(owner() == _msgSender(), \"Ownable: caller is not the owner\") */\n      tag_315\n      jumpi\n      mload(0x40)\n      0x08c379a000000000000000000000000000000000000000000000000000000000\n      dup2\n      mstore\n      0x04\n      add\n      tag_316\n      swap1\n      tag_159\n      jump\t// in\n    tag_316:\n      mload(0x40)\n      dup1\n      swap2\n      sub\n      swap1\n      revert\n    tag_315:\n        /* \"ex/BPresell.sol\":6959:6969  newAddress */\n      dup1\n        /* \"ex/BPresell.sol\":6943:6956  marketAddress */\n      0x03\n      0x00\n        /* \"ex/BPresell.sol\":6943:6969  marketAddress = newAddress */\n      0x0100\n      exp\n      dup2\n      sload\n      dup2\n      0xffffffffffffffffffffffffffffffffffffffff\n      mul\n      not\n      and\n      swap1\n      dup4\n      0xffffffffffffffffffffffffffffffffffffffff\n      and\n      mul\n      or\n      swap1\n      sstore\n      pop\n        /* \"ex/BPresell.sol\":6869:6977  function setMarketAddress(address newAddress) public onlyOwner {... */\n      pop\n      jump\t// out\n        /* \"ex/BPresell.sol\":555:653  function _msgSender() internal view virtual returns (address) {... */\n    tag_155:\n        /* \"ex/BPresell.sol\":608:615  address */\n      0x00\n        /* \"ex/BPresell.sol\":635:645  msg.sender */\n      caller\n        /* \"ex/BPresell.sol\":628:645  return msg.sender */\n      swap1\n      pop\n        /* \"ex/BPresell.sol\":555:653  function _msgSender() internal view virtual returns (address) {... */\n      swap1\n      jump\t// out\n        /* \"ex/BPresell.sol\":2451:2642  function _transferOwnership(address newOwner) internal virtual {... */\n    tag_223:\n        /* \"ex/BPresell.sol\":2525:2541  address oldOwner */\n      0x00\n        /* \"ex/BPresell.sol\":2544:2550  _owner */\n      dup1\n      0x00\n      swap1\n      sload\n      swap1\n      0x0100\n      exp\n      swap1\n      div\n      0xffffffffffffffffffffffffffffffffffffffff\n      and\n        /* \"ex/BPresell.sol\":2525:2550  address oldOwner = _owner */\n      swap1\n      pop\n        /* \"ex/BPresell.sol\":2570:2578  newOwner */\n      dup2\n        /* \"ex/BPresell.sol\":2561:2567  _owner */\n      0x00\n      dup1\n        /* \"ex/BPresell.sol\":2561:2578  _owner = newOwner */\n      0x0100\n      exp\n      dup2\n      sload\n      dup2\n      0xffffffffffffffffffffffffffffffffffffffff\n      mul\n      not\n      and\n      swap1\n      dup4\n      0xffffffffffffffffffffffffffffffffffffffff\n      and\n      mul\n      or\n      swap1\n      sstore\n      pop\n        /* \"ex/BPresell.sol\":2625:2633  newOwner */\n      dup2\n        /* \"ex/BPresell.sol\":2594:2634  OwnershipTransferred(oldOwner, newOwner) */\n      0xffffffffffffffffffffffffffffffffffffffff\n      and\n        /* \"ex/BPresell.sol\":2615:2623  oldOwner */\n      dup2\n        /* \"ex/BPresell.sol\":2594:2634  OwnershipTransferred(oldOwner, newOwner) */\n      0xffffffffffffffffffffffffffffffffffffffff\n      and\n      0x8be0079c531659141344cd1fd0a4f28419497f9722a3daafe3b4186f6b6457e0\n      mload(0x40)\n      mload(0x40)\n      dup1\n      swap2\n      sub\n      swap1\n      log3\n        /* \"ex/BPresell.sol\":2514:2642  {... */\n      pop\n        /* \"ex/BPresell.sol\":2451:2642  function _transferOwnership(address newOwner) internal virtual {... */\n      pop\n      jump\t// out\n        /* \"#utility.yul\":7:133   */\n    tag_320:\n        /* \"#utility.yul\":44:51   */\n      0x00\n        /* \"#utility.yul\":84:126   */\n      0xffffffffffffffffffffffffffffffffffffffff\n        /* \"#utility.yul\":77:82   */\n      dup3\n        /* \"#utility.yul\":73:127   */\n      and\n        /* \"#utility.yul\":62:127   */\n      swap1\n      pop\n        /* \"#utility.yul\":7:133   */\n      swap2\n      swap1\n      pop\n      jump\t// out\n        /* \"#utility.yul\":139:235   */\n    tag_321:\n        /* \"#utility.yul\":176:183   */\n      0x00\n        /* \"#utility.yul\":205:229   */\n      tag_394\n        /* \"#utility.yul\":223:228   */\n      dup3\n        /* \"#utility.yul\":205:229   */\n      tag_320\n      jump\t// in\n    tag_394:\n        /* \"#utility.yul\":194:229   */\n      swap1\n      pop\n        /* \"#utility.yul\":139:235   */\n      swap2\n      swap1\n      pop\n      jump\t// out\n        /* \"#utility.yul\":241:359   */\n    tag_322:\n        /* \"#utility.yul\":328:352   */\n      tag_396\n        /* \"#utility.yul\":346:351   */\n      dup2\n        /* \"#utility.yul\":328:352   */\n      tag_321\n      jump\t// in\n    tag_396:\n        /* \"#utility.yul\":323:326   */\n      dup3\n        /* \"#utility.yul\":316:353   */\n      mstore\n        /* \"#utility.yul\":241:359   */\n      pop\n      pop\n      jump\t// out\n        /* \"#utility.yul\":365:587   */\n    tag_45:\n        /* \"#utility.yul\":458:462   */\n      0x00\n        /* \"#utility.yul\":496:498   */\n      0x20\n        /* \"#utility.yul\":485:494   */\n      dup3\n        /* \"#utility.yul\":481:499   */\n      add\n        /* \"#utility.yul\":473:499   */\n      swap1\n      pop\n        /* \"#utility.yul\":509:580   */\n      tag_398\n        /* \"#utility.yul\":577:578   */\n      0x00\n        /* \"#utility.yul\":566:575   */\n      dup4\n        /* \"#utility.yul\":562:579   */\n      add\n        /* \"#utility.yul\":553:559   */\n      dup5\n        /* \"#utility.yul\":509:580   */\n      tag_322\n      jump\t// in\n    tag_398:\n        /* \"#utility.yul\":365:587   */\n      swap3\n      swap2\n      pop\n      pop\n      jump\t// out\n        /* \"#utility.yul\":593:694   */\n    tag_323:\n        /* \"#utility.yul\":629:636   */\n      0x00\n        /* \"#utility.yul\":669:687   */\n      0xffffffffffffffff\n        /* \"#utility.yul\":662:667   */\n      dup3\n        /* \"#utility.yul\":658:688   */\n      and\n        /* \"#utility.yul\":647:688   */\n      swap1\n      pop\n        /* \"#utility.yul\":593:694   */\n      swap2\n      swap1\n      pop\n      jump\t// out\n        /* \"#utility.yul\":700:815   */\n    tag_324:\n        /* \"#utility.yul\":785:808   */\n      tag_401\n        /* \"#utility.yul\":802:807   */\n      dup2\n        /* \"#utility.yul\":785:808   */\n      tag_323\n      jump\t// in\n    tag_401:\n        /* \"#utility.yul\":780:783   */\n      dup3\n        /* \"#utility.yul\":773:809   */\n      mstore\n        /* \"#utility.yul\":700:815   */\n      pop\n      pop\n      jump\t// out\n        /* \"#utility.yul\":821:1039   */\n    tag_49:\n        /* \"#utility.yul\":912:916   */\n      0x00\n        /* \"#utility.yul\":950:952   */\n      0x20\n        /* \"#utility.yul\":939:948   */\n      dup3\n        /* \"#utility.yul\":935:953   */\n      add\n        /* \"#utility.yul\":927:953   */\n      swap1\n      pop\n        /* \"#utility.yul\":963:1032   */\n      tag_403\n        /* \"#utility.yul\":1029:1030   */\n      0x00\n        /* \"#utility.yul\":1018:1027   */\n      dup4\n        /* \"#utility.yul\":1014:1031   */\n      add\n        /* \"#utility.yul\":1005:1011   */\n      dup5\n        /* \"#utility.yul\":963:1032   */\n      tag_324\n      jump\t// in\n    tag_403:\n        /* \"#utility.yul\":821:1039   */\n      swap3\n      swap2\n      pop\n      pop\n      jump\t// out\n        /* \"#utility.yul\":1045:1120   */\n    tag_325:\n        /* \"#utility.yul\":1078:1084   */\n      0x00\n        /* \"#utility.yul\":1111:1113   */\n      0x40\n        /* \"#utility.yul\":1105:1114   */\n      mload\n        /* \"#utility.yul\":1095:1114   */\n      swap1\n      pop\n        /* \"#utility.yul\":1045:1120   */\n      swap1\n      jump\t// out\n        /* \"#utility.yul\":1126:1243   */\n    tag_326:\n        /* \"#utility.yul\":1235:1236   */\n      0x00\n        /* \"#utility.yul\":1232:1233   */\n      dup1\n        /* \"#utility.yul\":1225:1237   */\n      revert\n        /* \"#utility.yul\":1249:1366   */\n    tag_327:\n        /* \"#utility.yul\":1358:1359   */\n      0x00\n        /* \"#utility.yul\":1355:1356   */\n      dup1\n        /* \"#utility.yul\":1348:1360   */\n      revert\n        /* \"#utility.yul\":1372:1489   */\n    tag_328:\n        /* \"#utility.yul\":1481:1482   */\n      0x00\n        /* \"#utility.yul\":1478:1479   */\n      dup1\n        /* \"#utility.yul\":1471:1483   */\n      revert\n        /* \"#utility.yul\":1495:1597   */\n    tag_329:\n        /* \"#utility.yul\":1536:1542   */\n      0x00\n        /* \"#utility.yul\":1587:1589   */\n      0x1f\n        /* \"#utility.yul\":1583:1590   */\n      not\n        /* \"#utility.yul\":1578:1580   */\n      0x1f\n        /* \"#utility.yul\":1571:1576   */\n      dup4\n        /* \"#utility.yul\":1567:1581   */\n      add\n        /* \"#utility.yul\":1563:1591   */\n      and\n        /* \"#utility.yul\":1553:1591   */\n      swap1\n      pop\n        /* \"#utility.yul\":1495:1597   */\n      swap2\n      swap1\n      pop\n      jump\t// out\n        /* \"#utility.yul\":1603:1783   */\n    tag_330:\n        /* \"#utility.yul\":1651:1728   */\n      0x4e487b7100000000000000000000000000000000000000000000000000000000\n        /* \"#utility.yul\":1648:1649   */\n      0x00\n        /* \"#utility.yul\":1641:1729   */\n      mstore\n        /* \"#utility.yul\":1748:1752   */\n      0x41\n        /* \"#utility.yul\":1745:1746   */\n      0x04\n        /* \"#utility.yul\":1738:1753   */\n      mstore\n        /* \"#utility.yul\":1772:1776   */\n      0x24\n        /* \"#utility.yul\":1769:1770   */\n      0x00\n        /* \"#utility.yul\":1762:1777   */\n      revert\n        /* \"#utility.yul\":1789:2070   */\n    tag_331:\n        /* \"#utility.yul\":1872:1899   */\n      tag_411\n        /* \"#utility.yul\":1894:1898   */\n      dup3\n        /* \"#utility.yul\":1872:1899   */\n      tag_329\n      jump\t// in\n    tag_411:\n        /* \"#utility.yul\":1864:1870   */\n      dup2\n        /* \"#utility.yul\":1860:1900   */\n      add\n        /* \"#utility.yul\":2002:2008   */\n      dup2\n        /* \"#utility.yul\":1990:2000   */\n      dup2\n        /* \"#utility.yul\":1987:2009   */\n      lt\n        /* \"#utility.yul\":1966:1984   */\n      0xffffffffffffffff\n        /* \"#utility.yul\":1954:1964   */\n      dup3\n        /* \"#utility.yul\":1951:1985   */\n      gt\n        /* \"#utility.yul\":1948:2010   */\n      or\n        /* \"#utility.yul\":1945:2033   */\n      iszero\n      tag_412\n      jumpi\n        /* \"#utility.yul\":2013:2031   */\n      tag_413\n      tag_330\n      jump\t// in\n    tag_413:\n        /* \"#utility.yul\":1945:2033   */\n    tag_412:\n        /* \"#utility.yul\":2053:2063   */\n      dup1\n        /* \"#utility.yul\":2049:2051   */\n      0x40\n        /* \"#utility.yul\":2042:2064   */\n      mstore\n        /* \"#utility.yul\":1832:2070   */\n      pop\n        /* \"#utility.yul\":1789:2070   */\n      pop\n      pop\n      jump\t// out\n        /* \"#utility.yul\":2076:2205   */\n    tag_332:\n        /* \"#utility.yul\":2110:2116   */\n      0x00\n        /* \"#utility.yul\":2137:2157   */\n      tag_415\n      tag_325\n      jump\t// in\n    tag_415:\n        /* \"#utility.yul\":2127:2157   */\n      swap1\n      pop\n        /* \"#utility.yul\":2166:2199   */\n      tag_416\n        /* \"#utility.yul\":2194:2198   */\n      dup3\n        /* \"#utility.yul\":2186:2192   */\n      dup3\n        /* \"#utility.yul\":2166:2199   */\n      tag_331\n      jump\t// in\n    tag_416:\n        /* \"#utility.yul\":2076:2205   */\n      swap2\n      swap1\n      pop\n      jump\t// out\n        /* \"#utility.yul\":2211:2522   */\n    tag_333:\n        /* \"#utility.yul\":2288:2292   */\n      0x00\n        /* \"#utility.yul\":2378:2396   */\n      0xffffffffffffffff\n        /* \"#utility.yul\":2370:2376   */\n      dup3\n        /* \"#utility.yul\":2367:2397   */\n      gt\n        /* \"#utility.yul\":2364:2420   */\n      iszero\n      tag_418\n      jumpi\n        /* \"#utility.yul\":2400:2418   */\n      tag_419\n      tag_330\n      jump\t// in\n    tag_419:\n        /* \"#utility.yul\":2364:2420   */\n    tag_418:\n        /* \"#utility.yul\":2450:2454   */\n      0x20\n        /* \"#utility.yul\":2442:2448   */\n      dup3\n        /* \"#utility.yul\":2438:2455   */\n      mul\n        /* \"#utility.yul\":2430:2455   */\n      swap1\n      pop\n        /* \"#utility.yul\":2510:2514   */\n      0x20\n        /* \"#utility.yul\":2504:2508   */\n      dup2\n        /* \"#utility.yul\":2500:2515   */\n      add\n        /* \"#utility.yul\":2492:2515   */\n      swap1\n      pop\n        /* \"#utility.yul\":2211:2522   */\n      swap2\n      swap1\n      pop\n      jump\t// out\n        /* \"#utility.yul\":2528:2645   */\n    tag_334:\n        /* \"#utility.yul\":2637:2638   */\n      0x00\n        /* \"#utility.yul\":2634:2635   */\n      dup1\n        /* \"#utility.yul\":2627:2639   */\n      revert\n        /* \"#utility.yul\":2651:2773   */\n    tag_335:\n        /* \"#utility.yul\":2724:2748   */\n      tag_422\n        /* \"#utility.yul\":2742:2747   */\n      dup2\n        /* \"#utility.yul\":2724:2748   */\n      tag_321\n      jump\t// in\n    tag_422:\n        /* \"#utility.yul\":2717:2722   */\n      dup2\n        /* \"#utility.yul\":2714:2749   */\n      eq\n        /* \"#utility.yul\":2704:2767   */\n      tag_423\n      jumpi\n        /* \"#utility.yul\":2763:2764   */\n      0x00\n        /* \"#utility.yul\":2760:2761   */\n      dup1\n        /* \"#utility.yul\":2753:2765   */\n      revert\n        /* \"#utility.yul\":2704:2767   */\n    tag_423:\n        /* \"#utility.yul\":2651:2773   */\n      pop\n      jump\t// out\n        /* \"#utility.yul\":2779:2918   */\n    tag_336:\n        /* \"#utility.yul\":2825:2830   */\n      0x00\n        /* \"#utility.yul\":2863:2869   */\n      dup2\n        /* \"#utility.yul\":2850:2870   */\n      calldataload\n        /* \"#utility.yul\":2841:2870   */\n      swap1\n      pop\n        /* \"#utility.yul\":2879:2912   */\n      tag_425\n        /* \"#utility.yul\":2906:2911   */\n      dup2\n        /* \"#utility.yul\":2879:2912   */\n      tag_335\n      jump\t// in\n    tag_425:\n        /* \"#utility.yul\":2779:2918   */\n      swap3\n      swap2\n      pop\n      pop\n      jump\t// out\n        /* \"#utility.yul\":2941:3651   */\n    tag_337:\n        /* \"#utility.yul\":3037:3042   */\n      0x00\n        /* \"#utility.yul\":3062:3143   */\n      tag_427\n        /* \"#utility.yul\":3078:3142   */\n      tag_428\n        /* \"#utility.yul\":3135:3141   */\n      dup5\n        /* \"#utility.yul\":3078:3142   */\n      tag_333\n      jump\t// in\n    tag_428:\n        /* \"#utility.yul\":3062:3143   */\n      tag_332\n      jump\t// in\n    tag_427:\n        /* \"#utility.yul\":3053:3143   */\n      swap1\n      pop\n        /* \"#utility.yul\":3163:3168   */\n      dup1\n        /* \"#utility.yul\":3192:3198   */\n      dup4\n        /* \"#utility.yul\":3185:3190   */\n      dup3\n        /* \"#utility.yul\":3178:3199   */\n      mstore\n        /* \"#utility.yul\":3226:3230   */\n      0x20\n        /* \"#utility.yul\":3219:3224   */\n      dup3\n        /* \"#utility.yul\":3215:3231   */\n      add\n        /* \"#utility.yul\":3208:3231   */\n      swap1\n      pop\n        /* \"#utility.yul\":3279:3283   */\n      0x20\n        /* \"#utility.yul\":3271:3277   */\n      dup5\n        /* \"#utility.yul\":3267:3284   */\n      mul\n        /* \"#utility.yul\":3259:3265   */\n      dup4\n        /* \"#utility.yul\":3255:3285   */\n      add\n        /* \"#utility.yul\":3308:3311   */\n      dup6\n        /* \"#utility.yul\":3300:3306   */\n      dup2\n        /* \"#utility.yul\":3297:3312   */\n      gt\n        /* \"#utility.yul\":3294:3416   */\n      iszero\n      tag_429\n      jumpi\n        /* \"#utility.yul\":3327:3406   */\n      tag_430\n      tag_334\n      jump\t// in\n    tag_430:\n        /* \"#utility.yul\":3294:3416   */\n    tag_429:\n        /* \"#utility.yul\":3442:3448   */\n      dup4\n        /* \"#utility.yul\":3425:3645   */\n    tag_431:\n        /* \"#utility.yul\":3459:3465   */\n      dup2\n        /* \"#utility.yul\":3454:3457   */\n      dup2\n        /* \"#utility.yul\":3451:3466   */\n      lt\n        /* \"#utility.yul\":3425:3645   */\n      iszero\n      tag_433\n      jumpi\n        /* \"#utility.yul\":3534:3537   */\n      dup1\n        /* \"#utility.yul\":3563:3600   */\n      tag_434\n        /* \"#utility.yul\":3596:3599   */\n      dup9\n        /* \"#utility.yul\":3584:3594   */\n      dup3\n        /* \"#utility.yul\":3563:3600   */\n      tag_336\n      jump\t// in\n    tag_434:\n        /* \"#utility.yul\":3558:3561   */\n      dup5\n        /* \"#utility.yul\":3551:3601   */\n      mstore\n        /* \"#utility.yul\":3630:3634   */\n      0x20\n        /* \"#utility.yul\":3625:3628   */\n      dup5\n        /* \"#utility.yul\":3621:3635   */\n      add\n        /* \"#utility.yul\":3614:3635   */\n      swap4\n      pop\n        /* \"#utility.yul\":3501:3645   */\n      pop\n        /* \"#utility.yul\":3485:3489   */\n      0x20\n        /* \"#utility.yul\":3480:3483   */\n      dup2\n        /* \"#utility.yul\":3476:3490   */\n      add\n        /* \"#utility.yul\":3469:3490   */\n      swap1\n      pop\n        /* \"#utility.yul\":3425:3645   */\n      jump(tag_431)\n    tag_433:\n        /* \"#utility.yul\":3429:3450   */\n      pop\n        /* \"#utility.yul\":3043:3651   */\n      pop\n      pop\n        /* \"#utility.yul\":2941:3651   */\n      swap4\n      swap3\n      pop\n      pop\n      pop\n      jump\t// out\n        /* \"#utility.yul\":3674:4044   */\n    tag_338:\n        /* \"#utility.yul\":3745:3750   */\n      0x00\n        /* \"#utility.yul\":3794:3797   */\n      dup3\n        /* \"#utility.yul\":3787:3791   */\n      0x1f\n        /* \"#utility.yul\":3779:3785   */\n      dup4\n        /* \"#utility.yul\":3775:3792   */\n      add\n        /* \"#utility.yul\":3771:3798   */\n      slt\n        /* \"#utility.yul\":3761:3883   */\n      tag_436\n      jumpi\n        /* \"#utility.yul\":3802:3881   */\n      tag_437\n      tag_328\n      jump\t// in\n    tag_437:\n        /* \"#utility.yul\":3761:3883   */\n    tag_436:\n        /* \"#utility.yul\":3919:3925   */\n      dup2\n        /* \"#utility.yul\":3906:3926   */\n      calldataload\n        /* \"#utility.yul\":3944:4038   */\n      tag_438\n        /* \"#utility.yul\":4034:4037   */\n      dup5\n        /* \"#utility.yul\":4026:4032   */\n      dup3\n        /* \"#utility.yul\":4019:4023   */\n      0x20\n        /* \"#utility.yul\":4011:4017   */\n      dup7\n        /* \"#utility.yul\":4007:4024   */\n      add\n        /* \"#utility.yul\":3944:4038   */\n      tag_337\n      jump\t// in\n    tag_438:\n        /* \"#utility.yul\":3935:4038   */\n      swap2\n      pop\n        /* \"#utility.yul\":3751:4044   */\n      pop\n        /* \"#utility.yul\":3674:4044   */\n      swap3\n      swap2\n      pop\n      pop\n      jump\t// out\n        /* \"#utility.yul\":4050:4358   */\n    tag_339:\n        /* \"#utility.yul\":4124:4128   */\n      0x00\n        /* \"#utility.yul\":4214:4232   */\n      0xffffffffffffffff\n        /* \"#utility.yul\":4206:4212   */\n      dup3\n        /* \"#utility.yul\":4203:4233   */\n      gt\n        /* \"#utility.yul\":4200:4256   */\n      iszero\n      tag_440\n      jumpi\n        /* \"#utility.yul\":4236:4254   */\n      tag_441\n      tag_330\n      jump\t// in\n    tag_441:\n        /* \"#utility.yul\":4200:4256   */\n    tag_440:\n        /* \"#utility.yul\":4286:4290   */\n      0x20\n        /* \"#utility.yul\":4278:4284   */\n      dup3\n        /* \"#utility.yul\":4274:4291   */\n      mul\n        /* \"#utility.yul\":4266:4291   */\n      swap1\n      pop\n        /* \"#utility.yul\":4346:4350   */\n      0x20\n        /* \"#utility.yul\":4340:4344   */\n      dup2\n        /* \"#utility.yul\":4336:4351   */\n      add\n        /* \"#utility.yul\":4328:4351   */\n      swap1\n      pop\n        /* \"#utility.yul\":4050:4358   */\n      swap2\n      swap1\n      pop\n      jump\t// out\n        /* \"#utility.yul\":4364:4454   */\n    tag_340:\n        /* \"#utility.yul\":4398:4405   */\n      0x00\n        /* \"#utility.yul\":4441:4446   */\n      dup2\n        /* \"#utility.yul\":4434:4447   */\n      iszero\n        /* \"#utility.yul\":4427:4448   */\n      iszero\n        /* \"#utility.yul\":4416:4448   */\n      swap1\n      pop\n        /* \"#utility.yul\":4364:4454   */\n      swap2\n      swap1\n      pop\n      jump\t// out\n        /* \"#utility.yul\":4460:4576   */\n    tag_341:\n        /* \"#utility.yul\":4530:4551   */\n      tag_444\n        /* \"#utility.yul\":4545:4550   */\n      dup2\n        /* \"#utility.yul\":4530:4551   */\n      tag_340\n      jump\t// in\n    tag_444:\n        /* \"#utility.yul\":4523:4528   */\n      dup2\n        /* \"#utility.yul\":4520:4552   */\n      eq\n        /* \"#utility.yul\":4510:4570   */\n      tag_445\n      jumpi\n        /* \"#utility.yul\":4566:4567   */\n      0x00\n        /* \"#utility.yul\":4563:4564   */\n      dup1\n        /* \"#utility.yul\":4556:4568   */\n      revert\n        /* \"#utility.yul\":4510:4570   */\n    tag_445:\n        /* \"#utility.yul\":4460:4576   */\n      pop\n      jump\t// out\n        /* \"#utility.yul\":4582:4715   */\n    tag_342:\n        /* \"#utility.yul\":4625:4630   */\n      0x00\n        /* \"#utility.yul\":4663:4669   */\n      dup2\n        /* \"#utility.yul\":4650:4670   */\n      calldataload\n        /* \"#utility.yul\":4641:4670   */\n      swap1\n      pop\n        /* \"#utility.yul\":4679:4709   */\n      tag_447\n        /* \"#utility.yul\":4703:4708   */\n      dup2\n        /* \"#utility.yul\":4679:4709   */\n      tag_341\n      jump\t// in\n    tag_447:\n        /* \"#utility.yul\":4582:4715   */\n      swap3\n      swap2\n      pop\n      pop\n      jump\t// out\n        /* \"#utility.yul\":4735:5436   */\n    tag_343:\n        /* \"#utility.yul\":4828:4833   */\n      0x00\n        /* \"#utility.yul\":4853:4931   */\n      tag_449\n        /* \"#utility.yul\":4869:4930   */\n      tag_450\n        /* \"#utility.yul\":4923:4929   */\n      dup5\n        /* \"#utility.yul\":4869:4930   */\n      tag_339\n      jump\t// in\n    tag_450:\n        /* \"#utility.yul\":4853:4931   */\n      tag_332\n      jump\t// in\n    tag_449:\n        /* \"#utility.yul\":4844:4931   */\n      swap1\n      pop\n        /* \"#utility.yul\":4951:4956   */\n      dup1\n        /* \"#utility.yul\":4980:4986   */\n      dup4\n        /* \"#utility.yul\":4973:4978   */\n      dup3\n        /* \"#utility.yul\":4966:4987   */\n      mstore\n        /* \"#utility.yul\":5014:5018   */\n      0x20\n        /* \"#utility.yul\":5007:5012   */\n      dup3\n        /* \"#utility.yul\":5003:5019   */\n      add\n        /* \"#utility.yul\":4996:5019   */\n      swap1\n      pop\n        /* \"#utility.yul\":5067:5071   */\n      0x20\n        /* \"#utility.yul\":5059:5065   */\n      dup5\n        /* \"#utility.yul\":5055:5072   */\n      mul\n        /* \"#utility.yul\":5047:5053   */\n      dup4\n        /* \"#utility.yul\":5043:5073   */\n      add\n        /* \"#utility.yul\":5096:5099   */\n      dup6\n        /* \"#utility.yul\":5088:5094   */\n      dup2\n        /* \"#utility.yul\":5085:5100   */\n      gt\n        /* \"#utility.yul\":5082:5204   */\n      iszero\n      tag_451\n      jumpi\n        /* \"#utility.yul\":5115:5194   */\n      tag_452\n      tag_334\n      jump\t// in\n    tag_452:\n        /* \"#utility.yul\":5082:5204   */\n    tag_451:\n        /* \"#utility.yul\":5230:5236   */\n      dup4\n        /* \"#utility.yul\":5213:5430   */\n    tag_453:\n        /* \"#utility.yul\":5247:5253   */\n      dup2\n        /* \"#utility.yul\":5242:5245   */\n      dup2\n        /* \"#utility.yul\":5239:5254   */\n      lt\n        /* \"#utility.yul\":5213:5430   */\n      iszero\n      tag_455\n      jumpi\n        /* \"#utility.yul\":5322:5325   */\n      dup1\n        /* \"#utility.yul\":5351:5385   */\n      tag_456\n        /* \"#utility.yul\":5381:5384   */\n      dup9\n        /* \"#utility.yul\":5369:5379   */\n      dup3\n        /* \"#utility.yul\":5351:5385   */\n      tag_342\n      jump\t// in\n    tag_456:\n        /* \"#utility.yul\":5346:5349   */\n      dup5\n        /* \"#utility.yul\":5339:5386   */\n      mstore\n        /* \"#utility.yul\":5415:5419   */\n      0x20\n        /* \"#utility.yul\":5410:5413   */\n      dup5\n        /* \"#utility.yul\":5406:5420   */\n      add\n        /* \"#utility.yul\":5399:5420   */\n      swap4\n      pop\n        /* \"#utility.yul\":5289:5430   */\n      pop\n        /* \"#utility.yul\":5273:5277   */\n      0x20\n        /* \"#utility.yul\":5268:5271   */\n      dup2\n        /* \"#utility.yul\":5264:5278   */\n      add\n        /* \"#utility.yul\":5257:5278   */\n      swap1\n      pop\n        /* \"#utility.yul\":5213:5430   */\n      jump(tag_453)\n    tag_455:\n        /* \"#utility.yul\":5217:5238   */\n      pop\n        /* \"#utility.yul\":4834:5436   */\n      pop\n      pop\n        /* \"#utility.yul\":4735:5436   */\n      swap4\n      swap3\n      pop\n      pop\n      pop\n      jump\t// out\n        /* \"#utility.yul\":5456:5820   */\n    tag_344:\n        /* \"#utility.yul\":5524:5529   */\n      0x00\n        /* \"#utility.yul\":5573:5576   */\n      dup3\n        /* \"#utility.yul\":5566:5570   */\n      0x1f\n        /* \"#utility.yul\":5558:5564   */\n      dup4\n        /* \"#utility.yul\":5554:5571   */\n      add\n        /* \"#utility.yul\":5550:5577   */\n      slt\n        /* \"#utility.yul\":5540:5662   */\n      tag_458\n      jumpi\n        /* \"#utility.yul\":5581:5660   */\n      tag_459\n      tag_328\n      jump\t// in\n    tag_459:\n        /* \"#utility.yul\":5540:5662   */\n    tag_458:\n        /* \"#utility.yul\":5698:5704   */\n      dup2\n        /* \"#utility.yul\":5685:5705   */\n      calldataload\n        /* \"#utility.yul\":5723:5814   */\n      tag_460\n        /* \"#utility.yul\":5810:5813   */\n      dup5\n        /* \"#utility.yul\":5802:5808   */\n      dup3\n        /* \"#utility.yul\":5795:5799   */\n      0x20\n        /* \"#utility.yul\":5787:5793   */\n      dup7\n        /* \"#utility.yul\":5783:5800   */\n      add\n        /* \"#utility.yul\":5723:5814   */\n      tag_343\n      jump\t// in\n    tag_460:\n        /* \"#utility.yul\":5714:5814   */\n      swap2\n      pop\n        /* \"#utility.yul\":5530:5820   */\n      pop\n        /* \"#utility.yul\":5456:5820   */\n      swap3\n      swap2\n      pop\n      pop\n      jump\t// out\n        /* \"#utility.yul\":5826:6714   */\n    tag_52:\n        /* \"#utility.yul\":5941:5947   */\n      0x00\n        /* \"#utility.yul\":5949:5955   */\n      dup1\n        /* \"#utility.yul\":5998:6000   */\n      0x40\n        /* \"#utility.yul\":5986:5995   */\n      dup4\n        /* \"#utility.yul\":5977:5984   */\n      dup6\n        /* \"#utility.yul\":5973:5996   */\n      sub\n        /* \"#utility.yul\":5969:6001   */\n      slt\n        /* \"#utility.yul\":5966:6085   */\n      iszero\n      tag_462\n      jumpi\n        /* \"#utility.yul\":6004:6083   */\n      tag_463\n      tag_326\n      jump\t// in\n    tag_463:\n        /* \"#utility.yul\":5966:6085   */\n    tag_462:\n        /* \"#utility.yul\":6152:6153   */\n      0x00\n        /* \"#utility.yul\":6141:6150   */\n      dup4\n        /* \"#utility.yul\":6137:6154   */\n      add\n        /* \"#utility.yul\":6124:6155   */\n      calldataload\n        /* \"#utility.yul\":6182:6200   */\n      0xffffffffffffffff\n        /* \"#utility.yul\":6174:6180   */\n      dup2\n        /* \"#utility.yul\":6171:6201   */\n      gt\n        /* \"#utility.yul\":6168:6285   */\n      iszero\n      tag_464\n      jumpi\n        /* \"#utility.yul\":6204:6283   */\n      tag_465\n      tag_327\n      jump\t// in\n    tag_465:\n        /* \"#utility.yul\":6168:6285   */\n    tag_464:\n        /* \"#utility.yul\":6309:6387   */\n      tag_466\n        /* \"#utility.yul\":6379:6386   */\n      dup6\n        /* \"#utility.yul\":6370:6376   */\n      dup3\n        /* \"#utility.yul\":6359:6368   */\n      dup7\n        /* \"#utility.yul\":6355:6377   */\n      add\n        /* \"#utility.yul\":6309:6387   */\n      tag_338\n      jump\t// in\n    tag_466:\n        /* \"#utility.yul\":6299:6387   */\n      swap3\n      pop\n        /* \"#utility.yul\":6095:6397   */\n      pop\n        /* \"#utility.yul\":6464:6466   */\n      0x20\n        /* \"#utility.yul\":6453:6462   */\n      dup4\n        /* \"#utility.yul\":6449:6467   */\n      add\n        /* \"#utility.yul\":6436:6468   */\n      calldataload\n        /* \"#utility.yul\":6495:6513   */\n      0xffffffffffffffff\n        /* \"#utility.yul\":6487:6493   */\n      dup2\n        /* \"#utility.yul\":6484:6514   */\n      gt\n        /* \"#utility.yul\":6481:6598   */\n      iszero\n      tag_467\n      jumpi\n        /* \"#utility.yul\":6517:6596   */\n      tag_468\n      tag_327\n      jump\t// in\n    tag_468:\n        /* \"#utility.yul\":6481:6598   */\n    tag_467:\n        /* \"#utility.yul\":6622:6697   */\n      tag_469\n        /* \"#utility.yul\":6689:6696   */\n      dup6\n        /* \"#utility.yul\":6680:6686   */\n      dup3\n        /* \"#utility.yul\":6669:6678   */\n      dup7\n        /* \"#utility.yul\":6665:6687   */\n      add\n        /* \"#utility.yul\":6622:6697   */\n      tag_344\n      jump\t// in\n    tag_469:\n        /* \"#utility.yul\":6612:6697   */\n      swap2\n      pop\n        /* \"#utility.yul\":6407:6707   */\n      pop\n        /* \"#utility.yul\":5826:6714   */\n      swap3\n      pop\n      swap3\n      swap1\n      pop\n      jump\t// out\n        /* \"#utility.yul\":6720:6797   */\n    tag_345:\n        /* \"#utility.yul\":6757:6764   */\n      0x00\n        /* \"#utility.yul\":6786:6791   */\n      dup2\n        /* \"#utility.yul\":6775:6791   */\n      swap1\n      pop\n        /* \"#utility.yul\":6720:6797   */\n      swap2\n      swap1\n      pop\n      jump\t// out\n        /* \"#utility.yul\":6803:6925   */\n    tag_346:\n        /* \"#utility.yul\":6876:6900   */\n      tag_472\n        /* \"#utility.yul\":6894:6899   */\n      dup2\n        /* \"#utility.yul\":6876:6900   */\n      tag_345\n      jump\t// in\n    tag_472:\n        /* \"#utility.yul\":6869:6874   */\n      dup2\n        /* \"#utility.yul\":6866:6901   */\n      eq\n        /* \"#utility.yul\":6856:6919   */\n      tag_473\n      jumpi\n        /* \"#utility.yul\":6915:6916   */\n      0x00\n        /* \"#utility.yul\":6912:6913   */\n      dup1\n        /* \"#utility.yul\":6905:6917   */\n      revert\n        /* \"#utility.yul\":6856:6919   */\n    tag_473:\n        /* \"#utility.yul\":6803:6925   */\n      pop\n      jump\t// out\n        /* \"#utility.yul\":6931:7070   */\n    tag_347:\n        /* \"#utility.yul\":6977:6982   */\n      0x00\n        /* \"#utility.yul\":7015:7021   */\n      dup2\n        /* \"#utility.yul\":7002:7022   */\n      calldataload\n        /* \"#utility.yul\":6993:7022   */\n      swap1\n      pop\n        /* \"#utility.yul\":7031:7064   */\n      tag_475\n        /* \"#utility.yul\":7058:7063   */\n      dup2\n        /* \"#utility.yul\":7031:7064   */\n      tag_346\n      jump\t// in\n    tag_475:\n        /* \"#utility.yul\":6931:7070   */\n      swap3\n      swap2\n      pop\n      pop\n      jump\t// out\n        /* \"#utility.yul\":7076:7405   */\n    tag_56:\n        /* \"#utility.yul\":7135:7141   */\n      0x00\n        /* \"#utility.yul\":7184:7186   */\n      0x20\n        /* \"#utility.yul\":7172:7181   */\n      dup3\n        /* \"#utility.yul\":7163:7170   */\n      dup5\n        /* \"#utility.yul\":7159:7182   */\n      sub\n        /* \"#utility.yul\":7155:7187   */\n      slt\n        /* \"#utility.yul\":7152:7271   */\n      iszero\n      tag_477\n      jumpi\n        /* \"#utility.yul\":7190:7269   */\n      tag_478\n      tag_326\n      jump\t// in\n    tag_478:\n        /* \"#utility.yul\":7152:7271   */\n    tag_477:\n        /* \"#utility.yul\":7310:7311   */\n      0x00\n        /* \"#utility.yul\":7335:7388   */\n      tag_479\n        /* \"#utility.yul\":7380:7387   */\n      dup5\n        /* \"#utility.yul\":7371:7377   */\n      dup3\n        /* \"#utility.yul\":7360:7369   */\n      dup6\n        /* \"#utility.yul\":7356:7378   */\n      add\n        /* \"#utility.yul\":7335:7388   */\n      tag_347\n      jump\t// in\n    tag_479:\n        /* \"#utility.yul\":7325:7388   */\n      swap2\n      pop\n        /* \"#utility.yul\":7281:7398   */\n      pop\n        /* \"#utility.yul\":7076:7405   */\n      swap3\n      swap2\n      pop\n      pop\n      jump\t// out\n        /* \"#utility.yul\":7411:7740   */\n    tag_60:\n        /* \"#utility.yul\":7470:7476   */\n      0x00\n        /* \"#utility.yul\":7519:7521   */\n      0x20\n        /* \"#utility.yul\":7507:7516   */\n      dup3\n        /* \"#utility.yul\":7498:7505   */\n      dup5\n        /* \"#utility.yul\":7494:7517   */\n      sub\n        /* \"#utility.yul\":7490:7522   */\n      slt\n        /* \"#utility.yul\":7487:7606   */\n      iszero\n      tag_481\n      jumpi\n        /* \"#utility.yul\":7525:7604   */\n      tag_482\n      tag_326\n      jump\t// in\n    tag_482:\n        /* \"#utility.yul\":7487:7606   */\n    tag_481:\n        /* \"#utility.yul\":7645:7646   */\n      0x00\n        /* \"#utility.yul\":7670:7723   */\n      tag_483\n        /* \"#utility.yul\":7715:7722   */\n      dup5\n        /* \"#utility.yul\":7706:7712   */\n      dup3\n        /* \"#utility.yul\":7695:7704   */\n      dup6\n        /* \"#utility.yul\":7691:7713   */\n      add\n        /* \"#utility.yul\":7670:7723   */\n      tag_336\n      jump\t// in\n    tag_483:\n        /* \"#utility.yul\":7660:7723   */\n      swap2\n      pop\n        /* \"#utility.yul\":7616:7733   */\n      pop\n        /* \"#utility.yul\":7411:7740   */\n      swap3\n      swap2\n      pop\n      pop\n      jump\t// out\n        /* \"#utility.yul\":7746:7855   */\n    tag_348:\n        /* \"#utility.yul\":7827:7848   */\n      tag_485\n        /* \"#utility.yul\":7842:7847   */\n      dup2\n        /* \"#utility.yul\":7827:7848   */\n      tag_340\n      jump\t// in\n    tag_485:\n        /* \"#utility.yul\":7822:7825   */\n      dup3\n        /* \"#utility.yul\":7815:7849   */\n      mstore\n        /* \"#utility.yul\":7746:7855   */\n      pop\n      pop\n      jump\t// out\n        /* \"#utility.yul\":7861:8071   */\n    tag_63:\n        /* \"#utility.yul\":7948:7952   */\n      0x00\n        /* \"#utility.yul\":7986:7988   */\n      0x20\n        /* \"#utility.yul\":7975:7984   */\n      dup3\n        /* \"#utility.yul\":7971:7989   */\n      add\n        /* \"#utility.yul\":7963:7989   */\n      swap1\n      pop\n        /* \"#utility.yul\":7999:8064   */\n      tag_487\n        /* \"#utility.yul\":8061:8062   */\n      0x00\n        /* \"#utility.yul\":8050:8059   */\n      dup4\n        /* \"#utility.yul\":8046:8063   */\n      add\n        /* \"#utility.yul\":8037:8043   */\n      dup5\n        /* \"#utility.yul\":7999:8064   */\n      tag_348\n      jump\t// in\n    tag_487:\n        /* \"#utility.yul\":7861:8071   */\n      swap3\n      swap2\n      pop\n      pop\n      jump\t// out\n        /* \"#utility.yul\":8077:8545   */\n    tag_70:\n        /* \"#utility.yul\":8142:8148   */\n      0x00\n        /* \"#utility.yul\":8150:8156   */\n      dup1\n        /* \"#utility.yul\":8199:8201   */\n      0x40\n        /* \"#utility.yul\":8187:8196   */\n      dup4\n        /* \"#utility.yul\":8178:8185   */\n      dup6\n        /* \"#utility.yul\":8174:8197   */\n      sub\n        /* \"#utility.yul\":8170:8202   */\n      slt\n        /* \"#utility.yul\":8167:8286   */\n      iszero\n      tag_489\n      jumpi\n        /* \"#utility.yul\":8205:8284   */\n      tag_490\n      tag_326\n      jump\t// in\n    tag_490:\n        /* \"#utility.yul\":8167:8286   */\n    tag_489:\n        /* \"#utility.yul\":8325:8326   */\n      0x00\n        /* \"#utility.yul\":8350:8403   */\n      tag_491\n        /* \"#utility.yul\":8395:8402   */\n      dup6\n        /* \"#utility.yul\":8386:8392   */\n      dup3\n        /* \"#utility.yul\":8375:8384   */\n      dup7\n        /* \"#utility.yul\":8371:8393   */\n      add\n        /* \"#utility.yul\":8350:8403   */\n      tag_336\n      jump\t// in\n    tag_491:\n        /* \"#utility.yul\":8340:8403   */\n      swap3\n      pop\n        /* \"#utility.yul\":8296:8413   */\n      pop\n        /* \"#utility.yul\":8452:8454   */\n      0x20\n        /* \"#utility.yul\":8478:8528   */\n      tag_492\n        /* \"#utility.yul\":8520:8527   */\n      dup6\n        /* \"#utility.yul\":8511:8517   */\n      dup3\n        /* \"#utility.yul\":8500:8509   */\n      dup7\n        /* \"#utility.yul\":8496:8518   */\n      add\n        /* \"#utility.yul\":8478:8528   */\n      tag_342\n      jump\t// in\n    tag_492:\n        /* \"#utility.yul\":8468:8528   */\n      swap2\n      pop\n        /* \"#utility.yul\":8423:8538   */\n      pop\n        /* \"#utility.yul\":8077:8545   */\n      swap3\n      pop\n      swap3\n      swap1\n      pop\n      jump\t// out\n        /* \"#utility.yul\":8551:8874   */\n    tag_81:\n        /* \"#utility.yul\":8607:8613   */\n      0x00\n        /* \"#utility.yul\":8656:8658   */\n      0x20\n        /* \"#utility.yul\":8644:8653   */\n      dup3\n        /* \"#utility.yul\":8635:8642   */\n      dup5\n        /* \"#utility.yul\":8631:8654   */\n      sub\n        /* \"#utility.yul\":8627:8659   */\n      slt\n        /* \"#utility.yul\":8624:8743   */\n      iszero\n      tag_494\n      jumpi\n        /* \"#utility.yul\":8662:8741   */\n      tag_495\n      tag_326\n      jump\t// in\n    tag_495:\n        /* \"#utility.yul\":8624:8743   */\n    tag_494:\n        /* \"#utility.yul\":8782:8783   */\n      0x00\n        /* \"#utility.yul\":8807:8857   */\n      tag_496\n        /* \"#utility.yul\":8849:8856   */\n      dup5\n        /* \"#utility.yul\":8840:8846   */\n      dup3\n        /* \"#utility.yul\":8829:8838   */\n      dup6\n        /* \"#utility.yul\":8825:8847   */\n      add\n        /* \"#utility.yul\":8807:8857   */\n      tag_342\n      jump\t// in\n    tag_496:\n        /* \"#utility.yul\":8797:8857   */\n      swap2\n      pop\n        /* \"#utility.yul\":8753:8867   */\n      pop\n        /* \"#utility.yul\":8551:8874   */\n      swap3\n      swap2\n      pop\n      pop\n      jump\t// out\n        /* \"#utility.yul\":8880:8973   */\n    tag_349:\n        /* \"#utility.yul\":8916:8923   */\n      0x00\n        /* \"#utility.yul\":8956:8966   */\n      0xffffffff\n        /* \"#utility.yul\":8949:8954   */\n      dup3\n        /* \"#utility.yul\":8945:8967   */\n      and\n        /* \"#utility.yul\":8934:8967   */\n      swap1\n      pop\n        /* \"#utility.yul\":8880:8973   */\n      swap2\n      swap1\n      pop\n      jump\t// out\n        /* \"#utility.yul\":8979:9099   */\n    tag_350:\n        /* \"#utility.yul\":9051:9074   */\n      tag_499\n        /* \"#utility.yul\":9068:9073   */\n      dup2\n        /* \"#utility.yul\":9051:9074   */\n      tag_349\n      jump\t// in\n    tag_499:\n        /* \"#utility.yul\":9044:9049   */\n      dup2\n        /* \"#utility.yul\":9041:9075   */\n      eq\n        /* \"#utility.yul\":9031:9093   */\n      tag_500\n      jumpi\n        /* \"#utility.yul\":9089:9090   */\n      0x00\n        /* \"#utility.yul\":9086:9087   */\n      dup1\n        /* \"#utility.yul\":9079:9091   */\n      revert\n        /* \"#utility.yul\":9031:9093   */\n    tag_500:\n        /* \"#utility.yul\":8979:9099   */\n      pop\n      jump\t// out\n        /* \"#utility.yul\":9105:9242   */\n    tag_351:\n        /* \"#utility.yul\":9150:9155   */\n      0x00\n        /* \"#utility.yul\":9188:9194   */\n      dup2\n        /* \"#utility.yul\":9175:9195   */\n      calldataload\n        /* \"#utility.yul\":9166:9195   */\n      swap1\n      pop\n        /* \"#utility.yul\":9204:9236   */\n      tag_502\n        /* \"#utility.yul\":9230:9235   */\n      dup2\n        /* \"#utility.yul\":9204:9236   */\n      tag_350\n      jump\t// in\n    tag_502:\n        /* \"#utility.yul\":9105:9242   */\n      swap3\n      swap2\n      pop\n      pop\n      jump\t// out\n        /* \"#utility.yul\":9248:9575   */\n    tag_88:\n        /* \"#utility.yul\":9306:9312   */\n      0x00\n        /* \"#utility.yul\":9355:9357   */\n      0x20\n        /* \"#utility.yul\":9343:9352   */\n      dup3\n        /* \"#utility.yul\":9334:9341   */\n      dup5\n        /* \"#utility.yul\":9330:9353   */\n      sub\n        /* \"#utility.yul\":9326:9358   */\n      slt\n        /* \"#utility.yul\":9323:9442   */\n      iszero\n      tag_504\n      jumpi\n        /* \"#utility.yul\":9361:9440   */\n      tag_505\n      tag_326\n      jump\t// in\n    tag_505:\n        /* \"#utility.yul\":9323:9442   */\n    tag_504:\n        /* \"#utility.yul\":9481:9482   */\n      0x00\n        /* \"#utility.yul\":9506:9558   */\n      tag_506\n        /* \"#utility.yul\":9550:9557   */\n      dup5\n        /* \"#utility.yul\":9541:9547   */\n      dup3\n        /* \"#utility.yul\":9530:9539   */\n      dup6\n        /* \"#utility.yul\":9526:9548   */\n      add\n        /* \"#utility.yul\":9506:9558   */\n      tag_351\n      jump\t// in\n    tag_506:\n        /* \"#utility.yul\":9496:9558   */\n      swap2\n      pop\n        /* \"#utility.yul\":9452:9568   */\n      pop\n        /* \"#utility.yul\":9248:9575   */\n      swap3\n      swap2\n      pop\n      pop\n      jump\t// out\n        /* \"#utility.yul\":9581:9699   */\n    tag_352:\n        /* \"#utility.yul\":9668:9692   */\n      tag_508\n        /* \"#utility.yul\":9686:9691   */\n      dup2\n        /* \"#utility.yul\":9668:9692   */\n      tag_345\n      jump\t// in\n    tag_508:\n        /* \"#utility.yul\":9663:9666   */\n      dup3\n        /* \"#utility.yul\":9656:9693   */\n      mstore\n        /* \"#utility.yul\":9581:9699   */\n      pop\n      pop\n      jump\t// out\n        /* \"#utility.yul\":9705:9927   */\n    tag_95:\n        /* \"#utility.yul\":9798:9802   */\n      0x00\n        /* \"#utility.yul\":9836:9838   */\n      0x20\n        /* \"#utility.yul\":9825:9834   */\n      dup3\n        /* \"#utility.yul\":9821:9839   */\n      add\n        /* \"#utility.yul\":9813:9839   */\n      swap1\n      pop\n        /* \"#utility.yul\":9849:9920   */\n      tag_510\n        /* \"#utility.yul\":9917:9918   */\n      0x00\n        /* \"#utility.yul\":9906:9915   */\n      dup4\n        /* \"#utility.yul\":9902:9919   */\n      add\n        /* \"#utility.yul\":9893:9899   */\n      dup5\n        /* \"#utility.yul\":9849:9920   */\n      tag_352\n      jump\t// in\n    tag_510:\n        /* \"#utility.yul\":9705:9927   */\n      swap3\n      swap2\n      pop\n      pop\n      jump\t// out\n        /* \"#utility.yul\":9933:9993   */\n    tag_353:\n        /* \"#utility.yul\":9961:9964   */\n      0x00\n        /* \"#utility.yul\":9982:9987   */\n      dup2\n        /* \"#utility.yul\":9975:9987   */\n      swap1\n      pop\n        /* \"#utility.yul\":9933:9993   */\n      swap2\n      swap1\n      pop\n      jump\t// out\n        /* \"#utility.yul\":9999:10141   */\n    tag_354:\n        /* \"#utility.yul\":10049:10058   */\n      0x00\n        /* \"#utility.yul\":10082:10135   */\n      tag_513\n        /* \"#utility.yul\":10100:10134   */\n      tag_514\n        /* \"#utility.yul\":10109:10133   */\n      tag_515\n        /* \"#utility.yul\":10127:10132   */\n      dup5\n        /* \"#utility.yul\":10109:10133   */\n      tag_320\n      jump\t// in\n    tag_515:\n        /* \"#utility.yul\":10100:10134   */\n      tag_353\n      jump\t// in\n    tag_514:\n        /* \"#utility.yul\":10082:10135   */\n      tag_320\n      jump\t// in\n    tag_513:\n        /* \"#utility.yul\":10069:10135   */\n      swap1\n      pop\n        /* \"#utility.yul\":9999:10141   */\n      swap2\n      swap1\n      pop\n      jump\t// out\n        /* \"#utility.yul\":10147:10273   */\n    tag_355:\n        /* \"#utility.yul\":10197:10206   */\n      0x00\n        /* \"#utility.yul\":10230:10267   */\n      tag_517\n        /* \"#utility.yul\":10261:10266   */\n      dup3\n        /* \"#utility.yul\":10230:10267   */\n      tag_354\n      jump\t// in\n    tag_517:\n        /* \"#utility.yul\":10217:10267   */\n      swap1\n      pop\n        /* \"#utility.yul\":10147:10273   */\n      swap2\n      swap1\n      pop\n      jump\t// out\n        /* \"#utility.yul\":10279:10418   */\n    tag_356:\n        /* \"#utility.yul\":10342:10351   */\n      0x00\n        /* \"#utility.yul\":10375:10412   */\n      tag_519\n        /* \"#utility.yul\":10406:10411   */\n      dup3\n        /* \"#utility.yul\":10375:10412   */\n      tag_355\n      jump\t// in\n    tag_519:\n        /* \"#utility.yul\":10362:10412   */\n      swap1\n      pop\n        /* \"#utility.yul\":10279:10418   */\n      swap2\n      swap1\n      pop\n      jump\t// out\n        /* \"#utility.yul\":10424:10581   */\n    tag_357:\n        /* \"#utility.yul\":10524:10574   */\n      tag_521\n        /* \"#utility.yul\":10568:10573   */\n      dup2\n        /* \"#utility.yul\":10524:10574   */\n      tag_356\n      jump\t// in\n    tag_521:\n        /* \"#utility.yul\":10519:10522   */\n      dup3\n        /* \"#utility.yul\":10512:10575   */\n      mstore\n        /* \"#utility.yul\":10424:10581   */\n      pop\n      pop\n      jump\t// out\n        /* \"#utility.yul\":10587:10835   */\n    tag_116:\n        /* \"#utility.yul\":10693:10697   */\n      0x00\n        /* \"#utility.yul\":10731:10733   */\n      0x20\n        /* \"#utility.yul\":10720:10729   */\n      dup3\n        /* \"#utility.yul\":10716:10734   */\n      add\n        /* \"#utility.yul\":10708:10734   */\n      swap1\n      pop\n        /* \"#utility.yul\":10744:10828   */\n      tag_523\n        /* \"#utility.yul\":10825:10826   */\n      0x00\n        /* \"#utility.yul\":10814:10823   */\n      dup4\n        /* \"#utility.yul\":10810:10827   */\n      add\n        /* \"#utility.yul\":10801:10807   */\n      dup5\n        /* \"#utility.yul\":10744:10828   */\n      tag_357\n      jump\t// in\n    tag_523:\n        /* \"#utility.yul\":10587:10835   */\n      swap3\n      swap2\n      pop\n      pop\n      jump\t// out\n        /* \"#utility.yul\":10841:10961   */\n    tag_358:\n        /* \"#utility.yul\":10913:10936   */\n      tag_525\n        /* \"#utility.yul\":10930:10935   */\n      dup2\n        /* \"#utility.yul\":10913:10936   */\n      tag_323\n      jump\t// in\n    tag_525:\n        /* \"#utility.yul\":10906:10911   */\n      dup2\n        /* \"#utility.yul\":10903:10937   */\n      eq\n        /* \"#utility.yul\":10893:10955   */\n      tag_526\n      jumpi\n        /* \"#utility.yul\":10951:10952   */\n      0x00\n        /* \"#utility.yul\":10948:10949   */\n      dup1\n        /* \"#utility.yul\":10941:10953   */\n      revert\n        /* \"#utility.yul\":10893:10955   */\n    tag_526:\n        /* \"#utility.yul\":10841:10961   */\n      pop\n      jump\t// out\n        /* \"#utility.yul\":10967:11104   */\n    tag_359:\n        /* \"#utility.yul\":11012:11017   */\n      0x00\n        /* \"#utility.yul\":11050:11056   */\n      dup2\n        /* \"#utility.yul\":11037:11057   */\n      calldataload\n        /* \"#utility.yul\":11028:11057   */\n      swap1\n      pop\n        /* \"#utility.yul\":11066:11098   */\n      tag_528\n        /* \"#utility.yul\":11092:11097   */\n      dup2\n        /* \"#utility.yul\":11066:11098   */\n      tag_358\n      jump\t// in\n    tag_528:\n        /* \"#utility.yul\":10967:11104   */\n      swap3\n      swap2\n      pop\n      pop\n      jump\t// out\n        /* \"#utility.yul\":11110:11580   */\n    tag_122:\n        /* \"#utility.yul\":11176:11182   */\n      0x00\n        /* \"#utility.yul\":11184:11190   */\n      dup1\n        /* \"#utility.yul\":11233:11235   */\n      0x40\n        /* \"#utility.yul\":11221:11230   */\n      dup4\n        /* \"#utility.yul\":11212:11219   */\n      dup6\n        /* \"#utility.yul\":11208:11231   */\n      sub\n        /* \"#utility.yul\":11204:11236   */\n      slt\n        /* \"#utility.yul\":11201:11320   */\n      iszero\n      tag_530\n      jumpi\n        /* \"#utility.yul\":11239:11318   */\n      tag_531\n      tag_326\n      jump\t// in\n    tag_531:\n        /* \"#utility.yul\":11201:11320   */\n    tag_530:\n        /* \"#utility.yul\":11359:11360   */\n      0x00\n        /* \"#utility.yul\":11384:11436   */\n      tag_532\n        /* \"#utility.yul\":11428:11435   */\n      dup6\n        /* \"#utility.yul\":11419:11425   */\n      dup3\n        /* \"#utility.yul\":11408:11417   */\n      dup7\n        /* \"#utility.yul\":11404:11426   */\n      add\n        /* \"#utility.yul\":11384:11436   */\n      tag_359\n      jump\t// in\n    tag_532:\n        /* \"#utility.yul\":11374:11436   */\n      swap3\n      pop\n        /* \"#utility.yul\":11330:11446   */\n      pop\n        /* \"#utility.yul\":11485:11487   */\n      0x20\n        /* \"#utility.yul\":11511:11563   */\n      tag_533\n        /* \"#utility.yul\":11555:11562   */\n      dup6\n        /* \"#utility.yul\":11546:11552   */\n      dup3\n        /* \"#utility.yul\":11535:11544   */\n      dup7\n        /* \"#utility.yul\":11531:11553   */\n      add\n        /* \"#utility.yul\":11511:11563   */\n      tag_359\n      jump\t// in\n    tag_533:\n        /* \"#utility.yul\":11501:11563   */\n      swap2\n      pop\n        /* \"#utility.yul\":11456:11573   */\n      pop\n        /* \"#utility.yul\":11110:11580   */\n      swap3\n      pop\n      swap3\n      swap1\n      pop\n      jump\t// out\n        /* \"#utility.yul\":11586:11701   */\n    tag_360:\n        /* \"#utility.yul\":11671:11694   */\n      tag_535\n        /* \"#utility.yul\":11688:11693   */\n      dup2\n        /* \"#utility.yul\":11671:11694   */\n      tag_349\n      jump\t// in\n    tag_535:\n        /* \"#utility.yul\":11666:11669   */\n      dup3\n        /* \"#utility.yul\":11659:11695   */\n      mstore\n        /* \"#utility.yul\":11586:11701   */\n      pop\n      pop\n      jump\t// out\n        /* \"#utility.yul\":11707:11925   */\n    tag_134:\n        /* \"#utility.yul\":11798:11802   */\n      0x00\n        /* \"#utility.yul\":11836:11838   */\n      0x20\n        /* \"#utility.yul\":11825:11834   */\n      dup3\n        /* \"#utility.yul\":11821:11839   */\n      add\n        /* \"#utility.yul\":11813:11839   */\n      swap1\n      pop\n        /* \"#utility.yul\":11849:11918   */\n      tag_537\n        /* \"#utility.yul\":11915:11916   */\n      0x00\n        /* \"#utility.yul\":11904:11913   */\n      dup4\n        /* \"#utility.yul\":11900:11917   */\n      add\n        /* \"#utility.yul\":11891:11897   */\n      dup5\n        /* \"#utility.yul\":11849:11918   */\n      tag_360\n      jump\t// in\n    tag_537:\n        /* \"#utility.yul\":11707:11925   */\n      swap3\n      swap2\n      pop\n      pop\n      jump\t// out\n        /* \"#utility.yul\":11931:12100   */\n    tag_361:\n        /* \"#utility.yul\":12015:12026   */\n      0x00\n        /* \"#utility.yul\":12049:12055   */\n      dup3\n        /* \"#utility.yul\":12044:12047   */\n      dup3\n        /* \"#utility.yul\":12037:12056   */\n      mstore\n        /* \"#utility.yul\":12089:12093   */\n      0x20\n        /* \"#utility.yul\":12084:12087   */\n      dup3\n        /* \"#utility.yul\":12080:12094   */\n      add\n        /* \"#utility.yul\":12065:12094   */\n      swap1\n      pop\n        /* \"#utility.yul\":11931:12100   */\n      swap3\n      swap2\n      pop\n      pop\n      jump\t// out\n        /* \"#utility.yul\":12106:12288   */\n    tag_362:\n        /* \"#utility.yul\":12246:12280   */\n      0x4f776e61626c653a2063616c6c6572206973206e6f7420746865206f776e6572\n        /* \"#utility.yul\":12242:12243   */\n      0x00\n        /* \"#utility.yul\":12234:12240   */\n      dup3\n        /* \"#utility.yul\":12230:12244   */\n      add\n        /* \"#utility.yul\":12223:12281   */\n      mstore\n        /* \"#utility.yul\":12106:12288   */\n      pop\n      jump\t// out\n        /* \"#utility.yul\":12294:12660   */\n    tag_363:\n        /* \"#utility.yul\":12436:12439   */\n      0x00\n        /* \"#utility.yul\":12457:12524   */\n      tag_541\n        /* \"#utility.yul\":12521:12523   */\n      0x20\n        /* \"#utility.yul\":12516:12519   */\n      dup4\n        /* \"#utility.yul\":12457:12524   */\n      tag_361\n      jump\t// in\n    tag_541:\n        /* \"#utility.yul\":12450:12524   */\n      swap2\n      pop\n        /* \"#utility.yul\":12533:12626   */\n      tag_542\n        /* \"#utility.yul\":12622:12625   */\n      dup3\n        /* \"#utility.yul\":12533:12626   */\n      tag_362\n      jump\t// in\n    tag_542:\n        /* \"#utility.yul\":12651:12653   */\n      0x20\n        /* \"#utility.yul\":12646:12649   */\n      dup3\n        /* \"#utility.yul\":12642:12654   */\n      add\n        /* \"#utility.yul\":12635:12654   */\n      swap1\n      pop\n        /* \"#utility.yul\":12294:12660   */\n      swap2\n      swap1\n      pop\n      jump\t// out\n        /* \"#utility.yul\":12666:13085   */\n    tag_159:\n        /* \"#utility.yul\":12832:12836   */\n      0x00\n        /* \"#utility.yul\":12870:12872   */\n      0x20\n        /* \"#utility.yul\":12859:12868   */\n      dup3\n        /* \"#utility.yul\":12855:12873   */\n      add\n        /* \"#utility.yul\":12847:12873   */\n      swap1\n      pop\n        /* \"#utility.yul\":12919:12928   */\n      dup2\n        /* \"#utility.yul\":12913:12917   */\n      dup2\n        /* \"#utility.yul\":12909:12929   */\n      sub\n        /* \"#utility.yul\":12905:12906   */\n      0x00\n        /* \"#utility.yul\":12894:12903   */\n      dup4\n        /* \"#utility.yul\":12890:12907   */\n      add\n        /* \"#utility.yul\":12883:12930   */\n      mstore\n        /* \"#utility.yul\":12947:13078   */\n      tag_544\n        /* \"#utility.yul\":13073:13077   */\n      dup2\n        /* \"#utility.yul\":12947:13078   */\n      tag_363\n      jump\t// in\n    tag_544:\n        /* \"#utility.yul\":12939:13078   */\n      swap1\n      pop\n        /* \"#utility.yul\":12666:13085   */\n      swap2\n      swap1\n      pop\n      jump\t// out\n        /* \"#utility.yul\":13091:13259   */\n    tag_364:\n        /* \"#utility.yul\":13231:13251   */\n      0x6172726174206c656e677468206572726f720000000000000000000000000000\n        /* \"#utility.yul\":13227:13228   */\n      0x00\n        /* \"#utility.yul\":13219:13225   */\n      dup3\n        /* \"#utility.yul\":13215:13229   */\n      add\n        /* \"#utility.yul\":13208:13252   */\n      mstore\n        /* \"#utility.yul\":13091:13259   */\n      pop\n      jump\t// out\n        /* \"#utility.yul\":13265:13631   */\n    tag_365:\n        /* \"#utility.yul\":13407:13410   */\n      0x00\n        /* \"#utility.yul\":13428:13495   */\n      tag_547\n        /* \"#utility.yul\":13492:13494   */\n      0x12\n        /* \"#utility.yul\":13487:13490   */\n      dup4\n        /* \"#utility.yul\":13428:13495   */\n      tag_361\n      jump\t// in\n    tag_547:\n        /* \"#utility.yul\":13421:13495   */\n      swap2\n      pop\n        /* \"#utility.yul\":13504:13597   */\n      tag_548\n        /* \"#utility.yul\":13593:13596   */\n      dup3\n        /* \"#utility.yul\":13504:13597   */\n      tag_364\n      jump\t// in\n    tag_548:\n        /* \"#utility.yul\":13622:13624   */\n      0x20\n        /* \"#utility.yul\":13617:13620   */\n      dup3\n        /* \"#utility.yul\":13613:13625   */\n      add\n        /* \"#utility.yul\":13606:13625   */\n      swap1\n      pop\n        /* \"#utility.yul\":13265:13631   */\n      swap2\n      swap1\n      pop\n      jump\t// out\n        /* \"#utility.yul\":13637:14056   */\n    tag_163:\n        /* \"#utility.yul\":13803:13807   */\n      0x00\n        /* \"#utility.yul\":13841:13843   */\n      0x20\n        /* \"#utility.yul\":13830:13839   */\n      dup3\n        /* \"#utility.yul\":13826:13844   */\n      add\n        /* \"#utility.yul\":13818:13844   */\n      swap1\n      pop\n        /* \"#utility.yul\":13890:13899   */\n      dup2\n        /* \"#utility.yul\":13884:13888   */\n      dup2\n        /* \"#utility.yul\":13880:13900   */\n      sub\n        /* \"#utility.yul\":13876:13877   */\n      0x00\n        /* \"#utility.yul\":13865:13874   */\n      dup4\n        /* \"#utility.yul\":13861:13878   */\n      add\n        /* \"#utility.yul\":13854:13901   */\n      mstore\n        /* \"#utility.yul\":13918:14049   */\n      tag_550\n        /* \"#utility.yul\":14044:14048   */\n      dup2\n        /* \"#utility.yul\":13918:14049   */\n      tag_365\n      jump\t// in\n    tag_550:\n        /* \"#utility.yul\":13910:14049   */\n      swap1\n      pop\n        /* \"#utility.yul\":13637:14056   */\n      swap2\n      swap1\n      pop\n      jump\t// out\n        /* \"#utility.yul\":14062:14242   */\n    tag_170:\n        /* \"#utility.yul\":14110:14187   */\n      0x4e487b7100000000000000000000000000000000000000000000000000000000\n        /* \"#utility.yul\":14107:14108   */\n      0x00\n        /* \"#utility.yul\":14100:14188   */\n      mstore\n        /* \"#utility.yul\":14207:14211   */\n      0x32\n        /* \"#utility.yul\":14204:14205   */\n      0x04\n        /* \"#utility.yul\":14197:14212   */\n      mstore\n        /* \"#utility.yul\":14231:14235   */\n      0x24\n        /* \"#utility.yul\":14228:14229   */\n      0x00\n        /* \"#utility.yul\":14221:14236   */\n      revert\n        /* \"#utility.yul\":14248:14428   */\n    tag_366:\n        /* \"#utility.yul\":14296:14373   */\n      0x4e487b7100000000000000000000000000000000000000000000000000000000\n        /* \"#utility.yul\":14293:14294   */\n      0x00\n        /* \"#utility.yul\":14286:14374   */\n      mstore\n        /* \"#utility.yul\":14393:14397   */\n      0x11\n        /* \"#utility.yul\":14390:14391   */\n      0x04\n        /* \"#utility.yul\":14383:14398   */\n      mstore\n        /* \"#utility.yul\":14417:14421   */\n      0x24\n        /* \"#utility.yul\":14414:14415   */\n      0x00\n        /* \"#utility.yul\":14407:14422   */\n      revert\n        /* \"#utility.yul\":14434:14667   */\n    tag_174:\n        /* \"#utility.yul\":14473:14476   */\n      0x00\n        /* \"#utility.yul\":14496:14520   */\n      tag_554\n        /* \"#utility.yul\":14514:14519   */\n      dup3\n        /* \"#utility.yul\":14496:14520   */\n      tag_345\n      jump\t// in\n    tag_554:\n        /* \"#utility.yul\":14487:14520   */\n      swap2\n      pop\n        /* \"#utility.yul\":14542:14608   */\n      0xffffffffffffffffffffffffffffffffffffffffffffffffffffffffffffffff\n        /* \"#utility.yul\":14535:14540   */\n      dup3\n        /* \"#utility.yul\":14532:14609   */\n      sub\n        /* \"#utility.yul\":14529:14632   */\n      tag_555\n      jumpi\n        /* \"#utility.yul\":14612:14630   */\n      tag_556\n      tag_366\n      jump\t// in\n    tag_556:\n        /* \"#utility.yul\":14529:14632   */\n    tag_555:\n        /* \"#utility.yul\":14659:14660   */\n      0x01\n        /* \"#utility.yul\":14652:14657   */\n      dup3\n        /* \"#utility.yul\":14648:14661   */\n      add\n        /* \"#utility.yul\":14641:14661   */\n      swap1\n      pop\n        /* \"#utility.yul\":14434:14667   */\n      swap2\n      swap1\n      pop\n      jump\t// out\n        /* \"#utility.yul\":14673:15005   */\n    tag_202:\n        /* \"#utility.yul\":14794:14798   */\n      0x00\n        /* \"#utility.yul\":14832:14834   */\n      0x40\n        /* \"#utility.yul\":14821:14830   */\n      dup3\n        /* \"#utility.yul\":14817:14835   */\n      add\n        /* \"#utility.yul\":14809:14835   */\n      swap1\n      pop\n        /* \"#utility.yul\":14845:14916   */\n      tag_558\n        /* \"#utility.yul\":14913:14914   */\n      0x00\n        /* \"#utility.yul\":14902:14911   */\n      dup4\n        /* \"#utility.yul\":14898:14915   */\n      add\n        /* \"#utility.yul\":14889:14895   */\n      dup6\n        /* \"#utility.yul\":14845:14916   */\n      tag_322\n      jump\t// in\n    tag_558:\n        /* \"#utility.yul\":14926:14998   */\n      tag_559\n        /* \"#utility.yul\":14994:14996   */\n      0x20\n        /* \"#utility.yul\":14983:14992   */\n      dup4\n        /* \"#utility.yul\":14979:14997   */\n      add\n        /* \"#utility.yul\":14970:14976   */\n      dup5\n        /* \"#utility.yul\":14926:14998   */\n      tag_352\n      jump\t// in\n    tag_559:\n        /* \"#utility.yul\":14673:15005   */\n      swap4\n      swap3\n      pop\n      pop\n      pop\n      jump\t// out\n        /* \"#utility.yul\":15011:15148   */\n    tag_367:\n        /* \"#utility.yul\":15065:15070   */\n      0x00\n        /* \"#utility.yul\":15096:15102   */\n      dup2\n        /* \"#utility.yul\":15090:15103   */\n      mload\n        /* \"#utility.yul\":15081:15103   */\n      swap1\n      pop\n        /* \"#utility.yul\":15112:15142   */\n      tag_561\n        /* \"#utility.yul\":15136:15141   */\n      dup2\n        /* \"#utility.yul\":15112:15142   */\n      tag_341\n      jump\t// in\n    tag_561:\n        /* \"#utility.yul\":15011:15148   */\n      swap3\n      swap2\n      pop\n      pop\n      jump\t// out\n        /* \"#utility.yul\":15154:15499   */\n    tag_206:\n        /* \"#utility.yul\":15221:15227   */\n      0x00\n        /* \"#utility.yul\":15270:15272   */\n      0x20\n        /* \"#utility.yul\":15258:15267   */\n      dup3\n        /* \"#utility.yul\":15249:15256   */\n      dup5\n        /* \"#utility.yul\":15245:15268   */\n      sub\n        /* \"#utility.yul\":15241:15273   */\n      slt\n        /* \"#utility.yul\":15238:15357   */\n      iszero\n      tag_563\n      jumpi\n        /* \"#utility.yul\":15276:15355   */\n      tag_564\n      tag_326\n      jump\t// in\n    tag_564:\n        /* \"#utility.yul\":15238:15357   */\n    tag_563:\n        /* \"#utility.yul\":15396:15397   */\n      0x00\n        /* \"#utility.yul\":15421:15482   */\n      tag_565\n        /* \"#utility.yul\":15474:15481   */\n      dup5\n        /* \"#utility.yul\":15465:15471   */\n      dup3\n        /* \"#utility.yul\":15454:15463   */\n      dup6\n        /* \"#utility.yul\":15450:15472   */\n      add\n        /* \"#utility.yul\":15421:15482   */\n      tag_367\n      jump\t// in\n    tag_565:\n        /* \"#utility.yul\":15411:15482   */\n      swap2\n      pop\n        /* \"#utility.yul\":15367:15492   */\n      pop\n        /* \"#utility.yul\":15154:15499   */\n      swap3\n      swap2\n      pop\n      pop\n      jump\t// out\n        /* \"#utility.yul\":15505:15676   */\n    tag_368:\n        /* \"#utility.yul\":15645:15668   */\n      0x546f6b656e207472616e73666572206661696c65640000000000000000000000\n        /* \"#utility.yul\":15641:15642   */\n      0x00\n        /* \"#utility.yul\":15633:15639   */\n      dup3\n        /* \"#utility.yul\":15629:15643   */\n      add\n        /* \"#utility.yul\":15622:15669   */\n      mstore\n        /* \"#utility.yul\":15505:15676   */\n      pop\n      jump\t// out\n        /* \"#utility.yul\":15682:16048   */\n    tag_369:\n        /* \"#utility.yul\":15824:15827   */\n      0x00\n        /* \"#utility.yul\":15845:15912   */\n      tag_568\n        /* \"#utility.yul\":15909:15911   */\n      0x15\n        /* \"#utility.yul\":15904:15907   */\n      dup4\n        /* \"#utility.yul\":15845:15912   */\n      tag_361\n      jump\t// in\n    tag_568:\n        /* \"#utility.yul\":15838:15912   */\n      swap2\n      pop\n        /* \"#utility.yul\":15921:16014   */\n      tag_569\n        /* \"#utility.yul\":16010:16013   */\n      dup3\n        /* \"#utility.yul\":15921:16014   */\n      tag_368\n      jump\t// in\n    tag_569:\n        /* \"#utility.yul\":16039:16041   */\n      0x20\n        /* \"#utility.yul\":16034:16037   */\n      dup3\n        /* \"#utility.yul\":16030:16042   */\n      add\n        /* \"#utility.yul\":16023:16042   */\n      swap1\n      pop\n        /* \"#utility.yul\":15682:16048   */\n      swap2\n      swap1\n      pop\n      jump\t// out\n        /* \"#utility.yul\":16054:16473   */\n    tag_209:\n        /* \"#utility.yul\":16220:16224   */\n      0x00\n        /* \"#utility.yul\":16258:16260   */\n      0x20\n        /* \"#utility.yul\":16247:16256   */\n      dup3\n        /* \"#utility.yul\":16243:16261   */\n      add\n        /* \"#utility.yul\":16235:16261   */\n      swap1\n      pop\n        /* \"#utility.yul\":16307:16316   */\n      dup2\n        /* \"#utility.yul\":16301:16305   */\n      dup2\n        /* \"#utility.yul\":16297:16317   */\n      sub\n        /* \"#utility.yul\":16293:16294   */\n      0x00\n        /* \"#utility.yul\":16282:16291   */\n      dup4\n        /* \"#utility.yul\":16278:16295   */\n      add\n        /* \"#utility.yul\":16271:16318   */\n      mstore\n        /* \"#utility.yul\":16335:16466   */\n      tag_571\n        /* \"#utility.yul\":16461:16465   */\n      dup2\n        /* \"#utility.yul\":16335:16466   */\n      tag_369\n      jump\t// in\n    tag_571:\n        /* \"#utility.yul\":16327:16466   */\n      swap1\n      pop\n        /* \"#utility.yul\":16054:16473   */\n      swap2\n      swap1\n      pop\n      jump\t// out\n        /* \"#utility.yul\":16479:16724   */\n    tag_370:\n        /* \"#utility.yul\":16619:16653   */\n      0x5468652073746172742074696d652068617320706173736564206f7220656e64\n        /* \"#utility.yul\":16615:16616   */\n      0x00\n        /* \"#utility.yul\":16607:16613   */\n      dup3\n        /* \"#utility.yul\":16603:16617   */\n      add\n        /* \"#utility.yul\":16596:16654   */\n      mstore\n        /* \"#utility.yul\":16688:16716   */\n      0x2074696d65206d757374206d6f7265207468616e207374617274000000000000\n        /* \"#utility.yul\":16683:16685   */\n      0x20\n        /* \"#utility.yul\":16675:16681   */\n      dup3\n        /* \"#utility.yul\":16671:16686   */\n      add\n        /* \"#utility.yul\":16664:16717   */\n      mstore\n        /* \"#utility.yul\":16479:16724   */\n      pop\n      jump\t// out\n        /* \"#utility.yul\":16730:17096   */\n    tag_371:\n        /* \"#utility.yul\":16872:16875   */\n      0x00\n        /* \"#utility.yul\":16893:16960   */\n      tag_574\n        /* \"#utility.yul\":16957:16959   */\n      0x3a\n        /* \"#utility.yul\":16952:16955   */\n      dup4\n        /* \"#utility.yul\":16893:16960   */\n      tag_361\n      jump\t// in\n    tag_574:\n        /* \"#utility.yul\":16886:16960   */\n      swap2\n      pop\n        /* \"#utility.yul\":16969:17062   */\n      tag_575\n        /* \"#utility.yul\":17058:17061   */\n      dup3\n        /* \"#utility.yul\":16969:17062   */\n      tag_370\n      jump\t// in\n    tag_575:\n        /* \"#utility.yul\":17087:17089   */\n      0x40\n        /* \"#utility.yul\":17082:17085   */\n      dup3\n        /* \"#utility.yul\":17078:17090   */\n      add\n        /* \"#utility.yul\":17071:17090   */\n      swap1\n      pop\n        /* \"#utility.yul\":16730:17096   */\n      swap2\n      swap1\n      pop\n      jump\t// out\n        /* \"#utility.yul\":17102:17521   */\n    tag_236:\n        /* \"#utility.yul\":17268:17272   */\n      0x00\n        /* \"#utility.yul\":17306:17308   */\n      0x20\n        /* \"#utility.yul\":17295:17304   */\n      dup3\n        /* \"#utility.yul\":17291:17309   */\n      add\n        /* \"#utility.yul\":17283:17309   */\n      swap1\n      pop\n        /* \"#utility.yul\":17355:17364   */\n      dup2\n        /* \"#utility.yul\":17349:17353   */\n      dup2\n        /* \"#utility.yul\":17345:17365   */\n      sub\n        /* \"#utility.yul\":17341:17342   */\n      0x00\n        /* \"#utility.yul\":17330:17339   */\n      dup4\n        /* \"#utility.yul\":17326:17343   */\n      add\n        /* \"#utility.yul\":17319:17366   */\n      mstore\n        /* \"#utility.yul\":17383:17514   */\n      tag_577\n        /* \"#utility.yul\":17509:17513   */\n      dup2\n        /* \"#utility.yul\":17383:17514   */\n      tag_371\n      jump\t// in\n    tag_577:\n        /* \"#utility.yul\":17375:17514   */\n      swap1\n      pop\n        /* \"#utility.yul\":17102:17521   */\n      swap2\n      swap1\n      pop\n      jump\t// out\n        /* \"#utility.yul\":17527:17692   */\n    tag_372:\n        /* \"#utility.yul\":17667:17684   */\n      0x70726573656c6c206e6f7420656e640000000000000000000000000000000000\n        /* \"#utility.yul\":17663:17664   */\n      0x00\n        /* \"#utility.yul\":17655:17661   */\n      dup3\n        /* \"#utility.yul\":17651:17665   */\n      add\n        /* \"#utility.yul\":17644:17685   */\n      mstore\n        /* \"#utility.yul\":17527:17692   */\n      pop\n      jump\t// out\n        /* \"#utility.yul\":17698:18064   */\n    tag_373:\n        /* \"#utility.yul\":17840:17843   */\n      0x00\n        /* \"#utility.yul\":17861:17928   */\n      tag_580\n        /* \"#utility.yul\":17925:17927   */\n      0x0f\n        /* \"#utility.yul\":17920:17923   */\n      dup4\n        /* \"#utility.yul\":17861:17928   */\n      tag_361\n      jump\t// in\n    tag_580:\n        /* \"#utility.yul\":17854:17928   */\n      swap2\n      pop\n        /* \"#utility.yul\":17937:18030   */\n      tag_581\n        /* \"#utility.yul\":18026:18029   */\n      dup3\n        /* \"#utility.yul\":17937:18030   */\n      tag_372\n      jump\t// in\n    tag_581:\n        /* \"#utility.yul\":18055:18057   */\n      0x20\n        /* \"#utility.yul\":18050:18053   */\n      dup3\n        /* \"#utility.yul\":18046:18058   */\n      add\n        /* \"#utility.yul\":18039:18058   */\n      swap1\n      pop\n        /* \"#utility.yul\":17698:18064   */\n      swap2\n      swap1\n      pop\n      jump\t// out\n        /* \"#utility.yul\":18070:18489   */\n    tag_241:\n        /* \"#utility.yul\":18236:18240   */\n      0x00\n        /* \"#utility.yul\":18274:18276   */\n      0x20\n        /* \"#utility.yul\":18263:18272   */\n      dup3\n        /* \"#utility.yul\":18259:18277   */\n      add\n        /* \"#utility.yul\":18251:18277   */\n      swap1\n      pop\n        /* \"#utility.yul\":18323:18332   */\n      dup2\n        /* \"#utility.yul\":18317:18321   */\n      dup2\n        /* \"#utility.yul\":18313:18333   */\n      sub\n        /* \"#utility.yul\":18309:18310   */\n      0x00\n        /* \"#utility.yul\":18298:18307   */\n      dup4\n        /* \"#utility.yul\":18294:18311   */\n      add\n        /* \"#utility.yul\":18287:18334   */\n      mstore\n        /* \"#utility.yul\":18351:18482   */\n      tag_583\n        /* \"#utility.yul\":18477:18481   */\n      dup2\n        /* \"#utility.yul\":18351:18482   */\n      tag_373\n      jump\t// in\n    tag_583:\n        /* \"#utility.yul\":18343:18482   */\n      swap1\n      pop\n        /* \"#utility.yul\":18070:18489   */\n      swap2\n      swap1\n      pop\n      jump\t// out\n        /* \"#utility.yul\":18495:18662   */\n    tag_374:\n        /* \"#utility.yul\":18635:18654   */\n      0x757365722062616c616e6365207a65726f000000000000000000000000000000\n        /* \"#utility.yul\":18631:18632   */\n      0x00\n        /* \"#utility.yul\":18623:18629   */\n      dup3\n        /* \"#utility.yul\":18619:18633   */\n      add\n        /* \"#utility.yul\":18612:18655   */\n      mstore\n        /* \"#utility.yul\":18495:18662   */\n      pop\n      jump\t// out\n        /* \"#utility.yul\":18668:19034   */\n    tag_375:\n        /* \"#utility.yul\":18810:18813   */\n      0x00\n        /* \"#utility.yul\":18831:18898   */\n      tag_586\n        /* \"#utility.yul\":18895:18897   */\n      0x11\n        /* \"#utility.yul\":18890:18893   */\n      dup4\n        /* \"#utility.yul\":18831:18898   */\n      tag_361\n      jump\t// in\n    tag_586:\n        /* \"#utility.yul\":18824:18898   */\n      swap2\n      pop\n        /* \"#utility.yul\":18907:19000   */\n      tag_587\n        /* \"#utility.yul\":18996:18999   */\n      dup3\n        /* \"#utility.yul\":18907:19000   */\n      tag_374\n      jump\t// in\n    tag_587:\n        /* \"#utility.yul\":19025:19027   */\n      0x20\n        /* \"#utility.yul\":19020:19023   */\n      dup3\n        /* \"#utility.yul\":19016:19028   */\n      add\n        /* \"#utility.yul\":19009:19028   */\n      swap1\n      pop\n        /* \"#utility.yul\":18668:19034   */\n      swap2\n      swap1\n      pop\n      jump\t// out\n        /* \"#utility.yul\":19040:19459   */\n    tag_244:\n        /* \"#utility.yul\":19206:19210   */\n      0x00\n        /* \"#utility.yul\":19244:19246   */\n      0x20\n        /* \"#utility.yul\":19233:19242   */\n      dup3\n        /* \"#utility.yul\":19229:19247   */\n      add\n        /* \"#utility.yul\":19221:19247   */\n      swap1\n      pop\n        /* \"#utility.yul\":19293:19302   */\n      dup2\n        /* \"#utility.yul\":19287:19291   */\n      dup2\n        /* \"#utility.yul\":19283:19303   */\n      sub\n        /* \"#utility.yul\":19279:19280   */\n      0x00\n        /* \"#utility.yul\":19268:19277   */\n      dup4\n        /* \"#utility.yul\":19264:19281   */\n      add\n        /* \"#utility.yul\":19257:19304   */\n      mstore\n        /* \"#utility.yul\":19321:19452   */\n      tag_589\n        /* \"#utility.yul\":19447:19451   */\n      dup2\n        /* \"#utility.yul\":19321:19452   */\n      tag_375\n      jump\t// in\n    tag_589:\n        /* \"#utility.yul\":19313:19452   */\n      swap1\n      pop\n        /* \"#utility.yul\":19040:19459   */\n      swap2\n      swap1\n      pop\n      jump\t// out\n        /* \"#utility.yul\":19465:19640   */\n    tag_252:\n        /* \"#utility.yul\":19503:19506   */\n      0x00\n        /* \"#utility.yul\":19526:19549   */\n      tag_591\n        /* \"#utility.yul\":19543:19548   */\n      dup3\n        /* \"#utility.yul\":19526:19549   */\n      tag_349\n      jump\t// in\n    tag_591:\n        /* \"#utility.yul\":19517:19549   */\n      swap2\n      pop\n        /* \"#utility.yul\":19571:19581   */\n      0xffffffff\n        /* \"#utility.yul\":19564:19569   */\n      dup3\n        /* \"#utility.yul\":19561:19582   */\n      sub\n        /* \"#utility.yul\":19558:19605   */\n      tag_592\n      jumpi\n        /* \"#utility.yul\":19585:19603   */\n      tag_593\n      tag_366\n      jump\t// in\n    tag_593:\n        /* \"#utility.yul\":19558:19605   */\n    tag_592:\n        /* \"#utility.yul\":19632:19633   */\n      0x01\n        /* \"#utility.yul\":19625:19630   */\n      dup3\n        /* \"#utility.yul\":19621:19634   */\n      add\n        /* \"#utility.yul\":19614:19634   */\n      swap1\n      pop\n        /* \"#utility.yul\":19465:19640   */\n      swap2\n      swap1\n      pop\n      jump\t// out\n        /* \"#utility.yul\":19646:19812   */\n    tag_376:\n        /* \"#utility.yul\":19786:19804   */\n      0x6e6f7420696e2077686974654c69737400000000000000000000000000000000\n        /* \"#utility.yul\":19782:19783   */\n      0x00\n        /* \"#utility.yul\":19774:19780   */\n      dup3\n        /* \"#utility.yul\":19770:19784   */\n      add\n        /* \"#utility.yul\":19763:19805   */\n      mstore\n        /* \"#utility.yul\":19646:19812   */\n      pop\n      jump\t// out\n        /* \"#utility.yul\":19818:20184   */\n    tag_377:\n        /* \"#utility.yul\":19960:19963   */\n      0x00\n        /* \"#utility.yul\":19981:20048   */\n      tag_596\n        /* \"#utility.yul\":20045:20047   */\n      0x10\n        /* \"#utility.yul\":20040:20043   */\n      dup4\n        /* \"#utility.yul\":19981:20048   */\n      tag_361\n      jump\t// in\n    tag_596:\n        /* \"#utility.yul\":19974:20048   */\n      swap2\n      pop\n        /* \"#utility.yul\":20057:20150   */\n      tag_597\n        /* \"#utility.yul\":20146:20149   */\n      dup3\n        /* \"#utility.yul\":20057:20150   */\n      tag_376\n      jump\t// in\n    tag_597:\n        /* \"#utility.yul\":20175:20177   */\n      0x20\n        /* \"#utility.yul\":20170:20173   */\n      dup3\n        /* \"#utility.yul\":20166:20178   */\n      add\n        /* \"#utility.yul\":20159:20178   */\n      swap1\n      pop\n        /* \"#utility.yul\":19818:20184   */\n      swap2\n      swap1\n      pop\n      jump\t// out\n        /* \"#utility.yul\":20190:20609   */\n    tag_258:\n        /* \"#utility.yul\":20356:20360   */\n      0x00\n        /* \"#utility.yul\":20394:20396   */\n      0x20\n        /* \"#utility.yul\":20383:20392   */\n      dup3\n        /* \"#utility.yul\":20379:20397   */\n      add\n        /* \"#utility.yul\":20371:20397   */\n      swap1\n      pop\n        /* \"#utility.yul\":20443:20452   */\n      dup2\n        /* \"#utility.yul\":20437:20441   */\n      dup2\n        /* \"#utility.yul\":20433:20453   */\n      sub\n        /* \"#utility.yul\":20429:20430   */\n      0x00\n        /* \"#utility.yul\":20418:20427   */\n      dup4\n        /* \"#utility.yul\":20414:20431   */\n      add\n        /* \"#utility.yul\":20407:20454   */\n      mstore\n        /* \"#utility.yul\":20471:20602   */\n      tag_599\n        /* \"#utility.yul\":20597:20601   */\n      dup2\n        /* \"#utility.yul\":20471:20602   */\n      tag_377\n      jump\t// in\n    tag_599:\n        /* \"#utility.yul\":20463:20602   */\n      swap1\n      pop\n        /* \"#utility.yul\":20190:20609   */\n      swap2\n      swap1\n      pop\n      jump\t// out\n        /* \"#utility.yul\":20615:20774   */\n    tag_378:\n        /* \"#utility.yul\":20755:20766   */\n      0x6e6f742073746172740000000000000000000000000000000000000000000000\n        /* \"#utility.yul\":20751:20752   */\n      0x00\n        /* \"#utility.yul\":20743:20749   */\n      dup3\n        /* \"#utility.yul\":20739:20753   */\n      add\n        /* \"#utility.yul\":20732:20767   */\n      mstore\n        /* \"#utility.yul\":20615:20774   */\n      pop\n      jump\t// out\n        /* \"#utility.yul\":20780:21145   */\n    tag_379:\n        /* \"#utility.yul\":20922:20925   */\n      0x00\n        /* \"#utility.yul\":20943:21009   */\n      tag_602\n        /* \"#utility.yul\":21007:21008   */\n      0x09\n        /* \"#utility.yul\":21002:21005   */\n      dup4\n        /* \"#utility.yul\":20943:21009   */\n      tag_361\n      jump\t// in\n    tag_602:\n        /* \"#utility.yul\":20936:21009   */\n      swap2\n      pop\n        /* \"#utility.yul\":21018:21111   */\n      tag_603\n        /* \"#utility.yul\":21107:21110   */\n      dup3\n        /* \"#utility.yul\":21018:21111   */\n      tag_378\n      jump\t// in\n    tag_603:\n        /* \"#utility.yul\":21136:21138   */\n      0x20\n        /* \"#utility.yul\":21131:21134   */\n      dup3\n        /* \"#utility.yul\":21127:21139   */\n      add\n        /* \"#utility.yul\":21120:21139   */\n      swap1\n      pop\n        /* \"#utility.yul\":20780:21145   */\n      swap2\n      swap1\n      pop\n      jump\t// out\n        /* \"#utility.yul\":21151:21570   */\n    tag_261:\n        /* \"#utility.yul\":21317:21321   */\n      0x00\n        /* \"#utility.yul\":21355:21357   */\n      0x20\n        /* \"#utility.yul\":21344:21353   */\n      dup3\n        /* \"#utility.yul\":21340:21358   */\n      add\n        /* \"#utility.yul\":21332:21358   */\n      swap1\n      pop\n        /* \"#utility.yul\":21404:21413   */\n      dup2\n        /* \"#utility.yul\":21398:21402   */\n      dup2\n        /* \"#utility.yul\":21394:21414   */\n      sub\n        /* \"#utility.yul\":21390:21391   */\n      0x00\n        /* \"#utility.yul\":21379:21388   */\n      dup4\n        /* \"#utility.yul\":21375:21392   */\n      add\n        /* \"#utility.yul\":21368:21415   */\n      mstore\n        /* \"#utility.yul\":21432:21563   */\n      tag_605\n        /* \"#utility.yul\":21558:21562   */\n      dup2\n        /* \"#utility.yul\":21432:21563   */\n      tag_379\n      jump\t// in\n    tag_605:\n        /* \"#utility.yul\":21424:21563   */\n      swap1\n      pop\n        /* \"#utility.yul\":21151:21570   */\n      swap2\n      swap1\n      pop\n      jump\t// out\n        /* \"#utility.yul\":21576:21733   */\n    tag_380:\n        /* \"#utility.yul\":21716:21725   */\n      0x68617320656e6400000000000000000000000000000000000000000000000000\n        /* \"#utility.yul\":21712:21713   */\n      0x00\n        /* \"#utility.yul\":21704:21710   */\n      dup3\n        /* \"#utility.yul\":21700:21714   */\n      add\n        /* \"#utility.yul\":21693:21726   */\n      mstore\n        /* \"#utility.yul\":21576:21733   */\n      pop\n      jump\t// out\n        /* \"#utility.yul\":21739:22104   */\n    tag_381:\n        /* \"#utility.yul\":21881:21884   */\n      0x00\n        /* \"#utility.yul\":21902:21968   */\n      tag_608\n        /* \"#utility.yul\":21966:21967   */\n      0x07\n        /* \"#utility.yul\":21961:21964   */\n      dup4\n        /* \"#utility.yul\":21902:21968   */\n      tag_361\n      jump\t// in\n    tag_608:\n        /* \"#utility.yul\":21895:21968   */\n      swap2\n      pop\n        /* \"#utility.yul\":21977:22070   */\n      tag_609\n        /* \"#utility.yul\":22066:22069   */\n      dup3\n        /* \"#utility.yul\":21977:22070   */\n      tag_380\n      jump\t// in\n    tag_609:\n        /* \"#utility.yul\":22095:22097   */\n      0x20\n        /* \"#utility.yul\":22090:22093   */\n      dup3\n        /* \"#utility.yul\":22086:22098   */\n      add\n        /* \"#utility.yul\":22079:22098   */\n      swap1\n      pop\n        /* \"#utility.yul\":21739:22104   */\n      swap2\n      swap1\n      pop\n      jump\t// out\n        /* \"#utility.yul\":22110:22529   */\n    tag_264:\n        /* \"#utility.yul\":22276:22280   */\n      0x00\n        /* \"#utility.yul\":22314:22316   */\n      0x20\n        /* \"#utility.yul\":22303:22312   */\n      dup3\n        /* \"#utility.yul\":22299:22317   */\n      add\n        /* \"#utility.yul\":22291:22317   */\n      swap1\n      pop\n        /* \"#utility.yul\":22363:22372   */\n      dup2\n        /* \"#utility.yul\":22357:22361   */\n      dup2\n        /* \"#utility.yul\":22353:22373   */\n      sub\n        /* \"#utility.yul\":22349:22350   */\n      0x00\n        /* \"#utility.yul\":22338:22347   */\n      dup4\n        /* \"#utility.yul\":22334:22351   */\n      add\n        /* \"#utility.yul\":22327:22374   */\n      mstore\n        /* \"#utility.yul\":22391:22522   */\n      tag_611\n        /* \"#utility.yul\":22517:22521   */\n      dup2\n        /* \"#utility.yul\":22391:22522   */\n      tag_381\n      jump\t// in\n    tag_611:\n        /* \"#utility.yul\":22383:22522   */\n      swap1\n      pop\n        /* \"#utility.yul\":22110:22529   */\n      swap2\n      swap1\n      pop\n      jump\t// out\n        /* \"#utility.yul\":22535:22708   */\n    tag_382:\n        /* \"#utility.yul\":22675:22700   */\n      0x5072652d6f72646572732061726520736f6c64206f7574000000000000000000\n        /* \"#utility.yul\":22671:22672   */\n      0x00\n        /* \"#utility.yul\":22663:22669   */\n      dup3\n        /* \"#utility.yul\":22659:22673   */\n      add\n        /* \"#utility.yul\":22652:22701   */\n      mstore\n        /* \"#utility.yul\":22535:22708   */\n      pop\n      jump\t// out\n        /* \"#utility.yul\":22714:23080   */\n    tag_383:\n        /* \"#utility.yul\":22856:22859   */\n      0x00\n        /* \"#utility.yul\":22877:22944   */\n      tag_614\n        /* \"#utility.yul\":22941:22943   */\n      0x17\n        /* \"#utility.yul\":22936:22939   */\n      dup4\n        /* \"#utility.yul\":22877:22944   */\n      tag_361\n      jump\t// in\n    tag_614:\n        /* \"#utility.yul\":22870:22944   */\n      swap2\n      pop\n        /* \"#utility.yul\":22953:23046   */\n      tag_615\n        /* \"#utility.yul\":23042:23045   */\n      dup3\n        /* \"#utility.yul\":22953:23046   */\n      tag_382\n      jump\t// in\n    tag_615:\n        /* \"#utility.yul\":23071:23073   */\n      0x20\n        /* \"#utility.yul\":23066:23069   */\n      dup3\n        /* \"#utility.yul\":23062:23074   */\n      add\n        /* \"#utility.yul\":23055:23074   */\n      swap1\n      pop\n        /* \"#utility.yul\":22714:23080   */\n      swap2\n      swap1\n      pop\n      jump\t// out\n        /* \"#utility.yul\":23086:23505   */\n    tag_267:\n        /* \"#utility.yul\":23252:23256   */\n      0x00\n        /* \"#utility.yul\":23290:23292   */\n      0x20\n        /* \"#utility.yul\":23279:23288   */\n      dup3\n        /* \"#utility.yul\":23275:23293   */\n      add\n        /* \"#utility.yul\":23267:23293   */\n      swap1\n      pop\n        /* \"#utility.yul\":23339:23348   */\n      dup2\n        /* \"#utility.yul\":23333:23337   */\n      dup2\n        /* \"#utility.yul\":23329:23349   */\n      sub\n        /* \"#utility.yul\":23325:23326   */\n      0x00\n        /* \"#utility.yul\":23314:23323   */\n      dup4\n        /* \"#utility.yul\":23310:23327   */\n      add\n        /* \"#utility.yul\":23303:23350   */\n      mstore\n        /* \"#utility.yul\":23367:23498   */\n      tag_617\n        /* \"#utility.yul\":23493:23497   */\n      dup2\n        /* \"#utility.yul\":23367:23498   */\n      tag_383\n      jump\t// in\n    tag_617:\n        /* \"#utility.yul\":23359:23498   */\n      swap1\n      pop\n        /* \"#utility.yul\":23086:23505   */\n      swap2\n      swap1\n      pop\n      jump\t// out\n        /* \"#utility.yul\":23511:23678   */\n    tag_384:\n        /* \"#utility.yul\":23651:23670   */\n      0x616c726561647920707572636861736564000000000000000000000000000000\n        /* \"#utility.yul\":23647:23648   */\n      0x00\n        /* \"#utility.yul\":23639:23645   */\n      dup3\n        /* \"#utility.yul\":23635:23649   */\n      add\n        /* \"#utility.yul\":23628:23671   */\n      mstore\n        /* \"#utility.yul\":23511:23678   */\n      pop\n      jump\t// out\n        /* \"#utility.yul\":23684:24050   */\n    tag_385:\n        /* \"#utility.yul\":23826:23829   */\n      0x00\n        /* \"#utility.yul\":23847:23914   */\n      tag_620\n        /* \"#utility.yul\":23911:23913   */\n      0x11\n        /* \"#utility.yul\":23906:23909   */\n      dup4\n        /* \"#utility.yul\":23847:23914   */\n      tag_361\n      jump\t// in\n    tag_620:\n        /* \"#utility.yul\":23840:23914   */\n      swap2\n      pop\n        /* \"#utility.yul\":23923:24016   */\n      tag_621\n        /* \"#utility.yul\":24012:24015   */\n      dup3\n        /* \"#utility.yul\":23923:24016   */\n      tag_384\n      jump\t// in\n    tag_621:\n        /* \"#utility.yul\":24041:24043   */\n      0x20\n        /* \"#utility.yul\":24036:24039   */\n      dup3\n        /* \"#utility.yul\":24032:24044   */\n      add\n        /* \"#utility.yul\":24025:24044   */\n      swap1\n      pop\n        /* \"#utility.yul\":23684:24050   */\n      swap2\n      swap1\n      pop\n      jump\t// out\n        /* \"#utility.yul\":24056:24475   */\n    tag_270:\n        /* \"#utility.yul\":24222:24226   */\n      0x00\n        /* \"#utility.yul\":24260:24262   */\n      0x20\n        /* \"#utility.yul\":24249:24258   */\n      dup3\n        /* \"#utility.yul\":24245:24263   */\n      add\n        /* \"#utility.yul\":24237:24263   */\n      swap1\n      pop\n        /* \"#utility.yul\":24309:24318   */\n      dup2\n        /* \"#utility.yul\":24303:24307   */\n      dup2\n        /* \"#utility.yul\":24299:24319   */\n      sub\n        /* \"#utility.yul\":24295:24296   */\n      0x00\n        /* \"#utility.yul\":24284:24293   */\n      dup4\n        /* \"#utility.yul\":24280:24297   */\n      add\n        /* \"#utility.yul\":24273:24320   */\n      mstore\n        /* \"#utility.yul\":24337:24468   */\n      tag_623\n        /* \"#utility.yul\":24463:24467   */\n      dup2\n        /* \"#utility.yul\":24337:24468   */\n      tag_385\n      jump\t// in\n    tag_623:\n        /* \"#utility.yul\":24329:24468   */\n      swap1\n      pop\n        /* \"#utility.yul\":24056:24475   */\n      swap2\n      swap1\n      pop\n      jump\t// out\n        /* \"#utility.yul\":24481:24813   */\n    tag_272:\n        /* \"#utility.yul\":24602:24606   */\n      0x00\n        /* \"#utility.yul\":24640:24642   */\n      0x40\n        /* \"#utility.yul\":24629:24638   */\n      dup3\n        /* \"#utility.yul\":24625:24643   */\n      add\n        /* \"#utility.yul\":24617:24643   */\n      swap1\n      pop\n        /* \"#utility.yul\":24653:24724   */\n      tag_625\n        /* \"#utility.yul\":24721:24722   */\n      0x00\n        /* \"#utility.yul\":24710:24719   */\n      dup4\n        /* \"#utility.yul\":24706:24723   */\n      add\n        /* \"#utility.yul\":24697:24703   */\n      dup6\n        /* \"#utility.yul\":24653:24724   */\n      tag_322\n      jump\t// in\n    tag_625:\n        /* \"#utility.yul\":24734:24806   */\n      tag_626\n        /* \"#utility.yul\":24802:24804   */\n      0x20\n        /* \"#utility.yul\":24791:24800   */\n      dup4\n        /* \"#utility.yul\":24787:24805   */\n      add\n        /* \"#utility.yul\":24778:24784   */\n      dup5\n        /* \"#utility.yul\":24734:24806   */\n      tag_322\n      jump\t// in\n    tag_626:\n        /* \"#utility.yul\":24481:24813   */\n      swap4\n      swap3\n      pop\n      pop\n      pop\n      jump\t// out\n        /* \"#utility.yul\":24819:24962   */\n    tag_386:\n        /* \"#utility.yul\":24876:24881   */\n      0x00\n        /* \"#utility.yul\":24907:24913   */\n      dup2\n        /* \"#utility.yul\":24901:24914   */\n      mload\n        /* \"#utility.yul\":24892:24914   */\n      swap1\n      pop\n        /* \"#utility.yul\":24923:24956   */\n      tag_628\n        /* \"#utility.yul\":24950:24955   */\n      dup2\n        /* \"#utility.yul\":24923:24956   */\n      tag_346\n      jump\t// in\n    tag_628:\n        /* \"#utility.yul\":24819:24962   */\n      swap3\n      swap2\n      pop\n      pop\n      jump\t// out\n        /* \"#utility.yul\":24968:25319   */\n    tag_276:\n        /* \"#utility.yul\":25038:25044   */\n      0x00\n        /* \"#utility.yul\":25087:25089   */\n      0x20\n        /* \"#utility.yul\":25075:25084   */\n      dup3\n        /* \"#utility.yul\":25066:25073   */\n      dup5\n        /* \"#utility.yul\":25062:25085   */\n      sub\n        /* \"#utility.yul\":25058:25090   */\n      slt\n        /* \"#utility.yul\":25055:25174   */\n      iszero\n      tag_630\n      jumpi\n        /* \"#utility.yul\":25093:25172   */\n      tag_631\n      tag_326\n      jump\t// in\n    tag_631:\n        /* \"#utility.yul\":25055:25174   */\n    tag_630:\n        /* \"#utility.yul\":25213:25214   */\n      0x00\n        /* \"#utility.yul\":25238:25302   */\n      tag_632\n        /* \"#utility.yul\":25294:25301   */\n      dup5\n        /* \"#utility.yul\":25285:25291   */\n      dup3\n        /* \"#utility.yul\":25274:25283   */\n      dup6\n        /* \"#utility.yul\":25270:25292   */\n      add\n        /* \"#utility.yul\":25238:25302   */\n      tag_386\n      jump\t// in\n    tag_632:\n        /* \"#utility.yul\":25228:25302   */\n      swap2\n      pop\n        /* \"#utility.yul\":25184:25312   */\n      pop\n        /* \"#utility.yul\":24968:25319   */\n      swap3\n      swap2\n      pop\n      pop\n      jump\t// out\n        /* \"#utility.yul\":25325:25502   */\n    tag_387:\n        /* \"#utility.yul\":25465:25494   */\n      0x75736474546f6b656e20616c6c6f77616e636520746f6f206c6f770000000000\n        /* \"#utility.yul\":25461:25462   */\n      0x00\n        /* \"#utility.yul\":25453:25459   */\n      dup3\n        /* \"#utility.yul\":25449:25463   */\n      add\n        /* \"#utility.yul\":25442:25495   */\n      mstore\n        /* \"#utility.yul\":25325:25502   */\n      pop\n      jump\t// out\n        /* \"#utility.yul\":25508:25874   */\n    tag_388:\n        /* \"#utility.yul\":25650:25653   */\n      0x00\n        /* \"#utility.yul\":25671:25738   */\n      tag_635\n        /* \"#utility.yul\":25735:25737   */\n      0x1b\n        /* \"#utility.yul\":25730:25733   */\n      dup4\n        /* \"#utility.yul\":25671:25738   */\n      tag_361\n      jump\t// in\n    tag_635:\n        /* \"#utility.yul\":25664:25738   */\n      swap2\n      pop\n        /* \"#utility.yul\":25747:25840   */\n      tag_636\n        /* \"#utility.yul\":25836:25839   */\n      dup3\n        /* \"#utility.yul\":25747:25840   */\n      tag_387\n      jump\t// in\n    tag_636:\n        /* \"#utility.yul\":25865:25867   */\n      0x20\n        /* \"#utility.yul\":25860:25863   */\n      dup3\n        /* \"#utility.yul\":25856:25868   */\n      add\n        /* \"#utility.yul\":25849:25868   */\n      swap1\n      pop\n        /* \"#utility.yul\":25508:25874   */\n      swap2\n      swap1\n      pop\n      jump\t// out\n        /* \"#utility.yul\":25880:26299   */\n    tag_279:\n        /* \"#utility.yul\":26046:26050   */\n      0x00\n        /* \"#utility.yul\":26084:26086   */\n      0x20\n        /* \"#utility.yul\":26073:26082   */\n      dup3\n        /* \"#utility.yul\":26069:26087   */\n      add\n        /* \"#utility.yul\":26061:26087   */\n      swap1\n      pop\n        /* \"#utility.yul\":26133:26142   */\n      dup2\n        /* \"#utility.yul\":26127:26131   */\n      dup2\n        /* \"#utility.yul\":26123:26143   */\n      sub\n        /* \"#utility.yul\":26119:26120   */\n      0x00\n        /* \"#utility.yul\":26108:26117   */\n      dup4\n        /* \"#utility.yul\":26104:26121   */\n      add\n        /* \"#utility.yul\":26097:26144   */\n      mstore\n        /* \"#utility.yul\":26161:26292   */\n      tag_638\n        /* \"#utility.yul\":26287:26291   */\n      dup2\n        /* \"#utility.yul\":26161:26292   */\n      tag_388\n      jump\t// in\n    tag_638:\n        /* \"#utility.yul\":26153:26292   */\n      swap1\n      pop\n        /* \"#utility.yul\":25880:26299   */\n      swap2\n      swap1\n      pop\n      jump\t// out\n        /* \"#utility.yul\":26305:26747   */\n    tag_281:\n        /* \"#utility.yul\":26454:26458   */\n      0x00\n        /* \"#utility.yul\":26492:26494   */\n      0x60\n        /* \"#utility.yul\":26481:26490   */\n      dup3\n        /* \"#utility.yul\":26477:26495   */\n      add\n        /* \"#utility.yul\":26469:26495   */\n      swap1\n      pop\n        /* \"#utility.yul\":26505:26576   */\n      tag_640\n        /* \"#utility.yul\":26573:26574   */\n      0x00\n        /* \"#utility.yul\":26562:26571   */\n      dup4\n        /* \"#utility.yul\":26558:26575   */\n      add\n        /* \"#utility.yul\":26549:26555   */\n      dup7\n        /* \"#utility.yul\":26505:26576   */\n      tag_322\n      jump\t// in\n    tag_640:\n        /* \"#utility.yul\":26586:26658   */\n      tag_641\n        /* \"#utility.yul\":26654:26656   */\n      0x20\n        /* \"#utility.yul\":26643:26652   */\n      dup4\n        /* \"#utility.yul\":26639:26657   */\n      add\n        /* \"#utility.yul\":26630:26636   */\n      dup6\n        /* \"#utility.yul\":26586:26658   */\n      tag_322\n      jump\t// in\n    tag_641:\n        /* \"#utility.yul\":26668:26740   */\n      tag_642\n        /* \"#utility.yul\":26736:26738   */\n      0x40\n        /* \"#utility.yul\":26725:26734   */\n      dup4\n        /* \"#utility.yul\":26721:26739   */\n      add\n        /* \"#utility.yul\":26712:26718   */\n      dup5\n        /* \"#utility.yul\":26668:26740   */\n      tag_352\n      jump\t// in\n    tag_642:\n        /* \"#utility.yul\":26305:26747   */\n      swap5\n      swap4\n      pop\n      pop\n      pop\n      pop\n      jump\t// out\n        /* \"#utility.yul\":26753:27085   */\n    tag_289:\n        /* \"#utility.yul\":26874:26878   */\n      0x00\n        /* \"#utility.yul\":26912:26914   */\n      0x40\n        /* \"#utility.yul\":26901:26910   */\n      dup3\n        /* \"#utility.yul\":26897:26915   */\n      add\n        /* \"#utility.yul\":26889:26915   */\n      swap1\n      pop\n        /* \"#utility.yul\":26925:26996   */\n      tag_644\n        /* \"#utility.yul\":26993:26994   */\n      0x00\n        /* \"#utility.yul\":26982:26991   */\n      dup4\n        /* \"#utility.yul\":26978:26995   */\n      add\n        /* \"#utility.yul\":26969:26975   */\n      dup6\n        /* \"#utility.yul\":26925:26996   */\n      tag_352\n      jump\t// in\n    tag_644:\n        /* \"#utility.yul\":27006:27078   */\n      tag_645\n        /* \"#utility.yul\":27074:27076   */\n      0x20\n        /* \"#utility.yul\":27063:27072   */\n      dup4\n        /* \"#utility.yul\":27059:27077   */\n      add\n        /* \"#utility.yul\":27050:27056   */\n      dup5\n        /* \"#utility.yul\":27006:27078   */\n      tag_352\n      jump\t// in\n    tag_645:\n        /* \"#utility.yul\":26753:27085   */\n      swap4\n      swap3\n      pop\n      pop\n      pop\n      jump\t// out\n        /* \"#utility.yul\":27091:27316   */\n    tag_389:\n        /* \"#utility.yul\":27231:27265   */\n      0x4f776e61626c653a206e6577206f776e657220697320746865207a65726f2061\n        /* \"#utility.yul\":27227:27228   */\n      0x00\n        /* \"#utility.yul\":27219:27225   */\n      dup3\n        /* \"#utility.yul\":27215:27229   */\n      add\n        /* \"#utility.yul\":27208:27266   */\n      mstore\n        /* \"#utility.yul\":27300:27308   */\n      0x6464726573730000000000000000000000000000000000000000000000000000\n        /* \"#utility.yul\":27295:27297   */\n      0x20\n        /* \"#utility.yul\":27287:27293   */\n      dup3\n        /* \"#utility.yul\":27283:27298   */\n      add\n        /* \"#utility.yul\":27276:27309   */\n      mstore\n        /* \"#utility.yul\":27091:27316   */\n      pop\n      jump\t// out\n        /* \"#utility.yul\":27322:27688   */\n    tag_390:\n        /* \"#utility.yul\":27464:27467   */\n      0x00\n        /* \"#utility.yul\":27485:27552   */\n      tag_648\n        /* \"#utility.yul\":27549:27551   */\n      0x26\n        /* \"#utility.yul\":27544:27547   */\n      dup4\n        /* \"#utility.yul\":27485:27552   */\n      tag_361\n      jump\t// in\n    tag_648:\n        /* \"#utility.yul\":27478:27552   */\n      swap2\n      pop\n        /* \"#utility.yul\":27561:27654   */\n      tag_649\n        /* \"#utility.yul\":27650:27653   */\n      dup3\n        /* \"#utility.yul\":27561:27654   */\n      tag_389\n      jump\t// in\n    tag_649:\n        /* \"#utility.yul\":27679:27681   */\n      0x40\n        /* \"#utility.yul\":27674:27677   */\n      dup3\n        /* \"#utility.yul\":27670:27682   */\n      add\n        /* \"#utility.yul\":27663:27682   */\n      swap1\n      pop\n        /* \"#utility.yul\":27322:27688   */\n      swap2\n      swap1\n      pop\n      jump\t// out\n        /* \"#utility.yul\":27694:28113   */\n    tag_310:\n        /* \"#utility.yul\":27860:27864   */\n      0x00\n        /* \"#utility.yul\":27898:27900   */\n      0x20\n        /* \"#utility.yul\":27887:27896   */\n      dup3\n        /* \"#utility.yul\":27883:27901   */\n      add\n        /* \"#utility.yul\":27875:27901   */\n      swap1\n      pop\n        /* \"#utility.yul\":27947:27956   */\n      dup2\n        /* \"#utility.yul\":27941:27945   */\n      dup2\n        /* \"#utility.yul\":27937:27957   */\n      sub\n        /* \"#utility.yul\":27933:27934   */\n      0x00\n        /* \"#utility.yul\":27922:27931   */\n      dup4\n        /* \"#utility.yul\":27918:27935   */\n      add\n        /* \"#utility.yul\":27911:27958   */\n      mstore\n        /* \"#utility.yul\":27975:28106   */\n      tag_651\n        /* \"#utility.yul\":28101:28105   */\n      dup2\n        /* \"#utility.yul\":27975:28106   */\n      tag_390\n      jump\t// in\n    tag_651:\n        /* \"#utility.yul\":27967:28106   */\n      swap1\n      pop\n        /* \"#utility.yul\":27694:28113   */\n      swap2\n      swap1\n      pop\n      jump\t// out\n\n    auxdata: 0xa2646970667358221220a65529e4d051976887ce181244c9f6cc21fbbef3be37146c370295aac70206d864736f6c63430008110033\n}\n",
				"bytecode": {
					"linkReferences": {},
					"object": "60c06040527355d398326f99059ff775485246999027b3197955600160006101000a81548173ffffffffffffffffffffffffffffffffffffffff021916908373ffffffffffffffffffffffffffffffffffffffff16021790555073a3247b33baa9ea15b699c77237d5b16f5cfd822f600260006101000a81548173ffffffffffffffffffffffffffffffffffffffff021916908373ffffffffffffffffffffffffffffffffffffffff16021790555073d3c0b6aa1538d639912789be705f18b5fd89fce6600360006101000a81548173ffffffffffffffffffffffffffffffffffffffff021916908373ffffffffffffffffffffffffffffffffffffffff160217905550670de0b6b3a764000060045568f3f20b8dfa69d00000600555600a600660086101000a81548163ffffffff021916908363ffffffff1602179055503480156200014b57600080fd5b5060405162002ef638038062002ef6833981810160405281019062000171919062000457565b62000191620001856200034160201b60201c565b6200034960201b60201c565b428267ffffffffffffffff161015620001e1576040517f08c379a0000000000000000000000000000000000000000000000000000000008152600401620001d890620004ff565b60405180910390fd5b8167ffffffffffffffff168167ffffffffffffffff1610156200023b576040517f08c379a0000000000000000000000000000000000000000000000000000000008152600401620002329062000571565b60405180910390fd5b816006600c6101000a81548167ffffffffffffffff021916908367ffffffffffffffff16021790555080600660146101000a81548167ffffffffffffffff021916908367ffffffffffffffff160217905550600160009054906101000a900473ffffffffffffffffffffffffffffffffffffffff1673ffffffffffffffffffffffffffffffffffffffff1660808173ffffffffffffffffffffffffffffffffffffffff1681525050600260009054906101000a900473ffffffffffffffffffffffffffffffffffffffff1673ffffffffffffffffffffffffffffffffffffffff1660a08173ffffffffffffffffffffffffffffffffffffffff1681525050505062000593565b600033905090565b60008060009054906101000a900473ffffffffffffffffffffffffffffffffffffffff169050816000806101000a81548173ffffffffffffffffffffffffffffffffffffffff021916908373ffffffffffffffffffffffffffffffffffffffff1602179055508173ffffffffffffffffffffffffffffffffffffffff168173ffffffffffffffffffffffffffffffffffffffff167f8be0079c531659141344cd1fd0a4f28419497f9722a3daafe3b4186f6b6457e060405160405180910390a35050565b600080fd5b600067ffffffffffffffff82169050919050565b620004318162000412565b81146200043d57600080fd5b50565b600081519050620004518162000426565b92915050565b600080604083850312156200047157620004706200040d565b5b6000620004818582860162000440565b9250506020620004948582860162000440565b9150509250929050565b600082825260208201905092915050565b7f7374617274206174203c206e6f77000000000000000000000000000000000000600082015250565b6000620004e7600e836200049e565b9150620004f482620004af565b602082019050919050565b600060208201905081810360008301526200051a81620004d8565b9050919050565b7f656e64206174203c207374617274206174000000000000000000000000000000600082015250565b6000620005596011836200049e565b9150620005668262000521565b602082019050919050565b600060208201905081810360008301526200058c816200054a565b9050919050565b60805160a051612921620005d560003960008181610a3d01528181610d290152610fb7015260008181610d4d015281816113db01526114ba01526129216000f3fe608060405234801561001057600080fd5b50600436106101f05760003560e01c80638da5cb5b1161010f578063d0febe4c116100a2578063dcd8361611610071578063dcd8361614610539578063f01fc57c14610557578063f2fde38b14610575578063fae9261214610591576101f0565b8063d0febe4c146104e9578063d1d04e1f146104f3578063d35cde4114610511578063db2e21bc1461052f576101f0565b8063a98ad46c116100de578063a98ad46c14610487578063acf6c91c146104a5578063c828371e146104c1578063c9ede793146104df576101f0565b80638da5cb5b146103fd57806390f5881a1461041b578063956236411461044b5780639769f0b014610469576101f0565b8063439f5ac211610187578063715018a611610156578063715018a61461038757806378eb6c6f146103915780638568f4ce146103af57806388af60c6146103df576101f0565b8063439f5ac21461031557806350b2b0a4146103335780635fc1cb631461034f57806369c82ef71461036b576101f0565b8063372c12b1116101c3578063372c12b114610269578063374eedef1461029957806339b417b7146102c95780633d719da7146102e5576101f0565b8063027734fa146101f557806303d7424d1461021357806308c9d22714610231578063271f88b41461024d575b600080fd5b6101fd6105ad565b60405161020a9190611adb565b60405180910390f35b61021b6105d3565b6040516102289190611b19565b60405180910390f35b61024b60048036038101906102469190611dc8565b6105f3565b005b61026760048036038101906102629190611e76565b610713565b005b610283600480360381019061027e9190611ea3565b610799565b6040516102909190611edf565b60405180910390f35b6102b360048036038101906102ae9190611ea3565b6107b9565b6040516102c09190611edf565b60405180910390f35b6102e360048036038101906102de9190611efa565b61080f565b005b6102ff60048036038101906102fa9190611ea3565b6108e6565b60405161030c9190611edf565b60405180910390f35b61031d610906565b60405161032a9190611b19565b60405180910390f35b61034d60048036038101906103489190611f3a565b610924565b005b61036960048036038101906103649190611e76565b6109bd565b005b61038560048036038101906103809190611fa3565b610b1f565b005b61038f610bbf565b005b610399610c47565b6040516103a69190611fdf565b60405180910390f35b6103c960048036038101906103c49190611ea3565b610c51565b6040516103d69190611fdf565b60405180910390f35b6103e7610c9a565b6040516103f49190611adb565b60405180910390f35b610405610cc0565b6040516104129190611adb565b60405180910390f35b61043560048036038101906104309190611ea3565b610ce9565b6040516104429190611fdf565b60405180910390f35b610453610d01565b6040516104609190611adb565b60405180910390f35b610471610d27565b60405161047e9190612059565b60405180910390f35b61048f610d4b565b60405161049c9190612059565b60405180910390f35b6104bf60048036038101906104ba91906120a0565b610d6f565b005b6104c9610eac565b6040516104d69190611b19565b60405180910390f35b6104e7610eca565b005b6104f161116d565b005b6104fb6116f4565b60405161050891906120ef565b60405180910390f35b61051961170e565b6040516105269190611fdf565b60405180910390f35b610537611718565b005b6105416117e4565b60405161054e9190611edf565b60405180910390f35b61055f6117f7565b60405161056c9190611b19565b60405180910390f35b61058f600480360381019061058a9190611ea3565b611817565b005b6105ab60048036038101906105a69190611ea3565b61190e565b005b600260009054906101000a900473ffffffffffffffffffffffffffffffffffffffff1681565b6000600660049054906101000a900463ffffffff1663ffffffff16905090565b6105fb6119ce565b73ffffffffffffffffffffffffffffffffffffffff16610619610cc0565b73ffffffffffffffffffffffffffffffffffffffff161461066f576040517f08c379a000000000000000000000000000000000000000000000000000000000815260040161066690612167565b60405180910390fd5b80518251146106b3576040517f08c379a00000000000000000000000000000000000000000000000000000000081526004016106aa906121d3565b60405180910390fd5b60005b825181101561070e576106fd8382815181106106d5576106d46121f3565b5b60200260200101518383815181106106f0576106ef6121f3565b5b602002602001015161080f565b8061070790612251565b90506106b6565b505050565b61071b6119ce565b73ffffffffffffffffffffffffffffffffffffffff16610739610cc0565b73ffffffffffffffffffffffffffffffffffffffff161461078f576040517f08c379a000000000000000000000000000000000000000000000000000000000815260040161078690612167565b60405180910390fd5b8060048190555050565b60096020528060005260406000206000915054906101000a900460ff1681565b6000600860008373ffffffffffffffffffffffffffffffffffffffff1673ffffffffffffffffffffffffffffffffffffffff16815260200190815260200160002060009054906101000a900460ff169050919050565b6108176119ce565b73ffffffffffffffffffffffffffffffffffffffff16610835610cc0565b73ffffffffffffffffffffffffffffffffffffffff161461088b576040517f08c379a000000000000000000000000000000000000000000000000000000000815260040161088290612167565b60405180910390fd5b80600960008473ffffffffffffffffffffffffffffffffffffffff1673ffffffffffffffffffffffffffffffffffffffff16815260200190815260200160002060006101000a81548160ff0219169083151502179055505050565b60086020528060005260406000206000915054906101000a900460ff1681565b6000600660149054906101000a900467ffffffffffffffff16905090565b61092c6119ce565b73ffffffffffffffffffffffffffffffffffffffff1661094a610cc0565b73ffffffffffffffffffffffffffffffffffffffff16146109a0576040517f08c379a000000000000000000000000000000000000000000000000000000000815260040161099790612167565b60405180910390fd5b806006601c6101000a81548160ff02191690831515021790555050565b6109c56119ce565b73ffffffffffffffffffffffffffffffffffffffff166109e3610cc0565b73ffffffffffffffffffffffffffffffffffffffff1614610a39576040517f08c379a0000000000000000000000000000000000000000000000000000000008152600401610a3090612167565b60405180910390fd5b60007f000000000000000000000000000000000000000000000000000000000000000073ffffffffffffffffffffffffffffffffffffffff1663a9059cbb33846040518363ffffffff1660e01b8152600401610a96929190612299565b6020604051808303816000875af1158015610ab5573d6000803e3d6000fd5b505050506040513d601f19601f82011682018060405250810190610ad991906122d7565b905080610b1b576040517f08c379a0000000000000000000000000000000000000000000000000000000008152600401610b1290612350565b60405180910390fd5b5050565b610b276119ce565b73ffffffffffffffffffffffffffffffffffffffff16610b45610cc0565b73ffffffffffffffffffffffffffffffffffffffff1614610b9b576040517f08c379a0000000000000000000000000000000000000000000000000000000008152600401610b9290612167565b60405180910390fd5b80600660086101000a81548163ffffffff021916908363ffffffff16021790555050565b610bc76119ce565b73ffffffffffffffffffffffffffffffffffffffff16610be5610cc0565b73ffffffffffffffffffffffffffffffffffffffff1614610c3b576040517f08c379a0000000000000000000000000000000000000000000000000000000008152600401610c3290612167565b60405180910390fd5b610c4560006119d6565b565b6000600554905090565b6000600760008373ffffffffffffffffffffffffffffffffffffffff1673ffffffffffffffffffffffffffffffffffffffff168152602001908152602001600020549050919050565b600160009054906101000a900473ffffffffffffffffffffffffffffffffffffffff1681565b60008060009054906101000a900473ffffffffffffffffffffffffffffffffffffffff16905090565b60076020528060005260406000206000915090505481565b600360009054906101000a900473ffffffffffffffffffffffffffffffffffffffff1681565b7f000000000000000000000000000000000000000000000000000000000000000081565b7f000000000000000000000000000000000000000000000000000000000000000081565b610d776119ce565b73ffffffffffffffffffffffffffffffffffffffff16610d95610cc0565b73ffffffffffffffffffffffffffffffffffffffff1614610deb576040517f08c379a0000000000000000000000000000000000000000000000000000000008152600401610de290612167565b60405180910390fd5b428267ffffffffffffffff16118015610e1757508167ffffffffffffffff168167ffffffffffffffff16115b610e56576040517f08c379a0000000000000000000000000000000000000000000000000000000008152600401610e4d906123e2565b60405180910390fd5b816006600c6101000a81548167ffffffffffffffff021916908367ffffffffffffffff16021790555080600660146101000a81548167ffffffffffffffff021916908367ffffffffffffffff1602179055505050565b60006006600c9054906101000a900467ffffffffffffffff16905090565b42600660149054906101000a900467ffffffffffffffff1667ffffffffffffffff1610610f2c576040517f08c379a0000000000000000000000000000000000000000000000000000000008152600401610f239061244e565b60405180910390fd5b6000600760003373ffffffffffffffffffffffffffffffffffffffff1673ffffffffffffffffffffffffffffffffffffffff16815260200190815260200160002054905060008111610fb3576040517f08c379a0000000000000000000000000000000000000000000000000000000008152600401610faa906124ba565b60405180910390fd5b60007f000000000000000000000000000000000000000000000000000000000000000073ffffffffffffffffffffffffffffffffffffffff1663a9059cbb33846040518363ffffffff1660e01b8152600401611010929190612299565b6020604051808303816000875af115801561102f573d6000803e3d6000fd5b505050506040513d601f19601f8201168201806040525081019061105391906122d7565b905080611095576040517f08c379a000000000000000000000000000000000000000000000000000000000815260040161108c90612350565b60405180910390fd5b6000600760003373ffffffffffffffffffffffffffffffffffffffff1673ffffffffffffffffffffffffffffffffffffffff168152602001908152602001600020819055506006600481819054906101000a900463ffffffff16809291906110fc906124da565b91906101000a81548163ffffffff021916908363ffffffff160217905550503373ffffffffffffffffffffffffffffffffffffffff167f680f2e4f4032ebf1774e8cdbaddcb1b617a5a606411c8ca96257ada338d3833c836040516111619190611fdf565b60405180910390a25050565b6006601c9054906101000a900460ff161580156111d35750600960003373ffffffffffffffffffffffffffffffffffffffff1673ffffffffffffffffffffffffffffffffffffffff16815260200190815260200160002060009054906101000a900460ff165b611212576040517f08c379a000000000000000000000000000000000000000000000000000000000815260040161120990612552565b60405180910390fd5b426006600c9054906101000a900467ffffffffffffffff1667ffffffffffffffff1610611274576040517f08c379a000000000000000000000000000000000000000000000000000000000815260040161126b906125be565b60405180910390fd5b42600660149054906101000a900467ffffffffffffffff1667ffffffffffffffff16116112d6576040517f08c379a00000000000000000000000000000000000000000000000000000000081526004016112cd9061262a565b60405180910390fd5b600660089054906101000a900463ffffffff1663ffffffff16600660009054906101000a900463ffffffff1663ffffffff161115611349576040517f08c379a000000000000000000000000000000000000000000000000000000000815260040161134090612696565b60405180910390fd5b600860003373ffffffffffffffffffffffffffffffffffffffff1673ffffffffffffffffffffffffffffffffffffffff16815260200190815260200160002060009054906101000a900460ff16156113d6576040517f08c379a00000000000000000000000000000000000000000000000000000000081526004016113cd90612702565b60405180910390fd5b6004547f000000000000000000000000000000000000000000000000000000000000000073ffffffffffffffffffffffffffffffffffffffff1663dd62ed3e33306040518363ffffffff1660e01b8152600401611434929190612722565b602060405180830381865afa158015611451573d6000803e3d6000fd5b505050506040513d601f19601f820116820180604052508101906114759190612760565b10156114b6576040517f08c379a00000000000000000000000000000000000000000000000000000000081526004016114ad906127d9565b60405180910390fd5b60007f000000000000000000000000000000000000000000000000000000000000000073ffffffffffffffffffffffffffffffffffffffff166323b872dd33600360009054906101000a900473ffffffffffffffffffffffffffffffffffffffff166004546040518463ffffffff1660e01b8152600401611539939291906127f9565b6020604051808303816000875af1158015611558573d6000803e3d6000fd5b505050506040513d601f19601f8201168201806040525081019061157c91906122d7565b9050806115be576040517f08c379a00000000000000000000000000000000000000000000000000000000081526004016115b590612350565b60405180910390fd5b600554600760003373ffffffffffffffffffffffffffffffffffffffff1673ffffffffffffffffffffffffffffffffffffffff168152602001908152602001600020819055506001600860003373ffffffffffffffffffffffffffffffffffffffff1673ffffffffffffffffffffffffffffffffffffffff16815260200190815260200160002060006101000a81548160ff0219169083151502179055506006600081819054906101000a900463ffffffff168092919061167e906124da565b91906101000a81548163ffffffff021916908363ffffffff160217905550503373ffffffffffffffffffffffffffffffffffffffff167f0a37b72bb67eee30e09084cf386f8a17817c57f620c3ab95fb25d6a20356ec776004546005546040516116e9929190612830565b60405180910390a250565b6000600660089054906101000a900463ffffffff16905090565b6000600454905090565b6117206119ce565b73ffffffffffffffffffffffffffffffffffffffff1661173e610cc0565b73ffffffffffffffffffffffffffffffffffffffff1614611794576040517f08c379a000000000000000000000000000000000000000000000000000000000815260040161178b90612167565b60405180910390fd5b61179c610cc0565b73ffffffffffffffffffffffffffffffffffffffff166108fc479081150290604051600060405180830381858888f193505050501580156117e1573d6000803e3d6000fd5b50565b6006601c9054906101000a900460ff1681565b6000600660009054906101000a900463ffffffff1663ffffffff16905090565b61181f6119ce565b73ffffffffffffffffffffffffffffffffffffffff1661183d610cc0565b73ffffffffffffffffffffffffffffffffffffffff1614611893576040517f08c379a000000000000000000000000000000000000000000000000000000000815260040161188a90612167565b60405180910390fd5b600073ffffffffffffffffffffffffffffffffffffffff168173ffffffffffffffffffffffffffffffffffffffff1603611902576040517f08c379a00000000000000000000000000000000000000000000000000000000081526004016118f9906128cb565b60405180910390fd5b61190b816119d6565b50565b6119166119ce565b73ffffffffffffffffffffffffffffffffffffffff16611934610cc0565b73ffffffffffffffffffffffffffffffffffffffff161461198a576040517f08c379a000000000000000000000000000000000000000000000000000000000815260040161198190612167565b60405180910390fd5b80600360006101000a81548173ffffffffffffffffffffffffffffffffffffffff021916908373ffffffffffffffffffffffffffffffffffffffff16021790555050565b600033905090565b60008060009054906101000a900473ffffffffffffffffffffffffffffffffffffffff169050816000806101000a81548173ffffffffffffffffffffffffffffffffffffffff021916908373ffffffffffffffffffffffffffffffffffffffff1602179055508173ffffffffffffffffffffffffffffffffffffffff168173ffffffffffffffffffffffffffffffffffffffff167f8be0079c531659141344cd1fd0a4f28419497f9722a3daafe3b4186f6b6457e060405160405180910390a35050565b600073ffffffffffffffffffffffffffffffffffffffff82169050919050565b6000611ac582611a9a565b9050919050565b611ad581611aba565b82525050565b6000602082019050611af06000830184611acc565b92915050565b600067ffffffffffffffff82169050919050565b611b1381611af6565b82525050565b6000602082019050611b2e6000830184611b0a565b92915050565b6000604051905090565b600080fd5b600080fd5b600080fd5b6000601f19601f8301169050919050565b7f4e487b7100000000000000000000000000000000000000000000000000000000600052604160045260246000fd5b611b9682611b4d565b810181811067ffffffffffffffff82111715611bb557611bb4611b5e565b5b80604052505050565b6000611bc8611b34565b9050611bd48282611b8d565b919050565b600067ffffffffffffffff821115611bf457611bf3611b5e565b5b602082029050602081019050919050565b600080fd5b611c1381611aba565b8114611c1e57600080fd5b50565b600081359050611c3081611c0a565b92915050565b6000611c49611c4484611bd9565b611bbe565b90508083825260208201905060208402830185811115611c6c57611c6b611c05565b5b835b81811015611c955780611c818882611c21565b845260208401935050602081019050611c6e565b5050509392505050565b600082601f830112611cb457611cb3611b48565b5b8135611cc4848260208601611c36565b91505092915050565b600067ffffffffffffffff821115611ce857611ce7611b5e565b5b602082029050602081019050919050565b60008115159050919050565b611d0e81611cf9565b8114611d1957600080fd5b50565b600081359050611d2b81611d05565b92915050565b6000611d44611d3f84611ccd565b611bbe565b90508083825260208201905060208402830185811115611d6757611d66611c05565b5b835b81811015611d905780611d7c8882611d1c565b845260208401935050602081019050611d69565b5050509392505050565b600082601f830112611daf57611dae611b48565b5b8135611dbf848260208601611d31565b91505092915050565b60008060408385031215611ddf57611dde611b3e565b5b600083013567ffffffffffffffff811115611dfd57611dfc611b43565b5b611e0985828601611c9f565b925050602083013567ffffffffffffffff811115611e2a57611e29611b43565b5b611e3685828601611d9a565b9150509250929050565b6000819050919050565b611e5381611e40565b8114611e5e57600080fd5b50565b600081359050611e7081611e4a565b92915050565b600060208284031215611e8c57611e8b611b3e565b5b6000611e9a84828501611e61565b91505092915050565b600060208284031215611eb957611eb8611b3e565b5b6000611ec784828501611c21565b91505092915050565b611ed981611cf9565b82525050565b6000602082019050611ef46000830184611ed0565b92915050565b60008060408385031215611f1157611f10611b3e565b5b6000611f1f85828601611c21565b9250506020611f3085828601611d1c565b9150509250929050565b600060208284031215611f5057611f4f611b3e565b5b6000611f5e84828501611d1c565b91505092915050565b600063ffffffff82169050919050565b611f8081611f67565b8114611f8b57600080fd5b50565b600081359050611f9d81611f77565b92915050565b600060208284031215611fb957611fb8611b3e565b5b6000611fc784828501611f8e565b91505092915050565b611fd981611e40565b82525050565b6000602082019050611ff46000830184611fd0565b92915050565b6000819050919050565b600061201f61201a61201584611a9a565b611ffa565b611a9a565b9050919050565b600061203182612004565b9050919050565b600061204382612026565b9050919050565b61205381612038565b82525050565b600060208201905061206e600083018461204a565b92915050565b61207d81611af6565b811461208857600080fd5b50565b60008135905061209a81612074565b92915050565b600080604083850312156120b7576120b6611b3e565b5b60006120c58582860161208b565b92505060206120d68582860161208b565b9150509250929050565b6120e981611f67565b82525050565b600060208201905061210460008301846120e0565b92915050565b600082825260208201905092915050565b7f4f776e61626c653a2063616c6c6572206973206e6f7420746865206f776e6572600082015250565b600061215160208361210a565b915061215c8261211b565b602082019050919050565b6000602082019050818103600083015261218081612144565b9050919050565b7f6172726174206c656e677468206572726f720000000000000000000000000000600082015250565b60006121bd60128361210a565b91506121c882612187565b602082019050919050565b600060208201905081810360008301526121ec816121b0565b9050919050565b7f4e487b7100000000000000000000000000000000000000000000000000000000600052603260045260246000fd5b7f4e487b7100000000000000000000000000000000000000000000000000000000600052601160045260246000fd5b600061225c82611e40565b91507fffffffffffffffffffffffffffffffffffffffffffffffffffffffffffffffff820361228e5761228d612222565b5b600182019050919050565b60006040820190506122ae6000830185611acc565b6122bb6020830184611fd0565b9392505050565b6000815190506122d181611d05565b92915050565b6000602082840312156122ed576122ec611b3e565b5b60006122fb848285016122c2565b91505092915050565b7f546f6b656e207472616e73666572206661696c65640000000000000000000000600082015250565b600061233a60158361210a565b915061234582612304565b602082019050919050565b600060208201905081810360008301526123698161232d565b9050919050565b7f5468652073746172742074696d652068617320706173736564206f7220656e6460008201527f2074696d65206d757374206d6f7265207468616e207374617274000000000000602082015250565b60006123cc603a8361210a565b91506123d782612370565b604082019050919050565b600060208201905081810360008301526123fb816123bf565b9050919050565b7f70726573656c6c206e6f7420656e640000000000000000000000000000000000600082015250565b6000612438600f8361210a565b915061244382612402565b602082019050919050565b600060208201905081810360008301526124678161242b565b9050919050565b7f757365722062616c616e6365207a65726f000000000000000000000000000000600082015250565b60006124a460118361210a565b91506124af8261246e565b602082019050919050565b600060208201905081810360008301526124d381612497565b9050919050565b60006124e582611f67565b915063ffffffff82036124fb576124fa612222565b5b600182019050919050565b7f6e6f7420696e2077686974654c69737400000000000000000000000000000000600082015250565b600061253c60108361210a565b915061254782612506565b602082019050919050565b6000602082019050818103600083015261256b8161252f565b9050919050565b7f6e6f742073746172740000000000000000000000000000000000000000000000600082015250565b60006125a860098361210a565b91506125b382612572565b602082019050919050565b600060208201905081810360008301526125d78161259b565b9050919050565b7f68617320656e6400000000000000000000000000000000000000000000000000600082015250565b600061261460078361210a565b915061261f826125de565b602082019050919050565b6000602082019050818103600083015261264381612607565b9050919050565b7f5072652d6f72646572732061726520736f6c64206f7574000000000000000000600082015250565b600061268060178361210a565b915061268b8261264a565b602082019050919050565b600060208201905081810360008301526126af81612673565b9050919050565b7f616c726561647920707572636861736564000000000000000000000000000000600082015250565b60006126ec60118361210a565b91506126f7826126b6565b602082019050919050565b6000602082019050818103600083015261271b816126df565b9050919050565b60006040820190506127376000830185611acc565b6127446020830184611acc565b9392505050565b60008151905061275a81611e4a565b92915050565b60006020828403121561277657612775611b3e565b5b60006127848482850161274b565b91505092915050565b7f75736474546f6b656e20616c6c6f77616e636520746f6f206c6f770000000000600082015250565b60006127c3601b8361210a565b91506127ce8261278d565b602082019050919050565b600060208201905081810360008301526127f2816127b6565b9050919050565b600060608201905061280e6000830186611acc565b61281b6020830185611acc565b6128286040830184611fd0565b949350505050565b60006040820190506128456000830185611fd0565b6128526020830184611fd0565b9392505050565b7f4f776e61626c653a206e6577206f776e657220697320746865207a65726f206160008201527f6464726573730000000000000000000000000000000000000000000000000000602082015250565b60006128b560268361210a565b91506128c082612859565b604082019050919050565b600060208201905081810360008301526128e4816128a8565b905091905056fea2646970667358221220a65529e4d051976887ce181244c9f6cc21fbbef3be37146c370295aac70206d864736f6c63430008110033",
					"opcodes": "PUSH1 0xC0 PUSH1 0x40 MSTORE PUSH20 0x55D398326F99059FF775485246999027B3197955 PUSH1 0x1 PUSH1 0x0 PUSH2 0x100 EXP DUP2 SLOAD DUP2 PUSH20 0xFFFFFFFFFFFFFFFFFFFFFFFFFFFFFFFFFFFFFFFF MUL NOT AND SWAP1 DUP4 PUSH20 0xFFFFFFFFFFFFFFFFFFFFFFFFFFFFFFFFFFFFFFFF AND MUL OR SWAP1 SSTORE POP PUSH20 0xA3247B33BAA9EA15B699C77237D5B16F5CFD822F PUSH1 0x2 PUSH1 0x0 PUSH2 0x100 EXP DUP2 SLOAD DUP2 PUSH20 0xFFFFFFFFFFFFFFFFFFFFFFFFFFFFFFFFFFFFFFFF MUL NOT AND SWAP1 DUP4 PUSH20 0xFFFFFFFFFFFFFFFFFFFFFFFFFFFFFFFFFFFFFFFF AND MUL OR SWAP1 SSTORE POP PUSH20 0xD3C0B6AA1538D639912789BE705F18B5FD89FCE6 PUSH1 0x3 PUSH1 0x0 PUSH2 0x100 EXP DUP2 SLOAD DUP2 PUSH20 0xFFFFFFFFFFFFFFFFFFFFFFFFFFFFFFFFFFFFFFFF MUL NOT AND SWAP1 DUP4 PUSH20 0xFFFFFFFFFFFFFFFFFFFFFFFFFFFFFFFFFFFFFFFF AND MUL OR SWAP1 SSTORE POP PUSH8 0xDE0B6B3A7640000 PUSH1 0x4 SSTORE PUSH9 0xF3F20B8DFA69D00000 PUSH1 0x5 SSTORE PUSH1 0xA PUSH1 0x6 PUSH1 0x8 PUSH2 0x100 EXP DUP2 SLOAD DUP2 PUSH4 0xFFFFFFFF MUL NOT AND SWAP1 DUP4 PUSH4 0xFFFFFFFF AND MUL OR SWAP1 SSTORE POP CALLVALUE DUP1 ISZERO PUSH3 0x14B JUMPI PUSH1 0x0 DUP1 REVERT JUMPDEST POP PUSH1 0x40 MLOAD PUSH3 0x2EF6 CODESIZE SUB DUP1 PUSH3 0x2EF6 DUP4 CODECOPY DUP2 DUP2 ADD PUSH1 0x40 MSTORE DUP2 ADD SWAP1 PUSH3 0x171 SWAP2 SWAP1 PUSH3 0x457 JUMP JUMPDEST PUSH3 0x191 PUSH3 0x185 PUSH3 0x341 PUSH1 0x20 SHL PUSH1 0x20 SHR JUMP JUMPDEST PUSH3 0x349 PUSH1 0x20 SHL PUSH1 0x20 SHR JUMP JUMPDEST TIMESTAMP DUP3 PUSH8 0xFFFFFFFFFFFFFFFF AND LT ISZERO PUSH3 0x1E1 JUMPI PUSH1 0x40 MLOAD PUSH32 0x8C379A000000000000000000000000000000000000000000000000000000000 DUP2 MSTORE PUSH1 0x4 ADD PUSH3 0x1D8 SWAP1 PUSH3 0x4FF JUMP JUMPDEST PUSH1 0x40 MLOAD DUP1 SWAP2 SUB SWAP1 REVERT JUMPDEST DUP2 PUSH8 0xFFFFFFFFFFFFFFFF AND DUP2 PUSH8 0xFFFFFFFFFFFFFFFF AND LT ISZERO PUSH3 0x23B JUMPI PUSH1 0x40 MLOAD PUSH32 0x8C379A000000000000000000000000000000000000000000000000000000000 DUP2 MSTORE PUSH1 0x4 ADD PUSH3 0x232 SWAP1 PUSH3 0x571 JUMP JUMPDEST PUSH1 0x40 MLOAD DUP1 SWAP2 SUB SWAP1 REVERT JUMPDEST DUP2 PUSH1 0x6 PUSH1 0xC PUSH2 0x100 EXP DUP2 SLOAD DUP2 PUSH8 0xFFFFFFFFFFFFFFFF MUL NOT AND SWAP1 DUP4 PUSH8 0xFFFFFFFFFFFFFFFF AND MUL OR SWAP1 SSTORE POP DUP1 PUSH1 0x6 PUSH1 0x14 PUSH2 0x100 EXP DUP2 SLOAD DUP2 PUSH8 0xFFFFFFFFFFFFFFFF MUL NOT AND SWAP1 DUP4 PUSH8 0xFFFFFFFFFFFFFFFF AND MUL OR SWAP1 SSTORE POP PUSH1 0x1 PUSH1 0x0 SWAP1 SLOAD SWAP1 PUSH2 0x100 EXP SWAP1 DIV PUSH20 0xFFFFFFFFFFFFFFFFFFFFFFFFFFFFFFFFFFFFFFFF AND PUSH20 0xFFFFFFFFFFFFFFFFFFFFFFFFFFFFFFFFFFFFFFFF AND PUSH1 0x80 DUP2 PUSH20 0xFFFFFFFFFFFFFFFFFFFFFFFFFFFFFFFFFFFFFFFF AND DUP2 MSTORE POP POP PUSH1 0x2 PUSH1 0x0 SWAP1 SLOAD SWAP1 PUSH2 0x100 EXP SWAP1 DIV PUSH20 0xFFFFFFFFFFFFFFFFFFFFFFFFFFFFFFFFFFFFFFFF AND PUSH20 0xFFFFFFFFFFFFFFFFFFFFFFFFFFFFFFFFFFFFFFFF AND PUSH1 0xA0 DUP2 PUSH20 0xFFFFFFFFFFFFFFFFFFFFFFFFFFFFFFFFFFFFFFFF AND DUP2 MSTORE POP POP POP POP PUSH3 0x593 JUMP JUMPDEST PUSH1 0x0 CALLER SWAP1 POP SWAP1 JUMP JUMPDEST PUSH1 0x0 DUP1 PUSH1 0x0 SWAP1 SLOAD SWAP1 PUSH2 0x100 EXP SWAP1 DIV PUSH20 0xFFFFFFFFFFFFFFFFFFFFFFFFFFFFFFFFFFFFFFFF AND SWAP1 POP DUP2 PUSH1 0x0 DUP1 PUSH2 0x100 EXP DUP2 SLOAD DUP2 PUSH20 0xFFFFFFFFFFFFFFFFFFFFFFFFFFFFFFFFFFFFFFFF MUL NOT AND SWAP1 DUP4 PUSH20 0xFFFFFFFFFFFFFFFFFFFFFFFFFFFFFFFFFFFFFFFF AND MUL OR SWAP1 SSTORE POP DUP2 PUSH20 0xFFFFFFFFFFFFFFFFFFFFFFFFFFFFFFFFFFFFFFFF AND DUP2 PUSH20 0xFFFFFFFFFFFFFFFFFFFFFFFFFFFFFFFFFFFFFFFF AND PUSH32 0x8BE0079C531659141344CD1FD0A4F28419497F9722A3DAAFE3B4186F6B6457E0 PUSH1 0x40 MLOAD PUSH1 0x40 MLOAD DUP1 SWAP2 SUB SWAP1 LOG3 POP POP JUMP JUMPDEST PUSH1 0x0 DUP1 REVERT JUMPDEST PUSH1 0x0 PUSH8 0xFFFFFFFFFFFFFFFF DUP3 AND SWAP1 POP SWAP2 SWAP1 POP JUMP JUMPDEST PUSH3 0x431 DUP2 PUSH3 0x412 JUMP JUMPDEST DUP2 EQ PUSH3 0x43D JUMPI PUSH1 0x0 DUP1 REVERT JUMPDEST POP JUMP JUMPDEST PUSH1 0x0 DUP2 MLOAD SWAP1 POP PUSH3 0x451 DUP2 PUSH3 0x426 JUMP JUMPDEST SWAP3 SWAP2 POP POP JUMP JUMPDEST PUSH1 0x0 DUP1 PUSH1 0x40 DUP4 DUP6 SUB SLT ISZERO PUSH3 0x471 JUMPI PUSH3 0x470 PUSH3 0x40D JUMP JUMPDEST JUMPDEST PUSH1 0x0 PUSH3 0x481 DUP6 DUP3 DUP7 ADD PUSH3 0x440 JUMP JUMPDEST SWAP3 POP POP PUSH1 0x20 PUSH3 0x494 DUP6 DUP3 DUP7 ADD PUSH3 0x440 JUMP JUMPDEST SWAP2 POP POP SWAP3 POP SWAP3 SWAP1 POP JUMP JUMPDEST PUSH1 0x0 DUP3 DUP3 MSTORE PUSH1 0x20 DUP3 ADD SWAP1 POP SWAP3 SWAP2 POP POP JUMP JUMPDEST PUSH32 0x7374617274206174203C206E6F77000000000000000000000000000000000000 PUSH1 0x0 DUP3 ADD MSTORE POP JUMP JUMPDEST PUSH1 0x0 PUSH3 0x4E7 PUSH1 0xE DUP4 PUSH3 0x49E JUMP JUMPDEST SWAP2 POP PUSH3 0x4F4 DUP3 PUSH3 0x4AF JUMP JUMPDEST PUSH1 0x20 DUP3 ADD SWAP1 POP SWAP2 SWAP1 POP JUMP JUMPDEST PUSH1 0x0 PUSH1 0x20 DUP3 ADD SWAP1 POP DUP2 DUP2 SUB PUSH1 0x0 DUP4 ADD MSTORE PUSH3 0x51A DUP2 PUSH3 0x4D8 JUMP JUMPDEST SWAP1 POP SWAP2 SWAP1 POP JUMP JUMPDEST PUSH32 0x656E64206174203C207374617274206174000000000000000000000000000000 PUSH1 0x0 DUP3 ADD MSTORE POP JUMP JUMPDEST PUSH1 0x0 PUSH3 0x559 PUSH1 0x11 DUP4 PUSH3 0x49E JUMP JUMPDEST SWAP2 POP PUSH3 0x566 DUP3 PUSH3 0x521 JUMP JUMPDEST PUSH1 0x20 DUP3 ADD SWAP1 POP SWAP2 SWAP1 POP JUMP JUMPDEST PUSH1 0x0 PUSH1 0x20 DUP3 ADD SWAP1 POP DUP2 DUP2 SUB PUSH1 0x0 DUP4 ADD MSTORE PUSH3 0x58C DUP2 PUSH3 0x54A JUMP JUMPDEST SWAP1 POP SWAP2 SWAP1 POP JUMP JUMPDEST PUSH1 0x80 MLOAD PUSH1 0xA0 MLOAD PUSH2 0x2921 PUSH3 0x5D5 PUSH1 0x0 CODECOPY PUSH1 0x0 DUP2 DUP2 PUSH2 0xA3D ADD MSTORE DUP2 DUP2 PUSH2 0xD29 ADD MSTORE PUSH2 0xFB7 ADD MSTORE PUSH1 0x0 DUP2 DUP2 PUSH2 0xD4D ADD MSTORE DUP2 DUP2 PUSH2 0x13DB ADD MSTORE PUSH2 0x14BA ADD MSTORE PUSH2 0x2921 PUSH1 0x0 RETURN INVALID PUSH1 0x80 PUSH1 0x40 MSTORE CALLVALUE DUP1 ISZERO PUSH2 0x10 JUMPI PUSH1 0x0 DUP1 REVERT JUMPDEST POP PUSH1 0x4 CALLDATASIZE LT PUSH2 0x1F0 JUMPI PUSH1 0x0 CALLDATALOAD PUSH1 0xE0 SHR DUP1 PUSH4 0x8DA5CB5B GT PUSH2 0x10F JUMPI DUP1 PUSH4 0xD0FEBE4C GT PUSH2 0xA2 JUMPI DUP1 PUSH4 0xDCD83616 GT PUSH2 0x71 JUMPI DUP1 PUSH4 0xDCD83616 EQ PUSH2 0x539 JUMPI DUP1 PUSH4 0xF01FC57C EQ PUSH2 0x557 JUMPI DUP1 PUSH4 0xF2FDE38B EQ PUSH2 0x575 JUMPI DUP1 PUSH4 0xFAE92612 EQ PUSH2 0x591 JUMPI PUSH2 0x1F0 JUMP JUMPDEST DUP1 PUSH4 0xD0FEBE4C EQ PUSH2 0x4E9 JUMPI DUP1 PUSH4 0xD1D04E1F EQ PUSH2 0x4F3 JUMPI DUP1 PUSH4 0xD35CDE41 EQ PUSH2 0x511 JUMPI DUP1 PUSH4 0xDB2E21BC EQ PUSH2 0x52F JUMPI PUSH2 0x1F0 JUMP JUMPDEST DUP1 PUSH4 0xA98AD46C GT PUSH2 0xDE JUMPI DUP1 PUSH4 0xA98AD46C EQ PUSH2 0x487 JUMPI DUP1 PUSH4 0xACF6C91C EQ PUSH2 0x4A5 JUMPI DUP1 PUSH4 0xC828371E EQ PUSH2 0x4C1 JUMPI DUP1 PUSH4 0xC9EDE793 EQ PUSH2 0x4DF JUMPI PUSH2 0x1F0 JUMP JUMPDEST DUP1 PUSH4 0x8DA5CB5B EQ PUSH2 0x3FD JUMPI DUP1 PUSH4 0x90F5881A EQ PUSH2 0x41B JUMPI DUP1 PUSH4 0x95623641 EQ PUSH2 0x44B JUMPI DUP1 PUSH4 0x9769F0B0 EQ PUSH2 0x469 JUMPI PUSH2 0x1F0 JUMP JUMPDEST DUP1 PUSH4 0x439F5AC2 GT PUSH2 0x187 JUMPI DUP1 PUSH4 0x715018A6 GT PUSH2 0x156 JUMPI DUP1 PUSH4 0x715018A6 EQ PUSH2 0x387 JUMPI DUP1 PUSH4 0x78EB6C6F EQ PUSH2 0x391 JUMPI DUP1 PUSH4 0x8568F4CE EQ PUSH2 0x3AF JUMPI DUP1 PUSH4 0x88AF60C6 EQ PUSH2 0x3DF JUMPI PUSH2 0x1F0 JUMP JUMPDEST DUP1 PUSH4 0x439F5AC2 EQ PUSH2 0x315 JUMPI DUP1 PUSH4 0x50B2B0A4 EQ PUSH2 0x333 JUMPI DUP1 PUSH4 0x5FC1CB63 EQ PUSH2 0x34F JUMPI DUP1 PUSH4 0x69C82EF7 EQ PUSH2 0x36B JUMPI PUSH2 0x1F0 JUMP JUMPDEST DUP1 PUSH4 0x372C12B1 GT PUSH2 0x1C3 JUMPI DUP1 PUSH4 0x372C12B1 EQ PUSH2 0x269 JUMPI DUP1 PUSH4 0x374EEDEF EQ PUSH2 0x299 JUMPI DUP1 PUSH4 0x39B417B7 EQ PUSH2 0x2C9 JUMPI DUP1 PUSH4 0x3D719DA7 EQ PUSH2 0x2E5 JUMPI PUSH2 0x1F0 JUMP JUMPDEST DUP1 PUSH4 0x27734FA EQ PUSH2 0x1F5 JUMPI DUP1 PUSH4 0x3D7424D EQ PUSH2 0x213 JUMPI DUP1 PUSH4 0x8C9D227 EQ PUSH2 0x231 JUMPI DUP1 PUSH4 0x271F88B4 EQ PUSH2 0x24D JUMPI JUMPDEST PUSH1 0x0 DUP1 REVERT JUMPDEST PUSH2 0x1FD PUSH2 0x5AD JUMP JUMPDEST PUSH1 0x40 MLOAD PUSH2 0x20A SWAP2 SWAP1 PUSH2 0x1ADB JUMP JUMPDEST PUSH1 0x40 MLOAD DUP1 SWAP2 SUB SWAP1 RETURN JUMPDEST PUSH2 0x21B PUSH2 0x5D3 JUMP JUMPDEST PUSH1 0x40 MLOAD PUSH2 0x228 SWAP2 SWAP1 PUSH2 0x1B19 JUMP JUMPDEST PUSH1 0x40 MLOAD DUP1 SWAP2 SUB SWAP1 RETURN JUMPDEST PUSH2 0x24B PUSH1 0x4 DUP1 CALLDATASIZE SUB DUP2 ADD SWAP1 PUSH2 0x246 SWAP2 SWAP1 PUSH2 0x1DC8 JUMP JUMPDEST PUSH2 0x5F3 JUMP JUMPDEST STOP JUMPDEST PUSH2 0x267 PUSH1 0x4 DUP1 CALLDATASIZE SUB DUP2 ADD SWAP1 PUSH2 0x262 SWAP2 SWAP1 PUSH2 0x1E76 JUMP JUMPDEST PUSH2 0x713 JUMP JUMPDEST STOP JUMPDEST PUSH2 0x283 PUSH1 0x4 DUP1 CALLDATASIZE SUB DUP2 ADD SWAP1 PUSH2 0x27E SWAP2 SWAP1 PUSH2 0x1EA3 JUMP JUMPDEST PUSH2 0x799 JUMP JUMPDEST PUSH1 0x40 MLOAD PUSH2 0x290 SWAP2 SWAP1 PUSH2 0x1EDF JUMP JUMPDEST PUSH1 0x40 MLOAD DUP1 SWAP2 SUB SWAP1 RETURN JUMPDEST PUSH2 0x2B3 PUSH1 0x4 DUP1 CALLDATASIZE SUB DUP2 ADD SWAP1 PUSH2 0x2AE SWAP2 SWAP1 PUSH2 0x1EA3 JUMP JUMPDEST PUSH2 0x7B9 JUMP JUMPDEST PUSH1 0x40 MLOAD PUSH2 0x2C0 SWAP2 SWAP1 PUSH2 0x1EDF JUMP JUMPDEST PUSH1 0x40 MLOAD DUP1 SWAP2 SUB SWAP1 RETURN JUMPDEST PUSH2 0x2E3 PUSH1 0x4 DUP1 CALLDATASIZE SUB DUP2 ADD SWAP1 PUSH2 0x2DE SWAP2 SWAP1 PUSH2 0x1EFA JUMP JUMPDEST PUSH2 0x80F JUMP JUMPDEST STOP JUMPDEST PUSH2 0x2FF PUSH1 0x4 DUP1 CALLDATASIZE SUB DUP2 ADD SWAP1 PUSH2 0x2FA SWAP2 SWAP1 PUSH2 0x1EA3 JUMP JUMPDEST PUSH2 0x8E6 JUMP JUMPDEST PUSH1 0x40 MLOAD PUSH2 0x30C SWAP2 SWAP1 PUSH2 0x1EDF JUMP JUMPDEST PUSH1 0x40 MLOAD DUP1 SWAP2 SUB SWAP1 RETURN JUMPDEST PUSH2 0x31D PUSH2 0x906 JUMP JUMPDEST PUSH1 0x40 MLOAD PUSH2 0x32A SWAP2 SWAP1 PUSH2 0x1B19 JUMP JUMPDEST PUSH1 0x40 MLOAD DUP1 SWAP2 SUB SWAP1 RETURN JUMPDEST PUSH2 0x34D PUSH1 0x4 DUP1 CALLDATASIZE SUB DUP2 ADD SWAP1 PUSH2 0x348 SWAP2 SWAP1 PUSH2 0x1F3A JUMP JUMPDEST PUSH2 0x924 JUMP JUMPDEST STOP JUMPDEST PUSH2 0x369 PUSH1 0x4 DUP1 CALLDATASIZE SUB DUP2 ADD SWAP1 PUSH2 0x364 SWAP2 SWAP1 PUSH2 0x1E76 JUMP JUMPDEST PUSH2 0x9BD JUMP JUMPDEST STOP JUMPDEST PUSH2 0x385 PUSH1 0x4 DUP1 CALLDATASIZE SUB DUP2 ADD SWAP1 PUSH2 0x380 SWAP2 SWAP1 PUSH2 0x1FA3 JUMP JUMPDEST PUSH2 0xB1F JUMP JUMPDEST STOP JUMPDEST PUSH2 0x38F PUSH2 0xBBF JUMP JUMPDEST STOP JUMPDEST PUSH2 0x399 PUSH2 0xC47 JUMP JUMPDEST PUSH1 0x40 MLOAD PUSH2 0x3A6 SWAP2 SWAP1 PUSH2 0x1FDF JUMP JUMPDEST PUSH1 0x40 MLOAD DUP1 SWAP2 SUB SWAP1 RETURN JUMPDEST PUSH2 0x3C9 PUSH1 0x4 DUP1 CALLDATASIZE SUB DUP2 ADD SWAP1 PUSH2 0x3C4 SWAP2 SWAP1 PUSH2 0x1EA3 JUMP JUMPDEST PUSH2 0xC51 JUMP JUMPDEST PUSH1 0x40 MLOAD PUSH2 0x3D6 SWAP2 SWAP1 PUSH2 0x1FDF JUMP JUMPDEST PUSH1 0x40 MLOAD DUP1 SWAP2 SUB SWAP1 RETURN JUMPDEST PUSH2 0x3E7 PUSH2 0xC9A JUMP JUMPDEST PUSH1 0x40 MLOAD PUSH2 0x3F4 SWAP2 SWAP1 PUSH2 0x1ADB JUMP JUMPDEST PUSH1 0x40 MLOAD DUP1 SWAP2 SUB SWAP1 RETURN JUMPDEST PUSH2 0x405 PUSH2 0xCC0 JUMP JUMPDEST PUSH1 0x40 MLOAD PUSH2 0x412 SWAP2 SWAP1 PUSH2 0x1ADB JUMP JUMPDEST PUSH1 0x40 MLOAD DUP1 SWAP2 SUB SWAP1 RETURN JUMPDEST PUSH2 0x435 PUSH1 0x4 DUP1 CALLDATASIZE SUB DUP2 ADD SWAP1 PUSH2 0x430 SWAP2 SWAP1 PUSH2 0x1EA3 JUMP JUMPDEST PUSH2 0xCE9 JUMP JUMPDEST PUSH1 0x40 MLOAD PUSH2 0x442 SWAP2 SWAP1 PUSH2 0x1FDF JUMP JUMPDEST PUSH1 0x40 MLOAD DUP1 SWAP2 SUB SWAP1 RETURN JUMPDEST PUSH2 0x453 PUSH2 0xD01 JUMP JUMPDEST PUSH1 0x40 MLOAD PUSH2 0x460 SWAP2 SWAP1 PUSH2 0x1ADB JUMP JUMPDEST PUSH1 0x40 MLOAD DUP1 SWAP2 SUB SWAP1 RETURN JUMPDEST PUSH2 0x471 PUSH2 0xD27 JUMP JUMPDEST PUSH1 0x40 MLOAD PUSH2 0x47E SWAP2 SWAP1 PUSH2 0x2059 JUMP JUMPDEST PUSH1 0x40 MLOAD DUP1 SWAP2 SUB SWAP1 RETURN JUMPDEST PUSH2 0x48F PUSH2 0xD4B JUMP JUMPDEST PUSH1 0x40 MLOAD PUSH2 0x49C SWAP2 SWAP1 PUSH2 0x2059 JUMP JUMPDEST PUSH1 0x40 MLOAD DUP1 SWAP2 SUB SWAP1 RETURN JUMPDEST PUSH2 0x4BF PUSH1 0x4 DUP1 CALLDATASIZE SUB DUP2 ADD SWAP1 PUSH2 0x4BA SWAP2 SWAP1 PUSH2 0x20A0 JUMP JUMPDEST PUSH2 0xD6F JUMP JUMPDEST STOP JUMPDEST PUSH2 0x4C9 PUSH2 0xEAC JUMP JUMPDEST PUSH1 0x40 MLOAD PUSH2 0x4D6 SWAP2 SWAP1 PUSH2 0x1B19 JUMP JUMPDEST PUSH1 0x40 MLOAD DUP1 SWAP2 SUB SWAP1 RETURN JUMPDEST PUSH2 0x4E7 PUSH2 0xECA JUMP JUMPDEST STOP JUMPDEST PUSH2 0x4F1 PUSH2 0x116D JUMP JUMPDEST STOP JUMPDEST PUSH2 0x4FB PUSH2 0x16F4 JUMP JUMPDEST PUSH1 0x40 MLOAD PUSH2 0x508 SWAP2 SWAP1 PUSH2 0x20EF JUMP JUMPDEST PUSH1 0x40 MLOAD DUP1 SWAP2 SUB SWAP1 RETURN JUMPDEST PUSH2 0x519 PUSH2 0x170E JUMP JUMPDEST PUSH1 0x40 MLOAD PUSH2 0x526 SWAP2 SWAP1 PUSH2 0x1FDF JUMP JUMPDEST PUSH1 0x40 MLOAD DUP1 SWAP2 SUB SWAP1 RETURN JUMPDEST PUSH2 0x537 PUSH2 0x1718 JUMP JUMPDEST STOP JUMPDEST PUSH2 0x541 PUSH2 0x17E4 JUMP JUMPDEST PUSH1 0x40 MLOAD PUSH2 0x54E SWAP2 SWAP1 PUSH2 0x1EDF JUMP JUMPDEST PUSH1 0x40 MLOAD DUP1 SWAP2 SUB SWAP1 RETURN JUMPDEST PUSH2 0x55F PUSH2 0x17F7 JUMP JUMPDEST PUSH1 0x40 MLOAD PUSH2 0x56C SWAP2 SWAP1 PUSH2 0x1B19 JUMP JUMPDEST PUSH1 0x40 MLOAD DUP1 SWAP2 SUB SWAP1 RETURN JUMPDEST PUSH2 0x58F PUSH1 0x4 DUP1 CALLDATASIZE SUB DUP2 ADD SWAP1 PUSH2 0x58A SWAP2 SWAP1 PUSH2 0x1EA3 JUMP JUMPDEST PUSH2 0x1817 JUMP JUMPDEST STOP JUMPDEST PUSH2 0x5AB PUSH1 0x4 DUP1 CALLDATASIZE SUB DUP2 ADD SWAP1 PUSH2 0x5A6 SWAP2 SWAP1 PUSH2 0x1EA3 JUMP JUMPDEST PUSH2 0x190E JUMP JUMPDEST STOP JUMPDEST PUSH1 0x2 PUSH1 0x0 SWAP1 SLOAD SWAP1 PUSH2 0x100 EXP SWAP1 DIV PUSH20 0xFFFFFFFFFFFFFFFFFFFFFFFFFFFFFFFFFFFFFFFF AND DUP2 JUMP JUMPDEST PUSH1 0x0 PUSH1 0x6 PUSH1 0x4 SWAP1 SLOAD SWAP1 PUSH2 0x100 EXP SWAP1 DIV PUSH4 0xFFFFFFFF AND PUSH4 0xFFFFFFFF AND SWAP1 POP SWAP1 JUMP JUMPDEST PUSH2 0x5FB PUSH2 0x19CE JUMP JUMPDEST PUSH20 0xFFFFFFFFFFFFFFFFFFFFFFFFFFFFFFFFFFFFFFFF AND PUSH2 0x619 PUSH2 0xCC0 JUMP JUMPDEST PUSH20 0xFFFFFFFFFFFFFFFFFFFFFFFFFFFFFFFFFFFFFFFF AND EQ PUSH2 0x66F JUMPI PUSH1 0x40 MLOAD PUSH32 0x8C379A000000000000000000000000000000000000000000000000000000000 DUP2 MSTORE PUSH1 0x4 ADD PUSH2 0x666 SWAP1 PUSH2 0x2167 JUMP JUMPDEST PUSH1 0x40 MLOAD DUP1 SWAP2 SUB SWAP1 REVERT JUMPDEST DUP1 MLOAD DUP3 MLOAD EQ PUSH2 0x6B3 JUMPI PUSH1 0x40 MLOAD PUSH32 0x8C379A000000000000000000000000000000000000000000000000000000000 DUP2 MSTORE PUSH1 0x4 ADD PUSH2 0x6AA SWAP1 PUSH2 0x21D3 JUMP JUMPDEST PUSH1 0x40 MLOAD DUP1 SWAP2 SUB SWAP1 REVERT JUMPDEST PUSH1 0x0 JUMPDEST DUP3 MLOAD DUP2 LT ISZERO PUSH2 0x70E JUMPI PUSH2 0x6FD DUP4 DUP3 DUP2 MLOAD DUP2 LT PUSH2 0x6D5 JUMPI PUSH2 0x6D4 PUSH2 0x21F3 JUMP JUMPDEST JUMPDEST PUSH1 0x20 MUL PUSH1 0x20 ADD ADD MLOAD DUP4 DUP4 DUP2 MLOAD DUP2 LT PUSH2 0x6F0 JUMPI PUSH2 0x6EF PUSH2 0x21F3 JUMP JUMPDEST JUMPDEST PUSH1 0x20 MUL PUSH1 0x20 ADD ADD MLOAD PUSH2 0x80F JUMP JUMPDEST DUP1 PUSH2 0x707 SWAP1 PUSH2 0x2251 JUMP JUMPDEST SWAP1 POP PUSH2 0x6B6 JUMP JUMPDEST POP POP POP JUMP JUMPDEST PUSH2 0x71B PUSH2 0x19CE JUMP JUMPDEST PUSH20 0xFFFFFFFFFFFFFFFFFFFFFFFFFFFFFFFFFFFFFFFF AND PUSH2 0x739 PUSH2 0xCC0 JUMP JUMPDEST PUSH20 0xFFFFFFFFFFFFFFFFFFFFFFFFFFFFFFFFFFFFFFFF AND EQ PUSH2 0x78F JUMPI PUSH1 0x40 MLOAD PUSH32 0x8C379A000000000000000000000000000000000000000000000000000000000 DUP2 MSTORE PUSH1 0x4 ADD PUSH2 0x786 SWAP1 PUSH2 0x2167 JUMP JUMPDEST PUSH1 0x40 MLOAD DUP1 SWAP2 SUB SWAP1 REVERT JUMPDEST DUP1 PUSH1 0x4 DUP2 SWAP1 SSTORE POP POP JUMP JUMPDEST PUSH1 0x9 PUSH1 0x20 MSTORE DUP1 PUSH1 0x0 MSTORE PUSH1 0x40 PUSH1 0x0 KECCAK256 PUSH1 0x0 SWAP2 POP SLOAD SWAP1 PUSH2 0x100 EXP SWAP1 DIV PUSH1 0xFF AND DUP2 JUMP JUMPDEST PUSH1 0x0 PUSH1 0x8 PUSH1 0x0 DUP4 PUSH20 0xFFFFFFFFFFFFFFFFFFFFFFFFFFFFFFFFFFFFFFFF AND PUSH20 0xFFFFFFFFFFFFFFFFFFFFFFFFFFFFFFFFFFFFFFFF AND DUP2 MSTORE PUSH1 0x20 ADD SWAP1 DUP2 MSTORE PUSH1 0x20 ADD PUSH1 0x0 KECCAK256 PUSH1 0x0 SWAP1 SLOAD SWAP1 PUSH2 0x100 EXP SWAP1 DIV PUSH1 0xFF AND SWAP1 POP SWAP2 SWAP1 POP JUMP JUMPDEST PUSH2 0x817 PUSH2 0x19CE JUMP JUMPDEST PUSH20 0xFFFFFFFFFFFFFFFFFFFFFFFFFFFFFFFFFFFFFFFF AND PUSH2 0x835 PUSH2 0xCC0 JUMP JUMPDEST PUSH20 0xFFFFFFFFFFFFFFFFFFFFFFFFFFFFFFFFFFFFFFFF AND EQ PUSH2 0x88B JUMPI PUSH1 0x40 MLOAD PUSH32 0x8C379A000000000000000000000000000000000000000000000000000000000 DUP2 MSTORE PUSH1 0x4 ADD PUSH2 0x882 SWAP1 PUSH2 0x2167 JUMP JUMPDEST PUSH1 0x40 MLOAD DUP1 SWAP2 SUB SWAP1 REVERT JUMPDEST DUP1 PUSH1 0x9 PUSH1 0x0 DUP5 PUSH20 0xFFFFFFFFFFFFFFFFFFFFFFFFFFFFFFFFFFFFFFFF AND PUSH20 0xFFFFFFFFFFFFFFFFFFFFFFFFFFFFFFFFFFFFFFFF AND DUP2 MSTORE PUSH1 0x20 ADD SWAP1 DUP2 MSTORE PUSH1 0x20 ADD PUSH1 0x0 KECCAK256 PUSH1 0x0 PUSH2 0x100 EXP DUP2 SLOAD DUP2 PUSH1 0xFF MUL NOT AND SWAP1 DUP4 ISZERO ISZERO MUL OR SWAP1 SSTORE POP POP POP JUMP JUMPDEST PUSH1 0x8 PUSH1 0x20 MSTORE DUP1 PUSH1 0x0 MSTORE PUSH1 0x40 PUSH1 0x0 KECCAK256 PUSH1 0x0 SWAP2 POP SLOAD SWAP1 PUSH2 0x100 EXP SWAP1 DIV PUSH1 0xFF AND DUP2 JUMP JUMPDEST PUSH1 0x0 PUSH1 0x6 PUSH1 0x14 SWAP1 SLOAD SWAP1 PUSH2 0x100 EXP SWAP1 DIV PUSH8 0xFFFFFFFFFFFFFFFF AND SWAP1 POP SWAP1 JUMP JUMPDEST PUSH2 0x92C PUSH2 0x19CE JUMP JUMPDEST PUSH20 0xFFFFFFFFFFFFFFFFFFFFFFFFFFFFFFFFFFFFFFFF AND PUSH2 0x94A PUSH2 0xCC0 JUMP JUMPDEST PUSH20 0xFFFFFFFFFFFFFFFFFFFFFFFFFFFFFFFFFFFFFFFF AND EQ PUSH2 0x9A0 JUMPI PUSH1 0x40 MLOAD PUSH32 0x8C379A000000000000000000000000000000000000000000000000000000000 DUP2 MSTORE PUSH1 0x4 ADD PUSH2 0x997 SWAP1 PUSH2 0x2167 JUMP JUMPDEST PUSH1 0x40 MLOAD DUP1 SWAP2 SUB SWAP1 REVERT JUMPDEST DUP1 PUSH1 0x6 PUSH1 0x1C PUSH2 0x100 EXP DUP2 SLOAD DUP2 PUSH1 0xFF MUL NOT AND SWAP1 DUP4 ISZERO ISZERO MUL OR SWAP1 SSTORE POP POP JUMP JUMPDEST PUSH2 0x9C5 PUSH2 0x19CE JUMP JUMPDEST PUSH20 0xFFFFFFFFFFFFFFFFFFFFFFFFFFFFFFFFFFFFFFFF AND PUSH2 0x9E3 PUSH2 0xCC0 JUMP JUMPDEST PUSH20 0xFFFFFFFFFFFFFFFFFFFFFFFFFFFFFFFFFFFFFFFF AND EQ PUSH2 0xA39 JUMPI PUSH1 0x40 MLOAD PUSH32 0x8C379A000000000000000000000000000000000000000000000000000000000 DUP2 MSTORE PUSH1 0x4 ADD PUSH2 0xA30 SWAP1 PUSH2 0x2167 JUMP JUMPDEST PUSH1 0x40 MLOAD DUP1 SWAP2 SUB SWAP1 REVERT JUMPDEST PUSH1 0x0 PUSH32 0x0 PUSH20 0xFFFFFFFFFFFFFFFFFFFFFFFFFFFFFFFFFFFFFFFF AND PUSH4 0xA9059CBB CALLER DUP5 PUSH1 0x40 MLOAD DUP4 PUSH4 0xFFFFFFFF AND PUSH1 0xE0 SHL DUP2 MSTORE PUSH1 0x4 ADD PUSH2 0xA96 SWAP3 SWAP2 SWAP1 PUSH2 0x2299 JUMP JUMPDEST PUSH1 0x20 PUSH1 0x40 MLOAD DUP1 DUP4 SUB DUP2 PUSH1 0x0 DUP8 GAS CALL ISZERO DUP1 ISZERO PUSH2 0xAB5 JUMPI RETURNDATASIZE PUSH1 0x0 DUP1 RETURNDATACOPY RETURNDATASIZE PUSH1 0x0 REVERT JUMPDEST POP POP POP POP PUSH1 0x40 MLOAD RETURNDATASIZE PUSH1 0x1F NOT PUSH1 0x1F DUP3 ADD AND DUP3 ADD DUP1 PUSH1 0x40 MSTORE POP DUP2 ADD SWAP1 PUSH2 0xAD9 SWAP2 SWAP1 PUSH2 0x22D7 JUMP JUMPDEST SWAP1 POP DUP1 PUSH2 0xB1B JUMPI PUSH1 0x40 MLOAD PUSH32 0x8C379A000000000000000000000000000000000000000000000000000000000 DUP2 MSTORE PUSH1 0x4 ADD PUSH2 0xB12 SWAP1 PUSH2 0x2350 JUMP JUMPDEST PUSH1 0x40 MLOAD DUP1 SWAP2 SUB SWAP1 REVERT JUMPDEST POP POP JUMP JUMPDEST PUSH2 0xB27 PUSH2 0x19CE JUMP JUMPDEST PUSH20 0xFFFFFFFFFFFFFFFFFFFFFFFFFFFFFFFFFFFFFFFF AND PUSH2 0xB45 PUSH2 0xCC0 JUMP JUMPDEST PUSH20 0xFFFFFFFFFFFFFFFFFFFFFFFFFFFFFFFFFFFFFFFF AND EQ PUSH2 0xB9B JUMPI PUSH1 0x40 MLOAD PUSH32 0x8C379A000000000000000000000000000000000000000000000000000000000 DUP2 MSTORE PUSH1 0x4 ADD PUSH2 0xB92 SWAP1 PUSH2 0x2167 JUMP JUMPDEST PUSH1 0x40 MLOAD DUP1 SWAP2 SUB SWAP1 REVERT JUMPDEST DUP1 PUSH1 0x6 PUSH1 0x8 PUSH2 0x100 EXP DUP2 SLOAD DUP2 PUSH4 0xFFFFFFFF MUL NOT AND SWAP1 DUP4 PUSH4 0xFFFFFFFF AND MUL OR SWAP1 SSTORE POP POP JUMP JUMPDEST PUSH2 0xBC7 PUSH2 0x19CE JUMP JUMPDEST PUSH20 0xFFFFFFFFFFFFFFFFFFFFFFFFFFFFFFFFFFFFFFFF AND PUSH2 0xBE5 PUSH2 0xCC0 JUMP JUMPDEST PUSH20 0xFFFFFFFFFFFFFFFFFFFFFFFFFFFFFFFFFFFFFFFF AND EQ PUSH2 0xC3B JUMPI PUSH1 0x40 MLOAD PUSH32 0x8C379A000000000000000000000000000000000000000000000000000000000 DUP2 MSTORE PUSH1 0x4 ADD PUSH2 0xC32 SWAP1 PUSH2 0x2167 JUMP JUMPDEST PUSH1 0x40 MLOAD DUP1 SWAP2 SUB SWAP1 REVERT JUMPDEST PUSH2 0xC45 PUSH1 0x0 PUSH2 0x19D6 JUMP JUMPDEST JUMP JUMPDEST PUSH1 0x0 PUSH1 0x5 SLOAD SWAP1 POP SWAP1 JUMP JUMPDEST PUSH1 0x0 PUSH1 0x7 PUSH1 0x0 DUP4 PUSH20 0xFFFFFFFFFFFFFFFFFFFFFFFFFFFFFFFFFFFFFFFF AND PUSH20 0xFFFFFFFFFFFFFFFFFFFFFFFFFFFFFFFFFFFFFFFF AND DUP2 MSTORE PUSH1 0x20 ADD SWAP1 DUP2 MSTORE PUSH1 0x20 ADD PUSH1 0x0 KECCAK256 SLOAD SWAP1 POP SWAP2 SWAP1 POP JUMP JUMPDEST PUSH1 0x1 PUSH1 0x0 SWAP1 SLOAD SWAP1 PUSH2 0x100 EXP SWAP1 DIV PUSH20 0xFFFFFFFFFFFFFFFFFFFFFFFFFFFFFFFFFFFFFFFF AND DUP2 JUMP JUMPDEST PUSH1 0x0 DUP1 PUSH1 0x0 SWAP1 SLOAD SWAP1 PUSH2 0x100 EXP SWAP1 DIV PUSH20 0xFFFFFFFFFFFFFFFFFFFFFFFFFFFFFFFFFFFFFFFF AND SWAP1 POP SWAP1 JUMP JUMPDEST PUSH1 0x7 PUSH1 0x20 MSTORE DUP1 PUSH1 0x0 MSTORE PUSH1 0x40 PUSH1 0x0 KECCAK256 PUSH1 0x0 SWAP2 POP SWAP1 POP SLOAD DUP2 JUMP JUMPDEST PUSH1 0x3 PUSH1 0x0 SWAP1 SLOAD SWAP1 PUSH2 0x100 EXP SWAP1 DIV PUSH20 0xFFFFFFFFFFFFFFFFFFFFFFFFFFFFFFFFFFFFFFFF AND DUP2 JUMP JUMPDEST PUSH32 0x0 DUP2 JUMP JUMPDEST PUSH32 0x0 DUP2 JUMP JUMPDEST PUSH2 0xD77 PUSH2 0x19CE JUMP JUMPDEST PUSH20 0xFFFFFFFFFFFFFFFFFFFFFFFFFFFFFFFFFFFFFFFF AND PUSH2 0xD95 PUSH2 0xCC0 JUMP JUMPDEST PUSH20 0xFFFFFFFFFFFFFFFFFFFFFFFFFFFFFFFFFFFFFFFF AND EQ PUSH2 0xDEB JUMPI PUSH1 0x40 MLOAD PUSH32 0x8C379A000000000000000000000000000000000000000000000000000000000 DUP2 MSTORE PUSH1 0x4 ADD PUSH2 0xDE2 SWAP1 PUSH2 0x2167 JUMP JUMPDEST PUSH1 0x40 MLOAD DUP1 SWAP2 SUB SWAP1 REVERT JUMPDEST TIMESTAMP DUP3 PUSH8 0xFFFFFFFFFFFFFFFF AND GT DUP1 ISZERO PUSH2 0xE17 JUMPI POP DUP2 PUSH8 0xFFFFFFFFFFFFFFFF AND DUP2 PUSH8 0xFFFFFFFFFFFFFFFF AND GT JUMPDEST PUSH2 0xE56 JUMPI PUSH1 0x40 MLOAD PUSH32 0x8C379A000000000000000000000000000000000000000000000000000000000 DUP2 MSTORE PUSH1 0x4 ADD PUSH2 0xE4D SWAP1 PUSH2 0x23E2 JUMP JUMPDEST PUSH1 0x40 MLOAD DUP1 SWAP2 SUB SWAP1 REVERT JUMPDEST DUP2 PUSH1 0x6 PUSH1 0xC PUSH2 0x100 EXP DUP2 SLOAD DUP2 PUSH8 0xFFFFFFFFFFFFFFFF MUL NOT AND SWAP1 DUP4 PUSH8 0xFFFFFFFFFFFFFFFF AND MUL OR SWAP1 SSTORE POP DUP1 PUSH1 0x6 PUSH1 0x14 PUSH2 0x100 EXP DUP2 SLOAD DUP2 PUSH8 0xFFFFFFFFFFFFFFFF MUL NOT AND SWAP1 DUP4 PUSH8 0xFFFFFFFFFFFFFFFF AND MUL OR SWAP1 SSTORE POP POP POP JUMP JUMPDEST PUSH1 0x0 PUSH1 0x6 PUSH1 0xC SWAP1 SLOAD SWAP1 PUSH2 0x100 EXP SWAP1 DIV PUSH8 0xFFFFFFFFFFFFFFFF AND SWAP1 POP SWAP1 JUMP JUMPDEST TIMESTAMP PUSH1 0x6 PUSH1 0x14 SWAP1 SLOAD SWAP1 PUSH2 0x100 EXP SWAP1 DIV PUSH8 0xFFFFFFFFFFFFFFFF AND PUSH8 0xFFFFFFFFFFFFFFFF AND LT PUSH2 0xF2C JUMPI PUSH1 0x40 MLOAD PUSH32 0x8C379A000000000000000000000000000000000000000000000000000000000 DUP2 MSTORE PUSH1 0x4 ADD PUSH2 0xF23 SWAP1 PUSH2 0x244E JUMP JUMPDEST PUSH1 0x40 MLOAD DUP1 SWAP2 SUB SWAP1 REVERT JUMPDEST PUSH1 0x0 PUSH1 0x7 PUSH1 0x0 CALLER PUSH20 0xFFFFFFFFFFFFFFFFFFFFFFFFFFFFFFFFFFFFFFFF AND PUSH20 0xFFFFFFFFFFFFFFFFFFFFFFFFFFFFFFFFFFFFFFFF AND DUP2 MSTORE PUSH1 0x20 ADD SWAP1 DUP2 MSTORE PUSH1 0x20 ADD PUSH1 0x0 KECCAK256 SLOAD SWAP1 POP PUSH1 0x0 DUP2 GT PUSH2 0xFB3 JUMPI PUSH1 0x40 MLOAD PUSH32 0x8C379A000000000000000000000000000000000000000000000000000000000 DUP2 MSTORE PUSH1 0x4 ADD PUSH2 0xFAA SWAP1 PUSH2 0x24BA JUMP JUMPDEST PUSH1 0x40 MLOAD DUP1 SWAP2 SUB SWAP1 REVERT JUMPDEST PUSH1 0x0 PUSH32 0x0 PUSH20 0xFFFFFFFFFFFFFFFFFFFFFFFFFFFFFFFFFFFFFFFF AND PUSH4 0xA9059CBB CALLER DUP5 PUSH1 0x40 MLOAD DUP4 PUSH4 0xFFFFFFFF AND PUSH1 0xE0 SHL DUP2 MSTORE PUSH1 0x4 ADD PUSH2 0x1010 SWAP3 SWAP2 SWAP1 PUSH2 0x2299 JUMP JUMPDEST PUSH1 0x20 PUSH1 0x40 MLOAD DUP1 DUP4 SUB DUP2 PUSH1 0x0 DUP8 GAS CALL ISZERO DUP1 ISZERO PUSH2 0x102F JUMPI RETURNDATASIZE PUSH1 0x0 DUP1 RETURNDATACOPY RETURNDATASIZE PUSH1 0x0 REVERT JUMPDEST POP POP POP POP PUSH1 0x40 MLOAD RETURNDATASIZE PUSH1 0x1F NOT PUSH1 0x1F DUP3 ADD AND DUP3 ADD DUP1 PUSH1 0x40 MSTORE POP DUP2 ADD SWAP1 PUSH2 0x1053 SWAP2 SWAP1 PUSH2 0x22D7 JUMP JUMPDEST SWAP1 POP DUP1 PUSH2 0x1095 JUMPI PUSH1 0x40 MLOAD PUSH32 0x8C379A000000000000000000000000000000000000000000000000000000000 DUP2 MSTORE PUSH1 0x4 ADD PUSH2 0x108C SWAP1 PUSH2 0x2350 JUMP JUMPDEST PUSH1 0x40 MLOAD DUP1 SWAP2 SUB SWAP1 REVERT JUMPDEST PUSH1 0x0 PUSH1 0x7 PUSH1 0x0 CALLER PUSH20 0xFFFFFFFFFFFFFFFFFFFFFFFFFFFFFFFFFFFFFFFF AND PUSH20 0xFFFFFFFFFFFFFFFFFFFFFFFFFFFFFFFFFFFFFFFF AND DUP2 MSTORE PUSH1 0x20 ADD SWAP1 DUP2 MSTORE PUSH1 0x20 ADD PUSH1 0x0 KECCAK256 DUP2 SWAP1 SSTORE POP PUSH1 0x6 PUSH1 0x4 DUP2 DUP2 SWAP1 SLOAD SWAP1 PUSH2 0x100 EXP SWAP1 DIV PUSH4 0xFFFFFFFF AND DUP1 SWAP3 SWAP2 SWAP1 PUSH2 0x10FC SWAP1 PUSH2 0x24DA JUMP JUMPDEST SWAP2 SWAP1 PUSH2 0x100 EXP DUP2 SLOAD DUP2 PUSH4 0xFFFFFFFF MUL NOT AND SWAP1 DUP4 PUSH4 0xFFFFFFFF AND MUL OR SWAP1 SSTORE POP POP CALLER PUSH20 0xFFFFFFFFFFFFFFFFFFFFFFFFFFFFFFFFFFFFFFFF AND PUSH32 0x680F2E4F4032EBF1774E8CDBADDCB1B617A5A606411C8CA96257ADA338D3833C DUP4 PUSH1 0x40 MLOAD PUSH2 0x1161 SWAP2 SWAP1 PUSH2 0x1FDF JUMP JUMPDEST PUSH1 0x40 MLOAD DUP1 SWAP2 SUB SWAP1 LOG2 POP POP JUMP JUMPDEST PUSH1 0x6 PUSH1 0x1C SWAP1 SLOAD SWAP1 PUSH2 0x100 EXP SWAP1 DIV PUSH1 0xFF AND ISZERO DUP1 ISZERO PUSH2 0x11D3 JUMPI POP PUSH1 0x9 PUSH1 0x0 CALLER PUSH20 0xFFFFFFFFFFFFFFFFFFFFFFFFFFFFFFFFFFFFFFFF AND PUSH20 0xFFFFFFFFFFFFFFFFFFFFFFFFFFFFFFFFFFFFFFFF AND DUP2 MSTORE PUSH1 0x20 ADD SWAP1 DUP2 MSTORE PUSH1 0x20 ADD PUSH1 0x0 KECCAK256 PUSH1 0x0 SWAP1 SLOAD SWAP1 PUSH2 0x100 EXP SWAP1 DIV PUSH1 0xFF AND JUMPDEST PUSH2 0x1212 JUMPI PUSH1 0x40 MLOAD PUSH32 0x8C379A000000000000000000000000000000000000000000000000000000000 DUP2 MSTORE PUSH1 0x4 ADD PUSH2 0x1209 SWAP1 PUSH2 0x2552 JUMP JUMPDEST PUSH1 0x40 MLOAD DUP1 SWAP2 SUB SWAP1 REVERT JUMPDEST TIMESTAMP PUSH1 0x6 PUSH1 0xC SWAP1 SLOAD SWAP1 PUSH2 0x100 EXP SWAP1 DIV PUSH8 0xFFFFFFFFFFFFFFFF AND PUSH8 0xFFFFFFFFFFFFFFFF AND LT PUSH2 0x1274 JUMPI PUSH1 0x40 MLOAD PUSH32 0x8C379A000000000000000000000000000000000000000000000000000000000 DUP2 MSTORE PUSH1 0x4 ADD PUSH2 0x126B SWAP1 PUSH2 0x25BE JUMP JUMPDEST PUSH1 0x40 MLOAD DUP1 SWAP2 SUB SWAP1 REVERT JUMPDEST TIMESTAMP PUSH1 0x6 PUSH1 0x14 SWAP1 SLOAD SWAP1 PUSH2 0x100 EXP SWAP1 DIV PUSH8 0xFFFFFFFFFFFFFFFF AND PUSH8 0xFFFFFFFFFFFFFFFF AND GT PUSH2 0x12D6 JUMPI PUSH1 0x40 MLOAD PUSH32 0x8C379A000000000000000000000000000000000000000000000000000000000 DUP2 MSTORE PUSH1 0x4 ADD PUSH2 0x12CD SWAP1 PUSH2 0x262A JUMP JUMPDEST PUSH1 0x40 MLOAD DUP1 SWAP2 SUB SWAP1 REVERT JUMPDEST PUSH1 0x6 PUSH1 0x8 SWAP1 SLOAD SWAP1 PUSH2 0x100 EXP SWAP1 DIV PUSH4 0xFFFFFFFF AND PUSH4 0xFFFFFFFF AND PUSH1 0x6 PUSH1 0x0 SWAP1 SLOAD SWAP1 PUSH2 0x100 EXP SWAP1 DIV PUSH4 0xFFFFFFFF AND PUSH4 0xFFFFFFFF AND GT ISZERO PUSH2 0x1349 JUMPI PUSH1 0x40 MLOAD PUSH32 0x8C379A000000000000000000000000000000000000000000000000000000000 DUP2 MSTORE PUSH1 0x4 ADD PUSH2 0x1340 SWAP1 PUSH2 0x2696 JUMP JUMPDEST PUSH1 0x40 MLOAD DUP1 SWAP2 SUB SWAP1 REVERT JUMPDEST PUSH1 0x8 PUSH1 0x0 CALLER PUSH20 0xFFFFFFFFFFFFFFFFFFFFFFFFFFFFFFFFFFFFFFFF AND PUSH20 0xFFFFFFFFFFFFFFFFFFFFFFFFFFFFFFFFFFFFFFFF AND DUP2 MSTORE PUSH1 0x20 ADD SWAP1 DUP2 MSTORE PUSH1 0x20 ADD PUSH1 0x0 KECCAK256 PUSH1 0x0 SWAP1 SLOAD SWAP1 PUSH2 0x100 EXP SWAP1 DIV PUSH1 0xFF AND ISZERO PUSH2 0x13D6 JUMPI PUSH1 0x40 MLOAD PUSH32 0x8C379A000000000000000000000000000000000000000000000000000000000 DUP2 MSTORE PUSH1 0x4 ADD PUSH2 0x13CD SWAP1 PUSH2 0x2702 JUMP JUMPDEST PUSH1 0x40 MLOAD DUP1 SWAP2 SUB SWAP1 REVERT JUMPDEST PUSH1 0x4 SLOAD PUSH32 0x0 PUSH20 0xFFFFFFFFFFFFFFFFFFFFFFFFFFFFFFFFFFFFFFFF AND PUSH4 0xDD62ED3E CALLER ADDRESS PUSH1 0x40 MLOAD DUP4 PUSH4 0xFFFFFFFF AND PUSH1 0xE0 SHL DUP2 MSTORE PUSH1 0x4 ADD PUSH2 0x1434 SWAP3 SWAP2 SWAP1 PUSH2 0x2722 JUMP JUMPDEST PUSH1 0x20 PUSH1 0x40 MLOAD DUP1 DUP4 SUB DUP2 DUP7 GAS STATICCALL ISZERO DUP1 ISZERO PUSH2 0x1451 JUMPI RETURNDATASIZE PUSH1 0x0 DUP1 RETURNDATACOPY RETURNDATASIZE PUSH1 0x0 REVERT JUMPDEST POP POP POP POP PUSH1 0x40 MLOAD RETURNDATASIZE PUSH1 0x1F NOT PUSH1 0x1F DUP3 ADD AND DUP3 ADD DUP1 PUSH1 0x40 MSTORE POP DUP2 ADD SWAP1 PUSH2 0x1475 SWAP2 SWAP1 PUSH2 0x2760 JUMP JUMPDEST LT ISZERO PUSH2 0x14B6 JUMPI PUSH1 0x40 MLOAD PUSH32 0x8C379A000000000000000000000000000000000000000000000000000000000 DUP2 MSTORE PUSH1 0x4 ADD PUSH2 0x14AD SWAP1 PUSH2 0x27D9 JUMP JUMPDEST PUSH1 0x40 MLOAD DUP1 SWAP2 SUB SWAP1 REVERT JUMPDEST PUSH1 0x0 PUSH32 0x0 PUSH20 0xFFFFFFFFFFFFFFFFFFFFFFFFFFFFFFFFFFFFFFFF AND PUSH4 0x23B872DD CALLER PUSH1 0x3 PUSH1 0x0 SWAP1 SLOAD SWAP1 PUSH2 0x100 EXP SWAP1 DIV PUSH20 0xFFFFFFFFFFFFFFFFFFFFFFFFFFFFFFFFFFFFFFFF AND PUSH1 0x4 SLOAD PUSH1 0x40 MLOAD DUP5 PUSH4 0xFFFFFFFF AND PUSH1 0xE0 SHL DUP2 MSTORE PUSH1 0x4 ADD PUSH2 0x1539 SWAP4 SWAP3 SWAP2 SWAP1 PUSH2 0x27F9 JUMP JUMPDEST PUSH1 0x20 PUSH1 0x40 MLOAD DUP1 DUP4 SUB DUP2 PUSH1 0x0 DUP8 GAS CALL ISZERO DUP1 ISZERO PUSH2 0x1558 JUMPI RETURNDATASIZE PUSH1 0x0 DUP1 RETURNDATACOPY RETURNDATASIZE PUSH1 0x0 REVERT JUMPDEST POP POP POP POP PUSH1 0x40 MLOAD RETURNDATASIZE PUSH1 0x1F NOT PUSH1 0x1F DUP3 ADD AND DUP3 ADD DUP1 PUSH1 0x40 MSTORE POP DUP2 ADD SWAP1 PUSH2 0x157C SWAP2 SWAP1 PUSH2 0x22D7 JUMP JUMPDEST SWAP1 POP DUP1 PUSH2 0x15BE JUMPI PUSH1 0x40 MLOAD PUSH32 0x8C379A000000000000000000000000000000000000000000000000000000000 DUP2 MSTORE PUSH1 0x4 ADD PUSH2 0x15B5 SWAP1 PUSH2 0x2350 JUMP JUMPDEST PUSH1 0x40 MLOAD DUP1 SWAP2 SUB SWAP1 REVERT JUMPDEST PUSH1 0x5 SLOAD PUSH1 0x7 PUSH1 0x0 CALLER PUSH20 0xFFFFFFFFFFFFFFFFFFFFFFFFFFFFFFFFFFFFFFFF AND PUSH20 0xFFFFFFFFFFFFFFFFFFFFFFFFFFFFFFFFFFFFFFFF AND DUP2 MSTORE PUSH1 0x20 ADD SWAP1 DUP2 MSTORE PUSH1 0x20 ADD PUSH1 0x0 KECCAK256 DUP2 SWAP1 SSTORE POP PUSH1 0x1 PUSH1 0x8 PUSH1 0x0 CALLER PUSH20 0xFFFFFFFFFFFFFFFFFFFFFFFFFFFFFFFFFFFFFFFF AND PUSH20 0xFFFFFFFFFFFFFFFFFFFFFFFFFFFFFFFFFFFFFFFF AND DUP2 MSTORE PUSH1 0x20 ADD SWAP1 DUP2 MSTORE PUSH1 0x20 ADD PUSH1 0x0 KECCAK256 PUSH1 0x0 PUSH2 0x100 EXP DUP2 SLOAD DUP2 PUSH1 0xFF MUL NOT AND SWAP1 DUP4 ISZERO ISZERO MUL OR SWAP1 SSTORE POP PUSH1 0x6 PUSH1 0x0 DUP2 DUP2 SWAP1 SLOAD SWAP1 PUSH2 0x100 EXP SWAP1 DIV PUSH4 0xFFFFFFFF AND DUP1 SWAP3 SWAP2 SWAP1 PUSH2 0x167E SWAP1 PUSH2 0x24DA JUMP JUMPDEST SWAP2 SWAP1 PUSH2 0x100 EXP DUP2 SLOAD DUP2 PUSH4 0xFFFFFFFF MUL NOT AND SWAP1 DUP4 PUSH4 0xFFFFFFFF AND MUL OR SWAP1 SSTORE POP POP CALLER PUSH20 0xFFFFFFFFFFFFFFFFFFFFFFFFFFFFFFFFFFFFFFFF AND PUSH32 0xA37B72BB67EEE30E09084CF386F8A17817C57F620C3AB95FB25D6A20356EC77 PUSH1 0x4 SLOAD PUSH1 0x5 SLOAD PUSH1 0x40 MLOAD PUSH2 0x16E9 SWAP3 SWAP2 SWAP1 PUSH2 0x2830 JUMP JUMPDEST PUSH1 0x40 MLOAD DUP1 SWAP2 SUB SWAP1 LOG2 POP JUMP JUMPDEST PUSH1 0x0 PUSH1 0x6 PUSH1 0x8 SWAP1 SLOAD SWAP1 PUSH2 0x100 EXP SWAP1 DIV PUSH4 0xFFFFFFFF AND SWAP1 POP SWAP1 JUMP JUMPDEST PUSH1 0x0 PUSH1 0x4 SLOAD SWAP1 POP SWAP1 JUMP JUMPDEST PUSH2 0x1720 PUSH2 0x19CE JUMP JUMPDEST PUSH20 0xFFFFFFFFFFFFFFFFFFFFFFFFFFFFFFFFFFFFFFFF AND PUSH2 0x173E PUSH2 0xCC0 JUMP JUMPDEST PUSH20 0xFFFFFFFFFFFFFFFFFFFFFFFFFFFFFFFFFFFFFFFF AND EQ PUSH2 0x1794 JUMPI PUSH1 0x40 MLOAD PUSH32 0x8C379A000000000000000000000000000000000000000000000000000000000 DUP2 MSTORE PUSH1 0x4 ADD PUSH2 0x178B SWAP1 PUSH2 0x2167 JUMP JUMPDEST PUSH1 0x40 MLOAD DUP1 SWAP2 SUB SWAP1 REVERT JUMPDEST PUSH2 0x179C PUSH2 0xCC0 JUMP JUMPDEST PUSH20 0xFFFFFFFFFFFFFFFFFFFFFFFFFFFFFFFFFFFFFFFF AND PUSH2 0x8FC SELFBALANCE SWAP1 DUP2 ISZERO MUL SWAP1 PUSH1 0x40 MLOAD PUSH1 0x0 PUSH1 0x40 MLOAD DUP1 DUP4 SUB DUP2 DUP6 DUP9 DUP9 CALL SWAP4 POP POP POP POP ISZERO DUP1 ISZERO PUSH2 0x17E1 JUMPI RETURNDATASIZE PUSH1 0x0 DUP1 RETURNDATACOPY RETURNDATASIZE PUSH1 0x0 REVERT JUMPDEST POP JUMP JUMPDEST PUSH1 0x6 PUSH1 0x1C SWAP1 SLOAD SWAP1 PUSH2 0x100 EXP SWAP1 DIV PUSH1 0xFF AND DUP2 JUMP JUMPDEST PUSH1 0x0 PUSH1 0x6 PUSH1 0x0 SWAP1 SLOAD SWAP1 PUSH2 0x100 EXP SWAP1 DIV PUSH4 0xFFFFFFFF AND PUSH4 0xFFFFFFFF AND SWAP1 POP SWAP1 JUMP JUMPDEST PUSH2 0x181F PUSH2 0x19CE JUMP JUMPDEST PUSH20 0xFFFFFFFFFFFFFFFFFFFFFFFFFFFFFFFFFFFFFFFF AND PUSH2 0x183D PUSH2 0xCC0 JUMP JUMPDEST PUSH20 0xFFFFFFFFFFFFFFFFFFFFFFFFFFFFFFFFFFFFFFFF AND EQ PUSH2 0x1893 JUMPI PUSH1 0x40 MLOAD PUSH32 0x8C379A000000000000000000000000000000000000000000000000000000000 DUP2 MSTORE PUSH1 0x4 ADD PUSH2 0x188A SWAP1 PUSH2 0x2167 JUMP JUMPDEST PUSH1 0x40 MLOAD DUP1 SWAP2 SUB SWAP1 REVERT JUMPDEST PUSH1 0x0 PUSH20 0xFFFFFFFFFFFFFFFFFFFFFFFFFFFFFFFFFFFFFFFF AND DUP2 PUSH20 0xFFFFFFFFFFFFFFFFFFFFFFFFFFFFFFFFFFFFFFFF AND SUB PUSH2 0x1902 JUMPI PUSH1 0x40 MLOAD PUSH32 0x8C379A000000000000000000000000000000000000000000000000000000000 DUP2 MSTORE PUSH1 0x4 ADD PUSH2 0x18F9 SWAP1 PUSH2 0x28CB JUMP JUMPDEST PUSH1 0x40 MLOAD DUP1 SWAP2 SUB SWAP1 REVERT JUMPDEST PUSH2 0x190B DUP2 PUSH2 0x19D6 JUMP JUMPDEST POP JUMP JUMPDEST PUSH2 0x1916 PUSH2 0x19CE JUMP JUMPDEST PUSH20 0xFFFFFFFFFFFFFFFFFFFFFFFFFFFFFFFFFFFFFFFF AND PUSH2 0x1934 PUSH2 0xCC0 JUMP JUMPDEST PUSH20 0xFFFFFFFFFFFFFFFFFFFFFFFFFFFFFFFFFFFFFFFF AND EQ PUSH2 0x198A JUMPI PUSH1 0x40 MLOAD PUSH32 0x8C379A000000000000000000000000000000000000000000000000000000000 DUP2 MSTORE PUSH1 0x4 ADD PUSH2 0x1981 SWAP1 PUSH2 0x2167 JUMP JUMPDEST PUSH1 0x40 MLOAD DUP1 SWAP2 SUB SWAP1 REVERT JUMPDEST DUP1 PUSH1 0x3 PUSH1 0x0 PUSH2 0x100 EXP DUP2 SLOAD DUP2 PUSH20 0xFFFFFFFFFFFFFFFFFFFFFFFFFFFFFFFFFFFFFFFF MUL NOT AND SWAP1 DUP4 PUSH20 0xFFFFFFFFFFFFFFFFFFFFFFFFFFFFFFFFFFFFFFFF AND MUL OR SWAP1 SSTORE POP POP JUMP JUMPDEST PUSH1 0x0 CALLER SWAP1 POP SWAP1 JUMP JUMPDEST PUSH1 0x0 DUP1 PUSH1 0x0 SWAP1 SLOAD SWAP1 PUSH2 0x100 EXP SWAP1 DIV PUSH20 0xFFFFFFFFFFFFFFFFFFFFFFFFFFFFFFFFFFFFFFFF AND SWAP1 POP DUP2 PUSH1 0x0 DUP1 PUSH2 0x100 EXP DUP2 SLOAD DUP2 PUSH20 0xFFFFFFFFFFFFFFFFFFFFFFFFFFFFFFFFFFFFFFFF MUL NOT AND SWAP1 DUP4 PUSH20 0xFFFFFFFFFFFFFFFFFFFFFFFFFFFFFFFFFFFFFFFF AND MUL OR SWAP1 SSTORE POP DUP2 PUSH20 0xFFFFFFFFFFFFFFFFFFFFFFFFFFFFFFFFFFFFFFFF AND DUP2 PUSH20 0xFFFFFFFFFFFFFFFFFFFFFFFFFFFFFFFFFFFFFFFF AND PUSH32 0x8BE0079C531659141344CD1FD0A4F28419497F9722A3DAAFE3B4186F6B6457E0 PUSH1 0x40 MLOAD PUSH1 0x40 MLOAD DUP1 SWAP2 SUB SWAP1 LOG3 POP POP JUMP JUMPDEST PUSH1 0x0 PUSH20 0xFFFFFFFFFFFFFFFFFFFFFFFFFFFFFFFFFFFFFFFF DUP3 AND SWAP1 POP SWAP2 SWAP1 POP JUMP JUMPDEST PUSH1 0x0 PUSH2 0x1AC5 DUP3 PUSH2 0x1A9A JUMP JUMPDEST SWAP1 POP SWAP2 SWAP1 POP JUMP JUMPDEST PUSH2 0x1AD5 DUP2 PUSH2 0x1ABA JUMP JUMPDEST DUP3 MSTORE POP POP JUMP JUMPDEST PUSH1 0x0 PUSH1 0x20 DUP3 ADD SWAP1 POP PUSH2 0x1AF0 PUSH1 0x0 DUP4 ADD DUP5 PUSH2 0x1ACC JUMP JUMPDEST SWAP3 SWAP2 POP POP JUMP JUMPDEST PUSH1 0x0 PUSH8 0xFFFFFFFFFFFFFFFF DUP3 AND SWAP1 POP SWAP2 SWAP1 POP JUMP JUMPDEST PUSH2 0x1B13 DUP2 PUSH2 0x1AF6 JUMP JUMPDEST DUP3 MSTORE POP POP JUMP JUMPDEST PUSH1 0x0 PUSH1 0x20 DUP3 ADD SWAP1 POP PUSH2 0x1B2E PUSH1 0x0 DUP4 ADD DUP5 PUSH2 0x1B0A JUMP JUMPDEST SWAP3 SWAP2 POP POP JUMP JUMPDEST PUSH1 0x0 PUSH1 0x40 MLOAD SWAP1 POP SWAP1 JUMP JUMPDEST PUSH1 0x0 DUP1 REVERT JUMPDEST PUSH1 0x0 DUP1 REVERT JUMPDEST PUSH1 0x0 DUP1 REVERT JUMPDEST PUSH1 0x0 PUSH1 0x1F NOT PUSH1 0x1F DUP4 ADD AND SWAP1 POP SWAP2 SWAP1 POP JUMP JUMPDEST PUSH32 0x4E487B7100000000000000000000000000000000000000000000000000000000 PUSH1 0x0 MSTORE PUSH1 0x41 PUSH1 0x4 MSTORE PUSH1 0x24 PUSH1 0x0 REVERT JUMPDEST PUSH2 0x1B96 DUP3 PUSH2 0x1B4D JUMP JUMPDEST DUP2 ADD DUP2 DUP2 LT PUSH8 0xFFFFFFFFFFFFFFFF DUP3 GT OR ISZERO PUSH2 0x1BB5 JUMPI PUSH2 0x1BB4 PUSH2 0x1B5E JUMP JUMPDEST JUMPDEST DUP1 PUSH1 0x40 MSTORE POP POP POP JUMP JUMPDEST PUSH1 0x0 PUSH2 0x1BC8 PUSH2 0x1B34 JUMP JUMPDEST SWAP1 POP PUSH2 0x1BD4 DUP3 DUP3 PUSH2 0x1B8D JUMP JUMPDEST SWAP2 SWAP1 POP JUMP JUMPDEST PUSH1 0x0 PUSH8 0xFFFFFFFFFFFFFFFF DUP3 GT ISZERO PUSH2 0x1BF4 JUMPI PUSH2 0x1BF3 PUSH2 0x1B5E JUMP JUMPDEST JUMPDEST PUSH1 0x20 DUP3 MUL SWAP1 POP PUSH1 0x20 DUP2 ADD SWAP1 POP SWAP2 SWAP1 POP JUMP JUMPDEST PUSH1 0x0 DUP1 REVERT JUMPDEST PUSH2 0x1C13 DUP2 PUSH2 0x1ABA JUMP JUMPDEST DUP2 EQ PUSH2 0x1C1E JUMPI PUSH1 0x0 DUP1 REVERT JUMPDEST POP JUMP JUMPDEST PUSH1 0x0 DUP2 CALLDATALOAD SWAP1 POP PUSH2 0x1C30 DUP2 PUSH2 0x1C0A JUMP JUMPDEST SWAP3 SWAP2 POP POP JUMP JUMPDEST PUSH1 0x0 PUSH2 0x1C49 PUSH2 0x1C44 DUP5 PUSH2 0x1BD9 JUMP JUMPDEST PUSH2 0x1BBE JUMP JUMPDEST SWAP1 POP DUP1 DUP4 DUP3 MSTORE PUSH1 0x20 DUP3 ADD SWAP1 POP PUSH1 0x20 DUP5 MUL DUP4 ADD DUP6 DUP2 GT ISZERO PUSH2 0x1C6C JUMPI PUSH2 0x1C6B PUSH2 0x1C05 JUMP JUMPDEST JUMPDEST DUP4 JUMPDEST DUP2 DUP2 LT ISZERO PUSH2 0x1C95 JUMPI DUP1 PUSH2 0x1C81 DUP9 DUP3 PUSH2 0x1C21 JUMP JUMPDEST DUP5 MSTORE PUSH1 0x20 DUP5 ADD SWAP4 POP POP PUSH1 0x20 DUP2 ADD SWAP1 POP PUSH2 0x1C6E JUMP JUMPDEST POP POP POP SWAP4 SWAP3 POP POP POP JUMP JUMPDEST PUSH1 0x0 DUP3 PUSH1 0x1F DUP4 ADD SLT PUSH2 0x1CB4 JUMPI PUSH2 0x1CB3 PUSH2 0x1B48 JUMP JUMPDEST JUMPDEST DUP2 CALLDATALOAD PUSH2 0x1CC4 DUP5 DUP3 PUSH1 0x20 DUP7 ADD PUSH2 0x1C36 JUMP JUMPDEST SWAP2 POP POP SWAP3 SWAP2 POP POP JUMP JUMPDEST PUSH1 0x0 PUSH8 0xFFFFFFFFFFFFFFFF DUP3 GT ISZERO PUSH2 0x1CE8 JUMPI PUSH2 0x1CE7 PUSH2 0x1B5E JUMP JUMPDEST JUMPDEST PUSH1 0x20 DUP3 MUL SWAP1 POP PUSH1 0x20 DUP2 ADD SWAP1 POP SWAP2 SWAP1 POP JUMP JUMPDEST PUSH1 0x0 DUP2 ISZERO ISZERO SWAP1 POP SWAP2 SWAP1 POP JUMP JUMPDEST PUSH2 0x1D0E DUP2 PUSH2 0x1CF9 JUMP JUMPDEST DUP2 EQ PUSH2 0x1D19 JUMPI PUSH1 0x0 DUP1 REVERT JUMPDEST POP JUMP JUMPDEST PUSH1 0x0 DUP2 CALLDATALOAD SWAP1 POP PUSH2 0x1D2B DUP2 PUSH2 0x1D05 JUMP JUMPDEST SWAP3 SWAP2 POP POP JUMP JUMPDEST PUSH1 0x0 PUSH2 0x1D44 PUSH2 0x1D3F DUP5 PUSH2 0x1CCD JUMP JUMPDEST PUSH2 0x1BBE JUMP JUMPDEST SWAP1 POP DUP1 DUP4 DUP3 MSTORE PUSH1 0x20 DUP3 ADD SWAP1 POP PUSH1 0x20 DUP5 MUL DUP4 ADD DUP6 DUP2 GT ISZERO PUSH2 0x1D67 JUMPI PUSH2 0x1D66 PUSH2 0x1C05 JUMP JUMPDEST JUMPDEST DUP4 JUMPDEST DUP2 DUP2 LT ISZERO PUSH2 0x1D90 JUMPI DUP1 PUSH2 0x1D7C DUP9 DUP3 PUSH2 0x1D1C JUMP JUMPDEST DUP5 MSTORE PUSH1 0x20 DUP5 ADD SWAP4 POP POP PUSH1 0x20 DUP2 ADD SWAP1 POP PUSH2 0x1D69 JUMP JUMPDEST POP POP POP SWAP4 SWAP3 POP POP POP JUMP JUMPDEST PUSH1 0x0 DUP3 PUSH1 0x1F DUP4 ADD SLT PUSH2 0x1DAF JUMPI PUSH2 0x1DAE PUSH2 0x1B48 JUMP JUMPDEST JUMPDEST DUP2 CALLDATALOAD PUSH2 0x1DBF DUP5 DUP3 PUSH1 0x20 DUP7 ADD PUSH2 0x1D31 JUMP JUMPDEST SWAP2 POP POP SWAP3 SWAP2 POP POP JUMP JUMPDEST PUSH1 0x0 DUP1 PUSH1 0x40 DUP4 DUP6 SUB SLT ISZERO PUSH2 0x1DDF JUMPI PUSH2 0x1DDE PUSH2 0x1B3E JUMP JUMPDEST JUMPDEST PUSH1 0x0 DUP4 ADD CALLDATALOAD PUSH8 0xFFFFFFFFFFFFFFFF DUP2 GT ISZERO PUSH2 0x1DFD JUMPI PUSH2 0x1DFC PUSH2 0x1B43 JUMP JUMPDEST JUMPDEST PUSH2 0x1E09 DUP6 DUP3 DUP7 ADD PUSH2 0x1C9F JUMP JUMPDEST SWAP3 POP POP PUSH1 0x20 DUP4 ADD CALLDATALOAD PUSH8 0xFFFFFFFFFFFFFFFF DUP2 GT ISZERO PUSH2 0x1E2A JUMPI PUSH2 0x1E29 PUSH2 0x1B43 JUMP JUMPDEST JUMPDEST PUSH2 0x1E36 DUP6 DUP3 DUP7 ADD PUSH2 0x1D9A JUMP JUMPDEST SWAP2 POP POP SWAP3 POP SWAP3 SWAP1 POP JUMP JUMPDEST PUSH1 0x0 DUP2 SWAP1 POP SWAP2 SWAP1 POP JUMP JUMPDEST PUSH2 0x1E53 DUP2 PUSH2 0x1E40 JUMP JUMPDEST DUP2 EQ PUSH2 0x1E5E JUMPI PUSH1 0x0 DUP1 REVERT JUMPDEST POP JUMP JUMPDEST PUSH1 0x0 DUP2 CALLDATALOAD SWAP1 POP PUSH2 0x1E70 DUP2 PUSH2 0x1E4A JUMP JUMPDEST SWAP3 SWAP2 POP POP JUMP JUMPDEST PUSH1 0x0 PUSH1 0x20 DUP3 DUP5 SUB SLT ISZERO PUSH2 0x1E8C JUMPI PUSH2 0x1E8B PUSH2 0x1B3E JUMP JUMPDEST JUMPDEST PUSH1 0x0 PUSH2 0x1E9A DUP5 DUP3 DUP6 ADD PUSH2 0x1E61 JUMP JUMPDEST SWAP2 POP POP SWAP3 SWAP2 POP POP JUMP JUMPDEST PUSH1 0x0 PUSH1 0x20 DUP3 DUP5 SUB SLT ISZERO PUSH2 0x1EB9 JUMPI PUSH2 0x1EB8 PUSH2 0x1B3E JUMP JUMPDEST JUMPDEST PUSH1 0x0 PUSH2 0x1EC7 DUP5 DUP3 DUP6 ADD PUSH2 0x1C21 JUMP JUMPDEST SWAP2 POP POP SWAP3 SWAP2 POP POP JUMP JUMPDEST PUSH2 0x1ED9 DUP2 PUSH2 0x1CF9 JUMP JUMPDEST DUP3 MSTORE POP POP JUMP JUMPDEST PUSH1 0x0 PUSH1 0x20 DUP3 ADD SWAP1 POP PUSH2 0x1EF4 PUSH1 0x0 DUP4 ADD DUP5 PUSH2 0x1ED0 JUMP JUMPDEST SWAP3 SWAP2 POP POP JUMP JUMPDEST PUSH1 0x0 DUP1 PUSH1 0x40 DUP4 DUP6 SUB SLT ISZERO PUSH2 0x1F11 JUMPI PUSH2 0x1F10 PUSH2 0x1B3E JUMP JUMPDEST JUMPDEST PUSH1 0x0 PUSH2 0x1F1F DUP6 DUP3 DUP7 ADD PUSH2 0x1C21 JUMP JUMPDEST SWAP3 POP POP PUSH1 0x20 PUSH2 0x1F30 DUP6 DUP3 DUP7 ADD PUSH2 0x1D1C JUMP JUMPDEST SWAP2 POP POP SWAP3 POP SWAP3 SWAP1 POP JUMP JUMPDEST PUSH1 0x0 PUSH1 0x20 DUP3 DUP5 SUB SLT ISZERO PUSH2 0x1F50 JUMPI PUSH2 0x1F4F PUSH2 0x1B3E JUMP JUMPDEST JUMPDEST PUSH1 0x0 PUSH2 0x1F5E DUP5 DUP3 DUP6 ADD PUSH2 0x1D1C JUMP JUMPDEST SWAP2 POP POP SWAP3 SWAP2 POP POP JUMP JUMPDEST PUSH1 0x0 PUSH4 0xFFFFFFFF DUP3 AND SWAP1 POP SWAP2 SWAP1 POP JUMP JUMPDEST PUSH2 0x1F80 DUP2 PUSH2 0x1F67 JUMP JUMPDEST DUP2 EQ PUSH2 0x1F8B JUMPI PUSH1 0x0 DUP1 REVERT JUMPDEST POP JUMP JUMPDEST PUSH1 0x0 DUP2 CALLDATALOAD SWAP1 POP PUSH2 0x1F9D DUP2 PUSH2 0x1F77 JUMP JUMPDEST SWAP3 SWAP2 POP POP JUMP JUMPDEST PUSH1 0x0 PUSH1 0x20 DUP3 DUP5 SUB SLT ISZERO PUSH2 0x1FB9 JUMPI PUSH2 0x1FB8 PUSH2 0x1B3E JUMP JUMPDEST JUMPDEST PUSH1 0x0 PUSH2 0x1FC7 DUP5 DUP3 DUP6 ADD PUSH2 0x1F8E JUMP JUMPDEST SWAP2 POP POP SWAP3 SWAP2 POP POP JUMP JUMPDEST PUSH2 0x1FD9 DUP2 PUSH2 0x1E40 JUMP JUMPDEST DUP3 MSTORE POP POP JUMP JUMPDEST PUSH1 0x0 PUSH1 0x20 DUP3 ADD SWAP1 POP PUSH2 0x1FF4 PUSH1 0x0 DUP4 ADD DUP5 PUSH2 0x1FD0 JUMP JUMPDEST SWAP3 SWAP2 POP POP JUMP JUMPDEST PUSH1 0x0 DUP2 SWAP1 POP SWAP2 SWAP1 POP JUMP JUMPDEST PUSH1 0x0 PUSH2 0x201F PUSH2 0x201A PUSH2 0x2015 DUP5 PUSH2 0x1A9A JUMP JUMPDEST PUSH2 0x1FFA JUMP JUMPDEST PUSH2 0x1A9A JUMP JUMPDEST SWAP1 POP SWAP2 SWAP1 POP JUMP JUMPDEST PUSH1 0x0 PUSH2 0x2031 DUP3 PUSH2 0x2004 JUMP JUMPDEST SWAP1 POP SWAP2 SWAP1 POP JUMP JUMPDEST PUSH1 0x0 PUSH2 0x2043 DUP3 PUSH2 0x2026 JUMP JUMPDEST SWAP1 POP SWAP2 SWAP1 POP JUMP JUMPDEST PUSH2 0x2053 DUP2 PUSH2 0x2038 JUMP JUMPDEST DUP3 MSTORE POP POP JUMP JUMPDEST PUSH1 0x0 PUSH1 0x20 DUP3 ADD SWAP1 POP PUSH2 0x206E PUSH1 0x0 DUP4 ADD DUP5 PUSH2 0x204A JUMP JUMPDEST SWAP3 SWAP2 POP POP JUMP JUMPDEST PUSH2 0x207D DUP2 PUSH2 0x1AF6 JUMP JUMPDEST DUP2 EQ PUSH2 0x2088 JUMPI PUSH1 0x0 DUP1 REVERT JUMPDEST POP JUMP JUMPDEST PUSH1 0x0 DUP2 CALLDATALOAD SWAP1 POP PUSH2 0x209A DUP2 PUSH2 0x2074 JUMP JUMPDEST SWAP3 SWAP2 POP POP JUMP JUMPDEST PUSH1 0x0 DUP1 PUSH1 0x40 DUP4 DUP6 SUB SLT ISZERO PUSH2 0x20B7 JUMPI PUSH2 0x20B6 PUSH2 0x1B3E JUMP JUMPDEST JUMPDEST PUSH1 0x0 PUSH2 0x20C5 DUP6 DUP3 DUP7 ADD PUSH2 0x208B JUMP JUMPDEST SWAP3 POP POP PUSH1 0x20 PUSH2 0x20D6 DUP6 DUP3 DUP7 ADD PUSH2 0x208B JUMP JUMPDEST SWAP2 POP POP SWAP3 POP SWAP3 SWAP1 POP JUMP JUMPDEST PUSH2 0x20E9 DUP2 PUSH2 0x1F67 JUMP JUMPDEST DUP3 MSTORE POP POP JUMP JUMPDEST PUSH1 0x0 PUSH1 0x20 DUP3 ADD SWAP1 POP PUSH2 0x2104 PUSH1 0x0 DUP4 ADD DUP5 PUSH2 0x20E0 JUMP JUMPDEST SWAP3 SWAP2 POP POP JUMP JUMPDEST PUSH1 0x0 DUP3 DUP3 MSTORE PUSH1 0x20 DUP3 ADD SWAP1 POP SWAP3 SWAP2 POP POP JUMP JUMPDEST PUSH32 0x4F776E61626C653A2063616C6C6572206973206E6F7420746865206F776E6572 PUSH1 0x0 DUP3 ADD MSTORE POP JUMP JUMPDEST PUSH1 0x0 PUSH2 0x2151 PUSH1 0x20 DUP4 PUSH2 0x210A JUMP JUMPDEST SWAP2 POP PUSH2 0x215C DUP3 PUSH2 0x211B JUMP JUMPDEST PUSH1 0x20 DUP3 ADD SWAP1 POP SWAP2 SWAP1 POP JUMP JUMPDEST PUSH1 0x0 PUSH1 0x20 DUP3 ADD SWAP1 POP DUP2 DUP2 SUB PUSH1 0x0 DUP4 ADD MSTORE PUSH2 0x2180 DUP2 PUSH2 0x2144 JUMP JUMPDEST SWAP1 POP SWAP2 SWAP1 POP JUMP JUMPDEST PUSH32 0x6172726174206C656E677468206572726F720000000000000000000000000000 PUSH1 0x0 DUP3 ADD MSTORE POP JUMP JUMPDEST PUSH1 0x0 PUSH2 0x21BD PUSH1 0x12 DUP4 PUSH2 0x210A JUMP JUMPDEST SWAP2 POP PUSH2 0x21C8 DUP3 PUSH2 0x2187 JUMP JUMPDEST PUSH1 0x20 DUP3 ADD SWAP1 POP SWAP2 SWAP1 POP JUMP JUMPDEST PUSH1 0x0 PUSH1 0x20 DUP3 ADD SWAP1 POP DUP2 DUP2 SUB PUSH1 0x0 DUP4 ADD MSTORE PUSH2 0x21EC DUP2 PUSH2 0x21B0 JUMP JUMPDEST SWAP1 POP SWAP2 SWAP1 POP JUMP JUMPDEST PUSH32 0x4E487B7100000000000000000000000000000000000000000000000000000000 PUSH1 0x0 MSTORE PUSH1 0x32 PUSH1 0x4 MSTORE PUSH1 0x24 PUSH1 0x0 REVERT JUMPDEST PUSH32 0x4E487B7100000000000000000000000000000000000000000000000000000000 PUSH1 0x0 MSTORE PUSH1 0x11 PUSH1 0x4 MSTORE PUSH1 0x24 PUSH1 0x0 REVERT JUMPDEST PUSH1 0x0 PUSH2 0x225C DUP3 PUSH2 0x1E40 JUMP JUMPDEST SWAP2 POP PUSH32 0xFFFFFFFFFFFFFFFFFFFFFFFFFFFFFFFFFFFFFFFFFFFFFFFFFFFFFFFFFFFFFFFF DUP3 SUB PUSH2 0x228E JUMPI PUSH2 0x228D PUSH2 0x2222 JUMP JUMPDEST JUMPDEST PUSH1 0x1 DUP3 ADD SWAP1 POP SWAP2 SWAP1 POP JUMP JUMPDEST PUSH1 0x0 PUSH1 0x40 DUP3 ADD SWAP1 POP PUSH2 0x22AE PUSH1 0x0 DUP4 ADD DUP6 PUSH2 0x1ACC JUMP JUMPDEST PUSH2 0x22BB PUSH1 0x20 DUP4 ADD DUP5 PUSH2 0x1FD0 JUMP JUMPDEST SWAP4 SWAP3 POP POP POP JUMP JUMPDEST PUSH1 0x0 DUP2 MLOAD SWAP1 POP PUSH2 0x22D1 DUP2 PUSH2 0x1D05 JUMP JUMPDEST SWAP3 SWAP2 POP POP JUMP JUMPDEST PUSH1 0x0 PUSH1 0x20 DUP3 DUP5 SUB SLT ISZERO PUSH2 0x22ED JUMPI PUSH2 0x22EC PUSH2 0x1B3E JUMP JUMPDEST JUMPDEST PUSH1 0x0 PUSH2 0x22FB DUP5 DUP3 DUP6 ADD PUSH2 0x22C2 JUMP JUMPDEST SWAP2 POP POP SWAP3 SWAP2 POP POP JUMP JUMPDEST PUSH32 0x546F6B656E207472616E73666572206661696C65640000000000000000000000 PUSH1 0x0 DUP3 ADD MSTORE POP JUMP JUMPDEST PUSH1 0x0 PUSH2 0x233A PUSH1 0x15 DUP4 PUSH2 0x210A JUMP JUMPDEST SWAP2 POP PUSH2 0x2345 DUP3 PUSH2 0x2304 JUMP JUMPDEST PUSH1 0x20 DUP3 ADD SWAP1 POP SWAP2 SWAP1 POP JUMP JUMPDEST PUSH1 0x0 PUSH1 0x20 DUP3 ADD SWAP1 POP DUP2 DUP2 SUB PUSH1 0x0 DUP4 ADD MSTORE PUSH2 0x2369 DUP2 PUSH2 0x232D JUMP JUMPDEST SWAP1 POP SWAP2 SWAP1 POP JUMP JUMPDEST PUSH32 0x5468652073746172742074696D652068617320706173736564206F7220656E64 PUSH1 0x0 DUP3 ADD MSTORE PUSH32 0x2074696D65206D757374206D6F7265207468616E207374617274000000000000 PUSH1 0x20 DUP3 ADD MSTORE POP JUMP JUMPDEST PUSH1 0x0 PUSH2 0x23CC PUSH1 0x3A DUP4 PUSH2 0x210A JUMP JUMPDEST SWAP2 POP PUSH2 0x23D7 DUP3 PUSH2 0x2370 JUMP JUMPDEST PUSH1 0x40 DUP3 ADD SWAP1 POP SWAP2 SWAP1 POP JUMP JUMPDEST PUSH1 0x0 PUSH1 0x20 DUP3 ADD SWAP1 POP DUP2 DUP2 SUB PUSH1 0x0 DUP4 ADD MSTORE PUSH2 0x23FB DUP2 PUSH2 0x23BF JUMP JUMPDEST SWAP1 POP SWAP2 SWAP1 POP JUMP JUMPDEST PUSH32 0x70726573656C6C206E6F7420656E640000000000000000000000000000000000 PUSH1 0x0 DUP3 ADD MSTORE POP JUMP JUMPDEST PUSH1 0x0 PUSH2 0x2438 PUSH1 0xF DUP4 PUSH2 0x210A JUMP JUMPDEST SWAP2 POP PUSH2 0x2443 DUP3 PUSH2 0x2402 JUMP JUMPDEST PUSH1 0x20 DUP3 ADD SWAP1 POP SWAP2 SWAP1 POP JUMP JUMPDEST PUSH1 0x0 PUSH1 0x20 DUP3 ADD SWAP1 POP DUP2 DUP2 SUB PUSH1 0x0 DUP4 ADD MSTORE PUSH2 0x2467 DUP2 PUSH2 0x242B JUMP JUMPDEST SWAP1 POP SWAP2 SWAP1 POP JUMP JUMPDEST PUSH32 0x757365722062616C616E6365207A65726F000000000000000000000000000000 PUSH1 0x0 DUP3 ADD MSTORE POP JUMP JUMPDEST PUSH1 0x0 PUSH2 0x24A4 PUSH1 0x11 DUP4 PUSH2 0x210A JUMP JUMPDEST SWAP2 POP PUSH2 0x24AF DUP3 PUSH2 0x246E JUMP JUMPDEST PUSH1 0x20 DUP3 ADD SWAP1 POP SWAP2 SWAP1 POP JUMP JUMPDEST PUSH1 0x0 PUSH1 0x20 DUP3 ADD SWAP1 POP DUP2 DUP2 SUB PUSH1 0x0 DUP4 ADD MSTORE PUSH2 0x24D3 DUP2 PUSH2 0x2497 JUMP JUMPDEST SWAP1 POP SWAP2 SWAP1 POP JUMP JUMPDEST PUSH1 0x0 PUSH2 0x24E5 DUP3 PUSH2 0x1F67 JUMP JUMPDEST SWAP2 POP PUSH4 0xFFFFFFFF DUP3 SUB PUSH2 0x24FB JUMPI PUSH2 0x24FA PUSH2 0x2222 JUMP JUMPDEST JUMPDEST PUSH1 0x1 DUP3 ADD SWAP1 POP SWAP2 SWAP1 POP JUMP JUMPDEST PUSH32 0x6E6F7420696E2077686974654C69737400000000000000000000000000000000 PUSH1 0x0 DUP3 ADD MSTORE POP JUMP JUMPDEST PUSH1 0x0 PUSH2 0x253C PUSH1 0x10 DUP4 PUSH2 0x210A JUMP JUMPDEST SWAP2 POP PUSH2 0x2547 DUP3 PUSH2 0x2506 JUMP JUMPDEST PUSH1 0x20 DUP3 ADD SWAP1 POP SWAP2 SWAP1 POP JUMP JUMPDEST PUSH1 0x0 PUSH1 0x20 DUP3 ADD SWAP1 POP DUP2 DUP2 SUB PUSH1 0x0 DUP4 ADD MSTORE PUSH2 0x256B DUP2 PUSH2 0x252F JUMP JUMPDEST SWAP1 POP SWAP2 SWAP1 POP JUMP JUMPDEST PUSH32 0x6E6F742073746172740000000000000000000000000000000000000000000000 PUSH1 0x0 DUP3 ADD MSTORE POP JUMP JUMPDEST PUSH1 0x0 PUSH2 0x25A8 PUSH1 0x9 DUP4 PUSH2 0x210A JUMP JUMPDEST SWAP2 POP PUSH2 0x25B3 DUP3 PUSH2 0x2572 JUMP JUMPDEST PUSH1 0x20 DUP3 ADD SWAP1 POP SWAP2 SWAP1 POP JUMP JUMPDEST PUSH1 0x0 PUSH1 0x20 DUP3 ADD SWAP1 POP DUP2 DUP2 SUB PUSH1 0x0 DUP4 ADD MSTORE PUSH2 0x25D7 DUP2 PUSH2 0x259B JUMP JUMPDEST SWAP1 POP SWAP2 SWAP1 POP JUMP JUMPDEST PUSH32 0x68617320656E6400000000000000000000000000000000000000000000000000 PUSH1 0x0 DUP3 ADD MSTORE POP JUMP JUMPDEST PUSH1 0x0 PUSH2 0x2614 PUSH1 0x7 DUP4 PUSH2 0x210A JUMP JUMPDEST SWAP2 POP PUSH2 0x261F DUP3 PUSH2 0x25DE JUMP JUMPDEST PUSH1 0x20 DUP3 ADD SWAP1 POP SWAP2 SWAP1 POP JUMP JUMPDEST PUSH1 0x0 PUSH1 0x20 DUP3 ADD SWAP1 POP DUP2 DUP2 SUB PUSH1 0x0 DUP4 ADD MSTORE PUSH2 0x2643 DUP2 PUSH2 0x2607 JUMP JUMPDEST SWAP1 POP SWAP2 SWAP1 POP JUMP JUMPDEST PUSH32 0x5072652D6F72646572732061726520736F6C64206F7574000000000000000000 PUSH1 0x0 DUP3 ADD MSTORE POP JUMP JUMPDEST PUSH1 0x0 PUSH2 0x2680 PUSH1 0x17 DUP4 PUSH2 0x210A JUMP JUMPDEST SWAP2 POP PUSH2 0x268B DUP3 PUSH2 0x264A JUMP JUMPDEST PUSH1 0x20 DUP3 ADD SWAP1 POP SWAP2 SWAP1 POP JUMP JUMPDEST PUSH1 0x0 PUSH1 0x20 DUP3 ADD SWAP1 POP DUP2 DUP2 SUB PUSH1 0x0 DUP4 ADD MSTORE PUSH2 0x26AF DUP2 PUSH2 0x2673 JUMP JUMPDEST SWAP1 POP SWAP2 SWAP1 POP JUMP JUMPDEST PUSH32 0x616C726561647920707572636861736564000000000000000000000000000000 PUSH1 0x0 DUP3 ADD MSTORE POP JUMP JUMPDEST PUSH1 0x0 PUSH2 0x26EC PUSH1 0x11 DUP4 PUSH2 0x210A JUMP JUMPDEST SWAP2 POP PUSH2 0x26F7 DUP3 PUSH2 0x26B6 JUMP JUMPDEST PUSH1 0x20 DUP3 ADD SWAP1 POP SWAP2 SWAP1 POP JUMP JUMPDEST PUSH1 0x0 PUSH1 0x20 DUP3 ADD SWAP1 POP DUP2 DUP2 SUB PUSH1 0x0 DUP4 ADD MSTORE PUSH2 0x271B DUP2 PUSH2 0x26DF JUMP JUMPDEST SWAP1 POP SWAP2 SWAP1 POP JUMP JUMPDEST PUSH1 0x0 PUSH1 0x40 DUP3 ADD SWAP1 POP PUSH2 0x2737 PUSH1 0x0 DUP4 ADD DUP6 PUSH2 0x1ACC JUMP JUMPDEST PUSH2 0x2744 PUSH1 0x20 DUP4 ADD DUP5 PUSH2 0x1ACC JUMP JUMPDEST SWAP4 SWAP3 POP POP POP JUMP JUMPDEST PUSH1 0x0 DUP2 MLOAD SWAP1 POP PUSH2 0x275A DUP2 PUSH2 0x1E4A JUMP JUMPDEST SWAP3 SWAP2 POP POP JUMP JUMPDEST PUSH1 0x0 PUSH1 0x20 DUP3 DUP5 SUB SLT ISZERO PUSH2 0x2776 JUMPI PUSH2 0x2775 PUSH2 0x1B3E JUMP JUMPDEST JUMPDEST PUSH1 0x0 PUSH2 0x2784 DUP5 DUP3 DUP6 ADD PUSH2 0x274B JUMP JUMPDEST SWAP2 POP POP SWAP3 SWAP2 POP POP JUMP JUMPDEST PUSH32 0x75736474546F6B656E20616C6C6F77616E636520746F6F206C6F770000000000 PUSH1 0x0 DUP3 ADD MSTORE POP JUMP JUMPDEST PUSH1 0x0 PUSH2 0x27C3 PUSH1 0x1B DUP4 PUSH2 0x210A JUMP JUMPDEST SWAP2 POP PUSH2 0x27CE DUP3 PUSH2 0x278D JUMP JUMPDEST PUSH1 0x20 DUP3 ADD SWAP1 POP SWAP2 SWAP1 POP JUMP JUMPDEST PUSH1 0x0 PUSH1 0x20 DUP3 ADD SWAP1 POP DUP2 DUP2 SUB PUSH1 0x0 DUP4 ADD MSTORE PUSH2 0x27F2 DUP2 PUSH2 0x27B6 JUMP JUMPDEST SWAP1 POP SWAP2 SWAP1 POP JUMP JUMPDEST PUSH1 0x0 PUSH1 0x60 DUP3 ADD SWAP1 POP PUSH2 0x280E PUSH1 0x0 DUP4 ADD DUP7 PUSH2 0x1ACC JUMP JUMPDEST PUSH2 0x281B PUSH1 0x20 DUP4 ADD DUP6 PUSH2 0x1ACC JUMP JUMPDEST PUSH2 0x2828 PUSH1 0x40 DUP4 ADD DUP5 PUSH2 0x1FD0 JUMP JUMPDEST SWAP5 SWAP4 POP POP POP POP JUMP JUMPDEST PUSH1 0x0 PUSH1 0x40 DUP3 ADD SWAP1 POP PUSH2 0x2845 PUSH1 0x0 DUP4 ADD DUP6 PUSH2 0x1FD0 JUMP JUMPDEST PUSH2 0x2852 PUSH1 0x20 DUP4 ADD DUP5 PUSH2 0x1FD0 JUMP JUMPDEST SWAP4 SWAP3 POP POP POP JUMP JUMPDEST PUSH32 0x4F776E61626C653A206E6577206F776E657220697320746865207A65726F2061 PUSH1 0x0 DUP3 ADD MSTORE PUSH32 0x6464726573730000000000000000000000000000000000000000000000000000 PUSH1 0x20 DUP3 ADD MSTORE POP JUMP JUMPDEST PUSH1 0x0 PUSH2 0x28B5 PUSH1 0x26 DUP4 PUSH2 0x210A JUMP JUMPDEST SWAP2 POP PUSH2 0x28C0 DUP3 PUSH2 0x2859 JUMP JUMPDEST PUSH1 0x40 DUP3 ADD SWAP1 POP SWAP2 SWAP1 POP JUMP JUMPDEST PUSH1 0x0 PUSH1 0x20 DUP3 ADD SWAP1 POP DUP2 DUP2 SUB PUSH1 0x0 DUP4 ADD MSTORE PUSH2 0x28E4 DUP2 PUSH2 0x28A8 JUMP JUMPDEST SWAP1 POP SWAP2 SWAP1 POP JUMP INVALID LOG2 PUSH5 0x6970667358 0x22 SLT KECCAK256 0xA6 SSTORE 0x29 0xE4 0xD0 MLOAD SWAP8 PUSH9 0x87CE181244C9F6CC21 0xFB 0xBE RETURN 0xBE CALLDATACOPY EQ PUSH13 0x370295AAC70206D864736F6C63 NUMBER STOP ADDMOD GT STOP CALLER "
				},
				"gasEstimates": {
					"creation": {
						"codeDepositCost": "2105800",
						"executionCost": "infinite",
						"totalCost": "infinite"
					},
					"external": {
						"buyTokens()": "infinite",
						"changeWhiteList(address,bool)": "27321",
						"changeWhiteListBatch(address[],bool[])": "infinite",
						"disableWhiteList()": "2565",
						"emergencyWithdraw()": "infinite",
						"exigencyWithdrawToken(uint256)": "infinite",
						"getEndTime()": "2575",
						"getPreSellCoinAmount()": "2504",
						"getPreSellCounter()": "2551",
						"getPresellMax()": "2596",
						"getStartTime()": "2618",
						"getUsdtAmount()": "2526",
						"getUserHasBuy(address)": "2951",
						"getUserPreSellCoinAmount(address)": "2930",
						"getWithdrawCounter()": "2604",
						"hasBuy(address)": "2957",
						"marketAddress()": "2604",
						"owner()": "2568",
						"presellTokenMintAddress()": "2561",
						"renounceOwnership()": "30419",
						"sellToken()": "infinite",
						"setAmount(uint256)": "24873",
						"setDisableWhiteList(bool)": "27037",
						"setMarketAddress(address)": "27072",
						"setPresellMax(uint32)": "27081",
						"setTime(uint64,uint64)": "infinite",
						"transferOwnership(address)": "30808",
						"usdtMintAddress()": "2625",
						"usdtToken()": "infinite",
						"userPresellBalanceMap(address)": "2882",
						"whiteList(address)": "2891",
						"withdrawPresellTokens()": "infinite"
					}
				},
				"methodIdentifiers": {
					"buyTokens()": "d0febe4c",
					"changeWhiteList(address,bool)": "39b417b7",
					"changeWhiteListBatch(address[],bool[])": "08c9d227",
					"disableWhiteList()": "dcd83616",
					"emergencyWithdraw()": "db2e21bc",
					"exigencyWithdrawToken(uint256)": "5fc1cb63",
					"getEndTime()": "439f5ac2",
					"getPreSellCoinAmount()": "78eb6c6f",
					"getPreSellCounter()": "f01fc57c",
					"getPresellMax()": "d1d04e1f",
					"getStartTime()": "c828371e",
					"getUsdtAmount()": "d35cde41",
					"getUserHasBuy(address)": "374eedef",
					"getUserPreSellCoinAmount(address)": "8568f4ce",
					"getWithdrawCounter()": "03d7424d",
					"hasBuy(address)": "3d719da7",
					"marketAddress()": "95623641",
					"owner()": "8da5cb5b",
					"presellTokenMintAddress()": "027734fa",
					"renounceOwnership()": "715018a6",
					"sellToken()": "9769f0b0",
					"setAmount(uint256)": "271f88b4",
					"setDisableWhiteList(bool)": "50b2b0a4",
					"setMarketAddress(address)": "fae92612",
					"setPresellMax(uint32)": "69c82ef7",
					"setTime(uint64,uint64)": "acf6c91c",
					"transferOwnership(address)": "f2fde38b",
					"usdtMintAddress()": "88af60c6",
					"usdtToken()": "a98ad46c",
					"userPresellBalanceMap(address)": "90f5881a",
					"whiteList(address)": "372c12b1",
					"withdrawPresellTokens()": "c9ede793"
				}
			},
			"storageLayout": {
				"storage": [
					{
						"astId": 70,
						"contract": "ex/BPresell.sol:BabyPresell",
						"label": "_owner",
						"offset": 0,
						"slot": "0",
						"type": "t_address"
					},
					{
						"astId": 172,
						"contract": "ex/BPresell.sol:BabyPresell",
						"label": "usdtMintAddress",
						"offset": 0,
						"slot": "1",
						"type": "t_address"
					},
					{
						"astId": 175,
						"contract": "ex/BPresell.sol:BabyPresell",
						"label": "presellTokenMintAddress",
						"offset": 0,
						"slot": "2",
						"type": "t_address"
					},
					{
						"astId": 178,
						"contract": "ex/BPresell.sol:BabyPresell",
						"label": "marketAddress",
						"offset": 0,
						"slot": "3",
						"type": "t_address"
					},
					{
						"astId": 185,
						"contract": "ex/BPresell.sol:BabyPresell",
						"label": "usdtAmount",
						"offset": 0,
						"slot": "4",
						"type": "t_uint256"
					},
					{
						"astId": 192,
						"contract": "ex/BPresell.sol:BabyPresell",
						"label": "preSellCoinPreAmount",
						"offset": 0,
						"slot": "5",
						"type": "t_uint256"
					},
					{
						"astId": 194,
						"contract": "ex/BPresell.sol:BabyPresell",
						"label": "counter",
						"offset": 0,
						"slot": "6",
						"type": "t_uint32"
					},
					{
						"astId": 196,
						"contract": "ex/BPresell.sol:BabyPresell",
						"label": "withdrawCounter",
						"offset": 4,
						"slot": "6",
						"type": "t_uint32"
					},
					{
						"astId": 199,
						"contract": "ex/BPresell.sol:BabyPresell",
						"label": "preMax",
						"offset": 8,
						"slot": "6",
						"type": "t_uint32"
					},
					{
						"astId": 201,
						"contract": "ex/BPresell.sol:BabyPresell",
						"label": "startAt",
						"offset": 12,
						"slot": "6",
						"type": "t_uint64"
					},
					{
						"astId": 203,
						"contract": "ex/BPresell.sol:BabyPresell",
						"label": "endAt",
						"offset": 20,
						"slot": "6",
						"type": "t_uint64"
					},
					{
						"astId": 205,
						"contract": "ex/BPresell.sol:BabyPresell",
						"label": "disableWhiteList",
						"offset": 28,
						"slot": "6",
						"type": "t_bool"
					},
					{
						"astId": 215,
						"contract": "ex/BPresell.sol:BabyPresell",
						"label": "userPresellBalanceMap",
						"offset": 0,
						"slot": "7",
						"type": "t_mapping(t_address,t_uint256)"
					},
					{
						"astId": 219,
						"contract": "ex/BPresell.sol:BabyPresell",
						"label": "hasBuy",
						"offset": 0,
						"slot": "8",
						"type": "t_mapping(t_address,t_bool)"
					},
					{
						"astId": 223,
						"contract": "ex/BPresell.sol:BabyPresell",
						"label": "whiteList",
						"offset": 0,
						"slot": "9",
						"type": "t_mapping(t_address,t_bool)"
					}
				],
				"types": {
					"t_address": {
						"encoding": "inplace",
						"label": "address",
						"numberOfBytes": "20"
					},
					"t_bool": {
						"encoding": "inplace",
						"label": "bool",
						"numberOfBytes": "1"
					},
					"t_mapping(t_address,t_bool)": {
						"encoding": "mapping",
						"key": "t_address",
						"label": "mapping(address => bool)",
						"numberOfBytes": "32",
						"value": "t_bool"
					},
					"t_mapping(t_address,t_uint256)": {
						"encoding": "mapping",
						"key": "t_address",
						"label": "mapping(address => uint256)",
						"numberOfBytes": "32",
						"value": "t_uint256"
					},
					"t_uint256": {
						"encoding": "inplace",
						"label": "uint256",
						"numberOfBytes": "32"
					},
					"t_uint32": {
						"encoding": "inplace",
						"label": "uint32",
						"numberOfBytes": "4"
					},
					"t_uint64": {
						"encoding": "inplace",
						"label": "uint64",
						"numberOfBytes": "8"
					}
				}
			},
			"userdoc": {
				"kind": "user",
				"methods": {},
				"version": 1
			}
		}
	}
}