{
	"ex/yoho.sol": {
		"ARC20USDT": {
			"abi": [
				{
					"inputs": [],
					"payable": false,
					"stateMutability": "nonpayable",
					"type": "constructor"
				},
				{
					"anonymous": false,
					"inputs": [
						{
							"indexed": true,
							"internalType": "address",
							"name": "_user",
							"type": "address"
						}
					],
					"name": "AddedWhiteList",
					"type": "event"
				},
				{
					"anonymous": false,
					"inputs": [
						{
							"indexed": true,
							"internalType": "address",
							"name": "owner",
							"type": "address"
						},
						{
							"indexed": true,
							"internalType": "address",
							"name": "spender",
							"type": "address"
						},
						{
							"indexed": false,
							"internalType": "uint256",
							"name": "value",
							"type": "uint256"
						}
					],
					"name": "Approval",
					"type": "event"
				},
				{
					"anonymous": false,
					"inputs": [
						{
							"indexed": true,
							"internalType": "address",
							"name": "previousOwner",
							"type": "address"
						},
						{
							"indexed": true,
							"internalType": "address",
							"name": "newOwner",
							"type": "address"
						}
					],
					"name": "OwnershipTransferred",
					"type": "event"
				},
				{
					"anonymous": false,
					"inputs": [
						{
							"indexed": true,
							"internalType": "uint256",
							"name": "oldrate",
							"type": "uint256"
						},
						{
							"indexed": true,
							"internalType": "uint256",
							"name": "newrate",
							"type": "uint256"
						}
					],
					"name": "RateChange",
					"type": "event"
				},
				{
					"anonymous": false,
					"inputs": [
						{
							"indexed": true,
							"internalType": "address",
							"name": "_user",
							"type": "address"
						}
					],
					"name": "RemovedWhiteList",
					"type": "event"
				},
				{
					"anonymous": false,
					"inputs": [
						{
							"indexed": true,
							"internalType": "bool",
							"name": "oldlimit",
							"type": "bool"
						},
						{
							"indexed": true,
							"internalType": "bool",
							"name": "newlimit",
							"type": "bool"
						}
					],
					"name": "ResetLimite",
					"type": "event"
				},
				{
					"anonymous": false,
					"inputs": [
						{
							"indexed": true,
							"internalType": "address",
							"name": "from",
							"type": "address"
						},
						{
							"indexed": true,
							"internalType": "address",
							"name": "to",
							"type": "address"
						},
						{
							"indexed": false,
							"internalType": "uint256",
							"name": "value",
							"type": "uint256"
						}
					],
					"name": "Transfer",
					"type": "event"
				},
				{
					"constant": true,
					"inputs": [],
					"name": "_burnAccount",
					"outputs": [
						{
							"internalType": "address",
							"name": "",
							"type": "address"
						}
					],
					"payable": false,
					"stateMutability": "view",
					"type": "function"
				},
				{
					"constant": true,
					"inputs": [],
					"name": "_decimals",
					"outputs": [
						{
							"internalType": "uint8",
							"name": "",
							"type": "uint8"
						}
					],
					"payable": false,
					"stateMutability": "view",
					"type": "function"
				},
				{
					"constant": true,
					"inputs": [],
					"name": "_name",
					"outputs": [
						{
							"internalType": "string",
							"name": "",
							"type": "string"
						}
					],
					"payable": false,
					"stateMutability": "view",
					"type": "function"
				},
				{
					"constant": true,
					"inputs": [],
					"name": "_symbol",
					"outputs": [
						{
							"internalType": "string",
							"name": "",
							"type": "string"
						}
					],
					"payable": false,
					"stateMutability": "view",
					"type": "function"
				},
				{
					"constant": false,
					"inputs": [
						{
							"internalType": "address",
							"name": "_authUser",
							"type": "address"
						}
					],
					"name": "addWhiteList",
					"outputs": [],
					"payable": false,
					"stateMutability": "nonpayable",
					"type": "function"
				},
				{
					"constant": true,
					"inputs": [
						{
							"internalType": "address",
							"name": "owner",
							"type": "address"
						},
						{
							"internalType": "address",
							"name": "spender",
							"type": "address"
						}
					],
					"name": "allowance",
					"outputs": [
						{
							"internalType": "uint256",
							"name": "",
							"type": "uint256"
						}
					],
					"payable": false,
					"stateMutability": "view",
					"type": "function"
				},
				{
					"constant": false,
					"inputs": [
						{
							"internalType": "address",
							"name": "spender",
							"type": "address"
						},
						{
							"internalType": "uint256",
							"name": "amount",
							"type": "uint256"
						}
					],
					"name": "approve",
					"outputs": [
						{
							"internalType": "bool",
							"name": "",
							"type": "bool"
						}
					],
					"payable": false,
					"stateMutability": "nonpayable",
					"type": "function"
				},
				{
					"constant": true,
					"inputs": [
						{
							"internalType": "address",
							"name": "account",
							"type": "address"
						}
					],
					"name": "balanceOf",
					"outputs": [
						{
							"internalType": "uint256",
							"name": "",
							"type": "uint256"
						}
					],
					"payable": false,
					"stateMutability": "view",
					"type": "function"
				},
				{
					"constant": true,
					"inputs": [],
					"name": "basisPointsRate",
					"outputs": [
						{
							"internalType": "uint256",
							"name": "",
							"type": "uint256"
						}
					],
					"payable": false,
					"stateMutability": "view",
					"type": "function"
				},
				{
					"constant": false,
					"inputs": [
						{
							"internalType": "uint256",
							"name": "amount",
							"type": "uint256"
						}
					],
					"name": "burn",
					"outputs": [
						{
							"internalType": "bool",
							"name": "",
							"type": "bool"
						}
					],
					"payable": false,
					"stateMutability": "nonpayable",
					"type": "function"
				},
				{
					"constant": true,
					"inputs": [],
					"name": "decimals",
					"outputs": [
						{
							"internalType": "uint8",
							"name": "",
							"type": "uint8"
						}
					],
					"payable": false,
					"stateMutability": "view",
					"type": "function"
				},
				{
					"constant": false,
					"inputs": [
						{
							"internalType": "address",
							"name": "spender",
							"type": "address"
						},
						{
							"internalType": "uint256",
							"name": "subtractedValue",
							"type": "uint256"
						}
					],
					"name": "decreaseAllowance",
					"outputs": [
						{
							"internalType": "bool",
							"name": "",
							"type": "bool"
						}
					],
					"payable": false,
					"stateMutability": "nonpayable",
					"type": "function"
				},
				{
					"constant": true,
					"inputs": [],
					"name": "getOwner",
					"outputs": [
						{
							"internalType": "address",
							"name": "",
							"type": "address"
						}
					],
					"payable": false,
					"stateMutability": "view",
					"type": "function"
				},
				{
					"constant": false,
					"inputs": [
						{
							"internalType": "address",
							"name": "spender",
							"type": "address"
						},
						{
							"internalType": "uint256",
							"name": "addedValue",
							"type": "uint256"
						}
					],
					"name": "increaseAllowance",
					"outputs": [
						{
							"internalType": "bool",
							"name": "",
							"type": "bool"
						}
					],
					"payable": false,
					"stateMutability": "nonpayable",
					"type": "function"
				},
				{
					"constant": true,
					"inputs": [
						{
							"internalType": "address",
							"name": "",
							"type": "address"
						}
					],
					"name": "isWhiteListed",
					"outputs": [
						{
							"internalType": "bool",
							"name": "",
							"type": "bool"
						}
					],
					"payable": false,
					"stateMutability": "view",
					"type": "function"
				},
				{
					"constant": true,
					"inputs": [],
					"name": "limitTransfer",
					"outputs": [
						{
							"internalType": "bool",
							"name": "",
							"type": "bool"
						}
					],
					"payable": false,
					"stateMutability": "view",
					"type": "function"
				},
				{
					"constant": false,
					"inputs": [
						{
							"internalType": "uint256",
							"name": "amount",
							"type": "uint256"
						}
					],
					"name": "mint",
					"outputs": [
						{
							"internalType": "bool",
							"name": "",
							"type": "bool"
						}
					],
					"payable": false,
					"stateMutability": "nonpayable",
					"type": "function"
				},
				{
					"constant": true,
					"inputs": [],
					"name": "name",
					"outputs": [
						{
							"internalType": "string",
							"name": "",
							"type": "string"
						}
					],
					"payable": false,
					"stateMutability": "view",
					"type": "function"
				},
				{
					"constant": true,
					"inputs": [],
					"name": "owner",
					"outputs": [
						{
							"internalType": "address",
							"name": "",
							"type": "address"
						}
					],
					"payable": false,
					"stateMutability": "view",
					"type": "function"
				},
				{
					"constant": false,
					"inputs": [
						{
							"internalType": "address",
							"name": "_clearedUser",
							"type": "address"
						}
					],
					"name": "removeWhiteList",
					"outputs": [],
					"payable": false,
					"stateMutability": "nonpayable",
					"type": "function"
				},
				{
					"constant": false,
					"inputs": [],
					"name": "renounceOwnership",
					"outputs": [],
					"payable": false,
					"stateMutability": "nonpayable",
					"type": "function"
				},
				{
					"constant": false,
					"inputs": [
						{
							"internalType": "bool",
							"name": "_limitTransfer",
							"type": "bool"
						}
					],
					"name": "resetLimiteTransfer",
					"outputs": [
						{
							"internalType": "bool",
							"name": "",
							"type": "bool"
						}
					],
					"payable": false,
					"stateMutability": "nonpayable",
					"type": "function"
				},
				{
					"constant": false,
					"inputs": [
						{
							"internalType": "uint256",
							"name": "_basisPointsRate",
							"type": "uint256"
						}
					],
					"name": "setBasisPointsRate",
					"outputs": [
						{
							"internalType": "bool",
							"name": "",
							"type": "bool"
						}
					],
					"payable": false,
					"stateMutability": "nonpayable",
					"type": "function"
				},
				{
					"constant": false,
					"inputs": [
						{
							"internalType": "address",
							"name": "burnAddress",
							"type": "address"
						},
						{
							"internalType": "bool",
							"name": "isBurnTotal",
							"type": "bool"
						}
					],
					"name": "setBurnAcount",
					"outputs": [],
					"payable": false,
					"stateMutability": "nonpayable",
					"type": "function"
				},
				{
					"constant": true,
					"inputs": [],
					"name": "symbol",
					"outputs": [
						{
							"internalType": "string",
							"name": "",
							"type": "string"
						}
					],
					"payable": false,
					"stateMutability": "view",
					"type": "function"
				},
				{
					"constant": true,
					"inputs": [],
					"name": "totalSupply",
					"outputs": [
						{
							"internalType": "uint256",
							"name": "",
							"type": "uint256"
						}
					],
					"payable": false,
					"stateMutability": "view",
					"type": "function"
				},
				{
					"constant": false,
					"inputs": [
						{
							"internalType": "address",
							"name": "recipient",
							"type": "address"
						},
						{
							"internalType": "uint256",
							"name": "amount",
							"type": "uint256"
						}
					],
					"name": "transfer",
					"outputs": [
						{
							"internalType": "bool",
							"name": "",
							"type": "bool"
						}
					],
					"payable": false,
					"stateMutability": "nonpayable",
					"type": "function"
				},
				{
					"constant": false,
					"inputs": [
						{
							"internalType": "address",
							"name": "sender",
							"type": "address"
						},
						{
							"internalType": "address",
							"name": "recipient",
							"type": "address"
						},
						{
							"internalType": "uint256",
							"name": "amount",
							"type": "uint256"
						}
					],
					"name": "transferFrom",
					"outputs": [
						{
							"internalType": "bool",
							"name": "",
							"type": "bool"
						}
					],
					"payable": false,
					"stateMutability": "nonpayable",
					"type": "function"
				},
				{
					"constant": false,
					"inputs": [
						{
							"internalType": "address",
							"name": "newOwner",
							"type": "address"
						}
					],
					"name": "transferOwnership",
					"outputs": [],
					"payable": false,
					"stateMutability": "nonpayable",
					"type": "function"
				}
			],
			"devdoc": {
				"methods": {
					"allowance(address,address)": {
						"details": "See {ARC20-allowance}."
					},
					"approve(address,uint256)": {
						"details": "See {ARC20-approve}.    * Requirements:    * - `spender` cannot be the zero address."
					},
					"balanceOf(address)": {
						"details": "See {ARC20-balanceOf}."
					},
					"burn(uint256)": {
						"details": "Burn `amount` tokens and decreasing the total supply."
					},
					"decimals()": {
						"details": "Returns the token decimals."
					},
					"decreaseAllowance(address,uint256)": {
						"details": "Atomically decreases the allowance granted to `spender` by the caller.    * This is an alternative to {approve} that can be used as a mitigation for problems described in {ARC20-approve}.    * Emits an {Approval} event indicating the updated allowance.    * Requirements:    * - `spender` cannot be the zero address. - `spender` must have allowance for the caller of at least `subtractedValue`."
					},
					"getOwner()": {
						"details": "Returns the bep token owner."
					},
					"increaseAllowance(address,uint256)": {
						"details": "Atomically increases the allowance granted to `spender` by the caller.    * This is an alternative to {approve} that can be used as a mitigation for problems described in {ARC20-approve}.    * Emits an {Approval} event indicating the updated allowance.    * Requirements:    * - `spender` cannot be the zero address."
					},
					"mint(uint256)": {
						"details": "Creates `amount` tokens and assigns them to `msg.sender`, increasing the total supply.    * Requirements    * - `msg.sender` must be the token owner"
					},
					"name()": {
						"details": "Returns the token name."
					},
					"owner()": {
						"details": "Returns the address of the current owner."
					},
					"renounceOwnership()": {
						"details": "Leaves the contract without owner. It will not be possible to call `onlyOwner` functions anymore. Can only be called by the current owner.    * NOTE: Renouncing ownership will leave the contract without an owner, thereby removing any functionality that is only available to the owner."
					},
					"setBasisPointsRate(uint256)": {
						"details": "`basisPointsRate` "
					},
					"symbol()": {
						"details": "Returns the token symbol."
					},
					"totalSupply()": {
						"details": "See {ARC20-totalSupply}."
					},
					"transfer(address,uint256)": {
						"details": "See {ARC20-transfer}.    * Requirements:    * - `recipient` cannot be the zero address. - the caller must have a balance of at least `amount`."
					},
					"transferFrom(address,address,uint256)": {
						"details": "See {ARC20-transferFrom}.    * Emits an {Approval} event indicating the updated allowance. This is not required by the EIP. See the note at the beginning of {ARC20};    * Requirements: - `sender` and `recipient` cannot be the zero address. - `sender` must have a balance of at least `amount`. - the caller must have allowance for `sender`'s tokens of at least `amount`."
					},
					"transferOwnership(address)": {
						"details": "Transfers ownership of the contract to a new account (`newOwner`). Can only be called by the current owner."
					}
				}
			},
			"evm": {
				"assembly": "    /* \"ex/yoho.sol\":11376:21612  contract ARC20USDT is  Context, IARC20, Ownable {\r... */\n  mstore(0x40, 0x80)\n    /* \"ex/yoho.sol\":11543:11547  5000 */\n  0x1388\n    /* \"ex/yoho.sol\":11513:11547  uint public basisPointsRate = 5000 */\n  0x02\n  sstore\n    /* \"ex/yoho.sol\":11552:11584  bool public limitTransfer = true */\n  0x03\n  dup1\n  sload\n  not(0xff)\n  and\n    /* \"ex/yoho.sol\":11580:11584  true */\n  0x01\n    /* \"ex/yoho.sol\":11552:11584  bool public limitTransfer = true */\n  or\n  swap1\n  sstore\n    /* \"ex/yoho.sol\":11833:12145  constructor() public {\r... */\n  callvalue\n    /* \"--CODEGEN--\":5:7   */\n  dup1\n  iszero\n  tag_1\n  jumpi\n    /* \"--CODEGEN--\":30:31   */\n  0x00\n    /* \"--CODEGEN--\":27:28   */\n  dup1\n    /* \"--CODEGEN--\":20:32   */\n  revert\n    /* \"--CODEGEN--\":5:7   */\ntag_1:\n  pop\n    /* \"ex/yoho.sol\":9885:9902  address msgSender */\n  0x00\n    /* \"ex/yoho.sol\":9905:9917  _msgSender() */\n  tag_7\n  sub(shl(0xe0, 0x01), 0x01)\n    /* \"ex/yoho.sol\":9905:9915  _msgSender */\n  tag_8\n    /* \"ex/yoho.sol\":9905:9917  _msgSender() */\n  and\n  jump\t// in\ntag_7:\n    /* \"ex/yoho.sol\":9924:9930  _owner */\n  0x00\n    /* \"ex/yoho.sol\":9924:9942  _owner = msgSender */\n  dup1\n  sload\n  not(sub(shl(0xa0, 0x01), 0x01))\n  and\n  sub(shl(0xa0, 0x01), 0x01)\n  dup4\n  and\n  swap1\n  dup2\n  or\n  dup3\n  sstore\n    /* \"ex/yoho.sol\":9954:9997  OwnershipTransferred(address(0), msgSender) */\n  mload(0x40)\n    /* \"ex/yoho.sol\":9924:9942  _owner = msgSender */\n  swap3\n  swap4\n  pop\n  swap2\n    /* \"ex/yoho.sol\":9954:9997  OwnershipTransferred(address(0), msgSender) */\n  0x8be0079c531659141344cd1fd0a4f28419497f9722a3daafe3b4186f6b6457e0\n  swap1\n    /* \"ex/yoho.sol\":9924:9930  _owner */\n  dup3\n  swap1\n    /* \"ex/yoho.sol\":9954:9997  OwnershipTransferred(address(0), msgSender) */\n  log3\n  pop\n    /* \"ex/yoho.sol\":11861:11880  _name = \"AITD Yoho\" */\n  0x40\n  dup1\n  mload\n  dup1\n  dup3\n  add\n  swap1\n  swap2\n  mstore\n  0x09\n  dup1\n  dup3\n  mstore\n  shl(0xb8, 0x4149544420596f686f)\n  0x20\n  swap1\n  swap3\n  add\n  swap2\n  dup3\n  mstore\n  tag_10\n  swap2\n    /* \"ex/yoho.sol\":11861:11866  _name */\n  0x08\n  swap2\n    /* \"ex/yoho.sol\":11861:11880  _name = \"AITD Yoho\" */\n  tag_11\n  jump\t// in\ntag_10:\n  pop\n    /* \"ex/yoho.sol\":11887:11903  _symbol = \"YOHO\" */\n  0x40\n  dup1\n  mload\n  dup1\n  dup3\n  add\n  swap1\n  swap2\n  mstore\n  0x04\n  dup1\n  dup3\n  mstore\n  shl(0xe0, 0x594f484f)\n  0x20\n  swap1\n  swap3\n  add\n  swap2\n  dup3\n  mstore\n  tag_12\n  swap2\n    /* \"ex/yoho.sol\":11887:11894  _symbol */\n  0x07\n  swap2\n    /* \"ex/yoho.sol\":11887:11903  _symbol = \"YOHO\" */\n  tag_11\n  jump\t// in\ntag_12:\n  pop\n    /* \"ex/yoho.sol\":11910:11919  _decimals */\n  0x06\n    /* \"ex/yoho.sol\":11910:11924  _decimals = 18 */\n  dup1\n  sload\n  not(0xff)\n  and\n    /* \"ex/yoho.sol\":11922:11924  18 */\n  0x12\n    /* \"ex/yoho.sol\":11910:11924  _decimals = 18 */\n  or\n  swap1\n  sstore\n    /* \"ex/yoho.sol\":11946:11978  10000000000000000000000000000000 */\n  0x7e37be2022c0914b2680000000\n    /* \"ex/yoho.sol\":11931:11943  _totalSupply */\n  0x05\n    /* \"ex/yoho.sol\":11931:11978  _totalSupply = 10000000000000000000000000000000 */\n  dup2\n  swap1\n  sstore\n    /* \"ex/yoho.sol\":11995:12005  msg.sender */\n  caller\n    /* \"ex/yoho.sol\":11910:11919  _decimals */\n  0x00\n    /* \"ex/yoho.sol\":11985:12006  _balances[msg.sender] */\n  dup2\n  dup2\n  mstore\n    /* \"ex/yoho.sol\":11910:11924  _decimals = 18 */\n  0x01\n    /* \"ex/yoho.sol\":11985:12006  _balances[msg.sender] */\n  0x20\n  swap1\n  dup2\n  mstore\n  0x40\n  dup1\n  dup4\n  keccak256\n    /* \"ex/yoho.sol\":11985:12021  _balances[msg.sender] = _totalSupply */\n  dup6\n  swap1\n  sstore\n    /* \"ex/yoho.sol\":12028:12040  _burnAccount */\n  0x09\n    /* \"ex/yoho.sol\":12028:12053  _burnAccount = address(0) */\n  dup1\n  sload\n  not(sub(shl(0xa8, 0x01), 0x01))\n    /* \"ex/yoho.sol\":12060:12079  _isBurnTotal = true */\n  and\n  shl(0xa0, 0x01)\n  or\n  swap1\n  sstore\n    /* \"ex/yoho.sol\":12093:12139  Transfer(address(0), msg.sender, _totalSupply) */\n  dup1\n  mload\n  swap5\n  dup6\n  mstore\n  mload\n    /* \"ex/yoho.sol\":11995:12005  msg.sender */\n  swap3\n  swap4\n    /* \"ex/yoho.sol\":11910:11919  _decimals */\n  swap2\n  swap3\n    /* \"ex/yoho.sol\":12093:12139  Transfer(address(0), msg.sender, _totalSupply) */\n  0xddf252ad1be2c89b69c2b068fc378daa952ba7f163c4a11628f55a4df523b3ef\n  swap3\n  dup2\n  swap1\n  sub\n  swap1\n  swap2\n  add\n  swap1\n  log3\n    /* \"ex/yoho.sol\":11376:21612  contract ARC20USDT is  Context, IARC20, Ownable {\r... */\n  jump(tag_13)\n    /* \"ex/yoho.sol\":3773:3865  function _msgSender() internal view returns (address payable) {\r... */\ntag_8:\n    /* \"ex/yoho.sol\":3849:3859  msg.sender */\n  caller\n    /* \"ex/yoho.sol\":3773:3865  function _msgSender() internal view returns (address payable) {\r... */\ntag_14:\n  swap1\n  jump\t// out\n    /* \"ex/yoho.sol\":11376:21612  contract ARC20USDT is  Context, IARC20, Ownable {\r... */\ntag_11:\n  dup3\n  dup1\n  sload\n  0x01\n  dup2\n  0x01\n  and\n  iszero\n  0x0100\n  mul\n  sub\n  and\n  0x02\n  swap1\n  div\n  swap1\n  0x00\n  mstore\n  keccak256(0x00, 0x20)\n  swap1\n  0x1f\n  add\n  0x20\n  swap1\n  div\n  dup2\n  add\n  swap3\n  dup3\n  0x1f\n  lt\n  tag_16\n  jumpi\n  dup1\n  mload\n  not(0xff)\n  and\n  dup4\n  dup1\n  add\n  or\n  dup6\n  sstore\n  jump(tag_18)\ntag_16:\n  dup3\n  dup1\n  add\n  0x01\n  add\n  dup6\n  sstore\n  dup3\n  iszero\n  tag_18\n  jumpi\n  swap2\n  dup3\n  add\ntag_17:\n  dup3\n  dup2\n  gt\n  iszero\n  tag_18\n  jumpi\n  dup3\n  mload\n  dup3\n  sstore\n  swap2\n  0x20\n  add\n  swap2\n  swap1\n  0x01\n  add\n  swap1\n  jump(tag_17)\ntag_18:\n  pop\n  tag_19\n  swap3\n  swap2\n  pop\n  tag_20\n  jump\t// in\ntag_19:\n  pop\n  swap1\n  jump\t// out\ntag_20:\n  tag_14\n  swap2\n  swap1\ntag_22:\n  dup1\n  dup3\n  gt\n  iszero\n  tag_19\n  jumpi\n  0x00\n  dup2\n  sstore\n  0x01\n  add\n  jump(tag_22)\ntag_13:\n  dataSize(sub_0)\n  dup1\n  dataOffset(sub_0)\n  0x00\n  codecopy\n  0x00\n  return\nstop\n\nsub_0: assembly {\n        /* \"ex/yoho.sol\":11376:21612  contract ARC20USDT is  Context, IARC20, Ownable {\r... */\n      mstore(0x40, 0x80)\n      callvalue\n        /* \"--CODEGEN--\":8:17   */\n      dup1\n        /* \"--CODEGEN--\":5:7   */\n      iszero\n      tag_1\n      jumpi\n        /* \"--CODEGEN--\":30:31   */\n      0x00\n        /* \"--CODEGEN--\":27:28   */\n      dup1\n        /* \"--CODEGEN--\":20:32   */\n      revert\n        /* \"--CODEGEN--\":5:7   */\n    tag_1:\n        /* \"ex/yoho.sol\":11376:21612  contract ARC20USDT is  Context, IARC20, Ownable {\r... */\n      pop\n      jumpi(tag_2, lt(calldatasize, 0x04))\n      shr(0xe0, calldataload(0x00))\n      dup1\n      0x70a08231\n      gt\n      tag_32\n      jumpi\n      dup1\n      0xa9059cbb\n      gt\n      tag_33\n      jumpi\n      dup1\n      0xdd644f72\n      gt\n      tag_34\n      jumpi\n      dup1\n      0xdd644f72\n      eq\n      tag_28\n      jumpi\n      dup1\n      0xe7cd4a04\n      eq\n      tag_29\n      jumpi\n      dup1\n      0xea924f06\n      eq\n      tag_30\n      jumpi\n      dup1\n      0xf2fde38b\n      eq\n      tag_31\n      jumpi\n      jump(tag_2)\n    tag_34:\n      dup1\n      0xa9059cbb\n      eq\n      tag_24\n      jumpi\n      dup1\n      0xb09f1266\n      eq\n      tag_25\n      jumpi\n      dup1\n      0xd28d8852\n      eq\n      tag_26\n      jumpi\n      dup1\n      0xdd62ed3e\n      eq\n      tag_27\n      jumpi\n      jump(tag_2)\n    tag_33:\n      dup1\n      0x8da5cb5b\n      gt\n      tag_35\n      jumpi\n      dup1\n      0x8da5cb5b\n      eq\n      tag_20\n      jumpi\n      dup1\n      0x95d89b41\n      eq\n      tag_21\n      jumpi\n      dup1\n      0xa0712d68\n      eq\n      tag_22\n      jumpi\n      dup1\n      0xa457c2d7\n      eq\n      tag_23\n      jumpi\n      jump(tag_2)\n    tag_35:\n      dup1\n      0x70a08231\n      eq\n      tag_17\n      jumpi\n      dup1\n      0x715018a6\n      eq\n      tag_18\n      jumpi\n      dup1\n      0x893d20e8\n      eq\n      tag_19\n      jumpi\n      jump(tag_2)\n    tag_32:\n      dup1\n      0x3224d395\n      gt\n      tag_36\n      jumpi\n      dup1\n      0x39509351\n      gt\n      tag_37\n      jumpi\n      dup1\n      0x39509351\n      eq\n      tag_13\n      jumpi\n      dup1\n      0x42966c68\n      eq\n      tag_14\n      jumpi\n      dup1\n      0x5fdf2be0\n      eq\n      tag_15\n      jumpi\n      dup1\n      0x6f9170f6\n      eq\n      tag_16\n      jumpi\n      jump(tag_2)\n    tag_37:\n      dup1\n      0x3224d395\n      eq\n      tag_10\n      jumpi\n      dup1\n      0x32424aa3\n      eq\n      tag_11\n      jumpi\n      dup1\n      0x3478591a\n      eq\n      tag_12\n      jumpi\n      jump(tag_2)\n    tag_36:\n      dup1\n      0x2042e5c2\n      gt\n      tag_38\n      jumpi\n      dup1\n      0x2042e5c2\n      eq\n      tag_6\n      jumpi\n      dup1\n      0x23b872dd\n      eq\n      tag_7\n      jumpi\n      dup1\n      0x278d9637\n      eq\n      tag_8\n      jumpi\n      dup1\n      0x313ce567\n      eq\n      tag_9\n      jumpi\n      jump(tag_2)\n    tag_38:\n      dup1\n      0x06fdde03\n      eq\n      tag_3\n      jumpi\n      dup1\n      0x095ea7b3\n      eq\n      tag_4\n      jumpi\n      dup1\n      0x18160ddd\n      eq\n      tag_5\n      jumpi\n    tag_2:\n      0x00\n      dup1\n      revert\n        /* \"ex/yoho.sol\":13154:13233  function name() external view returns (string memory) {\r... */\n    tag_3:\n      tag_39\n      tag_40\n      jump\t// in\n    tag_39:\n      0x40\n      dup1\n      mload\n      0x20\n      dup1\n      dup3\n      mstore\n      dup4\n      mload\n      dup2\n      dup4\n      add\n      mstore\n      dup4\n      mload\n      swap2\n      swap3\n      dup4\n      swap3\n      swap1\n      dup4\n      add\n      swap2\n      dup6\n      add\n      swap1\n      dup1\n      dup4\n      dup4\n      0x00\n        /* \"--CODEGEN--\":8:108   */\n    tag_41:\n        /* \"--CODEGEN--\":33:36   */\n      dup4\n        /* \"--CODEGEN--\":30:31   */\n      dup2\n        /* \"--CODEGEN--\":27:37   */\n      lt\n        /* \"--CODEGEN--\":8:108   */\n      iszero\n      tag_43\n      jumpi\n        /* \"--CODEGEN--\":90:101   */\n      dup2\n      dup2\n      add\n        /* \"--CODEGEN--\":84:102   */\n      mload\n        /* \"--CODEGEN--\":71:82   */\n      dup4\n      dup3\n      add\n        /* \"--CODEGEN--\":64:103   */\n      mstore\n        /* \"--CODEGEN--\":52:54   */\n      0x20\n        /* \"--CODEGEN--\":45:55   */\n      add\n        /* \"--CODEGEN--\":8:108   */\n      jump(tag_41)\n    tag_43:\n        /* \"--CODEGEN--\":12:26   */\n      pop\n        /* \"ex/yoho.sol\":13154:13233  function name() external view returns (string memory) {\r... */\n      pop\n      pop\n      pop\n      swap1\n      pop\n      swap1\n      dup2\n      add\n      swap1\n      0x1f\n      and\n      dup1\n      iszero\n      tag_44\n      jumpi\n      dup1\n      dup3\n      sub\n      dup1\n      mload\n      0x01\n      dup4\n      0x20\n      sub\n      0x0100\n      exp\n      sub\n      not\n      and\n      dup2\n      mstore\n      0x20\n      add\n      swap2\n      pop\n    tag_44:\n      pop\n      swap3\n      pop\n      pop\n      pop\n      mload(0x40)\n      dup1\n      swap2\n      sub\n      swap1\n      return\n        /* \"ex/yoho.sol\":14272:14416  function approve(address spender, uint256 amount) external returns (bool) {\r... */\n    tag_4:\n      tag_45\n      0x04\n      dup1\n      calldatasize\n      sub\n        /* \"--CODEGEN--\":13:15   */\n      0x40\n        /* \"--CODEGEN--\":8:11   */\n      dup2\n        /* \"--CODEGEN--\":5:16   */\n      lt\n        /* \"--CODEGEN--\":2:4   */\n      iszero\n      tag_46\n      jumpi\n        /* \"--CODEGEN--\":29:30   */\n      0x00\n        /* \"--CODEGEN--\":26:27   */\n      dup1\n        /* \"--CODEGEN--\":19:31   */\n      revert\n        /* \"--CODEGEN--\":2:4   */\n    tag_46:\n      pop\n      sub(shl(0xa0, 0x01), 0x01)\n        /* \"ex/yoho.sol\":14272:14416  function approve(address spender, uint256 amount) external returns (bool) {\r... */\n      dup2\n      calldataload\n      and\n      swap1\n      0x20\n      add\n      calldataload\n      tag_47\n      jump\t// in\n    tag_45:\n      0x40\n      dup1\n      mload\n      swap2\n      iszero\n      iszero\n      dup3\n      mstore\n      mload\n      swap1\n      dup2\n      swap1\n      sub\n      0x20\n      add\n      swap1\n      return\n        /* \"ex/yoho.sol\":13289:13376  function totalSupply() external view returns (uint256) {\r... */\n    tag_5:\n      tag_48\n      tag_49\n      jump\t// in\n    tag_48:\n      0x40\n      dup1\n      mload\n      swap2\n      dup3\n      mstore\n      mload\n      swap1\n      dup2\n      swap1\n      sub\n      0x20\n      add\n      swap1\n      return\n        /* \"ex/yoho.sol\":12520:12683  function removeWhiteList (address _clearedUser) public onlyOwner {\r... */\n    tag_6:\n      tag_50\n      0x04\n      dup1\n      calldatasize\n      sub\n        /* \"--CODEGEN--\":13:15   */\n      0x20\n        /* \"--CODEGEN--\":8:11   */\n      dup2\n        /* \"--CODEGEN--\":5:16   */\n      lt\n        /* \"--CODEGEN--\":2:4   */\n      iszero\n      tag_51\n      jumpi\n        /* \"--CODEGEN--\":29:30   */\n      0x00\n        /* \"--CODEGEN--\":26:27   */\n      dup1\n        /* \"--CODEGEN--\":19:31   */\n      revert\n        /* \"--CODEGEN--\":2:4   */\n    tag_51:\n      pop\n        /* \"ex/yoho.sol\":12520:12683  function removeWhiteList (address _clearedUser) public onlyOwner {\r... */\n      calldataload\n      sub(shl(0xa0, 0x01), 0x01)\n      and\n      tag_52\n      jump\t// in\n    tag_50:\n      stop\n        /* \"ex/yoho.sol\":14861:15231  function transferFrom(address sender, address recipient, uint256 amount) external returns (bool) {\r... */\n    tag_7:\n      tag_45\n      0x04\n      dup1\n      calldatasize\n      sub\n        /* \"--CODEGEN--\":13:15   */\n      0x60\n        /* \"--CODEGEN--\":8:11   */\n      dup2\n        /* \"--CODEGEN--\":5:16   */\n      lt\n        /* \"--CODEGEN--\":2:4   */\n      iszero\n      tag_54\n      jumpi\n        /* \"--CODEGEN--\":29:30   */\n      0x00\n        /* \"--CODEGEN--\":26:27   */\n      dup1\n        /* \"--CODEGEN--\":19:31   */\n      revert\n        /* \"--CODEGEN--\":2:4   */\n    tag_54:\n      pop\n      sub(shl(0xa0, 0x01), 0x01)\n        /* \"ex/yoho.sol\":14861:15231  function transferFrom(address sender, address recipient, uint256 amount) external returns (bool) {\r... */\n      dup2\n      calldataload\n      dup2\n      and\n      swap2\n      0x20\n      dup2\n      add\n      calldataload\n      swap1\n      swap2\n      and\n      swap1\n      0x40\n      add\n      calldataload\n      tag_55\n      jump\t// in\n        /* \"ex/yoho.sol\":11552:11584  bool public limitTransfer = true */\n    tag_8:\n      tag_45\n      tag_57\n      jump\t// in\n        /* \"ex/yoho.sol\":12882:12961  function decimals() external view returns (uint8) {\r... */\n    tag_9:\n      tag_58\n      tag_59\n      jump\t// in\n    tag_58:\n      0x40\n      dup1\n      mload\n      0xff\n      swap1\n      swap3\n      and\n      dup3\n      mstore\n      mload\n      swap1\n      dup2\n      swap1\n      sub\n      0x20\n      add\n      swap1\n      return\n        /* \"ex/yoho.sol\":11777:11804  address public _burnAccount */\n    tag_10:\n      tag_60\n      tag_61\n      jump\t// in\n    tag_60:\n      0x40\n      dup1\n      mload\n      sub(shl(0xa0, 0x01), 0x01)\n      swap1\n      swap3\n      and\n      dup3\n      mstore\n      mload\n      swap1\n      dup2\n      swap1\n      sub\n      0x20\n      add\n      swap1\n      return\n        /* \"ex/yoho.sol\":11700:11722  uint8 public _decimals */\n    tag_11:\n      tag_58\n      tag_63\n      jump\t// in\n        /* \"ex/yoho.sol\":12151:12303  function setBurnAcount(address burnAddress, bool  isBurnTotal) public onlyOwner {\r... */\n    tag_12:\n      tag_50\n      0x04\n      dup1\n      calldatasize\n      sub\n        /* \"--CODEGEN--\":13:15   */\n      0x40\n        /* \"--CODEGEN--\":8:11   */\n      dup2\n        /* \"--CODEGEN--\":5:16   */\n      lt\n        /* \"--CODEGEN--\":2:4   */\n      iszero\n      tag_65\n      jumpi\n        /* \"--CODEGEN--\":29:30   */\n      0x00\n        /* \"--CODEGEN--\":26:27   */\n      dup1\n        /* \"--CODEGEN--\":19:31   */\n      revert\n        /* \"--CODEGEN--\":2:4   */\n    tag_65:\n      pop\n      sub(shl(0xa0, 0x01), 0x01)\n        /* \"ex/yoho.sol\":12151:12303  function setBurnAcount(address burnAddress, bool  isBurnTotal) public onlyOwner {\r... */\n      dup2\n      calldataload\n      and\n      swap1\n      0x20\n      add\n      calldataload\n      iszero\n      iszero\n      tag_66\n      jump\t// in\n        /* \"ex/yoho.sol\":15613:15813  function increaseAllowance(address spender, uint256 addedValue) public returns (bool) {\r... */\n    tag_13:\n      tag_45\n      0x04\n      dup1\n      calldatasize\n      sub\n        /* \"--CODEGEN--\":13:15   */\n      0x40\n        /* \"--CODEGEN--\":8:11   */\n      dup2\n        /* \"--CODEGEN--\":5:16   */\n      lt\n        /* \"--CODEGEN--\":2:4   */\n      iszero\n      tag_68\n      jumpi\n        /* \"--CODEGEN--\":29:30   */\n      0x00\n        /* \"--CODEGEN--\":26:27   */\n      dup1\n        /* \"--CODEGEN--\":19:31   */\n      revert\n        /* \"--CODEGEN--\":2:4   */\n    tag_68:\n      pop\n      sub(shl(0xa0, 0x01), 0x01)\n        /* \"ex/yoho.sol\":15613:15813  function increaseAllowance(address spender, uint256 addedValue) public returns (bool) {\r... */\n      dup2\n      calldataload\n      and\n      swap1\n      0x20\n      add\n      calldataload\n      tag_69\n      jump\t// in\n        /* \"ex/yoho.sol\":16941:17051  function burn(uint256 amount) public returns (bool) {\r... */\n    tag_14:\n      tag_45\n      0x04\n      dup1\n      calldatasize\n      sub\n        /* \"--CODEGEN--\":13:15   */\n      0x20\n        /* \"--CODEGEN--\":8:11   */\n      dup2\n        /* \"--CODEGEN--\":5:16   */\n      lt\n        /* \"--CODEGEN--\":2:4   */\n      iszero\n      tag_71\n      jumpi\n        /* \"--CODEGEN--\":29:30   */\n      0x00\n        /* \"--CODEGEN--\":26:27   */\n      dup1\n        /* \"--CODEGEN--\":19:31   */\n      revert\n        /* \"--CODEGEN--\":2:4   */\n    tag_71:\n      pop\n        /* \"ex/yoho.sol\":16941:17051  function burn(uint256 amount) public returns (bool) {\r... */\n      calldataload\n      tag_72\n      jump\t// in\n        /* \"ex/yoho.sol\":17102:17384  function setBasisPointsRate(uint256 _basisPointsRate) public onlyOwner returns (bool) {\r... */\n    tag_15:\n      tag_45\n      0x04\n      dup1\n      calldatasize\n      sub\n        /* \"--CODEGEN--\":13:15   */\n      0x20\n        /* \"--CODEGEN--\":8:11   */\n      dup2\n        /* \"--CODEGEN--\":5:16   */\n      lt\n        /* \"--CODEGEN--\":2:4   */\n      iszero\n      tag_74\n      jumpi\n        /* \"--CODEGEN--\":29:30   */\n      0x00\n        /* \"--CODEGEN--\":26:27   */\n      dup1\n        /* \"--CODEGEN--\":19:31   */\n      revert\n        /* \"--CODEGEN--\":2:4   */\n    tag_74:\n      pop\n        /* \"ex/yoho.sol\":17102:17384  function setBasisPointsRate(uint256 _basisPointsRate) public onlyOwner returns (bool) {\r... */\n      calldataload\n      tag_75\n      jump\t// in\n        /* \"ex/yoho.sol\":12309:12355  mapping (address => bool) public isWhiteListed */\n    tag_16:\n      tag_45\n      0x04\n      dup1\n      calldatasize\n      sub\n        /* \"--CODEGEN--\":13:15   */\n      0x20\n        /* \"--CODEGEN--\":8:11   */\n      dup2\n        /* \"--CODEGEN--\":5:16   */\n      lt\n        /* \"--CODEGEN--\":2:4   */\n      iszero\n      tag_77\n      jumpi\n        /* \"--CODEGEN--\":29:30   */\n      0x00\n        /* \"--CODEGEN--\":26:27   */\n      dup1\n        /* \"--CODEGEN--\":19:31   */\n      revert\n        /* \"--CODEGEN--\":2:4   */\n    tag_77:\n      pop\n        /* \"ex/yoho.sol\":12309:12355  mapping (address => bool) public isWhiteListed */\n      calldataload\n      sub(shl(0xa0, 0x01), 0x01)\n      and\n      tag_78\n      jump\t// in\n        /* \"ex/yoho.sol\":13430:13536  function balanceOf(address account) external view returns (uint256) {\r... */\n    tag_17:\n      tag_48\n      0x04\n      dup1\n      calldatasize\n      sub\n        /* \"--CODEGEN--\":13:15   */\n      0x20\n        /* \"--CODEGEN--\":8:11   */\n      dup2\n        /* \"--CODEGEN--\":5:16   */\n      lt\n        /* \"--CODEGEN--\":2:4   */\n      iszero\n      tag_80\n      jumpi\n        /* \"--CODEGEN--\":29:30   */\n      0x00\n        /* \"--CODEGEN--\":26:27   */\n      dup1\n        /* \"--CODEGEN--\":19:31   */\n      revert\n        /* \"--CODEGEN--\":2:4   */\n    tag_80:\n      pop\n        /* \"ex/yoho.sol\":13430:13536  function balanceOf(address account) external view returns (uint256) {\r... */\n      calldataload\n      sub(shl(0xa0, 0x01), 0x01)\n      and\n      tag_81\n      jump\t// in\n        /* \"ex/yoho.sol\":10678:10808  function renounceOwnership() public onlyOwner {\r... */\n    tag_18:\n      tag_50\n      tag_83\n      jump\t// in\n        /* \"ex/yoho.sol\":12743:12822  function getOwner() external view returns (address) {\r... */\n    tag_19:\n      tag_60\n      tag_85\n      jump\t// in\n        /* \"ex/yoho.sol\":10076:10149  function owner() public view returns (address) {\r... */\n    tag_20:\n      tag_60\n      tag_87\n      jump\t// in\n        /* \"ex/yoho.sol\":13018:13101  function symbol() external view returns (string memory) {\r... */\n    tag_21:\n      tag_39\n      tag_89\n      jump\t// in\n        /* \"ex/yoho.sol\":16736:16856  function mint(uint256 amount) public onlyOwner returns (bool) {\r... */\n    tag_22:\n      tag_45\n      0x04\n      dup1\n      calldatasize\n      sub\n        /* \"--CODEGEN--\":13:15   */\n      0x20\n        /* \"--CODEGEN--\":8:11   */\n      dup2\n        /* \"--CODEGEN--\":5:16   */\n      lt\n        /* \"--CODEGEN--\":2:4   */\n      iszero\n      tag_95\n      jumpi\n        /* \"--CODEGEN--\":29:30   */\n      0x00\n        /* \"--CODEGEN--\":26:27   */\n      dup1\n        /* \"--CODEGEN--\":19:31   */\n      revert\n        /* \"--CODEGEN--\":2:4   */\n    tag_95:\n      pop\n        /* \"ex/yoho.sol\":16736:16856  function mint(uint256 amount) public onlyOwner returns (bool) {\r... */\n      calldataload\n      tag_96\n      jump\t// in\n        /* \"ex/yoho.sol\":16285:16536  function decreaseAllowance(address spender, uint256 subtractedValue) public returns (bool) {\r... */\n    tag_23:\n      tag_45\n      0x04\n      dup1\n      calldatasize\n      sub\n        /* \"--CODEGEN--\":13:15   */\n      0x40\n        /* \"--CODEGEN--\":8:11   */\n      dup2\n        /* \"--CODEGEN--\":5:16   */\n      lt\n        /* \"--CODEGEN--\":2:4   */\n      iszero\n      tag_98\n      jumpi\n        /* \"--CODEGEN--\":29:30   */\n      0x00\n        /* \"--CODEGEN--\":26:27   */\n      dup1\n        /* \"--CODEGEN--\":19:31   */\n      revert\n        /* \"--CODEGEN--\":2:4   */\n    tag_98:\n      pop\n      sub(shl(0xa0, 0x01), 0x01)\n        /* \"ex/yoho.sol\":16285:16536  function decreaseAllowance(address spender, uint256 subtractedValue) public returns (bool) {\r... */\n      dup2\n      calldataload\n      and\n      swap1\n      0x20\n      add\n      calldataload\n      tag_99\n      jump\t// in\n        /* \"ex/yoho.sol\":13730:13958  function transfer(address recipient, uint256 amount) external returns (bool) {\r... */\n    tag_24:\n      tag_45\n      0x04\n      dup1\n      calldatasize\n      sub\n        /* \"--CODEGEN--\":13:15   */\n      0x40\n        /* \"--CODEGEN--\":8:11   */\n      dup2\n        /* \"--CODEGEN--\":5:16   */\n      lt\n        /* \"--CODEGEN--\":2:4   */\n      iszero\n      tag_101\n      jumpi\n        /* \"--CODEGEN--\":29:30   */\n      0x00\n        /* \"--CODEGEN--\":26:27   */\n      dup1\n        /* \"--CODEGEN--\":19:31   */\n      revert\n        /* \"--CODEGEN--\":2:4   */\n    tag_101:\n      pop\n      sub(shl(0xa0, 0x01), 0x01)\n        /* \"ex/yoho.sol\":13730:13958  function transfer(address recipient, uint256 amount) external returns (bool) {\r... */\n      dup2\n      calldataload\n      and\n      swap1\n      0x20\n      add\n      calldataload\n      tag_102\n      jump\t// in\n        /* \"ex/yoho.sol\":11727:11748  string public _symbol */\n    tag_25:\n      tag_39\n      tag_104\n      jump\t// in\n        /* \"ex/yoho.sol\":11753:11772  string public _name */\n    tag_26:\n      tag_39\n      tag_110\n      jump\t// in\n        /* \"ex/yoho.sol\":14012:14142  function allowance(address owner, address spender) external view returns (uint256) {\r... */\n    tag_27:\n      tag_48\n      0x04\n      dup1\n      calldatasize\n      sub\n        /* \"--CODEGEN--\":13:15   */\n      0x40\n        /* \"--CODEGEN--\":8:11   */\n      dup2\n        /* \"--CODEGEN--\":5:16   */\n      lt\n        /* \"--CODEGEN--\":2:4   */\n      iszero\n      tag_116\n      jumpi\n        /* \"--CODEGEN--\":29:30   */\n      0x00\n        /* \"--CODEGEN--\":26:27   */\n      dup1\n        /* \"--CODEGEN--\":19:31   */\n      revert\n        /* \"--CODEGEN--\":2:4   */\n    tag_116:\n      pop\n      sub(shl(0xa0, 0x01), 0x01)\n        /* \"ex/yoho.sol\":14012:14142  function allowance(address owner, address spender) external view returns (uint256) {\r... */\n      dup2\n      calldataload\n      dup2\n      and\n      swap2\n      0x20\n      add\n      calldataload\n      and\n      tag_117\n      jump\t// in\n        /* \"ex/yoho.sol\":11513:11547  uint public basisPointsRate = 5000 */\n    tag_28:\n      tag_48\n      tag_119\n      jump\t// in\n        /* \"ex/yoho.sol\":12366:12514  function addWhiteList (address _authUser) public onlyOwner {\r... */\n    tag_29:\n      tag_50\n      0x04\n      dup1\n      calldatasize\n      sub\n        /* \"--CODEGEN--\":13:15   */\n      0x20\n        /* \"--CODEGEN--\":8:11   */\n      dup2\n        /* \"--CODEGEN--\":5:16   */\n      lt\n        /* \"--CODEGEN--\":2:4   */\n      iszero\n      tag_121\n      jumpi\n        /* \"--CODEGEN--\":29:30   */\n      0x00\n        /* \"--CODEGEN--\":26:27   */\n      dup1\n        /* \"--CODEGEN--\":19:31   */\n      revert\n        /* \"--CODEGEN--\":2:4   */\n    tag_121:\n      pop\n        /* \"ex/yoho.sol\":12366:12514  function addWhiteList (address _authUser) public onlyOwner {\r... */\n      calldataload\n      sub(shl(0xa0, 0x01), 0x01)\n      and\n      tag_122\n      jump\t// in\n        /* \"ex/yoho.sol\":17390:17587  function resetLimiteTransfer(bool _limitTransfer) public onlyOwner returns (bool) {\r... */\n    tag_30:\n      tag_45\n      0x04\n      dup1\n      calldatasize\n      sub\n        /* \"--CODEGEN--\":13:15   */\n      0x20\n        /* \"--CODEGEN--\":8:11   */\n      dup2\n        /* \"--CODEGEN--\":5:16   */\n      lt\n        /* \"--CODEGEN--\":2:4   */\n      iszero\n      tag_124\n      jumpi\n        /* \"--CODEGEN--\":29:30   */\n      0x00\n        /* \"--CODEGEN--\":26:27   */\n      dup1\n        /* \"--CODEGEN--\":19:31   */\n      revert\n        /* \"--CODEGEN--\":2:4   */\n    tag_124:\n      pop\n        /* \"ex/yoho.sol\":17390:17587  function resetLimiteTransfer(bool _limitTransfer) public onlyOwner returns (bool) {\r... */\n      calldataload\n      iszero\n      iszero\n      tag_125\n      jump\t// in\n        /* \"ex/yoho.sol\":10953:11056  function transferOwnership(address newOwner) public onlyOwner {\r... */\n    tag_31:\n      tag_50\n      0x04\n      dup1\n      calldatasize\n      sub\n        /* \"--CODEGEN--\":13:15   */\n      0x20\n        /* \"--CODEGEN--\":8:11   */\n      dup2\n        /* \"--CODEGEN--\":5:16   */\n      lt\n        /* \"--CODEGEN--\":2:4   */\n      iszero\n      tag_127\n      jumpi\n        /* \"--CODEGEN--\":29:30   */\n      0x00\n        /* \"--CODEGEN--\":26:27   */\n      dup1\n        /* \"--CODEGEN--\":19:31   */\n      revert\n        /* \"--CODEGEN--\":2:4   */\n    tag_127:\n      pop\n        /* \"ex/yoho.sol\":10953:11056  function transferOwnership(address newOwner) public onlyOwner {\r... */\n      calldataload\n      sub(shl(0xa0, 0x01), 0x01)\n      and\n      tag_128\n      jump\t// in\n        /* \"ex/yoho.sol\":13154:13233  function name() external view returns (string memory) {\r... */\n    tag_40:\n        /* \"ex/yoho.sol\":13222:13227  _name */\n      0x08\n        /* \"ex/yoho.sol\":13215:13227  return _name */\n      dup1\n      sload\n      0x40\n      dup1\n      mload\n      0x20\n      0x1f\n      0x02\n      not(0x00)\n      0x0100\n      0x01\n      dup9\n      and\n      iszero\n      mul\n      add\n      swap1\n      swap6\n      and\n      swap5\n      swap1\n      swap5\n      div\n      swap4\n      dup5\n      add\n      dup2\n      swap1\n      div\n      dup2\n      mul\n      dup3\n      add\n      dup2\n      add\n      swap1\n      swap3\n      mstore\n      dup3\n      dup2\n      mstore\n        /* \"ex/yoho.sol\":13193:13206  string memory */\n      0x60\n      swap4\n        /* \"ex/yoho.sol\":13215:13227  return _name */\n      swap1\n      swap3\n        /* \"ex/yoho.sol\":13222:13227  _name */\n      swap1\n      swap2\n        /* \"ex/yoho.sol\":13215:13227  return _name */\n      dup4\n      add\n        /* \"ex/yoho.sol\":13222:13227  _name */\n      dup3\n        /* \"ex/yoho.sol\":13215:13227  return _name */\n      dup3\n      dup1\n      iszero\n      tag_130\n      jumpi\n      dup1\n      0x1f\n      lt\n      tag_131\n      jumpi\n      0x0100\n      dup1\n      dup4\n      sload\n      div\n      mul\n      dup4\n      mstore\n      swap2\n      0x20\n      add\n      swap2\n      jump(tag_130)\n    tag_131:\n      dup3\n      add\n      swap2\n      swap1\n      0x00\n      mstore\n      keccak256(0x00, 0x20)\n      swap1\n    tag_132:\n      dup2\n      sload\n      dup2\n      mstore\n      swap1\n      0x01\n      add\n      swap1\n      0x20\n      add\n      dup1\n      dup4\n      gt\n      tag_132\n      jumpi\n      dup3\n      swap1\n      sub\n      0x1f\n      and\n      dup3\n      add\n      swap2\n    tag_130:\n      pop\n      pop\n      pop\n      pop\n      pop\n      swap1\n      pop\n        /* \"ex/yoho.sol\":13154:13233  function name() external view returns (string memory) {\r... */\n      swap1\n      jump\t// out\n        /* \"ex/yoho.sol\":14272:14416  function approve(address spender, uint256 amount) external returns (bool) {\r... */\n    tag_47:\n        /* \"ex/yoho.sol\":14340:14344  bool */\n      0x00\n        /* \"ex/yoho.sol\":14353:14392  _approve(_msgSender(), spender, amount) */\n      tag_134\n        /* \"ex/yoho.sol\":14362:14374  _msgSender() */\n      tag_135\n        /* \"ex/yoho.sol\":14362:14372  _msgSender */\n      tag_136\n        /* \"ex/yoho.sol\":14362:14374  _msgSender() */\n      jump\t// in\n    tag_135:\n        /* \"ex/yoho.sol\":14376:14383  spender */\n      dup5\n        /* \"ex/yoho.sol\":14385:14391  amount */\n      dup5\n        /* \"ex/yoho.sol\":14353:14361  _approve */\n      tag_137\n        /* \"ex/yoho.sol\":14353:14392  _approve(_msgSender(), spender, amount) */\n      jump\t// in\n    tag_134:\n      pop\n        /* \"ex/yoho.sol\":14406:14410  true */\n      0x01\n        /* \"ex/yoho.sol\":14272:14416  function approve(address spender, uint256 amount) external returns (bool) {\r... */\n    tag_133:\n      swap3\n      swap2\n      pop\n      pop\n      jump\t// out\n        /* \"ex/yoho.sol\":13289:13376  function totalSupply() external view returns (uint256) {\r... */\n    tag_49:\n        /* \"ex/yoho.sol\":13358:13370  _totalSupply */\n      sload(0x05)\n        /* \"ex/yoho.sol\":13289:13376  function totalSupply() external view returns (uint256) {\r... */\n      swap1\n      jump\t// out\n        /* \"ex/yoho.sol\":12520:12683  function removeWhiteList (address _clearedUser) public onlyOwner {\r... */\n    tag_52:\n        /* \"ex/yoho.sol\":10280:10292  _msgSender() */\n      tag_140\n        /* \"ex/yoho.sol\":10280:10290  _msgSender */\n      tag_136\n        /* \"ex/yoho.sol\":10280:10292  _msgSender() */\n      jump\t// in\n    tag_140:\n        /* \"ex/yoho.sol\":10270:10276  _owner */\n      sload(0x00)\n      sub(shl(0xa0, 0x01), 0x01)\n      swap1\n      dup2\n      and\n        /* \"ex/yoho.sol\":10270:10292  _owner == _msgSender() */\n      swap2\n      and\n      eq\n        /* \"ex/yoho.sol\":10262:10329  require(_owner == _msgSender(), \"Ownable: caller is not the owner\") */\n      tag_141\n      jumpi\n      0x40\n      dup1\n      mload\n      shl(0xe5, 0x461bcd)\n      dup2\n      mstore\n      0x20\n      0x04\n      dup3\n      add\n      dup2\n      swap1\n      mstore\n      0x24\n      dup3\n      add\n      mstore\n      0x00\n      dup1\n      mload\n      0x20\n      data_9924ebdf1add33d25d4ef888e16131f0a5687b0580a36c21b5c301a6c462effe\n      dup4\n      codecopy\n      dup2\n      mload\n      swap2\n      mstore\n      0x44\n      dup3\n      add\n      mstore\n      swap1\n      mload\n      swap1\n      dup2\n      swap1\n      sub\n      0x64\n      add\n      swap1\n      revert\n    tag_141:\n      sub(shl(0xa0, 0x01), 0x01)\n        /* \"ex/yoho.sol\":12596:12623  isWhiteListed[_clearedUser] */\n      dup2\n      and\n        /* \"ex/yoho.sol\":12626:12631  false */\n      0x00\n        /* \"ex/yoho.sol\":12596:12623  isWhiteListed[_clearedUser] */\n      dup2\n      dup2\n      mstore\n        /* \"ex/yoho.sol\":12596:12609  isWhiteListed */\n      0x0a\n        /* \"ex/yoho.sol\":12596:12623  isWhiteListed[_clearedUser] */\n      0x20\n      mstore\n      0x40\n      dup1\n      dup3\n      keccak256\n        /* \"ex/yoho.sol\":12596:12631  isWhiteListed[_clearedUser] = false */\n      dup1\n      sload\n      not(0xff)\n      and\n      swap1\n      sstore\n        /* \"ex/yoho.sol\":12647:12677  RemovedWhiteList(_clearedUser) */\n      mload\n      0x9ff0fe46bde692ffa123229beb5debd1c068a183c3b74be4f2d749f628203d3a\n      swap2\n        /* \"ex/yoho.sol\":12626:12631  false */\n      swap1\n        /* \"ex/yoho.sol\":12647:12677  RemovedWhiteList(_clearedUser) */\n      log2\n        /* \"ex/yoho.sol\":12520:12683  function removeWhiteList (address _clearedUser) public onlyOwner {\r... */\n      pop\n      jump\t// out\n        /* \"ex/yoho.sol\":14861:15231  function transferFrom(address sender, address recipient, uint256 amount) external returns (bool) {\r... */\n    tag_55:\n        /* \"ex/yoho.sol\":14987:14997  msg.sender */\n      caller\n        /* \"ex/yoho.sol\":14952:14956  bool */\n      0x00\n        /* \"ex/yoho.sol\":14973:14998  isWhiteListed[msg.sender] */\n      swap1\n      dup2\n      mstore\n        /* \"ex/yoho.sol\":14973:14986  isWhiteListed */\n      0x0a\n        /* \"ex/yoho.sol\":14973:14998  isWhiteListed[msg.sender] */\n      0x20\n      mstore\n      0x40\n      dup2\n      keccak256\n      sload\n      0xff\n      and\n      dup1\n        /* \"ex/yoho.sol\":14973:15016  isWhiteListed[msg.sender] || !limitTransfer */\n      tag_144\n      jumpi\n      pop\n        /* \"ex/yoho.sol\":15003:15016  limitTransfer */\n      and(0xff, sload(0x03))\n        /* \"ex/yoho.sol\":15002:15016  !limitTransfer */\n      iszero\n        /* \"ex/yoho.sol\":14973:15016  isWhiteListed[msg.sender] || !limitTransfer */\n    tag_144:\n        /* \"ex/yoho.sol\":14965:15036  require(isWhiteListed[msg.sender] || !limitTransfer, \"Limit transfer.\") */\n      tag_145\n      jumpi\n      0x40\n      dup1\n      mload\n      shl(0xe5, 0x461bcd)\n      dup2\n      mstore\n      0x20\n      0x04\n      dup3\n      add\n      mstore\n      0x0f\n      0x24\n      dup3\n      add\n      mstore\n      shl(0x89, 0x2634b6b4ba103a3930b739b332b917)\n      0x44\n      dup3\n      add\n      mstore\n      swap1\n      mload\n      swap1\n      dup2\n      swap1\n      sub\n      0x64\n      add\n      swap1\n      revert\n    tag_145:\n        /* \"ex/yoho.sol\":15043:15079  _transfer(sender, recipient, amount) */\n      tag_146\n        /* \"ex/yoho.sol\":15053:15059  sender */\n      dup5\n        /* \"ex/yoho.sol\":15061:15070  recipient */\n      dup5\n        /* \"ex/yoho.sol\":15072:15078  amount */\n      dup5\n        /* \"ex/yoho.sol\":15043:15052  _transfer */\n      tag_147\n        /* \"ex/yoho.sol\":15043:15079  _transfer(sender, recipient, amount) */\n      jump\t// in\n    tag_146:\n        /* \"ex/yoho.sol\":15086:15207  _approve(sender, _msgSender(), _allowances[sender][_msgSender()].sub(amount, \"ARC20: transfer amount exceeds allowance\")) */\n      tag_148\n        /* \"ex/yoho.sol\":15095:15101  sender */\n      dup5\n        /* \"ex/yoho.sol\":15103:15115  _msgSender() */\n      tag_149\n        /* \"ex/yoho.sol\":15103:15113  _msgSender */\n      tag_136\n        /* \"ex/yoho.sol\":15103:15115  _msgSender() */\n      jump\t// in\n    tag_149:\n        /* \"ex/yoho.sol\":15117:15206  _allowances[sender][_msgSender()].sub(amount, \"ARC20: transfer amount exceeds allowance\") */\n      tag_150\n        /* \"ex/yoho.sol\":15155:15161  amount */\n      dup6\n        /* \"ex/yoho.sol\":15117:15206  _allowances[sender][_msgSender()].sub(amount, \"ARC20: transfer amount exceeds allowance\") */\n      mload(0x40)\n      dup1\n      0x60\n      add\n      0x40\n      mstore\n      dup1\n      0x28\n      dup2\n      mstore\n      0x20\n      add\n      data_1bdbb83b359c44f2dd176c8e425cac93ac5d285f6e207601ac9329b71a414cfe\n      0x28\n      swap2\n      codecopy\n      sub(shl(0xa0, 0x01), 0x01)\n        /* \"ex/yoho.sol\":15117:15136  _allowances[sender] */\n      dup11\n      and\n      0x00\n      swap1\n      dup2\n      mstore\n        /* \"ex/yoho.sol\":15117:15128  _allowances */\n      0x04\n        /* \"ex/yoho.sol\":15117:15136  _allowances[sender] */\n      0x20\n      mstore\n      0x40\n      dup2\n      keccak256\n      swap1\n        /* \"ex/yoho.sol\":15137:15149  _msgSender() */\n      tag_151\n        /* \"ex/yoho.sol\":15137:15147  _msgSender */\n      tag_136\n        /* \"ex/yoho.sol\":15137:15149  _msgSender() */\n      jump\t// in\n    tag_151:\n      sub(shl(0xa0, 0x01), 0x01)\n        /* \"ex/yoho.sol\":15117:15150  _allowances[sender][_msgSender()] */\n      and\n      dup2\n      mstore\n      0x20\n      dup2\n      add\n      swap2\n      swap1\n      swap2\n      mstore\n      0x40\n      add\n      0x00\n      keccak256\n      sload\n      swap2\n        /* \"ex/yoho.sol\":15117:15206  _allowances[sender][_msgSender()].sub(amount, \"ARC20: transfer amount exceeds allowance\") */\n      swap1\n      0xffffffff\n        /* \"ex/yoho.sol\":15117:15154  _allowances[sender][_msgSender()].sub */\n      tag_152\n        /* \"ex/yoho.sol\":15117:15206  _allowances[sender][_msgSender()].sub(amount, \"ARC20: transfer amount exceeds allowance\") */\n      and\n      jump\t// in\n    tag_150:\n        /* \"ex/yoho.sol\":15086:15094  _approve */\n      tag_137\n        /* \"ex/yoho.sol\":15086:15207  _approve(sender, _msgSender(), _allowances[sender][_msgSender()].sub(amount, \"ARC20: transfer amount exceeds allowance\")) */\n      jump\t// in\n    tag_148:\n      pop\n        /* \"ex/yoho.sol\":15221:15225  true */\n      0x01\n        /* \"ex/yoho.sol\":14861:15231  function transferFrom(address sender, address recipient, uint256 amount) external returns (bool) {\r... */\n      swap4\n      swap3\n      pop\n      pop\n      pop\n      jump\t// out\n        /* \"ex/yoho.sol\":11552:11584  bool public limitTransfer = true */\n    tag_57:\n      and(0xff, sload(0x03))\n      dup2\n      jump\t// out\n        /* \"ex/yoho.sol\":12882:12961  function decimals() external view returns (uint8) {\r... */\n    tag_59:\n        /* \"ex/yoho.sol\":12946:12955  _decimals */\n      and(0xff, sload(0x06))\n        /* \"ex/yoho.sol\":12882:12961  function decimals() external view returns (uint8) {\r... */\n      swap1\n      jump\t// out\n        /* \"ex/yoho.sol\":11777:11804  address public _burnAccount */\n    tag_61:\n      and(sub(shl(0xa0, 0x01), 0x01), sload(0x09))\n      dup2\n      jump\t// out\n        /* \"ex/yoho.sol\":11700:11722  uint8 public _decimals */\n    tag_63:\n      and(0xff, sload(0x06))\n      dup2\n      jump\t// out\n        /* \"ex/yoho.sol\":12151:12303  function setBurnAcount(address burnAddress, bool  isBurnTotal) public onlyOwner {\r... */\n    tag_66:\n        /* \"ex/yoho.sol\":10280:10292  _msgSender() */\n      tag_155\n        /* \"ex/yoho.sol\":10280:10290  _msgSender */\n      tag_136\n        /* \"ex/yoho.sol\":10280:10292  _msgSender() */\n      jump\t// in\n    tag_155:\n        /* \"ex/yoho.sol\":10270:10276  _owner */\n      sload(0x00)\n      sub(shl(0xa0, 0x01), 0x01)\n      swap1\n      dup2\n      and\n        /* \"ex/yoho.sol\":10270:10292  _owner == _msgSender() */\n      swap2\n      and\n      eq\n        /* \"ex/yoho.sol\":10262:10329  require(_owner == _msgSender(), \"Ownable: caller is not the owner\") */\n      tag_156\n      jumpi\n      0x40\n      dup1\n      mload\n      shl(0xe5, 0x461bcd)\n      dup2\n      mstore\n      0x20\n      0x04\n      dup3\n      add\n      dup2\n      swap1\n      mstore\n      0x24\n      dup3\n      add\n      mstore\n      0x00\n      dup1\n      mload\n      0x20\n      data_9924ebdf1add33d25d4ef888e16131f0a5687b0580a36c21b5c301a6c462effe\n      dup4\n      codecopy\n      dup2\n      mload\n      swap2\n      mstore\n      0x44\n      dup3\n      add\n      mstore\n      swap1\n      mload\n      swap1\n      dup2\n      swap1\n      sub\n      0x64\n      add\n      swap1\n      revert\n    tag_156:\n        /* \"ex/yoho.sol\":12238:12250  _isBurnTotal */\n      0x09\n        /* \"ex/yoho.sol\":12238:12264  _isBurnTotal = isBurnTotal */\n      dup1\n      sload\n      not(shl(0xa0, 0xff))\n      and\n      shl(0xa0, 0x01)\n      swap3\n      iszero\n      iszero\n      swap3\n      swap1\n      swap3\n      mul\n      swap2\n      swap1\n      swap2\n      or\n      not(sub(shl(0xa0, 0x01), 0x01))\n        /* \"ex/yoho.sol\":12271:12297  _burnAccount = burnAddress */\n      and\n      sub(shl(0xa0, 0x01), 0x01)\n      swap3\n      swap1\n      swap3\n      and\n      swap2\n      swap1\n      swap2\n      or\n      swap1\n      sstore\n        /* \"ex/yoho.sol\":12151:12303  function setBurnAcount(address burnAddress, bool  isBurnTotal) public onlyOwner {\r... */\n      jump\t// out\n        /* \"ex/yoho.sol\":15613:15813  function increaseAllowance(address spender, uint256 addedValue) public returns (bool) {\r... */\n    tag_69:\n        /* \"ex/yoho.sol\":15693:15697  bool */\n      0x00\n        /* \"ex/yoho.sol\":15706:15789  _approve(_msgSender(), spender, _allowances[_msgSender()][spender].add(addedValue)) */\n      tag_134\n        /* \"ex/yoho.sol\":15715:15727  _msgSender() */\n      tag_160\n        /* \"ex/yoho.sol\":15715:15725  _msgSender */\n      tag_136\n        /* \"ex/yoho.sol\":15715:15727  _msgSender() */\n      jump\t// in\n    tag_160:\n        /* \"ex/yoho.sol\":15729:15736  spender */\n      dup5\n        /* \"ex/yoho.sol\":15738:15788  _allowances[_msgSender()][spender].add(addedValue) */\n      tag_150\n        /* \"ex/yoho.sol\":15777:15787  addedValue */\n      dup6\n        /* \"ex/yoho.sol\":15738:15749  _allowances */\n      0x04\n        /* \"ex/yoho.sol\":15738:15763  _allowances[_msgSender()] */\n      0x00\n        /* \"ex/yoho.sol\":15750:15762  _msgSender() */\n      tag_162\n        /* \"ex/yoho.sol\":15750:15760  _msgSender */\n      tag_136\n        /* \"ex/yoho.sol\":15750:15762  _msgSender() */\n      jump\t// in\n    tag_162:\n      sub(shl(0xa0, 0x01), 0x01)\n        /* \"ex/yoho.sol\":15738:15763  _allowances[_msgSender()] */\n      swap1\n      dup2\n      and\n      dup3\n      mstore\n      0x20\n      dup1\n      dup4\n      add\n      swap4\n      swap1\n      swap4\n      mstore\n      0x40\n      swap2\n      dup3\n      add\n      0x00\n      swap1\n      dup2\n      keccak256\n        /* \"ex/yoho.sol\":15738:15772  _allowances[_msgSender()][spender] */\n      swap2\n      dup13\n      and\n      dup2\n      mstore\n      swap3\n      mstore\n      swap1\n      keccak256\n      sload\n      swap1\n        /* \"ex/yoho.sol\":15738:15788  _allowances[_msgSender()][spender].add(addedValue) */\n      0xffffffff\n        /* \"ex/yoho.sol\":15738:15776  _allowances[_msgSender()][spender].add */\n      tag_163\n        /* \"ex/yoho.sol\":15738:15788  _allowances[_msgSender()][spender].add(addedValue) */\n      and\n      jump\t// in\n        /* \"ex/yoho.sol\":16941:17051  function burn(uint256 amount) public returns (bool) {\r... */\n    tag_72:\n        /* \"ex/yoho.sol\":16987:16991  bool */\n      0x00\n        /* \"ex/yoho.sol\":17000:17027  _burn(_msgSender(), amount) */\n      tag_165\n        /* \"ex/yoho.sol\":17006:17018  _msgSender() */\n      tag_166\n        /* \"ex/yoho.sol\":17006:17016  _msgSender */\n      tag_136\n        /* \"ex/yoho.sol\":17006:17018  _msgSender() */\n      jump\t// in\n    tag_166:\n        /* \"ex/yoho.sol\":17020:17026  amount */\n      dup4\n        /* \"ex/yoho.sol\":17000:17005  _burn */\n      tag_167\n        /* \"ex/yoho.sol\":17000:17027  _burn(_msgSender(), amount) */\n      jump\t// in\n    tag_165:\n      pop\n        /* \"ex/yoho.sol\":17041:17045  true */\n      0x01\n        /* \"ex/yoho.sol\":16941:17051  function burn(uint256 amount) public returns (bool) {\r... */\n      swap2\n      swap1\n      pop\n      jump\t// out\n        /* \"ex/yoho.sol\":17102:17384  function setBasisPointsRate(uint256 _basisPointsRate) public onlyOwner returns (bool) {\r... */\n    tag_75:\n        /* \"ex/yoho.sol\":17182:17186  bool */\n      0x00\n        /* \"ex/yoho.sol\":10280:10292  _msgSender() */\n      tag_169\n        /* \"ex/yoho.sol\":10280:10290  _msgSender */\n      tag_136\n        /* \"ex/yoho.sol\":10280:10292  _msgSender() */\n      jump\t// in\n    tag_169:\n        /* \"ex/yoho.sol\":10270:10276  _owner */\n      sload(0x00)\n      sub(shl(0xa0, 0x01), 0x01)\n      swap1\n      dup2\n      and\n        /* \"ex/yoho.sol\":10270:10292  _owner == _msgSender() */\n      swap2\n      and\n      eq\n        /* \"ex/yoho.sol\":10262:10329  require(_owner == _msgSender(), \"Ownable: caller is not the owner\") */\n      tag_170\n      jumpi\n      0x40\n      dup1\n      mload\n      shl(0xe5, 0x461bcd)\n      dup2\n      mstore\n      0x20\n      0x04\n      dup3\n      add\n      dup2\n      swap1\n      mstore\n      0x24\n      dup3\n      add\n      mstore\n      0x00\n      dup1\n      mload\n      0x20\n      data_9924ebdf1add33d25d4ef888e16131f0a5687b0580a36c21b5c301a6c462effe\n      dup4\n      codecopy\n      dup2\n      mload\n      swap2\n      mstore\n      0x44\n      dup3\n      add\n      mstore\n      swap1\n      mload\n      swap1\n      dup2\n      swap1\n      sub\n      0x64\n      add\n      swap1\n      revert\n    tag_170:\n        /* \"ex/yoho.sol\":17223:17228  10000 */\n      0x2710\n        /* \"ex/yoho.sol\":17203:17219  _basisPointsRate */\n      dup3\n        /* \"ex/yoho.sol\":17203:17228  _basisPointsRate <= 10000 */\n      gt\n      iszero\n        /* \"ex/yoho.sol\":17195:17262  require(_basisPointsRate <= 10000, \"The base points must <= 10000\") */\n      tag_172\n      jumpi\n      0x40\n      dup1\n      mload\n      shl(0xe5, 0x461bcd)\n      dup2\n      mstore\n      0x20\n      0x04\n      dup3\n      add\n      mstore\n      0x1d\n      0x24\n      dup3\n      add\n      mstore\n      0x546865206261736520706f696e7473206d757374203c3d203130303030000000\n      0x44\n      dup3\n      add\n      mstore\n      swap1\n      mload\n      swap1\n      dup2\n      swap1\n      sub\n      0x64\n      add\n      swap1\n      revert\n    tag_172:\n        /* \"ex/yoho.sol\":17285:17300  basisPointsRate */\n      sload(0x02)\n        /* \"ex/yoho.sol\":17274:17319  RateChange(basisPointsRate, _basisPointsRate) */\n      mload(0x40)\n        /* \"ex/yoho.sol\":17302:17318  _basisPointsRate */\n      dup4\n      swap2\n        /* \"ex/yoho.sol\":17285:17300  basisPointsRate */\n      swap1\n        /* \"ex/yoho.sol\":17274:17319  RateChange(basisPointsRate, _basisPointsRate) */\n      0x5fe72661ec4e10c57ee25f11a7e9125b4ff994b73b2e48e8575d6ffc8dbf2bf0\n      swap1\n      0x00\n      swap1\n      log3\n      pop\n        /* \"ex/yoho.sol\":17326:17341  basisPointsRate */\n      0x02\n        /* \"ex/yoho.sol\":17326:17360  basisPointsRate = _basisPointsRate */\n      sstore\n        /* \"ex/yoho.sol\":17374:17378  true */\n      0x01\n      swap1\n        /* \"ex/yoho.sol\":17102:17384  function setBasisPointsRate(uint256 _basisPointsRate) public onlyOwner returns (bool) {\r... */\n      jump\t// out\n        /* \"ex/yoho.sol\":12309:12355  mapping (address => bool) public isWhiteListed */\n    tag_78:\n      mstore(0x20, 0x0a)\n      0x00\n      swap1\n      dup2\n      mstore\n      0x40\n      swap1\n      keccak256\n      sload\n      0xff\n      and\n      dup2\n      jump\t// out\n        /* \"ex/yoho.sol\":13430:13536  function balanceOf(address account) external view returns (uint256) {\r... */\n    tag_81:\n      sub(shl(0xa0, 0x01), 0x01)\n        /* \"ex/yoho.sol\":13512:13530  _balances[account] */\n      and\n        /* \"ex/yoho.sol\":13489:13496  uint256 */\n      0x00\n        /* \"ex/yoho.sol\":13512:13530  _balances[account] */\n      swap1\n      dup2\n      mstore\n        /* \"ex/yoho.sol\":13512:13521  _balances */\n      0x01\n        /* \"ex/yoho.sol\":13512:13530  _balances[account] */\n      0x20\n      mstore\n      0x40\n      swap1\n      keccak256\n      sload\n      swap1\n        /* \"ex/yoho.sol\":13430:13536  function balanceOf(address account) external view returns (uint256) {\r... */\n      jump\t// out\n        /* \"ex/yoho.sol\":10678:10808  function renounceOwnership() public onlyOwner {\r... */\n    tag_83:\n        /* \"ex/yoho.sol\":10280:10292  _msgSender() */\n      tag_175\n        /* \"ex/yoho.sol\":10280:10290  _msgSender */\n      tag_136\n        /* \"ex/yoho.sol\":10280:10292  _msgSender() */\n      jump\t// in\n    tag_175:\n        /* \"ex/yoho.sol\":10270:10276  _owner */\n      sload(0x00)\n      sub(shl(0xa0, 0x01), 0x01)\n      swap1\n      dup2\n      and\n        /* \"ex/yoho.sol\":10270:10292  _owner == _msgSender() */\n      swap2\n      and\n      eq\n        /* \"ex/yoho.sol\":10262:10329  require(_owner == _msgSender(), \"Ownable: caller is not the owner\") */\n      tag_176\n      jumpi\n      0x40\n      dup1\n      mload\n      shl(0xe5, 0x461bcd)\n      dup2\n      mstore\n      0x20\n      0x04\n      dup3\n      add\n      dup2\n      swap1\n      mstore\n      0x24\n      dup3\n      add\n      mstore\n      0x00\n      dup1\n      mload\n      0x20\n      data_9924ebdf1add33d25d4ef888e16131f0a5687b0580a36c21b5c301a6c462effe\n      dup4\n      codecopy\n      dup2\n      mload\n      swap2\n      mstore\n      0x44\n      dup3\n      add\n      mstore\n      swap1\n      mload\n      swap1\n      dup2\n      swap1\n      sub\n      0x64\n      add\n      swap1\n      revert\n    tag_176:\n        /* \"ex/yoho.sol\":10773:10774  0 */\n      0x00\n        /* \"ex/yoho.sol\":10757:10763  _owner */\n      dup1\n      sload\n        /* \"ex/yoho.sol\":10736:10776  OwnershipTransferred(_owner, address(0)) */\n      mload(0x40)\n      sub(shl(0xa0, 0x01), 0x01)\n        /* \"ex/yoho.sol\":10757:10763  _owner */\n      swap1\n      swap2\n      and\n      swap1\n        /* \"ex/yoho.sol\":10736:10776  OwnershipTransferred(_owner, address(0)) */\n      0x8be0079c531659141344cd1fd0a4f28419497f9722a3daafe3b4186f6b6457e0\n      swap1\n        /* \"ex/yoho.sol\":10773:10774  0 */\n      dup4\n      swap1\n        /* \"ex/yoho.sol\":10736:10776  OwnershipTransferred(_owner, address(0)) */\n      log3\n        /* \"ex/yoho.sol\":10800:10801  0 */\n      0x00\n        /* \"ex/yoho.sol\":10783:10802  _owner = address(0) */\n      dup1\n      sload\n      not(sub(shl(0xa0, 0x01), 0x01))\n      and\n      swap1\n      sstore\n        /* \"ex/yoho.sol\":10678:10808  function renounceOwnership() public onlyOwner {\r... */\n      jump\t// out\n        /* \"ex/yoho.sol\":12743:12822  function getOwner() external view returns (address) {\r... */\n    tag_85:\n        /* \"ex/yoho.sol\":12786:12793  address */\n      0x00\n        /* \"ex/yoho.sol\":12809:12816  owner() */\n      tag_179\n        /* \"ex/yoho.sol\":12809:12814  owner */\n      tag_87\n        /* \"ex/yoho.sol\":12809:12816  owner() */\n      jump\t// in\n    tag_179:\n        /* \"ex/yoho.sol\":12802:12816  return owner() */\n      swap1\n      pop\n        /* \"ex/yoho.sol\":12743:12822  function getOwner() external view returns (address) {\r... */\n      swap1\n      jump\t// out\n        /* \"ex/yoho.sol\":10076:10149  function owner() public view returns (address) {\r... */\n    tag_87:\n        /* \"ex/yoho.sol\":10114:10121  address */\n      0x00\n        /* \"ex/yoho.sol\":10137:10143  _owner */\n      sload\n      sub(shl(0xa0, 0x01), 0x01)\n      and\n        /* \"ex/yoho.sol\":10076:10149  function owner() public view returns (address) {\r... */\n      swap1\n      jump\t// out\n        /* \"ex/yoho.sol\":13018:13101  function symbol() external view returns (string memory) {\r... */\n    tag_89:\n        /* \"ex/yoho.sol\":13088:13095  _symbol */\n      0x07\n        /* \"ex/yoho.sol\":13081:13095  return _symbol */\n      dup1\n      sload\n      0x40\n      dup1\n      mload\n      0x20\n      0x1f\n      0x02\n      not(0x00)\n      0x0100\n      0x01\n      dup9\n      and\n      iszero\n      mul\n      add\n      swap1\n      swap6\n      and\n      swap5\n      swap1\n      swap5\n      div\n      swap4\n      dup5\n      add\n      dup2\n      swap1\n      div\n      dup2\n      mul\n      dup3\n      add\n      dup2\n      add\n      swap1\n      swap3\n      mstore\n      dup3\n      dup2\n      mstore\n        /* \"ex/yoho.sol\":13059:13072  string memory */\n      0x60\n      swap4\n        /* \"ex/yoho.sol\":13081:13095  return _symbol */\n      swap1\n      swap3\n        /* \"ex/yoho.sol\":13088:13095  _symbol */\n      swap1\n      swap2\n        /* \"ex/yoho.sol\":13081:13095  return _symbol */\n      dup4\n      add\n        /* \"ex/yoho.sol\":13088:13095  _symbol */\n      dup3\n        /* \"ex/yoho.sol\":13081:13095  return _symbol */\n      dup3\n      dup1\n      iszero\n      tag_130\n      jumpi\n      dup1\n      0x1f\n      lt\n      tag_131\n      jumpi\n      0x0100\n      dup1\n      dup4\n      sload\n      div\n      mul\n      dup4\n      mstore\n      swap2\n      0x20\n      add\n      swap2\n      jump(tag_130)\n        /* \"ex/yoho.sol\":16736:16856  function mint(uint256 amount) public onlyOwner returns (bool) {\r... */\n    tag_96:\n        /* \"ex/yoho.sol\":16792:16796  bool */\n      0x00\n        /* \"ex/yoho.sol\":10280:10292  _msgSender() */\n      tag_186\n        /* \"ex/yoho.sol\":10280:10290  _msgSender */\n      tag_136\n        /* \"ex/yoho.sol\":10280:10292  _msgSender() */\n      jump\t// in\n    tag_186:\n        /* \"ex/yoho.sol\":10270:10276  _owner */\n      sload(0x00)\n      sub(shl(0xa0, 0x01), 0x01)\n      swap1\n      dup2\n      and\n        /* \"ex/yoho.sol\":10270:10292  _owner == _msgSender() */\n      swap2\n      and\n      eq\n        /* \"ex/yoho.sol\":10262:10329  require(_owner == _msgSender(), \"Ownable: caller is not the owner\") */\n      tag_187\n      jumpi\n      0x40\n      dup1\n      mload\n      shl(0xe5, 0x461bcd)\n      dup2\n      mstore\n      0x20\n      0x04\n      dup3\n      add\n      dup2\n      swap1\n      mstore\n      0x24\n      dup3\n      add\n      mstore\n      0x00\n      dup1\n      mload\n      0x20\n      data_9924ebdf1add33d25d4ef888e16131f0a5687b0580a36c21b5c301a6c462effe\n      dup4\n      codecopy\n      dup2\n      mload\n      swap2\n      mstore\n      0x44\n      dup3\n      add\n      mstore\n      swap1\n      mload\n      swap1\n      dup2\n      swap1\n      sub\n      0x64\n      add\n      swap1\n      revert\n    tag_187:\n        /* \"ex/yoho.sol\":16805:16832  _mint(_msgSender(), amount) */\n      tag_165\n        /* \"ex/yoho.sol\":16811:16823  _msgSender() */\n      tag_190\n        /* \"ex/yoho.sol\":16811:16821  _msgSender */\n      tag_136\n        /* \"ex/yoho.sol\":16811:16823  _msgSender() */\n      jump\t// in\n    tag_190:\n        /* \"ex/yoho.sol\":16825:16831  amount */\n      dup4\n        /* \"ex/yoho.sol\":16805:16810  _mint */\n      tag_191\n        /* \"ex/yoho.sol\":16805:16832  _mint(_msgSender(), amount) */\n      jump\t// in\n        /* \"ex/yoho.sol\":16285:16536  function decreaseAllowance(address spender, uint256 subtractedValue) public returns (bool) {\r... */\n    tag_99:\n        /* \"ex/yoho.sol\":16370:16374  bool */\n      0x00\n        /* \"ex/yoho.sol\":16383:16512  _approve(_msgSender(), spender, _allowances[_msgSender()][spender].sub(subtractedValue, \"ARC20: decreased allowance below zero\")) */\n      tag_134\n        /* \"ex/yoho.sol\":16392:16404  _msgSender() */\n      tag_194\n        /* \"ex/yoho.sol\":16392:16402  _msgSender */\n      tag_136\n        /* \"ex/yoho.sol\":16392:16404  _msgSender() */\n      jump\t// in\n    tag_194:\n        /* \"ex/yoho.sol\":16406:16413  spender */\n      dup5\n        /* \"ex/yoho.sol\":16415:16511  _allowances[_msgSender()][spender].sub(subtractedValue, \"ARC20: decreased allowance below zero\") */\n      tag_150\n        /* \"ex/yoho.sol\":16454:16469  subtractedValue */\n      dup6\n        /* \"ex/yoho.sol\":16415:16511  _allowances[_msgSender()][spender].sub(subtractedValue, \"ARC20: decreased allowance below zero\") */\n      mload(0x40)\n      dup1\n      0x60\n      add\n      0x40\n      mstore\n      dup1\n      0x25\n      dup2\n      mstore\n      0x20\n      add\n      data_9412e0e2fec706d2e5e85a841c1f08dee4fb9d15ad0ef869b451d8af0af39dea\n      0x25\n      swap2\n      codecopy\n        /* \"ex/yoho.sol\":16415:16426  _allowances */\n      0x04\n        /* \"ex/yoho.sol\":16415:16440  _allowances[_msgSender()] */\n      0x00\n        /* \"ex/yoho.sol\":16427:16439  _msgSender() */\n      tag_196\n        /* \"ex/yoho.sol\":16427:16437  _msgSender */\n      tag_136\n        /* \"ex/yoho.sol\":16427:16439  _msgSender() */\n      jump\t// in\n    tag_196:\n      sub(shl(0xa0, 0x01), 0x01)\n        /* \"ex/yoho.sol\":16415:16440  _allowances[_msgSender()] */\n      swap1\n      dup2\n      and\n      dup3\n      mstore\n      0x20\n      dup1\n      dup4\n      add\n      swap4\n      swap1\n      swap4\n      mstore\n      0x40\n      swap2\n      dup3\n      add\n      0x00\n      swap1\n      dup2\n      keccak256\n        /* \"ex/yoho.sol\":16415:16449  _allowances[_msgSender()][spender] */\n      swap2\n      dup14\n      and\n      dup2\n      mstore\n      swap3\n      mstore\n      swap1\n      keccak256\n      sload\n      swap2\n        /* \"ex/yoho.sol\":16415:16511  _allowances[_msgSender()][spender].sub(subtractedValue, \"ARC20: decreased allowance below zero\") */\n      swap1\n      0xffffffff\n        /* \"ex/yoho.sol\":16415:16453  _allowances[_msgSender()][spender].sub */\n      tag_152\n        /* \"ex/yoho.sol\":16415:16511  _allowances[_msgSender()][spender].sub(subtractedValue, \"ARC20: decreased allowance below zero\") */\n      and\n      jump\t// in\n        /* \"ex/yoho.sol\":13730:13958  function transfer(address recipient, uint256 amount) external returns (bool) {\r... */\n    tag_102:\n        /* \"ex/yoho.sol\":13836:13846  msg.sender */\n      caller\n        /* \"ex/yoho.sol\":13801:13805  bool */\n      0x00\n        /* \"ex/yoho.sol\":13822:13847  isWhiteListed[msg.sender] */\n      swap1\n      dup2\n      mstore\n        /* \"ex/yoho.sol\":13822:13835  isWhiteListed */\n      0x0a\n        /* \"ex/yoho.sol\":13822:13847  isWhiteListed[msg.sender] */\n      0x20\n      mstore\n      0x40\n      dup2\n      keccak256\n      sload\n      0xff\n      and\n      dup1\n        /* \"ex/yoho.sol\":13822:13865  isWhiteListed[msg.sender] || !limitTransfer */\n      tag_198\n      jumpi\n      pop\n        /* \"ex/yoho.sol\":13852:13865  limitTransfer */\n      and(0xff, sload(0x03))\n        /* \"ex/yoho.sol\":13851:13865  !limitTransfer */\n      iszero\n        /* \"ex/yoho.sol\":13822:13865  isWhiteListed[msg.sender] || !limitTransfer */\n    tag_198:\n        /* \"ex/yoho.sol\":13814:13885  require(isWhiteListed[msg.sender] || !limitTransfer, \"Limit transfer.\") */\n      tag_199\n      jumpi\n      0x40\n      dup1\n      mload\n      shl(0xe5, 0x461bcd)\n      dup2\n      mstore\n      0x20\n      0x04\n      dup3\n      add\n      mstore\n      0x0f\n      0x24\n      dup3\n      add\n      mstore\n      shl(0x89, 0x2634b6b4ba103a3930b739b332b917)\n      0x44\n      dup3\n      add\n      mstore\n      swap1\n      mload\n      swap1\n      dup2\n      swap1\n      sub\n      0x64\n      add\n      swap1\n      revert\n    tag_199:\n        /* \"ex/yoho.sol\":13892:13934  _transfer(_msgSender(), recipient, amount) */\n      tag_134\n        /* \"ex/yoho.sol\":13902:13914  _msgSender() */\n      tag_201\n        /* \"ex/yoho.sol\":13902:13912  _msgSender */\n      tag_136\n        /* \"ex/yoho.sol\":13902:13914  _msgSender() */\n      jump\t// in\n    tag_201:\n        /* \"ex/yoho.sol\":13916:13925  recipient */\n      dup5\n        /* \"ex/yoho.sol\":13927:13933  amount */\n      dup5\n        /* \"ex/yoho.sol\":13892:13901  _transfer */\n      tag_147\n        /* \"ex/yoho.sol\":13892:13934  _transfer(_msgSender(), recipient, amount) */\n      jump\t// in\n        /* \"ex/yoho.sol\":11727:11748  string public _symbol */\n    tag_104:\n      0x07\n      dup1\n      sload\n      0x40\n      dup1\n      mload\n      0x20\n      0x02\n      0x01\n      dup6\n      and\n      iszero\n      0x0100\n      mul\n      not(0x00)\n      add\n      swap1\n      swap5\n      and\n      swap4\n      swap1\n      swap4\n      div\n      0x1f\n      dup2\n      add\n      dup5\n      swap1\n      div\n      dup5\n      mul\n      dup3\n      add\n      dup5\n      add\n      swap1\n      swap3\n      mstore\n      dup2\n      dup2\n      mstore\n      swap3\n      swap2\n      dup4\n      add\n      dup3\n      dup3\n      dup1\n      iszero\n      tag_202\n      jumpi\n      dup1\n      0x1f\n      lt\n      tag_203\n      jumpi\n      0x0100\n      dup1\n      dup4\n      sload\n      div\n      mul\n      dup4\n      mstore\n      swap2\n      0x20\n      add\n      swap2\n      jump(tag_202)\n    tag_203:\n      dup3\n      add\n      swap2\n      swap1\n      0x00\n      mstore\n      keccak256(0x00, 0x20)\n      swap1\n    tag_204:\n      dup2\n      sload\n      dup2\n      mstore\n      swap1\n      0x01\n      add\n      swap1\n      0x20\n      add\n      dup1\n      dup4\n      gt\n      tag_204\n      jumpi\n      dup3\n      swap1\n      sub\n      0x1f\n      and\n      dup3\n      add\n      swap2\n    tag_202:\n      pop\n      pop\n      pop\n      pop\n      pop\n      dup2\n      jump\t// out\n        /* \"ex/yoho.sol\":11753:11772  string public _name */\n    tag_110:\n      0x08\n      dup1\n      sload\n      0x40\n      dup1\n      mload\n      0x20\n      0x02\n      0x01\n      dup6\n      and\n      iszero\n      0x0100\n      mul\n      not(0x00)\n      add\n      swap1\n      swap5\n      and\n      swap4\n      swap1\n      swap4\n      div\n      0x1f\n      dup2\n      add\n      dup5\n      swap1\n      div\n      dup5\n      mul\n      dup3\n      add\n      dup5\n      add\n      swap1\n      swap3\n      mstore\n      dup2\n      dup2\n      mstore\n      swap3\n      swap2\n      dup4\n      add\n      dup3\n      dup3\n      dup1\n      iszero\n      tag_202\n      jumpi\n      dup1\n      0x1f\n      lt\n      tag_203\n      jumpi\n      0x0100\n      dup1\n      dup4\n      sload\n      div\n      mul\n      dup4\n      mstore\n      swap2\n      0x20\n      add\n      swap2\n      jump(tag_202)\n        /* \"ex/yoho.sol\":14012:14142  function allowance(address owner, address spender) external view returns (uint256) {\r... */\n    tag_117:\n      sub(shl(0xa0, 0x01), 0x01)\n        /* \"ex/yoho.sol\":14109:14127  _allowances[owner] */\n      swap2\n      dup3\n      and\n        /* \"ex/yoho.sol\":14086:14093  uint256 */\n      0x00\n        /* \"ex/yoho.sol\":14109:14127  _allowances[owner] */\n      swap1\n      dup2\n      mstore\n        /* \"ex/yoho.sol\":14109:14120  _allowances */\n      0x04\n        /* \"ex/yoho.sol\":14109:14127  _allowances[owner] */\n      0x20\n      swap1\n      dup2\n      mstore\n      0x40\n      dup1\n      dup4\n      keccak256\n        /* \"ex/yoho.sol\":14109:14136  _allowances[owner][spender] */\n      swap4\n      swap1\n      swap5\n      and\n      dup3\n      mstore\n      swap2\n      swap1\n      swap2\n      mstore\n      keccak256\n      sload\n      swap1\n        /* \"ex/yoho.sol\":14012:14142  function allowance(address owner, address spender) external view returns (uint256) {\r... */\n      jump\t// out\n        /* \"ex/yoho.sol\":11513:11547  uint public basisPointsRate = 5000 */\n    tag_119:\n      sload(0x02)\n      dup2\n      jump\t// out\n        /* \"ex/yoho.sol\":12366:12514  function addWhiteList (address _authUser) public onlyOwner {\r... */\n    tag_122:\n        /* \"ex/yoho.sol\":10280:10292  _msgSender() */\n      tag_210\n        /* \"ex/yoho.sol\":10280:10290  _msgSender */\n      tag_136\n        /* \"ex/yoho.sol\":10280:10292  _msgSender() */\n      jump\t// in\n    tag_210:\n        /* \"ex/yoho.sol\":10270:10276  _owner */\n      sload(0x00)\n      sub(shl(0xa0, 0x01), 0x01)\n      swap1\n      dup2\n      and\n        /* \"ex/yoho.sol\":10270:10292  _owner == _msgSender() */\n      swap2\n      and\n      eq\n        /* \"ex/yoho.sol\":10262:10329  require(_owner == _msgSender(), \"Ownable: caller is not the owner\") */\n      tag_211\n      jumpi\n      0x40\n      dup1\n      mload\n      shl(0xe5, 0x461bcd)\n      dup2\n      mstore\n      0x20\n      0x04\n      dup3\n      add\n      dup2\n      swap1\n      mstore\n      0x24\n      dup3\n      add\n      mstore\n      0x00\n      dup1\n      mload\n      0x20\n      data_9924ebdf1add33d25d4ef888e16131f0a5687b0580a36c21b5c301a6c462effe\n      dup4\n      codecopy\n      dup2\n      mload\n      swap2\n      mstore\n      0x44\n      dup3\n      add\n      mstore\n      swap1\n      mload\n      swap1\n      dup2\n      swap1\n      sub\n      0x64\n      add\n      swap1\n      revert\n    tag_211:\n      sub(shl(0xa0, 0x01), 0x01)\n        /* \"ex/yoho.sol\":12436:12460  isWhiteListed[_authUser] */\n      dup2\n      and\n      0x00\n      dup2\n      dup2\n      mstore\n        /* \"ex/yoho.sol\":12436:12449  isWhiteListed */\n      0x0a\n        /* \"ex/yoho.sol\":12436:12460  isWhiteListed[_authUser] */\n      0x20\n      mstore\n      0x40\n      dup1\n      dup3\n      keccak256\n        /* \"ex/yoho.sol\":12436:12467  isWhiteListed[_authUser] = true */\n      dup1\n      sload\n      not(0xff)\n      and\n        /* \"ex/yoho.sol\":12463:12467  true */\n      0x01\n        /* \"ex/yoho.sol\":12436:12467  isWhiteListed[_authUser] = true */\n      or\n      swap1\n      sstore\n        /* \"ex/yoho.sol\":12483:12508  AddedWhiteList(_authUser) */\n      mload\n      0x64fd21439447139bed5a374a0f62ecc0fbd38cf2687d4ed5d587cb55dfbd4258\n      swap2\n        /* \"ex/yoho.sol\":12436:12460  isWhiteListed[_authUser] */\n      swap1\n        /* \"ex/yoho.sol\":12483:12508  AddedWhiteList(_authUser) */\n      log2\n        /* \"ex/yoho.sol\":12366:12514  function addWhiteList (address _authUser) public onlyOwner {\r... */\n      pop\n      jump\t// out\n        /* \"ex/yoho.sol\":17390:17587  function resetLimiteTransfer(bool _limitTransfer) public onlyOwner returns (bool) {\r... */\n    tag_125:\n        /* \"ex/yoho.sol\":17466:17470  bool */\n      0x00\n        /* \"ex/yoho.sol\":10280:10292  _msgSender() */\n      tag_214\n        /* \"ex/yoho.sol\":10280:10290  _msgSender */\n      tag_136\n        /* \"ex/yoho.sol\":10280:10292  _msgSender() */\n      jump\t// in\n    tag_214:\n        /* \"ex/yoho.sol\":10270:10276  _owner */\n      sload(0x00)\n      sub(shl(0xa0, 0x01), 0x01)\n      swap1\n      dup2\n      and\n        /* \"ex/yoho.sol\":10270:10292  _owner == _msgSender() */\n      swap2\n      and\n      eq\n        /* \"ex/yoho.sol\":10262:10329  require(_owner == _msgSender(), \"Ownable: caller is not the owner\") */\n      tag_215\n      jumpi\n      0x40\n      dup1\n      mload\n      shl(0xe5, 0x461bcd)\n      dup2\n      mstore\n      0x20\n      0x04\n      dup3\n      add\n      dup2\n      swap1\n      mstore\n      0x24\n      dup3\n      add\n      mstore\n      0x00\n      dup1\n      mload\n      0x20\n      data_9924ebdf1add33d25d4ef888e16131f0a5687b0580a36c21b5c301a6c462effe\n      dup4\n      codecopy\n      dup2\n      mload\n      swap2\n      mstore\n      0x44\n      dup3\n      add\n      mstore\n      swap1\n      mload\n      swap1\n      dup2\n      swap1\n      sub\n      0x64\n      add\n      swap1\n      revert\n    tag_215:\n        /* \"ex/yoho.sol\":17496:17509  limitTransfer */\n      sload(0x03)\n        /* \"ex/yoho.sol\":17484:17526  ResetLimite(limitTransfer, _limitTransfer) */\n      mload(0x40)\n      dup4\n      iszero\n      iszero\n      swap2\n        /* \"ex/yoho.sol\":17496:17509  limitTransfer */\n      0xff\n      and\n        /* \"ex/yoho.sol\":17484:17526  ResetLimite(limitTransfer, _limitTransfer) */\n      iszero\n      iszero\n      swap1\n      0x04df0d2edb5de587fa33d3656510a78e27e8cc19c34e21a06133231eaa870caf\n      swap1\n        /* \"ex/yoho.sol\":17496:17509  limitTransfer */\n      0x00\n      swap1\n        /* \"ex/yoho.sol\":17484:17526  ResetLimite(limitTransfer, _limitTransfer) */\n      log3\n      pop\n        /* \"ex/yoho.sol\":17533:17546  limitTransfer */\n      0x03\n        /* \"ex/yoho.sol\":17533:17563  limitTransfer = _limitTransfer */\n      dup1\n      sload\n      not(0xff)\n      and\n      swap2\n      iszero\n      iszero\n      swap2\n      swap1\n      swap2\n      or\n      swap1\n      sstore\n      0x01\n      swap1\n        /* \"ex/yoho.sol\":17390:17587  function resetLimiteTransfer(bool _limitTransfer) public onlyOwner returns (bool) {\r... */\n      jump\t// out\n        /* \"ex/yoho.sol\":10953:11056  function transferOwnership(address newOwner) public onlyOwner {\r... */\n    tag_128:\n        /* \"ex/yoho.sol\":10280:10292  _msgSender() */\n      tag_218\n        /* \"ex/yoho.sol\":10280:10290  _msgSender */\n      tag_136\n        /* \"ex/yoho.sol\":10280:10292  _msgSender() */\n      jump\t// in\n    tag_218:\n        /* \"ex/yoho.sol\":10270:10276  _owner */\n      sload(0x00)\n      sub(shl(0xa0, 0x01), 0x01)\n      swap1\n      dup2\n      and\n        /* \"ex/yoho.sol\":10270:10292  _owner == _msgSender() */\n      swap2\n      and\n      eq\n        /* \"ex/yoho.sol\":10262:10329  require(_owner == _msgSender(), \"Ownable: caller is not the owner\") */\n      tag_219\n      jumpi\n      0x40\n      dup1\n      mload\n      shl(0xe5, 0x461bcd)\n      dup2\n      mstore\n      0x20\n      0x04\n      dup3\n      add\n      dup2\n      swap1\n      mstore\n      0x24\n      dup3\n      add\n      mstore\n      0x00\n      dup1\n      mload\n      0x20\n      data_9924ebdf1add33d25d4ef888e16131f0a5687b0580a36c21b5c301a6c462effe\n      dup4\n      codecopy\n      dup2\n      mload\n      swap2\n      mstore\n      0x44\n      dup3\n      add\n      mstore\n      swap1\n      mload\n      swap1\n      dup2\n      swap1\n      sub\n      0x64\n      add\n      swap1\n      revert\n    tag_219:\n        /* \"ex/yoho.sol\":11022:11050  _transferOwnership(newOwner) */\n      tag_221\n        /* \"ex/yoho.sol\":11041:11049  newOwner */\n      dup2\n        /* \"ex/yoho.sol\":11022:11040  _transferOwnership */\n      tag_222\n        /* \"ex/yoho.sol\":11022:11050  _transferOwnership(newOwner) */\n      jump\t// in\n    tag_221:\n        /* \"ex/yoho.sol\":10953:11056  function transferOwnership(address newOwner) public onlyOwner {\r... */\n      pop\n      jump\t// out\n        /* \"ex/yoho.sol\":3773:3865  function _msgSender() internal view returns (address payable) {\r... */\n    tag_136:\n        /* \"ex/yoho.sol\":3849:3859  msg.sender */\n      caller\n        /* \"ex/yoho.sol\":3773:3865  function _msgSender() internal view returns (address payable) {\r... */\n      swap1\n      jump\t// out\n        /* \"ex/yoho.sol\":20637:20957  function _approve(address owner, address spender, uint256 amount) internal {\r... */\n    tag_137:\n      sub(shl(0xa0, 0x01), 0x01)\n        /* \"ex/yoho.sol\":20727:20746  owner != address(0) */\n      dup4\n      and\n        /* \"ex/yoho.sol\":20719:20787  require(owner != address(0), \"ARC20: approve from the zero address\") */\n      tag_225\n      jumpi\n      mload(0x40)\n      shl(0xe5, 0x461bcd)\n      dup2\n      mstore\n      0x04\n      add\n      dup1\n      dup1\n      0x20\n      add\n      dup3\n      dup2\n      sub\n      dup3\n      mstore\n      0x24\n      dup2\n      mstore\n      0x20\n      add\n      dup1\n      data_d09def05dad6e5c0e0f81ed9a6a4a52f41e82b31658e717071b22150323f77c3\n      0x24\n      swap2\n      codecopy\n      0x40\n      add\n      swap2\n      pop\n      pop\n      mload(0x40)\n      dup1\n      swap2\n      sub\n      swap1\n      revert\n    tag_225:\n      sub(shl(0xa0, 0x01), 0x01)\n        /* \"ex/yoho.sol\":20802:20823  spender != address(0) */\n      dup3\n      and\n        /* \"ex/yoho.sol\":20794:20862  require(spender != address(0), \"ARC20: approve to the zero address\") */\n      tag_226\n      jumpi\n      mload(0x40)\n      shl(0xe5, 0x461bcd)\n      dup2\n      mstore\n      0x04\n      add\n      dup1\n      dup1\n      0x20\n      add\n      dup3\n      dup2\n      sub\n      dup3\n      mstore\n      0x22\n      dup2\n      mstore\n      0x20\n      add\n      dup1\n      data_19944b116823c7ce928b48878f788ce15289c681c437f818fa8e180bca49d439\n      0x22\n      swap2\n      codecopy\n      0x40\n      add\n      swap2\n      pop\n      pop\n      mload(0x40)\n      dup1\n      swap2\n      sub\n      swap1\n      revert\n    tag_226:\n      sub(shl(0xa0, 0x01), 0x01)\n        /* \"ex/yoho.sol\":20871:20889  _allowances[owner] */\n      dup1\n      dup5\n      and\n      0x00\n      dup2\n      dup2\n      mstore\n        /* \"ex/yoho.sol\":20871:20882  _allowances */\n      0x04\n        /* \"ex/yoho.sol\":20871:20889  _allowances[owner] */\n      0x20\n      swap1\n      dup2\n      mstore\n      0x40\n      dup1\n      dup4\n      keccak256\n        /* \"ex/yoho.sol\":20871:20898  _allowances[owner][spender] */\n      swap5\n      dup8\n      and\n      dup1\n      dup5\n      mstore\n      swap5\n      dup3\n      mstore\n      swap2\n      dup3\n      swap1\n      keccak256\n        /* \"ex/yoho.sol\":20871:20907  _allowances[owner][spender] = amount */\n      dup6\n      swap1\n      sstore\n        /* \"ex/yoho.sol\":20919:20951  Approval(owner, spender, amount) */\n      dup2\n      mload\n      dup6\n      dup2\n      mstore\n      swap2\n      mload\n      0x8c5be1e5ebec7d5bd14f71427d1e84f3dd0314c0f7b2291e5b200ac8c7c3b925\n      swap3\n      dup2\n      swap1\n      sub\n      swap1\n      swap2\n      add\n      swap1\n      log3\n        /* \"ex/yoho.sol\":20637:20957  function _approve(address owner, address spender, uint256 amount) internal {\r... */\n      pop\n      pop\n      pop\n      jump\t// out\n        /* \"ex/yoho.sol\":18049:18800  function _transfer(address sender, address recipient, uint256 amount) internal {\r... */\n    tag_147:\n      sub(shl(0xa0, 0x01), 0x01)\n        /* \"ex/yoho.sol\":18143:18163  sender != address(0) */\n      dup4\n      and\n        /* \"ex/yoho.sol\":18135:18205  require(sender != address(0), \"ARC20: transfer from the zero address\") */\n      tag_228\n      jumpi\n      mload(0x40)\n      shl(0xe5, 0x461bcd)\n      dup2\n      mstore\n      0x04\n      add\n      dup1\n      dup1\n      0x20\n      add\n      dup3\n      dup2\n      sub\n      dup3\n      mstore\n      0x25\n      dup2\n      mstore\n      0x20\n      add\n      dup1\n      data_741ad084c111d41f2b927f9efcf67f0a2e9038365fc60edf5b8828d135ccce2b\n      0x25\n      swap2\n      codecopy\n      0x40\n      add\n      swap2\n      pop\n      pop\n      mload(0x40)\n      dup1\n      swap2\n      sub\n      swap1\n      revert\n    tag_228:\n      sub(shl(0xa0, 0x01), 0x01)\n        /* \"ex/yoho.sol\":18220:18243  recipient != address(0) */\n      dup3\n      and\n        /* \"ex/yoho.sol\":18212:18283  require(recipient != address(0), \"ARC20: transfer to the zero address\") */\n      tag_229\n      jumpi\n      mload(0x40)\n      shl(0xe5, 0x461bcd)\n      dup2\n      mstore\n      0x04\n      add\n      dup1\n      dup1\n      0x20\n      add\n      dup3\n      dup2\n      sub\n      dup3\n      mstore\n      0x23\n      dup2\n      mstore\n      0x20\n      add\n      dup1\n      data_7f9272c492bb12d65debffaaf9da1b9e4a73e2705f621ec9444f27785a4efdaf\n      0x23\n      swap2\n      codecopy\n      0x40\n      add\n      swap2\n      pop\n      pop\n      mload(0x40)\n      dup1\n      swap2\n      sub\n      swap1\n      revert\n    tag_229:\n        /* \"ex/yoho.sol\":18317:18322  10000 */\n      0x2710\n        /* \"ex/yoho.sol\":18298:18313  basisPointsRate */\n      sload(0x02)\n        /* \"ex/yoho.sol\":18298:18322  basisPointsRate <= 10000 */\n      gt\n      iszero\n        /* \"ex/yoho.sol\":18290:18351  require(basisPointsRate <= 10000, \"basic poin must <= 10000\") */\n      tag_230\n      jumpi\n      0x40\n      dup1\n      mload\n      shl(0xe5, 0x461bcd)\n      dup2\n      mstore\n      0x20\n      0x04\n      dup3\n      add\n      mstore\n      0x18\n      0x24\n      dup3\n      add\n      mstore\n      0x626173696320706f696e206d757374203c3d2031303030300000000000000000\n      0x44\n      dup3\n      add\n      mstore\n      swap1\n      mload\n      swap1\n      dup2\n      swap1\n      sub\n      0x64\n      add\n      swap1\n      revert\n    tag_230:\n        /* \"ex/yoho.sol\":18380:18451  _balances[sender].sub(amount, \"ARC20: transfer amount exceeds balance\") */\n      tag_231\n        /* \"ex/yoho.sol\":18402:18408  amount */\n      dup2\n        /* \"ex/yoho.sol\":18380:18451  _balances[sender].sub(amount, \"ARC20: transfer amount exceeds balance\") */\n      mload(0x40)\n      dup1\n      0x60\n      add\n      0x40\n      mstore\n      dup1\n      0x26\n      dup2\n      mstore\n      0x20\n      add\n      data_4e6b0935d9f360e8e2a5539654013da3b49c2434ae6f48ab0729d3ea4253e929\n      0x26\n      swap2\n      codecopy\n      sub(shl(0xa0, 0x01), 0x01)\n        /* \"ex/yoho.sol\":18380:18397  _balances[sender] */\n      dup7\n      and\n      0x00\n      swap1\n      dup2\n      mstore\n        /* \"ex/yoho.sol\":18380:18389  _balances */\n      0x01\n        /* \"ex/yoho.sol\":18380:18397  _balances[sender] */\n      0x20\n      mstore\n      0x40\n      swap1\n      keccak256\n      sload\n      swap2\n        /* \"ex/yoho.sol\":18380:18451  _balances[sender].sub(amount, \"ARC20: transfer amount exceeds balance\") */\n      swap1\n      0xffffffff\n        /* \"ex/yoho.sol\":18380:18401  _balances[sender].sub */\n      tag_152\n        /* \"ex/yoho.sol\":18380:18451  _balances[sender].sub(amount, \"ARC20: transfer amount exceeds balance\") */\n      and\n      jump\t// in\n    tag_231:\n      sub(shl(0xa0, 0x01), 0x01)\n        /* \"ex/yoho.sol\":18360:18377  _balances[sender] */\n      dup5\n      and\n      0x00\n      swap1\n      dup2\n      mstore\n        /* \"ex/yoho.sol\":18360:18369  _balances */\n      0x01\n        /* \"ex/yoho.sol\":18360:18377  _balances[sender] */\n      0x20\n      mstore\n      0x40\n      dup2\n      keccak256\n        /* \"ex/yoho.sol\":18360:18451  _balances[sender] = _balances[sender].sub(amount, \"ARC20: transfer amount exceeds balance\") */\n      swap2\n      swap1\n      swap2\n      sstore\n        /* \"ex/yoho.sol\":18480:18495  basisPointsRate */\n      sload(0x02)\n        /* \"ex/yoho.sol\":18469:18507  amount.mul(basisPointsRate).div(10000) */\n      tag_232\n      swap1\n        /* \"ex/yoho.sol\":18501:18506  10000 */\n      0x2710\n      swap1\n        /* \"ex/yoho.sol\":18469:18496  amount.mul(basisPointsRate) */\n      tag_233\n      swap1\n        /* \"ex/yoho.sol\":18469:18475  amount */\n      dup6\n      swap1\n        /* \"ex/yoho.sol\":18469:18496  amount.mul(basisPointsRate) */\n      0xffffffff\n        /* \"ex/yoho.sol\":18469:18479  amount.mul */\n      tag_234\n        /* \"ex/yoho.sol\":18469:18496  amount.mul(basisPointsRate) */\n      and\n      jump\t// in\n    tag_233:\n        /* \"ex/yoho.sol\":18469:18500  amount.mul(basisPointsRate).div */\n      swap1\n        /* \"ex/yoho.sol\":18469:18507  amount.mul(basisPointsRate).div(10000) */\n      0xffffffff\n        /* \"ex/yoho.sol\":18469:18500  amount.mul(basisPointsRate).div */\n      tag_235\n        /* \"ex/yoho.sol\":18469:18507  amount.mul(basisPointsRate).div(10000) */\n      and\n      jump\t// in\n    tag_232:\n        /* \"ex/yoho.sol\":18458:18507  uint fee = amount.mul(basisPointsRate).div(10000) */\n      swap1\n      pop\n        /* \"ex/yoho.sol\":18529:18535  amount */\n      dup2\n        /* \"ex/yoho.sol\":18522:18525  fee */\n      dup2\n        /* \"ex/yoho.sol\":18522:18535  fee <= amount */\n      gt\n      iszero\n        /* \"ex/yoho.sol\":18514:18558  require(fee <= amount, \"fee must <= amount\") */\n      tag_236\n      jumpi\n      0x40\n      dup1\n      mload\n      shl(0xe5, 0x461bcd)\n      dup2\n      mstore\n      0x20\n      0x04\n      dup3\n      add\n      mstore\n      0x12\n      0x24\n      dup3\n      add\n      mstore\n      shl(0x72, 0x199959481b5d5cdd080f0f48185b5bdd5b9d)\n      0x44\n      dup3\n      add\n      mstore\n      swap1\n      mload\n      swap1\n      dup2\n      swap1\n      sub\n      0x64\n      add\n      swap1\n      revert\n    tag_236:\n      sub(shl(0xa0, 0x01), 0x01)\n        /* \"ex/yoho.sol\":18588:18608  _balances[recipient] */\n      dup4\n      and\n      0x00\n      swap1\n      dup2\n      mstore\n        /* \"ex/yoho.sol\":18588:18597  _balances */\n      0x01\n        /* \"ex/yoho.sol\":18588:18608  _balances[recipient] */\n      0x20\n      mstore\n      0x40\n      swap1\n      keccak256\n      sload\n        /* \"ex/yoho.sol\":18588:18626  _balances[recipient].add(amount - fee) */\n      tag_237\n      swap1\n        /* \"ex/yoho.sol\":18613:18625  amount - fee */\n      dup3\n      dup5\n      sub\n        /* \"ex/yoho.sol\":18588:18626  _balances[recipient].add(amount - fee) */\n      0xffffffff\n        /* \"ex/yoho.sol\":18588:18612  _balances[recipient].add */\n      tag_163\n        /* \"ex/yoho.sol\":18588:18626  _balances[recipient].add(amount - fee) */\n      and\n      jump\t// in\n    tag_237:\n      sub(shl(0xa0, 0x01), 0x01)\n        /* \"ex/yoho.sol\":18565:18585  _balances[recipient] */\n      dup5\n      and\n      0x00\n      swap1\n      dup2\n      mstore\n        /* \"ex/yoho.sol\":18565:18574  _balances */\n      0x01\n        /* \"ex/yoho.sol\":18565:18585  _balances[recipient] */\n      0x20\n      mstore\n      0x40\n      swap1\n      keccak256\n        /* \"ex/yoho.sol\":18565:18626  _balances[recipient] = _balances[recipient].add(amount - fee) */\n      sstore\n        /* \"ex/yoho.sol\":18637:18644  fee > 0 */\n      dup1\n      iszero\n        /* \"ex/yoho.sol\":18633:18748  if (fee > 0) {\r... */\n      tag_238\n      jumpi\n        /* \"ex/yoho.sol\":18671:18683  _totalSupply */\n      sload(0x05)\n        /* \"ex/yoho.sol\":18671:18692  _totalSupply.sub(fee) */\n      tag_239\n      swap1\n        /* \"ex/yoho.sol\":18688:18691  fee */\n      dup3\n        /* \"ex/yoho.sol\":18671:18692  _totalSupply.sub(fee) */\n      0xffffffff\n        /* \"ex/yoho.sol\":18671:18687  _totalSupply.sub */\n      tag_240\n        /* \"ex/yoho.sol\":18671:18692  _totalSupply.sub(fee) */\n      and\n      jump\t// in\n    tag_239:\n        /* \"ex/yoho.sol\":18656:18668  _totalSupply */\n      0x05\n        /* \"ex/yoho.sol\":18656:18692  _totalSupply = _totalSupply.sub(fee) */\n      sstore\n        /* \"ex/yoho.sol\":18707:18740  Transfer(sender, address(0), fee) */\n      0x40\n      dup1\n      mload\n      dup3\n      dup2\n      mstore\n      swap1\n      mload\n        /* \"ex/yoho.sol\":18732:18733  0 */\n      0x00\n      swap2\n      sub(shl(0xa0, 0x01), 0x01)\n        /* \"ex/yoho.sol\":18707:18740  Transfer(sender, address(0), fee) */\n      dup8\n      and\n      swap2\n      0x00\n      dup1\n      mload\n      0x20\n      data_ada389e1fc24a8587c776340efb91b36e675792ab631816100d55df0b5cf3cbc\n      dup4\n      codecopy\n      dup2\n      mload\n      swap2\n      mstore\n      swap2\n      dup2\n      swap1\n      sub\n      0x20\n      add\n      swap1\n      log3\n        /* \"ex/yoho.sol\":18633:18748  if (fee > 0) {\r... */\n    tag_238:\n        /* \"ex/yoho.sol\":18776:18785  recipient */\n      dup3\n      sub(shl(0xa0, 0x01), 0x01)\n        /* \"ex/yoho.sol\":18759:18794  Transfer(sender, recipient, amount) */\n      and\n        /* \"ex/yoho.sol\":18768:18774  sender */\n      dup5\n      sub(shl(0xa0, 0x01), 0x01)\n        /* \"ex/yoho.sol\":18759:18794  Transfer(sender, recipient, amount) */\n      and\n      0x00\n      dup1\n      mload\n      0x20\n      data_ada389e1fc24a8587c776340efb91b36e675792ab631816100d55df0b5cf3cbc\n      dup4\n      codecopy\n      dup2\n      mload\n      swap2\n      mstore\n        /* \"ex/yoho.sol\":18787:18793  amount */\n      dup5\n        /* \"ex/yoho.sol\":18759:18794  Transfer(sender, recipient, amount) */\n      mload(0x40)\n      dup1\n      dup3\n      dup2\n      mstore\n      0x20\n      add\n      swap2\n      pop\n      pop\n      mload(0x40)\n      dup1\n      swap2\n      sub\n      swap1\n      log3\n        /* \"ex/yoho.sol\":18049:18800  function _transfer(address sender, address recipient, uint256 amount) internal {\r... */\n      pop\n      pop\n      pop\n      pop\n      jump\t// out\n        /* \"ex/yoho.sol\":5732:5910  function sub(uint256 a, uint256 b, string memory errorMessage) internal pure returns (uint256) {\r... */\n    tag_152:\n        /* \"ex/yoho.sol\":5818:5825  uint256 */\n      0x00\n        /* \"ex/yoho.sol\":5850:5862  errorMessage */\n      dup2\n        /* \"ex/yoho.sol\":5842:5848  b <= a */\n      dup5\n      dup5\n      gt\n      iszero\n        /* \"ex/yoho.sol\":5834:5863  require(b <= a, errorMessage) */\n      tag_242\n      jumpi\n      mload(0x40)\n      shl(0xe5, 0x461bcd)\n      dup2\n      mstore\n      0x04\n      add\n      dup1\n      dup1\n      0x20\n      add\n      dup3\n      dup2\n      sub\n      dup3\n      mstore\n      dup4\n      dup2\n      dup2\n      mload\n      dup2\n      mstore\n      0x20\n      add\n      swap2\n      pop\n      dup1\n      mload\n      swap1\n      0x20\n      add\n      swap1\n      dup1\n      dup4\n      dup4\n        /* \"--CODEGEN--\":23:24   */\n      0x00\n        /* \"--CODEGEN--\":8:108   */\n    tag_243:\n        /* \"--CODEGEN--\":33:36   */\n      dup4\n        /* \"--CODEGEN--\":30:31   */\n      dup2\n        /* \"--CODEGEN--\":27:37   */\n      lt\n        /* \"--CODEGEN--\":8:108   */\n      iszero\n      tag_245\n      jumpi\n        /* \"--CODEGEN--\":90:101   */\n      dup2\n      dup2\n      add\n        /* \"--CODEGEN--\":84:102   */\n      mload\n        /* \"--CODEGEN--\":71:82   */\n      dup4\n      dup3\n      add\n        /* \"--CODEGEN--\":64:103   */\n      mstore\n        /* \"--CODEGEN--\":52:54   */\n      0x20\n        /* \"--CODEGEN--\":45:55   */\n      add\n        /* \"--CODEGEN--\":8:108   */\n      jump(tag_243)\n    tag_245:\n        /* \"--CODEGEN--\":12:26   */\n      pop\n        /* \"ex/yoho.sol\":5834:5863  require(b <= a, errorMessage) */\n      pop\n      pop\n      pop\n      swap1\n      pop\n      swap1\n      dup2\n      add\n      swap1\n      0x1f\n      and\n      dup1\n      iszero\n      tag_246\n      jumpi\n      dup1\n      dup3\n      sub\n      dup1\n      mload\n      0x01\n      dup4\n      0x20\n      sub\n      0x0100\n      exp\n      sub\n      not\n      and\n      dup2\n      mstore\n      0x20\n      add\n      swap2\n      pop\n    tag_246:\n      pop\n      swap3\n      pop\n      pop\n      pop\n      mload(0x40)\n      dup1\n      swap2\n      sub\n      swap1\n      revert\n    tag_242:\n      pop\n      pop\n      pop\n        /* \"ex/yoho.sol\":5882:5887  a - b */\n      swap1\n      sub\n      swap1\n        /* \"ex/yoho.sol\":5732:5910  function sub(uint256 a, uint256 b, string memory errorMessage) internal pure returns (uint256) {\r... */\n      jump\t// out\n        /* \"ex/yoho.sol\":4905:5072  function add(uint256 a, uint256 b) internal pure returns (uint256) {\r... */\n    tag_163:\n        /* \"ex/yoho.sol\":4963:4970  uint256 */\n      0x00\n        /* \"ex/yoho.sol\":4991:4996  a + b */\n      dup3\n      dup3\n      add\n        /* \"ex/yoho.sol\":5011:5017  c >= a */\n      dup4\n      dup2\n      lt\n      iszero\n        /* \"ex/yoho.sol\":5003:5049  require(c >= a, \"SafeMath: addition overflow\") */\n      tag_248\n      jumpi\n      0x40\n      dup1\n      mload\n      shl(0xe5, 0x461bcd)\n      dup2\n      mstore\n      0x20\n      0x04\n      dup3\n      add\n      mstore\n      0x1b\n      0x24\n      dup3\n      add\n      mstore\n      0x536166654d6174683a206164646974696f6e206f766572666c6f770000000000\n      0x44\n      dup3\n      add\n      mstore\n      swap1\n      mload\n      swap1\n      dup2\n      swap1\n      sub\n      0x64\n      add\n      swap1\n      revert\n    tag_248:\n        /* \"ex/yoho.sol\":5065:5066  c */\n      swap4\n        /* \"ex/yoho.sol\":4905:5072  function add(uint256 a, uint256 b) internal pure returns (uint256) {\r... */\n      swap3\n      pop\n      pop\n      pop\n      jump\t// out\n        /* \"ex/yoho.sol\":19659:20225  function _burn(address account, uint256 amount) internal {\r... */\n    tag_167:\n      sub(shl(0xa0, 0x01), 0x01)\n        /* \"ex/yoho.sol\":19731:19752  account != address(0) */\n      dup3\n      and\n        /* \"ex/yoho.sol\":19723:19790  require(account != address(0), \"ARC20: burn from the zero address\") */\n      tag_250\n      jumpi\n      mload(0x40)\n      shl(0xe5, 0x461bcd)\n      dup2\n      mstore\n      0x04\n      add\n      dup1\n      dup1\n      0x20\n      add\n      dup3\n      dup2\n      sub\n      dup3\n      mstore\n      0x21\n      dup2\n      mstore\n      0x20\n      add\n      dup1\n      data_3f1db04f913771981623a6dab45469ef2e25607af38f564f1659131885045d07\n      0x21\n      swap2\n      codecopy\n      0x40\n      add\n      swap2\n      pop\n      pop\n      mload(0x40)\n      dup1\n      swap2\n      sub\n      swap1\n      revert\n    tag_250:\n        /* \"ex/yoho.sol\":19801:19813  _isBurnTotal */\n      sload(0x09)\n      shl(0xa0, 0x01)\n      swap1\n      div\n      0xff\n      and\n        /* \"ex/yoho.sol\":19797:20163  if (_isBurnTotal){\r... */\n      iszero\n      tag_251\n      jumpi\n        /* \"ex/yoho.sol\":19846:19914  _balances[account].sub(amount, \"ARC20: burn amount exceeds balance\") */\n      tag_252\n        /* \"ex/yoho.sol\":19869:19875  amount */\n      dup2\n        /* \"ex/yoho.sol\":19846:19914  _balances[account].sub(amount, \"ARC20: burn amount exceeds balance\") */\n      mload(0x40)\n      dup1\n      0x60\n      add\n      0x40\n      mstore\n      dup1\n      0x22\n      dup2\n      mstore\n      0x20\n      add\n      data_2b18504b58470499dc89763a9aad22b8e8f4f8b9a8c65e8240c0c81d16d1dabe\n      0x22\n      swap2\n      codecopy\n      sub(shl(0xa0, 0x01), 0x01)\n        /* \"ex/yoho.sol\":19846:19864  _balances[account] */\n      dup6\n      and\n      0x00\n      swap1\n      dup2\n      mstore\n        /* \"ex/yoho.sol\":19846:19855  _balances */\n      0x01\n        /* \"ex/yoho.sol\":19846:19864  _balances[account] */\n      0x20\n      mstore\n      0x40\n      swap1\n      keccak256\n      sload\n      swap2\n        /* \"ex/yoho.sol\":19846:19914  _balances[account].sub(amount, \"ARC20: burn amount exceeds balance\") */\n      swap1\n      0xffffffff\n        /* \"ex/yoho.sol\":19846:19868  _balances[account].sub */\n      tag_152\n        /* \"ex/yoho.sol\":19846:19914  _balances[account].sub(amount, \"ARC20: burn amount exceeds balance\") */\n      and\n      jump\t// in\n    tag_252:\n      sub(shl(0xa0, 0x01), 0x01)\n        /* \"ex/yoho.sol\":19825:19843  _balances[account] */\n      dup4\n      and\n      0x00\n      swap1\n      dup2\n      mstore\n        /* \"ex/yoho.sol\":19825:19834  _balances */\n      0x01\n        /* \"ex/yoho.sol\":19825:19843  _balances[account] */\n      0x20\n      mstore\n      0x40\n      swap1\n      keccak256\n        /* \"ex/yoho.sol\":19825:19914  _balances[account] = _balances[account].sub(amount, \"ARC20: burn amount exceeds balance\") */\n      sstore\n        /* \"ex/yoho.sol\":19940:19952  _totalSupply */\n      sload(0x05)\n        /* \"ex/yoho.sol\":19940:19964  _totalSupply.sub(amount) */\n      tag_253\n      swap1\n        /* \"ex/yoho.sol\":19957:19963  amount */\n      dup3\n        /* \"ex/yoho.sol\":19940:19964  _totalSupply.sub(amount) */\n      0xffffffff\n        /* \"ex/yoho.sol\":19940:19956  _totalSupply.sub */\n      tag_240\n        /* \"ex/yoho.sol\":19940:19964  _totalSupply.sub(amount) */\n      and\n      jump\t// in\n    tag_253:\n        /* \"ex/yoho.sol\":19925:19937  _totalSupply */\n      0x05\n        /* \"ex/yoho.sol\":19925:19964  _totalSupply = _totalSupply.sub(amount) */\n      sstore\n        /* \"ex/yoho.sol\":19797:20163  if (_isBurnTotal){\r... */\n      jump(tag_254)\n    tag_251:\n        /* \"ex/yoho.sol\":20015:20083  _balances[account].sub(amount, \"ARC20: burn amount exceeds balance\") */\n      tag_255\n        /* \"ex/yoho.sol\":20038:20044  amount */\n      dup2\n        /* \"ex/yoho.sol\":20015:20083  _balances[account].sub(amount, \"ARC20: burn amount exceeds balance\") */\n      mload(0x40)\n      dup1\n      0x60\n      add\n      0x40\n      mstore\n      dup1\n      0x22\n      dup2\n      mstore\n      0x20\n      add\n      data_2b18504b58470499dc89763a9aad22b8e8f4f8b9a8c65e8240c0c81d16d1dabe\n      0x22\n      swap2\n      codecopy\n      sub(shl(0xa0, 0x01), 0x01)\n        /* \"ex/yoho.sol\":20015:20033  _balances[account] */\n      dup6\n      and\n      0x00\n      swap1\n      dup2\n      mstore\n        /* \"ex/yoho.sol\":20015:20024  _balances */\n      0x01\n        /* \"ex/yoho.sol\":20015:20033  _balances[account] */\n      0x20\n      mstore\n      0x40\n      swap1\n      keccak256\n      sload\n      swap2\n        /* \"ex/yoho.sol\":20015:20083  _balances[account].sub(amount, \"ARC20: burn amount exceeds balance\") */\n      swap1\n      0xffffffff\n        /* \"ex/yoho.sol\":20015:20037  _balances[account].sub */\n      tag_152\n        /* \"ex/yoho.sol\":20015:20083  _balances[account].sub(amount, \"ARC20: burn amount exceeds balance\") */\n      and\n      jump\t// in\n    tag_255:\n      sub(shl(0xa0, 0x01), 0x01)\n        /* \"ex/yoho.sol\":19994:20012  _balances[account] */\n      dup1\n      dup5\n      and\n      0x00\n      swap1\n      dup2\n      mstore\n        /* \"ex/yoho.sol\":19994:20003  _balances */\n      0x01\n        /* \"ex/yoho.sol\":19994:20012  _balances[account] */\n      0x20\n      mstore\n      0x40\n      dup1\n      dup3\n      keccak256\n        /* \"ex/yoho.sol\":19994:20083  _balances[account] = _balances[account].sub(amount, \"ARC20: burn amount exceeds balance\") */\n      swap4\n      swap1\n      swap4\n      sstore\n        /* \"ex/yoho.sol\":20130:20142  _burnAccount */\n      sload(0x09)\n      swap1\n      swap2\n      and\n        /* \"ex/yoho.sol\":20120:20143  _balances[_burnAccount] */\n      dup2\n      mstore\n      keccak256\n      sload\n        /* \"ex/yoho.sol\":20120:20155  _balances[_burnAccount].add(amount) */\n      tag_256\n      swap1\n        /* \"ex/yoho.sol\":20148:20154  amount */\n      dup3\n        /* \"ex/yoho.sol\":20120:20155  _balances[_burnAccount].add(amount) */\n      0xffffffff\n        /* \"ex/yoho.sol\":20120:20147  _balances[_burnAccount].add */\n      tag_163\n        /* \"ex/yoho.sol\":20120:20155  _balances[_burnAccount].add(amount) */\n      and\n      jump\t// in\n    tag_256:\n        /* \"ex/yoho.sol\":20104:20116  _burnAccount */\n      and(sub(shl(0xa0, 0x01), 0x01), sload(0x09))\n        /* \"ex/yoho.sol\":20094:20117  _balances[_burnAccount] */\n      0x00\n      swap1\n      dup2\n      mstore\n        /* \"ex/yoho.sol\":20094:20103  _balances */\n      0x01\n        /* \"ex/yoho.sol\":20094:20117  _balances[_burnAccount] */\n      0x20\n      mstore\n      0x40\n      swap1\n      keccak256\n        /* \"ex/yoho.sol\":20094:20155  _balances[_burnAccount] = _balances[_burnAccount].add(amount) */\n      sstore\n        /* \"ex/yoho.sol\":19797:20163  if (_isBurnTotal){\r... */\n    tag_254:\n        /* \"ex/yoho.sol\":20198:20210  _burnAccount */\n      sload(0x09)\n        /* \"ex/yoho.sol\":20180:20219  Transfer(account, _burnAccount, amount) */\n      0x40\n      dup1\n      mload\n      dup4\n      dup2\n      mstore\n      swap1\n      mload\n      sub(shl(0xa0, 0x01), 0x01)\n        /* \"ex/yoho.sol\":20198:20210  _burnAccount */\n      swap3\n      dup4\n      and\n      swap3\n        /* \"ex/yoho.sol\":20180:20219  Transfer(account, _burnAccount, amount) */\n      dup6\n      and\n      swap2\n      0x00\n      dup1\n      mload\n      0x20\n      data_ada389e1fc24a8587c776340efb91b36e675792ab631816100d55df0b5cf3cbc\n      dup4\n      codecopy\n      dup2\n      mload\n      swap2\n      mstore\n      swap2\n      swap1\n      dup2\n      swap1\n      sub\n      0x20\n      add\n      swap1\n      log3\n        /* \"ex/yoho.sol\":19659:20225  function _burn(address account, uint256 amount) internal {\r... */\n      pop\n      pop\n      jump\t// out\n        /* \"ex/yoho.sol\":19061:19351  function _mint(address account, uint256 amount) internal {\r... */\n    tag_191:\n      sub(shl(0xa0, 0x01), 0x01)\n        /* \"ex/yoho.sol\":19133:19154  account != address(0) */\n      dup3\n      and\n        /* \"ex/yoho.sol\":19125:19190  require(account != address(0), \"ARC20: mint to the zero address\") */\n      tag_258\n      jumpi\n      0x40\n      dup1\n      mload\n      shl(0xe5, 0x461bcd)\n      dup2\n      mstore\n      0x20\n      0x04\n      dup3\n      add\n      mstore\n      0x1f\n      0x24\n      dup3\n      add\n      mstore\n      0x41524332303a206d696e7420746f20746865207a65726f206164647265737300\n      0x44\n      dup3\n      add\n      mstore\n      swap1\n      mload\n      swap1\n      dup2\n      swap1\n      sub\n      0x64\n      add\n      swap1\n      revert\n    tag_258:\n        /* \"ex/yoho.sol\":19214:19226  _totalSupply */\n      sload(0x05)\n        /* \"ex/yoho.sol\":19214:19238  _totalSupply.add(amount) */\n      tag_259\n      swap1\n        /* \"ex/yoho.sol\":19231:19237  amount */\n      dup3\n        /* \"ex/yoho.sol\":19214:19238  _totalSupply.add(amount) */\n      0xffffffff\n        /* \"ex/yoho.sol\":19214:19230  _totalSupply.add */\n      tag_163\n        /* \"ex/yoho.sol\":19214:19238  _totalSupply.add(amount) */\n      and\n      jump\t// in\n    tag_259:\n        /* \"ex/yoho.sol\":19199:19211  _totalSupply */\n      0x05\n        /* \"ex/yoho.sol\":19199:19238  _totalSupply = _totalSupply.add(amount) */\n      sstore\n      sub(shl(0xa0, 0x01), 0x01)\n        /* \"ex/yoho.sol\":19266:19284  _balances[account] */\n      dup3\n      and\n      0x00\n      swap1\n      dup2\n      mstore\n        /* \"ex/yoho.sol\":19266:19275  _balances */\n      0x01\n        /* \"ex/yoho.sol\":19266:19284  _balances[account] */\n      0x20\n      mstore\n      0x40\n      swap1\n      keccak256\n      sload\n        /* \"ex/yoho.sol\":19266:19296  _balances[account].add(amount) */\n      tag_260\n      swap1\n        /* \"ex/yoho.sol\":19289:19295  amount */\n      dup3\n        /* \"ex/yoho.sol\":19266:19296  _balances[account].add(amount) */\n      0xffffffff\n        /* \"ex/yoho.sol\":19266:19288  _balances[account].add */\n      tag_163\n        /* \"ex/yoho.sol\":19266:19296  _balances[account].add(amount) */\n      and\n      jump\t// in\n    tag_260:\n      sub(shl(0xa0, 0x01), 0x01)\n        /* \"ex/yoho.sol\":19245:19263  _balances[account] */\n      dup4\n      and\n      0x00\n      dup2\n      dup2\n      mstore\n        /* \"ex/yoho.sol\":19245:19254  _balances */\n      0x01\n        /* \"ex/yoho.sol\":19245:19263  _balances[account] */\n      0x20\n      swap1\n      dup2\n      mstore\n      0x40\n      dup1\n      dup4\n      keccak256\n        /* \"ex/yoho.sol\":19245:19296  _balances[account] = _balances[account].add(amount) */\n      swap5\n      swap1\n      swap5\n      sstore\n        /* \"ex/yoho.sol\":19308:19345  Transfer(address(0), account, amount) */\n      dup4\n      mload\n      dup6\n      dup2\n      mstore\n      swap4\n      mload\n        /* \"ex/yoho.sol\":19245:19263  _balances[account] */\n      swap3\n      swap4\n      swap2\n      swap3\n      0x00\n      dup1\n      mload\n      0x20\n      data_ada389e1fc24a8587c776340efb91b36e675792ab631816100d55df0b5cf3cbc\n      dup4\n      codecopy\n      dup2\n      mload\n      swap2\n      mstore\n        /* \"ex/yoho.sol\":19308:19345  Transfer(address(0), account, amount) */\n      swap3\n      dup2\n      swap1\n      sub\n      swap1\n      swap2\n      add\n      swap1\n      log3\n        /* \"ex/yoho.sol\":19061:19351  function _mint(address account, uint256 amount) internal {\r... */\n      pop\n      pop\n      jump\t// out\n        /* \"ex/yoho.sol\":11154:11369  function _transferOwnership(address newOwner) internal {\r... */\n    tag_222:\n      sub(shl(0xa0, 0x01), 0x01)\n        /* \"ex/yoho.sol\":11224:11246  newOwner != address(0) */\n      dup2\n      and\n        /* \"ex/yoho.sol\":11216:11289  require(newOwner != address(0), \"Ownable: new owner is the zero address\") */\n      tag_262\n      jumpi\n      mload(0x40)\n      shl(0xe5, 0x461bcd)\n      dup2\n      mstore\n      0x04\n      add\n      dup1\n      dup1\n      0x20\n      add\n      dup3\n      dup2\n      sub\n      dup3\n      mstore\n      0x26\n      dup2\n      mstore\n      0x20\n      add\n      dup1\n      data_245f15ff17f551913a7a18385165551503906a406f905ac1c2437281a7cd0cfe\n      0x26\n      swap2\n      codecopy\n      0x40\n      add\n      swap2\n      pop\n      pop\n      mload(0x40)\n      dup1\n      swap2\n      sub\n      swap1\n      revert\n    tag_262:\n        /* \"ex/yoho.sol\":11322:11328  _owner */\n      0x00\n      dup1\n      sload\n        /* \"ex/yoho.sol\":11301:11339  OwnershipTransferred(_owner, newOwner) */\n      mload(0x40)\n      sub(shl(0xa0, 0x01), 0x01)\n      dup1\n      dup6\n      and\n      swap4\n        /* \"ex/yoho.sol\":11322:11328  _owner */\n      swap3\n      and\n      swap2\n        /* \"ex/yoho.sol\":11301:11339  OwnershipTransferred(_owner, newOwner) */\n      0x8be0079c531659141344cd1fd0a4f28419497f9722a3daafe3b4186f6b6457e0\n      swap2\n      log3\n        /* \"ex/yoho.sol\":11346:11352  _owner */\n      0x00\n        /* \"ex/yoho.sol\":11346:11363  _owner = newOwner */\n      dup1\n      sload\n      not(sub(shl(0xa0, 0x01), 0x01))\n      and\n      sub(shl(0xa0, 0x01), 0x01)\n      swap3\n      swap1\n      swap3\n      and\n      swap2\n      swap1\n      swap2\n      or\n      swap1\n      sstore\n        /* \"ex/yoho.sol\":11154:11369  function _transferOwnership(address newOwner) internal {\r... */\n      jump\t// out\n        /* \"ex/yoho.sol\":6141:6572  function mul(uint256 a, uint256 b) internal pure returns (uint256) {\r... */\n    tag_234:\n        /* \"ex/yoho.sol\":6199:6206  uint256 */\n      0x00\n        /* \"ex/yoho.sol\":6428:6434  a == 0 */\n      dup3\n        /* \"ex/yoho.sol\":6424:6461  if (a == 0) {\r... */\n      tag_264\n      jumpi\n      pop\n        /* \"ex/yoho.sol\":6452:6453  0 */\n      0x00\n        /* \"ex/yoho.sol\":6445:6453  return 0 */\n      jump(tag_133)\n        /* \"ex/yoho.sol\":6424:6461  if (a == 0) {\r... */\n    tag_264:\n        /* \"ex/yoho.sol\":6481:6486  a * b */\n      dup3\n      dup3\n      mul\n        /* \"ex/yoho.sol\":6485:6486  b */\n      dup3\n        /* \"ex/yoho.sol\":6481:6482  a */\n      dup5\n        /* \"ex/yoho.sol\":6481:6486  a * b */\n      dup3\n        /* \"ex/yoho.sol\":6481:6482  a */\n      dup2\n        /* \"ex/yoho.sol\":6501:6506  c / a */\n      tag_265\n      jumpi\n      invalid\n    tag_265:\n      div\n        /* \"ex/yoho.sol\":6501:6511  c / a == b */\n      eq\n        /* \"ex/yoho.sol\":6493:6549  require(c / a == b, \"SafeMath: multiplication overflow\") */\n      tag_248\n      jumpi\n      mload(0x40)\n      shl(0xe5, 0x461bcd)\n      dup2\n      mstore\n      0x04\n      add\n      dup1\n      dup1\n      0x20\n      add\n      dup3\n      dup2\n      sub\n      dup3\n      mstore\n      0x21\n      dup2\n      mstore\n      0x20\n      add\n      dup1\n      data_9113bb53c2876a3805b2c9242029423fc540a728243ce887ab24c82cf119fba3\n      0x21\n      swap2\n      codecopy\n      0x40\n      add\n      swap2\n      pop\n      pop\n      mload(0x40)\n      dup1\n      swap2\n      sub\n      swap1\n      revert\n        /* \"ex/yoho.sol\":7016:7142  function div(uint256 a, uint256 b) internal pure returns (uint256) {\r... */\n    tag_235:\n        /* \"ex/yoho.sol\":7074:7081  uint256 */\n      0x00\n        /* \"ex/yoho.sol\":7097:7136  div(a, b, \"SafeMath: division by zero\") */\n      tag_248\n        /* \"ex/yoho.sol\":7101:7102  a */\n      dup4\n        /* \"ex/yoho.sol\":7104:7105  b */\n      dup4\n        /* \"ex/yoho.sol\":7097:7136  div(a, b, \"SafeMath: division by zero\") */\n      mload(0x40)\n      dup1\n      0x40\n      add\n      0x40\n      mstore\n      dup1\n      0x1a\n      dup2\n      mstore\n      0x20\n      add\n      0x536166654d6174683a206469766973696f6e206279207a65726f000000000000\n      dup2\n      mstore\n      pop\n        /* \"ex/yoho.sol\":7097:7100  div */\n      tag_269\n        /* \"ex/yoho.sol\":7097:7136  div(a, b, \"SafeMath: division by zero\") */\n      jump\t// in\n        /* \"ex/yoho.sol\":5327:5457  function sub(uint256 a, uint256 b) internal pure returns (uint256) {\r... */\n    tag_240:\n        /* \"ex/yoho.sol\":5385:5392  uint256 */\n      0x00\n        /* \"ex/yoho.sol\":5408:5451  sub(a, b, \"SafeMath: subtraction overflow\") */\n      tag_248\n        /* \"ex/yoho.sol\":5412:5413  a */\n      dup4\n        /* \"ex/yoho.sol\":5415:5416  b */\n      dup4\n        /* \"ex/yoho.sol\":5408:5451  sub(a, b, \"SafeMath: subtraction overflow\") */\n      mload(0x40)\n      dup1\n      0x40\n      add\n      0x40\n      mstore\n      dup1\n      0x1e\n      dup2\n      mstore\n      0x20\n      add\n      0x536166654d6174683a207375627472616374696f6e206f766572666c6f770000\n      dup2\n      mstore\n      pop\n        /* \"ex/yoho.sol\":5408:5411  sub */\n      tag_152\n        /* \"ex/yoho.sol\":5408:5451  sub(a, b, \"SafeMath: subtraction overflow\") */\n      jump\t// in\n        /* \"ex/yoho.sol\":7606:7929  function div(uint256 a, uint256 b, string memory errorMessage) internal pure returns (uint256) {\r... */\n    tag_269:\n        /* \"ex/yoho.sol\":7692:7699  uint256 */\n      0x00\n        /* \"ex/yoho.sol\":7786:7798  errorMessage */\n      dup2\n        /* \"ex/yoho.sol\":7779:7784  b > 0 */\n      dup4\n        /* \"ex/yoho.sol\":7771:7799  require(b > 0, errorMessage) */\n      tag_273\n      jumpi\n      mload(0x40)\n      shl(0xe5, 0x461bcd)\n      dup2\n      mstore\n      0x20\n      0x04\n      dup3\n      add\n      dup2\n      dup2\n      mstore\n      dup4\n      mload\n      0x24\n      dup5\n      add\n      mstore\n      dup4\n      mload\n      swap1\n      swap3\n      dup4\n      swap3\n      0x44\n      swap1\n      swap2\n      add\n      swap2\n      swap1\n      dup6\n      add\n      swap1\n      dup1\n      dup4\n      dup4\n      0x00\n        /* \"--CODEGEN--\":27:37   */\n      dup4\n      iszero\n        /* \"--CODEGEN--\":8:108   */\n      tag_245\n      jumpi\n        /* \"--CODEGEN--\":90:101   */\n      dup2\n      dup2\n      add\n        /* \"--CODEGEN--\":84:102   */\n      mload\n        /* \"--CODEGEN--\":71:82   */\n      dup4\n      dup3\n      add\n        /* \"--CODEGEN--\":64:103   */\n      mstore\n        /* \"--CODEGEN--\":52:54   */\n      0x20\n        /* \"--CODEGEN--\":45:55   */\n      add\n        /* \"--CODEGEN--\":8:108   */\n      jump(tag_243)\n        /* \"ex/yoho.sol\":7771:7799  require(b > 0, errorMessage) */\n    tag_273:\n      pop\n        /* \"ex/yoho.sol\":7806:7815  uint256 c */\n      0x00\n        /* \"ex/yoho.sol\":7822:7823  b */\n      dup4\n        /* \"ex/yoho.sol\":7818:7819  a */\n      dup6\n        /* \"ex/yoho.sol\":7818:7823  a / b */\n      dup2\n      tag_278\n      jumpi\n      invalid\n    tag_278:\n      div\n      swap6\n        /* \"ex/yoho.sol\":7606:7929  function div(uint256 a, uint256 b, string memory errorMessage) internal pure returns (uint256) {\r... */\n      swap5\n      pop\n      pop\n      pop\n      pop\n      pop\n      jump\t// out\n    stop\n    data_19944b116823c7ce928b48878f788ce15289c681c437f818fa8e180bca49d439 41524332303a20617070726f766520746f20746865207a65726f2061646472657373\n    data_1bdbb83b359c44f2dd176c8e425cac93ac5d285f6e207601ac9329b71a414cfe 41524332303a207472616e7366657220616d6f756e74206578636565647320616c6c6f77616e6365\n    data_245f15ff17f551913a7a18385165551503906a406f905ac1c2437281a7cd0cfe 4f776e61626c653a206e6577206f776e657220697320746865207a65726f2061646472657373\n    data_2b18504b58470499dc89763a9aad22b8e8f4f8b9a8c65e8240c0c81d16d1dabe 41524332303a206275726e20616d6f756e7420657863656564732062616c616e6365\n    data_3f1db04f913771981623a6dab45469ef2e25607af38f564f1659131885045d07 41524332303a206275726e2066726f6d20746865207a65726f2061646472657373\n    data_4e6b0935d9f360e8e2a5539654013da3b49c2434ae6f48ab0729d3ea4253e929 41524332303a207472616e7366657220616d6f756e7420657863656564732062616c616e6365\n    data_741ad084c111d41f2b927f9efcf67f0a2e9038365fc60edf5b8828d135ccce2b 41524332303a207472616e736665722066726f6d20746865207a65726f2061646472657373\n    data_7f9272c492bb12d65debffaaf9da1b9e4a73e2705f621ec9444f27785a4efdaf 41524332303a207472616e7366657220746f20746865207a65726f2061646472657373\n    data_9113bb53c2876a3805b2c9242029423fc540a728243ce887ab24c82cf119fba3 536166654d6174683a206d756c7469706c69636174696f6e206f766572666c6f77\n    data_9412e0e2fec706d2e5e85a841c1f08dee4fb9d15ad0ef869b451d8af0af39dea 41524332303a2064656372656173656420616c6c6f77616e63652062656c6f77207a65726f\n    data_9924ebdf1add33d25d4ef888e16131f0a5687b0580a36c21b5c301a6c462effe 4f776e61626c653a2063616c6c6572206973206e6f7420746865206f776e6572\n    data_ada389e1fc24a8587c776340efb91b36e675792ab631816100d55df0b5cf3cbc ddf252ad1be2c89b69c2b068fc378daa952ba7f163c4a11628f55a4df523b3ef\n    data_d09def05dad6e5c0e0f81ed9a6a4a52f41e82b31658e717071b22150323f77c3 41524332303a20617070726f76652066726f6d20746865207a65726f2061646472657373\n\n    auxdata: 0xa265627a7a723158209f35affa7e82a8afcb4b0637243db234c659c7965350bdcc2a7eee46685ddd3164736f6c63430005100032\n}\n",
				"bytecode": {
					"linkReferences": {},
					"object": "60806040526113886002556003805460ff191660011790553480156200002457600080fd5b5060006200003a6001600160e01b036200016a16565b600080546001600160a01b0319166001600160a01b0383169081178255604051929350917f8be0079c531659141344cd1fd0a4f28419497f9722a3daafe3b4186f6b6457e0908290a350604080518082019091526009808252684149544420596f686f60b81b6020909201918252620000b6916008916200016f565b5060408051808201909152600480825263594f484f60e01b6020909201918252620000e4916007916200016f565b506006805460ff191660121790556c7e37be2022c0914b26800000006005819055336000818152600160209081526040808320859055600980546001600160a81b031916600160a01b179055805194855251929391927fddf252ad1be2c89b69c2b068fc378daa952ba7f163c4a11628f55a4df523b3ef9281900390910190a362000211565b335b90565b828054600181600116156101000203166002900490600052602060002090601f016020900481019282601f10620001b257805160ff1916838001178555620001e2565b82800160010185558215620001e2579182015b82811115620001e2578251825591602001919060010190620001c5565b50620001f0929150620001f4565b5090565b6200016c91905b80821115620001f05760008155600101620001fb565b611a1380620002216000396000f3fe608060405234801561001057600080fd5b50600436106101cf5760003560e01c806370a0823111610104578063a9059cbb116100a2578063dd644f7211610071578063dd644f721461050e578063e7cd4a0414610516578063ea924f061461053c578063f2fde38b1461055b576101cf565b8063a9059cbb146104a4578063b09f1266146104d0578063d28d8852146104d8578063dd62ed3e146104e0576101cf565b80638da5cb5b116100de5780638da5cb5b1461044b57806395d89b4114610453578063a0712d681461045b578063a457c2d714610478576101cf565b806370a0823114610415578063715018a61461043b578063893d20e814610443576101cf565b80633224d39511610171578063395093511161014b578063395093511461038957806342966c68146103b55780635fdf2be0146103d25780636f9170f6146103ef576101cf565b80633224d3951461032f57806332424aa3146103535780633478591a1461035b576101cf565b80632042e5c2116101ad5780632042e5c2146102ab57806323b872dd146102d3578063278d963714610309578063313ce56714610311576101cf565b806306fdde03146101d4578063095ea7b31461025157806318160ddd14610291575b600080fd5b6101dc610581565b6040805160208082528351818301528351919283929083019185019080838360005b838110156102165781810151838201526020016101fe565b50505050905090810190601f1680156102435780820380516001836020036101000a031916815260200191505b509250505060405180910390f35b61027d6004803603604081101561026757600080fd5b506001600160a01b038135169060200135610617565b604080519115158252519081900360200190f35b610299610635565b60408051918252519081900360200190f35b6102d1600480360360208110156102c157600080fd5b50356001600160a01b031661063b565b005b61027d600480360360608110156102e957600080fd5b506001600160a01b038135811691602081013590911690604001356106dc565b61027d6107cb565b6103196107d4565b6040805160ff9092168252519081900360200190f35b6103376107dd565b604080516001600160a01b039092168252519081900360200190f35b6103196107ec565b6102d16004803603604081101561037157600080fd5b506001600160a01b03813516906020013515156107f5565b61027d6004803603604081101561039f57600080fd5b506001600160a01b038135169060200135610886565b61027d600480360360208110156103cb57600080fd5b50356108da565b61027d600480360360208110156103e857600080fd5b50356108f5565b61027d6004803603602081101561040557600080fd5b50356001600160a01b03166109de565b6102996004803603602081101561042b57600080fd5b50356001600160a01b03166109f3565b6102d1610a0e565b610337610ab0565b610337610abf565b6101dc610ace565b61027d6004803603602081101561047157600080fd5b5035610b2f565b61027d6004803603604081101561048e57600080fd5b506001600160a01b038135169060200135610b9a565b61027d600480360360408110156104ba57600080fd5b506001600160a01b038135169060200135610c08565b6101dc610c7e565b6101dc610d0c565b610299600480360360408110156104f657600080fd5b506001600160a01b0381358116916020013516610d67565b610299610d92565b6102d16004803603602081101561052c57600080fd5b50356001600160a01b0316610d98565b61027d6004803603602081101561055257600080fd5b50351515610e3c565b6102d16004803603602081101561057157600080fd5b50356001600160a01b0316610ee3565b60088054604080516020601f600260001961010060018816150201909516949094049384018190048102820181019092528281526060939092909183018282801561060d5780601f106105e25761010080835404028352916020019161060d565b820191906000526020600020905b8154815290600101906020018083116105f057829003601f168201915b5050505050905090565b600061062b610624610f47565b8484610f4b565b5060015b92915050565b60055490565b610643610f47565b6000546001600160a01b03908116911614610693576040805162461bcd60e51b8152602060048201819052602482015260008051602061197b833981519152604482015290519081900360640190fd5b6001600160a01b0381166000818152600a6020526040808220805460ff19169055517f9ff0fe46bde692ffa123229beb5debd1c068a183c3b74be4f2d749f628203d3a9190a250565b336000908152600a602052604081205460ff16806106fd575060035460ff16155b610740576040805162461bcd60e51b815260206004820152600f60248201526e2634b6b4ba103a3930b739b332b91760891b604482015290519081900360640190fd5b61074b848484611037565b6107c184610757610f47565b6107bc85604051806060016040528060288152602001611836602891396001600160a01b038a16600090815260046020526040812090610795610f47565b6001600160a01b03168152602081019190915260400160002054919063ffffffff6112bc16565b610f4b565b5060019392505050565b60035460ff1681565b60065460ff1690565b6009546001600160a01b031681565b60065460ff1681565b6107fd610f47565b6000546001600160a01b0390811691161461084d576040805162461bcd60e51b8152602060048201819052602482015260008051602061197b833981519152604482015290519081900360640190fd5b6009805460ff60a01b1916600160a01b92151592909202919091176001600160a01b0319166001600160a01b0392909216919091179055565b600061062b610893610f47565b846107bc85600460006108a4610f47565b6001600160a01b03908116825260208083019390935260409182016000908120918c16815292529020549063ffffffff61135316565b60006108ed6108e7610f47565b836113b4565b506001919050565b60006108ff610f47565b6000546001600160a01b0390811691161461094f576040805162461bcd60e51b8152602060048201819052602482015260008051602061197b833981519152604482015290519081900360640190fd5b6127108211156109a6576040805162461bcd60e51b815260206004820152601d60248201527f546865206261736520706f696e7473206d757374203c3d203130303030000000604482015290519081900360640190fd5b6002546040518391907f5fe72661ec4e10c57ee25f11a7e9125b4ff994b73b2e48e8575d6ffc8dbf2bf090600090a350600255600190565b600a6020526000908152604090205460ff1681565b6001600160a01b031660009081526001602052604090205490565b610a16610f47565b6000546001600160a01b03908116911614610a66576040805162461bcd60e51b8152602060048201819052602482015260008051602061197b833981519152604482015290519081900360640190fd5b600080546040516001600160a01b03909116907f8be0079c531659141344cd1fd0a4f28419497f9722a3daafe3b4186f6b6457e0908390a3600080546001600160a01b0319169055565b6000610aba610abf565b905090565b6000546001600160a01b031690565b60078054604080516020601f600260001961010060018816150201909516949094049384018190048102820181019092528281526060939092909183018282801561060d5780601f106105e25761010080835404028352916020019161060d565b6000610b39610f47565b6000546001600160a01b03908116911614610b89576040805162461bcd60e51b8152602060048201819052602482015260008051602061197b833981519152604482015290519081900360640190fd5b6108ed610b94610f47565b83611551565b600061062b610ba7610f47565b846107bc856040518060600160405280602581526020016119566025913960046000610bd1610f47565b6001600160a01b03908116825260208083019390935260409182016000908120918d1681529252902054919063ffffffff6112bc16565b336000908152600a602052604081205460ff1680610c29575060035460ff16155b610c6c576040805162461bcd60e51b815260206004820152600f60248201526e2634b6b4ba103a3930b739b332b91760891b604482015290519081900360640190fd5b61062b610c77610f47565b8484611037565b6007805460408051602060026001851615610100026000190190941693909304601f81018490048402820184019092528181529291830182828015610d045780601f10610cd957610100808354040283529160200191610d04565b820191906000526020600020905b815481529060010190602001808311610ce757829003601f168201915b505050505081565b6008805460408051602060026001851615610100026000190190941693909304601f81018490048402820184019092528181529291830182828015610d045780601f10610cd957610100808354040283529160200191610d04565b6001600160a01b03918216600090815260046020908152604080832093909416825291909152205490565b60025481565b610da0610f47565b6000546001600160a01b03908116911614610df0576040805162461bcd60e51b8152602060048201819052602482015260008051602061197b833981519152604482015290519081900360640190fd5b6001600160a01b0381166000818152600a6020526040808220805460ff19166001179055517f64fd21439447139bed5a374a0f62ecc0fbd38cf2687d4ed5d587cb55dfbd42589190a250565b6000610e46610f47565b6000546001600160a01b03908116911614610e96576040805162461bcd60e51b8152602060048201819052602482015260008051602061197b833981519152604482015290519081900360640190fd5b6003546040518315159160ff161515907f04df0d2edb5de587fa33d3656510a78e27e8cc19c34e21a06133231eaa870caf90600090a3506003805460ff1916911515919091179055600190565b610eeb610f47565b6000546001600160a01b03908116911614610f3b576040805162461bcd60e51b8152602060048201819052602482015260008051602061197b833981519152604482015290519081900360640190fd5b610f4481611631565b50565b3390565b6001600160a01b038316610f905760405162461bcd60e51b81526004018080602001828103825260248152602001806119bb6024913960400191505060405180910390fd5b6001600160a01b038216610fd55760405162461bcd60e51b81526004018080602001828103825260228152602001806118146022913960400191505060405180910390fd5b6001600160a01b03808416600081815260046020908152604080832094871680845294825291829020859055815185815291517f8c5be1e5ebec7d5bd14f71427d1e84f3dd0314c0f7b2291e5b200ac8c7c3b9259281900390910190a3505050565b6001600160a01b03831661107c5760405162461bcd60e51b81526004018080602001828103825260258152602001806118ed6025913960400191505060405180910390fd5b6001600160a01b0382166110c15760405162461bcd60e51b81526004018080602001828103825260238152602001806119126023913960400191505060405180910390fd5b612710600254111561111a576040805162461bcd60e51b815260206004820152601860248201527f626173696320706f696e206d757374203c3d2031303030300000000000000000604482015290519081900360640190fd5b61115d816040518060600160405280602681526020016118c7602691396001600160a01b038616600090815260016020526040902054919063ffffffff6112bc16565b6001600160a01b0384166000908152600160205260408120919091556002546111a1906127109061119590859063ffffffff6116d116565b9063ffffffff61172a16565b9050818111156111ed576040805162461bcd60e51b8152602060048201526012602482015271199959481b5d5cdd080f0f48185b5bdd5b9d60721b604482015290519081900360640190fd5b6001600160a01b0383166000908152600160205260409020546112189082840363ffffffff61135316565b6001600160a01b038416600090815260016020526040902055801561127d5760055461124a908263ffffffff61176c16565b6005556040805182815290516000916001600160a01b0387169160008051602061199b8339815191529181900360200190a35b826001600160a01b0316846001600160a01b031660008051602061199b833981519152846040518082815260200191505060405180910390a350505050565b6000818484111561134b5760405162461bcd60e51b81526004018080602001828103825283818151815260200191508051906020019080838360005b838110156113105781810151838201526020016112f8565b50505050905090810190601f16801561133d5780820380516001836020036101000a031916815260200191505b509250505060405180910390fd5b505050900390565b6000828201838110156113ad576040805162461bcd60e51b815260206004820152601b60248201527f536166654d6174683a206164646974696f6e206f766572666c6f770000000000604482015290519081900360640190fd5b9392505050565b6001600160a01b0382166113f95760405162461bcd60e51b81526004018080602001828103825260218152602001806118a66021913960400191505060405180910390fd5b600954600160a01b900460ff16156114825761144e81604051806060016040528060228152602001611884602291396001600160a01b038516600090815260016020526040902054919063ffffffff6112bc16565b6001600160a01b03831660009081526001602052604090205560055461147a908263ffffffff61176c16565b600555611519565b6114c581604051806060016040528060228152602001611884602291396001600160a01b038516600090815260016020526040902054919063ffffffff6112bc16565b6001600160a01b0380841660009081526001602052604080822093909355600954909116815220546114fd908263ffffffff61135316565b6009546001600160a01b03166000908152600160205260409020555b6009546040805183815290516001600160a01b039283169285169160008051602061199b833981519152919081900360200190a35050565b6001600160a01b0382166115ac576040805162461bcd60e51b815260206004820152601f60248201527f41524332303a206d696e7420746f20746865207a65726f206164647265737300604482015290519081900360640190fd5b6005546115bf908263ffffffff61135316565b6005556001600160a01b0382166000908152600160205260409020546115eb908263ffffffff61135316565b6001600160a01b038316600081815260016020908152604080832094909455835185815293519293919260008051602061199b8339815191529281900390910190a35050565b6001600160a01b0381166116765760405162461bcd60e51b815260040180806020018281038252602681526020018061185e6026913960400191505060405180910390fd5b600080546040516001600160a01b03808516939216917f8be0079c531659141344cd1fd0a4f28419497f9722a3daafe3b4186f6b6457e091a3600080546001600160a01b0319166001600160a01b0392909216919091179055565b6000826116e05750600061062f565b828202828482816116ed57fe5b04146113ad5760405162461bcd60e51b81526004018080602001828103825260218152602001806119356021913960400191505060405180910390fd5b60006113ad83836040518060400160405280601a81526020017f536166654d6174683a206469766973696f6e206279207a65726f0000000000008152506117ae565b60006113ad83836040518060400160405280601e81526020017f536166654d6174683a207375627472616374696f6e206f766572666c6f7700008152506112bc565b600081836117fd5760405162461bcd60e51b81526020600482018181528351602484015283519092839260449091019190850190808383600083156113105781810151838201526020016112f8565b50600083858161180957fe5b049594505050505056fe41524332303a20617070726f766520746f20746865207a65726f206164647265737341524332303a207472616e7366657220616d6f756e74206578636565647320616c6c6f77616e63654f776e61626c653a206e6577206f776e657220697320746865207a65726f206164647265737341524332303a206275726e20616d6f756e7420657863656564732062616c616e636541524332303a206275726e2066726f6d20746865207a65726f206164647265737341524332303a207472616e7366657220616d6f756e7420657863656564732062616c616e636541524332303a207472616e736665722066726f6d20746865207a65726f206164647265737341524332303a207472616e7366657220746f20746865207a65726f2061646472657373536166654d6174683a206d756c7469706c69636174696f6e206f766572666c6f7741524332303a2064656372656173656420616c6c6f77616e63652062656c6f77207a65726f4f776e61626c653a2063616c6c6572206973206e6f7420746865206f776e6572ddf252ad1be2c89b69c2b068fc378daa952ba7f163c4a11628f55a4df523b3ef41524332303a20617070726f76652066726f6d20746865207a65726f2061646472657373a265627a7a723158209f35affa7e82a8afcb4b0637243db234c659c7965350bdcc2a7eee46685ddd3164736f6c63430005100032",
					"opcodes": "PUSH1 0x80 PUSH1 0x40 MSTORE PUSH2 0x1388 PUSH1 0x2 SSTORE PUSH1 0x3 DUP1 SLOAD PUSH1 0xFF NOT AND PUSH1 0x1 OR SWAP1 SSTORE CALLVALUE DUP1 ISZERO PUSH3 0x24 JUMPI PUSH1 0x0 DUP1 REVERT JUMPDEST POP PUSH1 0x0 PUSH3 0x3A PUSH1 0x1 PUSH1 0x1 PUSH1 0xE0 SHL SUB PUSH3 0x16A AND JUMP JUMPDEST PUSH1 0x0 DUP1 SLOAD PUSH1 0x1 PUSH1 0x1 PUSH1 0xA0 SHL SUB NOT AND PUSH1 0x1 PUSH1 0x1 PUSH1 0xA0 SHL SUB DUP4 AND SWAP1 DUP2 OR DUP3 SSTORE PUSH1 0x40 MLOAD SWAP3 SWAP4 POP SWAP2 PUSH32 0x8BE0079C531659141344CD1FD0A4F28419497F9722A3DAAFE3B4186F6B6457E0 SWAP1 DUP3 SWAP1 LOG3 POP PUSH1 0x40 DUP1 MLOAD DUP1 DUP3 ADD SWAP1 SWAP2 MSTORE PUSH1 0x9 DUP1 DUP3 MSTORE PUSH9 0x4149544420596F686F PUSH1 0xB8 SHL PUSH1 0x20 SWAP1 SWAP3 ADD SWAP2 DUP3 MSTORE PUSH3 0xB6 SWAP2 PUSH1 0x8 SWAP2 PUSH3 0x16F JUMP JUMPDEST POP PUSH1 0x40 DUP1 MLOAD DUP1 DUP3 ADD SWAP1 SWAP2 MSTORE PUSH1 0x4 DUP1 DUP3 MSTORE PUSH4 0x594F484F PUSH1 0xE0 SHL PUSH1 0x20 SWAP1 SWAP3 ADD SWAP2 DUP3 MSTORE PUSH3 0xE4 SWAP2 PUSH1 0x7 SWAP2 PUSH3 0x16F JUMP JUMPDEST POP PUSH1 0x6 DUP1 SLOAD PUSH1 0xFF NOT AND PUSH1 0x12 OR SWAP1 SSTORE PUSH13 0x7E37BE2022C0914B2680000000 PUSH1 0x5 DUP2 SWAP1 SSTORE CALLER PUSH1 0x0 DUP2 DUP2 MSTORE PUSH1 0x1 PUSH1 0x20 SWAP1 DUP2 MSTORE PUSH1 0x40 DUP1 DUP4 KECCAK256 DUP6 SWAP1 SSTORE PUSH1 0x9 DUP1 SLOAD PUSH1 0x1 PUSH1 0x1 PUSH1 0xA8 SHL SUB NOT AND PUSH1 0x1 PUSH1 0xA0 SHL OR SWAP1 SSTORE DUP1 MLOAD SWAP5 DUP6 MSTORE MLOAD SWAP3 SWAP4 SWAP2 SWAP3 PUSH32 0xDDF252AD1BE2C89B69C2B068FC378DAA952BA7F163C4A11628F55A4DF523B3EF SWAP3 DUP2 SWAP1 SUB SWAP1 SWAP2 ADD SWAP1 LOG3 PUSH3 0x211 JUMP JUMPDEST CALLER JUMPDEST SWAP1 JUMP JUMPDEST DUP3 DUP1 SLOAD PUSH1 0x1 DUP2 PUSH1 0x1 AND ISZERO PUSH2 0x100 MUL SUB AND PUSH1 0x2 SWAP1 DIV SWAP1 PUSH1 0x0 MSTORE PUSH1 0x20 PUSH1 0x0 KECCAK256 SWAP1 PUSH1 0x1F ADD PUSH1 0x20 SWAP1 DIV DUP2 ADD SWAP3 DUP3 PUSH1 0x1F LT PUSH3 0x1B2 JUMPI DUP1 MLOAD PUSH1 0xFF NOT AND DUP4 DUP1 ADD OR DUP6 SSTORE PUSH3 0x1E2 JUMP JUMPDEST DUP3 DUP1 ADD PUSH1 0x1 ADD DUP6 SSTORE DUP3 ISZERO PUSH3 0x1E2 JUMPI SWAP2 DUP3 ADD JUMPDEST DUP3 DUP2 GT ISZERO PUSH3 0x1E2 JUMPI DUP3 MLOAD DUP3 SSTORE SWAP2 PUSH1 0x20 ADD SWAP2 SWAP1 PUSH1 0x1 ADD SWAP1 PUSH3 0x1C5 JUMP JUMPDEST POP PUSH3 0x1F0 SWAP3 SWAP2 POP PUSH3 0x1F4 JUMP JUMPDEST POP SWAP1 JUMP JUMPDEST PUSH3 0x16C SWAP2 SWAP1 JUMPDEST DUP1 DUP3 GT ISZERO PUSH3 0x1F0 JUMPI PUSH1 0x0 DUP2 SSTORE PUSH1 0x1 ADD PUSH3 0x1FB JUMP JUMPDEST PUSH2 0x1A13 DUP1 PUSH3 0x221 PUSH1 0x0 CODECOPY PUSH1 0x0 RETURN INVALID PUSH1 0x80 PUSH1 0x40 MSTORE CALLVALUE DUP1 ISZERO PUSH2 0x10 JUMPI PUSH1 0x0 DUP1 REVERT JUMPDEST POP PUSH1 0x4 CALLDATASIZE LT PUSH2 0x1CF JUMPI PUSH1 0x0 CALLDATALOAD PUSH1 0xE0 SHR DUP1 PUSH4 0x70A08231 GT PUSH2 0x104 JUMPI DUP1 PUSH4 0xA9059CBB GT PUSH2 0xA2 JUMPI DUP1 PUSH4 0xDD644F72 GT PUSH2 0x71 JUMPI DUP1 PUSH4 0xDD644F72 EQ PUSH2 0x50E JUMPI DUP1 PUSH4 0xE7CD4A04 EQ PUSH2 0x516 JUMPI DUP1 PUSH4 0xEA924F06 EQ PUSH2 0x53C JUMPI DUP1 PUSH4 0xF2FDE38B EQ PUSH2 0x55B JUMPI PUSH2 0x1CF JUMP JUMPDEST DUP1 PUSH4 0xA9059CBB EQ PUSH2 0x4A4 JUMPI DUP1 PUSH4 0xB09F1266 EQ PUSH2 0x4D0 JUMPI DUP1 PUSH4 0xD28D8852 EQ PUSH2 0x4D8 JUMPI DUP1 PUSH4 0xDD62ED3E EQ PUSH2 0x4E0 JUMPI PUSH2 0x1CF JUMP JUMPDEST DUP1 PUSH4 0x8DA5CB5B GT PUSH2 0xDE JUMPI DUP1 PUSH4 0x8DA5CB5B EQ PUSH2 0x44B JUMPI DUP1 PUSH4 0x95D89B41 EQ PUSH2 0x453 JUMPI DUP1 PUSH4 0xA0712D68 EQ PUSH2 0x45B JUMPI DUP1 PUSH4 0xA457C2D7 EQ PUSH2 0x478 JUMPI PUSH2 0x1CF JUMP JUMPDEST DUP1 PUSH4 0x70A08231 EQ PUSH2 0x415 JUMPI DUP1 PUSH4 0x715018A6 EQ PUSH2 0x43B JUMPI DUP1 PUSH4 0x893D20E8 EQ PUSH2 0x443 JUMPI PUSH2 0x1CF JUMP JUMPDEST DUP1 PUSH4 0x3224D395 GT PUSH2 0x171 JUMPI DUP1 PUSH4 0x39509351 GT PUSH2 0x14B JUMPI DUP1 PUSH4 0x39509351 EQ PUSH2 0x389 JUMPI DUP1 PUSH4 0x42966C68 EQ PUSH2 0x3B5 JUMPI DUP1 PUSH4 0x5FDF2BE0 EQ PUSH2 0x3D2 JUMPI DUP1 PUSH4 0x6F9170F6 EQ PUSH2 0x3EF JUMPI PUSH2 0x1CF JUMP JUMPDEST DUP1 PUSH4 0x3224D395 EQ PUSH2 0x32F JUMPI DUP1 PUSH4 0x32424AA3 EQ PUSH2 0x353 JUMPI DUP1 PUSH4 0x3478591A EQ PUSH2 0x35B JUMPI PUSH2 0x1CF JUMP JUMPDEST DUP1 PUSH4 0x2042E5C2 GT PUSH2 0x1AD JUMPI DUP1 PUSH4 0x2042E5C2 EQ PUSH2 0x2AB JUMPI DUP1 PUSH4 0x23B872DD EQ PUSH2 0x2D3 JUMPI DUP1 PUSH4 0x278D9637 EQ PUSH2 0x309 JUMPI DUP1 PUSH4 0x313CE567 EQ PUSH2 0x311 JUMPI PUSH2 0x1CF JUMP JUMPDEST DUP1 PUSH4 0x6FDDE03 EQ PUSH2 0x1D4 JUMPI DUP1 PUSH4 0x95EA7B3 EQ PUSH2 0x251 JUMPI DUP1 PUSH4 0x18160DDD EQ PUSH2 0x291 JUMPI JUMPDEST PUSH1 0x0 DUP1 REVERT JUMPDEST PUSH2 0x1DC PUSH2 0x581 JUMP JUMPDEST PUSH1 0x40 DUP1 MLOAD PUSH1 0x20 DUP1 DUP3 MSTORE DUP4 MLOAD DUP2 DUP4 ADD MSTORE DUP4 MLOAD SWAP2 SWAP3 DUP4 SWAP3 SWAP1 DUP4 ADD SWAP2 DUP6 ADD SWAP1 DUP1 DUP4 DUP4 PUSH1 0x0 JUMPDEST DUP4 DUP2 LT ISZERO PUSH2 0x216 JUMPI DUP2 DUP2 ADD MLOAD DUP4 DUP3 ADD MSTORE PUSH1 0x20 ADD PUSH2 0x1FE JUMP JUMPDEST POP POP POP POP SWAP1 POP SWAP1 DUP2 ADD SWAP1 PUSH1 0x1F AND DUP1 ISZERO PUSH2 0x243 JUMPI DUP1 DUP3 SUB DUP1 MLOAD PUSH1 0x1 DUP4 PUSH1 0x20 SUB PUSH2 0x100 EXP SUB NOT AND DUP2 MSTORE PUSH1 0x20 ADD SWAP2 POP JUMPDEST POP SWAP3 POP POP POP PUSH1 0x40 MLOAD DUP1 SWAP2 SUB SWAP1 RETURN JUMPDEST PUSH2 0x27D PUSH1 0x4 DUP1 CALLDATASIZE SUB PUSH1 0x40 DUP2 LT ISZERO PUSH2 0x267 JUMPI PUSH1 0x0 DUP1 REVERT JUMPDEST POP PUSH1 0x1 PUSH1 0x1 PUSH1 0xA0 SHL SUB DUP2 CALLDATALOAD AND SWAP1 PUSH1 0x20 ADD CALLDATALOAD PUSH2 0x617 JUMP JUMPDEST PUSH1 0x40 DUP1 MLOAD SWAP2 ISZERO ISZERO DUP3 MSTORE MLOAD SWAP1 DUP2 SWAP1 SUB PUSH1 0x20 ADD SWAP1 RETURN JUMPDEST PUSH2 0x299 PUSH2 0x635 JUMP JUMPDEST PUSH1 0x40 DUP1 MLOAD SWAP2 DUP3 MSTORE MLOAD SWAP1 DUP2 SWAP1 SUB PUSH1 0x20 ADD SWAP1 RETURN JUMPDEST PUSH2 0x2D1 PUSH1 0x4 DUP1 CALLDATASIZE SUB PUSH1 0x20 DUP2 LT ISZERO PUSH2 0x2C1 JUMPI PUSH1 0x0 DUP1 REVERT JUMPDEST POP CALLDATALOAD PUSH1 0x1 PUSH1 0x1 PUSH1 0xA0 SHL SUB AND PUSH2 0x63B JUMP JUMPDEST STOP JUMPDEST PUSH2 0x27D PUSH1 0x4 DUP1 CALLDATASIZE SUB PUSH1 0x60 DUP2 LT ISZERO PUSH2 0x2E9 JUMPI PUSH1 0x0 DUP1 REVERT JUMPDEST POP PUSH1 0x1 PUSH1 0x1 PUSH1 0xA0 SHL SUB DUP2 CALLDATALOAD DUP2 AND SWAP2 PUSH1 0x20 DUP2 ADD CALLDATALOAD SWAP1 SWAP2 AND SWAP1 PUSH1 0x40 ADD CALLDATALOAD PUSH2 0x6DC JUMP JUMPDEST PUSH2 0x27D PUSH2 0x7CB JUMP JUMPDEST PUSH2 0x319 PUSH2 0x7D4 JUMP JUMPDEST PUSH1 0x40 DUP1 MLOAD PUSH1 0xFF SWAP1 SWAP3 AND DUP3 MSTORE MLOAD SWAP1 DUP2 SWAP1 SUB PUSH1 0x20 ADD SWAP1 RETURN JUMPDEST PUSH2 0x337 PUSH2 0x7DD JUMP JUMPDEST PUSH1 0x40 DUP1 MLOAD PUSH1 0x1 PUSH1 0x1 PUSH1 0xA0 SHL SUB SWAP1 SWAP3 AND DUP3 MSTORE MLOAD SWAP1 DUP2 SWAP1 SUB PUSH1 0x20 ADD SWAP1 RETURN JUMPDEST PUSH2 0x319 PUSH2 0x7EC JUMP JUMPDEST PUSH2 0x2D1 PUSH1 0x4 DUP1 CALLDATASIZE SUB PUSH1 0x40 DUP2 LT ISZERO PUSH2 0x371 JUMPI PUSH1 0x0 DUP1 REVERT JUMPDEST POP PUSH1 0x1 PUSH1 0x1 PUSH1 0xA0 SHL SUB DUP2 CALLDATALOAD AND SWAP1 PUSH1 0x20 ADD CALLDATALOAD ISZERO ISZERO PUSH2 0x7F5 JUMP JUMPDEST PUSH2 0x27D PUSH1 0x4 DUP1 CALLDATASIZE SUB PUSH1 0x40 DUP2 LT ISZERO PUSH2 0x39F JUMPI PUSH1 0x0 DUP1 REVERT JUMPDEST POP PUSH1 0x1 PUSH1 0x1 PUSH1 0xA0 SHL SUB DUP2 CALLDATALOAD AND SWAP1 PUSH1 0x20 ADD CALLDATALOAD PUSH2 0x886 JUMP JUMPDEST PUSH2 0x27D PUSH1 0x4 DUP1 CALLDATASIZE SUB PUSH1 0x20 DUP2 LT ISZERO PUSH2 0x3CB JUMPI PUSH1 0x0 DUP1 REVERT JUMPDEST POP CALLDATALOAD PUSH2 0x8DA JUMP JUMPDEST PUSH2 0x27D PUSH1 0x4 DUP1 CALLDATASIZE SUB PUSH1 0x20 DUP2 LT ISZERO PUSH2 0x3E8 JUMPI PUSH1 0x0 DUP1 REVERT JUMPDEST POP CALLDATALOAD PUSH2 0x8F5 JUMP JUMPDEST PUSH2 0x27D PUSH1 0x4 DUP1 CALLDATASIZE SUB PUSH1 0x20 DUP2 LT ISZERO PUSH2 0x405 JUMPI PUSH1 0x0 DUP1 REVERT JUMPDEST POP CALLDATALOAD PUSH1 0x1 PUSH1 0x1 PUSH1 0xA0 SHL SUB AND PUSH2 0x9DE JUMP JUMPDEST PUSH2 0x299 PUSH1 0x4 DUP1 CALLDATASIZE SUB PUSH1 0x20 DUP2 LT ISZERO PUSH2 0x42B JUMPI PUSH1 0x0 DUP1 REVERT JUMPDEST POP CALLDATALOAD PUSH1 0x1 PUSH1 0x1 PUSH1 0xA0 SHL SUB AND PUSH2 0x9F3 JUMP JUMPDEST PUSH2 0x2D1 PUSH2 0xA0E JUMP JUMPDEST PUSH2 0x337 PUSH2 0xAB0 JUMP JUMPDEST PUSH2 0x337 PUSH2 0xABF JUMP JUMPDEST PUSH2 0x1DC PUSH2 0xACE JUMP JUMPDEST PUSH2 0x27D PUSH1 0x4 DUP1 CALLDATASIZE SUB PUSH1 0x20 DUP2 LT ISZERO PUSH2 0x471 JUMPI PUSH1 0x0 DUP1 REVERT JUMPDEST POP CALLDATALOAD PUSH2 0xB2F JUMP JUMPDEST PUSH2 0x27D PUSH1 0x4 DUP1 CALLDATASIZE SUB PUSH1 0x40 DUP2 LT ISZERO PUSH2 0x48E JUMPI PUSH1 0x0 DUP1 REVERT JUMPDEST POP PUSH1 0x1 PUSH1 0x1 PUSH1 0xA0 SHL SUB DUP2 CALLDATALOAD AND SWAP1 PUSH1 0x20 ADD CALLDATALOAD PUSH2 0xB9A JUMP JUMPDEST PUSH2 0x27D PUSH1 0x4 DUP1 CALLDATASIZE SUB PUSH1 0x40 DUP2 LT ISZERO PUSH2 0x4BA JUMPI PUSH1 0x0 DUP1 REVERT JUMPDEST POP PUSH1 0x1 PUSH1 0x1 PUSH1 0xA0 SHL SUB DUP2 CALLDATALOAD AND SWAP1 PUSH1 0x20 ADD CALLDATALOAD PUSH2 0xC08 JUMP JUMPDEST PUSH2 0x1DC PUSH2 0xC7E JUMP JUMPDEST PUSH2 0x1DC PUSH2 0xD0C JUMP JUMPDEST PUSH2 0x299 PUSH1 0x4 DUP1 CALLDATASIZE SUB PUSH1 0x40 DUP2 LT ISZERO PUSH2 0x4F6 JUMPI PUSH1 0x0 DUP1 REVERT JUMPDEST POP PUSH1 0x1 PUSH1 0x1 PUSH1 0xA0 SHL SUB DUP2 CALLDATALOAD DUP2 AND SWAP2 PUSH1 0x20 ADD CALLDATALOAD AND PUSH2 0xD67 JUMP JUMPDEST PUSH2 0x299 PUSH2 0xD92 JUMP JUMPDEST PUSH2 0x2D1 PUSH1 0x4 DUP1 CALLDATASIZE SUB PUSH1 0x20 DUP2 LT ISZERO PUSH2 0x52C JUMPI PUSH1 0x0 DUP1 REVERT JUMPDEST POP CALLDATALOAD PUSH1 0x1 PUSH1 0x1 PUSH1 0xA0 SHL SUB AND PUSH2 0xD98 JUMP JUMPDEST PUSH2 0x27D PUSH1 0x4 DUP1 CALLDATASIZE SUB PUSH1 0x20 DUP2 LT ISZERO PUSH2 0x552 JUMPI PUSH1 0x0 DUP1 REVERT JUMPDEST POP CALLDATALOAD ISZERO ISZERO PUSH2 0xE3C JUMP JUMPDEST PUSH2 0x2D1 PUSH1 0x4 DUP1 CALLDATASIZE SUB PUSH1 0x20 DUP2 LT ISZERO PUSH2 0x571 JUMPI PUSH1 0x0 DUP1 REVERT JUMPDEST POP CALLDATALOAD PUSH1 0x1 PUSH1 0x1 PUSH1 0xA0 SHL SUB AND PUSH2 0xEE3 JUMP JUMPDEST PUSH1 0x8 DUP1 SLOAD PUSH1 0x40 DUP1 MLOAD PUSH1 0x20 PUSH1 0x1F PUSH1 0x2 PUSH1 0x0 NOT PUSH2 0x100 PUSH1 0x1 DUP9 AND ISZERO MUL ADD SWAP1 SWAP6 AND SWAP5 SWAP1 SWAP5 DIV SWAP4 DUP5 ADD DUP2 SWAP1 DIV DUP2 MUL DUP3 ADD DUP2 ADD SWAP1 SWAP3 MSTORE DUP3 DUP2 MSTORE PUSH1 0x60 SWAP4 SWAP1 SWAP3 SWAP1 SWAP2 DUP4 ADD DUP3 DUP3 DUP1 ISZERO PUSH2 0x60D JUMPI DUP1 PUSH1 0x1F LT PUSH2 0x5E2 JUMPI PUSH2 0x100 DUP1 DUP4 SLOAD DIV MUL DUP4 MSTORE SWAP2 PUSH1 0x20 ADD SWAP2 PUSH2 0x60D JUMP JUMPDEST DUP3 ADD SWAP2 SWAP1 PUSH1 0x0 MSTORE PUSH1 0x20 PUSH1 0x0 KECCAK256 SWAP1 JUMPDEST DUP2 SLOAD DUP2 MSTORE SWAP1 PUSH1 0x1 ADD SWAP1 PUSH1 0x20 ADD DUP1 DUP4 GT PUSH2 0x5F0 JUMPI DUP3 SWAP1 SUB PUSH1 0x1F AND DUP3 ADD SWAP2 JUMPDEST POP POP POP POP POP SWAP1 POP SWAP1 JUMP JUMPDEST PUSH1 0x0 PUSH2 0x62B PUSH2 0x624 PUSH2 0xF47 JUMP JUMPDEST DUP5 DUP5 PUSH2 0xF4B JUMP JUMPDEST POP PUSH1 0x1 JUMPDEST SWAP3 SWAP2 POP POP JUMP JUMPDEST PUSH1 0x5 SLOAD SWAP1 JUMP JUMPDEST PUSH2 0x643 PUSH2 0xF47 JUMP JUMPDEST PUSH1 0x0 SLOAD PUSH1 0x1 PUSH1 0x1 PUSH1 0xA0 SHL SUB SWAP1 DUP2 AND SWAP2 AND EQ PUSH2 0x693 JUMPI PUSH1 0x40 DUP1 MLOAD PUSH3 0x461BCD PUSH1 0xE5 SHL DUP2 MSTORE PUSH1 0x20 PUSH1 0x4 DUP3 ADD DUP2 SWAP1 MSTORE PUSH1 0x24 DUP3 ADD MSTORE PUSH1 0x0 DUP1 MLOAD PUSH1 0x20 PUSH2 0x197B DUP4 CODECOPY DUP2 MLOAD SWAP2 MSTORE PUSH1 0x44 DUP3 ADD MSTORE SWAP1 MLOAD SWAP1 DUP2 SWAP1 SUB PUSH1 0x64 ADD SWAP1 REVERT JUMPDEST PUSH1 0x1 PUSH1 0x1 PUSH1 0xA0 SHL SUB DUP2 AND PUSH1 0x0 DUP2 DUP2 MSTORE PUSH1 0xA PUSH1 0x20 MSTORE PUSH1 0x40 DUP1 DUP3 KECCAK256 DUP1 SLOAD PUSH1 0xFF NOT AND SWAP1 SSTORE MLOAD PUSH32 0x9FF0FE46BDE692FFA123229BEB5DEBD1C068A183C3B74BE4F2D749F628203D3A SWAP2 SWAP1 LOG2 POP JUMP JUMPDEST CALLER PUSH1 0x0 SWAP1 DUP2 MSTORE PUSH1 0xA PUSH1 0x20 MSTORE PUSH1 0x40 DUP2 KECCAK256 SLOAD PUSH1 0xFF AND DUP1 PUSH2 0x6FD JUMPI POP PUSH1 0x3 SLOAD PUSH1 0xFF AND ISZERO JUMPDEST PUSH2 0x740 JUMPI PUSH1 0x40 DUP1 MLOAD PUSH3 0x461BCD PUSH1 0xE5 SHL DUP2 MSTORE PUSH1 0x20 PUSH1 0x4 DUP3 ADD MSTORE PUSH1 0xF PUSH1 0x24 DUP3 ADD MSTORE PUSH15 0x2634B6B4BA103A3930B739B332B917 PUSH1 0x89 SHL PUSH1 0x44 DUP3 ADD MSTORE SWAP1 MLOAD SWAP1 DUP2 SWAP1 SUB PUSH1 0x64 ADD SWAP1 REVERT JUMPDEST PUSH2 0x74B DUP5 DUP5 DUP5 PUSH2 0x1037 JUMP JUMPDEST PUSH2 0x7C1 DUP5 PUSH2 0x757 PUSH2 0xF47 JUMP JUMPDEST PUSH2 0x7BC DUP6 PUSH1 0x40 MLOAD DUP1 PUSH1 0x60 ADD PUSH1 0x40 MSTORE DUP1 PUSH1 0x28 DUP2 MSTORE PUSH1 0x20 ADD PUSH2 0x1836 PUSH1 0x28 SWAP2 CODECOPY PUSH1 0x1 PUSH1 0x1 PUSH1 0xA0 SHL SUB DUP11 AND PUSH1 0x0 SWAP1 DUP2 MSTORE PUSH1 0x4 PUSH1 0x20 MSTORE PUSH1 0x40 DUP2 KECCAK256 SWAP1 PUSH2 0x795 PUSH2 0xF47 JUMP JUMPDEST PUSH1 0x1 PUSH1 0x1 PUSH1 0xA0 SHL SUB AND DUP2 MSTORE PUSH1 0x20 DUP2 ADD SWAP2 SWAP1 SWAP2 MSTORE PUSH1 0x40 ADD PUSH1 0x0 KECCAK256 SLOAD SWAP2 SWAP1 PUSH4 0xFFFFFFFF PUSH2 0x12BC AND JUMP JUMPDEST PUSH2 0xF4B JUMP JUMPDEST POP PUSH1 0x1 SWAP4 SWAP3 POP POP POP JUMP JUMPDEST PUSH1 0x3 SLOAD PUSH1 0xFF AND DUP2 JUMP JUMPDEST PUSH1 0x6 SLOAD PUSH1 0xFF AND SWAP1 JUMP JUMPDEST PUSH1 0x9 SLOAD PUSH1 0x1 PUSH1 0x1 PUSH1 0xA0 SHL SUB AND DUP2 JUMP JUMPDEST PUSH1 0x6 SLOAD PUSH1 0xFF AND DUP2 JUMP JUMPDEST PUSH2 0x7FD PUSH2 0xF47 JUMP JUMPDEST PUSH1 0x0 SLOAD PUSH1 0x1 PUSH1 0x1 PUSH1 0xA0 SHL SUB SWAP1 DUP2 AND SWAP2 AND EQ PUSH2 0x84D JUMPI PUSH1 0x40 DUP1 MLOAD PUSH3 0x461BCD PUSH1 0xE5 SHL DUP2 MSTORE PUSH1 0x20 PUSH1 0x4 DUP3 ADD DUP2 SWAP1 MSTORE PUSH1 0x24 DUP3 ADD MSTORE PUSH1 0x0 DUP1 MLOAD PUSH1 0x20 PUSH2 0x197B DUP4 CODECOPY DUP2 MLOAD SWAP2 MSTORE PUSH1 0x44 DUP3 ADD MSTORE SWAP1 MLOAD SWAP1 DUP2 SWAP1 SUB PUSH1 0x64 ADD SWAP1 REVERT JUMPDEST PUSH1 0x9 DUP1 SLOAD PUSH1 0xFF PUSH1 0xA0 SHL NOT AND PUSH1 0x1 PUSH1 0xA0 SHL SWAP3 ISZERO ISZERO SWAP3 SWAP1 SWAP3 MUL SWAP2 SWAP1 SWAP2 OR PUSH1 0x1 PUSH1 0x1 PUSH1 0xA0 SHL SUB NOT AND PUSH1 0x1 PUSH1 0x1 PUSH1 0xA0 SHL SUB SWAP3 SWAP1 SWAP3 AND SWAP2 SWAP1 SWAP2 OR SWAP1 SSTORE JUMP JUMPDEST PUSH1 0x0 PUSH2 0x62B PUSH2 0x893 PUSH2 0xF47 JUMP JUMPDEST DUP5 PUSH2 0x7BC DUP6 PUSH1 0x4 PUSH1 0x0 PUSH2 0x8A4 PUSH2 0xF47 JUMP JUMPDEST PUSH1 0x1 PUSH1 0x1 PUSH1 0xA0 SHL SUB SWAP1 DUP2 AND DUP3 MSTORE PUSH1 0x20 DUP1 DUP4 ADD SWAP4 SWAP1 SWAP4 MSTORE PUSH1 0x40 SWAP2 DUP3 ADD PUSH1 0x0 SWAP1 DUP2 KECCAK256 SWAP2 DUP13 AND DUP2 MSTORE SWAP3 MSTORE SWAP1 KECCAK256 SLOAD SWAP1 PUSH4 0xFFFFFFFF PUSH2 0x1353 AND JUMP JUMPDEST PUSH1 0x0 PUSH2 0x8ED PUSH2 0x8E7 PUSH2 0xF47 JUMP JUMPDEST DUP4 PUSH2 0x13B4 JUMP JUMPDEST POP PUSH1 0x1 SWAP2 SWAP1 POP JUMP JUMPDEST PUSH1 0x0 PUSH2 0x8FF PUSH2 0xF47 JUMP JUMPDEST PUSH1 0x0 SLOAD PUSH1 0x1 PUSH1 0x1 PUSH1 0xA0 SHL SUB SWAP1 DUP2 AND SWAP2 AND EQ PUSH2 0x94F JUMPI PUSH1 0x40 DUP1 MLOAD PUSH3 0x461BCD PUSH1 0xE5 SHL DUP2 MSTORE PUSH1 0x20 PUSH1 0x4 DUP3 ADD DUP2 SWAP1 MSTORE PUSH1 0x24 DUP3 ADD MSTORE PUSH1 0x0 DUP1 MLOAD PUSH1 0x20 PUSH2 0x197B DUP4 CODECOPY DUP2 MLOAD SWAP2 MSTORE PUSH1 0x44 DUP3 ADD MSTORE SWAP1 MLOAD SWAP1 DUP2 SWAP1 SUB PUSH1 0x64 ADD SWAP1 REVERT JUMPDEST PUSH2 0x2710 DUP3 GT ISZERO PUSH2 0x9A6 JUMPI PUSH1 0x40 DUP1 MLOAD PUSH3 0x461BCD PUSH1 0xE5 SHL DUP2 MSTORE PUSH1 0x20 PUSH1 0x4 DUP3 ADD MSTORE PUSH1 0x1D PUSH1 0x24 DUP3 ADD MSTORE PUSH32 0x546865206261736520706F696E7473206D757374203C3D203130303030000000 PUSH1 0x44 DUP3 ADD MSTORE SWAP1 MLOAD SWAP1 DUP2 SWAP1 SUB PUSH1 0x64 ADD SWAP1 REVERT JUMPDEST PUSH1 0x2 SLOAD PUSH1 0x40 MLOAD DUP4 SWAP2 SWAP1 PUSH32 0x5FE72661EC4E10C57EE25F11A7E9125B4FF994B73B2E48E8575D6FFC8DBF2BF0 SWAP1 PUSH1 0x0 SWAP1 LOG3 POP PUSH1 0x2 SSTORE PUSH1 0x1 SWAP1 JUMP JUMPDEST PUSH1 0xA PUSH1 0x20 MSTORE PUSH1 0x0 SWAP1 DUP2 MSTORE PUSH1 0x40 SWAP1 KECCAK256 SLOAD PUSH1 0xFF AND DUP2 JUMP JUMPDEST PUSH1 0x1 PUSH1 0x1 PUSH1 0xA0 SHL SUB AND PUSH1 0x0 SWAP1 DUP2 MSTORE PUSH1 0x1 PUSH1 0x20 MSTORE PUSH1 0x40 SWAP1 KECCAK256 SLOAD SWAP1 JUMP JUMPDEST PUSH2 0xA16 PUSH2 0xF47 JUMP JUMPDEST PUSH1 0x0 SLOAD PUSH1 0x1 PUSH1 0x1 PUSH1 0xA0 SHL SUB SWAP1 DUP2 AND SWAP2 AND EQ PUSH2 0xA66 JUMPI PUSH1 0x40 DUP1 MLOAD PUSH3 0x461BCD PUSH1 0xE5 SHL DUP2 MSTORE PUSH1 0x20 PUSH1 0x4 DUP3 ADD DUP2 SWAP1 MSTORE PUSH1 0x24 DUP3 ADD MSTORE PUSH1 0x0 DUP1 MLOAD PUSH1 0x20 PUSH2 0x197B DUP4 CODECOPY DUP2 MLOAD SWAP2 MSTORE PUSH1 0x44 DUP3 ADD MSTORE SWAP1 MLOAD SWAP1 DUP2 SWAP1 SUB PUSH1 0x64 ADD SWAP1 REVERT JUMPDEST PUSH1 0x0 DUP1 SLOAD PUSH1 0x40 MLOAD PUSH1 0x1 PUSH1 0x1 PUSH1 0xA0 SHL SUB SWAP1 SWAP2 AND SWAP1 PUSH32 0x8BE0079C531659141344CD1FD0A4F28419497F9722A3DAAFE3B4186F6B6457E0 SWAP1 DUP4 SWAP1 LOG3 PUSH1 0x0 DUP1 SLOAD PUSH1 0x1 PUSH1 0x1 PUSH1 0xA0 SHL SUB NOT AND SWAP1 SSTORE JUMP JUMPDEST PUSH1 0x0 PUSH2 0xABA PUSH2 0xABF JUMP JUMPDEST SWAP1 POP SWAP1 JUMP JUMPDEST PUSH1 0x0 SLOAD PUSH1 0x1 PUSH1 0x1 PUSH1 0xA0 SHL SUB AND SWAP1 JUMP JUMPDEST PUSH1 0x7 DUP1 SLOAD PUSH1 0x40 DUP1 MLOAD PUSH1 0x20 PUSH1 0x1F PUSH1 0x2 PUSH1 0x0 NOT PUSH2 0x100 PUSH1 0x1 DUP9 AND ISZERO MUL ADD SWAP1 SWAP6 AND SWAP5 SWAP1 SWAP5 DIV SWAP4 DUP5 ADD DUP2 SWAP1 DIV DUP2 MUL DUP3 ADD DUP2 ADD SWAP1 SWAP3 MSTORE DUP3 DUP2 MSTORE PUSH1 0x60 SWAP4 SWAP1 SWAP3 SWAP1 SWAP2 DUP4 ADD DUP3 DUP3 DUP1 ISZERO PUSH2 0x60D JUMPI DUP1 PUSH1 0x1F LT PUSH2 0x5E2 JUMPI PUSH2 0x100 DUP1 DUP4 SLOAD DIV MUL DUP4 MSTORE SWAP2 PUSH1 0x20 ADD SWAP2 PUSH2 0x60D JUMP JUMPDEST PUSH1 0x0 PUSH2 0xB39 PUSH2 0xF47 JUMP JUMPDEST PUSH1 0x0 SLOAD PUSH1 0x1 PUSH1 0x1 PUSH1 0xA0 SHL SUB SWAP1 DUP2 AND SWAP2 AND EQ PUSH2 0xB89 JUMPI PUSH1 0x40 DUP1 MLOAD PUSH3 0x461BCD PUSH1 0xE5 SHL DUP2 MSTORE PUSH1 0x20 PUSH1 0x4 DUP3 ADD DUP2 SWAP1 MSTORE PUSH1 0x24 DUP3 ADD MSTORE PUSH1 0x0 DUP1 MLOAD PUSH1 0x20 PUSH2 0x197B DUP4 CODECOPY DUP2 MLOAD SWAP2 MSTORE PUSH1 0x44 DUP3 ADD MSTORE SWAP1 MLOAD SWAP1 DUP2 SWAP1 SUB PUSH1 0x64 ADD SWAP1 REVERT JUMPDEST PUSH2 0x8ED PUSH2 0xB94 PUSH2 0xF47 JUMP JUMPDEST DUP4 PUSH2 0x1551 JUMP JUMPDEST PUSH1 0x0 PUSH2 0x62B PUSH2 0xBA7 PUSH2 0xF47 JUMP JUMPDEST DUP5 PUSH2 0x7BC DUP6 PUSH1 0x40 MLOAD DUP1 PUSH1 0x60 ADD PUSH1 0x40 MSTORE DUP1 PUSH1 0x25 DUP2 MSTORE PUSH1 0x20 ADD PUSH2 0x1956 PUSH1 0x25 SWAP2 CODECOPY PUSH1 0x4 PUSH1 0x0 PUSH2 0xBD1 PUSH2 0xF47 JUMP JUMPDEST PUSH1 0x1 PUSH1 0x1 PUSH1 0xA0 SHL SUB SWAP1 DUP2 AND DUP3 MSTORE PUSH1 0x20 DUP1 DUP4 ADD SWAP4 SWAP1 SWAP4 MSTORE PUSH1 0x40 SWAP2 DUP3 ADD PUSH1 0x0 SWAP1 DUP2 KECCAK256 SWAP2 DUP14 AND DUP2 MSTORE SWAP3 MSTORE SWAP1 KECCAK256 SLOAD SWAP2 SWAP1 PUSH4 0xFFFFFFFF PUSH2 0x12BC AND JUMP JUMPDEST CALLER PUSH1 0x0 SWAP1 DUP2 MSTORE PUSH1 0xA PUSH1 0x20 MSTORE PUSH1 0x40 DUP2 KECCAK256 SLOAD PUSH1 0xFF AND DUP1 PUSH2 0xC29 JUMPI POP PUSH1 0x3 SLOAD PUSH1 0xFF AND ISZERO JUMPDEST PUSH2 0xC6C JUMPI PUSH1 0x40 DUP1 MLOAD PUSH3 0x461BCD PUSH1 0xE5 SHL DUP2 MSTORE PUSH1 0x20 PUSH1 0x4 DUP3 ADD MSTORE PUSH1 0xF PUSH1 0x24 DUP3 ADD MSTORE PUSH15 0x2634B6B4BA103A3930B739B332B917 PUSH1 0x89 SHL PUSH1 0x44 DUP3 ADD MSTORE SWAP1 MLOAD SWAP1 DUP2 SWAP1 SUB PUSH1 0x64 ADD SWAP1 REVERT JUMPDEST PUSH2 0x62B PUSH2 0xC77 PUSH2 0xF47 JUMP JUMPDEST DUP5 DUP5 PUSH2 0x1037 JUMP JUMPDEST PUSH1 0x7 DUP1 SLOAD PUSH1 0x40 DUP1 MLOAD PUSH1 0x20 PUSH1 0x2 PUSH1 0x1 DUP6 AND ISZERO PUSH2 0x100 MUL PUSH1 0x0 NOT ADD SWAP1 SWAP5 AND SWAP4 SWAP1 SWAP4 DIV PUSH1 0x1F DUP2 ADD DUP5 SWAP1 DIV DUP5 MUL DUP3 ADD DUP5 ADD SWAP1 SWAP3 MSTORE DUP2 DUP2 MSTORE SWAP3 SWAP2 DUP4 ADD DUP3 DUP3 DUP1 ISZERO PUSH2 0xD04 JUMPI DUP1 PUSH1 0x1F LT PUSH2 0xCD9 JUMPI PUSH2 0x100 DUP1 DUP4 SLOAD DIV MUL DUP4 MSTORE SWAP2 PUSH1 0x20 ADD SWAP2 PUSH2 0xD04 JUMP JUMPDEST DUP3 ADD SWAP2 SWAP1 PUSH1 0x0 MSTORE PUSH1 0x20 PUSH1 0x0 KECCAK256 SWAP1 JUMPDEST DUP2 SLOAD DUP2 MSTORE SWAP1 PUSH1 0x1 ADD SWAP1 PUSH1 0x20 ADD DUP1 DUP4 GT PUSH2 0xCE7 JUMPI DUP3 SWAP1 SUB PUSH1 0x1F AND DUP3 ADD SWAP2 JUMPDEST POP POP POP POP POP DUP2 JUMP JUMPDEST PUSH1 0x8 DUP1 SLOAD PUSH1 0x40 DUP1 MLOAD PUSH1 0x20 PUSH1 0x2 PUSH1 0x1 DUP6 AND ISZERO PUSH2 0x100 MUL PUSH1 0x0 NOT ADD SWAP1 SWAP5 AND SWAP4 SWAP1 SWAP4 DIV PUSH1 0x1F DUP2 ADD DUP5 SWAP1 DIV DUP5 MUL DUP3 ADD DUP5 ADD SWAP1 SWAP3 MSTORE DUP2 DUP2 MSTORE SWAP3 SWAP2 DUP4 ADD DUP3 DUP3 DUP1 ISZERO PUSH2 0xD04 JUMPI DUP1 PUSH1 0x1F LT PUSH2 0xCD9 JUMPI PUSH2 0x100 DUP1 DUP4 SLOAD DIV MUL DUP4 MSTORE SWAP2 PUSH1 0x20 ADD SWAP2 PUSH2 0xD04 JUMP JUMPDEST PUSH1 0x1 PUSH1 0x1 PUSH1 0xA0 SHL SUB SWAP2 DUP3 AND PUSH1 0x0 SWAP1 DUP2 MSTORE PUSH1 0x4 PUSH1 0x20 SWAP1 DUP2 MSTORE PUSH1 0x40 DUP1 DUP4 KECCAK256 SWAP4 SWAP1 SWAP5 AND DUP3 MSTORE SWAP2 SWAP1 SWAP2 MSTORE KECCAK256 SLOAD SWAP1 JUMP JUMPDEST PUSH1 0x2 SLOAD DUP2 JUMP JUMPDEST PUSH2 0xDA0 PUSH2 0xF47 JUMP JUMPDEST PUSH1 0x0 SLOAD PUSH1 0x1 PUSH1 0x1 PUSH1 0xA0 SHL SUB SWAP1 DUP2 AND SWAP2 AND EQ PUSH2 0xDF0 JUMPI PUSH1 0x40 DUP1 MLOAD PUSH3 0x461BCD PUSH1 0xE5 SHL DUP2 MSTORE PUSH1 0x20 PUSH1 0x4 DUP3 ADD DUP2 SWAP1 MSTORE PUSH1 0x24 DUP3 ADD MSTORE PUSH1 0x0 DUP1 MLOAD PUSH1 0x20 PUSH2 0x197B DUP4 CODECOPY DUP2 MLOAD SWAP2 MSTORE PUSH1 0x44 DUP3 ADD MSTORE SWAP1 MLOAD SWAP1 DUP2 SWAP1 SUB PUSH1 0x64 ADD SWAP1 REVERT JUMPDEST PUSH1 0x1 PUSH1 0x1 PUSH1 0xA0 SHL SUB DUP2 AND PUSH1 0x0 DUP2 DUP2 MSTORE PUSH1 0xA PUSH1 0x20 MSTORE PUSH1 0x40 DUP1 DUP3 KECCAK256 DUP1 SLOAD PUSH1 0xFF NOT AND PUSH1 0x1 OR SWAP1 SSTORE MLOAD PUSH32 0x64FD21439447139BED5A374A0F62ECC0FBD38CF2687D4ED5D587CB55DFBD4258 SWAP2 SWAP1 LOG2 POP JUMP JUMPDEST PUSH1 0x0 PUSH2 0xE46 PUSH2 0xF47 JUMP JUMPDEST PUSH1 0x0 SLOAD PUSH1 0x1 PUSH1 0x1 PUSH1 0xA0 SHL SUB SWAP1 DUP2 AND SWAP2 AND EQ PUSH2 0xE96 JUMPI PUSH1 0x40 DUP1 MLOAD PUSH3 0x461BCD PUSH1 0xE5 SHL DUP2 MSTORE PUSH1 0x20 PUSH1 0x4 DUP3 ADD DUP2 SWAP1 MSTORE PUSH1 0x24 DUP3 ADD MSTORE PUSH1 0x0 DUP1 MLOAD PUSH1 0x20 PUSH2 0x197B DUP4 CODECOPY DUP2 MLOAD SWAP2 MSTORE PUSH1 0x44 DUP3 ADD MSTORE SWAP1 MLOAD SWAP1 DUP2 SWAP1 SUB PUSH1 0x64 ADD SWAP1 REVERT JUMPDEST PUSH1 0x3 SLOAD PUSH1 0x40 MLOAD DUP4 ISZERO ISZERO SWAP2 PUSH1 0xFF AND ISZERO ISZERO SWAP1 PUSH32 0x4DF0D2EDB5DE587FA33D3656510A78E27E8CC19C34E21A06133231EAA870CAF SWAP1 PUSH1 0x0 SWAP1 LOG3 POP PUSH1 0x3 DUP1 SLOAD PUSH1 0xFF NOT AND SWAP2 ISZERO ISZERO SWAP2 SWAP1 SWAP2 OR SWAP1 SSTORE PUSH1 0x1 SWAP1 JUMP JUMPDEST PUSH2 0xEEB PUSH2 0xF47 JUMP JUMPDEST PUSH1 0x0 SLOAD PUSH1 0x1 PUSH1 0x1 PUSH1 0xA0 SHL SUB SWAP1 DUP2 AND SWAP2 AND EQ PUSH2 0xF3B JUMPI PUSH1 0x40 DUP1 MLOAD PUSH3 0x461BCD PUSH1 0xE5 SHL DUP2 MSTORE PUSH1 0x20 PUSH1 0x4 DUP3 ADD DUP2 SWAP1 MSTORE PUSH1 0x24 DUP3 ADD MSTORE PUSH1 0x0 DUP1 MLOAD PUSH1 0x20 PUSH2 0x197B DUP4 CODECOPY DUP2 MLOAD SWAP2 MSTORE PUSH1 0x44 DUP3 ADD MSTORE SWAP1 MLOAD SWAP1 DUP2 SWAP1 SUB PUSH1 0x64 ADD SWAP1 REVERT JUMPDEST PUSH2 0xF44 DUP2 PUSH2 0x1631 JUMP JUMPDEST POP JUMP JUMPDEST CALLER SWAP1 JUMP JUMPDEST PUSH1 0x1 PUSH1 0x1 PUSH1 0xA0 SHL SUB DUP4 AND PUSH2 0xF90 JUMPI PUSH1 0x40 MLOAD PUSH3 0x461BCD PUSH1 0xE5 SHL DUP2 MSTORE PUSH1 0x4 ADD DUP1 DUP1 PUSH1 0x20 ADD DUP3 DUP2 SUB DUP3 MSTORE PUSH1 0x24 DUP2 MSTORE PUSH1 0x20 ADD DUP1 PUSH2 0x19BB PUSH1 0x24 SWAP2 CODECOPY PUSH1 0x40 ADD SWAP2 POP POP PUSH1 0x40 MLOAD DUP1 SWAP2 SUB SWAP1 REVERT JUMPDEST PUSH1 0x1 PUSH1 0x1 PUSH1 0xA0 SHL SUB DUP3 AND PUSH2 0xFD5 JUMPI PUSH1 0x40 MLOAD PUSH3 0x461BCD PUSH1 0xE5 SHL DUP2 MSTORE PUSH1 0x4 ADD DUP1 DUP1 PUSH1 0x20 ADD DUP3 DUP2 SUB DUP3 MSTORE PUSH1 0x22 DUP2 MSTORE PUSH1 0x20 ADD DUP1 PUSH2 0x1814 PUSH1 0x22 SWAP2 CODECOPY PUSH1 0x40 ADD SWAP2 POP POP PUSH1 0x40 MLOAD DUP1 SWAP2 SUB SWAP1 REVERT JUMPDEST PUSH1 0x1 PUSH1 0x1 PUSH1 0xA0 SHL SUB DUP1 DUP5 AND PUSH1 0x0 DUP2 DUP2 MSTORE PUSH1 0x4 PUSH1 0x20 SWAP1 DUP2 MSTORE PUSH1 0x40 DUP1 DUP4 KECCAK256 SWAP5 DUP8 AND DUP1 DUP5 MSTORE SWAP5 DUP3 MSTORE SWAP2 DUP3 SWAP1 KECCAK256 DUP6 SWAP1 SSTORE DUP2 MLOAD DUP6 DUP2 MSTORE SWAP2 MLOAD PUSH32 0x8C5BE1E5EBEC7D5BD14F71427D1E84F3DD0314C0F7B2291E5B200AC8C7C3B925 SWAP3 DUP2 SWAP1 SUB SWAP1 SWAP2 ADD SWAP1 LOG3 POP POP POP JUMP JUMPDEST PUSH1 0x1 PUSH1 0x1 PUSH1 0xA0 SHL SUB DUP4 AND PUSH2 0x107C JUMPI PUSH1 0x40 MLOAD PUSH3 0x461BCD PUSH1 0xE5 SHL DUP2 MSTORE PUSH1 0x4 ADD DUP1 DUP1 PUSH1 0x20 ADD DUP3 DUP2 SUB DUP3 MSTORE PUSH1 0x25 DUP2 MSTORE PUSH1 0x20 ADD DUP1 PUSH2 0x18ED PUSH1 0x25 SWAP2 CODECOPY PUSH1 0x40 ADD SWAP2 POP POP PUSH1 0x40 MLOAD DUP1 SWAP2 SUB SWAP1 REVERT JUMPDEST PUSH1 0x1 PUSH1 0x1 PUSH1 0xA0 SHL SUB DUP3 AND PUSH2 0x10C1 JUMPI PUSH1 0x40 MLOAD PUSH3 0x461BCD PUSH1 0xE5 SHL DUP2 MSTORE PUSH1 0x4 ADD DUP1 DUP1 PUSH1 0x20 ADD DUP3 DUP2 SUB DUP3 MSTORE PUSH1 0x23 DUP2 MSTORE PUSH1 0x20 ADD DUP1 PUSH2 0x1912 PUSH1 0x23 SWAP2 CODECOPY PUSH1 0x40 ADD SWAP2 POP POP PUSH1 0x40 MLOAD DUP1 SWAP2 SUB SWAP1 REVERT JUMPDEST PUSH2 0x2710 PUSH1 0x2 SLOAD GT ISZERO PUSH2 0x111A JUMPI PUSH1 0x40 DUP1 MLOAD PUSH3 0x461BCD PUSH1 0xE5 SHL DUP2 MSTORE PUSH1 0x20 PUSH1 0x4 DUP3 ADD MSTORE PUSH1 0x18 PUSH1 0x24 DUP3 ADD MSTORE PUSH32 0x626173696320706F696E206D757374203C3D2031303030300000000000000000 PUSH1 0x44 DUP3 ADD MSTORE SWAP1 MLOAD SWAP1 DUP2 SWAP1 SUB PUSH1 0x64 ADD SWAP1 REVERT JUMPDEST PUSH2 0x115D DUP2 PUSH1 0x40 MLOAD DUP1 PUSH1 0x60 ADD PUSH1 0x40 MSTORE DUP1 PUSH1 0x26 DUP2 MSTORE PUSH1 0x20 ADD PUSH2 0x18C7 PUSH1 0x26 SWAP2 CODECOPY PUSH1 0x1 PUSH1 0x1 PUSH1 0xA0 SHL SUB DUP7 AND PUSH1 0x0 SWAP1 DUP2 MSTORE PUSH1 0x1 PUSH1 0x20 MSTORE PUSH1 0x40 SWAP1 KECCAK256 SLOAD SWAP2 SWAP1 PUSH4 0xFFFFFFFF PUSH2 0x12BC AND JUMP JUMPDEST PUSH1 0x1 PUSH1 0x1 PUSH1 0xA0 SHL SUB DUP5 AND PUSH1 0x0 SWAP1 DUP2 MSTORE PUSH1 0x1 PUSH1 0x20 MSTORE PUSH1 0x40 DUP2 KECCAK256 SWAP2 SWAP1 SWAP2 SSTORE PUSH1 0x2 SLOAD PUSH2 0x11A1 SWAP1 PUSH2 0x2710 SWAP1 PUSH2 0x1195 SWAP1 DUP6 SWAP1 PUSH4 0xFFFFFFFF PUSH2 0x16D1 AND JUMP JUMPDEST SWAP1 PUSH4 0xFFFFFFFF PUSH2 0x172A AND JUMP JUMPDEST SWAP1 POP DUP2 DUP2 GT ISZERO PUSH2 0x11ED JUMPI PUSH1 0x40 DUP1 MLOAD PUSH3 0x461BCD PUSH1 0xE5 SHL DUP2 MSTORE PUSH1 0x20 PUSH1 0x4 DUP3 ADD MSTORE PUSH1 0x12 PUSH1 0x24 DUP3 ADD MSTORE PUSH18 0x199959481B5D5CDD080F0F48185B5BDD5B9D PUSH1 0x72 SHL PUSH1 0x44 DUP3 ADD MSTORE SWAP1 MLOAD SWAP1 DUP2 SWAP1 SUB PUSH1 0x64 ADD SWAP1 REVERT JUMPDEST PUSH1 0x1 PUSH1 0x1 PUSH1 0xA0 SHL SUB DUP4 AND PUSH1 0x0 SWAP1 DUP2 MSTORE PUSH1 0x1 PUSH1 0x20 MSTORE PUSH1 0x40 SWAP1 KECCAK256 SLOAD PUSH2 0x1218 SWAP1 DUP3 DUP5 SUB PUSH4 0xFFFFFFFF PUSH2 0x1353 AND JUMP JUMPDEST PUSH1 0x1 PUSH1 0x1 PUSH1 0xA0 SHL SUB DUP5 AND PUSH1 0x0 SWAP1 DUP2 MSTORE PUSH1 0x1 PUSH1 0x20 MSTORE PUSH1 0x40 SWAP1 KECCAK256 SSTORE DUP1 ISZERO PUSH2 0x127D JUMPI PUSH1 0x5 SLOAD PUSH2 0x124A SWAP1 DUP3 PUSH4 0xFFFFFFFF PUSH2 0x176C AND JUMP JUMPDEST PUSH1 0x5 SSTORE PUSH1 0x40 DUP1 MLOAD DUP3 DUP2 MSTORE SWAP1 MLOAD PUSH1 0x0 SWAP2 PUSH1 0x1 PUSH1 0x1 PUSH1 0xA0 SHL SUB DUP8 AND SWAP2 PUSH1 0x0 DUP1 MLOAD PUSH1 0x20 PUSH2 0x199B DUP4 CODECOPY DUP2 MLOAD SWAP2 MSTORE SWAP2 DUP2 SWAP1 SUB PUSH1 0x20 ADD SWAP1 LOG3 JUMPDEST DUP3 PUSH1 0x1 PUSH1 0x1 PUSH1 0xA0 SHL SUB AND DUP5 PUSH1 0x1 PUSH1 0x1 PUSH1 0xA0 SHL SUB AND PUSH1 0x0 DUP1 MLOAD PUSH1 0x20 PUSH2 0x199B DUP4 CODECOPY DUP2 MLOAD SWAP2 MSTORE DUP5 PUSH1 0x40 MLOAD DUP1 DUP3 DUP2 MSTORE PUSH1 0x20 ADD SWAP2 POP POP PUSH1 0x40 MLOAD DUP1 SWAP2 SUB SWAP1 LOG3 POP POP POP POP JUMP JUMPDEST PUSH1 0x0 DUP2 DUP5 DUP5 GT ISZERO PUSH2 0x134B JUMPI PUSH1 0x40 MLOAD PUSH3 0x461BCD PUSH1 0xE5 SHL DUP2 MSTORE PUSH1 0x4 ADD DUP1 DUP1 PUSH1 0x20 ADD DUP3 DUP2 SUB DUP3 MSTORE DUP4 DUP2 DUP2 MLOAD DUP2 MSTORE PUSH1 0x20 ADD SWAP2 POP DUP1 MLOAD SWAP1 PUSH1 0x20 ADD SWAP1 DUP1 DUP4 DUP4 PUSH1 0x0 JUMPDEST DUP4 DUP2 LT ISZERO PUSH2 0x1310 JUMPI DUP2 DUP2 ADD MLOAD DUP4 DUP3 ADD MSTORE PUSH1 0x20 ADD PUSH2 0x12F8 JUMP JUMPDEST POP POP POP POP SWAP1 POP SWAP1 DUP2 ADD SWAP1 PUSH1 0x1F AND DUP1 ISZERO PUSH2 0x133D JUMPI DUP1 DUP3 SUB DUP1 MLOAD PUSH1 0x1 DUP4 PUSH1 0x20 SUB PUSH2 0x100 EXP SUB NOT AND DUP2 MSTORE PUSH1 0x20 ADD SWAP2 POP JUMPDEST POP SWAP3 POP POP POP PUSH1 0x40 MLOAD DUP1 SWAP2 SUB SWAP1 REVERT JUMPDEST POP POP POP SWAP1 SUB SWAP1 JUMP JUMPDEST PUSH1 0x0 DUP3 DUP3 ADD DUP4 DUP2 LT ISZERO PUSH2 0x13AD JUMPI PUSH1 0x40 DUP1 MLOAD PUSH3 0x461BCD PUSH1 0xE5 SHL DUP2 MSTORE PUSH1 0x20 PUSH1 0x4 DUP3 ADD MSTORE PUSH1 0x1B PUSH1 0x24 DUP3 ADD MSTORE PUSH32 0x536166654D6174683A206164646974696F6E206F766572666C6F770000000000 PUSH1 0x44 DUP3 ADD MSTORE SWAP1 MLOAD SWAP1 DUP2 SWAP1 SUB PUSH1 0x64 ADD SWAP1 REVERT JUMPDEST SWAP4 SWAP3 POP POP POP JUMP JUMPDEST PUSH1 0x1 PUSH1 0x1 PUSH1 0xA0 SHL SUB DUP3 AND PUSH2 0x13F9 JUMPI PUSH1 0x40 MLOAD PUSH3 0x461BCD PUSH1 0xE5 SHL DUP2 MSTORE PUSH1 0x4 ADD DUP1 DUP1 PUSH1 0x20 ADD DUP3 DUP2 SUB DUP3 MSTORE PUSH1 0x21 DUP2 MSTORE PUSH1 0x20 ADD DUP1 PUSH2 0x18A6 PUSH1 0x21 SWAP2 CODECOPY PUSH1 0x40 ADD SWAP2 POP POP PUSH1 0x40 MLOAD DUP1 SWAP2 SUB SWAP1 REVERT JUMPDEST PUSH1 0x9 SLOAD PUSH1 0x1 PUSH1 0xA0 SHL SWAP1 DIV PUSH1 0xFF AND ISZERO PUSH2 0x1482 JUMPI PUSH2 0x144E DUP2 PUSH1 0x40 MLOAD DUP1 PUSH1 0x60 ADD PUSH1 0x40 MSTORE DUP1 PUSH1 0x22 DUP2 MSTORE PUSH1 0x20 ADD PUSH2 0x1884 PUSH1 0x22 SWAP2 CODECOPY PUSH1 0x1 PUSH1 0x1 PUSH1 0xA0 SHL SUB DUP6 AND PUSH1 0x0 SWAP1 DUP2 MSTORE PUSH1 0x1 PUSH1 0x20 MSTORE PUSH1 0x40 SWAP1 KECCAK256 SLOAD SWAP2 SWAP1 PUSH4 0xFFFFFFFF PUSH2 0x12BC AND JUMP JUMPDEST PUSH1 0x1 PUSH1 0x1 PUSH1 0xA0 SHL SUB DUP4 AND PUSH1 0x0 SWAP1 DUP2 MSTORE PUSH1 0x1 PUSH1 0x20 MSTORE PUSH1 0x40 SWAP1 KECCAK256 SSTORE PUSH1 0x5 SLOAD PUSH2 0x147A SWAP1 DUP3 PUSH4 0xFFFFFFFF PUSH2 0x176C AND JUMP JUMPDEST PUSH1 0x5 SSTORE PUSH2 0x1519 JUMP JUMPDEST PUSH2 0x14C5 DUP2 PUSH1 0x40 MLOAD DUP1 PUSH1 0x60 ADD PUSH1 0x40 MSTORE DUP1 PUSH1 0x22 DUP2 MSTORE PUSH1 0x20 ADD PUSH2 0x1884 PUSH1 0x22 SWAP2 CODECOPY PUSH1 0x1 PUSH1 0x1 PUSH1 0xA0 SHL SUB DUP6 AND PUSH1 0x0 SWAP1 DUP2 MSTORE PUSH1 0x1 PUSH1 0x20 MSTORE PUSH1 0x40 SWAP1 KECCAK256 SLOAD SWAP2 SWAP1 PUSH4 0xFFFFFFFF PUSH2 0x12BC AND JUMP JUMPDEST PUSH1 0x1 PUSH1 0x1 PUSH1 0xA0 SHL SUB DUP1 DUP5 AND PUSH1 0x0 SWAP1 DUP2 MSTORE PUSH1 0x1 PUSH1 0x20 MSTORE PUSH1 0x40 DUP1 DUP3 KECCAK256 SWAP4 SWAP1 SWAP4 SSTORE PUSH1 0x9 SLOAD SWAP1 SWAP2 AND DUP2 MSTORE KECCAK256 SLOAD PUSH2 0x14FD SWAP1 DUP3 PUSH4 0xFFFFFFFF PUSH2 0x1353 AND JUMP JUMPDEST PUSH1 0x9 SLOAD PUSH1 0x1 PUSH1 0x1 PUSH1 0xA0 SHL SUB AND PUSH1 0x0 SWAP1 DUP2 MSTORE PUSH1 0x1 PUSH1 0x20 MSTORE PUSH1 0x40 SWAP1 KECCAK256 SSTORE JUMPDEST PUSH1 0x9 SLOAD PUSH1 0x40 DUP1 MLOAD DUP4 DUP2 MSTORE SWAP1 MLOAD PUSH1 0x1 PUSH1 0x1 PUSH1 0xA0 SHL SUB SWAP3 DUP4 AND SWAP3 DUP6 AND SWAP2 PUSH1 0x0 DUP1 MLOAD PUSH1 0x20 PUSH2 0x199B DUP4 CODECOPY DUP2 MLOAD SWAP2 MSTORE SWAP2 SWAP1 DUP2 SWAP1 SUB PUSH1 0x20 ADD SWAP1 LOG3 POP POP JUMP JUMPDEST PUSH1 0x1 PUSH1 0x1 PUSH1 0xA0 SHL SUB DUP3 AND PUSH2 0x15AC JUMPI PUSH1 0x40 DUP1 MLOAD PUSH3 0x461BCD PUSH1 0xE5 SHL DUP2 MSTORE PUSH1 0x20 PUSH1 0x4 DUP3 ADD MSTORE PUSH1 0x1F PUSH1 0x24 DUP3 ADD MSTORE PUSH32 0x41524332303A206D696E7420746F20746865207A65726F206164647265737300 PUSH1 0x44 DUP3 ADD MSTORE SWAP1 MLOAD SWAP1 DUP2 SWAP1 SUB PUSH1 0x64 ADD SWAP1 REVERT JUMPDEST PUSH1 0x5 SLOAD PUSH2 0x15BF SWAP1 DUP3 PUSH4 0xFFFFFFFF PUSH2 0x1353 AND JUMP JUMPDEST PUSH1 0x5 SSTORE PUSH1 0x1 PUSH1 0x1 PUSH1 0xA0 SHL SUB DUP3 AND PUSH1 0x0 SWAP1 DUP2 MSTORE PUSH1 0x1 PUSH1 0x20 MSTORE PUSH1 0x40 SWAP1 KECCAK256 SLOAD PUSH2 0x15EB SWAP1 DUP3 PUSH4 0xFFFFFFFF PUSH2 0x1353 AND JUMP JUMPDEST PUSH1 0x1 PUSH1 0x1 PUSH1 0xA0 SHL SUB DUP4 AND PUSH1 0x0 DUP2 DUP2 MSTORE PUSH1 0x1 PUSH1 0x20 SWAP1 DUP2 MSTORE PUSH1 0x40 DUP1 DUP4 KECCAK256 SWAP5 SWAP1 SWAP5 SSTORE DUP4 MLOAD DUP6 DUP2 MSTORE SWAP4 MLOAD SWAP3 SWAP4 SWAP2 SWAP3 PUSH1 0x0 DUP1 MLOAD PUSH1 0x20 PUSH2 0x199B DUP4 CODECOPY DUP2 MLOAD SWAP2 MSTORE SWAP3 DUP2 SWAP1 SUB SWAP1 SWAP2 ADD SWAP1 LOG3 POP POP JUMP JUMPDEST PUSH1 0x1 PUSH1 0x1 PUSH1 0xA0 SHL SUB DUP2 AND PUSH2 0x1676 JUMPI PUSH1 0x40 MLOAD PUSH3 0x461BCD PUSH1 0xE5 SHL DUP2 MSTORE PUSH1 0x4 ADD DUP1 DUP1 PUSH1 0x20 ADD DUP3 DUP2 SUB DUP3 MSTORE PUSH1 0x26 DUP2 MSTORE PUSH1 0x20 ADD DUP1 PUSH2 0x185E PUSH1 0x26 SWAP2 CODECOPY PUSH1 0x40 ADD SWAP2 POP POP PUSH1 0x40 MLOAD DUP1 SWAP2 SUB SWAP1 REVERT JUMPDEST PUSH1 0x0 DUP1 SLOAD PUSH1 0x40 MLOAD PUSH1 0x1 PUSH1 0x1 PUSH1 0xA0 SHL SUB DUP1 DUP6 AND SWAP4 SWAP3 AND SWAP2 PUSH32 0x8BE0079C531659141344CD1FD0A4F28419497F9722A3DAAFE3B4186F6B6457E0 SWAP2 LOG3 PUSH1 0x0 DUP1 SLOAD PUSH1 0x1 PUSH1 0x1 PUSH1 0xA0 SHL SUB NOT AND PUSH1 0x1 PUSH1 0x1 PUSH1 0xA0 SHL SUB SWAP3 SWAP1 SWAP3 AND SWAP2 SWAP1 SWAP2 OR SWAP1 SSTORE JUMP JUMPDEST PUSH1 0x0 DUP3 PUSH2 0x16E0 JUMPI POP PUSH1 0x0 PUSH2 0x62F JUMP JUMPDEST DUP3 DUP3 MUL DUP3 DUP5 DUP3 DUP2 PUSH2 0x16ED JUMPI INVALID JUMPDEST DIV EQ PUSH2 0x13AD JUMPI PUSH1 0x40 MLOAD PUSH3 0x461BCD PUSH1 0xE5 SHL DUP2 MSTORE PUSH1 0x4 ADD DUP1 DUP1 PUSH1 0x20 ADD DUP3 DUP2 SUB DUP3 MSTORE PUSH1 0x21 DUP2 MSTORE PUSH1 0x20 ADD DUP1 PUSH2 0x1935 PUSH1 0x21 SWAP2 CODECOPY PUSH1 0x40 ADD SWAP2 POP POP PUSH1 0x40 MLOAD DUP1 SWAP2 SUB SWAP1 REVERT JUMPDEST PUSH1 0x0 PUSH2 0x13AD DUP4 DUP4 PUSH1 0x40 MLOAD DUP1 PUSH1 0x40 ADD PUSH1 0x40 MSTORE DUP1 PUSH1 0x1A DUP2 MSTORE PUSH1 0x20 ADD PUSH32 0x536166654D6174683A206469766973696F6E206279207A65726F000000000000 DUP2 MSTORE POP PUSH2 0x17AE JUMP JUMPDEST PUSH1 0x0 PUSH2 0x13AD DUP4 DUP4 PUSH1 0x40 MLOAD DUP1 PUSH1 0x40 ADD PUSH1 0x40 MSTORE DUP1 PUSH1 0x1E DUP2 MSTORE PUSH1 0x20 ADD PUSH32 0x536166654D6174683A207375627472616374696F6E206F766572666C6F770000 DUP2 MSTORE POP PUSH2 0x12BC JUMP JUMPDEST PUSH1 0x0 DUP2 DUP4 PUSH2 0x17FD JUMPI PUSH1 0x40 MLOAD PUSH3 0x461BCD PUSH1 0xE5 SHL DUP2 MSTORE PUSH1 0x20 PUSH1 0x4 DUP3 ADD DUP2 DUP2 MSTORE DUP4 MLOAD PUSH1 0x24 DUP5 ADD MSTORE DUP4 MLOAD SWAP1 SWAP3 DUP4 SWAP3 PUSH1 0x44 SWAP1 SWAP2 ADD SWAP2 SWAP1 DUP6 ADD SWAP1 DUP1 DUP4 DUP4 PUSH1 0x0 DUP4 ISZERO PUSH2 0x1310 JUMPI DUP2 DUP2 ADD MLOAD DUP4 DUP3 ADD MSTORE PUSH1 0x20 ADD PUSH2 0x12F8 JUMP JUMPDEST POP PUSH1 0x0 DUP4 DUP6 DUP2 PUSH2 0x1809 JUMPI INVALID JUMPDEST DIV SWAP6 SWAP5 POP POP POP POP POP JUMP INVALID COINBASE MSTORE NUMBER ORIGIN ADDRESS GASPRICE KECCAK256 PUSH2 0x7070 PUSH19 0x6F766520746F20746865207A65726F20616464 PUSH19 0x65737341524332303A207472616E7366657220 PUSH2 0x6D6F PUSH22 0x6E74206578636565647320616C6C6F77616E63654F77 PUSH15 0x61626C653A206E6577206F776E6572 KECCAK256 PUSH10 0x7320746865207A65726F KECCAK256 PUSH2 0x6464 PUSH19 0x65737341524332303A206275726E20616D6F75 PUSH15 0x7420657863656564732062616C616E PUSH4 0x65415243 ORIGIN ADDRESS GASPRICE KECCAK256 PUSH3 0x75726E KECCAK256 PUSH7 0x726F6D20746865 KECCAK256 PUSH27 0x65726F206164647265737341524332303A207472616E7366657220 PUSH2 0x6D6F PUSH22 0x6E7420657863656564732062616C616E636541524332 ADDRESS GASPRICE KECCAK256 PUSH21 0x72616E736665722066726F6D20746865207A65726F KECCAK256 PUSH2 0x6464 PUSH19 0x65737341524332303A207472616E7366657220 PUSH21 0x6F20746865207A65726F2061646472657373536166 PUSH6 0x4D6174683A20 PUSH14 0x756C7469706C69636174696F6E20 PUSH16 0x766572666C6F7741524332303A206465 PUSH4 0x72656173 PUSH6 0x6420616C6C6F PUSH24 0x616E63652062656C6F77207A65726F4F776E61626C653A20 PUSH4 0x616C6C65 PUSH19 0x206973206E6F7420746865206F776E6572DDF2 MSTORE 0xAD SHL 0xE2 0xC8 SWAP12 PUSH10 0xC2B068FC378DAA952BA7 CALL PUSH4 0xC4A11628 CREATE2 GAS 0x4D CREATE2 0x23 0xB3 0xEF COINBASE MSTORE NUMBER ORIGIN ADDRESS GASPRICE KECCAK256 PUSH2 0x7070 PUSH19 0x6F76652066726F6D20746865207A65726F2061 PUSH5 0x6472657373 LOG2 PUSH6 0x627A7A723158 KECCAK256 SWAP16 CALLDATALOAD 0xAF STATICCALL PUSH31 0x82A8AFCB4B0637243DB234C659C7965350BDCC2A7EEE46685DDD3164736F6C PUSH4 0x43000510 STOP ORIGIN "
				},
				"gasEstimates": {
					"creation": {
						"codeDepositCost": "1335000",
						"executionCost": "infinite",
						"totalCost": "infinite"
					},
					"external": {
						"_burnAccount()": "1083",
						"_decimals()": "1081",
						"_name()": "infinite",
						"_symbol()": "infinite",
						"addWhiteList(address)": "infinite",
						"allowance(address,address)": "1361",
						"approve(address,uint256)": "infinite",
						"balanceOf(address)": "1188",
						"basisPointsRate()": "1042",
						"burn(uint256)": "infinite",
						"decimals()": "1125",
						"decreaseAllowance(address,uint256)": "infinite",
						"getOwner()": "1162",
						"increaseAllowance(address,uint256)": "infinite",
						"isWhiteListed(address)": "1247",
						"limitTransfer()": "1100",
						"mint(uint256)": "infinite",
						"name()": "infinite",
						"owner()": "1082",
						"removeWhiteList(address)": "infinite",
						"renounceOwnership()": "infinite",
						"resetLimiteTransfer(bool)": "infinite",
						"setBasisPointsRate(uint256)": "infinite",
						"setBurnAcount(address,bool)": "infinite",
						"symbol()": "infinite",
						"totalSupply()": "1089",
						"transfer(address,uint256)": "infinite",
						"transferFrom(address,address,uint256)": "infinite",
						"transferOwnership(address)": "infinite"
					},
					"internal": {
						"_approve(address,address,uint256)": "infinite",
						"_burn(address,uint256)": "infinite",
						"_burnFrom(address,uint256)": "infinite",
						"_mint(address,uint256)": "infinite",
						"_transfer(address,address,uint256)": "infinite"
					}
				},
				"methodIdentifiers": {
					"_burnAccount()": "3224d395",
					"_decimals()": "32424aa3",
					"_name()": "d28d8852",
					"_symbol()": "b09f1266",
					"addWhiteList(address)": "e7cd4a04",
					"allowance(address,address)": "dd62ed3e",
					"approve(address,uint256)": "095ea7b3",
					"balanceOf(address)": "70a08231",
					"basisPointsRate()": "dd644f72",
					"burn(uint256)": "42966c68",
					"decimals()": "313ce567",
					"decreaseAllowance(address,uint256)": "a457c2d7",
					"getOwner()": "893d20e8",
					"increaseAllowance(address,uint256)": "39509351",
					"isWhiteListed(address)": "6f9170f6",
					"limitTransfer()": "278d9637",
					"mint(uint256)": "a0712d68",
					"name()": "06fdde03",
					"owner()": "8da5cb5b",
					"removeWhiteList(address)": "2042e5c2",
					"renounceOwnership()": "715018a6",
					"resetLimiteTransfer(bool)": "ea924f06",
					"setBasisPointsRate(uint256)": "5fdf2be0",
					"setBurnAcount(address,bool)": "3478591a",
					"symbol()": "95d89b41",
					"totalSupply()": "18160ddd",
					"transfer(address,uint256)": "a9059cbb",
					"transferFrom(address,address,uint256)": "23b872dd",
					"transferOwnership(address)": "f2fde38b"
				}
			},
			"storageLayout": {
				"storage": [
					{
						"astId": 302,
						"contract": "ex/yoho.sol:ARC20USDT",
						"label": "_owner",
						"offset": 0,
						"slot": "0",
						"type": "t_address"
					},
					{
						"astId": 417,
						"contract": "ex/yoho.sol:ARC20USDT",
						"label": "_balances",
						"offset": 0,
						"slot": "1",
						"type": "t_mapping(t_address,t_uint256)"
					},
					{
						"astId": 420,
						"contract": "ex/yoho.sol:ARC20USDT",
						"label": "basisPointsRate",
						"offset": 0,
						"slot": "2",
						"type": "t_uint256"
					},
					{
						"astId": 423,
						"contract": "ex/yoho.sol:ARC20USDT",
						"label": "limitTransfer",
						"offset": 0,
						"slot": "3",
						"type": "t_bool"
					},
					{
						"astId": 429,
						"contract": "ex/yoho.sol:ARC20USDT",
						"label": "_allowances",
						"offset": 0,
						"slot": "4",
						"type": "t_mapping(t_address,t_mapping(t_address,t_uint256))"
					},
					{
						"astId": 431,
						"contract": "ex/yoho.sol:ARC20USDT",
						"label": "_totalSupply",
						"offset": 0,
						"slot": "5",
						"type": "t_uint256"
					},
					{
						"astId": 433,
						"contract": "ex/yoho.sol:ARC20USDT",
						"label": "_decimals",
						"offset": 0,
						"slot": "6",
						"type": "t_uint8"
					},
					{
						"astId": 435,
						"contract": "ex/yoho.sol:ARC20USDT",
						"label": "_symbol",
						"offset": 0,
						"slot": "7",
						"type": "t_string_storage"
					},
					{
						"astId": 437,
						"contract": "ex/yoho.sol:ARC20USDT",
						"label": "_name",
						"offset": 0,
						"slot": "8",
						"type": "t_string_storage"
					},
					{
						"astId": 439,
						"contract": "ex/yoho.sol:ARC20USDT",
						"label": "_burnAccount",
						"offset": 0,
						"slot": "9",
						"type": "t_address"
					},
					{
						"astId": 441,
						"contract": "ex/yoho.sol:ARC20USDT",
						"label": "_isBurnTotal",
						"offset": 20,
						"slot": "9",
						"type": "t_bool"
					},
					{
						"astId": 509,
						"contract": "ex/yoho.sol:ARC20USDT",
						"label": "isWhiteListed",
						"offset": 0,
						"slot": "10",
						"type": "t_mapping(t_address,t_bool)"
					}
				],
				"types": {
					"t_address": {
						"encoding": "inplace",
						"label": "address",
						"numberOfBytes": "20"
					},
					"t_bool": {
						"encoding": "inplace",
						"label": "bool",
						"numberOfBytes": "1"
					},
					"t_mapping(t_address,t_bool)": {
						"encoding": "mapping",
						"key": "t_address",
						"label": "mapping(address => bool)",
						"numberOfBytes": "32",
						"value": "t_bool"
					},
					"t_mapping(t_address,t_mapping(t_address,t_uint256))": {
						"encoding": "mapping",
						"key": "t_address",
						"label": "mapping(address => mapping(address => uint256))",
						"numberOfBytes": "32",
						"value": "t_mapping(t_address,t_uint256)"
					},
					"t_mapping(t_address,t_uint256)": {
						"encoding": "mapping",
						"key": "t_address",
						"label": "mapping(address => uint256)",
						"numberOfBytes": "32",
						"value": "t_uint256"
					},
					"t_string_storage": {
						"encoding": "bytes",
						"label": "string",
						"numberOfBytes": "32"
					},
					"t_uint256": {
						"encoding": "inplace",
						"label": "uint256",
						"numberOfBytes": "32"
					},
					"t_uint8": {
						"encoding": "inplace",
						"label": "uint8",
						"numberOfBytes": "1"
					}
				}
			},
			"userdoc": {
				"methods": {}
			}
		}
	}
}