{
	"ex/exchangeUsdtToken.sol": {
		"SugarBaby": {
			"abi": [
				{
					"inputs": [],
					"stateMutability": "nonpayable",
					"type": "constructor"
				},
				{
					"anonymous": false,
					"inputs": [
						{
							"indexed": true,
							"internalType": "address",
							"name": "owner",
							"type": "address"
						},
						{
							"indexed": true,
							"internalType": "address",
							"name": "spender",
							"type": "address"
						},
						{
							"indexed": false,
							"internalType": "uint256",
							"name": "value",
							"type": "uint256"
						}
					],
					"name": "Approval",
					"type": "event"
				},
				{
					"anonymous": false,
					"inputs": [
						{
							"indexed": true,
							"internalType": "address",
							"name": "previousOwner",
							"type": "address"
						},
						{
							"indexed": true,
							"internalType": "address",
							"name": "newOwner",
							"type": "address"
						}
					],
					"name": "OwnershipTransferred",
					"type": "event"
				},
				{
					"anonymous": false,
					"inputs": [
						{
							"indexed": false,
							"internalType": "bool",
							"name": "enabled",
							"type": "bool"
						}
					],
					"name": "SwapAndLiquifyEnabledUpdated",
					"type": "event"
				},
				{
					"anonymous": false,
					"inputs": [
						{
							"indexed": true,
							"internalType": "address",
							"name": "from",
							"type": "address"
						},
						{
							"indexed": true,
							"internalType": "address",
							"name": "to",
							"type": "address"
						},
						{
							"indexed": false,
							"internalType": "uint256",
							"name": "value",
							"type": "uint256"
						}
					],
					"name": "Transfer",
					"type": "event"
				},
				{
					"inputs": [
						{
							"internalType": "address",
							"name": "",
							"type": "address"
						}
					],
					"name": "DEXs",
					"outputs": [
						{
							"internalType": "bool",
							"name": "",
							"type": "bool"
						}
					],
					"stateMutability": "view",
					"type": "function"
				},
				{
					"inputs": [
						{
							"internalType": "address",
							"name": "_pair",
							"type": "address"
						}
					],
					"name": "addDex",
					"outputs": [],
					"stateMutability": "nonpayable",
					"type": "function"
				},
				{
					"inputs": [
						{
							"internalType": "address",
							"name": "owner",
							"type": "address"
						},
						{
							"internalType": "address",
							"name": "spender",
							"type": "address"
						}
					],
					"name": "allowance",
					"outputs": [
						{
							"internalType": "uint256",
							"name": "",
							"type": "uint256"
						}
					],
					"stateMutability": "view",
					"type": "function"
				},
				{
					"inputs": [
						{
							"internalType": "address",
							"name": "spender",
							"type": "address"
						},
						{
							"internalType": "uint256",
							"name": "amount",
							"type": "uint256"
						}
					],
					"name": "approve",
					"outputs": [
						{
							"internalType": "bool",
							"name": "",
							"type": "bool"
						}
					],
					"stateMutability": "nonpayable",
					"type": "function"
				},
				{
					"inputs": [
						{
							"internalType": "address",
							"name": "account",
							"type": "address"
						}
					],
					"name": "balanceOf",
					"outputs": [
						{
							"internalType": "uint256",
							"name": "",
							"type": "uint256"
						}
					],
					"stateMutability": "view",
					"type": "function"
				},
				{
					"inputs": [
						{
							"internalType": "uint256",
							"name": "amount",
							"type": "uint256"
						}
					],
					"name": "burn",
					"outputs": [],
					"stateMutability": "nonpayable",
					"type": "function"
				},
				{
					"inputs": [],
					"name": "decimals",
					"outputs": [
						{
							"internalType": "uint8",
							"name": "",
							"type": "uint8"
						}
					],
					"stateMutability": "view",
					"type": "function"
				},
				{
					"inputs": [
						{
							"internalType": "address",
							"name": "spender",
							"type": "address"
						},
						{
							"internalType": "uint256",
							"name": "subtractedValue",
							"type": "uint256"
						}
					],
					"name": "decreaseAllowance",
					"outputs": [
						{
							"internalType": "bool",
							"name": "",
							"type": "bool"
						}
					],
					"stateMutability": "nonpayable",
					"type": "function"
				},
				{
					"inputs": [],
					"name": "emergencyWithdraw",
					"outputs": [],
					"stateMutability": "nonpayable",
					"type": "function"
				},
				{
					"inputs": [
						{
							"internalType": "address",
							"name": "spender",
							"type": "address"
						},
						{
							"internalType": "uint256",
							"name": "addedValue",
							"type": "uint256"
						}
					],
					"name": "increaseAllowance",
					"outputs": [
						{
							"internalType": "bool",
							"name": "",
							"type": "bool"
						}
					],
					"stateMutability": "nonpayable",
					"type": "function"
				},
				{
					"inputs": [
						{
							"internalType": "address",
							"name": "",
							"type": "address"
						}
					],
					"name": "isPair",
					"outputs": [
						{
							"internalType": "bool",
							"name": "",
							"type": "bool"
						}
					],
					"stateMutability": "view",
					"type": "function"
				},
				{
					"inputs": [],
					"name": "marketAddress",
					"outputs": [
						{
							"internalType": "address",
							"name": "",
							"type": "address"
						}
					],
					"stateMutability": "view",
					"type": "function"
				},
				{
					"inputs": [],
					"name": "name",
					"outputs": [
						{
							"internalType": "string",
							"name": "",
							"type": "string"
						}
					],
					"stateMutability": "view",
					"type": "function"
				},
				{
					"inputs": [],
					"name": "owner",
					"outputs": [
						{
							"internalType": "address",
							"name": "",
							"type": "address"
						}
					],
					"stateMutability": "view",
					"type": "function"
				},
				{
					"inputs": [],
					"name": "renounceOwnership",
					"outputs": [],
					"stateMutability": "nonpayable",
					"type": "function"
				},
				{
					"inputs": [
						{
							"internalType": "address",
							"name": "to",
							"type": "address"
						}
					],
					"name": "setMarket",
					"outputs": [],
					"stateMutability": "nonpayable",
					"type": "function"
				},
				{
					"inputs": [
						{
							"internalType": "bool",
							"name": "_enabled",
							"type": "bool"
						}
					],
					"name": "setSwapAndLiquifyEnabled",
					"outputs": [],
					"stateMutability": "nonpayable",
					"type": "function"
				},
				{
					"inputs": [],
					"name": "swapAndLiquifyEnabled",
					"outputs": [
						{
							"internalType": "bool",
							"name": "",
							"type": "bool"
						}
					],
					"stateMutability": "view",
					"type": "function"
				},
				{
					"inputs": [],
					"name": "symbol",
					"outputs": [
						{
							"internalType": "string",
							"name": "",
							"type": "string"
						}
					],
					"stateMutability": "view",
					"type": "function"
				},
				{
					"inputs": [],
					"name": "totalSupply",
					"outputs": [
						{
							"internalType": "uint256",
							"name": "",
							"type": "uint256"
						}
					],
					"stateMutability": "view",
					"type": "function"
				},
				{
					"inputs": [
						{
							"internalType": "address",
							"name": "recipient",
							"type": "address"
						},
						{
							"internalType": "uint256",
							"name": "amount",
							"type": "uint256"
						}
					],
					"name": "transfer",
					"outputs": [
						{
							"internalType": "bool",
							"name": "",
							"type": "bool"
						}
					],
					"stateMutability": "nonpayable",
					"type": "function"
				},
				{
					"inputs": [
						{
							"internalType": "address",
							"name": "sender",
							"type": "address"
						},
						{
							"internalType": "address",
							"name": "recipient",
							"type": "address"
						},
						{
							"internalType": "uint256",
							"name": "amount",
							"type": "uint256"
						}
					],
					"name": "transferFrom",
					"outputs": [
						{
							"internalType": "bool",
							"name": "",
							"type": "bool"
						}
					],
					"stateMutability": "nonpayable",
					"type": "function"
				},
				{
					"inputs": [
						{
							"internalType": "address",
							"name": "newOwner",
							"type": "address"
						}
					],
					"name": "transferOwnership",
					"outputs": [],
					"stateMutability": "nonpayable",
					"type": "function"
				},
				{
					"inputs": [],
					"name": "uniswapV2Pair",
					"outputs": [
						{
							"internalType": "address",
							"name": "",
							"type": "address"
						}
					],
					"stateMutability": "view",
					"type": "function"
				},
				{
					"inputs": [],
					"name": "uniswapV2Router",
					"outputs": [
						{
							"internalType": "contract IPancakeSwapV2Router02",
							"name": "",
							"type": "address"
						}
					],
					"stateMutability": "view",
					"type": "function"
				},
				{
					"inputs": [],
					"name": "usdtAddress",
					"outputs": [
						{
							"internalType": "address",
							"name": "",
							"type": "address"
						}
					],
					"stateMutability": "view",
					"type": "function"
				},
				{
					"stateMutability": "payable",
					"type": "receive"
				}
			],
			"devdoc": {
				"kind": "dev",
				"methods": {
					"owner()": {
						"details": "Returns the address of the current owner."
					},
					"renounceOwnership()": {
						"details": "Leaves the contract without owner. It will not be possible to call `onlyOwner` functions anymore. Can only be called by the current owner. NOTE: Renouncing ownership will leave the contract without an owner, thereby removing any functionality that is only available to the owner."
					},
					"transferOwnership(address)": {
						"details": "Transfers ownership of the contract to a new account (`newOwner`). Can only be called by the current owner."
					}
				},
				"version": 1
			},
			"evm": {
				"assembly": "    /* \"ex/exchangeUsdtToken.sol\":14733:22332  contract SugarBaby is Context, IERC20, IERC20Metadata, Ownable{... */\n  mstore(0x40, 0xc0)\n    /* \"ex/exchangeUsdtToken.sol\":15108:15150  0xd3c0b6Aa1538d639912789be705F18b5Fd89fcE6 */\n  0xd3c0b6aa1538d639912789be705f18b5fd89fce6\n    /* \"ex/exchangeUsdtToken.sol\":15077:15150  address public marketAddress = 0xd3c0b6Aa1538d639912789be705F18b5Fd89fcE6 */\n  0x06\n  exp(0x0100, 0x00)\n  dup2\n  sload\n  dup2\n  0xffffffffffffffffffffffffffffffffffffffff\n  mul\n  not\n  and\n  swap1\n  dup4\n  0xffffffffffffffffffffffffffffffffffffffff\n  and\n  mul\n  or\n  swap1\n  sstore\n  pop\n    /* \"ex/exchangeUsdtToken.sol\":15293:15335  0x7ef95a0FEE0Dd31b22626fA2e10Ee6A223F8a684 */\n  0x7ef95a0fee0dd31b22626fa2e10ee6a223f8a684\n    /* \"ex/exchangeUsdtToken.sol\":15264:15335  address public usdtAddress = 0x7ef95a0FEE0Dd31b22626fA2e10Ee6A223F8a684 */\n  0x07\n  exp(0x0100, 0x00)\n  dup2\n  sload\n  dup2\n  0xffffffffffffffffffffffffffffffffffffffff\n  mul\n  not\n  and\n  swap1\n  dup4\n  0xffffffffffffffffffffffffffffffffffffffff\n  and\n  mul\n  or\n  swap1\n  sstore\n  pop\n    /* \"ex/exchangeUsdtToken.sol\":15681:16335  constructor () {... */\n  callvalue\n  dup1\n  iszero\n  tag_1\n  jumpi\n  0x00\n  dup1\n  revert\ntag_1:\n  pop\n    /* \"ex/exchangeUsdtToken.sol\":2941:2973  _transferOwnership(_msgSender()) */\n  tag_5\n    /* \"ex/exchangeUsdtToken.sol\":2960:2972  _msgSender() */\n  tag_6\n    /* \"ex/exchangeUsdtToken.sol\":2960:2970  _msgSender */\n  shl(0x20, tag_7)\n    /* \"ex/exchangeUsdtToken.sol\":2960:2972  _msgSender() */\n  0x20\n  shr\n  jump\t// in\ntag_6:\n    /* \"ex/exchangeUsdtToken.sol\":2941:2959  _transferOwnership */\n  shl(0x20, tag_8)\n    /* \"ex/exchangeUsdtToken.sol\":2941:2973  _transferOwnership(_msgSender()) */\n  0x20\n  shr\n  jump\t// in\ntag_5:\n    /* \"ex/exchangeUsdtToken.sol\":15707:15743  _mint(_msgSender(), 21000000 * 1e18) */\n  tag_10\n    /* \"ex/exchangeUsdtToken.sol\":15713:15725  _msgSender() */\n  tag_11\n    /* \"ex/exchangeUsdtToken.sol\":15713:15723  _msgSender */\n  shl(0x20, tag_7)\n    /* \"ex/exchangeUsdtToken.sol\":15713:15725  _msgSender() */\n  0x20\n  shr\n  jump\t// in\ntag_11:\n    /* \"ex/exchangeUsdtToken.sol\":15727:15742  21000000 * 1e18 */\n  0x115eec47f6cf7e35000000\n    /* \"ex/exchangeUsdtToken.sol\":15707:15712  _mint */\n  shl(0x20, tag_12)\n    /* \"ex/exchangeUsdtToken.sol\":15707:15743  _mint(_msgSender(), 21000000 * 1e18) */\n  0x20\n  shr\n  jump\t// in\ntag_10:\n    /* \"ex/exchangeUsdtToken.sol\":15957:15996  IPancakeSwapV2Router02 _uniswapV2Router */\n  0x00\n    /* \"ex/exchangeUsdtToken.sol\":16022:16064  0x9Ac64Cc6e4415144C455BD8E4837Fea55603e5c3 */\n  0x9ac64cc6e4415144c455bd8e4837fea55603e5c3\n    /* \"ex/exchangeUsdtToken.sol\":15957:16065  IPancakeSwapV2Router02 _uniswapV2Router = IPancakeSwapV2Router02(0x9Ac64Cc6e4415144C455BD8E4837Fea55603e5c3) */\n  swap1\n  pop\n    /* \"ex/exchangeUsdtToken.sol\":16114:16130  _uniswapV2Router */\n  dup1\n    /* \"ex/exchangeUsdtToken.sol\":16114:16138  _uniswapV2Router.factory */\n  0xffffffffffffffffffffffffffffffffffffffff\n  and\n  0xc45a0155\n    /* \"ex/exchangeUsdtToken.sol\":16114:16140  _uniswapV2Router.factory() */\n  mload(0x40)\n  dup2\n  0xffffffff\n  and\n  0xe0\n  shl\n  dup2\n  mstore\n  0x04\n  add\n  0x20\n  mload(0x40)\n  dup1\n  dup4\n  sub\n  dup2\n  dup7\n  gas\n  staticcall\n  iszero\n  dup1\n  iszero\n  tag_14\n  jumpi\n  returndatasize\n  0x00\n  dup1\n  returndatacopy\n  revert(0x00, returndatasize)\ntag_14:\n  pop\n  pop\n  pop\n  pop\n  mload(0x40)\n  returndatasize\n  not(0x1f)\n  0x1f\n  dup3\n  add\n  and\n  dup3\n  add\n  dup1\n  0x40\n  mstore\n  pop\n  dup2\n  add\n  swap1\n  tag_15\n  swap2\n  swap1\n  tag_16\n  jump\t// in\ntag_15:\n    /* \"ex/exchangeUsdtToken.sol\":16092:16166  IPancakeSwapV2Factory(_uniswapV2Router.factory())... */\n  0xffffffffffffffffffffffffffffffffffffffff\n  and\n  0xc9c65396\n    /* \"ex/exchangeUsdtToken.sol\":16175:16179  this */\n  address\n    /* \"ex/exchangeUsdtToken.sol\":16182:16193  usdtAddress */\n  0x07\n  0x00\n  swap1\n  sload\n  swap1\n  0x0100\n  exp\n  swap1\n  div\n  0xffffffffffffffffffffffffffffffffffffffff\n  and\n    /* \"ex/exchangeUsdtToken.sol\":16092:16194  IPancakeSwapV2Factory(_uniswapV2Router.factory())... */\n  mload(0x40)\n  dup4\n  0xffffffff\n  and\n  0xe0\n  shl\n  dup2\n  mstore\n  0x04\n  add\n  tag_17\n  swap3\n  swap2\n  swap1\n  tag_18\n  jump\t// in\ntag_17:\n  0x20\n  mload(0x40)\n  dup1\n  dup4\n  sub\n  dup2\n  0x00\n  dup8\n  gas\n  call\n  iszero\n  dup1\n  iszero\n  tag_20\n  jumpi\n  returndatasize\n  0x00\n  dup1\n  returndatacopy\n  revert(0x00, returndatasize)\ntag_20:\n  pop\n  pop\n  pop\n  pop\n  mload(0x40)\n  returndatasize\n  not(0x1f)\n  0x1f\n  dup3\n  add\n  and\n  dup3\n  add\n  dup1\n  0x40\n  mstore\n  pop\n  dup2\n  add\n  swap1\n  tag_21\n  swap2\n  swap1\n  tag_16\n  jump\t// in\ntag_21:\n    /* \"ex/exchangeUsdtToken.sol\":16076:16194  uniswapV2Pair = IPancakeSwapV2Factory(_uniswapV2Router.factory())... */\n  0xffffffffffffffffffffffffffffffffffffffff\n  and\n  0xa0\n  dup2\n  0xffffffffffffffffffffffffffffffffffffffff\n  and\n  dup2\n  mstore\n  pop\n  pop\n    /* \"ex/exchangeUsdtToken.sol\":16223:16239  _uniswapV2Router */\n  dup1\n    /* \"ex/exchangeUsdtToken.sol\":16205:16239  uniswapV2Router = _uniswapV2Router */\n  0xffffffffffffffffffffffffffffffffffffffff\n  and\n  0x80\n  dup2\n  0xffffffffffffffffffffffffffffffffffffffff\n  and\n  dup2\n  mstore\n  pop\n  pop\n    /* \"ex/exchangeUsdtToken.sol\":16277:16281  true */\n  0x01\n    /* \"ex/exchangeUsdtToken.sol\":16250:16256  isPair */\n  0x09\n    /* \"ex/exchangeUsdtToken.sol\":16250:16274  isPair[address(owner())] */\n  0x00\n    /* \"ex/exchangeUsdtToken.sol\":16265:16272  owner() */\n  tag_22\n    /* \"ex/exchangeUsdtToken.sol\":16265:16270  owner */\n  shl(0x20, tag_23)\n    /* \"ex/exchangeUsdtToken.sol\":16265:16272  owner() */\n  0x20\n  shr\n  jump\t// in\ntag_22:\n    /* \"ex/exchangeUsdtToken.sol\":16250:16274  isPair[address(owner())] */\n  0xffffffffffffffffffffffffffffffffffffffff\n  and\n  0xffffffffffffffffffffffffffffffffffffffff\n  and\n  dup2\n  mstore\n  0x20\n  add\n  swap1\n  dup2\n  mstore\n  0x20\n  add\n  0x00\n  keccak256\n  0x00\n    /* \"ex/exchangeUsdtToken.sol\":16250:16281  isPair[address(owner())] = true */\n  0x0100\n  exp\n  dup2\n  sload\n  dup2\n  0xff\n  mul\n  not\n  and\n  swap1\n  dup4\n  iszero\n  iszero\n  mul\n  or\n  swap1\n  sstore\n  pop\n    /* \"ex/exchangeUsdtToken.sol\":16323:16327  true */\n  0x01\n    /* \"ex/exchangeUsdtToken.sol\":16292:16296  DEXs */\n  0x08\n    /* \"ex/exchangeUsdtToken.sol\":16292:16320  DEXs[address(uniswapV2Pair)] */\n  0x00\n    /* \"ex/exchangeUsdtToken.sol\":16305:16318  uniswapV2Pair */\n  mload(0xa0)\n    /* \"ex/exchangeUsdtToken.sol\":16292:16320  DEXs[address(uniswapV2Pair)] */\n  0xffffffffffffffffffffffffffffffffffffffff\n  and\n  0xffffffffffffffffffffffffffffffffffffffff\n  and\n  dup2\n  mstore\n  0x20\n  add\n  swap1\n  dup2\n  mstore\n  0x20\n  add\n  0x00\n  keccak256\n  0x00\n    /* \"ex/exchangeUsdtToken.sol\":16292:16327  DEXs[address(uniswapV2Pair)] = true */\n  0x0100\n  exp\n  dup2\n  sload\n  dup2\n  0xff\n  mul\n  not\n  and\n  swap1\n  dup4\n  iszero\n  iszero\n  mul\n  or\n  swap1\n  sstore\n  pop\n    /* \"ex/exchangeUsdtToken.sol\":15696:16335  {... */\n  pop\n    /* \"ex/exchangeUsdtToken.sol\":14733:22332  contract SugarBaby is Context, IERC20, IERC20Metadata, Ownable{... */\n  jump(tag_24)\n    /* \"ex/exchangeUsdtToken.sol\":2424:2522  function _msgSender() internal view virtual returns (address) {... */\ntag_7:\n    /* \"ex/exchangeUsdtToken.sol\":2477:2484  address */\n  0x00\n    /* \"ex/exchangeUsdtToken.sol\":2504:2514  msg.sender */\n  caller\n    /* \"ex/exchangeUsdtToken.sol\":2497:2514  return msg.sender */\n  swap1\n  pop\n    /* \"ex/exchangeUsdtToken.sol\":2424:2522  function _msgSender() internal view virtual returns (address) {... */\n  swap1\n  jump\t// out\n    /* \"ex/exchangeUsdtToken.sol\":4332:4523  function _transferOwnership(address newOwner) internal virtual {... */\ntag_8:\n    /* \"ex/exchangeUsdtToken.sol\":4406:4422  address oldOwner */\n  0x00\n    /* \"ex/exchangeUsdtToken.sol\":4425:4431  _owner */\n  dup1\n  0x00\n  swap1\n  sload\n  swap1\n  0x0100\n  exp\n  swap1\n  div\n  0xffffffffffffffffffffffffffffffffffffffff\n  and\n    /* \"ex/exchangeUsdtToken.sol\":4406:4431  address oldOwner = _owner */\n  swap1\n  pop\n    /* \"ex/exchangeUsdtToken.sol\":4451:4459  newOwner */\n  dup2\n    /* \"ex/exchangeUsdtToken.sol\":4442:4448  _owner */\n  0x00\n  dup1\n    /* \"ex/exchangeUsdtToken.sol\":4442:4459  _owner = newOwner */\n  0x0100\n  exp\n  dup2\n  sload\n  dup2\n  0xffffffffffffffffffffffffffffffffffffffff\n  mul\n  not\n  and\n  swap1\n  dup4\n  0xffffffffffffffffffffffffffffffffffffffff\n  and\n  mul\n  or\n  swap1\n  sstore\n  pop\n    /* \"ex/exchangeUsdtToken.sol\":4506:4514  newOwner */\n  dup2\n    /* \"ex/exchangeUsdtToken.sol\":4475:4515  OwnershipTransferred(oldOwner, newOwner) */\n  0xffffffffffffffffffffffffffffffffffffffff\n  and\n    /* \"ex/exchangeUsdtToken.sol\":4496:4504  oldOwner */\n  dup2\n    /* \"ex/exchangeUsdtToken.sol\":4475:4515  OwnershipTransferred(oldOwner, newOwner) */\n  0xffffffffffffffffffffffffffffffffffffffff\n  and\n  0x8be0079c531659141344cd1fd0a4f28419497f9722a3daafe3b4186f6b6457e0\n  mload(0x40)\n  mload(0x40)\n  dup1\n  swap2\n  sub\n  swap1\n  log3\n    /* \"ex/exchangeUsdtToken.sol\":4395:4523  {... */\n  pop\n    /* \"ex/exchangeUsdtToken.sol\":4332:4523  function _transferOwnership(address newOwner) internal virtual {... */\n  pop\n  jump\t// out\n    /* \"ex/exchangeUsdtToken.sol\":20472:20667  function _mint(address account, uint amount) internal virtual {... */\ntag_12:\n    /* \"ex/exchangeUsdtToken.sol\":20567:20573  amount */\n  dup1\n    /* \"ex/exchangeUsdtToken.sol\":20545:20554  _balances */\n  0x01\n    /* \"ex/exchangeUsdtToken.sol\":20545:20563  _balances[account] */\n  0x00\n    /* \"ex/exchangeUsdtToken.sol\":20555:20562  account */\n  dup5\n    /* \"ex/exchangeUsdtToken.sol\":20545:20563  _balances[account] */\n  0xffffffffffffffffffffffffffffffffffffffff\n  and\n  0xffffffffffffffffffffffffffffffffffffffff\n  and\n  dup2\n  mstore\n  0x20\n  add\n  swap1\n  dup2\n  mstore\n  0x20\n  add\n  0x00\n  keccak256\n  0x00\n    /* \"ex/exchangeUsdtToken.sol\":20545:20573  _balances[account] += amount */\n  dup3\n  dup3\n  sload\n  tag_28\n  swap2\n  swap1\n  tag_29\n  jump\t// in\ntag_28:\n  swap3\n  pop\n  pop\n  dup2\n  swap1\n  sstore\n  pop\n    /* \"ex/exchangeUsdtToken.sol\":20600:20606  amount */\n  dup1\n    /* \"ex/exchangeUsdtToken.sol\":20584:20596  _totalSupply */\n  0x03\n  0x00\n    /* \"ex/exchangeUsdtToken.sol\":20584:20606  _totalSupply += amount */\n  dup3\n  dup3\n  sload\n  tag_30\n  swap2\n  swap1\n  tag_29\n  jump\t// in\ntag_30:\n  swap3\n  pop\n  pop\n  dup2\n  swap1\n  sstore\n  pop\n    /* \"ex/exchangeUsdtToken.sol\":20643:20650  account */\n  dup2\n    /* \"ex/exchangeUsdtToken.sol\":20622:20659  Transfer(address(0), account, amount) */\n  0xffffffffffffffffffffffffffffffffffffffff\n  and\n    /* \"ex/exchangeUsdtToken.sol\":20639:20640  0 */\n  0x00\n    /* \"ex/exchangeUsdtToken.sol\":20622:20659  Transfer(address(0), account, amount) */\n  0xffffffffffffffffffffffffffffffffffffffff\n  and\n  0xddf252ad1be2c89b69c2b068fc378daa952ba7f163c4a11628f55a4df523b3ef\n    /* \"ex/exchangeUsdtToken.sol\":20652:20658  amount */\n  dup4\n    /* \"ex/exchangeUsdtToken.sol\":20622:20659  Transfer(address(0), account, amount) */\n  mload(0x40)\n  tag_31\n  swap2\n  swap1\n  tag_32\n  jump\t// in\ntag_31:\n  mload(0x40)\n  dup1\n  swap2\n  sub\n  swap1\n  log3\n    /* \"ex/exchangeUsdtToken.sol\":20472:20667  function _mint(address account, uint amount) internal virtual {... */\n  pop\n  pop\n  jump\t// out\n    /* \"ex/exchangeUsdtToken.sol\":3062:3149  function owner() public view virtual returns (address) {... */\ntag_23:\n    /* \"ex/exchangeUsdtToken.sol\":3108:3115  address */\n  0x00\n    /* \"ex/exchangeUsdtToken.sol\":3135:3141  _owner */\n  dup1\n  0x00\n  swap1\n  sload\n  swap1\n  0x0100\n  exp\n  swap1\n  div\n  0xffffffffffffffffffffffffffffffffffffffff\n  and\n    /* \"ex/exchangeUsdtToken.sol\":3128:3141  return _owner */\n  swap1\n  pop\n    /* \"ex/exchangeUsdtToken.sol\":3062:3149  function owner() public view virtual returns (address) {... */\n  swap1\n  jump\t// out\n    /* \"#utility.yul\":88:205   */\ntag_35:\n    /* \"#utility.yul\":197:198   */\n  0x00\n    /* \"#utility.yul\":194:195   */\n  dup1\n    /* \"#utility.yul\":187:199   */\n  revert\n    /* \"#utility.yul\":334:460   */\ntag_37:\n    /* \"#utility.yul\":371:378   */\n  0x00\n    /* \"#utility.yul\":411:453   */\n  0xffffffffffffffffffffffffffffffffffffffff\n    /* \"#utility.yul\":404:409   */\n  dup3\n    /* \"#utility.yul\":400:454   */\n  and\n    /* \"#utility.yul\":389:454   */\n  swap1\n  pop\n    /* \"#utility.yul\":334:460   */\n  swap2\n  swap1\n  pop\n  jump\t// out\n    /* \"#utility.yul\":466:562   */\ntag_38:\n    /* \"#utility.yul\":503:510   */\n  0x00\n    /* \"#utility.yul\":532:556   */\n  tag_51\n    /* \"#utility.yul\":550:555   */\n  dup3\n    /* \"#utility.yul\":532:556   */\n  tag_37\n  jump\t// in\ntag_51:\n    /* \"#utility.yul\":521:556   */\n  swap1\n  pop\n    /* \"#utility.yul\":466:562   */\n  swap2\n  swap1\n  pop\n  jump\t// out\n    /* \"#utility.yul\":568:690   */\ntag_39:\n    /* \"#utility.yul\":641:665   */\n  tag_53\n    /* \"#utility.yul\":659:664   */\n  dup2\n    /* \"#utility.yul\":641:665   */\n  tag_38\n  jump\t// in\ntag_53:\n    /* \"#utility.yul\":634:639   */\n  dup2\n    /* \"#utility.yul\":631:666   */\n  eq\n    /* \"#utility.yul\":621:684   */\n  tag_54\n  jumpi\n    /* \"#utility.yul\":680:681   */\n  0x00\n    /* \"#utility.yul\":677:678   */\n  dup1\n    /* \"#utility.yul\":670:682   */\n  revert\n    /* \"#utility.yul\":621:684   */\ntag_54:\n    /* \"#utility.yul\":568:690   */\n  pop\n  jump\t// out\n    /* \"#utility.yul\":696:839   */\ntag_40:\n    /* \"#utility.yul\":753:758   */\n  0x00\n    /* \"#utility.yul\":784:790   */\n  dup2\n    /* \"#utility.yul\":778:791   */\n  mload\n    /* \"#utility.yul\":769:791   */\n  swap1\n  pop\n    /* \"#utility.yul\":800:833   */\n  tag_56\n    /* \"#utility.yul\":827:832   */\n  dup2\n    /* \"#utility.yul\":800:833   */\n  tag_39\n  jump\t// in\ntag_56:\n    /* \"#utility.yul\":696:839   */\n  swap3\n  swap2\n  pop\n  pop\n  jump\t// out\n    /* \"#utility.yul\":845:1196   */\ntag_16:\n    /* \"#utility.yul\":915:921   */\n  0x00\n    /* \"#utility.yul\":964:966   */\n  0x20\n    /* \"#utility.yul\":952:961   */\n  dup3\n    /* \"#utility.yul\":943:950   */\n  dup5\n    /* \"#utility.yul\":939:962   */\n  sub\n    /* \"#utility.yul\":935:967   */\n  slt\n    /* \"#utility.yul\":932:1051   */\n  iszero\n  tag_58\n  jumpi\n    /* \"#utility.yul\":970:1049   */\n  tag_59\n  tag_35\n  jump\t// in\ntag_59:\n    /* \"#utility.yul\":932:1051   */\ntag_58:\n    /* \"#utility.yul\":1090:1091   */\n  0x00\n    /* \"#utility.yul\":1115:1179   */\n  tag_60\n    /* \"#utility.yul\":1171:1178   */\n  dup5\n    /* \"#utility.yul\":1162:1168   */\n  dup3\n    /* \"#utility.yul\":1151:1160   */\n  dup6\n    /* \"#utility.yul\":1147:1169   */\n  add\n    /* \"#utility.yul\":1115:1179   */\n  tag_40\n  jump\t// in\ntag_60:\n    /* \"#utility.yul\":1105:1179   */\n  swap2\n  pop\n    /* \"#utility.yul\":1061:1189   */\n  pop\n    /* \"#utility.yul\":845:1196   */\n  swap3\n  swap2\n  pop\n  pop\n  jump\t// out\n    /* \"#utility.yul\":1202:1320   */\ntag_41:\n    /* \"#utility.yul\":1289:1313   */\n  tag_62\n    /* \"#utility.yul\":1307:1312   */\n  dup2\n    /* \"#utility.yul\":1289:1313   */\n  tag_38\n  jump\t// in\ntag_62:\n    /* \"#utility.yul\":1284:1287   */\n  dup3\n    /* \"#utility.yul\":1277:1314   */\n  mstore\n    /* \"#utility.yul\":1202:1320   */\n  pop\n  pop\n  jump\t// out\n    /* \"#utility.yul\":1326:1658   */\ntag_18:\n    /* \"#utility.yul\":1447:1451   */\n  0x00\n    /* \"#utility.yul\":1485:1487   */\n  0x40\n    /* \"#utility.yul\":1474:1483   */\n  dup3\n    /* \"#utility.yul\":1470:1488   */\n  add\n    /* \"#utility.yul\":1462:1488   */\n  swap1\n  pop\n    /* \"#utility.yul\":1498:1569   */\n  tag_64\n    /* \"#utility.yul\":1566:1567   */\n  0x00\n    /* \"#utility.yul\":1555:1564   */\n  dup4\n    /* \"#utility.yul\":1551:1568   */\n  add\n    /* \"#utility.yul\":1542:1548   */\n  dup6\n    /* \"#utility.yul\":1498:1569   */\n  tag_41\n  jump\t// in\ntag_64:\n    /* \"#utility.yul\":1579:1651   */\n  tag_65\n    /* \"#utility.yul\":1647:1649   */\n  0x20\n    /* \"#utility.yul\":1636:1645   */\n  dup4\n    /* \"#utility.yul\":1632:1650   */\n  add\n    /* \"#utility.yul\":1623:1629   */\n  dup5\n    /* \"#utility.yul\":1579:1651   */\n  tag_41\n  jump\t// in\ntag_65:\n    /* \"#utility.yul\":1326:1658   */\n  swap4\n  swap3\n  pop\n  pop\n  pop\n  jump\t// out\n    /* \"#utility.yul\":1664:1741   */\ntag_42:\n    /* \"#utility.yul\":1701:1708   */\n  0x00\n    /* \"#utility.yul\":1730:1735   */\n  dup2\n    /* \"#utility.yul\":1719:1735   */\n  swap1\n  pop\n    /* \"#utility.yul\":1664:1741   */\n  swap2\n  swap1\n  pop\n  jump\t// out\n    /* \"#utility.yul\":1747:1927   */\ntag_43:\n    /* \"#utility.yul\":1795:1872   */\n  0x4e487b7100000000000000000000000000000000000000000000000000000000\n    /* \"#utility.yul\":1792:1793   */\n  0x00\n    /* \"#utility.yul\":1785:1873   */\n  mstore\n    /* \"#utility.yul\":1892:1896   */\n  0x11\n    /* \"#utility.yul\":1889:1890   */\n  0x04\n    /* \"#utility.yul\":1882:1897   */\n  mstore\n    /* \"#utility.yul\":1916:1920   */\n  0x24\n    /* \"#utility.yul\":1913:1914   */\n  0x00\n    /* \"#utility.yul\":1906:1921   */\n  revert\n    /* \"#utility.yul\":1933:2124   */\ntag_29:\n    /* \"#utility.yul\":1973:1976   */\n  0x00\n    /* \"#utility.yul\":1992:2012   */\n  tag_69\n    /* \"#utility.yul\":2010:2011   */\n  dup3\n    /* \"#utility.yul\":1992:2012   */\n  tag_42\n  jump\t// in\ntag_69:\n    /* \"#utility.yul\":1987:2012   */\n  swap2\n  pop\n    /* \"#utility.yul\":2026:2046   */\n  tag_70\n    /* \"#utility.yul\":2044:2045   */\n  dup4\n    /* \"#utility.yul\":2026:2046   */\n  tag_42\n  jump\t// in\ntag_70:\n    /* \"#utility.yul\":2021:2046   */\n  swap3\n  pop\n    /* \"#utility.yul\":2069:2070   */\n  dup3\n    /* \"#utility.yul\":2066:2067   */\n  dup3\n    /* \"#utility.yul\":2062:2071   */\n  add\n    /* \"#utility.yul\":2055:2071   */\n  swap1\n  pop\n    /* \"#utility.yul\":2090:2093   */\n  dup1\n    /* \"#utility.yul\":2087:2088   */\n  dup3\n    /* \"#utility.yul\":2084:2094   */\n  gt\n    /* \"#utility.yul\":2081:2117   */\n  iszero\n  tag_71\n  jumpi\n    /* \"#utility.yul\":2097:2115   */\n  tag_72\n  tag_43\n  jump\t// in\ntag_72:\n    /* \"#utility.yul\":2081:2117   */\ntag_71:\n    /* \"#utility.yul\":1933:2124   */\n  swap3\n  swap2\n  pop\n  pop\n  jump\t// out\n    /* \"#utility.yul\":2130:2248   */\ntag_44:\n    /* \"#utility.yul\":2217:2241   */\n  tag_74\n    /* \"#utility.yul\":2235:2240   */\n  dup2\n    /* \"#utility.yul\":2217:2241   */\n  tag_42\n  jump\t// in\ntag_74:\n    /* \"#utility.yul\":2212:2215   */\n  dup3\n    /* \"#utility.yul\":2205:2242   */\n  mstore\n    /* \"#utility.yul\":2130:2248   */\n  pop\n  pop\n  jump\t// out\n    /* \"#utility.yul\":2254:2476   */\ntag_32:\n    /* \"#utility.yul\":2347:2351   */\n  0x00\n    /* \"#utility.yul\":2385:2387   */\n  0x20\n    /* \"#utility.yul\":2374:2383   */\n  dup3\n    /* \"#utility.yul\":2370:2388   */\n  add\n    /* \"#utility.yul\":2362:2388   */\n  swap1\n  pop\n    /* \"#utility.yul\":2398:2469   */\n  tag_76\n    /* \"#utility.yul\":2466:2467   */\n  0x00\n    /* \"#utility.yul\":2455:2464   */\n  dup4\n    /* \"#utility.yul\":2451:2468   */\n  add\n    /* \"#utility.yul\":2442:2448   */\n  dup5\n    /* \"#utility.yul\":2398:2469   */\n  tag_44\n  jump\t// in\ntag_76:\n    /* \"#utility.yul\":2254:2476   */\n  swap3\n  swap2\n  pop\n  pop\n  jump\t// out\n    /* \"ex/exchangeUsdtToken.sol\":14733:22332  contract SugarBaby is Context, IERC20, IERC20Metadata, Ownable{... */\ntag_24:\n  mload(0x80)\n  mload(0xa0)\n  codecopy(0x00, dataOffset(sub_0), dataSize(sub_0))\n  0x00\n  assignImmutable(\"0x416598f82b0677a6a8c17e95235d84568399f25d5cb8db411ebf4196f6254b48\")\n  0x00\n  assignImmutable(\"0xd7808f34137184ea2a76cdf5703a918f1c3466e73e7696015a370efc4f64aff7\")\n  return(0x00, dataSize(sub_0))\nstop\n\nsub_0: assembly {\n        /* \"ex/exchangeUsdtToken.sol\":14733:22332  contract SugarBaby is Context, IERC20, IERC20Metadata, Ownable{... */\n      mstore(0x40, 0x80)\n      jumpi(tag_1, lt(calldatasize, 0x04))\n      shr(0xe0, calldataload(0x00))\n      dup1\n      0x715018a6\n      gt\n      tag_29\n      jumpi\n      dup1\n      0xa9059cbb\n      gt\n      tag_30\n      jumpi\n      dup1\n      0xdd62ed3e\n      gt\n      tag_31\n      jumpi\n      dup1\n      0xdd62ed3e\n      eq\n      tag_25\n      jumpi\n      dup1\n      0xdec1a6f6\n      eq\n      tag_26\n      jumpi\n      dup1\n      0xe5e31b13\n      eq\n      tag_27\n      jumpi\n      dup1\n      0xf2fde38b\n      eq\n      tag_28\n      jumpi\n      jump(tag_2)\n    tag_31:\n      dup1\n      0xa9059cbb\n      eq\n      tag_22\n      jumpi\n      dup1\n      0xc49b9a80\n      eq\n      tag_23\n      jumpi\n      dup1\n      0xdb2e21bc\n      eq\n      tag_24\n      jumpi\n      jump(tag_2)\n    tag_30:\n      dup1\n      0x715018a6\n      eq\n      tag_16\n      jumpi\n      dup1\n      0x8da5cb5b\n      eq\n      tag_17\n      jumpi\n      dup1\n      0x95623641\n      eq\n      tag_18\n      jumpi\n      dup1\n      0x95d89b41\n      eq\n      tag_19\n      jumpi\n      dup1\n      0x9ab4a445\n      eq\n      tag_20\n      jumpi\n      dup1\n      0xa457c2d7\n      eq\n      tag_21\n      jumpi\n      jump(tag_2)\n    tag_29:\n      dup1\n      0x39509351\n      gt\n      tag_32\n      jumpi\n      dup1\n      0x4a74bb02\n      gt\n      tag_33\n      jumpi\n      dup1\n      0x4a74bb02\n      eq\n      tag_12\n      jumpi\n      dup1\n      0x536db266\n      eq\n      tag_13\n      jumpi\n      dup1\n      0x6dcea85f\n      eq\n      tag_14\n      jumpi\n      dup1\n      0x70a08231\n      eq\n      tag_15\n      jumpi\n      jump(tag_2)\n    tag_33:\n      dup1\n      0x39509351\n      eq\n      tag_9\n      jumpi\n      dup1\n      0x42966c68\n      eq\n      tag_10\n      jumpi\n      dup1\n      0x49bd5a5e\n      eq\n      tag_11\n      jumpi\n      jump(tag_2)\n    tag_32:\n      dup1\n      0x06fdde03\n      eq\n      tag_3\n      jumpi\n      dup1\n      0x095ea7b3\n      eq\n      tag_4\n      jumpi\n      dup1\n      0x1694505e\n      eq\n      tag_5\n      jumpi\n      dup1\n      0x18160ddd\n      eq\n      tag_6\n      jumpi\n      dup1\n      0x23b872dd\n      eq\n      tag_7\n      jumpi\n      dup1\n      0x313ce567\n      eq\n      tag_8\n      jumpi\n      jump(tag_2)\n    tag_1:\n      jumpi(tag_2, calldatasize)\n      stop\n    tag_2:\n      0x00\n      dup1\n      revert\n        /* \"ex/exchangeUsdtToken.sol\":16343:16450  function name() public view virtual override returns (string memory) {... */\n    tag_3:\n      callvalue\n      dup1\n      iszero\n      tag_36\n      jumpi\n      0x00\n      dup1\n      revert\n    tag_36:\n      pop\n      tag_37\n      tag_38\n      jump\t// in\n    tag_37:\n      mload(0x40)\n      tag_39\n      swap2\n      swap1\n      tag_40\n      jump\t// in\n    tag_39:\n      mload(0x40)\n      dup1\n      swap2\n      sub\n      swap1\n      return\n        /* \"ex/exchangeUsdtToken.sol\":17251:17417  function approve(address spender, uint amount) public virtual override returns (bool) {... */\n    tag_4:\n      callvalue\n      dup1\n      iszero\n      tag_41\n      jumpi\n      0x00\n      dup1\n      revert\n    tag_41:\n      pop\n      tag_42\n      0x04\n      dup1\n      calldatasize\n      sub\n      dup2\n      add\n      swap1\n      tag_43\n      swap2\n      swap1\n      tag_44\n      jump\t// in\n    tag_43:\n      tag_45\n      jump\t// in\n    tag_42:\n      mload(0x40)\n      tag_46\n      swap2\n      swap1\n      tag_47\n      jump\t// in\n    tag_46:\n      mload(0x40)\n      dup1\n      swap2\n      sub\n      swap1\n      return\n        /* \"ex/exchangeUsdtToken.sol\":15157:15212  IPancakeSwapV2Router02 public immutable uniswapV2Router */\n    tag_5:\n      callvalue\n      dup1\n      iszero\n      tag_48\n      jumpi\n      0x00\n      dup1\n      revert\n    tag_48:\n      pop\n      tag_49\n      tag_50\n      jump\t// in\n    tag_49:\n      mload(0x40)\n      tag_51\n      swap2\n      swap1\n      tag_52\n      jump\t// in\n    tag_51:\n      mload(0x40)\n      dup1\n      swap2\n      sub\n      swap1\n      return\n        /* \"ex/exchangeUsdtToken.sol\":16670:16775  function totalSupply() public view virtual override returns (uint) {... */\n    tag_6:\n      callvalue\n      dup1\n      iszero\n      tag_53\n      jumpi\n      0x00\n      dup1\n      revert\n    tag_53:\n      pop\n      tag_54\n      tag_55\n      jump\t// in\n    tag_54:\n      mload(0x40)\n      tag_56\n      swap2\n      swap1\n      tag_57\n      jump\t// in\n    tag_56:\n      mload(0x40)\n      dup1\n      swap2\n      sub\n      swap1\n      return\n        /* \"ex/exchangeUsdtToken.sol\":17425:17907  function transferFrom(... */\n    tag_7:\n      callvalue\n      dup1\n      iszero\n      tag_58\n      jumpi\n      0x00\n      dup1\n      revert\n    tag_58:\n      pop\n      tag_59\n      0x04\n      dup1\n      calldatasize\n      sub\n      dup2\n      add\n      swap1\n      tag_60\n      swap2\n      swap1\n      tag_61\n      jump\t// in\n    tag_60:\n      tag_62\n      jump\t// in\n    tag_59:\n      mload(0x40)\n      tag_63\n      swap2\n      swap1\n      tag_47\n      jump\t// in\n    tag_63:\n      mload(0x40)\n      dup1\n      swap2\n      sub\n      swap1\n      return\n        /* \"ex/exchangeUsdtToken.sol\":16569:16662  function decimals() public view virtual override returns (uint8) {... */\n    tag_8:\n      callvalue\n      dup1\n      iszero\n      tag_64\n      jumpi\n      0x00\n      dup1\n      revert\n    tag_64:\n      pop\n      tag_65\n      tag_66\n      jump\t// in\n    tag_65:\n      mload(0x40)\n      tag_67\n      swap2\n      swap1\n      tag_68\n      jump\t// in\n    tag_67:\n      mload(0x40)\n      dup1\n      swap2\n      sub\n      swap1\n      return\n        /* \"ex/exchangeUsdtToken.sol\":17915:18127  function increaseAllowance(address spender, uint addedValue) public virtual returns (bool) {... */\n    tag_9:\n      callvalue\n      dup1\n      iszero\n      tag_69\n      jumpi\n      0x00\n      dup1\n      revert\n    tag_69:\n      pop\n      tag_70\n      0x04\n      dup1\n      calldatasize\n      sub\n      dup2\n      add\n      swap1\n      tag_71\n      swap2\n      swap1\n      tag_44\n      jump\t// in\n    tag_71:\n      tag_72\n      jump\t// in\n    tag_70:\n      mload(0x40)\n      tag_73\n      swap2\n      swap1\n      tag_47\n      jump\t// in\n    tag_73:\n      mload(0x40)\n      dup1\n      swap2\n      sub\n      swap1\n      return\n        /* \"ex/exchangeUsdtToken.sol\":21137:21219  function burn(uint amount) external {... */\n    tag_10:\n      callvalue\n      dup1\n      iszero\n      tag_74\n      jumpi\n      0x00\n      dup1\n      revert\n    tag_74:\n      pop\n      tag_75\n      0x04\n      dup1\n      calldatasize\n      sub\n      dup2\n      add\n      swap1\n      tag_76\n      swap2\n      swap1\n      tag_77\n      jump\t// in\n    tag_76:\n      tag_78\n      jump\t// in\n    tag_75:\n      stop\n        /* \"ex/exchangeUsdtToken.sol\":15219:15257  address public immutable uniswapV2Pair */\n    tag_11:\n      callvalue\n      dup1\n      iszero\n      tag_79\n      jumpi\n      0x00\n      dup1\n      revert\n    tag_79:\n      pop\n      tag_80\n      tag_81\n      jump\t// in\n    tag_80:\n      mload(0x40)\n      tag_82\n      swap2\n      swap1\n      tag_83\n      jump\t// in\n    tag_82:\n      mload(0x40)\n      dup1\n      swap2\n      sub\n      swap1\n      return\n        /* \"ex/exchangeUsdtToken.sol\":15370:15403  bool public swapAndLiquifyEnabled */\n    tag_12:\n      callvalue\n      dup1\n      iszero\n      tag_84\n      jumpi\n      0x00\n      dup1\n      revert\n    tag_84:\n      pop\n      tag_85\n      tag_86\n      jump\t// in\n    tag_85:\n      mload(0x40)\n      tag_87\n      swap2\n      swap1\n      tag_47\n      jump\t// in\n    tag_87:\n      mload(0x40)\n      dup1\n      swap2\n      sub\n      swap1\n      return\n        /* \"ex/exchangeUsdtToken.sol\":18546:18737  function addDex(address _pair) external onlyOwner {... */\n    tag_13:\n      callvalue\n      dup1\n      iszero\n      tag_88\n      jumpi\n      0x00\n      dup1\n      revert\n    tag_88:\n      pop\n      tag_89\n      0x04\n      dup1\n      calldatasize\n      sub\n      dup2\n      add\n      swap1\n      tag_90\n      swap2\n      swap1\n      tag_91\n      jump\t// in\n    tag_90:\n      tag_92\n      jump\t// in\n    tag_89:\n      stop\n        /* \"ex/exchangeUsdtToken.sol\":18745:18830  function setMarket(address to) public onlyOwner {... */\n    tag_14:\n      callvalue\n      dup1\n      iszero\n      tag_93\n      jumpi\n      0x00\n      dup1\n      revert\n    tag_93:\n      pop\n      tag_94\n      0x04\n      dup1\n      calldatasize\n      sub\n      dup2\n      add\n      swap1\n      tag_95\n      swap2\n      swap1\n      tag_91\n      jump\t// in\n    tag_95:\n      tag_96\n      jump\t// in\n    tag_94:\n      stop\n        /* \"ex/exchangeUsdtToken.sol\":16783:16907  function balanceOf(address account) public view virtual override returns (uint) {... */\n    tag_15:\n      callvalue\n      dup1\n      iszero\n      tag_97\n      jumpi\n      0x00\n      dup1\n      revert\n    tag_97:\n      pop\n      tag_98\n      0x04\n      dup1\n      calldatasize\n      sub\n      dup2\n      add\n      swap1\n      tag_99\n      swap2\n      swap1\n      tag_91\n      jump\t// in\n    tag_99:\n      tag_100\n      jump\t// in\n    tag_98:\n      mload(0x40)\n      tag_101\n      swap2\n      swap1\n      tag_57\n      jump\t// in\n    tag_101:\n      mload(0x40)\n      dup1\n      swap2\n      sub\n      swap1\n      return\n        /* \"ex/exchangeUsdtToken.sol\":3713:3816  function renounceOwnership() public virtual onlyOwner {... */\n    tag_16:\n      callvalue\n      dup1\n      iszero\n      tag_102\n      jumpi\n      0x00\n      dup1\n      revert\n    tag_102:\n      pop\n      tag_103\n      tag_104\n      jump\t// in\n    tag_103:\n      stop\n        /* \"ex/exchangeUsdtToken.sol\":3062:3149  function owner() public view virtual returns (address) {... */\n    tag_17:\n      callvalue\n      dup1\n      iszero\n      tag_105\n      jumpi\n      0x00\n      dup1\n      revert\n    tag_105:\n      pop\n      tag_106\n      tag_107\n      jump\t// in\n    tag_106:\n      mload(0x40)\n      tag_108\n      swap2\n      swap1\n      tag_83\n      jump\t// in\n    tag_108:\n      mload(0x40)\n      dup1\n      swap2\n      sub\n      swap1\n      return\n        /* \"ex/exchangeUsdtToken.sol\":15077:15150  address public marketAddress = 0xd3c0b6Aa1538d639912789be705F18b5Fd89fcE6 */\n    tag_18:\n      callvalue\n      dup1\n      iszero\n      tag_109\n      jumpi\n      0x00\n      dup1\n      revert\n    tag_109:\n      pop\n      tag_110\n      tag_111\n      jump\t// in\n    tag_110:\n      mload(0x40)\n      tag_112\n      swap2\n      swap1\n      tag_83\n      jump\t// in\n    tag_112:\n      mload(0x40)\n      dup1\n      swap2\n      sub\n      swap1\n      return\n        /* \"ex/exchangeUsdtToken.sol\":16458:16561  function symbol() public view virtual override returns (string memory) {... */\n    tag_19:\n      callvalue\n      dup1\n      iszero\n      tag_113\n      jumpi\n      0x00\n      dup1\n      revert\n    tag_113:\n      pop\n      tag_114\n      tag_115\n      jump\t// in\n    tag_114:\n      mload(0x40)\n      tag_116\n      swap2\n      swap1\n      tag_40\n      jump\t// in\n    tag_116:\n      mload(0x40)\n      dup1\n      swap2\n      sub\n      swap1\n      return\n        /* \"ex/exchangeUsdtToken.sol\":15264:15335  address public usdtAddress = 0x7ef95a0FEE0Dd31b22626fA2e10Ee6A223F8a684 */\n    tag_20:\n      callvalue\n      dup1\n      iszero\n      tag_117\n      jumpi\n      0x00\n      dup1\n      revert\n    tag_117:\n      pop\n      tag_118\n      tag_119\n      jump\t// in\n    tag_118:\n      mload(0x40)\n      tag_120\n      swap2\n      swap1\n      tag_83\n      jump\t// in\n    tag_120:\n      mload(0x40)\n      dup1\n      swap2\n      sub\n      swap1\n      return\n        /* \"ex/exchangeUsdtToken.sol\":18135:18538  function decreaseAllowance(address spender, uint subtractedValue) public virtual returns (bool) {... */\n    tag_21:\n      callvalue\n      dup1\n      iszero\n      tag_121\n      jumpi\n      0x00\n      dup1\n      revert\n    tag_121:\n      pop\n      tag_122\n      0x04\n      dup1\n      calldatasize\n      sub\n      dup2\n      add\n      swap1\n      tag_123\n      swap2\n      swap1\n      tag_44\n      jump\t// in\n    tag_123:\n      tag_124\n      jump\t// in\n    tag_122:\n      mload(0x40)\n      tag_125\n      swap2\n      swap1\n      tag_47\n      jump\t// in\n    tag_125:\n      mload(0x40)\n      dup1\n      swap2\n      sub\n      swap1\n      return\n        /* \"ex/exchangeUsdtToken.sol\":16915:17087  function transfer(address recipient, uint amount) public virtual override returns (bool) {... */\n    tag_22:\n      callvalue\n      dup1\n      iszero\n      tag_126\n      jumpi\n      0x00\n      dup1\n      revert\n    tag_126:\n      pop\n      tag_127\n      0x04\n      dup1\n      calldatasize\n      sub\n      dup2\n      add\n      swap1\n      tag_128\n      swap2\n      swap1\n      tag_44\n      jump\t// in\n    tag_128:\n      tag_129\n      jump\t// in\n    tag_127:\n      mload(0x40)\n      tag_130\n      swap2\n      swap1\n      tag_47\n      jump\t// in\n    tag_130:\n      mload(0x40)\n      dup1\n      swap2\n      sub\n      swap1\n      return\n        /* \"ex/exchangeUsdtToken.sol\":22000:22171  function setSwapAndLiquifyEnabled(bool _enabled) public onlyOwner {... */\n    tag_23:\n      callvalue\n      dup1\n      iszero\n      tag_131\n      jumpi\n      0x00\n      dup1\n      revert\n    tag_131:\n      pop\n      tag_132\n      0x04\n      dup1\n      calldatasize\n      sub\n      dup2\n      add\n      swap1\n      tag_133\n      swap2\n      swap1\n      tag_134\n      jump\t// in\n    tag_133:\n      tag_135\n      jump\t// in\n    tag_132:\n      stop\n        /* \"ex/exchangeUsdtToken.sol\":22216:22327  function emergencyWithdraw() external onlyOwner {... */\n    tag_24:\n      callvalue\n      dup1\n      iszero\n      tag_136\n      jumpi\n      0x00\n      dup1\n      revert\n    tag_136:\n      pop\n      tag_137\n      tag_138\n      jump\t// in\n    tag_137:\n      stop\n        /* \"ex/exchangeUsdtToken.sol\":17095:17243  function allowance(address owner, address spender) public view virtual override returns (uint) {... */\n    tag_25:\n      callvalue\n      dup1\n      iszero\n      tag_139\n      jumpi\n      0x00\n      dup1\n      revert\n    tag_139:\n      pop\n      tag_140\n      0x04\n      dup1\n      calldatasize\n      sub\n      dup2\n      add\n      swap1\n      tag_141\n      swap2\n      swap1\n      tag_142\n      jump\t// in\n    tag_141:\n      tag_143\n      jump\t// in\n    tag_140:\n      mload(0x40)\n      tag_144\n      swap2\n      swap1\n      tag_57\n      jump\t// in\n    tag_144:\n      mload(0x40)\n      dup1\n      swap2\n      sub\n      swap1\n      return\n        /* \"ex/exchangeUsdtToken.sol\":15410:15445  mapping (address=>bool) public DEXs */\n    tag_26:\n      callvalue\n      dup1\n      iszero\n      tag_145\n      jumpi\n      0x00\n      dup1\n      revert\n    tag_145:\n      pop\n      tag_146\n      0x04\n      dup1\n      calldatasize\n      sub\n      dup2\n      add\n      swap1\n      tag_147\n      swap2\n      swap1\n      tag_91\n      jump\t// in\n    tag_147:\n      tag_148\n      jump\t// in\n    tag_146:\n      mload(0x40)\n      tag_149\n      swap2\n      swap1\n      tag_47\n      jump\t// in\n    tag_149:\n      mload(0x40)\n      dup1\n      swap2\n      sub\n      swap1\n      return\n        /* \"ex/exchangeUsdtToken.sol\":15452:15491  mapping (address => bool) public isPair */\n    tag_27:\n      callvalue\n      dup1\n      iszero\n      tag_150\n      jumpi\n      0x00\n      dup1\n      revert\n    tag_150:\n      pop\n      tag_151\n      0x04\n      dup1\n      calldatasize\n      sub\n      dup2\n      add\n      swap1\n      tag_152\n      swap2\n      swap1\n      tag_91\n      jump\t// in\n    tag_152:\n      tag_153\n      jump\t// in\n    tag_151:\n      mload(0x40)\n      tag_154\n      swap2\n      swap1\n      tag_47\n      jump\t// in\n    tag_154:\n      mload(0x40)\n      dup1\n      swap2\n      sub\n      swap1\n      return\n        /* \"ex/exchangeUsdtToken.sol\":3971:4172  function transferOwnership(address newOwner) public virtual onlyOwner {... */\n    tag_28:\n      callvalue\n      dup1\n      iszero\n      tag_155\n      jumpi\n      0x00\n      dup1\n      revert\n    tag_155:\n      pop\n      tag_156\n      0x04\n      dup1\n      calldatasize\n      sub\n      dup2\n      add\n      swap1\n      tag_157\n      swap2\n      swap1\n      tag_91\n      jump\t// in\n    tag_157:\n      tag_158\n      jump\t// in\n    tag_156:\n      stop\n        /* \"ex/exchangeUsdtToken.sol\":16343:16450  function name() public view virtual override returns (string memory) {... */\n    tag_38:\n        /* \"ex/exchangeUsdtToken.sol\":16397:16410  string memory */\n      0x60\n        /* \"ex/exchangeUsdtToken.sol\":16423:16442  return \"Sugar Baby\" */\n      mload(0x40)\n      dup1\n      0x40\n      add\n      0x40\n      mstore\n      dup1\n      0x0a\n      dup2\n      mstore\n      0x20\n      add\n      0x5375676172204261627900000000000000000000000000000000000000000000\n      dup2\n      mstore\n      pop\n      swap1\n      pop\n        /* \"ex/exchangeUsdtToken.sol\":16343:16450  function name() public view virtual override returns (string memory) {... */\n      swap1\n      jump\t// out\n        /* \"ex/exchangeUsdtToken.sol\":17251:17417  function approve(address spender, uint amount) public virtual override returns (bool) {... */\n    tag_45:\n        /* \"ex/exchangeUsdtToken.sol\":17331:17335  bool */\n      0x00\n        /* \"ex/exchangeUsdtToken.sol\":17348:17387  _approve(_msgSender(), spender, amount) */\n      tag_161\n        /* \"ex/exchangeUsdtToken.sol\":17357:17369  _msgSender() */\n      tag_162\n        /* \"ex/exchangeUsdtToken.sol\":17357:17367  _msgSender */\n      tag_163\n        /* \"ex/exchangeUsdtToken.sol\":17357:17369  _msgSender() */\n      jump\t// in\n    tag_162:\n        /* \"ex/exchangeUsdtToken.sol\":17371:17378  spender */\n      dup5\n        /* \"ex/exchangeUsdtToken.sol\":17380:17386  amount */\n      dup5\n        /* \"ex/exchangeUsdtToken.sol\":17348:17356  _approve */\n      tag_164\n        /* \"ex/exchangeUsdtToken.sol\":17348:17387  _approve(_msgSender(), spender, amount) */\n      jump\t// in\n    tag_161:\n        /* \"ex/exchangeUsdtToken.sol\":17405:17409  true */\n      0x01\n        /* \"ex/exchangeUsdtToken.sol\":17398:17409  return true */\n      swap1\n      pop\n        /* \"ex/exchangeUsdtToken.sol\":17251:17417  function approve(address spender, uint amount) public virtual override returns (bool) {... */\n      swap3\n      swap2\n      pop\n      pop\n      jump\t// out\n        /* \"ex/exchangeUsdtToken.sol\":15157:15212  IPancakeSwapV2Router02 public immutable uniswapV2Router */\n    tag_50:\n      immutable(\"0xd7808f34137184ea2a76cdf5703a918f1c3466e73e7696015a370efc4f64aff7\")\n      dup2\n      jump\t// out\n        /* \"ex/exchangeUsdtToken.sol\":16670:16775  function totalSupply() public view virtual override returns (uint) {... */\n    tag_55:\n        /* \"ex/exchangeUsdtToken.sol\":16731:16735  uint */\n      0x00\n        /* \"ex/exchangeUsdtToken.sol\":16755:16767  _totalSupply */\n      sload(0x03)\n        /* \"ex/exchangeUsdtToken.sol\":16748:16767  return _totalSupply */\n      swap1\n      pop\n        /* \"ex/exchangeUsdtToken.sol\":16670:16775  function totalSupply() public view virtual override returns (uint) {... */\n      swap1\n      jump\t// out\n        /* \"ex/exchangeUsdtToken.sol\":17425:17907  function transferFrom(... */\n    tag_62:\n        /* \"ex/exchangeUsdtToken.sol\":17562:17566  bool */\n      0x00\n        /* \"ex/exchangeUsdtToken.sol\":17579:17615  _transfer(sender, recipient, amount) */\n      tag_167\n        /* \"ex/exchangeUsdtToken.sol\":17589:17595  sender */\n      dup5\n        /* \"ex/exchangeUsdtToken.sol\":17597:17606  recipient */\n      dup5\n        /* \"ex/exchangeUsdtToken.sol\":17608:17614  amount */\n      dup5\n        /* \"ex/exchangeUsdtToken.sol\":17579:17588  _transfer */\n      tag_168\n        /* \"ex/exchangeUsdtToken.sol\":17579:17615  _transfer(sender, recipient, amount) */\n      jump\t// in\n    tag_167:\n        /* \"ex/exchangeUsdtToken.sol\":17628:17649  uint currentAllowance */\n      0x00\n        /* \"ex/exchangeUsdtToken.sol\":17652:17663  _allowances */\n      0x02\n        /* \"ex/exchangeUsdtToken.sol\":17652:17671  _allowances[sender] */\n      0x00\n        /* \"ex/exchangeUsdtToken.sol\":17664:17670  sender */\n      dup7\n        /* \"ex/exchangeUsdtToken.sol\":17652:17671  _allowances[sender] */\n      0xffffffffffffffffffffffffffffffffffffffff\n      and\n      0xffffffffffffffffffffffffffffffffffffffff\n      and\n      dup2\n      mstore\n      0x20\n      add\n      swap1\n      dup2\n      mstore\n      0x20\n      add\n      0x00\n      keccak256\n        /* \"ex/exchangeUsdtToken.sol\":17652:17685  _allowances[sender][_msgSender()] */\n      0x00\n        /* \"ex/exchangeUsdtToken.sol\":17672:17684  _msgSender() */\n      tag_169\n        /* \"ex/exchangeUsdtToken.sol\":17672:17682  _msgSender */\n      tag_163\n        /* \"ex/exchangeUsdtToken.sol\":17672:17684  _msgSender() */\n      jump\t// in\n    tag_169:\n        /* \"ex/exchangeUsdtToken.sol\":17652:17685  _allowances[sender][_msgSender()] */\n      0xffffffffffffffffffffffffffffffffffffffff\n      and\n      0xffffffffffffffffffffffffffffffffffffffff\n      and\n      dup2\n      mstore\n      0x20\n      add\n      swap1\n      dup2\n      mstore\n      0x20\n      add\n      0x00\n      keccak256\n      sload\n        /* \"ex/exchangeUsdtToken.sol\":17628:17685  uint currentAllowance = _allowances[sender][_msgSender()] */\n      swap1\n      pop\n        /* \"ex/exchangeUsdtToken.sol\":17724:17730  amount */\n      dup3\n        /* \"ex/exchangeUsdtToken.sol\":17704:17720  currentAllowance */\n      dup2\n        /* \"ex/exchangeUsdtToken.sol\":17704:17730  currentAllowance >= amount */\n      lt\n      iszero\n        /* \"ex/exchangeUsdtToken.sol\":17696:17773  require(currentAllowance >= amount, \"GSW: transfer amount exceeds allowance\") */\n      tag_170\n      jumpi\n      mload(0x40)\n      0x08c379a000000000000000000000000000000000000000000000000000000000\n      dup2\n      mstore\n      0x04\n      add\n      tag_171\n      swap1\n      tag_172\n      jump\t// in\n    tag_171:\n      mload(0x40)\n      dup1\n      swap2\n      sub\n      swap1\n      revert\n    tag_170:\n        /* \"ex/exchangeUsdtToken.sol\":17809:17866  _approve(sender, _msgSender(), currentAllowance - amount) */\n      tag_173\n        /* \"ex/exchangeUsdtToken.sol\":17818:17824  sender */\n      dup6\n        /* \"ex/exchangeUsdtToken.sol\":17826:17838  _msgSender() */\n      tag_174\n        /* \"ex/exchangeUsdtToken.sol\":17826:17836  _msgSender */\n      tag_163\n        /* \"ex/exchangeUsdtToken.sol\":17826:17838  _msgSender() */\n      jump\t// in\n    tag_174:\n        /* \"ex/exchangeUsdtToken.sol\":17859:17865  amount */\n      dup6\n        /* \"ex/exchangeUsdtToken.sol\":17840:17856  currentAllowance */\n      dup5\n        /* \"ex/exchangeUsdtToken.sol\":17840:17865  currentAllowance - amount */\n      sub\n        /* \"ex/exchangeUsdtToken.sol\":17809:17817  _approve */\n      tag_164\n        /* \"ex/exchangeUsdtToken.sol\":17809:17866  _approve(sender, _msgSender(), currentAllowance - amount) */\n      jump\t// in\n    tag_173:\n        /* \"ex/exchangeUsdtToken.sol\":17895:17899  true */\n      0x01\n        /* \"ex/exchangeUsdtToken.sol\":17888:17899  return true */\n      swap2\n      pop\n      pop\n        /* \"ex/exchangeUsdtToken.sol\":17425:17907  function transferFrom(... */\n      swap4\n      swap3\n      pop\n      pop\n      pop\n      jump\t// out\n        /* \"ex/exchangeUsdtToken.sol\":16569:16662  function decimals() public view virtual override returns (uint8) {... */\n    tag_66:\n        /* \"ex/exchangeUsdtToken.sol\":16627:16632  uint8 */\n      0x00\n        /* \"ex/exchangeUsdtToken.sol\":16652:16654  18 */\n      0x12\n        /* \"ex/exchangeUsdtToken.sol\":16645:16654  return 18 */\n      swap1\n      pop\n        /* \"ex/exchangeUsdtToken.sol\":16569:16662  function decimals() public view virtual override returns (uint8) {... */\n      swap1\n      jump\t// out\n        /* \"ex/exchangeUsdtToken.sol\":17915:18127  function increaseAllowance(address spender, uint addedValue) public virtual returns (bool) {... */\n    tag_72:\n        /* \"ex/exchangeUsdtToken.sol\":18000:18004  bool */\n      0x00\n        /* \"ex/exchangeUsdtToken.sol\":18017:18097  _approve(_msgSender(), spender, _allowances[_msgSender()][spender] + addedValue) */\n      tag_177\n        /* \"ex/exchangeUsdtToken.sol\":18026:18038  _msgSender() */\n      tag_178\n        /* \"ex/exchangeUsdtToken.sol\":18026:18036  _msgSender */\n      tag_163\n        /* \"ex/exchangeUsdtToken.sol\":18026:18038  _msgSender() */\n      jump\t// in\n    tag_178:\n        /* \"ex/exchangeUsdtToken.sol\":18040:18047  spender */\n      dup5\n        /* \"ex/exchangeUsdtToken.sol\":18086:18096  addedValue */\n      dup5\n        /* \"ex/exchangeUsdtToken.sol\":18049:18060  _allowances */\n      0x02\n        /* \"ex/exchangeUsdtToken.sol\":18049:18074  _allowances[_msgSender()] */\n      0x00\n        /* \"ex/exchangeUsdtToken.sol\":18061:18073  _msgSender() */\n      tag_179\n        /* \"ex/exchangeUsdtToken.sol\":18061:18071  _msgSender */\n      tag_163\n        /* \"ex/exchangeUsdtToken.sol\":18061:18073  _msgSender() */\n      jump\t// in\n    tag_179:\n        /* \"ex/exchangeUsdtToken.sol\":18049:18074  _allowances[_msgSender()] */\n      0xffffffffffffffffffffffffffffffffffffffff\n      and\n      0xffffffffffffffffffffffffffffffffffffffff\n      and\n      dup2\n      mstore\n      0x20\n      add\n      swap1\n      dup2\n      mstore\n      0x20\n      add\n      0x00\n      keccak256\n        /* \"ex/exchangeUsdtToken.sol\":18049:18083  _allowances[_msgSender()][spender] */\n      0x00\n        /* \"ex/exchangeUsdtToken.sol\":18075:18082  spender */\n      dup9\n        /* \"ex/exchangeUsdtToken.sol\":18049:18083  _allowances[_msgSender()][spender] */\n      0xffffffffffffffffffffffffffffffffffffffff\n      and\n      0xffffffffffffffffffffffffffffffffffffffff\n      and\n      dup2\n      mstore\n      0x20\n      add\n      swap1\n      dup2\n      mstore\n      0x20\n      add\n      0x00\n      keccak256\n      sload\n        /* \"ex/exchangeUsdtToken.sol\":18049:18096  _allowances[_msgSender()][spender] + addedValue */\n      tag_180\n      swap2\n      swap1\n      tag_181\n      jump\t// in\n    tag_180:\n        /* \"ex/exchangeUsdtToken.sol\":18017:18025  _approve */\n      tag_164\n        /* \"ex/exchangeUsdtToken.sol\":18017:18097  _approve(_msgSender(), spender, _allowances[_msgSender()][spender] + addedValue) */\n      jump\t// in\n    tag_177:\n        /* \"ex/exchangeUsdtToken.sol\":18115:18119  true */\n      0x01\n        /* \"ex/exchangeUsdtToken.sol\":18108:18119  return true */\n      swap1\n      pop\n        /* \"ex/exchangeUsdtToken.sol\":17915:18127  function increaseAllowance(address spender, uint addedValue) public virtual returns (bool) {... */\n      swap3\n      swap2\n      pop\n      pop\n      jump\t// out\n        /* \"ex/exchangeUsdtToken.sol\":21137:21219  function burn(uint amount) external {... */\n    tag_78:\n        /* \"ex/exchangeUsdtToken.sol\":21184:21211  _burn(_msgSender(), amount) */\n      tag_183\n        /* \"ex/exchangeUsdtToken.sol\":21190:21202  _msgSender() */\n      tag_184\n        /* \"ex/exchangeUsdtToken.sol\":21190:21200  _msgSender */\n      tag_163\n        /* \"ex/exchangeUsdtToken.sol\":21190:21202  _msgSender() */\n      jump\t// in\n    tag_184:\n        /* \"ex/exchangeUsdtToken.sol\":21204:21210  amount */\n      dup3\n        /* \"ex/exchangeUsdtToken.sol\":21184:21189  _burn */\n      tag_185\n        /* \"ex/exchangeUsdtToken.sol\":21184:21211  _burn(_msgSender(), amount) */\n      jump\t// in\n    tag_183:\n        /* \"ex/exchangeUsdtToken.sol\":21137:21219  function burn(uint amount) external {... */\n      pop\n      jump\t// out\n        /* \"ex/exchangeUsdtToken.sol\":15219:15257  address public immutable uniswapV2Pair */\n    tag_81:\n      immutable(\"0x416598f82b0677a6a8c17e95235d84568399f25d5cb8db411ebf4196f6254b48\")\n      dup2\n      jump\t// out\n        /* \"ex/exchangeUsdtToken.sol\":15370:15403  bool public swapAndLiquifyEnabled */\n    tag_86:\n      0x07\n      0x15\n      swap1\n      sload\n      swap1\n      0x0100\n      exp\n      swap1\n      div\n      0xff\n      and\n      dup2\n      jump\t// out\n        /* \"ex/exchangeUsdtToken.sol\":18546:18737  function addDex(address _pair) external onlyOwner {... */\n    tag_92:\n        /* \"ex/exchangeUsdtToken.sol\":3293:3305  _msgSender() */\n      tag_187\n        /* \"ex/exchangeUsdtToken.sol\":3293:3303  _msgSender */\n      tag_163\n        /* \"ex/exchangeUsdtToken.sol\":3293:3305  _msgSender() */\n      jump\t// in\n    tag_187:\n        /* \"ex/exchangeUsdtToken.sol\":3282:3305  owner() == _msgSender() */\n      0xffffffffffffffffffffffffffffffffffffffff\n      and\n        /* \"ex/exchangeUsdtToken.sol\":3282:3289  owner() */\n      tag_188\n        /* \"ex/exchangeUsdtToken.sol\":3282:3287  owner */\n      tag_107\n        /* \"ex/exchangeUsdtToken.sol\":3282:3289  owner() */\n      jump\t// in\n    tag_188:\n        /* \"ex/exchangeUsdtToken.sol\":3282:3305  owner() == _msgSender() */\n      0xffffffffffffffffffffffffffffffffffffffff\n      and\n      eq\n        /* \"ex/exchangeUsdtToken.sol\":3274:3342  require(owner() == _msgSender(), \"Ownable: caller is not the owner\") */\n      tag_189\n      jumpi\n      mload(0x40)\n      0x08c379a000000000000000000000000000000000000000000000000000000000\n      dup2\n      mstore\n      0x04\n      add\n      tag_190\n      swap1\n      tag_191\n      jump\t// in\n    tag_190:\n      mload(0x40)\n      dup1\n      swap2\n      sub\n      swap1\n      revert\n    tag_189:\n        /* \"ex/exchangeUsdtToken.sol\":18611:18615  DEXs */\n      0x08\n        /* \"ex/exchangeUsdtToken.sol\":18611:18622  DEXs[_pair] */\n      0x00\n        /* \"ex/exchangeUsdtToken.sol\":18616:18621  _pair */\n      dup3\n        /* \"ex/exchangeUsdtToken.sol\":18611:18622  DEXs[_pair] */\n      0xffffffffffffffffffffffffffffffffffffffff\n      and\n      0xffffffffffffffffffffffffffffffffffffffff\n      and\n      dup2\n      mstore\n      0x20\n      add\n      swap1\n      dup2\n      mstore\n      0x20\n      add\n      0x00\n      keccak256\n      0x00\n      swap1\n      sload\n      swap1\n      0x0100\n      exp\n      swap1\n      div\n      0xff\n      and\n        /* \"ex/exchangeUsdtToken.sol\":18607:18721  if (DEXs[_pair]) {... */\n      iszero\n      tag_193\n      jumpi\n        /* \"ex/exchangeUsdtToken.sol\":18653:18658  false */\n      0x00\n        /* \"ex/exchangeUsdtToken.sol\":18639:18643  DEXs */\n      0x08\n        /* \"ex/exchangeUsdtToken.sol\":18639:18650  DEXs[_pair] */\n      0x00\n        /* \"ex/exchangeUsdtToken.sol\":18644:18649  _pair */\n      dup4\n        /* \"ex/exchangeUsdtToken.sol\":18639:18650  DEXs[_pair] */\n      0xffffffffffffffffffffffffffffffffffffffff\n      and\n      0xffffffffffffffffffffffffffffffffffffffff\n      and\n      dup2\n      mstore\n      0x20\n      add\n      swap1\n      dup2\n      mstore\n      0x20\n      add\n      0x00\n      keccak256\n      0x00\n        /* \"ex/exchangeUsdtToken.sol\":18639:18658  DEXs[_pair] = false */\n      0x0100\n      exp\n      dup2\n      sload\n      dup2\n      0xff\n      mul\n      not\n      and\n      swap1\n      dup4\n      iszero\n      iszero\n      mul\n      or\n      swap1\n      sstore\n      pop\n        /* \"ex/exchangeUsdtToken.sol\":18607:18721  if (DEXs[_pair]) {... */\n      jump(tag_194)\n    tag_193:\n        /* \"ex/exchangeUsdtToken.sol\":18705:18709  true */\n      0x01\n        /* \"ex/exchangeUsdtToken.sol\":18691:18695  DEXs */\n      0x08\n        /* \"ex/exchangeUsdtToken.sol\":18691:18702  DEXs[_pair] */\n      0x00\n        /* \"ex/exchangeUsdtToken.sol\":18696:18701  _pair */\n      dup4\n        /* \"ex/exchangeUsdtToken.sol\":18691:18702  DEXs[_pair] */\n      0xffffffffffffffffffffffffffffffffffffffff\n      and\n      0xffffffffffffffffffffffffffffffffffffffff\n      and\n      dup2\n      mstore\n      0x20\n      add\n      swap1\n      dup2\n      mstore\n      0x20\n      add\n      0x00\n      keccak256\n      0x00\n        /* \"ex/exchangeUsdtToken.sol\":18691:18709  DEXs[_pair] = true */\n      0x0100\n      exp\n      dup2\n      sload\n      dup2\n      0xff\n      mul\n      not\n      and\n      swap1\n      dup4\n      iszero\n      iszero\n      mul\n      or\n      swap1\n      sstore\n      pop\n        /* \"ex/exchangeUsdtToken.sol\":18607:18721  if (DEXs[_pair]) {... */\n    tag_194:\n        /* \"ex/exchangeUsdtToken.sol\":18546:18737  function addDex(address _pair) external onlyOwner {... */\n      pop\n      jump\t// out\n        /* \"ex/exchangeUsdtToken.sol\":18745:18830  function setMarket(address to) public onlyOwner {... */\n    tag_96:\n        /* \"ex/exchangeUsdtToken.sol\":3293:3305  _msgSender() */\n      tag_196\n        /* \"ex/exchangeUsdtToken.sol\":3293:3303  _msgSender */\n      tag_163\n        /* \"ex/exchangeUsdtToken.sol\":3293:3305  _msgSender() */\n      jump\t// in\n    tag_196:\n        /* \"ex/exchangeUsdtToken.sol\":3282:3305  owner() == _msgSender() */\n      0xffffffffffffffffffffffffffffffffffffffff\n      and\n        /* \"ex/exchangeUsdtToken.sol\":3282:3289  owner() */\n      tag_197\n        /* \"ex/exchangeUsdtToken.sol\":3282:3287  owner */\n      tag_107\n        /* \"ex/exchangeUsdtToken.sol\":3282:3289  owner() */\n      jump\t// in\n    tag_197:\n        /* \"ex/exchangeUsdtToken.sol\":3282:3305  owner() == _msgSender() */\n      0xffffffffffffffffffffffffffffffffffffffff\n      and\n      eq\n        /* \"ex/exchangeUsdtToken.sol\":3274:3342  require(owner() == _msgSender(), \"Ownable: caller is not the owner\") */\n      tag_198\n      jumpi\n      mload(0x40)\n      0x08c379a000000000000000000000000000000000000000000000000000000000\n      dup2\n      mstore\n      0x04\n      add\n      tag_199\n      swap1\n      tag_191\n      jump\t// in\n    tag_199:\n      mload(0x40)\n      dup1\n      swap2\n      sub\n      swap1\n      revert\n    tag_198:\n        /* \"ex/exchangeUsdtToken.sol\":18820:18822  to */\n      dup1\n        /* \"ex/exchangeUsdtToken.sol\":18804:18817  marketAddress */\n      0x06\n      0x00\n        /* \"ex/exchangeUsdtToken.sol\":18804:18822  marketAddress = to */\n      0x0100\n      exp\n      dup2\n      sload\n      dup2\n      0xffffffffffffffffffffffffffffffffffffffff\n      mul\n      not\n      and\n      swap1\n      dup4\n      0xffffffffffffffffffffffffffffffffffffffff\n      and\n      mul\n      or\n      swap1\n      sstore\n      pop\n        /* \"ex/exchangeUsdtToken.sol\":18745:18830  function setMarket(address to) public onlyOwner {... */\n      pop\n      jump\t// out\n        /* \"ex/exchangeUsdtToken.sol\":16783:16907  function balanceOf(address account) public view virtual override returns (uint) {... */\n    tag_100:\n        /* \"ex/exchangeUsdtToken.sol\":16857:16861  uint */\n      0x00\n        /* \"ex/exchangeUsdtToken.sol\":16881:16890  _balances */\n      0x01\n        /* \"ex/exchangeUsdtToken.sol\":16881:16899  _balances[account] */\n      0x00\n        /* \"ex/exchangeUsdtToken.sol\":16891:16898  account */\n      dup4\n        /* \"ex/exchangeUsdtToken.sol\":16881:16899  _balances[account] */\n      0xffffffffffffffffffffffffffffffffffffffff\n      and\n      0xffffffffffffffffffffffffffffffffffffffff\n      and\n      dup2\n      mstore\n      0x20\n      add\n      swap1\n      dup2\n      mstore\n      0x20\n      add\n      0x00\n      keccak256\n      sload\n        /* \"ex/exchangeUsdtToken.sol\":16874:16899  return _balances[account] */\n      swap1\n      pop\n        /* \"ex/exchangeUsdtToken.sol\":16783:16907  function balanceOf(address account) public view virtual override returns (uint) {... */\n      swap2\n      swap1\n      pop\n      jump\t// out\n        /* \"ex/exchangeUsdtToken.sol\":3713:3816  function renounceOwnership() public virtual onlyOwner {... */\n    tag_104:\n        /* \"ex/exchangeUsdtToken.sol\":3293:3305  _msgSender() */\n      tag_203\n        /* \"ex/exchangeUsdtToken.sol\":3293:3303  _msgSender */\n      tag_163\n        /* \"ex/exchangeUsdtToken.sol\":3293:3305  _msgSender() */\n      jump\t// in\n    tag_203:\n        /* \"ex/exchangeUsdtToken.sol\":3282:3305  owner() == _msgSender() */\n      0xffffffffffffffffffffffffffffffffffffffff\n      and\n        /* \"ex/exchangeUsdtToken.sol\":3282:3289  owner() */\n      tag_204\n        /* \"ex/exchangeUsdtToken.sol\":3282:3287  owner */\n      tag_107\n        /* \"ex/exchangeUsdtToken.sol\":3282:3289  owner() */\n      jump\t// in\n    tag_204:\n        /* \"ex/exchangeUsdtToken.sol\":3282:3305  owner() == _msgSender() */\n      0xffffffffffffffffffffffffffffffffffffffff\n      and\n      eq\n        /* \"ex/exchangeUsdtToken.sol\":3274:3342  require(owner() == _msgSender(), \"Ownable: caller is not the owner\") */\n      tag_205\n      jumpi\n      mload(0x40)\n      0x08c379a000000000000000000000000000000000000000000000000000000000\n      dup2\n      mstore\n      0x04\n      add\n      tag_206\n      swap1\n      tag_191\n      jump\t// in\n    tag_206:\n      mload(0x40)\n      dup1\n      swap2\n      sub\n      swap1\n      revert\n    tag_205:\n        /* \"ex/exchangeUsdtToken.sol\":3778:3808  _transferOwnership(address(0)) */\n      tag_208\n        /* \"ex/exchangeUsdtToken.sol\":3805:3806  0 */\n      0x00\n        /* \"ex/exchangeUsdtToken.sol\":3778:3796  _transferOwnership */\n      tag_209\n        /* \"ex/exchangeUsdtToken.sol\":3778:3808  _transferOwnership(address(0)) */\n      jump\t// in\n    tag_208:\n        /* \"ex/exchangeUsdtToken.sol\":3713:3816  function renounceOwnership() public virtual onlyOwner {... */\n      jump\t// out\n        /* \"ex/exchangeUsdtToken.sol\":3062:3149  function owner() public view virtual returns (address) {... */\n    tag_107:\n        /* \"ex/exchangeUsdtToken.sol\":3108:3115  address */\n      0x00\n        /* \"ex/exchangeUsdtToken.sol\":3135:3141  _owner */\n      dup1\n      0x00\n      swap1\n      sload\n      swap1\n      0x0100\n      exp\n      swap1\n      div\n      0xffffffffffffffffffffffffffffffffffffffff\n      and\n        /* \"ex/exchangeUsdtToken.sol\":3128:3141  return _owner */\n      swap1\n      pop\n        /* \"ex/exchangeUsdtToken.sol\":3062:3149  function owner() public view virtual returns (address) {... */\n      swap1\n      jump\t// out\n        /* \"ex/exchangeUsdtToken.sol\":15077:15150  address public marketAddress = 0xd3c0b6Aa1538d639912789be705F18b5Fd89fcE6 */\n    tag_111:\n      0x06\n      0x00\n      swap1\n      sload\n      swap1\n      0x0100\n      exp\n      swap1\n      div\n      0xffffffffffffffffffffffffffffffffffffffff\n      and\n      dup2\n      jump\t// out\n        /* \"ex/exchangeUsdtToken.sol\":16458:16561  function symbol() public view virtual override returns (string memory) {... */\n    tag_115:\n        /* \"ex/exchangeUsdtToken.sol\":16514:16527  string memory */\n      0x60\n        /* \"ex/exchangeUsdtToken.sol\":16540:16553  return \"BABY\" */\n      mload(0x40)\n      dup1\n      0x40\n      add\n      0x40\n      mstore\n      dup1\n      0x04\n      dup2\n      mstore\n      0x20\n      add\n      0x4241425900000000000000000000000000000000000000000000000000000000\n      dup2\n      mstore\n      pop\n      swap1\n      pop\n        /* \"ex/exchangeUsdtToken.sol\":16458:16561  function symbol() public view virtual override returns (string memory) {... */\n      swap1\n      jump\t// out\n        /* \"ex/exchangeUsdtToken.sol\":15264:15335  address public usdtAddress = 0x7ef95a0FEE0Dd31b22626fA2e10Ee6A223F8a684 */\n    tag_119:\n      0x07\n      0x00\n      swap1\n      sload\n      swap1\n      0x0100\n      exp\n      swap1\n      div\n      0xffffffffffffffffffffffffffffffffffffffff\n      and\n      dup2\n      jump\t// out\n        /* \"ex/exchangeUsdtToken.sol\":18135:18538  function decreaseAllowance(address spender, uint subtractedValue) public virtual returns (bool) {... */\n    tag_124:\n        /* \"ex/exchangeUsdtToken.sol\":18225:18229  bool */\n      0x00\n        /* \"ex/exchangeUsdtToken.sol\":18242:18263  uint currentAllowance */\n      dup1\n        /* \"ex/exchangeUsdtToken.sol\":18266:18277  _allowances */\n      0x02\n        /* \"ex/exchangeUsdtToken.sol\":18266:18291  _allowances[_msgSender()] */\n      0x00\n        /* \"ex/exchangeUsdtToken.sol\":18278:18290  _msgSender() */\n      tag_213\n        /* \"ex/exchangeUsdtToken.sol\":18278:18288  _msgSender */\n      tag_163\n        /* \"ex/exchangeUsdtToken.sol\":18278:18290  _msgSender() */\n      jump\t// in\n    tag_213:\n        /* \"ex/exchangeUsdtToken.sol\":18266:18291  _allowances[_msgSender()] */\n      0xffffffffffffffffffffffffffffffffffffffff\n      and\n      0xffffffffffffffffffffffffffffffffffffffff\n      and\n      dup2\n      mstore\n      0x20\n      add\n      swap1\n      dup2\n      mstore\n      0x20\n      add\n      0x00\n      keccak256\n        /* \"ex/exchangeUsdtToken.sol\":18266:18300  _allowances[_msgSender()][spender] */\n      0x00\n        /* \"ex/exchangeUsdtToken.sol\":18292:18299  spender */\n      dup6\n        /* \"ex/exchangeUsdtToken.sol\":18266:18300  _allowances[_msgSender()][spender] */\n      0xffffffffffffffffffffffffffffffffffffffff\n      and\n      0xffffffffffffffffffffffffffffffffffffffff\n      and\n      dup2\n      mstore\n      0x20\n      add\n      swap1\n      dup2\n      mstore\n      0x20\n      add\n      0x00\n      keccak256\n      sload\n        /* \"ex/exchangeUsdtToken.sol\":18242:18300  uint currentAllowance = _allowances[_msgSender()][spender] */\n      swap1\n      pop\n        /* \"ex/exchangeUsdtToken.sol\":18339:18354  subtractedValue */\n      dup3\n        /* \"ex/exchangeUsdtToken.sol\":18319:18335  currentAllowance */\n      dup2\n        /* \"ex/exchangeUsdtToken.sol\":18319:18354  currentAllowance >= subtractedValue */\n      lt\n      iszero\n        /* \"ex/exchangeUsdtToken.sol\":18311:18394  require(currentAllowance >= subtractedValue, \"GSW: decreased allowance below zero\") */\n      tag_214\n      jumpi\n      mload(0x40)\n      0x08c379a000000000000000000000000000000000000000000000000000000000\n      dup2\n      mstore\n      0x04\n      add\n      tag_215\n      swap1\n      tag_216\n      jump\t// in\n    tag_215:\n      mload(0x40)\n      dup1\n      swap2\n      sub\n      swap1\n      revert\n    tag_214:\n        /* \"ex/exchangeUsdtToken.sol\":18430:18497  _approve(_msgSender(), spender, currentAllowance - subtractedValue) */\n      tag_217\n        /* \"ex/exchangeUsdtToken.sol\":18439:18451  _msgSender() */\n      tag_218\n        /* \"ex/exchangeUsdtToken.sol\":18439:18449  _msgSender */\n      tag_163\n        /* \"ex/exchangeUsdtToken.sol\":18439:18451  _msgSender() */\n      jump\t// in\n    tag_218:\n        /* \"ex/exchangeUsdtToken.sol\":18453:18460  spender */\n      dup6\n        /* \"ex/exchangeUsdtToken.sol\":18481:18496  subtractedValue */\n      dup6\n        /* \"ex/exchangeUsdtToken.sol\":18462:18478  currentAllowance */\n      dup5\n        /* \"ex/exchangeUsdtToken.sol\":18462:18496  currentAllowance - subtractedValue */\n      sub\n        /* \"ex/exchangeUsdtToken.sol\":18430:18438  _approve */\n      tag_164\n        /* \"ex/exchangeUsdtToken.sol\":18430:18497  _approve(_msgSender(), spender, currentAllowance - subtractedValue) */\n      jump\t// in\n    tag_217:\n        /* \"ex/exchangeUsdtToken.sol\":18526:18530  true */\n      0x01\n        /* \"ex/exchangeUsdtToken.sol\":18519:18530  return true */\n      swap2\n      pop\n      pop\n        /* \"ex/exchangeUsdtToken.sol\":18135:18538  function decreaseAllowance(address spender, uint subtractedValue) public virtual returns (bool) {... */\n      swap3\n      swap2\n      pop\n      pop\n      jump\t// out\n        /* \"ex/exchangeUsdtToken.sol\":16915:17087  function transfer(address recipient, uint amount) public virtual override returns (bool) {... */\n    tag_129:\n        /* \"ex/exchangeUsdtToken.sol\":16998:17002  bool */\n      0x00\n        /* \"ex/exchangeUsdtToken.sol\":17015:17057  _transfer(_msgSender(), recipient, amount) */\n      tag_220\n        /* \"ex/exchangeUsdtToken.sol\":17025:17037  _msgSender() */\n      tag_221\n        /* \"ex/exchangeUsdtToken.sol\":17025:17035  _msgSender */\n      tag_163\n        /* \"ex/exchangeUsdtToken.sol\":17025:17037  _msgSender() */\n      jump\t// in\n    tag_221:\n        /* \"ex/exchangeUsdtToken.sol\":17039:17048  recipient */\n      dup5\n        /* \"ex/exchangeUsdtToken.sol\":17050:17056  amount */\n      dup5\n        /* \"ex/exchangeUsdtToken.sol\":17015:17024  _transfer */\n      tag_168\n        /* \"ex/exchangeUsdtToken.sol\":17015:17057  _transfer(_msgSender(), recipient, amount) */\n      jump\t// in\n    tag_220:\n        /* \"ex/exchangeUsdtToken.sol\":17075:17079  true */\n      0x01\n        /* \"ex/exchangeUsdtToken.sol\":17068:17079  return true */\n      swap1\n      pop\n        /* \"ex/exchangeUsdtToken.sol\":16915:17087  function transfer(address recipient, uint amount) public virtual override returns (bool) {... */\n      swap3\n      swap2\n      pop\n      pop\n      jump\t// out\n        /* \"ex/exchangeUsdtToken.sol\":22000:22171  function setSwapAndLiquifyEnabled(bool _enabled) public onlyOwner {... */\n    tag_135:\n        /* \"ex/exchangeUsdtToken.sol\":3293:3305  _msgSender() */\n      tag_223\n        /* \"ex/exchangeUsdtToken.sol\":3293:3303  _msgSender */\n      tag_163\n        /* \"ex/exchangeUsdtToken.sol\":3293:3305  _msgSender() */\n      jump\t// in\n    tag_223:\n        /* \"ex/exchangeUsdtToken.sol\":3282:3305  owner() == _msgSender() */\n      0xffffffffffffffffffffffffffffffffffffffff\n      and\n        /* \"ex/exchangeUsdtToken.sol\":3282:3289  owner() */\n      tag_224\n        /* \"ex/exchangeUsdtToken.sol\":3282:3287  owner */\n      tag_107\n        /* \"ex/exchangeUsdtToken.sol\":3282:3289  owner() */\n      jump\t// in\n    tag_224:\n        /* \"ex/exchangeUsdtToken.sol\":3282:3305  owner() == _msgSender() */\n      0xffffffffffffffffffffffffffffffffffffffff\n      and\n      eq\n        /* \"ex/exchangeUsdtToken.sol\":3274:3342  require(owner() == _msgSender(), \"Ownable: caller is not the owner\") */\n      tag_225\n      jumpi\n      mload(0x40)\n      0x08c379a000000000000000000000000000000000000000000000000000000000\n      dup2\n      mstore\n      0x04\n      add\n      tag_226\n      swap1\n      tag_191\n      jump\t// in\n    tag_226:\n      mload(0x40)\n      dup1\n      swap2\n      sub\n      swap1\n      revert\n    tag_225:\n        /* \"ex/exchangeUsdtToken.sol\":22101:22109  _enabled */\n      dup1\n        /* \"ex/exchangeUsdtToken.sol\":22077:22098  swapAndLiquifyEnabled */\n      0x07\n      0x15\n        /* \"ex/exchangeUsdtToken.sol\":22077:22109  swapAndLiquifyEnabled = _enabled */\n      0x0100\n      exp\n      dup2\n      sload\n      dup2\n      0xff\n      mul\n      not\n      and\n      swap1\n      dup4\n      iszero\n      iszero\n      mul\n      or\n      swap1\n      sstore\n      pop\n        /* \"ex/exchangeUsdtToken.sol\":22125:22163  SwapAndLiquifyEnabledUpdated(_enabled) */\n      0x53726dfcaf90650aa7eb35524f4d3220f07413c8d6cb404cc8c18bf5591bc159\n        /* \"ex/exchangeUsdtToken.sol\":22154:22162  _enabled */\n      dup2\n        /* \"ex/exchangeUsdtToken.sol\":22125:22163  SwapAndLiquifyEnabledUpdated(_enabled) */\n      mload(0x40)\n      tag_228\n      swap2\n      swap1\n      tag_47\n      jump\t// in\n    tag_228:\n      mload(0x40)\n      dup1\n      swap2\n      sub\n      swap1\n      log1\n        /* \"ex/exchangeUsdtToken.sol\":22000:22171  function setSwapAndLiquifyEnabled(bool _enabled) public onlyOwner {... */\n      pop\n      jump\t// out\n        /* \"ex/exchangeUsdtToken.sol\":22216:22327  function emergencyWithdraw() external onlyOwner {... */\n    tag_138:\n        /* \"ex/exchangeUsdtToken.sol\":3293:3305  _msgSender() */\n      tag_230\n        /* \"ex/exchangeUsdtToken.sol\":3293:3303  _msgSender */\n      tag_163\n        /* \"ex/exchangeUsdtToken.sol\":3293:3305  _msgSender() */\n      jump\t// in\n    tag_230:\n        /* \"ex/exchangeUsdtToken.sol\":3282:3305  owner() == _msgSender() */\n      0xffffffffffffffffffffffffffffffffffffffff\n      and\n        /* \"ex/exchangeUsdtToken.sol\":3282:3289  owner() */\n      tag_231\n        /* \"ex/exchangeUsdtToken.sol\":3282:3287  owner */\n      tag_107\n        /* \"ex/exchangeUsdtToken.sol\":3282:3289  owner() */\n      jump\t// in\n    tag_231:\n        /* \"ex/exchangeUsdtToken.sol\":3282:3305  owner() == _msgSender() */\n      0xffffffffffffffffffffffffffffffffffffffff\n      and\n      eq\n        /* \"ex/exchangeUsdtToken.sol\":3274:3342  require(owner() == _msgSender(), \"Ownable: caller is not the owner\") */\n      tag_232\n      jumpi\n      mload(0x40)\n      0x08c379a000000000000000000000000000000000000000000000000000000000\n      dup2\n      mstore\n      0x04\n      add\n      tag_233\n      swap1\n      tag_191\n      jump\t// in\n    tag_233:\n      mload(0x40)\n      dup1\n      swap2\n      sub\n      swap1\n      revert\n    tag_232:\n        /* \"ex/exchangeUsdtToken.sol\":22283:22290  owner() */\n      tag_235\n        /* \"ex/exchangeUsdtToken.sol\":22283:22288  owner */\n      tag_107\n        /* \"ex/exchangeUsdtToken.sol\":22283:22290  owner() */\n      jump\t// in\n    tag_235:\n        /* \"ex/exchangeUsdtToken.sol\":22275:22296  payable(owner()).send */\n      0xffffffffffffffffffffffffffffffffffffffff\n      and\n        /* \"ex/exchangeUsdtToken.sol\":22275:22319  payable(owner()).send(address(this).balance) */\n      0x08fc\n        /* \"ex/exchangeUsdtToken.sol\":22297:22318  address(this).balance */\n      selfbalance\n        /* \"ex/exchangeUsdtToken.sol\":22275:22319  payable(owner()).send(address(this).balance) */\n      swap1\n      dup2\n      iszero\n      mul\n      swap1\n      mload(0x40)\n      0x00\n      mload(0x40)\n      dup1\n      dup4\n      sub\n      dup2\n      dup6\n      dup9\n      dup9\n      call\n      swap4\n      pop\n      pop\n      pop\n      pop\n      pop\n        /* \"ex/exchangeUsdtToken.sol\":22216:22327  function emergencyWithdraw() external onlyOwner {... */\n      jump\t// out\n        /* \"ex/exchangeUsdtToken.sol\":17095:17243  function allowance(address owner, address spender) public view virtual override returns (uint) {... */\n    tag_143:\n        /* \"ex/exchangeUsdtToken.sol\":17184:17188  uint */\n      0x00\n        /* \"ex/exchangeUsdtToken.sol\":17208:17219  _allowances */\n      0x02\n        /* \"ex/exchangeUsdtToken.sol\":17208:17226  _allowances[owner] */\n      0x00\n        /* \"ex/exchangeUsdtToken.sol\":17220:17225  owner */\n      dup5\n        /* \"ex/exchangeUsdtToken.sol\":17208:17226  _allowances[owner] */\n      0xffffffffffffffffffffffffffffffffffffffff\n      and\n      0xffffffffffffffffffffffffffffffffffffffff\n      and\n      dup2\n      mstore\n      0x20\n      add\n      swap1\n      dup2\n      mstore\n      0x20\n      add\n      0x00\n      keccak256\n        /* \"ex/exchangeUsdtToken.sol\":17208:17235  _allowances[owner][spender] */\n      0x00\n        /* \"ex/exchangeUsdtToken.sol\":17227:17234  spender */\n      dup4\n        /* \"ex/exchangeUsdtToken.sol\":17208:17235  _allowances[owner][spender] */\n      0xffffffffffffffffffffffffffffffffffffffff\n      and\n      0xffffffffffffffffffffffffffffffffffffffff\n      and\n      dup2\n      mstore\n      0x20\n      add\n      swap1\n      dup2\n      mstore\n      0x20\n      add\n      0x00\n      keccak256\n      sload\n        /* \"ex/exchangeUsdtToken.sol\":17201:17235  return _allowances[owner][spender] */\n      swap1\n      pop\n        /* \"ex/exchangeUsdtToken.sol\":17095:17243  function allowance(address owner, address spender) public view virtual override returns (uint) {... */\n      swap3\n      swap2\n      pop\n      pop\n      jump\t// out\n        /* \"ex/exchangeUsdtToken.sol\":15410:15445  mapping (address=>bool) public DEXs */\n    tag_148:\n      mstore(0x20, 0x08)\n      dup1\n      0x00\n      mstore\n      keccak256(0x00, 0x40)\n      0x00\n      swap2\n      pop\n      sload\n      swap1\n      0x0100\n      exp\n      swap1\n      div\n      0xff\n      and\n      dup2\n      jump\t// out\n        /* \"ex/exchangeUsdtToken.sol\":15452:15491  mapping (address => bool) public isPair */\n    tag_153:\n      mstore(0x20, 0x09)\n      dup1\n      0x00\n      mstore\n      keccak256(0x00, 0x40)\n      0x00\n      swap2\n      pop\n      sload\n      swap1\n      0x0100\n      exp\n      swap1\n      div\n      0xff\n      and\n      dup2\n      jump\t// out\n        /* \"ex/exchangeUsdtToken.sol\":3971:4172  function transferOwnership(address newOwner) public virtual onlyOwner {... */\n    tag_158:\n        /* \"ex/exchangeUsdtToken.sol\":3293:3305  _msgSender() */\n      tag_239\n        /* \"ex/exchangeUsdtToken.sol\":3293:3303  _msgSender */\n      tag_163\n        /* \"ex/exchangeUsdtToken.sol\":3293:3305  _msgSender() */\n      jump\t// in\n    tag_239:\n        /* \"ex/exchangeUsdtToken.sol\":3282:3305  owner() == _msgSender() */\n      0xffffffffffffffffffffffffffffffffffffffff\n      and\n        /* \"ex/exchangeUsdtToken.sol\":3282:3289  owner() */\n      tag_240\n        /* \"ex/exchangeUsdtToken.sol\":3282:3287  owner */\n      tag_107\n        /* \"ex/exchangeUsdtToken.sol\":3282:3289  owner() */\n      jump\t// in\n    tag_240:\n        /* \"ex/exchangeUsdtToken.sol\":3282:3305  owner() == _msgSender() */\n      0xffffffffffffffffffffffffffffffffffffffff\n      and\n      eq\n        /* \"ex/exchangeUsdtToken.sol\":3274:3342  require(owner() == _msgSender(), \"Ownable: caller is not the owner\") */\n      tag_241\n      jumpi\n      mload(0x40)\n      0x08c379a000000000000000000000000000000000000000000000000000000000\n      dup2\n      mstore\n      0x04\n      add\n      tag_242\n      swap1\n      tag_191\n      jump\t// in\n    tag_242:\n      mload(0x40)\n      dup1\n      swap2\n      sub\n      swap1\n      revert\n    tag_241:\n        /* \"ex/exchangeUsdtToken.sol\":4080:4081  0 */\n      0x00\n        /* \"ex/exchangeUsdtToken.sol\":4060:4082  newOwner != address(0) */\n      0xffffffffffffffffffffffffffffffffffffffff\n      and\n        /* \"ex/exchangeUsdtToken.sol\":4060:4068  newOwner */\n      dup2\n        /* \"ex/exchangeUsdtToken.sol\":4060:4082  newOwner != address(0) */\n      0xffffffffffffffffffffffffffffffffffffffff\n      and\n      sub\n        /* \"ex/exchangeUsdtToken.sol\":4052:4125  require(newOwner != address(0), \"Ownable: new owner is the zero address\") */\n      tag_244\n      jumpi\n      mload(0x40)\n      0x08c379a000000000000000000000000000000000000000000000000000000000\n      dup2\n      mstore\n      0x04\n      add\n      tag_245\n      swap1\n      tag_246\n      jump\t// in\n    tag_245:\n      mload(0x40)\n      dup1\n      swap2\n      sub\n      swap1\n      revert\n    tag_244:\n        /* \"ex/exchangeUsdtToken.sol\":4136:4164  _transferOwnership(newOwner) */\n      tag_247\n        /* \"ex/exchangeUsdtToken.sol\":4155:4163  newOwner */\n      dup2\n        /* \"ex/exchangeUsdtToken.sol\":4136:4154  _transferOwnership */\n      tag_209\n        /* \"ex/exchangeUsdtToken.sol\":4136:4164  _transferOwnership(newOwner) */\n      jump\t// in\n    tag_247:\n        /* \"ex/exchangeUsdtToken.sol\":3971:4172  function transferOwnership(address newOwner) public virtual onlyOwner {... */\n      pop\n      jump\t// out\n        /* \"ex/exchangeUsdtToken.sol\":2424:2522  function _msgSender() internal view virtual returns (address) {... */\n    tag_163:\n        /* \"ex/exchangeUsdtToken.sol\":2477:2484  address */\n      0x00\n        /* \"ex/exchangeUsdtToken.sol\":2504:2514  msg.sender */\n      caller\n        /* \"ex/exchangeUsdtToken.sol\":2497:2514  return msg.sender */\n      swap1\n      pop\n        /* \"ex/exchangeUsdtToken.sol\":2424:2522  function _msgSender() internal view virtual returns (address) {... */\n      swap1\n      jump\t// out\n        /* \"ex/exchangeUsdtToken.sol\":21227:21444  function _approve(... */\n    tag_164:\n        /* \"ex/exchangeUsdtToken.sol\":21382:21388  amount */\n      dup1\n        /* \"ex/exchangeUsdtToken.sol\":21352:21363  _allowances */\n      0x02\n        /* \"ex/exchangeUsdtToken.sol\":21352:21370  _allowances[owner] */\n      0x00\n        /* \"ex/exchangeUsdtToken.sol\":21364:21369  owner */\n      dup6\n        /* \"ex/exchangeUsdtToken.sol\":21352:21370  _allowances[owner] */\n      0xffffffffffffffffffffffffffffffffffffffff\n      and\n      0xffffffffffffffffffffffffffffffffffffffff\n      and\n      dup2\n      mstore\n      0x20\n      add\n      swap1\n      dup2\n      mstore\n      0x20\n      add\n      0x00\n      keccak256\n        /* \"ex/exchangeUsdtToken.sol\":21352:21379  _allowances[owner][spender] */\n      0x00\n        /* \"ex/exchangeUsdtToken.sol\":21371:21378  spender */\n      dup5\n        /* \"ex/exchangeUsdtToken.sol\":21352:21379  _allowances[owner][spender] */\n      0xffffffffffffffffffffffffffffffffffffffff\n      and\n      0xffffffffffffffffffffffffffffffffffffffff\n      and\n      dup2\n      mstore\n      0x20\n      add\n      swap1\n      dup2\n      mstore\n      0x20\n      add\n      0x00\n      keccak256\n        /* \"ex/exchangeUsdtToken.sol\":21352:21388  _allowances[owner][spender] = amount */\n      dup2\n      swap1\n      sstore\n      pop\n        /* \"ex/exchangeUsdtToken.sol\":21420:21427  spender */\n      dup2\n        /* \"ex/exchangeUsdtToken.sol\":21404:21436  Approval(owner, spender, amount) */\n      0xffffffffffffffffffffffffffffffffffffffff\n      and\n        /* \"ex/exchangeUsdtToken.sol\":21413:21418  owner */\n      dup4\n        /* \"ex/exchangeUsdtToken.sol\":21404:21436  Approval(owner, spender, amount) */\n      0xffffffffffffffffffffffffffffffffffffffff\n      and\n      0x8c5be1e5ebec7d5bd14f71427d1e84f3dd0314c0f7b2291e5b200ac8c7c3b925\n        /* \"ex/exchangeUsdtToken.sol\":21429:21435  amount */\n      dup4\n        /* \"ex/exchangeUsdtToken.sol\":21404:21436  Approval(owner, spender, amount) */\n      mload(0x40)\n      tag_250\n      swap2\n      swap1\n      tag_57\n      jump\t// in\n    tag_250:\n      mload(0x40)\n      dup1\n      swap2\n      sub\n      swap1\n      log3\n        /* \"ex/exchangeUsdtToken.sol\":21227:21444  function _approve(... */\n      pop\n      pop\n      pop\n      jump\t// out\n        /* \"ex/exchangeUsdtToken.sol\":18838:20464  function _transfer(... */\n    tag_168:\n        /* \"ex/exchangeUsdtToken.sol\":18993:18994  0 */\n      0x00\n        /* \"ex/exchangeUsdtToken.sol\":18975:18995  sender != address(0) */\n      0xffffffffffffffffffffffffffffffffffffffff\n      and\n        /* \"ex/exchangeUsdtToken.sol\":18975:18981  sender */\n      dup4\n        /* \"ex/exchangeUsdtToken.sol\":18975:18995  sender != address(0) */\n      0xffffffffffffffffffffffffffffffffffffffff\n      and\n      sub\n        /* \"ex/exchangeUsdtToken.sol\":18967:19035  require(sender != address(0), \"GSW: transfer from the zero address\") */\n      tag_252\n      jumpi\n      mload(0x40)\n      0x08c379a000000000000000000000000000000000000000000000000000000000\n      dup2\n      mstore\n      0x04\n      add\n      tag_253\n      swap1\n      tag_254\n      jump\t// in\n    tag_253:\n      mload(0x40)\n      dup1\n      swap2\n      sub\n      swap1\n      revert\n    tag_252:\n        /* \"ex/exchangeUsdtToken.sol\":19075:19076  0 */\n      0x00\n        /* \"ex/exchangeUsdtToken.sol\":19054:19077  recipient != address(0) */\n      0xffffffffffffffffffffffffffffffffffffffff\n      and\n        /* \"ex/exchangeUsdtToken.sol\":19054:19063  recipient */\n      dup3\n        /* \"ex/exchangeUsdtToken.sol\":19054:19077  recipient != address(0) */\n      0xffffffffffffffffffffffffffffffffffffffff\n      and\n      sub\n        /* \"ex/exchangeUsdtToken.sol\":19046:19115  require(recipient != address(0), \"GSW: transfer to the zero address\") */\n      tag_255\n      jumpi\n      mload(0x40)\n      0x08c379a000000000000000000000000000000000000000000000000000000000\n      dup2\n      mstore\n      0x04\n      add\n      tag_256\n      swap1\n      tag_257\n      jump\t// in\n    tag_256:\n      mload(0x40)\n      dup1\n      swap2\n      sub\n      swap1\n      revert\n    tag_255:\n        /* \"ex/exchangeUsdtToken.sol\":19126:19144  uint senderBalance */\n      0x00\n        /* \"ex/exchangeUsdtToken.sol\":19147:19156  _balances */\n      0x01\n        /* \"ex/exchangeUsdtToken.sol\":19147:19164  _balances[sender] */\n      0x00\n        /* \"ex/exchangeUsdtToken.sol\":19157:19163  sender */\n      dup6\n        /* \"ex/exchangeUsdtToken.sol\":19147:19164  _balances[sender] */\n      0xffffffffffffffffffffffffffffffffffffffff\n      and\n      0xffffffffffffffffffffffffffffffffffffffff\n      and\n      dup2\n      mstore\n      0x20\n      add\n      swap1\n      dup2\n      mstore\n      0x20\n      add\n      0x00\n      keccak256\n      sload\n        /* \"ex/exchangeUsdtToken.sol\":19126:19164  uint senderBalance = _balances[sender] */\n      swap1\n      pop\n        /* \"ex/exchangeUsdtToken.sol\":19200:19206  amount */\n      dup2\n        /* \"ex/exchangeUsdtToken.sol\":19183:19196  senderBalance */\n      dup2\n        /* \"ex/exchangeUsdtToken.sol\":19183:19206  senderBalance >= amount */\n      lt\n      iszero\n        /* \"ex/exchangeUsdtToken.sol\":19175:19247  require(senderBalance >= amount, \"GSW: transfer amount exceeds balance\") */\n      tag_258\n      jumpi\n      mload(0x40)\n      0x08c379a000000000000000000000000000000000000000000000000000000000\n      dup2\n      mstore\n      0x04\n      add\n      tag_259\n      swap1\n      tag_260\n      jump\t// in\n    tag_259:\n      mload(0x40)\n      dup1\n      swap2\n      sub\n      swap1\n      revert\n    tag_258:\n        /* \"ex/exchangeUsdtToken.sol\":19258:19270  uint _amount */\n      0x00\n        /* \"ex/exchangeUsdtToken.sol\":19273:19279  amount */\n      dup3\n        /* \"ex/exchangeUsdtToken.sol\":19258:19279  uint _amount = amount */\n      swap1\n      pop\n        /* \"ex/exchangeUsdtToken.sol\":19309:19313  DEXs */\n      0x08\n        /* \"ex/exchangeUsdtToken.sol\":19309:19321  DEXs[sender] */\n      0x00\n        /* \"ex/exchangeUsdtToken.sol\":19314:19320  sender */\n      dup7\n        /* \"ex/exchangeUsdtToken.sol\":19309:19321  DEXs[sender] */\n      0xffffffffffffffffffffffffffffffffffffffff\n      and\n      0xffffffffffffffffffffffffffffffffffffffff\n      and\n      dup2\n      mstore\n      0x20\n      add\n      swap1\n      dup2\n      mstore\n      0x20\n      add\n      0x00\n      keccak256\n      0x00\n      swap1\n      sload\n      swap1\n      0x0100\n      exp\n      swap1\n      div\n      0xff\n      and\n        /* \"ex/exchangeUsdtToken.sol\":19309:19362  DEXs[sender] && recipient != address(uniswapV2Router) */\n      dup1\n      iszero\n      tag_261\n      jumpi\n      pop\n        /* \"ex/exchangeUsdtToken.sol\":19346:19361  uniswapV2Router */\n      immutable(\"0xd7808f34137184ea2a76cdf5703a918f1c3466e73e7696015a370efc4f64aff7\")\n        /* \"ex/exchangeUsdtToken.sol\":19325:19362  recipient != address(uniswapV2Router) */\n      0xffffffffffffffffffffffffffffffffffffffff\n      and\n        /* \"ex/exchangeUsdtToken.sol\":19325:19334  recipient */\n      dup5\n        /* \"ex/exchangeUsdtToken.sol\":19325:19362  recipient != address(uniswapV2Router) */\n      0xffffffffffffffffffffffffffffffffffffffff\n      and\n      eq\n      iszero\n        /* \"ex/exchangeUsdtToken.sol\":19309:19362  DEXs[sender] && recipient != address(uniswapV2Router) */\n    tag_261:\n        /* \"ex/exchangeUsdtToken.sol\":19307:19382  ( DEXs[sender] && recipient != address(uniswapV2Router)) || DEXs[recipient] */\n      dup1\n      tag_262\n      jumpi\n      pop\n        /* \"ex/exchangeUsdtToken.sol\":19367:19371  DEXs */\n      0x08\n        /* \"ex/exchangeUsdtToken.sol\":19367:19382  DEXs[recipient] */\n      0x00\n        /* \"ex/exchangeUsdtToken.sol\":19372:19381  recipient */\n      dup6\n        /* \"ex/exchangeUsdtToken.sol\":19367:19382  DEXs[recipient] */\n      0xffffffffffffffffffffffffffffffffffffffff\n      and\n      0xffffffffffffffffffffffffffffffffffffffff\n      and\n      dup2\n      mstore\n      0x20\n      add\n      swap1\n      dup2\n      mstore\n      0x20\n      add\n      0x00\n      keccak256\n      0x00\n      swap1\n      sload\n      swap1\n      0x0100\n      exp\n      swap1\n      div\n      0xff\n      and\n        /* \"ex/exchangeUsdtToken.sol\":19307:19382  ( DEXs[sender] && recipient != address(uniswapV2Router)) || DEXs[recipient] */\n    tag_262:\n        /* \"ex/exchangeUsdtToken.sol\":19306:19417  (( DEXs[sender] && recipient != address(uniswapV2Router)) || DEXs[recipient]) &&... */\n      dup1\n      iszero\n      tag_263\n      jumpi\n      pop\n        /* \"ex/exchangeUsdtToken.sol\":19401:19417  inSwapAndLiquify */\n      0x07\n      0x14\n      swap1\n      sload\n      swap1\n      0x0100\n      exp\n      swap1\n      div\n      0xff\n      and\n        /* \"ex/exchangeUsdtToken.sol\":19400:19417  !inSwapAndLiquify */\n      iszero\n        /* \"ex/exchangeUsdtToken.sol\":19306:19417  (( DEXs[sender] && recipient != address(uniswapV2Router)) || DEXs[recipient]) &&... */\n    tag_263:\n        /* \"ex/exchangeUsdtToken.sol\":19306:19455  (( DEXs[sender] && recipient != address(uniswapV2Router)) || DEXs[recipient]) &&... */\n      dup1\n      iszero\n      tag_264\n      jumpi\n      pop\n        /* \"ex/exchangeUsdtToken.sol\":19434:19455  swapAndLiquifyEnabled */\n      0x07\n      0x15\n      swap1\n      sload\n      swap1\n      0x0100\n      exp\n      swap1\n      div\n      0xff\n      and\n        /* \"ex/exchangeUsdtToken.sol\":19306:19455  (( DEXs[sender] && recipient != address(uniswapV2Router)) || DEXs[recipient]) &&... */\n    tag_264:\n        /* \"ex/exchangeUsdtToken.sol\":19302:20272  if ((( DEXs[sender] && recipient != address(uniswapV2Router)) || DEXs[recipient]) &&... */\n      iszero\n      tag_265\n      jumpi\n        /* \"ex/exchangeUsdtToken.sol\":19516:19520  1000 */\n      0x03e8\n        /* \"ex/exchangeUsdtToken.sol\":19511:19513  15 */\n      0x0f\n        /* \"ex/exchangeUsdtToken.sol\":19502:19508  amount */\n      dup5\n        /* \"ex/exchangeUsdtToken.sol\":19502:19513  amount * 15 */\n      tag_266\n      swap2\n      swap1\n      tag_267\n      jump\t// in\n    tag_266:\n        /* \"ex/exchangeUsdtToken.sol\":19502:19520  amount * 15 / 1000 */\n      tag_268\n      swap2\n      swap1\n      tag_269\n      jump\t// in\n    tag_268:\n        /* \"ex/exchangeUsdtToken.sol\":19474:19483  _balances */\n      0x01\n        /* \"ex/exchangeUsdtToken.sol\":19474:19498  _balances[address(this)] */\n      0x00\n        /* \"ex/exchangeUsdtToken.sol\":19492:19496  this */\n      address\n        /* \"ex/exchangeUsdtToken.sol\":19474:19498  _balances[address(this)] */\n      0xffffffffffffffffffffffffffffffffffffffff\n      and\n      0xffffffffffffffffffffffffffffffffffffffff\n      and\n      dup2\n      mstore\n      0x20\n      add\n      swap1\n      dup2\n      mstore\n      0x20\n      add\n      0x00\n      keccak256\n      0x00\n        /* \"ex/exchangeUsdtToken.sol\":19474:19520  _balances[address(this)] += amount * 15 / 1000 */\n      dup3\n      dup3\n      sload\n      tag_270\n      swap2\n      swap1\n      tag_181\n      jump\t// in\n    tag_270:\n      swap3\n      pop\n      pop\n      dup2\n      swap1\n      sstore\n      pop\n        /* \"ex/exchangeUsdtToken.sol\":19565:19569  this */\n      address\n        /* \"ex/exchangeUsdtToken.sol\":19540:19591  Transfer(sender, address(this), amount * 15 / 1000) */\n      0xffffffffffffffffffffffffffffffffffffffff\n      and\n        /* \"ex/exchangeUsdtToken.sol\":19549:19555  sender */\n      dup6\n        /* \"ex/exchangeUsdtToken.sol\":19540:19591  Transfer(sender, address(this), amount * 15 / 1000) */\n      0xffffffffffffffffffffffffffffffffffffffff\n      and\n      0xddf252ad1be2c89b69c2b068fc378daa952ba7f163c4a11628f55a4df523b3ef\n        /* \"ex/exchangeUsdtToken.sol\":19586:19590  1000 */\n      0x03e8\n        /* \"ex/exchangeUsdtToken.sol\":19581:19583  15 */\n      0x0f\n        /* \"ex/exchangeUsdtToken.sol\":19572:19578  amount */\n      dup8\n        /* \"ex/exchangeUsdtToken.sol\":19572:19583  amount * 15 */\n      tag_271\n      swap2\n      swap1\n      tag_267\n      jump\t// in\n    tag_271:\n        /* \"ex/exchangeUsdtToken.sol\":19572:19590  amount * 15 / 1000 */\n      tag_272\n      swap2\n      swap1\n      tag_269\n      jump\t// in\n    tag_272:\n        /* \"ex/exchangeUsdtToken.sol\":19540:19591  Transfer(sender, address(this), amount * 15 / 1000) */\n      mload(0x40)\n      tag_273\n      swap2\n      swap1\n      tag_57\n      jump\t// in\n    tag_273:\n      mload(0x40)\n      dup1\n      swap2\n      sub\n      swap1\n      log3\n        /* \"ex/exchangeUsdtToken.sol\":19608:19636  uint256 contractTokenBalance */\n      0x00\n        /* \"ex/exchangeUsdtToken.sol\":19639:19663  balanceOf(address(this)) */\n      tag_274\n        /* \"ex/exchangeUsdtToken.sol\":19657:19661  this */\n      address\n        /* \"ex/exchangeUsdtToken.sol\":19639:19648  balanceOf */\n      tag_100\n        /* \"ex/exchangeUsdtToken.sol\":19639:19663  balanceOf(address(this)) */\n      jump\t// in\n    tag_274:\n        /* \"ex/exchangeUsdtToken.sol\":19608:19663  uint256 contractTokenBalance = balanceOf(address(this)) */\n      swap1\n      pop\n        /* \"ex/exchangeUsdtToken.sol\":19709:19721  _totalSupply */\n      sload(0x03)\n        /* \"ex/exchangeUsdtToken.sol\":19685:19705  contractTokenBalance */\n      dup2\n        /* \"ex/exchangeUsdtToken.sol\":19685:19721  contractTokenBalance >= _totalSupply */\n      lt\n        /* \"ex/exchangeUsdtToken.sol\":19682:19830  if(contractTokenBalance >= _totalSupply)... */\n      tag_275\n      jumpi\n        /* \"ex/exchangeUsdtToken.sol\":19794:19806  _totalSupply */\n      sload(0x03)\n        /* \"ex/exchangeUsdtToken.sol\":19771:19806  contractTokenBalance = _totalSupply */\n      swap1\n      pop\n        /* \"ex/exchangeUsdtToken.sol\":19682:19830  if(contractTokenBalance >= _totalSupply)... */\n    tag_275:\n        /* \"ex/exchangeUsdtToken.sol\":19874:19898  bool overMinTokenBalance */\n      0x00\n        /* \"ex/exchangeUsdtToken.sol\":19925:19929  1e18 */\n      0x0de0b6b3a7640000\n        /* \"ex/exchangeUsdtToken.sol\":19901:19921  contractTokenBalance */\n      dup3\n        /* \"ex/exchangeUsdtToken.sol\":19901:19929  contractTokenBalance >= 1e18 */\n      lt\n      iszero\n        /* \"ex/exchangeUsdtToken.sol\":19874:19929  bool overMinTokenBalance = contractTokenBalance >= 1e18 */\n      swap1\n      pop\n        /* \"ex/exchangeUsdtToken.sol\":19982:20001  overMinTokenBalance */\n      dup1\n        /* \"ex/exchangeUsdtToken.sol\":19982:20043  overMinTokenBalance &&... */\n      dup1\n      iszero\n      tag_276\n      jumpi\n      pop\n        /* \"ex/exchangeUsdtToken.sol\":20031:20035  DEXs */\n      0x08\n        /* \"ex/exchangeUsdtToken.sol\":20031:20043  DEXs[sender] */\n      0x00\n        /* \"ex/exchangeUsdtToken.sol\":20036:20042  sender */\n      dup9\n        /* \"ex/exchangeUsdtToken.sol\":20031:20043  DEXs[sender] */\n      0xffffffffffffffffffffffffffffffffffffffff\n      and\n      0xffffffffffffffffffffffffffffffffffffffff\n      and\n      dup2\n      mstore\n      0x20\n      add\n      swap1\n      dup2\n      mstore\n      0x20\n      add\n      0x00\n      keccak256\n      0x00\n      swap1\n      sload\n      swap1\n      0x0100\n      exp\n      swap1\n      div\n      0xff\n      and\n        /* \"ex/exchangeUsdtToken.sol\":20030:20043  !DEXs[sender] */\n      iszero\n        /* \"ex/exchangeUsdtToken.sol\":19982:20043  overMinTokenBalance &&... */\n    tag_276:\n        /* \"ex/exchangeUsdtToken.sol\":19982:20093  overMinTokenBalance &&... */\n      dup1\n      iszero\n      tag_277\n      jumpi\n      pop\n        /* \"ex/exchangeUsdtToken.sol\":20072:20093  swapAndLiquifyEnabled */\n      0x07\n      0x15\n      swap1\n      sload\n      swap1\n      0x0100\n      exp\n      swap1\n      div\n      0xff\n      and\n        /* \"ex/exchangeUsdtToken.sol\":19982:20093  overMinTokenBalance &&... */\n    tag_277:\n        /* \"ex/exchangeUsdtToken.sol\":19952:20203  if (... */\n      iszero\n      tag_278\n      jumpi\n        /* \"ex/exchangeUsdtToken.sol\":20144:20183  swapTokensForUsdt(contractTokenBalance) */\n      tag_279\n        /* \"ex/exchangeUsdtToken.sol\":20162:20182  contractTokenBalance */\n      dup3\n        /* \"ex/exchangeUsdtToken.sol\":20144:20161  swapTokensForUsdt */\n      tag_280\n        /* \"ex/exchangeUsdtToken.sol\":20144:20183  swapTokensForUsdt(contractTokenBalance) */\n      jump\t// in\n    tag_279:\n        /* \"ex/exchangeUsdtToken.sol\":19952:20203  if (... */\n    tag_278:\n        /* \"ex/exchangeUsdtToken.sol\":20242:20246  1000 */\n      0x03e8\n        /* \"ex/exchangeUsdtToken.sol\":20236:20239  985 */\n      0x03d9\n        /* \"ex/exchangeUsdtToken.sol\":20227:20233  amount */\n      dup7\n        /* \"ex/exchangeUsdtToken.sol\":20227:20239  amount * 985 */\n      tag_281\n      swap2\n      swap1\n      tag_267\n      jump\t// in\n    tag_281:\n        /* \"ex/exchangeUsdtToken.sol\":20227:20246  amount * 985 / 1000 */\n      tag_282\n      swap2\n      swap1\n      tag_269\n      jump\t// in\n    tag_282:\n        /* \"ex/exchangeUsdtToken.sol\":20217:20246  _amount = amount * 985 / 1000 */\n      swap3\n      pop\n        /* \"ex/exchangeUsdtToken.sol\":19457:20272  {... */\n      pop\n      pop\n        /* \"ex/exchangeUsdtToken.sol\":19302:20272  if ((( DEXs[sender] && recipient != address(uniswapV2Router)) || DEXs[recipient]) &&... */\n    tag_265:\n        /* \"ex/exchangeUsdtToken.sol\":20345:20351  amount */\n      dup3\n        /* \"ex/exchangeUsdtToken.sol\":20329:20342  senderBalance */\n      dup3\n        /* \"ex/exchangeUsdtToken.sol\":20329:20351  senderBalance - amount */\n      sub\n        /* \"ex/exchangeUsdtToken.sol\":20309:20318  _balances */\n      0x01\n        /* \"ex/exchangeUsdtToken.sol\":20309:20326  _balances[sender] */\n      0x00\n        /* \"ex/exchangeUsdtToken.sol\":20319:20325  sender */\n      dup8\n        /* \"ex/exchangeUsdtToken.sol\":20309:20326  _balances[sender] */\n      0xffffffffffffffffffffffffffffffffffffffff\n      and\n      0xffffffffffffffffffffffffffffffffffffffff\n      and\n      dup2\n      mstore\n      0x20\n      add\n      swap1\n      dup2\n      mstore\n      0x20\n      add\n      0x00\n      keccak256\n        /* \"ex/exchangeUsdtToken.sol\":20309:20351  _balances[sender] = senderBalance - amount */\n      dup2\n      swap1\n      sstore\n      pop\n        /* \"ex/exchangeUsdtToken.sol\":20397:20404  _amount */\n      dup1\n        /* \"ex/exchangeUsdtToken.sol\":20373:20382  _balances */\n      0x01\n        /* \"ex/exchangeUsdtToken.sol\":20373:20393  _balances[recipient] */\n      0x00\n        /* \"ex/exchangeUsdtToken.sol\":20383:20392  recipient */\n      dup7\n        /* \"ex/exchangeUsdtToken.sol\":20373:20393  _balances[recipient] */\n      0xffffffffffffffffffffffffffffffffffffffff\n      and\n      0xffffffffffffffffffffffffffffffffffffffff\n      and\n      dup2\n      mstore\n      0x20\n      add\n      swap1\n      dup2\n      mstore\n      0x20\n      add\n      0x00\n      keccak256\n      0x00\n        /* \"ex/exchangeUsdtToken.sol\":20373:20404  _balances[recipient] += _amount */\n      dup3\n      dup3\n      sload\n      tag_283\n      swap2\n      swap1\n      tag_181\n      jump\t// in\n    tag_283:\n      swap3\n      pop\n      pop\n      dup2\n      swap1\n      sstore\n      pop\n        /* \"ex/exchangeUsdtToken.sol\":20437:20446  recipient */\n      dup4\n        /* \"ex/exchangeUsdtToken.sol\":20420:20456  Transfer(sender, recipient, _amount) */\n      0xffffffffffffffffffffffffffffffffffffffff\n      and\n        /* \"ex/exchangeUsdtToken.sol\":20429:20435  sender */\n      dup6\n        /* \"ex/exchangeUsdtToken.sol\":20420:20456  Transfer(sender, recipient, _amount) */\n      0xffffffffffffffffffffffffffffffffffffffff\n      and\n      0xddf252ad1be2c89b69c2b068fc378daa952ba7f163c4a11628f55a4df523b3ef\n        /* \"ex/exchangeUsdtToken.sol\":20448:20455  _amount */\n      dup4\n        /* \"ex/exchangeUsdtToken.sol\":20420:20456  Transfer(sender, recipient, _amount) */\n      mload(0x40)\n      tag_284\n      swap2\n      swap1\n      tag_57\n      jump\t// in\n    tag_284:\n      mload(0x40)\n      dup1\n      swap2\n      sub\n      swap1\n      log3\n        /* \"ex/exchangeUsdtToken.sol\":18956:20464  {... */\n      pop\n      pop\n        /* \"ex/exchangeUsdtToken.sol\":18838:20464  function _transfer(... */\n      pop\n      pop\n      pop\n      jump\t// out\n        /* \"ex/exchangeUsdtToken.sol\":20675:21129  function _burn(address account, uint amount) internal virtual {... */\n    tag_185:\n        /* \"ex/exchangeUsdtToken.sol\":20775:20776  0 */\n      0x00\n        /* \"ex/exchangeUsdtToken.sol\":20756:20777  account != address(0) */\n      0xffffffffffffffffffffffffffffffffffffffff\n      and\n        /* \"ex/exchangeUsdtToken.sol\":20756:20763  account */\n      dup3\n        /* \"ex/exchangeUsdtToken.sol\":20756:20777  account != address(0) */\n      0xffffffffffffffffffffffffffffffffffffffff\n      and\n      sub\n        /* \"ex/exchangeUsdtToken.sol\":20748:20813  require(account != address(0), \"GSW: burn from the zero address\") */\n      tag_286\n      jumpi\n      mload(0x40)\n      0x08c379a000000000000000000000000000000000000000000000000000000000\n      dup2\n      mstore\n      0x04\n      add\n      tag_287\n      swap1\n      tag_288\n      jump\t// in\n    tag_287:\n      mload(0x40)\n      dup1\n      swap2\n      sub\n      swap1\n      revert\n    tag_286:\n        /* \"ex/exchangeUsdtToken.sol\":20824:20843  uint accountBalance */\n      0x00\n        /* \"ex/exchangeUsdtToken.sol\":20846:20855  _balances */\n      0x01\n        /* \"ex/exchangeUsdtToken.sol\":20846:20864  _balances[account] */\n      0x00\n        /* \"ex/exchangeUsdtToken.sol\":20856:20863  account */\n      dup5\n        /* \"ex/exchangeUsdtToken.sol\":20846:20864  _balances[account] */\n      0xffffffffffffffffffffffffffffffffffffffff\n      and\n      0xffffffffffffffffffffffffffffffffffffffff\n      and\n      dup2\n      mstore\n      0x20\n      add\n      swap1\n      dup2\n      mstore\n      0x20\n      add\n      0x00\n      keccak256\n      sload\n        /* \"ex/exchangeUsdtToken.sol\":20824:20864  uint accountBalance = _balances[account] */\n      swap1\n      pop\n        /* \"ex/exchangeUsdtToken.sol\":20901:20907  amount */\n      dup2\n        /* \"ex/exchangeUsdtToken.sol\":20883:20897  accountBalance */\n      dup2\n        /* \"ex/exchangeUsdtToken.sol\":20883:20907  accountBalance >= amount */\n      lt\n      iszero\n        /* \"ex/exchangeUsdtToken.sol\":20875:20944  require(accountBalance >= amount, \"GSW: burn amount exceeds balance\") */\n      tag_289\n      jumpi\n      mload(0x40)\n      0x08c379a000000000000000000000000000000000000000000000000000000000\n      dup2\n      mstore\n      0x04\n      add\n      tag_290\n      swap1\n      tag_291\n      jump\t// in\n    tag_290:\n      mload(0x40)\n      dup1\n      swap2\n      sub\n      swap1\n      revert\n    tag_289:\n        /* \"ex/exchangeUsdtToken.sol\":21018:21024  amount */\n      dup2\n        /* \"ex/exchangeUsdtToken.sol\":21001:21015  accountBalance */\n      dup2\n        /* \"ex/exchangeUsdtToken.sol\":21001:21024  accountBalance - amount */\n      sub\n        /* \"ex/exchangeUsdtToken.sol\":20980:20989  _balances */\n      0x01\n        /* \"ex/exchangeUsdtToken.sol\":20980:20998  _balances[account] */\n      0x00\n        /* \"ex/exchangeUsdtToken.sol\":20990:20997  account */\n      dup6\n        /* \"ex/exchangeUsdtToken.sol\":20980:20998  _balances[account] */\n      0xffffffffffffffffffffffffffffffffffffffff\n      and\n      0xffffffffffffffffffffffffffffffffffffffff\n      and\n      dup2\n      mstore\n      0x20\n      add\n      swap1\n      dup2\n      mstore\n      0x20\n      add\n      0x00\n      keccak256\n        /* \"ex/exchangeUsdtToken.sol\":20980:21024  _balances[account] = accountBalance - amount */\n      dup2\n      swap1\n      sstore\n      pop\n        /* \"ex/exchangeUsdtToken.sol\":21062:21068  amount */\n      dup2\n        /* \"ex/exchangeUsdtToken.sol\":21046:21058  _totalSupply */\n      0x03\n      0x00\n        /* \"ex/exchangeUsdtToken.sol\":21046:21068  _totalSupply -= amount */\n      dup3\n      dup3\n      sload\n      tag_292\n      swap2\n      swap1\n      tag_293\n      jump\t// in\n    tag_292:\n      swap3\n      pop\n      pop\n      dup2\n      swap1\n      sstore\n      pop\n        /* \"ex/exchangeUsdtToken.sol\":21110:21111  0 */\n      0x00\n        /* \"ex/exchangeUsdtToken.sol\":21084:21121  Transfer(account, address(0), amount) */\n      0xffffffffffffffffffffffffffffffffffffffff\n      and\n        /* \"ex/exchangeUsdtToken.sol\":21093:21100  account */\n      dup4\n        /* \"ex/exchangeUsdtToken.sol\":21084:21121  Transfer(account, address(0), amount) */\n      0xffffffffffffffffffffffffffffffffffffffff\n      and\n      0xddf252ad1be2c89b69c2b068fc378daa952ba7f163c4a11628f55a4df523b3ef\n        /* \"ex/exchangeUsdtToken.sol\":21114:21120  amount */\n      dup5\n        /* \"ex/exchangeUsdtToken.sol\":21084:21121  Transfer(account, address(0), amount) */\n      mload(0x40)\n      tag_294\n      swap2\n      swap1\n      tag_57\n      jump\t// in\n    tag_294:\n      mload(0x40)\n      dup1\n      swap2\n      sub\n      swap1\n      log3\n        /* \"ex/exchangeUsdtToken.sol\":20737:21129  {... */\n      pop\n        /* \"ex/exchangeUsdtToken.sol\":20675:21129  function _burn(address account, uint amount) internal virtual {... */\n      pop\n      pop\n      jump\t// out\n        /* \"ex/exchangeUsdtToken.sol\":4332:4523  function _transferOwnership(address newOwner) internal virtual {... */\n    tag_209:\n        /* \"ex/exchangeUsdtToken.sol\":4406:4422  address oldOwner */\n      0x00\n        /* \"ex/exchangeUsdtToken.sol\":4425:4431  _owner */\n      dup1\n      0x00\n      swap1\n      sload\n      swap1\n      0x0100\n      exp\n      swap1\n      div\n      0xffffffffffffffffffffffffffffffffffffffff\n      and\n        /* \"ex/exchangeUsdtToken.sol\":4406:4431  address oldOwner = _owner */\n      swap1\n      pop\n        /* \"ex/exchangeUsdtToken.sol\":4451:4459  newOwner */\n      dup2\n        /* \"ex/exchangeUsdtToken.sol\":4442:4448  _owner */\n      0x00\n      dup1\n        /* \"ex/exchangeUsdtToken.sol\":4442:4459  _owner = newOwner */\n      0x0100\n      exp\n      dup2\n      sload\n      dup2\n      0xffffffffffffffffffffffffffffffffffffffff\n      mul\n      not\n      and\n      swap1\n      dup4\n      0xffffffffffffffffffffffffffffffffffffffff\n      and\n      mul\n      or\n      swap1\n      sstore\n      pop\n        /* \"ex/exchangeUsdtToken.sol\":4506:4514  newOwner */\n      dup2\n        /* \"ex/exchangeUsdtToken.sol\":4475:4515  OwnershipTransferred(oldOwner, newOwner) */\n      0xffffffffffffffffffffffffffffffffffffffff\n      and\n        /* \"ex/exchangeUsdtToken.sol\":4496:4504  oldOwner */\n      dup2\n        /* \"ex/exchangeUsdtToken.sol\":4475:4515  OwnershipTransferred(oldOwner, newOwner) */\n      0xffffffffffffffffffffffffffffffffffffffff\n      and\n      0x8be0079c531659141344cd1fd0a4f28419497f9722a3daafe3b4186f6b6457e0\n      mload(0x40)\n      mload(0x40)\n      dup1\n      swap2\n      sub\n      swap1\n      log3\n        /* \"ex/exchangeUsdtToken.sol\":4395:4523  {... */\n      pop\n        /* \"ex/exchangeUsdtToken.sol\":4332:4523  function _transferOwnership(address newOwner) internal virtual {... */\n      pop\n      jump\t// out\n        /* \"ex/exchangeUsdtToken.sol\":21452:21990  function swapTokensForUsdt(uint256 tokenAmount) private lockTheSwap{... */\n    tag_280:\n        /* \"ex/exchangeUsdtToken.sol\":15608:15612  true */\n      0x01\n        /* \"ex/exchangeUsdtToken.sol\":15589:15605  inSwapAndLiquify */\n      0x07\n      0x14\n        /* \"ex/exchangeUsdtToken.sol\":15589:15612  inSwapAndLiquify = true */\n      0x0100\n      exp\n      dup2\n      sload\n      dup2\n      0xff\n      mul\n      not\n      and\n      swap1\n      dup4\n      iszero\n      iszero\n      mul\n      or\n      swap1\n      sstore\n      pop\n        /* \"ex/exchangeUsdtToken.sol\":21530:21551  address[] memory path */\n      0x00\n        /* \"ex/exchangeUsdtToken.sol\":21568:21569  2 */\n      0x02\n        /* \"ex/exchangeUsdtToken.sol\":21554:21570  new address[](2) */\n      0xffffffffffffffff\n      dup2\n      gt\n      iszero\n      tag_298\n      jumpi\n      tag_299\n      tag_300\n      jump\t// in\n    tag_299:\n    tag_298:\n      mload(0x40)\n      swap1\n      dup1\n      dup3\n      mstore\n      dup1\n      0x20\n      mul\n      0x20\n      add\n      dup3\n      add\n      0x40\n      mstore\n      dup1\n      iszero\n      tag_301\n      jumpi\n      dup2\n      0x20\n      add\n      0x20\n      dup3\n      mul\n      dup1\n      calldatasize\n      dup4\n      calldatacopy\n      dup1\n      dup3\n      add\n      swap2\n      pop\n      pop\n      swap1\n      pop\n    tag_301:\n      pop\n        /* \"ex/exchangeUsdtToken.sol\":21530:21570  address[] memory path = new address[](2) */\n      swap1\n      pop\n        /* \"ex/exchangeUsdtToken.sol\":21599:21603  this */\n      address\n        /* \"ex/exchangeUsdtToken.sol\":21581:21585  path */\n      dup2\n        /* \"ex/exchangeUsdtToken.sol\":21586:21587  0 */\n      0x00\n        /* \"ex/exchangeUsdtToken.sol\":21581:21588  path[0] */\n      dup2\n      mload\n      dup2\n      lt\n      tag_302\n      jumpi\n      tag_303\n      tag_304\n      jump\t// in\n    tag_303:\n    tag_302:\n      0x20\n      mul\n      0x20\n      add\n      add\n        /* \"ex/exchangeUsdtToken.sol\":21581:21604  path[0] = address(this) */\n      swap1\n      0xffffffffffffffffffffffffffffffffffffffff\n      and\n      swap1\n      dup2\n      0xffffffffffffffffffffffffffffffffffffffff\n      and\n      dup2\n      mstore\n      pop\n      pop\n        /* \"ex/exchangeUsdtToken.sol\":21625:21636  usdtAddress */\n      0x07\n      0x00\n      swap1\n      sload\n      swap1\n      0x0100\n      exp\n      swap1\n      div\n      0xffffffffffffffffffffffffffffffffffffffff\n      and\n        /* \"ex/exchangeUsdtToken.sol\":21615:21619  path */\n      dup2\n        /* \"ex/exchangeUsdtToken.sol\":21620:21621  1 */\n      0x01\n        /* \"ex/exchangeUsdtToken.sol\":21615:21622  path[1] */\n      dup2\n      mload\n      dup2\n      lt\n      tag_305\n      jumpi\n      tag_306\n      tag_304\n      jump\t// in\n    tag_306:\n    tag_305:\n      0x20\n      mul\n      0x20\n      add\n      add\n        /* \"ex/exchangeUsdtToken.sol\":21615:21636  path[1] = usdtAddress */\n      swap1\n      0xffffffffffffffffffffffffffffffffffffffff\n      and\n      swap1\n      dup2\n      0xffffffffffffffffffffffffffffffffffffffff\n      and\n      dup2\n      mstore\n      pop\n      pop\n        /* \"ex/exchangeUsdtToken.sol\":21647:21709  _approve(address(this), address(uniswapV2Router), tokenAmount) */\n      tag_307\n        /* \"ex/exchangeUsdtToken.sol\":21664:21668  this */\n      address\n        /* \"ex/exchangeUsdtToken.sol\":21679:21694  uniswapV2Router */\n      immutable(\"0xd7808f34137184ea2a76cdf5703a918f1c3466e73e7696015a370efc4f64aff7\")\n        /* \"ex/exchangeUsdtToken.sol\":21697:21708  tokenAmount */\n      dup5\n        /* \"ex/exchangeUsdtToken.sol\":21647:21655  _approve */\n      tag_164\n        /* \"ex/exchangeUsdtToken.sol\":21647:21709  _approve(address(this), address(uniswapV2Router), tokenAmount) */\n      jump\t// in\n    tag_307:\n        /* \"ex/exchangeUsdtToken.sol\":21720:21735  uniswapV2Router */\n      immutable(\"0xd7808f34137184ea2a76cdf5703a918f1c3466e73e7696015a370efc4f64aff7\")\n        /* \"ex/exchangeUsdtToken.sol\":21720:21786  uniswapV2Router.swapExactTokensForETHSupportingFeeOnTransferTokens */\n      0xffffffffffffffffffffffffffffffffffffffff\n      and\n      0x791ac947\n        /* \"ex/exchangeUsdtToken.sol\":21801:21812  tokenAmount */\n      dup4\n        /* \"ex/exchangeUsdtToken.sol\":21827:21828  0 */\n      0x00\n        /* \"ex/exchangeUsdtToken.sol\":21844:21848  path */\n      dup5\n        /* \"ex/exchangeUsdtToken.sol\":21871:21875  this */\n      address\n        /* \"ex/exchangeUsdtToken.sol\":21891:21906  block.timestamp */\n      timestamp\n        /* \"ex/exchangeUsdtToken.sol\":21720:21917  uniswapV2Router.swapExactTokensForETHSupportingFeeOnTransferTokens(... */\n      mload(0x40)\n      dup7\n      0xffffffff\n      and\n      0xe0\n      shl\n      dup2\n      mstore\n      0x04\n      add\n      tag_308\n      swap6\n      swap5\n      swap4\n      swap3\n      swap2\n      swap1\n      tag_309\n      jump\t// in\n    tag_308:\n      0x00\n      mload(0x40)\n      dup1\n      dup4\n      sub\n      dup2\n      0x00\n      dup8\n      dup1\n      extcodesize\n      iszero\n      dup1\n      iszero\n      tag_310\n      jumpi\n      0x00\n      dup1\n      revert\n    tag_310:\n      pop\n      gas\n      call\n      iszero\n      dup1\n      iszero\n      tag_312\n      jumpi\n      returndatasize\n      0x00\n      dup1\n      returndatacopy\n      revert(0x00, returndatasize)\n    tag_312:\n      pop\n      pop\n      pop\n      pop\n        /* \"ex/exchangeUsdtToken.sol\":21936:21949  marketAddress */\n      0x06\n      0x00\n      swap1\n      sload\n      swap1\n      0x0100\n      exp\n      swap1\n      div\n      0xffffffffffffffffffffffffffffffffffffffff\n      and\n        /* \"ex/exchangeUsdtToken.sol\":21928:21959  payable(marketAddress).transfer */\n      0xffffffffffffffffffffffffffffffffffffffff\n      and\n        /* \"ex/exchangeUsdtToken.sol\":21928:21982  payable(marketAddress).transfer(address(this).balance) */\n      0x08fc\n        /* \"ex/exchangeUsdtToken.sol\":21960:21981  address(this).balance */\n      selfbalance\n        /* \"ex/exchangeUsdtToken.sol\":21928:21982  payable(marketAddress).transfer(address(this).balance) */\n      swap1\n      dup2\n      iszero\n      mul\n      swap1\n      mload(0x40)\n      0x00\n      mload(0x40)\n      dup1\n      dup4\n      sub\n      dup2\n      dup6\n      dup9\n      dup9\n      call\n      swap4\n      pop\n      pop\n      pop\n      pop\n      iszero\n      dup1\n      iszero\n      tag_314\n      jumpi\n      returndatasize\n      0x00\n      dup1\n      returndatacopy\n      revert(0x00, returndatasize)\n    tag_314:\n      pop\n        /* \"ex/exchangeUsdtToken.sol\":21519:21990  {... */\n      pop\n        /* \"ex/exchangeUsdtToken.sol\":15654:15659  false */\n      0x00\n        /* \"ex/exchangeUsdtToken.sol\":15635:15651  inSwapAndLiquify */\n      0x07\n      0x14\n        /* \"ex/exchangeUsdtToken.sol\":15635:15659  inSwapAndLiquify = false */\n      0x0100\n      exp\n      dup2\n      sload\n      dup2\n      0xff\n      mul\n      not\n      and\n      swap1\n      dup4\n      iszero\n      iszero\n      mul\n      or\n      swap1\n      sstore\n      pop\n        /* \"ex/exchangeUsdtToken.sol\":21452:21990  function swapTokensForUsdt(uint256 tokenAmount) private lockTheSwap{... */\n      pop\n      jump\t// out\n        /* \"#utility.yul\":7:106   */\n    tag_315:\n        /* \"#utility.yul\":59:65   */\n      0x00\n        /* \"#utility.yul\":93:98   */\n      dup2\n        /* \"#utility.yul\":87:99   */\n      mload\n        /* \"#utility.yul\":77:99   */\n      swap1\n      pop\n        /* \"#utility.yul\":7:106   */\n      swap2\n      swap1\n      pop\n      jump\t// out\n        /* \"#utility.yul\":112:281   */\n    tag_316:\n        /* \"#utility.yul\":196:207   */\n      0x00\n        /* \"#utility.yul\":230:236   */\n      dup3\n        /* \"#utility.yul\":225:228   */\n      dup3\n        /* \"#utility.yul\":218:237   */\n      mstore\n        /* \"#utility.yul\":270:274   */\n      0x20\n        /* \"#utility.yul\":265:268   */\n      dup3\n        /* \"#utility.yul\":261:275   */\n      add\n        /* \"#utility.yul\":246:275   */\n      swap1\n      pop\n        /* \"#utility.yul\":112:281   */\n      swap3\n      swap2\n      pop\n      pop\n      jump\t// out\n        /* \"#utility.yul\":287:533   */\n    tag_317:\n        /* \"#utility.yul\":368:369   */\n      0x00\n        /* \"#utility.yul\":378:491   */\n    tag_377:\n        /* \"#utility.yul\":392:398   */\n      dup4\n        /* \"#utility.yul\":389:390   */\n      dup2\n        /* \"#utility.yul\":386:399   */\n      lt\n        /* \"#utility.yul\":378:491   */\n      iszero\n      tag_379\n      jumpi\n        /* \"#utility.yul\":477:478   */\n      dup1\n        /* \"#utility.yul\":472:475   */\n      dup3\n        /* \"#utility.yul\":468:479   */\n      add\n        /* \"#utility.yul\":462:480   */\n      mload\n        /* \"#utility.yul\":458:459   */\n      dup2\n        /* \"#utility.yul\":453:456   */\n      dup5\n        /* \"#utility.yul\":449:460   */\n      add\n        /* \"#utility.yul\":442:481   */\n      mstore\n        /* \"#utility.yul\":414:416   */\n      0x20\n        /* \"#utility.yul\":411:412   */\n      dup2\n        /* \"#utility.yul\":407:417   */\n      add\n        /* \"#utility.yul\":402:417   */\n      swap1\n      pop\n        /* \"#utility.yul\":378:491   */\n      jump(tag_377)\n    tag_379:\n        /* \"#utility.yul\":525:526   */\n      0x00\n        /* \"#utility.yul\":516:522   */\n      dup5\n        /* \"#utility.yul\":511:514   */\n      dup5\n        /* \"#utility.yul\":507:523   */\n      add\n        /* \"#utility.yul\":500:527   */\n      mstore\n        /* \"#utility.yul\":349:533   */\n      pop\n        /* \"#utility.yul\":287:533   */\n      pop\n      pop\n      pop\n      jump\t// out\n        /* \"#utility.yul\":539:641   */\n    tag_318:\n        /* \"#utility.yul\":580:586   */\n      0x00\n        /* \"#utility.yul\":631:633   */\n      0x1f\n        /* \"#utility.yul\":627:634   */\n      not\n        /* \"#utility.yul\":622:624   */\n      0x1f\n        /* \"#utility.yul\":615:620   */\n      dup4\n        /* \"#utility.yul\":611:625   */\n      add\n        /* \"#utility.yul\":607:635   */\n      and\n        /* \"#utility.yul\":597:635   */\n      swap1\n      pop\n        /* \"#utility.yul\":539:641   */\n      swap2\n      swap1\n      pop\n      jump\t// out\n        /* \"#utility.yul\":647:1024   */\n    tag_319:\n        /* \"#utility.yul\":735:738   */\n      0x00\n        /* \"#utility.yul\":763:802   */\n      tag_382\n        /* \"#utility.yul\":796:801   */\n      dup3\n        /* \"#utility.yul\":763:802   */\n      tag_315\n      jump\t// in\n    tag_382:\n        /* \"#utility.yul\":818:889   */\n      tag_383\n        /* \"#utility.yul\":882:888   */\n      dup2\n        /* \"#utility.yul\":877:880   */\n      dup6\n        /* \"#utility.yul\":818:889   */\n      tag_316\n      jump\t// in\n    tag_383:\n        /* \"#utility.yul\":811:889   */\n      swap4\n      pop\n        /* \"#utility.yul\":898:963   */\n      tag_384\n        /* \"#utility.yul\":956:962   */\n      dup2\n        /* \"#utility.yul\":951:954   */\n      dup6\n        /* \"#utility.yul\":944:948   */\n      0x20\n        /* \"#utility.yul\":937:942   */\n      dup7\n        /* \"#utility.yul\":933:949   */\n      add\n        /* \"#utility.yul\":898:963   */\n      tag_317\n      jump\t// in\n    tag_384:\n        /* \"#utility.yul\":988:1017   */\n      tag_385\n        /* \"#utility.yul\":1010:1016   */\n      dup2\n        /* \"#utility.yul\":988:1017   */\n      tag_318\n      jump\t// in\n    tag_385:\n        /* \"#utility.yul\":983:986   */\n      dup5\n        /* \"#utility.yul\":979:1018   */\n      add\n        /* \"#utility.yul\":972:1018   */\n      swap2\n      pop\n        /* \"#utility.yul\":739:1024   */\n      pop\n        /* \"#utility.yul\":647:1024   */\n      swap3\n      swap2\n      pop\n      pop\n      jump\t// out\n        /* \"#utility.yul\":1030:1343   */\n    tag_40:\n        /* \"#utility.yul\":1143:1147   */\n      0x00\n        /* \"#utility.yul\":1181:1183   */\n      0x20\n        /* \"#utility.yul\":1170:1179   */\n      dup3\n        /* \"#utility.yul\":1166:1184   */\n      add\n        /* \"#utility.yul\":1158:1184   */\n      swap1\n      pop\n        /* \"#utility.yul\":1230:1239   */\n      dup2\n        /* \"#utility.yul\":1224:1228   */\n      dup2\n        /* \"#utility.yul\":1220:1240   */\n      sub\n        /* \"#utility.yul\":1216:1217   */\n      0x00\n        /* \"#utility.yul\":1205:1214   */\n      dup4\n        /* \"#utility.yul\":1201:1218   */\n      add\n        /* \"#utility.yul\":1194:1241   */\n      mstore\n        /* \"#utility.yul\":1258:1336   */\n      tag_387\n        /* \"#utility.yul\":1331:1335   */\n      dup2\n        /* \"#utility.yul\":1322:1328   */\n      dup5\n        /* \"#utility.yul\":1258:1336   */\n      tag_319\n      jump\t// in\n    tag_387:\n        /* \"#utility.yul\":1250:1336   */\n      swap1\n      pop\n        /* \"#utility.yul\":1030:1343   */\n      swap3\n      swap2\n      pop\n      pop\n      jump\t// out\n        /* \"#utility.yul\":1430:1547   */\n    tag_321:\n        /* \"#utility.yul\":1539:1540   */\n      0x00\n        /* \"#utility.yul\":1536:1537   */\n      dup1\n        /* \"#utility.yul\":1529:1541   */\n      revert\n        /* \"#utility.yul\":1676:1802   */\n    tag_323:\n        /* \"#utility.yul\":1713:1720   */\n      0x00\n        /* \"#utility.yul\":1753:1795   */\n      0xffffffffffffffffffffffffffffffffffffffff\n        /* \"#utility.yul\":1746:1751   */\n      dup3\n        /* \"#utility.yul\":1742:1796   */\n      and\n        /* \"#utility.yul\":1731:1796   */\n      swap1\n      pop\n        /* \"#utility.yul\":1676:1802   */\n      swap2\n      swap1\n      pop\n      jump\t// out\n        /* \"#utility.yul\":1808:1904   */\n    tag_324:\n        /* \"#utility.yul\":1845:1852   */\n      0x00\n        /* \"#utility.yul\":1874:1898   */\n      tag_393\n        /* \"#utility.yul\":1892:1897   */\n      dup3\n        /* \"#utility.yul\":1874:1898   */\n      tag_323\n      jump\t// in\n    tag_393:\n        /* \"#utility.yul\":1863:1898   */\n      swap1\n      pop\n        /* \"#utility.yul\":1808:1904   */\n      swap2\n      swap1\n      pop\n      jump\t// out\n        /* \"#utility.yul\":1910:2032   */\n    tag_325:\n        /* \"#utility.yul\":1983:2007   */\n      tag_395\n        /* \"#utility.yul\":2001:2006   */\n      dup2\n        /* \"#utility.yul\":1983:2007   */\n      tag_324\n      jump\t// in\n    tag_395:\n        /* \"#utility.yul\":1976:1981   */\n      dup2\n        /* \"#utility.yul\":1973:2008   */\n      eq\n        /* \"#utility.yul\":1963:2026   */\n      tag_396\n      jumpi\n        /* \"#utility.yul\":2022:2023   */\n      0x00\n        /* \"#utility.yul\":2019:2020   */\n      dup1\n        /* \"#utility.yul\":2012:2024   */\n      revert\n        /* \"#utility.yul\":1963:2026   */\n    tag_396:\n        /* \"#utility.yul\":1910:2032   */\n      pop\n      jump\t// out\n        /* \"#utility.yul\":2038:2177   */\n    tag_326:\n        /* \"#utility.yul\":2084:2089   */\n      0x00\n        /* \"#utility.yul\":2122:2128   */\n      dup2\n        /* \"#utility.yul\":2109:2129   */\n      calldataload\n        /* \"#utility.yul\":2100:2129   */\n      swap1\n      pop\n        /* \"#utility.yul\":2138:2171   */\n      tag_398\n        /* \"#utility.yul\":2165:2170   */\n      dup2\n        /* \"#utility.yul\":2138:2171   */\n      tag_325\n      jump\t// in\n    tag_398:\n        /* \"#utility.yul\":2038:2177   */\n      swap3\n      swap2\n      pop\n      pop\n      jump\t// out\n        /* \"#utility.yul\":2183:2260   */\n    tag_327:\n        /* \"#utility.yul\":2220:2227   */\n      0x00\n        /* \"#utility.yul\":2249:2254   */\n      dup2\n        /* \"#utility.yul\":2238:2254   */\n      swap1\n      pop\n        /* \"#utility.yul\":2183:2260   */\n      swap2\n      swap1\n      pop\n      jump\t// out\n        /* \"#utility.yul\":2266:2388   */\n    tag_328:\n        /* \"#utility.yul\":2339:2363   */\n      tag_401\n        /* \"#utility.yul\":2357:2362   */\n      dup2\n        /* \"#utility.yul\":2339:2363   */\n      tag_327\n      jump\t// in\n    tag_401:\n        /* \"#utility.yul\":2332:2337   */\n      dup2\n        /* \"#utility.yul\":2329:2364   */\n      eq\n        /* \"#utility.yul\":2319:2382   */\n      tag_402\n      jumpi\n        /* \"#utility.yul\":2378:2379   */\n      0x00\n        /* \"#utility.yul\":2375:2376   */\n      dup1\n        /* \"#utility.yul\":2368:2380   */\n      revert\n        /* \"#utility.yul\":2319:2382   */\n    tag_402:\n        /* \"#utility.yul\":2266:2388   */\n      pop\n      jump\t// out\n        /* \"#utility.yul\":2394:2533   */\n    tag_329:\n        /* \"#utility.yul\":2440:2445   */\n      0x00\n        /* \"#utility.yul\":2478:2484   */\n      dup2\n        /* \"#utility.yul\":2465:2485   */\n      calldataload\n        /* \"#utility.yul\":2456:2485   */\n      swap1\n      pop\n        /* \"#utility.yul\":2494:2527   */\n      tag_404\n        /* \"#utility.yul\":2521:2526   */\n      dup2\n        /* \"#utility.yul\":2494:2527   */\n      tag_328\n      jump\t// in\n    tag_404:\n        /* \"#utility.yul\":2394:2533   */\n      swap3\n      swap2\n      pop\n      pop\n      jump\t// out\n        /* \"#utility.yul\":2539:3013   */\n    tag_44:\n        /* \"#utility.yul\":2607:2613   */\n      0x00\n        /* \"#utility.yul\":2615:2621   */\n      dup1\n        /* \"#utility.yul\":2664:2666   */\n      0x40\n        /* \"#utility.yul\":2652:2661   */\n      dup4\n        /* \"#utility.yul\":2643:2650   */\n      dup6\n        /* \"#utility.yul\":2639:2662   */\n      sub\n        /* \"#utility.yul\":2635:2667   */\n      slt\n        /* \"#utility.yul\":2632:2751   */\n      iszero\n      tag_406\n      jumpi\n        /* \"#utility.yul\":2670:2749   */\n      tag_407\n      tag_321\n      jump\t// in\n    tag_407:\n        /* \"#utility.yul\":2632:2751   */\n    tag_406:\n        /* \"#utility.yul\":2790:2791   */\n      0x00\n        /* \"#utility.yul\":2815:2868   */\n      tag_408\n        /* \"#utility.yul\":2860:2867   */\n      dup6\n        /* \"#utility.yul\":2851:2857   */\n      dup3\n        /* \"#utility.yul\":2840:2849   */\n      dup7\n        /* \"#utility.yul\":2836:2858   */\n      add\n        /* \"#utility.yul\":2815:2868   */\n      tag_326\n      jump\t// in\n    tag_408:\n        /* \"#utility.yul\":2805:2868   */\n      swap3\n      pop\n        /* \"#utility.yul\":2761:2878   */\n      pop\n        /* \"#utility.yul\":2917:2919   */\n      0x20\n        /* \"#utility.yul\":2943:2996   */\n      tag_409\n        /* \"#utility.yul\":2988:2995   */\n      dup6\n        /* \"#utility.yul\":2979:2985   */\n      dup3\n        /* \"#utility.yul\":2968:2977   */\n      dup7\n        /* \"#utility.yul\":2964:2986   */\n      add\n        /* \"#utility.yul\":2943:2996   */\n      tag_329\n      jump\t// in\n    tag_409:\n        /* \"#utility.yul\":2933:2996   */\n      swap2\n      pop\n        /* \"#utility.yul\":2888:3006   */\n      pop\n        /* \"#utility.yul\":2539:3013   */\n      swap3\n      pop\n      swap3\n      swap1\n      pop\n      jump\t// out\n        /* \"#utility.yul\":3019:3109   */\n    tag_330:\n        /* \"#utility.yul\":3053:3060   */\n      0x00\n        /* \"#utility.yul\":3096:3101   */\n      dup2\n        /* \"#utility.yul\":3089:3102   */\n      iszero\n        /* \"#utility.yul\":3082:3103   */\n      iszero\n        /* \"#utility.yul\":3071:3103   */\n      swap1\n      pop\n        /* \"#utility.yul\":3019:3109   */\n      swap2\n      swap1\n      pop\n      jump\t// out\n        /* \"#utility.yul\":3115:3224   */\n    tag_331:\n        /* \"#utility.yul\":3196:3217   */\n      tag_412\n        /* \"#utility.yul\":3211:3216   */\n      dup2\n        /* \"#utility.yul\":3196:3217   */\n      tag_330\n      jump\t// in\n    tag_412:\n        /* \"#utility.yul\":3191:3194   */\n      dup3\n        /* \"#utility.yul\":3184:3218   */\n      mstore\n        /* \"#utility.yul\":3115:3224   */\n      pop\n      pop\n      jump\t// out\n        /* \"#utility.yul\":3230:3440   */\n    tag_47:\n        /* \"#utility.yul\":3317:3321   */\n      0x00\n        /* \"#utility.yul\":3355:3357   */\n      0x20\n        /* \"#utility.yul\":3344:3353   */\n      dup3\n        /* \"#utility.yul\":3340:3358   */\n      add\n        /* \"#utility.yul\":3332:3358   */\n      swap1\n      pop\n        /* \"#utility.yul\":3368:3433   */\n      tag_414\n        /* \"#utility.yul\":3430:3431   */\n      0x00\n        /* \"#utility.yul\":3419:3428   */\n      dup4\n        /* \"#utility.yul\":3415:3432   */\n      add\n        /* \"#utility.yul\":3406:3412   */\n      dup5\n        /* \"#utility.yul\":3368:3433   */\n      tag_331\n      jump\t// in\n    tag_414:\n        /* \"#utility.yul\":3230:3440   */\n      swap3\n      swap2\n      pop\n      pop\n      jump\t// out\n        /* \"#utility.yul\":3446:3506   */\n    tag_332:\n        /* \"#utility.yul\":3474:3477   */\n      0x00\n        /* \"#utility.yul\":3495:3500   */\n      dup2\n        /* \"#utility.yul\":3488:3500   */\n      swap1\n      pop\n        /* \"#utility.yul\":3446:3506   */\n      swap2\n      swap1\n      pop\n      jump\t// out\n        /* \"#utility.yul\":3512:3654   */\n    tag_333:\n        /* \"#utility.yul\":3562:3571   */\n      0x00\n        /* \"#utility.yul\":3595:3648   */\n      tag_417\n        /* \"#utility.yul\":3613:3647   */\n      tag_418\n        /* \"#utility.yul\":3622:3646   */\n      tag_419\n        /* \"#utility.yul\":3640:3645   */\n      dup5\n        /* \"#utility.yul\":3622:3646   */\n      tag_323\n      jump\t// in\n    tag_419:\n        /* \"#utility.yul\":3613:3647   */\n      tag_332\n      jump\t// in\n    tag_418:\n        /* \"#utility.yul\":3595:3648   */\n      tag_323\n      jump\t// in\n    tag_417:\n        /* \"#utility.yul\":3582:3648   */\n      swap1\n      pop\n        /* \"#utility.yul\":3512:3654   */\n      swap2\n      swap1\n      pop\n      jump\t// out\n        /* \"#utility.yul\":3660:3786   */\n    tag_334:\n        /* \"#utility.yul\":3710:3719   */\n      0x00\n        /* \"#utility.yul\":3743:3780   */\n      tag_421\n        /* \"#utility.yul\":3774:3779   */\n      dup3\n        /* \"#utility.yul\":3743:3780   */\n      tag_333\n      jump\t// in\n    tag_421:\n        /* \"#utility.yul\":3730:3780   */\n      swap1\n      pop\n        /* \"#utility.yul\":3660:3786   */\n      swap2\n      swap1\n      pop\n      jump\t// out\n        /* \"#utility.yul\":3792:3949   */\n    tag_335:\n        /* \"#utility.yul\":3873:3882   */\n      0x00\n        /* \"#utility.yul\":3906:3943   */\n      tag_423\n        /* \"#utility.yul\":3937:3942   */\n      dup3\n        /* \"#utility.yul\":3906:3943   */\n      tag_334\n      jump\t// in\n    tag_423:\n        /* \"#utility.yul\":3893:3943   */\n      swap1\n      pop\n        /* \"#utility.yul\":3792:3949   */\n      swap2\n      swap1\n      pop\n      jump\t// out\n        /* \"#utility.yul\":3955:4148   */\n    tag_336:\n        /* \"#utility.yul\":4073:4141   */\n      tag_425\n        /* \"#utility.yul\":4135:4140   */\n      dup2\n        /* \"#utility.yul\":4073:4141   */\n      tag_335\n      jump\t// in\n    tag_425:\n        /* \"#utility.yul\":4068:4071   */\n      dup3\n        /* \"#utility.yul\":4061:4142   */\n      mstore\n        /* \"#utility.yul\":3955:4148   */\n      pop\n      pop\n      jump\t// out\n        /* \"#utility.yul\":4154:4438   */\n    tag_52:\n        /* \"#utility.yul\":4278:4282   */\n      0x00\n        /* \"#utility.yul\":4316:4318   */\n      0x20\n        /* \"#utility.yul\":4305:4314   */\n      dup3\n        /* \"#utility.yul\":4301:4319   */\n      add\n        /* \"#utility.yul\":4293:4319   */\n      swap1\n      pop\n        /* \"#utility.yul\":4329:4431   */\n      tag_427\n        /* \"#utility.yul\":4428:4429   */\n      0x00\n        /* \"#utility.yul\":4417:4426   */\n      dup4\n        /* \"#utility.yul\":4413:4430   */\n      add\n        /* \"#utility.yul\":4404:4410   */\n      dup5\n        /* \"#utility.yul\":4329:4431   */\n      tag_336\n      jump\t// in\n    tag_427:\n        /* \"#utility.yul\":4154:4438   */\n      swap3\n      swap2\n      pop\n      pop\n      jump\t// out\n        /* \"#utility.yul\":4444:4562   */\n    tag_337:\n        /* \"#utility.yul\":4531:4555   */\n      tag_429\n        /* \"#utility.yul\":4549:4554   */\n      dup2\n        /* \"#utility.yul\":4531:4555   */\n      tag_327\n      jump\t// in\n    tag_429:\n        /* \"#utility.yul\":4526:4529   */\n      dup3\n        /* \"#utility.yul\":4519:4556   */\n      mstore\n        /* \"#utility.yul\":4444:4562   */\n      pop\n      pop\n      jump\t// out\n        /* \"#utility.yul\":4568:4790   */\n    tag_57:\n        /* \"#utility.yul\":4661:4665   */\n      0x00\n        /* \"#utility.yul\":4699:4701   */\n      0x20\n        /* \"#utility.yul\":4688:4697   */\n      dup3\n        /* \"#utility.yul\":4684:4702   */\n      add\n        /* \"#utility.yul\":4676:4702   */\n      swap1\n      pop\n        /* \"#utility.yul\":4712:4783   */\n      tag_431\n        /* \"#utility.yul\":4780:4781   */\n      0x00\n        /* \"#utility.yul\":4769:4778   */\n      dup4\n        /* \"#utility.yul\":4765:4782   */\n      add\n        /* \"#utility.yul\":4756:4762   */\n      dup5\n        /* \"#utility.yul\":4712:4783   */\n      tag_337\n      jump\t// in\n    tag_431:\n        /* \"#utility.yul\":4568:4790   */\n      swap3\n      swap2\n      pop\n      pop\n      jump\t// out\n        /* \"#utility.yul\":4796:5415   */\n    tag_61:\n        /* \"#utility.yul\":4873:4879   */\n      0x00\n        /* \"#utility.yul\":4881:4887   */\n      dup1\n        /* \"#utility.yul\":4889:4895   */\n      0x00\n        /* \"#utility.yul\":4938:4940   */\n      0x60\n        /* \"#utility.yul\":4926:4935   */\n      dup5\n        /* \"#utility.yul\":4917:4924   */\n      dup7\n        /* \"#utility.yul\":4913:4936   */\n      sub\n        /* \"#utility.yul\":4909:4941   */\n      slt\n        /* \"#utility.yul\":4906:5025   */\n      iszero\n      tag_433\n      jumpi\n        /* \"#utility.yul\":4944:5023   */\n      tag_434\n      tag_321\n      jump\t// in\n    tag_434:\n        /* \"#utility.yul\":4906:5025   */\n    tag_433:\n        /* \"#utility.yul\":5064:5065   */\n      0x00\n        /* \"#utility.yul\":5089:5142   */\n      tag_435\n        /* \"#utility.yul\":5134:5141   */\n      dup7\n        /* \"#utility.yul\":5125:5131   */\n      dup3\n        /* \"#utility.yul\":5114:5123   */\n      dup8\n        /* \"#utility.yul\":5110:5132   */\n      add\n        /* \"#utility.yul\":5089:5142   */\n      tag_326\n      jump\t// in\n    tag_435:\n        /* \"#utility.yul\":5079:5142   */\n      swap4\n      pop\n        /* \"#utility.yul\":5035:5152   */\n      pop\n        /* \"#utility.yul\":5191:5193   */\n      0x20\n        /* \"#utility.yul\":5217:5270   */\n      tag_436\n        /* \"#utility.yul\":5262:5269   */\n      dup7\n        /* \"#utility.yul\":5253:5259   */\n      dup3\n        /* \"#utility.yul\":5242:5251   */\n      dup8\n        /* \"#utility.yul\":5238:5260   */\n      add\n        /* \"#utility.yul\":5217:5270   */\n      tag_326\n      jump\t// in\n    tag_436:\n        /* \"#utility.yul\":5207:5270   */\n      swap3\n      pop\n        /* \"#utility.yul\":5162:5280   */\n      pop\n        /* \"#utility.yul\":5319:5321   */\n      0x40\n        /* \"#utility.yul\":5345:5398   */\n      tag_437\n        /* \"#utility.yul\":5390:5397   */\n      dup7\n        /* \"#utility.yul\":5381:5387   */\n      dup3\n        /* \"#utility.yul\":5370:5379   */\n      dup8\n        /* \"#utility.yul\":5366:5388   */\n      add\n        /* \"#utility.yul\":5345:5398   */\n      tag_329\n      jump\t// in\n    tag_437:\n        /* \"#utility.yul\":5335:5398   */\n      swap2\n      pop\n        /* \"#utility.yul\":5290:5408   */\n      pop\n        /* \"#utility.yul\":4796:5415   */\n      swap3\n      pop\n      swap3\n      pop\n      swap3\n      jump\t// out\n        /* \"#utility.yul\":5421:5507   */\n    tag_338:\n        /* \"#utility.yul\":5456:5463   */\n      0x00\n        /* \"#utility.yul\":5496:5500   */\n      0xff\n        /* \"#utility.yul\":5489:5494   */\n      dup3\n        /* \"#utility.yul\":5485:5501   */\n      and\n        /* \"#utility.yul\":5474:5501   */\n      swap1\n      pop\n        /* \"#utility.yul\":5421:5507   */\n      swap2\n      swap1\n      pop\n      jump\t// out\n        /* \"#utility.yul\":5513:5625   */\n    tag_339:\n        /* \"#utility.yul\":5596:5618   */\n      tag_440\n        /* \"#utility.yul\":5612:5617   */\n      dup2\n        /* \"#utility.yul\":5596:5618   */\n      tag_338\n      jump\t// in\n    tag_440:\n        /* \"#utility.yul\":5591:5594   */\n      dup3\n        /* \"#utility.yul\":5584:5619   */\n      mstore\n        /* \"#utility.yul\":5513:5625   */\n      pop\n      pop\n      jump\t// out\n        /* \"#utility.yul\":5631:5845   */\n    tag_68:\n        /* \"#utility.yul\":5720:5724   */\n      0x00\n        /* \"#utility.yul\":5758:5760   */\n      0x20\n        /* \"#utility.yul\":5747:5756   */\n      dup3\n        /* \"#utility.yul\":5743:5761   */\n      add\n        /* \"#utility.yul\":5735:5761   */\n      swap1\n      pop\n        /* \"#utility.yul\":5771:5838   */\n      tag_442\n        /* \"#utility.yul\":5835:5836   */\n      0x00\n        /* \"#utility.yul\":5824:5833   */\n      dup4\n        /* \"#utility.yul\":5820:5837   */\n      add\n        /* \"#utility.yul\":5811:5817   */\n      dup5\n        /* \"#utility.yul\":5771:5838   */\n      tag_339\n      jump\t// in\n    tag_442:\n        /* \"#utility.yul\":5631:5845   */\n      swap3\n      swap2\n      pop\n      pop\n      jump\t// out\n        /* \"#utility.yul\":5851:6180   */\n    tag_77:\n        /* \"#utility.yul\":5910:5916   */\n      0x00\n        /* \"#utility.yul\":5959:5961   */\n      0x20\n        /* \"#utility.yul\":5947:5956   */\n      dup3\n        /* \"#utility.yul\":5938:5945   */\n      dup5\n        /* \"#utility.yul\":5934:5957   */\n      sub\n        /* \"#utility.yul\":5930:5962   */\n      slt\n        /* \"#utility.yul\":5927:6046   */\n      iszero\n      tag_444\n      jumpi\n        /* \"#utility.yul\":5965:6044   */\n      tag_445\n      tag_321\n      jump\t// in\n    tag_445:\n        /* \"#utility.yul\":5927:6046   */\n    tag_444:\n        /* \"#utility.yul\":6085:6086   */\n      0x00\n        /* \"#utility.yul\":6110:6163   */\n      tag_446\n        /* \"#utility.yul\":6155:6162   */\n      dup5\n        /* \"#utility.yul\":6146:6152   */\n      dup3\n        /* \"#utility.yul\":6135:6144   */\n      dup6\n        /* \"#utility.yul\":6131:6153   */\n      add\n        /* \"#utility.yul\":6110:6163   */\n      tag_329\n      jump\t// in\n    tag_446:\n        /* \"#utility.yul\":6100:6163   */\n      swap2\n      pop\n        /* \"#utility.yul\":6056:6173   */\n      pop\n        /* \"#utility.yul\":5851:6180   */\n      swap3\n      swap2\n      pop\n      pop\n      jump\t// out\n        /* \"#utility.yul\":6186:6304   */\n    tag_340:\n        /* \"#utility.yul\":6273:6297   */\n      tag_448\n        /* \"#utility.yul\":6291:6296   */\n      dup2\n        /* \"#utility.yul\":6273:6297   */\n      tag_324\n      jump\t// in\n    tag_448:\n        /* \"#utility.yul\":6268:6271   */\n      dup3\n        /* \"#utility.yul\":6261:6298   */\n      mstore\n        /* \"#utility.yul\":6186:6304   */\n      pop\n      pop\n      jump\t// out\n        /* \"#utility.yul\":6310:6532   */\n    tag_83:\n        /* \"#utility.yul\":6403:6407   */\n      0x00\n        /* \"#utility.yul\":6441:6443   */\n      0x20\n        /* \"#utility.yul\":6430:6439   */\n      dup3\n        /* \"#utility.yul\":6426:6444   */\n      add\n        /* \"#utility.yul\":6418:6444   */\n      swap1\n      pop\n        /* \"#utility.yul\":6454:6525   */\n      tag_450\n        /* \"#utility.yul\":6522:6523   */\n      0x00\n        /* \"#utility.yul\":6511:6520   */\n      dup4\n        /* \"#utility.yul\":6507:6524   */\n      add\n        /* \"#utility.yul\":6498:6504   */\n      dup5\n        /* \"#utility.yul\":6454:6525   */\n      tag_340\n      jump\t// in\n    tag_450:\n        /* \"#utility.yul\":6310:6532   */\n      swap3\n      swap2\n      pop\n      pop\n      jump\t// out\n        /* \"#utility.yul\":6538:6867   */\n    tag_91:\n        /* \"#utility.yul\":6597:6603   */\n      0x00\n        /* \"#utility.yul\":6646:6648   */\n      0x20\n        /* \"#utility.yul\":6634:6643   */\n      dup3\n        /* \"#utility.yul\":6625:6632   */\n      dup5\n        /* \"#utility.yul\":6621:6644   */\n      sub\n        /* \"#utility.yul\":6617:6649   */\n      slt\n        /* \"#utility.yul\":6614:6733   */\n      iszero\n      tag_452\n      jumpi\n        /* \"#utility.yul\":6652:6731   */\n      tag_453\n      tag_321\n      jump\t// in\n    tag_453:\n        /* \"#utility.yul\":6614:6733   */\n    tag_452:\n        /* \"#utility.yul\":6772:6773   */\n      0x00\n        /* \"#utility.yul\":6797:6850   */\n      tag_454\n        /* \"#utility.yul\":6842:6849   */\n      dup5\n        /* \"#utility.yul\":6833:6839   */\n      dup3\n        /* \"#utility.yul\":6822:6831   */\n      dup6\n        /* \"#utility.yul\":6818:6840   */\n      add\n        /* \"#utility.yul\":6797:6850   */\n      tag_326\n      jump\t// in\n    tag_454:\n        /* \"#utility.yul\":6787:6850   */\n      swap2\n      pop\n        /* \"#utility.yul\":6743:6860   */\n      pop\n        /* \"#utility.yul\":6538:6867   */\n      swap3\n      swap2\n      pop\n      pop\n      jump\t// out\n        /* \"#utility.yul\":6873:6989   */\n    tag_341:\n        /* \"#utility.yul\":6943:6964   */\n      tag_456\n        /* \"#utility.yul\":6958:6963   */\n      dup2\n        /* \"#utility.yul\":6943:6964   */\n      tag_330\n      jump\t// in\n    tag_456:\n        /* \"#utility.yul\":6936:6941   */\n      dup2\n        /* \"#utility.yul\":6933:6965   */\n      eq\n        /* \"#utility.yul\":6923:6983   */\n      tag_457\n      jumpi\n        /* \"#utility.yul\":6979:6980   */\n      0x00\n        /* \"#utility.yul\":6976:6977   */\n      dup1\n        /* \"#utility.yul\":6969:6981   */\n      revert\n        /* \"#utility.yul\":6923:6983   */\n    tag_457:\n        /* \"#utility.yul\":6873:6989   */\n      pop\n      jump\t// out\n        /* \"#utility.yul\":6995:7128   */\n    tag_342:\n        /* \"#utility.yul\":7038:7043   */\n      0x00\n        /* \"#utility.yul\":7076:7082   */\n      dup2\n        /* \"#utility.yul\":7063:7083   */\n      calldataload\n        /* \"#utility.yul\":7054:7083   */\n      swap1\n      pop\n        /* \"#utility.yul\":7092:7122   */\n      tag_459\n        /* \"#utility.yul\":7116:7121   */\n      dup2\n        /* \"#utility.yul\":7092:7122   */\n      tag_341\n      jump\t// in\n    tag_459:\n        /* \"#utility.yul\":6995:7128   */\n      swap3\n      swap2\n      pop\n      pop\n      jump\t// out\n        /* \"#utility.yul\":7134:7457   */\n    tag_134:\n        /* \"#utility.yul\":7190:7196   */\n      0x00\n        /* \"#utility.yul\":7239:7241   */\n      0x20\n        /* \"#utility.yul\":7227:7236   */\n      dup3\n        /* \"#utility.yul\":7218:7225   */\n      dup5\n        /* \"#utility.yul\":7214:7237   */\n      sub\n        /* \"#utility.yul\":7210:7242   */\n      slt\n        /* \"#utility.yul\":7207:7326   */\n      iszero\n      tag_461\n      jumpi\n        /* \"#utility.yul\":7245:7324   */\n      tag_462\n      tag_321\n      jump\t// in\n    tag_462:\n        /* \"#utility.yul\":7207:7326   */\n    tag_461:\n        /* \"#utility.yul\":7365:7366   */\n      0x00\n        /* \"#utility.yul\":7390:7440   */\n      tag_463\n        /* \"#utility.yul\":7432:7439   */\n      dup5\n        /* \"#utility.yul\":7423:7429   */\n      dup3\n        /* \"#utility.yul\":7412:7421   */\n      dup6\n        /* \"#utility.yul\":7408:7430   */\n      add\n        /* \"#utility.yul\":7390:7440   */\n      tag_342\n      jump\t// in\n    tag_463:\n        /* \"#utility.yul\":7380:7440   */\n      swap2\n      pop\n        /* \"#utility.yul\":7336:7450   */\n      pop\n        /* \"#utility.yul\":7134:7457   */\n      swap3\n      swap2\n      pop\n      pop\n      jump\t// out\n        /* \"#utility.yul\":7463:7937   */\n    tag_142:\n        /* \"#utility.yul\":7531:7537   */\n      0x00\n        /* \"#utility.yul\":7539:7545   */\n      dup1\n        /* \"#utility.yul\":7588:7590   */\n      0x40\n        /* \"#utility.yul\":7576:7585   */\n      dup4\n        /* \"#utility.yul\":7567:7574   */\n      dup6\n        /* \"#utility.yul\":7563:7586   */\n      sub\n        /* \"#utility.yul\":7559:7591   */\n      slt\n        /* \"#utility.yul\":7556:7675   */\n      iszero\n      tag_465\n      jumpi\n        /* \"#utility.yul\":7594:7673   */\n      tag_466\n      tag_321\n      jump\t// in\n    tag_466:\n        /* \"#utility.yul\":7556:7675   */\n    tag_465:\n        /* \"#utility.yul\":7714:7715   */\n      0x00\n        /* \"#utility.yul\":7739:7792   */\n      tag_467\n        /* \"#utility.yul\":7784:7791   */\n      dup6\n        /* \"#utility.yul\":7775:7781   */\n      dup3\n        /* \"#utility.yul\":7764:7773   */\n      dup7\n        /* \"#utility.yul\":7760:7782   */\n      add\n        /* \"#utility.yul\":7739:7792   */\n      tag_326\n      jump\t// in\n    tag_467:\n        /* \"#utility.yul\":7729:7792   */\n      swap3\n      pop\n        /* \"#utility.yul\":7685:7802   */\n      pop\n        /* \"#utility.yul\":7841:7843   */\n      0x20\n        /* \"#utility.yul\":7867:7920   */\n      tag_468\n        /* \"#utility.yul\":7912:7919   */\n      dup6\n        /* \"#utility.yul\":7903:7909   */\n      dup3\n        /* \"#utility.yul\":7892:7901   */\n      dup7\n        /* \"#utility.yul\":7888:7910   */\n      add\n        /* \"#utility.yul\":7867:7920   */\n      tag_326\n      jump\t// in\n    tag_468:\n        /* \"#utility.yul\":7857:7920   */\n      swap2\n      pop\n        /* \"#utility.yul\":7812:7930   */\n      pop\n        /* \"#utility.yul\":7463:7937   */\n      swap3\n      pop\n      swap3\n      swap1\n      pop\n      jump\t// out\n        /* \"#utility.yul\":7943:8168   */\n    tag_343:\n        /* \"#utility.yul\":8083:8117   */\n      0x4753573a207472616e7366657220616d6f756e74206578636565647320616c6c\n        /* \"#utility.yul\":8079:8080   */\n      0x00\n        /* \"#utility.yul\":8071:8077   */\n      dup3\n        /* \"#utility.yul\":8067:8081   */\n      add\n        /* \"#utility.yul\":8060:8118   */\n      mstore\n        /* \"#utility.yul\":8152:8160   */\n      0x6f77616e63650000000000000000000000000000000000000000000000000000\n        /* \"#utility.yul\":8147:8149   */\n      0x20\n        /* \"#utility.yul\":8139:8145   */\n      dup3\n        /* \"#utility.yul\":8135:8150   */\n      add\n        /* \"#utility.yul\":8128:8161   */\n      mstore\n        /* \"#utility.yul\":7943:8168   */\n      pop\n      jump\t// out\n        /* \"#utility.yul\":8174:8540   */\n    tag_344:\n        /* \"#utility.yul\":8316:8319   */\n      0x00\n        /* \"#utility.yul\":8337:8404   */\n      tag_471\n        /* \"#utility.yul\":8401:8403   */\n      0x26\n        /* \"#utility.yul\":8396:8399   */\n      dup4\n        /* \"#utility.yul\":8337:8404   */\n      tag_316\n      jump\t// in\n    tag_471:\n        /* \"#utility.yul\":8330:8404   */\n      swap2\n      pop\n        /* \"#utility.yul\":8413:8506   */\n      tag_472\n        /* \"#utility.yul\":8502:8505   */\n      dup3\n        /* \"#utility.yul\":8413:8506   */\n      tag_343\n      jump\t// in\n    tag_472:\n        /* \"#utility.yul\":8531:8533   */\n      0x40\n        /* \"#utility.yul\":8526:8529   */\n      dup3\n        /* \"#utility.yul\":8522:8534   */\n      add\n        /* \"#utility.yul\":8515:8534   */\n      swap1\n      pop\n        /* \"#utility.yul\":8174:8540   */\n      swap2\n      swap1\n      pop\n      jump\t// out\n        /* \"#utility.yul\":8546:8965   */\n    tag_172:\n        /* \"#utility.yul\":8712:8716   */\n      0x00\n        /* \"#utility.yul\":8750:8752   */\n      0x20\n        /* \"#utility.yul\":8739:8748   */\n      dup3\n        /* \"#utility.yul\":8735:8753   */\n      add\n        /* \"#utility.yul\":8727:8753   */\n      swap1\n      pop\n        /* \"#utility.yul\":8799:8808   */\n      dup2\n        /* \"#utility.yul\":8793:8797   */\n      dup2\n        /* \"#utility.yul\":8789:8809   */\n      sub\n        /* \"#utility.yul\":8785:8786   */\n      0x00\n        /* \"#utility.yul\":8774:8783   */\n      dup4\n        /* \"#utility.yul\":8770:8787   */\n      add\n        /* \"#utility.yul\":8763:8810   */\n      mstore\n        /* \"#utility.yul\":8827:8958   */\n      tag_474\n        /* \"#utility.yul\":8953:8957   */\n      dup2\n        /* \"#utility.yul\":8827:8958   */\n      tag_344\n      jump\t// in\n    tag_474:\n        /* \"#utility.yul\":8819:8958   */\n      swap1\n      pop\n        /* \"#utility.yul\":8546:8965   */\n      swap2\n      swap1\n      pop\n      jump\t// out\n        /* \"#utility.yul\":8971:9151   */\n    tag_345:\n        /* \"#utility.yul\":9019:9096   */\n      0x4e487b7100000000000000000000000000000000000000000000000000000000\n        /* \"#utility.yul\":9016:9017   */\n      0x00\n        /* \"#utility.yul\":9009:9097   */\n      mstore\n        /* \"#utility.yul\":9116:9120   */\n      0x11\n        /* \"#utility.yul\":9113:9114   */\n      0x04\n        /* \"#utility.yul\":9106:9121   */\n      mstore\n        /* \"#utility.yul\":9140:9144   */\n      0x24\n        /* \"#utility.yul\":9137:9138   */\n      0x00\n        /* \"#utility.yul\":9130:9145   */\n      revert\n        /* \"#utility.yul\":9157:9348   */\n    tag_181:\n        /* \"#utility.yul\":9197:9200   */\n      0x00\n        /* \"#utility.yul\":9216:9236   */\n      tag_477\n        /* \"#utility.yul\":9234:9235   */\n      dup3\n        /* \"#utility.yul\":9216:9236   */\n      tag_327\n      jump\t// in\n    tag_477:\n        /* \"#utility.yul\":9211:9236   */\n      swap2\n      pop\n        /* \"#utility.yul\":9250:9270   */\n      tag_478\n        /* \"#utility.yul\":9268:9269   */\n      dup4\n        /* \"#utility.yul\":9250:9270   */\n      tag_327\n      jump\t// in\n    tag_478:\n        /* \"#utility.yul\":9245:9270   */\n      swap3\n      pop\n        /* \"#utility.yul\":9293:9294   */\n      dup3\n        /* \"#utility.yul\":9290:9291   */\n      dup3\n        /* \"#utility.yul\":9286:9295   */\n      add\n        /* \"#utility.yul\":9279:9295   */\n      swap1\n      pop\n        /* \"#utility.yul\":9314:9317   */\n      dup1\n        /* \"#utility.yul\":9311:9312   */\n      dup3\n        /* \"#utility.yul\":9308:9318   */\n      gt\n        /* \"#utility.yul\":9305:9341   */\n      iszero\n      tag_479\n      jumpi\n        /* \"#utility.yul\":9321:9339   */\n      tag_480\n      tag_345\n      jump\t// in\n    tag_480:\n        /* \"#utility.yul\":9305:9341   */\n    tag_479:\n        /* \"#utility.yul\":9157:9348   */\n      swap3\n      swap2\n      pop\n      pop\n      jump\t// out\n        /* \"#utility.yul\":9354:9536   */\n    tag_346:\n        /* \"#utility.yul\":9494:9528   */\n      0x4f776e61626c653a2063616c6c6572206973206e6f7420746865206f776e6572\n        /* \"#utility.yul\":9490:9491   */\n      0x00\n        /* \"#utility.yul\":9482:9488   */\n      dup3\n        /* \"#utility.yul\":9478:9492   */\n      add\n        /* \"#utility.yul\":9471:9529   */\n      mstore\n        /* \"#utility.yul\":9354:9536   */\n      pop\n      jump\t// out\n        /* \"#utility.yul\":9542:9908   */\n    tag_347:\n        /* \"#utility.yul\":9684:9687   */\n      0x00\n        /* \"#utility.yul\":9705:9772   */\n      tag_483\n        /* \"#utility.yul\":9769:9771   */\n      0x20\n        /* \"#utility.yul\":9764:9767   */\n      dup4\n        /* \"#utility.yul\":9705:9772   */\n      tag_316\n      jump\t// in\n    tag_483:\n        /* \"#utility.yul\":9698:9772   */\n      swap2\n      pop\n        /* \"#utility.yul\":9781:9874   */\n      tag_484\n        /* \"#utility.yul\":9870:9873   */\n      dup3\n        /* \"#utility.yul\":9781:9874   */\n      tag_346\n      jump\t// in\n    tag_484:\n        /* \"#utility.yul\":9899:9901   */\n      0x20\n        /* \"#utility.yul\":9894:9897   */\n      dup3\n        /* \"#utility.yul\":9890:9902   */\n      add\n        /* \"#utility.yul\":9883:9902   */\n      swap1\n      pop\n        /* \"#utility.yul\":9542:9908   */\n      swap2\n      swap1\n      pop\n      jump\t// out\n        /* \"#utility.yul\":9914:10333   */\n    tag_191:\n        /* \"#utility.yul\":10080:10084   */\n      0x00\n        /* \"#utility.yul\":10118:10120   */\n      0x20\n        /* \"#utility.yul\":10107:10116   */\n      dup3\n        /* \"#utility.yul\":10103:10121   */\n      add\n        /* \"#utility.yul\":10095:10121   */\n      swap1\n      pop\n        /* \"#utility.yul\":10167:10176   */\n      dup2\n        /* \"#utility.yul\":10161:10165   */\n      dup2\n        /* \"#utility.yul\":10157:10177   */\n      sub\n        /* \"#utility.yul\":10153:10154   */\n      0x00\n        /* \"#utility.yul\":10142:10151   */\n      dup4\n        /* \"#utility.yul\":10138:10155   */\n      add\n        /* \"#utility.yul\":10131:10178   */\n      mstore\n        /* \"#utility.yul\":10195:10326   */\n      tag_486\n        /* \"#utility.yul\":10321:10325   */\n      dup2\n        /* \"#utility.yul\":10195:10326   */\n      tag_347\n      jump\t// in\n    tag_486:\n        /* \"#utility.yul\":10187:10326   */\n      swap1\n      pop\n        /* \"#utility.yul\":9914:10333   */\n      swap2\n      swap1\n      pop\n      jump\t// out\n        /* \"#utility.yul\":10339:10561   */\n    tag_348:\n        /* \"#utility.yul\":10479:10513   */\n      0x4753573a2064656372656173656420616c6c6f77616e63652062656c6f77207a\n        /* \"#utility.yul\":10475:10476   */\n      0x00\n        /* \"#utility.yul\":10467:10473   */\n      dup3\n        /* \"#utility.yul\":10463:10477   */\n      add\n        /* \"#utility.yul\":10456:10514   */\n      mstore\n        /* \"#utility.yul\":10548:10553   */\n      0x65726f0000000000000000000000000000000000000000000000000000000000\n        /* \"#utility.yul\":10543:10545   */\n      0x20\n        /* \"#utility.yul\":10535:10541   */\n      dup3\n        /* \"#utility.yul\":10531:10546   */\n      add\n        /* \"#utility.yul\":10524:10554   */\n      mstore\n        /* \"#utility.yul\":10339:10561   */\n      pop\n      jump\t// out\n        /* \"#utility.yul\":10567:10933   */\n    tag_349:\n        /* \"#utility.yul\":10709:10712   */\n      0x00\n        /* \"#utility.yul\":10730:10797   */\n      tag_489\n        /* \"#utility.yul\":10794:10796   */\n      0x23\n        /* \"#utility.yul\":10789:10792   */\n      dup4\n        /* \"#utility.yul\":10730:10797   */\n      tag_316\n      jump\t// in\n    tag_489:\n        /* \"#utility.yul\":10723:10797   */\n      swap2\n      pop\n        /* \"#utility.yul\":10806:10899   */\n      tag_490\n        /* \"#utility.yul\":10895:10898   */\n      dup3\n        /* \"#utility.yul\":10806:10899   */\n      tag_348\n      jump\t// in\n    tag_490:\n        /* \"#utility.yul\":10924:10926   */\n      0x40\n        /* \"#utility.yul\":10919:10922   */\n      dup3\n        /* \"#utility.yul\":10915:10927   */\n      add\n        /* \"#utility.yul\":10908:10927   */\n      swap1\n      pop\n        /* \"#utility.yul\":10567:10933   */\n      swap2\n      swap1\n      pop\n      jump\t// out\n        /* \"#utility.yul\":10939:11358   */\n    tag_216:\n        /* \"#utility.yul\":11105:11109   */\n      0x00\n        /* \"#utility.yul\":11143:11145   */\n      0x20\n        /* \"#utility.yul\":11132:11141   */\n      dup3\n        /* \"#utility.yul\":11128:11146   */\n      add\n        /* \"#utility.yul\":11120:11146   */\n      swap1\n      pop\n        /* \"#utility.yul\":11192:11201   */\n      dup2\n        /* \"#utility.yul\":11186:11190   */\n      dup2\n        /* \"#utility.yul\":11182:11202   */\n      sub\n        /* \"#utility.yul\":11178:11179   */\n      0x00\n        /* \"#utility.yul\":11167:11176   */\n      dup4\n        /* \"#utility.yul\":11163:11180   */\n      add\n        /* \"#utility.yul\":11156:11203   */\n      mstore\n        /* \"#utility.yul\":11220:11351   */\n      tag_492\n        /* \"#utility.yul\":11346:11350   */\n      dup2\n        /* \"#utility.yul\":11220:11351   */\n      tag_349\n      jump\t// in\n    tag_492:\n        /* \"#utility.yul\":11212:11351   */\n      swap1\n      pop\n        /* \"#utility.yul\":10939:11358   */\n      swap2\n      swap1\n      pop\n      jump\t// out\n        /* \"#utility.yul\":11364:11589   */\n    tag_350:\n        /* \"#utility.yul\":11504:11538   */\n      0x4f776e61626c653a206e6577206f776e657220697320746865207a65726f2061\n        /* \"#utility.yul\":11500:11501   */\n      0x00\n        /* \"#utility.yul\":11492:11498   */\n      dup3\n        /* \"#utility.yul\":11488:11502   */\n      add\n        /* \"#utility.yul\":11481:11539   */\n      mstore\n        /* \"#utility.yul\":11573:11581   */\n      0x6464726573730000000000000000000000000000000000000000000000000000\n        /* \"#utility.yul\":11568:11570   */\n      0x20\n        /* \"#utility.yul\":11560:11566   */\n      dup3\n        /* \"#utility.yul\":11556:11571   */\n      add\n        /* \"#utility.yul\":11549:11582   */\n      mstore\n        /* \"#utility.yul\":11364:11589   */\n      pop\n      jump\t// out\n        /* \"#utility.yul\":11595:11961   */\n    tag_351:\n        /* \"#utility.yul\":11737:11740   */\n      0x00\n        /* \"#utility.yul\":11758:11825   */\n      tag_495\n        /* \"#utility.yul\":11822:11824   */\n      0x26\n        /* \"#utility.yul\":11817:11820   */\n      dup4\n        /* \"#utility.yul\":11758:11825   */\n      tag_316\n      jump\t// in\n    tag_495:\n        /* \"#utility.yul\":11751:11825   */\n      swap2\n      pop\n        /* \"#utility.yul\":11834:11927   */\n      tag_496\n        /* \"#utility.yul\":11923:11926   */\n      dup3\n        /* \"#utility.yul\":11834:11927   */\n      tag_350\n      jump\t// in\n    tag_496:\n        /* \"#utility.yul\":11952:11954   */\n      0x40\n        /* \"#utility.yul\":11947:11950   */\n      dup3\n        /* \"#utility.yul\":11943:11955   */\n      add\n        /* \"#utility.yul\":11936:11955   */\n      swap1\n      pop\n        /* \"#utility.yul\":11595:11961   */\n      swap2\n      swap1\n      pop\n      jump\t// out\n        /* \"#utility.yul\":11967:12386   */\n    tag_246:\n        /* \"#utility.yul\":12133:12137   */\n      0x00\n        /* \"#utility.yul\":12171:12173   */\n      0x20\n        /* \"#utility.yul\":12160:12169   */\n      dup3\n        /* \"#utility.yul\":12156:12174   */\n      add\n        /* \"#utility.yul\":12148:12174   */\n      swap1\n      pop\n        /* \"#utility.yul\":12220:12229   */\n      dup2\n        /* \"#utility.yul\":12214:12218   */\n      dup2\n        /* \"#utility.yul\":12210:12230   */\n      sub\n        /* \"#utility.yul\":12206:12207   */\n      0x00\n        /* \"#utility.yul\":12195:12204   */\n      dup4\n        /* \"#utility.yul\":12191:12208   */\n      add\n        /* \"#utility.yul\":12184:12231   */\n      mstore\n        /* \"#utility.yul\":12248:12379   */\n      tag_498\n        /* \"#utility.yul\":12374:12378   */\n      dup2\n        /* \"#utility.yul\":12248:12379   */\n      tag_351\n      jump\t// in\n    tag_498:\n        /* \"#utility.yul\":12240:12379   */\n      swap1\n      pop\n        /* \"#utility.yul\":11967:12386   */\n      swap2\n      swap1\n      pop\n      jump\t// out\n        /* \"#utility.yul\":12392:12614   */\n    tag_352:\n        /* \"#utility.yul\":12532:12566   */\n      0x4753573a207472616e736665722066726f6d20746865207a65726f2061646472\n        /* \"#utility.yul\":12528:12529   */\n      0x00\n        /* \"#utility.yul\":12520:12526   */\n      dup3\n        /* \"#utility.yul\":12516:12530   */\n      add\n        /* \"#utility.yul\":12509:12567   */\n      mstore\n        /* \"#utility.yul\":12601:12606   */\n      0x6573730000000000000000000000000000000000000000000000000000000000\n        /* \"#utility.yul\":12596:12598   */\n      0x20\n        /* \"#utility.yul\":12588:12594   */\n      dup3\n        /* \"#utility.yul\":12584:12599   */\n      add\n        /* \"#utility.yul\":12577:12607   */\n      mstore\n        /* \"#utility.yul\":12392:12614   */\n      pop\n      jump\t// out\n        /* \"#utility.yul\":12620:12986   */\n    tag_353:\n        /* \"#utility.yul\":12762:12765   */\n      0x00\n        /* \"#utility.yul\":12783:12850   */\n      tag_501\n        /* \"#utility.yul\":12847:12849   */\n      0x23\n        /* \"#utility.yul\":12842:12845   */\n      dup4\n        /* \"#utility.yul\":12783:12850   */\n      tag_316\n      jump\t// in\n    tag_501:\n        /* \"#utility.yul\":12776:12850   */\n      swap2\n      pop\n        /* \"#utility.yul\":12859:12952   */\n      tag_502\n        /* \"#utility.yul\":12948:12951   */\n      dup3\n        /* \"#utility.yul\":12859:12952   */\n      tag_352\n      jump\t// in\n    tag_502:\n        /* \"#utility.yul\":12977:12979   */\n      0x40\n        /* \"#utility.yul\":12972:12975   */\n      dup3\n        /* \"#utility.yul\":12968:12980   */\n      add\n        /* \"#utility.yul\":12961:12980   */\n      swap1\n      pop\n        /* \"#utility.yul\":12620:12986   */\n      swap2\n      swap1\n      pop\n      jump\t// out\n        /* \"#utility.yul\":12992:13411   */\n    tag_254:\n        /* \"#utility.yul\":13158:13162   */\n      0x00\n        /* \"#utility.yul\":13196:13198   */\n      0x20\n        /* \"#utility.yul\":13185:13194   */\n      dup3\n        /* \"#utility.yul\":13181:13199   */\n      add\n        /* \"#utility.yul\":13173:13199   */\n      swap1\n      pop\n        /* \"#utility.yul\":13245:13254   */\n      dup2\n        /* \"#utility.yul\":13239:13243   */\n      dup2\n        /* \"#utility.yul\":13235:13255   */\n      sub\n        /* \"#utility.yul\":13231:13232   */\n      0x00\n        /* \"#utility.yul\":13220:13229   */\n      dup4\n        /* \"#utility.yul\":13216:13233   */\n      add\n        /* \"#utility.yul\":13209:13256   */\n      mstore\n        /* \"#utility.yul\":13273:13404   */\n      tag_504\n        /* \"#utility.yul\":13399:13403   */\n      dup2\n        /* \"#utility.yul\":13273:13404   */\n      tag_353\n      jump\t// in\n    tag_504:\n        /* \"#utility.yul\":13265:13404   */\n      swap1\n      pop\n        /* \"#utility.yul\":12992:13411   */\n      swap2\n      swap1\n      pop\n      jump\t// out\n        /* \"#utility.yul\":13417:13637   */\n    tag_354:\n        /* \"#utility.yul\":13557:13591   */\n      0x4753573a207472616e7366657220746f20746865207a65726f20616464726573\n        /* \"#utility.yul\":13553:13554   */\n      0x00\n        /* \"#utility.yul\":13545:13551   */\n      dup3\n        /* \"#utility.yul\":13541:13555   */\n      add\n        /* \"#utility.yul\":13534:13592   */\n      mstore\n        /* \"#utility.yul\":13626:13629   */\n      0x7300000000000000000000000000000000000000000000000000000000000000\n        /* \"#utility.yul\":13621:13623   */\n      0x20\n        /* \"#utility.yul\":13613:13619   */\n      dup3\n        /* \"#utility.yul\":13609:13624   */\n      add\n        /* \"#utility.yul\":13602:13630   */\n      mstore\n        /* \"#utility.yul\":13417:13637   */\n      pop\n      jump\t// out\n        /* \"#utility.yul\":13643:14009   */\n    tag_355:\n        /* \"#utility.yul\":13785:13788   */\n      0x00\n        /* \"#utility.yul\":13806:13873   */\n      tag_507\n        /* \"#utility.yul\":13870:13872   */\n      0x21\n        /* \"#utility.yul\":13865:13868   */\n      dup4\n        /* \"#utility.yul\":13806:13873   */\n      tag_316\n      jump\t// in\n    tag_507:\n        /* \"#utility.yul\":13799:13873   */\n      swap2\n      pop\n        /* \"#utility.yul\":13882:13975   */\n      tag_508\n        /* \"#utility.yul\":13971:13974   */\n      dup3\n        /* \"#utility.yul\":13882:13975   */\n      tag_354\n      jump\t// in\n    tag_508:\n        /* \"#utility.yul\":14000:14002   */\n      0x40\n        /* \"#utility.yul\":13995:13998   */\n      dup3\n        /* \"#utility.yul\":13991:14003   */\n      add\n        /* \"#utility.yul\":13984:14003   */\n      swap1\n      pop\n        /* \"#utility.yul\":13643:14009   */\n      swap2\n      swap1\n      pop\n      jump\t// out\n        /* \"#utility.yul\":14015:14434   */\n    tag_257:\n        /* \"#utility.yul\":14181:14185   */\n      0x00\n        /* \"#utility.yul\":14219:14221   */\n      0x20\n        /* \"#utility.yul\":14208:14217   */\n      dup3\n        /* \"#utility.yul\":14204:14222   */\n      add\n        /* \"#utility.yul\":14196:14222   */\n      swap1\n      pop\n        /* \"#utility.yul\":14268:14277   */\n      dup2\n        /* \"#utility.yul\":14262:14266   */\n      dup2\n        /* \"#utility.yul\":14258:14278   */\n      sub\n        /* \"#utility.yul\":14254:14255   */\n      0x00\n        /* \"#utility.yul\":14243:14252   */\n      dup4\n        /* \"#utility.yul\":14239:14256   */\n      add\n        /* \"#utility.yul\":14232:14279   */\n      mstore\n        /* \"#utility.yul\":14296:14427   */\n      tag_510\n        /* \"#utility.yul\":14422:14426   */\n      dup2\n        /* \"#utility.yul\":14296:14427   */\n      tag_355\n      jump\t// in\n    tag_510:\n        /* \"#utility.yul\":14288:14427   */\n      swap1\n      pop\n        /* \"#utility.yul\":14015:14434   */\n      swap2\n      swap1\n      pop\n      jump\t// out\n        /* \"#utility.yul\":14440:14663   */\n    tag_356:\n        /* \"#utility.yul\":14580:14614   */\n      0x4753573a207472616e7366657220616d6f756e7420657863656564732062616c\n        /* \"#utility.yul\":14576:14577   */\n      0x00\n        /* \"#utility.yul\":14568:14574   */\n      dup3\n        /* \"#utility.yul\":14564:14578   */\n      add\n        /* \"#utility.yul\":14557:14615   */\n      mstore\n        /* \"#utility.yul\":14649:14655   */\n      0x616e636500000000000000000000000000000000000000000000000000000000\n        /* \"#utility.yul\":14644:14646   */\n      0x20\n        /* \"#utility.yul\":14636:14642   */\n      dup3\n        /* \"#utility.yul\":14632:14647   */\n      add\n        /* \"#utility.yul\":14625:14656   */\n      mstore\n        /* \"#utility.yul\":14440:14663   */\n      pop\n      jump\t// out\n        /* \"#utility.yul\":14669:15035   */\n    tag_357:\n        /* \"#utility.yul\":14811:14814   */\n      0x00\n        /* \"#utility.yul\":14832:14899   */\n      tag_513\n        /* \"#utility.yul\":14896:14898   */\n      0x24\n        /* \"#utility.yul\":14891:14894   */\n      dup4\n        /* \"#utility.yul\":14832:14899   */\n      tag_316\n      jump\t// in\n    tag_513:\n        /* \"#utility.yul\":14825:14899   */\n      swap2\n      pop\n        /* \"#utility.yul\":14908:15001   */\n      tag_514\n        /* \"#utility.yul\":14997:15000   */\n      dup3\n        /* \"#utility.yul\":14908:15001   */\n      tag_356\n      jump\t// in\n    tag_514:\n        /* \"#utility.yul\":15026:15028   */\n      0x40\n        /* \"#utility.yul\":15021:15024   */\n      dup3\n        /* \"#utility.yul\":15017:15029   */\n      add\n        /* \"#utility.yul\":15010:15029   */\n      swap1\n      pop\n        /* \"#utility.yul\":14669:15035   */\n      swap2\n      swap1\n      pop\n      jump\t// out\n        /* \"#utility.yul\":15041:15460   */\n    tag_260:\n        /* \"#utility.yul\":15207:15211   */\n      0x00\n        /* \"#utility.yul\":15245:15247   */\n      0x20\n        /* \"#utility.yul\":15234:15243   */\n      dup3\n        /* \"#utility.yul\":15230:15248   */\n      add\n        /* \"#utility.yul\":15222:15248   */\n      swap1\n      pop\n        /* \"#utility.yul\":15294:15303   */\n      dup2\n        /* \"#utility.yul\":15288:15292   */\n      dup2\n        /* \"#utility.yul\":15284:15304   */\n      sub\n        /* \"#utility.yul\":15280:15281   */\n      0x00\n        /* \"#utility.yul\":15269:15278   */\n      dup4\n        /* \"#utility.yul\":15265:15282   */\n      add\n        /* \"#utility.yul\":15258:15305   */\n      mstore\n        /* \"#utility.yul\":15322:15453   */\n      tag_516\n        /* \"#utility.yul\":15448:15452   */\n      dup2\n        /* \"#utility.yul\":15322:15453   */\n      tag_357\n      jump\t// in\n    tag_516:\n        /* \"#utility.yul\":15314:15453   */\n      swap1\n      pop\n        /* \"#utility.yul\":15041:15460   */\n      swap2\n      swap1\n      pop\n      jump\t// out\n        /* \"#utility.yul\":15466:15876   */\n    tag_267:\n        /* \"#utility.yul\":15506:15513   */\n      0x00\n        /* \"#utility.yul\":15529:15549   */\n      tag_518\n        /* \"#utility.yul\":15547:15548   */\n      dup3\n        /* \"#utility.yul\":15529:15549   */\n      tag_327\n      jump\t// in\n    tag_518:\n        /* \"#utility.yul\":15524:15549   */\n      swap2\n      pop\n        /* \"#utility.yul\":15563:15583   */\n      tag_519\n        /* \"#utility.yul\":15581:15582   */\n      dup4\n        /* \"#utility.yul\":15563:15583   */\n      tag_327\n      jump\t// in\n    tag_519:\n        /* \"#utility.yul\":15558:15583   */\n      swap3\n      pop\n        /* \"#utility.yul\":15618:15619   */\n      dup3\n        /* \"#utility.yul\":15615:15616   */\n      dup3\n        /* \"#utility.yul\":15611:15620   */\n      mul\n        /* \"#utility.yul\":15640:15670   */\n      tag_520\n        /* \"#utility.yul\":15658:15669   */\n      dup2\n        /* \"#utility.yul\":15640:15670   */\n      tag_327\n      jump\t// in\n    tag_520:\n        /* \"#utility.yul\":15629:15670   */\n      swap2\n      pop\n        /* \"#utility.yul\":15819:15820   */\n      dup3\n        /* \"#utility.yul\":15810:15817   */\n      dup3\n        /* \"#utility.yul\":15806:15821   */\n      div\n        /* \"#utility.yul\":15803:15804   */\n      dup5\n        /* \"#utility.yul\":15800:15822   */\n      eq\n        /* \"#utility.yul\":15780:15781   */\n      dup4\n        /* \"#utility.yul\":15773:15782   */\n      iszero\n        /* \"#utility.yul\":15753:15836   */\n      or\n        /* \"#utility.yul\":15730:15869   */\n      tag_521\n      jumpi\n        /* \"#utility.yul\":15849:15867   */\n      tag_522\n      tag_345\n      jump\t// in\n    tag_522:\n        /* \"#utility.yul\":15730:15869   */\n    tag_521:\n        /* \"#utility.yul\":15514:15876   */\n      pop\n        /* \"#utility.yul\":15466:15876   */\n      swap3\n      swap2\n      pop\n      pop\n      jump\t// out\n        /* \"#utility.yul\":15882:16062   */\n    tag_358:\n        /* \"#utility.yul\":15930:16007   */\n      0x4e487b7100000000000000000000000000000000000000000000000000000000\n        /* \"#utility.yul\":15927:15928   */\n      0x00\n        /* \"#utility.yul\":15920:16008   */\n      mstore\n        /* \"#utility.yul\":16027:16031   */\n      0x12\n        /* \"#utility.yul\":16024:16025   */\n      0x04\n        /* \"#utility.yul\":16017:16032   */\n      mstore\n        /* \"#utility.yul\":16051:16055   */\n      0x24\n        /* \"#utility.yul\":16048:16049   */\n      0x00\n        /* \"#utility.yul\":16041:16056   */\n      revert\n        /* \"#utility.yul\":16068:16253   */\n    tag_269:\n        /* \"#utility.yul\":16108:16109   */\n      0x00\n        /* \"#utility.yul\":16125:16145   */\n      tag_525\n        /* \"#utility.yul\":16143:16144   */\n      dup3\n        /* \"#utility.yul\":16125:16145   */\n      tag_327\n      jump\t// in\n    tag_525:\n        /* \"#utility.yul\":16120:16145   */\n      swap2\n      pop\n        /* \"#utility.yul\":16159:16179   */\n      tag_526\n        /* \"#utility.yul\":16177:16178   */\n      dup4\n        /* \"#utility.yul\":16159:16179   */\n      tag_327\n      jump\t// in\n    tag_526:\n        /* \"#utility.yul\":16154:16179   */\n      swap3\n      pop\n        /* \"#utility.yul\":16198:16199   */\n      dup3\n        /* \"#utility.yul\":16188:16223   */\n      tag_527\n      jumpi\n        /* \"#utility.yul\":16203:16221   */\n      tag_528\n      tag_358\n      jump\t// in\n    tag_528:\n        /* \"#utility.yul\":16188:16223   */\n    tag_527:\n        /* \"#utility.yul\":16245:16246   */\n      dup3\n        /* \"#utility.yul\":16242:16243   */\n      dup3\n        /* \"#utility.yul\":16238:16247   */\n      div\n        /* \"#utility.yul\":16233:16247   */\n      swap1\n      pop\n        /* \"#utility.yul\":16068:16253   */\n      swap3\n      swap2\n      pop\n      pop\n      jump\t// out\n        /* \"#utility.yul\":16259:16440   */\n    tag_359:\n        /* \"#utility.yul\":16399:16432   */\n      0x4753573a206275726e2066726f6d20746865207a65726f206164647265737300\n        /* \"#utility.yul\":16395:16396   */\n      0x00\n        /* \"#utility.yul\":16387:16393   */\n      dup3\n        /* \"#utility.yul\":16383:16397   */\n      add\n        /* \"#utility.yul\":16376:16433   */\n      mstore\n        /* \"#utility.yul\":16259:16440   */\n      pop\n      jump\t// out\n        /* \"#utility.yul\":16446:16812   */\n    tag_360:\n        /* \"#utility.yul\":16588:16591   */\n      0x00\n        /* \"#utility.yul\":16609:16676   */\n      tag_531\n        /* \"#utility.yul\":16673:16675   */\n      0x1f\n        /* \"#utility.yul\":16668:16671   */\n      dup4\n        /* \"#utility.yul\":16609:16676   */\n      tag_316\n      jump\t// in\n    tag_531:\n        /* \"#utility.yul\":16602:16676   */\n      swap2\n      pop\n        /* \"#utility.yul\":16685:16778   */\n      tag_532\n        /* \"#utility.yul\":16774:16777   */\n      dup3\n        /* \"#utility.yul\":16685:16778   */\n      tag_359\n      jump\t// in\n    tag_532:\n        /* \"#utility.yul\":16803:16805   */\n      0x20\n        /* \"#utility.yul\":16798:16801   */\n      dup3\n        /* \"#utility.yul\":16794:16806   */\n      add\n        /* \"#utility.yul\":16787:16806   */\n      swap1\n      pop\n        /* \"#utility.yul\":16446:16812   */\n      swap2\n      swap1\n      pop\n      jump\t// out\n        /* \"#utility.yul\":16818:17237   */\n    tag_288:\n        /* \"#utility.yul\":16984:16988   */\n      0x00\n        /* \"#utility.yul\":17022:17024   */\n      0x20\n        /* \"#utility.yul\":17011:17020   */\n      dup3\n        /* \"#utility.yul\":17007:17025   */\n      add\n        /* \"#utility.yul\":16999:17025   */\n      swap1\n      pop\n        /* \"#utility.yul\":17071:17080   */\n      dup2\n        /* \"#utility.yul\":17065:17069   */\n      dup2\n        /* \"#utility.yul\":17061:17081   */\n      sub\n        /* \"#utility.yul\":17057:17058   */\n      0x00\n        /* \"#utility.yul\":17046:17055   */\n      dup4\n        /* \"#utility.yul\":17042:17059   */\n      add\n        /* \"#utility.yul\":17035:17082   */\n      mstore\n        /* \"#utility.yul\":17099:17230   */\n      tag_534\n        /* \"#utility.yul\":17225:17229   */\n      dup2\n        /* \"#utility.yul\":17099:17230   */\n      tag_360\n      jump\t// in\n    tag_534:\n        /* \"#utility.yul\":17091:17230   */\n      swap1\n      pop\n        /* \"#utility.yul\":16818:17237   */\n      swap2\n      swap1\n      pop\n      jump\t// out\n        /* \"#utility.yul\":17243:17425   */\n    tag_361:\n        /* \"#utility.yul\":17383:17417   */\n      0x4753573a206275726e20616d6f756e7420657863656564732062616c616e6365\n        /* \"#utility.yul\":17379:17380   */\n      0x00\n        /* \"#utility.yul\":17371:17377   */\n      dup3\n        /* \"#utility.yul\":17367:17381   */\n      add\n        /* \"#utility.yul\":17360:17418   */\n      mstore\n        /* \"#utility.yul\":17243:17425   */\n      pop\n      jump\t// out\n        /* \"#utility.yul\":17431:17797   */\n    tag_362:\n        /* \"#utility.yul\":17573:17576   */\n      0x00\n        /* \"#utility.yul\":17594:17661   */\n      tag_537\n        /* \"#utility.yul\":17658:17660   */\n      0x20\n        /* \"#utility.yul\":17653:17656   */\n      dup4\n        /* \"#utility.yul\":17594:17661   */\n      tag_316\n      jump\t// in\n    tag_537:\n        /* \"#utility.yul\":17587:17661   */\n      swap2\n      pop\n        /* \"#utility.yul\":17670:17763   */\n      tag_538\n        /* \"#utility.yul\":17759:17762   */\n      dup3\n        /* \"#utility.yul\":17670:17763   */\n      tag_361\n      jump\t// in\n    tag_538:\n        /* \"#utility.yul\":17788:17790   */\n      0x20\n        /* \"#utility.yul\":17783:17786   */\n      dup3\n        /* \"#utility.yul\":17779:17791   */\n      add\n        /* \"#utility.yul\":17772:17791   */\n      swap1\n      pop\n        /* \"#utility.yul\":17431:17797   */\n      swap2\n      swap1\n      pop\n      jump\t// out\n        /* \"#utility.yul\":17803:18222   */\n    tag_291:\n        /* \"#utility.yul\":17969:17973   */\n      0x00\n        /* \"#utility.yul\":18007:18009   */\n      0x20\n        /* \"#utility.yul\":17996:18005   */\n      dup3\n        /* \"#utility.yul\":17992:18010   */\n      add\n        /* \"#utility.yul\":17984:18010   */\n      swap1\n      pop\n        /* \"#utility.yul\":18056:18065   */\n      dup2\n        /* \"#utility.yul\":18050:18054   */\n      dup2\n        /* \"#utility.yul\":18046:18066   */\n      sub\n        /* \"#utility.yul\":18042:18043   */\n      0x00\n        /* \"#utility.yul\":18031:18040   */\n      dup4\n        /* \"#utility.yul\":18027:18044   */\n      add\n        /* \"#utility.yul\":18020:18067   */\n      mstore\n        /* \"#utility.yul\":18084:18215   */\n      tag_540\n        /* \"#utility.yul\":18210:18214   */\n      dup2\n        /* \"#utility.yul\":18084:18215   */\n      tag_362\n      jump\t// in\n    tag_540:\n        /* \"#utility.yul\":18076:18215   */\n      swap1\n      pop\n        /* \"#utility.yul\":17803:18222   */\n      swap2\n      swap1\n      pop\n      jump\t// out\n        /* \"#utility.yul\":18228:18422   */\n    tag_293:\n        /* \"#utility.yul\":18268:18272   */\n      0x00\n        /* \"#utility.yul\":18288:18308   */\n      tag_542\n        /* \"#utility.yul\":18306:18307   */\n      dup3\n        /* \"#utility.yul\":18288:18308   */\n      tag_327\n      jump\t// in\n    tag_542:\n        /* \"#utility.yul\":18283:18308   */\n      swap2\n      pop\n        /* \"#utility.yul\":18322:18342   */\n      tag_543\n        /* \"#utility.yul\":18340:18341   */\n      dup4\n        /* \"#utility.yul\":18322:18342   */\n      tag_327\n      jump\t// in\n    tag_543:\n        /* \"#utility.yul\":18317:18342   */\n      swap3\n      pop\n        /* \"#utility.yul\":18366:18367   */\n      dup3\n        /* \"#utility.yul\":18363:18364   */\n      dup3\n        /* \"#utility.yul\":18359:18368   */\n      sub\n        /* \"#utility.yul\":18351:18368   */\n      swap1\n      pop\n        /* \"#utility.yul\":18390:18391   */\n      dup2\n        /* \"#utility.yul\":18384:18388   */\n      dup2\n        /* \"#utility.yul\":18381:18392   */\n      gt\n        /* \"#utility.yul\":18378:18415   */\n      iszero\n      tag_544\n      jumpi\n        /* \"#utility.yul\":18395:18413   */\n      tag_545\n      tag_345\n      jump\t// in\n    tag_545:\n        /* \"#utility.yul\":18378:18415   */\n    tag_544:\n        /* \"#utility.yul\":18228:18422   */\n      swap3\n      swap2\n      pop\n      pop\n      jump\t// out\n        /* \"#utility.yul\":18428:18608   */\n    tag_300:\n        /* \"#utility.yul\":18476:18553   */\n      0x4e487b7100000000000000000000000000000000000000000000000000000000\n        /* \"#utility.yul\":18473:18474   */\n      0x00\n        /* \"#utility.yul\":18466:18554   */\n      mstore\n        /* \"#utility.yul\":18573:18577   */\n      0x41\n        /* \"#utility.yul\":18570:18571   */\n      0x04\n        /* \"#utility.yul\":18563:18578   */\n      mstore\n        /* \"#utility.yul\":18597:18601   */\n      0x24\n        /* \"#utility.yul\":18594:18595   */\n      0x00\n        /* \"#utility.yul\":18587:18602   */\n      revert\n        /* \"#utility.yul\":18614:18794   */\n    tag_304:\n        /* \"#utility.yul\":18662:18739   */\n      0x4e487b7100000000000000000000000000000000000000000000000000000000\n        /* \"#utility.yul\":18659:18660   */\n      0x00\n        /* \"#utility.yul\":18652:18740   */\n      mstore\n        /* \"#utility.yul\":18759:18763   */\n      0x32\n        /* \"#utility.yul\":18756:18757   */\n      0x04\n        /* \"#utility.yul\":18749:18764   */\n      mstore\n        /* \"#utility.yul\":18783:18787   */\n      0x24\n        /* \"#utility.yul\":18780:18781   */\n      0x00\n        /* \"#utility.yul\":18773:18788   */\n      revert\n        /* \"#utility.yul\":18800:18885   */\n    tag_363:\n        /* \"#utility.yul\":18845:18852   */\n      0x00\n        /* \"#utility.yul\":18874:18879   */\n      dup2\n        /* \"#utility.yul\":18863:18879   */\n      swap1\n      pop\n        /* \"#utility.yul\":18800:18885   */\n      swap2\n      swap1\n      pop\n      jump\t// out\n        /* \"#utility.yul\":18891:19049   */\n    tag_364:\n        /* \"#utility.yul\":18949:18958   */\n      0x00\n        /* \"#utility.yul\":18982:19043   */\n      tag_550\n        /* \"#utility.yul\":19000:19042   */\n      tag_551\n        /* \"#utility.yul\":19009:19041   */\n      tag_552\n        /* \"#utility.yul\":19035:19040   */\n      dup5\n        /* \"#utility.yul\":19009:19041   */\n      tag_363\n      jump\t// in\n    tag_552:\n        /* \"#utility.yul\":19000:19042   */\n      tag_332\n      jump\t// in\n    tag_551:\n        /* \"#utility.yul\":18982:19043   */\n      tag_327\n      jump\t// in\n    tag_550:\n        /* \"#utility.yul\":18969:19043   */\n      swap1\n      pop\n        /* \"#utility.yul\":18891:19049   */\n      swap2\n      swap1\n      pop\n      jump\t// out\n        /* \"#utility.yul\":19055:19202   */\n    tag_365:\n        /* \"#utility.yul\":19150:19195   */\n      tag_554\n        /* \"#utility.yul\":19189:19194   */\n      dup2\n        /* \"#utility.yul\":19150:19195   */\n      tag_364\n      jump\t// in\n    tag_554:\n        /* \"#utility.yul\":19145:19148   */\n      dup3\n        /* \"#utility.yul\":19138:19196   */\n      mstore\n        /* \"#utility.yul\":19055:19202   */\n      pop\n      pop\n      jump\t// out\n        /* \"#utility.yul\":19208:19322   */\n    tag_366:\n        /* \"#utility.yul\":19275:19281   */\n      0x00\n        /* \"#utility.yul\":19309:19314   */\n      dup2\n        /* \"#utility.yul\":19303:19315   */\n      mload\n        /* \"#utility.yul\":19293:19315   */\n      swap1\n      pop\n        /* \"#utility.yul\":19208:19322   */\n      swap2\n      swap1\n      pop\n      jump\t// out\n        /* \"#utility.yul\":19328:19512   */\n    tag_367:\n        /* \"#utility.yul\":19427:19438   */\n      0x00\n        /* \"#utility.yul\":19461:19467   */\n      dup3\n        /* \"#utility.yul\":19456:19459   */\n      dup3\n        /* \"#utility.yul\":19449:19468   */\n      mstore\n        /* \"#utility.yul\":19501:19505   */\n      0x20\n        /* \"#utility.yul\":19496:19499   */\n      dup3\n        /* \"#utility.yul\":19492:19506   */\n      add\n        /* \"#utility.yul\":19477:19506   */\n      swap1\n      pop\n        /* \"#utility.yul\":19328:19512   */\n      swap3\n      swap2\n      pop\n      pop\n      jump\t// out\n        /* \"#utility.yul\":19518:19650   */\n    tag_368:\n        /* \"#utility.yul\":19585:19589   */\n      0x00\n        /* \"#utility.yul\":19608:19611   */\n      dup2\n        /* \"#utility.yul\":19600:19611   */\n      swap1\n      pop\n        /* \"#utility.yul\":19638:19642   */\n      0x20\n        /* \"#utility.yul\":19633:19636   */\n      dup3\n        /* \"#utility.yul\":19629:19643   */\n      add\n        /* \"#utility.yul\":19621:19643   */\n      swap1\n      pop\n        /* \"#utility.yul\":19518:19650   */\n      swap2\n      swap1\n      pop\n      jump\t// out\n        /* \"#utility.yul\":19656:19764   */\n    tag_369:\n        /* \"#utility.yul\":19733:19757   */\n      tag_559\n        /* \"#utility.yul\":19751:19756   */\n      dup2\n        /* \"#utility.yul\":19733:19757   */\n      tag_324\n      jump\t// in\n    tag_559:\n        /* \"#utility.yul\":19728:19731   */\n      dup3\n        /* \"#utility.yul\":19721:19758   */\n      mstore\n        /* \"#utility.yul\":19656:19764   */\n      pop\n      pop\n      jump\t// out\n        /* \"#utility.yul\":19770:19949   */\n    tag_370:\n        /* \"#utility.yul\":19839:19849   */\n      0x00\n        /* \"#utility.yul\":19860:19906   */\n      tag_561\n        /* \"#utility.yul\":19902:19905   */\n      dup4\n        /* \"#utility.yul\":19894:19900   */\n      dup4\n        /* \"#utility.yul\":19860:19906   */\n      tag_369\n      jump\t// in\n    tag_561:\n        /* \"#utility.yul\":19938:19942   */\n      0x20\n        /* \"#utility.yul\":19933:19936   */\n      dup4\n        /* \"#utility.yul\":19929:19943   */\n      add\n        /* \"#utility.yul\":19915:19943   */\n      swap1\n      pop\n        /* \"#utility.yul\":19770:19949   */\n      swap3\n      swap2\n      pop\n      pop\n      jump\t// out\n        /* \"#utility.yul\":19955:20068   */\n    tag_371:\n        /* \"#utility.yul\":20025:20029   */\n      0x00\n        /* \"#utility.yul\":20057:20061   */\n      0x20\n        /* \"#utility.yul\":20052:20055   */\n      dup3\n        /* \"#utility.yul\":20048:20062   */\n      add\n        /* \"#utility.yul\":20040:20062   */\n      swap1\n      pop\n        /* \"#utility.yul\":19955:20068   */\n      swap2\n      swap1\n      pop\n      jump\t// out\n        /* \"#utility.yul\":20104:20836   */\n    tag_372:\n        /* \"#utility.yul\":20223:20226   */\n      0x00\n        /* \"#utility.yul\":20252:20306   */\n      tag_564\n        /* \"#utility.yul\":20300:20305   */\n      dup3\n        /* \"#utility.yul\":20252:20306   */\n      tag_366\n      jump\t// in\n    tag_564:\n        /* \"#utility.yul\":20322:20408   */\n      tag_565\n        /* \"#utility.yul\":20401:20407   */\n      dup2\n        /* \"#utility.yul\":20396:20399   */\n      dup6\n        /* \"#utility.yul\":20322:20408   */\n      tag_367\n      jump\t// in\n    tag_565:\n        /* \"#utility.yul\":20315:20408   */\n      swap4\n      pop\n        /* \"#utility.yul\":20432:20488   */\n      tag_566\n        /* \"#utility.yul\":20482:20487   */\n      dup4\n        /* \"#utility.yul\":20432:20488   */\n      tag_368\n      jump\t// in\n    tag_566:\n        /* \"#utility.yul\":20511:20518   */\n      dup1\n        /* \"#utility.yul\":20542:20543   */\n      0x00\n        /* \"#utility.yul\":20527:20811   */\n    tag_567:\n        /* \"#utility.yul\":20552:20558   */\n      dup4\n        /* \"#utility.yul\":20549:20550   */\n      dup2\n        /* \"#utility.yul\":20546:20559   */\n      lt\n        /* \"#utility.yul\":20527:20811   */\n      iszero\n      tag_569\n      jumpi\n        /* \"#utility.yul\":20628:20634   */\n      dup2\n        /* \"#utility.yul\":20622:20635   */\n      mload\n        /* \"#utility.yul\":20655:20718   */\n      tag_570\n        /* \"#utility.yul\":20714:20717   */\n      dup9\n        /* \"#utility.yul\":20699:20712   */\n      dup3\n        /* \"#utility.yul\":20655:20718   */\n      tag_370\n      jump\t// in\n    tag_570:\n        /* \"#utility.yul\":20648:20718   */\n      swap8\n      pop\n        /* \"#utility.yul\":20741:20801   */\n      tag_571\n        /* \"#utility.yul\":20794:20800   */\n      dup4\n        /* \"#utility.yul\":20741:20801   */\n      tag_371\n      jump\t// in\n    tag_571:\n        /* \"#utility.yul\":20731:20801   */\n      swap3\n      pop\n        /* \"#utility.yul\":20587:20811   */\n      pop\n        /* \"#utility.yul\":20574:20575   */\n      0x01\n        /* \"#utility.yul\":20571:20572   */\n      dup2\n        /* \"#utility.yul\":20567:20576   */\n      add\n        /* \"#utility.yul\":20562:20576   */\n      swap1\n      pop\n        /* \"#utility.yul\":20527:20811   */\n      jump(tag_567)\n    tag_569:\n        /* \"#utility.yul\":20531:20545   */\n      pop\n        /* \"#utility.yul\":20827:20830   */\n      dup6\n        /* \"#utility.yul\":20820:20830   */\n      swap4\n      pop\n        /* \"#utility.yul\":20228:20836   */\n      pop\n      pop\n      pop\n        /* \"#utility.yul\":20104:20836   */\n      swap3\n      swap2\n      pop\n      pop\n      jump\t// out\n        /* \"#utility.yul\":20842:21673   */\n    tag_309:\n        /* \"#utility.yul\":21105:21109   */\n      0x00\n        /* \"#utility.yul\":21143:21146   */\n      0xa0\n        /* \"#utility.yul\":21132:21141   */\n      dup3\n        /* \"#utility.yul\":21128:21147   */\n      add\n        /* \"#utility.yul\":21120:21147   */\n      swap1\n      pop\n        /* \"#utility.yul\":21157:21228   */\n      tag_573\n        /* \"#utility.yul\":21225:21226   */\n      0x00\n        /* \"#utility.yul\":21214:21223   */\n      dup4\n        /* \"#utility.yul\":21210:21227   */\n      add\n        /* \"#utility.yul\":21201:21207   */\n      dup9\n        /* \"#utility.yul\":21157:21228   */\n      tag_337\n      jump\t// in\n    tag_573:\n        /* \"#utility.yul\":21238:21318   */\n      tag_574\n        /* \"#utility.yul\":21314:21316   */\n      0x20\n        /* \"#utility.yul\":21303:21312   */\n      dup4\n        /* \"#utility.yul\":21299:21317   */\n      add\n        /* \"#utility.yul\":21290:21296   */\n      dup8\n        /* \"#utility.yul\":21238:21318   */\n      tag_365\n      jump\t// in\n    tag_574:\n        /* \"#utility.yul\":21365:21374   */\n      dup2\n        /* \"#utility.yul\":21359:21363   */\n      dup2\n        /* \"#utility.yul\":21355:21375   */\n      sub\n        /* \"#utility.yul\":21350:21352   */\n      0x40\n        /* \"#utility.yul\":21339:21348   */\n      dup4\n        /* \"#utility.yul\":21335:21353   */\n      add\n        /* \"#utility.yul\":21328:21376   */\n      mstore\n        /* \"#utility.yul\":21393:21501   */\n      tag_575\n        /* \"#utility.yul\":21496:21500   */\n      dup2\n        /* \"#utility.yul\":21487:21493   */\n      dup7\n        /* \"#utility.yul\":21393:21501   */\n      tag_372\n      jump\t// in\n    tag_575:\n        /* \"#utility.yul\":21385:21501   */\n      swap1\n      pop\n        /* \"#utility.yul\":21511:21583   */\n      tag_576\n        /* \"#utility.yul\":21579:21581   */\n      0x60\n        /* \"#utility.yul\":21568:21577   */\n      dup4\n        /* \"#utility.yul\":21564:21582   */\n      add\n        /* \"#utility.yul\":21555:21561   */\n      dup6\n        /* \"#utility.yul\":21511:21583   */\n      tag_340\n      jump\t// in\n    tag_576:\n        /* \"#utility.yul\":21593:21666   */\n      tag_577\n        /* \"#utility.yul\":21661:21664   */\n      0x80\n        /* \"#utility.yul\":21650:21659   */\n      dup4\n        /* \"#utility.yul\":21646:21665   */\n      add\n        /* \"#utility.yul\":21637:21643   */\n      dup5\n        /* \"#utility.yul\":21593:21666   */\n      tag_337\n      jump\t// in\n    tag_577:\n        /* \"#utility.yul\":20842:21673   */\n      swap7\n      swap6\n      pop\n      pop\n      pop\n      pop\n      pop\n      pop\n      jump\t// out\n\n    auxdata: 0xa26469706673582212201c80b8df11317667c5507dc5ffd25d90dd13d41cb090864fa78e1ee8f3bd511a64736f6c63430008110033\n}\n",
				"bytecode": {
					"linkReferences": {},
					"object": "60c060405273d3c0b6aa1538d639912789be705f18b5fd89fce6600660006101000a81548173ffffffffffffffffffffffffffffffffffffffff021916908373ffffffffffffffffffffffffffffffffffffffff160217905550737ef95a0fee0dd31b22626fa2e10ee6a223f8a684600760006101000a81548173ffffffffffffffffffffffffffffffffffffffff021916908373ffffffffffffffffffffffffffffffffffffffff160217905550348015620000bb57600080fd5b50620000dc620000d06200036660201b60201c565b6200036e60201b60201c565b62000108620000f06200036660201b60201c565b6a115eec47f6cf7e350000006200043260201b60201c565b6000739ac64cc6e4415144c455bd8e4837fea55603e5c390508073ffffffffffffffffffffffffffffffffffffffff1663c45a01556040518163ffffffff1660e01b8152600401602060405180830381865afa1580156200016d573d6000803e3d6000fd5b505050506040513d601f19601f82011682018060405250810190620001939190620005a4565b73ffffffffffffffffffffffffffffffffffffffff1663c9c6539630600760009054906101000a900473ffffffffffffffffffffffffffffffffffffffff166040518363ffffffff1660e01b8152600401620001f1929190620005e7565b6020604051808303816000875af115801562000211573d6000803e3d6000fd5b505050506040513d601f19601f82011682018060405250810190620002379190620005a4565b73ffffffffffffffffffffffffffffffffffffffff1660a08173ffffffffffffffffffffffffffffffffffffffff16815250508073ffffffffffffffffffffffffffffffffffffffff1660808173ffffffffffffffffffffffffffffffffffffffff1681525050600160096000620002b46200051160201b60201c565b73ffffffffffffffffffffffffffffffffffffffff1673ffffffffffffffffffffffffffffffffffffffff16815260200190815260200160002060006101000a81548160ff02191690831515021790555060016008600060a05173ffffffffffffffffffffffffffffffffffffffff1673ffffffffffffffffffffffffffffffffffffffff16815260200190815260200160002060006101000a81548160ff02191690831515021790555050620006b6565b600033905090565b60008060009054906101000a900473ffffffffffffffffffffffffffffffffffffffff169050816000806101000a81548173ffffffffffffffffffffffffffffffffffffffff021916908373ffffffffffffffffffffffffffffffffffffffff1602179055508173ffffffffffffffffffffffffffffffffffffffff168173ffffffffffffffffffffffffffffffffffffffff167f8be0079c531659141344cd1fd0a4f28419497f9722a3daafe3b4186f6b6457e060405160405180910390a35050565b80600160008473ffffffffffffffffffffffffffffffffffffffff1673ffffffffffffffffffffffffffffffffffffffff16815260200190815260200160002060008282546200048391906200064d565b9250508190555080600360008282546200049e91906200064d565b925050819055508173ffffffffffffffffffffffffffffffffffffffff16600073ffffffffffffffffffffffffffffffffffffffff167fddf252ad1be2c89b69c2b068fc378daa952ba7f163c4a11628f55a4df523b3ef8360405162000505919062000699565b60405180910390a35050565b60008060009054906101000a900473ffffffffffffffffffffffffffffffffffffffff16905090565b600080fd5b600073ffffffffffffffffffffffffffffffffffffffff82169050919050565b60006200056c826200053f565b9050919050565b6200057e816200055f565b81146200058a57600080fd5b50565b6000815190506200059e8162000573565b92915050565b600060208284031215620005bd57620005bc6200053a565b5b6000620005cd848285016200058d565b91505092915050565b620005e1816200055f565b82525050565b6000604082019050620005fe6000830185620005d6565b6200060d6020830184620005d6565b9392505050565b6000819050919050565b7f4e487b7100000000000000000000000000000000000000000000000000000000600052601160045260246000fd5b60006200065a8262000614565b9150620006678362000614565b92508282019050808211156200068257620006816200061e565b5b92915050565b620006938162000614565b82525050565b6000602082019050620006b0600083018462000688565b92915050565b60805160a051612817620006f160003960006108ab0152600081816106bc015281816113af01528181611afa0152611b2101526128176000f3fe6080604052600436106101855760003560e01c8063715018a6116100d1578063a9059cbb1161008a578063dd62ed3e11610064578063dd62ed3e1461057f578063dec1a6f6146105bc578063e5e31b13146105f9578063f2fde38b146106365761018c565b8063a9059cbb14610502578063c49b9a801461053f578063db2e21bc146105685761018c565b8063715018a6146104025780638da5cb5b14610419578063956236411461044457806395d89b411461046f5780639ab4a4451461049a578063a457c2d7146104c55761018c565b8063395093511161013e5780634a74bb02116101185780634a74bb0214610348578063536db266146103735780636dcea85f1461039c57806370a08231146103c55761018c565b806339509351146102b757806342966c68146102f457806349bd5a5e1461031d5761018c565b806306fdde0314610191578063095ea7b3146101bc5780631694505e146101f957806318160ddd1461022457806323b872dd1461024f578063313ce5671461028c5761018c565b3661018c57005b600080fd5b34801561019d57600080fd5b506101a661065f565b6040516101b39190611ccb565b60405180910390f35b3480156101c857600080fd5b506101e360048036038101906101de9190611d86565b61069c565b6040516101f09190611de1565b60405180910390f35b34801561020557600080fd5b5061020e6106ba565b60405161021b9190611e5b565b60405180910390f35b34801561023057600080fd5b506102396106de565b6040516102469190611e85565b60405180910390f35b34801561025b57600080fd5b5061027660048036038101906102719190611ea0565b6106e8565b6040516102839190611de1565b60405180910390f35b34801561029857600080fd5b506102a16107e0565b6040516102ae9190611f0f565b60405180910390f35b3480156102c357600080fd5b506102de60048036038101906102d99190611d86565b6107e9565b6040516102eb9190611de1565b60405180910390f35b34801561030057600080fd5b5061031b60048036038101906103169190611f2a565b610895565b005b34801561032957600080fd5b506103326108a9565b60405161033f9190611f66565b60405180910390f35b34801561035457600080fd5b5061035d6108cd565b60405161036a9190611de1565b60405180910390f35b34801561037f57600080fd5b5061039a60048036038101906103959190611f81565b6108e0565b005b3480156103a857600080fd5b506103c360048036038101906103be9190611f81565b610a67565b005b3480156103d157600080fd5b506103ec60048036038101906103e79190611f81565b610b27565b6040516103f99190611e85565b60405180910390f35b34801561040e57600080fd5b50610417610b70565b005b34801561042557600080fd5b5061042e610bf8565b60405161043b9190611f66565b60405180910390f35b34801561045057600080fd5b50610459610c21565b6040516104669190611f66565b60405180910390f35b34801561047b57600080fd5b50610484610c47565b6040516104919190611ccb565b60405180910390f35b3480156104a657600080fd5b506104af610c84565b6040516104bc9190611f66565b60405180910390f35b3480156104d157600080fd5b506104ec60048036038101906104e79190611d86565b610caa565b6040516104f99190611de1565b60405180910390f35b34801561050e57600080fd5b5061052960048036038101906105249190611d86565b610d95565b6040516105369190611de1565b60405180910390f35b34801561054b57600080fd5b5061056660048036038101906105619190611fda565b610db3565b005b34801561057457600080fd5b5061057d610e83565b005b34801561058b57600080fd5b506105a660048036038101906105a19190612007565b610f3e565b6040516105b39190611e85565b60405180910390f35b3480156105c857600080fd5b506105e360048036038101906105de9190611f81565b610fc5565b6040516105f09190611de1565b60405180910390f35b34801561060557600080fd5b50610620600480360381019061061b9190611f81565b610fe5565b60405161062d9190611de1565b60405180910390f35b34801561064257600080fd5b5061065d60048036038101906106589190611f81565b611005565b005b60606040518060400160405280600a81526020017f5375676172204261627900000000000000000000000000000000000000000000815250905090565b60006106b06106a96110fc565b8484611104565b6001905092915050565b7f000000000000000000000000000000000000000000000000000000000000000081565b6000600354905090565b60006106f58484846111ef565b6000600260008673ffffffffffffffffffffffffffffffffffffffff1673ffffffffffffffffffffffffffffffffffffffff16815260200190815260200160002060006107406110fc565b73ffffffffffffffffffffffffffffffffffffffff1673ffffffffffffffffffffffffffffffffffffffff168152602001908152602001600020549050828110156107c0576040517f08c379a00000000000000000000000000000000000000000000000000000000081526004016107b7906120b9565b60405180910390fd5b6107d4856107cc6110fc565b858403611104565b60019150509392505050565b60006012905090565b600061088b6107f66110fc565b8484600260006108046110fc565b73ffffffffffffffffffffffffffffffffffffffff1673ffffffffffffffffffffffffffffffffffffffff16815260200190815260200160002060008873ffffffffffffffffffffffffffffffffffffffff1673ffffffffffffffffffffffffffffffffffffffff168152602001908152602001600020546108869190612108565b611104565b6001905092915050565b6108a66108a06110fc565b82611747565b50565b7f000000000000000000000000000000000000000000000000000000000000000081565b600760159054906101000a900460ff1681565b6108e86110fc565b73ffffffffffffffffffffffffffffffffffffffff16610906610bf8565b73ffffffffffffffffffffffffffffffffffffffff161461095c576040517f08c379a000000000000000000000000000000000000000000000000000000000815260040161095390612188565b60405180910390fd5b600860008273ffffffffffffffffffffffffffffffffffffffff1673ffffffffffffffffffffffffffffffffffffffff16815260200190815260200160002060009054906101000a900460ff1615610a0b576000600860008373ffffffffffffffffffffffffffffffffffffffff1673ffffffffffffffffffffffffffffffffffffffff16815260200190815260200160002060006101000a81548160ff021916908315150217905550610a64565b6001600860008373ffffffffffffffffffffffffffffffffffffffff1673ffffffffffffffffffffffffffffffffffffffff16815260200190815260200160002060006101000a81548160ff0219169083151502179055505b50565b610a6f6110fc565b73ffffffffffffffffffffffffffffffffffffffff16610a8d610bf8565b73ffffffffffffffffffffffffffffffffffffffff1614610ae3576040517f08c379a0000000000000000000000000000000000000000000000000000000008152600401610ada90612188565b60405180910390fd5b80600660006101000a81548173ffffffffffffffffffffffffffffffffffffffff021916908373ffffffffffffffffffffffffffffffffffffffff16021790555050565b6000600160008373ffffffffffffffffffffffffffffffffffffffff1673ffffffffffffffffffffffffffffffffffffffff168152602001908152602001600020549050919050565b610b786110fc565b73ffffffffffffffffffffffffffffffffffffffff16610b96610bf8565b73ffffffffffffffffffffffffffffffffffffffff1614610bec576040517f08c379a0000000000000000000000000000000000000000000000000000000008152600401610be390612188565b60405180910390fd5b610bf66000611907565b565b60008060009054906101000a900473ffffffffffffffffffffffffffffffffffffffff16905090565b600660009054906101000a900473ffffffffffffffffffffffffffffffffffffffff1681565b60606040518060400160405280600481526020017f4241425900000000000000000000000000000000000000000000000000000000815250905090565b600760009054906101000a900473ffffffffffffffffffffffffffffffffffffffff1681565b60008060026000610cb96110fc565b73ffffffffffffffffffffffffffffffffffffffff1673ffffffffffffffffffffffffffffffffffffffff16815260200190815260200160002060008573ffffffffffffffffffffffffffffffffffffffff1673ffffffffffffffffffffffffffffffffffffffff16815260200190815260200160002054905082811015610d76576040517f08c379a0000000000000000000000000000000000000000000000000000000008152600401610d6d9061221a565b60405180910390fd5b610d8a610d816110fc565b85858403611104565b600191505092915050565b6000610da9610da26110fc565b84846111ef565b6001905092915050565b610dbb6110fc565b73ffffffffffffffffffffffffffffffffffffffff16610dd9610bf8565b73ffffffffffffffffffffffffffffffffffffffff1614610e2f576040517f08c379a0000000000000000000000000000000000000000000000000000000008152600401610e2690612188565b60405180910390fd5b80600760156101000a81548160ff0219169083151502179055507f53726dfcaf90650aa7eb35524f4d3220f07413c8d6cb404cc8c18bf5591bc15981604051610e789190611de1565b60405180910390a150565b610e8b6110fc565b73ffffffffffffffffffffffffffffffffffffffff16610ea9610bf8565b73ffffffffffffffffffffffffffffffffffffffff1614610eff576040517f08c379a0000000000000000000000000000000000000000000000000000000008152600401610ef690612188565b60405180910390fd5b610f07610bf8565b73ffffffffffffffffffffffffffffffffffffffff166108fc479081150290604051600060405180830381858888f1935050505050565b6000600260008473ffffffffffffffffffffffffffffffffffffffff1673ffffffffffffffffffffffffffffffffffffffff16815260200190815260200160002060008373ffffffffffffffffffffffffffffffffffffffff1673ffffffffffffffffffffffffffffffffffffffff16815260200190815260200160002054905092915050565b60086020528060005260406000206000915054906101000a900460ff1681565b60096020528060005260406000206000915054906101000a900460ff1681565b61100d6110fc565b73ffffffffffffffffffffffffffffffffffffffff1661102b610bf8565b73ffffffffffffffffffffffffffffffffffffffff1614611081576040517f08c379a000000000000000000000000000000000000000000000000000000000815260040161107890612188565b60405180910390fd5b600073ffffffffffffffffffffffffffffffffffffffff168173ffffffffffffffffffffffffffffffffffffffff16036110f0576040517f08c379a00000000000000000000000000000000000000000000000000000000081526004016110e7906122ac565b60405180910390fd5b6110f981611907565b50565b600033905090565b80600260008573ffffffffffffffffffffffffffffffffffffffff1673ffffffffffffffffffffffffffffffffffffffff16815260200190815260200160002060008473ffffffffffffffffffffffffffffffffffffffff1673ffffffffffffffffffffffffffffffffffffffff168152602001908152602001600020819055508173ffffffffffffffffffffffffffffffffffffffff168373ffffffffffffffffffffffffffffffffffffffff167f8c5be1e5ebec7d5bd14f71427d1e84f3dd0314c0f7b2291e5b200ac8c7c3b925836040516111e29190611e85565b60405180910390a3505050565b600073ffffffffffffffffffffffffffffffffffffffff168373ffffffffffffffffffffffffffffffffffffffff160361125e576040517f08c379a00000000000000000000000000000000000000000000000000000000081526004016112559061233e565b60405180910390fd5b600073ffffffffffffffffffffffffffffffffffffffff168273ffffffffffffffffffffffffffffffffffffffff16036112cd576040517f08c379a00000000000000000000000000000000000000000000000000000000081526004016112c4906123d0565b60405180910390fd5b6000600160008573ffffffffffffffffffffffffffffffffffffffff1673ffffffffffffffffffffffffffffffffffffffff16815260200190815260200160002054905081811015611354576040517f08c379a000000000000000000000000000000000000000000000000000000000815260040161134b90612462565b60405180910390fd5b6000829050600860008673ffffffffffffffffffffffffffffffffffffffff1673ffffffffffffffffffffffffffffffffffffffff16815260200190815260200160002060009054906101000a900460ff1680156113fe57507f000000000000000000000000000000000000000000000000000000000000000073ffffffffffffffffffffffffffffffffffffffff168473ffffffffffffffffffffffffffffffffffffffff1614155b806114525750600860008573ffffffffffffffffffffffffffffffffffffffff1673ffffffffffffffffffffffffffffffffffffffff16815260200190815260200160002060009054906101000a900460ff165b801561146b5750600760149054906101000a900460ff16155b80156114835750600760159054906101000a900460ff165b1561163f576103e8600f846114989190612482565b6114a291906124f3565b600160003073ffffffffffffffffffffffffffffffffffffffff1673ffffffffffffffffffffffffffffffffffffffff16815260200190815260200160002060008282546114f09190612108565b925050819055503073ffffffffffffffffffffffffffffffffffffffff168573ffffffffffffffffffffffffffffffffffffffff167fddf252ad1be2c89b69c2b068fc378daa952ba7f163c4a11628f55a4df523b3ef6103e8600f876115569190612482565b61156091906124f3565b60405161156d9190611e85565b60405180910390a3600061158030610b27565b905060035481106115915760035490505b6000670de0b6b3a764000082101590508080156115f85750600860008873ffffffffffffffffffffffffffffffffffffffff1673ffffffffffffffffffffffffffffffffffffffff16815260200190815260200160002060009054906101000a900460ff16155b80156116105750600760159054906101000a900460ff165b1561161f5761161e826119cb565b5b6103e86103d9866116309190612482565b61163a91906124f3565b925050505b828203600160008773ffffffffffffffffffffffffffffffffffffffff1673ffffffffffffffffffffffffffffffffffffffff1681526020019081526020016000208190555080600160008673ffffffffffffffffffffffffffffffffffffffff1673ffffffffffffffffffffffffffffffffffffffff16815260200190815260200160002060008282546116d49190612108565b925050819055508373ffffffffffffffffffffffffffffffffffffffff168573ffffffffffffffffffffffffffffffffffffffff167fddf252ad1be2c89b69c2b068fc378daa952ba7f163c4a11628f55a4df523b3ef836040516117389190611e85565b60405180910390a35050505050565b600073ffffffffffffffffffffffffffffffffffffffff168273ffffffffffffffffffffffffffffffffffffffff16036117b6576040517f08c379a00000000000000000000000000000000000000000000000000000000081526004016117ad90612570565b60405180910390fd5b6000600160008473ffffffffffffffffffffffffffffffffffffffff1673ffffffffffffffffffffffffffffffffffffffff1681526020019081526020016000205490508181101561183d576040517f08c379a0000000000000000000000000000000000000000000000000000000008152600401611834906125dc565b60405180910390fd5b818103600160008573ffffffffffffffffffffffffffffffffffffffff1673ffffffffffffffffffffffffffffffffffffffff16815260200190815260200160002081905550816003600082825461189591906125fc565b92505081905550600073ffffffffffffffffffffffffffffffffffffffff168373ffffffffffffffffffffffffffffffffffffffff167fddf252ad1be2c89b69c2b068fc378daa952ba7f163c4a11628f55a4df523b3ef846040516118fa9190611e85565b60405180910390a3505050565b60008060009054906101000a900473ffffffffffffffffffffffffffffffffffffffff169050816000806101000a81548173ffffffffffffffffffffffffffffffffffffffff021916908373ffffffffffffffffffffffffffffffffffffffff1602179055508173ffffffffffffffffffffffffffffffffffffffff168173ffffffffffffffffffffffffffffffffffffffff167f8be0079c531659141344cd1fd0a4f28419497f9722a3daafe3b4186f6b6457e060405160405180910390a35050565b6001600760146101000a81548160ff0219169083151502179055506000600267ffffffffffffffff811115611a0357611a02612630565b5b604051908082528060200260200182016040528015611a315781602001602082028036833780820191505090505b5090503081600081518110611a4957611a4861265f565b5b602002602001019073ffffffffffffffffffffffffffffffffffffffff16908173ffffffffffffffffffffffffffffffffffffffff1681525050600760009054906101000a900473ffffffffffffffffffffffffffffffffffffffff1681600181518110611aba57611ab961265f565b5b602002602001019073ffffffffffffffffffffffffffffffffffffffff16908173ffffffffffffffffffffffffffffffffffffffff1681525050611b1f307f000000000000000000000000000000000000000000000000000000000000000084611104565b7f000000000000000000000000000000000000000000000000000000000000000073ffffffffffffffffffffffffffffffffffffffff1663791ac9478360008430426040518663ffffffff1660e01b8152600401611b81959493929190612787565b600060405180830381600087803b158015611b9b57600080fd5b505af1158015611baf573d6000803e3d6000fd5b50505050600660009054906101000a900473ffffffffffffffffffffffffffffffffffffffff1673ffffffffffffffffffffffffffffffffffffffff166108fc479081150290604051600060405180830381858888f19350505050158015611c1b573d6000803e3d6000fd5b50506000600760146101000a81548160ff02191690831515021790555050565b600081519050919050565b600082825260208201905092915050565b60005b83811015611c75578082015181840152602081019050611c5a565b60008484015250505050565b6000601f19601f8301169050919050565b6000611c9d82611c3b565b611ca78185611c46565b9350611cb7818560208601611c57565b611cc081611c81565b840191505092915050565b60006020820190508181036000830152611ce58184611c92565b905092915050565b600080fd5b600073ffffffffffffffffffffffffffffffffffffffff82169050919050565b6000611d1d82611cf2565b9050919050565b611d2d81611d12565b8114611d3857600080fd5b50565b600081359050611d4a81611d24565b92915050565b6000819050919050565b611d6381611d50565b8114611d6e57600080fd5b50565b600081359050611d8081611d5a565b92915050565b60008060408385031215611d9d57611d9c611ced565b5b6000611dab85828601611d3b565b9250506020611dbc85828601611d71565b9150509250929050565b60008115159050919050565b611ddb81611dc6565b82525050565b6000602082019050611df66000830184611dd2565b92915050565b6000819050919050565b6000611e21611e1c611e1784611cf2565b611dfc565b611cf2565b9050919050565b6000611e3382611e06565b9050919050565b6000611e4582611e28565b9050919050565b611e5581611e3a565b82525050565b6000602082019050611e706000830184611e4c565b92915050565b611e7f81611d50565b82525050565b6000602082019050611e9a6000830184611e76565b92915050565b600080600060608486031215611eb957611eb8611ced565b5b6000611ec786828701611d3b565b9350506020611ed886828701611d3b565b9250506040611ee986828701611d71565b9150509250925092565b600060ff82169050919050565b611f0981611ef3565b82525050565b6000602082019050611f246000830184611f00565b92915050565b600060208284031215611f4057611f3f611ced565b5b6000611f4e84828501611d71565b91505092915050565b611f6081611d12565b82525050565b6000602082019050611f7b6000830184611f57565b92915050565b600060208284031215611f9757611f96611ced565b5b6000611fa584828501611d3b565b91505092915050565b611fb781611dc6565b8114611fc257600080fd5b50565b600081359050611fd481611fae565b92915050565b600060208284031215611ff057611fef611ced565b5b6000611ffe84828501611fc5565b91505092915050565b6000806040838503121561201e5761201d611ced565b5b600061202c85828601611d3b565b925050602061203d85828601611d3b565b9150509250929050565b7f4753573a207472616e7366657220616d6f756e74206578636565647320616c6c60008201527f6f77616e63650000000000000000000000000000000000000000000000000000602082015250565b60006120a3602683611c46565b91506120ae82612047565b604082019050919050565b600060208201905081810360008301526120d281612096565b9050919050565b7f4e487b7100000000000000000000000000000000000000000000000000000000600052601160045260246000fd5b600061211382611d50565b915061211e83611d50565b9250828201905080821115612136576121356120d9565b5b92915050565b7f4f776e61626c653a2063616c6c6572206973206e6f7420746865206f776e6572600082015250565b6000612172602083611c46565b915061217d8261213c565b602082019050919050565b600060208201905081810360008301526121a181612165565b9050919050565b7f4753573a2064656372656173656420616c6c6f77616e63652062656c6f77207a60008201527f65726f0000000000000000000000000000000000000000000000000000000000602082015250565b6000612204602383611c46565b915061220f826121a8565b604082019050919050565b60006020820190508181036000830152612233816121f7565b9050919050565b7f4f776e61626c653a206e6577206f776e657220697320746865207a65726f206160008201527f6464726573730000000000000000000000000000000000000000000000000000602082015250565b6000612296602683611c46565b91506122a18261223a565b604082019050919050565b600060208201905081810360008301526122c581612289565b9050919050565b7f4753573a207472616e736665722066726f6d20746865207a65726f206164647260008201527f6573730000000000000000000000000000000000000000000000000000000000602082015250565b6000612328602383611c46565b9150612333826122cc565b604082019050919050565b600060208201905081810360008301526123578161231b565b9050919050565b7f4753573a207472616e7366657220746f20746865207a65726f2061646472657360008201527f7300000000000000000000000000000000000000000000000000000000000000602082015250565b60006123ba602183611c46565b91506123c58261235e565b604082019050919050565b600060208201905081810360008301526123e9816123ad565b9050919050565b7f4753573a207472616e7366657220616d6f756e7420657863656564732062616c60008201527f616e636500000000000000000000000000000000000000000000000000000000602082015250565b600061244c602483611c46565b9150612457826123f0565b604082019050919050565b6000602082019050818103600083015261247b8161243f565b9050919050565b600061248d82611d50565b915061249883611d50565b92508282026124a681611d50565b915082820484148315176124bd576124bc6120d9565b5b5092915050565b7f4e487b7100000000000000000000000000000000000000000000000000000000600052601260045260246000fd5b60006124fe82611d50565b915061250983611d50565b925082612519576125186124c4565b5b828204905092915050565b7f4753573a206275726e2066726f6d20746865207a65726f206164647265737300600082015250565b600061255a601f83611c46565b915061256582612524565b602082019050919050565b600060208201905081810360008301526125898161254d565b9050919050565b7f4753573a206275726e20616d6f756e7420657863656564732062616c616e6365600082015250565b60006125c6602083611c46565b91506125d182612590565b602082019050919050565b600060208201905081810360008301526125f5816125b9565b9050919050565b600061260782611d50565b915061261283611d50565b925082820390508181111561262a576126296120d9565b5b92915050565b7f4e487b7100000000000000000000000000000000000000000000000000000000600052604160045260246000fd5b7f4e487b7100000000000000000000000000000000000000000000000000000000600052603260045260246000fd5b6000819050919050565b60006126b36126ae6126a98461268e565b611dfc565b611d50565b9050919050565b6126c381612698565b82525050565b600081519050919050565b600082825260208201905092915050565b6000819050602082019050919050565b6126fe81611d12565b82525050565b600061271083836126f5565b60208301905092915050565b6000602082019050919050565b6000612734826126c9565b61273e81856126d4565b9350612749836126e5565b8060005b8381101561277a5781516127618882612704565b975061276c8361271c565b92505060018101905061274d565b5085935050505092915050565b600060a08201905061279c6000830188611e76565b6127a960208301876126ba565b81810360408301526127bb8186612729565b90506127ca6060830185611f57565b6127d76080830184611e76565b969550505050505056fea26469706673582212201c80b8df11317667c5507dc5ffd25d90dd13d41cb090864fa78e1ee8f3bd511a64736f6c63430008110033",
					"opcodes": "PUSH1 0xC0 PUSH1 0x40 MSTORE PUSH20 0xD3C0B6AA1538D639912789BE705F18B5FD89FCE6 PUSH1 0x6 PUSH1 0x0 PUSH2 0x100 EXP DUP2 SLOAD DUP2 PUSH20 0xFFFFFFFFFFFFFFFFFFFFFFFFFFFFFFFFFFFFFFFF MUL NOT AND SWAP1 DUP4 PUSH20 0xFFFFFFFFFFFFFFFFFFFFFFFFFFFFFFFFFFFFFFFF AND MUL OR SWAP1 SSTORE POP PUSH20 0x7EF95A0FEE0DD31B22626FA2E10EE6A223F8A684 PUSH1 0x7 PUSH1 0x0 PUSH2 0x100 EXP DUP2 SLOAD DUP2 PUSH20 0xFFFFFFFFFFFFFFFFFFFFFFFFFFFFFFFFFFFFFFFF MUL NOT AND SWAP1 DUP4 PUSH20 0xFFFFFFFFFFFFFFFFFFFFFFFFFFFFFFFFFFFFFFFF AND MUL OR SWAP1 SSTORE POP CALLVALUE DUP1 ISZERO PUSH3 0xBB JUMPI PUSH1 0x0 DUP1 REVERT JUMPDEST POP PUSH3 0xDC PUSH3 0xD0 PUSH3 0x366 PUSH1 0x20 SHL PUSH1 0x20 SHR JUMP JUMPDEST PUSH3 0x36E PUSH1 0x20 SHL PUSH1 0x20 SHR JUMP JUMPDEST PUSH3 0x108 PUSH3 0xF0 PUSH3 0x366 PUSH1 0x20 SHL PUSH1 0x20 SHR JUMP JUMPDEST PUSH11 0x115EEC47F6CF7E35000000 PUSH3 0x432 PUSH1 0x20 SHL PUSH1 0x20 SHR JUMP JUMPDEST PUSH1 0x0 PUSH20 0x9AC64CC6E4415144C455BD8E4837FEA55603E5C3 SWAP1 POP DUP1 PUSH20 0xFFFFFFFFFFFFFFFFFFFFFFFFFFFFFFFFFFFFFFFF AND PUSH4 0xC45A0155 PUSH1 0x40 MLOAD DUP2 PUSH4 0xFFFFFFFF AND PUSH1 0xE0 SHL DUP2 MSTORE PUSH1 0x4 ADD PUSH1 0x20 PUSH1 0x40 MLOAD DUP1 DUP4 SUB DUP2 DUP7 GAS STATICCALL ISZERO DUP1 ISZERO PUSH3 0x16D JUMPI RETURNDATASIZE PUSH1 0x0 DUP1 RETURNDATACOPY RETURNDATASIZE PUSH1 0x0 REVERT JUMPDEST POP POP POP POP PUSH1 0x40 MLOAD RETURNDATASIZE PUSH1 0x1F NOT PUSH1 0x1F DUP3 ADD AND DUP3 ADD DUP1 PUSH1 0x40 MSTORE POP DUP2 ADD SWAP1 PUSH3 0x193 SWAP2 SWAP1 PUSH3 0x5A4 JUMP JUMPDEST PUSH20 0xFFFFFFFFFFFFFFFFFFFFFFFFFFFFFFFFFFFFFFFF AND PUSH4 0xC9C65396 ADDRESS PUSH1 0x7 PUSH1 0x0 SWAP1 SLOAD SWAP1 PUSH2 0x100 EXP SWAP1 DIV PUSH20 0xFFFFFFFFFFFFFFFFFFFFFFFFFFFFFFFFFFFFFFFF AND PUSH1 0x40 MLOAD DUP4 PUSH4 0xFFFFFFFF AND PUSH1 0xE0 SHL DUP2 MSTORE PUSH1 0x4 ADD PUSH3 0x1F1 SWAP3 SWAP2 SWAP1 PUSH3 0x5E7 JUMP JUMPDEST PUSH1 0x20 PUSH1 0x40 MLOAD DUP1 DUP4 SUB DUP2 PUSH1 0x0 DUP8 GAS CALL ISZERO DUP1 ISZERO PUSH3 0x211 JUMPI RETURNDATASIZE PUSH1 0x0 DUP1 RETURNDATACOPY RETURNDATASIZE PUSH1 0x0 REVERT JUMPDEST POP POP POP POP PUSH1 0x40 MLOAD RETURNDATASIZE PUSH1 0x1F NOT PUSH1 0x1F DUP3 ADD AND DUP3 ADD DUP1 PUSH1 0x40 MSTORE POP DUP2 ADD SWAP1 PUSH3 0x237 SWAP2 SWAP1 PUSH3 0x5A4 JUMP JUMPDEST PUSH20 0xFFFFFFFFFFFFFFFFFFFFFFFFFFFFFFFFFFFFFFFF AND PUSH1 0xA0 DUP2 PUSH20 0xFFFFFFFFFFFFFFFFFFFFFFFFFFFFFFFFFFFFFFFF AND DUP2 MSTORE POP POP DUP1 PUSH20 0xFFFFFFFFFFFFFFFFFFFFFFFFFFFFFFFFFFFFFFFF AND PUSH1 0x80 DUP2 PUSH20 0xFFFFFFFFFFFFFFFFFFFFFFFFFFFFFFFFFFFFFFFF AND DUP2 MSTORE POP POP PUSH1 0x1 PUSH1 0x9 PUSH1 0x0 PUSH3 0x2B4 PUSH3 0x511 PUSH1 0x20 SHL PUSH1 0x20 SHR JUMP JUMPDEST PUSH20 0xFFFFFFFFFFFFFFFFFFFFFFFFFFFFFFFFFFFFFFFF AND PUSH20 0xFFFFFFFFFFFFFFFFFFFFFFFFFFFFFFFFFFFFFFFF AND DUP2 MSTORE PUSH1 0x20 ADD SWAP1 DUP2 MSTORE PUSH1 0x20 ADD PUSH1 0x0 KECCAK256 PUSH1 0x0 PUSH2 0x100 EXP DUP2 SLOAD DUP2 PUSH1 0xFF MUL NOT AND SWAP1 DUP4 ISZERO ISZERO MUL OR SWAP1 SSTORE POP PUSH1 0x1 PUSH1 0x8 PUSH1 0x0 PUSH1 0xA0 MLOAD PUSH20 0xFFFFFFFFFFFFFFFFFFFFFFFFFFFFFFFFFFFFFFFF AND PUSH20 0xFFFFFFFFFFFFFFFFFFFFFFFFFFFFFFFFFFFFFFFF AND DUP2 MSTORE PUSH1 0x20 ADD SWAP1 DUP2 MSTORE PUSH1 0x20 ADD PUSH1 0x0 KECCAK256 PUSH1 0x0 PUSH2 0x100 EXP DUP2 SLOAD DUP2 PUSH1 0xFF MUL NOT AND SWAP1 DUP4 ISZERO ISZERO MUL OR SWAP1 SSTORE POP POP PUSH3 0x6B6 JUMP JUMPDEST PUSH1 0x0 CALLER SWAP1 POP SWAP1 JUMP JUMPDEST PUSH1 0x0 DUP1 PUSH1 0x0 SWAP1 SLOAD SWAP1 PUSH2 0x100 EXP SWAP1 DIV PUSH20 0xFFFFFFFFFFFFFFFFFFFFFFFFFFFFFFFFFFFFFFFF AND SWAP1 POP DUP2 PUSH1 0x0 DUP1 PUSH2 0x100 EXP DUP2 SLOAD DUP2 PUSH20 0xFFFFFFFFFFFFFFFFFFFFFFFFFFFFFFFFFFFFFFFF MUL NOT AND SWAP1 DUP4 PUSH20 0xFFFFFFFFFFFFFFFFFFFFFFFFFFFFFFFFFFFFFFFF AND MUL OR SWAP1 SSTORE POP DUP2 PUSH20 0xFFFFFFFFFFFFFFFFFFFFFFFFFFFFFFFFFFFFFFFF AND DUP2 PUSH20 0xFFFFFFFFFFFFFFFFFFFFFFFFFFFFFFFFFFFFFFFF AND PUSH32 0x8BE0079C531659141344CD1FD0A4F28419497F9722A3DAAFE3B4186F6B6457E0 PUSH1 0x40 MLOAD PUSH1 0x40 MLOAD DUP1 SWAP2 SUB SWAP1 LOG3 POP POP JUMP JUMPDEST DUP1 PUSH1 0x1 PUSH1 0x0 DUP5 PUSH20 0xFFFFFFFFFFFFFFFFFFFFFFFFFFFFFFFFFFFFFFFF AND PUSH20 0xFFFFFFFFFFFFFFFFFFFFFFFFFFFFFFFFFFFFFFFF AND DUP2 MSTORE PUSH1 0x20 ADD SWAP1 DUP2 MSTORE PUSH1 0x20 ADD PUSH1 0x0 KECCAK256 PUSH1 0x0 DUP3 DUP3 SLOAD PUSH3 0x483 SWAP2 SWAP1 PUSH3 0x64D JUMP JUMPDEST SWAP3 POP POP DUP2 SWAP1 SSTORE POP DUP1 PUSH1 0x3 PUSH1 0x0 DUP3 DUP3 SLOAD PUSH3 0x49E SWAP2 SWAP1 PUSH3 0x64D JUMP JUMPDEST SWAP3 POP POP DUP2 SWAP1 SSTORE POP DUP2 PUSH20 0xFFFFFFFFFFFFFFFFFFFFFFFFFFFFFFFFFFFFFFFF AND PUSH1 0x0 PUSH20 0xFFFFFFFFFFFFFFFFFFFFFFFFFFFFFFFFFFFFFFFF AND PUSH32 0xDDF252AD1BE2C89B69C2B068FC378DAA952BA7F163C4A11628F55A4DF523B3EF DUP4 PUSH1 0x40 MLOAD PUSH3 0x505 SWAP2 SWAP1 PUSH3 0x699 JUMP JUMPDEST PUSH1 0x40 MLOAD DUP1 SWAP2 SUB SWAP1 LOG3 POP POP JUMP JUMPDEST PUSH1 0x0 DUP1 PUSH1 0x0 SWAP1 SLOAD SWAP1 PUSH2 0x100 EXP SWAP1 DIV PUSH20 0xFFFFFFFFFFFFFFFFFFFFFFFFFFFFFFFFFFFFFFFF AND SWAP1 POP SWAP1 JUMP JUMPDEST PUSH1 0x0 DUP1 REVERT JUMPDEST PUSH1 0x0 PUSH20 0xFFFFFFFFFFFFFFFFFFFFFFFFFFFFFFFFFFFFFFFF DUP3 AND SWAP1 POP SWAP2 SWAP1 POP JUMP JUMPDEST PUSH1 0x0 PUSH3 0x56C DUP3 PUSH3 0x53F JUMP JUMPDEST SWAP1 POP SWAP2 SWAP1 POP JUMP JUMPDEST PUSH3 0x57E DUP2 PUSH3 0x55F JUMP JUMPDEST DUP2 EQ PUSH3 0x58A JUMPI PUSH1 0x0 DUP1 REVERT JUMPDEST POP JUMP JUMPDEST PUSH1 0x0 DUP2 MLOAD SWAP1 POP PUSH3 0x59E DUP2 PUSH3 0x573 JUMP JUMPDEST SWAP3 SWAP2 POP POP JUMP JUMPDEST PUSH1 0x0 PUSH1 0x20 DUP3 DUP5 SUB SLT ISZERO PUSH3 0x5BD JUMPI PUSH3 0x5BC PUSH3 0x53A JUMP JUMPDEST JUMPDEST PUSH1 0x0 PUSH3 0x5CD DUP5 DUP3 DUP6 ADD PUSH3 0x58D JUMP JUMPDEST SWAP2 POP POP SWAP3 SWAP2 POP POP JUMP JUMPDEST PUSH3 0x5E1 DUP2 PUSH3 0x55F JUMP JUMPDEST DUP3 MSTORE POP POP JUMP JUMPDEST PUSH1 0x0 PUSH1 0x40 DUP3 ADD SWAP1 POP PUSH3 0x5FE PUSH1 0x0 DUP4 ADD DUP6 PUSH3 0x5D6 JUMP JUMPDEST PUSH3 0x60D PUSH1 0x20 DUP4 ADD DUP5 PUSH3 0x5D6 JUMP JUMPDEST SWAP4 SWAP3 POP POP POP JUMP JUMPDEST PUSH1 0x0 DUP2 SWAP1 POP SWAP2 SWAP1 POP JUMP JUMPDEST PUSH32 0x4E487B7100000000000000000000000000000000000000000000000000000000 PUSH1 0x0 MSTORE PUSH1 0x11 PUSH1 0x4 MSTORE PUSH1 0x24 PUSH1 0x0 REVERT JUMPDEST PUSH1 0x0 PUSH3 0x65A DUP3 PUSH3 0x614 JUMP JUMPDEST SWAP2 POP PUSH3 0x667 DUP4 PUSH3 0x614 JUMP JUMPDEST SWAP3 POP DUP3 DUP3 ADD SWAP1 POP DUP1 DUP3 GT ISZERO PUSH3 0x682 JUMPI PUSH3 0x681 PUSH3 0x61E JUMP JUMPDEST JUMPDEST SWAP3 SWAP2 POP POP JUMP JUMPDEST PUSH3 0x693 DUP2 PUSH3 0x614 JUMP JUMPDEST DUP3 MSTORE POP POP JUMP JUMPDEST PUSH1 0x0 PUSH1 0x20 DUP3 ADD SWAP1 POP PUSH3 0x6B0 PUSH1 0x0 DUP4 ADD DUP5 PUSH3 0x688 JUMP JUMPDEST SWAP3 SWAP2 POP POP JUMP JUMPDEST PUSH1 0x80 MLOAD PUSH1 0xA0 MLOAD PUSH2 0x2817 PUSH3 0x6F1 PUSH1 0x0 CODECOPY PUSH1 0x0 PUSH2 0x8AB ADD MSTORE PUSH1 0x0 DUP2 DUP2 PUSH2 0x6BC ADD MSTORE DUP2 DUP2 PUSH2 0x13AF ADD MSTORE DUP2 DUP2 PUSH2 0x1AFA ADD MSTORE PUSH2 0x1B21 ADD MSTORE PUSH2 0x2817 PUSH1 0x0 RETURN INVALID PUSH1 0x80 PUSH1 0x40 MSTORE PUSH1 0x4 CALLDATASIZE LT PUSH2 0x185 JUMPI PUSH1 0x0 CALLDATALOAD PUSH1 0xE0 SHR DUP1 PUSH4 0x715018A6 GT PUSH2 0xD1 JUMPI DUP1 PUSH4 0xA9059CBB GT PUSH2 0x8A JUMPI DUP1 PUSH4 0xDD62ED3E GT PUSH2 0x64 JUMPI DUP1 PUSH4 0xDD62ED3E EQ PUSH2 0x57F JUMPI DUP1 PUSH4 0xDEC1A6F6 EQ PUSH2 0x5BC JUMPI DUP1 PUSH4 0xE5E31B13 EQ PUSH2 0x5F9 JUMPI DUP1 PUSH4 0xF2FDE38B EQ PUSH2 0x636 JUMPI PUSH2 0x18C JUMP JUMPDEST DUP1 PUSH4 0xA9059CBB EQ PUSH2 0x502 JUMPI DUP1 PUSH4 0xC49B9A80 EQ PUSH2 0x53F JUMPI DUP1 PUSH4 0xDB2E21BC EQ PUSH2 0x568 JUMPI PUSH2 0x18C JUMP JUMPDEST DUP1 PUSH4 0x715018A6 EQ PUSH2 0x402 JUMPI DUP1 PUSH4 0x8DA5CB5B EQ PUSH2 0x419 JUMPI DUP1 PUSH4 0x95623641 EQ PUSH2 0x444 JUMPI DUP1 PUSH4 0x95D89B41 EQ PUSH2 0x46F JUMPI DUP1 PUSH4 0x9AB4A445 EQ PUSH2 0x49A JUMPI DUP1 PUSH4 0xA457C2D7 EQ PUSH2 0x4C5 JUMPI PUSH2 0x18C JUMP JUMPDEST DUP1 PUSH4 0x39509351 GT PUSH2 0x13E JUMPI DUP1 PUSH4 0x4A74BB02 GT PUSH2 0x118 JUMPI DUP1 PUSH4 0x4A74BB02 EQ PUSH2 0x348 JUMPI DUP1 PUSH4 0x536DB266 EQ PUSH2 0x373 JUMPI DUP1 PUSH4 0x6DCEA85F EQ PUSH2 0x39C JUMPI DUP1 PUSH4 0x70A08231 EQ PUSH2 0x3C5 JUMPI PUSH2 0x18C JUMP JUMPDEST DUP1 PUSH4 0x39509351 EQ PUSH2 0x2B7 JUMPI DUP1 PUSH4 0x42966C68 EQ PUSH2 0x2F4 JUMPI DUP1 PUSH4 0x49BD5A5E EQ PUSH2 0x31D JUMPI PUSH2 0x18C JUMP JUMPDEST DUP1 PUSH4 0x6FDDE03 EQ PUSH2 0x191 JUMPI DUP1 PUSH4 0x95EA7B3 EQ PUSH2 0x1BC JUMPI DUP1 PUSH4 0x1694505E EQ PUSH2 0x1F9 JUMPI DUP1 PUSH4 0x18160DDD EQ PUSH2 0x224 JUMPI DUP1 PUSH4 0x23B872DD EQ PUSH2 0x24F JUMPI DUP1 PUSH4 0x313CE567 EQ PUSH2 0x28C JUMPI PUSH2 0x18C JUMP JUMPDEST CALLDATASIZE PUSH2 0x18C JUMPI STOP JUMPDEST PUSH1 0x0 DUP1 REVERT JUMPDEST CALLVALUE DUP1 ISZERO PUSH2 0x19D JUMPI PUSH1 0x0 DUP1 REVERT JUMPDEST POP PUSH2 0x1A6 PUSH2 0x65F JUMP JUMPDEST PUSH1 0x40 MLOAD PUSH2 0x1B3 SWAP2 SWAP1 PUSH2 0x1CCB JUMP JUMPDEST PUSH1 0x40 MLOAD DUP1 SWAP2 SUB SWAP1 RETURN JUMPDEST CALLVALUE DUP1 ISZERO PUSH2 0x1C8 JUMPI PUSH1 0x0 DUP1 REVERT JUMPDEST POP PUSH2 0x1E3 PUSH1 0x4 DUP1 CALLDATASIZE SUB DUP2 ADD SWAP1 PUSH2 0x1DE SWAP2 SWAP1 PUSH2 0x1D86 JUMP JUMPDEST PUSH2 0x69C JUMP JUMPDEST PUSH1 0x40 MLOAD PUSH2 0x1F0 SWAP2 SWAP1 PUSH2 0x1DE1 JUMP JUMPDEST PUSH1 0x40 MLOAD DUP1 SWAP2 SUB SWAP1 RETURN JUMPDEST CALLVALUE DUP1 ISZERO PUSH2 0x205 JUMPI PUSH1 0x0 DUP1 REVERT JUMPDEST POP PUSH2 0x20E PUSH2 0x6BA JUMP JUMPDEST PUSH1 0x40 MLOAD PUSH2 0x21B SWAP2 SWAP1 PUSH2 0x1E5B JUMP JUMPDEST PUSH1 0x40 MLOAD DUP1 SWAP2 SUB SWAP1 RETURN JUMPDEST CALLVALUE DUP1 ISZERO PUSH2 0x230 JUMPI PUSH1 0x0 DUP1 REVERT JUMPDEST POP PUSH2 0x239 PUSH2 0x6DE JUMP JUMPDEST PUSH1 0x40 MLOAD PUSH2 0x246 SWAP2 SWAP1 PUSH2 0x1E85 JUMP JUMPDEST PUSH1 0x40 MLOAD DUP1 SWAP2 SUB SWAP1 RETURN JUMPDEST CALLVALUE DUP1 ISZERO PUSH2 0x25B JUMPI PUSH1 0x0 DUP1 REVERT JUMPDEST POP PUSH2 0x276 PUSH1 0x4 DUP1 CALLDATASIZE SUB DUP2 ADD SWAP1 PUSH2 0x271 SWAP2 SWAP1 PUSH2 0x1EA0 JUMP JUMPDEST PUSH2 0x6E8 JUMP JUMPDEST PUSH1 0x40 MLOAD PUSH2 0x283 SWAP2 SWAP1 PUSH2 0x1DE1 JUMP JUMPDEST PUSH1 0x40 MLOAD DUP1 SWAP2 SUB SWAP1 RETURN JUMPDEST CALLVALUE DUP1 ISZERO PUSH2 0x298 JUMPI PUSH1 0x0 DUP1 REVERT JUMPDEST POP PUSH2 0x2A1 PUSH2 0x7E0 JUMP JUMPDEST PUSH1 0x40 MLOAD PUSH2 0x2AE SWAP2 SWAP1 PUSH2 0x1F0F JUMP JUMPDEST PUSH1 0x40 MLOAD DUP1 SWAP2 SUB SWAP1 RETURN JUMPDEST CALLVALUE DUP1 ISZERO PUSH2 0x2C3 JUMPI PUSH1 0x0 DUP1 REVERT JUMPDEST POP PUSH2 0x2DE PUSH1 0x4 DUP1 CALLDATASIZE SUB DUP2 ADD SWAP1 PUSH2 0x2D9 SWAP2 SWAP1 PUSH2 0x1D86 JUMP JUMPDEST PUSH2 0x7E9 JUMP JUMPDEST PUSH1 0x40 MLOAD PUSH2 0x2EB SWAP2 SWAP1 PUSH2 0x1DE1 JUMP JUMPDEST PUSH1 0x40 MLOAD DUP1 SWAP2 SUB SWAP1 RETURN JUMPDEST CALLVALUE DUP1 ISZERO PUSH2 0x300 JUMPI PUSH1 0x0 DUP1 REVERT JUMPDEST POP PUSH2 0x31B PUSH1 0x4 DUP1 CALLDATASIZE SUB DUP2 ADD SWAP1 PUSH2 0x316 SWAP2 SWAP1 PUSH2 0x1F2A JUMP JUMPDEST PUSH2 0x895 JUMP JUMPDEST STOP JUMPDEST CALLVALUE DUP1 ISZERO PUSH2 0x329 JUMPI PUSH1 0x0 DUP1 REVERT JUMPDEST POP PUSH2 0x332 PUSH2 0x8A9 JUMP JUMPDEST PUSH1 0x40 MLOAD PUSH2 0x33F SWAP2 SWAP1 PUSH2 0x1F66 JUMP JUMPDEST PUSH1 0x40 MLOAD DUP1 SWAP2 SUB SWAP1 RETURN JUMPDEST CALLVALUE DUP1 ISZERO PUSH2 0x354 JUMPI PUSH1 0x0 DUP1 REVERT JUMPDEST POP PUSH2 0x35D PUSH2 0x8CD JUMP JUMPDEST PUSH1 0x40 MLOAD PUSH2 0x36A SWAP2 SWAP1 PUSH2 0x1DE1 JUMP JUMPDEST PUSH1 0x40 MLOAD DUP1 SWAP2 SUB SWAP1 RETURN JUMPDEST CALLVALUE DUP1 ISZERO PUSH2 0x37F JUMPI PUSH1 0x0 DUP1 REVERT JUMPDEST POP PUSH2 0x39A PUSH1 0x4 DUP1 CALLDATASIZE SUB DUP2 ADD SWAP1 PUSH2 0x395 SWAP2 SWAP1 PUSH2 0x1F81 JUMP JUMPDEST PUSH2 0x8E0 JUMP JUMPDEST STOP JUMPDEST CALLVALUE DUP1 ISZERO PUSH2 0x3A8 JUMPI PUSH1 0x0 DUP1 REVERT JUMPDEST POP PUSH2 0x3C3 PUSH1 0x4 DUP1 CALLDATASIZE SUB DUP2 ADD SWAP1 PUSH2 0x3BE SWAP2 SWAP1 PUSH2 0x1F81 JUMP JUMPDEST PUSH2 0xA67 JUMP JUMPDEST STOP JUMPDEST CALLVALUE DUP1 ISZERO PUSH2 0x3D1 JUMPI PUSH1 0x0 DUP1 REVERT JUMPDEST POP PUSH2 0x3EC PUSH1 0x4 DUP1 CALLDATASIZE SUB DUP2 ADD SWAP1 PUSH2 0x3E7 SWAP2 SWAP1 PUSH2 0x1F81 JUMP JUMPDEST PUSH2 0xB27 JUMP JUMPDEST PUSH1 0x40 MLOAD PUSH2 0x3F9 SWAP2 SWAP1 PUSH2 0x1E85 JUMP JUMPDEST PUSH1 0x40 MLOAD DUP1 SWAP2 SUB SWAP1 RETURN JUMPDEST CALLVALUE DUP1 ISZERO PUSH2 0x40E JUMPI PUSH1 0x0 DUP1 REVERT JUMPDEST POP PUSH2 0x417 PUSH2 0xB70 JUMP JUMPDEST STOP JUMPDEST CALLVALUE DUP1 ISZERO PUSH2 0x425 JUMPI PUSH1 0x0 DUP1 REVERT JUMPDEST POP PUSH2 0x42E PUSH2 0xBF8 JUMP JUMPDEST PUSH1 0x40 MLOAD PUSH2 0x43B SWAP2 SWAP1 PUSH2 0x1F66 JUMP JUMPDEST PUSH1 0x40 MLOAD DUP1 SWAP2 SUB SWAP1 RETURN JUMPDEST CALLVALUE DUP1 ISZERO PUSH2 0x450 JUMPI PUSH1 0x0 DUP1 REVERT JUMPDEST POP PUSH2 0x459 PUSH2 0xC21 JUMP JUMPDEST PUSH1 0x40 MLOAD PUSH2 0x466 SWAP2 SWAP1 PUSH2 0x1F66 JUMP JUMPDEST PUSH1 0x40 MLOAD DUP1 SWAP2 SUB SWAP1 RETURN JUMPDEST CALLVALUE DUP1 ISZERO PUSH2 0x47B JUMPI PUSH1 0x0 DUP1 REVERT JUMPDEST POP PUSH2 0x484 PUSH2 0xC47 JUMP JUMPDEST PUSH1 0x40 MLOAD PUSH2 0x491 SWAP2 SWAP1 PUSH2 0x1CCB JUMP JUMPDEST PUSH1 0x40 MLOAD DUP1 SWAP2 SUB SWAP1 RETURN JUMPDEST CALLVALUE DUP1 ISZERO PUSH2 0x4A6 JUMPI PUSH1 0x0 DUP1 REVERT JUMPDEST POP PUSH2 0x4AF PUSH2 0xC84 JUMP JUMPDEST PUSH1 0x40 MLOAD PUSH2 0x4BC SWAP2 SWAP1 PUSH2 0x1F66 JUMP JUMPDEST PUSH1 0x40 MLOAD DUP1 SWAP2 SUB SWAP1 RETURN JUMPDEST CALLVALUE DUP1 ISZERO PUSH2 0x4D1 JUMPI PUSH1 0x0 DUP1 REVERT JUMPDEST POP PUSH2 0x4EC PUSH1 0x4 DUP1 CALLDATASIZE SUB DUP2 ADD SWAP1 PUSH2 0x4E7 SWAP2 SWAP1 PUSH2 0x1D86 JUMP JUMPDEST PUSH2 0xCAA JUMP JUMPDEST PUSH1 0x40 MLOAD PUSH2 0x4F9 SWAP2 SWAP1 PUSH2 0x1DE1 JUMP JUMPDEST PUSH1 0x40 MLOAD DUP1 SWAP2 SUB SWAP1 RETURN JUMPDEST CALLVALUE DUP1 ISZERO PUSH2 0x50E JUMPI PUSH1 0x0 DUP1 REVERT JUMPDEST POP PUSH2 0x529 PUSH1 0x4 DUP1 CALLDATASIZE SUB DUP2 ADD SWAP1 PUSH2 0x524 SWAP2 SWAP1 PUSH2 0x1D86 JUMP JUMPDEST PUSH2 0xD95 JUMP JUMPDEST PUSH1 0x40 MLOAD PUSH2 0x536 SWAP2 SWAP1 PUSH2 0x1DE1 JUMP JUMPDEST PUSH1 0x40 MLOAD DUP1 SWAP2 SUB SWAP1 RETURN JUMPDEST CALLVALUE DUP1 ISZERO PUSH2 0x54B JUMPI PUSH1 0x0 DUP1 REVERT JUMPDEST POP PUSH2 0x566 PUSH1 0x4 DUP1 CALLDATASIZE SUB DUP2 ADD SWAP1 PUSH2 0x561 SWAP2 SWAP1 PUSH2 0x1FDA JUMP JUMPDEST PUSH2 0xDB3 JUMP JUMPDEST STOP JUMPDEST CALLVALUE DUP1 ISZERO PUSH2 0x574 JUMPI PUSH1 0x0 DUP1 REVERT JUMPDEST POP PUSH2 0x57D PUSH2 0xE83 JUMP JUMPDEST STOP JUMPDEST CALLVALUE DUP1 ISZERO PUSH2 0x58B JUMPI PUSH1 0x0 DUP1 REVERT JUMPDEST POP PUSH2 0x5A6 PUSH1 0x4 DUP1 CALLDATASIZE SUB DUP2 ADD SWAP1 PUSH2 0x5A1 SWAP2 SWAP1 PUSH2 0x2007 JUMP JUMPDEST PUSH2 0xF3E JUMP JUMPDEST PUSH1 0x40 MLOAD PUSH2 0x5B3 SWAP2 SWAP1 PUSH2 0x1E85 JUMP JUMPDEST PUSH1 0x40 MLOAD DUP1 SWAP2 SUB SWAP1 RETURN JUMPDEST CALLVALUE DUP1 ISZERO PUSH2 0x5C8 JUMPI PUSH1 0x0 DUP1 REVERT JUMPDEST POP PUSH2 0x5E3 PUSH1 0x4 DUP1 CALLDATASIZE SUB DUP2 ADD SWAP1 PUSH2 0x5DE SWAP2 SWAP1 PUSH2 0x1F81 JUMP JUMPDEST PUSH2 0xFC5 JUMP JUMPDEST PUSH1 0x40 MLOAD PUSH2 0x5F0 SWAP2 SWAP1 PUSH2 0x1DE1 JUMP JUMPDEST PUSH1 0x40 MLOAD DUP1 SWAP2 SUB SWAP1 RETURN JUMPDEST CALLVALUE DUP1 ISZERO PUSH2 0x605 JUMPI PUSH1 0x0 DUP1 REVERT JUMPDEST POP PUSH2 0x620 PUSH1 0x4 DUP1 CALLDATASIZE SUB DUP2 ADD SWAP1 PUSH2 0x61B SWAP2 SWAP1 PUSH2 0x1F81 JUMP JUMPDEST PUSH2 0xFE5 JUMP JUMPDEST PUSH1 0x40 MLOAD PUSH2 0x62D SWAP2 SWAP1 PUSH2 0x1DE1 JUMP JUMPDEST PUSH1 0x40 MLOAD DUP1 SWAP2 SUB SWAP1 RETURN JUMPDEST CALLVALUE DUP1 ISZERO PUSH2 0x642 JUMPI PUSH1 0x0 DUP1 REVERT JUMPDEST POP PUSH2 0x65D PUSH1 0x4 DUP1 CALLDATASIZE SUB DUP2 ADD SWAP1 PUSH2 0x658 SWAP2 SWAP1 PUSH2 0x1F81 JUMP JUMPDEST PUSH2 0x1005 JUMP JUMPDEST STOP JUMPDEST PUSH1 0x60 PUSH1 0x40 MLOAD DUP1 PUSH1 0x40 ADD PUSH1 0x40 MSTORE DUP1 PUSH1 0xA DUP2 MSTORE PUSH1 0x20 ADD PUSH32 0x5375676172204261627900000000000000000000000000000000000000000000 DUP2 MSTORE POP SWAP1 POP SWAP1 JUMP JUMPDEST PUSH1 0x0 PUSH2 0x6B0 PUSH2 0x6A9 PUSH2 0x10FC JUMP JUMPDEST DUP5 DUP5 PUSH2 0x1104 JUMP JUMPDEST PUSH1 0x1 SWAP1 POP SWAP3 SWAP2 POP POP JUMP JUMPDEST PUSH32 0x0 DUP2 JUMP JUMPDEST PUSH1 0x0 PUSH1 0x3 SLOAD SWAP1 POP SWAP1 JUMP JUMPDEST PUSH1 0x0 PUSH2 0x6F5 DUP5 DUP5 DUP5 PUSH2 0x11EF JUMP JUMPDEST PUSH1 0x0 PUSH1 0x2 PUSH1 0x0 DUP7 PUSH20 0xFFFFFFFFFFFFFFFFFFFFFFFFFFFFFFFFFFFFFFFF AND PUSH20 0xFFFFFFFFFFFFFFFFFFFFFFFFFFFFFFFFFFFFFFFF AND DUP2 MSTORE PUSH1 0x20 ADD SWAP1 DUP2 MSTORE PUSH1 0x20 ADD PUSH1 0x0 KECCAK256 PUSH1 0x0 PUSH2 0x740 PUSH2 0x10FC JUMP JUMPDEST PUSH20 0xFFFFFFFFFFFFFFFFFFFFFFFFFFFFFFFFFFFFFFFF AND PUSH20 0xFFFFFFFFFFFFFFFFFFFFFFFFFFFFFFFFFFFFFFFF AND DUP2 MSTORE PUSH1 0x20 ADD SWAP1 DUP2 MSTORE PUSH1 0x20 ADD PUSH1 0x0 KECCAK256 SLOAD SWAP1 POP DUP3 DUP2 LT ISZERO PUSH2 0x7C0 JUMPI PUSH1 0x40 MLOAD PUSH32 0x8C379A000000000000000000000000000000000000000000000000000000000 DUP2 MSTORE PUSH1 0x4 ADD PUSH2 0x7B7 SWAP1 PUSH2 0x20B9 JUMP JUMPDEST PUSH1 0x40 MLOAD DUP1 SWAP2 SUB SWAP1 REVERT JUMPDEST PUSH2 0x7D4 DUP6 PUSH2 0x7CC PUSH2 0x10FC JUMP JUMPDEST DUP6 DUP5 SUB PUSH2 0x1104 JUMP JUMPDEST PUSH1 0x1 SWAP2 POP POP SWAP4 SWAP3 POP POP POP JUMP JUMPDEST PUSH1 0x0 PUSH1 0x12 SWAP1 POP SWAP1 JUMP JUMPDEST PUSH1 0x0 PUSH2 0x88B PUSH2 0x7F6 PUSH2 0x10FC JUMP JUMPDEST DUP5 DUP5 PUSH1 0x2 PUSH1 0x0 PUSH2 0x804 PUSH2 0x10FC JUMP JUMPDEST PUSH20 0xFFFFFFFFFFFFFFFFFFFFFFFFFFFFFFFFFFFFFFFF AND PUSH20 0xFFFFFFFFFFFFFFFFFFFFFFFFFFFFFFFFFFFFFFFF AND DUP2 MSTORE PUSH1 0x20 ADD SWAP1 DUP2 MSTORE PUSH1 0x20 ADD PUSH1 0x0 KECCAK256 PUSH1 0x0 DUP9 PUSH20 0xFFFFFFFFFFFFFFFFFFFFFFFFFFFFFFFFFFFFFFFF AND PUSH20 0xFFFFFFFFFFFFFFFFFFFFFFFFFFFFFFFFFFFFFFFF AND DUP2 MSTORE PUSH1 0x20 ADD SWAP1 DUP2 MSTORE PUSH1 0x20 ADD PUSH1 0x0 KECCAK256 SLOAD PUSH2 0x886 SWAP2 SWAP1 PUSH2 0x2108 JUMP JUMPDEST PUSH2 0x1104 JUMP JUMPDEST PUSH1 0x1 SWAP1 POP SWAP3 SWAP2 POP POP JUMP JUMPDEST PUSH2 0x8A6 PUSH2 0x8A0 PUSH2 0x10FC JUMP JUMPDEST DUP3 PUSH2 0x1747 JUMP JUMPDEST POP JUMP JUMPDEST PUSH32 0x0 DUP2 JUMP JUMPDEST PUSH1 0x7 PUSH1 0x15 SWAP1 SLOAD SWAP1 PUSH2 0x100 EXP SWAP1 DIV PUSH1 0xFF AND DUP2 JUMP JUMPDEST PUSH2 0x8E8 PUSH2 0x10FC JUMP JUMPDEST PUSH20 0xFFFFFFFFFFFFFFFFFFFFFFFFFFFFFFFFFFFFFFFF AND PUSH2 0x906 PUSH2 0xBF8 JUMP JUMPDEST PUSH20 0xFFFFFFFFFFFFFFFFFFFFFFFFFFFFFFFFFFFFFFFF AND EQ PUSH2 0x95C JUMPI PUSH1 0x40 MLOAD PUSH32 0x8C379A000000000000000000000000000000000000000000000000000000000 DUP2 MSTORE PUSH1 0x4 ADD PUSH2 0x953 SWAP1 PUSH2 0x2188 JUMP JUMPDEST PUSH1 0x40 MLOAD DUP1 SWAP2 SUB SWAP1 REVERT JUMPDEST PUSH1 0x8 PUSH1 0x0 DUP3 PUSH20 0xFFFFFFFFFFFFFFFFFFFFFFFFFFFFFFFFFFFFFFFF AND PUSH20 0xFFFFFFFFFFFFFFFFFFFFFFFFFFFFFFFFFFFFFFFF AND DUP2 MSTORE PUSH1 0x20 ADD SWAP1 DUP2 MSTORE PUSH1 0x20 ADD PUSH1 0x0 KECCAK256 PUSH1 0x0 SWAP1 SLOAD SWAP1 PUSH2 0x100 EXP SWAP1 DIV PUSH1 0xFF AND ISZERO PUSH2 0xA0B JUMPI PUSH1 0x0 PUSH1 0x8 PUSH1 0x0 DUP4 PUSH20 0xFFFFFFFFFFFFFFFFFFFFFFFFFFFFFFFFFFFFFFFF AND PUSH20 0xFFFFFFFFFFFFFFFFFFFFFFFFFFFFFFFFFFFFFFFF AND DUP2 MSTORE PUSH1 0x20 ADD SWAP1 DUP2 MSTORE PUSH1 0x20 ADD PUSH1 0x0 KECCAK256 PUSH1 0x0 PUSH2 0x100 EXP DUP2 SLOAD DUP2 PUSH1 0xFF MUL NOT AND SWAP1 DUP4 ISZERO ISZERO MUL OR SWAP1 SSTORE POP PUSH2 0xA64 JUMP JUMPDEST PUSH1 0x1 PUSH1 0x8 PUSH1 0x0 DUP4 PUSH20 0xFFFFFFFFFFFFFFFFFFFFFFFFFFFFFFFFFFFFFFFF AND PUSH20 0xFFFFFFFFFFFFFFFFFFFFFFFFFFFFFFFFFFFFFFFF AND DUP2 MSTORE PUSH1 0x20 ADD SWAP1 DUP2 MSTORE PUSH1 0x20 ADD PUSH1 0x0 KECCAK256 PUSH1 0x0 PUSH2 0x100 EXP DUP2 SLOAD DUP2 PUSH1 0xFF MUL NOT AND SWAP1 DUP4 ISZERO ISZERO MUL OR SWAP1 SSTORE POP JUMPDEST POP JUMP JUMPDEST PUSH2 0xA6F PUSH2 0x10FC JUMP JUMPDEST PUSH20 0xFFFFFFFFFFFFFFFFFFFFFFFFFFFFFFFFFFFFFFFF AND PUSH2 0xA8D PUSH2 0xBF8 JUMP JUMPDEST PUSH20 0xFFFFFFFFFFFFFFFFFFFFFFFFFFFFFFFFFFFFFFFF AND EQ PUSH2 0xAE3 JUMPI PUSH1 0x40 MLOAD PUSH32 0x8C379A000000000000000000000000000000000000000000000000000000000 DUP2 MSTORE PUSH1 0x4 ADD PUSH2 0xADA SWAP1 PUSH2 0x2188 JUMP JUMPDEST PUSH1 0x40 MLOAD DUP1 SWAP2 SUB SWAP1 REVERT JUMPDEST DUP1 PUSH1 0x6 PUSH1 0x0 PUSH2 0x100 EXP DUP2 SLOAD DUP2 PUSH20 0xFFFFFFFFFFFFFFFFFFFFFFFFFFFFFFFFFFFFFFFF MUL NOT AND SWAP1 DUP4 PUSH20 0xFFFFFFFFFFFFFFFFFFFFFFFFFFFFFFFFFFFFFFFF AND MUL OR SWAP1 SSTORE POP POP JUMP JUMPDEST PUSH1 0x0 PUSH1 0x1 PUSH1 0x0 DUP4 PUSH20 0xFFFFFFFFFFFFFFFFFFFFFFFFFFFFFFFFFFFFFFFF AND PUSH20 0xFFFFFFFFFFFFFFFFFFFFFFFFFFFFFFFFFFFFFFFF AND DUP2 MSTORE PUSH1 0x20 ADD SWAP1 DUP2 MSTORE PUSH1 0x20 ADD PUSH1 0x0 KECCAK256 SLOAD SWAP1 POP SWAP2 SWAP1 POP JUMP JUMPDEST PUSH2 0xB78 PUSH2 0x10FC JUMP JUMPDEST PUSH20 0xFFFFFFFFFFFFFFFFFFFFFFFFFFFFFFFFFFFFFFFF AND PUSH2 0xB96 PUSH2 0xBF8 JUMP JUMPDEST PUSH20 0xFFFFFFFFFFFFFFFFFFFFFFFFFFFFFFFFFFFFFFFF AND EQ PUSH2 0xBEC JUMPI PUSH1 0x40 MLOAD PUSH32 0x8C379A000000000000000000000000000000000000000000000000000000000 DUP2 MSTORE PUSH1 0x4 ADD PUSH2 0xBE3 SWAP1 PUSH2 0x2188 JUMP JUMPDEST PUSH1 0x40 MLOAD DUP1 SWAP2 SUB SWAP1 REVERT JUMPDEST PUSH2 0xBF6 PUSH1 0x0 PUSH2 0x1907 JUMP JUMPDEST JUMP JUMPDEST PUSH1 0x0 DUP1 PUSH1 0x0 SWAP1 SLOAD SWAP1 PUSH2 0x100 EXP SWAP1 DIV PUSH20 0xFFFFFFFFFFFFFFFFFFFFFFFFFFFFFFFFFFFFFFFF AND SWAP1 POP SWAP1 JUMP JUMPDEST PUSH1 0x6 PUSH1 0x0 SWAP1 SLOAD SWAP1 PUSH2 0x100 EXP SWAP1 DIV PUSH20 0xFFFFFFFFFFFFFFFFFFFFFFFFFFFFFFFFFFFFFFFF AND DUP2 JUMP JUMPDEST PUSH1 0x60 PUSH1 0x40 MLOAD DUP1 PUSH1 0x40 ADD PUSH1 0x40 MSTORE DUP1 PUSH1 0x4 DUP2 MSTORE PUSH1 0x20 ADD PUSH32 0x4241425900000000000000000000000000000000000000000000000000000000 DUP2 MSTORE POP SWAP1 POP SWAP1 JUMP JUMPDEST PUSH1 0x7 PUSH1 0x0 SWAP1 SLOAD SWAP1 PUSH2 0x100 EXP SWAP1 DIV PUSH20 0xFFFFFFFFFFFFFFFFFFFFFFFFFFFFFFFFFFFFFFFF AND DUP2 JUMP JUMPDEST PUSH1 0x0 DUP1 PUSH1 0x2 PUSH1 0x0 PUSH2 0xCB9 PUSH2 0x10FC JUMP JUMPDEST PUSH20 0xFFFFFFFFFFFFFFFFFFFFFFFFFFFFFFFFFFFFFFFF AND PUSH20 0xFFFFFFFFFFFFFFFFFFFFFFFFFFFFFFFFFFFFFFFF AND DUP2 MSTORE PUSH1 0x20 ADD SWAP1 DUP2 MSTORE PUSH1 0x20 ADD PUSH1 0x0 KECCAK256 PUSH1 0x0 DUP6 PUSH20 0xFFFFFFFFFFFFFFFFFFFFFFFFFFFFFFFFFFFFFFFF AND PUSH20 0xFFFFFFFFFFFFFFFFFFFFFFFFFFFFFFFFFFFFFFFF AND DUP2 MSTORE PUSH1 0x20 ADD SWAP1 DUP2 MSTORE PUSH1 0x20 ADD PUSH1 0x0 KECCAK256 SLOAD SWAP1 POP DUP3 DUP2 LT ISZERO PUSH2 0xD76 JUMPI PUSH1 0x40 MLOAD PUSH32 0x8C379A000000000000000000000000000000000000000000000000000000000 DUP2 MSTORE PUSH1 0x4 ADD PUSH2 0xD6D SWAP1 PUSH2 0x221A JUMP JUMPDEST PUSH1 0x40 MLOAD DUP1 SWAP2 SUB SWAP1 REVERT JUMPDEST PUSH2 0xD8A PUSH2 0xD81 PUSH2 0x10FC JUMP JUMPDEST DUP6 DUP6 DUP5 SUB PUSH2 0x1104 JUMP JUMPDEST PUSH1 0x1 SWAP2 POP POP SWAP3 SWAP2 POP POP JUMP JUMPDEST PUSH1 0x0 PUSH2 0xDA9 PUSH2 0xDA2 PUSH2 0x10FC JUMP JUMPDEST DUP5 DUP5 PUSH2 0x11EF JUMP JUMPDEST PUSH1 0x1 SWAP1 POP SWAP3 SWAP2 POP POP JUMP JUMPDEST PUSH2 0xDBB PUSH2 0x10FC JUMP JUMPDEST PUSH20 0xFFFFFFFFFFFFFFFFFFFFFFFFFFFFFFFFFFFFFFFF AND PUSH2 0xDD9 PUSH2 0xBF8 JUMP JUMPDEST PUSH20 0xFFFFFFFFFFFFFFFFFFFFFFFFFFFFFFFFFFFFFFFF AND EQ PUSH2 0xE2F JUMPI PUSH1 0x40 MLOAD PUSH32 0x8C379A000000000000000000000000000000000000000000000000000000000 DUP2 MSTORE PUSH1 0x4 ADD PUSH2 0xE26 SWAP1 PUSH2 0x2188 JUMP JUMPDEST PUSH1 0x40 MLOAD DUP1 SWAP2 SUB SWAP1 REVERT JUMPDEST DUP1 PUSH1 0x7 PUSH1 0x15 PUSH2 0x100 EXP DUP2 SLOAD DUP2 PUSH1 0xFF MUL NOT AND SWAP1 DUP4 ISZERO ISZERO MUL OR SWAP1 SSTORE POP PUSH32 0x53726DFCAF90650AA7EB35524F4D3220F07413C8D6CB404CC8C18BF5591BC159 DUP2 PUSH1 0x40 MLOAD PUSH2 0xE78 SWAP2 SWAP1 PUSH2 0x1DE1 JUMP JUMPDEST PUSH1 0x40 MLOAD DUP1 SWAP2 SUB SWAP1 LOG1 POP JUMP JUMPDEST PUSH2 0xE8B PUSH2 0x10FC JUMP JUMPDEST PUSH20 0xFFFFFFFFFFFFFFFFFFFFFFFFFFFFFFFFFFFFFFFF AND PUSH2 0xEA9 PUSH2 0xBF8 JUMP JUMPDEST PUSH20 0xFFFFFFFFFFFFFFFFFFFFFFFFFFFFFFFFFFFFFFFF AND EQ PUSH2 0xEFF JUMPI PUSH1 0x40 MLOAD PUSH32 0x8C379A000000000000000000000000000000000000000000000000000000000 DUP2 MSTORE PUSH1 0x4 ADD PUSH2 0xEF6 SWAP1 PUSH2 0x2188 JUMP JUMPDEST PUSH1 0x40 MLOAD DUP1 SWAP2 SUB SWAP1 REVERT JUMPDEST PUSH2 0xF07 PUSH2 0xBF8 JUMP JUMPDEST PUSH20 0xFFFFFFFFFFFFFFFFFFFFFFFFFFFFFFFFFFFFFFFF AND PUSH2 0x8FC SELFBALANCE SWAP1 DUP2 ISZERO MUL SWAP1 PUSH1 0x40 MLOAD PUSH1 0x0 PUSH1 0x40 MLOAD DUP1 DUP4 SUB DUP2 DUP6 DUP9 DUP9 CALL SWAP4 POP POP POP POP POP JUMP JUMPDEST PUSH1 0x0 PUSH1 0x2 PUSH1 0x0 DUP5 PUSH20 0xFFFFFFFFFFFFFFFFFFFFFFFFFFFFFFFFFFFFFFFF AND PUSH20 0xFFFFFFFFFFFFFFFFFFFFFFFFFFFFFFFFFFFFFFFF AND DUP2 MSTORE PUSH1 0x20 ADD SWAP1 DUP2 MSTORE PUSH1 0x20 ADD PUSH1 0x0 KECCAK256 PUSH1 0x0 DUP4 PUSH20 0xFFFFFFFFFFFFFFFFFFFFFFFFFFFFFFFFFFFFFFFF AND PUSH20 0xFFFFFFFFFFFFFFFFFFFFFFFFFFFFFFFFFFFFFFFF AND DUP2 MSTORE PUSH1 0x20 ADD SWAP1 DUP2 MSTORE PUSH1 0x20 ADD PUSH1 0x0 KECCAK256 SLOAD SWAP1 POP SWAP3 SWAP2 POP POP JUMP JUMPDEST PUSH1 0x8 PUSH1 0x20 MSTORE DUP1 PUSH1 0x0 MSTORE PUSH1 0x40 PUSH1 0x0 KECCAK256 PUSH1 0x0 SWAP2 POP SLOAD SWAP1 PUSH2 0x100 EXP SWAP1 DIV PUSH1 0xFF AND DUP2 JUMP JUMPDEST PUSH1 0x9 PUSH1 0x20 MSTORE DUP1 PUSH1 0x0 MSTORE PUSH1 0x40 PUSH1 0x0 KECCAK256 PUSH1 0x0 SWAP2 POP SLOAD SWAP1 PUSH2 0x100 EXP SWAP1 DIV PUSH1 0xFF AND DUP2 JUMP JUMPDEST PUSH2 0x100D PUSH2 0x10FC JUMP JUMPDEST PUSH20 0xFFFFFFFFFFFFFFFFFFFFFFFFFFFFFFFFFFFFFFFF AND PUSH2 0x102B PUSH2 0xBF8 JUMP JUMPDEST PUSH20 0xFFFFFFFFFFFFFFFFFFFFFFFFFFFFFFFFFFFFFFFF AND EQ PUSH2 0x1081 JUMPI PUSH1 0x40 MLOAD PUSH32 0x8C379A000000000000000000000000000000000000000000000000000000000 DUP2 MSTORE PUSH1 0x4 ADD PUSH2 0x1078 SWAP1 PUSH2 0x2188 JUMP JUMPDEST PUSH1 0x40 MLOAD DUP1 SWAP2 SUB SWAP1 REVERT JUMPDEST PUSH1 0x0 PUSH20 0xFFFFFFFFFFFFFFFFFFFFFFFFFFFFFFFFFFFFFFFF AND DUP2 PUSH20 0xFFFFFFFFFFFFFFFFFFFFFFFFFFFFFFFFFFFFFFFF AND SUB PUSH2 0x10F0 JUMPI PUSH1 0x40 MLOAD PUSH32 0x8C379A000000000000000000000000000000000000000000000000000000000 DUP2 MSTORE PUSH1 0x4 ADD PUSH2 0x10E7 SWAP1 PUSH2 0x22AC JUMP JUMPDEST PUSH1 0x40 MLOAD DUP1 SWAP2 SUB SWAP1 REVERT JUMPDEST PUSH2 0x10F9 DUP2 PUSH2 0x1907 JUMP JUMPDEST POP JUMP JUMPDEST PUSH1 0x0 CALLER SWAP1 POP SWAP1 JUMP JUMPDEST DUP1 PUSH1 0x2 PUSH1 0x0 DUP6 PUSH20 0xFFFFFFFFFFFFFFFFFFFFFFFFFFFFFFFFFFFFFFFF AND PUSH20 0xFFFFFFFFFFFFFFFFFFFFFFFFFFFFFFFFFFFFFFFF AND DUP2 MSTORE PUSH1 0x20 ADD SWAP1 DUP2 MSTORE PUSH1 0x20 ADD PUSH1 0x0 KECCAK256 PUSH1 0x0 DUP5 PUSH20 0xFFFFFFFFFFFFFFFFFFFFFFFFFFFFFFFFFFFFFFFF AND PUSH20 0xFFFFFFFFFFFFFFFFFFFFFFFFFFFFFFFFFFFFFFFF AND DUP2 MSTORE PUSH1 0x20 ADD SWAP1 DUP2 MSTORE PUSH1 0x20 ADD PUSH1 0x0 KECCAK256 DUP2 SWAP1 SSTORE POP DUP2 PUSH20 0xFFFFFFFFFFFFFFFFFFFFFFFFFFFFFFFFFFFFFFFF AND DUP4 PUSH20 0xFFFFFFFFFFFFFFFFFFFFFFFFFFFFFFFFFFFFFFFF AND PUSH32 0x8C5BE1E5EBEC7D5BD14F71427D1E84F3DD0314C0F7B2291E5B200AC8C7C3B925 DUP4 PUSH1 0x40 MLOAD PUSH2 0x11E2 SWAP2 SWAP1 PUSH2 0x1E85 JUMP JUMPDEST PUSH1 0x40 MLOAD DUP1 SWAP2 SUB SWAP1 LOG3 POP POP POP JUMP JUMPDEST PUSH1 0x0 PUSH20 0xFFFFFFFFFFFFFFFFFFFFFFFFFFFFFFFFFFFFFFFF AND DUP4 PUSH20 0xFFFFFFFFFFFFFFFFFFFFFFFFFFFFFFFFFFFFFFFF AND SUB PUSH2 0x125E JUMPI PUSH1 0x40 MLOAD PUSH32 0x8C379A000000000000000000000000000000000000000000000000000000000 DUP2 MSTORE PUSH1 0x4 ADD PUSH2 0x1255 SWAP1 PUSH2 0x233E JUMP JUMPDEST PUSH1 0x40 MLOAD DUP1 SWAP2 SUB SWAP1 REVERT JUMPDEST PUSH1 0x0 PUSH20 0xFFFFFFFFFFFFFFFFFFFFFFFFFFFFFFFFFFFFFFFF AND DUP3 PUSH20 0xFFFFFFFFFFFFFFFFFFFFFFFFFFFFFFFFFFFFFFFF AND SUB PUSH2 0x12CD JUMPI PUSH1 0x40 MLOAD PUSH32 0x8C379A000000000000000000000000000000000000000000000000000000000 DUP2 MSTORE PUSH1 0x4 ADD PUSH2 0x12C4 SWAP1 PUSH2 0x23D0 JUMP JUMPDEST PUSH1 0x40 MLOAD DUP1 SWAP2 SUB SWAP1 REVERT JUMPDEST PUSH1 0x0 PUSH1 0x1 PUSH1 0x0 DUP6 PUSH20 0xFFFFFFFFFFFFFFFFFFFFFFFFFFFFFFFFFFFFFFFF AND PUSH20 0xFFFFFFFFFFFFFFFFFFFFFFFFFFFFFFFFFFFFFFFF AND DUP2 MSTORE PUSH1 0x20 ADD SWAP1 DUP2 MSTORE PUSH1 0x20 ADD PUSH1 0x0 KECCAK256 SLOAD SWAP1 POP DUP2 DUP2 LT ISZERO PUSH2 0x1354 JUMPI PUSH1 0x40 MLOAD PUSH32 0x8C379A000000000000000000000000000000000000000000000000000000000 DUP2 MSTORE PUSH1 0x4 ADD PUSH2 0x134B SWAP1 PUSH2 0x2462 JUMP JUMPDEST PUSH1 0x40 MLOAD DUP1 SWAP2 SUB SWAP1 REVERT JUMPDEST PUSH1 0x0 DUP3 SWAP1 POP PUSH1 0x8 PUSH1 0x0 DUP7 PUSH20 0xFFFFFFFFFFFFFFFFFFFFFFFFFFFFFFFFFFFFFFFF AND PUSH20 0xFFFFFFFFFFFFFFFFFFFFFFFFFFFFFFFFFFFFFFFF AND DUP2 MSTORE PUSH1 0x20 ADD SWAP1 DUP2 MSTORE PUSH1 0x20 ADD PUSH1 0x0 KECCAK256 PUSH1 0x0 SWAP1 SLOAD SWAP1 PUSH2 0x100 EXP SWAP1 DIV PUSH1 0xFF AND DUP1 ISZERO PUSH2 0x13FE JUMPI POP PUSH32 0x0 PUSH20 0xFFFFFFFFFFFFFFFFFFFFFFFFFFFFFFFFFFFFFFFF AND DUP5 PUSH20 0xFFFFFFFFFFFFFFFFFFFFFFFFFFFFFFFFFFFFFFFF AND EQ ISZERO JUMPDEST DUP1 PUSH2 0x1452 JUMPI POP PUSH1 0x8 PUSH1 0x0 DUP6 PUSH20 0xFFFFFFFFFFFFFFFFFFFFFFFFFFFFFFFFFFFFFFFF AND PUSH20 0xFFFFFFFFFFFFFFFFFFFFFFFFFFFFFFFFFFFFFFFF AND DUP2 MSTORE PUSH1 0x20 ADD SWAP1 DUP2 MSTORE PUSH1 0x20 ADD PUSH1 0x0 KECCAK256 PUSH1 0x0 SWAP1 SLOAD SWAP1 PUSH2 0x100 EXP SWAP1 DIV PUSH1 0xFF AND JUMPDEST DUP1 ISZERO PUSH2 0x146B JUMPI POP PUSH1 0x7 PUSH1 0x14 SWAP1 SLOAD SWAP1 PUSH2 0x100 EXP SWAP1 DIV PUSH1 0xFF AND ISZERO JUMPDEST DUP1 ISZERO PUSH2 0x1483 JUMPI POP PUSH1 0x7 PUSH1 0x15 SWAP1 SLOAD SWAP1 PUSH2 0x100 EXP SWAP1 DIV PUSH1 0xFF AND JUMPDEST ISZERO PUSH2 0x163F JUMPI PUSH2 0x3E8 PUSH1 0xF DUP5 PUSH2 0x1498 SWAP2 SWAP1 PUSH2 0x2482 JUMP JUMPDEST PUSH2 0x14A2 SWAP2 SWAP1 PUSH2 0x24F3 JUMP JUMPDEST PUSH1 0x1 PUSH1 0x0 ADDRESS PUSH20 0xFFFFFFFFFFFFFFFFFFFFFFFFFFFFFFFFFFFFFFFF AND PUSH20 0xFFFFFFFFFFFFFFFFFFFFFFFFFFFFFFFFFFFFFFFF AND DUP2 MSTORE PUSH1 0x20 ADD SWAP1 DUP2 MSTORE PUSH1 0x20 ADD PUSH1 0x0 KECCAK256 PUSH1 0x0 DUP3 DUP3 SLOAD PUSH2 0x14F0 SWAP2 SWAP1 PUSH2 0x2108 JUMP JUMPDEST SWAP3 POP POP DUP2 SWAP1 SSTORE POP ADDRESS PUSH20 0xFFFFFFFFFFFFFFFFFFFFFFFFFFFFFFFFFFFFFFFF AND DUP6 PUSH20 0xFFFFFFFFFFFFFFFFFFFFFFFFFFFFFFFFFFFFFFFF AND PUSH32 0xDDF252AD1BE2C89B69C2B068FC378DAA952BA7F163C4A11628F55A4DF523B3EF PUSH2 0x3E8 PUSH1 0xF DUP8 PUSH2 0x1556 SWAP2 SWAP1 PUSH2 0x2482 JUMP JUMPDEST PUSH2 0x1560 SWAP2 SWAP1 PUSH2 0x24F3 JUMP JUMPDEST PUSH1 0x40 MLOAD PUSH2 0x156D SWAP2 SWAP1 PUSH2 0x1E85 JUMP JUMPDEST PUSH1 0x40 MLOAD DUP1 SWAP2 SUB SWAP1 LOG3 PUSH1 0x0 PUSH2 0x1580 ADDRESS PUSH2 0xB27 JUMP JUMPDEST SWAP1 POP PUSH1 0x3 SLOAD DUP2 LT PUSH2 0x1591 JUMPI PUSH1 0x3 SLOAD SWAP1 POP JUMPDEST PUSH1 0x0 PUSH8 0xDE0B6B3A7640000 DUP3 LT ISZERO SWAP1 POP DUP1 DUP1 ISZERO PUSH2 0x15F8 JUMPI POP PUSH1 0x8 PUSH1 0x0 DUP9 PUSH20 0xFFFFFFFFFFFFFFFFFFFFFFFFFFFFFFFFFFFFFFFF AND PUSH20 0xFFFFFFFFFFFFFFFFFFFFFFFFFFFFFFFFFFFFFFFF AND DUP2 MSTORE PUSH1 0x20 ADD SWAP1 DUP2 MSTORE PUSH1 0x20 ADD PUSH1 0x0 KECCAK256 PUSH1 0x0 SWAP1 SLOAD SWAP1 PUSH2 0x100 EXP SWAP1 DIV PUSH1 0xFF AND ISZERO JUMPDEST DUP1 ISZERO PUSH2 0x1610 JUMPI POP PUSH1 0x7 PUSH1 0x15 SWAP1 SLOAD SWAP1 PUSH2 0x100 EXP SWAP1 DIV PUSH1 0xFF AND JUMPDEST ISZERO PUSH2 0x161F JUMPI PUSH2 0x161E DUP3 PUSH2 0x19CB JUMP JUMPDEST JUMPDEST PUSH2 0x3E8 PUSH2 0x3D9 DUP7 PUSH2 0x1630 SWAP2 SWAP1 PUSH2 0x2482 JUMP JUMPDEST PUSH2 0x163A SWAP2 SWAP1 PUSH2 0x24F3 JUMP JUMPDEST SWAP3 POP POP POP JUMPDEST DUP3 DUP3 SUB PUSH1 0x1 PUSH1 0x0 DUP8 PUSH20 0xFFFFFFFFFFFFFFFFFFFFFFFFFFFFFFFFFFFFFFFF AND PUSH20 0xFFFFFFFFFFFFFFFFFFFFFFFFFFFFFFFFFFFFFFFF AND DUP2 MSTORE PUSH1 0x20 ADD SWAP1 DUP2 MSTORE PUSH1 0x20 ADD PUSH1 0x0 KECCAK256 DUP2 SWAP1 SSTORE POP DUP1 PUSH1 0x1 PUSH1 0x0 DUP7 PUSH20 0xFFFFFFFFFFFFFFFFFFFFFFFFFFFFFFFFFFFFFFFF AND PUSH20 0xFFFFFFFFFFFFFFFFFFFFFFFFFFFFFFFFFFFFFFFF AND DUP2 MSTORE PUSH1 0x20 ADD SWAP1 DUP2 MSTORE PUSH1 0x20 ADD PUSH1 0x0 KECCAK256 PUSH1 0x0 DUP3 DUP3 SLOAD PUSH2 0x16D4 SWAP2 SWAP1 PUSH2 0x2108 JUMP JUMPDEST SWAP3 POP POP DUP2 SWAP1 SSTORE POP DUP4 PUSH20 0xFFFFFFFFFFFFFFFFFFFFFFFFFFFFFFFFFFFFFFFF AND DUP6 PUSH20 0xFFFFFFFFFFFFFFFFFFFFFFFFFFFFFFFFFFFFFFFF AND PUSH32 0xDDF252AD1BE2C89B69C2B068FC378DAA952BA7F163C4A11628F55A4DF523B3EF DUP4 PUSH1 0x40 MLOAD PUSH2 0x1738 SWAP2 SWAP1 PUSH2 0x1E85 JUMP JUMPDEST PUSH1 0x40 MLOAD DUP1 SWAP2 SUB SWAP1 LOG3 POP POP POP POP POP JUMP JUMPDEST PUSH1 0x0 PUSH20 0xFFFFFFFFFFFFFFFFFFFFFFFFFFFFFFFFFFFFFFFF AND DUP3 PUSH20 0xFFFFFFFFFFFFFFFFFFFFFFFFFFFFFFFFFFFFFFFF AND SUB PUSH2 0x17B6 JUMPI PUSH1 0x40 MLOAD PUSH32 0x8C379A000000000000000000000000000000000000000000000000000000000 DUP2 MSTORE PUSH1 0x4 ADD PUSH2 0x17AD SWAP1 PUSH2 0x2570 JUMP JUMPDEST PUSH1 0x40 MLOAD DUP1 SWAP2 SUB SWAP1 REVERT JUMPDEST PUSH1 0x0 PUSH1 0x1 PUSH1 0x0 DUP5 PUSH20 0xFFFFFFFFFFFFFFFFFFFFFFFFFFFFFFFFFFFFFFFF AND PUSH20 0xFFFFFFFFFFFFFFFFFFFFFFFFFFFFFFFFFFFFFFFF AND DUP2 MSTORE PUSH1 0x20 ADD SWAP1 DUP2 MSTORE PUSH1 0x20 ADD PUSH1 0x0 KECCAK256 SLOAD SWAP1 POP DUP2 DUP2 LT ISZERO PUSH2 0x183D JUMPI PUSH1 0x40 MLOAD PUSH32 0x8C379A000000000000000000000000000000000000000000000000000000000 DUP2 MSTORE PUSH1 0x4 ADD PUSH2 0x1834 SWAP1 PUSH2 0x25DC JUMP JUMPDEST PUSH1 0x40 MLOAD DUP1 SWAP2 SUB SWAP1 REVERT JUMPDEST DUP2 DUP2 SUB PUSH1 0x1 PUSH1 0x0 DUP6 PUSH20 0xFFFFFFFFFFFFFFFFFFFFFFFFFFFFFFFFFFFFFFFF AND PUSH20 0xFFFFFFFFFFFFFFFFFFFFFFFFFFFFFFFFFFFFFFFF AND DUP2 MSTORE PUSH1 0x20 ADD SWAP1 DUP2 MSTORE PUSH1 0x20 ADD PUSH1 0x0 KECCAK256 DUP2 SWAP1 SSTORE POP DUP2 PUSH1 0x3 PUSH1 0x0 DUP3 DUP3 SLOAD PUSH2 0x1895 SWAP2 SWAP1 PUSH2 0x25FC JUMP JUMPDEST SWAP3 POP POP DUP2 SWAP1 SSTORE POP PUSH1 0x0 PUSH20 0xFFFFFFFFFFFFFFFFFFFFFFFFFFFFFFFFFFFFFFFF AND DUP4 PUSH20 0xFFFFFFFFFFFFFFFFFFFFFFFFFFFFFFFFFFFFFFFF AND PUSH32 0xDDF252AD1BE2C89B69C2B068FC378DAA952BA7F163C4A11628F55A4DF523B3EF DUP5 PUSH1 0x40 MLOAD PUSH2 0x18FA SWAP2 SWAP1 PUSH2 0x1E85 JUMP JUMPDEST PUSH1 0x40 MLOAD DUP1 SWAP2 SUB SWAP1 LOG3 POP POP POP JUMP JUMPDEST PUSH1 0x0 DUP1 PUSH1 0x0 SWAP1 SLOAD SWAP1 PUSH2 0x100 EXP SWAP1 DIV PUSH20 0xFFFFFFFFFFFFFFFFFFFFFFFFFFFFFFFFFFFFFFFF AND SWAP1 POP DUP2 PUSH1 0x0 DUP1 PUSH2 0x100 EXP DUP2 SLOAD DUP2 PUSH20 0xFFFFFFFFFFFFFFFFFFFFFFFFFFFFFFFFFFFFFFFF MUL NOT AND SWAP1 DUP4 PUSH20 0xFFFFFFFFFFFFFFFFFFFFFFFFFFFFFFFFFFFFFFFF AND MUL OR SWAP1 SSTORE POP DUP2 PUSH20 0xFFFFFFFFFFFFFFFFFFFFFFFFFFFFFFFFFFFFFFFF AND DUP2 PUSH20 0xFFFFFFFFFFFFFFFFFFFFFFFFFFFFFFFFFFFFFFFF AND PUSH32 0x8BE0079C531659141344CD1FD0A4F28419497F9722A3DAAFE3B4186F6B6457E0 PUSH1 0x40 MLOAD PUSH1 0x40 MLOAD DUP1 SWAP2 SUB SWAP1 LOG3 POP POP JUMP JUMPDEST PUSH1 0x1 PUSH1 0x7 PUSH1 0x14 PUSH2 0x100 EXP DUP2 SLOAD DUP2 PUSH1 0xFF MUL NOT AND SWAP1 DUP4 ISZERO ISZERO MUL OR SWAP1 SSTORE POP PUSH1 0x0 PUSH1 0x2 PUSH8 0xFFFFFFFFFFFFFFFF DUP2 GT ISZERO PUSH2 0x1A03 JUMPI PUSH2 0x1A02 PUSH2 0x2630 JUMP JUMPDEST JUMPDEST PUSH1 0x40 MLOAD SWAP1 DUP1 DUP3 MSTORE DUP1 PUSH1 0x20 MUL PUSH1 0x20 ADD DUP3 ADD PUSH1 0x40 MSTORE DUP1 ISZERO PUSH2 0x1A31 JUMPI DUP2 PUSH1 0x20 ADD PUSH1 0x20 DUP3 MUL DUP1 CALLDATASIZE DUP4 CALLDATACOPY DUP1 DUP3 ADD SWAP2 POP POP SWAP1 POP JUMPDEST POP SWAP1 POP ADDRESS DUP2 PUSH1 0x0 DUP2 MLOAD DUP2 LT PUSH2 0x1A49 JUMPI PUSH2 0x1A48 PUSH2 0x265F JUMP JUMPDEST JUMPDEST PUSH1 0x20 MUL PUSH1 0x20 ADD ADD SWAP1 PUSH20 0xFFFFFFFFFFFFFFFFFFFFFFFFFFFFFFFFFFFFFFFF AND SWAP1 DUP2 PUSH20 0xFFFFFFFFFFFFFFFFFFFFFFFFFFFFFFFFFFFFFFFF AND DUP2 MSTORE POP POP PUSH1 0x7 PUSH1 0x0 SWAP1 SLOAD SWAP1 PUSH2 0x100 EXP SWAP1 DIV PUSH20 0xFFFFFFFFFFFFFFFFFFFFFFFFFFFFFFFFFFFFFFFF AND DUP2 PUSH1 0x1 DUP2 MLOAD DUP2 LT PUSH2 0x1ABA JUMPI PUSH2 0x1AB9 PUSH2 0x265F JUMP JUMPDEST JUMPDEST PUSH1 0x20 MUL PUSH1 0x20 ADD ADD SWAP1 PUSH20 0xFFFFFFFFFFFFFFFFFFFFFFFFFFFFFFFFFFFFFFFF AND SWAP1 DUP2 PUSH20 0xFFFFFFFFFFFFFFFFFFFFFFFFFFFFFFFFFFFFFFFF AND DUP2 MSTORE POP POP PUSH2 0x1B1F ADDRESS PUSH32 0x0 DUP5 PUSH2 0x1104 JUMP JUMPDEST PUSH32 0x0 PUSH20 0xFFFFFFFFFFFFFFFFFFFFFFFFFFFFFFFFFFFFFFFF AND PUSH4 0x791AC947 DUP4 PUSH1 0x0 DUP5 ADDRESS TIMESTAMP PUSH1 0x40 MLOAD DUP7 PUSH4 0xFFFFFFFF AND PUSH1 0xE0 SHL DUP2 MSTORE PUSH1 0x4 ADD PUSH2 0x1B81 SWAP6 SWAP5 SWAP4 SWAP3 SWAP2 SWAP1 PUSH2 0x2787 JUMP JUMPDEST PUSH1 0x0 PUSH1 0x40 MLOAD DUP1 DUP4 SUB DUP2 PUSH1 0x0 DUP8 DUP1 EXTCODESIZE ISZERO DUP1 ISZERO PUSH2 0x1B9B JUMPI PUSH1 0x0 DUP1 REVERT JUMPDEST POP GAS CALL ISZERO DUP1 ISZERO PUSH2 0x1BAF JUMPI RETURNDATASIZE PUSH1 0x0 DUP1 RETURNDATACOPY RETURNDATASIZE PUSH1 0x0 REVERT JUMPDEST POP POP POP POP PUSH1 0x6 PUSH1 0x0 SWAP1 SLOAD SWAP1 PUSH2 0x100 EXP SWAP1 DIV PUSH20 0xFFFFFFFFFFFFFFFFFFFFFFFFFFFFFFFFFFFFFFFF AND PUSH20 0xFFFFFFFFFFFFFFFFFFFFFFFFFFFFFFFFFFFFFFFF AND PUSH2 0x8FC SELFBALANCE SWAP1 DUP2 ISZERO MUL SWAP1 PUSH1 0x40 MLOAD PUSH1 0x0 PUSH1 0x40 MLOAD DUP1 DUP4 SUB DUP2 DUP6 DUP9 DUP9 CALL SWAP4 POP POP POP POP ISZERO DUP1 ISZERO PUSH2 0x1C1B JUMPI RETURNDATASIZE PUSH1 0x0 DUP1 RETURNDATACOPY RETURNDATASIZE PUSH1 0x0 REVERT JUMPDEST POP POP PUSH1 0x0 PUSH1 0x7 PUSH1 0x14 PUSH2 0x100 EXP DUP2 SLOAD DUP2 PUSH1 0xFF MUL NOT AND SWAP1 DUP4 ISZERO ISZERO MUL OR SWAP1 SSTORE POP POP JUMP JUMPDEST PUSH1 0x0 DUP2 MLOAD SWAP1 POP SWAP2 SWAP1 POP JUMP JUMPDEST PUSH1 0x0 DUP3 DUP3 MSTORE PUSH1 0x20 DUP3 ADD SWAP1 POP SWAP3 SWAP2 POP POP JUMP JUMPDEST PUSH1 0x0 JUMPDEST DUP4 DUP2 LT ISZERO PUSH2 0x1C75 JUMPI DUP1 DUP3 ADD MLOAD DUP2 DUP5 ADD MSTORE PUSH1 0x20 DUP2 ADD SWAP1 POP PUSH2 0x1C5A JUMP JUMPDEST PUSH1 0x0 DUP5 DUP5 ADD MSTORE POP POP POP POP JUMP JUMPDEST PUSH1 0x0 PUSH1 0x1F NOT PUSH1 0x1F DUP4 ADD AND SWAP1 POP SWAP2 SWAP1 POP JUMP JUMPDEST PUSH1 0x0 PUSH2 0x1C9D DUP3 PUSH2 0x1C3B JUMP JUMPDEST PUSH2 0x1CA7 DUP2 DUP6 PUSH2 0x1C46 JUMP JUMPDEST SWAP4 POP PUSH2 0x1CB7 DUP2 DUP6 PUSH1 0x20 DUP7 ADD PUSH2 0x1C57 JUMP JUMPDEST PUSH2 0x1CC0 DUP2 PUSH2 0x1C81 JUMP JUMPDEST DUP5 ADD SWAP2 POP POP SWAP3 SWAP2 POP POP JUMP JUMPDEST PUSH1 0x0 PUSH1 0x20 DUP3 ADD SWAP1 POP DUP2 DUP2 SUB PUSH1 0x0 DUP4 ADD MSTORE PUSH2 0x1CE5 DUP2 DUP5 PUSH2 0x1C92 JUMP JUMPDEST SWAP1 POP SWAP3 SWAP2 POP POP JUMP JUMPDEST PUSH1 0x0 DUP1 REVERT JUMPDEST PUSH1 0x0 PUSH20 0xFFFFFFFFFFFFFFFFFFFFFFFFFFFFFFFFFFFFFFFF DUP3 AND SWAP1 POP SWAP2 SWAP1 POP JUMP JUMPDEST PUSH1 0x0 PUSH2 0x1D1D DUP3 PUSH2 0x1CF2 JUMP JUMPDEST SWAP1 POP SWAP2 SWAP1 POP JUMP JUMPDEST PUSH2 0x1D2D DUP2 PUSH2 0x1D12 JUMP JUMPDEST DUP2 EQ PUSH2 0x1D38 JUMPI PUSH1 0x0 DUP1 REVERT JUMPDEST POP JUMP JUMPDEST PUSH1 0x0 DUP2 CALLDATALOAD SWAP1 POP PUSH2 0x1D4A DUP2 PUSH2 0x1D24 JUMP JUMPDEST SWAP3 SWAP2 POP POP JUMP JUMPDEST PUSH1 0x0 DUP2 SWAP1 POP SWAP2 SWAP1 POP JUMP JUMPDEST PUSH2 0x1D63 DUP2 PUSH2 0x1D50 JUMP JUMPDEST DUP2 EQ PUSH2 0x1D6E JUMPI PUSH1 0x0 DUP1 REVERT JUMPDEST POP JUMP JUMPDEST PUSH1 0x0 DUP2 CALLDATALOAD SWAP1 POP PUSH2 0x1D80 DUP2 PUSH2 0x1D5A JUMP JUMPDEST SWAP3 SWAP2 POP POP JUMP JUMPDEST PUSH1 0x0 DUP1 PUSH1 0x40 DUP4 DUP6 SUB SLT ISZERO PUSH2 0x1D9D JUMPI PUSH2 0x1D9C PUSH2 0x1CED JUMP JUMPDEST JUMPDEST PUSH1 0x0 PUSH2 0x1DAB DUP6 DUP3 DUP7 ADD PUSH2 0x1D3B JUMP JUMPDEST SWAP3 POP POP PUSH1 0x20 PUSH2 0x1DBC DUP6 DUP3 DUP7 ADD PUSH2 0x1D71 JUMP JUMPDEST SWAP2 POP POP SWAP3 POP SWAP3 SWAP1 POP JUMP JUMPDEST PUSH1 0x0 DUP2 ISZERO ISZERO SWAP1 POP SWAP2 SWAP1 POP JUMP JUMPDEST PUSH2 0x1DDB DUP2 PUSH2 0x1DC6 JUMP JUMPDEST DUP3 MSTORE POP POP JUMP JUMPDEST PUSH1 0x0 PUSH1 0x20 DUP3 ADD SWAP1 POP PUSH2 0x1DF6 PUSH1 0x0 DUP4 ADD DUP5 PUSH2 0x1DD2 JUMP JUMPDEST SWAP3 SWAP2 POP POP JUMP JUMPDEST PUSH1 0x0 DUP2 SWAP1 POP SWAP2 SWAP1 POP JUMP JUMPDEST PUSH1 0x0 PUSH2 0x1E21 PUSH2 0x1E1C PUSH2 0x1E17 DUP5 PUSH2 0x1CF2 JUMP JUMPDEST PUSH2 0x1DFC JUMP JUMPDEST PUSH2 0x1CF2 JUMP JUMPDEST SWAP1 POP SWAP2 SWAP1 POP JUMP JUMPDEST PUSH1 0x0 PUSH2 0x1E33 DUP3 PUSH2 0x1E06 JUMP JUMPDEST SWAP1 POP SWAP2 SWAP1 POP JUMP JUMPDEST PUSH1 0x0 PUSH2 0x1E45 DUP3 PUSH2 0x1E28 JUMP JUMPDEST SWAP1 POP SWAP2 SWAP1 POP JUMP JUMPDEST PUSH2 0x1E55 DUP2 PUSH2 0x1E3A JUMP JUMPDEST DUP3 MSTORE POP POP JUMP JUMPDEST PUSH1 0x0 PUSH1 0x20 DUP3 ADD SWAP1 POP PUSH2 0x1E70 PUSH1 0x0 DUP4 ADD DUP5 PUSH2 0x1E4C JUMP JUMPDEST SWAP3 SWAP2 POP POP JUMP JUMPDEST PUSH2 0x1E7F DUP2 PUSH2 0x1D50 JUMP JUMPDEST DUP3 MSTORE POP POP JUMP JUMPDEST PUSH1 0x0 PUSH1 0x20 DUP3 ADD SWAP1 POP PUSH2 0x1E9A PUSH1 0x0 DUP4 ADD DUP5 PUSH2 0x1E76 JUMP JUMPDEST SWAP3 SWAP2 POP POP JUMP JUMPDEST PUSH1 0x0 DUP1 PUSH1 0x0 PUSH1 0x60 DUP5 DUP7 SUB SLT ISZERO PUSH2 0x1EB9 JUMPI PUSH2 0x1EB8 PUSH2 0x1CED JUMP JUMPDEST JUMPDEST PUSH1 0x0 PUSH2 0x1EC7 DUP7 DUP3 DUP8 ADD PUSH2 0x1D3B JUMP JUMPDEST SWAP4 POP POP PUSH1 0x20 PUSH2 0x1ED8 DUP7 DUP3 DUP8 ADD PUSH2 0x1D3B JUMP JUMPDEST SWAP3 POP POP PUSH1 0x40 PUSH2 0x1EE9 DUP7 DUP3 DUP8 ADD PUSH2 0x1D71 JUMP JUMPDEST SWAP2 POP POP SWAP3 POP SWAP3 POP SWAP3 JUMP JUMPDEST PUSH1 0x0 PUSH1 0xFF DUP3 AND SWAP1 POP SWAP2 SWAP1 POP JUMP JUMPDEST PUSH2 0x1F09 DUP2 PUSH2 0x1EF3 JUMP JUMPDEST DUP3 MSTORE POP POP JUMP JUMPDEST PUSH1 0x0 PUSH1 0x20 DUP3 ADD SWAP1 POP PUSH2 0x1F24 PUSH1 0x0 DUP4 ADD DUP5 PUSH2 0x1F00 JUMP JUMPDEST SWAP3 SWAP2 POP POP JUMP JUMPDEST PUSH1 0x0 PUSH1 0x20 DUP3 DUP5 SUB SLT ISZERO PUSH2 0x1F40 JUMPI PUSH2 0x1F3F PUSH2 0x1CED JUMP JUMPDEST JUMPDEST PUSH1 0x0 PUSH2 0x1F4E DUP5 DUP3 DUP6 ADD PUSH2 0x1D71 JUMP JUMPDEST SWAP2 POP POP SWAP3 SWAP2 POP POP JUMP JUMPDEST PUSH2 0x1F60 DUP2 PUSH2 0x1D12 JUMP JUMPDEST DUP3 MSTORE POP POP JUMP JUMPDEST PUSH1 0x0 PUSH1 0x20 DUP3 ADD SWAP1 POP PUSH2 0x1F7B PUSH1 0x0 DUP4 ADD DUP5 PUSH2 0x1F57 JUMP JUMPDEST SWAP3 SWAP2 POP POP JUMP JUMPDEST PUSH1 0x0 PUSH1 0x20 DUP3 DUP5 SUB SLT ISZERO PUSH2 0x1F97 JUMPI PUSH2 0x1F96 PUSH2 0x1CED JUMP JUMPDEST JUMPDEST PUSH1 0x0 PUSH2 0x1FA5 DUP5 DUP3 DUP6 ADD PUSH2 0x1D3B JUMP JUMPDEST SWAP2 POP POP SWAP3 SWAP2 POP POP JUMP JUMPDEST PUSH2 0x1FB7 DUP2 PUSH2 0x1DC6 JUMP JUMPDEST DUP2 EQ PUSH2 0x1FC2 JUMPI PUSH1 0x0 DUP1 REVERT JUMPDEST POP JUMP JUMPDEST PUSH1 0x0 DUP2 CALLDATALOAD SWAP1 POP PUSH2 0x1FD4 DUP2 PUSH2 0x1FAE JUMP JUMPDEST SWAP3 SWAP2 POP POP JUMP JUMPDEST PUSH1 0x0 PUSH1 0x20 DUP3 DUP5 SUB SLT ISZERO PUSH2 0x1FF0 JUMPI PUSH2 0x1FEF PUSH2 0x1CED JUMP JUMPDEST JUMPDEST PUSH1 0x0 PUSH2 0x1FFE DUP5 DUP3 DUP6 ADD PUSH2 0x1FC5 JUMP JUMPDEST SWAP2 POP POP SWAP3 SWAP2 POP POP JUMP JUMPDEST PUSH1 0x0 DUP1 PUSH1 0x40 DUP4 DUP6 SUB SLT ISZERO PUSH2 0x201E JUMPI PUSH2 0x201D PUSH2 0x1CED JUMP JUMPDEST JUMPDEST PUSH1 0x0 PUSH2 0x202C DUP6 DUP3 DUP7 ADD PUSH2 0x1D3B JUMP JUMPDEST SWAP3 POP POP PUSH1 0x20 PUSH2 0x203D DUP6 DUP3 DUP7 ADD PUSH2 0x1D3B JUMP JUMPDEST SWAP2 POP POP SWAP3 POP SWAP3 SWAP1 POP JUMP JUMPDEST PUSH32 0x4753573A207472616E7366657220616D6F756E74206578636565647320616C6C PUSH1 0x0 DUP3 ADD MSTORE PUSH32 0x6F77616E63650000000000000000000000000000000000000000000000000000 PUSH1 0x20 DUP3 ADD MSTORE POP JUMP JUMPDEST PUSH1 0x0 PUSH2 0x20A3 PUSH1 0x26 DUP4 PUSH2 0x1C46 JUMP JUMPDEST SWAP2 POP PUSH2 0x20AE DUP3 PUSH2 0x2047 JUMP JUMPDEST PUSH1 0x40 DUP3 ADD SWAP1 POP SWAP2 SWAP1 POP JUMP JUMPDEST PUSH1 0x0 PUSH1 0x20 DUP3 ADD SWAP1 POP DUP2 DUP2 SUB PUSH1 0x0 DUP4 ADD MSTORE PUSH2 0x20D2 DUP2 PUSH2 0x2096 JUMP JUMPDEST SWAP1 POP SWAP2 SWAP1 POP JUMP JUMPDEST PUSH32 0x4E487B7100000000000000000000000000000000000000000000000000000000 PUSH1 0x0 MSTORE PUSH1 0x11 PUSH1 0x4 MSTORE PUSH1 0x24 PUSH1 0x0 REVERT JUMPDEST PUSH1 0x0 PUSH2 0x2113 DUP3 PUSH2 0x1D50 JUMP JUMPDEST SWAP2 POP PUSH2 0x211E DUP4 PUSH2 0x1D50 JUMP JUMPDEST SWAP3 POP DUP3 DUP3 ADD SWAP1 POP DUP1 DUP3 GT ISZERO PUSH2 0x2136 JUMPI PUSH2 0x2135 PUSH2 0x20D9 JUMP JUMPDEST JUMPDEST SWAP3 SWAP2 POP POP JUMP JUMPDEST PUSH32 0x4F776E61626C653A2063616C6C6572206973206E6F7420746865206F776E6572 PUSH1 0x0 DUP3 ADD MSTORE POP JUMP JUMPDEST PUSH1 0x0 PUSH2 0x2172 PUSH1 0x20 DUP4 PUSH2 0x1C46 JUMP JUMPDEST SWAP2 POP PUSH2 0x217D DUP3 PUSH2 0x213C JUMP JUMPDEST PUSH1 0x20 DUP3 ADD SWAP1 POP SWAP2 SWAP1 POP JUMP JUMPDEST PUSH1 0x0 PUSH1 0x20 DUP3 ADD SWAP1 POP DUP2 DUP2 SUB PUSH1 0x0 DUP4 ADD MSTORE PUSH2 0x21A1 DUP2 PUSH2 0x2165 JUMP JUMPDEST SWAP1 POP SWAP2 SWAP1 POP JUMP JUMPDEST PUSH32 0x4753573A2064656372656173656420616C6C6F77616E63652062656C6F77207A PUSH1 0x0 DUP3 ADD MSTORE PUSH32 0x65726F0000000000000000000000000000000000000000000000000000000000 PUSH1 0x20 DUP3 ADD MSTORE POP JUMP JUMPDEST PUSH1 0x0 PUSH2 0x2204 PUSH1 0x23 DUP4 PUSH2 0x1C46 JUMP JUMPDEST SWAP2 POP PUSH2 0x220F DUP3 PUSH2 0x21A8 JUMP JUMPDEST PUSH1 0x40 DUP3 ADD SWAP1 POP SWAP2 SWAP1 POP JUMP JUMPDEST PUSH1 0x0 PUSH1 0x20 DUP3 ADD SWAP1 POP DUP2 DUP2 SUB PUSH1 0x0 DUP4 ADD MSTORE PUSH2 0x2233 DUP2 PUSH2 0x21F7 JUMP JUMPDEST SWAP1 POP SWAP2 SWAP1 POP JUMP JUMPDEST PUSH32 0x4F776E61626C653A206E6577206F776E657220697320746865207A65726F2061 PUSH1 0x0 DUP3 ADD MSTORE PUSH32 0x6464726573730000000000000000000000000000000000000000000000000000 PUSH1 0x20 DUP3 ADD MSTORE POP JUMP JUMPDEST PUSH1 0x0 PUSH2 0x2296 PUSH1 0x26 DUP4 PUSH2 0x1C46 JUMP JUMPDEST SWAP2 POP PUSH2 0x22A1 DUP3 PUSH2 0x223A JUMP JUMPDEST PUSH1 0x40 DUP3 ADD SWAP1 POP SWAP2 SWAP1 POP JUMP JUMPDEST PUSH1 0x0 PUSH1 0x20 DUP3 ADD SWAP1 POP DUP2 DUP2 SUB PUSH1 0x0 DUP4 ADD MSTORE PUSH2 0x22C5 DUP2 PUSH2 0x2289 JUMP JUMPDEST SWAP1 POP SWAP2 SWAP1 POP JUMP JUMPDEST PUSH32 0x4753573A207472616E736665722066726F6D20746865207A65726F2061646472 PUSH1 0x0 DUP3 ADD MSTORE PUSH32 0x6573730000000000000000000000000000000000000000000000000000000000 PUSH1 0x20 DUP3 ADD MSTORE POP JUMP JUMPDEST PUSH1 0x0 PUSH2 0x2328 PUSH1 0x23 DUP4 PUSH2 0x1C46 JUMP JUMPDEST SWAP2 POP PUSH2 0x2333 DUP3 PUSH2 0x22CC JUMP JUMPDEST PUSH1 0x40 DUP3 ADD SWAP1 POP SWAP2 SWAP1 POP JUMP JUMPDEST PUSH1 0x0 PUSH1 0x20 DUP3 ADD SWAP1 POP DUP2 DUP2 SUB PUSH1 0x0 DUP4 ADD MSTORE PUSH2 0x2357 DUP2 PUSH2 0x231B JUMP JUMPDEST SWAP1 POP SWAP2 SWAP1 POP JUMP JUMPDEST PUSH32 0x4753573A207472616E7366657220746F20746865207A65726F20616464726573 PUSH1 0x0 DUP3 ADD MSTORE PUSH32 0x7300000000000000000000000000000000000000000000000000000000000000 PUSH1 0x20 DUP3 ADD MSTORE POP JUMP JUMPDEST PUSH1 0x0 PUSH2 0x23BA PUSH1 0x21 DUP4 PUSH2 0x1C46 JUMP JUMPDEST SWAP2 POP PUSH2 0x23C5 DUP3 PUSH2 0x235E JUMP JUMPDEST PUSH1 0x40 DUP3 ADD SWAP1 POP SWAP2 SWAP1 POP JUMP JUMPDEST PUSH1 0x0 PUSH1 0x20 DUP3 ADD SWAP1 POP DUP2 DUP2 SUB PUSH1 0x0 DUP4 ADD MSTORE PUSH2 0x23E9 DUP2 PUSH2 0x23AD JUMP JUMPDEST SWAP1 POP SWAP2 SWAP1 POP JUMP JUMPDEST PUSH32 0x4753573A207472616E7366657220616D6F756E7420657863656564732062616C PUSH1 0x0 DUP3 ADD MSTORE PUSH32 0x616E636500000000000000000000000000000000000000000000000000000000 PUSH1 0x20 DUP3 ADD MSTORE POP JUMP JUMPDEST PUSH1 0x0 PUSH2 0x244C PUSH1 0x24 DUP4 PUSH2 0x1C46 JUMP JUMPDEST SWAP2 POP PUSH2 0x2457 DUP3 PUSH2 0x23F0 JUMP JUMPDEST PUSH1 0x40 DUP3 ADD SWAP1 POP SWAP2 SWAP1 POP JUMP JUMPDEST PUSH1 0x0 PUSH1 0x20 DUP3 ADD SWAP1 POP DUP2 DUP2 SUB PUSH1 0x0 DUP4 ADD MSTORE PUSH2 0x247B DUP2 PUSH2 0x243F JUMP JUMPDEST SWAP1 POP SWAP2 SWAP1 POP JUMP JUMPDEST PUSH1 0x0 PUSH2 0x248D DUP3 PUSH2 0x1D50 JUMP JUMPDEST SWAP2 POP PUSH2 0x2498 DUP4 PUSH2 0x1D50 JUMP JUMPDEST SWAP3 POP DUP3 DUP3 MUL PUSH2 0x24A6 DUP2 PUSH2 0x1D50 JUMP JUMPDEST SWAP2 POP DUP3 DUP3 DIV DUP5 EQ DUP4 ISZERO OR PUSH2 0x24BD JUMPI PUSH2 0x24BC PUSH2 0x20D9 JUMP JUMPDEST JUMPDEST POP SWAP3 SWAP2 POP POP JUMP JUMPDEST PUSH32 0x4E487B7100000000000000000000000000000000000000000000000000000000 PUSH1 0x0 MSTORE PUSH1 0x12 PUSH1 0x4 MSTORE PUSH1 0x24 PUSH1 0x0 REVERT JUMPDEST PUSH1 0x0 PUSH2 0x24FE DUP3 PUSH2 0x1D50 JUMP JUMPDEST SWAP2 POP PUSH2 0x2509 DUP4 PUSH2 0x1D50 JUMP JUMPDEST SWAP3 POP DUP3 PUSH2 0x2519 JUMPI PUSH2 0x2518 PUSH2 0x24C4 JUMP JUMPDEST JUMPDEST DUP3 DUP3 DIV SWAP1 POP SWAP3 SWAP2 POP POP JUMP JUMPDEST PUSH32 0x4753573A206275726E2066726F6D20746865207A65726F206164647265737300 PUSH1 0x0 DUP3 ADD MSTORE POP JUMP JUMPDEST PUSH1 0x0 PUSH2 0x255A PUSH1 0x1F DUP4 PUSH2 0x1C46 JUMP JUMPDEST SWAP2 POP PUSH2 0x2565 DUP3 PUSH2 0x2524 JUMP JUMPDEST PUSH1 0x20 DUP3 ADD SWAP1 POP SWAP2 SWAP1 POP JUMP JUMPDEST PUSH1 0x0 PUSH1 0x20 DUP3 ADD SWAP1 POP DUP2 DUP2 SUB PUSH1 0x0 DUP4 ADD MSTORE PUSH2 0x2589 DUP2 PUSH2 0x254D JUMP JUMPDEST SWAP1 POP SWAP2 SWAP1 POP JUMP JUMPDEST PUSH32 0x4753573A206275726E20616D6F756E7420657863656564732062616C616E6365 PUSH1 0x0 DUP3 ADD MSTORE POP JUMP JUMPDEST PUSH1 0x0 PUSH2 0x25C6 PUSH1 0x20 DUP4 PUSH2 0x1C46 JUMP JUMPDEST SWAP2 POP PUSH2 0x25D1 DUP3 PUSH2 0x2590 JUMP JUMPDEST PUSH1 0x20 DUP3 ADD SWAP1 POP SWAP2 SWAP1 POP JUMP JUMPDEST PUSH1 0x0 PUSH1 0x20 DUP3 ADD SWAP1 POP DUP2 DUP2 SUB PUSH1 0x0 DUP4 ADD MSTORE PUSH2 0x25F5 DUP2 PUSH2 0x25B9 JUMP JUMPDEST SWAP1 POP SWAP2 SWAP1 POP JUMP JUMPDEST PUSH1 0x0 PUSH2 0x2607 DUP3 PUSH2 0x1D50 JUMP JUMPDEST SWAP2 POP PUSH2 0x2612 DUP4 PUSH2 0x1D50 JUMP JUMPDEST SWAP3 POP DUP3 DUP3 SUB SWAP1 POP DUP2 DUP2 GT ISZERO PUSH2 0x262A JUMPI PUSH2 0x2629 PUSH2 0x20D9 JUMP JUMPDEST JUMPDEST SWAP3 SWAP2 POP POP JUMP JUMPDEST PUSH32 0x4E487B7100000000000000000000000000000000000000000000000000000000 PUSH1 0x0 MSTORE PUSH1 0x41 PUSH1 0x4 MSTORE PUSH1 0x24 PUSH1 0x0 REVERT JUMPDEST PUSH32 0x4E487B7100000000000000000000000000000000000000000000000000000000 PUSH1 0x0 MSTORE PUSH1 0x32 PUSH1 0x4 MSTORE PUSH1 0x24 PUSH1 0x0 REVERT JUMPDEST PUSH1 0x0 DUP2 SWAP1 POP SWAP2 SWAP1 POP JUMP JUMPDEST PUSH1 0x0 PUSH2 0x26B3 PUSH2 0x26AE PUSH2 0x26A9 DUP5 PUSH2 0x268E JUMP JUMPDEST PUSH2 0x1DFC JUMP JUMPDEST PUSH2 0x1D50 JUMP JUMPDEST SWAP1 POP SWAP2 SWAP1 POP JUMP JUMPDEST PUSH2 0x26C3 DUP2 PUSH2 0x2698 JUMP JUMPDEST DUP3 MSTORE POP POP JUMP JUMPDEST PUSH1 0x0 DUP2 MLOAD SWAP1 POP SWAP2 SWAP1 POP JUMP JUMPDEST PUSH1 0x0 DUP3 DUP3 MSTORE PUSH1 0x20 DUP3 ADD SWAP1 POP SWAP3 SWAP2 POP POP JUMP JUMPDEST PUSH1 0x0 DUP2 SWAP1 POP PUSH1 0x20 DUP3 ADD SWAP1 POP SWAP2 SWAP1 POP JUMP JUMPDEST PUSH2 0x26FE DUP2 PUSH2 0x1D12 JUMP JUMPDEST DUP3 MSTORE POP POP JUMP JUMPDEST PUSH1 0x0 PUSH2 0x2710 DUP4 DUP4 PUSH2 0x26F5 JUMP JUMPDEST PUSH1 0x20 DUP4 ADD SWAP1 POP SWAP3 SWAP2 POP POP JUMP JUMPDEST PUSH1 0x0 PUSH1 0x20 DUP3 ADD SWAP1 POP SWAP2 SWAP1 POP JUMP JUMPDEST PUSH1 0x0 PUSH2 0x2734 DUP3 PUSH2 0x26C9 JUMP JUMPDEST PUSH2 0x273E DUP2 DUP6 PUSH2 0x26D4 JUMP JUMPDEST SWAP4 POP PUSH2 0x2749 DUP4 PUSH2 0x26E5 JUMP JUMPDEST DUP1 PUSH1 0x0 JUMPDEST DUP4 DUP2 LT ISZERO PUSH2 0x277A JUMPI DUP2 MLOAD PUSH2 0x2761 DUP9 DUP3 PUSH2 0x2704 JUMP JUMPDEST SWAP8 POP PUSH2 0x276C DUP4 PUSH2 0x271C JUMP JUMPDEST SWAP3 POP POP PUSH1 0x1 DUP2 ADD SWAP1 POP PUSH2 0x274D JUMP JUMPDEST POP DUP6 SWAP4 POP POP POP POP SWAP3 SWAP2 POP POP JUMP JUMPDEST PUSH1 0x0 PUSH1 0xA0 DUP3 ADD SWAP1 POP PUSH2 0x279C PUSH1 0x0 DUP4 ADD DUP9 PUSH2 0x1E76 JUMP JUMPDEST PUSH2 0x27A9 PUSH1 0x20 DUP4 ADD DUP8 PUSH2 0x26BA JUMP JUMPDEST DUP2 DUP2 SUB PUSH1 0x40 DUP4 ADD MSTORE PUSH2 0x27BB DUP2 DUP7 PUSH2 0x2729 JUMP JUMPDEST SWAP1 POP PUSH2 0x27CA PUSH1 0x60 DUP4 ADD DUP6 PUSH2 0x1F57 JUMP JUMPDEST PUSH2 0x27D7 PUSH1 0x80 DUP4 ADD DUP5 PUSH2 0x1E76 JUMP JUMPDEST SWAP7 SWAP6 POP POP POP POP POP POP JUMP INVALID LOG2 PUSH5 0x6970667358 0x22 SLT KECCAK256 SHR DUP1 0xB8 0xDF GT BALANCE PUSH23 0x67C5507DC5FFD25D90DD13D41CB090864FA78E1EE8F3BD MLOAD BYTE PUSH5 0x736F6C6343 STOP ADDMOD GT STOP CALLER "
				},
				"gasEstimates": {
					"creation": {
						"codeDepositCost": "2052600",
						"executionCost": "infinite",
						"totalCost": "infinite"
					},
					"external": {
						"DEXs(address)": "2911",
						"addDex(address)": "29376",
						"allowance(address,address)": "infinite",
						"approve(address,uint256)": "infinite",
						"balanceOf(address)": "2952",
						"burn(uint256)": "infinite",
						"decimals()": "477",
						"decreaseAllowance(address,uint256)": "infinite",
						"emergencyWithdraw()": "infinite",
						"increaseAllowance(address,uint256)": "infinite",
						"isPair(address)": "2933",
						"marketAddress()": "2581",
						"name()": "infinite",
						"owner()": "2567",
						"renounceOwnership()": "30397",
						"setMarket(address)": "27051",
						"setSwapAndLiquifyEnabled(bool)": "infinite",
						"swapAndLiquifyEnabled()": "2566",
						"symbol()": "infinite",
						"totalSupply()": "2527",
						"transfer(address,uint256)": "infinite",
						"transferFrom(address,address,uint256)": "infinite",
						"transferOwnership(address)": "30830",
						"uniswapV2Pair()": "infinite",
						"uniswapV2Router()": "infinite",
						"usdtAddress()": "2625"
					},
					"internal": {
						"_approve(address,address,uint256)": "infinite",
						"_burn(address,uint256)": "infinite",
						"_mint(address,uint256)": "infinite",
						"_transfer(address,address,uint256)": "infinite",
						"swapTokensForUsdt(uint256)": "infinite"
					}
				},
				"methodIdentifiers": {
					"DEXs(address)": "dec1a6f6",
					"addDex(address)": "536db266",
					"allowance(address,address)": "dd62ed3e",
					"approve(address,uint256)": "095ea7b3",
					"balanceOf(address)": "70a08231",
					"burn(uint256)": "42966c68",
					"decimals()": "313ce567",
					"decreaseAllowance(address,uint256)": "a457c2d7",
					"emergencyWithdraw()": "db2e21bc",
					"increaseAllowance(address,uint256)": "39509351",
					"isPair(address)": "e5e31b13",
					"marketAddress()": "95623641",
					"name()": "06fdde03",
					"owner()": "8da5cb5b",
					"renounceOwnership()": "715018a6",
					"setMarket(address)": "6dcea85f",
					"setSwapAndLiquifyEnabled(bool)": "c49b9a80",
					"swapAndLiquifyEnabled()": "4a74bb02",
					"symbol()": "95d89b41",
					"totalSupply()": "18160ddd",
					"transfer(address,uint256)": "a9059cbb",
					"transferFrom(address,address,uint256)": "23b872dd",
					"transferOwnership(address)": "f2fde38b",
					"uniswapV2Pair()": "49bd5a5e",
					"uniswapV2Router()": "1694505e",
					"usdtAddress()": "9ab4a445"
				}
			},
			"storageLayout": {
				"storage": [
					{
						"astId": 296,
						"contract": "ex/exchangeUsdtToken.sol:SugarBaby",
						"label": "_owner",
						"offset": 0,
						"slot": "0",
						"type": "t_address"
					},
					{
						"astId": 1298,
						"contract": "ex/exchangeUsdtToken.sol:SugarBaby",
						"label": "_balances",
						"offset": 0,
						"slot": "1",
						"type": "t_mapping(t_address,t_uint256)"
					},
					{
						"astId": 1304,
						"contract": "ex/exchangeUsdtToken.sol:SugarBaby",
						"label": "_allowances",
						"offset": 0,
						"slot": "2",
						"type": "t_mapping(t_address,t_mapping(t_address,t_uint256))"
					},
					{
						"astId": 1306,
						"contract": "ex/exchangeUsdtToken.sol:SugarBaby",
						"label": "_totalSupply",
						"offset": 0,
						"slot": "3",
						"type": "t_uint256"
					},
					{
						"astId": 1308,
						"contract": "ex/exchangeUsdtToken.sol:SugarBaby",
						"label": "_name",
						"offset": 0,
						"slot": "4",
						"type": "t_string_storage"
					},
					{
						"astId": 1310,
						"contract": "ex/exchangeUsdtToken.sol:SugarBaby",
						"label": "_symbol",
						"offset": 0,
						"slot": "5",
						"type": "t_string_storage"
					},
					{
						"astId": 1313,
						"contract": "ex/exchangeUsdtToken.sol:SugarBaby",
						"label": "marketAddress",
						"offset": 0,
						"slot": "6",
						"type": "t_address"
					},
					{
						"astId": 1321,
						"contract": "ex/exchangeUsdtToken.sol:SugarBaby",
						"label": "usdtAddress",
						"offset": 0,
						"slot": "7",
						"type": "t_address"
					},
					{
						"astId": 1323,
						"contract": "ex/exchangeUsdtToken.sol:SugarBaby",
						"label": "inSwapAndLiquify",
						"offset": 20,
						"slot": "7",
						"type": "t_bool"
					},
					{
						"astId": 1325,
						"contract": "ex/exchangeUsdtToken.sol:SugarBaby",
						"label": "swapAndLiquifyEnabled",
						"offset": 21,
						"slot": "7",
						"type": "t_bool"
					},
					{
						"astId": 1329,
						"contract": "ex/exchangeUsdtToken.sol:SugarBaby",
						"label": "DEXs",
						"offset": 0,
						"slot": "8",
						"type": "t_mapping(t_address,t_bool)"
					},
					{
						"astId": 1333,
						"contract": "ex/exchangeUsdtToken.sol:SugarBaby",
						"label": "isPair",
						"offset": 0,
						"slot": "9",
						"type": "t_mapping(t_address,t_bool)"
					}
				],
				"types": {
					"t_address": {
						"encoding": "inplace",
						"label": "address",
						"numberOfBytes": "20"
					},
					"t_bool": {
						"encoding": "inplace",
						"label": "bool",
						"numberOfBytes": "1"
					},
					"t_mapping(t_address,t_bool)": {
						"encoding": "mapping",
						"key": "t_address",
						"label": "mapping(address => bool)",
						"numberOfBytes": "32",
						"value": "t_bool"
					},
					"t_mapping(t_address,t_mapping(t_address,t_uint256))": {
						"encoding": "mapping",
						"key": "t_address",
						"label": "mapping(address => mapping(address => uint256))",
						"numberOfBytes": "32",
						"value": "t_mapping(t_address,t_uint256)"
					},
					"t_mapping(t_address,t_uint256)": {
						"encoding": "mapping",
						"key": "t_address",
						"label": "mapping(address => uint256)",
						"numberOfBytes": "32",
						"value": "t_uint256"
					},
					"t_string_storage": {
						"encoding": "bytes",
						"label": "string",
						"numberOfBytes": "32"
					},
					"t_uint256": {
						"encoding": "inplace",
						"label": "uint256",
						"numberOfBytes": "32"
					}
				}
			},
			"userdoc": {
				"kind": "user",
				"methods": {},
				"version": 1
			}
		}
	}
}