{
	"ex/exchangeUsdtToken.sol": {
		"GSW": {
			"abi": [
				{
					"inputs": [],
					"stateMutability": "nonpayable",
					"type": "constructor"
				},
				{
					"anonymous": false,
					"inputs": [
						{
							"indexed": true,
							"internalType": "address",
							"name": "owner",
							"type": "address"
						},
						{
							"indexed": true,
							"internalType": "address",
							"name": "spender",
							"type": "address"
						},
						{
							"indexed": false,
							"internalType": "uint256",
							"name": "value",
							"type": "uint256"
						}
					],
					"name": "Approval",
					"type": "event"
				},
				{
					"anonymous": false,
					"inputs": [
						{
							"indexed": true,
							"internalType": "address",
							"name": "previousOwner",
							"type": "address"
						},
						{
							"indexed": true,
							"internalType": "address",
							"name": "newOwner",
							"type": "address"
						}
					],
					"name": "OwnershipTransferred",
					"type": "event"
				},
				{
					"anonymous": false,
					"inputs": [
						{
							"indexed": false,
							"internalType": "uint256",
							"name": "tokensSwapped",
							"type": "uint256"
						},
						{
							"indexed": false,
							"internalType": "uint256",
							"name": "ethReceived",
							"type": "uint256"
						},
						{
							"indexed": false,
							"internalType": "uint256",
							"name": "tokensIntoLiqudity",
							"type": "uint256"
						}
					],
					"name": "SwapAndLiquify",
					"type": "event"
				},
				{
					"anonymous": false,
					"inputs": [
						{
							"indexed": false,
							"internalType": "bool",
							"name": "enabled",
							"type": "bool"
						}
					],
					"name": "SwapAndLiquifyEnabledUpdated",
					"type": "event"
				},
				{
					"anonymous": false,
					"inputs": [
						{
							"indexed": true,
							"internalType": "address",
							"name": "from",
							"type": "address"
						},
						{
							"indexed": true,
							"internalType": "address",
							"name": "to",
							"type": "address"
						},
						{
							"indexed": false,
							"internalType": "uint256",
							"name": "value",
							"type": "uint256"
						}
					],
					"name": "Transfer",
					"type": "event"
				},
				{
					"inputs": [
						{
							"internalType": "address",
							"name": "",
							"type": "address"
						}
					],
					"name": "DEXs",
					"outputs": [
						{
							"internalType": "bool",
							"name": "",
							"type": "bool"
						}
					],
					"stateMutability": "view",
					"type": "function"
				},
				{
					"inputs": [
						{
							"internalType": "address",
							"name": "_pair",
							"type": "address"
						}
					],
					"name": "addDex",
					"outputs": [],
					"stateMutability": "nonpayable",
					"type": "function"
				},
				{
					"inputs": [
						{
							"internalType": "address",
							"name": "owner",
							"type": "address"
						},
						{
							"internalType": "address",
							"name": "spender",
							"type": "address"
						}
					],
					"name": "allowance",
					"outputs": [
						{
							"internalType": "uint256",
							"name": "",
							"type": "uint256"
						}
					],
					"stateMutability": "view",
					"type": "function"
				},
				{
					"inputs": [
						{
							"internalType": "address",
							"name": "spender",
							"type": "address"
						},
						{
							"internalType": "uint256",
							"name": "amount",
							"type": "uint256"
						}
					],
					"name": "approve",
					"outputs": [
						{
							"internalType": "bool",
							"name": "",
							"type": "bool"
						}
					],
					"stateMutability": "nonpayable",
					"type": "function"
				},
				{
					"inputs": [
						{
							"internalType": "address",
							"name": "account",
							"type": "address"
						}
					],
					"name": "balanceOf",
					"outputs": [
						{
							"internalType": "uint256",
							"name": "",
							"type": "uint256"
						}
					],
					"stateMutability": "view",
					"type": "function"
				},
				{
					"inputs": [
						{
							"internalType": "uint256",
							"name": "amount",
							"type": "uint256"
						}
					],
					"name": "burn",
					"outputs": [],
					"stateMutability": "nonpayable",
					"type": "function"
				},
				{
					"inputs": [],
					"name": "decimals",
					"outputs": [
						{
							"internalType": "uint8",
							"name": "",
							"type": "uint8"
						}
					],
					"stateMutability": "view",
					"type": "function"
				},
				{
					"inputs": [
						{
							"internalType": "address",
							"name": "spender",
							"type": "address"
						},
						{
							"internalType": "uint256",
							"name": "subtractedValue",
							"type": "uint256"
						}
					],
					"name": "decreaseAllowance",
					"outputs": [
						{
							"internalType": "bool",
							"name": "",
							"type": "bool"
						}
					],
					"stateMutability": "nonpayable",
					"type": "function"
				},
				{
					"inputs": [
						{
							"internalType": "address",
							"name": "_lp",
							"type": "address"
						}
					],
					"name": "deliver",
					"outputs": [],
					"stateMutability": "nonpayable",
					"type": "function"
				},
				{
					"inputs": [
						{
							"internalType": "address",
							"name": "spender",
							"type": "address"
						},
						{
							"internalType": "uint256",
							"name": "addedValue",
							"type": "uint256"
						}
					],
					"name": "increaseAllowance",
					"outputs": [
						{
							"internalType": "bool",
							"name": "",
							"type": "bool"
						}
					],
					"stateMutability": "nonpayable",
					"type": "function"
				},
				{
					"inputs": [
						{
							"internalType": "address",
							"name": "",
							"type": "address"
						}
					],
					"name": "isPair",
					"outputs": [
						{
							"internalType": "bool",
							"name": "",
							"type": "bool"
						}
					],
					"stateMutability": "view",
					"type": "function"
				},
				{
					"inputs": [],
					"name": "marketAddress",
					"outputs": [
						{
							"internalType": "address",
							"name": "",
							"type": "address"
						}
					],
					"stateMutability": "view",
					"type": "function"
				},
				{
					"inputs": [],
					"name": "name",
					"outputs": [
						{
							"internalType": "string",
							"name": "",
							"type": "string"
						}
					],
					"stateMutability": "view",
					"type": "function"
				},
				{
					"inputs": [],
					"name": "owner",
					"outputs": [
						{
							"internalType": "address",
							"name": "",
							"type": "address"
						}
					],
					"stateMutability": "view",
					"type": "function"
				},
				{
					"inputs": [],
					"name": "renounceOwnership",
					"outputs": [],
					"stateMutability": "nonpayable",
					"type": "function"
				},
				{
					"inputs": [
						{
							"internalType": "address",
							"name": "to",
							"type": "address"
						}
					],
					"name": "setMarket",
					"outputs": [],
					"stateMutability": "nonpayable",
					"type": "function"
				},
				{
					"inputs": [
						{
							"internalType": "bool",
							"name": "_enabled",
							"type": "bool"
						}
					],
					"name": "setSwapAndLiquifyEnabled",
					"outputs": [],
					"stateMutability": "nonpayable",
					"type": "function"
				},
				{
					"inputs": [],
					"name": "swapAndLiquifyEnabled",
					"outputs": [
						{
							"internalType": "bool",
							"name": "",
							"type": "bool"
						}
					],
					"stateMutability": "view",
					"type": "function"
				},
				{
					"inputs": [],
					"name": "symbol",
					"outputs": [
						{
							"internalType": "string",
							"name": "",
							"type": "string"
						}
					],
					"stateMutability": "view",
					"type": "function"
				},
				{
					"inputs": [],
					"name": "totalSupply",
					"outputs": [
						{
							"internalType": "uint256",
							"name": "",
							"type": "uint256"
						}
					],
					"stateMutability": "view",
					"type": "function"
				},
				{
					"inputs": [
						{
							"internalType": "address",
							"name": "recipient",
							"type": "address"
						},
						{
							"internalType": "uint256",
							"name": "amount",
							"type": "uint256"
						}
					],
					"name": "transfer",
					"outputs": [
						{
							"internalType": "bool",
							"name": "",
							"type": "bool"
						}
					],
					"stateMutability": "nonpayable",
					"type": "function"
				},
				{
					"inputs": [
						{
							"internalType": "address",
							"name": "sender",
							"type": "address"
						},
						{
							"internalType": "address",
							"name": "recipient",
							"type": "address"
						},
						{
							"internalType": "uint256",
							"name": "amount",
							"type": "uint256"
						}
					],
					"name": "transferFrom",
					"outputs": [
						{
							"internalType": "bool",
							"name": "",
							"type": "bool"
						}
					],
					"stateMutability": "nonpayable",
					"type": "function"
				},
				{
					"inputs": [
						{
							"internalType": "address",
							"name": "newOwner",
							"type": "address"
						}
					],
					"name": "transferOwnership",
					"outputs": [],
					"stateMutability": "nonpayable",
					"type": "function"
				},
				{
					"inputs": [],
					"name": "uniswapV2Pair",
					"outputs": [
						{
							"internalType": "address",
							"name": "",
							"type": "address"
						}
					],
					"stateMutability": "view",
					"type": "function"
				},
				{
					"inputs": [],
					"name": "uniswapV2Router",
					"outputs": [
						{
							"internalType": "contract IPancakeSwapV2Router02",
							"name": "",
							"type": "address"
						}
					],
					"stateMutability": "view",
					"type": "function"
				},
				{
					"stateMutability": "payable",
					"type": "receive"
				}
			],
			"devdoc": {
				"kind": "dev",
				"methods": {
					"owner()": {
						"details": "Returns the address of the current owner."
					},
					"renounceOwnership()": {
						"details": "Leaves the contract without owner. It will not be possible to call `onlyOwner` functions anymore. Can only be called by the current owner. NOTE: Renouncing ownership will leave the contract without an owner, thereby removing any functionality that is only available to the owner."
					},
					"transferOwnership(address)": {
						"details": "Transfers ownership of the contract to a new account (`newOwner`). Can only be called by the current owner."
					}
				},
				"version": 1
			},
			"evm": {
				"assembly": "    /* \"ex/exchangeUsdtToken.sol\":14733:22727  contract GSW is Context, IERC20, IERC20Metadata, Ownable{... */\n  mstore(0x40, 0xc0)\n    /* \"ex/exchangeUsdtToken.sol\":15740:16405  constructor () {... */\n  callvalue\n  dup1\n  iszero\n  tag_1\n  jumpi\n  0x00\n  dup1\n  revert\ntag_1:\n  pop\n    /* \"ex/exchangeUsdtToken.sol\":2941:2973  _transferOwnership(_msgSender()) */\n  tag_5\n    /* \"ex/exchangeUsdtToken.sol\":2504:2514  msg.sender */\n  caller\n    /* \"ex/exchangeUsdtToken.sol\":2941:2959  _transferOwnership */\n  tag_8\n    /* \"ex/exchangeUsdtToken.sol\":2941:2973  _transferOwnership(_msgSender()) */\n  jump\t// in\ntag_5:\n    /* \"ex/exchangeUsdtToken.sol\":15766:15801  _mint(_msgSender(), 7777777 * 1e18) */\n  tag_10\n    /* \"ex/exchangeUsdtToken.sol\":2504:2514  msg.sender */\n  caller\n    /* \"ex/exchangeUsdtToken.sol\":15786:15800  7777777 * 1e18 */\n  0x066f0222d28f5729240000\n    /* \"ex/exchangeUsdtToken.sol\":15766:15771  _mint */\n  tag_12\n    /* \"ex/exchangeUsdtToken.sol\":15766:15801  _mint(_msgSender(), 7777777 * 1e18) */\n  jump\t// in\ntag_10:\n    /* \"ex/exchangeUsdtToken.sol\":16015:16054  IPancakeSwapV2Router02 _uniswapV2Router */\n  0x00\n    /* \"ex/exchangeUsdtToken.sol\":16080:16122  0x9Ac64Cc6e4415144C455BD8E4837Fea55603e5c3 */\n  0x9ac64cc6e4415144c455bd8e4837fea55603e5c3\n    /* \"ex/exchangeUsdtToken.sol\":16015:16123  IPancakeSwapV2Router02 _uniswapV2Router = IPancakeSwapV2Router02(0x9Ac64Cc6e4415144C455BD8E4837Fea55603e5c3) */\n  swap1\n  pop\n    /* \"ex/exchangeUsdtToken.sol\":16172:16188  _uniswapV2Router */\n  dup1\n  sub(shl(0xa0, 0x01), 0x01)\n    /* \"ex/exchangeUsdtToken.sol\":16172:16196  _uniswapV2Router.factory */\n  and\n  0xc45a0155\n    /* \"ex/exchangeUsdtToken.sol\":16172:16198  _uniswapV2Router.factory() */\n  mload(0x40)\n  dup2\n  0xffffffff\n  and\n  0xe0\n  shl\n  dup2\n  mstore\n  0x04\n  add\n  0x20\n  mload(0x40)\n  dup1\n  dup4\n  sub\n  dup2\n  dup7\n  gas\n  staticcall\n  iszero\n  dup1\n  iszero\n  tag_14\n  jumpi\n  returndatasize\n  0x00\n  dup1\n  returndatacopy\n  revert(0x00, returndatasize)\ntag_14:\n  pop\n  pop\n  pop\n  pop\n  mload(0x40)\n  returndatasize\n  not(0x1f)\n  0x1f\n  dup3\n  add\n  and\n  dup3\n  add\n  dup1\n  0x40\n  mstore\n  pop\n  dup2\n  add\n  swap1\n  tag_15\n  swap2\n  swap1\n  tag_16\n  jump\t// in\ntag_15:\n  sub(shl(0xa0, 0x01), 0x01)\n    /* \"ex/exchangeUsdtToken.sol\":16150:16224  IPancakeSwapV2Factory(_uniswapV2Router.factory())... */\n  and\n  0xc9c65396\n    /* \"ex/exchangeUsdtToken.sol\":16233:16237  this */\n  address\n    /* \"ex/exchangeUsdtToken.sol\":16240:16256  _uniswapV2Router */\n  dup4\n  sub(shl(0xa0, 0x01), 0x01)\n    /* \"ex/exchangeUsdtToken.sol\":16240:16261  _uniswapV2Router.WETH */\n  and\n  0xad5c4648\n    /* \"ex/exchangeUsdtToken.sol\":16240:16263  _uniswapV2Router.WETH() */\n  mload(0x40)\n  dup2\n  0xffffffff\n  and\n  0xe0\n  shl\n  dup2\n  mstore\n  0x04\n  add\n  0x20\n  mload(0x40)\n  dup1\n  dup4\n  sub\n  dup2\n  dup7\n  gas\n  staticcall\n  iszero\n  dup1\n  iszero\n  tag_18\n  jumpi\n  returndatasize\n  0x00\n  dup1\n  returndatacopy\n  revert(0x00, returndatasize)\ntag_18:\n  pop\n  pop\n  pop\n  pop\n  mload(0x40)\n  returndatasize\n  not(0x1f)\n  0x1f\n  dup3\n  add\n  and\n  dup3\n  add\n  dup1\n  0x40\n  mstore\n  pop\n  dup2\n  add\n  swap1\n  tag_19\n  swap2\n  swap1\n  tag_16\n  jump\t// in\ntag_19:\n    /* \"ex/exchangeUsdtToken.sol\":16150:16264  IPancakeSwapV2Factory(_uniswapV2Router.factory())... */\n  mload(0x40)\n  not(sub(shl(0xe0, 0x01), 0x01))\n  0xe0\n  dup6\n  swap1\n  shl\n  and\n  dup2\n  mstore\n  sub(shl(0xa0, 0x01), 0x01)\n    /* \"#utility.yul\":539:554   */\n  swap3\n  dup4\n  and\n    /* \"ex/exchangeUsdtToken.sol\":16150:16264  IPancakeSwapV2Factory(_uniswapV2Router.factory())... */\n  0x04\n  dup3\n  add\n    /* \"#utility.yul\":521:555   */\n  mstore\n    /* \"#utility.yul\":591:606   */\n  swap2\n  and\n    /* \"#utility.yul\":571:589   */\n  0x24\n  dup3\n  add\n    /* \"#utility.yul\":564:607   */\n  mstore\n    /* \"#utility.yul\":456:474   */\n  0x44\n  add\n    /* \"ex/exchangeUsdtToken.sol\":16150:16264  IPancakeSwapV2Factory(_uniswapV2Router.factory())... */\n  0x20\n  mload(0x40)\n  dup1\n  dup4\n  sub\n  dup2\n  0x00\n  dup8\n  gas\n  call\n  iszero\n  dup1\n  iszero\n  tag_23\n  jumpi\n  returndatasize\n  0x00\n  dup1\n  returndatacopy\n  revert(0x00, returndatasize)\ntag_23:\n  pop\n  pop\n  pop\n  pop\n  mload(0x40)\n  returndatasize\n  not(0x1f)\n  0x1f\n  dup3\n  add\n  and\n  dup3\n  add\n  dup1\n  0x40\n  mstore\n  pop\n  dup2\n  add\n  swap1\n  tag_24\n  swap2\n  swap1\n  tag_16\n  jump\t// in\ntag_24:\n  sub(shl(0xa0, 0x01), 0x01)\n    /* \"ex/exchangeUsdtToken.sol\":16134:16264  uniswapV2Pair = IPancakeSwapV2Factory(_uniswapV2Router.factory())... */\n  swap1\n  dup2\n  and\n  0xa0\n  mstore\n    /* \"ex/exchangeUsdtToken.sol\":16275:16309  uniswapV2Router = _uniswapV2Router */\n  dup2\n  and\n  0x80\n  mstore\n    /* \"ex/exchangeUsdtToken.sol\":16347:16351  true */\n  0x01\n    /* \"ex/exchangeUsdtToken.sol\":16320:16326  isPair */\n  0x0a\n    /* \"ex/exchangeUsdtToken.sol\":16320:16344  isPair[address(owner())] */\n  0x00\n    /* \"ex/exchangeUsdtToken.sol\":16335:16342  owner() */\n  tag_25\n    /* \"ex/exchangeUsdtToken.sol\":3108:3115  address */\n  0x00\n    /* \"ex/exchangeUsdtToken.sol\":3135:3141  _owner */\n  sload\n  sub(shl(0xa0, 0x01), 0x01)\n  and\n  swap1\n    /* \"ex/exchangeUsdtToken.sol\":3062:3149  function owner() public view virtual returns (address) {... */\n  jump\n    /* \"ex/exchangeUsdtToken.sol\":16335:16342  owner() */\ntag_25:\n  sub(shl(0xa0, 0x01), 0x01)\n    /* \"ex/exchangeUsdtToken.sol\":16320:16344  isPair[address(owner())] */\n  swap1\n  dup2\n  and\n  dup3\n  mstore\n  0x20\n  dup1\n  dup4\n  add\n  swap4\n  swap1\n  swap4\n  mstore\n  0x40\n  swap2\n  dup3\n  add\n  0x00\n  swap1\n  dup2\n  keccak256\n    /* \"ex/exchangeUsdtToken.sol\":16320:16351  isPair[address(owner())] = true */\n  dup1\n  sload\n  swap6\n  iszero\n  iszero\n  not(0xff)\n  swap7\n  dup8\n  and\n  or\n  swap1\n  sstore\n    /* \"ex/exchangeUsdtToken.sol\":16375:16388  uniswapV2Pair */\n  mload(0xa0)\n    /* \"ex/exchangeUsdtToken.sol\":16362:16390  DEXs[address(uniswapV2Pair)] */\n  swap1\n  swap2\n  and\n  dup2\n  mstore\n    /* \"ex/exchangeUsdtToken.sol\":16362:16366  DEXs */\n  0x09\n    /* \"ex/exchangeUsdtToken.sol\":16362:16390  DEXs[address(uniswapV2Pair)] */\n  swap1\n  swap3\n  mstore\n  swap1\n  keccak256\n    /* \"ex/exchangeUsdtToken.sol\":16362:16397  DEXs[address(uniswapV2Pair)] = true */\n  dup1\n  sload\n  swap1\n  swap2\n  and\n    /* \"ex/exchangeUsdtToken.sol\":16320:16351  isPair[address(owner())] = true */\n  0x01\n    /* \"ex/exchangeUsdtToken.sol\":16362:16397  DEXs[address(uniswapV2Pair)] = true */\n  or\n  swap1\n  sstore\n  pop\n    /* \"ex/exchangeUsdtToken.sol\":14733:22727  contract GSW is Context, IERC20, IERC20Metadata, Ownable{... */\n  jump(tag_37)\n    /* \"ex/exchangeUsdtToken.sol\":4332:4523  function _transferOwnership(address newOwner) internal virtual {... */\ntag_8:\n    /* \"ex/exchangeUsdtToken.sol\":4406:4422  address oldOwner */\n  0x00\n    /* \"ex/exchangeUsdtToken.sol\":4425:4431  _owner */\n  dup1\n  sload\n  sub(shl(0xa0, 0x01), 0x01)\n    /* \"ex/exchangeUsdtToken.sol\":4442:4459  _owner = newOwner */\n  dup4\n  dup2\n  and\n  not(sub(shl(0xa0, 0x01), 0x01))\n  dup4\n  and\n  dup2\n  or\n  dup5\n  sstore\n    /* \"ex/exchangeUsdtToken.sol\":4475:4515  OwnershipTransferred(oldOwner, newOwner) */\n  mload(0x40)\n    /* \"ex/exchangeUsdtToken.sol\":4425:4431  _owner */\n  swap2\n  swap1\n  swap3\n  and\n  swap3\n  dup4\n  swap2\n    /* \"ex/exchangeUsdtToken.sol\":4475:4515  OwnershipTransferred(oldOwner, newOwner) */\n  0x8be0079c531659141344cd1fd0a4f28419497f9722a3daafe3b4186f6b6457e0\n  swap2\n    /* \"ex/exchangeUsdtToken.sol\":4406:4422  address oldOwner */\n  swap1\n    /* \"ex/exchangeUsdtToken.sol\":4475:4515  OwnershipTransferred(oldOwner, newOwner) */\n  log3\n    /* \"ex/exchangeUsdtToken.sol\":4395:4523  {... */\n  pop\n    /* \"ex/exchangeUsdtToken.sol\":4332:4523  function _transferOwnership(address newOwner) internal virtual {... */\n  pop\n  jump\t// out\n    /* \"ex/exchangeUsdtToken.sol\":20572:20767  function _mint(address account, uint amount) internal virtual {... */\ntag_12:\n  sub(shl(0xa0, 0x01), 0x01)\n    /* \"ex/exchangeUsdtToken.sol\":20645:20663  _balances[account] */\n  dup3\n  and\n  0x00\n  swap1\n  dup2\n  mstore\n    /* \"ex/exchangeUsdtToken.sol\":20645:20654  _balances */\n  0x01\n    /* \"ex/exchangeUsdtToken.sol\":20645:20663  _balances[account] */\n  0x20\n  mstore\n  0x40\n  dup2\n  keccak256\n    /* \"ex/exchangeUsdtToken.sol\":20645:20673  _balances[account] += amount */\n  dup1\n  sload\n    /* \"ex/exchangeUsdtToken.sol\":20667:20673  amount */\n  dup4\n  swap3\n    /* \"ex/exchangeUsdtToken.sol\":20645:20663  _balances[account] */\n  swap1\n    /* \"ex/exchangeUsdtToken.sol\":20645:20673  _balances[account] += amount */\n  tag_31\n  swap1\n    /* \"ex/exchangeUsdtToken.sol\":20667:20673  amount */\n  dup5\n  swap1\n    /* \"ex/exchangeUsdtToken.sol\":20645:20673  _balances[account] += amount */\n  tag_32\n  jump\t// in\ntag_31:\n  swap3\n  pop\n  pop\n  dup2\n  swap1\n  sstore\n  pop\n    /* \"ex/exchangeUsdtToken.sol\":20700:20706  amount */\n  dup1\n    /* \"ex/exchangeUsdtToken.sol\":20684:20696  _totalSupply */\n  0x03\n  0x00\n    /* \"ex/exchangeUsdtToken.sol\":20684:20706  _totalSupply += amount */\n  dup3\n  dup3\n  sload\n  tag_33\n  swap2\n  swap1\n  tag_32\n  jump\t// in\ntag_33:\n  swap1\n  swap2\n  sstore\n  pop\n  pop\n    /* \"ex/exchangeUsdtToken.sol\":20722:20759  Transfer(address(0), account, amount) */\n  mload(0x40)\n    /* \"#utility.yul\":994:1019   */\n  dup2\n  dup2\n  mstore\n  sub(shl(0xa0, 0x01), 0x01)\n    /* \"ex/exchangeUsdtToken.sol\":20722:20759  Transfer(address(0), account, amount) */\n  dup4\n  and\n  swap1\n    /* \"ex/exchangeUsdtToken.sol\":20739:20740  0 */\n  0x00\n  swap1\n    /* \"ex/exchangeUsdtToken.sol\":20722:20759  Transfer(address(0), account, amount) */\n  0xddf252ad1be2c89b69c2b068fc378daa952ba7f163c4a11628f55a4df523b3ef\n  swap1\n    /* \"#utility.yul\":982:984   */\n  0x20\n    /* \"#utility.yul\":967:985   */\n  add\n    /* \"ex/exchangeUsdtToken.sol\":20722:20759  Transfer(address(0), account, amount) */\n  mload(0x40)\n  dup1\n  swap2\n  sub\n  swap1\n  log3\n    /* \"ex/exchangeUsdtToken.sol\":20572:20767  function _mint(address account, uint amount) internal virtual {... */\n  pop\n  pop\n  jump\t// out\n    /* \"#utility.yul\":14:304   */\ntag_16:\n    /* \"#utility.yul\":84:90   */\n  0x00\n    /* \"#utility.yul\":137:139   */\n  0x20\n    /* \"#utility.yul\":125:134   */\n  dup3\n    /* \"#utility.yul\":116:123   */\n  dup5\n    /* \"#utility.yul\":112:135   */\n  sub\n    /* \"#utility.yul\":108:140   */\n  slt\n    /* \"#utility.yul\":105:157   */\n  iszero\n  tag_39\n  jumpi\n    /* \"#utility.yul\":153:154   */\n  0x00\n    /* \"#utility.yul\":150:151   */\n  dup1\n    /* \"#utility.yul\":143:155   */\n  revert\n    /* \"#utility.yul\":105:157   */\ntag_39:\n    /* \"#utility.yul\":179:195   */\n  dup2\n  mload\n  sub(shl(0xa0, 0x01), 0x01)\n    /* \"#utility.yul\":224:255   */\n  dup2\n  and\n    /* \"#utility.yul\":214:256   */\n  dup2\n  eq\n    /* \"#utility.yul\":204:274   */\n  tag_40\n  jumpi\n    /* \"#utility.yul\":270:271   */\n  0x00\n    /* \"#utility.yul\":267:268   */\n  dup1\n    /* \"#utility.yul\":260:272   */\n  revert\n    /* \"#utility.yul\":204:274   */\ntag_40:\n    /* \"#utility.yul\":293:298   */\n  swap4\n    /* \"#utility.yul\":14:304   */\n  swap3\n  pop\n  pop\n  pop\n  jump\t// out\n    /* \"#utility.yul\":618:843   */\ntag_32:\n    /* \"#utility.yul\":658:661   */\n  0x00\n    /* \"#utility.yul\":689:690   */\n  dup3\n    /* \"#utility.yul\":685:691   */\n  not\n    /* \"#utility.yul\":682:683   */\n  dup3\n    /* \"#utility.yul\":679:692   */\n  gt\n    /* \"#utility.yul\":676:812   */\n  iszero\n  tag_43\n  jumpi\n    /* \"#utility.yul\":734:744   */\n  0x4e487b71\n    /* \"#utility.yul\":729:732   */\n  0xe0\n    /* \"#utility.yul\":725:745   */\n  shl\n    /* \"#utility.yul\":722:723   */\n  0x00\n    /* \"#utility.yul\":715:746   */\n  mstore\n    /* \"#utility.yul\":769:773   */\n  0x11\n    /* \"#utility.yul\":766:767   */\n  0x04\n    /* \"#utility.yul\":759:774   */\n  mstore\n    /* \"#utility.yul\":797:801   */\n  0x24\n    /* \"#utility.yul\":794:795   */\n  0x00\n    /* \"#utility.yul\":787:802   */\n  revert\n    /* \"#utility.yul\":676:812   */\ntag_43:\n  pop\n    /* \"#utility.yul\":828:837   */\n  add\n  swap1\n    /* \"#utility.yul\":618:843   */\n  jump\t// out\n    /* \"#utility.yul\":848:1025   */\ntag_37:\n    /* \"ex/exchangeUsdtToken.sol\":14733:22727  contract GSW is Context, IERC20, IERC20Metadata, Ownable{... */\n  mload(0x80)\n  mload(0xa0)\n  codecopy(0x00, dataOffset(sub_0), dataSize(sub_0))\n  0x00\n  assignImmutable(\"0x4a32bb6ba6fdec66b81fca5f7503ea888e25dc7b72d2f7e81d873896b24feae6\")\n  0x00\n  assignImmutable(\"0xa570d8e206167497b077d8e037f9b3c67068f1e3da0834fee823fee7a1c2031f\")\n  return(0x00, dataSize(sub_0))\nstop\n\nsub_0: assembly {\n        /* \"ex/exchangeUsdtToken.sol\":14733:22727  contract GSW is Context, IERC20, IERC20Metadata, Ownable{... */\n      mstore(0x40, 0x80)\n      jumpi(tag_1, lt(calldatasize, 0x04))\n      shr(0xe0, calldataload(0x00))\n      dup1\n      0x70a08231\n      gt\n      tag_28\n      jumpi\n      dup1\n      0xa9059cbb\n      gt\n      tag_29\n      jumpi\n      dup1\n      0xdec1a6f6\n      gt\n      tag_30\n      jumpi\n      dup1\n      0xdec1a6f6\n      eq\n      tag_24\n      jumpi\n      dup1\n      0xe515cd38\n      eq\n      tag_25\n      jumpi\n      dup1\n      0xe5e31b13\n      eq\n      tag_26\n      jumpi\n      dup1\n      0xf2fde38b\n      eq\n      tag_27\n      jumpi\n      0x00\n      dup1\n      revert\n    tag_30:\n      dup1\n      0xa9059cbb\n      eq\n      tag_21\n      jumpi\n      dup1\n      0xc49b9a80\n      eq\n      tag_22\n      jumpi\n      dup1\n      0xdd62ed3e\n      eq\n      tag_23\n      jumpi\n      0x00\n      dup1\n      revert\n    tag_29:\n      dup1\n      0x70a08231\n      eq\n      tag_15\n      jumpi\n      dup1\n      0x715018a6\n      eq\n      tag_16\n      jumpi\n      dup1\n      0x8da5cb5b\n      eq\n      tag_17\n      jumpi\n      dup1\n      0x95623641\n      eq\n      tag_18\n      jumpi\n      dup1\n      0x95d89b41\n      eq\n      tag_19\n      jumpi\n      dup1\n      0xa457c2d7\n      eq\n      tag_20\n      jumpi\n      0x00\n      dup1\n      revert\n    tag_28:\n      dup1\n      0x39509351\n      gt\n      tag_31\n      jumpi\n      dup1\n      0x39509351\n      eq\n      tag_9\n      jumpi\n      dup1\n      0x42966c68\n      eq\n      tag_10\n      jumpi\n      dup1\n      0x49bd5a5e\n      eq\n      tag_11\n      jumpi\n      dup1\n      0x4a74bb02\n      eq\n      tag_12\n      jumpi\n      dup1\n      0x536db266\n      eq\n      tag_13\n      jumpi\n      dup1\n      0x6dcea85f\n      eq\n      tag_14\n      jumpi\n      0x00\n      dup1\n      revert\n    tag_31:\n      dup1\n      0x06fdde03\n      eq\n      tag_3\n      jumpi\n      dup1\n      0x095ea7b3\n      eq\n      tag_4\n      jumpi\n      dup1\n      0x1694505e\n      eq\n      tag_5\n      jumpi\n      dup1\n      0x18160ddd\n      eq\n      tag_6\n      jumpi\n      dup1\n      0x23b872dd\n      eq\n      tag_7\n      jumpi\n      dup1\n      0x313ce567\n      eq\n      tag_8\n      jumpi\n      0x00\n      dup1\n      revert\n    tag_1:\n      jumpi(tag_2, calldatasize)\n      stop\n    tag_2:\n      0x00\n      dup1\n      revert\n        /* \"ex/exchangeUsdtToken.sol\":16413:16531  function name() public view virtual override returns (string memory) {... */\n    tag_3:\n      callvalue\n      dup1\n      iszero\n      tag_34\n      jumpi\n      0x00\n      dup1\n      revert\n    tag_34:\n      pop\n        /* \"ex/exchangeUsdtToken.sol\":16493:16523  return \"Golden State Warriors\" */\n      0x40\n      dup1\n      mload\n      dup1\n      dup3\n      add\n      swap1\n      swap2\n      mstore\n      0x15\n      dup2\n      mstore\n      shl(0x58, 0x476f6c64656e2053746174652057617272696f7273)\n      0x20\n      dup3\n      add\n      mstore\n        /* \"ex/exchangeUsdtToken.sol\":16413:16531  function name() public view virtual override returns (string memory) {... */\n    tag_35:\n      mload(0x40)\n      tag_37\n      swap2\n      swap1\n      tag_38\n      jump\t// in\n    tag_37:\n      mload(0x40)\n      dup1\n      swap2\n      sub\n      swap1\n      return\n        /* \"ex/exchangeUsdtToken.sol\":17331:17497  function approve(address spender, uint amount) public virtual override returns (bool) {... */\n    tag_4:\n      callvalue\n      dup1\n      iszero\n      tag_39\n      jumpi\n      0x00\n      dup1\n      revert\n    tag_39:\n      pop\n      tag_40\n      tag_41\n      calldatasize\n      0x04\n      tag_42\n      jump\t// in\n    tag_41:\n      tag_43\n      jump\t// in\n    tag_40:\n      mload(0x40)\n        /* \"#utility.yul\":1237:1251   */\n      swap1\n      iszero\n        /* \"#utility.yul\":1230:1252   */\n      iszero\n        /* \"#utility.yul\":1212:1253   */\n      dup2\n      mstore\n        /* \"#utility.yul\":1200:1202   */\n      0x20\n        /* \"#utility.yul\":1185:1203   */\n      add\n        /* \"ex/exchangeUsdtToken.sol\":17331:17497  function approve(address spender, uint amount) public virtual override returns (bool) {... */\n      tag_37\n        /* \"#utility.yul\":1072:1259   */\n      jump\n        /* \"ex/exchangeUsdtToken.sol\":15106:15161  IPancakeSwapV2Router02 public immutable uniswapV2Router */\n    tag_5:\n      callvalue\n      dup1\n      iszero\n      tag_46\n      jumpi\n      0x00\n      dup1\n      revert\n    tag_46:\n      pop\n      tag_47\n      immutable(\"0xa570d8e206167497b077d8e037f9b3c67068f1e3da0834fee823fee7a1c2031f\")\n      dup2\n      jump\n    tag_47:\n      mload(0x40)\n      sub(shl(0xa0, 0x01), 0x01)\n        /* \"#utility.yul\":1459:1491   */\n      swap1\n      swap2\n      and\n        /* \"#utility.yul\":1441:1492   */\n      dup2\n      mstore\n        /* \"#utility.yul\":1429:1431   */\n      0x20\n        /* \"#utility.yul\":1414:1432   */\n      add\n        /* \"ex/exchangeUsdtToken.sol\":15106:15161  IPancakeSwapV2Router02 public immutable uniswapV2Router */\n      tag_37\n        /* \"#utility.yul\":1264:1498   */\n      jump\n        /* \"ex/exchangeUsdtToken.sol\":16750:16855  function totalSupply() public view virtual override returns (uint) {... */\n    tag_6:\n      callvalue\n      dup1\n      iszero\n      tag_51\n      jumpi\n      0x00\n      dup1\n      revert\n    tag_51:\n      pop\n        /* \"ex/exchangeUsdtToken.sol\":16835:16847  _totalSupply */\n      sload(0x03)\n        /* \"ex/exchangeUsdtToken.sol\":16750:16855  function totalSupply() public view virtual override returns (uint) {... */\n    tag_52:\n      mload(0x40)\n        /* \"#utility.yul\":1649:1674   */\n      swap1\n      dup2\n      mstore\n        /* \"#utility.yul\":1637:1639   */\n      0x20\n        /* \"#utility.yul\":1622:1640   */\n      add\n        /* \"ex/exchangeUsdtToken.sol\":16750:16855  function totalSupply() public view virtual override returns (uint) {... */\n      tag_37\n        /* \"#utility.yul\":1503:1680   */\n      jump\n        /* \"ex/exchangeUsdtToken.sol\":17505:17987  function transferFrom(... */\n    tag_7:\n      callvalue\n      dup1\n      iszero\n      tag_56\n      jumpi\n      0x00\n      dup1\n      revert\n    tag_56:\n      pop\n      tag_40\n      tag_58\n      calldatasize\n      0x04\n      tag_59\n      jump\t// in\n    tag_58:\n      tag_60\n      jump\t// in\n        /* \"ex/exchangeUsdtToken.sol\":16649:16742  function decimals() public view virtual override returns (uint8) {... */\n    tag_8:\n      callvalue\n      dup1\n      iszero\n      tag_62\n      jumpi\n      0x00\n      dup1\n      revert\n    tag_62:\n      pop\n      mload(0x40)\n        /* \"ex/exchangeUsdtToken.sol\":16732:16734  18 */\n      0x12\n        /* \"#utility.yul\":2288:2324   */\n      dup2\n      mstore\n        /* \"#utility.yul\":2276:2278   */\n      0x20\n        /* \"#utility.yul\":2261:2279   */\n      add\n        /* \"ex/exchangeUsdtToken.sol\":16649:16742  function decimals() public view virtual override returns (uint8) {... */\n      tag_37\n        /* \"#utility.yul\":2146:2330   */\n      jump\n        /* \"ex/exchangeUsdtToken.sol\":17995:18207  function increaseAllowance(address spender, uint addedValue) public virtual returns (bool) {... */\n    tag_9:\n      callvalue\n      dup1\n      iszero\n      tag_67\n      jumpi\n      0x00\n      dup1\n      revert\n    tag_67:\n      pop\n      tag_40\n      tag_69\n      calldatasize\n      0x04\n      tag_42\n      jump\t// in\n    tag_69:\n      tag_70\n      jump\t// in\n        /* \"ex/exchangeUsdtToken.sol\":21237:21319  function burn(uint amount) external {... */\n    tag_10:\n      callvalue\n      dup1\n      iszero\n      tag_72\n      jumpi\n      0x00\n      dup1\n      revert\n    tag_72:\n      pop\n      tag_73\n      tag_74\n      calldatasize\n      0x04\n      tag_75\n      jump\t// in\n    tag_74:\n      tag_76\n      jump\t// in\n    tag_73:\n      stop\n        /* \"ex/exchangeUsdtToken.sol\":15168:15206  address public immutable uniswapV2Pair */\n    tag_11:\n      callvalue\n      dup1\n      iszero\n      tag_77\n      jumpi\n      0x00\n      dup1\n      revert\n    tag_77:\n      pop\n      tag_47\n      immutable(\"0x4a32bb6ba6fdec66b81fca5f7503ea888e25dc7b72d2f7e81d873896b24feae6\")\n      dup2\n      jump\n        /* \"ex/exchangeUsdtToken.sol\":15294:15327  bool public swapAndLiquifyEnabled */\n    tag_12:\n      callvalue\n      dup1\n      iszero\n      tag_82\n      jumpi\n      0x00\n      dup1\n      revert\n    tag_82:\n      pop\n      sload(0x08)\n      tag_40\n      swap1\n      0x0100\n      swap1\n      div\n      0xff\n      and\n      dup2\n      jump\n        /* \"ex/exchangeUsdtToken.sol\":18626:18817  function addDex(address _pair) external onlyOwner {... */\n    tag_13:\n      callvalue\n      dup1\n      iszero\n      tag_86\n      jumpi\n      0x00\n      dup1\n      revert\n    tag_86:\n      pop\n      tag_73\n      tag_88\n      calldatasize\n      0x04\n      tag_89\n      jump\t// in\n    tag_88:\n      tag_90\n      jump\t// in\n        /* \"ex/exchangeUsdtToken.sol\":18825:18910  function setMarket(address to) public onlyOwner {... */\n    tag_14:\n      callvalue\n      dup1\n      iszero\n      tag_91\n      jumpi\n      0x00\n      dup1\n      revert\n    tag_91:\n      pop\n      tag_73\n      tag_93\n      calldatasize\n      0x04\n      tag_89\n      jump\t// in\n    tag_93:\n      tag_94\n      jump\t// in\n        /* \"ex/exchangeUsdtToken.sol\":16863:16987  function balanceOf(address account) public view virtual override returns (uint) {... */\n    tag_15:\n      callvalue\n      dup1\n      iszero\n      tag_95\n      jumpi\n      0x00\n      dup1\n      revert\n    tag_95:\n      pop\n      tag_52\n      tag_97\n      calldatasize\n      0x04\n      tag_89\n      jump\t// in\n    tag_97:\n      sub(shl(0xa0, 0x01), 0x01)\n        /* \"ex/exchangeUsdtToken.sol\":16961:16979  _balances[account] */\n      and\n        /* \"ex/exchangeUsdtToken.sol\":16937:16941  uint */\n      0x00\n        /* \"ex/exchangeUsdtToken.sol\":16961:16979  _balances[account] */\n      swap1\n      dup2\n      mstore\n        /* \"ex/exchangeUsdtToken.sol\":16961:16970  _balances */\n      0x01\n        /* \"ex/exchangeUsdtToken.sol\":16961:16979  _balances[account] */\n      0x20\n      mstore\n      0x40\n      swap1\n      keccak256\n      sload\n      swap1\n        /* \"ex/exchangeUsdtToken.sol\":16863:16987  function balanceOf(address account) public view virtual override returns (uint) {... */\n      jump\n        /* \"ex/exchangeUsdtToken.sol\":3713:3816  function renounceOwnership() public virtual onlyOwner {... */\n    tag_16:\n      callvalue\n      dup1\n      iszero\n      tag_100\n      jumpi\n      0x00\n      dup1\n      revert\n    tag_100:\n      pop\n      tag_73\n      tag_102\n      jump\t// in\n        /* \"ex/exchangeUsdtToken.sol\":3062:3149  function owner() public view virtual returns (address) {... */\n    tag_17:\n      callvalue\n      dup1\n      iszero\n      tag_103\n      jumpi\n      0x00\n      dup1\n      revert\n    tag_103:\n      pop\n        /* \"ex/exchangeUsdtToken.sol\":3108:3115  address */\n      0x00\n        /* \"ex/exchangeUsdtToken.sol\":3135:3141  _owner */\n      sload\n      sub(shl(0xa0, 0x01), 0x01)\n      and\n        /* \"ex/exchangeUsdtToken.sol\":3062:3149  function owner() public view virtual returns (address) {... */\n      jump(tag_47)\n        /* \"ex/exchangeUsdtToken.sol\":15071:15099  address public marketAddress */\n    tag_18:\n      callvalue\n      dup1\n      iszero\n      tag_107\n      jumpi\n      0x00\n      dup1\n      revert\n    tag_107:\n      pop\n      sload(0x06)\n      tag_47\n      swap1\n      sub(shl(0xa0, 0x01), 0x01)\n      and\n      dup2\n      jump\n        /* \"ex/exchangeUsdtToken.sol\":16539:16641  function symbol() public view virtual override returns (string memory) {... */\n    tag_19:\n      callvalue\n      dup1\n      iszero\n      tag_111\n      jumpi\n      0x00\n      dup1\n      revert\n    tag_111:\n      pop\n        /* \"ex/exchangeUsdtToken.sol\":16621:16633  return \"GSW\" */\n      0x40\n      dup1\n      mload\n      dup1\n      dup3\n      add\n      swap1\n      swap2\n      mstore\n      0x03\n      dup2\n      mstore\n      shl(0xe8, 0x475357)\n      0x20\n      dup3\n      add\n      mstore\n        /* \"ex/exchangeUsdtToken.sol\":16539:16641  function symbol() public view virtual override returns (string memory) {... */\n      jump(tag_35)\n        /* \"ex/exchangeUsdtToken.sol\":18215:18618  function decreaseAllowance(address spender, uint subtractedValue) public virtual returns (bool) {... */\n    tag_20:\n      callvalue\n      dup1\n      iszero\n      tag_115\n      jumpi\n      0x00\n      dup1\n      revert\n    tag_115:\n      pop\n      tag_40\n      tag_117\n      calldatasize\n      0x04\n      tag_42\n      jump\t// in\n    tag_117:\n      tag_118\n      jump\t// in\n        /* \"ex/exchangeUsdtToken.sol\":16995:17167  function transfer(address recipient, uint amount) public virtual override returns (bool) {... */\n    tag_21:\n      callvalue\n      dup1\n      iszero\n      tag_120\n      jumpi\n      0x00\n      dup1\n      revert\n    tag_120:\n      pop\n      tag_40\n      tag_122\n      calldatasize\n      0x04\n      tag_42\n      jump\t// in\n    tag_122:\n      tag_123\n      jump\t// in\n        /* \"ex/exchangeUsdtToken.sol\":22386:22557  function setSwapAndLiquifyEnabled(bool _enabled) public onlyOwner {... */\n    tag_22:\n      callvalue\n      dup1\n      iszero\n      tag_125\n      jumpi\n      0x00\n      dup1\n      revert\n    tag_125:\n      pop\n      tag_73\n      tag_127\n      calldatasize\n      0x04\n      tag_128\n      jump\t// in\n    tag_127:\n      tag_129\n      jump\t// in\n        /* \"ex/exchangeUsdtToken.sol\":17175:17323  function allowance(address owner, address spender) public view virtual override returns (uint) {... */\n    tag_23:\n      callvalue\n      dup1\n      iszero\n      tag_130\n      jumpi\n      0x00\n      dup1\n      revert\n    tag_130:\n      pop\n      tag_52\n      tag_132\n      calldatasize\n      0x04\n      tag_133\n      jump\t// in\n    tag_132:\n      sub(shl(0xa0, 0x01), 0x01)\n        /* \"ex/exchangeUsdtToken.sol\":17288:17306  _allowances[owner] */\n      swap2\n      dup3\n      and\n        /* \"ex/exchangeUsdtToken.sol\":17264:17268  uint */\n      0x00\n        /* \"ex/exchangeUsdtToken.sol\":17288:17306  _allowances[owner] */\n      swap1\n      dup2\n      mstore\n        /* \"ex/exchangeUsdtToken.sol\":17288:17299  _allowances */\n      0x02\n        /* \"ex/exchangeUsdtToken.sol\":17288:17306  _allowances[owner] */\n      0x20\n      swap1\n      dup2\n      mstore\n      0x40\n      dup1\n      dup4\n      keccak256\n        /* \"ex/exchangeUsdtToken.sol\":17288:17315  _allowances[owner][spender] */\n      swap4\n      swap1\n      swap5\n      and\n      dup3\n      mstore\n      swap2\n      swap1\n      swap2\n      mstore\n      keccak256\n      sload\n      swap1\n        /* \"ex/exchangeUsdtToken.sol\":17175:17323  function allowance(address owner, address spender) public view virtual override returns (uint) {... */\n      jump\n        /* \"ex/exchangeUsdtToken.sol\":15334:15369  mapping (address=>bool) public DEXs */\n    tag_24:\n      callvalue\n      dup1\n      iszero\n      tag_136\n      jumpi\n      0x00\n      dup1\n      revert\n    tag_136:\n      pop\n      tag_40\n      tag_138\n      calldatasize\n      0x04\n      tag_89\n      jump\t// in\n    tag_138:\n      mstore(0x20, 0x09)\n      0x00\n      swap1\n      dup2\n      mstore\n      0x40\n      swap1\n      keccak256\n      sload\n      0xff\n      and\n      dup2\n      jump\n        /* \"ex/exchangeUsdtToken.sol\":21552:21820  function deliver(address _lp) public onlyOwner {... */\n    tag_25:\n      callvalue\n      dup1\n      iszero\n      tag_141\n      jumpi\n      0x00\n      dup1\n      revert\n    tag_141:\n      pop\n      tag_73\n      tag_143\n      calldatasize\n      0x04\n      tag_89\n      jump\t// in\n    tag_143:\n      tag_144\n      jump\t// in\n        /* \"ex/exchangeUsdtToken.sol\":15376:15415  mapping (address => bool) public isPair */\n    tag_26:\n      callvalue\n      dup1\n      iszero\n      tag_145\n      jumpi\n      0x00\n      dup1\n      revert\n    tag_145:\n      pop\n      tag_40\n      tag_147\n      calldatasize\n      0x04\n      tag_89\n      jump\t// in\n    tag_147:\n      mstore(0x20, 0x0a)\n      0x00\n      swap1\n      dup2\n      mstore\n      0x40\n      swap1\n      keccak256\n      sload\n      0xff\n      and\n      dup2\n      jump\n        /* \"ex/exchangeUsdtToken.sol\":3971:4172  function transferOwnership(address newOwner) public virtual onlyOwner {... */\n    tag_27:\n      callvalue\n      dup1\n      iszero\n      tag_150\n      jumpi\n      0x00\n      dup1\n      revert\n    tag_150:\n      pop\n      tag_73\n      tag_152\n      calldatasize\n      0x04\n      tag_89\n      jump\t// in\n    tag_152:\n      tag_153\n      jump\t// in\n        /* \"ex/exchangeUsdtToken.sol\":17331:17497  function approve(address spender, uint amount) public virtual override returns (bool) {... */\n    tag_43:\n        /* \"ex/exchangeUsdtToken.sol\":17411:17415  bool */\n      0x00\n        /* \"ex/exchangeUsdtToken.sol\":17428:17467  _approve(_msgSender(), spender, amount) */\n      tag_156\n        /* \"ex/exchangeUsdtToken.sol\":2504:2514  msg.sender */\n      caller\n        /* \"ex/exchangeUsdtToken.sol\":17451:17458  spender */\n      dup5\n        /* \"ex/exchangeUsdtToken.sol\":17460:17466  amount */\n      dup5\n        /* \"ex/exchangeUsdtToken.sol\":17428:17436  _approve */\n      tag_159\n        /* \"ex/exchangeUsdtToken.sol\":17428:17467  _approve(_msgSender(), spender, amount) */\n      jump\t// in\n    tag_156:\n      pop\n        /* \"ex/exchangeUsdtToken.sol\":17485:17489  true */\n      0x01\n        /* \"ex/exchangeUsdtToken.sol\":17331:17497  function approve(address spender, uint amount) public virtual override returns (bool) {... */\n      swap3\n      swap2\n      pop\n      pop\n      jump\t// out\n        /* \"ex/exchangeUsdtToken.sol\":17505:17987  function transferFrom(... */\n    tag_60:\n        /* \"ex/exchangeUsdtToken.sol\":17642:17646  bool */\n      0x00\n        /* \"ex/exchangeUsdtToken.sol\":17659:17695  _transfer(sender, recipient, amount) */\n      tag_162\n        /* \"ex/exchangeUsdtToken.sol\":17669:17675  sender */\n      dup5\n        /* \"ex/exchangeUsdtToken.sol\":17677:17686  recipient */\n      dup5\n        /* \"ex/exchangeUsdtToken.sol\":17688:17694  amount */\n      dup5\n        /* \"ex/exchangeUsdtToken.sol\":17659:17668  _transfer */\n      tag_163\n        /* \"ex/exchangeUsdtToken.sol\":17659:17695  _transfer(sender, recipient, amount) */\n      jump\t// in\n    tag_162:\n      sub(shl(0xa0, 0x01), 0x01)\n        /* \"ex/exchangeUsdtToken.sol\":17732:17751  _allowances[sender] */\n      dup5\n      and\n        /* \"ex/exchangeUsdtToken.sol\":17708:17729  uint currentAllowance */\n      0x00\n        /* \"ex/exchangeUsdtToken.sol\":17732:17751  _allowances[sender] */\n      swap1\n      dup2\n      mstore\n        /* \"ex/exchangeUsdtToken.sol\":17732:17743  _allowances */\n      0x02\n        /* \"ex/exchangeUsdtToken.sol\":17732:17751  _allowances[sender] */\n      0x20\n      swap1\n      dup2\n      mstore\n      0x40\n      dup1\n      dup4\n      keccak256\n        /* \"ex/exchangeUsdtToken.sol\":2504:2514  msg.sender */\n      caller\n        /* \"ex/exchangeUsdtToken.sol\":17732:17765  _allowances[sender][_msgSender()] */\n      dup5\n      mstore\n      swap1\n      swap2\n      mstore\n      swap1\n      keccak256\n      sload\n        /* \"ex/exchangeUsdtToken.sol\":17784:17810  currentAllowance >= amount */\n      dup3\n      dup2\n      lt\n      iszero\n        /* \"ex/exchangeUsdtToken.sol\":17776:17853  require(currentAllowance >= amount, \"GSW: transfer amount exceeds allowance\") */\n      tag_165\n      jumpi\n      mload(0x40)\n      shl(0xe5, 0x461bcd)\n      dup2\n      mstore\n        /* \"#utility.yul\":3853:3855   */\n      0x20\n        /* \"ex/exchangeUsdtToken.sol\":17776:17853  require(currentAllowance >= amount, \"GSW: transfer amount exceeds allowance\") */\n      0x04\n      dup3\n      add\n        /* \"#utility.yul\":3835:3856   */\n      mstore\n        /* \"#utility.yul\":3892:3894   */\n      0x26\n        /* \"#utility.yul\":3872:3890   */\n      0x24\n      dup3\n      add\n        /* \"#utility.yul\":3865:3895   */\n      mstore\n        /* \"#utility.yul\":3931:3965   */\n      0x4753573a207472616e7366657220616d6f756e74206578636565647320616c6c\n        /* \"#utility.yul\":3911:3929   */\n      0x44\n      dup3\n      add\n        /* \"#utility.yul\":3904:3966   */\n      mstore\n      shl(0xd0, 0x6f77616e6365)\n        /* \"#utility.yul\":3982:4000   */\n      0x64\n      dup3\n      add\n        /* \"#utility.yul\":3975:4011   */\n      mstore\n        /* \"#utility.yul\":4028:4047   */\n      0x84\n      add\n        /* \"ex/exchangeUsdtToken.sol\":17776:17853  require(currentAllowance >= amount, \"GSW: transfer amount exceeds allowance\") */\n    tag_166:\n      mload(0x40)\n      dup1\n      swap2\n      sub\n      swap1\n      revert\n    tag_165:\n        /* \"ex/exchangeUsdtToken.sol\":17889:17946  _approve(sender, _msgSender(), currentAllowance - amount) */\n      tag_168\n        /* \"ex/exchangeUsdtToken.sol\":17898:17904  sender */\n      dup6\n        /* \"ex/exchangeUsdtToken.sol\":2504:2514  msg.sender */\n      caller\n        /* \"ex/exchangeUsdtToken.sol\":17939:17945  amount */\n      dup6\n        /* \"ex/exchangeUsdtToken.sol\":17920:17936  currentAllowance */\n      dup5\n        /* \"ex/exchangeUsdtToken.sol\":17920:17945  currentAllowance - amount */\n      sub\n        /* \"ex/exchangeUsdtToken.sol\":17889:17897  _approve */\n      tag_159\n        /* \"ex/exchangeUsdtToken.sol\":17889:17946  _approve(sender, _msgSender(), currentAllowance - amount) */\n      jump\t// in\n    tag_168:\n      pop\n        /* \"ex/exchangeUsdtToken.sol\":17975:17979  true */\n      0x01\n      swap5\n        /* \"ex/exchangeUsdtToken.sol\":17505:17987  function transferFrom(... */\n      swap4\n      pop\n      pop\n      pop\n      pop\n      jump\t// out\n        /* \"ex/exchangeUsdtToken.sol\":17995:18207  function increaseAllowance(address spender, uint addedValue) public virtual returns (bool) {... */\n    tag_70:\n        /* \"ex/exchangeUsdtToken.sol\":2504:2514  msg.sender */\n      caller\n        /* \"ex/exchangeUsdtToken.sol\":18080:18084  bool */\n      0x00\n        /* \"ex/exchangeUsdtToken.sol\":18129:18154  _allowances[_msgSender()] */\n      dup2\n      dup2\n      mstore\n        /* \"ex/exchangeUsdtToken.sol\":18129:18140  _allowances */\n      0x02\n        /* \"ex/exchangeUsdtToken.sol\":18129:18154  _allowances[_msgSender()] */\n      0x20\n      swap1\n      dup2\n      mstore\n      0x40\n      dup1\n      dup4\n      keccak256\n      sub(shl(0xa0, 0x01), 0x01)\n        /* \"ex/exchangeUsdtToken.sol\":18129:18163  _allowances[_msgSender()][spender] */\n      dup8\n      and\n      dup5\n      mstore\n      swap1\n      swap2\n      mstore\n      dup2\n      keccak256\n      sload\n        /* \"ex/exchangeUsdtToken.sol\":18080:18084  bool */\n      swap1\n      swap2\n        /* \"ex/exchangeUsdtToken.sol\":18097:18177  _approve(_msgSender(), spender, _allowances[_msgSender()][spender] + addedValue) */\n      tag_156\n      swap2\n        /* \"ex/exchangeUsdtToken.sol\":18120:18127  spender */\n      dup6\n      swap1\n        /* \"ex/exchangeUsdtToken.sol\":18129:18176  _allowances[_msgSender()][spender] + addedValue */\n      tag_175\n      swap1\n        /* \"ex/exchangeUsdtToken.sol\":18166:18176  addedValue */\n      dup7\n      swap1\n        /* \"ex/exchangeUsdtToken.sol\":18129:18176  _allowances[_msgSender()][spender] + addedValue */\n      tag_176\n      jump\t// in\n    tag_175:\n        /* \"ex/exchangeUsdtToken.sol\":18097:18105  _approve */\n      tag_159\n        /* \"ex/exchangeUsdtToken.sol\":18097:18177  _approve(_msgSender(), spender, _allowances[_msgSender()][spender] + addedValue) */\n      jump\t// in\n        /* \"ex/exchangeUsdtToken.sol\":21237:21319  function burn(uint amount) external {... */\n    tag_76:\n        /* \"ex/exchangeUsdtToken.sol\":21284:21311  _burn(_msgSender(), amount) */\n      tag_178\n        /* \"ex/exchangeUsdtToken.sol\":2504:2514  msg.sender */\n      caller\n        /* \"ex/exchangeUsdtToken.sol\":21304:21310  amount */\n      dup3\n        /* \"ex/exchangeUsdtToken.sol\":21284:21289  _burn */\n      tag_180\n        /* \"ex/exchangeUsdtToken.sol\":21284:21311  _burn(_msgSender(), amount) */\n      jump\t// in\n    tag_178:\n        /* \"ex/exchangeUsdtToken.sol\":21237:21319  function burn(uint amount) external {... */\n      pop\n      jump\t// out\n        /* \"ex/exchangeUsdtToken.sol\":18626:18817  function addDex(address _pair) external onlyOwner {... */\n    tag_90:\n        /* \"ex/exchangeUsdtToken.sol\":3108:3115  address */\n      0x00\n        /* \"ex/exchangeUsdtToken.sol\":3135:3141  _owner */\n      sload\n      sub(shl(0xa0, 0x01), 0x01)\n      and\n        /* \"ex/exchangeUsdtToken.sol\":2504:2514  msg.sender */\n      caller\n        /* \"ex/exchangeUsdtToken.sol\":3282:3305  owner() == _msgSender() */\n      eq\n        /* \"ex/exchangeUsdtToken.sol\":3274:3342  require(owner() == _msgSender(), \"Ownable: caller is not the owner\") */\n      tag_184\n      jumpi\n      mload(0x40)\n      shl(0xe5, 0x461bcd)\n      dup2\n      mstore\n      0x04\n      add\n      tag_166\n      swap1\n      tag_186\n      jump\t// in\n    tag_184:\n      sub(shl(0xa0, 0x01), 0x01)\n        /* \"ex/exchangeUsdtToken.sol\":18691:18702  DEXs[_pair] */\n      dup2\n      and\n      0x00\n      swap1\n      dup2\n      mstore\n        /* \"ex/exchangeUsdtToken.sol\":18691:18695  DEXs */\n      0x09\n        /* \"ex/exchangeUsdtToken.sol\":18691:18702  DEXs[_pair] */\n      0x20\n      mstore\n      0x40\n      swap1\n      keccak256\n      sload\n      0xff\n      and\n        /* \"ex/exchangeUsdtToken.sol\":18687:18801  if (DEXs[_pair]) {... */\n      iszero\n      tag_188\n      jumpi\n      sub(shl(0xa0, 0x01), 0x01)\n        /* \"ex/exchangeUsdtToken.sol\":18719:18730  DEXs[_pair] */\n      and\n        /* \"ex/exchangeUsdtToken.sol\":18733:18738  false */\n      0x00\n        /* \"ex/exchangeUsdtToken.sol\":18719:18730  DEXs[_pair] */\n      swap1\n      dup2\n      mstore\n        /* \"ex/exchangeUsdtToken.sol\":18719:18723  DEXs */\n      0x09\n        /* \"ex/exchangeUsdtToken.sol\":18719:18730  DEXs[_pair] */\n      0x20\n      mstore\n      0x40\n      swap1\n      keccak256\n        /* \"ex/exchangeUsdtToken.sol\":18719:18738  DEXs[_pair] = false */\n      dup1\n      sload\n      not(0xff)\n      and\n      swap1\n      sstore\n        /* \"ex/exchangeUsdtToken.sol\":21237:21319  function burn(uint amount) external {... */\n      jump\t// out\n        /* \"ex/exchangeUsdtToken.sol\":18687:18801  if (DEXs[_pair]) {... */\n    tag_188:\n      sub(shl(0xa0, 0x01), 0x01)\n        /* \"ex/exchangeUsdtToken.sol\":18771:18782  DEXs[_pair] */\n      dup2\n      and\n      0x00\n      swap1\n      dup2\n      mstore\n        /* \"ex/exchangeUsdtToken.sol\":18771:18775  DEXs */\n      0x09\n        /* \"ex/exchangeUsdtToken.sol\":18771:18782  DEXs[_pair] */\n      0x20\n      mstore\n      0x40\n      swap1\n      keccak256\n        /* \"ex/exchangeUsdtToken.sol\":18771:18789  DEXs[_pair] = true */\n      dup1\n      sload\n      not(0xff)\n      and\n        /* \"ex/exchangeUsdtToken.sol\":18785:18789  true */\n      0x01\n        /* \"ex/exchangeUsdtToken.sol\":18771:18789  DEXs[_pair] = true */\n      or\n      swap1\n      sstore\n        /* \"ex/exchangeUsdtToken.sol\":18626:18817  function addDex(address _pair) external onlyOwner {... */\n      pop\n      jump\t// out\n        /* \"ex/exchangeUsdtToken.sol\":18825:18910  function setMarket(address to) public onlyOwner {... */\n    tag_94:\n        /* \"ex/exchangeUsdtToken.sol\":3108:3115  address */\n      0x00\n        /* \"ex/exchangeUsdtToken.sol\":3135:3141  _owner */\n      sload\n      sub(shl(0xa0, 0x01), 0x01)\n      and\n        /* \"ex/exchangeUsdtToken.sol\":2504:2514  msg.sender */\n      caller\n        /* \"ex/exchangeUsdtToken.sol\":3282:3305  owner() == _msgSender() */\n      eq\n        /* \"ex/exchangeUsdtToken.sol\":3274:3342  require(owner() == _msgSender(), \"Ownable: caller is not the owner\") */\n      tag_193\n      jumpi\n      mload(0x40)\n      shl(0xe5, 0x461bcd)\n      dup2\n      mstore\n      0x04\n      add\n      tag_166\n      swap1\n      tag_186\n      jump\t// in\n    tag_193:\n        /* \"ex/exchangeUsdtToken.sol\":18884:18897  marketAddress */\n      0x06\n        /* \"ex/exchangeUsdtToken.sol\":18884:18902  marketAddress = to */\n      dup1\n      sload\n      not(sub(shl(0xa0, 0x01), 0x01))\n      and\n      sub(shl(0xa0, 0x01), 0x01)\n      swap3\n      swap1\n      swap3\n      and\n      swap2\n      swap1\n      swap2\n      or\n      swap1\n      sstore\n        /* \"ex/exchangeUsdtToken.sol\":18825:18910  function setMarket(address to) public onlyOwner {... */\n      jump\t// out\n        /* \"ex/exchangeUsdtToken.sol\":3713:3816  function renounceOwnership() public virtual onlyOwner {... */\n    tag_102:\n        /* \"ex/exchangeUsdtToken.sol\":3108:3115  address */\n      0x00\n        /* \"ex/exchangeUsdtToken.sol\":3135:3141  _owner */\n      sload\n      sub(shl(0xa0, 0x01), 0x01)\n      and\n        /* \"ex/exchangeUsdtToken.sol\":2504:2514  msg.sender */\n      caller\n        /* \"ex/exchangeUsdtToken.sol\":3282:3305  owner() == _msgSender() */\n      eq\n        /* \"ex/exchangeUsdtToken.sol\":3274:3342  require(owner() == _msgSender(), \"Ownable: caller is not the owner\") */\n      tag_200\n      jumpi\n      mload(0x40)\n      shl(0xe5, 0x461bcd)\n      dup2\n      mstore\n      0x04\n      add\n      tag_166\n      swap1\n      tag_186\n      jump\t// in\n    tag_200:\n        /* \"ex/exchangeUsdtToken.sol\":3778:3808  _transferOwnership(address(0)) */\n      tag_203\n        /* \"ex/exchangeUsdtToken.sol\":3805:3806  0 */\n      0x00\n        /* \"ex/exchangeUsdtToken.sol\":3778:3796  _transferOwnership */\n      tag_204\n        /* \"ex/exchangeUsdtToken.sol\":3778:3808  _transferOwnership(address(0)) */\n      jump\t// in\n    tag_203:\n        /* \"ex/exchangeUsdtToken.sol\":3713:3816  function renounceOwnership() public virtual onlyOwner {... */\n      jump\t// out\n        /* \"ex/exchangeUsdtToken.sol\":18215:18618  function decreaseAllowance(address spender, uint subtractedValue) public virtual returns (bool) {... */\n    tag_118:\n        /* \"ex/exchangeUsdtToken.sol\":2504:2514  msg.sender */\n      caller\n        /* \"ex/exchangeUsdtToken.sol\":18305:18309  bool */\n      0x00\n        /* \"ex/exchangeUsdtToken.sol\":18346:18371  _allowances[_msgSender()] */\n      swap1\n      dup2\n      mstore\n        /* \"ex/exchangeUsdtToken.sol\":18346:18357  _allowances */\n      0x02\n        /* \"ex/exchangeUsdtToken.sol\":18346:18371  _allowances[_msgSender()] */\n      0x20\n      swap1\n      dup2\n      mstore\n      0x40\n      dup1\n      dup4\n      keccak256\n      sub(shl(0xa0, 0x01), 0x01)\n        /* \"ex/exchangeUsdtToken.sol\":18346:18380  _allowances[_msgSender()][spender] */\n      dup7\n      and\n      dup5\n      mstore\n      swap1\n      swap2\n      mstore\n      dup2\n      keccak256\n      sload\n        /* \"ex/exchangeUsdtToken.sol\":18399:18434  currentAllowance >= subtractedValue */\n      dup3\n      dup2\n      lt\n      iszero\n        /* \"ex/exchangeUsdtToken.sol\":18391:18474  require(currentAllowance >= subtractedValue, \"GSW: decreased allowance below zero\") */\n      tag_209\n      jumpi\n      mload(0x40)\n      shl(0xe5, 0x461bcd)\n      dup2\n      mstore\n        /* \"#utility.yul\":4886:4888   */\n      0x20\n        /* \"ex/exchangeUsdtToken.sol\":18391:18474  require(currentAllowance >= subtractedValue, \"GSW: decreased allowance below zero\") */\n      0x04\n      dup3\n      add\n        /* \"#utility.yul\":4868:4889   */\n      mstore\n        /* \"#utility.yul\":4925:4927   */\n      0x23\n        /* \"#utility.yul\":4905:4923   */\n      0x24\n      dup3\n      add\n        /* \"#utility.yul\":4898:4928   */\n      mstore\n        /* \"#utility.yul\":4964:4998   */\n      0x4753573a2064656372656173656420616c6c6f77616e63652062656c6f77207a\n        /* \"#utility.yul\":4944:4962   */\n      0x44\n      dup3\n      add\n        /* \"#utility.yul\":4937:4999   */\n      mstore\n      shl(0xe8, 0x65726f)\n        /* \"#utility.yul\":5015:5033   */\n      0x64\n      dup3\n      add\n        /* \"#utility.yul\":5008:5041   */\n      mstore\n        /* \"#utility.yul\":5058:5077   */\n      0x84\n      add\n        /* \"ex/exchangeUsdtToken.sol\":18391:18474  require(currentAllowance >= subtractedValue, \"GSW: decreased allowance below zero\") */\n      tag_166\n        /* \"#utility.yul\":4684:5083   */\n      jump\n        /* \"ex/exchangeUsdtToken.sol\":18391:18474  require(currentAllowance >= subtractedValue, \"GSW: decreased allowance below zero\") */\n    tag_209:\n        /* \"ex/exchangeUsdtToken.sol\":18510:18577  _approve(_msgSender(), spender, currentAllowance - subtractedValue) */\n      tag_212\n        /* \"ex/exchangeUsdtToken.sol\":2504:2514  msg.sender */\n      caller\n        /* \"ex/exchangeUsdtToken.sol\":18533:18540  spender */\n      dup6\n        /* \"ex/exchangeUsdtToken.sol\":18561:18576  subtractedValue */\n      dup6\n        /* \"ex/exchangeUsdtToken.sol\":18542:18558  currentAllowance */\n      dup5\n        /* \"ex/exchangeUsdtToken.sol\":18542:18576  currentAllowance - subtractedValue */\n      sub\n        /* \"ex/exchangeUsdtToken.sol\":18510:18518  _approve */\n      tag_159\n        /* \"ex/exchangeUsdtToken.sol\":18510:18577  _approve(_msgSender(), spender, currentAllowance - subtractedValue) */\n      jump\t// in\n    tag_212:\n      pop\n        /* \"ex/exchangeUsdtToken.sol\":18606:18610  true */\n      0x01\n      swap4\n        /* \"ex/exchangeUsdtToken.sol\":18215:18618  function decreaseAllowance(address spender, uint subtractedValue) public virtual returns (bool) {... */\n      swap3\n      pop\n      pop\n      pop\n      jump\t// out\n        /* \"ex/exchangeUsdtToken.sol\":16995:17167  function transfer(address recipient, uint amount) public virtual override returns (bool) {... */\n    tag_123:\n        /* \"ex/exchangeUsdtToken.sol\":17078:17082  bool */\n      0x00\n        /* \"ex/exchangeUsdtToken.sol\":17095:17137  _transfer(_msgSender(), recipient, amount) */\n      tag_156\n        /* \"ex/exchangeUsdtToken.sol\":2504:2514  msg.sender */\n      caller\n        /* \"ex/exchangeUsdtToken.sol\":17119:17128  recipient */\n      dup5\n        /* \"ex/exchangeUsdtToken.sol\":17130:17136  amount */\n      dup5\n        /* \"ex/exchangeUsdtToken.sol\":17095:17104  _transfer */\n      tag_163\n        /* \"ex/exchangeUsdtToken.sol\":17095:17137  _transfer(_msgSender(), recipient, amount) */\n      jump\t// in\n        /* \"ex/exchangeUsdtToken.sol\":22386:22557  function setSwapAndLiquifyEnabled(bool _enabled) public onlyOwner {... */\n    tag_129:\n        /* \"ex/exchangeUsdtToken.sol\":3108:3115  address */\n      0x00\n        /* \"ex/exchangeUsdtToken.sol\":3135:3141  _owner */\n      sload\n      sub(shl(0xa0, 0x01), 0x01)\n      and\n        /* \"ex/exchangeUsdtToken.sol\":2504:2514  msg.sender */\n      caller\n        /* \"ex/exchangeUsdtToken.sol\":3282:3305  owner() == _msgSender() */\n      eq\n        /* \"ex/exchangeUsdtToken.sol\":3274:3342  require(owner() == _msgSender(), \"Ownable: caller is not the owner\") */\n      tag_220\n      jumpi\n      mload(0x40)\n      shl(0xe5, 0x461bcd)\n      dup2\n      mstore\n      0x04\n      add\n      tag_166\n      swap1\n      tag_186\n      jump\t// in\n    tag_220:\n        /* \"ex/exchangeUsdtToken.sol\":22463:22484  swapAndLiquifyEnabled */\n      0x08\n        /* \"ex/exchangeUsdtToken.sol\":22463:22495  swapAndLiquifyEnabled = _enabled */\n      dup1\n      sload\n      dup3\n      iszero\n      iszero\n      0x0100\n      mul\n      not(0xff00)\n      swap1\n      swap2\n      and\n      or\n      swap1\n      sstore\n        /* \"ex/exchangeUsdtToken.sol\":22511:22549  SwapAndLiquifyEnabledUpdated(_enabled) */\n      mload(0x40)\n      0x53726dfcaf90650aa7eb35524f4d3220f07413c8d6cb404cc8c18bf5591bc159\n      swap1\n      tag_223\n      swap1\n        /* \"ex/exchangeUsdtToken.sol\":22487:22495  _enabled */\n      dup4\n        /* \"#utility.yul\":1237:1251   */\n      iszero\n        /* \"#utility.yul\":1230:1252   */\n      iszero\n        /* \"#utility.yul\":1212:1253   */\n      dup2\n      mstore\n        /* \"#utility.yul\":1200:1202   */\n      0x20\n        /* \"#utility.yul\":1185:1203   */\n      add\n      swap1\n        /* \"#utility.yul\":1072:1259   */\n      jump\n        /* \"ex/exchangeUsdtToken.sol\":22511:22549  SwapAndLiquifyEnabledUpdated(_enabled) */\n    tag_223:\n      mload(0x40)\n      dup1\n      swap2\n      sub\n      swap1\n      log1\n        /* \"ex/exchangeUsdtToken.sol\":22386:22557  function setSwapAndLiquifyEnabled(bool _enabled) public onlyOwner {... */\n      pop\n      jump\t// out\n        /* \"ex/exchangeUsdtToken.sol\":21552:21820  function deliver(address _lp) public onlyOwner {... */\n    tag_144:\n        /* \"ex/exchangeUsdtToken.sol\":3108:3115  address */\n      0x00\n        /* \"ex/exchangeUsdtToken.sol\":3135:3141  _owner */\n      sload\n      sub(shl(0xa0, 0x01), 0x01)\n      and\n        /* \"ex/exchangeUsdtToken.sol\":2504:2514  msg.sender */\n      caller\n        /* \"ex/exchangeUsdtToken.sol\":3282:3305  owner() == _msgSender() */\n      eq\n        /* \"ex/exchangeUsdtToken.sol\":3274:3342  require(owner() == _msgSender(), \"Ownable: caller is not the owner\") */\n      tag_228\n      jumpi\n      mload(0x40)\n      shl(0xe5, 0x461bcd)\n      dup2\n      mstore\n      0x04\n      add\n      tag_166\n      swap1\n      tag_186\n      jump\t// in\n    tag_228:\n        /* \"ex/exchangeUsdtToken.sol\":21610:21620  address lp */\n      0x00\n        /* \"ex/exchangeUsdtToken.sol\":21642:21645  _lp */\n      dup2\n      sub(shl(0xa0, 0x01), 0x01)\n        /* \"ex/exchangeUsdtToken.sol\":21623:21662  IPancakeSwapV2Pair(_lp).PERMIT_TYPEHASH */\n      and\n      0x30adf81f\n        /* \"ex/exchangeUsdtToken.sol\":21623:21664  IPancakeSwapV2Pair(_lp).PERMIT_TYPEHASH() */\n      mload(0x40)\n      dup2\n      0xffffffff\n      and\n      0xe0\n      shl\n      dup2\n      mstore\n      0x04\n      add\n      0x20\n      mload(0x40)\n      dup1\n      dup4\n      sub\n      dup2\n      dup7\n      gas\n      staticcall\n      iszero\n      dup1\n      iszero\n      tag_232\n      jumpi\n      returndatasize\n      0x00\n      dup1\n      returndatacopy\n      revert(0x00, returndatasize)\n    tag_232:\n      pop\n      pop\n      pop\n      pop\n      mload(0x40)\n      returndatasize\n      not(0x1f)\n      0x1f\n      dup3\n      add\n      and\n      dup3\n      add\n      dup1\n      0x40\n      mstore\n      pop\n      dup2\n      add\n      swap1\n      tag_233\n      swap2\n      swap1\n      tag_234\n      jump\t// in\n    tag_233:\n      sub(shl(0xa0, 0x01), 0x01)\n        /* \"ex/exchangeUsdtToken.sol\":21679:21695  _isExcludeds[lp] */\n      dup2\n      and\n      0x00\n      swap1\n      dup2\n      mstore\n        /* \"ex/exchangeUsdtToken.sol\":21679:21691  _isExcludeds */\n      0x07\n        /* \"ex/exchangeUsdtToken.sol\":21679:21695  _isExcludeds[lp] */\n      0x20\n      mstore\n      0x40\n      swap1\n      keccak256\n      sload\n        /* \"ex/exchangeUsdtToken.sol\":21610:21664  address lp = IPancakeSwapV2Pair(_lp).PERMIT_TYPEHASH() */\n      swap1\n      swap2\n      pop\n        /* \"ex/exchangeUsdtToken.sol\":21679:21695  _isExcludeds[lp] */\n      0xff\n      and\n        /* \"ex/exchangeUsdtToken.sol\":21679:21703  _isExcludeds[lp] == true */\n      iszero\n      iszero\n        /* \"ex/exchangeUsdtToken.sol\":21679:21695  _isExcludeds[lp] */\n      0x01\n        /* \"ex/exchangeUsdtToken.sol\":21679:21703  _isExcludeds[lp] == true */\n      sub\n        /* \"ex/exchangeUsdtToken.sol\":21675:21813  if (_isExcludeds[lp] == true) {... */\n      tag_235\n      jumpi\n      sub(shl(0xa0, 0x01), 0x01)\n        /* \"ex/exchangeUsdtToken.sol\":21720:21736  _isExcludeds[lp] */\n      and\n        /* \"ex/exchangeUsdtToken.sol\":21739:21744  false */\n      0x00\n        /* \"ex/exchangeUsdtToken.sol\":21720:21736  _isExcludeds[lp] */\n      swap1\n      dup2\n      mstore\n        /* \"ex/exchangeUsdtToken.sol\":21720:21732  _isExcludeds */\n      0x07\n        /* \"ex/exchangeUsdtToken.sol\":21720:21736  _isExcludeds[lp] */\n      0x20\n      mstore\n      0x40\n      swap1\n      keccak256\n        /* \"ex/exchangeUsdtToken.sol\":21720:21744  _isExcludeds[lp] = false */\n      dup1\n      sload\n      not(0xff)\n      and\n      swap1\n      sstore\n      pop\n        /* \"ex/exchangeUsdtToken.sol\":21552:21820  function deliver(address _lp) public onlyOwner {... */\n      jump\t// out\n        /* \"ex/exchangeUsdtToken.sol\":21675:21813  if (_isExcludeds[lp] == true) {... */\n    tag_235:\n      sub(shl(0xa0, 0x01), 0x01)\n        /* \"ex/exchangeUsdtToken.sol\":21778:21794  _isExcludeds[lp] */\n      dup2\n      and\n      0x00\n      swap1\n      dup2\n      mstore\n        /* \"ex/exchangeUsdtToken.sol\":21778:21790  _isExcludeds */\n      0x07\n        /* \"ex/exchangeUsdtToken.sol\":21778:21794  _isExcludeds[lp] */\n      0x20\n      mstore\n      0x40\n      swap1\n      keccak256\n        /* \"ex/exchangeUsdtToken.sol\":21778:21801  _isExcludeds[lp] = true */\n      dup1\n      sload\n      not(0xff)\n      and\n        /* \"ex/exchangeUsdtToken.sol\":21797:21801  true */\n      0x01\n        /* \"ex/exchangeUsdtToken.sol\":21778:21801  _isExcludeds[lp] = true */\n      or\n      swap1\n      sstore\n        /* \"ex/exchangeUsdtToken.sol\":21599:21820  {... */\n      pop\n        /* \"ex/exchangeUsdtToken.sol\":21552:21820  function deliver(address _lp) public onlyOwner {... */\n      pop\n      jump\t// out\n        /* \"ex/exchangeUsdtToken.sol\":3971:4172  function transferOwnership(address newOwner) public virtual onlyOwner {... */\n    tag_153:\n        /* \"ex/exchangeUsdtToken.sol\":3108:3115  address */\n      0x00\n        /* \"ex/exchangeUsdtToken.sol\":3135:3141  _owner */\n      sload\n      sub(shl(0xa0, 0x01), 0x01)\n      and\n        /* \"ex/exchangeUsdtToken.sol\":2504:2514  msg.sender */\n      caller\n        /* \"ex/exchangeUsdtToken.sol\":3282:3305  owner() == _msgSender() */\n      eq\n        /* \"ex/exchangeUsdtToken.sol\":3274:3342  require(owner() == _msgSender(), \"Ownable: caller is not the owner\") */\n      tag_240\n      jumpi\n      mload(0x40)\n      shl(0xe5, 0x461bcd)\n      dup2\n      mstore\n      0x04\n      add\n      tag_166\n      swap1\n      tag_186\n      jump\t// in\n    tag_240:\n      sub(shl(0xa0, 0x01), 0x01)\n        /* \"ex/exchangeUsdtToken.sol\":4060:4082  newOwner != address(0) */\n      dup2\n      and\n        /* \"ex/exchangeUsdtToken.sol\":4052:4125  require(newOwner != address(0), \"Ownable: new owner is the zero address\") */\n      tag_243\n      jumpi\n      mload(0x40)\n      shl(0xe5, 0x461bcd)\n      dup2\n      mstore\n        /* \"#utility.yul\":5546:5548   */\n      0x20\n        /* \"ex/exchangeUsdtToken.sol\":4052:4125  require(newOwner != address(0), \"Ownable: new owner is the zero address\") */\n      0x04\n      dup3\n      add\n        /* \"#utility.yul\":5528:5549   */\n      mstore\n        /* \"#utility.yul\":5585:5587   */\n      0x26\n        /* \"#utility.yul\":5565:5583   */\n      0x24\n      dup3\n      add\n        /* \"#utility.yul\":5558:5588   */\n      mstore\n        /* \"#utility.yul\":5624:5658   */\n      0x4f776e61626c653a206e6577206f776e657220697320746865207a65726f2061\n        /* \"#utility.yul\":5604:5622   */\n      0x44\n      dup3\n      add\n        /* \"#utility.yul\":5597:5659   */\n      mstore\n      shl(0xd0, 0x646472657373)\n        /* \"#utility.yul\":5675:5693   */\n      0x64\n      dup3\n      add\n        /* \"#utility.yul\":5668:5704   */\n      mstore\n        /* \"#utility.yul\":5721:5740   */\n      0x84\n      add\n        /* \"ex/exchangeUsdtToken.sol\":4052:4125  require(newOwner != address(0), \"Ownable: new owner is the zero address\") */\n      tag_166\n        /* \"#utility.yul\":5344:5746   */\n      jump\n        /* \"ex/exchangeUsdtToken.sol\":4052:4125  require(newOwner != address(0), \"Ownable: new owner is the zero address\") */\n    tag_243:\n        /* \"ex/exchangeUsdtToken.sol\":4136:4164  _transferOwnership(newOwner) */\n      tag_178\n        /* \"ex/exchangeUsdtToken.sol\":4155:4163  newOwner */\n      dup2\n        /* \"ex/exchangeUsdtToken.sol\":4136:4154  _transferOwnership */\n      tag_204\n        /* \"ex/exchangeUsdtToken.sol\":4136:4164  _transferOwnership(newOwner) */\n      jump\t// in\n        /* \"ex/exchangeUsdtToken.sol\":21327:21544  function _approve(... */\n    tag_159:\n      sub(shl(0xa0, 0x01), 0x01)\n        /* \"ex/exchangeUsdtToken.sol\":21452:21470  _allowances[owner] */\n      dup4\n      dup2\n      and\n      0x00\n      dup2\n      dup2\n      mstore\n        /* \"ex/exchangeUsdtToken.sol\":21452:21463  _allowances */\n      0x02\n        /* \"ex/exchangeUsdtToken.sol\":21452:21470  _allowances[owner] */\n      0x20\n      swap1\n      dup2\n      mstore\n      0x40\n      dup1\n      dup4\n      keccak256\n        /* \"ex/exchangeUsdtToken.sol\":21452:21479  _allowances[owner][spender] */\n      swap5\n      dup8\n      and\n      dup1\n      dup5\n      mstore\n      swap5\n      dup3\n      mstore\n      swap2\n      dup3\n      swap1\n      keccak256\n        /* \"ex/exchangeUsdtToken.sol\":21452:21488  _allowances[owner][spender] = amount */\n      dup6\n      swap1\n      sstore\n        /* \"ex/exchangeUsdtToken.sol\":21504:21536  Approval(owner, spender, amount) */\n      swap1\n      mload\n        /* \"#utility.yul\":1649:1674   */\n      dup5\n      dup2\n      mstore\n        /* \"ex/exchangeUsdtToken.sol\":21504:21536  Approval(owner, spender, amount) */\n      0x8c5be1e5ebec7d5bd14f71427d1e84f3dd0314c0f7b2291e5b200ac8c7c3b925\n      swap2\n        /* \"#utility.yul\":1622:1640   */\n      add\n        /* \"ex/exchangeUsdtToken.sol\":21504:21536  Approval(owner, spender, amount) */\n    tag_249:\n      mload(0x40)\n      dup1\n      swap2\n      sub\n      swap1\n      log3\n        /* \"ex/exchangeUsdtToken.sol\":21327:21544  function _approve(... */\n      pop\n      pop\n      pop\n      jump\t// out\n        /* \"ex/exchangeUsdtToken.sol\":18918:20564  function _transfer(... */\n    tag_163:\n      sub(shl(0xa0, 0x01), 0x01)\n        /* \"ex/exchangeUsdtToken.sol\":19055:19075  sender != address(0) */\n      dup4\n      and\n        /* \"ex/exchangeUsdtToken.sol\":19047:19115  require(sender != address(0), \"GSW: transfer from the zero address\") */\n      tag_251\n      jumpi\n      mload(0x40)\n      shl(0xe5, 0x461bcd)\n      dup2\n      mstore\n        /* \"#utility.yul\":5953:5955   */\n      0x20\n        /* \"ex/exchangeUsdtToken.sol\":19047:19115  require(sender != address(0), \"GSW: transfer from the zero address\") */\n      0x04\n      dup3\n      add\n        /* \"#utility.yul\":5935:5956   */\n      mstore\n        /* \"#utility.yul\":5992:5994   */\n      0x23\n        /* \"#utility.yul\":5972:5990   */\n      0x24\n      dup3\n      add\n        /* \"#utility.yul\":5965:5995   */\n      mstore\n        /* \"#utility.yul\":6031:6065   */\n      0x4753573a207472616e736665722066726f6d20746865207a65726f2061646472\n        /* \"#utility.yul\":6011:6029   */\n      0x44\n      dup3\n      add\n        /* \"#utility.yul\":6004:6066   */\n      mstore\n      shl(0xe8, 0x657373)\n        /* \"#utility.yul\":6082:6100   */\n      0x64\n      dup3\n      add\n        /* \"#utility.yul\":6075:6108   */\n      mstore\n        /* \"#utility.yul\":6125:6144   */\n      0x84\n      add\n        /* \"ex/exchangeUsdtToken.sol\":19047:19115  require(sender != address(0), \"GSW: transfer from the zero address\") */\n      tag_166\n        /* \"#utility.yul\":5751:6150   */\n      jump\n        /* \"ex/exchangeUsdtToken.sol\":19047:19115  require(sender != address(0), \"GSW: transfer from the zero address\") */\n    tag_251:\n      sub(shl(0xa0, 0x01), 0x01)\n        /* \"ex/exchangeUsdtToken.sol\":19134:19157  recipient != address(0) */\n      dup3\n      and\n        /* \"ex/exchangeUsdtToken.sol\":19126:19195  require(recipient != address(0), \"GSW: transfer to the zero address\") */\n      tag_254\n      jumpi\n      mload(0x40)\n      shl(0xe5, 0x461bcd)\n      dup2\n      mstore\n        /* \"#utility.yul\":6357:6359   */\n      0x20\n        /* \"ex/exchangeUsdtToken.sol\":19126:19195  require(recipient != address(0), \"GSW: transfer to the zero address\") */\n      0x04\n      dup3\n      add\n        /* \"#utility.yul\":6339:6360   */\n      mstore\n        /* \"#utility.yul\":6396:6398   */\n      0x21\n        /* \"#utility.yul\":6376:6394   */\n      0x24\n      dup3\n      add\n        /* \"#utility.yul\":6369:6399   */\n      mstore\n        /* \"#utility.yul\":6435:6469   */\n      0x4753573a207472616e7366657220746f20746865207a65726f20616464726573\n        /* \"#utility.yul\":6415:6433   */\n      0x44\n      dup3\n      add\n        /* \"#utility.yul\":6408:6470   */\n      mstore\n      shl(0xf8, 0x73)\n        /* \"#utility.yul\":6486:6504   */\n      0x64\n      dup3\n      add\n        /* \"#utility.yul\":6479:6510   */\n      mstore\n        /* \"#utility.yul\":6527:6546   */\n      0x84\n      add\n        /* \"ex/exchangeUsdtToken.sol\":19126:19195  require(recipient != address(0), \"GSW: transfer to the zero address\") */\n      tag_166\n        /* \"#utility.yul\":6155:6552   */\n      jump\n        /* \"ex/exchangeUsdtToken.sol\":19126:19195  require(recipient != address(0), \"GSW: transfer to the zero address\") */\n    tag_254:\n      sub(shl(0xa0, 0x01), 0x01)\n        /* \"ex/exchangeUsdtToken.sol\":19227:19244  _balances[sender] */\n      dup4\n      and\n        /* \"ex/exchangeUsdtToken.sol\":19206:19224  uint senderBalance */\n      0x00\n        /* \"ex/exchangeUsdtToken.sol\":19227:19244  _balances[sender] */\n      swap1\n      dup2\n      mstore\n        /* \"ex/exchangeUsdtToken.sol\":19227:19236  _balances */\n      0x01\n        /* \"ex/exchangeUsdtToken.sol\":19227:19244  _balances[sender] */\n      0x20\n      mstore\n      0x40\n      swap1\n      keccak256\n      sload\n        /* \"ex/exchangeUsdtToken.sol\":19263:19286  senderBalance >= amount */\n      dup2\n      dup2\n      lt\n      iszero\n        /* \"ex/exchangeUsdtToken.sol\":19255:19327  require(senderBalance >= amount, \"GSW: transfer amount exceeds balance\") */\n      tag_257\n      jumpi\n      mload(0x40)\n      shl(0xe5, 0x461bcd)\n      dup2\n      mstore\n        /* \"#utility.yul\":6759:6761   */\n      0x20\n        /* \"ex/exchangeUsdtToken.sol\":19255:19327  require(senderBalance >= amount, \"GSW: transfer amount exceeds balance\") */\n      0x04\n      dup3\n      add\n        /* \"#utility.yul\":6741:6762   */\n      mstore\n        /* \"#utility.yul\":6798:6800   */\n      0x24\n        /* \"#utility.yul\":6778:6796   */\n      dup1\n      dup3\n      add\n        /* \"#utility.yul\":6771:6801   */\n      mstore\n        /* \"#utility.yul\":6837:6871   */\n      0x4753573a207472616e7366657220616d6f756e7420657863656564732062616c\n        /* \"#utility.yul\":6817:6835   */\n      0x44\n      dup3\n      add\n        /* \"#utility.yul\":6810:6872   */\n      mstore\n      shl(0xe0, 0x616e6365)\n        /* \"#utility.yul\":6888:6906   */\n      0x64\n      dup3\n      add\n        /* \"#utility.yul\":6881:6915   */\n      mstore\n        /* \"#utility.yul\":6932:6951   */\n      0x84\n      add\n        /* \"ex/exchangeUsdtToken.sol\":19255:19327  require(senderBalance >= amount, \"GSW: transfer amount exceeds balance\") */\n      tag_166\n        /* \"#utility.yul\":6557:6957   */\n      jump\n        /* \"ex/exchangeUsdtToken.sol\":19255:19327  require(senderBalance >= amount, \"GSW: transfer amount exceeds balance\") */\n    tag_257:\n      sub(shl(0xa0, 0x01), 0x01)\n        /* \"ex/exchangeUsdtToken.sol\":19376:19388  DEXs[sender] */\n      dup5\n      and\n        /* \"ex/exchangeUsdtToken.sol\":19338:19350  uint _amount */\n      0x00\n        /* \"ex/exchangeUsdtToken.sol\":19376:19388  DEXs[sender] */\n      swap1\n      dup2\n      mstore\n        /* \"ex/exchangeUsdtToken.sol\":19376:19380  DEXs */\n      0x09\n        /* \"ex/exchangeUsdtToken.sol\":19376:19388  DEXs[sender] */\n      0x20\n      mstore\n      0x40\n      swap1\n      keccak256\n      sload\n        /* \"ex/exchangeUsdtToken.sol\":19353:19359  amount */\n      dup3\n      swap1\n        /* \"ex/exchangeUsdtToken.sol\":19376:19388  DEXs[sender] */\n      0xff\n      and\n      dup1\n        /* \"ex/exchangeUsdtToken.sol\":19376:19407  DEXs[sender] || DEXs[recipient] */\n      tag_260\n      jumpi\n      pop\n      sub(shl(0xa0, 0x01), 0x01)\n        /* \"ex/exchangeUsdtToken.sol\":19392:19407  DEXs[recipient] */\n      dup5\n      and\n      0x00\n      swap1\n      dup2\n      mstore\n        /* \"ex/exchangeUsdtToken.sol\":19392:19396  DEXs */\n      0x09\n        /* \"ex/exchangeUsdtToken.sol\":19392:19407  DEXs[recipient] */\n      0x20\n      mstore\n      0x40\n      swap1\n      keccak256\n      sload\n      0xff\n      and\n        /* \"ex/exchangeUsdtToken.sol\":19376:19407  DEXs[sender] || DEXs[recipient] */\n    tag_260:\n        /* \"ex/exchangeUsdtToken.sol\":19375:19446  (DEXs[sender] || DEXs[recipient]) &&... */\n      dup1\n      iszero\n      tag_261\n      jumpi\n      pop\n      sub(shl(0xa0, 0x01), 0x01)\n        /* \"ex/exchangeUsdtToken.sol\":19426:19446  _isExcludeds[sender] */\n      dup6\n      and\n      0x00\n      swap1\n      dup2\n      mstore\n        /* \"ex/exchangeUsdtToken.sol\":19426:19438  _isExcludeds */\n      0x07\n        /* \"ex/exchangeUsdtToken.sol\":19426:19446  _isExcludeds[sender] */\n      0x20\n      mstore\n      0x40\n      swap1\n      keccak256\n      sload\n      0xff\n      and\n        /* \"ex/exchangeUsdtToken.sol\":19425:19446  !_isExcludeds[sender] */\n      iszero\n        /* \"ex/exchangeUsdtToken.sol\":19375:19446  (DEXs[sender] || DEXs[recipient]) &&... */\n    tag_261:\n        /* \"ex/exchangeUsdtToken.sol\":19375:19487  (DEXs[sender] || DEXs[recipient]) &&... */\n      dup1\n      iszero\n      tag_262\n      jumpi\n      pop\n      sub(shl(0xa0, 0x01), 0x01)\n        /* \"ex/exchangeUsdtToken.sol\":19464:19487  _isExcludeds[recipient] */\n      dup5\n      and\n      0x00\n      swap1\n      dup2\n      mstore\n        /* \"ex/exchangeUsdtToken.sol\":19464:19476  _isExcludeds */\n      0x07\n        /* \"ex/exchangeUsdtToken.sol\":19464:19487  _isExcludeds[recipient] */\n      0x20\n      mstore\n      0x40\n      swap1\n      keccak256\n      sload\n      0xff\n      and\n        /* \"ex/exchangeUsdtToken.sol\":19463:19487  !_isExcludeds[recipient] */\n      iszero\n        /* \"ex/exchangeUsdtToken.sol\":19375:19487  (DEXs[sender] || DEXs[recipient]) &&... */\n    tag_262:\n        /* \"ex/exchangeUsdtToken.sol\":19375:19521  (DEXs[sender] || DEXs[recipient]) &&... */\n      dup1\n      iszero\n      tag_263\n      jumpi\n      pop\n        /* \"ex/exchangeUsdtToken.sol\":19505:19521  inSwapAndLiquify */\n      and(0xff, sload(0x08))\n        /* \"ex/exchangeUsdtToken.sol\":19504:19521  !inSwapAndLiquify */\n      iszero\n        /* \"ex/exchangeUsdtToken.sol\":19375:19521  (DEXs[sender] || DEXs[recipient]) &&... */\n    tag_263:\n        /* \"ex/exchangeUsdtToken.sol\":19375:19559  (DEXs[sender] || DEXs[recipient]) &&... */\n      dup1\n      iszero\n      tag_264\n      jumpi\n      pop\n        /* \"ex/exchangeUsdtToken.sol\":19538:19559  swapAndLiquifyEnabled */\n      sload(0x08)\n      0x0100\n      swap1\n      div\n      0xff\n      and\n        /* \"ex/exchangeUsdtToken.sol\":19375:19559  (DEXs[sender] || DEXs[recipient]) &&... */\n    tag_264:\n        /* \"ex/exchangeUsdtToken.sol\":19370:20372  if ( (DEXs[sender] || DEXs[recipient]) &&... */\n      iszero\n      tag_265\n      jumpi\n        /* \"ex/exchangeUsdtToken.sol\":19622:19625  100 */\n      0x64\n        /* \"ex/exchangeUsdtToken.sol\":19609:19619  amount * 3 */\n      tag_266\n        /* \"ex/exchangeUsdtToken.sol\":19609:19615  amount */\n      dup5\n        /* \"ex/exchangeUsdtToken.sol\":19618:19619  3 */\n      0x03\n        /* \"ex/exchangeUsdtToken.sol\":19609:19619  amount * 3 */\n      tag_267\n      jump\t// in\n    tag_266:\n        /* \"ex/exchangeUsdtToken.sol\":19609:19625  amount * 3 / 100 */\n      tag_268\n      swap2\n      swap1\n      tag_269\n      jump\t// in\n    tag_268:\n        /* \"ex/exchangeUsdtToken.sol\":19599:19603  this */\n      address\n        /* \"ex/exchangeUsdtToken.sol\":19581:19605  _balances[address(this)] */\n      0x00\n      swap1\n      dup2\n      mstore\n        /* \"ex/exchangeUsdtToken.sol\":19581:19590  _balances */\n      0x01\n        /* \"ex/exchangeUsdtToken.sol\":19581:19605  _balances[address(this)] */\n      0x20\n      mstore\n      0x40\n      dup2\n      keccak256\n        /* \"ex/exchangeUsdtToken.sol\":19581:19625  _balances[address(this)] += amount * 3 / 100 */\n      dup1\n      sload\n        /* \"ex/exchangeUsdtToken.sol\":19581:19605  _balances[address(this)] */\n      swap1\n      swap2\n      swap1\n        /* \"ex/exchangeUsdtToken.sol\":19581:19625  _balances[address(this)] += amount * 3 / 100 */\n      tag_270\n      swap1\n      dup5\n      swap1\n      tag_176\n      jump\t// in\n    tag_270:\n      swap1\n      swap2\n      sstore\n      pop\n        /* \"ex/exchangeUsdtToken.sol\":19670:19674  this */\n      address\n      swap1\n      pop\n      sub(shl(0xa0, 0x01), 0x01)\n        /* \"ex/exchangeUsdtToken.sol\":19645:19694  Transfer(sender, address(this), amount * 3 / 100) */\n      dup7\n      and\n      0xddf252ad1be2c89b69c2b068fc378daa952ba7f163c4a11628f55a4df523b3ef\n        /* \"ex/exchangeUsdtToken.sol\":19690:19693  100 */\n      0x64\n        /* \"ex/exchangeUsdtToken.sol\":19677:19687  amount * 3 */\n      tag_271\n        /* \"ex/exchangeUsdtToken.sol\":19677:19683  amount */\n      dup8\n        /* \"ex/exchangeUsdtToken.sol\":19686:19687  3 */\n      0x03\n        /* \"ex/exchangeUsdtToken.sol\":19677:19687  amount * 3 */\n      tag_267\n      jump\t// in\n    tag_271:\n        /* \"ex/exchangeUsdtToken.sol\":19677:19693  amount * 3 / 100 */\n      tag_272\n      swap2\n      swap1\n      tag_269\n      jump\t// in\n    tag_272:\n        /* \"ex/exchangeUsdtToken.sol\":19645:19694  Transfer(sender, address(this), amount * 3 / 100) */\n      mload(0x40)\n        /* \"#utility.yul\":1649:1674   */\n      swap1\n      dup2\n      mstore\n        /* \"#utility.yul\":1637:1639   */\n      0x20\n        /* \"#utility.yul\":1622:1640   */\n      add\n        /* \"ex/exchangeUsdtToken.sol\":19645:19694  Transfer(sender, address(this), amount * 3 / 100) */\n      mload(0x40)\n      dup1\n      swap2\n      sub\n      swap1\n      log3\n        /* \"ex/exchangeUsdtToken.sol\":19760:19764  this */\n      address\n        /* \"ex/exchangeUsdtToken.sol\":19711:19739  uint256 contractTokenBalance */\n      0x00\n        /* \"ex/exchangeUsdtToken.sol\":16961:16979  _balances[account] */\n      swap1\n      dup2\n      mstore\n        /* \"ex/exchangeUsdtToken.sol\":16961:16970  _balances */\n      0x01\n        /* \"ex/exchangeUsdtToken.sol\":16961:16979  _balances[account] */\n      0x20\n      mstore\n      0x40\n      swap1\n      keccak256\n      sload\n        /* \"ex/exchangeUsdtToken.sol\":19812:19824  _totalSupply */\n      sload(0x03)\n        /* \"ex/exchangeUsdtToken.sol\":19788:19824  contractTokenBalance >= _totalSupply */\n      dup2\n      lt\n        /* \"ex/exchangeUsdtToken.sol\":19785:19933  if(contractTokenBalance >= _totalSupply)... */\n      tag_275\n      jumpi\n      pop\n        /* \"ex/exchangeUsdtToken.sol\":19897:19909  _totalSupply */\n      sload(0x03)\n        /* \"ex/exchangeUsdtToken.sol\":19785:19933  if(contractTokenBalance >= _totalSupply)... */\n    tag_275:\n        /* \"ex/exchangeUsdtToken.sol\":20028:20032  1e18 */\n      0x0de0b6b3a7640000\n        /* \"ex/exchangeUsdtToken.sol\":20004:20032  contractTokenBalance >= 1e18 */\n      dup2\n      lt\n      dup1\n      iszero\n      swap1\n      dup2\n      swap1\n        /* \"ex/exchangeUsdtToken.sol\":20085:20146  overMinTokenBalance &&... */\n      tag_276\n      jumpi\n      pop\n      sub(shl(0xa0, 0x01), 0x01)\n        /* \"ex/exchangeUsdtToken.sol\":20134:20146  DEXs[sender] */\n      dup8\n      and\n      0x00\n      swap1\n      dup2\n      mstore\n        /* \"ex/exchangeUsdtToken.sol\":20134:20138  DEXs */\n      0x09\n        /* \"ex/exchangeUsdtToken.sol\":20134:20146  DEXs[sender] */\n      0x20\n      mstore\n      0x40\n      swap1\n      keccak256\n      sload\n      0xff\n      and\n        /* \"ex/exchangeUsdtToken.sol\":20133:20146  !DEXs[sender] */\n      iszero\n        /* \"ex/exchangeUsdtToken.sol\":20085:20146  overMinTokenBalance &&... */\n    tag_276:\n        /* \"ex/exchangeUsdtToken.sol\":20085:20196  overMinTokenBalance &&... */\n      dup1\n      iszero\n      tag_277\n      jumpi\n      pop\n        /* \"ex/exchangeUsdtToken.sol\":20175:20196  swapAndLiquifyEnabled */\n      sload(0x08)\n      0x0100\n      swap1\n      div\n      0xff\n      and\n        /* \"ex/exchangeUsdtToken.sol\":20085:20196  overMinTokenBalance &&... */\n    tag_277:\n        /* \"ex/exchangeUsdtToken.sol\":20055:20305  if (... */\n      iszero\n      tag_279\n      jumpi\n        /* \"ex/exchangeUsdtToken.sol\":20247:20285  swapTokensForEth(contractTokenBalance) */\n      tag_279\n        /* \"ex/exchangeUsdtToken.sol\":20264:20284  contractTokenBalance */\n      dup3\n        /* \"ex/exchangeUsdtToken.sol\":20247:20263  swapTokensForEth */\n      tag_280\n        /* \"ex/exchangeUsdtToken.sol\":20247:20285  swapTokensForEth(contractTokenBalance) */\n      jump\t// in\n    tag_279:\n        /* \"ex/exchangeUsdtToken.sol\":20343:20346  100 */\n      0x64\n        /* \"ex/exchangeUsdtToken.sol\":20329:20340  amount * 97 */\n      tag_281\n        /* \"ex/exchangeUsdtToken.sol\":20329:20335  amount */\n      dup7\n        /* \"ex/exchangeUsdtToken.sol\":20338:20340  97 */\n      0x61\n        /* \"ex/exchangeUsdtToken.sol\":20329:20340  amount * 97 */\n      tag_267\n      jump\t// in\n    tag_281:\n        /* \"ex/exchangeUsdtToken.sol\":20329:20346  amount * 97 / 100 */\n      tag_282\n      swap2\n      swap1\n      tag_269\n      jump\t// in\n    tag_282:\n        /* \"ex/exchangeUsdtToken.sol\":20319:20346  _amount = amount * 97 / 100 */\n      swap3\n      pop\n        /* \"ex/exchangeUsdtToken.sol\":19562:20372  {... */\n      pop\n      pop\n        /* \"ex/exchangeUsdtToken.sol\":19370:20372  if ( (DEXs[sender] || DEXs[recipient]) &&... */\n    tag_265:\n      sub(shl(0xa0, 0x01), 0x01)\n        /* \"ex/exchangeUsdtToken.sol\":20409:20426  _balances[sender] */\n      dup1\n      dup7\n      and\n      0x00\n      swap1\n      dup2\n      mstore\n        /* \"ex/exchangeUsdtToken.sol\":20409:20418  _balances */\n      0x01\n        /* \"ex/exchangeUsdtToken.sol\":20409:20426  _balances[sender] */\n      0x20\n      mstore\n      0x40\n      dup1\n      dup3\n      keccak256\n        /* \"ex/exchangeUsdtToken.sol\":20429:20451  senderBalance - amount */\n      dup7\n      dup7\n      sub\n        /* \"ex/exchangeUsdtToken.sol\":20409:20451  _balances[sender] = senderBalance - amount */\n      swap1\n      sstore\n        /* \"ex/exchangeUsdtToken.sol\":20473:20493  _balances[recipient] */\n      swap2\n      dup7\n      and\n      dup2\n      mstore\n      swap1\n      dup2\n      keccak256\n        /* \"ex/exchangeUsdtToken.sol\":20473:20504  _balances[recipient] += _amount */\n      dup1\n      sload\n        /* \"ex/exchangeUsdtToken.sol\":20497:20504  _amount */\n      dup4\n      swap3\n        /* \"ex/exchangeUsdtToken.sol\":20409:20426  _balances[sender] */\n      swap1\n        /* \"ex/exchangeUsdtToken.sol\":20473:20504  _balances[recipient] += _amount */\n      tag_283\n      swap1\n        /* \"ex/exchangeUsdtToken.sol\":20497:20504  _amount */\n      dup5\n      swap1\n        /* \"ex/exchangeUsdtToken.sol\":20473:20504  _balances[recipient] += _amount */\n      tag_176\n      jump\t// in\n    tag_283:\n      swap3\n      pop\n      pop\n      dup2\n      swap1\n      sstore\n      pop\n        /* \"ex/exchangeUsdtToken.sol\":20537:20546  recipient */\n      dup4\n      sub(shl(0xa0, 0x01), 0x01)\n        /* \"ex/exchangeUsdtToken.sol\":20520:20556  Transfer(sender, recipient, _amount) */\n      and\n        /* \"ex/exchangeUsdtToken.sol\":20529:20535  sender */\n      dup6\n      sub(shl(0xa0, 0x01), 0x01)\n        /* \"ex/exchangeUsdtToken.sol\":20520:20556  Transfer(sender, recipient, _amount) */\n      and\n      0xddf252ad1be2c89b69c2b068fc378daa952ba7f163c4a11628f55a4df523b3ef\n        /* \"ex/exchangeUsdtToken.sol\":20548:20555  _amount */\n      dup4\n        /* \"ex/exchangeUsdtToken.sol\":20520:20556  Transfer(sender, recipient, _amount) */\n      mload(0x40)\n      tag_284\n      swap2\n        /* \"#utility.yul\":1649:1674   */\n      dup2\n      mstore\n        /* \"#utility.yul\":1637:1639   */\n      0x20\n        /* \"#utility.yul\":1622:1640   */\n      add\n      swap1\n        /* \"#utility.yul\":1503:1680   */\n      jump\n        /* \"ex/exchangeUsdtToken.sol\":20520:20556  Transfer(sender, recipient, _amount) */\n    tag_284:\n      mload(0x40)\n      dup1\n      swap2\n      sub\n      swap1\n      log3\n        /* \"ex/exchangeUsdtToken.sol\":19036:20564  {... */\n      pop\n      pop\n        /* \"ex/exchangeUsdtToken.sol\":18918:20564  function _transfer(... */\n      pop\n      pop\n      pop\n      jump\t// out\n        /* \"ex/exchangeUsdtToken.sol\":20775:21229  function _burn(address account, uint amount) internal virtual {... */\n    tag_180:\n      sub(shl(0xa0, 0x01), 0x01)\n        /* \"ex/exchangeUsdtToken.sol\":20856:20877  account != address(0) */\n      dup3\n      and\n        /* \"ex/exchangeUsdtToken.sol\":20848:20913  require(account != address(0), \"GSW: burn from the zero address\") */\n      tag_286\n      jumpi\n      mload(0x40)\n      shl(0xe5, 0x461bcd)\n      dup2\n      mstore\n        /* \"#utility.yul\":7559:7561   */\n      0x20\n        /* \"ex/exchangeUsdtToken.sol\":20848:20913  require(account != address(0), \"GSW: burn from the zero address\") */\n      0x04\n      dup3\n      add\n        /* \"#utility.yul\":7541:7562   */\n      mstore\n        /* \"#utility.yul\":7598:7600   */\n      0x1f\n        /* \"#utility.yul\":7578:7596   */\n      0x24\n      dup3\n      add\n        /* \"#utility.yul\":7571:7601   */\n      mstore\n        /* \"#utility.yul\":7637:7670   */\n      0x4753573a206275726e2066726f6d20746865207a65726f206164647265737300\n        /* \"#utility.yul\":7617:7635   */\n      0x44\n      dup3\n      add\n        /* \"#utility.yul\":7610:7671   */\n      mstore\n        /* \"#utility.yul\":7688:7706   */\n      0x64\n      add\n        /* \"ex/exchangeUsdtToken.sol\":20848:20913  require(account != address(0), \"GSW: burn from the zero address\") */\n      tag_166\n        /* \"#utility.yul\":7357:7712   */\n      jump\n        /* \"ex/exchangeUsdtToken.sol\":20848:20913  require(account != address(0), \"GSW: burn from the zero address\") */\n    tag_286:\n      sub(shl(0xa0, 0x01), 0x01)\n        /* \"ex/exchangeUsdtToken.sol\":20946:20964  _balances[account] */\n      dup3\n      and\n        /* \"ex/exchangeUsdtToken.sol\":20924:20943  uint accountBalance */\n      0x00\n        /* \"ex/exchangeUsdtToken.sol\":20946:20964  _balances[account] */\n      swap1\n      dup2\n      mstore\n        /* \"ex/exchangeUsdtToken.sol\":20946:20955  _balances */\n      0x01\n        /* \"ex/exchangeUsdtToken.sol\":20946:20964  _balances[account] */\n      0x20\n      mstore\n      0x40\n      swap1\n      keccak256\n      sload\n        /* \"ex/exchangeUsdtToken.sol\":20983:21007  accountBalance >= amount */\n      dup2\n      dup2\n      lt\n      iszero\n        /* \"ex/exchangeUsdtToken.sol\":20975:21044  require(accountBalance >= amount, \"GSW: burn amount exceeds balance\") */\n      tag_289\n      jumpi\n      mload(0x40)\n      shl(0xe5, 0x461bcd)\n      dup2\n      mstore\n        /* \"#utility.yul\":7919:7921   */\n      0x20\n        /* \"ex/exchangeUsdtToken.sol\":20975:21044  require(accountBalance >= amount, \"GSW: burn amount exceeds balance\") */\n      0x04\n      dup3\n      add\n        /* \"#utility.yul\":7901:7922   */\n      dup2\n      swap1\n      mstore\n        /* \"#utility.yul\":7938:7956   */\n      0x24\n      dup3\n      add\n        /* \"#utility.yul\":7931:7961   */\n      mstore\n        /* \"#utility.yul\":7997:8031   */\n      0x4753573a206275726e20616d6f756e7420657863656564732062616c616e6365\n        /* \"#utility.yul\":7977:7995   */\n      0x44\n      dup3\n      add\n        /* \"#utility.yul\":7970:8032   */\n      mstore\n        /* \"#utility.yul\":8049:8067   */\n      0x64\n      add\n        /* \"ex/exchangeUsdtToken.sol\":20975:21044  require(accountBalance >= amount, \"GSW: burn amount exceeds balance\") */\n      tag_166\n        /* \"#utility.yul\":7717:8073   */\n      jump\n        /* \"ex/exchangeUsdtToken.sol\":20975:21044  require(accountBalance >= amount, \"GSW: burn amount exceeds balance\") */\n    tag_289:\n      sub(shl(0xa0, 0x01), 0x01)\n        /* \"ex/exchangeUsdtToken.sol\":21080:21098  _balances[account] */\n      dup4\n      and\n      0x00\n      swap1\n      dup2\n      mstore\n        /* \"ex/exchangeUsdtToken.sol\":21080:21089  _balances */\n      0x01\n        /* \"ex/exchangeUsdtToken.sol\":21080:21098  _balances[account] */\n      0x20\n      mstore\n      0x40\n      dup2\n      keccak256\n        /* \"ex/exchangeUsdtToken.sol\":21101:21124  accountBalance - amount */\n      dup4\n      dup4\n      sub\n        /* \"ex/exchangeUsdtToken.sol\":21080:21124  _balances[account] = accountBalance - amount */\n      swap1\n      sstore\n        /* \"ex/exchangeUsdtToken.sol\":21146:21158  _totalSupply */\n      0x03\n        /* \"ex/exchangeUsdtToken.sol\":21146:21168  _totalSupply -= amount */\n      dup1\n      sload\n        /* \"ex/exchangeUsdtToken.sol\":21118:21124  amount */\n      dup5\n      swap3\n        /* \"ex/exchangeUsdtToken.sol\":21080:21098  _balances[account] */\n      swap1\n        /* \"ex/exchangeUsdtToken.sol\":21146:21168  _totalSupply -= amount */\n      tag_292\n      swap1\n        /* \"ex/exchangeUsdtToken.sol\":21118:21124  amount */\n      dup5\n      swap1\n        /* \"ex/exchangeUsdtToken.sol\":21146:21168  _totalSupply -= amount */\n      tag_293\n      jump\t// in\n    tag_292:\n      swap1\n      swap2\n      sstore\n      pop\n      pop\n        /* \"ex/exchangeUsdtToken.sol\":21184:21221  Transfer(account, address(0), amount) */\n      mload(0x40)\n        /* \"#utility.yul\":1649:1674   */\n      dup3\n      dup2\n      mstore\n        /* \"ex/exchangeUsdtToken.sol\":21210:21211  0 */\n      0x00\n      swap1\n      sub(shl(0xa0, 0x01), 0x01)\n        /* \"ex/exchangeUsdtToken.sol\":21184:21221  Transfer(account, address(0), amount) */\n      dup6\n      and\n      swap1\n      0xddf252ad1be2c89b69c2b068fc378daa952ba7f163c4a11628f55a4df523b3ef\n      swap1\n        /* \"#utility.yul\":1637:1639   */\n      0x20\n        /* \"#utility.yul\":1622:1640   */\n      add\n        /* \"ex/exchangeUsdtToken.sol\":21184:21221  Transfer(account, address(0), amount) */\n      tag_249\n        /* \"#utility.yul\":1503:1680   */\n      jump\n        /* \"ex/exchangeUsdtToken.sol\":4332:4523  function _transferOwnership(address newOwner) internal virtual {... */\n    tag_204:\n        /* \"ex/exchangeUsdtToken.sol\":4406:4422  address oldOwner */\n      0x00\n        /* \"ex/exchangeUsdtToken.sol\":4425:4431  _owner */\n      dup1\n      sload\n      sub(shl(0xa0, 0x01), 0x01)\n        /* \"ex/exchangeUsdtToken.sol\":4442:4459  _owner = newOwner */\n      dup4\n      dup2\n      and\n      not(sub(shl(0xa0, 0x01), 0x01))\n      dup4\n      and\n      dup2\n      or\n      dup5\n      sstore\n        /* \"ex/exchangeUsdtToken.sol\":4475:4515  OwnershipTransferred(oldOwner, newOwner) */\n      mload(0x40)\n        /* \"ex/exchangeUsdtToken.sol\":4425:4431  _owner */\n      swap2\n      swap1\n      swap3\n      and\n      swap3\n      dup4\n      swap2\n        /* \"ex/exchangeUsdtToken.sol\":4475:4515  OwnershipTransferred(oldOwner, newOwner) */\n      0x8be0079c531659141344cd1fd0a4f28419497f9722a3daafe3b4186f6b6457e0\n      swap2\n        /* \"ex/exchangeUsdtToken.sol\":4406:4422  address oldOwner */\n      swap1\n        /* \"ex/exchangeUsdtToken.sol\":4475:4515  OwnershipTransferred(oldOwner, newOwner) */\n      log3\n        /* \"ex/exchangeUsdtToken.sol\":4395:4523  {... */\n      pop\n        /* \"ex/exchangeUsdtToken.sol\":4332:4523  function _transferOwnership(address newOwner) internal virtual {... */\n      pop\n      jump\t// out\n        /* \"ex/exchangeUsdtToken.sol\":21828:22376  function swapTokensForEth(uint256 tokenAmount) private lockTheSwap{... */\n    tag_280:\n        /* \"ex/exchangeUsdtToken.sol\":15648:15664  inSwapAndLiquify */\n      0x08\n        /* \"ex/exchangeUsdtToken.sol\":15648:15671  inSwapAndLiquify = true */\n      dup1\n      sload\n      not(0xff)\n      and\n        /* \"ex/exchangeUsdtToken.sol\":15667:15671  true */\n      0x01\n        /* \"ex/exchangeUsdtToken.sol\":15648:15671  inSwapAndLiquify = true */\n      or\n      swap1\n      sstore\n        /* \"ex/exchangeUsdtToken.sol\":21929:21945  new address[](2) */\n      0x40\n      dup1\n      mload\n        /* \"ex/exchangeUsdtToken.sol\":21943:21944  2 */\n      0x02\n        /* \"ex/exchangeUsdtToken.sol\":21929:21945  new address[](2) */\n      dup1\n      dup3\n      mstore\n      0x60\n      dup3\n      add\n      dup4\n      mstore\n      0x00\n      swap3\n      0x20\n      dup4\n      add\n      swap1\n      dup1\n      calldatasize\n      dup4\n      calldatacopy\n      add\n      swap1\n      pop\n      pop\n        /* \"ex/exchangeUsdtToken.sol\":21905:21945  address[] memory path = new address[](2) */\n      swap1\n      pop\n        /* \"ex/exchangeUsdtToken.sol\":21974:21978  this */\n      address\n        /* \"ex/exchangeUsdtToken.sol\":21956:21960  path */\n      dup2\n        /* \"ex/exchangeUsdtToken.sol\":21961:21962  0 */\n      0x00\n        /* \"ex/exchangeUsdtToken.sol\":21956:21963  path[0] */\n      dup2\n      mload\n      dup2\n      lt\n      tag_303\n      jumpi\n      tag_303\n      tag_304\n      jump\t// in\n    tag_303:\n      0x20\n      mul\n      0x20\n      add\n      add\n        /* \"ex/exchangeUsdtToken.sol\":21956:21979  path[0] = address(this) */\n      swap1\n      sub(shl(0xa0, 0x01), 0x01)\n      and\n      swap1\n      dup2\n      sub(shl(0xa0, 0x01), 0x01)\n      and\n      dup2\n      mstore\n      pop\n      pop\n        /* \"ex/exchangeUsdtToken.sol\":22000:22015  uniswapV2Router */\n      immutable(\"0xa570d8e206167497b077d8e037f9b3c67068f1e3da0834fee823fee7a1c2031f\")\n      sub(shl(0xa0, 0x01), 0x01)\n        /* \"ex/exchangeUsdtToken.sol\":22000:22020  uniswapV2Router.WETH */\n      and\n      0xad5c4648\n        /* \"ex/exchangeUsdtToken.sol\":22000:22022  uniswapV2Router.WETH() */\n      mload(0x40)\n      dup2\n      0xffffffff\n      and\n      0xe0\n      shl\n      dup2\n      mstore\n      0x04\n      add\n      0x20\n      mload(0x40)\n      dup1\n      dup4\n      sub\n      dup2\n      dup7\n      gas\n      staticcall\n      iszero\n      dup1\n      iszero\n      tag_306\n      jumpi\n      returndatasize\n      0x00\n      dup1\n      returndatacopy\n      revert(0x00, returndatasize)\n    tag_306:\n      pop\n      pop\n      pop\n      pop\n      mload(0x40)\n      returndatasize\n      not(0x1f)\n      0x1f\n      dup3\n      add\n      and\n      dup3\n      add\n      dup1\n      0x40\n      mstore\n      pop\n      dup2\n      add\n      swap1\n      tag_307\n      swap2\n      swap1\n      tag_234\n      jump\t// in\n    tag_307:\n        /* \"ex/exchangeUsdtToken.sol\":21990:21994  path */\n      dup2\n        /* \"ex/exchangeUsdtToken.sol\":21995:21996  1 */\n      0x01\n        /* \"ex/exchangeUsdtToken.sol\":21990:21997  path[1] */\n      dup2\n      mload\n      dup2\n      lt\n      tag_309\n      jumpi\n      tag_309\n      tag_304\n      jump\t// in\n    tag_309:\n      0x20\n      mul\n      0x20\n      add\n      add\n        /* \"ex/exchangeUsdtToken.sol\":21990:22022  path[1] = uniswapV2Router.WETH() */\n      swap1\n      sub(shl(0xa0, 0x01), 0x01)\n      and\n      swap1\n      dup2\n      sub(shl(0xa0, 0x01), 0x01)\n      and\n      dup2\n      mstore\n      pop\n      pop\n        /* \"ex/exchangeUsdtToken.sol\":22033:22095  _approve(address(this), address(uniswapV2Router), tokenAmount) */\n      tag_310\n        /* \"ex/exchangeUsdtToken.sol\":22050:22054  this */\n      address\n        /* \"ex/exchangeUsdtToken.sol\":22065:22080  uniswapV2Router */\n      immutable(\"0xa570d8e206167497b077d8e037f9b3c67068f1e3da0834fee823fee7a1c2031f\")\n        /* \"ex/exchangeUsdtToken.sol\":22083:22094  tokenAmount */\n      dup5\n        /* \"ex/exchangeUsdtToken.sol\":22033:22041  _approve */\n      tag_159\n        /* \"ex/exchangeUsdtToken.sol\":22033:22095  _approve(address(this), address(uniswapV2Router), tokenAmount) */\n      jump\t// in\n    tag_310:\n        /* \"ex/exchangeUsdtToken.sol\":22106:22303  uniswapV2Router.swapExactTokensForETHSupportingFeeOnTransferTokens(... */\n      mload(0x40)\n      shl(0xe0, 0x791ac947)\n      dup2\n      mstore\n      sub(shl(0xa0, 0x01), 0x01)\n        /* \"ex/exchangeUsdtToken.sol\":22106:22121  uniswapV2Router */\n      immutable(\"0xa570d8e206167497b077d8e037f9b3c67068f1e3da0834fee823fee7a1c2031f\")\n        /* \"ex/exchangeUsdtToken.sol\":22106:22172  uniswapV2Router.swapExactTokensForETHSupportingFeeOnTransferTokens */\n      and\n      swap1\n      0x791ac947\n      swap1\n        /* \"ex/exchangeUsdtToken.sol\":22106:22303  uniswapV2Router.swapExactTokensForETHSupportingFeeOnTransferTokens(... */\n      tag_311\n      swap1\n        /* \"ex/exchangeUsdtToken.sol\":22187:22198  tokenAmount */\n      dup6\n      swap1\n        /* \"ex/exchangeUsdtToken.sol\":22213:22214  0 */\n      0x00\n      swap1\n        /* \"ex/exchangeUsdtToken.sol\":22230:22234  path */\n      dup7\n      swap1\n        /* \"ex/exchangeUsdtToken.sol\":22257:22261  this */\n      address\n      swap1\n        /* \"ex/exchangeUsdtToken.sol\":22277:22292  block.timestamp */\n      timestamp\n      swap1\n        /* \"ex/exchangeUsdtToken.sol\":22106:22303  uniswapV2Router.swapExactTokensForETHSupportingFeeOnTransferTokens(... */\n      0x04\n      add\n      tag_312\n      jump\t// in\n    tag_311:\n      0x00\n      mload(0x40)\n      dup1\n      dup4\n      sub\n      dup2\n      0x00\n      dup8\n      dup1\n      extcodesize\n      iszero\n      dup1\n      iszero\n      tag_313\n      jumpi\n      0x00\n      dup1\n      revert\n    tag_313:\n      pop\n      gas\n      call\n      iszero\n      dup1\n      iszero\n      tag_315\n      jumpi\n      returndatasize\n      0x00\n      dup1\n      returndatacopy\n      revert(0x00, returndatasize)\n    tag_315:\n      pop\n      pop\n        /* \"ex/exchangeUsdtToken.sol\":22322:22335  marketAddress */\n      sload(0x06)\n        /* \"ex/exchangeUsdtToken.sol\":22314:22368  payable(marketAddress).transfer(address(this).balance) */\n      mload(0x40)\n      sub(shl(0xa0, 0x01), 0x01)\n        /* \"ex/exchangeUsdtToken.sol\":22322:22335  marketAddress */\n      swap1\n      swap2\n      and\n      swap3\n      pop\n        /* \"ex/exchangeUsdtToken.sol\":22346:22367  address(this).balance */\n      selfbalance\n        /* \"ex/exchangeUsdtToken.sol\":22314:22368  payable(marketAddress).transfer(address(this).balance) */\n      dup1\n      iszero\n      0x08fc\n      mul\n      swap3\n      pop\n        /* \"ex/exchangeUsdtToken.sol\":22346:22367  address(this).balance */\n      swap1\n        /* \"ex/exchangeUsdtToken.sol\":22322:22335  marketAddress */\n      0x00\n        /* \"ex/exchangeUsdtToken.sol\":22314:22368  payable(marketAddress).transfer(address(this).balance) */\n      dup2\n        /* \"ex/exchangeUsdtToken.sol\":22322:22335  marketAddress */\n      dup2\n        /* \"ex/exchangeUsdtToken.sol\":22314:22368  payable(marketAddress).transfer(address(this).balance) */\n      dup2\n        /* \"ex/exchangeUsdtToken.sol\":22346:22367  address(this).balance */\n      dup6\n        /* \"ex/exchangeUsdtToken.sol\":22322:22335  marketAddress */\n      dup9\n        /* \"ex/exchangeUsdtToken.sol\":22314:22368  payable(marketAddress).transfer(address(this).balance) */\n      dup9\n      call\n      swap4\n      pop\n      pop\n      pop\n      pop\n      iszero\n      dup1\n      iszero\n      tag_317\n      jumpi\n      returndatasize\n      0x00\n      dup1\n      returndatacopy\n      revert(0x00, returndatasize)\n    tag_317:\n      pop\n      pop\n        /* \"ex/exchangeUsdtToken.sol\":15694:15710  inSwapAndLiquify */\n      0x08\n        /* \"ex/exchangeUsdtToken.sol\":15694:15718  inSwapAndLiquify = false */\n      dup1\n      sload\n      not(0xff)\n      and\n      swap1\n      sstore\n      pop\n        /* \"ex/exchangeUsdtToken.sol\":21828:22376  function swapTokensForEth(uint256 tokenAmount) private lockTheSwap{... */\n      jump\t// out\n        /* \"#utility.yul\":14:611   */\n    tag_38:\n        /* \"#utility.yul\":126:130   */\n      0x00\n        /* \"#utility.yul\":155:157   */\n      0x20\n        /* \"#utility.yul\":184:186   */\n      dup1\n        /* \"#utility.yul\":173:182   */\n      dup4\n        /* \"#utility.yul\":166:187   */\n      mstore\n        /* \"#utility.yul\":216:222   */\n      dup4\n        /* \"#utility.yul\":210:223   */\n      mload\n        /* \"#utility.yul\":259:265   */\n      dup1\n        /* \"#utility.yul\":254:256   */\n      dup3\n        /* \"#utility.yul\":243:252   */\n      dup6\n        /* \"#utility.yul\":239:257   */\n      add\n        /* \"#utility.yul\":232:266   */\n      mstore\n        /* \"#utility.yul\":284:285   */\n      0x00\n        /* \"#utility.yul\":294:434   */\n    tag_322:\n        /* \"#utility.yul\":308:314   */\n      dup2\n        /* \"#utility.yul\":305:306   */\n      dup2\n        /* \"#utility.yul\":302:315   */\n      lt\n        /* \"#utility.yul\":294:434   */\n      iszero\n      tag_324\n      jumpi\n        /* \"#utility.yul\":403:417   */\n      dup6\n      dup2\n      add\n        /* \"#utility.yul\":399:422   */\n      dup4\n      add\n        /* \"#utility.yul\":393:423   */\n      mload\n        /* \"#utility.yul\":369:386   */\n      dup6\n      dup3\n      add\n        /* \"#utility.yul\":388:390   */\n      0x40\n        /* \"#utility.yul\":365:391   */\n      add\n        /* \"#utility.yul\":358:424   */\n      mstore\n        /* \"#utility.yul\":323:333   */\n      dup3\n      add\n        /* \"#utility.yul\":294:434   */\n      jump(tag_322)\n    tag_324:\n        /* \"#utility.yul\":452:458   */\n      dup2\n        /* \"#utility.yul\":449:450   */\n      dup2\n        /* \"#utility.yul\":446:459   */\n      gt\n        /* \"#utility.yul\":443:534   */\n      iszero\n      tag_325\n      jumpi\n        /* \"#utility.yul\":522:523   */\n      0x00\n        /* \"#utility.yul\":517:519   */\n      0x40\n        /* \"#utility.yul\":508:514   */\n      dup4\n        /* \"#utility.yul\":497:506   */\n      dup8\n        /* \"#utility.yul\":493:515   */\n      add\n        /* \"#utility.yul\":489:520   */\n      add\n        /* \"#utility.yul\":482:524   */\n      mstore\n        /* \"#utility.yul\":443:534   */\n    tag_325:\n      pop\n        /* \"#utility.yul\":595:597   */\n      0x1f\n        /* \"#utility.yul\":574:589   */\n      add\n      not(0x1f)\n        /* \"#utility.yul\":570:599   */\n      and\n        /* \"#utility.yul\":555:600   */\n      swap3\n      swap1\n      swap3\n      add\n        /* \"#utility.yul\":602:604   */\n      0x40\n        /* \"#utility.yul\":551:605   */\n      add\n      swap4\n        /* \"#utility.yul\":14:611   */\n      swap3\n      pop\n      pop\n      pop\n      jump\t// out\n        /* \"#utility.yul\":616:747   */\n    tag_318:\n      sub(shl(0xa0, 0x01), 0x01)\n        /* \"#utility.yul\":691:722   */\n      dup2\n      and\n        /* \"#utility.yul\":681:723   */\n      dup2\n      eq\n        /* \"#utility.yul\":671:741   */\n      tag_178\n      jumpi\n        /* \"#utility.yul\":737:738   */\n      0x00\n        /* \"#utility.yul\":734:735   */\n      dup1\n        /* \"#utility.yul\":727:739   */\n      revert\n        /* \"#utility.yul\":752:1067   */\n    tag_42:\n        /* \"#utility.yul\":820:826   */\n      0x00\n        /* \"#utility.yul\":828:834   */\n      dup1\n        /* \"#utility.yul\":881:883   */\n      0x40\n        /* \"#utility.yul\":869:878   */\n      dup4\n        /* \"#utility.yul\":860:867   */\n      dup6\n        /* \"#utility.yul\":856:879   */\n      sub\n        /* \"#utility.yul\":852:884   */\n      slt\n        /* \"#utility.yul\":849:901   */\n      iszero\n      tag_329\n      jumpi\n        /* \"#utility.yul\":897:898   */\n      0x00\n        /* \"#utility.yul\":894:895   */\n      dup1\n        /* \"#utility.yul\":887:899   */\n      revert\n        /* \"#utility.yul\":849:901   */\n    tag_329:\n        /* \"#utility.yul\":936:945   */\n      dup3\n        /* \"#utility.yul\":923:946   */\n      calldataload\n        /* \"#utility.yul\":955:986   */\n      tag_330\n        /* \"#utility.yul\":980:985   */\n      dup2\n        /* \"#utility.yul\":955:986   */\n      tag_318\n      jump\t// in\n    tag_330:\n        /* \"#utility.yul\":1005:1010   */\n      swap5\n        /* \"#utility.yul\":1057:1059   */\n      0x20\n        /* \"#utility.yul\":1042:1060   */\n      swap4\n      swap1\n      swap4\n      add\n        /* \"#utility.yul\":1029:1061   */\n      calldataload\n      swap4\n      pop\n      pop\n      pop\n        /* \"#utility.yul\":752:1067   */\n      jump\t// out\n        /* \"#utility.yul\":1685:2141   */\n    tag_59:\n        /* \"#utility.yul\":1762:1768   */\n      0x00\n        /* \"#utility.yul\":1770:1776   */\n      dup1\n        /* \"#utility.yul\":1778:1784   */\n      0x00\n        /* \"#utility.yul\":1831:1833   */\n      0x60\n        /* \"#utility.yul\":1819:1828   */\n      dup5\n        /* \"#utility.yul\":1810:1817   */\n      dup7\n        /* \"#utility.yul\":1806:1829   */\n      sub\n        /* \"#utility.yul\":1802:1834   */\n      slt\n        /* \"#utility.yul\":1799:1851   */\n      iszero\n      tag_335\n      jumpi\n        /* \"#utility.yul\":1847:1848   */\n      0x00\n        /* \"#utility.yul\":1844:1845   */\n      dup1\n        /* \"#utility.yul\":1837:1849   */\n      revert\n        /* \"#utility.yul\":1799:1851   */\n    tag_335:\n        /* \"#utility.yul\":1886:1895   */\n      dup4\n        /* \"#utility.yul\":1873:1896   */\n      calldataload\n        /* \"#utility.yul\":1905:1936   */\n      tag_336\n        /* \"#utility.yul\":1930:1935   */\n      dup2\n        /* \"#utility.yul\":1905:1936   */\n      tag_318\n      jump\t// in\n    tag_336:\n        /* \"#utility.yul\":1955:1960   */\n      swap3\n      pop\n        /* \"#utility.yul\":2012:2014   */\n      0x20\n        /* \"#utility.yul\":1997:2015   */\n      dup5\n      add\n        /* \"#utility.yul\":1984:2016   */\n      calldataload\n        /* \"#utility.yul\":2025:2058   */\n      tag_337\n        /* \"#utility.yul\":1984:2016   */\n      dup2\n        /* \"#utility.yul\":2025:2058   */\n      tag_318\n      jump\t// in\n    tag_337:\n        /* \"#utility.yul\":1685:2141   */\n      swap3\n      swap6\n        /* \"#utility.yul\":2077:2084   */\n      swap3\n      swap5\n      pop\n      pop\n      pop\n        /* \"#utility.yul\":2131:2133   */\n      0x40\n        /* \"#utility.yul\":2116:2134   */\n      swap2\n      swap1\n      swap2\n      add\n        /* \"#utility.yul\":2103:2135   */\n      calldataload\n      swap1\n        /* \"#utility.yul\":1685:2141   */\n      jump\t// out\n        /* \"#utility.yul\":2335:2515   */\n    tag_75:\n        /* \"#utility.yul\":2394:2400   */\n      0x00\n        /* \"#utility.yul\":2447:2449   */\n      0x20\n        /* \"#utility.yul\":2435:2444   */\n      dup3\n        /* \"#utility.yul\":2426:2433   */\n      dup5\n        /* \"#utility.yul\":2422:2445   */\n      sub\n        /* \"#utility.yul\":2418:2450   */\n      slt\n        /* \"#utility.yul\":2415:2467   */\n      iszero\n      tag_340\n      jumpi\n        /* \"#utility.yul\":2463:2464   */\n      0x00\n        /* \"#utility.yul\":2460:2461   */\n      dup1\n        /* \"#utility.yul\":2453:2465   */\n      revert\n        /* \"#utility.yul\":2415:2467   */\n    tag_340:\n      pop\n        /* \"#utility.yul\":2486:2509   */\n      calldataload\n      swap2\n        /* \"#utility.yul\":2335:2515   */\n      swap1\n      pop\n      jump\t// out\n        /* \"#utility.yul\":2728:2975   */\n    tag_89:\n        /* \"#utility.yul\":2787:2793   */\n      0x00\n        /* \"#utility.yul\":2840:2842   */\n      0x20\n        /* \"#utility.yul\":2828:2837   */\n      dup3\n        /* \"#utility.yul\":2819:2826   */\n      dup5\n        /* \"#utility.yul\":2815:2838   */\n      sub\n        /* \"#utility.yul\":2811:2843   */\n      slt\n        /* \"#utility.yul\":2808:2860   */\n      iszero\n      tag_343\n      jumpi\n        /* \"#utility.yul\":2856:2857   */\n      0x00\n        /* \"#utility.yul\":2853:2854   */\n      dup1\n        /* \"#utility.yul\":2846:2858   */\n      revert\n        /* \"#utility.yul\":2808:2860   */\n    tag_343:\n        /* \"#utility.yul\":2895:2904   */\n      dup2\n        /* \"#utility.yul\":2882:2905   */\n      calldataload\n        /* \"#utility.yul\":2914:2945   */\n      tag_344\n        /* \"#utility.yul\":2939:2944   */\n      dup2\n        /* \"#utility.yul\":2914:2945   */\n      tag_318\n      jump\t// in\n    tag_344:\n        /* \"#utility.yul\":2964:2969   */\n      swap4\n        /* \"#utility.yul\":2728:2975   */\n      swap3\n      pop\n      pop\n      pop\n      jump\t// out\n        /* \"#utility.yul\":2980:3253   */\n    tag_128:\n        /* \"#utility.yul\":3036:3042   */\n      0x00\n        /* \"#utility.yul\":3089:3091   */\n      0x20\n        /* \"#utility.yul\":3077:3086   */\n      dup3\n        /* \"#utility.yul\":3068:3075   */\n      dup5\n        /* \"#utility.yul\":3064:3087   */\n      sub\n        /* \"#utility.yul\":3060:3092   */\n      slt\n        /* \"#utility.yul\":3057:3109   */\n      iszero\n      tag_346\n      jumpi\n        /* \"#utility.yul\":3105:3106   */\n      0x00\n        /* \"#utility.yul\":3102:3103   */\n      dup1\n        /* \"#utility.yul\":3095:3107   */\n      revert\n        /* \"#utility.yul\":3057:3109   */\n    tag_346:\n        /* \"#utility.yul\":3144:3153   */\n      dup2\n        /* \"#utility.yul\":3131:3154   */\n      calldataload\n        /* \"#utility.yul\":3197:3202   */\n      dup1\n        /* \"#utility.yul\":3190:3203   */\n      iszero\n        /* \"#utility.yul\":3183:3204   */\n      iszero\n        /* \"#utility.yul\":3176:3181   */\n      dup2\n        /* \"#utility.yul\":3173:3205   */\n      eq\n        /* \"#utility.yul\":3163:3223   */\n      tag_344\n      jumpi\n        /* \"#utility.yul\":3219:3220   */\n      0x00\n        /* \"#utility.yul\":3216:3217   */\n      dup1\n        /* \"#utility.yul\":3209:3221   */\n      revert\n        /* \"#utility.yul\":3258:3646   */\n    tag_133:\n        /* \"#utility.yul\":3326:3332   */\n      0x00\n        /* \"#utility.yul\":3334:3340   */\n      dup1\n        /* \"#utility.yul\":3387:3389   */\n      0x40\n        /* \"#utility.yul\":3375:3384   */\n      dup4\n        /* \"#utility.yul\":3366:3373   */\n      dup6\n        /* \"#utility.yul\":3362:3385   */\n      sub\n        /* \"#utility.yul\":3358:3390   */\n      slt\n        /* \"#utility.yul\":3355:3407   */\n      iszero\n      tag_349\n      jumpi\n        /* \"#utility.yul\":3403:3404   */\n      0x00\n        /* \"#utility.yul\":3400:3401   */\n      dup1\n        /* \"#utility.yul\":3393:3405   */\n      revert\n        /* \"#utility.yul\":3355:3407   */\n    tag_349:\n        /* \"#utility.yul\":3442:3451   */\n      dup3\n        /* \"#utility.yul\":3429:3452   */\n      calldataload\n        /* \"#utility.yul\":3461:3492   */\n      tag_350\n        /* \"#utility.yul\":3486:3491   */\n      dup2\n        /* \"#utility.yul\":3461:3492   */\n      tag_318\n      jump\t// in\n    tag_350:\n        /* \"#utility.yul\":3511:3516   */\n      swap2\n      pop\n        /* \"#utility.yul\":3568:3570   */\n      0x20\n        /* \"#utility.yul\":3553:3571   */\n      dup4\n      add\n        /* \"#utility.yul\":3540:3572   */\n      calldataload\n        /* \"#utility.yul\":3581:3614   */\n      tag_351\n        /* \"#utility.yul\":3540:3572   */\n      dup2\n        /* \"#utility.yul\":3581:3614   */\n      tag_318\n      jump\t// in\n    tag_351:\n        /* \"#utility.yul\":3633:3640   */\n      dup1\n        /* \"#utility.yul\":3623:3640   */\n      swap2\n      pop\n      pop\n        /* \"#utility.yul\":3258:3646   */\n      swap3\n      pop\n      swap3\n      swap1\n      pop\n      jump\t// out\n        /* \"#utility.yul\":4058:4185   */\n    tag_319:\n        /* \"#utility.yul\":4119:4129   */\n      0x4e487b71\n        /* \"#utility.yul\":4114:4117   */\n      0xe0\n        /* \"#utility.yul\":4110:4130   */\n      shl\n        /* \"#utility.yul\":4107:4108   */\n      0x00\n        /* \"#utility.yul\":4100:4131   */\n      mstore\n        /* \"#utility.yul\":4150:4154   */\n      0x11\n        /* \"#utility.yul\":4147:4148   */\n      0x04\n        /* \"#utility.yul\":4140:4155   */\n      mstore\n        /* \"#utility.yul\":4174:4178   */\n      0x24\n        /* \"#utility.yul\":4171:4172   */\n      0x00\n        /* \"#utility.yul\":4164:4179   */\n      revert\n        /* \"#utility.yul\":4190:4318   */\n    tag_176:\n        /* \"#utility.yul\":4230:4233   */\n      0x00\n        /* \"#utility.yul\":4261:4262   */\n      dup3\n        /* \"#utility.yul\":4257:4263   */\n      not\n        /* \"#utility.yul\":4254:4255   */\n      dup3\n        /* \"#utility.yul\":4251:4264   */\n      gt\n        /* \"#utility.yul\":4248:4287   */\n      iszero\n      tag_356\n      jumpi\n        /* \"#utility.yul\":4267:4285   */\n      tag_356\n      tag_319\n      jump\t// in\n    tag_356:\n      pop\n        /* \"#utility.yul\":4303:4312   */\n      add\n      swap1\n        /* \"#utility.yul\":4190:4318   */\n      jump\t// out\n        /* \"#utility.yul\":4323:4679   */\n    tag_186:\n        /* \"#utility.yul\":4525:4527   */\n      0x20\n        /* \"#utility.yul\":4507:4528   */\n      dup1\n      dup3\n      mstore\n        /* \"#utility.yul\":4544:4562   */\n      dup2\n      dup2\n      add\n        /* \"#utility.yul\":4537:4567   */\n      mstore\n        /* \"#utility.yul\":4603:4637   */\n      0x4f776e61626c653a2063616c6c6572206973206e6f7420746865206f776e6572\n        /* \"#utility.yul\":4598:4600   */\n      0x40\n        /* \"#utility.yul\":4583:4601   */\n      dup3\n      add\n        /* \"#utility.yul\":4576:4638   */\n      mstore\n        /* \"#utility.yul\":4670:4672   */\n      0x60\n        /* \"#utility.yul\":4655:4673   */\n      add\n      swap1\n        /* \"#utility.yul\":4323:4679   */\n      jump\t// out\n        /* \"#utility.yul\":5088:5339   */\n    tag_234:\n        /* \"#utility.yul\":5158:5164   */\n      0x00\n        /* \"#utility.yul\":5211:5213   */\n      0x20\n        /* \"#utility.yul\":5199:5208   */\n      dup3\n        /* \"#utility.yul\":5190:5197   */\n      dup5\n        /* \"#utility.yul\":5186:5209   */\n      sub\n        /* \"#utility.yul\":5182:5214   */\n      slt\n        /* \"#utility.yul\":5179:5231   */\n      iszero\n      tag_360\n      jumpi\n        /* \"#utility.yul\":5227:5228   */\n      0x00\n        /* \"#utility.yul\":5224:5225   */\n      dup1\n        /* \"#utility.yul\":5217:5229   */\n      revert\n        /* \"#utility.yul\":5179:5231   */\n    tag_360:\n        /* \"#utility.yul\":5259:5268   */\n      dup2\n        /* \"#utility.yul\":5253:5269   */\n      mload\n        /* \"#utility.yul\":5278:5309   */\n      tag_344\n        /* \"#utility.yul\":5303:5308   */\n      dup2\n        /* \"#utility.yul\":5278:5309   */\n      tag_318\n      jump\t// in\n        /* \"#utility.yul\":6962:7130   */\n    tag_267:\n        /* \"#utility.yul\":7002:7009   */\n      0x00\n        /* \"#utility.yul\":7068:7069   */\n      dup2\n        /* \"#utility.yul\":7064:7065   */\n      0x00\n        /* \"#utility.yul\":7060:7066   */\n      not\n        /* \"#utility.yul\":7056:7070   */\n      div\n        /* \"#utility.yul\":7053:7054   */\n      dup4\n        /* \"#utility.yul\":7050:7071   */\n      gt\n        /* \"#utility.yul\":7045:7046   */\n      dup3\n        /* \"#utility.yul\":7038:7047   */\n      iszero\n        /* \"#utility.yul\":7031:7048   */\n      iszero\n        /* \"#utility.yul\":7027:7072   */\n      and\n        /* \"#utility.yul\":7024:7095   */\n      iszero\n      tag_368\n      jumpi\n        /* \"#utility.yul\":7075:7093   */\n      tag_368\n      tag_319\n      jump\t// in\n    tag_368:\n      pop\n        /* \"#utility.yul\":7115:7124   */\n      mul\n      swap1\n        /* \"#utility.yul\":6962:7130   */\n      jump\t// out\n        /* \"#utility.yul\":7135:7352   */\n    tag_269:\n        /* \"#utility.yul\":7175:7176   */\n      0x00\n        /* \"#utility.yul\":7201:7202   */\n      dup3\n        /* \"#utility.yul\":7191:7323   */\n      tag_370\n      jumpi\n        /* \"#utility.yul\":7245:7255   */\n      0x4e487b71\n        /* \"#utility.yul\":7240:7243   */\n      0xe0\n        /* \"#utility.yul\":7236:7256   */\n      shl\n        /* \"#utility.yul\":7233:7234   */\n      0x00\n        /* \"#utility.yul\":7226:7257   */\n      mstore\n        /* \"#utility.yul\":7280:7284   */\n      0x12\n        /* \"#utility.yul\":7277:7278   */\n      0x04\n        /* \"#utility.yul\":7270:7285   */\n      mstore\n        /* \"#utility.yul\":7308:7312   */\n      0x24\n        /* \"#utility.yul\":7305:7306   */\n      0x00\n        /* \"#utility.yul\":7298:7313   */\n      revert\n        /* \"#utility.yul\":7191:7323   */\n    tag_370:\n      pop\n        /* \"#utility.yul\":7337:7346   */\n      div\n      swap1\n        /* \"#utility.yul\":7135:7352   */\n      jump\t// out\n        /* \"#utility.yul\":8078:8203   */\n    tag_293:\n        /* \"#utility.yul\":8118:8122   */\n      0x00\n        /* \"#utility.yul\":8146:8147   */\n      dup3\n        /* \"#utility.yul\":8143:8144   */\n      dup3\n        /* \"#utility.yul\":8140:8148   */\n      lt\n        /* \"#utility.yul\":8137:8171   */\n      iszero\n      tag_375\n      jumpi\n        /* \"#utility.yul\":8151:8169   */\n      tag_375\n      tag_319\n      jump\t// in\n    tag_375:\n      pop\n        /* \"#utility.yul\":8188:8197   */\n      sub\n      swap1\n        /* \"#utility.yul\":8078:8203   */\n      jump\t// out\n        /* \"#utility.yul\":8340:8467   */\n    tag_304:\n        /* \"#utility.yul\":8401:8411   */\n      0x4e487b71\n        /* \"#utility.yul\":8396:8399   */\n      0xe0\n        /* \"#utility.yul\":8392:8412   */\n      shl\n        /* \"#utility.yul\":8389:8390   */\n      0x00\n        /* \"#utility.yul\":8382:8413   */\n      mstore\n        /* \"#utility.yul\":8432:8436   */\n      0x32\n        /* \"#utility.yul\":8429:8430   */\n      0x04\n        /* \"#utility.yul\":8422:8437   */\n      mstore\n        /* \"#utility.yul\":8456:8460   */\n      0x24\n        /* \"#utility.yul\":8453:8454   */\n      0x00\n        /* \"#utility.yul\":8446:8461   */\n      revert\n        /* \"#utility.yul\":8472:9452   */\n    tag_312:\n        /* \"#utility.yul\":8734:8738   */\n      0x00\n        /* \"#utility.yul\":8782:8785   */\n      0xa0\n        /* \"#utility.yul\":8771:8780   */\n      dup3\n        /* \"#utility.yul\":8767:8786   */\n      add\n        /* \"#utility.yul\":8813:8819   */\n      dup8\n        /* \"#utility.yul\":8802:8811   */\n      dup4\n        /* \"#utility.yul\":8795:8820   */\n      mstore\n        /* \"#utility.yul\":8839:8841   */\n      0x20\n        /* \"#utility.yul\":8877:8883   */\n      dup8\n        /* \"#utility.yul\":8872:8874   */\n      dup2\n        /* \"#utility.yul\":8861:8870   */\n      dup6\n        /* \"#utility.yul\":8857:8875   */\n      add\n        /* \"#utility.yul\":8850:8884   */\n      mstore\n        /* \"#utility.yul\":8920:8923   */\n      0xa0\n        /* \"#utility.yul\":8915:8917   */\n      0x40\n        /* \"#utility.yul\":8904:8913   */\n      dup6\n        /* \"#utility.yul\":8900:8918   */\n      add\n        /* \"#utility.yul\":8893:8924   */\n      mstore\n        /* \"#utility.yul\":8944:8950   */\n      dup2\n        /* \"#utility.yul\":8979:8985   */\n      dup8\n        /* \"#utility.yul\":8973:8986   */\n      mload\n        /* \"#utility.yul\":9010:9016   */\n      dup1\n        /* \"#utility.yul\":9002:9008   */\n      dup5\n        /* \"#utility.yul\":8995:9017   */\n      mstore\n        /* \"#utility.yul\":9048:9051   */\n      0xc0\n        /* \"#utility.yul\":9037:9046   */\n      dup7\n        /* \"#utility.yul\":9033:9052   */\n      add\n        /* \"#utility.yul\":9026:9052   */\n      swap2\n      pop\n        /* \"#utility.yul\":9087:9089   */\n      dup3\n        /* \"#utility.yul\":9079:9085   */\n      dup10\n        /* \"#utility.yul\":9075:9090   */\n      add\n        /* \"#utility.yul\":9061:9090   */\n      swap4\n      pop\n        /* \"#utility.yul\":9108:9109   */\n      0x00\n        /* \"#utility.yul\":9118:9313   */\n    tag_379:\n        /* \"#utility.yul\":9132:9138   */\n      dup2\n        /* \"#utility.yul\":9129:9130   */\n      dup2\n        /* \"#utility.yul\":9126:9139   */\n      lt\n        /* \"#utility.yul\":9118:9313   */\n      iszero\n      tag_381\n      jumpi\n        /* \"#utility.yul\":9197:9210   */\n      dup5\n      mload\n      sub(shl(0xa0, 0x01), 0x01)\n        /* \"#utility.yul\":9193:9232   */\n      and\n        /* \"#utility.yul\":9181:9233   */\n      dup4\n      mstore\n        /* \"#utility.yul\":9288:9303   */\n      swap4\n      dup4\n      add\n      swap4\n        /* \"#utility.yul\":9253:9265   */\n      swap2\n      dup4\n      add\n      swap2\n        /* \"#utility.yul\":9229:9230   */\n      0x01\n        /* \"#utility.yul\":9147:9156   */\n      add\n        /* \"#utility.yul\":9118:9313   */\n      jump(tag_379)\n    tag_381:\n      pop\n      pop\n      sub(shl(0xa0, 0x01), 0x01)\n        /* \"#utility.yul\":9369:9401   */\n      swap7\n      swap1\n      swap7\n      and\n        /* \"#utility.yul\":9364:9366   */\n      0x60\n        /* \"#utility.yul\":9349:9367   */\n      dup6\n      add\n        /* \"#utility.yul\":9342:9402   */\n      mstore\n      pop\n      pop\n      pop\n        /* \"#utility.yul\":9433:9436   */\n      0x80\n        /* \"#utility.yul\":9418:9437   */\n      add\n        /* \"#utility.yul\":9411:9446   */\n      mstore\n        /* \"#utility.yul\":9330:9333   */\n      swap4\n        /* \"#utility.yul\":8472:9452   */\n      swap3\n      pop\n      pop\n      pop\n      jump\t// out\n\n    auxdata: 0xa264697066735822122076a563358c6f974d779f836829bb01d0a0616f9ad20b36283dddb650a070762064736f6c634300080d0033\n}\n",
				"bytecode": {
					"linkReferences": {},
					"object": "60c06040523480156200001157600080fd5b506200001d3362000214565b62000034336a066f0222d28f572924000062000264565b6000739ac64cc6e4415144c455bd8e4837fea55603e5c39050806001600160a01b031663c45a01556040518163ffffffff1660e01b8152600401602060405180830381865afa1580156200008c573d6000803e3d6000fd5b505050506040513d601f19601f82011682018060405250810190620000b29190620002f3565b6001600160a01b031663c9c6539630836001600160a01b031663ad5c46486040518163ffffffff1660e01b8152600401602060405180830381865afa15801562000100573d6000803e3d6000fd5b505050506040513d601f19601f82011682018060405250810190620001269190620002f3565b6040516001600160e01b031960e085901b1681526001600160a01b039283166004820152911660248201526044016020604051808303816000875af115801562000174573d6000803e3d6000fd5b505050506040513d601f19601f820116820180604052508101906200019a9190620002f3565b6001600160a01b0390811660a05281166080526001600a6000620001c66000546001600160a01b031690565b6001600160a01b03908116825260208083019390935260409182016000908120805495151560ff1996871617905560a05190911681526009909252902080549091166001179055506200034c565b600080546001600160a01b038381166001600160a01b0319831681178455604051919092169283917f8be0079c531659141344cd1fd0a4f28419497f9722a3daafe3b4186f6b6457e09190a35050565b6001600160a01b038216600090815260016020526040812080548392906200028e90849062000325565b925050819055508060036000828254620002a9919062000325565b90915550506040518181526001600160a01b038316906000907fddf252ad1be2c89b69c2b068fc378daa952ba7f163c4a11628f55a4df523b3ef9060200160405180910390a35050565b6000602082840312156200030657600080fd5b81516001600160a01b03811681146200031e57600080fd5b9392505050565b600082198211156200034757634e487b7160e01b600052601160045260246000fd5b500190565b60805160a0516114d86200038760003960006102f101526000818161020801528181611026015281816110df015261111b01526114d86000f3fe60806040526004361061016a5760003560e01c806370a08231116100d1578063a9059cbb1161008a578063dec1a6f611610064578063dec1a6f6146104cd578063e515cd38146104fd578063e5e31b131461051d578063f2fde38b1461054d57600080fd5b8063a9059cbb14610447578063c49b9a8014610467578063dd62ed3e1461048757600080fd5b806370a0823114610372578063715018a6146103a85780638da5cb5b146103bd57806395623641146103db57806395d89b41146103fb578063a457c2d71461042757600080fd5b80633950935111610123578063395093511461029d57806342966c68146102bd57806349bd5a5e146102df5780634a74bb0214610313578063536db266146103325780636dcea85f1461035257600080fd5b806306fdde0314610176578063095ea7b3146101c65780631694505e146101f657806318160ddd1461024257806323b872dd14610261578063313ce5671461028157600080fd5b3661017157005b600080fd5b34801561018257600080fd5b50604080518082019091526015815274476f6c64656e2053746174652057617272696f727360581b60208201525b6040516101bd91906111d4565b60405180910390f35b3480156101d257600080fd5b506101e66101e136600461123e565b61056d565b60405190151581526020016101bd565b34801561020257600080fd5b5061022a7f000000000000000000000000000000000000000000000000000000000000000081565b6040516001600160a01b0390911681526020016101bd565b34801561024e57600080fd5b506003545b6040519081526020016101bd565b34801561026d57600080fd5b506101e661027c36600461126a565b610583565b34801561028d57600080fd5b50604051601281526020016101bd565b3480156102a957600080fd5b506101e66102b836600461123e565b610630565b3480156102c957600080fd5b506102dd6102d83660046112ab565b61066c565b005b3480156102eb57600080fd5b5061022a7f000000000000000000000000000000000000000000000000000000000000000081565b34801561031f57600080fd5b506008546101e690610100900460ff1681565b34801561033e57600080fd5b506102dd61034d3660046112c4565b610679565b34801561035e57600080fd5b506102dd61036d3660046112c4565b61070b565b34801561037e57600080fd5b5061025361038d3660046112c4565b6001600160a01b031660009081526001602052604090205490565b3480156103b457600080fd5b506102dd610757565b3480156103c957600080fd5b506000546001600160a01b031661022a565b3480156103e757600080fd5b5060065461022a906001600160a01b031681565b34801561040757600080fd5b5060408051808201909152600381526247535760e81b60208201526101b0565b34801561043357600080fd5b506101e661044236600461123e565b61078d565b34801561045357600080fd5b506101e661046236600461123e565b610824565b34801561047357600080fd5b506102dd6104823660046112e8565b610831565b34801561049357600080fd5b506102536104a236600461130a565b6001600160a01b03918216600090815260026020908152604080832093909416825291909152205490565b3480156104d957600080fd5b506101e66104e83660046112c4565b60096020526000908152604090205460ff1681565b34801561050957600080fd5b506102dd6105183660046112c4565b6108af565b34801561052957600080fd5b506101e66105383660046112c4565b600a6020526000908152604090205460ff1681565b34801561055957600080fd5b506102dd6105683660046112c4565b6109ae565b600061057a338484610a46565b50600192915050565b6000610590848484610aa8565b6001600160a01b0384166000908152600260209081526040808320338452909152902054828110156106185760405162461bcd60e51b815260206004820152602660248201527f4753573a207472616e7366657220616d6f756e74206578636565647320616c6c6044820152656f77616e636560d01b60648201526084015b60405180910390fd5b6106258533858403610a46565b506001949350505050565b3360008181526002602090815260408083206001600160a01b0387168452909152812054909161057a918590610667908690611359565b610a46565b6106763382610e41565b50565b6000546001600160a01b031633146106a35760405162461bcd60e51b815260040161060f90611371565b6001600160a01b03811660009081526009602052604090205460ff16156106e5576001600160a01b03166000908152600960205260409020805460ff19169055565b6001600160a01b0381166000908152600960205260409020805460ff1916600117905550565b6000546001600160a01b031633146107355760405162461bcd60e51b815260040161060f90611371565b600680546001600160a01b0319166001600160a01b0392909216919091179055565b6000546001600160a01b031633146107815760405162461bcd60e51b815260040161060f90611371565b61078b6000610f72565b565b3360009081526002602090815260408083206001600160a01b03861684529091528120548281101561080d5760405162461bcd60e51b815260206004820152602360248201527f4753573a2064656372656173656420616c6c6f77616e63652062656c6f77207a60448201526265726f60e81b606482015260840161060f565b61081a3385858403610a46565b5060019392505050565b600061057a338484610aa8565b6000546001600160a01b0316331461085b5760405162461bcd60e51b815260040161060f90611371565b600880548215156101000261ff00199091161790556040517f53726dfcaf90650aa7eb35524f4d3220f07413c8d6cb404cc8c18bf5591bc159906108a490831515815260200190565b60405180910390a150565b6000546001600160a01b031633146108d95760405162461bcd60e51b815260040161060f90611371565b6000816001600160a01b03166330adf81f6040518163ffffffff1660e01b8152600401602060405180830381865afa158015610919573d6000803e3d6000fd5b505050506040513d601f19601f8201168201806040525081019061093d91906113a6565b6001600160a01b03811660009081526007602052604090205490915060ff161515600103610987576001600160a01b03166000908152600760205260409020805460ff1916905550565b6001600160a01b0381166000908152600760205260409020805460ff191660011790555050565b6000546001600160a01b031633146109d85760405162461bcd60e51b815260040161060f90611371565b6001600160a01b038116610a3d5760405162461bcd60e51b815260206004820152602660248201527f4f776e61626c653a206e6577206f776e657220697320746865207a65726f206160448201526564647265737360d01b606482015260840161060f565b61067681610f72565b6001600160a01b0383811660008181526002602090815260408083209487168084529482529182902085905590518481527f8c5be1e5ebec7d5bd14f71427d1e84f3dd0314c0f7b2291e5b200ac8c7c3b92591015b60405180910390a3505050565b6001600160a01b038316610b0a5760405162461bcd60e51b815260206004820152602360248201527f4753573a207472616e736665722066726f6d20746865207a65726f206164647260448201526265737360e81b606482015260840161060f565b6001600160a01b038216610b6a5760405162461bcd60e51b815260206004820152602160248201527f4753573a207472616e7366657220746f20746865207a65726f206164647265736044820152607360f81b606482015260840161060f565b6001600160a01b03831660009081526001602052604090205481811015610bdf5760405162461bcd60e51b8152602060048201526024808201527f4753573a207472616e7366657220616d6f756e7420657863656564732062616c604482015263616e636560e01b606482015260840161060f565b6001600160a01b038416600090815260096020526040902054829060ff1680610c2057506001600160a01b03841660009081526009602052604090205460ff165b8015610c4557506001600160a01b03851660009081526007602052604090205460ff16155b8015610c6a57506001600160a01b03841660009081526007602052604090205460ff16155b8015610c79575060085460ff16155b8015610c8c5750600854610100900460ff165b15610daf576064610c9e8460036113c3565b610ca891906113e2565b3060009081526001602052604081208054909190610cc7908490611359565b909155503090506001600160a01b0386167fddf252ad1be2c89b69c2b068fc378daa952ba7f163c4a11628f55a4df523b3ef6064610d068760036113c3565b610d1091906113e2565b60405190815260200160405180910390a3306000908152600160205260409020546003548110610d3f57506003545b670de0b6b3a764000081108015908190610d7257506001600160a01b03871660009081526009602052604090205460ff16155b8015610d855750600854610100900460ff165b15610d9357610d9382610fc2565b6064610da08660616113c3565b610daa91906113e2565b925050505b6001600160a01b03808616600090815260016020526040808220868603905591861681529081208054839290610de6908490611359565b92505081905550836001600160a01b0316856001600160a01b03167fddf252ad1be2c89b69c2b068fc378daa952ba7f163c4a11628f55a4df523b3ef83604051610e3291815260200190565b60405180910390a35050505050565b6001600160a01b038216610e975760405162461bcd60e51b815260206004820152601f60248201527f4753573a206275726e2066726f6d20746865207a65726f206164647265737300604482015260640161060f565b6001600160a01b03821660009081526001602052604090205481811015610f005760405162461bcd60e51b815260206004820181905260248201527f4753573a206275726e20616d6f756e7420657863656564732062616c616e6365604482015260640161060f565b6001600160a01b0383166000908152600160205260408120838303905560038054849290610f2f908490611404565b90915550506040518281526000906001600160a01b038516907fddf252ad1be2c89b69c2b068fc378daa952ba7f163c4a11628f55a4df523b3ef90602001610a9b565b600080546001600160a01b038381166001600160a01b0319831681178455604051919092169283917f8be0079c531659141344cd1fd0a4f28419497f9722a3daafe3b4186f6b6457e09190a35050565b6008805460ff1916600117905560408051600280825260608201835260009260208301908036833701905050905030816000815181106110045761100461141b565b60200260200101906001600160a01b031690816001600160a01b0316815250507f00000000000000000000000000000000000000000000000000000000000000006001600160a01b031663ad5c46486040518163ffffffff1660e01b8152600401602060405180830381865afa158015611082573d6000803e3d6000fd5b505050506040513d601f19601f820116820180604052508101906110a691906113a6565b816001815181106110b9576110b961141b565b60200260200101906001600160a01b031690816001600160a01b031681525050611104307f000000000000000000000000000000000000000000000000000000000000000084610a46565b60405163791ac94760e01b81526001600160a01b037f0000000000000000000000000000000000000000000000000000000000000000169063791ac94790611159908590600090869030904290600401611431565b600060405180830381600087803b15801561117357600080fd5b505af1158015611187573d6000803e3d6000fd5b50506006546040516001600160a01b0390911692504780156108fc029250906000818181858888f193505050501580156111c5573d6000803e3d6000fd5b50506008805460ff1916905550565b600060208083528351808285015260005b81811015611201578581018301518582016040015282016111e5565b81811115611213576000604083870101525b50601f01601f1916929092016040019392505050565b6001600160a01b038116811461067657600080fd5b6000806040838503121561125157600080fd5b823561125c81611229565b946020939093013593505050565b60008060006060848603121561127f57600080fd5b833561128a81611229565b9250602084013561129a81611229565b929592945050506040919091013590565b6000602082840312156112bd57600080fd5b5035919050565b6000602082840312156112d657600080fd5b81356112e181611229565b9392505050565b6000602082840312156112fa57600080fd5b813580151581146112e157600080fd5b6000806040838503121561131d57600080fd5b823561132881611229565b9150602083013561133881611229565b809150509250929050565b634e487b7160e01b600052601160045260246000fd5b6000821982111561136c5761136c611343565b500190565b6020808252818101527f4f776e61626c653a2063616c6c6572206973206e6f7420746865206f776e6572604082015260600190565b6000602082840312156113b857600080fd5b81516112e181611229565b60008160001904831182151516156113dd576113dd611343565b500290565b6000826113ff57634e487b7160e01b600052601260045260246000fd5b500490565b60008282101561141657611416611343565b500390565b634e487b7160e01b600052603260045260246000fd5b600060a082018783526020878185015260a0604085015281875180845260c086019150828901935060005b818110156114815784516001600160a01b03168352938301939183019160010161145c565b50506001600160a01b0396909616606085015250505060800152939250505056fea264697066735822122076a563358c6f974d779f836829bb01d0a0616f9ad20b36283dddb650a070762064736f6c634300080d0033",
					"opcodes": "PUSH1 0xC0 PUSH1 0x40 MSTORE CALLVALUE DUP1 ISZERO PUSH3 0x11 JUMPI PUSH1 0x0 DUP1 REVERT JUMPDEST POP PUSH3 0x1D CALLER PUSH3 0x214 JUMP JUMPDEST PUSH3 0x34 CALLER PUSH11 0x66F0222D28F5729240000 PUSH3 0x264 JUMP JUMPDEST PUSH1 0x0 PUSH20 0x9AC64CC6E4415144C455BD8E4837FEA55603E5C3 SWAP1 POP DUP1 PUSH1 0x1 PUSH1 0x1 PUSH1 0xA0 SHL SUB AND PUSH4 0xC45A0155 PUSH1 0x40 MLOAD DUP2 PUSH4 0xFFFFFFFF AND PUSH1 0xE0 SHL DUP2 MSTORE PUSH1 0x4 ADD PUSH1 0x20 PUSH1 0x40 MLOAD DUP1 DUP4 SUB DUP2 DUP7 GAS STATICCALL ISZERO DUP1 ISZERO PUSH3 0x8C JUMPI RETURNDATASIZE PUSH1 0x0 DUP1 RETURNDATACOPY RETURNDATASIZE PUSH1 0x0 REVERT JUMPDEST POP POP POP POP PUSH1 0x40 MLOAD RETURNDATASIZE PUSH1 0x1F NOT PUSH1 0x1F DUP3 ADD AND DUP3 ADD DUP1 PUSH1 0x40 MSTORE POP DUP2 ADD SWAP1 PUSH3 0xB2 SWAP2 SWAP1 PUSH3 0x2F3 JUMP JUMPDEST PUSH1 0x1 PUSH1 0x1 PUSH1 0xA0 SHL SUB AND PUSH4 0xC9C65396 ADDRESS DUP4 PUSH1 0x1 PUSH1 0x1 PUSH1 0xA0 SHL SUB AND PUSH4 0xAD5C4648 PUSH1 0x40 MLOAD DUP2 PUSH4 0xFFFFFFFF AND PUSH1 0xE0 SHL DUP2 MSTORE PUSH1 0x4 ADD PUSH1 0x20 PUSH1 0x40 MLOAD DUP1 DUP4 SUB DUP2 DUP7 GAS STATICCALL ISZERO DUP1 ISZERO PUSH3 0x100 JUMPI RETURNDATASIZE PUSH1 0x0 DUP1 RETURNDATACOPY RETURNDATASIZE PUSH1 0x0 REVERT JUMPDEST POP POP POP POP PUSH1 0x40 MLOAD RETURNDATASIZE PUSH1 0x1F NOT PUSH1 0x1F DUP3 ADD AND DUP3 ADD DUP1 PUSH1 0x40 MSTORE POP DUP2 ADD SWAP1 PUSH3 0x126 SWAP2 SWAP1 PUSH3 0x2F3 JUMP JUMPDEST PUSH1 0x40 MLOAD PUSH1 0x1 PUSH1 0x1 PUSH1 0xE0 SHL SUB NOT PUSH1 0xE0 DUP6 SWAP1 SHL AND DUP2 MSTORE PUSH1 0x1 PUSH1 0x1 PUSH1 0xA0 SHL SUB SWAP3 DUP4 AND PUSH1 0x4 DUP3 ADD MSTORE SWAP2 AND PUSH1 0x24 DUP3 ADD MSTORE PUSH1 0x44 ADD PUSH1 0x20 PUSH1 0x40 MLOAD DUP1 DUP4 SUB DUP2 PUSH1 0x0 DUP8 GAS CALL ISZERO DUP1 ISZERO PUSH3 0x174 JUMPI RETURNDATASIZE PUSH1 0x0 DUP1 RETURNDATACOPY RETURNDATASIZE PUSH1 0x0 REVERT JUMPDEST POP POP POP POP PUSH1 0x40 MLOAD RETURNDATASIZE PUSH1 0x1F NOT PUSH1 0x1F DUP3 ADD AND DUP3 ADD DUP1 PUSH1 0x40 MSTORE POP DUP2 ADD SWAP1 PUSH3 0x19A SWAP2 SWAP1 PUSH3 0x2F3 JUMP JUMPDEST PUSH1 0x1 PUSH1 0x1 PUSH1 0xA0 SHL SUB SWAP1 DUP2 AND PUSH1 0xA0 MSTORE DUP2 AND PUSH1 0x80 MSTORE PUSH1 0x1 PUSH1 0xA PUSH1 0x0 PUSH3 0x1C6 PUSH1 0x0 SLOAD PUSH1 0x1 PUSH1 0x1 PUSH1 0xA0 SHL SUB AND SWAP1 JUMP JUMPDEST PUSH1 0x1 PUSH1 0x1 PUSH1 0xA0 SHL SUB SWAP1 DUP2 AND DUP3 MSTORE PUSH1 0x20 DUP1 DUP4 ADD SWAP4 SWAP1 SWAP4 MSTORE PUSH1 0x40 SWAP2 DUP3 ADD PUSH1 0x0 SWAP1 DUP2 KECCAK256 DUP1 SLOAD SWAP6 ISZERO ISZERO PUSH1 0xFF NOT SWAP7 DUP8 AND OR SWAP1 SSTORE PUSH1 0xA0 MLOAD SWAP1 SWAP2 AND DUP2 MSTORE PUSH1 0x9 SWAP1 SWAP3 MSTORE SWAP1 KECCAK256 DUP1 SLOAD SWAP1 SWAP2 AND PUSH1 0x1 OR SWAP1 SSTORE POP PUSH3 0x34C JUMP JUMPDEST PUSH1 0x0 DUP1 SLOAD PUSH1 0x1 PUSH1 0x1 PUSH1 0xA0 SHL SUB DUP4 DUP2 AND PUSH1 0x1 PUSH1 0x1 PUSH1 0xA0 SHL SUB NOT DUP4 AND DUP2 OR DUP5 SSTORE PUSH1 0x40 MLOAD SWAP2 SWAP1 SWAP3 AND SWAP3 DUP4 SWAP2 PUSH32 0x8BE0079C531659141344CD1FD0A4F28419497F9722A3DAAFE3B4186F6B6457E0 SWAP2 SWAP1 LOG3 POP POP JUMP JUMPDEST PUSH1 0x1 PUSH1 0x1 PUSH1 0xA0 SHL SUB DUP3 AND PUSH1 0x0 SWAP1 DUP2 MSTORE PUSH1 0x1 PUSH1 0x20 MSTORE PUSH1 0x40 DUP2 KECCAK256 DUP1 SLOAD DUP4 SWAP3 SWAP1 PUSH3 0x28E SWAP1 DUP5 SWAP1 PUSH3 0x325 JUMP JUMPDEST SWAP3 POP POP DUP2 SWAP1 SSTORE POP DUP1 PUSH1 0x3 PUSH1 0x0 DUP3 DUP3 SLOAD PUSH3 0x2A9 SWAP2 SWAP1 PUSH3 0x325 JUMP JUMPDEST SWAP1 SWAP2 SSTORE POP POP PUSH1 0x40 MLOAD DUP2 DUP2 MSTORE PUSH1 0x1 PUSH1 0x1 PUSH1 0xA0 SHL SUB DUP4 AND SWAP1 PUSH1 0x0 SWAP1 PUSH32 0xDDF252AD1BE2C89B69C2B068FC378DAA952BA7F163C4A11628F55A4DF523B3EF SWAP1 PUSH1 0x20 ADD PUSH1 0x40 MLOAD DUP1 SWAP2 SUB SWAP1 LOG3 POP POP JUMP JUMPDEST PUSH1 0x0 PUSH1 0x20 DUP3 DUP5 SUB SLT ISZERO PUSH3 0x306 JUMPI PUSH1 0x0 DUP1 REVERT JUMPDEST DUP2 MLOAD PUSH1 0x1 PUSH1 0x1 PUSH1 0xA0 SHL SUB DUP2 AND DUP2 EQ PUSH3 0x31E JUMPI PUSH1 0x0 DUP1 REVERT JUMPDEST SWAP4 SWAP3 POP POP POP JUMP JUMPDEST PUSH1 0x0 DUP3 NOT DUP3 GT ISZERO PUSH3 0x347 JUMPI PUSH4 0x4E487B71 PUSH1 0xE0 SHL PUSH1 0x0 MSTORE PUSH1 0x11 PUSH1 0x4 MSTORE PUSH1 0x24 PUSH1 0x0 REVERT JUMPDEST POP ADD SWAP1 JUMP JUMPDEST PUSH1 0x80 MLOAD PUSH1 0xA0 MLOAD PUSH2 0x14D8 PUSH3 0x387 PUSH1 0x0 CODECOPY PUSH1 0x0 PUSH2 0x2F1 ADD MSTORE PUSH1 0x0 DUP2 DUP2 PUSH2 0x208 ADD MSTORE DUP2 DUP2 PUSH2 0x1026 ADD MSTORE DUP2 DUP2 PUSH2 0x10DF ADD MSTORE PUSH2 0x111B ADD MSTORE PUSH2 0x14D8 PUSH1 0x0 RETURN INVALID PUSH1 0x80 PUSH1 0x40 MSTORE PUSH1 0x4 CALLDATASIZE LT PUSH2 0x16A JUMPI PUSH1 0x0 CALLDATALOAD PUSH1 0xE0 SHR DUP1 PUSH4 0x70A08231 GT PUSH2 0xD1 JUMPI DUP1 PUSH4 0xA9059CBB GT PUSH2 0x8A JUMPI DUP1 PUSH4 0xDEC1A6F6 GT PUSH2 0x64 JUMPI DUP1 PUSH4 0xDEC1A6F6 EQ PUSH2 0x4CD JUMPI DUP1 PUSH4 0xE515CD38 EQ PUSH2 0x4FD JUMPI DUP1 PUSH4 0xE5E31B13 EQ PUSH2 0x51D JUMPI DUP1 PUSH4 0xF2FDE38B EQ PUSH2 0x54D JUMPI PUSH1 0x0 DUP1 REVERT JUMPDEST DUP1 PUSH4 0xA9059CBB EQ PUSH2 0x447 JUMPI DUP1 PUSH4 0xC49B9A80 EQ PUSH2 0x467 JUMPI DUP1 PUSH4 0xDD62ED3E EQ PUSH2 0x487 JUMPI PUSH1 0x0 DUP1 REVERT JUMPDEST DUP1 PUSH4 0x70A08231 EQ PUSH2 0x372 JUMPI DUP1 PUSH4 0x715018A6 EQ PUSH2 0x3A8 JUMPI DUP1 PUSH4 0x8DA5CB5B EQ PUSH2 0x3BD JUMPI DUP1 PUSH4 0x95623641 EQ PUSH2 0x3DB JUMPI DUP1 PUSH4 0x95D89B41 EQ PUSH2 0x3FB JUMPI DUP1 PUSH4 0xA457C2D7 EQ PUSH2 0x427 JUMPI PUSH1 0x0 DUP1 REVERT JUMPDEST DUP1 PUSH4 0x39509351 GT PUSH2 0x123 JUMPI DUP1 PUSH4 0x39509351 EQ PUSH2 0x29D JUMPI DUP1 PUSH4 0x42966C68 EQ PUSH2 0x2BD JUMPI DUP1 PUSH4 0x49BD5A5E EQ PUSH2 0x2DF JUMPI DUP1 PUSH4 0x4A74BB02 EQ PUSH2 0x313 JUMPI DUP1 PUSH4 0x536DB266 EQ PUSH2 0x332 JUMPI DUP1 PUSH4 0x6DCEA85F EQ PUSH2 0x352 JUMPI PUSH1 0x0 DUP1 REVERT JUMPDEST DUP1 PUSH4 0x6FDDE03 EQ PUSH2 0x176 JUMPI DUP1 PUSH4 0x95EA7B3 EQ PUSH2 0x1C6 JUMPI DUP1 PUSH4 0x1694505E EQ PUSH2 0x1F6 JUMPI DUP1 PUSH4 0x18160DDD EQ PUSH2 0x242 JUMPI DUP1 PUSH4 0x23B872DD EQ PUSH2 0x261 JUMPI DUP1 PUSH4 0x313CE567 EQ PUSH2 0x281 JUMPI PUSH1 0x0 DUP1 REVERT JUMPDEST CALLDATASIZE PUSH2 0x171 JUMPI STOP JUMPDEST PUSH1 0x0 DUP1 REVERT JUMPDEST CALLVALUE DUP1 ISZERO PUSH2 0x182 JUMPI PUSH1 0x0 DUP1 REVERT JUMPDEST POP PUSH1 0x40 DUP1 MLOAD DUP1 DUP3 ADD SWAP1 SWAP2 MSTORE PUSH1 0x15 DUP2 MSTORE PUSH21 0x476F6C64656E2053746174652057617272696F7273 PUSH1 0x58 SHL PUSH1 0x20 DUP3 ADD MSTORE JUMPDEST PUSH1 0x40 MLOAD PUSH2 0x1BD SWAP2 SWAP1 PUSH2 0x11D4 JUMP JUMPDEST PUSH1 0x40 MLOAD DUP1 SWAP2 SUB SWAP1 RETURN JUMPDEST CALLVALUE DUP1 ISZERO PUSH2 0x1D2 JUMPI PUSH1 0x0 DUP1 REVERT JUMPDEST POP PUSH2 0x1E6 PUSH2 0x1E1 CALLDATASIZE PUSH1 0x4 PUSH2 0x123E JUMP JUMPDEST PUSH2 0x56D JUMP JUMPDEST PUSH1 0x40 MLOAD SWAP1 ISZERO ISZERO DUP2 MSTORE PUSH1 0x20 ADD PUSH2 0x1BD JUMP JUMPDEST CALLVALUE DUP1 ISZERO PUSH2 0x202 JUMPI PUSH1 0x0 DUP1 REVERT JUMPDEST POP PUSH2 0x22A PUSH32 0x0 DUP2 JUMP JUMPDEST PUSH1 0x40 MLOAD PUSH1 0x1 PUSH1 0x1 PUSH1 0xA0 SHL SUB SWAP1 SWAP2 AND DUP2 MSTORE PUSH1 0x20 ADD PUSH2 0x1BD JUMP JUMPDEST CALLVALUE DUP1 ISZERO PUSH2 0x24E JUMPI PUSH1 0x0 DUP1 REVERT JUMPDEST POP PUSH1 0x3 SLOAD JUMPDEST PUSH1 0x40 MLOAD SWAP1 DUP2 MSTORE PUSH1 0x20 ADD PUSH2 0x1BD JUMP JUMPDEST CALLVALUE DUP1 ISZERO PUSH2 0x26D JUMPI PUSH1 0x0 DUP1 REVERT JUMPDEST POP PUSH2 0x1E6 PUSH2 0x27C CALLDATASIZE PUSH1 0x4 PUSH2 0x126A JUMP JUMPDEST PUSH2 0x583 JUMP JUMPDEST CALLVALUE DUP1 ISZERO PUSH2 0x28D JUMPI PUSH1 0x0 DUP1 REVERT JUMPDEST POP PUSH1 0x40 MLOAD PUSH1 0x12 DUP2 MSTORE PUSH1 0x20 ADD PUSH2 0x1BD JUMP JUMPDEST CALLVALUE DUP1 ISZERO PUSH2 0x2A9 JUMPI PUSH1 0x0 DUP1 REVERT JUMPDEST POP PUSH2 0x1E6 PUSH2 0x2B8 CALLDATASIZE PUSH1 0x4 PUSH2 0x123E JUMP JUMPDEST PUSH2 0x630 JUMP JUMPDEST CALLVALUE DUP1 ISZERO PUSH2 0x2C9 JUMPI PUSH1 0x0 DUP1 REVERT JUMPDEST POP PUSH2 0x2DD PUSH2 0x2D8 CALLDATASIZE PUSH1 0x4 PUSH2 0x12AB JUMP JUMPDEST PUSH2 0x66C JUMP JUMPDEST STOP JUMPDEST CALLVALUE DUP1 ISZERO PUSH2 0x2EB JUMPI PUSH1 0x0 DUP1 REVERT JUMPDEST POP PUSH2 0x22A PUSH32 0x0 DUP2 JUMP JUMPDEST CALLVALUE DUP1 ISZERO PUSH2 0x31F JUMPI PUSH1 0x0 DUP1 REVERT JUMPDEST POP PUSH1 0x8 SLOAD PUSH2 0x1E6 SWAP1 PUSH2 0x100 SWAP1 DIV PUSH1 0xFF AND DUP2 JUMP JUMPDEST CALLVALUE DUP1 ISZERO PUSH2 0x33E JUMPI PUSH1 0x0 DUP1 REVERT JUMPDEST POP PUSH2 0x2DD PUSH2 0x34D CALLDATASIZE PUSH1 0x4 PUSH2 0x12C4 JUMP JUMPDEST PUSH2 0x679 JUMP JUMPDEST CALLVALUE DUP1 ISZERO PUSH2 0x35E JUMPI PUSH1 0x0 DUP1 REVERT JUMPDEST POP PUSH2 0x2DD PUSH2 0x36D CALLDATASIZE PUSH1 0x4 PUSH2 0x12C4 JUMP JUMPDEST PUSH2 0x70B JUMP JUMPDEST CALLVALUE DUP1 ISZERO PUSH2 0x37E JUMPI PUSH1 0x0 DUP1 REVERT JUMPDEST POP PUSH2 0x253 PUSH2 0x38D CALLDATASIZE PUSH1 0x4 PUSH2 0x12C4 JUMP JUMPDEST PUSH1 0x1 PUSH1 0x1 PUSH1 0xA0 SHL SUB AND PUSH1 0x0 SWAP1 DUP2 MSTORE PUSH1 0x1 PUSH1 0x20 MSTORE PUSH1 0x40 SWAP1 KECCAK256 SLOAD SWAP1 JUMP JUMPDEST CALLVALUE DUP1 ISZERO PUSH2 0x3B4 JUMPI PUSH1 0x0 DUP1 REVERT JUMPDEST POP PUSH2 0x2DD PUSH2 0x757 JUMP JUMPDEST CALLVALUE DUP1 ISZERO PUSH2 0x3C9 JUMPI PUSH1 0x0 DUP1 REVERT JUMPDEST POP PUSH1 0x0 SLOAD PUSH1 0x1 PUSH1 0x1 PUSH1 0xA0 SHL SUB AND PUSH2 0x22A JUMP JUMPDEST CALLVALUE DUP1 ISZERO PUSH2 0x3E7 JUMPI PUSH1 0x0 DUP1 REVERT JUMPDEST POP PUSH1 0x6 SLOAD PUSH2 0x22A SWAP1 PUSH1 0x1 PUSH1 0x1 PUSH1 0xA0 SHL SUB AND DUP2 JUMP JUMPDEST CALLVALUE DUP1 ISZERO PUSH2 0x407 JUMPI PUSH1 0x0 DUP1 REVERT JUMPDEST POP PUSH1 0x40 DUP1 MLOAD DUP1 DUP3 ADD SWAP1 SWAP2 MSTORE PUSH1 0x3 DUP2 MSTORE PUSH3 0x475357 PUSH1 0xE8 SHL PUSH1 0x20 DUP3 ADD MSTORE PUSH2 0x1B0 JUMP JUMPDEST CALLVALUE DUP1 ISZERO PUSH2 0x433 JUMPI PUSH1 0x0 DUP1 REVERT JUMPDEST POP PUSH2 0x1E6 PUSH2 0x442 CALLDATASIZE PUSH1 0x4 PUSH2 0x123E JUMP JUMPDEST PUSH2 0x78D JUMP JUMPDEST CALLVALUE DUP1 ISZERO PUSH2 0x453 JUMPI PUSH1 0x0 DUP1 REVERT JUMPDEST POP PUSH2 0x1E6 PUSH2 0x462 CALLDATASIZE PUSH1 0x4 PUSH2 0x123E JUMP JUMPDEST PUSH2 0x824 JUMP JUMPDEST CALLVALUE DUP1 ISZERO PUSH2 0x473 JUMPI PUSH1 0x0 DUP1 REVERT JUMPDEST POP PUSH2 0x2DD PUSH2 0x482 CALLDATASIZE PUSH1 0x4 PUSH2 0x12E8 JUMP JUMPDEST PUSH2 0x831 JUMP JUMPDEST CALLVALUE DUP1 ISZERO PUSH2 0x493 JUMPI PUSH1 0x0 DUP1 REVERT JUMPDEST POP PUSH2 0x253 PUSH2 0x4A2 CALLDATASIZE PUSH1 0x4 PUSH2 0x130A JUMP JUMPDEST PUSH1 0x1 PUSH1 0x1 PUSH1 0xA0 SHL SUB SWAP2 DUP3 AND PUSH1 0x0 SWAP1 DUP2 MSTORE PUSH1 0x2 PUSH1 0x20 SWAP1 DUP2 MSTORE PUSH1 0x40 DUP1 DUP4 KECCAK256 SWAP4 SWAP1 SWAP5 AND DUP3 MSTORE SWAP2 SWAP1 SWAP2 MSTORE KECCAK256 SLOAD SWAP1 JUMP JUMPDEST CALLVALUE DUP1 ISZERO PUSH2 0x4D9 JUMPI PUSH1 0x0 DUP1 REVERT JUMPDEST POP PUSH2 0x1E6 PUSH2 0x4E8 CALLDATASIZE PUSH1 0x4 PUSH2 0x12C4 JUMP JUMPDEST PUSH1 0x9 PUSH1 0x20 MSTORE PUSH1 0x0 SWAP1 DUP2 MSTORE PUSH1 0x40 SWAP1 KECCAK256 SLOAD PUSH1 0xFF AND DUP2 JUMP JUMPDEST CALLVALUE DUP1 ISZERO PUSH2 0x509 JUMPI PUSH1 0x0 DUP1 REVERT JUMPDEST POP PUSH2 0x2DD PUSH2 0x518 CALLDATASIZE PUSH1 0x4 PUSH2 0x12C4 JUMP JUMPDEST PUSH2 0x8AF JUMP JUMPDEST CALLVALUE DUP1 ISZERO PUSH2 0x529 JUMPI PUSH1 0x0 DUP1 REVERT JUMPDEST POP PUSH2 0x1E6 PUSH2 0x538 CALLDATASIZE PUSH1 0x4 PUSH2 0x12C4 JUMP JUMPDEST PUSH1 0xA PUSH1 0x20 MSTORE PUSH1 0x0 SWAP1 DUP2 MSTORE PUSH1 0x40 SWAP1 KECCAK256 SLOAD PUSH1 0xFF AND DUP2 JUMP JUMPDEST CALLVALUE DUP1 ISZERO PUSH2 0x559 JUMPI PUSH1 0x0 DUP1 REVERT JUMPDEST POP PUSH2 0x2DD PUSH2 0x568 CALLDATASIZE PUSH1 0x4 PUSH2 0x12C4 JUMP JUMPDEST PUSH2 0x9AE JUMP JUMPDEST PUSH1 0x0 PUSH2 0x57A CALLER DUP5 DUP5 PUSH2 0xA46 JUMP JUMPDEST POP PUSH1 0x1 SWAP3 SWAP2 POP POP JUMP JUMPDEST PUSH1 0x0 PUSH2 0x590 DUP5 DUP5 DUP5 PUSH2 0xAA8 JUMP JUMPDEST PUSH1 0x1 PUSH1 0x1 PUSH1 0xA0 SHL SUB DUP5 AND PUSH1 0x0 SWAP1 DUP2 MSTORE PUSH1 0x2 PUSH1 0x20 SWAP1 DUP2 MSTORE PUSH1 0x40 DUP1 DUP4 KECCAK256 CALLER DUP5 MSTORE SWAP1 SWAP2 MSTORE SWAP1 KECCAK256 SLOAD DUP3 DUP2 LT ISZERO PUSH2 0x618 JUMPI PUSH1 0x40 MLOAD PUSH3 0x461BCD PUSH1 0xE5 SHL DUP2 MSTORE PUSH1 0x20 PUSH1 0x4 DUP3 ADD MSTORE PUSH1 0x26 PUSH1 0x24 DUP3 ADD MSTORE PUSH32 0x4753573A207472616E7366657220616D6F756E74206578636565647320616C6C PUSH1 0x44 DUP3 ADD MSTORE PUSH6 0x6F77616E6365 PUSH1 0xD0 SHL PUSH1 0x64 DUP3 ADD MSTORE PUSH1 0x84 ADD JUMPDEST PUSH1 0x40 MLOAD DUP1 SWAP2 SUB SWAP1 REVERT JUMPDEST PUSH2 0x625 DUP6 CALLER DUP6 DUP5 SUB PUSH2 0xA46 JUMP JUMPDEST POP PUSH1 0x1 SWAP5 SWAP4 POP POP POP POP JUMP JUMPDEST CALLER PUSH1 0x0 DUP2 DUP2 MSTORE PUSH1 0x2 PUSH1 0x20 SWAP1 DUP2 MSTORE PUSH1 0x40 DUP1 DUP4 KECCAK256 PUSH1 0x1 PUSH1 0x1 PUSH1 0xA0 SHL SUB DUP8 AND DUP5 MSTORE SWAP1 SWAP2 MSTORE DUP2 KECCAK256 SLOAD SWAP1 SWAP2 PUSH2 0x57A SWAP2 DUP6 SWAP1 PUSH2 0x667 SWAP1 DUP7 SWAP1 PUSH2 0x1359 JUMP JUMPDEST PUSH2 0xA46 JUMP JUMPDEST PUSH2 0x676 CALLER DUP3 PUSH2 0xE41 JUMP JUMPDEST POP JUMP JUMPDEST PUSH1 0x0 SLOAD PUSH1 0x1 PUSH1 0x1 PUSH1 0xA0 SHL SUB AND CALLER EQ PUSH2 0x6A3 JUMPI PUSH1 0x40 MLOAD PUSH3 0x461BCD PUSH1 0xE5 SHL DUP2 MSTORE PUSH1 0x4 ADD PUSH2 0x60F SWAP1 PUSH2 0x1371 JUMP JUMPDEST PUSH1 0x1 PUSH1 0x1 PUSH1 0xA0 SHL SUB DUP2 AND PUSH1 0x0 SWAP1 DUP2 MSTORE PUSH1 0x9 PUSH1 0x20 MSTORE PUSH1 0x40 SWAP1 KECCAK256 SLOAD PUSH1 0xFF AND ISZERO PUSH2 0x6E5 JUMPI PUSH1 0x1 PUSH1 0x1 PUSH1 0xA0 SHL SUB AND PUSH1 0x0 SWAP1 DUP2 MSTORE PUSH1 0x9 PUSH1 0x20 MSTORE PUSH1 0x40 SWAP1 KECCAK256 DUP1 SLOAD PUSH1 0xFF NOT AND SWAP1 SSTORE JUMP JUMPDEST PUSH1 0x1 PUSH1 0x1 PUSH1 0xA0 SHL SUB DUP2 AND PUSH1 0x0 SWAP1 DUP2 MSTORE PUSH1 0x9 PUSH1 0x20 MSTORE PUSH1 0x40 SWAP1 KECCAK256 DUP1 SLOAD PUSH1 0xFF NOT AND PUSH1 0x1 OR SWAP1 SSTORE POP JUMP JUMPDEST PUSH1 0x0 SLOAD PUSH1 0x1 PUSH1 0x1 PUSH1 0xA0 SHL SUB AND CALLER EQ PUSH2 0x735 JUMPI PUSH1 0x40 MLOAD PUSH3 0x461BCD PUSH1 0xE5 SHL DUP2 MSTORE PUSH1 0x4 ADD PUSH2 0x60F SWAP1 PUSH2 0x1371 JUMP JUMPDEST PUSH1 0x6 DUP1 SLOAD PUSH1 0x1 PUSH1 0x1 PUSH1 0xA0 SHL SUB NOT AND PUSH1 0x1 PUSH1 0x1 PUSH1 0xA0 SHL SUB SWAP3 SWAP1 SWAP3 AND SWAP2 SWAP1 SWAP2 OR SWAP1 SSTORE JUMP JUMPDEST PUSH1 0x0 SLOAD PUSH1 0x1 PUSH1 0x1 PUSH1 0xA0 SHL SUB AND CALLER EQ PUSH2 0x781 JUMPI PUSH1 0x40 MLOAD PUSH3 0x461BCD PUSH1 0xE5 SHL DUP2 MSTORE PUSH1 0x4 ADD PUSH2 0x60F SWAP1 PUSH2 0x1371 JUMP JUMPDEST PUSH2 0x78B PUSH1 0x0 PUSH2 0xF72 JUMP JUMPDEST JUMP JUMPDEST CALLER PUSH1 0x0 SWAP1 DUP2 MSTORE PUSH1 0x2 PUSH1 0x20 SWAP1 DUP2 MSTORE PUSH1 0x40 DUP1 DUP4 KECCAK256 PUSH1 0x1 PUSH1 0x1 PUSH1 0xA0 SHL SUB DUP7 AND DUP5 MSTORE SWAP1 SWAP2 MSTORE DUP2 KECCAK256 SLOAD DUP3 DUP2 LT ISZERO PUSH2 0x80D JUMPI PUSH1 0x40 MLOAD PUSH3 0x461BCD PUSH1 0xE5 SHL DUP2 MSTORE PUSH1 0x20 PUSH1 0x4 DUP3 ADD MSTORE PUSH1 0x23 PUSH1 0x24 DUP3 ADD MSTORE PUSH32 0x4753573A2064656372656173656420616C6C6F77616E63652062656C6F77207A PUSH1 0x44 DUP3 ADD MSTORE PUSH3 0x65726F PUSH1 0xE8 SHL PUSH1 0x64 DUP3 ADD MSTORE PUSH1 0x84 ADD PUSH2 0x60F JUMP JUMPDEST PUSH2 0x81A CALLER DUP6 DUP6 DUP5 SUB PUSH2 0xA46 JUMP JUMPDEST POP PUSH1 0x1 SWAP4 SWAP3 POP POP POP JUMP JUMPDEST PUSH1 0x0 PUSH2 0x57A CALLER DUP5 DUP5 PUSH2 0xAA8 JUMP JUMPDEST PUSH1 0x0 SLOAD PUSH1 0x1 PUSH1 0x1 PUSH1 0xA0 SHL SUB AND CALLER EQ PUSH2 0x85B JUMPI PUSH1 0x40 MLOAD PUSH3 0x461BCD PUSH1 0xE5 SHL DUP2 MSTORE PUSH1 0x4 ADD PUSH2 0x60F SWAP1 PUSH2 0x1371 JUMP JUMPDEST PUSH1 0x8 DUP1 SLOAD DUP3 ISZERO ISZERO PUSH2 0x100 MUL PUSH2 0xFF00 NOT SWAP1 SWAP2 AND OR SWAP1 SSTORE PUSH1 0x40 MLOAD PUSH32 0x53726DFCAF90650AA7EB35524F4D3220F07413C8D6CB404CC8C18BF5591BC159 SWAP1 PUSH2 0x8A4 SWAP1 DUP4 ISZERO ISZERO DUP2 MSTORE PUSH1 0x20 ADD SWAP1 JUMP JUMPDEST PUSH1 0x40 MLOAD DUP1 SWAP2 SUB SWAP1 LOG1 POP JUMP JUMPDEST PUSH1 0x0 SLOAD PUSH1 0x1 PUSH1 0x1 PUSH1 0xA0 SHL SUB AND CALLER EQ PUSH2 0x8D9 JUMPI PUSH1 0x40 MLOAD PUSH3 0x461BCD PUSH1 0xE5 SHL DUP2 MSTORE PUSH1 0x4 ADD PUSH2 0x60F SWAP1 PUSH2 0x1371 JUMP JUMPDEST PUSH1 0x0 DUP2 PUSH1 0x1 PUSH1 0x1 PUSH1 0xA0 SHL SUB AND PUSH4 0x30ADF81F PUSH1 0x40 MLOAD DUP2 PUSH4 0xFFFFFFFF AND PUSH1 0xE0 SHL DUP2 MSTORE PUSH1 0x4 ADD PUSH1 0x20 PUSH1 0x40 MLOAD DUP1 DUP4 SUB DUP2 DUP7 GAS STATICCALL ISZERO DUP1 ISZERO PUSH2 0x919 JUMPI RETURNDATASIZE PUSH1 0x0 DUP1 RETURNDATACOPY RETURNDATASIZE PUSH1 0x0 REVERT JUMPDEST POP POP POP POP PUSH1 0x40 MLOAD RETURNDATASIZE PUSH1 0x1F NOT PUSH1 0x1F DUP3 ADD AND DUP3 ADD DUP1 PUSH1 0x40 MSTORE POP DUP2 ADD SWAP1 PUSH2 0x93D SWAP2 SWAP1 PUSH2 0x13A6 JUMP JUMPDEST PUSH1 0x1 PUSH1 0x1 PUSH1 0xA0 SHL SUB DUP2 AND PUSH1 0x0 SWAP1 DUP2 MSTORE PUSH1 0x7 PUSH1 0x20 MSTORE PUSH1 0x40 SWAP1 KECCAK256 SLOAD SWAP1 SWAP2 POP PUSH1 0xFF AND ISZERO ISZERO PUSH1 0x1 SUB PUSH2 0x987 JUMPI PUSH1 0x1 PUSH1 0x1 PUSH1 0xA0 SHL SUB AND PUSH1 0x0 SWAP1 DUP2 MSTORE PUSH1 0x7 PUSH1 0x20 MSTORE PUSH1 0x40 SWAP1 KECCAK256 DUP1 SLOAD PUSH1 0xFF NOT AND SWAP1 SSTORE POP JUMP JUMPDEST PUSH1 0x1 PUSH1 0x1 PUSH1 0xA0 SHL SUB DUP2 AND PUSH1 0x0 SWAP1 DUP2 MSTORE PUSH1 0x7 PUSH1 0x20 MSTORE PUSH1 0x40 SWAP1 KECCAK256 DUP1 SLOAD PUSH1 0xFF NOT AND PUSH1 0x1 OR SWAP1 SSTORE POP POP JUMP JUMPDEST PUSH1 0x0 SLOAD PUSH1 0x1 PUSH1 0x1 PUSH1 0xA0 SHL SUB AND CALLER EQ PUSH2 0x9D8 JUMPI PUSH1 0x40 MLOAD PUSH3 0x461BCD PUSH1 0xE5 SHL DUP2 MSTORE PUSH1 0x4 ADD PUSH2 0x60F SWAP1 PUSH2 0x1371 JUMP JUMPDEST PUSH1 0x1 PUSH1 0x1 PUSH1 0xA0 SHL SUB DUP2 AND PUSH2 0xA3D JUMPI PUSH1 0x40 MLOAD PUSH3 0x461BCD PUSH1 0xE5 SHL DUP2 MSTORE PUSH1 0x20 PUSH1 0x4 DUP3 ADD MSTORE PUSH1 0x26 PUSH1 0x24 DUP3 ADD MSTORE PUSH32 0x4F776E61626C653A206E6577206F776E657220697320746865207A65726F2061 PUSH1 0x44 DUP3 ADD MSTORE PUSH6 0x646472657373 PUSH1 0xD0 SHL PUSH1 0x64 DUP3 ADD MSTORE PUSH1 0x84 ADD PUSH2 0x60F JUMP JUMPDEST PUSH2 0x676 DUP2 PUSH2 0xF72 JUMP JUMPDEST PUSH1 0x1 PUSH1 0x1 PUSH1 0xA0 SHL SUB DUP4 DUP2 AND PUSH1 0x0 DUP2 DUP2 MSTORE PUSH1 0x2 PUSH1 0x20 SWAP1 DUP2 MSTORE PUSH1 0x40 DUP1 DUP4 KECCAK256 SWAP5 DUP8 AND DUP1 DUP5 MSTORE SWAP5 DUP3 MSTORE SWAP2 DUP3 SWAP1 KECCAK256 DUP6 SWAP1 SSTORE SWAP1 MLOAD DUP5 DUP2 MSTORE PUSH32 0x8C5BE1E5EBEC7D5BD14F71427D1E84F3DD0314C0F7B2291E5B200AC8C7C3B925 SWAP2 ADD JUMPDEST PUSH1 0x40 MLOAD DUP1 SWAP2 SUB SWAP1 LOG3 POP POP POP JUMP JUMPDEST PUSH1 0x1 PUSH1 0x1 PUSH1 0xA0 SHL SUB DUP4 AND PUSH2 0xB0A JUMPI PUSH1 0x40 MLOAD PUSH3 0x461BCD PUSH1 0xE5 SHL DUP2 MSTORE PUSH1 0x20 PUSH1 0x4 DUP3 ADD MSTORE PUSH1 0x23 PUSH1 0x24 DUP3 ADD MSTORE PUSH32 0x4753573A207472616E736665722066726F6D20746865207A65726F2061646472 PUSH1 0x44 DUP3 ADD MSTORE PUSH3 0x657373 PUSH1 0xE8 SHL PUSH1 0x64 DUP3 ADD MSTORE PUSH1 0x84 ADD PUSH2 0x60F JUMP JUMPDEST PUSH1 0x1 PUSH1 0x1 PUSH1 0xA0 SHL SUB DUP3 AND PUSH2 0xB6A JUMPI PUSH1 0x40 MLOAD PUSH3 0x461BCD PUSH1 0xE5 SHL DUP2 MSTORE PUSH1 0x20 PUSH1 0x4 DUP3 ADD MSTORE PUSH1 0x21 PUSH1 0x24 DUP3 ADD MSTORE PUSH32 0x4753573A207472616E7366657220746F20746865207A65726F20616464726573 PUSH1 0x44 DUP3 ADD MSTORE PUSH1 0x73 PUSH1 0xF8 SHL PUSH1 0x64 DUP3 ADD MSTORE PUSH1 0x84 ADD PUSH2 0x60F JUMP JUMPDEST PUSH1 0x1 PUSH1 0x1 PUSH1 0xA0 SHL SUB DUP4 AND PUSH1 0x0 SWAP1 DUP2 MSTORE PUSH1 0x1 PUSH1 0x20 MSTORE PUSH1 0x40 SWAP1 KECCAK256 SLOAD DUP2 DUP2 LT ISZERO PUSH2 0xBDF JUMPI PUSH1 0x40 MLOAD PUSH3 0x461BCD PUSH1 0xE5 SHL DUP2 MSTORE PUSH1 0x20 PUSH1 0x4 DUP3 ADD MSTORE PUSH1 0x24 DUP1 DUP3 ADD MSTORE PUSH32 0x4753573A207472616E7366657220616D6F756E7420657863656564732062616C PUSH1 0x44 DUP3 ADD MSTORE PUSH4 0x616E6365 PUSH1 0xE0 SHL PUSH1 0x64 DUP3 ADD MSTORE PUSH1 0x84 ADD PUSH2 0x60F JUMP JUMPDEST PUSH1 0x1 PUSH1 0x1 PUSH1 0xA0 SHL SUB DUP5 AND PUSH1 0x0 SWAP1 DUP2 MSTORE PUSH1 0x9 PUSH1 0x20 MSTORE PUSH1 0x40 SWAP1 KECCAK256 SLOAD DUP3 SWAP1 PUSH1 0xFF AND DUP1 PUSH2 0xC20 JUMPI POP PUSH1 0x1 PUSH1 0x1 PUSH1 0xA0 SHL SUB DUP5 AND PUSH1 0x0 SWAP1 DUP2 MSTORE PUSH1 0x9 PUSH1 0x20 MSTORE PUSH1 0x40 SWAP1 KECCAK256 SLOAD PUSH1 0xFF AND JUMPDEST DUP1 ISZERO PUSH2 0xC45 JUMPI POP PUSH1 0x1 PUSH1 0x1 PUSH1 0xA0 SHL SUB DUP6 AND PUSH1 0x0 SWAP1 DUP2 MSTORE PUSH1 0x7 PUSH1 0x20 MSTORE PUSH1 0x40 SWAP1 KECCAK256 SLOAD PUSH1 0xFF AND ISZERO JUMPDEST DUP1 ISZERO PUSH2 0xC6A JUMPI POP PUSH1 0x1 PUSH1 0x1 PUSH1 0xA0 SHL SUB DUP5 AND PUSH1 0x0 SWAP1 DUP2 MSTORE PUSH1 0x7 PUSH1 0x20 MSTORE PUSH1 0x40 SWAP1 KECCAK256 SLOAD PUSH1 0xFF AND ISZERO JUMPDEST DUP1 ISZERO PUSH2 0xC79 JUMPI POP PUSH1 0x8 SLOAD PUSH1 0xFF AND ISZERO JUMPDEST DUP1 ISZERO PUSH2 0xC8C JUMPI POP PUSH1 0x8 SLOAD PUSH2 0x100 SWAP1 DIV PUSH1 0xFF AND JUMPDEST ISZERO PUSH2 0xDAF JUMPI PUSH1 0x64 PUSH2 0xC9E DUP5 PUSH1 0x3 PUSH2 0x13C3 JUMP JUMPDEST PUSH2 0xCA8 SWAP2 SWAP1 PUSH2 0x13E2 JUMP JUMPDEST ADDRESS PUSH1 0x0 SWAP1 DUP2 MSTORE PUSH1 0x1 PUSH1 0x20 MSTORE PUSH1 0x40 DUP2 KECCAK256 DUP1 SLOAD SWAP1 SWAP2 SWAP1 PUSH2 0xCC7 SWAP1 DUP5 SWAP1 PUSH2 0x1359 JUMP JUMPDEST SWAP1 SWAP2 SSTORE POP ADDRESS SWAP1 POP PUSH1 0x1 PUSH1 0x1 PUSH1 0xA0 SHL SUB DUP7 AND PUSH32 0xDDF252AD1BE2C89B69C2B068FC378DAA952BA7F163C4A11628F55A4DF523B3EF PUSH1 0x64 PUSH2 0xD06 DUP8 PUSH1 0x3 PUSH2 0x13C3 JUMP JUMPDEST PUSH2 0xD10 SWAP2 SWAP1 PUSH2 0x13E2 JUMP JUMPDEST PUSH1 0x40 MLOAD SWAP1 DUP2 MSTORE PUSH1 0x20 ADD PUSH1 0x40 MLOAD DUP1 SWAP2 SUB SWAP1 LOG3 ADDRESS PUSH1 0x0 SWAP1 DUP2 MSTORE PUSH1 0x1 PUSH1 0x20 MSTORE PUSH1 0x40 SWAP1 KECCAK256 SLOAD PUSH1 0x3 SLOAD DUP2 LT PUSH2 0xD3F JUMPI POP PUSH1 0x3 SLOAD JUMPDEST PUSH8 0xDE0B6B3A7640000 DUP2 LT DUP1 ISZERO SWAP1 DUP2 SWAP1 PUSH2 0xD72 JUMPI POP PUSH1 0x1 PUSH1 0x1 PUSH1 0xA0 SHL SUB DUP8 AND PUSH1 0x0 SWAP1 DUP2 MSTORE PUSH1 0x9 PUSH1 0x20 MSTORE PUSH1 0x40 SWAP1 KECCAK256 SLOAD PUSH1 0xFF AND ISZERO JUMPDEST DUP1 ISZERO PUSH2 0xD85 JUMPI POP PUSH1 0x8 SLOAD PUSH2 0x100 SWAP1 DIV PUSH1 0xFF AND JUMPDEST ISZERO PUSH2 0xD93 JUMPI PUSH2 0xD93 DUP3 PUSH2 0xFC2 JUMP JUMPDEST PUSH1 0x64 PUSH2 0xDA0 DUP7 PUSH1 0x61 PUSH2 0x13C3 JUMP JUMPDEST PUSH2 0xDAA SWAP2 SWAP1 PUSH2 0x13E2 JUMP JUMPDEST SWAP3 POP POP POP JUMPDEST PUSH1 0x1 PUSH1 0x1 PUSH1 0xA0 SHL SUB DUP1 DUP7 AND PUSH1 0x0 SWAP1 DUP2 MSTORE PUSH1 0x1 PUSH1 0x20 MSTORE PUSH1 0x40 DUP1 DUP3 KECCAK256 DUP7 DUP7 SUB SWAP1 SSTORE SWAP2 DUP7 AND DUP2 MSTORE SWAP1 DUP2 KECCAK256 DUP1 SLOAD DUP4 SWAP3 SWAP1 PUSH2 0xDE6 SWAP1 DUP5 SWAP1 PUSH2 0x1359 JUMP JUMPDEST SWAP3 POP POP DUP2 SWAP1 SSTORE POP DUP4 PUSH1 0x1 PUSH1 0x1 PUSH1 0xA0 SHL SUB AND DUP6 PUSH1 0x1 PUSH1 0x1 PUSH1 0xA0 SHL SUB AND PUSH32 0xDDF252AD1BE2C89B69C2B068FC378DAA952BA7F163C4A11628F55A4DF523B3EF DUP4 PUSH1 0x40 MLOAD PUSH2 0xE32 SWAP2 DUP2 MSTORE PUSH1 0x20 ADD SWAP1 JUMP JUMPDEST PUSH1 0x40 MLOAD DUP1 SWAP2 SUB SWAP1 LOG3 POP POP POP POP POP JUMP JUMPDEST PUSH1 0x1 PUSH1 0x1 PUSH1 0xA0 SHL SUB DUP3 AND PUSH2 0xE97 JUMPI PUSH1 0x40 MLOAD PUSH3 0x461BCD PUSH1 0xE5 SHL DUP2 MSTORE PUSH1 0x20 PUSH1 0x4 DUP3 ADD MSTORE PUSH1 0x1F PUSH1 0x24 DUP3 ADD MSTORE PUSH32 0x4753573A206275726E2066726F6D20746865207A65726F206164647265737300 PUSH1 0x44 DUP3 ADD MSTORE PUSH1 0x64 ADD PUSH2 0x60F JUMP JUMPDEST PUSH1 0x1 PUSH1 0x1 PUSH1 0xA0 SHL SUB DUP3 AND PUSH1 0x0 SWAP1 DUP2 MSTORE PUSH1 0x1 PUSH1 0x20 MSTORE PUSH1 0x40 SWAP1 KECCAK256 SLOAD DUP2 DUP2 LT ISZERO PUSH2 0xF00 JUMPI PUSH1 0x40 MLOAD PUSH3 0x461BCD PUSH1 0xE5 SHL DUP2 MSTORE PUSH1 0x20 PUSH1 0x4 DUP3 ADD DUP2 SWAP1 MSTORE PUSH1 0x24 DUP3 ADD MSTORE PUSH32 0x4753573A206275726E20616D6F756E7420657863656564732062616C616E6365 PUSH1 0x44 DUP3 ADD MSTORE PUSH1 0x64 ADD PUSH2 0x60F JUMP JUMPDEST PUSH1 0x1 PUSH1 0x1 PUSH1 0xA0 SHL SUB DUP4 AND PUSH1 0x0 SWAP1 DUP2 MSTORE PUSH1 0x1 PUSH1 0x20 MSTORE PUSH1 0x40 DUP2 KECCAK256 DUP4 DUP4 SUB SWAP1 SSTORE PUSH1 0x3 DUP1 SLOAD DUP5 SWAP3 SWAP1 PUSH2 0xF2F SWAP1 DUP5 SWAP1 PUSH2 0x1404 JUMP JUMPDEST SWAP1 SWAP2 SSTORE POP POP PUSH1 0x40 MLOAD DUP3 DUP2 MSTORE PUSH1 0x0 SWAP1 PUSH1 0x1 PUSH1 0x1 PUSH1 0xA0 SHL SUB DUP6 AND SWAP1 PUSH32 0xDDF252AD1BE2C89B69C2B068FC378DAA952BA7F163C4A11628F55A4DF523B3EF SWAP1 PUSH1 0x20 ADD PUSH2 0xA9B JUMP JUMPDEST PUSH1 0x0 DUP1 SLOAD PUSH1 0x1 PUSH1 0x1 PUSH1 0xA0 SHL SUB DUP4 DUP2 AND PUSH1 0x1 PUSH1 0x1 PUSH1 0xA0 SHL SUB NOT DUP4 AND DUP2 OR DUP5 SSTORE PUSH1 0x40 MLOAD SWAP2 SWAP1 SWAP3 AND SWAP3 DUP4 SWAP2 PUSH32 0x8BE0079C531659141344CD1FD0A4F28419497F9722A3DAAFE3B4186F6B6457E0 SWAP2 SWAP1 LOG3 POP POP JUMP JUMPDEST PUSH1 0x8 DUP1 SLOAD PUSH1 0xFF NOT AND PUSH1 0x1 OR SWAP1 SSTORE PUSH1 0x40 DUP1 MLOAD PUSH1 0x2 DUP1 DUP3 MSTORE PUSH1 0x60 DUP3 ADD DUP4 MSTORE PUSH1 0x0 SWAP3 PUSH1 0x20 DUP4 ADD SWAP1 DUP1 CALLDATASIZE DUP4 CALLDATACOPY ADD SWAP1 POP POP SWAP1 POP ADDRESS DUP2 PUSH1 0x0 DUP2 MLOAD DUP2 LT PUSH2 0x1004 JUMPI PUSH2 0x1004 PUSH2 0x141B JUMP JUMPDEST PUSH1 0x20 MUL PUSH1 0x20 ADD ADD SWAP1 PUSH1 0x1 PUSH1 0x1 PUSH1 0xA0 SHL SUB AND SWAP1 DUP2 PUSH1 0x1 PUSH1 0x1 PUSH1 0xA0 SHL SUB AND DUP2 MSTORE POP POP PUSH32 0x0 PUSH1 0x1 PUSH1 0x1 PUSH1 0xA0 SHL SUB AND PUSH4 0xAD5C4648 PUSH1 0x40 MLOAD DUP2 PUSH4 0xFFFFFFFF AND PUSH1 0xE0 SHL DUP2 MSTORE PUSH1 0x4 ADD PUSH1 0x20 PUSH1 0x40 MLOAD DUP1 DUP4 SUB DUP2 DUP7 GAS STATICCALL ISZERO DUP1 ISZERO PUSH2 0x1082 JUMPI RETURNDATASIZE PUSH1 0x0 DUP1 RETURNDATACOPY RETURNDATASIZE PUSH1 0x0 REVERT JUMPDEST POP POP POP POP PUSH1 0x40 MLOAD RETURNDATASIZE PUSH1 0x1F NOT PUSH1 0x1F DUP3 ADD AND DUP3 ADD DUP1 PUSH1 0x40 MSTORE POP DUP2 ADD SWAP1 PUSH2 0x10A6 SWAP2 SWAP1 PUSH2 0x13A6 JUMP JUMPDEST DUP2 PUSH1 0x1 DUP2 MLOAD DUP2 LT PUSH2 0x10B9 JUMPI PUSH2 0x10B9 PUSH2 0x141B JUMP JUMPDEST PUSH1 0x20 MUL PUSH1 0x20 ADD ADD SWAP1 PUSH1 0x1 PUSH1 0x1 PUSH1 0xA0 SHL SUB AND SWAP1 DUP2 PUSH1 0x1 PUSH1 0x1 PUSH1 0xA0 SHL SUB AND DUP2 MSTORE POP POP PUSH2 0x1104 ADDRESS PUSH32 0x0 DUP5 PUSH2 0xA46 JUMP JUMPDEST PUSH1 0x40 MLOAD PUSH4 0x791AC947 PUSH1 0xE0 SHL DUP2 MSTORE PUSH1 0x1 PUSH1 0x1 PUSH1 0xA0 SHL SUB PUSH32 0x0 AND SWAP1 PUSH4 0x791AC947 SWAP1 PUSH2 0x1159 SWAP1 DUP6 SWAP1 PUSH1 0x0 SWAP1 DUP7 SWAP1 ADDRESS SWAP1 TIMESTAMP SWAP1 PUSH1 0x4 ADD PUSH2 0x1431 JUMP JUMPDEST PUSH1 0x0 PUSH1 0x40 MLOAD DUP1 DUP4 SUB DUP2 PUSH1 0x0 DUP8 DUP1 EXTCODESIZE ISZERO DUP1 ISZERO PUSH2 0x1173 JUMPI PUSH1 0x0 DUP1 REVERT JUMPDEST POP GAS CALL ISZERO DUP1 ISZERO PUSH2 0x1187 JUMPI RETURNDATASIZE PUSH1 0x0 DUP1 RETURNDATACOPY RETURNDATASIZE PUSH1 0x0 REVERT JUMPDEST POP POP PUSH1 0x6 SLOAD PUSH1 0x40 MLOAD PUSH1 0x1 PUSH1 0x1 PUSH1 0xA0 SHL SUB SWAP1 SWAP2 AND SWAP3 POP SELFBALANCE DUP1 ISZERO PUSH2 0x8FC MUL SWAP3 POP SWAP1 PUSH1 0x0 DUP2 DUP2 DUP2 DUP6 DUP9 DUP9 CALL SWAP4 POP POP POP POP ISZERO DUP1 ISZERO PUSH2 0x11C5 JUMPI RETURNDATASIZE PUSH1 0x0 DUP1 RETURNDATACOPY RETURNDATASIZE PUSH1 0x0 REVERT JUMPDEST POP POP PUSH1 0x8 DUP1 SLOAD PUSH1 0xFF NOT AND SWAP1 SSTORE POP JUMP JUMPDEST PUSH1 0x0 PUSH1 0x20 DUP1 DUP4 MSTORE DUP4 MLOAD DUP1 DUP3 DUP6 ADD MSTORE PUSH1 0x0 JUMPDEST DUP2 DUP2 LT ISZERO PUSH2 0x1201 JUMPI DUP6 DUP2 ADD DUP4 ADD MLOAD DUP6 DUP3 ADD PUSH1 0x40 ADD MSTORE DUP3 ADD PUSH2 0x11E5 JUMP JUMPDEST DUP2 DUP2 GT ISZERO PUSH2 0x1213 JUMPI PUSH1 0x0 PUSH1 0x40 DUP4 DUP8 ADD ADD MSTORE JUMPDEST POP PUSH1 0x1F ADD PUSH1 0x1F NOT AND SWAP3 SWAP1 SWAP3 ADD PUSH1 0x40 ADD SWAP4 SWAP3 POP POP POP JUMP JUMPDEST PUSH1 0x1 PUSH1 0x1 PUSH1 0xA0 SHL SUB DUP2 AND DUP2 EQ PUSH2 0x676 JUMPI PUSH1 0x0 DUP1 REVERT JUMPDEST PUSH1 0x0 DUP1 PUSH1 0x40 DUP4 DUP6 SUB SLT ISZERO PUSH2 0x1251 JUMPI PUSH1 0x0 DUP1 REVERT JUMPDEST DUP3 CALLDATALOAD PUSH2 0x125C DUP2 PUSH2 0x1229 JUMP JUMPDEST SWAP5 PUSH1 0x20 SWAP4 SWAP1 SWAP4 ADD CALLDATALOAD SWAP4 POP POP POP JUMP JUMPDEST PUSH1 0x0 DUP1 PUSH1 0x0 PUSH1 0x60 DUP5 DUP7 SUB SLT ISZERO PUSH2 0x127F JUMPI PUSH1 0x0 DUP1 REVERT JUMPDEST DUP4 CALLDATALOAD PUSH2 0x128A DUP2 PUSH2 0x1229 JUMP JUMPDEST SWAP3 POP PUSH1 0x20 DUP5 ADD CALLDATALOAD PUSH2 0x129A DUP2 PUSH2 0x1229 JUMP JUMPDEST SWAP3 SWAP6 SWAP3 SWAP5 POP POP POP PUSH1 0x40 SWAP2 SWAP1 SWAP2 ADD CALLDATALOAD SWAP1 JUMP JUMPDEST PUSH1 0x0 PUSH1 0x20 DUP3 DUP5 SUB SLT ISZERO PUSH2 0x12BD JUMPI PUSH1 0x0 DUP1 REVERT JUMPDEST POP CALLDATALOAD SWAP2 SWAP1 POP JUMP JUMPDEST PUSH1 0x0 PUSH1 0x20 DUP3 DUP5 SUB SLT ISZERO PUSH2 0x12D6 JUMPI PUSH1 0x0 DUP1 REVERT JUMPDEST DUP2 CALLDATALOAD PUSH2 0x12E1 DUP2 PUSH2 0x1229 JUMP JUMPDEST SWAP4 SWAP3 POP POP POP JUMP JUMPDEST PUSH1 0x0 PUSH1 0x20 DUP3 DUP5 SUB SLT ISZERO PUSH2 0x12FA JUMPI PUSH1 0x0 DUP1 REVERT JUMPDEST DUP2 CALLDATALOAD DUP1 ISZERO ISZERO DUP2 EQ PUSH2 0x12E1 JUMPI PUSH1 0x0 DUP1 REVERT JUMPDEST PUSH1 0x0 DUP1 PUSH1 0x40 DUP4 DUP6 SUB SLT ISZERO PUSH2 0x131D JUMPI PUSH1 0x0 DUP1 REVERT JUMPDEST DUP3 CALLDATALOAD PUSH2 0x1328 DUP2 PUSH2 0x1229 JUMP JUMPDEST SWAP2 POP PUSH1 0x20 DUP4 ADD CALLDATALOAD PUSH2 0x1338 DUP2 PUSH2 0x1229 JUMP JUMPDEST DUP1 SWAP2 POP POP SWAP3 POP SWAP3 SWAP1 POP JUMP JUMPDEST PUSH4 0x4E487B71 PUSH1 0xE0 SHL PUSH1 0x0 MSTORE PUSH1 0x11 PUSH1 0x4 MSTORE PUSH1 0x24 PUSH1 0x0 REVERT JUMPDEST PUSH1 0x0 DUP3 NOT DUP3 GT ISZERO PUSH2 0x136C JUMPI PUSH2 0x136C PUSH2 0x1343 JUMP JUMPDEST POP ADD SWAP1 JUMP JUMPDEST PUSH1 0x20 DUP1 DUP3 MSTORE DUP2 DUP2 ADD MSTORE PUSH32 0x4F776E61626C653A2063616C6C6572206973206E6F7420746865206F776E6572 PUSH1 0x40 DUP3 ADD MSTORE PUSH1 0x60 ADD SWAP1 JUMP JUMPDEST PUSH1 0x0 PUSH1 0x20 DUP3 DUP5 SUB SLT ISZERO PUSH2 0x13B8 JUMPI PUSH1 0x0 DUP1 REVERT JUMPDEST DUP2 MLOAD PUSH2 0x12E1 DUP2 PUSH2 0x1229 JUMP JUMPDEST PUSH1 0x0 DUP2 PUSH1 0x0 NOT DIV DUP4 GT DUP3 ISZERO ISZERO AND ISZERO PUSH2 0x13DD JUMPI PUSH2 0x13DD PUSH2 0x1343 JUMP JUMPDEST POP MUL SWAP1 JUMP JUMPDEST PUSH1 0x0 DUP3 PUSH2 0x13FF JUMPI PUSH4 0x4E487B71 PUSH1 0xE0 SHL PUSH1 0x0 MSTORE PUSH1 0x12 PUSH1 0x4 MSTORE PUSH1 0x24 PUSH1 0x0 REVERT JUMPDEST POP DIV SWAP1 JUMP JUMPDEST PUSH1 0x0 DUP3 DUP3 LT ISZERO PUSH2 0x1416 JUMPI PUSH2 0x1416 PUSH2 0x1343 JUMP JUMPDEST POP SUB SWAP1 JUMP JUMPDEST PUSH4 0x4E487B71 PUSH1 0xE0 SHL PUSH1 0x0 MSTORE PUSH1 0x32 PUSH1 0x4 MSTORE PUSH1 0x24 PUSH1 0x0 REVERT JUMPDEST PUSH1 0x0 PUSH1 0xA0 DUP3 ADD DUP8 DUP4 MSTORE PUSH1 0x20 DUP8 DUP2 DUP6 ADD MSTORE PUSH1 0xA0 PUSH1 0x40 DUP6 ADD MSTORE DUP2 DUP8 MLOAD DUP1 DUP5 MSTORE PUSH1 0xC0 DUP7 ADD SWAP2 POP DUP3 DUP10 ADD SWAP4 POP PUSH1 0x0 JUMPDEST DUP2 DUP2 LT ISZERO PUSH2 0x1481 JUMPI DUP5 MLOAD PUSH1 0x1 PUSH1 0x1 PUSH1 0xA0 SHL SUB AND DUP4 MSTORE SWAP4 DUP4 ADD SWAP4 SWAP2 DUP4 ADD SWAP2 PUSH1 0x1 ADD PUSH2 0x145C JUMP JUMPDEST POP POP PUSH1 0x1 PUSH1 0x1 PUSH1 0xA0 SHL SUB SWAP7 SWAP1 SWAP7 AND PUSH1 0x60 DUP6 ADD MSTORE POP POP POP PUSH1 0x80 ADD MSTORE SWAP4 SWAP3 POP POP POP JUMP INVALID LOG2 PUSH5 0x6970667358 0x22 SLT KECCAK256 PUSH23 0xA563358C6F974D779F836829BB01D0A0616F9AD20B3628 RETURNDATASIZE 0xDD 0xB6 POP LOG0 PUSH17 0x762064736F6C634300080D003300000000 "
				},
				"gasEstimates": {
					"creation": {
						"codeDepositCost": "1067200",
						"executionCost": "infinite",
						"totalCost": "infinite"
					},
					"external": {
						"DEXs(address)": "2569",
						"addDex(address)": "29073",
						"allowance(address,address)": "infinite",
						"approve(address,uint256)": "24567",
						"balanceOf(address)": "2554",
						"burn(uint256)": "50900",
						"decimals()": "311",
						"decreaseAllowance(address,uint256)": "26946",
						"deliver(address)": "infinite",
						"increaseAllowance(address,uint256)": "26882",
						"isPair(address)": "2613",
						"marketAddress()": "2426",
						"name()": "infinite",
						"owner()": "2398",
						"renounceOwnership()": "28159",
						"setMarket(address)": "26838",
						"setSwapAndLiquifyEnabled(bool)": "27789",
						"swapAndLiquifyEnabled()": "2410",
						"symbol()": "infinite",
						"totalSupply()": "2371",
						"transfer(address,uint256)": "64352",
						"transferFrom(address,address,uint256)": "infinite",
						"transferOwnership(address)": "infinite",
						"uniswapV2Pair()": "infinite",
						"uniswapV2Router()": "infinite"
					},
					"internal": {
						"_approve(address,address,uint256)": "infinite",
						"_burn(address,uint256)": "infinite",
						"_mint(address,uint256)": "infinite",
						"_transfer(address,address,uint256)": "infinite",
						"swapTokensForEth(uint256)": "infinite"
					}
				},
				"methodIdentifiers": {
					"DEXs(address)": "dec1a6f6",
					"addDex(address)": "536db266",
					"allowance(address,address)": "dd62ed3e",
					"approve(address,uint256)": "095ea7b3",
					"balanceOf(address)": "70a08231",
					"burn(uint256)": "42966c68",
					"decimals()": "313ce567",
					"decreaseAllowance(address,uint256)": "a457c2d7",
					"deliver(address)": "e515cd38",
					"increaseAllowance(address,uint256)": "39509351",
					"isPair(address)": "e5e31b13",
					"marketAddress()": "95623641",
					"name()": "06fdde03",
					"owner()": "8da5cb5b",
					"renounceOwnership()": "715018a6",
					"setMarket(address)": "6dcea85f",
					"setSwapAndLiquifyEnabled(bool)": "c49b9a80",
					"swapAndLiquifyEnabled()": "4a74bb02",
					"symbol()": "95d89b41",
					"totalSupply()": "18160ddd",
					"transfer(address,uint256)": "a9059cbb",
					"transferFrom(address,address,uint256)": "23b872dd",
					"transferOwnership(address)": "f2fde38b",
					"uniswapV2Pair()": "49bd5a5e",
					"uniswapV2Router()": "1694505e"
				}
			},
			"storageLayout": {
				"storage": [
					{
						"astId": 296,
						"contract": "ex/exchangeUsdtToken.sol:GSW",
						"label": "_owner",
						"offset": 0,
						"slot": "0",
						"type": "t_address"
					},
					{
						"astId": 1298,
						"contract": "ex/exchangeUsdtToken.sol:GSW",
						"label": "_balances",
						"offset": 0,
						"slot": "1",
						"type": "t_mapping(t_address,t_uint256)"
					},
					{
						"astId": 1304,
						"contract": "ex/exchangeUsdtToken.sol:GSW",
						"label": "_allowances",
						"offset": 0,
						"slot": "2",
						"type": "t_mapping(t_address,t_mapping(t_address,t_uint256))"
					},
					{
						"astId": 1306,
						"contract": "ex/exchangeUsdtToken.sol:GSW",
						"label": "_totalSupply",
						"offset": 0,
						"slot": "3",
						"type": "t_uint256"
					},
					{
						"astId": 1308,
						"contract": "ex/exchangeUsdtToken.sol:GSW",
						"label": "_name",
						"offset": 0,
						"slot": "4",
						"type": "t_string_storage"
					},
					{
						"astId": 1310,
						"contract": "ex/exchangeUsdtToken.sol:GSW",
						"label": "_symbol",
						"offset": 0,
						"slot": "5",
						"type": "t_string_storage"
					},
					{
						"astId": 1312,
						"contract": "ex/exchangeUsdtToken.sol:GSW",
						"label": "marketAddress",
						"offset": 0,
						"slot": "6",
						"type": "t_address"
					},
					{
						"astId": 1321,
						"contract": "ex/exchangeUsdtToken.sol:GSW",
						"label": "_isExcludeds",
						"offset": 0,
						"slot": "7",
						"type": "t_mapping(t_address,t_bool)"
					},
					{
						"astId": 1323,
						"contract": "ex/exchangeUsdtToken.sol:GSW",
						"label": "inSwapAndLiquify",
						"offset": 0,
						"slot": "8",
						"type": "t_bool"
					},
					{
						"astId": 1325,
						"contract": "ex/exchangeUsdtToken.sol:GSW",
						"label": "swapAndLiquifyEnabled",
						"offset": 1,
						"slot": "8",
						"type": "t_bool"
					},
					{
						"astId": 1329,
						"contract": "ex/exchangeUsdtToken.sol:GSW",
						"label": "DEXs",
						"offset": 0,
						"slot": "9",
						"type": "t_mapping(t_address,t_bool)"
					},
					{
						"astId": 1333,
						"contract": "ex/exchangeUsdtToken.sol:GSW",
						"label": "isPair",
						"offset": 0,
						"slot": "10",
						"type": "t_mapping(t_address,t_bool)"
					}
				],
				"types": {
					"t_address": {
						"encoding": "inplace",
						"label": "address",
						"numberOfBytes": "20"
					},
					"t_bool": {
						"encoding": "inplace",
						"label": "bool",
						"numberOfBytes": "1"
					},
					"t_mapping(t_address,t_bool)": {
						"encoding": "mapping",
						"key": "t_address",
						"label": "mapping(address => bool)",
						"numberOfBytes": "32",
						"value": "t_bool"
					},
					"t_mapping(t_address,t_mapping(t_address,t_uint256))": {
						"encoding": "mapping",
						"key": "t_address",
						"label": "mapping(address => mapping(address => uint256))",
						"numberOfBytes": "32",
						"value": "t_mapping(t_address,t_uint256)"
					},
					"t_mapping(t_address,t_uint256)": {
						"encoding": "mapping",
						"key": "t_address",
						"label": "mapping(address => uint256)",
						"numberOfBytes": "32",
						"value": "t_uint256"
					},
					"t_string_storage": {
						"encoding": "bytes",
						"label": "string",
						"numberOfBytes": "32"
					},
					"t_uint256": {
						"encoding": "inplace",
						"label": "uint256",
						"numberOfBytes": "32"
					}
				}
			},
			"userdoc": {
				"kind": "user",
				"methods": {},
				"version": 1
			}
		}
	}
}