{
	"ex/exchangeUsdtToken.sol": {
		"SugarBaby": {
			"abi": [
				{
					"inputs": [],
					"stateMutability": "nonpayable",
					"type": "constructor"
				},
				{
					"anonymous": false,
					"inputs": [
						{
							"indexed": true,
							"internalType": "address",
							"name": "owner",
							"type": "address"
						},
						{
							"indexed": true,
							"internalType": "address",
							"name": "spender",
							"type": "address"
						},
						{
							"indexed": false,
							"internalType": "uint256",
							"name": "value",
							"type": "uint256"
						}
					],
					"name": "Approval",
					"type": "event"
				},
				{
					"anonymous": false,
					"inputs": [
						{
							"indexed": true,
							"internalType": "address",
							"name": "previousOwner",
							"type": "address"
						},
						{
							"indexed": true,
							"internalType": "address",
							"name": "newOwner",
							"type": "address"
						}
					],
					"name": "OwnershipTransferred",
					"type": "event"
				},
				{
					"anonymous": false,
					"inputs": [
						{
							"indexed": false,
							"internalType": "bool",
							"name": "enabled",
							"type": "bool"
						}
					],
					"name": "SwapAndLiquifyEnabledUpdated",
					"type": "event"
				},
				{
					"anonymous": false,
					"inputs": [
						{
							"indexed": true,
							"internalType": "address",
							"name": "from",
							"type": "address"
						},
						{
							"indexed": true,
							"internalType": "address",
							"name": "to",
							"type": "address"
						},
						{
							"indexed": false,
							"internalType": "uint256",
							"name": "value",
							"type": "uint256"
						}
					],
					"name": "Transfer",
					"type": "event"
				},
				{
					"inputs": [
						{
							"internalType": "address",
							"name": "",
							"type": "address"
						}
					],
					"name": "DEXs",
					"outputs": [
						{
							"internalType": "bool",
							"name": "",
							"type": "bool"
						}
					],
					"stateMutability": "view",
					"type": "function"
				},
				{
					"inputs": [
						{
							"internalType": "address",
							"name": "_pair",
							"type": "address"
						}
					],
					"name": "addDex",
					"outputs": [],
					"stateMutability": "nonpayable",
					"type": "function"
				},
				{
					"inputs": [
						{
							"internalType": "address",
							"name": "owner",
							"type": "address"
						},
						{
							"internalType": "address",
							"name": "spender",
							"type": "address"
						}
					],
					"name": "allowance",
					"outputs": [
						{
							"internalType": "uint256",
							"name": "",
							"type": "uint256"
						}
					],
					"stateMutability": "view",
					"type": "function"
				},
				{
					"inputs": [
						{
							"internalType": "address",
							"name": "spender",
							"type": "address"
						},
						{
							"internalType": "uint256",
							"name": "amount",
							"type": "uint256"
						}
					],
					"name": "approve",
					"outputs": [
						{
							"internalType": "bool",
							"name": "",
							"type": "bool"
						}
					],
					"stateMutability": "nonpayable",
					"type": "function"
				},
				{
					"inputs": [
						{
							"internalType": "address",
							"name": "account",
							"type": "address"
						}
					],
					"name": "balanceOf",
					"outputs": [
						{
							"internalType": "uint256",
							"name": "",
							"type": "uint256"
						}
					],
					"stateMutability": "view",
					"type": "function"
				},
				{
					"inputs": [
						{
							"internalType": "uint256",
							"name": "amount",
							"type": "uint256"
						}
					],
					"name": "burn",
					"outputs": [],
					"stateMutability": "nonpayable",
					"type": "function"
				},
				{
					"inputs": [],
					"name": "decimals",
					"outputs": [
						{
							"internalType": "uint8",
							"name": "",
							"type": "uint8"
						}
					],
					"stateMutability": "view",
					"type": "function"
				},
				{
					"inputs": [
						{
							"internalType": "address",
							"name": "spender",
							"type": "address"
						},
						{
							"internalType": "uint256",
							"name": "subtractedValue",
							"type": "uint256"
						}
					],
					"name": "decreaseAllowance",
					"outputs": [
						{
							"internalType": "bool",
							"name": "",
							"type": "bool"
						}
					],
					"stateMutability": "nonpayable",
					"type": "function"
				},
				{
					"inputs": [],
					"name": "emergencyWithdraw",
					"outputs": [],
					"stateMutability": "nonpayable",
					"type": "function"
				},
				{
					"inputs": [
						{
							"internalType": "address",
							"name": "token",
							"type": "address"
						},
						{
							"internalType": "uint256",
							"name": "amount",
							"type": "uint256"
						}
					],
					"name": "emergencyWithdrawToken",
					"outputs": [],
					"stateMutability": "nonpayable",
					"type": "function"
				},
				{
					"inputs": [
						{
							"internalType": "address",
							"name": "spender",
							"type": "address"
						},
						{
							"internalType": "uint256",
							"name": "addedValue",
							"type": "uint256"
						}
					],
					"name": "increaseAllowance",
					"outputs": [
						{
							"internalType": "bool",
							"name": "",
							"type": "bool"
						}
					],
					"stateMutability": "nonpayable",
					"type": "function"
				},
				{
					"inputs": [
						{
							"internalType": "address",
							"name": "",
							"type": "address"
						}
					],
					"name": "isExcludeds",
					"outputs": [
						{
							"internalType": "bool",
							"name": "",
							"type": "bool"
						}
					],
					"stateMutability": "view",
					"type": "function"
				},
				{
					"inputs": [
						{
							"internalType": "address",
							"name": "",
							"type": "address"
						}
					],
					"name": "isPair",
					"outputs": [
						{
							"internalType": "bool",
							"name": "",
							"type": "bool"
						}
					],
					"stateMutability": "view",
					"type": "function"
				},
				{
					"inputs": [],
					"name": "marketAddress",
					"outputs": [
						{
							"internalType": "address",
							"name": "",
							"type": "address"
						}
					],
					"stateMutability": "view",
					"type": "function"
				},
				{
					"inputs": [],
					"name": "name",
					"outputs": [
						{
							"internalType": "string",
							"name": "",
							"type": "string"
						}
					],
					"stateMutability": "view",
					"type": "function"
				},
				{
					"inputs": [],
					"name": "owner",
					"outputs": [
						{
							"internalType": "address",
							"name": "",
							"type": "address"
						}
					],
					"stateMutability": "view",
					"type": "function"
				},
				{
					"inputs": [],
					"name": "renounceOwnership",
					"outputs": [],
					"stateMutability": "nonpayable",
					"type": "function"
				},
				{
					"inputs": [
						{
							"internalType": "address",
							"name": "addr",
							"type": "address"
						}
					],
					"name": "setExcludeds",
					"outputs": [],
					"stateMutability": "nonpayable",
					"type": "function"
				},
				{
					"inputs": [
						{
							"internalType": "address",
							"name": "to",
							"type": "address"
						}
					],
					"name": "setMarket",
					"outputs": [],
					"stateMutability": "nonpayable",
					"type": "function"
				},
				{
					"inputs": [
						{
							"internalType": "bool",
							"name": "_enabled",
							"type": "bool"
						}
					],
					"name": "setSwapAndLiquifyEnabled",
					"outputs": [],
					"stateMutability": "nonpayable",
					"type": "function"
				},
				{
					"inputs": [],
					"name": "swapAndLiquifyEnabled",
					"outputs": [
						{
							"internalType": "bool",
							"name": "",
							"type": "bool"
						}
					],
					"stateMutability": "view",
					"type": "function"
				},
				{
					"inputs": [],
					"name": "symbol",
					"outputs": [
						{
							"internalType": "string",
							"name": "",
							"type": "string"
						}
					],
					"stateMutability": "view",
					"type": "function"
				},
				{
					"inputs": [],
					"name": "totalSupply",
					"outputs": [
						{
							"internalType": "uint256",
							"name": "",
							"type": "uint256"
						}
					],
					"stateMutability": "view",
					"type": "function"
				},
				{
					"inputs": [
						{
							"internalType": "address",
							"name": "recipient",
							"type": "address"
						},
						{
							"internalType": "uint256",
							"name": "amount",
							"type": "uint256"
						}
					],
					"name": "transfer",
					"outputs": [
						{
							"internalType": "bool",
							"name": "",
							"type": "bool"
						}
					],
					"stateMutability": "nonpayable",
					"type": "function"
				},
				{
					"inputs": [
						{
							"internalType": "address",
							"name": "sender",
							"type": "address"
						},
						{
							"internalType": "address",
							"name": "recipient",
							"type": "address"
						},
						{
							"internalType": "uint256",
							"name": "amount",
							"type": "uint256"
						}
					],
					"name": "transferFrom",
					"outputs": [
						{
							"internalType": "bool",
							"name": "",
							"type": "bool"
						}
					],
					"stateMutability": "nonpayable",
					"type": "function"
				},
				{
					"inputs": [
						{
							"internalType": "address",
							"name": "newOwner",
							"type": "address"
						}
					],
					"name": "transferOwnership",
					"outputs": [],
					"stateMutability": "nonpayable",
					"type": "function"
				},
				{
					"inputs": [],
					"name": "uniswapV2Pair",
					"outputs": [
						{
							"internalType": "address",
							"name": "",
							"type": "address"
						}
					],
					"stateMutability": "view",
					"type": "function"
				},
				{
					"inputs": [],
					"name": "uniswapV2Router",
					"outputs": [
						{
							"internalType": "contract IPancakeSwapV2Router02",
							"name": "",
							"type": "address"
						}
					],
					"stateMutability": "view",
					"type": "function"
				},
				{
					"inputs": [],
					"name": "usdtAddress",
					"outputs": [
						{
							"internalType": "address",
							"name": "",
							"type": "address"
						}
					],
					"stateMutability": "view",
					"type": "function"
				},
				{
					"stateMutability": "payable",
					"type": "receive"
				}
			],
			"devdoc": {
				"kind": "dev",
				"methods": {
					"owner()": {
						"details": "Returns the address of the current owner."
					},
					"renounceOwnership()": {
						"details": "Leaves the contract without owner. It will not be possible to call `onlyOwner` functions anymore. Can only be called by the current owner. NOTE: Renouncing ownership will leave the contract without an owner, thereby removing any functionality that is only available to the owner."
					},
					"transferOwnership(address)": {
						"details": "Transfers ownership of the contract to a new account (`newOwner`). Can only be called by the current owner."
					}
				},
				"version": 1
			},
			"evm": {
				"assembly": "    /* \"ex/exchangeUsdtToken.sol\":14733:22811  contract SugarBaby is Context, IERC20, IERC20Metadata, Ownable{\r... */\n  mstore(0x40, 0xa0)\n    /* \"ex/exchangeUsdtToken.sol\":15108:15150  0xd3c0b6Aa1538d639912789be705F18b5Fd89fcE6 */\n  0xd3c0b6aa1538d639912789be705f18b5fd89fce6\n    /* \"ex/exchangeUsdtToken.sol\":15077:15150  address public marketAddress = 0xd3c0b6Aa1538d639912789be705F18b5Fd89fcE6 */\n  0x06\n  exp(0x0100, 0x00)\n  dup2\n  sload\n  dup2\n  0xffffffffffffffffffffffffffffffffffffffff\n  mul\n  not\n  and\n  swap1\n  dup4\n  0xffffffffffffffffffffffffffffffffffffffff\n  and\n  mul\n  or\n  swap1\n  sstore\n  pop\n    /* \"ex/exchangeUsdtToken.sol\":15283:15325  0x7ef95a0FEE0Dd31b22626fA2e10Ee6A223F8a684 */\n  0x7ef95a0fee0dd31b22626fa2e10ee6a223f8a684\n    /* \"ex/exchangeUsdtToken.sol\":15254:15325  address public usdtAddress = 0x7ef95a0FEE0Dd31b22626fA2e10Ee6A223F8a684 */\n  0x08\n  exp(0x0100, 0x00)\n  dup2\n  sload\n  dup2\n  0xffffffffffffffffffffffffffffffffffffffff\n  mul\n  not\n  and\n  swap1\n  dup4\n  0xffffffffffffffffffffffffffffffffffffffff\n  and\n  mul\n  or\n  swap1\n  sstore\n  pop\n    /* \"ex/exchangeUsdtToken.sol\":15396:15400  true */\n  0x01\n    /* \"ex/exchangeUsdtToken.sol\":15360:15400  bool public swapAndLiquifyEnabled = true */\n  0x08\n  exp(0x0100, 0x15)\n  dup2\n  sload\n  dup2\n  0xff\n  mul\n  not\n  and\n  swap1\n  dup4\n  iszero\n  iszero\n  mul\n  or\n  swap1\n  sstore\n  pop\n    /* \"ex/exchangeUsdtToken.sol\":15729:16383  constructor () {\r... */\n  callvalue\n  dup1\n  iszero\n  tag_1\n  jumpi\n  0x00\n  dup1\n  revert\ntag_1:\n  pop\n    /* \"ex/exchangeUsdtToken.sol\":2941:2973  _transferOwnership(_msgSender()) */\n  tag_5\n    /* \"ex/exchangeUsdtToken.sol\":2960:2972  _msgSender() */\n  tag_6\n    /* \"ex/exchangeUsdtToken.sol\":2960:2970  _msgSender */\n  shl(0x20, tag_7)\n    /* \"ex/exchangeUsdtToken.sol\":2960:2972  _msgSender() */\n  0x20\n  shr\n  jump\t// in\ntag_6:\n    /* \"ex/exchangeUsdtToken.sol\":2941:2959  _transferOwnership */\n  shl(0x20, tag_8)\n    /* \"ex/exchangeUsdtToken.sol\":2941:2973  _transferOwnership(_msgSender()) */\n  0x20\n  shr\n  jump\t// in\ntag_5:\n    /* \"ex/exchangeUsdtToken.sol\":15755:15791  _mint(_msgSender(), 21000000 * 1e18) */\n  tag_10\n    /* \"ex/exchangeUsdtToken.sol\":15761:15773  _msgSender() */\n  tag_11\n    /* \"ex/exchangeUsdtToken.sol\":15761:15771  _msgSender */\n  shl(0x20, tag_7)\n    /* \"ex/exchangeUsdtToken.sol\":15761:15773  _msgSender() */\n  0x20\n  shr\n  jump\t// in\ntag_11:\n    /* \"ex/exchangeUsdtToken.sol\":15775:15790  21000000 * 1e18 */\n  0x115eec47f6cf7e35000000\n    /* \"ex/exchangeUsdtToken.sol\":15755:15760  _mint */\n  shl(0x20, tag_12)\n    /* \"ex/exchangeUsdtToken.sol\":15755:15791  _mint(_msgSender(), 21000000 * 1e18) */\n  0x20\n  shr\n  jump\t// in\ntag_10:\n    /* \"ex/exchangeUsdtToken.sol\":16005:16044  IPancakeSwapV2Router02 _uniswapV2Router */\n  0x00\n    /* \"ex/exchangeUsdtToken.sol\":16070:16112  0x9Ac64Cc6e4415144C455BD8E4837Fea55603e5c3 */\n  0x9ac64cc6e4415144c455bd8e4837fea55603e5c3\n    /* \"ex/exchangeUsdtToken.sol\":16005:16113  IPancakeSwapV2Router02 _uniswapV2Router = IPancakeSwapV2Router02(0x9Ac64Cc6e4415144C455BD8E4837Fea55603e5c3) */\n  swap1\n  pop\n    /* \"ex/exchangeUsdtToken.sol\":16162:16178  _uniswapV2Router */\n  dup1\n    /* \"ex/exchangeUsdtToken.sol\":16162:16186  _uniswapV2Router.factory */\n  0xffffffffffffffffffffffffffffffffffffffff\n  and\n  0xc45a0155\n    /* \"ex/exchangeUsdtToken.sol\":16162:16188  _uniswapV2Router.factory() */\n  mload(0x40)\n  dup2\n  0xffffffff\n  and\n  0xe0\n  shl\n  dup2\n  mstore\n  0x04\n  add\n  0x20\n  mload(0x40)\n  dup1\n  dup4\n  sub\n  dup2\n  dup7\n  dup1\n  extcodesize\n  iszero\n  dup1\n  iszero\n  tag_13\n  jumpi\n  0x00\n  dup1\n  revert\ntag_13:\n  pop\n  gas\n  staticcall\n  iszero\n  dup1\n  iszero\n  tag_15\n  jumpi\n  returndatasize\n  0x00\n  dup1\n  returndatacopy\n  revert(0x00, returndatasize)\ntag_15:\n  pop\n  pop\n  pop\n  pop\n  mload(0x40)\n  returndatasize\n  not(0x1f)\n  0x1f\n  dup3\n  add\n  and\n  dup3\n  add\n  dup1\n  0x40\n  mstore\n  pop\n  dup2\n  add\n  swap1\n  tag_16\n  swap2\n  swap1\n  tag_17\n  jump\t// in\ntag_16:\n    /* \"ex/exchangeUsdtToken.sol\":16140:16214  IPancakeSwapV2Factory(_uniswapV2Router.factory())\r... */\n  0xffffffffffffffffffffffffffffffffffffffff\n  and\n  0xc9c65396\n    /* \"ex/exchangeUsdtToken.sol\":16223:16227  this */\n  address\n    /* \"ex/exchangeUsdtToken.sol\":16230:16241  usdtAddress */\n  0x08\n  0x00\n  swap1\n  sload\n  swap1\n  0x0100\n  exp\n  swap1\n  div\n  0xffffffffffffffffffffffffffffffffffffffff\n  and\n    /* \"ex/exchangeUsdtToken.sol\":16140:16242  IPancakeSwapV2Factory(_uniswapV2Router.factory())\r... */\n  mload(0x40)\n  dup4\n  0xffffffff\n  and\n  0xe0\n  shl\n  dup2\n  mstore\n  0x04\n  add\n  tag_18\n  swap3\n  swap2\n  swap1\n  tag_19\n  jump\t// in\ntag_18:\n  0x20\n  mload(0x40)\n  dup1\n  dup4\n  sub\n  dup2\n  0x00\n  dup8\n  dup1\n  extcodesize\n  iszero\n  dup1\n  iszero\n  tag_20\n  jumpi\n  0x00\n  dup1\n  revert\ntag_20:\n  pop\n  gas\n  call\n  iszero\n  dup1\n  iszero\n  tag_22\n  jumpi\n  returndatasize\n  0x00\n  dup1\n  returndatacopy\n  revert(0x00, returndatasize)\ntag_22:\n  pop\n  pop\n  pop\n  pop\n  mload(0x40)\n  returndatasize\n  not(0x1f)\n  0x1f\n  dup3\n  add\n  and\n  dup3\n  add\n  dup1\n  0x40\n  mstore\n  pop\n  dup2\n  add\n  swap1\n  tag_23\n  swap2\n  swap1\n  tag_17\n  jump\t// in\ntag_23:\n    /* \"ex/exchangeUsdtToken.sol\":16124:16137  uniswapV2Pair */\n  0x07\n  0x00\n    /* \"ex/exchangeUsdtToken.sol\":16124:16242  uniswapV2Pair = IPancakeSwapV2Factory(_uniswapV2Router.factory())\r... */\n  0x0100\n  exp\n  dup2\n  sload\n  dup2\n  0xffffffffffffffffffffffffffffffffffffffff\n  mul\n  not\n  and\n  swap1\n  dup4\n  0xffffffffffffffffffffffffffffffffffffffff\n  and\n  mul\n  or\n  swap1\n  sstore\n  pop\n    /* \"ex/exchangeUsdtToken.sol\":16271:16287  _uniswapV2Router */\n  dup1\n    /* \"ex/exchangeUsdtToken.sol\":16253:16287  uniswapV2Router = _uniswapV2Router */\n  0xffffffffffffffffffffffffffffffffffffffff\n  and\n  0x80\n  dup2\n  0xffffffffffffffffffffffffffffffffffffffff\n  and\n  0x60\n  shl\n  dup2\n  mstore\n  pop\n  pop\n    /* \"ex/exchangeUsdtToken.sol\":16325:16329  true */\n  0x01\n    /* \"ex/exchangeUsdtToken.sol\":16298:16304  isPair */\n  0x0b\n    /* \"ex/exchangeUsdtToken.sol\":16298:16322  isPair[address(owner())] */\n  0x00\n    /* \"ex/exchangeUsdtToken.sol\":16313:16320  owner() */\n  tag_24\n    /* \"ex/exchangeUsdtToken.sol\":16313:16318  owner */\n  shl(0x20, tag_25)\n    /* \"ex/exchangeUsdtToken.sol\":16313:16320  owner() */\n  0x20\n  shr\n  jump\t// in\ntag_24:\n    /* \"ex/exchangeUsdtToken.sol\":16298:16322  isPair[address(owner())] */\n  0xffffffffffffffffffffffffffffffffffffffff\n  and\n  0xffffffffffffffffffffffffffffffffffffffff\n  and\n  dup2\n  mstore\n  0x20\n  add\n  swap1\n  dup2\n  mstore\n  0x20\n  add\n  0x00\n  keccak256\n  0x00\n    /* \"ex/exchangeUsdtToken.sol\":16298:16329  isPair[address(owner())] = true */\n  0x0100\n  exp\n  dup2\n  sload\n  dup2\n  0xff\n  mul\n  not\n  and\n  swap1\n  dup4\n  iszero\n  iszero\n  mul\n  or\n  swap1\n  sstore\n  pop\n    /* \"ex/exchangeUsdtToken.sol\":16371:16375  true */\n  0x01\n    /* \"ex/exchangeUsdtToken.sol\":16340:16344  DEXs */\n  0x0a\n    /* \"ex/exchangeUsdtToken.sol\":16340:16368  DEXs[address(uniswapV2Pair)] */\n  0x00\n    /* \"ex/exchangeUsdtToken.sol\":16353:16366  uniswapV2Pair */\n  0x07\n  0x00\n  swap1\n  sload\n  swap1\n  0x0100\n  exp\n  swap1\n  div\n  0xffffffffffffffffffffffffffffffffffffffff\n  and\n    /* \"ex/exchangeUsdtToken.sol\":16340:16368  DEXs[address(uniswapV2Pair)] */\n  0xffffffffffffffffffffffffffffffffffffffff\n  and\n  0xffffffffffffffffffffffffffffffffffffffff\n  and\n  dup2\n  mstore\n  0x20\n  add\n  swap1\n  dup2\n  mstore\n  0x20\n  add\n  0x00\n  keccak256\n  0x00\n    /* \"ex/exchangeUsdtToken.sol\":16340:16375  DEXs[address(uniswapV2Pair)] = true */\n  0x0100\n  exp\n  dup2\n  sload\n  dup2\n  0xff\n  mul\n  not\n  and\n  swap1\n  dup4\n  iszero\n  iszero\n  mul\n  or\n  swap1\n  sstore\n  pop\n    /* \"ex/exchangeUsdtToken.sol\":15744:16383  {\r... */\n  pop\n    /* \"ex/exchangeUsdtToken.sol\":14733:22811  contract SugarBaby is Context, IERC20, IERC20Metadata, Ownable{\r... */\n  jump(tag_26)\n    /* \"ex/exchangeUsdtToken.sol\":2424:2522  function _msgSender() internal view virtual returns (address) {\r... */\ntag_7:\n    /* \"ex/exchangeUsdtToken.sol\":2477:2484  address */\n  0x00\n    /* \"ex/exchangeUsdtToken.sol\":2504:2514  msg.sender */\n  caller\n    /* \"ex/exchangeUsdtToken.sol\":2497:2514  return msg.sender */\n  swap1\n  pop\n    /* \"ex/exchangeUsdtToken.sol\":2424:2522  function _msgSender() internal view virtual returns (address) {\r... */\n  swap1\n  jump\t// out\n    /* \"ex/exchangeUsdtToken.sol\":4332:4523  function _transferOwnership(address newOwner) internal virtual {\r... */\ntag_8:\n    /* \"ex/exchangeUsdtToken.sol\":4406:4422  address oldOwner */\n  0x00\n    /* \"ex/exchangeUsdtToken.sol\":4425:4431  _owner */\n  dup1\n  0x00\n  swap1\n  sload\n  swap1\n  0x0100\n  exp\n  swap1\n  div\n  0xffffffffffffffffffffffffffffffffffffffff\n  and\n    /* \"ex/exchangeUsdtToken.sol\":4406:4431  address oldOwner = _owner */\n  swap1\n  pop\n    /* \"ex/exchangeUsdtToken.sol\":4451:4459  newOwner */\n  dup2\n    /* \"ex/exchangeUsdtToken.sol\":4442:4448  _owner */\n  0x00\n  dup1\n    /* \"ex/exchangeUsdtToken.sol\":4442:4459  _owner = newOwner */\n  0x0100\n  exp\n  dup2\n  sload\n  dup2\n  0xffffffffffffffffffffffffffffffffffffffff\n  mul\n  not\n  and\n  swap1\n  dup4\n  0xffffffffffffffffffffffffffffffffffffffff\n  and\n  mul\n  or\n  swap1\n  sstore\n  pop\n    /* \"ex/exchangeUsdtToken.sol\":4506:4514  newOwner */\n  dup2\n    /* \"ex/exchangeUsdtToken.sol\":4475:4515  OwnershipTransferred(oldOwner, newOwner) */\n  0xffffffffffffffffffffffffffffffffffffffff\n  and\n    /* \"ex/exchangeUsdtToken.sol\":4496:4504  oldOwner */\n  dup2\n    /* \"ex/exchangeUsdtToken.sol\":4475:4515  OwnershipTransferred(oldOwner, newOwner) */\n  0xffffffffffffffffffffffffffffffffffffffff\n  and\n  0x8be0079c531659141344cd1fd0a4f28419497f9722a3daafe3b4186f6b6457e0\n  mload(0x40)\n  mload(0x40)\n  dup1\n  swap2\n  sub\n  swap1\n  log3\n    /* \"ex/exchangeUsdtToken.sol\":4395:4523  {\r... */\n  pop\n    /* \"ex/exchangeUsdtToken.sol\":4332:4523  function _transferOwnership(address newOwner) internal virtual {\r... */\n  pop\n  jump\t// out\n    /* \"ex/exchangeUsdtToken.sol\":20628:20823  function _mint(address account, uint amount) internal virtual {\r... */\ntag_12:\n    /* \"ex/exchangeUsdtToken.sol\":20723:20729  amount */\n  dup1\n    /* \"ex/exchangeUsdtToken.sol\":20701:20710  _balances */\n  0x01\n    /* \"ex/exchangeUsdtToken.sol\":20701:20719  _balances[account] */\n  0x00\n    /* \"ex/exchangeUsdtToken.sol\":20711:20718  account */\n  dup5\n    /* \"ex/exchangeUsdtToken.sol\":20701:20719  _balances[account] */\n  0xffffffffffffffffffffffffffffffffffffffff\n  and\n  0xffffffffffffffffffffffffffffffffffffffff\n  and\n  dup2\n  mstore\n  0x20\n  add\n  swap1\n  dup2\n  mstore\n  0x20\n  add\n  0x00\n  keccak256\n  0x00\n    /* \"ex/exchangeUsdtToken.sol\":20701:20729  _balances[account] += amount */\n  dup3\n  dup3\n  sload\n  tag_30\n  swap2\n  swap1\n  tag_31\n  jump\t// in\ntag_30:\n  swap3\n  pop\n  pop\n  dup2\n  swap1\n  sstore\n  pop\n    /* \"ex/exchangeUsdtToken.sol\":20756:20762  amount */\n  dup1\n    /* \"ex/exchangeUsdtToken.sol\":20740:20752  _totalSupply */\n  0x03\n  0x00\n    /* \"ex/exchangeUsdtToken.sol\":20740:20762  _totalSupply += amount */\n  dup3\n  dup3\n  sload\n  tag_32\n  swap2\n  swap1\n  tag_31\n  jump\t// in\ntag_32:\n  swap3\n  pop\n  pop\n  dup2\n  swap1\n  sstore\n  pop\n    /* \"ex/exchangeUsdtToken.sol\":20799:20806  account */\n  dup2\n    /* \"ex/exchangeUsdtToken.sol\":20778:20815  Transfer(address(0), account, amount) */\n  0xffffffffffffffffffffffffffffffffffffffff\n  and\n    /* \"ex/exchangeUsdtToken.sol\":20795:20796  0 */\n  0x00\n    /* \"ex/exchangeUsdtToken.sol\":20778:20815  Transfer(address(0), account, amount) */\n  0xffffffffffffffffffffffffffffffffffffffff\n  and\n  0xddf252ad1be2c89b69c2b068fc378daa952ba7f163c4a11628f55a4df523b3ef\n    /* \"ex/exchangeUsdtToken.sol\":20808:20814  amount */\n  dup4\n    /* \"ex/exchangeUsdtToken.sol\":20778:20815  Transfer(address(0), account, amount) */\n  mload(0x40)\n  tag_33\n  swap2\n  swap1\n  tag_34\n  jump\t// in\ntag_33:\n  mload(0x40)\n  dup1\n  swap2\n  sub\n  swap1\n  log3\n    /* \"ex/exchangeUsdtToken.sol\":20628:20823  function _mint(address account, uint amount) internal virtual {\r... */\n  pop\n  pop\n  jump\t// out\n    /* \"ex/exchangeUsdtToken.sol\":3062:3149  function owner() public view virtual returns (address) {\r... */\ntag_25:\n    /* \"ex/exchangeUsdtToken.sol\":3108:3115  address */\n  0x00\n    /* \"ex/exchangeUsdtToken.sol\":3135:3141  _owner */\n  dup1\n  0x00\n  swap1\n  sload\n  swap1\n  0x0100\n  exp\n  swap1\n  div\n  0xffffffffffffffffffffffffffffffffffffffff\n  and\n    /* \"ex/exchangeUsdtToken.sol\":3128:3141  return _owner */\n  swap1\n  pop\n    /* \"ex/exchangeUsdtToken.sol\":3062:3149  function owner() public view virtual returns (address) {\r... */\n  swap1\n  jump\t// out\n    /* \"#utility.yul\":7:150   */\ntag_37:\n    /* \"#utility.yul\":64:69   */\n  0x00\n    /* \"#utility.yul\":95:101   */\n  dup2\n    /* \"#utility.yul\":89:102   */\n  mload\n    /* \"#utility.yul\":80:102   */\n  swap1\n  pop\n    /* \"#utility.yul\":111:144   */\n  tag_39\n    /* \"#utility.yul\":138:143   */\n  dup2\n    /* \"#utility.yul\":111:144   */\n  tag_40\n  jump\t// in\ntag_39:\n    /* \"#utility.yul\":7:150   */\n  swap3\n  swap2\n  pop\n  pop\n  jump\t// out\n    /* \"#utility.yul\":156:507   */\ntag_17:\n    /* \"#utility.yul\":226:232   */\n  0x00\n    /* \"#utility.yul\":275:277   */\n  0x20\n    /* \"#utility.yul\":263:272   */\n  dup3\n    /* \"#utility.yul\":254:261   */\n  dup5\n    /* \"#utility.yul\":250:273   */\n  sub\n    /* \"#utility.yul\":246:278   */\n  slt\n    /* \"#utility.yul\":243:362   */\n  iszero\n  tag_42\n  jumpi\n    /* \"#utility.yul\":281:360   */\n  tag_43\n  tag_44\n  jump\t// in\ntag_43:\n    /* \"#utility.yul\":243:362   */\ntag_42:\n    /* \"#utility.yul\":401:402   */\n  0x00\n    /* \"#utility.yul\":426:490   */\n  tag_45\n    /* \"#utility.yul\":482:489   */\n  dup5\n    /* \"#utility.yul\":473:479   */\n  dup3\n    /* \"#utility.yul\":462:471   */\n  dup6\n    /* \"#utility.yul\":458:480   */\n  add\n    /* \"#utility.yul\":426:490   */\n  tag_37\n  jump\t// in\ntag_45:\n    /* \"#utility.yul\":416:490   */\n  swap2\n  pop\n    /* \"#utility.yul\":372:500   */\n  pop\n    /* \"#utility.yul\":156:507   */\n  swap3\n  swap2\n  pop\n  pop\n  jump\t// out\n    /* \"#utility.yul\":513:631   */\ntag_46:\n    /* \"#utility.yul\":600:624   */\n  tag_48\n    /* \"#utility.yul\":618:623   */\n  dup2\n    /* \"#utility.yul\":600:624   */\n  tag_49\n  jump\t// in\ntag_48:\n    /* \"#utility.yul\":595:598   */\n  dup3\n    /* \"#utility.yul\":588:625   */\n  mstore\n    /* \"#utility.yul\":513:631   */\n  pop\n  pop\n  jump\t// out\n    /* \"#utility.yul\":637:755   */\ntag_50:\n    /* \"#utility.yul\":724:748   */\n  tag_52\n    /* \"#utility.yul\":742:747   */\n  dup2\n    /* \"#utility.yul\":724:748   */\n  tag_53\n  jump\t// in\ntag_52:\n    /* \"#utility.yul\":719:722   */\n  dup3\n    /* \"#utility.yul\":712:749   */\n  mstore\n    /* \"#utility.yul\":637:755   */\n  pop\n  pop\n  jump\t// out\n    /* \"#utility.yul\":761:1093   */\ntag_19:\n    /* \"#utility.yul\":882:886   */\n  0x00\n    /* \"#utility.yul\":920:922   */\n  0x40\n    /* \"#utility.yul\":909:918   */\n  dup3\n    /* \"#utility.yul\":905:923   */\n  add\n    /* \"#utility.yul\":897:923   */\n  swap1\n  pop\n    /* \"#utility.yul\":933:1004   */\n  tag_55\n    /* \"#utility.yul\":1001:1002   */\n  0x00\n    /* \"#utility.yul\":990:999   */\n  dup4\n    /* \"#utility.yul\":986:1003   */\n  add\n    /* \"#utility.yul\":977:983   */\n  dup6\n    /* \"#utility.yul\":933:1004   */\n  tag_46\n  jump\t// in\ntag_55:\n    /* \"#utility.yul\":1014:1086   */\n  tag_56\n    /* \"#utility.yul\":1082:1084   */\n  0x20\n    /* \"#utility.yul\":1071:1080   */\n  dup4\n    /* \"#utility.yul\":1067:1085   */\n  add\n    /* \"#utility.yul\":1058:1064   */\n  dup5\n    /* \"#utility.yul\":1014:1086   */\n  tag_46\n  jump\t// in\ntag_56:\n    /* \"#utility.yul\":761:1093   */\n  swap4\n  swap3\n  pop\n  pop\n  pop\n  jump\t// out\n    /* \"#utility.yul\":1099:1321   */\ntag_34:\n    /* \"#utility.yul\":1192:1196   */\n  0x00\n    /* \"#utility.yul\":1230:1232   */\n  0x20\n    /* \"#utility.yul\":1219:1228   */\n  dup3\n    /* \"#utility.yul\":1215:1233   */\n  add\n    /* \"#utility.yul\":1207:1233   */\n  swap1\n  pop\n    /* \"#utility.yul\":1243:1314   */\n  tag_58\n    /* \"#utility.yul\":1311:1312   */\n  0x00\n    /* \"#utility.yul\":1300:1309   */\n  dup4\n    /* \"#utility.yul\":1296:1313   */\n  add\n    /* \"#utility.yul\":1287:1293   */\n  dup5\n    /* \"#utility.yul\":1243:1314   */\n  tag_50\n  jump\t// in\ntag_58:\n    /* \"#utility.yul\":1099:1321   */\n  swap3\n  swap2\n  pop\n  pop\n  jump\t// out\n    /* \"#utility.yul\":1408:1713   */\ntag_31:\n    /* \"#utility.yul\":1448:1451   */\n  0x00\n    /* \"#utility.yul\":1467:1487   */\n  tag_62\n    /* \"#utility.yul\":1485:1486   */\n  dup3\n    /* \"#utility.yul\":1467:1487   */\n  tag_53\n  jump\t// in\ntag_62:\n    /* \"#utility.yul\":1462:1487   */\n  swap2\n  pop\n    /* \"#utility.yul\":1501:1521   */\n  tag_63\n    /* \"#utility.yul\":1519:1520   */\n  dup4\n    /* \"#utility.yul\":1501:1521   */\n  tag_53\n  jump\t// in\ntag_63:\n    /* \"#utility.yul\":1496:1521   */\n  swap3\n  pop\n    /* \"#utility.yul\":1655:1656   */\n  dup3\n    /* \"#utility.yul\":1587:1653   */\n  0xffffffffffffffffffffffffffffffffffffffffffffffffffffffffffffffff\n    /* \"#utility.yul\":1583:1657   */\n  sub\n    /* \"#utility.yul\":1580:1581   */\n  dup3\n    /* \"#utility.yul\":1577:1658   */\n  gt\n    /* \"#utility.yul\":1574:1681   */\n  iszero\n  tag_64\n  jumpi\n    /* \"#utility.yul\":1661:1679   */\n  tag_65\n  tag_66\n  jump\t// in\ntag_65:\n    /* \"#utility.yul\":1574:1681   */\ntag_64:\n    /* \"#utility.yul\":1705:1706   */\n  dup3\n    /* \"#utility.yul\":1702:1703   */\n  dup3\n    /* \"#utility.yul\":1698:1707   */\n  add\n    /* \"#utility.yul\":1691:1707   */\n  swap1\n  pop\n    /* \"#utility.yul\":1408:1713   */\n  swap3\n  swap2\n  pop\n  pop\n  jump\t// out\n    /* \"#utility.yul\":1719:1815   */\ntag_49:\n    /* \"#utility.yul\":1756:1763   */\n  0x00\n    /* \"#utility.yul\":1785:1809   */\n  tag_68\n    /* \"#utility.yul\":1803:1808   */\n  dup3\n    /* \"#utility.yul\":1785:1809   */\n  tag_69\n  jump\t// in\ntag_68:\n    /* \"#utility.yul\":1774:1809   */\n  swap1\n  pop\n    /* \"#utility.yul\":1719:1815   */\n  swap2\n  swap1\n  pop\n  jump\t// out\n    /* \"#utility.yul\":1821:1947   */\ntag_69:\n    /* \"#utility.yul\":1858:1865   */\n  0x00\n    /* \"#utility.yul\":1898:1940   */\n  0xffffffffffffffffffffffffffffffffffffffff\n    /* \"#utility.yul\":1891:1896   */\n  dup3\n    /* \"#utility.yul\":1887:1941   */\n  and\n    /* \"#utility.yul\":1876:1941   */\n  swap1\n  pop\n    /* \"#utility.yul\":1821:1947   */\n  swap2\n  swap1\n  pop\n  jump\t// out\n    /* \"#utility.yul\":1953:2030   */\ntag_53:\n    /* \"#utility.yul\":1990:1997   */\n  0x00\n    /* \"#utility.yul\":2019:2024   */\n  dup2\n    /* \"#utility.yul\":2008:2024   */\n  swap1\n  pop\n    /* \"#utility.yul\":1953:2030   */\n  swap2\n  swap1\n  pop\n  jump\t// out\n    /* \"#utility.yul\":2036:2216   */\ntag_66:\n    /* \"#utility.yul\":2084:2161   */\n  0x4e487b7100000000000000000000000000000000000000000000000000000000\n    /* \"#utility.yul\":2081:2082   */\n  0x00\n    /* \"#utility.yul\":2074:2162   */\n  mstore\n    /* \"#utility.yul\":2181:2185   */\n  0x11\n    /* \"#utility.yul\":2178:2179   */\n  0x04\n    /* \"#utility.yul\":2171:2186   */\n  mstore\n    /* \"#utility.yul\":2205:2209   */\n  0x24\n    /* \"#utility.yul\":2202:2203   */\n  0x00\n    /* \"#utility.yul\":2195:2210   */\n  revert\n    /* \"#utility.yul\":2345:2462   */\ntag_44:\n    /* \"#utility.yul\":2454:2455   */\n  0x00\n    /* \"#utility.yul\":2451:2452   */\n  dup1\n    /* \"#utility.yul\":2444:2456   */\n  revert\n    /* \"#utility.yul\":2468:2590   */\ntag_40:\n    /* \"#utility.yul\":2541:2565   */\n  tag_77\n    /* \"#utility.yul\":2559:2564   */\n  dup2\n    /* \"#utility.yul\":2541:2565   */\n  tag_49\n  jump\t// in\ntag_77:\n    /* \"#utility.yul\":2534:2539   */\n  dup2\n    /* \"#utility.yul\":2531:2566   */\n  eq\n    /* \"#utility.yul\":2521:2584   */\n  tag_78\n  jumpi\n    /* \"#utility.yul\":2580:2581   */\n  0x00\n    /* \"#utility.yul\":2577:2578   */\n  dup1\n    /* \"#utility.yul\":2570:2582   */\n  revert\n    /* \"#utility.yul\":2521:2584   */\ntag_78:\n    /* \"#utility.yul\":2468:2590   */\n  pop\n  jump\t// out\n    /* \"ex/exchangeUsdtToken.sol\":14733:22811  contract SugarBaby is Context, IERC20, IERC20Metadata, Ownable{\r... */\ntag_26:\n  shr(0x60, mload(0x80))\n  codecopy(0x00, dataOffset(sub_0), dataSize(sub_0))\n  0x00\n  assignImmutable(\"0xd7808f34137184ea2a76cdf5703a918f1c3466e73e7696015a370efc4f64aff7\")\n  return(0x00, dataSize(sub_0))\nstop\n\nsub_0: assembly {\n        /* \"ex/exchangeUsdtToken.sol\":14733:22811  contract SugarBaby is Context, IERC20, IERC20Metadata, Ownable{\r... */\n      mstore(0x40, 0x80)\n      jumpi(tag_1, lt(calldatasize, 0x04))\n      shr(0xe0, calldataload(0x00))\n      dup1\n      0x715018a6\n      gt\n      tag_32\n      jumpi\n      dup1\n      0xa8808fcc\n      gt\n      tag_33\n      jumpi\n      dup1\n      0xdd62ed3e\n      gt\n      tag_34\n      jumpi\n      dup1\n      0xdd62ed3e\n      eq\n      tag_28\n      jumpi\n      dup1\n      0xdec1a6f6\n      eq\n      tag_29\n      jumpi\n      dup1\n      0xe5e31b13\n      eq\n      tag_30\n      jumpi\n      dup1\n      0xf2fde38b\n      eq\n      tag_31\n      jumpi\n      jump(tag_2)\n    tag_34:\n      dup1\n      0xa8808fcc\n      eq\n      tag_24\n      jumpi\n      dup1\n      0xa9059cbb\n      eq\n      tag_25\n      jumpi\n      dup1\n      0xc49b9a80\n      eq\n      tag_26\n      jumpi\n      dup1\n      0xdb2e21bc\n      eq\n      tag_27\n      jumpi\n      jump(tag_2)\n    tag_33:\n      dup1\n      0x95d89b41\n      gt\n      tag_35\n      jumpi\n      dup1\n      0x95d89b41\n      eq\n      tag_20\n      jumpi\n      dup1\n      0x9ab4a445\n      eq\n      tag_21\n      jumpi\n      dup1\n      0xa457c2d7\n      eq\n      tag_22\n      jumpi\n      dup1\n      0xa4c3b091\n      eq\n      tag_23\n      jumpi\n      jump(tag_2)\n    tag_35:\n      dup1\n      0x715018a6\n      eq\n      tag_17\n      jumpi\n      dup1\n      0x8da5cb5b\n      eq\n      tag_18\n      jumpi\n      dup1\n      0x95623641\n      eq\n      tag_19\n      jumpi\n      jump(tag_2)\n    tag_32:\n      dup1\n      0x42966c68\n      gt\n      tag_36\n      jumpi\n      dup1\n      0x4f2b408c\n      gt\n      tag_37\n      jumpi\n      dup1\n      0x4f2b408c\n      eq\n      tag_13\n      jumpi\n      dup1\n      0x536db266\n      eq\n      tag_14\n      jumpi\n      dup1\n      0x6dcea85f\n      eq\n      tag_15\n      jumpi\n      dup1\n      0x70a08231\n      eq\n      tag_16\n      jumpi\n      jump(tag_2)\n    tag_37:\n      dup1\n      0x42966c68\n      eq\n      tag_10\n      jumpi\n      dup1\n      0x49bd5a5e\n      eq\n      tag_11\n      jumpi\n      dup1\n      0x4a74bb02\n      eq\n      tag_12\n      jumpi\n      jump(tag_2)\n    tag_36:\n      dup1\n      0x18160ddd\n      gt\n      tag_38\n      jumpi\n      dup1\n      0x18160ddd\n      eq\n      tag_6\n      jumpi\n      dup1\n      0x23b872dd\n      eq\n      tag_7\n      jumpi\n      dup1\n      0x313ce567\n      eq\n      tag_8\n      jumpi\n      dup1\n      0x39509351\n      eq\n      tag_9\n      jumpi\n      jump(tag_2)\n    tag_38:\n      dup1\n      0x06fdde03\n      eq\n      tag_3\n      jumpi\n      dup1\n      0x095ea7b3\n      eq\n      tag_4\n      jumpi\n      dup1\n      0x1694505e\n      eq\n      tag_5\n      jumpi\n      jump(tag_2)\n    tag_1:\n      jumpi(tag_2, calldatasize)\n      stop\n    tag_2:\n      0x00\n      dup1\n      revert\n        /* \"ex/exchangeUsdtToken.sol\":16391:16498  function name() public view virtual override returns (string memory) {\r... */\n    tag_3:\n      callvalue\n      dup1\n      iszero\n      tag_41\n      jumpi\n      0x00\n      dup1\n      revert\n    tag_41:\n      pop\n      tag_42\n      tag_43\n      jump\t// in\n    tag_42:\n      mload(0x40)\n      tag_44\n      swap2\n      swap1\n      tag_45\n      jump\t// in\n    tag_44:\n      mload(0x40)\n      dup1\n      swap2\n      sub\n      swap1\n      return\n        /* \"ex/exchangeUsdtToken.sol\":17299:17465  function approve(address spender, uint amount) public virtual override returns (bool) {\r... */\n    tag_4:\n      callvalue\n      dup1\n      iszero\n      tag_46\n      jumpi\n      0x00\n      dup1\n      revert\n    tag_46:\n      pop\n      tag_47\n      0x04\n      dup1\n      calldatasize\n      sub\n      dup2\n      add\n      swap1\n      tag_48\n      swap2\n      swap1\n      tag_49\n      jump\t// in\n    tag_48:\n      tag_50\n      jump\t// in\n    tag_47:\n      mload(0x40)\n      tag_51\n      swap2\n      swap1\n      tag_52\n      jump\t// in\n    tag_51:\n      mload(0x40)\n      dup1\n      swap2\n      sub\n      swap1\n      return\n        /* \"ex/exchangeUsdtToken.sol\":15157:15212  IPancakeSwapV2Router02 public immutable uniswapV2Router */\n    tag_5:\n      callvalue\n      dup1\n      iszero\n      tag_53\n      jumpi\n      0x00\n      dup1\n      revert\n    tag_53:\n      pop\n      tag_54\n      tag_55\n      jump\t// in\n    tag_54:\n      mload(0x40)\n      tag_56\n      swap2\n      swap1\n      tag_57\n      jump\t// in\n    tag_56:\n      mload(0x40)\n      dup1\n      swap2\n      sub\n      swap1\n      return\n        /* \"ex/exchangeUsdtToken.sol\":16718:16823  function totalSupply() public view virtual override returns (uint) {\r... */\n    tag_6:\n      callvalue\n      dup1\n      iszero\n      tag_58\n      jumpi\n      0x00\n      dup1\n      revert\n    tag_58:\n      pop\n      tag_59\n      tag_60\n      jump\t// in\n    tag_59:\n      mload(0x40)\n      tag_61\n      swap2\n      swap1\n      tag_62\n      jump\t// in\n    tag_61:\n      mload(0x40)\n      dup1\n      swap2\n      sub\n      swap1\n      return\n        /* \"ex/exchangeUsdtToken.sol\":17473:17961  function transferFrom(\r... */\n    tag_7:\n      callvalue\n      dup1\n      iszero\n      tag_63\n      jumpi\n      0x00\n      dup1\n      revert\n    tag_63:\n      pop\n      tag_64\n      0x04\n      dup1\n      calldatasize\n      sub\n      dup2\n      add\n      swap1\n      tag_65\n      swap2\n      swap1\n      tag_66\n      jump\t// in\n    tag_65:\n      tag_67\n      jump\t// in\n    tag_64:\n      mload(0x40)\n      tag_68\n      swap2\n      swap1\n      tag_52\n      jump\t// in\n    tag_68:\n      mload(0x40)\n      dup1\n      swap2\n      sub\n      swap1\n      return\n        /* \"ex/exchangeUsdtToken.sol\":16617:16710  function decimals() public view virtual override returns (uint8) {\r... */\n    tag_8:\n      callvalue\n      dup1\n      iszero\n      tag_69\n      jumpi\n      0x00\n      dup1\n      revert\n    tag_69:\n      pop\n      tag_70\n      tag_71\n      jump\t// in\n    tag_70:\n      mload(0x40)\n      tag_72\n      swap2\n      swap1\n      tag_73\n      jump\t// in\n    tag_72:\n      mload(0x40)\n      dup1\n      swap2\n      sub\n      swap1\n      return\n        /* \"ex/exchangeUsdtToken.sol\":17969:18181  function increaseAllowance(address spender, uint addedValue) public virtual returns (bool) {\r... */\n    tag_9:\n      callvalue\n      dup1\n      iszero\n      tag_74\n      jumpi\n      0x00\n      dup1\n      revert\n    tag_74:\n      pop\n      tag_75\n      0x04\n      dup1\n      calldatasize\n      sub\n      dup2\n      add\n      swap1\n      tag_76\n      swap2\n      swap1\n      tag_49\n      jump\t// in\n    tag_76:\n      tag_77\n      jump\t// in\n    tag_75:\n      mload(0x40)\n      tag_78\n      swap2\n      swap1\n      tag_52\n      jump\t// in\n    tag_78:\n      mload(0x40)\n      dup1\n      swap2\n      sub\n      swap1\n      return\n        /* \"ex/exchangeUsdtToken.sol\":21305:21387  function burn(uint amount) external {\r... */\n    tag_10:\n      callvalue\n      dup1\n      iszero\n      tag_79\n      jumpi\n      0x00\n      dup1\n      revert\n    tag_79:\n      pop\n      tag_80\n      0x04\n      dup1\n      calldatasize\n      sub\n      dup2\n      add\n      swap1\n      tag_81\n      swap2\n      swap1\n      tag_82\n      jump\t// in\n    tag_81:\n      tag_83\n      jump\t// in\n    tag_80:\n      stop\n        /* \"ex/exchangeUsdtToken.sol\":15219:15247  address public uniswapV2Pair */\n    tag_11:\n      callvalue\n      dup1\n      iszero\n      tag_84\n      jumpi\n      0x00\n      dup1\n      revert\n    tag_84:\n      pop\n      tag_85\n      tag_86\n      jump\t// in\n    tag_85:\n      mload(0x40)\n      tag_87\n      swap2\n      swap1\n      tag_88\n      jump\t// in\n    tag_87:\n      mload(0x40)\n      dup1\n      swap2\n      sub\n      swap1\n      return\n        /* \"ex/exchangeUsdtToken.sol\":15360:15400  bool public swapAndLiquifyEnabled = true */\n    tag_12:\n      callvalue\n      dup1\n      iszero\n      tag_89\n      jumpi\n      0x00\n      dup1\n      revert\n    tag_89:\n      pop\n      tag_90\n      tag_91\n      jump\t// in\n    tag_90:\n      mload(0x40)\n      tag_92\n      swap2\n      swap1\n      tag_52\n      jump\t// in\n    tag_92:\n      mload(0x40)\n      dup1\n      swap2\n      sub\n      swap1\n      return\n        /* \"ex/exchangeUsdtToken.sol\":15407:15451  mapping (address => bool) public isExcludeds */\n    tag_13:\n      callvalue\n      dup1\n      iszero\n      tag_93\n      jumpi\n      0x00\n      dup1\n      revert\n    tag_93:\n      pop\n      tag_94\n      0x04\n      dup1\n      calldatasize\n      sub\n      dup2\n      add\n      swap1\n      tag_95\n      swap2\n      swap1\n      tag_96\n      jump\t// in\n    tag_95:\n      tag_97\n      jump\t// in\n    tag_94:\n      mload(0x40)\n      tag_98\n      swap2\n      swap1\n      tag_52\n      jump\t// in\n    tag_98:\n      mload(0x40)\n      dup1\n      swap2\n      sub\n      swap1\n      return\n        /* \"ex/exchangeUsdtToken.sol\":18606:18797  function addDex(address _pair) external onlyOwner {\r... */\n    tag_14:\n      callvalue\n      dup1\n      iszero\n      tag_99\n      jumpi\n      0x00\n      dup1\n      revert\n    tag_99:\n      pop\n      tag_100\n      0x04\n      dup1\n      calldatasize\n      sub\n      dup2\n      add\n      swap1\n      tag_101\n      swap2\n      swap1\n      tag_96\n      jump\t// in\n    tag_101:\n      tag_102\n      jump\t// in\n    tag_100:\n      stop\n        /* \"ex/exchangeUsdtToken.sol\":18805:18890  function setMarket(address to) public onlyOwner {\r... */\n    tag_15:\n      callvalue\n      dup1\n      iszero\n      tag_103\n      jumpi\n      0x00\n      dup1\n      revert\n    tag_103:\n      pop\n      tag_104\n      0x04\n      dup1\n      calldatasize\n      sub\n      dup2\n      add\n      swap1\n      tag_105\n      swap2\n      swap1\n      tag_96\n      jump\t// in\n    tag_105:\n      tag_106\n      jump\t// in\n    tag_104:\n      stop\n        /* \"ex/exchangeUsdtToken.sol\":16831:16955  function balanceOf(address account) public view virtual override returns (uint) {\r... */\n    tag_16:\n      callvalue\n      dup1\n      iszero\n      tag_107\n      jumpi\n      0x00\n      dup1\n      revert\n    tag_107:\n      pop\n      tag_108\n      0x04\n      dup1\n      calldatasize\n      sub\n      dup2\n      add\n      swap1\n      tag_109\n      swap2\n      swap1\n      tag_96\n      jump\t// in\n    tag_109:\n      tag_110\n      jump\t// in\n    tag_108:\n      mload(0x40)\n      tag_111\n      swap2\n      swap1\n      tag_62\n      jump\t// in\n    tag_111:\n      mload(0x40)\n      dup1\n      swap2\n      sub\n      swap1\n      return\n        /* \"ex/exchangeUsdtToken.sol\":3713:3816  function renounceOwnership() public virtual onlyOwner {\r... */\n    tag_17:\n      callvalue\n      dup1\n      iszero\n      tag_112\n      jumpi\n      0x00\n      dup1\n      revert\n    tag_112:\n      pop\n      tag_113\n      tag_114\n      jump\t// in\n    tag_113:\n      stop\n        /* \"ex/exchangeUsdtToken.sol\":3062:3149  function owner() public view virtual returns (address) {\r... */\n    tag_18:\n      callvalue\n      dup1\n      iszero\n      tag_115\n      jumpi\n      0x00\n      dup1\n      revert\n    tag_115:\n      pop\n      tag_116\n      tag_117\n      jump\t// in\n    tag_116:\n      mload(0x40)\n      tag_118\n      swap2\n      swap1\n      tag_88\n      jump\t// in\n    tag_118:\n      mload(0x40)\n      dup1\n      swap2\n      sub\n      swap1\n      return\n        /* \"ex/exchangeUsdtToken.sol\":15077:15150  address public marketAddress = 0xd3c0b6Aa1538d639912789be705F18b5Fd89fcE6 */\n    tag_19:\n      callvalue\n      dup1\n      iszero\n      tag_119\n      jumpi\n      0x00\n      dup1\n      revert\n    tag_119:\n      pop\n      tag_120\n      tag_121\n      jump\t// in\n    tag_120:\n      mload(0x40)\n      tag_122\n      swap2\n      swap1\n      tag_88\n      jump\t// in\n    tag_122:\n      mload(0x40)\n      dup1\n      swap2\n      sub\n      swap1\n      return\n        /* \"ex/exchangeUsdtToken.sol\":16506:16609  function symbol() public view virtual override returns (string memory) {\r... */\n    tag_20:\n      callvalue\n      dup1\n      iszero\n      tag_123\n      jumpi\n      0x00\n      dup1\n      revert\n    tag_123:\n      pop\n      tag_124\n      tag_125\n      jump\t// in\n    tag_124:\n      mload(0x40)\n      tag_126\n      swap2\n      swap1\n      tag_45\n      jump\t// in\n    tag_126:\n      mload(0x40)\n      dup1\n      swap2\n      sub\n      swap1\n      return\n        /* \"ex/exchangeUsdtToken.sol\":15254:15325  address public usdtAddress = 0x7ef95a0FEE0Dd31b22626fA2e10Ee6A223F8a684 */\n    tag_21:\n      callvalue\n      dup1\n      iszero\n      tag_127\n      jumpi\n      0x00\n      dup1\n      revert\n    tag_127:\n      pop\n      tag_128\n      tag_129\n      jump\t// in\n    tag_128:\n      mload(0x40)\n      tag_130\n      swap2\n      swap1\n      tag_88\n      jump\t// in\n    tag_130:\n      mload(0x40)\n      dup1\n      swap2\n      sub\n      swap1\n      return\n        /* \"ex/exchangeUsdtToken.sol\":18189:18598  function decreaseAllowance(address spender, uint subtractedValue) public virtual returns (bool) {\r... */\n    tag_22:\n      callvalue\n      dup1\n      iszero\n      tag_131\n      jumpi\n      0x00\n      dup1\n      revert\n    tag_131:\n      pop\n      tag_132\n      0x04\n      dup1\n      calldatasize\n      sub\n      dup2\n      add\n      swap1\n      tag_133\n      swap2\n      swap1\n      tag_49\n      jump\t// in\n    tag_133:\n      tag_134\n      jump\t// in\n    tag_132:\n      mload(0x40)\n      tag_135\n      swap2\n      swap1\n      tag_52\n      jump\t// in\n    tag_135:\n      mload(0x40)\n      dup1\n      swap2\n      sub\n      swap1\n      return\n        /* \"ex/exchangeUsdtToken.sol\":22665:22808  function emergencyWithdrawToken(address token, uint256 amount) external onlyOwner {\r... */\n    tag_23:\n      callvalue\n      dup1\n      iszero\n      tag_136\n      jumpi\n      0x00\n      dup1\n      revert\n    tag_136:\n      pop\n      tag_137\n      0x04\n      dup1\n      calldatasize\n      sub\n      dup2\n      add\n      swap1\n      tag_138\n      swap2\n      swap1\n      tag_49\n      jump\t// in\n    tag_138:\n      tag_139\n      jump\t// in\n    tag_137:\n      stop\n        /* \"ex/exchangeUsdtToken.sol\":22104:22316  function setExcludeds(address addr) public onlyOwner {\r... */\n    tag_24:\n      callvalue\n      dup1\n      iszero\n      tag_140\n      jumpi\n      0x00\n      dup1\n      revert\n    tag_140:\n      pop\n      tag_141\n      0x04\n      dup1\n      calldatasize\n      sub\n      dup2\n      add\n      swap1\n      tag_142\n      swap2\n      swap1\n      tag_96\n      jump\t// in\n    tag_142:\n      tag_143\n      jump\t// in\n    tag_141:\n      stop\n        /* \"ex/exchangeUsdtToken.sol\":16963:17135  function transfer(address recipient, uint amount) public virtual override returns (bool) {\r... */\n    tag_25:\n      callvalue\n      dup1\n      iszero\n      tag_144\n      jumpi\n      0x00\n      dup1\n      revert\n    tag_144:\n      pop\n      tag_145\n      0x04\n      dup1\n      calldatasize\n      sub\n      dup2\n      add\n      swap1\n      tag_146\n      swap2\n      swap1\n      tag_49\n      jump\t// in\n    tag_146:\n      tag_147\n      jump\t// in\n    tag_145:\n      mload(0x40)\n      tag_148\n      swap2\n      swap1\n      tag_52\n      jump\t// in\n    tag_148:\n      mload(0x40)\n      dup1\n      swap2\n      sub\n      swap1\n      return\n        /* \"ex/exchangeUsdtToken.sol\":22326:22497  function setSwapAndLiquifyEnabled(bool _enabled) public onlyOwner {\r... */\n    tag_26:\n      callvalue\n      dup1\n      iszero\n      tag_149\n      jumpi\n      0x00\n      dup1\n      revert\n    tag_149:\n      pop\n      tag_150\n      0x04\n      dup1\n      calldatasize\n      sub\n      dup2\n      add\n      swap1\n      tag_151\n      swap2\n      swap1\n      tag_152\n      jump\t// in\n    tag_151:\n      tag_153\n      jump\t// in\n    tag_150:\n      stop\n        /* \"ex/exchangeUsdtToken.sol\":22542:22657  function emergencyWithdraw() external onlyOwner {\r... */\n    tag_27:\n      callvalue\n      dup1\n      iszero\n      tag_154\n      jumpi\n      0x00\n      dup1\n      revert\n    tag_154:\n      pop\n      tag_155\n      tag_156\n      jump\t// in\n    tag_155:\n      stop\n        /* \"ex/exchangeUsdtToken.sol\":17143:17291  function allowance(address owner, address spender) public view virtual override returns (uint) {\r... */\n    tag_28:\n      callvalue\n      dup1\n      iszero\n      tag_157\n      jumpi\n      0x00\n      dup1\n      revert\n    tag_157:\n      pop\n      tag_158\n      0x04\n      dup1\n      calldatasize\n      sub\n      dup2\n      add\n      swap1\n      tag_159\n      swap2\n      swap1\n      tag_160\n      jump\t// in\n    tag_159:\n      tag_161\n      jump\t// in\n    tag_158:\n      mload(0x40)\n      tag_162\n      swap2\n      swap1\n      tag_62\n      jump\t// in\n    tag_162:\n      mload(0x40)\n      dup1\n      swap2\n      sub\n      swap1\n      return\n        /* \"ex/exchangeUsdtToken.sol\":15458:15493  mapping (address=>bool) public DEXs */\n    tag_29:\n      callvalue\n      dup1\n      iszero\n      tag_163\n      jumpi\n      0x00\n      dup1\n      revert\n    tag_163:\n      pop\n      tag_164\n      0x04\n      dup1\n      calldatasize\n      sub\n      dup2\n      add\n      swap1\n      tag_165\n      swap2\n      swap1\n      tag_96\n      jump\t// in\n    tag_165:\n      tag_166\n      jump\t// in\n    tag_164:\n      mload(0x40)\n      tag_167\n      swap2\n      swap1\n      tag_52\n      jump\t// in\n    tag_167:\n      mload(0x40)\n      dup1\n      swap2\n      sub\n      swap1\n      return\n        /* \"ex/exchangeUsdtToken.sol\":15500:15539  mapping (address => bool) public isPair */\n    tag_30:\n      callvalue\n      dup1\n      iszero\n      tag_168\n      jumpi\n      0x00\n      dup1\n      revert\n    tag_168:\n      pop\n      tag_169\n      0x04\n      dup1\n      calldatasize\n      sub\n      dup2\n      add\n      swap1\n      tag_170\n      swap2\n      swap1\n      tag_96\n      jump\t// in\n    tag_170:\n      tag_171\n      jump\t// in\n    tag_169:\n      mload(0x40)\n      tag_172\n      swap2\n      swap1\n      tag_52\n      jump\t// in\n    tag_172:\n      mload(0x40)\n      dup1\n      swap2\n      sub\n      swap1\n      return\n        /* \"ex/exchangeUsdtToken.sol\":3971:4172  function transferOwnership(address newOwner) public virtual onlyOwner {\r... */\n    tag_31:\n      callvalue\n      dup1\n      iszero\n      tag_173\n      jumpi\n      0x00\n      dup1\n      revert\n    tag_173:\n      pop\n      tag_174\n      0x04\n      dup1\n      calldatasize\n      sub\n      dup2\n      add\n      swap1\n      tag_175\n      swap2\n      swap1\n      tag_96\n      jump\t// in\n    tag_175:\n      tag_176\n      jump\t// in\n    tag_174:\n      stop\n        /* \"ex/exchangeUsdtToken.sol\":16391:16498  function name() public view virtual override returns (string memory) {\r... */\n    tag_43:\n        /* \"ex/exchangeUsdtToken.sol\":16445:16458  string memory */\n      0x60\n        /* \"ex/exchangeUsdtToken.sol\":16471:16490  return \"Sugar Baby\" */\n      mload(0x40)\n      dup1\n      0x40\n      add\n      0x40\n      mstore\n      dup1\n      0x0a\n      dup2\n      mstore\n      0x20\n      add\n      0x5375676172204261627900000000000000000000000000000000000000000000\n      dup2\n      mstore\n      pop\n      swap1\n      pop\n        /* \"ex/exchangeUsdtToken.sol\":16391:16498  function name() public view virtual override returns (string memory) {\r... */\n      swap1\n      jump\t// out\n        /* \"ex/exchangeUsdtToken.sol\":17299:17465  function approve(address spender, uint amount) public virtual override returns (bool) {\r... */\n    tag_50:\n        /* \"ex/exchangeUsdtToken.sol\":17379:17383  bool */\n      0x00\n        /* \"ex/exchangeUsdtToken.sol\":17396:17435  _approve(_msgSender(), spender, amount) */\n      tag_179\n        /* \"ex/exchangeUsdtToken.sol\":17405:17417  _msgSender() */\n      tag_180\n        /* \"ex/exchangeUsdtToken.sol\":17405:17415  _msgSender */\n      tag_181\n        /* \"ex/exchangeUsdtToken.sol\":17405:17417  _msgSender() */\n      jump\t// in\n    tag_180:\n        /* \"ex/exchangeUsdtToken.sol\":17419:17426  spender */\n      dup5\n        /* \"ex/exchangeUsdtToken.sol\":17428:17434  amount */\n      dup5\n        /* \"ex/exchangeUsdtToken.sol\":17396:17404  _approve */\n      tag_182\n        /* \"ex/exchangeUsdtToken.sol\":17396:17435  _approve(_msgSender(), spender, amount) */\n      jump\t// in\n    tag_179:\n        /* \"ex/exchangeUsdtToken.sol\":17453:17457  true */\n      0x01\n        /* \"ex/exchangeUsdtToken.sol\":17446:17457  return true */\n      swap1\n      pop\n        /* \"ex/exchangeUsdtToken.sol\":17299:17465  function approve(address spender, uint amount) public virtual override returns (bool) {\r... */\n      swap3\n      swap2\n      pop\n      pop\n      jump\t// out\n        /* \"ex/exchangeUsdtToken.sol\":15157:15212  IPancakeSwapV2Router02 public immutable uniswapV2Router */\n    tag_55:\n      immutable(\"0xd7808f34137184ea2a76cdf5703a918f1c3466e73e7696015a370efc4f64aff7\")\n      dup2\n      jump\t// out\n        /* \"ex/exchangeUsdtToken.sol\":16718:16823  function totalSupply() public view virtual override returns (uint) {\r... */\n    tag_60:\n        /* \"ex/exchangeUsdtToken.sol\":16779:16783  uint */\n      0x00\n        /* \"ex/exchangeUsdtToken.sol\":16803:16815  _totalSupply */\n      sload(0x03)\n        /* \"ex/exchangeUsdtToken.sol\":16796:16815  return _totalSupply */\n      swap1\n      pop\n        /* \"ex/exchangeUsdtToken.sol\":16718:16823  function totalSupply() public view virtual override returns (uint) {\r... */\n      swap1\n      jump\t// out\n        /* \"ex/exchangeUsdtToken.sol\":17473:17961  function transferFrom(\r... */\n    tag_67:\n        /* \"ex/exchangeUsdtToken.sol\":17610:17614  bool */\n      0x00\n        /* \"ex/exchangeUsdtToken.sol\":17627:17663  _transfer(sender, recipient, amount) */\n      tag_185\n        /* \"ex/exchangeUsdtToken.sol\":17637:17643  sender */\n      dup5\n        /* \"ex/exchangeUsdtToken.sol\":17645:17654  recipient */\n      dup5\n        /* \"ex/exchangeUsdtToken.sol\":17656:17662  amount */\n      dup5\n        /* \"ex/exchangeUsdtToken.sol\":17627:17636  _transfer */\n      tag_186\n        /* \"ex/exchangeUsdtToken.sol\":17627:17663  _transfer(sender, recipient, amount) */\n      jump\t// in\n    tag_185:\n        /* \"ex/exchangeUsdtToken.sol\":17676:17697  uint currentAllowance */\n      0x00\n        /* \"ex/exchangeUsdtToken.sol\":17700:17711  _allowances */\n      0x02\n        /* \"ex/exchangeUsdtToken.sol\":17700:17719  _allowances[sender] */\n      0x00\n        /* \"ex/exchangeUsdtToken.sol\":17712:17718  sender */\n      dup7\n        /* \"ex/exchangeUsdtToken.sol\":17700:17719  _allowances[sender] */\n      0xffffffffffffffffffffffffffffffffffffffff\n      and\n      0xffffffffffffffffffffffffffffffffffffffff\n      and\n      dup2\n      mstore\n      0x20\n      add\n      swap1\n      dup2\n      mstore\n      0x20\n      add\n      0x00\n      keccak256\n        /* \"ex/exchangeUsdtToken.sol\":17700:17733  _allowances[sender][_msgSender()] */\n      0x00\n        /* \"ex/exchangeUsdtToken.sol\":17720:17732  _msgSender() */\n      tag_187\n        /* \"ex/exchangeUsdtToken.sol\":17720:17730  _msgSender */\n      tag_181\n        /* \"ex/exchangeUsdtToken.sol\":17720:17732  _msgSender() */\n      jump\t// in\n    tag_187:\n        /* \"ex/exchangeUsdtToken.sol\":17700:17733  _allowances[sender][_msgSender()] */\n      0xffffffffffffffffffffffffffffffffffffffff\n      and\n      0xffffffffffffffffffffffffffffffffffffffff\n      and\n      dup2\n      mstore\n      0x20\n      add\n      swap1\n      dup2\n      mstore\n      0x20\n      add\n      0x00\n      keccak256\n      sload\n        /* \"ex/exchangeUsdtToken.sol\":17676:17733  uint currentAllowance = _allowances[sender][_msgSender()] */\n      swap1\n      pop\n        /* \"ex/exchangeUsdtToken.sol\":17772:17778  amount */\n      dup3\n        /* \"ex/exchangeUsdtToken.sol\":17752:17768  currentAllowance */\n      dup2\n        /* \"ex/exchangeUsdtToken.sol\":17752:17778  currentAllowance >= amount */\n      lt\n      iszero\n        /* \"ex/exchangeUsdtToken.sol\":17744:17827  require(currentAllowance >= amount, \"SugarBaby: transfer amount exceeds allowance\") */\n      tag_188\n      jumpi\n      mload(0x40)\n      0x08c379a000000000000000000000000000000000000000000000000000000000\n      dup2\n      mstore\n      0x04\n      add\n      tag_189\n      swap1\n      tag_190\n      jump\t// in\n    tag_189:\n      mload(0x40)\n      dup1\n      swap2\n      sub\n      swap1\n      revert\n    tag_188:\n        /* \"ex/exchangeUsdtToken.sol\":17863:17920  _approve(sender, _msgSender(), currentAllowance - amount) */\n      tag_191\n        /* \"ex/exchangeUsdtToken.sol\":17872:17878  sender */\n      dup6\n        /* \"ex/exchangeUsdtToken.sol\":17880:17892  _msgSender() */\n      tag_192\n        /* \"ex/exchangeUsdtToken.sol\":17880:17890  _msgSender */\n      tag_181\n        /* \"ex/exchangeUsdtToken.sol\":17880:17892  _msgSender() */\n      jump\t// in\n    tag_192:\n        /* \"ex/exchangeUsdtToken.sol\":17913:17919  amount */\n      dup6\n        /* \"ex/exchangeUsdtToken.sol\":17894:17910  currentAllowance */\n      dup5\n        /* \"ex/exchangeUsdtToken.sol\":17894:17919  currentAllowance - amount */\n      sub\n        /* \"ex/exchangeUsdtToken.sol\":17863:17871  _approve */\n      tag_182\n        /* \"ex/exchangeUsdtToken.sol\":17863:17920  _approve(sender, _msgSender(), currentAllowance - amount) */\n      jump\t// in\n    tag_191:\n        /* \"ex/exchangeUsdtToken.sol\":17949:17953  true */\n      0x01\n        /* \"ex/exchangeUsdtToken.sol\":17942:17953  return true */\n      swap2\n      pop\n      pop\n        /* \"ex/exchangeUsdtToken.sol\":17473:17961  function transferFrom(\r... */\n      swap4\n      swap3\n      pop\n      pop\n      pop\n      jump\t// out\n        /* \"ex/exchangeUsdtToken.sol\":16617:16710  function decimals() public view virtual override returns (uint8) {\r... */\n    tag_71:\n        /* \"ex/exchangeUsdtToken.sol\":16675:16680  uint8 */\n      0x00\n        /* \"ex/exchangeUsdtToken.sol\":16700:16702  18 */\n      0x12\n        /* \"ex/exchangeUsdtToken.sol\":16693:16702  return 18 */\n      swap1\n      pop\n        /* \"ex/exchangeUsdtToken.sol\":16617:16710  function decimals() public view virtual override returns (uint8) {\r... */\n      swap1\n      jump\t// out\n        /* \"ex/exchangeUsdtToken.sol\":17969:18181  function increaseAllowance(address spender, uint addedValue) public virtual returns (bool) {\r... */\n    tag_77:\n        /* \"ex/exchangeUsdtToken.sol\":18054:18058  bool */\n      0x00\n        /* \"ex/exchangeUsdtToken.sol\":18071:18151  _approve(_msgSender(), spender, _allowances[_msgSender()][spender] + addedValue) */\n      tag_195\n        /* \"ex/exchangeUsdtToken.sol\":18080:18092  _msgSender() */\n      tag_196\n        /* \"ex/exchangeUsdtToken.sol\":18080:18090  _msgSender */\n      tag_181\n        /* \"ex/exchangeUsdtToken.sol\":18080:18092  _msgSender() */\n      jump\t// in\n    tag_196:\n        /* \"ex/exchangeUsdtToken.sol\":18094:18101  spender */\n      dup5\n        /* \"ex/exchangeUsdtToken.sol\":18140:18150  addedValue */\n      dup5\n        /* \"ex/exchangeUsdtToken.sol\":18103:18114  _allowances */\n      0x02\n        /* \"ex/exchangeUsdtToken.sol\":18103:18128  _allowances[_msgSender()] */\n      0x00\n        /* \"ex/exchangeUsdtToken.sol\":18115:18127  _msgSender() */\n      tag_197\n        /* \"ex/exchangeUsdtToken.sol\":18115:18125  _msgSender */\n      tag_181\n        /* \"ex/exchangeUsdtToken.sol\":18115:18127  _msgSender() */\n      jump\t// in\n    tag_197:\n        /* \"ex/exchangeUsdtToken.sol\":18103:18128  _allowances[_msgSender()] */\n      0xffffffffffffffffffffffffffffffffffffffff\n      and\n      0xffffffffffffffffffffffffffffffffffffffff\n      and\n      dup2\n      mstore\n      0x20\n      add\n      swap1\n      dup2\n      mstore\n      0x20\n      add\n      0x00\n      keccak256\n        /* \"ex/exchangeUsdtToken.sol\":18103:18137  _allowances[_msgSender()][spender] */\n      0x00\n        /* \"ex/exchangeUsdtToken.sol\":18129:18136  spender */\n      dup9\n        /* \"ex/exchangeUsdtToken.sol\":18103:18137  _allowances[_msgSender()][spender] */\n      0xffffffffffffffffffffffffffffffffffffffff\n      and\n      0xffffffffffffffffffffffffffffffffffffffff\n      and\n      dup2\n      mstore\n      0x20\n      add\n      swap1\n      dup2\n      mstore\n      0x20\n      add\n      0x00\n      keccak256\n      sload\n        /* \"ex/exchangeUsdtToken.sol\":18103:18150  _allowances[_msgSender()][spender] + addedValue */\n      tag_198\n      swap2\n      swap1\n      tag_199\n      jump\t// in\n    tag_198:\n        /* \"ex/exchangeUsdtToken.sol\":18071:18079  _approve */\n      tag_182\n        /* \"ex/exchangeUsdtToken.sol\":18071:18151  _approve(_msgSender(), spender, _allowances[_msgSender()][spender] + addedValue) */\n      jump\t// in\n    tag_195:\n        /* \"ex/exchangeUsdtToken.sol\":18169:18173  true */\n      0x01\n        /* \"ex/exchangeUsdtToken.sol\":18162:18173  return true */\n      swap1\n      pop\n        /* \"ex/exchangeUsdtToken.sol\":17969:18181  function increaseAllowance(address spender, uint addedValue) public virtual returns (bool) {\r... */\n      swap3\n      swap2\n      pop\n      pop\n      jump\t// out\n        /* \"ex/exchangeUsdtToken.sol\":21305:21387  function burn(uint amount) external {\r... */\n    tag_83:\n        /* \"ex/exchangeUsdtToken.sol\":21352:21379  _burn(_msgSender(), amount) */\n      tag_201\n        /* \"ex/exchangeUsdtToken.sol\":21358:21370  _msgSender() */\n      tag_202\n        /* \"ex/exchangeUsdtToken.sol\":21358:21368  _msgSender */\n      tag_181\n        /* \"ex/exchangeUsdtToken.sol\":21358:21370  _msgSender() */\n      jump\t// in\n    tag_202:\n        /* \"ex/exchangeUsdtToken.sol\":21372:21378  amount */\n      dup3\n        /* \"ex/exchangeUsdtToken.sol\":21352:21357  _burn */\n      tag_203\n        /* \"ex/exchangeUsdtToken.sol\":21352:21379  _burn(_msgSender(), amount) */\n      jump\t// in\n    tag_201:\n        /* \"ex/exchangeUsdtToken.sol\":21305:21387  function burn(uint amount) external {\r... */\n      pop\n      jump\t// out\n        /* \"ex/exchangeUsdtToken.sol\":15219:15247  address public uniswapV2Pair */\n    tag_86:\n      0x07\n      0x00\n      swap1\n      sload\n      swap1\n      0x0100\n      exp\n      swap1\n      div\n      0xffffffffffffffffffffffffffffffffffffffff\n      and\n      dup2\n      jump\t// out\n        /* \"ex/exchangeUsdtToken.sol\":15360:15400  bool public swapAndLiquifyEnabled = true */\n    tag_91:\n      0x08\n      0x15\n      swap1\n      sload\n      swap1\n      0x0100\n      exp\n      swap1\n      div\n      0xff\n      and\n      dup2\n      jump\t// out\n        /* \"ex/exchangeUsdtToken.sol\":15407:15451  mapping (address => bool) public isExcludeds */\n    tag_97:\n      mstore(0x20, 0x09)\n      dup1\n      0x00\n      mstore\n      keccak256(0x00, 0x40)\n      0x00\n      swap2\n      pop\n      sload\n      swap1\n      0x0100\n      exp\n      swap1\n      div\n      0xff\n      and\n      dup2\n      jump\t// out\n        /* \"ex/exchangeUsdtToken.sol\":18606:18797  function addDex(address _pair) external onlyOwner {\r... */\n    tag_102:\n        /* \"ex/exchangeUsdtToken.sol\":3293:3305  _msgSender() */\n      tag_205\n        /* \"ex/exchangeUsdtToken.sol\":3293:3303  _msgSender */\n      tag_181\n        /* \"ex/exchangeUsdtToken.sol\":3293:3305  _msgSender() */\n      jump\t// in\n    tag_205:\n        /* \"ex/exchangeUsdtToken.sol\":3282:3305  owner() == _msgSender() */\n      0xffffffffffffffffffffffffffffffffffffffff\n      and\n        /* \"ex/exchangeUsdtToken.sol\":3282:3289  owner() */\n      tag_206\n        /* \"ex/exchangeUsdtToken.sol\":3282:3287  owner */\n      tag_117\n        /* \"ex/exchangeUsdtToken.sol\":3282:3289  owner() */\n      jump\t// in\n    tag_206:\n        /* \"ex/exchangeUsdtToken.sol\":3282:3305  owner() == _msgSender() */\n      0xffffffffffffffffffffffffffffffffffffffff\n      and\n      eq\n        /* \"ex/exchangeUsdtToken.sol\":3274:3342  require(owner() == _msgSender(), \"Ownable: caller is not the owner\") */\n      tag_207\n      jumpi\n      mload(0x40)\n      0x08c379a000000000000000000000000000000000000000000000000000000000\n      dup2\n      mstore\n      0x04\n      add\n      tag_208\n      swap1\n      tag_209\n      jump\t// in\n    tag_208:\n      mload(0x40)\n      dup1\n      swap2\n      sub\n      swap1\n      revert\n    tag_207:\n        /* \"ex/exchangeUsdtToken.sol\":18671:18675  DEXs */\n      0x0a\n        /* \"ex/exchangeUsdtToken.sol\":18671:18682  DEXs[_pair] */\n      0x00\n        /* \"ex/exchangeUsdtToken.sol\":18676:18681  _pair */\n      dup3\n        /* \"ex/exchangeUsdtToken.sol\":18671:18682  DEXs[_pair] */\n      0xffffffffffffffffffffffffffffffffffffffff\n      and\n      0xffffffffffffffffffffffffffffffffffffffff\n      and\n      dup2\n      mstore\n      0x20\n      add\n      swap1\n      dup2\n      mstore\n      0x20\n      add\n      0x00\n      keccak256\n      0x00\n      swap1\n      sload\n      swap1\n      0x0100\n      exp\n      swap1\n      div\n      0xff\n      and\n        /* \"ex/exchangeUsdtToken.sol\":18667:18781  if (DEXs[_pair]) {\r... */\n      iszero\n      tag_211\n      jumpi\n        /* \"ex/exchangeUsdtToken.sol\":18713:18718  false */\n      0x00\n        /* \"ex/exchangeUsdtToken.sol\":18699:18703  DEXs */\n      0x0a\n        /* \"ex/exchangeUsdtToken.sol\":18699:18710  DEXs[_pair] */\n      0x00\n        /* \"ex/exchangeUsdtToken.sol\":18704:18709  _pair */\n      dup4\n        /* \"ex/exchangeUsdtToken.sol\":18699:18710  DEXs[_pair] */\n      0xffffffffffffffffffffffffffffffffffffffff\n      and\n      0xffffffffffffffffffffffffffffffffffffffff\n      and\n      dup2\n      mstore\n      0x20\n      add\n      swap1\n      dup2\n      mstore\n      0x20\n      add\n      0x00\n      keccak256\n      0x00\n        /* \"ex/exchangeUsdtToken.sol\":18699:18718  DEXs[_pair] = false */\n      0x0100\n      exp\n      dup2\n      sload\n      dup2\n      0xff\n      mul\n      not\n      and\n      swap1\n      dup4\n      iszero\n      iszero\n      mul\n      or\n      swap1\n      sstore\n      pop\n        /* \"ex/exchangeUsdtToken.sol\":18667:18781  if (DEXs[_pair]) {\r... */\n      jump(tag_212)\n    tag_211:\n        /* \"ex/exchangeUsdtToken.sol\":18765:18769  true */\n      0x01\n        /* \"ex/exchangeUsdtToken.sol\":18751:18755  DEXs */\n      0x0a\n        /* \"ex/exchangeUsdtToken.sol\":18751:18762  DEXs[_pair] */\n      0x00\n        /* \"ex/exchangeUsdtToken.sol\":18756:18761  _pair */\n      dup4\n        /* \"ex/exchangeUsdtToken.sol\":18751:18762  DEXs[_pair] */\n      0xffffffffffffffffffffffffffffffffffffffff\n      and\n      0xffffffffffffffffffffffffffffffffffffffff\n      and\n      dup2\n      mstore\n      0x20\n      add\n      swap1\n      dup2\n      mstore\n      0x20\n      add\n      0x00\n      keccak256\n      0x00\n        /* \"ex/exchangeUsdtToken.sol\":18751:18769  DEXs[_pair] = true */\n      0x0100\n      exp\n      dup2\n      sload\n      dup2\n      0xff\n      mul\n      not\n      and\n      swap1\n      dup4\n      iszero\n      iszero\n      mul\n      or\n      swap1\n      sstore\n      pop\n        /* \"ex/exchangeUsdtToken.sol\":18667:18781  if (DEXs[_pair]) {\r... */\n    tag_212:\n        /* \"ex/exchangeUsdtToken.sol\":18606:18797  function addDex(address _pair) external onlyOwner {\r... */\n      pop\n      jump\t// out\n        /* \"ex/exchangeUsdtToken.sol\":18805:18890  function setMarket(address to) public onlyOwner {\r... */\n    tag_106:\n        /* \"ex/exchangeUsdtToken.sol\":3293:3305  _msgSender() */\n      tag_214\n        /* \"ex/exchangeUsdtToken.sol\":3293:3303  _msgSender */\n      tag_181\n        /* \"ex/exchangeUsdtToken.sol\":3293:3305  _msgSender() */\n      jump\t// in\n    tag_214:\n        /* \"ex/exchangeUsdtToken.sol\":3282:3305  owner() == _msgSender() */\n      0xffffffffffffffffffffffffffffffffffffffff\n      and\n        /* \"ex/exchangeUsdtToken.sol\":3282:3289  owner() */\n      tag_215\n        /* \"ex/exchangeUsdtToken.sol\":3282:3287  owner */\n      tag_117\n        /* \"ex/exchangeUsdtToken.sol\":3282:3289  owner() */\n      jump\t// in\n    tag_215:\n        /* \"ex/exchangeUsdtToken.sol\":3282:3305  owner() == _msgSender() */\n      0xffffffffffffffffffffffffffffffffffffffff\n      and\n      eq\n        /* \"ex/exchangeUsdtToken.sol\":3274:3342  require(owner() == _msgSender(), \"Ownable: caller is not the owner\") */\n      tag_216\n      jumpi\n      mload(0x40)\n      0x08c379a000000000000000000000000000000000000000000000000000000000\n      dup2\n      mstore\n      0x04\n      add\n      tag_217\n      swap1\n      tag_209\n      jump\t// in\n    tag_217:\n      mload(0x40)\n      dup1\n      swap2\n      sub\n      swap1\n      revert\n    tag_216:\n        /* \"ex/exchangeUsdtToken.sol\":18880:18882  to */\n      dup1\n        /* \"ex/exchangeUsdtToken.sol\":18864:18877  marketAddress */\n      0x06\n      0x00\n        /* \"ex/exchangeUsdtToken.sol\":18864:18882  marketAddress = to */\n      0x0100\n      exp\n      dup2\n      sload\n      dup2\n      0xffffffffffffffffffffffffffffffffffffffff\n      mul\n      not\n      and\n      swap1\n      dup4\n      0xffffffffffffffffffffffffffffffffffffffff\n      and\n      mul\n      or\n      swap1\n      sstore\n      pop\n        /* \"ex/exchangeUsdtToken.sol\":18805:18890  function setMarket(address to) public onlyOwner {\r... */\n      pop\n      jump\t// out\n        /* \"ex/exchangeUsdtToken.sol\":16831:16955  function balanceOf(address account) public view virtual override returns (uint) {\r... */\n    tag_110:\n        /* \"ex/exchangeUsdtToken.sol\":16905:16909  uint */\n      0x00\n        /* \"ex/exchangeUsdtToken.sol\":16929:16938  _balances */\n      0x01\n        /* \"ex/exchangeUsdtToken.sol\":16929:16947  _balances[account] */\n      0x00\n        /* \"ex/exchangeUsdtToken.sol\":16939:16946  account */\n      dup4\n        /* \"ex/exchangeUsdtToken.sol\":16929:16947  _balances[account] */\n      0xffffffffffffffffffffffffffffffffffffffff\n      and\n      0xffffffffffffffffffffffffffffffffffffffff\n      and\n      dup2\n      mstore\n      0x20\n      add\n      swap1\n      dup2\n      mstore\n      0x20\n      add\n      0x00\n      keccak256\n      sload\n        /* \"ex/exchangeUsdtToken.sol\":16922:16947  return _balances[account] */\n      swap1\n      pop\n        /* \"ex/exchangeUsdtToken.sol\":16831:16955  function balanceOf(address account) public view virtual override returns (uint) {\r... */\n      swap2\n      swap1\n      pop\n      jump\t// out\n        /* \"ex/exchangeUsdtToken.sol\":3713:3816  function renounceOwnership() public virtual onlyOwner {\r... */\n    tag_114:\n        /* \"ex/exchangeUsdtToken.sol\":3293:3305  _msgSender() */\n      tag_221\n        /* \"ex/exchangeUsdtToken.sol\":3293:3303  _msgSender */\n      tag_181\n        /* \"ex/exchangeUsdtToken.sol\":3293:3305  _msgSender() */\n      jump\t// in\n    tag_221:\n        /* \"ex/exchangeUsdtToken.sol\":3282:3305  owner() == _msgSender() */\n      0xffffffffffffffffffffffffffffffffffffffff\n      and\n        /* \"ex/exchangeUsdtToken.sol\":3282:3289  owner() */\n      tag_222\n        /* \"ex/exchangeUsdtToken.sol\":3282:3287  owner */\n      tag_117\n        /* \"ex/exchangeUsdtToken.sol\":3282:3289  owner() */\n      jump\t// in\n    tag_222:\n        /* \"ex/exchangeUsdtToken.sol\":3282:3305  owner() == _msgSender() */\n      0xffffffffffffffffffffffffffffffffffffffff\n      and\n      eq\n        /* \"ex/exchangeUsdtToken.sol\":3274:3342  require(owner() == _msgSender(), \"Ownable: caller is not the owner\") */\n      tag_223\n      jumpi\n      mload(0x40)\n      0x08c379a000000000000000000000000000000000000000000000000000000000\n      dup2\n      mstore\n      0x04\n      add\n      tag_224\n      swap1\n      tag_209\n      jump\t// in\n    tag_224:\n      mload(0x40)\n      dup1\n      swap2\n      sub\n      swap1\n      revert\n    tag_223:\n        /* \"ex/exchangeUsdtToken.sol\":3778:3808  _transferOwnership(address(0)) */\n      tag_226\n        /* \"ex/exchangeUsdtToken.sol\":3805:3806  0 */\n      0x00\n        /* \"ex/exchangeUsdtToken.sol\":3778:3796  _transferOwnership */\n      tag_227\n        /* \"ex/exchangeUsdtToken.sol\":3778:3808  _transferOwnership(address(0)) */\n      jump\t// in\n    tag_226:\n        /* \"ex/exchangeUsdtToken.sol\":3713:3816  function renounceOwnership() public virtual onlyOwner {\r... */\n      jump\t// out\n        /* \"ex/exchangeUsdtToken.sol\":3062:3149  function owner() public view virtual returns (address) {\r... */\n    tag_117:\n        /* \"ex/exchangeUsdtToken.sol\":3108:3115  address */\n      0x00\n        /* \"ex/exchangeUsdtToken.sol\":3135:3141  _owner */\n      dup1\n      0x00\n      swap1\n      sload\n      swap1\n      0x0100\n      exp\n      swap1\n      div\n      0xffffffffffffffffffffffffffffffffffffffff\n      and\n        /* \"ex/exchangeUsdtToken.sol\":3128:3141  return _owner */\n      swap1\n      pop\n        /* \"ex/exchangeUsdtToken.sol\":3062:3149  function owner() public view virtual returns (address) {\r... */\n      swap1\n      jump\t// out\n        /* \"ex/exchangeUsdtToken.sol\":15077:15150  address public marketAddress = 0xd3c0b6Aa1538d639912789be705F18b5Fd89fcE6 */\n    tag_121:\n      0x06\n      0x00\n      swap1\n      sload\n      swap1\n      0x0100\n      exp\n      swap1\n      div\n      0xffffffffffffffffffffffffffffffffffffffff\n      and\n      dup2\n      jump\t// out\n        /* \"ex/exchangeUsdtToken.sol\":16506:16609  function symbol() public view virtual override returns (string memory) {\r... */\n    tag_125:\n        /* \"ex/exchangeUsdtToken.sol\":16562:16575  string memory */\n      0x60\n        /* \"ex/exchangeUsdtToken.sol\":16588:16601  return \"BABY\" */\n      mload(0x40)\n      dup1\n      0x40\n      add\n      0x40\n      mstore\n      dup1\n      0x04\n      dup2\n      mstore\n      0x20\n      add\n      0x4241425900000000000000000000000000000000000000000000000000000000\n      dup2\n      mstore\n      pop\n      swap1\n      pop\n        /* \"ex/exchangeUsdtToken.sol\":16506:16609  function symbol() public view virtual override returns (string memory) {\r... */\n      swap1\n      jump\t// out\n        /* \"ex/exchangeUsdtToken.sol\":15254:15325  address public usdtAddress = 0x7ef95a0FEE0Dd31b22626fA2e10Ee6A223F8a684 */\n    tag_129:\n      0x08\n      0x00\n      swap1\n      sload\n      swap1\n      0x0100\n      exp\n      swap1\n      div\n      0xffffffffffffffffffffffffffffffffffffffff\n      and\n      dup2\n      jump\t// out\n        /* \"ex/exchangeUsdtToken.sol\":18189:18598  function decreaseAllowance(address spender, uint subtractedValue) public virtual returns (bool) {\r... */\n    tag_134:\n        /* \"ex/exchangeUsdtToken.sol\":18279:18283  bool */\n      0x00\n        /* \"ex/exchangeUsdtToken.sol\":18296:18317  uint currentAllowance */\n      dup1\n        /* \"ex/exchangeUsdtToken.sol\":18320:18331  _allowances */\n      0x02\n        /* \"ex/exchangeUsdtToken.sol\":18320:18345  _allowances[_msgSender()] */\n      0x00\n        /* \"ex/exchangeUsdtToken.sol\":18332:18344  _msgSender() */\n      tag_231\n        /* \"ex/exchangeUsdtToken.sol\":18332:18342  _msgSender */\n      tag_181\n        /* \"ex/exchangeUsdtToken.sol\":18332:18344  _msgSender() */\n      jump\t// in\n    tag_231:\n        /* \"ex/exchangeUsdtToken.sol\":18320:18345  _allowances[_msgSender()] */\n      0xffffffffffffffffffffffffffffffffffffffff\n      and\n      0xffffffffffffffffffffffffffffffffffffffff\n      and\n      dup2\n      mstore\n      0x20\n      add\n      swap1\n      dup2\n      mstore\n      0x20\n      add\n      0x00\n      keccak256\n        /* \"ex/exchangeUsdtToken.sol\":18320:18354  _allowances[_msgSender()][spender] */\n      0x00\n        /* \"ex/exchangeUsdtToken.sol\":18346:18353  spender */\n      dup6\n        /* \"ex/exchangeUsdtToken.sol\":18320:18354  _allowances[_msgSender()][spender] */\n      0xffffffffffffffffffffffffffffffffffffffff\n      and\n      0xffffffffffffffffffffffffffffffffffffffff\n      and\n      dup2\n      mstore\n      0x20\n      add\n      swap1\n      dup2\n      mstore\n      0x20\n      add\n      0x00\n      keccak256\n      sload\n        /* \"ex/exchangeUsdtToken.sol\":18296:18354  uint currentAllowance = _allowances[_msgSender()][spender] */\n      swap1\n      pop\n        /* \"ex/exchangeUsdtToken.sol\":18393:18408  subtractedValue */\n      dup3\n        /* \"ex/exchangeUsdtToken.sol\":18373:18389  currentAllowance */\n      dup2\n        /* \"ex/exchangeUsdtToken.sol\":18373:18408  currentAllowance >= subtractedValue */\n      lt\n      iszero\n        /* \"ex/exchangeUsdtToken.sol\":18365:18454  require(currentAllowance >= subtractedValue, \"SugarBaby: decreased allowance below zero\") */\n      tag_232\n      jumpi\n      mload(0x40)\n      0x08c379a000000000000000000000000000000000000000000000000000000000\n      dup2\n      mstore\n      0x04\n      add\n      tag_233\n      swap1\n      tag_234\n      jump\t// in\n    tag_233:\n      mload(0x40)\n      dup1\n      swap2\n      sub\n      swap1\n      revert\n    tag_232:\n        /* \"ex/exchangeUsdtToken.sol\":18490:18557  _approve(_msgSender(), spender, currentAllowance - subtractedValue) */\n      tag_235\n        /* \"ex/exchangeUsdtToken.sol\":18499:18511  _msgSender() */\n      tag_236\n        /* \"ex/exchangeUsdtToken.sol\":18499:18509  _msgSender */\n      tag_181\n        /* \"ex/exchangeUsdtToken.sol\":18499:18511  _msgSender() */\n      jump\t// in\n    tag_236:\n        /* \"ex/exchangeUsdtToken.sol\":18513:18520  spender */\n      dup6\n        /* \"ex/exchangeUsdtToken.sol\":18541:18556  subtractedValue */\n      dup6\n        /* \"ex/exchangeUsdtToken.sol\":18522:18538  currentAllowance */\n      dup5\n        /* \"ex/exchangeUsdtToken.sol\":18522:18556  currentAllowance - subtractedValue */\n      sub\n        /* \"ex/exchangeUsdtToken.sol\":18490:18498  _approve */\n      tag_182\n        /* \"ex/exchangeUsdtToken.sol\":18490:18557  _approve(_msgSender(), spender, currentAllowance - subtractedValue) */\n      jump\t// in\n    tag_235:\n        /* \"ex/exchangeUsdtToken.sol\":18586:18590  true */\n      0x01\n        /* \"ex/exchangeUsdtToken.sol\":18579:18590  return true */\n      swap2\n      pop\n      pop\n        /* \"ex/exchangeUsdtToken.sol\":18189:18598  function decreaseAllowance(address spender, uint subtractedValue) public virtual returns (bool) {\r... */\n      swap3\n      swap2\n      pop\n      pop\n      jump\t// out\n        /* \"ex/exchangeUsdtToken.sol\":22665:22808  function emergencyWithdrawToken(address token, uint256 amount) external onlyOwner {\r... */\n    tag_139:\n        /* \"ex/exchangeUsdtToken.sol\":3293:3305  _msgSender() */\n      tag_238\n        /* \"ex/exchangeUsdtToken.sol\":3293:3303  _msgSender */\n      tag_181\n        /* \"ex/exchangeUsdtToken.sol\":3293:3305  _msgSender() */\n      jump\t// in\n    tag_238:\n        /* \"ex/exchangeUsdtToken.sol\":3282:3305  owner() == _msgSender() */\n      0xffffffffffffffffffffffffffffffffffffffff\n      and\n        /* \"ex/exchangeUsdtToken.sol\":3282:3289  owner() */\n      tag_239\n        /* \"ex/exchangeUsdtToken.sol\":3282:3287  owner */\n      tag_117\n        /* \"ex/exchangeUsdtToken.sol\":3282:3289  owner() */\n      jump\t// in\n    tag_239:\n        /* \"ex/exchangeUsdtToken.sol\":3282:3305  owner() == _msgSender() */\n      0xffffffffffffffffffffffffffffffffffffffff\n      and\n      eq\n        /* \"ex/exchangeUsdtToken.sol\":3274:3342  require(owner() == _msgSender(), \"Ownable: caller is not the owner\") */\n      tag_240\n      jumpi\n      mload(0x40)\n      0x08c379a000000000000000000000000000000000000000000000000000000000\n      dup2\n      mstore\n      0x04\n      add\n      tag_241\n      swap1\n      tag_209\n      jump\t// in\n    tag_241:\n      mload(0x40)\n      dup1\n      swap2\n      sub\n      swap1\n      revert\n    tag_240:\n        /* \"ex/exchangeUsdtToken.sol\":22765:22770  token */\n      dup2\n        /* \"ex/exchangeUsdtToken.sol\":22758:22780  IERC20(token).transfer */\n      0xffffffffffffffffffffffffffffffffffffffff\n      and\n      0xa9059cbb\n        /* \"ex/exchangeUsdtToken.sol\":22781:22791  msg.sender */\n      caller\n        /* \"ex/exchangeUsdtToken.sol\":22793:22799  amount */\n      dup4\n        /* \"ex/exchangeUsdtToken.sol\":22758:22800  IERC20(token).transfer(msg.sender, amount) */\n      mload(0x40)\n      dup4\n      0xffffffff\n      and\n      0xe0\n      shl\n      dup2\n      mstore\n      0x04\n      add\n      tag_243\n      swap3\n      swap2\n      swap1\n      tag_244\n      jump\t// in\n    tag_243:\n      0x20\n      mload(0x40)\n      dup1\n      dup4\n      sub\n      dup2\n      0x00\n      dup8\n      dup1\n      extcodesize\n      iszero\n      dup1\n      iszero\n      tag_245\n      jumpi\n      0x00\n      dup1\n      revert\n    tag_245:\n      pop\n      gas\n      call\n      iszero\n      dup1\n      iszero\n      tag_247\n      jumpi\n      returndatasize\n      0x00\n      dup1\n      returndatacopy\n      revert(0x00, returndatasize)\n    tag_247:\n      pop\n      pop\n      pop\n      pop\n      mload(0x40)\n      returndatasize\n      not(0x1f)\n      0x1f\n      dup3\n      add\n      and\n      dup3\n      add\n      dup1\n      0x40\n      mstore\n      pop\n      dup2\n      add\n      swap1\n      tag_248\n      swap2\n      swap1\n      tag_249\n      jump\t// in\n    tag_248:\n      pop\n        /* \"ex/exchangeUsdtToken.sol\":22665:22808  function emergencyWithdrawToken(address token, uint256 amount) external onlyOwner {\r... */\n      pop\n      pop\n      jump\t// out\n        /* \"ex/exchangeUsdtToken.sol\":22104:22316  function setExcludeds(address addr) public onlyOwner {\r... */\n    tag_143:\n        /* \"ex/exchangeUsdtToken.sol\":3293:3305  _msgSender() */\n      tag_251\n        /* \"ex/exchangeUsdtToken.sol\":3293:3303  _msgSender */\n      tag_181\n        /* \"ex/exchangeUsdtToken.sol\":3293:3305  _msgSender() */\n      jump\t// in\n    tag_251:\n        /* \"ex/exchangeUsdtToken.sol\":3282:3305  owner() == _msgSender() */\n      0xffffffffffffffffffffffffffffffffffffffff\n      and\n        /* \"ex/exchangeUsdtToken.sol\":3282:3289  owner() */\n      tag_252\n        /* \"ex/exchangeUsdtToken.sol\":3282:3287  owner */\n      tag_117\n        /* \"ex/exchangeUsdtToken.sol\":3282:3289  owner() */\n      jump\t// in\n    tag_252:\n        /* \"ex/exchangeUsdtToken.sol\":3282:3305  owner() == _msgSender() */\n      0xffffffffffffffffffffffffffffffffffffffff\n      and\n      eq\n        /* \"ex/exchangeUsdtToken.sol\":3274:3342  require(owner() == _msgSender(), \"Ownable: caller is not the owner\") */\n      tag_253\n      jumpi\n      mload(0x40)\n      0x08c379a000000000000000000000000000000000000000000000000000000000\n      dup2\n      mstore\n      0x04\n      add\n      tag_254\n      swap1\n      tag_209\n      jump\t// in\n    tag_254:\n      mload(0x40)\n      dup1\n      swap2\n      sub\n      swap1\n      revert\n    tag_253:\n        /* \"ex/exchangeUsdtToken.sol\":22193:22197  true */\n      0x01\n        /* \"ex/exchangeUsdtToken.sol\":22172:22197  isExcludeds[addr] == true */\n      iszero\n      iszero\n        /* \"ex/exchangeUsdtToken.sol\":22172:22183  isExcludeds */\n      0x09\n        /* \"ex/exchangeUsdtToken.sol\":22172:22189  isExcludeds[addr] */\n      0x00\n        /* \"ex/exchangeUsdtToken.sol\":22184:22188  addr */\n      dup4\n        /* \"ex/exchangeUsdtToken.sol\":22172:22189  isExcludeds[addr] */\n      0xffffffffffffffffffffffffffffffffffffffff\n      and\n      0xffffffffffffffffffffffffffffffffffffffff\n      and\n      dup2\n      mstore\n      0x20\n      add\n      swap1\n      dup2\n      mstore\n      0x20\n      add\n      0x00\n      keccak256\n      0x00\n      swap1\n      sload\n      swap1\n      0x0100\n      exp\n      swap1\n      div\n      0xff\n      and\n        /* \"ex/exchangeUsdtToken.sol\":22172:22197  isExcludeds[addr] == true */\n      iszero\n      iszero\n      eq\n        /* \"ex/exchangeUsdtToken.sol\":22168:22309  if (isExcludeds[addr] == true) {\r... */\n      iszero\n      tag_256\n      jumpi\n        /* \"ex/exchangeUsdtToken.sol\":22234:22239  false */\n      0x00\n        /* \"ex/exchangeUsdtToken.sol\":22214:22225  isExcludeds */\n      0x09\n        /* \"ex/exchangeUsdtToken.sol\":22214:22231  isExcludeds[addr] */\n      0x00\n        /* \"ex/exchangeUsdtToken.sol\":22226:22230  addr */\n      dup4\n        /* \"ex/exchangeUsdtToken.sol\":22214:22231  isExcludeds[addr] */\n      0xffffffffffffffffffffffffffffffffffffffff\n      and\n      0xffffffffffffffffffffffffffffffffffffffff\n      and\n      dup2\n      mstore\n      0x20\n      add\n      swap1\n      dup2\n      mstore\n      0x20\n      add\n      0x00\n      keccak256\n      0x00\n        /* \"ex/exchangeUsdtToken.sol\":22214:22239  isExcludeds[addr] = false */\n      0x0100\n      exp\n      dup2\n      sload\n      dup2\n      0xff\n      mul\n      not\n      and\n      swap1\n      dup4\n      iszero\n      iszero\n      mul\n      or\n      swap1\n      sstore\n      pop\n        /* \"ex/exchangeUsdtToken.sol\":22168:22309  if (isExcludeds[addr] == true) {\r... */\n      jump(tag_257)\n    tag_256:\n        /* \"ex/exchangeUsdtToken.sol\":22293:22297  true */\n      0x01\n        /* \"ex/exchangeUsdtToken.sol\":22273:22284  isExcludeds */\n      0x09\n        /* \"ex/exchangeUsdtToken.sol\":22273:22290  isExcludeds[addr] */\n      0x00\n        /* \"ex/exchangeUsdtToken.sol\":22285:22289  addr */\n      dup4\n        /* \"ex/exchangeUsdtToken.sol\":22273:22290  isExcludeds[addr] */\n      0xffffffffffffffffffffffffffffffffffffffff\n      and\n      0xffffffffffffffffffffffffffffffffffffffff\n      and\n      dup2\n      mstore\n      0x20\n      add\n      swap1\n      dup2\n      mstore\n      0x20\n      add\n      0x00\n      keccak256\n      0x00\n        /* \"ex/exchangeUsdtToken.sol\":22273:22297  isExcludeds[addr] = true */\n      0x0100\n      exp\n      dup2\n      sload\n      dup2\n      0xff\n      mul\n      not\n      and\n      swap1\n      dup4\n      iszero\n      iszero\n      mul\n      or\n      swap1\n      sstore\n      pop\n        /* \"ex/exchangeUsdtToken.sol\":22168:22309  if (isExcludeds[addr] == true) {\r... */\n    tag_257:\n        /* \"ex/exchangeUsdtToken.sol\":22104:22316  function setExcludeds(address addr) public onlyOwner {\r... */\n      pop\n      jump\t// out\n        /* \"ex/exchangeUsdtToken.sol\":16963:17135  function transfer(address recipient, uint amount) public virtual override returns (bool) {\r... */\n    tag_147:\n        /* \"ex/exchangeUsdtToken.sol\":17046:17050  bool */\n      0x00\n        /* \"ex/exchangeUsdtToken.sol\":17063:17105  _transfer(_msgSender(), recipient, amount) */\n      tag_259\n        /* \"ex/exchangeUsdtToken.sol\":17073:17085  _msgSender() */\n      tag_260\n        /* \"ex/exchangeUsdtToken.sol\":17073:17083  _msgSender */\n      tag_181\n        /* \"ex/exchangeUsdtToken.sol\":17073:17085  _msgSender() */\n      jump\t// in\n    tag_260:\n        /* \"ex/exchangeUsdtToken.sol\":17087:17096  recipient */\n      dup5\n        /* \"ex/exchangeUsdtToken.sol\":17098:17104  amount */\n      dup5\n        /* \"ex/exchangeUsdtToken.sol\":17063:17072  _transfer */\n      tag_186\n        /* \"ex/exchangeUsdtToken.sol\":17063:17105  _transfer(_msgSender(), recipient, amount) */\n      jump\t// in\n    tag_259:\n        /* \"ex/exchangeUsdtToken.sol\":17123:17127  true */\n      0x01\n        /* \"ex/exchangeUsdtToken.sol\":17116:17127  return true */\n      swap1\n      pop\n        /* \"ex/exchangeUsdtToken.sol\":16963:17135  function transfer(address recipient, uint amount) public virtual override returns (bool) {\r... */\n      swap3\n      swap2\n      pop\n      pop\n      jump\t// out\n        /* \"ex/exchangeUsdtToken.sol\":22326:22497  function setSwapAndLiquifyEnabled(bool _enabled) public onlyOwner {\r... */\n    tag_153:\n        /* \"ex/exchangeUsdtToken.sol\":3293:3305  _msgSender() */\n      tag_262\n        /* \"ex/exchangeUsdtToken.sol\":3293:3303  _msgSender */\n      tag_181\n        /* \"ex/exchangeUsdtToken.sol\":3293:3305  _msgSender() */\n      jump\t// in\n    tag_262:\n        /* \"ex/exchangeUsdtToken.sol\":3282:3305  owner() == _msgSender() */\n      0xffffffffffffffffffffffffffffffffffffffff\n      and\n        /* \"ex/exchangeUsdtToken.sol\":3282:3289  owner() */\n      tag_263\n        /* \"ex/exchangeUsdtToken.sol\":3282:3287  owner */\n      tag_117\n        /* \"ex/exchangeUsdtToken.sol\":3282:3289  owner() */\n      jump\t// in\n    tag_263:\n        /* \"ex/exchangeUsdtToken.sol\":3282:3305  owner() == _msgSender() */\n      0xffffffffffffffffffffffffffffffffffffffff\n      and\n      eq\n        /* \"ex/exchangeUsdtToken.sol\":3274:3342  require(owner() == _msgSender(), \"Ownable: caller is not the owner\") */\n      tag_264\n      jumpi\n      mload(0x40)\n      0x08c379a000000000000000000000000000000000000000000000000000000000\n      dup2\n      mstore\n      0x04\n      add\n      tag_265\n      swap1\n      tag_209\n      jump\t// in\n    tag_265:\n      mload(0x40)\n      dup1\n      swap2\n      sub\n      swap1\n      revert\n    tag_264:\n        /* \"ex/exchangeUsdtToken.sol\":22427:22435  _enabled */\n      dup1\n        /* \"ex/exchangeUsdtToken.sol\":22403:22424  swapAndLiquifyEnabled */\n      0x08\n      0x15\n        /* \"ex/exchangeUsdtToken.sol\":22403:22435  swapAndLiquifyEnabled = _enabled */\n      0x0100\n      exp\n      dup2\n      sload\n      dup2\n      0xff\n      mul\n      not\n      and\n      swap1\n      dup4\n      iszero\n      iszero\n      mul\n      or\n      swap1\n      sstore\n      pop\n        /* \"ex/exchangeUsdtToken.sol\":22451:22489  SwapAndLiquifyEnabledUpdated(_enabled) */\n      0x53726dfcaf90650aa7eb35524f4d3220f07413c8d6cb404cc8c18bf5591bc159\n        /* \"ex/exchangeUsdtToken.sol\":22480:22488  _enabled */\n      dup2\n        /* \"ex/exchangeUsdtToken.sol\":22451:22489  SwapAndLiquifyEnabledUpdated(_enabled) */\n      mload(0x40)\n      tag_267\n      swap2\n      swap1\n      tag_52\n      jump\t// in\n    tag_267:\n      mload(0x40)\n      dup1\n      swap2\n      sub\n      swap1\n      log1\n        /* \"ex/exchangeUsdtToken.sol\":22326:22497  function setSwapAndLiquifyEnabled(bool _enabled) public onlyOwner {\r... */\n      pop\n      jump\t// out\n        /* \"ex/exchangeUsdtToken.sol\":22542:22657  function emergencyWithdraw() external onlyOwner {\r... */\n    tag_156:\n        /* \"ex/exchangeUsdtToken.sol\":3293:3305  _msgSender() */\n      tag_269\n        /* \"ex/exchangeUsdtToken.sol\":3293:3303  _msgSender */\n      tag_181\n        /* \"ex/exchangeUsdtToken.sol\":3293:3305  _msgSender() */\n      jump\t// in\n    tag_269:\n        /* \"ex/exchangeUsdtToken.sol\":3282:3305  owner() == _msgSender() */\n      0xffffffffffffffffffffffffffffffffffffffff\n      and\n        /* \"ex/exchangeUsdtToken.sol\":3282:3289  owner() */\n      tag_270\n        /* \"ex/exchangeUsdtToken.sol\":3282:3287  owner */\n      tag_117\n        /* \"ex/exchangeUsdtToken.sol\":3282:3289  owner() */\n      jump\t// in\n    tag_270:\n        /* \"ex/exchangeUsdtToken.sol\":3282:3305  owner() == _msgSender() */\n      0xffffffffffffffffffffffffffffffffffffffff\n      and\n      eq\n        /* \"ex/exchangeUsdtToken.sol\":3274:3342  require(owner() == _msgSender(), \"Ownable: caller is not the owner\") */\n      tag_271\n      jumpi\n      mload(0x40)\n      0x08c379a000000000000000000000000000000000000000000000000000000000\n      dup2\n      mstore\n      0x04\n      add\n      tag_272\n      swap1\n      tag_209\n      jump\t// in\n    tag_272:\n      mload(0x40)\n      dup1\n      swap2\n      sub\n      swap1\n      revert\n    tag_271:\n        /* \"ex/exchangeUsdtToken.sol\":22609:22616  owner() */\n      tag_274\n        /* \"ex/exchangeUsdtToken.sol\":22609:22614  owner */\n      tag_117\n        /* \"ex/exchangeUsdtToken.sol\":22609:22616  owner() */\n      jump\t// in\n    tag_274:\n        /* \"ex/exchangeUsdtToken.sol\":22601:22626  payable(owner()).transfer */\n      0xffffffffffffffffffffffffffffffffffffffff\n      and\n        /* \"ex/exchangeUsdtToken.sol\":22601:22649  payable(owner()).transfer(address(this).balance) */\n      0x08fc\n        /* \"ex/exchangeUsdtToken.sol\":22627:22648  address(this).balance */\n      selfbalance\n        /* \"ex/exchangeUsdtToken.sol\":22601:22649  payable(owner()).transfer(address(this).balance) */\n      swap1\n      dup2\n      iszero\n      mul\n      swap1\n      mload(0x40)\n      0x00\n      mload(0x40)\n      dup1\n      dup4\n      sub\n      dup2\n      dup6\n      dup9\n      dup9\n      call\n      swap4\n      pop\n      pop\n      pop\n      pop\n      iszero\n      dup1\n      iszero\n      tag_276\n      jumpi\n      returndatasize\n      0x00\n      dup1\n      returndatacopy\n      revert(0x00, returndatasize)\n    tag_276:\n      pop\n        /* \"ex/exchangeUsdtToken.sol\":22542:22657  function emergencyWithdraw() external onlyOwner {\r... */\n      jump\t// out\n        /* \"ex/exchangeUsdtToken.sol\":17143:17291  function allowance(address owner, address spender) public view virtual override returns (uint) {\r... */\n    tag_161:\n        /* \"ex/exchangeUsdtToken.sol\":17232:17236  uint */\n      0x00\n        /* \"ex/exchangeUsdtToken.sol\":17256:17267  _allowances */\n      0x02\n        /* \"ex/exchangeUsdtToken.sol\":17256:17274  _allowances[owner] */\n      0x00\n        /* \"ex/exchangeUsdtToken.sol\":17268:17273  owner */\n      dup5\n        /* \"ex/exchangeUsdtToken.sol\":17256:17274  _allowances[owner] */\n      0xffffffffffffffffffffffffffffffffffffffff\n      and\n      0xffffffffffffffffffffffffffffffffffffffff\n      and\n      dup2\n      mstore\n      0x20\n      add\n      swap1\n      dup2\n      mstore\n      0x20\n      add\n      0x00\n      keccak256\n        /* \"ex/exchangeUsdtToken.sol\":17256:17283  _allowances[owner][spender] */\n      0x00\n        /* \"ex/exchangeUsdtToken.sol\":17275:17282  spender */\n      dup4\n        /* \"ex/exchangeUsdtToken.sol\":17256:17283  _allowances[owner][spender] */\n      0xffffffffffffffffffffffffffffffffffffffff\n      and\n      0xffffffffffffffffffffffffffffffffffffffff\n      and\n      dup2\n      mstore\n      0x20\n      add\n      swap1\n      dup2\n      mstore\n      0x20\n      add\n      0x00\n      keccak256\n      sload\n        /* \"ex/exchangeUsdtToken.sol\":17249:17283  return _allowances[owner][spender] */\n      swap1\n      pop\n        /* \"ex/exchangeUsdtToken.sol\":17143:17291  function allowance(address owner, address spender) public view virtual override returns (uint) {\r... */\n      swap3\n      swap2\n      pop\n      pop\n      jump\t// out\n        /* \"ex/exchangeUsdtToken.sol\":15458:15493  mapping (address=>bool) public DEXs */\n    tag_166:\n      mstore(0x20, 0x0a)\n      dup1\n      0x00\n      mstore\n      keccak256(0x00, 0x40)\n      0x00\n      swap2\n      pop\n      sload\n      swap1\n      0x0100\n      exp\n      swap1\n      div\n      0xff\n      and\n      dup2\n      jump\t// out\n        /* \"ex/exchangeUsdtToken.sol\":15500:15539  mapping (address => bool) public isPair */\n    tag_171:\n      mstore(0x20, 0x0b)\n      dup1\n      0x00\n      mstore\n      keccak256(0x00, 0x40)\n      0x00\n      swap2\n      pop\n      sload\n      swap1\n      0x0100\n      exp\n      swap1\n      div\n      0xff\n      and\n      dup2\n      jump\t// out\n        /* \"ex/exchangeUsdtToken.sol\":3971:4172  function transferOwnership(address newOwner) public virtual onlyOwner {\r... */\n    tag_176:\n        /* \"ex/exchangeUsdtToken.sol\":3293:3305  _msgSender() */\n      tag_279\n        /* \"ex/exchangeUsdtToken.sol\":3293:3303  _msgSender */\n      tag_181\n        /* \"ex/exchangeUsdtToken.sol\":3293:3305  _msgSender() */\n      jump\t// in\n    tag_279:\n        /* \"ex/exchangeUsdtToken.sol\":3282:3305  owner() == _msgSender() */\n      0xffffffffffffffffffffffffffffffffffffffff\n      and\n        /* \"ex/exchangeUsdtToken.sol\":3282:3289  owner() */\n      tag_280\n        /* \"ex/exchangeUsdtToken.sol\":3282:3287  owner */\n      tag_117\n        /* \"ex/exchangeUsdtToken.sol\":3282:3289  owner() */\n      jump\t// in\n    tag_280:\n        /* \"ex/exchangeUsdtToken.sol\":3282:3305  owner() == _msgSender() */\n      0xffffffffffffffffffffffffffffffffffffffff\n      and\n      eq\n        /* \"ex/exchangeUsdtToken.sol\":3274:3342  require(owner() == _msgSender(), \"Ownable: caller is not the owner\") */\n      tag_281\n      jumpi\n      mload(0x40)\n      0x08c379a000000000000000000000000000000000000000000000000000000000\n      dup2\n      mstore\n      0x04\n      add\n      tag_282\n      swap1\n      tag_209\n      jump\t// in\n    tag_282:\n      mload(0x40)\n      dup1\n      swap2\n      sub\n      swap1\n      revert\n    tag_281:\n        /* \"ex/exchangeUsdtToken.sol\":4080:4081  0 */\n      0x00\n        /* \"ex/exchangeUsdtToken.sol\":4060:4082  newOwner != address(0) */\n      0xffffffffffffffffffffffffffffffffffffffff\n      and\n        /* \"ex/exchangeUsdtToken.sol\":4060:4068  newOwner */\n      dup2\n        /* \"ex/exchangeUsdtToken.sol\":4060:4082  newOwner != address(0) */\n      0xffffffffffffffffffffffffffffffffffffffff\n      and\n      eq\n      iszero\n        /* \"ex/exchangeUsdtToken.sol\":4052:4125  require(newOwner != address(0), \"Ownable: new owner is the zero address\") */\n      tag_284\n      jumpi\n      mload(0x40)\n      0x08c379a000000000000000000000000000000000000000000000000000000000\n      dup2\n      mstore\n      0x04\n      add\n      tag_285\n      swap1\n      tag_286\n      jump\t// in\n    tag_285:\n      mload(0x40)\n      dup1\n      swap2\n      sub\n      swap1\n      revert\n    tag_284:\n        /* \"ex/exchangeUsdtToken.sol\":4136:4164  _transferOwnership(newOwner) */\n      tag_287\n        /* \"ex/exchangeUsdtToken.sol\":4155:4163  newOwner */\n      dup2\n        /* \"ex/exchangeUsdtToken.sol\":4136:4154  _transferOwnership */\n      tag_227\n        /* \"ex/exchangeUsdtToken.sol\":4136:4164  _transferOwnership(newOwner) */\n      jump\t// in\n    tag_287:\n        /* \"ex/exchangeUsdtToken.sol\":3971:4172  function transferOwnership(address newOwner) public virtual onlyOwner {\r... */\n      pop\n      jump\t// out\n        /* \"ex/exchangeUsdtToken.sol\":2424:2522  function _msgSender() internal view virtual returns (address) {\r... */\n    tag_181:\n        /* \"ex/exchangeUsdtToken.sol\":2477:2484  address */\n      0x00\n        /* \"ex/exchangeUsdtToken.sol\":2504:2514  msg.sender */\n      caller\n        /* \"ex/exchangeUsdtToken.sol\":2497:2514  return msg.sender */\n      swap1\n      pop\n        /* \"ex/exchangeUsdtToken.sol\":2424:2522  function _msgSender() internal view virtual returns (address) {\r... */\n      swap1\n      jump\t// out\n        /* \"ex/exchangeUsdtToken.sol\":21395:21612  function _approve(\r... */\n    tag_182:\n        /* \"ex/exchangeUsdtToken.sol\":21550:21556  amount */\n      dup1\n        /* \"ex/exchangeUsdtToken.sol\":21520:21531  _allowances */\n      0x02\n        /* \"ex/exchangeUsdtToken.sol\":21520:21538  _allowances[owner] */\n      0x00\n        /* \"ex/exchangeUsdtToken.sol\":21532:21537  owner */\n      dup6\n        /* \"ex/exchangeUsdtToken.sol\":21520:21538  _allowances[owner] */\n      0xffffffffffffffffffffffffffffffffffffffff\n      and\n      0xffffffffffffffffffffffffffffffffffffffff\n      and\n      dup2\n      mstore\n      0x20\n      add\n      swap1\n      dup2\n      mstore\n      0x20\n      add\n      0x00\n      keccak256\n        /* \"ex/exchangeUsdtToken.sol\":21520:21547  _allowances[owner][spender] */\n      0x00\n        /* \"ex/exchangeUsdtToken.sol\":21539:21546  spender */\n      dup5\n        /* \"ex/exchangeUsdtToken.sol\":21520:21547  _allowances[owner][spender] */\n      0xffffffffffffffffffffffffffffffffffffffff\n      and\n      0xffffffffffffffffffffffffffffffffffffffff\n      and\n      dup2\n      mstore\n      0x20\n      add\n      swap1\n      dup2\n      mstore\n      0x20\n      add\n      0x00\n      keccak256\n        /* \"ex/exchangeUsdtToken.sol\":21520:21556  _allowances[owner][spender] = amount */\n      dup2\n      swap1\n      sstore\n      pop\n        /* \"ex/exchangeUsdtToken.sol\":21588:21595  spender */\n      dup2\n        /* \"ex/exchangeUsdtToken.sol\":21572:21604  Approval(owner, spender, amount) */\n      0xffffffffffffffffffffffffffffffffffffffff\n      and\n        /* \"ex/exchangeUsdtToken.sol\":21581:21586  owner */\n      dup4\n        /* \"ex/exchangeUsdtToken.sol\":21572:21604  Approval(owner, spender, amount) */\n      0xffffffffffffffffffffffffffffffffffffffff\n      and\n      0x8c5be1e5ebec7d5bd14f71427d1e84f3dd0314c0f7b2291e5b200ac8c7c3b925\n        /* \"ex/exchangeUsdtToken.sol\":21597:21603  amount */\n      dup4\n        /* \"ex/exchangeUsdtToken.sol\":21572:21604  Approval(owner, spender, amount) */\n      mload(0x40)\n      tag_290\n      swap2\n      swap1\n      tag_62\n      jump\t// in\n    tag_290:\n      mload(0x40)\n      dup1\n      swap2\n      sub\n      swap1\n      log3\n        /* \"ex/exchangeUsdtToken.sol\":21395:21612  function _approve(\r... */\n      pop\n      pop\n      pop\n      jump\t// out\n        /* \"ex/exchangeUsdtToken.sol\":18898:20620  function _transfer(\r... */\n    tag_186:\n        /* \"ex/exchangeUsdtToken.sol\":19053:19054  0 */\n      0x00\n        /* \"ex/exchangeUsdtToken.sol\":19035:19055  sender != address(0) */\n      0xffffffffffffffffffffffffffffffffffffffff\n      and\n        /* \"ex/exchangeUsdtToken.sol\":19035:19041  sender */\n      dup4\n        /* \"ex/exchangeUsdtToken.sol\":19035:19055  sender != address(0) */\n      0xffffffffffffffffffffffffffffffffffffffff\n      and\n      eq\n      iszero\n        /* \"ex/exchangeUsdtToken.sol\":19027:19101  require(sender != address(0), \"SugarBaby: transfer from the zero address\") */\n      tag_292\n      jumpi\n      mload(0x40)\n      0x08c379a000000000000000000000000000000000000000000000000000000000\n      dup2\n      mstore\n      0x04\n      add\n      tag_293\n      swap1\n      tag_294\n      jump\t// in\n    tag_293:\n      mload(0x40)\n      dup1\n      swap2\n      sub\n      swap1\n      revert\n    tag_292:\n        /* \"ex/exchangeUsdtToken.sol\":19141:19142  0 */\n      0x00\n        /* \"ex/exchangeUsdtToken.sol\":19120:19143  recipient != address(0) */\n      0xffffffffffffffffffffffffffffffffffffffff\n      and\n        /* \"ex/exchangeUsdtToken.sol\":19120:19129  recipient */\n      dup3\n        /* \"ex/exchangeUsdtToken.sol\":19120:19143  recipient != address(0) */\n      0xffffffffffffffffffffffffffffffffffffffff\n      and\n      eq\n      iszero\n        /* \"ex/exchangeUsdtToken.sol\":19112:19187  require(recipient != address(0), \"SugarBaby: transfer to the zero address\") */\n      tag_295\n      jumpi\n      mload(0x40)\n      0x08c379a000000000000000000000000000000000000000000000000000000000\n      dup2\n      mstore\n      0x04\n      add\n      tag_296\n      swap1\n      tag_297\n      jump\t// in\n    tag_296:\n      mload(0x40)\n      dup1\n      swap2\n      sub\n      swap1\n      revert\n    tag_295:\n        /* \"ex/exchangeUsdtToken.sol\":19198:19216  uint senderBalance */\n      0x00\n        /* \"ex/exchangeUsdtToken.sol\":19219:19228  _balances */\n      0x01\n        /* \"ex/exchangeUsdtToken.sol\":19219:19236  _balances[sender] */\n      0x00\n        /* \"ex/exchangeUsdtToken.sol\":19229:19235  sender */\n      dup6\n        /* \"ex/exchangeUsdtToken.sol\":19219:19236  _balances[sender] */\n      0xffffffffffffffffffffffffffffffffffffffff\n      and\n      0xffffffffffffffffffffffffffffffffffffffff\n      and\n      dup2\n      mstore\n      0x20\n      add\n      swap1\n      dup2\n      mstore\n      0x20\n      add\n      0x00\n      keccak256\n      sload\n        /* \"ex/exchangeUsdtToken.sol\":19198:19236  uint senderBalance = _balances[sender] */\n      swap1\n      pop\n        /* \"ex/exchangeUsdtToken.sol\":19272:19278  amount */\n      dup2\n        /* \"ex/exchangeUsdtToken.sol\":19255:19268  senderBalance */\n      dup2\n        /* \"ex/exchangeUsdtToken.sol\":19255:19278  senderBalance >= amount */\n      lt\n      iszero\n        /* \"ex/exchangeUsdtToken.sol\":19247:19325  require(senderBalance >= amount, \"SugarBaby: transfer amount exceeds balance\") */\n      tag_298\n      jumpi\n      mload(0x40)\n      0x08c379a000000000000000000000000000000000000000000000000000000000\n      dup2\n      mstore\n      0x04\n      add\n      tag_299\n      swap1\n      tag_300\n      jump\t// in\n    tag_299:\n      mload(0x40)\n      dup1\n      swap2\n      sub\n      swap1\n      revert\n    tag_298:\n        /* \"ex/exchangeUsdtToken.sol\":19336:19348  uint _amount */\n      0x00\n        /* \"ex/exchangeUsdtToken.sol\":19351:19357  amount */\n      dup3\n        /* \"ex/exchangeUsdtToken.sol\":19336:19357  uint _amount = amount */\n      swap1\n      pop\n        /* \"ex/exchangeUsdtToken.sol\":19387:19391  DEXs */\n      0x0a\n        /* \"ex/exchangeUsdtToken.sol\":19387:19399  DEXs[sender] */\n      0x00\n        /* \"ex/exchangeUsdtToken.sol\":19392:19398  sender */\n      dup7\n        /* \"ex/exchangeUsdtToken.sol\":19387:19399  DEXs[sender] */\n      0xffffffffffffffffffffffffffffffffffffffff\n      and\n      0xffffffffffffffffffffffffffffffffffffffff\n      and\n      dup2\n      mstore\n      0x20\n      add\n      swap1\n      dup2\n      mstore\n      0x20\n      add\n      0x00\n      keccak256\n      0x00\n      swap1\n      sload\n      swap1\n      0x0100\n      exp\n      swap1\n      div\n      0xff\n      and\n        /* \"ex/exchangeUsdtToken.sol\":19387:19440  DEXs[sender] && recipient != address(uniswapV2Router) */\n      dup1\n      iszero\n      tag_301\n      jumpi\n      pop\n        /* \"ex/exchangeUsdtToken.sol\":19424:19439  uniswapV2Router */\n      immutable(\"0xd7808f34137184ea2a76cdf5703a918f1c3466e73e7696015a370efc4f64aff7\")\n        /* \"ex/exchangeUsdtToken.sol\":19403:19440  recipient != address(uniswapV2Router) */\n      0xffffffffffffffffffffffffffffffffffffffff\n      and\n        /* \"ex/exchangeUsdtToken.sol\":19403:19412  recipient */\n      dup5\n        /* \"ex/exchangeUsdtToken.sol\":19403:19440  recipient != address(uniswapV2Router) */\n      0xffffffffffffffffffffffffffffffffffffffff\n      and\n      eq\n      iszero\n        /* \"ex/exchangeUsdtToken.sol\":19387:19440  DEXs[sender] && recipient != address(uniswapV2Router) */\n    tag_301:\n        /* \"ex/exchangeUsdtToken.sol\":19385:19460  ( DEXs[sender] && recipient != address(uniswapV2Router)) || DEXs[recipient] */\n      dup1\n      tag_302\n      jumpi\n      pop\n        /* \"ex/exchangeUsdtToken.sol\":19445:19449  DEXs */\n      0x0a\n        /* \"ex/exchangeUsdtToken.sol\":19445:19460  DEXs[recipient] */\n      0x00\n        /* \"ex/exchangeUsdtToken.sol\":19450:19459  recipient */\n      dup6\n        /* \"ex/exchangeUsdtToken.sol\":19445:19460  DEXs[recipient] */\n      0xffffffffffffffffffffffffffffffffffffffff\n      and\n      0xffffffffffffffffffffffffffffffffffffffff\n      and\n      dup2\n      mstore\n      0x20\n      add\n      swap1\n      dup2\n      mstore\n      0x20\n      add\n      0x00\n      keccak256\n      0x00\n      swap1\n      sload\n      swap1\n      0x0100\n      exp\n      swap1\n      div\n      0xff\n      and\n        /* \"ex/exchangeUsdtToken.sol\":19385:19460  ( DEXs[sender] && recipient != address(uniswapV2Router)) || DEXs[recipient] */\n    tag_302:\n        /* \"ex/exchangeUsdtToken.sol\":19384:19495  (( DEXs[sender] && recipient != address(uniswapV2Router)) || DEXs[recipient]) &&\r... */\n      dup1\n      iszero\n      tag_303\n      jumpi\n      pop\n        /* \"ex/exchangeUsdtToken.sol\":19479:19495  inSwapAndLiquify */\n      0x08\n      0x14\n      swap1\n      sload\n      swap1\n      0x0100\n      exp\n      swap1\n      div\n      0xff\n      and\n        /* \"ex/exchangeUsdtToken.sol\":19478:19495  !inSwapAndLiquify */\n      iszero\n        /* \"ex/exchangeUsdtToken.sol\":19384:19495  (( DEXs[sender] && recipient != address(uniswapV2Router)) || DEXs[recipient]) &&\r... */\n    tag_303:\n        /* \"ex/exchangeUsdtToken.sol\":19384:19533  (( DEXs[sender] && recipient != address(uniswapV2Router)) || DEXs[recipient]) &&\r... */\n      dup1\n      iszero\n      tag_304\n      jumpi\n      pop\n        /* \"ex/exchangeUsdtToken.sol\":19512:19533  swapAndLiquifyEnabled */\n      0x08\n      0x15\n      swap1\n      sload\n      swap1\n      0x0100\n      exp\n      swap1\n      div\n      0xff\n      and\n        /* \"ex/exchangeUsdtToken.sol\":19384:19533  (( DEXs[sender] && recipient != address(uniswapV2Router)) || DEXs[recipient]) &&\r... */\n    tag_304:\n        /* \"ex/exchangeUsdtToken.sol\":19384:19570  (( DEXs[sender] && recipient != address(uniswapV2Router)) || DEXs[recipient]) &&\r... */\n      dup1\n      iszero\n      tag_305\n      jumpi\n      pop\n        /* \"ex/exchangeUsdtToken.sol\":19551:19562  isExcludeds */\n      0x09\n        /* \"ex/exchangeUsdtToken.sol\":19551:19570  isExcludeds[sender] */\n      0x00\n        /* \"ex/exchangeUsdtToken.sol\":19563:19569  sender */\n      dup7\n        /* \"ex/exchangeUsdtToken.sol\":19551:19570  isExcludeds[sender] */\n      0xffffffffffffffffffffffffffffffffffffffff\n      and\n      0xffffffffffffffffffffffffffffffffffffffff\n      and\n      dup2\n      mstore\n      0x20\n      add\n      swap1\n      dup2\n      mstore\n      0x20\n      add\n      0x00\n      keccak256\n      0x00\n      swap1\n      sload\n      swap1\n      0x0100\n      exp\n      swap1\n      div\n      0xff\n      and\n        /* \"ex/exchangeUsdtToken.sol\":19550:19570  !isExcludeds[sender] */\n      iszero\n        /* \"ex/exchangeUsdtToken.sol\":19384:19570  (( DEXs[sender] && recipient != address(uniswapV2Router)) || DEXs[recipient]) &&\r... */\n    tag_305:\n        /* \"ex/exchangeUsdtToken.sol\":19384:19610  (( DEXs[sender] && recipient != address(uniswapV2Router)) || DEXs[recipient]) &&\r... */\n      dup1\n      iszero\n      tag_306\n      jumpi\n      pop\n        /* \"ex/exchangeUsdtToken.sol\":19588:19599  isExcludeds */\n      0x09\n        /* \"ex/exchangeUsdtToken.sol\":19588:19610  isExcludeds[recipient] */\n      0x00\n        /* \"ex/exchangeUsdtToken.sol\":19600:19609  recipient */\n      dup6\n        /* \"ex/exchangeUsdtToken.sol\":19588:19610  isExcludeds[recipient] */\n      0xffffffffffffffffffffffffffffffffffffffff\n      and\n      0xffffffffffffffffffffffffffffffffffffffff\n      and\n      dup2\n      mstore\n      0x20\n      add\n      swap1\n      dup2\n      mstore\n      0x20\n      add\n      0x00\n      keccak256\n      0x00\n      swap1\n      sload\n      swap1\n      0x0100\n      exp\n      swap1\n      div\n      0xff\n      and\n        /* \"ex/exchangeUsdtToken.sol\":19587:19610  !isExcludeds[recipient] */\n      iszero\n        /* \"ex/exchangeUsdtToken.sol\":19384:19610  (( DEXs[sender] && recipient != address(uniswapV2Router)) || DEXs[recipient]) &&\r... */\n    tag_306:\n        /* \"ex/exchangeUsdtToken.sol\":19380:20428  if ((( DEXs[sender] && recipient != address(uniswapV2Router)) || DEXs[recipient]) &&\r... */\n      iszero\n      tag_307\n      jumpi\n        /* \"ex/exchangeUsdtToken.sol\":19672:19676  1000 */\n      0x03e8\n        /* \"ex/exchangeUsdtToken.sol\":19667:19669  15 */\n      0x0f\n        /* \"ex/exchangeUsdtToken.sol\":19658:19664  amount */\n      dup5\n        /* \"ex/exchangeUsdtToken.sol\":19658:19669  amount * 15 */\n      tag_308\n      swap2\n      swap1\n      tag_309\n      jump\t// in\n    tag_308:\n        /* \"ex/exchangeUsdtToken.sol\":19658:19676  amount * 15 / 1000 */\n      tag_310\n      swap2\n      swap1\n      tag_311\n      jump\t// in\n    tag_310:\n        /* \"ex/exchangeUsdtToken.sol\":19630:19639  _balances */\n      0x01\n        /* \"ex/exchangeUsdtToken.sol\":19630:19654  _balances[address(this)] */\n      0x00\n        /* \"ex/exchangeUsdtToken.sol\":19648:19652  this */\n      address\n        /* \"ex/exchangeUsdtToken.sol\":19630:19654  _balances[address(this)] */\n      0xffffffffffffffffffffffffffffffffffffffff\n      and\n      0xffffffffffffffffffffffffffffffffffffffff\n      and\n      dup2\n      mstore\n      0x20\n      add\n      swap1\n      dup2\n      mstore\n      0x20\n      add\n      0x00\n      keccak256\n      0x00\n        /* \"ex/exchangeUsdtToken.sol\":19630:19676  _balances[address(this)] += amount * 15 / 1000 */\n      dup3\n      dup3\n      sload\n      tag_312\n      swap2\n      swap1\n      tag_199\n      jump\t// in\n    tag_312:\n      swap3\n      pop\n      pop\n      dup2\n      swap1\n      sstore\n      pop\n        /* \"ex/exchangeUsdtToken.sol\":19721:19725  this */\n      address\n        /* \"ex/exchangeUsdtToken.sol\":19696:19747  Transfer(sender, address(this), amount * 15 / 1000) */\n      0xffffffffffffffffffffffffffffffffffffffff\n      and\n        /* \"ex/exchangeUsdtToken.sol\":19705:19711  sender */\n      dup6\n        /* \"ex/exchangeUsdtToken.sol\":19696:19747  Transfer(sender, address(this), amount * 15 / 1000) */\n      0xffffffffffffffffffffffffffffffffffffffff\n      and\n      0xddf252ad1be2c89b69c2b068fc378daa952ba7f163c4a11628f55a4df523b3ef\n        /* \"ex/exchangeUsdtToken.sol\":19742:19746  1000 */\n      0x03e8\n        /* \"ex/exchangeUsdtToken.sol\":19737:19739  15 */\n      0x0f\n        /* \"ex/exchangeUsdtToken.sol\":19728:19734  amount */\n      dup8\n        /* \"ex/exchangeUsdtToken.sol\":19728:19739  amount * 15 */\n      tag_313\n      swap2\n      swap1\n      tag_309\n      jump\t// in\n    tag_313:\n        /* \"ex/exchangeUsdtToken.sol\":19728:19746  amount * 15 / 1000 */\n      tag_314\n      swap2\n      swap1\n      tag_311\n      jump\t// in\n    tag_314:\n        /* \"ex/exchangeUsdtToken.sol\":19696:19747  Transfer(sender, address(this), amount * 15 / 1000) */\n      mload(0x40)\n      tag_315\n      swap2\n      swap1\n      tag_62\n      jump\t// in\n    tag_315:\n      mload(0x40)\n      dup1\n      swap2\n      sub\n      swap1\n      log3\n        /* \"ex/exchangeUsdtToken.sol\":19764:19792  uint256 contractTokenBalance */\n      0x00\n        /* \"ex/exchangeUsdtToken.sol\":19795:19819  balanceOf(address(this)) */\n      tag_316\n        /* \"ex/exchangeUsdtToken.sol\":19813:19817  this */\n      address\n        /* \"ex/exchangeUsdtToken.sol\":19795:19804  balanceOf */\n      tag_110\n        /* \"ex/exchangeUsdtToken.sol\":19795:19819  balanceOf(address(this)) */\n      jump\t// in\n    tag_316:\n        /* \"ex/exchangeUsdtToken.sol\":19764:19819  uint256 contractTokenBalance = balanceOf(address(this)) */\n      swap1\n      pop\n        /* \"ex/exchangeUsdtToken.sol\":19865:19877  _totalSupply */\n      sload(0x03)\n        /* \"ex/exchangeUsdtToken.sol\":19841:19861  contractTokenBalance */\n      dup2\n        /* \"ex/exchangeUsdtToken.sol\":19841:19877  contractTokenBalance >= _totalSupply */\n      lt\n        /* \"ex/exchangeUsdtToken.sol\":19838:19986  if(contractTokenBalance >= _totalSupply)\r... */\n      tag_317\n      jumpi\n        /* \"ex/exchangeUsdtToken.sol\":19950:19962  _totalSupply */\n      sload(0x03)\n        /* \"ex/exchangeUsdtToken.sol\":19927:19962  contractTokenBalance = _totalSupply */\n      swap1\n      pop\n        /* \"ex/exchangeUsdtToken.sol\":19838:19986  if(contractTokenBalance >= _totalSupply)\r... */\n    tag_317:\n        /* \"ex/exchangeUsdtToken.sol\":20030:20054  bool overMinTokenBalance */\n      0x00\n        /* \"ex/exchangeUsdtToken.sol\":20081:20085  1e18 */\n      0x0de0b6b3a7640000\n        /* \"ex/exchangeUsdtToken.sol\":20057:20077  contractTokenBalance */\n      dup3\n        /* \"ex/exchangeUsdtToken.sol\":20057:20085  contractTokenBalance >= 1e18 */\n      lt\n      iszero\n        /* \"ex/exchangeUsdtToken.sol\":20030:20085  bool overMinTokenBalance = contractTokenBalance >= 1e18 */\n      swap1\n      pop\n        /* \"ex/exchangeUsdtToken.sol\":20138:20157  overMinTokenBalance */\n      dup1\n        /* \"ex/exchangeUsdtToken.sol\":20138:20199  overMinTokenBalance &&\r... */\n      dup1\n      iszero\n      tag_318\n      jumpi\n      pop\n        /* \"ex/exchangeUsdtToken.sol\":20187:20191  DEXs */\n      0x0a\n        /* \"ex/exchangeUsdtToken.sol\":20187:20199  DEXs[sender] */\n      0x00\n        /* \"ex/exchangeUsdtToken.sol\":20192:20198  sender */\n      dup9\n        /* \"ex/exchangeUsdtToken.sol\":20187:20199  DEXs[sender] */\n      0xffffffffffffffffffffffffffffffffffffffff\n      and\n      0xffffffffffffffffffffffffffffffffffffffff\n      and\n      dup2\n      mstore\n      0x20\n      add\n      swap1\n      dup2\n      mstore\n      0x20\n      add\n      0x00\n      keccak256\n      0x00\n      swap1\n      sload\n      swap1\n      0x0100\n      exp\n      swap1\n      div\n      0xff\n      and\n        /* \"ex/exchangeUsdtToken.sol\":20186:20199  !DEXs[sender] */\n      iszero\n        /* \"ex/exchangeUsdtToken.sol\":20138:20199  overMinTokenBalance &&\r... */\n    tag_318:\n        /* \"ex/exchangeUsdtToken.sol\":20138:20249  overMinTokenBalance &&\r... */\n      dup1\n      iszero\n      tag_319\n      jumpi\n      pop\n        /* \"ex/exchangeUsdtToken.sol\":20228:20249  swapAndLiquifyEnabled */\n      0x08\n      0x15\n      swap1\n      sload\n      swap1\n      0x0100\n      exp\n      swap1\n      div\n      0xff\n      and\n        /* \"ex/exchangeUsdtToken.sol\":20138:20249  overMinTokenBalance &&\r... */\n    tag_319:\n        /* \"ex/exchangeUsdtToken.sol\":20108:20359  if (\r... */\n      iszero\n      tag_320\n      jumpi\n        /* \"ex/exchangeUsdtToken.sol\":20300:20339  swapTokensForUsdt(contractTokenBalance) */\n      tag_321\n        /* \"ex/exchangeUsdtToken.sol\":20318:20338  contractTokenBalance */\n      dup3\n        /* \"ex/exchangeUsdtToken.sol\":20300:20317  swapTokensForUsdt */\n      tag_322\n        /* \"ex/exchangeUsdtToken.sol\":20300:20339  swapTokensForUsdt(contractTokenBalance) */\n      jump\t// in\n    tag_321:\n        /* \"ex/exchangeUsdtToken.sol\":20108:20359  if (\r... */\n    tag_320:\n        /* \"ex/exchangeUsdtToken.sol\":20398:20402  1000 */\n      0x03e8\n        /* \"ex/exchangeUsdtToken.sol\":20392:20395  985 */\n      0x03d9\n        /* \"ex/exchangeUsdtToken.sol\":20383:20389  amount */\n      dup7\n        /* \"ex/exchangeUsdtToken.sol\":20383:20395  amount * 985 */\n      tag_323\n      swap2\n      swap1\n      tag_309\n      jump\t// in\n    tag_323:\n        /* \"ex/exchangeUsdtToken.sol\":20383:20402  amount * 985 / 1000 */\n      tag_324\n      swap2\n      swap1\n      tag_311\n      jump\t// in\n    tag_324:\n        /* \"ex/exchangeUsdtToken.sol\":20373:20402  _amount = amount * 985 / 1000 */\n      swap3\n      pop\n        /* \"ex/exchangeUsdtToken.sol\":19613:20428  {\r... */\n      pop\n      pop\n        /* \"ex/exchangeUsdtToken.sol\":19380:20428  if ((( DEXs[sender] && recipient != address(uniswapV2Router)) || DEXs[recipient]) &&\r... */\n    tag_307:\n        /* \"ex/exchangeUsdtToken.sol\":20501:20507  amount */\n      dup3\n        /* \"ex/exchangeUsdtToken.sol\":20485:20498  senderBalance */\n      dup3\n        /* \"ex/exchangeUsdtToken.sol\":20485:20507  senderBalance - amount */\n      sub\n        /* \"ex/exchangeUsdtToken.sol\":20465:20474  _balances */\n      0x01\n        /* \"ex/exchangeUsdtToken.sol\":20465:20482  _balances[sender] */\n      0x00\n        /* \"ex/exchangeUsdtToken.sol\":20475:20481  sender */\n      dup8\n        /* \"ex/exchangeUsdtToken.sol\":20465:20482  _balances[sender] */\n      0xffffffffffffffffffffffffffffffffffffffff\n      and\n      0xffffffffffffffffffffffffffffffffffffffff\n      and\n      dup2\n      mstore\n      0x20\n      add\n      swap1\n      dup2\n      mstore\n      0x20\n      add\n      0x00\n      keccak256\n        /* \"ex/exchangeUsdtToken.sol\":20465:20507  _balances[sender] = senderBalance - amount */\n      dup2\n      swap1\n      sstore\n      pop\n        /* \"ex/exchangeUsdtToken.sol\":20553:20560  _amount */\n      dup1\n        /* \"ex/exchangeUsdtToken.sol\":20529:20538  _balances */\n      0x01\n        /* \"ex/exchangeUsdtToken.sol\":20529:20549  _balances[recipient] */\n      0x00\n        /* \"ex/exchangeUsdtToken.sol\":20539:20548  recipient */\n      dup7\n        /* \"ex/exchangeUsdtToken.sol\":20529:20549  _balances[recipient] */\n      0xffffffffffffffffffffffffffffffffffffffff\n      and\n      0xffffffffffffffffffffffffffffffffffffffff\n      and\n      dup2\n      mstore\n      0x20\n      add\n      swap1\n      dup2\n      mstore\n      0x20\n      add\n      0x00\n      keccak256\n      0x00\n        /* \"ex/exchangeUsdtToken.sol\":20529:20560  _balances[recipient] += _amount */\n      dup3\n      dup3\n      sload\n      tag_325\n      swap2\n      swap1\n      tag_199\n      jump\t// in\n    tag_325:\n      swap3\n      pop\n      pop\n      dup2\n      swap1\n      sstore\n      pop\n        /* \"ex/exchangeUsdtToken.sol\":20593:20602  recipient */\n      dup4\n        /* \"ex/exchangeUsdtToken.sol\":20576:20612  Transfer(sender, recipient, _amount) */\n      0xffffffffffffffffffffffffffffffffffffffff\n      and\n        /* \"ex/exchangeUsdtToken.sol\":20585:20591  sender */\n      dup6\n        /* \"ex/exchangeUsdtToken.sol\":20576:20612  Transfer(sender, recipient, _amount) */\n      0xffffffffffffffffffffffffffffffffffffffff\n      and\n      0xddf252ad1be2c89b69c2b068fc378daa952ba7f163c4a11628f55a4df523b3ef\n        /* \"ex/exchangeUsdtToken.sol\":20604:20611  _amount */\n      dup4\n        /* \"ex/exchangeUsdtToken.sol\":20576:20612  Transfer(sender, recipient, _amount) */\n      mload(0x40)\n      tag_326\n      swap2\n      swap1\n      tag_62\n      jump\t// in\n    tag_326:\n      mload(0x40)\n      dup1\n      swap2\n      sub\n      swap1\n      log3\n        /* \"ex/exchangeUsdtToken.sol\":19016:20620  {\r... */\n      pop\n      pop\n        /* \"ex/exchangeUsdtToken.sol\":18898:20620  function _transfer(\r... */\n      pop\n      pop\n      pop\n      jump\t// out\n        /* \"ex/exchangeUsdtToken.sol\":20831:21297  function _burn(address account, uint amount) internal virtual {\r... */\n    tag_203:\n        /* \"ex/exchangeUsdtToken.sol\":20931:20932  0 */\n      0x00\n        /* \"ex/exchangeUsdtToken.sol\":20912:20933  account != address(0) */\n      0xffffffffffffffffffffffffffffffffffffffff\n      and\n        /* \"ex/exchangeUsdtToken.sol\":20912:20919  account */\n      dup3\n        /* \"ex/exchangeUsdtToken.sol\":20912:20933  account != address(0) */\n      0xffffffffffffffffffffffffffffffffffffffff\n      and\n      eq\n      iszero\n        /* \"ex/exchangeUsdtToken.sol\":20904:20975  require(account != address(0), \"SugarBaby: burn from the zero address\") */\n      tag_328\n      jumpi\n      mload(0x40)\n      0x08c379a000000000000000000000000000000000000000000000000000000000\n      dup2\n      mstore\n      0x04\n      add\n      tag_329\n      swap1\n      tag_330\n      jump\t// in\n    tag_329:\n      mload(0x40)\n      dup1\n      swap2\n      sub\n      swap1\n      revert\n    tag_328:\n        /* \"ex/exchangeUsdtToken.sol\":20986:21005  uint accountBalance */\n      0x00\n        /* \"ex/exchangeUsdtToken.sol\":21008:21017  _balances */\n      0x01\n        /* \"ex/exchangeUsdtToken.sol\":21008:21026  _balances[account] */\n      0x00\n        /* \"ex/exchangeUsdtToken.sol\":21018:21025  account */\n      dup5\n        /* \"ex/exchangeUsdtToken.sol\":21008:21026  _balances[account] */\n      0xffffffffffffffffffffffffffffffffffffffff\n      and\n      0xffffffffffffffffffffffffffffffffffffffff\n      and\n      dup2\n      mstore\n      0x20\n      add\n      swap1\n      dup2\n      mstore\n      0x20\n      add\n      0x00\n      keccak256\n      sload\n        /* \"ex/exchangeUsdtToken.sol\":20986:21026  uint accountBalance = _balances[account] */\n      swap1\n      pop\n        /* \"ex/exchangeUsdtToken.sol\":21063:21069  amount */\n      dup2\n        /* \"ex/exchangeUsdtToken.sol\":21045:21059  accountBalance */\n      dup2\n        /* \"ex/exchangeUsdtToken.sol\":21045:21069  accountBalance >= amount */\n      lt\n      iszero\n        /* \"ex/exchangeUsdtToken.sol\":21037:21112  require(accountBalance >= amount, \"SugarBaby: burn amount exceeds balance\") */\n      tag_331\n      jumpi\n      mload(0x40)\n      0x08c379a000000000000000000000000000000000000000000000000000000000\n      dup2\n      mstore\n      0x04\n      add\n      tag_332\n      swap1\n      tag_333\n      jump\t// in\n    tag_332:\n      mload(0x40)\n      dup1\n      swap2\n      sub\n      swap1\n      revert\n    tag_331:\n        /* \"ex/exchangeUsdtToken.sol\":21186:21192  amount */\n      dup2\n        /* \"ex/exchangeUsdtToken.sol\":21169:21183  accountBalance */\n      dup2\n        /* \"ex/exchangeUsdtToken.sol\":21169:21192  accountBalance - amount */\n      sub\n        /* \"ex/exchangeUsdtToken.sol\":21148:21157  _balances */\n      0x01\n        /* \"ex/exchangeUsdtToken.sol\":21148:21166  _balances[account] */\n      0x00\n        /* \"ex/exchangeUsdtToken.sol\":21158:21165  account */\n      dup6\n        /* \"ex/exchangeUsdtToken.sol\":21148:21166  _balances[account] */\n      0xffffffffffffffffffffffffffffffffffffffff\n      and\n      0xffffffffffffffffffffffffffffffffffffffff\n      and\n      dup2\n      mstore\n      0x20\n      add\n      swap1\n      dup2\n      mstore\n      0x20\n      add\n      0x00\n      keccak256\n        /* \"ex/exchangeUsdtToken.sol\":21148:21192  _balances[account] = accountBalance - amount */\n      dup2\n      swap1\n      sstore\n      pop\n        /* \"ex/exchangeUsdtToken.sol\":21230:21236  amount */\n      dup2\n        /* \"ex/exchangeUsdtToken.sol\":21214:21226  _totalSupply */\n      0x03\n      0x00\n        /* \"ex/exchangeUsdtToken.sol\":21214:21236  _totalSupply -= amount */\n      dup3\n      dup3\n      sload\n      tag_334\n      swap2\n      swap1\n      tag_335\n      jump\t// in\n    tag_334:\n      swap3\n      pop\n      pop\n      dup2\n      swap1\n      sstore\n      pop\n        /* \"ex/exchangeUsdtToken.sol\":21278:21279  0 */\n      0x00\n        /* \"ex/exchangeUsdtToken.sol\":21252:21289  Transfer(account, address(0), amount) */\n      0xffffffffffffffffffffffffffffffffffffffff\n      and\n        /* \"ex/exchangeUsdtToken.sol\":21261:21268  account */\n      dup4\n        /* \"ex/exchangeUsdtToken.sol\":21252:21289  Transfer(account, address(0), amount) */\n      0xffffffffffffffffffffffffffffffffffffffff\n      and\n      0xddf252ad1be2c89b69c2b068fc378daa952ba7f163c4a11628f55a4df523b3ef\n        /* \"ex/exchangeUsdtToken.sol\":21282:21288  amount */\n      dup5\n        /* \"ex/exchangeUsdtToken.sol\":21252:21289  Transfer(account, address(0), amount) */\n      mload(0x40)\n      tag_336\n      swap2\n      swap1\n      tag_62\n      jump\t// in\n    tag_336:\n      mload(0x40)\n      dup1\n      swap2\n      sub\n      swap1\n      log3\n        /* \"ex/exchangeUsdtToken.sol\":20893:21297  {\r... */\n      pop\n        /* \"ex/exchangeUsdtToken.sol\":20831:21297  function _burn(address account, uint amount) internal virtual {\r... */\n      pop\n      pop\n      jump\t// out\n        /* \"ex/exchangeUsdtToken.sol\":4332:4523  function _transferOwnership(address newOwner) internal virtual {\r... */\n    tag_227:\n        /* \"ex/exchangeUsdtToken.sol\":4406:4422  address oldOwner */\n      0x00\n        /* \"ex/exchangeUsdtToken.sol\":4425:4431  _owner */\n      dup1\n      0x00\n      swap1\n      sload\n      swap1\n      0x0100\n      exp\n      swap1\n      div\n      0xffffffffffffffffffffffffffffffffffffffff\n      and\n        /* \"ex/exchangeUsdtToken.sol\":4406:4431  address oldOwner = _owner */\n      swap1\n      pop\n        /* \"ex/exchangeUsdtToken.sol\":4451:4459  newOwner */\n      dup2\n        /* \"ex/exchangeUsdtToken.sol\":4442:4448  _owner */\n      0x00\n      dup1\n        /* \"ex/exchangeUsdtToken.sol\":4442:4459  _owner = newOwner */\n      0x0100\n      exp\n      dup2\n      sload\n      dup2\n      0xffffffffffffffffffffffffffffffffffffffff\n      mul\n      not\n      and\n      swap1\n      dup4\n      0xffffffffffffffffffffffffffffffffffffffff\n      and\n      mul\n      or\n      swap1\n      sstore\n      pop\n        /* \"ex/exchangeUsdtToken.sol\":4506:4514  newOwner */\n      dup2\n        /* \"ex/exchangeUsdtToken.sol\":4475:4515  OwnershipTransferred(oldOwner, newOwner) */\n      0xffffffffffffffffffffffffffffffffffffffff\n      and\n        /* \"ex/exchangeUsdtToken.sol\":4496:4504  oldOwner */\n      dup2\n        /* \"ex/exchangeUsdtToken.sol\":4475:4515  OwnershipTransferred(oldOwner, newOwner) */\n      0xffffffffffffffffffffffffffffffffffffffff\n      and\n      0x8be0079c531659141344cd1fd0a4f28419497f9722a3daafe3b4186f6b6457e0\n      mload(0x40)\n      mload(0x40)\n      dup1\n      swap2\n      sub\n      swap1\n      log3\n        /* \"ex/exchangeUsdtToken.sol\":4395:4523  {\r... */\n      pop\n        /* \"ex/exchangeUsdtToken.sol\":4332:4523  function _transferOwnership(address newOwner) internal virtual {\r... */\n      pop\n      jump\t// out\n        /* \"ex/exchangeUsdtToken.sol\":21620:22096  function swapTokensForUsdt(uint256 tokenAmount) private lockTheSwap{\r... */\n    tag_322:\n        /* \"ex/exchangeUsdtToken.sol\":15656:15660  true */\n      0x01\n        /* \"ex/exchangeUsdtToken.sol\":15637:15653  inSwapAndLiquify */\n      0x08\n      0x14\n        /* \"ex/exchangeUsdtToken.sol\":15637:15660  inSwapAndLiquify = true */\n      0x0100\n      exp\n      dup2\n      sload\n      dup2\n      0xff\n      mul\n      not\n      and\n      swap1\n      dup4\n      iszero\n      iszero\n      mul\n      or\n      swap1\n      sstore\n      pop\n        /* \"ex/exchangeUsdtToken.sol\":21698:21719  address[] memory path */\n      0x00\n        /* \"ex/exchangeUsdtToken.sol\":21736:21737  2 */\n      0x02\n        /* \"ex/exchangeUsdtToken.sol\":21722:21738  new address[](2) */\n      0xffffffffffffffff\n      dup2\n      gt\n      iszero\n      tag_340\n      jumpi\n      tag_341\n      tag_342\n      jump\t// in\n    tag_341:\n    tag_340:\n      mload(0x40)\n      swap1\n      dup1\n      dup3\n      mstore\n      dup1\n      0x20\n      mul\n      0x20\n      add\n      dup3\n      add\n      0x40\n      mstore\n      dup1\n      iszero\n      tag_343\n      jumpi\n      dup2\n      0x20\n      add\n      0x20\n      dup3\n      mul\n      dup1\n      calldatasize\n      dup4\n      calldatacopy\n      dup1\n      dup3\n      add\n      swap2\n      pop\n      pop\n      swap1\n      pop\n    tag_343:\n      pop\n        /* \"ex/exchangeUsdtToken.sol\":21698:21738  address[] memory path = new address[](2) */\n      swap1\n      pop\n        /* \"ex/exchangeUsdtToken.sol\":21767:21771  this */\n      address\n        /* \"ex/exchangeUsdtToken.sol\":21749:21753  path */\n      dup2\n        /* \"ex/exchangeUsdtToken.sol\":21754:21755  0 */\n      0x00\n        /* \"ex/exchangeUsdtToken.sol\":21749:21756  path[0] */\n      dup2\n      mload\n      dup2\n      lt\n      tag_344\n      jumpi\n      tag_345\n      tag_346\n      jump\t// in\n    tag_345:\n    tag_344:\n      0x20\n      mul\n      0x20\n      add\n      add\n        /* \"ex/exchangeUsdtToken.sol\":21749:21772  path[0] = address(this) */\n      swap1\n      0xffffffffffffffffffffffffffffffffffffffff\n      and\n      swap1\n      dup2\n      0xffffffffffffffffffffffffffffffffffffffff\n      and\n      dup2\n      mstore\n      pop\n      pop\n        /* \"ex/exchangeUsdtToken.sol\":21793:21804  usdtAddress */\n      0x08\n      0x00\n      swap1\n      sload\n      swap1\n      0x0100\n      exp\n      swap1\n      div\n      0xffffffffffffffffffffffffffffffffffffffff\n      and\n        /* \"ex/exchangeUsdtToken.sol\":21783:21787  path */\n      dup2\n        /* \"ex/exchangeUsdtToken.sol\":21788:21789  1 */\n      0x01\n        /* \"ex/exchangeUsdtToken.sol\":21783:21790  path[1] */\n      dup2\n      mload\n      dup2\n      lt\n      tag_347\n      jumpi\n      tag_348\n      tag_346\n      jump\t// in\n    tag_348:\n    tag_347:\n      0x20\n      mul\n      0x20\n      add\n      add\n        /* \"ex/exchangeUsdtToken.sol\":21783:21804  path[1] = usdtAddress */\n      swap1\n      0xffffffffffffffffffffffffffffffffffffffff\n      and\n      swap1\n      dup2\n      0xffffffffffffffffffffffffffffffffffffffff\n      and\n      dup2\n      mstore\n      pop\n      pop\n        /* \"ex/exchangeUsdtToken.sol\":21815:21877  _approve(address(this), address(uniswapV2Router), tokenAmount) */\n      tag_349\n        /* \"ex/exchangeUsdtToken.sol\":21832:21836  this */\n      address\n        /* \"ex/exchangeUsdtToken.sol\":21847:21862  uniswapV2Router */\n      immutable(\"0xd7808f34137184ea2a76cdf5703a918f1c3466e73e7696015a370efc4f64aff7\")\n        /* \"ex/exchangeUsdtToken.sol\":21865:21876  tokenAmount */\n      dup5\n        /* \"ex/exchangeUsdtToken.sol\":21815:21823  _approve */\n      tag_182\n        /* \"ex/exchangeUsdtToken.sol\":21815:21877  _approve(address(this), address(uniswapV2Router), tokenAmount) */\n      jump\t// in\n    tag_349:\n        /* \"ex/exchangeUsdtToken.sol\":21888:21903  uniswapV2Router */\n      immutable(\"0xd7808f34137184ea2a76cdf5703a918f1c3466e73e7696015a370efc4f64aff7\")\n        /* \"ex/exchangeUsdtToken.sol\":21888:21957  uniswapV2Router.swapExactTokensForTokensSupportingFeeOnTransferTokens */\n      0xffffffffffffffffffffffffffffffffffffffff\n      and\n      0x5c11d795\n        /* \"ex/exchangeUsdtToken.sol\":21972:21983  tokenAmount */\n      dup4\n        /* \"ex/exchangeUsdtToken.sol\":21998:21999  0 */\n      0x00\n        /* \"ex/exchangeUsdtToken.sol\":22015:22019  path */\n      dup5\n        /* \"ex/exchangeUsdtToken.sol\":22034:22047  marketAddress */\n      0x06\n      0x00\n      swap1\n      sload\n      swap1\n      0x0100\n      exp\n      swap1\n      div\n      0xffffffffffffffffffffffffffffffffffffffff\n      and\n        /* \"ex/exchangeUsdtToken.sol\":22062:22077  block.timestamp */\n      timestamp\n        /* \"ex/exchangeUsdtToken.sol\":21888:22088  uniswapV2Router.swapExactTokensForTokensSupportingFeeOnTransferTokens(\r... */\n      mload(0x40)\n      dup7\n      0xffffffff\n      and\n      0xe0\n      shl\n      dup2\n      mstore\n      0x04\n      add\n      tag_350\n      swap6\n      swap5\n      swap4\n      swap3\n      swap2\n      swap1\n      tag_351\n      jump\t// in\n    tag_350:\n      0x00\n      mload(0x40)\n      dup1\n      dup4\n      sub\n      dup2\n      0x00\n      dup8\n      dup1\n      extcodesize\n      iszero\n      dup1\n      iszero\n      tag_352\n      jumpi\n      0x00\n      dup1\n      revert\n    tag_352:\n      pop\n      gas\n      call\n      iszero\n      dup1\n      iszero\n      tag_354\n      jumpi\n      returndatasize\n      0x00\n      dup1\n      returndatacopy\n      revert(0x00, returndatasize)\n    tag_354:\n      pop\n      pop\n      pop\n      pop\n        /* \"ex/exchangeUsdtToken.sol\":21687:22096  {\r... */\n      pop\n        /* \"ex/exchangeUsdtToken.sol\":15702:15707  false */\n      0x00\n        /* \"ex/exchangeUsdtToken.sol\":15683:15699  inSwapAndLiquify */\n      0x08\n      0x14\n        /* \"ex/exchangeUsdtToken.sol\":15683:15707  inSwapAndLiquify = false */\n      0x0100\n      exp\n      dup2\n      sload\n      dup2\n      0xff\n      mul\n      not\n      and\n      swap1\n      dup4\n      iszero\n      iszero\n      mul\n      or\n      swap1\n      sstore\n      pop\n        /* \"ex/exchangeUsdtToken.sol\":21620:22096  function swapTokensForUsdt(uint256 tokenAmount) private lockTheSwap{\r... */\n      pop\n      jump\t// out\n        /* \"#utility.yul\":7:146   */\n    tag_356:\n        /* \"#utility.yul\":53:58   */\n      0x00\n        /* \"#utility.yul\":91:97   */\n      dup2\n        /* \"#utility.yul\":78:98   */\n      calldataload\n        /* \"#utility.yul\":69:98   */\n      swap1\n      pop\n        /* \"#utility.yul\":107:140   */\n      tag_358\n        /* \"#utility.yul\":134:139   */\n      dup2\n        /* \"#utility.yul\":107:140   */\n      tag_359\n      jump\t// in\n    tag_358:\n        /* \"#utility.yul\":7:146   */\n      swap3\n      swap2\n      pop\n      pop\n      jump\t// out\n        /* \"#utility.yul\":152:285   */\n    tag_360:\n        /* \"#utility.yul\":195:200   */\n      0x00\n        /* \"#utility.yul\":233:239   */\n      dup2\n        /* \"#utility.yul\":220:240   */\n      calldataload\n        /* \"#utility.yul\":211:240   */\n      swap1\n      pop\n        /* \"#utility.yul\":249:279   */\n      tag_362\n        /* \"#utility.yul\":273:278   */\n      dup2\n        /* \"#utility.yul\":249:279   */\n      tag_363\n      jump\t// in\n    tag_362:\n        /* \"#utility.yul\":152:285   */\n      swap3\n      swap2\n      pop\n      pop\n      jump\t// out\n        /* \"#utility.yul\":291:428   */\n    tag_364:\n        /* \"#utility.yul\":345:350   */\n      0x00\n        /* \"#utility.yul\":376:382   */\n      dup2\n        /* \"#utility.yul\":370:383   */\n      mload\n        /* \"#utility.yul\":361:383   */\n      swap1\n      pop\n        /* \"#utility.yul\":392:422   */\n      tag_366\n        /* \"#utility.yul\":416:421   */\n      dup2\n        /* \"#utility.yul\":392:422   */\n      tag_363\n      jump\t// in\n    tag_366:\n        /* \"#utility.yul\":291:428   */\n      swap3\n      swap2\n      pop\n      pop\n      jump\t// out\n        /* \"#utility.yul\":434:573   */\n    tag_367:\n        /* \"#utility.yul\":480:485   */\n      0x00\n        /* \"#utility.yul\":518:524   */\n      dup2\n        /* \"#utility.yul\":505:525   */\n      calldataload\n        /* \"#utility.yul\":496:525   */\n      swap1\n      pop\n        /* \"#utility.yul\":534:567   */\n      tag_369\n        /* \"#utility.yul\":561:566   */\n      dup2\n        /* \"#utility.yul\":534:567   */\n      tag_370\n      jump\t// in\n    tag_369:\n        /* \"#utility.yul\":434:573   */\n      swap3\n      swap2\n      pop\n      pop\n      jump\t// out\n        /* \"#utility.yul\":579:908   */\n    tag_96:\n        /* \"#utility.yul\":638:644   */\n      0x00\n        /* \"#utility.yul\":687:689   */\n      0x20\n        /* \"#utility.yul\":675:684   */\n      dup3\n        /* \"#utility.yul\":666:673   */\n      dup5\n        /* \"#utility.yul\":662:685   */\n      sub\n        /* \"#utility.yul\":658:690   */\n      slt\n        /* \"#utility.yul\":655:774   */\n      iszero\n      tag_372\n      jumpi\n        /* \"#utility.yul\":693:772   */\n      tag_373\n      tag_374\n      jump\t// in\n    tag_373:\n        /* \"#utility.yul\":655:774   */\n    tag_372:\n        /* \"#utility.yul\":813:814   */\n      0x00\n        /* \"#utility.yul\":838:891   */\n      tag_375\n        /* \"#utility.yul\":883:890   */\n      dup5\n        /* \"#utility.yul\":874:880   */\n      dup3\n        /* \"#utility.yul\":863:872   */\n      dup6\n        /* \"#utility.yul\":859:881   */\n      add\n        /* \"#utility.yul\":838:891   */\n      tag_356\n      jump\t// in\n    tag_375:\n        /* \"#utility.yul\":828:891   */\n      swap2\n      pop\n        /* \"#utility.yul\":784:901   */\n      pop\n        /* \"#utility.yul\":579:908   */\n      swap3\n      swap2\n      pop\n      pop\n      jump\t// out\n        /* \"#utility.yul\":914:1388   */\n    tag_160:\n        /* \"#utility.yul\":982:988   */\n      0x00\n        /* \"#utility.yul\":990:996   */\n      dup1\n        /* \"#utility.yul\":1039:1041   */\n      0x40\n        /* \"#utility.yul\":1027:1036   */\n      dup4\n        /* \"#utility.yul\":1018:1025   */\n      dup6\n        /* \"#utility.yul\":1014:1037   */\n      sub\n        /* \"#utility.yul\":1010:1042   */\n      slt\n        /* \"#utility.yul\":1007:1126   */\n      iszero\n      tag_377\n      jumpi\n        /* \"#utility.yul\":1045:1124   */\n      tag_378\n      tag_374\n      jump\t// in\n    tag_378:\n        /* \"#utility.yul\":1007:1126   */\n    tag_377:\n        /* \"#utility.yul\":1165:1166   */\n      0x00\n        /* \"#utility.yul\":1190:1243   */\n      tag_379\n        /* \"#utility.yul\":1235:1242   */\n      dup6\n        /* \"#utility.yul\":1226:1232   */\n      dup3\n        /* \"#utility.yul\":1215:1224   */\n      dup7\n        /* \"#utility.yul\":1211:1233   */\n      add\n        /* \"#utility.yul\":1190:1243   */\n      tag_356\n      jump\t// in\n    tag_379:\n        /* \"#utility.yul\":1180:1243   */\n      swap3\n      pop\n        /* \"#utility.yul\":1136:1253   */\n      pop\n        /* \"#utility.yul\":1292:1294   */\n      0x20\n        /* \"#utility.yul\":1318:1371   */\n      tag_380\n        /* \"#utility.yul\":1363:1370   */\n      dup6\n        /* \"#utility.yul\":1354:1360   */\n      dup3\n        /* \"#utility.yul\":1343:1352   */\n      dup7\n        /* \"#utility.yul\":1339:1361   */\n      add\n        /* \"#utility.yul\":1318:1371   */\n      tag_356\n      jump\t// in\n    tag_380:\n        /* \"#utility.yul\":1308:1371   */\n      swap2\n      pop\n        /* \"#utility.yul\":1263:1381   */\n      pop\n        /* \"#utility.yul\":914:1388   */\n      swap3\n      pop\n      swap3\n      swap1\n      pop\n      jump\t// out\n        /* \"#utility.yul\":1394:2013   */\n    tag_66:\n        /* \"#utility.yul\":1471:1477   */\n      0x00\n        /* \"#utility.yul\":1479:1485   */\n      dup1\n        /* \"#utility.yul\":1487:1493   */\n      0x00\n        /* \"#utility.yul\":1536:1538   */\n      0x60\n        /* \"#utility.yul\":1524:1533   */\n      dup5\n        /* \"#utility.yul\":1515:1522   */\n      dup7\n        /* \"#utility.yul\":1511:1534   */\n      sub\n        /* \"#utility.yul\":1507:1539   */\n      slt\n        /* \"#utility.yul\":1504:1623   */\n      iszero\n      tag_382\n      jumpi\n        /* \"#utility.yul\":1542:1621   */\n      tag_383\n      tag_374\n      jump\t// in\n    tag_383:\n        /* \"#utility.yul\":1504:1623   */\n    tag_382:\n        /* \"#utility.yul\":1662:1663   */\n      0x00\n        /* \"#utility.yul\":1687:1740   */\n      tag_384\n        /* \"#utility.yul\":1732:1739   */\n      dup7\n        /* \"#utility.yul\":1723:1729   */\n      dup3\n        /* \"#utility.yul\":1712:1721   */\n      dup8\n        /* \"#utility.yul\":1708:1730   */\n      add\n        /* \"#utility.yul\":1687:1740   */\n      tag_356\n      jump\t// in\n    tag_384:\n        /* \"#utility.yul\":1677:1740   */\n      swap4\n      pop\n        /* \"#utility.yul\":1633:1750   */\n      pop\n        /* \"#utility.yul\":1789:1791   */\n      0x20\n        /* \"#utility.yul\":1815:1868   */\n      tag_385\n        /* \"#utility.yul\":1860:1867   */\n      dup7\n        /* \"#utility.yul\":1851:1857   */\n      dup3\n        /* \"#utility.yul\":1840:1849   */\n      dup8\n        /* \"#utility.yul\":1836:1858   */\n      add\n        /* \"#utility.yul\":1815:1868   */\n      tag_356\n      jump\t// in\n    tag_385:\n        /* \"#utility.yul\":1805:1868   */\n      swap3\n      pop\n        /* \"#utility.yul\":1760:1878   */\n      pop\n        /* \"#utility.yul\":1917:1919   */\n      0x40\n        /* \"#utility.yul\":1943:1996   */\n      tag_386\n        /* \"#utility.yul\":1988:1995   */\n      dup7\n        /* \"#utility.yul\":1979:1985   */\n      dup3\n        /* \"#utility.yul\":1968:1977   */\n      dup8\n        /* \"#utility.yul\":1964:1986   */\n      add\n        /* \"#utility.yul\":1943:1996   */\n      tag_367\n      jump\t// in\n    tag_386:\n        /* \"#utility.yul\":1933:1996   */\n      swap2\n      pop\n        /* \"#utility.yul\":1888:2006   */\n      pop\n        /* \"#utility.yul\":1394:2013   */\n      swap3\n      pop\n      swap3\n      pop\n      swap3\n      jump\t// out\n        /* \"#utility.yul\":2019:2493   */\n    tag_49:\n        /* \"#utility.yul\":2087:2093   */\n      0x00\n        /* \"#utility.yul\":2095:2101   */\n      dup1\n        /* \"#utility.yul\":2144:2146   */\n      0x40\n        /* \"#utility.yul\":2132:2141   */\n      dup4\n        /* \"#utility.yul\":2123:2130   */\n      dup6\n        /* \"#utility.yul\":2119:2142   */\n      sub\n        /* \"#utility.yul\":2115:2147   */\n      slt\n        /* \"#utility.yul\":2112:2231   */\n      iszero\n      tag_388\n      jumpi\n        /* \"#utility.yul\":2150:2229   */\n      tag_389\n      tag_374\n      jump\t// in\n    tag_389:\n        /* \"#utility.yul\":2112:2231   */\n    tag_388:\n        /* \"#utility.yul\":2270:2271   */\n      0x00\n        /* \"#utility.yul\":2295:2348   */\n      tag_390\n        /* \"#utility.yul\":2340:2347   */\n      dup6\n        /* \"#utility.yul\":2331:2337   */\n      dup3\n        /* \"#utility.yul\":2320:2329   */\n      dup7\n        /* \"#utility.yul\":2316:2338   */\n      add\n        /* \"#utility.yul\":2295:2348   */\n      tag_356\n      jump\t// in\n    tag_390:\n        /* \"#utility.yul\":2285:2348   */\n      swap3\n      pop\n        /* \"#utility.yul\":2241:2358   */\n      pop\n        /* \"#utility.yul\":2397:2399   */\n      0x20\n        /* \"#utility.yul\":2423:2476   */\n      tag_391\n        /* \"#utility.yul\":2468:2475   */\n      dup6\n        /* \"#utility.yul\":2459:2465   */\n      dup3\n        /* \"#utility.yul\":2448:2457   */\n      dup7\n        /* \"#utility.yul\":2444:2466   */\n      add\n        /* \"#utility.yul\":2423:2476   */\n      tag_367\n      jump\t// in\n    tag_391:\n        /* \"#utility.yul\":2413:2476   */\n      swap2\n      pop\n        /* \"#utility.yul\":2368:2486   */\n      pop\n        /* \"#utility.yul\":2019:2493   */\n      swap3\n      pop\n      swap3\n      swap1\n      pop\n      jump\t// out\n        /* \"#utility.yul\":2499:2822   */\n    tag_152:\n        /* \"#utility.yul\":2555:2561   */\n      0x00\n        /* \"#utility.yul\":2604:2606   */\n      0x20\n        /* \"#utility.yul\":2592:2601   */\n      dup3\n        /* \"#utility.yul\":2583:2590   */\n      dup5\n        /* \"#utility.yul\":2579:2602   */\n      sub\n        /* \"#utility.yul\":2575:2607   */\n      slt\n        /* \"#utility.yul\":2572:2691   */\n      iszero\n      tag_393\n      jumpi\n        /* \"#utility.yul\":2610:2689   */\n      tag_394\n      tag_374\n      jump\t// in\n    tag_394:\n        /* \"#utility.yul\":2572:2691   */\n    tag_393:\n        /* \"#utility.yul\":2730:2731   */\n      0x00\n        /* \"#utility.yul\":2755:2805   */\n      tag_395\n        /* \"#utility.yul\":2797:2804   */\n      dup5\n        /* \"#utility.yul\":2788:2794   */\n      dup3\n        /* \"#utility.yul\":2777:2786   */\n      dup6\n        /* \"#utility.yul\":2773:2795   */\n      add\n        /* \"#utility.yul\":2755:2805   */\n      tag_360\n      jump\t// in\n    tag_395:\n        /* \"#utility.yul\":2745:2805   */\n      swap2\n      pop\n        /* \"#utility.yul\":2701:2815   */\n      pop\n        /* \"#utility.yul\":2499:2822   */\n      swap3\n      swap2\n      pop\n      pop\n      jump\t// out\n        /* \"#utility.yul\":2828:3173   */\n    tag_249:\n        /* \"#utility.yul\":2895:2901   */\n      0x00\n        /* \"#utility.yul\":2944:2946   */\n      0x20\n        /* \"#utility.yul\":2932:2941   */\n      dup3\n        /* \"#utility.yul\":2923:2930   */\n      dup5\n        /* \"#utility.yul\":2919:2942   */\n      sub\n        /* \"#utility.yul\":2915:2947   */\n      slt\n        /* \"#utility.yul\":2912:3031   */\n      iszero\n      tag_397\n      jumpi\n        /* \"#utility.yul\":2950:3029   */\n      tag_398\n      tag_374\n      jump\t// in\n    tag_398:\n        /* \"#utility.yul\":2912:3031   */\n    tag_397:\n        /* \"#utility.yul\":3070:3071   */\n      0x00\n        /* \"#utility.yul\":3095:3156   */\n      tag_399\n        /* \"#utility.yul\":3148:3155   */\n      dup5\n        /* \"#utility.yul\":3139:3145   */\n      dup3\n        /* \"#utility.yul\":3128:3137   */\n      dup6\n        /* \"#utility.yul\":3124:3146   */\n      add\n        /* \"#utility.yul\":3095:3156   */\n      tag_364\n      jump\t// in\n    tag_399:\n        /* \"#utility.yul\":3085:3156   */\n      swap2\n      pop\n        /* \"#utility.yul\":3041:3166   */\n      pop\n        /* \"#utility.yul\":2828:3173   */\n      swap3\n      swap2\n      pop\n      pop\n      jump\t// out\n        /* \"#utility.yul\":3179:3508   */\n    tag_82:\n        /* \"#utility.yul\":3238:3244   */\n      0x00\n        /* \"#utility.yul\":3287:3289   */\n      0x20\n        /* \"#utility.yul\":3275:3284   */\n      dup3\n        /* \"#utility.yul\":3266:3273   */\n      dup5\n        /* \"#utility.yul\":3262:3285   */\n      sub\n        /* \"#utility.yul\":3258:3290   */\n      slt\n        /* \"#utility.yul\":3255:3374   */\n      iszero\n      tag_401\n      jumpi\n        /* \"#utility.yul\":3293:3372   */\n      tag_402\n      tag_374\n      jump\t// in\n    tag_402:\n        /* \"#utility.yul\":3255:3374   */\n    tag_401:\n        /* \"#utility.yul\":3413:3414   */\n      0x00\n        /* \"#utility.yul\":3438:3491   */\n      tag_403\n        /* \"#utility.yul\":3483:3490   */\n      dup5\n        /* \"#utility.yul\":3474:3480   */\n      dup3\n        /* \"#utility.yul\":3463:3472   */\n      dup6\n        /* \"#utility.yul\":3459:3481   */\n      add\n        /* \"#utility.yul\":3438:3491   */\n      tag_367\n      jump\t// in\n    tag_403:\n        /* \"#utility.yul\":3428:3491   */\n      swap2\n      pop\n        /* \"#utility.yul\":3384:3501   */\n      pop\n        /* \"#utility.yul\":3179:3508   */\n      swap3\n      swap2\n      pop\n      pop\n      jump\t// out\n        /* \"#utility.yul\":3514:3693   */\n    tag_404:\n        /* \"#utility.yul\":3583:3593   */\n      0x00\n        /* \"#utility.yul\":3604:3650   */\n      tag_406\n        /* \"#utility.yul\":3646:3649   */\n      dup4\n        /* \"#utility.yul\":3638:3644   */\n      dup4\n        /* \"#utility.yul\":3604:3650   */\n      tag_407\n      jump\t// in\n    tag_406:\n        /* \"#utility.yul\":3682:3686   */\n      0x20\n        /* \"#utility.yul\":3677:3680   */\n      dup4\n        /* \"#utility.yul\":3673:3687   */\n      add\n        /* \"#utility.yul\":3659:3687   */\n      swap1\n      pop\n        /* \"#utility.yul\":3514:3693   */\n      swap3\n      swap2\n      pop\n      pop\n      jump\t// out\n        /* \"#utility.yul\":3699:3807   */\n    tag_407:\n        /* \"#utility.yul\":3776:3800   */\n      tag_409\n        /* \"#utility.yul\":3794:3799   */\n      dup2\n        /* \"#utility.yul\":3776:3800   */\n      tag_410\n      jump\t// in\n    tag_409:\n        /* \"#utility.yul\":3771:3774   */\n      dup3\n        /* \"#utility.yul\":3764:3801   */\n      mstore\n        /* \"#utility.yul\":3699:3807   */\n      pop\n      pop\n      jump\t// out\n        /* \"#utility.yul\":3813:3931   */\n    tag_411:\n        /* \"#utility.yul\":3900:3924   */\n      tag_413\n        /* \"#utility.yul\":3918:3923   */\n      dup2\n        /* \"#utility.yul\":3900:3924   */\n      tag_410\n      jump\t// in\n    tag_413:\n        /* \"#utility.yul\":3895:3898   */\n      dup3\n        /* \"#utility.yul\":3888:3925   */\n      mstore\n        /* \"#utility.yul\":3813:3931   */\n      pop\n      pop\n      jump\t// out\n        /* \"#utility.yul\":3967:4699   */\n    tag_414:\n        /* \"#utility.yul\":4086:4089   */\n      0x00\n        /* \"#utility.yul\":4115:4169   */\n      tag_416\n        /* \"#utility.yul\":4163:4168   */\n      dup3\n        /* \"#utility.yul\":4115:4169   */\n      tag_417\n      jump\t// in\n    tag_416:\n        /* \"#utility.yul\":4185:4271   */\n      tag_418\n        /* \"#utility.yul\":4264:4270   */\n      dup2\n        /* \"#utility.yul\":4259:4262   */\n      dup6\n        /* \"#utility.yul\":4185:4271   */\n      tag_419\n      jump\t// in\n    tag_418:\n        /* \"#utility.yul\":4178:4271   */\n      swap4\n      pop\n        /* \"#utility.yul\":4295:4351   */\n      tag_420\n        /* \"#utility.yul\":4345:4350   */\n      dup4\n        /* \"#utility.yul\":4295:4351   */\n      tag_421\n      jump\t// in\n    tag_420:\n        /* \"#utility.yul\":4374:4381   */\n      dup1\n        /* \"#utility.yul\":4405:4406   */\n      0x00\n        /* \"#utility.yul\":4390:4674   */\n    tag_422:\n        /* \"#utility.yul\":4415:4421   */\n      dup4\n        /* \"#utility.yul\":4412:4413   */\n      dup2\n        /* \"#utility.yul\":4409:4422   */\n      lt\n        /* \"#utility.yul\":4390:4674   */\n      iszero\n      tag_424\n      jumpi\n        /* \"#utility.yul\":4491:4497   */\n      dup2\n        /* \"#utility.yul\":4485:4498   */\n      mload\n        /* \"#utility.yul\":4518:4581   */\n      tag_425\n        /* \"#utility.yul\":4577:4580   */\n      dup9\n        /* \"#utility.yul\":4562:4575   */\n      dup3\n        /* \"#utility.yul\":4518:4581   */\n      tag_404\n      jump\t// in\n    tag_425:\n        /* \"#utility.yul\":4511:4581   */\n      swap8\n      pop\n        /* \"#utility.yul\":4604:4664   */\n      tag_426\n        /* \"#utility.yul\":4657:4663   */\n      dup4\n        /* \"#utility.yul\":4604:4664   */\n      tag_427\n      jump\t// in\n    tag_426:\n        /* \"#utility.yul\":4594:4664   */\n      swap3\n      pop\n        /* \"#utility.yul\":4450:4674   */\n      pop\n        /* \"#utility.yul\":4437:4438   */\n      0x01\n        /* \"#utility.yul\":4434:4435   */\n      dup2\n        /* \"#utility.yul\":4430:4439   */\n      add\n        /* \"#utility.yul\":4425:4439   */\n      swap1\n      pop\n        /* \"#utility.yul\":4390:4674   */\n      jump(tag_422)\n    tag_424:\n        /* \"#utility.yul\":4394:4408   */\n      pop\n        /* \"#utility.yul\":4690:4693   */\n      dup6\n        /* \"#utility.yul\":4683:4693   */\n      swap4\n      pop\n        /* \"#utility.yul\":4091:4699   */\n      pop\n      pop\n      pop\n        /* \"#utility.yul\":3967:4699   */\n      swap3\n      swap2\n      pop\n      pop\n      jump\t// out\n        /* \"#utility.yul\":4705:4814   */\n    tag_428:\n        /* \"#utility.yul\":4786:4807   */\n      tag_430\n        /* \"#utility.yul\":4801:4806   */\n      dup2\n        /* \"#utility.yul\":4786:4807   */\n      tag_431\n      jump\t// in\n    tag_430:\n        /* \"#utility.yul\":4781:4784   */\n      dup3\n        /* \"#utility.yul\":4774:4808   */\n      mstore\n        /* \"#utility.yul\":4705:4814   */\n      pop\n      pop\n      jump\t// out\n        /* \"#utility.yul\":4820:5013   */\n    tag_432:\n        /* \"#utility.yul\":4938:5006   */\n      tag_434\n        /* \"#utility.yul\":5000:5005   */\n      dup2\n        /* \"#utility.yul\":4938:5006   */\n      tag_435\n      jump\t// in\n    tag_434:\n        /* \"#utility.yul\":4933:4936   */\n      dup3\n        /* \"#utility.yul\":4926:5007   */\n      mstore\n        /* \"#utility.yul\":4820:5013   */\n      pop\n      pop\n      jump\t// out\n        /* \"#utility.yul\":5019:5166   */\n    tag_436:\n        /* \"#utility.yul\":5114:5159   */\n      tag_438\n        /* \"#utility.yul\":5153:5158   */\n      dup2\n        /* \"#utility.yul\":5114:5159   */\n      tag_439\n      jump\t// in\n    tag_438:\n        /* \"#utility.yul\":5109:5112   */\n      dup3\n        /* \"#utility.yul\":5102:5160   */\n      mstore\n        /* \"#utility.yul\":5019:5166   */\n      pop\n      pop\n      jump\t// out\n        /* \"#utility.yul\":5172:5536   */\n    tag_440:\n        /* \"#utility.yul\":5260:5263   */\n      0x00\n        /* \"#utility.yul\":5288:5327   */\n      tag_442\n        /* \"#utility.yul\":5321:5326   */\n      dup3\n        /* \"#utility.yul\":5288:5327   */\n      tag_443\n      jump\t// in\n    tag_442:\n        /* \"#utility.yul\":5343:5414   */\n      tag_444\n        /* \"#utility.yul\":5407:5413   */\n      dup2\n        /* \"#utility.yul\":5402:5405   */\n      dup6\n        /* \"#utility.yul\":5343:5414   */\n      tag_445\n      jump\t// in\n    tag_444:\n        /* \"#utility.yul\":5336:5414   */\n      swap4\n      pop\n        /* \"#utility.yul\":5423:5475   */\n      tag_446\n        /* \"#utility.yul\":5468:5474   */\n      dup2\n        /* \"#utility.yul\":5463:5466   */\n      dup6\n        /* \"#utility.yul\":5456:5460   */\n      0x20\n        /* \"#utility.yul\":5449:5454   */\n      dup7\n        /* \"#utility.yul\":5445:5461   */\n      add\n        /* \"#utility.yul\":5423:5475   */\n      tag_447\n      jump\t// in\n    tag_446:\n        /* \"#utility.yul\":5500:5529   */\n      tag_448\n        /* \"#utility.yul\":5522:5528   */\n      dup2\n        /* \"#utility.yul\":5500:5529   */\n      tag_449\n      jump\t// in\n    tag_448:\n        /* \"#utility.yul\":5495:5498   */\n      dup5\n        /* \"#utility.yul\":5491:5530   */\n      add\n        /* \"#utility.yul\":5484:5530   */\n      swap2\n      pop\n        /* \"#utility.yul\":5264:5536   */\n      pop\n        /* \"#utility.yul\":5172:5536   */\n      swap3\n      swap2\n      pop\n      pop\n      jump\t// out\n        /* \"#utility.yul\":5542:5908   */\n    tag_450:\n        /* \"#utility.yul\":5684:5687   */\n      0x00\n        /* \"#utility.yul\":5705:5772   */\n      tag_452\n        /* \"#utility.yul\":5769:5771   */\n      0x27\n        /* \"#utility.yul\":5764:5767   */\n      dup4\n        /* \"#utility.yul\":5705:5772   */\n      tag_445\n      jump\t// in\n    tag_452:\n        /* \"#utility.yul\":5698:5772   */\n      swap2\n      pop\n        /* \"#utility.yul\":5781:5874   */\n      tag_453\n        /* \"#utility.yul\":5870:5873   */\n      dup3\n        /* \"#utility.yul\":5781:5874   */\n      tag_454\n      jump\t// in\n    tag_453:\n        /* \"#utility.yul\":5899:5901   */\n      0x40\n        /* \"#utility.yul\":5894:5897   */\n      dup3\n        /* \"#utility.yul\":5890:5902   */\n      add\n        /* \"#utility.yul\":5883:5902   */\n      swap1\n      pop\n        /* \"#utility.yul\":5542:5908   */\n      swap2\n      swap1\n      pop\n      jump\t// out\n        /* \"#utility.yul\":5914:6280   */\n    tag_455:\n        /* \"#utility.yul\":6056:6059   */\n      0x00\n        /* \"#utility.yul\":6077:6144   */\n      tag_457\n        /* \"#utility.yul\":6141:6143   */\n      0x25\n        /* \"#utility.yul\":6136:6139   */\n      dup4\n        /* \"#utility.yul\":6077:6144   */\n      tag_445\n      jump\t// in\n    tag_457:\n        /* \"#utility.yul\":6070:6144   */\n      swap2\n      pop\n        /* \"#utility.yul\":6153:6246   */\n      tag_458\n        /* \"#utility.yul\":6242:6245   */\n      dup3\n        /* \"#utility.yul\":6153:6246   */\n      tag_459\n      jump\t// in\n    tag_458:\n        /* \"#utility.yul\":6271:6273   */\n      0x40\n        /* \"#utility.yul\":6266:6269   */\n      dup3\n        /* \"#utility.yul\":6262:6274   */\n      add\n        /* \"#utility.yul\":6255:6274   */\n      swap1\n      pop\n        /* \"#utility.yul\":5914:6280   */\n      swap2\n      swap1\n      pop\n      jump\t// out\n        /* \"#utility.yul\":6286:6652   */\n    tag_460:\n        /* \"#utility.yul\":6428:6431   */\n      0x00\n        /* \"#utility.yul\":6449:6516   */\n      tag_462\n        /* \"#utility.yul\":6513:6515   */\n      0x26\n        /* \"#utility.yul\":6508:6511   */\n      dup4\n        /* \"#utility.yul\":6449:6516   */\n      tag_445\n      jump\t// in\n    tag_462:\n        /* \"#utility.yul\":6442:6516   */\n      swap2\n      pop\n        /* \"#utility.yul\":6525:6618   */\n      tag_463\n        /* \"#utility.yul\":6614:6617   */\n      dup3\n        /* \"#utility.yul\":6525:6618   */\n      tag_464\n      jump\t// in\n    tag_463:\n        /* \"#utility.yul\":6643:6645   */\n      0x40\n        /* \"#utility.yul\":6638:6641   */\n      dup3\n        /* \"#utility.yul\":6634:6646   */\n      add\n        /* \"#utility.yul\":6627:6646   */\n      swap1\n      pop\n        /* \"#utility.yul\":6286:6652   */\n      swap2\n      swap1\n      pop\n      jump\t// out\n        /* \"#utility.yul\":6658:7024   */\n    tag_465:\n        /* \"#utility.yul\":6800:6803   */\n      0x00\n        /* \"#utility.yul\":6821:6888   */\n      tag_467\n        /* \"#utility.yul\":6885:6887   */\n      0x2a\n        /* \"#utility.yul\":6880:6883   */\n      dup4\n        /* \"#utility.yul\":6821:6888   */\n      tag_445\n      jump\t// in\n    tag_467:\n        /* \"#utility.yul\":6814:6888   */\n      swap2\n      pop\n        /* \"#utility.yul\":6897:6990   */\n      tag_468\n        /* \"#utility.yul\":6986:6989   */\n      dup3\n        /* \"#utility.yul\":6897:6990   */\n      tag_469\n      jump\t// in\n    tag_468:\n        /* \"#utility.yul\":7015:7017   */\n      0x40\n        /* \"#utility.yul\":7010:7013   */\n      dup3\n        /* \"#utility.yul\":7006:7018   */\n      add\n        /* \"#utility.yul\":6999:7018   */\n      swap1\n      pop\n        /* \"#utility.yul\":6658:7024   */\n      swap2\n      swap1\n      pop\n      jump\t// out\n        /* \"#utility.yul\":7030:7396   */\n    tag_470:\n        /* \"#utility.yul\":7172:7175   */\n      0x00\n        /* \"#utility.yul\":7193:7260   */\n      tag_472\n        /* \"#utility.yul\":7257:7259   */\n      0x20\n        /* \"#utility.yul\":7252:7255   */\n      dup4\n        /* \"#utility.yul\":7193:7260   */\n      tag_445\n      jump\t// in\n    tag_472:\n        /* \"#utility.yul\":7186:7260   */\n      swap2\n      pop\n        /* \"#utility.yul\":7269:7362   */\n      tag_473\n        /* \"#utility.yul\":7358:7361   */\n      dup3\n        /* \"#utility.yul\":7269:7362   */\n      tag_474\n      jump\t// in\n    tag_473:\n        /* \"#utility.yul\":7387:7389   */\n      0x20\n        /* \"#utility.yul\":7382:7385   */\n      dup3\n        /* \"#utility.yul\":7378:7390   */\n      add\n        /* \"#utility.yul\":7371:7390   */\n      swap1\n      pop\n        /* \"#utility.yul\":7030:7396   */\n      swap2\n      swap1\n      pop\n      jump\t// out\n        /* \"#utility.yul\":7402:7768   */\n    tag_475:\n        /* \"#utility.yul\":7544:7547   */\n      0x00\n        /* \"#utility.yul\":7565:7632   */\n      tag_477\n        /* \"#utility.yul\":7629:7631   */\n      0x26\n        /* \"#utility.yul\":7624:7627   */\n      dup4\n        /* \"#utility.yul\":7565:7632   */\n      tag_445\n      jump\t// in\n    tag_477:\n        /* \"#utility.yul\":7558:7632   */\n      swap2\n      pop\n        /* \"#utility.yul\":7641:7734   */\n      tag_478\n        /* \"#utility.yul\":7730:7733   */\n      dup3\n        /* \"#utility.yul\":7641:7734   */\n      tag_479\n      jump\t// in\n    tag_478:\n        /* \"#utility.yul\":7759:7761   */\n      0x40\n        /* \"#utility.yul\":7754:7757   */\n      dup3\n        /* \"#utility.yul\":7750:7762   */\n      add\n        /* \"#utility.yul\":7743:7762   */\n      swap1\n      pop\n        /* \"#utility.yul\":7402:7768   */\n      swap2\n      swap1\n      pop\n      jump\t// out\n        /* \"#utility.yul\":7774:8140   */\n    tag_480:\n        /* \"#utility.yul\":7916:7919   */\n      0x00\n        /* \"#utility.yul\":7937:8004   */\n      tag_482\n        /* \"#utility.yul\":8001:8003   */\n      0x29\n        /* \"#utility.yul\":7996:7999   */\n      dup4\n        /* \"#utility.yul\":7937:8004   */\n      tag_445\n      jump\t// in\n    tag_482:\n        /* \"#utility.yul\":7930:8004   */\n      swap2\n      pop\n        /* \"#utility.yul\":8013:8106   */\n      tag_483\n        /* \"#utility.yul\":8102:8105   */\n      dup3\n        /* \"#utility.yul\":8013:8106   */\n      tag_484\n      jump\t// in\n    tag_483:\n        /* \"#utility.yul\":8131:8133   */\n      0x40\n        /* \"#utility.yul\":8126:8129   */\n      dup3\n        /* \"#utility.yul\":8122:8134   */\n      add\n        /* \"#utility.yul\":8115:8134   */\n      swap1\n      pop\n        /* \"#utility.yul\":7774:8140   */\n      swap2\n      swap1\n      pop\n      jump\t// out\n        /* \"#utility.yul\":8146:8512   */\n    tag_485:\n        /* \"#utility.yul\":8288:8291   */\n      0x00\n        /* \"#utility.yul\":8309:8376   */\n      tag_487\n        /* \"#utility.yul\":8373:8375   */\n      0x29\n        /* \"#utility.yul\":8368:8371   */\n      dup4\n        /* \"#utility.yul\":8309:8376   */\n      tag_445\n      jump\t// in\n    tag_487:\n        /* \"#utility.yul\":8302:8376   */\n      swap2\n      pop\n        /* \"#utility.yul\":8385:8478   */\n      tag_488\n        /* \"#utility.yul\":8474:8477   */\n      dup3\n        /* \"#utility.yul\":8385:8478   */\n      tag_489\n      jump\t// in\n    tag_488:\n        /* \"#utility.yul\":8503:8505   */\n      0x40\n        /* \"#utility.yul\":8498:8501   */\n      dup3\n        /* \"#utility.yul\":8494:8506   */\n      add\n        /* \"#utility.yul\":8487:8506   */\n      swap1\n      pop\n        /* \"#utility.yul\":8146:8512   */\n      swap2\n      swap1\n      pop\n      jump\t// out\n        /* \"#utility.yul\":8518:8884   */\n    tag_490:\n        /* \"#utility.yul\":8660:8663   */\n      0x00\n        /* \"#utility.yul\":8681:8748   */\n      tag_492\n        /* \"#utility.yul\":8745:8747   */\n      0x2c\n        /* \"#utility.yul\":8740:8743   */\n      dup4\n        /* \"#utility.yul\":8681:8748   */\n      tag_445\n      jump\t// in\n    tag_492:\n        /* \"#utility.yul\":8674:8748   */\n      swap2\n      pop\n        /* \"#utility.yul\":8757:8850   */\n      tag_493\n        /* \"#utility.yul\":8846:8849   */\n      dup3\n        /* \"#utility.yul\":8757:8850   */\n      tag_494\n      jump\t// in\n    tag_493:\n        /* \"#utility.yul\":8875:8877   */\n      0x40\n        /* \"#utility.yul\":8870:8873   */\n      dup3\n        /* \"#utility.yul\":8866:8878   */\n      add\n        /* \"#utility.yul\":8859:8878   */\n      swap1\n      pop\n        /* \"#utility.yul\":8518:8884   */\n      swap2\n      swap1\n      pop\n      jump\t// out\n        /* \"#utility.yul\":8890:9008   */\n    tag_495:\n        /* \"#utility.yul\":8977:9001   */\n      tag_497\n        /* \"#utility.yul\":8995:9000   */\n      dup2\n        /* \"#utility.yul\":8977:9001   */\n      tag_498\n      jump\t// in\n    tag_497:\n        /* \"#utility.yul\":8972:8975   */\n      dup3\n        /* \"#utility.yul\":8965:9002   */\n      mstore\n        /* \"#utility.yul\":8890:9008   */\n      pop\n      pop\n      jump\t// out\n        /* \"#utility.yul\":9014:9126   */\n    tag_499:\n        /* \"#utility.yul\":9097:9119   */\n      tag_501\n        /* \"#utility.yul\":9113:9118   */\n      dup2\n        /* \"#utility.yul\":9097:9119   */\n      tag_502\n      jump\t// in\n    tag_501:\n        /* \"#utility.yul\":9092:9095   */\n      dup3\n        /* \"#utility.yul\":9085:9120   */\n      mstore\n        /* \"#utility.yul\":9014:9126   */\n      pop\n      pop\n      jump\t// out\n        /* \"#utility.yul\":9132:9354   */\n    tag_88:\n        /* \"#utility.yul\":9225:9229   */\n      0x00\n        /* \"#utility.yul\":9263:9265   */\n      0x20\n        /* \"#utility.yul\":9252:9261   */\n      dup3\n        /* \"#utility.yul\":9248:9266   */\n      add\n        /* \"#utility.yul\":9240:9266   */\n      swap1\n      pop\n        /* \"#utility.yul\":9276:9347   */\n      tag_504\n        /* \"#utility.yul\":9344:9345   */\n      0x00\n        /* \"#utility.yul\":9333:9342   */\n      dup4\n        /* \"#utility.yul\":9329:9346   */\n      add\n        /* \"#utility.yul\":9320:9326   */\n      dup5\n        /* \"#utility.yul\":9276:9347   */\n      tag_411\n      jump\t// in\n    tag_504:\n        /* \"#utility.yul\":9132:9354   */\n      swap3\n      swap2\n      pop\n      pop\n      jump\t// out\n        /* \"#utility.yul\":9360:9692   */\n    tag_244:\n        /* \"#utility.yul\":9481:9485   */\n      0x00\n        /* \"#utility.yul\":9519:9521   */\n      0x40\n        /* \"#utility.yul\":9508:9517   */\n      dup3\n        /* \"#utility.yul\":9504:9522   */\n      add\n        /* \"#utility.yul\":9496:9522   */\n      swap1\n      pop\n        /* \"#utility.yul\":9532:9603   */\n      tag_506\n        /* \"#utility.yul\":9600:9601   */\n      0x00\n        /* \"#utility.yul\":9589:9598   */\n      dup4\n        /* \"#utility.yul\":9585:9602   */\n      add\n        /* \"#utility.yul\":9576:9582   */\n      dup6\n        /* \"#utility.yul\":9532:9603   */\n      tag_411\n      jump\t// in\n    tag_506:\n        /* \"#utility.yul\":9613:9685   */\n      tag_507\n        /* \"#utility.yul\":9681:9683   */\n      0x20\n        /* \"#utility.yul\":9670:9679   */\n      dup4\n        /* \"#utility.yul\":9666:9684   */\n      add\n        /* \"#utility.yul\":9657:9663   */\n      dup5\n        /* \"#utility.yul\":9613:9685   */\n      tag_495\n      jump\t// in\n    tag_507:\n        /* \"#utility.yul\":9360:9692   */\n      swap4\n      swap3\n      pop\n      pop\n      pop\n      jump\t// out\n        /* \"#utility.yul\":9698:9908   */\n    tag_52:\n        /* \"#utility.yul\":9785:9789   */\n      0x00\n        /* \"#utility.yul\":9823:9825   */\n      0x20\n        /* \"#utility.yul\":9812:9821   */\n      dup3\n        /* \"#utility.yul\":9808:9826   */\n      add\n        /* \"#utility.yul\":9800:9826   */\n      swap1\n      pop\n        /* \"#utility.yul\":9836:9901   */\n      tag_509\n        /* \"#utility.yul\":9898:9899   */\n      0x00\n        /* \"#utility.yul\":9887:9896   */\n      dup4\n        /* \"#utility.yul\":9883:9900   */\n      add\n        /* \"#utility.yul\":9874:9880   */\n      dup5\n        /* \"#utility.yul\":9836:9901   */\n      tag_428\n      jump\t// in\n    tag_509:\n        /* \"#utility.yul\":9698:9908   */\n      swap3\n      swap2\n      pop\n      pop\n      jump\t// out\n        /* \"#utility.yul\":9914:10198   */\n    tag_57:\n        /* \"#utility.yul\":10038:10042   */\n      0x00\n        /* \"#utility.yul\":10076:10078   */\n      0x20\n        /* \"#utility.yul\":10065:10074   */\n      dup3\n        /* \"#utility.yul\":10061:10079   */\n      add\n        /* \"#utility.yul\":10053:10079   */\n      swap1\n      pop\n        /* \"#utility.yul\":10089:10191   */\n      tag_511\n        /* \"#utility.yul\":10188:10189   */\n      0x00\n        /* \"#utility.yul\":10177:10186   */\n      dup4\n        /* \"#utility.yul\":10173:10190   */\n      add\n        /* \"#utility.yul\":10164:10170   */\n      dup5\n        /* \"#utility.yul\":10089:10191   */\n      tag_432\n      jump\t// in\n    tag_511:\n        /* \"#utility.yul\":9914:10198   */\n      swap3\n      swap2\n      pop\n      pop\n      jump\t// out\n        /* \"#utility.yul\":10204:10517   */\n    tag_45:\n        /* \"#utility.yul\":10317:10321   */\n      0x00\n        /* \"#utility.yul\":10355:10357   */\n      0x20\n        /* \"#utility.yul\":10344:10353   */\n      dup3\n        /* \"#utility.yul\":10340:10358   */\n      add\n        /* \"#utility.yul\":10332:10358   */\n      swap1\n      pop\n        /* \"#utility.yul\":10404:10413   */\n      dup2\n        /* \"#utility.yul\":10398:10402   */\n      dup2\n        /* \"#utility.yul\":10394:10414   */\n      sub\n        /* \"#utility.yul\":10390:10391   */\n      0x00\n        /* \"#utility.yul\":10379:10388   */\n      dup4\n        /* \"#utility.yul\":10375:10392   */\n      add\n        /* \"#utility.yul\":10368:10415   */\n      mstore\n        /* \"#utility.yul\":10432:10510   */\n      tag_513\n        /* \"#utility.yul\":10505:10509   */\n      dup2\n        /* \"#utility.yul\":10496:10502   */\n      dup5\n        /* \"#utility.yul\":10432:10510   */\n      tag_440\n      jump\t// in\n    tag_513:\n        /* \"#utility.yul\":10424:10510   */\n      swap1\n      pop\n        /* \"#utility.yul\":10204:10517   */\n      swap3\n      swap2\n      pop\n      pop\n      jump\t// out\n        /* \"#utility.yul\":10523:10942   */\n    tag_297:\n        /* \"#utility.yul\":10689:10693   */\n      0x00\n        /* \"#utility.yul\":10727:10729   */\n      0x20\n        /* \"#utility.yul\":10716:10725   */\n      dup3\n        /* \"#utility.yul\":10712:10730   */\n      add\n        /* \"#utility.yul\":10704:10730   */\n      swap1\n      pop\n        /* \"#utility.yul\":10776:10785   */\n      dup2\n        /* \"#utility.yul\":10770:10774   */\n      dup2\n        /* \"#utility.yul\":10766:10786   */\n      sub\n        /* \"#utility.yul\":10762:10763   */\n      0x00\n        /* \"#utility.yul\":10751:10760   */\n      dup4\n        /* \"#utility.yul\":10747:10764   */\n      add\n        /* \"#utility.yul\":10740:10787   */\n      mstore\n        /* \"#utility.yul\":10804:10935   */\n      tag_515\n        /* \"#utility.yul\":10930:10934   */\n      dup2\n        /* \"#utility.yul\":10804:10935   */\n      tag_450\n      jump\t// in\n    tag_515:\n        /* \"#utility.yul\":10796:10935   */\n      swap1\n      pop\n        /* \"#utility.yul\":10523:10942   */\n      swap2\n      swap1\n      pop\n      jump\t// out\n        /* \"#utility.yul\":10948:11367   */\n    tag_330:\n        /* \"#utility.yul\":11114:11118   */\n      0x00\n        /* \"#utility.yul\":11152:11154   */\n      0x20\n        /* \"#utility.yul\":11141:11150   */\n      dup3\n        /* \"#utility.yul\":11137:11155   */\n      add\n        /* \"#utility.yul\":11129:11155   */\n      swap1\n      pop\n        /* \"#utility.yul\":11201:11210   */\n      dup2\n        /* \"#utility.yul\":11195:11199   */\n      dup2\n        /* \"#utility.yul\":11191:11211   */\n      sub\n        /* \"#utility.yul\":11187:11188   */\n      0x00\n        /* \"#utility.yul\":11176:11185   */\n      dup4\n        /* \"#utility.yul\":11172:11189   */\n      add\n        /* \"#utility.yul\":11165:11212   */\n      mstore\n        /* \"#utility.yul\":11229:11360   */\n      tag_517\n        /* \"#utility.yul\":11355:11359   */\n      dup2\n        /* \"#utility.yul\":11229:11360   */\n      tag_455\n      jump\t// in\n    tag_517:\n        /* \"#utility.yul\":11221:11360   */\n      swap1\n      pop\n        /* \"#utility.yul\":10948:11367   */\n      swap2\n      swap1\n      pop\n      jump\t// out\n        /* \"#utility.yul\":11373:11792   */\n    tag_286:\n        /* \"#utility.yul\":11539:11543   */\n      0x00\n        /* \"#utility.yul\":11577:11579   */\n      0x20\n        /* \"#utility.yul\":11566:11575   */\n      dup3\n        /* \"#utility.yul\":11562:11580   */\n      add\n        /* \"#utility.yul\":11554:11580   */\n      swap1\n      pop\n        /* \"#utility.yul\":11626:11635   */\n      dup2\n        /* \"#utility.yul\":11620:11624   */\n      dup2\n        /* \"#utility.yul\":11616:11636   */\n      sub\n        /* \"#utility.yul\":11612:11613   */\n      0x00\n        /* \"#utility.yul\":11601:11610   */\n      dup4\n        /* \"#utility.yul\":11597:11614   */\n      add\n        /* \"#utility.yul\":11590:11637   */\n      mstore\n        /* \"#utility.yul\":11654:11785   */\n      tag_519\n        /* \"#utility.yul\":11780:11784   */\n      dup2\n        /* \"#utility.yul\":11654:11785   */\n      tag_460\n      jump\t// in\n    tag_519:\n        /* \"#utility.yul\":11646:11785   */\n      swap1\n      pop\n        /* \"#utility.yul\":11373:11792   */\n      swap2\n      swap1\n      pop\n      jump\t// out\n        /* \"#utility.yul\":11798:12217   */\n    tag_300:\n        /* \"#utility.yul\":11964:11968   */\n      0x00\n        /* \"#utility.yul\":12002:12004   */\n      0x20\n        /* \"#utility.yul\":11991:12000   */\n      dup3\n        /* \"#utility.yul\":11987:12005   */\n      add\n        /* \"#utility.yul\":11979:12005   */\n      swap1\n      pop\n        /* \"#utility.yul\":12051:12060   */\n      dup2\n        /* \"#utility.yul\":12045:12049   */\n      dup2\n        /* \"#utility.yul\":12041:12061   */\n      sub\n        /* \"#utility.yul\":12037:12038   */\n      0x00\n        /* \"#utility.yul\":12026:12035   */\n      dup4\n        /* \"#utility.yul\":12022:12039   */\n      add\n        /* \"#utility.yul\":12015:12062   */\n      mstore\n        /* \"#utility.yul\":12079:12210   */\n      tag_521\n        /* \"#utility.yul\":12205:12209   */\n      dup2\n        /* \"#utility.yul\":12079:12210   */\n      tag_465\n      jump\t// in\n    tag_521:\n        /* \"#utility.yul\":12071:12210   */\n      swap1\n      pop\n        /* \"#utility.yul\":11798:12217   */\n      swap2\n      swap1\n      pop\n      jump\t// out\n        /* \"#utility.yul\":12223:12642   */\n    tag_209:\n        /* \"#utility.yul\":12389:12393   */\n      0x00\n        /* \"#utility.yul\":12427:12429   */\n      0x20\n        /* \"#utility.yul\":12416:12425   */\n      dup3\n        /* \"#utility.yul\":12412:12430   */\n      add\n        /* \"#utility.yul\":12404:12430   */\n      swap1\n      pop\n        /* \"#utility.yul\":12476:12485   */\n      dup2\n        /* \"#utility.yul\":12470:12474   */\n      dup2\n        /* \"#utility.yul\":12466:12486   */\n      sub\n        /* \"#utility.yul\":12462:12463   */\n      0x00\n        /* \"#utility.yul\":12451:12460   */\n      dup4\n        /* \"#utility.yul\":12447:12464   */\n      add\n        /* \"#utility.yul\":12440:12487   */\n      mstore\n        /* \"#utility.yul\":12504:12635   */\n      tag_523\n        /* \"#utility.yul\":12630:12634   */\n      dup2\n        /* \"#utility.yul\":12504:12635   */\n      tag_470\n      jump\t// in\n    tag_523:\n        /* \"#utility.yul\":12496:12635   */\n      swap1\n      pop\n        /* \"#utility.yul\":12223:12642   */\n      swap2\n      swap1\n      pop\n      jump\t// out\n        /* \"#utility.yul\":12648:13067   */\n    tag_333:\n        /* \"#utility.yul\":12814:12818   */\n      0x00\n        /* \"#utility.yul\":12852:12854   */\n      0x20\n        /* \"#utility.yul\":12841:12850   */\n      dup3\n        /* \"#utility.yul\":12837:12855   */\n      add\n        /* \"#utility.yul\":12829:12855   */\n      swap1\n      pop\n        /* \"#utility.yul\":12901:12910   */\n      dup2\n        /* \"#utility.yul\":12895:12899   */\n      dup2\n        /* \"#utility.yul\":12891:12911   */\n      sub\n        /* \"#utility.yul\":12887:12888   */\n      0x00\n        /* \"#utility.yul\":12876:12885   */\n      dup4\n        /* \"#utility.yul\":12872:12889   */\n      add\n        /* \"#utility.yul\":12865:12912   */\n      mstore\n        /* \"#utility.yul\":12929:13060   */\n      tag_525\n        /* \"#utility.yul\":13055:13059   */\n      dup2\n        /* \"#utility.yul\":12929:13060   */\n      tag_475\n      jump\t// in\n    tag_525:\n        /* \"#utility.yul\":12921:13060   */\n      swap1\n      pop\n        /* \"#utility.yul\":12648:13067   */\n      swap2\n      swap1\n      pop\n      jump\t// out\n        /* \"#utility.yul\":13073:13492   */\n    tag_294:\n        /* \"#utility.yul\":13239:13243   */\n      0x00\n        /* \"#utility.yul\":13277:13279   */\n      0x20\n        /* \"#utility.yul\":13266:13275   */\n      dup3\n        /* \"#utility.yul\":13262:13280   */\n      add\n        /* \"#utility.yul\":13254:13280   */\n      swap1\n      pop\n        /* \"#utility.yul\":13326:13335   */\n      dup2\n        /* \"#utility.yul\":13320:13324   */\n      dup2\n        /* \"#utility.yul\":13316:13336   */\n      sub\n        /* \"#utility.yul\":13312:13313   */\n      0x00\n        /* \"#utility.yul\":13301:13310   */\n      dup4\n        /* \"#utility.yul\":13297:13314   */\n      add\n        /* \"#utility.yul\":13290:13337   */\n      mstore\n        /* \"#utility.yul\":13354:13485   */\n      tag_527\n        /* \"#utility.yul\":13480:13484   */\n      dup2\n        /* \"#utility.yul\":13354:13485   */\n      tag_480\n      jump\t// in\n    tag_527:\n        /* \"#utility.yul\":13346:13485   */\n      swap1\n      pop\n        /* \"#utility.yul\":13073:13492   */\n      swap2\n      swap1\n      pop\n      jump\t// out\n        /* \"#utility.yul\":13498:13917   */\n    tag_234:\n        /* \"#utility.yul\":13664:13668   */\n      0x00\n        /* \"#utility.yul\":13702:13704   */\n      0x20\n        /* \"#utility.yul\":13691:13700   */\n      dup3\n        /* \"#utility.yul\":13687:13705   */\n      add\n        /* \"#utility.yul\":13679:13705   */\n      swap1\n      pop\n        /* \"#utility.yul\":13751:13760   */\n      dup2\n        /* \"#utility.yul\":13745:13749   */\n      dup2\n        /* \"#utility.yul\":13741:13761   */\n      sub\n        /* \"#utility.yul\":13737:13738   */\n      0x00\n        /* \"#utility.yul\":13726:13735   */\n      dup4\n        /* \"#utility.yul\":13722:13739   */\n      add\n        /* \"#utility.yul\":13715:13762   */\n      mstore\n        /* \"#utility.yul\":13779:13910   */\n      tag_529\n        /* \"#utility.yul\":13905:13909   */\n      dup2\n        /* \"#utility.yul\":13779:13910   */\n      tag_485\n      jump\t// in\n    tag_529:\n        /* \"#utility.yul\":13771:13910   */\n      swap1\n      pop\n        /* \"#utility.yul\":13498:13917   */\n      swap2\n      swap1\n      pop\n      jump\t// out\n        /* \"#utility.yul\":13923:14342   */\n    tag_190:\n        /* \"#utility.yul\":14089:14093   */\n      0x00\n        /* \"#utility.yul\":14127:14129   */\n      0x20\n        /* \"#utility.yul\":14116:14125   */\n      dup3\n        /* \"#utility.yul\":14112:14130   */\n      add\n        /* \"#utility.yul\":14104:14130   */\n      swap1\n      pop\n        /* \"#utility.yul\":14176:14185   */\n      dup2\n        /* \"#utility.yul\":14170:14174   */\n      dup2\n        /* \"#utility.yul\":14166:14186   */\n      sub\n        /* \"#utility.yul\":14162:14163   */\n      0x00\n        /* \"#utility.yul\":14151:14160   */\n      dup4\n        /* \"#utility.yul\":14147:14164   */\n      add\n        /* \"#utility.yul\":14140:14187   */\n      mstore\n        /* \"#utility.yul\":14204:14335   */\n      tag_531\n        /* \"#utility.yul\":14330:14334   */\n      dup2\n        /* \"#utility.yul\":14204:14335   */\n      tag_490\n      jump\t// in\n    tag_531:\n        /* \"#utility.yul\":14196:14335   */\n      swap1\n      pop\n        /* \"#utility.yul\":13923:14342   */\n      swap2\n      swap1\n      pop\n      jump\t// out\n        /* \"#utility.yul\":14348:14570   */\n    tag_62:\n        /* \"#utility.yul\":14441:14445   */\n      0x00\n        /* \"#utility.yul\":14479:14481   */\n      0x20\n        /* \"#utility.yul\":14468:14477   */\n      dup3\n        /* \"#utility.yul\":14464:14482   */\n      add\n        /* \"#utility.yul\":14456:14482   */\n      swap1\n      pop\n        /* \"#utility.yul\":14492:14563   */\n      tag_533\n        /* \"#utility.yul\":14560:14561   */\n      0x00\n        /* \"#utility.yul\":14549:14558   */\n      dup4\n        /* \"#utility.yul\":14545:14562   */\n      add\n        /* \"#utility.yul\":14536:14542   */\n      dup5\n        /* \"#utility.yul\":14492:14563   */\n      tag_495\n      jump\t// in\n    tag_533:\n        /* \"#utility.yul\":14348:14570   */\n      swap3\n      swap2\n      pop\n      pop\n      jump\t// out\n        /* \"#utility.yul\":14576:15407   */\n    tag_351:\n        /* \"#utility.yul\":14839:14843   */\n      0x00\n        /* \"#utility.yul\":14877:14880   */\n      0xa0\n        /* \"#utility.yul\":14866:14875   */\n      dup3\n        /* \"#utility.yul\":14862:14881   */\n      add\n        /* \"#utility.yul\":14854:14881   */\n      swap1\n      pop\n        /* \"#utility.yul\":14891:14962   */\n      tag_535\n        /* \"#utility.yul\":14959:14960   */\n      0x00\n        /* \"#utility.yul\":14948:14957   */\n      dup4\n        /* \"#utility.yul\":14944:14961   */\n      add\n        /* \"#utility.yul\":14935:14941   */\n      dup9\n        /* \"#utility.yul\":14891:14962   */\n      tag_495\n      jump\t// in\n    tag_535:\n        /* \"#utility.yul\":14972:15052   */\n      tag_536\n        /* \"#utility.yul\":15048:15050   */\n      0x20\n        /* \"#utility.yul\":15037:15046   */\n      dup4\n        /* \"#utility.yul\":15033:15051   */\n      add\n        /* \"#utility.yul\":15024:15030   */\n      dup8\n        /* \"#utility.yul\":14972:15052   */\n      tag_436\n      jump\t// in\n    tag_536:\n        /* \"#utility.yul\":15099:15108   */\n      dup2\n        /* \"#utility.yul\":15093:15097   */\n      dup2\n        /* \"#utility.yul\":15089:15109   */\n      sub\n        /* \"#utility.yul\":15084:15086   */\n      0x40\n        /* \"#utility.yul\":15073:15082   */\n      dup4\n        /* \"#utility.yul\":15069:15087   */\n      add\n        /* \"#utility.yul\":15062:15110   */\n      mstore\n        /* \"#utility.yul\":15127:15235   */\n      tag_537\n        /* \"#utility.yul\":15230:15234   */\n      dup2\n        /* \"#utility.yul\":15221:15227   */\n      dup7\n        /* \"#utility.yul\":15127:15235   */\n      tag_414\n      jump\t// in\n    tag_537:\n        /* \"#utility.yul\":15119:15235   */\n      swap1\n      pop\n        /* \"#utility.yul\":15245:15317   */\n      tag_538\n        /* \"#utility.yul\":15313:15315   */\n      0x60\n        /* \"#utility.yul\":15302:15311   */\n      dup4\n        /* \"#utility.yul\":15298:15316   */\n      add\n        /* \"#utility.yul\":15289:15295   */\n      dup6\n        /* \"#utility.yul\":15245:15317   */\n      tag_411\n      jump\t// in\n    tag_538:\n        /* \"#utility.yul\":15327:15400   */\n      tag_539\n        /* \"#utility.yul\":15395:15398   */\n      0x80\n        /* \"#utility.yul\":15384:15393   */\n      dup4\n        /* \"#utility.yul\":15380:15399   */\n      add\n        /* \"#utility.yul\":15371:15377   */\n      dup5\n        /* \"#utility.yul\":15327:15400   */\n      tag_495\n      jump\t// in\n    tag_539:\n        /* \"#utility.yul\":14576:15407   */\n      swap7\n      swap6\n      pop\n      pop\n      pop\n      pop\n      pop\n      pop\n      jump\t// out\n        /* \"#utility.yul\":15413:15627   */\n    tag_73:\n        /* \"#utility.yul\":15502:15506   */\n      0x00\n        /* \"#utility.yul\":15540:15542   */\n      0x20\n        /* \"#utility.yul\":15529:15538   */\n      dup3\n        /* \"#utility.yul\":15525:15543   */\n      add\n        /* \"#utility.yul\":15517:15543   */\n      swap1\n      pop\n        /* \"#utility.yul\":15553:15620   */\n      tag_541\n        /* \"#utility.yul\":15617:15618   */\n      0x00\n        /* \"#utility.yul\":15606:15615   */\n      dup4\n        /* \"#utility.yul\":15602:15619   */\n      add\n        /* \"#utility.yul\":15593:15599   */\n      dup5\n        /* \"#utility.yul\":15553:15620   */\n      tag_499\n      jump\t// in\n    tag_541:\n        /* \"#utility.yul\":15413:15627   */\n      swap3\n      swap2\n      pop\n      pop\n      jump\t// out\n        /* \"#utility.yul\":15714:15846   */\n    tag_421:\n        /* \"#utility.yul\":15781:15785   */\n      0x00\n        /* \"#utility.yul\":15804:15807   */\n      dup2\n        /* \"#utility.yul\":15796:15807   */\n      swap1\n      pop\n        /* \"#utility.yul\":15834:15838   */\n      0x20\n        /* \"#utility.yul\":15829:15832   */\n      dup3\n        /* \"#utility.yul\":15825:15839   */\n      add\n        /* \"#utility.yul\":15817:15839   */\n      swap1\n      pop\n        /* \"#utility.yul\":15714:15846   */\n      swap2\n      swap1\n      pop\n      jump\t// out\n        /* \"#utility.yul\":15852:15966   */\n    tag_417:\n        /* \"#utility.yul\":15919:15925   */\n      0x00\n        /* \"#utility.yul\":15953:15958   */\n      dup2\n        /* \"#utility.yul\":15947:15959   */\n      mload\n        /* \"#utility.yul\":15937:15959   */\n      swap1\n      pop\n        /* \"#utility.yul\":15852:15966   */\n      swap2\n      swap1\n      pop\n      jump\t// out\n        /* \"#utility.yul\":15972:16071   */\n    tag_443:\n        /* \"#utility.yul\":16024:16030   */\n      0x00\n        /* \"#utility.yul\":16058:16063   */\n      dup2\n        /* \"#utility.yul\":16052:16064   */\n      mload\n        /* \"#utility.yul\":16042:16064   */\n      swap1\n      pop\n        /* \"#utility.yul\":15972:16071   */\n      swap2\n      swap1\n      pop\n      jump\t// out\n        /* \"#utility.yul\":16077:16190   */\n    tag_427:\n        /* \"#utility.yul\":16147:16151   */\n      0x00\n        /* \"#utility.yul\":16179:16183   */\n      0x20\n        /* \"#utility.yul\":16174:16177   */\n      dup3\n        /* \"#utility.yul\":16170:16184   */\n      add\n        /* \"#utility.yul\":16162:16184   */\n      swap1\n      pop\n        /* \"#utility.yul\":16077:16190   */\n      swap2\n      swap1\n      pop\n      jump\t// out\n        /* \"#utility.yul\":16196:16380   */\n    tag_419:\n        /* \"#utility.yul\":16295:16306   */\n      0x00\n        /* \"#utility.yul\":16329:16335   */\n      dup3\n        /* \"#utility.yul\":16324:16327   */\n      dup3\n        /* \"#utility.yul\":16317:16336   */\n      mstore\n        /* \"#utility.yul\":16369:16373   */\n      0x20\n        /* \"#utility.yul\":16364:16367   */\n      dup3\n        /* \"#utility.yul\":16360:16374   */\n      add\n        /* \"#utility.yul\":16345:16374   */\n      swap1\n      pop\n        /* \"#utility.yul\":16196:16380   */\n      swap3\n      swap2\n      pop\n      pop\n      jump\t// out\n        /* \"#utility.yul\":16386:16555   */\n    tag_445:\n        /* \"#utility.yul\":16470:16481   */\n      0x00\n        /* \"#utility.yul\":16504:16510   */\n      dup3\n        /* \"#utility.yul\":16499:16502   */\n      dup3\n        /* \"#utility.yul\":16492:16511   */\n      mstore\n        /* \"#utility.yul\":16544:16548   */\n      0x20\n        /* \"#utility.yul\":16539:16542   */\n      dup3\n        /* \"#utility.yul\":16535:16549   */\n      add\n        /* \"#utility.yul\":16520:16549   */\n      swap1\n      pop\n        /* \"#utility.yul\":16386:16555   */\n      swap3\n      swap2\n      pop\n      pop\n      jump\t// out\n        /* \"#utility.yul\":16561:16866   */\n    tag_199:\n        /* \"#utility.yul\":16601:16604   */\n      0x00\n        /* \"#utility.yul\":16620:16640   */\n      tag_551\n        /* \"#utility.yul\":16638:16639   */\n      dup3\n        /* \"#utility.yul\":16620:16640   */\n      tag_498\n      jump\t// in\n    tag_551:\n        /* \"#utility.yul\":16615:16640   */\n      swap2\n      pop\n        /* \"#utility.yul\":16654:16674   */\n      tag_552\n        /* \"#utility.yul\":16672:16673   */\n      dup4\n        /* \"#utility.yul\":16654:16674   */\n      tag_498\n      jump\t// in\n    tag_552:\n        /* \"#utility.yul\":16649:16674   */\n      swap3\n      pop\n        /* \"#utility.yul\":16808:16809   */\n      dup3\n        /* \"#utility.yul\":16740:16806   */\n      0xffffffffffffffffffffffffffffffffffffffffffffffffffffffffffffffff\n        /* \"#utility.yul\":16736:16810   */\n      sub\n        /* \"#utility.yul\":16733:16734   */\n      dup3\n        /* \"#utility.yul\":16730:16811   */\n      gt\n        /* \"#utility.yul\":16727:16834   */\n      iszero\n      tag_553\n      jumpi\n        /* \"#utility.yul\":16814:16832   */\n      tag_554\n      tag_555\n      jump\t// in\n    tag_554:\n        /* \"#utility.yul\":16727:16834   */\n    tag_553:\n        /* \"#utility.yul\":16858:16859   */\n      dup3\n        /* \"#utility.yul\":16855:16856   */\n      dup3\n        /* \"#utility.yul\":16851:16860   */\n      add\n        /* \"#utility.yul\":16844:16860   */\n      swap1\n      pop\n        /* \"#utility.yul\":16561:16866   */\n      swap3\n      swap2\n      pop\n      pop\n      jump\t// out\n        /* \"#utility.yul\":16872:17057   */\n    tag_311:\n        /* \"#utility.yul\":16912:16913   */\n      0x00\n        /* \"#utility.yul\":16929:16949   */\n      tag_557\n        /* \"#utility.yul\":16947:16948   */\n      dup3\n        /* \"#utility.yul\":16929:16949   */\n      tag_498\n      jump\t// in\n    tag_557:\n        /* \"#utility.yul\":16924:16949   */\n      swap2\n      pop\n        /* \"#utility.yul\":16963:16983   */\n      tag_558\n        /* \"#utility.yul\":16981:16982   */\n      dup4\n        /* \"#utility.yul\":16963:16983   */\n      tag_498\n      jump\t// in\n    tag_558:\n        /* \"#utility.yul\":16958:16983   */\n      swap3\n      pop\n        /* \"#utility.yul\":17002:17003   */\n      dup3\n        /* \"#utility.yul\":16992:17027   */\n      tag_559\n      jumpi\n        /* \"#utility.yul\":17007:17025   */\n      tag_560\n      tag_561\n      jump\t// in\n    tag_560:\n        /* \"#utility.yul\":16992:17027   */\n    tag_559:\n        /* \"#utility.yul\":17049:17050   */\n      dup3\n        /* \"#utility.yul\":17046:17047   */\n      dup3\n        /* \"#utility.yul\":17042:17051   */\n      div\n        /* \"#utility.yul\":17037:17051   */\n      swap1\n      pop\n        /* \"#utility.yul\":16872:17057   */\n      swap3\n      swap2\n      pop\n      pop\n      jump\t// out\n        /* \"#utility.yul\":17063:17411   */\n    tag_309:\n        /* \"#utility.yul\":17103:17110   */\n      0x00\n        /* \"#utility.yul\":17126:17146   */\n      tag_563\n        /* \"#utility.yul\":17144:17145   */\n      dup3\n        /* \"#utility.yul\":17126:17146   */\n      tag_498\n      jump\t// in\n    tag_563:\n        /* \"#utility.yul\":17121:17146   */\n      swap2\n      pop\n        /* \"#utility.yul\":17160:17180   */\n      tag_564\n        /* \"#utility.yul\":17178:17179   */\n      dup4\n        /* \"#utility.yul\":17160:17180   */\n      tag_498\n      jump\t// in\n    tag_564:\n        /* \"#utility.yul\":17155:17180   */\n      swap3\n      pop\n        /* \"#utility.yul\":17348:17349   */\n      dup2\n        /* \"#utility.yul\":17280:17346   */\n      0xffffffffffffffffffffffffffffffffffffffffffffffffffffffffffffffff\n        /* \"#utility.yul\":17276:17350   */\n      div\n        /* \"#utility.yul\":17273:17274   */\n      dup4\n        /* \"#utility.yul\":17270:17351   */\n      gt\n        /* \"#utility.yul\":17265:17266   */\n      dup3\n        /* \"#utility.yul\":17258:17267   */\n      iszero\n        /* \"#utility.yul\":17251:17268   */\n      iszero\n        /* \"#utility.yul\":17247:17352   */\n      and\n        /* \"#utility.yul\":17244:17375   */\n      iszero\n      tag_565\n      jumpi\n        /* \"#utility.yul\":17355:17373   */\n      tag_566\n      tag_555\n      jump\t// in\n    tag_566:\n        /* \"#utility.yul\":17244:17375   */\n    tag_565:\n        /* \"#utility.yul\":17403:17404   */\n      dup3\n        /* \"#utility.yul\":17400:17401   */\n      dup3\n        /* \"#utility.yul\":17396:17405   */\n      mul\n        /* \"#utility.yul\":17385:17405   */\n      swap1\n      pop\n        /* \"#utility.yul\":17063:17411   */\n      swap3\n      swap2\n      pop\n      pop\n      jump\t// out\n        /* \"#utility.yul\":17417:17608   */\n    tag_335:\n        /* \"#utility.yul\":17457:17461   */\n      0x00\n        /* \"#utility.yul\":17477:17497   */\n      tag_568\n        /* \"#utility.yul\":17495:17496   */\n      dup3\n        /* \"#utility.yul\":17477:17497   */\n      tag_498\n      jump\t// in\n    tag_568:\n        /* \"#utility.yul\":17472:17497   */\n      swap2\n      pop\n        /* \"#utility.yul\":17511:17531   */\n      tag_569\n        /* \"#utility.yul\":17529:17530   */\n      dup4\n        /* \"#utility.yul\":17511:17531   */\n      tag_498\n      jump\t// in\n    tag_569:\n        /* \"#utility.yul\":17506:17531   */\n      swap3\n      pop\n        /* \"#utility.yul\":17550:17551   */\n      dup3\n        /* \"#utility.yul\":17547:17548   */\n      dup3\n        /* \"#utility.yul\":17544:17552   */\n      lt\n        /* \"#utility.yul\":17541:17575   */\n      iszero\n      tag_570\n      jumpi\n        /* \"#utility.yul\":17555:17573   */\n      tag_571\n      tag_555\n      jump\t// in\n    tag_571:\n        /* \"#utility.yul\":17541:17575   */\n    tag_570:\n        /* \"#utility.yul\":17600:17601   */\n      dup3\n        /* \"#utility.yul\":17597:17598   */\n      dup3\n        /* \"#utility.yul\":17593:17602   */\n      sub\n        /* \"#utility.yul\":17585:17602   */\n      swap1\n      pop\n        /* \"#utility.yul\":17417:17608   */\n      swap3\n      swap2\n      pop\n      pop\n      jump\t// out\n        /* \"#utility.yul\":17614:17710   */\n    tag_410:\n        /* \"#utility.yul\":17651:17658   */\n      0x00\n        /* \"#utility.yul\":17680:17704   */\n      tag_573\n        /* \"#utility.yul\":17698:17703   */\n      dup3\n        /* \"#utility.yul\":17680:17704   */\n      tag_574\n      jump\t// in\n    tag_573:\n        /* \"#utility.yul\":17669:17704   */\n      swap1\n      pop\n        /* \"#utility.yul\":17614:17710   */\n      swap2\n      swap1\n      pop\n      jump\t// out\n        /* \"#utility.yul\":17716:17806   */\n    tag_431:\n        /* \"#utility.yul\":17750:17757   */\n      0x00\n        /* \"#utility.yul\":17793:17798   */\n      dup2\n        /* \"#utility.yul\":17786:17799   */\n      iszero\n        /* \"#utility.yul\":17779:17800   */\n      iszero\n        /* \"#utility.yul\":17768:17800   */\n      swap1\n      pop\n        /* \"#utility.yul\":17716:17806   */\n      swap2\n      swap1\n      pop\n      jump\t// out\n        /* \"#utility.yul\":17812:17938   */\n    tag_574:\n        /* \"#utility.yul\":17849:17856   */\n      0x00\n        /* \"#utility.yul\":17889:17931   */\n      0xffffffffffffffffffffffffffffffffffffffff\n        /* \"#utility.yul\":17882:17887   */\n      dup3\n        /* \"#utility.yul\":17878:17932   */\n      and\n        /* \"#utility.yul\":17867:17932   */\n      swap1\n      pop\n        /* \"#utility.yul\":17812:17938   */\n      swap2\n      swap1\n      pop\n      jump\t// out\n        /* \"#utility.yul\":17944:18021   */\n    tag_498:\n        /* \"#utility.yul\":17981:17988   */\n      0x00\n        /* \"#utility.yul\":18010:18015   */\n      dup2\n        /* \"#utility.yul\":17999:18015   */\n      swap1\n      pop\n        /* \"#utility.yul\":17944:18021   */\n      swap2\n      swap1\n      pop\n      jump\t// out\n        /* \"#utility.yul\":18027:18113   */\n    tag_502:\n        /* \"#utility.yul\":18062:18069   */\n      0x00\n        /* \"#utility.yul\":18102:18106   */\n      0xff\n        /* \"#utility.yul\":18095:18100   */\n      dup3\n        /* \"#utility.yul\":18091:18107   */\n      and\n        /* \"#utility.yul\":18080:18107   */\n      swap1\n      pop\n        /* \"#utility.yul\":18027:18113   */\n      swap2\n      swap1\n      pop\n      jump\t// out\n        /* \"#utility.yul\":18119:18276   */\n    tag_435:\n        /* \"#utility.yul\":18200:18209   */\n      0x00\n        /* \"#utility.yul\":18233:18270   */\n      tag_580\n        /* \"#utility.yul\":18264:18269   */\n      dup3\n        /* \"#utility.yul\":18233:18270   */\n      tag_581\n      jump\t// in\n    tag_580:\n        /* \"#utility.yul\":18220:18270   */\n      swap1\n      pop\n        /* \"#utility.yul\":18119:18276   */\n      swap2\n      swap1\n      pop\n      jump\t// out\n        /* \"#utility.yul\":18282:18403   */\n    tag_439:\n        /* \"#utility.yul\":18340:18349   */\n      0x00\n        /* \"#utility.yul\":18373:18397   */\n      tag_583\n        /* \"#utility.yul\":18391:18396   */\n      dup3\n        /* \"#utility.yul\":18373:18397   */\n      tag_498\n      jump\t// in\n    tag_583:\n        /* \"#utility.yul\":18360:18397   */\n      swap1\n      pop\n        /* \"#utility.yul\":18282:18403   */\n      swap2\n      swap1\n      pop\n      jump\t// out\n        /* \"#utility.yul\":18409:18535   */\n    tag_581:\n        /* \"#utility.yul\":18459:18468   */\n      0x00\n        /* \"#utility.yul\":18492:18529   */\n      tag_585\n        /* \"#utility.yul\":18523:18528   */\n      dup3\n        /* \"#utility.yul\":18492:18529   */\n      tag_586\n      jump\t// in\n    tag_585:\n        /* \"#utility.yul\":18479:18529   */\n      swap1\n      pop\n        /* \"#utility.yul\":18409:18535   */\n      swap2\n      swap1\n      pop\n      jump\t// out\n        /* \"#utility.yul\":18541:18654   */\n    tag_586:\n        /* \"#utility.yul\":18591:18600   */\n      0x00\n        /* \"#utility.yul\":18624:18648   */\n      tag_588\n        /* \"#utility.yul\":18642:18647   */\n      dup3\n        /* \"#utility.yul\":18624:18648   */\n      tag_574\n      jump\t// in\n    tag_588:\n        /* \"#utility.yul\":18611:18648   */\n      swap1\n      pop\n        /* \"#utility.yul\":18541:18654   */\n      swap2\n      swap1\n      pop\n      jump\t// out\n        /* \"#utility.yul\":18660:18967   */\n    tag_447:\n        /* \"#utility.yul\":18728:18729   */\n      0x00\n        /* \"#utility.yul\":18738:18851   */\n    tag_590:\n        /* \"#utility.yul\":18752:18758   */\n      dup4\n        /* \"#utility.yul\":18749:18750   */\n      dup2\n        /* \"#utility.yul\":18746:18759   */\n      lt\n        /* \"#utility.yul\":18738:18851   */\n      iszero\n      tag_592\n      jumpi\n        /* \"#utility.yul\":18837:18838   */\n      dup1\n        /* \"#utility.yul\":18832:18835   */\n      dup3\n        /* \"#utility.yul\":18828:18839   */\n      add\n        /* \"#utility.yul\":18822:18840   */\n      mload\n        /* \"#utility.yul\":18818:18819   */\n      dup2\n        /* \"#utility.yul\":18813:18816   */\n      dup5\n        /* \"#utility.yul\":18809:18820   */\n      add\n        /* \"#utility.yul\":18802:18841   */\n      mstore\n        /* \"#utility.yul\":18774:18776   */\n      0x20\n        /* \"#utility.yul\":18771:18772   */\n      dup2\n        /* \"#utility.yul\":18767:18777   */\n      add\n        /* \"#utility.yul\":18762:18777   */\n      swap1\n      pop\n        /* \"#utility.yul\":18738:18851   */\n      jump(tag_590)\n    tag_592:\n        /* \"#utility.yul\":18869:18875   */\n      dup4\n        /* \"#utility.yul\":18866:18867   */\n      dup2\n        /* \"#utility.yul\":18863:18876   */\n      gt\n        /* \"#utility.yul\":18860:18961   */\n      iszero\n      tag_593\n      jumpi\n        /* \"#utility.yul\":18949:18950   */\n      0x00\n        /* \"#utility.yul\":18940:18946   */\n      dup5\n        /* \"#utility.yul\":18935:18938   */\n      dup5\n        /* \"#utility.yul\":18931:18947   */\n      add\n        /* \"#utility.yul\":18924:18951   */\n      mstore\n        /* \"#utility.yul\":18860:18961   */\n    tag_593:\n        /* \"#utility.yul\":18709:18967   */\n      pop\n        /* \"#utility.yul\":18660:18967   */\n      pop\n      pop\n      pop\n      jump\t// out\n        /* \"#utility.yul\":18973:19153   */\n    tag_555:\n        /* \"#utility.yul\":19021:19098   */\n      0x4e487b7100000000000000000000000000000000000000000000000000000000\n        /* \"#utility.yul\":19018:19019   */\n      0x00\n        /* \"#utility.yul\":19011:19099   */\n      mstore\n        /* \"#utility.yul\":19118:19122   */\n      0x11\n        /* \"#utility.yul\":19115:19116   */\n      0x04\n        /* \"#utility.yul\":19108:19123   */\n      mstore\n        /* \"#utility.yul\":19142:19146   */\n      0x24\n        /* \"#utility.yul\":19139:19140   */\n      0x00\n        /* \"#utility.yul\":19132:19147   */\n      revert\n        /* \"#utility.yul\":19159:19339   */\n    tag_561:\n        /* \"#utility.yul\":19207:19284   */\n      0x4e487b7100000000000000000000000000000000000000000000000000000000\n        /* \"#utility.yul\":19204:19205   */\n      0x00\n        /* \"#utility.yul\":19197:19285   */\n      mstore\n        /* \"#utility.yul\":19304:19308   */\n      0x12\n        /* \"#utility.yul\":19301:19302   */\n      0x04\n        /* \"#utility.yul\":19294:19309   */\n      mstore\n        /* \"#utility.yul\":19328:19332   */\n      0x24\n        /* \"#utility.yul\":19325:19326   */\n      0x00\n        /* \"#utility.yul\":19318:19333   */\n      revert\n        /* \"#utility.yul\":19345:19525   */\n    tag_346:\n        /* \"#utility.yul\":19393:19470   */\n      0x4e487b7100000000000000000000000000000000000000000000000000000000\n        /* \"#utility.yul\":19390:19391   */\n      0x00\n        /* \"#utility.yul\":19383:19471   */\n      mstore\n        /* \"#utility.yul\":19490:19494   */\n      0x32\n        /* \"#utility.yul\":19487:19488   */\n      0x04\n        /* \"#utility.yul\":19480:19495   */\n      mstore\n        /* \"#utility.yul\":19514:19518   */\n      0x24\n        /* \"#utility.yul\":19511:19512   */\n      0x00\n        /* \"#utility.yul\":19504:19519   */\n      revert\n        /* \"#utility.yul\":19531:19711   */\n    tag_342:\n        /* \"#utility.yul\":19579:19656   */\n      0x4e487b7100000000000000000000000000000000000000000000000000000000\n        /* \"#utility.yul\":19576:19577   */\n      0x00\n        /* \"#utility.yul\":19569:19657   */\n      mstore\n        /* \"#utility.yul\":19676:19680   */\n      0x41\n        /* \"#utility.yul\":19673:19674   */\n      0x04\n        /* \"#utility.yul\":19666:19681   */\n      mstore\n        /* \"#utility.yul\":19700:19704   */\n      0x24\n        /* \"#utility.yul\":19697:19698   */\n      0x00\n        /* \"#utility.yul\":19690:19705   */\n      revert\n        /* \"#utility.yul\":19840:19957   */\n    tag_374:\n        /* \"#utility.yul\":19949:19950   */\n      0x00\n        /* \"#utility.yul\":19946:19947   */\n      dup1\n        /* \"#utility.yul\":19939:19951   */\n      revert\n        /* \"#utility.yul\":19963:20065   */\n    tag_449:\n        /* \"#utility.yul\":20004:20010   */\n      0x00\n        /* \"#utility.yul\":20055:20057   */\n      0x1f\n        /* \"#utility.yul\":20051:20058   */\n      not\n        /* \"#utility.yul\":20046:20048   */\n      0x1f\n        /* \"#utility.yul\":20039:20044   */\n      dup4\n        /* \"#utility.yul\":20035:20049   */\n      add\n        /* \"#utility.yul\":20031:20059   */\n      and\n        /* \"#utility.yul\":20021:20059   */\n      swap1\n      pop\n        /* \"#utility.yul\":19963:20065   */\n      swap2\n      swap1\n      pop\n      jump\t// out\n        /* \"#utility.yul\":20071:20297   */\n    tag_454:\n        /* \"#utility.yul\":20211:20245   */\n      0x5375676172426162793a207472616e7366657220746f20746865207a65726f20\n        /* \"#utility.yul\":20207:20208   */\n      0x00\n        /* \"#utility.yul\":20199:20205   */\n      dup3\n        /* \"#utility.yul\":20195:20209   */\n      add\n        /* \"#utility.yul\":20188:20246   */\n      mstore\n        /* \"#utility.yul\":20280:20289   */\n      0x6164647265737300000000000000000000000000000000000000000000000000\n        /* \"#utility.yul\":20275:20277   */\n      0x20\n        /* \"#utility.yul\":20267:20273   */\n      dup3\n        /* \"#utility.yul\":20263:20278   */\n      add\n        /* \"#utility.yul\":20256:20290   */\n      mstore\n        /* \"#utility.yul\":20071:20297   */\n      pop\n      jump\t// out\n        /* \"#utility.yul\":20303:20527   */\n    tag_459:\n        /* \"#utility.yul\":20443:20477   */\n      0x5375676172426162793a206275726e2066726f6d20746865207a65726f206164\n        /* \"#utility.yul\":20439:20440   */\n      0x00\n        /* \"#utility.yul\":20431:20437   */\n      dup3\n        /* \"#utility.yul\":20427:20441   */\n      add\n        /* \"#utility.yul\":20420:20478   */\n      mstore\n        /* \"#utility.yul\":20512:20519   */\n      0x6472657373000000000000000000000000000000000000000000000000000000\n        /* \"#utility.yul\":20507:20509   */\n      0x20\n        /* \"#utility.yul\":20499:20505   */\n      dup3\n        /* \"#utility.yul\":20495:20510   */\n      add\n        /* \"#utility.yul\":20488:20520   */\n      mstore\n        /* \"#utility.yul\":20303:20527   */\n      pop\n      jump\t// out\n        /* \"#utility.yul\":20533:20758   */\n    tag_464:\n        /* \"#utility.yul\":20673:20707   */\n      0x4f776e61626c653a206e6577206f776e657220697320746865207a65726f2061\n        /* \"#utility.yul\":20669:20670   */\n      0x00\n        /* \"#utility.yul\":20661:20667   */\n      dup3\n        /* \"#utility.yul\":20657:20671   */\n      add\n        /* \"#utility.yul\":20650:20708   */\n      mstore\n        /* \"#utility.yul\":20742:20750   */\n      0x6464726573730000000000000000000000000000000000000000000000000000\n        /* \"#utility.yul\":20737:20739   */\n      0x20\n        /* \"#utility.yul\":20729:20735   */\n      dup3\n        /* \"#utility.yul\":20725:20740   */\n      add\n        /* \"#utility.yul\":20718:20751   */\n      mstore\n        /* \"#utility.yul\":20533:20758   */\n      pop\n      jump\t// out\n        /* \"#utility.yul\":20764:20993   */\n    tag_469:\n        /* \"#utility.yul\":20904:20938   */\n      0x5375676172426162793a207472616e7366657220616d6f756e74206578636565\n        /* \"#utility.yul\":20900:20901   */\n      0x00\n        /* \"#utility.yul\":20892:20898   */\n      dup3\n        /* \"#utility.yul\":20888:20902   */\n      add\n        /* \"#utility.yul\":20881:20939   */\n      mstore\n        /* \"#utility.yul\":20973:20985   */\n      0x64732062616c616e636500000000000000000000000000000000000000000000\n        /* \"#utility.yul\":20968:20970   */\n      0x20\n        /* \"#utility.yul\":20960:20966   */\n      dup3\n        /* \"#utility.yul\":20956:20971   */\n      add\n        /* \"#utility.yul\":20949:20986   */\n      mstore\n        /* \"#utility.yul\":20764:20993   */\n      pop\n      jump\t// out\n        /* \"#utility.yul\":20999:21181   */\n    tag_474:\n        /* \"#utility.yul\":21139:21173   */\n      0x4f776e61626c653a2063616c6c6572206973206e6f7420746865206f776e6572\n        /* \"#utility.yul\":21135:21136   */\n      0x00\n        /* \"#utility.yul\":21127:21133   */\n      dup3\n        /* \"#utility.yul\":21123:21137   */\n      add\n        /* \"#utility.yul\":21116:21174   */\n      mstore\n        /* \"#utility.yul\":20999:21181   */\n      pop\n      jump\t// out\n        /* \"#utility.yul\":21187:21412   */\n    tag_479:\n        /* \"#utility.yul\":21327:21361   */\n      0x5375676172426162793a206275726e20616d6f756e7420657863656564732062\n        /* \"#utility.yul\":21323:21324   */\n      0x00\n        /* \"#utility.yul\":21315:21321   */\n      dup3\n        /* \"#utility.yul\":21311:21325   */\n      add\n        /* \"#utility.yul\":21304:21362   */\n      mstore\n        /* \"#utility.yul\":21396:21404   */\n      0x616c616e63650000000000000000000000000000000000000000000000000000\n        /* \"#utility.yul\":21391:21393   */\n      0x20\n        /* \"#utility.yul\":21383:21389   */\n      dup3\n        /* \"#utility.yul\":21379:21394   */\n      add\n        /* \"#utility.yul\":21372:21405   */\n      mstore\n        /* \"#utility.yul\":21187:21412   */\n      pop\n      jump\t// out\n        /* \"#utility.yul\":21418:21646   */\n    tag_484:\n        /* \"#utility.yul\":21558:21592   */\n      0x5375676172426162793a207472616e736665722066726f6d20746865207a6572\n        /* \"#utility.yul\":21554:21555   */\n      0x00\n        /* \"#utility.yul\":21546:21552   */\n      dup3\n        /* \"#utility.yul\":21542:21556   */\n      add\n        /* \"#utility.yul\":21535:21593   */\n      mstore\n        /* \"#utility.yul\":21627:21638   */\n      0x6f20616464726573730000000000000000000000000000000000000000000000\n        /* \"#utility.yul\":21622:21624   */\n      0x20\n        /* \"#utility.yul\":21614:21620   */\n      dup3\n        /* \"#utility.yul\":21610:21625   */\n      add\n        /* \"#utility.yul\":21603:21639   */\n      mstore\n        /* \"#utility.yul\":21418:21646   */\n      pop\n      jump\t// out\n        /* \"#utility.yul\":21652:21880   */\n    tag_489:\n        /* \"#utility.yul\":21792:21826   */\n      0x5375676172426162793a2064656372656173656420616c6c6f77616e63652062\n        /* \"#utility.yul\":21788:21789   */\n      0x00\n        /* \"#utility.yul\":21780:21786   */\n      dup3\n        /* \"#utility.yul\":21776:21790   */\n      add\n        /* \"#utility.yul\":21769:21827   */\n      mstore\n        /* \"#utility.yul\":21861:21872   */\n      0x656c6f77207a65726f0000000000000000000000000000000000000000000000\n        /* \"#utility.yul\":21856:21858   */\n      0x20\n        /* \"#utility.yul\":21848:21854   */\n      dup3\n        /* \"#utility.yul\":21844:21859   */\n      add\n        /* \"#utility.yul\":21837:21873   */\n      mstore\n        /* \"#utility.yul\":21652:21880   */\n      pop\n      jump\t// out\n        /* \"#utility.yul\":21886:22117   */\n    tag_494:\n        /* \"#utility.yul\":22026:22060   */\n      0x5375676172426162793a207472616e7366657220616d6f756e74206578636565\n        /* \"#utility.yul\":22022:22023   */\n      0x00\n        /* \"#utility.yul\":22014:22020   */\n      dup3\n        /* \"#utility.yul\":22010:22024   */\n      add\n        /* \"#utility.yul\":22003:22061   */\n      mstore\n        /* \"#utility.yul\":22095:22109   */\n      0x647320616c6c6f77616e63650000000000000000000000000000000000000000\n        /* \"#utility.yul\":22090:22092   */\n      0x20\n        /* \"#utility.yul\":22082:22088   */\n      dup3\n        /* \"#utility.yul\":22078:22093   */\n      add\n        /* \"#utility.yul\":22071:22110   */\n      mstore\n        /* \"#utility.yul\":21886:22117   */\n      pop\n      jump\t// out\n        /* \"#utility.yul\":22123:22245   */\n    tag_359:\n        /* \"#utility.yul\":22196:22220   */\n      tag_612\n        /* \"#utility.yul\":22214:22219   */\n      dup2\n        /* \"#utility.yul\":22196:22220   */\n      tag_410\n      jump\t// in\n    tag_612:\n        /* \"#utility.yul\":22189:22194   */\n      dup2\n        /* \"#utility.yul\":22186:22221   */\n      eq\n        /* \"#utility.yul\":22176:22239   */\n      tag_613\n      jumpi\n        /* \"#utility.yul\":22235:22236   */\n      0x00\n        /* \"#utility.yul\":22232:22233   */\n      dup1\n        /* \"#utility.yul\":22225:22237   */\n      revert\n        /* \"#utility.yul\":22176:22239   */\n    tag_613:\n        /* \"#utility.yul\":22123:22245   */\n      pop\n      jump\t// out\n        /* \"#utility.yul\":22251:22367   */\n    tag_363:\n        /* \"#utility.yul\":22321:22342   */\n      tag_615\n        /* \"#utility.yul\":22336:22341   */\n      dup2\n        /* \"#utility.yul\":22321:22342   */\n      tag_431\n      jump\t// in\n    tag_615:\n        /* \"#utility.yul\":22314:22319   */\n      dup2\n        /* \"#utility.yul\":22311:22343   */\n      eq\n        /* \"#utility.yul\":22301:22361   */\n      tag_616\n      jumpi\n        /* \"#utility.yul\":22357:22358   */\n      0x00\n        /* \"#utility.yul\":22354:22355   */\n      dup1\n        /* \"#utility.yul\":22347:22359   */\n      revert\n        /* \"#utility.yul\":22301:22361   */\n    tag_616:\n        /* \"#utility.yul\":22251:22367   */\n      pop\n      jump\t// out\n        /* \"#utility.yul\":22373:22495   */\n    tag_370:\n        /* \"#utility.yul\":22446:22470   */\n      tag_618\n        /* \"#utility.yul\":22464:22469   */\n      dup2\n        /* \"#utility.yul\":22446:22470   */\n      tag_498\n      jump\t// in\n    tag_618:\n        /* \"#utility.yul\":22439:22444   */\n      dup2\n        /* \"#utility.yul\":22436:22471   */\n      eq\n        /* \"#utility.yul\":22426:22489   */\n      tag_619\n      jumpi\n        /* \"#utility.yul\":22485:22486   */\n      0x00\n        /* \"#utility.yul\":22482:22483   */\n      dup1\n        /* \"#utility.yul\":22475:22487   */\n      revert\n        /* \"#utility.yul\":22426:22489   */\n    tag_619:\n        /* \"#utility.yul\":22373:22495   */\n      pop\n      jump\t// out\n\n    auxdata: 0xa26469706673582212202a0d11dae71f340ead057813bcd931272d0de8941dd8f241c7810385039f75bc64736f6c63430008070033\n}\n",
				"bytecode": {
					"linkReferences": {},
					"object": "60a060405273d3c0b6aa1538d639912789be705f18b5fd89fce6600660006101000a81548173ffffffffffffffffffffffffffffffffffffffff021916908373ffffffffffffffffffffffffffffffffffffffff160217905550737ef95a0fee0dd31b22626fa2e10ee6a223f8a684600860006101000a81548173ffffffffffffffffffffffffffffffffffffffff021916908373ffffffffffffffffffffffffffffffffffffffff1602179055506001600860156101000a81548160ff021916908315150217905550348015620000d657600080fd5b50620000f7620000eb620003d160201b60201c565b620003d960201b60201c565b620001236200010b620003d160201b60201c565b6a115eec47f6cf7e350000006200049d60201b60201c565b6000739ac64cc6e4415144c455bd8e4837fea55603e5c390508073ffffffffffffffffffffffffffffffffffffffff1663c45a01556040518163ffffffff1660e01b815260040160206040518083038186803b1580156200018357600080fd5b505afa15801562000198573d6000803e3d6000fd5b505050506040513d601f19601f82011682018060405250810190620001be9190620005bc565b73ffffffffffffffffffffffffffffffffffffffff1663c9c6539630600860009054906101000a900473ffffffffffffffffffffffffffffffffffffffff166040518363ffffffff1660e01b81526004016200021c92919062000610565b602060405180830381600087803b1580156200023757600080fd5b505af11580156200024c573d6000803e3d6000fd5b505050506040513d601f19601f82011682018060405250810190620002729190620005bc565b600760006101000a81548173ffffffffffffffffffffffffffffffffffffffff021916908373ffffffffffffffffffffffffffffffffffffffff1602179055508073ffffffffffffffffffffffffffffffffffffffff1660808173ffffffffffffffffffffffffffffffffffffffff1660601b815250506001600b6000620002ff6200057c60201b60201c565b73ffffffffffffffffffffffffffffffffffffffff1673ffffffffffffffffffffffffffffffffffffffff16815260200190815260200160002060006101000a81548160ff0219169083151502179055506001600a6000600760009054906101000a900473ffffffffffffffffffffffffffffffffffffffff1673ffffffffffffffffffffffffffffffffffffffff1673ffffffffffffffffffffffffffffffffffffffff16815260200190815260200160002060006101000a81548160ff0219169083151502179055505062000743565b600033905090565b60008060009054906101000a900473ffffffffffffffffffffffffffffffffffffffff169050816000806101000a81548173ffffffffffffffffffffffffffffffffffffffff021916908373ffffffffffffffffffffffffffffffffffffffff1602179055508173ffffffffffffffffffffffffffffffffffffffff168173ffffffffffffffffffffffffffffffffffffffff167f8be0079c531659141344cd1fd0a4f28419497f9722a3daafe3b4186f6b6457e060405160405180910390a35050565b80600160008473ffffffffffffffffffffffffffffffffffffffff1673ffffffffffffffffffffffffffffffffffffffff1681526020019081526020016000206000828254620004ee91906200065a565b9250508190555080600360008282546200050991906200065a565b925050819055508173ffffffffffffffffffffffffffffffffffffffff16600073ffffffffffffffffffffffffffffffffffffffff167fddf252ad1be2c89b69c2b068fc378daa952ba7f163c4a11628f55a4df523b3ef836040516200057091906200063d565b60405180910390a35050565b60008060009054906101000a900473ffffffffffffffffffffffffffffffffffffffff16905090565b600081519050620005b68162000729565b92915050565b600060208284031215620005d557620005d462000724565b5b6000620005e584828501620005a5565b91505092915050565b620005f981620006b7565b82525050565b6200060a81620006eb565b82525050565b6000604082019050620006276000830185620005ee565b620006366020830184620005ee565b9392505050565b6000602082019050620006546000830184620005ff565b92915050565b60006200066782620006eb565b91506200067483620006eb565b9250827fffffffffffffffffffffffffffffffffffffffffffffffffffffffffffffffff03821115620006ac57620006ab620006f5565b5b828201905092915050565b6000620006c482620006cb565b9050919050565b600073ffffffffffffffffffffffffffffffffffffffff82169050919050565b6000819050919050565b7f4e487b7100000000000000000000000000000000000000000000000000000000600052601160045260246000fd5b600080fd5b6200073481620006b7565b81146200074057600080fd5b50565b60805160601c612ce5620007776000396000818161078c0152818161175101528181611f490152611f700152612ce56000f3fe6080604052600436106101c65760003560e01c8063715018a6116100f7578063a8808fcc11610095578063dd62ed3e11610064578063dd62ed3e1461064f578063dec1a6f61461068c578063e5e31b13146106c9578063f2fde38b14610706576101cd565b8063a8808fcc146105a9578063a9059cbb146105d2578063c49b9a801461060f578063db2e21bc14610638576101cd565b806395d89b41116100d157806395d89b41146104ed5780639ab4a44514610518578063a457c2d714610543578063a4c3b09114610580576101cd565b8063715018a6146104805780638da5cb5b1461049757806395623641146104c2576101cd565b806342966c68116101645780634f2b408c1161013e5780634f2b408c146103b4578063536db266146103f15780636dcea85f1461041a57806370a0823114610443576101cd565b806342966c681461033557806349bd5a5e1461035e5780634a74bb0214610389576101cd565b806318160ddd116101a057806318160ddd1461026557806323b872dd14610290578063313ce567146102cd57806339509351146102f8576101cd565b806306fdde03146101d2578063095ea7b3146101fd5780631694505e1461023a576101cd565b366101cd57005b600080fd5b3480156101de57600080fd5b506101e761072f565b6040516101f491906124eb565b60405180910390f35b34801561020957600080fd5b50610224600480360381019061021f9190612157565b61076c565b60405161023191906124b5565b60405180910390f35b34801561024657600080fd5b5061024f61078a565b60405161025c91906124d0565b60405180910390f35b34801561027157600080fd5b5061027a6107ae565b604051610287919061262d565b60405180910390f35b34801561029c57600080fd5b506102b760048036038101906102b29190612104565b6107b8565b6040516102c491906124b5565b60405180910390f35b3480156102d957600080fd5b506102e26108b0565b6040516102ef91906126a2565b60405180910390f35b34801561030457600080fd5b5061031f600480360381019061031a9190612157565b6108b9565b60405161032c91906124b5565b60405180910390f35b34801561034157600080fd5b5061035c600480360381019061035791906121f1565b610965565b005b34801561036a57600080fd5b50610373610979565b6040516103809190612471565b60405180910390f35b34801561039557600080fd5b5061039e61099f565b6040516103ab91906124b5565b60405180910390f35b3480156103c057600080fd5b506103db60048036038101906103d69190612097565b6109b2565b6040516103e891906124b5565b60405180910390f35b3480156103fd57600080fd5b5061041860048036038101906104139190612097565b6109d2565b005b34801561042657600080fd5b50610441600480360381019061043c9190612097565b610b59565b005b34801561044f57600080fd5b5061046a60048036038101906104659190612097565b610c19565b604051610477919061262d565b60405180910390f35b34801561048c57600080fd5b50610495610c62565b005b3480156104a357600080fd5b506104ac610cea565b6040516104b99190612471565b60405180910390f35b3480156104ce57600080fd5b506104d7610d13565b6040516104e49190612471565b60405180910390f35b3480156104f957600080fd5b50610502610d39565b60405161050f91906124eb565b60405180910390f35b34801561052457600080fd5b5061052d610d76565b60405161053a9190612471565b60405180910390f35b34801561054f57600080fd5b5061056a60048036038101906105659190612157565b610d9c565b60405161057791906124b5565b60405180910390f35b34801561058c57600080fd5b506105a760048036038101906105a29190612157565b610e87565b005b3480156105b557600080fd5b506105d060048036038101906105cb9190612097565b610f95565b005b3480156105de57600080fd5b506105f960048036038101906105f49190612157565b611123565b60405161060691906124b5565b60405180910390f35b34801561061b57600080fd5b5061063660048036038101906106319190612197565b611141565b005b34801561064457600080fd5b5061064d611211565b005b34801561065b57600080fd5b50610676600480360381019061067191906120c4565b6112dd565b604051610683919061262d565b60405180910390f35b34801561069857600080fd5b506106b360048036038101906106ae9190612097565b611364565b6040516106c091906124b5565b60405180910390f35b3480156106d557600080fd5b506106f060048036038101906106eb9190612097565b611384565b6040516106fd91906124b5565b60405180910390f35b34801561071257600080fd5b5061072d60048036038101906107289190612097565b6113a4565b005b60606040518060400160405280600a81526020017f5375676172204261627900000000000000000000000000000000000000000000815250905090565b600061078061077961149c565b84846114a4565b6001905092915050565b7f000000000000000000000000000000000000000000000000000000000000000081565b6000600354905090565b60006107c584848461158f565b6000600260008673ffffffffffffffffffffffffffffffffffffffff1673ffffffffffffffffffffffffffffffffffffffff168152602001908152602001600020600061081061149c565b73ffffffffffffffffffffffffffffffffffffffff1673ffffffffffffffffffffffffffffffffffffffff16815260200190815260200160002054905082811015610890576040517f08c379a00000000000000000000000000000000000000000000000000000000081526004016108879061260d565b60405180910390fd5b6108a48561089c61149c565b8584036114a4565b60019150509392505050565b60006012905090565b600061095b6108c661149c565b8484600260006108d461149c565b73ffffffffffffffffffffffffffffffffffffffff1673ffffffffffffffffffffffffffffffffffffffff16815260200190815260200160002060008873ffffffffffffffffffffffffffffffffffffffff1673ffffffffffffffffffffffffffffffffffffffff168152602001908152602001600020546109569190612712565b6114a4565b6001905092915050565b61097661097061149c565b82611b95565b50565b600760009054906101000a900473ffffffffffffffffffffffffffffffffffffffff1681565b600860159054906101000a900460ff1681565b60096020528060005260406000206000915054906101000a900460ff1681565b6109da61149c565b73ffffffffffffffffffffffffffffffffffffffff166109f8610cea565b73ffffffffffffffffffffffffffffffffffffffff1614610a4e576040517f08c379a0000000000000000000000000000000000000000000000000000000008152600401610a459061258d565b60405180910390fd5b600a60008273ffffffffffffffffffffffffffffffffffffffff1673ffffffffffffffffffffffffffffffffffffffff16815260200190815260200160002060009054906101000a900460ff1615610afd576000600a60008373ffffffffffffffffffffffffffffffffffffffff1673ffffffffffffffffffffffffffffffffffffffff16815260200190815260200160002060006101000a81548160ff021916908315150217905550610b56565b6001600a60008373ffffffffffffffffffffffffffffffffffffffff1673ffffffffffffffffffffffffffffffffffffffff16815260200190815260200160002060006101000a81548160ff0219169083151502179055505b50565b610b6161149c565b73ffffffffffffffffffffffffffffffffffffffff16610b7f610cea565b73ffffffffffffffffffffffffffffffffffffffff1614610bd5576040517f08c379a0000000000000000000000000000000000000000000000000000000008152600401610bcc9061258d565b60405180910390fd5b80600660006101000a81548173ffffffffffffffffffffffffffffffffffffffff021916908373ffffffffffffffffffffffffffffffffffffffff16021790555050565b6000600160008373ffffffffffffffffffffffffffffffffffffffff1673ffffffffffffffffffffffffffffffffffffffff168152602001908152602001600020549050919050565b610c6a61149c565b73ffffffffffffffffffffffffffffffffffffffff16610c88610cea565b73ffffffffffffffffffffffffffffffffffffffff1614610cde576040517f08c379a0000000000000000000000000000000000000000000000000000000008152600401610cd59061258d565b60405180910390fd5b610ce86000611d56565b565b60008060009054906101000a900473ffffffffffffffffffffffffffffffffffffffff16905090565b600660009054906101000a900473ffffffffffffffffffffffffffffffffffffffff1681565b60606040518060400160405280600481526020017f4241425900000000000000000000000000000000000000000000000000000000815250905090565b600860009054906101000a900473ffffffffffffffffffffffffffffffffffffffff1681565b60008060026000610dab61149c565b73ffffffffffffffffffffffffffffffffffffffff1673ffffffffffffffffffffffffffffffffffffffff16815260200190815260200160002060008573ffffffffffffffffffffffffffffffffffffffff1673ffffffffffffffffffffffffffffffffffffffff16815260200190815260200160002054905082811015610e68576040517f08c379a0000000000000000000000000000000000000000000000000000000008152600401610e5f906125ed565b60405180910390fd5b610e7c610e7361149c565b858584036114a4565b600191505092915050565b610e8f61149c565b73ffffffffffffffffffffffffffffffffffffffff16610ead610cea565b73ffffffffffffffffffffffffffffffffffffffff1614610f03576040517f08c379a0000000000000000000000000000000000000000000000000000000008152600401610efa9061258d565b60405180910390fd5b8173ffffffffffffffffffffffffffffffffffffffff1663a9059cbb33836040518363ffffffff1660e01b8152600401610f3e92919061248c565b602060405180830381600087803b158015610f5857600080fd5b505af1158015610f6c573d6000803e3d6000fd5b505050506040513d601f19601f82011682018060405250810190610f9091906121c4565b505050565b610f9d61149c565b73ffffffffffffffffffffffffffffffffffffffff16610fbb610cea565b73ffffffffffffffffffffffffffffffffffffffff1614611011576040517f08c379a00000000000000000000000000000000000000000000000000000000081526004016110089061258d565b60405180910390fd5b60011515600960008373ffffffffffffffffffffffffffffffffffffffff1673ffffffffffffffffffffffffffffffffffffffff16815260200190815260200160002060009054906101000a900460ff16151514156110c7576000600960008373ffffffffffffffffffffffffffffffffffffffff1673ffffffffffffffffffffffffffffffffffffffff16815260200190815260200160002060006101000a81548160ff021916908315150217905550611120565b6001600960008373ffffffffffffffffffffffffffffffffffffffff1673ffffffffffffffffffffffffffffffffffffffff16815260200190815260200160002060006101000a81548160ff0219169083151502179055505b50565b600061113761113061149c565b848461158f565b6001905092915050565b61114961149c565b73ffffffffffffffffffffffffffffffffffffffff16611167610cea565b73ffffffffffffffffffffffffffffffffffffffff16146111bd576040517f08c379a00000000000000000000000000000000000000000000000000000000081526004016111b49061258d565b60405180910390fd5b80600860156101000a81548160ff0219169083151502179055507f53726dfcaf90650aa7eb35524f4d3220f07413c8d6cb404cc8c18bf5591bc1598160405161120691906124b5565b60405180910390a150565b61121961149c565b73ffffffffffffffffffffffffffffffffffffffff16611237610cea565b73ffffffffffffffffffffffffffffffffffffffff161461128d576040517f08c379a00000000000000000000000000000000000000000000000000000000081526004016112849061258d565b60405180910390fd5b611295610cea565b73ffffffffffffffffffffffffffffffffffffffff166108fc479081150290604051600060405180830381858888f193505050501580156112da573d6000803e3d6000fd5b50565b6000600260008473ffffffffffffffffffffffffffffffffffffffff1673ffffffffffffffffffffffffffffffffffffffff16815260200190815260200160002060008373ffffffffffffffffffffffffffffffffffffffff1673ffffffffffffffffffffffffffffffffffffffff16815260200190815260200160002054905092915050565b600a6020528060005260406000206000915054906101000a900460ff1681565b600b6020528060005260406000206000915054906101000a900460ff1681565b6113ac61149c565b73ffffffffffffffffffffffffffffffffffffffff166113ca610cea565b73ffffffffffffffffffffffffffffffffffffffff1614611420576040517f08c379a00000000000000000000000000000000000000000000000000000000081526004016114179061258d565b60405180910390fd5b600073ffffffffffffffffffffffffffffffffffffffff168173ffffffffffffffffffffffffffffffffffffffff161415611490576040517f08c379a00000000000000000000000000000000000000000000000000000000081526004016114879061254d565b60405180910390fd5b61149981611d56565b50565b600033905090565b80600260008573ffffffffffffffffffffffffffffffffffffffff1673ffffffffffffffffffffffffffffffffffffffff16815260200190815260200160002060008473ffffffffffffffffffffffffffffffffffffffff1673ffffffffffffffffffffffffffffffffffffffff168152602001908152602001600020819055508173ffffffffffffffffffffffffffffffffffffffff168373ffffffffffffffffffffffffffffffffffffffff167f8c5be1e5ebec7d5bd14f71427d1e84f3dd0314c0f7b2291e5b200ac8c7c3b92583604051611582919061262d565b60405180910390a3505050565b600073ffffffffffffffffffffffffffffffffffffffff168373ffffffffffffffffffffffffffffffffffffffff1614156115ff576040517f08c379a00000000000000000000000000000000000000000000000000000000081526004016115f6906125cd565b60405180910390fd5b600073ffffffffffffffffffffffffffffffffffffffff168273ffffffffffffffffffffffffffffffffffffffff16141561166f576040517f08c379a00000000000000000000000000000000000000000000000000000000081526004016116669061250d565b60405180910390fd5b6000600160008573ffffffffffffffffffffffffffffffffffffffff1673ffffffffffffffffffffffffffffffffffffffff168152602001908152602001600020549050818110156116f6576040517f08c379a00000000000000000000000000000000000000000000000000000000081526004016116ed9061256d565b60405180910390fd5b6000829050600a60008673ffffffffffffffffffffffffffffffffffffffff1673ffffffffffffffffffffffffffffffffffffffff16815260200190815260200160002060009054906101000a900460ff1680156117a057507f000000000000000000000000000000000000000000000000000000000000000073ffffffffffffffffffffffffffffffffffffffff168473ffffffffffffffffffffffffffffffffffffffff1614155b806117f45750600a60008573ffffffffffffffffffffffffffffffffffffffff1673ffffffffffffffffffffffffffffffffffffffff16815260200190815260200160002060009054906101000a900460ff165b801561180d5750600860149054906101000a900460ff16155b80156118255750600860159054906101000a900460ff165b801561187b5750600960008673ffffffffffffffffffffffffffffffffffffffff1673ffffffffffffffffffffffffffffffffffffffff16815260200190815260200160002060009054906101000a900460ff16155b80156118d15750600960008573ffffffffffffffffffffffffffffffffffffffff1673ffffffffffffffffffffffffffffffffffffffff16815260200190815260200160002060009054906101000a900460ff16155b15611a8d576103e8600f846118e69190612799565b6118f09190612768565b600160003073ffffffffffffffffffffffffffffffffffffffff1673ffffffffffffffffffffffffffffffffffffffff168152602001908152602001600020600082825461193e9190612712565b925050819055503073ffffffffffffffffffffffffffffffffffffffff168573ffffffffffffffffffffffffffffffffffffffff167fddf252ad1be2c89b69c2b068fc378daa952ba7f163c4a11628f55a4df523b3ef6103e8600f876119a49190612799565b6119ae9190612768565b6040516119bb919061262d565b60405180910390a360006119ce30610c19565b905060035481106119df5760035490505b6000670de0b6b3a76400008210159050808015611a465750600a60008873ffffffffffffffffffffffffffffffffffffffff1673ffffffffffffffffffffffffffffffffffffffff16815260200190815260200160002060009054906101000a900460ff16155b8015611a5e5750600860159054906101000a900460ff165b15611a6d57611a6c82611e1a565b5b6103e86103d986611a7e9190612799565b611a889190612768565b925050505b828203600160008773ffffffffffffffffffffffffffffffffffffffff1673ffffffffffffffffffffffffffffffffffffffff1681526020019081526020016000208190555080600160008673ffffffffffffffffffffffffffffffffffffffff1673ffffffffffffffffffffffffffffffffffffffff1681526020019081526020016000206000828254611b229190612712565b925050819055508373ffffffffffffffffffffffffffffffffffffffff168573ffffffffffffffffffffffffffffffffffffffff167fddf252ad1be2c89b69c2b068fc378daa952ba7f163c4a11628f55a4df523b3ef83604051611b86919061262d565b60405180910390a35050505050565b600073ffffffffffffffffffffffffffffffffffffffff168273ffffffffffffffffffffffffffffffffffffffff161415611c05576040517f08c379a0000000000000000000000000000000000000000000000000000000008152600401611bfc9061252d565b60405180910390fd5b6000600160008473ffffffffffffffffffffffffffffffffffffffff1673ffffffffffffffffffffffffffffffffffffffff16815260200190815260200160002054905081811015611c8c576040517f08c379a0000000000000000000000000000000000000000000000000000000008152600401611c83906125ad565b60405180910390fd5b818103600160008573ffffffffffffffffffffffffffffffffffffffff1673ffffffffffffffffffffffffffffffffffffffff168152602001908152602001600020819055508160036000828254611ce491906127f3565b92505081905550600073ffffffffffffffffffffffffffffffffffffffff168373ffffffffffffffffffffffffffffffffffffffff167fddf252ad1be2c89b69c2b068fc378daa952ba7f163c4a11628f55a4df523b3ef84604051611d49919061262d565b60405180910390a3505050565b60008060009054906101000a900473ffffffffffffffffffffffffffffffffffffffff169050816000806101000a81548173ffffffffffffffffffffffffffffffffffffffff021916908373ffffffffffffffffffffffffffffffffffffffff1602179055508173ffffffffffffffffffffffffffffffffffffffff168173ffffffffffffffffffffffffffffffffffffffff167f8be0079c531659141344cd1fd0a4f28419497f9722a3daafe3b4186f6b6457e060405160405180910390a35050565b6001600860146101000a81548160ff0219169083151502179055506000600267ffffffffffffffff811115611e5257611e51612984565b5b604051908082528060200260200182016040528015611e805781602001602082028036833780820191505090505b5090503081600081518110611e9857611e97612955565b5b602002602001019073ffffffffffffffffffffffffffffffffffffffff16908173ffffffffffffffffffffffffffffffffffffffff1681525050600860009054906101000a900473ffffffffffffffffffffffffffffffffffffffff1681600181518110611f0957611f08612955565b5b602002602001019073ffffffffffffffffffffffffffffffffffffffff16908173ffffffffffffffffffffffffffffffffffffffff1681525050611f6e307f0000000000000000000000000000000000000000000000000000000000000000846114a4565b7f000000000000000000000000000000000000000000000000000000000000000073ffffffffffffffffffffffffffffffffffffffff16635c11d79583600084600660009054906101000a900473ffffffffffffffffffffffffffffffffffffffff16426040518663ffffffff1660e01b8152600401611ff2959493929190612648565b600060405180830381600087803b15801561200c57600080fd5b505af1158015612020573d6000803e3d6000fd5b50505050506000600860146101000a81548160ff02191690831515021790555050565b60008135905061205281612c6a565b92915050565b60008135905061206781612c81565b92915050565b60008151905061207c81612c81565b92915050565b60008135905061209181612c98565b92915050565b6000602082840312156120ad576120ac6129b3565b5b60006120bb84828501612043565b91505092915050565b600080604083850312156120db576120da6129b3565b5b60006120e985828601612043565b92505060206120fa85828601612043565b9150509250929050565b60008060006060848603121561211d5761211c6129b3565b5b600061212b86828701612043565b935050602061213c86828701612043565b925050604061214d86828701612082565b9150509250925092565b6000806040838503121561216e5761216d6129b3565b5b600061217c85828601612043565b925050602061218d85828601612082565b9150509250929050565b6000602082840312156121ad576121ac6129b3565b5b60006121bb84828501612058565b91505092915050565b6000602082840312156121da576121d96129b3565b5b60006121e88482850161206d565b91505092915050565b600060208284031215612207576122066129b3565b5b600061221584828501612082565b91505092915050565b600061222a8383612236565b60208301905092915050565b61223f81612827565b82525050565b61224e81612827565b82525050565b600061225f826126cd565b61226981856126f0565b9350612274836126bd565b8060005b838110156122a557815161228c888261221e565b9750612297836126e3565b925050600181019050612278565b5085935050505092915050565b6122bb81612839565b82525050565b6122ca8161287c565b82525050565b6122d98161288e565b82525050565b60006122ea826126d8565b6122f48185612701565b93506123048185602086016128c4565b61230d816129b8565b840191505092915050565b6000612325602783612701565b9150612330826129c9565b604082019050919050565b6000612348602583612701565b915061235382612a18565b604082019050919050565b600061236b602683612701565b915061237682612a67565b604082019050919050565b600061238e602a83612701565b915061239982612ab6565b604082019050919050565b60006123b1602083612701565b91506123bc82612b05565b602082019050919050565b60006123d4602683612701565b91506123df82612b2e565b604082019050919050565b60006123f7602983612701565b915061240282612b7d565b604082019050919050565b600061241a602983612701565b915061242582612bcc565b604082019050919050565b600061243d602c83612701565b915061244882612c1b565b604082019050919050565b61245c81612865565b82525050565b61246b8161286f565b82525050565b60006020820190506124866000830184612245565b92915050565b60006040820190506124a16000830185612245565b6124ae6020830184612453565b9392505050565b60006020820190506124ca60008301846122b2565b92915050565b60006020820190506124e560008301846122c1565b92915050565b6000602082019050818103600083015261250581846122df565b905092915050565b6000602082019050818103600083015261252681612318565b9050919050565b600060208201905081810360008301526125468161233b565b9050919050565b600060208201905081810360008301526125668161235e565b9050919050565b6000602082019050818103600083015261258681612381565b9050919050565b600060208201905081810360008301526125a6816123a4565b9050919050565b600060208201905081810360008301526125c6816123c7565b9050919050565b600060208201905081810360008301526125e6816123ea565b9050919050565b600060208201905081810360008301526126068161240d565b9050919050565b6000602082019050818103600083015261262681612430565b9050919050565b60006020820190506126426000830184612453565b92915050565b600060a08201905061265d6000830188612453565b61266a60208301876122d0565b818103604083015261267c8186612254565b905061268b6060830185612245565b6126986080830184612453565b9695505050505050565b60006020820190506126b76000830184612462565b92915050565b6000819050602082019050919050565b600081519050919050565b600081519050919050565b6000602082019050919050565b600082825260208201905092915050565b600082825260208201905092915050565b600061271d82612865565b915061272883612865565b9250827fffffffffffffffffffffffffffffffffffffffffffffffffffffffffffffffff0382111561275d5761275c6128f7565b5b828201905092915050565b600061277382612865565b915061277e83612865565b92508261278e5761278d612926565b5b828204905092915050565b60006127a482612865565b91506127af83612865565b9250817fffffffffffffffffffffffffffffffffffffffffffffffffffffffffffffffff04831182151516156127e8576127e76128f7565b5b828202905092915050565b60006127fe82612865565b915061280983612865565b92508282101561281c5761281b6128f7565b5b828203905092915050565b600061283282612845565b9050919050565b60008115159050919050565b600073ffffffffffffffffffffffffffffffffffffffff82169050919050565b6000819050919050565b600060ff82169050919050565b6000612887826128a0565b9050919050565b600061289982612865565b9050919050565b60006128ab826128b2565b9050919050565b60006128bd82612845565b9050919050565b60005b838110156128e25780820151818401526020810190506128c7565b838111156128f1576000848401525b50505050565b7f4e487b7100000000000000000000000000000000000000000000000000000000600052601160045260246000fd5b7f4e487b7100000000000000000000000000000000000000000000000000000000600052601260045260246000fd5b7f4e487b7100000000000000000000000000000000000000000000000000000000600052603260045260246000fd5b7f4e487b7100000000000000000000000000000000000000000000000000000000600052604160045260246000fd5b600080fd5b6000601f19601f8301169050919050565b7f5375676172426162793a207472616e7366657220746f20746865207a65726f2060008201527f6164647265737300000000000000000000000000000000000000000000000000602082015250565b7f5375676172426162793a206275726e2066726f6d20746865207a65726f20616460008201527f6472657373000000000000000000000000000000000000000000000000000000602082015250565b7f4f776e61626c653a206e6577206f776e657220697320746865207a65726f206160008201527f6464726573730000000000000000000000000000000000000000000000000000602082015250565b7f5375676172426162793a207472616e7366657220616d6f756e7420657863656560008201527f64732062616c616e636500000000000000000000000000000000000000000000602082015250565b7f4f776e61626c653a2063616c6c6572206973206e6f7420746865206f776e6572600082015250565b7f5375676172426162793a206275726e20616d6f756e742065786365656473206260008201527f616c616e63650000000000000000000000000000000000000000000000000000602082015250565b7f5375676172426162793a207472616e736665722066726f6d20746865207a657260008201527f6f20616464726573730000000000000000000000000000000000000000000000602082015250565b7f5375676172426162793a2064656372656173656420616c6c6f77616e6365206260008201527f656c6f77207a65726f0000000000000000000000000000000000000000000000602082015250565b7f5375676172426162793a207472616e7366657220616d6f756e7420657863656560008201527f647320616c6c6f77616e63650000000000000000000000000000000000000000602082015250565b612c7381612827565b8114612c7e57600080fd5b50565b612c8a81612839565b8114612c9557600080fd5b50565b612ca181612865565b8114612cac57600080fd5b5056fea26469706673582212202a0d11dae71f340ead057813bcd931272d0de8941dd8f241c7810385039f75bc64736f6c63430008070033",
					"opcodes": "PUSH1 0xA0 PUSH1 0x40 MSTORE PUSH20 0xD3C0B6AA1538D639912789BE705F18B5FD89FCE6 PUSH1 0x6 PUSH1 0x0 PUSH2 0x100 EXP DUP2 SLOAD DUP2 PUSH20 0xFFFFFFFFFFFFFFFFFFFFFFFFFFFFFFFFFFFFFFFF MUL NOT AND SWAP1 DUP4 PUSH20 0xFFFFFFFFFFFFFFFFFFFFFFFFFFFFFFFFFFFFFFFF AND MUL OR SWAP1 SSTORE POP PUSH20 0x7EF95A0FEE0DD31B22626FA2E10EE6A223F8A684 PUSH1 0x8 PUSH1 0x0 PUSH2 0x100 EXP DUP2 SLOAD DUP2 PUSH20 0xFFFFFFFFFFFFFFFFFFFFFFFFFFFFFFFFFFFFFFFF MUL NOT AND SWAP1 DUP4 PUSH20 0xFFFFFFFFFFFFFFFFFFFFFFFFFFFFFFFFFFFFFFFF AND MUL OR SWAP1 SSTORE POP PUSH1 0x1 PUSH1 0x8 PUSH1 0x15 PUSH2 0x100 EXP DUP2 SLOAD DUP2 PUSH1 0xFF MUL NOT AND SWAP1 DUP4 ISZERO ISZERO MUL OR SWAP1 SSTORE POP CALLVALUE DUP1 ISZERO PUSH3 0xD6 JUMPI PUSH1 0x0 DUP1 REVERT JUMPDEST POP PUSH3 0xF7 PUSH3 0xEB PUSH3 0x3D1 PUSH1 0x20 SHL PUSH1 0x20 SHR JUMP JUMPDEST PUSH3 0x3D9 PUSH1 0x20 SHL PUSH1 0x20 SHR JUMP JUMPDEST PUSH3 0x123 PUSH3 0x10B PUSH3 0x3D1 PUSH1 0x20 SHL PUSH1 0x20 SHR JUMP JUMPDEST PUSH11 0x115EEC47F6CF7E35000000 PUSH3 0x49D PUSH1 0x20 SHL PUSH1 0x20 SHR JUMP JUMPDEST PUSH1 0x0 PUSH20 0x9AC64CC6E4415144C455BD8E4837FEA55603E5C3 SWAP1 POP DUP1 PUSH20 0xFFFFFFFFFFFFFFFFFFFFFFFFFFFFFFFFFFFFFFFF AND PUSH4 0xC45A0155 PUSH1 0x40 MLOAD DUP2 PUSH4 0xFFFFFFFF AND PUSH1 0xE0 SHL DUP2 MSTORE PUSH1 0x4 ADD PUSH1 0x20 PUSH1 0x40 MLOAD DUP1 DUP4 SUB DUP2 DUP7 DUP1 EXTCODESIZE ISZERO DUP1 ISZERO PUSH3 0x183 JUMPI PUSH1 0x0 DUP1 REVERT JUMPDEST POP GAS STATICCALL ISZERO DUP1 ISZERO PUSH3 0x198 JUMPI RETURNDATASIZE PUSH1 0x0 DUP1 RETURNDATACOPY RETURNDATASIZE PUSH1 0x0 REVERT JUMPDEST POP POP POP POP PUSH1 0x40 MLOAD RETURNDATASIZE PUSH1 0x1F NOT PUSH1 0x1F DUP3 ADD AND DUP3 ADD DUP1 PUSH1 0x40 MSTORE POP DUP2 ADD SWAP1 PUSH3 0x1BE SWAP2 SWAP1 PUSH3 0x5BC JUMP JUMPDEST PUSH20 0xFFFFFFFFFFFFFFFFFFFFFFFFFFFFFFFFFFFFFFFF AND PUSH4 0xC9C65396 ADDRESS PUSH1 0x8 PUSH1 0x0 SWAP1 SLOAD SWAP1 PUSH2 0x100 EXP SWAP1 DIV PUSH20 0xFFFFFFFFFFFFFFFFFFFFFFFFFFFFFFFFFFFFFFFF AND PUSH1 0x40 MLOAD DUP4 PUSH4 0xFFFFFFFF AND PUSH1 0xE0 SHL DUP2 MSTORE PUSH1 0x4 ADD PUSH3 0x21C SWAP3 SWAP2 SWAP1 PUSH3 0x610 JUMP JUMPDEST PUSH1 0x20 PUSH1 0x40 MLOAD DUP1 DUP4 SUB DUP2 PUSH1 0x0 DUP8 DUP1 EXTCODESIZE ISZERO DUP1 ISZERO PUSH3 0x237 JUMPI PUSH1 0x0 DUP1 REVERT JUMPDEST POP GAS CALL ISZERO DUP1 ISZERO PUSH3 0x24C JUMPI RETURNDATASIZE PUSH1 0x0 DUP1 RETURNDATACOPY RETURNDATASIZE PUSH1 0x0 REVERT JUMPDEST POP POP POP POP PUSH1 0x40 MLOAD RETURNDATASIZE PUSH1 0x1F NOT PUSH1 0x1F DUP3 ADD AND DUP3 ADD DUP1 PUSH1 0x40 MSTORE POP DUP2 ADD SWAP1 PUSH3 0x272 SWAP2 SWAP1 PUSH3 0x5BC JUMP JUMPDEST PUSH1 0x7 PUSH1 0x0 PUSH2 0x100 EXP DUP2 SLOAD DUP2 PUSH20 0xFFFFFFFFFFFFFFFFFFFFFFFFFFFFFFFFFFFFFFFF MUL NOT AND SWAP1 DUP4 PUSH20 0xFFFFFFFFFFFFFFFFFFFFFFFFFFFFFFFFFFFFFFFF AND MUL OR SWAP1 SSTORE POP DUP1 PUSH20 0xFFFFFFFFFFFFFFFFFFFFFFFFFFFFFFFFFFFFFFFF AND PUSH1 0x80 DUP2 PUSH20 0xFFFFFFFFFFFFFFFFFFFFFFFFFFFFFFFFFFFFFFFF AND PUSH1 0x60 SHL DUP2 MSTORE POP POP PUSH1 0x1 PUSH1 0xB PUSH1 0x0 PUSH3 0x2FF PUSH3 0x57C PUSH1 0x20 SHL PUSH1 0x20 SHR JUMP JUMPDEST PUSH20 0xFFFFFFFFFFFFFFFFFFFFFFFFFFFFFFFFFFFFFFFF AND PUSH20 0xFFFFFFFFFFFFFFFFFFFFFFFFFFFFFFFFFFFFFFFF AND DUP2 MSTORE PUSH1 0x20 ADD SWAP1 DUP2 MSTORE PUSH1 0x20 ADD PUSH1 0x0 KECCAK256 PUSH1 0x0 PUSH2 0x100 EXP DUP2 SLOAD DUP2 PUSH1 0xFF MUL NOT AND SWAP1 DUP4 ISZERO ISZERO MUL OR SWAP1 SSTORE POP PUSH1 0x1 PUSH1 0xA PUSH1 0x0 PUSH1 0x7 PUSH1 0x0 SWAP1 SLOAD SWAP1 PUSH2 0x100 EXP SWAP1 DIV PUSH20 0xFFFFFFFFFFFFFFFFFFFFFFFFFFFFFFFFFFFFFFFF AND PUSH20 0xFFFFFFFFFFFFFFFFFFFFFFFFFFFFFFFFFFFFFFFF AND PUSH20 0xFFFFFFFFFFFFFFFFFFFFFFFFFFFFFFFFFFFFFFFF AND DUP2 MSTORE PUSH1 0x20 ADD SWAP1 DUP2 MSTORE PUSH1 0x20 ADD PUSH1 0x0 KECCAK256 PUSH1 0x0 PUSH2 0x100 EXP DUP2 SLOAD DUP2 PUSH1 0xFF MUL NOT AND SWAP1 DUP4 ISZERO ISZERO MUL OR SWAP1 SSTORE POP POP PUSH3 0x743 JUMP JUMPDEST PUSH1 0x0 CALLER SWAP1 POP SWAP1 JUMP JUMPDEST PUSH1 0x0 DUP1 PUSH1 0x0 SWAP1 SLOAD SWAP1 PUSH2 0x100 EXP SWAP1 DIV PUSH20 0xFFFFFFFFFFFFFFFFFFFFFFFFFFFFFFFFFFFFFFFF AND SWAP1 POP DUP2 PUSH1 0x0 DUP1 PUSH2 0x100 EXP DUP2 SLOAD DUP2 PUSH20 0xFFFFFFFFFFFFFFFFFFFFFFFFFFFFFFFFFFFFFFFF MUL NOT AND SWAP1 DUP4 PUSH20 0xFFFFFFFFFFFFFFFFFFFFFFFFFFFFFFFFFFFFFFFF AND MUL OR SWAP1 SSTORE POP DUP2 PUSH20 0xFFFFFFFFFFFFFFFFFFFFFFFFFFFFFFFFFFFFFFFF AND DUP2 PUSH20 0xFFFFFFFFFFFFFFFFFFFFFFFFFFFFFFFFFFFFFFFF AND PUSH32 0x8BE0079C531659141344CD1FD0A4F28419497F9722A3DAAFE3B4186F6B6457E0 PUSH1 0x40 MLOAD PUSH1 0x40 MLOAD DUP1 SWAP2 SUB SWAP1 LOG3 POP POP JUMP JUMPDEST DUP1 PUSH1 0x1 PUSH1 0x0 DUP5 PUSH20 0xFFFFFFFFFFFFFFFFFFFFFFFFFFFFFFFFFFFFFFFF AND PUSH20 0xFFFFFFFFFFFFFFFFFFFFFFFFFFFFFFFFFFFFFFFF AND DUP2 MSTORE PUSH1 0x20 ADD SWAP1 DUP2 MSTORE PUSH1 0x20 ADD PUSH1 0x0 KECCAK256 PUSH1 0x0 DUP3 DUP3 SLOAD PUSH3 0x4EE SWAP2 SWAP1 PUSH3 0x65A JUMP JUMPDEST SWAP3 POP POP DUP2 SWAP1 SSTORE POP DUP1 PUSH1 0x3 PUSH1 0x0 DUP3 DUP3 SLOAD PUSH3 0x509 SWAP2 SWAP1 PUSH3 0x65A JUMP JUMPDEST SWAP3 POP POP DUP2 SWAP1 SSTORE POP DUP2 PUSH20 0xFFFFFFFFFFFFFFFFFFFFFFFFFFFFFFFFFFFFFFFF AND PUSH1 0x0 PUSH20 0xFFFFFFFFFFFFFFFFFFFFFFFFFFFFFFFFFFFFFFFF AND PUSH32 0xDDF252AD1BE2C89B69C2B068FC378DAA952BA7F163C4A11628F55A4DF523B3EF DUP4 PUSH1 0x40 MLOAD PUSH3 0x570 SWAP2 SWAP1 PUSH3 0x63D JUMP JUMPDEST PUSH1 0x40 MLOAD DUP1 SWAP2 SUB SWAP1 LOG3 POP POP JUMP JUMPDEST PUSH1 0x0 DUP1 PUSH1 0x0 SWAP1 SLOAD SWAP1 PUSH2 0x100 EXP SWAP1 DIV PUSH20 0xFFFFFFFFFFFFFFFFFFFFFFFFFFFFFFFFFFFFFFFF AND SWAP1 POP SWAP1 JUMP JUMPDEST PUSH1 0x0 DUP2 MLOAD SWAP1 POP PUSH3 0x5B6 DUP2 PUSH3 0x729 JUMP JUMPDEST SWAP3 SWAP2 POP POP JUMP JUMPDEST PUSH1 0x0 PUSH1 0x20 DUP3 DUP5 SUB SLT ISZERO PUSH3 0x5D5 JUMPI PUSH3 0x5D4 PUSH3 0x724 JUMP JUMPDEST JUMPDEST PUSH1 0x0 PUSH3 0x5E5 DUP5 DUP3 DUP6 ADD PUSH3 0x5A5 JUMP JUMPDEST SWAP2 POP POP SWAP3 SWAP2 POP POP JUMP JUMPDEST PUSH3 0x5F9 DUP2 PUSH3 0x6B7 JUMP JUMPDEST DUP3 MSTORE POP POP JUMP JUMPDEST PUSH3 0x60A DUP2 PUSH3 0x6EB JUMP JUMPDEST DUP3 MSTORE POP POP JUMP JUMPDEST PUSH1 0x0 PUSH1 0x40 DUP3 ADD SWAP1 POP PUSH3 0x627 PUSH1 0x0 DUP4 ADD DUP6 PUSH3 0x5EE JUMP JUMPDEST PUSH3 0x636 PUSH1 0x20 DUP4 ADD DUP5 PUSH3 0x5EE JUMP JUMPDEST SWAP4 SWAP3 POP POP POP JUMP JUMPDEST PUSH1 0x0 PUSH1 0x20 DUP3 ADD SWAP1 POP PUSH3 0x654 PUSH1 0x0 DUP4 ADD DUP5 PUSH3 0x5FF JUMP JUMPDEST SWAP3 SWAP2 POP POP JUMP JUMPDEST PUSH1 0x0 PUSH3 0x667 DUP3 PUSH3 0x6EB JUMP JUMPDEST SWAP2 POP PUSH3 0x674 DUP4 PUSH3 0x6EB JUMP JUMPDEST SWAP3 POP DUP3 PUSH32 0xFFFFFFFFFFFFFFFFFFFFFFFFFFFFFFFFFFFFFFFFFFFFFFFFFFFFFFFFFFFFFFFF SUB DUP3 GT ISZERO PUSH3 0x6AC JUMPI PUSH3 0x6AB PUSH3 0x6F5 JUMP JUMPDEST JUMPDEST DUP3 DUP3 ADD SWAP1 POP SWAP3 SWAP2 POP POP JUMP JUMPDEST PUSH1 0x0 PUSH3 0x6C4 DUP3 PUSH3 0x6CB JUMP JUMPDEST SWAP1 POP SWAP2 SWAP1 POP JUMP JUMPDEST PUSH1 0x0 PUSH20 0xFFFFFFFFFFFFFFFFFFFFFFFFFFFFFFFFFFFFFFFF DUP3 AND SWAP1 POP SWAP2 SWAP1 POP JUMP JUMPDEST PUSH1 0x0 DUP2 SWAP1 POP SWAP2 SWAP1 POP JUMP JUMPDEST PUSH32 0x4E487B7100000000000000000000000000000000000000000000000000000000 PUSH1 0x0 MSTORE PUSH1 0x11 PUSH1 0x4 MSTORE PUSH1 0x24 PUSH1 0x0 REVERT JUMPDEST PUSH1 0x0 DUP1 REVERT JUMPDEST PUSH3 0x734 DUP2 PUSH3 0x6B7 JUMP JUMPDEST DUP2 EQ PUSH3 0x740 JUMPI PUSH1 0x0 DUP1 REVERT JUMPDEST POP JUMP JUMPDEST PUSH1 0x80 MLOAD PUSH1 0x60 SHR PUSH2 0x2CE5 PUSH3 0x777 PUSH1 0x0 CODECOPY PUSH1 0x0 DUP2 DUP2 PUSH2 0x78C ADD MSTORE DUP2 DUP2 PUSH2 0x1751 ADD MSTORE DUP2 DUP2 PUSH2 0x1F49 ADD MSTORE PUSH2 0x1F70 ADD MSTORE PUSH2 0x2CE5 PUSH1 0x0 RETURN INVALID PUSH1 0x80 PUSH1 0x40 MSTORE PUSH1 0x4 CALLDATASIZE LT PUSH2 0x1C6 JUMPI PUSH1 0x0 CALLDATALOAD PUSH1 0xE0 SHR DUP1 PUSH4 0x715018A6 GT PUSH2 0xF7 JUMPI DUP1 PUSH4 0xA8808FCC GT PUSH2 0x95 JUMPI DUP1 PUSH4 0xDD62ED3E GT PUSH2 0x64 JUMPI DUP1 PUSH4 0xDD62ED3E EQ PUSH2 0x64F JUMPI DUP1 PUSH4 0xDEC1A6F6 EQ PUSH2 0x68C JUMPI DUP1 PUSH4 0xE5E31B13 EQ PUSH2 0x6C9 JUMPI DUP1 PUSH4 0xF2FDE38B EQ PUSH2 0x706 JUMPI PUSH2 0x1CD JUMP JUMPDEST DUP1 PUSH4 0xA8808FCC EQ PUSH2 0x5A9 JUMPI DUP1 PUSH4 0xA9059CBB EQ PUSH2 0x5D2 JUMPI DUP1 PUSH4 0xC49B9A80 EQ PUSH2 0x60F JUMPI DUP1 PUSH4 0xDB2E21BC EQ PUSH2 0x638 JUMPI PUSH2 0x1CD JUMP JUMPDEST DUP1 PUSH4 0x95D89B41 GT PUSH2 0xD1 JUMPI DUP1 PUSH4 0x95D89B41 EQ PUSH2 0x4ED JUMPI DUP1 PUSH4 0x9AB4A445 EQ PUSH2 0x518 JUMPI DUP1 PUSH4 0xA457C2D7 EQ PUSH2 0x543 JUMPI DUP1 PUSH4 0xA4C3B091 EQ PUSH2 0x580 JUMPI PUSH2 0x1CD JUMP JUMPDEST DUP1 PUSH4 0x715018A6 EQ PUSH2 0x480 JUMPI DUP1 PUSH4 0x8DA5CB5B EQ PUSH2 0x497 JUMPI DUP1 PUSH4 0x95623641 EQ PUSH2 0x4C2 JUMPI PUSH2 0x1CD JUMP JUMPDEST DUP1 PUSH4 0x42966C68 GT PUSH2 0x164 JUMPI DUP1 PUSH4 0x4F2B408C GT PUSH2 0x13E JUMPI DUP1 PUSH4 0x4F2B408C EQ PUSH2 0x3B4 JUMPI DUP1 PUSH4 0x536DB266 EQ PUSH2 0x3F1 JUMPI DUP1 PUSH4 0x6DCEA85F EQ PUSH2 0x41A JUMPI DUP1 PUSH4 0x70A08231 EQ PUSH2 0x443 JUMPI PUSH2 0x1CD JUMP JUMPDEST DUP1 PUSH4 0x42966C68 EQ PUSH2 0x335 JUMPI DUP1 PUSH4 0x49BD5A5E EQ PUSH2 0x35E JUMPI DUP1 PUSH4 0x4A74BB02 EQ PUSH2 0x389 JUMPI PUSH2 0x1CD JUMP JUMPDEST DUP1 PUSH4 0x18160DDD GT PUSH2 0x1A0 JUMPI DUP1 PUSH4 0x18160DDD EQ PUSH2 0x265 JUMPI DUP1 PUSH4 0x23B872DD EQ PUSH2 0x290 JUMPI DUP1 PUSH4 0x313CE567 EQ PUSH2 0x2CD JUMPI DUP1 PUSH4 0x39509351 EQ PUSH2 0x2F8 JUMPI PUSH2 0x1CD JUMP JUMPDEST DUP1 PUSH4 0x6FDDE03 EQ PUSH2 0x1D2 JUMPI DUP1 PUSH4 0x95EA7B3 EQ PUSH2 0x1FD JUMPI DUP1 PUSH4 0x1694505E EQ PUSH2 0x23A JUMPI PUSH2 0x1CD JUMP JUMPDEST CALLDATASIZE PUSH2 0x1CD JUMPI STOP JUMPDEST PUSH1 0x0 DUP1 REVERT JUMPDEST CALLVALUE DUP1 ISZERO PUSH2 0x1DE JUMPI PUSH1 0x0 DUP1 REVERT JUMPDEST POP PUSH2 0x1E7 PUSH2 0x72F JUMP JUMPDEST PUSH1 0x40 MLOAD PUSH2 0x1F4 SWAP2 SWAP1 PUSH2 0x24EB JUMP JUMPDEST PUSH1 0x40 MLOAD DUP1 SWAP2 SUB SWAP1 RETURN JUMPDEST CALLVALUE DUP1 ISZERO PUSH2 0x209 JUMPI PUSH1 0x0 DUP1 REVERT JUMPDEST POP PUSH2 0x224 PUSH1 0x4 DUP1 CALLDATASIZE SUB DUP2 ADD SWAP1 PUSH2 0x21F SWAP2 SWAP1 PUSH2 0x2157 JUMP JUMPDEST PUSH2 0x76C JUMP JUMPDEST PUSH1 0x40 MLOAD PUSH2 0x231 SWAP2 SWAP1 PUSH2 0x24B5 JUMP JUMPDEST PUSH1 0x40 MLOAD DUP1 SWAP2 SUB SWAP1 RETURN JUMPDEST CALLVALUE DUP1 ISZERO PUSH2 0x246 JUMPI PUSH1 0x0 DUP1 REVERT JUMPDEST POP PUSH2 0x24F PUSH2 0x78A JUMP JUMPDEST PUSH1 0x40 MLOAD PUSH2 0x25C SWAP2 SWAP1 PUSH2 0x24D0 JUMP JUMPDEST PUSH1 0x40 MLOAD DUP1 SWAP2 SUB SWAP1 RETURN JUMPDEST CALLVALUE DUP1 ISZERO PUSH2 0x271 JUMPI PUSH1 0x0 DUP1 REVERT JUMPDEST POP PUSH2 0x27A PUSH2 0x7AE JUMP JUMPDEST PUSH1 0x40 MLOAD PUSH2 0x287 SWAP2 SWAP1 PUSH2 0x262D JUMP JUMPDEST PUSH1 0x40 MLOAD DUP1 SWAP2 SUB SWAP1 RETURN JUMPDEST CALLVALUE DUP1 ISZERO PUSH2 0x29C JUMPI PUSH1 0x0 DUP1 REVERT JUMPDEST POP PUSH2 0x2B7 PUSH1 0x4 DUP1 CALLDATASIZE SUB DUP2 ADD SWAP1 PUSH2 0x2B2 SWAP2 SWAP1 PUSH2 0x2104 JUMP JUMPDEST PUSH2 0x7B8 JUMP JUMPDEST PUSH1 0x40 MLOAD PUSH2 0x2C4 SWAP2 SWAP1 PUSH2 0x24B5 JUMP JUMPDEST PUSH1 0x40 MLOAD DUP1 SWAP2 SUB SWAP1 RETURN JUMPDEST CALLVALUE DUP1 ISZERO PUSH2 0x2D9 JUMPI PUSH1 0x0 DUP1 REVERT JUMPDEST POP PUSH2 0x2E2 PUSH2 0x8B0 JUMP JUMPDEST PUSH1 0x40 MLOAD PUSH2 0x2EF SWAP2 SWAP1 PUSH2 0x26A2 JUMP JUMPDEST PUSH1 0x40 MLOAD DUP1 SWAP2 SUB SWAP1 RETURN JUMPDEST CALLVALUE DUP1 ISZERO PUSH2 0x304 JUMPI PUSH1 0x0 DUP1 REVERT JUMPDEST POP PUSH2 0x31F PUSH1 0x4 DUP1 CALLDATASIZE SUB DUP2 ADD SWAP1 PUSH2 0x31A SWAP2 SWAP1 PUSH2 0x2157 JUMP JUMPDEST PUSH2 0x8B9 JUMP JUMPDEST PUSH1 0x40 MLOAD PUSH2 0x32C SWAP2 SWAP1 PUSH2 0x24B5 JUMP JUMPDEST PUSH1 0x40 MLOAD DUP1 SWAP2 SUB SWAP1 RETURN JUMPDEST CALLVALUE DUP1 ISZERO PUSH2 0x341 JUMPI PUSH1 0x0 DUP1 REVERT JUMPDEST POP PUSH2 0x35C PUSH1 0x4 DUP1 CALLDATASIZE SUB DUP2 ADD SWAP1 PUSH2 0x357 SWAP2 SWAP1 PUSH2 0x21F1 JUMP JUMPDEST PUSH2 0x965 JUMP JUMPDEST STOP JUMPDEST CALLVALUE DUP1 ISZERO PUSH2 0x36A JUMPI PUSH1 0x0 DUP1 REVERT JUMPDEST POP PUSH2 0x373 PUSH2 0x979 JUMP JUMPDEST PUSH1 0x40 MLOAD PUSH2 0x380 SWAP2 SWAP1 PUSH2 0x2471 JUMP JUMPDEST PUSH1 0x40 MLOAD DUP1 SWAP2 SUB SWAP1 RETURN JUMPDEST CALLVALUE DUP1 ISZERO PUSH2 0x395 JUMPI PUSH1 0x0 DUP1 REVERT JUMPDEST POP PUSH2 0x39E PUSH2 0x99F JUMP JUMPDEST PUSH1 0x40 MLOAD PUSH2 0x3AB SWAP2 SWAP1 PUSH2 0x24B5 JUMP JUMPDEST PUSH1 0x40 MLOAD DUP1 SWAP2 SUB SWAP1 RETURN JUMPDEST CALLVALUE DUP1 ISZERO PUSH2 0x3C0 JUMPI PUSH1 0x0 DUP1 REVERT JUMPDEST POP PUSH2 0x3DB PUSH1 0x4 DUP1 CALLDATASIZE SUB DUP2 ADD SWAP1 PUSH2 0x3D6 SWAP2 SWAP1 PUSH2 0x2097 JUMP JUMPDEST PUSH2 0x9B2 JUMP JUMPDEST PUSH1 0x40 MLOAD PUSH2 0x3E8 SWAP2 SWAP1 PUSH2 0x24B5 JUMP JUMPDEST PUSH1 0x40 MLOAD DUP1 SWAP2 SUB SWAP1 RETURN JUMPDEST CALLVALUE DUP1 ISZERO PUSH2 0x3FD JUMPI PUSH1 0x0 DUP1 REVERT JUMPDEST POP PUSH2 0x418 PUSH1 0x4 DUP1 CALLDATASIZE SUB DUP2 ADD SWAP1 PUSH2 0x413 SWAP2 SWAP1 PUSH2 0x2097 JUMP JUMPDEST PUSH2 0x9D2 JUMP JUMPDEST STOP JUMPDEST CALLVALUE DUP1 ISZERO PUSH2 0x426 JUMPI PUSH1 0x0 DUP1 REVERT JUMPDEST POP PUSH2 0x441 PUSH1 0x4 DUP1 CALLDATASIZE SUB DUP2 ADD SWAP1 PUSH2 0x43C SWAP2 SWAP1 PUSH2 0x2097 JUMP JUMPDEST PUSH2 0xB59 JUMP JUMPDEST STOP JUMPDEST CALLVALUE DUP1 ISZERO PUSH2 0x44F JUMPI PUSH1 0x0 DUP1 REVERT JUMPDEST POP PUSH2 0x46A PUSH1 0x4 DUP1 CALLDATASIZE SUB DUP2 ADD SWAP1 PUSH2 0x465 SWAP2 SWAP1 PUSH2 0x2097 JUMP JUMPDEST PUSH2 0xC19 JUMP JUMPDEST PUSH1 0x40 MLOAD PUSH2 0x477 SWAP2 SWAP1 PUSH2 0x262D JUMP JUMPDEST PUSH1 0x40 MLOAD DUP1 SWAP2 SUB SWAP1 RETURN JUMPDEST CALLVALUE DUP1 ISZERO PUSH2 0x48C JUMPI PUSH1 0x0 DUP1 REVERT JUMPDEST POP PUSH2 0x495 PUSH2 0xC62 JUMP JUMPDEST STOP JUMPDEST CALLVALUE DUP1 ISZERO PUSH2 0x4A3 JUMPI PUSH1 0x0 DUP1 REVERT JUMPDEST POP PUSH2 0x4AC PUSH2 0xCEA JUMP JUMPDEST PUSH1 0x40 MLOAD PUSH2 0x4B9 SWAP2 SWAP1 PUSH2 0x2471 JUMP JUMPDEST PUSH1 0x40 MLOAD DUP1 SWAP2 SUB SWAP1 RETURN JUMPDEST CALLVALUE DUP1 ISZERO PUSH2 0x4CE JUMPI PUSH1 0x0 DUP1 REVERT JUMPDEST POP PUSH2 0x4D7 PUSH2 0xD13 JUMP JUMPDEST PUSH1 0x40 MLOAD PUSH2 0x4E4 SWAP2 SWAP1 PUSH2 0x2471 JUMP JUMPDEST PUSH1 0x40 MLOAD DUP1 SWAP2 SUB SWAP1 RETURN JUMPDEST CALLVALUE DUP1 ISZERO PUSH2 0x4F9 JUMPI PUSH1 0x0 DUP1 REVERT JUMPDEST POP PUSH2 0x502 PUSH2 0xD39 JUMP JUMPDEST PUSH1 0x40 MLOAD PUSH2 0x50F SWAP2 SWAP1 PUSH2 0x24EB JUMP JUMPDEST PUSH1 0x40 MLOAD DUP1 SWAP2 SUB SWAP1 RETURN JUMPDEST CALLVALUE DUP1 ISZERO PUSH2 0x524 JUMPI PUSH1 0x0 DUP1 REVERT JUMPDEST POP PUSH2 0x52D PUSH2 0xD76 JUMP JUMPDEST PUSH1 0x40 MLOAD PUSH2 0x53A SWAP2 SWAP1 PUSH2 0x2471 JUMP JUMPDEST PUSH1 0x40 MLOAD DUP1 SWAP2 SUB SWAP1 RETURN JUMPDEST CALLVALUE DUP1 ISZERO PUSH2 0x54F JUMPI PUSH1 0x0 DUP1 REVERT JUMPDEST POP PUSH2 0x56A PUSH1 0x4 DUP1 CALLDATASIZE SUB DUP2 ADD SWAP1 PUSH2 0x565 SWAP2 SWAP1 PUSH2 0x2157 JUMP JUMPDEST PUSH2 0xD9C JUMP JUMPDEST PUSH1 0x40 MLOAD PUSH2 0x577 SWAP2 SWAP1 PUSH2 0x24B5 JUMP JUMPDEST PUSH1 0x40 MLOAD DUP1 SWAP2 SUB SWAP1 RETURN JUMPDEST CALLVALUE DUP1 ISZERO PUSH2 0x58C JUMPI PUSH1 0x0 DUP1 REVERT JUMPDEST POP PUSH2 0x5A7 PUSH1 0x4 DUP1 CALLDATASIZE SUB DUP2 ADD SWAP1 PUSH2 0x5A2 SWAP2 SWAP1 PUSH2 0x2157 JUMP JUMPDEST PUSH2 0xE87 JUMP JUMPDEST STOP JUMPDEST CALLVALUE DUP1 ISZERO PUSH2 0x5B5 JUMPI PUSH1 0x0 DUP1 REVERT JUMPDEST POP PUSH2 0x5D0 PUSH1 0x4 DUP1 CALLDATASIZE SUB DUP2 ADD SWAP1 PUSH2 0x5CB SWAP2 SWAP1 PUSH2 0x2097 JUMP JUMPDEST PUSH2 0xF95 JUMP JUMPDEST STOP JUMPDEST CALLVALUE DUP1 ISZERO PUSH2 0x5DE JUMPI PUSH1 0x0 DUP1 REVERT JUMPDEST POP PUSH2 0x5F9 PUSH1 0x4 DUP1 CALLDATASIZE SUB DUP2 ADD SWAP1 PUSH2 0x5F4 SWAP2 SWAP1 PUSH2 0x2157 JUMP JUMPDEST PUSH2 0x1123 JUMP JUMPDEST PUSH1 0x40 MLOAD PUSH2 0x606 SWAP2 SWAP1 PUSH2 0x24B5 JUMP JUMPDEST PUSH1 0x40 MLOAD DUP1 SWAP2 SUB SWAP1 RETURN JUMPDEST CALLVALUE DUP1 ISZERO PUSH2 0x61B JUMPI PUSH1 0x0 DUP1 REVERT JUMPDEST POP PUSH2 0x636 PUSH1 0x4 DUP1 CALLDATASIZE SUB DUP2 ADD SWAP1 PUSH2 0x631 SWAP2 SWAP1 PUSH2 0x2197 JUMP JUMPDEST PUSH2 0x1141 JUMP JUMPDEST STOP JUMPDEST CALLVALUE DUP1 ISZERO PUSH2 0x644 JUMPI PUSH1 0x0 DUP1 REVERT JUMPDEST POP PUSH2 0x64D PUSH2 0x1211 JUMP JUMPDEST STOP JUMPDEST CALLVALUE DUP1 ISZERO PUSH2 0x65B JUMPI PUSH1 0x0 DUP1 REVERT JUMPDEST POP PUSH2 0x676 PUSH1 0x4 DUP1 CALLDATASIZE SUB DUP2 ADD SWAP1 PUSH2 0x671 SWAP2 SWAP1 PUSH2 0x20C4 JUMP JUMPDEST PUSH2 0x12DD JUMP JUMPDEST PUSH1 0x40 MLOAD PUSH2 0x683 SWAP2 SWAP1 PUSH2 0x262D JUMP JUMPDEST PUSH1 0x40 MLOAD DUP1 SWAP2 SUB SWAP1 RETURN JUMPDEST CALLVALUE DUP1 ISZERO PUSH2 0x698 JUMPI PUSH1 0x0 DUP1 REVERT JUMPDEST POP PUSH2 0x6B3 PUSH1 0x4 DUP1 CALLDATASIZE SUB DUP2 ADD SWAP1 PUSH2 0x6AE SWAP2 SWAP1 PUSH2 0x2097 JUMP JUMPDEST PUSH2 0x1364 JUMP JUMPDEST PUSH1 0x40 MLOAD PUSH2 0x6C0 SWAP2 SWAP1 PUSH2 0x24B5 JUMP JUMPDEST PUSH1 0x40 MLOAD DUP1 SWAP2 SUB SWAP1 RETURN JUMPDEST CALLVALUE DUP1 ISZERO PUSH2 0x6D5 JUMPI PUSH1 0x0 DUP1 REVERT JUMPDEST POP PUSH2 0x6F0 PUSH1 0x4 DUP1 CALLDATASIZE SUB DUP2 ADD SWAP1 PUSH2 0x6EB SWAP2 SWAP1 PUSH2 0x2097 JUMP JUMPDEST PUSH2 0x1384 JUMP JUMPDEST PUSH1 0x40 MLOAD PUSH2 0x6FD SWAP2 SWAP1 PUSH2 0x24B5 JUMP JUMPDEST PUSH1 0x40 MLOAD DUP1 SWAP2 SUB SWAP1 RETURN JUMPDEST CALLVALUE DUP1 ISZERO PUSH2 0x712 JUMPI PUSH1 0x0 DUP1 REVERT JUMPDEST POP PUSH2 0x72D PUSH1 0x4 DUP1 CALLDATASIZE SUB DUP2 ADD SWAP1 PUSH2 0x728 SWAP2 SWAP1 PUSH2 0x2097 JUMP JUMPDEST PUSH2 0x13A4 JUMP JUMPDEST STOP JUMPDEST PUSH1 0x60 PUSH1 0x40 MLOAD DUP1 PUSH1 0x40 ADD PUSH1 0x40 MSTORE DUP1 PUSH1 0xA DUP2 MSTORE PUSH1 0x20 ADD PUSH32 0x5375676172204261627900000000000000000000000000000000000000000000 DUP2 MSTORE POP SWAP1 POP SWAP1 JUMP JUMPDEST PUSH1 0x0 PUSH2 0x780 PUSH2 0x779 PUSH2 0x149C JUMP JUMPDEST DUP5 DUP5 PUSH2 0x14A4 JUMP JUMPDEST PUSH1 0x1 SWAP1 POP SWAP3 SWAP2 POP POP JUMP JUMPDEST PUSH32 0x0 DUP2 JUMP JUMPDEST PUSH1 0x0 PUSH1 0x3 SLOAD SWAP1 POP SWAP1 JUMP JUMPDEST PUSH1 0x0 PUSH2 0x7C5 DUP5 DUP5 DUP5 PUSH2 0x158F JUMP JUMPDEST PUSH1 0x0 PUSH1 0x2 PUSH1 0x0 DUP7 PUSH20 0xFFFFFFFFFFFFFFFFFFFFFFFFFFFFFFFFFFFFFFFF AND PUSH20 0xFFFFFFFFFFFFFFFFFFFFFFFFFFFFFFFFFFFFFFFF AND DUP2 MSTORE PUSH1 0x20 ADD SWAP1 DUP2 MSTORE PUSH1 0x20 ADD PUSH1 0x0 KECCAK256 PUSH1 0x0 PUSH2 0x810 PUSH2 0x149C JUMP JUMPDEST PUSH20 0xFFFFFFFFFFFFFFFFFFFFFFFFFFFFFFFFFFFFFFFF AND PUSH20 0xFFFFFFFFFFFFFFFFFFFFFFFFFFFFFFFFFFFFFFFF AND DUP2 MSTORE PUSH1 0x20 ADD SWAP1 DUP2 MSTORE PUSH1 0x20 ADD PUSH1 0x0 KECCAK256 SLOAD SWAP1 POP DUP3 DUP2 LT ISZERO PUSH2 0x890 JUMPI PUSH1 0x40 MLOAD PUSH32 0x8C379A000000000000000000000000000000000000000000000000000000000 DUP2 MSTORE PUSH1 0x4 ADD PUSH2 0x887 SWAP1 PUSH2 0x260D JUMP JUMPDEST PUSH1 0x40 MLOAD DUP1 SWAP2 SUB SWAP1 REVERT JUMPDEST PUSH2 0x8A4 DUP6 PUSH2 0x89C PUSH2 0x149C JUMP JUMPDEST DUP6 DUP5 SUB PUSH2 0x14A4 JUMP JUMPDEST PUSH1 0x1 SWAP2 POP POP SWAP4 SWAP3 POP POP POP JUMP JUMPDEST PUSH1 0x0 PUSH1 0x12 SWAP1 POP SWAP1 JUMP JUMPDEST PUSH1 0x0 PUSH2 0x95B PUSH2 0x8C6 PUSH2 0x149C JUMP JUMPDEST DUP5 DUP5 PUSH1 0x2 PUSH1 0x0 PUSH2 0x8D4 PUSH2 0x149C JUMP JUMPDEST PUSH20 0xFFFFFFFFFFFFFFFFFFFFFFFFFFFFFFFFFFFFFFFF AND PUSH20 0xFFFFFFFFFFFFFFFFFFFFFFFFFFFFFFFFFFFFFFFF AND DUP2 MSTORE PUSH1 0x20 ADD SWAP1 DUP2 MSTORE PUSH1 0x20 ADD PUSH1 0x0 KECCAK256 PUSH1 0x0 DUP9 PUSH20 0xFFFFFFFFFFFFFFFFFFFFFFFFFFFFFFFFFFFFFFFF AND PUSH20 0xFFFFFFFFFFFFFFFFFFFFFFFFFFFFFFFFFFFFFFFF AND DUP2 MSTORE PUSH1 0x20 ADD SWAP1 DUP2 MSTORE PUSH1 0x20 ADD PUSH1 0x0 KECCAK256 SLOAD PUSH2 0x956 SWAP2 SWAP1 PUSH2 0x2712 JUMP JUMPDEST PUSH2 0x14A4 JUMP JUMPDEST PUSH1 0x1 SWAP1 POP SWAP3 SWAP2 POP POP JUMP JUMPDEST PUSH2 0x976 PUSH2 0x970 PUSH2 0x149C JUMP JUMPDEST DUP3 PUSH2 0x1B95 JUMP JUMPDEST POP JUMP JUMPDEST PUSH1 0x7 PUSH1 0x0 SWAP1 SLOAD SWAP1 PUSH2 0x100 EXP SWAP1 DIV PUSH20 0xFFFFFFFFFFFFFFFFFFFFFFFFFFFFFFFFFFFFFFFF AND DUP2 JUMP JUMPDEST PUSH1 0x8 PUSH1 0x15 SWAP1 SLOAD SWAP1 PUSH2 0x100 EXP SWAP1 DIV PUSH1 0xFF AND DUP2 JUMP JUMPDEST PUSH1 0x9 PUSH1 0x20 MSTORE DUP1 PUSH1 0x0 MSTORE PUSH1 0x40 PUSH1 0x0 KECCAK256 PUSH1 0x0 SWAP2 POP SLOAD SWAP1 PUSH2 0x100 EXP SWAP1 DIV PUSH1 0xFF AND DUP2 JUMP JUMPDEST PUSH2 0x9DA PUSH2 0x149C JUMP JUMPDEST PUSH20 0xFFFFFFFFFFFFFFFFFFFFFFFFFFFFFFFFFFFFFFFF AND PUSH2 0x9F8 PUSH2 0xCEA JUMP JUMPDEST PUSH20 0xFFFFFFFFFFFFFFFFFFFFFFFFFFFFFFFFFFFFFFFF AND EQ PUSH2 0xA4E JUMPI PUSH1 0x40 MLOAD PUSH32 0x8C379A000000000000000000000000000000000000000000000000000000000 DUP2 MSTORE PUSH1 0x4 ADD PUSH2 0xA45 SWAP1 PUSH2 0x258D JUMP JUMPDEST PUSH1 0x40 MLOAD DUP1 SWAP2 SUB SWAP1 REVERT JUMPDEST PUSH1 0xA PUSH1 0x0 DUP3 PUSH20 0xFFFFFFFFFFFFFFFFFFFFFFFFFFFFFFFFFFFFFFFF AND PUSH20 0xFFFFFFFFFFFFFFFFFFFFFFFFFFFFFFFFFFFFFFFF AND DUP2 MSTORE PUSH1 0x20 ADD SWAP1 DUP2 MSTORE PUSH1 0x20 ADD PUSH1 0x0 KECCAK256 PUSH1 0x0 SWAP1 SLOAD SWAP1 PUSH2 0x100 EXP SWAP1 DIV PUSH1 0xFF AND ISZERO PUSH2 0xAFD JUMPI PUSH1 0x0 PUSH1 0xA PUSH1 0x0 DUP4 PUSH20 0xFFFFFFFFFFFFFFFFFFFFFFFFFFFFFFFFFFFFFFFF AND PUSH20 0xFFFFFFFFFFFFFFFFFFFFFFFFFFFFFFFFFFFFFFFF AND DUP2 MSTORE PUSH1 0x20 ADD SWAP1 DUP2 MSTORE PUSH1 0x20 ADD PUSH1 0x0 KECCAK256 PUSH1 0x0 PUSH2 0x100 EXP DUP2 SLOAD DUP2 PUSH1 0xFF MUL NOT AND SWAP1 DUP4 ISZERO ISZERO MUL OR SWAP1 SSTORE POP PUSH2 0xB56 JUMP JUMPDEST PUSH1 0x1 PUSH1 0xA PUSH1 0x0 DUP4 PUSH20 0xFFFFFFFFFFFFFFFFFFFFFFFFFFFFFFFFFFFFFFFF AND PUSH20 0xFFFFFFFFFFFFFFFFFFFFFFFFFFFFFFFFFFFFFFFF AND DUP2 MSTORE PUSH1 0x20 ADD SWAP1 DUP2 MSTORE PUSH1 0x20 ADD PUSH1 0x0 KECCAK256 PUSH1 0x0 PUSH2 0x100 EXP DUP2 SLOAD DUP2 PUSH1 0xFF MUL NOT AND SWAP1 DUP4 ISZERO ISZERO MUL OR SWAP1 SSTORE POP JUMPDEST POP JUMP JUMPDEST PUSH2 0xB61 PUSH2 0x149C JUMP JUMPDEST PUSH20 0xFFFFFFFFFFFFFFFFFFFFFFFFFFFFFFFFFFFFFFFF AND PUSH2 0xB7F PUSH2 0xCEA JUMP JUMPDEST PUSH20 0xFFFFFFFFFFFFFFFFFFFFFFFFFFFFFFFFFFFFFFFF AND EQ PUSH2 0xBD5 JUMPI PUSH1 0x40 MLOAD PUSH32 0x8C379A000000000000000000000000000000000000000000000000000000000 DUP2 MSTORE PUSH1 0x4 ADD PUSH2 0xBCC SWAP1 PUSH2 0x258D JUMP JUMPDEST PUSH1 0x40 MLOAD DUP1 SWAP2 SUB SWAP1 REVERT JUMPDEST DUP1 PUSH1 0x6 PUSH1 0x0 PUSH2 0x100 EXP DUP2 SLOAD DUP2 PUSH20 0xFFFFFFFFFFFFFFFFFFFFFFFFFFFFFFFFFFFFFFFF MUL NOT AND SWAP1 DUP4 PUSH20 0xFFFFFFFFFFFFFFFFFFFFFFFFFFFFFFFFFFFFFFFF AND MUL OR SWAP1 SSTORE POP POP JUMP JUMPDEST PUSH1 0x0 PUSH1 0x1 PUSH1 0x0 DUP4 PUSH20 0xFFFFFFFFFFFFFFFFFFFFFFFFFFFFFFFFFFFFFFFF AND PUSH20 0xFFFFFFFFFFFFFFFFFFFFFFFFFFFFFFFFFFFFFFFF AND DUP2 MSTORE PUSH1 0x20 ADD SWAP1 DUP2 MSTORE PUSH1 0x20 ADD PUSH1 0x0 KECCAK256 SLOAD SWAP1 POP SWAP2 SWAP1 POP JUMP JUMPDEST PUSH2 0xC6A PUSH2 0x149C JUMP JUMPDEST PUSH20 0xFFFFFFFFFFFFFFFFFFFFFFFFFFFFFFFFFFFFFFFF AND PUSH2 0xC88 PUSH2 0xCEA JUMP JUMPDEST PUSH20 0xFFFFFFFFFFFFFFFFFFFFFFFFFFFFFFFFFFFFFFFF AND EQ PUSH2 0xCDE JUMPI PUSH1 0x40 MLOAD PUSH32 0x8C379A000000000000000000000000000000000000000000000000000000000 DUP2 MSTORE PUSH1 0x4 ADD PUSH2 0xCD5 SWAP1 PUSH2 0x258D JUMP JUMPDEST PUSH1 0x40 MLOAD DUP1 SWAP2 SUB SWAP1 REVERT JUMPDEST PUSH2 0xCE8 PUSH1 0x0 PUSH2 0x1D56 JUMP JUMPDEST JUMP JUMPDEST PUSH1 0x0 DUP1 PUSH1 0x0 SWAP1 SLOAD SWAP1 PUSH2 0x100 EXP SWAP1 DIV PUSH20 0xFFFFFFFFFFFFFFFFFFFFFFFFFFFFFFFFFFFFFFFF AND SWAP1 POP SWAP1 JUMP JUMPDEST PUSH1 0x6 PUSH1 0x0 SWAP1 SLOAD SWAP1 PUSH2 0x100 EXP SWAP1 DIV PUSH20 0xFFFFFFFFFFFFFFFFFFFFFFFFFFFFFFFFFFFFFFFF AND DUP2 JUMP JUMPDEST PUSH1 0x60 PUSH1 0x40 MLOAD DUP1 PUSH1 0x40 ADD PUSH1 0x40 MSTORE DUP1 PUSH1 0x4 DUP2 MSTORE PUSH1 0x20 ADD PUSH32 0x4241425900000000000000000000000000000000000000000000000000000000 DUP2 MSTORE POP SWAP1 POP SWAP1 JUMP JUMPDEST PUSH1 0x8 PUSH1 0x0 SWAP1 SLOAD SWAP1 PUSH2 0x100 EXP SWAP1 DIV PUSH20 0xFFFFFFFFFFFFFFFFFFFFFFFFFFFFFFFFFFFFFFFF AND DUP2 JUMP JUMPDEST PUSH1 0x0 DUP1 PUSH1 0x2 PUSH1 0x0 PUSH2 0xDAB PUSH2 0x149C JUMP JUMPDEST PUSH20 0xFFFFFFFFFFFFFFFFFFFFFFFFFFFFFFFFFFFFFFFF AND PUSH20 0xFFFFFFFFFFFFFFFFFFFFFFFFFFFFFFFFFFFFFFFF AND DUP2 MSTORE PUSH1 0x20 ADD SWAP1 DUP2 MSTORE PUSH1 0x20 ADD PUSH1 0x0 KECCAK256 PUSH1 0x0 DUP6 PUSH20 0xFFFFFFFFFFFFFFFFFFFFFFFFFFFFFFFFFFFFFFFF AND PUSH20 0xFFFFFFFFFFFFFFFFFFFFFFFFFFFFFFFFFFFFFFFF AND DUP2 MSTORE PUSH1 0x20 ADD SWAP1 DUP2 MSTORE PUSH1 0x20 ADD PUSH1 0x0 KECCAK256 SLOAD SWAP1 POP DUP3 DUP2 LT ISZERO PUSH2 0xE68 JUMPI PUSH1 0x40 MLOAD PUSH32 0x8C379A000000000000000000000000000000000000000000000000000000000 DUP2 MSTORE PUSH1 0x4 ADD PUSH2 0xE5F SWAP1 PUSH2 0x25ED JUMP JUMPDEST PUSH1 0x40 MLOAD DUP1 SWAP2 SUB SWAP1 REVERT JUMPDEST PUSH2 0xE7C PUSH2 0xE73 PUSH2 0x149C JUMP JUMPDEST DUP6 DUP6 DUP5 SUB PUSH2 0x14A4 JUMP JUMPDEST PUSH1 0x1 SWAP2 POP POP SWAP3 SWAP2 POP POP JUMP JUMPDEST PUSH2 0xE8F PUSH2 0x149C JUMP JUMPDEST PUSH20 0xFFFFFFFFFFFFFFFFFFFFFFFFFFFFFFFFFFFFFFFF AND PUSH2 0xEAD PUSH2 0xCEA JUMP JUMPDEST PUSH20 0xFFFFFFFFFFFFFFFFFFFFFFFFFFFFFFFFFFFFFFFF AND EQ PUSH2 0xF03 JUMPI PUSH1 0x40 MLOAD PUSH32 0x8C379A000000000000000000000000000000000000000000000000000000000 DUP2 MSTORE PUSH1 0x4 ADD PUSH2 0xEFA SWAP1 PUSH2 0x258D JUMP JUMPDEST PUSH1 0x40 MLOAD DUP1 SWAP2 SUB SWAP1 REVERT JUMPDEST DUP2 PUSH20 0xFFFFFFFFFFFFFFFFFFFFFFFFFFFFFFFFFFFFFFFF AND PUSH4 0xA9059CBB CALLER DUP4 PUSH1 0x40 MLOAD DUP4 PUSH4 0xFFFFFFFF AND PUSH1 0xE0 SHL DUP2 MSTORE PUSH1 0x4 ADD PUSH2 0xF3E SWAP3 SWAP2 SWAP1 PUSH2 0x248C JUMP JUMPDEST PUSH1 0x20 PUSH1 0x40 MLOAD DUP1 DUP4 SUB DUP2 PUSH1 0x0 DUP8 DUP1 EXTCODESIZE ISZERO DUP1 ISZERO PUSH2 0xF58 JUMPI PUSH1 0x0 DUP1 REVERT JUMPDEST POP GAS CALL ISZERO DUP1 ISZERO PUSH2 0xF6C JUMPI RETURNDATASIZE PUSH1 0x0 DUP1 RETURNDATACOPY RETURNDATASIZE PUSH1 0x0 REVERT JUMPDEST POP POP POP POP PUSH1 0x40 MLOAD RETURNDATASIZE PUSH1 0x1F NOT PUSH1 0x1F DUP3 ADD AND DUP3 ADD DUP1 PUSH1 0x40 MSTORE POP DUP2 ADD SWAP1 PUSH2 0xF90 SWAP2 SWAP1 PUSH2 0x21C4 JUMP JUMPDEST POP POP POP JUMP JUMPDEST PUSH2 0xF9D PUSH2 0x149C JUMP JUMPDEST PUSH20 0xFFFFFFFFFFFFFFFFFFFFFFFFFFFFFFFFFFFFFFFF AND PUSH2 0xFBB PUSH2 0xCEA JUMP JUMPDEST PUSH20 0xFFFFFFFFFFFFFFFFFFFFFFFFFFFFFFFFFFFFFFFF AND EQ PUSH2 0x1011 JUMPI PUSH1 0x40 MLOAD PUSH32 0x8C379A000000000000000000000000000000000000000000000000000000000 DUP2 MSTORE PUSH1 0x4 ADD PUSH2 0x1008 SWAP1 PUSH2 0x258D JUMP JUMPDEST PUSH1 0x40 MLOAD DUP1 SWAP2 SUB SWAP1 REVERT JUMPDEST PUSH1 0x1 ISZERO ISZERO PUSH1 0x9 PUSH1 0x0 DUP4 PUSH20 0xFFFFFFFFFFFFFFFFFFFFFFFFFFFFFFFFFFFFFFFF AND PUSH20 0xFFFFFFFFFFFFFFFFFFFFFFFFFFFFFFFFFFFFFFFF AND DUP2 MSTORE PUSH1 0x20 ADD SWAP1 DUP2 MSTORE PUSH1 0x20 ADD PUSH1 0x0 KECCAK256 PUSH1 0x0 SWAP1 SLOAD SWAP1 PUSH2 0x100 EXP SWAP1 DIV PUSH1 0xFF AND ISZERO ISZERO EQ ISZERO PUSH2 0x10C7 JUMPI PUSH1 0x0 PUSH1 0x9 PUSH1 0x0 DUP4 PUSH20 0xFFFFFFFFFFFFFFFFFFFFFFFFFFFFFFFFFFFFFFFF AND PUSH20 0xFFFFFFFFFFFFFFFFFFFFFFFFFFFFFFFFFFFFFFFF AND DUP2 MSTORE PUSH1 0x20 ADD SWAP1 DUP2 MSTORE PUSH1 0x20 ADD PUSH1 0x0 KECCAK256 PUSH1 0x0 PUSH2 0x100 EXP DUP2 SLOAD DUP2 PUSH1 0xFF MUL NOT AND SWAP1 DUP4 ISZERO ISZERO MUL OR SWAP1 SSTORE POP PUSH2 0x1120 JUMP JUMPDEST PUSH1 0x1 PUSH1 0x9 PUSH1 0x0 DUP4 PUSH20 0xFFFFFFFFFFFFFFFFFFFFFFFFFFFFFFFFFFFFFFFF AND PUSH20 0xFFFFFFFFFFFFFFFFFFFFFFFFFFFFFFFFFFFFFFFF AND DUP2 MSTORE PUSH1 0x20 ADD SWAP1 DUP2 MSTORE PUSH1 0x20 ADD PUSH1 0x0 KECCAK256 PUSH1 0x0 PUSH2 0x100 EXP DUP2 SLOAD DUP2 PUSH1 0xFF MUL NOT AND SWAP1 DUP4 ISZERO ISZERO MUL OR SWAP1 SSTORE POP JUMPDEST POP JUMP JUMPDEST PUSH1 0x0 PUSH2 0x1137 PUSH2 0x1130 PUSH2 0x149C JUMP JUMPDEST DUP5 DUP5 PUSH2 0x158F JUMP JUMPDEST PUSH1 0x1 SWAP1 POP SWAP3 SWAP2 POP POP JUMP JUMPDEST PUSH2 0x1149 PUSH2 0x149C JUMP JUMPDEST PUSH20 0xFFFFFFFFFFFFFFFFFFFFFFFFFFFFFFFFFFFFFFFF AND PUSH2 0x1167 PUSH2 0xCEA JUMP JUMPDEST PUSH20 0xFFFFFFFFFFFFFFFFFFFFFFFFFFFFFFFFFFFFFFFF AND EQ PUSH2 0x11BD JUMPI PUSH1 0x40 MLOAD PUSH32 0x8C379A000000000000000000000000000000000000000000000000000000000 DUP2 MSTORE PUSH1 0x4 ADD PUSH2 0x11B4 SWAP1 PUSH2 0x258D JUMP JUMPDEST PUSH1 0x40 MLOAD DUP1 SWAP2 SUB SWAP1 REVERT JUMPDEST DUP1 PUSH1 0x8 PUSH1 0x15 PUSH2 0x100 EXP DUP2 SLOAD DUP2 PUSH1 0xFF MUL NOT AND SWAP1 DUP4 ISZERO ISZERO MUL OR SWAP1 SSTORE POP PUSH32 0x53726DFCAF90650AA7EB35524F4D3220F07413C8D6CB404CC8C18BF5591BC159 DUP2 PUSH1 0x40 MLOAD PUSH2 0x1206 SWAP2 SWAP1 PUSH2 0x24B5 JUMP JUMPDEST PUSH1 0x40 MLOAD DUP1 SWAP2 SUB SWAP1 LOG1 POP JUMP JUMPDEST PUSH2 0x1219 PUSH2 0x149C JUMP JUMPDEST PUSH20 0xFFFFFFFFFFFFFFFFFFFFFFFFFFFFFFFFFFFFFFFF AND PUSH2 0x1237 PUSH2 0xCEA JUMP JUMPDEST PUSH20 0xFFFFFFFFFFFFFFFFFFFFFFFFFFFFFFFFFFFFFFFF AND EQ PUSH2 0x128D JUMPI PUSH1 0x40 MLOAD PUSH32 0x8C379A000000000000000000000000000000000000000000000000000000000 DUP2 MSTORE PUSH1 0x4 ADD PUSH2 0x1284 SWAP1 PUSH2 0x258D JUMP JUMPDEST PUSH1 0x40 MLOAD DUP1 SWAP2 SUB SWAP1 REVERT JUMPDEST PUSH2 0x1295 PUSH2 0xCEA JUMP JUMPDEST PUSH20 0xFFFFFFFFFFFFFFFFFFFFFFFFFFFFFFFFFFFFFFFF AND PUSH2 0x8FC SELFBALANCE SWAP1 DUP2 ISZERO MUL SWAP1 PUSH1 0x40 MLOAD PUSH1 0x0 PUSH1 0x40 MLOAD DUP1 DUP4 SUB DUP2 DUP6 DUP9 DUP9 CALL SWAP4 POP POP POP POP ISZERO DUP1 ISZERO PUSH2 0x12DA JUMPI RETURNDATASIZE PUSH1 0x0 DUP1 RETURNDATACOPY RETURNDATASIZE PUSH1 0x0 REVERT JUMPDEST POP JUMP JUMPDEST PUSH1 0x0 PUSH1 0x2 PUSH1 0x0 DUP5 PUSH20 0xFFFFFFFFFFFFFFFFFFFFFFFFFFFFFFFFFFFFFFFF AND PUSH20 0xFFFFFFFFFFFFFFFFFFFFFFFFFFFFFFFFFFFFFFFF AND DUP2 MSTORE PUSH1 0x20 ADD SWAP1 DUP2 MSTORE PUSH1 0x20 ADD PUSH1 0x0 KECCAK256 PUSH1 0x0 DUP4 PUSH20 0xFFFFFFFFFFFFFFFFFFFFFFFFFFFFFFFFFFFFFFFF AND PUSH20 0xFFFFFFFFFFFFFFFFFFFFFFFFFFFFFFFFFFFFFFFF AND DUP2 MSTORE PUSH1 0x20 ADD SWAP1 DUP2 MSTORE PUSH1 0x20 ADD PUSH1 0x0 KECCAK256 SLOAD SWAP1 POP SWAP3 SWAP2 POP POP JUMP JUMPDEST PUSH1 0xA PUSH1 0x20 MSTORE DUP1 PUSH1 0x0 MSTORE PUSH1 0x40 PUSH1 0x0 KECCAK256 PUSH1 0x0 SWAP2 POP SLOAD SWAP1 PUSH2 0x100 EXP SWAP1 DIV PUSH1 0xFF AND DUP2 JUMP JUMPDEST PUSH1 0xB PUSH1 0x20 MSTORE DUP1 PUSH1 0x0 MSTORE PUSH1 0x40 PUSH1 0x0 KECCAK256 PUSH1 0x0 SWAP2 POP SLOAD SWAP1 PUSH2 0x100 EXP SWAP1 DIV PUSH1 0xFF AND DUP2 JUMP JUMPDEST PUSH2 0x13AC PUSH2 0x149C JUMP JUMPDEST PUSH20 0xFFFFFFFFFFFFFFFFFFFFFFFFFFFFFFFFFFFFFFFF AND PUSH2 0x13CA PUSH2 0xCEA JUMP JUMPDEST PUSH20 0xFFFFFFFFFFFFFFFFFFFFFFFFFFFFFFFFFFFFFFFF AND EQ PUSH2 0x1420 JUMPI PUSH1 0x40 MLOAD PUSH32 0x8C379A000000000000000000000000000000000000000000000000000000000 DUP2 MSTORE PUSH1 0x4 ADD PUSH2 0x1417 SWAP1 PUSH2 0x258D JUMP JUMPDEST PUSH1 0x40 MLOAD DUP1 SWAP2 SUB SWAP1 REVERT JUMPDEST PUSH1 0x0 PUSH20 0xFFFFFFFFFFFFFFFFFFFFFFFFFFFFFFFFFFFFFFFF AND DUP2 PUSH20 0xFFFFFFFFFFFFFFFFFFFFFFFFFFFFFFFFFFFFFFFF AND EQ ISZERO PUSH2 0x1490 JUMPI PUSH1 0x40 MLOAD PUSH32 0x8C379A000000000000000000000000000000000000000000000000000000000 DUP2 MSTORE PUSH1 0x4 ADD PUSH2 0x1487 SWAP1 PUSH2 0x254D JUMP JUMPDEST PUSH1 0x40 MLOAD DUP1 SWAP2 SUB SWAP1 REVERT JUMPDEST PUSH2 0x1499 DUP2 PUSH2 0x1D56 JUMP JUMPDEST POP JUMP JUMPDEST PUSH1 0x0 CALLER SWAP1 POP SWAP1 JUMP JUMPDEST DUP1 PUSH1 0x2 PUSH1 0x0 DUP6 PUSH20 0xFFFFFFFFFFFFFFFFFFFFFFFFFFFFFFFFFFFFFFFF AND PUSH20 0xFFFFFFFFFFFFFFFFFFFFFFFFFFFFFFFFFFFFFFFF AND DUP2 MSTORE PUSH1 0x20 ADD SWAP1 DUP2 MSTORE PUSH1 0x20 ADD PUSH1 0x0 KECCAK256 PUSH1 0x0 DUP5 PUSH20 0xFFFFFFFFFFFFFFFFFFFFFFFFFFFFFFFFFFFFFFFF AND PUSH20 0xFFFFFFFFFFFFFFFFFFFFFFFFFFFFFFFFFFFFFFFF AND DUP2 MSTORE PUSH1 0x20 ADD SWAP1 DUP2 MSTORE PUSH1 0x20 ADD PUSH1 0x0 KECCAK256 DUP2 SWAP1 SSTORE POP DUP2 PUSH20 0xFFFFFFFFFFFFFFFFFFFFFFFFFFFFFFFFFFFFFFFF AND DUP4 PUSH20 0xFFFFFFFFFFFFFFFFFFFFFFFFFFFFFFFFFFFFFFFF AND PUSH32 0x8C5BE1E5EBEC7D5BD14F71427D1E84F3DD0314C0F7B2291E5B200AC8C7C3B925 DUP4 PUSH1 0x40 MLOAD PUSH2 0x1582 SWAP2 SWAP1 PUSH2 0x262D JUMP JUMPDEST PUSH1 0x40 MLOAD DUP1 SWAP2 SUB SWAP1 LOG3 POP POP POP JUMP JUMPDEST PUSH1 0x0 PUSH20 0xFFFFFFFFFFFFFFFFFFFFFFFFFFFFFFFFFFFFFFFF AND DUP4 PUSH20 0xFFFFFFFFFFFFFFFFFFFFFFFFFFFFFFFFFFFFFFFF AND EQ ISZERO PUSH2 0x15FF JUMPI PUSH1 0x40 MLOAD PUSH32 0x8C379A000000000000000000000000000000000000000000000000000000000 DUP2 MSTORE PUSH1 0x4 ADD PUSH2 0x15F6 SWAP1 PUSH2 0x25CD JUMP JUMPDEST PUSH1 0x40 MLOAD DUP1 SWAP2 SUB SWAP1 REVERT JUMPDEST PUSH1 0x0 PUSH20 0xFFFFFFFFFFFFFFFFFFFFFFFFFFFFFFFFFFFFFFFF AND DUP3 PUSH20 0xFFFFFFFFFFFFFFFFFFFFFFFFFFFFFFFFFFFFFFFF AND EQ ISZERO PUSH2 0x166F JUMPI PUSH1 0x40 MLOAD PUSH32 0x8C379A000000000000000000000000000000000000000000000000000000000 DUP2 MSTORE PUSH1 0x4 ADD PUSH2 0x1666 SWAP1 PUSH2 0x250D JUMP JUMPDEST PUSH1 0x40 MLOAD DUP1 SWAP2 SUB SWAP1 REVERT JUMPDEST PUSH1 0x0 PUSH1 0x1 PUSH1 0x0 DUP6 PUSH20 0xFFFFFFFFFFFFFFFFFFFFFFFFFFFFFFFFFFFFFFFF AND PUSH20 0xFFFFFFFFFFFFFFFFFFFFFFFFFFFFFFFFFFFFFFFF AND DUP2 MSTORE PUSH1 0x20 ADD SWAP1 DUP2 MSTORE PUSH1 0x20 ADD PUSH1 0x0 KECCAK256 SLOAD SWAP1 POP DUP2 DUP2 LT ISZERO PUSH2 0x16F6 JUMPI PUSH1 0x40 MLOAD PUSH32 0x8C379A000000000000000000000000000000000000000000000000000000000 DUP2 MSTORE PUSH1 0x4 ADD PUSH2 0x16ED SWAP1 PUSH2 0x256D JUMP JUMPDEST PUSH1 0x40 MLOAD DUP1 SWAP2 SUB SWAP1 REVERT JUMPDEST PUSH1 0x0 DUP3 SWAP1 POP PUSH1 0xA PUSH1 0x0 DUP7 PUSH20 0xFFFFFFFFFFFFFFFFFFFFFFFFFFFFFFFFFFFFFFFF AND PUSH20 0xFFFFFFFFFFFFFFFFFFFFFFFFFFFFFFFFFFFFFFFF AND DUP2 MSTORE PUSH1 0x20 ADD SWAP1 DUP2 MSTORE PUSH1 0x20 ADD PUSH1 0x0 KECCAK256 PUSH1 0x0 SWAP1 SLOAD SWAP1 PUSH2 0x100 EXP SWAP1 DIV PUSH1 0xFF AND DUP1 ISZERO PUSH2 0x17A0 JUMPI POP PUSH32 0x0 PUSH20 0xFFFFFFFFFFFFFFFFFFFFFFFFFFFFFFFFFFFFFFFF AND DUP5 PUSH20 0xFFFFFFFFFFFFFFFFFFFFFFFFFFFFFFFFFFFFFFFF AND EQ ISZERO JUMPDEST DUP1 PUSH2 0x17F4 JUMPI POP PUSH1 0xA PUSH1 0x0 DUP6 PUSH20 0xFFFFFFFFFFFFFFFFFFFFFFFFFFFFFFFFFFFFFFFF AND PUSH20 0xFFFFFFFFFFFFFFFFFFFFFFFFFFFFFFFFFFFFFFFF AND DUP2 MSTORE PUSH1 0x20 ADD SWAP1 DUP2 MSTORE PUSH1 0x20 ADD PUSH1 0x0 KECCAK256 PUSH1 0x0 SWAP1 SLOAD SWAP1 PUSH2 0x100 EXP SWAP1 DIV PUSH1 0xFF AND JUMPDEST DUP1 ISZERO PUSH2 0x180D JUMPI POP PUSH1 0x8 PUSH1 0x14 SWAP1 SLOAD SWAP1 PUSH2 0x100 EXP SWAP1 DIV PUSH1 0xFF AND ISZERO JUMPDEST DUP1 ISZERO PUSH2 0x1825 JUMPI POP PUSH1 0x8 PUSH1 0x15 SWAP1 SLOAD SWAP1 PUSH2 0x100 EXP SWAP1 DIV PUSH1 0xFF AND JUMPDEST DUP1 ISZERO PUSH2 0x187B JUMPI POP PUSH1 0x9 PUSH1 0x0 DUP7 PUSH20 0xFFFFFFFFFFFFFFFFFFFFFFFFFFFFFFFFFFFFFFFF AND PUSH20 0xFFFFFFFFFFFFFFFFFFFFFFFFFFFFFFFFFFFFFFFF AND DUP2 MSTORE PUSH1 0x20 ADD SWAP1 DUP2 MSTORE PUSH1 0x20 ADD PUSH1 0x0 KECCAK256 PUSH1 0x0 SWAP1 SLOAD SWAP1 PUSH2 0x100 EXP SWAP1 DIV PUSH1 0xFF AND ISZERO JUMPDEST DUP1 ISZERO PUSH2 0x18D1 JUMPI POP PUSH1 0x9 PUSH1 0x0 DUP6 PUSH20 0xFFFFFFFFFFFFFFFFFFFFFFFFFFFFFFFFFFFFFFFF AND PUSH20 0xFFFFFFFFFFFFFFFFFFFFFFFFFFFFFFFFFFFFFFFF AND DUP2 MSTORE PUSH1 0x20 ADD SWAP1 DUP2 MSTORE PUSH1 0x20 ADD PUSH1 0x0 KECCAK256 PUSH1 0x0 SWAP1 SLOAD SWAP1 PUSH2 0x100 EXP SWAP1 DIV PUSH1 0xFF AND ISZERO JUMPDEST ISZERO PUSH2 0x1A8D JUMPI PUSH2 0x3E8 PUSH1 0xF DUP5 PUSH2 0x18E6 SWAP2 SWAP1 PUSH2 0x2799 JUMP JUMPDEST PUSH2 0x18F0 SWAP2 SWAP1 PUSH2 0x2768 JUMP JUMPDEST PUSH1 0x1 PUSH1 0x0 ADDRESS PUSH20 0xFFFFFFFFFFFFFFFFFFFFFFFFFFFFFFFFFFFFFFFF AND PUSH20 0xFFFFFFFFFFFFFFFFFFFFFFFFFFFFFFFFFFFFFFFF AND DUP2 MSTORE PUSH1 0x20 ADD SWAP1 DUP2 MSTORE PUSH1 0x20 ADD PUSH1 0x0 KECCAK256 PUSH1 0x0 DUP3 DUP3 SLOAD PUSH2 0x193E SWAP2 SWAP1 PUSH2 0x2712 JUMP JUMPDEST SWAP3 POP POP DUP2 SWAP1 SSTORE POP ADDRESS PUSH20 0xFFFFFFFFFFFFFFFFFFFFFFFFFFFFFFFFFFFFFFFF AND DUP6 PUSH20 0xFFFFFFFFFFFFFFFFFFFFFFFFFFFFFFFFFFFFFFFF AND PUSH32 0xDDF252AD1BE2C89B69C2B068FC378DAA952BA7F163C4A11628F55A4DF523B3EF PUSH2 0x3E8 PUSH1 0xF DUP8 PUSH2 0x19A4 SWAP2 SWAP1 PUSH2 0x2799 JUMP JUMPDEST PUSH2 0x19AE SWAP2 SWAP1 PUSH2 0x2768 JUMP JUMPDEST PUSH1 0x40 MLOAD PUSH2 0x19BB SWAP2 SWAP1 PUSH2 0x262D JUMP JUMPDEST PUSH1 0x40 MLOAD DUP1 SWAP2 SUB SWAP1 LOG3 PUSH1 0x0 PUSH2 0x19CE ADDRESS PUSH2 0xC19 JUMP JUMPDEST SWAP1 POP PUSH1 0x3 SLOAD DUP2 LT PUSH2 0x19DF JUMPI PUSH1 0x3 SLOAD SWAP1 POP JUMPDEST PUSH1 0x0 PUSH8 0xDE0B6B3A7640000 DUP3 LT ISZERO SWAP1 POP DUP1 DUP1 ISZERO PUSH2 0x1A46 JUMPI POP PUSH1 0xA PUSH1 0x0 DUP9 PUSH20 0xFFFFFFFFFFFFFFFFFFFFFFFFFFFFFFFFFFFFFFFF AND PUSH20 0xFFFFFFFFFFFFFFFFFFFFFFFFFFFFFFFFFFFFFFFF AND DUP2 MSTORE PUSH1 0x20 ADD SWAP1 DUP2 MSTORE PUSH1 0x20 ADD PUSH1 0x0 KECCAK256 PUSH1 0x0 SWAP1 SLOAD SWAP1 PUSH2 0x100 EXP SWAP1 DIV PUSH1 0xFF AND ISZERO JUMPDEST DUP1 ISZERO PUSH2 0x1A5E JUMPI POP PUSH1 0x8 PUSH1 0x15 SWAP1 SLOAD SWAP1 PUSH2 0x100 EXP SWAP1 DIV PUSH1 0xFF AND JUMPDEST ISZERO PUSH2 0x1A6D JUMPI PUSH2 0x1A6C DUP3 PUSH2 0x1E1A JUMP JUMPDEST JUMPDEST PUSH2 0x3E8 PUSH2 0x3D9 DUP7 PUSH2 0x1A7E SWAP2 SWAP1 PUSH2 0x2799 JUMP JUMPDEST PUSH2 0x1A88 SWAP2 SWAP1 PUSH2 0x2768 JUMP JUMPDEST SWAP3 POP POP POP JUMPDEST DUP3 DUP3 SUB PUSH1 0x1 PUSH1 0x0 DUP8 PUSH20 0xFFFFFFFFFFFFFFFFFFFFFFFFFFFFFFFFFFFFFFFF AND PUSH20 0xFFFFFFFFFFFFFFFFFFFFFFFFFFFFFFFFFFFFFFFF AND DUP2 MSTORE PUSH1 0x20 ADD SWAP1 DUP2 MSTORE PUSH1 0x20 ADD PUSH1 0x0 KECCAK256 DUP2 SWAP1 SSTORE POP DUP1 PUSH1 0x1 PUSH1 0x0 DUP7 PUSH20 0xFFFFFFFFFFFFFFFFFFFFFFFFFFFFFFFFFFFFFFFF AND PUSH20 0xFFFFFFFFFFFFFFFFFFFFFFFFFFFFFFFFFFFFFFFF AND DUP2 MSTORE PUSH1 0x20 ADD SWAP1 DUP2 MSTORE PUSH1 0x20 ADD PUSH1 0x0 KECCAK256 PUSH1 0x0 DUP3 DUP3 SLOAD PUSH2 0x1B22 SWAP2 SWAP1 PUSH2 0x2712 JUMP JUMPDEST SWAP3 POP POP DUP2 SWAP1 SSTORE POP DUP4 PUSH20 0xFFFFFFFFFFFFFFFFFFFFFFFFFFFFFFFFFFFFFFFF AND DUP6 PUSH20 0xFFFFFFFFFFFFFFFFFFFFFFFFFFFFFFFFFFFFFFFF AND PUSH32 0xDDF252AD1BE2C89B69C2B068FC378DAA952BA7F163C4A11628F55A4DF523B3EF DUP4 PUSH1 0x40 MLOAD PUSH2 0x1B86 SWAP2 SWAP1 PUSH2 0x262D JUMP JUMPDEST PUSH1 0x40 MLOAD DUP1 SWAP2 SUB SWAP1 LOG3 POP POP POP POP POP JUMP JUMPDEST PUSH1 0x0 PUSH20 0xFFFFFFFFFFFFFFFFFFFFFFFFFFFFFFFFFFFFFFFF AND DUP3 PUSH20 0xFFFFFFFFFFFFFFFFFFFFFFFFFFFFFFFFFFFFFFFF AND EQ ISZERO PUSH2 0x1C05 JUMPI PUSH1 0x40 MLOAD PUSH32 0x8C379A000000000000000000000000000000000000000000000000000000000 DUP2 MSTORE PUSH1 0x4 ADD PUSH2 0x1BFC SWAP1 PUSH2 0x252D JUMP JUMPDEST PUSH1 0x40 MLOAD DUP1 SWAP2 SUB SWAP1 REVERT JUMPDEST PUSH1 0x0 PUSH1 0x1 PUSH1 0x0 DUP5 PUSH20 0xFFFFFFFFFFFFFFFFFFFFFFFFFFFFFFFFFFFFFFFF AND PUSH20 0xFFFFFFFFFFFFFFFFFFFFFFFFFFFFFFFFFFFFFFFF AND DUP2 MSTORE PUSH1 0x20 ADD SWAP1 DUP2 MSTORE PUSH1 0x20 ADD PUSH1 0x0 KECCAK256 SLOAD SWAP1 POP DUP2 DUP2 LT ISZERO PUSH2 0x1C8C JUMPI PUSH1 0x40 MLOAD PUSH32 0x8C379A000000000000000000000000000000000000000000000000000000000 DUP2 MSTORE PUSH1 0x4 ADD PUSH2 0x1C83 SWAP1 PUSH2 0x25AD JUMP JUMPDEST PUSH1 0x40 MLOAD DUP1 SWAP2 SUB SWAP1 REVERT JUMPDEST DUP2 DUP2 SUB PUSH1 0x1 PUSH1 0x0 DUP6 PUSH20 0xFFFFFFFFFFFFFFFFFFFFFFFFFFFFFFFFFFFFFFFF AND PUSH20 0xFFFFFFFFFFFFFFFFFFFFFFFFFFFFFFFFFFFFFFFF AND DUP2 MSTORE PUSH1 0x20 ADD SWAP1 DUP2 MSTORE PUSH1 0x20 ADD PUSH1 0x0 KECCAK256 DUP2 SWAP1 SSTORE POP DUP2 PUSH1 0x3 PUSH1 0x0 DUP3 DUP3 SLOAD PUSH2 0x1CE4 SWAP2 SWAP1 PUSH2 0x27F3 JUMP JUMPDEST SWAP3 POP POP DUP2 SWAP1 SSTORE POP PUSH1 0x0 PUSH20 0xFFFFFFFFFFFFFFFFFFFFFFFFFFFFFFFFFFFFFFFF AND DUP4 PUSH20 0xFFFFFFFFFFFFFFFFFFFFFFFFFFFFFFFFFFFFFFFF AND PUSH32 0xDDF252AD1BE2C89B69C2B068FC378DAA952BA7F163C4A11628F55A4DF523B3EF DUP5 PUSH1 0x40 MLOAD PUSH2 0x1D49 SWAP2 SWAP1 PUSH2 0x262D JUMP JUMPDEST PUSH1 0x40 MLOAD DUP1 SWAP2 SUB SWAP1 LOG3 POP POP POP JUMP JUMPDEST PUSH1 0x0 DUP1 PUSH1 0x0 SWAP1 SLOAD SWAP1 PUSH2 0x100 EXP SWAP1 DIV PUSH20 0xFFFFFFFFFFFFFFFFFFFFFFFFFFFFFFFFFFFFFFFF AND SWAP1 POP DUP2 PUSH1 0x0 DUP1 PUSH2 0x100 EXP DUP2 SLOAD DUP2 PUSH20 0xFFFFFFFFFFFFFFFFFFFFFFFFFFFFFFFFFFFFFFFF MUL NOT AND SWAP1 DUP4 PUSH20 0xFFFFFFFFFFFFFFFFFFFFFFFFFFFFFFFFFFFFFFFF AND MUL OR SWAP1 SSTORE POP DUP2 PUSH20 0xFFFFFFFFFFFFFFFFFFFFFFFFFFFFFFFFFFFFFFFF AND DUP2 PUSH20 0xFFFFFFFFFFFFFFFFFFFFFFFFFFFFFFFFFFFFFFFF AND PUSH32 0x8BE0079C531659141344CD1FD0A4F28419497F9722A3DAAFE3B4186F6B6457E0 PUSH1 0x40 MLOAD PUSH1 0x40 MLOAD DUP1 SWAP2 SUB SWAP1 LOG3 POP POP JUMP JUMPDEST PUSH1 0x1 PUSH1 0x8 PUSH1 0x14 PUSH2 0x100 EXP DUP2 SLOAD DUP2 PUSH1 0xFF MUL NOT AND SWAP1 DUP4 ISZERO ISZERO MUL OR SWAP1 SSTORE POP PUSH1 0x0 PUSH1 0x2 PUSH8 0xFFFFFFFFFFFFFFFF DUP2 GT ISZERO PUSH2 0x1E52 JUMPI PUSH2 0x1E51 PUSH2 0x2984 JUMP JUMPDEST JUMPDEST PUSH1 0x40 MLOAD SWAP1 DUP1 DUP3 MSTORE DUP1 PUSH1 0x20 MUL PUSH1 0x20 ADD DUP3 ADD PUSH1 0x40 MSTORE DUP1 ISZERO PUSH2 0x1E80 JUMPI DUP2 PUSH1 0x20 ADD PUSH1 0x20 DUP3 MUL DUP1 CALLDATASIZE DUP4 CALLDATACOPY DUP1 DUP3 ADD SWAP2 POP POP SWAP1 POP JUMPDEST POP SWAP1 POP ADDRESS DUP2 PUSH1 0x0 DUP2 MLOAD DUP2 LT PUSH2 0x1E98 JUMPI PUSH2 0x1E97 PUSH2 0x2955 JUMP JUMPDEST JUMPDEST PUSH1 0x20 MUL PUSH1 0x20 ADD ADD SWAP1 PUSH20 0xFFFFFFFFFFFFFFFFFFFFFFFFFFFFFFFFFFFFFFFF AND SWAP1 DUP2 PUSH20 0xFFFFFFFFFFFFFFFFFFFFFFFFFFFFFFFFFFFFFFFF AND DUP2 MSTORE POP POP PUSH1 0x8 PUSH1 0x0 SWAP1 SLOAD SWAP1 PUSH2 0x100 EXP SWAP1 DIV PUSH20 0xFFFFFFFFFFFFFFFFFFFFFFFFFFFFFFFFFFFFFFFF AND DUP2 PUSH1 0x1 DUP2 MLOAD DUP2 LT PUSH2 0x1F09 JUMPI PUSH2 0x1F08 PUSH2 0x2955 JUMP JUMPDEST JUMPDEST PUSH1 0x20 MUL PUSH1 0x20 ADD ADD SWAP1 PUSH20 0xFFFFFFFFFFFFFFFFFFFFFFFFFFFFFFFFFFFFFFFF AND SWAP1 DUP2 PUSH20 0xFFFFFFFFFFFFFFFFFFFFFFFFFFFFFFFFFFFFFFFF AND DUP2 MSTORE POP POP PUSH2 0x1F6E ADDRESS PUSH32 0x0 DUP5 PUSH2 0x14A4 JUMP JUMPDEST PUSH32 0x0 PUSH20 0xFFFFFFFFFFFFFFFFFFFFFFFFFFFFFFFFFFFFFFFF AND PUSH4 0x5C11D795 DUP4 PUSH1 0x0 DUP5 PUSH1 0x6 PUSH1 0x0 SWAP1 SLOAD SWAP1 PUSH2 0x100 EXP SWAP1 DIV PUSH20 0xFFFFFFFFFFFFFFFFFFFFFFFFFFFFFFFFFFFFFFFF AND TIMESTAMP PUSH1 0x40 MLOAD DUP7 PUSH4 0xFFFFFFFF AND PUSH1 0xE0 SHL DUP2 MSTORE PUSH1 0x4 ADD PUSH2 0x1FF2 SWAP6 SWAP5 SWAP4 SWAP3 SWAP2 SWAP1 PUSH2 0x2648 JUMP JUMPDEST PUSH1 0x0 PUSH1 0x40 MLOAD DUP1 DUP4 SUB DUP2 PUSH1 0x0 DUP8 DUP1 EXTCODESIZE ISZERO DUP1 ISZERO PUSH2 0x200C JUMPI PUSH1 0x0 DUP1 REVERT JUMPDEST POP GAS CALL ISZERO DUP1 ISZERO PUSH2 0x2020 JUMPI RETURNDATASIZE PUSH1 0x0 DUP1 RETURNDATACOPY RETURNDATASIZE PUSH1 0x0 REVERT JUMPDEST POP POP POP POP POP PUSH1 0x0 PUSH1 0x8 PUSH1 0x14 PUSH2 0x100 EXP DUP2 SLOAD DUP2 PUSH1 0xFF MUL NOT AND SWAP1 DUP4 ISZERO ISZERO MUL OR SWAP1 SSTORE POP POP JUMP JUMPDEST PUSH1 0x0 DUP2 CALLDATALOAD SWAP1 POP PUSH2 0x2052 DUP2 PUSH2 0x2C6A JUMP JUMPDEST SWAP3 SWAP2 POP POP JUMP JUMPDEST PUSH1 0x0 DUP2 CALLDATALOAD SWAP1 POP PUSH2 0x2067 DUP2 PUSH2 0x2C81 JUMP JUMPDEST SWAP3 SWAP2 POP POP JUMP JUMPDEST PUSH1 0x0 DUP2 MLOAD SWAP1 POP PUSH2 0x207C DUP2 PUSH2 0x2C81 JUMP JUMPDEST SWAP3 SWAP2 POP POP JUMP JUMPDEST PUSH1 0x0 DUP2 CALLDATALOAD SWAP1 POP PUSH2 0x2091 DUP2 PUSH2 0x2C98 JUMP JUMPDEST SWAP3 SWAP2 POP POP JUMP JUMPDEST PUSH1 0x0 PUSH1 0x20 DUP3 DUP5 SUB SLT ISZERO PUSH2 0x20AD JUMPI PUSH2 0x20AC PUSH2 0x29B3 JUMP JUMPDEST JUMPDEST PUSH1 0x0 PUSH2 0x20BB DUP5 DUP3 DUP6 ADD PUSH2 0x2043 JUMP JUMPDEST SWAP2 POP POP SWAP3 SWAP2 POP POP JUMP JUMPDEST PUSH1 0x0 DUP1 PUSH1 0x40 DUP4 DUP6 SUB SLT ISZERO PUSH2 0x20DB JUMPI PUSH2 0x20DA PUSH2 0x29B3 JUMP JUMPDEST JUMPDEST PUSH1 0x0 PUSH2 0x20E9 DUP6 DUP3 DUP7 ADD PUSH2 0x2043 JUMP JUMPDEST SWAP3 POP POP PUSH1 0x20 PUSH2 0x20FA DUP6 DUP3 DUP7 ADD PUSH2 0x2043 JUMP JUMPDEST SWAP2 POP POP SWAP3 POP SWAP3 SWAP1 POP JUMP JUMPDEST PUSH1 0x0 DUP1 PUSH1 0x0 PUSH1 0x60 DUP5 DUP7 SUB SLT ISZERO PUSH2 0x211D JUMPI PUSH2 0x211C PUSH2 0x29B3 JUMP JUMPDEST JUMPDEST PUSH1 0x0 PUSH2 0x212B DUP7 DUP3 DUP8 ADD PUSH2 0x2043 JUMP JUMPDEST SWAP4 POP POP PUSH1 0x20 PUSH2 0x213C DUP7 DUP3 DUP8 ADD PUSH2 0x2043 JUMP JUMPDEST SWAP3 POP POP PUSH1 0x40 PUSH2 0x214D DUP7 DUP3 DUP8 ADD PUSH2 0x2082 JUMP JUMPDEST SWAP2 POP POP SWAP3 POP SWAP3 POP SWAP3 JUMP JUMPDEST PUSH1 0x0 DUP1 PUSH1 0x40 DUP4 DUP6 SUB SLT ISZERO PUSH2 0x216E JUMPI PUSH2 0x216D PUSH2 0x29B3 JUMP JUMPDEST JUMPDEST PUSH1 0x0 PUSH2 0x217C DUP6 DUP3 DUP7 ADD PUSH2 0x2043 JUMP JUMPDEST SWAP3 POP POP PUSH1 0x20 PUSH2 0x218D DUP6 DUP3 DUP7 ADD PUSH2 0x2082 JUMP JUMPDEST SWAP2 POP POP SWAP3 POP SWAP3 SWAP1 POP JUMP JUMPDEST PUSH1 0x0 PUSH1 0x20 DUP3 DUP5 SUB SLT ISZERO PUSH2 0x21AD JUMPI PUSH2 0x21AC PUSH2 0x29B3 JUMP JUMPDEST JUMPDEST PUSH1 0x0 PUSH2 0x21BB DUP5 DUP3 DUP6 ADD PUSH2 0x2058 JUMP JUMPDEST SWAP2 POP POP SWAP3 SWAP2 POP POP JUMP JUMPDEST PUSH1 0x0 PUSH1 0x20 DUP3 DUP5 SUB SLT ISZERO PUSH2 0x21DA JUMPI PUSH2 0x21D9 PUSH2 0x29B3 JUMP JUMPDEST JUMPDEST PUSH1 0x0 PUSH2 0x21E8 DUP5 DUP3 DUP6 ADD PUSH2 0x206D JUMP JUMPDEST SWAP2 POP POP SWAP3 SWAP2 POP POP JUMP JUMPDEST PUSH1 0x0 PUSH1 0x20 DUP3 DUP5 SUB SLT ISZERO PUSH2 0x2207 JUMPI PUSH2 0x2206 PUSH2 0x29B3 JUMP JUMPDEST JUMPDEST PUSH1 0x0 PUSH2 0x2215 DUP5 DUP3 DUP6 ADD PUSH2 0x2082 JUMP JUMPDEST SWAP2 POP POP SWAP3 SWAP2 POP POP JUMP JUMPDEST PUSH1 0x0 PUSH2 0x222A DUP4 DUP4 PUSH2 0x2236 JUMP JUMPDEST PUSH1 0x20 DUP4 ADD SWAP1 POP SWAP3 SWAP2 POP POP JUMP JUMPDEST PUSH2 0x223F DUP2 PUSH2 0x2827 JUMP JUMPDEST DUP3 MSTORE POP POP JUMP JUMPDEST PUSH2 0x224E DUP2 PUSH2 0x2827 JUMP JUMPDEST DUP3 MSTORE POP POP JUMP JUMPDEST PUSH1 0x0 PUSH2 0x225F DUP3 PUSH2 0x26CD JUMP JUMPDEST PUSH2 0x2269 DUP2 DUP6 PUSH2 0x26F0 JUMP JUMPDEST SWAP4 POP PUSH2 0x2274 DUP4 PUSH2 0x26BD JUMP JUMPDEST DUP1 PUSH1 0x0 JUMPDEST DUP4 DUP2 LT ISZERO PUSH2 0x22A5 JUMPI DUP2 MLOAD PUSH2 0x228C DUP9 DUP3 PUSH2 0x221E JUMP JUMPDEST SWAP8 POP PUSH2 0x2297 DUP4 PUSH2 0x26E3 JUMP JUMPDEST SWAP3 POP POP PUSH1 0x1 DUP2 ADD SWAP1 POP PUSH2 0x2278 JUMP JUMPDEST POP DUP6 SWAP4 POP POP POP POP SWAP3 SWAP2 POP POP JUMP JUMPDEST PUSH2 0x22BB DUP2 PUSH2 0x2839 JUMP JUMPDEST DUP3 MSTORE POP POP JUMP JUMPDEST PUSH2 0x22CA DUP2 PUSH2 0x287C JUMP JUMPDEST DUP3 MSTORE POP POP JUMP JUMPDEST PUSH2 0x22D9 DUP2 PUSH2 0x288E JUMP JUMPDEST DUP3 MSTORE POP POP JUMP JUMPDEST PUSH1 0x0 PUSH2 0x22EA DUP3 PUSH2 0x26D8 JUMP JUMPDEST PUSH2 0x22F4 DUP2 DUP6 PUSH2 0x2701 JUMP JUMPDEST SWAP4 POP PUSH2 0x2304 DUP2 DUP6 PUSH1 0x20 DUP7 ADD PUSH2 0x28C4 JUMP JUMPDEST PUSH2 0x230D DUP2 PUSH2 0x29B8 JUMP JUMPDEST DUP5 ADD SWAP2 POP POP SWAP3 SWAP2 POP POP JUMP JUMPDEST PUSH1 0x0 PUSH2 0x2325 PUSH1 0x27 DUP4 PUSH2 0x2701 JUMP JUMPDEST SWAP2 POP PUSH2 0x2330 DUP3 PUSH2 0x29C9 JUMP JUMPDEST PUSH1 0x40 DUP3 ADD SWAP1 POP SWAP2 SWAP1 POP JUMP JUMPDEST PUSH1 0x0 PUSH2 0x2348 PUSH1 0x25 DUP4 PUSH2 0x2701 JUMP JUMPDEST SWAP2 POP PUSH2 0x2353 DUP3 PUSH2 0x2A18 JUMP JUMPDEST PUSH1 0x40 DUP3 ADD SWAP1 POP SWAP2 SWAP1 POP JUMP JUMPDEST PUSH1 0x0 PUSH2 0x236B PUSH1 0x26 DUP4 PUSH2 0x2701 JUMP JUMPDEST SWAP2 POP PUSH2 0x2376 DUP3 PUSH2 0x2A67 JUMP JUMPDEST PUSH1 0x40 DUP3 ADD SWAP1 POP SWAP2 SWAP1 POP JUMP JUMPDEST PUSH1 0x0 PUSH2 0x238E PUSH1 0x2A DUP4 PUSH2 0x2701 JUMP JUMPDEST SWAP2 POP PUSH2 0x2399 DUP3 PUSH2 0x2AB6 JUMP JUMPDEST PUSH1 0x40 DUP3 ADD SWAP1 POP SWAP2 SWAP1 POP JUMP JUMPDEST PUSH1 0x0 PUSH2 0x23B1 PUSH1 0x20 DUP4 PUSH2 0x2701 JUMP JUMPDEST SWAP2 POP PUSH2 0x23BC DUP3 PUSH2 0x2B05 JUMP JUMPDEST PUSH1 0x20 DUP3 ADD SWAP1 POP SWAP2 SWAP1 POP JUMP JUMPDEST PUSH1 0x0 PUSH2 0x23D4 PUSH1 0x26 DUP4 PUSH2 0x2701 JUMP JUMPDEST SWAP2 POP PUSH2 0x23DF DUP3 PUSH2 0x2B2E JUMP JUMPDEST PUSH1 0x40 DUP3 ADD SWAP1 POP SWAP2 SWAP1 POP JUMP JUMPDEST PUSH1 0x0 PUSH2 0x23F7 PUSH1 0x29 DUP4 PUSH2 0x2701 JUMP JUMPDEST SWAP2 POP PUSH2 0x2402 DUP3 PUSH2 0x2B7D JUMP JUMPDEST PUSH1 0x40 DUP3 ADD SWAP1 POP SWAP2 SWAP1 POP JUMP JUMPDEST PUSH1 0x0 PUSH2 0x241A PUSH1 0x29 DUP4 PUSH2 0x2701 JUMP JUMPDEST SWAP2 POP PUSH2 0x2425 DUP3 PUSH2 0x2BCC JUMP JUMPDEST PUSH1 0x40 DUP3 ADD SWAP1 POP SWAP2 SWAP1 POP JUMP JUMPDEST PUSH1 0x0 PUSH2 0x243D PUSH1 0x2C DUP4 PUSH2 0x2701 JUMP JUMPDEST SWAP2 POP PUSH2 0x2448 DUP3 PUSH2 0x2C1B JUMP JUMPDEST PUSH1 0x40 DUP3 ADD SWAP1 POP SWAP2 SWAP1 POP JUMP JUMPDEST PUSH2 0x245C DUP2 PUSH2 0x2865 JUMP JUMPDEST DUP3 MSTORE POP POP JUMP JUMPDEST PUSH2 0x246B DUP2 PUSH2 0x286F JUMP JUMPDEST DUP3 MSTORE POP POP JUMP JUMPDEST PUSH1 0x0 PUSH1 0x20 DUP3 ADD SWAP1 POP PUSH2 0x2486 PUSH1 0x0 DUP4 ADD DUP5 PUSH2 0x2245 JUMP JUMPDEST SWAP3 SWAP2 POP POP JUMP JUMPDEST PUSH1 0x0 PUSH1 0x40 DUP3 ADD SWAP1 POP PUSH2 0x24A1 PUSH1 0x0 DUP4 ADD DUP6 PUSH2 0x2245 JUMP JUMPDEST PUSH2 0x24AE PUSH1 0x20 DUP4 ADD DUP5 PUSH2 0x2453 JUMP JUMPDEST SWAP4 SWAP3 POP POP POP JUMP JUMPDEST PUSH1 0x0 PUSH1 0x20 DUP3 ADD SWAP1 POP PUSH2 0x24CA PUSH1 0x0 DUP4 ADD DUP5 PUSH2 0x22B2 JUMP JUMPDEST SWAP3 SWAP2 POP POP JUMP JUMPDEST PUSH1 0x0 PUSH1 0x20 DUP3 ADD SWAP1 POP PUSH2 0x24E5 PUSH1 0x0 DUP4 ADD DUP5 PUSH2 0x22C1 JUMP JUMPDEST SWAP3 SWAP2 POP POP JUMP JUMPDEST PUSH1 0x0 PUSH1 0x20 DUP3 ADD SWAP1 POP DUP2 DUP2 SUB PUSH1 0x0 DUP4 ADD MSTORE PUSH2 0x2505 DUP2 DUP5 PUSH2 0x22DF JUMP JUMPDEST SWAP1 POP SWAP3 SWAP2 POP POP JUMP JUMPDEST PUSH1 0x0 PUSH1 0x20 DUP3 ADD SWAP1 POP DUP2 DUP2 SUB PUSH1 0x0 DUP4 ADD MSTORE PUSH2 0x2526 DUP2 PUSH2 0x2318 JUMP JUMPDEST SWAP1 POP SWAP2 SWAP1 POP JUMP JUMPDEST PUSH1 0x0 PUSH1 0x20 DUP3 ADD SWAP1 POP DUP2 DUP2 SUB PUSH1 0x0 DUP4 ADD MSTORE PUSH2 0x2546 DUP2 PUSH2 0x233B JUMP JUMPDEST SWAP1 POP SWAP2 SWAP1 POP JUMP JUMPDEST PUSH1 0x0 PUSH1 0x20 DUP3 ADD SWAP1 POP DUP2 DUP2 SUB PUSH1 0x0 DUP4 ADD MSTORE PUSH2 0x2566 DUP2 PUSH2 0x235E JUMP JUMPDEST SWAP1 POP SWAP2 SWAP1 POP JUMP JUMPDEST PUSH1 0x0 PUSH1 0x20 DUP3 ADD SWAP1 POP DUP2 DUP2 SUB PUSH1 0x0 DUP4 ADD MSTORE PUSH2 0x2586 DUP2 PUSH2 0x2381 JUMP JUMPDEST SWAP1 POP SWAP2 SWAP1 POP JUMP JUMPDEST PUSH1 0x0 PUSH1 0x20 DUP3 ADD SWAP1 POP DUP2 DUP2 SUB PUSH1 0x0 DUP4 ADD MSTORE PUSH2 0x25A6 DUP2 PUSH2 0x23A4 JUMP JUMPDEST SWAP1 POP SWAP2 SWAP1 POP JUMP JUMPDEST PUSH1 0x0 PUSH1 0x20 DUP3 ADD SWAP1 POP DUP2 DUP2 SUB PUSH1 0x0 DUP4 ADD MSTORE PUSH2 0x25C6 DUP2 PUSH2 0x23C7 JUMP JUMPDEST SWAP1 POP SWAP2 SWAP1 POP JUMP JUMPDEST PUSH1 0x0 PUSH1 0x20 DUP3 ADD SWAP1 POP DUP2 DUP2 SUB PUSH1 0x0 DUP4 ADD MSTORE PUSH2 0x25E6 DUP2 PUSH2 0x23EA JUMP JUMPDEST SWAP1 POP SWAP2 SWAP1 POP JUMP JUMPDEST PUSH1 0x0 PUSH1 0x20 DUP3 ADD SWAP1 POP DUP2 DUP2 SUB PUSH1 0x0 DUP4 ADD MSTORE PUSH2 0x2606 DUP2 PUSH2 0x240D JUMP JUMPDEST SWAP1 POP SWAP2 SWAP1 POP JUMP JUMPDEST PUSH1 0x0 PUSH1 0x20 DUP3 ADD SWAP1 POP DUP2 DUP2 SUB PUSH1 0x0 DUP4 ADD MSTORE PUSH2 0x2626 DUP2 PUSH2 0x2430 JUMP JUMPDEST SWAP1 POP SWAP2 SWAP1 POP JUMP JUMPDEST PUSH1 0x0 PUSH1 0x20 DUP3 ADD SWAP1 POP PUSH2 0x2642 PUSH1 0x0 DUP4 ADD DUP5 PUSH2 0x2453 JUMP JUMPDEST SWAP3 SWAP2 POP POP JUMP JUMPDEST PUSH1 0x0 PUSH1 0xA0 DUP3 ADD SWAP1 POP PUSH2 0x265D PUSH1 0x0 DUP4 ADD DUP9 PUSH2 0x2453 JUMP JUMPDEST PUSH2 0x266A PUSH1 0x20 DUP4 ADD DUP8 PUSH2 0x22D0 JUMP JUMPDEST DUP2 DUP2 SUB PUSH1 0x40 DUP4 ADD MSTORE PUSH2 0x267C DUP2 DUP7 PUSH2 0x2254 JUMP JUMPDEST SWAP1 POP PUSH2 0x268B PUSH1 0x60 DUP4 ADD DUP6 PUSH2 0x2245 JUMP JUMPDEST PUSH2 0x2698 PUSH1 0x80 DUP4 ADD DUP5 PUSH2 0x2453 JUMP JUMPDEST SWAP7 SWAP6 POP POP POP POP POP POP JUMP JUMPDEST PUSH1 0x0 PUSH1 0x20 DUP3 ADD SWAP1 POP PUSH2 0x26B7 PUSH1 0x0 DUP4 ADD DUP5 PUSH2 0x2462 JUMP JUMPDEST SWAP3 SWAP2 POP POP JUMP JUMPDEST PUSH1 0x0 DUP2 SWAP1 POP PUSH1 0x20 DUP3 ADD SWAP1 POP SWAP2 SWAP1 POP JUMP JUMPDEST PUSH1 0x0 DUP2 MLOAD SWAP1 POP SWAP2 SWAP1 POP JUMP JUMPDEST PUSH1 0x0 DUP2 MLOAD SWAP1 POP SWAP2 SWAP1 POP JUMP JUMPDEST PUSH1 0x0 PUSH1 0x20 DUP3 ADD SWAP1 POP SWAP2 SWAP1 POP JUMP JUMPDEST PUSH1 0x0 DUP3 DUP3 MSTORE PUSH1 0x20 DUP3 ADD SWAP1 POP SWAP3 SWAP2 POP POP JUMP JUMPDEST PUSH1 0x0 DUP3 DUP3 MSTORE PUSH1 0x20 DUP3 ADD SWAP1 POP SWAP3 SWAP2 POP POP JUMP JUMPDEST PUSH1 0x0 PUSH2 0x271D DUP3 PUSH2 0x2865 JUMP JUMPDEST SWAP2 POP PUSH2 0x2728 DUP4 PUSH2 0x2865 JUMP JUMPDEST SWAP3 POP DUP3 PUSH32 0xFFFFFFFFFFFFFFFFFFFFFFFFFFFFFFFFFFFFFFFFFFFFFFFFFFFFFFFFFFFFFFFF SUB DUP3 GT ISZERO PUSH2 0x275D JUMPI PUSH2 0x275C PUSH2 0x28F7 JUMP JUMPDEST JUMPDEST DUP3 DUP3 ADD SWAP1 POP SWAP3 SWAP2 POP POP JUMP JUMPDEST PUSH1 0x0 PUSH2 0x2773 DUP3 PUSH2 0x2865 JUMP JUMPDEST SWAP2 POP PUSH2 0x277E DUP4 PUSH2 0x2865 JUMP JUMPDEST SWAP3 POP DUP3 PUSH2 0x278E JUMPI PUSH2 0x278D PUSH2 0x2926 JUMP JUMPDEST JUMPDEST DUP3 DUP3 DIV SWAP1 POP SWAP3 SWAP2 POP POP JUMP JUMPDEST PUSH1 0x0 PUSH2 0x27A4 DUP3 PUSH2 0x2865 JUMP JUMPDEST SWAP2 POP PUSH2 0x27AF DUP4 PUSH2 0x2865 JUMP JUMPDEST SWAP3 POP DUP2 PUSH32 0xFFFFFFFFFFFFFFFFFFFFFFFFFFFFFFFFFFFFFFFFFFFFFFFFFFFFFFFFFFFFFFFF DIV DUP4 GT DUP3 ISZERO ISZERO AND ISZERO PUSH2 0x27E8 JUMPI PUSH2 0x27E7 PUSH2 0x28F7 JUMP JUMPDEST JUMPDEST DUP3 DUP3 MUL SWAP1 POP SWAP3 SWAP2 POP POP JUMP JUMPDEST PUSH1 0x0 PUSH2 0x27FE DUP3 PUSH2 0x2865 JUMP JUMPDEST SWAP2 POP PUSH2 0x2809 DUP4 PUSH2 0x2865 JUMP JUMPDEST SWAP3 POP DUP3 DUP3 LT ISZERO PUSH2 0x281C JUMPI PUSH2 0x281B PUSH2 0x28F7 JUMP JUMPDEST JUMPDEST DUP3 DUP3 SUB SWAP1 POP SWAP3 SWAP2 POP POP JUMP JUMPDEST PUSH1 0x0 PUSH2 0x2832 DUP3 PUSH2 0x2845 JUMP JUMPDEST SWAP1 POP SWAP2 SWAP1 POP JUMP JUMPDEST PUSH1 0x0 DUP2 ISZERO ISZERO SWAP1 POP SWAP2 SWAP1 POP JUMP JUMPDEST PUSH1 0x0 PUSH20 0xFFFFFFFFFFFFFFFFFFFFFFFFFFFFFFFFFFFFFFFF DUP3 AND SWAP1 POP SWAP2 SWAP1 POP JUMP JUMPDEST PUSH1 0x0 DUP2 SWAP1 POP SWAP2 SWAP1 POP JUMP JUMPDEST PUSH1 0x0 PUSH1 0xFF DUP3 AND SWAP1 POP SWAP2 SWAP1 POP JUMP JUMPDEST PUSH1 0x0 PUSH2 0x2887 DUP3 PUSH2 0x28A0 JUMP JUMPDEST SWAP1 POP SWAP2 SWAP1 POP JUMP JUMPDEST PUSH1 0x0 PUSH2 0x2899 DUP3 PUSH2 0x2865 JUMP JUMPDEST SWAP1 POP SWAP2 SWAP1 POP JUMP JUMPDEST PUSH1 0x0 PUSH2 0x28AB DUP3 PUSH2 0x28B2 JUMP JUMPDEST SWAP1 POP SWAP2 SWAP1 POP JUMP JUMPDEST PUSH1 0x0 PUSH2 0x28BD DUP3 PUSH2 0x2845 JUMP JUMPDEST SWAP1 POP SWAP2 SWAP1 POP JUMP JUMPDEST PUSH1 0x0 JUMPDEST DUP4 DUP2 LT ISZERO PUSH2 0x28E2 JUMPI DUP1 DUP3 ADD MLOAD DUP2 DUP5 ADD MSTORE PUSH1 0x20 DUP2 ADD SWAP1 POP PUSH2 0x28C7 JUMP JUMPDEST DUP4 DUP2 GT ISZERO PUSH2 0x28F1 JUMPI PUSH1 0x0 DUP5 DUP5 ADD MSTORE JUMPDEST POP POP POP POP JUMP JUMPDEST PUSH32 0x4E487B7100000000000000000000000000000000000000000000000000000000 PUSH1 0x0 MSTORE PUSH1 0x11 PUSH1 0x4 MSTORE PUSH1 0x24 PUSH1 0x0 REVERT JUMPDEST PUSH32 0x4E487B7100000000000000000000000000000000000000000000000000000000 PUSH1 0x0 MSTORE PUSH1 0x12 PUSH1 0x4 MSTORE PUSH1 0x24 PUSH1 0x0 REVERT JUMPDEST PUSH32 0x4E487B7100000000000000000000000000000000000000000000000000000000 PUSH1 0x0 MSTORE PUSH1 0x32 PUSH1 0x4 MSTORE PUSH1 0x24 PUSH1 0x0 REVERT JUMPDEST PUSH32 0x4E487B7100000000000000000000000000000000000000000000000000000000 PUSH1 0x0 MSTORE PUSH1 0x41 PUSH1 0x4 MSTORE PUSH1 0x24 PUSH1 0x0 REVERT JUMPDEST PUSH1 0x0 DUP1 REVERT JUMPDEST PUSH1 0x0 PUSH1 0x1F NOT PUSH1 0x1F DUP4 ADD AND SWAP1 POP SWAP2 SWAP1 POP JUMP JUMPDEST PUSH32 0x5375676172426162793A207472616E7366657220746F20746865207A65726F20 PUSH1 0x0 DUP3 ADD MSTORE PUSH32 0x6164647265737300000000000000000000000000000000000000000000000000 PUSH1 0x20 DUP3 ADD MSTORE POP JUMP JUMPDEST PUSH32 0x5375676172426162793A206275726E2066726F6D20746865207A65726F206164 PUSH1 0x0 DUP3 ADD MSTORE PUSH32 0x6472657373000000000000000000000000000000000000000000000000000000 PUSH1 0x20 DUP3 ADD MSTORE POP JUMP JUMPDEST PUSH32 0x4F776E61626C653A206E6577206F776E657220697320746865207A65726F2061 PUSH1 0x0 DUP3 ADD MSTORE PUSH32 0x6464726573730000000000000000000000000000000000000000000000000000 PUSH1 0x20 DUP3 ADD MSTORE POP JUMP JUMPDEST PUSH32 0x5375676172426162793A207472616E7366657220616D6F756E74206578636565 PUSH1 0x0 DUP3 ADD MSTORE PUSH32 0x64732062616C616E636500000000000000000000000000000000000000000000 PUSH1 0x20 DUP3 ADD MSTORE POP JUMP JUMPDEST PUSH32 0x4F776E61626C653A2063616C6C6572206973206E6F7420746865206F776E6572 PUSH1 0x0 DUP3 ADD MSTORE POP JUMP JUMPDEST PUSH32 0x5375676172426162793A206275726E20616D6F756E7420657863656564732062 PUSH1 0x0 DUP3 ADD MSTORE PUSH32 0x616C616E63650000000000000000000000000000000000000000000000000000 PUSH1 0x20 DUP3 ADD MSTORE POP JUMP JUMPDEST PUSH32 0x5375676172426162793A207472616E736665722066726F6D20746865207A6572 PUSH1 0x0 DUP3 ADD MSTORE PUSH32 0x6F20616464726573730000000000000000000000000000000000000000000000 PUSH1 0x20 DUP3 ADD MSTORE POP JUMP JUMPDEST PUSH32 0x5375676172426162793A2064656372656173656420616C6C6F77616E63652062 PUSH1 0x0 DUP3 ADD MSTORE PUSH32 0x656C6F77207A65726F0000000000000000000000000000000000000000000000 PUSH1 0x20 DUP3 ADD MSTORE POP JUMP JUMPDEST PUSH32 0x5375676172426162793A207472616E7366657220616D6F756E74206578636565 PUSH1 0x0 DUP3 ADD MSTORE PUSH32 0x647320616C6C6F77616E63650000000000000000000000000000000000000000 PUSH1 0x20 DUP3 ADD MSTORE POP JUMP JUMPDEST PUSH2 0x2C73 DUP2 PUSH2 0x2827 JUMP JUMPDEST DUP2 EQ PUSH2 0x2C7E JUMPI PUSH1 0x0 DUP1 REVERT JUMPDEST POP JUMP JUMPDEST PUSH2 0x2C8A DUP2 PUSH2 0x2839 JUMP JUMPDEST DUP2 EQ PUSH2 0x2C95 JUMPI PUSH1 0x0 DUP1 REVERT JUMPDEST POP JUMP JUMPDEST PUSH2 0x2CA1 DUP2 PUSH2 0x2865 JUMP JUMPDEST DUP2 EQ PUSH2 0x2CAC JUMPI PUSH1 0x0 DUP1 REVERT JUMPDEST POP JUMP INVALID LOG2 PUSH5 0x6970667358 0x22 SLT KECCAK256 0x2A 0xD GT 0xDA 0xE7 0x1F CALLVALUE 0xE 0xAD SDIV PUSH25 0x13BCD931272D0DE8941DD8F241C7810385039F75BC64736F6C PUSH4 0x43000807 STOP CALLER "
				},
				"gasEstimates": {
					"creation": {
						"codeDepositCost": "2298600",
						"executionCost": "infinite",
						"totalCost": "infinite"
					},
					"external": {
						"DEXs(address)": "2911",
						"addDex(address)": "29376",
						"allowance(address,address)": "infinite",
						"approve(address,uint256)": "infinite",
						"balanceOf(address)": "2952",
						"burn(uint256)": "infinite",
						"decimals()": "433",
						"decreaseAllowance(address,uint256)": "infinite",
						"emergencyWithdraw()": "infinite",
						"emergencyWithdrawToken(address,uint256)": "infinite",
						"increaseAllowance(address,uint256)": "infinite",
						"isExcludeds(address)": "2890",
						"isPair(address)": "2933",
						"marketAddress()": "2604",
						"name()": "infinite",
						"owner()": "2590",
						"renounceOwnership()": "30420",
						"setExcludeds(address)": "29372",
						"setMarket(address)": "27051",
						"setSwapAndLiquifyEnabled(bool)": "infinite",
						"swapAndLiquifyEnabled()": "2611",
						"symbol()": "infinite",
						"totalSupply()": "2483",
						"transfer(address,uint256)": "infinite",
						"transferFrom(address,address,uint256)": "infinite",
						"transferOwnership(address)": "30833",
						"uniswapV2Pair()": "2582",
						"uniswapV2Router()": "infinite",
						"usdtAddress()": "2581"
					},
					"internal": {
						"_approve(address,address,uint256)": "infinite",
						"_burn(address,uint256)": "infinite",
						"_mint(address,uint256)": "infinite",
						"_transfer(address,address,uint256)": "infinite",
						"swapTokensForUsdt(uint256)": "infinite"
					}
				},
				"methodIdentifiers": {
					"DEXs(address)": "dec1a6f6",
					"addDex(address)": "536db266",
					"allowance(address,address)": "dd62ed3e",
					"approve(address,uint256)": "095ea7b3",
					"balanceOf(address)": "70a08231",
					"burn(uint256)": "42966c68",
					"decimals()": "313ce567",
					"decreaseAllowance(address,uint256)": "a457c2d7",
					"emergencyWithdraw()": "db2e21bc",
					"emergencyWithdrawToken(address,uint256)": "a4c3b091",
					"increaseAllowance(address,uint256)": "39509351",
					"isExcludeds(address)": "4f2b408c",
					"isPair(address)": "e5e31b13",
					"marketAddress()": "95623641",
					"name()": "06fdde03",
					"owner()": "8da5cb5b",
					"renounceOwnership()": "715018a6",
					"setExcludeds(address)": "a8808fcc",
					"setMarket(address)": "6dcea85f",
					"setSwapAndLiquifyEnabled(bool)": "c49b9a80",
					"swapAndLiquifyEnabled()": "4a74bb02",
					"symbol()": "95d89b41",
					"totalSupply()": "18160ddd",
					"transfer(address,uint256)": "a9059cbb",
					"transferFrom(address,address,uint256)": "23b872dd",
					"transferOwnership(address)": "f2fde38b",
					"uniswapV2Pair()": "49bd5a5e",
					"uniswapV2Router()": "1694505e",
					"usdtAddress()": "9ab4a445"
				}
			},
			"storageLayout": {
				"storage": [
					{
						"astId": 296,
						"contract": "ex/exchangeUsdtToken.sol:SugarBaby",
						"label": "_owner",
						"offset": 0,
						"slot": "0",
						"type": "t_address"
					},
					{
						"astId": 1298,
						"contract": "ex/exchangeUsdtToken.sol:SugarBaby",
						"label": "_balances",
						"offset": 0,
						"slot": "1",
						"type": "t_mapping(t_address,t_uint256)"
					},
					{
						"astId": 1304,
						"contract": "ex/exchangeUsdtToken.sol:SugarBaby",
						"label": "_allowances",
						"offset": 0,
						"slot": "2",
						"type": "t_mapping(t_address,t_mapping(t_address,t_uint256))"
					},
					{
						"astId": 1306,
						"contract": "ex/exchangeUsdtToken.sol:SugarBaby",
						"label": "_totalSupply",
						"offset": 0,
						"slot": "3",
						"type": "t_uint256"
					},
					{
						"astId": 1308,
						"contract": "ex/exchangeUsdtToken.sol:SugarBaby",
						"label": "_name",
						"offset": 0,
						"slot": "4",
						"type": "t_string_storage"
					},
					{
						"astId": 1310,
						"contract": "ex/exchangeUsdtToken.sol:SugarBaby",
						"label": "_symbol",
						"offset": 0,
						"slot": "5",
						"type": "t_string_storage"
					},
					{
						"astId": 1313,
						"contract": "ex/exchangeUsdtToken.sol:SugarBaby",
						"label": "marketAddress",
						"offset": 0,
						"slot": "6",
						"type": "t_address"
					},
					{
						"astId": 1318,
						"contract": "ex/exchangeUsdtToken.sol:SugarBaby",
						"label": "uniswapV2Pair",
						"offset": 0,
						"slot": "7",
						"type": "t_address"
					},
					{
						"astId": 1321,
						"contract": "ex/exchangeUsdtToken.sol:SugarBaby",
						"label": "usdtAddress",
						"offset": 0,
						"slot": "8",
						"type": "t_address"
					},
					{
						"astId": 1323,
						"contract": "ex/exchangeUsdtToken.sol:SugarBaby",
						"label": "inSwapAndLiquify",
						"offset": 20,
						"slot": "8",
						"type": "t_bool"
					},
					{
						"astId": 1326,
						"contract": "ex/exchangeUsdtToken.sol:SugarBaby",
						"label": "swapAndLiquifyEnabled",
						"offset": 21,
						"slot": "8",
						"type": "t_bool"
					},
					{
						"astId": 1330,
						"contract": "ex/exchangeUsdtToken.sol:SugarBaby",
						"label": "isExcludeds",
						"offset": 0,
						"slot": "9",
						"type": "t_mapping(t_address,t_bool)"
					},
					{
						"astId": 1334,
						"contract": "ex/exchangeUsdtToken.sol:SugarBaby",
						"label": "DEXs",
						"offset": 0,
						"slot": "10",
						"type": "t_mapping(t_address,t_bool)"
					},
					{
						"astId": 1338,
						"contract": "ex/exchangeUsdtToken.sol:SugarBaby",
						"label": "isPair",
						"offset": 0,
						"slot": "11",
						"type": "t_mapping(t_address,t_bool)"
					}
				],
				"types": {
					"t_address": {
						"encoding": "inplace",
						"label": "address",
						"numberOfBytes": "20"
					},
					"t_bool": {
						"encoding": "inplace",
						"label": "bool",
						"numberOfBytes": "1"
					},
					"t_mapping(t_address,t_bool)": {
						"encoding": "mapping",
						"key": "t_address",
						"label": "mapping(address => bool)",
						"numberOfBytes": "32",
						"value": "t_bool"
					},
					"t_mapping(t_address,t_mapping(t_address,t_uint256))": {
						"encoding": "mapping",
						"key": "t_address",
						"label": "mapping(address => mapping(address => uint256))",
						"numberOfBytes": "32",
						"value": "t_mapping(t_address,t_uint256)"
					},
					"t_mapping(t_address,t_uint256)": {
						"encoding": "mapping",
						"key": "t_address",
						"label": "mapping(address => uint256)",
						"numberOfBytes": "32",
						"value": "t_uint256"
					},
					"t_string_storage": {
						"encoding": "bytes",
						"label": "string",
						"numberOfBytes": "32"
					},
					"t_uint256": {
						"encoding": "inplace",
						"label": "uint256",
						"numberOfBytes": "32"
					}
				}
			},
			"userdoc": {
				"kind": "user",
				"methods": {},
				"version": 1
			}
		}
	}
}