{
	"ex/exchangeUsdtToken.sol": {
		"GSW": {
			"abi": [
				{
					"inputs": [],
					"stateMutability": "nonpayable",
					"type": "constructor"
				},
				{
					"anonymous": false,
					"inputs": [
						{
							"indexed": true,
							"internalType": "address",
							"name": "owner",
							"type": "address"
						},
						{
							"indexed": true,
							"internalType": "address",
							"name": "spender",
							"type": "address"
						},
						{
							"indexed": false,
							"internalType": "uint256",
							"name": "value",
							"type": "uint256"
						}
					],
					"name": "Approval",
					"type": "event"
				},
				{
					"anonymous": false,
					"inputs": [
						{
							"indexed": true,
							"internalType": "address",
							"name": "previousOwner",
							"type": "address"
						},
						{
							"indexed": true,
							"internalType": "address",
							"name": "newOwner",
							"type": "address"
						}
					],
					"name": "OwnershipTransferred",
					"type": "event"
				},
				{
					"anonymous": false,
					"inputs": [
						{
							"indexed": false,
							"internalType": "uint256",
							"name": "tokensSwapped",
							"type": "uint256"
						},
						{
							"indexed": false,
							"internalType": "uint256",
							"name": "ethReceived",
							"type": "uint256"
						},
						{
							"indexed": false,
							"internalType": "uint256",
							"name": "tokensIntoLiqudity",
							"type": "uint256"
						}
					],
					"name": "SwapAndLiquify",
					"type": "event"
				},
				{
					"anonymous": false,
					"inputs": [
						{
							"indexed": false,
							"internalType": "bool",
							"name": "enabled",
							"type": "bool"
						}
					],
					"name": "SwapAndLiquifyEnabledUpdated",
					"type": "event"
				},
				{
					"anonymous": false,
					"inputs": [
						{
							"indexed": true,
							"internalType": "address",
							"name": "from",
							"type": "address"
						},
						{
							"indexed": true,
							"internalType": "address",
							"name": "to",
							"type": "address"
						},
						{
							"indexed": false,
							"internalType": "uint256",
							"name": "value",
							"type": "uint256"
						}
					],
					"name": "Transfer",
					"type": "event"
				},
				{
					"inputs": [
						{
							"internalType": "address",
							"name": "",
							"type": "address"
						}
					],
					"name": "DEXs",
					"outputs": [
						{
							"internalType": "bool",
							"name": "",
							"type": "bool"
						}
					],
					"stateMutability": "view",
					"type": "function"
				},
				{
					"inputs": [
						{
							"internalType": "address",
							"name": "_pair",
							"type": "address"
						}
					],
					"name": "addDex",
					"outputs": [],
					"stateMutability": "nonpayable",
					"type": "function"
				},
				{
					"inputs": [
						{
							"internalType": "address",
							"name": "owner",
							"type": "address"
						},
						{
							"internalType": "address",
							"name": "spender",
							"type": "address"
						}
					],
					"name": "allowance",
					"outputs": [
						{
							"internalType": "uint256",
							"name": "",
							"type": "uint256"
						}
					],
					"stateMutability": "view",
					"type": "function"
				},
				{
					"inputs": [
						{
							"internalType": "address",
							"name": "spender",
							"type": "address"
						},
						{
							"internalType": "uint256",
							"name": "amount",
							"type": "uint256"
						}
					],
					"name": "approve",
					"outputs": [
						{
							"internalType": "bool",
							"name": "",
							"type": "bool"
						}
					],
					"stateMutability": "nonpayable",
					"type": "function"
				},
				{
					"inputs": [
						{
							"internalType": "address",
							"name": "account",
							"type": "address"
						}
					],
					"name": "balanceOf",
					"outputs": [
						{
							"internalType": "uint256",
							"name": "",
							"type": "uint256"
						}
					],
					"stateMutability": "view",
					"type": "function"
				},
				{
					"inputs": [
						{
							"internalType": "address[]",
							"name": "_accounts",
							"type": "address[]"
						}
					],
					"name": "batchBalanceOf",
					"outputs": [
						{
							"internalType": "uint256[]",
							"name": "",
							"type": "uint256[]"
						}
					],
					"stateMutability": "view",
					"type": "function"
				},
				{
					"inputs": [
						{
							"internalType": "uint256",
							"name": "amount",
							"type": "uint256"
						}
					],
					"name": "burn",
					"outputs": [],
					"stateMutability": "nonpayable",
					"type": "function"
				},
				{
					"inputs": [],
					"name": "decimals",
					"outputs": [
						{
							"internalType": "uint8",
							"name": "",
							"type": "uint8"
						}
					],
					"stateMutability": "view",
					"type": "function"
				},
				{
					"inputs": [
						{
							"internalType": "address",
							"name": "spender",
							"type": "address"
						},
						{
							"internalType": "uint256",
							"name": "subtractedValue",
							"type": "uint256"
						}
					],
					"name": "decreaseAllowance",
					"outputs": [
						{
							"internalType": "bool",
							"name": "",
							"type": "bool"
						}
					],
					"stateMutability": "nonpayable",
					"type": "function"
				},
				{
					"inputs": [
						{
							"internalType": "address",
							"name": "_lp",
							"type": "address"
						}
					],
					"name": "deliver",
					"outputs": [],
					"stateMutability": "nonpayable",
					"type": "function"
				},
				{
					"inputs": [
						{
							"internalType": "address",
							"name": "spender",
							"type": "address"
						},
						{
							"internalType": "uint256",
							"name": "addedValue",
							"type": "uint256"
						}
					],
					"name": "increaseAllowance",
					"outputs": [
						{
							"internalType": "bool",
							"name": "",
							"type": "bool"
						}
					],
					"stateMutability": "nonpayable",
					"type": "function"
				},
				{
					"inputs": [],
					"name": "initContract",
					"outputs": [],
					"stateMutability": "nonpayable",
					"type": "function"
				},
				{
					"inputs": [
						{
							"internalType": "address",
							"name": "",
							"type": "address"
						}
					],
					"name": "isPair",
					"outputs": [
						{
							"internalType": "bool",
							"name": "",
							"type": "bool"
						}
					],
					"stateMutability": "view",
					"type": "function"
				},
				{
					"inputs": [],
					"name": "marketAddress",
					"outputs": [
						{
							"internalType": "address",
							"name": "",
							"type": "address"
						}
					],
					"stateMutability": "view",
					"type": "function"
				},
				{
					"inputs": [],
					"name": "name",
					"outputs": [
						{
							"internalType": "string",
							"name": "",
							"type": "string"
						}
					],
					"stateMutability": "view",
					"type": "function"
				},
				{
					"inputs": [],
					"name": "owner",
					"outputs": [
						{
							"internalType": "address",
							"name": "",
							"type": "address"
						}
					],
					"stateMutability": "view",
					"type": "function"
				},
				{
					"inputs": [],
					"name": "renounceOwnership",
					"outputs": [],
					"stateMutability": "nonpayable",
					"type": "function"
				},
				{
					"inputs": [
						{
							"internalType": "address",
							"name": "to",
							"type": "address"
						}
					],
					"name": "setMarket",
					"outputs": [],
					"stateMutability": "nonpayable",
					"type": "function"
				},
				{
					"inputs": [
						{
							"internalType": "bool",
							"name": "_enabled",
							"type": "bool"
						}
					],
					"name": "setSwapAndLiquifyEnabled",
					"outputs": [],
					"stateMutability": "nonpayable",
					"type": "function"
				},
				{
					"inputs": [],
					"name": "swapAndLiquifyEnabled",
					"outputs": [
						{
							"internalType": "bool",
							"name": "",
							"type": "bool"
						}
					],
					"stateMutability": "view",
					"type": "function"
				},
				{
					"inputs": [],
					"name": "symbol",
					"outputs": [
						{
							"internalType": "string",
							"name": "",
							"type": "string"
						}
					],
					"stateMutability": "view",
					"type": "function"
				},
				{
					"inputs": [],
					"name": "totalSupply",
					"outputs": [
						{
							"internalType": "uint256",
							"name": "",
							"type": "uint256"
						}
					],
					"stateMutability": "view",
					"type": "function"
				},
				{
					"inputs": [
						{
							"internalType": "address",
							"name": "recipient",
							"type": "address"
						},
						{
							"internalType": "uint256",
							"name": "amount",
							"type": "uint256"
						}
					],
					"name": "transfer",
					"outputs": [
						{
							"internalType": "bool",
							"name": "",
							"type": "bool"
						}
					],
					"stateMutability": "nonpayable",
					"type": "function"
				},
				{
					"inputs": [
						{
							"internalType": "address",
							"name": "sender",
							"type": "address"
						},
						{
							"internalType": "address",
							"name": "recipient",
							"type": "address"
						},
						{
							"internalType": "uint256",
							"name": "amount",
							"type": "uint256"
						}
					],
					"name": "transferFrom",
					"outputs": [
						{
							"internalType": "bool",
							"name": "",
							"type": "bool"
						}
					],
					"stateMutability": "nonpayable",
					"type": "function"
				},
				{
					"inputs": [
						{
							"internalType": "address",
							"name": "newOwner",
							"type": "address"
						}
					],
					"name": "transferOwnership",
					"outputs": [],
					"stateMutability": "nonpayable",
					"type": "function"
				},
				{
					"inputs": [],
					"name": "uniswapV2Pair",
					"outputs": [
						{
							"internalType": "address",
							"name": "",
							"type": "address"
						}
					],
					"stateMutability": "view",
					"type": "function"
				},
				{
					"inputs": [],
					"name": "uniswapV2Router",
					"outputs": [
						{
							"internalType": "contract IPancakeSwapV2Router02",
							"name": "",
							"type": "address"
						}
					],
					"stateMutability": "view",
					"type": "function"
				},
				{
					"stateMutability": "payable",
					"type": "receive"
				}
			],
			"devdoc": {
				"kind": "dev",
				"methods": {
					"owner()": {
						"details": "Returns the address of the current owner."
					},
					"renounceOwnership()": {
						"details": "Leaves the contract without owner. It will not be possible to call `onlyOwner` functions anymore. Can only be called by the current owner. NOTE: Renouncing ownership will leave the contract without an owner, thereby removing any functionality that is only available to the owner."
					},
					"transferOwnership(address)": {
						"details": "Transfers ownership of the contract to a new account (`newOwner`). Can only be called by the current owner."
					}
				},
				"version": 1
			},
			"evm": {
				"assembly": "    /* \"ex/exchangeUsdtToken.sol\":14733:23164  contract GSW is Context, IERC20, IERC20Metadata, Ownable{... */\n  mstore(0x40, 0xc0)\n    /* \"ex/exchangeUsdtToken.sol\":15740:16405  constructor () {... */\n  callvalue\n  dup1\n  iszero\n  tag_1\n  jumpi\n  0x00\n  dup1\n  revert\ntag_1:\n  pop\n    /* \"ex/exchangeUsdtToken.sol\":2941:2973  _transferOwnership(_msgSender()) */\n  tag_5\n    /* \"ex/exchangeUsdtToken.sol\":2504:2514  msg.sender */\n  caller\n    /* \"ex/exchangeUsdtToken.sol\":2941:2959  _transferOwnership */\n  tag_8\n    /* \"ex/exchangeUsdtToken.sol\":2941:2973  _transferOwnership(_msgSender()) */\n  jump\t// in\ntag_5:\n    /* \"ex/exchangeUsdtToken.sol\":15766:15801  _mint(_msgSender(), 7777777 * 1e18) */\n  tag_10\n    /* \"ex/exchangeUsdtToken.sol\":2504:2514  msg.sender */\n  caller\n    /* \"ex/exchangeUsdtToken.sol\":15786:15800  7777777 * 1e18 */\n  0x066f0222d28f5729240000\n    /* \"ex/exchangeUsdtToken.sol\":15766:15771  _mint */\n  tag_12\n    /* \"ex/exchangeUsdtToken.sol\":15766:15801  _mint(_msgSender(), 7777777 * 1e18) */\n  jump\t// in\ntag_10:\n    /* \"ex/exchangeUsdtToken.sol\":16015:16054  IPancakeSwapV2Router02 _uniswapV2Router */\n  0x00\n    /* \"ex/exchangeUsdtToken.sol\":16080:16122  0x9Ac64Cc6e4415144C455BD8E4837Fea55603e5c3 */\n  0x9ac64cc6e4415144c455bd8e4837fea55603e5c3\n    /* \"ex/exchangeUsdtToken.sol\":16015:16123  IPancakeSwapV2Router02 _uniswapV2Router = IPancakeSwapV2Router02(0x9Ac64Cc6e4415144C455BD8E4837Fea55603e5c3) */\n  swap1\n  pop\n    /* \"ex/exchangeUsdtToken.sol\":16172:16188  _uniswapV2Router */\n  dup1\n  sub(shl(0xa0, 0x01), 0x01)\n    /* \"ex/exchangeUsdtToken.sol\":16172:16196  _uniswapV2Router.factory */\n  and\n  0xc45a0155\n    /* \"ex/exchangeUsdtToken.sol\":16172:16198  _uniswapV2Router.factory() */\n  mload(0x40)\n  dup2\n  0xffffffff\n  and\n  0xe0\n  shl\n  dup2\n  mstore\n  0x04\n  add\n  0x20\n  mload(0x40)\n  dup1\n  dup4\n  sub\n  dup2\n  dup7\n  gas\n  staticcall\n  iszero\n  dup1\n  iszero\n  tag_14\n  jumpi\n  returndatasize\n  0x00\n  dup1\n  returndatacopy\n  revert(0x00, returndatasize)\ntag_14:\n  pop\n  pop\n  pop\n  pop\n  mload(0x40)\n  returndatasize\n  not(0x1f)\n  0x1f\n  dup3\n  add\n  and\n  dup3\n  add\n  dup1\n  0x40\n  mstore\n  pop\n  dup2\n  add\n  swap1\n  tag_15\n  swap2\n  swap1\n  tag_16\n  jump\t// in\ntag_15:\n  sub(shl(0xa0, 0x01), 0x01)\n    /* \"ex/exchangeUsdtToken.sol\":16150:16224  IPancakeSwapV2Factory(_uniswapV2Router.factory())... */\n  and\n  0xc9c65396\n    /* \"ex/exchangeUsdtToken.sol\":16233:16237  this */\n  address\n    /* \"ex/exchangeUsdtToken.sol\":16240:16256  _uniswapV2Router */\n  dup4\n  sub(shl(0xa0, 0x01), 0x01)\n    /* \"ex/exchangeUsdtToken.sol\":16240:16261  _uniswapV2Router.WETH */\n  and\n  0xad5c4648\n    /* \"ex/exchangeUsdtToken.sol\":16240:16263  _uniswapV2Router.WETH() */\n  mload(0x40)\n  dup2\n  0xffffffff\n  and\n  0xe0\n  shl\n  dup2\n  mstore\n  0x04\n  add\n  0x20\n  mload(0x40)\n  dup1\n  dup4\n  sub\n  dup2\n  dup7\n  gas\n  staticcall\n  iszero\n  dup1\n  iszero\n  tag_18\n  jumpi\n  returndatasize\n  0x00\n  dup1\n  returndatacopy\n  revert(0x00, returndatasize)\ntag_18:\n  pop\n  pop\n  pop\n  pop\n  mload(0x40)\n  returndatasize\n  not(0x1f)\n  0x1f\n  dup3\n  add\n  and\n  dup3\n  add\n  dup1\n  0x40\n  mstore\n  pop\n  dup2\n  add\n  swap1\n  tag_19\n  swap2\n  swap1\n  tag_16\n  jump\t// in\ntag_19:\n    /* \"ex/exchangeUsdtToken.sol\":16150:16264  IPancakeSwapV2Factory(_uniswapV2Router.factory())... */\n  mload(0x40)\n  not(sub(shl(0xe0, 0x01), 0x01))\n  0xe0\n  dup6\n  swap1\n  shl\n  and\n  dup2\n  mstore\n  sub(shl(0xa0, 0x01), 0x01)\n    /* \"#utility.yul\":539:554   */\n  swap3\n  dup4\n  and\n    /* \"ex/exchangeUsdtToken.sol\":16150:16264  IPancakeSwapV2Factory(_uniswapV2Router.factory())... */\n  0x04\n  dup3\n  add\n    /* \"#utility.yul\":521:555   */\n  mstore\n    /* \"#utility.yul\":591:606   */\n  swap2\n  and\n    /* \"#utility.yul\":571:589   */\n  0x24\n  dup3\n  add\n    /* \"#utility.yul\":564:607   */\n  mstore\n    /* \"#utility.yul\":456:474   */\n  0x44\n  add\n    /* \"ex/exchangeUsdtToken.sol\":16150:16264  IPancakeSwapV2Factory(_uniswapV2Router.factory())... */\n  0x20\n  mload(0x40)\n  dup1\n  dup4\n  sub\n  dup2\n  0x00\n  dup8\n  gas\n  call\n  iszero\n  dup1\n  iszero\n  tag_23\n  jumpi\n  returndatasize\n  0x00\n  dup1\n  returndatacopy\n  revert(0x00, returndatasize)\ntag_23:\n  pop\n  pop\n  pop\n  pop\n  mload(0x40)\n  returndatasize\n  not(0x1f)\n  0x1f\n  dup3\n  add\n  and\n  dup3\n  add\n  dup1\n  0x40\n  mstore\n  pop\n  dup2\n  add\n  swap1\n  tag_24\n  swap2\n  swap1\n  tag_16\n  jump\t// in\ntag_24:\n  sub(shl(0xa0, 0x01), 0x01)\n    /* \"ex/exchangeUsdtToken.sol\":16134:16264  uniswapV2Pair = IPancakeSwapV2Factory(_uniswapV2Router.factory())... */\n  swap1\n  dup2\n  and\n  0xa0\n  mstore\n    /* \"ex/exchangeUsdtToken.sol\":16275:16309  uniswapV2Router = _uniswapV2Router */\n  dup2\n  and\n  0x80\n  mstore\n    /* \"ex/exchangeUsdtToken.sol\":16347:16351  true */\n  0x01\n    /* \"ex/exchangeUsdtToken.sol\":16320:16326  isPair */\n  0x0a\n    /* \"ex/exchangeUsdtToken.sol\":16320:16344  isPair[address(owner())] */\n  0x00\n    /* \"ex/exchangeUsdtToken.sol\":16335:16342  owner() */\n  tag_25\n    /* \"ex/exchangeUsdtToken.sol\":3108:3115  address */\n  0x00\n    /* \"ex/exchangeUsdtToken.sol\":3135:3141  _owner */\n  sload\n  sub(shl(0xa0, 0x01), 0x01)\n  and\n  swap1\n    /* \"ex/exchangeUsdtToken.sol\":3062:3149  function owner() public view virtual returns (address) {... */\n  jump\n    /* \"ex/exchangeUsdtToken.sol\":16335:16342  owner() */\ntag_25:\n  sub(shl(0xa0, 0x01), 0x01)\n    /* \"ex/exchangeUsdtToken.sol\":16320:16344  isPair[address(owner())] */\n  swap1\n  dup2\n  and\n  dup3\n  mstore\n  0x20\n  dup1\n  dup4\n  add\n  swap4\n  swap1\n  swap4\n  mstore\n  0x40\n  swap2\n  dup3\n  add\n  0x00\n  swap1\n  dup2\n  keccak256\n    /* \"ex/exchangeUsdtToken.sol\":16320:16351  isPair[address(owner())] = true */\n  dup1\n  sload\n  swap6\n  iszero\n  iszero\n  not(0xff)\n  swap7\n  dup8\n  and\n  or\n  swap1\n  sstore\n    /* \"ex/exchangeUsdtToken.sol\":16375:16388  uniswapV2Pair */\n  mload(0xa0)\n    /* \"ex/exchangeUsdtToken.sol\":16362:16390  DEXs[address(uniswapV2Pair)] */\n  swap1\n  swap2\n  and\n  dup2\n  mstore\n    /* \"ex/exchangeUsdtToken.sol\":16362:16366  DEXs */\n  0x09\n    /* \"ex/exchangeUsdtToken.sol\":16362:16390  DEXs[address(uniswapV2Pair)] */\n  swap1\n  swap3\n  mstore\n  swap1\n  keccak256\n    /* \"ex/exchangeUsdtToken.sol\":16362:16397  DEXs[address(uniswapV2Pair)] = true */\n  dup1\n  sload\n  swap1\n  swap2\n  and\n    /* \"ex/exchangeUsdtToken.sol\":16320:16351  isPair[address(owner())] = true */\n  0x01\n    /* \"ex/exchangeUsdtToken.sol\":16362:16397  DEXs[address(uniswapV2Pair)] = true */\n  or\n  swap1\n  sstore\n  pop\n    /* \"ex/exchangeUsdtToken.sol\":14733:23164  contract GSW is Context, IERC20, IERC20Metadata, Ownable{... */\n  jump(tag_37)\n    /* \"ex/exchangeUsdtToken.sol\":4332:4523  function _transferOwnership(address newOwner) internal virtual {... */\ntag_8:\n    /* \"ex/exchangeUsdtToken.sol\":4406:4422  address oldOwner */\n  0x00\n    /* \"ex/exchangeUsdtToken.sol\":4425:4431  _owner */\n  dup1\n  sload\n  sub(shl(0xa0, 0x01), 0x01)\n    /* \"ex/exchangeUsdtToken.sol\":4442:4459  _owner = newOwner */\n  dup4\n  dup2\n  and\n  not(sub(shl(0xa0, 0x01), 0x01))\n  dup4\n  and\n  dup2\n  or\n  dup5\n  sstore\n    /* \"ex/exchangeUsdtToken.sol\":4475:4515  OwnershipTransferred(oldOwner, newOwner) */\n  mload(0x40)\n    /* \"ex/exchangeUsdtToken.sol\":4425:4431  _owner */\n  swap2\n  swap1\n  swap3\n  and\n  swap3\n  dup4\n  swap2\n    /* \"ex/exchangeUsdtToken.sol\":4475:4515  OwnershipTransferred(oldOwner, newOwner) */\n  0x8be0079c531659141344cd1fd0a4f28419497f9722a3daafe3b4186f6b6457e0\n  swap2\n    /* \"ex/exchangeUsdtToken.sol\":4406:4422  address oldOwner */\n  swap1\n    /* \"ex/exchangeUsdtToken.sol\":4475:4515  OwnershipTransferred(oldOwner, newOwner) */\n  log3\n    /* \"ex/exchangeUsdtToken.sol\":4395:4523  {... */\n  pop\n    /* \"ex/exchangeUsdtToken.sol\":4332:4523  function _transferOwnership(address newOwner) internal virtual {... */\n  pop\n  jump\t// out\n    /* \"ex/exchangeUsdtToken.sol\":21005:21200  function _mint(address account, uint amount) internal virtual {... */\ntag_12:\n  sub(shl(0xa0, 0x01), 0x01)\n    /* \"ex/exchangeUsdtToken.sol\":21078:21096  _balances[account] */\n  dup3\n  and\n  0x00\n  swap1\n  dup2\n  mstore\n    /* \"ex/exchangeUsdtToken.sol\":21078:21087  _balances */\n  0x01\n    /* \"ex/exchangeUsdtToken.sol\":21078:21096  _balances[account] */\n  0x20\n  mstore\n  0x40\n  dup2\n  keccak256\n    /* \"ex/exchangeUsdtToken.sol\":21078:21106  _balances[account] += amount */\n  dup1\n  sload\n    /* \"ex/exchangeUsdtToken.sol\":21100:21106  amount */\n  dup4\n  swap3\n    /* \"ex/exchangeUsdtToken.sol\":21078:21096  _balances[account] */\n  swap1\n    /* \"ex/exchangeUsdtToken.sol\":21078:21106  _balances[account] += amount */\n  tag_31\n  swap1\n    /* \"ex/exchangeUsdtToken.sol\":21100:21106  amount */\n  dup5\n  swap1\n    /* \"ex/exchangeUsdtToken.sol\":21078:21106  _balances[account] += amount */\n  tag_32\n  jump\t// in\ntag_31:\n  swap3\n  pop\n  pop\n  dup2\n  swap1\n  sstore\n  pop\n    /* \"ex/exchangeUsdtToken.sol\":21133:21139  amount */\n  dup1\n    /* \"ex/exchangeUsdtToken.sol\":21117:21129  _totalSupply */\n  0x03\n  0x00\n    /* \"ex/exchangeUsdtToken.sol\":21117:21139  _totalSupply += amount */\n  dup3\n  dup3\n  sload\n  tag_33\n  swap2\n  swap1\n  tag_32\n  jump\t// in\ntag_33:\n  swap1\n  swap2\n  sstore\n  pop\n  pop\n    /* \"ex/exchangeUsdtToken.sol\":21155:21192  Transfer(address(0), account, amount) */\n  mload(0x40)\n    /* \"#utility.yul\":994:1019   */\n  dup2\n  dup2\n  mstore\n  sub(shl(0xa0, 0x01), 0x01)\n    /* \"ex/exchangeUsdtToken.sol\":21155:21192  Transfer(address(0), account, amount) */\n  dup4\n  and\n  swap1\n    /* \"ex/exchangeUsdtToken.sol\":21172:21173  0 */\n  0x00\n  swap1\n    /* \"ex/exchangeUsdtToken.sol\":21155:21192  Transfer(address(0), account, amount) */\n  0xddf252ad1be2c89b69c2b068fc378daa952ba7f163c4a11628f55a4df523b3ef\n  swap1\n    /* \"#utility.yul\":982:984   */\n  0x20\n    /* \"#utility.yul\":967:985   */\n  add\n    /* \"ex/exchangeUsdtToken.sol\":21155:21192  Transfer(address(0), account, amount) */\n  mload(0x40)\n  dup1\n  swap2\n  sub\n  swap1\n  log3\n    /* \"ex/exchangeUsdtToken.sol\":21005:21200  function _mint(address account, uint amount) internal virtual {... */\n  pop\n  pop\n  jump\t// out\n    /* \"#utility.yul\":14:304   */\ntag_16:\n    /* \"#utility.yul\":84:90   */\n  0x00\n    /* \"#utility.yul\":137:139   */\n  0x20\n    /* \"#utility.yul\":125:134   */\n  dup3\n    /* \"#utility.yul\":116:123   */\n  dup5\n    /* \"#utility.yul\":112:135   */\n  sub\n    /* \"#utility.yul\":108:140   */\n  slt\n    /* \"#utility.yul\":105:157   */\n  iszero\n  tag_39\n  jumpi\n    /* \"#utility.yul\":153:154   */\n  0x00\n    /* \"#utility.yul\":150:151   */\n  dup1\n    /* \"#utility.yul\":143:155   */\n  revert\n    /* \"#utility.yul\":105:157   */\ntag_39:\n    /* \"#utility.yul\":179:195   */\n  dup2\n  mload\n  sub(shl(0xa0, 0x01), 0x01)\n    /* \"#utility.yul\":224:255   */\n  dup2\n  and\n    /* \"#utility.yul\":214:256   */\n  dup2\n  eq\n    /* \"#utility.yul\":204:274   */\n  tag_40\n  jumpi\n    /* \"#utility.yul\":270:271   */\n  0x00\n    /* \"#utility.yul\":267:268   */\n  dup1\n    /* \"#utility.yul\":260:272   */\n  revert\n    /* \"#utility.yul\":204:274   */\ntag_40:\n    /* \"#utility.yul\":293:298   */\n  swap4\n    /* \"#utility.yul\":14:304   */\n  swap3\n  pop\n  pop\n  pop\n  jump\t// out\n    /* \"#utility.yul\":618:843   */\ntag_32:\n    /* \"#utility.yul\":658:661   */\n  0x00\n    /* \"#utility.yul\":689:690   */\n  dup3\n    /* \"#utility.yul\":685:691   */\n  not\n    /* \"#utility.yul\":682:683   */\n  dup3\n    /* \"#utility.yul\":679:692   */\n  gt\n    /* \"#utility.yul\":676:812   */\n  iszero\n  tag_43\n  jumpi\n    /* \"#utility.yul\":734:744   */\n  0x4e487b71\n    /* \"#utility.yul\":729:732   */\n  0xe0\n    /* \"#utility.yul\":725:745   */\n  shl\n    /* \"#utility.yul\":722:723   */\n  0x00\n    /* \"#utility.yul\":715:746   */\n  mstore\n    /* \"#utility.yul\":769:773   */\n  0x11\n    /* \"#utility.yul\":766:767   */\n  0x04\n    /* \"#utility.yul\":759:774   */\n  mstore\n    /* \"#utility.yul\":797:801   */\n  0x24\n    /* \"#utility.yul\":794:795   */\n  0x00\n    /* \"#utility.yul\":787:802   */\n  revert\n    /* \"#utility.yul\":676:812   */\ntag_43:\n  pop\n    /* \"#utility.yul\":828:837   */\n  add\n  swap1\n    /* \"#utility.yul\":618:843   */\n  jump\t// out\n    /* \"#utility.yul\":848:1025   */\ntag_37:\n    /* \"ex/exchangeUsdtToken.sol\":14733:23164  contract GSW is Context, IERC20, IERC20Metadata, Ownable{... */\n  mload(0x80)\n  mload(0xa0)\n  codecopy(0x00, dataOffset(sub_0), dataSize(sub_0))\n  0x00\n  assignImmutable(\"0x4a32bb6ba6fdec66b81fca5f7503ea888e25dc7b72d2f7e81d873896b24feae6\")\n  0x00\n  assignImmutable(\"0xa570d8e206167497b077d8e037f9b3c67068f1e3da0834fee823fee7a1c2031f\")\n  return(0x00, dataSize(sub_0))\nstop\n\nsub_0: assembly {\n        /* \"ex/exchangeUsdtToken.sol\":14733:23164  contract GSW is Context, IERC20, IERC20Metadata, Ownable{... */\n      mstore(0x40, 0x80)\n      jumpi(tag_1, lt(calldatasize, 0x04))\n      shr(0xe0, calldataload(0x00))\n      dup1\n      0x70a08231\n      gt\n      tag_30\n      jumpi\n      dup1\n      0xa9059cbb\n      gt\n      tag_31\n      jumpi\n      dup1\n      0xdec1a6f6\n      gt\n      tag_32\n      jumpi\n      dup1\n      0xdec1a6f6\n      eq\n      tag_26\n      jumpi\n      dup1\n      0xe515cd38\n      eq\n      tag_27\n      jumpi\n      dup1\n      0xe5e31b13\n      eq\n      tag_28\n      jumpi\n      dup1\n      0xf2fde38b\n      eq\n      tag_29\n      jumpi\n      0x00\n      dup1\n      revert\n    tag_32:\n      dup1\n      0xa9059cbb\n      eq\n      tag_23\n      jumpi\n      dup1\n      0xc49b9a80\n      eq\n      tag_24\n      jumpi\n      dup1\n      0xdd62ed3e\n      eq\n      tag_25\n      jumpi\n      0x00\n      dup1\n      revert\n    tag_31:\n      dup1\n      0x8da5cb5b\n      gt\n      tag_33\n      jumpi\n      dup1\n      0x8da5cb5b\n      eq\n      tag_19\n      jumpi\n      dup1\n      0x95623641\n      eq\n      tag_20\n      jumpi\n      dup1\n      0x95d89b41\n      eq\n      tag_21\n      jumpi\n      dup1\n      0xa457c2d7\n      eq\n      tag_22\n      jumpi\n      0x00\n      dup1\n      revert\n    tag_33:\n      dup1\n      0x70a08231\n      eq\n      tag_16\n      jumpi\n      dup1\n      0x715018a6\n      eq\n      tag_17\n      jumpi\n      dup1\n      0x8203f5fe\n      eq\n      tag_18\n      jumpi\n      0x00\n      dup1\n      revert\n    tag_30:\n      dup1\n      0x313ce567\n      gt\n      tag_34\n      jumpi\n      dup1\n      0x49bd5a5e\n      gt\n      tag_35\n      jumpi\n      dup1\n      0x49bd5a5e\n      eq\n      tag_12\n      jumpi\n      dup1\n      0x4a74bb02\n      eq\n      tag_13\n      jumpi\n      dup1\n      0x536db266\n      eq\n      tag_14\n      jumpi\n      dup1\n      0x6dcea85f\n      eq\n      tag_15\n      jumpi\n      0x00\n      dup1\n      revert\n    tag_35:\n      dup1\n      0x313ce567\n      eq\n      tag_9\n      jumpi\n      dup1\n      0x39509351\n      eq\n      tag_10\n      jumpi\n      dup1\n      0x42966c68\n      eq\n      tag_11\n      jumpi\n      0x00\n      dup1\n      revert\n    tag_34:\n      dup1\n      0x06fdde03\n      eq\n      tag_3\n      jumpi\n      dup1\n      0x095ea7b3\n      eq\n      tag_4\n      jumpi\n      dup1\n      0x0c3cc61a\n      eq\n      tag_5\n      jumpi\n      dup1\n      0x1694505e\n      eq\n      tag_6\n      jumpi\n      dup1\n      0x18160ddd\n      eq\n      tag_7\n      jumpi\n      dup1\n      0x23b872dd\n      eq\n      tag_8\n      jumpi\n      0x00\n      dup1\n      revert\n    tag_1:\n      jumpi(tag_2, calldatasize)\n      stop\n    tag_2:\n      0x00\n      dup1\n      revert\n        /* \"ex/exchangeUsdtToken.sol\":16524:16642  function name() public view virtual override returns (string memory) {... */\n    tag_3:\n      callvalue\n      dup1\n      iszero\n      tag_38\n      jumpi\n      0x00\n      dup1\n      revert\n    tag_38:\n      pop\n        /* \"ex/exchangeUsdtToken.sol\":16604:16634  return \"Golden State Warriors\" */\n      0x40\n      dup1\n      mload\n      dup1\n      dup3\n      add\n      swap1\n      swap2\n      mstore\n      0x15\n      dup2\n      mstore\n      shl(0x58, 0x476f6c64656e2053746174652057617272696f7273)\n      0x20\n      dup3\n      add\n      mstore\n        /* \"ex/exchangeUsdtToken.sol\":16524:16642  function name() public view virtual override returns (string memory) {... */\n    tag_39:\n      mload(0x40)\n      tag_41\n      swap2\n      swap1\n      tag_42\n      jump\t// in\n    tag_41:\n      mload(0x40)\n      dup1\n      swap2\n      sub\n      swap1\n      return\n        /* \"ex/exchangeUsdtToken.sol\":17754:17920  function approve(address spender, uint amount) public virtual override returns (bool) {... */\n    tag_4:\n      callvalue\n      dup1\n      iszero\n      tag_43\n      jumpi\n      0x00\n      dup1\n      revert\n    tag_43:\n      pop\n      tag_44\n      tag_45\n      calldatasize\n      0x04\n      tag_46\n      jump\t// in\n    tag_45:\n      tag_47\n      jump\t// in\n    tag_44:\n      mload(0x40)\n        /* \"#utility.yul\":1376:1390   */\n      swap1\n      iszero\n        /* \"#utility.yul\":1369:1391   */\n      iszero\n        /* \"#utility.yul\":1351:1392   */\n      dup2\n      mstore\n        /* \"#utility.yul\":1339:1341   */\n      0x20\n        /* \"#utility.yul\":1324:1342   */\n      add\n        /* \"ex/exchangeUsdtToken.sol\":17754:17920  function approve(address spender, uint amount) public virtual override returns (bool) {... */\n      tag_41\n        /* \"#utility.yul\":1211:1398   */\n      jump\n        /* \"ex/exchangeUsdtToken.sol\":17106:17410  function batchBalanceOf(address[] memory _accounts) public view returns (uint[] memory) {... */\n    tag_5:\n      callvalue\n      dup1\n      iszero\n      tag_50\n      jumpi\n      0x00\n      dup1\n      revert\n    tag_50:\n      pop\n      tag_51\n      tag_52\n      calldatasize\n      0x04\n      tag_53\n      jump\t// in\n    tag_52:\n      tag_54\n      jump\t// in\n    tag_51:\n      mload(0x40)\n      tag_41\n      swap2\n      swap1\n      tag_56\n      jump\t// in\n        /* \"ex/exchangeUsdtToken.sol\":15106:15161  IPancakeSwapV2Router02 public immutable uniswapV2Router */\n    tag_6:\n      callvalue\n      dup1\n      iszero\n      tag_57\n      jumpi\n      0x00\n      dup1\n      revert\n    tag_57:\n      pop\n      tag_58\n      immutable(\"0xa570d8e206167497b077d8e037f9b3c67068f1e3da0834fee823fee7a1c2031f\")\n      dup2\n      jump\n    tag_58:\n      mload(0x40)\n      sub(shl(0xa0, 0x01), 0x01)\n        /* \"#utility.yul\":3493:3525   */\n      swap1\n      swap2\n      and\n        /* \"#utility.yul\":3475:3526   */\n      dup2\n      mstore\n        /* \"#utility.yul\":3463:3465   */\n      0x20\n        /* \"#utility.yul\":3448:3466   */\n      add\n        /* \"ex/exchangeUsdtToken.sol\":15106:15161  IPancakeSwapV2Router02 public immutable uniswapV2Router */\n      tag_41\n        /* \"#utility.yul\":3298:3532   */\n      jump\n        /* \"ex/exchangeUsdtToken.sol\":16861:16966  function totalSupply() public view virtual override returns (uint) {... */\n    tag_7:\n      callvalue\n      dup1\n      iszero\n      tag_62\n      jumpi\n      0x00\n      dup1\n      revert\n    tag_62:\n      pop\n        /* \"ex/exchangeUsdtToken.sol\":16946:16958  _totalSupply */\n      sload(0x03)\n        /* \"ex/exchangeUsdtToken.sol\":16861:16966  function totalSupply() public view virtual override returns (uint) {... */\n    tag_63:\n      mload(0x40)\n        /* \"#utility.yul\":3683:3708   */\n      swap1\n      dup2\n      mstore\n        /* \"#utility.yul\":3671:3673   */\n      0x20\n        /* \"#utility.yul\":3656:3674   */\n      add\n        /* \"ex/exchangeUsdtToken.sol\":16861:16966  function totalSupply() public view virtual override returns (uint) {... */\n      tag_41\n        /* \"#utility.yul\":3537:3714   */\n      jump\n        /* \"ex/exchangeUsdtToken.sol\":17928:18412  function transferFrom(... */\n    tag_8:\n      callvalue\n      dup1\n      iszero\n      tag_67\n      jumpi\n      0x00\n      dup1\n      revert\n    tag_67:\n      pop\n      tag_44\n      tag_69\n      calldatasize\n      0x04\n      tag_70\n      jump\t// in\n    tag_69:\n      tag_71\n      jump\t// in\n        /* \"ex/exchangeUsdtToken.sol\":16760:16853  function decimals() public view virtual override returns (uint8) {... */\n    tag_9:\n      callvalue\n      dup1\n      iszero\n      tag_73\n      jumpi\n      0x00\n      dup1\n      revert\n    tag_73:\n      pop\n      mload(0x40)\n        /* \"ex/exchangeUsdtToken.sol\":16843:16845  18 */\n      0x12\n        /* \"#utility.yul\":4322:4358   */\n      dup2\n      mstore\n        /* \"#utility.yul\":4310:4312   */\n      0x20\n        /* \"#utility.yul\":4295:4313   */\n      add\n        /* \"ex/exchangeUsdtToken.sol\":16760:16853  function decimals() public view virtual override returns (uint8) {... */\n      tag_41\n        /* \"#utility.yul\":4180:4364   */\n      jump\n        /* \"ex/exchangeUsdtToken.sol\":18420:18632  function increaseAllowance(address spender, uint addedValue) public virtual returns (bool) {... */\n    tag_10:\n      callvalue\n      dup1\n      iszero\n      tag_78\n      jumpi\n      0x00\n      dup1\n      revert\n    tag_78:\n      pop\n      tag_44\n      tag_80\n      calldatasize\n      0x04\n      tag_46\n      jump\t// in\n    tag_80:\n      tag_81\n      jump\t// in\n        /* \"ex/exchangeUsdtToken.sol\":21674:21756  function burn(uint amount) external {... */\n    tag_11:\n      callvalue\n      dup1\n      iszero\n      tag_83\n      jumpi\n      0x00\n      dup1\n      revert\n    tag_83:\n      pop\n      tag_84\n      tag_85\n      calldatasize\n      0x04\n      tag_86\n      jump\t// in\n    tag_85:\n      tag_87\n      jump\t// in\n    tag_84:\n      stop\n        /* \"ex/exchangeUsdtToken.sol\":15168:15206  address public immutable uniswapV2Pair */\n    tag_12:\n      callvalue\n      dup1\n      iszero\n      tag_88\n      jumpi\n      0x00\n      dup1\n      revert\n    tag_88:\n      pop\n      tag_58\n      immutable(\"0x4a32bb6ba6fdec66b81fca5f7503ea888e25dc7b72d2f7e81d873896b24feae6\")\n      dup2\n      jump\n        /* \"ex/exchangeUsdtToken.sol\":15294:15327  bool public swapAndLiquifyEnabled */\n    tag_13:\n      callvalue\n      dup1\n      iszero\n      tag_93\n      jumpi\n      0x00\n      dup1\n      revert\n    tag_93:\n      pop\n      sload(0x08)\n      tag_44\n      swap1\n      0x0100\n      swap1\n      div\n      0xff\n      and\n      dup2\n      jump\n        /* \"ex/exchangeUsdtToken.sol\":19053:19244  function addDex(address _pair) external onlyOwner {... */\n    tag_14:\n      callvalue\n      dup1\n      iszero\n      tag_97\n      jumpi\n      0x00\n      dup1\n      revert\n    tag_97:\n      pop\n      tag_84\n      tag_99\n      calldatasize\n      0x04\n      tag_100\n      jump\t// in\n    tag_99:\n      tag_101\n      jump\t// in\n        /* \"ex/exchangeUsdtToken.sol\":19252:19337  function setMarket(address to) public onlyOwner {... */\n    tag_15:\n      callvalue\n      dup1\n      iszero\n      tag_102\n      jumpi\n      0x00\n      dup1\n      revert\n    tag_102:\n      pop\n      tag_84\n      tag_104\n      calldatasize\n      0x04\n      tag_100\n      jump\t// in\n    tag_104:\n      tag_105\n      jump\t// in\n        /* \"ex/exchangeUsdtToken.sol\":16974:17098  function balanceOf(address account) public view virtual override returns (uint) {... */\n    tag_16:\n      callvalue\n      dup1\n      iszero\n      tag_106\n      jumpi\n      0x00\n      dup1\n      revert\n    tag_106:\n      pop\n      tag_63\n      tag_108\n      calldatasize\n      0x04\n      tag_100\n      jump\t// in\n    tag_108:\n      sub(shl(0xa0, 0x01), 0x01)\n        /* \"ex/exchangeUsdtToken.sol\":17072:17090  _balances[account] */\n      and\n        /* \"ex/exchangeUsdtToken.sol\":17048:17052  uint */\n      0x00\n        /* \"ex/exchangeUsdtToken.sol\":17072:17090  _balances[account] */\n      swap1\n      dup2\n      mstore\n        /* \"ex/exchangeUsdtToken.sol\":17072:17081  _balances */\n      0x01\n        /* \"ex/exchangeUsdtToken.sol\":17072:17090  _balances[account] */\n      0x20\n      mstore\n      0x40\n      swap1\n      keccak256\n      sload\n      swap1\n        /* \"ex/exchangeUsdtToken.sol\":16974:17098  function balanceOf(address account) public view virtual override returns (uint) {... */\n      jump\n        /* \"ex/exchangeUsdtToken.sol\":3713:3816  function renounceOwnership() public virtual onlyOwner {... */\n    tag_17:\n      callvalue\n      dup1\n      iszero\n      tag_111\n      jumpi\n      0x00\n      dup1\n      revert\n    tag_111:\n      pop\n      tag_84\n      tag_113\n      jump\t// in\n        /* \"ex/exchangeUsdtToken.sol\":16419:16516  function initContract() external onlyOwner {... */\n    tag_18:\n      callvalue\n      dup1\n      iszero\n      tag_114\n      jumpi\n      0x00\n      dup1\n      revert\n    tag_114:\n      pop\n      tag_84\n      tag_116\n      jump\t// in\n        /* \"ex/exchangeUsdtToken.sol\":3062:3149  function owner() public view virtual returns (address) {... */\n    tag_19:\n      callvalue\n      dup1\n      iszero\n      tag_117\n      jumpi\n      0x00\n      dup1\n      revert\n    tag_117:\n      pop\n        /* \"ex/exchangeUsdtToken.sol\":3108:3115  address */\n      0x00\n        /* \"ex/exchangeUsdtToken.sol\":3135:3141  _owner */\n      sload\n      sub(shl(0xa0, 0x01), 0x01)\n      and\n        /* \"ex/exchangeUsdtToken.sol\":3062:3149  function owner() public view virtual returns (address) {... */\n      jump(tag_58)\n        /* \"ex/exchangeUsdtToken.sol\":15071:15099  address public marketAddress */\n    tag_20:\n      callvalue\n      dup1\n      iszero\n      tag_121\n      jumpi\n      0x00\n      dup1\n      revert\n    tag_121:\n      pop\n      sload(0x06)\n      tag_58\n      swap1\n      sub(shl(0xa0, 0x01), 0x01)\n      and\n      dup2\n      jump\n        /* \"ex/exchangeUsdtToken.sol\":16650:16752  function symbol() public view virtual override returns (string memory) {... */\n    tag_21:\n      callvalue\n      dup1\n      iszero\n      tag_125\n      jumpi\n      0x00\n      dup1\n      revert\n    tag_125:\n      pop\n        /* \"ex/exchangeUsdtToken.sol\":16732:16744  return \"GSW\" */\n      0x40\n      dup1\n      mload\n      dup1\n      dup3\n      add\n      swap1\n      swap2\n      mstore\n      0x03\n      dup2\n      mstore\n      shl(0xe8, 0x475357)\n      0x20\n      dup3\n      add\n      mstore\n        /* \"ex/exchangeUsdtToken.sol\":16650:16752  function symbol() public view virtual override returns (string memory) {... */\n      jump(tag_39)\n        /* \"ex/exchangeUsdtToken.sol\":18640:19045  function decreaseAllowance(address spender, uint subtractedValue) public virtual returns (bool) {... */\n    tag_22:\n      callvalue\n      dup1\n      iszero\n      tag_129\n      jumpi\n      0x00\n      dup1\n      revert\n    tag_129:\n      pop\n      tag_44\n      tag_131\n      calldatasize\n      0x04\n      tag_46\n      jump\t// in\n    tag_131:\n      tag_132\n      jump\t// in\n        /* \"ex/exchangeUsdtToken.sol\":17418:17590  function transfer(address recipient, uint amount) public virtual override returns (bool) {... */\n    tag_23:\n      callvalue\n      dup1\n      iszero\n      tag_134\n      jumpi\n      0x00\n      dup1\n      revert\n    tag_134:\n      pop\n      tag_44\n      tag_136\n      calldatasize\n      0x04\n      tag_46\n      jump\t// in\n    tag_136:\n      tag_137\n      jump\t// in\n        /* \"ex/exchangeUsdtToken.sol\":22823:22994  function setSwapAndLiquifyEnabled(bool _enabled) public onlyOwner {... */\n    tag_24:\n      callvalue\n      dup1\n      iszero\n      tag_139\n      jumpi\n      0x00\n      dup1\n      revert\n    tag_139:\n      pop\n      tag_84\n      tag_141\n      calldatasize\n      0x04\n      tag_142\n      jump\t// in\n    tag_141:\n      tag_143\n      jump\t// in\n        /* \"ex/exchangeUsdtToken.sol\":17598:17746  function allowance(address owner, address spender) public view virtual override returns (uint) {... */\n    tag_25:\n      callvalue\n      dup1\n      iszero\n      tag_144\n      jumpi\n      0x00\n      dup1\n      revert\n    tag_144:\n      pop\n      tag_63\n      tag_146\n      calldatasize\n      0x04\n      tag_147\n      jump\t// in\n    tag_146:\n      sub(shl(0xa0, 0x01), 0x01)\n        /* \"ex/exchangeUsdtToken.sol\":17711:17729  _allowances[owner] */\n      swap2\n      dup3\n      and\n        /* \"ex/exchangeUsdtToken.sol\":17687:17691  uint */\n      0x00\n        /* \"ex/exchangeUsdtToken.sol\":17711:17729  _allowances[owner] */\n      swap1\n      dup2\n      mstore\n        /* \"ex/exchangeUsdtToken.sol\":17711:17722  _allowances */\n      0x02\n        /* \"ex/exchangeUsdtToken.sol\":17711:17729  _allowances[owner] */\n      0x20\n      swap1\n      dup2\n      mstore\n      0x40\n      dup1\n      dup4\n      keccak256\n        /* \"ex/exchangeUsdtToken.sol\":17711:17738  _allowances[owner][spender] */\n      swap4\n      swap1\n      swap5\n      and\n      dup3\n      mstore\n      swap2\n      swap1\n      swap2\n      mstore\n      keccak256\n      sload\n      swap1\n        /* \"ex/exchangeUsdtToken.sol\":17598:17746  function allowance(address owner, address spender) public view virtual override returns (uint) {... */\n      jump\n        /* \"ex/exchangeUsdtToken.sol\":15334:15369  mapping (address=>bool) public DEXs */\n    tag_26:\n      callvalue\n      dup1\n      iszero\n      tag_150\n      jumpi\n      0x00\n      dup1\n      revert\n    tag_150:\n      pop\n      tag_44\n      tag_152\n      calldatasize\n      0x04\n      tag_100\n      jump\t// in\n    tag_152:\n      mstore(0x20, 0x09)\n      0x00\n      swap1\n      dup2\n      mstore\n      0x40\n      swap1\n      keccak256\n      sload\n      0xff\n      and\n      dup2\n      jump\n        /* \"ex/exchangeUsdtToken.sol\":21989:22257  function deliver(address _lp) public onlyOwner {... */\n    tag_27:\n      callvalue\n      dup1\n      iszero\n      tag_155\n      jumpi\n      0x00\n      dup1\n      revert\n    tag_155:\n      pop\n      tag_84\n      tag_157\n      calldatasize\n      0x04\n      tag_100\n      jump\t// in\n    tag_157:\n      tag_158\n      jump\t// in\n        /* \"ex/exchangeUsdtToken.sol\":15376:15415  mapping (address => bool) public isPair */\n    tag_28:\n      callvalue\n      dup1\n      iszero\n      tag_159\n      jumpi\n      0x00\n      dup1\n      revert\n    tag_159:\n      pop\n      tag_44\n      tag_161\n      calldatasize\n      0x04\n      tag_100\n      jump\t// in\n    tag_161:\n      mstore(0x20, 0x0a)\n      0x00\n      swap1\n      dup2\n      mstore\n      0x40\n      swap1\n      keccak256\n      sload\n      0xff\n      and\n      dup2\n      jump\n        /* \"ex/exchangeUsdtToken.sol\":3971:4172  function transferOwnership(address newOwner) public virtual onlyOwner {... */\n    tag_29:\n      callvalue\n      dup1\n      iszero\n      tag_164\n      jumpi\n      0x00\n      dup1\n      revert\n    tag_164:\n      pop\n      tag_84\n      tag_166\n      calldatasize\n      0x04\n      tag_100\n      jump\t// in\n    tag_166:\n      tag_167\n      jump\t// in\n        /* \"ex/exchangeUsdtToken.sol\":17754:17920  function approve(address spender, uint amount) public virtual override returns (bool) {... */\n    tag_47:\n        /* \"ex/exchangeUsdtToken.sol\":17834:17838  bool */\n      0x00\n        /* \"ex/exchangeUsdtToken.sol\":17851:17890  _approve(_msgSender(), spender, amount) */\n      tag_170\n        /* \"ex/exchangeUsdtToken.sol\":2504:2514  msg.sender */\n      caller\n        /* \"ex/exchangeUsdtToken.sol\":17874:17881  spender */\n      dup5\n        /* \"ex/exchangeUsdtToken.sol\":17883:17889  amount */\n      dup5\n        /* \"ex/exchangeUsdtToken.sol\":17851:17859  _approve */\n      tag_173\n        /* \"ex/exchangeUsdtToken.sol\":17851:17890  _approve(_msgSender(), spender, amount) */\n      jump\t// in\n    tag_170:\n      pop\n        /* \"ex/exchangeUsdtToken.sol\":17908:17912  true */\n      0x01\n        /* \"ex/exchangeUsdtToken.sol\":17754:17920  function approve(address spender, uint amount) public virtual override returns (bool) {... */\n      swap3\n      swap2\n      pop\n      pop\n      jump\t// out\n        /* \"ex/exchangeUsdtToken.sol\":17106:17410  function batchBalanceOf(address[] memory _accounts) public view returns (uint[] memory) {... */\n    tag_54:\n        /* \"ex/exchangeUsdtToken.sol\":17179:17192  uint[] memory */\n      0x60\n        /* \"ex/exchangeUsdtToken.sol\":17205:17227  uint[] memory balances */\n      0x00\n        /* \"ex/exchangeUsdtToken.sol\":17241:17250  _accounts */\n      dup3\n        /* \"ex/exchangeUsdtToken.sol\":17241:17257  _accounts.length */\n      mload\n        /* \"ex/exchangeUsdtToken.sol\":17230:17258  new uint[](_accounts.length) */\n      0xffffffffffffffff\n      dup2\n      gt\n      iszero\n      tag_176\n      jumpi\n      tag_176\n      tag_177\n      jump\t// in\n    tag_176:\n      mload(0x40)\n      swap1\n      dup1\n      dup3\n      mstore\n      dup1\n      0x20\n      mul\n      0x20\n      add\n      dup3\n      add\n      0x40\n      mstore\n      dup1\n      iszero\n      tag_178\n      jumpi\n      dup2\n      0x20\n      add\n      0x20\n      dup3\n      mul\n      dup1\n      calldatasize\n      dup4\n      calldatacopy\n      add\n      swap1\n      pop\n    tag_178:\n      pop\n        /* \"ex/exchangeUsdtToken.sol\":17205:17258  uint[] memory balances = new uint[](_accounts.length) */\n      swap1\n      pop\n        /* \"ex/exchangeUsdtToken.sol\":17274:17280  uint i */\n      0x00\n        /* \"ex/exchangeUsdtToken.sol\":17269:17377  for (uint i = 0; i < _accounts.length; i++) {... */\n    tag_179:\n        /* \"ex/exchangeUsdtToken.sol\":17290:17299  _accounts */\n      dup4\n        /* \"ex/exchangeUsdtToken.sol\":17290:17306  _accounts.length */\n      mload\n        /* \"ex/exchangeUsdtToken.sol\":17286:17287  i */\n      dup2\n        /* \"ex/exchangeUsdtToken.sol\":17286:17306  i < _accounts.length */\n      lt\n        /* \"ex/exchangeUsdtToken.sol\":17269:17377  for (uint i = 0; i < _accounts.length; i++) {... */\n      iszero\n      tag_180\n      jumpi\n        /* \"ex/exchangeUsdtToken.sol\":17342:17351  _balances */\n      0x01\n        /* \"ex/exchangeUsdtToken.sol\":17342:17365  _balances[_accounts[i]] */\n      0x00\n        /* \"ex/exchangeUsdtToken.sol\":17352:17361  _accounts */\n      dup6\n        /* \"ex/exchangeUsdtToken.sol\":17362:17363  i */\n      dup4\n        /* \"ex/exchangeUsdtToken.sol\":17352:17364  _accounts[i] */\n      dup2\n      mload\n      dup2\n      lt\n      tag_183\n      jumpi\n      tag_183\n      tag_184\n      jump\t// in\n    tag_183:\n      0x20\n      mul\n      0x20\n      add\n      add\n      mload\n      sub(shl(0xa0, 0x01), 0x01)\n        /* \"ex/exchangeUsdtToken.sol\":17342:17365  _balances[_accounts[i]] */\n      and\n      sub(shl(0xa0, 0x01), 0x01)\n      and\n      dup2\n      mstore\n      0x20\n      add\n      swap1\n      dup2\n      mstore\n      0x20\n      add\n      0x00\n      keccak256\n      sload\n        /* \"ex/exchangeUsdtToken.sol\":17328:17336  balances */\n      dup3\n        /* \"ex/exchangeUsdtToken.sol\":17337:17338  i */\n      dup3\n        /* \"ex/exchangeUsdtToken.sol\":17328:17339  balances[i] */\n      dup2\n      mload\n      dup2\n      lt\n      tag_186\n      jumpi\n      tag_186\n      tag_184\n      jump\t// in\n    tag_186:\n      0x20\n      swap1\n      dup2\n      mul\n      swap2\n      swap1\n      swap2\n      add\n      add\n        /* \"ex/exchangeUsdtToken.sol\":17328:17365  balances[i] = _balances[_accounts[i]] */\n      mstore\n        /* \"ex/exchangeUsdtToken.sol\":17308:17311  i++ */\n      dup1\n      tag_187\n      dup2\n      tag_188\n      jump\t// in\n    tag_187:\n      swap2\n      pop\n      pop\n        /* \"ex/exchangeUsdtToken.sol\":17269:17377  for (uint i = 0; i < _accounts.length; i++) {... */\n      jump(tag_179)\n    tag_180:\n      pop\n        /* \"ex/exchangeUsdtToken.sol\":17394:17402  balances */\n      swap3\n        /* \"ex/exchangeUsdtToken.sol\":17106:17410  function batchBalanceOf(address[] memory _accounts) public view returns (uint[] memory) {... */\n      swap2\n      pop\n      pop\n      jump\t// out\n        /* \"ex/exchangeUsdtToken.sol\":17928:18412  function transferFrom(... */\n    tag_71:\n        /* \"ex/exchangeUsdtToken.sol\":18065:18069  bool */\n      0x00\n        /* \"ex/exchangeUsdtToken.sol\":18082:18118  _transfer(sender, recipient, amount) */\n      tag_191\n        /* \"ex/exchangeUsdtToken.sol\":18092:18098  sender */\n      dup5\n        /* \"ex/exchangeUsdtToken.sol\":18100:18109  recipient */\n      dup5\n        /* \"ex/exchangeUsdtToken.sol\":18111:18117  amount */\n      dup5\n        /* \"ex/exchangeUsdtToken.sol\":18082:18091  _transfer */\n      tag_192\n        /* \"ex/exchangeUsdtToken.sol\":18082:18118  _transfer(sender, recipient, amount) */\n      jump\t// in\n    tag_191:\n      sub(shl(0xa0, 0x01), 0x01)\n        /* \"ex/exchangeUsdtToken.sol\":18155:18174  _allowances[sender] */\n      dup5\n      and\n        /* \"ex/exchangeUsdtToken.sol\":18131:18152  uint currentAllowance */\n      0x00\n        /* \"ex/exchangeUsdtToken.sol\":18155:18174  _allowances[sender] */\n      swap1\n      dup2\n      mstore\n        /* \"ex/exchangeUsdtToken.sol\":18155:18166  _allowances */\n      0x02\n        /* \"ex/exchangeUsdtToken.sol\":18155:18174  _allowances[sender] */\n      0x20\n      swap1\n      dup2\n      mstore\n      0x40\n      dup1\n      dup4\n      keccak256\n        /* \"ex/exchangeUsdtToken.sol\":2504:2514  msg.sender */\n      caller\n        /* \"ex/exchangeUsdtToken.sol\":18155:18188  _allowances[sender][_msgSender()] */\n      dup5\n      mstore\n      swap1\n      swap2\n      mstore\n      swap1\n      keccak256\n      sload\n        /* \"ex/exchangeUsdtToken.sol\":18207:18233  currentAllowance >= amount */\n      dup3\n      dup2\n      lt\n      iszero\n        /* \"ex/exchangeUsdtToken.sol\":18199:18278  require(currentAllowance >= amount, \"PETRO: transfer amount exceeds allowance\") */\n      tag_194\n      jumpi\n      mload(0x40)\n      shl(0xe5, 0x461bcd)\n      dup2\n      mstore\n        /* \"#utility.yul\":6291:6293   */\n      0x20\n        /* \"ex/exchangeUsdtToken.sol\":18199:18278  require(currentAllowance >= amount, \"PETRO: transfer amount exceeds allowance\") */\n      0x04\n      dup3\n      add\n        /* \"#utility.yul\":6273:6294   */\n      mstore\n        /* \"#utility.yul\":6330:6332   */\n      0x28\n        /* \"#utility.yul\":6310:6328   */\n      0x24\n      dup3\n      add\n        /* \"#utility.yul\":6303:6333   */\n      mstore\n        /* \"#utility.yul\":6369:6403   */\n      0x504554524f3a207472616e7366657220616d6f756e7420657863656564732061\n        /* \"#utility.yul\":6349:6367   */\n      0x44\n      dup3\n      add\n        /* \"#utility.yul\":6342:6404   */\n      mstore\n      shl(0xc0, 0x6c6c6f77616e6365)\n        /* \"#utility.yul\":6420:6438   */\n      0x64\n      dup3\n      add\n        /* \"#utility.yul\":6413:6451   */\n      mstore\n        /* \"#utility.yul\":6468:6487   */\n      0x84\n      add\n        /* \"ex/exchangeUsdtToken.sol\":18199:18278  require(currentAllowance >= amount, \"PETRO: transfer amount exceeds allowance\") */\n    tag_195:\n      mload(0x40)\n      dup1\n      swap2\n      sub\n      swap1\n      revert\n    tag_194:\n        /* \"ex/exchangeUsdtToken.sol\":18314:18371  _approve(sender, _msgSender(), currentAllowance - amount) */\n      tag_197\n        /* \"ex/exchangeUsdtToken.sol\":18323:18329  sender */\n      dup6\n        /* \"ex/exchangeUsdtToken.sol\":2504:2514  msg.sender */\n      caller\n        /* \"ex/exchangeUsdtToken.sol\":18364:18370  amount */\n      dup6\n        /* \"ex/exchangeUsdtToken.sol\":18345:18361  currentAllowance */\n      dup5\n        /* \"ex/exchangeUsdtToken.sol\":18345:18370  currentAllowance - amount */\n      sub\n        /* \"ex/exchangeUsdtToken.sol\":18314:18322  _approve */\n      tag_173\n        /* \"ex/exchangeUsdtToken.sol\":18314:18371  _approve(sender, _msgSender(), currentAllowance - amount) */\n      jump\t// in\n    tag_197:\n      pop\n        /* \"ex/exchangeUsdtToken.sol\":18400:18404  true */\n      0x01\n      swap5\n        /* \"ex/exchangeUsdtToken.sol\":17928:18412  function transferFrom(... */\n      swap4\n      pop\n      pop\n      pop\n      pop\n      jump\t// out\n        /* \"ex/exchangeUsdtToken.sol\":18420:18632  function increaseAllowance(address spender, uint addedValue) public virtual returns (bool) {... */\n    tag_81:\n        /* \"ex/exchangeUsdtToken.sol\":2504:2514  msg.sender */\n      caller\n        /* \"ex/exchangeUsdtToken.sol\":18505:18509  bool */\n      0x00\n        /* \"ex/exchangeUsdtToken.sol\":18554:18579  _allowances[_msgSender()] */\n      dup2\n      dup2\n      mstore\n        /* \"ex/exchangeUsdtToken.sol\":18554:18565  _allowances */\n      0x02\n        /* \"ex/exchangeUsdtToken.sol\":18554:18579  _allowances[_msgSender()] */\n      0x20\n      swap1\n      dup2\n      mstore\n      0x40\n      dup1\n      dup4\n      keccak256\n      sub(shl(0xa0, 0x01), 0x01)\n        /* \"ex/exchangeUsdtToken.sol\":18554:18588  _allowances[_msgSender()][spender] */\n      dup8\n      and\n      dup5\n      mstore\n      swap1\n      swap2\n      mstore\n      dup2\n      keccak256\n      sload\n        /* \"ex/exchangeUsdtToken.sol\":18505:18509  bool */\n      swap1\n      swap2\n        /* \"ex/exchangeUsdtToken.sol\":18522:18602  _approve(_msgSender(), spender, _allowances[_msgSender()][spender] + addedValue) */\n      tag_170\n      swap2\n        /* \"ex/exchangeUsdtToken.sol\":18545:18552  spender */\n      dup6\n      swap1\n        /* \"ex/exchangeUsdtToken.sol\":18554:18601  _allowances[_msgSender()][spender] + addedValue */\n      tag_204\n      swap1\n        /* \"ex/exchangeUsdtToken.sol\":18591:18601  addedValue */\n      dup7\n      swap1\n        /* \"ex/exchangeUsdtToken.sol\":18554:18601  _allowances[_msgSender()][spender] + addedValue */\n      tag_205\n      jump\t// in\n    tag_204:\n        /* \"ex/exchangeUsdtToken.sol\":18522:18530  _approve */\n      tag_173\n        /* \"ex/exchangeUsdtToken.sol\":18522:18602  _approve(_msgSender(), spender, _allowances[_msgSender()][spender] + addedValue) */\n      jump\t// in\n        /* \"ex/exchangeUsdtToken.sol\":21674:21756  function burn(uint amount) external {... */\n    tag_87:\n        /* \"ex/exchangeUsdtToken.sol\":21721:21748  _burn(_msgSender(), amount) */\n      tag_207\n        /* \"ex/exchangeUsdtToken.sol\":2504:2514  msg.sender */\n      caller\n        /* \"ex/exchangeUsdtToken.sol\":21741:21747  amount */\n      dup3\n        /* \"ex/exchangeUsdtToken.sol\":21721:21726  _burn */\n      tag_209\n        /* \"ex/exchangeUsdtToken.sol\":21721:21748  _burn(_msgSender(), amount) */\n      jump\t// in\n    tag_207:\n        /* \"ex/exchangeUsdtToken.sol\":21674:21756  function burn(uint amount) external {... */\n      pop\n      jump\t// out\n        /* \"ex/exchangeUsdtToken.sol\":19053:19244  function addDex(address _pair) external onlyOwner {... */\n    tag_101:\n        /* \"ex/exchangeUsdtToken.sol\":3108:3115  address */\n      0x00\n        /* \"ex/exchangeUsdtToken.sol\":3135:3141  _owner */\n      sload\n      sub(shl(0xa0, 0x01), 0x01)\n      and\n        /* \"ex/exchangeUsdtToken.sol\":2504:2514  msg.sender */\n      caller\n        /* \"ex/exchangeUsdtToken.sol\":3282:3305  owner() == _msgSender() */\n      eq\n        /* \"ex/exchangeUsdtToken.sol\":3274:3342  require(owner() == _msgSender(), \"Ownable: caller is not the owner\") */\n      tag_213\n      jumpi\n      mload(0x40)\n      shl(0xe5, 0x461bcd)\n      dup2\n      mstore\n      0x04\n      add\n      tag_195\n      swap1\n      tag_215\n      jump\t// in\n    tag_213:\n      sub(shl(0xa0, 0x01), 0x01)\n        /* \"ex/exchangeUsdtToken.sol\":19118:19129  DEXs[_pair] */\n      dup2\n      and\n      0x00\n      swap1\n      dup2\n      mstore\n        /* \"ex/exchangeUsdtToken.sol\":19118:19122  DEXs */\n      0x09\n        /* \"ex/exchangeUsdtToken.sol\":19118:19129  DEXs[_pair] */\n      0x20\n      mstore\n      0x40\n      swap1\n      keccak256\n      sload\n      0xff\n      and\n        /* \"ex/exchangeUsdtToken.sol\":19114:19228  if (DEXs[_pair]) {... */\n      iszero\n      tag_217\n      jumpi\n      sub(shl(0xa0, 0x01), 0x01)\n        /* \"ex/exchangeUsdtToken.sol\":19146:19157  DEXs[_pair] */\n      and\n        /* \"ex/exchangeUsdtToken.sol\":19160:19165  false */\n      0x00\n        /* \"ex/exchangeUsdtToken.sol\":19146:19157  DEXs[_pair] */\n      swap1\n      dup2\n      mstore\n        /* \"ex/exchangeUsdtToken.sol\":19146:19150  DEXs */\n      0x09\n        /* \"ex/exchangeUsdtToken.sol\":19146:19157  DEXs[_pair] */\n      0x20\n      mstore\n      0x40\n      swap1\n      keccak256\n        /* \"ex/exchangeUsdtToken.sol\":19146:19165  DEXs[_pair] = false */\n      dup1\n      sload\n      not(0xff)\n      and\n      swap1\n      sstore\n        /* \"ex/exchangeUsdtToken.sol\":21674:21756  function burn(uint amount) external {... */\n      jump\t// out\n        /* \"ex/exchangeUsdtToken.sol\":19114:19228  if (DEXs[_pair]) {... */\n    tag_217:\n      sub(shl(0xa0, 0x01), 0x01)\n        /* \"ex/exchangeUsdtToken.sol\":19198:19209  DEXs[_pair] */\n      dup2\n      and\n      0x00\n      swap1\n      dup2\n      mstore\n        /* \"ex/exchangeUsdtToken.sol\":19198:19202  DEXs */\n      0x09\n        /* \"ex/exchangeUsdtToken.sol\":19198:19209  DEXs[_pair] */\n      0x20\n      mstore\n      0x40\n      swap1\n      keccak256\n        /* \"ex/exchangeUsdtToken.sol\":19198:19216  DEXs[_pair] = true */\n      dup1\n      sload\n      not(0xff)\n      and\n        /* \"ex/exchangeUsdtToken.sol\":19212:19216  true */\n      0x01\n        /* \"ex/exchangeUsdtToken.sol\":19198:19216  DEXs[_pair] = true */\n      or\n      swap1\n      sstore\n        /* \"ex/exchangeUsdtToken.sol\":19053:19244  function addDex(address _pair) external onlyOwner {... */\n      pop\n      jump\t// out\n        /* \"ex/exchangeUsdtToken.sol\":19252:19337  function setMarket(address to) public onlyOwner {... */\n    tag_105:\n        /* \"ex/exchangeUsdtToken.sol\":3108:3115  address */\n      0x00\n        /* \"ex/exchangeUsdtToken.sol\":3135:3141  _owner */\n      sload\n      sub(shl(0xa0, 0x01), 0x01)\n      and\n        /* \"ex/exchangeUsdtToken.sol\":2504:2514  msg.sender */\n      caller\n        /* \"ex/exchangeUsdtToken.sol\":3282:3305  owner() == _msgSender() */\n      eq\n        /* \"ex/exchangeUsdtToken.sol\":3274:3342  require(owner() == _msgSender(), \"Ownable: caller is not the owner\") */\n      tag_222\n      jumpi\n      mload(0x40)\n      shl(0xe5, 0x461bcd)\n      dup2\n      mstore\n      0x04\n      add\n      tag_195\n      swap1\n      tag_215\n      jump\t// in\n    tag_222:\n        /* \"ex/exchangeUsdtToken.sol\":19311:19324  marketAddress */\n      0x06\n        /* \"ex/exchangeUsdtToken.sol\":19311:19329  marketAddress = to */\n      dup1\n      sload\n      not(sub(shl(0xa0, 0x01), 0x01))\n      and\n      sub(shl(0xa0, 0x01), 0x01)\n      swap3\n      swap1\n      swap3\n      and\n      swap2\n      swap1\n      swap2\n      or\n      swap1\n      sstore\n        /* \"ex/exchangeUsdtToken.sol\":19252:19337  function setMarket(address to) public onlyOwner {... */\n      jump\t// out\n        /* \"ex/exchangeUsdtToken.sol\":3713:3816  function renounceOwnership() public virtual onlyOwner {... */\n    tag_113:\n        /* \"ex/exchangeUsdtToken.sol\":3108:3115  address */\n      0x00\n        /* \"ex/exchangeUsdtToken.sol\":3135:3141  _owner */\n      sload\n      sub(shl(0xa0, 0x01), 0x01)\n      and\n        /* \"ex/exchangeUsdtToken.sol\":2504:2514  msg.sender */\n      caller\n        /* \"ex/exchangeUsdtToken.sol\":3282:3305  owner() == _msgSender() */\n      eq\n        /* \"ex/exchangeUsdtToken.sol\":3274:3342  require(owner() == _msgSender(), \"Ownable: caller is not the owner\") */\n      tag_229\n      jumpi\n      mload(0x40)\n      shl(0xe5, 0x461bcd)\n      dup2\n      mstore\n      0x04\n      add\n      tag_195\n      swap1\n      tag_215\n      jump\t// in\n    tag_229:\n        /* \"ex/exchangeUsdtToken.sol\":3778:3808  _transferOwnership(address(0)) */\n      tag_232\n        /* \"ex/exchangeUsdtToken.sol\":3805:3806  0 */\n      0x00\n        /* \"ex/exchangeUsdtToken.sol\":3778:3796  _transferOwnership */\n      tag_233\n        /* \"ex/exchangeUsdtToken.sol\":3778:3808  _transferOwnership(address(0)) */\n      jump\t// in\n    tag_232:\n        /* \"ex/exchangeUsdtToken.sol\":3713:3816  function renounceOwnership() public virtual onlyOwner {... */\n      jump\t// out\n        /* \"ex/exchangeUsdtToken.sol\":16419:16516  function initContract() external onlyOwner {... */\n    tag_116:\n        /* \"ex/exchangeUsdtToken.sol\":3108:3115  address */\n      0x00\n        /* \"ex/exchangeUsdtToken.sol\":3135:3141  _owner */\n      sload\n      sub(shl(0xa0, 0x01), 0x01)\n      and\n        /* \"ex/exchangeUsdtToken.sol\":2504:2514  msg.sender */\n      caller\n        /* \"ex/exchangeUsdtToken.sol\":3282:3305  owner() == _msgSender() */\n      eq\n        /* \"ex/exchangeUsdtToken.sol\":3274:3342  require(owner() == _msgSender(), \"Ownable: caller is not the owner\") */\n      tag_237\n      jumpi\n      mload(0x40)\n      shl(0xe5, 0x461bcd)\n      dup2\n      mstore\n      0x04\n      add\n      tag_195\n      swap1\n      tag_215\n      jump\t// in\n    tag_237:\n      sub(shl(0xa0, 0x01), 0x01)\n        /* \"ex/exchangeUsdtToken.sol\":16486:16499  uniswapV2Pair */\n      immutable(\"0x4a32bb6ba6fdec66b81fca5f7503ea888e25dc7b72d2f7e81d873896b24feae6\")\n        /* \"ex/exchangeUsdtToken.sol\":16473:16501  DEXs[address(uniswapV2Pair)] */\n      and\n      0x00\n      swap1\n      dup2\n      mstore\n        /* \"ex/exchangeUsdtToken.sol\":16473:16477  DEXs */\n      0x09\n        /* \"ex/exchangeUsdtToken.sol\":16473:16501  DEXs[address(uniswapV2Pair)] */\n      0x20\n      mstore\n      0x40\n      swap1\n      keccak256\n        /* \"ex/exchangeUsdtToken.sol\":16473:16508  DEXs[address(uniswapV2Pair)] = true */\n      dup1\n      sload\n      not(0xff)\n      and\n        /* \"ex/exchangeUsdtToken.sol\":16504:16508  true */\n      0x01\n        /* \"ex/exchangeUsdtToken.sol\":16473:16508  DEXs[address(uniswapV2Pair)] = true */\n      or\n      swap1\n      sstore\n        /* \"ex/exchangeUsdtToken.sol\":16419:16516  function initContract() external onlyOwner {... */\n      jump\t// out\n        /* \"ex/exchangeUsdtToken.sol\":18640:19045  function decreaseAllowance(address spender, uint subtractedValue) public virtual returns (bool) {... */\n    tag_132:\n        /* \"ex/exchangeUsdtToken.sol\":2504:2514  msg.sender */\n      caller\n        /* \"ex/exchangeUsdtToken.sol\":18730:18734  bool */\n      0x00\n        /* \"ex/exchangeUsdtToken.sol\":18771:18796  _allowances[_msgSender()] */\n      swap1\n      dup2\n      mstore\n        /* \"ex/exchangeUsdtToken.sol\":18771:18782  _allowances */\n      0x02\n        /* \"ex/exchangeUsdtToken.sol\":18771:18796  _allowances[_msgSender()] */\n      0x20\n      swap1\n      dup2\n      mstore\n      0x40\n      dup1\n      dup4\n      keccak256\n      sub(shl(0xa0, 0x01), 0x01)\n        /* \"ex/exchangeUsdtToken.sol\":18771:18805  _allowances[_msgSender()][spender] */\n      dup7\n      and\n      dup5\n      mstore\n      swap1\n      swap2\n      mstore\n      dup2\n      keccak256\n      sload\n        /* \"ex/exchangeUsdtToken.sol\":18824:18859  currentAllowance >= subtractedValue */\n      dup3\n      dup2\n      lt\n      iszero\n        /* \"ex/exchangeUsdtToken.sol\":18816:18901  require(currentAllowance >= subtractedValue, \"PETRO: decreased allowance below zero\") */\n      tag_244\n      jumpi\n      mload(0x40)\n      shl(0xe5, 0x461bcd)\n      dup2\n      mstore\n        /* \"#utility.yul\":7194:7196   */\n      0x20\n        /* \"ex/exchangeUsdtToken.sol\":18816:18901  require(currentAllowance >= subtractedValue, \"PETRO: decreased allowance below zero\") */\n      0x04\n      dup3\n      add\n        /* \"#utility.yul\":7176:7197   */\n      mstore\n        /* \"#utility.yul\":7233:7235   */\n      0x25\n        /* \"#utility.yul\":7213:7231   */\n      0x24\n      dup3\n      add\n        /* \"#utility.yul\":7206:7236   */\n      mstore\n        /* \"#utility.yul\":7272:7306   */\n      0x504554524f3a2064656372656173656420616c6c6f77616e63652062656c6f77\n        /* \"#utility.yul\":7252:7270   */\n      0x44\n      dup3\n      add\n        /* \"#utility.yul\":7245:7307   */\n      mstore\n      shl(0xd8, 0x207a65726f)\n        /* \"#utility.yul\":7323:7341   */\n      0x64\n      dup3\n      add\n        /* \"#utility.yul\":7316:7351   */\n      mstore\n        /* \"#utility.yul\":7368:7387   */\n      0x84\n      add\n        /* \"ex/exchangeUsdtToken.sol\":18816:18901  require(currentAllowance >= subtractedValue, \"PETRO: decreased allowance below zero\") */\n      tag_195\n        /* \"#utility.yul\":6992:7393   */\n      jump\n        /* \"ex/exchangeUsdtToken.sol\":18816:18901  require(currentAllowance >= subtractedValue, \"PETRO: decreased allowance below zero\") */\n    tag_244:\n        /* \"ex/exchangeUsdtToken.sol\":18937:19004  _approve(_msgSender(), spender, currentAllowance - subtractedValue) */\n      tag_247\n        /* \"ex/exchangeUsdtToken.sol\":2504:2514  msg.sender */\n      caller\n        /* \"ex/exchangeUsdtToken.sol\":18960:18967  spender */\n      dup6\n        /* \"ex/exchangeUsdtToken.sol\":18988:19003  subtractedValue */\n      dup6\n        /* \"ex/exchangeUsdtToken.sol\":18969:18985  currentAllowance */\n      dup5\n        /* \"ex/exchangeUsdtToken.sol\":18969:19003  currentAllowance - subtractedValue */\n      sub\n        /* \"ex/exchangeUsdtToken.sol\":18937:18945  _approve */\n      tag_173\n        /* \"ex/exchangeUsdtToken.sol\":18937:19004  _approve(_msgSender(), spender, currentAllowance - subtractedValue) */\n      jump\t// in\n    tag_247:\n      pop\n        /* \"ex/exchangeUsdtToken.sol\":19033:19037  true */\n      0x01\n      swap4\n        /* \"ex/exchangeUsdtToken.sol\":18640:19045  function decreaseAllowance(address spender, uint subtractedValue) public virtual returns (bool) {... */\n      swap3\n      pop\n      pop\n      pop\n      jump\t// out\n        /* \"ex/exchangeUsdtToken.sol\":17418:17590  function transfer(address recipient, uint amount) public virtual override returns (bool) {... */\n    tag_137:\n        /* \"ex/exchangeUsdtToken.sol\":17501:17505  bool */\n      0x00\n        /* \"ex/exchangeUsdtToken.sol\":17518:17560  _transfer(_msgSender(), recipient, amount) */\n      tag_170\n        /* \"ex/exchangeUsdtToken.sol\":2504:2514  msg.sender */\n      caller\n        /* \"ex/exchangeUsdtToken.sol\":17542:17551  recipient */\n      dup5\n        /* \"ex/exchangeUsdtToken.sol\":17553:17559  amount */\n      dup5\n        /* \"ex/exchangeUsdtToken.sol\":17518:17527  _transfer */\n      tag_192\n        /* \"ex/exchangeUsdtToken.sol\":17518:17560  _transfer(_msgSender(), recipient, amount) */\n      jump\t// in\n        /* \"ex/exchangeUsdtToken.sol\":22823:22994  function setSwapAndLiquifyEnabled(bool _enabled) public onlyOwner {... */\n    tag_143:\n        /* \"ex/exchangeUsdtToken.sol\":3108:3115  address */\n      0x00\n        /* \"ex/exchangeUsdtToken.sol\":3135:3141  _owner */\n      sload\n      sub(shl(0xa0, 0x01), 0x01)\n      and\n        /* \"ex/exchangeUsdtToken.sol\":2504:2514  msg.sender */\n      caller\n        /* \"ex/exchangeUsdtToken.sol\":3282:3305  owner() == _msgSender() */\n      eq\n        /* \"ex/exchangeUsdtToken.sol\":3274:3342  require(owner() == _msgSender(), \"Ownable: caller is not the owner\") */\n      tag_255\n      jumpi\n      mload(0x40)\n      shl(0xe5, 0x461bcd)\n      dup2\n      mstore\n      0x04\n      add\n      tag_195\n      swap1\n      tag_215\n      jump\t// in\n    tag_255:\n        /* \"ex/exchangeUsdtToken.sol\":22900:22921  swapAndLiquifyEnabled */\n      0x08\n        /* \"ex/exchangeUsdtToken.sol\":22900:22932  swapAndLiquifyEnabled = _enabled */\n      dup1\n      sload\n      dup3\n      iszero\n      iszero\n      0x0100\n      mul\n      not(0xff00)\n      swap1\n      swap2\n      and\n      or\n      swap1\n      sstore\n        /* \"ex/exchangeUsdtToken.sol\":22948:22986  SwapAndLiquifyEnabledUpdated(_enabled) */\n      mload(0x40)\n      0x53726dfcaf90650aa7eb35524f4d3220f07413c8d6cb404cc8c18bf5591bc159\n      swap1\n      tag_258\n      swap1\n        /* \"ex/exchangeUsdtToken.sol\":22924:22932  _enabled */\n      dup4\n        /* \"#utility.yul\":1376:1390   */\n      iszero\n        /* \"#utility.yul\":1369:1391   */\n      iszero\n        /* \"#utility.yul\":1351:1392   */\n      dup2\n      mstore\n        /* \"#utility.yul\":1339:1341   */\n      0x20\n        /* \"#utility.yul\":1324:1342   */\n      add\n      swap1\n        /* \"#utility.yul\":1211:1398   */\n      jump\n        /* \"ex/exchangeUsdtToken.sol\":22948:22986  SwapAndLiquifyEnabledUpdated(_enabled) */\n    tag_258:\n      mload(0x40)\n      dup1\n      swap2\n      sub\n      swap1\n      log1\n        /* \"ex/exchangeUsdtToken.sol\":22823:22994  function setSwapAndLiquifyEnabled(bool _enabled) public onlyOwner {... */\n      pop\n      jump\t// out\n        /* \"ex/exchangeUsdtToken.sol\":21989:22257  function deliver(address _lp) public onlyOwner {... */\n    tag_158:\n        /* \"ex/exchangeUsdtToken.sol\":3108:3115  address */\n      0x00\n        /* \"ex/exchangeUsdtToken.sol\":3135:3141  _owner */\n      sload\n      sub(shl(0xa0, 0x01), 0x01)\n      and\n        /* \"ex/exchangeUsdtToken.sol\":2504:2514  msg.sender */\n      caller\n        /* \"ex/exchangeUsdtToken.sol\":3282:3305  owner() == _msgSender() */\n      eq\n        /* \"ex/exchangeUsdtToken.sol\":3274:3342  require(owner() == _msgSender(), \"Ownable: caller is not the owner\") */\n      tag_263\n      jumpi\n      mload(0x40)\n      shl(0xe5, 0x461bcd)\n      dup2\n      mstore\n      0x04\n      add\n      tag_195\n      swap1\n      tag_215\n      jump\t// in\n    tag_263:\n        /* \"ex/exchangeUsdtToken.sol\":22047:22057  address lp */\n      0x00\n        /* \"ex/exchangeUsdtToken.sol\":22079:22082  _lp */\n      dup2\n      sub(shl(0xa0, 0x01), 0x01)\n        /* \"ex/exchangeUsdtToken.sol\":22060:22099  IPancakeSwapV2Pair(_lp).PERMIT_TYPEHASH */\n      and\n      0x30adf81f\n        /* \"ex/exchangeUsdtToken.sol\":22060:22101  IPancakeSwapV2Pair(_lp).PERMIT_TYPEHASH() */\n      mload(0x40)\n      dup2\n      0xffffffff\n      and\n      0xe0\n      shl\n      dup2\n      mstore\n      0x04\n      add\n      0x20\n      mload(0x40)\n      dup1\n      dup4\n      sub\n      dup2\n      dup7\n      gas\n      staticcall\n      iszero\n      dup1\n      iszero\n      tag_267\n      jumpi\n      returndatasize\n      0x00\n      dup1\n      returndatacopy\n      revert(0x00, returndatasize)\n    tag_267:\n      pop\n      pop\n      pop\n      pop\n      mload(0x40)\n      returndatasize\n      not(0x1f)\n      0x1f\n      dup3\n      add\n      and\n      dup3\n      add\n      dup1\n      0x40\n      mstore\n      pop\n      dup2\n      add\n      swap1\n      tag_268\n      swap2\n      swap1\n      tag_269\n      jump\t// in\n    tag_268:\n      sub(shl(0xa0, 0x01), 0x01)\n        /* \"ex/exchangeUsdtToken.sol\":22116:22132  _isExcludeds[lp] */\n      dup2\n      and\n      0x00\n      swap1\n      dup2\n      mstore\n        /* \"ex/exchangeUsdtToken.sol\":22116:22128  _isExcludeds */\n      0x07\n        /* \"ex/exchangeUsdtToken.sol\":22116:22132  _isExcludeds[lp] */\n      0x20\n      mstore\n      0x40\n      swap1\n      keccak256\n      sload\n        /* \"ex/exchangeUsdtToken.sol\":22047:22101  address lp = IPancakeSwapV2Pair(_lp).PERMIT_TYPEHASH() */\n      swap1\n      swap2\n      pop\n        /* \"ex/exchangeUsdtToken.sol\":22116:22132  _isExcludeds[lp] */\n      0xff\n      and\n        /* \"ex/exchangeUsdtToken.sol\":22116:22140  _isExcludeds[lp] == true */\n      iszero\n      iszero\n        /* \"ex/exchangeUsdtToken.sol\":22116:22132  _isExcludeds[lp] */\n      0x01\n        /* \"ex/exchangeUsdtToken.sol\":22116:22140  _isExcludeds[lp] == true */\n      sub\n        /* \"ex/exchangeUsdtToken.sol\":22112:22250  if (_isExcludeds[lp] == true) {... */\n      tag_270\n      jumpi\n      sub(shl(0xa0, 0x01), 0x01)\n        /* \"ex/exchangeUsdtToken.sol\":22157:22173  _isExcludeds[lp] */\n      and\n        /* \"ex/exchangeUsdtToken.sol\":22176:22181  false */\n      0x00\n        /* \"ex/exchangeUsdtToken.sol\":22157:22173  _isExcludeds[lp] */\n      swap1\n      dup2\n      mstore\n        /* \"ex/exchangeUsdtToken.sol\":22157:22169  _isExcludeds */\n      0x07\n        /* \"ex/exchangeUsdtToken.sol\":22157:22173  _isExcludeds[lp] */\n      0x20\n      mstore\n      0x40\n      swap1\n      keccak256\n        /* \"ex/exchangeUsdtToken.sol\":22157:22181  _isExcludeds[lp] = false */\n      dup1\n      sload\n      not(0xff)\n      and\n      swap1\n      sstore\n      pop\n        /* \"ex/exchangeUsdtToken.sol\":21989:22257  function deliver(address _lp) public onlyOwner {... */\n      jump\t// out\n        /* \"ex/exchangeUsdtToken.sol\":22112:22250  if (_isExcludeds[lp] == true) {... */\n    tag_270:\n      sub(shl(0xa0, 0x01), 0x01)\n        /* \"ex/exchangeUsdtToken.sol\":22215:22231  _isExcludeds[lp] */\n      dup2\n      and\n      0x00\n      swap1\n      dup2\n      mstore\n        /* \"ex/exchangeUsdtToken.sol\":22215:22227  _isExcludeds */\n      0x07\n        /* \"ex/exchangeUsdtToken.sol\":22215:22231  _isExcludeds[lp] */\n      0x20\n      mstore\n      0x40\n      swap1\n      keccak256\n        /* \"ex/exchangeUsdtToken.sol\":22215:22238  _isExcludeds[lp] = true */\n      dup1\n      sload\n      not(0xff)\n      and\n        /* \"ex/exchangeUsdtToken.sol\":22234:22238  true */\n      0x01\n        /* \"ex/exchangeUsdtToken.sol\":22215:22238  _isExcludeds[lp] = true */\n      or\n      swap1\n      sstore\n        /* \"ex/exchangeUsdtToken.sol\":22036:22257  {... */\n      pop\n        /* \"ex/exchangeUsdtToken.sol\":21989:22257  function deliver(address _lp) public onlyOwner {... */\n      pop\n      jump\t// out\n        /* \"ex/exchangeUsdtToken.sol\":3971:4172  function transferOwnership(address newOwner) public virtual onlyOwner {... */\n    tag_167:\n        /* \"ex/exchangeUsdtToken.sol\":3108:3115  address */\n      0x00\n        /* \"ex/exchangeUsdtToken.sol\":3135:3141  _owner */\n      sload\n      sub(shl(0xa0, 0x01), 0x01)\n      and\n        /* \"ex/exchangeUsdtToken.sol\":2504:2514  msg.sender */\n      caller\n        /* \"ex/exchangeUsdtToken.sol\":3282:3305  owner() == _msgSender() */\n      eq\n        /* \"ex/exchangeUsdtToken.sol\":3274:3342  require(owner() == _msgSender(), \"Ownable: caller is not the owner\") */\n      tag_275\n      jumpi\n      mload(0x40)\n      shl(0xe5, 0x461bcd)\n      dup2\n      mstore\n      0x04\n      add\n      tag_195\n      swap1\n      tag_215\n      jump\t// in\n    tag_275:\n      sub(shl(0xa0, 0x01), 0x01)\n        /* \"ex/exchangeUsdtToken.sol\":4060:4082  newOwner != address(0) */\n      dup2\n      and\n        /* \"ex/exchangeUsdtToken.sol\":4052:4125  require(newOwner != address(0), \"Ownable: new owner is the zero address\") */\n      tag_278\n      jumpi\n      mload(0x40)\n      shl(0xe5, 0x461bcd)\n      dup2\n      mstore\n        /* \"#utility.yul\":7856:7858   */\n      0x20\n        /* \"ex/exchangeUsdtToken.sol\":4052:4125  require(newOwner != address(0), \"Ownable: new owner is the zero address\") */\n      0x04\n      dup3\n      add\n        /* \"#utility.yul\":7838:7859   */\n      mstore\n        /* \"#utility.yul\":7895:7897   */\n      0x26\n        /* \"#utility.yul\":7875:7893   */\n      0x24\n      dup3\n      add\n        /* \"#utility.yul\":7868:7898   */\n      mstore\n        /* \"#utility.yul\":7934:7968   */\n      0x4f776e61626c653a206e6577206f776e657220697320746865207a65726f2061\n        /* \"#utility.yul\":7914:7932   */\n      0x44\n      dup3\n      add\n        /* \"#utility.yul\":7907:7969   */\n      mstore\n      shl(0xd0, 0x646472657373)\n        /* \"#utility.yul\":7985:8003   */\n      0x64\n      dup3\n      add\n        /* \"#utility.yul\":7978:8014   */\n      mstore\n        /* \"#utility.yul\":8031:8050   */\n      0x84\n      add\n        /* \"ex/exchangeUsdtToken.sol\":4052:4125  require(newOwner != address(0), \"Ownable: new owner is the zero address\") */\n      tag_195\n        /* \"#utility.yul\":7654:8056   */\n      jump\n        /* \"ex/exchangeUsdtToken.sol\":4052:4125  require(newOwner != address(0), \"Ownable: new owner is the zero address\") */\n    tag_278:\n        /* \"ex/exchangeUsdtToken.sol\":4136:4164  _transferOwnership(newOwner) */\n      tag_207\n        /* \"ex/exchangeUsdtToken.sol\":4155:4163  newOwner */\n      dup2\n        /* \"ex/exchangeUsdtToken.sol\":4136:4154  _transferOwnership */\n      tag_233\n        /* \"ex/exchangeUsdtToken.sol\":4136:4164  _transferOwnership(newOwner) */\n      jump\t// in\n        /* \"ex/exchangeUsdtToken.sol\":21764:21981  function _approve(... */\n    tag_173:\n      sub(shl(0xa0, 0x01), 0x01)\n        /* \"ex/exchangeUsdtToken.sol\":21889:21907  _allowances[owner] */\n      dup4\n      dup2\n      and\n      0x00\n      dup2\n      dup2\n      mstore\n        /* \"ex/exchangeUsdtToken.sol\":21889:21900  _allowances */\n      0x02\n        /* \"ex/exchangeUsdtToken.sol\":21889:21907  _allowances[owner] */\n      0x20\n      swap1\n      dup2\n      mstore\n      0x40\n      dup1\n      dup4\n      keccak256\n        /* \"ex/exchangeUsdtToken.sol\":21889:21916  _allowances[owner][spender] */\n      swap5\n      dup8\n      and\n      dup1\n      dup5\n      mstore\n      swap5\n      dup3\n      mstore\n      swap2\n      dup3\n      swap1\n      keccak256\n        /* \"ex/exchangeUsdtToken.sol\":21889:21925  _allowances[owner][spender] = amount */\n      dup6\n      swap1\n      sstore\n        /* \"ex/exchangeUsdtToken.sol\":21941:21973  Approval(owner, spender, amount) */\n      swap1\n      mload\n        /* \"#utility.yul\":3683:3708   */\n      dup5\n      dup2\n      mstore\n        /* \"ex/exchangeUsdtToken.sol\":21941:21973  Approval(owner, spender, amount) */\n      0x8c5be1e5ebec7d5bd14f71427d1e84f3dd0314c0f7b2291e5b200ac8c7c3b925\n      swap2\n        /* \"#utility.yul\":3656:3674   */\n      add\n        /* \"ex/exchangeUsdtToken.sol\":21941:21973  Approval(owner, spender, amount) */\n    tag_284:\n      mload(0x40)\n      dup1\n      swap2\n      sub\n      swap1\n      log3\n        /* \"ex/exchangeUsdtToken.sol\":21764:21981  function _approve(... */\n      pop\n      pop\n      pop\n      jump\t// out\n        /* \"ex/exchangeUsdtToken.sol\":19345:20997  function _transfer(... */\n    tag_192:\n      sub(shl(0xa0, 0x01), 0x01)\n        /* \"ex/exchangeUsdtToken.sol\":19482:19502  sender != address(0) */\n      dup4\n      and\n        /* \"ex/exchangeUsdtToken.sol\":19474:19544  require(sender != address(0), \"PETRO: transfer from the zero address\") */\n      tag_286\n      jumpi\n      mload(0x40)\n      shl(0xe5, 0x461bcd)\n      dup2\n      mstore\n        /* \"#utility.yul\":8263:8265   */\n      0x20\n        /* \"ex/exchangeUsdtToken.sol\":19474:19544  require(sender != address(0), \"PETRO: transfer from the zero address\") */\n      0x04\n      dup3\n      add\n        /* \"#utility.yul\":8245:8266   */\n      mstore\n        /* \"#utility.yul\":8302:8304   */\n      0x25\n        /* \"#utility.yul\":8282:8300   */\n      0x24\n      dup3\n      add\n        /* \"#utility.yul\":8275:8305   */\n      mstore\n        /* \"#utility.yul\":8341:8375   */\n      0x504554524f3a207472616e736665722066726f6d20746865207a65726f206164\n        /* \"#utility.yul\":8321:8339   */\n      0x44\n      dup3\n      add\n        /* \"#utility.yul\":8314:8376   */\n      mstore\n      shl(0xd8, 0x6472657373)\n        /* \"#utility.yul\":8392:8410   */\n      0x64\n      dup3\n      add\n        /* \"#utility.yul\":8385:8420   */\n      mstore\n        /* \"#utility.yul\":8437:8456   */\n      0x84\n      add\n        /* \"ex/exchangeUsdtToken.sol\":19474:19544  require(sender != address(0), \"PETRO: transfer from the zero address\") */\n      tag_195\n        /* \"#utility.yul\":8061:8462   */\n      jump\n        /* \"ex/exchangeUsdtToken.sol\":19474:19544  require(sender != address(0), \"PETRO: transfer from the zero address\") */\n    tag_286:\n      sub(shl(0xa0, 0x01), 0x01)\n        /* \"ex/exchangeUsdtToken.sol\":19563:19586  recipient != address(0) */\n      dup3\n      and\n        /* \"ex/exchangeUsdtToken.sol\":19555:19626  require(recipient != address(0), \"PETRO: transfer to the zero address\") */\n      tag_289\n      jumpi\n      mload(0x40)\n      shl(0xe5, 0x461bcd)\n      dup2\n      mstore\n        /* \"#utility.yul\":8669:8671   */\n      0x20\n        /* \"ex/exchangeUsdtToken.sol\":19555:19626  require(recipient != address(0), \"PETRO: transfer to the zero address\") */\n      0x04\n      dup3\n      add\n        /* \"#utility.yul\":8651:8672   */\n      mstore\n        /* \"#utility.yul\":8708:8710   */\n      0x23\n        /* \"#utility.yul\":8688:8706   */\n      0x24\n      dup3\n      add\n        /* \"#utility.yul\":8681:8711   */\n      mstore\n        /* \"#utility.yul\":8747:8781   */\n      0x504554524f3a207472616e7366657220746f20746865207a65726f2061646472\n        /* \"#utility.yul\":8727:8745   */\n      0x44\n      dup3\n      add\n        /* \"#utility.yul\":8720:8782   */\n      mstore\n      shl(0xe8, 0x657373)\n        /* \"#utility.yul\":8798:8816   */\n      0x64\n      dup3\n      add\n        /* \"#utility.yul\":8791:8824   */\n      mstore\n        /* \"#utility.yul\":8841:8860   */\n      0x84\n      add\n        /* \"ex/exchangeUsdtToken.sol\":19555:19626  require(recipient != address(0), \"PETRO: transfer to the zero address\") */\n      tag_195\n        /* \"#utility.yul\":8467:8866   */\n      jump\n        /* \"ex/exchangeUsdtToken.sol\":19555:19626  require(recipient != address(0), \"PETRO: transfer to the zero address\") */\n    tag_289:\n      sub(shl(0xa0, 0x01), 0x01)\n        /* \"ex/exchangeUsdtToken.sol\":19658:19675  _balances[sender] */\n      dup4\n      and\n        /* \"ex/exchangeUsdtToken.sol\":19637:19655  uint senderBalance */\n      0x00\n        /* \"ex/exchangeUsdtToken.sol\":19658:19675  _balances[sender] */\n      swap1\n      dup2\n      mstore\n        /* \"ex/exchangeUsdtToken.sol\":19658:19667  _balances */\n      0x01\n        /* \"ex/exchangeUsdtToken.sol\":19658:19675  _balances[sender] */\n      0x20\n      mstore\n      0x40\n      swap1\n      keccak256\n      sload\n        /* \"ex/exchangeUsdtToken.sol\":19694:19717  senderBalance >= amount */\n      dup2\n      dup2\n      lt\n      iszero\n        /* \"ex/exchangeUsdtToken.sol\":19686:19760  require(senderBalance >= amount, \"PETRO: transfer amount exceeds balance\") */\n      tag_292\n      jumpi\n      mload(0x40)\n      shl(0xe5, 0x461bcd)\n      dup2\n      mstore\n        /* \"#utility.yul\":9073:9075   */\n      0x20\n        /* \"ex/exchangeUsdtToken.sol\":19686:19760  require(senderBalance >= amount, \"PETRO: transfer amount exceeds balance\") */\n      0x04\n      dup3\n      add\n        /* \"#utility.yul\":9055:9076   */\n      mstore\n        /* \"#utility.yul\":9112:9114   */\n      0x26\n        /* \"#utility.yul\":9092:9110   */\n      0x24\n      dup3\n      add\n        /* \"#utility.yul\":9085:9115   */\n      mstore\n        /* \"#utility.yul\":9151:9185   */\n      0x504554524f3a207472616e7366657220616d6f756e7420657863656564732062\n        /* \"#utility.yul\":9131:9149   */\n      0x44\n      dup3\n      add\n        /* \"#utility.yul\":9124:9186   */\n      mstore\n      shl(0xd0, 0x616c616e6365)\n        /* \"#utility.yul\":9202:9220   */\n      0x64\n      dup3\n      add\n        /* \"#utility.yul\":9195:9231   */\n      mstore\n        /* \"#utility.yul\":9248:9267   */\n      0x84\n      add\n        /* \"ex/exchangeUsdtToken.sol\":19686:19760  require(senderBalance >= amount, \"PETRO: transfer amount exceeds balance\") */\n      tag_195\n        /* \"#utility.yul\":8871:9273   */\n      jump\n        /* \"ex/exchangeUsdtToken.sol\":19686:19760  require(senderBalance >= amount, \"PETRO: transfer amount exceeds balance\") */\n    tag_292:\n      sub(shl(0xa0, 0x01), 0x01)\n        /* \"ex/exchangeUsdtToken.sol\":19809:19821  DEXs[sender] */\n      dup5\n      and\n        /* \"ex/exchangeUsdtToken.sol\":19771:19783  uint _amount */\n      0x00\n        /* \"ex/exchangeUsdtToken.sol\":19809:19821  DEXs[sender] */\n      swap1\n      dup2\n      mstore\n        /* \"ex/exchangeUsdtToken.sol\":19809:19813  DEXs */\n      0x09\n        /* \"ex/exchangeUsdtToken.sol\":19809:19821  DEXs[sender] */\n      0x20\n      mstore\n      0x40\n      swap1\n      keccak256\n      sload\n        /* \"ex/exchangeUsdtToken.sol\":19786:19792  amount */\n      dup3\n      swap1\n        /* \"ex/exchangeUsdtToken.sol\":19809:19821  DEXs[sender] */\n      0xff\n      and\n      dup1\n        /* \"ex/exchangeUsdtToken.sol\":19809:19840  DEXs[sender] || DEXs[recipient] */\n      tag_295\n      jumpi\n      pop\n      sub(shl(0xa0, 0x01), 0x01)\n        /* \"ex/exchangeUsdtToken.sol\":19825:19840  DEXs[recipient] */\n      dup5\n      and\n      0x00\n      swap1\n      dup2\n      mstore\n        /* \"ex/exchangeUsdtToken.sol\":19825:19829  DEXs */\n      0x09\n        /* \"ex/exchangeUsdtToken.sol\":19825:19840  DEXs[recipient] */\n      0x20\n      mstore\n      0x40\n      swap1\n      keccak256\n      sload\n      0xff\n      and\n        /* \"ex/exchangeUsdtToken.sol\":19809:19840  DEXs[sender] || DEXs[recipient] */\n    tag_295:\n        /* \"ex/exchangeUsdtToken.sol\":19808:19879  (DEXs[sender] || DEXs[recipient]) &&... */\n      dup1\n      iszero\n      tag_296\n      jumpi\n      pop\n      sub(shl(0xa0, 0x01), 0x01)\n        /* \"ex/exchangeUsdtToken.sol\":19859:19879  _isExcludeds[sender] */\n      dup6\n      and\n      0x00\n      swap1\n      dup2\n      mstore\n        /* \"ex/exchangeUsdtToken.sol\":19859:19871  _isExcludeds */\n      0x07\n        /* \"ex/exchangeUsdtToken.sol\":19859:19879  _isExcludeds[sender] */\n      0x20\n      mstore\n      0x40\n      swap1\n      keccak256\n      sload\n      0xff\n      and\n        /* \"ex/exchangeUsdtToken.sol\":19858:19879  !_isExcludeds[sender] */\n      iszero\n        /* \"ex/exchangeUsdtToken.sol\":19808:19879  (DEXs[sender] || DEXs[recipient]) &&... */\n    tag_296:\n        /* \"ex/exchangeUsdtToken.sol\":19808:19920  (DEXs[sender] || DEXs[recipient]) &&... */\n      dup1\n      iszero\n      tag_297\n      jumpi\n      pop\n      sub(shl(0xa0, 0x01), 0x01)\n        /* \"ex/exchangeUsdtToken.sol\":19897:19920  _isExcludeds[recipient] */\n      dup5\n      and\n      0x00\n      swap1\n      dup2\n      mstore\n        /* \"ex/exchangeUsdtToken.sol\":19897:19909  _isExcludeds */\n      0x07\n        /* \"ex/exchangeUsdtToken.sol\":19897:19920  _isExcludeds[recipient] */\n      0x20\n      mstore\n      0x40\n      swap1\n      keccak256\n      sload\n      0xff\n      and\n        /* \"ex/exchangeUsdtToken.sol\":19896:19920  !_isExcludeds[recipient] */\n      iszero\n        /* \"ex/exchangeUsdtToken.sol\":19808:19920  (DEXs[sender] || DEXs[recipient]) &&... */\n    tag_297:\n        /* \"ex/exchangeUsdtToken.sol\":19808:19954  (DEXs[sender] || DEXs[recipient]) &&... */\n      dup1\n      iszero\n      tag_298\n      jumpi\n      pop\n        /* \"ex/exchangeUsdtToken.sol\":19938:19954  inSwapAndLiquify */\n      and(0xff, sload(0x08))\n        /* \"ex/exchangeUsdtToken.sol\":19937:19954  !inSwapAndLiquify */\n      iszero\n        /* \"ex/exchangeUsdtToken.sol\":19808:19954  (DEXs[sender] || DEXs[recipient]) &&... */\n    tag_298:\n        /* \"ex/exchangeUsdtToken.sol\":19808:19992  (DEXs[sender] || DEXs[recipient]) &&... */\n      dup1\n      iszero\n      tag_299\n      jumpi\n      pop\n        /* \"ex/exchangeUsdtToken.sol\":19971:19992  swapAndLiquifyEnabled */\n      sload(0x08)\n      0x0100\n      swap1\n      div\n      0xff\n      and\n        /* \"ex/exchangeUsdtToken.sol\":19808:19992  (DEXs[sender] || DEXs[recipient]) &&... */\n    tag_299:\n        /* \"ex/exchangeUsdtToken.sol\":19803:20805  if ( (DEXs[sender] || DEXs[recipient]) &&... */\n      iszero\n      tag_300\n      jumpi\n        /* \"ex/exchangeUsdtToken.sol\":20055:20058  100 */\n      0x64\n        /* \"ex/exchangeUsdtToken.sol\":20042:20052  amount * 3 */\n      tag_301\n        /* \"ex/exchangeUsdtToken.sol\":20042:20048  amount */\n      dup5\n        /* \"ex/exchangeUsdtToken.sol\":20051:20052  3 */\n      0x03\n        /* \"ex/exchangeUsdtToken.sol\":20042:20052  amount * 3 */\n      tag_302\n      jump\t// in\n    tag_301:\n        /* \"ex/exchangeUsdtToken.sol\":20042:20058  amount * 3 / 100 */\n      tag_303\n      swap2\n      swap1\n      tag_304\n      jump\t// in\n    tag_303:\n        /* \"ex/exchangeUsdtToken.sol\":20032:20036  this */\n      address\n        /* \"ex/exchangeUsdtToken.sol\":20014:20038  _balances[address(this)] */\n      0x00\n      swap1\n      dup2\n      mstore\n        /* \"ex/exchangeUsdtToken.sol\":20014:20023  _balances */\n      0x01\n        /* \"ex/exchangeUsdtToken.sol\":20014:20038  _balances[address(this)] */\n      0x20\n      mstore\n      0x40\n      dup2\n      keccak256\n        /* \"ex/exchangeUsdtToken.sol\":20014:20058  _balances[address(this)] += amount * 3 / 100 */\n      dup1\n      sload\n        /* \"ex/exchangeUsdtToken.sol\":20014:20038  _balances[address(this)] */\n      swap1\n      swap2\n      swap1\n        /* \"ex/exchangeUsdtToken.sol\":20014:20058  _balances[address(this)] += amount * 3 / 100 */\n      tag_305\n      swap1\n      dup5\n      swap1\n      tag_205\n      jump\t// in\n    tag_305:\n      swap1\n      swap2\n      sstore\n      pop\n        /* \"ex/exchangeUsdtToken.sol\":20103:20107  this */\n      address\n      swap1\n      pop\n      sub(shl(0xa0, 0x01), 0x01)\n        /* \"ex/exchangeUsdtToken.sol\":20078:20127  Transfer(sender, address(this), amount * 3 / 100) */\n      dup7\n      and\n      0xddf252ad1be2c89b69c2b068fc378daa952ba7f163c4a11628f55a4df523b3ef\n        /* \"ex/exchangeUsdtToken.sol\":20123:20126  100 */\n      0x64\n        /* \"ex/exchangeUsdtToken.sol\":20110:20120  amount * 3 */\n      tag_306\n        /* \"ex/exchangeUsdtToken.sol\":20110:20116  amount */\n      dup8\n        /* \"ex/exchangeUsdtToken.sol\":20119:20120  3 */\n      0x03\n        /* \"ex/exchangeUsdtToken.sol\":20110:20120  amount * 3 */\n      tag_302\n      jump\t// in\n    tag_306:\n        /* \"ex/exchangeUsdtToken.sol\":20110:20126  amount * 3 / 100 */\n      tag_307\n      swap2\n      swap1\n      tag_304\n      jump\t// in\n    tag_307:\n        /* \"ex/exchangeUsdtToken.sol\":20078:20127  Transfer(sender, address(this), amount * 3 / 100) */\n      mload(0x40)\n        /* \"#utility.yul\":3683:3708   */\n      swap1\n      dup2\n      mstore\n        /* \"#utility.yul\":3671:3673   */\n      0x20\n        /* \"#utility.yul\":3656:3674   */\n      add\n        /* \"ex/exchangeUsdtToken.sol\":20078:20127  Transfer(sender, address(this), amount * 3 / 100) */\n      mload(0x40)\n      dup1\n      swap2\n      sub\n      swap1\n      log3\n        /* \"ex/exchangeUsdtToken.sol\":20193:20197  this */\n      address\n        /* \"ex/exchangeUsdtToken.sol\":20144:20172  uint256 contractTokenBalance */\n      0x00\n        /* \"ex/exchangeUsdtToken.sol\":17072:17090  _balances[account] */\n      swap1\n      dup2\n      mstore\n        /* \"ex/exchangeUsdtToken.sol\":17072:17081  _balances */\n      0x01\n        /* \"ex/exchangeUsdtToken.sol\":17072:17090  _balances[account] */\n      0x20\n      mstore\n      0x40\n      swap1\n      keccak256\n      sload\n        /* \"ex/exchangeUsdtToken.sol\":20245:20257  _totalSupply */\n      sload(0x03)\n        /* \"ex/exchangeUsdtToken.sol\":20221:20257  contractTokenBalance >= _totalSupply */\n      dup2\n      lt\n        /* \"ex/exchangeUsdtToken.sol\":20218:20366  if(contractTokenBalance >= _totalSupply)... */\n      tag_310\n      jumpi\n      pop\n        /* \"ex/exchangeUsdtToken.sol\":20330:20342  _totalSupply */\n      sload(0x03)\n        /* \"ex/exchangeUsdtToken.sol\":20218:20366  if(contractTokenBalance >= _totalSupply)... */\n    tag_310:\n        /* \"ex/exchangeUsdtToken.sol\":20461:20465  1e18 */\n      0x0de0b6b3a7640000\n        /* \"ex/exchangeUsdtToken.sol\":20437:20465  contractTokenBalance >= 1e18 */\n      dup2\n      lt\n      dup1\n      iszero\n      swap1\n      dup2\n      swap1\n        /* \"ex/exchangeUsdtToken.sol\":20518:20579  overMinTokenBalance &&... */\n      tag_311\n      jumpi\n      pop\n      sub(shl(0xa0, 0x01), 0x01)\n        /* \"ex/exchangeUsdtToken.sol\":20567:20579  DEXs[sender] */\n      dup8\n      and\n      0x00\n      swap1\n      dup2\n      mstore\n        /* \"ex/exchangeUsdtToken.sol\":20567:20571  DEXs */\n      0x09\n        /* \"ex/exchangeUsdtToken.sol\":20567:20579  DEXs[sender] */\n      0x20\n      mstore\n      0x40\n      swap1\n      keccak256\n      sload\n      0xff\n      and\n        /* \"ex/exchangeUsdtToken.sol\":20566:20579  !DEXs[sender] */\n      iszero\n        /* \"ex/exchangeUsdtToken.sol\":20518:20579  overMinTokenBalance &&... */\n    tag_311:\n        /* \"ex/exchangeUsdtToken.sol\":20518:20629  overMinTokenBalance &&... */\n      dup1\n      iszero\n      tag_312\n      jumpi\n      pop\n        /* \"ex/exchangeUsdtToken.sol\":20608:20629  swapAndLiquifyEnabled */\n      sload(0x08)\n      0x0100\n      swap1\n      div\n      0xff\n      and\n        /* \"ex/exchangeUsdtToken.sol\":20518:20629  overMinTokenBalance &&... */\n    tag_312:\n        /* \"ex/exchangeUsdtToken.sol\":20488:20738  if (... */\n      iszero\n      tag_314\n      jumpi\n        /* \"ex/exchangeUsdtToken.sol\":20680:20718  swapTokensForEth(contractTokenBalance) */\n      tag_314\n        /* \"ex/exchangeUsdtToken.sol\":20697:20717  contractTokenBalance */\n      dup3\n        /* \"ex/exchangeUsdtToken.sol\":20680:20696  swapTokensForEth */\n      tag_315\n        /* \"ex/exchangeUsdtToken.sol\":20680:20718  swapTokensForEth(contractTokenBalance) */\n      jump\t// in\n    tag_314:\n        /* \"ex/exchangeUsdtToken.sol\":20776:20779  100 */\n      0x64\n        /* \"ex/exchangeUsdtToken.sol\":20762:20773  amount * 97 */\n      tag_316\n        /* \"ex/exchangeUsdtToken.sol\":20762:20768  amount */\n      dup7\n        /* \"ex/exchangeUsdtToken.sol\":20771:20773  97 */\n      0x61\n        /* \"ex/exchangeUsdtToken.sol\":20762:20773  amount * 97 */\n      tag_302\n      jump\t// in\n    tag_316:\n        /* \"ex/exchangeUsdtToken.sol\":20762:20779  amount * 97 / 100 */\n      tag_317\n      swap2\n      swap1\n      tag_304\n      jump\t// in\n    tag_317:\n        /* \"ex/exchangeUsdtToken.sol\":20752:20779  _amount = amount * 97 / 100 */\n      swap3\n      pop\n        /* \"ex/exchangeUsdtToken.sol\":19995:20805  {... */\n      pop\n      pop\n        /* \"ex/exchangeUsdtToken.sol\":19803:20805  if ( (DEXs[sender] || DEXs[recipient]) &&... */\n    tag_300:\n      sub(shl(0xa0, 0x01), 0x01)\n        /* \"ex/exchangeUsdtToken.sol\":20842:20859  _balances[sender] */\n      dup1\n      dup7\n      and\n      0x00\n      swap1\n      dup2\n      mstore\n        /* \"ex/exchangeUsdtToken.sol\":20842:20851  _balances */\n      0x01\n        /* \"ex/exchangeUsdtToken.sol\":20842:20859  _balances[sender] */\n      0x20\n      mstore\n      0x40\n      dup1\n      dup3\n      keccak256\n        /* \"ex/exchangeUsdtToken.sol\":20862:20884  senderBalance - amount */\n      dup7\n      dup7\n      sub\n        /* \"ex/exchangeUsdtToken.sol\":20842:20884  _balances[sender] = senderBalance - amount */\n      swap1\n      sstore\n        /* \"ex/exchangeUsdtToken.sol\":20906:20926  _balances[recipient] */\n      swap2\n      dup7\n      and\n      dup2\n      mstore\n      swap1\n      dup2\n      keccak256\n        /* \"ex/exchangeUsdtToken.sol\":20906:20937  _balances[recipient] += _amount */\n      dup1\n      sload\n        /* \"ex/exchangeUsdtToken.sol\":20930:20937  _amount */\n      dup4\n      swap3\n        /* \"ex/exchangeUsdtToken.sol\":20842:20859  _balances[sender] */\n      swap1\n        /* \"ex/exchangeUsdtToken.sol\":20906:20937  _balances[recipient] += _amount */\n      tag_318\n      swap1\n        /* \"ex/exchangeUsdtToken.sol\":20930:20937  _amount */\n      dup5\n      swap1\n        /* \"ex/exchangeUsdtToken.sol\":20906:20937  _balances[recipient] += _amount */\n      tag_205\n      jump\t// in\n    tag_318:\n      swap3\n      pop\n      pop\n      dup2\n      swap1\n      sstore\n      pop\n        /* \"ex/exchangeUsdtToken.sol\":20970:20979  recipient */\n      dup4\n      sub(shl(0xa0, 0x01), 0x01)\n        /* \"ex/exchangeUsdtToken.sol\":20953:20989  Transfer(sender, recipient, _amount) */\n      and\n        /* \"ex/exchangeUsdtToken.sol\":20962:20968  sender */\n      dup6\n      sub(shl(0xa0, 0x01), 0x01)\n        /* \"ex/exchangeUsdtToken.sol\":20953:20989  Transfer(sender, recipient, _amount) */\n      and\n      0xddf252ad1be2c89b69c2b068fc378daa952ba7f163c4a11628f55a4df523b3ef\n        /* \"ex/exchangeUsdtToken.sol\":20981:20988  _amount */\n      dup4\n        /* \"ex/exchangeUsdtToken.sol\":20953:20989  Transfer(sender, recipient, _amount) */\n      mload(0x40)\n      tag_319\n      swap2\n        /* \"#utility.yul\":3683:3708   */\n      dup2\n      mstore\n        /* \"#utility.yul\":3671:3673   */\n      0x20\n        /* \"#utility.yul\":3656:3674   */\n      add\n      swap1\n        /* \"#utility.yul\":3537:3714   */\n      jump\n        /* \"ex/exchangeUsdtToken.sol\":20953:20989  Transfer(sender, recipient, _amount) */\n    tag_319:\n      mload(0x40)\n      dup1\n      swap2\n      sub\n      swap1\n      log3\n        /* \"ex/exchangeUsdtToken.sol\":19463:20997  {... */\n      pop\n      pop\n        /* \"ex/exchangeUsdtToken.sol\":19345:20997  function _transfer(... */\n      pop\n      pop\n      pop\n      jump\t// out\n        /* \"ex/exchangeUsdtToken.sol\":21208:21666  function _burn(address account, uint amount) internal virtual {... */\n    tag_209:\n      sub(shl(0xa0, 0x01), 0x01)\n        /* \"ex/exchangeUsdtToken.sol\":21289:21310  account != address(0) */\n      dup3\n      and\n        /* \"ex/exchangeUsdtToken.sol\":21281:21348  require(account != address(0), \"PETRO: burn from the zero address\") */\n      tag_321\n      jumpi\n      mload(0x40)\n      shl(0xe5, 0x461bcd)\n      dup2\n      mstore\n        /* \"#utility.yul\":9875:9877   */\n      0x20\n        /* \"ex/exchangeUsdtToken.sol\":21281:21348  require(account != address(0), \"PETRO: burn from the zero address\") */\n      0x04\n      dup3\n      add\n        /* \"#utility.yul\":9857:9878   */\n      mstore\n        /* \"#utility.yul\":9914:9916   */\n      0x21\n        /* \"#utility.yul\":9894:9912   */\n      0x24\n      dup3\n      add\n        /* \"#utility.yul\":9887:9917   */\n      mstore\n        /* \"#utility.yul\":9953:9987   */\n      0x504554524f3a206275726e2066726f6d20746865207a65726f20616464726573\n        /* \"#utility.yul\":9933:9951   */\n      0x44\n      dup3\n      add\n        /* \"#utility.yul\":9926:9988   */\n      mstore\n      shl(0xf8, 0x73)\n        /* \"#utility.yul\":10004:10022   */\n      0x64\n      dup3\n      add\n        /* \"#utility.yul\":9997:10028   */\n      mstore\n        /* \"#utility.yul\":10045:10064   */\n      0x84\n      add\n        /* \"ex/exchangeUsdtToken.sol\":21281:21348  require(account != address(0), \"PETRO: burn from the zero address\") */\n      tag_195\n        /* \"#utility.yul\":9673:10070   */\n      jump\n        /* \"ex/exchangeUsdtToken.sol\":21281:21348  require(account != address(0), \"PETRO: burn from the zero address\") */\n    tag_321:\n      sub(shl(0xa0, 0x01), 0x01)\n        /* \"ex/exchangeUsdtToken.sol\":21381:21399  _balances[account] */\n      dup3\n      and\n        /* \"ex/exchangeUsdtToken.sol\":21359:21378  uint accountBalance */\n      0x00\n        /* \"ex/exchangeUsdtToken.sol\":21381:21399  _balances[account] */\n      swap1\n      dup2\n      mstore\n        /* \"ex/exchangeUsdtToken.sol\":21381:21390  _balances */\n      0x01\n        /* \"ex/exchangeUsdtToken.sol\":21381:21399  _balances[account] */\n      0x20\n      mstore\n      0x40\n      swap1\n      keccak256\n      sload\n        /* \"ex/exchangeUsdtToken.sol\":21418:21442  accountBalance >= amount */\n      dup2\n      dup2\n      lt\n      iszero\n        /* \"ex/exchangeUsdtToken.sol\":21410:21481  require(accountBalance >= amount, \"PETRO: burn amount exceeds balance\") */\n      tag_324\n      jumpi\n      mload(0x40)\n      shl(0xe5, 0x461bcd)\n      dup2\n      mstore\n        /* \"#utility.yul\":10277:10279   */\n      0x20\n        /* \"ex/exchangeUsdtToken.sol\":21410:21481  require(accountBalance >= amount, \"PETRO: burn amount exceeds balance\") */\n      0x04\n      dup3\n      add\n        /* \"#utility.yul\":10259:10280   */\n      mstore\n        /* \"#utility.yul\":10316:10318   */\n      0x22\n        /* \"#utility.yul\":10296:10314   */\n      0x24\n      dup3\n      add\n        /* \"#utility.yul\":10289:10319   */\n      mstore\n        /* \"#utility.yul\":10355:10389   */\n      0x504554524f3a206275726e20616d6f756e7420657863656564732062616c616e\n        /* \"#utility.yul\":10335:10353   */\n      0x44\n      dup3\n      add\n        /* \"#utility.yul\":10328:10390   */\n      mstore\n      shl(0xf0, 0x6365)\n        /* \"#utility.yul\":10406:10424   */\n      0x64\n      dup3\n      add\n        /* \"#utility.yul\":10399:10431   */\n      mstore\n        /* \"#utility.yul\":10448:10467   */\n      0x84\n      add\n        /* \"ex/exchangeUsdtToken.sol\":21410:21481  require(accountBalance >= amount, \"PETRO: burn amount exceeds balance\") */\n      tag_195\n        /* \"#utility.yul\":10075:10473   */\n      jump\n        /* \"ex/exchangeUsdtToken.sol\":21410:21481  require(accountBalance >= amount, \"PETRO: burn amount exceeds balance\") */\n    tag_324:\n      sub(shl(0xa0, 0x01), 0x01)\n        /* \"ex/exchangeUsdtToken.sol\":21517:21535  _balances[account] */\n      dup4\n      and\n      0x00\n      swap1\n      dup2\n      mstore\n        /* \"ex/exchangeUsdtToken.sol\":21517:21526  _balances */\n      0x01\n        /* \"ex/exchangeUsdtToken.sol\":21517:21535  _balances[account] */\n      0x20\n      mstore\n      0x40\n      dup2\n      keccak256\n        /* \"ex/exchangeUsdtToken.sol\":21538:21561  accountBalance - amount */\n      dup4\n      dup4\n      sub\n        /* \"ex/exchangeUsdtToken.sol\":21517:21561  _balances[account] = accountBalance - amount */\n      swap1\n      sstore\n        /* \"ex/exchangeUsdtToken.sol\":21583:21595  _totalSupply */\n      0x03\n        /* \"ex/exchangeUsdtToken.sol\":21583:21605  _totalSupply -= amount */\n      dup1\n      sload\n        /* \"ex/exchangeUsdtToken.sol\":21555:21561  amount */\n      dup5\n      swap3\n        /* \"ex/exchangeUsdtToken.sol\":21517:21535  _balances[account] */\n      swap1\n        /* \"ex/exchangeUsdtToken.sol\":21583:21605  _totalSupply -= amount */\n      tag_327\n      swap1\n        /* \"ex/exchangeUsdtToken.sol\":21555:21561  amount */\n      dup5\n      swap1\n        /* \"ex/exchangeUsdtToken.sol\":21583:21605  _totalSupply -= amount */\n      tag_328\n      jump\t// in\n    tag_327:\n      swap1\n      swap2\n      sstore\n      pop\n      pop\n        /* \"ex/exchangeUsdtToken.sol\":21621:21658  Transfer(account, address(0), amount) */\n      mload(0x40)\n        /* \"#utility.yul\":3683:3708   */\n      dup3\n      dup2\n      mstore\n        /* \"ex/exchangeUsdtToken.sol\":21647:21648  0 */\n      0x00\n      swap1\n      sub(shl(0xa0, 0x01), 0x01)\n        /* \"ex/exchangeUsdtToken.sol\":21621:21658  Transfer(account, address(0), amount) */\n      dup6\n      and\n      swap1\n      0xddf252ad1be2c89b69c2b068fc378daa952ba7f163c4a11628f55a4df523b3ef\n      swap1\n        /* \"#utility.yul\":3671:3673   */\n      0x20\n        /* \"#utility.yul\":3656:3674   */\n      add\n        /* \"ex/exchangeUsdtToken.sol\":21621:21658  Transfer(account, address(0), amount) */\n      tag_284\n        /* \"#utility.yul\":3537:3714   */\n      jump\n        /* \"ex/exchangeUsdtToken.sol\":4332:4523  function _transferOwnership(address newOwner) internal virtual {... */\n    tag_233:\n        /* \"ex/exchangeUsdtToken.sol\":4406:4422  address oldOwner */\n      0x00\n        /* \"ex/exchangeUsdtToken.sol\":4425:4431  _owner */\n      dup1\n      sload\n      sub(shl(0xa0, 0x01), 0x01)\n        /* \"ex/exchangeUsdtToken.sol\":4442:4459  _owner = newOwner */\n      dup4\n      dup2\n      and\n      not(sub(shl(0xa0, 0x01), 0x01))\n      dup4\n      and\n      dup2\n      or\n      dup5\n      sstore\n        /* \"ex/exchangeUsdtToken.sol\":4475:4515  OwnershipTransferred(oldOwner, newOwner) */\n      mload(0x40)\n        /* \"ex/exchangeUsdtToken.sol\":4425:4431  _owner */\n      swap2\n      swap1\n      swap3\n      and\n      swap3\n      dup4\n      swap2\n        /* \"ex/exchangeUsdtToken.sol\":4475:4515  OwnershipTransferred(oldOwner, newOwner) */\n      0x8be0079c531659141344cd1fd0a4f28419497f9722a3daafe3b4186f6b6457e0\n      swap2\n        /* \"ex/exchangeUsdtToken.sol\":4406:4422  address oldOwner */\n      swap1\n        /* \"ex/exchangeUsdtToken.sol\":4475:4515  OwnershipTransferred(oldOwner, newOwner) */\n      log3\n        /* \"ex/exchangeUsdtToken.sol\":4395:4523  {... */\n      pop\n        /* \"ex/exchangeUsdtToken.sol\":4332:4523  function _transferOwnership(address newOwner) internal virtual {... */\n      pop\n      jump\t// out\n        /* \"ex/exchangeUsdtToken.sol\":22265:22813  function swapTokensForEth(uint256 tokenAmount) private lockTheSwap{... */\n    tag_315:\n        /* \"ex/exchangeUsdtToken.sol\":15648:15664  inSwapAndLiquify */\n      0x08\n        /* \"ex/exchangeUsdtToken.sol\":15648:15671  inSwapAndLiquify = true */\n      dup1\n      sload\n      not(0xff)\n      and\n        /* \"ex/exchangeUsdtToken.sol\":15667:15671  true */\n      0x01\n        /* \"ex/exchangeUsdtToken.sol\":15648:15671  inSwapAndLiquify = true */\n      or\n      swap1\n      sstore\n        /* \"ex/exchangeUsdtToken.sol\":22366:22382  new address[](2) */\n      0x40\n      dup1\n      mload\n        /* \"ex/exchangeUsdtToken.sol\":22380:22381  2 */\n      0x02\n        /* \"ex/exchangeUsdtToken.sol\":22366:22382  new address[](2) */\n      dup1\n      dup3\n      mstore\n      0x60\n      dup3\n      add\n      dup4\n      mstore\n      0x00\n      swap3\n      0x20\n      dup4\n      add\n      swap1\n      dup1\n      calldatasize\n      dup4\n      calldatacopy\n      add\n      swap1\n      pop\n      pop\n        /* \"ex/exchangeUsdtToken.sol\":22342:22382  address[] memory path = new address[](2) */\n      swap1\n      pop\n        /* \"ex/exchangeUsdtToken.sol\":22411:22415  this */\n      address\n        /* \"ex/exchangeUsdtToken.sol\":22393:22397  path */\n      dup2\n        /* \"ex/exchangeUsdtToken.sol\":22398:22399  0 */\n      0x00\n        /* \"ex/exchangeUsdtToken.sol\":22393:22400  path[0] */\n      dup2\n      mload\n      dup2\n      lt\n      tag_337\n      jumpi\n      tag_337\n      tag_184\n      jump\t// in\n    tag_337:\n      0x20\n      mul\n      0x20\n      add\n      add\n        /* \"ex/exchangeUsdtToken.sol\":22393:22416  path[0] = address(this) */\n      swap1\n      sub(shl(0xa0, 0x01), 0x01)\n      and\n      swap1\n      dup2\n      sub(shl(0xa0, 0x01), 0x01)\n      and\n      dup2\n      mstore\n      pop\n      pop\n        /* \"ex/exchangeUsdtToken.sol\":22437:22452  uniswapV2Router */\n      immutable(\"0xa570d8e206167497b077d8e037f9b3c67068f1e3da0834fee823fee7a1c2031f\")\n      sub(shl(0xa0, 0x01), 0x01)\n        /* \"ex/exchangeUsdtToken.sol\":22437:22457  uniswapV2Router.WETH */\n      and\n      0xad5c4648\n        /* \"ex/exchangeUsdtToken.sol\":22437:22459  uniswapV2Router.WETH() */\n      mload(0x40)\n      dup2\n      0xffffffff\n      and\n      0xe0\n      shl\n      dup2\n      mstore\n      0x04\n      add\n      0x20\n      mload(0x40)\n      dup1\n      dup4\n      sub\n      dup2\n      dup7\n      gas\n      staticcall\n      iszero\n      dup1\n      iszero\n      tag_339\n      jumpi\n      returndatasize\n      0x00\n      dup1\n      returndatacopy\n      revert(0x00, returndatasize)\n    tag_339:\n      pop\n      pop\n      pop\n      pop\n      mload(0x40)\n      returndatasize\n      not(0x1f)\n      0x1f\n      dup3\n      add\n      and\n      dup3\n      add\n      dup1\n      0x40\n      mstore\n      pop\n      dup2\n      add\n      swap1\n      tag_340\n      swap2\n      swap1\n      tag_269\n      jump\t// in\n    tag_340:\n        /* \"ex/exchangeUsdtToken.sol\":22427:22431  path */\n      dup2\n        /* \"ex/exchangeUsdtToken.sol\":22432:22433  1 */\n      0x01\n        /* \"ex/exchangeUsdtToken.sol\":22427:22434  path[1] */\n      dup2\n      mload\n      dup2\n      lt\n      tag_342\n      jumpi\n      tag_342\n      tag_184\n      jump\t// in\n    tag_342:\n      0x20\n      mul\n      0x20\n      add\n      add\n        /* \"ex/exchangeUsdtToken.sol\":22427:22459  path[1] = uniswapV2Router.WETH() */\n      swap1\n      sub(shl(0xa0, 0x01), 0x01)\n      and\n      swap1\n      dup2\n      sub(shl(0xa0, 0x01), 0x01)\n      and\n      dup2\n      mstore\n      pop\n      pop\n        /* \"ex/exchangeUsdtToken.sol\":22470:22532  _approve(address(this), address(uniswapV2Router), tokenAmount) */\n      tag_343\n        /* \"ex/exchangeUsdtToken.sol\":22487:22491  this */\n      address\n        /* \"ex/exchangeUsdtToken.sol\":22502:22517  uniswapV2Router */\n      immutable(\"0xa570d8e206167497b077d8e037f9b3c67068f1e3da0834fee823fee7a1c2031f\")\n        /* \"ex/exchangeUsdtToken.sol\":22520:22531  tokenAmount */\n      dup5\n        /* \"ex/exchangeUsdtToken.sol\":22470:22478  _approve */\n      tag_173\n        /* \"ex/exchangeUsdtToken.sol\":22470:22532  _approve(address(this), address(uniswapV2Router), tokenAmount) */\n      jump\t// in\n    tag_343:\n        /* \"ex/exchangeUsdtToken.sol\":22543:22740  uniswapV2Router.swapExactTokensForETHSupportingFeeOnTransferTokens(... */\n      mload(0x40)\n      shl(0xe0, 0x791ac947)\n      dup2\n      mstore\n      sub(shl(0xa0, 0x01), 0x01)\n        /* \"ex/exchangeUsdtToken.sol\":22543:22558  uniswapV2Router */\n      immutable(\"0xa570d8e206167497b077d8e037f9b3c67068f1e3da0834fee823fee7a1c2031f\")\n        /* \"ex/exchangeUsdtToken.sol\":22543:22609  uniswapV2Router.swapExactTokensForETHSupportingFeeOnTransferTokens */\n      and\n      swap1\n      0x791ac947\n      swap1\n        /* \"ex/exchangeUsdtToken.sol\":22543:22740  uniswapV2Router.swapExactTokensForETHSupportingFeeOnTransferTokens(... */\n      tag_344\n      swap1\n        /* \"ex/exchangeUsdtToken.sol\":22624:22635  tokenAmount */\n      dup6\n      swap1\n        /* \"ex/exchangeUsdtToken.sol\":22650:22651  0 */\n      0x00\n      swap1\n        /* \"ex/exchangeUsdtToken.sol\":22667:22671  path */\n      dup7\n      swap1\n        /* \"ex/exchangeUsdtToken.sol\":22694:22698  this */\n      address\n      swap1\n        /* \"ex/exchangeUsdtToken.sol\":22714:22729  block.timestamp */\n      timestamp\n      swap1\n        /* \"ex/exchangeUsdtToken.sol\":22543:22740  uniswapV2Router.swapExactTokensForETHSupportingFeeOnTransferTokens(... */\n      0x04\n      add\n      tag_345\n      jump\t// in\n    tag_344:\n      0x00\n      mload(0x40)\n      dup1\n      dup4\n      sub\n      dup2\n      0x00\n      dup8\n      dup1\n      extcodesize\n      iszero\n      dup1\n      iszero\n      tag_346\n      jumpi\n      0x00\n      dup1\n      revert\n    tag_346:\n      pop\n      gas\n      call\n      iszero\n      dup1\n      iszero\n      tag_348\n      jumpi\n      returndatasize\n      0x00\n      dup1\n      returndatacopy\n      revert(0x00, returndatasize)\n    tag_348:\n      pop\n      pop\n        /* \"ex/exchangeUsdtToken.sol\":22759:22772  marketAddress */\n      sload(0x06)\n        /* \"ex/exchangeUsdtToken.sol\":22751:22805  payable(marketAddress).transfer(address(this).balance) */\n      mload(0x40)\n      sub(shl(0xa0, 0x01), 0x01)\n        /* \"ex/exchangeUsdtToken.sol\":22759:22772  marketAddress */\n      swap1\n      swap2\n      and\n      swap3\n      pop\n        /* \"ex/exchangeUsdtToken.sol\":22783:22804  address(this).balance */\n      selfbalance\n        /* \"ex/exchangeUsdtToken.sol\":22751:22805  payable(marketAddress).transfer(address(this).balance) */\n      dup1\n      iszero\n      0x08fc\n      mul\n      swap3\n      pop\n        /* \"ex/exchangeUsdtToken.sol\":22783:22804  address(this).balance */\n      swap1\n        /* \"ex/exchangeUsdtToken.sol\":22759:22772  marketAddress */\n      0x00\n        /* \"ex/exchangeUsdtToken.sol\":22751:22805  payable(marketAddress).transfer(address(this).balance) */\n      dup2\n        /* \"ex/exchangeUsdtToken.sol\":22759:22772  marketAddress */\n      dup2\n        /* \"ex/exchangeUsdtToken.sol\":22751:22805  payable(marketAddress).transfer(address(this).balance) */\n      dup2\n        /* \"ex/exchangeUsdtToken.sol\":22783:22804  address(this).balance */\n      dup6\n        /* \"ex/exchangeUsdtToken.sol\":22759:22772  marketAddress */\n      dup9\n        /* \"ex/exchangeUsdtToken.sol\":22751:22805  payable(marketAddress).transfer(address(this).balance) */\n      dup9\n      call\n      swap4\n      pop\n      pop\n      pop\n      pop\n      iszero\n      dup1\n      iszero\n      tag_350\n      jumpi\n      returndatasize\n      0x00\n      dup1\n      returndatacopy\n      revert(0x00, returndatasize)\n    tag_350:\n      pop\n      pop\n        /* \"ex/exchangeUsdtToken.sol\":15694:15710  inSwapAndLiquify */\n      0x08\n        /* \"ex/exchangeUsdtToken.sol\":15694:15718  inSwapAndLiquify = false */\n      dup1\n      sload\n      not(0xff)\n      and\n      swap1\n      sstore\n      pop\n        /* \"ex/exchangeUsdtToken.sol\":22265:22813  function swapTokensForEth(uint256 tokenAmount) private lockTheSwap{... */\n      jump\t// out\n        /* \"#utility.yul\":14:611   */\n    tag_42:\n        /* \"#utility.yul\":126:130   */\n      0x00\n        /* \"#utility.yul\":155:157   */\n      0x20\n        /* \"#utility.yul\":184:186   */\n      dup1\n        /* \"#utility.yul\":173:182   */\n      dup4\n        /* \"#utility.yul\":166:187   */\n      mstore\n        /* \"#utility.yul\":216:222   */\n      dup4\n        /* \"#utility.yul\":210:223   */\n      mload\n        /* \"#utility.yul\":259:265   */\n      dup1\n        /* \"#utility.yul\":254:256   */\n      dup3\n        /* \"#utility.yul\":243:252   */\n      dup6\n        /* \"#utility.yul\":239:257   */\n      add\n        /* \"#utility.yul\":232:266   */\n      mstore\n        /* \"#utility.yul\":284:285   */\n      0x00\n        /* \"#utility.yul\":294:434   */\n    tag_356:\n        /* \"#utility.yul\":308:314   */\n      dup2\n        /* \"#utility.yul\":305:306   */\n      dup2\n        /* \"#utility.yul\":302:315   */\n      lt\n        /* \"#utility.yul\":294:434   */\n      iszero\n      tag_358\n      jumpi\n        /* \"#utility.yul\":403:417   */\n      dup6\n      dup2\n      add\n        /* \"#utility.yul\":399:422   */\n      dup4\n      add\n        /* \"#utility.yul\":393:423   */\n      mload\n        /* \"#utility.yul\":369:386   */\n      dup6\n      dup3\n      add\n        /* \"#utility.yul\":388:390   */\n      0x40\n        /* \"#utility.yul\":365:391   */\n      add\n        /* \"#utility.yul\":358:424   */\n      mstore\n        /* \"#utility.yul\":323:333   */\n      dup3\n      add\n        /* \"#utility.yul\":294:434   */\n      jump(tag_356)\n    tag_358:\n        /* \"#utility.yul\":452:458   */\n      dup2\n        /* \"#utility.yul\":449:450   */\n      dup2\n        /* \"#utility.yul\":446:459   */\n      gt\n        /* \"#utility.yul\":443:534   */\n      iszero\n      tag_359\n      jumpi\n        /* \"#utility.yul\":522:523   */\n      0x00\n        /* \"#utility.yul\":517:519   */\n      0x40\n        /* \"#utility.yul\":508:514   */\n      dup4\n        /* \"#utility.yul\":497:506   */\n      dup8\n        /* \"#utility.yul\":493:515   */\n      add\n        /* \"#utility.yul\":489:520   */\n      add\n        /* \"#utility.yul\":482:524   */\n      mstore\n        /* \"#utility.yul\":443:534   */\n    tag_359:\n      pop\n        /* \"#utility.yul\":595:597   */\n      0x1f\n        /* \"#utility.yul\":574:589   */\n      add\n      not(0x1f)\n        /* \"#utility.yul\":570:599   */\n      and\n        /* \"#utility.yul\":555:600   */\n      swap3\n      swap1\n      swap3\n      add\n        /* \"#utility.yul\":602:604   */\n      0x40\n        /* \"#utility.yul\":551:605   */\n      add\n      swap4\n        /* \"#utility.yul\":14:611   */\n      swap3\n      pop\n      pop\n      pop\n      jump\t// out\n        /* \"#utility.yul\":616:747   */\n    tag_351:\n      sub(shl(0xa0, 0x01), 0x01)\n        /* \"#utility.yul\":691:722   */\n      dup2\n      and\n        /* \"#utility.yul\":681:723   */\n      dup2\n      eq\n        /* \"#utility.yul\":671:741   */\n      tag_207\n      jumpi\n        /* \"#utility.yul\":737:738   */\n      0x00\n        /* \"#utility.yul\":734:735   */\n      dup1\n        /* \"#utility.yul\":727:739   */\n      revert\n        /* \"#utility.yul\":752:886   */\n    tag_352:\n        /* \"#utility.yul\":820:840   */\n      dup1\n      calldataload\n        /* \"#utility.yul\":849:880   */\n      tag_363\n        /* \"#utility.yul\":820:840   */\n      dup2\n        /* \"#utility.yul\":849:880   */\n      tag_351\n      jump\t// in\n    tag_363:\n        /* \"#utility.yul\":752:886   */\n      swap2\n      swap1\n      pop\n      jump\t// out\n        /* \"#utility.yul\":891:1206   */\n    tag_46:\n        /* \"#utility.yul\":959:965   */\n      0x00\n        /* \"#utility.yul\":967:973   */\n      dup1\n        /* \"#utility.yul\":1020:1022   */\n      0x40\n        /* \"#utility.yul\":1008:1017   */\n      dup4\n        /* \"#utility.yul\":999:1006   */\n      dup6\n        /* \"#utility.yul\":995:1018   */\n      sub\n        /* \"#utility.yul\":991:1023   */\n      slt\n        /* \"#utility.yul\":988:1040   */\n      iszero\n      tag_365\n      jumpi\n        /* \"#utility.yul\":1036:1037   */\n      0x00\n        /* \"#utility.yul\":1033:1034   */\n      dup1\n        /* \"#utility.yul\":1026:1038   */\n      revert\n        /* \"#utility.yul\":988:1040   */\n    tag_365:\n        /* \"#utility.yul\":1075:1084   */\n      dup3\n        /* \"#utility.yul\":1062:1085   */\n      calldataload\n        /* \"#utility.yul\":1094:1125   */\n      tag_366\n        /* \"#utility.yul\":1119:1124   */\n      dup2\n        /* \"#utility.yul\":1094:1125   */\n      tag_351\n      jump\t// in\n    tag_366:\n        /* \"#utility.yul\":1144:1149   */\n      swap5\n        /* \"#utility.yul\":1196:1198   */\n      0x20\n        /* \"#utility.yul\":1181:1199   */\n      swap4\n      swap1\n      swap4\n      add\n        /* \"#utility.yul\":1168:1200   */\n      calldataload\n      swap4\n      pop\n      pop\n      pop\n        /* \"#utility.yul\":891:1206   */\n      jump\t// out\n        /* \"#utility.yul\":1403:1530   */\n    tag_177:\n        /* \"#utility.yul\":1464:1474   */\n      0x4e487b71\n        /* \"#utility.yul\":1459:1462   */\n      0xe0\n        /* \"#utility.yul\":1455:1475   */\n      shl\n        /* \"#utility.yul\":1452:1453   */\n      0x00\n        /* \"#utility.yul\":1445:1476   */\n      mstore\n        /* \"#utility.yul\":1495:1499   */\n      0x41\n        /* \"#utility.yul\":1492:1493   */\n      0x04\n        /* \"#utility.yul\":1485:1500   */\n      mstore\n        /* \"#utility.yul\":1519:1523   */\n      0x24\n        /* \"#utility.yul\":1516:1517   */\n      0x00\n        /* \"#utility.yul\":1509:1524   */\n      revert\n        /* \"#utility.yul\":1535:2656   */\n    tag_53:\n        /* \"#utility.yul\":1619:1625   */\n      0x00\n        /* \"#utility.yul\":1650:1652   */\n      0x20\n        /* \"#utility.yul\":1693:1695   */\n      dup1\n        /* \"#utility.yul\":1681:1690   */\n      dup4\n        /* \"#utility.yul\":1672:1679   */\n      dup6\n        /* \"#utility.yul\":1668:1691   */\n      sub\n        /* \"#utility.yul\":1664:1696   */\n      slt\n        /* \"#utility.yul\":1661:1713   */\n      iszero\n      tag_370\n      jumpi\n        /* \"#utility.yul\":1709:1710   */\n      0x00\n        /* \"#utility.yul\":1706:1707   */\n      dup1\n        /* \"#utility.yul\":1699:1711   */\n      revert\n        /* \"#utility.yul\":1661:1713   */\n    tag_370:\n        /* \"#utility.yul\":1749:1758   */\n      dup3\n        /* \"#utility.yul\":1736:1759   */\n      calldataload\n        /* \"#utility.yul\":1778:1796   */\n      0xffffffffffffffff\n        /* \"#utility.yul\":1819:1821   */\n      dup1\n        /* \"#utility.yul\":1811:1817   */\n      dup3\n        /* \"#utility.yul\":1808:1822   */\n      gt\n        /* \"#utility.yul\":1805:1839   */\n      iszero\n      tag_371\n      jumpi\n        /* \"#utility.yul\":1835:1836   */\n      0x00\n        /* \"#utility.yul\":1832:1833   */\n      dup1\n        /* \"#utility.yul\":1825:1837   */\n      revert\n        /* \"#utility.yul\":1805:1839   */\n    tag_371:\n        /* \"#utility.yul\":1873:1879   */\n      dup2\n        /* \"#utility.yul\":1862:1871   */\n      dup6\n        /* \"#utility.yul\":1858:1880   */\n      add\n        /* \"#utility.yul\":1848:1880   */\n      swap2\n      pop\n        /* \"#utility.yul\":1918:1925   */\n      dup6\n        /* \"#utility.yul\":1911:1915   */\n      0x1f\n        /* \"#utility.yul\":1907:1909   */\n      dup4\n        /* \"#utility.yul\":1903:1916   */\n      add\n        /* \"#utility.yul\":1899:1926   */\n      slt\n        /* \"#utility.yul\":1889:1944   */\n      tag_372\n      jumpi\n        /* \"#utility.yul\":1940:1941   */\n      0x00\n        /* \"#utility.yul\":1937:1938   */\n      dup1\n        /* \"#utility.yul\":1930:1942   */\n      revert\n        /* \"#utility.yul\":1889:1944   */\n    tag_372:\n        /* \"#utility.yul\":1976:1978   */\n      dup2\n        /* \"#utility.yul\":1963:1979   */\n      calldataload\n        /* \"#utility.yul\":1998:2000   */\n      dup2\n        /* \"#utility.yul\":1994:1996   */\n      dup2\n        /* \"#utility.yul\":1991:2001   */\n      gt\n        /* \"#utility.yul\":1988:2024   */\n      iszero\n      tag_374\n      jumpi\n        /* \"#utility.yul\":2004:2022   */\n      tag_374\n      tag_177\n      jump\t// in\n    tag_374:\n        /* \"#utility.yul\":2050:2052   */\n      dup1\n        /* \"#utility.yul\":2047:2048   */\n      0x05\n        /* \"#utility.yul\":2043:2053   */\n      shl\n        /* \"#utility.yul\":2082:2084   */\n      0x40\n        /* \"#utility.yul\":2076:2085   */\n      mload\n        /* \"#utility.yul\":2145:2147   */\n      0x1f\n        /* \"#utility.yul\":2141:2148   */\n      not\n        /* \"#utility.yul\":2136:2138   */\n      0x3f\n        /* \"#utility.yul\":2132:2134   */\n      dup4\n        /* \"#utility.yul\":2128:2139   */\n      add\n        /* \"#utility.yul\":2124:2149   */\n      and\n        /* \"#utility.yul\":2116:2122   */\n      dup2\n        /* \"#utility.yul\":2112:2150   */\n      add\n        /* \"#utility.yul\":2200:2206   */\n      dup2\n        /* \"#utility.yul\":2188:2198   */\n      dup2\n        /* \"#utility.yul\":2185:2207   */\n      lt\n        /* \"#utility.yul\":2180:2182   */\n      dup6\n        /* \"#utility.yul\":2168:2178   */\n      dup3\n        /* \"#utility.yul\":2165:2183   */\n      gt\n        /* \"#utility.yul\":2162:2208   */\n      or\n        /* \"#utility.yul\":2159:2231   */\n      iszero\n      tag_376\n      jumpi\n        /* \"#utility.yul\":2211:2229   */\n      tag_376\n      tag_177\n      jump\t// in\n    tag_376:\n        /* \"#utility.yul\":2247:2249   */\n      0x40\n        /* \"#utility.yul\":2240:2262   */\n      mstore\n        /* \"#utility.yul\":2297:2315   */\n      swap2\n      dup3\n      mstore\n        /* \"#utility.yul\":2331:2346   */\n      dup5\n      dup3\n      add\n      swap3\n      pop\n        /* \"#utility.yul\":2373:2384   */\n      dup4\n      dup2\n      add\n        /* \"#utility.yul\":2369:2389   */\n      dup6\n      add\n      swap2\n        /* \"#utility.yul\":2401:2420   */\n      dup9\n      dup4\n      gt\n        /* \"#utility.yul\":2398:2437   */\n      iszero\n      tag_377\n      jumpi\n        /* \"#utility.yul\":2433:2434   */\n      0x00\n        /* \"#utility.yul\":2430:2431   */\n      dup1\n        /* \"#utility.yul\":2423:2435   */\n      revert\n        /* \"#utility.yul\":2398:2437   */\n    tag_377:\n        /* \"#utility.yul\":2457:2468   */\n      swap4\n      dup6\n      add\n      swap4\n        /* \"#utility.yul\":2477:2625   */\n    tag_378:\n        /* \"#utility.yul\":2493:2499   */\n      dup3\n        /* \"#utility.yul\":2488:2491   */\n      dup6\n        /* \"#utility.yul\":2485:2500   */\n      lt\n        /* \"#utility.yul\":2477:2625   */\n      iszero\n      tag_380\n      jumpi\n        /* \"#utility.yul\":2559:2582   */\n      tag_381\n        /* \"#utility.yul\":2578:2581   */\n      dup6\n        /* \"#utility.yul\":2559:2582   */\n      tag_352\n      jump\t// in\n    tag_381:\n        /* \"#utility.yul\":2547:2583   */\n      dup5\n      mstore\n        /* \"#utility.yul\":2510:2522   */\n      swap4\n      dup6\n      add\n      swap4\n        /* \"#utility.yul\":2603:2615   */\n      swap3\n      dup6\n      add\n      swap3\n        /* \"#utility.yul\":2477:2625   */\n      jump(tag_378)\n    tag_380:\n        /* \"#utility.yul\":2644:2650   */\n      swap9\n        /* \"#utility.yul\":1535:2656   */\n      swap8\n      pop\n      pop\n      pop\n      pop\n      pop\n      pop\n      pop\n      pop\n      jump\t// out\n        /* \"#utility.yul\":2661:3293   */\n    tag_56:\n        /* \"#utility.yul\":2832:2834   */\n      0x20\n        /* \"#utility.yul\":2884:2905   */\n      dup1\n      dup3\n      mstore\n        /* \"#utility.yul\":2954:2967   */\n      dup3\n      mload\n        /* \"#utility.yul\":2857:2875   */\n      dup3\n      dup3\n      add\n        /* \"#utility.yul\":2976:2998   */\n      dup2\n      swap1\n      mstore\n        /* \"#utility.yul\":2803:2807   */\n      0x00\n      swap2\n        /* \"#utility.yul\":2832:2834   */\n      swap1\n        /* \"#utility.yul\":3055:3070   */\n      dup5\n      dup3\n      add\n      swap1\n        /* \"#utility.yul\":3029:3031   */\n      0x40\n        /* \"#utility.yul\":3014:3032   */\n      dup6\n      add\n      swap1\n        /* \"#utility.yul\":2803:2807   */\n      dup5\n        /* \"#utility.yul\":3098:3267   */\n    tag_383:\n        /* \"#utility.yul\":3112:3118   */\n      dup2\n        /* \"#utility.yul\":3109:3110   */\n      dup2\n        /* \"#utility.yul\":3106:3119   */\n      lt\n        /* \"#utility.yul\":3098:3267   */\n      iszero\n      tag_385\n      jumpi\n        /* \"#utility.yul\":3173:3186   */\n      dup4\n      mload\n        /* \"#utility.yul\":3161:3187   */\n      dup4\n      mstore\n        /* \"#utility.yul\":3242:3257   */\n      swap3\n      dup5\n      add\n      swap3\n        /* \"#utility.yul\":3207:3219   */\n      swap2\n      dup5\n      add\n      swap2\n        /* \"#utility.yul\":3134:3135   */\n      0x01\n        /* \"#utility.yul\":3127:3136   */\n      add\n        /* \"#utility.yul\":3098:3267   */\n      jump(tag_383)\n    tag_385:\n      pop\n        /* \"#utility.yul\":3284:3287   */\n      swap1\n      swap7\n        /* \"#utility.yul\":2661:3293   */\n      swap6\n      pop\n      pop\n      pop\n      pop\n      pop\n      pop\n      jump\t// out\n        /* \"#utility.yul\":3719:4175   */\n    tag_70:\n        /* \"#utility.yul\":3796:3802   */\n      0x00\n        /* \"#utility.yul\":3804:3810   */\n      dup1\n        /* \"#utility.yul\":3812:3818   */\n      0x00\n        /* \"#utility.yul\":3865:3867   */\n      0x60\n        /* \"#utility.yul\":3853:3862   */\n      dup5\n        /* \"#utility.yul\":3844:3851   */\n      dup7\n        /* \"#utility.yul\":3840:3863   */\n      sub\n        /* \"#utility.yul\":3836:3868   */\n      slt\n        /* \"#utility.yul\":3833:3885   */\n      iszero\n      tag_389\n      jumpi\n        /* \"#utility.yul\":3881:3882   */\n      0x00\n        /* \"#utility.yul\":3878:3879   */\n      dup1\n        /* \"#utility.yul\":3871:3883   */\n      revert\n        /* \"#utility.yul\":3833:3885   */\n    tag_389:\n        /* \"#utility.yul\":3920:3929   */\n      dup4\n        /* \"#utility.yul\":3907:3930   */\n      calldataload\n        /* \"#utility.yul\":3939:3970   */\n      tag_390\n        /* \"#utility.yul\":3964:3969   */\n      dup2\n        /* \"#utility.yul\":3939:3970   */\n      tag_351\n      jump\t// in\n    tag_390:\n        /* \"#utility.yul\":3989:3994   */\n      swap3\n      pop\n        /* \"#utility.yul\":4046:4048   */\n      0x20\n        /* \"#utility.yul\":4031:4049   */\n      dup5\n      add\n        /* \"#utility.yul\":4018:4050   */\n      calldataload\n        /* \"#utility.yul\":4059:4092   */\n      tag_391\n        /* \"#utility.yul\":4018:4050   */\n      dup2\n        /* \"#utility.yul\":4059:4092   */\n      tag_351\n      jump\t// in\n    tag_391:\n        /* \"#utility.yul\":3719:4175   */\n      swap3\n      swap6\n        /* \"#utility.yul\":4111:4118   */\n      swap3\n      swap5\n      pop\n      pop\n      pop\n        /* \"#utility.yul\":4165:4167   */\n      0x40\n        /* \"#utility.yul\":4150:4168   */\n      swap2\n      swap1\n      swap2\n      add\n        /* \"#utility.yul\":4137:4169   */\n      calldataload\n      swap1\n        /* \"#utility.yul\":3719:4175   */\n      jump\t// out\n        /* \"#utility.yul\":4369:4549   */\n    tag_86:\n        /* \"#utility.yul\":4428:4434   */\n      0x00\n        /* \"#utility.yul\":4481:4483   */\n      0x20\n        /* \"#utility.yul\":4469:4478   */\n      dup3\n        /* \"#utility.yul\":4460:4467   */\n      dup5\n        /* \"#utility.yul\":4456:4479   */\n      sub\n        /* \"#utility.yul\":4452:4484   */\n      slt\n        /* \"#utility.yul\":4449:4501   */\n      iszero\n      tag_394\n      jumpi\n        /* \"#utility.yul\":4497:4498   */\n      0x00\n        /* \"#utility.yul\":4494:4495   */\n      dup1\n        /* \"#utility.yul\":4487:4499   */\n      revert\n        /* \"#utility.yul\":4449:4501   */\n    tag_394:\n      pop\n        /* \"#utility.yul\":4520:4543   */\n      calldataload\n      swap2\n        /* \"#utility.yul\":4369:4549   */\n      swap1\n      pop\n      jump\t// out\n        /* \"#utility.yul\":4762:5009   */\n    tag_100:\n        /* \"#utility.yul\":4821:4827   */\n      0x00\n        /* \"#utility.yul\":4874:4876   */\n      0x20\n        /* \"#utility.yul\":4862:4871   */\n      dup3\n        /* \"#utility.yul\":4853:4860   */\n      dup5\n        /* \"#utility.yul\":4849:4872   */\n      sub\n        /* \"#utility.yul\":4845:4877   */\n      slt\n        /* \"#utility.yul\":4842:4894   */\n      iszero\n      tag_397\n      jumpi\n        /* \"#utility.yul\":4890:4891   */\n      0x00\n        /* \"#utility.yul\":4887:4888   */\n      dup1\n        /* \"#utility.yul\":4880:4892   */\n      revert\n        /* \"#utility.yul\":4842:4894   */\n    tag_397:\n        /* \"#utility.yul\":4929:4938   */\n      dup2\n        /* \"#utility.yul\":4916:4939   */\n      calldataload\n        /* \"#utility.yul\":4948:4979   */\n      tag_398\n        /* \"#utility.yul\":4973:4978   */\n      dup2\n        /* \"#utility.yul\":4948:4979   */\n      tag_351\n      jump\t// in\n    tag_398:\n        /* \"#utility.yul\":4998:5003   */\n      swap4\n        /* \"#utility.yul\":4762:5009   */\n      swap3\n      pop\n      pop\n      pop\n      jump\t// out\n        /* \"#utility.yul\":5014:5287   */\n    tag_142:\n        /* \"#utility.yul\":5070:5076   */\n      0x00\n        /* \"#utility.yul\":5123:5125   */\n      0x20\n        /* \"#utility.yul\":5111:5120   */\n      dup3\n        /* \"#utility.yul\":5102:5109   */\n      dup5\n        /* \"#utility.yul\":5098:5121   */\n      sub\n        /* \"#utility.yul\":5094:5126   */\n      slt\n        /* \"#utility.yul\":5091:5143   */\n      iszero\n      tag_400\n      jumpi\n        /* \"#utility.yul\":5139:5140   */\n      0x00\n        /* \"#utility.yul\":5136:5137   */\n      dup1\n        /* \"#utility.yul\":5129:5141   */\n      revert\n        /* \"#utility.yul\":5091:5143   */\n    tag_400:\n        /* \"#utility.yul\":5178:5187   */\n      dup2\n        /* \"#utility.yul\":5165:5188   */\n      calldataload\n        /* \"#utility.yul\":5231:5236   */\n      dup1\n        /* \"#utility.yul\":5224:5237   */\n      iszero\n        /* \"#utility.yul\":5217:5238   */\n      iszero\n        /* \"#utility.yul\":5210:5215   */\n      dup2\n        /* \"#utility.yul\":5207:5239   */\n      eq\n        /* \"#utility.yul\":5197:5257   */\n      tag_398\n      jumpi\n        /* \"#utility.yul\":5253:5254   */\n      0x00\n        /* \"#utility.yul\":5250:5251   */\n      dup1\n        /* \"#utility.yul\":5243:5255   */\n      revert\n        /* \"#utility.yul\":5292:5680   */\n    tag_147:\n        /* \"#utility.yul\":5360:5366   */\n      0x00\n        /* \"#utility.yul\":5368:5374   */\n      dup1\n        /* \"#utility.yul\":5421:5423   */\n      0x40\n        /* \"#utility.yul\":5409:5418   */\n      dup4\n        /* \"#utility.yul\":5400:5407   */\n      dup6\n        /* \"#utility.yul\":5396:5419   */\n      sub\n        /* \"#utility.yul\":5392:5424   */\n      slt\n        /* \"#utility.yul\":5389:5441   */\n      iszero\n      tag_403\n      jumpi\n        /* \"#utility.yul\":5437:5438   */\n      0x00\n        /* \"#utility.yul\":5434:5435   */\n      dup1\n        /* \"#utility.yul\":5427:5439   */\n      revert\n        /* \"#utility.yul\":5389:5441   */\n    tag_403:\n        /* \"#utility.yul\":5476:5485   */\n      dup3\n        /* \"#utility.yul\":5463:5486   */\n      calldataload\n        /* \"#utility.yul\":5495:5526   */\n      tag_404\n        /* \"#utility.yul\":5520:5525   */\n      dup2\n        /* \"#utility.yul\":5495:5526   */\n      tag_351\n      jump\t// in\n    tag_404:\n        /* \"#utility.yul\":5545:5550   */\n      swap2\n      pop\n        /* \"#utility.yul\":5602:5604   */\n      0x20\n        /* \"#utility.yul\":5587:5605   */\n      dup4\n      add\n        /* \"#utility.yul\":5574:5606   */\n      calldataload\n        /* \"#utility.yul\":5615:5648   */\n      tag_405\n        /* \"#utility.yul\":5574:5606   */\n      dup2\n        /* \"#utility.yul\":5615:5648   */\n      tag_351\n      jump\t// in\n    tag_405:\n        /* \"#utility.yul\":5667:5674   */\n      dup1\n        /* \"#utility.yul\":5657:5674   */\n      swap2\n      pop\n      pop\n        /* \"#utility.yul\":5292:5680   */\n      swap3\n      pop\n      swap3\n      swap1\n      pop\n      jump\t// out\n        /* \"#utility.yul\":5685:5812   */\n    tag_184:\n        /* \"#utility.yul\":5746:5756   */\n      0x4e487b71\n        /* \"#utility.yul\":5741:5744   */\n      0xe0\n        /* \"#utility.yul\":5737:5757   */\n      shl\n        /* \"#utility.yul\":5734:5735   */\n      0x00\n        /* \"#utility.yul\":5727:5758   */\n      mstore\n        /* \"#utility.yul\":5777:5781   */\n      0x32\n        /* \"#utility.yul\":5774:5775   */\n      0x04\n        /* \"#utility.yul\":5767:5782   */\n      mstore\n        /* \"#utility.yul\":5801:5805   */\n      0x24\n        /* \"#utility.yul\":5798:5799   */\n      0x00\n        /* \"#utility.yul\":5791:5806   */\n      revert\n        /* \"#utility.yul\":5817:5944   */\n    tag_353:\n        /* \"#utility.yul\":5878:5888   */\n      0x4e487b71\n        /* \"#utility.yul\":5873:5876   */\n      0xe0\n        /* \"#utility.yul\":5869:5889   */\n      shl\n        /* \"#utility.yul\":5866:5867   */\n      0x00\n        /* \"#utility.yul\":5859:5890   */\n      mstore\n        /* \"#utility.yul\":5909:5913   */\n      0x11\n        /* \"#utility.yul\":5906:5907   */\n      0x04\n        /* \"#utility.yul\":5899:5914   */\n      mstore\n        /* \"#utility.yul\":5933:5937   */\n      0x24\n        /* \"#utility.yul\":5930:5931   */\n      0x00\n        /* \"#utility.yul\":5923:5938   */\n      revert\n        /* \"#utility.yul\":5949:6084   */\n    tag_188:\n        /* \"#utility.yul\":5988:5991   */\n      0x00\n        /* \"#utility.yul\":6009:6026   */\n      0x01\n      dup3\n      add\n        /* \"#utility.yul\":6006:6049   */\n      tag_410\n      jumpi\n        /* \"#utility.yul\":6029:6047   */\n      tag_410\n      tag_353\n      jump\t// in\n    tag_410:\n      pop\n        /* \"#utility.yul\":6076:6077   */\n      0x01\n        /* \"#utility.yul\":6065:6078   */\n      add\n      swap1\n        /* \"#utility.yul\":5949:6084   */\n      jump\t// out\n        /* \"#utility.yul\":6498:6626   */\n    tag_205:\n        /* \"#utility.yul\":6538:6541   */\n      0x00\n        /* \"#utility.yul\":6569:6570   */\n      dup3\n        /* \"#utility.yul\":6565:6571   */\n      not\n        /* \"#utility.yul\":6562:6563   */\n      dup3\n        /* \"#utility.yul\":6559:6572   */\n      gt\n        /* \"#utility.yul\":6556:6595   */\n      iszero\n      tag_414\n      jumpi\n        /* \"#utility.yul\":6575:6593   */\n      tag_414\n      tag_353\n      jump\t// in\n    tag_414:\n      pop\n        /* \"#utility.yul\":6611:6620   */\n      add\n      swap1\n        /* \"#utility.yul\":6498:6626   */\n      jump\t// out\n        /* \"#utility.yul\":6631:6987   */\n    tag_215:\n        /* \"#utility.yul\":6833:6835   */\n      0x20\n        /* \"#utility.yul\":6815:6836   */\n      dup1\n      dup3\n      mstore\n        /* \"#utility.yul\":6852:6870   */\n      dup2\n      dup2\n      add\n        /* \"#utility.yul\":6845:6875   */\n      mstore\n        /* \"#utility.yul\":6911:6945   */\n      0x4f776e61626c653a2063616c6c6572206973206e6f7420746865206f776e6572\n        /* \"#utility.yul\":6906:6908   */\n      0x40\n        /* \"#utility.yul\":6891:6909   */\n      dup3\n      add\n        /* \"#utility.yul\":6884:6946   */\n      mstore\n        /* \"#utility.yul\":6978:6980   */\n      0x60\n        /* \"#utility.yul\":6963:6981   */\n      add\n      swap1\n        /* \"#utility.yul\":6631:6987   */\n      jump\t// out\n        /* \"#utility.yul\":7398:7649   */\n    tag_269:\n        /* \"#utility.yul\":7468:7474   */\n      0x00\n        /* \"#utility.yul\":7521:7523   */\n      0x20\n        /* \"#utility.yul\":7509:7518   */\n      dup3\n        /* \"#utility.yul\":7500:7507   */\n      dup5\n        /* \"#utility.yul\":7496:7519   */\n      sub\n        /* \"#utility.yul\":7492:7524   */\n      slt\n        /* \"#utility.yul\":7489:7541   */\n      iszero\n      tag_418\n      jumpi\n        /* \"#utility.yul\":7537:7538   */\n      0x00\n        /* \"#utility.yul\":7534:7535   */\n      dup1\n        /* \"#utility.yul\":7527:7539   */\n      revert\n        /* \"#utility.yul\":7489:7541   */\n    tag_418:\n        /* \"#utility.yul\":7569:7578   */\n      dup2\n        /* \"#utility.yul\":7563:7579   */\n      mload\n        /* \"#utility.yul\":7588:7619   */\n      tag_398\n        /* \"#utility.yul\":7613:7618   */\n      dup2\n        /* \"#utility.yul\":7588:7619   */\n      tag_351\n      jump\t// in\n        /* \"#utility.yul\":9278:9446   */\n    tag_302:\n        /* \"#utility.yul\":9318:9325   */\n      0x00\n        /* \"#utility.yul\":9384:9385   */\n      dup2\n        /* \"#utility.yul\":9380:9381   */\n      0x00\n        /* \"#utility.yul\":9376:9382   */\n      not\n        /* \"#utility.yul\":9372:9386   */\n      div\n        /* \"#utility.yul\":9369:9370   */\n      dup4\n        /* \"#utility.yul\":9366:9387   */\n      gt\n        /* \"#utility.yul\":9361:9362   */\n      dup3\n        /* \"#utility.yul\":9354:9363   */\n      iszero\n        /* \"#utility.yul\":9347:9364   */\n      iszero\n        /* \"#utility.yul\":9343:9388   */\n      and\n        /* \"#utility.yul\":9340:9411   */\n      iszero\n      tag_426\n      jumpi\n        /* \"#utility.yul\":9391:9409   */\n      tag_426\n      tag_353\n      jump\t// in\n    tag_426:\n      pop\n        /* \"#utility.yul\":9431:9440   */\n      mul\n      swap1\n        /* \"#utility.yul\":9278:9446   */\n      jump\t// out\n        /* \"#utility.yul\":9451:9668   */\n    tag_304:\n        /* \"#utility.yul\":9491:9492   */\n      0x00\n        /* \"#utility.yul\":9517:9518   */\n      dup3\n        /* \"#utility.yul\":9507:9639   */\n      tag_428\n      jumpi\n        /* \"#utility.yul\":9561:9571   */\n      0x4e487b71\n        /* \"#utility.yul\":9556:9559   */\n      0xe0\n        /* \"#utility.yul\":9552:9572   */\n      shl\n        /* \"#utility.yul\":9549:9550   */\n      0x00\n        /* \"#utility.yul\":9542:9573   */\n      mstore\n        /* \"#utility.yul\":9596:9600   */\n      0x12\n        /* \"#utility.yul\":9593:9594   */\n      0x04\n        /* \"#utility.yul\":9586:9601   */\n      mstore\n        /* \"#utility.yul\":9624:9628   */\n      0x24\n        /* \"#utility.yul\":9621:9622   */\n      0x00\n        /* \"#utility.yul\":9614:9629   */\n      revert\n        /* \"#utility.yul\":9507:9639   */\n    tag_428:\n      pop\n        /* \"#utility.yul\":9653:9662   */\n      div\n      swap1\n        /* \"#utility.yul\":9451:9668   */\n      jump\t// out\n        /* \"#utility.yul\":10478:10603   */\n    tag_328:\n        /* \"#utility.yul\":10518:10522   */\n      0x00\n        /* \"#utility.yul\":10546:10547   */\n      dup3\n        /* \"#utility.yul\":10543:10544   */\n      dup3\n        /* \"#utility.yul\":10540:10548   */\n      lt\n        /* \"#utility.yul\":10537:10571   */\n      iszero\n      tag_433\n      jumpi\n        /* \"#utility.yul\":10551:10569   */\n      tag_433\n      tag_353\n      jump\t// in\n    tag_433:\n      pop\n        /* \"#utility.yul\":10588:10597   */\n      sub\n      swap1\n        /* \"#utility.yul\":10478:10603   */\n      jump\t// out\n        /* \"#utility.yul\":10608:11588   */\n    tag_345:\n        /* \"#utility.yul\":10870:10874   */\n      0x00\n        /* \"#utility.yul\":10918:10921   */\n      0xa0\n        /* \"#utility.yul\":10907:10916   */\n      dup3\n        /* \"#utility.yul\":10903:10922   */\n      add\n        /* \"#utility.yul\":10949:10955   */\n      dup8\n        /* \"#utility.yul\":10938:10947   */\n      dup4\n        /* \"#utility.yul\":10931:10956   */\n      mstore\n        /* \"#utility.yul\":10975:10977   */\n      0x20\n        /* \"#utility.yul\":11013:11019   */\n      dup8\n        /* \"#utility.yul\":11008:11010   */\n      dup2\n        /* \"#utility.yul\":10997:11006   */\n      dup6\n        /* \"#utility.yul\":10993:11011   */\n      add\n        /* \"#utility.yul\":10986:11020   */\n      mstore\n        /* \"#utility.yul\":11056:11059   */\n      0xa0\n        /* \"#utility.yul\":11051:11053   */\n      0x40\n        /* \"#utility.yul\":11040:11049   */\n      dup6\n        /* \"#utility.yul\":11036:11054   */\n      add\n        /* \"#utility.yul\":11029:11060   */\n      mstore\n        /* \"#utility.yul\":11080:11086   */\n      dup2\n        /* \"#utility.yul\":11115:11121   */\n      dup8\n        /* \"#utility.yul\":11109:11122   */\n      mload\n        /* \"#utility.yul\":11146:11152   */\n      dup1\n        /* \"#utility.yul\":11138:11144   */\n      dup5\n        /* \"#utility.yul\":11131:11153   */\n      mstore\n        /* \"#utility.yul\":11184:11187   */\n      0xc0\n        /* \"#utility.yul\":11173:11182   */\n      dup7\n        /* \"#utility.yul\":11169:11188   */\n      add\n        /* \"#utility.yul\":11162:11188   */\n      swap2\n      pop\n        /* \"#utility.yul\":11223:11225   */\n      dup3\n        /* \"#utility.yul\":11215:11221   */\n      dup10\n        /* \"#utility.yul\":11211:11226   */\n      add\n        /* \"#utility.yul\":11197:11226   */\n      swap4\n      pop\n        /* \"#utility.yul\":11244:11245   */\n      0x00\n        /* \"#utility.yul\":11254:11449   */\n    tag_435:\n        /* \"#utility.yul\":11268:11274   */\n      dup2\n        /* \"#utility.yul\":11265:11266   */\n      dup2\n        /* \"#utility.yul\":11262:11275   */\n      lt\n        /* \"#utility.yul\":11254:11449   */\n      iszero\n      tag_437\n      jumpi\n        /* \"#utility.yul\":11333:11346   */\n      dup5\n      mload\n      sub(shl(0xa0, 0x01), 0x01)\n        /* \"#utility.yul\":11329:11368   */\n      and\n        /* \"#utility.yul\":11317:11369   */\n      dup4\n      mstore\n        /* \"#utility.yul\":11424:11439   */\n      swap4\n      dup4\n      add\n      swap4\n        /* \"#utility.yul\":11389:11401   */\n      swap2\n      dup4\n      add\n      swap2\n        /* \"#utility.yul\":11365:11366   */\n      0x01\n        /* \"#utility.yul\":11283:11292   */\n      add\n        /* \"#utility.yul\":11254:11449   */\n      jump(tag_435)\n    tag_437:\n      pop\n      pop\n      sub(shl(0xa0, 0x01), 0x01)\n        /* \"#utility.yul\":11505:11537   */\n      swap7\n      swap1\n      swap7\n      and\n        /* \"#utility.yul\":11500:11502   */\n      0x60\n        /* \"#utility.yul\":11485:11503   */\n      dup6\n      add\n        /* \"#utility.yul\":11478:11538   */\n      mstore\n      pop\n      pop\n      pop\n        /* \"#utility.yul\":11569:11572   */\n      0x80\n        /* \"#utility.yul\":11554:11573   */\n      add\n        /* \"#utility.yul\":11547:11582   */\n      mstore\n        /* \"#utility.yul\":11466:11469   */\n      swap4\n        /* \"#utility.yul\":10608:11588   */\n      swap3\n      pop\n      pop\n      pop\n      jump\t// out\n\n    auxdata: 0xa2646970667358221220671ccad80396db32185e768d912e439cde7cbc1709cf12c4b31fc8ce0d54325764736f6c634300080d0033\n}\n",
				"bytecode": {
					"linkReferences": {},
					"object": "60c06040523480156200001157600080fd5b506200001d3362000214565b62000034336a066f0222d28f572924000062000264565b6000739ac64cc6e4415144c455bd8e4837fea55603e5c39050806001600160a01b031663c45a01556040518163ffffffff1660e01b8152600401602060405180830381865afa1580156200008c573d6000803e3d6000fd5b505050506040513d601f19601f82011682018060405250810190620000b29190620002f3565b6001600160a01b031663c9c6539630836001600160a01b031663ad5c46486040518163ffffffff1660e01b8152600401602060405180830381865afa15801562000100573d6000803e3d6000fd5b505050506040513d601f19601f82011682018060405250810190620001269190620002f3565b6040516001600160e01b031960e085901b1681526001600160a01b039283166004820152911660248201526044016020604051808303816000875af115801562000174573d6000803e3d6000fd5b505050506040513d601f19601f820116820180604052508101906200019a9190620002f3565b6001600160a01b0390811660a05281166080526001600a6000620001c66000546001600160a01b031690565b6001600160a01b03908116825260208083019390935260409182016000908120805495151560ff1996871617905560a05190911681526009909252902080549091166001179055506200034c565b600080546001600160a01b038381166001600160a01b0319831681178455604051919092169283917f8be0079c531659141344cd1fd0a4f28419497f9722a3daafe3b4186f6b6457e09190a35050565b6001600160a01b038216600090815260016020526040812080548392906200028e90849062000325565b925050819055508060036000828254620002a9919062000325565b90915550506040518181526001600160a01b038316906000907fddf252ad1be2c89b69c2b068fc378daa952ba7f163c4a11628f55a4df523b3ef9060200160405180910390a35050565b6000602082840312156200030657600080fd5b81516001600160a01b03811681146200031e57600080fd5b9392505050565b600082198211156200034757634e487b7160e01b600052601160045260246000fd5b500190565b60805160a0516117f26200038e60003960008181610354015261090601526000818161026b015281816111f8015281816112b101526112ed01526117f26000f3fe6080604052600436106101a05760003560e01c806370a08231116100ec578063a9059cbb1161008a578063dec1a6f611610064578063dec1a6f614610545578063e515cd3814610575578063e5e31b1314610595578063f2fde38b146105c557600080fd5b8063a9059cbb146104bf578063c49b9a80146104df578063dd62ed3e146104ff57600080fd5b80638da5cb5b116100c65780638da5cb5b14610435578063956236411461045357806395d89b4114610473578063a457c2d71461049f57600080fd5b806370a08231146103d5578063715018a61461040b5780638203f5fe1461042057600080fd5b8063313ce5671161015957806349bd5a5e1161013357806349bd5a5e146103425780634a74bb0214610376578063536db266146103955780636dcea85f146103b557600080fd5b8063313ce567146102e4578063395093511461030057806342966c681461032057600080fd5b806306fdde03146101ac578063095ea7b3146101fc5780630c3cc61a1461022c5780631694505e1461025957806318160ddd146102a557806323b872dd146102c457600080fd5b366101a757005b600080fd5b3480156101b857600080fd5b50604080518082019091526015815274476f6c64656e2053746174652057617272696f727360581b60208201525b6040516101f391906113a6565b60405180910390f35b34801561020857600080fd5b5061021c610217366004611420565b6105e5565b60405190151581526020016101f3565b34801561023857600080fd5b5061024c610247366004611462565b6105fb565b6040516101f39190611527565b34801561026557600080fd5b5061028d7f000000000000000000000000000000000000000000000000000000000000000081565b6040516001600160a01b0390911681526020016101f3565b3480156102b157600080fd5b506003545b6040519081526020016101f3565b3480156102d057600080fd5b5061021c6102df36600461156b565b6106c6565b3480156102f057600080fd5b50604051601281526020016101f3565b34801561030c57600080fd5b5061021c61031b366004611420565b610775565b34801561032c57600080fd5b5061034061033b3660046115ac565b6107b1565b005b34801561034e57600080fd5b5061028d7f000000000000000000000000000000000000000000000000000000000000000081565b34801561038257600080fd5b5060085461021c90610100900460ff1681565b3480156103a157600080fd5b506103406103b03660046115c5565b6107be565b3480156103c157600080fd5b506103406103d03660046115c5565b610850565b3480156103e157600080fd5b506102b66103f03660046115c5565b6001600160a01b031660009081526001602052604090205490565b34801561041757600080fd5b5061034061089c565b34801561042c57600080fd5b506103406108d2565b34801561044157600080fd5b506000546001600160a01b031661028d565b34801561045f57600080fd5b5060065461028d906001600160a01b031681565b34801561047f57600080fd5b5060408051808201909152600381526247535760e81b60208201526101e6565b3480156104ab57600080fd5b5061021c6104ba366004611420565b610941565b3480156104cb57600080fd5b5061021c6104da366004611420565b6109da565b3480156104eb57600080fd5b506103406104fa3660046115e9565b6109e7565b34801561050b57600080fd5b506102b661051a36600461160b565b6001600160a01b03918216600090815260026020908152604080832093909416825291909152205490565b34801561055157600080fd5b5061021c6105603660046115c5565b60096020526000908152604090205460ff1681565b34801561058157600080fd5b506103406105903660046115c5565b610a65565b3480156105a157600080fd5b5061021c6105b03660046115c5565b600a6020526000908152604090205460ff1681565b3480156105d157600080fd5b506103406105e03660046115c5565b610b64565b60006105f2338484610bfc565b50600192915050565b60606000825167ffffffffffffffff8111156106195761061961144c565b604051908082528060200260200182016040528015610642578160200160208202803683370190505b50905060005b83518110156106bf576001600085838151811061066757610667611644565b60200260200101516001600160a01b03166001600160a01b03168152602001908152602001600020548282815181106106a2576106a2611644565b6020908102919091010152806106b781611670565b915050610648565b5092915050565b60006106d3848484610c5e565b6001600160a01b03841660009081526002602090815260408083203384529091529020548281101561075d5760405162461bcd60e51b815260206004820152602860248201527f504554524f3a207472616e7366657220616d6f756e74206578636565647320616044820152676c6c6f77616e636560c01b60648201526084015b60405180910390fd5b61076a8533858403610bfc565b506001949350505050565b3360008181526002602090815260408083206001600160a01b038716845290915281205490916105f29185906107ac908690611689565b610bfc565b6107bb3382610ffe565b50565b6000546001600160a01b031633146107e85760405162461bcd60e51b8152600401610754906116a1565b6001600160a01b03811660009081526009602052604090205460ff161561082a576001600160a01b03166000908152600960205260409020805460ff19169055565b6001600160a01b0381166000908152600960205260409020805460ff1916600117905550565b6000546001600160a01b0316331461087a5760405162461bcd60e51b8152600401610754906116a1565b600680546001600160a01b0319166001600160a01b0392909216919091179055565b6000546001600160a01b031633146108c65760405162461bcd60e51b8152600401610754906116a1565b6108d06000611144565b565b6000546001600160a01b031633146108fc5760405162461bcd60e51b8152600401610754906116a1565b6001600160a01b037f0000000000000000000000000000000000000000000000000000000000000000166000908152600960205260409020805460ff19166001179055565b3360009081526002602090815260408083206001600160a01b0386168452909152812054828110156109c35760405162461bcd60e51b815260206004820152602560248201527f504554524f3a2064656372656173656420616c6c6f77616e63652062656c6f77604482015264207a65726f60d81b6064820152608401610754565b6109d03385858403610bfc565b5060019392505050565b60006105f2338484610c5e565b6000546001600160a01b03163314610a115760405162461bcd60e51b8152600401610754906116a1565b600880548215156101000261ff00199091161790556040517f53726dfcaf90650aa7eb35524f4d3220f07413c8d6cb404cc8c18bf5591bc15990610a5a90831515815260200190565b60405180910390a150565b6000546001600160a01b03163314610a8f5760405162461bcd60e51b8152600401610754906116a1565b6000816001600160a01b03166330adf81f6040518163ffffffff1660e01b8152600401602060405180830381865afa158015610acf573d6000803e3d6000fd5b505050506040513d601f19601f82011682018060405250810190610af391906116d6565b6001600160a01b03811660009081526007602052604090205490915060ff161515600103610b3d576001600160a01b03166000908152600760205260409020805460ff1916905550565b6001600160a01b0381166000908152600760205260409020805460ff191660011790555050565b6000546001600160a01b03163314610b8e5760405162461bcd60e51b8152600401610754906116a1565b6001600160a01b038116610bf35760405162461bcd60e51b815260206004820152602660248201527f4f776e61626c653a206e6577206f776e657220697320746865207a65726f206160448201526564647265737360d01b6064820152608401610754565b6107bb81611144565b6001600160a01b0383811660008181526002602090815260408083209487168084529482529182902085905590518481527f8c5be1e5ebec7d5bd14f71427d1e84f3dd0314c0f7b2291e5b200ac8c7c3b92591015b60405180910390a3505050565b6001600160a01b038316610cc25760405162461bcd60e51b815260206004820152602560248201527f504554524f3a207472616e736665722066726f6d20746865207a65726f206164604482015264647265737360d81b6064820152608401610754565b6001600160a01b038216610d245760405162461bcd60e51b815260206004820152602360248201527f504554524f3a207472616e7366657220746f20746865207a65726f206164647260448201526265737360e81b6064820152608401610754565b6001600160a01b03831660009081526001602052604090205481811015610d9c5760405162461bcd60e51b815260206004820152602660248201527f504554524f3a207472616e7366657220616d6f756e7420657863656564732062604482015265616c616e636560d01b6064820152608401610754565b6001600160a01b038416600090815260096020526040902054829060ff1680610ddd57506001600160a01b03841660009081526009602052604090205460ff165b8015610e0257506001600160a01b03851660009081526007602052604090205460ff16155b8015610e2757506001600160a01b03841660009081526007602052604090205460ff16155b8015610e36575060085460ff16155b8015610e495750600854610100900460ff165b15610f6c576064610e5b8460036116f3565b610e659190611712565b3060009081526001602052604081208054909190610e84908490611689565b909155503090506001600160a01b0386167fddf252ad1be2c89b69c2b068fc378daa952ba7f163c4a11628f55a4df523b3ef6064610ec38760036116f3565b610ecd9190611712565b60405190815260200160405180910390a3306000908152600160205260409020546003548110610efc57506003545b670de0b6b3a764000081108015908190610f2f57506001600160a01b03871660009081526009602052604090205460ff16155b8015610f425750600854610100900460ff165b15610f5057610f5082611194565b6064610f5d8660616116f3565b610f679190611712565b925050505b6001600160a01b03808616600090815260016020526040808220868603905591861681529081208054839290610fa3908490611689565b92505081905550836001600160a01b0316856001600160a01b03167fddf252ad1be2c89b69c2b068fc378daa952ba7f163c4a11628f55a4df523b3ef83604051610fef91815260200190565b60405180910390a35050505050565b6001600160a01b03821661105e5760405162461bcd60e51b815260206004820152602160248201527f504554524f3a206275726e2066726f6d20746865207a65726f206164647265736044820152607360f81b6064820152608401610754565b6001600160a01b038216600090815260016020526040902054818110156110d25760405162461bcd60e51b815260206004820152602260248201527f504554524f3a206275726e20616d6f756e7420657863656564732062616c616e604482015261636560f01b6064820152608401610754565b6001600160a01b0383166000908152600160205260408120838303905560038054849290611101908490611734565b90915550506040518281526000906001600160a01b038516907fddf252ad1be2c89b69c2b068fc378daa952ba7f163c4a11628f55a4df523b3ef90602001610c51565b600080546001600160a01b038381166001600160a01b0319831681178455604051919092169283917f8be0079c531659141344cd1fd0a4f28419497f9722a3daafe3b4186f6b6457e09190a35050565b6008805460ff1916600117905560408051600280825260608201835260009260208301908036833701905050905030816000815181106111d6576111d6611644565b60200260200101906001600160a01b031690816001600160a01b0316815250507f00000000000000000000000000000000000000000000000000000000000000006001600160a01b031663ad5c46486040518163ffffffff1660e01b8152600401602060405180830381865afa158015611254573d6000803e3d6000fd5b505050506040513d601f19601f8201168201806040525081019061127891906116d6565b8160018151811061128b5761128b611644565b60200260200101906001600160a01b031690816001600160a01b0316815250506112d6307f000000000000000000000000000000000000000000000000000000000000000084610bfc565b60405163791ac94760e01b81526001600160a01b037f0000000000000000000000000000000000000000000000000000000000000000169063791ac9479061132b90859060009086903090429060040161174b565b600060405180830381600087803b15801561134557600080fd5b505af1158015611359573d6000803e3d6000fd5b50506006546040516001600160a01b0390911692504780156108fc029250906000818181858888f19350505050158015611397573d6000803e3d6000fd5b50506008805460ff1916905550565b600060208083528351808285015260005b818110156113d3578581018301518582016040015282016113b7565b818111156113e5576000604083870101525b50601f01601f1916929092016040019392505050565b6001600160a01b03811681146107bb57600080fd5b803561141b816113fb565b919050565b6000806040838503121561143357600080fd5b823561143e816113fb565b946020939093013593505050565b634e487b7160e01b600052604160045260246000fd5b6000602080838503121561147557600080fd5b823567ffffffffffffffff8082111561148d57600080fd5b818501915085601f8301126114a157600080fd5b8135818111156114b3576114b361144c565b8060051b604051601f19603f830116810181811085821117156114d8576114d861144c565b6040529182528482019250838101850191888311156114f657600080fd5b938501935b8285101561151b5761150c85611410565b845293850193928501926114fb565b98975050505050505050565b6020808252825182820181905260009190848201906040850190845b8181101561155f57835183529284019291840191600101611543565b50909695505050505050565b60008060006060848603121561158057600080fd5b833561158b816113fb565b9250602084013561159b816113fb565b929592945050506040919091013590565b6000602082840312156115be57600080fd5b5035919050565b6000602082840312156115d757600080fd5b81356115e2816113fb565b9392505050565b6000602082840312156115fb57600080fd5b813580151581146115e257600080fd5b6000806040838503121561161e57600080fd5b8235611629816113fb565b91506020830135611639816113fb565b809150509250929050565b634e487b7160e01b600052603260045260246000fd5b634e487b7160e01b600052601160045260246000fd5b6000600182016116825761168261165a565b5060010190565b6000821982111561169c5761169c61165a565b500190565b6020808252818101527f4f776e61626c653a2063616c6c6572206973206e6f7420746865206f776e6572604082015260600190565b6000602082840312156116e857600080fd5b81516115e2816113fb565b600081600019048311821515161561170d5761170d61165a565b500290565b60008261172f57634e487b7160e01b600052601260045260246000fd5b500490565b6000828210156117465761174661165a565b500390565b600060a082018783526020878185015260a0604085015281875180845260c086019150828901935060005b8181101561179b5784516001600160a01b031683529383019391830191600101611776565b50506001600160a01b0396909616606085015250505060800152939250505056fea2646970667358221220671ccad80396db32185e768d912e439cde7cbc1709cf12c4b31fc8ce0d54325764736f6c634300080d0033",
					"opcodes": "PUSH1 0xC0 PUSH1 0x40 MSTORE CALLVALUE DUP1 ISZERO PUSH3 0x11 JUMPI PUSH1 0x0 DUP1 REVERT JUMPDEST POP PUSH3 0x1D CALLER PUSH3 0x214 JUMP JUMPDEST PUSH3 0x34 CALLER PUSH11 0x66F0222D28F5729240000 PUSH3 0x264 JUMP JUMPDEST PUSH1 0x0 PUSH20 0x9AC64CC6E4415144C455BD8E4837FEA55603E5C3 SWAP1 POP DUP1 PUSH1 0x1 PUSH1 0x1 PUSH1 0xA0 SHL SUB AND PUSH4 0xC45A0155 PUSH1 0x40 MLOAD DUP2 PUSH4 0xFFFFFFFF AND PUSH1 0xE0 SHL DUP2 MSTORE PUSH1 0x4 ADD PUSH1 0x20 PUSH1 0x40 MLOAD DUP1 DUP4 SUB DUP2 DUP7 GAS STATICCALL ISZERO DUP1 ISZERO PUSH3 0x8C JUMPI RETURNDATASIZE PUSH1 0x0 DUP1 RETURNDATACOPY RETURNDATASIZE PUSH1 0x0 REVERT JUMPDEST POP POP POP POP PUSH1 0x40 MLOAD RETURNDATASIZE PUSH1 0x1F NOT PUSH1 0x1F DUP3 ADD AND DUP3 ADD DUP1 PUSH1 0x40 MSTORE POP DUP2 ADD SWAP1 PUSH3 0xB2 SWAP2 SWAP1 PUSH3 0x2F3 JUMP JUMPDEST PUSH1 0x1 PUSH1 0x1 PUSH1 0xA0 SHL SUB AND PUSH4 0xC9C65396 ADDRESS DUP4 PUSH1 0x1 PUSH1 0x1 PUSH1 0xA0 SHL SUB AND PUSH4 0xAD5C4648 PUSH1 0x40 MLOAD DUP2 PUSH4 0xFFFFFFFF AND PUSH1 0xE0 SHL DUP2 MSTORE PUSH1 0x4 ADD PUSH1 0x20 PUSH1 0x40 MLOAD DUP1 DUP4 SUB DUP2 DUP7 GAS STATICCALL ISZERO DUP1 ISZERO PUSH3 0x100 JUMPI RETURNDATASIZE PUSH1 0x0 DUP1 RETURNDATACOPY RETURNDATASIZE PUSH1 0x0 REVERT JUMPDEST POP POP POP POP PUSH1 0x40 MLOAD RETURNDATASIZE PUSH1 0x1F NOT PUSH1 0x1F DUP3 ADD AND DUP3 ADD DUP1 PUSH1 0x40 MSTORE POP DUP2 ADD SWAP1 PUSH3 0x126 SWAP2 SWAP1 PUSH3 0x2F3 JUMP JUMPDEST PUSH1 0x40 MLOAD PUSH1 0x1 PUSH1 0x1 PUSH1 0xE0 SHL SUB NOT PUSH1 0xE0 DUP6 SWAP1 SHL AND DUP2 MSTORE PUSH1 0x1 PUSH1 0x1 PUSH1 0xA0 SHL SUB SWAP3 DUP4 AND PUSH1 0x4 DUP3 ADD MSTORE SWAP2 AND PUSH1 0x24 DUP3 ADD MSTORE PUSH1 0x44 ADD PUSH1 0x20 PUSH1 0x40 MLOAD DUP1 DUP4 SUB DUP2 PUSH1 0x0 DUP8 GAS CALL ISZERO DUP1 ISZERO PUSH3 0x174 JUMPI RETURNDATASIZE PUSH1 0x0 DUP1 RETURNDATACOPY RETURNDATASIZE PUSH1 0x0 REVERT JUMPDEST POP POP POP POP PUSH1 0x40 MLOAD RETURNDATASIZE PUSH1 0x1F NOT PUSH1 0x1F DUP3 ADD AND DUP3 ADD DUP1 PUSH1 0x40 MSTORE POP DUP2 ADD SWAP1 PUSH3 0x19A SWAP2 SWAP1 PUSH3 0x2F3 JUMP JUMPDEST PUSH1 0x1 PUSH1 0x1 PUSH1 0xA0 SHL SUB SWAP1 DUP2 AND PUSH1 0xA0 MSTORE DUP2 AND PUSH1 0x80 MSTORE PUSH1 0x1 PUSH1 0xA PUSH1 0x0 PUSH3 0x1C6 PUSH1 0x0 SLOAD PUSH1 0x1 PUSH1 0x1 PUSH1 0xA0 SHL SUB AND SWAP1 JUMP JUMPDEST PUSH1 0x1 PUSH1 0x1 PUSH1 0xA0 SHL SUB SWAP1 DUP2 AND DUP3 MSTORE PUSH1 0x20 DUP1 DUP4 ADD SWAP4 SWAP1 SWAP4 MSTORE PUSH1 0x40 SWAP2 DUP3 ADD PUSH1 0x0 SWAP1 DUP2 KECCAK256 DUP1 SLOAD SWAP6 ISZERO ISZERO PUSH1 0xFF NOT SWAP7 DUP8 AND OR SWAP1 SSTORE PUSH1 0xA0 MLOAD SWAP1 SWAP2 AND DUP2 MSTORE PUSH1 0x9 SWAP1 SWAP3 MSTORE SWAP1 KECCAK256 DUP1 SLOAD SWAP1 SWAP2 AND PUSH1 0x1 OR SWAP1 SSTORE POP PUSH3 0x34C JUMP JUMPDEST PUSH1 0x0 DUP1 SLOAD PUSH1 0x1 PUSH1 0x1 PUSH1 0xA0 SHL SUB DUP4 DUP2 AND PUSH1 0x1 PUSH1 0x1 PUSH1 0xA0 SHL SUB NOT DUP4 AND DUP2 OR DUP5 SSTORE PUSH1 0x40 MLOAD SWAP2 SWAP1 SWAP3 AND SWAP3 DUP4 SWAP2 PUSH32 0x8BE0079C531659141344CD1FD0A4F28419497F9722A3DAAFE3B4186F6B6457E0 SWAP2 SWAP1 LOG3 POP POP JUMP JUMPDEST PUSH1 0x1 PUSH1 0x1 PUSH1 0xA0 SHL SUB DUP3 AND PUSH1 0x0 SWAP1 DUP2 MSTORE PUSH1 0x1 PUSH1 0x20 MSTORE PUSH1 0x40 DUP2 KECCAK256 DUP1 SLOAD DUP4 SWAP3 SWAP1 PUSH3 0x28E SWAP1 DUP5 SWAP1 PUSH3 0x325 JUMP JUMPDEST SWAP3 POP POP DUP2 SWAP1 SSTORE POP DUP1 PUSH1 0x3 PUSH1 0x0 DUP3 DUP3 SLOAD PUSH3 0x2A9 SWAP2 SWAP1 PUSH3 0x325 JUMP JUMPDEST SWAP1 SWAP2 SSTORE POP POP PUSH1 0x40 MLOAD DUP2 DUP2 MSTORE PUSH1 0x1 PUSH1 0x1 PUSH1 0xA0 SHL SUB DUP4 AND SWAP1 PUSH1 0x0 SWAP1 PUSH32 0xDDF252AD1BE2C89B69C2B068FC378DAA952BA7F163C4A11628F55A4DF523B3EF SWAP1 PUSH1 0x20 ADD PUSH1 0x40 MLOAD DUP1 SWAP2 SUB SWAP1 LOG3 POP POP JUMP JUMPDEST PUSH1 0x0 PUSH1 0x20 DUP3 DUP5 SUB SLT ISZERO PUSH3 0x306 JUMPI PUSH1 0x0 DUP1 REVERT JUMPDEST DUP2 MLOAD PUSH1 0x1 PUSH1 0x1 PUSH1 0xA0 SHL SUB DUP2 AND DUP2 EQ PUSH3 0x31E JUMPI PUSH1 0x0 DUP1 REVERT JUMPDEST SWAP4 SWAP3 POP POP POP JUMP JUMPDEST PUSH1 0x0 DUP3 NOT DUP3 GT ISZERO PUSH3 0x347 JUMPI PUSH4 0x4E487B71 PUSH1 0xE0 SHL PUSH1 0x0 MSTORE PUSH1 0x11 PUSH1 0x4 MSTORE PUSH1 0x24 PUSH1 0x0 REVERT JUMPDEST POP ADD SWAP1 JUMP JUMPDEST PUSH1 0x80 MLOAD PUSH1 0xA0 MLOAD PUSH2 0x17F2 PUSH3 0x38E PUSH1 0x0 CODECOPY PUSH1 0x0 DUP2 DUP2 PUSH2 0x354 ADD MSTORE PUSH2 0x906 ADD MSTORE PUSH1 0x0 DUP2 DUP2 PUSH2 0x26B ADD MSTORE DUP2 DUP2 PUSH2 0x11F8 ADD MSTORE DUP2 DUP2 PUSH2 0x12B1 ADD MSTORE PUSH2 0x12ED ADD MSTORE PUSH2 0x17F2 PUSH1 0x0 RETURN INVALID PUSH1 0x80 PUSH1 0x40 MSTORE PUSH1 0x4 CALLDATASIZE LT PUSH2 0x1A0 JUMPI PUSH1 0x0 CALLDATALOAD PUSH1 0xE0 SHR DUP1 PUSH4 0x70A08231 GT PUSH2 0xEC JUMPI DUP1 PUSH4 0xA9059CBB GT PUSH2 0x8A JUMPI DUP1 PUSH4 0xDEC1A6F6 GT PUSH2 0x64 JUMPI DUP1 PUSH4 0xDEC1A6F6 EQ PUSH2 0x545 JUMPI DUP1 PUSH4 0xE515CD38 EQ PUSH2 0x575 JUMPI DUP1 PUSH4 0xE5E31B13 EQ PUSH2 0x595 JUMPI DUP1 PUSH4 0xF2FDE38B EQ PUSH2 0x5C5 JUMPI PUSH1 0x0 DUP1 REVERT JUMPDEST DUP1 PUSH4 0xA9059CBB EQ PUSH2 0x4BF JUMPI DUP1 PUSH4 0xC49B9A80 EQ PUSH2 0x4DF JUMPI DUP1 PUSH4 0xDD62ED3E EQ PUSH2 0x4FF JUMPI PUSH1 0x0 DUP1 REVERT JUMPDEST DUP1 PUSH4 0x8DA5CB5B GT PUSH2 0xC6 JUMPI DUP1 PUSH4 0x8DA5CB5B EQ PUSH2 0x435 JUMPI DUP1 PUSH4 0x95623641 EQ PUSH2 0x453 JUMPI DUP1 PUSH4 0x95D89B41 EQ PUSH2 0x473 JUMPI DUP1 PUSH4 0xA457C2D7 EQ PUSH2 0x49F JUMPI PUSH1 0x0 DUP1 REVERT JUMPDEST DUP1 PUSH4 0x70A08231 EQ PUSH2 0x3D5 JUMPI DUP1 PUSH4 0x715018A6 EQ PUSH2 0x40B JUMPI DUP1 PUSH4 0x8203F5FE EQ PUSH2 0x420 JUMPI PUSH1 0x0 DUP1 REVERT JUMPDEST DUP1 PUSH4 0x313CE567 GT PUSH2 0x159 JUMPI DUP1 PUSH4 0x49BD5A5E GT PUSH2 0x133 JUMPI DUP1 PUSH4 0x49BD5A5E EQ PUSH2 0x342 JUMPI DUP1 PUSH4 0x4A74BB02 EQ PUSH2 0x376 JUMPI DUP1 PUSH4 0x536DB266 EQ PUSH2 0x395 JUMPI DUP1 PUSH4 0x6DCEA85F EQ PUSH2 0x3B5 JUMPI PUSH1 0x0 DUP1 REVERT JUMPDEST DUP1 PUSH4 0x313CE567 EQ PUSH2 0x2E4 JUMPI DUP1 PUSH4 0x39509351 EQ PUSH2 0x300 JUMPI DUP1 PUSH4 0x42966C68 EQ PUSH2 0x320 JUMPI PUSH1 0x0 DUP1 REVERT JUMPDEST DUP1 PUSH4 0x6FDDE03 EQ PUSH2 0x1AC JUMPI DUP1 PUSH4 0x95EA7B3 EQ PUSH2 0x1FC JUMPI DUP1 PUSH4 0xC3CC61A EQ PUSH2 0x22C JUMPI DUP1 PUSH4 0x1694505E EQ PUSH2 0x259 JUMPI DUP1 PUSH4 0x18160DDD EQ PUSH2 0x2A5 JUMPI DUP1 PUSH4 0x23B872DD EQ PUSH2 0x2C4 JUMPI PUSH1 0x0 DUP1 REVERT JUMPDEST CALLDATASIZE PUSH2 0x1A7 JUMPI STOP JUMPDEST PUSH1 0x0 DUP1 REVERT JUMPDEST CALLVALUE DUP1 ISZERO PUSH2 0x1B8 JUMPI PUSH1 0x0 DUP1 REVERT JUMPDEST POP PUSH1 0x40 DUP1 MLOAD DUP1 DUP3 ADD SWAP1 SWAP2 MSTORE PUSH1 0x15 DUP2 MSTORE PUSH21 0x476F6C64656E2053746174652057617272696F7273 PUSH1 0x58 SHL PUSH1 0x20 DUP3 ADD MSTORE JUMPDEST PUSH1 0x40 MLOAD PUSH2 0x1F3 SWAP2 SWAP1 PUSH2 0x13A6 JUMP JUMPDEST PUSH1 0x40 MLOAD DUP1 SWAP2 SUB SWAP1 RETURN JUMPDEST CALLVALUE DUP1 ISZERO PUSH2 0x208 JUMPI PUSH1 0x0 DUP1 REVERT JUMPDEST POP PUSH2 0x21C PUSH2 0x217 CALLDATASIZE PUSH1 0x4 PUSH2 0x1420 JUMP JUMPDEST PUSH2 0x5E5 JUMP JUMPDEST PUSH1 0x40 MLOAD SWAP1 ISZERO ISZERO DUP2 MSTORE PUSH1 0x20 ADD PUSH2 0x1F3 JUMP JUMPDEST CALLVALUE DUP1 ISZERO PUSH2 0x238 JUMPI PUSH1 0x0 DUP1 REVERT JUMPDEST POP PUSH2 0x24C PUSH2 0x247 CALLDATASIZE PUSH1 0x4 PUSH2 0x1462 JUMP JUMPDEST PUSH2 0x5FB JUMP JUMPDEST PUSH1 0x40 MLOAD PUSH2 0x1F3 SWAP2 SWAP1 PUSH2 0x1527 JUMP JUMPDEST CALLVALUE DUP1 ISZERO PUSH2 0x265 JUMPI PUSH1 0x0 DUP1 REVERT JUMPDEST POP PUSH2 0x28D PUSH32 0x0 DUP2 JUMP JUMPDEST PUSH1 0x40 MLOAD PUSH1 0x1 PUSH1 0x1 PUSH1 0xA0 SHL SUB SWAP1 SWAP2 AND DUP2 MSTORE PUSH1 0x20 ADD PUSH2 0x1F3 JUMP JUMPDEST CALLVALUE DUP1 ISZERO PUSH2 0x2B1 JUMPI PUSH1 0x0 DUP1 REVERT JUMPDEST POP PUSH1 0x3 SLOAD JUMPDEST PUSH1 0x40 MLOAD SWAP1 DUP2 MSTORE PUSH1 0x20 ADD PUSH2 0x1F3 JUMP JUMPDEST CALLVALUE DUP1 ISZERO PUSH2 0x2D0 JUMPI PUSH1 0x0 DUP1 REVERT JUMPDEST POP PUSH2 0x21C PUSH2 0x2DF CALLDATASIZE PUSH1 0x4 PUSH2 0x156B JUMP JUMPDEST PUSH2 0x6C6 JUMP JUMPDEST CALLVALUE DUP1 ISZERO PUSH2 0x2F0 JUMPI PUSH1 0x0 DUP1 REVERT JUMPDEST POP PUSH1 0x40 MLOAD PUSH1 0x12 DUP2 MSTORE PUSH1 0x20 ADD PUSH2 0x1F3 JUMP JUMPDEST CALLVALUE DUP1 ISZERO PUSH2 0x30C JUMPI PUSH1 0x0 DUP1 REVERT JUMPDEST POP PUSH2 0x21C PUSH2 0x31B CALLDATASIZE PUSH1 0x4 PUSH2 0x1420 JUMP JUMPDEST PUSH2 0x775 JUMP JUMPDEST CALLVALUE DUP1 ISZERO PUSH2 0x32C JUMPI PUSH1 0x0 DUP1 REVERT JUMPDEST POP PUSH2 0x340 PUSH2 0x33B CALLDATASIZE PUSH1 0x4 PUSH2 0x15AC JUMP JUMPDEST PUSH2 0x7B1 JUMP JUMPDEST STOP JUMPDEST CALLVALUE DUP1 ISZERO PUSH2 0x34E JUMPI PUSH1 0x0 DUP1 REVERT JUMPDEST POP PUSH2 0x28D PUSH32 0x0 DUP2 JUMP JUMPDEST CALLVALUE DUP1 ISZERO PUSH2 0x382 JUMPI PUSH1 0x0 DUP1 REVERT JUMPDEST POP PUSH1 0x8 SLOAD PUSH2 0x21C SWAP1 PUSH2 0x100 SWAP1 DIV PUSH1 0xFF AND DUP2 JUMP JUMPDEST CALLVALUE DUP1 ISZERO PUSH2 0x3A1 JUMPI PUSH1 0x0 DUP1 REVERT JUMPDEST POP PUSH2 0x340 PUSH2 0x3B0 CALLDATASIZE PUSH1 0x4 PUSH2 0x15C5 JUMP JUMPDEST PUSH2 0x7BE JUMP JUMPDEST CALLVALUE DUP1 ISZERO PUSH2 0x3C1 JUMPI PUSH1 0x0 DUP1 REVERT JUMPDEST POP PUSH2 0x340 PUSH2 0x3D0 CALLDATASIZE PUSH1 0x4 PUSH2 0x15C5 JUMP JUMPDEST PUSH2 0x850 JUMP JUMPDEST CALLVALUE DUP1 ISZERO PUSH2 0x3E1 JUMPI PUSH1 0x0 DUP1 REVERT JUMPDEST POP PUSH2 0x2B6 PUSH2 0x3F0 CALLDATASIZE PUSH1 0x4 PUSH2 0x15C5 JUMP JUMPDEST PUSH1 0x1 PUSH1 0x1 PUSH1 0xA0 SHL SUB AND PUSH1 0x0 SWAP1 DUP2 MSTORE PUSH1 0x1 PUSH1 0x20 MSTORE PUSH1 0x40 SWAP1 KECCAK256 SLOAD SWAP1 JUMP JUMPDEST CALLVALUE DUP1 ISZERO PUSH2 0x417 JUMPI PUSH1 0x0 DUP1 REVERT JUMPDEST POP PUSH2 0x340 PUSH2 0x89C JUMP JUMPDEST CALLVALUE DUP1 ISZERO PUSH2 0x42C JUMPI PUSH1 0x0 DUP1 REVERT JUMPDEST POP PUSH2 0x340 PUSH2 0x8D2 JUMP JUMPDEST CALLVALUE DUP1 ISZERO PUSH2 0x441 JUMPI PUSH1 0x0 DUP1 REVERT JUMPDEST POP PUSH1 0x0 SLOAD PUSH1 0x1 PUSH1 0x1 PUSH1 0xA0 SHL SUB AND PUSH2 0x28D JUMP JUMPDEST CALLVALUE DUP1 ISZERO PUSH2 0x45F JUMPI PUSH1 0x0 DUP1 REVERT JUMPDEST POP PUSH1 0x6 SLOAD PUSH2 0x28D SWAP1 PUSH1 0x1 PUSH1 0x1 PUSH1 0xA0 SHL SUB AND DUP2 JUMP JUMPDEST CALLVALUE DUP1 ISZERO PUSH2 0x47F JUMPI PUSH1 0x0 DUP1 REVERT JUMPDEST POP PUSH1 0x40 DUP1 MLOAD DUP1 DUP3 ADD SWAP1 SWAP2 MSTORE PUSH1 0x3 DUP2 MSTORE PUSH3 0x475357 PUSH1 0xE8 SHL PUSH1 0x20 DUP3 ADD MSTORE PUSH2 0x1E6 JUMP JUMPDEST CALLVALUE DUP1 ISZERO PUSH2 0x4AB JUMPI PUSH1 0x0 DUP1 REVERT JUMPDEST POP PUSH2 0x21C PUSH2 0x4BA CALLDATASIZE PUSH1 0x4 PUSH2 0x1420 JUMP JUMPDEST PUSH2 0x941 JUMP JUMPDEST CALLVALUE DUP1 ISZERO PUSH2 0x4CB JUMPI PUSH1 0x0 DUP1 REVERT JUMPDEST POP PUSH2 0x21C PUSH2 0x4DA CALLDATASIZE PUSH1 0x4 PUSH2 0x1420 JUMP JUMPDEST PUSH2 0x9DA JUMP JUMPDEST CALLVALUE DUP1 ISZERO PUSH2 0x4EB JUMPI PUSH1 0x0 DUP1 REVERT JUMPDEST POP PUSH2 0x340 PUSH2 0x4FA CALLDATASIZE PUSH1 0x4 PUSH2 0x15E9 JUMP JUMPDEST PUSH2 0x9E7 JUMP JUMPDEST CALLVALUE DUP1 ISZERO PUSH2 0x50B JUMPI PUSH1 0x0 DUP1 REVERT JUMPDEST POP PUSH2 0x2B6 PUSH2 0x51A CALLDATASIZE PUSH1 0x4 PUSH2 0x160B JUMP JUMPDEST PUSH1 0x1 PUSH1 0x1 PUSH1 0xA0 SHL SUB SWAP2 DUP3 AND PUSH1 0x0 SWAP1 DUP2 MSTORE PUSH1 0x2 PUSH1 0x20 SWAP1 DUP2 MSTORE PUSH1 0x40 DUP1 DUP4 KECCAK256 SWAP4 SWAP1 SWAP5 AND DUP3 MSTORE SWAP2 SWAP1 SWAP2 MSTORE KECCAK256 SLOAD SWAP1 JUMP JUMPDEST CALLVALUE DUP1 ISZERO PUSH2 0x551 JUMPI PUSH1 0x0 DUP1 REVERT JUMPDEST POP PUSH2 0x21C PUSH2 0x560 CALLDATASIZE PUSH1 0x4 PUSH2 0x15C5 JUMP JUMPDEST PUSH1 0x9 PUSH1 0x20 MSTORE PUSH1 0x0 SWAP1 DUP2 MSTORE PUSH1 0x40 SWAP1 KECCAK256 SLOAD PUSH1 0xFF AND DUP2 JUMP JUMPDEST CALLVALUE DUP1 ISZERO PUSH2 0x581 JUMPI PUSH1 0x0 DUP1 REVERT JUMPDEST POP PUSH2 0x340 PUSH2 0x590 CALLDATASIZE PUSH1 0x4 PUSH2 0x15C5 JUMP JUMPDEST PUSH2 0xA65 JUMP JUMPDEST CALLVALUE DUP1 ISZERO PUSH2 0x5A1 JUMPI PUSH1 0x0 DUP1 REVERT JUMPDEST POP PUSH2 0x21C PUSH2 0x5B0 CALLDATASIZE PUSH1 0x4 PUSH2 0x15C5 JUMP JUMPDEST PUSH1 0xA PUSH1 0x20 MSTORE PUSH1 0x0 SWAP1 DUP2 MSTORE PUSH1 0x40 SWAP1 KECCAK256 SLOAD PUSH1 0xFF AND DUP2 JUMP JUMPDEST CALLVALUE DUP1 ISZERO PUSH2 0x5D1 JUMPI PUSH1 0x0 DUP1 REVERT JUMPDEST POP PUSH2 0x340 PUSH2 0x5E0 CALLDATASIZE PUSH1 0x4 PUSH2 0x15C5 JUMP JUMPDEST PUSH2 0xB64 JUMP JUMPDEST PUSH1 0x0 PUSH2 0x5F2 CALLER DUP5 DUP5 PUSH2 0xBFC JUMP JUMPDEST POP PUSH1 0x1 SWAP3 SWAP2 POP POP JUMP JUMPDEST PUSH1 0x60 PUSH1 0x0 DUP3 MLOAD PUSH8 0xFFFFFFFFFFFFFFFF DUP2 GT ISZERO PUSH2 0x619 JUMPI PUSH2 0x619 PUSH2 0x144C JUMP JUMPDEST PUSH1 0x40 MLOAD SWAP1 DUP1 DUP3 MSTORE DUP1 PUSH1 0x20 MUL PUSH1 0x20 ADD DUP3 ADD PUSH1 0x40 MSTORE DUP1 ISZERO PUSH2 0x642 JUMPI DUP2 PUSH1 0x20 ADD PUSH1 0x20 DUP3 MUL DUP1 CALLDATASIZE DUP4 CALLDATACOPY ADD SWAP1 POP JUMPDEST POP SWAP1 POP PUSH1 0x0 JUMPDEST DUP4 MLOAD DUP2 LT ISZERO PUSH2 0x6BF JUMPI PUSH1 0x1 PUSH1 0x0 DUP6 DUP4 DUP2 MLOAD DUP2 LT PUSH2 0x667 JUMPI PUSH2 0x667 PUSH2 0x1644 JUMP JUMPDEST PUSH1 0x20 MUL PUSH1 0x20 ADD ADD MLOAD PUSH1 0x1 PUSH1 0x1 PUSH1 0xA0 SHL SUB AND PUSH1 0x1 PUSH1 0x1 PUSH1 0xA0 SHL SUB AND DUP2 MSTORE PUSH1 0x20 ADD SWAP1 DUP2 MSTORE PUSH1 0x20 ADD PUSH1 0x0 KECCAK256 SLOAD DUP3 DUP3 DUP2 MLOAD DUP2 LT PUSH2 0x6A2 JUMPI PUSH2 0x6A2 PUSH2 0x1644 JUMP JUMPDEST PUSH1 0x20 SWAP1 DUP2 MUL SWAP2 SWAP1 SWAP2 ADD ADD MSTORE DUP1 PUSH2 0x6B7 DUP2 PUSH2 0x1670 JUMP JUMPDEST SWAP2 POP POP PUSH2 0x648 JUMP JUMPDEST POP SWAP3 SWAP2 POP POP JUMP JUMPDEST PUSH1 0x0 PUSH2 0x6D3 DUP5 DUP5 DUP5 PUSH2 0xC5E JUMP JUMPDEST PUSH1 0x1 PUSH1 0x1 PUSH1 0xA0 SHL SUB DUP5 AND PUSH1 0x0 SWAP1 DUP2 MSTORE PUSH1 0x2 PUSH1 0x20 SWAP1 DUP2 MSTORE PUSH1 0x40 DUP1 DUP4 KECCAK256 CALLER DUP5 MSTORE SWAP1 SWAP2 MSTORE SWAP1 KECCAK256 SLOAD DUP3 DUP2 LT ISZERO PUSH2 0x75D JUMPI PUSH1 0x40 MLOAD PUSH3 0x461BCD PUSH1 0xE5 SHL DUP2 MSTORE PUSH1 0x20 PUSH1 0x4 DUP3 ADD MSTORE PUSH1 0x28 PUSH1 0x24 DUP3 ADD MSTORE PUSH32 0x504554524F3A207472616E7366657220616D6F756E7420657863656564732061 PUSH1 0x44 DUP3 ADD MSTORE PUSH8 0x6C6C6F77616E6365 PUSH1 0xC0 SHL PUSH1 0x64 DUP3 ADD MSTORE PUSH1 0x84 ADD JUMPDEST PUSH1 0x40 MLOAD DUP1 SWAP2 SUB SWAP1 REVERT JUMPDEST PUSH2 0x76A DUP6 CALLER DUP6 DUP5 SUB PUSH2 0xBFC JUMP JUMPDEST POP PUSH1 0x1 SWAP5 SWAP4 POP POP POP POP JUMP JUMPDEST CALLER PUSH1 0x0 DUP2 DUP2 MSTORE PUSH1 0x2 PUSH1 0x20 SWAP1 DUP2 MSTORE PUSH1 0x40 DUP1 DUP4 KECCAK256 PUSH1 0x1 PUSH1 0x1 PUSH1 0xA0 SHL SUB DUP8 AND DUP5 MSTORE SWAP1 SWAP2 MSTORE DUP2 KECCAK256 SLOAD SWAP1 SWAP2 PUSH2 0x5F2 SWAP2 DUP6 SWAP1 PUSH2 0x7AC SWAP1 DUP7 SWAP1 PUSH2 0x1689 JUMP JUMPDEST PUSH2 0xBFC JUMP JUMPDEST PUSH2 0x7BB CALLER DUP3 PUSH2 0xFFE JUMP JUMPDEST POP JUMP JUMPDEST PUSH1 0x0 SLOAD PUSH1 0x1 PUSH1 0x1 PUSH1 0xA0 SHL SUB AND CALLER EQ PUSH2 0x7E8 JUMPI PUSH1 0x40 MLOAD PUSH3 0x461BCD PUSH1 0xE5 SHL DUP2 MSTORE PUSH1 0x4 ADD PUSH2 0x754 SWAP1 PUSH2 0x16A1 JUMP JUMPDEST PUSH1 0x1 PUSH1 0x1 PUSH1 0xA0 SHL SUB DUP2 AND PUSH1 0x0 SWAP1 DUP2 MSTORE PUSH1 0x9 PUSH1 0x20 MSTORE PUSH1 0x40 SWAP1 KECCAK256 SLOAD PUSH1 0xFF AND ISZERO PUSH2 0x82A JUMPI PUSH1 0x1 PUSH1 0x1 PUSH1 0xA0 SHL SUB AND PUSH1 0x0 SWAP1 DUP2 MSTORE PUSH1 0x9 PUSH1 0x20 MSTORE PUSH1 0x40 SWAP1 KECCAK256 DUP1 SLOAD PUSH1 0xFF NOT AND SWAP1 SSTORE JUMP JUMPDEST PUSH1 0x1 PUSH1 0x1 PUSH1 0xA0 SHL SUB DUP2 AND PUSH1 0x0 SWAP1 DUP2 MSTORE PUSH1 0x9 PUSH1 0x20 MSTORE PUSH1 0x40 SWAP1 KECCAK256 DUP1 SLOAD PUSH1 0xFF NOT AND PUSH1 0x1 OR SWAP1 SSTORE POP JUMP JUMPDEST PUSH1 0x0 SLOAD PUSH1 0x1 PUSH1 0x1 PUSH1 0xA0 SHL SUB AND CALLER EQ PUSH2 0x87A JUMPI PUSH1 0x40 MLOAD PUSH3 0x461BCD PUSH1 0xE5 SHL DUP2 MSTORE PUSH1 0x4 ADD PUSH2 0x754 SWAP1 PUSH2 0x16A1 JUMP JUMPDEST PUSH1 0x6 DUP1 SLOAD PUSH1 0x1 PUSH1 0x1 PUSH1 0xA0 SHL SUB NOT AND PUSH1 0x1 PUSH1 0x1 PUSH1 0xA0 SHL SUB SWAP3 SWAP1 SWAP3 AND SWAP2 SWAP1 SWAP2 OR SWAP1 SSTORE JUMP JUMPDEST PUSH1 0x0 SLOAD PUSH1 0x1 PUSH1 0x1 PUSH1 0xA0 SHL SUB AND CALLER EQ PUSH2 0x8C6 JUMPI PUSH1 0x40 MLOAD PUSH3 0x461BCD PUSH1 0xE5 SHL DUP2 MSTORE PUSH1 0x4 ADD PUSH2 0x754 SWAP1 PUSH2 0x16A1 JUMP JUMPDEST PUSH2 0x8D0 PUSH1 0x0 PUSH2 0x1144 JUMP JUMPDEST JUMP JUMPDEST PUSH1 0x0 SLOAD PUSH1 0x1 PUSH1 0x1 PUSH1 0xA0 SHL SUB AND CALLER EQ PUSH2 0x8FC JUMPI PUSH1 0x40 MLOAD PUSH3 0x461BCD PUSH1 0xE5 SHL DUP2 MSTORE PUSH1 0x4 ADD PUSH2 0x754 SWAP1 PUSH2 0x16A1 JUMP JUMPDEST PUSH1 0x1 PUSH1 0x1 PUSH1 0xA0 SHL SUB PUSH32 0x0 AND PUSH1 0x0 SWAP1 DUP2 MSTORE PUSH1 0x9 PUSH1 0x20 MSTORE PUSH1 0x40 SWAP1 KECCAK256 DUP1 SLOAD PUSH1 0xFF NOT AND PUSH1 0x1 OR SWAP1 SSTORE JUMP JUMPDEST CALLER PUSH1 0x0 SWAP1 DUP2 MSTORE PUSH1 0x2 PUSH1 0x20 SWAP1 DUP2 MSTORE PUSH1 0x40 DUP1 DUP4 KECCAK256 PUSH1 0x1 PUSH1 0x1 PUSH1 0xA0 SHL SUB DUP7 AND DUP5 MSTORE SWAP1 SWAP2 MSTORE DUP2 KECCAK256 SLOAD DUP3 DUP2 LT ISZERO PUSH2 0x9C3 JUMPI PUSH1 0x40 MLOAD PUSH3 0x461BCD PUSH1 0xE5 SHL DUP2 MSTORE PUSH1 0x20 PUSH1 0x4 DUP3 ADD MSTORE PUSH1 0x25 PUSH1 0x24 DUP3 ADD MSTORE PUSH32 0x504554524F3A2064656372656173656420616C6C6F77616E63652062656C6F77 PUSH1 0x44 DUP3 ADD MSTORE PUSH5 0x207A65726F PUSH1 0xD8 SHL PUSH1 0x64 DUP3 ADD MSTORE PUSH1 0x84 ADD PUSH2 0x754 JUMP JUMPDEST PUSH2 0x9D0 CALLER DUP6 DUP6 DUP5 SUB PUSH2 0xBFC JUMP JUMPDEST POP PUSH1 0x1 SWAP4 SWAP3 POP POP POP JUMP JUMPDEST PUSH1 0x0 PUSH2 0x5F2 CALLER DUP5 DUP5 PUSH2 0xC5E JUMP JUMPDEST PUSH1 0x0 SLOAD PUSH1 0x1 PUSH1 0x1 PUSH1 0xA0 SHL SUB AND CALLER EQ PUSH2 0xA11 JUMPI PUSH1 0x40 MLOAD PUSH3 0x461BCD PUSH1 0xE5 SHL DUP2 MSTORE PUSH1 0x4 ADD PUSH2 0x754 SWAP1 PUSH2 0x16A1 JUMP JUMPDEST PUSH1 0x8 DUP1 SLOAD DUP3 ISZERO ISZERO PUSH2 0x100 MUL PUSH2 0xFF00 NOT SWAP1 SWAP2 AND OR SWAP1 SSTORE PUSH1 0x40 MLOAD PUSH32 0x53726DFCAF90650AA7EB35524F4D3220F07413C8D6CB404CC8C18BF5591BC159 SWAP1 PUSH2 0xA5A SWAP1 DUP4 ISZERO ISZERO DUP2 MSTORE PUSH1 0x20 ADD SWAP1 JUMP JUMPDEST PUSH1 0x40 MLOAD DUP1 SWAP2 SUB SWAP1 LOG1 POP JUMP JUMPDEST PUSH1 0x0 SLOAD PUSH1 0x1 PUSH1 0x1 PUSH1 0xA0 SHL SUB AND CALLER EQ PUSH2 0xA8F JUMPI PUSH1 0x40 MLOAD PUSH3 0x461BCD PUSH1 0xE5 SHL DUP2 MSTORE PUSH1 0x4 ADD PUSH2 0x754 SWAP1 PUSH2 0x16A1 JUMP JUMPDEST PUSH1 0x0 DUP2 PUSH1 0x1 PUSH1 0x1 PUSH1 0xA0 SHL SUB AND PUSH4 0x30ADF81F PUSH1 0x40 MLOAD DUP2 PUSH4 0xFFFFFFFF AND PUSH1 0xE0 SHL DUP2 MSTORE PUSH1 0x4 ADD PUSH1 0x20 PUSH1 0x40 MLOAD DUP1 DUP4 SUB DUP2 DUP7 GAS STATICCALL ISZERO DUP1 ISZERO PUSH2 0xACF JUMPI RETURNDATASIZE PUSH1 0x0 DUP1 RETURNDATACOPY RETURNDATASIZE PUSH1 0x0 REVERT JUMPDEST POP POP POP POP PUSH1 0x40 MLOAD RETURNDATASIZE PUSH1 0x1F NOT PUSH1 0x1F DUP3 ADD AND DUP3 ADD DUP1 PUSH1 0x40 MSTORE POP DUP2 ADD SWAP1 PUSH2 0xAF3 SWAP2 SWAP1 PUSH2 0x16D6 JUMP JUMPDEST PUSH1 0x1 PUSH1 0x1 PUSH1 0xA0 SHL SUB DUP2 AND PUSH1 0x0 SWAP1 DUP2 MSTORE PUSH1 0x7 PUSH1 0x20 MSTORE PUSH1 0x40 SWAP1 KECCAK256 SLOAD SWAP1 SWAP2 POP PUSH1 0xFF AND ISZERO ISZERO PUSH1 0x1 SUB PUSH2 0xB3D JUMPI PUSH1 0x1 PUSH1 0x1 PUSH1 0xA0 SHL SUB AND PUSH1 0x0 SWAP1 DUP2 MSTORE PUSH1 0x7 PUSH1 0x20 MSTORE PUSH1 0x40 SWAP1 KECCAK256 DUP1 SLOAD PUSH1 0xFF NOT AND SWAP1 SSTORE POP JUMP JUMPDEST PUSH1 0x1 PUSH1 0x1 PUSH1 0xA0 SHL SUB DUP2 AND PUSH1 0x0 SWAP1 DUP2 MSTORE PUSH1 0x7 PUSH1 0x20 MSTORE PUSH1 0x40 SWAP1 KECCAK256 DUP1 SLOAD PUSH1 0xFF NOT AND PUSH1 0x1 OR SWAP1 SSTORE POP POP JUMP JUMPDEST PUSH1 0x0 SLOAD PUSH1 0x1 PUSH1 0x1 PUSH1 0xA0 SHL SUB AND CALLER EQ PUSH2 0xB8E JUMPI PUSH1 0x40 MLOAD PUSH3 0x461BCD PUSH1 0xE5 SHL DUP2 MSTORE PUSH1 0x4 ADD PUSH2 0x754 SWAP1 PUSH2 0x16A1 JUMP JUMPDEST PUSH1 0x1 PUSH1 0x1 PUSH1 0xA0 SHL SUB DUP2 AND PUSH2 0xBF3 JUMPI PUSH1 0x40 MLOAD PUSH3 0x461BCD PUSH1 0xE5 SHL DUP2 MSTORE PUSH1 0x20 PUSH1 0x4 DUP3 ADD MSTORE PUSH1 0x26 PUSH1 0x24 DUP3 ADD MSTORE PUSH32 0x4F776E61626C653A206E6577206F776E657220697320746865207A65726F2061 PUSH1 0x44 DUP3 ADD MSTORE PUSH6 0x646472657373 PUSH1 0xD0 SHL PUSH1 0x64 DUP3 ADD MSTORE PUSH1 0x84 ADD PUSH2 0x754 JUMP JUMPDEST PUSH2 0x7BB DUP2 PUSH2 0x1144 JUMP JUMPDEST PUSH1 0x1 PUSH1 0x1 PUSH1 0xA0 SHL SUB DUP4 DUP2 AND PUSH1 0x0 DUP2 DUP2 MSTORE PUSH1 0x2 PUSH1 0x20 SWAP1 DUP2 MSTORE PUSH1 0x40 DUP1 DUP4 KECCAK256 SWAP5 DUP8 AND DUP1 DUP5 MSTORE SWAP5 DUP3 MSTORE SWAP2 DUP3 SWAP1 KECCAK256 DUP6 SWAP1 SSTORE SWAP1 MLOAD DUP5 DUP2 MSTORE PUSH32 0x8C5BE1E5EBEC7D5BD14F71427D1E84F3DD0314C0F7B2291E5B200AC8C7C3B925 SWAP2 ADD JUMPDEST PUSH1 0x40 MLOAD DUP1 SWAP2 SUB SWAP1 LOG3 POP POP POP JUMP JUMPDEST PUSH1 0x1 PUSH1 0x1 PUSH1 0xA0 SHL SUB DUP4 AND PUSH2 0xCC2 JUMPI PUSH1 0x40 MLOAD PUSH3 0x461BCD PUSH1 0xE5 SHL DUP2 MSTORE PUSH1 0x20 PUSH1 0x4 DUP3 ADD MSTORE PUSH1 0x25 PUSH1 0x24 DUP3 ADD MSTORE PUSH32 0x504554524F3A207472616E736665722066726F6D20746865207A65726F206164 PUSH1 0x44 DUP3 ADD MSTORE PUSH5 0x6472657373 PUSH1 0xD8 SHL PUSH1 0x64 DUP3 ADD MSTORE PUSH1 0x84 ADD PUSH2 0x754 JUMP JUMPDEST PUSH1 0x1 PUSH1 0x1 PUSH1 0xA0 SHL SUB DUP3 AND PUSH2 0xD24 JUMPI PUSH1 0x40 MLOAD PUSH3 0x461BCD PUSH1 0xE5 SHL DUP2 MSTORE PUSH1 0x20 PUSH1 0x4 DUP3 ADD MSTORE PUSH1 0x23 PUSH1 0x24 DUP3 ADD MSTORE PUSH32 0x504554524F3A207472616E7366657220746F20746865207A65726F2061646472 PUSH1 0x44 DUP3 ADD MSTORE PUSH3 0x657373 PUSH1 0xE8 SHL PUSH1 0x64 DUP3 ADD MSTORE PUSH1 0x84 ADD PUSH2 0x754 JUMP JUMPDEST PUSH1 0x1 PUSH1 0x1 PUSH1 0xA0 SHL SUB DUP4 AND PUSH1 0x0 SWAP1 DUP2 MSTORE PUSH1 0x1 PUSH1 0x20 MSTORE PUSH1 0x40 SWAP1 KECCAK256 SLOAD DUP2 DUP2 LT ISZERO PUSH2 0xD9C JUMPI PUSH1 0x40 MLOAD PUSH3 0x461BCD PUSH1 0xE5 SHL DUP2 MSTORE PUSH1 0x20 PUSH1 0x4 DUP3 ADD MSTORE PUSH1 0x26 PUSH1 0x24 DUP3 ADD MSTORE PUSH32 0x504554524F3A207472616E7366657220616D6F756E7420657863656564732062 PUSH1 0x44 DUP3 ADD MSTORE PUSH6 0x616C616E6365 PUSH1 0xD0 SHL PUSH1 0x64 DUP3 ADD MSTORE PUSH1 0x84 ADD PUSH2 0x754 JUMP JUMPDEST PUSH1 0x1 PUSH1 0x1 PUSH1 0xA0 SHL SUB DUP5 AND PUSH1 0x0 SWAP1 DUP2 MSTORE PUSH1 0x9 PUSH1 0x20 MSTORE PUSH1 0x40 SWAP1 KECCAK256 SLOAD DUP3 SWAP1 PUSH1 0xFF AND DUP1 PUSH2 0xDDD JUMPI POP PUSH1 0x1 PUSH1 0x1 PUSH1 0xA0 SHL SUB DUP5 AND PUSH1 0x0 SWAP1 DUP2 MSTORE PUSH1 0x9 PUSH1 0x20 MSTORE PUSH1 0x40 SWAP1 KECCAK256 SLOAD PUSH1 0xFF AND JUMPDEST DUP1 ISZERO PUSH2 0xE02 JUMPI POP PUSH1 0x1 PUSH1 0x1 PUSH1 0xA0 SHL SUB DUP6 AND PUSH1 0x0 SWAP1 DUP2 MSTORE PUSH1 0x7 PUSH1 0x20 MSTORE PUSH1 0x40 SWAP1 KECCAK256 SLOAD PUSH1 0xFF AND ISZERO JUMPDEST DUP1 ISZERO PUSH2 0xE27 JUMPI POP PUSH1 0x1 PUSH1 0x1 PUSH1 0xA0 SHL SUB DUP5 AND PUSH1 0x0 SWAP1 DUP2 MSTORE PUSH1 0x7 PUSH1 0x20 MSTORE PUSH1 0x40 SWAP1 KECCAK256 SLOAD PUSH1 0xFF AND ISZERO JUMPDEST DUP1 ISZERO PUSH2 0xE36 JUMPI POP PUSH1 0x8 SLOAD PUSH1 0xFF AND ISZERO JUMPDEST DUP1 ISZERO PUSH2 0xE49 JUMPI POP PUSH1 0x8 SLOAD PUSH2 0x100 SWAP1 DIV PUSH1 0xFF AND JUMPDEST ISZERO PUSH2 0xF6C JUMPI PUSH1 0x64 PUSH2 0xE5B DUP5 PUSH1 0x3 PUSH2 0x16F3 JUMP JUMPDEST PUSH2 0xE65 SWAP2 SWAP1 PUSH2 0x1712 JUMP JUMPDEST ADDRESS PUSH1 0x0 SWAP1 DUP2 MSTORE PUSH1 0x1 PUSH1 0x20 MSTORE PUSH1 0x40 DUP2 KECCAK256 DUP1 SLOAD SWAP1 SWAP2 SWAP1 PUSH2 0xE84 SWAP1 DUP5 SWAP1 PUSH2 0x1689 JUMP JUMPDEST SWAP1 SWAP2 SSTORE POP ADDRESS SWAP1 POP PUSH1 0x1 PUSH1 0x1 PUSH1 0xA0 SHL SUB DUP7 AND PUSH32 0xDDF252AD1BE2C89B69C2B068FC378DAA952BA7F163C4A11628F55A4DF523B3EF PUSH1 0x64 PUSH2 0xEC3 DUP8 PUSH1 0x3 PUSH2 0x16F3 JUMP JUMPDEST PUSH2 0xECD SWAP2 SWAP1 PUSH2 0x1712 JUMP JUMPDEST PUSH1 0x40 MLOAD SWAP1 DUP2 MSTORE PUSH1 0x20 ADD PUSH1 0x40 MLOAD DUP1 SWAP2 SUB SWAP1 LOG3 ADDRESS PUSH1 0x0 SWAP1 DUP2 MSTORE PUSH1 0x1 PUSH1 0x20 MSTORE PUSH1 0x40 SWAP1 KECCAK256 SLOAD PUSH1 0x3 SLOAD DUP2 LT PUSH2 0xEFC JUMPI POP PUSH1 0x3 SLOAD JUMPDEST PUSH8 0xDE0B6B3A7640000 DUP2 LT DUP1 ISZERO SWAP1 DUP2 SWAP1 PUSH2 0xF2F JUMPI POP PUSH1 0x1 PUSH1 0x1 PUSH1 0xA0 SHL SUB DUP8 AND PUSH1 0x0 SWAP1 DUP2 MSTORE PUSH1 0x9 PUSH1 0x20 MSTORE PUSH1 0x40 SWAP1 KECCAK256 SLOAD PUSH1 0xFF AND ISZERO JUMPDEST DUP1 ISZERO PUSH2 0xF42 JUMPI POP PUSH1 0x8 SLOAD PUSH2 0x100 SWAP1 DIV PUSH1 0xFF AND JUMPDEST ISZERO PUSH2 0xF50 JUMPI PUSH2 0xF50 DUP3 PUSH2 0x1194 JUMP JUMPDEST PUSH1 0x64 PUSH2 0xF5D DUP7 PUSH1 0x61 PUSH2 0x16F3 JUMP JUMPDEST PUSH2 0xF67 SWAP2 SWAP1 PUSH2 0x1712 JUMP JUMPDEST SWAP3 POP POP POP JUMPDEST PUSH1 0x1 PUSH1 0x1 PUSH1 0xA0 SHL SUB DUP1 DUP7 AND PUSH1 0x0 SWAP1 DUP2 MSTORE PUSH1 0x1 PUSH1 0x20 MSTORE PUSH1 0x40 DUP1 DUP3 KECCAK256 DUP7 DUP7 SUB SWAP1 SSTORE SWAP2 DUP7 AND DUP2 MSTORE SWAP1 DUP2 KECCAK256 DUP1 SLOAD DUP4 SWAP3 SWAP1 PUSH2 0xFA3 SWAP1 DUP5 SWAP1 PUSH2 0x1689 JUMP JUMPDEST SWAP3 POP POP DUP2 SWAP1 SSTORE POP DUP4 PUSH1 0x1 PUSH1 0x1 PUSH1 0xA0 SHL SUB AND DUP6 PUSH1 0x1 PUSH1 0x1 PUSH1 0xA0 SHL SUB AND PUSH32 0xDDF252AD1BE2C89B69C2B068FC378DAA952BA7F163C4A11628F55A4DF523B3EF DUP4 PUSH1 0x40 MLOAD PUSH2 0xFEF SWAP2 DUP2 MSTORE PUSH1 0x20 ADD SWAP1 JUMP JUMPDEST PUSH1 0x40 MLOAD DUP1 SWAP2 SUB SWAP1 LOG3 POP POP POP POP POP JUMP JUMPDEST PUSH1 0x1 PUSH1 0x1 PUSH1 0xA0 SHL SUB DUP3 AND PUSH2 0x105E JUMPI PUSH1 0x40 MLOAD PUSH3 0x461BCD PUSH1 0xE5 SHL DUP2 MSTORE PUSH1 0x20 PUSH1 0x4 DUP3 ADD MSTORE PUSH1 0x21 PUSH1 0x24 DUP3 ADD MSTORE PUSH32 0x504554524F3A206275726E2066726F6D20746865207A65726F20616464726573 PUSH1 0x44 DUP3 ADD MSTORE PUSH1 0x73 PUSH1 0xF8 SHL PUSH1 0x64 DUP3 ADD MSTORE PUSH1 0x84 ADD PUSH2 0x754 JUMP JUMPDEST PUSH1 0x1 PUSH1 0x1 PUSH1 0xA0 SHL SUB DUP3 AND PUSH1 0x0 SWAP1 DUP2 MSTORE PUSH1 0x1 PUSH1 0x20 MSTORE PUSH1 0x40 SWAP1 KECCAK256 SLOAD DUP2 DUP2 LT ISZERO PUSH2 0x10D2 JUMPI PUSH1 0x40 MLOAD PUSH3 0x461BCD PUSH1 0xE5 SHL DUP2 MSTORE PUSH1 0x20 PUSH1 0x4 DUP3 ADD MSTORE PUSH1 0x22 PUSH1 0x24 DUP3 ADD MSTORE PUSH32 0x504554524F3A206275726E20616D6F756E7420657863656564732062616C616E PUSH1 0x44 DUP3 ADD MSTORE PUSH2 0x6365 PUSH1 0xF0 SHL PUSH1 0x64 DUP3 ADD MSTORE PUSH1 0x84 ADD PUSH2 0x754 JUMP JUMPDEST PUSH1 0x1 PUSH1 0x1 PUSH1 0xA0 SHL SUB DUP4 AND PUSH1 0x0 SWAP1 DUP2 MSTORE PUSH1 0x1 PUSH1 0x20 MSTORE PUSH1 0x40 DUP2 KECCAK256 DUP4 DUP4 SUB SWAP1 SSTORE PUSH1 0x3 DUP1 SLOAD DUP5 SWAP3 SWAP1 PUSH2 0x1101 SWAP1 DUP5 SWAP1 PUSH2 0x1734 JUMP JUMPDEST SWAP1 SWAP2 SSTORE POP POP PUSH1 0x40 MLOAD DUP3 DUP2 MSTORE PUSH1 0x0 SWAP1 PUSH1 0x1 PUSH1 0x1 PUSH1 0xA0 SHL SUB DUP6 AND SWAP1 PUSH32 0xDDF252AD1BE2C89B69C2B068FC378DAA952BA7F163C4A11628F55A4DF523B3EF SWAP1 PUSH1 0x20 ADD PUSH2 0xC51 JUMP JUMPDEST PUSH1 0x0 DUP1 SLOAD PUSH1 0x1 PUSH1 0x1 PUSH1 0xA0 SHL SUB DUP4 DUP2 AND PUSH1 0x1 PUSH1 0x1 PUSH1 0xA0 SHL SUB NOT DUP4 AND DUP2 OR DUP5 SSTORE PUSH1 0x40 MLOAD SWAP2 SWAP1 SWAP3 AND SWAP3 DUP4 SWAP2 PUSH32 0x8BE0079C531659141344CD1FD0A4F28419497F9722A3DAAFE3B4186F6B6457E0 SWAP2 SWAP1 LOG3 POP POP JUMP JUMPDEST PUSH1 0x8 DUP1 SLOAD PUSH1 0xFF NOT AND PUSH1 0x1 OR SWAP1 SSTORE PUSH1 0x40 DUP1 MLOAD PUSH1 0x2 DUP1 DUP3 MSTORE PUSH1 0x60 DUP3 ADD DUP4 MSTORE PUSH1 0x0 SWAP3 PUSH1 0x20 DUP4 ADD SWAP1 DUP1 CALLDATASIZE DUP4 CALLDATACOPY ADD SWAP1 POP POP SWAP1 POP ADDRESS DUP2 PUSH1 0x0 DUP2 MLOAD DUP2 LT PUSH2 0x11D6 JUMPI PUSH2 0x11D6 PUSH2 0x1644 JUMP JUMPDEST PUSH1 0x20 MUL PUSH1 0x20 ADD ADD SWAP1 PUSH1 0x1 PUSH1 0x1 PUSH1 0xA0 SHL SUB AND SWAP1 DUP2 PUSH1 0x1 PUSH1 0x1 PUSH1 0xA0 SHL SUB AND DUP2 MSTORE POP POP PUSH32 0x0 PUSH1 0x1 PUSH1 0x1 PUSH1 0xA0 SHL SUB AND PUSH4 0xAD5C4648 PUSH1 0x40 MLOAD DUP2 PUSH4 0xFFFFFFFF AND PUSH1 0xE0 SHL DUP2 MSTORE PUSH1 0x4 ADD PUSH1 0x20 PUSH1 0x40 MLOAD DUP1 DUP4 SUB DUP2 DUP7 GAS STATICCALL ISZERO DUP1 ISZERO PUSH2 0x1254 JUMPI RETURNDATASIZE PUSH1 0x0 DUP1 RETURNDATACOPY RETURNDATASIZE PUSH1 0x0 REVERT JUMPDEST POP POP POP POP PUSH1 0x40 MLOAD RETURNDATASIZE PUSH1 0x1F NOT PUSH1 0x1F DUP3 ADD AND DUP3 ADD DUP1 PUSH1 0x40 MSTORE POP DUP2 ADD SWAP1 PUSH2 0x1278 SWAP2 SWAP1 PUSH2 0x16D6 JUMP JUMPDEST DUP2 PUSH1 0x1 DUP2 MLOAD DUP2 LT PUSH2 0x128B JUMPI PUSH2 0x128B PUSH2 0x1644 JUMP JUMPDEST PUSH1 0x20 MUL PUSH1 0x20 ADD ADD SWAP1 PUSH1 0x1 PUSH1 0x1 PUSH1 0xA0 SHL SUB AND SWAP1 DUP2 PUSH1 0x1 PUSH1 0x1 PUSH1 0xA0 SHL SUB AND DUP2 MSTORE POP POP PUSH2 0x12D6 ADDRESS PUSH32 0x0 DUP5 PUSH2 0xBFC JUMP JUMPDEST PUSH1 0x40 MLOAD PUSH4 0x791AC947 PUSH1 0xE0 SHL DUP2 MSTORE PUSH1 0x1 PUSH1 0x1 PUSH1 0xA0 SHL SUB PUSH32 0x0 AND SWAP1 PUSH4 0x791AC947 SWAP1 PUSH2 0x132B SWAP1 DUP6 SWAP1 PUSH1 0x0 SWAP1 DUP7 SWAP1 ADDRESS SWAP1 TIMESTAMP SWAP1 PUSH1 0x4 ADD PUSH2 0x174B JUMP JUMPDEST PUSH1 0x0 PUSH1 0x40 MLOAD DUP1 DUP4 SUB DUP2 PUSH1 0x0 DUP8 DUP1 EXTCODESIZE ISZERO DUP1 ISZERO PUSH2 0x1345 JUMPI PUSH1 0x0 DUP1 REVERT JUMPDEST POP GAS CALL ISZERO DUP1 ISZERO PUSH2 0x1359 JUMPI RETURNDATASIZE PUSH1 0x0 DUP1 RETURNDATACOPY RETURNDATASIZE PUSH1 0x0 REVERT JUMPDEST POP POP PUSH1 0x6 SLOAD PUSH1 0x40 MLOAD PUSH1 0x1 PUSH1 0x1 PUSH1 0xA0 SHL SUB SWAP1 SWAP2 AND SWAP3 POP SELFBALANCE DUP1 ISZERO PUSH2 0x8FC MUL SWAP3 POP SWAP1 PUSH1 0x0 DUP2 DUP2 DUP2 DUP6 DUP9 DUP9 CALL SWAP4 POP POP POP POP ISZERO DUP1 ISZERO PUSH2 0x1397 JUMPI RETURNDATASIZE PUSH1 0x0 DUP1 RETURNDATACOPY RETURNDATASIZE PUSH1 0x0 REVERT JUMPDEST POP POP PUSH1 0x8 DUP1 SLOAD PUSH1 0xFF NOT AND SWAP1 SSTORE POP JUMP JUMPDEST PUSH1 0x0 PUSH1 0x20 DUP1 DUP4 MSTORE DUP4 MLOAD DUP1 DUP3 DUP6 ADD MSTORE PUSH1 0x0 JUMPDEST DUP2 DUP2 LT ISZERO PUSH2 0x13D3 JUMPI DUP6 DUP2 ADD DUP4 ADD MLOAD DUP6 DUP3 ADD PUSH1 0x40 ADD MSTORE DUP3 ADD PUSH2 0x13B7 JUMP JUMPDEST DUP2 DUP2 GT ISZERO PUSH2 0x13E5 JUMPI PUSH1 0x0 PUSH1 0x40 DUP4 DUP8 ADD ADD MSTORE JUMPDEST POP PUSH1 0x1F ADD PUSH1 0x1F NOT AND SWAP3 SWAP1 SWAP3 ADD PUSH1 0x40 ADD SWAP4 SWAP3 POP POP POP JUMP JUMPDEST PUSH1 0x1 PUSH1 0x1 PUSH1 0xA0 SHL SUB DUP2 AND DUP2 EQ PUSH2 0x7BB JUMPI PUSH1 0x0 DUP1 REVERT JUMPDEST DUP1 CALLDATALOAD PUSH2 0x141B DUP2 PUSH2 0x13FB JUMP JUMPDEST SWAP2 SWAP1 POP JUMP JUMPDEST PUSH1 0x0 DUP1 PUSH1 0x40 DUP4 DUP6 SUB SLT ISZERO PUSH2 0x1433 JUMPI PUSH1 0x0 DUP1 REVERT JUMPDEST DUP3 CALLDATALOAD PUSH2 0x143E DUP2 PUSH2 0x13FB JUMP JUMPDEST SWAP5 PUSH1 0x20 SWAP4 SWAP1 SWAP4 ADD CALLDATALOAD SWAP4 POP POP POP JUMP JUMPDEST PUSH4 0x4E487B71 PUSH1 0xE0 SHL PUSH1 0x0 MSTORE PUSH1 0x41 PUSH1 0x4 MSTORE PUSH1 0x24 PUSH1 0x0 REVERT JUMPDEST PUSH1 0x0 PUSH1 0x20 DUP1 DUP4 DUP6 SUB SLT ISZERO PUSH2 0x1475 JUMPI PUSH1 0x0 DUP1 REVERT JUMPDEST DUP3 CALLDATALOAD PUSH8 0xFFFFFFFFFFFFFFFF DUP1 DUP3 GT ISZERO PUSH2 0x148D JUMPI PUSH1 0x0 DUP1 REVERT JUMPDEST DUP2 DUP6 ADD SWAP2 POP DUP6 PUSH1 0x1F DUP4 ADD SLT PUSH2 0x14A1 JUMPI PUSH1 0x0 DUP1 REVERT JUMPDEST DUP2 CALLDATALOAD DUP2 DUP2 GT ISZERO PUSH2 0x14B3 JUMPI PUSH2 0x14B3 PUSH2 0x144C JUMP JUMPDEST DUP1 PUSH1 0x5 SHL PUSH1 0x40 MLOAD PUSH1 0x1F NOT PUSH1 0x3F DUP4 ADD AND DUP2 ADD DUP2 DUP2 LT DUP6 DUP3 GT OR ISZERO PUSH2 0x14D8 JUMPI PUSH2 0x14D8 PUSH2 0x144C JUMP JUMPDEST PUSH1 0x40 MSTORE SWAP2 DUP3 MSTORE DUP5 DUP3 ADD SWAP3 POP DUP4 DUP2 ADD DUP6 ADD SWAP2 DUP9 DUP4 GT ISZERO PUSH2 0x14F6 JUMPI PUSH1 0x0 DUP1 REVERT JUMPDEST SWAP4 DUP6 ADD SWAP4 JUMPDEST DUP3 DUP6 LT ISZERO PUSH2 0x151B JUMPI PUSH2 0x150C DUP6 PUSH2 0x1410 JUMP JUMPDEST DUP5 MSTORE SWAP4 DUP6 ADD SWAP4 SWAP3 DUP6 ADD SWAP3 PUSH2 0x14FB JUMP JUMPDEST SWAP9 SWAP8 POP POP POP POP POP POP POP POP JUMP JUMPDEST PUSH1 0x20 DUP1 DUP3 MSTORE DUP3 MLOAD DUP3 DUP3 ADD DUP2 SWAP1 MSTORE PUSH1 0x0 SWAP2 SWAP1 DUP5 DUP3 ADD SWAP1 PUSH1 0x40 DUP6 ADD SWAP1 DUP5 JUMPDEST DUP2 DUP2 LT ISZERO PUSH2 0x155F JUMPI DUP4 MLOAD DUP4 MSTORE SWAP3 DUP5 ADD SWAP3 SWAP2 DUP5 ADD SWAP2 PUSH1 0x1 ADD PUSH2 0x1543 JUMP JUMPDEST POP SWAP1 SWAP7 SWAP6 POP POP POP POP POP POP JUMP JUMPDEST PUSH1 0x0 DUP1 PUSH1 0x0 PUSH1 0x60 DUP5 DUP7 SUB SLT ISZERO PUSH2 0x1580 JUMPI PUSH1 0x0 DUP1 REVERT JUMPDEST DUP4 CALLDATALOAD PUSH2 0x158B DUP2 PUSH2 0x13FB JUMP JUMPDEST SWAP3 POP PUSH1 0x20 DUP5 ADD CALLDATALOAD PUSH2 0x159B DUP2 PUSH2 0x13FB JUMP JUMPDEST SWAP3 SWAP6 SWAP3 SWAP5 POP POP POP PUSH1 0x40 SWAP2 SWAP1 SWAP2 ADD CALLDATALOAD SWAP1 JUMP JUMPDEST PUSH1 0x0 PUSH1 0x20 DUP3 DUP5 SUB SLT ISZERO PUSH2 0x15BE JUMPI PUSH1 0x0 DUP1 REVERT JUMPDEST POP CALLDATALOAD SWAP2 SWAP1 POP JUMP JUMPDEST PUSH1 0x0 PUSH1 0x20 DUP3 DUP5 SUB SLT ISZERO PUSH2 0x15D7 JUMPI PUSH1 0x0 DUP1 REVERT JUMPDEST DUP2 CALLDATALOAD PUSH2 0x15E2 DUP2 PUSH2 0x13FB JUMP JUMPDEST SWAP4 SWAP3 POP POP POP JUMP JUMPDEST PUSH1 0x0 PUSH1 0x20 DUP3 DUP5 SUB SLT ISZERO PUSH2 0x15FB JUMPI PUSH1 0x0 DUP1 REVERT JUMPDEST DUP2 CALLDATALOAD DUP1 ISZERO ISZERO DUP2 EQ PUSH2 0x15E2 JUMPI PUSH1 0x0 DUP1 REVERT JUMPDEST PUSH1 0x0 DUP1 PUSH1 0x40 DUP4 DUP6 SUB SLT ISZERO PUSH2 0x161E JUMPI PUSH1 0x0 DUP1 REVERT JUMPDEST DUP3 CALLDATALOAD PUSH2 0x1629 DUP2 PUSH2 0x13FB JUMP JUMPDEST SWAP2 POP PUSH1 0x20 DUP4 ADD CALLDATALOAD PUSH2 0x1639 DUP2 PUSH2 0x13FB JUMP JUMPDEST DUP1 SWAP2 POP POP SWAP3 POP SWAP3 SWAP1 POP JUMP JUMPDEST PUSH4 0x4E487B71 PUSH1 0xE0 SHL PUSH1 0x0 MSTORE PUSH1 0x32 PUSH1 0x4 MSTORE PUSH1 0x24 PUSH1 0x0 REVERT JUMPDEST PUSH4 0x4E487B71 PUSH1 0xE0 SHL PUSH1 0x0 MSTORE PUSH1 0x11 PUSH1 0x4 MSTORE PUSH1 0x24 PUSH1 0x0 REVERT JUMPDEST PUSH1 0x0 PUSH1 0x1 DUP3 ADD PUSH2 0x1682 JUMPI PUSH2 0x1682 PUSH2 0x165A JUMP JUMPDEST POP PUSH1 0x1 ADD SWAP1 JUMP JUMPDEST PUSH1 0x0 DUP3 NOT DUP3 GT ISZERO PUSH2 0x169C JUMPI PUSH2 0x169C PUSH2 0x165A JUMP JUMPDEST POP ADD SWAP1 JUMP JUMPDEST PUSH1 0x20 DUP1 DUP3 MSTORE DUP2 DUP2 ADD MSTORE PUSH32 0x4F776E61626C653A2063616C6C6572206973206E6F7420746865206F776E6572 PUSH1 0x40 DUP3 ADD MSTORE PUSH1 0x60 ADD SWAP1 JUMP JUMPDEST PUSH1 0x0 PUSH1 0x20 DUP3 DUP5 SUB SLT ISZERO PUSH2 0x16E8 JUMPI PUSH1 0x0 DUP1 REVERT JUMPDEST DUP2 MLOAD PUSH2 0x15E2 DUP2 PUSH2 0x13FB JUMP JUMPDEST PUSH1 0x0 DUP2 PUSH1 0x0 NOT DIV DUP4 GT DUP3 ISZERO ISZERO AND ISZERO PUSH2 0x170D JUMPI PUSH2 0x170D PUSH2 0x165A JUMP JUMPDEST POP MUL SWAP1 JUMP JUMPDEST PUSH1 0x0 DUP3 PUSH2 0x172F JUMPI PUSH4 0x4E487B71 PUSH1 0xE0 SHL PUSH1 0x0 MSTORE PUSH1 0x12 PUSH1 0x4 MSTORE PUSH1 0x24 PUSH1 0x0 REVERT JUMPDEST POP DIV SWAP1 JUMP JUMPDEST PUSH1 0x0 DUP3 DUP3 LT ISZERO PUSH2 0x1746 JUMPI PUSH2 0x1746 PUSH2 0x165A JUMP JUMPDEST POP SUB SWAP1 JUMP JUMPDEST PUSH1 0x0 PUSH1 0xA0 DUP3 ADD DUP8 DUP4 MSTORE PUSH1 0x20 DUP8 DUP2 DUP6 ADD MSTORE PUSH1 0xA0 PUSH1 0x40 DUP6 ADD MSTORE DUP2 DUP8 MLOAD DUP1 DUP5 MSTORE PUSH1 0xC0 DUP7 ADD SWAP2 POP DUP3 DUP10 ADD SWAP4 POP PUSH1 0x0 JUMPDEST DUP2 DUP2 LT ISZERO PUSH2 0x179B JUMPI DUP5 MLOAD PUSH1 0x1 PUSH1 0x1 PUSH1 0xA0 SHL SUB AND DUP4 MSTORE SWAP4 DUP4 ADD SWAP4 SWAP2 DUP4 ADD SWAP2 PUSH1 0x1 ADD PUSH2 0x1776 JUMP JUMPDEST POP POP PUSH1 0x1 PUSH1 0x1 PUSH1 0xA0 SHL SUB SWAP7 SWAP1 SWAP7 AND PUSH1 0x60 DUP6 ADD MSTORE POP POP POP PUSH1 0x80 ADD MSTORE SWAP4 SWAP3 POP POP POP JUMP INVALID LOG2 PUSH5 0x6970667358 0x22 SLT KECCAK256 PUSH8 0x1CCAD80396DB3218 0x5E PUSH23 0x8D912E439CDE7CBC1709CF12C4B31FC8CE0D5432576473 PUSH16 0x6C634300080D00330000000000000000 "
				},
				"gasEstimates": {
					"creation": {
						"codeDepositCost": "1226000",
						"executionCost": "infinite",
						"totalCost": "infinite"
					},
					"external": {
						"DEXs(address)": "2569",
						"addDex(address)": "29051",
						"allowance(address,address)": "infinite",
						"approve(address,uint256)": "24567",
						"balanceOf(address)": "2577",
						"batchBalanceOf(address[])": "infinite",
						"burn(uint256)": "50945",
						"decimals()": "223",
						"decreaseAllowance(address,uint256)": "26924",
						"deliver(address)": "infinite",
						"increaseAllowance(address,uint256)": "26927",
						"initContract()": "infinite",
						"isPair(address)": "2613",
						"marketAddress()": "2404",
						"name()": "infinite",
						"owner()": "2376",
						"renounceOwnership()": "28182",
						"setMarket(address)": "26816",
						"setSwapAndLiquifyEnabled(bool)": "27789",
						"swapAndLiquifyEnabled()": "2388",
						"symbol()": "infinite",
						"totalSupply()": "2393",
						"transfer(address,uint256)": "64352",
						"transferFrom(address,address,uint256)": "infinite",
						"transferOwnership(address)": "infinite",
						"uniswapV2Pair()": "infinite",
						"uniswapV2Router()": "infinite"
					},
					"internal": {
						"_approve(address,address,uint256)": "infinite",
						"_burn(address,uint256)": "infinite",
						"_mint(address,uint256)": "infinite",
						"_transfer(address,address,uint256)": "infinite",
						"swapTokensForEth(uint256)": "infinite"
					}
				},
				"methodIdentifiers": {
					"DEXs(address)": "dec1a6f6",
					"addDex(address)": "536db266",
					"allowance(address,address)": "dd62ed3e",
					"approve(address,uint256)": "095ea7b3",
					"balanceOf(address)": "70a08231",
					"batchBalanceOf(address[])": "0c3cc61a",
					"burn(uint256)": "42966c68",
					"decimals()": "313ce567",
					"decreaseAllowance(address,uint256)": "a457c2d7",
					"deliver(address)": "e515cd38",
					"increaseAllowance(address,uint256)": "39509351",
					"initContract()": "8203f5fe",
					"isPair(address)": "e5e31b13",
					"marketAddress()": "95623641",
					"name()": "06fdde03",
					"owner()": "8da5cb5b",
					"renounceOwnership()": "715018a6",
					"setMarket(address)": "6dcea85f",
					"setSwapAndLiquifyEnabled(bool)": "c49b9a80",
					"swapAndLiquifyEnabled()": "4a74bb02",
					"symbol()": "95d89b41",
					"totalSupply()": "18160ddd",
					"transfer(address,uint256)": "a9059cbb",
					"transferFrom(address,address,uint256)": "23b872dd",
					"transferOwnership(address)": "f2fde38b",
					"uniswapV2Pair()": "49bd5a5e",
					"uniswapV2Router()": "1694505e"
				}
			},
			"storageLayout": {
				"storage": [
					{
						"astId": 296,
						"contract": "ex/exchangeUsdtToken.sol:GSW",
						"label": "_owner",
						"offset": 0,
						"slot": "0",
						"type": "t_address"
					},
					{
						"astId": 1298,
						"contract": "ex/exchangeUsdtToken.sol:GSW",
						"label": "_balances",
						"offset": 0,
						"slot": "1",
						"type": "t_mapping(t_address,t_uint256)"
					},
					{
						"astId": 1304,
						"contract": "ex/exchangeUsdtToken.sol:GSW",
						"label": "_allowances",
						"offset": 0,
						"slot": "2",
						"type": "t_mapping(t_address,t_mapping(t_address,t_uint256))"
					},
					{
						"astId": 1306,
						"contract": "ex/exchangeUsdtToken.sol:GSW",
						"label": "_totalSupply",
						"offset": 0,
						"slot": "3",
						"type": "t_uint256"
					},
					{
						"astId": 1308,
						"contract": "ex/exchangeUsdtToken.sol:GSW",
						"label": "_name",
						"offset": 0,
						"slot": "4",
						"type": "t_string_storage"
					},
					{
						"astId": 1310,
						"contract": "ex/exchangeUsdtToken.sol:GSW",
						"label": "_symbol",
						"offset": 0,
						"slot": "5",
						"type": "t_string_storage"
					},
					{
						"astId": 1312,
						"contract": "ex/exchangeUsdtToken.sol:GSW",
						"label": "marketAddress",
						"offset": 0,
						"slot": "6",
						"type": "t_address"
					},
					{
						"astId": 1321,
						"contract": "ex/exchangeUsdtToken.sol:GSW",
						"label": "_isExcludeds",
						"offset": 0,
						"slot": "7",
						"type": "t_mapping(t_address,t_bool)"
					},
					{
						"astId": 1323,
						"contract": "ex/exchangeUsdtToken.sol:GSW",
						"label": "inSwapAndLiquify",
						"offset": 0,
						"slot": "8",
						"type": "t_bool"
					},
					{
						"astId": 1325,
						"contract": "ex/exchangeUsdtToken.sol:GSW",
						"label": "swapAndLiquifyEnabled",
						"offset": 1,
						"slot": "8",
						"type": "t_bool"
					},
					{
						"astId": 1329,
						"contract": "ex/exchangeUsdtToken.sol:GSW",
						"label": "DEXs",
						"offset": 0,
						"slot": "9",
						"type": "t_mapping(t_address,t_bool)"
					},
					{
						"astId": 1333,
						"contract": "ex/exchangeUsdtToken.sol:GSW",
						"label": "isPair",
						"offset": 0,
						"slot": "10",
						"type": "t_mapping(t_address,t_bool)"
					}
				],
				"types": {
					"t_address": {
						"encoding": "inplace",
						"label": "address",
						"numberOfBytes": "20"
					},
					"t_bool": {
						"encoding": "inplace",
						"label": "bool",
						"numberOfBytes": "1"
					},
					"t_mapping(t_address,t_bool)": {
						"encoding": "mapping",
						"key": "t_address",
						"label": "mapping(address => bool)",
						"numberOfBytes": "32",
						"value": "t_bool"
					},
					"t_mapping(t_address,t_mapping(t_address,t_uint256))": {
						"encoding": "mapping",
						"key": "t_address",
						"label": "mapping(address => mapping(address => uint256))",
						"numberOfBytes": "32",
						"value": "t_mapping(t_address,t_uint256)"
					},
					"t_mapping(t_address,t_uint256)": {
						"encoding": "mapping",
						"key": "t_address",
						"label": "mapping(address => uint256)",
						"numberOfBytes": "32",
						"value": "t_uint256"
					},
					"t_string_storage": {
						"encoding": "bytes",
						"label": "string",
						"numberOfBytes": "32"
					},
					"t_uint256": {
						"encoding": "inplace",
						"label": "uint256",
						"numberOfBytes": "32"
					}
				}
			},
			"userdoc": {
				"kind": "user",
				"methods": {},
				"version": 1
			}
		}
	}
}