{
	"ex/MGCPresell.sol": {
		"MGCPresell": {
			"abi": [
				{
					"inputs": [
						{
							"internalType": "uint256",
							"name": "_startAt",
							"type": "uint256"
						},
						{
							"internalType": "uint256",
							"name": "_endAt",
							"type": "uint256"
						}
					],
					"stateMutability": "nonpayable",
					"type": "constructor"
				},
				{
					"anonymous": false,
					"inputs": [
						{
							"indexed": true,
							"internalType": "address",
							"name": "user",
							"type": "address"
						},
						{
							"indexed": false,
							"internalType": "uint256",
							"name": "mscAmount",
							"type": "uint256"
						},
						{
							"indexed": false,
							"internalType": "uint256",
							"name": "usdtAmount",
							"type": "uint256"
						}
					],
					"name": "BuyPresell",
					"type": "event"
				},
				{
					"anonymous": false,
					"inputs": [
						{
							"indexed": true,
							"internalType": "address",
							"name": "previousOwner",
							"type": "address"
						},
						{
							"indexed": true,
							"internalType": "address",
							"name": "newOwner",
							"type": "address"
						}
					],
					"name": "OwnershipTransferred",
					"type": "event"
				},
				{
					"anonymous": false,
					"inputs": [
						{
							"indexed": true,
							"internalType": "address",
							"name": "user",
							"type": "address"
						}
					],
					"name": "Withdraw",
					"type": "event"
				},
				{
					"inputs": [],
					"name": "buyTokens",
					"outputs": [],
					"stateMutability": "nonpayable",
					"type": "function"
				},
				{
					"inputs": [],
					"name": "emergencyWithdraw",
					"outputs": [],
					"stateMutability": "nonpayable",
					"type": "function"
				},
				{
					"inputs": [
						{
							"internalType": "address",
							"name": "token",
							"type": "address"
						},
						{
							"internalType": "uint256",
							"name": "amount",
							"type": "uint256"
						}
					],
					"name": "emergencyWithdrawToken",
					"outputs": [],
					"stateMutability": "nonpayable",
					"type": "function"
				},
				{
					"inputs": [],
					"name": "getBaseAmount",
					"outputs": [
						{
							"internalType": "uint256",
							"name": "",
							"type": "uint256"
						}
					],
					"stateMutability": "view",
					"type": "function"
				},
				{
					"inputs": [],
					"name": "getEndTime",
					"outputs": [
						{
							"internalType": "uint256",
							"name": "",
							"type": "uint256"
						}
					],
					"stateMutability": "view",
					"type": "function"
				},
				{
					"inputs": [
						{
							"internalType": "uint256",
							"name": "usdtAmountIn",
							"type": "uint256"
						}
					],
					"name": "getMscAmountOut",
					"outputs": [
						{
							"internalType": "uint256",
							"name": "",
							"type": "uint256"
						}
					],
					"stateMutability": "view",
					"type": "function"
				},
				{
					"inputs": [
						{
							"internalType": "uint256",
							"name": "mscAmountIn",
							"type": "uint256"
						}
					],
					"name": "getMscPrice",
					"outputs": [
						{
							"internalType": "uint256",
							"name": "",
							"type": "uint256"
						}
					],
					"stateMutability": "view",
					"type": "function"
				},
				{
					"inputs": [],
					"name": "getPreSellCoinAmount",
					"outputs": [
						{
							"internalType": "uint256",
							"name": "",
							"type": "uint256"
						}
					],
					"stateMutability": "view",
					"type": "function"
				},
				{
					"inputs": [],
					"name": "getPreSellCounter",
					"outputs": [
						{
							"internalType": "uint64",
							"name": "",
							"type": "uint64"
						}
					],
					"stateMutability": "view",
					"type": "function"
				},
				{
					"inputs": [],
					"name": "getPresellMax",
					"outputs": [
						{
							"internalType": "uint32",
							"name": "",
							"type": "uint32"
						}
					],
					"stateMutability": "view",
					"type": "function"
				},
				{
					"inputs": [],
					"name": "getPresellMscAndUsdtAmount",
					"outputs": [
						{
							"internalType": "uint256",
							"name": "",
							"type": "uint256"
						},
						{
							"internalType": "uint256",
							"name": "",
							"type": "uint256"
						}
					],
					"stateMutability": "view",
					"type": "function"
				},
				{
					"inputs": [],
					"name": "getStartTime",
					"outputs": [
						{
							"internalType": "uint256",
							"name": "",
							"type": "uint256"
						}
					],
					"stateMutability": "view",
					"type": "function"
				},
				{
					"inputs": [],
					"name": "getStep",
					"outputs": [
						{
							"internalType": "uint256",
							"name": "",
							"type": "uint256"
						}
					],
					"stateMutability": "view",
					"type": "function"
				},
				{
					"inputs": [
						{
							"internalType": "address",
							"name": "user",
							"type": "address"
						}
					],
					"name": "getUserHasBuy",
					"outputs": [
						{
							"internalType": "bool",
							"name": "",
							"type": "bool"
						}
					],
					"stateMutability": "view",
					"type": "function"
				},
				{
					"inputs": [
						{
							"internalType": "address",
							"name": "user",
							"type": "address"
						}
					],
					"name": "getUserPreSellCoinAmount",
					"outputs": [
						{
							"internalType": "uint256",
							"name": "",
							"type": "uint256"
						}
					],
					"stateMutability": "view",
					"type": "function"
				},
				{
					"inputs": [],
					"name": "getWithdrawCounter",
					"outputs": [
						{
							"internalType": "uint64",
							"name": "",
							"type": "uint64"
						}
					],
					"stateMutability": "view",
					"type": "function"
				},
				{
					"inputs": [
						{
							"internalType": "address",
							"name": "",
							"type": "address"
						}
					],
					"name": "hasBuy",
					"outputs": [
						{
							"internalType": "bool",
							"name": "",
							"type": "bool"
						}
					],
					"stateMutability": "view",
					"type": "function"
				},
				{
					"inputs": [],
					"name": "marketAddress",
					"outputs": [
						{
							"internalType": "address",
							"name": "",
							"type": "address"
						}
					],
					"stateMutability": "view",
					"type": "function"
				},
				{
					"inputs": [],
					"name": "mscMintAddress",
					"outputs": [
						{
							"internalType": "address",
							"name": "",
							"type": "address"
						}
					],
					"stateMutability": "view",
					"type": "function"
				},
				{
					"inputs": [],
					"name": "mscToken",
					"outputs": [
						{
							"internalType": "contract IERC20",
							"name": "",
							"type": "address"
						}
					],
					"stateMutability": "view",
					"type": "function"
				},
				{
					"inputs": [],
					"name": "owner",
					"outputs": [
						{
							"internalType": "address",
							"name": "",
							"type": "address"
						}
					],
					"stateMutability": "view",
					"type": "function"
				},
				{
					"inputs": [],
					"name": "pancakeRoute2",
					"outputs": [
						{
							"internalType": "address",
							"name": "",
							"type": "address"
						}
					],
					"stateMutability": "view",
					"type": "function"
				},
				{
					"inputs": [],
					"name": "presellTokenMintAddress",
					"outputs": [
						{
							"internalType": "address",
							"name": "",
							"type": "address"
						}
					],
					"stateMutability": "view",
					"type": "function"
				},
				{
					"inputs": [],
					"name": "renounceOwnership",
					"outputs": [],
					"stateMutability": "nonpayable",
					"type": "function"
				},
				{
					"inputs": [],
					"name": "sellToken",
					"outputs": [
						{
							"internalType": "contract IERC20",
							"name": "",
							"type": "address"
						}
					],
					"stateMutability": "view",
					"type": "function"
				},
				{
					"inputs": [
						{
							"internalType": "uint256",
							"name": "newAmount",
							"type": "uint256"
						}
					],
					"name": "setBaseAmount",
					"outputs": [],
					"stateMutability": "nonpayable",
					"type": "function"
				},
				{
					"inputs": [
						{
							"internalType": "address",
							"name": "newAddress",
							"type": "address"
						}
					],
					"name": "setMarketAddress",
					"outputs": [],
					"stateMutability": "nonpayable",
					"type": "function"
				},
				{
					"inputs": [
						{
							"internalType": "uint256",
							"name": "step",
							"type": "uint256"
						}
					],
					"name": "setPriceStep",
					"outputs": [],
					"stateMutability": "nonpayable",
					"type": "function"
				},
				{
					"inputs": [
						{
							"internalType": "uint256",
							"name": "step",
							"type": "uint256"
						}
					],
					"name": "setTimeStep",
					"outputs": [],
					"stateMutability": "nonpayable",
					"type": "function"
				},
				{
					"inputs": [
						{
							"internalType": "address",
							"name": "newOwner",
							"type": "address"
						}
					],
					"name": "transferOwnership",
					"outputs": [],
					"stateMutability": "nonpayable",
					"type": "function"
				},
				{
					"inputs": [],
					"name": "usdtMintAddress",
					"outputs": [
						{
							"internalType": "address",
							"name": "",
							"type": "address"
						}
					],
					"stateMutability": "view",
					"type": "function"
				},
				{
					"inputs": [],
					"name": "usdtToken",
					"outputs": [
						{
							"internalType": "contract IERC20",
							"name": "",
							"type": "address"
						}
					],
					"stateMutability": "view",
					"type": "function"
				},
				{
					"inputs": [
						{
							"internalType": "address",
							"name": "",
							"type": "address"
						}
					],
					"name": "userPresellBalanceMap",
					"outputs": [
						{
							"internalType": "uint256",
							"name": "",
							"type": "uint256"
						}
					],
					"stateMutability": "view",
					"type": "function"
				},
				{
					"inputs": [],
					"name": "withdrawPresellTokens",
					"outputs": [],
					"stateMutability": "nonpayable",
					"type": "function"
				}
			],
			"devdoc": {
				"kind": "dev",
				"methods": {
					"owner()": {
						"details": "Returns the address of the current owner."
					},
					"renounceOwnership()": {
						"details": "Leaves the contract without owner. It will not be possible to call `onlyOwner` functions anymore. Can only be called by the current owner. NOTE: Renouncing ownership will leave the contract without an owner, thereby removing any functionality that is only available to the owner."
					},
					"transferOwnership(address)": {
						"details": "Transfers ownership of the contract to a new account (`newOwner`). Can only be called by the current owner."
					}
				},
				"version": 1
			},
			"evm": {
				"assembly": "    /* \"ex/MGCPresell.sol\":27283:33558  contract MGCPresell is Ownable {... */\n  mstore(0x40, 0xe0)\n    /* \"ex/MGCPresell.sol\":27474:27549  address public usdtMintAddress = 0x55d398326f99059fF775485246999027B3197955 */\n  0x01\n  dup1\n  sload\n  not(sub(shl(0xa0, 0x01), 0x01))\n  swap1\n  dup2\n  and\n    /* \"ex/MGCPresell.sol\":27507:27549  0x55d398326f99059fF775485246999027B3197955 */\n  0x55d398326f99059ff775485246999027b3197955\n    /* \"ex/MGCPresell.sol\":27474:27549  address public usdtMintAddress = 0x55d398326f99059fF775485246999027B3197955 */\n  or\n  swap1\n  swap2\n  sstore\n    /* \"ex/MGCPresell.sol\":27556:27630  address public mscMintAddress = 0xeacAd6c99965cDE0f31513dd72DE79FA24610767 */\n  0x02\n  dup1\n  sload\n  dup3\n  and\n    /* \"ex/MGCPresell.sol\":27588:27630  0xeacAd6c99965cDE0f31513dd72DE79FA24610767 */\n  0xeacad6c99965cde0f31513dd72de79fa24610767\n    /* \"ex/MGCPresell.sol\":27556:27630  address public mscMintAddress = 0xeacAd6c99965cDE0f31513dd72DE79FA24610767 */\n  or\n  swap1\n  sstore\n    /* \"ex/MGCPresell.sol\":27637:27720  address public presellTokenMintAddress = 0xE070ccA5cdFB3F2B434fB91eAF67FA2084f324D7 */\n  0x03\n  dup1\n  sload\n  dup3\n  and\n    /* \"ex/MGCPresell.sol\":27678:27720  0xE070ccA5cdFB3F2B434fB91eAF67FA2084f324D7 */\n  0xe070cca5cdfb3f2b434fb91eaf67fa2084f324d7\n    /* \"ex/MGCPresell.sol\":27637:27720  address public presellTokenMintAddress = 0xE070ccA5cdFB3F2B434fB91eAF67FA2084f324D7 */\n  or\n  swap1\n  sstore\n    /* \"ex/MGCPresell.sol\":27727:27800  address public marketAddress = 0x3caa5ABC857473F8a31B619f0F7Fe7BfBde35816 */\n  0x04\n  dup1\n  sload\n  dup3\n  and\n    /* \"ex/MGCPresell.sol\":27758:27800  0x3caa5ABC857473F8a31B619f0F7Fe7BfBde35816 */\n  0x3caa5abc857473f8a31b619f0f7fe7bfbde35816\n    /* \"ex/MGCPresell.sol\":27727:27800  address public marketAddress = 0x3caa5ABC857473F8a31B619f0F7Fe7BfBde35816 */\n  or\n  swap1\n  sstore\n    /* \"ex/MGCPresell.sol\":27807:27880  address public pancakeRoute2 = 0x10ED43C718714eb63d5aA57B78B54704E256024E */\n  0x05\n  dup1\n  sload\n  swap1\n  swap2\n  and\n    /* \"ex/MGCPresell.sol\":27838:27880  0x10ED43C718714eb63d5aA57B78B54704E256024E */\n  0x10ed43c718714eb63d5aa57b78b54704e256024e\n    /* \"ex/MGCPresell.sol\":27807:27880  address public pancakeRoute2 = 0x10ED43C718714eb63d5aA57B78B54704E256024E */\n  or\n  swap1\n  sstore\n    /* \"ex/MGCPresell.sol\":27974:27988  500 * 10 ** 18 */\n  0x1b1ae4d6e2ef500000\n    /* \"ex/MGCPresell.sol\":27935:27988  uint256 private preSellCoinPreAmount = 500 * 10 ** 18 */\n  0x06\n  sstore\n    /* \"ex/MGCPresell.sol\":28130:28135  86400 */\n  0x015180\n    /* \"ex/MGCPresell.sol\":28103:28135  uint256 private timeStep = 86400 */\n  0x09\n  sstore\n    /* \"ex/MGCPresell.sol\":28178:28190  5 * 10 ** 18 */\n  0x4563918244f40000\n    /* \"ex/MGCPresell.sol\":28150:28190  uint256 private priceStep = 5 * 10 ** 18 */\n  0x0a\n  sstore\n    /* \"ex/MGCPresell.sol\":28225:28239  100 * 10 ** 18 */\n  0x056bc75e2d63100000\n    /* \"ex/MGCPresell.sol\":28197:28239  uint256 private baseMoney = 100 * 10 ** 18 */\n  0x0b\n  sstore\n    /* \"ex/MGCPresell.sol\":28314:28342  uint32 private preMax = 1024 */\n  0x0c\n  dup1\n  sload\n  0x04000000000000000000\n  not(shl(0x40, 0xffffffff))\n  swap1\n  swap2\n  and\n  or\n  swap1\n  sstore\n    /* \"ex/MGCPresell.sol\":28751:29158  constructor(... */\n  callvalue\n  dup1\n  iszero\n  tag_1\n  jumpi\n  0x00\n  dup1\n  revert\ntag_1:\n  pop\n  mload(0x40)\n  sub(codesize, bytecodeSize)\n  dup1\n  bytecodeSize\n  dup4\n  codecopy\n  dup2\n  add\n  0x40\n  dup2\n  swap1\n  mstore\n  tag_2\n  swap2\n  tag_3\n  jump\t// in\ntag_2:\n    /* \"ex/MGCPresell.sol\":9790:9822  _transferOwnership(_msgSender()) */\n  tag_7\n    /* \"ex/MGCPresell.sol\":9365:9375  msg.sender */\n  caller\n    /* \"ex/MGCPresell.sol\":9790:9808  _transferOwnership */\n  tag_10\n    /* \"ex/MGCPresell.sol\":9790:9822  _transferOwnership(_msgSender()) */\n  jump\t// in\ntag_7:\n    /* \"ex/MGCPresell.sol\":28857:28872  block.timestamp */\n  timestamp\n    /* \"ex/MGCPresell.sol\":28845:28853  _startAt */\n  dup3\n    /* \"ex/MGCPresell.sol\":28845:28872  _startAt >= block.timestamp */\n  lt\n  iszero\n    /* \"ex/MGCPresell.sol\":28837:28891  require(_startAt >= block.timestamp, \"start at < now\") */\n  tag_12\n  jumpi\n  mload(0x40)\n  shl(0xe5, 0x461bcd)\n  dup2\n  mstore\n    /* \"#utility.yul\":466:468   */\n  0x20\n    /* \"ex/MGCPresell.sol\":28837:28891  require(_startAt >= block.timestamp, \"start at < now\") */\n  0x04\n  dup3\n  add\n    /* \"#utility.yul\":448:469   */\n  mstore\n    /* \"#utility.yul\":505:507   */\n  0x0e\n    /* \"#utility.yul\":485:503   */\n  0x24\n  dup3\n  add\n    /* \"#utility.yul\":478:508   */\n  mstore\n  shl(0x90, 0x7374617274206174203c206e6f77)\n    /* \"#utility.yul\":524:542   */\n  0x44\n  dup3\n  add\n    /* \"#utility.yul\":517:561   */\n  mstore\n    /* \"#utility.yul\":578:596   */\n  0x64\n  add\n    /* \"ex/MGCPresell.sol\":28837:28891  require(_startAt >= block.timestamp, \"start at < now\") */\ntag_13:\n  mload(0x40)\n  dup1\n  swap2\n  sub\n  swap1\n  revert\ntag_12:\n    /* \"ex/MGCPresell.sol\":28920:28928  _startAt */\n  dup2\n    /* \"ex/MGCPresell.sol\":28910:28916  _endAt */\n  dup2\n    /* \"ex/MGCPresell.sol\":28910:28928  _endAt >= _startAt */\n  lt\n  iszero\n    /* \"ex/MGCPresell.sol\":28902:28950  require(_endAt >= _startAt, \"end at < start at\") */\n  tag_15\n  jumpi\n  mload(0x40)\n  shl(0xe5, 0x461bcd)\n  dup2\n  mstore\n    /* \"#utility.yul\":809:811   */\n  0x20\n    /* \"ex/MGCPresell.sol\":28902:28950  require(_endAt >= _startAt, \"end at < start at\") */\n  0x04\n  dup3\n  add\n    /* \"#utility.yul\":791:812   */\n  mstore\n    /* \"#utility.yul\":848:850   */\n  0x11\n    /* \"#utility.yul\":828:846   */\n  0x24\n  dup3\n  add\n    /* \"#utility.yul\":821:851   */\n  mstore\n  shl(0x7a, 0x195b9908185d080f081cdd185c9d08185d)\n    /* \"#utility.yul\":867:885   */\n  0x44\n  dup3\n  add\n    /* \"#utility.yul\":860:907   */\n  mstore\n    /* \"#utility.yul\":924:942   */\n  0x64\n  add\n    /* \"ex/MGCPresell.sol\":28902:28950  require(_endAt >= _startAt, \"end at < start at\") */\n  tag_13\n    /* \"#utility.yul\":607:948   */\n  jump\n    /* \"ex/MGCPresell.sol\":28902:28950  require(_endAt >= _startAt, \"end at < start at\") */\ntag_15:\n    /* \"ex/MGCPresell.sol\":28963:28970  startAt */\n  0x07\n    /* \"ex/MGCPresell.sol\":28963:28981  startAt = _startAt */\n  swap2\n  swap1\n  swap2\n  sstore\n    /* \"ex/MGCPresell.sol\":28992:28997  endAt */\n  0x08\n    /* \"ex/MGCPresell.sol\":28992:29006  endAt = _endAt */\n  sstore\n    /* \"ex/MGCPresell.sol\":29036:29051  usdtMintAddress */\n  sload(0x01)\n  sub(shl(0xa0, 0x01), 0x01)\n  swap1\n  dup2\n  and\n    /* \"ex/MGCPresell.sol\":29017:29052  usdtToken = IERC20(usdtMintAddress) */\n  0x80\n  mstore\n    /* \"ex/MGCPresell.sol\":29081:29095  mscMintAddress */\n  sload(0x02)\n  dup2\n  and\n    /* \"ex/MGCPresell.sol\":29063:29096  mscToken = IERC20(mscMintAddress) */\n  0xa0\n  mstore\n    /* \"ex/MGCPresell.sol\":29126:29149  presellTokenMintAddress */\n  sload(0x03)\n  and\n    /* \"ex/MGCPresell.sol\":29107:29150  sellToken = IERC20(presellTokenMintAddress) */\n  0xc0\n  mstore\n    /* \"ex/MGCPresell.sol\":27283:33558  contract MGCPresell is Ownable {... */\n  jump(tag_21)\n    /* \"ex/MGCPresell.sol\":11181:11372  function _transferOwnership(address newOwner) internal virtual {... */\ntag_10:\n    /* \"ex/MGCPresell.sol\":11255:11271  address oldOwner */\n  0x00\n    /* \"ex/MGCPresell.sol\":11274:11280  _owner */\n  dup1\n  sload\n  sub(shl(0xa0, 0x01), 0x01)\n    /* \"ex/MGCPresell.sol\":11291:11308  _owner = newOwner */\n  dup4\n  dup2\n  and\n  not(sub(shl(0xa0, 0x01), 0x01))\n  dup4\n  and\n  dup2\n  or\n  dup5\n  sstore\n    /* \"ex/MGCPresell.sol\":11324:11364  OwnershipTransferred(oldOwner, newOwner) */\n  mload(0x40)\n    /* \"ex/MGCPresell.sol\":11274:11280  _owner */\n  swap2\n  swap1\n  swap3\n  and\n  swap3\n  dup4\n  swap2\n    /* \"ex/MGCPresell.sol\":11324:11364  OwnershipTransferred(oldOwner, newOwner) */\n  0x8be0079c531659141344cd1fd0a4f28419497f9722a3daafe3b4186f6b6457e0\n  swap2\n    /* \"ex/MGCPresell.sol\":11255:11271  address oldOwner */\n  swap1\n    /* \"ex/MGCPresell.sol\":11324:11364  OwnershipTransferred(oldOwner, newOwner) */\n  log3\n    /* \"ex/MGCPresell.sol\":11244:11372  {... */\n  pop\n    /* \"ex/MGCPresell.sol\":11181:11372  function _transferOwnership(address newOwner) internal virtual {... */\n  pop\n  jump\t// out\n    /* \"#utility.yul\":14:259   */\ntag_3:\n    /* \"#utility.yul\":93:99   */\n  0x00\n    /* \"#utility.yul\":101:107   */\n  dup1\n    /* \"#utility.yul\":154:156   */\n  0x40\n    /* \"#utility.yul\":142:151   */\n  dup4\n    /* \"#utility.yul\":133:140   */\n  dup6\n    /* \"#utility.yul\":129:152   */\n  sub\n    /* \"#utility.yul\":125:157   */\n  slt\n    /* \"#utility.yul\":122:174   */\n  iszero\n  tag_23\n  jumpi\n    /* \"#utility.yul\":170:171   */\n  0x00\n    /* \"#utility.yul\":167:168   */\n  dup1\n    /* \"#utility.yul\":160:172   */\n  revert\n    /* \"#utility.yul\":122:174   */\ntag_23:\n  pop\n  pop\n    /* \"#utility.yul\":193:209   */\n  dup1\n  mload\n    /* \"#utility.yul\":249:251   */\n  0x20\n    /* \"#utility.yul\":234:252   */\n  swap1\n  swap2\n  add\n    /* \"#utility.yul\":228:253   */\n  mload\n    /* \"#utility.yul\":193:209   */\n  swap1\n  swap3\n    /* \"#utility.yul\":228:253   */\n  swap1\n  swap2\n  pop\n    /* \"#utility.yul\":14:259   */\n  jump\t// out\n    /* \"#utility.yul\":607:948   */\ntag_21:\n    /* \"ex/MGCPresell.sol\":27283:33558  contract MGCPresell is Ownable {... */\n  mload(0x80)\n  mload(0xa0)\n  mload(0xc0)\n  codecopy(0x00, dataOffset(sub_0), dataSize(sub_0))\n  0x00\n  assignImmutable(\"0x2130ac36a559fb8e580bc0b18328dc150d1ee7862597c2c927dd0615f7465659\")\n  0x00\n  assignImmutable(\"0xa786fb5285bfc320b201f383e2c5a351bf46b5f0a8ea36548fe95ec2c0cb0489\")\n  0x00\n  assignImmutable(\"0xcddd0fa4bd275e5fc61cea7dddc2298d82a0b9ffe073ad0f09dc27e98fbc8dde\")\n  return(0x00, dataSize(sub_0))\nstop\n\nsub_0: assembly {\n        /* \"ex/MGCPresell.sol\":27283:33558  contract MGCPresell is Ownable {... */\n      mstore(0x40, 0x80)\n      callvalue\n      dup1\n      iszero\n      tag_1\n      jumpi\n      0x00\n      dup1\n      revert\n    tag_1:\n      pop\n      jumpi(tag_2, lt(calldatasize, 0x04))\n      shr(0xe0, calldataload(0x00))\n      dup1\n      0x9769f0b0\n      gt\n      tag_37\n      jumpi\n      dup1\n      0xd0febe4c\n      gt\n      tag_38\n      jumpi\n      dup1\n      0xf01fc57c\n      gt\n      tag_39\n      jumpi\n      dup1\n      0xf01fc57c\n      eq\n      tag_32\n      jumpi\n      dup1\n      0xf2fde38b\n      eq\n      tag_33\n      jumpi\n      dup1\n      0xfae92612\n      eq\n      tag_34\n      jumpi\n      dup1\n      0xfaffbc5b\n      eq\n      tag_35\n      jumpi\n      dup1\n      0xfe05cc9c\n      eq\n      tag_36\n      jumpi\n      0x00\n      dup1\n      revert\n    tag_39:\n      dup1\n      0xd0febe4c\n      eq\n      tag_28\n      jumpi\n      dup1\n      0xd1d04e1f\n      eq\n      tag_29\n      jumpi\n      dup1\n      0xd4cfbbca\n      eq\n      tag_30\n      jumpi\n      dup1\n      0xdb2e21bc\n      eq\n      tag_31\n      jumpi\n      0x00\n      dup1\n      revert\n    tag_38:\n      dup1\n      0xaf94862c\n      gt\n      tag_40\n      jumpi\n      dup1\n      0xaf94862c\n      eq\n      tag_24\n      jumpi\n      dup1\n      0xc493b6e5\n      eq\n      tag_25\n      jumpi\n      dup1\n      0xc828371e\n      eq\n      tag_26\n      jumpi\n      dup1\n      0xc9ede793\n      eq\n      tag_27\n      jumpi\n      0x00\n      dup1\n      revert\n    tag_40:\n      dup1\n      0x9769f0b0\n      eq\n      tag_20\n      jumpi\n      dup1\n      0x9e5288a0\n      eq\n      tag_21\n      jumpi\n      dup1\n      0xa4c3b091\n      eq\n      tag_22\n      jumpi\n      dup1\n      0xa98ad46c\n      eq\n      tag_23\n      jumpi\n      0x00\n      dup1\n      revert\n    tag_37:\n      dup1\n      0x4c8b16f4\n      gt\n      tag_41\n      jumpi\n      dup1\n      0x8568f4ce\n      gt\n      tag_42\n      jumpi\n      dup1\n      0x8568f4ce\n      eq\n      tag_15\n      jumpi\n      dup1\n      0x88af60c6\n      eq\n      tag_16\n      jumpi\n      dup1\n      0x8da5cb5b\n      eq\n      tag_17\n      jumpi\n      dup1\n      0x90f5881a\n      eq\n      tag_18\n      jumpi\n      dup1\n      0x95623641\n      eq\n      tag_19\n      jumpi\n      0x00\n      dup1\n      revert\n    tag_42:\n      dup1\n      0x4c8b16f4\n      eq\n      tag_11\n      jumpi\n      dup1\n      0x6a5ff66f\n      eq\n      tag_12\n      jumpi\n      dup1\n      0x715018a6\n      eq\n      tag_13\n      jumpi\n      dup1\n      0x78eb6c6f\n      eq\n      tag_14\n      jumpi\n      0x00\n      dup1\n      revert\n    tag_41:\n      dup1\n      0x374eedef\n      gt\n      tag_43\n      jumpi\n      dup1\n      0x374eedef\n      eq\n      tag_7\n      jumpi\n      dup1\n      0x3817c9c1\n      eq\n      tag_8\n      jumpi\n      dup1\n      0x3d719da7\n      eq\n      tag_9\n      jumpi\n      dup1\n      0x439f5ac2\n      eq\n      tag_10\n      jumpi\n      0x00\n      dup1\n      revert\n    tag_43:\n      dup1\n      0x027734fa\n      eq\n      tag_3\n      jumpi\n      dup1\n      0x03d7424d\n      eq\n      tag_4\n      jumpi\n      dup1\n      0x04be093f\n      eq\n      tag_5\n      jumpi\n      dup1\n      0x224a7c6a\n      eq\n      tag_6\n      jumpi\n    tag_2:\n      0x00\n      dup1\n      revert\n        /* \"ex/MGCPresell.sol\":27637:27720  address public presellTokenMintAddress = 0xE070ccA5cdFB3F2B434fB91eAF67FA2084f324D7 */\n    tag_3:\n      sload(0x03)\n      tag_44\n      swap1\n      sub(shl(0xa0, 0x01), 0x01)\n      and\n      dup2\n      jump\n    tag_44:\n      mload(0x40)\n      sub(shl(0xa0, 0x01), 0x01)\n        /* \"#utility.yul\":178:210   */\n      swap1\n      swap2\n      and\n        /* \"#utility.yul\":160:211   */\n      dup2\n      mstore\n        /* \"#utility.yul\":148:150   */\n      0x20\n        /* \"#utility.yul\":133:151   */\n      add\n        /* \"ex/MGCPresell.sol\":27637:27720  address public presellTokenMintAddress = 0xE070ccA5cdFB3F2B434fB91eAF67FA2084f324D7 */\n    tag_46:\n      mload(0x40)\n      dup1\n      swap2\n      sub\n      swap1\n      return\n        /* \"ex/MGCPresell.sol\":31219:31319  function getWithdrawCounter() public view returns (uint64) {... */\n    tag_4:\n        /* \"ex/MGCPresell.sol\":31296:31311  withdrawCounter */\n      sload(0x0c)\n      0x0100000000\n      swap1\n      div\n      0xffffffff\n      and\n        /* \"ex/MGCPresell.sol\":31219:31319  function getWithdrawCounter() public view returns (uint64) {... */\n    tag_48:\n      mload(0x40)\n        /* \"#utility.yul\":396:414   */\n      0xffffffffffffffff\n        /* \"#utility.yul\":384:415   */\n      swap1\n      swap2\n      and\n        /* \"#utility.yul\":366:416   */\n      dup2\n      mstore\n        /* \"#utility.yul\":354:356   */\n      0x20\n        /* \"#utility.yul\":339:357   */\n      add\n        /* \"ex/MGCPresell.sol\":31219:31319  function getWithdrawCounter() public view returns (uint64) {... */\n      tag_46\n        /* \"#utility.yul\":222:422   */\n      jump\n        /* \"ex/MGCPresell.sol\":29511:29842  function getMscPrice(uint256 mscAmountIn) public view returns (uint256) {... */\n    tag_5:\n      tag_52\n      tag_53\n      calldatasize\n      0x04\n      tag_54\n      jump\t// in\n    tag_53:\n      tag_55\n      jump\t// in\n    tag_52:\n      mload(0x40)\n        /* \"#utility.yul\":758:783   */\n      swap1\n      dup2\n      mstore\n        /* \"#utility.yul\":746:748   */\n      0x20\n        /* \"#utility.yul\":731:749   */\n      add\n        /* \"ex/MGCPresell.sol\":29511:29842  function getMscPrice(uint256 mscAmountIn) public view returns (uint256) {... */\n      tag_46\n        /* \"#utility.yul\":612:789   */\n      jump\n        /* \"ex/MGCPresell.sol\":32931:33030  function setBaseAmount(uint256 newAmount) public onlyOwner {... */\n    tag_6:\n      tag_58\n      tag_59\n      calldatasize\n      0x04\n      tag_54\n      jump\t// in\n    tag_59:\n      tag_60\n      jump\t// in\n    tag_58:\n      stop\n        /* \"ex/MGCPresell.sol\":31010:31112  function getUserHasBuy(address user) public view returns (bool) {... */\n    tag_7:\n      tag_61\n      tag_62\n      calldatasize\n      0x04\n      tag_63\n      jump\t// in\n    tag_62:\n      sub(shl(0xa0, 0x01), 0x01)\n        /* \"ex/MGCPresell.sol\":31092:31104  hasBuy[user] */\n      and\n        /* \"ex/MGCPresell.sol\":31068:31072  bool */\n      0x00\n        /* \"ex/MGCPresell.sol\":31092:31104  hasBuy[user] */\n      swap1\n      dup2\n      mstore\n        /* \"ex/MGCPresell.sol\":31092:31098  hasBuy */\n      0x0e\n        /* \"ex/MGCPresell.sol\":31092:31104  hasBuy[user] */\n      0x20\n      mstore\n      0x40\n      swap1\n      keccak256\n      sload\n      0xff\n      and\n      swap1\n        /* \"ex/MGCPresell.sol\":31010:31112  function getUserHasBuy(address user) public view returns (bool) {... */\n      jump\n    tag_61:\n      mload(0x40)\n        /* \"#utility.yul\":1328:1342   */\n      swap1\n      iszero\n        /* \"#utility.yul\":1321:1343   */\n      iszero\n        /* \"#utility.yul\":1303:1344   */\n      dup2\n      mstore\n        /* \"#utility.yul\":1291:1293   */\n      0x20\n        /* \"#utility.yul\":1276:1294   */\n      add\n        /* \"ex/MGCPresell.sol\":31010:31112  function getUserHasBuy(address user) public view returns (bool) {... */\n      tag_46\n        /* \"#utility.yul\":1163:1350   */\n      jump\n        /* \"ex/MGCPresell.sol\":29166:29503  function getMscAmountOut(uint256 usdtAmountIn) public view returns (uint256) {... */\n    tag_8:\n      tag_52\n      tag_68\n      calldatasize\n      0x04\n      tag_54\n      jump\t// in\n    tag_68:\n      tag_69\n      jump\t// in\n        /* \"ex/MGCPresell.sol\":28539:28577  mapping(address => bool) public hasBuy */\n    tag_9:\n      tag_61\n      tag_72\n      calldatasize\n      0x04\n      tag_63\n      jump\t// in\n    tag_72:\n      mstore(0x20, 0x0e)\n      0x00\n      swap1\n      dup2\n      mstore\n      0x40\n      swap1\n      keccak256\n      sload\n      0xff\n      and\n      dup2\n      jump\n        /* \"ex/MGCPresell.sol\":30919:31002  function getEndTime() public view returns (uint256) {... */\n    tag_10:\n        /* \"ex/MGCPresell.sol\":30989:30994  endAt */\n      sload(0x08)\n        /* \"ex/MGCPresell.sol\":30919:31002  function getEndTime() public view returns (uint256) {... */\n      jump(tag_52)\n        /* \"ex/MGCPresell.sol\":33134:33220  function setTimeStep(uint256 step) public onlyOwner {... */\n    tag_11:\n      tag_58\n      tag_79\n      calldatasize\n      0x04\n      tag_54\n      jump\t// in\n    tag_79:\n      tag_80\n      jump\t// in\n        /* \"ex/MGCPresell.sol\":30377:30467  function getBaseAmount() public view returns (uint256) {... */\n    tag_12:\n        /* \"ex/MGCPresell.sol\":30450:30459  baseMoney */\n      sload(0x0b)\n        /* \"ex/MGCPresell.sol\":30377:30467  function getBaseAmount() public view returns (uint256) {... */\n      jump(tag_52)\n        /* \"ex/MGCPresell.sol\":10562:10665  function renounceOwnership() public virtual onlyOwner {... */\n    tag_13:\n      tag_58\n      tag_85\n      jump\t// in\n        /* \"ex/MGCPresell.sol\":30569:30677  function getPreSellCoinAmount() public view returns (uint256) {... */\n    tag_14:\n        /* \"ex/MGCPresell.sol\":30649:30669  preSellCoinPreAmount */\n      sload(0x06)\n        /* \"ex/MGCPresell.sol\":30569:30677  function getPreSellCoinAmount() public view returns (uint256) {... */\n      jump(tag_52)\n        /* \"ex/MGCPresell.sol\":30685:30816  function getUserPreSellCoinAmount(address user) public view returns (uint256) {... */\n    tag_15:\n      tag_52\n      tag_90\n      calldatasize\n      0x04\n      tag_63\n      jump\t// in\n    tag_90:\n      sub(shl(0xa0, 0x01), 0x01)\n        /* \"ex/MGCPresell.sol\":30781:30808  userPresellBalanceMap[user] */\n      and\n        /* \"ex/MGCPresell.sol\":30754:30761  uint256 */\n      0x00\n        /* \"ex/MGCPresell.sol\":30781:30808  userPresellBalanceMap[user] */\n      swap1\n      dup2\n      mstore\n        /* \"ex/MGCPresell.sol\":30781:30802  userPresellBalanceMap */\n      0x0d\n        /* \"ex/MGCPresell.sol\":30781:30808  userPresellBalanceMap[user] */\n      0x20\n      mstore\n      0x40\n      swap1\n      keccak256\n      sload\n      swap1\n        /* \"ex/MGCPresell.sol\":30685:30816  function getUserPreSellCoinAmount(address user) public view returns (uint256) {... */\n      jump\n        /* \"ex/MGCPresell.sol\":27474:27549  address public usdtMintAddress = 0x55d398326f99059fF775485246999027B3197955 */\n    tag_16:\n      sload(0x01)\n      tag_44\n      swap1\n      sub(shl(0xa0, 0x01), 0x01)\n      and\n      dup2\n      jump\n        /* \"ex/MGCPresell.sol\":9911:9998  function owner() public view virtual returns (address) {... */\n    tag_17:\n        /* \"ex/MGCPresell.sol\":9957:9964  address */\n      0x00\n        /* \"ex/MGCPresell.sol\":9984:9990  _owner */\n      sload\n      sub(shl(0xa0, 0x01), 0x01)\n      and\n        /* \"ex/MGCPresell.sol\":9911:9998  function owner() public view virtual returns (address) {... */\n      jump(tag_44)\n        /* \"ex/MGCPresell.sol\":28476:28532  mapping(address => uint256) public userPresellBalanceMap */\n    tag_18:\n      tag_52\n      tag_100\n      calldatasize\n      0x04\n      tag_63\n      jump\t// in\n    tag_100:\n      mstore(0x20, 0x0d)\n      0x00\n      swap1\n      dup2\n      mstore\n      0x40\n      swap1\n      keccak256\n      sload\n      dup2\n      jump\n        /* \"ex/MGCPresell.sol\":27727:27800  address public marketAddress = 0x3caa5ABC857473F8a31B619f0F7Fe7BfBde35816 */\n    tag_19:\n      sload(0x04)\n      tag_44\n      swap1\n      sub(shl(0xa0, 0x01), 0x01)\n      and\n      dup2\n      jump\n        /* \"ex/MGCPresell.sol\":28430:28463  IERC20 public immutable sellToken */\n    tag_20:\n      tag_44\n      immutable(\"0x2130ac36a559fb8e580bc0b18328dc150d1ee7862597c2c927dd0615f7465659\")\n      dup2\n      jump\n        /* \"ex/MGCPresell.sol\":29850:30000  function getStep() public view returns (uint256) {... */\n    tag_21:\n      tag_52\n      tag_111\n      jump\t// in\n        /* \"ex/MGCPresell.sol\":33412:33555  function emergencyWithdrawToken(address token, uint256 amount) external onlyOwner {... */\n    tag_22:\n      tag_58\n      tag_114\n      calldatasize\n      0x04\n      tag_115\n      jump\t// in\n    tag_114:\n      tag_116\n      jump\t// in\n        /* \"ex/MGCPresell.sol\":28351:28384  IERC20 public immutable usdtToken */\n    tag_23:\n      tag_44\n      immutable(\"0xcddd0fa4bd275e5fc61cea7dddc2298d82a0b9ffe073ad0f09dc27e98fbc8dde\")\n      dup2\n      jump\n        /* \"ex/MGCPresell.sol\":33038:33126  function setPriceStep(uint256 step) public onlyOwner {... */\n    tag_24:\n      tag_58\n      tag_121\n      calldatasize\n      0x04\n      tag_54\n      jump\t// in\n    tag_121:\n      tag_122\n      jump\t// in\n        /* \"ex/MGCPresell.sol\":27807:27880  address public pancakeRoute2 = 0x10ED43C718714eb63d5aA57B78B54704E256024E */\n    tag_25:\n      sload(0x05)\n      tag_44\n      swap1\n      sub(shl(0xa0, 0x01), 0x01)\n      and\n      dup2\n      jump\n        /* \"ex/MGCPresell.sol\":30824:30911  function getStartTime() public view returns (uint256) {... */\n    tag_26:\n        /* \"ex/MGCPresell.sol\":30896:30903  startAt */\n      sload(0x07)\n        /* \"ex/MGCPresell.sol\":30824:30911  function getStartTime() public view returns (uint256) {... */\n      jump(tag_52)\n        /* \"ex/MGCPresell.sol\":32360:32803  function withdrawPresellTokens() public {... */\n    tag_27:\n      tag_58\n      tag_130\n      jump\t// in\n        /* \"ex/MGCPresell.sol\":31327:32352  function buyTokens() public {... */\n    tag_28:\n      tag_58\n      tag_132\n      jump\t// in\n        /* \"ex/MGCPresell.sol\":30475:30561  function getPresellMax() public view returns (uint32) {... */\n    tag_29:\n        /* \"ex/MGCPresell.sol\":30547:30553  preMax */\n      sload(0x0c)\n      shl(0x40, 0x01)\n      swap1\n      div\n      0xffffffff\n      and\n        /* \"ex/MGCPresell.sol\":30475:30561  function getPresellMax() public view returns (uint32) {... */\n      mload(0x40)\n        /* \"#utility.yul\":2009:2019   */\n      0xffffffff\n        /* \"#utility.yul\":1997:2020   */\n      swap1\n      swap2\n      and\n        /* \"#utility.yul\":1979:2021   */\n      dup2\n      mstore\n        /* \"#utility.yul\":1967:1969   */\n      0x20\n        /* \"#utility.yul\":1952:1970   */\n      add\n        /* \"ex/MGCPresell.sol\":30475:30561  function getPresellMax() public view returns (uint32) {... */\n      tag_46\n        /* \"#utility.yul\":1835:2027   */\n      jump\n        /* \"ex/MGCPresell.sol\":27556:27630  address public mscMintAddress = 0xeacAd6c99965cDE0f31513dd72DE79FA24610767 */\n    tag_30:\n      sload(0x02)\n      tag_44\n      swap1\n      sub(shl(0xa0, 0x01), 0x01)\n      and\n      dup2\n      jump\n        /* \"ex/MGCPresell.sol\":33289:33404  function emergencyWithdraw() external onlyOwner {... */\n    tag_31:\n      tag_58\n      tag_141\n      jump\t// in\n        /* \"ex/MGCPresell.sol\":31120:31211  function getPreSellCounter() public view returns (uint64) {... */\n    tag_32:\n        /* \"ex/MGCPresell.sol\":31196:31203  counter */\n      and(0xffffffff, sload(0x0c))\n        /* \"ex/MGCPresell.sol\":31120:31211  function getPreSellCounter() public view returns (uint64) {... */\n      jump(tag_48)\n        /* \"ex/MGCPresell.sol\":10820:11021  function transferOwnership(address newOwner) public virtual onlyOwner {... */\n    tag_33:\n      tag_58\n      tag_146\n      calldatasize\n      0x04\n      tag_63\n      jump\t// in\n    tag_146:\n      tag_147\n      jump\t// in\n        /* \"ex/MGCPresell.sol\":32811:32919  function setMarketAddress(address newAddress) public onlyOwner {... */\n    tag_34:\n      tag_58\n      tag_149\n      calldatasize\n      0x04\n      tag_63\n      jump\t// in\n    tag_149:\n      tag_150\n      jump\t// in\n        /* \"ex/MGCPresell.sol\":30012:30369  function getPresellMscAndUsdtAmount() public view returns (uint256, uint256) {... */\n    tag_35:\n      tag_151\n      tag_152\n      jump\t// in\n    tag_151:\n      0x40\n      dup1\n      mload\n        /* \"#utility.yul\":2206:2231   */\n      swap3\n      dup4\n      mstore\n        /* \"#utility.yul\":2262:2264   */\n      0x20\n        /* \"#utility.yul\":2247:2265   */\n      dup4\n      add\n        /* \"#utility.yul\":2240:2274   */\n      swap2\n      swap1\n      swap2\n      mstore\n        /* \"#utility.yul\":2179:2197   */\n      add\n        /* \"ex/MGCPresell.sol\":30012:30369  function getPresellMscAndUsdtAmount() public view returns (uint256, uint256) {... */\n      tag_46\n        /* \"#utility.yul\":2032:2280   */\n      jump\n        /* \"ex/MGCPresell.sol\":28391:28423  IERC20 public immutable mscToken */\n    tag_36:\n      tag_44\n      immutable(\"0xa786fb5285bfc320b201f383e2c5a351bf46b5f0a8ea36548fe95ec2c0cb0489\")\n      dup2\n      jump\n        /* \"ex/MGCPresell.sol\":29511:29842  function getMscPrice(uint256 mscAmountIn) public view returns (uint256) {... */\n    tag_55:\n        /* \"ex/MGCPresell.sol\":29618:29634  new address[](2) */\n      0x40\n      dup1\n      mload\n        /* \"ex/MGCPresell.sol\":29632:29633  2 */\n      0x02\n        /* \"ex/MGCPresell.sol\":29618:29634  new address[](2) */\n      dup1\n      dup3\n      mstore\n      0x60\n      dup3\n      add\n      dup4\n      mstore\n        /* \"ex/MGCPresell.sol\":29574:29581  uint256 */\n      0x00\n      swap3\n      dup4\n      swap3\n        /* \"ex/MGCPresell.sol\":29618:29634  new address[](2) */\n      swap2\n        /* \"ex/MGCPresell.sol\":29632:29633  2 */\n      swap1\n        /* \"ex/MGCPresell.sol\":29618:29634  new address[](2) */\n      0x20\n      dup4\n      add\n      swap1\n      dup1\n      calldatasize\n      dup4\n      calldatacopy\n      pop\n      pop\n        /* \"ex/MGCPresell.sol\":29655:29669  mscMintAddress */\n      sload(0x02)\n        /* \"ex/MGCPresell.sol\":29645:29652  path[0] */\n      dup3\n      mload\n      swap3\n      swap4\n      pop\n      sub(shl(0xa0, 0x01), 0x01)\n        /* \"ex/MGCPresell.sol\":29655:29669  mscMintAddress */\n      and\n      swap2\n        /* \"ex/MGCPresell.sol\":29645:29652  path[0] */\n      dup4\n      swap2\n      pop\n        /* \"ex/MGCPresell.sol\":29655:29669  mscMintAddress */\n      0x00\n      swap1\n        /* \"ex/MGCPresell.sol\":29645:29652  path[0] */\n      tag_165\n      jumpi\n      tag_165\n      tag_166\n      jump\t// in\n    tag_165:\n      sub(shl(0xa0, 0x01), 0x01)\n        /* \"ex/MGCPresell.sol\":29645:29669  path[0] = mscMintAddress */\n      swap3\n      dup4\n      and\n        /* \"ex/MGCPresell.sol\":29645:29652  path[0] */\n      0x20\n      swap2\n      dup3\n      mul\n      swap3\n      swap1\n      swap3\n      add\n      add\n        /* \"ex/MGCPresell.sol\":29645:29669  path[0] = mscMintAddress */\n      mstore\n        /* \"ex/MGCPresell.sol\":29690:29705  usdtMintAddress */\n      0x01\n      dup1\n      sload\n        /* \"ex/MGCPresell.sol\":29680:29687  path[1] */\n      dup4\n      mload\n        /* \"ex/MGCPresell.sol\":29690:29705  usdtMintAddress */\n      swap3\n      and\n      swap2\n        /* \"ex/MGCPresell.sol\":29680:29684  path */\n      dup4\n      swap2\n        /* \"ex/MGCPresell.sol\":29690:29705  usdtMintAddress */\n      swap1\n        /* \"ex/MGCPresell.sol\":29680:29687  path[1] */\n      dup2\n      lt\n      tag_168\n      jumpi\n      tag_168\n      tag_166\n      jump\t// in\n    tag_168:\n      sub(shl(0xa0, 0x01), 0x01)\n        /* \"ex/MGCPresell.sol\":29680:29705  path[1] = usdtMintAddress */\n      swap3\n      dup4\n      and\n        /* \"ex/MGCPresell.sol\":29680:29687  path[1] */\n      0x20\n      swap2\n      dup3\n      mul\n      swap3\n      swap1\n      swap3\n      add\n      add\n        /* \"ex/MGCPresell.sol\":29680:29705  path[1] = usdtMintAddress */\n      mstore\n        /* \"ex/MGCPresell.sol\":29759:29772  pancakeRoute2 */\n      sload(0x05)\n        /* \"ex/MGCPresell.sol\":29740:29806  IUniswapV2Router02(pancakeRoute2).getAmountsOut(mscAmountIn, path) */\n      mload(0x40)\n      shl(0xe0, 0xd06ca61f)\n      dup2\n      mstore\n        /* \"ex/MGCPresell.sol\":29716:29737  uint[] memory amounts */\n      0x00\n      swap3\n        /* \"ex/MGCPresell.sol\":29759:29772  pancakeRoute2 */\n      swap2\n      swap1\n      swap2\n      and\n      swap1\n        /* \"ex/MGCPresell.sol\":29740:29787  IUniswapV2Router02(pancakeRoute2).getAmountsOut */\n      0xd06ca61f\n      swap1\n        /* \"ex/MGCPresell.sol\":29740:29806  IUniswapV2Router02(pancakeRoute2).getAmountsOut(mscAmountIn, path) */\n      tag_169\n      swap1\n        /* \"ex/MGCPresell.sol\":29788:29799  mscAmountIn */\n      dup8\n      swap1\n        /* \"ex/MGCPresell.sol\":29801:29805  path */\n      dup7\n      swap1\n        /* \"ex/MGCPresell.sol\":29740:29806  IUniswapV2Router02(pancakeRoute2).getAmountsOut(mscAmountIn, path) */\n      0x04\n      add\n      tag_170\n      jump\t// in\n    tag_169:\n      0x00\n      mload(0x40)\n      dup1\n      dup4\n      sub\n      dup2\n      dup7\n      gas\n      staticcall\n      iszero\n      dup1\n      iszero\n      tag_172\n      jumpi\n      returndatasize\n      0x00\n      dup1\n      returndatacopy\n      revert(0x00, returndatasize)\n    tag_172:\n      pop\n      pop\n      pop\n      pop\n      mload(0x40)\n      returndatasize\n      0x00\n      dup3\n      returndatacopy\n      0x1f\n      returndatasize\n      swap1\n      dup2\n      add\n      not(0x1f)\n      and\n      dup3\n      add\n      0x40\n      mstore\n      tag_173\n      swap2\n      swap1\n      dup2\n      add\n      swap1\n      tag_174\n      jump\t// in\n    tag_173:\n        /* \"ex/MGCPresell.sol\":29716:29806  uint[] memory amounts = IUniswapV2Router02(pancakeRoute2).getAmountsOut(mscAmountIn, path) */\n      swap1\n      pop\n        /* \"ex/MGCPresell.sol\":29824:29831  amounts */\n      dup1\n        /* \"ex/MGCPresell.sol\":29832:29833  1 */\n      0x01\n        /* \"ex/MGCPresell.sol\":29824:29834  amounts[1] */\n      dup2\n      mload\n      dup2\n      lt\n      tag_176\n      jumpi\n      tag_176\n      tag_166\n      jump\t// in\n    tag_176:\n      0x20\n      mul\n      0x20\n      add\n      add\n      mload\n        /* \"ex/MGCPresell.sol\":29817:29834  return amounts[1] */\n      swap3\n      pop\n      pop\n      pop\n        /* \"ex/MGCPresell.sol\":29511:29842  function getMscPrice(uint256 mscAmountIn) public view returns (uint256) {... */\n      swap2\n      swap1\n      pop\n      jump\t// out\n        /* \"ex/MGCPresell.sol\":32931:33030  function setBaseAmount(uint256 newAmount) public onlyOwner {... */\n    tag_60:\n        /* \"ex/MGCPresell.sol\":9957:9964  address */\n      0x00\n        /* \"ex/MGCPresell.sol\":9984:9990  _owner */\n      sload\n      sub(shl(0xa0, 0x01), 0x01)\n      and\n        /* \"ex/MGCPresell.sol\":9365:9375  msg.sender */\n      caller\n        /* \"ex/MGCPresell.sol\":10131:10154  owner() == _msgSender() */\n      eq\n        /* \"ex/MGCPresell.sol\":10123:10191  require(owner() == _msgSender(), \"Ownable: caller is not the owner\") */\n      tag_181\n      jumpi\n      mload(0x40)\n      shl(0xe5, 0x461bcd)\n      dup2\n      mstore\n      0x04\n      add\n      tag_182\n      swap1\n      tag_183\n      jump\t// in\n    tag_182:\n      mload(0x40)\n      dup1\n      swap2\n      sub\n      swap1\n      revert\n    tag_181:\n        /* \"ex/MGCPresell.sol\":33001:33010  baseMoney */\n      0x0b\n        /* \"ex/MGCPresell.sol\":33001:33022  baseMoney = newAmount */\n      sstore\n        /* \"ex/MGCPresell.sol\":32931:33030  function setBaseAmount(uint256 newAmount) public onlyOwner {... */\n      jump\t// out\n        /* \"ex/MGCPresell.sol\":29166:29503  function getMscAmountOut(uint256 usdtAmountIn) public view returns (uint256) {... */\n    tag_69:\n        /* \"ex/MGCPresell.sol\":29278:29294  new address[](2) */\n      0x40\n      dup1\n      mload\n        /* \"ex/MGCPresell.sol\":29292:29293  2 */\n      0x02\n        /* \"ex/MGCPresell.sol\":29278:29294  new address[](2) */\n      dup1\n      dup3\n      mstore\n      0x60\n      dup3\n      add\n      dup4\n      mstore\n        /* \"ex/MGCPresell.sol\":29234:29241  uint256 */\n      0x00\n      swap3\n      dup4\n      swap3\n        /* \"ex/MGCPresell.sol\":29278:29294  new address[](2) */\n      swap2\n        /* \"ex/MGCPresell.sol\":29292:29293  2 */\n      swap1\n        /* \"ex/MGCPresell.sol\":29278:29294  new address[](2) */\n      0x20\n      dup4\n      add\n      swap1\n      dup1\n      calldatasize\n      dup4\n      calldatacopy\n      pop\n      pop\n        /* \"ex/MGCPresell.sol\":29315:29330  usdtMintAddress */\n      sload(0x01)\n        /* \"ex/MGCPresell.sol\":29305:29312  path[0] */\n      dup3\n      mload\n      swap3\n      swap4\n      pop\n      sub(shl(0xa0, 0x01), 0x01)\n        /* \"ex/MGCPresell.sol\":29315:29330  usdtMintAddress */\n      and\n      swap2\n        /* \"ex/MGCPresell.sol\":29305:29312  path[0] */\n      dup4\n      swap2\n      pop\n        /* \"ex/MGCPresell.sol\":29315:29330  usdtMintAddress */\n      0x00\n      swap1\n        /* \"ex/MGCPresell.sol\":29305:29312  path[0] */\n      tag_191\n      jumpi\n      tag_191\n      tag_166\n      jump\t// in\n    tag_191:\n      sub(shl(0xa0, 0x01), 0x01)\n        /* \"ex/MGCPresell.sol\":29305:29330  path[0] = usdtMintAddress */\n      swap3\n      dup4\n      and\n        /* \"ex/MGCPresell.sol\":29305:29312  path[0] */\n      0x20\n      swap2\n      dup3\n      mul\n      swap3\n      swap1\n      swap3\n      add\n      add\n        /* \"ex/MGCPresell.sol\":29305:29330  path[0] = usdtMintAddress */\n      mstore\n        /* \"ex/MGCPresell.sol\":29351:29365  mscMintAddress */\n      sload(0x02)\n        /* \"ex/MGCPresell.sol\":29341:29348  path[1] */\n      dup3\n      mload\n        /* \"ex/MGCPresell.sol\":29351:29365  mscMintAddress */\n      swap2\n      and\n      swap1\n        /* \"ex/MGCPresell.sol\":29341:29345  path */\n      dup3\n      swap1\n        /* \"ex/MGCPresell.sol\":29351:29365  mscMintAddress */\n      0x01\n      swap1\n        /* \"ex/MGCPresell.sol\":29341:29348  path[1] */\n      dup2\n      lt\n      tag_168\n      jumpi\n      tag_168\n      tag_166\n      jump\t// in\n        /* \"ex/MGCPresell.sol\":33134:33220  function setTimeStep(uint256 step) public onlyOwner {... */\n    tag_80:\n        /* \"ex/MGCPresell.sol\":9957:9964  address */\n      0x00\n        /* \"ex/MGCPresell.sol\":9984:9990  _owner */\n      sload\n      sub(shl(0xa0, 0x01), 0x01)\n      and\n        /* \"ex/MGCPresell.sol\":9365:9375  msg.sender */\n      caller\n        /* \"ex/MGCPresell.sol\":10131:10154  owner() == _msgSender() */\n      eq\n        /* \"ex/MGCPresell.sol\":10123:10191  require(owner() == _msgSender(), \"Ownable: caller is not the owner\") */\n      tag_204\n      jumpi\n      mload(0x40)\n      shl(0xe5, 0x461bcd)\n      dup2\n      mstore\n      0x04\n      add\n      tag_182\n      swap1\n      tag_183\n      jump\t// in\n    tag_204:\n        /* \"ex/MGCPresell.sol\":33197:33205  timeStep */\n      0x09\n        /* \"ex/MGCPresell.sol\":33197:33212  timeStep = step */\n      sstore\n        /* \"ex/MGCPresell.sol\":33134:33220  function setTimeStep(uint256 step) public onlyOwner {... */\n      jump\t// out\n        /* \"ex/MGCPresell.sol\":10562:10665  function renounceOwnership() public virtual onlyOwner {... */\n    tag_85:\n        /* \"ex/MGCPresell.sol\":9957:9964  address */\n      0x00\n        /* \"ex/MGCPresell.sol\":9984:9990  _owner */\n      sload\n      sub(shl(0xa0, 0x01), 0x01)\n      and\n        /* \"ex/MGCPresell.sol\":9365:9375  msg.sender */\n      caller\n        /* \"ex/MGCPresell.sol\":10131:10154  owner() == _msgSender() */\n      eq\n        /* \"ex/MGCPresell.sol\":10123:10191  require(owner() == _msgSender(), \"Ownable: caller is not the owner\") */\n      tag_211\n      jumpi\n      mload(0x40)\n      shl(0xe5, 0x461bcd)\n      dup2\n      mstore\n      0x04\n      add\n      tag_182\n      swap1\n      tag_183\n      jump\t// in\n    tag_211:\n        /* \"ex/MGCPresell.sol\":10627:10657  _transferOwnership(address(0)) */\n      tag_214\n        /* \"ex/MGCPresell.sol\":10654:10655  0 */\n      0x00\n        /* \"ex/MGCPresell.sol\":10627:10645  _transferOwnership */\n      tag_215\n        /* \"ex/MGCPresell.sol\":10627:10657  _transferOwnership(address(0)) */\n      jump\t// in\n    tag_214:\n        /* \"ex/MGCPresell.sol\":10562:10665  function renounceOwnership() public virtual onlyOwner {... */\n      jump\t// out\n        /* \"ex/MGCPresell.sol\":29850:30000  function getStep() public view returns (uint256) {... */\n    tag_111:\n        /* \"ex/MGCPresell.sol\":29890:29897  uint256 */\n      0x00\n        /* \"ex/MGCPresell.sol\":29910:29922  uint curtime */\n      dup1\n        /* \"ex/MGCPresell.sol\":29925:29940  block.timestamp */\n      timestamp\n        /* \"ex/MGCPresell.sol\":29910:29940  uint curtime = block.timestamp */\n      swap1\n      pop\n        /* \"ex/MGCPresell.sol\":29958:29992  curtime.sub(startAt).div(timeStep) */\n      tag_220\n        /* \"ex/MGCPresell.sol\":29983:29991  timeStep */\n      sload(0x09)\n        /* \"ex/MGCPresell.sol\":29958:29978  curtime.sub(startAt) */\n      tag_221\n        /* \"ex/MGCPresell.sol\":29970:29977  startAt */\n      sload(0x07)\n        /* \"ex/MGCPresell.sol\":29958:29965  curtime */\n      dup5\n        /* \"ex/MGCPresell.sol\":29958:29969  curtime.sub */\n      tag_222\n      swap1\n        /* \"ex/MGCPresell.sol\":29958:29978  curtime.sub(startAt) */\n      swap2\n      swap1\n      0xffffffff\n      and\n      jump\t// in\n    tag_221:\n        /* \"ex/MGCPresell.sol\":29958:29982  curtime.sub(startAt).div */\n      swap1\n      tag_223\n        /* \"ex/MGCPresell.sol\":29958:29992  curtime.sub(startAt).div(timeStep) */\n      jump\t// in\n    tag_220:\n        /* \"ex/MGCPresell.sol\":29951:29992  return curtime.sub(startAt).div(timeStep) */\n      swap2\n      pop\n      pop\n        /* \"ex/MGCPresell.sol\":29850:30000  function getStep() public view returns (uint256) {... */\n      swap1\n      jump\t// out\n        /* \"ex/MGCPresell.sol\":33412:33555  function emergencyWithdrawToken(address token, uint256 amount) external onlyOwner {... */\n    tag_116:\n        /* \"ex/MGCPresell.sol\":9957:9964  address */\n      0x00\n        /* \"ex/MGCPresell.sol\":9984:9990  _owner */\n      sload\n      sub(shl(0xa0, 0x01), 0x01)\n      and\n        /* \"ex/MGCPresell.sol\":9365:9375  msg.sender */\n      caller\n        /* \"ex/MGCPresell.sol\":10131:10154  owner() == _msgSender() */\n      eq\n        /* \"ex/MGCPresell.sol\":10123:10191  require(owner() == _msgSender(), \"Ownable: caller is not the owner\") */\n      tag_227\n      jumpi\n      mload(0x40)\n      shl(0xe5, 0x461bcd)\n      dup2\n      mstore\n      0x04\n      add\n      tag_182\n      swap1\n      tag_183\n      jump\t// in\n    tag_227:\n        /* \"ex/MGCPresell.sol\":33505:33547  IERC20(token).transfer(msg.sender, amount) */\n      mload(0x40)\n      shl(0xe0, 0xa9059cbb)\n      dup2\n      mstore\n        /* \"ex/MGCPresell.sol\":33528:33538  msg.sender */\n      caller\n        /* \"ex/MGCPresell.sol\":33505:33547  IERC20(token).transfer(msg.sender, amount) */\n      0x04\n      dup3\n      add\n        /* \"#utility.yul\":4928:4979   */\n      mstore\n        /* \"#utility.yul\":4995:5013   */\n      0x24\n      dup2\n      add\n        /* \"#utility.yul\":4988:5022   */\n      dup3\n      swap1\n      mstore\n      sub(shl(0xa0, 0x01), 0x01)\n        /* \"ex/MGCPresell.sol\":33505:33527  IERC20(token).transfer */\n      dup4\n      and\n      swap1\n      0xa9059cbb\n      swap1\n        /* \"#utility.yul\":4901:4919   */\n      0x44\n      add\n        /* \"ex/MGCPresell.sol\":33505:33547  IERC20(token).transfer(msg.sender, amount) */\n      0x20\n      mload(0x40)\n      dup1\n      dup4\n      sub\n      dup2\n      0x00\n      dup8\n      gas\n      call\n      iszero\n      dup1\n      iszero\n      tag_233\n      jumpi\n      returndatasize\n      0x00\n      dup1\n      returndatacopy\n      revert(0x00, returndatasize)\n    tag_233:\n      pop\n      pop\n      pop\n      pop\n      mload(0x40)\n      returndatasize\n      not(0x1f)\n      0x1f\n      dup3\n      add\n      and\n      dup3\n      add\n      dup1\n      0x40\n      mstore\n      pop\n      dup2\n      add\n      swap1\n      tag_234\n      swap2\n      swap1\n      tag_235\n      jump\t// in\n    tag_234:\n      pop\n        /* \"ex/MGCPresell.sol\":33412:33555  function emergencyWithdrawToken(address token, uint256 amount) external onlyOwner {... */\n      pop\n      pop\n      jump\t// out\n        /* \"ex/MGCPresell.sol\":33038:33126  function setPriceStep(uint256 step) public onlyOwner {... */\n    tag_122:\n        /* \"ex/MGCPresell.sol\":9957:9964  address */\n      0x00\n        /* \"ex/MGCPresell.sol\":9984:9990  _owner */\n      sload\n      sub(shl(0xa0, 0x01), 0x01)\n      and\n        /* \"ex/MGCPresell.sol\":9365:9375  msg.sender */\n      caller\n        /* \"ex/MGCPresell.sol\":10131:10154  owner() == _msgSender() */\n      eq\n        /* \"ex/MGCPresell.sol\":10123:10191  require(owner() == _msgSender(), \"Ownable: caller is not the owner\") */\n      tag_239\n      jumpi\n      mload(0x40)\n      shl(0xe5, 0x461bcd)\n      dup2\n      mstore\n      0x04\n      add\n      tag_182\n      swap1\n      tag_183\n      jump\t// in\n    tag_239:\n        /* \"ex/MGCPresell.sol\":33102:33111  priceStep */\n      0x0a\n        /* \"ex/MGCPresell.sol\":33102:33118  priceStep = step */\n      sstore\n        /* \"ex/MGCPresell.sol\":33038:33126  function setPriceStep(uint256 step) public onlyOwner {... */\n      jump\t// out\n        /* \"ex/MGCPresell.sol\":32360:32803  function withdrawPresellTokens() public {... */\n    tag_130:\n        /* \"ex/MGCPresell.sol\":32427:32442  block.timestamp */\n      timestamp\n        /* \"ex/MGCPresell.sol\":32419:32424  endAt */\n      sload(0x08)\n        /* \"ex/MGCPresell.sol\":32419:32442  endAt < block.timestamp */\n      lt\n        /* \"ex/MGCPresell.sol\":32411:32462  require(endAt < block.timestamp, \"presell not end\") */\n      tag_244\n      jumpi\n      mload(0x40)\n      shl(0xe5, 0x461bcd)\n      dup2\n      mstore\n        /* \"#utility.yul\":5517:5519   */\n      0x20\n        /* \"ex/MGCPresell.sol\":32411:32462  require(endAt < block.timestamp, \"presell not end\") */\n      0x04\n      dup3\n      add\n        /* \"#utility.yul\":5499:5520   */\n      mstore\n        /* \"#utility.yul\":5556:5558   */\n      0x0f\n        /* \"#utility.yul\":5536:5554   */\n      0x24\n      dup3\n      add\n        /* \"#utility.yul\":5529:5559   */\n      mstore\n      shl(0x8a, 0x1c1c995cd95b1b081b9bdd08195b99)\n        /* \"#utility.yul\":5575:5593   */\n      0x44\n      dup3\n      add\n        /* \"#utility.yul\":5568:5613   */\n      mstore\n        /* \"#utility.yul\":5630:5648   */\n      0x64\n      add\n        /* \"ex/MGCPresell.sol\":32411:32462  require(endAt < block.timestamp, \"presell not end\") */\n      tag_182\n        /* \"#utility.yul\":5315:5654   */\n      jump\n        /* \"ex/MGCPresell.sol\":32411:32462  require(endAt < block.timestamp, \"presell not end\") */\n    tag_244:\n        /* \"ex/MGCPresell.sol\":32505:32515  msg.sender */\n      caller\n        /* \"ex/MGCPresell.sol\":32519:32520  0 */\n      0x00\n        /* \"ex/MGCPresell.sol\":32483:32516  userPresellBalanceMap[msg.sender] */\n      swap1\n      dup2\n      mstore\n        /* \"ex/MGCPresell.sol\":32483:32504  userPresellBalanceMap */\n      0x0d\n        /* \"ex/MGCPresell.sol\":32483:32516  userPresellBalanceMap[msg.sender] */\n      0x20\n      mstore\n      0x40\n      swap1\n      keccak256\n      sload\n        /* \"ex/MGCPresell.sol\":32475:32542  require(userPresellBalanceMap[msg.sender] > 0, 'user balance zero') */\n      tag_247\n      jumpi\n      mload(0x40)\n      shl(0xe5, 0x461bcd)\n      dup2\n      mstore\n        /* \"#utility.yul\":5861:5863   */\n      0x20\n        /* \"ex/MGCPresell.sol\":32475:32542  require(userPresellBalanceMap[msg.sender] > 0, 'user balance zero') */\n      0x04\n      dup3\n      add\n        /* \"#utility.yul\":5843:5864   */\n      mstore\n        /* \"#utility.yul\":5900:5902   */\n      0x11\n        /* \"#utility.yul\":5880:5898   */\n      0x24\n      dup3\n      add\n        /* \"#utility.yul\":5873:5903   */\n      mstore\n      shl(0x78, 0x757365722062616c616e6365207a65726f)\n        /* \"#utility.yul\":5919:5937   */\n      0x44\n      dup3\n      add\n        /* \"#utility.yul\":5912:5959   */\n      mstore\n        /* \"#utility.yul\":5976:5994   */\n      0x64\n      add\n        /* \"ex/MGCPresell.sol\":32475:32542  require(userPresellBalanceMap[msg.sender] > 0, 'user balance zero') */\n      tag_182\n        /* \"#utility.yul\":5659:6000   */\n      jump\n        /* \"ex/MGCPresell.sol\":32475:32542  require(userPresellBalanceMap[msg.sender] > 0, 'user balance zero') */\n    tag_247:\n        /* \"ex/MGCPresell.sol\":32586:32596  msg.sender */\n      caller\n        /* \"ex/MGCPresell.sol\":32555:32564  bool sent */\n      0x00\n        /* \"ex/MGCPresell.sol\":32598:32631  userPresellBalanceMap[msg.sender] */\n      dup2\n      dup2\n      mstore\n        /* \"ex/MGCPresell.sol\":32598:32619  userPresellBalanceMap */\n      0x0d\n        /* \"ex/MGCPresell.sol\":32598:32631  userPresellBalanceMap[msg.sender] */\n      0x20\n      mstore\n      0x40\n      dup1\n      dup3\n      keccak256\n      sload\n        /* \"ex/MGCPresell.sol\":32567:32632  sellToken.transfer(msg.sender, userPresellBalanceMap[msg.sender]) */\n      swap1\n      mload\n      shl(0xe0, 0xa9059cbb)\n      dup2\n      mstore\n      0x04\n      dup2\n      add\n        /* \"#utility.yul\":4928:4979   */\n      swap4\n      swap1\n      swap4\n      mstore\n        /* \"#utility.yul\":4995:5013   */\n      0x24\n      dup4\n      add\n        /* \"#utility.yul\":4988:5022   */\n      mstore\n        /* \"ex/MGCPresell.sol\":32555:32564  bool sent */\n      swap1\n        /* \"ex/MGCPresell.sol\":32567:32576  sellToken */\n      immutable(\"0x2130ac36a559fb8e580bc0b18328dc150d1ee7862597c2c927dd0615f7465659\")\n      sub(shl(0xa0, 0x01), 0x01)\n        /* \"ex/MGCPresell.sol\":32567:32585  sellToken.transfer */\n      and\n      swap1\n      0xa9059cbb\n      swap1\n        /* \"#utility.yul\":4901:4919   */\n      0x44\n      add\n        /* \"ex/MGCPresell.sol\":32567:32632  sellToken.transfer(msg.sender, userPresellBalanceMap[msg.sender]) */\n      0x20\n      mload(0x40)\n      dup1\n      dup4\n      sub\n      dup2\n      0x00\n      dup8\n      gas\n      call\n      iszero\n      dup1\n      iszero\n      tag_252\n      jumpi\n      returndatasize\n      0x00\n      dup1\n      returndatacopy\n      revert(0x00, returndatasize)\n    tag_252:\n      pop\n      pop\n      pop\n      pop\n      mload(0x40)\n      returndatasize\n      not(0x1f)\n      0x1f\n      dup3\n      add\n      and\n      dup3\n      add\n      dup1\n      0x40\n      mstore\n      pop\n      dup2\n      add\n      swap1\n      tag_253\n      swap2\n      swap1\n      tag_235\n      jump\t// in\n    tag_253:\n        /* \"ex/MGCPresell.sol\":32555:32632  bool sent = sellToken.transfer(msg.sender, userPresellBalanceMap[msg.sender]) */\n      swap1\n      pop\n        /* \"ex/MGCPresell.sol\":32651:32655  sent */\n      dup1\n        /* \"ex/MGCPresell.sol\":32643:32681  require(sent, \"Token transfer failed\") */\n      tag_254\n      jumpi\n      mload(0x40)\n      shl(0xe5, 0x461bcd)\n      dup2\n      mstore\n        /* \"#utility.yul\":6207:6209   */\n      0x20\n        /* \"ex/MGCPresell.sol\":32643:32681  require(sent, \"Token transfer failed\") */\n      0x04\n      dup3\n      add\n        /* \"#utility.yul\":6189:6210   */\n      mstore\n        /* \"#utility.yul\":6246:6248   */\n      0x15\n        /* \"#utility.yul\":6226:6244   */\n      0x24\n      dup3\n      add\n        /* \"#utility.yul\":6219:6249   */\n      mstore\n      shl(0x5a, 0x151bdad95b881d1c985b9cd9995c8819985a5b1959)\n        /* \"#utility.yul\":6265:6283   */\n      0x44\n      dup3\n      add\n        /* \"#utility.yul\":6258:6309   */\n      mstore\n        /* \"#utility.yul\":6326:6344   */\n      0x64\n      add\n        /* \"ex/MGCPresell.sol\":32643:32681  require(sent, \"Token transfer failed\") */\n      tag_182\n        /* \"#utility.yul\":6005:6350   */\n      jump\n        /* \"ex/MGCPresell.sol\":32643:32681  require(sent, \"Token transfer failed\") */\n    tag_254:\n        /* \"ex/MGCPresell.sol\":32716:32726  msg.sender */\n      caller\n        /* \"ex/MGCPresell.sol\":32730:32731  0 */\n      0x00\n        /* \"ex/MGCPresell.sol\":32694:32727  userPresellBalanceMap[msg.sender] */\n      swap1\n      dup2\n      mstore\n        /* \"ex/MGCPresell.sol\":32694:32715  userPresellBalanceMap */\n      0x0d\n        /* \"ex/MGCPresell.sol\":32694:32727  userPresellBalanceMap[msg.sender] */\n      0x20\n      mstore\n      0x40\n      dup2\n      keccak256\n        /* \"ex/MGCPresell.sol\":32694:32731  userPresellBalanceMap[msg.sender] = 0 */\n      sstore\n        /* \"ex/MGCPresell.sol\":32742:32757  withdrawCounter */\n      0x0c\n        /* \"ex/MGCPresell.sol\":32742:32759  withdrawCounter++ */\n      dup1\n      sload\n      0x0100000000\n      swap1\n      div\n      0xffffffff\n      and\n      swap1\n        /* \"ex/MGCPresell.sol\":32742:32757  withdrawCounter */\n      0x04\n        /* \"ex/MGCPresell.sol\":32742:32759  withdrawCounter++ */\n      tag_257\n      dup4\n      tag_258\n      jump\t// in\n    tag_257:\n      swap2\n      swap1\n      0x0100\n      exp\n      dup2\n      sload\n      dup2\n      0xffffffff\n      mul\n      not\n      and\n      swap1\n      dup4\n      0xffffffff\n      and\n      mul\n      or\n      swap1\n      sstore\n      pop\n      pop\n        /* \"ex/MGCPresell.sol\":32784:32794  msg.sender */\n      caller\n      sub(shl(0xa0, 0x01), 0x01)\n        /* \"ex/MGCPresell.sol\":32775:32795  Withdraw(msg.sender) */\n      and\n      0xf67611512e0a2d90c96fd3f08dca4971bc45fba9dc679eabe839a32abbe58a8e\n      mload(0x40)\n      mload(0x40)\n      dup1\n      swap2\n      sub\n      swap1\n      log2\n        /* \"ex/MGCPresell.sol\":32400:32803  {... */\n      pop\n        /* \"ex/MGCPresell.sol\":32360:32803  function withdrawPresellTokens() public {... */\n      jump\t// out\n        /* \"ex/MGCPresell.sol\":31327:32352  function buyTokens() public {... */\n    tag_132:\n        /* \"ex/MGCPresell.sol\":31384:31399  block.timestamp */\n      timestamp\n        /* \"ex/MGCPresell.sol\":31374:31381  startAt */\n      sload(0x07)\n        /* \"ex/MGCPresell.sol\":31374:31399  startAt < block.timestamp */\n      lt\n        /* \"ex/MGCPresell.sol\":31366:31413  require(startAt < block.timestamp, \"not start\") */\n      tag_260\n      jumpi\n      mload(0x40)\n      shl(0xe5, 0x461bcd)\n      dup2\n      mstore\n        /* \"#utility.yul\":6895:6897   */\n      0x20\n        /* \"ex/MGCPresell.sol\":31366:31413  require(startAt < block.timestamp, \"not start\") */\n      0x04\n      dup3\n      add\n        /* \"#utility.yul\":6877:6898   */\n      mstore\n        /* \"#utility.yul\":6934:6935   */\n      0x09\n        /* \"#utility.yul\":6914:6932   */\n      0x24\n      dup3\n      add\n        /* \"#utility.yul\":6907:6936   */\n      mstore\n      shl(0xba, 0x1b9bdd081cdd185c9d)\n        /* \"#utility.yul\":6952:6970   */\n      0x44\n      dup3\n      add\n        /* \"#utility.yul\":6945:6984   */\n      mstore\n        /* \"#utility.yul\":7001:7019   */\n      0x64\n      add\n        /* \"ex/MGCPresell.sol\":31366:31413  require(startAt < block.timestamp, \"not start\") */\n      tag_182\n        /* \"#utility.yul\":6693:7025   */\n      jump\n        /* \"ex/MGCPresell.sol\":31366:31413  require(startAt < block.timestamp, \"not start\") */\n    tag_260:\n        /* \"ex/MGCPresell.sol\":31442:31457  block.timestamp */\n      timestamp\n        /* \"ex/MGCPresell.sol\":31434:31439  endAt */\n      sload(0x08)\n        /* \"ex/MGCPresell.sol\":31434:31457  endAt > block.timestamp */\n      gt\n        /* \"ex/MGCPresell.sol\":31426:31469  require(endAt > block.timestamp, \"has end\") */\n      tag_263\n      jumpi\n      mload(0x40)\n      shl(0xe5, 0x461bcd)\n      dup2\n      mstore\n        /* \"#utility.yul\":7232:7234   */\n      0x20\n        /* \"ex/MGCPresell.sol\":31426:31469  require(endAt > block.timestamp, \"has end\") */\n      0x04\n      dup3\n      add\n        /* \"#utility.yul\":7214:7235   */\n      mstore\n        /* \"#utility.yul\":7271:7272   */\n      0x07\n        /* \"#utility.yul\":7251:7269   */\n      0x24\n      dup3\n      add\n        /* \"#utility.yul\":7244:7273   */\n      mstore\n      shl(0xca, 0x1a185cc8195b99)\n        /* \"#utility.yul\":7289:7307   */\n      0x44\n      dup3\n      add\n        /* \"#utility.yul\":7282:7319   */\n      mstore\n        /* \"#utility.yul\":7336:7354   */\n      0x64\n      add\n        /* \"ex/MGCPresell.sol\":31426:31469  require(endAt > block.timestamp, \"has end\") */\n      tag_182\n        /* \"#utility.yul\":7030:7360   */\n      jump\n        /* \"ex/MGCPresell.sol\":31426:31469  require(endAt > block.timestamp, \"has end\") */\n    tag_263:\n        /* \"ex/MGCPresell.sol\":31501:31507  preMax */\n      sload(0x0c)\n      0xffffffff\n      shl(0x40, 0x01)\n      dup3\n      div\n      dup2\n      and\n        /* \"ex/MGCPresell.sol\":31490:31497  counter */\n      swap2\n      and\n        /* \"ex/MGCPresell.sol\":31490:31507  counter <= preMax */\n      gt\n      iszero\n        /* \"ex/MGCPresell.sol\":31482:31535  require(counter <= preMax, \"Pre-orders are sold out\") */\n      tag_266\n      jumpi\n      mload(0x40)\n      shl(0xe5, 0x461bcd)\n      dup2\n      mstore\n        /* \"#utility.yul\":7567:7569   */\n      0x20\n        /* \"ex/MGCPresell.sol\":31482:31535  require(counter <= preMax, \"Pre-orders are sold out\") */\n      0x04\n      dup3\n      add\n        /* \"#utility.yul\":7549:7570   */\n      mstore\n        /* \"#utility.yul\":7606:7608   */\n      0x17\n        /* \"#utility.yul\":7586:7604   */\n      0x24\n      dup3\n      add\n        /* \"#utility.yul\":7579:7609   */\n      mstore\n        /* \"#utility.yul\":7645:7670   */\n      0x5072652d6f72646572732061726520736f6c64206f7574000000000000000000\n        /* \"#utility.yul\":7625:7643   */\n      0x44\n      dup3\n      add\n        /* \"#utility.yul\":7618:7671   */\n      mstore\n        /* \"#utility.yul\":7688:7706   */\n      0x64\n      add\n        /* \"ex/MGCPresell.sol\":31482:31535  require(counter <= preMax, \"Pre-orders are sold out\") */\n      tag_182\n        /* \"#utility.yul\":7365:7712   */\n      jump\n        /* \"ex/MGCPresell.sol\":31482:31535  require(counter <= preMax, \"Pre-orders are sold out\") */\n    tag_266:\n        /* \"ex/MGCPresell.sol\":31564:31574  msg.sender */\n      caller\n        /* \"ex/MGCPresell.sol\":31557:31575  hasBuy[msg.sender] */\n      0x00\n      swap1\n      dup2\n      mstore\n        /* \"ex/MGCPresell.sol\":31557:31563  hasBuy */\n      0x0e\n        /* \"ex/MGCPresell.sol\":31557:31575  hasBuy[msg.sender] */\n      0x20\n      mstore\n      0x40\n      swap1\n      keccak256\n      sload\n      0xff\n      and\n        /* \"ex/MGCPresell.sol\":31556:31575  !hasBuy[msg.sender] */\n      iszero\n        /* \"ex/MGCPresell.sol\":31548:31596  require(!hasBuy[msg.sender],\"already purchased\") */\n      tag_269\n      jumpi\n      mload(0x40)\n      shl(0xe5, 0x461bcd)\n      dup2\n      mstore\n        /* \"#utility.yul\":7919:7921   */\n      0x20\n        /* \"ex/MGCPresell.sol\":31548:31596  require(!hasBuy[msg.sender],\"already purchased\") */\n      0x04\n      dup3\n      add\n        /* \"#utility.yul\":7901:7922   */\n      mstore\n        /* \"#utility.yul\":7958:7960   */\n      0x11\n        /* \"#utility.yul\":7938:7956   */\n      0x24\n      dup3\n      add\n        /* \"#utility.yul\":7931:7961   */\n      mstore\n      shl(0x7a, 0x185b1c9958591e481c1d5c98da185cd959)\n        /* \"#utility.yul\":7977:7995   */\n      0x44\n      dup3\n      add\n        /* \"#utility.yul\":7970:8017   */\n      mstore\n        /* \"#utility.yul\":8034:8052   */\n      0x64\n      add\n        /* \"ex/MGCPresell.sol\":31548:31596  require(!hasBuy[msg.sender],\"already purchased\") */\n      tag_182\n        /* \"#utility.yul\":7717:8058   */\n      jump\n        /* \"ex/MGCPresell.sol\":31548:31596  require(!hasBuy[msg.sender],\"already purchased\") */\n    tag_269:\n        /* \"ex/MGCPresell.sol\":31610:31627  uint256 mscAmount */\n      0x00\n        /* \"ex/MGCPresell.sol\":31629:31647  uint256 usdtAmount */\n      dup1\n        /* \"ex/MGCPresell.sol\":31651:31679  getPresellMscAndUsdtAmount() */\n      tag_272\n        /* \"ex/MGCPresell.sol\":31651:31677  getPresellMscAndUsdtAmount */\n      tag_152\n        /* \"ex/MGCPresell.sol\":31651:31679  getPresellMscAndUsdtAmount() */\n      jump\t// in\n    tag_272:\n        /* \"ex/MGCPresell.sol\":31700:31746  usdtToken.allowance(msg.sender, address(this)) */\n      mload(0x40)\n      shl(0xe1, 0x6eb1769f)\n      dup2\n      mstore\n        /* \"ex/MGCPresell.sol\":31720:31730  msg.sender */\n      caller\n        /* \"ex/MGCPresell.sol\":31700:31746  usdtToken.allowance(msg.sender, address(this)) */\n      0x04\n      dup3\n      add\n        /* \"#utility.yul\":8275:8309   */\n      mstore\n        /* \"ex/MGCPresell.sol\":31740:31744  this */\n      address\n        /* \"#utility.yul\":8325:8343   */\n      0x24\n      dup3\n      add\n        /* \"#utility.yul\":8318:8361   */\n      mstore\n        /* \"ex/MGCPresell.sol\":31609:31679  (uint256 mscAmount, uint256 usdtAmount) = getPresellMscAndUsdtAmount() */\n      swap2\n      swap4\n      pop\n      swap2\n      pop\n      dup2\n      swap1\n      sub(shl(0xa0, 0x01), 0x01)\n        /* \"ex/MGCPresell.sol\":31700:31709  usdtToken */\n      immutable(\"0xcddd0fa4bd275e5fc61cea7dddc2298d82a0b9ffe073ad0f09dc27e98fbc8dde\")\n        /* \"ex/MGCPresell.sol\":31700:31719  usdtToken.allowance */\n      and\n      swap1\n      0xdd62ed3e\n      swap1\n        /* \"#utility.yul\":8210:8228   */\n      0x44\n      add\n        /* \"ex/MGCPresell.sol\":31700:31746  usdtToken.allowance(msg.sender, address(this)) */\n      0x20\n      mload(0x40)\n      dup1\n      dup4\n      sub\n      dup2\n      dup7\n      gas\n      staticcall\n      iszero\n      dup1\n      iszero\n      tag_276\n      jumpi\n      returndatasize\n      0x00\n      dup1\n      returndatacopy\n      revert(0x00, returndatasize)\n    tag_276:\n      pop\n      pop\n      pop\n      pop\n      mload(0x40)\n      returndatasize\n      not(0x1f)\n      0x1f\n      dup3\n      add\n      and\n      dup3\n      add\n      dup1\n      0x40\n      mstore\n      pop\n      dup2\n      add\n      swap1\n      tag_277\n      swap2\n      swap1\n      tag_278\n      jump\t// in\n    tag_277:\n        /* \"ex/MGCPresell.sol\":31700:31760  usdtToken.allowance(msg.sender, address(this)) >= usdtAmount */\n      lt\n      iszero\n        /* \"ex/MGCPresell.sol\":31692:31792  require(usdtToken.allowance(msg.sender, address(this)) >= usdtAmount, \"usdtToken allowance too low\") */\n      tag_279\n      jumpi\n      mload(0x40)\n      shl(0xe5, 0x461bcd)\n      dup2\n      mstore\n        /* \"#utility.yul\":8763:8765   */\n      0x20\n        /* \"ex/MGCPresell.sol\":31692:31792  require(usdtToken.allowance(msg.sender, address(this)) >= usdtAmount, \"usdtToken allowance too low\") */\n      0x04\n      dup3\n      add\n        /* \"#utility.yul\":8745:8766   */\n      mstore\n        /* \"#utility.yul\":8802:8804   */\n      0x1b\n        /* \"#utility.yul\":8782:8800   */\n      0x24\n      dup3\n      add\n        /* \"#utility.yul\":8775:8805   */\n      mstore\n        /* \"#utility.yul\":8841:8870   */\n      0x75736474546f6b656e20616c6c6f77616e636520746f6f206c6f770000000000\n        /* \"#utility.yul\":8821:8839   */\n      0x44\n      dup3\n      add\n        /* \"#utility.yul\":8814:8871   */\n      mstore\n        /* \"#utility.yul\":8888:8906   */\n      0x64\n      add\n        /* \"ex/MGCPresell.sol\":31692:31792  require(usdtToken.allowance(msg.sender, address(this)) >= usdtAmount, \"usdtToken allowance too low\") */\n      tag_182\n        /* \"#utility.yul\":8561:8912   */\n      jump\n        /* \"ex/MGCPresell.sol\":31692:31792  require(usdtToken.allowance(msg.sender, address(this)) >= usdtAmount, \"usdtToken allowance too low\") */\n    tag_279:\n        /* \"ex/MGCPresell.sol\":31811:31856  mscToken.allowance(msg.sender, address(this)) */\n      mload(0x40)\n      shl(0xe1, 0x6eb1769f)\n      dup2\n      mstore\n        /* \"ex/MGCPresell.sol\":31830:31840  msg.sender */\n      caller\n        /* \"ex/MGCPresell.sol\":31811:31856  mscToken.allowance(msg.sender, address(this)) */\n      0x04\n      dup3\n      add\n        /* \"#utility.yul\":8275:8309   */\n      mstore\n        /* \"ex/MGCPresell.sol\":31850:31854  this */\n      address\n        /* \"#utility.yul\":8325:8343   */\n      0x24\n      dup3\n      add\n        /* \"#utility.yul\":8318:8361   */\n      mstore\n        /* \"ex/MGCPresell.sol\":31860:31869  mscAmount */\n      dup3\n      swap1\n        /* \"ex/MGCPresell.sol\":31811:31819  mscToken */\n      immutable(\"0xa786fb5285bfc320b201f383e2c5a351bf46b5f0a8ea36548fe95ec2c0cb0489\")\n      sub(shl(0xa0, 0x01), 0x01)\n        /* \"ex/MGCPresell.sol\":31811:31829  mscToken.allowance */\n      and\n      swap1\n      0xdd62ed3e\n      swap1\n        /* \"#utility.yul\":8210:8228   */\n      0x44\n      add\n        /* \"ex/MGCPresell.sol\":31811:31856  mscToken.allowance(msg.sender, address(this)) */\n      0x20\n      mload(0x40)\n      dup1\n      dup4\n      sub\n      dup2\n      dup7\n      gas\n      staticcall\n      iszero\n      dup1\n      iszero\n      tag_284\n      jumpi\n      returndatasize\n      0x00\n      dup1\n      returndatacopy\n      revert(0x00, returndatasize)\n    tag_284:\n      pop\n      pop\n      pop\n      pop\n      mload(0x40)\n      returndatasize\n      not(0x1f)\n      0x1f\n      dup3\n      add\n      and\n      dup3\n      add\n      dup1\n      0x40\n      mstore\n      pop\n      dup2\n      add\n      swap1\n      tag_285\n      swap2\n      swap1\n      tag_278\n      jump\t// in\n    tag_285:\n        /* \"ex/MGCPresell.sol\":31811:31869  mscToken.allowance(msg.sender, address(this)) >= mscAmount */\n      lt\n      iszero\n        /* \"ex/MGCPresell.sol\":31803:31900  require(mscToken.allowance(msg.sender, address(this)) >= mscAmount, \"mscToken allowance too low\") */\n      tag_286\n      jumpi\n      mload(0x40)\n      shl(0xe5, 0x461bcd)\n      dup2\n      mstore\n        /* \"#utility.yul\":9119:9121   */\n      0x20\n        /* \"ex/MGCPresell.sol\":31803:31900  require(mscToken.allowance(msg.sender, address(this)) >= mscAmount, \"mscToken allowance too low\") */\n      0x04\n      dup3\n      add\n        /* \"#utility.yul\":9101:9122   */\n      mstore\n        /* \"#utility.yul\":9158:9160   */\n      0x1a\n        /* \"#utility.yul\":9138:9156   */\n      0x24\n      dup3\n      add\n        /* \"#utility.yul\":9131:9161   */\n      mstore\n        /* \"#utility.yul\":9197:9225   */\n      0x6d7363546f6b656e20616c6c6f77616e636520746f6f206c6f77000000000000\n        /* \"#utility.yul\":9177:9195   */\n      0x44\n      dup3\n      add\n        /* \"#utility.yul\":9170:9226   */\n      mstore\n        /* \"#utility.yul\":9243:9261   */\n      0x64\n      add\n        /* \"ex/MGCPresell.sol\":31803:31900  require(mscToken.allowance(msg.sender, address(this)) >= mscAmount, \"mscToken allowance too low\") */\n      tag_182\n        /* \"#utility.yul\":8917:9267   */\n      jump\n        /* \"ex/MGCPresell.sol\":31803:31900  require(mscToken.allowance(msg.sender, address(this)) >= mscAmount, \"mscToken allowance too low\") */\n    tag_286:\n        /* \"ex/MGCPresell.sol\":31960:31973  marketAddress */\n      0x04\n      dup1\n      sload\n        /* \"ex/MGCPresell.sol\":31925:31986  usdtToken.transferFrom(msg.sender, marketAddress, usdtAmount) */\n      mload(0x40)\n      shl(0xe0, 0x23b872dd)\n      dup2\n      mstore\n        /* \"ex/MGCPresell.sol\":31948:31958  msg.sender */\n      caller\n        /* \"ex/MGCPresell.sol\":31925:31986  usdtToken.transferFrom(msg.sender, marketAddress, usdtAmount) */\n      swap3\n      dup2\n      add\n        /* \"#utility.yul\":9512:9546   */\n      swap3\n      swap1\n      swap3\n      mstore\n      sub(shl(0xa0, 0x01), 0x01)\n        /* \"ex/MGCPresell.sol\":31960:31973  marketAddress */\n      swap1\n      dup2\n      and\n        /* \"#utility.yul\":9562:9580   */\n      0x24\n      dup4\n      add\n        /* \"#utility.yul\":9555:9598   */\n      mstore\n        /* \"#utility.yul\":9614:9632   */\n      0x44\n      dup3\n      add\n        /* \"#utility.yul\":9607:9641   */\n      dup4\n      swap1\n      mstore\n        /* \"ex/MGCPresell.sol\":31913:31922  bool sent */\n      0x00\n      swap2\n        /* \"ex/MGCPresell.sol\":31925:31934  usdtToken */\n      immutable(\"0xcddd0fa4bd275e5fc61cea7dddc2298d82a0b9ffe073ad0f09dc27e98fbc8dde\")\n        /* \"ex/MGCPresell.sol\":31925:31947  usdtToken.transferFrom */\n      swap1\n      swap2\n      and\n      swap1\n      0x23b872dd\n      swap1\n        /* \"#utility.yul\":9447:9465   */\n      0x64\n      add\n        /* \"ex/MGCPresell.sol\":31925:31986  usdtToken.transferFrom(msg.sender, marketAddress, usdtAmount) */\n      0x20\n      mload(0x40)\n      dup1\n      dup4\n      sub\n      dup2\n      0x00\n      dup8\n      gas\n      call\n      iszero\n      dup1\n      iszero\n      tag_292\n      jumpi\n      returndatasize\n      0x00\n      dup1\n      returndatacopy\n      revert(0x00, returndatasize)\n    tag_292:\n      pop\n      pop\n      pop\n      pop\n      mload(0x40)\n      returndatasize\n      not(0x1f)\n      0x1f\n      dup3\n      add\n      and\n      dup3\n      add\n      dup1\n      0x40\n      mstore\n      pop\n      dup2\n      add\n      swap1\n      tag_293\n      swap2\n      swap1\n      tag_235\n      jump\t// in\n    tag_293:\n        /* \"ex/MGCPresell.sol\":31913:31986  bool sent = usdtToken.transferFrom(msg.sender, marketAddress, usdtAmount) */\n      swap1\n      pop\n        /* \"ex/MGCPresell.sol\":32005:32009  sent */\n      dup1\n        /* \"ex/MGCPresell.sol\":31997:32034  require(sent, \"Usdt transfer failed\") */\n      tag_294\n      jumpi\n      mload(0x40)\n      shl(0xe5, 0x461bcd)\n      dup2\n      mstore\n        /* \"#utility.yul\":9854:9856   */\n      0x20\n        /* \"ex/MGCPresell.sol\":31997:32034  require(sent, \"Usdt transfer failed\") */\n      0x04\n      dup3\n      add\n        /* \"#utility.yul\":9836:9857   */\n      mstore\n        /* \"#utility.yul\":9893:9895   */\n      0x14\n        /* \"#utility.yul\":9873:9891   */\n      0x24\n      dup3\n      add\n        /* \"#utility.yul\":9866:9896   */\n      mstore\n      shl(0x62, 0x155cd91d081d1c985b9cd9995c8819985a5b1959)\n        /* \"#utility.yul\":9912:9930   */\n      0x44\n      dup3\n      add\n        /* \"#utility.yul\":9905:9955   */\n      mstore\n        /* \"#utility.yul\":9972:9990   */\n      0x64\n      add\n        /* \"ex/MGCPresell.sol\":31997:32034  require(sent, \"Usdt transfer failed\") */\n      tag_182\n        /* \"#utility.yul\":9652:9996   */\n      jump\n        /* \"ex/MGCPresell.sol\":31997:32034  require(sent, \"Usdt transfer failed\") */\n    tag_294:\n        /* \"ex/MGCPresell.sol\":32088:32101  marketAddress */\n      0x04\n      dup1\n      sload\n        /* \"ex/MGCPresell.sol\":32054:32113  mscToken.transferFrom(msg.sender, marketAddress, mscAmount) */\n      mload(0x40)\n      shl(0xe0, 0x23b872dd)\n      dup2\n      mstore\n        /* \"ex/MGCPresell.sol\":32076:32086  msg.sender */\n      caller\n        /* \"ex/MGCPresell.sol\":32054:32113  mscToken.transferFrom(msg.sender, marketAddress, mscAmount) */\n      swap3\n      dup2\n      add\n        /* \"#utility.yul\":9512:9546   */\n      swap3\n      swap1\n      swap3\n      mstore\n      sub(shl(0xa0, 0x01), 0x01)\n        /* \"ex/MGCPresell.sol\":32088:32101  marketAddress */\n      swap1\n      dup2\n      and\n        /* \"#utility.yul\":9562:9580   */\n      0x24\n      dup4\n      add\n        /* \"#utility.yul\":9555:9598   */\n      mstore\n        /* \"#utility.yul\":9614:9632   */\n      0x44\n      dup3\n      add\n        /* \"#utility.yul\":9607:9641   */\n      dup6\n      swap1\n      mstore\n        /* \"ex/MGCPresell.sol\":32054:32062  mscToken */\n      immutable(\"0xa786fb5285bfc320b201f383e2c5a351bf46b5f0a8ea36548fe95ec2c0cb0489\")\n        /* \"ex/MGCPresell.sol\":32054:32075  mscToken.transferFrom */\n      and\n      swap1\n      0x23b872dd\n      swap1\n        /* \"#utility.yul\":9447:9465   */\n      0x64\n      add\n        /* \"ex/MGCPresell.sol\":32054:32113  mscToken.transferFrom(msg.sender, marketAddress, mscAmount) */\n      0x20\n      mload(0x40)\n      dup1\n      dup4\n      sub\n      dup2\n      0x00\n      dup8\n      gas\n      call\n      iszero\n      dup1\n      iszero\n      tag_299\n      jumpi\n      returndatasize\n      0x00\n      dup1\n      returndatacopy\n      revert(0x00, returndatasize)\n    tag_299:\n      pop\n      pop\n      pop\n      pop\n      mload(0x40)\n      returndatasize\n      not(0x1f)\n      0x1f\n      dup3\n      add\n      and\n      dup3\n      add\n      dup1\n      0x40\n      mstore\n      pop\n      dup2\n      add\n      swap1\n      tag_300\n      swap2\n      swap1\n      tag_235\n      jump\t// in\n    tag_300:\n        /* \"ex/MGCPresell.sol\":32047:32113  sent = mscToken.transferFrom(msg.sender, marketAddress, mscAmount) */\n      swap1\n      pop\n        /* \"ex/MGCPresell.sol\":32132:32136  sent */\n      dup1\n        /* \"ex/MGCPresell.sol\":32124:32160  require(sent, \"Msc transfer failed\") */\n      tag_301\n      jumpi\n      mload(0x40)\n      shl(0xe5, 0x461bcd)\n      dup2\n      mstore\n        /* \"#utility.yul\":10203:10205   */\n      0x20\n        /* \"ex/MGCPresell.sol\":32124:32160  require(sent, \"Msc transfer failed\") */\n      0x04\n      dup3\n      add\n        /* \"#utility.yul\":10185:10206   */\n      mstore\n        /* \"#utility.yul\":10242:10244   */\n      0x13\n        /* \"#utility.yul\":10222:10240   */\n      0x24\n      dup3\n      add\n        /* \"#utility.yul\":10215:10245   */\n      mstore\n      shl(0x6a, 0x135cd8c81d1c985b9cd9995c8819985a5b1959)\n        /* \"#utility.yul\":10261:10279   */\n      0x44\n      dup3\n      add\n        /* \"#utility.yul\":10254:10303   */\n      mstore\n        /* \"#utility.yul\":10320:10338   */\n      0x64\n      add\n        /* \"ex/MGCPresell.sol\":32124:32160  require(sent, \"Msc transfer failed\") */\n      tag_182\n        /* \"#utility.yul\":10001:10344   */\n      jump\n        /* \"ex/MGCPresell.sol\":32124:32160  require(sent, \"Msc transfer failed\") */\n    tag_301:\n        /* \"ex/MGCPresell.sol\":32207:32227  preSellCoinPreAmount */\n      sload(0x06)\n        /* \"ex/MGCPresell.sol\":32193:32203  msg.sender */\n      caller\n        /* \"ex/MGCPresell.sol\":32171:32204  userPresellBalanceMap[msg.sender] */\n      0x00\n      swap1\n      dup2\n      mstore\n        /* \"ex/MGCPresell.sol\":32171:32192  userPresellBalanceMap */\n      0x0d\n        /* \"ex/MGCPresell.sol\":32171:32204  userPresellBalanceMap[msg.sender] */\n      0x20\n      swap1\n      dup2\n      mstore\n      0x40\n      dup1\n      dup4\n      keccak256\n        /* \"ex/MGCPresell.sol\":32171:32227  userPresellBalanceMap[msg.sender] = preSellCoinPreAmount */\n      swap4\n      swap1\n      swap4\n      sstore\n        /* \"ex/MGCPresell.sol\":32238:32244  hasBuy */\n      0x0e\n        /* \"ex/MGCPresell.sol\":32238:32256  hasBuy[msg.sender] */\n      swap1\n      mstore\n      swap1\n      dup2\n      keccak256\n        /* \"ex/MGCPresell.sol\":32238:32263  hasBuy[msg.sender] = true */\n      dup1\n      sload\n      not(0xff)\n      and\n        /* \"ex/MGCPresell.sol\":32259:32263  true */\n      0x01\n        /* \"ex/MGCPresell.sol\":32238:32263  hasBuy[msg.sender] = true */\n      or\n      swap1\n      sstore\n        /* \"ex/MGCPresell.sol\":32274:32281  counter */\n      0x0c\n        /* \"ex/MGCPresell.sol\":32274:32283  counter++ */\n      dup1\n      sload\n      0xffffffff\n      and\n      swap2\n      tag_304\n      dup4\n      tag_258\n      jump\t// in\n    tag_304:\n      swap2\n      swap1\n      0x0100\n      exp\n      dup2\n      sload\n      dup2\n      0xffffffff\n      mul\n      not\n      and\n      swap1\n      dup4\n      0xffffffff\n      and\n      mul\n      or\n      swap1\n      sstore\n      pop\n      pop\n        /* \"ex/MGCPresell.sol\":32310:32320  msg.sender */\n      caller\n      sub(shl(0xa0, 0x01), 0x01)\n        /* \"ex/MGCPresell.sol\":32299:32344  BuyPresell(msg.sender, mscAmount, usdtAmount) */\n      and\n      0x936801119fce055a11a9ae8106c09cd34006a6c3d16bf925c2d8af5c234e7d2b\n        /* \"ex/MGCPresell.sol\":32322:32331  mscAmount */\n      dup5\n        /* \"ex/MGCPresell.sol\":32333:32343  usdtAmount */\n      dup5\n        /* \"ex/MGCPresell.sol\":32299:32344  BuyPresell(msg.sender, mscAmount, usdtAmount) */\n      mload(0x40)\n      tag_305\n      swap3\n      swap2\n      swap1\n        /* \"#utility.yul\":2206:2231   */\n      swap2\n      dup3\n      mstore\n        /* \"#utility.yul\":2262:2264   */\n      0x20\n        /* \"#utility.yul\":2247:2265   */\n      dup3\n      add\n        /* \"#utility.yul\":2240:2274   */\n      mstore\n        /* \"#utility.yul\":2194:2196   */\n      0x40\n        /* \"#utility.yul\":2179:2197   */\n      add\n      swap1\n        /* \"#utility.yul\":2032:2280   */\n      jump\n        /* \"ex/MGCPresell.sol\":32299:32344  BuyPresell(msg.sender, mscAmount, usdtAmount) */\n    tag_305:\n      mload(0x40)\n      dup1\n      swap2\n      sub\n      swap1\n      log2\n        /* \"ex/MGCPresell.sol\":31355:32352  {... */\n      pop\n      pop\n      pop\n        /* \"ex/MGCPresell.sol\":31327:32352  function buyTokens() public {... */\n      jump\t// out\n        /* \"ex/MGCPresell.sol\":33289:33404  function emergencyWithdraw() external onlyOwner {... */\n    tag_141:\n        /* \"ex/MGCPresell.sol\":9957:9964  address */\n      0x00\n        /* \"ex/MGCPresell.sol\":9984:9990  _owner */\n      sload\n      sub(shl(0xa0, 0x01), 0x01)\n      and\n        /* \"ex/MGCPresell.sol\":9365:9375  msg.sender */\n      caller\n        /* \"ex/MGCPresell.sol\":10131:10154  owner() == _msgSender() */\n      eq\n        /* \"ex/MGCPresell.sol\":10123:10191  require(owner() == _msgSender(), \"Ownable: caller is not the owner\") */\n      tag_310\n      jumpi\n      mload(0x40)\n      shl(0xe5, 0x461bcd)\n      dup2\n      mstore\n      0x04\n      add\n      tag_182\n      swap1\n      tag_183\n      jump\t// in\n    tag_310:\n        /* \"ex/MGCPresell.sol\":9957:9964  address */\n      0x00\n        /* \"ex/MGCPresell.sol\":9984:9990  _owner */\n      dup1\n      sload\n        /* \"ex/MGCPresell.sol\":33348:33396  payable(owner()).transfer(address(this).balance) */\n      mload(0x40)\n      sub(shl(0xa0, 0x01), 0x01)\n        /* \"ex/MGCPresell.sol\":9984:9990  _owner */\n      swap1\n      swap2\n      and\n      swap2\n        /* \"ex/MGCPresell.sol\":33374:33395  address(this).balance */\n      selfbalance\n        /* \"ex/MGCPresell.sol\":33348:33396  payable(owner()).transfer(address(this).balance) */\n      dup1\n      iszero\n      0x08fc\n      mul\n      swap3\n        /* \"ex/MGCPresell.sol\":33374:33395  address(this).balance */\n      swap1\n      swap2\n        /* \"ex/MGCPresell.sol\":33348:33396  payable(owner()).transfer(address(this).balance) */\n      dup2\n        /* \"ex/MGCPresell.sol\":9957:9964  address */\n      dup2\n        /* \"ex/MGCPresell.sol\":33348:33396  payable(owner()).transfer(address(this).balance) */\n      dup2\n        /* \"ex/MGCPresell.sol\":33374:33395  address(this).balance */\n      dup6\n        /* \"ex/MGCPresell.sol\":9984:9990  _owner */\n      dup9\n        /* \"ex/MGCPresell.sol\":33348:33396  payable(owner()).transfer(address(this).balance) */\n      dup9\n      call\n      swap4\n      pop\n      pop\n      pop\n      pop\n      iszero\n      dup1\n      iszero\n      tag_315\n      jumpi\n      returndatasize\n      0x00\n      dup1\n      returndatacopy\n      revert(0x00, returndatasize)\n    tag_315:\n      pop\n        /* \"ex/MGCPresell.sol\":33289:33404  function emergencyWithdraw() external onlyOwner {... */\n      jump\t// out\n        /* \"ex/MGCPresell.sol\":10820:11021  function transferOwnership(address newOwner) public virtual onlyOwner {... */\n    tag_147:\n        /* \"ex/MGCPresell.sol\":9957:9964  address */\n      0x00\n        /* \"ex/MGCPresell.sol\":9984:9990  _owner */\n      sload\n      sub(shl(0xa0, 0x01), 0x01)\n      and\n        /* \"ex/MGCPresell.sol\":9365:9375  msg.sender */\n      caller\n        /* \"ex/MGCPresell.sol\":10131:10154  owner() == _msgSender() */\n      eq\n        /* \"ex/MGCPresell.sol\":10123:10191  require(owner() == _msgSender(), \"Ownable: caller is not the owner\") */\n      tag_320\n      jumpi\n      mload(0x40)\n      shl(0xe5, 0x461bcd)\n      dup2\n      mstore\n      0x04\n      add\n      tag_182\n      swap1\n      tag_183\n      jump\t// in\n    tag_320:\n      sub(shl(0xa0, 0x01), 0x01)\n        /* \"ex/MGCPresell.sol\":10909:10931  newOwner != address(0) */\n      dup2\n      and\n        /* \"ex/MGCPresell.sol\":10901:10974  require(newOwner != address(0), \"Ownable: new owner is the zero address\") */\n      tag_323\n      jumpi\n      mload(0x40)\n      shl(0xe5, 0x461bcd)\n      dup2\n      mstore\n        /* \"#utility.yul\":10551:10553   */\n      0x20\n        /* \"ex/MGCPresell.sol\":10901:10974  require(newOwner != address(0), \"Ownable: new owner is the zero address\") */\n      0x04\n      dup3\n      add\n        /* \"#utility.yul\":10533:10554   */\n      mstore\n        /* \"#utility.yul\":10590:10592   */\n      0x26\n        /* \"#utility.yul\":10570:10588   */\n      0x24\n      dup3\n      add\n        /* \"#utility.yul\":10563:10593   */\n      mstore\n        /* \"#utility.yul\":10629:10663   */\n      0x4f776e61626c653a206e6577206f776e657220697320746865207a65726f2061\n        /* \"#utility.yul\":10609:10627   */\n      0x44\n      dup3\n      add\n        /* \"#utility.yul\":10602:10664   */\n      mstore\n      shl(0xd0, 0x646472657373)\n        /* \"#utility.yul\":10680:10698   */\n      0x64\n      dup3\n      add\n        /* \"#utility.yul\":10673:10709   */\n      mstore\n        /* \"#utility.yul\":10726:10745   */\n      0x84\n      add\n        /* \"ex/MGCPresell.sol\":10901:10974  require(newOwner != address(0), \"Ownable: new owner is the zero address\") */\n      tag_182\n        /* \"#utility.yul\":10349:10751   */\n      jump\n        /* \"ex/MGCPresell.sol\":10901:10974  require(newOwner != address(0), \"Ownable: new owner is the zero address\") */\n    tag_323:\n        /* \"ex/MGCPresell.sol\":10985:11013  _transferOwnership(newOwner) */\n      tag_315\n        /* \"ex/MGCPresell.sol\":11004:11012  newOwner */\n      dup2\n        /* \"ex/MGCPresell.sol\":10985:11003  _transferOwnership */\n      tag_215\n        /* \"ex/MGCPresell.sol\":10985:11013  _transferOwnership(newOwner) */\n      jump\t// in\n        /* \"ex/MGCPresell.sol\":32811:32919  function setMarketAddress(address newAddress) public onlyOwner {... */\n    tag_150:\n        /* \"ex/MGCPresell.sol\":9957:9964  address */\n      0x00\n        /* \"ex/MGCPresell.sol\":9984:9990  _owner */\n      sload\n      sub(shl(0xa0, 0x01), 0x01)\n      and\n        /* \"ex/MGCPresell.sol\":9365:9375  msg.sender */\n      caller\n        /* \"ex/MGCPresell.sol\":10131:10154  owner() == _msgSender() */\n      eq\n        /* \"ex/MGCPresell.sol\":10123:10191  require(owner() == _msgSender(), \"Ownable: caller is not the owner\") */\n      tag_330\n      jumpi\n      mload(0x40)\n      shl(0xe5, 0x461bcd)\n      dup2\n      mstore\n      0x04\n      add\n      tag_182\n      swap1\n      tag_183\n      jump\t// in\n    tag_330:\n        /* \"ex/MGCPresell.sol\":32885:32898  marketAddress */\n      0x04\n        /* \"ex/MGCPresell.sol\":32885:32911  marketAddress = newAddress */\n      dup1\n      sload\n      not(sub(shl(0xa0, 0x01), 0x01))\n      and\n      sub(shl(0xa0, 0x01), 0x01)\n      swap3\n      swap1\n      swap3\n      and\n      swap2\n      swap1\n      swap2\n      or\n      swap1\n      sstore\n        /* \"ex/MGCPresell.sol\":32811:32919  function setMarketAddress(address newAddress) public onlyOwner {... */\n      jump\t// out\n        /* \"ex/MGCPresell.sol\":30012:30369  function getPresellMscAndUsdtAmount() public view returns (uint256, uint256) {... */\n    tag_152:\n        /* \"ex/MGCPresell.sol\":30071:30078  uint256 */\n      0x00\n        /* \"ex/MGCPresell.sol\":30080:30087  uint256 */\n      dup1\n        /* \"ex/MGCPresell.sol\":30100:30112  uint256 step */\n      0x00\n        /* \"ex/MGCPresell.sol\":30115:30124  getStep() */\n      tag_334\n        /* \"ex/MGCPresell.sol\":30115:30122  getStep */\n      tag_111\n        /* \"ex/MGCPresell.sol\":30115:30124  getStep() */\n      jump\t// in\n    tag_334:\n        /* \"ex/MGCPresell.sol\":30100:30124  uint256 step = getStep() */\n      swap1\n      pop\n        /* \"ex/MGCPresell.sol\":30135:30148  uint256 money */\n      0x00\n        /* \"ex/MGCPresell.sol\":30151:30185  baseMoney.add(step).mul(priceStep) */\n      tag_335\n        /* \"ex/MGCPresell.sol\":30175:30184  priceStep */\n      sload(0x0a)\n        /* \"ex/MGCPresell.sol\":30151:30170  baseMoney.add(step) */\n      tag_336\n        /* \"ex/MGCPresell.sol\":30165:30169  step */\n      dup5\n        /* \"ex/MGCPresell.sol\":30151:30160  baseMoney */\n      sload(0x0b)\n        /* \"ex/MGCPresell.sol\":30151:30164  baseMoney.add */\n      tag_337\n      swap1\n        /* \"ex/MGCPresell.sol\":30151:30170  baseMoney.add(step) */\n      swap2\n      swap1\n      0xffffffff\n      and\n      jump\t// in\n    tag_336:\n        /* \"ex/MGCPresell.sol\":30151:30174  baseMoney.add(step).mul */\n      swap1\n      tag_338\n        /* \"ex/MGCPresell.sol\":30151:30185  baseMoney.add(step).mul(priceStep) */\n      jump\t// in\n    tag_335:\n        /* \"ex/MGCPresell.sol\":30135:30185  uint256 money = baseMoney.add(step).mul(priceStep) */\n      swap1\n      pop\n        /* \"ex/MGCPresell.sol\":30196:30214  uint256 usdtAmount */\n      0x00\n        /* \"ex/MGCPresell.sol\":30217:30239  money.mul(80).div(100) */\n      tag_339\n        /* \"ex/MGCPresell.sol\":30235:30238  100 */\n      0x64\n        /* \"ex/MGCPresell.sol\":30217:30230  money.mul(80) */\n      tag_221\n        /* \"ex/MGCPresell.sol\":30135:30185  uint256 money = baseMoney.add(step).mul(priceStep) */\n      dup5\n        /* \"ex/MGCPresell.sol\":30227:30229  80 */\n      0x50\n        /* \"ex/MGCPresell.sol\":30217:30226  money.mul */\n      tag_338\n        /* \"ex/MGCPresell.sol\":30217:30230  money.mul(80) */\n      jump\t// in\n        /* \"ex/MGCPresell.sol\":30217:30239  money.mul(80).div(100) */\n    tag_339:\n        /* \"ex/MGCPresell.sol\":30196:30239  uint256 usdtAmount = money.mul(80).div(100) */\n      swap1\n      pop\n        /* \"ex/MGCPresell.sol\":30250:30273  uint256 usdtToMscAmount */\n      0x00\n        /* \"ex/MGCPresell.sol\":30276:30297  money.sub(usdtAmount) */\n      tag_341\n        /* \"ex/MGCPresell.sol\":30276:30281  money */\n      dup4\n        /* \"ex/MGCPresell.sol\":30196:30239  uint256 usdtAmount = money.mul(80).div(100) */\n      dup4\n        /* \"ex/MGCPresell.sol\":30276:30285  money.sub */\n      tag_222\n        /* \"ex/MGCPresell.sol\":30276:30297  money.sub(usdtAmount) */\n      jump\t// in\n    tag_341:\n        /* \"ex/MGCPresell.sol\":30250:30297  uint256 usdtToMscAmount = money.sub(usdtAmount) */\n      swap1\n      pop\n        /* \"ex/MGCPresell.sol\":30316:30348  getMscAmountOut(usdtToMscAmount) */\n      tag_342\n        /* \"ex/MGCPresell.sol\":30332:30347  usdtToMscAmount */\n      dup2\n        /* \"ex/MGCPresell.sol\":30316:30331  getMscAmountOut */\n      tag_69\n        /* \"ex/MGCPresell.sol\":30316:30348  getMscAmountOut(usdtToMscAmount) */\n      jump\t// in\n    tag_342:\n        /* \"ex/MGCPresell.sol\":30308:30361  return (getMscAmountOut(usdtToMscAmount), usdtAmount) */\n      swap7\n        /* \"ex/MGCPresell.sol\":30350:30360  usdtAmount */\n      swap2\n      swap6\n      pop\n        /* \"ex/MGCPresell.sol\":30012:30369  function getPresellMscAndUsdtAmount() public view returns (uint256, uint256) {... */\n      swap1\n      swap4\n      pop\n      pop\n      pop\n      pop\n      jump\t// out\n        /* \"ex/MGCPresell.sol\":11181:11372  function _transferOwnership(address newOwner) internal virtual {... */\n    tag_215:\n        /* \"ex/MGCPresell.sol\":11255:11271  address oldOwner */\n      0x00\n        /* \"ex/MGCPresell.sol\":11274:11280  _owner */\n      dup1\n      sload\n      sub(shl(0xa0, 0x01), 0x01)\n        /* \"ex/MGCPresell.sol\":11291:11308  _owner = newOwner */\n      dup4\n      dup2\n      and\n      not(sub(shl(0xa0, 0x01), 0x01))\n      dup4\n      and\n      dup2\n      or\n      dup5\n      sstore\n        /* \"ex/MGCPresell.sol\":11324:11364  OwnershipTransferred(oldOwner, newOwner) */\n      mload(0x40)\n        /* \"ex/MGCPresell.sol\":11274:11280  _owner */\n      swap2\n      swap1\n      swap3\n      and\n      swap3\n      dup4\n      swap2\n        /* \"ex/MGCPresell.sol\":11324:11364  OwnershipTransferred(oldOwner, newOwner) */\n      0x8be0079c531659141344cd1fd0a4f28419497f9722a3daafe3b4186f6b6457e0\n      swap2\n        /* \"ex/MGCPresell.sol\":11255:11271  address oldOwner */\n      swap1\n        /* \"ex/MGCPresell.sol\":11324:11364  OwnershipTransferred(oldOwner, newOwner) */\n      log3\n        /* \"ex/MGCPresell.sol\":11244:11372  {... */\n      pop\n        /* \"ex/MGCPresell.sol\":11181:11372  function _transferOwnership(address newOwner) internal virtual {... */\n      pop\n      jump\t// out\n        /* \"ex/MGCPresell.sol\":5468:5566  function sub(uint256 a, uint256 b) internal pure returns (uint256) {... */\n    tag_222:\n        /* \"ex/MGCPresell.sol\":5526:5533  uint256 */\n      0x00\n        /* \"ex/MGCPresell.sol\":5553:5558  a - b */\n      tag_346\n        /* \"ex/MGCPresell.sol\":5557:5558  b */\n      dup3\n        /* \"ex/MGCPresell.sol\":5553:5554  a */\n      dup5\n        /* \"ex/MGCPresell.sol\":5553:5558  a - b */\n      tag_347\n      jump\t// in\n    tag_346:\n        /* \"ex/MGCPresell.sol\":5546:5558  return a - b */\n      swap4\n        /* \"ex/MGCPresell.sol\":5468:5566  function sub(uint256 a, uint256 b) internal pure returns (uint256) {... */\n      swap3\n      pop\n      pop\n      pop\n      jump\t// out\n        /* \"ex/MGCPresell.sol\":6224:6322  function div(uint256 a, uint256 b) internal pure returns (uint256) {... */\n    tag_223:\n        /* \"ex/MGCPresell.sol\":6282:6289  uint256 */\n      0x00\n        /* \"ex/MGCPresell.sol\":6309:6314  a / b */\n      tag_346\n        /* \"ex/MGCPresell.sol\":6313:6314  b */\n      dup3\n        /* \"ex/MGCPresell.sol\":6309:6310  a */\n      dup5\n        /* \"ex/MGCPresell.sol\":6309:6314  a / b */\n      tag_350\n      jump\t// in\n        /* \"ex/MGCPresell.sol\":5087:5185  function add(uint256 a, uint256 b) internal pure returns (uint256) {... */\n    tag_337:\n        /* \"ex/MGCPresell.sol\":5145:5152  uint256 */\n      0x00\n        /* \"ex/MGCPresell.sol\":5172:5177  a + b */\n      tag_346\n        /* \"ex/MGCPresell.sol\":5176:5177  b */\n      dup3\n        /* \"ex/MGCPresell.sol\":5172:5173  a */\n      dup5\n        /* \"ex/MGCPresell.sol\":5172:5177  a + b */\n      tag_353\n      jump\t// in\n        /* \"ex/MGCPresell.sol\":5825:5923  function mul(uint256 a, uint256 b) internal pure returns (uint256) {... */\n    tag_338:\n        /* \"ex/MGCPresell.sol\":5883:5890  uint256 */\n      0x00\n        /* \"ex/MGCPresell.sol\":5910:5915  a * b */\n      tag_346\n        /* \"ex/MGCPresell.sol\":5914:5915  b */\n      dup3\n        /* \"ex/MGCPresell.sol\":5910:5911  a */\n      dup5\n        /* \"ex/MGCPresell.sol\":5910:5915  a * b */\n      tag_356\n      jump\t// in\n        /* \"#utility.yul\":427:607   */\n    tag_54:\n        /* \"#utility.yul\":486:492   */\n      0x00\n        /* \"#utility.yul\":539:541   */\n      0x20\n        /* \"#utility.yul\":527:536   */\n      dup3\n        /* \"#utility.yul\":518:525   */\n      dup5\n        /* \"#utility.yul\":514:537   */\n      sub\n        /* \"#utility.yul\":510:542   */\n      slt\n        /* \"#utility.yul\":507:559   */\n      iszero\n      tag_363\n      jumpi\n        /* \"#utility.yul\":555:556   */\n      0x00\n        /* \"#utility.yul\":552:553   */\n      dup1\n        /* \"#utility.yul\":545:557   */\n      revert\n        /* \"#utility.yul\":507:559   */\n    tag_363:\n      pop\n        /* \"#utility.yul\":578:601   */\n      calldataload\n      swap2\n        /* \"#utility.yul\":427:607   */\n      swap1\n      pop\n      jump\t// out\n        /* \"#utility.yul\":794:967   */\n    tag_357:\n        /* \"#utility.yul\":862:882   */\n      dup1\n      calldataload\n      sub(shl(0xa0, 0x01), 0x01)\n        /* \"#utility.yul\":911:942   */\n      dup2\n      and\n        /* \"#utility.yul\":901:943   */\n      dup2\n      eq\n        /* \"#utility.yul\":891:961   */\n      tag_366\n      jumpi\n        /* \"#utility.yul\":957:958   */\n      0x00\n        /* \"#utility.yul\":954:955   */\n      dup1\n        /* \"#utility.yul\":947:959   */\n      revert\n        /* \"#utility.yul\":891:961   */\n    tag_366:\n        /* \"#utility.yul\":794:967   */\n      swap2\n      swap1\n      pop\n      jump\t// out\n        /* \"#utility.yul\":972:1158   */\n    tag_63:\n        /* \"#utility.yul\":1031:1037   */\n      0x00\n        /* \"#utility.yul\":1084:1086   */\n      0x20\n        /* \"#utility.yul\":1072:1081   */\n      dup3\n        /* \"#utility.yul\":1063:1070   */\n      dup5\n        /* \"#utility.yul\":1059:1082   */\n      sub\n        /* \"#utility.yul\":1055:1087   */\n      slt\n        /* \"#utility.yul\":1052:1104   */\n      iszero\n      tag_368\n      jumpi\n        /* \"#utility.yul\":1100:1101   */\n      0x00\n        /* \"#utility.yul\":1097:1098   */\n      dup1\n        /* \"#utility.yul\":1090:1102   */\n      revert\n        /* \"#utility.yul\":1052:1104   */\n    tag_368:\n        /* \"#utility.yul\":1123:1152   */\n      tag_346\n        /* \"#utility.yul\":1142:1151   */\n      dup3\n        /* \"#utility.yul\":1123:1152   */\n      tag_357\n      jump\t// in\n        /* \"#utility.yul\":1576:1830   */\n    tag_115:\n        /* \"#utility.yul\":1644:1650   */\n      0x00\n        /* \"#utility.yul\":1652:1658   */\n      dup1\n        /* \"#utility.yul\":1705:1707   */\n      0x40\n        /* \"#utility.yul\":1693:1702   */\n      dup4\n        /* \"#utility.yul\":1684:1691   */\n      dup6\n        /* \"#utility.yul\":1680:1703   */\n      sub\n        /* \"#utility.yul\":1676:1708   */\n      slt\n        /* \"#utility.yul\":1673:1725   */\n      iszero\n      tag_373\n      jumpi\n        /* \"#utility.yul\":1721:1722   */\n      0x00\n        /* \"#utility.yul\":1718:1719   */\n      dup1\n        /* \"#utility.yul\":1711:1723   */\n      revert\n        /* \"#utility.yul\":1673:1725   */\n    tag_373:\n        /* \"#utility.yul\":1744:1773   */\n      tag_374\n        /* \"#utility.yul\":1763:1772   */\n      dup4\n        /* \"#utility.yul\":1744:1773   */\n      tag_357\n      jump\t// in\n    tag_374:\n        /* \"#utility.yul\":1734:1773   */\n      swap5\n        /* \"#utility.yul\":1820:1822   */\n      0x20\n        /* \"#utility.yul\":1805:1823   */\n      swap4\n      swap1\n      swap4\n      add\n        /* \"#utility.yul\":1792:1824   */\n      calldataload\n      swap4\n      pop\n      pop\n      pop\n        /* \"#utility.yul\":1576:1830   */\n      jump\t// out\n        /* \"#utility.yul\":2285:2412   */\n    tag_162:\n        /* \"#utility.yul\":2346:2356   */\n      0x4e487b71\n        /* \"#utility.yul\":2341:2344   */\n      0xe0\n        /* \"#utility.yul\":2337:2357   */\n      shl\n        /* \"#utility.yul\":2334:2335   */\n      0x00\n        /* \"#utility.yul\":2327:2358   */\n      mstore\n        /* \"#utility.yul\":2377:2381   */\n      0x41\n        /* \"#utility.yul\":2374:2375   */\n      0x04\n        /* \"#utility.yul\":2367:2382   */\n      mstore\n        /* \"#utility.yul\":2401:2405   */\n      0x24\n        /* \"#utility.yul\":2398:2399   */\n      0x00\n        /* \"#utility.yul\":2391:2406   */\n      revert\n        /* \"#utility.yul\":2417:2544   */\n    tag_166:\n        /* \"#utility.yul\":2478:2488   */\n      0x4e487b71\n        /* \"#utility.yul\":2473:2476   */\n      0xe0\n        /* \"#utility.yul\":2469:2489   */\n      shl\n        /* \"#utility.yul\":2466:2467   */\n      0x00\n        /* \"#utility.yul\":2459:2490   */\n      mstore\n        /* \"#utility.yul\":2509:2513   */\n      0x32\n        /* \"#utility.yul\":2506:2507   */\n      0x04\n        /* \"#utility.yul\":2499:2514   */\n      mstore\n        /* \"#utility.yul\":2533:2537   */\n      0x24\n        /* \"#utility.yul\":2530:2531   */\n      0x00\n        /* \"#utility.yul\":2523:2538   */\n      revert\n        /* \"#utility.yul\":2549:3278   */\n    tag_170:\n        /* \"#utility.yul\":2719:2723   */\n      0x00\n        /* \"#utility.yul\":2767:2769   */\n      0x40\n        /* \"#utility.yul\":2756:2765   */\n      dup3\n        /* \"#utility.yul\":2752:2770   */\n      add\n        /* \"#utility.yul\":2797:2803   */\n      dup5\n        /* \"#utility.yul\":2786:2795   */\n      dup4\n        /* \"#utility.yul\":2779:2804   */\n      mstore\n        /* \"#utility.yul\":2823:2825   */\n      0x20\n        /* \"#utility.yul\":2861:2863   */\n      0x40\n        /* \"#utility.yul\":2856:2858   */\n      dup2\n        /* \"#utility.yul\":2845:2854   */\n      dup6\n        /* \"#utility.yul\":2841:2859   */\n      add\n        /* \"#utility.yul\":2834:2864   */\n      mstore\n        /* \"#utility.yul\":2884:2890   */\n      dup2\n        /* \"#utility.yul\":2919:2925   */\n      dup6\n        /* \"#utility.yul\":2913:2926   */\n      mload\n        /* \"#utility.yul\":2950:2956   */\n      dup1\n        /* \"#utility.yul\":2942:2948   */\n      dup5\n        /* \"#utility.yul\":2935:2957   */\n      mstore\n        /* \"#utility.yul\":2988:2990   */\n      0x60\n        /* \"#utility.yul\":2977:2986   */\n      dup7\n        /* \"#utility.yul\":2973:2991   */\n      add\n        /* \"#utility.yul\":2966:2991   */\n      swap2\n      pop\n        /* \"#utility.yul\":3026:3028   */\n      dup3\n        /* \"#utility.yul\":3018:3024   */\n      dup8\n        /* \"#utility.yul\":3014:3029   */\n      add\n        /* \"#utility.yul\":3000:3029   */\n      swap4\n      pop\n        /* \"#utility.yul\":3047:3048   */\n      0x00\n        /* \"#utility.yul\":3057:3252   */\n    tag_380:\n        /* \"#utility.yul\":3071:3077   */\n      dup2\n        /* \"#utility.yul\":3068:3069   */\n      dup2\n        /* \"#utility.yul\":3065:3078   */\n      lt\n        /* \"#utility.yul\":3057:3252   */\n      iszero\n      tag_382\n      jumpi\n        /* \"#utility.yul\":3136:3149   */\n      dup5\n      mload\n      sub(shl(0xa0, 0x01), 0x01)\n        /* \"#utility.yul\":3132:3171   */\n      and\n        /* \"#utility.yul\":3120:3172   */\n      dup4\n      mstore\n        /* \"#utility.yul\":3227:3242   */\n      swap4\n      dup4\n      add\n      swap4\n        /* \"#utility.yul\":3192:3204   */\n      swap2\n      dup4\n      add\n      swap2\n        /* \"#utility.yul\":3168:3169   */\n      0x01\n        /* \"#utility.yul\":3086:3095   */\n      add\n        /* \"#utility.yul\":3057:3252   */\n      jump(tag_380)\n    tag_382:\n      pop\n        /* \"#utility.yul\":3269:3272   */\n      swap1\n      swap8\n        /* \"#utility.yul\":2549:3278   */\n      swap7\n      pop\n      pop\n      pop\n      pop\n      pop\n      pop\n      pop\n      jump\t// out\n        /* \"#utility.yul\":3283:4388   */\n    tag_174:\n        /* \"#utility.yul\":3378:3384   */\n      0x00\n        /* \"#utility.yul\":3409:3411   */\n      0x20\n        /* \"#utility.yul\":3452:3454   */\n      dup1\n        /* \"#utility.yul\":3440:3449   */\n      dup4\n        /* \"#utility.yul\":3431:3438   */\n      dup6\n        /* \"#utility.yul\":3427:3450   */\n      sub\n        /* \"#utility.yul\":3423:3455   */\n      slt\n        /* \"#utility.yul\":3420:3472   */\n      iszero\n      tag_384\n      jumpi\n        /* \"#utility.yul\":3468:3469   */\n      0x00\n        /* \"#utility.yul\":3465:3466   */\n      dup1\n        /* \"#utility.yul\":3458:3470   */\n      revert\n        /* \"#utility.yul\":3420:3472   */\n    tag_384:\n        /* \"#utility.yul\":3501:3510   */\n      dup3\n        /* \"#utility.yul\":3495:3511   */\n      mload\n        /* \"#utility.yul\":3530:3548   */\n      0xffffffffffffffff\n        /* \"#utility.yul\":3571:3573   */\n      dup1\n        /* \"#utility.yul\":3563:3569   */\n      dup3\n        /* \"#utility.yul\":3560:3574   */\n      gt\n        /* \"#utility.yul\":3557:3591   */\n      iszero\n      tag_385\n      jumpi\n        /* \"#utility.yul\":3587:3588   */\n      0x00\n        /* \"#utility.yul\":3584:3585   */\n      dup1\n        /* \"#utility.yul\":3577:3589   */\n      revert\n        /* \"#utility.yul\":3557:3591   */\n    tag_385:\n        /* \"#utility.yul\":3625:3631   */\n      dup2\n        /* \"#utility.yul\":3614:3623   */\n      dup6\n        /* \"#utility.yul\":3610:3632   */\n      add\n        /* \"#utility.yul\":3600:3632   */\n      swap2\n      pop\n        /* \"#utility.yul\":3670:3677   */\n      dup6\n        /* \"#utility.yul\":3663:3667   */\n      0x1f\n        /* \"#utility.yul\":3659:3661   */\n      dup4\n        /* \"#utility.yul\":3655:3668   */\n      add\n        /* \"#utility.yul\":3651:3678   */\n      slt\n        /* \"#utility.yul\":3641:3696   */\n      tag_386\n      jumpi\n        /* \"#utility.yul\":3692:3693   */\n      0x00\n        /* \"#utility.yul\":3689:3690   */\n      dup1\n        /* \"#utility.yul\":3682:3694   */\n      revert\n        /* \"#utility.yul\":3641:3696   */\n    tag_386:\n        /* \"#utility.yul\":3721:3723   */\n      dup2\n        /* \"#utility.yul\":3715:3724   */\n      mload\n        /* \"#utility.yul\":3743:3745   */\n      dup2\n        /* \"#utility.yul\":3739:3741   */\n      dup2\n        /* \"#utility.yul\":3736:3746   */\n      gt\n        /* \"#utility.yul\":3733:3769   */\n      iszero\n      tag_388\n      jumpi\n        /* \"#utility.yul\":3749:3767   */\n      tag_388\n      tag_162\n      jump\t// in\n    tag_388:\n        /* \"#utility.yul\":3795:3797   */\n      dup1\n        /* \"#utility.yul\":3792:3793   */\n      0x05\n        /* \"#utility.yul\":3788:3798   */\n      shl\n        /* \"#utility.yul\":3827:3829   */\n      0x40\n        /* \"#utility.yul\":3821:3830   */\n      mload\n        /* \"#utility.yul\":3890:3892   */\n      0x1f\n        /* \"#utility.yul\":3886:3893   */\n      not\n        /* \"#utility.yul\":3881:3883   */\n      0x3f\n        /* \"#utility.yul\":3877:3879   */\n      dup4\n        /* \"#utility.yul\":3873:3884   */\n      add\n        /* \"#utility.yul\":3869:3894   */\n      and\n        /* \"#utility.yul\":3861:3867   */\n      dup2\n        /* \"#utility.yul\":3857:3895   */\n      add\n        /* \"#utility.yul\":3945:3951   */\n      dup2\n        /* \"#utility.yul\":3933:3943   */\n      dup2\n        /* \"#utility.yul\":3930:3952   */\n      lt\n        /* \"#utility.yul\":3925:3927   */\n      dup6\n        /* \"#utility.yul\":3913:3923   */\n      dup3\n        /* \"#utility.yul\":3910:3928   */\n      gt\n        /* \"#utility.yul\":3907:3953   */\n      or\n        /* \"#utility.yul\":3904:3976   */\n      iszero\n      tag_390\n      jumpi\n        /* \"#utility.yul\":3956:3974   */\n      tag_390\n      tag_162\n      jump\t// in\n    tag_390:\n        /* \"#utility.yul\":3992:3994   */\n      0x40\n        /* \"#utility.yul\":3985:4007   */\n      mstore\n        /* \"#utility.yul\":4042:4060   */\n      swap2\n      dup3\n      mstore\n        /* \"#utility.yul\":4076:4091   */\n      dup5\n      dup3\n      add\n      swap3\n      pop\n        /* \"#utility.yul\":4118:4129   */\n      dup4\n      dup2\n      add\n        /* \"#utility.yul\":4114:4134   */\n      dup6\n      add\n      swap2\n        /* \"#utility.yul\":4146:4165   */\n      dup9\n      dup4\n      gt\n        /* \"#utility.yul\":4143:4182   */\n      iszero\n      tag_391\n      jumpi\n        /* \"#utility.yul\":4178:4179   */\n      0x00\n        /* \"#utility.yul\":4175:4176   */\n      dup1\n        /* \"#utility.yul\":4168:4180   */\n      revert\n        /* \"#utility.yul\":4143:4182   */\n    tag_391:\n        /* \"#utility.yul\":4202:4213   */\n      swap4\n      dup6\n      add\n      swap4\n        /* \"#utility.yul\":4222:4357   */\n    tag_392:\n        /* \"#utility.yul\":4238:4244   */\n      dup3\n        /* \"#utility.yul\":4233:4236   */\n      dup6\n        /* \"#utility.yul\":4230:4245   */\n      lt\n        /* \"#utility.yul\":4222:4357   */\n      iszero\n      tag_394\n      jumpi\n        /* \"#utility.yul\":4304:4314   */\n      dup5\n      mload\n        /* \"#utility.yul\":4292:4315   */\n      dup5\n      mstore\n        /* \"#utility.yul\":4255:4267   */\n      swap4\n      dup6\n      add\n      swap4\n        /* \"#utility.yul\":4335:4347   */\n      swap3\n      dup6\n      add\n      swap3\n        /* \"#utility.yul\":4222:4357   */\n      jump(tag_392)\n    tag_394:\n        /* \"#utility.yul\":4376:4382   */\n      swap9\n        /* \"#utility.yul\":3283:4388   */\n      swap8\n      pop\n      pop\n      pop\n      pop\n      pop\n      pop\n      pop\n      pop\n      jump\t// out\n        /* \"#utility.yul\":4393:4749   */\n    tag_183:\n        /* \"#utility.yul\":4595:4597   */\n      0x20\n        /* \"#utility.yul\":4577:4598   */\n      dup1\n      dup3\n      mstore\n        /* \"#utility.yul\":4614:4632   */\n      dup2\n      dup2\n      add\n        /* \"#utility.yul\":4607:4637   */\n      mstore\n        /* \"#utility.yul\":4673:4707   */\n      0x4f776e61626c653a2063616c6c6572206973206e6f7420746865206f776e6572\n        /* \"#utility.yul\":4668:4670   */\n      0x40\n        /* \"#utility.yul\":4653:4671   */\n      dup3\n      add\n        /* \"#utility.yul\":4646:4708   */\n      mstore\n        /* \"#utility.yul\":4740:4742   */\n      0x60\n        /* \"#utility.yul\":4725:4743   */\n      add\n      swap1\n        /* \"#utility.yul\":4393:4749   */\n      jump\t// out\n        /* \"#utility.yul\":5033:5310   */\n    tag_235:\n        /* \"#utility.yul\":5100:5106   */\n      0x00\n        /* \"#utility.yul\":5153:5155   */\n      0x20\n        /* \"#utility.yul\":5141:5150   */\n      dup3\n        /* \"#utility.yul\":5132:5139   */\n      dup5\n        /* \"#utility.yul\":5128:5151   */\n      sub\n        /* \"#utility.yul\":5124:5156   */\n      slt\n        /* \"#utility.yul\":5121:5173   */\n      iszero\n      tag_398\n      jumpi\n        /* \"#utility.yul\":5169:5170   */\n      0x00\n        /* \"#utility.yul\":5166:5167   */\n      dup1\n        /* \"#utility.yul\":5159:5171   */\n      revert\n        /* \"#utility.yul\":5121:5173   */\n    tag_398:\n        /* \"#utility.yul\":5201:5210   */\n      dup2\n        /* \"#utility.yul\":5195:5211   */\n      mload\n        /* \"#utility.yul\":5254:5259   */\n      dup1\n        /* \"#utility.yul\":5247:5260   */\n      iszero\n        /* \"#utility.yul\":5240:5261   */\n      iszero\n        /* \"#utility.yul\":5233:5238   */\n      dup2\n        /* \"#utility.yul\":5230:5262   */\n      eq\n        /* \"#utility.yul\":5220:5280   */\n      tag_346\n      jumpi\n        /* \"#utility.yul\":5276:5277   */\n      0x00\n        /* \"#utility.yul\":5273:5274   */\n      dup1\n        /* \"#utility.yul\":5266:5278   */\n      revert\n        /* \"#utility.yul\":6355:6482   */\n    tag_358:\n        /* \"#utility.yul\":6416:6426   */\n      0x4e487b71\n        /* \"#utility.yul\":6411:6414   */\n      0xe0\n        /* \"#utility.yul\":6407:6427   */\n      shl\n        /* \"#utility.yul\":6404:6405   */\n      0x00\n        /* \"#utility.yul\":6397:6428   */\n      mstore\n        /* \"#utility.yul\":6447:6451   */\n      0x11\n        /* \"#utility.yul\":6444:6445   */\n      0x04\n        /* \"#utility.yul\":6437:6452   */\n      mstore\n        /* \"#utility.yul\":6471:6475   */\n      0x24\n        /* \"#utility.yul\":6468:6469   */\n      0x00\n        /* \"#utility.yul\":6461:6476   */\n      revert\n        /* \"#utility.yul\":6487:6688   */\n    tag_258:\n        /* \"#utility.yul\":6525:6528   */\n      0x00\n        /* \"#utility.yul\":6553:6563   */\n      0xffffffff\n        /* \"#utility.yul\":6598:6600   */\n      dup1\n        /* \"#utility.yul\":6591:6596   */\n      dup4\n        /* \"#utility.yul\":6587:6601   */\n      and\n        /* \"#utility.yul\":6625:6627   */\n      dup2\n        /* \"#utility.yul\":6616:6623   */\n      dup2\n        /* \"#utility.yul\":6613:6628   */\n      sub\n        /* \"#utility.yul\":6610:6651   */\n      tag_406\n      jumpi\n        /* \"#utility.yul\":6631:6649   */\n      tag_406\n      tag_358\n      jump\t// in\n    tag_406:\n        /* \"#utility.yul\":6680:6681   */\n      0x01\n        /* \"#utility.yul\":6667:6682   */\n      add\n      swap4\n        /* \"#utility.yul\":6487:6688   */\n      swap3\n      pop\n      pop\n      pop\n      jump\t// out\n        /* \"#utility.yul\":8372:8556   */\n    tag_278:\n        /* \"#utility.yul\":8442:8448   */\n      0x00\n        /* \"#utility.yul\":8495:8497   */\n      0x20\n        /* \"#utility.yul\":8483:8492   */\n      dup3\n        /* \"#utility.yul\":8474:8481   */\n      dup5\n        /* \"#utility.yul\":8470:8493   */\n      sub\n        /* \"#utility.yul\":8466:8498   */\n      slt\n        /* \"#utility.yul\":8463:8515   */\n      iszero\n      tag_413\n      jumpi\n        /* \"#utility.yul\":8511:8512   */\n      0x00\n        /* \"#utility.yul\":8508:8509   */\n      dup1\n        /* \"#utility.yul\":8501:8513   */\n      revert\n        /* \"#utility.yul\":8463:8515   */\n    tag_413:\n      pop\n        /* \"#utility.yul\":8534:8550   */\n      mload\n      swap2\n        /* \"#utility.yul\":8372:8556   */\n      swap1\n      pop\n      jump\t// out\n        /* \"#utility.yul\":10756:10881   */\n    tag_347:\n        /* \"#utility.yul\":10796:10800   */\n      0x00\n        /* \"#utility.yul\":10824:10825   */\n      dup3\n        /* \"#utility.yul\":10821:10822   */\n      dup3\n        /* \"#utility.yul\":10818:10826   */\n      lt\n        /* \"#utility.yul\":10815:10849   */\n      iszero\n      tag_422\n      jumpi\n        /* \"#utility.yul\":10829:10847   */\n      tag_422\n      tag_358\n      jump\t// in\n    tag_422:\n      pop\n        /* \"#utility.yul\":10866:10875   */\n      sub\n      swap1\n        /* \"#utility.yul\":10756:10881   */\n      jump\t// out\n        /* \"#utility.yul\":10886:11103   */\n    tag_350:\n        /* \"#utility.yul\":10926:10927   */\n      0x00\n        /* \"#utility.yul\":10952:10953   */\n      dup3\n        /* \"#utility.yul\":10942:11074   */\n      tag_424\n      jumpi\n        /* \"#utility.yul\":10996:11006   */\n      0x4e487b71\n        /* \"#utility.yul\":10991:10994   */\n      0xe0\n        /* \"#utility.yul\":10987:11007   */\n      shl\n        /* \"#utility.yul\":10984:10985   */\n      0x00\n        /* \"#utility.yul\":10977:11008   */\n      mstore\n        /* \"#utility.yul\":11031:11035   */\n      0x12\n        /* \"#utility.yul\":11028:11029   */\n      0x04\n        /* \"#utility.yul\":11021:11036   */\n      mstore\n        /* \"#utility.yul\":11059:11063   */\n      0x24\n        /* \"#utility.yul\":11056:11057   */\n      0x00\n        /* \"#utility.yul\":11049:11064   */\n      revert\n        /* \"#utility.yul\":10942:11074   */\n    tag_424:\n      pop\n        /* \"#utility.yul\":11088:11097   */\n      div\n      swap1\n        /* \"#utility.yul\":10886:11103   */\n      jump\t// out\n        /* \"#utility.yul\":11108:11236   */\n    tag_353:\n        /* \"#utility.yul\":11148:11151   */\n      0x00\n        /* \"#utility.yul\":11179:11180   */\n      dup3\n        /* \"#utility.yul\":11175:11181   */\n      not\n        /* \"#utility.yul\":11172:11173   */\n      dup3\n        /* \"#utility.yul\":11169:11182   */\n      gt\n        /* \"#utility.yul\":11166:11205   */\n      iszero\n      tag_427\n      jumpi\n        /* \"#utility.yul\":11185:11203   */\n      tag_427\n      tag_358\n      jump\t// in\n    tag_427:\n      pop\n        /* \"#utility.yul\":11221:11230   */\n      add\n      swap1\n        /* \"#utility.yul\":11108:11236   */\n      jump\t// out\n        /* \"#utility.yul\":11241:11409   */\n    tag_356:\n        /* \"#utility.yul\":11281:11288   */\n      0x00\n        /* \"#utility.yul\":11347:11348   */\n      dup2\n        /* \"#utility.yul\":11343:11344   */\n      0x00\n        /* \"#utility.yul\":11339:11345   */\n      not\n        /* \"#utility.yul\":11335:11349   */\n      div\n        /* \"#utility.yul\":11332:11333   */\n      dup4\n        /* \"#utility.yul\":11329:11350   */\n      gt\n        /* \"#utility.yul\":11324:11325   */\n      dup3\n        /* \"#utility.yul\":11317:11326   */\n      iszero\n        /* \"#utility.yul\":11310:11327   */\n      iszero\n        /* \"#utility.yul\":11306:11351   */\n      and\n        /* \"#utility.yul\":11303:11374   */\n      iszero\n      tag_430\n      jumpi\n        /* \"#utility.yul\":11354:11372   */\n      tag_430\n      tag_358\n      jump\t// in\n    tag_430:\n      pop\n        /* \"#utility.yul\":11394:11403   */\n      mul\n      swap1\n        /* \"#utility.yul\":11241:11409   */\n      jump\t// out\n\n    auxdata: 0xa2646970667358221220927ae52e73a44fad5ca18877a6ed77620408306114f71efb64a0872d9f0baab864736f6c634300080f0033\n}\n",
				"bytecode": {
					"linkReferences": {},
					"object": "60e0604052600180546001600160a01b03199081167355d398326f99059ff775485246999027b31979551790915560028054821673eacad6c99965cde0f31513dd72de79fa2461076717905560038054821673e070cca5cdfb3f2b434fb91eaf67fa2084f324d7179055600480548216733caa5abc857473f8a31b619f0f7fe7bfbde35816179055600580549091167310ed43c718714eb63d5aa57b78b54704e256024e179055681b1ae4d6e2ef50000060065562015180600955674563918244f40000600a5568056bc75e2d63100000600b55600c8054690400000000000000000063ffffffff60401b199091161790553480156100fd57600080fd5b506040516117b53803806117b583398101604081905261011c9161022d565b610125336101dd565b4282101561016b5760405162461bcd60e51b815260206004820152600e60248201526d7374617274206174203c206e6f7760901b60448201526064015b60405180910390fd5b818110156101af5760405162461bcd60e51b8152602060048201526011602482015270195b9908185d080f081cdd185c9d08185d607a1b6044820152606401610162565b6007919091556008556001546001600160a01b03908116608052600254811660a0526003541660c052610251565b600080546001600160a01b038381166001600160a01b0319831681178455604051919092169283917f8be0079c531659141344cd1fd0a4f28419497f9722a3daafe3b4186f6b6457e09190a35050565b6000806040838503121561024057600080fd5b505080516020909101519092909150565b60805160a05160c0516115126102a3600039600081816103c601526109130152600081816104fe01528181610c8d0152610e6a01526000818161040801528181610bb70152610d8301526115126000f3fe608060405234801561001057600080fd5b50600436106102065760003560e01c80639769f0b01161011a578063d0febe4c116100ad578063f01fc57c1161007c578063f01fc57c146104a8578063f2fde38b146104b6578063fae92612146104c9578063faffbc5b146104dc578063fe05cc9c146104f957600080fd5b8063d0febe4c14610460578063d1d04e1f14610468578063d4cfbbca1461048d578063db2e21bc146104a057600080fd5b8063af94862c116100e9578063af94862c1461042a578063c493b6e51461043d578063c828371e14610450578063c9ede7931461045857600080fd5b80639769f0b0146103c15780639e5288a0146103e8578063a4c3b091146103f0578063a98ad46c1461040357600080fd5b80634c8b16f41161019d5780638568f4ce1161016c5780638568f4ce1461034157806388af60c61461036a5780638da5cb5b1461037d57806390f5881a1461038e57806395623641146103ae57600080fd5b80634c8b16f4146103165780636a5ff66f14610329578063715018a61461033157806378eb6c6f1461033957600080fd5b8063374eedef116101d9578063374eedef1461029c5780633817c9c1146102d85780633d719da7146102eb578063439f5ac21461030e57600080fd5b8063027734fa1461020b57806303d7424d1461023b57806304be093f14610266578063224a7c6a14610287575b600080fd5b60035461021e906001600160a01b031681565b6040516001600160a01b0390911681526020015b60405180910390f35b600c54640100000000900463ffffffff165b60405167ffffffffffffffff9091168152602001610232565b610279610274366004611208565b610520565b604051908152602001610232565b61029a610295366004611208565b610644565b005b6102c86102aa36600461123d565b6001600160a01b03166000908152600e602052604090205460ff1690565b6040519015158152602001610232565b6102796102e6366004611208565b61067c565b6102c86102f936600461123d565b600e6020526000908152604090205460ff1681565b600854610279565b61029a610324366004611208565b6106f2565b600b54610279565b61029a610721565b600654610279565b61027961034f36600461123d565b6001600160a01b03166000908152600d602052604090205490565b60015461021e906001600160a01b031681565b6000546001600160a01b031661021e565b61027961039c36600461123d565b600d6020526000908152604090205481565b60045461021e906001600160a01b031681565b61021e7f000000000000000000000000000000000000000000000000000000000000000081565b610279610757565b61029a6103fe366004611258565b610784565b61021e7f000000000000000000000000000000000000000000000000000000000000000081565b61029a610438366004611208565b610824565b60055461021e906001600160a01b031681565b600754610279565b61029a610853565b61029a610a55565b600c54600160401b900463ffffffff1660405163ffffffff9091168152602001610232565b60025461021e906001600160a01b031681565b61029a610fcb565b600c5463ffffffff1661024d565b61029a6104c436600461123d565b611032565b61029a6104d736600461123d565b6110ca565b6104e4611116565b60408051928352602083019190915201610232565b61021e7f000000000000000000000000000000000000000000000000000000000000000081565b60408051600280825260608201835260009283929190602083019080368337505060025482519293506001600160a01b03169183915060009061056557610565611298565b6001600160a01b039283166020918202929092010152600180548351921691839190811061059557610595611298565b6001600160a01b03928316602091820292909201015260055460405163d06ca61f60e01b8152600092919091169063d06ca61f906105d990879086906004016112ae565b600060405180830381865afa1580156105f6573d6000803e3d6000fd5b505050506040513d6000823e601f3d908101601f1916820160405261061e9190810190611305565b90508060018151811061063357610633611298565b602002602001015192505050919050565b6000546001600160a01b031633146106775760405162461bcd60e51b815260040161066e906113c3565b60405180910390fd5b600b55565b60408051600280825260608201835260009283929190602083019080368337505060015482519293506001600160a01b0316918391506000906106c1576106c1611298565b6001600160a01b03928316602091820292909201015260025482519116908290600190811061059557610595611298565b6000546001600160a01b0316331461071c5760405162461bcd60e51b815260040161066e906113c3565b600955565b6000546001600160a01b0316331461074b5760405162461bcd60e51b815260040161066e906113c3565b6107556000611181565b565b60008042905061077e600954610778600754846111d190919063ffffffff16565b906111e4565b91505090565b6000546001600160a01b031633146107ae5760405162461bcd60e51b815260040161066e906113c3565b60405163a9059cbb60e01b8152336004820152602481018290526001600160a01b0383169063a9059cbb906044016020604051808303816000875af11580156107fb573d6000803e3d6000fd5b505050506040513d601f19601f8201168201806040525081019061081f91906113f8565b505050565b6000546001600160a01b0316331461084e5760405162461bcd60e51b815260040161066e906113c3565b600a55565b42600854106108965760405162461bcd60e51b815260206004820152600f60248201526e1c1c995cd95b1b081b9bdd08195b99608a1b604482015260640161066e565b336000908152600d60205260409020546108e65760405162461bcd60e51b8152602060048201526011602482015270757365722062616c616e6365207a65726f60781b604482015260640161066e565b336000818152600d602052604080822054905163a9059cbb60e01b815260048101939093526024830152907f00000000000000000000000000000000000000000000000000000000000000006001600160a01b03169063a9059cbb906044016020604051808303816000875af1158015610964573d6000803e3d6000fd5b505050506040513d601f19601f8201168201806040525081019061098891906113f8565b9050806109cf5760405162461bcd60e51b8152602060048201526015602482015274151bdad95b881d1c985b9cd9995c8819985a5b1959605a1b604482015260640161066e565b336000908152600d6020526040812055600c8054640100000000900463ffffffff169060046109fd83611430565b91906101000a81548163ffffffff021916908363ffffffff16021790555050336001600160a01b03167ff67611512e0a2d90c96fd3f08dca4971bc45fba9dc679eabe839a32abbe58a8e60405160405180910390a250565b4260075410610a925760405162461bcd60e51b81526020600482015260096024820152681b9bdd081cdd185c9d60ba1b604482015260640161066e565b4260085411610acd5760405162461bcd60e51b81526020600482015260076024820152661a185cc8195b9960ca1b604482015260640161066e565b600c5463ffffffff600160401b8204811691161115610b2e5760405162461bcd60e51b815260206004820152601760248201527f5072652d6f72646572732061726520736f6c64206f7574000000000000000000604482015260640161066e565b336000908152600e602052604090205460ff1615610b825760405162461bcd60e51b8152602060048201526011602482015270185b1c9958591e481c1d5c98da185cd959607a1b604482015260640161066e565b600080610b8d611116565b604051636eb1769f60e11b8152336004820152306024820152919350915081906001600160a01b037f0000000000000000000000000000000000000000000000000000000000000000169063dd62ed3e90604401602060405180830381865afa158015610bfe573d6000803e3d6000fd5b505050506040513d601f19601f82011682018060405250810190610c229190611453565b1015610c705760405162461bcd60e51b815260206004820152601b60248201527f75736474546f6b656e20616c6c6f77616e636520746f6f206c6f770000000000604482015260640161066e565b604051636eb1769f60e11b815233600482015230602482015282907f00000000000000000000000000000000000000000000000000000000000000006001600160a01b03169063dd62ed3e90604401602060405180830381865afa158015610cdc573d6000803e3d6000fd5b505050506040513d601f19601f82011682018060405250810190610d009190611453565b1015610d4e5760405162461bcd60e51b815260206004820152601a60248201527f6d7363546f6b656e20616c6c6f77616e636520746f6f206c6f77000000000000604482015260640161066e565b600480546040516323b872dd60e01b815233928101929092526001600160a01b039081166024830152604482018390526000917f0000000000000000000000000000000000000000000000000000000000000000909116906323b872dd906064016020604051808303816000875af1158015610dce573d6000803e3d6000fd5b505050506040513d601f19601f82011682018060405250810190610df291906113f8565b905080610e385760405162461bcd60e51b8152602060048201526014602482015273155cd91d081d1c985b9cd9995c8819985a5b195960621b604482015260640161066e565b600480546040516323b872dd60e01b815233928101929092526001600160a01b039081166024830152604482018590527f000000000000000000000000000000000000000000000000000000000000000016906323b872dd906064016020604051808303816000875af1158015610eb3573d6000803e3d6000fd5b505050506040513d601f19601f82011682018060405250810190610ed791906113f8565b905080610f1c5760405162461bcd60e51b8152602060048201526013602482015272135cd8c81d1c985b9cd9995c8819985a5b1959606a1b604482015260640161066e565b600654336000908152600d6020908152604080832093909355600e9052908120805460ff19166001179055600c805463ffffffff1691610f5b83611430565b91906101000a81548163ffffffff021916908363ffffffff16021790555050336001600160a01b03167f936801119fce055a11a9ae8106c09cd34006a6c3d16bf925c2d8af5c234e7d2b8484604051610fbe929190918252602082015260400190565b60405180910390a2505050565b6000546001600160a01b03163314610ff55760405162461bcd60e51b815260040161066e906113c3565b600080546040516001600160a01b03909116914780156108fc02929091818181858888f1935050505015801561102f573d6000803e3d6000fd5b50565b6000546001600160a01b0316331461105c5760405162461bcd60e51b815260040161066e906113c3565b6001600160a01b0381166110c15760405162461bcd60e51b815260206004820152602660248201527f4f776e61626c653a206e6577206f776e657220697320746865207a65726f206160448201526564647265737360d01b606482015260840161066e565b61102f81611181565b6000546001600160a01b031633146110f45760405162461bcd60e51b815260040161066e906113c3565b600480546001600160a01b0319166001600160a01b0392909216919091179055565b6000806000611123610757565b90506000611148600a5461114284600b546111f090919063ffffffff16565b906111fc565b9050600061115c60646107788460506111fc565b9050600061116a83836111d1565b90506111758161067c565b96919550909350505050565b600080546001600160a01b038381166001600160a01b0319831681178455604051919092169283917f8be0079c531659141344cd1fd0a4f28419497f9722a3daafe3b4186f6b6457e09190a35050565b60006111dd828461146c565b9392505050565b60006111dd8284611483565b60006111dd82846114a5565b60006111dd82846114bd565b60006020828403121561121a57600080fd5b5035919050565b80356001600160a01b038116811461123857600080fd5b919050565b60006020828403121561124f57600080fd5b6111dd82611221565b6000806040838503121561126b57600080fd5b61127483611221565b946020939093013593505050565b634e487b7160e01b600052604160045260246000fd5b634e487b7160e01b600052603260045260246000fd5b6000604082018483526020604081850152818551808452606086019150828701935060005b818110156112f85784516001600160a01b0316835293830193918301916001016112d3565b5090979650505050505050565b6000602080838503121561131857600080fd5b825167ffffffffffffffff8082111561133057600080fd5b818501915085601f83011261134457600080fd5b81518181111561135657611356611282565b8060051b604051601f19603f8301168101818110858211171561137b5761137b611282565b60405291825284820192508381018501918883111561139957600080fd5b938501935b828510156113b75784518452938501939285019261139e565b98975050505050505050565b6020808252818101527f4f776e61626c653a2063616c6c6572206973206e6f7420746865206f776e6572604082015260600190565b60006020828403121561140a57600080fd5b815180151581146111dd57600080fd5b634e487b7160e01b600052601160045260246000fd5b600063ffffffff8083168181036114495761144961141a565b6001019392505050565b60006020828403121561146557600080fd5b5051919050565b60008282101561147e5761147e61141a565b500390565b6000826114a057634e487b7160e01b600052601260045260246000fd5b500490565b600082198211156114b8576114b861141a565b500190565b60008160001904831182151516156114d7576114d761141a565b50029056fea2646970667358221220927ae52e73a44fad5ca18877a6ed77620408306114f71efb64a0872d9f0baab864736f6c634300080f0033",
					"opcodes": "PUSH1 0xE0 PUSH1 0x40 MSTORE PUSH1 0x1 DUP1 SLOAD PUSH1 0x1 PUSH1 0x1 PUSH1 0xA0 SHL SUB NOT SWAP1 DUP2 AND PUSH20 0x55D398326F99059FF775485246999027B3197955 OR SWAP1 SWAP2 SSTORE PUSH1 0x2 DUP1 SLOAD DUP3 AND PUSH20 0xEACAD6C99965CDE0F31513DD72DE79FA24610767 OR SWAP1 SSTORE PUSH1 0x3 DUP1 SLOAD DUP3 AND PUSH20 0xE070CCA5CDFB3F2B434FB91EAF67FA2084F324D7 OR SWAP1 SSTORE PUSH1 0x4 DUP1 SLOAD DUP3 AND PUSH20 0x3CAA5ABC857473F8A31B619F0F7FE7BFBDE35816 OR SWAP1 SSTORE PUSH1 0x5 DUP1 SLOAD SWAP1 SWAP2 AND PUSH20 0x10ED43C718714EB63D5AA57B78B54704E256024E OR SWAP1 SSTORE PUSH9 0x1B1AE4D6E2EF500000 PUSH1 0x6 SSTORE PUSH3 0x15180 PUSH1 0x9 SSTORE PUSH8 0x4563918244F40000 PUSH1 0xA SSTORE PUSH9 0x56BC75E2D63100000 PUSH1 0xB SSTORE PUSH1 0xC DUP1 SLOAD PUSH10 0x4000000000000000000 PUSH4 0xFFFFFFFF PUSH1 0x40 SHL NOT SWAP1 SWAP2 AND OR SWAP1 SSTORE CALLVALUE DUP1 ISZERO PUSH2 0xFD JUMPI PUSH1 0x0 DUP1 REVERT JUMPDEST POP PUSH1 0x40 MLOAD PUSH2 0x17B5 CODESIZE SUB DUP1 PUSH2 0x17B5 DUP4 CODECOPY DUP2 ADD PUSH1 0x40 DUP2 SWAP1 MSTORE PUSH2 0x11C SWAP2 PUSH2 0x22D JUMP JUMPDEST PUSH2 0x125 CALLER PUSH2 0x1DD JUMP JUMPDEST TIMESTAMP DUP3 LT ISZERO PUSH2 0x16B JUMPI PUSH1 0x40 MLOAD PUSH3 0x461BCD PUSH1 0xE5 SHL DUP2 MSTORE PUSH1 0x20 PUSH1 0x4 DUP3 ADD MSTORE PUSH1 0xE PUSH1 0x24 DUP3 ADD MSTORE PUSH14 0x7374617274206174203C206E6F77 PUSH1 0x90 SHL PUSH1 0x44 DUP3 ADD MSTORE PUSH1 0x64 ADD JUMPDEST PUSH1 0x40 MLOAD DUP1 SWAP2 SUB SWAP1 REVERT JUMPDEST DUP2 DUP2 LT ISZERO PUSH2 0x1AF JUMPI PUSH1 0x40 MLOAD PUSH3 0x461BCD PUSH1 0xE5 SHL DUP2 MSTORE PUSH1 0x20 PUSH1 0x4 DUP3 ADD MSTORE PUSH1 0x11 PUSH1 0x24 DUP3 ADD MSTORE PUSH17 0x195B9908185D080F081CDD185C9D08185D PUSH1 0x7A SHL PUSH1 0x44 DUP3 ADD MSTORE PUSH1 0x64 ADD PUSH2 0x162 JUMP JUMPDEST PUSH1 0x7 SWAP2 SWAP1 SWAP2 SSTORE PUSH1 0x8 SSTORE PUSH1 0x1 SLOAD PUSH1 0x1 PUSH1 0x1 PUSH1 0xA0 SHL SUB SWAP1 DUP2 AND PUSH1 0x80 MSTORE PUSH1 0x2 SLOAD DUP2 AND PUSH1 0xA0 MSTORE PUSH1 0x3 SLOAD AND PUSH1 0xC0 MSTORE PUSH2 0x251 JUMP JUMPDEST PUSH1 0x0 DUP1 SLOAD PUSH1 0x1 PUSH1 0x1 PUSH1 0xA0 SHL SUB DUP4 DUP2 AND PUSH1 0x1 PUSH1 0x1 PUSH1 0xA0 SHL SUB NOT DUP4 AND DUP2 OR DUP5 SSTORE PUSH1 0x40 MLOAD SWAP2 SWAP1 SWAP3 AND SWAP3 DUP4 SWAP2 PUSH32 0x8BE0079C531659141344CD1FD0A4F28419497F9722A3DAAFE3B4186F6B6457E0 SWAP2 SWAP1 LOG3 POP POP JUMP JUMPDEST PUSH1 0x0 DUP1 PUSH1 0x40 DUP4 DUP6 SUB SLT ISZERO PUSH2 0x240 JUMPI PUSH1 0x0 DUP1 REVERT JUMPDEST POP POP DUP1 MLOAD PUSH1 0x20 SWAP1 SWAP2 ADD MLOAD SWAP1 SWAP3 SWAP1 SWAP2 POP JUMP JUMPDEST PUSH1 0x80 MLOAD PUSH1 0xA0 MLOAD PUSH1 0xC0 MLOAD PUSH2 0x1512 PUSH2 0x2A3 PUSH1 0x0 CODECOPY PUSH1 0x0 DUP2 DUP2 PUSH2 0x3C6 ADD MSTORE PUSH2 0x913 ADD MSTORE PUSH1 0x0 DUP2 DUP2 PUSH2 0x4FE ADD MSTORE DUP2 DUP2 PUSH2 0xC8D ADD MSTORE PUSH2 0xE6A ADD MSTORE PUSH1 0x0 DUP2 DUP2 PUSH2 0x408 ADD MSTORE DUP2 DUP2 PUSH2 0xBB7 ADD MSTORE PUSH2 0xD83 ADD MSTORE PUSH2 0x1512 PUSH1 0x0 RETURN INVALID PUSH1 0x80 PUSH1 0x40 MSTORE CALLVALUE DUP1 ISZERO PUSH2 0x10 JUMPI PUSH1 0x0 DUP1 REVERT JUMPDEST POP PUSH1 0x4 CALLDATASIZE LT PUSH2 0x206 JUMPI PUSH1 0x0 CALLDATALOAD PUSH1 0xE0 SHR DUP1 PUSH4 0x9769F0B0 GT PUSH2 0x11A JUMPI DUP1 PUSH4 0xD0FEBE4C GT PUSH2 0xAD JUMPI DUP1 PUSH4 0xF01FC57C GT PUSH2 0x7C JUMPI DUP1 PUSH4 0xF01FC57C EQ PUSH2 0x4A8 JUMPI DUP1 PUSH4 0xF2FDE38B EQ PUSH2 0x4B6 JUMPI DUP1 PUSH4 0xFAE92612 EQ PUSH2 0x4C9 JUMPI DUP1 PUSH4 0xFAFFBC5B EQ PUSH2 0x4DC JUMPI DUP1 PUSH4 0xFE05CC9C EQ PUSH2 0x4F9 JUMPI PUSH1 0x0 DUP1 REVERT JUMPDEST DUP1 PUSH4 0xD0FEBE4C EQ PUSH2 0x460 JUMPI DUP1 PUSH4 0xD1D04E1F EQ PUSH2 0x468 JUMPI DUP1 PUSH4 0xD4CFBBCA EQ PUSH2 0x48D JUMPI DUP1 PUSH4 0xDB2E21BC EQ PUSH2 0x4A0 JUMPI PUSH1 0x0 DUP1 REVERT JUMPDEST DUP1 PUSH4 0xAF94862C GT PUSH2 0xE9 JUMPI DUP1 PUSH4 0xAF94862C EQ PUSH2 0x42A JUMPI DUP1 PUSH4 0xC493B6E5 EQ PUSH2 0x43D JUMPI DUP1 PUSH4 0xC828371E EQ PUSH2 0x450 JUMPI DUP1 PUSH4 0xC9EDE793 EQ PUSH2 0x458 JUMPI PUSH1 0x0 DUP1 REVERT JUMPDEST DUP1 PUSH4 0x9769F0B0 EQ PUSH2 0x3C1 JUMPI DUP1 PUSH4 0x9E5288A0 EQ PUSH2 0x3E8 JUMPI DUP1 PUSH4 0xA4C3B091 EQ PUSH2 0x3F0 JUMPI DUP1 PUSH4 0xA98AD46C EQ PUSH2 0x403 JUMPI PUSH1 0x0 DUP1 REVERT JUMPDEST DUP1 PUSH4 0x4C8B16F4 GT PUSH2 0x19D JUMPI DUP1 PUSH4 0x8568F4CE GT PUSH2 0x16C JUMPI DUP1 PUSH4 0x8568F4CE EQ PUSH2 0x341 JUMPI DUP1 PUSH4 0x88AF60C6 EQ PUSH2 0x36A JUMPI DUP1 PUSH4 0x8DA5CB5B EQ PUSH2 0x37D JUMPI DUP1 PUSH4 0x90F5881A EQ PUSH2 0x38E JUMPI DUP1 PUSH4 0x95623641 EQ PUSH2 0x3AE JUMPI PUSH1 0x0 DUP1 REVERT JUMPDEST DUP1 PUSH4 0x4C8B16F4 EQ PUSH2 0x316 JUMPI DUP1 PUSH4 0x6A5FF66F EQ PUSH2 0x329 JUMPI DUP1 PUSH4 0x715018A6 EQ PUSH2 0x331 JUMPI DUP1 PUSH4 0x78EB6C6F EQ PUSH2 0x339 JUMPI PUSH1 0x0 DUP1 REVERT JUMPDEST DUP1 PUSH4 0x374EEDEF GT PUSH2 0x1D9 JUMPI DUP1 PUSH4 0x374EEDEF EQ PUSH2 0x29C JUMPI DUP1 PUSH4 0x3817C9C1 EQ PUSH2 0x2D8 JUMPI DUP1 PUSH4 0x3D719DA7 EQ PUSH2 0x2EB JUMPI DUP1 PUSH4 0x439F5AC2 EQ PUSH2 0x30E JUMPI PUSH1 0x0 DUP1 REVERT JUMPDEST DUP1 PUSH4 0x27734FA EQ PUSH2 0x20B JUMPI DUP1 PUSH4 0x3D7424D EQ PUSH2 0x23B JUMPI DUP1 PUSH4 0x4BE093F EQ PUSH2 0x266 JUMPI DUP1 PUSH4 0x224A7C6A EQ PUSH2 0x287 JUMPI JUMPDEST PUSH1 0x0 DUP1 REVERT JUMPDEST PUSH1 0x3 SLOAD PUSH2 0x21E SWAP1 PUSH1 0x1 PUSH1 0x1 PUSH1 0xA0 SHL SUB AND DUP2 JUMP JUMPDEST PUSH1 0x40 MLOAD PUSH1 0x1 PUSH1 0x1 PUSH1 0xA0 SHL SUB SWAP1 SWAP2 AND DUP2 MSTORE PUSH1 0x20 ADD JUMPDEST PUSH1 0x40 MLOAD DUP1 SWAP2 SUB SWAP1 RETURN JUMPDEST PUSH1 0xC SLOAD PUSH5 0x100000000 SWAP1 DIV PUSH4 0xFFFFFFFF AND JUMPDEST PUSH1 0x40 MLOAD PUSH8 0xFFFFFFFFFFFFFFFF SWAP1 SWAP2 AND DUP2 MSTORE PUSH1 0x20 ADD PUSH2 0x232 JUMP JUMPDEST PUSH2 0x279 PUSH2 0x274 CALLDATASIZE PUSH1 0x4 PUSH2 0x1208 JUMP JUMPDEST PUSH2 0x520 JUMP JUMPDEST PUSH1 0x40 MLOAD SWAP1 DUP2 MSTORE PUSH1 0x20 ADD PUSH2 0x232 JUMP JUMPDEST PUSH2 0x29A PUSH2 0x295 CALLDATASIZE PUSH1 0x4 PUSH2 0x1208 JUMP JUMPDEST PUSH2 0x644 JUMP JUMPDEST STOP JUMPDEST PUSH2 0x2C8 PUSH2 0x2AA CALLDATASIZE PUSH1 0x4 PUSH2 0x123D JUMP JUMPDEST PUSH1 0x1 PUSH1 0x1 PUSH1 0xA0 SHL SUB AND PUSH1 0x0 SWAP1 DUP2 MSTORE PUSH1 0xE PUSH1 0x20 MSTORE PUSH1 0x40 SWAP1 KECCAK256 SLOAD PUSH1 0xFF AND SWAP1 JUMP JUMPDEST PUSH1 0x40 MLOAD SWAP1 ISZERO ISZERO DUP2 MSTORE PUSH1 0x20 ADD PUSH2 0x232 JUMP JUMPDEST PUSH2 0x279 PUSH2 0x2E6 CALLDATASIZE PUSH1 0x4 PUSH2 0x1208 JUMP JUMPDEST PUSH2 0x67C JUMP JUMPDEST PUSH2 0x2C8 PUSH2 0x2F9 CALLDATASIZE PUSH1 0x4 PUSH2 0x123D JUMP JUMPDEST PUSH1 0xE PUSH1 0x20 MSTORE PUSH1 0x0 SWAP1 DUP2 MSTORE PUSH1 0x40 SWAP1 KECCAK256 SLOAD PUSH1 0xFF AND DUP2 JUMP JUMPDEST PUSH1 0x8 SLOAD PUSH2 0x279 JUMP JUMPDEST PUSH2 0x29A PUSH2 0x324 CALLDATASIZE PUSH1 0x4 PUSH2 0x1208 JUMP JUMPDEST PUSH2 0x6F2 JUMP JUMPDEST PUSH1 0xB SLOAD PUSH2 0x279 JUMP JUMPDEST PUSH2 0x29A PUSH2 0x721 JUMP JUMPDEST PUSH1 0x6 SLOAD PUSH2 0x279 JUMP JUMPDEST PUSH2 0x279 PUSH2 0x34F CALLDATASIZE PUSH1 0x4 PUSH2 0x123D JUMP JUMPDEST PUSH1 0x1 PUSH1 0x1 PUSH1 0xA0 SHL SUB AND PUSH1 0x0 SWAP1 DUP2 MSTORE PUSH1 0xD PUSH1 0x20 MSTORE PUSH1 0x40 SWAP1 KECCAK256 SLOAD SWAP1 JUMP JUMPDEST PUSH1 0x1 SLOAD PUSH2 0x21E SWAP1 PUSH1 0x1 PUSH1 0x1 PUSH1 0xA0 SHL SUB AND DUP2 JUMP JUMPDEST PUSH1 0x0 SLOAD PUSH1 0x1 PUSH1 0x1 PUSH1 0xA0 SHL SUB AND PUSH2 0x21E JUMP JUMPDEST PUSH2 0x279 PUSH2 0x39C CALLDATASIZE PUSH1 0x4 PUSH2 0x123D JUMP JUMPDEST PUSH1 0xD PUSH1 0x20 MSTORE PUSH1 0x0 SWAP1 DUP2 MSTORE PUSH1 0x40 SWAP1 KECCAK256 SLOAD DUP2 JUMP JUMPDEST PUSH1 0x4 SLOAD PUSH2 0x21E SWAP1 PUSH1 0x1 PUSH1 0x1 PUSH1 0xA0 SHL SUB AND DUP2 JUMP JUMPDEST PUSH2 0x21E PUSH32 0x0 DUP2 JUMP JUMPDEST PUSH2 0x279 PUSH2 0x757 JUMP JUMPDEST PUSH2 0x29A PUSH2 0x3FE CALLDATASIZE PUSH1 0x4 PUSH2 0x1258 JUMP JUMPDEST PUSH2 0x784 JUMP JUMPDEST PUSH2 0x21E PUSH32 0x0 DUP2 JUMP JUMPDEST PUSH2 0x29A PUSH2 0x438 CALLDATASIZE PUSH1 0x4 PUSH2 0x1208 JUMP JUMPDEST PUSH2 0x824 JUMP JUMPDEST PUSH1 0x5 SLOAD PUSH2 0x21E SWAP1 PUSH1 0x1 PUSH1 0x1 PUSH1 0xA0 SHL SUB AND DUP2 JUMP JUMPDEST PUSH1 0x7 SLOAD PUSH2 0x279 JUMP JUMPDEST PUSH2 0x29A PUSH2 0x853 JUMP JUMPDEST PUSH2 0x29A PUSH2 0xA55 JUMP JUMPDEST PUSH1 0xC SLOAD PUSH1 0x1 PUSH1 0x40 SHL SWAP1 DIV PUSH4 0xFFFFFFFF AND PUSH1 0x40 MLOAD PUSH4 0xFFFFFFFF SWAP1 SWAP2 AND DUP2 MSTORE PUSH1 0x20 ADD PUSH2 0x232 JUMP JUMPDEST PUSH1 0x2 SLOAD PUSH2 0x21E SWAP1 PUSH1 0x1 PUSH1 0x1 PUSH1 0xA0 SHL SUB AND DUP2 JUMP JUMPDEST PUSH2 0x29A PUSH2 0xFCB JUMP JUMPDEST PUSH1 0xC SLOAD PUSH4 0xFFFFFFFF AND PUSH2 0x24D JUMP JUMPDEST PUSH2 0x29A PUSH2 0x4C4 CALLDATASIZE PUSH1 0x4 PUSH2 0x123D JUMP JUMPDEST PUSH2 0x1032 JUMP JUMPDEST PUSH2 0x29A PUSH2 0x4D7 CALLDATASIZE PUSH1 0x4 PUSH2 0x123D JUMP JUMPDEST PUSH2 0x10CA JUMP JUMPDEST PUSH2 0x4E4 PUSH2 0x1116 JUMP JUMPDEST PUSH1 0x40 DUP1 MLOAD SWAP3 DUP4 MSTORE PUSH1 0x20 DUP4 ADD SWAP2 SWAP1 SWAP2 MSTORE ADD PUSH2 0x232 JUMP JUMPDEST PUSH2 0x21E PUSH32 0x0 DUP2 JUMP JUMPDEST PUSH1 0x40 DUP1 MLOAD PUSH1 0x2 DUP1 DUP3 MSTORE PUSH1 0x60 DUP3 ADD DUP4 MSTORE PUSH1 0x0 SWAP3 DUP4 SWAP3 SWAP2 SWAP1 PUSH1 0x20 DUP4 ADD SWAP1 DUP1 CALLDATASIZE DUP4 CALLDATACOPY POP POP PUSH1 0x2 SLOAD DUP3 MLOAD SWAP3 SWAP4 POP PUSH1 0x1 PUSH1 0x1 PUSH1 0xA0 SHL SUB AND SWAP2 DUP4 SWAP2 POP PUSH1 0x0 SWAP1 PUSH2 0x565 JUMPI PUSH2 0x565 PUSH2 0x1298 JUMP JUMPDEST PUSH1 0x1 PUSH1 0x1 PUSH1 0xA0 SHL SUB SWAP3 DUP4 AND PUSH1 0x20 SWAP2 DUP3 MUL SWAP3 SWAP1 SWAP3 ADD ADD MSTORE PUSH1 0x1 DUP1 SLOAD DUP4 MLOAD SWAP3 AND SWAP2 DUP4 SWAP2 SWAP1 DUP2 LT PUSH2 0x595 JUMPI PUSH2 0x595 PUSH2 0x1298 JUMP JUMPDEST PUSH1 0x1 PUSH1 0x1 PUSH1 0xA0 SHL SUB SWAP3 DUP4 AND PUSH1 0x20 SWAP2 DUP3 MUL SWAP3 SWAP1 SWAP3 ADD ADD MSTORE PUSH1 0x5 SLOAD PUSH1 0x40 MLOAD PUSH4 0xD06CA61F PUSH1 0xE0 SHL DUP2 MSTORE PUSH1 0x0 SWAP3 SWAP2 SWAP1 SWAP2 AND SWAP1 PUSH4 0xD06CA61F SWAP1 PUSH2 0x5D9 SWAP1 DUP8 SWAP1 DUP7 SWAP1 PUSH1 0x4 ADD PUSH2 0x12AE JUMP JUMPDEST PUSH1 0x0 PUSH1 0x40 MLOAD DUP1 DUP4 SUB DUP2 DUP7 GAS STATICCALL ISZERO DUP1 ISZERO PUSH2 0x5F6 JUMPI RETURNDATASIZE PUSH1 0x0 DUP1 RETURNDATACOPY RETURNDATASIZE PUSH1 0x0 REVERT JUMPDEST POP POP POP POP PUSH1 0x40 MLOAD RETURNDATASIZE PUSH1 0x0 DUP3 RETURNDATACOPY PUSH1 0x1F RETURNDATASIZE SWAP1 DUP2 ADD PUSH1 0x1F NOT AND DUP3 ADD PUSH1 0x40 MSTORE PUSH2 0x61E SWAP2 SWAP1 DUP2 ADD SWAP1 PUSH2 0x1305 JUMP JUMPDEST SWAP1 POP DUP1 PUSH1 0x1 DUP2 MLOAD DUP2 LT PUSH2 0x633 JUMPI PUSH2 0x633 PUSH2 0x1298 JUMP JUMPDEST PUSH1 0x20 MUL PUSH1 0x20 ADD ADD MLOAD SWAP3 POP POP POP SWAP2 SWAP1 POP JUMP JUMPDEST PUSH1 0x0 SLOAD PUSH1 0x1 PUSH1 0x1 PUSH1 0xA0 SHL SUB AND CALLER EQ PUSH2 0x677 JUMPI PUSH1 0x40 MLOAD PUSH3 0x461BCD PUSH1 0xE5 SHL DUP2 MSTORE PUSH1 0x4 ADD PUSH2 0x66E SWAP1 PUSH2 0x13C3 JUMP JUMPDEST PUSH1 0x40 MLOAD DUP1 SWAP2 SUB SWAP1 REVERT JUMPDEST PUSH1 0xB SSTORE JUMP JUMPDEST PUSH1 0x40 DUP1 MLOAD PUSH1 0x2 DUP1 DUP3 MSTORE PUSH1 0x60 DUP3 ADD DUP4 MSTORE PUSH1 0x0 SWAP3 DUP4 SWAP3 SWAP2 SWAP1 PUSH1 0x20 DUP4 ADD SWAP1 DUP1 CALLDATASIZE DUP4 CALLDATACOPY POP POP PUSH1 0x1 SLOAD DUP3 MLOAD SWAP3 SWAP4 POP PUSH1 0x1 PUSH1 0x1 PUSH1 0xA0 SHL SUB AND SWAP2 DUP4 SWAP2 POP PUSH1 0x0 SWAP1 PUSH2 0x6C1 JUMPI PUSH2 0x6C1 PUSH2 0x1298 JUMP JUMPDEST PUSH1 0x1 PUSH1 0x1 PUSH1 0xA0 SHL SUB SWAP3 DUP4 AND PUSH1 0x20 SWAP2 DUP3 MUL SWAP3 SWAP1 SWAP3 ADD ADD MSTORE PUSH1 0x2 SLOAD DUP3 MLOAD SWAP2 AND SWAP1 DUP3 SWAP1 PUSH1 0x1 SWAP1 DUP2 LT PUSH2 0x595 JUMPI PUSH2 0x595 PUSH2 0x1298 JUMP JUMPDEST PUSH1 0x0 SLOAD PUSH1 0x1 PUSH1 0x1 PUSH1 0xA0 SHL SUB AND CALLER EQ PUSH2 0x71C JUMPI PUSH1 0x40 MLOAD PUSH3 0x461BCD PUSH1 0xE5 SHL DUP2 MSTORE PUSH1 0x4 ADD PUSH2 0x66E SWAP1 PUSH2 0x13C3 JUMP JUMPDEST PUSH1 0x9 SSTORE JUMP JUMPDEST PUSH1 0x0 SLOAD PUSH1 0x1 PUSH1 0x1 PUSH1 0xA0 SHL SUB AND CALLER EQ PUSH2 0x74B JUMPI PUSH1 0x40 MLOAD PUSH3 0x461BCD PUSH1 0xE5 SHL DUP2 MSTORE PUSH1 0x4 ADD PUSH2 0x66E SWAP1 PUSH2 0x13C3 JUMP JUMPDEST PUSH2 0x755 PUSH1 0x0 PUSH2 0x1181 JUMP JUMPDEST JUMP JUMPDEST PUSH1 0x0 DUP1 TIMESTAMP SWAP1 POP PUSH2 0x77E PUSH1 0x9 SLOAD PUSH2 0x778 PUSH1 0x7 SLOAD DUP5 PUSH2 0x11D1 SWAP1 SWAP2 SWAP1 PUSH4 0xFFFFFFFF AND JUMP JUMPDEST SWAP1 PUSH2 0x11E4 JUMP JUMPDEST SWAP2 POP POP SWAP1 JUMP JUMPDEST PUSH1 0x0 SLOAD PUSH1 0x1 PUSH1 0x1 PUSH1 0xA0 SHL SUB AND CALLER EQ PUSH2 0x7AE JUMPI PUSH1 0x40 MLOAD PUSH3 0x461BCD PUSH1 0xE5 SHL DUP2 MSTORE PUSH1 0x4 ADD PUSH2 0x66E SWAP1 PUSH2 0x13C3 JUMP JUMPDEST PUSH1 0x40 MLOAD PUSH4 0xA9059CBB PUSH1 0xE0 SHL DUP2 MSTORE CALLER PUSH1 0x4 DUP3 ADD MSTORE PUSH1 0x24 DUP2 ADD DUP3 SWAP1 MSTORE PUSH1 0x1 PUSH1 0x1 PUSH1 0xA0 SHL SUB DUP4 AND SWAP1 PUSH4 0xA9059CBB SWAP1 PUSH1 0x44 ADD PUSH1 0x20 PUSH1 0x40 MLOAD DUP1 DUP4 SUB DUP2 PUSH1 0x0 DUP8 GAS CALL ISZERO DUP1 ISZERO PUSH2 0x7FB JUMPI RETURNDATASIZE PUSH1 0x0 DUP1 RETURNDATACOPY RETURNDATASIZE PUSH1 0x0 REVERT JUMPDEST POP POP POP POP PUSH1 0x40 MLOAD RETURNDATASIZE PUSH1 0x1F NOT PUSH1 0x1F DUP3 ADD AND DUP3 ADD DUP1 PUSH1 0x40 MSTORE POP DUP2 ADD SWAP1 PUSH2 0x81F SWAP2 SWAP1 PUSH2 0x13F8 JUMP JUMPDEST POP POP POP JUMP JUMPDEST PUSH1 0x0 SLOAD PUSH1 0x1 PUSH1 0x1 PUSH1 0xA0 SHL SUB AND CALLER EQ PUSH2 0x84E JUMPI PUSH1 0x40 MLOAD PUSH3 0x461BCD PUSH1 0xE5 SHL DUP2 MSTORE PUSH1 0x4 ADD PUSH2 0x66E SWAP1 PUSH2 0x13C3 JUMP JUMPDEST PUSH1 0xA SSTORE JUMP JUMPDEST TIMESTAMP PUSH1 0x8 SLOAD LT PUSH2 0x896 JUMPI PUSH1 0x40 MLOAD PUSH3 0x461BCD PUSH1 0xE5 SHL DUP2 MSTORE PUSH1 0x20 PUSH1 0x4 DUP3 ADD MSTORE PUSH1 0xF PUSH1 0x24 DUP3 ADD MSTORE PUSH15 0x1C1C995CD95B1B081B9BDD08195B99 PUSH1 0x8A SHL PUSH1 0x44 DUP3 ADD MSTORE PUSH1 0x64 ADD PUSH2 0x66E JUMP JUMPDEST CALLER PUSH1 0x0 SWAP1 DUP2 MSTORE PUSH1 0xD PUSH1 0x20 MSTORE PUSH1 0x40 SWAP1 KECCAK256 SLOAD PUSH2 0x8E6 JUMPI PUSH1 0x40 MLOAD PUSH3 0x461BCD PUSH1 0xE5 SHL DUP2 MSTORE PUSH1 0x20 PUSH1 0x4 DUP3 ADD MSTORE PUSH1 0x11 PUSH1 0x24 DUP3 ADD MSTORE PUSH17 0x757365722062616C616E6365207A65726F PUSH1 0x78 SHL PUSH1 0x44 DUP3 ADD MSTORE PUSH1 0x64 ADD PUSH2 0x66E JUMP JUMPDEST CALLER PUSH1 0x0 DUP2 DUP2 MSTORE PUSH1 0xD PUSH1 0x20 MSTORE PUSH1 0x40 DUP1 DUP3 KECCAK256 SLOAD SWAP1 MLOAD PUSH4 0xA9059CBB PUSH1 0xE0 SHL DUP2 MSTORE PUSH1 0x4 DUP2 ADD SWAP4 SWAP1 SWAP4 MSTORE PUSH1 0x24 DUP4 ADD MSTORE SWAP1 PUSH32 0x0 PUSH1 0x1 PUSH1 0x1 PUSH1 0xA0 SHL SUB AND SWAP1 PUSH4 0xA9059CBB SWAP1 PUSH1 0x44 ADD PUSH1 0x20 PUSH1 0x40 MLOAD DUP1 DUP4 SUB DUP2 PUSH1 0x0 DUP8 GAS CALL ISZERO DUP1 ISZERO PUSH2 0x964 JUMPI RETURNDATASIZE PUSH1 0x0 DUP1 RETURNDATACOPY RETURNDATASIZE PUSH1 0x0 REVERT JUMPDEST POP POP POP POP PUSH1 0x40 MLOAD RETURNDATASIZE PUSH1 0x1F NOT PUSH1 0x1F DUP3 ADD AND DUP3 ADD DUP1 PUSH1 0x40 MSTORE POP DUP2 ADD SWAP1 PUSH2 0x988 SWAP2 SWAP1 PUSH2 0x13F8 JUMP JUMPDEST SWAP1 POP DUP1 PUSH2 0x9CF JUMPI PUSH1 0x40 MLOAD PUSH3 0x461BCD PUSH1 0xE5 SHL DUP2 MSTORE PUSH1 0x20 PUSH1 0x4 DUP3 ADD MSTORE PUSH1 0x15 PUSH1 0x24 DUP3 ADD MSTORE PUSH21 0x151BDAD95B881D1C985B9CD9995C8819985A5B1959 PUSH1 0x5A SHL PUSH1 0x44 DUP3 ADD MSTORE PUSH1 0x64 ADD PUSH2 0x66E JUMP JUMPDEST CALLER PUSH1 0x0 SWAP1 DUP2 MSTORE PUSH1 0xD PUSH1 0x20 MSTORE PUSH1 0x40 DUP2 KECCAK256 SSTORE PUSH1 0xC DUP1 SLOAD PUSH5 0x100000000 SWAP1 DIV PUSH4 0xFFFFFFFF AND SWAP1 PUSH1 0x4 PUSH2 0x9FD DUP4 PUSH2 0x1430 JUMP JUMPDEST SWAP2 SWAP1 PUSH2 0x100 EXP DUP2 SLOAD DUP2 PUSH4 0xFFFFFFFF MUL NOT AND SWAP1 DUP4 PUSH4 0xFFFFFFFF AND MUL OR SWAP1 SSTORE POP POP CALLER PUSH1 0x1 PUSH1 0x1 PUSH1 0xA0 SHL SUB AND PUSH32 0xF67611512E0A2D90C96FD3F08DCA4971BC45FBA9DC679EABE839A32ABBE58A8E PUSH1 0x40 MLOAD PUSH1 0x40 MLOAD DUP1 SWAP2 SUB SWAP1 LOG2 POP JUMP JUMPDEST TIMESTAMP PUSH1 0x7 SLOAD LT PUSH2 0xA92 JUMPI PUSH1 0x40 MLOAD PUSH3 0x461BCD PUSH1 0xE5 SHL DUP2 MSTORE PUSH1 0x20 PUSH1 0x4 DUP3 ADD MSTORE PUSH1 0x9 PUSH1 0x24 DUP3 ADD MSTORE PUSH9 0x1B9BDD081CDD185C9D PUSH1 0xBA SHL PUSH1 0x44 DUP3 ADD MSTORE PUSH1 0x64 ADD PUSH2 0x66E JUMP JUMPDEST TIMESTAMP PUSH1 0x8 SLOAD GT PUSH2 0xACD JUMPI PUSH1 0x40 MLOAD PUSH3 0x461BCD PUSH1 0xE5 SHL DUP2 MSTORE PUSH1 0x20 PUSH1 0x4 DUP3 ADD MSTORE PUSH1 0x7 PUSH1 0x24 DUP3 ADD MSTORE PUSH7 0x1A185CC8195B99 PUSH1 0xCA SHL PUSH1 0x44 DUP3 ADD MSTORE PUSH1 0x64 ADD PUSH2 0x66E JUMP JUMPDEST PUSH1 0xC SLOAD PUSH4 0xFFFFFFFF PUSH1 0x1 PUSH1 0x40 SHL DUP3 DIV DUP2 AND SWAP2 AND GT ISZERO PUSH2 0xB2E JUMPI PUSH1 0x40 MLOAD PUSH3 0x461BCD PUSH1 0xE5 SHL DUP2 MSTORE PUSH1 0x20 PUSH1 0x4 DUP3 ADD MSTORE PUSH1 0x17 PUSH1 0x24 DUP3 ADD MSTORE PUSH32 0x5072652D6F72646572732061726520736F6C64206F7574000000000000000000 PUSH1 0x44 DUP3 ADD MSTORE PUSH1 0x64 ADD PUSH2 0x66E JUMP JUMPDEST CALLER PUSH1 0x0 SWAP1 DUP2 MSTORE PUSH1 0xE PUSH1 0x20 MSTORE PUSH1 0x40 SWAP1 KECCAK256 SLOAD PUSH1 0xFF AND ISZERO PUSH2 0xB82 JUMPI PUSH1 0x40 MLOAD PUSH3 0x461BCD PUSH1 0xE5 SHL DUP2 MSTORE PUSH1 0x20 PUSH1 0x4 DUP3 ADD MSTORE PUSH1 0x11 PUSH1 0x24 DUP3 ADD MSTORE PUSH17 0x185B1C9958591E481C1D5C98DA185CD959 PUSH1 0x7A SHL PUSH1 0x44 DUP3 ADD MSTORE PUSH1 0x64 ADD PUSH2 0x66E JUMP JUMPDEST PUSH1 0x0 DUP1 PUSH2 0xB8D PUSH2 0x1116 JUMP JUMPDEST PUSH1 0x40 MLOAD PUSH4 0x6EB1769F PUSH1 0xE1 SHL DUP2 MSTORE CALLER PUSH1 0x4 DUP3 ADD MSTORE ADDRESS PUSH1 0x24 DUP3 ADD MSTORE SWAP2 SWAP4 POP SWAP2 POP DUP2 SWAP1 PUSH1 0x1 PUSH1 0x1 PUSH1 0xA0 SHL SUB PUSH32 0x0 AND SWAP1 PUSH4 0xDD62ED3E SWAP1 PUSH1 0x44 ADD PUSH1 0x20 PUSH1 0x40 MLOAD DUP1 DUP4 SUB DUP2 DUP7 GAS STATICCALL ISZERO DUP1 ISZERO PUSH2 0xBFE JUMPI RETURNDATASIZE PUSH1 0x0 DUP1 RETURNDATACOPY RETURNDATASIZE PUSH1 0x0 REVERT JUMPDEST POP POP POP POP PUSH1 0x40 MLOAD RETURNDATASIZE PUSH1 0x1F NOT PUSH1 0x1F DUP3 ADD AND DUP3 ADD DUP1 PUSH1 0x40 MSTORE POP DUP2 ADD SWAP1 PUSH2 0xC22 SWAP2 SWAP1 PUSH2 0x1453 JUMP JUMPDEST LT ISZERO PUSH2 0xC70 JUMPI PUSH1 0x40 MLOAD PUSH3 0x461BCD PUSH1 0xE5 SHL DUP2 MSTORE PUSH1 0x20 PUSH1 0x4 DUP3 ADD MSTORE PUSH1 0x1B PUSH1 0x24 DUP3 ADD MSTORE PUSH32 0x75736474546F6B656E20616C6C6F77616E636520746F6F206C6F770000000000 PUSH1 0x44 DUP3 ADD MSTORE PUSH1 0x64 ADD PUSH2 0x66E JUMP JUMPDEST PUSH1 0x40 MLOAD PUSH4 0x6EB1769F PUSH1 0xE1 SHL DUP2 MSTORE CALLER PUSH1 0x4 DUP3 ADD MSTORE ADDRESS PUSH1 0x24 DUP3 ADD MSTORE DUP3 SWAP1 PUSH32 0x0 PUSH1 0x1 PUSH1 0x1 PUSH1 0xA0 SHL SUB AND SWAP1 PUSH4 0xDD62ED3E SWAP1 PUSH1 0x44 ADD PUSH1 0x20 PUSH1 0x40 MLOAD DUP1 DUP4 SUB DUP2 DUP7 GAS STATICCALL ISZERO DUP1 ISZERO PUSH2 0xCDC JUMPI RETURNDATASIZE PUSH1 0x0 DUP1 RETURNDATACOPY RETURNDATASIZE PUSH1 0x0 REVERT JUMPDEST POP POP POP POP PUSH1 0x40 MLOAD RETURNDATASIZE PUSH1 0x1F NOT PUSH1 0x1F DUP3 ADD AND DUP3 ADD DUP1 PUSH1 0x40 MSTORE POP DUP2 ADD SWAP1 PUSH2 0xD00 SWAP2 SWAP1 PUSH2 0x1453 JUMP JUMPDEST LT ISZERO PUSH2 0xD4E JUMPI PUSH1 0x40 MLOAD PUSH3 0x461BCD PUSH1 0xE5 SHL DUP2 MSTORE PUSH1 0x20 PUSH1 0x4 DUP3 ADD MSTORE PUSH1 0x1A PUSH1 0x24 DUP3 ADD MSTORE PUSH32 0x6D7363546F6B656E20616C6C6F77616E636520746F6F206C6F77000000000000 PUSH1 0x44 DUP3 ADD MSTORE PUSH1 0x64 ADD PUSH2 0x66E JUMP JUMPDEST PUSH1 0x4 DUP1 SLOAD PUSH1 0x40 MLOAD PUSH4 0x23B872DD PUSH1 0xE0 SHL DUP2 MSTORE CALLER SWAP3 DUP2 ADD SWAP3 SWAP1 SWAP3 MSTORE PUSH1 0x1 PUSH1 0x1 PUSH1 0xA0 SHL SUB SWAP1 DUP2 AND PUSH1 0x24 DUP4 ADD MSTORE PUSH1 0x44 DUP3 ADD DUP4 SWAP1 MSTORE PUSH1 0x0 SWAP2 PUSH32 0x0 SWAP1 SWAP2 AND SWAP1 PUSH4 0x23B872DD SWAP1 PUSH1 0x64 ADD PUSH1 0x20 PUSH1 0x40 MLOAD DUP1 DUP4 SUB DUP2 PUSH1 0x0 DUP8 GAS CALL ISZERO DUP1 ISZERO PUSH2 0xDCE JUMPI RETURNDATASIZE PUSH1 0x0 DUP1 RETURNDATACOPY RETURNDATASIZE PUSH1 0x0 REVERT JUMPDEST POP POP POP POP PUSH1 0x40 MLOAD RETURNDATASIZE PUSH1 0x1F NOT PUSH1 0x1F DUP3 ADD AND DUP3 ADD DUP1 PUSH1 0x40 MSTORE POP DUP2 ADD SWAP1 PUSH2 0xDF2 SWAP2 SWAP1 PUSH2 0x13F8 JUMP JUMPDEST SWAP1 POP DUP1 PUSH2 0xE38 JUMPI PUSH1 0x40 MLOAD PUSH3 0x461BCD PUSH1 0xE5 SHL DUP2 MSTORE PUSH1 0x20 PUSH1 0x4 DUP3 ADD MSTORE PUSH1 0x14 PUSH1 0x24 DUP3 ADD MSTORE PUSH20 0x155CD91D081D1C985B9CD9995C8819985A5B1959 PUSH1 0x62 SHL PUSH1 0x44 DUP3 ADD MSTORE PUSH1 0x64 ADD PUSH2 0x66E JUMP JUMPDEST PUSH1 0x4 DUP1 SLOAD PUSH1 0x40 MLOAD PUSH4 0x23B872DD PUSH1 0xE0 SHL DUP2 MSTORE CALLER SWAP3 DUP2 ADD SWAP3 SWAP1 SWAP3 MSTORE PUSH1 0x1 PUSH1 0x1 PUSH1 0xA0 SHL SUB SWAP1 DUP2 AND PUSH1 0x24 DUP4 ADD MSTORE PUSH1 0x44 DUP3 ADD DUP6 SWAP1 MSTORE PUSH32 0x0 AND SWAP1 PUSH4 0x23B872DD SWAP1 PUSH1 0x64 ADD PUSH1 0x20 PUSH1 0x40 MLOAD DUP1 DUP4 SUB DUP2 PUSH1 0x0 DUP8 GAS CALL ISZERO DUP1 ISZERO PUSH2 0xEB3 JUMPI RETURNDATASIZE PUSH1 0x0 DUP1 RETURNDATACOPY RETURNDATASIZE PUSH1 0x0 REVERT JUMPDEST POP POP POP POP PUSH1 0x40 MLOAD RETURNDATASIZE PUSH1 0x1F NOT PUSH1 0x1F DUP3 ADD AND DUP3 ADD DUP1 PUSH1 0x40 MSTORE POP DUP2 ADD SWAP1 PUSH2 0xED7 SWAP2 SWAP1 PUSH2 0x13F8 JUMP JUMPDEST SWAP1 POP DUP1 PUSH2 0xF1C JUMPI PUSH1 0x40 MLOAD PUSH3 0x461BCD PUSH1 0xE5 SHL DUP2 MSTORE PUSH1 0x20 PUSH1 0x4 DUP3 ADD MSTORE PUSH1 0x13 PUSH1 0x24 DUP3 ADD MSTORE PUSH19 0x135CD8C81D1C985B9CD9995C8819985A5B1959 PUSH1 0x6A SHL PUSH1 0x44 DUP3 ADD MSTORE PUSH1 0x64 ADD PUSH2 0x66E JUMP JUMPDEST PUSH1 0x6 SLOAD CALLER PUSH1 0x0 SWAP1 DUP2 MSTORE PUSH1 0xD PUSH1 0x20 SWAP1 DUP2 MSTORE PUSH1 0x40 DUP1 DUP4 KECCAK256 SWAP4 SWAP1 SWAP4 SSTORE PUSH1 0xE SWAP1 MSTORE SWAP1 DUP2 KECCAK256 DUP1 SLOAD PUSH1 0xFF NOT AND PUSH1 0x1 OR SWAP1 SSTORE PUSH1 0xC DUP1 SLOAD PUSH4 0xFFFFFFFF AND SWAP2 PUSH2 0xF5B DUP4 PUSH2 0x1430 JUMP JUMPDEST SWAP2 SWAP1 PUSH2 0x100 EXP DUP2 SLOAD DUP2 PUSH4 0xFFFFFFFF MUL NOT AND SWAP1 DUP4 PUSH4 0xFFFFFFFF AND MUL OR SWAP1 SSTORE POP POP CALLER PUSH1 0x1 PUSH1 0x1 PUSH1 0xA0 SHL SUB AND PUSH32 0x936801119FCE055A11A9AE8106C09CD34006A6C3D16BF925C2D8AF5C234E7D2B DUP5 DUP5 PUSH1 0x40 MLOAD PUSH2 0xFBE SWAP3 SWAP2 SWAP1 SWAP2 DUP3 MSTORE PUSH1 0x20 DUP3 ADD MSTORE PUSH1 0x40 ADD SWAP1 JUMP JUMPDEST PUSH1 0x40 MLOAD DUP1 SWAP2 SUB SWAP1 LOG2 POP POP POP JUMP JUMPDEST PUSH1 0x0 SLOAD PUSH1 0x1 PUSH1 0x1 PUSH1 0xA0 SHL SUB AND CALLER EQ PUSH2 0xFF5 JUMPI PUSH1 0x40 MLOAD PUSH3 0x461BCD PUSH1 0xE5 SHL DUP2 MSTORE PUSH1 0x4 ADD PUSH2 0x66E SWAP1 PUSH2 0x13C3 JUMP JUMPDEST PUSH1 0x0 DUP1 SLOAD PUSH1 0x40 MLOAD PUSH1 0x1 PUSH1 0x1 PUSH1 0xA0 SHL SUB SWAP1 SWAP2 AND SWAP2 SELFBALANCE DUP1 ISZERO PUSH2 0x8FC MUL SWAP3 SWAP1 SWAP2 DUP2 DUP2 DUP2 DUP6 DUP9 DUP9 CALL SWAP4 POP POP POP POP ISZERO DUP1 ISZERO PUSH2 0x102F JUMPI RETURNDATASIZE PUSH1 0x0 DUP1 RETURNDATACOPY RETURNDATASIZE PUSH1 0x0 REVERT JUMPDEST POP JUMP JUMPDEST PUSH1 0x0 SLOAD PUSH1 0x1 PUSH1 0x1 PUSH1 0xA0 SHL SUB AND CALLER EQ PUSH2 0x105C JUMPI PUSH1 0x40 MLOAD PUSH3 0x461BCD PUSH1 0xE5 SHL DUP2 MSTORE PUSH1 0x4 ADD PUSH2 0x66E SWAP1 PUSH2 0x13C3 JUMP JUMPDEST PUSH1 0x1 PUSH1 0x1 PUSH1 0xA0 SHL SUB DUP2 AND PUSH2 0x10C1 JUMPI PUSH1 0x40 MLOAD PUSH3 0x461BCD PUSH1 0xE5 SHL DUP2 MSTORE PUSH1 0x20 PUSH1 0x4 DUP3 ADD MSTORE PUSH1 0x26 PUSH1 0x24 DUP3 ADD MSTORE PUSH32 0x4F776E61626C653A206E6577206F776E657220697320746865207A65726F2061 PUSH1 0x44 DUP3 ADD MSTORE PUSH6 0x646472657373 PUSH1 0xD0 SHL PUSH1 0x64 DUP3 ADD MSTORE PUSH1 0x84 ADD PUSH2 0x66E JUMP JUMPDEST PUSH2 0x102F DUP2 PUSH2 0x1181 JUMP JUMPDEST PUSH1 0x0 SLOAD PUSH1 0x1 PUSH1 0x1 PUSH1 0xA0 SHL SUB AND CALLER EQ PUSH2 0x10F4 JUMPI PUSH1 0x40 MLOAD PUSH3 0x461BCD PUSH1 0xE5 SHL DUP2 MSTORE PUSH1 0x4 ADD PUSH2 0x66E SWAP1 PUSH2 0x13C3 JUMP JUMPDEST PUSH1 0x4 DUP1 SLOAD PUSH1 0x1 PUSH1 0x1 PUSH1 0xA0 SHL SUB NOT AND PUSH1 0x1 PUSH1 0x1 PUSH1 0xA0 SHL SUB SWAP3 SWAP1 SWAP3 AND SWAP2 SWAP1 SWAP2 OR SWAP1 SSTORE JUMP JUMPDEST PUSH1 0x0 DUP1 PUSH1 0x0 PUSH2 0x1123 PUSH2 0x757 JUMP JUMPDEST SWAP1 POP PUSH1 0x0 PUSH2 0x1148 PUSH1 0xA SLOAD PUSH2 0x1142 DUP5 PUSH1 0xB SLOAD PUSH2 0x11F0 SWAP1 SWAP2 SWAP1 PUSH4 0xFFFFFFFF AND JUMP JUMPDEST SWAP1 PUSH2 0x11FC JUMP JUMPDEST SWAP1 POP PUSH1 0x0 PUSH2 0x115C PUSH1 0x64 PUSH2 0x778 DUP5 PUSH1 0x50 PUSH2 0x11FC JUMP JUMPDEST SWAP1 POP PUSH1 0x0 PUSH2 0x116A DUP4 DUP4 PUSH2 0x11D1 JUMP JUMPDEST SWAP1 POP PUSH2 0x1175 DUP2 PUSH2 0x67C JUMP JUMPDEST SWAP7 SWAP2 SWAP6 POP SWAP1 SWAP4 POP POP POP POP JUMP JUMPDEST PUSH1 0x0 DUP1 SLOAD PUSH1 0x1 PUSH1 0x1 PUSH1 0xA0 SHL SUB DUP4 DUP2 AND PUSH1 0x1 PUSH1 0x1 PUSH1 0xA0 SHL SUB NOT DUP4 AND DUP2 OR DUP5 SSTORE PUSH1 0x40 MLOAD SWAP2 SWAP1 SWAP3 AND SWAP3 DUP4 SWAP2 PUSH32 0x8BE0079C531659141344CD1FD0A4F28419497F9722A3DAAFE3B4186F6B6457E0 SWAP2 SWAP1 LOG3 POP POP JUMP JUMPDEST PUSH1 0x0 PUSH2 0x11DD DUP3 DUP5 PUSH2 0x146C JUMP JUMPDEST SWAP4 SWAP3 POP POP POP JUMP JUMPDEST PUSH1 0x0 PUSH2 0x11DD DUP3 DUP5 PUSH2 0x1483 JUMP JUMPDEST PUSH1 0x0 PUSH2 0x11DD DUP3 DUP5 PUSH2 0x14A5 JUMP JUMPDEST PUSH1 0x0 PUSH2 0x11DD DUP3 DUP5 PUSH2 0x14BD JUMP JUMPDEST PUSH1 0x0 PUSH1 0x20 DUP3 DUP5 SUB SLT ISZERO PUSH2 0x121A JUMPI PUSH1 0x0 DUP1 REVERT JUMPDEST POP CALLDATALOAD SWAP2 SWAP1 POP JUMP JUMPDEST DUP1 CALLDATALOAD PUSH1 0x1 PUSH1 0x1 PUSH1 0xA0 SHL SUB DUP2 AND DUP2 EQ PUSH2 0x1238 JUMPI PUSH1 0x0 DUP1 REVERT JUMPDEST SWAP2 SWAP1 POP JUMP JUMPDEST PUSH1 0x0 PUSH1 0x20 DUP3 DUP5 SUB SLT ISZERO PUSH2 0x124F JUMPI PUSH1 0x0 DUP1 REVERT JUMPDEST PUSH2 0x11DD DUP3 PUSH2 0x1221 JUMP JUMPDEST PUSH1 0x0 DUP1 PUSH1 0x40 DUP4 DUP6 SUB SLT ISZERO PUSH2 0x126B JUMPI PUSH1 0x0 DUP1 REVERT JUMPDEST PUSH2 0x1274 DUP4 PUSH2 0x1221 JUMP JUMPDEST SWAP5 PUSH1 0x20 SWAP4 SWAP1 SWAP4 ADD CALLDATALOAD SWAP4 POP POP POP JUMP JUMPDEST PUSH4 0x4E487B71 PUSH1 0xE0 SHL PUSH1 0x0 MSTORE PUSH1 0x41 PUSH1 0x4 MSTORE PUSH1 0x24 PUSH1 0x0 REVERT JUMPDEST PUSH4 0x4E487B71 PUSH1 0xE0 SHL PUSH1 0x0 MSTORE PUSH1 0x32 PUSH1 0x4 MSTORE PUSH1 0x24 PUSH1 0x0 REVERT JUMPDEST PUSH1 0x0 PUSH1 0x40 DUP3 ADD DUP5 DUP4 MSTORE PUSH1 0x20 PUSH1 0x40 DUP2 DUP6 ADD MSTORE DUP2 DUP6 MLOAD DUP1 DUP5 MSTORE PUSH1 0x60 DUP7 ADD SWAP2 POP DUP3 DUP8 ADD SWAP4 POP PUSH1 0x0 JUMPDEST DUP2 DUP2 LT ISZERO PUSH2 0x12F8 JUMPI DUP5 MLOAD PUSH1 0x1 PUSH1 0x1 PUSH1 0xA0 SHL SUB AND DUP4 MSTORE SWAP4 DUP4 ADD SWAP4 SWAP2 DUP4 ADD SWAP2 PUSH1 0x1 ADD PUSH2 0x12D3 JUMP JUMPDEST POP SWAP1 SWAP8 SWAP7 POP POP POP POP POP POP POP JUMP JUMPDEST PUSH1 0x0 PUSH1 0x20 DUP1 DUP4 DUP6 SUB SLT ISZERO PUSH2 0x1318 JUMPI PUSH1 0x0 DUP1 REVERT JUMPDEST DUP3 MLOAD PUSH8 0xFFFFFFFFFFFFFFFF DUP1 DUP3 GT ISZERO PUSH2 0x1330 JUMPI PUSH1 0x0 DUP1 REVERT JUMPDEST DUP2 DUP6 ADD SWAP2 POP DUP6 PUSH1 0x1F DUP4 ADD SLT PUSH2 0x1344 JUMPI PUSH1 0x0 DUP1 REVERT JUMPDEST DUP2 MLOAD DUP2 DUP2 GT ISZERO PUSH2 0x1356 JUMPI PUSH2 0x1356 PUSH2 0x1282 JUMP JUMPDEST DUP1 PUSH1 0x5 SHL PUSH1 0x40 MLOAD PUSH1 0x1F NOT PUSH1 0x3F DUP4 ADD AND DUP2 ADD DUP2 DUP2 LT DUP6 DUP3 GT OR ISZERO PUSH2 0x137B JUMPI PUSH2 0x137B PUSH2 0x1282 JUMP JUMPDEST PUSH1 0x40 MSTORE SWAP2 DUP3 MSTORE DUP5 DUP3 ADD SWAP3 POP DUP4 DUP2 ADD DUP6 ADD SWAP2 DUP9 DUP4 GT ISZERO PUSH2 0x1399 JUMPI PUSH1 0x0 DUP1 REVERT JUMPDEST SWAP4 DUP6 ADD SWAP4 JUMPDEST DUP3 DUP6 LT ISZERO PUSH2 0x13B7 JUMPI DUP5 MLOAD DUP5 MSTORE SWAP4 DUP6 ADD SWAP4 SWAP3 DUP6 ADD SWAP3 PUSH2 0x139E JUMP JUMPDEST SWAP9 SWAP8 POP POP POP POP POP POP POP POP JUMP JUMPDEST PUSH1 0x20 DUP1 DUP3 MSTORE DUP2 DUP2 ADD MSTORE PUSH32 0x4F776E61626C653A2063616C6C6572206973206E6F7420746865206F776E6572 PUSH1 0x40 DUP3 ADD MSTORE PUSH1 0x60 ADD SWAP1 JUMP JUMPDEST PUSH1 0x0 PUSH1 0x20 DUP3 DUP5 SUB SLT ISZERO PUSH2 0x140A JUMPI PUSH1 0x0 DUP1 REVERT JUMPDEST DUP2 MLOAD DUP1 ISZERO ISZERO DUP2 EQ PUSH2 0x11DD JUMPI PUSH1 0x0 DUP1 REVERT JUMPDEST PUSH4 0x4E487B71 PUSH1 0xE0 SHL PUSH1 0x0 MSTORE PUSH1 0x11 PUSH1 0x4 MSTORE PUSH1 0x24 PUSH1 0x0 REVERT JUMPDEST PUSH1 0x0 PUSH4 0xFFFFFFFF DUP1 DUP4 AND DUP2 DUP2 SUB PUSH2 0x1449 JUMPI PUSH2 0x1449 PUSH2 0x141A JUMP JUMPDEST PUSH1 0x1 ADD SWAP4 SWAP3 POP POP POP JUMP JUMPDEST PUSH1 0x0 PUSH1 0x20 DUP3 DUP5 SUB SLT ISZERO PUSH2 0x1465 JUMPI PUSH1 0x0 DUP1 REVERT JUMPDEST POP MLOAD SWAP2 SWAP1 POP JUMP JUMPDEST PUSH1 0x0 DUP3 DUP3 LT ISZERO PUSH2 0x147E JUMPI PUSH2 0x147E PUSH2 0x141A JUMP JUMPDEST POP SUB SWAP1 JUMP JUMPDEST PUSH1 0x0 DUP3 PUSH2 0x14A0 JUMPI PUSH4 0x4E487B71 PUSH1 0xE0 SHL PUSH1 0x0 MSTORE PUSH1 0x12 PUSH1 0x4 MSTORE PUSH1 0x24 PUSH1 0x0 REVERT JUMPDEST POP DIV SWAP1 JUMP JUMPDEST PUSH1 0x0 DUP3 NOT DUP3 GT ISZERO PUSH2 0x14B8 JUMPI PUSH2 0x14B8 PUSH2 0x141A JUMP JUMPDEST POP ADD SWAP1 JUMP JUMPDEST PUSH1 0x0 DUP2 PUSH1 0x0 NOT DIV DUP4 GT DUP3 ISZERO ISZERO AND ISZERO PUSH2 0x14D7 JUMPI PUSH2 0x14D7 PUSH2 0x141A JUMP JUMPDEST POP MUL SWAP1 JUMP INVALID LOG2 PUSH5 0x6970667358 0x22 SLT KECCAK256 SWAP3 PUSH27 0xE52E73A44FAD5CA18877A6ED77620408306114F71EFB64A0872D9F SIGNEXTEND 0xAA 0xB8 PUSH5 0x736F6C6343 STOP ADDMOD 0xF STOP CALLER "
				},
				"gasEstimates": {
					"creation": {
						"codeDepositCost": "1078800",
						"executionCost": "infinite",
						"totalCost": "infinite"
					},
					"external": {
						"buyTokens()": "infinite",
						"emergencyWithdraw()": "infinite",
						"emergencyWithdrawToken(address,uint256)": "infinite",
						"getBaseAmount()": "2360",
						"getEndTime()": "2404",
						"getMscAmountOut(uint256)": "infinite",
						"getMscPrice(uint256)": "infinite",
						"getPreSellCoinAmount()": "2404",
						"getPreSellCounter()": "2351",
						"getPresellMax()": "2379",
						"getPresellMscAndUsdtAmount()": "infinite",
						"getStartTime()": "2381",
						"getStep()": "infinite",
						"getUserHasBuy(address)": "2595",
						"getUserPreSellCoinAmount(address)": "2582",
						"getWithdrawCounter()": "2376",
						"hasBuy(address)": "2621",
						"marketAddress()": "2459",
						"mscMintAddress()": "2415",
						"mscToken()": "infinite",
						"owner()": "2409",
						"pancakeRoute2()": "2393",
						"presellTokenMintAddress()": "2373",
						"renounceOwnership()": "28204",
						"sellToken()": "infinite",
						"setBaseAmount(uint256)": "24577",
						"setMarketAddress(address)": "26799",
						"setPriceStep(uint256)": "24509",
						"setTimeStep(uint256)": "24510",
						"transferOwnership(address)": "28375",
						"usdtMintAddress()": "2393",
						"usdtToken()": "infinite",
						"userPresellBalanceMap(address)": "2630",
						"withdrawPresellTokens()": "infinite"
					}
				},
				"methodIdentifiers": {
					"buyTokens()": "d0febe4c",
					"emergencyWithdraw()": "db2e21bc",
					"emergencyWithdrawToken(address,uint256)": "a4c3b091",
					"getBaseAmount()": "6a5ff66f",
					"getEndTime()": "439f5ac2",
					"getMscAmountOut(uint256)": "3817c9c1",
					"getMscPrice(uint256)": "04be093f",
					"getPreSellCoinAmount()": "78eb6c6f",
					"getPreSellCounter()": "f01fc57c",
					"getPresellMax()": "d1d04e1f",
					"getPresellMscAndUsdtAmount()": "faffbc5b",
					"getStartTime()": "c828371e",
					"getStep()": "9e5288a0",
					"getUserHasBuy(address)": "374eedef",
					"getUserPreSellCoinAmount(address)": "8568f4ce",
					"getWithdrawCounter()": "03d7424d",
					"hasBuy(address)": "3d719da7",
					"marketAddress()": "95623641",
					"mscMintAddress()": "d4cfbbca",
					"mscToken()": "fe05cc9c",
					"owner()": "8da5cb5b",
					"pancakeRoute2()": "c493b6e5",
					"presellTokenMintAddress()": "027734fa",
					"renounceOwnership()": "715018a6",
					"sellToken()": "9769f0b0",
					"setBaseAmount(uint256)": "224a7c6a",
					"setMarketAddress(address)": "fae92612",
					"setPriceStep(uint256)": "af94862c",
					"setTimeStep(uint256)": "4c8b16f4",
					"transferOwnership(address)": "f2fde38b",
					"usdtMintAddress()": "88af60c6",
					"usdtToken()": "a98ad46c",
					"userPresellBalanceMap(address)": "90f5881a",
					"withdrawPresellTokens()": "c9ede793"
				}
			},
			"storageLayout": {
				"storage": [
					{
						"astId": 408,
						"contract": "ex/MGCPresell.sol:MGCPresell",
						"label": "_owner",
						"offset": 0,
						"slot": "0",
						"type": "t_address"
					},
					{
						"astId": 1499,
						"contract": "ex/MGCPresell.sol:MGCPresell",
						"label": "usdtMintAddress",
						"offset": 0,
						"slot": "1",
						"type": "t_address"
					},
					{
						"astId": 1502,
						"contract": "ex/MGCPresell.sol:MGCPresell",
						"label": "mscMintAddress",
						"offset": 0,
						"slot": "2",
						"type": "t_address"
					},
					{
						"astId": 1505,
						"contract": "ex/MGCPresell.sol:MGCPresell",
						"label": "presellTokenMintAddress",
						"offset": 0,
						"slot": "3",
						"type": "t_address"
					},
					{
						"astId": 1508,
						"contract": "ex/MGCPresell.sol:MGCPresell",
						"label": "marketAddress",
						"offset": 0,
						"slot": "4",
						"type": "t_address"
					},
					{
						"astId": 1511,
						"contract": "ex/MGCPresell.sol:MGCPresell",
						"label": "pancakeRoute2",
						"offset": 0,
						"slot": "5",
						"type": "t_address"
					},
					{
						"astId": 1518,
						"contract": "ex/MGCPresell.sol:MGCPresell",
						"label": "preSellCoinPreAmount",
						"offset": 0,
						"slot": "6",
						"type": "t_uint256"
					},
					{
						"astId": 1520,
						"contract": "ex/MGCPresell.sol:MGCPresell",
						"label": "startAt",
						"offset": 0,
						"slot": "7",
						"type": "t_uint256"
					},
					{
						"astId": 1522,
						"contract": "ex/MGCPresell.sol:MGCPresell",
						"label": "endAt",
						"offset": 0,
						"slot": "8",
						"type": "t_uint256"
					},
					{
						"astId": 1525,
						"contract": "ex/MGCPresell.sol:MGCPresell",
						"label": "timeStep",
						"offset": 0,
						"slot": "9",
						"type": "t_uint256"
					},
					{
						"astId": 1532,
						"contract": "ex/MGCPresell.sol:MGCPresell",
						"label": "priceStep",
						"offset": 0,
						"slot": "10",
						"type": "t_uint256"
					},
					{
						"astId": 1539,
						"contract": "ex/MGCPresell.sol:MGCPresell",
						"label": "baseMoney",
						"offset": 0,
						"slot": "11",
						"type": "t_uint256"
					},
					{
						"astId": 1541,
						"contract": "ex/MGCPresell.sol:MGCPresell",
						"label": "counter",
						"offset": 0,
						"slot": "12",
						"type": "t_uint32"
					},
					{
						"astId": 1543,
						"contract": "ex/MGCPresell.sol:MGCPresell",
						"label": "withdrawCounter",
						"offset": 4,
						"slot": "12",
						"type": "t_uint32"
					},
					{
						"astId": 1546,
						"contract": "ex/MGCPresell.sol:MGCPresell",
						"label": "preMax",
						"offset": 8,
						"slot": "12",
						"type": "t_uint32"
					},
					{
						"astId": 1559,
						"contract": "ex/MGCPresell.sol:MGCPresell",
						"label": "userPresellBalanceMap",
						"offset": 0,
						"slot": "13",
						"type": "t_mapping(t_address,t_uint256)"
					},
					{
						"astId": 1563,
						"contract": "ex/MGCPresell.sol:MGCPresell",
						"label": "hasBuy",
						"offset": 0,
						"slot": "14",
						"type": "t_mapping(t_address,t_bool)"
					}
				],
				"types": {
					"t_address": {
						"encoding": "inplace",
						"label": "address",
						"numberOfBytes": "20"
					},
					"t_bool": {
						"encoding": "inplace",
						"label": "bool",
						"numberOfBytes": "1"
					},
					"t_mapping(t_address,t_bool)": {
						"encoding": "mapping",
						"key": "t_address",
						"label": "mapping(address => bool)",
						"numberOfBytes": "32",
						"value": "t_bool"
					},
					"t_mapping(t_address,t_uint256)": {
						"encoding": "mapping",
						"key": "t_address",
						"label": "mapping(address => uint256)",
						"numberOfBytes": "32",
						"value": "t_uint256"
					},
					"t_uint256": {
						"encoding": "inplace",
						"label": "uint256",
						"numberOfBytes": "32"
					},
					"t_uint32": {
						"encoding": "inplace",
						"label": "uint32",
						"numberOfBytes": "4"
					}
				}
			},
			"userdoc": {
				"kind": "user",
				"methods": {},
				"version": 1
			}
		}
	}
}