{
	"smart_contract/ex/MGCNftAirdrop.sol": {
		"NFTAirdrop": {
			"abi": [
				{
					"anonymous": false,
					"inputs": [
						{
							"indexed": true,
							"internalType": "address",
							"name": "previousOwner",
							"type": "address"
						},
						{
							"indexed": true,
							"internalType": "address",
							"name": "newOwner",
							"type": "address"
						}
					],
					"name": "OwnershipTransferred",
					"type": "event"
				},
				{
					"anonymous": false,
					"inputs": [
						{
							"indexed": true,
							"internalType": "address",
							"name": "nftContractAddress",
							"type": "address"
						},
						{
							"indexed": true,
							"internalType": "address",
							"name": "user",
							"type": "address"
						},
						{
							"indexed": false,
							"internalType": "uint256",
							"name": "tokenid",
							"type": "uint256"
						}
					],
					"name": "Withdrawn",
					"type": "event"
				},
				{
					"inputs": [
						{
							"internalType": "address",
							"name": "nftContractAddress",
							"type": "address"
						},
						{
							"internalType": "uint256[]",
							"name": "ids",
							"type": "uint256[]"
						},
						{
							"internalType": "uint256[]",
							"name": "amounts",
							"type": "uint256[]"
						}
					],
					"name": "addNFTBatch",
					"outputs": [],
					"stateMutability": "nonpayable",
					"type": "function"
				},
				{
					"inputs": [
						{
							"internalType": "address",
							"name": "nftContractAddress",
							"type": "address"
						},
						{
							"internalType": "uint256",
							"name": "start",
							"type": "uint256"
						},
						{
							"internalType": "uint256",
							"name": "idsNumber",
							"type": "uint256"
						}
					],
					"name": "addNftBatchWithNumber",
					"outputs": [],
					"stateMutability": "nonpayable",
					"type": "function"
				},
				{
					"inputs": [
						{
							"internalType": "address[]",
							"name": "accounts",
							"type": "address[]"
						},
						{
							"internalType": "uint32[]",
							"name": "numbers",
							"type": "uint32[]"
						}
					],
					"name": "appendWhiteList",
					"outputs": [],
					"stateMutability": "nonpayable",
					"type": "function"
				},
				{
					"inputs": [
						{
							"internalType": "address[]",
							"name": "accounts",
							"type": "address[]"
						},
						{
							"internalType": "uint32",
							"name": "number",
							"type": "uint32"
						}
					],
					"name": "appendWhiteListWithNumber",
					"outputs": [],
					"stateMutability": "nonpayable",
					"type": "function"
				},
				{
					"inputs": [
						{
							"internalType": "address",
							"name": "account",
							"type": "address"
						}
					],
					"name": "mintable",
					"outputs": [
						{
							"internalType": "uint32",
							"name": "",
							"type": "uint32"
						}
					],
					"stateMutability": "view",
					"type": "function"
				},
				{
					"inputs": [
						{
							"internalType": "address",
							"name": "",
							"type": "address"
						},
						{
							"internalType": "address",
							"name": "",
							"type": "address"
						},
						{
							"internalType": "uint256[]",
							"name": "",
							"type": "uint256[]"
						},
						{
							"internalType": "uint256[]",
							"name": "",
							"type": "uint256[]"
						},
						{
							"internalType": "bytes",
							"name": "",
							"type": "bytes"
						}
					],
					"name": "onERC1155BatchReceived",
					"outputs": [
						{
							"internalType": "bytes4",
							"name": "",
							"type": "bytes4"
						}
					],
					"stateMutability": "nonpayable",
					"type": "function"
				},
				{
					"inputs": [
						{
							"internalType": "address",
							"name": "",
							"type": "address"
						},
						{
							"internalType": "address",
							"name": "",
							"type": "address"
						},
						{
							"internalType": "uint256",
							"name": "",
							"type": "uint256"
						},
						{
							"internalType": "uint256",
							"name": "",
							"type": "uint256"
						},
						{
							"internalType": "bytes",
							"name": "",
							"type": "bytes"
						}
					],
					"name": "onERC1155Received",
					"outputs": [
						{
							"internalType": "bytes4",
							"name": "",
							"type": "bytes4"
						}
					],
					"stateMutability": "nonpayable",
					"type": "function"
				},
				{
					"inputs": [],
					"name": "owner",
					"outputs": [
						{
							"internalType": "address",
							"name": "",
							"type": "address"
						}
					],
					"stateMutability": "view",
					"type": "function"
				},
				{
					"inputs": [],
					"name": "renounceOwnership",
					"outputs": [],
					"stateMutability": "nonpayable",
					"type": "function"
				},
				{
					"inputs": [
						{
							"internalType": "bytes4",
							"name": "interfaceId",
							"type": "bytes4"
						}
					],
					"name": "supportsInterface",
					"outputs": [
						{
							"internalType": "bool",
							"name": "",
							"type": "bool"
						}
					],
					"stateMutability": "view",
					"type": "function"
				},
				{
					"inputs": [
						{
							"internalType": "address",
							"name": "newOwner",
							"type": "address"
						}
					],
					"name": "transferOwnership",
					"outputs": [],
					"stateMutability": "nonpayable",
					"type": "function"
				},
				{
					"inputs": [
						{
							"internalType": "address",
							"name": "nftContractAddress",
							"type": "address"
						}
					],
					"name": "urgentWithdraw",
					"outputs": [],
					"stateMutability": "nonpayable",
					"type": "function"
				},
				{
					"inputs": [
						{
							"internalType": "address",
							"name": "",
							"type": "address"
						}
					],
					"name": "whiteList",
					"outputs": [
						{
							"internalType": "uint32",
							"name": "",
							"type": "uint32"
						}
					],
					"stateMutability": "view",
					"type": "function"
				},
				{
					"inputs": [
						{
							"internalType": "address",
							"name": "nftContractAddress",
							"type": "address"
						}
					],
					"name": "withdraw",
					"outputs": [],
					"stateMutability": "nonpayable",
					"type": "function"
				}
			],
			"devdoc": {
				"kind": "dev",
				"methods": {
					"owner()": {
						"details": "Returns the address of the current owner."
					},
					"renounceOwnership()": {
						"details": "Leaves the contract without owner. It will not be possible to call `onlyOwner` functions anymore. Can only be called by the current owner. NOTE: Renouncing ownership will leave the contract without an owner, thereby removing any functionality that is only available to the owner."
					},
					"supportsInterface(bytes4)": {
						"details": "See {IERC165-supportsInterface}."
					},
					"transferOwnership(address)": {
						"details": "Transfers ownership of the contract to a new account (`newOwner`). Can only be called by the current owner."
					}
				},
				"version": 1
			},
			"evm": {
				"assembly": "    /* \"smart_contract/ex/MGCNftAirdrop.sol\":6648:9577  contract NFTAirdrop is Ownable , ERC1155Holder{... */\n  mstore(0x40, 0x80)\n  callvalue\n  dup1\n  iszero\n  tag_1\n  jumpi\n  0x00\n  dup1\n  revert\ntag_1:\n  pop\n    /* \"smart_contract/node_modules/@openzeppelin/contracts/access/Ownable.sol\":949:981  _transferOwnership(_msgSender()) */\n  tag_4\n    /* \"smart_contract/node_modules/@openzeppelin/contracts/utils/Context.sol\":736:746  msg.sender */\n  caller\n    /* \"smart_contract/node_modules/@openzeppelin/contracts/access/Ownable.sol\":949:967  _transferOwnership */\n  tag_7\n    /* \"smart_contract/node_modules/@openzeppelin/contracts/access/Ownable.sol\":949:981  _transferOwnership(_msgSender()) */\n  jump\t// in\ntag_4:\n    /* \"smart_contract/ex/MGCNftAirdrop.sol\":6648:9577  contract NFTAirdrop is Ownable , ERC1155Holder{... */\n  jump(tag_8)\n    /* \"smart_contract/node_modules/@openzeppelin/contracts/access/Ownable.sol\":2340:2531  function _transferOwnership(address newOwner) internal virtual {... */\ntag_7:\n    /* \"smart_contract/node_modules/@openzeppelin/contracts/access/Ownable.sol\":2414:2430  address oldOwner */\n  0x00\n    /* \"smart_contract/node_modules/@openzeppelin/contracts/access/Ownable.sol\":2433:2439  _owner */\n  dup1\n  sload\n  sub(shl(0xa0, 0x01), 0x01)\n    /* \"smart_contract/node_modules/@openzeppelin/contracts/access/Ownable.sol\":2450:2467  _owner = newOwner */\n  dup4\n  dup2\n  and\n  not(sub(shl(0xa0, 0x01), 0x01))\n  dup4\n  and\n  dup2\n  or\n  dup5\n  sstore\n    /* \"smart_contract/node_modules/@openzeppelin/contracts/access/Ownable.sol\":2483:2523  OwnershipTransferred(oldOwner, newOwner) */\n  mload(0x40)\n    /* \"smart_contract/node_modules/@openzeppelin/contracts/access/Ownable.sol\":2433:2439  _owner */\n  swap2\n  swap1\n  swap3\n  and\n  swap3\n  dup4\n  swap2\n    /* \"smart_contract/node_modules/@openzeppelin/contracts/access/Ownable.sol\":2483:2523  OwnershipTransferred(oldOwner, newOwner) */\n  0x8be0079c531659141344cd1fd0a4f28419497f9722a3daafe3b4186f6b6457e0\n  swap2\n    /* \"smart_contract/node_modules/@openzeppelin/contracts/access/Ownable.sol\":2414:2430  address oldOwner */\n  swap1\n    /* \"smart_contract/node_modules/@openzeppelin/contracts/access/Ownable.sol\":2483:2523  OwnershipTransferred(oldOwner, newOwner) */\n  log3\n    /* \"smart_contract/node_modules/@openzeppelin/contracts/access/Ownable.sol\":2403:2531  {... */\n  pop\n    /* \"smart_contract/node_modules/@openzeppelin/contracts/access/Ownable.sol\":2340:2531  function _transferOwnership(address newOwner) internal virtual {... */\n  pop\n  jump\t// out\n    /* \"smart_contract/ex/MGCNftAirdrop.sol\":6648:9577  contract NFTAirdrop is Ownable , ERC1155Holder{... */\ntag_8:\n  dataSize(sub_0)\n  dup1\n  dataOffset(sub_0)\n  0x00\n  codecopy\n  0x00\n  return\nstop\n\nsub_0: assembly {\n        /* \"smart_contract/ex/MGCNftAirdrop.sol\":6648:9577  contract NFTAirdrop is Ownable , ERC1155Holder{... */\n      mstore(0x40, 0x80)\n      callvalue\n      dup1\n      iszero\n      tag_1\n      jumpi\n      0x00\n      dup1\n      revert\n    tag_1:\n      pop\n      jumpi(tag_2, lt(calldatasize, 0x04))\n      shr(0xe0, calldataload(0x00))\n      dup1\n      0x715018a6\n      gt\n      tag_17\n      jumpi\n      dup1\n      0xc4091443\n      gt\n      tag_18\n      jumpi\n      dup1\n      0xc4091443\n      eq\n      tag_13\n      jumpi\n      dup1\n      0xe2a79809\n      eq\n      tag_14\n      jumpi\n      dup1\n      0xf23a6e61\n      eq\n      tag_15\n      jumpi\n      dup1\n      0xf2fde38b\n      eq\n      tag_16\n      jumpi\n      0x00\n      dup1\n      revert\n    tag_18:\n      dup1\n      0x715018a6\n      eq\n      tag_10\n      jumpi\n      dup1\n      0x8da5cb5b\n      eq\n      tag_11\n      jumpi\n      dup1\n      0xbc197c81\n      eq\n      tag_12\n      jumpi\n      0x00\n      dup1\n      revert\n    tag_17:\n      dup1\n      0x51cff8d9\n      gt\n      tag_19\n      jumpi\n      dup1\n      0x51cff8d9\n      eq\n      tag_6\n      jumpi\n      dup1\n      0x59441eae\n      eq\n      tag_7\n      jumpi\n      dup1\n      0x5b16e22d\n      eq\n      tag_8\n      jumpi\n      dup1\n      0x63c66891\n      eq\n      tag_9\n      jumpi\n      0x00\n      dup1\n      revert\n    tag_19:\n      dup1\n      0x01ffc9a7\n      eq\n      tag_3\n      jumpi\n      dup1\n      0x372c12b1\n      eq\n      tag_4\n      jumpi\n      dup1\n      0x4b02218f\n      eq\n      tag_5\n      jumpi\n    tag_2:\n      0x00\n      dup1\n      revert\n        /* \"smart_contract/node_modules/@openzeppelin/contracts/token/ERC1155/utils/ERC1155Receiver.sol\":402:625  function supportsInterface(bytes4 interfaceId) public view virtual override(ERC165, IERC165) returns (bool) {... */\n    tag_3:\n      tag_20\n      tag_21\n      calldatasize\n      0x04\n      tag_22\n      jump\t// in\n    tag_21:\n      tag_23\n      jump\t// in\n    tag_20:\n      mload(0x40)\n        /* \"#utility.yul\":470:484   */\n      swap1\n      iszero\n        /* \"#utility.yul\":463:485   */\n      iszero\n        /* \"#utility.yul\":445:486   */\n      dup2\n      mstore\n        /* \"#utility.yul\":433:435   */\n      0x20\n        /* \"#utility.yul\":418:436   */\n      add\n        /* \"smart_contract/node_modules/@openzeppelin/contracts/token/ERC1155/utils/ERC1155Receiver.sol\":402:625  function supportsInterface(bytes4 interfaceId) public view virtual override(ERC165, IERC165) returns (bool) {... */\n    tag_24:\n      mload(0x40)\n      dup1\n      swap2\n      sub\n      swap1\n      return\n        /* \"smart_contract/ex/MGCNftAirdrop.sol\":6703:6746  mapping(address => uint32) public whiteList */\n    tag_4:\n      tag_26\n      tag_27\n      calldatasize\n      0x04\n      tag_28\n      jump\t// in\n    tag_27:\n      mstore(0x20, 0x01)\n      0x00\n      swap1\n      dup2\n      mstore\n      0x40\n      swap1\n      keccak256\n      sload\n      0xffffffff\n      and\n      dup2\n      jump\n    tag_26:\n      mload(0x40)\n        /* \"#utility.yul\":1040:1050   */\n      0xffffffff\n        /* \"#utility.yul\":1028:1051   */\n      swap1\n      swap2\n      and\n        /* \"#utility.yul\":1010:1052   */\n      dup2\n      mstore\n        /* \"#utility.yul\":998:1000   */\n      0x20\n        /* \"#utility.yul\":983:1001   */\n      add\n        /* \"smart_contract/ex/MGCNftAirdrop.sol\":6703:6746  mapping(address => uint32) public whiteList */\n      tag_24\n        /* \"#utility.yul\":866:1058   */\n      jump\n        /* \"smart_contract/ex/MGCNftAirdrop.sol\":7720:8342  function addNftBatchWithNumber(... */\n    tag_5:\n      tag_32\n      tag_33\n      calldatasize\n      0x04\n      tag_34\n      jump\t// in\n    tag_33:\n      tag_35\n      jump\t// in\n    tag_32:\n      stop\n        /* \"smart_contract/ex/MGCNftAirdrop.sol\":8817:9458  function withdraw(address nftContractAddress) public {... */\n    tag_6:\n      tag_32\n      tag_37\n      calldatasize\n      0x04\n      tag_28\n      jump\t// in\n    tag_37:\n      tag_38\n      jump\t// in\n        /* \"smart_contract/ex/MGCNftAirdrop.sol\":6806:6914  function mintable(address account) public view returns (uint32) {... */\n    tag_7:\n      tag_26\n      tag_40\n      calldatasize\n      0x04\n      tag_28\n      jump\t// in\n    tag_40:\n      sub(shl(0xa0, 0x01), 0x01)\n        /* \"smart_contract/ex/MGCNftAirdrop.sol\":6888:6906  whiteList[account] */\n      and\n        /* \"smart_contract/ex/MGCNftAirdrop.sol\":6862:6868  uint32 */\n      0x00\n        /* \"smart_contract/ex/MGCNftAirdrop.sol\":6888:6906  whiteList[account] */\n      swap1\n      dup2\n      mstore\n        /* \"smart_contract/ex/MGCNftAirdrop.sol\":6888:6897  whiteList */\n      0x01\n        /* \"smart_contract/ex/MGCNftAirdrop.sol\":6888:6906  whiteList[account] */\n      0x20\n      mstore\n      0x40\n      swap1\n      keccak256\n      sload\n      0xffffffff\n      and\n      swap1\n        /* \"smart_contract/ex/MGCNftAirdrop.sol\":6806:6914  function mintable(address account) public view returns (uint32) {... */\n      jump\n        /* \"smart_contract/ex/MGCNftAirdrop.sol\":7146:7366  function appendWhiteList(address[] memory accounts, uint32[] memory numbers) public onlyOwner {... */\n    tag_8:\n      tag_32\n      tag_44\n      calldatasize\n      0x04\n      tag_45\n      jump\t// in\n    tag_44:\n      tag_46\n      jump\t// in\n        /* \"smart_contract/ex/MGCNftAirdrop.sol\":7374:7712  function addNFTBatch(... */\n    tag_9:\n      tag_32\n      tag_48\n      calldatasize\n      0x04\n      tag_49\n      jump\t// in\n    tag_48:\n      tag_50\n      jump\t// in\n        /* \"smart_contract/node_modules/@openzeppelin/contracts/access/Ownable.sol\":1721:1824  function renounceOwnership() public virtual onlyOwner {... */\n    tag_10:\n      tag_32\n      tag_52\n      jump\t// in\n        /* \"smart_contract/node_modules/@openzeppelin/contracts/access/Ownable.sol\":1070:1157  function owner() public view virtual returns (address) {... */\n    tag_11:\n        /* \"smart_contract/node_modules/@openzeppelin/contracts/access/Ownable.sol\":1116:1123  address */\n      0x00\n        /* \"smart_contract/node_modules/@openzeppelin/contracts/access/Ownable.sol\":1143:1149  _owner */\n      sload\n        /* \"smart_contract/node_modules/@openzeppelin/contracts/access/Ownable.sol\":1070:1157  function owner() public view virtual returns (address) {... */\n      mload(0x40)\n      sub(shl(0xa0, 0x01), 0x01)\n        /* \"smart_contract/node_modules/@openzeppelin/contracts/access/Ownable.sol\":1143:1149  _owner */\n      swap1\n      swap2\n      and\n        /* \"#utility.yul\":5465:5516   */\n      dup2\n      mstore\n        /* \"#utility.yul\":5453:5455   */\n      0x20\n        /* \"#utility.yul\":5438:5456   */\n      add\n        /* \"smart_contract/node_modules/@openzeppelin/contracts/access/Ownable.sol\":1070:1157  function owner() public view virtual returns (address) {... */\n      tag_24\n        /* \"#utility.yul\":5319:5522   */\n      jump\n        /* \"smart_contract/node_modules/@openzeppelin/contracts/token/ERC1155/utils/ERC1155Holder.sol\":498:753  function onERC1155BatchReceived(... */\n    tag_12:\n      tag_57\n      tag_58\n      calldatasize\n      0x04\n      tag_59\n      jump\t// in\n    tag_58:\n      shl(0xe0, 0xbc197c81)\n      swap6\n      swap5\n      pop\n      pop\n      pop\n      pop\n      pop\n      jump\n    tag_57:\n      mload(0x40)\n      not(sub(shl(0xe0, 0x01), 0x01))\n        /* \"#utility.yul\":7172:7205   */\n      swap1\n      swap2\n      and\n        /* \"#utility.yul\":7154:7206   */\n      dup2\n      mstore\n        /* \"#utility.yul\":7142:7144   */\n      0x20\n        /* \"#utility.yul\":7127:7145   */\n      add\n        /* \"smart_contract/node_modules/@openzeppelin/contracts/token/ERC1155/utils/ERC1155Holder.sol\":498:753  function onERC1155BatchReceived(... */\n      tag_24\n        /* \"#utility.yul\":7010:7212   */\n      jump\n        /* \"smart_contract/ex/MGCNftAirdrop.sol\":8350:8809  function urgentWithdraw(address nftContractAddress) public onlyOwner {... */\n    tag_13:\n      tag_32\n      tag_64\n      calldatasize\n      0x04\n      tag_28\n      jump\t// in\n    tag_64:\n      tag_65\n      jump\t// in\n        /* \"smart_contract/ex/MGCNftAirdrop.sol\":6922:7138  function appendWhiteListWithNumber(address[] memory accounts, uint32 number) public onlyOwner {... */\n    tag_14:\n      tag_32\n      tag_67\n      calldatasize\n      0x04\n      tag_68\n      jump\t// in\n    tag_67:\n      tag_69\n      jump\t// in\n        /* \"smart_contract/node_modules/@openzeppelin/contracts/token/ERC1155/utils/ERC1155Holder.sol\":263:490  function onERC1155Received(... */\n    tag_15:\n      tag_57\n      tag_71\n      calldatasize\n      0x04\n      tag_72\n      jump\t// in\n    tag_71:\n      shl(0xe0, 0xf23a6e61)\n      swap6\n      swap5\n      pop\n      pop\n      pop\n      pop\n      pop\n      jump\n        /* \"smart_contract/node_modules/@openzeppelin/contracts/access/Ownable.sol\":1979:2180  function transferOwnership(address newOwner) public virtual onlyOwner {... */\n    tag_16:\n      tag_32\n      tag_76\n      calldatasize\n      0x04\n      tag_28\n      jump\t// in\n    tag_76:\n      tag_77\n      jump\t// in\n        /* \"smart_contract/node_modules/@openzeppelin/contracts/token/ERC1155/utils/ERC1155Receiver.sol\":402:625  function supportsInterface(bytes4 interfaceId) public view virtual override(ERC165, IERC165) returns (bool) {... */\n    tag_23:\n        /* \"smart_contract/node_modules/@openzeppelin/contracts/token/ERC1155/utils/ERC1155Receiver.sol\":504:508  bool */\n      0x00\n      not(sub(shl(0xe0, 0x01), 0x01))\n        /* \"smart_contract/node_modules/@openzeppelin/contracts/token/ERC1155/utils/ERC1155Receiver.sol\":528:577  interfaceId == type(IERC1155Receiver).interfaceId */\n      dup3\n      and\n      shl(0xe5, 0x02711897)\n      eq\n      dup1\n        /* \"smart_contract/node_modules/@openzeppelin/contracts/token/ERC1155/utils/ERC1155Receiver.sol\":528:617  interfaceId == type(IERC1155Receiver).interfaceId || super.supportsInterface(interfaceId) */\n      tag_80\n      jumpi\n      pop\n      shl(0xe0, 0x01ffc9a7)\n      not(sub(shl(0xe0, 0x01), 0x01))\n        /* \"smart_contract/node_modules/@openzeppelin/contracts/utils/introspection/ERC165.sol\":963:1003  interfaceId == type(IERC165).interfaceId */\n      dup4\n      and\n      eq\n        /* \"smart_contract/node_modules/@openzeppelin/contracts/token/ERC1155/utils/ERC1155Receiver.sol\":581:617  super.supportsInterface(interfaceId) */\n    tag_80:\n        /* \"smart_contract/node_modules/@openzeppelin/contracts/token/ERC1155/utils/ERC1155Receiver.sol\":521:617  return interfaceId == type(IERC1155Receiver).interfaceId || super.supportsInterface(interfaceId) */\n      swap3\n        /* \"smart_contract/node_modules/@openzeppelin/contracts/token/ERC1155/utils/ERC1155Receiver.sol\":402:625  function supportsInterface(bytes4 interfaceId) public view virtual override(ERC165, IERC165) returns (bool) {... */\n      swap2\n      pop\n      pop\n      jump\t// out\n        /* \"smart_contract/ex/MGCNftAirdrop.sol\":7720:8342  function addNftBatchWithNumber(... */\n    tag_35:\n        /* \"smart_contract/ex/MGCNftAirdrop.sol\":7865:7885  uint256[] memory ids */\n      0x00\n        /* \"smart_contract/ex/MGCNftAirdrop.sol\":7902:7911  idsNumber */\n      dup2\n        /* \"smart_contract/ex/MGCNftAirdrop.sol\":7888:7912  new uint256[](idsNumber) */\n      0xffffffffffffffff\n      dup2\n      gt\n      iszero\n      tag_84\n      jumpi\n      tag_84\n      tag_85\n      jump\t// in\n    tag_84:\n      mload(0x40)\n      swap1\n      dup1\n      dup3\n      mstore\n      dup1\n      0x20\n      mul\n      0x20\n      add\n      dup3\n      add\n      0x40\n      mstore\n      dup1\n      iszero\n      tag_86\n      jumpi\n      dup2\n      0x20\n      add\n      0x20\n      dup3\n      mul\n      dup1\n      calldatasize\n      dup4\n      calldatacopy\n      add\n      swap1\n      pop\n    tag_86:\n      pop\n        /* \"smart_contract/ex/MGCNftAirdrop.sol\":7865:7912  uint256[] memory ids = new uint256[](idsNumber) */\n      swap1\n      pop\n        /* \"smart_contract/ex/MGCNftAirdrop.sol\":7923:7947  uint256[] memory amounts */\n      0x00\n        /* \"smart_contract/ex/MGCNftAirdrop.sol\":7964:7973  idsNumber */\n      dup3\n        /* \"smart_contract/ex/MGCNftAirdrop.sol\":7950:7974  new uint256[](idsNumber) */\n      0xffffffffffffffff\n      dup2\n      gt\n      iszero\n      tag_88\n      jumpi\n      tag_88\n      tag_85\n      jump\t// in\n    tag_88:\n      mload(0x40)\n      swap1\n      dup1\n      dup3\n      mstore\n      dup1\n      0x20\n      mul\n      0x20\n      add\n      dup3\n      add\n      0x40\n      mstore\n      dup1\n      iszero\n      tag_89\n      jumpi\n      dup2\n      0x20\n      add\n      0x20\n      dup3\n      mul\n      dup1\n      calldatasize\n      dup4\n      calldatacopy\n      add\n      swap1\n      pop\n    tag_89:\n      pop\n        /* \"smart_contract/ex/MGCNftAirdrop.sol\":7923:7974  uint256[] memory amounts = new uint256[](idsNumber) */\n      swap1\n      pop\n        /* \"smart_contract/ex/MGCNftAirdrop.sol\":8001:8002  0 */\n      0x00\n        /* \"smart_contract/ex/MGCNftAirdrop.sol\":7993:7998  start */\n      dup5\n        /* \"smart_contract/ex/MGCNftAirdrop.sol\":7993:8002  start > 0 */\n      gt\n        /* \"smart_contract/ex/MGCNftAirdrop.sol\":7985:8032  require(start > 0, \"start must more than zero\") */\n      tag_90\n      jumpi\n      mload(0x40)\n      shl(0xe5, 0x461bcd)\n      dup2\n      mstore\n        /* \"#utility.yul\":8455:8457   */\n      0x20\n        /* \"smart_contract/ex/MGCNftAirdrop.sol\":7985:8032  require(start > 0, \"start must more than zero\") */\n      0x04\n      dup3\n      add\n        /* \"#utility.yul\":8437:8458   */\n      mstore\n        /* \"#utility.yul\":8494:8496   */\n      0x19\n        /* \"#utility.yul\":8474:8492   */\n      0x24\n      dup3\n      add\n        /* \"#utility.yul\":8467:8497   */\n      mstore\n        /* \"#utility.yul\":8533:8560   */\n      0x7374617274206d757374206d6f7265207468616e207a65726f00000000000000\n        /* \"#utility.yul\":8513:8531   */\n      0x44\n      dup3\n      add\n        /* \"#utility.yul\":8506:8561   */\n      mstore\n        /* \"#utility.yul\":8578:8596   */\n      0x64\n      add\n        /* \"smart_contract/ex/MGCNftAirdrop.sol\":7985:8032  require(start > 0, \"start must more than zero\") */\n    tag_91:\n      mload(0x40)\n      dup1\n      swap2\n      sub\n      swap1\n      revert\n    tag_90:\n        /* \"smart_contract/ex/MGCNftAirdrop.sol\":8048:8057  uint256 i */\n      0x00\n        /* \"smart_contract/ex/MGCNftAirdrop.sol\":8081:8082  1 */\n      0x01\n        /* \"smart_contract/ex/MGCNftAirdrop.sol\":8061:8078  idsNumber + start */\n      tag_96\n        /* \"smart_contract/ex/MGCNftAirdrop.sol\":8073:8078  start */\n      dup7\n        /* \"smart_contract/ex/MGCNftAirdrop.sol\":8061:8070  idsNumber */\n      dup7\n        /* \"smart_contract/ex/MGCNftAirdrop.sol\":8061:8078  idsNumber + start */\n      tag_97\n      jump\t// in\n    tag_96:\n        /* \"smart_contract/ex/MGCNftAirdrop.sol\":8061:8082  idsNumber + start - 1 */\n      tag_98\n      swap2\n      swap1\n      tag_99\n      jump\t// in\n    tag_98:\n        /* \"smart_contract/ex/MGCNftAirdrop.sol\":8048:8083  uint256 i = (idsNumber + start - 1) */\n      swap1\n      pop\n        /* \"smart_contract/ex/MGCNftAirdrop.sol\":8043:8229  for (uint256 i = (idsNumber + start - 1); i >= start; i--) {... */\n    tag_93:\n        /* \"smart_contract/ex/MGCNftAirdrop.sol\":8090:8095  start */\n      dup5\n        /* \"smart_contract/ex/MGCNftAirdrop.sol\":8085:8086  i */\n      dup2\n        /* \"smart_contract/ex/MGCNftAirdrop.sol\":8085:8095  i >= start */\n      lt\n        /* \"smart_contract/ex/MGCNftAirdrop.sol\":8043:8229  for (uint256 i = (idsNumber + start - 1); i >= start; i--) {... */\n      tag_94\n      jumpi\n        /* \"smart_contract/ex/MGCNftAirdrop.sol\":8132:8133  i */\n      dup1\n        /* \"smart_contract/ex/MGCNftAirdrop.sol\":8117:8120  ids */\n      dup4\n        /* \"smart_contract/ex/MGCNftAirdrop.sol\":8121:8128  i-start */\n      tag_100\n        /* \"smart_contract/ex/MGCNftAirdrop.sol\":8123:8128  start */\n      dup8\n        /* \"smart_contract/ex/MGCNftAirdrop.sol\":8132:8133  i */\n      dup4\n        /* \"smart_contract/ex/MGCNftAirdrop.sol\":8121:8128  i-start */\n      tag_99\n      jump\t// in\n    tag_100:\n        /* \"smart_contract/ex/MGCNftAirdrop.sol\":8117:8129  ids[i-start] */\n      dup2\n      mload\n      dup2\n      lt\n      tag_102\n      jumpi\n      tag_102\n      tag_103\n      jump\t// in\n    tag_102:\n      0x20\n      swap1\n      dup2\n      mul\n      swap2\n      swap1\n      swap2\n      add\n      add\n        /* \"smart_contract/ex/MGCNftAirdrop.sol\":8117:8133  ids[i-start] = i */\n      mstore\n        /* \"smart_contract/ex/MGCNftAirdrop.sol\":8167:8168  1 */\n      0x01\n        /* \"smart_contract/ex/MGCNftAirdrop.sol\":8148:8155  amounts */\n      dup3\n        /* \"smart_contract/ex/MGCNftAirdrop.sol\":8156:8163  i-start */\n      tag_104\n        /* \"smart_contract/ex/MGCNftAirdrop.sol\":8158:8163  start */\n      dup8\n        /* \"smart_contract/ex/MGCNftAirdrop.sol\":8156:8157  i */\n      dup5\n        /* \"smart_contract/ex/MGCNftAirdrop.sol\":8156:8163  i-start */\n      tag_99\n      jump\t// in\n    tag_104:\n        /* \"smart_contract/ex/MGCNftAirdrop.sol\":8148:8164  amounts[i-start] */\n      dup2\n      mload\n      dup2\n      lt\n      tag_106\n      jumpi\n      tag_106\n      tag_103\n      jump\t// in\n    tag_106:\n      0x20\n      swap1\n      dup2\n      mul\n      swap2\n      swap1\n      swap2\n      add\n      dup2\n      add\n        /* \"smart_contract/ex/MGCNftAirdrop.sol\":8148:8168  amounts[i-start] = 1 */\n      swap2\n      swap1\n      swap2\n      mstore\n      sub(shl(0xa0, 0x01), 0x01)\n        /* \"smart_contract/ex/MGCNftAirdrop.sol\":8183:8209  nftIds[nftContractAddress] */\n      dup8\n      and\n      0x00\n      swap1\n      dup2\n      mstore\n        /* \"smart_contract/ex/MGCNftAirdrop.sol\":8183:8189  nftIds */\n      0x02\n        /* \"smart_contract/ex/MGCNftAirdrop.sol\":8183:8209  nftIds[nftContractAddress] */\n      dup3\n      mstore\n      0x40\n      dup2\n      keccak256\n        /* \"smart_contract/ex/MGCNftAirdrop.sol\":8183:8217  nftIds[nftContractAddress].push(i) */\n      dup1\n      sload\n      0x01\n      dup2\n      add\n      dup3\n      sstore\n      swap1\n      dup3\n      mstore\n      swap2\n      swap1\n      keccak256\n      add\n      dup2\n      swap1\n      sstore\n        /* \"smart_contract/ex/MGCNftAirdrop.sol\":8215:8216  i */\n      dup1\n        /* \"smart_contract/ex/MGCNftAirdrop.sol\":8097:8100  i-- */\n      tag_108\n        /* \"smart_contract/ex/MGCNftAirdrop.sol\":8215:8216  i */\n      dup2\n        /* \"smart_contract/ex/MGCNftAirdrop.sol\":8097:8100  i-- */\n      tag_109\n      jump\t// in\n    tag_108:\n      swap2\n      pop\n      pop\n        /* \"smart_contract/ex/MGCNftAirdrop.sol\":8043:8229  for (uint256 i = (idsNumber + start - 1); i >= start; i--) {... */\n      jump(tag_93)\n    tag_94:\n      pop\n        /* \"smart_contract/ex/MGCNftAirdrop.sol\":8239:8334  IERC1155(nftContractAddress).safeBatchTransferFrom(msg.sender, address(this), ids, amounts, \"\") */\n      mload(0x40)\n      shl(0xe1, 0x1759616b)\n      dup2\n      mstore\n      sub(shl(0xa0, 0x01), 0x01)\n        /* \"smart_contract/ex/MGCNftAirdrop.sol\":8239:8289  IERC1155(nftContractAddress).safeBatchTransferFrom */\n      dup7\n      and\n      swap1\n      0x2eb2c2d6\n      swap1\n        /* \"smart_contract/ex/MGCNftAirdrop.sol\":8239:8334  IERC1155(nftContractAddress).safeBatchTransferFrom(msg.sender, address(this), ids, amounts, \"\") */\n      tag_110\n      swap1\n        /* \"smart_contract/ex/MGCNftAirdrop.sol\":8290:8300  msg.sender */\n      caller\n      swap1\n        /* \"smart_contract/ex/MGCNftAirdrop.sol\":8310:8314  this */\n      address\n      swap1\n        /* \"smart_contract/ex/MGCNftAirdrop.sol\":8317:8320  ids */\n      dup8\n      swap1\n        /* \"smart_contract/ex/MGCNftAirdrop.sol\":8322:8329  amounts */\n      dup8\n      swap1\n        /* \"smart_contract/ex/MGCNftAirdrop.sol\":8239:8334  IERC1155(nftContractAddress).safeBatchTransferFrom(msg.sender, address(this), ids, amounts, \"\") */\n      0x04\n      add\n      tag_111\n      jump\t// in\n    tag_110:\n      0x00\n      mload(0x40)\n      dup1\n      dup4\n      sub\n      dup2\n      0x00\n      dup8\n      dup1\n      extcodesize\n      iszero\n      dup1\n      iszero\n      tag_112\n      jumpi\n      0x00\n      dup1\n      revert\n    tag_112:\n      pop\n      gas\n      call\n      iszero\n      dup1\n      iszero\n      tag_114\n      jumpi\n      returndatasize\n      0x00\n      dup1\n      returndatacopy\n      revert(0x00, returndatasize)\n    tag_114:\n      pop\n      pop\n      pop\n      pop\n        /* \"smart_contract/ex/MGCNftAirdrop.sol\":7854:8342  {... */\n      pop\n      pop\n        /* \"smart_contract/ex/MGCNftAirdrop.sol\":7720:8342  function addNftBatchWithNumber(... */\n      pop\n      pop\n      pop\n      jump\t// out\n        /* \"smart_contract/ex/MGCNftAirdrop.sol\":8817:9458  function withdraw(address nftContractAddress) public {... */\n    tag_38:\n        /* \"smart_contract/ex/MGCNftAirdrop.sol\":8899:8909  msg.sender */\n      caller\n        /* \"smart_contract/ex/MGCNftAirdrop.sol\":8913:8914  0 */\n      0x00\n        /* \"smart_contract/ex/MGCNftAirdrop.sol\":8889:8910  whiteList[msg.sender] */\n      swap1\n      dup2\n      mstore\n        /* \"smart_contract/ex/MGCNftAirdrop.sol\":8889:8898  whiteList */\n      0x01\n        /* \"smart_contract/ex/MGCNftAirdrop.sol\":8889:8910  whiteList[msg.sender] */\n      0x20\n      mstore\n      0x40\n      swap1\n      keccak256\n      sload\n      0xffffffff\n      and\n        /* \"smart_contract/ex/MGCNftAirdrop.sol\":8881:8935  require(whiteList[msg.sender] > 0, \"Not in whitelist\") */\n      tag_116\n      jumpi\n      mload(0x40)\n      shl(0xe5, 0x461bcd)\n      dup2\n      mstore\n        /* \"#utility.yul\":10811:10813   */\n      0x20\n        /* \"smart_contract/ex/MGCNftAirdrop.sol\":8881:8935  require(whiteList[msg.sender] > 0, \"Not in whitelist\") */\n      0x04\n      dup3\n      add\n        /* \"#utility.yul\":10793:10814   */\n      mstore\n        /* \"#utility.yul\":10850:10852   */\n      0x10\n        /* \"#utility.yul\":10830:10848   */\n      0x24\n      dup3\n      add\n        /* \"#utility.yul\":10823:10853   */\n      mstore\n      shl(0x82, 0x139bdd081a5b881dda1a5d195b1a5cdd)\n        /* \"#utility.yul\":10869:10887   */\n      0x44\n      dup3\n      add\n        /* \"#utility.yul\":10862:10908   */\n      mstore\n        /* \"#utility.yul\":10925:10943   */\n      0x64\n      add\n        /* \"smart_contract/ex/MGCNftAirdrop.sol\":8881:8935  require(whiteList[msg.sender] > 0, \"Not in whitelist\") */\n      tag_91\n        /* \"#utility.yul\":10609:10949   */\n      jump\n        /* \"smart_contract/ex/MGCNftAirdrop.sol\":8881:8935  require(whiteList[msg.sender] > 0, \"Not in whitelist\") */\n    tag_116:\n        /* \"smart_contract/ex/MGCNftAirdrop.sol\":8970:8980  msg.sender */\n      caller\n        /* \"smart_contract/ex/MGCNftAirdrop.sol\":8946:8957  uint32 size */\n      0x00\n        /* \"smart_contract/ex/MGCNftAirdrop.sol\":8960:8981  whiteList[msg.sender] */\n      swap1\n      dup2\n      mstore\n        /* \"smart_contract/ex/MGCNftAirdrop.sol\":8960:8969  whiteList */\n      0x01\n        /* \"smart_contract/ex/MGCNftAirdrop.sol\":8960:8981  whiteList[msg.sender] */\n      0x20\n      mstore\n      0x40\n      dup2\n      keccak256\n      sload\n      0xffffffff\n      and\n      swap1\n        /* \"smart_contract/ex/MGCNftAirdrop.sol\":8992:9415  for(uint32 i = 0; i < size; ++i) {... */\n    tag_119:\n        /* \"smart_contract/ex/MGCNftAirdrop.sol\":9014:9018  size */\n      dup2\n        /* \"smart_contract/ex/MGCNftAirdrop.sol\":9010:9018  i < size */\n      0xffffffff\n      and\n        /* \"smart_contract/ex/MGCNftAirdrop.sol\":9010:9011  i */\n      dup2\n        /* \"smart_contract/ex/MGCNftAirdrop.sol\":9010:9018  i < size */\n      0xffffffff\n      and\n      lt\n        /* \"smart_contract/ex/MGCNftAirdrop.sol\":8992:9415  for(uint32 i = 0; i < size; ++i) {... */\n      iszero\n      tag_120\n      jumpi\n      sub(shl(0xa0, 0x01), 0x01)\n        /* \"smart_contract/ex/MGCNftAirdrop.sol\":9106:9132  nftIds[nftContractAddress] */\n      dup4\n      and\n        /* \"smart_contract/ex/MGCNftAirdrop.sol\":9041:9059  uint256 minTokenId */\n      0x00\n        /* \"smart_contract/ex/MGCNftAirdrop.sol\":9106:9132  nftIds[nftContractAddress] */\n      swap1\n      dup2\n      mstore\n        /* \"smart_contract/ex/MGCNftAirdrop.sol\":9106:9112  nftIds */\n      0x02\n        /* \"smart_contract/ex/MGCNftAirdrop.sol\":9106:9132  nftIds[nftContractAddress] */\n      0x20\n      mstore\n      0x40\n      dup2\n      keccak256\n        /* \"smart_contract/ex/MGCNftAirdrop.sol\":9041:9059  uint256 minTokenId */\n      dup2\n      swap1\n        /* \"smart_contract/ex/MGCNftAirdrop.sol\":9078:9133  LibArrayForUint256Utils.min(nftIds[nftContractAddress]) */\n      tag_122\n      swap1\n        /* \"smart_contract/ex/MGCNftAirdrop.sol\":9078:9105  LibArrayForUint256Utils.min */\n      tag_123\n        /* \"smart_contract/ex/MGCNftAirdrop.sol\":9078:9133  LibArrayForUint256Utils.min(nftIds[nftContractAddress]) */\n      jump\t// in\n    tag_122:\n      sub(shl(0xa0, 0x01), 0x01)\n        /* \"smart_contract/ex/MGCNftAirdrop.sol\":9186:9212  nftIds[nftContractAddress] */\n      dup8\n      and\n      0x00\n      swap1\n      dup2\n      mstore\n        /* \"smart_contract/ex/MGCNftAirdrop.sol\":9186:9192  nftIds */\n      0x02\n        /* \"smart_contract/ex/MGCNftAirdrop.sol\":9186:9212  nftIds[nftContractAddress] */\n      0x20\n      mstore\n      0x40\n      swap1\n      keccak256\n        /* \"smart_contract/ex/MGCNftAirdrop.sol\":9040:9133  (uint256 minTokenId, uint256 index) = LibArrayForUint256Utils.min(nftIds[nftContractAddress]) */\n      swap2\n      swap4\n      pop\n      swap2\n      pop\n        /* \"smart_contract/ex/MGCNftAirdrop.sol\":9148:9220  LibArrayForUint256Utils.removeByIndex(nftIds[nftContractAddress], index) */\n      tag_124\n      swap1\n        /* \"smart_contract/ex/MGCNftAirdrop.sol\":9040:9133  (uint256 minTokenId, uint256 index) = LibArrayForUint256Utils.min(nftIds[nftContractAddress]) */\n      dup3\n        /* \"smart_contract/ex/MGCNftAirdrop.sol\":9148:9185  LibArrayForUint256Utils.removeByIndex */\n      tag_125\n        /* \"smart_contract/ex/MGCNftAirdrop.sol\":9148:9220  LibArrayForUint256Utils.removeByIndex(nftIds[nftContractAddress], index) */\n      jump\t// in\n    tag_124:\n        /* \"smart_contract/ex/MGCNftAirdrop.sol\":9235:9330  IERC1155(nftContractAddress).safeTransferFrom( address(this) , msg.sender, minTokenId , 1 , \"\") */\n      mload(0x40)\n      shl(0xe1, 0x79212195)\n      dup2\n      mstore\n        /* \"smart_contract/ex/MGCNftAirdrop.sol\":9290:9294  this */\n      address\n        /* \"smart_contract/ex/MGCNftAirdrop.sol\":9235:9330  IERC1155(nftContractAddress).safeTransferFrom( address(this) , msg.sender, minTokenId , 1 , \"\") */\n      0x04\n      dup3\n      add\n        /* \"#utility.yul\":11295:11329   */\n      mstore\n        /* \"smart_contract/ex/MGCNftAirdrop.sol\":9298:9308  msg.sender */\n      caller\n        /* \"#utility.yul\":11345:11363   */\n      0x24\n      dup3\n      add\n        /* \"#utility.yul\":11338:11381   */\n      mstore\n        /* \"#utility.yul\":11397:11415   */\n      0x44\n      dup2\n      add\n        /* \"#utility.yul\":11390:11424   */\n      dup4\n      swap1\n      mstore\n        /* \"smart_contract/ex/MGCNftAirdrop.sol\":9323:9324  1 */\n      0x01\n        /* \"#utility.yul\":11440:11458   */\n      0x64\n      dup3\n      add\n        /* \"#utility.yul\":11433:11467   */\n      mstore\n        /* \"#utility.yul\":11275:11278   */\n      0xa0\n        /* \"#utility.yul\":11483:11502   */\n      0x84\n      dup3\n      add\n        /* \"#utility.yul\":11476:11508   */\n      mstore\n      0x00\n        /* \"#utility.yul\":11524:11543   */\n      0xa4\n      dup3\n      add\n        /* \"#utility.yul\":11517:11547   */\n      mstore\n      sub(shl(0xa0, 0x01), 0x01)\n        /* \"smart_contract/ex/MGCNftAirdrop.sol\":9235:9280  IERC1155(nftContractAddress).safeTransferFrom */\n      dup7\n      and\n      swap1\n      0xf242432a\n      swap1\n        /* \"#utility.yul\":11564:11583   */\n      0xc4\n      add\n        /* \"smart_contract/ex/MGCNftAirdrop.sol\":9235:9330  IERC1155(nftContractAddress).safeTransferFrom( address(this) , msg.sender, minTokenId , 1 , \"\") */\n      0x00\n      mload(0x40)\n      dup1\n      dup4\n      sub\n      dup2\n      0x00\n      dup8\n      dup1\n      extcodesize\n      iszero\n      dup1\n      iszero\n      tag_128\n      jumpi\n      0x00\n      dup1\n      revert\n    tag_128:\n      pop\n      gas\n      call\n      iszero\n      dup1\n      iszero\n      tag_130\n      jumpi\n      returndatasize\n      0x00\n      dup1\n      returndatacopy\n      revert(0x00, returndatasize)\n    tag_130:\n      pop\n      pop\n        /* \"smart_contract/ex/MGCNftAirdrop.sol\":9350:9403  Withdrawn(nftContractAddress, msg.sender, minTokenId) */\n      mload(0x40)\n        /* \"#utility.yul\":11740:11765   */\n      dup5\n      dup2\n      mstore\n        /* \"smart_contract/ex/MGCNftAirdrop.sol\":9380:9390  msg.sender */\n      caller\n      swap3\n      pop\n      sub(shl(0xa0, 0x01), 0x01)\n        /* \"smart_contract/ex/MGCNftAirdrop.sol\":9350:9403  Withdrawn(nftContractAddress, msg.sender, minTokenId) */\n      dup9\n      and\n      swap2\n      pop\n      0xd1c19fbcd4551a5edfb66d43d2e337c04837afda3482b42bdf569a8fccdae5fb\n      swap1\n        /* \"#utility.yul\":11728:11730   */\n      0x20\n        /* \"#utility.yul\":11713:11731   */\n      add\n        /* \"smart_contract/ex/MGCNftAirdrop.sol\":9350:9403  Withdrawn(nftContractAddress, msg.sender, minTokenId) */\n      mload(0x40)\n      dup1\n      swap2\n      sub\n      swap1\n      log3\n        /* \"smart_contract/ex/MGCNftAirdrop.sol\":9025:9415  {... */\n      pop\n      pop\n        /* \"smart_contract/ex/MGCNftAirdrop.sol\":9020:9023  ++i */\n      dup1\n      tag_133\n      swap1\n      tag_134\n      jump\t// in\n    tag_133:\n      swap1\n      pop\n        /* \"smart_contract/ex/MGCNftAirdrop.sol\":8992:9415  for(uint32 i = 0; i < size; ++i) {... */\n      jump(tag_119)\n    tag_120:\n      pop\n      pop\n        /* \"smart_contract/ex/MGCNftAirdrop.sol\":9435:9445  msg.sender */\n      caller\n        /* \"smart_contract/ex/MGCNftAirdrop.sol\":9449:9450  0 */\n      0x00\n        /* \"smart_contract/ex/MGCNftAirdrop.sol\":9425:9446  whiteList[msg.sender] */\n      swap1\n      dup2\n      mstore\n        /* \"smart_contract/ex/MGCNftAirdrop.sol\":9425:9434  whiteList */\n      0x01\n        /* \"smart_contract/ex/MGCNftAirdrop.sol\":9425:9446  whiteList[msg.sender] */\n      0x20\n      mstore\n      0x40\n      swap1\n      keccak256\n        /* \"smart_contract/ex/MGCNftAirdrop.sol\":9425:9450  whiteList[msg.sender] = 0 */\n      dup1\n      sload\n      not(0xffffffff)\n      and\n      swap1\n      sstore\n      pop\n        /* \"smart_contract/ex/MGCNftAirdrop.sol\":8817:9458  function withdraw(address nftContractAddress) public {... */\n      jump\t// out\n        /* \"smart_contract/ex/MGCNftAirdrop.sol\":7146:7366  function appendWhiteList(address[] memory accounts, uint32[] memory numbers) public onlyOwner {... */\n    tag_46:\n        /* \"smart_contract/node_modules/@openzeppelin/contracts/access/Ownable.sol\":1116:1123  address */\n      0x00\n        /* \"smart_contract/node_modules/@openzeppelin/contracts/access/Ownable.sol\":1143:1149  _owner */\n      sload\n      sub(shl(0xa0, 0x01), 0x01)\n      and\n        /* \"smart_contract/node_modules/@openzeppelin/contracts/utils/Context.sol\":736:746  msg.sender */\n      caller\n        /* \"smart_contract/node_modules/@openzeppelin/contracts/access/Ownable.sol\":1290:1313  owner() == _msgSender() */\n      eq\n        /* \"smart_contract/node_modules/@openzeppelin/contracts/access/Ownable.sol\":1282:1350  require(owner() == _msgSender(), \"Ownable: caller is not the owner\") */\n      tag_140\n      jumpi\n      mload(0x40)\n      shl(0xe5, 0x461bcd)\n      dup2\n      mstore\n      0x04\n      add\n      tag_91\n      swap1\n      tag_142\n      jump\t// in\n    tag_140:\n        /* \"smart_contract/ex/MGCNftAirdrop.sol\":7256:7265  uint256 i */\n      0x00\n        /* \"smart_contract/ex/MGCNftAirdrop.sol\":7251:7359  for (uint256 i = 0; i < accounts.length; i++) {... */\n    tag_144:\n        /* \"smart_contract/ex/MGCNftAirdrop.sol\":7275:7283  accounts */\n      dup3\n        /* \"smart_contract/ex/MGCNftAirdrop.sol\":7275:7290  accounts.length */\n      mload\n        /* \"smart_contract/ex/MGCNftAirdrop.sol\":7271:7272  i */\n      dup2\n        /* \"smart_contract/ex/MGCNftAirdrop.sol\":7271:7290  i < accounts.length */\n      lt\n        /* \"smart_contract/ex/MGCNftAirdrop.sol\":7251:7359  for (uint256 i = 0; i < accounts.length; i++) {... */\n      iszero\n      tag_145\n      jumpi\n        /* \"smart_contract/ex/MGCNftAirdrop.sol\":7337:7344  numbers */\n      dup2\n        /* \"smart_contract/ex/MGCNftAirdrop.sol\":7345:7346  i */\n      dup2\n        /* \"smart_contract/ex/MGCNftAirdrop.sol\":7337:7347  numbers[i] */\n      dup2\n      mload\n      dup2\n      lt\n      tag_148\n      jumpi\n      tag_148\n      tag_103\n      jump\t// in\n    tag_148:\n      0x20\n      mul\n      0x20\n      add\n      add\n      mload\n        /* \"smart_contract/ex/MGCNftAirdrop.sol\":7312:7321  whiteList */\n      0x01\n        /* \"smart_contract/ex/MGCNftAirdrop.sol\":7312:7334  whiteList[accounts[i]] */\n      0x00\n        /* \"smart_contract/ex/MGCNftAirdrop.sol\":7322:7330  accounts */\n      dup6\n        /* \"smart_contract/ex/MGCNftAirdrop.sol\":7331:7332  i */\n      dup5\n        /* \"smart_contract/ex/MGCNftAirdrop.sol\":7322:7333  accounts[i] */\n      dup2\n      mload\n      dup2\n      lt\n      tag_150\n      jumpi\n      tag_150\n      tag_103\n      jump\t// in\n    tag_150:\n      0x20\n      mul\n      0x20\n      add\n      add\n      mload\n      sub(shl(0xa0, 0x01), 0x01)\n        /* \"smart_contract/ex/MGCNftAirdrop.sol\":7312:7334  whiteList[accounts[i]] */\n      and\n      sub(shl(0xa0, 0x01), 0x01)\n      and\n      dup2\n      mstore\n      0x20\n      add\n      swap1\n      dup2\n      mstore\n      0x20\n      add\n      0x00\n      keccak256\n      0x00\n        /* \"smart_contract/ex/MGCNftAirdrop.sol\":7312:7347  whiteList[accounts[i]] = numbers[i] */\n      0x0100\n      exp\n      dup2\n      sload\n      dup2\n      0xffffffff\n      mul\n      not\n      and\n      swap1\n      dup4\n      0xffffffff\n      and\n      mul\n      or\n      swap1\n      sstore\n      pop\n        /* \"smart_contract/ex/MGCNftAirdrop.sol\":7292:7295  i++ */\n      dup1\n      dup1\n      tag_151\n      swap1\n      tag_152\n      jump\t// in\n    tag_151:\n      swap2\n      pop\n      pop\n        /* \"smart_contract/ex/MGCNftAirdrop.sol\":7251:7359  for (uint256 i = 0; i < accounts.length; i++) {... */\n      jump(tag_144)\n    tag_145:\n      pop\n        /* \"smart_contract/ex/MGCNftAirdrop.sol\":7146:7366  function appendWhiteList(address[] memory accounts, uint32[] memory numbers) public onlyOwner {... */\n      pop\n      pop\n      jump\t// out\n        /* \"smart_contract/ex/MGCNftAirdrop.sol\":7374:7712  function addNFTBatch(... */\n    tag_50:\n        /* \"smart_contract/node_modules/@openzeppelin/contracts/access/Ownable.sol\":1116:1123  address */\n      0x00\n        /* \"smart_contract/node_modules/@openzeppelin/contracts/access/Ownable.sol\":1143:1149  _owner */\n      sload\n      sub(shl(0xa0, 0x01), 0x01)\n      and\n        /* \"smart_contract/node_modules/@openzeppelin/contracts/utils/Context.sol\":736:746  msg.sender */\n      caller\n        /* \"smart_contract/node_modules/@openzeppelin/contracts/access/Ownable.sol\":1290:1313  owner() == _msgSender() */\n      eq\n        /* \"smart_contract/node_modules/@openzeppelin/contracts/access/Ownable.sol\":1282:1350  require(owner() == _msgSender(), \"Ownable: caller is not the owner\") */\n      tag_156\n      jumpi\n      mload(0x40)\n      shl(0xe5, 0x461bcd)\n      dup2\n      mstore\n      0x04\n      add\n      tag_91\n      swap1\n      tag_142\n      jump\t// in\n    tag_156:\n      sub(shl(0xa0, 0x01), 0x01)\n        /* \"smart_contract/ex/MGCNftAirdrop.sol\":7566:7592  nftIds[nftContractAddress] */\n      dup4\n      and\n      0x00\n      swap1\n      dup2\n      mstore\n        /* \"smart_contract/ex/MGCNftAirdrop.sol\":7566:7572  nftIds */\n      0x02\n        /* \"smart_contract/ex/MGCNftAirdrop.sol\":7566:7592  nftIds[nftContractAddress] */\n      0x20\n      mstore\n      0x40\n      swap1\n      keccak256\n        /* \"smart_contract/ex/MGCNftAirdrop.sol\":7535:7598  LibArrayForUint256Utils.extend(nftIds[nftContractAddress], ids) */\n      tag_159\n      swap1\n        /* \"smart_contract/ex/MGCNftAirdrop.sol\":7594:7597  ids */\n      dup4\n        /* \"smart_contract/ex/MGCNftAirdrop.sol\":7535:7565  LibArrayForUint256Utils.extend */\n      tag_160\n        /* \"smart_contract/ex/MGCNftAirdrop.sol\":7535:7598  LibArrayForUint256Utils.extend(nftIds[nftContractAddress], ids) */\n      jump\t// in\n    tag_159:\n        /* \"smart_contract/ex/MGCNftAirdrop.sol\":7609:7704  IERC1155(nftContractAddress).safeBatchTransferFrom(msg.sender, address(this), ids, amounts, \"\") */\n      mload(0x40)\n      shl(0xe1, 0x1759616b)\n      dup2\n      mstore\n      sub(shl(0xa0, 0x01), 0x01)\n        /* \"smart_contract/ex/MGCNftAirdrop.sol\":7609:7659  IERC1155(nftContractAddress).safeBatchTransferFrom */\n      dup5\n      and\n      swap1\n      0x2eb2c2d6\n      swap1\n        /* \"smart_contract/ex/MGCNftAirdrop.sol\":7609:7704  IERC1155(nftContractAddress).safeBatchTransferFrom(msg.sender, address(this), ids, amounts, \"\") */\n      tag_161\n      swap1\n        /* \"smart_contract/ex/MGCNftAirdrop.sol\":7660:7670  msg.sender */\n      caller\n      swap1\n        /* \"smart_contract/ex/MGCNftAirdrop.sol\":7680:7684  this */\n      address\n      swap1\n        /* \"smart_contract/ex/MGCNftAirdrop.sol\":7687:7690  ids */\n      dup8\n      swap1\n        /* \"smart_contract/ex/MGCNftAirdrop.sol\":7692:7699  amounts */\n      dup8\n      swap1\n        /* \"smart_contract/ex/MGCNftAirdrop.sol\":7609:7704  IERC1155(nftContractAddress).safeBatchTransferFrom(msg.sender, address(this), ids, amounts, \"\") */\n      0x04\n      add\n      tag_111\n      jump\t// in\n    tag_161:\n      0x00\n      mload(0x40)\n      dup1\n      dup4\n      sub\n      dup2\n      0x00\n      dup8\n      dup1\n      extcodesize\n      iszero\n      dup1\n      iszero\n      tag_162\n      jumpi\n      0x00\n      dup1\n      revert\n    tag_162:\n      pop\n      gas\n      call\n      iszero\n      dup1\n      iszero\n      tag_164\n      jumpi\n      returndatasize\n      0x00\n      dup1\n      returndatacopy\n      revert(0x00, returndatasize)\n    tag_164:\n      pop\n      pop\n      pop\n      pop\n        /* \"smart_contract/ex/MGCNftAirdrop.sol\":7374:7712  function addNFTBatch(... */\n      pop\n      pop\n      pop\n      jump\t// out\n        /* \"smart_contract/node_modules/@openzeppelin/contracts/access/Ownable.sol\":1721:1824  function renounceOwnership() public virtual onlyOwner {... */\n    tag_52:\n        /* \"smart_contract/node_modules/@openzeppelin/contracts/access/Ownable.sol\":1116:1123  address */\n      0x00\n        /* \"smart_contract/node_modules/@openzeppelin/contracts/access/Ownable.sol\":1143:1149  _owner */\n      sload\n      sub(shl(0xa0, 0x01), 0x01)\n      and\n        /* \"smart_contract/node_modules/@openzeppelin/contracts/utils/Context.sol\":736:746  msg.sender */\n      caller\n        /* \"smart_contract/node_modules/@openzeppelin/contracts/access/Ownable.sol\":1290:1313  owner() == _msgSender() */\n      eq\n        /* \"smart_contract/node_modules/@openzeppelin/contracts/access/Ownable.sol\":1282:1350  require(owner() == _msgSender(), \"Ownable: caller is not the owner\") */\n      tag_168\n      jumpi\n      mload(0x40)\n      shl(0xe5, 0x461bcd)\n      dup2\n      mstore\n      0x04\n      add\n      tag_91\n      swap1\n      tag_142\n      jump\t// in\n    tag_168:\n        /* \"smart_contract/node_modules/@openzeppelin/contracts/access/Ownable.sol\":1786:1816  _transferOwnership(address(0)) */\n      tag_171\n        /* \"smart_contract/node_modules/@openzeppelin/contracts/access/Ownable.sol\":1813:1814  0 */\n      0x00\n        /* \"smart_contract/node_modules/@openzeppelin/contracts/access/Ownable.sol\":1786:1804  _transferOwnership */\n      tag_172\n        /* \"smart_contract/node_modules/@openzeppelin/contracts/access/Ownable.sol\":1786:1816  _transferOwnership(address(0)) */\n      jump\t// in\n    tag_171:\n        /* \"smart_contract/node_modules/@openzeppelin/contracts/access/Ownable.sol\":1721:1824  function renounceOwnership() public virtual onlyOwner {... */\n      jump\t// out\n        /* \"smart_contract/ex/MGCNftAirdrop.sol\":8350:8809  function urgentWithdraw(address nftContractAddress) public onlyOwner {... */\n    tag_65:\n        /* \"smart_contract/node_modules/@openzeppelin/contracts/access/Ownable.sol\":1116:1123  address */\n      0x00\n        /* \"smart_contract/node_modules/@openzeppelin/contracts/access/Ownable.sol\":1143:1149  _owner */\n      sload\n      sub(shl(0xa0, 0x01), 0x01)\n      and\n        /* \"smart_contract/node_modules/@openzeppelin/contracts/utils/Context.sol\":736:746  msg.sender */\n      caller\n        /* \"smart_contract/node_modules/@openzeppelin/contracts/access/Ownable.sol\":1290:1313  owner() == _msgSender() */\n      eq\n        /* \"smart_contract/node_modules/@openzeppelin/contracts/access/Ownable.sol\":1282:1350  require(owner() == _msgSender(), \"Ownable: caller is not the owner\") */\n      tag_178\n      jumpi\n      mload(0x40)\n      shl(0xe5, 0x461bcd)\n      dup2\n      mstore\n      0x04\n      add\n      tag_91\n      swap1\n      tag_142\n      jump\t// in\n    tag_178:\n      sub(shl(0xa0, 0x01), 0x01)\n        /* \"smart_contract/ex/MGCNftAirdrop.sol\":8447:8473  nftIds[nftContractAddress] */\n      dup2\n      and\n        /* \"smart_contract/ex/MGCNftAirdrop.sol\":8430:8444  uint256 length */\n      0x00\n        /* \"smart_contract/ex/MGCNftAirdrop.sol\":8447:8473  nftIds[nftContractAddress] */\n      swap1\n      dup2\n      mstore\n        /* \"smart_contract/ex/MGCNftAirdrop.sol\":8447:8453  nftIds */\n      0x02\n        /* \"smart_contract/ex/MGCNftAirdrop.sol\":8447:8473  nftIds[nftContractAddress] */\n      0x20\n      mstore\n      0x40\n      dup2\n      keccak256\n        /* \"smart_contract/ex/MGCNftAirdrop.sol\":8447:8480  nftIds[nftContractAddress].length */\n      sload\n      swap1\n      dup2\n        /* \"smart_contract/ex/MGCNftAirdrop.sol\":8518:8539  new uint256[](length) */\n      0xffffffffffffffff\n      dup2\n      gt\n      iszero\n      tag_182\n      jumpi\n      tag_182\n      tag_85\n      jump\t// in\n    tag_182:\n      mload(0x40)\n      swap1\n      dup1\n      dup3\n      mstore\n      dup1\n      0x20\n      mul\n      0x20\n      add\n      dup3\n      add\n      0x40\n      mstore\n      dup1\n      iszero\n      tag_183\n      jumpi\n      dup2\n      0x20\n      add\n      0x20\n      dup3\n      mul\n      dup1\n      calldatasize\n      dup4\n      calldatacopy\n      add\n      swap1\n      pop\n    tag_183:\n      pop\n        /* \"smart_contract/ex/MGCNftAirdrop.sol\":8491:8539  uint256[] memory amounts = new uint256[](length) */\n      swap1\n      pop\n        /* \"smart_contract/ex/MGCNftAirdrop.sol\":8555:8564  uint256 i */\n      0x00\n        /* \"smart_contract/ex/MGCNftAirdrop.sol\":8550:8628  for (uint256 i = 0; i < length; i++) {... */\n    tag_184:\n        /* \"smart_contract/ex/MGCNftAirdrop.sol\":8574:8580  length */\n      dup3\n        /* \"smart_contract/ex/MGCNftAirdrop.sol\":8570:8571  i */\n      dup2\n        /* \"smart_contract/ex/MGCNftAirdrop.sol\":8570:8580  i < length */\n      lt\n        /* \"smart_contract/ex/MGCNftAirdrop.sol\":8550:8628  for (uint256 i = 0; i < length; i++) {... */\n      iszero\n      tag_185\n      jumpi\n        /* \"smart_contract/ex/MGCNftAirdrop.sol\":8615:8616  1 */\n      0x01\n        /* \"smart_contract/ex/MGCNftAirdrop.sol\":8602:8609  amounts */\n      dup3\n        /* \"smart_contract/ex/MGCNftAirdrop.sol\":8610:8611  i */\n      dup3\n        /* \"smart_contract/ex/MGCNftAirdrop.sol\":8602:8612  amounts[i] */\n      dup2\n      mload\n      dup2\n      lt\n      tag_188\n      jumpi\n      tag_188\n      tag_103\n      jump\t// in\n    tag_188:\n      0x20\n      swap1\n      dup2\n      mul\n      swap2\n      swap1\n      swap2\n      add\n      add\n        /* \"smart_contract/ex/MGCNftAirdrop.sol\":8602:8616  amounts[i] = 1 */\n      mstore\n        /* \"smart_contract/ex/MGCNftAirdrop.sol\":8582:8585  i++ */\n      dup1\n      tag_189\n      dup2\n      tag_152\n      jump\t// in\n    tag_189:\n      swap2\n      pop\n      pop\n        /* \"smart_contract/ex/MGCNftAirdrop.sol\":8550:8628  for (uint256 i = 0; i < length; i++) {... */\n      jump(tag_184)\n    tag_185:\n      pop\n      sub(shl(0xa0, 0x01), 0x01)\n        /* \"smart_contract/ex/MGCNftAirdrop.sol\":8638:8688  IERC1155(nftContractAddress).safeBatchTransferFrom */\n      dup4\n      and\n        /* \"smart_contract/ex/MGCNftAirdrop.sol\":8717:8743  nftIds[nftContractAddress] */\n      0x00\n      dup2\n      dup2\n      mstore\n        /* \"smart_contract/ex/MGCNftAirdrop.sol\":8717:8723  nftIds */\n      0x02\n        /* \"smart_contract/ex/MGCNftAirdrop.sol\":8717:8743  nftIds[nftContractAddress] */\n      0x20\n      mstore\n      0x40\n      swap1\n      dup2\n      swap1\n      keccak256\n        /* \"smart_contract/ex/MGCNftAirdrop.sol\":8638:8757  IERC1155(nftContractAddress).safeBatchTransferFrom( address(this), msg.sender, nftIds[nftContractAddress], amounts, \"\") */\n      swap1\n      mload\n      shl(0xe1, 0x1759616b)\n      dup2\n      mstore\n        /* \"smart_contract/ex/MGCNftAirdrop.sol\":8638:8688  IERC1155(nftContractAddress).safeBatchTransferFrom */\n      0x2eb2c2d6\n      swap2\n        /* \"smart_contract/ex/MGCNftAirdrop.sol\":8638:8757  IERC1155(nftContractAddress).safeBatchTransferFrom( address(this), msg.sender, nftIds[nftContractAddress], amounts, \"\") */\n      tag_190\n      swap2\n        /* \"smart_contract/ex/MGCNftAirdrop.sol\":8698:8702  this */\n      address\n      swap2\n        /* \"smart_contract/ex/MGCNftAirdrop.sol\":8705:8715  msg.sender */\n      caller\n      swap2\n        /* \"smart_contract/ex/MGCNftAirdrop.sol\":8745:8752  amounts */\n      dup8\n      swap1\n        /* \"smart_contract/ex/MGCNftAirdrop.sol\":8638:8757  IERC1155(nftContractAddress).safeBatchTransferFrom( address(this), msg.sender, nftIds[nftContractAddress], amounts, \"\") */\n      0x04\n      add\n      tag_191\n      jump\t// in\n    tag_190:\n      0x00\n      mload(0x40)\n      dup1\n      dup4\n      sub\n      dup2\n      0x00\n      dup8\n      dup1\n      extcodesize\n      iszero\n      dup1\n      iszero\n      tag_192\n      jumpi\n      0x00\n      dup1\n      revert\n    tag_192:\n      pop\n      gas\n      call\n      iszero\n      dup1\n      iszero\n      tag_194\n      jumpi\n      returndatasize\n      0x00\n      dup1\n      returndatacopy\n      revert(0x00, returndatasize)\n    tag_194:\n      pop\n      pop\n      pop\n      pop\n      sub(shl(0xa0, 0x01), 0x01)\n        /* \"smart_contract/ex/MGCNftAirdrop.sol\":8775:8801  nftIds[nftContractAddress] */\n      dup4\n      and\n      0x00\n      swap1\n      dup2\n      mstore\n        /* \"smart_contract/ex/MGCNftAirdrop.sol\":8775:8781  nftIds */\n      0x02\n        /* \"smart_contract/ex/MGCNftAirdrop.sol\":8775:8801  nftIds[nftContractAddress] */\n      0x20\n      mstore\n      0x40\n      dup2\n      keccak256\n        /* \"smart_contract/ex/MGCNftAirdrop.sol\":8768:8801  delete nftIds[nftContractAddress] */\n      tag_145\n      swap2\n      tag_196\n      jump\t// in\n        /* \"smart_contract/ex/MGCNftAirdrop.sol\":6922:7138  function appendWhiteListWithNumber(address[] memory accounts, uint32 number) public onlyOwner {... */\n    tag_69:\n        /* \"smart_contract/node_modules/@openzeppelin/contracts/access/Ownable.sol\":1116:1123  address */\n      0x00\n        /* \"smart_contract/node_modules/@openzeppelin/contracts/access/Ownable.sol\":1143:1149  _owner */\n      sload\n      sub(shl(0xa0, 0x01), 0x01)\n      and\n        /* \"smart_contract/node_modules/@openzeppelin/contracts/utils/Context.sol\":736:746  msg.sender */\n      caller\n        /* \"smart_contract/node_modules/@openzeppelin/contracts/access/Ownable.sol\":1290:1313  owner() == _msgSender() */\n      eq\n        /* \"smart_contract/node_modules/@openzeppelin/contracts/access/Ownable.sol\":1282:1350  require(owner() == _msgSender(), \"Ownable: caller is not the owner\") */\n      tag_200\n      jumpi\n      mload(0x40)\n      shl(0xe5, 0x461bcd)\n      dup2\n      mstore\n      0x04\n      add\n      tag_91\n      swap1\n      tag_142\n      jump\t// in\n    tag_200:\n        /* \"smart_contract/ex/MGCNftAirdrop.sol\":7032:7041  uint256 i */\n      0x00\n        /* \"smart_contract/ex/MGCNftAirdrop.sol\":7027:7131  for (uint256 i = 0; i < accounts.length; i++) {... */\n    tag_203:\n        /* \"smart_contract/ex/MGCNftAirdrop.sol\":7051:7059  accounts */\n      dup3\n        /* \"smart_contract/ex/MGCNftAirdrop.sol\":7051:7066  accounts.length */\n      mload\n        /* \"smart_contract/ex/MGCNftAirdrop.sol\":7047:7048  i */\n      dup2\n        /* \"smart_contract/ex/MGCNftAirdrop.sol\":7047:7066  i < accounts.length */\n      lt\n        /* \"smart_contract/ex/MGCNftAirdrop.sol\":7027:7131  for (uint256 i = 0; i < accounts.length; i++) {... */\n      iszero\n      tag_145\n      jumpi\n        /* \"smart_contract/ex/MGCNftAirdrop.sol\":7113:7119  number */\n      dup2\n        /* \"smart_contract/ex/MGCNftAirdrop.sol\":7088:7097  whiteList */\n      0x01\n        /* \"smart_contract/ex/MGCNftAirdrop.sol\":7088:7110  whiteList[accounts[i]] */\n      0x00\n        /* \"smart_contract/ex/MGCNftAirdrop.sol\":7098:7106  accounts */\n      dup6\n        /* \"smart_contract/ex/MGCNftAirdrop.sol\":7107:7108  i */\n      dup5\n        /* \"smart_contract/ex/MGCNftAirdrop.sol\":7098:7109  accounts[i] */\n      dup2\n      mload\n      dup2\n      lt\n      tag_207\n      jumpi\n      tag_207\n      tag_103\n      jump\t// in\n    tag_207:\n      0x20\n      mul\n      0x20\n      add\n      add\n      mload\n      sub(shl(0xa0, 0x01), 0x01)\n        /* \"smart_contract/ex/MGCNftAirdrop.sol\":7088:7110  whiteList[accounts[i]] */\n      and\n      sub(shl(0xa0, 0x01), 0x01)\n      and\n      dup2\n      mstore\n      0x20\n      add\n      swap1\n      dup2\n      mstore\n      0x20\n      add\n      0x00\n      keccak256\n      0x00\n        /* \"smart_contract/ex/MGCNftAirdrop.sol\":7088:7119  whiteList[accounts[i]] = number */\n      0x0100\n      exp\n      dup2\n      sload\n      dup2\n      0xffffffff\n      mul\n      not\n      and\n      swap1\n      dup4\n      0xffffffff\n      and\n      mul\n      or\n      swap1\n      sstore\n      pop\n        /* \"smart_contract/ex/MGCNftAirdrop.sol\":7068:7071  i++ */\n      dup1\n      dup1\n      tag_208\n      swap1\n      tag_152\n      jump\t// in\n    tag_208:\n      swap2\n      pop\n      pop\n        /* \"smart_contract/ex/MGCNftAirdrop.sol\":7027:7131  for (uint256 i = 0; i < accounts.length; i++) {... */\n      jump(tag_203)\n        /* \"smart_contract/node_modules/@openzeppelin/contracts/access/Ownable.sol\":1979:2180  function transferOwnership(address newOwner) public virtual onlyOwner {... */\n    tag_77:\n        /* \"smart_contract/node_modules/@openzeppelin/contracts/access/Ownable.sol\":1116:1123  address */\n      0x00\n        /* \"smart_contract/node_modules/@openzeppelin/contracts/access/Ownable.sol\":1143:1149  _owner */\n      sload\n      sub(shl(0xa0, 0x01), 0x01)\n      and\n        /* \"smart_contract/node_modules/@openzeppelin/contracts/utils/Context.sol\":736:746  msg.sender */\n      caller\n        /* \"smart_contract/node_modules/@openzeppelin/contracts/access/Ownable.sol\":1290:1313  owner() == _msgSender() */\n      eq\n        /* \"smart_contract/node_modules/@openzeppelin/contracts/access/Ownable.sol\":1282:1350  require(owner() == _msgSender(), \"Ownable: caller is not the owner\") */\n      tag_213\n      jumpi\n      mload(0x40)\n      shl(0xe5, 0x461bcd)\n      dup2\n      mstore\n      0x04\n      add\n      tag_91\n      swap1\n      tag_142\n      jump\t// in\n    tag_213:\n      sub(shl(0xa0, 0x01), 0x01)\n        /* \"smart_contract/node_modules/@openzeppelin/contracts/access/Ownable.sol\":2068:2090  newOwner != address(0) */\n      dup2\n      and\n        /* \"smart_contract/node_modules/@openzeppelin/contracts/access/Ownable.sol\":2060:2133  require(newOwner != address(0), \"Ownable: new owner is the zero address\") */\n      tag_216\n      jumpi\n      mload(0x40)\n      shl(0xe5, 0x461bcd)\n      dup2\n      mstore\n        /* \"#utility.yul\":13942:13944   */\n      0x20\n        /* \"smart_contract/node_modules/@openzeppelin/contracts/access/Ownable.sol\":2060:2133  require(newOwner != address(0), \"Ownable: new owner is the zero address\") */\n      0x04\n      dup3\n      add\n        /* \"#utility.yul\":13924:13945   */\n      mstore\n        /* \"#utility.yul\":13981:13983   */\n      0x26\n        /* \"#utility.yul\":13961:13979   */\n      0x24\n      dup3\n      add\n        /* \"#utility.yul\":13954:13984   */\n      mstore\n        /* \"#utility.yul\":14020:14054   */\n      0x4f776e61626c653a206e6577206f776e657220697320746865207a65726f2061\n        /* \"#utility.yul\":14000:14018   */\n      0x44\n      dup3\n      add\n        /* \"#utility.yul\":13993:14055   */\n      mstore\n      shl(0xd0, 0x646472657373)\n        /* \"#utility.yul\":14071:14089   */\n      0x64\n      dup3\n      add\n        /* \"#utility.yul\":14064:14100   */\n      mstore\n        /* \"#utility.yul\":14117:14136   */\n      0x84\n      add\n        /* \"smart_contract/node_modules/@openzeppelin/contracts/access/Ownable.sol\":2060:2133  require(newOwner != address(0), \"Ownable: new owner is the zero address\") */\n      tag_91\n        /* \"#utility.yul\":13740:14142   */\n      jump\n        /* \"smart_contract/node_modules/@openzeppelin/contracts/access/Ownable.sol\":2060:2133  require(newOwner != address(0), \"Ownable: new owner is the zero address\") */\n    tag_216:\n        /* \"smart_contract/node_modules/@openzeppelin/contracts/access/Ownable.sol\":2144:2172  _transferOwnership(newOwner) */\n      tag_219\n        /* \"smart_contract/node_modules/@openzeppelin/contracts/access/Ownable.sol\":2163:2171  newOwner */\n      dup2\n        /* \"smart_contract/node_modules/@openzeppelin/contracts/access/Ownable.sol\":2144:2162  _transferOwnership */\n      tag_172\n        /* \"smart_contract/node_modules/@openzeppelin/contracts/access/Ownable.sol\":2144:2172  _transferOwnership(newOwner) */\n      jump\t// in\n    tag_219:\n        /* \"smart_contract/node_modules/@openzeppelin/contracts/access/Ownable.sol\":1979:2180  function transferOwnership(address newOwner) public virtual onlyOwner {... */\n      pop\n      jump\t// out\n        /* \"smart_contract/ex/MGCNftAirdrop.sol\":6298:6639  function min(uint256[] storage array) internal view returns (uint256 minValue, uint256 minIndex) {... */\n    tag_123:\n        /* \"smart_contract/ex/MGCNftAirdrop.sol\":6359:6375  uint256 minValue */\n      0x00\n        /* \"smart_contract/ex/MGCNftAirdrop.sol\":6377:6393  uint256 minIndex */\n      dup1\n        /* \"smart_contract/ex/MGCNftAirdrop.sol\":6417:6422  array */\n      dup3\n        /* \"smart_contract/ex/MGCNftAirdrop.sol\":6423:6424  0 */\n      0x00\n        /* \"smart_contract/ex/MGCNftAirdrop.sol\":6417:6425  array[0] */\n      dup2\n      sload\n      dup2\n      lt\n      tag_223\n      jumpi\n      tag_223\n      tag_103\n      jump\t// in\n    tag_223:\n      swap1\n      0x00\n      mstore\n      keccak256(0x00, 0x20)\n      add\n      sload\n        /* \"smart_contract/ex/MGCNftAirdrop.sol\":6406:6425  minValue = array[0] */\n      swap2\n      pop\n        /* \"smart_contract/ex/MGCNftAirdrop.sol\":6447:6448  0 */\n      0x00\n        /* \"smart_contract/ex/MGCNftAirdrop.sol\":6436:6448  minIndex = 0 */\n      swap1\n      pop\n        /* \"smart_contract/ex/MGCNftAirdrop.sol\":6463:6472  uint256 i */\n      0x00\n        /* \"smart_contract/ex/MGCNftAirdrop.sol\":6459:6632  for(uint256 i = 0;i < array.length;i++){... */\n    tag_225:\n        /* \"smart_contract/ex/MGCNftAirdrop.sol\":6481:6493  array.length */\n      dup4\n      sload\n        /* \"smart_contract/ex/MGCNftAirdrop.sol\":6477:6493  i < array.length */\n      dup2\n      lt\n        /* \"smart_contract/ex/MGCNftAirdrop.sol\":6459:6632  for(uint256 i = 0;i < array.length;i++){... */\n      iszero\n      tag_226\n      jumpi\n        /* \"smart_contract/ex/MGCNftAirdrop.sol\":6527:6535  minValue */\n      dup3\n        /* \"smart_contract/ex/MGCNftAirdrop.sol\":6516:6521  array */\n      dup5\n        /* \"smart_contract/ex/MGCNftAirdrop.sol\":6522:6523  i */\n      dup3\n        /* \"smart_contract/ex/MGCNftAirdrop.sol\":6516:6524  array[i] */\n      dup2\n      sload\n      dup2\n      lt\n      tag_229\n      jumpi\n      tag_229\n      tag_103\n      jump\t// in\n    tag_229:\n      swap1\n      0x00\n      mstore\n      keccak256(0x00, 0x20)\n      add\n      sload\n        /* \"smart_contract/ex/MGCNftAirdrop.sol\":6516:6535  array[i] < minValue */\n      lt\n        /* \"smart_contract/ex/MGCNftAirdrop.sol\":6513:6621  if(array[i] < minValue){... */\n      iszero\n      tag_231\n      jumpi\n        /* \"smart_contract/ex/MGCNftAirdrop.sol\":6566:6571  array */\n      dup4\n        /* \"smart_contract/ex/MGCNftAirdrop.sol\":6572:6573  i */\n      dup2\n        /* \"smart_contract/ex/MGCNftAirdrop.sol\":6566:6574  array[i] */\n      dup2\n      sload\n      dup2\n      lt\n      tag_233\n      jumpi\n      tag_233\n      tag_103\n      jump\t// in\n    tag_233:\n      swap1\n      0x00\n      mstore\n      keccak256(0x00, 0x20)\n      add\n      sload\n        /* \"smart_contract/ex/MGCNftAirdrop.sol\":6555:6574  minValue = array[i] */\n      swap3\n      pop\n        /* \"smart_contract/ex/MGCNftAirdrop.sol\":6604:6605  i */\n      dup1\n        /* \"smart_contract/ex/MGCNftAirdrop.sol\":6593:6605  minIndex = i */\n      swap2\n      pop\n        /* \"smart_contract/ex/MGCNftAirdrop.sol\":6513:6621  if(array[i] < minValue){... */\n    tag_231:\n        /* \"smart_contract/ex/MGCNftAirdrop.sol\":6494:6497  i++ */\n      dup1\n      tag_235\n      dup2\n      tag_152\n      jump\t// in\n    tag_235:\n      swap2\n      pop\n      pop\n        /* \"smart_contract/ex/MGCNftAirdrop.sol\":6459:6632  for(uint256 i = 0;i < array.length;i++){... */\n      jump(tag_225)\n    tag_226:\n      pop\n        /* \"smart_contract/ex/MGCNftAirdrop.sol\":6298:6639  function min(uint256[] storage array) internal view returns (uint256 minValue, uint256 minIndex) {... */\n      swap2\n      pop\n      swap2\n      jump\t// out\n        /* \"smart_contract/ex/MGCNftAirdrop.sol\":4212:4512  function removeByIndex(uint256[] storage array, uint index) internal{... */\n    tag_125:\n        /* \"smart_contract/ex/MGCNftAirdrop.sol\":4304:4316  array.length */\n      dup2\n      sload\n        /* \"smart_contract/ex/MGCNftAirdrop.sol\":4296:4316  index < array.length */\n      dup2\n      lt\n        /* \"smart_contract/ex/MGCNftAirdrop.sol\":4288:4357  require(index < array.length, \"ArrayForUint256: index out of bounds\") */\n      tag_237\n      jumpi\n      mload(0x40)\n      shl(0xe5, 0x461bcd)\n      dup2\n      mstore\n        /* \"#utility.yul\":14349:14351   */\n      0x20\n        /* \"smart_contract/ex/MGCNftAirdrop.sol\":4288:4357  require(index < array.length, \"ArrayForUint256: index out of bounds\") */\n      0x04\n      dup3\n      add\n        /* \"#utility.yul\":14331:14352   */\n      mstore\n        /* \"#utility.yul\":14388:14390   */\n      0x24\n        /* \"#utility.yul\":14368:14386   */\n      dup1\n      dup3\n      add\n        /* \"#utility.yul\":14361:14391   */\n      mstore\n        /* \"#utility.yul\":14427:14461   */\n      0x4172726179466f7255696e743235363a20696e646578206f7574206f6620626f\n        /* \"#utility.yul\":14407:14425   */\n      0x44\n      dup3\n      add\n        /* \"#utility.yul\":14400:14462   */\n      mstore\n      shl(0xe0, 0x756e6473)\n        /* \"#utility.yul\":14478:14496   */\n      0x64\n      dup3\n      add\n        /* \"#utility.yul\":14471:14505   */\n      mstore\n        /* \"#utility.yul\":14522:14541   */\n      0x84\n      add\n        /* \"smart_contract/ex/MGCNftAirdrop.sol\":4288:4357  require(index < array.length, \"ArrayForUint256: index out of bounds\") */\n      tag_91\n        /* \"#utility.yul\":14147:14547   */\n      jump\n        /* \"smart_contract/ex/MGCNftAirdrop.sol\":4288:4357  require(index < array.length, \"ArrayForUint256: index out of bounds\") */\n    tag_237:\n        /* \"smart_contract/ex/MGCNftAirdrop.sol\":4385:4397  array.length */\n      dup2\n      sload\n        /* \"smart_contract/ex/MGCNftAirdrop.sol\":4385:4401  array.length - 1 */\n      tag_242\n      swap1\n        /* \"smart_contract/ex/MGCNftAirdrop.sol\":4400:4401  1 */\n      0x01\n      swap1\n        /* \"smart_contract/ex/MGCNftAirdrop.sol\":4385:4401  array.length - 1 */\n      tag_99\n      jump\t// in\n    tag_242:\n        /* \"smart_contract/ex/MGCNftAirdrop.sol\":4377:4382  index */\n      dup2\n        /* \"smart_contract/ex/MGCNftAirdrop.sol\":4377:4401  index < array.length - 1 */\n      lt\n        /* \"smart_contract/ex/MGCNftAirdrop.sol\":4370:4483  while (index < array.length - 1) {... */\n      iszero\n      tag_241\n      jumpi\n        /* \"smart_contract/ex/MGCNftAirdrop.sol\":4433:4438  array */\n      dup2\n        /* \"smart_contract/ex/MGCNftAirdrop.sol\":4439:4448  index + 1 */\n      tag_243\n        /* \"smart_contract/ex/MGCNftAirdrop.sol\":4439:4444  index */\n      dup3\n        /* \"smart_contract/ex/MGCNftAirdrop.sol\":4447:4448  1 */\n      0x01\n        /* \"smart_contract/ex/MGCNftAirdrop.sol\":4439:4448  index + 1 */\n      tag_97\n      jump\t// in\n    tag_243:\n        /* \"smart_contract/ex/MGCNftAirdrop.sol\":4433:4449  array[index + 1] */\n      dup2\n      sload\n      dup2\n      lt\n      tag_245\n      jumpi\n      tag_245\n      tag_103\n      jump\t// in\n    tag_245:\n      swap1\n      0x00\n      mstore\n      keccak256(0x00, 0x20)\n      add\n      sload\n        /* \"smart_contract/ex/MGCNftAirdrop.sol\":4418:4423  array */\n      dup3\n        /* \"smart_contract/ex/MGCNftAirdrop.sol\":4424:4429  index */\n      dup3\n        /* \"smart_contract/ex/MGCNftAirdrop.sol\":4418:4430  array[index] */\n      dup2\n      sload\n      dup2\n      lt\n      tag_248\n      jumpi\n      tag_248\n      tag_103\n      jump\t// in\n    tag_248:\n      0x00\n      swap2\n      dup3\n      mstore\n      0x20\n      swap1\n      swap2\n      keccak256\n      add\n        /* \"smart_contract/ex/MGCNftAirdrop.sol\":4418:4449  array[index] = array[index + 1] */\n      sstore\n        /* \"smart_contract/ex/MGCNftAirdrop.sol\":4464:4471  index++ */\n      dup1\n      tag_250\n      dup2\n      tag_152\n      jump\t// in\n    tag_250:\n      swap2\n      pop\n      pop\n        /* \"smart_contract/ex/MGCNftAirdrop.sol\":4370:4483  while (index < array.length - 1) {... */\n      jump(tag_237)\n    tag_241:\n        /* \"smart_contract/ex/MGCNftAirdrop.sol\":4493:4498  array */\n      dup2\n        /* \"smart_contract/ex/MGCNftAirdrop.sol\":4493:4504  array.pop() */\n      dup1\n      sload\n      dup1\n      tag_252\n      jumpi\n      tag_252\n      tag_253\n      jump\t// in\n    tag_252:\n      0x01\n      swap1\n      sub\n      dup2\n      dup2\n      swap1\n      0x00\n      mstore\n      keccak256(0x00, 0x20)\n      add\n      0x00\n      swap1\n      sstore\n      swap1\n      sstore\n        /* \"smart_contract/ex/MGCNftAirdrop.sol\":4212:4512  function removeByIndex(uint256[] storage array, uint index) internal{... */\n      pop\n      pop\n      jump\t// out\n        /* \"smart_contract/ex/MGCNftAirdrop.sol\":5008:5189  function extend(uint256[] storage a, uint256[] memory b) internal {... */\n    tag_160:\n        /* \"smart_contract/ex/MGCNftAirdrop.sol\":5085:5093  b.length */\n      dup1\n      mload\n        /* \"smart_contract/ex/MGCNftAirdrop.sol\":5085:5098  b.length != 0 */\n      iszero\n        /* \"smart_contract/ex/MGCNftAirdrop.sol\":5082:5182  if(b.length != 0){... */\n      tag_257\n      jumpi\n        /* \"smart_contract/ex/MGCNftAirdrop.sol\":5112:5118  uint i */\n      0x00\n        /* \"smart_contract/ex/MGCNftAirdrop.sol\":5108:5174  for(uint i = 0; i < b.length; i++){... */\n    tag_258:\n        /* \"smart_contract/ex/MGCNftAirdrop.sol\":5128:5129  b */\n      dup2\n        /* \"smart_contract/ex/MGCNftAirdrop.sol\":5128:5136  b.length */\n      mload\n        /* \"smart_contract/ex/MGCNftAirdrop.sol\":5124:5125  i */\n      dup2\n        /* \"smart_contract/ex/MGCNftAirdrop.sol\":5124:5136  i < b.length */\n      lt\n        /* \"smart_contract/ex/MGCNftAirdrop.sol\":5108:5174  for(uint i = 0; i < b.length; i++){... */\n      iszero\n      tag_145\n      jumpi\n        /* \"smart_contract/ex/MGCNftAirdrop.sol\":5152:5153  a */\n      dup3\n        /* \"smart_contract/ex/MGCNftAirdrop.sol\":5159:5160  b */\n      dup3\n        /* \"smart_contract/ex/MGCNftAirdrop.sol\":5161:5162  i */\n      dup3\n        /* \"smart_contract/ex/MGCNftAirdrop.sol\":5159:5163  b[i] */\n      dup2\n      mload\n      dup2\n      lt\n      tag_262\n      jumpi\n      tag_262\n      tag_103\n      jump\t// in\n    tag_262:\n      0x20\n      swap1\n      dup2\n      mul\n      swap2\n      swap1\n      swap2\n      add\n      dup2\n      add\n      mload\n        /* \"smart_contract/ex/MGCNftAirdrop.sol\":5152:5164  a.push(b[i]) */\n      dup3\n      sload\n      0x01\n      dup2\n      add\n      dup5\n      sstore\n      0x00\n      swap4\n      dup5\n      mstore\n      swap2\n      swap1\n      swap3\n      keccak256\n      add\n      sstore\n        /* \"smart_contract/ex/MGCNftAirdrop.sol\":5138:5141  i++ */\n      dup1\n      tag_264\n      dup2\n      tag_152\n      jump\t// in\n    tag_264:\n      swap2\n      pop\n      pop\n        /* \"smart_contract/ex/MGCNftAirdrop.sol\":5108:5174  for(uint i = 0; i < b.length; i++){... */\n      jump(tag_258)\n        /* \"smart_contract/ex/MGCNftAirdrop.sol\":5082:5182  if(b.length != 0){... */\n    tag_257:\n        /* \"smart_contract/ex/MGCNftAirdrop.sol\":5008:5189  function extend(uint256[] storage a, uint256[] memory b) internal {... */\n      pop\n      pop\n      jump\t// out\n        /* \"smart_contract/node_modules/@openzeppelin/contracts/access/Ownable.sol\":2340:2531  function _transferOwnership(address newOwner) internal virtual {... */\n    tag_172:\n        /* \"smart_contract/node_modules/@openzeppelin/contracts/access/Ownable.sol\":2414:2430  address oldOwner */\n      0x00\n        /* \"smart_contract/node_modules/@openzeppelin/contracts/access/Ownable.sol\":2433:2439  _owner */\n      dup1\n      sload\n      sub(shl(0xa0, 0x01), 0x01)\n        /* \"smart_contract/node_modules/@openzeppelin/contracts/access/Ownable.sol\":2450:2467  _owner = newOwner */\n      dup4\n      dup2\n      and\n      not(sub(shl(0xa0, 0x01), 0x01))\n      dup4\n      and\n      dup2\n      or\n      dup5\n      sstore\n        /* \"smart_contract/node_modules/@openzeppelin/contracts/access/Ownable.sol\":2483:2523  OwnershipTransferred(oldOwner, newOwner) */\n      mload(0x40)\n        /* \"smart_contract/node_modules/@openzeppelin/contracts/access/Ownable.sol\":2433:2439  _owner */\n      swap2\n      swap1\n      swap3\n      and\n      swap3\n      dup4\n      swap2\n        /* \"smart_contract/node_modules/@openzeppelin/contracts/access/Ownable.sol\":2483:2523  OwnershipTransferred(oldOwner, newOwner) */\n      0x8be0079c531659141344cd1fd0a4f28419497f9722a3daafe3b4186f6b6457e0\n      swap2\n        /* \"smart_contract/node_modules/@openzeppelin/contracts/access/Ownable.sol\":2414:2430  address oldOwner */\n      swap1\n        /* \"smart_contract/node_modules/@openzeppelin/contracts/access/Ownable.sol\":2483:2523  OwnershipTransferred(oldOwner, newOwner) */\n      log3\n        /* \"smart_contract/node_modules/@openzeppelin/contracts/access/Ownable.sol\":2403:2531  {... */\n      pop\n        /* \"smart_contract/node_modules/@openzeppelin/contracts/access/Ownable.sol\":2340:2531  function _transferOwnership(address newOwner) internal virtual {... */\n      pop\n      jump\t// out\n    tag_196:\n      pop\n      dup1\n      sload\n      0x00\n      dup3\n      sstore\n      swap1\n      0x00\n      mstore\n      keccak256(0x00, 0x20)\n      swap1\n      dup2\n      add\n      swap1\n      tag_219\n      swap2\n      swap1\n    tag_269:\n      dup1\n      dup3\n      gt\n      iszero\n      tag_270\n      jumpi\n      0x00\n      dup2\n      sstore\n      0x01\n      add\n      jump(tag_269)\n    tag_270:\n      pop\n      swap1\n      jump\t// out\n        /* \"#utility.yul\":14:300   */\n    tag_22:\n        /* \"#utility.yul\":72:78   */\n      0x00\n        /* \"#utility.yul\":125:127   */\n      0x20\n        /* \"#utility.yul\":113:122   */\n      dup3\n        /* \"#utility.yul\":104:111   */\n      dup5\n        /* \"#utility.yul\":100:123   */\n      sub\n        /* \"#utility.yul\":96:128   */\n      slt\n        /* \"#utility.yul\":93:145   */\n      iszero\n      tag_282\n      jumpi\n        /* \"#utility.yul\":141:142   */\n      0x00\n        /* \"#utility.yul\":138:139   */\n      dup1\n        /* \"#utility.yul\":131:143   */\n      revert\n        /* \"#utility.yul\":93:145   */\n    tag_282:\n        /* \"#utility.yul\":167:190   */\n      dup2\n      calldataload\n      not(sub(shl(0xe0, 0x01), 0x01))\n        /* \"#utility.yul\":219:251   */\n      dup2\n      and\n        /* \"#utility.yul\":209:252   */\n      dup2\n      eq\n        /* \"#utility.yul\":199:270   */\n      tag_283\n      jumpi\n        /* \"#utility.yul\":266:267   */\n      0x00\n        /* \"#utility.yul\":263:264   */\n      dup1\n        /* \"#utility.yul\":256:268   */\n      revert\n        /* \"#utility.yul\":199:270   */\n    tag_283:\n        /* \"#utility.yul\":289:294   */\n      swap4\n        /* \"#utility.yul\":14:300   */\n      swap3\n      pop\n      pop\n      pop\n      jump\t// out\n        /* \"#utility.yul\":497:670   */\n    tag_271:\n        /* \"#utility.yul\":565:585   */\n      dup1\n      calldataload\n      sub(shl(0xa0, 0x01), 0x01)\n        /* \"#utility.yul\":614:645   */\n      dup2\n      and\n        /* \"#utility.yul\":604:646   */\n      dup2\n      eq\n        /* \"#utility.yul\":594:664   */\n      tag_286\n      jumpi\n        /* \"#utility.yul\":660:661   */\n      0x00\n        /* \"#utility.yul\":657:658   */\n      dup1\n        /* \"#utility.yul\":650:662   */\n      revert\n        /* \"#utility.yul\":594:664   */\n    tag_286:\n        /* \"#utility.yul\":497:670   */\n      swap2\n      swap1\n      pop\n      jump\t// out\n        /* \"#utility.yul\":675:861   */\n    tag_28:\n        /* \"#utility.yul\":734:740   */\n      0x00\n        /* \"#utility.yul\":787:789   */\n      0x20\n        /* \"#utility.yul\":775:784   */\n      dup3\n        /* \"#utility.yul\":766:773   */\n      dup5\n        /* \"#utility.yul\":762:785   */\n      sub\n        /* \"#utility.yul\":758:790   */\n      slt\n        /* \"#utility.yul\":755:807   */\n      iszero\n      tag_288\n      jumpi\n        /* \"#utility.yul\":803:804   */\n      0x00\n        /* \"#utility.yul\":800:801   */\n      dup1\n        /* \"#utility.yul\":793:805   */\n      revert\n        /* \"#utility.yul\":755:807   */\n    tag_288:\n        /* \"#utility.yul\":826:855   */\n      tag_283\n        /* \"#utility.yul\":845:854   */\n      dup3\n        /* \"#utility.yul\":826:855   */\n      tag_271\n      jump\t// in\n        /* \"#utility.yul\":1063:1385   */\n    tag_34:\n        /* \"#utility.yul\":1140:1146   */\n      0x00\n        /* \"#utility.yul\":1148:1154   */\n      dup1\n        /* \"#utility.yul\":1156:1162   */\n      0x00\n        /* \"#utility.yul\":1209:1211   */\n      0x60\n        /* \"#utility.yul\":1197:1206   */\n      dup5\n        /* \"#utility.yul\":1188:1195   */\n      dup7\n        /* \"#utility.yul\":1184:1207   */\n      sub\n        /* \"#utility.yul\":1180:1212   */\n      slt\n        /* \"#utility.yul\":1177:1229   */\n      iszero\n      tag_292\n      jumpi\n        /* \"#utility.yul\":1225:1226   */\n      0x00\n        /* \"#utility.yul\":1222:1223   */\n      dup1\n        /* \"#utility.yul\":1215:1227   */\n      revert\n        /* \"#utility.yul\":1177:1229   */\n    tag_292:\n        /* \"#utility.yul\":1248:1277   */\n      tag_293\n        /* \"#utility.yul\":1267:1276   */\n      dup5\n        /* \"#utility.yul\":1248:1277   */\n      tag_271\n      jump\t// in\n    tag_293:\n        /* \"#utility.yul\":1238:1277   */\n      swap6\n        /* \"#utility.yul\":1324:1326   */\n      0x20\n        /* \"#utility.yul\":1309:1327   */\n      dup6\n      add\n        /* \"#utility.yul\":1296:1328   */\n      calldataload\n      swap6\n      pop\n        /* \"#utility.yul\":1375:1377   */\n      0x40\n        /* \"#utility.yul\":1360:1378   */\n      swap1\n      swap5\n      add\n        /* \"#utility.yul\":1347:1379   */\n      calldataload\n      swap4\n        /* \"#utility.yul\":1063:1385   */\n      swap3\n      pop\n      pop\n      pop\n      jump\t// out\n        /* \"#utility.yul\":1390:1517   */\n    tag_85:\n        /* \"#utility.yul\":1451:1461   */\n      0x4e487b71\n        /* \"#utility.yul\":1446:1449   */\n      0xe0\n        /* \"#utility.yul\":1442:1462   */\n      shl\n        /* \"#utility.yul\":1439:1440   */\n      0x00\n        /* \"#utility.yul\":1432:1463   */\n      mstore\n        /* \"#utility.yul\":1482:1486   */\n      0x41\n        /* \"#utility.yul\":1479:1480   */\n      0x04\n        /* \"#utility.yul\":1472:1487   */\n      mstore\n        /* \"#utility.yul\":1506:1510   */\n      0x24\n        /* \"#utility.yul\":1503:1504   */\n      0x00\n        /* \"#utility.yul\":1496:1511   */\n      revert\n        /* \"#utility.yul\":1522:1797   */\n    tag_272:\n        /* \"#utility.yul\":1593:1595   */\n      0x40\n        /* \"#utility.yul\":1587:1596   */\n      mload\n        /* \"#utility.yul\":1658:1660   */\n      0x1f\n        /* \"#utility.yul\":1639:1652   */\n      dup3\n      add\n      not(0x1f)\n        /* \"#utility.yul\":1635:1662   */\n      and\n        /* \"#utility.yul\":1623:1663   */\n      dup2\n      add\n        /* \"#utility.yul\":1693:1711   */\n      0xffffffffffffffff\n        /* \"#utility.yul\":1678:1712   */\n      dup2\n      gt\n        /* \"#utility.yul\":1714:1736   */\n      dup3\n      dup3\n      lt\n        /* \"#utility.yul\":1675:1737   */\n      or\n        /* \"#utility.yul\":1672:1760   */\n      iszero\n      tag_297\n      jumpi\n        /* \"#utility.yul\":1740:1758   */\n      tag_297\n      tag_85\n      jump\t// in\n    tag_297:\n        /* \"#utility.yul\":1776:1778   */\n      0x40\n        /* \"#utility.yul\":1769:1791   */\n      mstore\n        /* \"#utility.yul\":1522:1797   */\n      swap2\n      swap1\n      pop\n      jump\t// out\n        /* \"#utility.yul\":1802:1985   */\n    tag_273:\n        /* \"#utility.yul\":1862:1866   */\n      0x00\n        /* \"#utility.yul\":1895:1913   */\n      0xffffffffffffffff\n        /* \"#utility.yul\":1887:1893   */\n      dup3\n        /* \"#utility.yul\":1884:1914   */\n      gt\n        /* \"#utility.yul\":1881:1937   */\n      iszero\n      tag_300\n      jumpi\n        /* \"#utility.yul\":1917:1935   */\n      tag_300\n      tag_85\n      jump\t// in\n    tag_300:\n      pop\n        /* \"#utility.yul\":1962:1963   */\n      0x05\n        /* \"#utility.yul\":1958:1972   */\n      shl\n        /* \"#utility.yul\":1974:1978   */\n      0x20\n        /* \"#utility.yul\":1954:1979   */\n      add\n      swap1\n        /* \"#utility.yul\":1802:1985   */\n      jump\t// out\n        /* \"#utility.yul\":1990:2658   */\n    tag_274:\n        /* \"#utility.yul\":2044:2049   */\n      0x00\n        /* \"#utility.yul\":2097:2100   */\n      dup3\n        /* \"#utility.yul\":2090:2094   */\n      0x1f\n        /* \"#utility.yul\":2082:2088   */\n      dup4\n        /* \"#utility.yul\":2078:2095   */\n      add\n        /* \"#utility.yul\":2074:2101   */\n      slt\n        /* \"#utility.yul\":2064:2119   */\n      tag_302\n      jumpi\n        /* \"#utility.yul\":2115:2116   */\n      0x00\n        /* \"#utility.yul\":2112:2113   */\n      dup1\n        /* \"#utility.yul\":2105:2117   */\n      revert\n        /* \"#utility.yul\":2064:2119   */\n    tag_302:\n        /* \"#utility.yul\":2151:2157   */\n      dup2\n        /* \"#utility.yul\":2138:2158   */\n      calldataload\n        /* \"#utility.yul\":2177:2181   */\n      0x20\n        /* \"#utility.yul\":2201:2261   */\n      tag_303\n        /* \"#utility.yul\":2217:2260   */\n      tag_304\n        /* \"#utility.yul\":2257:2259   */\n      dup4\n        /* \"#utility.yul\":2217:2260   */\n      tag_273\n      jump\t// in\n    tag_304:\n        /* \"#utility.yul\":2201:2261   */\n      tag_272\n      jump\t// in\n    tag_303:\n        /* \"#utility.yul\":2295:2310   */\n      dup3\n      dup2\n      mstore\n        /* \"#utility.yul\":2381:2382   */\n      0x05\n        /* \"#utility.yul\":2377:2387   */\n      swap3\n      swap1\n      swap3\n      shl\n        /* \"#utility.yul\":2365:2388   */\n      dup5\n      add\n        /* \"#utility.yul\":2361:2393   */\n      dup2\n      add\n      swap2\n        /* \"#utility.yul\":2326:2338   */\n      dup2\n      dup2\n      add\n      swap1\n        /* \"#utility.yul\":2405:2420   */\n      dup7\n      dup5\n      gt\n        /* \"#utility.yul\":2402:2437   */\n      iszero\n      tag_305\n      jumpi\n        /* \"#utility.yul\":2433:2434   */\n      0x00\n        /* \"#utility.yul\":2430:2431   */\n      dup1\n        /* \"#utility.yul\":2423:2435   */\n      revert\n        /* \"#utility.yul\":2402:2437   */\n    tag_305:\n        /* \"#utility.yul\":2469:2471   */\n      dup3\n        /* \"#utility.yul\":2461:2467   */\n      dup7\n        /* \"#utility.yul\":2457:2472   */\n      add\n        /* \"#utility.yul\":2481:2629   */\n    tag_306:\n        /* \"#utility.yul\":2497:2503   */\n      dup5\n        /* \"#utility.yul\":2492:2495   */\n      dup2\n        /* \"#utility.yul\":2489:2504   */\n      lt\n        /* \"#utility.yul\":2481:2629   */\n      iszero\n      tag_308\n      jumpi\n        /* \"#utility.yul\":2563:2586   */\n      tag_309\n        /* \"#utility.yul\":2582:2585   */\n      dup2\n        /* \"#utility.yul\":2563:2586   */\n      tag_271\n      jump\t// in\n    tag_309:\n        /* \"#utility.yul\":2551:2587   */\n      dup4\n      mstore\n        /* \"#utility.yul\":2607:2619   */\n      swap2\n      dup4\n      add\n      swap2\n        /* \"#utility.yul\":2514:2526   */\n      dup4\n      add\n        /* \"#utility.yul\":2481:2629   */\n      jump(tag_306)\n    tag_308:\n      pop\n        /* \"#utility.yul\":2647:2652   */\n      swap7\n        /* \"#utility.yul\":1990:2658   */\n      swap6\n      pop\n      pop\n      pop\n      pop\n      pop\n      pop\n      jump\t// out\n        /* \"#utility.yul\":2663:2826   */\n    tag_275:\n        /* \"#utility.yul\":2730:2750   */\n      dup1\n      calldataload\n        /* \"#utility.yul\":2790:2800   */\n      0xffffffff\n        /* \"#utility.yul\":2779:2801   */\n      dup2\n      and\n        /* \"#utility.yul\":2769:2802   */\n      dup2\n      eq\n        /* \"#utility.yul\":2759:2820   */\n      tag_286\n      jumpi\n        /* \"#utility.yul\":2816:2817   */\n      0x00\n        /* \"#utility.yul\":2813:2814   */\n      dup1\n        /* \"#utility.yul\":2806:2818   */\n      revert\n        /* \"#utility.yul\":2831:3973   */\n    tag_45:\n        /* \"#utility.yul\":2948:2954   */\n      0x00\n        /* \"#utility.yul\":2956:2962   */\n      dup1\n        /* \"#utility.yul\":3009:3011   */\n      0x40\n        /* \"#utility.yul\":2997:3006   */\n      dup4\n        /* \"#utility.yul\":2988:2995   */\n      dup6\n        /* \"#utility.yul\":2984:3007   */\n      sub\n        /* \"#utility.yul\":2980:3012   */\n      slt\n        /* \"#utility.yul\":2977:3029   */\n      iszero\n      tag_313\n      jumpi\n        /* \"#utility.yul\":3025:3026   */\n      0x00\n        /* \"#utility.yul\":3022:3023   */\n      dup1\n        /* \"#utility.yul\":3015:3027   */\n      revert\n        /* \"#utility.yul\":2977:3029   */\n    tag_313:\n        /* \"#utility.yul\":3065:3074   */\n      dup3\n        /* \"#utility.yul\":3052:3075   */\n      calldataload\n        /* \"#utility.yul\":3094:3112   */\n      0xffffffffffffffff\n        /* \"#utility.yul\":3135:3137   */\n      dup1\n        /* \"#utility.yul\":3127:3133   */\n      dup3\n        /* \"#utility.yul\":3124:3138   */\n      gt\n        /* \"#utility.yul\":3121:3155   */\n      iszero\n      tag_314\n      jumpi\n        /* \"#utility.yul\":3151:3152   */\n      0x00\n        /* \"#utility.yul\":3148:3149   */\n      dup1\n        /* \"#utility.yul\":3141:3153   */\n      revert\n        /* \"#utility.yul\":3121:3155   */\n    tag_314:\n        /* \"#utility.yul\":3174:3235   */\n      tag_315\n        /* \"#utility.yul\":3227:3234   */\n      dup7\n        /* \"#utility.yul\":3218:3224   */\n      dup4\n        /* \"#utility.yul\":3207:3216   */\n      dup8\n        /* \"#utility.yul\":3203:3225   */\n      add\n        /* \"#utility.yul\":3174:3235   */\n      tag_274\n      jump\t// in\n    tag_315:\n        /* \"#utility.yul\":3164:3235   */\n      swap4\n      pop\n        /* \"#utility.yul\":3254:3256   */\n      0x20\n        /* \"#utility.yul\":3244:3256   */\n      swap2\n      pop\n        /* \"#utility.yul\":3309:3311   */\n      dup2\n        /* \"#utility.yul\":3298:3307   */\n      dup6\n        /* \"#utility.yul\":3294:3312   */\n      add\n        /* \"#utility.yul\":3281:3313   */\n      calldataload\n        /* \"#utility.yul\":3338:3340   */\n      dup2\n        /* \"#utility.yul\":3328:3336   */\n      dup2\n        /* \"#utility.yul\":3325:3341   */\n      gt\n        /* \"#utility.yul\":3322:3358   */\n      iszero\n      tag_316\n      jumpi\n        /* \"#utility.yul\":3354:3355   */\n      0x00\n        /* \"#utility.yul\":3351:3352   */\n      dup1\n        /* \"#utility.yul\":3344:3356   */\n      revert\n        /* \"#utility.yul\":3322:3358   */\n    tag_316:\n        /* \"#utility.yul\":3377:3401   */\n      dup6\n      add\n      swap1\n      pop\n        /* \"#utility.yul\":3432:3436   */\n      0x1f\n        /* \"#utility.yul\":3424:3437   */\n      dup2\n      add\n        /* \"#utility.yul\":3420:3447   */\n      dup7\n      sgt\n        /* \"#utility.yul\":3410:3465   */\n      tag_317\n      jumpi\n        /* \"#utility.yul\":3461:3462   */\n      0x00\n        /* \"#utility.yul\":3458:3459   */\n      dup1\n        /* \"#utility.yul\":3451:3463   */\n      revert\n        /* \"#utility.yul\":3410:3465   */\n    tag_317:\n        /* \"#utility.yul\":3497:3499   */\n      dup1\n        /* \"#utility.yul\":3484:3500   */\n      calldataload\n        /* \"#utility.yul\":3520:3580   */\n      tag_318\n        /* \"#utility.yul\":3536:3579   */\n      tag_304\n        /* \"#utility.yul\":3576:3578   */\n      dup3\n        /* \"#utility.yul\":3536:3579   */\n      tag_273\n      jump\t// in\n        /* \"#utility.yul\":3520:3580   */\n    tag_318:\n        /* \"#utility.yul\":3614:3629   */\n      dup2\n      dup2\n      mstore\n        /* \"#utility.yul\":3696:3697   */\n      0x05\n        /* \"#utility.yul\":3692:3702   */\n      swap2\n      swap1\n      swap2\n      shl\n        /* \"#utility.yul\":3684:3703   */\n      dup3\n      add\n        /* \"#utility.yul\":3680:3708   */\n      dup4\n      add\n      swap1\n        /* \"#utility.yul\":3645:3657   */\n      dup4\n      dup2\n      add\n      swap1\n        /* \"#utility.yul\":3720:3739   */\n      dup9\n      dup4\n      gt\n        /* \"#utility.yul\":3717:3756   */\n      iszero\n      tag_320\n      jumpi\n        /* \"#utility.yul\":3752:3753   */\n      0x00\n        /* \"#utility.yul\":3749:3750   */\n      dup1\n        /* \"#utility.yul\":3742:3754   */\n      revert\n        /* \"#utility.yul\":3717:3756   */\n    tag_320:\n        /* \"#utility.yul\":3776:3787   */\n      swap3\n      dup5\n      add\n      swap3\n        /* \"#utility.yul\":3796:3943   */\n    tag_321:\n        /* \"#utility.yul\":3812:3818   */\n      dup3\n        /* \"#utility.yul\":3807:3810   */\n      dup5\n        /* \"#utility.yul\":3804:3819   */\n      lt\n        /* \"#utility.yul\":3796:3943   */\n      iszero\n      tag_323\n      jumpi\n        /* \"#utility.yul\":3878:3900   */\n      tag_324\n        /* \"#utility.yul\":3896:3899   */\n      dup5\n        /* \"#utility.yul\":3878:3900   */\n      tag_275\n      jump\t// in\n    tag_324:\n        /* \"#utility.yul\":3866:3901   */\n      dup3\n      mstore\n        /* \"#utility.yul\":3829:3841   */\n      swap3\n      dup5\n      add\n      swap3\n        /* \"#utility.yul\":3921:3933   */\n      swap1\n      dup5\n      add\n      swap1\n        /* \"#utility.yul\":3796:3943   */\n      jump(tag_321)\n    tag_323:\n        /* \"#utility.yul\":3962:3967   */\n      dup1\n        /* \"#utility.yul\":3952:3967   */\n      swap6\n      pop\n      pop\n      pop\n      pop\n      pop\n      pop\n        /* \"#utility.yul\":2831:3973   */\n      swap3\n      pop\n      swap3\n      swap1\n      pop\n      jump\t// out\n        /* \"#utility.yul\":3978:4640   */\n    tag_276:\n        /* \"#utility.yul\":4032:4037   */\n      0x00\n        /* \"#utility.yul\":4085:4088   */\n      dup3\n        /* \"#utility.yul\":4078:4082   */\n      0x1f\n        /* \"#utility.yul\":4070:4076   */\n      dup4\n        /* \"#utility.yul\":4066:4083   */\n      add\n        /* \"#utility.yul\":4062:4089   */\n      slt\n        /* \"#utility.yul\":4052:4107   */\n      tag_326\n      jumpi\n        /* \"#utility.yul\":4103:4104   */\n      0x00\n        /* \"#utility.yul\":4100:4101   */\n      dup1\n        /* \"#utility.yul\":4093:4105   */\n      revert\n        /* \"#utility.yul\":4052:4107   */\n    tag_326:\n        /* \"#utility.yul\":4139:4145   */\n      dup2\n        /* \"#utility.yul\":4126:4146   */\n      calldataload\n        /* \"#utility.yul\":4165:4169   */\n      0x20\n        /* \"#utility.yul\":4189:4249   */\n      tag_327\n        /* \"#utility.yul\":4205:4248   */\n      tag_304\n        /* \"#utility.yul\":4245:4247   */\n      dup4\n        /* \"#utility.yul\":4205:4248   */\n      tag_273\n      jump\t// in\n        /* \"#utility.yul\":4189:4249   */\n    tag_327:\n        /* \"#utility.yul\":4283:4298   */\n      dup3\n      dup2\n      mstore\n        /* \"#utility.yul\":4369:4370   */\n      0x05\n        /* \"#utility.yul\":4365:4375   */\n      swap3\n      swap1\n      swap3\n      shl\n        /* \"#utility.yul\":4353:4376   */\n      dup5\n      add\n        /* \"#utility.yul\":4349:4381   */\n      dup2\n      add\n      swap2\n        /* \"#utility.yul\":4314:4326   */\n      dup2\n      dup2\n      add\n      swap1\n        /* \"#utility.yul\":4393:4408   */\n      dup7\n      dup5\n      gt\n        /* \"#utility.yul\":4390:4425   */\n      iszero\n      tag_329\n      jumpi\n        /* \"#utility.yul\":4421:4422   */\n      0x00\n        /* \"#utility.yul\":4418:4419   */\n      dup1\n        /* \"#utility.yul\":4411:4423   */\n      revert\n        /* \"#utility.yul\":4390:4425   */\n    tag_329:\n        /* \"#utility.yul\":4457:4459   */\n      dup3\n        /* \"#utility.yul\":4449:4455   */\n      dup7\n        /* \"#utility.yul\":4445:4460   */\n      add\n        /* \"#utility.yul\":4469:4611   */\n    tag_330:\n        /* \"#utility.yul\":4485:4491   */\n      dup5\n        /* \"#utility.yul\":4480:4483   */\n      dup2\n        /* \"#utility.yul\":4477:4492   */\n      lt\n        /* \"#utility.yul\":4469:4611   */\n      iszero\n      tag_308\n      jumpi\n        /* \"#utility.yul\":4551:4568   */\n      dup1\n      calldataload\n        /* \"#utility.yul\":4539:4569   */\n      dup4\n      mstore\n        /* \"#utility.yul\":4589:4601   */\n      swap2\n      dup4\n      add\n      swap2\n        /* \"#utility.yul\":4502:4514   */\n      dup4\n      add\n        /* \"#utility.yul\":4469:4611   */\n      jump(tag_330)\n        /* \"#utility.yul\":4645:5314   */\n    tag_49:\n        /* \"#utility.yul\":4772:4778   */\n      0x00\n        /* \"#utility.yul\":4780:4786   */\n      dup1\n        /* \"#utility.yul\":4788:4794   */\n      0x00\n        /* \"#utility.yul\":4841:4843   */\n      0x60\n        /* \"#utility.yul\":4829:4838   */\n      dup5\n        /* \"#utility.yul\":4820:4827   */\n      dup7\n        /* \"#utility.yul\":4816:4839   */\n      sub\n        /* \"#utility.yul\":4812:4844   */\n      slt\n        /* \"#utility.yul\":4809:4861   */\n      iszero\n      tag_334\n      jumpi\n        /* \"#utility.yul\":4857:4858   */\n      0x00\n        /* \"#utility.yul\":4854:4855   */\n      dup1\n        /* \"#utility.yul\":4847:4859   */\n      revert\n        /* \"#utility.yul\":4809:4861   */\n    tag_334:\n        /* \"#utility.yul\":4880:4909   */\n      tag_335\n        /* \"#utility.yul\":4899:4908   */\n      dup5\n        /* \"#utility.yul\":4880:4909   */\n      tag_271\n      jump\t// in\n    tag_335:\n        /* \"#utility.yul\":4870:4909   */\n      swap3\n      pop\n        /* \"#utility.yul\":4960:4962   */\n      0x20\n        /* \"#utility.yul\":4949:4958   */\n      dup5\n        /* \"#utility.yul\":4945:4963   */\n      add\n        /* \"#utility.yul\":4932:4964   */\n      calldataload\n        /* \"#utility.yul\":4983:5001   */\n      0xffffffffffffffff\n        /* \"#utility.yul\":5024:5026   */\n      dup1\n        /* \"#utility.yul\":5016:5022   */\n      dup3\n        /* \"#utility.yul\":5013:5027   */\n      gt\n        /* \"#utility.yul\":5010:5044   */\n      iszero\n      tag_336\n      jumpi\n        /* \"#utility.yul\":5040:5041   */\n      0x00\n        /* \"#utility.yul\":5037:5038   */\n      dup1\n        /* \"#utility.yul\":5030:5042   */\n      revert\n        /* \"#utility.yul\":5010:5044   */\n    tag_336:\n        /* \"#utility.yul\":5063:5124   */\n      tag_337\n        /* \"#utility.yul\":5116:5123   */\n      dup8\n        /* \"#utility.yul\":5107:5113   */\n      dup4\n        /* \"#utility.yul\":5096:5105   */\n      dup9\n        /* \"#utility.yul\":5092:5114   */\n      add\n        /* \"#utility.yul\":5063:5124   */\n      tag_276\n      jump\t// in\n    tag_337:\n        /* \"#utility.yul\":5053:5124   */\n      swap4\n      pop\n        /* \"#utility.yul\":5177:5179   */\n      0x40\n        /* \"#utility.yul\":5166:5175   */\n      dup7\n        /* \"#utility.yul\":5162:5180   */\n      add\n        /* \"#utility.yul\":5149:5181   */\n      calldataload\n        /* \"#utility.yul\":5133:5181   */\n      swap2\n      pop\n        /* \"#utility.yul\":5206:5208   */\n      dup1\n        /* \"#utility.yul\":5196:5204   */\n      dup3\n        /* \"#utility.yul\":5193:5209   */\n      gt\n        /* \"#utility.yul\":5190:5226   */\n      iszero\n      tag_338\n      jumpi\n        /* \"#utility.yul\":5222:5223   */\n      0x00\n        /* \"#utility.yul\":5219:5220   */\n      dup1\n        /* \"#utility.yul\":5212:5224   */\n      revert\n        /* \"#utility.yul\":5190:5226   */\n    tag_338:\n      pop\n        /* \"#utility.yul\":5245:5308   */\n      tag_339\n        /* \"#utility.yul\":5300:5307   */\n      dup7\n        /* \"#utility.yul\":5289:5297   */\n      dup3\n        /* \"#utility.yul\":5278:5287   */\n      dup8\n        /* \"#utility.yul\":5274:5298   */\n      add\n        /* \"#utility.yul\":5245:5308   */\n      tag_276\n      jump\t// in\n    tag_339:\n        /* \"#utility.yul\":5235:5308   */\n      swap2\n      pop\n      pop\n        /* \"#utility.yul\":4645:5314   */\n      swap3\n      pop\n      swap3\n      pop\n      swap3\n      jump\t// out\n        /* \"#utility.yul\":5527:6057   */\n    tag_277:\n        /* \"#utility.yul\":5569:5574   */\n      0x00\n        /* \"#utility.yul\":5622:5625   */\n      dup3\n        /* \"#utility.yul\":5615:5619   */\n      0x1f\n        /* \"#utility.yul\":5607:5613   */\n      dup4\n        /* \"#utility.yul\":5603:5620   */\n      add\n        /* \"#utility.yul\":5599:5626   */\n      slt\n        /* \"#utility.yul\":5589:5644   */\n      tag_342\n      jumpi\n        /* \"#utility.yul\":5640:5641   */\n      0x00\n        /* \"#utility.yul\":5637:5638   */\n      dup1\n        /* \"#utility.yul\":5630:5642   */\n      revert\n        /* \"#utility.yul\":5589:5644   */\n    tag_342:\n        /* \"#utility.yul\":5676:5682   */\n      dup2\n        /* \"#utility.yul\":5663:5683   */\n      calldataload\n        /* \"#utility.yul\":5702:5720   */\n      0xffffffffffffffff\n        /* \"#utility.yul\":5698:5700   */\n      dup2\n        /* \"#utility.yul\":5695:5721   */\n      gt\n        /* \"#utility.yul\":5692:5744   */\n      iszero\n      tag_344\n      jumpi\n        /* \"#utility.yul\":5724:5742   */\n      tag_344\n      tag_85\n      jump\t// in\n    tag_344:\n        /* \"#utility.yul\":5768:5823   */\n      tag_345\n        /* \"#utility.yul\":5811:5813   */\n      0x1f\n        /* \"#utility.yul\":5792:5805   */\n      dup3\n      add\n      not(0x1f)\n        /* \"#utility.yul\":5788:5815   */\n      and\n        /* \"#utility.yul\":5817:5821   */\n      0x20\n        /* \"#utility.yul\":5784:5822   */\n      add\n        /* \"#utility.yul\":5768:5823   */\n      tag_272\n      jump\t// in\n    tag_345:\n        /* \"#utility.yul\":5848:5850   */\n      dup2\n        /* \"#utility.yul\":5839:5846   */\n      dup2\n        /* \"#utility.yul\":5832:5851   */\n      mstore\n        /* \"#utility.yul\":5894:5897   */\n      dup5\n        /* \"#utility.yul\":5887:5891   */\n      0x20\n        /* \"#utility.yul\":5882:5884   */\n      dup4\n        /* \"#utility.yul\":5874:5880   */\n      dup7\n        /* \"#utility.yul\":5870:5885   */\n      add\n        /* \"#utility.yul\":5866:5892   */\n      add\n        /* \"#utility.yul\":5863:5898   */\n      gt\n        /* \"#utility.yul\":5860:5915   */\n      iszero\n      tag_346\n      jumpi\n        /* \"#utility.yul\":5911:5912   */\n      0x00\n        /* \"#utility.yul\":5908:5909   */\n      dup1\n        /* \"#utility.yul\":5901:5913   */\n      revert\n        /* \"#utility.yul\":5860:5915   */\n    tag_346:\n        /* \"#utility.yul\":5976:5978   */\n      dup2\n        /* \"#utility.yul\":5969:5973   */\n      0x20\n        /* \"#utility.yul\":5961:5967   */\n      dup6\n        /* \"#utility.yul\":5957:5974   */\n      add\n        /* \"#utility.yul\":5950:5954   */\n      0x20\n        /* \"#utility.yul\":5941:5948   */\n      dup4\n        /* \"#utility.yul\":5937:5955   */\n      add\n        /* \"#utility.yul\":5924:5979   */\n      calldatacopy\n        /* \"#utility.yul\":6024:6025   */\n      0x00\n        /* \"#utility.yul\":5999:6015   */\n      swap2\n      dup2\n      add\n        /* \"#utility.yul\":6017:6021   */\n      0x20\n        /* \"#utility.yul\":5995:6022   */\n      add\n        /* \"#utility.yul\":5988:6026   */\n      swap2\n      swap1\n      swap2\n      mstore\n        /* \"#utility.yul\":6003:6010   */\n      swap4\n        /* \"#utility.yul\":5527:6057   */\n      swap3\n      pop\n      pop\n      pop\n      jump\t// out\n        /* \"#utility.yul\":6062:7005   */\n    tag_59:\n        /* \"#utility.yul\":6216:6222   */\n      0x00\n        /* \"#utility.yul\":6224:6230   */\n      dup1\n        /* \"#utility.yul\":6232:6238   */\n      0x00\n        /* \"#utility.yul\":6240:6246   */\n      dup1\n        /* \"#utility.yul\":6248:6254   */\n      0x00\n        /* \"#utility.yul\":6301:6304   */\n      0xa0\n        /* \"#utility.yul\":6289:6298   */\n      dup7\n        /* \"#utility.yul\":6280:6287   */\n      dup9\n        /* \"#utility.yul\":6276:6299   */\n      sub\n        /* \"#utility.yul\":6272:6305   */\n      slt\n        /* \"#utility.yul\":6269:6322   */\n      iszero\n      tag_348\n      jumpi\n        /* \"#utility.yul\":6318:6319   */\n      0x00\n        /* \"#utility.yul\":6315:6316   */\n      dup1\n        /* \"#utility.yul\":6308:6320   */\n      revert\n        /* \"#utility.yul\":6269:6322   */\n    tag_348:\n        /* \"#utility.yul\":6341:6370   */\n      tag_349\n        /* \"#utility.yul\":6360:6369   */\n      dup7\n        /* \"#utility.yul\":6341:6370   */\n      tag_271\n      jump\t// in\n    tag_349:\n        /* \"#utility.yul\":6331:6370   */\n      swap5\n      pop\n        /* \"#utility.yul\":6389:6427   */\n      tag_350\n        /* \"#utility.yul\":6423:6425   */\n      0x20\n        /* \"#utility.yul\":6412:6421   */\n      dup8\n        /* \"#utility.yul\":6408:6426   */\n      add\n        /* \"#utility.yul\":6389:6427   */\n      tag_271\n      jump\t// in\n    tag_350:\n        /* \"#utility.yul\":6379:6427   */\n      swap4\n      pop\n        /* \"#utility.yul\":6478:6480   */\n      0x40\n        /* \"#utility.yul\":6467:6476   */\n      dup7\n        /* \"#utility.yul\":6463:6481   */\n      add\n        /* \"#utility.yul\":6450:6482   */\n      calldataload\n        /* \"#utility.yul\":6501:6519   */\n      0xffffffffffffffff\n        /* \"#utility.yul\":6542:6544   */\n      dup1\n        /* \"#utility.yul\":6534:6540   */\n      dup3\n        /* \"#utility.yul\":6531:6545   */\n      gt\n        /* \"#utility.yul\":6528:6562   */\n      iszero\n      tag_351\n      jumpi\n        /* \"#utility.yul\":6558:6559   */\n      0x00\n        /* \"#utility.yul\":6555:6556   */\n      dup1\n        /* \"#utility.yul\":6548:6560   */\n      revert\n        /* \"#utility.yul\":6528:6562   */\n    tag_351:\n        /* \"#utility.yul\":6581:6642   */\n      tag_352\n        /* \"#utility.yul\":6634:6641   */\n      dup10\n        /* \"#utility.yul\":6625:6631   */\n      dup4\n        /* \"#utility.yul\":6614:6623   */\n      dup11\n        /* \"#utility.yul\":6610:6632   */\n      add\n        /* \"#utility.yul\":6581:6642   */\n      tag_276\n      jump\t// in\n    tag_352:\n        /* \"#utility.yul\":6571:6642   */\n      swap5\n      pop\n        /* \"#utility.yul\":6695:6697   */\n      0x60\n        /* \"#utility.yul\":6684:6693   */\n      dup9\n        /* \"#utility.yul\":6680:6698   */\n      add\n        /* \"#utility.yul\":6667:6699   */\n      calldataload\n        /* \"#utility.yul\":6651:6699   */\n      swap2\n      pop\n        /* \"#utility.yul\":6724:6726   */\n      dup1\n        /* \"#utility.yul\":6714:6722   */\n      dup3\n        /* \"#utility.yul\":6711:6727   */\n      gt\n        /* \"#utility.yul\":6708:6744   */\n      iszero\n      tag_353\n      jumpi\n        /* \"#utility.yul\":6740:6741   */\n      0x00\n        /* \"#utility.yul\":6737:6738   */\n      dup1\n        /* \"#utility.yul\":6730:6742   */\n      revert\n        /* \"#utility.yul\":6708:6744   */\n    tag_353:\n        /* \"#utility.yul\":6763:6826   */\n      tag_354\n        /* \"#utility.yul\":6818:6825   */\n      dup10\n        /* \"#utility.yul\":6807:6815   */\n      dup4\n        /* \"#utility.yul\":6796:6805   */\n      dup11\n        /* \"#utility.yul\":6792:6816   */\n      add\n        /* \"#utility.yul\":6763:6826   */\n      tag_276\n      jump\t// in\n    tag_354:\n        /* \"#utility.yul\":6753:6826   */\n      swap4\n      pop\n        /* \"#utility.yul\":6879:6882   */\n      0x80\n        /* \"#utility.yul\":6868:6877   */\n      dup9\n        /* \"#utility.yul\":6864:6883   */\n      add\n        /* \"#utility.yul\":6851:6884   */\n      calldataload\n        /* \"#utility.yul\":6835:6884   */\n      swap2\n      pop\n        /* \"#utility.yul\":6909:6911   */\n      dup1\n        /* \"#utility.yul\":6899:6907   */\n      dup3\n        /* \"#utility.yul\":6896:6912   */\n      gt\n        /* \"#utility.yul\":6893:6929   */\n      iszero\n      tag_355\n      jumpi\n        /* \"#utility.yul\":6925:6926   */\n      0x00\n        /* \"#utility.yul\":6922:6923   */\n      dup1\n        /* \"#utility.yul\":6915:6927   */\n      revert\n        /* \"#utility.yul\":6893:6929   */\n    tag_355:\n      pop\n        /* \"#utility.yul\":6948:6999   */\n      tag_356\n        /* \"#utility.yul\":6991:6998   */\n      dup9\n        /* \"#utility.yul\":6980:6988   */\n      dup3\n        /* \"#utility.yul\":6969:6978   */\n      dup10\n        /* \"#utility.yul\":6965:6989   */\n      add\n        /* \"#utility.yul\":6948:6999   */\n      tag_277\n      jump\t// in\n    tag_356:\n        /* \"#utility.yul\":6938:6999   */\n      swap2\n      pop\n      pop\n        /* \"#utility.yul\":6062:7005   */\n      swap3\n      swap6\n      pop\n      swap3\n      swap6\n      swap1\n      swap4\n      pop\n      jump\t// out\n        /* \"#utility.yul\":7217:7637   */\n    tag_68:\n        /* \"#utility.yul\":7309:7315   */\n      0x00\n        /* \"#utility.yul\":7317:7323   */\n      dup1\n        /* \"#utility.yul\":7370:7372   */\n      0x40\n        /* \"#utility.yul\":7358:7367   */\n      dup4\n        /* \"#utility.yul\":7349:7356   */\n      dup6\n        /* \"#utility.yul\":7345:7368   */\n      sub\n        /* \"#utility.yul\":7341:7373   */\n      slt\n        /* \"#utility.yul\":7338:7390   */\n      iszero\n      tag_359\n      jumpi\n        /* \"#utility.yul\":7386:7387   */\n      0x00\n        /* \"#utility.yul\":7383:7384   */\n      dup1\n        /* \"#utility.yul\":7376:7388   */\n      revert\n        /* \"#utility.yul\":7338:7390   */\n    tag_359:\n        /* \"#utility.yul\":7426:7435   */\n      dup3\n        /* \"#utility.yul\":7413:7436   */\n      calldataload\n        /* \"#utility.yul\":7459:7477   */\n      0xffffffffffffffff\n        /* \"#utility.yul\":7451:7457   */\n      dup2\n        /* \"#utility.yul\":7448:7478   */\n      gt\n        /* \"#utility.yul\":7445:7495   */\n      iszero\n      tag_360\n      jumpi\n        /* \"#utility.yul\":7491:7492   */\n      0x00\n        /* \"#utility.yul\":7488:7489   */\n      dup1\n        /* \"#utility.yul\":7481:7493   */\n      revert\n        /* \"#utility.yul\":7445:7495   */\n    tag_360:\n        /* \"#utility.yul\":7514:7575   */\n      tag_361\n        /* \"#utility.yul\":7567:7574   */\n      dup6\n        /* \"#utility.yul\":7558:7564   */\n      dup3\n        /* \"#utility.yul\":7547:7556   */\n      dup7\n        /* \"#utility.yul\":7543:7565   */\n      add\n        /* \"#utility.yul\":7514:7575   */\n      tag_274\n      jump\t// in\n    tag_361:\n        /* \"#utility.yul\":7504:7575   */\n      swap3\n      pop\n      pop\n        /* \"#utility.yul\":7594:7631   */\n      tag_362\n        /* \"#utility.yul\":7627:7629   */\n      0x20\n        /* \"#utility.yul\":7616:7625   */\n      dup5\n        /* \"#utility.yul\":7612:7630   */\n      add\n        /* \"#utility.yul\":7594:7631   */\n      tag_275\n      jump\t// in\n    tag_362:\n        /* \"#utility.yul\":7584:7631   */\n      swap1\n      pop\n        /* \"#utility.yul\":7217:7637   */\n      swap3\n      pop\n      swap3\n      swap1\n      pop\n      jump\t// out\n        /* \"#utility.yul\":7642:8248   */\n    tag_72:\n        /* \"#utility.yul\":7746:7752   */\n      0x00\n        /* \"#utility.yul\":7754:7760   */\n      dup1\n        /* \"#utility.yul\":7762:7768   */\n      0x00\n        /* \"#utility.yul\":7770:7776   */\n      dup1\n        /* \"#utility.yul\":7778:7784   */\n      0x00\n        /* \"#utility.yul\":7831:7834   */\n      0xa0\n        /* \"#utility.yul\":7819:7828   */\n      dup7\n        /* \"#utility.yul\":7810:7817   */\n      dup9\n        /* \"#utility.yul\":7806:7829   */\n      sub\n        /* \"#utility.yul\":7802:7835   */\n      slt\n        /* \"#utility.yul\":7799:7852   */\n      iszero\n      tag_364\n      jumpi\n        /* \"#utility.yul\":7848:7849   */\n      0x00\n        /* \"#utility.yul\":7845:7846   */\n      dup1\n        /* \"#utility.yul\":7838:7850   */\n      revert\n        /* \"#utility.yul\":7799:7852   */\n    tag_364:\n        /* \"#utility.yul\":7871:7900   */\n      tag_365\n        /* \"#utility.yul\":7890:7899   */\n      dup7\n        /* \"#utility.yul\":7871:7900   */\n      tag_271\n      jump\t// in\n    tag_365:\n        /* \"#utility.yul\":7861:7900   */\n      swap5\n      pop\n        /* \"#utility.yul\":7919:7957   */\n      tag_366\n        /* \"#utility.yul\":7953:7955   */\n      0x20\n        /* \"#utility.yul\":7942:7951   */\n      dup8\n        /* \"#utility.yul\":7938:7956   */\n      add\n        /* \"#utility.yul\":7919:7957   */\n      tag_271\n      jump\t// in\n    tag_366:\n        /* \"#utility.yul\":7909:7957   */\n      swap4\n      pop\n        /* \"#utility.yul\":8004:8006   */\n      0x40\n        /* \"#utility.yul\":7993:8002   */\n      dup7\n        /* \"#utility.yul\":7989:8007   */\n      add\n        /* \"#utility.yul\":7976:8008   */\n      calldataload\n        /* \"#utility.yul\":7966:8008   */\n      swap3\n      pop\n        /* \"#utility.yul\":8055:8057   */\n      0x60\n        /* \"#utility.yul\":8044:8053   */\n      dup7\n        /* \"#utility.yul\":8040:8058   */\n      add\n        /* \"#utility.yul\":8027:8059   */\n      calldataload\n        /* \"#utility.yul\":8017:8059   */\n      swap2\n      pop\n        /* \"#utility.yul\":8110:8113   */\n      0x80\n        /* \"#utility.yul\":8099:8108   */\n      dup7\n        /* \"#utility.yul\":8095:8114   */\n      add\n        /* \"#utility.yul\":8082:8115   */\n      calldataload\n        /* \"#utility.yul\":8138:8156   */\n      0xffffffffffffffff\n        /* \"#utility.yul\":8130:8136   */\n      dup2\n        /* \"#utility.yul\":8127:8157   */\n      gt\n        /* \"#utility.yul\":8124:8174   */\n      iszero\n      tag_367\n      jumpi\n        /* \"#utility.yul\":8170:8171   */\n      0x00\n        /* \"#utility.yul\":8167:8168   */\n      dup1\n        /* \"#utility.yul\":8160:8172   */\n      revert\n        /* \"#utility.yul\":8124:8174   */\n    tag_367:\n        /* \"#utility.yul\":8193:8242   */\n      tag_356\n        /* \"#utility.yul\":8234:8241   */\n      dup9\n        /* \"#utility.yul\":8225:8231   */\n      dup3\n        /* \"#utility.yul\":8214:8223   */\n      dup10\n        /* \"#utility.yul\":8210:8232   */\n      add\n        /* \"#utility.yul\":8193:8242   */\n      tag_277\n      jump\t// in\n        /* \"#utility.yul\":8607:8734   */\n    tag_278:\n        /* \"#utility.yul\":8668:8678   */\n      0x4e487b71\n        /* \"#utility.yul\":8663:8666   */\n      0xe0\n        /* \"#utility.yul\":8659:8679   */\n      shl\n        /* \"#utility.yul\":8656:8657   */\n      0x00\n        /* \"#utility.yul\":8649:8680   */\n      mstore\n        /* \"#utility.yul\":8699:8703   */\n      0x11\n        /* \"#utility.yul\":8696:8697   */\n      0x04\n        /* \"#utility.yul\":8689:8704   */\n      mstore\n        /* \"#utility.yul\":8723:8727   */\n      0x24\n        /* \"#utility.yul\":8720:8721   */\n      0x00\n        /* \"#utility.yul\":8713:8728   */\n      revert\n        /* \"#utility.yul\":8739:8867   */\n    tag_97:\n        /* \"#utility.yul\":8779:8782   */\n      0x00\n        /* \"#utility.yul\":8810:8811   */\n      dup3\n        /* \"#utility.yul\":8806:8812   */\n      not\n        /* \"#utility.yul\":8803:8804   */\n      dup3\n        /* \"#utility.yul\":8800:8813   */\n      gt\n        /* \"#utility.yul\":8797:8836   */\n      iszero\n      tag_373\n      jumpi\n        /* \"#utility.yul\":8816:8834   */\n      tag_373\n      tag_278\n      jump\t// in\n    tag_373:\n      pop\n        /* \"#utility.yul\":8852:8861   */\n      add\n      swap1\n        /* \"#utility.yul\":8739:8867   */\n      jump\t// out\n        /* \"#utility.yul\":8872:8997   */\n    tag_99:\n        /* \"#utility.yul\":8912:8916   */\n      0x00\n        /* \"#utility.yul\":8940:8941   */\n      dup3\n        /* \"#utility.yul\":8937:8938   */\n      dup3\n        /* \"#utility.yul\":8934:8942   */\n      lt\n        /* \"#utility.yul\":8931:8965   */\n      iszero\n      tag_376\n      jumpi\n        /* \"#utility.yul\":8945:8963   */\n      tag_376\n      tag_278\n      jump\t// in\n    tag_376:\n      pop\n        /* \"#utility.yul\":8982:8991   */\n      sub\n      swap1\n        /* \"#utility.yul\":8872:8997   */\n      jump\t// out\n        /* \"#utility.yul\":9002:9129   */\n    tag_103:\n        /* \"#utility.yul\":9063:9073   */\n      0x4e487b71\n        /* \"#utility.yul\":9058:9061   */\n      0xe0\n        /* \"#utility.yul\":9054:9074   */\n      shl\n        /* \"#utility.yul\":9051:9052   */\n      0x00\n        /* \"#utility.yul\":9044:9075   */\n      mstore\n        /* \"#utility.yul\":9094:9098   */\n      0x32\n        /* \"#utility.yul\":9091:9092   */\n      0x04\n        /* \"#utility.yul\":9084:9099   */\n      mstore\n        /* \"#utility.yul\":9118:9122   */\n      0x24\n        /* \"#utility.yul\":9115:9116   */\n      0x00\n        /* \"#utility.yul\":9108:9123   */\n      revert\n        /* \"#utility.yul\":9134:9270   */\n    tag_109:\n        /* \"#utility.yul\":9173:9176   */\n      0x00\n        /* \"#utility.yul\":9201:9206   */\n      dup2\n        /* \"#utility.yul\":9191:9230   */\n      tag_380\n      jumpi\n        /* \"#utility.yul\":9210:9228   */\n      tag_380\n      tag_278\n      jump\t// in\n    tag_380:\n      pop\n      not(0x00)\n        /* \"#utility.yul\":9246:9264   */\n      add\n      swap1\n        /* \"#utility.yul\":9134:9270   */\n      jump\t// out\n        /* \"#utility.yul\":9275:9710   */\n    tag_279:\n        /* \"#utility.yul\":9328:9331   */\n      0x00\n        /* \"#utility.yul\":9366:9371   */\n      dup2\n        /* \"#utility.yul\":9360:9372   */\n      mload\n        /* \"#utility.yul\":9393:9399   */\n      dup1\n        /* \"#utility.yul\":9388:9391   */\n      dup5\n        /* \"#utility.yul\":9381:9400   */\n      mstore\n        /* \"#utility.yul\":9419:9423   */\n      0x20\n        /* \"#utility.yul\":9448:9450   */\n      dup1\n        /* \"#utility.yul\":9443:9446   */\n      dup6\n        /* \"#utility.yul\":9439:9451   */\n      add\n        /* \"#utility.yul\":9432:9451   */\n      swap5\n      pop\n        /* \"#utility.yul\":9485:9487   */\n      dup1\n        /* \"#utility.yul\":9478:9483   */\n      dup5\n        /* \"#utility.yul\":9474:9488   */\n      add\n        /* \"#utility.yul\":9506:9507   */\n      0x00\n        /* \"#utility.yul\":9516:9685   */\n    tag_382:\n        /* \"#utility.yul\":9530:9536   */\n      dup4\n        /* \"#utility.yul\":9527:9528   */\n      dup2\n        /* \"#utility.yul\":9524:9537   */\n      lt\n        /* \"#utility.yul\":9516:9685   */\n      iszero\n      tag_384\n      jumpi\n        /* \"#utility.yul\":9591:9604   */\n      dup2\n      mload\n        /* \"#utility.yul\":9579:9605   */\n      dup8\n      mstore\n        /* \"#utility.yul\":9625:9637   */\n      swap6\n      dup3\n      add\n      swap6\n        /* \"#utility.yul\":9660:9675   */\n      swap1\n      dup3\n      add\n      swap1\n        /* \"#utility.yul\":9552:9553   */\n      0x01\n        /* \"#utility.yul\":9545:9554   */\n      add\n        /* \"#utility.yul\":9516:9685   */\n      jump(tag_382)\n    tag_384:\n      pop\n        /* \"#utility.yul\":9701:9704   */\n      swap5\n      swap6\n        /* \"#utility.yul\":9275:9710   */\n      swap5\n      pop\n      pop\n      pop\n      pop\n      pop\n      jump\t// out\n        /* \"#utility.yul\":9715:10604   */\n    tag_111:\n      sub(shl(0xa0, 0x01), 0x01)\n        /* \"#utility.yul\":10166:10181   */\n      dup6\n      dup2\n      and\n        /* \"#utility.yul\":10148:10182   */\n      dup3\n      mstore\n        /* \"#utility.yul\":10218:10233   */\n      dup5\n      and\n        /* \"#utility.yul\":10213:10215   */\n      0x20\n        /* \"#utility.yul\":10198:10216   */\n      dup3\n      add\n        /* \"#utility.yul\":10191:10234   */\n      mstore\n        /* \"#utility.yul\":10128:10131   */\n      0xa0\n        /* \"#utility.yul\":10265:10267   */\n      0x40\n        /* \"#utility.yul\":10250:10268   */\n      dup3\n      add\n        /* \"#utility.yul\":10243:10274   */\n      dup2\n      swap1\n      mstore\n        /* \"#utility.yul\":10091:10095   */\n      0x00\n      swap1\n        /* \"#utility.yul\":10297:10354   */\n      tag_386\n      swap1\n        /* \"#utility.yul\":10334:10353   */\n      dup4\n      add\n        /* \"#utility.yul\":10326:10332   */\n      dup6\n        /* \"#utility.yul\":10297:10354   */\n      tag_279\n      jump\t// in\n    tag_386:\n        /* \"#utility.yul\":10402:10411   */\n      dup3\n        /* \"#utility.yul\":10394:10400   */\n      dup2\n        /* \"#utility.yul\":10390:10412   */\n      sub\n        /* \"#utility.yul\":10385:10387   */\n      0x60\n        /* \"#utility.yul\":10374:10383   */\n      dup5\n        /* \"#utility.yul\":10370:10388   */\n      add\n        /* \"#utility.yul\":10363:10413   */\n      mstore\n        /* \"#utility.yul\":10436:10480   */\n      tag_387\n        /* \"#utility.yul\":10473:10479   */\n      dup2\n        /* \"#utility.yul\":10465:10471   */\n      dup6\n        /* \"#utility.yul\":10436:10480   */\n      tag_279\n      jump\t// in\n    tag_387:\n        /* \"#utility.yul\":10517:10539   */\n      dup4\n      dup2\n      sub\n        /* \"#utility.yul\":10511:10514   */\n      0x80\n        /* \"#utility.yul\":10496:10515   */\n      swap1\n      swap5\n      add\n        /* \"#utility.yul\":10489:10540   */\n      swap4\n      swap1\n      swap4\n      mstore\n      pop\n      pop\n        /* \"#utility.yul\":10564:10565   */\n      0x00\n        /* \"#utility.yul\":10549:10566   */\n      dup2\n      mstore\n        /* \"#utility.yul\":10595:10597   */\n      0x20\n        /* \"#utility.yul\":10583:10598   */\n      add\n      swap5\n        /* \"#utility.yul\":9715:10604   */\n      swap4\n      pop\n      pop\n      pop\n      pop\n      jump\t// out\n        /* \"#utility.yul\":11776:11977   */\n    tag_134:\n        /* \"#utility.yul\":11814:11817   */\n      0x00\n        /* \"#utility.yul\":11842:11852   */\n      0xffffffff\n        /* \"#utility.yul\":11887:11889   */\n      dup1\n        /* \"#utility.yul\":11880:11885   */\n      dup4\n        /* \"#utility.yul\":11876:11890   */\n      and\n        /* \"#utility.yul\":11914:11916   */\n      dup2\n        /* \"#utility.yul\":11905:11912   */\n      dup2\n        /* \"#utility.yul\":11902:11917   */\n      sub\n        /* \"#utility.yul\":11899:11940   */\n      tag_393\n      jumpi\n        /* \"#utility.yul\":11920:11938   */\n      tag_393\n      tag_278\n      jump\t// in\n    tag_393:\n        /* \"#utility.yul\":11969:11970   */\n      0x01\n        /* \"#utility.yul\":11956:11971   */\n      add\n      swap4\n        /* \"#utility.yul\":11776:11977   */\n      swap3\n      pop\n      pop\n      pop\n      jump\t// out\n        /* \"#utility.yul\":11982:12338   */\n    tag_142:\n        /* \"#utility.yul\":12184:12186   */\n      0x20\n        /* \"#utility.yul\":12166:12187   */\n      dup1\n      dup3\n      mstore\n        /* \"#utility.yul\":12203:12221   */\n      dup2\n      dup2\n      add\n        /* \"#utility.yul\":12196:12226   */\n      mstore\n        /* \"#utility.yul\":12262:12296   */\n      0x4f776e61626c653a2063616c6c6572206973206e6f7420746865206f776e6572\n        /* \"#utility.yul\":12257:12259   */\n      0x40\n        /* \"#utility.yul\":12242:12260   */\n      dup3\n      add\n        /* \"#utility.yul\":12235:12297   */\n      mstore\n        /* \"#utility.yul\":12329:12331   */\n      0x60\n        /* \"#utility.yul\":12314:12332   */\n      add\n      swap1\n        /* \"#utility.yul\":11982:12338   */\n      jump\t// out\n        /* \"#utility.yul\":12343:12478   */\n    tag_152:\n        /* \"#utility.yul\":12382:12385   */\n      0x00\n        /* \"#utility.yul\":12403:12420   */\n      0x01\n      dup3\n      add\n        /* \"#utility.yul\":12400:12443   */\n      tag_397\n      jumpi\n        /* \"#utility.yul\":12423:12441   */\n      tag_397\n      tag_278\n      jump\t// in\n    tag_397:\n      pop\n        /* \"#utility.yul\":12470:12471   */\n      0x01\n        /* \"#utility.yul\":12459:12472   */\n      add\n      swap1\n        /* \"#utility.yul\":12343:12478   */\n      jump\t// out\n        /* \"#utility.yul\":12483:13735   */\n    tag_191:\n      sub(shl(0xa0, 0x01), 0x01)\n        /* \"#utility.yul\":12973:12988   */\n      dup6\n      dup2\n      and\n        /* \"#utility.yul\":12955:12989   */\n      dup3\n      mstore\n        /* \"#utility.yul\":13046:13061   */\n      dup5\n      and\n        /* \"#utility.yul\":13008:13010   */\n      0x20\n        /* \"#utility.yul\":13026:13044   */\n      dup1\n      dup4\n      add\n        /* \"#utility.yul\":13019:13062   */\n      swap2\n      swap1\n      swap2\n      mstore\n        /* \"#utility.yul\":12904:12907   */\n      0xa0\n        /* \"#utility.yul\":13093:13095   */\n      0x40\n        /* \"#utility.yul\":13078:13096   */\n      dup4\n      add\n        /* \"#utility.yul\":13071:13102   */\n      dup2\n      swap1\n      mstore\n        /* \"#utility.yul\":13151:13164   */\n      dup5\n      sload\n        /* \"#utility.yul\":12889:12908   */\n      swap1\n      dup4\n      add\n        /* \"#utility.yul\":13173:13195   */\n      dup2\n      swap1\n      mstore\n        /* \"#utility.yul\":12856:12860   */\n      0x00\n        /* \"#utility.yul\":13239:13256   */\n      dup6\n      dup2\n      mstore\n        /* \"#utility.yul\":13279:13295   */\n      dup3\n      dup2\n      keccak256\n        /* \"#utility.yul\":12856:12860   */\n      swap1\n      swap3\n        /* \"#utility.yul\":13279:13295   */\n      swap1\n      swap2\n        /* \"#utility.yul\":13226:13229   */\n      0xc0\n        /* \"#utility.yul\":13211:13230   */\n      dup6\n      add\n      swap2\n        /* \"#utility.yul\":13008:13010   */\n      swap1\n        /* \"#utility.yul\":12856:12860   */\n      dup5\n        /* \"#utility.yul\":13323:13491   */\n    tag_399:\n        /* \"#utility.yul\":13337:13343   */\n      dup2\n        /* \"#utility.yul\":13334:13335   */\n      dup2\n        /* \"#utility.yul\":13331:13344   */\n      lt\n        /* \"#utility.yul\":13323:13491   */\n      iszero\n      tag_401\n      jumpi\n        /* \"#utility.yul\":13398:13411   */\n      dup5\n      sload\n        /* \"#utility.yul\":13386:13412   */\n      dup5\n      mstore\n        /* \"#utility.yul\":13479:13480   */\n      0x01\n        /* \"#utility.yul\":13467:13481   */\n      swap5\n      dup6\n      add\n      swap5\n        /* \"#utility.yul\":13432:13444   */\n      swap4\n      dup4\n      add\n      swap4\n        /* \"#utility.yul\":13352:13361   */\n      add\n        /* \"#utility.yul\":13323:13491   */\n      jump(tag_399)\n    tag_401:\n        /* \"#utility.yul\":13327:13330   */\n      pop\n      pop\n        /* \"#utility.yul\":13536:13545   */\n      dup5\n        /* \"#utility.yul\":13531:13534   */\n      dup3\n        /* \"#utility.yul\":13527:13546   */\n      sub\n        /* \"#utility.yul\":13522:13524   */\n      0x60\n        /* \"#utility.yul\":13511:13520   */\n      dup7\n        /* \"#utility.yul\":13507:13525   */\n      add\n        /* \"#utility.yul\":13500:13547   */\n      mstore\n        /* \"#utility.yul\":13570:13611   */\n      tag_402\n        /* \"#utility.yul\":13607:13610   */\n      dup3\n        /* \"#utility.yul\":13599:13605   */\n      dup8\n        /* \"#utility.yul\":13570:13611   */\n      tag_279\n      jump\t// in\n    tag_402:\n        /* \"#utility.yul\":13648:13670   */\n      dup6\n      dup2\n      sub\n        /* \"#utility.yul\":13642:13645   */\n      0x80\n        /* \"#utility.yul\":13627:13646   */\n      swap1\n      swap7\n      add\n        /* \"#utility.yul\":13620:13671   */\n      swap6\n      swap1\n      swap6\n      mstore\n        /* \"#utility.yul\":13695:13696   */\n      0x00\n        /* \"#utility.yul\":13680:13697   */\n      dup6\n      mstore\n        /* \"#utility.yul\":13714:13729   */\n      swap1\n      swap4\n      add\n      swap8\n        /* \"#utility.yul\":12483:13735   */\n      swap7\n      pop\n      pop\n      pop\n      pop\n      pop\n      pop\n      pop\n      jump\t// out\n        /* \"#utility.yul\":14552:14679   */\n    tag_253:\n        /* \"#utility.yul\":14613:14623   */\n      0x4e487b71\n        /* \"#utility.yul\":14608:14611   */\n      0xe0\n        /* \"#utility.yul\":14604:14624   */\n      shl\n        /* \"#utility.yul\":14601:14602   */\n      0x00\n        /* \"#utility.yul\":14594:14625   */\n      mstore\n        /* \"#utility.yul\":14644:14648   */\n      0x31\n        /* \"#utility.yul\":14641:14642   */\n      0x04\n        /* \"#utility.yul\":14634:14649   */\n      mstore\n        /* \"#utility.yul\":14668:14672   */\n      0x24\n        /* \"#utility.yul\":14665:14666   */\n      0x00\n        /* \"#utility.yul\":14658:14673   */\n      revert\n\n    auxdata: 0xa2646970667358221220e73dc1b3fa3a628bc2d3dd3f819eebacf9dd295d779e623b98cb1b38a4a4c96e64736f6c634300080d0033\n}\n",
				"bytecode": {
					"linkReferences": {},
					"object": "608060405234801561001057600080fd5b5061001a3361001f565b61006f565b600080546001600160a01b038381166001600160a01b0319831681178455604051919092169283917f8be0079c531659141344cd1fd0a4f28419497f9722a3daafe3b4186f6b6457e09190a35050565b6114528061007e6000396000f3fe608060405234801561001057600080fd5b50600436106100ea5760003560e01c8063715018a61161008c578063c409144311610066578063c40914431461022a578063e2a798091461023d578063f23a6e6114610250578063f2fde38b1461026f57600080fd5b8063715018a6146101cf5780638da5cb5b146101d7578063bc197c81146101f257600080fd5b806351cff8d9116100c857806351cff8d91461016757806359441eae1461017a5780635b16e22d146101a957806363c66891146101bc57600080fd5b806301ffc9a7146100ef578063372c12b1146101175780634b02218f14610152575b600080fd5b6101026100fd366004610d18565b610282565b60405190151581526020015b60405180910390f35b61013d610125366004610d65565b60016020526000908152604090205463ffffffff1681565b60405163ffffffff909116815260200161010e565b610165610160366004610d80565b6102b9565b005b610165610175366004610d65565b6104b8565b61013d610188366004610d65565b6001600160a01b031660009081526001602052604090205463ffffffff1690565b6101656101b7366004610ea4565b610670565b6101656101ca366004610fc1565b610734565b6101656107e9565b6000546040516001600160a01b03909116815260200161010e565b6102116102003660046110a5565b63bc197c8160e01b95945050505050565b6040516001600160e01b0319909116815260200161010e565b610165610238366004610d65565b61081f565b61016561024b36600461114f565b610976565b61021161025e36600461119d565b63f23a6e6160e01b95945050505050565b61016561027d366004610d65565b610a1c565b60006001600160e01b03198216630271189760e51b14806102b357506301ffc9a760e01b6001600160e01b03198316145b92915050565b60008167ffffffffffffffff8111156102d4576102d4610db3565b6040519080825280602002602001820160405280156102fd578160200160208202803683370190505b50905060008267ffffffffffffffff81111561031b5761031b610db3565b604051908082528060200260200182016040528015610344578160200160208202803683370190505b5090506000841161039c5760405162461bcd60e51b815260206004820152601960248201527f7374617274206d757374206d6f7265207468616e207a65726f0000000000000060448201526064015b60405180910390fd5b600060016103aa8686611218565b6103b49190611230565b90505b84811061044c5780836103ca8783611230565b815181106103da576103da611247565b60209081029190910101526001826103f28784611230565b8151811061040257610402611247565b6020908102919091018101919091526001600160a01b03871660009081526002825260408120805460018101825590825291902001819055806104448161125d565b9150506103b7565b50604051631759616b60e11b81526001600160a01b03861690632eb2c2d69061047f9033903090879087906004016112af565b600060405180830381600087803b15801561049957600080fd5b505af11580156104ad573d6000803e3d6000fd5b505050505050505050565b3360009081526001602052604090205463ffffffff1661050d5760405162461bcd60e51b815260206004820152601060248201526f139bdd081a5b881dda1a5d195b1a5cdd60821b6044820152606401610393565b3360009081526001602052604081205463ffffffff16905b8163ffffffff168163ffffffff161015610651576001600160a01b0383166000908152600260205260408120819061055c90610ab7565b6001600160a01b038716600090815260026020526040902091935091506105839082610b49565b604051637921219560e11b8152306004820152336024820152604481018390526001606482015260a06084820152600060a48201526001600160a01b0386169063f242432a9060c401600060405180830381600087803b1580156105e657600080fd5b505af11580156105fa573d6000803e3d6000fd5b50506040518481523392506001600160a01b03881691507fd1c19fbcd4551a5edfb66d43d2e337c04837afda3482b42bdf569a8fccdae5fb9060200160405180910390a350508061064a9061130a565b9050610525565b5050336000908152600160205260409020805463ffffffff1916905550565b6000546001600160a01b0316331461069a5760405162461bcd60e51b81526004016103939061132d565b60005b825181101561072f578181815181106106b8576106b8611247565b6020026020010151600160008584815181106106d6576106d6611247565b60200260200101516001600160a01b03166001600160a01b0316815260200190815260200160002060006101000a81548163ffffffff021916908363ffffffff160217905550808061072790611362565b91505061069d565b505050565b6000546001600160a01b0316331461075e5760405162461bcd60e51b81526004016103939061132d565b6001600160a01b03831660009081526002602052604090206107809083610c3b565b604051631759616b60e11b81526001600160a01b03841690632eb2c2d6906107b29033903090879087906004016112af565b600060405180830381600087803b1580156107cc57600080fd5b505af11580156107e0573d6000803e3d6000fd5b50505050505050565b6000546001600160a01b031633146108135760405162461bcd60e51b81526004016103939061132d565b61081d6000610c96565b565b6000546001600160a01b031633146108495760405162461bcd60e51b81526004016103939061132d565b6001600160a01b038116600090815260026020526040812054908167ffffffffffffffff81111561087c5761087c610db3565b6040519080825280602002602001820160405280156108a5578160200160208202803683370190505b50905060005b828110156108e45760018282815181106108c7576108c7611247565b6020908102919091010152806108dc81611362565b9150506108ab565b506001600160a01b038316600081815260026020526040908190209051631759616b60e11b8152632eb2c2d6916109239130913391879060040161137b565b600060405180830381600087803b15801561093d57600080fd5b505af1158015610951573d6000803e3d6000fd5b505050506001600160a01b038316600090815260026020526040812061072f91610ce6565b6000546001600160a01b031633146109a05760405162461bcd60e51b81526004016103939061132d565b60005b825181101561072f5781600160008584815181106109c3576109c3611247565b60200260200101516001600160a01b03166001600160a01b0316815260200190815260200160002060006101000a81548163ffffffff021916908363ffffffff1602179055508080610a1490611362565b9150506109a3565b6000546001600160a01b03163314610a465760405162461bcd60e51b81526004016103939061132d565b6001600160a01b038116610aab5760405162461bcd60e51b815260206004820152602660248201527f4f776e61626c653a206e6577206f776e657220697320746865207a65726f206160448201526564647265737360d01b6064820152608401610393565b610ab481610c96565b50565b60008082600081548110610acd57610acd611247565b906000526020600020015491506000905060005b8354811015610b435782848281548110610afd57610afd611247565b90600052602060002001541015610b3157838181548110610b2057610b20611247565b906000526020600020015492508091505b80610b3b81611362565b915050610ae1565b50915091565b81548110610ba55760405162461bcd60e51b8152602060048201526024808201527f4172726179466f7255696e743235363a20696e646578206f7574206f6620626f604482015263756e647360e01b6064820152608401610393565b8154610bb390600190611230565b811015610c115781610bc6826001611218565b81548110610bd657610bd6611247565b9060005260206000200154828281548110610bf357610bf3611247565b60009182526020909120015580610c0981611362565b915050610ba5565b81805480610c2157610c21611406565b600190038181906000526020600020016000905590555050565b805115610c925760005b815181101561072f5782828281518110610c6157610c61611247565b6020908102919091018101518254600181018455600093845291909220015580610c8a81611362565b915050610c45565b5050565b600080546001600160a01b038381166001600160a01b0319831681178455604051919092169283917f8be0079c531659141344cd1fd0a4f28419497f9722a3daafe3b4186f6b6457e09190a35050565b5080546000825590600052602060002090810190610ab491905b80821115610d145760008155600101610d00565b5090565b600060208284031215610d2a57600080fd5b81356001600160e01b031981168114610d4257600080fd5b9392505050565b80356001600160a01b0381168114610d6057600080fd5b919050565b600060208284031215610d7757600080fd5b610d4282610d49565b600080600060608486031215610d9557600080fd5b610d9e84610d49565b95602085013595506040909401359392505050565b634e487b7160e01b600052604160045260246000fd5b604051601f8201601f1916810167ffffffffffffffff81118282101715610df257610df2610db3565b604052919050565b600067ffffffffffffffff821115610e1457610e14610db3565b5060051b60200190565b600082601f830112610e2f57600080fd5b81356020610e44610e3f83610dfa565b610dc9565b82815260059290921b84018101918181019086841115610e6357600080fd5b8286015b84811015610e8557610e7881610d49565b8352918301918301610e67565b509695505050505050565b803563ffffffff81168114610d6057600080fd5b60008060408385031215610eb757600080fd5b823567ffffffffffffffff80821115610ecf57600080fd5b610edb86838701610e1e565b9350602091508185013581811115610ef257600080fd5b85019050601f81018613610f0557600080fd5b8035610f13610e3f82610dfa565b81815260059190911b82018301908381019088831115610f3257600080fd5b928401925b82841015610f5757610f4884610e90565b82529284019290840190610f37565b80955050505050509250929050565b600082601f830112610f7757600080fd5b81356020610f87610e3f83610dfa565b82815260059290921b84018101918181019086841115610fa657600080fd5b8286015b84811015610e855780358352918301918301610faa565b600080600060608486031215610fd657600080fd5b610fdf84610d49565b9250602084013567ffffffffffffffff80821115610ffc57600080fd5b61100887838801610f66565b9350604086013591508082111561101e57600080fd5b5061102b86828701610f66565b9150509250925092565b600082601f83011261104657600080fd5b813567ffffffffffffffff81111561106057611060610db3565b611073601f8201601f1916602001610dc9565b81815284602083860101111561108857600080fd5b816020850160208301376000918101602001919091529392505050565b600080600080600060a086880312156110bd57600080fd5b6110c686610d49565b94506110d460208701610d49565b9350604086013567ffffffffffffffff808211156110f157600080fd5b6110fd89838a01610f66565b9450606088013591508082111561111357600080fd5b61111f89838a01610f66565b9350608088013591508082111561113557600080fd5b5061114288828901611035565b9150509295509295909350565b6000806040838503121561116257600080fd5b823567ffffffffffffffff81111561117957600080fd5b61118585828601610e1e565b92505061119460208401610e90565b90509250929050565b600080600080600060a086880312156111b557600080fd5b6111be86610d49565b94506111cc60208701610d49565b93506040860135925060608601359150608086013567ffffffffffffffff8111156111f657600080fd5b61114288828901611035565b634e487b7160e01b600052601160045260246000fd5b6000821982111561122b5761122b611202565b500190565b60008282101561124257611242611202565b500390565b634e487b7160e01b600052603260045260246000fd5b60008161126c5761126c611202565b506000190190565b600081518084526020808501945080840160005b838110156112a457815187529582019590820190600101611288565b509495945050505050565b6001600160a01b0385811682528416602082015260a0604082018190526000906112db90830185611274565b82810360608401526112ed8185611274565b838103608090940193909352505060008152602001949350505050565b600063ffffffff80831681810361132357611323611202565b6001019392505050565b6020808252818101527f4f776e61626c653a2063616c6c6572206973206e6f7420746865206f776e6572604082015260600190565b60006001820161137457611374611202565b5060010190565b6001600160a01b038581168252841660208083019190915260a060408301819052845490830181905260008581528281209092909160c085019190845b818110156113d4578454845260019485019493830193016113b8565b505084820360608601526113e88287611274565b85810360809096019590955260008552909301979650505050505050565b634e487b7160e01b600052603160045260246000fdfea2646970667358221220e73dc1b3fa3a628bc2d3dd3f819eebacf9dd295d779e623b98cb1b38a4a4c96e64736f6c634300080d0033",
					"opcodes": "PUSH1 0x80 PUSH1 0x40 MSTORE CALLVALUE DUP1 ISZERO PUSH2 0x10 JUMPI PUSH1 0x0 DUP1 REVERT JUMPDEST POP PUSH2 0x1A CALLER PUSH2 0x1F JUMP JUMPDEST PUSH2 0x6F JUMP JUMPDEST PUSH1 0x0 DUP1 SLOAD PUSH1 0x1 PUSH1 0x1 PUSH1 0xA0 SHL SUB DUP4 DUP2 AND PUSH1 0x1 PUSH1 0x1 PUSH1 0xA0 SHL SUB NOT DUP4 AND DUP2 OR DUP5 SSTORE PUSH1 0x40 MLOAD SWAP2 SWAP1 SWAP3 AND SWAP3 DUP4 SWAP2 PUSH32 0x8BE0079C531659141344CD1FD0A4F28419497F9722A3DAAFE3B4186F6B6457E0 SWAP2 SWAP1 LOG3 POP POP JUMP JUMPDEST PUSH2 0x1452 DUP1 PUSH2 0x7E PUSH1 0x0 CODECOPY PUSH1 0x0 RETURN INVALID PUSH1 0x80 PUSH1 0x40 MSTORE CALLVALUE DUP1 ISZERO PUSH2 0x10 JUMPI PUSH1 0x0 DUP1 REVERT JUMPDEST POP PUSH1 0x4 CALLDATASIZE LT PUSH2 0xEA JUMPI PUSH1 0x0 CALLDATALOAD PUSH1 0xE0 SHR DUP1 PUSH4 0x715018A6 GT PUSH2 0x8C JUMPI DUP1 PUSH4 0xC4091443 GT PUSH2 0x66 JUMPI DUP1 PUSH4 0xC4091443 EQ PUSH2 0x22A JUMPI DUP1 PUSH4 0xE2A79809 EQ PUSH2 0x23D JUMPI DUP1 PUSH4 0xF23A6E61 EQ PUSH2 0x250 JUMPI DUP1 PUSH4 0xF2FDE38B EQ PUSH2 0x26F JUMPI PUSH1 0x0 DUP1 REVERT JUMPDEST DUP1 PUSH4 0x715018A6 EQ PUSH2 0x1CF JUMPI DUP1 PUSH4 0x8DA5CB5B EQ PUSH2 0x1D7 JUMPI DUP1 PUSH4 0xBC197C81 EQ PUSH2 0x1F2 JUMPI PUSH1 0x0 DUP1 REVERT JUMPDEST DUP1 PUSH4 0x51CFF8D9 GT PUSH2 0xC8 JUMPI DUP1 PUSH4 0x51CFF8D9 EQ PUSH2 0x167 JUMPI DUP1 PUSH4 0x59441EAE EQ PUSH2 0x17A JUMPI DUP1 PUSH4 0x5B16E22D EQ PUSH2 0x1A9 JUMPI DUP1 PUSH4 0x63C66891 EQ PUSH2 0x1BC JUMPI PUSH1 0x0 DUP1 REVERT JUMPDEST DUP1 PUSH4 0x1FFC9A7 EQ PUSH2 0xEF JUMPI DUP1 PUSH4 0x372C12B1 EQ PUSH2 0x117 JUMPI DUP1 PUSH4 0x4B02218F EQ PUSH2 0x152 JUMPI JUMPDEST PUSH1 0x0 DUP1 REVERT JUMPDEST PUSH2 0x102 PUSH2 0xFD CALLDATASIZE PUSH1 0x4 PUSH2 0xD18 JUMP JUMPDEST PUSH2 0x282 JUMP JUMPDEST PUSH1 0x40 MLOAD SWAP1 ISZERO ISZERO DUP2 MSTORE PUSH1 0x20 ADD JUMPDEST PUSH1 0x40 MLOAD DUP1 SWAP2 SUB SWAP1 RETURN JUMPDEST PUSH2 0x13D PUSH2 0x125 CALLDATASIZE PUSH1 0x4 PUSH2 0xD65 JUMP JUMPDEST PUSH1 0x1 PUSH1 0x20 MSTORE PUSH1 0x0 SWAP1 DUP2 MSTORE PUSH1 0x40 SWAP1 KECCAK256 SLOAD PUSH4 0xFFFFFFFF AND DUP2 JUMP JUMPDEST PUSH1 0x40 MLOAD PUSH4 0xFFFFFFFF SWAP1 SWAP2 AND DUP2 MSTORE PUSH1 0x20 ADD PUSH2 0x10E JUMP JUMPDEST PUSH2 0x165 PUSH2 0x160 CALLDATASIZE PUSH1 0x4 PUSH2 0xD80 JUMP JUMPDEST PUSH2 0x2B9 JUMP JUMPDEST STOP JUMPDEST PUSH2 0x165 PUSH2 0x175 CALLDATASIZE PUSH1 0x4 PUSH2 0xD65 JUMP JUMPDEST PUSH2 0x4B8 JUMP JUMPDEST PUSH2 0x13D PUSH2 0x188 CALLDATASIZE PUSH1 0x4 PUSH2 0xD65 JUMP JUMPDEST PUSH1 0x1 PUSH1 0x1 PUSH1 0xA0 SHL SUB AND PUSH1 0x0 SWAP1 DUP2 MSTORE PUSH1 0x1 PUSH1 0x20 MSTORE PUSH1 0x40 SWAP1 KECCAK256 SLOAD PUSH4 0xFFFFFFFF AND SWAP1 JUMP JUMPDEST PUSH2 0x165 PUSH2 0x1B7 CALLDATASIZE PUSH1 0x4 PUSH2 0xEA4 JUMP JUMPDEST PUSH2 0x670 JUMP JUMPDEST PUSH2 0x165 PUSH2 0x1CA CALLDATASIZE PUSH1 0x4 PUSH2 0xFC1 JUMP JUMPDEST PUSH2 0x734 JUMP JUMPDEST PUSH2 0x165 PUSH2 0x7E9 JUMP JUMPDEST PUSH1 0x0 SLOAD PUSH1 0x40 MLOAD PUSH1 0x1 PUSH1 0x1 PUSH1 0xA0 SHL SUB SWAP1 SWAP2 AND DUP2 MSTORE PUSH1 0x20 ADD PUSH2 0x10E JUMP JUMPDEST PUSH2 0x211 PUSH2 0x200 CALLDATASIZE PUSH1 0x4 PUSH2 0x10A5 JUMP JUMPDEST PUSH4 0xBC197C81 PUSH1 0xE0 SHL SWAP6 SWAP5 POP POP POP POP POP JUMP JUMPDEST PUSH1 0x40 MLOAD PUSH1 0x1 PUSH1 0x1 PUSH1 0xE0 SHL SUB NOT SWAP1 SWAP2 AND DUP2 MSTORE PUSH1 0x20 ADD PUSH2 0x10E JUMP JUMPDEST PUSH2 0x165 PUSH2 0x238 CALLDATASIZE PUSH1 0x4 PUSH2 0xD65 JUMP JUMPDEST PUSH2 0x81F JUMP JUMPDEST PUSH2 0x165 PUSH2 0x24B CALLDATASIZE PUSH1 0x4 PUSH2 0x114F JUMP JUMPDEST PUSH2 0x976 JUMP JUMPDEST PUSH2 0x211 PUSH2 0x25E CALLDATASIZE PUSH1 0x4 PUSH2 0x119D JUMP JUMPDEST PUSH4 0xF23A6E61 PUSH1 0xE0 SHL SWAP6 SWAP5 POP POP POP POP POP JUMP JUMPDEST PUSH2 0x165 PUSH2 0x27D CALLDATASIZE PUSH1 0x4 PUSH2 0xD65 JUMP JUMPDEST PUSH2 0xA1C JUMP JUMPDEST PUSH1 0x0 PUSH1 0x1 PUSH1 0x1 PUSH1 0xE0 SHL SUB NOT DUP3 AND PUSH4 0x2711897 PUSH1 0xE5 SHL EQ DUP1 PUSH2 0x2B3 JUMPI POP PUSH4 0x1FFC9A7 PUSH1 0xE0 SHL PUSH1 0x1 PUSH1 0x1 PUSH1 0xE0 SHL SUB NOT DUP4 AND EQ JUMPDEST SWAP3 SWAP2 POP POP JUMP JUMPDEST PUSH1 0x0 DUP2 PUSH8 0xFFFFFFFFFFFFFFFF DUP2 GT ISZERO PUSH2 0x2D4 JUMPI PUSH2 0x2D4 PUSH2 0xDB3 JUMP JUMPDEST PUSH1 0x40 MLOAD SWAP1 DUP1 DUP3 MSTORE DUP1 PUSH1 0x20 MUL PUSH1 0x20 ADD DUP3 ADD PUSH1 0x40 MSTORE DUP1 ISZERO PUSH2 0x2FD JUMPI DUP2 PUSH1 0x20 ADD PUSH1 0x20 DUP3 MUL DUP1 CALLDATASIZE DUP4 CALLDATACOPY ADD SWAP1 POP JUMPDEST POP SWAP1 POP PUSH1 0x0 DUP3 PUSH8 0xFFFFFFFFFFFFFFFF DUP2 GT ISZERO PUSH2 0x31B JUMPI PUSH2 0x31B PUSH2 0xDB3 JUMP JUMPDEST PUSH1 0x40 MLOAD SWAP1 DUP1 DUP3 MSTORE DUP1 PUSH1 0x20 MUL PUSH1 0x20 ADD DUP3 ADD PUSH1 0x40 MSTORE DUP1 ISZERO PUSH2 0x344 JUMPI DUP2 PUSH1 0x20 ADD PUSH1 0x20 DUP3 MUL DUP1 CALLDATASIZE DUP4 CALLDATACOPY ADD SWAP1 POP JUMPDEST POP SWAP1 POP PUSH1 0x0 DUP5 GT PUSH2 0x39C JUMPI PUSH1 0x40 MLOAD PUSH3 0x461BCD PUSH1 0xE5 SHL DUP2 MSTORE PUSH1 0x20 PUSH1 0x4 DUP3 ADD MSTORE PUSH1 0x19 PUSH1 0x24 DUP3 ADD MSTORE PUSH32 0x7374617274206D757374206D6F7265207468616E207A65726F00000000000000 PUSH1 0x44 DUP3 ADD MSTORE PUSH1 0x64 ADD JUMPDEST PUSH1 0x40 MLOAD DUP1 SWAP2 SUB SWAP1 REVERT JUMPDEST PUSH1 0x0 PUSH1 0x1 PUSH2 0x3AA DUP7 DUP7 PUSH2 0x1218 JUMP JUMPDEST PUSH2 0x3B4 SWAP2 SWAP1 PUSH2 0x1230 JUMP JUMPDEST SWAP1 POP JUMPDEST DUP5 DUP2 LT PUSH2 0x44C JUMPI DUP1 DUP4 PUSH2 0x3CA DUP8 DUP4 PUSH2 0x1230 JUMP JUMPDEST DUP2 MLOAD DUP2 LT PUSH2 0x3DA JUMPI PUSH2 0x3DA PUSH2 0x1247 JUMP JUMPDEST PUSH1 0x20 SWAP1 DUP2 MUL SWAP2 SWAP1 SWAP2 ADD ADD MSTORE PUSH1 0x1 DUP3 PUSH2 0x3F2 DUP8 DUP5 PUSH2 0x1230 JUMP JUMPDEST DUP2 MLOAD DUP2 LT PUSH2 0x402 JUMPI PUSH2 0x402 PUSH2 0x1247 JUMP JUMPDEST PUSH1 0x20 SWAP1 DUP2 MUL SWAP2 SWAP1 SWAP2 ADD DUP2 ADD SWAP2 SWAP1 SWAP2 MSTORE PUSH1 0x1 PUSH1 0x1 PUSH1 0xA0 SHL SUB DUP8 AND PUSH1 0x0 SWAP1 DUP2 MSTORE PUSH1 0x2 DUP3 MSTORE PUSH1 0x40 DUP2 KECCAK256 DUP1 SLOAD PUSH1 0x1 DUP2 ADD DUP3 SSTORE SWAP1 DUP3 MSTORE SWAP2 SWAP1 KECCAK256 ADD DUP2 SWAP1 SSTORE DUP1 PUSH2 0x444 DUP2 PUSH2 0x125D JUMP JUMPDEST SWAP2 POP POP PUSH2 0x3B7 JUMP JUMPDEST POP PUSH1 0x40 MLOAD PUSH4 0x1759616B PUSH1 0xE1 SHL DUP2 MSTORE PUSH1 0x1 PUSH1 0x1 PUSH1 0xA0 SHL SUB DUP7 AND SWAP1 PUSH4 0x2EB2C2D6 SWAP1 PUSH2 0x47F SWAP1 CALLER SWAP1 ADDRESS SWAP1 DUP8 SWAP1 DUP8 SWAP1 PUSH1 0x4 ADD PUSH2 0x12AF JUMP JUMPDEST PUSH1 0x0 PUSH1 0x40 MLOAD DUP1 DUP4 SUB DUP2 PUSH1 0x0 DUP8 DUP1 EXTCODESIZE ISZERO DUP1 ISZERO PUSH2 0x499 JUMPI PUSH1 0x0 DUP1 REVERT JUMPDEST POP GAS CALL ISZERO DUP1 ISZERO PUSH2 0x4AD JUMPI RETURNDATASIZE PUSH1 0x0 DUP1 RETURNDATACOPY RETURNDATASIZE PUSH1 0x0 REVERT JUMPDEST POP POP POP POP POP POP POP POP POP JUMP JUMPDEST CALLER PUSH1 0x0 SWAP1 DUP2 MSTORE PUSH1 0x1 PUSH1 0x20 MSTORE PUSH1 0x40 SWAP1 KECCAK256 SLOAD PUSH4 0xFFFFFFFF AND PUSH2 0x50D JUMPI PUSH1 0x40 MLOAD PUSH3 0x461BCD PUSH1 0xE5 SHL DUP2 MSTORE PUSH1 0x20 PUSH1 0x4 DUP3 ADD MSTORE PUSH1 0x10 PUSH1 0x24 DUP3 ADD MSTORE PUSH16 0x139BDD081A5B881DDA1A5D195B1A5CDD PUSH1 0x82 SHL PUSH1 0x44 DUP3 ADD MSTORE PUSH1 0x64 ADD PUSH2 0x393 JUMP JUMPDEST CALLER PUSH1 0x0 SWAP1 DUP2 MSTORE PUSH1 0x1 PUSH1 0x20 MSTORE PUSH1 0x40 DUP2 KECCAK256 SLOAD PUSH4 0xFFFFFFFF AND SWAP1 JUMPDEST DUP2 PUSH4 0xFFFFFFFF AND DUP2 PUSH4 0xFFFFFFFF AND LT ISZERO PUSH2 0x651 JUMPI PUSH1 0x1 PUSH1 0x1 PUSH1 0xA0 SHL SUB DUP4 AND PUSH1 0x0 SWAP1 DUP2 MSTORE PUSH1 0x2 PUSH1 0x20 MSTORE PUSH1 0x40 DUP2 KECCAK256 DUP2 SWAP1 PUSH2 0x55C SWAP1 PUSH2 0xAB7 JUMP JUMPDEST PUSH1 0x1 PUSH1 0x1 PUSH1 0xA0 SHL SUB DUP8 AND PUSH1 0x0 SWAP1 DUP2 MSTORE PUSH1 0x2 PUSH1 0x20 MSTORE PUSH1 0x40 SWAP1 KECCAK256 SWAP2 SWAP4 POP SWAP2 POP PUSH2 0x583 SWAP1 DUP3 PUSH2 0xB49 JUMP JUMPDEST PUSH1 0x40 MLOAD PUSH4 0x79212195 PUSH1 0xE1 SHL DUP2 MSTORE ADDRESS PUSH1 0x4 DUP3 ADD MSTORE CALLER PUSH1 0x24 DUP3 ADD MSTORE PUSH1 0x44 DUP2 ADD DUP4 SWAP1 MSTORE PUSH1 0x1 PUSH1 0x64 DUP3 ADD MSTORE PUSH1 0xA0 PUSH1 0x84 DUP3 ADD MSTORE PUSH1 0x0 PUSH1 0xA4 DUP3 ADD MSTORE PUSH1 0x1 PUSH1 0x1 PUSH1 0xA0 SHL SUB DUP7 AND SWAP1 PUSH4 0xF242432A SWAP1 PUSH1 0xC4 ADD PUSH1 0x0 PUSH1 0x40 MLOAD DUP1 DUP4 SUB DUP2 PUSH1 0x0 DUP8 DUP1 EXTCODESIZE ISZERO DUP1 ISZERO PUSH2 0x5E6 JUMPI PUSH1 0x0 DUP1 REVERT JUMPDEST POP GAS CALL ISZERO DUP1 ISZERO PUSH2 0x5FA JUMPI RETURNDATASIZE PUSH1 0x0 DUP1 RETURNDATACOPY RETURNDATASIZE PUSH1 0x0 REVERT JUMPDEST POP POP PUSH1 0x40 MLOAD DUP5 DUP2 MSTORE CALLER SWAP3 POP PUSH1 0x1 PUSH1 0x1 PUSH1 0xA0 SHL SUB DUP9 AND SWAP2 POP PUSH32 0xD1C19FBCD4551A5EDFB66D43D2E337C04837AFDA3482B42BDF569A8FCCDAE5FB SWAP1 PUSH1 0x20 ADD PUSH1 0x40 MLOAD DUP1 SWAP2 SUB SWAP1 LOG3 POP POP DUP1 PUSH2 0x64A SWAP1 PUSH2 0x130A JUMP JUMPDEST SWAP1 POP PUSH2 0x525 JUMP JUMPDEST POP POP CALLER PUSH1 0x0 SWAP1 DUP2 MSTORE PUSH1 0x1 PUSH1 0x20 MSTORE PUSH1 0x40 SWAP1 KECCAK256 DUP1 SLOAD PUSH4 0xFFFFFFFF NOT AND SWAP1 SSTORE POP JUMP JUMPDEST PUSH1 0x0 SLOAD PUSH1 0x1 PUSH1 0x1 PUSH1 0xA0 SHL SUB AND CALLER EQ PUSH2 0x69A JUMPI PUSH1 0x40 MLOAD PUSH3 0x461BCD PUSH1 0xE5 SHL DUP2 MSTORE PUSH1 0x4 ADD PUSH2 0x393 SWAP1 PUSH2 0x132D JUMP JUMPDEST PUSH1 0x0 JUMPDEST DUP3 MLOAD DUP2 LT ISZERO PUSH2 0x72F JUMPI DUP2 DUP2 DUP2 MLOAD DUP2 LT PUSH2 0x6B8 JUMPI PUSH2 0x6B8 PUSH2 0x1247 JUMP JUMPDEST PUSH1 0x20 MUL PUSH1 0x20 ADD ADD MLOAD PUSH1 0x1 PUSH1 0x0 DUP6 DUP5 DUP2 MLOAD DUP2 LT PUSH2 0x6D6 JUMPI PUSH2 0x6D6 PUSH2 0x1247 JUMP JUMPDEST PUSH1 0x20 MUL PUSH1 0x20 ADD ADD MLOAD PUSH1 0x1 PUSH1 0x1 PUSH1 0xA0 SHL SUB AND PUSH1 0x1 PUSH1 0x1 PUSH1 0xA0 SHL SUB AND DUP2 MSTORE PUSH1 0x20 ADD SWAP1 DUP2 MSTORE PUSH1 0x20 ADD PUSH1 0x0 KECCAK256 PUSH1 0x0 PUSH2 0x100 EXP DUP2 SLOAD DUP2 PUSH4 0xFFFFFFFF MUL NOT AND SWAP1 DUP4 PUSH4 0xFFFFFFFF AND MUL OR SWAP1 SSTORE POP DUP1 DUP1 PUSH2 0x727 SWAP1 PUSH2 0x1362 JUMP JUMPDEST SWAP2 POP POP PUSH2 0x69D JUMP JUMPDEST POP POP POP JUMP JUMPDEST PUSH1 0x0 SLOAD PUSH1 0x1 PUSH1 0x1 PUSH1 0xA0 SHL SUB AND CALLER EQ PUSH2 0x75E JUMPI PUSH1 0x40 MLOAD PUSH3 0x461BCD PUSH1 0xE5 SHL DUP2 MSTORE PUSH1 0x4 ADD PUSH2 0x393 SWAP1 PUSH2 0x132D JUMP JUMPDEST PUSH1 0x1 PUSH1 0x1 PUSH1 0xA0 SHL SUB DUP4 AND PUSH1 0x0 SWAP1 DUP2 MSTORE PUSH1 0x2 PUSH1 0x20 MSTORE PUSH1 0x40 SWAP1 KECCAK256 PUSH2 0x780 SWAP1 DUP4 PUSH2 0xC3B JUMP JUMPDEST PUSH1 0x40 MLOAD PUSH4 0x1759616B PUSH1 0xE1 SHL DUP2 MSTORE PUSH1 0x1 PUSH1 0x1 PUSH1 0xA0 SHL SUB DUP5 AND SWAP1 PUSH4 0x2EB2C2D6 SWAP1 PUSH2 0x7B2 SWAP1 CALLER SWAP1 ADDRESS SWAP1 DUP8 SWAP1 DUP8 SWAP1 PUSH1 0x4 ADD PUSH2 0x12AF JUMP JUMPDEST PUSH1 0x0 PUSH1 0x40 MLOAD DUP1 DUP4 SUB DUP2 PUSH1 0x0 DUP8 DUP1 EXTCODESIZE ISZERO DUP1 ISZERO PUSH2 0x7CC JUMPI PUSH1 0x0 DUP1 REVERT JUMPDEST POP GAS CALL ISZERO DUP1 ISZERO PUSH2 0x7E0 JUMPI RETURNDATASIZE PUSH1 0x0 DUP1 RETURNDATACOPY RETURNDATASIZE PUSH1 0x0 REVERT JUMPDEST POP POP POP POP POP POP POP JUMP JUMPDEST PUSH1 0x0 SLOAD PUSH1 0x1 PUSH1 0x1 PUSH1 0xA0 SHL SUB AND CALLER EQ PUSH2 0x813 JUMPI PUSH1 0x40 MLOAD PUSH3 0x461BCD PUSH1 0xE5 SHL DUP2 MSTORE PUSH1 0x4 ADD PUSH2 0x393 SWAP1 PUSH2 0x132D JUMP JUMPDEST PUSH2 0x81D PUSH1 0x0 PUSH2 0xC96 JUMP JUMPDEST JUMP JUMPDEST PUSH1 0x0 SLOAD PUSH1 0x1 PUSH1 0x1 PUSH1 0xA0 SHL SUB AND CALLER EQ PUSH2 0x849 JUMPI PUSH1 0x40 MLOAD PUSH3 0x461BCD PUSH1 0xE5 SHL DUP2 MSTORE PUSH1 0x4 ADD PUSH2 0x393 SWAP1 PUSH2 0x132D JUMP JUMPDEST PUSH1 0x1 PUSH1 0x1 PUSH1 0xA0 SHL SUB DUP2 AND PUSH1 0x0 SWAP1 DUP2 MSTORE PUSH1 0x2 PUSH1 0x20 MSTORE PUSH1 0x40 DUP2 KECCAK256 SLOAD SWAP1 DUP2 PUSH8 0xFFFFFFFFFFFFFFFF DUP2 GT ISZERO PUSH2 0x87C JUMPI PUSH2 0x87C PUSH2 0xDB3 JUMP JUMPDEST PUSH1 0x40 MLOAD SWAP1 DUP1 DUP3 MSTORE DUP1 PUSH1 0x20 MUL PUSH1 0x20 ADD DUP3 ADD PUSH1 0x40 MSTORE DUP1 ISZERO PUSH2 0x8A5 JUMPI DUP2 PUSH1 0x20 ADD PUSH1 0x20 DUP3 MUL DUP1 CALLDATASIZE DUP4 CALLDATACOPY ADD SWAP1 POP JUMPDEST POP SWAP1 POP PUSH1 0x0 JUMPDEST DUP3 DUP2 LT ISZERO PUSH2 0x8E4 JUMPI PUSH1 0x1 DUP3 DUP3 DUP2 MLOAD DUP2 LT PUSH2 0x8C7 JUMPI PUSH2 0x8C7 PUSH2 0x1247 JUMP JUMPDEST PUSH1 0x20 SWAP1 DUP2 MUL SWAP2 SWAP1 SWAP2 ADD ADD MSTORE DUP1 PUSH2 0x8DC DUP2 PUSH2 0x1362 JUMP JUMPDEST SWAP2 POP POP PUSH2 0x8AB JUMP JUMPDEST POP PUSH1 0x1 PUSH1 0x1 PUSH1 0xA0 SHL SUB DUP4 AND PUSH1 0x0 DUP2 DUP2 MSTORE PUSH1 0x2 PUSH1 0x20 MSTORE PUSH1 0x40 SWAP1 DUP2 SWAP1 KECCAK256 SWAP1 MLOAD PUSH4 0x1759616B PUSH1 0xE1 SHL DUP2 MSTORE PUSH4 0x2EB2C2D6 SWAP2 PUSH2 0x923 SWAP2 ADDRESS SWAP2 CALLER SWAP2 DUP8 SWAP1 PUSH1 0x4 ADD PUSH2 0x137B JUMP JUMPDEST PUSH1 0x0 PUSH1 0x40 MLOAD DUP1 DUP4 SUB DUP2 PUSH1 0x0 DUP8 DUP1 EXTCODESIZE ISZERO DUP1 ISZERO PUSH2 0x93D JUMPI PUSH1 0x0 DUP1 REVERT JUMPDEST POP GAS CALL ISZERO DUP1 ISZERO PUSH2 0x951 JUMPI RETURNDATASIZE PUSH1 0x0 DUP1 RETURNDATACOPY RETURNDATASIZE PUSH1 0x0 REVERT JUMPDEST POP POP POP POP PUSH1 0x1 PUSH1 0x1 PUSH1 0xA0 SHL SUB DUP4 AND PUSH1 0x0 SWAP1 DUP2 MSTORE PUSH1 0x2 PUSH1 0x20 MSTORE PUSH1 0x40 DUP2 KECCAK256 PUSH2 0x72F SWAP2 PUSH2 0xCE6 JUMP JUMPDEST PUSH1 0x0 SLOAD PUSH1 0x1 PUSH1 0x1 PUSH1 0xA0 SHL SUB AND CALLER EQ PUSH2 0x9A0 JUMPI PUSH1 0x40 MLOAD PUSH3 0x461BCD PUSH1 0xE5 SHL DUP2 MSTORE PUSH1 0x4 ADD PUSH2 0x393 SWAP1 PUSH2 0x132D JUMP JUMPDEST PUSH1 0x0 JUMPDEST DUP3 MLOAD DUP2 LT ISZERO PUSH2 0x72F JUMPI DUP2 PUSH1 0x1 PUSH1 0x0 DUP6 DUP5 DUP2 MLOAD DUP2 LT PUSH2 0x9C3 JUMPI PUSH2 0x9C3 PUSH2 0x1247 JUMP JUMPDEST PUSH1 0x20 MUL PUSH1 0x20 ADD ADD MLOAD PUSH1 0x1 PUSH1 0x1 PUSH1 0xA0 SHL SUB AND PUSH1 0x1 PUSH1 0x1 PUSH1 0xA0 SHL SUB AND DUP2 MSTORE PUSH1 0x20 ADD SWAP1 DUP2 MSTORE PUSH1 0x20 ADD PUSH1 0x0 KECCAK256 PUSH1 0x0 PUSH2 0x100 EXP DUP2 SLOAD DUP2 PUSH4 0xFFFFFFFF MUL NOT AND SWAP1 DUP4 PUSH4 0xFFFFFFFF AND MUL OR SWAP1 SSTORE POP DUP1 DUP1 PUSH2 0xA14 SWAP1 PUSH2 0x1362 JUMP JUMPDEST SWAP2 POP POP PUSH2 0x9A3 JUMP JUMPDEST PUSH1 0x0 SLOAD PUSH1 0x1 PUSH1 0x1 PUSH1 0xA0 SHL SUB AND CALLER EQ PUSH2 0xA46 JUMPI PUSH1 0x40 MLOAD PUSH3 0x461BCD PUSH1 0xE5 SHL DUP2 MSTORE PUSH1 0x4 ADD PUSH2 0x393 SWAP1 PUSH2 0x132D JUMP JUMPDEST PUSH1 0x1 PUSH1 0x1 PUSH1 0xA0 SHL SUB DUP2 AND PUSH2 0xAAB JUMPI PUSH1 0x40 MLOAD PUSH3 0x461BCD PUSH1 0xE5 SHL DUP2 MSTORE PUSH1 0x20 PUSH1 0x4 DUP3 ADD MSTORE PUSH1 0x26 PUSH1 0x24 DUP3 ADD MSTORE PUSH32 0x4F776E61626C653A206E6577206F776E657220697320746865207A65726F2061 PUSH1 0x44 DUP3 ADD MSTORE PUSH6 0x646472657373 PUSH1 0xD0 SHL PUSH1 0x64 DUP3 ADD MSTORE PUSH1 0x84 ADD PUSH2 0x393 JUMP JUMPDEST PUSH2 0xAB4 DUP2 PUSH2 0xC96 JUMP JUMPDEST POP JUMP JUMPDEST PUSH1 0x0 DUP1 DUP3 PUSH1 0x0 DUP2 SLOAD DUP2 LT PUSH2 0xACD JUMPI PUSH2 0xACD PUSH2 0x1247 JUMP JUMPDEST SWAP1 PUSH1 0x0 MSTORE PUSH1 0x20 PUSH1 0x0 KECCAK256 ADD SLOAD SWAP2 POP PUSH1 0x0 SWAP1 POP PUSH1 0x0 JUMPDEST DUP4 SLOAD DUP2 LT ISZERO PUSH2 0xB43 JUMPI DUP3 DUP5 DUP3 DUP2 SLOAD DUP2 LT PUSH2 0xAFD JUMPI PUSH2 0xAFD PUSH2 0x1247 JUMP JUMPDEST SWAP1 PUSH1 0x0 MSTORE PUSH1 0x20 PUSH1 0x0 KECCAK256 ADD SLOAD LT ISZERO PUSH2 0xB31 JUMPI DUP4 DUP2 DUP2 SLOAD DUP2 LT PUSH2 0xB20 JUMPI PUSH2 0xB20 PUSH2 0x1247 JUMP JUMPDEST SWAP1 PUSH1 0x0 MSTORE PUSH1 0x20 PUSH1 0x0 KECCAK256 ADD SLOAD SWAP3 POP DUP1 SWAP2 POP JUMPDEST DUP1 PUSH2 0xB3B DUP2 PUSH2 0x1362 JUMP JUMPDEST SWAP2 POP POP PUSH2 0xAE1 JUMP JUMPDEST POP SWAP2 POP SWAP2 JUMP JUMPDEST DUP2 SLOAD DUP2 LT PUSH2 0xBA5 JUMPI PUSH1 0x40 MLOAD PUSH3 0x461BCD PUSH1 0xE5 SHL DUP2 MSTORE PUSH1 0x20 PUSH1 0x4 DUP3 ADD MSTORE PUSH1 0x24 DUP1 DUP3 ADD MSTORE PUSH32 0x4172726179466F7255696E743235363A20696E646578206F7574206F6620626F PUSH1 0x44 DUP3 ADD MSTORE PUSH4 0x756E6473 PUSH1 0xE0 SHL PUSH1 0x64 DUP3 ADD MSTORE PUSH1 0x84 ADD PUSH2 0x393 JUMP JUMPDEST DUP2 SLOAD PUSH2 0xBB3 SWAP1 PUSH1 0x1 SWAP1 PUSH2 0x1230 JUMP JUMPDEST DUP2 LT ISZERO PUSH2 0xC11 JUMPI DUP2 PUSH2 0xBC6 DUP3 PUSH1 0x1 PUSH2 0x1218 JUMP JUMPDEST DUP2 SLOAD DUP2 LT PUSH2 0xBD6 JUMPI PUSH2 0xBD6 PUSH2 0x1247 JUMP JUMPDEST SWAP1 PUSH1 0x0 MSTORE PUSH1 0x20 PUSH1 0x0 KECCAK256 ADD SLOAD DUP3 DUP3 DUP2 SLOAD DUP2 LT PUSH2 0xBF3 JUMPI PUSH2 0xBF3 PUSH2 0x1247 JUMP JUMPDEST PUSH1 0x0 SWAP2 DUP3 MSTORE PUSH1 0x20 SWAP1 SWAP2 KECCAK256 ADD SSTORE DUP1 PUSH2 0xC09 DUP2 PUSH2 0x1362 JUMP JUMPDEST SWAP2 POP POP PUSH2 0xBA5 JUMP JUMPDEST DUP2 DUP1 SLOAD DUP1 PUSH2 0xC21 JUMPI PUSH2 0xC21 PUSH2 0x1406 JUMP JUMPDEST PUSH1 0x1 SWAP1 SUB DUP2 DUP2 SWAP1 PUSH1 0x0 MSTORE PUSH1 0x20 PUSH1 0x0 KECCAK256 ADD PUSH1 0x0 SWAP1 SSTORE SWAP1 SSTORE POP POP JUMP JUMPDEST DUP1 MLOAD ISZERO PUSH2 0xC92 JUMPI PUSH1 0x0 JUMPDEST DUP2 MLOAD DUP2 LT ISZERO PUSH2 0x72F JUMPI DUP3 DUP3 DUP3 DUP2 MLOAD DUP2 LT PUSH2 0xC61 JUMPI PUSH2 0xC61 PUSH2 0x1247 JUMP JUMPDEST PUSH1 0x20 SWAP1 DUP2 MUL SWAP2 SWAP1 SWAP2 ADD DUP2 ADD MLOAD DUP3 SLOAD PUSH1 0x1 DUP2 ADD DUP5 SSTORE PUSH1 0x0 SWAP4 DUP5 MSTORE SWAP2 SWAP1 SWAP3 KECCAK256 ADD SSTORE DUP1 PUSH2 0xC8A DUP2 PUSH2 0x1362 JUMP JUMPDEST SWAP2 POP POP PUSH2 0xC45 JUMP JUMPDEST POP POP JUMP JUMPDEST PUSH1 0x0 DUP1 SLOAD PUSH1 0x1 PUSH1 0x1 PUSH1 0xA0 SHL SUB DUP4 DUP2 AND PUSH1 0x1 PUSH1 0x1 PUSH1 0xA0 SHL SUB NOT DUP4 AND DUP2 OR DUP5 SSTORE PUSH1 0x40 MLOAD SWAP2 SWAP1 SWAP3 AND SWAP3 DUP4 SWAP2 PUSH32 0x8BE0079C531659141344CD1FD0A4F28419497F9722A3DAAFE3B4186F6B6457E0 SWAP2 SWAP1 LOG3 POP POP JUMP JUMPDEST POP DUP1 SLOAD PUSH1 0x0 DUP3 SSTORE SWAP1 PUSH1 0x0 MSTORE PUSH1 0x20 PUSH1 0x0 KECCAK256 SWAP1 DUP2 ADD SWAP1 PUSH2 0xAB4 SWAP2 SWAP1 JUMPDEST DUP1 DUP3 GT ISZERO PUSH2 0xD14 JUMPI PUSH1 0x0 DUP2 SSTORE PUSH1 0x1 ADD PUSH2 0xD00 JUMP JUMPDEST POP SWAP1 JUMP JUMPDEST PUSH1 0x0 PUSH1 0x20 DUP3 DUP5 SUB SLT ISZERO PUSH2 0xD2A JUMPI PUSH1 0x0 DUP1 REVERT JUMPDEST DUP2 CALLDATALOAD PUSH1 0x1 PUSH1 0x1 PUSH1 0xE0 SHL SUB NOT DUP2 AND DUP2 EQ PUSH2 0xD42 JUMPI PUSH1 0x0 DUP1 REVERT JUMPDEST SWAP4 SWAP3 POP POP POP JUMP JUMPDEST DUP1 CALLDATALOAD PUSH1 0x1 PUSH1 0x1 PUSH1 0xA0 SHL SUB DUP2 AND DUP2 EQ PUSH2 0xD60 JUMPI PUSH1 0x0 DUP1 REVERT JUMPDEST SWAP2 SWAP1 POP JUMP JUMPDEST PUSH1 0x0 PUSH1 0x20 DUP3 DUP5 SUB SLT ISZERO PUSH2 0xD77 JUMPI PUSH1 0x0 DUP1 REVERT JUMPDEST PUSH2 0xD42 DUP3 PUSH2 0xD49 JUMP JUMPDEST PUSH1 0x0 DUP1 PUSH1 0x0 PUSH1 0x60 DUP5 DUP7 SUB SLT ISZERO PUSH2 0xD95 JUMPI PUSH1 0x0 DUP1 REVERT JUMPDEST PUSH2 0xD9E DUP5 PUSH2 0xD49 JUMP JUMPDEST SWAP6 PUSH1 0x20 DUP6 ADD CALLDATALOAD SWAP6 POP PUSH1 0x40 SWAP1 SWAP5 ADD CALLDATALOAD SWAP4 SWAP3 POP POP POP JUMP JUMPDEST PUSH4 0x4E487B71 PUSH1 0xE0 SHL PUSH1 0x0 MSTORE PUSH1 0x41 PUSH1 0x4 MSTORE PUSH1 0x24 PUSH1 0x0 REVERT JUMPDEST PUSH1 0x40 MLOAD PUSH1 0x1F DUP3 ADD PUSH1 0x1F NOT AND DUP2 ADD PUSH8 0xFFFFFFFFFFFFFFFF DUP2 GT DUP3 DUP3 LT OR ISZERO PUSH2 0xDF2 JUMPI PUSH2 0xDF2 PUSH2 0xDB3 JUMP JUMPDEST PUSH1 0x40 MSTORE SWAP2 SWAP1 POP JUMP JUMPDEST PUSH1 0x0 PUSH8 0xFFFFFFFFFFFFFFFF DUP3 GT ISZERO PUSH2 0xE14 JUMPI PUSH2 0xE14 PUSH2 0xDB3 JUMP JUMPDEST POP PUSH1 0x5 SHL PUSH1 0x20 ADD SWAP1 JUMP JUMPDEST PUSH1 0x0 DUP3 PUSH1 0x1F DUP4 ADD SLT PUSH2 0xE2F JUMPI PUSH1 0x0 DUP1 REVERT JUMPDEST DUP2 CALLDATALOAD PUSH1 0x20 PUSH2 0xE44 PUSH2 0xE3F DUP4 PUSH2 0xDFA JUMP JUMPDEST PUSH2 0xDC9 JUMP JUMPDEST DUP3 DUP2 MSTORE PUSH1 0x5 SWAP3 SWAP1 SWAP3 SHL DUP5 ADD DUP2 ADD SWAP2 DUP2 DUP2 ADD SWAP1 DUP7 DUP5 GT ISZERO PUSH2 0xE63 JUMPI PUSH1 0x0 DUP1 REVERT JUMPDEST DUP3 DUP7 ADD JUMPDEST DUP5 DUP2 LT ISZERO PUSH2 0xE85 JUMPI PUSH2 0xE78 DUP2 PUSH2 0xD49 JUMP JUMPDEST DUP4 MSTORE SWAP2 DUP4 ADD SWAP2 DUP4 ADD PUSH2 0xE67 JUMP JUMPDEST POP SWAP7 SWAP6 POP POP POP POP POP POP JUMP JUMPDEST DUP1 CALLDATALOAD PUSH4 0xFFFFFFFF DUP2 AND DUP2 EQ PUSH2 0xD60 JUMPI PUSH1 0x0 DUP1 REVERT JUMPDEST PUSH1 0x0 DUP1 PUSH1 0x40 DUP4 DUP6 SUB SLT ISZERO PUSH2 0xEB7 JUMPI PUSH1 0x0 DUP1 REVERT JUMPDEST DUP3 CALLDATALOAD PUSH8 0xFFFFFFFFFFFFFFFF DUP1 DUP3 GT ISZERO PUSH2 0xECF JUMPI PUSH1 0x0 DUP1 REVERT JUMPDEST PUSH2 0xEDB DUP7 DUP4 DUP8 ADD PUSH2 0xE1E JUMP JUMPDEST SWAP4 POP PUSH1 0x20 SWAP2 POP DUP2 DUP6 ADD CALLDATALOAD DUP2 DUP2 GT ISZERO PUSH2 0xEF2 JUMPI PUSH1 0x0 DUP1 REVERT JUMPDEST DUP6 ADD SWAP1 POP PUSH1 0x1F DUP2 ADD DUP7 SGT PUSH2 0xF05 JUMPI PUSH1 0x0 DUP1 REVERT JUMPDEST DUP1 CALLDATALOAD PUSH2 0xF13 PUSH2 0xE3F DUP3 PUSH2 0xDFA JUMP JUMPDEST DUP2 DUP2 MSTORE PUSH1 0x5 SWAP2 SWAP1 SWAP2 SHL DUP3 ADD DUP4 ADD SWAP1 DUP4 DUP2 ADD SWAP1 DUP9 DUP4 GT ISZERO PUSH2 0xF32 JUMPI PUSH1 0x0 DUP1 REVERT JUMPDEST SWAP3 DUP5 ADD SWAP3 JUMPDEST DUP3 DUP5 LT ISZERO PUSH2 0xF57 JUMPI PUSH2 0xF48 DUP5 PUSH2 0xE90 JUMP JUMPDEST DUP3 MSTORE SWAP3 DUP5 ADD SWAP3 SWAP1 DUP5 ADD SWAP1 PUSH2 0xF37 JUMP JUMPDEST DUP1 SWAP6 POP POP POP POP POP POP SWAP3 POP SWAP3 SWAP1 POP JUMP JUMPDEST PUSH1 0x0 DUP3 PUSH1 0x1F DUP4 ADD SLT PUSH2 0xF77 JUMPI PUSH1 0x0 DUP1 REVERT JUMPDEST DUP2 CALLDATALOAD PUSH1 0x20 PUSH2 0xF87 PUSH2 0xE3F DUP4 PUSH2 0xDFA JUMP JUMPDEST DUP3 DUP2 MSTORE PUSH1 0x5 SWAP3 SWAP1 SWAP3 SHL DUP5 ADD DUP2 ADD SWAP2 DUP2 DUP2 ADD SWAP1 DUP7 DUP5 GT ISZERO PUSH2 0xFA6 JUMPI PUSH1 0x0 DUP1 REVERT JUMPDEST DUP3 DUP7 ADD JUMPDEST DUP5 DUP2 LT ISZERO PUSH2 0xE85 JUMPI DUP1 CALLDATALOAD DUP4 MSTORE SWAP2 DUP4 ADD SWAP2 DUP4 ADD PUSH2 0xFAA JUMP JUMPDEST PUSH1 0x0 DUP1 PUSH1 0x0 PUSH1 0x60 DUP5 DUP7 SUB SLT ISZERO PUSH2 0xFD6 JUMPI PUSH1 0x0 DUP1 REVERT JUMPDEST PUSH2 0xFDF DUP5 PUSH2 0xD49 JUMP JUMPDEST SWAP3 POP PUSH1 0x20 DUP5 ADD CALLDATALOAD PUSH8 0xFFFFFFFFFFFFFFFF DUP1 DUP3 GT ISZERO PUSH2 0xFFC JUMPI PUSH1 0x0 DUP1 REVERT JUMPDEST PUSH2 0x1008 DUP8 DUP4 DUP9 ADD PUSH2 0xF66 JUMP JUMPDEST SWAP4 POP PUSH1 0x40 DUP7 ADD CALLDATALOAD SWAP2 POP DUP1 DUP3 GT ISZERO PUSH2 0x101E JUMPI PUSH1 0x0 DUP1 REVERT JUMPDEST POP PUSH2 0x102B DUP7 DUP3 DUP8 ADD PUSH2 0xF66 JUMP JUMPDEST SWAP2 POP POP SWAP3 POP SWAP3 POP SWAP3 JUMP JUMPDEST PUSH1 0x0 DUP3 PUSH1 0x1F DUP4 ADD SLT PUSH2 0x1046 JUMPI PUSH1 0x0 DUP1 REVERT JUMPDEST DUP2 CALLDATALOAD PUSH8 0xFFFFFFFFFFFFFFFF DUP2 GT ISZERO PUSH2 0x1060 JUMPI PUSH2 0x1060 PUSH2 0xDB3 JUMP JUMPDEST PUSH2 0x1073 PUSH1 0x1F DUP3 ADD PUSH1 0x1F NOT AND PUSH1 0x20 ADD PUSH2 0xDC9 JUMP JUMPDEST DUP2 DUP2 MSTORE DUP5 PUSH1 0x20 DUP4 DUP7 ADD ADD GT ISZERO PUSH2 0x1088 JUMPI PUSH1 0x0 DUP1 REVERT JUMPDEST DUP2 PUSH1 0x20 DUP6 ADD PUSH1 0x20 DUP4 ADD CALLDATACOPY PUSH1 0x0 SWAP2 DUP2 ADD PUSH1 0x20 ADD SWAP2 SWAP1 SWAP2 MSTORE SWAP4 SWAP3 POP POP POP JUMP JUMPDEST PUSH1 0x0 DUP1 PUSH1 0x0 DUP1 PUSH1 0x0 PUSH1 0xA0 DUP7 DUP9 SUB SLT ISZERO PUSH2 0x10BD JUMPI PUSH1 0x0 DUP1 REVERT JUMPDEST PUSH2 0x10C6 DUP7 PUSH2 0xD49 JUMP JUMPDEST SWAP5 POP PUSH2 0x10D4 PUSH1 0x20 DUP8 ADD PUSH2 0xD49 JUMP JUMPDEST SWAP4 POP PUSH1 0x40 DUP7 ADD CALLDATALOAD PUSH8 0xFFFFFFFFFFFFFFFF DUP1 DUP3 GT ISZERO PUSH2 0x10F1 JUMPI PUSH1 0x0 DUP1 REVERT JUMPDEST PUSH2 0x10FD DUP10 DUP4 DUP11 ADD PUSH2 0xF66 JUMP JUMPDEST SWAP5 POP PUSH1 0x60 DUP9 ADD CALLDATALOAD SWAP2 POP DUP1 DUP3 GT ISZERO PUSH2 0x1113 JUMPI PUSH1 0x0 DUP1 REVERT JUMPDEST PUSH2 0x111F DUP10 DUP4 DUP11 ADD PUSH2 0xF66 JUMP JUMPDEST SWAP4 POP PUSH1 0x80 DUP9 ADD CALLDATALOAD SWAP2 POP DUP1 DUP3 GT ISZERO PUSH2 0x1135 JUMPI PUSH1 0x0 DUP1 REVERT JUMPDEST POP PUSH2 0x1142 DUP9 DUP3 DUP10 ADD PUSH2 0x1035 JUMP JUMPDEST SWAP2 POP POP SWAP3 SWAP6 POP SWAP3 SWAP6 SWAP1 SWAP4 POP JUMP JUMPDEST PUSH1 0x0 DUP1 PUSH1 0x40 DUP4 DUP6 SUB SLT ISZERO PUSH2 0x1162 JUMPI PUSH1 0x0 DUP1 REVERT JUMPDEST DUP3 CALLDATALOAD PUSH8 0xFFFFFFFFFFFFFFFF DUP2 GT ISZERO PUSH2 0x1179 JUMPI PUSH1 0x0 DUP1 REVERT JUMPDEST PUSH2 0x1185 DUP6 DUP3 DUP7 ADD PUSH2 0xE1E JUMP JUMPDEST SWAP3 POP POP PUSH2 0x1194 PUSH1 0x20 DUP5 ADD PUSH2 0xE90 JUMP JUMPDEST SWAP1 POP SWAP3 POP SWAP3 SWAP1 POP JUMP JUMPDEST PUSH1 0x0 DUP1 PUSH1 0x0 DUP1 PUSH1 0x0 PUSH1 0xA0 DUP7 DUP9 SUB SLT ISZERO PUSH2 0x11B5 JUMPI PUSH1 0x0 DUP1 REVERT JUMPDEST PUSH2 0x11BE DUP7 PUSH2 0xD49 JUMP JUMPDEST SWAP5 POP PUSH2 0x11CC PUSH1 0x20 DUP8 ADD PUSH2 0xD49 JUMP JUMPDEST SWAP4 POP PUSH1 0x40 DUP7 ADD CALLDATALOAD SWAP3 POP PUSH1 0x60 DUP7 ADD CALLDATALOAD SWAP2 POP PUSH1 0x80 DUP7 ADD CALLDATALOAD PUSH8 0xFFFFFFFFFFFFFFFF DUP2 GT ISZERO PUSH2 0x11F6 JUMPI PUSH1 0x0 DUP1 REVERT JUMPDEST PUSH2 0x1142 DUP9 DUP3 DUP10 ADD PUSH2 0x1035 JUMP JUMPDEST PUSH4 0x4E487B71 PUSH1 0xE0 SHL PUSH1 0x0 MSTORE PUSH1 0x11 PUSH1 0x4 MSTORE PUSH1 0x24 PUSH1 0x0 REVERT JUMPDEST PUSH1 0x0 DUP3 NOT DUP3 GT ISZERO PUSH2 0x122B JUMPI PUSH2 0x122B PUSH2 0x1202 JUMP JUMPDEST POP ADD SWAP1 JUMP JUMPDEST PUSH1 0x0 DUP3 DUP3 LT ISZERO PUSH2 0x1242 JUMPI PUSH2 0x1242 PUSH2 0x1202 JUMP JUMPDEST POP SUB SWAP1 JUMP JUMPDEST PUSH4 0x4E487B71 PUSH1 0xE0 SHL PUSH1 0x0 MSTORE PUSH1 0x32 PUSH1 0x4 MSTORE PUSH1 0x24 PUSH1 0x0 REVERT JUMPDEST PUSH1 0x0 DUP2 PUSH2 0x126C JUMPI PUSH2 0x126C PUSH2 0x1202 JUMP JUMPDEST POP PUSH1 0x0 NOT ADD SWAP1 JUMP JUMPDEST PUSH1 0x0 DUP2 MLOAD DUP1 DUP5 MSTORE PUSH1 0x20 DUP1 DUP6 ADD SWAP5 POP DUP1 DUP5 ADD PUSH1 0x0 JUMPDEST DUP4 DUP2 LT ISZERO PUSH2 0x12A4 JUMPI DUP2 MLOAD DUP8 MSTORE SWAP6 DUP3 ADD SWAP6 SWAP1 DUP3 ADD SWAP1 PUSH1 0x1 ADD PUSH2 0x1288 JUMP JUMPDEST POP SWAP5 SWAP6 SWAP5 POP POP POP POP POP JUMP JUMPDEST PUSH1 0x1 PUSH1 0x1 PUSH1 0xA0 SHL SUB DUP6 DUP2 AND DUP3 MSTORE DUP5 AND PUSH1 0x20 DUP3 ADD MSTORE PUSH1 0xA0 PUSH1 0x40 DUP3 ADD DUP2 SWAP1 MSTORE PUSH1 0x0 SWAP1 PUSH2 0x12DB SWAP1 DUP4 ADD DUP6 PUSH2 0x1274 JUMP JUMPDEST DUP3 DUP2 SUB PUSH1 0x60 DUP5 ADD MSTORE PUSH2 0x12ED DUP2 DUP6 PUSH2 0x1274 JUMP JUMPDEST DUP4 DUP2 SUB PUSH1 0x80 SWAP1 SWAP5 ADD SWAP4 SWAP1 SWAP4 MSTORE POP POP PUSH1 0x0 DUP2 MSTORE PUSH1 0x20 ADD SWAP5 SWAP4 POP POP POP POP JUMP JUMPDEST PUSH1 0x0 PUSH4 0xFFFFFFFF DUP1 DUP4 AND DUP2 DUP2 SUB PUSH2 0x1323 JUMPI PUSH2 0x1323 PUSH2 0x1202 JUMP JUMPDEST PUSH1 0x1 ADD SWAP4 SWAP3 POP POP POP JUMP JUMPDEST PUSH1 0x20 DUP1 DUP3 MSTORE DUP2 DUP2 ADD MSTORE PUSH32 0x4F776E61626C653A2063616C6C6572206973206E6F7420746865206F776E6572 PUSH1 0x40 DUP3 ADD MSTORE PUSH1 0x60 ADD SWAP1 JUMP JUMPDEST PUSH1 0x0 PUSH1 0x1 DUP3 ADD PUSH2 0x1374 JUMPI PUSH2 0x1374 PUSH2 0x1202 JUMP JUMPDEST POP PUSH1 0x1 ADD SWAP1 JUMP JUMPDEST PUSH1 0x1 PUSH1 0x1 PUSH1 0xA0 SHL SUB DUP6 DUP2 AND DUP3 MSTORE DUP5 AND PUSH1 0x20 DUP1 DUP4 ADD SWAP2 SWAP1 SWAP2 MSTORE PUSH1 0xA0 PUSH1 0x40 DUP4 ADD DUP2 SWAP1 MSTORE DUP5 SLOAD SWAP1 DUP4 ADD DUP2 SWAP1 MSTORE PUSH1 0x0 DUP6 DUP2 MSTORE DUP3 DUP2 KECCAK256 SWAP1 SWAP3 SWAP1 SWAP2 PUSH1 0xC0 DUP6 ADD SWAP2 SWAP1 DUP5 JUMPDEST DUP2 DUP2 LT ISZERO PUSH2 0x13D4 JUMPI DUP5 SLOAD DUP5 MSTORE PUSH1 0x1 SWAP5 DUP6 ADD SWAP5 SWAP4 DUP4 ADD SWAP4 ADD PUSH2 0x13B8 JUMP JUMPDEST POP POP DUP5 DUP3 SUB PUSH1 0x60 DUP7 ADD MSTORE PUSH2 0x13E8 DUP3 DUP8 PUSH2 0x1274 JUMP JUMPDEST DUP6 DUP2 SUB PUSH1 0x80 SWAP1 SWAP7 ADD SWAP6 SWAP1 SWAP6 MSTORE PUSH1 0x0 DUP6 MSTORE SWAP1 SWAP4 ADD SWAP8 SWAP7 POP POP POP POP POP POP POP JUMP JUMPDEST PUSH4 0x4E487B71 PUSH1 0xE0 SHL PUSH1 0x0 MSTORE PUSH1 0x31 PUSH1 0x4 MSTORE PUSH1 0x24 PUSH1 0x0 REVERT INVALID LOG2 PUSH5 0x6970667358 0x22 SLT KECCAK256 0xE7 RETURNDATASIZE 0xC1 0xB3 STATICCALL GASPRICE PUSH3 0x8BC2D3 0xDD EXTCODEHASH DUP2 SWAP15 0xEB 0xAC 0xF9 0xDD 0x29 0x5D PUSH24 0x9E623B98CB1B38A4A4C96E64736F6C634300080D00330000 "
				},
				"gasEstimates": {
					"creation": {
						"codeDepositCost": "1040400",
						"executionCost": "26921",
						"totalCost": "1067321"
					},
					"external": {
						"addNFTBatch(address,uint256[],uint256[])": "infinite",
						"addNftBatchWithNumber(address,uint256,uint256)": "infinite",
						"appendWhiteList(address[],uint32[])": "infinite",
						"appendWhiteListWithNumber(address[],uint32)": "infinite",
						"mintable(address)": "2597",
						"onERC1155BatchReceived(address,address,uint256[],uint256[],bytes)": "infinite",
						"onERC1155Received(address,address,uint256,uint256,bytes)": "infinite",
						"owner()": "2346",
						"renounceOwnership()": "28137",
						"supportsInterface(bytes4)": "450",
						"transferOwnership(address)": "28397",
						"urgentWithdraw(address)": "infinite",
						"whiteList(address)": "2580",
						"withdraw(address)": "infinite"
					}
				},
				"methodIdentifiers": {
					"addNFTBatch(address,uint256[],uint256[])": "63c66891",
					"addNftBatchWithNumber(address,uint256,uint256)": "4b02218f",
					"appendWhiteList(address[],uint32[])": "5b16e22d",
					"appendWhiteListWithNumber(address[],uint32)": "e2a79809",
					"mintable(address)": "59441eae",
					"onERC1155BatchReceived(address,address,uint256[],uint256[],bytes)": "bc197c81",
					"onERC1155Received(address,address,uint256,uint256,bytes)": "f23a6e61",
					"owner()": "8da5cb5b",
					"renounceOwnership()": "715018a6",
					"supportsInterface(bytes4)": "01ffc9a7",
					"transferOwnership(address)": "f2fde38b",
					"urgentWithdraw(address)": "c4091443",
					"whiteList(address)": "372c12b1",
					"withdraw(address)": "51cff8d9"
				}
			},
			"storageLayout": {
				"storage": [
					{
						"astId": 1239,
						"contract": "smart_contract/ex/MGCNftAirdrop.sol:NFTAirdrop",
						"label": "_owner",
						"offset": 0,
						"slot": "0",
						"type": "t_address"
					},
					{
						"astId": 856,
						"contract": "smart_contract/ex/MGCNftAirdrop.sol:NFTAirdrop",
						"label": "whiteList",
						"offset": 0,
						"slot": "1",
						"type": "t_mapping(t_address,t_uint32)"
					},
					{
						"astId": 861,
						"contract": "smart_contract/ex/MGCNftAirdrop.sol:NFTAirdrop",
						"label": "nftIds",
						"offset": 0,
						"slot": "2",
						"type": "t_mapping(t_address,t_array(t_uint256)dyn_storage)"
					}
				],
				"types": {
					"t_address": {
						"encoding": "inplace",
						"label": "address",
						"numberOfBytes": "20"
					},
					"t_array(t_uint256)dyn_storage": {
						"base": "t_uint256",
						"encoding": "dynamic_array",
						"label": "uint256[]",
						"numberOfBytes": "32"
					},
					"t_mapping(t_address,t_array(t_uint256)dyn_storage)": {
						"encoding": "mapping",
						"key": "t_address",
						"label": "mapping(address => uint256[])",
						"numberOfBytes": "32",
						"value": "t_array(t_uint256)dyn_storage"
					},
					"t_mapping(t_address,t_uint32)": {
						"encoding": "mapping",
						"key": "t_address",
						"label": "mapping(address => uint32)",
						"numberOfBytes": "32",
						"value": "t_uint32"
					},
					"t_uint256": {
						"encoding": "inplace",
						"label": "uint256",
						"numberOfBytes": "32"
					},
					"t_uint32": {
						"encoding": "inplace",
						"label": "uint32",
						"numberOfBytes": "4"
					}
				}
			},
			"userdoc": {
				"kind": "user",
				"methods": {},
				"version": 1
			}
		}
	}
}