{
	"ex/BPresell.sol": {
		"BabyPresell": {
			"abi": [
				{
					"inputs": [
						{
							"internalType": "uint64",
							"name": "_startAt",
							"type": "uint64"
						},
						{
							"internalType": "uint64",
							"name": "_endAt",
							"type": "uint64"
						}
					],
					"stateMutability": "nonpayable",
					"type": "constructor"
				},
				{
					"anonymous": false,
					"inputs": [
						{
							"indexed": true,
							"internalType": "address",
							"name": "user",
							"type": "address"
						},
						{
							"indexed": false,
							"internalType": "uint256",
							"name": "umount",
							"type": "uint256"
						},
						{
							"indexed": false,
							"internalType": "uint256",
							"name": "coinamount",
							"type": "uint256"
						}
					],
					"name": "BuyTokens",
					"type": "event"
				},
				{
					"anonymous": false,
					"inputs": [
						{
							"indexed": true,
							"internalType": "address",
							"name": "previousOwner",
							"type": "address"
						},
						{
							"indexed": true,
							"internalType": "address",
							"name": "newOwner",
							"type": "address"
						}
					],
					"name": "OwnershipTransferred",
					"type": "event"
				},
				{
					"anonymous": false,
					"inputs": [
						{
							"indexed": true,
							"internalType": "address",
							"name": "user",
							"type": "address"
						},
						{
							"indexed": false,
							"internalType": "uint256",
							"name": "coinamount",
							"type": "uint256"
						}
					],
					"name": "WithdrawTokens",
					"type": "event"
				},
				{
					"inputs": [],
					"name": "buyTokens",
					"outputs": [],
					"stateMutability": "nonpayable",
					"type": "function"
				},
				{
					"inputs": [
						{
							"internalType": "address",
							"name": "account",
							"type": "address"
						},
						{
							"internalType": "bool",
							"name": "state",
							"type": "bool"
						}
					],
					"name": "changeWhiteList",
					"outputs": [],
					"stateMutability": "nonpayable",
					"type": "function"
				},
				{
					"inputs": [
						{
							"internalType": "address[]",
							"name": "accounts",
							"type": "address[]"
						},
						{
							"internalType": "bool[]",
							"name": "states",
							"type": "bool[]"
						}
					],
					"name": "changeWhiteListBatch",
					"outputs": [],
					"stateMutability": "nonpayable",
					"type": "function"
				},
				{
					"inputs": [],
					"name": "counter",
					"outputs": [
						{
							"internalType": "uint32",
							"name": "",
							"type": "uint32"
						}
					],
					"stateMutability": "view",
					"type": "function"
				},
				{
					"inputs": [],
					"name": "disableWhiteList",
					"outputs": [
						{
							"internalType": "bool",
							"name": "",
							"type": "bool"
						}
					],
					"stateMutability": "view",
					"type": "function"
				},
				{
					"inputs": [],
					"name": "emergencyWithdraw",
					"outputs": [],
					"stateMutability": "nonpayable",
					"type": "function"
				},
				{
					"inputs": [],
					"name": "endAt",
					"outputs": [
						{
							"internalType": "uint64",
							"name": "",
							"type": "uint64"
						}
					],
					"stateMutability": "view",
					"type": "function"
				},
				{
					"inputs": [
						{
							"internalType": "uint256",
							"name": "amount",
							"type": "uint256"
						}
					],
					"name": "exigencyWithdrawToken",
					"outputs": [],
					"stateMutability": "nonpayable",
					"type": "function"
				},
				{
					"inputs": [],
					"name": "getEndTime",
					"outputs": [
						{
							"internalType": "uint64",
							"name": "",
							"type": "uint64"
						}
					],
					"stateMutability": "view",
					"type": "function"
				},
				{
					"inputs": [],
					"name": "getPreSellCoinAmount",
					"outputs": [
						{
							"internalType": "uint256",
							"name": "",
							"type": "uint256"
						}
					],
					"stateMutability": "view",
					"type": "function"
				},
				{
					"inputs": [],
					"name": "getPreSellCounter",
					"outputs": [
						{
							"internalType": "uint64",
							"name": "",
							"type": "uint64"
						}
					],
					"stateMutability": "view",
					"type": "function"
				},
				{
					"inputs": [],
					"name": "getPresellMax",
					"outputs": [
						{
							"internalType": "uint32",
							"name": "",
							"type": "uint32"
						}
					],
					"stateMutability": "view",
					"type": "function"
				},
				{
					"inputs": [],
					"name": "getStartTime",
					"outputs": [
						{
							"internalType": "uint64",
							"name": "",
							"type": "uint64"
						}
					],
					"stateMutability": "view",
					"type": "function"
				},
				{
					"inputs": [],
					"name": "getUsdtAmount",
					"outputs": [
						{
							"internalType": "uint256",
							"name": "",
							"type": "uint256"
						}
					],
					"stateMutability": "view",
					"type": "function"
				},
				{
					"inputs": [
						{
							"internalType": "address",
							"name": "user",
							"type": "address"
						}
					],
					"name": "getUserHasBuy",
					"outputs": [
						{
							"internalType": "bool",
							"name": "",
							"type": "bool"
						}
					],
					"stateMutability": "view",
					"type": "function"
				},
				{
					"inputs": [
						{
							"internalType": "address",
							"name": "user",
							"type": "address"
						}
					],
					"name": "getUserPreSellCoinAmount",
					"outputs": [
						{
							"internalType": "uint256",
							"name": "",
							"type": "uint256"
						}
					],
					"stateMutability": "view",
					"type": "function"
				},
				{
					"inputs": [],
					"name": "getWithdrawCounter",
					"outputs": [
						{
							"internalType": "uint64",
							"name": "",
							"type": "uint64"
						}
					],
					"stateMutability": "view",
					"type": "function"
				},
				{
					"inputs": [
						{
							"internalType": "address",
							"name": "",
							"type": "address"
						}
					],
					"name": "hasBuy",
					"outputs": [
						{
							"internalType": "bool",
							"name": "",
							"type": "bool"
						}
					],
					"stateMutability": "view",
					"type": "function"
				},
				{
					"inputs": [],
					"name": "marketAddress",
					"outputs": [
						{
							"internalType": "address",
							"name": "",
							"type": "address"
						}
					],
					"stateMutability": "view",
					"type": "function"
				},
				{
					"inputs": [],
					"name": "owner",
					"outputs": [
						{
							"internalType": "address",
							"name": "",
							"type": "address"
						}
					],
					"stateMutability": "view",
					"type": "function"
				},
				{
					"inputs": [],
					"name": "preMax",
					"outputs": [
						{
							"internalType": "uint32",
							"name": "",
							"type": "uint32"
						}
					],
					"stateMutability": "view",
					"type": "function"
				},
				{
					"inputs": [],
					"name": "preSellCoinPreAmount",
					"outputs": [
						{
							"internalType": "uint256",
							"name": "",
							"type": "uint256"
						}
					],
					"stateMutability": "view",
					"type": "function"
				},
				{
					"inputs": [],
					"name": "presellTokenMintAddress",
					"outputs": [
						{
							"internalType": "address",
							"name": "",
							"type": "address"
						}
					],
					"stateMutability": "view",
					"type": "function"
				},
				{
					"inputs": [],
					"name": "renounceOwnership",
					"outputs": [],
					"stateMutability": "nonpayable",
					"type": "function"
				},
				{
					"inputs": [],
					"name": "sellToken",
					"outputs": [
						{
							"internalType": "contract IERC20",
							"name": "",
							"type": "address"
						}
					],
					"stateMutability": "view",
					"type": "function"
				},
				{
					"inputs": [
						{
							"internalType": "uint256",
							"name": "newAmount",
							"type": "uint256"
						}
					],
					"name": "setAmount",
					"outputs": [],
					"stateMutability": "nonpayable",
					"type": "function"
				},
				{
					"inputs": [
						{
							"internalType": "bool",
							"name": "op",
							"type": "bool"
						}
					],
					"name": "setDisableWhiteList",
					"outputs": [],
					"stateMutability": "nonpayable",
					"type": "function"
				},
				{
					"inputs": [
						{
							"internalType": "address",
							"name": "newAddress",
							"type": "address"
						}
					],
					"name": "setMarketAddress",
					"outputs": [],
					"stateMutability": "nonpayable",
					"type": "function"
				},
				{
					"inputs": [
						{
							"internalType": "uint32",
							"name": "amount",
							"type": "uint32"
						}
					],
					"name": "setPresellMax",
					"outputs": [],
					"stateMutability": "nonpayable",
					"type": "function"
				},
				{
					"inputs": [
						{
							"internalType": "uint64",
							"name": "start",
							"type": "uint64"
						},
						{
							"internalType": "uint64",
							"name": "end",
							"type": "uint64"
						}
					],
					"name": "setTime",
					"outputs": [],
					"stateMutability": "nonpayable",
					"type": "function"
				},
				{
					"inputs": [],
					"name": "startAt",
					"outputs": [
						{
							"internalType": "uint64",
							"name": "",
							"type": "uint64"
						}
					],
					"stateMutability": "view",
					"type": "function"
				},
				{
					"inputs": [
						{
							"internalType": "address",
							"name": "newOwner",
							"type": "address"
						}
					],
					"name": "transferOwnership",
					"outputs": [],
					"stateMutability": "nonpayable",
					"type": "function"
				},
				{
					"inputs": [],
					"name": "usdtAmount",
					"outputs": [
						{
							"internalType": "uint256",
							"name": "",
							"type": "uint256"
						}
					],
					"stateMutability": "view",
					"type": "function"
				},
				{
					"inputs": [],
					"name": "usdtMintAddress",
					"outputs": [
						{
							"internalType": "address",
							"name": "",
							"type": "address"
						}
					],
					"stateMutability": "view",
					"type": "function"
				},
				{
					"inputs": [],
					"name": "usdtToken",
					"outputs": [
						{
							"internalType": "contract IERC20",
							"name": "",
							"type": "address"
						}
					],
					"stateMutability": "view",
					"type": "function"
				},
				{
					"inputs": [
						{
							"internalType": "address",
							"name": "",
							"type": "address"
						}
					],
					"name": "userPresellBalanceMap",
					"outputs": [
						{
							"internalType": "uint256",
							"name": "",
							"type": "uint256"
						}
					],
					"stateMutability": "view",
					"type": "function"
				},
				{
					"inputs": [
						{
							"internalType": "address",
							"name": "",
							"type": "address"
						}
					],
					"name": "whiteList",
					"outputs": [
						{
							"internalType": "bool",
							"name": "",
							"type": "bool"
						}
					],
					"stateMutability": "view",
					"type": "function"
				},
				{
					"inputs": [],
					"name": "withdrawCounter",
					"outputs": [
						{
							"internalType": "uint32",
							"name": "",
							"type": "uint32"
						}
					],
					"stateMutability": "view",
					"type": "function"
				},
				{
					"inputs": [],
					"name": "withdrawPresellTokens",
					"outputs": [],
					"stateMutability": "nonpayable",
					"type": "function"
				}
			],
			"devdoc": {
				"kind": "dev",
				"methods": {
					"owner()": {
						"details": "Returns the address of the current owner."
					},
					"renounceOwnership()": {
						"details": "Leaves the contract without owner. It will not be possible to call `onlyOwner` functions anymore. Can only be called by the current owner. NOTE: Renouncing ownership will leave the contract without an owner, thereby removing any functionality that is only available to the owner."
					},
					"transferOwnership(address)": {
						"details": "Transfers ownership of the contract to a new account (`newOwner`). Can only be called by the current owner."
					}
				},
				"version": 1
			},
			"evm": {
				"assembly": "    /* \"ex/BPresell.sol\":2649:7872  contract BabyPresell is Ownable {... */\n  mstore(0x40, 0xc0)\n    /* \"ex/BPresell.sol\":2810:2885  address public usdtMintAddress = 0x55d398326f99059fF775485246999027B3197955 */\n  0x01\n  dup1\n  sload\n  not(sub(shl(0xa0, 0x01), 0x01))\n  swap1\n  dup2\n  and\n    /* \"ex/BPresell.sol\":2843:2885  0x55d398326f99059fF775485246999027B3197955 */\n  0x55d398326f99059ff775485246999027b3197955\n    /* \"ex/BPresell.sol\":2810:2885  address public usdtMintAddress = 0x55d398326f99059fF775485246999027B3197955 */\n  or\n  swap1\n  swap2\n  sstore\n    /* \"ex/BPresell.sol\":2892:2975  address public presellTokenMintAddress = 0xA3247B33baA9eA15b699C77237d5B16f5CFD822f */\n  0x02\n  dup1\n  sload\n  dup3\n  and\n    /* \"ex/BPresell.sol\":2933:2975  0xA3247B33baA9eA15b699C77237d5B16f5CFD822f */\n  0xa3247b33baa9ea15b699c77237d5b16f5cfd822f\n    /* \"ex/BPresell.sol\":2892:2975  address public presellTokenMintAddress = 0xA3247B33baA9eA15b699C77237d5B16f5CFD822f */\n  or\n  swap1\n  sstore\n    /* \"ex/BPresell.sol\":2982:3055  address public marketAddress = 0x3Ee8E26053649b3cF811625Dcd2Ade2b8eB81F47 */\n  0x03\n  dup1\n  sload\n  swap1\n  swap2\n  and\n    /* \"ex/BPresell.sol\":3013:3055  0x3Ee8E26053649b3cF811625Dcd2Ade2b8eB81F47 */\n  0x3ee8e26053649b3cf811625dcd2ade2b8eb81f47\n    /* \"ex/BPresell.sol\":2982:3055  address public marketAddress = 0x3Ee8E26053649b3cF811625Dcd2Ade2b8eB81F47 */\n  or\n  swap1\n  sstore\n    /* \"ex/BPresell.sol\":3138:3150  1 * 10 ** 18 */\n  0x0de0b6b3a7640000\n    /* \"ex/BPresell.sol\":3110:3150  uint256 public usdtAmount = 1 * 10 ** 18 */\n  0x04\n  sstore\n    /* \"ex/BPresell.sol\":3195:3210  4500 * 10 ** 18 */\n  0xf3f20b8dfa69d00000\n    /* \"ex/BPresell.sol\":3157:3210  uint256 public preSellCoinPreAmount = 4500 * 10 ** 18 */\n  0x05\n  sstore\n    /* \"ex/BPresell.sol\":3331:3357  uint32 public preMax = 220 */\n  0x06\n  dup1\n  sload\n  0xdc0000000000000000\n  not(shl(0x40, 0xffffffff))\n  swap1\n  swap2\n  and\n  or\n  swap1\n  sstore\n    /* \"ex/BPresell.sol\":3849:4210  constructor(... */\n  callvalue\n  dup1\n  iszero\n  tag_1\n  jumpi\n  0x00\n  dup1\n  revert\ntag_1:\n  pop\n  mload(0x40)\n  sub(codesize, bytecodeSize)\n  dup1\n  bytecodeSize\n  dup4\n  codecopy\n  dup2\n  add\n  0x40\n  dup2\n  swap1\n  mstore\n  tag_2\n  swap2\n  tag_3\n  jump\t// in\ntag_2:\n    /* \"ex/BPresell.sol\":1060:1092  _transferOwnership(_msgSender()) */\n  tag_7\n    /* \"ex/BPresell.sol\":635:645  msg.sender */\n  caller\n    /* \"ex/BPresell.sol\":1060:1078  _transferOwnership */\n  tag_10\n    /* \"ex/BPresell.sol\":1060:1092  _transferOwnership(_msgSender()) */\n  jump\t// in\ntag_7:\n    /* \"ex/BPresell.sol\":3953:3968  block.timestamp */\n  timestamp\n    /* \"ex/BPresell.sol\":3941:3949  _startAt */\n  dup3\n  sub(shl(0x40, 0x01), 0x01)\n    /* \"ex/BPresell.sol\":3941:3968  _startAt >= block.timestamp */\n  and\n  lt\n  iszero\n    /* \"ex/BPresell.sol\":3933:3987  require(_startAt >= block.timestamp, \"start at < now\") */\n  tag_12\n  jumpi\n  mload(0x40)\n  shl(0xe5, 0x461bcd)\n  dup2\n  mstore\n    /* \"#utility.yul\":690:692   */\n  0x20\n    /* \"ex/BPresell.sol\":3933:3987  require(_startAt >= block.timestamp, \"start at < now\") */\n  0x04\n  dup3\n  add\n    /* \"#utility.yul\":672:693   */\n  mstore\n    /* \"#utility.yul\":729:731   */\n  0x0e\n    /* \"#utility.yul\":709:727   */\n  0x24\n  dup3\n  add\n    /* \"#utility.yul\":702:732   */\n  mstore\n  shl(0x90, 0x7374617274206174203c206e6f77)\n    /* \"#utility.yul\":748:766   */\n  0x44\n  dup3\n  add\n    /* \"#utility.yul\":741:785   */\n  mstore\n    /* \"#utility.yul\":802:820   */\n  0x64\n  add\n    /* \"ex/BPresell.sol\":3933:3987  require(_startAt >= block.timestamp, \"start at < now\") */\ntag_13:\n  mload(0x40)\n  dup1\n  swap2\n  sub\n  swap1\n  revert\ntag_12:\n    /* \"ex/BPresell.sol\":4016:4024  _startAt */\n  dup2\n  sub(shl(0x40, 0x01), 0x01)\n    /* \"ex/BPresell.sol\":4006:4024  _endAt >= _startAt */\n  and\n    /* \"ex/BPresell.sol\":4006:4012  _endAt */\n  dup2\n  sub(shl(0x40, 0x01), 0x01)\n    /* \"ex/BPresell.sol\":4006:4024  _endAt >= _startAt */\n  and\n  lt\n  iszero\n    /* \"ex/BPresell.sol\":3998:4046  require(_endAt >= _startAt, \"end at < start at\") */\n  tag_15\n  jumpi\n  mload(0x40)\n  shl(0xe5, 0x461bcd)\n  dup2\n  mstore\n    /* \"#utility.yul\":1033:1035   */\n  0x20\n    /* \"ex/BPresell.sol\":3998:4046  require(_endAt >= _startAt, \"end at < start at\") */\n  0x04\n  dup3\n  add\n    /* \"#utility.yul\":1015:1036   */\n  mstore\n    /* \"#utility.yul\":1072:1074   */\n  0x11\n    /* \"#utility.yul\":1052:1070   */\n  0x24\n  dup3\n  add\n    /* \"#utility.yul\":1045:1075   */\n  mstore\n  shl(0x7a, 0x195b9908185d080f081cdd185c9d08185d)\n    /* \"#utility.yul\":1091:1109   */\n  0x44\n  dup3\n  add\n    /* \"#utility.yul\":1084:1131   */\n  mstore\n    /* \"#utility.yul\":1148:1166   */\n  0x64\n  add\n    /* \"ex/BPresell.sol\":3998:4046  require(_endAt >= _startAt, \"end at < start at\") */\n  tag_13\n    /* \"#utility.yul\":831:1172   */\n  jump\n    /* \"ex/BPresell.sol\":3998:4046  require(_endAt >= _startAt, \"end at < start at\") */\ntag_15:\n    /* \"ex/BPresell.sol\":4059:4066  startAt */\n  0x06\n    /* \"ex/BPresell.sol\":4059:4077  startAt = _startAt */\n  dup1\n  sload\n  not(sub(shl(0xe0, 0x01), shl(0x60, 0x01)))\n    /* \"ex/BPresell.sol\":4088:4102  endAt = _endAt */\n  and\n    /* \"ex/BPresell.sol\":4059:4077  startAt = _startAt */\n  0x01000000000000000000000000\n  sub(shl(0x40, 0x01), 0x01)\n  swap5\n  dup6\n  and\n  mul\n  not(sub(shl(0xe0, 0x01), shl(0xa0, 0x01)))\n    /* \"ex/BPresell.sol\":4088:4102  endAt = _endAt */\n  and\n  or\n  shl(0xa0, 0x01)\n  swap3\n  swap1\n  swap4\n  and\n  swap2\n  swap1\n  swap2\n  mul\n  swap2\n  swap1\n  swap2\n  or\n  swap1\n  sstore\n  0x01\n    /* \"ex/BPresell.sol\":4132:4147  usdtMintAddress */\n  sload\n  sub(shl(0xa0, 0x01), 0x01)\n  swap1\n  dup2\n  and\n    /* \"ex/BPresell.sol\":4113:4148  usdtToken = IERC20(usdtMintAddress) */\n  0x80\n  mstore\n    /* \"ex/BPresell.sol\":4178:4201  presellTokenMintAddress */\n  sload(0x02)\n  and\n    /* \"ex/BPresell.sol\":4159:4202  sellToken = IERC20(presellTokenMintAddress) */\n  0xa0\n  mstore\n    /* \"ex/BPresell.sol\":2649:7872  contract BabyPresell is Ownable {... */\n  jump(tag_22)\n    /* \"ex/BPresell.sol\":2451:2642  function _transferOwnership(address newOwner) internal virtual {... */\ntag_10:\n    /* \"ex/BPresell.sol\":2525:2541  address oldOwner */\n  0x00\n    /* \"ex/BPresell.sol\":2544:2550  _owner */\n  dup1\n  sload\n  sub(shl(0xa0, 0x01), 0x01)\n    /* \"ex/BPresell.sol\":2561:2578  _owner = newOwner */\n  dup4\n  dup2\n  and\n  not(sub(shl(0xa0, 0x01), 0x01))\n  dup4\n  and\n  dup2\n  or\n  dup5\n  sstore\n    /* \"ex/BPresell.sol\":2594:2634  OwnershipTransferred(oldOwner, newOwner) */\n  mload(0x40)\n    /* \"ex/BPresell.sol\":2544:2550  _owner */\n  swap2\n  swap1\n  swap3\n  and\n  swap3\n  dup4\n  swap2\n    /* \"ex/BPresell.sol\":2594:2634  OwnershipTransferred(oldOwner, newOwner) */\n  0x8be0079c531659141344cd1fd0a4f28419497f9722a3daafe3b4186f6b6457e0\n  swap2\n    /* \"ex/BPresell.sol\":2525:2541  address oldOwner */\n  swap1\n    /* \"ex/BPresell.sol\":2594:2634  OwnershipTransferred(oldOwner, newOwner) */\n  log3\n    /* \"ex/BPresell.sol\":2514:2642  {... */\n  pop\n    /* \"ex/BPresell.sol\":2451:2642  function _transferOwnership(address newOwner) internal virtual {... */\n  pop\n  jump\t// out\n    /* \"#utility.yul\":14:189   */\ntag_21:\n    /* \"#utility.yul\":92:105   */\n  dup1\n  mload\n  sub(shl(0x40, 0x01), 0x01)\n    /* \"#utility.yul\":134:164   */\n  dup2\n  and\n    /* \"#utility.yul\":124:165   */\n  dup2\n  eq\n    /* \"#utility.yul\":114:183   */\n  tag_24\n  jumpi\n    /* \"#utility.yul\":179:180   */\n  0x00\n    /* \"#utility.yul\":176:177   */\n  dup1\n    /* \"#utility.yul\":169:181   */\n  revert\n    /* \"#utility.yul\":114:183   */\ntag_24:\n    /* \"#utility.yul\":14:189   */\n  swap2\n  swap1\n  pop\n  jump\t// out\n    /* \"#utility.yul\":194:483   */\ntag_3:\n    /* \"#utility.yul\":271:277   */\n  0x00\n    /* \"#utility.yul\":279:285   */\n  dup1\n    /* \"#utility.yul\":332:334   */\n  0x40\n    /* \"#utility.yul\":320:329   */\n  dup4\n    /* \"#utility.yul\":311:318   */\n  dup6\n    /* \"#utility.yul\":307:330   */\n  sub\n    /* \"#utility.yul\":303:335   */\n  slt\n    /* \"#utility.yul\":300:352   */\n  iszero\n  tag_26\n  jumpi\n    /* \"#utility.yul\":348:349   */\n  0x00\n    /* \"#utility.yul\":345:346   */\n  dup1\n    /* \"#utility.yul\":338:350   */\n  revert\n    /* \"#utility.yul\":300:352   */\ntag_26:\n    /* \"#utility.yul\":371:410   */\n  tag_27\n    /* \"#utility.yul\":400:409   */\n  dup4\n    /* \"#utility.yul\":371:410   */\n  tag_21\n  jump\t// in\ntag_27:\n    /* \"#utility.yul\":361:410   */\n  swap2\n  pop\n    /* \"#utility.yul\":429:477   */\n  tag_28\n    /* \"#utility.yul\":473:475   */\n  0x20\n    /* \"#utility.yul\":462:471   */\n  dup5\n    /* \"#utility.yul\":458:476   */\n  add\n    /* \"#utility.yul\":429:477   */\n  tag_21\n  jump\t// in\ntag_28:\n    /* \"#utility.yul\":419:477   */\n  swap1\n  pop\n    /* \"#utility.yul\":194:483   */\n  swap3\n  pop\n  swap3\n  swap1\n  pop\n  jump\t// out\n    /* \"#utility.yul\":831:1172   */\ntag_22:\n    /* \"ex/BPresell.sol\":2649:7872  contract BabyPresell is Ownable {... */\n  mload(0x80)\n  mload(0xa0)\n  codecopy(0x00, dataOffset(sub_0), dataSize(sub_0))\n  0x00\n  assignImmutable(\"0xe5dc5b472d77ffeb68b1bb241b2a30a23da4805b6fe423e8c4bcb52699f7038d\")\n  0x00\n  assignImmutable(\"0x555b0a599f654d63fa786356aaa3ed32af39ca11efd351bedfbf54d34ad77d1b\")\n  return(0x00, dataSize(sub_0))\nstop\n\nsub_0: assembly {\n        /* \"ex/BPresell.sol\":2649:7872  contract BabyPresell is Ownable {... */\n      mstore(0x40, 0x80)\n      callvalue\n      dup1\n      iszero\n      tag_1\n      jumpi\n      0x00\n      dup1\n      revert\n    tag_1:\n      pop\n      jumpi(tag_2, lt(calldatasize, 0x04))\n      shr(0xe0, calldataload(0x00))\n      dup1\n      0x8da5cb5b\n      gt\n      tag_42\n      jumpi\n      dup1\n      0xd0febe4c\n      gt\n      tag_43\n      jumpi\n      dup1\n      0xe25f9f2f\n      gt\n      tag_44\n      jumpi\n      dup1\n      0xe25f9f2f\n      eq\n      tag_37\n      jumpi\n      dup1\n      0xe4eef896\n      eq\n      tag_38\n      jumpi\n      dup1\n      0xf01fc57c\n      eq\n      tag_39\n      jumpi\n      dup1\n      0xf2fde38b\n      eq\n      tag_40\n      jumpi\n      dup1\n      0xfae92612\n      eq\n      tag_41\n      jumpi\n      0x00\n      dup1\n      revert\n    tag_44:\n      dup1\n      0xd0febe4c\n      eq\n      tag_32\n      jumpi\n      dup1\n      0xd1d04e1f\n      eq\n      tag_33\n      jumpi\n      dup1\n      0xd35cde41\n      eq\n      tag_34\n      jumpi\n      dup1\n      0xdb2e21bc\n      eq\n      tag_35\n      jumpi\n      dup1\n      0xdcd83616\n      eq\n      tag_36\n      jumpi\n      0x00\n      dup1\n      revert\n    tag_43:\n      dup1\n      0xacf6c91c\n      gt\n      tag_45\n      jumpi\n      dup1\n      0xacf6c91c\n      eq\n      tag_27\n      jumpi\n      dup1\n      0xc7446565\n      eq\n      tag_28\n      jumpi\n      dup1\n      0xc828371e\n      eq\n      tag_29\n      jumpi\n      dup1\n      0xc9ede793\n      eq\n      tag_30\n      jumpi\n      dup1\n      0xca16e3eb\n      eq\n      tag_31\n      jumpi\n      0x00\n      dup1\n      revert\n    tag_45:\n      dup1\n      0x8da5cb5b\n      eq\n      tag_22\n      jumpi\n      dup1\n      0x90f5881a\n      eq\n      tag_23\n      jumpi\n      dup1\n      0x95623641\n      eq\n      tag_24\n      jumpi\n      dup1\n      0x9769f0b0\n      eq\n      tag_25\n      jumpi\n      dup1\n      0xa98ad46c\n      eq\n      tag_26\n      jumpi\n      0x00\n      dup1\n      revert\n    tag_42:\n      dup1\n      0x50b2b0a4\n      gt\n      tag_46\n      jumpi\n      dup1\n      0x715018a6\n      gt\n      tag_47\n      jumpi\n      dup1\n      0x715018a6\n      eq\n      tag_17\n      jumpi\n      dup1\n      0x78eb6c6f\n      eq\n      tag_18\n      jumpi\n      dup1\n      0x7cc3ae8c\n      eq\n      tag_19\n      jumpi\n      dup1\n      0x8568f4ce\n      eq\n      tag_20\n      jumpi\n      dup1\n      0x88af60c6\n      eq\n      tag_21\n      jumpi\n      0x00\n      dup1\n      revert\n    tag_47:\n      dup1\n      0x50b2b0a4\n      eq\n      tag_12\n      jumpi\n      dup1\n      0x5f8524fb\n      eq\n      tag_13\n      jumpi\n      dup1\n      0x5fc1cb63\n      eq\n      tag_14\n      jumpi\n      dup1\n      0x61bc221a\n      eq\n      tag_15\n      jumpi\n      dup1\n      0x69c82ef7\n      eq\n      tag_16\n      jumpi\n      0x00\n      dup1\n      revert\n    tag_46:\n      dup1\n      0x372c12b1\n      gt\n      tag_48\n      jumpi\n      dup1\n      0x372c12b1\n      eq\n      tag_7\n      jumpi\n      dup1\n      0x374eedef\n      eq\n      tag_8\n      jumpi\n      dup1\n      0x39b417b7\n      eq\n      tag_9\n      jumpi\n      dup1\n      0x3d719da7\n      eq\n      tag_10\n      jumpi\n      dup1\n      0x439f5ac2\n      eq\n      tag_11\n      jumpi\n      0x00\n      dup1\n      revert\n    tag_48:\n      dup1\n      0x027734fa\n      eq\n      tag_3\n      jumpi\n      dup1\n      0x03d7424d\n      eq\n      tag_4\n      jumpi\n      dup1\n      0x08c9d227\n      eq\n      tag_5\n      jumpi\n      dup1\n      0x271f88b4\n      eq\n      tag_6\n      jumpi\n    tag_2:\n      0x00\n      dup1\n      revert\n        /* \"ex/BPresell.sol\":2892:2975  address public presellTokenMintAddress = 0xA3247B33baA9eA15b699C77237d5B16f5CFD822f */\n    tag_3:\n      sload(0x02)\n      tag_49\n      swap1\n      sub(shl(0xa0, 0x01), 0x01)\n      and\n      dup2\n      jump\n    tag_49:\n      mload(0x40)\n      sub(shl(0xa0, 0x01), 0x01)\n        /* \"#utility.yul\":178:210   */\n      swap1\n      swap2\n      and\n        /* \"#utility.yul\":160:211   */\n      dup2\n      mstore\n        /* \"#utility.yul\":148:150   */\n      0x20\n        /* \"#utility.yul\":133:151   */\n      add\n        /* \"ex/BPresell.sol\":2892:2975  address public presellTokenMintAddress = 0xA3247B33baA9eA15b699C77237d5B16f5CFD822f */\n    tag_51:\n      mload(0x40)\n      dup1\n      swap2\n      sub\n      swap1\n      return\n        /* \"ex/BPresell.sol\":5157:5257  function getWithdrawCounter() public view returns (uint64) {... */\n    tag_4:\n        /* \"ex/BPresell.sol\":5234:5249  withdrawCounter */\n      sload(0x06)\n      0x0100000000\n      swap1\n      div\n      0xffffffff\n      and\n        /* \"ex/BPresell.sol\":5157:5257  function getWithdrawCounter() public view returns (uint64) {... */\n    tag_53:\n      mload(0x40)\n      sub(shl(0x40, 0x01), 0x01)\n        /* \"#utility.yul\":384:415   */\n      swap1\n      swap2\n      and\n        /* \"#utility.yul\":366:416   */\n      dup2\n      mstore\n        /* \"#utility.yul\":354:356   */\n      0x20\n        /* \"#utility.yul\":339:357   */\n      add\n        /* \"ex/BPresell.sol\":5157:5257  function getWithdrawCounter() public view returns (uint64) {... */\n      tag_51\n        /* \"#utility.yul\":222:422   */\n      jump\n        /* \"ex/BPresell.sol\":7457:7756  function changeWhiteListBatch(address[] memory accounts, bool[] memory states) public onlyOwner {... */\n    tag_5:\n      tag_57\n      tag_58\n      calldatasize\n      0x04\n      tag_59\n      jump\t// in\n    tag_58:\n      tag_60\n      jump\t// in\n    tag_57:\n      stop\n        /* \"ex/BPresell.sol\":6985:7081  function setAmount(uint256 newAmount) public onlyOwner {... */\n    tag_6:\n      tag_57\n      tag_62\n      calldatasize\n      0x04\n      tag_63\n      jump\t// in\n    tag_62:\n      tag_64\n      jump\t// in\n        /* \"ex/BPresell.sol\":3649:3690  mapping(address => bool) public whiteList */\n    tag_7:\n      tag_65\n      tag_66\n      calldatasize\n      0x04\n      tag_67\n      jump\t// in\n    tag_66:\n      mstore(0x20, 0x09)\n      0x00\n      swap1\n      dup2\n      mstore\n      0x40\n      swap1\n      keccak256\n      sload\n      0xff\n      and\n      dup2\n      jump\n    tag_65:\n      mload(0x40)\n        /* \"#utility.yul\":3750:3764   */\n      swap1\n      iszero\n        /* \"#utility.yul\":3743:3765   */\n      iszero\n        /* \"#utility.yul\":3725:3766   */\n      dup2\n      mstore\n        /* \"#utility.yul\":3713:3715   */\n      0x20\n        /* \"#utility.yul\":3698:3716   */\n      add\n        /* \"ex/BPresell.sol\":3649:3690  mapping(address => bool) public whiteList */\n      tag_51\n        /* \"#utility.yul\":3585:3772   */\n      jump\n        /* \"ex/BPresell.sol\":4948:5050  function getUserHasBuy(address user) public view returns (bool) {... */\n    tag_8:\n      tag_65\n      tag_72\n      calldatasize\n      0x04\n      tag_67\n      jump\t// in\n    tag_72:\n      sub(shl(0xa0, 0x01), 0x01)\n        /* \"ex/BPresell.sol\":5030:5042  hasBuy[user] */\n      and\n        /* \"ex/BPresell.sol\":5006:5010  bool */\n      0x00\n        /* \"ex/BPresell.sol\":5030:5042  hasBuy[user] */\n      swap1\n      dup2\n      mstore\n        /* \"ex/BPresell.sol\":5030:5036  hasBuy */\n      0x08\n        /* \"ex/BPresell.sol\":5030:5042  hasBuy[user] */\n      0x20\n      mstore\n      0x40\n      swap1\n      keccak256\n      sload\n      0xff\n      and\n      swap1\n        /* \"ex/BPresell.sol\":4948:5050  function getUserHasBuy(address user) public view returns (bool) {... */\n      jump\n        /* \"ex/BPresell.sol\":7333:7449  function changeWhiteList(address account, bool state) public onlyOwner {... */\n    tag_9:\n      tag_57\n      tag_76\n      calldatasize\n      0x04\n      tag_77\n      jump\t// in\n    tag_76:\n      tag_78\n      jump\t// in\n        /* \"ex/BPresell.sol\":3604:3642  mapping(address => bool) public hasBuy */\n    tag_10:\n      tag_65\n      tag_80\n      calldatasize\n      0x04\n      tag_67\n      jump\t// in\n    tag_80:\n      mstore(0x20, 0x08)\n      0x00\n      swap1\n      dup2\n      mstore\n      0x40\n      swap1\n      keccak256\n      sload\n      0xff\n      and\n      dup2\n      jump\n        /* \"ex/BPresell.sol\":4858:4940  function getEndTime() public view returns (uint64) {... */\n    tag_11:\n        /* \"ex/BPresell.sol\":4927:4932  endAt */\n      sload(0x06)\n      shl(0xa0, 0x01)\n      swap1\n      div\n      sub(shl(0x40, 0x01), 0x01)\n      and\n        /* \"ex/BPresell.sol\":4858:4940  function getEndTime() public view returns (uint64) {... */\n      jump(tag_53)\n        /* \"ex/BPresell.sol\":7764:7859  function setDisableWhiteList(bool op) public onlyOwner {... */\n    tag_12:\n      tag_57\n      tag_87\n      calldatasize\n      0x04\n      tag_88\n      jump\t// in\n    tag_87:\n      tag_89\n      jump\t// in\n        /* \"ex/BPresell.sol\":3157:3210  uint256 public preSellCoinPreAmount = 4500 * 10 ** 18 */\n    tag_13:\n      tag_90\n      sload(0x05)\n      dup2\n      jump\n    tag_90:\n      mload(0x40)\n        /* \"#utility.yul\":4489:4514   */\n      swap1\n      dup2\n      mstore\n        /* \"#utility.yul\":4477:4479   */\n      0x20\n        /* \"#utility.yul\":4462:4480   */\n      add\n        /* \"ex/BPresell.sol\":3157:3210  uint256 public preSellCoinPreAmount = 4500 * 10 ** 18 */\n      tag_51\n        /* \"#utility.yul\":4343:4520   */\n      jump\n        /* \"ex/BPresell.sol\":6550:6732  function exigencyWithdrawToken(uint256 amount) public onlyOwner {... */\n    tag_14:\n      tag_57\n      tag_95\n      calldatasize\n      0x04\n      tag_63\n      jump\t// in\n    tag_95:\n      tag_96\n      jump\t// in\n        /* \"ex/BPresell.sol\":3217:3238  uint32 public counter */\n    tag_15:\n      sload(0x06)\n      tag_97\n      swap1\n      0xffffffff\n      and\n      dup2\n      jump\n    tag_97:\n      mload(0x40)\n        /* \"#utility.yul\":4699:4709   */\n      0xffffffff\n        /* \"#utility.yul\":4687:4710   */\n      swap1\n      swap2\n      and\n        /* \"#utility.yul\":4669:4711   */\n      dup2\n      mstore\n        /* \"#utility.yul\":4657:4659   */\n      0x20\n        /* \"#utility.yul\":4642:4660   */\n      add\n        /* \"ex/BPresell.sol\":3217:3238  uint32 public counter */\n      tag_51\n        /* \"#utility.yul\":4525:4717   */\n      jump\n        /* \"ex/BPresell.sol\":4411:4499  function setPresellMax(uint32 amount) public onlyOwner{... */\n    tag_16:\n      tag_57\n      tag_102\n      calldatasize\n      0x04\n      tag_103\n      jump\t// in\n    tag_102:\n      tag_104\n      jump\t// in\n        /* \"ex/BPresell.sol\":1832:1935  function renounceOwnership() public virtual onlyOwner {... */\n    tag_17:\n      tag_57\n      tag_106\n      jump\t// in\n        /* \"ex/BPresell.sol\":4509:4617  function getPreSellCoinAmount() public view returns (uint256) {... */\n    tag_18:\n        /* \"ex/BPresell.sol\":4589:4609  preSellCoinPreAmount */\n      sload(0x05)\n        /* \"ex/BPresell.sol\":4509:4617  function getPreSellCoinAmount() public view returns (uint256) {... */\n      jump(tag_90)\n        /* \"ex/BPresell.sol\":3392:3411  uint64 public endAt */\n    tag_19:\n      sload(0x06)\n      tag_53\n      swap1\n      shl(0xa0, 0x01)\n      swap1\n      div\n      sub(shl(0x40, 0x01), 0x01)\n      and\n      dup2\n      jump\n        /* \"ex/BPresell.sol\":4625:4756  function getUserPreSellCoinAmount(address user) public view returns (uint256) {... */\n    tag_20:\n      tag_90\n      tag_114\n      calldatasize\n      0x04\n      tag_67\n      jump\t// in\n    tag_114:\n      sub(shl(0xa0, 0x01), 0x01)\n        /* \"ex/BPresell.sol\":4721:4748  userPresellBalanceMap[user] */\n      and\n        /* \"ex/BPresell.sol\":4694:4701  uint256 */\n      0x00\n        /* \"ex/BPresell.sol\":4721:4748  userPresellBalanceMap[user] */\n      swap1\n      dup2\n      mstore\n        /* \"ex/BPresell.sol\":4721:4742  userPresellBalanceMap */\n      0x07\n        /* \"ex/BPresell.sol\":4721:4748  userPresellBalanceMap[user] */\n      0x20\n      mstore\n      0x40\n      swap1\n      keccak256\n      sload\n      swap1\n        /* \"ex/BPresell.sol\":4625:4756  function getUserPreSellCoinAmount(address user) public view returns (uint256) {... */\n      jump\n        /* \"ex/BPresell.sol\":2810:2885  address public usdtMintAddress = 0x55d398326f99059fF775485246999027B3197955 */\n    tag_21:\n      sload(0x01)\n      tag_49\n      swap1\n      sub(shl(0xa0, 0x01), 0x01)\n      and\n      dup2\n      jump\n        /* \"ex/BPresell.sol\":1181:1268  function owner() public view virtual returns (address) {... */\n    tag_22:\n        /* \"ex/BPresell.sol\":1227:1234  address */\n      0x00\n        /* \"ex/BPresell.sol\":1254:1260  _owner */\n      sload\n      sub(shl(0xa0, 0x01), 0x01)\n      and\n        /* \"ex/BPresell.sol\":1181:1268  function owner() public view virtual returns (address) {... */\n      jump(tag_49)\n        /* \"ex/BPresell.sol\":3541:3597  mapping(address => uint256) public userPresellBalanceMap */\n    tag_23:\n      tag_90\n      tag_124\n      calldatasize\n      0x04\n      tag_67\n      jump\t// in\n    tag_124:\n      mstore(0x20, 0x07)\n      0x00\n      swap1\n      dup2\n      mstore\n      0x40\n      swap1\n      keccak256\n      sload\n      dup2\n      jump\n        /* \"ex/BPresell.sol\":2982:3055  address public marketAddress = 0x3Ee8E26053649b3cF811625Dcd2Ade2b8eB81F47 */\n    tag_24:\n      sload(0x03)\n      tag_49\n      swap1\n      sub(shl(0xa0, 0x01), 0x01)\n      and\n      dup2\n      jump\n        /* \"ex/BPresell.sol\":3501:3534  IERC20 public immutable sellToken */\n    tag_25:\n      tag_49\n      immutable(\"0xe5dc5b472d77ffeb68b1bb241b2a30a23da4805b6fe423e8c4bcb52699f7038d\")\n      dup2\n      jump\n        /* \"ex/BPresell.sol\":3461:3494  IERC20 public immutable usdtToken */\n    tag_26:\n      tag_49\n      immutable(\"0x555b0a599f654d63fa786356aaa3ed32af39ca11efd351bedfbf54d34ad77d1b\")\n      dup2\n      jump\n        /* \"ex/BPresell.sol\":7089:7325  function setTime(uint64 start, uint64 end) public onlyOwner {... */\n    tag_27:\n      tag_57\n      tag_138\n      calldatasize\n      0x04\n      tag_139\n      jump\t// in\n    tag_138:\n      tag_140\n      jump\t// in\n        /* \"ex/BPresell.sol\":3364:3385  uint64 public startAt */\n    tag_28:\n      sload(0x06)\n      tag_53\n      swap1\n      shl(0x60, 0x01)\n      swap1\n      div\n      sub(shl(0x40, 0x01), 0x01)\n      and\n      dup2\n      jump\n        /* \"ex/BPresell.sol\":4764:4850  function getStartTime() public view returns (uint64) {... */\n    tag_29:\n        /* \"ex/BPresell.sol\":4835:4842  startAt */\n      sload(0x06)\n      shl(0x60, 0x01)\n      swap1\n      div\n      sub(shl(0x40, 0x01), 0x01)\n      and\n        /* \"ex/BPresell.sol\":4764:4850  function getStartTime() public view returns (uint64) {... */\n      jump(tag_53)\n        /* \"ex/BPresell.sol\":6076:6542  function withdrawPresellTokens() public {... */\n    tag_30:\n      tag_57\n      tag_148\n      jump\t// in\n        /* \"ex/BPresell.sol\":3245:3274  uint32 public withdrawCounter */\n    tag_31:\n      sload(0x06)\n      tag_97\n      swap1\n      0x0100000000\n      swap1\n      div\n      0xffffffff\n      and\n      dup2\n      jump\n        /* \"ex/BPresell.sol\":5265:6068  function buyTokens() public {... */\n    tag_32:\n      tag_57\n      tag_153\n      jump\t// in\n        /* \"ex/BPresell.sol\":4317:4403  function getPresellMax() public view returns (uint32) {... */\n    tag_33:\n        /* \"ex/BPresell.sol\":4389:4395  preMax */\n      sload(0x06)\n      shl(0x40, 0x01)\n      swap1\n      div\n      0xffffffff\n      and\n        /* \"ex/BPresell.sol\":4317:4403  function getPresellMax() public view returns (uint32) {... */\n      jump(tag_97)\n        /* \"ex/BPresell.sol\":4218:4309  function getUsdtAmount() public view returns (uint256) {... */\n    tag_34:\n        /* \"ex/BPresell.sol\":4291:4301  usdtAmount */\n      sload(0x04)\n        /* \"ex/BPresell.sol\":4218:4309  function getUsdtAmount() public view returns (uint256) {... */\n      jump(tag_90)\n        /* \"ex/BPresell.sol\":6740:6855  function emergencyWithdraw() external onlyOwner {... */\n    tag_35:\n      tag_57\n      tag_161\n      jump\t// in\n        /* \"ex/BPresell.sol\":3424:3452  bool public disableWhiteList */\n    tag_36:\n      sload(0x06)\n      tag_65\n      swap1\n      shl(0xe0, 0x01)\n      swap1\n      div\n      0xff\n      and\n      dup2\n      jump\n        /* \"ex/BPresell.sol\":3331:3357  uint32 public preMax = 220 */\n    tag_37:\n      sload(0x06)\n      tag_97\n      swap1\n      shl(0x40, 0x01)\n      swap1\n      div\n      0xffffffff\n      and\n      dup2\n      jump\n        /* \"ex/BPresell.sol\":3110:3150  uint256 public usdtAmount = 1 * 10 ** 18 */\n    tag_38:\n      tag_90\n      sload(0x04)\n      dup2\n      jump\n        /* \"ex/BPresell.sol\":5058:5149  function getPreSellCounter() public view returns (uint64) {... */\n    tag_39:\n        /* \"ex/BPresell.sol\":5134:5141  counter */\n      and(0xffffffff, sload(0x06))\n        /* \"ex/BPresell.sol\":5058:5149  function getPreSellCounter() public view returns (uint64) {... */\n      jump(tag_53)\n        /* \"ex/BPresell.sol\":2090:2291  function transferOwnership(address newOwner) public virtual onlyOwner {... */\n    tag_40:\n      tag_57\n      tag_175\n      calldatasize\n      0x04\n      tag_67\n      jump\t// in\n    tag_175:\n      tag_176\n      jump\t// in\n        /* \"ex/BPresell.sol\":6863:6971  function setMarketAddress(address newAddress) public onlyOwner {... */\n    tag_41:\n      tag_57\n      tag_178\n      calldatasize\n      0x04\n      tag_67\n      jump\t// in\n    tag_178:\n      tag_179\n      jump\t// in\n        /* \"ex/BPresell.sol\":7457:7756  function changeWhiteListBatch(address[] memory accounts, bool[] memory states) public onlyOwner {... */\n    tag_60:\n        /* \"ex/BPresell.sol\":1227:1234  address */\n      0x00\n        /* \"ex/BPresell.sol\":1254:1260  _owner */\n      sload\n      sub(shl(0xa0, 0x01), 0x01)\n      and\n        /* \"ex/BPresell.sol\":635:645  msg.sender */\n      caller\n        /* \"ex/BPresell.sol\":1401:1424  owner() == _msgSender() */\n      eq\n        /* \"ex/BPresell.sol\":1393:1461  require(owner() == _msgSender(), \"Ownable: caller is not the owner\") */\n      tag_185\n      jumpi\n      mload(0x40)\n      shl(0xe5, 0x461bcd)\n      dup2\n      mstore\n      0x04\n      add\n      tag_186\n      swap1\n      tag_187\n      jump\t// in\n    tag_186:\n      mload(0x40)\n      dup1\n      swap2\n      sub\n      swap1\n      revert\n    tag_185:\n        /* \"ex/BPresell.sol\":7591:7597  states */\n      dup1\n        /* \"ex/BPresell.sol\":7591:7604  states.length */\n      mload\n        /* \"ex/BPresell.sol\":7572:7580  accounts */\n      dup3\n        /* \"ex/BPresell.sol\":7572:7587  accounts.length */\n      mload\n        /* \"ex/BPresell.sol\":7572:7604  accounts.length == states.length */\n      eq\n        /* \"ex/BPresell.sol\":7564:7627  require(accounts.length == states.length, \"arrat length error\") */\n      tag_189\n      jumpi\n      mload(0x40)\n      shl(0xe5, 0x461bcd)\n      dup2\n      mstore\n        /* \"#utility.yul\":6224:6226   */\n      0x20\n        /* \"ex/BPresell.sol\":7564:7627  require(accounts.length == states.length, \"arrat length error\") */\n      0x04\n      dup3\n      add\n        /* \"#utility.yul\":6206:6227   */\n      mstore\n        /* \"#utility.yul\":6263:6265   */\n      0x12\n        /* \"#utility.yul\":6243:6261   */\n      0x24\n      dup3\n      add\n        /* \"#utility.yul\":6236:6266   */\n      mstore\n      shl(0x71, 0x30b93930ba103632b733ba341032b93937b9)\n        /* \"#utility.yul\":6282:6300   */\n      0x44\n      dup3\n      add\n        /* \"#utility.yul\":6275:6323   */\n      mstore\n        /* \"#utility.yul\":6340:6358   */\n      0x64\n      add\n        /* \"ex/BPresell.sol\":7564:7627  require(accounts.length == states.length, \"arrat length error\") */\n      tag_186\n        /* \"#utility.yul\":6022:6364   */\n      jump\n        /* \"ex/BPresell.sol\":7564:7627  require(accounts.length == states.length, \"arrat length error\") */\n    tag_189:\n        /* \"ex/BPresell.sol\":7642:7651  uint256 i */\n      0x00\n        /* \"ex/BPresell.sol\":7638:7749  for(uint256 i = 0; i < accounts.length; ++i) {... */\n    tag_192:\n        /* \"ex/BPresell.sol\":7661:7669  accounts */\n      dup3\n        /* \"ex/BPresell.sol\":7661:7676  accounts.length */\n      mload\n        /* \"ex/BPresell.sol\":7657:7658  i */\n      dup2\n        /* \"ex/BPresell.sol\":7657:7676  i < accounts.length */\n      lt\n        /* \"ex/BPresell.sol\":7638:7749  for(uint256 i = 0; i < accounts.length; ++i) {... */\n      iszero\n      tag_193\n      jumpi\n        /* \"ex/BPresell.sol\":7698:7737  changeWhiteList(accounts[i], states[i]) */\n      tag_195\n        /* \"ex/BPresell.sol\":7714:7722  accounts */\n      dup4\n        /* \"ex/BPresell.sol\":7723:7724  i */\n      dup3\n        /* \"ex/BPresell.sol\":7714:7725  accounts[i] */\n      dup2\n      mload\n      dup2\n      lt\n      tag_197\n      jumpi\n      tag_197\n      tag_198\n      jump\t// in\n    tag_197:\n      0x20\n      mul\n      0x20\n      add\n      add\n      mload\n        /* \"ex/BPresell.sol\":7727:7733  states */\n      dup4\n        /* \"ex/BPresell.sol\":7734:7735  i */\n      dup4\n        /* \"ex/BPresell.sol\":7727:7736  states[i] */\n      dup2\n      mload\n      dup2\n      lt\n      tag_200\n      jumpi\n      tag_200\n      tag_198\n      jump\t// in\n    tag_200:\n      0x20\n      mul\n      0x20\n      add\n      add\n      mload\n        /* \"ex/BPresell.sol\":7698:7713  changeWhiteList */\n      tag_78\n        /* \"ex/BPresell.sol\":7698:7737  changeWhiteList(accounts[i], states[i]) */\n      jump\t// in\n    tag_195:\n        /* \"ex/BPresell.sol\":7678:7681  ++i */\n      tag_201\n      dup2\n      tag_202\n      jump\t// in\n    tag_201:\n      swap1\n      pop\n        /* \"ex/BPresell.sol\":7638:7749  for(uint256 i = 0; i < accounts.length; ++i) {... */\n      jump(tag_192)\n    tag_193:\n      pop\n        /* \"ex/BPresell.sol\":7457:7756  function changeWhiteListBatch(address[] memory accounts, bool[] memory states) public onlyOwner {... */\n      pop\n      pop\n      jump\t// out\n        /* \"ex/BPresell.sol\":6985:7081  function setAmount(uint256 newAmount) public onlyOwner {... */\n    tag_64:\n        /* \"ex/BPresell.sol\":1227:1234  address */\n      0x00\n        /* \"ex/BPresell.sol\":1254:1260  _owner */\n      sload\n      sub(shl(0xa0, 0x01), 0x01)\n      and\n        /* \"ex/BPresell.sol\":635:645  msg.sender */\n      caller\n        /* \"ex/BPresell.sol\":1401:1424  owner() == _msgSender() */\n      eq\n        /* \"ex/BPresell.sol\":1393:1461  require(owner() == _msgSender(), \"Ownable: caller is not the owner\") */\n      tag_206\n      jumpi\n      mload(0x40)\n      shl(0xe5, 0x461bcd)\n      dup2\n      mstore\n      0x04\n      add\n      tag_186\n      swap1\n      tag_187\n      jump\t// in\n    tag_206:\n        /* \"ex/BPresell.sol\":7051:7061  usdtAmount */\n      0x04\n        /* \"ex/BPresell.sol\":7051:7073  usdtAmount = newAmount */\n      sstore\n        /* \"ex/BPresell.sol\":6985:7081  function setAmount(uint256 newAmount) public onlyOwner {... */\n      jump\t// out\n        /* \"ex/BPresell.sol\":7333:7449  function changeWhiteList(address account, bool state) public onlyOwner {... */\n    tag_78:\n        /* \"ex/BPresell.sol\":1227:1234  address */\n      0x00\n        /* \"ex/BPresell.sol\":1254:1260  _owner */\n      sload\n      sub(shl(0xa0, 0x01), 0x01)\n      and\n        /* \"ex/BPresell.sol\":635:645  msg.sender */\n      caller\n        /* \"ex/BPresell.sol\":1401:1424  owner() == _msgSender() */\n      eq\n        /* \"ex/BPresell.sol\":1393:1461  require(owner() == _msgSender(), \"Ownable: caller is not the owner\") */\n      tag_213\n      jumpi\n      mload(0x40)\n      shl(0xe5, 0x461bcd)\n      dup2\n      mstore\n      0x04\n      add\n      tag_186\n      swap1\n      tag_187\n      jump\t// in\n    tag_213:\n      sub(shl(0xa0, 0x01), 0x01)\n        /* \"ex/BPresell.sol\":7415:7433  whiteList[account] */\n      swap2\n      swap1\n      swap2\n      and\n      0x00\n      swap1\n      dup2\n      mstore\n        /* \"ex/BPresell.sol\":7415:7424  whiteList */\n      0x09\n        /* \"ex/BPresell.sol\":7415:7433  whiteList[account] */\n      0x20\n      mstore\n      0x40\n      swap1\n      keccak256\n        /* \"ex/BPresell.sol\":7415:7441  whiteList[account] = state */\n      dup1\n      sload\n      not(0xff)\n      and\n      swap2\n      iszero\n      iszero\n      swap2\n      swap1\n      swap2\n      or\n      swap1\n      sstore\n        /* \"ex/BPresell.sol\":7333:7449  function changeWhiteList(address account, bool state) public onlyOwner {... */\n      jump\t// out\n        /* \"ex/BPresell.sol\":7764:7859  function setDisableWhiteList(bool op) public onlyOwner {... */\n    tag_89:\n        /* \"ex/BPresell.sol\":1227:1234  address */\n      0x00\n        /* \"ex/BPresell.sol\":1254:1260  _owner */\n      sload\n      sub(shl(0xa0, 0x01), 0x01)\n      and\n        /* \"ex/BPresell.sol\":635:645  msg.sender */\n      caller\n        /* \"ex/BPresell.sol\":1401:1424  owner() == _msgSender() */\n      eq\n        /* \"ex/BPresell.sol\":1393:1461  require(owner() == _msgSender(), \"Ownable: caller is not the owner\") */\n      tag_220\n      jumpi\n      mload(0x40)\n      shl(0xe5, 0x461bcd)\n      dup2\n      mstore\n      0x04\n      add\n      tag_186\n      swap1\n      tag_187\n      jump\t// in\n    tag_220:\n        /* \"ex/BPresell.sol\":7830:7846  disableWhiteList */\n      0x06\n        /* \"ex/BPresell.sol\":7830:7851  disableWhiteList = op */\n      dup1\n      sload\n      swap2\n      iszero\n      iszero\n      shl(0xe0, 0x01)\n      mul\n      not(shl(0xe0, 0xff))\n      swap1\n      swap3\n      and\n      swap2\n      swap1\n      swap2\n      or\n      swap1\n      sstore\n        /* \"ex/BPresell.sol\":7764:7859  function setDisableWhiteList(bool op) public onlyOwner {... */\n      jump\t// out\n        /* \"ex/BPresell.sol\":6550:6732  function exigencyWithdrawToken(uint256 amount) public onlyOwner {... */\n    tag_96:\n        /* \"ex/BPresell.sol\":1227:1234  address */\n      0x00\n        /* \"ex/BPresell.sol\":1254:1260  _owner */\n      sload\n      sub(shl(0xa0, 0x01), 0x01)\n      and\n        /* \"ex/BPresell.sol\":635:645  msg.sender */\n      caller\n        /* \"ex/BPresell.sol\":1401:1424  owner() == _msgSender() */\n      eq\n        /* \"ex/BPresell.sol\":1393:1461  require(owner() == _msgSender(), \"Ownable: caller is not the owner\") */\n      tag_226\n      jumpi\n      mload(0x40)\n      shl(0xe5, 0x461bcd)\n      dup2\n      mstore\n      0x04\n      add\n      tag_186\n      swap1\n      tag_187\n      jump\t// in\n    tag_226:\n        /* \"ex/BPresell.sol\":6637:6675  sellToken.transfer(msg.sender, amount) */\n      mload(0x40)\n      shl(0xe0, 0xa9059cbb)\n      dup2\n      mstore\n        /* \"ex/BPresell.sol\":6656:6666  msg.sender */\n      caller\n        /* \"ex/BPresell.sol\":6637:6675  sellToken.transfer(msg.sender, amount) */\n      0x04\n      dup3\n      add\n        /* \"#utility.yul\":6947:6998   */\n      mstore\n        /* \"#utility.yul\":7014:7032   */\n      0x24\n      dup2\n      add\n        /* \"#utility.yul\":7007:7041   */\n      dup3\n      swap1\n      mstore\n        /* \"ex/BPresell.sol\":6625:6634  bool sent */\n      0x00\n      swap1\n        /* \"ex/BPresell.sol\":6637:6646  sellToken */\n      immutable(\"0xe5dc5b472d77ffeb68b1bb241b2a30a23da4805b6fe423e8c4bcb52699f7038d\")\n      sub(shl(0xa0, 0x01), 0x01)\n        /* \"ex/BPresell.sol\":6637:6655  sellToken.transfer */\n      and\n      swap1\n      0xa9059cbb\n      swap1\n        /* \"#utility.yul\":6920:6938   */\n      0x44\n      add\n        /* \"ex/BPresell.sol\":6637:6675  sellToken.transfer(msg.sender, amount) */\n      0x20\n      mload(0x40)\n      dup1\n      dup4\n      sub\n      dup2\n      0x00\n      dup8\n      gas\n      call\n      iszero\n      dup1\n      iszero\n      tag_232\n      jumpi\n      returndatasize\n      0x00\n      dup1\n      returndatacopy\n      revert(0x00, returndatasize)\n    tag_232:\n      pop\n      pop\n      pop\n      pop\n      mload(0x40)\n      returndatasize\n      not(0x1f)\n      0x1f\n      dup3\n      add\n      and\n      dup3\n      add\n      dup1\n      0x40\n      mstore\n      pop\n      dup2\n      add\n      swap1\n      tag_233\n      swap2\n      swap1\n      tag_234\n      jump\t// in\n    tag_233:\n        /* \"ex/BPresell.sol\":6625:6675  bool sent = sellToken.transfer(msg.sender, amount) */\n      swap1\n      pop\n        /* \"ex/BPresell.sol\":6694:6698  sent */\n      dup1\n        /* \"ex/BPresell.sol\":6686:6724  require(sent, \"Token transfer failed\") */\n      tag_235\n      jumpi\n      mload(0x40)\n      shl(0xe5, 0x461bcd)\n      dup2\n      mstore\n      0x04\n      add\n      tag_186\n      swap1\n      tag_237\n      jump\t// in\n    tag_235:\n        /* \"ex/BPresell.sol\":6614:6732  {... */\n      pop\n        /* \"ex/BPresell.sol\":6550:6732  function exigencyWithdrawToken(uint256 amount) public onlyOwner {... */\n      pop\n      jump\t// out\n        /* \"ex/BPresell.sol\":4411:4499  function setPresellMax(uint32 amount) public onlyOwner{... */\n    tag_104:\n        /* \"ex/BPresell.sol\":1227:1234  address */\n      0x00\n        /* \"ex/BPresell.sol\":1254:1260  _owner */\n      sload\n      sub(shl(0xa0, 0x01), 0x01)\n      and\n        /* \"ex/BPresell.sol\":635:645  msg.sender */\n      caller\n        /* \"ex/BPresell.sol\":1401:1424  owner() == _msgSender() */\n      eq\n        /* \"ex/BPresell.sol\":1393:1461  require(owner() == _msgSender(), \"Ownable: caller is not the owner\") */\n      tag_241\n      jumpi\n      mload(0x40)\n      shl(0xe5, 0x461bcd)\n      dup2\n      mstore\n      0x04\n      add\n      tag_186\n      swap1\n      tag_187\n      jump\t// in\n    tag_241:\n        /* \"ex/BPresell.sol\":4476:4482  preMax */\n      0x06\n        /* \"ex/BPresell.sol\":4476:4491  preMax = amount */\n      dup1\n      sload\n      0xffffffff\n      swap1\n      swap3\n      and\n      shl(0x40, 0x01)\n      mul\n      not(0xffffffff0000000000000000)\n      swap1\n      swap3\n      and\n      swap2\n      swap1\n      swap2\n      or\n      swap1\n      sstore\n        /* \"ex/BPresell.sol\":4411:4499  function setPresellMax(uint32 amount) public onlyOwner{... */\n      jump\t// out\n        /* \"ex/BPresell.sol\":1832:1935  function renounceOwnership() public virtual onlyOwner {... */\n    tag_106:\n        /* \"ex/BPresell.sol\":1227:1234  address */\n      0x00\n        /* \"ex/BPresell.sol\":1254:1260  _owner */\n      sload\n      sub(shl(0xa0, 0x01), 0x01)\n      and\n        /* \"ex/BPresell.sol\":635:645  msg.sender */\n      caller\n        /* \"ex/BPresell.sol\":1401:1424  owner() == _msgSender() */\n      eq\n        /* \"ex/BPresell.sol\":1393:1461  require(owner() == _msgSender(), \"Ownable: caller is not the owner\") */\n      tag_247\n      jumpi\n      mload(0x40)\n      shl(0xe5, 0x461bcd)\n      dup2\n      mstore\n      0x04\n      add\n      tag_186\n      swap1\n      tag_187\n      jump\t// in\n    tag_247:\n        /* \"ex/BPresell.sol\":1897:1927  _transferOwnership(address(0)) */\n      tag_250\n        /* \"ex/BPresell.sol\":1924:1925  0 */\n      0x00\n        /* \"ex/BPresell.sol\":1897:1915  _transferOwnership */\n      tag_251\n        /* \"ex/BPresell.sol\":1897:1927  _transferOwnership(address(0)) */\n      jump\t// in\n    tag_250:\n        /* \"ex/BPresell.sol\":1832:1935  function renounceOwnership() public virtual onlyOwner {... */\n      jump\t// out\n        /* \"ex/BPresell.sol\":7089:7325  function setTime(uint64 start, uint64 end) public onlyOwner {... */\n    tag_140:\n        /* \"ex/BPresell.sol\":1227:1234  address */\n      0x00\n        /* \"ex/BPresell.sol\":1254:1260  _owner */\n      sload\n      sub(shl(0xa0, 0x01), 0x01)\n      and\n        /* \"ex/BPresell.sol\":635:645  msg.sender */\n      caller\n        /* \"ex/BPresell.sol\":1401:1424  owner() == _msgSender() */\n      eq\n        /* \"ex/BPresell.sol\":1393:1461  require(owner() == _msgSender(), \"Ownable: caller is not the owner\") */\n      tag_258\n      jumpi\n      mload(0x40)\n      shl(0xe5, 0x461bcd)\n      dup2\n      mstore\n      0x04\n      add\n      tag_186\n      swap1\n      tag_187\n      jump\t// in\n    tag_258:\n        /* \"ex/BPresell.sol\":7176:7191  block.timestamp */\n      timestamp\n        /* \"ex/BPresell.sol\":7168:7173  start */\n      dup3\n      sub(shl(0x40, 0x01), 0x01)\n        /* \"ex/BPresell.sol\":7168:7191  start > block.timestamp */\n      and\n      gt\n        /* \"ex/BPresell.sol\":7168:7206  start > block.timestamp && end > start */\n      dup1\n      iszero\n      tag_261\n      jumpi\n      pop\n        /* \"ex/BPresell.sol\":7201:7206  start */\n      dup2\n      sub(shl(0x40, 0x01), 0x01)\n        /* \"ex/BPresell.sol\":7195:7206  end > start */\n      and\n        /* \"ex/BPresell.sol\":7195:7198  end */\n      dup2\n      sub(shl(0x40, 0x01), 0x01)\n        /* \"ex/BPresell.sol\":7195:7206  end > start */\n      and\n      gt\n        /* \"ex/BPresell.sol\":7168:7206  start > block.timestamp && end > start */\n    tag_261:\n        /* \"ex/BPresell.sol\":7160:7269  require(start > block.timestamp && end > start, \"The start time has passed or end time must more than start\") */\n      tag_262\n      jumpi\n      mload(0x40)\n      shl(0xe5, 0x461bcd)\n      dup2\n      mstore\n        /* \"#utility.yul\":7854:7856   */\n      0x20\n        /* \"ex/BPresell.sol\":7160:7269  require(start > block.timestamp && end > start, \"The start time has passed or end time must more than start\") */\n      0x04\n      dup3\n      add\n        /* \"#utility.yul\":7836:7857   */\n      mstore\n        /* \"#utility.yul\":7893:7895   */\n      0x3a\n        /* \"#utility.yul\":7873:7891   */\n      0x24\n      dup3\n      add\n        /* \"#utility.yul\":7866:7896   */\n      mstore\n        /* \"#utility.yul\":7932:7966   */\n      0x5468652073746172742074696d652068617320706173736564206f7220656e64\n        /* \"#utility.yul\":7912:7930   */\n      0x44\n      dup3\n      add\n        /* \"#utility.yul\":7905:7967   */\n      mstore\n        /* \"#utility.yul\":8003:8031   */\n      0x2074696d65206d757374206d6f7265207468616e207374617274000000000000\n        /* \"#utility.yul\":7983:8001   */\n      0x64\n      dup3\n      add\n        /* \"#utility.yul\":7976:8032   */\n      mstore\n        /* \"#utility.yul\":8049:8068   */\n      0x84\n      add\n        /* \"ex/BPresell.sol\":7160:7269  require(start > block.timestamp && end > start, \"The start time has passed or end time must more than start\") */\n      tag_186\n        /* \"#utility.yul\":7652:8074   */\n      jump\n        /* \"ex/BPresell.sol\":7160:7269  require(start > block.timestamp && end > start, \"The start time has passed or end time must more than start\") */\n    tag_262:\n        /* \"ex/BPresell.sol\":7280:7287  startAt */\n      0x06\n        /* \"ex/BPresell.sol\":7280:7295  startAt = start */\n      dup1\n      sload\n      not(shl(0x60, 0xffffffffffffffffffffffffffffffff))\n        /* \"ex/BPresell.sol\":7306:7317  endAt = end */\n      and\n      shl(0x60, 0x01)\n      sub(shl(0x40, 0x01), 0x01)\n        /* \"ex/BPresell.sol\":7280:7295  startAt = start */\n      swap5\n      dup6\n      and\n      mul\n      not(shl(0xa0, 0xffffffffffffffff))\n        /* \"ex/BPresell.sol\":7306:7317  endAt = end */\n      and\n      or\n      shl(0xa0, 0x01)\n      swap3\n      swap1\n      swap4\n      and\n      swap2\n      swap1\n      swap2\n      mul\n      swap2\n      swap1\n      swap2\n      or\n      swap1\n      sstore\n        /* \"ex/BPresell.sol\":7089:7325  function setTime(uint64 start, uint64 end) public onlyOwner {... */\n      jump\t// out\n        /* \"ex/BPresell.sol\":6076:6542  function withdrawPresellTokens() public {... */\n    tag_148:\n        /* \"ex/BPresell.sol\":6135:6140  endAt */\n      sload(0x06)\n        /* \"ex/BPresell.sol\":6143:6158  block.timestamp */\n      timestamp\n      shl(0xa0, 0x01)\n        /* \"ex/BPresell.sol\":6135:6140  endAt */\n      swap1\n      swap2\n      div\n      sub(shl(0x40, 0x01), 0x01)\n      and\n        /* \"ex/BPresell.sol\":6135:6158  endAt < block.timestamp */\n      lt\n        /* \"ex/BPresell.sol\":6127:6178  require(endAt < block.timestamp, \"presell not end\") */\n      tag_267\n      jumpi\n      mload(0x40)\n      shl(0xe5, 0x461bcd)\n      dup2\n      mstore\n        /* \"#utility.yul\":8281:8283   */\n      0x20\n        /* \"ex/BPresell.sol\":6127:6178  require(endAt < block.timestamp, \"presell not end\") */\n      0x04\n      dup3\n      add\n        /* \"#utility.yul\":8263:8284   */\n      mstore\n        /* \"#utility.yul\":8320:8322   */\n      0x0f\n        /* \"#utility.yul\":8300:8318   */\n      0x24\n      dup3\n      add\n        /* \"#utility.yul\":8293:8323   */\n      mstore\n      shl(0x8a, 0x1c1c995cd95b1b081b9bdd08195b99)\n        /* \"#utility.yul\":8339:8357   */\n      0x44\n      dup3\n      add\n        /* \"#utility.yul\":8332:8377   */\n      mstore\n        /* \"#utility.yul\":8394:8412   */\n      0x64\n      add\n        /* \"ex/BPresell.sol\":6127:6178  require(endAt < block.timestamp, \"presell not end\") */\n      tag_186\n        /* \"#utility.yul\":8079:8418   */\n      jump\n        /* \"ex/BPresell.sol\":6127:6178  require(endAt < block.timestamp, \"presell not end\") */\n    tag_267:\n        /* \"ex/BPresell.sol\":6230:6240  msg.sender */\n      caller\n        /* \"ex/BPresell.sol\":6191:6205  uint256 amount */\n      0x00\n        /* \"ex/BPresell.sol\":6208:6241  userPresellBalanceMap[msg.sender] */\n      swap1\n      dup2\n      mstore\n        /* \"ex/BPresell.sol\":6208:6229  userPresellBalanceMap */\n      0x07\n        /* \"ex/BPresell.sol\":6208:6241  userPresellBalanceMap[msg.sender] */\n      0x20\n      mstore\n      0x40\n      swap1\n      keccak256\n      sload\n        /* \"ex/BPresell.sol\":6262:6272  amount > 0 */\n      dup1\n        /* \"ex/BPresell.sol\":6254:6294  require(amount > 0, 'user balance zero') */\n      tag_270\n      jumpi\n      mload(0x40)\n      shl(0xe5, 0x461bcd)\n      dup2\n      mstore\n        /* \"#utility.yul\":8625:8627   */\n      0x20\n        /* \"ex/BPresell.sol\":6254:6294  require(amount > 0, 'user balance zero') */\n      0x04\n      dup3\n      add\n        /* \"#utility.yul\":8607:8628   */\n      mstore\n        /* \"#utility.yul\":8664:8666   */\n      0x11\n        /* \"#utility.yul\":8644:8662   */\n      0x24\n      dup3\n      add\n        /* \"#utility.yul\":8637:8667   */\n      mstore\n      shl(0x78, 0x757365722062616c616e6365207a65726f)\n        /* \"#utility.yul\":8683:8701   */\n      0x44\n      dup3\n      add\n        /* \"#utility.yul\":8676:8723   */\n      mstore\n        /* \"#utility.yul\":8740:8758   */\n      0x64\n      add\n        /* \"ex/BPresell.sol\":6254:6294  require(amount > 0, 'user balance zero') */\n      tag_186\n        /* \"#utility.yul\":8423:8764   */\n      jump\n        /* \"ex/BPresell.sol\":6254:6294  require(amount > 0, 'user balance zero') */\n    tag_270:\n        /* \"ex/BPresell.sol\":6319:6357  sellToken.transfer(msg.sender, amount) */\n      mload(0x40)\n      shl(0xe0, 0xa9059cbb)\n      dup2\n      mstore\n        /* \"ex/BPresell.sol\":6338:6348  msg.sender */\n      caller\n        /* \"ex/BPresell.sol\":6319:6357  sellToken.transfer(msg.sender, amount) */\n      0x04\n      dup3\n      add\n        /* \"#utility.yul\":6947:6998   */\n      mstore\n        /* \"#utility.yul\":7014:7032   */\n      0x24\n      dup2\n      add\n        /* \"#utility.yul\":7007:7041   */\n      dup3\n      swap1\n      mstore\n        /* \"ex/BPresell.sol\":6307:6316  bool sent */\n      0x00\n      swap1\n        /* \"ex/BPresell.sol\":6319:6328  sellToken */\n      immutable(\"0xe5dc5b472d77ffeb68b1bb241b2a30a23da4805b6fe423e8c4bcb52699f7038d\")\n      sub(shl(0xa0, 0x01), 0x01)\n        /* \"ex/BPresell.sol\":6319:6337  sellToken.transfer */\n      and\n      swap1\n      0xa9059cbb\n      swap1\n        /* \"#utility.yul\":6920:6938   */\n      0x44\n      add\n        /* \"ex/BPresell.sol\":6319:6357  sellToken.transfer(msg.sender, amount) */\n      0x20\n      mload(0x40)\n      dup1\n      dup4\n      sub\n      dup2\n      0x00\n      dup8\n      gas\n      call\n      iszero\n      dup1\n      iszero\n      tag_275\n      jumpi\n      returndatasize\n      0x00\n      dup1\n      returndatacopy\n      revert(0x00, returndatasize)\n    tag_275:\n      pop\n      pop\n      pop\n      pop\n      mload(0x40)\n      returndatasize\n      not(0x1f)\n      0x1f\n      dup3\n      add\n      and\n      dup3\n      add\n      dup1\n      0x40\n      mstore\n      pop\n      dup2\n      add\n      swap1\n      tag_276\n      swap2\n      swap1\n      tag_234\n      jump\t// in\n    tag_276:\n        /* \"ex/BPresell.sol\":6307:6357  bool sent = sellToken.transfer(msg.sender, amount) */\n      swap1\n      pop\n        /* \"ex/BPresell.sol\":6376:6380  sent */\n      dup1\n        /* \"ex/BPresell.sol\":6368:6406  require(sent, \"Token transfer failed\") */\n      tag_277\n      jumpi\n      mload(0x40)\n      shl(0xe5, 0x461bcd)\n      dup2\n      mstore\n      0x04\n      add\n      tag_186\n      swap1\n      tag_237\n      jump\t// in\n    tag_277:\n        /* \"ex/BPresell.sol\":6441:6451  msg.sender */\n      caller\n        /* \"ex/BPresell.sol\":6455:6456  0 */\n      0x00\n        /* \"ex/BPresell.sol\":6419:6452  userPresellBalanceMap[msg.sender] */\n      swap1\n      dup2\n      mstore\n        /* \"ex/BPresell.sol\":6419:6440  userPresellBalanceMap */\n      0x07\n        /* \"ex/BPresell.sol\":6419:6452  userPresellBalanceMap[msg.sender] */\n      0x20\n      mstore\n      0x40\n      dup2\n      keccak256\n        /* \"ex/BPresell.sol\":6419:6456  userPresellBalanceMap[msg.sender] = 0 */\n      sstore\n        /* \"ex/BPresell.sol\":6467:6482  withdrawCounter */\n      0x06\n        /* \"ex/BPresell.sol\":6467:6484  withdrawCounter++ */\n      dup1\n      sload\n      0x0100000000\n      swap1\n      div\n      0xffffffff\n      and\n      swap1\n        /* \"ex/BPresell.sol\":6467:6482  withdrawCounter */\n      0x04\n        /* \"ex/BPresell.sol\":6467:6484  withdrawCounter++ */\n      tag_279\n      dup4\n      tag_280\n      jump\t// in\n    tag_279:\n      swap2\n      swap1\n      0x0100\n      exp\n      dup2\n      sload\n      dup2\n      0xffffffff\n      mul\n      not\n      and\n      swap1\n      dup4\n      0xffffffff\n      and\n      mul\n      or\n      swap1\n      sstore\n      pop\n      pop\n        /* \"ex/BPresell.sol\":6515:6525  msg.sender */\n      caller\n      sub(shl(0xa0, 0x01), 0x01)\n        /* \"ex/BPresell.sol\":6500:6534  WithdrawTokens(msg.sender, amount) */\n      and\n      0x680f2e4f4032ebf1774e8cdbaddcb1b617a5a606411c8ca96257ada338d3833c\n        /* \"ex/BPresell.sol\":6527:6533  amount */\n      dup4\n        /* \"ex/BPresell.sol\":6500:6534  WithdrawTokens(msg.sender, amount) */\n      mload(0x40)\n      tag_281\n      swap2\n        /* \"#utility.yul\":4489:4514   */\n      dup2\n      mstore\n        /* \"#utility.yul\":4477:4479   */\n      0x20\n        /* \"#utility.yul\":4462:4480   */\n      add\n      swap1\n        /* \"#utility.yul\":4343:4520   */\n      jump\n        /* \"ex/BPresell.sol\":6500:6534  WithdrawTokens(msg.sender, amount) */\n    tag_281:\n      mload(0x40)\n      dup1\n      swap2\n      sub\n      swap1\n      log2\n        /* \"ex/BPresell.sol\":6116:6542  {... */\n      pop\n      pop\n        /* \"ex/BPresell.sol\":6076:6542  function withdrawPresellTokens() public {... */\n      jump\t// out\n        /* \"ex/BPresell.sol\":5265:6068  function buyTokens() public {... */\n    tag_153:\n        /* \"ex/BPresell.sol\":5313:5329  disableWhiteList */\n      sload(0x06)\n      shl(0xe0, 0x01)\n      swap1\n      div\n      0xff\n      and\n        /* \"ex/BPresell.sol\":5312:5329  !disableWhiteList */\n      iszero\n        /* \"ex/BPresell.sol\":5312:5354  !disableWhiteList && whiteList[msg.sender] */\n      dup1\n      iszero\n      tag_283\n      jumpi\n      pop\n        /* \"ex/BPresell.sol\":5343:5353  msg.sender */\n      caller\n        /* \"ex/BPresell.sol\":5333:5354  whiteList[msg.sender] */\n      0x00\n      swap1\n      dup2\n      mstore\n        /* \"ex/BPresell.sol\":5333:5342  whiteList */\n      0x09\n        /* \"ex/BPresell.sol\":5333:5354  whiteList[msg.sender] */\n      0x20\n      mstore\n      0x40\n      swap1\n      keccak256\n      sload\n      0xff\n      and\n        /* \"ex/BPresell.sol\":5312:5354  !disableWhiteList && whiteList[msg.sender] */\n    tag_283:\n        /* \"ex/BPresell.sol\":5304:5375  require(!disableWhiteList && whiteList[msg.sender], \"not in whiteList\") */\n      tag_284\n      jumpi\n      mload(0x40)\n      shl(0xe5, 0x461bcd)\n      dup2\n      mstore\n        /* \"#utility.yul\":9177:9179   */\n      0x20\n        /* \"ex/BPresell.sol\":5304:5375  require(!disableWhiteList && whiteList[msg.sender], \"not in whiteList\") */\n      0x04\n      dup3\n      add\n        /* \"#utility.yul\":9159:9180   */\n      mstore\n        /* \"#utility.yul\":9216:9218   */\n      0x10\n        /* \"#utility.yul\":9196:9214   */\n      0x24\n      dup3\n      add\n        /* \"#utility.yul\":9189:9219   */\n      mstore\n      shl(0x82, 0x1b9bdd081a5b881dda1a5d19531a5cdd)\n        /* \"#utility.yul\":9235:9253   */\n      0x44\n      dup3\n      add\n        /* \"#utility.yul\":9228:9274   */\n      mstore\n        /* \"#utility.yul\":9291:9309   */\n      0x64\n      add\n        /* \"ex/BPresell.sol\":5304:5375  require(!disableWhiteList && whiteList[msg.sender], \"not in whiteList\") */\n      tag_186\n        /* \"#utility.yul\":8975:9315   */\n      jump\n        /* \"ex/BPresell.sol\":5304:5375  require(!disableWhiteList && whiteList[msg.sender], \"not in whiteList\") */\n    tag_284:\n        /* \"ex/BPresell.sol\":5396:5403  startAt */\n      sload(0x06)\n        /* \"ex/BPresell.sol\":5406:5421  block.timestamp */\n      timestamp\n      shl(0x60, 0x01)\n        /* \"ex/BPresell.sol\":5396:5403  startAt */\n      swap1\n      swap2\n      div\n      sub(shl(0x40, 0x01), 0x01)\n      and\n        /* \"ex/BPresell.sol\":5396:5421  startAt < block.timestamp */\n      lt\n        /* \"ex/BPresell.sol\":5388:5435  require(startAt < block.timestamp, \"not start\") */\n      tag_287\n      jumpi\n      mload(0x40)\n      shl(0xe5, 0x461bcd)\n      dup2\n      mstore\n        /* \"#utility.yul\":9522:9524   */\n      0x20\n        /* \"ex/BPresell.sol\":5388:5435  require(startAt < block.timestamp, \"not start\") */\n      0x04\n      dup3\n      add\n        /* \"#utility.yul\":9504:9525   */\n      mstore\n        /* \"#utility.yul\":9561:9562   */\n      0x09\n        /* \"#utility.yul\":9541:9559   */\n      0x24\n      dup3\n      add\n        /* \"#utility.yul\":9534:9563   */\n      mstore\n      shl(0xba, 0x1b9bdd081cdd185c9d)\n        /* \"#utility.yul\":9579:9597   */\n      0x44\n      dup3\n      add\n        /* \"#utility.yul\":9572:9611   */\n      mstore\n        /* \"#utility.yul\":9628:9646   */\n      0x64\n      add\n        /* \"ex/BPresell.sol\":5388:5435  require(startAt < block.timestamp, \"not start\") */\n      tag_186\n        /* \"#utility.yul\":9320:9652   */\n      jump\n        /* \"ex/BPresell.sol\":5388:5435  require(startAt < block.timestamp, \"not start\") */\n    tag_287:\n        /* \"ex/BPresell.sol\":5456:5461  endAt */\n      sload(0x06)\n        /* \"ex/BPresell.sol\":5464:5479  block.timestamp */\n      timestamp\n      shl(0xa0, 0x01)\n        /* \"ex/BPresell.sol\":5456:5461  endAt */\n      swap1\n      swap2\n      div\n      sub(shl(0x40, 0x01), 0x01)\n      and\n        /* \"ex/BPresell.sol\":5456:5479  endAt > block.timestamp */\n      gt\n        /* \"ex/BPresell.sol\":5448:5491  require(endAt > block.timestamp, \"has end\") */\n      tag_290\n      jumpi\n      mload(0x40)\n      shl(0xe5, 0x461bcd)\n      dup2\n      mstore\n        /* \"#utility.yul\":9859:9861   */\n      0x20\n        /* \"ex/BPresell.sol\":5448:5491  require(endAt > block.timestamp, \"has end\") */\n      0x04\n      dup3\n      add\n        /* \"#utility.yul\":9841:9862   */\n      mstore\n        /* \"#utility.yul\":9898:9899   */\n      0x07\n        /* \"#utility.yul\":9878:9896   */\n      0x24\n      dup3\n      add\n        /* \"#utility.yul\":9871:9900   */\n      mstore\n      shl(0xca, 0x1a185cc8195b99)\n        /* \"#utility.yul\":9916:9934   */\n      0x44\n      dup3\n      add\n        /* \"#utility.yul\":9909:9946   */\n      mstore\n        /* \"#utility.yul\":9963:9981   */\n      0x64\n      add\n        /* \"ex/BPresell.sol\":5448:5491  require(endAt > block.timestamp, \"has end\") */\n      tag_186\n        /* \"#utility.yul\":9657:9987   */\n      jump\n        /* \"ex/BPresell.sol\":5448:5491  require(endAt > block.timestamp, \"has end\") */\n    tag_290:\n        /* \"ex/BPresell.sol\":5523:5529  preMax */\n      sload(0x06)\n      0xffffffff\n      shl(0x40, 0x01)\n      dup3\n      div\n      dup2\n      and\n        /* \"ex/BPresell.sol\":5512:5519  counter */\n      swap2\n      and\n        /* \"ex/BPresell.sol\":5512:5529  counter <= preMax */\n      gt\n      iszero\n        /* \"ex/BPresell.sol\":5504:5557  require(counter <= preMax, \"Pre-orders are sold out\") */\n      tag_293\n      jumpi\n      mload(0x40)\n      shl(0xe5, 0x461bcd)\n      dup2\n      mstore\n        /* \"#utility.yul\":10194:10196   */\n      0x20\n        /* \"ex/BPresell.sol\":5504:5557  require(counter <= preMax, \"Pre-orders are sold out\") */\n      0x04\n      dup3\n      add\n        /* \"#utility.yul\":10176:10197   */\n      mstore\n        /* \"#utility.yul\":10233:10235   */\n      0x17\n        /* \"#utility.yul\":10213:10231   */\n      0x24\n      dup3\n      add\n        /* \"#utility.yul\":10206:10236   */\n      mstore\n        /* \"#utility.yul\":10272:10297   */\n      0x5072652d6f72646572732061726520736f6c64206f7574000000000000000000\n        /* \"#utility.yul\":10252:10270   */\n      0x44\n      dup3\n      add\n        /* \"#utility.yul\":10245:10298   */\n      mstore\n        /* \"#utility.yul\":10315:10333   */\n      0x64\n      add\n        /* \"ex/BPresell.sol\":5504:5557  require(counter <= preMax, \"Pre-orders are sold out\") */\n      tag_186\n        /* \"#utility.yul\":9992:10339   */\n      jump\n        /* \"ex/BPresell.sol\":5504:5557  require(counter <= preMax, \"Pre-orders are sold out\") */\n    tag_293:\n        /* \"ex/BPresell.sol\":5586:5596  msg.sender */\n      caller\n        /* \"ex/BPresell.sol\":5579:5597  hasBuy[msg.sender] */\n      0x00\n      swap1\n      dup2\n      mstore\n        /* \"ex/BPresell.sol\":5579:5585  hasBuy */\n      0x08\n        /* \"ex/BPresell.sol\":5579:5597  hasBuy[msg.sender] */\n      0x20\n      mstore\n      0x40\n      swap1\n      keccak256\n      sload\n      0xff\n      and\n        /* \"ex/BPresell.sol\":5578:5597  !hasBuy[msg.sender] */\n      iszero\n        /* \"ex/BPresell.sol\":5570:5618  require(!hasBuy[msg.sender],\"already purchased\") */\n      tag_296\n      jumpi\n      mload(0x40)\n      shl(0xe5, 0x461bcd)\n      dup2\n      mstore\n        /* \"#utility.yul\":10546:10548   */\n      0x20\n        /* \"ex/BPresell.sol\":5570:5618  require(!hasBuy[msg.sender],\"already purchased\") */\n      0x04\n      dup3\n      add\n        /* \"#utility.yul\":10528:10549   */\n      mstore\n        /* \"#utility.yul\":10585:10587   */\n      0x11\n        /* \"#utility.yul\":10565:10583   */\n      0x24\n      dup3\n      add\n        /* \"#utility.yul\":10558:10588   */\n      mstore\n      shl(0x7a, 0x185b1c9958591e481c1d5c98da185cd959)\n        /* \"#utility.yul\":10604:10622   */\n      0x44\n      dup3\n      add\n        /* \"#utility.yul\":10597:10644   */\n      mstore\n        /* \"#utility.yul\":10661:10679   */\n      0x64\n      add\n        /* \"ex/BPresell.sol\":5570:5618  require(!hasBuy[msg.sender],\"already purchased\") */\n      tag_186\n        /* \"#utility.yul\":10344:10685   */\n      jump\n        /* \"ex/BPresell.sol\":5570:5618  require(!hasBuy[msg.sender],\"already purchased\") */\n    tag_296:\n        /* \"ex/BPresell.sol\":5689:5699  usdtAmount */\n      0x04\n      dup1\n      sload\n        /* \"ex/BPresell.sol\":5639:5685  usdtToken.allowance(msg.sender, address(this)) */\n      mload(0x40)\n      shl(0xe1, 0x6eb1769f)\n      dup2\n      mstore\n        /* \"ex/BPresell.sol\":5659:5669  msg.sender */\n      caller\n        /* \"ex/BPresell.sol\":5639:5685  usdtToken.allowance(msg.sender, address(this)) */\n      swap3\n      dup2\n      add\n        /* \"#utility.yul\":10902:10936   */\n      swap3\n      swap1\n      swap3\n      mstore\n        /* \"ex/BPresell.sol\":5679:5683  this */\n      address\n        /* \"#utility.yul\":10952:10970   */\n      0x24\n      dup4\n      add\n        /* \"#utility.yul\":10945:10988   */\n      mstore\n        /* \"ex/BPresell.sol\":5689:5699  usdtAmount */\n      swap1\n      sub(shl(0xa0, 0x01), 0x01)\n        /* \"ex/BPresell.sol\":5639:5648  usdtToken */\n      immutable(\"0x555b0a599f654d63fa786356aaa3ed32af39ca11efd351bedfbf54d34ad77d1b\")\n        /* \"ex/BPresell.sol\":5639:5658  usdtToken.allowance */\n      and\n      swap1\n      0xdd62ed3e\n      swap1\n        /* \"#utility.yul\":10837:10855   */\n      0x44\n      add\n        /* \"ex/BPresell.sol\":5639:5685  usdtToken.allowance(msg.sender, address(this)) */\n      0x20\n      mload(0x40)\n      dup1\n      dup4\n      sub\n      dup2\n      dup7\n      gas\n      staticcall\n      iszero\n      dup1\n      iszero\n      tag_302\n      jumpi\n      returndatasize\n      0x00\n      dup1\n      returndatacopy\n      revert(0x00, returndatasize)\n    tag_302:\n      pop\n      pop\n      pop\n      pop\n      mload(0x40)\n      returndatasize\n      not(0x1f)\n      0x1f\n      dup3\n      add\n      and\n      dup3\n      add\n      dup1\n      0x40\n      mstore\n      pop\n      dup2\n      add\n      swap1\n      tag_303\n      swap2\n      swap1\n      tag_304\n      jump\t// in\n    tag_303:\n        /* \"ex/BPresell.sol\":5639:5699  usdtToken.allowance(msg.sender, address(this)) >= usdtAmount */\n      lt\n      iszero\n        /* \"ex/BPresell.sol\":5631:5731  require(usdtToken.allowance(msg.sender, address(this)) >= usdtAmount, \"usdtToken allowance too low\") */\n      tag_305\n      jumpi\n      mload(0x40)\n      shl(0xe5, 0x461bcd)\n      dup2\n      mstore\n        /* \"#utility.yul\":11390:11392   */\n      0x20\n        /* \"ex/BPresell.sol\":5631:5731  require(usdtToken.allowance(msg.sender, address(this)) >= usdtAmount, \"usdtToken allowance too low\") */\n      0x04\n      dup3\n      add\n        /* \"#utility.yul\":11372:11393   */\n      mstore\n        /* \"#utility.yul\":11429:11431   */\n      0x1b\n        /* \"#utility.yul\":11409:11427   */\n      0x24\n      dup3\n      add\n        /* \"#utility.yul\":11402:11432   */\n      mstore\n        /* \"#utility.yul\":11468:11497   */\n      0x75736474546f6b656e20616c6c6f77616e636520746f6f206c6f770000000000\n        /* \"#utility.yul\":11448:11466   */\n      0x44\n      dup3\n      add\n        /* \"#utility.yul\":11441:11498   */\n      mstore\n        /* \"#utility.yul\":11515:11533   */\n      0x64\n      add\n        /* \"ex/BPresell.sol\":5631:5731  require(usdtToken.allowance(msg.sender, address(this)) >= usdtAmount, \"usdtToken allowance too low\") */\n      tag_186\n        /* \"#utility.yul\":11188:11539   */\n      jump\n        /* \"ex/BPresell.sol\":5631:5731  require(usdtToken.allowance(msg.sender, address(this)) >= usdtAmount, \"usdtToken allowance too low\") */\n    tag_305:\n        /* \"ex/BPresell.sol\":5791:5804  marketAddress */\n      sload(0x03)\n        /* \"ex/BPresell.sol\":5806:5816  usdtAmount */\n      0x04\n      dup1\n      sload\n        /* \"ex/BPresell.sol\":5756:5817  usdtToken.transferFrom(msg.sender, marketAddress, usdtAmount) */\n      mload(0x40)\n      shl(0xe0, 0x23b872dd)\n      dup2\n      mstore\n        /* \"ex/BPresell.sol\":5779:5789  msg.sender */\n      caller\n        /* \"ex/BPresell.sol\":5756:5817  usdtToken.transferFrom(msg.sender, marketAddress, usdtAmount) */\n      swap3\n      dup2\n      add\n        /* \"#utility.yul\":11784:11818   */\n      swap3\n      swap1\n      swap3\n      mstore\n      sub(shl(0xa0, 0x01), 0x01)\n        /* \"ex/BPresell.sol\":5791:5804  marketAddress */\n      swap3\n      dup4\n      and\n        /* \"#utility.yul\":11834:11852   */\n      0x24\n      dup4\n      add\n        /* \"#utility.yul\":11827:11870   */\n      mstore\n        /* \"#utility.yul\":11886:11904   */\n      0x44\n      dup3\n      add\n        /* \"#utility.yul\":11879:11913   */\n      mstore\n        /* \"ex/BPresell.sol\":5744:5753  bool sent */\n      0x00\n      swap2\n        /* \"ex/BPresell.sol\":5756:5765  usdtToken */\n      immutable(\"0x555b0a599f654d63fa786356aaa3ed32af39ca11efd351bedfbf54d34ad77d1b\")\n        /* \"ex/BPresell.sol\":5756:5778  usdtToken.transferFrom */\n      and\n      swap1\n      0x23b872dd\n      swap1\n        /* \"#utility.yul\":11719:11737   */\n      0x64\n      add\n        /* \"ex/BPresell.sol\":5756:5817  usdtToken.transferFrom(msg.sender, marketAddress, usdtAmount) */\n      0x20\n      mload(0x40)\n      dup1\n      dup4\n      sub\n      dup2\n      0x00\n      dup8\n      gas\n      call\n      iszero\n      dup1\n      iszero\n      tag_311\n      jumpi\n      returndatasize\n      0x00\n      dup1\n      returndatacopy\n      revert(0x00, returndatasize)\n    tag_311:\n      pop\n      pop\n      pop\n      pop\n      mload(0x40)\n      returndatasize\n      not(0x1f)\n      0x1f\n      dup3\n      add\n      and\n      dup3\n      add\n      dup1\n      0x40\n      mstore\n      pop\n      dup2\n      add\n      swap1\n      tag_312\n      swap2\n      swap1\n      tag_234\n      jump\t// in\n    tag_312:\n        /* \"ex/BPresell.sol\":5744:5817  bool sent = usdtToken.transferFrom(msg.sender, marketAddress, usdtAmount) */\n      swap1\n      pop\n        /* \"ex/BPresell.sol\":5836:5840  sent */\n      dup1\n        /* \"ex/BPresell.sol\":5828:5866  require(sent, \"Token transfer failed\") */\n      tag_313\n      jumpi\n      mload(0x40)\n      shl(0xe5, 0x461bcd)\n      dup2\n      mstore\n      0x04\n      add\n      tag_186\n      swap1\n      tag_237\n      jump\t// in\n    tag_313:\n        /* \"ex/BPresell.sol\":5913:5933  preSellCoinPreAmount */\n      sload(0x05)\n        /* \"ex/BPresell.sol\":5899:5909  msg.sender */\n      caller\n        /* \"ex/BPresell.sol\":5877:5910  userPresellBalanceMap[msg.sender] */\n      0x00\n      swap1\n      dup2\n      mstore\n        /* \"ex/BPresell.sol\":5877:5898  userPresellBalanceMap */\n      0x07\n        /* \"ex/BPresell.sol\":5877:5910  userPresellBalanceMap[msg.sender] */\n      0x20\n      swap1\n      dup2\n      mstore\n      0x40\n      dup1\n      dup4\n      keccak256\n        /* \"ex/BPresell.sol\":5877:5933  userPresellBalanceMap[msg.sender] = preSellCoinPreAmount */\n      swap4\n      swap1\n      swap4\n      sstore\n        /* \"ex/BPresell.sol\":5944:5950  hasBuy */\n      0x08\n        /* \"ex/BPresell.sol\":5944:5962  hasBuy[msg.sender] */\n      swap1\n      mstore\n      swap1\n      dup2\n      keccak256\n        /* \"ex/BPresell.sol\":5944:5969  hasBuy[msg.sender] = true */\n      dup1\n      sload\n      not(0xff)\n      and\n        /* \"ex/BPresell.sol\":5965:5969  true */\n      0x01\n        /* \"ex/BPresell.sol\":5944:5969  hasBuy[msg.sender] = true */\n      or\n      swap1\n      sstore\n        /* \"ex/BPresell.sol\":5980:5987  counter */\n      0x06\n        /* \"ex/BPresell.sol\":5980:5989  counter++ */\n      dup1\n      sload\n      0xffffffff\n      and\n      swap2\n      tag_315\n      dup4\n      tag_280\n      jump\t// in\n    tag_315:\n      swap2\n      swap1\n      0x0100\n      exp\n      dup2\n      sload\n      dup2\n      0xffffffff\n      mul\n      not\n      and\n      swap1\n      dup4\n      0xffffffff\n      and\n      mul\n      or\n      swap1\n      sstore\n      pop\n      pop\n        /* \"ex/BPresell.sol\":6015:6025  msg.sender */\n      caller\n      sub(shl(0xa0, 0x01), 0x01)\n        /* \"ex/BPresell.sol\":6005:6060  BuyTokens(msg.sender, usdtAmount, preSellCoinPreAmount) */\n      and\n      0x0a37b72bb67eee30e09084cf386f8a17817c57f620c3ab95fb25d6a20356ec77\n        /* \"ex/BPresell.sol\":6027:6037  usdtAmount */\n      sload(0x04)\n        /* \"ex/BPresell.sol\":6039:6059  preSellCoinPreAmount */\n      sload(0x05)\n        /* \"ex/BPresell.sol\":6005:6060  BuyTokens(msg.sender, usdtAmount, preSellCoinPreAmount) */\n      mload(0x40)\n      tag_316\n      swap3\n      swap2\n      swap1\n        /* \"#utility.yul\":12098:12123   */\n      swap2\n      dup3\n      mstore\n        /* \"#utility.yul\":12154:12156   */\n      0x20\n        /* \"#utility.yul\":12139:12157   */\n      dup3\n      add\n        /* \"#utility.yul\":12132:12166   */\n      mstore\n        /* \"#utility.yul\":12086:12088   */\n      0x40\n        /* \"#utility.yul\":12071:12089   */\n      add\n      swap1\n        /* \"#utility.yul\":11924:12172   */\n      jump\n        /* \"ex/BPresell.sol\":6005:6060  BuyTokens(msg.sender, usdtAmount, preSellCoinPreAmount) */\n    tag_316:\n      mload(0x40)\n      dup1\n      swap2\n      sub\n      swap1\n      log2\n        /* \"ex/BPresell.sol\":5293:6068  {... */\n      pop\n        /* \"ex/BPresell.sol\":5265:6068  function buyTokens() public {... */\n      jump\t// out\n        /* \"ex/BPresell.sol\":6740:6855  function emergencyWithdraw() external onlyOwner {... */\n    tag_161:\n        /* \"ex/BPresell.sol\":1227:1234  address */\n      0x00\n        /* \"ex/BPresell.sol\":1254:1260  _owner */\n      sload\n      sub(shl(0xa0, 0x01), 0x01)\n      and\n        /* \"ex/BPresell.sol\":635:645  msg.sender */\n      caller\n        /* \"ex/BPresell.sol\":1401:1424  owner() == _msgSender() */\n      eq\n        /* \"ex/BPresell.sol\":1393:1461  require(owner() == _msgSender(), \"Ownable: caller is not the owner\") */\n      tag_323\n      jumpi\n      mload(0x40)\n      shl(0xe5, 0x461bcd)\n      dup2\n      mstore\n      0x04\n      add\n      tag_186\n      swap1\n      tag_187\n      jump\t// in\n    tag_323:\n        /* \"ex/BPresell.sol\":1227:1234  address */\n      0x00\n        /* \"ex/BPresell.sol\":1254:1260  _owner */\n      dup1\n      sload\n        /* \"ex/BPresell.sol\":6799:6847  payable(owner()).transfer(address(this).balance) */\n      mload(0x40)\n      sub(shl(0xa0, 0x01), 0x01)\n        /* \"ex/BPresell.sol\":1254:1260  _owner */\n      swap1\n      swap2\n      and\n      swap2\n        /* \"ex/BPresell.sol\":6825:6846  address(this).balance */\n      selfbalance\n        /* \"ex/BPresell.sol\":6799:6847  payable(owner()).transfer(address(this).balance) */\n      dup1\n      iszero\n      0x08fc\n      mul\n      swap3\n        /* \"ex/BPresell.sol\":6825:6846  address(this).balance */\n      swap1\n      swap2\n        /* \"ex/BPresell.sol\":6799:6847  payable(owner()).transfer(address(this).balance) */\n      dup2\n        /* \"ex/BPresell.sol\":1227:1234  address */\n      dup2\n        /* \"ex/BPresell.sol\":6799:6847  payable(owner()).transfer(address(this).balance) */\n      dup2\n        /* \"ex/BPresell.sol\":6825:6846  address(this).balance */\n      dup6\n        /* \"ex/BPresell.sol\":1254:1260  _owner */\n      dup9\n        /* \"ex/BPresell.sol\":6799:6847  payable(owner()).transfer(address(this).balance) */\n      dup9\n      call\n      swap4\n      pop\n      pop\n      pop\n      pop\n      iszero\n      dup1\n      iszero\n      tag_328\n      jumpi\n      returndatasize\n      0x00\n      dup1\n      returndatacopy\n      revert(0x00, returndatasize)\n    tag_328:\n      pop\n        /* \"ex/BPresell.sol\":6740:6855  function emergencyWithdraw() external onlyOwner {... */\n      jump\t// out\n        /* \"ex/BPresell.sol\":2090:2291  function transferOwnership(address newOwner) public virtual onlyOwner {... */\n    tag_176:\n        /* \"ex/BPresell.sol\":1227:1234  address */\n      0x00\n        /* \"ex/BPresell.sol\":1254:1260  _owner */\n      sload\n      sub(shl(0xa0, 0x01), 0x01)\n      and\n        /* \"ex/BPresell.sol\":635:645  msg.sender */\n      caller\n        /* \"ex/BPresell.sol\":1401:1424  owner() == _msgSender() */\n      eq\n        /* \"ex/BPresell.sol\":1393:1461  require(owner() == _msgSender(), \"Ownable: caller is not the owner\") */\n      tag_333\n      jumpi\n      mload(0x40)\n      shl(0xe5, 0x461bcd)\n      dup2\n      mstore\n      0x04\n      add\n      tag_186\n      swap1\n      tag_187\n      jump\t// in\n    tag_333:\n      sub(shl(0xa0, 0x01), 0x01)\n        /* \"ex/BPresell.sol\":2179:2201  newOwner != address(0) */\n      dup2\n      and\n        /* \"ex/BPresell.sol\":2171:2244  require(newOwner != address(0), \"Ownable: new owner is the zero address\") */\n      tag_336\n      jumpi\n      mload(0x40)\n      shl(0xe5, 0x461bcd)\n      dup2\n      mstore\n        /* \"#utility.yul\":12379:12381   */\n      0x20\n        /* \"ex/BPresell.sol\":2171:2244  require(newOwner != address(0), \"Ownable: new owner is the zero address\") */\n      0x04\n      dup3\n      add\n        /* \"#utility.yul\":12361:12382   */\n      mstore\n        /* \"#utility.yul\":12418:12420   */\n      0x26\n        /* \"#utility.yul\":12398:12416   */\n      0x24\n      dup3\n      add\n        /* \"#utility.yul\":12391:12421   */\n      mstore\n        /* \"#utility.yul\":12457:12491   */\n      0x4f776e61626c653a206e6577206f776e657220697320746865207a65726f2061\n        /* \"#utility.yul\":12437:12455   */\n      0x44\n      dup3\n      add\n        /* \"#utility.yul\":12430:12492   */\n      mstore\n      shl(0xd0, 0x646472657373)\n        /* \"#utility.yul\":12508:12526   */\n      0x64\n      dup3\n      add\n        /* \"#utility.yul\":12501:12537   */\n      mstore\n        /* \"#utility.yul\":12554:12573   */\n      0x84\n      add\n        /* \"ex/BPresell.sol\":2171:2244  require(newOwner != address(0), \"Ownable: new owner is the zero address\") */\n      tag_186\n        /* \"#utility.yul\":12177:12579   */\n      jump\n        /* \"ex/BPresell.sol\":2171:2244  require(newOwner != address(0), \"Ownable: new owner is the zero address\") */\n    tag_336:\n        /* \"ex/BPresell.sol\":2255:2283  _transferOwnership(newOwner) */\n      tag_328\n        /* \"ex/BPresell.sol\":2274:2282  newOwner */\n      dup2\n        /* \"ex/BPresell.sol\":2255:2273  _transferOwnership */\n      tag_251\n        /* \"ex/BPresell.sol\":2255:2283  _transferOwnership(newOwner) */\n      jump\t// in\n        /* \"ex/BPresell.sol\":6863:6971  function setMarketAddress(address newAddress) public onlyOwner {... */\n    tag_179:\n        /* \"ex/BPresell.sol\":1227:1234  address */\n      0x00\n        /* \"ex/BPresell.sol\":1254:1260  _owner */\n      sload\n      sub(shl(0xa0, 0x01), 0x01)\n      and\n        /* \"ex/BPresell.sol\":635:645  msg.sender */\n      caller\n        /* \"ex/BPresell.sol\":1401:1424  owner() == _msgSender() */\n      eq\n        /* \"ex/BPresell.sol\":1393:1461  require(owner() == _msgSender(), \"Ownable: caller is not the owner\") */\n      tag_343\n      jumpi\n      mload(0x40)\n      shl(0xe5, 0x461bcd)\n      dup2\n      mstore\n      0x04\n      add\n      tag_186\n      swap1\n      tag_187\n      jump\t// in\n    tag_343:\n        /* \"ex/BPresell.sol\":6937:6950  marketAddress */\n      0x03\n        /* \"ex/BPresell.sol\":6937:6963  marketAddress = newAddress */\n      dup1\n      sload\n      not(sub(shl(0xa0, 0x01), 0x01))\n      and\n      sub(shl(0xa0, 0x01), 0x01)\n      swap3\n      swap1\n      swap3\n      and\n      swap2\n      swap1\n      swap2\n      or\n      swap1\n      sstore\n        /* \"ex/BPresell.sol\":6863:6971  function setMarketAddress(address newAddress) public onlyOwner {... */\n      jump\t// out\n        /* \"ex/BPresell.sol\":2451:2642  function _transferOwnership(address newOwner) internal virtual {... */\n    tag_251:\n        /* \"ex/BPresell.sol\":2525:2541  address oldOwner */\n      0x00\n        /* \"ex/BPresell.sol\":2544:2550  _owner */\n      dup1\n      sload\n      sub(shl(0xa0, 0x01), 0x01)\n        /* \"ex/BPresell.sol\":2561:2578  _owner = newOwner */\n      dup4\n      dup2\n      and\n      not(sub(shl(0xa0, 0x01), 0x01))\n      dup4\n      and\n      dup2\n      or\n      dup5\n      sstore\n        /* \"ex/BPresell.sol\":2594:2634  OwnershipTransferred(oldOwner, newOwner) */\n      mload(0x40)\n        /* \"ex/BPresell.sol\":2544:2550  _owner */\n      swap2\n      swap1\n      swap3\n      and\n      swap3\n      dup4\n      swap2\n        /* \"ex/BPresell.sol\":2594:2634  OwnershipTransferred(oldOwner, newOwner) */\n      0x8be0079c531659141344cd1fd0a4f28419497f9722a3daafe3b4186f6b6457e0\n      swap2\n        /* \"ex/BPresell.sol\":2525:2541  address oldOwner */\n      swap1\n        /* \"ex/BPresell.sol\":2594:2634  OwnershipTransferred(oldOwner, newOwner) */\n      log3\n        /* \"ex/BPresell.sol\":2514:2642  {... */\n      pop\n        /* \"ex/BPresell.sol\":2451:2642  function _transferOwnership(address newOwner) internal virtual {... */\n      pop\n      jump\t// out\n        /* \"#utility.yul\":427:554   */\n    tag_348:\n        /* \"#utility.yul\":488:498   */\n      0x4e487b71\n        /* \"#utility.yul\":483:486   */\n      0xe0\n        /* \"#utility.yul\":479:499   */\n      shl\n        /* \"#utility.yul\":476:477   */\n      0x00\n        /* \"#utility.yul\":469:500   */\n      mstore\n        /* \"#utility.yul\":519:523   */\n      0x41\n        /* \"#utility.yul\":516:517   */\n      0x04\n        /* \"#utility.yul\":509:524   */\n      mstore\n        /* \"#utility.yul\":543:547   */\n      0x24\n        /* \"#utility.yul\":540:541   */\n      0x00\n        /* \"#utility.yul\":533:548   */\n      revert\n        /* \"#utility.yul\":559:834   */\n    tag_349:\n        /* \"#utility.yul\":630:632   */\n      0x40\n        /* \"#utility.yul\":624:633   */\n      mload\n        /* \"#utility.yul\":695:697   */\n      0x1f\n        /* \"#utility.yul\":676:689   */\n      dup3\n      add\n      not(0x1f)\n        /* \"#utility.yul\":672:699   */\n      and\n        /* \"#utility.yul\":660:700   */\n      dup2\n      add\n      sub(shl(0x40, 0x01), 0x01)\n        /* \"#utility.yul\":715:749   */\n      dup2\n      gt\n        /* \"#utility.yul\":751:773   */\n      dup3\n      dup3\n      lt\n        /* \"#utility.yul\":712:774   */\n      or\n        /* \"#utility.yul\":709:797   */\n      iszero\n      tag_362\n      jumpi\n        /* \"#utility.yul\":777:795   */\n      tag_362\n      tag_348\n      jump\t// in\n    tag_362:\n        /* \"#utility.yul\":813:815   */\n      0x40\n        /* \"#utility.yul\":806:828   */\n      mstore\n        /* \"#utility.yul\":559:834   */\n      swap2\n      swap1\n      pop\n      jump\t// out\n        /* \"#utility.yul\":839:1022   */\n    tag_350:\n        /* \"#utility.yul\":899:903   */\n      0x00\n      sub(shl(0x40, 0x01), 0x01)\n        /* \"#utility.yul\":924:930   */\n      dup3\n        /* \"#utility.yul\":921:951   */\n      gt\n        /* \"#utility.yul\":918:974   */\n      iszero\n      tag_365\n      jumpi\n        /* \"#utility.yul\":954:972   */\n      tag_365\n      tag_348\n      jump\t// in\n    tag_365:\n      pop\n        /* \"#utility.yul\":999:1000   */\n      0x05\n        /* \"#utility.yul\":995:1009   */\n      shl\n        /* \"#utility.yul\":1011:1015   */\n      0x20\n        /* \"#utility.yul\":991:1016   */\n      add\n      swap1\n        /* \"#utility.yul\":839:1022   */\n      jump\t// out\n        /* \"#utility.yul\":1027:1200   */\n    tag_351:\n        /* \"#utility.yul\":1095:1115   */\n      dup1\n      calldataload\n      sub(shl(0xa0, 0x01), 0x01)\n        /* \"#utility.yul\":1144:1175   */\n      dup2\n      and\n        /* \"#utility.yul\":1134:1176   */\n      dup2\n      eq\n        /* \"#utility.yul\":1124:1194   */\n      tag_367\n      jumpi\n        /* \"#utility.yul\":1190:1191   */\n      0x00\n        /* \"#utility.yul\":1187:1188   */\n      dup1\n        /* \"#utility.yul\":1180:1192   */\n      revert\n        /* \"#utility.yul\":1124:1194   */\n    tag_367:\n        /* \"#utility.yul\":1027:1200   */\n      swap2\n      swap1\n      pop\n      jump\t// out\n        /* \"#utility.yul\":1205:1323   */\n    tag_352:\n        /* \"#utility.yul\":1291:1296   */\n      dup1\n        /* \"#utility.yul\":1284:1297   */\n      iszero\n        /* \"#utility.yul\":1277:1298   */\n      iszero\n        /* \"#utility.yul\":1270:1275   */\n      dup2\n        /* \"#utility.yul\":1267:1299   */\n      eq\n        /* \"#utility.yul\":1257:1317   */\n      tag_328\n      jumpi\n        /* \"#utility.yul\":1313:1314   */\n      0x00\n        /* \"#utility.yul\":1310:1311   */\n      dup1\n        /* \"#utility.yul\":1303:1315   */\n      revert\n        /* \"#utility.yul\":1328:2059   */\n    tag_353:\n        /* \"#utility.yul\":1379:1384   */\n      0x00\n        /* \"#utility.yul\":1432:1435   */\n      dup3\n        /* \"#utility.yul\":1425:1429   */\n      0x1f\n        /* \"#utility.yul\":1417:1423   */\n      dup4\n        /* \"#utility.yul\":1413:1430   */\n      add\n        /* \"#utility.yul\":1409:1436   */\n      slt\n        /* \"#utility.yul\":1399:1454   */\n      tag_371\n      jumpi\n        /* \"#utility.yul\":1450:1451   */\n      0x00\n        /* \"#utility.yul\":1447:1448   */\n      dup1\n        /* \"#utility.yul\":1440:1452   */\n      revert\n        /* \"#utility.yul\":1399:1454   */\n    tag_371:\n        /* \"#utility.yul\":1486:1492   */\n      dup2\n        /* \"#utility.yul\":1473:1493   */\n      calldataload\n        /* \"#utility.yul\":1512:1516   */\n      0x20\n        /* \"#utility.yul\":1536:1596   */\n      tag_372\n        /* \"#utility.yul\":1552:1595   */\n      tag_373\n        /* \"#utility.yul\":1592:1594   */\n      dup4\n        /* \"#utility.yul\":1552:1595   */\n      tag_350\n      jump\t// in\n    tag_373:\n        /* \"#utility.yul\":1536:1596   */\n      tag_349\n      jump\t// in\n    tag_372:\n        /* \"#utility.yul\":1630:1645   */\n      dup3\n      dup2\n      mstore\n        /* \"#utility.yul\":1716:1717   */\n      0x05\n        /* \"#utility.yul\":1712:1722   */\n      swap3\n      swap1\n      swap3\n      shl\n        /* \"#utility.yul\":1700:1723   */\n      dup5\n      add\n        /* \"#utility.yul\":1696:1728   */\n      dup2\n      add\n      swap2\n        /* \"#utility.yul\":1661:1673   */\n      dup2\n      dup2\n      add\n      swap1\n        /* \"#utility.yul\":1740:1755   */\n      dup7\n      dup5\n      gt\n        /* \"#utility.yul\":1737:1772   */\n      iszero\n      tag_374\n      jumpi\n        /* \"#utility.yul\":1768:1769   */\n      0x00\n        /* \"#utility.yul\":1765:1766   */\n      dup1\n        /* \"#utility.yul\":1758:1770   */\n      revert\n        /* \"#utility.yul\":1737:1772   */\n    tag_374:\n        /* \"#utility.yul\":1804:1806   */\n      dup3\n        /* \"#utility.yul\":1796:1802   */\n      dup7\n        /* \"#utility.yul\":1792:1807   */\n      add\n        /* \"#utility.yul\":1816:2030   */\n    tag_375:\n        /* \"#utility.yul\":1832:1838   */\n      dup5\n        /* \"#utility.yul\":1827:1830   */\n      dup2\n        /* \"#utility.yul\":1824:1839   */\n      lt\n        /* \"#utility.yul\":1816:2030   */\n      iszero\n      tag_377\n      jumpi\n        /* \"#utility.yul\":1912:1915   */\n      dup1\n        /* \"#utility.yul\":1899:1916   */\n      calldataload\n        /* \"#utility.yul\":1929:1957   */\n      tag_378\n        /* \"#utility.yul\":1951:1956   */\n      dup2\n        /* \"#utility.yul\":1929:1957   */\n      tag_352\n      jump\t// in\n    tag_378:\n        /* \"#utility.yul\":1970:1988   */\n      dup4\n      mstore\n        /* \"#utility.yul\":2008:2020   */\n      swap2\n      dup4\n      add\n      swap2\n        /* \"#utility.yul\":1849:1861   */\n      dup4\n      add\n        /* \"#utility.yul\":1816:2030   */\n      jump(tag_375)\n    tag_377:\n      pop\n        /* \"#utility.yul\":2048:2053   */\n      swap7\n        /* \"#utility.yul\":1328:2059   */\n      swap6\n      pop\n      pop\n      pop\n      pop\n      pop\n      pop\n      jump\t// out\n        /* \"#utility.yul\":2064:3204   */\n    tag_59:\n        /* \"#utility.yul\":2179:2185   */\n      0x00\n        /* \"#utility.yul\":2187:2193   */\n      dup1\n        /* \"#utility.yul\":2240:2242   */\n      0x40\n        /* \"#utility.yul\":2228:2237   */\n      dup4\n        /* \"#utility.yul\":2219:2226   */\n      dup6\n        /* \"#utility.yul\":2215:2238   */\n      sub\n        /* \"#utility.yul\":2211:2243   */\n      slt\n        /* \"#utility.yul\":2208:2260   */\n      iszero\n      tag_380\n      jumpi\n        /* \"#utility.yul\":2256:2257   */\n      0x00\n        /* \"#utility.yul\":2253:2254   */\n      dup1\n        /* \"#utility.yul\":2246:2258   */\n      revert\n        /* \"#utility.yul\":2208:2260   */\n    tag_380:\n        /* \"#utility.yul\":2296:2305   */\n      dup3\n        /* \"#utility.yul\":2283:2306   */\n      calldataload\n      sub(shl(0x40, 0x01), 0x01)\n        /* \"#utility.yul\":2366:2368   */\n      dup1\n        /* \"#utility.yul\":2358:2364   */\n      dup3\n        /* \"#utility.yul\":2355:2369   */\n      gt\n        /* \"#utility.yul\":2352:2386   */\n      iszero\n      tag_381\n      jumpi\n        /* \"#utility.yul\":2382:2383   */\n      0x00\n        /* \"#utility.yul\":2379:2380   */\n      dup1\n        /* \"#utility.yul\":2372:2384   */\n      revert\n        /* \"#utility.yul\":2352:2386   */\n    tag_381:\n        /* \"#utility.yul\":2420:2426   */\n      dup2\n        /* \"#utility.yul\":2409:2418   */\n      dup6\n        /* \"#utility.yul\":2405:2427   */\n      add\n        /* \"#utility.yul\":2395:2427   */\n      swap2\n      pop\n        /* \"#utility.yul\":2465:2472   */\n      dup6\n        /* \"#utility.yul\":2458:2462   */\n      0x1f\n        /* \"#utility.yul\":2454:2456   */\n      dup4\n        /* \"#utility.yul\":2450:2463   */\n      add\n        /* \"#utility.yul\":2446:2473   */\n      slt\n        /* \"#utility.yul\":2436:2491   */\n      tag_382\n      jumpi\n        /* \"#utility.yul\":2487:2488   */\n      0x00\n        /* \"#utility.yul\":2484:2485   */\n      dup1\n        /* \"#utility.yul\":2477:2489   */\n      revert\n        /* \"#utility.yul\":2436:2491   */\n    tag_382:\n        /* \"#utility.yul\":2523:2525   */\n      dup2\n        /* \"#utility.yul\":2510:2526   */\n      calldataload\n        /* \"#utility.yul\":2545:2549   */\n      0x20\n        /* \"#utility.yul\":2569:2629   */\n      tag_383\n        /* \"#utility.yul\":2585:2628   */\n      tag_373\n        /* \"#utility.yul\":2625:2627   */\n      dup4\n        /* \"#utility.yul\":2585:2628   */\n      tag_350\n      jump\t// in\n        /* \"#utility.yul\":2569:2629   */\n    tag_383:\n        /* \"#utility.yul\":2663:2678   */\n      dup3\n      dup2\n      mstore\n        /* \"#utility.yul\":2745:2746   */\n      0x05\n        /* \"#utility.yul\":2741:2751   */\n      swap3\n      swap1\n      swap3\n      shl\n        /* \"#utility.yul\":2733:2752   */\n      dup5\n      add\n        /* \"#utility.yul\":2729:2757   */\n      dup2\n      add\n      swap2\n        /* \"#utility.yul\":2694:2706   */\n      dup2\n      dup2\n      add\n      swap1\n        /* \"#utility.yul\":2769:2788   */\n      dup10\n      dup5\n      gt\n        /* \"#utility.yul\":2766:2805   */\n      iszero\n      tag_385\n      jumpi\n        /* \"#utility.yul\":2801:2802   */\n      0x00\n        /* \"#utility.yul\":2798:2799   */\n      dup1\n        /* \"#utility.yul\":2791:2803   */\n      revert\n        /* \"#utility.yul\":2766:2805   */\n    tag_385:\n        /* \"#utility.yul\":2825:2836   */\n      swap5\n      dup3\n      add\n      swap5\n        /* \"#utility.yul\":2845:2993   */\n    tag_386:\n        /* \"#utility.yul\":2861:2867   */\n      dup4\n        /* \"#utility.yul\":2856:2859   */\n      dup7\n        /* \"#utility.yul\":2853:2868   */\n      lt\n        /* \"#utility.yul\":2845:2993   */\n      iszero\n      tag_388\n      jumpi\n        /* \"#utility.yul\":2927:2950   */\n      tag_389\n        /* \"#utility.yul\":2946:2949   */\n      dup7\n        /* \"#utility.yul\":2927:2950   */\n      tag_351\n      jump\t// in\n    tag_389:\n        /* \"#utility.yul\":2915:2951   */\n      dup3\n      mstore\n        /* \"#utility.yul\":2878:2890   */\n      swap5\n      dup3\n      add\n      swap5\n        /* \"#utility.yul\":2971:2983   */\n      swap1\n      dup3\n      add\n      swap1\n        /* \"#utility.yul\":2845:2993   */\n      jump(tag_386)\n    tag_388:\n        /* \"#utility.yul\":3012:3017   */\n      swap7\n      pop\n      pop\n        /* \"#utility.yul\":3055:3073   */\n      dup7\n      add\n        /* \"#utility.yul\":3042:3074   */\n      calldataload\n      swap3\n      pop\n      pop\n        /* \"#utility.yul\":3086:3102   */\n      dup1\n      dup3\n      gt\n        /* \"#utility.yul\":3083:3119   */\n      iszero\n      tag_390\n      jumpi\n        /* \"#utility.yul\":3115:3116   */\n      0x00\n        /* \"#utility.yul\":3112:3113   */\n      dup1\n        /* \"#utility.yul\":3105:3117   */\n      revert\n        /* \"#utility.yul\":3083:3119   */\n    tag_390:\n      pop\n        /* \"#utility.yul\":3138:3198   */\n      tag_391\n        /* \"#utility.yul\":3190:3197   */\n      dup6\n        /* \"#utility.yul\":3179:3187   */\n      dup3\n        /* \"#utility.yul\":3168:3177   */\n      dup7\n        /* \"#utility.yul\":3164:3188   */\n      add\n        /* \"#utility.yul\":3138:3198   */\n      tag_353\n      jump\t// in\n    tag_391:\n        /* \"#utility.yul\":3128:3198   */\n      swap2\n      pop\n      pop\n        /* \"#utility.yul\":2064:3204   */\n      swap3\n      pop\n      swap3\n      swap1\n      pop\n      jump\t// out\n        /* \"#utility.yul\":3209:3389   */\n    tag_63:\n        /* \"#utility.yul\":3268:3274   */\n      0x00\n        /* \"#utility.yul\":3321:3323   */\n      0x20\n        /* \"#utility.yul\":3309:3318   */\n      dup3\n        /* \"#utility.yul\":3300:3307   */\n      dup5\n        /* \"#utility.yul\":3296:3319   */\n      sub\n        /* \"#utility.yul\":3292:3324   */\n      slt\n        /* \"#utility.yul\":3289:3341   */\n      iszero\n      tag_393\n      jumpi\n        /* \"#utility.yul\":3337:3338   */\n      0x00\n        /* \"#utility.yul\":3334:3335   */\n      dup1\n        /* \"#utility.yul\":3327:3339   */\n      revert\n        /* \"#utility.yul\":3289:3341   */\n    tag_393:\n      pop\n        /* \"#utility.yul\":3360:3383   */\n      calldataload\n      swap2\n        /* \"#utility.yul\":3209:3389   */\n      swap1\n      pop\n      jump\t// out\n        /* \"#utility.yul\":3394:3580   */\n    tag_67:\n        /* \"#utility.yul\":3453:3459   */\n      0x00\n        /* \"#utility.yul\":3506:3508   */\n      0x20\n        /* \"#utility.yul\":3494:3503   */\n      dup3\n        /* \"#utility.yul\":3485:3492   */\n      dup5\n        /* \"#utility.yul\":3481:3504   */\n      sub\n        /* \"#utility.yul\":3477:3509   */\n      slt\n        /* \"#utility.yul\":3474:3526   */\n      iszero\n      tag_395\n      jumpi\n        /* \"#utility.yul\":3522:3523   */\n      0x00\n        /* \"#utility.yul\":3519:3520   */\n      dup1\n        /* \"#utility.yul\":3512:3524   */\n      revert\n        /* \"#utility.yul\":3474:3526   */\n    tag_395:\n        /* \"#utility.yul\":3545:3574   */\n      tag_396\n        /* \"#utility.yul\":3564:3573   */\n      dup3\n        /* \"#utility.yul\":3545:3574   */\n      tag_351\n      jump\t// in\n    tag_396:\n        /* \"#utility.yul\":3535:3574   */\n      swap4\n        /* \"#utility.yul\":3394:3580   */\n      swap3\n      pop\n      pop\n      pop\n      jump\t// out\n        /* \"#utility.yul\":3777:4092   */\n    tag_77:\n        /* \"#utility.yul\":3842:3848   */\n      0x00\n        /* \"#utility.yul\":3850:3856   */\n      dup1\n        /* \"#utility.yul\":3903:3905   */\n      0x40\n        /* \"#utility.yul\":3891:3900   */\n      dup4\n        /* \"#utility.yul\":3882:3889   */\n      dup6\n        /* \"#utility.yul\":3878:3901   */\n      sub\n        /* \"#utility.yul\":3874:3906   */\n      slt\n        /* \"#utility.yul\":3871:3923   */\n      iszero\n      tag_399\n      jumpi\n        /* \"#utility.yul\":3919:3920   */\n      0x00\n        /* \"#utility.yul\":3916:3917   */\n      dup1\n        /* \"#utility.yul\":3909:3921   */\n      revert\n        /* \"#utility.yul\":3871:3923   */\n    tag_399:\n        /* \"#utility.yul\":3942:3971   */\n      tag_400\n        /* \"#utility.yul\":3961:3970   */\n      dup4\n        /* \"#utility.yul\":3942:3971   */\n      tag_351\n      jump\t// in\n    tag_400:\n        /* \"#utility.yul\":3932:3971   */\n      swap2\n      pop\n        /* \"#utility.yul\":4021:4023   */\n      0x20\n        /* \"#utility.yul\":4010:4019   */\n      dup4\n        /* \"#utility.yul\":4006:4024   */\n      add\n        /* \"#utility.yul\":3993:4025   */\n      calldataload\n        /* \"#utility.yul\":4034:4062   */\n      tag_401\n        /* \"#utility.yul\":4056:4061   */\n      dup2\n        /* \"#utility.yul\":4034:4062   */\n      tag_352\n      jump\t// in\n    tag_401:\n        /* \"#utility.yul\":4081:4086   */\n      dup1\n        /* \"#utility.yul\":4071:4086   */\n      swap2\n      pop\n      pop\n        /* \"#utility.yul\":3777:4092   */\n      swap3\n      pop\n      swap3\n      swap1\n      pop\n      jump\t// out\n        /* \"#utility.yul\":4097:4338   */\n    tag_88:\n        /* \"#utility.yul\":4153:4159   */\n      0x00\n        /* \"#utility.yul\":4206:4208   */\n      0x20\n        /* \"#utility.yul\":4194:4203   */\n      dup3\n        /* \"#utility.yul\":4185:4192   */\n      dup5\n        /* \"#utility.yul\":4181:4204   */\n      sub\n        /* \"#utility.yul\":4177:4209   */\n      slt\n        /* \"#utility.yul\":4174:4226   */\n      iszero\n      tag_403\n      jumpi\n        /* \"#utility.yul\":4222:4223   */\n      0x00\n        /* \"#utility.yul\":4219:4220   */\n      dup1\n        /* \"#utility.yul\":4212:4224   */\n      revert\n        /* \"#utility.yul\":4174:4226   */\n    tag_403:\n        /* \"#utility.yul\":4261:4270   */\n      dup2\n        /* \"#utility.yul\":4248:4271   */\n      calldataload\n        /* \"#utility.yul\":4280:4308   */\n      tag_396\n        /* \"#utility.yul\":4302:4307   */\n      dup2\n        /* \"#utility.yul\":4280:4308   */\n      tag_352\n      jump\t// in\n        /* \"#utility.yul\":4722:4998   */\n    tag_103:\n        /* \"#utility.yul\":4780:4786   */\n      0x00\n        /* \"#utility.yul\":4833:4835   */\n      0x20\n        /* \"#utility.yul\":4821:4830   */\n      dup3\n        /* \"#utility.yul\":4812:4819   */\n      dup5\n        /* \"#utility.yul\":4808:4831   */\n      sub\n        /* \"#utility.yul\":4804:4836   */\n      slt\n        /* \"#utility.yul\":4801:4853   */\n      iszero\n      tag_408\n      jumpi\n        /* \"#utility.yul\":4849:4850   */\n      0x00\n        /* \"#utility.yul\":4846:4847   */\n      dup1\n        /* \"#utility.yul\":4839:4851   */\n      revert\n        /* \"#utility.yul\":4801:4853   */\n    tag_408:\n        /* \"#utility.yul\":4888:4897   */\n      dup2\n        /* \"#utility.yul\":4875:4898   */\n      calldataload\n        /* \"#utility.yul\":4938:4948   */\n      0xffffffff\n        /* \"#utility.yul\":4931:4936   */\n      dup2\n        /* \"#utility.yul\":4927:4949   */\n      and\n        /* \"#utility.yul\":4920:4925   */\n      dup2\n        /* \"#utility.yul\":4917:4950   */\n      eq\n        /* \"#utility.yul\":4907:4968   */\n      tag_396\n      jumpi\n        /* \"#utility.yul\":4964:4965   */\n      0x00\n        /* \"#utility.yul\":4961:4962   */\n      dup1\n        /* \"#utility.yul\":4954:4966   */\n      revert\n        /* \"#utility.yul\":5224:5395   */\n    tag_354:\n        /* \"#utility.yul\":5291:5311   */\n      dup1\n      calldataload\n      sub(shl(0x40, 0x01), 0x01)\n        /* \"#utility.yul\":5340:5370   */\n      dup2\n      and\n        /* \"#utility.yul\":5330:5371   */\n      dup2\n      eq\n        /* \"#utility.yul\":5320:5389   */\n      tag_367\n      jumpi\n        /* \"#utility.yul\":5385:5386   */\n      0x00\n        /* \"#utility.yul\":5382:5383   */\n      dup1\n        /* \"#utility.yul\":5375:5387   */\n      revert\n        /* \"#utility.yul\":5400:5656   */\n    tag_139:\n        /* \"#utility.yul\":5466:5472   */\n      0x00\n        /* \"#utility.yul\":5474:5480   */\n      dup1\n        /* \"#utility.yul\":5527:5529   */\n      0x40\n        /* \"#utility.yul\":5515:5524   */\n      dup4\n        /* \"#utility.yul\":5506:5513   */\n      dup6\n        /* \"#utility.yul\":5502:5525   */\n      sub\n        /* \"#utility.yul\":5498:5530   */\n      slt\n        /* \"#utility.yul\":5495:5547   */\n      iszero\n      tag_414\n      jumpi\n        /* \"#utility.yul\":5543:5544   */\n      0x00\n        /* \"#utility.yul\":5540:5541   */\n      dup1\n        /* \"#utility.yul\":5533:5545   */\n      revert\n        /* \"#utility.yul\":5495:5547   */\n    tag_414:\n        /* \"#utility.yul\":5566:5594   */\n      tag_415\n        /* \"#utility.yul\":5584:5593   */\n      dup4\n        /* \"#utility.yul\":5566:5594   */\n      tag_354\n      jump\t// in\n    tag_415:\n        /* \"#utility.yul\":5556:5594   */\n      swap2\n      pop\n        /* \"#utility.yul\":5613:5650   */\n      tag_416\n        /* \"#utility.yul\":5646:5648   */\n      0x20\n        /* \"#utility.yul\":5635:5644   */\n      dup5\n        /* \"#utility.yul\":5631:5649   */\n      add\n        /* \"#utility.yul\":5613:5650   */\n      tag_354\n      jump\t// in\n    tag_416:\n        /* \"#utility.yul\":5603:5650   */\n      swap1\n      pop\n        /* \"#utility.yul\":5400:5656   */\n      swap3\n      pop\n      swap3\n      swap1\n      pop\n      jump\t// out\n        /* \"#utility.yul\":5661:6017   */\n    tag_187:\n        /* \"#utility.yul\":5863:5865   */\n      0x20\n        /* \"#utility.yul\":5845:5866   */\n      dup1\n      dup3\n      mstore\n        /* \"#utility.yul\":5882:5900   */\n      dup2\n      dup2\n      add\n        /* \"#utility.yul\":5875:5905   */\n      mstore\n        /* \"#utility.yul\":5941:5975   */\n      0x4f776e61626c653a2063616c6c6572206973206e6f7420746865206f776e6572\n        /* \"#utility.yul\":5936:5938   */\n      0x40\n        /* \"#utility.yul\":5921:5939   */\n      dup3\n      add\n        /* \"#utility.yul\":5914:5976   */\n      mstore\n        /* \"#utility.yul\":6008:6010   */\n      0x60\n        /* \"#utility.yul\":5993:6011   */\n      add\n      swap1\n        /* \"#utility.yul\":5661:6017   */\n      jump\t// out\n        /* \"#utility.yul\":6369:6496   */\n    tag_198:\n        /* \"#utility.yul\":6430:6440   */\n      0x4e487b71\n        /* \"#utility.yul\":6425:6428   */\n      0xe0\n        /* \"#utility.yul\":6421:6441   */\n      shl\n        /* \"#utility.yul\":6418:6419   */\n      0x00\n        /* \"#utility.yul\":6411:6442   */\n      mstore\n        /* \"#utility.yul\":6461:6465   */\n      0x32\n        /* \"#utility.yul\":6458:6459   */\n      0x04\n        /* \"#utility.yul\":6451:6466   */\n      mstore\n        /* \"#utility.yul\":6485:6489   */\n      0x24\n        /* \"#utility.yul\":6482:6483   */\n      0x00\n        /* \"#utility.yul\":6475:6490   */\n      revert\n        /* \"#utility.yul\":6501:6628   */\n    tag_355:\n        /* \"#utility.yul\":6562:6572   */\n      0x4e487b71\n        /* \"#utility.yul\":6557:6560   */\n      0xe0\n        /* \"#utility.yul\":6553:6573   */\n      shl\n        /* \"#utility.yul\":6550:6551   */\n      0x00\n        /* \"#utility.yul\":6543:6574   */\n      mstore\n        /* \"#utility.yul\":6593:6597   */\n      0x11\n        /* \"#utility.yul\":6590:6591   */\n      0x04\n        /* \"#utility.yul\":6583:6598   */\n      mstore\n        /* \"#utility.yul\":6617:6621   */\n      0x24\n        /* \"#utility.yul\":6614:6615   */\n      0x00\n        /* \"#utility.yul\":6607:6622   */\n      revert\n        /* \"#utility.yul\":6633:6768   */\n    tag_202:\n        /* \"#utility.yul\":6672:6675   */\n      0x00\n        /* \"#utility.yul\":6693:6710   */\n      0x01\n      dup3\n      add\n        /* \"#utility.yul\":6690:6733   */\n      tag_423\n      jumpi\n        /* \"#utility.yul\":6713:6731   */\n      tag_423\n      tag_355\n      jump\t// in\n    tag_423:\n      pop\n        /* \"#utility.yul\":6760:6761   */\n      0x01\n        /* \"#utility.yul\":6749:6762   */\n      add\n      swap1\n        /* \"#utility.yul\":6633:6768   */\n      jump\t// out\n        /* \"#utility.yul\":7052:7297   */\n    tag_234:\n        /* \"#utility.yul\":7119:7125   */\n      0x00\n        /* \"#utility.yul\":7172:7174   */\n      0x20\n        /* \"#utility.yul\":7160:7169   */\n      dup3\n        /* \"#utility.yul\":7151:7158   */\n      dup5\n        /* \"#utility.yul\":7147:7170   */\n      sub\n        /* \"#utility.yul\":7143:7175   */\n      slt\n        /* \"#utility.yul\":7140:7192   */\n      iszero\n      tag_426\n      jumpi\n        /* \"#utility.yul\":7188:7189   */\n      0x00\n        /* \"#utility.yul\":7185:7186   */\n      dup1\n        /* \"#utility.yul\":7178:7190   */\n      revert\n        /* \"#utility.yul\":7140:7192   */\n    tag_426:\n        /* \"#utility.yul\":7220:7229   */\n      dup2\n        /* \"#utility.yul\":7214:7230   */\n      mload\n        /* \"#utility.yul\":7239:7267   */\n      tag_396\n        /* \"#utility.yul\":7261:7266   */\n      dup2\n        /* \"#utility.yul\":7239:7267   */\n      tag_352\n      jump\t// in\n        /* \"#utility.yul\":7302:7647   */\n    tag_237:\n        /* \"#utility.yul\":7504:7506   */\n      0x20\n        /* \"#utility.yul\":7486:7507   */\n      dup1\n      dup3\n      mstore\n        /* \"#utility.yul\":7543:7545   */\n      0x15\n        /* \"#utility.yul\":7523:7541   */\n      swap1\n      dup3\n      add\n        /* \"#utility.yul\":7516:7546   */\n      mstore\n      shl(0x5a, 0x151bdad95b881d1c985b9cd9995c8819985a5b1959)\n        /* \"#utility.yul\":7577:7579   */\n      0x40\n        /* \"#utility.yul\":7562:7580   */\n      dup3\n      add\n        /* \"#utility.yul\":7555:7606   */\n      mstore\n        /* \"#utility.yul\":7638:7640   */\n      0x60\n        /* \"#utility.yul\":7623:7641   */\n      add\n      swap1\n        /* \"#utility.yul\":7302:7647   */\n      jump\t// out\n        /* \"#utility.yul\":8769:8970   */\n    tag_280:\n        /* \"#utility.yul\":8807:8810   */\n      0x00\n        /* \"#utility.yul\":8835:8845   */\n      0xffffffff\n        /* \"#utility.yul\":8880:8882   */\n      dup1\n        /* \"#utility.yul\":8873:8878   */\n      dup4\n        /* \"#utility.yul\":8869:8883   */\n      and\n        /* \"#utility.yul\":8907:8909   */\n      dup2\n        /* \"#utility.yul\":8898:8905   */\n      dup2\n        /* \"#utility.yul\":8895:8910   */\n      sub\n        /* \"#utility.yul\":8892:8933   */\n      tag_434\n      jumpi\n        /* \"#utility.yul\":8913:8931   */\n      tag_434\n      tag_355\n      jump\t// in\n    tag_434:\n        /* \"#utility.yul\":8962:8963   */\n      0x01\n        /* \"#utility.yul\":8949:8964   */\n      add\n      swap4\n        /* \"#utility.yul\":8769:8970   */\n      swap3\n      pop\n      pop\n      pop\n      jump\t// out\n        /* \"#utility.yul\":10999:11183   */\n    tag_304:\n        /* \"#utility.yul\":11069:11075   */\n      0x00\n        /* \"#utility.yul\":11122:11124   */\n      0x20\n        /* \"#utility.yul\":11110:11119   */\n      dup3\n        /* \"#utility.yul\":11101:11108   */\n      dup5\n        /* \"#utility.yul\":11097:11120   */\n      sub\n        /* \"#utility.yul\":11093:11125   */\n      slt\n        /* \"#utility.yul\":11090:11142   */\n      iszero\n      tag_442\n      jumpi\n        /* \"#utility.yul\":11138:11139   */\n      0x00\n        /* \"#utility.yul\":11135:11136   */\n      dup1\n        /* \"#utility.yul\":11128:11140   */\n      revert\n        /* \"#utility.yul\":11090:11142   */\n    tag_442:\n      pop\n        /* \"#utility.yul\":11161:11177   */\n      mload\n      swap2\n        /* \"#utility.yul\":10999:11183   */\n      swap1\n      pop\n      jump\t// out\n\n    auxdata: 0xa26469706673582212205ef0edaa42d135f1b63c7cb88be091933d79df171ee4e45e1ff901bdb257023664736f6c63430008110033\n}\n",
				"bytecode": {
					"linkReferences": {},
					"object": "60c0604052600180546001600160a01b03199081167355d398326f99059ff775485246999027b31979551790915560028054821673a3247b33baa9ea15b699c77237d5b16f5cfd822f17905560038054909116733ee8e26053649b3cf811625dcd2ade2b8eb81f47179055670de0b6b3a764000060045568f3f20b8dfa69d000006005556006805468dc000000000000000063ffffffff60401b19909116179055348015620000ad57600080fd5b506040516200185f3803806200185f833981016040819052620000d0916200025a565b620000db33620001ed565b42826001600160401b031610156200012b5760405162461bcd60e51b815260206004820152600e60248201526d7374617274206174203c206e6f7760901b60448201526064015b60405180910390fd5b816001600160401b0316816001600160401b03161015620001835760405162461bcd60e51b8152602060048201526011602482015270195b9908185d080f081cdd185c9d08185d607a1b604482015260640162000122565b60068054600160601b600160e01b0319166c010000000000000000000000006001600160401b0394851602600160a01b600160e01b03191617600160a01b92909316919091029190911790556001546001600160a01b039081166080526002541660a05262000292565b600080546001600160a01b038381166001600160a01b0319831681178455604051919092169283917f8be0079c531659141344cd1fd0a4f28419497f9722a3daafe3b4186f6b6457e09190a35050565b80516001600160401b03811681146200025557600080fd5b919050565b600080604083850312156200026e57600080fd5b62000279836200023d565b915062000289602084016200023d565b90509250929050565b60805160a05161158b620002d460003960008181610495015281816107c30152610abe0152600081816104bc01528181610dc70152610eb6015261158b6000f3fe608060405234801561001057600080fd5b506004361061023d5760003560e01c80638da5cb5b1161013b578063d0febe4c116100b8578063e25f9f2f1161007c578063e25f9f2f14610584578063e4eef8961461059b578063f01fc57c146105a4578063f2fde38b146105b2578063fae92612146105c557600080fd5b8063d0febe4c14610543578063d1d04e1f1461054b578063d35cde4114610560578063db2e21bc14610568578063dcd836161461057057600080fd5b8063acf6c91c116100ff578063acf6c91c146104de578063c7446565146104f1578063c828371e1461050b578063c9ede79314610523578063ca16e3eb1461052b57600080fd5b80638da5cb5b1461044c57806390f5881a1461045d578063956236411461047d5780639769f0b014610490578063a98ad46c146104b757600080fd5b806350b2b0a4116101c9578063715018a61161018d578063715018a6146103e657806378eb6c6f146103ee5780637cc3ae8c146103f65780638568f4ce1461041057806388af60c61461043957600080fd5b806350b2b0a4146103715780635f8524fb146103845780635fc1cb631461039b57806361bc221a146103ae57806369c82ef7146103d357600080fd5b8063372c12b111610210578063372c12b1146102c4578063374eedef146102f757806339b417b7146103235780633d719da714610336578063439f5ac21461035957600080fd5b8063027734fa1461024257806303d7424d1461027257806308c9d2271461029c578063271f88b4146102b1575b600080fd5b600254610255906001600160a01b031681565b6040516001600160a01b0390911681526020015b60405180910390f35b600654640100000000900463ffffffff165b6040516001600160401b039091168152602001610269565b6102af6102aa366004611295565b6105d8565b005b6102af6102bf366004611354565b6106ae565b6102e76102d236600461136d565b60096020526000908152604090205460ff1681565b6040519015158152602001610269565b6102e761030536600461136d565b6001600160a01b031660009081526008602052604090205460ff1690565b6102af61033136600461138f565b6106dd565b6102e761034436600461136d565b60086020526000908152604090205460ff1681565b600654600160a01b90046001600160401b0316610284565b6102af61037f3660046113c6565b610732565b61038d60055481565b604051908152602001610269565b6102af6103a9366004611354565b61077a565b6006546103be9063ffffffff1681565b60405163ffffffff9091168152602001610269565b6102af6103e13660046113e3565b61085b565b6102af6108b0565b60055461038d565b60065461028490600160a01b90046001600160401b031681565b61038d61041e36600461136d565b6001600160a01b031660009081526007602052604090205490565b600154610255906001600160a01b031681565b6000546001600160a01b0316610255565b61038d61046b36600461136d565b60076020526000908152604090205481565b600354610255906001600160a01b031681565b6102557f000000000000000000000000000000000000000000000000000000000000000081565b6102557f000000000000000000000000000000000000000000000000000000000000000081565b6102af6104ec366004611420565b6108e6565b60065461028490600160601b90046001600160401b031681565b600654600160601b90046001600160401b0316610284565b6102af6109fa565b6006546103be90640100000000900463ffffffff1681565b6102af610be6565b600654600160401b900463ffffffff166103be565b60045461038d565b6102af610ff3565b6006546102e790600160e01b900460ff1681565b6006546103be90600160401b900463ffffffff1681565b61038d60045481565b60065463ffffffff16610284565b6102af6105c036600461136d565b61105a565b6102af6105d336600461136d565b6110f2565b6000546001600160a01b0316331461060b5760405162461bcd60e51b815260040161060290611453565b60405180910390fd5b80518251146106515760405162461bcd60e51b815260206004820152601260248201527130b93930ba103632b733ba341032b93937b960711b6044820152606401610602565b60005b82518110156106a95761069983828151811061067257610672611488565b602002602001015183838151811061068c5761068c611488565b60200260200101516106dd565b6106a2816114b4565b9050610654565b505050565b6000546001600160a01b031633146106d85760405162461bcd60e51b815260040161060290611453565b600455565b6000546001600160a01b031633146107075760405162461bcd60e51b815260040161060290611453565b6001600160a01b03919091166000908152600960205260409020805460ff1916911515919091179055565b6000546001600160a01b0316331461075c5760405162461bcd60e51b815260040161060290611453565b60068054911515600160e01b0260ff60e01b19909216919091179055565b6000546001600160a01b031633146107a45760405162461bcd60e51b815260040161060290611453565b60405163a9059cbb60e01b8152336004820152602481018290526000907f00000000000000000000000000000000000000000000000000000000000000006001600160a01b03169063a9059cbb906044016020604051808303816000875af1158015610814573d6000803e3d6000fd5b505050506040513d601f19601f8201168201806040525081019061083891906114cd565b9050806108575760405162461bcd60e51b8152600401610602906114ea565b5050565b6000546001600160a01b031633146108855760405162461bcd60e51b815260040161060290611453565b6006805463ffffffff909216600160401b026bffffffff000000000000000019909216919091179055565b6000546001600160a01b031633146108da5760405162461bcd60e51b815260040161060290611453565b6108e4600061113e565b565b6000546001600160a01b031633146109105760405162461bcd60e51b815260040161060290611453565b42826001600160401b03161180156109395750816001600160401b0316816001600160401b0316115b6109ab5760405162461bcd60e51b815260206004820152603a60248201527f5468652073746172742074696d652068617320706173736564206f7220656e6460448201527f2074696d65206d757374206d6f7265207468616e2073746172740000000000006064820152608401610602565b600680546fffffffffffffffffffffffffffffffff60601b1916600160601b6001600160401b039485160267ffffffffffffffff60a01b191617600160a01b9290931691909102919091179055565b60065442600160a01b9091046001600160401b031610610a4e5760405162461bcd60e51b815260206004820152600f60248201526e1c1c995cd95b1b081b9bdd08195b99608a1b6044820152606401610602565b3360009081526007602052604090205480610a9f5760405162461bcd60e51b8152602060048201526011602482015270757365722062616c616e6365207a65726f60781b6044820152606401610602565b60405163a9059cbb60e01b8152336004820152602481018290526000907f00000000000000000000000000000000000000000000000000000000000000006001600160a01b03169063a9059cbb906044016020604051808303816000875af1158015610b0f573d6000803e3d6000fd5b505050506040513d601f19601f82011682018060405250810190610b3391906114cd565b905080610b525760405162461bcd60e51b8152600401610602906114ea565b3360009081526007602052604081205560068054640100000000900463ffffffff16906004610b8083611519565b91906101000a81548163ffffffff021916908363ffffffff16021790555050336001600160a01b03167f680f2e4f4032ebf1774e8cdbaddcb1b617a5a606411c8ca96257ada338d3833c83604051610bda91815260200190565b60405180910390a25050565b600654600160e01b900460ff16158015610c0f57503360009081526009602052604090205460ff165b610c4e5760405162461bcd60e51b815260206004820152601060248201526f1b9bdd081a5b881dda1a5d19531a5cdd60821b6044820152606401610602565b60065442600160601b9091046001600160401b031610610c9c5760405162461bcd60e51b81526020600482015260096024820152681b9bdd081cdd185c9d60ba1b6044820152606401610602565b60065442600160a01b9091046001600160401b031611610ce85760405162461bcd60e51b81526020600482015260076024820152661a185cc8195b9960ca1b6044820152606401610602565b60065463ffffffff600160401b8204811691161115610d495760405162461bcd60e51b815260206004820152601760248201527f5072652d6f72646572732061726520736f6c64206f75740000000000000000006044820152606401610602565b3360009081526008602052604090205460ff1615610d9d5760405162461bcd60e51b8152602060048201526011602482015270185b1c9958591e481c1d5c98da185cd959607a1b6044820152606401610602565b60048054604051636eb1769f60e11b81523392810192909252306024830152906001600160a01b037f0000000000000000000000000000000000000000000000000000000000000000169063dd62ed3e90604401602060405180830381865afa158015610e0e573d6000803e3d6000fd5b505050506040513d601f19601f82011682018060405250810190610e32919061153c565b1015610e805760405162461bcd60e51b815260206004820152601b60248201527f75736474546f6b656e20616c6c6f77616e636520746f6f206c6f7700000000006044820152606401610602565b600354600480546040516323b872dd60e01b815233928101929092526001600160a01b03928316602483015260448201526000917f000000000000000000000000000000000000000000000000000000000000000016906323b872dd906064016020604051808303816000875af1158015610eff573d6000803e3d6000fd5b505050506040513d601f19601f82011682018060405250810190610f2391906114cd565b905080610f425760405162461bcd60e51b8152600401610602906114ea565b6005543360009081526007602090815260408083209390935560089052908120805460ff191660011790556006805463ffffffff1691610f8183611519565b91906101000a81548163ffffffff021916908363ffffffff16021790555050336001600160a01b03167f0a37b72bb67eee30e09084cf386f8a17817c57f620c3ab95fb25d6a20356ec77600454600554604051610fe8929190918252602082015260400190565b60405180910390a250565b6000546001600160a01b0316331461101d5760405162461bcd60e51b815260040161060290611453565b600080546040516001600160a01b03909116914780156108fc02929091818181858888f19350505050158015611057573d6000803e3d6000fd5b50565b6000546001600160a01b031633146110845760405162461bcd60e51b815260040161060290611453565b6001600160a01b0381166110e95760405162461bcd60e51b815260206004820152602660248201527f4f776e61626c653a206e6577206f776e657220697320746865207a65726f206160448201526564647265737360d01b6064820152608401610602565b6110578161113e565b6000546001600160a01b0316331461111c5760405162461bcd60e51b815260040161060290611453565b600380546001600160a01b0319166001600160a01b0392909216919091179055565b600080546001600160a01b038381166001600160a01b0319831681178455604051919092169283917f8be0079c531659141344cd1fd0a4f28419497f9722a3daafe3b4186f6b6457e09190a35050565b634e487b7160e01b600052604160045260246000fd5b604051601f8201601f191681016001600160401b03811182821017156111cc576111cc61118e565b604052919050565b60006001600160401b038211156111ed576111ed61118e565b5060051b60200190565b80356001600160a01b038116811461120e57600080fd5b919050565b801515811461105757600080fd5b600082601f83011261123257600080fd5b81356020611247611242836111d4565b6111a4565b82815260059290921b8401810191818101908684111561126657600080fd5b8286015b8481101561128a57803561127d81611213565b835291830191830161126a565b509695505050505050565b600080604083850312156112a857600080fd5b82356001600160401b03808211156112bf57600080fd5b818501915085601f8301126112d357600080fd5b813560206112e3611242836111d4565b82815260059290921b8401810191818101908984111561130257600080fd5b948201945b8386101561132757611318866111f7565b82529482019490820190611307565b9650508601359250508082111561133d57600080fd5b5061134a85828601611221565b9150509250929050565b60006020828403121561136657600080fd5b5035919050565b60006020828403121561137f57600080fd5b611388826111f7565b9392505050565b600080604083850312156113a257600080fd5b6113ab836111f7565b915060208301356113bb81611213565b809150509250929050565b6000602082840312156113d857600080fd5b813561138881611213565b6000602082840312156113f557600080fd5b813563ffffffff8116811461138857600080fd5b80356001600160401b038116811461120e57600080fd5b6000806040838503121561143357600080fd5b61143c83611409565b915061144a60208401611409565b90509250929050565b6020808252818101527f4f776e61626c653a2063616c6c6572206973206e6f7420746865206f776e6572604082015260600190565b634e487b7160e01b600052603260045260246000fd5b634e487b7160e01b600052601160045260246000fd5b6000600182016114c6576114c661149e565b5060010190565b6000602082840312156114df57600080fd5b815161138881611213565b602080825260159082015274151bdad95b881d1c985b9cd9995c8819985a5b1959605a1b604082015260600190565b600063ffffffff8083168181036115325761153261149e565b6001019392505050565b60006020828403121561154e57600080fd5b505191905056fea26469706673582212205ef0edaa42d135f1b63c7cb88be091933d79df171ee4e45e1ff901bdb257023664736f6c63430008110033",
					"opcodes": "PUSH1 0xC0 PUSH1 0x40 MSTORE PUSH1 0x1 DUP1 SLOAD PUSH1 0x1 PUSH1 0x1 PUSH1 0xA0 SHL SUB NOT SWAP1 DUP2 AND PUSH20 0x55D398326F99059FF775485246999027B3197955 OR SWAP1 SWAP2 SSTORE PUSH1 0x2 DUP1 SLOAD DUP3 AND PUSH20 0xA3247B33BAA9EA15B699C77237D5B16F5CFD822F OR SWAP1 SSTORE PUSH1 0x3 DUP1 SLOAD SWAP1 SWAP2 AND PUSH20 0x3EE8E26053649B3CF811625DCD2ADE2B8EB81F47 OR SWAP1 SSTORE PUSH8 0xDE0B6B3A7640000 PUSH1 0x4 SSTORE PUSH9 0xF3F20B8DFA69D00000 PUSH1 0x5 SSTORE PUSH1 0x6 DUP1 SLOAD PUSH9 0xDC0000000000000000 PUSH4 0xFFFFFFFF PUSH1 0x40 SHL NOT SWAP1 SWAP2 AND OR SWAP1 SSTORE CALLVALUE DUP1 ISZERO PUSH3 0xAD JUMPI PUSH1 0x0 DUP1 REVERT JUMPDEST POP PUSH1 0x40 MLOAD PUSH3 0x185F CODESIZE SUB DUP1 PUSH3 0x185F DUP4 CODECOPY DUP2 ADD PUSH1 0x40 DUP2 SWAP1 MSTORE PUSH3 0xD0 SWAP2 PUSH3 0x25A JUMP JUMPDEST PUSH3 0xDB CALLER PUSH3 0x1ED JUMP JUMPDEST TIMESTAMP DUP3 PUSH1 0x1 PUSH1 0x1 PUSH1 0x40 SHL SUB AND LT ISZERO PUSH3 0x12B JUMPI PUSH1 0x40 MLOAD PUSH3 0x461BCD PUSH1 0xE5 SHL DUP2 MSTORE PUSH1 0x20 PUSH1 0x4 DUP3 ADD MSTORE PUSH1 0xE PUSH1 0x24 DUP3 ADD MSTORE PUSH14 0x7374617274206174203C206E6F77 PUSH1 0x90 SHL PUSH1 0x44 DUP3 ADD MSTORE PUSH1 0x64 ADD JUMPDEST PUSH1 0x40 MLOAD DUP1 SWAP2 SUB SWAP1 REVERT JUMPDEST DUP2 PUSH1 0x1 PUSH1 0x1 PUSH1 0x40 SHL SUB AND DUP2 PUSH1 0x1 PUSH1 0x1 PUSH1 0x40 SHL SUB AND LT ISZERO PUSH3 0x183 JUMPI PUSH1 0x40 MLOAD PUSH3 0x461BCD PUSH1 0xE5 SHL DUP2 MSTORE PUSH1 0x20 PUSH1 0x4 DUP3 ADD MSTORE PUSH1 0x11 PUSH1 0x24 DUP3 ADD MSTORE PUSH17 0x195B9908185D080F081CDD185C9D08185D PUSH1 0x7A SHL PUSH1 0x44 DUP3 ADD MSTORE PUSH1 0x64 ADD PUSH3 0x122 JUMP JUMPDEST PUSH1 0x6 DUP1 SLOAD PUSH1 0x1 PUSH1 0x60 SHL PUSH1 0x1 PUSH1 0xE0 SHL SUB NOT AND PUSH13 0x1000000000000000000000000 PUSH1 0x1 PUSH1 0x1 PUSH1 0x40 SHL SUB SWAP5 DUP6 AND MUL PUSH1 0x1 PUSH1 0xA0 SHL PUSH1 0x1 PUSH1 0xE0 SHL SUB NOT AND OR PUSH1 0x1 PUSH1 0xA0 SHL SWAP3 SWAP1 SWAP4 AND SWAP2 SWAP1 SWAP2 MUL SWAP2 SWAP1 SWAP2 OR SWAP1 SSTORE PUSH1 0x1 SLOAD PUSH1 0x1 PUSH1 0x1 PUSH1 0xA0 SHL SUB SWAP1 DUP2 AND PUSH1 0x80 MSTORE PUSH1 0x2 SLOAD AND PUSH1 0xA0 MSTORE PUSH3 0x292 JUMP JUMPDEST PUSH1 0x0 DUP1 SLOAD PUSH1 0x1 PUSH1 0x1 PUSH1 0xA0 SHL SUB DUP4 DUP2 AND PUSH1 0x1 PUSH1 0x1 PUSH1 0xA0 SHL SUB NOT DUP4 AND DUP2 OR DUP5 SSTORE PUSH1 0x40 MLOAD SWAP2 SWAP1 SWAP3 AND SWAP3 DUP4 SWAP2 PUSH32 0x8BE0079C531659141344CD1FD0A4F28419497F9722A3DAAFE3B4186F6B6457E0 SWAP2 SWAP1 LOG3 POP POP JUMP JUMPDEST DUP1 MLOAD PUSH1 0x1 PUSH1 0x1 PUSH1 0x40 SHL SUB DUP2 AND DUP2 EQ PUSH3 0x255 JUMPI PUSH1 0x0 DUP1 REVERT JUMPDEST SWAP2 SWAP1 POP JUMP JUMPDEST PUSH1 0x0 DUP1 PUSH1 0x40 DUP4 DUP6 SUB SLT ISZERO PUSH3 0x26E JUMPI PUSH1 0x0 DUP1 REVERT JUMPDEST PUSH3 0x279 DUP4 PUSH3 0x23D JUMP JUMPDEST SWAP2 POP PUSH3 0x289 PUSH1 0x20 DUP5 ADD PUSH3 0x23D JUMP JUMPDEST SWAP1 POP SWAP3 POP SWAP3 SWAP1 POP JUMP JUMPDEST PUSH1 0x80 MLOAD PUSH1 0xA0 MLOAD PUSH2 0x158B PUSH3 0x2D4 PUSH1 0x0 CODECOPY PUSH1 0x0 DUP2 DUP2 PUSH2 0x495 ADD MSTORE DUP2 DUP2 PUSH2 0x7C3 ADD MSTORE PUSH2 0xABE ADD MSTORE PUSH1 0x0 DUP2 DUP2 PUSH2 0x4BC ADD MSTORE DUP2 DUP2 PUSH2 0xDC7 ADD MSTORE PUSH2 0xEB6 ADD MSTORE PUSH2 0x158B PUSH1 0x0 RETURN INVALID PUSH1 0x80 PUSH1 0x40 MSTORE CALLVALUE DUP1 ISZERO PUSH2 0x10 JUMPI PUSH1 0x0 DUP1 REVERT JUMPDEST POP PUSH1 0x4 CALLDATASIZE LT PUSH2 0x23D JUMPI PUSH1 0x0 CALLDATALOAD PUSH1 0xE0 SHR DUP1 PUSH4 0x8DA5CB5B GT PUSH2 0x13B JUMPI DUP1 PUSH4 0xD0FEBE4C GT PUSH2 0xB8 JUMPI DUP1 PUSH4 0xE25F9F2F GT PUSH2 0x7C JUMPI DUP1 PUSH4 0xE25F9F2F EQ PUSH2 0x584 JUMPI DUP1 PUSH4 0xE4EEF896 EQ PUSH2 0x59B JUMPI DUP1 PUSH4 0xF01FC57C EQ PUSH2 0x5A4 JUMPI DUP1 PUSH4 0xF2FDE38B EQ PUSH2 0x5B2 JUMPI DUP1 PUSH4 0xFAE92612 EQ PUSH2 0x5C5 JUMPI PUSH1 0x0 DUP1 REVERT JUMPDEST DUP1 PUSH4 0xD0FEBE4C EQ PUSH2 0x543 JUMPI DUP1 PUSH4 0xD1D04E1F EQ PUSH2 0x54B JUMPI DUP1 PUSH4 0xD35CDE41 EQ PUSH2 0x560 JUMPI DUP1 PUSH4 0xDB2E21BC EQ PUSH2 0x568 JUMPI DUP1 PUSH4 0xDCD83616 EQ PUSH2 0x570 JUMPI PUSH1 0x0 DUP1 REVERT JUMPDEST DUP1 PUSH4 0xACF6C91C GT PUSH2 0xFF JUMPI DUP1 PUSH4 0xACF6C91C EQ PUSH2 0x4DE JUMPI DUP1 PUSH4 0xC7446565 EQ PUSH2 0x4F1 JUMPI DUP1 PUSH4 0xC828371E EQ PUSH2 0x50B JUMPI DUP1 PUSH4 0xC9EDE793 EQ PUSH2 0x523 JUMPI DUP1 PUSH4 0xCA16E3EB EQ PUSH2 0x52B JUMPI PUSH1 0x0 DUP1 REVERT JUMPDEST DUP1 PUSH4 0x8DA5CB5B EQ PUSH2 0x44C JUMPI DUP1 PUSH4 0x90F5881A EQ PUSH2 0x45D JUMPI DUP1 PUSH4 0x95623641 EQ PUSH2 0x47D JUMPI DUP1 PUSH4 0x9769F0B0 EQ PUSH2 0x490 JUMPI DUP1 PUSH4 0xA98AD46C EQ PUSH2 0x4B7 JUMPI PUSH1 0x0 DUP1 REVERT JUMPDEST DUP1 PUSH4 0x50B2B0A4 GT PUSH2 0x1C9 JUMPI DUP1 PUSH4 0x715018A6 GT PUSH2 0x18D JUMPI DUP1 PUSH4 0x715018A6 EQ PUSH2 0x3E6 JUMPI DUP1 PUSH4 0x78EB6C6F EQ PUSH2 0x3EE JUMPI DUP1 PUSH4 0x7CC3AE8C EQ PUSH2 0x3F6 JUMPI DUP1 PUSH4 0x8568F4CE EQ PUSH2 0x410 JUMPI DUP1 PUSH4 0x88AF60C6 EQ PUSH2 0x439 JUMPI PUSH1 0x0 DUP1 REVERT JUMPDEST DUP1 PUSH4 0x50B2B0A4 EQ PUSH2 0x371 JUMPI DUP1 PUSH4 0x5F8524FB EQ PUSH2 0x384 JUMPI DUP1 PUSH4 0x5FC1CB63 EQ PUSH2 0x39B JUMPI DUP1 PUSH4 0x61BC221A EQ PUSH2 0x3AE JUMPI DUP1 PUSH4 0x69C82EF7 EQ PUSH2 0x3D3 JUMPI PUSH1 0x0 DUP1 REVERT JUMPDEST DUP1 PUSH4 0x372C12B1 GT PUSH2 0x210 JUMPI DUP1 PUSH4 0x372C12B1 EQ PUSH2 0x2C4 JUMPI DUP1 PUSH4 0x374EEDEF EQ PUSH2 0x2F7 JUMPI DUP1 PUSH4 0x39B417B7 EQ PUSH2 0x323 JUMPI DUP1 PUSH4 0x3D719DA7 EQ PUSH2 0x336 JUMPI DUP1 PUSH4 0x439F5AC2 EQ PUSH2 0x359 JUMPI PUSH1 0x0 DUP1 REVERT JUMPDEST DUP1 PUSH4 0x27734FA EQ PUSH2 0x242 JUMPI DUP1 PUSH4 0x3D7424D EQ PUSH2 0x272 JUMPI DUP1 PUSH4 0x8C9D227 EQ PUSH2 0x29C JUMPI DUP1 PUSH4 0x271F88B4 EQ PUSH2 0x2B1 JUMPI JUMPDEST PUSH1 0x0 DUP1 REVERT JUMPDEST PUSH1 0x2 SLOAD PUSH2 0x255 SWAP1 PUSH1 0x1 PUSH1 0x1 PUSH1 0xA0 SHL SUB AND DUP2 JUMP JUMPDEST PUSH1 0x40 MLOAD PUSH1 0x1 PUSH1 0x1 PUSH1 0xA0 SHL SUB SWAP1 SWAP2 AND DUP2 MSTORE PUSH1 0x20 ADD JUMPDEST PUSH1 0x40 MLOAD DUP1 SWAP2 SUB SWAP1 RETURN JUMPDEST PUSH1 0x6 SLOAD PUSH5 0x100000000 SWAP1 DIV PUSH4 0xFFFFFFFF AND JUMPDEST PUSH1 0x40 MLOAD PUSH1 0x1 PUSH1 0x1 PUSH1 0x40 SHL SUB SWAP1 SWAP2 AND DUP2 MSTORE PUSH1 0x20 ADD PUSH2 0x269 JUMP JUMPDEST PUSH2 0x2AF PUSH2 0x2AA CALLDATASIZE PUSH1 0x4 PUSH2 0x1295 JUMP JUMPDEST PUSH2 0x5D8 JUMP JUMPDEST STOP JUMPDEST PUSH2 0x2AF PUSH2 0x2BF CALLDATASIZE PUSH1 0x4 PUSH2 0x1354 JUMP JUMPDEST PUSH2 0x6AE JUMP JUMPDEST PUSH2 0x2E7 PUSH2 0x2D2 CALLDATASIZE PUSH1 0x4 PUSH2 0x136D JUMP JUMPDEST PUSH1 0x9 PUSH1 0x20 MSTORE PUSH1 0x0 SWAP1 DUP2 MSTORE PUSH1 0x40 SWAP1 KECCAK256 SLOAD PUSH1 0xFF AND DUP2 JUMP JUMPDEST PUSH1 0x40 MLOAD SWAP1 ISZERO ISZERO DUP2 MSTORE PUSH1 0x20 ADD PUSH2 0x269 JUMP JUMPDEST PUSH2 0x2E7 PUSH2 0x305 CALLDATASIZE PUSH1 0x4 PUSH2 0x136D JUMP JUMPDEST PUSH1 0x1 PUSH1 0x1 PUSH1 0xA0 SHL SUB AND PUSH1 0x0 SWAP1 DUP2 MSTORE PUSH1 0x8 PUSH1 0x20 MSTORE PUSH1 0x40 SWAP1 KECCAK256 SLOAD PUSH1 0xFF AND SWAP1 JUMP JUMPDEST PUSH2 0x2AF PUSH2 0x331 CALLDATASIZE PUSH1 0x4 PUSH2 0x138F JUMP JUMPDEST PUSH2 0x6DD JUMP JUMPDEST PUSH2 0x2E7 PUSH2 0x344 CALLDATASIZE PUSH1 0x4 PUSH2 0x136D JUMP JUMPDEST PUSH1 0x8 PUSH1 0x20 MSTORE PUSH1 0x0 SWAP1 DUP2 MSTORE PUSH1 0x40 SWAP1 KECCAK256 SLOAD PUSH1 0xFF AND DUP2 JUMP JUMPDEST PUSH1 0x6 SLOAD PUSH1 0x1 PUSH1 0xA0 SHL SWAP1 DIV PUSH1 0x1 PUSH1 0x1 PUSH1 0x40 SHL SUB AND PUSH2 0x284 JUMP JUMPDEST PUSH2 0x2AF PUSH2 0x37F CALLDATASIZE PUSH1 0x4 PUSH2 0x13C6 JUMP JUMPDEST PUSH2 0x732 JUMP JUMPDEST PUSH2 0x38D PUSH1 0x5 SLOAD DUP2 JUMP JUMPDEST PUSH1 0x40 MLOAD SWAP1 DUP2 MSTORE PUSH1 0x20 ADD PUSH2 0x269 JUMP JUMPDEST PUSH2 0x2AF PUSH2 0x3A9 CALLDATASIZE PUSH1 0x4 PUSH2 0x1354 JUMP JUMPDEST PUSH2 0x77A JUMP JUMPDEST PUSH1 0x6 SLOAD PUSH2 0x3BE SWAP1 PUSH4 0xFFFFFFFF AND DUP2 JUMP JUMPDEST PUSH1 0x40 MLOAD PUSH4 0xFFFFFFFF SWAP1 SWAP2 AND DUP2 MSTORE PUSH1 0x20 ADD PUSH2 0x269 JUMP JUMPDEST PUSH2 0x2AF PUSH2 0x3E1 CALLDATASIZE PUSH1 0x4 PUSH2 0x13E3 JUMP JUMPDEST PUSH2 0x85B JUMP JUMPDEST PUSH2 0x2AF PUSH2 0x8B0 JUMP JUMPDEST PUSH1 0x5 SLOAD PUSH2 0x38D JUMP JUMPDEST PUSH1 0x6 SLOAD PUSH2 0x284 SWAP1 PUSH1 0x1 PUSH1 0xA0 SHL SWAP1 DIV PUSH1 0x1 PUSH1 0x1 PUSH1 0x40 SHL SUB AND DUP2 JUMP JUMPDEST PUSH2 0x38D PUSH2 0x41E CALLDATASIZE PUSH1 0x4 PUSH2 0x136D JUMP JUMPDEST PUSH1 0x1 PUSH1 0x1 PUSH1 0xA0 SHL SUB AND PUSH1 0x0 SWAP1 DUP2 MSTORE PUSH1 0x7 PUSH1 0x20 MSTORE PUSH1 0x40 SWAP1 KECCAK256 SLOAD SWAP1 JUMP JUMPDEST PUSH1 0x1 SLOAD PUSH2 0x255 SWAP1 PUSH1 0x1 PUSH1 0x1 PUSH1 0xA0 SHL SUB AND DUP2 JUMP JUMPDEST PUSH1 0x0 SLOAD PUSH1 0x1 PUSH1 0x1 PUSH1 0xA0 SHL SUB AND PUSH2 0x255 JUMP JUMPDEST PUSH2 0x38D PUSH2 0x46B CALLDATASIZE PUSH1 0x4 PUSH2 0x136D JUMP JUMPDEST PUSH1 0x7 PUSH1 0x20 MSTORE PUSH1 0x0 SWAP1 DUP2 MSTORE PUSH1 0x40 SWAP1 KECCAK256 SLOAD DUP2 JUMP JUMPDEST PUSH1 0x3 SLOAD PUSH2 0x255 SWAP1 PUSH1 0x1 PUSH1 0x1 PUSH1 0xA0 SHL SUB AND DUP2 JUMP JUMPDEST PUSH2 0x255 PUSH32 0x0 DUP2 JUMP JUMPDEST PUSH2 0x255 PUSH32 0x0 DUP2 JUMP JUMPDEST PUSH2 0x2AF PUSH2 0x4EC CALLDATASIZE PUSH1 0x4 PUSH2 0x1420 JUMP JUMPDEST PUSH2 0x8E6 JUMP JUMPDEST PUSH1 0x6 SLOAD PUSH2 0x284 SWAP1 PUSH1 0x1 PUSH1 0x60 SHL SWAP1 DIV PUSH1 0x1 PUSH1 0x1 PUSH1 0x40 SHL SUB AND DUP2 JUMP JUMPDEST PUSH1 0x6 SLOAD PUSH1 0x1 PUSH1 0x60 SHL SWAP1 DIV PUSH1 0x1 PUSH1 0x1 PUSH1 0x40 SHL SUB AND PUSH2 0x284 JUMP JUMPDEST PUSH2 0x2AF PUSH2 0x9FA JUMP JUMPDEST PUSH1 0x6 SLOAD PUSH2 0x3BE SWAP1 PUSH5 0x100000000 SWAP1 DIV PUSH4 0xFFFFFFFF AND DUP2 JUMP JUMPDEST PUSH2 0x2AF PUSH2 0xBE6 JUMP JUMPDEST PUSH1 0x6 SLOAD PUSH1 0x1 PUSH1 0x40 SHL SWAP1 DIV PUSH4 0xFFFFFFFF AND PUSH2 0x3BE JUMP JUMPDEST PUSH1 0x4 SLOAD PUSH2 0x38D JUMP JUMPDEST PUSH2 0x2AF PUSH2 0xFF3 JUMP JUMPDEST PUSH1 0x6 SLOAD PUSH2 0x2E7 SWAP1 PUSH1 0x1 PUSH1 0xE0 SHL SWAP1 DIV PUSH1 0xFF AND DUP2 JUMP JUMPDEST PUSH1 0x6 SLOAD PUSH2 0x3BE SWAP1 PUSH1 0x1 PUSH1 0x40 SHL SWAP1 DIV PUSH4 0xFFFFFFFF AND DUP2 JUMP JUMPDEST PUSH2 0x38D PUSH1 0x4 SLOAD DUP2 JUMP JUMPDEST PUSH1 0x6 SLOAD PUSH4 0xFFFFFFFF AND PUSH2 0x284 JUMP JUMPDEST PUSH2 0x2AF PUSH2 0x5C0 CALLDATASIZE PUSH1 0x4 PUSH2 0x136D JUMP JUMPDEST PUSH2 0x105A JUMP JUMPDEST PUSH2 0x2AF PUSH2 0x5D3 CALLDATASIZE PUSH1 0x4 PUSH2 0x136D JUMP JUMPDEST PUSH2 0x10F2 JUMP JUMPDEST PUSH1 0x0 SLOAD PUSH1 0x1 PUSH1 0x1 PUSH1 0xA0 SHL SUB AND CALLER EQ PUSH2 0x60B JUMPI PUSH1 0x40 MLOAD PUSH3 0x461BCD PUSH1 0xE5 SHL DUP2 MSTORE PUSH1 0x4 ADD PUSH2 0x602 SWAP1 PUSH2 0x1453 JUMP JUMPDEST PUSH1 0x40 MLOAD DUP1 SWAP2 SUB SWAP1 REVERT JUMPDEST DUP1 MLOAD DUP3 MLOAD EQ PUSH2 0x651 JUMPI PUSH1 0x40 MLOAD PUSH3 0x461BCD PUSH1 0xE5 SHL DUP2 MSTORE PUSH1 0x20 PUSH1 0x4 DUP3 ADD MSTORE PUSH1 0x12 PUSH1 0x24 DUP3 ADD MSTORE PUSH18 0x30B93930BA103632B733BA341032B93937B9 PUSH1 0x71 SHL PUSH1 0x44 DUP3 ADD MSTORE PUSH1 0x64 ADD PUSH2 0x602 JUMP JUMPDEST PUSH1 0x0 JUMPDEST DUP3 MLOAD DUP2 LT ISZERO PUSH2 0x6A9 JUMPI PUSH2 0x699 DUP4 DUP3 DUP2 MLOAD DUP2 LT PUSH2 0x672 JUMPI PUSH2 0x672 PUSH2 0x1488 JUMP JUMPDEST PUSH1 0x20 MUL PUSH1 0x20 ADD ADD MLOAD DUP4 DUP4 DUP2 MLOAD DUP2 LT PUSH2 0x68C JUMPI PUSH2 0x68C PUSH2 0x1488 JUMP JUMPDEST PUSH1 0x20 MUL PUSH1 0x20 ADD ADD MLOAD PUSH2 0x6DD JUMP JUMPDEST PUSH2 0x6A2 DUP2 PUSH2 0x14B4 JUMP JUMPDEST SWAP1 POP PUSH2 0x654 JUMP JUMPDEST POP POP POP JUMP JUMPDEST PUSH1 0x0 SLOAD PUSH1 0x1 PUSH1 0x1 PUSH1 0xA0 SHL SUB AND CALLER EQ PUSH2 0x6D8 JUMPI PUSH1 0x40 MLOAD PUSH3 0x461BCD PUSH1 0xE5 SHL DUP2 MSTORE PUSH1 0x4 ADD PUSH2 0x602 SWAP1 PUSH2 0x1453 JUMP JUMPDEST PUSH1 0x4 SSTORE JUMP JUMPDEST PUSH1 0x0 SLOAD PUSH1 0x1 PUSH1 0x1 PUSH1 0xA0 SHL SUB AND CALLER EQ PUSH2 0x707 JUMPI PUSH1 0x40 MLOAD PUSH3 0x461BCD PUSH1 0xE5 SHL DUP2 MSTORE PUSH1 0x4 ADD PUSH2 0x602 SWAP1 PUSH2 0x1453 JUMP JUMPDEST PUSH1 0x1 PUSH1 0x1 PUSH1 0xA0 SHL SUB SWAP2 SWAP1 SWAP2 AND PUSH1 0x0 SWAP1 DUP2 MSTORE PUSH1 0x9 PUSH1 0x20 MSTORE PUSH1 0x40 SWAP1 KECCAK256 DUP1 SLOAD PUSH1 0xFF NOT AND SWAP2 ISZERO ISZERO SWAP2 SWAP1 SWAP2 OR SWAP1 SSTORE JUMP JUMPDEST PUSH1 0x0 SLOAD PUSH1 0x1 PUSH1 0x1 PUSH1 0xA0 SHL SUB AND CALLER EQ PUSH2 0x75C JUMPI PUSH1 0x40 MLOAD PUSH3 0x461BCD PUSH1 0xE5 SHL DUP2 MSTORE PUSH1 0x4 ADD PUSH2 0x602 SWAP1 PUSH2 0x1453 JUMP JUMPDEST PUSH1 0x6 DUP1 SLOAD SWAP2 ISZERO ISZERO PUSH1 0x1 PUSH1 0xE0 SHL MUL PUSH1 0xFF PUSH1 0xE0 SHL NOT SWAP1 SWAP3 AND SWAP2 SWAP1 SWAP2 OR SWAP1 SSTORE JUMP JUMPDEST PUSH1 0x0 SLOAD PUSH1 0x1 PUSH1 0x1 PUSH1 0xA0 SHL SUB AND CALLER EQ PUSH2 0x7A4 JUMPI PUSH1 0x40 MLOAD PUSH3 0x461BCD PUSH1 0xE5 SHL DUP2 MSTORE PUSH1 0x4 ADD PUSH2 0x602 SWAP1 PUSH2 0x1453 JUMP JUMPDEST PUSH1 0x40 MLOAD PUSH4 0xA9059CBB PUSH1 0xE0 SHL DUP2 MSTORE CALLER PUSH1 0x4 DUP3 ADD MSTORE PUSH1 0x24 DUP2 ADD DUP3 SWAP1 MSTORE PUSH1 0x0 SWAP1 PUSH32 0x0 PUSH1 0x1 PUSH1 0x1 PUSH1 0xA0 SHL SUB AND SWAP1 PUSH4 0xA9059CBB SWAP1 PUSH1 0x44 ADD PUSH1 0x20 PUSH1 0x40 MLOAD DUP1 DUP4 SUB DUP2 PUSH1 0x0 DUP8 GAS CALL ISZERO DUP1 ISZERO PUSH2 0x814 JUMPI RETURNDATASIZE PUSH1 0x0 DUP1 RETURNDATACOPY RETURNDATASIZE PUSH1 0x0 REVERT JUMPDEST POP POP POP POP PUSH1 0x40 MLOAD RETURNDATASIZE PUSH1 0x1F NOT PUSH1 0x1F DUP3 ADD AND DUP3 ADD DUP1 PUSH1 0x40 MSTORE POP DUP2 ADD SWAP1 PUSH2 0x838 SWAP2 SWAP1 PUSH2 0x14CD JUMP JUMPDEST SWAP1 POP DUP1 PUSH2 0x857 JUMPI PUSH1 0x40 MLOAD PUSH3 0x461BCD PUSH1 0xE5 SHL DUP2 MSTORE PUSH1 0x4 ADD PUSH2 0x602 SWAP1 PUSH2 0x14EA JUMP JUMPDEST POP POP JUMP JUMPDEST PUSH1 0x0 SLOAD PUSH1 0x1 PUSH1 0x1 PUSH1 0xA0 SHL SUB AND CALLER EQ PUSH2 0x885 JUMPI PUSH1 0x40 MLOAD PUSH3 0x461BCD PUSH1 0xE5 SHL DUP2 MSTORE PUSH1 0x4 ADD PUSH2 0x602 SWAP1 PUSH2 0x1453 JUMP JUMPDEST PUSH1 0x6 DUP1 SLOAD PUSH4 0xFFFFFFFF SWAP1 SWAP3 AND PUSH1 0x1 PUSH1 0x40 SHL MUL PUSH12 0xFFFFFFFF0000000000000000 NOT SWAP1 SWAP3 AND SWAP2 SWAP1 SWAP2 OR SWAP1 SSTORE JUMP JUMPDEST PUSH1 0x0 SLOAD PUSH1 0x1 PUSH1 0x1 PUSH1 0xA0 SHL SUB AND CALLER EQ PUSH2 0x8DA JUMPI PUSH1 0x40 MLOAD PUSH3 0x461BCD PUSH1 0xE5 SHL DUP2 MSTORE PUSH1 0x4 ADD PUSH2 0x602 SWAP1 PUSH2 0x1453 JUMP JUMPDEST PUSH2 0x8E4 PUSH1 0x0 PUSH2 0x113E JUMP JUMPDEST JUMP JUMPDEST PUSH1 0x0 SLOAD PUSH1 0x1 PUSH1 0x1 PUSH1 0xA0 SHL SUB AND CALLER EQ PUSH2 0x910 JUMPI PUSH1 0x40 MLOAD PUSH3 0x461BCD PUSH1 0xE5 SHL DUP2 MSTORE PUSH1 0x4 ADD PUSH2 0x602 SWAP1 PUSH2 0x1453 JUMP JUMPDEST TIMESTAMP DUP3 PUSH1 0x1 PUSH1 0x1 PUSH1 0x40 SHL SUB AND GT DUP1 ISZERO PUSH2 0x939 JUMPI POP DUP2 PUSH1 0x1 PUSH1 0x1 PUSH1 0x40 SHL SUB AND DUP2 PUSH1 0x1 PUSH1 0x1 PUSH1 0x40 SHL SUB AND GT JUMPDEST PUSH2 0x9AB JUMPI PUSH1 0x40 MLOAD PUSH3 0x461BCD PUSH1 0xE5 SHL DUP2 MSTORE PUSH1 0x20 PUSH1 0x4 DUP3 ADD MSTORE PUSH1 0x3A PUSH1 0x24 DUP3 ADD MSTORE PUSH32 0x5468652073746172742074696D652068617320706173736564206F7220656E64 PUSH1 0x44 DUP3 ADD MSTORE PUSH32 0x2074696D65206D757374206D6F7265207468616E207374617274000000000000 PUSH1 0x64 DUP3 ADD MSTORE PUSH1 0x84 ADD PUSH2 0x602 JUMP JUMPDEST PUSH1 0x6 DUP1 SLOAD PUSH16 0xFFFFFFFFFFFFFFFFFFFFFFFFFFFFFFFF PUSH1 0x60 SHL NOT AND PUSH1 0x1 PUSH1 0x60 SHL PUSH1 0x1 PUSH1 0x1 PUSH1 0x40 SHL SUB SWAP5 DUP6 AND MUL PUSH8 0xFFFFFFFFFFFFFFFF PUSH1 0xA0 SHL NOT AND OR PUSH1 0x1 PUSH1 0xA0 SHL SWAP3 SWAP1 SWAP4 AND SWAP2 SWAP1 SWAP2 MUL SWAP2 SWAP1 SWAP2 OR SWAP1 SSTORE JUMP JUMPDEST PUSH1 0x6 SLOAD TIMESTAMP PUSH1 0x1 PUSH1 0xA0 SHL SWAP1 SWAP2 DIV PUSH1 0x1 PUSH1 0x1 PUSH1 0x40 SHL SUB AND LT PUSH2 0xA4E JUMPI PUSH1 0x40 MLOAD PUSH3 0x461BCD PUSH1 0xE5 SHL DUP2 MSTORE PUSH1 0x20 PUSH1 0x4 DUP3 ADD MSTORE PUSH1 0xF PUSH1 0x24 DUP3 ADD MSTORE PUSH15 0x1C1C995CD95B1B081B9BDD08195B99 PUSH1 0x8A SHL PUSH1 0x44 DUP3 ADD MSTORE PUSH1 0x64 ADD PUSH2 0x602 JUMP JUMPDEST CALLER PUSH1 0x0 SWAP1 DUP2 MSTORE PUSH1 0x7 PUSH1 0x20 MSTORE PUSH1 0x40 SWAP1 KECCAK256 SLOAD DUP1 PUSH2 0xA9F JUMPI PUSH1 0x40 MLOAD PUSH3 0x461BCD PUSH1 0xE5 SHL DUP2 MSTORE PUSH1 0x20 PUSH1 0x4 DUP3 ADD MSTORE PUSH1 0x11 PUSH1 0x24 DUP3 ADD MSTORE PUSH17 0x757365722062616C616E6365207A65726F PUSH1 0x78 SHL PUSH1 0x44 DUP3 ADD MSTORE PUSH1 0x64 ADD PUSH2 0x602 JUMP JUMPDEST PUSH1 0x40 MLOAD PUSH4 0xA9059CBB PUSH1 0xE0 SHL DUP2 MSTORE CALLER PUSH1 0x4 DUP3 ADD MSTORE PUSH1 0x24 DUP2 ADD DUP3 SWAP1 MSTORE PUSH1 0x0 SWAP1 PUSH32 0x0 PUSH1 0x1 PUSH1 0x1 PUSH1 0xA0 SHL SUB AND SWAP1 PUSH4 0xA9059CBB SWAP1 PUSH1 0x44 ADD PUSH1 0x20 PUSH1 0x40 MLOAD DUP1 DUP4 SUB DUP2 PUSH1 0x0 DUP8 GAS CALL ISZERO DUP1 ISZERO PUSH2 0xB0F JUMPI RETURNDATASIZE PUSH1 0x0 DUP1 RETURNDATACOPY RETURNDATASIZE PUSH1 0x0 REVERT JUMPDEST POP POP POP POP PUSH1 0x40 MLOAD RETURNDATASIZE PUSH1 0x1F NOT PUSH1 0x1F DUP3 ADD AND DUP3 ADD DUP1 PUSH1 0x40 MSTORE POP DUP2 ADD SWAP1 PUSH2 0xB33 SWAP2 SWAP1 PUSH2 0x14CD JUMP JUMPDEST SWAP1 POP DUP1 PUSH2 0xB52 JUMPI PUSH1 0x40 MLOAD PUSH3 0x461BCD PUSH1 0xE5 SHL DUP2 MSTORE PUSH1 0x4 ADD PUSH2 0x602 SWAP1 PUSH2 0x14EA JUMP JUMPDEST CALLER PUSH1 0x0 SWAP1 DUP2 MSTORE PUSH1 0x7 PUSH1 0x20 MSTORE PUSH1 0x40 DUP2 KECCAK256 SSTORE PUSH1 0x6 DUP1 SLOAD PUSH5 0x100000000 SWAP1 DIV PUSH4 0xFFFFFFFF AND SWAP1 PUSH1 0x4 PUSH2 0xB80 DUP4 PUSH2 0x1519 JUMP JUMPDEST SWAP2 SWAP1 PUSH2 0x100 EXP DUP2 SLOAD DUP2 PUSH4 0xFFFFFFFF MUL NOT AND SWAP1 DUP4 PUSH4 0xFFFFFFFF AND MUL OR SWAP1 SSTORE POP POP CALLER PUSH1 0x1 PUSH1 0x1 PUSH1 0xA0 SHL SUB AND PUSH32 0x680F2E4F4032EBF1774E8CDBADDCB1B617A5A606411C8CA96257ADA338D3833C DUP4 PUSH1 0x40 MLOAD PUSH2 0xBDA SWAP2 DUP2 MSTORE PUSH1 0x20 ADD SWAP1 JUMP JUMPDEST PUSH1 0x40 MLOAD DUP1 SWAP2 SUB SWAP1 LOG2 POP POP JUMP JUMPDEST PUSH1 0x6 SLOAD PUSH1 0x1 PUSH1 0xE0 SHL SWAP1 DIV PUSH1 0xFF AND ISZERO DUP1 ISZERO PUSH2 0xC0F JUMPI POP CALLER PUSH1 0x0 SWAP1 DUP2 MSTORE PUSH1 0x9 PUSH1 0x20 MSTORE PUSH1 0x40 SWAP1 KECCAK256 SLOAD PUSH1 0xFF AND JUMPDEST PUSH2 0xC4E JUMPI PUSH1 0x40 MLOAD PUSH3 0x461BCD PUSH1 0xE5 SHL DUP2 MSTORE PUSH1 0x20 PUSH1 0x4 DUP3 ADD MSTORE PUSH1 0x10 PUSH1 0x24 DUP3 ADD MSTORE PUSH16 0x1B9BDD081A5B881DDA1A5D19531A5CDD PUSH1 0x82 SHL PUSH1 0x44 DUP3 ADD MSTORE PUSH1 0x64 ADD PUSH2 0x602 JUMP JUMPDEST PUSH1 0x6 SLOAD TIMESTAMP PUSH1 0x1 PUSH1 0x60 SHL SWAP1 SWAP2 DIV PUSH1 0x1 PUSH1 0x1 PUSH1 0x40 SHL SUB AND LT PUSH2 0xC9C JUMPI PUSH1 0x40 MLOAD PUSH3 0x461BCD PUSH1 0xE5 SHL DUP2 MSTORE PUSH1 0x20 PUSH1 0x4 DUP3 ADD MSTORE PUSH1 0x9 PUSH1 0x24 DUP3 ADD MSTORE PUSH9 0x1B9BDD081CDD185C9D PUSH1 0xBA SHL PUSH1 0x44 DUP3 ADD MSTORE PUSH1 0x64 ADD PUSH2 0x602 JUMP JUMPDEST PUSH1 0x6 SLOAD TIMESTAMP PUSH1 0x1 PUSH1 0xA0 SHL SWAP1 SWAP2 DIV PUSH1 0x1 PUSH1 0x1 PUSH1 0x40 SHL SUB AND GT PUSH2 0xCE8 JUMPI PUSH1 0x40 MLOAD PUSH3 0x461BCD PUSH1 0xE5 SHL DUP2 MSTORE PUSH1 0x20 PUSH1 0x4 DUP3 ADD MSTORE PUSH1 0x7 PUSH1 0x24 DUP3 ADD MSTORE PUSH7 0x1A185CC8195B99 PUSH1 0xCA SHL PUSH1 0x44 DUP3 ADD MSTORE PUSH1 0x64 ADD PUSH2 0x602 JUMP JUMPDEST PUSH1 0x6 SLOAD PUSH4 0xFFFFFFFF PUSH1 0x1 PUSH1 0x40 SHL DUP3 DIV DUP2 AND SWAP2 AND GT ISZERO PUSH2 0xD49 JUMPI PUSH1 0x40 MLOAD PUSH3 0x461BCD PUSH1 0xE5 SHL DUP2 MSTORE PUSH1 0x20 PUSH1 0x4 DUP3 ADD MSTORE PUSH1 0x17 PUSH1 0x24 DUP3 ADD MSTORE PUSH32 0x5072652D6F72646572732061726520736F6C64206F7574000000000000000000 PUSH1 0x44 DUP3 ADD MSTORE PUSH1 0x64 ADD PUSH2 0x602 JUMP JUMPDEST CALLER PUSH1 0x0 SWAP1 DUP2 MSTORE PUSH1 0x8 PUSH1 0x20 MSTORE PUSH1 0x40 SWAP1 KECCAK256 SLOAD PUSH1 0xFF AND ISZERO PUSH2 0xD9D JUMPI PUSH1 0x40 MLOAD PUSH3 0x461BCD PUSH1 0xE5 SHL DUP2 MSTORE PUSH1 0x20 PUSH1 0x4 DUP3 ADD MSTORE PUSH1 0x11 PUSH1 0x24 DUP3 ADD MSTORE PUSH17 0x185B1C9958591E481C1D5C98DA185CD959 PUSH1 0x7A SHL PUSH1 0x44 DUP3 ADD MSTORE PUSH1 0x64 ADD PUSH2 0x602 JUMP JUMPDEST PUSH1 0x4 DUP1 SLOAD PUSH1 0x40 MLOAD PUSH4 0x6EB1769F PUSH1 0xE1 SHL DUP2 MSTORE CALLER SWAP3 DUP2 ADD SWAP3 SWAP1 SWAP3 MSTORE ADDRESS PUSH1 0x24 DUP4 ADD MSTORE SWAP1 PUSH1 0x1 PUSH1 0x1 PUSH1 0xA0 SHL SUB PUSH32 0x0 AND SWAP1 PUSH4 0xDD62ED3E SWAP1 PUSH1 0x44 ADD PUSH1 0x20 PUSH1 0x40 MLOAD DUP1 DUP4 SUB DUP2 DUP7 GAS STATICCALL ISZERO DUP1 ISZERO PUSH2 0xE0E JUMPI RETURNDATASIZE PUSH1 0x0 DUP1 RETURNDATACOPY RETURNDATASIZE PUSH1 0x0 REVERT JUMPDEST POP POP POP POP PUSH1 0x40 MLOAD RETURNDATASIZE PUSH1 0x1F NOT PUSH1 0x1F DUP3 ADD AND DUP3 ADD DUP1 PUSH1 0x40 MSTORE POP DUP2 ADD SWAP1 PUSH2 0xE32 SWAP2 SWAP1 PUSH2 0x153C JUMP JUMPDEST LT ISZERO PUSH2 0xE80 JUMPI PUSH1 0x40 MLOAD PUSH3 0x461BCD PUSH1 0xE5 SHL DUP2 MSTORE PUSH1 0x20 PUSH1 0x4 DUP3 ADD MSTORE PUSH1 0x1B PUSH1 0x24 DUP3 ADD MSTORE PUSH32 0x75736474546F6B656E20616C6C6F77616E636520746F6F206C6F770000000000 PUSH1 0x44 DUP3 ADD MSTORE PUSH1 0x64 ADD PUSH2 0x602 JUMP JUMPDEST PUSH1 0x3 SLOAD PUSH1 0x4 DUP1 SLOAD PUSH1 0x40 MLOAD PUSH4 0x23B872DD PUSH1 0xE0 SHL DUP2 MSTORE CALLER SWAP3 DUP2 ADD SWAP3 SWAP1 SWAP3 MSTORE PUSH1 0x1 PUSH1 0x1 PUSH1 0xA0 SHL SUB SWAP3 DUP4 AND PUSH1 0x24 DUP4 ADD MSTORE PUSH1 0x44 DUP3 ADD MSTORE PUSH1 0x0 SWAP2 PUSH32 0x0 AND SWAP1 PUSH4 0x23B872DD SWAP1 PUSH1 0x64 ADD PUSH1 0x20 PUSH1 0x40 MLOAD DUP1 DUP4 SUB DUP2 PUSH1 0x0 DUP8 GAS CALL ISZERO DUP1 ISZERO PUSH2 0xEFF JUMPI RETURNDATASIZE PUSH1 0x0 DUP1 RETURNDATACOPY RETURNDATASIZE PUSH1 0x0 REVERT JUMPDEST POP POP POP POP PUSH1 0x40 MLOAD RETURNDATASIZE PUSH1 0x1F NOT PUSH1 0x1F DUP3 ADD AND DUP3 ADD DUP1 PUSH1 0x40 MSTORE POP DUP2 ADD SWAP1 PUSH2 0xF23 SWAP2 SWAP1 PUSH2 0x14CD JUMP JUMPDEST SWAP1 POP DUP1 PUSH2 0xF42 JUMPI PUSH1 0x40 MLOAD PUSH3 0x461BCD PUSH1 0xE5 SHL DUP2 MSTORE PUSH1 0x4 ADD PUSH2 0x602 SWAP1 PUSH2 0x14EA JUMP JUMPDEST PUSH1 0x5 SLOAD CALLER PUSH1 0x0 SWAP1 DUP2 MSTORE PUSH1 0x7 PUSH1 0x20 SWAP1 DUP2 MSTORE PUSH1 0x40 DUP1 DUP4 KECCAK256 SWAP4 SWAP1 SWAP4 SSTORE PUSH1 0x8 SWAP1 MSTORE SWAP1 DUP2 KECCAK256 DUP1 SLOAD PUSH1 0xFF NOT AND PUSH1 0x1 OR SWAP1 SSTORE PUSH1 0x6 DUP1 SLOAD PUSH4 0xFFFFFFFF AND SWAP2 PUSH2 0xF81 DUP4 PUSH2 0x1519 JUMP JUMPDEST SWAP2 SWAP1 PUSH2 0x100 EXP DUP2 SLOAD DUP2 PUSH4 0xFFFFFFFF MUL NOT AND SWAP1 DUP4 PUSH4 0xFFFFFFFF AND MUL OR SWAP1 SSTORE POP POP CALLER PUSH1 0x1 PUSH1 0x1 PUSH1 0xA0 SHL SUB AND PUSH32 0xA37B72BB67EEE30E09084CF386F8A17817C57F620C3AB95FB25D6A20356EC77 PUSH1 0x4 SLOAD PUSH1 0x5 SLOAD PUSH1 0x40 MLOAD PUSH2 0xFE8 SWAP3 SWAP2 SWAP1 SWAP2 DUP3 MSTORE PUSH1 0x20 DUP3 ADD MSTORE PUSH1 0x40 ADD SWAP1 JUMP JUMPDEST PUSH1 0x40 MLOAD DUP1 SWAP2 SUB SWAP1 LOG2 POP JUMP JUMPDEST PUSH1 0x0 SLOAD PUSH1 0x1 PUSH1 0x1 PUSH1 0xA0 SHL SUB AND CALLER EQ PUSH2 0x101D JUMPI PUSH1 0x40 MLOAD PUSH3 0x461BCD PUSH1 0xE5 SHL DUP2 MSTORE PUSH1 0x4 ADD PUSH2 0x602 SWAP1 PUSH2 0x1453 JUMP JUMPDEST PUSH1 0x0 DUP1 SLOAD PUSH1 0x40 MLOAD PUSH1 0x1 PUSH1 0x1 PUSH1 0xA0 SHL SUB SWAP1 SWAP2 AND SWAP2 SELFBALANCE DUP1 ISZERO PUSH2 0x8FC MUL SWAP3 SWAP1 SWAP2 DUP2 DUP2 DUP2 DUP6 DUP9 DUP9 CALL SWAP4 POP POP POP POP ISZERO DUP1 ISZERO PUSH2 0x1057 JUMPI RETURNDATASIZE PUSH1 0x0 DUP1 RETURNDATACOPY RETURNDATASIZE PUSH1 0x0 REVERT JUMPDEST POP JUMP JUMPDEST PUSH1 0x0 SLOAD PUSH1 0x1 PUSH1 0x1 PUSH1 0xA0 SHL SUB AND CALLER EQ PUSH2 0x1084 JUMPI PUSH1 0x40 MLOAD PUSH3 0x461BCD PUSH1 0xE5 SHL DUP2 MSTORE PUSH1 0x4 ADD PUSH2 0x602 SWAP1 PUSH2 0x1453 JUMP JUMPDEST PUSH1 0x1 PUSH1 0x1 PUSH1 0xA0 SHL SUB DUP2 AND PUSH2 0x10E9 JUMPI PUSH1 0x40 MLOAD PUSH3 0x461BCD PUSH1 0xE5 SHL DUP2 MSTORE PUSH1 0x20 PUSH1 0x4 DUP3 ADD MSTORE PUSH1 0x26 PUSH1 0x24 DUP3 ADD MSTORE PUSH32 0x4F776E61626C653A206E6577206F776E657220697320746865207A65726F2061 PUSH1 0x44 DUP3 ADD MSTORE PUSH6 0x646472657373 PUSH1 0xD0 SHL PUSH1 0x64 DUP3 ADD MSTORE PUSH1 0x84 ADD PUSH2 0x602 JUMP JUMPDEST PUSH2 0x1057 DUP2 PUSH2 0x113E JUMP JUMPDEST PUSH1 0x0 SLOAD PUSH1 0x1 PUSH1 0x1 PUSH1 0xA0 SHL SUB AND CALLER EQ PUSH2 0x111C JUMPI PUSH1 0x40 MLOAD PUSH3 0x461BCD PUSH1 0xE5 SHL DUP2 MSTORE PUSH1 0x4 ADD PUSH2 0x602 SWAP1 PUSH2 0x1453 JUMP JUMPDEST PUSH1 0x3 DUP1 SLOAD PUSH1 0x1 PUSH1 0x1 PUSH1 0xA0 SHL SUB NOT AND PUSH1 0x1 PUSH1 0x1 PUSH1 0xA0 SHL SUB SWAP3 SWAP1 SWAP3 AND SWAP2 SWAP1 SWAP2 OR SWAP1 SSTORE JUMP JUMPDEST PUSH1 0x0 DUP1 SLOAD PUSH1 0x1 PUSH1 0x1 PUSH1 0xA0 SHL SUB DUP4 DUP2 AND PUSH1 0x1 PUSH1 0x1 PUSH1 0xA0 SHL SUB NOT DUP4 AND DUP2 OR DUP5 SSTORE PUSH1 0x40 MLOAD SWAP2 SWAP1 SWAP3 AND SWAP3 DUP4 SWAP2 PUSH32 0x8BE0079C531659141344CD1FD0A4F28419497F9722A3DAAFE3B4186F6B6457E0 SWAP2 SWAP1 LOG3 POP POP JUMP JUMPDEST PUSH4 0x4E487B71 PUSH1 0xE0 SHL PUSH1 0x0 MSTORE PUSH1 0x41 PUSH1 0x4 MSTORE PUSH1 0x24 PUSH1 0x0 REVERT JUMPDEST PUSH1 0x40 MLOAD PUSH1 0x1F DUP3 ADD PUSH1 0x1F NOT AND DUP2 ADD PUSH1 0x1 PUSH1 0x1 PUSH1 0x40 SHL SUB DUP2 GT DUP3 DUP3 LT OR ISZERO PUSH2 0x11CC JUMPI PUSH2 0x11CC PUSH2 0x118E JUMP JUMPDEST PUSH1 0x40 MSTORE SWAP2 SWAP1 POP JUMP JUMPDEST PUSH1 0x0 PUSH1 0x1 PUSH1 0x1 PUSH1 0x40 SHL SUB DUP3 GT ISZERO PUSH2 0x11ED JUMPI PUSH2 0x11ED PUSH2 0x118E JUMP JUMPDEST POP PUSH1 0x5 SHL PUSH1 0x20 ADD SWAP1 JUMP JUMPDEST DUP1 CALLDATALOAD PUSH1 0x1 PUSH1 0x1 PUSH1 0xA0 SHL SUB DUP2 AND DUP2 EQ PUSH2 0x120E JUMPI PUSH1 0x0 DUP1 REVERT JUMPDEST SWAP2 SWAP1 POP JUMP JUMPDEST DUP1 ISZERO ISZERO DUP2 EQ PUSH2 0x1057 JUMPI PUSH1 0x0 DUP1 REVERT JUMPDEST PUSH1 0x0 DUP3 PUSH1 0x1F DUP4 ADD SLT PUSH2 0x1232 JUMPI PUSH1 0x0 DUP1 REVERT JUMPDEST DUP2 CALLDATALOAD PUSH1 0x20 PUSH2 0x1247 PUSH2 0x1242 DUP4 PUSH2 0x11D4 JUMP JUMPDEST PUSH2 0x11A4 JUMP JUMPDEST DUP3 DUP2 MSTORE PUSH1 0x5 SWAP3 SWAP1 SWAP3 SHL DUP5 ADD DUP2 ADD SWAP2 DUP2 DUP2 ADD SWAP1 DUP7 DUP5 GT ISZERO PUSH2 0x1266 JUMPI PUSH1 0x0 DUP1 REVERT JUMPDEST DUP3 DUP7 ADD JUMPDEST DUP5 DUP2 LT ISZERO PUSH2 0x128A JUMPI DUP1 CALLDATALOAD PUSH2 0x127D DUP2 PUSH2 0x1213 JUMP JUMPDEST DUP4 MSTORE SWAP2 DUP4 ADD SWAP2 DUP4 ADD PUSH2 0x126A JUMP JUMPDEST POP SWAP7 SWAP6 POP POP POP POP POP POP JUMP JUMPDEST PUSH1 0x0 DUP1 PUSH1 0x40 DUP4 DUP6 SUB SLT ISZERO PUSH2 0x12A8 JUMPI PUSH1 0x0 DUP1 REVERT JUMPDEST DUP3 CALLDATALOAD PUSH1 0x1 PUSH1 0x1 PUSH1 0x40 SHL SUB DUP1 DUP3 GT ISZERO PUSH2 0x12BF JUMPI PUSH1 0x0 DUP1 REVERT JUMPDEST DUP2 DUP6 ADD SWAP2 POP DUP6 PUSH1 0x1F DUP4 ADD SLT PUSH2 0x12D3 JUMPI PUSH1 0x0 DUP1 REVERT JUMPDEST DUP2 CALLDATALOAD PUSH1 0x20 PUSH2 0x12E3 PUSH2 0x1242 DUP4 PUSH2 0x11D4 JUMP JUMPDEST DUP3 DUP2 MSTORE PUSH1 0x5 SWAP3 SWAP1 SWAP3 SHL DUP5 ADD DUP2 ADD SWAP2 DUP2 DUP2 ADD SWAP1 DUP10 DUP5 GT ISZERO PUSH2 0x1302 JUMPI PUSH1 0x0 DUP1 REVERT JUMPDEST SWAP5 DUP3 ADD SWAP5 JUMPDEST DUP4 DUP7 LT ISZERO PUSH2 0x1327 JUMPI PUSH2 0x1318 DUP7 PUSH2 0x11F7 JUMP JUMPDEST DUP3 MSTORE SWAP5 DUP3 ADD SWAP5 SWAP1 DUP3 ADD SWAP1 PUSH2 0x1307 JUMP JUMPDEST SWAP7 POP POP DUP7 ADD CALLDATALOAD SWAP3 POP POP DUP1 DUP3 GT ISZERO PUSH2 0x133D JUMPI PUSH1 0x0 DUP1 REVERT JUMPDEST POP PUSH2 0x134A DUP6 DUP3 DUP7 ADD PUSH2 0x1221 JUMP JUMPDEST SWAP2 POP POP SWAP3 POP SWAP3 SWAP1 POP JUMP JUMPDEST PUSH1 0x0 PUSH1 0x20 DUP3 DUP5 SUB SLT ISZERO PUSH2 0x1366 JUMPI PUSH1 0x0 DUP1 REVERT JUMPDEST POP CALLDATALOAD SWAP2 SWAP1 POP JUMP JUMPDEST PUSH1 0x0 PUSH1 0x20 DUP3 DUP5 SUB SLT ISZERO PUSH2 0x137F JUMPI PUSH1 0x0 DUP1 REVERT JUMPDEST PUSH2 0x1388 DUP3 PUSH2 0x11F7 JUMP JUMPDEST SWAP4 SWAP3 POP POP POP JUMP JUMPDEST PUSH1 0x0 DUP1 PUSH1 0x40 DUP4 DUP6 SUB SLT ISZERO PUSH2 0x13A2 JUMPI PUSH1 0x0 DUP1 REVERT JUMPDEST PUSH2 0x13AB DUP4 PUSH2 0x11F7 JUMP JUMPDEST SWAP2 POP PUSH1 0x20 DUP4 ADD CALLDATALOAD PUSH2 0x13BB DUP2 PUSH2 0x1213 JUMP JUMPDEST DUP1 SWAP2 POP POP SWAP3 POP SWAP3 SWAP1 POP JUMP JUMPDEST PUSH1 0x0 PUSH1 0x20 DUP3 DUP5 SUB SLT ISZERO PUSH2 0x13D8 JUMPI PUSH1 0x0 DUP1 REVERT JUMPDEST DUP2 CALLDATALOAD PUSH2 0x1388 DUP2 PUSH2 0x1213 JUMP JUMPDEST PUSH1 0x0 PUSH1 0x20 DUP3 DUP5 SUB SLT ISZERO PUSH2 0x13F5 JUMPI PUSH1 0x0 DUP1 REVERT JUMPDEST DUP2 CALLDATALOAD PUSH4 0xFFFFFFFF DUP2 AND DUP2 EQ PUSH2 0x1388 JUMPI PUSH1 0x0 DUP1 REVERT JUMPDEST DUP1 CALLDATALOAD PUSH1 0x1 PUSH1 0x1 PUSH1 0x40 SHL SUB DUP2 AND DUP2 EQ PUSH2 0x120E JUMPI PUSH1 0x0 DUP1 REVERT JUMPDEST PUSH1 0x0 DUP1 PUSH1 0x40 DUP4 DUP6 SUB SLT ISZERO PUSH2 0x1433 JUMPI PUSH1 0x0 DUP1 REVERT JUMPDEST PUSH2 0x143C DUP4 PUSH2 0x1409 JUMP JUMPDEST SWAP2 POP PUSH2 0x144A PUSH1 0x20 DUP5 ADD PUSH2 0x1409 JUMP JUMPDEST SWAP1 POP SWAP3 POP SWAP3 SWAP1 POP JUMP JUMPDEST PUSH1 0x20 DUP1 DUP3 MSTORE DUP2 DUP2 ADD MSTORE PUSH32 0x4F776E61626C653A2063616C6C6572206973206E6F7420746865206F776E6572 PUSH1 0x40 DUP3 ADD MSTORE PUSH1 0x60 ADD SWAP1 JUMP JUMPDEST PUSH4 0x4E487B71 PUSH1 0xE0 SHL PUSH1 0x0 MSTORE PUSH1 0x32 PUSH1 0x4 MSTORE PUSH1 0x24 PUSH1 0x0 REVERT JUMPDEST PUSH4 0x4E487B71 PUSH1 0xE0 SHL PUSH1 0x0 MSTORE PUSH1 0x11 PUSH1 0x4 MSTORE PUSH1 0x24 PUSH1 0x0 REVERT JUMPDEST PUSH1 0x0 PUSH1 0x1 DUP3 ADD PUSH2 0x14C6 JUMPI PUSH2 0x14C6 PUSH2 0x149E JUMP JUMPDEST POP PUSH1 0x1 ADD SWAP1 JUMP JUMPDEST PUSH1 0x0 PUSH1 0x20 DUP3 DUP5 SUB SLT ISZERO PUSH2 0x14DF JUMPI PUSH1 0x0 DUP1 REVERT JUMPDEST DUP2 MLOAD PUSH2 0x1388 DUP2 PUSH2 0x1213 JUMP JUMPDEST PUSH1 0x20 DUP1 DUP3 MSTORE PUSH1 0x15 SWAP1 DUP3 ADD MSTORE PUSH21 0x151BDAD95B881D1C985B9CD9995C8819985A5B1959 PUSH1 0x5A SHL PUSH1 0x40 DUP3 ADD MSTORE PUSH1 0x60 ADD SWAP1 JUMP JUMPDEST PUSH1 0x0 PUSH4 0xFFFFFFFF DUP1 DUP4 AND DUP2 DUP2 SUB PUSH2 0x1532 JUMPI PUSH2 0x1532 PUSH2 0x149E JUMP JUMPDEST PUSH1 0x1 ADD SWAP4 SWAP3 POP POP POP JUMP JUMPDEST PUSH1 0x0 PUSH1 0x20 DUP3 DUP5 SUB SLT ISZERO PUSH2 0x154E JUMPI PUSH1 0x0 DUP1 REVERT JUMPDEST POP MLOAD SWAP2 SWAP1 POP JUMP INVALID LOG2 PUSH5 0x6970667358 0x22 SLT KECCAK256 0x5E CREATE 0xED 0xAA TIMESTAMP 0xD1 CALLDATALOAD CALL 0xB6 EXTCODECOPY PUSH29 0xB88BE091933D79DF171EE4E45E1FF901BDB257023664736F6C63430008 GT STOP CALLER "
				},
				"gasEstimates": {
					"creation": {
						"codeDepositCost": "1103000",
						"executionCost": "infinite",
						"totalCost": "infinite"
					},
					"external": {
						"buyTokens()": "infinite",
						"changeWhiteList(address,bool)": "26953",
						"changeWhiteListBatch(address[],bool[])": "infinite",
						"counter()": "2425",
						"disableWhiteList()": "2460",
						"emergencyWithdraw()": "infinite",
						"endAt()": "2443",
						"exigencyWithdrawToken(uint256)": "infinite",
						"getEndTime()": "2482",
						"getPreSellCoinAmount()": "2359",
						"getPreSellCounter()": "2407",
						"getPresellMax()": "2391",
						"getStartTime()": "2437",
						"getUsdtAmount()": "2381",
						"getUserHasBuy(address)": "2617",
						"getUserPreSellCoinAmount(address)": "2648",
						"getWithdrawCounter()": "2388",
						"hasBuy(address)": "2643",
						"marketAddress()": "2416",
						"owner()": "2366",
						"preMax()": "2374",
						"preSellCoinPreAmount()": "2363",
						"presellTokenMintAddress()": "2373",
						"renounceOwnership()": "28159",
						"sellToken()": "infinite",
						"setAmount(uint256)": "24577",
						"setDisableWhiteList(bool)": "26735",
						"setMarketAddress(address)": "26843",
						"setPresellMax(uint32)": "26791",
						"setTime(uint64,uint64)": "infinite",
						"startAt()": "2421",
						"transferOwnership(address)": "28419",
						"usdtAmount()": "2361",
						"usdtMintAddress()": "2459",
						"usdtToken()": "infinite",
						"userPresellBalanceMap(address)": "2587",
						"whiteList(address)": "2577",
						"withdrawCounter()": "2457",
						"withdrawPresellTokens()": "infinite"
					}
				},
				"methodIdentifiers": {
					"buyTokens()": "d0febe4c",
					"changeWhiteList(address,bool)": "39b417b7",
					"changeWhiteListBatch(address[],bool[])": "08c9d227",
					"counter()": "61bc221a",
					"disableWhiteList()": "dcd83616",
					"emergencyWithdraw()": "db2e21bc",
					"endAt()": "7cc3ae8c",
					"exigencyWithdrawToken(uint256)": "5fc1cb63",
					"getEndTime()": "439f5ac2",
					"getPreSellCoinAmount()": "78eb6c6f",
					"getPreSellCounter()": "f01fc57c",
					"getPresellMax()": "d1d04e1f",
					"getStartTime()": "c828371e",
					"getUsdtAmount()": "d35cde41",
					"getUserHasBuy(address)": "374eedef",
					"getUserPreSellCoinAmount(address)": "8568f4ce",
					"getWithdrawCounter()": "03d7424d",
					"hasBuy(address)": "3d719da7",
					"marketAddress()": "95623641",
					"owner()": "8da5cb5b",
					"preMax()": "e25f9f2f",
					"preSellCoinPreAmount()": "5f8524fb",
					"presellTokenMintAddress()": "027734fa",
					"renounceOwnership()": "715018a6",
					"sellToken()": "9769f0b0",
					"setAmount(uint256)": "271f88b4",
					"setDisableWhiteList(bool)": "50b2b0a4",
					"setMarketAddress(address)": "fae92612",
					"setPresellMax(uint32)": "69c82ef7",
					"setTime(uint64,uint64)": "acf6c91c",
					"startAt()": "c7446565",
					"transferOwnership(address)": "f2fde38b",
					"usdtAmount()": "e4eef896",
					"usdtMintAddress()": "88af60c6",
					"usdtToken()": "a98ad46c",
					"userPresellBalanceMap(address)": "90f5881a",
					"whiteList(address)": "372c12b1",
					"withdrawCounter()": "ca16e3eb",
					"withdrawPresellTokens()": "c9ede793"
				}
			},
			"storageLayout": {
				"storage": [
					{
						"astId": 70,
						"contract": "ex/BPresell.sol:BabyPresell",
						"label": "_owner",
						"offset": 0,
						"slot": "0",
						"type": "t_address"
					},
					{
						"astId": 172,
						"contract": "ex/BPresell.sol:BabyPresell",
						"label": "usdtMintAddress",
						"offset": 0,
						"slot": "1",
						"type": "t_address"
					},
					{
						"astId": 175,
						"contract": "ex/BPresell.sol:BabyPresell",
						"label": "presellTokenMintAddress",
						"offset": 0,
						"slot": "2",
						"type": "t_address"
					},
					{
						"astId": 178,
						"contract": "ex/BPresell.sol:BabyPresell",
						"label": "marketAddress",
						"offset": 0,
						"slot": "3",
						"type": "t_address"
					},
					{
						"astId": 185,
						"contract": "ex/BPresell.sol:BabyPresell",
						"label": "usdtAmount",
						"offset": 0,
						"slot": "4",
						"type": "t_uint256"
					},
					{
						"astId": 192,
						"contract": "ex/BPresell.sol:BabyPresell",
						"label": "preSellCoinPreAmount",
						"offset": 0,
						"slot": "5",
						"type": "t_uint256"
					},
					{
						"astId": 194,
						"contract": "ex/BPresell.sol:BabyPresell",
						"label": "counter",
						"offset": 0,
						"slot": "6",
						"type": "t_uint32"
					},
					{
						"astId": 196,
						"contract": "ex/BPresell.sol:BabyPresell",
						"label": "withdrawCounter",
						"offset": 4,
						"slot": "6",
						"type": "t_uint32"
					},
					{
						"astId": 199,
						"contract": "ex/BPresell.sol:BabyPresell",
						"label": "preMax",
						"offset": 8,
						"slot": "6",
						"type": "t_uint32"
					},
					{
						"astId": 201,
						"contract": "ex/BPresell.sol:BabyPresell",
						"label": "startAt",
						"offset": 12,
						"slot": "6",
						"type": "t_uint64"
					},
					{
						"astId": 203,
						"contract": "ex/BPresell.sol:BabyPresell",
						"label": "endAt",
						"offset": 20,
						"slot": "6",
						"type": "t_uint64"
					},
					{
						"astId": 205,
						"contract": "ex/BPresell.sol:BabyPresell",
						"label": "disableWhiteList",
						"offset": 28,
						"slot": "6",
						"type": "t_bool"
					},
					{
						"astId": 215,
						"contract": "ex/BPresell.sol:BabyPresell",
						"label": "userPresellBalanceMap",
						"offset": 0,
						"slot": "7",
						"type": "t_mapping(t_address,t_uint256)"
					},
					{
						"astId": 219,
						"contract": "ex/BPresell.sol:BabyPresell",
						"label": "hasBuy",
						"offset": 0,
						"slot": "8",
						"type": "t_mapping(t_address,t_bool)"
					},
					{
						"astId": 223,
						"contract": "ex/BPresell.sol:BabyPresell",
						"label": "whiteList",
						"offset": 0,
						"slot": "9",
						"type": "t_mapping(t_address,t_bool)"
					}
				],
				"types": {
					"t_address": {
						"encoding": "inplace",
						"label": "address",
						"numberOfBytes": "20"
					},
					"t_bool": {
						"encoding": "inplace",
						"label": "bool",
						"numberOfBytes": "1"
					},
					"t_mapping(t_address,t_bool)": {
						"encoding": "mapping",
						"key": "t_address",
						"label": "mapping(address => bool)",
						"numberOfBytes": "32",
						"value": "t_bool"
					},
					"t_mapping(t_address,t_uint256)": {
						"encoding": "mapping",
						"key": "t_address",
						"label": "mapping(address => uint256)",
						"numberOfBytes": "32",
						"value": "t_uint256"
					},
					"t_uint256": {
						"encoding": "inplace",
						"label": "uint256",
						"numberOfBytes": "32"
					},
					"t_uint32": {
						"encoding": "inplace",
						"label": "uint32",
						"numberOfBytes": "4"
					},
					"t_uint64": {
						"encoding": "inplace",
						"label": "uint64",
						"numberOfBytes": "8"
					}
				}
			},
			"userdoc": {
				"kind": "user",
				"methods": {},
				"version": 1
			}
		}
	}
}