{
	"worldcup/DreamChallenge.sol": {
		"DreamChallenge": {
			"abi": [
				{
					"anonymous": false,
					"inputs": [
						{
							"indexed": true,
							"internalType": "address",
							"name": "admin",
							"type": "address"
						},
						{
							"indexed": false,
							"internalType": "enum DreamChallenge.Ctype",
							"name": "ctype",
							"type": "uint8"
						},
						{
							"indexed": false,
							"internalType": "uint16",
							"name": "challengeId",
							"type": "uint16"
						},
						{
							"indexed": false,
							"internalType": "uint256",
							"name": "startAt",
							"type": "uint256"
						},
						{
							"indexed": false,
							"internalType": "uint256",
							"name": "endAt",
							"type": "uint256"
						},
						{
							"indexed": false,
							"internalType": "uint256",
							"name": "tokenIdLeft",
							"type": "uint256"
						},
						{
							"indexed": false,
							"internalType": "uint256",
							"name": "tokenIdRigth",
							"type": "uint256"
						}
					],
					"name": "AddChallenge",
					"type": "event"
				},
				{
					"anonymous": false,
					"inputs": [
						{
							"indexed": true,
							"internalType": "address",
							"name": "user",
							"type": "address"
						},
						{
							"indexed": false,
							"internalType": "uint16",
							"name": "challengeId",
							"type": "uint16"
						},
						{
							"indexed": false,
							"internalType": "uint256",
							"name": "tokenid",
							"type": "uint256"
						},
						{
							"indexed": false,
							"internalType": "uint256",
							"name": "amount",
							"type": "uint256"
						}
					],
					"name": "EnterChallenge",
					"type": "event"
				},
				{
					"anonymous": false,
					"inputs": [
						{
							"indexed": true,
							"internalType": "address",
							"name": "admin",
							"type": "address"
						},
						{
							"indexed": false,
							"internalType": "bool",
							"name": "oldState",
							"type": "bool"
						},
						{
							"indexed": false,
							"internalType": "bool",
							"name": "newState",
							"type": "bool"
						}
					],
					"name": "ModificationAdmin",
					"type": "event"
				},
				{
					"anonymous": false,
					"inputs": [
						{
							"indexed": true,
							"internalType": "address",
							"name": "admin",
							"type": "address"
						},
						{
							"indexed": false,
							"internalType": "uint16",
							"name": "challenageId",
							"type": "uint16"
						}
					],
					"name": "OpenChallenge",
					"type": "event"
				},
				{
					"anonymous": false,
					"inputs": [
						{
							"indexed": true,
							"internalType": "address",
							"name": "previousOwner",
							"type": "address"
						},
						{
							"indexed": true,
							"internalType": "address",
							"name": "newOwner",
							"type": "address"
						}
					],
					"name": "OwnershipTransferred",
					"type": "event"
				},
				{
					"anonymous": false,
					"inputs": [
						{
							"indexed": true,
							"internalType": "address",
							"name": "user",
							"type": "address"
						},
						{
							"indexed": false,
							"internalType": "uint16",
							"name": "challageId",
							"type": "uint16"
						},
						{
							"indexed": false,
							"internalType": "uint256",
							"name": "amount",
							"type": "uint256"
						}
					],
					"name": "WithdrawReward",
					"type": "event"
				},
				{
					"inputs": [
						{
							"internalType": "enum DreamChallenge.Ctype",
							"name": "_ctype",
							"type": "uint8"
						},
						{
							"internalType": "uint256",
							"name": "_startAt",
							"type": "uint256"
						},
						{
							"internalType": "uint256",
							"name": "_endAt",
							"type": "uint256"
						},
						{
							"internalType": "uint256",
							"name": "_tokenIdLeft",
							"type": "uint256"
						},
						{
							"internalType": "uint256",
							"name": "_tokenIdRight",
							"type": "uint256"
						}
					],
					"name": "addChallenge",
					"outputs": [],
					"stateMutability": "nonpayable",
					"type": "function"
				},
				{
					"inputs": [],
					"name": "challengeIdInex",
					"outputs": [
						{
							"internalType": "uint16",
							"name": "",
							"type": "uint16"
						}
					],
					"stateMutability": "view",
					"type": "function"
				},
				{
					"inputs": [
						{
							"internalType": "uint16",
							"name": "_id",
							"type": "uint16"
						},
						{
							"internalType": "uint256",
							"name": "_tokenid",
							"type": "uint256"
						},
						{
							"internalType": "uint256",
							"name": "_amount",
							"type": "uint256"
						}
					],
					"name": "enterChallenge",
					"outputs": [],
					"stateMutability": "nonpayable",
					"type": "function"
				},
				{
					"inputs": [
						{
							"internalType": "uint16",
							"name": "challengeId",
							"type": "uint16"
						}
					],
					"name": "getChallengeInfo",
					"outputs": [
						{
							"components": [
								{
									"internalType": "enum DreamChallenge.Ctype",
									"name": "ctype",
									"type": "uint8"
								},
								{
									"internalType": "uint16",
									"name": "id",
									"type": "uint16"
								},
								{
									"internalType": "uint256",
									"name": "startAt",
									"type": "uint256"
								},
								{
									"internalType": "uint256",
									"name": "endAt",
									"type": "uint256"
								},
								{
									"internalType": "uint256",
									"name": "openAt",
									"type": "uint256"
								},
								{
									"internalType": "uint256",
									"name": "tokenIdLeft",
									"type": "uint256"
								},
								{
									"internalType": "uint256",
									"name": "tokenIdRight",
									"type": "uint256"
								},
								{
									"internalType": "uint256",
									"name": "leftTotalAmount",
									"type": "uint256"
								},
								{
									"internalType": "uint256",
									"name": "rightTotalAmount",
									"type": "uint256"
								},
								{
									"internalType": "uint256",
									"name": "winnerTokenId",
									"type": "uint256"
								}
							],
							"internalType": "struct DreamChallenge.Challenge",
							"name": "",
							"type": "tuple"
						}
					],
					"stateMutability": "view",
					"type": "function"
				},
				{
					"inputs": [
						{
							"internalType": "address",
							"name": "account",
							"type": "address"
						},
						{
							"internalType": "uint16",
							"name": "challengeId",
							"type": "uint16"
						}
					],
					"name": "getUserChallengeInfo",
					"outputs": [
						{
							"components": [
								{
									"internalType": "uint16",
									"name": "challengeId",
									"type": "uint16"
								},
								{
									"internalType": "uint256",
									"name": "amountsLeft",
									"type": "uint256"
								},
								{
									"internalType": "uint256",
									"name": "amountsRight",
									"type": "uint256"
								},
								{
									"internalType": "bool",
									"name": "isTakeReward",
									"type": "bool"
								}
							],
							"internalType": "struct DreamChallenge.UserInfo",
							"name": "",
							"type": "tuple"
						}
					],
					"stateMutability": "view",
					"type": "function"
				},
				{
					"inputs": [
						{
							"internalType": "address",
							"name": "account",
							"type": "address"
						}
					],
					"name": "getUserChallenges",
					"outputs": [
						{
							"internalType": "uint16[]",
							"name": "",
							"type": "uint16[]"
						}
					],
					"stateMutability": "view",
					"type": "function"
				},
				{
					"inputs": [
						{
							"internalType": "address",
							"name": "account",
							"type": "address"
						},
						{
							"internalType": "uint16",
							"name": "challengeId",
							"type": "uint16"
						}
					],
					"name": "getUserRewards",
					"outputs": [
						{
							"internalType": "uint256",
							"name": "",
							"type": "uint256"
						}
					],
					"stateMutability": "view",
					"type": "function"
				},
				{
					"inputs": [
						{
							"internalType": "address",
							"name": "account",
							"type": "address"
						}
					],
					"name": "isAdmin",
					"outputs": [
						{
							"internalType": "bool",
							"name": "",
							"type": "bool"
						}
					],
					"stateMutability": "view",
					"type": "function"
				},
				{
					"inputs": [
						{
							"internalType": "address",
							"name": "admin",
							"type": "address"
						},
						{
							"internalType": "bool",
							"name": "state",
							"type": "bool"
						}
					],
					"name": "modificationAdmin",
					"outputs": [],
					"stateMutability": "nonpayable",
					"type": "function"
				},
				{
					"inputs": [],
					"name": "nftCost",
					"outputs": [
						{
							"internalType": "uint256",
							"name": "",
							"type": "uint256"
						}
					],
					"stateMutability": "view",
					"type": "function"
				},
				{
					"inputs": [
						{
							"internalType": "address",
							"name": "",
							"type": "address"
						},
						{
							"internalType": "address",
							"name": "",
							"type": "address"
						},
						{
							"internalType": "uint256[]",
							"name": "",
							"type": "uint256[]"
						},
						{
							"internalType": "uint256[]",
							"name": "",
							"type": "uint256[]"
						},
						{
							"internalType": "bytes",
							"name": "",
							"type": "bytes"
						}
					],
					"name": "onERC1155BatchReceived",
					"outputs": [
						{
							"internalType": "bytes4",
							"name": "",
							"type": "bytes4"
						}
					],
					"stateMutability": "nonpayable",
					"type": "function"
				},
				{
					"inputs": [
						{
							"internalType": "address",
							"name": "",
							"type": "address"
						},
						{
							"internalType": "address",
							"name": "",
							"type": "address"
						},
						{
							"internalType": "uint256",
							"name": "",
							"type": "uint256"
						},
						{
							"internalType": "uint256",
							"name": "",
							"type": "uint256"
						},
						{
							"internalType": "bytes",
							"name": "",
							"type": "bytes"
						}
					],
					"name": "onERC1155Received",
					"outputs": [
						{
							"internalType": "bytes4",
							"name": "",
							"type": "bytes4"
						}
					],
					"stateMutability": "nonpayable",
					"type": "function"
				},
				{
					"inputs": [
						{
							"internalType": "uint16",
							"name": "challengeId",
							"type": "uint16"
						},
						{
							"internalType": "uint256",
							"name": "winnerTokenId",
							"type": "uint256"
						}
					],
					"name": "openChallenge",
					"outputs": [],
					"stateMutability": "nonpayable",
					"type": "function"
				},
				{
					"inputs": [],
					"name": "owner",
					"outputs": [
						{
							"internalType": "address",
							"name": "",
							"type": "address"
						}
					],
					"stateMutability": "view",
					"type": "function"
				},
				{
					"inputs": [],
					"name": "renounceOwnership",
					"outputs": [],
					"stateMutability": "nonpayable",
					"type": "function"
				},
				{
					"inputs": [],
					"name": "rewardToken",
					"outputs": [
						{
							"internalType": "address",
							"name": "",
							"type": "address"
						}
					],
					"stateMutability": "view",
					"type": "function"
				},
				{
					"inputs": [
						{
							"internalType": "uint256",
							"name": "_amount",
							"type": "uint256"
						}
					],
					"name": "setNftCost",
					"outputs": [],
					"stateMutability": "nonpayable",
					"type": "function"
				},
				{
					"inputs": [
						{
							"internalType": "address",
							"name": "_token",
							"type": "address"
						}
					],
					"name": "setRewardToken",
					"outputs": [],
					"stateMutability": "nonpayable",
					"type": "function"
				},
				{
					"inputs": [
						{
							"internalType": "address",
							"name": "_nft",
							"type": "address"
						}
					],
					"name": "setTeamNft",
					"outputs": [],
					"stateMutability": "nonpayable",
					"type": "function"
				},
				{
					"inputs": [
						{
							"internalType": "bytes4",
							"name": "interfaceId",
							"type": "bytes4"
						}
					],
					"name": "supportsInterface",
					"outputs": [
						{
							"internalType": "bool",
							"name": "",
							"type": "bool"
						}
					],
					"stateMutability": "view",
					"type": "function"
				},
				{
					"inputs": [],
					"name": "teamNft",
					"outputs": [
						{
							"internalType": "address",
							"name": "",
							"type": "address"
						}
					],
					"stateMutability": "view",
					"type": "function"
				},
				{
					"inputs": [
						{
							"internalType": "address",
							"name": "newOwner",
							"type": "address"
						}
					],
					"name": "transferOwnership",
					"outputs": [],
					"stateMutability": "nonpayable",
					"type": "function"
				},
				{
					"inputs": [
						{
							"internalType": "uint16",
							"name": "_challengeId",
							"type": "uint16"
						}
					],
					"name": "withdrawReward",
					"outputs": [],
					"stateMutability": "nonpayable",
					"type": "function"
				}
			],
			"devdoc": {
				"kind": "dev",
				"methods": {
					"supportsInterface(bytes4)": {
						"details": "See {IERC165-supportsInterface}."
					}
				},
				"version": 1
			},
			"evm": {
				"assembly": "    /* \"worldcup/DreamChallenge.sol\":498:6811  contract DreamChallenge is Adminable, ERC1155Holder{... */\n  mstore(0x40, 0x80)\n    /* \"worldcup/DreamChallenge.sol\":652:653  1 */\n  0x01\n    /* \"worldcup/DreamChallenge.sol\":620:653  uint16 public challengeIdInex = 1 */\n  0x03\n  exp(0x0100, 0x14)\n  dup2\n  sload\n  dup2\n  0xffff\n  mul\n  not\n  and\n  swap1\n  dup4\n  0xffff\n  and\n  mul\n  or\n  swap1\n  sstore\n  pop\n    /* \"worldcup/DreamChallenge.sol\":685:697  1 * 10 ** 18 */\n  0x0de0b6b3a7640000\n    /* \"worldcup/DreamChallenge.sol\":660:697  uint256 public nftCost = 1 * 10 ** 18 */\n  0x04\n  sstore\n    /* \"worldcup/DreamChallenge.sol\":498:6811  contract DreamChallenge is Adminable, ERC1155Holder{... */\n  callvalue\n  dup1\n  iszero\n  tag_1\n  jumpi\n  0x00\n  dup1\n  revert\ntag_1:\n  pop\n    /* \"worldcup/Adminable.sol\":605:637  _transferOwnership(_msgSender()) */\n  tag_4\n    /* \"worldcup/Adminable.sol\":624:636  _msgSender() */\n  tag_5\n    /* \"worldcup/Adminable.sol\":624:634  _msgSender */\n  shl(0x20, tag_6)\n    /* \"worldcup/Adminable.sol\":624:636  _msgSender() */\n  0x20\n  shr\n  jump\t// in\ntag_5:\n    /* \"worldcup/Adminable.sol\":605:623  _transferOwnership */\n  shl(0x20, tag_7)\n    /* \"worldcup/Adminable.sol\":605:637  _transferOwnership(_msgSender()) */\n  0x20\n  shr\n  jump\t// in\ntag_4:\n    /* \"worldcup/DreamChallenge.sol\":498:6811  contract DreamChallenge is Adminable, ERC1155Holder{... */\n  jump(tag_8)\n    /* \"worldcup/Adminable.sol\":64:162  function _msgSender() internal view virtual returns (address) {... */\ntag_6:\n    /* \"worldcup/Adminable.sol\":117:124  address */\n  0x00\n    /* \"worldcup/Adminable.sol\":144:154  msg.sender */\n  caller\n    /* \"worldcup/Adminable.sol\":137:154  return msg.sender */\n  swap1\n  pop\n    /* \"worldcup/Adminable.sol\":64:162  function _msgSender() internal view virtual returns (address) {... */\n  swap1\n  jump\t// out\n    /* \"worldcup/Adminable.sol\":1445:1636  function _transferOwnership(address newOwner) internal virtual {... */\ntag_7:\n    /* \"worldcup/Adminable.sol\":1519:1535  address oldOwner */\n  0x00\n    /* \"worldcup/Adminable.sol\":1538:1544  _owner */\n  0x01\n  0x00\n  swap1\n  sload\n  swap1\n  0x0100\n  exp\n  swap1\n  div\n  0xffffffffffffffffffffffffffffffffffffffff\n  and\n    /* \"worldcup/Adminable.sol\":1519:1544  address oldOwner = _owner */\n  swap1\n  pop\n    /* \"worldcup/Adminable.sol\":1564:1572  newOwner */\n  dup2\n    /* \"worldcup/Adminable.sol\":1555:1561  _owner */\n  0x01\n  0x00\n    /* \"worldcup/Adminable.sol\":1555:1572  _owner = newOwner */\n  0x0100\n  exp\n  dup2\n  sload\n  dup2\n  0xffffffffffffffffffffffffffffffffffffffff\n  mul\n  not\n  and\n  swap1\n  dup4\n  0xffffffffffffffffffffffffffffffffffffffff\n  and\n  mul\n  or\n  swap1\n  sstore\n  pop\n    /* \"worldcup/Adminable.sol\":1619:1627  newOwner */\n  dup2\n    /* \"worldcup/Adminable.sol\":1588:1628  OwnershipTransferred(oldOwner, newOwner) */\n  0xffffffffffffffffffffffffffffffffffffffff\n  and\n    /* \"worldcup/Adminable.sol\":1609:1617  oldOwner */\n  dup2\n    /* \"worldcup/Adminable.sol\":1588:1628  OwnershipTransferred(oldOwner, newOwner) */\n  0xffffffffffffffffffffffffffffffffffffffff\n  and\n  0x8be0079c531659141344cd1fd0a4f28419497f9722a3daafe3b4186f6b6457e0\n  mload(0x40)\n  mload(0x40)\n  dup1\n  swap2\n  sub\n  swap1\n  log3\n    /* \"worldcup/Adminable.sol\":1508:1636  {... */\n  pop\n    /* \"worldcup/Adminable.sol\":1445:1636  function _transferOwnership(address newOwner) internal virtual {... */\n  pop\n  jump\t// out\n    /* \"worldcup/DreamChallenge.sol\":498:6811  contract DreamChallenge is Adminable, ERC1155Holder{... */\ntag_8:\n  dataSize(sub_0)\n  dup1\n  dataOffset(sub_0)\n  0x00\n  codecopy\n  0x00\n  return\nstop\n\nsub_0: assembly {\n        /* \"worldcup/DreamChallenge.sol\":498:6811  contract DreamChallenge is Adminable, ERC1155Holder{... */\n      mstore(0x40, 0x80)\n      callvalue\n      dup1\n      iszero\n      tag_1\n      jumpi\n      0x00\n      dup1\n      revert\n    tag_1:\n      pop\n      jumpi(tag_2, lt(calldatasize, 0x04))\n      shr(0xe0, calldataload(0x00))\n      dup1\n      0x891ee6d3\n      gt\n      tag_26\n      jumpi\n      dup1\n      0xda80e59b\n      gt\n      tag_27\n      jumpi\n      dup1\n      0xda80e59b\n      eq\n      tag_20\n      jumpi\n      dup1\n      0xf23a6e61\n      eq\n      tag_21\n      jumpi\n      dup1\n      0xf2fde38b\n      eq\n      tag_22\n      jumpi\n      dup1\n      0xf606faea\n      eq\n      tag_23\n      jumpi\n      dup1\n      0xf7c618c1\n      eq\n      tag_24\n      jumpi\n      dup1\n      0xffa65732\n      eq\n      tag_25\n      jumpi\n      jump(tag_2)\n    tag_27:\n      dup1\n      0x891ee6d3\n      eq\n      tag_14\n      jumpi\n      dup1\n      0x8aee8127\n      eq\n      tag_15\n      jumpi\n      dup1\n      0x8da5cb5b\n      eq\n      tag_16\n      jumpi\n      dup1\n      0xa278602f\n      eq\n      tag_17\n      jumpi\n      dup1\n      0xbc197c81\n      eq\n      tag_18\n      jumpi\n      dup1\n      0xd5bf583b\n      eq\n      tag_19\n      jumpi\n      jump(tag_2)\n    tag_26:\n      dup1\n      0x24d7806c\n      gt\n      tag_28\n      jumpi\n      dup1\n      0x24d7806c\n      eq\n      tag_8\n      jumpi\n      dup1\n      0x270e3994\n      eq\n      tag_9\n      jumpi\n      dup1\n      0x52964def\n      eq\n      tag_10\n      jumpi\n      dup1\n      0x6cd262fb\n      eq\n      tag_11\n      jumpi\n      dup1\n      0x715018a6\n      eq\n      tag_12\n      jumpi\n      dup1\n      0x749f3429\n      eq\n      tag_13\n      jumpi\n      jump(tag_2)\n    tag_28:\n      dup1\n      0x01ffc9a7\n      eq\n      tag_3\n      jumpi\n      dup1\n      0x082d0785\n      eq\n      tag_4\n      jumpi\n      dup1\n      0x11da8e54\n      eq\n      tag_5\n      jumpi\n      dup1\n      0x18e20ecf\n      eq\n      tag_6\n      jumpi\n      dup1\n      0x21569088\n      eq\n      tag_7\n      jumpi\n    tag_2:\n      0x00\n      dup1\n      revert\n        /* \"https://github.com/OpenZeppelin/openzeppelin-contracts/blob/master/contracts/token/ERC1155/utils/ERC1155Receiver.sol\":387:608  function supportsInterface(bytes4 interfaceId) public view virtual override(ERC165, IERC165) returns (bool) {... */\n    tag_3:\n      tag_29\n      0x04\n      dup1\n      calldatasize\n      sub\n      dup2\n      add\n      swap1\n      tag_30\n      swap2\n      swap1\n      tag_31\n      jump\t// in\n    tag_30:\n      tag_32\n      jump\t// in\n    tag_29:\n      mload(0x40)\n      tag_33\n      swap2\n      swap1\n      tag_34\n      jump\t// in\n    tag_33:\n      mload(0x40)\n      dup1\n      swap2\n      sub\n      swap1\n      return\n        /* \"worldcup/DreamChallenge.sol\":4230:5072  function withdrawReward(uint16 _challengeId) public {... */\n    tag_4:\n      tag_35\n      0x04\n      dup1\n      calldatasize\n      sub\n      dup2\n      add\n      swap1\n      tag_36\n      swap2\n      swap1\n      tag_37\n      jump\t// in\n    tag_36:\n      tag_38\n      jump\t// in\n    tag_35:\n      stop\n        /* \"worldcup/DreamChallenge.sol\":6361:6493  function getUserChallenges(address account) public view returns(uint16[] memory) {... */\n    tag_5:\n      tag_39\n      0x04\n      dup1\n      calldatasize\n      sub\n      dup2\n      add\n      swap1\n      tag_40\n      swap2\n      swap1\n      tag_41\n      jump\t// in\n    tag_40:\n      tag_42\n      jump\t// in\n    tag_39:\n      mload(0x40)\n      tag_43\n      swap2\n      swap1\n      tag_44\n      jump\t// in\n    tag_43:\n      mload(0x40)\n      dup1\n      swap2\n      sub\n      swap1\n      return\n        /* \"worldcup/Adminable.sol\":1644:1828  function modificationAdmin(address admin, bool state) public virtual onlyOwner {... */\n    tag_6:\n      tag_45\n      0x04\n      dup1\n      calldatasize\n      sub\n      dup2\n      add\n      swap1\n      tag_46\n      swap2\n      swap1\n      tag_47\n      jump\t// in\n    tag_46:\n      tag_48\n      jump\t// in\n    tag_45:\n      stop\n        /* \"worldcup/DreamChallenge.sol\":5709:6353  function getUserRewards(address account, uint16 challengeId) public view returns(uint256){... */\n    tag_7:\n      tag_49\n      0x04\n      dup1\n      calldatasize\n      sub\n      dup2\n      add\n      swap1\n      tag_50\n      swap2\n      swap1\n      tag_51\n      jump\t// in\n    tag_50:\n      tag_52\n      jump\t// in\n    tag_49:\n      mload(0x40)\n      tag_53\n      swap2\n      swap1\n      tag_54\n      jump\t// in\n    tag_53:\n      mload(0x40)\n      dup1\n      swap2\n      sub\n      swap1\n      return\n        /* \"worldcup/Adminable.sol\":1006:1117  function isAdmin(address account) public view virtual returns (bool) {... */\n    tag_8:\n      tag_55\n      0x04\n      dup1\n      calldatasize\n      sub\n      dup2\n      add\n      swap1\n      tag_56\n      swap2\n      swap1\n      tag_41\n      jump\t// in\n    tag_56:\n      tag_57\n      jump\t// in\n    tag_55:\n      mload(0x40)\n      tag_58\n      swap2\n      swap1\n      tag_34\n      jump\t// in\n    tag_58:\n      mload(0x40)\n      dup1\n      swap2\n      sub\n      swap1\n      return\n        /* \"worldcup/DreamChallenge.sol\":558:580  address public teamNft */\n    tag_9:\n      tag_59\n      tag_60\n      jump\t// in\n    tag_59:\n      mload(0x40)\n      tag_61\n      swap2\n      swap1\n      tag_62\n      jump\t// in\n    tag_61:\n      mload(0x40)\n      dup1\n      swap2\n      sub\n      swap1\n      return\n        /* \"worldcup/DreamChallenge.sol\":2493:3660  function enterChallenge(uint16 _id, uint256 _tokenid, uint256 _amount) public {... */\n    tag_10:\n      tag_63\n      0x04\n      dup1\n      calldatasize\n      sub\n      dup2\n      add\n      swap1\n      tag_64\n      swap2\n      swap1\n      tag_65\n      jump\t// in\n    tag_64:\n      tag_66\n      jump\t// in\n    tag_63:\n      stop\n        /* \"worldcup/DreamChallenge.sol\":5080:5164  function setTeamNft(address _nft) public onlyOwner {... */\n    tag_11:\n      tag_67\n      0x04\n      dup1\n      calldatasize\n      sub\n      dup2\n      add\n      swap1\n      tag_68\n      swap2\n      swap1\n      tag_41\n      jump\t// in\n    tag_68:\n      tag_69\n      jump\t// in\n    tag_67:\n      stop\n        /* \"worldcup/Adminable.sol\":1125:1228  function renounceOwnership() public virtual onlyOwner {... */\n    tag_12:\n      tag_70\n      tag_71\n      jump\t// in\n    tag_70:\n      stop\n        /* \"worldcup/DreamChallenge.sol\":6501:6667  function getUserChallengeInfo(address account, uint16 challengeId) public view returns(UserInfo memory) {... */\n    tag_13:\n      tag_72\n      0x04\n      dup1\n      calldatasize\n      sub\n      dup2\n      add\n      swap1\n      tag_73\n      swap2\n      swap1\n      tag_51\n      jump\t// in\n    tag_73:\n      tag_74\n      jump\t// in\n    tag_72:\n      mload(0x40)\n      tag_75\n      swap2\n      swap1\n      tag_76\n      jump\t// in\n    tag_75:\n      mload(0x40)\n      dup1\n      swap2\n      sub\n      swap1\n      return\n        /* \"worldcup/DreamChallenge.sol\":6675:6808  function getChallengeInfo(uint16 challengeId) public view returns(Challenge memory) {... */\n    tag_14:\n      tag_77\n      0x04\n      dup1\n      calldatasize\n      sub\n      dup2\n      add\n      swap1\n      tag_78\n      swap2\n      swap1\n      tag_37\n      jump\t// in\n    tag_78:\n      tag_79\n      jump\t// in\n    tag_77:\n      mload(0x40)\n      tag_80\n      swap2\n      swap1\n      tag_81\n      jump\t// in\n    tag_80:\n      mload(0x40)\n      dup1\n      swap2\n      sub\n      swap1\n      return\n        /* \"worldcup/DreamChallenge.sol\":5172:5268  function setRewardToken(address _token) public onlyOwner {... */\n    tag_15:\n      tag_82\n      0x04\n      dup1\n      calldatasize\n      sub\n      dup2\n      add\n      swap1\n      tag_83\n      swap2\n      swap1\n      tag_41\n      jump\t// in\n    tag_83:\n      tag_84\n      jump\t// in\n    tag_82:\n      stop\n        /* \"worldcup/Adminable.sol\":911:998  function owner() public view virtual returns (address) {... */\n    tag_16:\n      tag_85\n      tag_86\n      jump\t// in\n    tag_85:\n      mload(0x40)\n      tag_87\n      swap2\n      swap1\n      tag_62\n      jump\t// in\n    tag_87:\n      mload(0x40)\n      dup1\n      swap2\n      sub\n      swap1\n      return\n        /* \"worldcup/DreamChallenge.sol\":3668:4186  function openChallenge(uint16 challengeId, uint256 winnerTokenId) public onlyAdmin {... */\n    tag_17:\n      tag_88\n      0x04\n      dup1\n      calldatasize\n      sub\n      dup2\n      add\n      swap1\n      tag_89\n      swap2\n      swap1\n      tag_90\n      jump\t// in\n    tag_89:\n      tag_91\n      jump\t// in\n    tag_88:\n      stop\n        /* \"https://github.com/OpenZeppelin/openzeppelin-contracts/blob/master/contracts/token/ERC1155/utils/ERC1155Holder.sol\":724:971  function onERC1155BatchReceived(... */\n    tag_18:\n      tag_92\n      0x04\n      dup1\n      calldatasize\n      sub\n      dup2\n      add\n      swap1\n      tag_93\n      swap2\n      swap1\n      tag_94\n      jump\t// in\n    tag_93:\n      tag_95\n      jump\t// in\n    tag_92:\n      mload(0x40)\n      tag_96\n      swap2\n      swap1\n      tag_97\n      jump\t// in\n    tag_96:\n      mload(0x40)\n      dup1\n      swap2\n      sub\n      swap1\n      return\n        /* \"worldcup/DreamChallenge.sol\":1851:2485  function addChallenge(Ctype _ctype, uint256 _startAt, uint256 _endAt,... */\n    tag_19:\n      tag_98\n      0x04\n      dup1\n      calldatasize\n      sub\n      dup2\n      add\n      swap1\n      tag_99\n      swap2\n      swap1\n      tag_100\n      jump\t// in\n    tag_99:\n      tag_101\n      jump\t// in\n    tag_98:\n      stop\n        /* \"worldcup/DreamChallenge.sol\":660:697  uint256 public nftCost = 1 * 10 ** 18 */\n    tag_20:\n      tag_102\n      tag_103\n      jump\t// in\n    tag_102:\n      mload(0x40)\n      tag_104\n      swap2\n      swap1\n      tag_54\n      jump\t// in\n    tag_104:\n      mload(0x40)\n      dup1\n      swap2\n      sub\n      swap1\n      return\n        /* \"https://github.com/OpenZeppelin/openzeppelin-contracts/blob/master/contracts/token/ERC1155/utils/ERC1155Holder.sol\":499:718  function onERC1155Received(... */\n    tag_21:\n      tag_105\n      0x04\n      dup1\n      calldatasize\n      sub\n      dup2\n      add\n      swap1\n      tag_106\n      swap2\n      swap1\n      tag_107\n      jump\t// in\n    tag_106:\n      tag_108\n      jump\t// in\n    tag_105:\n      mload(0x40)\n      tag_109\n      swap2\n      swap1\n      tag_97\n      jump\t// in\n    tag_109:\n      mload(0x40)\n      dup1\n      swap2\n      sub\n      swap1\n      return\n        /* \"worldcup/Adminable.sol\":1236:1437  function transferOwnership(address newOwner) public virtual onlyOwner {... */\n    tag_22:\n      tag_110\n      0x04\n      dup1\n      calldatasize\n      sub\n      dup2\n      add\n      swap1\n      tag_111\n      swap2\n      swap1\n      tag_41\n      jump\t// in\n    tag_111:\n      tag_112\n      jump\t// in\n    tag_110:\n      stop\n        /* \"worldcup/DreamChallenge.sol\":5276:5365  function setNftCost(uint256 _amount) public onlyOwner{... */\n    tag_23:\n      tag_113\n      0x04\n      dup1\n      calldatasize\n      sub\n      dup2\n      add\n      swap1\n      tag_114\n      swap2\n      swap1\n      tag_115\n      jump\t// in\n    tag_114:\n      tag_116\n      jump\t// in\n    tag_113:\n      stop\n        /* \"worldcup/DreamChallenge.sol\":587:613  address public rewardToken */\n    tag_24:\n      tag_117\n      tag_118\n      jump\t// in\n    tag_117:\n      mload(0x40)\n      tag_119\n      swap2\n      swap1\n      tag_62\n      jump\t// in\n    tag_119:\n      mload(0x40)\n      dup1\n      swap2\n      sub\n      swap1\n      return\n        /* \"worldcup/DreamChallenge.sol\":620:653  uint16 public challengeIdInex = 1 */\n    tag_25:\n      tag_120\n      tag_121\n      jump\t// in\n    tag_120:\n      mload(0x40)\n      tag_122\n      swap2\n      swap1\n      tag_123\n      jump\t// in\n    tag_122:\n      mload(0x40)\n      dup1\n      swap2\n      sub\n      swap1\n      return\n        /* \"https://github.com/OpenZeppelin/openzeppelin-contracts/blob/master/contracts/token/ERC1155/utils/ERC1155Receiver.sol\":387:608  function supportsInterface(bytes4 interfaceId) public view virtual override(ERC165, IERC165) returns (bool) {... */\n    tag_32:\n        /* \"https://github.com/OpenZeppelin/openzeppelin-contracts/blob/master/contracts/token/ERC1155/utils/ERC1155Receiver.sol\":489:493  bool */\n      0x00\n        /* \"https://github.com/OpenZeppelin/openzeppelin-contracts/blob/master/contracts/token/ERC1155/utils/ERC1155Receiver.sol\":527:561  type(IERC1155Receiver).interfaceId */\n      0x4e2312e000000000000000000000000000000000000000000000000000000000\n        /* \"https://github.com/OpenZeppelin/openzeppelin-contracts/blob/master/contracts/token/ERC1155/utils/ERC1155Receiver.sol\":512:561  interfaceId == type(IERC1155Receiver).interfaceId */\n      not(0xffffffffffffffffffffffffffffffffffffffffffffffffffffffff)\n      and\n        /* \"https://github.com/OpenZeppelin/openzeppelin-contracts/blob/master/contracts/token/ERC1155/utils/ERC1155Receiver.sol\":512:523  interfaceId */\n      dup3\n        /* \"https://github.com/OpenZeppelin/openzeppelin-contracts/blob/master/contracts/token/ERC1155/utils/ERC1155Receiver.sol\":512:561  interfaceId == type(IERC1155Receiver).interfaceId */\n      not(0xffffffffffffffffffffffffffffffffffffffffffffffffffffffff)\n      and\n      eq\n        /* \"https://github.com/OpenZeppelin/openzeppelin-contracts/blob/master/contracts/token/ERC1155/utils/ERC1155Receiver.sol\":512:601  interfaceId == type(IERC1155Receiver).interfaceId || super.supportsInterface(interfaceId) */\n      dup1\n      tag_125\n      jumpi\n      pop\n        /* \"https://github.com/OpenZeppelin/openzeppelin-contracts/blob/master/contracts/token/ERC1155/utils/ERC1155Receiver.sol\":565:601  super.supportsInterface(interfaceId) */\n      tag_126\n        /* \"https://github.com/OpenZeppelin/openzeppelin-contracts/blob/master/contracts/token/ERC1155/utils/ERC1155Receiver.sol\":589:600  interfaceId */\n      dup3\n        /* \"https://github.com/OpenZeppelin/openzeppelin-contracts/blob/master/contracts/token/ERC1155/utils/ERC1155Receiver.sol\":565:588  super.supportsInterface */\n      tag_127\n        /* \"https://github.com/OpenZeppelin/openzeppelin-contracts/blob/master/contracts/token/ERC1155/utils/ERC1155Receiver.sol\":565:601  super.supportsInterface(interfaceId) */\n      jump\t// in\n    tag_126:\n        /* \"https://github.com/OpenZeppelin/openzeppelin-contracts/blob/master/contracts/token/ERC1155/utils/ERC1155Receiver.sol\":512:601  interfaceId == type(IERC1155Receiver).interfaceId || super.supportsInterface(interfaceId) */\n    tag_125:\n        /* \"https://github.com/OpenZeppelin/openzeppelin-contracts/blob/master/contracts/token/ERC1155/utils/ERC1155Receiver.sol\":505:601  return interfaceId == type(IERC1155Receiver).interfaceId || super.supportsInterface(interfaceId) */\n      swap1\n      pop\n        /* \"https://github.com/OpenZeppelin/openzeppelin-contracts/blob/master/contracts/token/ERC1155/utils/ERC1155Receiver.sol\":387:608  function supportsInterface(bytes4 interfaceId) public view virtual override(ERC165, IERC165) returns (bool) {... */\n      swap2\n      swap1\n      pop\n      jump\t// out\n        /* \"worldcup/DreamChallenge.sol\":4230:5072  function withdrawReward(uint16 _challengeId) public {... */\n    tag_38:\n        /* \"worldcup/DreamChallenge.sol\":4293:4315  uint256 winTokenAmount */\n      0x00\n        /* \"worldcup/DreamChallenge.sol\":4318:4358  getUserRewards(msg.sender, _challengeId) */\n      tag_129\n        /* \"worldcup/DreamChallenge.sol\":4333:4343  msg.sender */\n      caller\n        /* \"worldcup/DreamChallenge.sol\":4345:4357  _challengeId */\n      dup4\n        /* \"worldcup/DreamChallenge.sol\":4318:4332  getUserRewards */\n      tag_52\n        /* \"worldcup/DreamChallenge.sol\":4318:4358  getUserRewards(msg.sender, _challengeId) */\n      jump\t// in\n    tag_129:\n        /* \"worldcup/DreamChallenge.sol\":4293:4358  uint256 winTokenAmount = getUserRewards(msg.sender, _challengeId) */\n      swap1\n      pop\n        /* \"worldcup/DreamChallenge.sol\":4369:4393  UserInfo memory userinfo */\n      0x00\n        /* \"worldcup/DreamChallenge.sol\":4396:4410  userChallenges */\n      0x06\n        /* \"worldcup/DreamChallenge.sol\":4396:4422  userChallenges[msg.sender] */\n      0x00\n        /* \"worldcup/DreamChallenge.sol\":4411:4421  msg.sender */\n      caller\n        /* \"worldcup/DreamChallenge.sol\":4396:4422  userChallenges[msg.sender] */\n      0xffffffffffffffffffffffffffffffffffffffff\n      and\n      0xffffffffffffffffffffffffffffffffffffffff\n      and\n      dup2\n      mstore\n      0x20\n      add\n      swap1\n      dup2\n      mstore\n      0x20\n      add\n      0x00\n      keccak256\n        /* \"worldcup/DreamChallenge.sol\":4396:4436  userChallenges[msg.sender][_challengeId] */\n      0x00\n        /* \"worldcup/DreamChallenge.sol\":4423:4435  _challengeId */\n      dup5\n        /* \"worldcup/DreamChallenge.sol\":4396:4436  userChallenges[msg.sender][_challengeId] */\n      0xffff\n      and\n      0xffff\n      and\n      dup2\n      mstore\n      0x20\n      add\n      swap1\n      dup2\n      mstore\n      0x20\n      add\n      0x00\n      keccak256\n        /* \"worldcup/DreamChallenge.sol\":4369:4436  UserInfo memory userinfo = userChallenges[msg.sender][_challengeId] */\n      mload(0x40)\n      dup1\n      0x80\n      add\n      0x40\n      mstore\n      swap1\n      dup2\n      0x00\n      dup3\n      add\n      0x00\n      swap1\n      sload\n      swap1\n      0x0100\n      exp\n      swap1\n      div\n      0xffff\n      and\n      0xffff\n      and\n      0xffff\n      and\n      dup2\n      mstore\n      0x20\n      add\n      0x01\n      dup3\n      add\n      sload\n      dup2\n      mstore\n      0x20\n      add\n      0x02\n      dup3\n      add\n      sload\n      dup2\n      mstore\n      0x20\n      add\n      0x03\n      dup3\n      add\n      0x00\n      swap1\n      sload\n      swap1\n      0x0100\n      exp\n      swap1\n      div\n      0xff\n      and\n      iszero\n      iszero\n      iszero\n      iszero\n      dup2\n      mstore\n      pop\n      pop\n      swap1\n      pop\n        /* \"worldcup/DreamChallenge.sol\":4449:4464  uint256 tokenid */\n      0x00\n        /* \"worldcup/DreamChallenge.sol\":4475:4489  uint256 amount */\n      dup1\n        /* \"worldcup/DreamChallenge.sol\":4500:4526  Challenge memory challenge */\n      0x00\n        /* \"worldcup/DreamChallenge.sol\":4529:4539  challenges */\n      0x05\n        /* \"worldcup/DreamChallenge.sol\":4529:4553  challenges[_challengeId] */\n      0x00\n        /* \"worldcup/DreamChallenge.sol\":4540:4552  _challengeId */\n      dup8\n        /* \"worldcup/DreamChallenge.sol\":4529:4553  challenges[_challengeId] */\n      0xffff\n      and\n      0xffff\n      and\n      dup2\n      mstore\n      0x20\n      add\n      swap1\n      dup2\n      mstore\n      0x20\n      add\n      0x00\n      keccak256\n        /* \"worldcup/DreamChallenge.sol\":4500:4553  Challenge memory challenge = challenges[_challengeId] */\n      mload(0x40)\n      dup1\n      0x0140\n      add\n      0x40\n      mstore\n      swap1\n      dup2\n      0x00\n      dup3\n      add\n      0x00\n      swap1\n      sload\n      swap1\n      0x0100\n      exp\n      swap1\n      div\n      0xff\n      and\n      0x01\n      dup2\n      gt\n      iszero\n      tag_130\n      jumpi\n      tag_131\n      tag_132\n      jump\t// in\n    tag_131:\n    tag_130:\n      0x01\n      dup2\n      gt\n      iszero\n      tag_133\n      jumpi\n      tag_134\n      tag_132\n      jump\t// in\n    tag_134:\n    tag_133:\n      dup2\n      mstore\n      0x20\n      add\n      0x00\n      dup3\n      add\n      0x01\n      swap1\n      sload\n      swap1\n      0x0100\n      exp\n      swap1\n      div\n      0xffff\n      and\n      0xffff\n      and\n      0xffff\n      and\n      dup2\n      mstore\n      0x20\n      add\n      0x01\n      dup3\n      add\n      sload\n      dup2\n      mstore\n      0x20\n      add\n      0x02\n      dup3\n      add\n      sload\n      dup2\n      mstore\n      0x20\n      add\n      0x03\n      dup3\n      add\n      sload\n      dup2\n      mstore\n      0x20\n      add\n      0x04\n      dup3\n      add\n      sload\n      dup2\n      mstore\n      0x20\n      add\n      0x05\n      dup3\n      add\n      sload\n      dup2\n      mstore\n      0x20\n      add\n      0x06\n      dup3\n      add\n      sload\n      dup2\n      mstore\n      0x20\n      add\n      0x07\n      dup3\n      add\n      sload\n      dup2\n      mstore\n      0x20\n      add\n      0x08\n      dup3\n      add\n      sload\n      dup2\n      mstore\n      pop\n      pop\n      swap1\n      pop\n        /* \"worldcup/DreamChallenge.sol\":4594:4603  challenge */\n      dup1\n        /* \"worldcup/DreamChallenge.sol\":4594:4615  challenge.tokenIdLeft */\n      0xa0\n      add\n      mload\n        /* \"worldcup/DreamChallenge.sol\":4567:4576  challenge */\n      dup2\n        /* \"worldcup/DreamChallenge.sol\":4567:4590  challenge.winnerTokenId */\n      0x0120\n      add\n      mload\n        /* \"worldcup/DreamChallenge.sol\":4567:4615  challenge.winnerTokenId == challenge.tokenIdLeft */\n      sub\n        /* \"worldcup/DreamChallenge.sol\":4564:4830  if(challenge.winnerTokenId == challenge.tokenIdLeft) {... */\n      tag_135\n      jumpi\n        /* \"worldcup/DreamChallenge.sol\":4642:4651  challenge */\n      dup1\n        /* \"worldcup/DreamChallenge.sol\":4642:4663  challenge.tokenIdLeft */\n      0xa0\n      add\n      mload\n        /* \"worldcup/DreamChallenge.sol\":4632:4663  tokenid = challenge.tokenIdLeft */\n      swap3\n      pop\n        /* \"worldcup/DreamChallenge.sol\":4687:4695  userinfo */\n      dup4\n        /* \"worldcup/DreamChallenge.sol\":4687:4707  userinfo.amountsLeft */\n      0x20\n      add\n      mload\n        /* \"worldcup/DreamChallenge.sol\":4678:4707  amount = userinfo.amountsLeft */\n      swap2\n      pop\n        /* \"worldcup/DreamChallenge.sol\":4564:4830  if(challenge.winnerTokenId == challenge.tokenIdLeft) {... */\n      jump(tag_136)\n    tag_135:\n        /* \"worldcup/DreamChallenge.sol\":4750:4759  challenge */\n      dup1\n        /* \"worldcup/DreamChallenge.sol\":4750:4772  challenge.tokenIdRight */\n      0xc0\n      add\n      mload\n        /* \"worldcup/DreamChallenge.sol\":4740:4772  tokenid = challenge.tokenIdRight */\n      swap3\n      pop\n        /* \"worldcup/DreamChallenge.sol\":4796:4805  challenge */\n      dup1\n        /* \"worldcup/DreamChallenge.sol\":4796:4818  challenge.tokenIdRight */\n      0xc0\n      add\n      mload\n        /* \"worldcup/DreamChallenge.sol\":4787:4818  amount = challenge.tokenIdRight */\n      swap2\n      pop\n        /* \"worldcup/DreamChallenge.sol\":4564:4830  if(challenge.winnerTokenId == challenge.tokenIdLeft) {... */\n    tag_136:\n        /* \"worldcup/DreamChallenge.sol\":4852:4859  teamNft */\n      0x02\n      0x00\n      swap1\n      sload\n      swap1\n      0x0100\n      exp\n      swap1\n      div\n      0xffffffffffffffffffffffffffffffffffffffff\n      and\n        /* \"worldcup/DreamChallenge.sol\":4843:4877  IERC1155(teamNft).safeTransferFrom */\n      0xffffffffffffffffffffffffffffffffffffffff\n      and\n      0xf242432a\n        /* \"worldcup/DreamChallenge.sol\":4886:4890  this */\n      address\n        /* \"worldcup/DreamChallenge.sol\":4893:4903  msg.sender */\n      caller\n        /* \"worldcup/DreamChallenge.sol\":4905:4912  tokenid */\n      dup7\n        /* \"worldcup/DreamChallenge.sol\":4914:4920  amount */\n      dup7\n        /* \"worldcup/DreamChallenge.sol\":4843:4925  IERC1155(teamNft).safeTransferFrom(address(this), msg.sender, tokenid, amount, \"\") */\n      mload(0x40)\n      dup6\n      0xffffffff\n      and\n      0xe0\n      shl\n      dup2\n      mstore\n      0x04\n      add\n      tag_137\n      swap5\n      swap4\n      swap3\n      swap2\n      swap1\n      tag_138\n      jump\t// in\n    tag_137:\n      0x00\n      mload(0x40)\n      dup1\n      dup4\n      sub\n      dup2\n      0x00\n      dup8\n      dup1\n      extcodesize\n      iszero\n      dup1\n      iszero\n      tag_139\n      jumpi\n      0x00\n      dup1\n      revert\n    tag_139:\n      pop\n      gas\n      call\n      iszero\n      dup1\n      iszero\n      tag_141\n      jumpi\n      returndatasize\n      0x00\n      dup1\n      returndatacopy\n      revert(0x00, returndatasize)\n    tag_141:\n      pop\n      pop\n      pop\n      pop\n        /* \"worldcup/DreamChallenge.sol\":4943:4954  rewardToken */\n      0x03\n      0x00\n      swap1\n      sload\n      swap1\n      0x0100\n      exp\n      swap1\n      div\n      0xffffffffffffffffffffffffffffffffffffffff\n      and\n        /* \"worldcup/DreamChallenge.sol\":4936:4964  IERC20(rewardToken).transfer */\n      0xffffffffffffffffffffffffffffffffffffffff\n      and\n      0xa9059cbb\n        /* \"worldcup/DreamChallenge.sol\":4965:4975  msg.sender */\n      caller\n        /* \"worldcup/DreamChallenge.sol\":4977:4991  winTokenAmount */\n      dup8\n        /* \"worldcup/DreamChallenge.sol\":4936:4992  IERC20(rewardToken).transfer(msg.sender, winTokenAmount) */\n      mload(0x40)\n      dup4\n      0xffffffff\n      and\n      0xe0\n      shl\n      dup2\n      mstore\n      0x04\n      add\n      tag_142\n      swap3\n      swap2\n      swap1\n      tag_143\n      jump\t// in\n    tag_142:\n      0x20\n      mload(0x40)\n      dup1\n      dup4\n      sub\n      dup2\n      0x00\n      dup8\n      gas\n      call\n      iszero\n      dup1\n      iszero\n      tag_145\n      jumpi\n      returndatasize\n      0x00\n      dup1\n      returndatacopy\n      revert(0x00, returndatasize)\n    tag_145:\n      pop\n      pop\n      pop\n      pop\n      mload(0x40)\n      returndatasize\n      not(0x1f)\n      0x1f\n      dup3\n      add\n      and\n      dup3\n      add\n      dup1\n      0x40\n      mstore\n      pop\n      dup2\n      add\n      swap1\n      tag_146\n      swap2\n      swap1\n      tag_147\n      jump\t// in\n    tag_146:\n      pop\n        /* \"worldcup/DreamChallenge.sol\":5023:5033  msg.sender */\n      caller\n        /* \"worldcup/DreamChallenge.sol\":5008:5064  WithdrawReward(msg.sender, challenge.id, winTokenAmount) */\n      0xffffffffffffffffffffffffffffffffffffffff\n      and\n      0x37928b7e81bcb91f89ab0bc4eb993473de24975366bebf5b4e1e946f2c948807\n        /* \"worldcup/DreamChallenge.sol\":5035:5044  challenge */\n      dup3\n        /* \"worldcup/DreamChallenge.sol\":5035:5047  challenge.id */\n      0x20\n      add\n      mload\n        /* \"worldcup/DreamChallenge.sol\":5049:5063  winTokenAmount */\n      dup8\n        /* \"worldcup/DreamChallenge.sol\":5008:5064  WithdrawReward(msg.sender, challenge.id, winTokenAmount) */\n      mload(0x40)\n      tag_148\n      swap3\n      swap2\n      swap1\n      tag_149\n      jump\t// in\n    tag_148:\n      mload(0x40)\n      dup1\n      swap2\n      sub\n      swap1\n      log2\n        /* \"worldcup/DreamChallenge.sol\":4282:5072  {... */\n      pop\n      pop\n      pop\n      pop\n      pop\n        /* \"worldcup/DreamChallenge.sol\":4230:5072  function withdrawReward(uint16 _challengeId) public {... */\n      pop\n      jump\t// out\n        /* \"worldcup/DreamChallenge.sol\":6361:6493  function getUserChallenges(address account) public view returns(uint16[] memory) {... */\n    tag_42:\n        /* \"worldcup/DreamChallenge.sol\":6425:6440  uint16[] memory */\n      0x60\n        /* \"worldcup/DreamChallenge.sol\":6460:6476  userChallengeIds */\n      0x07\n        /* \"worldcup/DreamChallenge.sol\":6460:6485  userChallengeIds[account] */\n      0x00\n        /* \"worldcup/DreamChallenge.sol\":6477:6484  account */\n      dup4\n        /* \"worldcup/DreamChallenge.sol\":6460:6485  userChallengeIds[account] */\n      0xffffffffffffffffffffffffffffffffffffffff\n      and\n      0xffffffffffffffffffffffffffffffffffffffff\n      and\n      dup2\n      mstore\n      0x20\n      add\n      swap1\n      dup2\n      mstore\n      0x20\n      add\n      0x00\n      keccak256\n        /* \"worldcup/DreamChallenge.sol\":6453:6485  return userChallengeIds[account] */\n      dup1\n      sload\n      dup1\n      0x20\n      mul\n      0x20\n      add\n      mload(0x40)\n      swap1\n      dup2\n      add\n      0x40\n      mstore\n      dup1\n      swap3\n      swap2\n      swap1\n      dup2\n      dup2\n      mstore\n      0x20\n      add\n      dup3\n      dup1\n      sload\n      dup1\n      iszero\n      tag_151\n      jumpi\n      0x20\n      mul\n      dup3\n      add\n      swap2\n      swap1\n      0x00\n      mstore\n      keccak256(0x00, 0x20)\n      swap1\n      0x00\n      swap1\n    tag_152:\n      dup3\n      dup3\n      swap1\n      sload\n      swap1\n      0x0100\n      exp\n      swap1\n      div\n      0xffff\n      and\n      0xffff\n      and\n      dup2\n      mstore\n      0x20\n      add\n      swap1\n      0x02\n      add\n      swap1\n      0x20\n      dup3\n      0x01\n      add\n      div\n      swap3\n      dup4\n      add\n      swap3\n      0x01\n      sub\n      dup3\n      mul\n      swap2\n      pop\n      dup1\n      dup5\n      gt\n      tag_152\n      jumpi\n      swap1\n      pop\n    tag_151:\n      pop\n      pop\n      pop\n      pop\n      pop\n      swap1\n      pop\n        /* \"worldcup/DreamChallenge.sol\":6361:6493  function getUserChallenges(address account) public view returns(uint16[] memory) {... */\n      swap2\n      swap1\n      pop\n      jump\t// out\n        /* \"worldcup/Adminable.sol\":1644:1828  function modificationAdmin(address admin, bool state) public virtual onlyOwner {... */\n    tag_48:\n        /* \"worldcup/Adminable.sol\":704:716  _msgSender() */\n      tag_154\n        /* \"worldcup/Adminable.sol\":704:714  _msgSender */\n      tag_155\n        /* \"worldcup/Adminable.sol\":704:716  _msgSender() */\n      jump\t// in\n    tag_154:\n        /* \"worldcup/Adminable.sol\":693:716  owner() == _msgSender() */\n      0xffffffffffffffffffffffffffffffffffffffff\n      and\n        /* \"worldcup/Adminable.sol\":693:700  owner() */\n      tag_156\n        /* \"worldcup/Adminable.sol\":693:698  owner */\n      tag_86\n        /* \"worldcup/Adminable.sol\":693:700  owner() */\n      jump\t// in\n    tag_156:\n        /* \"worldcup/Adminable.sol\":693:716  owner() == _msgSender() */\n      0xffffffffffffffffffffffffffffffffffffffff\n      and\n      eq\n        /* \"worldcup/Adminable.sol\":685:755  require(owner() == _msgSender(), \"Adminable: caller is not the owner\") */\n      tag_157\n      jumpi\n      mload(0x40)\n      0x08c379a000000000000000000000000000000000000000000000000000000000\n      dup2\n      mstore\n      0x04\n      add\n      tag_158\n      swap1\n      tag_159\n      jump\t// in\n    tag_158:\n      mload(0x40)\n      dup1\n      swap2\n      sub\n      swap1\n      revert\n    tag_157:\n        /* \"worldcup/Adminable.sol\":1757:1762  admin */\n      dup2\n        /* \"worldcup/Adminable.sol\":1739:1787  ModificationAdmin(admin,  _admins[admin], state) */\n      0xffffffffffffffffffffffffffffffffffffffff\n      and\n      0x82f1fa40a3d82dea3e406073819290601f436580aa7c69f9feb61f885bdd8854\n        /* \"worldcup/Adminable.sol\":1765:1772  _admins */\n      0x00\n        /* \"worldcup/Adminable.sol\":1765:1779  _admins[admin] */\n      dup1\n        /* \"worldcup/Adminable.sol\":1773:1778  admin */\n      dup6\n        /* \"worldcup/Adminable.sol\":1765:1779  _admins[admin] */\n      0xffffffffffffffffffffffffffffffffffffffff\n      and\n      0xffffffffffffffffffffffffffffffffffffffff\n      and\n      dup2\n      mstore\n      0x20\n      add\n      swap1\n      dup2\n      mstore\n      0x20\n      add\n      0x00\n      keccak256\n      0x00\n      swap1\n      sload\n      swap1\n      0x0100\n      exp\n      swap1\n      div\n      0xff\n      and\n        /* \"worldcup/Adminable.sol\":1781:1786  state */\n      dup4\n        /* \"worldcup/Adminable.sol\":1739:1787  ModificationAdmin(admin,  _admins[admin], state) */\n      mload(0x40)\n      tag_161\n      swap3\n      swap2\n      swap1\n      tag_162\n      jump\t// in\n    tag_161:\n      mload(0x40)\n      dup1\n      swap2\n      sub\n      swap1\n      log2\n        /* \"worldcup/Adminable.sol\":1815:1820  state */\n      dup1\n        /* \"worldcup/Adminable.sol\":1798:1805  _admins */\n      0x00\n        /* \"worldcup/Adminable.sol\":1798:1812  _admins[admin] */\n      dup1\n        /* \"worldcup/Adminable.sol\":1806:1811  admin */\n      dup5\n        /* \"worldcup/Adminable.sol\":1798:1812  _admins[admin] */\n      0xffffffffffffffffffffffffffffffffffffffff\n      and\n      0xffffffffffffffffffffffffffffffffffffffff\n      and\n      dup2\n      mstore\n      0x20\n      add\n      swap1\n      dup2\n      mstore\n      0x20\n      add\n      0x00\n      keccak256\n      0x00\n        /* \"worldcup/Adminable.sol\":1798:1820  _admins[admin] = state */\n      0x0100\n      exp\n      dup2\n      sload\n      dup2\n      0xff\n      mul\n      not\n      and\n      swap1\n      dup4\n      iszero\n      iszero\n      mul\n      or\n      swap1\n      sstore\n      pop\n        /* \"worldcup/Adminable.sol\":1644:1828  function modificationAdmin(address admin, bool state) public virtual onlyOwner {... */\n      pop\n      pop\n      jump\t// out\n        /* \"worldcup/DreamChallenge.sol\":5709:6353  function getUserRewards(address account, uint16 challengeId) public view returns(uint256){... */\n    tag_52:\n        /* \"worldcup/DreamChallenge.sol\":5790:5797  uint256 */\n      0x00\n        /* \"worldcup/DreamChallenge.sol\":5809:5835  Challenge memory challenge */\n      dup1\n        /* \"worldcup/DreamChallenge.sol\":5838:5848  challenges */\n      0x05\n        /* \"worldcup/DreamChallenge.sol\":5838:5861  challenges[challengeId] */\n      0x00\n        /* \"worldcup/DreamChallenge.sol\":5849:5860  challengeId */\n      dup5\n        /* \"worldcup/DreamChallenge.sol\":5838:5861  challenges[challengeId] */\n      0xffff\n      and\n      0xffff\n      and\n      dup2\n      mstore\n      0x20\n      add\n      swap1\n      dup2\n      mstore\n      0x20\n      add\n      0x00\n      keccak256\n        /* \"worldcup/DreamChallenge.sol\":5809:5861  Challenge memory challenge = challenges[challengeId] */\n      mload(0x40)\n      dup1\n      0x0140\n      add\n      0x40\n      mstore\n      swap1\n      dup2\n      0x00\n      dup3\n      add\n      0x00\n      swap1\n      sload\n      swap1\n      0x0100\n      exp\n      swap1\n      div\n      0xff\n      and\n      0x01\n      dup2\n      gt\n      iszero\n      tag_164\n      jumpi\n      tag_165\n      tag_132\n      jump\t// in\n    tag_165:\n    tag_164:\n      0x01\n      dup2\n      gt\n      iszero\n      tag_166\n      jumpi\n      tag_167\n      tag_132\n      jump\t// in\n    tag_167:\n    tag_166:\n      dup2\n      mstore\n      0x20\n      add\n      0x00\n      dup3\n      add\n      0x01\n      swap1\n      sload\n      swap1\n      0x0100\n      exp\n      swap1\n      div\n      0xffff\n      and\n      0xffff\n      and\n      0xffff\n      and\n      dup2\n      mstore\n      0x20\n      add\n      0x01\n      dup3\n      add\n      sload\n      dup2\n      mstore\n      0x20\n      add\n      0x02\n      dup3\n      add\n      sload\n      dup2\n      mstore\n      0x20\n      add\n      0x03\n      dup3\n      add\n      sload\n      dup2\n      mstore\n      0x20\n      add\n      0x04\n      dup3\n      add\n      sload\n      dup2\n      mstore\n      0x20\n      add\n      0x05\n      dup3\n      add\n      sload\n      dup2\n      mstore\n      0x20\n      add\n      0x06\n      dup3\n      add\n      sload\n      dup2\n      mstore\n      0x20\n      add\n      0x07\n      dup3\n      add\n      sload\n      dup2\n      mstore\n      0x20\n      add\n      0x08\n      dup3\n      add\n      sload\n      dup2\n      mstore\n      pop\n      pop\n      swap1\n      pop\n        /* \"worldcup/DreamChallenge.sol\":5891:5892  0 */\n      0x00\n        /* \"worldcup/DreamChallenge.sol\":5875:5884  challenge */\n      dup2\n        /* \"worldcup/DreamChallenge.sol\":5875:5887  challenge.id */\n      0x20\n      add\n      mload\n        /* \"worldcup/DreamChallenge.sol\":5875:5892  challenge.id == 0 */\n      0xffff\n      and\n      sub\n        /* \"worldcup/DreamChallenge.sol\":5872:5929  if(challenge.id == 0) {... */\n      tag_168\n      jumpi\n        /* \"worldcup/DreamChallenge.sol\":5916:5917  0 */\n      0x00\n        /* \"worldcup/DreamChallenge.sol\":5909:5917  return 0 */\n      swap2\n      pop\n      pop\n      jump(tag_163)\n        /* \"worldcup/DreamChallenge.sol\":5872:5929  if(challenge.id == 0) {... */\n    tag_168:\n        /* \"worldcup/DreamChallenge.sol\":5941:5965  UserInfo memory userinfo */\n      0x00\n        /* \"worldcup/DreamChallenge.sol\":5968:5982  userChallenges */\n      0x06\n        /* \"worldcup/DreamChallenge.sol\":5968:5991  userChallenges[account] */\n      0x00\n        /* \"worldcup/DreamChallenge.sol\":5983:5990  account */\n      dup7\n        /* \"worldcup/DreamChallenge.sol\":5968:5991  userChallenges[account] */\n      0xffffffffffffffffffffffffffffffffffffffff\n      and\n      0xffffffffffffffffffffffffffffffffffffffff\n      and\n      dup2\n      mstore\n      0x20\n      add\n      swap1\n      dup2\n      mstore\n      0x20\n      add\n      0x00\n      keccak256\n        /* \"worldcup/DreamChallenge.sol\":5968:6004  userChallenges[account][challengeId] */\n      0x00\n        /* \"worldcup/DreamChallenge.sol\":5992:6003  challengeId */\n      dup6\n        /* \"worldcup/DreamChallenge.sol\":5968:6004  userChallenges[account][challengeId] */\n      0xffff\n      and\n      0xffff\n      and\n      dup2\n      mstore\n      0x20\n      add\n      swap1\n      dup2\n      mstore\n      0x20\n      add\n      0x00\n      keccak256\n        /* \"worldcup/DreamChallenge.sol\":5941:6004  UserInfo memory userinfo = userChallenges[account][challengeId] */\n      mload(0x40)\n      dup1\n      0x80\n      add\n      0x40\n      mstore\n      swap1\n      dup2\n      0x00\n      dup3\n      add\n      0x00\n      swap1\n      sload\n      swap1\n      0x0100\n      exp\n      swap1\n      div\n      0xffff\n      and\n      0xffff\n      and\n      0xffff\n      and\n      dup2\n      mstore\n      0x20\n      add\n      0x01\n      dup3\n      add\n      sload\n      dup2\n      mstore\n      0x20\n      add\n      0x02\n      dup3\n      add\n      sload\n      dup2\n      mstore\n      0x20\n      add\n      0x03\n      dup3\n      add\n      0x00\n      swap1\n      sload\n      swap1\n      0x0100\n      exp\n      swap1\n      div\n      0xff\n      and\n      iszero\n      iszero\n      iszero\n      iszero\n      dup2\n      mstore\n      pop\n      pop\n      swap1\n      pop\n        /* \"worldcup/DreamChallenge.sol\":6044:6045  0 */\n      0x00\n        /* \"worldcup/DreamChallenge.sol\":6020:6028  userinfo */\n      dup2\n        /* \"worldcup/DreamChallenge.sol\":6020:6040  userinfo.challengeId */\n      0x00\n      add\n      mload\n        /* \"worldcup/DreamChallenge.sol\":6020:6045  userinfo.challengeId == 0 */\n      0xffff\n      and\n      sub\n        /* \"worldcup/DreamChallenge.sol\":6017:6082  if(userinfo.challengeId == 0) {... */\n      tag_169\n      jumpi\n        /* \"worldcup/DreamChallenge.sol\":6069:6070  0 */\n      0x00\n        /* \"worldcup/DreamChallenge.sol\":6062:6070  return 0 */\n      swap3\n      pop\n      pop\n      pop\n      jump(tag_163)\n        /* \"worldcup/DreamChallenge.sol\":6017:6082  if(userinfo.challengeId == 0) {... */\n    tag_169:\n        /* \"worldcup/DreamChallenge.sol\":6092:6109  uint256 winAmount */\n      0x00\n        /* \"worldcup/DreamChallenge.sol\":6150:6159  challenge */\n      dup3\n        /* \"worldcup/DreamChallenge.sol\":6150:6171  challenge.tokenIdLeft */\n      0xa0\n      add\n      mload\n        /* \"worldcup/DreamChallenge.sol\":6123:6132  challenge */\n      dup4\n        /* \"worldcup/DreamChallenge.sol\":6123:6146  challenge.winnerTokenId */\n      0x0120\n      add\n      mload\n        /* \"worldcup/DreamChallenge.sol\":6123:6171  challenge.winnerTokenId == challenge.tokenIdLeft */\n      sub\n        /* \"worldcup/DreamChallenge.sol\":6120:6298  if(challenge.winnerTokenId == challenge.tokenIdLeft) {... */\n      tag_170\n      jumpi\n        /* \"worldcup/DreamChallenge.sol\":6200:6208  userinfo */\n      dup2\n        /* \"worldcup/DreamChallenge.sol\":6200:6220  userinfo.amountsLeft */\n      0x20\n      add\n      mload\n        /* \"worldcup/DreamChallenge.sol\":6188:6220  winAmount = userinfo.amountsLeft */\n      swap1\n      pop\n        /* \"worldcup/DreamChallenge.sol\":6120:6298  if(challenge.winnerTokenId == challenge.tokenIdLeft) {... */\n      jump(tag_171)\n    tag_170:\n        /* \"worldcup/DreamChallenge.sol\":6265:6273  userinfo */\n      dup2\n        /* \"worldcup/DreamChallenge.sol\":6265:6286  userinfo.amountsRight */\n      0x40\n      add\n      mload\n        /* \"worldcup/DreamChallenge.sol\":6253:6286  winAmount = userinfo.amountsRight */\n      swap1\n      pop\n        /* \"worldcup/DreamChallenge.sol\":6120:6298  if(challenge.winnerTokenId == challenge.tokenIdLeft) {... */\n    tag_171:\n        /* \"worldcup/DreamChallenge.sol\":6342:6345  100 */\n      0x64\n        /* \"worldcup/DreamChallenge.sol\":6337:6339  80 */\n      0x50\n        /* \"worldcup/DreamChallenge.sol\":6327:6334  nftCost */\n      sload(0x04)\n        /* \"worldcup/DreamChallenge.sol\":6315:6324  winAmount */\n      dup4\n        /* \"worldcup/DreamChallenge.sol\":6315:6334  winAmount * nftCost */\n      tag_172\n      swap2\n      swap1\n      tag_173\n      jump\t// in\n    tag_172:\n        /* \"worldcup/DreamChallenge.sol\":6315:6339  winAmount * nftCost * 80 */\n      tag_174\n      swap2\n      swap1\n      tag_173\n      jump\t// in\n    tag_174:\n        /* \"worldcup/DreamChallenge.sol\":6315:6345  winAmount * nftCost * 80 / 100 */\n      tag_175\n      swap2\n      swap1\n      tag_176\n      jump\t// in\n    tag_175:\n        /* \"worldcup/DreamChallenge.sol\":6308:6345  return winAmount * nftCost * 80 / 100 */\n      swap4\n      pop\n      pop\n      pop\n      pop\n        /* \"worldcup/DreamChallenge.sol\":5709:6353  function getUserRewards(address account, uint16 challengeId) public view returns(uint256){... */\n    tag_163:\n      swap3\n      swap2\n      pop\n      pop\n      jump\t// out\n        /* \"worldcup/Adminable.sol\":1006:1117  function isAdmin(address account) public view virtual returns (bool) {... */\n    tag_57:\n        /* \"worldcup/Adminable.sol\":1069:1073  bool */\n      0x00\n        /* \"worldcup/Adminable.sol\":1093:1100  _admins */\n      dup1\n        /* \"worldcup/Adminable.sol\":1093:1109  _admins[account] */\n      0x00\n        /* \"worldcup/Adminable.sol\":1101:1108  account */\n      dup4\n        /* \"worldcup/Adminable.sol\":1093:1109  _admins[account] */\n      0xffffffffffffffffffffffffffffffffffffffff\n      and\n      0xffffffffffffffffffffffffffffffffffffffff\n      and\n      dup2\n      mstore\n      0x20\n      add\n      swap1\n      dup2\n      mstore\n      0x20\n      add\n      0x00\n      keccak256\n      0x00\n      swap1\n      sload\n      swap1\n      0x0100\n      exp\n      swap1\n      div\n      0xff\n      and\n        /* \"worldcup/Adminable.sol\":1086:1109  return _admins[account] */\n      swap1\n      pop\n        /* \"worldcup/Adminable.sol\":1006:1117  function isAdmin(address account) public view virtual returns (bool) {... */\n      swap2\n      swap1\n      pop\n      jump\t// out\n        /* \"worldcup/DreamChallenge.sol\":558:580  address public teamNft */\n    tag_60:\n      0x02\n      0x00\n      swap1\n      sload\n      swap1\n      0x0100\n      exp\n      swap1\n      div\n      0xffffffffffffffffffffffffffffffffffffffff\n      and\n      dup2\n      jump\t// out\n        /* \"worldcup/DreamChallenge.sol\":2493:3660  function enterChallenge(uint16 _id, uint256 _tokenid, uint256 _amount) public {... */\n    tag_66:\n        /* \"worldcup/DreamChallenge.sol\":2602:2603  0 */\n      0x00\n        /* \"worldcup/DreamChallenge.sol\":2592:2599  _amount */\n      dup2\n        /* \"worldcup/DreamChallenge.sol\":2592:2603  _amount > 0 */\n      gt\n        /* \"worldcup/DreamChallenge.sol\":2584:2622  require(_amount > 0, \"Amount is zero\") */\n      tag_179\n      jumpi\n      mload(0x40)\n      0x08c379a000000000000000000000000000000000000000000000000000000000\n      dup2\n      mstore\n      0x04\n      add\n      tag_180\n      swap1\n      tag_181\n      jump\t// in\n    tag_180:\n      mload(0x40)\n      dup1\n      swap2\n      sub\n      swap1\n      revert\n    tag_179:\n        /* \"worldcup/DreamChallenge.sol\":2633:2655  Challenge memory chage */\n      0x00\n        /* \"worldcup/DreamChallenge.sol\":2658:2668  challenges */\n      0x05\n        /* \"worldcup/DreamChallenge.sol\":2658:2673  challenges[_id] */\n      0x00\n        /* \"worldcup/DreamChallenge.sol\":2669:2672  _id */\n      dup6\n        /* \"worldcup/DreamChallenge.sol\":2658:2673  challenges[_id] */\n      0xffff\n      and\n      0xffff\n      and\n      dup2\n      mstore\n      0x20\n      add\n      swap1\n      dup2\n      mstore\n      0x20\n      add\n      0x00\n      keccak256\n        /* \"worldcup/DreamChallenge.sol\":2633:2673  Challenge memory chage = challenges[_id] */\n      mload(0x40)\n      dup1\n      0x0140\n      add\n      0x40\n      mstore\n      swap1\n      dup2\n      0x00\n      dup3\n      add\n      0x00\n      swap1\n      sload\n      swap1\n      0x0100\n      exp\n      swap1\n      div\n      0xff\n      and\n      0x01\n      dup2\n      gt\n      iszero\n      tag_182\n      jumpi\n      tag_183\n      tag_132\n      jump\t// in\n    tag_183:\n    tag_182:\n      0x01\n      dup2\n      gt\n      iszero\n      tag_184\n      jumpi\n      tag_185\n      tag_132\n      jump\t// in\n    tag_185:\n    tag_184:\n      dup2\n      mstore\n      0x20\n      add\n      0x00\n      dup3\n      add\n      0x01\n      swap1\n      sload\n      swap1\n      0x0100\n      exp\n      swap1\n      div\n      0xffff\n      and\n      0xffff\n      and\n      0xffff\n      and\n      dup2\n      mstore\n      0x20\n      add\n      0x01\n      dup3\n      add\n      sload\n      dup2\n      mstore\n      0x20\n      add\n      0x02\n      dup3\n      add\n      sload\n      dup2\n      mstore\n      0x20\n      add\n      0x03\n      dup3\n      add\n      sload\n      dup2\n      mstore\n      0x20\n      add\n      0x04\n      dup3\n      add\n      sload\n      dup2\n      mstore\n      0x20\n      add\n      0x05\n      dup3\n      add\n      sload\n      dup2\n      mstore\n      0x20\n      add\n      0x06\n      dup3\n      add\n      sload\n      dup2\n      mstore\n      0x20\n      add\n      0x07\n      dup3\n      add\n      sload\n      dup2\n      mstore\n      0x20\n      add\n      0x08\n      dup3\n      add\n      sload\n      dup2\n      mstore\n      pop\n      pop\n      swap1\n      pop\n        /* \"worldcup/DreamChallenge.sol\":2706:2707  0 */\n      0x00\n        /* \"worldcup/DreamChallenge.sol\":2694:2699  chage */\n      dup2\n        /* \"worldcup/DreamChallenge.sol\":2694:2702  chage.id */\n      0x20\n      add\n      mload\n        /* \"worldcup/DreamChallenge.sol\":2694:2707  chage.id != 0 */\n      0xffff\n      and\n      sub\n        /* \"worldcup/DreamChallenge.sol\":2686:2720  require(chage.id != 0, \"Id error\") */\n      tag_186\n      jumpi\n      mload(0x40)\n      0x08c379a000000000000000000000000000000000000000000000000000000000\n      dup2\n      mstore\n      0x04\n      add\n      tag_187\n      swap1\n      tag_188\n      jump\t// in\n    tag_187:\n      mload(0x40)\n      dup1\n      swap2\n      sub\n      swap1\n      revert\n    tag_186:\n        /* \"worldcup/DreamChallenge.sol\":2756:2771  block.timestamp */\n      timestamp\n        /* \"worldcup/DreamChallenge.sol\":2739:2744  chage */\n      dup2\n        /* \"worldcup/DreamChallenge.sol\":2739:2752  chage.startAt */\n      0x40\n      add\n      mload\n        /* \"worldcup/DreamChallenge.sol\":2739:2771  chage.startAt <= block.timestamp */\n      gt\n      iszero\n        /* \"worldcup/DreamChallenge.sol\":2731:2795  require(chage.startAt <= block.timestamp, \"Challenge not start\") */\n      tag_189\n      jumpi\n      mload(0x40)\n      0x08c379a000000000000000000000000000000000000000000000000000000000\n      dup2\n      mstore\n      0x04\n      add\n      tag_190\n      swap1\n      tag_191\n      jump\t// in\n    tag_190:\n      mload(0x40)\n      dup1\n      swap2\n      sub\n      swap1\n      revert\n    tag_189:\n        /* \"worldcup/DreamChallenge.sol\":2828:2843  block.timestamp */\n      timestamp\n        /* \"worldcup/DreamChallenge.sol\":2814:2819  chage */\n      dup2\n        /* \"worldcup/DreamChallenge.sol\":2814:2825  chage.endAt */\n      0x60\n      add\n      mload\n        /* \"worldcup/DreamChallenge.sol\":2814:2843  chage.endAt > block.timestamp */\n      gt\n        /* \"worldcup/DreamChallenge.sol\":2806:2864  require(chage.endAt > block.timestamp, \"Challenge is end\") */\n      tag_192\n      jumpi\n      mload(0x40)\n      0x08c379a000000000000000000000000000000000000000000000000000000000\n      dup2\n      mstore\n      0x04\n      add\n      tag_193\n      swap1\n      tag_194\n      jump\t// in\n    tag_193:\n      mload(0x40)\n      dup1\n      swap2\n      sub\n      swap1\n      revert\n    tag_192:\n        /* \"worldcup/DreamChallenge.sol\":2899:2904  chage */\n      dup1\n        /* \"worldcup/DreamChallenge.sol\":2899:2910  chage.endAt */\n      0x60\n      add\n      mload\n        /* \"worldcup/DreamChallenge.sol\":2883:2888  chage */\n      dup2\n        /* \"worldcup/DreamChallenge.sol\":2883:2896  chage.startAt */\n      0x40\n      add\n      mload\n        /* \"worldcup/DreamChallenge.sol\":2883:2910  chage.startAt < chage.endAt */\n      lt\n        /* \"worldcup/DreamChallenge.sol\":2875:2949  require(chage.startAt < chage.endAt, \"Start time must less than end time\") */\n      tag_195\n      jumpi\n      mload(0x40)\n      0x08c379a000000000000000000000000000000000000000000000000000000000\n      dup2\n      mstore\n      0x04\n      add\n      tag_196\n      swap1\n      tag_197\n      jump\t// in\n    tag_196:\n      mload(0x40)\n      dup1\n      swap2\n      sub\n      swap1\n      revert\n    tag_195:\n        /* \"worldcup/DreamChallenge.sol\":2989:2997  _tokenid */\n      dup3\n        /* \"worldcup/DreamChallenge.sol\":2968:2973  chage */\n      dup2\n        /* \"worldcup/DreamChallenge.sol\":2968:2985  chage.tokenIdLeft */\n      0xa0\n      add\n      mload\n        /* \"worldcup/DreamChallenge.sol\":2968:2997  chage.tokenIdLeft == _tokenid */\n      eq\n        /* \"worldcup/DreamChallenge.sol\":2968:3031  chage.tokenIdLeft == _tokenid || chage.tokenIdRight == _tokenid */\n      dup1\n      tag_198\n      jumpi\n      pop\n        /* \"worldcup/DreamChallenge.sol\":3023:3031  _tokenid */\n      dup3\n        /* \"worldcup/DreamChallenge.sol\":3001:3006  chage */\n      dup2\n        /* \"worldcup/DreamChallenge.sol\":3001:3019  chage.tokenIdRight */\n      0xc0\n      add\n      mload\n        /* \"worldcup/DreamChallenge.sol\":3001:3031  chage.tokenIdRight == _tokenid */\n      eq\n        /* \"worldcup/DreamChallenge.sol\":2968:3031  chage.tokenIdLeft == _tokenid || chage.tokenIdRight == _tokenid */\n    tag_198:\n        /* \"worldcup/DreamChallenge.sol\":2960:3061  require(chage.tokenIdLeft == _tokenid || chage.tokenIdRight == _tokenid, \"Token id not in challenge\") */\n      tag_199\n      jumpi\n      mload(0x40)\n      0x08c379a000000000000000000000000000000000000000000000000000000000\n      dup2\n      mstore\n      0x04\n      add\n      tag_200\n      swap1\n      tag_201\n      jump\t// in\n    tag_200:\n      mload(0x40)\n      dup1\n      swap2\n      sub\n      swap1\n      revert\n    tag_199:\n        /* \"worldcup/DreamChallenge.sol\":3083:3090  teamNft */\n      0x02\n      0x00\n      swap1\n      sload\n      swap1\n      0x0100\n      exp\n      swap1\n      div\n      0xffffffffffffffffffffffffffffffffffffffff\n      and\n        /* \"worldcup/DreamChallenge.sol\":3074:3108  IERC1155(teamNft).safeTransferFrom */\n      0xffffffffffffffffffffffffffffffffffffffff\n      and\n      0xf242432a\n        /* \"worldcup/DreamChallenge.sol\":3109:3119  msg.sender */\n      caller\n        /* \"worldcup/DreamChallenge.sol\":3129:3133  this */\n      address\n        /* \"worldcup/DreamChallenge.sol\":3136:3144  _tokenid */\n      dup7\n        /* \"worldcup/DreamChallenge.sol\":3146:3153  _amount */\n      dup7\n        /* \"worldcup/DreamChallenge.sol\":3074:3158  IERC1155(teamNft).safeTransferFrom(msg.sender, address(this), _tokenid, _amount, \"\") */\n      mload(0x40)\n      dup6\n      0xffffffff\n      and\n      0xe0\n      shl\n      dup2\n      mstore\n      0x04\n      add\n      tag_202\n      swap5\n      swap4\n      swap3\n      swap2\n      swap1\n      tag_138\n      jump\t// in\n    tag_202:\n      0x00\n      mload(0x40)\n      dup1\n      dup4\n      sub\n      dup2\n      0x00\n      dup8\n      dup1\n      extcodesize\n      iszero\n      dup1\n      iszero\n      tag_203\n      jumpi\n      0x00\n      dup1\n      revert\n    tag_203:\n      pop\n      gas\n      call\n      iszero\n      dup1\n      iszero\n      tag_205\n      jumpi\n      returndatasize\n      0x00\n      dup1\n      returndatacopy\n      revert(0x00, returndatasize)\n    tag_205:\n      pop\n      pop\n      pop\n      pop\n        /* \"worldcup/DreamChallenge.sol\":3169:3193  UserInfo memory userinfo */\n      0x00\n        /* \"worldcup/DreamChallenge.sol\":3196:3210  userChallenges */\n      0x06\n        /* \"worldcup/DreamChallenge.sol\":3196:3222  userChallenges[msg.sender] */\n      0x00\n        /* \"worldcup/DreamChallenge.sol\":3211:3221  msg.sender */\n      caller\n        /* \"worldcup/DreamChallenge.sol\":3196:3222  userChallenges[msg.sender] */\n      0xffffffffffffffffffffffffffffffffffffffff\n      and\n      0xffffffffffffffffffffffffffffffffffffffff\n      and\n      dup2\n      mstore\n      0x20\n      add\n      swap1\n      dup2\n      mstore\n      0x20\n      add\n      0x00\n      keccak256\n        /* \"worldcup/DreamChallenge.sol\":3196:3227  userChallenges[msg.sender][_id] */\n      0x00\n        /* \"worldcup/DreamChallenge.sol\":3223:3226  _id */\n      dup7\n        /* \"worldcup/DreamChallenge.sol\":3196:3227  userChallenges[msg.sender][_id] */\n      0xffff\n      and\n      0xffff\n      and\n      dup2\n      mstore\n      0x20\n      add\n      swap1\n      dup2\n      mstore\n      0x20\n      add\n      0x00\n      keccak256\n        /* \"worldcup/DreamChallenge.sol\":3169:3227  UserInfo memory userinfo = userChallenges[msg.sender][_id] */\n      mload(0x40)\n      dup1\n      0x80\n      add\n      0x40\n      mstore\n      swap1\n      dup2\n      0x00\n      dup3\n      add\n      0x00\n      swap1\n      sload\n      swap1\n      0x0100\n      exp\n      swap1\n      div\n      0xffff\n      and\n      0xffff\n      and\n      0xffff\n      and\n      dup2\n      mstore\n      0x20\n      add\n      0x01\n      dup3\n      add\n      sload\n      dup2\n      mstore\n      0x20\n      add\n      0x02\n      dup3\n      add\n      sload\n      dup2\n      mstore\n      0x20\n      add\n      0x03\n      dup3\n      add\n      0x00\n      swap1\n      sload\n      swap1\n      0x0100\n      exp\n      swap1\n      div\n      0xff\n      and\n      iszero\n      iszero\n      iszero\n      iszero\n      dup2\n      mstore\n      pop\n      pop\n      swap1\n      pop\n        /* \"worldcup/DreamChallenge.sol\":3261:3264  _id */\n      dup5\n        /* \"worldcup/DreamChallenge.sol\":3238:3246  userinfo */\n      dup2\n        /* \"worldcup/DreamChallenge.sol\":3238:3258  userinfo.challengeId */\n      0x00\n      add\n        /* \"worldcup/DreamChallenge.sol\":3238:3264  userinfo.challengeId = _id */\n      swap1\n      0xffff\n      and\n      swap1\n      dup2\n      0xffff\n      and\n      dup2\n      mstore\n      pop\n      pop\n        /* \"worldcup/DreamChallenge.sol\":3277:3293  userChallengeIds */\n      0x07\n        /* \"worldcup/DreamChallenge.sol\":3277:3305  userChallengeIds[msg.sender] */\n      0x00\n        /* \"worldcup/DreamChallenge.sol\":3294:3304  msg.sender */\n      caller\n        /* \"worldcup/DreamChallenge.sol\":3277:3305  userChallengeIds[msg.sender] */\n      0xffffffffffffffffffffffffffffffffffffffff\n      and\n      0xffffffffffffffffffffffffffffffffffffffff\n      and\n      dup2\n      mstore\n      0x20\n      add\n      swap1\n      dup2\n      mstore\n      0x20\n      add\n      0x00\n      keccak256\n        /* \"worldcup/DreamChallenge.sol\":3311:3314  _id */\n      dup6\n        /* \"worldcup/DreamChallenge.sol\":3277:3315  userChallengeIds[msg.sender].push(_id) */\n      swap1\n      dup1\n      0x01\n      dup2\n      sload\n      add\n      dup1\n      dup3\n      sstore\n      dup1\n      swap2\n      pop\n      pop\n      0x01\n      swap1\n      sub\n      swap1\n      0x00\n      mstore\n      keccak256(0x00, 0x20)\n      swap1\n      0x10\n      swap2\n      dup3\n      dup3\n      div\n      add\n      swap2\n      swap1\n      mod\n      0x02\n      mul\n      swap1\n      swap2\n      swap1\n      swap2\n      swap1\n      swap2\n      0x0100\n      exp\n      dup2\n      sload\n      dup2\n      0xffff\n      mul\n      not\n      and\n      swap1\n      dup4\n      0xffff\n      and\n      mul\n      or\n      swap1\n      sstore\n      pop\n        /* \"worldcup/DreamChallenge.sol\":3350:3358  _tokenid */\n      dup4\n        /* \"worldcup/DreamChallenge.sol\":3329:3334  chage */\n      dup3\n        /* \"worldcup/DreamChallenge.sol\":3329:3346  chage.tokenIdLeft */\n      0xa0\n      add\n      mload\n        /* \"worldcup/DreamChallenge.sol\":3329:3358  chage.tokenIdLeft == _tokenid */\n      sub\n        /* \"worldcup/DreamChallenge.sol\":3326:3598  if(chage.tokenIdLeft == _tokenid) {... */\n      tag_207\n      jumpi\n        /* \"worldcup/DreamChallenge.sol\":3410:3417  _amount */\n      dup3\n        /* \"worldcup/DreamChallenge.sol\":3375:3385  challenges */\n      0x05\n        /* \"worldcup/DreamChallenge.sol\":3375:3390  challenges[_id] */\n      0x00\n        /* \"worldcup/DreamChallenge.sol\":3386:3389  _id */\n      dup8\n        /* \"worldcup/DreamChallenge.sol\":3375:3390  challenges[_id] */\n      0xffff\n      and\n      0xffff\n      and\n      dup2\n      mstore\n      0x20\n      add\n      swap1\n      dup2\n      mstore\n      0x20\n      add\n      0x00\n      keccak256\n        /* \"worldcup/DreamChallenge.sol\":3375:3406  challenges[_id].leftTotalAmount */\n      0x06\n      add\n      0x00\n        /* \"worldcup/DreamChallenge.sol\":3375:3417  challenges[_id].leftTotalAmount += _amount */\n      dup3\n      dup3\n      sload\n      tag_208\n      swap2\n      swap1\n      tag_209\n      jump\t// in\n    tag_208:\n      swap3\n      pop\n      pop\n      dup2\n      swap1\n      sstore\n      pop\n        /* \"worldcup/DreamChallenge.sol\":3456:3463  _amount */\n      dup3\n        /* \"worldcup/DreamChallenge.sol\":3432:3440  userinfo */\n      dup2\n        /* \"worldcup/DreamChallenge.sol\":3432:3452  userinfo.amountsLeft */\n      0x20\n      add\n        /* \"worldcup/DreamChallenge.sol\":3432:3463  userinfo.amountsLeft += _amount */\n      dup2\n      dup2\n      mload\n      tag_210\n      swap2\n      swap1\n      tag_209\n      jump\t// in\n    tag_210:\n      swap2\n      pop\n      dup2\n      dup2\n      mstore\n      pop\n      pop\n        /* \"worldcup/DreamChallenge.sol\":3326:3598  if(chage.tokenIdLeft == _tokenid) {... */\n      jump(tag_211)\n    tag_207:\n        /* \"worldcup/DreamChallenge.sol\":3532:3539  _amount */\n      dup3\n        /* \"worldcup/DreamChallenge.sol\":3496:3506  challenges */\n      0x05\n        /* \"worldcup/DreamChallenge.sol\":3496:3511  challenges[_id] */\n      0x00\n        /* \"worldcup/DreamChallenge.sol\":3507:3510  _id */\n      dup8\n        /* \"worldcup/DreamChallenge.sol\":3496:3511  challenges[_id] */\n      0xffff\n      and\n      0xffff\n      and\n      dup2\n      mstore\n      0x20\n      add\n      swap1\n      dup2\n      mstore\n      0x20\n      add\n      0x00\n      keccak256\n        /* \"worldcup/DreamChallenge.sol\":3496:3528  challenges[_id].rightTotalAmount */\n      0x07\n      add\n      0x00\n        /* \"worldcup/DreamChallenge.sol\":3496:3539  challenges[_id].rightTotalAmount += _amount */\n      dup3\n      dup3\n      sload\n      tag_212\n      swap2\n      swap1\n      tag_209\n      jump\t// in\n    tag_212:\n      swap3\n      pop\n      pop\n      dup2\n      swap1\n      sstore\n      pop\n        /* \"worldcup/DreamChallenge.sol\":3579:3586  _amount */\n      dup3\n        /* \"worldcup/DreamChallenge.sol\":3554:3562  userinfo */\n      dup2\n        /* \"worldcup/DreamChallenge.sol\":3554:3575  userinfo.amountsRight */\n      0x40\n      add\n        /* \"worldcup/DreamChallenge.sol\":3554:3586  userinfo.amountsRight += _amount */\n      dup2\n      dup2\n      mload\n      tag_213\n      swap2\n      swap1\n      tag_209\n      jump\t// in\n    tag_213:\n      swap2\n      pop\n      dup2\n      dup2\n      mstore\n      pop\n      pop\n        /* \"worldcup/DreamChallenge.sol\":3326:3598  if(chage.tokenIdLeft == _tokenid) {... */\n    tag_211:\n        /* \"worldcup/DreamChallenge.sol\":3644:3652  userinfo */\n      dup1\n        /* \"worldcup/DreamChallenge.sol\":3610:3624  userChallenges */\n      0x06\n        /* \"worldcup/DreamChallenge.sol\":3610:3636  userChallenges[msg.sender] */\n      0x00\n        /* \"worldcup/DreamChallenge.sol\":3625:3635  msg.sender */\n      caller\n        /* \"worldcup/DreamChallenge.sol\":3610:3636  userChallenges[msg.sender] */\n      0xffffffffffffffffffffffffffffffffffffffff\n      and\n      0xffffffffffffffffffffffffffffffffffffffff\n      and\n      dup2\n      mstore\n      0x20\n      add\n      swap1\n      dup2\n      mstore\n      0x20\n      add\n      0x00\n      keccak256\n        /* \"worldcup/DreamChallenge.sol\":3610:3641  userChallenges[msg.sender][_id] */\n      0x00\n        /* \"worldcup/DreamChallenge.sol\":3637:3640  _id */\n      dup8\n        /* \"worldcup/DreamChallenge.sol\":3610:3641  userChallenges[msg.sender][_id] */\n      0xffff\n      and\n      0xffff\n      and\n      dup2\n      mstore\n      0x20\n      add\n      swap1\n      dup2\n      mstore\n      0x20\n      add\n      0x00\n      keccak256\n        /* \"worldcup/DreamChallenge.sol\":3610:3652  userChallenges[msg.sender][_id] = userinfo */\n      0x00\n      dup3\n      add\n      mload\n      dup2\n      0x00\n      add\n      exp(0x0100, 0x00)\n      dup2\n      sload\n      dup2\n      0xffff\n      mul\n      not\n      and\n      swap1\n      dup4\n      0xffff\n      and\n      mul\n      or\n      swap1\n      sstore\n      pop\n      0x20\n      dup3\n      add\n      mload\n      dup2\n      0x01\n      add\n      sstore\n      0x40\n      dup3\n      add\n      mload\n      dup2\n      0x02\n      add\n      sstore\n      0x60\n      dup3\n      add\n      mload\n      dup2\n      0x03\n      add\n      exp(0x0100, 0x00)\n      dup2\n      sload\n      dup2\n      0xff\n      mul\n      not\n      and\n      swap1\n      dup4\n      iszero\n      iszero\n      mul\n      or\n      swap1\n      sstore\n      pop\n      swap1\n      pop\n      pop\n        /* \"worldcup/DreamChallenge.sol\":2571:3660  {... */\n      pop\n      pop\n        /* \"worldcup/DreamChallenge.sol\":2493:3660  function enterChallenge(uint16 _id, uint256 _tokenid, uint256 _amount) public {... */\n      pop\n      pop\n      pop\n      jump\t// out\n        /* \"worldcup/DreamChallenge.sol\":5080:5164  function setTeamNft(address _nft) public onlyOwner {... */\n    tag_69:\n        /* \"worldcup/Adminable.sol\":704:716  _msgSender() */\n      tag_215\n        /* \"worldcup/Adminable.sol\":704:714  _msgSender */\n      tag_155\n        /* \"worldcup/Adminable.sol\":704:716  _msgSender() */\n      jump\t// in\n    tag_215:\n        /* \"worldcup/Adminable.sol\":693:716  owner() == _msgSender() */\n      0xffffffffffffffffffffffffffffffffffffffff\n      and\n        /* \"worldcup/Adminable.sol\":693:700  owner() */\n      tag_216\n        /* \"worldcup/Adminable.sol\":693:698  owner */\n      tag_86\n        /* \"worldcup/Adminable.sol\":693:700  owner() */\n      jump\t// in\n    tag_216:\n        /* \"worldcup/Adminable.sol\":693:716  owner() == _msgSender() */\n      0xffffffffffffffffffffffffffffffffffffffff\n      and\n      eq\n        /* \"worldcup/Adminable.sol\":685:755  require(owner() == _msgSender(), \"Adminable: caller is not the owner\") */\n      tag_217\n      jumpi\n      mload(0x40)\n      0x08c379a000000000000000000000000000000000000000000000000000000000\n      dup2\n      mstore\n      0x04\n      add\n      tag_218\n      swap1\n      tag_159\n      jump\t// in\n    tag_218:\n      mload(0x40)\n      dup1\n      swap2\n      sub\n      swap1\n      revert\n    tag_217:\n        /* \"worldcup/DreamChallenge.sol\":5152:5156  _nft */\n      dup1\n        /* \"worldcup/DreamChallenge.sol\":5142:5149  teamNft */\n      0x02\n      0x00\n        /* \"worldcup/DreamChallenge.sol\":5142:5156  teamNft = _nft */\n      0x0100\n      exp\n      dup2\n      sload\n      dup2\n      0xffffffffffffffffffffffffffffffffffffffff\n      mul\n      not\n      and\n      swap1\n      dup4\n      0xffffffffffffffffffffffffffffffffffffffff\n      and\n      mul\n      or\n      swap1\n      sstore\n      pop\n        /* \"worldcup/DreamChallenge.sol\":5080:5164  function setTeamNft(address _nft) public onlyOwner {... */\n      pop\n      jump\t// out\n        /* \"worldcup/Adminable.sol\":1125:1228  function renounceOwnership() public virtual onlyOwner {... */\n    tag_71:\n        /* \"worldcup/Adminable.sol\":704:716  _msgSender() */\n      tag_221\n        /* \"worldcup/Adminable.sol\":704:714  _msgSender */\n      tag_155\n        /* \"worldcup/Adminable.sol\":704:716  _msgSender() */\n      jump\t// in\n    tag_221:\n        /* \"worldcup/Adminable.sol\":693:716  owner() == _msgSender() */\n      0xffffffffffffffffffffffffffffffffffffffff\n      and\n        /* \"worldcup/Adminable.sol\":693:700  owner() */\n      tag_222\n        /* \"worldcup/Adminable.sol\":693:698  owner */\n      tag_86\n        /* \"worldcup/Adminable.sol\":693:700  owner() */\n      jump\t// in\n    tag_222:\n        /* \"worldcup/Adminable.sol\":693:716  owner() == _msgSender() */\n      0xffffffffffffffffffffffffffffffffffffffff\n      and\n      eq\n        /* \"worldcup/Adminable.sol\":685:755  require(owner() == _msgSender(), \"Adminable: caller is not the owner\") */\n      tag_223\n      jumpi\n      mload(0x40)\n      0x08c379a000000000000000000000000000000000000000000000000000000000\n      dup2\n      mstore\n      0x04\n      add\n      tag_224\n      swap1\n      tag_159\n      jump\t// in\n    tag_224:\n      mload(0x40)\n      dup1\n      swap2\n      sub\n      swap1\n      revert\n    tag_223:\n        /* \"worldcup/Adminable.sol\":1190:1220  _transferOwnership(address(0)) */\n      tag_226\n        /* \"worldcup/Adminable.sol\":1217:1218  0 */\n      0x00\n        /* \"worldcup/Adminable.sol\":1190:1208  _transferOwnership */\n      tag_227\n        /* \"worldcup/Adminable.sol\":1190:1220  _transferOwnership(address(0)) */\n      jump\t// in\n    tag_226:\n        /* \"worldcup/Adminable.sol\":1125:1228  function renounceOwnership() public virtual onlyOwner {... */\n      jump\t// out\n        /* \"worldcup/DreamChallenge.sol\":6501:6667  function getUserChallengeInfo(address account, uint16 challengeId) public view returns(UserInfo memory) {... */\n    tag_74:\n        /* \"worldcup/DreamChallenge.sol\":6588:6603  UserInfo memory */\n      tag_228\n      tag_229\n      jump\t// in\n    tag_228:\n        /* \"worldcup/DreamChallenge.sol\":6623:6637  userChallenges */\n      0x06\n        /* \"worldcup/DreamChallenge.sol\":6623:6646  userChallenges[account] */\n      0x00\n        /* \"worldcup/DreamChallenge.sol\":6638:6645  account */\n      dup5\n        /* \"worldcup/DreamChallenge.sol\":6623:6646  userChallenges[account] */\n      0xffffffffffffffffffffffffffffffffffffffff\n      and\n      0xffffffffffffffffffffffffffffffffffffffff\n      and\n      dup2\n      mstore\n      0x20\n      add\n      swap1\n      dup2\n      mstore\n      0x20\n      add\n      0x00\n      keccak256\n        /* \"worldcup/DreamChallenge.sol\":6623:6659  userChallenges[account][challengeId] */\n      0x00\n        /* \"worldcup/DreamChallenge.sol\":6647:6658  challengeId */\n      dup4\n        /* \"worldcup/DreamChallenge.sol\":6623:6659  userChallenges[account][challengeId] */\n      0xffff\n      and\n      0xffff\n      and\n      dup2\n      mstore\n      0x20\n      add\n      swap1\n      dup2\n      mstore\n      0x20\n      add\n      0x00\n      keccak256\n        /* \"worldcup/DreamChallenge.sol\":6616:6659  return userChallenges[account][challengeId] */\n      mload(0x40)\n      dup1\n      0x80\n      add\n      0x40\n      mstore\n      swap1\n      dup2\n      0x00\n      dup3\n      add\n      0x00\n      swap1\n      sload\n      swap1\n      0x0100\n      exp\n      swap1\n      div\n      0xffff\n      and\n      0xffff\n      and\n      0xffff\n      and\n      dup2\n      mstore\n      0x20\n      add\n      0x01\n      dup3\n      add\n      sload\n      dup2\n      mstore\n      0x20\n      add\n      0x02\n      dup3\n      add\n      sload\n      dup2\n      mstore\n      0x20\n      add\n      0x03\n      dup3\n      add\n      0x00\n      swap1\n      sload\n      swap1\n      0x0100\n      exp\n      swap1\n      div\n      0xff\n      and\n      iszero\n      iszero\n      iszero\n      iszero\n      dup2\n      mstore\n      pop\n      pop\n      swap1\n      pop\n        /* \"worldcup/DreamChallenge.sol\":6501:6667  function getUserChallengeInfo(address account, uint16 challengeId) public view returns(UserInfo memory) {... */\n      swap3\n      swap2\n      pop\n      pop\n      jump\t// out\n        /* \"worldcup/DreamChallenge.sol\":6675:6808  function getChallengeInfo(uint16 challengeId) public view returns(Challenge memory) {... */\n    tag_79:\n        /* \"worldcup/DreamChallenge.sol\":6741:6757  Challenge memory */\n      tag_231\n      tag_232\n      jump\t// in\n    tag_231:\n        /* \"worldcup/DreamChallenge.sol\":6777:6787  challenges */\n      0x05\n        /* \"worldcup/DreamChallenge.sol\":6777:6800  challenges[challengeId] */\n      0x00\n        /* \"worldcup/DreamChallenge.sol\":6788:6799  challengeId */\n      dup4\n        /* \"worldcup/DreamChallenge.sol\":6777:6800  challenges[challengeId] */\n      0xffff\n      and\n      0xffff\n      and\n      dup2\n      mstore\n      0x20\n      add\n      swap1\n      dup2\n      mstore\n      0x20\n      add\n      0x00\n      keccak256\n        /* \"worldcup/DreamChallenge.sol\":6770:6800  return challenges[challengeId] */\n      mload(0x40)\n      dup1\n      0x0140\n      add\n      0x40\n      mstore\n      swap1\n      dup2\n      0x00\n      dup3\n      add\n      0x00\n      swap1\n      sload\n      swap1\n      0x0100\n      exp\n      swap1\n      div\n      0xff\n      and\n      0x01\n      dup2\n      gt\n      iszero\n      tag_234\n      jumpi\n      tag_235\n      tag_132\n      jump\t// in\n    tag_235:\n    tag_234:\n      0x01\n      dup2\n      gt\n      iszero\n      tag_236\n      jumpi\n      tag_237\n      tag_132\n      jump\t// in\n    tag_237:\n    tag_236:\n      dup2\n      mstore\n      0x20\n      add\n      0x00\n      dup3\n      add\n      0x01\n      swap1\n      sload\n      swap1\n      0x0100\n      exp\n      swap1\n      div\n      0xffff\n      and\n      0xffff\n      and\n      0xffff\n      and\n      dup2\n      mstore\n      0x20\n      add\n      0x01\n      dup3\n      add\n      sload\n      dup2\n      mstore\n      0x20\n      add\n      0x02\n      dup3\n      add\n      sload\n      dup2\n      mstore\n      0x20\n      add\n      0x03\n      dup3\n      add\n      sload\n      dup2\n      mstore\n      0x20\n      add\n      0x04\n      dup3\n      add\n      sload\n      dup2\n      mstore\n      0x20\n      add\n      0x05\n      dup3\n      add\n      sload\n      dup2\n      mstore\n      0x20\n      add\n      0x06\n      dup3\n      add\n      sload\n      dup2\n      mstore\n      0x20\n      add\n      0x07\n      dup3\n      add\n      sload\n      dup2\n      mstore\n      0x20\n      add\n      0x08\n      dup3\n      add\n      sload\n      dup2\n      mstore\n      pop\n      pop\n      swap1\n      pop\n        /* \"worldcup/DreamChallenge.sol\":6675:6808  function getChallengeInfo(uint16 challengeId) public view returns(Challenge memory) {... */\n      swap2\n      swap1\n      pop\n      jump\t// out\n        /* \"worldcup/DreamChallenge.sol\":5172:5268  function setRewardToken(address _token) public onlyOwner {... */\n    tag_84:\n        /* \"worldcup/Adminable.sol\":704:716  _msgSender() */\n      tag_239\n        /* \"worldcup/Adminable.sol\":704:714  _msgSender */\n      tag_155\n        /* \"worldcup/Adminable.sol\":704:716  _msgSender() */\n      jump\t// in\n    tag_239:\n        /* \"worldcup/Adminable.sol\":693:716  owner() == _msgSender() */\n      0xffffffffffffffffffffffffffffffffffffffff\n      and\n        /* \"worldcup/Adminable.sol\":693:700  owner() */\n      tag_240\n        /* \"worldcup/Adminable.sol\":693:698  owner */\n      tag_86\n        /* \"worldcup/Adminable.sol\":693:700  owner() */\n      jump\t// in\n    tag_240:\n        /* \"worldcup/Adminable.sol\":693:716  owner() == _msgSender() */\n      0xffffffffffffffffffffffffffffffffffffffff\n      and\n      eq\n        /* \"worldcup/Adminable.sol\":685:755  require(owner() == _msgSender(), \"Adminable: caller is not the owner\") */\n      tag_241\n      jumpi\n      mload(0x40)\n      0x08c379a000000000000000000000000000000000000000000000000000000000\n      dup2\n      mstore\n      0x04\n      add\n      tag_242\n      swap1\n      tag_159\n      jump\t// in\n    tag_242:\n      mload(0x40)\n      dup1\n      swap2\n      sub\n      swap1\n      revert\n    tag_241:\n        /* \"worldcup/DreamChallenge.sol\":5254:5260  _token */\n      dup1\n        /* \"worldcup/DreamChallenge.sol\":5240:5251  rewardToken */\n      0x03\n      0x00\n        /* \"worldcup/DreamChallenge.sol\":5240:5260  rewardToken = _token */\n      0x0100\n      exp\n      dup2\n      sload\n      dup2\n      0xffffffffffffffffffffffffffffffffffffffff\n      mul\n      not\n      and\n      swap1\n      dup4\n      0xffffffffffffffffffffffffffffffffffffffff\n      and\n      mul\n      or\n      swap1\n      sstore\n      pop\n        /* \"worldcup/DreamChallenge.sol\":5172:5268  function setRewardToken(address _token) public onlyOwner {... */\n      pop\n      jump\t// out\n        /* \"worldcup/Adminable.sol\":911:998  function owner() public view virtual returns (address) {... */\n    tag_86:\n        /* \"worldcup/Adminable.sol\":957:964  address */\n      0x00\n        /* \"worldcup/Adminable.sol\":984:990  _owner */\n      0x01\n      0x00\n      swap1\n      sload\n      swap1\n      0x0100\n      exp\n      swap1\n      div\n      0xffffffffffffffffffffffffffffffffffffffff\n      and\n        /* \"worldcup/Adminable.sol\":977:990  return _owner */\n      swap1\n      pop\n        /* \"worldcup/Adminable.sol\":911:998  function owner() public view virtual returns (address) {... */\n      swap1\n      jump\t// out\n        /* \"worldcup/DreamChallenge.sol\":3668:4186  function openChallenge(uint16 challengeId, uint256 winnerTokenId) public onlyAdmin {... */\n    tag_91:\n        /* \"worldcup/Adminable.sol\":823:844  isAdmin(_msgSender()) */\n      tag_246\n        /* \"worldcup/Adminable.sol\":831:843  _msgSender() */\n      tag_247\n        /* \"worldcup/Adminable.sol\":831:841  _msgSender */\n      tag_155\n        /* \"worldcup/Adminable.sol\":831:843  _msgSender() */\n      jump\t// in\n    tag_247:\n        /* \"worldcup/Adminable.sol\":823:830  isAdmin */\n      tag_57\n        /* \"worldcup/Adminable.sol\":823:844  isAdmin(_msgSender()) */\n      jump\t// in\n    tag_246:\n        /* \"worldcup/Adminable.sol\":815:883  require(isAdmin(_msgSender()), \"Adminable: caller is not the admin\") */\n      tag_248\n      jumpi\n      mload(0x40)\n      0x08c379a000000000000000000000000000000000000000000000000000000000\n      dup2\n      mstore\n      0x04\n      add\n      tag_249\n      swap1\n      tag_250\n      jump\t// in\n    tag_249:\n      mload(0x40)\n      dup1\n      swap2\n      sub\n      swap1\n      revert\n    tag_248:\n        /* \"worldcup/DreamChallenge.sol\":3762:3788  Challenge memory challenge */\n      0x00\n        /* \"worldcup/DreamChallenge.sol\":3791:3801  challenges */\n      0x05\n        /* \"worldcup/DreamChallenge.sol\":3791:3814  challenges[challengeId] */\n      0x00\n        /* \"worldcup/DreamChallenge.sol\":3802:3813  challengeId */\n      dup5\n        /* \"worldcup/DreamChallenge.sol\":3791:3814  challenges[challengeId] */\n      0xffff\n      and\n      0xffff\n      and\n      dup2\n      mstore\n      0x20\n      add\n      swap1\n      dup2\n      mstore\n      0x20\n      add\n      0x00\n      keccak256\n        /* \"worldcup/DreamChallenge.sol\":3762:3814  Challenge memory challenge = challenges[challengeId] */\n      mload(0x40)\n      dup1\n      0x0140\n      add\n      0x40\n      mstore\n      swap1\n      dup2\n      0x00\n      dup3\n      add\n      0x00\n      swap1\n      sload\n      swap1\n      0x0100\n      exp\n      swap1\n      div\n      0xff\n      and\n      0x01\n      dup2\n      gt\n      iszero\n      tag_252\n      jumpi\n      tag_253\n      tag_132\n      jump\t// in\n    tag_253:\n    tag_252:\n      0x01\n      dup2\n      gt\n      iszero\n      tag_254\n      jumpi\n      tag_255\n      tag_132\n      jump\t// in\n    tag_255:\n    tag_254:\n      dup2\n      mstore\n      0x20\n      add\n      0x00\n      dup3\n      add\n      0x01\n      swap1\n      sload\n      swap1\n      0x0100\n      exp\n      swap1\n      div\n      0xffff\n      and\n      0xffff\n      and\n      0xffff\n      and\n      dup2\n      mstore\n      0x20\n      add\n      0x01\n      dup3\n      add\n      sload\n      dup2\n      mstore\n      0x20\n      add\n      0x02\n      dup3\n      add\n      sload\n      dup2\n      mstore\n      0x20\n      add\n      0x03\n      dup3\n      add\n      sload\n      dup2\n      mstore\n      0x20\n      add\n      0x04\n      dup3\n      add\n      sload\n      dup2\n      mstore\n      0x20\n      add\n      0x05\n      dup3\n      add\n      sload\n      dup2\n      mstore\n      0x20\n      add\n      0x06\n      dup3\n      add\n      sload\n      dup2\n      mstore\n      0x20\n      add\n      0x07\n      dup3\n      add\n      sload\n      dup2\n      mstore\n      0x20\n      add\n      0x08\n      dup3\n      add\n      sload\n      dup2\n      mstore\n      pop\n      pop\n      swap1\n      pop\n        /* \"worldcup/DreamChallenge.sol\":3848:3849  0 */\n      0x00\n        /* \"worldcup/DreamChallenge.sol\":3833:3842  challenge */\n      dup2\n        /* \"worldcup/DreamChallenge.sol\":3833:3845  challenge.id */\n      0x20\n      add\n      mload\n        /* \"worldcup/DreamChallenge.sol\":3833:3849  challenge.id > 0 */\n      0xffff\n      and\n      gt\n        /* \"worldcup/DreamChallenge.sol\":3825:3874  require(challenge.id > 0, \"Invalid challenge id\") */\n      tag_256\n      jumpi\n      mload(0x40)\n      0x08c379a000000000000000000000000000000000000000000000000000000000\n      dup2\n      mstore\n      0x04\n      add\n      tag_257\n      swap1\n      tag_258\n      jump\t// in\n    tag_257:\n      mload(0x40)\n      dup1\n      swap2\n      sub\n      swap1\n      revert\n    tag_256:\n        /* \"worldcup/DreamChallenge.sol\":3914:3929  block.timestamp */\n      timestamp\n        /* \"worldcup/DreamChallenge.sol\":3893:3902  challenge */\n      dup2\n        /* \"worldcup/DreamChallenge.sol\":3893:3910  challenge.startAt */\n      0x40\n      add\n      mload\n        /* \"worldcup/DreamChallenge.sol\":3893:3929  challenge.startAt >= block.timestamp */\n      lt\n      iszero\n        /* \"worldcup/DreamChallenge.sol\":3885:3953  require(challenge.startAt >= block.timestamp, \"Challenge not start\") */\n      tag_259\n      jumpi\n      mload(0x40)\n      0x08c379a000000000000000000000000000000000000000000000000000000000\n      dup2\n      mstore\n      0x04\n      add\n      tag_260\n      swap1\n      tag_191\n      jump\t// in\n    tag_260:\n      mload(0x40)\n      dup1\n      swap2\n      sub\n      swap1\n      revert\n    tag_259:\n        /* \"worldcup/DreamChallenge.sol\":3990:4005  block.timestamp */\n      timestamp\n        /* \"worldcup/DreamChallenge.sol\":3972:3981  challenge */\n      dup2\n        /* \"worldcup/DreamChallenge.sol\":3972:3987  challenge.endAt */\n      0x60\n      add\n      mload\n        /* \"worldcup/DreamChallenge.sol\":3972:4005  challenge.endAt < block.timestamp */\n      lt\n        /* \"worldcup/DreamChallenge.sol\":3964:4027  require(challenge.endAt < block.timestamp, \"Challenge not end\") */\n      tag_261\n      jumpi\n      mload(0x40)\n      0x08c379a000000000000000000000000000000000000000000000000000000000\n      dup2\n      mstore\n      0x04\n      add\n      tag_262\n      swap1\n      tag_263\n      jump\t// in\n    tag_262:\n      mload(0x40)\n      dup1\n      swap2\n      sub\n      swap1\n      revert\n    tag_261:\n        /* \"worldcup/DreamChallenge.sol\":4059:4074  block.timestamp */\n      timestamp\n        /* \"worldcup/DreamChallenge.sol\":4040:4049  challenge */\n      dup2\n        /* \"worldcup/DreamChallenge.sol\":4040:4056  challenge.openAt */\n      0x80\n      add\n        /* \"worldcup/DreamChallenge.sol\":4040:4074  challenge.openAt = block.timestamp */\n      dup2\n      dup2\n      mstore\n      pop\n      pop\n        /* \"worldcup/DreamChallenge.sol\":4111:4124  winnerTokenId */\n      dup2\n        /* \"worldcup/DreamChallenge.sol\":4085:4094  challenge */\n      dup2\n        /* \"worldcup/DreamChallenge.sol\":4085:4108  challenge.winnerTokenId */\n      0x0120\n      add\n        /* \"worldcup/DreamChallenge.sol\":4085:4124  challenge.winnerTokenId = winnerTokenId */\n      dup2\n      dup2\n      mstore\n      pop\n      pop\n        /* \"worldcup/DreamChallenge.sol\":4154:4164  msg.sender */\n      caller\n        /* \"worldcup/DreamChallenge.sol\":4140:4178  OpenChallenge(msg.sender, challengeId) */\n      0xffffffffffffffffffffffffffffffffffffffff\n      and\n      0x8fdc8870ecd42629e72f8c2edf272000e1824b081ef420869c8435da7d78ef61\n        /* \"worldcup/DreamChallenge.sol\":4166:4177  challengeId */\n      dup5\n        /* \"worldcup/DreamChallenge.sol\":4140:4178  OpenChallenge(msg.sender, challengeId) */\n      mload(0x40)\n      tag_264\n      swap2\n      swap1\n      tag_123\n      jump\t// in\n    tag_264:\n      mload(0x40)\n      dup1\n      swap2\n      sub\n      swap1\n      log2\n        /* \"worldcup/DreamChallenge.sol\":3751:4186  {... */\n      pop\n        /* \"worldcup/DreamChallenge.sol\":3668:4186  function openChallenge(uint16 challengeId, uint256 winnerTokenId) public onlyAdmin {... */\n      pop\n      pop\n      jump\t// out\n        /* \"https://github.com/OpenZeppelin/openzeppelin-contracts/blob/master/contracts/token/ERC1155/utils/ERC1155Holder.sol\":724:971  function onERC1155BatchReceived(... */\n    tag_95:\n        /* \"https://github.com/OpenZeppelin/openzeppelin-contracts/blob/master/contracts/token/ERC1155/utils/ERC1155Holder.sol\":903:909  bytes4 */\n      0x00\n        /* \"https://github.com/OpenZeppelin/openzeppelin-contracts/blob/master/contracts/token/ERC1155/utils/ERC1155Holder.sol\":928:964  this.onERC1155BatchReceived.selector */\n      shl(0xe0, 0xbc197c81)\n        /* \"https://github.com/OpenZeppelin/openzeppelin-contracts/blob/master/contracts/token/ERC1155/utils/ERC1155Holder.sol\":921:964  return this.onERC1155BatchReceived.selector */\n      swap1\n      pop\n        /* \"https://github.com/OpenZeppelin/openzeppelin-contracts/blob/master/contracts/token/ERC1155/utils/ERC1155Holder.sol\":724:971  function onERC1155BatchReceived(... */\n      swap6\n      swap5\n      pop\n      pop\n      pop\n      pop\n      pop\n      jump\t// out\n        /* \"worldcup/DreamChallenge.sol\":1851:2485  function addChallenge(Ctype _ctype, uint256 _startAt, uint256 _endAt,... */\n    tag_101:\n        /* \"worldcup/Adminable.sol\":823:844  isAdmin(_msgSender()) */\n      tag_267\n        /* \"worldcup/Adminable.sol\":831:843  _msgSender() */\n      tag_268\n        /* \"worldcup/Adminable.sol\":831:841  _msgSender */\n      tag_155\n        /* \"worldcup/Adminable.sol\":831:843  _msgSender() */\n      jump\t// in\n    tag_268:\n        /* \"worldcup/Adminable.sol\":823:830  isAdmin */\n      tag_57\n        /* \"worldcup/Adminable.sol\":823:844  isAdmin(_msgSender()) */\n      jump\t// in\n    tag_267:\n        /* \"worldcup/Adminable.sol\":815:883  require(isAdmin(_msgSender()), \"Adminable: caller is not the admin\") */\n      tag_269\n      jumpi\n      mload(0x40)\n      0x08c379a000000000000000000000000000000000000000000000000000000000\n      dup2\n      mstore\n      0x04\n      add\n      tag_270\n      swap1\n      tag_250\n      jump\t// in\n    tag_270:\n      mload(0x40)\n      dup1\n      swap2\n      sub\n      swap1\n      revert\n    tag_269:\n        /* \"worldcup/DreamChallenge.sol\":2025:2040  block.timestamp */\n      timestamp\n        /* \"worldcup/DreamChallenge.sol\":2014:2022  _startAt */\n      dup5\n        /* \"worldcup/DreamChallenge.sol\":2014:2040  _startAt > block.timestamp */\n      gt\n        /* \"worldcup/DreamChallenge.sol\":2006:2083  require(_startAt > block.timestamp, \"Start time must more than present time\") */\n      tag_272\n      jumpi\n      mload(0x40)\n      0x08c379a000000000000000000000000000000000000000000000000000000000\n      dup2\n      mstore\n      0x04\n      add\n      tag_273\n      swap1\n      tag_274\n      jump\t// in\n    tag_273:\n      mload(0x40)\n      dup1\n      swap2\n      sub\n      swap1\n      revert\n    tag_272:\n        /* \"worldcup/DreamChallenge.sol\":2118:2120  36 */\n      0x24\n        /* \"worldcup/DreamChallenge.sol\":2102:2114  _tokenIdLeft */\n      dup3\n        /* \"worldcup/DreamChallenge.sol\":2102:2120  _tokenIdLeft <= 36 */\n      gt\n      iszero\n        /* \"worldcup/DreamChallenge.sol\":2102:2143  _tokenIdLeft <= 36 && _tokenIdRight <= 36 */\n      dup1\n      iszero\n      tag_275\n      jumpi\n      pop\n        /* \"worldcup/DreamChallenge.sol\":2141:2143  36 */\n      0x24\n        /* \"worldcup/DreamChallenge.sol\":2124:2137  _tokenIdRight */\n      dup2\n        /* \"worldcup/DreamChallenge.sol\":2124:2143  _tokenIdRight <= 36 */\n      gt\n      iszero\n        /* \"worldcup/DreamChallenge.sol\":2102:2143  _tokenIdLeft <= 36 && _tokenIdRight <= 36 */\n    tag_275:\n        /* \"worldcup/DreamChallenge.sol\":2094:2174  require(_tokenIdLeft <= 36 && _tokenIdRight <= 36, \"Token id must less than 37\") */\n      tag_276\n      jumpi\n      mload(0x40)\n      0x08c379a000000000000000000000000000000000000000000000000000000000\n      dup2\n      mstore\n      0x04\n      add\n      tag_277\n      swap1\n      tag_278\n      jump\t// in\n    tag_277:\n      mload(0x40)\n      dup1\n      swap2\n      sub\n      swap1\n      revert\n    tag_276:\n        /* \"worldcup/DreamChallenge.sol\":2185:2200  challengeIdInex */\n      0x03\n      0x14\n        /* \"worldcup/DreamChallenge.sol\":2185:2202  challengeIdInex++ */\n      dup2\n      dup2\n      swap1\n      sload\n      swap1\n      0x0100\n      exp\n      swap1\n      div\n      0xffff\n      and\n      dup1\n      swap3\n      swap2\n      swap1\n      tag_279\n      swap1\n      tag_280\n      jump\t// in\n    tag_279:\n      swap2\n      swap1\n      0x0100\n      exp\n      dup2\n      sload\n      dup2\n      0xffff\n      mul\n      not\n      and\n      swap1\n      dup4\n      0xffff\n      and\n      mul\n      or\n      swap1\n      sstore\n      pop\n      pop\n        /* \"worldcup/DreamChallenge.sol\":2243:2477  Challenge(... */\n      mload(0x40)\n      dup1\n      0x0140\n      add\n      0x40\n      mstore\n      dup1\n        /* \"worldcup/DreamChallenge.sol\":2267:2273  _ctype */\n      dup7\n        /* \"worldcup/DreamChallenge.sol\":2243:2477  Challenge(... */\n      0x01\n      dup2\n      gt\n      iszero\n      tag_281\n      jumpi\n      tag_282\n      tag_132\n      jump\t// in\n    tag_282:\n    tag_281:\n      dup2\n      mstore\n      0x20\n      add\n        /* \"worldcup/DreamChallenge.sol\":2288:2303  challengeIdInex */\n      0x03\n      0x14\n      swap1\n      sload\n      swap1\n      0x0100\n      exp\n      swap1\n      div\n      0xffff\n      and\n        /* \"worldcup/DreamChallenge.sol\":2243:2477  Challenge(... */\n      0xffff\n      and\n      dup2\n      mstore\n      0x20\n      add\n        /* \"worldcup/DreamChallenge.sol\":2318:2326  _startAt */\n      dup6\n        /* \"worldcup/DreamChallenge.sol\":2243:2477  Challenge(... */\n      dup2\n      mstore\n      0x20\n      add\n        /* \"worldcup/DreamChallenge.sol\":2341:2347  _endAt */\n      dup5\n        /* \"worldcup/DreamChallenge.sol\":2243:2477  Challenge(... */\n      dup2\n      mstore\n      0x20\n      add\n        /* \"worldcup/DreamChallenge.sol\":2362:2363  0 */\n      0x00\n        /* \"worldcup/DreamChallenge.sol\":2243:2477  Challenge(... */\n      dup2\n      mstore\n      0x20\n      add\n        /* \"worldcup/DreamChallenge.sol\":2378:2390  _tokenIdLeft */\n      dup4\n        /* \"worldcup/DreamChallenge.sol\":2243:2477  Challenge(... */\n      dup2\n      mstore\n      0x20\n      add\n        /* \"worldcup/DreamChallenge.sol\":2405:2418  _tokenIdRight */\n      dup3\n        /* \"worldcup/DreamChallenge.sol\":2243:2477  Challenge(... */\n      dup2\n      mstore\n      0x20\n      add\n        /* \"worldcup/DreamChallenge.sol\":2433:2434  0 */\n      0x00\n        /* \"worldcup/DreamChallenge.sol\":2243:2477  Challenge(... */\n      dup2\n      mstore\n      0x20\n      add\n        /* \"worldcup/DreamChallenge.sol\":2449:2450  0 */\n      0x00\n        /* \"worldcup/DreamChallenge.sol\":2243:2477  Challenge(... */\n      dup2\n      mstore\n      0x20\n      add\n        /* \"worldcup/DreamChallenge.sol\":2465:2466  0 */\n      0x00\n        /* \"worldcup/DreamChallenge.sol\":2243:2477  Challenge(... */\n      dup2\n      mstore\n      pop\n        /* \"worldcup/DreamChallenge.sol\":2213:2223  challenges */\n      0x05\n        /* \"worldcup/DreamChallenge.sol\":2213:2240  challenges[challengeIdInex] */\n      0x00\n        /* \"worldcup/DreamChallenge.sol\":2224:2239  challengeIdInex */\n      0x03\n      0x14\n      swap1\n      sload\n      swap1\n      0x0100\n      exp\n      swap1\n      div\n      0xffff\n      and\n        /* \"worldcup/DreamChallenge.sol\":2213:2240  challenges[challengeIdInex] */\n      0xffff\n      and\n      0xffff\n      and\n      dup2\n      mstore\n      0x20\n      add\n      swap1\n      dup2\n      mstore\n      0x20\n      add\n      0x00\n      keccak256\n        /* \"worldcup/DreamChallenge.sol\":2213:2477  challenges[challengeIdInex] = Challenge(... */\n      0x00\n      dup3\n      add\n      mload\n      dup2\n      0x00\n      add\n      exp(0x0100, 0x00)\n      dup2\n      sload\n      dup2\n      0xff\n      mul\n      not\n      and\n      swap1\n      dup4\n      0x01\n      dup2\n      gt\n      iszero\n      tag_283\n      jumpi\n      tag_284\n      tag_132\n      jump\t// in\n    tag_284:\n    tag_283:\n      mul\n      or\n      swap1\n      sstore\n      pop\n      0x20\n      dup3\n      add\n      mload\n      dup2\n      0x00\n      add\n      exp(0x0100, 0x01)\n      dup2\n      sload\n      dup2\n      0xffff\n      mul\n      not\n      and\n      swap1\n      dup4\n      0xffff\n      and\n      mul\n      or\n      swap1\n      sstore\n      pop\n      0x40\n      dup3\n      add\n      mload\n      dup2\n      0x01\n      add\n      sstore\n      0x60\n      dup3\n      add\n      mload\n      dup2\n      0x02\n      add\n      sstore\n      0x80\n      dup3\n      add\n      mload\n      dup2\n      0x03\n      add\n      sstore\n      0xa0\n      dup3\n      add\n      mload\n      dup2\n      0x04\n      add\n      sstore\n      0xc0\n      dup3\n      add\n      mload\n      dup2\n      0x05\n      add\n      sstore\n      0xe0\n      dup3\n      add\n      mload\n      dup2\n      0x06\n      add\n      sstore\n      0x0100\n      dup3\n      add\n      mload\n      dup2\n      0x07\n      add\n      sstore\n      0x0120\n      dup3\n      add\n      mload\n      dup2\n      0x08\n      add\n      sstore\n      swap1\n      pop\n      pop\n        /* \"worldcup/DreamChallenge.sol\":1851:2485  function addChallenge(Ctype _ctype, uint256 _startAt, uint256 _endAt,... */\n      pop\n      pop\n      pop\n      pop\n      pop\n      jump\t// out\n        /* \"worldcup/DreamChallenge.sol\":660:697  uint256 public nftCost = 1 * 10 ** 18 */\n    tag_103:\n      sload(0x04)\n      dup2\n      jump\t// out\n        /* \"https://github.com/OpenZeppelin/openzeppelin-contracts/blob/master/contracts/token/ERC1155/utils/ERC1155Holder.sol\":499:718  function onERC1155Received(... */\n    tag_108:\n        /* \"https://github.com/OpenZeppelin/openzeppelin-contracts/blob/master/contracts/token/ERC1155/utils/ERC1155Holder.sol\":655:661  bytes4 */\n      0x00\n        /* \"https://github.com/OpenZeppelin/openzeppelin-contracts/blob/master/contracts/token/ERC1155/utils/ERC1155Holder.sol\":680:711  this.onERC1155Received.selector */\n      shl(0xe0, 0xf23a6e61)\n        /* \"https://github.com/OpenZeppelin/openzeppelin-contracts/blob/master/contracts/token/ERC1155/utils/ERC1155Holder.sol\":673:711  return this.onERC1155Received.selector */\n      swap1\n      pop\n        /* \"https://github.com/OpenZeppelin/openzeppelin-contracts/blob/master/contracts/token/ERC1155/utils/ERC1155Holder.sol\":499:718  function onERC1155Received(... */\n      swap6\n      swap5\n      pop\n      pop\n      pop\n      pop\n      pop\n      jump\t// out\n        /* \"worldcup/Adminable.sol\":1236:1437  function transferOwnership(address newOwner) public virtual onlyOwner {... */\n    tag_112:\n        /* \"worldcup/Adminable.sol\":704:716  _msgSender() */\n      tag_287\n        /* \"worldcup/Adminable.sol\":704:714  _msgSender */\n      tag_155\n        /* \"worldcup/Adminable.sol\":704:716  _msgSender() */\n      jump\t// in\n    tag_287:\n        /* \"worldcup/Adminable.sol\":693:716  owner() == _msgSender() */\n      0xffffffffffffffffffffffffffffffffffffffff\n      and\n        /* \"worldcup/Adminable.sol\":693:700  owner() */\n      tag_288\n        /* \"worldcup/Adminable.sol\":693:698  owner */\n      tag_86\n        /* \"worldcup/Adminable.sol\":693:700  owner() */\n      jump\t// in\n    tag_288:\n        /* \"worldcup/Adminable.sol\":693:716  owner() == _msgSender() */\n      0xffffffffffffffffffffffffffffffffffffffff\n      and\n      eq\n        /* \"worldcup/Adminable.sol\":685:755  require(owner() == _msgSender(), \"Adminable: caller is not the owner\") */\n      tag_289\n      jumpi\n      mload(0x40)\n      0x08c379a000000000000000000000000000000000000000000000000000000000\n      dup2\n      mstore\n      0x04\n      add\n      tag_290\n      swap1\n      tag_159\n      jump\t// in\n    tag_290:\n      mload(0x40)\n      dup1\n      swap2\n      sub\n      swap1\n      revert\n    tag_289:\n        /* \"worldcup/Adminable.sol\":1345:1346  0 */\n      0x00\n        /* \"worldcup/Adminable.sol\":1325:1347  newOwner != address(0) */\n      0xffffffffffffffffffffffffffffffffffffffff\n      and\n        /* \"worldcup/Adminable.sol\":1325:1333  newOwner */\n      dup2\n        /* \"worldcup/Adminable.sol\":1325:1347  newOwner != address(0) */\n      0xffffffffffffffffffffffffffffffffffffffff\n      and\n      sub\n        /* \"worldcup/Adminable.sol\":1317:1390  require(newOwner != address(0), \"Ownable: new owner is the zero address\") */\n      tag_292\n      jumpi\n      mload(0x40)\n      0x08c379a000000000000000000000000000000000000000000000000000000000\n      dup2\n      mstore\n      0x04\n      add\n      tag_293\n      swap1\n      tag_294\n      jump\t// in\n    tag_293:\n      mload(0x40)\n      dup1\n      swap2\n      sub\n      swap1\n      revert\n    tag_292:\n        /* \"worldcup/Adminable.sol\":1401:1429  _transferOwnership(newOwner) */\n      tag_295\n        /* \"worldcup/Adminable.sol\":1420:1428  newOwner */\n      dup2\n        /* \"worldcup/Adminable.sol\":1401:1419  _transferOwnership */\n      tag_227\n        /* \"worldcup/Adminable.sol\":1401:1429  _transferOwnership(newOwner) */\n      jump\t// in\n    tag_295:\n        /* \"worldcup/Adminable.sol\":1236:1437  function transferOwnership(address newOwner) public virtual onlyOwner {... */\n      pop\n      jump\t// out\n        /* \"worldcup/DreamChallenge.sol\":5276:5365  function setNftCost(uint256 _amount) public onlyOwner{... */\n    tag_116:\n        /* \"worldcup/Adminable.sol\":704:716  _msgSender() */\n      tag_297\n        /* \"worldcup/Adminable.sol\":704:714  _msgSender */\n      tag_155\n        /* \"worldcup/Adminable.sol\":704:716  _msgSender() */\n      jump\t// in\n    tag_297:\n        /* \"worldcup/Adminable.sol\":693:716  owner() == _msgSender() */\n      0xffffffffffffffffffffffffffffffffffffffff\n      and\n        /* \"worldcup/Adminable.sol\":693:700  owner() */\n      tag_298\n        /* \"worldcup/Adminable.sol\":693:698  owner */\n      tag_86\n        /* \"worldcup/Adminable.sol\":693:700  owner() */\n      jump\t// in\n    tag_298:\n        /* \"worldcup/Adminable.sol\":693:716  owner() == _msgSender() */\n      0xffffffffffffffffffffffffffffffffffffffff\n      and\n      eq\n        /* \"worldcup/Adminable.sol\":685:755  require(owner() == _msgSender(), \"Adminable: caller is not the owner\") */\n      tag_299\n      jumpi\n      mload(0x40)\n      0x08c379a000000000000000000000000000000000000000000000000000000000\n      dup2\n      mstore\n      0x04\n      add\n      tag_300\n      swap1\n      tag_159\n      jump\t// in\n    tag_300:\n      mload(0x40)\n      dup1\n      swap2\n      sub\n      swap1\n      revert\n    tag_299:\n        /* \"worldcup/DreamChallenge.sol\":5350:5357  _amount */\n      dup1\n        /* \"worldcup/DreamChallenge.sol\":5340:5347  nftCost */\n      0x04\n        /* \"worldcup/DreamChallenge.sol\":5340:5357  nftCost = _amount */\n      dup2\n      swap1\n      sstore\n      pop\n        /* \"worldcup/DreamChallenge.sol\":5276:5365  function setNftCost(uint256 _amount) public onlyOwner{... */\n      pop\n      jump\t// out\n        /* \"worldcup/DreamChallenge.sol\":587:613  address public rewardToken */\n    tag_118:\n      0x03\n      0x00\n      swap1\n      sload\n      swap1\n      0x0100\n      exp\n      swap1\n      div\n      0xffffffffffffffffffffffffffffffffffffffff\n      and\n      dup2\n      jump\t// out\n        /* \"worldcup/DreamChallenge.sol\":620:653  uint16 public challengeIdInex = 1 */\n    tag_121:\n      0x03\n      0x14\n      swap1\n      sload\n      swap1\n      0x0100\n      exp\n      swap1\n      div\n      0xffff\n      and\n      dup2\n      jump\t// out\n        /* \"https://github.com/OpenZeppelin/openzeppelin-contracts/blob/master/contracts/utils/introspection/ERC165.sol\":829:984  function supportsInterface(bytes4 interfaceId) public view virtual override returns (bool) {... */\n    tag_127:\n        /* \"https://github.com/OpenZeppelin/openzeppelin-contracts/blob/master/contracts/utils/introspection/ERC165.sol\":914:918  bool */\n      0x00\n        /* \"https://github.com/OpenZeppelin/openzeppelin-contracts/blob/master/contracts/utils/introspection/ERC165.sol\":952:977  type(IERC165).interfaceId */\n      0x01ffc9a700000000000000000000000000000000000000000000000000000000\n        /* \"https://github.com/OpenZeppelin/openzeppelin-contracts/blob/master/contracts/utils/introspection/ERC165.sol\":937:977  interfaceId == type(IERC165).interfaceId */\n      not(0xffffffffffffffffffffffffffffffffffffffffffffffffffffffff)\n      and\n        /* \"https://github.com/OpenZeppelin/openzeppelin-contracts/blob/master/contracts/utils/introspection/ERC165.sol\":937:948  interfaceId */\n      dup3\n        /* \"https://github.com/OpenZeppelin/openzeppelin-contracts/blob/master/contracts/utils/introspection/ERC165.sol\":937:977  interfaceId == type(IERC165).interfaceId */\n      not(0xffffffffffffffffffffffffffffffffffffffffffffffffffffffff)\n      and\n      eq\n        /* \"https://github.com/OpenZeppelin/openzeppelin-contracts/blob/master/contracts/utils/introspection/ERC165.sol\":930:977  return interfaceId == type(IERC165).interfaceId */\n      swap1\n      pop\n        /* \"https://github.com/OpenZeppelin/openzeppelin-contracts/blob/master/contracts/utils/introspection/ERC165.sol\":829:984  function supportsInterface(bytes4 interfaceId) public view virtual override returns (bool) {... */\n      swap2\n      swap1\n      pop\n      jump\t// out\n        /* \"worldcup/Adminable.sol\":64:162  function _msgSender() internal view virtual returns (address) {... */\n    tag_155:\n        /* \"worldcup/Adminable.sol\":117:124  address */\n      0x00\n        /* \"worldcup/Adminable.sol\":144:154  msg.sender */\n      caller\n        /* \"worldcup/Adminable.sol\":137:154  return msg.sender */\n      swap1\n      pop\n        /* \"worldcup/Adminable.sol\":64:162  function _msgSender() internal view virtual returns (address) {... */\n      swap1\n      jump\t// out\n        /* \"worldcup/Adminable.sol\":1445:1636  function _transferOwnership(address newOwner) internal virtual {... */\n    tag_227:\n        /* \"worldcup/Adminable.sol\":1519:1535  address oldOwner */\n      0x00\n        /* \"worldcup/Adminable.sol\":1538:1544  _owner */\n      0x01\n      0x00\n      swap1\n      sload\n      swap1\n      0x0100\n      exp\n      swap1\n      div\n      0xffffffffffffffffffffffffffffffffffffffff\n      and\n        /* \"worldcup/Adminable.sol\":1519:1544  address oldOwner = _owner */\n      swap1\n      pop\n        /* \"worldcup/Adminable.sol\":1564:1572  newOwner */\n      dup2\n        /* \"worldcup/Adminable.sol\":1555:1561  _owner */\n      0x01\n      0x00\n        /* \"worldcup/Adminable.sol\":1555:1572  _owner = newOwner */\n      0x0100\n      exp\n      dup2\n      sload\n      dup2\n      0xffffffffffffffffffffffffffffffffffffffff\n      mul\n      not\n      and\n      swap1\n      dup4\n      0xffffffffffffffffffffffffffffffffffffffff\n      and\n      mul\n      or\n      swap1\n      sstore\n      pop\n        /* \"worldcup/Adminable.sol\":1619:1627  newOwner */\n      dup2\n        /* \"worldcup/Adminable.sol\":1588:1628  OwnershipTransferred(oldOwner, newOwner) */\n      0xffffffffffffffffffffffffffffffffffffffff\n      and\n        /* \"worldcup/Adminable.sol\":1609:1617  oldOwner */\n      dup2\n        /* \"worldcup/Adminable.sol\":1588:1628  OwnershipTransferred(oldOwner, newOwner) */\n      0xffffffffffffffffffffffffffffffffffffffff\n      and\n      0x8be0079c531659141344cd1fd0a4f28419497f9722a3daafe3b4186f6b6457e0\n      mload(0x40)\n      mload(0x40)\n      dup1\n      swap2\n      sub\n      swap1\n      log3\n        /* \"worldcup/Adminable.sol\":1508:1636  {... */\n      pop\n        /* \"worldcup/Adminable.sol\":1445:1636  function _transferOwnership(address newOwner) internal virtual {... */\n      pop\n      jump\t// out\n    tag_229:\n      mload(0x40)\n      dup1\n      0x80\n      add\n      0x40\n      mstore\n      dup1\n      and(0xffff, 0x00)\n      dup2\n      mstore\n      0x20\n      add\n      0x00\n      dup2\n      mstore\n      0x20\n      add\n      0x00\n      dup2\n      mstore\n      0x20\n      add\n      iszero(iszero(0x00))\n      dup2\n      mstore\n      pop\n      swap1\n      jump\t// out\n    tag_232:\n      mload(0x40)\n      dup1\n      0x0140\n      add\n      0x40\n      mstore\n      dup1\n      0x00\n      0x01\n      dup2\n      gt\n      iszero\n      tag_305\n      jumpi\n      tag_306\n      tag_132\n      jump\t// in\n    tag_306:\n    tag_305:\n      dup2\n      mstore\n      0x20\n      add\n      and(0xffff, 0x00)\n      dup2\n      mstore\n      0x20\n      add\n      0x00\n      dup2\n      mstore\n      0x20\n      add\n      0x00\n      dup2\n      mstore\n      0x20\n      add\n      0x00\n      dup2\n      mstore\n      0x20\n      add\n      0x00\n      dup2\n      mstore\n      0x20\n      add\n      0x00\n      dup2\n      mstore\n      0x20\n      add\n      0x00\n      dup2\n      mstore\n      0x20\n      add\n      0x00\n      dup2\n      mstore\n      0x20\n      add\n      0x00\n      dup2\n      mstore\n      pop\n      swap1\n      jump\t// out\n        /* \"#utility.yul\":7:82   */\n    tag_307:\n        /* \"#utility.yul\":40:46   */\n      0x00\n        /* \"#utility.yul\":73:75   */\n      0x40\n        /* \"#utility.yul\":67:76   */\n      mload\n        /* \"#utility.yul\":57:76   */\n      swap1\n      pop\n        /* \"#utility.yul\":7:82   */\n      swap1\n      jump\t// out\n        /* \"#utility.yul\":88:205   */\n    tag_308:\n        /* \"#utility.yul\":197:198   */\n      0x00\n        /* \"#utility.yul\":194:195   */\n      dup1\n        /* \"#utility.yul\":187:199   */\n      revert\n        /* \"#utility.yul\":211:328   */\n    tag_309:\n        /* \"#utility.yul\":320:321   */\n      0x00\n        /* \"#utility.yul\":317:318   */\n      dup1\n        /* \"#utility.yul\":310:322   */\n      revert\n        /* \"#utility.yul\":334:483   */\n    tag_310:\n        /* \"#utility.yul\":370:377   */\n      0x00\n        /* \"#utility.yul\":410:476   */\n      0xffffffff00000000000000000000000000000000000000000000000000000000\n        /* \"#utility.yul\":403:408   */\n      dup3\n        /* \"#utility.yul\":399:477   */\n      and\n        /* \"#utility.yul\":388:477   */\n      swap1\n      pop\n        /* \"#utility.yul\":334:483   */\n      swap2\n      swap1\n      pop\n      jump\t// out\n        /* \"#utility.yul\":489:609   */\n    tag_311:\n        /* \"#utility.yul\":561:584   */\n      tag_401\n        /* \"#utility.yul\":578:583   */\n      dup2\n        /* \"#utility.yul\":561:584   */\n      tag_310\n      jump\t// in\n    tag_401:\n        /* \"#utility.yul\":554:559   */\n      dup2\n        /* \"#utility.yul\":551:585   */\n      eq\n        /* \"#utility.yul\":541:603   */\n      tag_402\n      jumpi\n        /* \"#utility.yul\":599:600   */\n      0x00\n        /* \"#utility.yul\":596:597   */\n      dup1\n        /* \"#utility.yul\":589:601   */\n      revert\n        /* \"#utility.yul\":541:603   */\n    tag_402:\n        /* \"#utility.yul\":489:609   */\n      pop\n      jump\t// out\n        /* \"#utility.yul\":615:752   */\n    tag_312:\n        /* \"#utility.yul\":660:665   */\n      0x00\n        /* \"#utility.yul\":698:704   */\n      dup2\n        /* \"#utility.yul\":685:705   */\n      calldataload\n        /* \"#utility.yul\":676:705   */\n      swap1\n      pop\n        /* \"#utility.yul\":714:746   */\n      tag_404\n        /* \"#utility.yul\":740:745   */\n      dup2\n        /* \"#utility.yul\":714:746   */\n      tag_311\n      jump\t// in\n    tag_404:\n        /* \"#utility.yul\":615:752   */\n      swap3\n      swap2\n      pop\n      pop\n      jump\t// out\n        /* \"#utility.yul\":758:1085   */\n    tag_31:\n        /* \"#utility.yul\":816:822   */\n      0x00\n        /* \"#utility.yul\":865:867   */\n      0x20\n        /* \"#utility.yul\":853:862   */\n      dup3\n        /* \"#utility.yul\":844:851   */\n      dup5\n        /* \"#utility.yul\":840:863   */\n      sub\n        /* \"#utility.yul\":836:868   */\n      slt\n        /* \"#utility.yul\":833:952   */\n      iszero\n      tag_406\n      jumpi\n        /* \"#utility.yul\":871:950   */\n      tag_407\n      tag_308\n      jump\t// in\n    tag_407:\n        /* \"#utility.yul\":833:952   */\n    tag_406:\n        /* \"#utility.yul\":991:992   */\n      0x00\n        /* \"#utility.yul\":1016:1068   */\n      tag_408\n        /* \"#utility.yul\":1060:1067   */\n      dup5\n        /* \"#utility.yul\":1051:1057   */\n      dup3\n        /* \"#utility.yul\":1040:1049   */\n      dup6\n        /* \"#utility.yul\":1036:1058   */\n      add\n        /* \"#utility.yul\":1016:1068   */\n      tag_312\n      jump\t// in\n    tag_408:\n        /* \"#utility.yul\":1006:1068   */\n      swap2\n      pop\n        /* \"#utility.yul\":962:1078   */\n      pop\n        /* \"#utility.yul\":758:1085   */\n      swap3\n      swap2\n      pop\n      pop\n      jump\t// out\n        /* \"#utility.yul\":1091:1181   */\n    tag_313:\n        /* \"#utility.yul\":1125:1132   */\n      0x00\n        /* \"#utility.yul\":1168:1173   */\n      dup2\n        /* \"#utility.yul\":1161:1174   */\n      iszero\n        /* \"#utility.yul\":1154:1175   */\n      iszero\n        /* \"#utility.yul\":1143:1175   */\n      swap1\n      pop\n        /* \"#utility.yul\":1091:1181   */\n      swap2\n      swap1\n      pop\n      jump\t// out\n        /* \"#utility.yul\":1187:1296   */\n    tag_314:\n        /* \"#utility.yul\":1268:1289   */\n      tag_411\n        /* \"#utility.yul\":1283:1288   */\n      dup2\n        /* \"#utility.yul\":1268:1289   */\n      tag_313\n      jump\t// in\n    tag_411:\n        /* \"#utility.yul\":1263:1266   */\n      dup3\n        /* \"#utility.yul\":1256:1290   */\n      mstore\n        /* \"#utility.yul\":1187:1296   */\n      pop\n      pop\n      jump\t// out\n        /* \"#utility.yul\":1302:1512   */\n    tag_34:\n        /* \"#utility.yul\":1389:1393   */\n      0x00\n        /* \"#utility.yul\":1427:1429   */\n      0x20\n        /* \"#utility.yul\":1416:1425   */\n      dup3\n        /* \"#utility.yul\":1412:1430   */\n      add\n        /* \"#utility.yul\":1404:1430   */\n      swap1\n      pop\n        /* \"#utility.yul\":1440:1505   */\n      tag_413\n        /* \"#utility.yul\":1502:1503   */\n      0x00\n        /* \"#utility.yul\":1491:1500   */\n      dup4\n        /* \"#utility.yul\":1487:1504   */\n      add\n        /* \"#utility.yul\":1478:1484   */\n      dup5\n        /* \"#utility.yul\":1440:1505   */\n      tag_314\n      jump\t// in\n    tag_413:\n        /* \"#utility.yul\":1302:1512   */\n      swap3\n      swap2\n      pop\n      pop\n      jump\t// out\n        /* \"#utility.yul\":1518:1607   */\n    tag_315:\n        /* \"#utility.yul\":1554:1561   */\n      0x00\n        /* \"#utility.yul\":1594:1600   */\n      0xffff\n        /* \"#utility.yul\":1587:1592   */\n      dup3\n        /* \"#utility.yul\":1583:1601   */\n      and\n        /* \"#utility.yul\":1572:1601   */\n      swap1\n      pop\n        /* \"#utility.yul\":1518:1607   */\n      swap2\n      swap1\n      pop\n      jump\t// out\n        /* \"#utility.yul\":1613:1733   */\n    tag_316:\n        /* \"#utility.yul\":1685:1708   */\n      tag_416\n        /* \"#utility.yul\":1702:1707   */\n      dup2\n        /* \"#utility.yul\":1685:1708   */\n      tag_315\n      jump\t// in\n    tag_416:\n        /* \"#utility.yul\":1678:1683   */\n      dup2\n        /* \"#utility.yul\":1675:1709   */\n      eq\n        /* \"#utility.yul\":1665:1727   */\n      tag_417\n      jumpi\n        /* \"#utility.yul\":1723:1724   */\n      0x00\n        /* \"#utility.yul\":1720:1721   */\n      dup1\n        /* \"#utility.yul\":1713:1725   */\n      revert\n        /* \"#utility.yul\":1665:1727   */\n    tag_417:\n        /* \"#utility.yul\":1613:1733   */\n      pop\n      jump\t// out\n        /* \"#utility.yul\":1739:1876   */\n    tag_317:\n        /* \"#utility.yul\":1784:1789   */\n      0x00\n        /* \"#utility.yul\":1822:1828   */\n      dup2\n        /* \"#utility.yul\":1809:1829   */\n      calldataload\n        /* \"#utility.yul\":1800:1829   */\n      swap1\n      pop\n        /* \"#utility.yul\":1838:1870   */\n      tag_419\n        /* \"#utility.yul\":1864:1869   */\n      dup2\n        /* \"#utility.yul\":1838:1870   */\n      tag_316\n      jump\t// in\n    tag_419:\n        /* \"#utility.yul\":1739:1876   */\n      swap3\n      swap2\n      pop\n      pop\n      jump\t// out\n        /* \"#utility.yul\":1882:2209   */\n    tag_37:\n        /* \"#utility.yul\":1940:1946   */\n      0x00\n        /* \"#utility.yul\":1989:1991   */\n      0x20\n        /* \"#utility.yul\":1977:1986   */\n      dup3\n        /* \"#utility.yul\":1968:1975   */\n      dup5\n        /* \"#utility.yul\":1964:1987   */\n      sub\n        /* \"#utility.yul\":1960:1992   */\n      slt\n        /* \"#utility.yul\":1957:2076   */\n      iszero\n      tag_421\n      jumpi\n        /* \"#utility.yul\":1995:2074   */\n      tag_422\n      tag_308\n      jump\t// in\n    tag_422:\n        /* \"#utility.yul\":1957:2076   */\n    tag_421:\n        /* \"#utility.yul\":2115:2116   */\n      0x00\n        /* \"#utility.yul\":2140:2192   */\n      tag_423\n        /* \"#utility.yul\":2184:2191   */\n      dup5\n        /* \"#utility.yul\":2175:2181   */\n      dup3\n        /* \"#utility.yul\":2164:2173   */\n      dup6\n        /* \"#utility.yul\":2160:2182   */\n      add\n        /* \"#utility.yul\":2140:2192   */\n      tag_317\n      jump\t// in\n    tag_423:\n        /* \"#utility.yul\":2130:2192   */\n      swap2\n      pop\n        /* \"#utility.yul\":2086:2202   */\n      pop\n        /* \"#utility.yul\":1882:2209   */\n      swap3\n      swap2\n      pop\n      pop\n      jump\t// out\n        /* \"#utility.yul\":2215:2341   */\n    tag_318:\n        /* \"#utility.yul\":2252:2259   */\n      0x00\n        /* \"#utility.yul\":2292:2334   */\n      0xffffffffffffffffffffffffffffffffffffffff\n        /* \"#utility.yul\":2285:2290   */\n      dup3\n        /* \"#utility.yul\":2281:2335   */\n      and\n        /* \"#utility.yul\":2270:2335   */\n      swap1\n      pop\n        /* \"#utility.yul\":2215:2341   */\n      swap2\n      swap1\n      pop\n      jump\t// out\n        /* \"#utility.yul\":2347:2443   */\n    tag_319:\n        /* \"#utility.yul\":2384:2391   */\n      0x00\n        /* \"#utility.yul\":2413:2437   */\n      tag_426\n        /* \"#utility.yul\":2431:2436   */\n      dup3\n        /* \"#utility.yul\":2413:2437   */\n      tag_318\n      jump\t// in\n    tag_426:\n        /* \"#utility.yul\":2402:2437   */\n      swap1\n      pop\n        /* \"#utility.yul\":2347:2443   */\n      swap2\n      swap1\n      pop\n      jump\t// out\n        /* \"#utility.yul\":2449:2571   */\n    tag_320:\n        /* \"#utility.yul\":2522:2546   */\n      tag_428\n        /* \"#utility.yul\":2540:2545   */\n      dup2\n        /* \"#utility.yul\":2522:2546   */\n      tag_319\n      jump\t// in\n    tag_428:\n        /* \"#utility.yul\":2515:2520   */\n      dup2\n        /* \"#utility.yul\":2512:2547   */\n      eq\n        /* \"#utility.yul\":2502:2565   */\n      tag_429\n      jumpi\n        /* \"#utility.yul\":2561:2562   */\n      0x00\n        /* \"#utility.yul\":2558:2559   */\n      dup1\n        /* \"#utility.yul\":2551:2563   */\n      revert\n        /* \"#utility.yul\":2502:2565   */\n    tag_429:\n        /* \"#utility.yul\":2449:2571   */\n      pop\n      jump\t// out\n        /* \"#utility.yul\":2577:2716   */\n    tag_321:\n        /* \"#utility.yul\":2623:2628   */\n      0x00\n        /* \"#utility.yul\":2661:2667   */\n      dup2\n        /* \"#utility.yul\":2648:2668   */\n      calldataload\n        /* \"#utility.yul\":2639:2668   */\n      swap1\n      pop\n        /* \"#utility.yul\":2677:2710   */\n      tag_431\n        /* \"#utility.yul\":2704:2709   */\n      dup2\n        /* \"#utility.yul\":2677:2710   */\n      tag_320\n      jump\t// in\n    tag_431:\n        /* \"#utility.yul\":2577:2716   */\n      swap3\n      swap2\n      pop\n      pop\n      jump\t// out\n        /* \"#utility.yul\":2722:3051   */\n    tag_41:\n        /* \"#utility.yul\":2781:2787   */\n      0x00\n        /* \"#utility.yul\":2830:2832   */\n      0x20\n        /* \"#utility.yul\":2818:2827   */\n      dup3\n        /* \"#utility.yul\":2809:2816   */\n      dup5\n        /* \"#utility.yul\":2805:2828   */\n      sub\n        /* \"#utility.yul\":2801:2833   */\n      slt\n        /* \"#utility.yul\":2798:2917   */\n      iszero\n      tag_433\n      jumpi\n        /* \"#utility.yul\":2836:2915   */\n      tag_434\n      tag_308\n      jump\t// in\n    tag_434:\n        /* \"#utility.yul\":2798:2917   */\n    tag_433:\n        /* \"#utility.yul\":2956:2957   */\n      0x00\n        /* \"#utility.yul\":2981:3034   */\n      tag_435\n        /* \"#utility.yul\":3026:3033   */\n      dup5\n        /* \"#utility.yul\":3017:3023   */\n      dup3\n        /* \"#utility.yul\":3006:3015   */\n      dup6\n        /* \"#utility.yul\":3002:3024   */\n      add\n        /* \"#utility.yul\":2981:3034   */\n      tag_321\n      jump\t// in\n    tag_435:\n        /* \"#utility.yul\":2971:3034   */\n      swap2\n      pop\n        /* \"#utility.yul\":2927:3044   */\n      pop\n        /* \"#utility.yul\":2722:3051   */\n      swap3\n      swap2\n      pop\n      pop\n      jump\t// out\n        /* \"#utility.yul\":3057:3170   */\n    tag_322:\n        /* \"#utility.yul\":3123:3129   */\n      0x00\n        /* \"#utility.yul\":3157:3162   */\n      dup2\n        /* \"#utility.yul\":3151:3163   */\n      mload\n        /* \"#utility.yul\":3141:3163   */\n      swap1\n      pop\n        /* \"#utility.yul\":3057:3170   */\n      swap2\n      swap1\n      pop\n      jump\t// out\n        /* \"#utility.yul\":3176:3359   */\n    tag_323:\n        /* \"#utility.yul\":3274:3285   */\n      0x00\n        /* \"#utility.yul\":3308:3314   */\n      dup3\n        /* \"#utility.yul\":3303:3306   */\n      dup3\n        /* \"#utility.yul\":3296:3315   */\n      mstore\n        /* \"#utility.yul\":3348:3352   */\n      0x20\n        /* \"#utility.yul\":3343:3346   */\n      dup3\n        /* \"#utility.yul\":3339:3353   */\n      add\n        /* \"#utility.yul\":3324:3353   */\n      swap1\n      pop\n        /* \"#utility.yul\":3176:3359   */\n      swap3\n      swap2\n      pop\n      pop\n      jump\t// out\n        /* \"#utility.yul\":3365:3496   */\n    tag_324:\n        /* \"#utility.yul\":3431:3435   */\n      0x00\n        /* \"#utility.yul\":3454:3457   */\n      dup2\n        /* \"#utility.yul\":3446:3457   */\n      swap1\n      pop\n        /* \"#utility.yul\":3484:3488   */\n      0x20\n        /* \"#utility.yul\":3479:3482   */\n      dup3\n        /* \"#utility.yul\":3475:3489   */\n      add\n        /* \"#utility.yul\":3467:3489   */\n      swap1\n      pop\n        /* \"#utility.yul\":3365:3496   */\n      swap2\n      swap1\n      pop\n      jump\t// out\n        /* \"#utility.yul\":3502:3607   */\n    tag_325:\n        /* \"#utility.yul\":3577:3600   */\n      tag_440\n        /* \"#utility.yul\":3594:3599   */\n      dup2\n        /* \"#utility.yul\":3577:3600   */\n      tag_315\n      jump\t// in\n    tag_440:\n        /* \"#utility.yul\":3572:3575   */\n      dup3\n        /* \"#utility.yul\":3565:3601   */\n      mstore\n        /* \"#utility.yul\":3502:3607   */\n      pop\n      pop\n      jump\t// out\n        /* \"#utility.yul\":3613:3788   */\n    tag_326:\n        /* \"#utility.yul\":3680:3690   */\n      0x00\n        /* \"#utility.yul\":3701:3745   */\n      tag_442\n        /* \"#utility.yul\":3741:3744   */\n      dup4\n        /* \"#utility.yul\":3733:3739   */\n      dup4\n        /* \"#utility.yul\":3701:3745   */\n      tag_325\n      jump\t// in\n    tag_442:\n        /* \"#utility.yul\":3777:3781   */\n      0x20\n        /* \"#utility.yul\":3772:3775   */\n      dup4\n        /* \"#utility.yul\":3768:3782   */\n      add\n        /* \"#utility.yul\":3754:3782   */\n      swap1\n      pop\n        /* \"#utility.yul\":3613:3788   */\n      swap3\n      swap2\n      pop\n      pop\n      jump\t// out\n        /* \"#utility.yul\":3794:3906   */\n    tag_327:\n        /* \"#utility.yul\":3863:3867   */\n      0x00\n        /* \"#utility.yul\":3895:3899   */\n      0x20\n        /* \"#utility.yul\":3890:3893   */\n      dup3\n        /* \"#utility.yul\":3886:3900   */\n      add\n        /* \"#utility.yul\":3878:3900   */\n      swap1\n      pop\n        /* \"#utility.yul\":3794:3906   */\n      swap2\n      swap1\n      pop\n      jump\t// out\n        /* \"#utility.yul\":3940:4664   */\n    tag_328:\n        /* \"#utility.yul\":4057:4060   */\n      0x00\n        /* \"#utility.yul\":4086:4139   */\n      tag_445\n        /* \"#utility.yul\":4133:4138   */\n      dup3\n        /* \"#utility.yul\":4086:4139   */\n      tag_322\n      jump\t// in\n    tag_445:\n        /* \"#utility.yul\":4155:4240   */\n      tag_446\n        /* \"#utility.yul\":4233:4239   */\n      dup2\n        /* \"#utility.yul\":4228:4231   */\n      dup6\n        /* \"#utility.yul\":4155:4240   */\n      tag_323\n      jump\t// in\n    tag_446:\n        /* \"#utility.yul\":4148:4240   */\n      swap4\n      pop\n        /* \"#utility.yul\":4264:4319   */\n      tag_447\n        /* \"#utility.yul\":4313:4318   */\n      dup4\n        /* \"#utility.yul\":4264:4319   */\n      tag_324\n      jump\t// in\n    tag_447:\n        /* \"#utility.yul\":4342:4349   */\n      dup1\n        /* \"#utility.yul\":4373:4374   */\n      0x00\n        /* \"#utility.yul\":4358:4639   */\n    tag_448:\n        /* \"#utility.yul\":4383:4389   */\n      dup4\n        /* \"#utility.yul\":4380:4381   */\n      dup2\n        /* \"#utility.yul\":4377:4390   */\n      lt\n        /* \"#utility.yul\":4358:4639   */\n      iszero\n      tag_450\n      jumpi\n        /* \"#utility.yul\":4459:4465   */\n      dup2\n        /* \"#utility.yul\":4453:4466   */\n      mload\n        /* \"#utility.yul\":4486:4547   */\n      tag_451\n        /* \"#utility.yul\":4543:4546   */\n      dup9\n        /* \"#utility.yul\":4528:4541   */\n      dup3\n        /* \"#utility.yul\":4486:4547   */\n      tag_326\n      jump\t// in\n    tag_451:\n        /* \"#utility.yul\":4479:4547   */\n      swap8\n      pop\n        /* \"#utility.yul\":4570:4629   */\n      tag_452\n        /* \"#utility.yul\":4622:4628   */\n      dup4\n        /* \"#utility.yul\":4570:4629   */\n      tag_327\n      jump\t// in\n    tag_452:\n        /* \"#utility.yul\":4560:4629   */\n      swap3\n      pop\n        /* \"#utility.yul\":4418:4639   */\n      pop\n        /* \"#utility.yul\":4405:4406   */\n      0x01\n        /* \"#utility.yul\":4402:4403   */\n      dup2\n        /* \"#utility.yul\":4398:4407   */\n      add\n        /* \"#utility.yul\":4393:4407   */\n      swap1\n      pop\n        /* \"#utility.yul\":4358:4639   */\n      jump(tag_448)\n    tag_450:\n        /* \"#utility.yul\":4362:4376   */\n      pop\n        /* \"#utility.yul\":4655:4658   */\n      dup6\n        /* \"#utility.yul\":4648:4658   */\n      swap4\n      pop\n        /* \"#utility.yul\":4062:4664   */\n      pop\n      pop\n      pop\n        /* \"#utility.yul\":3940:4664   */\n      swap3\n      swap2\n      pop\n      pop\n      jump\t// out\n        /* \"#utility.yul\":4670:5039   */\n    tag_44:\n        /* \"#utility.yul\":4811:4815   */\n      0x00\n        /* \"#utility.yul\":4849:4851   */\n      0x20\n        /* \"#utility.yul\":4838:4847   */\n      dup3\n        /* \"#utility.yul\":4834:4852   */\n      add\n        /* \"#utility.yul\":4826:4852   */\n      swap1\n      pop\n        /* \"#utility.yul\":4898:4907   */\n      dup2\n        /* \"#utility.yul\":4892:4896   */\n      dup2\n        /* \"#utility.yul\":4888:4908   */\n      sub\n        /* \"#utility.yul\":4884:4885   */\n      0x00\n        /* \"#utility.yul\":4873:4882   */\n      dup4\n        /* \"#utility.yul\":4869:4886   */\n      add\n        /* \"#utility.yul\":4862:4909   */\n      mstore\n        /* \"#utility.yul\":4926:5032   */\n      tag_454\n        /* \"#utility.yul\":5027:5031   */\n      dup2\n        /* \"#utility.yul\":5018:5024   */\n      dup5\n        /* \"#utility.yul\":4926:5032   */\n      tag_328\n      jump\t// in\n    tag_454:\n        /* \"#utility.yul\":4918:5032   */\n      swap1\n      pop\n        /* \"#utility.yul\":4670:5039   */\n      swap3\n      swap2\n      pop\n      pop\n      jump\t// out\n        /* \"#utility.yul\":5045:5161   */\n    tag_329:\n        /* \"#utility.yul\":5115:5136   */\n      tag_456\n        /* \"#utility.yul\":5130:5135   */\n      dup2\n        /* \"#utility.yul\":5115:5136   */\n      tag_313\n      jump\t// in\n    tag_456:\n        /* \"#utility.yul\":5108:5113   */\n      dup2\n        /* \"#utility.yul\":5105:5137   */\n      eq\n        /* \"#utility.yul\":5095:5155   */\n      tag_457\n      jumpi\n        /* \"#utility.yul\":5151:5152   */\n      0x00\n        /* \"#utility.yul\":5148:5149   */\n      dup1\n        /* \"#utility.yul\":5141:5153   */\n      revert\n        /* \"#utility.yul\":5095:5155   */\n    tag_457:\n        /* \"#utility.yul\":5045:5161   */\n      pop\n      jump\t// out\n        /* \"#utility.yul\":5167:5300   */\n    tag_330:\n        /* \"#utility.yul\":5210:5215   */\n      0x00\n        /* \"#utility.yul\":5248:5254   */\n      dup2\n        /* \"#utility.yul\":5235:5255   */\n      calldataload\n        /* \"#utility.yul\":5226:5255   */\n      swap1\n      pop\n        /* \"#utility.yul\":5264:5294   */\n      tag_459\n        /* \"#utility.yul\":5288:5293   */\n      dup2\n        /* \"#utility.yul\":5264:5294   */\n      tag_329\n      jump\t// in\n    tag_459:\n        /* \"#utility.yul\":5167:5300   */\n      swap3\n      swap2\n      pop\n      pop\n      jump\t// out\n        /* \"#utility.yul\":5306:5774   */\n    tag_47:\n        /* \"#utility.yul\":5371:5377   */\n      0x00\n        /* \"#utility.yul\":5379:5385   */\n      dup1\n        /* \"#utility.yul\":5428:5430   */\n      0x40\n        /* \"#utility.yul\":5416:5425   */\n      dup4\n        /* \"#utility.yul\":5407:5414   */\n      dup6\n        /* \"#utility.yul\":5403:5426   */\n      sub\n        /* \"#utility.yul\":5399:5431   */\n      slt\n        /* \"#utility.yul\":5396:5515   */\n      iszero\n      tag_461\n      jumpi\n        /* \"#utility.yul\":5434:5513   */\n      tag_462\n      tag_308\n      jump\t// in\n    tag_462:\n        /* \"#utility.yul\":5396:5515   */\n    tag_461:\n        /* \"#utility.yul\":5554:5555   */\n      0x00\n        /* \"#utility.yul\":5579:5632   */\n      tag_463\n        /* \"#utility.yul\":5624:5631   */\n      dup6\n        /* \"#utility.yul\":5615:5621   */\n      dup3\n        /* \"#utility.yul\":5604:5613   */\n      dup7\n        /* \"#utility.yul\":5600:5622   */\n      add\n        /* \"#utility.yul\":5579:5632   */\n      tag_321\n      jump\t// in\n    tag_463:\n        /* \"#utility.yul\":5569:5632   */\n      swap3\n      pop\n        /* \"#utility.yul\":5525:5642   */\n      pop\n        /* \"#utility.yul\":5681:5683   */\n      0x20\n        /* \"#utility.yul\":5707:5757   */\n      tag_464\n        /* \"#utility.yul\":5749:5756   */\n      dup6\n        /* \"#utility.yul\":5740:5746   */\n      dup3\n        /* \"#utility.yul\":5729:5738   */\n      dup7\n        /* \"#utility.yul\":5725:5747   */\n      add\n        /* \"#utility.yul\":5707:5757   */\n      tag_330\n      jump\t// in\n    tag_464:\n        /* \"#utility.yul\":5697:5757   */\n      swap2\n      pop\n        /* \"#utility.yul\":5652:5767   */\n      pop\n        /* \"#utility.yul\":5306:5774   */\n      swap3\n      pop\n      swap3\n      swap1\n      pop\n      jump\t// out\n        /* \"#utility.yul\":5780:6252   */\n    tag_51:\n        /* \"#utility.yul\":5847:5853   */\n      0x00\n        /* \"#utility.yul\":5855:5861   */\n      dup1\n        /* \"#utility.yul\":5904:5906   */\n      0x40\n        /* \"#utility.yul\":5892:5901   */\n      dup4\n        /* \"#utility.yul\":5883:5890   */\n      dup6\n        /* \"#utility.yul\":5879:5902   */\n      sub\n        /* \"#utility.yul\":5875:5907   */\n      slt\n        /* \"#utility.yul\":5872:5991   */\n      iszero\n      tag_466\n      jumpi\n        /* \"#utility.yul\":5910:5989   */\n      tag_467\n      tag_308\n      jump\t// in\n    tag_467:\n        /* \"#utility.yul\":5872:5991   */\n    tag_466:\n        /* \"#utility.yul\":6030:6031   */\n      0x00\n        /* \"#utility.yul\":6055:6108   */\n      tag_468\n        /* \"#utility.yul\":6100:6107   */\n      dup6\n        /* \"#utility.yul\":6091:6097   */\n      dup3\n        /* \"#utility.yul\":6080:6089   */\n      dup7\n        /* \"#utility.yul\":6076:6098   */\n      add\n        /* \"#utility.yul\":6055:6108   */\n      tag_321\n      jump\t// in\n    tag_468:\n        /* \"#utility.yul\":6045:6108   */\n      swap3\n      pop\n        /* \"#utility.yul\":6001:6118   */\n      pop\n        /* \"#utility.yul\":6157:6159   */\n      0x20\n        /* \"#utility.yul\":6183:6235   */\n      tag_469\n        /* \"#utility.yul\":6227:6234   */\n      dup6\n        /* \"#utility.yul\":6218:6224   */\n      dup3\n        /* \"#utility.yul\":6207:6216   */\n      dup7\n        /* \"#utility.yul\":6203:6225   */\n      add\n        /* \"#utility.yul\":6183:6235   */\n      tag_317\n      jump\t// in\n    tag_469:\n        /* \"#utility.yul\":6173:6235   */\n      swap2\n      pop\n        /* \"#utility.yul\":6128:6245   */\n      pop\n        /* \"#utility.yul\":5780:6252   */\n      swap3\n      pop\n      swap3\n      swap1\n      pop\n      jump\t// out\n        /* \"#utility.yul\":6258:6335   */\n    tag_331:\n        /* \"#utility.yul\":6295:6302   */\n      0x00\n        /* \"#utility.yul\":6324:6329   */\n      dup2\n        /* \"#utility.yul\":6313:6329   */\n      swap1\n      pop\n        /* \"#utility.yul\":6258:6335   */\n      swap2\n      swap1\n      pop\n      jump\t// out\n        /* \"#utility.yul\":6341:6459   */\n    tag_332:\n        /* \"#utility.yul\":6428:6452   */\n      tag_472\n        /* \"#utility.yul\":6446:6451   */\n      dup2\n        /* \"#utility.yul\":6428:6452   */\n      tag_331\n      jump\t// in\n    tag_472:\n        /* \"#utility.yul\":6423:6426   */\n      dup3\n        /* \"#utility.yul\":6416:6453   */\n      mstore\n        /* \"#utility.yul\":6341:6459   */\n      pop\n      pop\n      jump\t// out\n        /* \"#utility.yul\":6465:6687   */\n    tag_54:\n        /* \"#utility.yul\":6558:6562   */\n      0x00\n        /* \"#utility.yul\":6596:6598   */\n      0x20\n        /* \"#utility.yul\":6585:6594   */\n      dup3\n        /* \"#utility.yul\":6581:6599   */\n      add\n        /* \"#utility.yul\":6573:6599   */\n      swap1\n      pop\n        /* \"#utility.yul\":6609:6680   */\n      tag_474\n        /* \"#utility.yul\":6677:6678   */\n      0x00\n        /* \"#utility.yul\":6666:6675   */\n      dup4\n        /* \"#utility.yul\":6662:6679   */\n      add\n        /* \"#utility.yul\":6653:6659   */\n      dup5\n        /* \"#utility.yul\":6609:6680   */\n      tag_332\n      jump\t// in\n    tag_474:\n        /* \"#utility.yul\":6465:6687   */\n      swap3\n      swap2\n      pop\n      pop\n      jump\t// out\n        /* \"#utility.yul\":6693:6811   */\n    tag_333:\n        /* \"#utility.yul\":6780:6804   */\n      tag_476\n        /* \"#utility.yul\":6798:6803   */\n      dup2\n        /* \"#utility.yul\":6780:6804   */\n      tag_319\n      jump\t// in\n    tag_476:\n        /* \"#utility.yul\":6775:6778   */\n      dup3\n        /* \"#utility.yul\":6768:6805   */\n      mstore\n        /* \"#utility.yul\":6693:6811   */\n      pop\n      pop\n      jump\t// out\n        /* \"#utility.yul\":6817:7039   */\n    tag_62:\n        /* \"#utility.yul\":6910:6914   */\n      0x00\n        /* \"#utility.yul\":6948:6950   */\n      0x20\n        /* \"#utility.yul\":6937:6946   */\n      dup3\n        /* \"#utility.yul\":6933:6951   */\n      add\n        /* \"#utility.yul\":6925:6951   */\n      swap1\n      pop\n        /* \"#utility.yul\":6961:7032   */\n      tag_478\n        /* \"#utility.yul\":7029:7030   */\n      0x00\n        /* \"#utility.yul\":7018:7027   */\n      dup4\n        /* \"#utility.yul\":7014:7031   */\n      add\n        /* \"#utility.yul\":7005:7011   */\n      dup5\n        /* \"#utility.yul\":6961:7032   */\n      tag_333\n      jump\t// in\n    tag_478:\n        /* \"#utility.yul\":6817:7039   */\n      swap3\n      swap2\n      pop\n      pop\n      jump\t// out\n        /* \"#utility.yul\":7045:7167   */\n    tag_334:\n        /* \"#utility.yul\":7118:7142   */\n      tag_480\n        /* \"#utility.yul\":7136:7141   */\n      dup2\n        /* \"#utility.yul\":7118:7142   */\n      tag_331\n      jump\t// in\n    tag_480:\n        /* \"#utility.yul\":7111:7116   */\n      dup2\n        /* \"#utility.yul\":7108:7143   */\n      eq\n        /* \"#utility.yul\":7098:7161   */\n      tag_481\n      jumpi\n        /* \"#utility.yul\":7157:7158   */\n      0x00\n        /* \"#utility.yul\":7154:7155   */\n      dup1\n        /* \"#utility.yul\":7147:7159   */\n      revert\n        /* \"#utility.yul\":7098:7161   */\n    tag_481:\n        /* \"#utility.yul\":7045:7167   */\n      pop\n      jump\t// out\n        /* \"#utility.yul\":7173:7312   */\n    tag_335:\n        /* \"#utility.yul\":7219:7224   */\n      0x00\n        /* \"#utility.yul\":7257:7263   */\n      dup2\n        /* \"#utility.yul\":7244:7264   */\n      calldataload\n        /* \"#utility.yul\":7235:7264   */\n      swap1\n      pop\n        /* \"#utility.yul\":7273:7306   */\n      tag_483\n        /* \"#utility.yul\":7300:7305   */\n      dup2\n        /* \"#utility.yul\":7273:7306   */\n      tag_334\n      jump\t// in\n    tag_483:\n        /* \"#utility.yul\":7173:7312   */\n      swap3\n      swap2\n      pop\n      pop\n      jump\t// out\n        /* \"#utility.yul\":7318:7935   */\n    tag_65:\n        /* \"#utility.yul\":7394:7400   */\n      0x00\n        /* \"#utility.yul\":7402:7408   */\n      dup1\n        /* \"#utility.yul\":7410:7416   */\n      0x00\n        /* \"#utility.yul\":7459:7461   */\n      0x60\n        /* \"#utility.yul\":7447:7456   */\n      dup5\n        /* \"#utility.yul\":7438:7445   */\n      dup7\n        /* \"#utility.yul\":7434:7457   */\n      sub\n        /* \"#utility.yul\":7430:7462   */\n      slt\n        /* \"#utility.yul\":7427:7546   */\n      iszero\n      tag_485\n      jumpi\n        /* \"#utility.yul\":7465:7544   */\n      tag_486\n      tag_308\n      jump\t// in\n    tag_486:\n        /* \"#utility.yul\":7427:7546   */\n    tag_485:\n        /* \"#utility.yul\":7585:7586   */\n      0x00\n        /* \"#utility.yul\":7610:7662   */\n      tag_487\n        /* \"#utility.yul\":7654:7661   */\n      dup7\n        /* \"#utility.yul\":7645:7651   */\n      dup3\n        /* \"#utility.yul\":7634:7643   */\n      dup8\n        /* \"#utility.yul\":7630:7652   */\n      add\n        /* \"#utility.yul\":7610:7662   */\n      tag_317\n      jump\t// in\n    tag_487:\n        /* \"#utility.yul\":7600:7662   */\n      swap4\n      pop\n        /* \"#utility.yul\":7556:7672   */\n      pop\n        /* \"#utility.yul\":7711:7713   */\n      0x20\n        /* \"#utility.yul\":7737:7790   */\n      tag_488\n        /* \"#utility.yul\":7782:7789   */\n      dup7\n        /* \"#utility.yul\":7773:7779   */\n      dup3\n        /* \"#utility.yul\":7762:7771   */\n      dup8\n        /* \"#utility.yul\":7758:7780   */\n      add\n        /* \"#utility.yul\":7737:7790   */\n      tag_335\n      jump\t// in\n    tag_488:\n        /* \"#utility.yul\":7727:7790   */\n      swap3\n      pop\n        /* \"#utility.yul\":7682:7800   */\n      pop\n        /* \"#utility.yul\":7839:7841   */\n      0x40\n        /* \"#utility.yul\":7865:7918   */\n      tag_489\n        /* \"#utility.yul\":7910:7917   */\n      dup7\n        /* \"#utility.yul\":7901:7907   */\n      dup3\n        /* \"#utility.yul\":7890:7899   */\n      dup8\n        /* \"#utility.yul\":7886:7908   */\n      add\n        /* \"#utility.yul\":7865:7918   */\n      tag_335\n      jump\t// in\n    tag_489:\n        /* \"#utility.yul\":7855:7918   */\n      swap2\n      pop\n        /* \"#utility.yul\":7810:7928   */\n      pop\n        /* \"#utility.yul\":7318:7935   */\n      swap3\n      pop\n      swap3\n      pop\n      swap3\n      jump\t// out\n        /* \"#utility.yul\":7941:8049   */\n    tag_336:\n        /* \"#utility.yul\":8018:8042   */\n      tag_491\n        /* \"#utility.yul\":8036:8041   */\n      dup2\n        /* \"#utility.yul\":8018:8042   */\n      tag_331\n      jump\t// in\n    tag_491:\n        /* \"#utility.yul\":8013:8016   */\n      dup3\n        /* \"#utility.yul\":8006:8043   */\n      mstore\n        /* \"#utility.yul\":7941:8049   */\n      pop\n      pop\n      jump\t// out\n        /* \"#utility.yul\":8055:8154   */\n    tag_337:\n        /* \"#utility.yul\":8126:8147   */\n      tag_493\n        /* \"#utility.yul\":8141:8146   */\n      dup2\n        /* \"#utility.yul\":8126:8147   */\n      tag_313\n      jump\t// in\n    tag_493:\n        /* \"#utility.yul\":8121:8124   */\n      dup3\n        /* \"#utility.yul\":8114:8148   */\n      mstore\n        /* \"#utility.yul\":8055:8154   */\n      pop\n      pop\n      jump\t// out\n        /* \"#utility.yul\":8232:9109   */\n    tag_338:\n        /* \"#utility.yul\":8379:8383   */\n      0x80\n        /* \"#utility.yul\":8374:8377   */\n      dup3\n        /* \"#utility.yul\":8370:8384   */\n      add\n        /* \"#utility.yul\":8473:8477   */\n      0x00\n        /* \"#utility.yul\":8466:8471   */\n      dup3\n        /* \"#utility.yul\":8462:8478   */\n      add\n        /* \"#utility.yul\":8456:8479   */\n      mload\n        /* \"#utility.yul\":8492:8553   */\n      tag_495\n        /* \"#utility.yul\":8547:8551   */\n      0x00\n        /* \"#utility.yul\":8542:8545   */\n      dup6\n        /* \"#utility.yul\":8538:8552   */\n      add\n        /* \"#utility.yul\":8524:8536   */\n      dup3\n        /* \"#utility.yul\":8492:8553   */\n      tag_325\n      jump\t// in\n    tag_495:\n        /* \"#utility.yul\":8394:8563   */\n      pop\n        /* \"#utility.yul\":8652:8656   */\n      0x20\n        /* \"#utility.yul\":8645:8650   */\n      dup3\n        /* \"#utility.yul\":8641:8657   */\n      add\n        /* \"#utility.yul\":8635:8658   */\n      mload\n        /* \"#utility.yul\":8671:8734   */\n      tag_496\n        /* \"#utility.yul\":8728:8732   */\n      0x20\n        /* \"#utility.yul\":8723:8726   */\n      dup6\n        /* \"#utility.yul\":8719:8733   */\n      add\n        /* \"#utility.yul\":8705:8717   */\n      dup3\n        /* \"#utility.yul\":8671:8734   */\n      tag_336\n      jump\t// in\n    tag_496:\n        /* \"#utility.yul\":8573:8744   */\n      pop\n        /* \"#utility.yul\":8834:8838   */\n      0x40\n        /* \"#utility.yul\":8827:8832   */\n      dup3\n        /* \"#utility.yul\":8823:8839   */\n      add\n        /* \"#utility.yul\":8817:8840   */\n      mload\n        /* \"#utility.yul\":8853:8916   */\n      tag_497\n        /* \"#utility.yul\":8910:8914   */\n      0x40\n        /* \"#utility.yul\":8905:8908   */\n      dup6\n        /* \"#utility.yul\":8901:8915   */\n      add\n        /* \"#utility.yul\":8887:8899   */\n      dup3\n        /* \"#utility.yul\":8853:8916   */\n      tag_336\n      jump\t// in\n    tag_497:\n        /* \"#utility.yul\":8754:8926   */\n      pop\n        /* \"#utility.yul\":9016:9020   */\n      0x60\n        /* \"#utility.yul\":9009:9014   */\n      dup3\n        /* \"#utility.yul\":9005:9021   */\n      add\n        /* \"#utility.yul\":8999:9022   */\n      mload\n        /* \"#utility.yul\":9035:9092   */\n      tag_498\n        /* \"#utility.yul\":9086:9090   */\n      0x60\n        /* \"#utility.yul\":9081:9084   */\n      dup6\n        /* \"#utility.yul\":9077:9091   */\n      add\n        /* \"#utility.yul\":9063:9075   */\n      dup3\n        /* \"#utility.yul\":9035:9092   */\n      tag_337\n      jump\t// in\n    tag_498:\n        /* \"#utility.yul\":8936:9102   */\n      pop\n        /* \"#utility.yul\":8348:9109   */\n      pop\n        /* \"#utility.yul\":8232:9109   */\n      pop\n      pop\n      jump\t// out\n        /* \"#utility.yul\":9115:9438   */\n    tag_76:\n        /* \"#utility.yul\":9258:9262   */\n      0x00\n        /* \"#utility.yul\":9296:9299   */\n      0x80\n        /* \"#utility.yul\":9285:9294   */\n      dup3\n        /* \"#utility.yul\":9281:9300   */\n      add\n        /* \"#utility.yul\":9273:9300   */\n      swap1\n      pop\n        /* \"#utility.yul\":9310:9431   */\n      tag_500\n        /* \"#utility.yul\":9428:9429   */\n      0x00\n        /* \"#utility.yul\":9417:9426   */\n      dup4\n        /* \"#utility.yul\":9413:9430   */\n      add\n        /* \"#utility.yul\":9404:9410   */\n      dup5\n        /* \"#utility.yul\":9310:9431   */\n      tag_338\n      jump\t// in\n    tag_500:\n        /* \"#utility.yul\":9115:9438   */\n      swap3\n      swap2\n      pop\n      pop\n      jump\t// out\n        /* \"#utility.yul\":9444:9624   */\n    tag_132:\n        /* \"#utility.yul\":9492:9569   */\n      0x4e487b7100000000000000000000000000000000000000000000000000000000\n        /* \"#utility.yul\":9489:9490   */\n      0x00\n        /* \"#utility.yul\":9482:9570   */\n      mstore\n        /* \"#utility.yul\":9589:9593   */\n      0x21\n        /* \"#utility.yul\":9586:9587   */\n      0x04\n        /* \"#utility.yul\":9579:9594   */\n      mstore\n        /* \"#utility.yul\":9613:9617   */\n      0x24\n        /* \"#utility.yul\":9610:9611   */\n      0x00\n        /* \"#utility.yul\":9603:9618   */\n      revert\n        /* \"#utility.yul\":9630:9744   */\n    tag_339:\n        /* \"#utility.yul\":9712:9713   */\n      0x02\n        /* \"#utility.yul\":9705:9710   */\n      dup2\n        /* \"#utility.yul\":9702:9714   */\n      lt\n        /* \"#utility.yul\":9692:9738   */\n      tag_503\n      jumpi\n        /* \"#utility.yul\":9718:9736   */\n      tag_504\n      tag_132\n      jump\t// in\n    tag_504:\n        /* \"#utility.yul\":9692:9738   */\n    tag_503:\n        /* \"#utility.yul\":9630:9744   */\n      pop\n      jump\t// out\n        /* \"#utility.yul\":9750:9879   */\n    tag_340:\n        /* \"#utility.yul\":9796:9803   */\n      0x00\n        /* \"#utility.yul\":9825:9830   */\n      dup2\n        /* \"#utility.yul\":9814:9830   */\n      swap1\n      pop\n        /* \"#utility.yul\":9831:9873   */\n      tag_506\n        /* \"#utility.yul\":9867:9872   */\n      dup3\n        /* \"#utility.yul\":9831:9873   */\n      tag_339\n      jump\t// in\n    tag_506:\n        /* \"#utility.yul\":9750:9879   */\n      swap2\n      swap1\n      pop\n      jump\t// out\n        /* \"#utility.yul\":9885:10014   */\n    tag_341:\n        /* \"#utility.yul\":9942:9951   */\n      0x00\n        /* \"#utility.yul\":9975:10008   */\n      tag_508\n        /* \"#utility.yul\":10002:10007   */\n      dup3\n        /* \"#utility.yul\":9975:10008   */\n      tag_340\n      jump\t// in\n    tag_508:\n        /* \"#utility.yul\":9962:10008   */\n      swap1\n      pop\n        /* \"#utility.yul\":9885:10014   */\n      swap2\n      swap1\n      pop\n      jump\t// out\n        /* \"#utility.yul\":10020:10155   */\n    tag_342:\n        /* \"#utility.yul\":10104:10148   */\n      tag_510\n        /* \"#utility.yul\":10142:10147   */\n      dup2\n        /* \"#utility.yul\":10104:10148   */\n      tag_341\n      jump\t// in\n    tag_510:\n        /* \"#utility.yul\":10099:10102   */\n      dup3\n        /* \"#utility.yul\":10092:10149   */\n      mstore\n        /* \"#utility.yul\":10020:10155   */\n      pop\n      pop\n      jump\t// out\n        /* \"#utility.yul\":10235:12203   */\n    tag_343:\n        /* \"#utility.yul\":10384:10390   */\n      0x0140\n        /* \"#utility.yul\":10379:10382   */\n      dup3\n        /* \"#utility.yul\":10375:10391   */\n      add\n        /* \"#utility.yul\":10474:10478   */\n      0x00\n        /* \"#utility.yul\":10467:10472   */\n      dup3\n        /* \"#utility.yul\":10463:10479   */\n      add\n        /* \"#utility.yul\":10457:10480   */\n      mload\n        /* \"#utility.yul\":10493:10563   */\n      tag_512\n        /* \"#utility.yul\":10557:10561   */\n      0x00\n        /* \"#utility.yul\":10552:10555   */\n      dup6\n        /* \"#utility.yul\":10548:10562   */\n      add\n        /* \"#utility.yul\":10534:10546   */\n      dup3\n        /* \"#utility.yul\":10493:10563   */\n      tag_342\n      jump\t// in\n    tag_512:\n        /* \"#utility.yul\":10401:10573   */\n      pop\n        /* \"#utility.yul\":10653:10657   */\n      0x20\n        /* \"#utility.yul\":10646:10651   */\n      dup3\n        /* \"#utility.yul\":10642:10658   */\n      add\n        /* \"#utility.yul\":10636:10659   */\n      mload\n        /* \"#utility.yul\":10672:10733   */\n      tag_513\n        /* \"#utility.yul\":10727:10731   */\n      0x20\n        /* \"#utility.yul\":10722:10725   */\n      dup6\n        /* \"#utility.yul\":10718:10732   */\n      add\n        /* \"#utility.yul\":10704:10716   */\n      dup3\n        /* \"#utility.yul\":10672:10733   */\n      tag_325\n      jump\t// in\n    tag_513:\n        /* \"#utility.yul\":10583:10743   */\n      pop\n        /* \"#utility.yul\":10828:10832   */\n      0x40\n        /* \"#utility.yul\":10821:10826   */\n      dup3\n        /* \"#utility.yul\":10817:10833   */\n      add\n        /* \"#utility.yul\":10811:10834   */\n      mload\n        /* \"#utility.yul\":10847:10910   */\n      tag_514\n        /* \"#utility.yul\":10904:10908   */\n      0x40\n        /* \"#utility.yul\":10899:10902   */\n      dup6\n        /* \"#utility.yul\":10895:10909   */\n      add\n        /* \"#utility.yul\":10881:10893   */\n      dup3\n        /* \"#utility.yul\":10847:10910   */\n      tag_336\n      jump\t// in\n    tag_514:\n        /* \"#utility.yul\":10753:10920   */\n      pop\n        /* \"#utility.yul\":11003:11007   */\n      0x60\n        /* \"#utility.yul\":10996:11001   */\n      dup3\n        /* \"#utility.yul\":10992:11008   */\n      add\n        /* \"#utility.yul\":10986:11009   */\n      mload\n        /* \"#utility.yul\":11022:11085   */\n      tag_515\n        /* \"#utility.yul\":11079:11083   */\n      0x60\n        /* \"#utility.yul\":11074:11077   */\n      dup6\n        /* \"#utility.yul\":11070:11084   */\n      add\n        /* \"#utility.yul\":11056:11068   */\n      dup3\n        /* \"#utility.yul\":11022:11085   */\n      tag_336\n      jump\t// in\n    tag_515:\n        /* \"#utility.yul\":10930:11095   */\n      pop\n        /* \"#utility.yul\":11179:11183   */\n      0x80\n        /* \"#utility.yul\":11172:11177   */\n      dup3\n        /* \"#utility.yul\":11168:11184   */\n      add\n        /* \"#utility.yul\":11162:11185   */\n      mload\n        /* \"#utility.yul\":11198:11261   */\n      tag_516\n        /* \"#utility.yul\":11255:11259   */\n      0x80\n        /* \"#utility.yul\":11250:11253   */\n      dup6\n        /* \"#utility.yul\":11246:11260   */\n      add\n        /* \"#utility.yul\":11232:11244   */\n      dup3\n        /* \"#utility.yul\":11198:11261   */\n      tag_336\n      jump\t// in\n    tag_516:\n        /* \"#utility.yul\":11105:11271   */\n      pop\n        /* \"#utility.yul\":11360:11364   */\n      0xa0\n        /* \"#utility.yul\":11353:11358   */\n      dup3\n        /* \"#utility.yul\":11349:11365   */\n      add\n        /* \"#utility.yul\":11343:11366   */\n      mload\n        /* \"#utility.yul\":11379:11442   */\n      tag_517\n        /* \"#utility.yul\":11436:11440   */\n      0xa0\n        /* \"#utility.yul\":11431:11434   */\n      dup6\n        /* \"#utility.yul\":11427:11441   */\n      add\n        /* \"#utility.yul\":11413:11425   */\n      dup3\n        /* \"#utility.yul\":11379:11442   */\n      tag_336\n      jump\t// in\n    tag_517:\n        /* \"#utility.yul\":11281:11452   */\n      pop\n        /* \"#utility.yul\":11542:11546   */\n      0xc0\n        /* \"#utility.yul\":11535:11540   */\n      dup3\n        /* \"#utility.yul\":11531:11547   */\n      add\n        /* \"#utility.yul\":11525:11548   */\n      mload\n        /* \"#utility.yul\":11561:11624   */\n      tag_518\n        /* \"#utility.yul\":11618:11622   */\n      0xc0\n        /* \"#utility.yul\":11613:11616   */\n      dup6\n        /* \"#utility.yul\":11609:11623   */\n      add\n        /* \"#utility.yul\":11595:11607   */\n      dup3\n        /* \"#utility.yul\":11561:11624   */\n      tag_336\n      jump\t// in\n    tag_518:\n        /* \"#utility.yul\":11462:11634   */\n      pop\n        /* \"#utility.yul\":11727:11731   */\n      0xe0\n        /* \"#utility.yul\":11720:11725   */\n      dup3\n        /* \"#utility.yul\":11716:11732   */\n      add\n        /* \"#utility.yul\":11710:11733   */\n      mload\n        /* \"#utility.yul\":11746:11809   */\n      tag_519\n        /* \"#utility.yul\":11803:11807   */\n      0xe0\n        /* \"#utility.yul\":11798:11801   */\n      dup6\n        /* \"#utility.yul\":11794:11808   */\n      add\n        /* \"#utility.yul\":11780:11792   */\n      dup3\n        /* \"#utility.yul\":11746:11809   */\n      tag_336\n      jump\t// in\n    tag_519:\n        /* \"#utility.yul\":11644:11819   */\n      pop\n        /* \"#utility.yul\":11913:11919   */\n      0x0100\n        /* \"#utility.yul\":11906:11911   */\n      dup3\n        /* \"#utility.yul\":11902:11920   */\n      add\n        /* \"#utility.yul\":11896:11921   */\n      mload\n        /* \"#utility.yul\":11934:11999   */\n      tag_520\n        /* \"#utility.yul\":11991:11997   */\n      0x0100\n        /* \"#utility.yul\":11986:11989   */\n      dup6\n        /* \"#utility.yul\":11982:11998   */\n      add\n        /* \"#utility.yul\":11968:11980   */\n      dup3\n        /* \"#utility.yul\":11934:11999   */\n      tag_336\n      jump\t// in\n    tag_520:\n        /* \"#utility.yul\":11829:12009   */\n      pop\n        /* \"#utility.yul\":12100:12106   */\n      0x0120\n        /* \"#utility.yul\":12093:12098   */\n      dup3\n        /* \"#utility.yul\":12089:12107   */\n      add\n        /* \"#utility.yul\":12083:12108   */\n      mload\n        /* \"#utility.yul\":12121:12186   */\n      tag_521\n        /* \"#utility.yul\":12178:12184   */\n      0x0120\n        /* \"#utility.yul\":12173:12176   */\n      dup6\n        /* \"#utility.yul\":12169:12185   */\n      add\n        /* \"#utility.yul\":12155:12167   */\n      dup3\n        /* \"#utility.yul\":12121:12186   */\n      tag_336\n      jump\t// in\n    tag_521:\n        /* \"#utility.yul\":12019:12196   */\n      pop\n        /* \"#utility.yul\":10353:12203   */\n      pop\n        /* \"#utility.yul\":10235:12203   */\n      pop\n      pop\n      jump\t// out\n        /* \"#utility.yul\":12209:12536   */\n    tag_81:\n        /* \"#utility.yul\":12354:12358   */\n      0x00\n        /* \"#utility.yul\":12392:12395   */\n      0x0140\n        /* \"#utility.yul\":12381:12390   */\n      dup3\n        /* \"#utility.yul\":12377:12396   */\n      add\n        /* \"#utility.yul\":12369:12396   */\n      swap1\n      pop\n        /* \"#utility.yul\":12406:12529   */\n      tag_523\n        /* \"#utility.yul\":12526:12527   */\n      0x00\n        /* \"#utility.yul\":12515:12524   */\n      dup4\n        /* \"#utility.yul\":12511:12528   */\n      add\n        /* \"#utility.yul\":12502:12508   */\n      dup5\n        /* \"#utility.yul\":12406:12529   */\n      tag_343\n      jump\t// in\n    tag_523:\n        /* \"#utility.yul\":12209:12536   */\n      swap3\n      swap2\n      pop\n      pop\n      jump\t// out\n        /* \"#utility.yul\":12542:13014   */\n    tag_90:\n        /* \"#utility.yul\":12609:12615   */\n      0x00\n        /* \"#utility.yul\":12617:12623   */\n      dup1\n        /* \"#utility.yul\":12666:12668   */\n      0x40\n        /* \"#utility.yul\":12654:12663   */\n      dup4\n        /* \"#utility.yul\":12645:12652   */\n      dup6\n        /* \"#utility.yul\":12641:12664   */\n      sub\n        /* \"#utility.yul\":12637:12669   */\n      slt\n        /* \"#utility.yul\":12634:12753   */\n      iszero\n      tag_525\n      jumpi\n        /* \"#utility.yul\":12672:12751   */\n      tag_526\n      tag_308\n      jump\t// in\n    tag_526:\n        /* \"#utility.yul\":12634:12753   */\n    tag_525:\n        /* \"#utility.yul\":12792:12793   */\n      0x00\n        /* \"#utility.yul\":12817:12869   */\n      tag_527\n        /* \"#utility.yul\":12861:12868   */\n      dup6\n        /* \"#utility.yul\":12852:12858   */\n      dup3\n        /* \"#utility.yul\":12841:12850   */\n      dup7\n        /* \"#utility.yul\":12837:12859   */\n      add\n        /* \"#utility.yul\":12817:12869   */\n      tag_317\n      jump\t// in\n    tag_527:\n        /* \"#utility.yul\":12807:12869   */\n      swap3\n      pop\n        /* \"#utility.yul\":12763:12879   */\n      pop\n        /* \"#utility.yul\":12918:12920   */\n      0x20\n        /* \"#utility.yul\":12944:12997   */\n      tag_528\n        /* \"#utility.yul\":12989:12996   */\n      dup6\n        /* \"#utility.yul\":12980:12986   */\n      dup3\n        /* \"#utility.yul\":12969:12978   */\n      dup7\n        /* \"#utility.yul\":12965:12987   */\n      add\n        /* \"#utility.yul\":12944:12997   */\n      tag_335\n      jump\t// in\n    tag_528:\n        /* \"#utility.yul\":12934:12997   */\n      swap2\n      pop\n        /* \"#utility.yul\":12889:13007   */\n      pop\n        /* \"#utility.yul\":12542:13014   */\n      swap3\n      pop\n      swap3\n      swap1\n      pop\n      jump\t// out\n        /* \"#utility.yul\":13020:13137   */\n    tag_344:\n        /* \"#utility.yul\":13129:13130   */\n      0x00\n        /* \"#utility.yul\":13126:13127   */\n      dup1\n        /* \"#utility.yul\":13119:13131   */\n      revert\n        /* \"#utility.yul\":13143:13245   */\n    tag_345:\n        /* \"#utility.yul\":13184:13190   */\n      0x00\n        /* \"#utility.yul\":13235:13237   */\n      0x1f\n        /* \"#utility.yul\":13231:13238   */\n      not\n        /* \"#utility.yul\":13226:13228   */\n      0x1f\n        /* \"#utility.yul\":13219:13224   */\n      dup4\n        /* \"#utility.yul\":13215:13229   */\n      add\n        /* \"#utility.yul\":13211:13239   */\n      and\n        /* \"#utility.yul\":13201:13239   */\n      swap1\n      pop\n        /* \"#utility.yul\":13143:13245   */\n      swap2\n      swap1\n      pop\n      jump\t// out\n        /* \"#utility.yul\":13251:13431   */\n    tag_346:\n        /* \"#utility.yul\":13299:13376   */\n      0x4e487b7100000000000000000000000000000000000000000000000000000000\n        /* \"#utility.yul\":13296:13297   */\n      0x00\n        /* \"#utility.yul\":13289:13377   */\n      mstore\n        /* \"#utility.yul\":13396:13400   */\n      0x41\n        /* \"#utility.yul\":13393:13394   */\n      0x04\n        /* \"#utility.yul\":13386:13401   */\n      mstore\n        /* \"#utility.yul\":13420:13424   */\n      0x24\n        /* \"#utility.yul\":13417:13418   */\n      0x00\n        /* \"#utility.yul\":13410:13425   */\n      revert\n        /* \"#utility.yul\":13437:13718   */\n    tag_347:\n        /* \"#utility.yul\":13520:13547   */\n      tag_533\n        /* \"#utility.yul\":13542:13546   */\n      dup3\n        /* \"#utility.yul\":13520:13547   */\n      tag_345\n      jump\t// in\n    tag_533:\n        /* \"#utility.yul\":13512:13518   */\n      dup2\n        /* \"#utility.yul\":13508:13548   */\n      add\n        /* \"#utility.yul\":13650:13656   */\n      dup2\n        /* \"#utility.yul\":13638:13648   */\n      dup2\n        /* \"#utility.yul\":13635:13657   */\n      lt\n        /* \"#utility.yul\":13614:13632   */\n      0xffffffffffffffff\n        /* \"#utility.yul\":13602:13612   */\n      dup3\n        /* \"#utility.yul\":13599:13633   */\n      gt\n        /* \"#utility.yul\":13596:13658   */\n      or\n        /* \"#utility.yul\":13593:13681   */\n      iszero\n      tag_534\n      jumpi\n        /* \"#utility.yul\":13661:13679   */\n      tag_535\n      tag_346\n      jump\t// in\n    tag_535:\n        /* \"#utility.yul\":13593:13681   */\n    tag_534:\n        /* \"#utility.yul\":13701:13711   */\n      dup1\n        /* \"#utility.yul\":13697:13699   */\n      0x40\n        /* \"#utility.yul\":13690:13712   */\n      mstore\n        /* \"#utility.yul\":13480:13718   */\n      pop\n        /* \"#utility.yul\":13437:13718   */\n      pop\n      pop\n      jump\t// out\n        /* \"#utility.yul\":13724:13853   */\n    tag_348:\n        /* \"#utility.yul\":13758:13764   */\n      0x00\n        /* \"#utility.yul\":13785:13805   */\n      tag_537\n      tag_307\n      jump\t// in\n    tag_537:\n        /* \"#utility.yul\":13775:13805   */\n      swap1\n      pop\n        /* \"#utility.yul\":13814:13847   */\n      tag_538\n        /* \"#utility.yul\":13842:13846   */\n      dup3\n        /* \"#utility.yul\":13834:13840   */\n      dup3\n        /* \"#utility.yul\":13814:13847   */\n      tag_347\n      jump\t// in\n    tag_538:\n        /* \"#utility.yul\":13724:13853   */\n      swap2\n      swap1\n      pop\n      jump\t// out\n        /* \"#utility.yul\":13859:14170   */\n    tag_349:\n        /* \"#utility.yul\":13936:13940   */\n      0x00\n        /* \"#utility.yul\":14026:14044   */\n      0xffffffffffffffff\n        /* \"#utility.yul\":14018:14024   */\n      dup3\n        /* \"#utility.yul\":14015:14045   */\n      gt\n        /* \"#utility.yul\":14012:14068   */\n      iszero\n      tag_540\n      jumpi\n        /* \"#utility.yul\":14048:14066   */\n      tag_541\n      tag_346\n      jump\t// in\n    tag_541:\n        /* \"#utility.yul\":14012:14068   */\n    tag_540:\n        /* \"#utility.yul\":14098:14102   */\n      0x20\n        /* \"#utility.yul\":14090:14096   */\n      dup3\n        /* \"#utility.yul\":14086:14103   */\n      mul\n        /* \"#utility.yul\":14078:14103   */\n      swap1\n      pop\n        /* \"#utility.yul\":14158:14162   */\n      0x20\n        /* \"#utility.yul\":14152:14156   */\n      dup2\n        /* \"#utility.yul\":14148:14163   */\n      add\n        /* \"#utility.yul\":14140:14163   */\n      swap1\n      pop\n        /* \"#utility.yul\":13859:14170   */\n      swap2\n      swap1\n      pop\n      jump\t// out\n        /* \"#utility.yul\":14176:14293   */\n    tag_350:\n        /* \"#utility.yul\":14285:14286   */\n      0x00\n        /* \"#utility.yul\":14282:14283   */\n      dup1\n        /* \"#utility.yul\":14275:14287   */\n      revert\n        /* \"#utility.yul\":14316:15026   */\n    tag_351:\n        /* \"#utility.yul\":14412:14417   */\n      0x00\n        /* \"#utility.yul\":14437:14518   */\n      tag_544\n        /* \"#utility.yul\":14453:14517   */\n      tag_545\n        /* \"#utility.yul\":14510:14516   */\n      dup5\n        /* \"#utility.yul\":14453:14517   */\n      tag_349\n      jump\t// in\n    tag_545:\n        /* \"#utility.yul\":14437:14518   */\n      tag_348\n      jump\t// in\n    tag_544:\n        /* \"#utility.yul\":14428:14518   */\n      swap1\n      pop\n        /* \"#utility.yul\":14538:14543   */\n      dup1\n        /* \"#utility.yul\":14567:14573   */\n      dup4\n        /* \"#utility.yul\":14560:14565   */\n      dup3\n        /* \"#utility.yul\":14553:14574   */\n      mstore\n        /* \"#utility.yul\":14601:14605   */\n      0x20\n        /* \"#utility.yul\":14594:14599   */\n      dup3\n        /* \"#utility.yul\":14590:14606   */\n      add\n        /* \"#utility.yul\":14583:14606   */\n      swap1\n      pop\n        /* \"#utility.yul\":14654:14658   */\n      0x20\n        /* \"#utility.yul\":14646:14652   */\n      dup5\n        /* \"#utility.yul\":14642:14659   */\n      mul\n        /* \"#utility.yul\":14634:14640   */\n      dup4\n        /* \"#utility.yul\":14630:14660   */\n      add\n        /* \"#utility.yul\":14683:14686   */\n      dup6\n        /* \"#utility.yul\":14675:14681   */\n      dup2\n        /* \"#utility.yul\":14672:14687   */\n      gt\n        /* \"#utility.yul\":14669:14791   */\n      iszero\n      tag_546\n      jumpi\n        /* \"#utility.yul\":14702:14781   */\n      tag_547\n      tag_350\n      jump\t// in\n    tag_547:\n        /* \"#utility.yul\":14669:14791   */\n    tag_546:\n        /* \"#utility.yul\":14817:14823   */\n      dup4\n        /* \"#utility.yul\":14800:15020   */\n    tag_548:\n        /* \"#utility.yul\":14834:14840   */\n      dup2\n        /* \"#utility.yul\":14829:14832   */\n      dup2\n        /* \"#utility.yul\":14826:14841   */\n      lt\n        /* \"#utility.yul\":14800:15020   */\n      iszero\n      tag_550\n      jumpi\n        /* \"#utility.yul\":14909:14912   */\n      dup1\n        /* \"#utility.yul\":14938:14975   */\n      tag_551\n        /* \"#utility.yul\":14971:14974   */\n      dup9\n        /* \"#utility.yul\":14959:14969   */\n      dup3\n        /* \"#utility.yul\":14938:14975   */\n      tag_335\n      jump\t// in\n    tag_551:\n        /* \"#utility.yul\":14933:14936   */\n      dup5\n        /* \"#utility.yul\":14926:14976   */\n      mstore\n        /* \"#utility.yul\":15005:15009   */\n      0x20\n        /* \"#utility.yul\":15000:15003   */\n      dup5\n        /* \"#utility.yul\":14996:15010   */\n      add\n        /* \"#utility.yul\":14989:15010   */\n      swap4\n      pop\n        /* \"#utility.yul\":14876:15020   */\n      pop\n        /* \"#utility.yul\":14860:14864   */\n      0x20\n        /* \"#utility.yul\":14855:14858   */\n      dup2\n        /* \"#utility.yul\":14851:14865   */\n      add\n        /* \"#utility.yul\":14844:14865   */\n      swap1\n      pop\n        /* \"#utility.yul\":14800:15020   */\n      jump(tag_548)\n    tag_550:\n        /* \"#utility.yul\":14804:14825   */\n      pop\n        /* \"#utility.yul\":14418:15026   */\n      pop\n      pop\n        /* \"#utility.yul\":14316:15026   */\n      swap4\n      swap3\n      pop\n      pop\n      pop\n      jump\t// out\n        /* \"#utility.yul\":15049:15419   */\n    tag_352:\n        /* \"#utility.yul\":15120:15125   */\n      0x00\n        /* \"#utility.yul\":15169:15172   */\n      dup3\n        /* \"#utility.yul\":15162:15166   */\n      0x1f\n        /* \"#utility.yul\":15154:15160   */\n      dup4\n        /* \"#utility.yul\":15150:15167   */\n      add\n        /* \"#utility.yul\":15146:15173   */\n      slt\n        /* \"#utility.yul\":15136:15258   */\n      tag_553\n      jumpi\n        /* \"#utility.yul\":15177:15256   */\n      tag_554\n      tag_344\n      jump\t// in\n    tag_554:\n        /* \"#utility.yul\":15136:15258   */\n    tag_553:\n        /* \"#utility.yul\":15294:15300   */\n      dup2\n        /* \"#utility.yul\":15281:15301   */\n      calldataload\n        /* \"#utility.yul\":15319:15413   */\n      tag_555\n        /* \"#utility.yul\":15409:15412   */\n      dup5\n        /* \"#utility.yul\":15401:15407   */\n      dup3\n        /* \"#utility.yul\":15394:15398   */\n      0x20\n        /* \"#utility.yul\":15386:15392   */\n      dup7\n        /* \"#utility.yul\":15382:15399   */\n      add\n        /* \"#utility.yul\":15319:15413   */\n      tag_351\n      jump\t// in\n    tag_555:\n        /* \"#utility.yul\":15310:15413   */\n      swap2\n      pop\n        /* \"#utility.yul\":15126:15419   */\n      pop\n        /* \"#utility.yul\":15049:15419   */\n      swap3\n      swap2\n      pop\n      pop\n      jump\t// out\n        /* \"#utility.yul\":15425:15542   */\n    tag_353:\n        /* \"#utility.yul\":15534:15535   */\n      0x00\n        /* \"#utility.yul\":15531:15532   */\n      dup1\n        /* \"#utility.yul\":15524:15536   */\n      revert\n        /* \"#utility.yul\":15548:15855   */\n    tag_354:\n        /* \"#utility.yul\":15609:15613   */\n      0x00\n        /* \"#utility.yul\":15699:15717   */\n      0xffffffffffffffff\n        /* \"#utility.yul\":15691:15697   */\n      dup3\n        /* \"#utility.yul\":15688:15718   */\n      gt\n        /* \"#utility.yul\":15685:15741   */\n      iszero\n      tag_558\n      jumpi\n        /* \"#utility.yul\":15721:15739   */\n      tag_559\n      tag_346\n      jump\t// in\n    tag_559:\n        /* \"#utility.yul\":15685:15741   */\n    tag_558:\n        /* \"#utility.yul\":15759:15788   */\n      tag_560\n        /* \"#utility.yul\":15781:15787   */\n      dup3\n        /* \"#utility.yul\":15759:15788   */\n      tag_345\n      jump\t// in\n    tag_560:\n        /* \"#utility.yul\":15751:15788   */\n      swap1\n      pop\n        /* \"#utility.yul\":15843:15847   */\n      0x20\n        /* \"#utility.yul\":15837:15841   */\n      dup2\n        /* \"#utility.yul\":15833:15848   */\n      add\n        /* \"#utility.yul\":15825:15848   */\n      swap1\n      pop\n        /* \"#utility.yul\":15548:15855   */\n      swap2\n      swap1\n      pop\n      jump\t// out\n        /* \"#utility.yul\":15861:16015   */\n    tag_355:\n        /* \"#utility.yul\":15945:15951   */\n      dup3\n        /* \"#utility.yul\":15940:15943   */\n      dup2\n        /* \"#utility.yul\":15935:15938   */\n      dup4\n        /* \"#utility.yul\":15922:15952   */\n      calldatacopy\n        /* \"#utility.yul\":16007:16008   */\n      0x00\n        /* \"#utility.yul\":15998:16004   */\n      dup4\n        /* \"#utility.yul\":15993:15996   */\n      dup4\n        /* \"#utility.yul\":15989:16005   */\n      add\n        /* \"#utility.yul\":15982:16009   */\n      mstore\n        /* \"#utility.yul\":15861:16015   */\n      pop\n      pop\n      pop\n      jump\t// out\n        /* \"#utility.yul\":16021:16431   */\n    tag_356:\n        /* \"#utility.yul\":16098:16103   */\n      0x00\n        /* \"#utility.yul\":16123:16188   */\n      tag_563\n        /* \"#utility.yul\":16139:16187   */\n      tag_564\n        /* \"#utility.yul\":16180:16186   */\n      dup5\n        /* \"#utility.yul\":16139:16187   */\n      tag_354\n      jump\t// in\n    tag_564:\n        /* \"#utility.yul\":16123:16188   */\n      tag_348\n      jump\t// in\n    tag_563:\n        /* \"#utility.yul\":16114:16188   */\n      swap1\n      pop\n        /* \"#utility.yul\":16211:16217   */\n      dup3\n        /* \"#utility.yul\":16204:16209   */\n      dup2\n        /* \"#utility.yul\":16197:16218   */\n      mstore\n        /* \"#utility.yul\":16249:16253   */\n      0x20\n        /* \"#utility.yul\":16242:16247   */\n      dup2\n        /* \"#utility.yul\":16238:16254   */\n      add\n        /* \"#utility.yul\":16287:16290   */\n      dup5\n        /* \"#utility.yul\":16278:16284   */\n      dup5\n        /* \"#utility.yul\":16273:16276   */\n      dup5\n        /* \"#utility.yul\":16269:16285   */\n      add\n        /* \"#utility.yul\":16266:16291   */\n      gt\n        /* \"#utility.yul\":16263:16375   */\n      iszero\n      tag_565\n      jumpi\n        /* \"#utility.yul\":16294:16373   */\n      tag_566\n      tag_353\n      jump\t// in\n    tag_566:\n        /* \"#utility.yul\":16263:16375   */\n    tag_565:\n        /* \"#utility.yul\":16384:16425   */\n      tag_567\n        /* \"#utility.yul\":16418:16424   */\n      dup5\n        /* \"#utility.yul\":16413:16416   */\n      dup3\n        /* \"#utility.yul\":16408:16411   */\n      dup6\n        /* \"#utility.yul\":16384:16425   */\n      tag_355\n      jump\t// in\n    tag_567:\n        /* \"#utility.yul\":16104:16431   */\n      pop\n        /* \"#utility.yul\":16021:16431   */\n      swap4\n      swap3\n      pop\n      pop\n      pop\n      jump\t// out\n        /* \"#utility.yul\":16450:16788   */\n    tag_357:\n        /* \"#utility.yul\":16505:16510   */\n      0x00\n        /* \"#utility.yul\":16554:16557   */\n      dup3\n        /* \"#utility.yul\":16547:16551   */\n      0x1f\n        /* \"#utility.yul\":16539:16545   */\n      dup4\n        /* \"#utility.yul\":16535:16552   */\n      add\n        /* \"#utility.yul\":16531:16558   */\n      slt\n        /* \"#utility.yul\":16521:16643   */\n      tag_569\n      jumpi\n        /* \"#utility.yul\":16562:16641   */\n      tag_570\n      tag_344\n      jump\t// in\n    tag_570:\n        /* \"#utility.yul\":16521:16643   */\n    tag_569:\n        /* \"#utility.yul\":16679:16685   */\n      dup2\n        /* \"#utility.yul\":16666:16686   */\n      calldataload\n        /* \"#utility.yul\":16704:16782   */\n      tag_571\n        /* \"#utility.yul\":16778:16781   */\n      dup5\n        /* \"#utility.yul\":16770:16776   */\n      dup3\n        /* \"#utility.yul\":16763:16767   */\n      0x20\n        /* \"#utility.yul\":16755:16761   */\n      dup7\n        /* \"#utility.yul\":16751:16768   */\n      add\n        /* \"#utility.yul\":16704:16782   */\n      tag_356\n      jump\t// in\n    tag_571:\n        /* \"#utility.yul\":16695:16782   */\n      swap2\n      pop\n        /* \"#utility.yul\":16511:16788   */\n      pop\n        /* \"#utility.yul\":16450:16788   */\n      swap3\n      swap2\n      pop\n      pop\n      jump\t// out\n        /* \"#utility.yul\":16794:18303   */\n    tag_94:\n        /* \"#utility.yul\":16948:16954   */\n      0x00\n        /* \"#utility.yul\":16956:16962   */\n      dup1\n        /* \"#utility.yul\":16964:16970   */\n      0x00\n        /* \"#utility.yul\":16972:16978   */\n      dup1\n        /* \"#utility.yul\":16980:16986   */\n      0x00\n        /* \"#utility.yul\":17029:17032   */\n      0xa0\n        /* \"#utility.yul\":17017:17026   */\n      dup7\n        /* \"#utility.yul\":17008:17015   */\n      dup9\n        /* \"#utility.yul\":17004:17027   */\n      sub\n        /* \"#utility.yul\":17000:17033   */\n      slt\n        /* \"#utility.yul\":16997:17117   */\n      iszero\n      tag_573\n      jumpi\n        /* \"#utility.yul\":17036:17115   */\n      tag_574\n      tag_308\n      jump\t// in\n    tag_574:\n        /* \"#utility.yul\":16997:17117   */\n    tag_573:\n        /* \"#utility.yul\":17156:17157   */\n      0x00\n        /* \"#utility.yul\":17181:17234   */\n      tag_575\n        /* \"#utility.yul\":17226:17233   */\n      dup9\n        /* \"#utility.yul\":17217:17223   */\n      dup3\n        /* \"#utility.yul\":17206:17215   */\n      dup10\n        /* \"#utility.yul\":17202:17224   */\n      add\n        /* \"#utility.yul\":17181:17234   */\n      tag_321\n      jump\t// in\n    tag_575:\n        /* \"#utility.yul\":17171:17234   */\n      swap6\n      pop\n        /* \"#utility.yul\":17127:17244   */\n      pop\n        /* \"#utility.yul\":17283:17285   */\n      0x20\n        /* \"#utility.yul\":17309:17362   */\n      tag_576\n        /* \"#utility.yul\":17354:17361   */\n      dup9\n        /* \"#utility.yul\":17345:17351   */\n      dup3\n        /* \"#utility.yul\":17334:17343   */\n      dup10\n        /* \"#utility.yul\":17330:17352   */\n      add\n        /* \"#utility.yul\":17309:17362   */\n      tag_321\n      jump\t// in\n    tag_576:\n        /* \"#utility.yul\":17299:17362   */\n      swap5\n      pop\n        /* \"#utility.yul\":17254:17372   */\n      pop\n        /* \"#utility.yul\":17439:17441   */\n      0x40\n        /* \"#utility.yul\":17428:17437   */\n      dup7\n        /* \"#utility.yul\":17424:17442   */\n      add\n        /* \"#utility.yul\":17411:17443   */\n      calldataload\n        /* \"#utility.yul\":17470:17488   */\n      0xffffffffffffffff\n        /* \"#utility.yul\":17462:17468   */\n      dup2\n        /* \"#utility.yul\":17459:17489   */\n      gt\n        /* \"#utility.yul\":17456:17573   */\n      iszero\n      tag_577\n      jumpi\n        /* \"#utility.yul\":17492:17571   */\n      tag_578\n      tag_309\n      jump\t// in\n    tag_578:\n        /* \"#utility.yul\":17456:17573   */\n    tag_577:\n        /* \"#utility.yul\":17597:17675   */\n      tag_579\n        /* \"#utility.yul\":17667:17674   */\n      dup9\n        /* \"#utility.yul\":17658:17664   */\n      dup3\n        /* \"#utility.yul\":17647:17656   */\n      dup10\n        /* \"#utility.yul\":17643:17665   */\n      add\n        /* \"#utility.yul\":17597:17675   */\n      tag_352\n      jump\t// in\n    tag_579:\n        /* \"#utility.yul\":17587:17675   */\n      swap4\n      pop\n        /* \"#utility.yul\":17382:17685   */\n      pop\n        /* \"#utility.yul\":17752:17754   */\n      0x60\n        /* \"#utility.yul\":17741:17750   */\n      dup7\n        /* \"#utility.yul\":17737:17755   */\n      add\n        /* \"#utility.yul\":17724:17756   */\n      calldataload\n        /* \"#utility.yul\":17783:17801   */\n      0xffffffffffffffff\n        /* \"#utility.yul\":17775:17781   */\n      dup2\n        /* \"#utility.yul\":17772:17802   */\n      gt\n        /* \"#utility.yul\":17769:17886   */\n      iszero\n      tag_580\n      jumpi\n        /* \"#utility.yul\":17805:17884   */\n      tag_581\n      tag_309\n      jump\t// in\n    tag_581:\n        /* \"#utility.yul\":17769:17886   */\n    tag_580:\n        /* \"#utility.yul\":17910:17988   */\n      tag_582\n        /* \"#utility.yul\":17980:17987   */\n      dup9\n        /* \"#utility.yul\":17971:17977   */\n      dup3\n        /* \"#utility.yul\":17960:17969   */\n      dup10\n        /* \"#utility.yul\":17956:17978   */\n      add\n        /* \"#utility.yul\":17910:17988   */\n      tag_352\n      jump\t// in\n    tag_582:\n        /* \"#utility.yul\":17900:17988   */\n      swap3\n      pop\n        /* \"#utility.yul\":17695:17998   */\n      pop\n        /* \"#utility.yul\":18065:18068   */\n      0x80\n        /* \"#utility.yul\":18054:18063   */\n      dup7\n        /* \"#utility.yul\":18050:18069   */\n      add\n        /* \"#utility.yul\":18037:18070   */\n      calldataload\n        /* \"#utility.yul\":18097:18115   */\n      0xffffffffffffffff\n        /* \"#utility.yul\":18089:18095   */\n      dup2\n        /* \"#utility.yul\":18086:18116   */\n      gt\n        /* \"#utility.yul\":18083:18200   */\n      iszero\n      tag_583\n      jumpi\n        /* \"#utility.yul\":18119:18198   */\n      tag_584\n      tag_309\n      jump\t// in\n    tag_584:\n        /* \"#utility.yul\":18083:18200   */\n    tag_583:\n        /* \"#utility.yul\":18224:18286   */\n      tag_585\n        /* \"#utility.yul\":18278:18285   */\n      dup9\n        /* \"#utility.yul\":18269:18275   */\n      dup3\n        /* \"#utility.yul\":18258:18267   */\n      dup10\n        /* \"#utility.yul\":18254:18276   */\n      add\n        /* \"#utility.yul\":18224:18286   */\n      tag_357\n      jump\t// in\n    tag_585:\n        /* \"#utility.yul\":18214:18286   */\n      swap2\n      pop\n        /* \"#utility.yul\":18008:18296   */\n      pop\n        /* \"#utility.yul\":16794:18303   */\n      swap3\n      swap6\n      pop\n      swap3\n      swap6\n      swap1\n      swap4\n      pop\n      jump\t// out\n        /* \"#utility.yul\":18309:18424   */\n    tag_358:\n        /* \"#utility.yul\":18394:18417   */\n      tag_587\n        /* \"#utility.yul\":18411:18416   */\n      dup2\n        /* \"#utility.yul\":18394:18417   */\n      tag_310\n      jump\t// in\n    tag_587:\n        /* \"#utility.yul\":18389:18392   */\n      dup3\n        /* \"#utility.yul\":18382:18418   */\n      mstore\n        /* \"#utility.yul\":18309:18424   */\n      pop\n      pop\n      jump\t// out\n        /* \"#utility.yul\":18430:18648   */\n    tag_97:\n        /* \"#utility.yul\":18521:18525   */\n      0x00\n        /* \"#utility.yul\":18559:18561   */\n      0x20\n        /* \"#utility.yul\":18548:18557   */\n      dup3\n        /* \"#utility.yul\":18544:18562   */\n      add\n        /* \"#utility.yul\":18536:18562   */\n      swap1\n      pop\n        /* \"#utility.yul\":18572:18641   */\n      tag_589\n        /* \"#utility.yul\":18638:18639   */\n      0x00\n        /* \"#utility.yul\":18627:18636   */\n      dup4\n        /* \"#utility.yul\":18623:18640   */\n      add\n        /* \"#utility.yul\":18614:18620   */\n      dup5\n        /* \"#utility.yul\":18572:18641   */\n      tag_358\n      jump\t// in\n    tag_589:\n        /* \"#utility.yul\":18430:18648   */\n      swap3\n      swap2\n      pop\n      pop\n      jump\t// out\n        /* \"#utility.yul\":18654:18762   */\n    tag_359:\n        /* \"#utility.yul\":18736:18737   */\n      0x02\n        /* \"#utility.yul\":18729:18734   */\n      dup2\n        /* \"#utility.yul\":18726:18738   */\n      lt\n        /* \"#utility.yul\":18716:18756   */\n      tag_591\n      jumpi\n        /* \"#utility.yul\":18752:18753   */\n      0x00\n        /* \"#utility.yul\":18749:18750   */\n      dup1\n        /* \"#utility.yul\":18742:18754   */\n      revert\n        /* \"#utility.yul\":18716:18756   */\n    tag_591:\n        /* \"#utility.yul\":18654:18762   */\n      pop\n      jump\t// out\n        /* \"#utility.yul\":18768:18925   */\n    tag_360:\n        /* \"#utility.yul\":18823:18828   */\n      0x00\n        /* \"#utility.yul\":18861:18867   */\n      dup2\n        /* \"#utility.yul\":18848:18868   */\n      calldataload\n        /* \"#utility.yul\":18839:18868   */\n      swap1\n      pop\n        /* \"#utility.yul\":18877:18919   */\n      tag_593\n        /* \"#utility.yul\":18913:18918   */\n      dup2\n        /* \"#utility.yul\":18877:18919   */\n      tag_359\n      jump\t// in\n    tag_593:\n        /* \"#utility.yul\":18768:18925   */\n      swap3\n      swap2\n      pop\n      pop\n      jump\t// out\n        /* \"#utility.yul\":18931:19860   */\n    tag_100:\n        /* \"#utility.yul\":19035:19041   */\n      0x00\n        /* \"#utility.yul\":19043:19049   */\n      dup1\n        /* \"#utility.yul\":19051:19057   */\n      0x00\n        /* \"#utility.yul\":19059:19065   */\n      dup1\n        /* \"#utility.yul\":19067:19073   */\n      0x00\n        /* \"#utility.yul\":19116:19119   */\n      0xa0\n        /* \"#utility.yul\":19104:19113   */\n      dup7\n        /* \"#utility.yul\":19095:19102   */\n      dup9\n        /* \"#utility.yul\":19091:19114   */\n      sub\n        /* \"#utility.yul\":19087:19120   */\n      slt\n        /* \"#utility.yul\":19084:19204   */\n      iszero\n      tag_595\n      jumpi\n        /* \"#utility.yul\":19123:19202   */\n      tag_596\n      tag_308\n      jump\t// in\n    tag_596:\n        /* \"#utility.yul\":19084:19204   */\n    tag_595:\n        /* \"#utility.yul\":19243:19244   */\n      0x00\n        /* \"#utility.yul\":19268:19330   */\n      tag_597\n        /* \"#utility.yul\":19322:19329   */\n      dup9\n        /* \"#utility.yul\":19313:19319   */\n      dup3\n        /* \"#utility.yul\":19302:19311   */\n      dup10\n        /* \"#utility.yul\":19298:19320   */\n      add\n        /* \"#utility.yul\":19268:19330   */\n      tag_360\n      jump\t// in\n    tag_597:\n        /* \"#utility.yul\":19258:19330   */\n      swap6\n      pop\n        /* \"#utility.yul\":19214:19340   */\n      pop\n        /* \"#utility.yul\":19379:19381   */\n      0x20\n        /* \"#utility.yul\":19405:19458   */\n      tag_598\n        /* \"#utility.yul\":19450:19457   */\n      dup9\n        /* \"#utility.yul\":19441:19447   */\n      dup3\n        /* \"#utility.yul\":19430:19439   */\n      dup10\n        /* \"#utility.yul\":19426:19448   */\n      add\n        /* \"#utility.yul\":19405:19458   */\n      tag_335\n      jump\t// in\n    tag_598:\n        /* \"#utility.yul\":19395:19458   */\n      swap5\n      pop\n        /* \"#utility.yul\":19350:19468   */\n      pop\n        /* \"#utility.yul\":19507:19509   */\n      0x40\n        /* \"#utility.yul\":19533:19586   */\n      tag_599\n        /* \"#utility.yul\":19578:19585   */\n      dup9\n        /* \"#utility.yul\":19569:19575   */\n      dup3\n        /* \"#utility.yul\":19558:19567   */\n      dup10\n        /* \"#utility.yul\":19554:19576   */\n      add\n        /* \"#utility.yul\":19533:19586   */\n      tag_335\n      jump\t// in\n    tag_599:\n        /* \"#utility.yul\":19523:19586   */\n      swap4\n      pop\n        /* \"#utility.yul\":19478:19596   */\n      pop\n        /* \"#utility.yul\":19635:19637   */\n      0x60\n        /* \"#utility.yul\":19661:19714   */\n      tag_600\n        /* \"#utility.yul\":19706:19713   */\n      dup9\n        /* \"#utility.yul\":19697:19703   */\n      dup3\n        /* \"#utility.yul\":19686:19695   */\n      dup10\n        /* \"#utility.yul\":19682:19704   */\n      add\n        /* \"#utility.yul\":19661:19714   */\n      tag_335\n      jump\t// in\n    tag_600:\n        /* \"#utility.yul\":19651:19714   */\n      swap3\n      pop\n        /* \"#utility.yul\":19606:19724   */\n      pop\n        /* \"#utility.yul\":19763:19766   */\n      0x80\n        /* \"#utility.yul\":19790:19843   */\n      tag_601\n        /* \"#utility.yul\":19835:19842   */\n      dup9\n        /* \"#utility.yul\":19826:19832   */\n      dup3\n        /* \"#utility.yul\":19815:19824   */\n      dup10\n        /* \"#utility.yul\":19811:19833   */\n      add\n        /* \"#utility.yul\":19790:19843   */\n      tag_335\n      jump\t// in\n    tag_601:\n        /* \"#utility.yul\":19780:19843   */\n      swap2\n      pop\n        /* \"#utility.yul\":19734:19853   */\n      pop\n        /* \"#utility.yul\":18931:19860   */\n      swap3\n      swap6\n      pop\n      swap3\n      swap6\n      swap1\n      swap4\n      pop\n      jump\t// out\n        /* \"#utility.yul\":19866:20955   */\n    tag_107:\n        /* \"#utility.yul\":19970:19976   */\n      0x00\n        /* \"#utility.yul\":19978:19984   */\n      dup1\n        /* \"#utility.yul\":19986:19992   */\n      0x00\n        /* \"#utility.yul\":19994:20000   */\n      dup1\n        /* \"#utility.yul\":20002:20008   */\n      0x00\n        /* \"#utility.yul\":20051:20054   */\n      0xa0\n        /* \"#utility.yul\":20039:20048   */\n      dup7\n        /* \"#utility.yul\":20030:20037   */\n      dup9\n        /* \"#utility.yul\":20026:20049   */\n      sub\n        /* \"#utility.yul\":20022:20055   */\n      slt\n        /* \"#utility.yul\":20019:20139   */\n      iszero\n      tag_603\n      jumpi\n        /* \"#utility.yul\":20058:20137   */\n      tag_604\n      tag_308\n      jump\t// in\n    tag_604:\n        /* \"#utility.yul\":20019:20139   */\n    tag_603:\n        /* \"#utility.yul\":20178:20179   */\n      0x00\n        /* \"#utility.yul\":20203:20256   */\n      tag_605\n        /* \"#utility.yul\":20248:20255   */\n      dup9\n        /* \"#utility.yul\":20239:20245   */\n      dup3\n        /* \"#utility.yul\":20228:20237   */\n      dup10\n        /* \"#utility.yul\":20224:20246   */\n      add\n        /* \"#utility.yul\":20203:20256   */\n      tag_321\n      jump\t// in\n    tag_605:\n        /* \"#utility.yul\":20193:20256   */\n      swap6\n      pop\n        /* \"#utility.yul\":20149:20266   */\n      pop\n        /* \"#utility.yul\":20305:20307   */\n      0x20\n        /* \"#utility.yul\":20331:20384   */\n      tag_606\n        /* \"#utility.yul\":20376:20383   */\n      dup9\n        /* \"#utility.yul\":20367:20373   */\n      dup3\n        /* \"#utility.yul\":20356:20365   */\n      dup10\n        /* \"#utility.yul\":20352:20374   */\n      add\n        /* \"#utility.yul\":20331:20384   */\n      tag_321\n      jump\t// in\n    tag_606:\n        /* \"#utility.yul\":20321:20384   */\n      swap5\n      pop\n        /* \"#utility.yul\":20276:20394   */\n      pop\n        /* \"#utility.yul\":20433:20435   */\n      0x40\n        /* \"#utility.yul\":20459:20512   */\n      tag_607\n        /* \"#utility.yul\":20504:20511   */\n      dup9\n        /* \"#utility.yul\":20495:20501   */\n      dup3\n        /* \"#utility.yul\":20484:20493   */\n      dup10\n        /* \"#utility.yul\":20480:20502   */\n      add\n        /* \"#utility.yul\":20459:20512   */\n      tag_335\n      jump\t// in\n    tag_607:\n        /* \"#utility.yul\":20449:20512   */\n      swap4\n      pop\n        /* \"#utility.yul\":20404:20522   */\n      pop\n        /* \"#utility.yul\":20561:20563   */\n      0x60\n        /* \"#utility.yul\":20587:20640   */\n      tag_608\n        /* \"#utility.yul\":20632:20639   */\n      dup9\n        /* \"#utility.yul\":20623:20629   */\n      dup3\n        /* \"#utility.yul\":20612:20621   */\n      dup10\n        /* \"#utility.yul\":20608:20630   */\n      add\n        /* \"#utility.yul\":20587:20640   */\n      tag_335\n      jump\t// in\n    tag_608:\n        /* \"#utility.yul\":20577:20640   */\n      swap3\n      pop\n        /* \"#utility.yul\":20532:20650   */\n      pop\n        /* \"#utility.yul\":20717:20720   */\n      0x80\n        /* \"#utility.yul\":20706:20715   */\n      dup7\n        /* \"#utility.yul\":20702:20721   */\n      add\n        /* \"#utility.yul\":20689:20722   */\n      calldataload\n        /* \"#utility.yul\":20749:20767   */\n      0xffffffffffffffff\n        /* \"#utility.yul\":20741:20747   */\n      dup2\n        /* \"#utility.yul\":20738:20768   */\n      gt\n        /* \"#utility.yul\":20735:20852   */\n      iszero\n      tag_609\n      jumpi\n        /* \"#utility.yul\":20771:20850   */\n      tag_610\n      tag_309\n      jump\t// in\n    tag_610:\n        /* \"#utility.yul\":20735:20852   */\n    tag_609:\n        /* \"#utility.yul\":20876:20938   */\n      tag_611\n        /* \"#utility.yul\":20930:20937   */\n      dup9\n        /* \"#utility.yul\":20921:20927   */\n      dup3\n        /* \"#utility.yul\":20910:20919   */\n      dup10\n        /* \"#utility.yul\":20906:20928   */\n      add\n        /* \"#utility.yul\":20876:20938   */\n      tag_357\n      jump\t// in\n    tag_611:\n        /* \"#utility.yul\":20866:20938   */\n      swap2\n      pop\n        /* \"#utility.yul\":20660:20948   */\n      pop\n        /* \"#utility.yul\":19866:20955   */\n      swap3\n      swap6\n      pop\n      swap3\n      swap6\n      swap1\n      swap4\n      pop\n      jump\t// out\n        /* \"#utility.yul\":20961:21290   */\n    tag_115:\n        /* \"#utility.yul\":21020:21026   */\n      0x00\n        /* \"#utility.yul\":21069:21071   */\n      0x20\n        /* \"#utility.yul\":21057:21066   */\n      dup3\n        /* \"#utility.yul\":21048:21055   */\n      dup5\n        /* \"#utility.yul\":21044:21067   */\n      sub\n        /* \"#utility.yul\":21040:21072   */\n      slt\n        /* \"#utility.yul\":21037:21156   */\n      iszero\n      tag_613\n      jumpi\n        /* \"#utility.yul\":21075:21154   */\n      tag_614\n      tag_308\n      jump\t// in\n    tag_614:\n        /* \"#utility.yul\":21037:21156   */\n    tag_613:\n        /* \"#utility.yul\":21195:21196   */\n      0x00\n        /* \"#utility.yul\":21220:21273   */\n      tag_615\n        /* \"#utility.yul\":21265:21272   */\n      dup5\n        /* \"#utility.yul\":21256:21262   */\n      dup3\n        /* \"#utility.yul\":21245:21254   */\n      dup6\n        /* \"#utility.yul\":21241:21263   */\n      add\n        /* \"#utility.yul\":21220:21273   */\n      tag_335\n      jump\t// in\n    tag_615:\n        /* \"#utility.yul\":21210:21273   */\n      swap2\n      pop\n        /* \"#utility.yul\":21166:21283   */\n      pop\n        /* \"#utility.yul\":20961:21290   */\n      swap3\n      swap2\n      pop\n      pop\n      jump\t// out\n        /* \"#utility.yul\":21296:21411   */\n    tag_361:\n        /* \"#utility.yul\":21381:21404   */\n      tag_617\n        /* \"#utility.yul\":21398:21403   */\n      dup2\n        /* \"#utility.yul\":21381:21404   */\n      tag_315\n      jump\t// in\n    tag_617:\n        /* \"#utility.yul\":21376:21379   */\n      dup3\n        /* \"#utility.yul\":21369:21405   */\n      mstore\n        /* \"#utility.yul\":21296:21411   */\n      pop\n      pop\n      jump\t// out\n        /* \"#utility.yul\":21417:21635   */\n    tag_123:\n        /* \"#utility.yul\":21508:21512   */\n      0x00\n        /* \"#utility.yul\":21546:21548   */\n      0x20\n        /* \"#utility.yul\":21535:21544   */\n      dup3\n        /* \"#utility.yul\":21531:21549   */\n      add\n        /* \"#utility.yul\":21523:21549   */\n      swap1\n      pop\n        /* \"#utility.yul\":21559:21628   */\n      tag_619\n        /* \"#utility.yul\":21625:21626   */\n      0x00\n        /* \"#utility.yul\":21614:21623   */\n      dup4\n        /* \"#utility.yul\":21610:21627   */\n      add\n        /* \"#utility.yul\":21601:21607   */\n      dup5\n        /* \"#utility.yul\":21559:21628   */\n      tag_361\n      jump\t// in\n    tag_619:\n        /* \"#utility.yul\":21417:21635   */\n      swap3\n      swap2\n      pop\n      pop\n      jump\t// out\n        /* \"#utility.yul\":21641:21809   */\n    tag_362:\n        /* \"#utility.yul\":21724:21735   */\n      0x00\n        /* \"#utility.yul\":21758:21764   */\n      dup3\n        /* \"#utility.yul\":21753:21756   */\n      dup3\n        /* \"#utility.yul\":21746:21765   */\n      mstore\n        /* \"#utility.yul\":21798:21802   */\n      0x20\n        /* \"#utility.yul\":21793:21796   */\n      dup3\n        /* \"#utility.yul\":21789:21803   */\n      add\n        /* \"#utility.yul\":21774:21803   */\n      swap1\n      pop\n        /* \"#utility.yul\":21641:21809   */\n      swap3\n      swap2\n      pop\n      pop\n      jump\t// out\n        /* \"#utility.yul\":21815:21929   */\n    tag_363:\n      pop\n      jump\t// out\n        /* \"#utility.yul\":21935:22297   */\n    tag_364:\n        /* \"#utility.yul\":22076:22079   */\n      0x00\n        /* \"#utility.yul\":22097:22162   */\n      tag_623\n        /* \"#utility.yul\":22160:22161   */\n      0x00\n        /* \"#utility.yul\":22155:22158   */\n      dup4\n        /* \"#utility.yul\":22097:22162   */\n      tag_362\n      jump\t// in\n    tag_623:\n        /* \"#utility.yul\":22090:22162   */\n      swap2\n      pop\n        /* \"#utility.yul\":22171:22264   */\n      tag_624\n        /* \"#utility.yul\":22260:22263   */\n      dup3\n        /* \"#utility.yul\":22171:22264   */\n      tag_363\n      jump\t// in\n    tag_624:\n        /* \"#utility.yul\":22289:22290   */\n      0x00\n        /* \"#utility.yul\":22284:22287   */\n      dup3\n        /* \"#utility.yul\":22280:22291   */\n      add\n        /* \"#utility.yul\":22273:22291   */\n      swap1\n      pop\n        /* \"#utility.yul\":21935:22297   */\n      swap2\n      swap1\n      pop\n      jump\t// out\n        /* \"#utility.yul\":22303:23162   */\n    tag_138:\n        /* \"#utility.yul\":22580:22584   */\n      0x00\n        /* \"#utility.yul\":22618:22621   */\n      0xa0\n        /* \"#utility.yul\":22607:22616   */\n      dup3\n        /* \"#utility.yul\":22603:22622   */\n      add\n        /* \"#utility.yul\":22595:22622   */\n      swap1\n      pop\n        /* \"#utility.yul\":22632:22703   */\n      tag_626\n        /* \"#utility.yul\":22700:22701   */\n      0x00\n        /* \"#utility.yul\":22689:22698   */\n      dup4\n        /* \"#utility.yul\":22685:22702   */\n      add\n        /* \"#utility.yul\":22676:22682   */\n      dup8\n        /* \"#utility.yul\":22632:22703   */\n      tag_333\n      jump\t// in\n    tag_626:\n        /* \"#utility.yul\":22713:22785   */\n      tag_627\n        /* \"#utility.yul\":22781:22783   */\n      0x20\n        /* \"#utility.yul\":22770:22779   */\n      dup4\n        /* \"#utility.yul\":22766:22784   */\n      add\n        /* \"#utility.yul\":22757:22763   */\n      dup7\n        /* \"#utility.yul\":22713:22785   */\n      tag_333\n      jump\t// in\n    tag_627:\n        /* \"#utility.yul\":22795:22867   */\n      tag_628\n        /* \"#utility.yul\":22863:22865   */\n      0x40\n        /* \"#utility.yul\":22852:22861   */\n      dup4\n        /* \"#utility.yul\":22848:22866   */\n      add\n        /* \"#utility.yul\":22839:22845   */\n      dup6\n        /* \"#utility.yul\":22795:22867   */\n      tag_332\n      jump\t// in\n    tag_628:\n        /* \"#utility.yul\":22877:22949   */\n      tag_629\n        /* \"#utility.yul\":22945:22947   */\n      0x60\n        /* \"#utility.yul\":22934:22943   */\n      dup4\n        /* \"#utility.yul\":22930:22948   */\n      add\n        /* \"#utility.yul\":22921:22927   */\n      dup5\n        /* \"#utility.yul\":22877:22949   */\n      tag_332\n      jump\t// in\n    tag_629:\n        /* \"#utility.yul\":22997:23006   */\n      dup2\n        /* \"#utility.yul\":22991:22995   */\n      dup2\n        /* \"#utility.yul\":22987:23007   */\n      sub\n        /* \"#utility.yul\":22981:22984   */\n      0x80\n        /* \"#utility.yul\":22970:22979   */\n      dup4\n        /* \"#utility.yul\":22966:22985   */\n      add\n        /* \"#utility.yul\":22959:23008   */\n      mstore\n        /* \"#utility.yul\":23025:23155   */\n      tag_630\n        /* \"#utility.yul\":23150:23154   */\n      dup2\n        /* \"#utility.yul\":23025:23155   */\n      tag_364\n      jump\t// in\n    tag_630:\n        /* \"#utility.yul\":23017:23155   */\n      swap1\n      pop\n        /* \"#utility.yul\":22303:23162   */\n      swap6\n      swap5\n      pop\n      pop\n      pop\n      pop\n      pop\n      jump\t// out\n        /* \"#utility.yul\":23168:23500   */\n    tag_143:\n        /* \"#utility.yul\":23289:23293   */\n      0x00\n        /* \"#utility.yul\":23327:23329   */\n      0x40\n        /* \"#utility.yul\":23316:23325   */\n      dup3\n        /* \"#utility.yul\":23312:23330   */\n      add\n        /* \"#utility.yul\":23304:23330   */\n      swap1\n      pop\n        /* \"#utility.yul\":23340:23411   */\n      tag_632\n        /* \"#utility.yul\":23408:23409   */\n      0x00\n        /* \"#utility.yul\":23397:23406   */\n      dup4\n        /* \"#utility.yul\":23393:23410   */\n      add\n        /* \"#utility.yul\":23384:23390   */\n      dup6\n        /* \"#utility.yul\":23340:23411   */\n      tag_333\n      jump\t// in\n    tag_632:\n        /* \"#utility.yul\":23421:23493   */\n      tag_633\n        /* \"#utility.yul\":23489:23491   */\n      0x20\n        /* \"#utility.yul\":23478:23487   */\n      dup4\n        /* \"#utility.yul\":23474:23492   */\n      add\n        /* \"#utility.yul\":23465:23471   */\n      dup5\n        /* \"#utility.yul\":23421:23493   */\n      tag_332\n      jump\t// in\n    tag_633:\n        /* \"#utility.yul\":23168:23500   */\n      swap4\n      swap3\n      pop\n      pop\n      pop\n      jump\t// out\n        /* \"#utility.yul\":23506:23643   */\n    tag_365:\n        /* \"#utility.yul\":23560:23565   */\n      0x00\n        /* \"#utility.yul\":23591:23597   */\n      dup2\n        /* \"#utility.yul\":23585:23598   */\n      mload\n        /* \"#utility.yul\":23576:23598   */\n      swap1\n      pop\n        /* \"#utility.yul\":23607:23637   */\n      tag_635\n        /* \"#utility.yul\":23631:23636   */\n      dup2\n        /* \"#utility.yul\":23607:23637   */\n      tag_329\n      jump\t// in\n    tag_635:\n        /* \"#utility.yul\":23506:23643   */\n      swap3\n      swap2\n      pop\n      pop\n      jump\t// out\n        /* \"#utility.yul\":23649:23994   */\n    tag_147:\n        /* \"#utility.yul\":23716:23722   */\n      0x00\n        /* \"#utility.yul\":23765:23767   */\n      0x20\n        /* \"#utility.yul\":23753:23762   */\n      dup3\n        /* \"#utility.yul\":23744:23751   */\n      dup5\n        /* \"#utility.yul\":23740:23763   */\n      sub\n        /* \"#utility.yul\":23736:23768   */\n      slt\n        /* \"#utility.yul\":23733:23852   */\n      iszero\n      tag_637\n      jumpi\n        /* \"#utility.yul\":23771:23850   */\n      tag_638\n      tag_308\n      jump\t// in\n    tag_638:\n        /* \"#utility.yul\":23733:23852   */\n    tag_637:\n        /* \"#utility.yul\":23891:23892   */\n      0x00\n        /* \"#utility.yul\":23916:23977   */\n      tag_639\n        /* \"#utility.yul\":23969:23976   */\n      dup5\n        /* \"#utility.yul\":23960:23966   */\n      dup3\n        /* \"#utility.yul\":23949:23958   */\n      dup6\n        /* \"#utility.yul\":23945:23967   */\n      add\n        /* \"#utility.yul\":23916:23977   */\n      tag_365\n      jump\t// in\n    tag_639:\n        /* \"#utility.yul\":23906:23977   */\n      swap2\n      pop\n        /* \"#utility.yul\":23862:23987   */\n      pop\n        /* \"#utility.yul\":23649:23994   */\n      swap3\n      swap2\n      pop\n      pop\n      jump\t// out\n        /* \"#utility.yul\":24000:24328   */\n    tag_149:\n        /* \"#utility.yul\":24119:24123   */\n      0x00\n        /* \"#utility.yul\":24157:24159   */\n      0x40\n        /* \"#utility.yul\":24146:24155   */\n      dup3\n        /* \"#utility.yul\":24142:24160   */\n      add\n        /* \"#utility.yul\":24134:24160   */\n      swap1\n      pop\n        /* \"#utility.yul\":24170:24239   */\n      tag_641\n        /* \"#utility.yul\":24236:24237   */\n      0x00\n        /* \"#utility.yul\":24225:24234   */\n      dup4\n        /* \"#utility.yul\":24221:24238   */\n      add\n        /* \"#utility.yul\":24212:24218   */\n      dup6\n        /* \"#utility.yul\":24170:24239   */\n      tag_361\n      jump\t// in\n    tag_641:\n        /* \"#utility.yul\":24249:24321   */\n      tag_642\n        /* \"#utility.yul\":24317:24319   */\n      0x20\n        /* \"#utility.yul\":24306:24315   */\n      dup4\n        /* \"#utility.yul\":24302:24320   */\n      add\n        /* \"#utility.yul\":24293:24299   */\n      dup5\n        /* \"#utility.yul\":24249:24321   */\n      tag_332\n      jump\t// in\n    tag_642:\n        /* \"#utility.yul\":24000:24328   */\n      swap4\n      swap3\n      pop\n      pop\n      pop\n      jump\t// out\n        /* \"#utility.yul\":24334:24503   */\n    tag_366:\n        /* \"#utility.yul\":24418:24429   */\n      0x00\n        /* \"#utility.yul\":24452:24458   */\n      dup3\n        /* \"#utility.yul\":24447:24450   */\n      dup3\n        /* \"#utility.yul\":24440:24459   */\n      mstore\n        /* \"#utility.yul\":24492:24496   */\n      0x20\n        /* \"#utility.yul\":24487:24490   */\n      dup3\n        /* \"#utility.yul\":24483:24497   */\n      add\n        /* \"#utility.yul\":24468:24497   */\n      swap1\n      pop\n        /* \"#utility.yul\":24334:24503   */\n      swap3\n      swap2\n      pop\n      pop\n      jump\t// out\n        /* \"#utility.yul\":24509:24730   */\n    tag_367:\n        /* \"#utility.yul\":24649:24683   */\n      0x41646d696e61626c653a2063616c6c6572206973206e6f7420746865206f776e\n        /* \"#utility.yul\":24645:24646   */\n      0x00\n        /* \"#utility.yul\":24637:24643   */\n      dup3\n        /* \"#utility.yul\":24633:24647   */\n      add\n        /* \"#utility.yul\":24626:24684   */\n      mstore\n        /* \"#utility.yul\":24718:24722   */\n      0x6572000000000000000000000000000000000000000000000000000000000000\n        /* \"#utility.yul\":24713:24715   */\n      0x20\n        /* \"#utility.yul\":24705:24711   */\n      dup3\n        /* \"#utility.yul\":24701:24716   */\n      add\n        /* \"#utility.yul\":24694:24723   */\n      mstore\n        /* \"#utility.yul\":24509:24730   */\n      pop\n      jump\t// out\n        /* \"#utility.yul\":24736:25102   */\n    tag_368:\n        /* \"#utility.yul\":24878:24881   */\n      0x00\n        /* \"#utility.yul\":24899:24966   */\n      tag_646\n        /* \"#utility.yul\":24963:24965   */\n      0x22\n        /* \"#utility.yul\":24958:24961   */\n      dup4\n        /* \"#utility.yul\":24899:24966   */\n      tag_366\n      jump\t// in\n    tag_646:\n        /* \"#utility.yul\":24892:24966   */\n      swap2\n      pop\n        /* \"#utility.yul\":24975:25068   */\n      tag_647\n        /* \"#utility.yul\":25064:25067   */\n      dup3\n        /* \"#utility.yul\":24975:25068   */\n      tag_367\n      jump\t// in\n    tag_647:\n        /* \"#utility.yul\":25093:25095   */\n      0x40\n        /* \"#utility.yul\":25088:25091   */\n      dup3\n        /* \"#utility.yul\":25084:25096   */\n      add\n        /* \"#utility.yul\":25077:25096   */\n      swap1\n      pop\n        /* \"#utility.yul\":24736:25102   */\n      swap2\n      swap1\n      pop\n      jump\t// out\n        /* \"#utility.yul\":25108:25527   */\n    tag_159:\n        /* \"#utility.yul\":25274:25278   */\n      0x00\n        /* \"#utility.yul\":25312:25314   */\n      0x20\n        /* \"#utility.yul\":25301:25310   */\n      dup3\n        /* \"#utility.yul\":25297:25315   */\n      add\n        /* \"#utility.yul\":25289:25315   */\n      swap1\n      pop\n        /* \"#utility.yul\":25361:25370   */\n      dup2\n        /* \"#utility.yul\":25355:25359   */\n      dup2\n        /* \"#utility.yul\":25351:25371   */\n      sub\n        /* \"#utility.yul\":25347:25348   */\n      0x00\n        /* \"#utility.yul\":25336:25345   */\n      dup4\n        /* \"#utility.yul\":25332:25349   */\n      add\n        /* \"#utility.yul\":25325:25372   */\n      mstore\n        /* \"#utility.yul\":25389:25520   */\n      tag_649\n        /* \"#utility.yul\":25515:25519   */\n      dup2\n        /* \"#utility.yul\":25389:25520   */\n      tag_368\n      jump\t// in\n    tag_649:\n        /* \"#utility.yul\":25381:25520   */\n      swap1\n      pop\n        /* \"#utility.yul\":25108:25527   */\n      swap2\n      swap1\n      pop\n      jump\t// out\n        /* \"#utility.yul\":25533:25841   */\n    tag_162:\n        /* \"#utility.yul\":25642:25646   */\n      0x00\n        /* \"#utility.yul\":25680:25682   */\n      0x40\n        /* \"#utility.yul\":25669:25678   */\n      dup3\n        /* \"#utility.yul\":25665:25683   */\n      add\n        /* \"#utility.yul\":25657:25683   */\n      swap1\n      pop\n        /* \"#utility.yul\":25693:25758   */\n      tag_651\n        /* \"#utility.yul\":25755:25756   */\n      0x00\n        /* \"#utility.yul\":25744:25753   */\n      dup4\n        /* \"#utility.yul\":25740:25757   */\n      add\n        /* \"#utility.yul\":25731:25737   */\n      dup6\n        /* \"#utility.yul\":25693:25758   */\n      tag_314\n      jump\t// in\n    tag_651:\n        /* \"#utility.yul\":25768:25834   */\n      tag_652\n        /* \"#utility.yul\":25830:25832   */\n      0x20\n        /* \"#utility.yul\":25819:25828   */\n      dup4\n        /* \"#utility.yul\":25815:25833   */\n      add\n        /* \"#utility.yul\":25806:25812   */\n      dup5\n        /* \"#utility.yul\":25768:25834   */\n      tag_314\n      jump\t// in\n    tag_652:\n        /* \"#utility.yul\":25533:25841   */\n      swap4\n      swap3\n      pop\n      pop\n      pop\n      jump\t// out\n        /* \"#utility.yul\":25847:26027   */\n    tag_369:\n        /* \"#utility.yul\":25895:25972   */\n      0x4e487b7100000000000000000000000000000000000000000000000000000000\n        /* \"#utility.yul\":25892:25893   */\n      0x00\n        /* \"#utility.yul\":25885:25973   */\n      mstore\n        /* \"#utility.yul\":25992:25996   */\n      0x11\n        /* \"#utility.yul\":25989:25990   */\n      0x04\n        /* \"#utility.yul\":25982:25997   */\n      mstore\n        /* \"#utility.yul\":26016:26020   */\n      0x24\n        /* \"#utility.yul\":26013:26014   */\n      0x00\n        /* \"#utility.yul\":26006:26021   */\n      revert\n        /* \"#utility.yul\":26033:26381   */\n    tag_173:\n        /* \"#utility.yul\":26073:26080   */\n      0x00\n        /* \"#utility.yul\":26096:26116   */\n      tag_655\n        /* \"#utility.yul\":26114:26115   */\n      dup3\n        /* \"#utility.yul\":26096:26116   */\n      tag_331\n      jump\t// in\n    tag_655:\n        /* \"#utility.yul\":26091:26116   */\n      swap2\n      pop\n        /* \"#utility.yul\":26130:26150   */\n      tag_656\n        /* \"#utility.yul\":26148:26149   */\n      dup4\n        /* \"#utility.yul\":26130:26150   */\n      tag_331\n      jump\t// in\n    tag_656:\n        /* \"#utility.yul\":26125:26150   */\n      swap3\n      pop\n        /* \"#utility.yul\":26318:26319   */\n      dup2\n        /* \"#utility.yul\":26250:26316   */\n      0xffffffffffffffffffffffffffffffffffffffffffffffffffffffffffffffff\n        /* \"#utility.yul\":26246:26320   */\n      div\n        /* \"#utility.yul\":26243:26244   */\n      dup4\n        /* \"#utility.yul\":26240:26321   */\n      gt\n        /* \"#utility.yul\":26235:26236   */\n      dup3\n        /* \"#utility.yul\":26228:26237   */\n      iszero\n        /* \"#utility.yul\":26221:26238   */\n      iszero\n        /* \"#utility.yul\":26217:26322   */\n      and\n        /* \"#utility.yul\":26214:26345   */\n      iszero\n      tag_657\n      jumpi\n        /* \"#utility.yul\":26325:26343   */\n      tag_658\n      tag_369\n      jump\t// in\n    tag_658:\n        /* \"#utility.yul\":26214:26345   */\n    tag_657:\n        /* \"#utility.yul\":26373:26374   */\n      dup3\n        /* \"#utility.yul\":26370:26371   */\n      dup3\n        /* \"#utility.yul\":26366:26375   */\n      mul\n        /* \"#utility.yul\":26355:26375   */\n      swap1\n      pop\n        /* \"#utility.yul\":26033:26381   */\n      swap3\n      swap2\n      pop\n      pop\n      jump\t// out\n        /* \"#utility.yul\":26387:26567   */\n    tag_370:\n        /* \"#utility.yul\":26435:26512   */\n      0x4e487b7100000000000000000000000000000000000000000000000000000000\n        /* \"#utility.yul\":26432:26433   */\n      0x00\n        /* \"#utility.yul\":26425:26513   */\n      mstore\n        /* \"#utility.yul\":26532:26536   */\n      0x12\n        /* \"#utility.yul\":26529:26530   */\n      0x04\n        /* \"#utility.yul\":26522:26537   */\n      mstore\n        /* \"#utility.yul\":26556:26560   */\n      0x24\n        /* \"#utility.yul\":26553:26554   */\n      0x00\n        /* \"#utility.yul\":26546:26561   */\n      revert\n        /* \"#utility.yul\":26573:26758   */\n    tag_176:\n        /* \"#utility.yul\":26613:26614   */\n      0x00\n        /* \"#utility.yul\":26630:26650   */\n      tag_661\n        /* \"#utility.yul\":26648:26649   */\n      dup3\n        /* \"#utility.yul\":26630:26650   */\n      tag_331\n      jump\t// in\n    tag_661:\n        /* \"#utility.yul\":26625:26650   */\n      swap2\n      pop\n        /* \"#utility.yul\":26664:26684   */\n      tag_662\n        /* \"#utility.yul\":26682:26683   */\n      dup4\n        /* \"#utility.yul\":26664:26684   */\n      tag_331\n      jump\t// in\n    tag_662:\n        /* \"#utility.yul\":26659:26684   */\n      swap3\n      pop\n        /* \"#utility.yul\":26703:26704   */\n      dup3\n        /* \"#utility.yul\":26693:26728   */\n      tag_663\n      jumpi\n        /* \"#utility.yul\":26708:26726   */\n      tag_664\n      tag_370\n      jump\t// in\n    tag_664:\n        /* \"#utility.yul\":26693:26728   */\n    tag_663:\n        /* \"#utility.yul\":26750:26751   */\n      dup3\n        /* \"#utility.yul\":26747:26748   */\n      dup3\n        /* \"#utility.yul\":26743:26752   */\n      div\n        /* \"#utility.yul\":26738:26752   */\n      swap1\n      pop\n        /* \"#utility.yul\":26573:26758   */\n      swap3\n      swap2\n      pop\n      pop\n      jump\t// out\n        /* \"#utility.yul\":26764:26928   */\n    tag_371:\n        /* \"#utility.yul\":26904:26920   */\n      0x416d6f756e74206973207a65726f000000000000000000000000000000000000\n        /* \"#utility.yul\":26900:26901   */\n      0x00\n        /* \"#utility.yul\":26892:26898   */\n      dup3\n        /* \"#utility.yul\":26888:26902   */\n      add\n        /* \"#utility.yul\":26881:26921   */\n      mstore\n        /* \"#utility.yul\":26764:26928   */\n      pop\n      jump\t// out\n        /* \"#utility.yul\":26934:27300   */\n    tag_372:\n        /* \"#utility.yul\":27076:27079   */\n      0x00\n        /* \"#utility.yul\":27097:27164   */\n      tag_667\n        /* \"#utility.yul\":27161:27163   */\n      0x0e\n        /* \"#utility.yul\":27156:27159   */\n      dup4\n        /* \"#utility.yul\":27097:27164   */\n      tag_366\n      jump\t// in\n    tag_667:\n        /* \"#utility.yul\":27090:27164   */\n      swap2\n      pop\n        /* \"#utility.yul\":27173:27266   */\n      tag_668\n        /* \"#utility.yul\":27262:27265   */\n      dup3\n        /* \"#utility.yul\":27173:27266   */\n      tag_371\n      jump\t// in\n    tag_668:\n        /* \"#utility.yul\":27291:27293   */\n      0x20\n        /* \"#utility.yul\":27286:27289   */\n      dup3\n        /* \"#utility.yul\":27282:27294   */\n      add\n        /* \"#utility.yul\":27275:27294   */\n      swap1\n      pop\n        /* \"#utility.yul\":26934:27300   */\n      swap2\n      swap1\n      pop\n      jump\t// out\n        /* \"#utility.yul\":27306:27725   */\n    tag_181:\n        /* \"#utility.yul\":27472:27476   */\n      0x00\n        /* \"#utility.yul\":27510:27512   */\n      0x20\n        /* \"#utility.yul\":27499:27508   */\n      dup3\n        /* \"#utility.yul\":27495:27513   */\n      add\n        /* \"#utility.yul\":27487:27513   */\n      swap1\n      pop\n        /* \"#utility.yul\":27559:27568   */\n      dup2\n        /* \"#utility.yul\":27553:27557   */\n      dup2\n        /* \"#utility.yul\":27549:27569   */\n      sub\n        /* \"#utility.yul\":27545:27546   */\n      0x00\n        /* \"#utility.yul\":27534:27543   */\n      dup4\n        /* \"#utility.yul\":27530:27547   */\n      add\n        /* \"#utility.yul\":27523:27570   */\n      mstore\n        /* \"#utility.yul\":27587:27718   */\n      tag_670\n        /* \"#utility.yul\":27713:27717   */\n      dup2\n        /* \"#utility.yul\":27587:27718   */\n      tag_372\n      jump\t// in\n    tag_670:\n        /* \"#utility.yul\":27579:27718   */\n      swap1\n      pop\n        /* \"#utility.yul\":27306:27725   */\n      swap2\n      swap1\n      pop\n      jump\t// out\n        /* \"#utility.yul\":27731:27889   */\n    tag_373:\n        /* \"#utility.yul\":27871:27881   */\n      0x4964206572726f72000000000000000000000000000000000000000000000000\n        /* \"#utility.yul\":27867:27868   */\n      0x00\n        /* \"#utility.yul\":27859:27865   */\n      dup3\n        /* \"#utility.yul\":27855:27869   */\n      add\n        /* \"#utility.yul\":27848:27882   */\n      mstore\n        /* \"#utility.yul\":27731:27889   */\n      pop\n      jump\t// out\n        /* \"#utility.yul\":27895:28260   */\n    tag_374:\n        /* \"#utility.yul\":28037:28040   */\n      0x00\n        /* \"#utility.yul\":28058:28124   */\n      tag_673\n        /* \"#utility.yul\":28122:28123   */\n      0x08\n        /* \"#utility.yul\":28117:28120   */\n      dup4\n        /* \"#utility.yul\":28058:28124   */\n      tag_366\n      jump\t// in\n    tag_673:\n        /* \"#utility.yul\":28051:28124   */\n      swap2\n      pop\n        /* \"#utility.yul\":28133:28226   */\n      tag_674\n        /* \"#utility.yul\":28222:28225   */\n      dup3\n        /* \"#utility.yul\":28133:28226   */\n      tag_373\n      jump\t// in\n    tag_674:\n        /* \"#utility.yul\":28251:28253   */\n      0x20\n        /* \"#utility.yul\":28246:28249   */\n      dup3\n        /* \"#utility.yul\":28242:28254   */\n      add\n        /* \"#utility.yul\":28235:28254   */\n      swap1\n      pop\n        /* \"#utility.yul\":27895:28260   */\n      swap2\n      swap1\n      pop\n      jump\t// out\n        /* \"#utility.yul\":28266:28685   */\n    tag_188:\n        /* \"#utility.yul\":28432:28436   */\n      0x00\n        /* \"#utility.yul\":28470:28472   */\n      0x20\n        /* \"#utility.yul\":28459:28468   */\n      dup3\n        /* \"#utility.yul\":28455:28473   */\n      add\n        /* \"#utility.yul\":28447:28473   */\n      swap1\n      pop\n        /* \"#utility.yul\":28519:28528   */\n      dup2\n        /* \"#utility.yul\":28513:28517   */\n      dup2\n        /* \"#utility.yul\":28509:28529   */\n      sub\n        /* \"#utility.yul\":28505:28506   */\n      0x00\n        /* \"#utility.yul\":28494:28503   */\n      dup4\n        /* \"#utility.yul\":28490:28507   */\n      add\n        /* \"#utility.yul\":28483:28530   */\n      mstore\n        /* \"#utility.yul\":28547:28678   */\n      tag_676\n        /* \"#utility.yul\":28673:28677   */\n      dup2\n        /* \"#utility.yul\":28547:28678   */\n      tag_374\n      jump\t// in\n    tag_676:\n        /* \"#utility.yul\":28539:28678   */\n      swap1\n      pop\n        /* \"#utility.yul\":28266:28685   */\n      swap2\n      swap1\n      pop\n      jump\t// out\n        /* \"#utility.yul\":28691:28860   */\n    tag_375:\n        /* \"#utility.yul\":28831:28852   */\n      0x4368616c6c656e6765206e6f7420737461727400000000000000000000000000\n        /* \"#utility.yul\":28827:28828   */\n      0x00\n        /* \"#utility.yul\":28819:28825   */\n      dup3\n        /* \"#utility.yul\":28815:28829   */\n      add\n        /* \"#utility.yul\":28808:28853   */\n      mstore\n        /* \"#utility.yul\":28691:28860   */\n      pop\n      jump\t// out\n        /* \"#utility.yul\":28866:29232   */\n    tag_376:\n        /* \"#utility.yul\":29008:29011   */\n      0x00\n        /* \"#utility.yul\":29029:29096   */\n      tag_679\n        /* \"#utility.yul\":29093:29095   */\n      0x13\n        /* \"#utility.yul\":29088:29091   */\n      dup4\n        /* \"#utility.yul\":29029:29096   */\n      tag_366\n      jump\t// in\n    tag_679:\n        /* \"#utility.yul\":29022:29096   */\n      swap2\n      pop\n        /* \"#utility.yul\":29105:29198   */\n      tag_680\n        /* \"#utility.yul\":29194:29197   */\n      dup3\n        /* \"#utility.yul\":29105:29198   */\n      tag_375\n      jump\t// in\n    tag_680:\n        /* \"#utility.yul\":29223:29225   */\n      0x20\n        /* \"#utility.yul\":29218:29221   */\n      dup3\n        /* \"#utility.yul\":29214:29226   */\n      add\n        /* \"#utility.yul\":29207:29226   */\n      swap1\n      pop\n        /* \"#utility.yul\":28866:29232   */\n      swap2\n      swap1\n      pop\n      jump\t// out\n        /* \"#utility.yul\":29238:29657   */\n    tag_191:\n        /* \"#utility.yul\":29404:29408   */\n      0x00\n        /* \"#utility.yul\":29442:29444   */\n      0x20\n        /* \"#utility.yul\":29431:29440   */\n      dup3\n        /* \"#utility.yul\":29427:29445   */\n      add\n        /* \"#utility.yul\":29419:29445   */\n      swap1\n      pop\n        /* \"#utility.yul\":29491:29500   */\n      dup2\n        /* \"#utility.yul\":29485:29489   */\n      dup2\n        /* \"#utility.yul\":29481:29501   */\n      sub\n        /* \"#utility.yul\":29477:29478   */\n      0x00\n        /* \"#utility.yul\":29466:29475   */\n      dup4\n        /* \"#utility.yul\":29462:29479   */\n      add\n        /* \"#utility.yul\":29455:29502   */\n      mstore\n        /* \"#utility.yul\":29519:29650   */\n      tag_682\n        /* \"#utility.yul\":29645:29649   */\n      dup2\n        /* \"#utility.yul\":29519:29650   */\n      tag_376\n      jump\t// in\n    tag_682:\n        /* \"#utility.yul\":29511:29650   */\n      swap1\n      pop\n        /* \"#utility.yul\":29238:29657   */\n      swap2\n      swap1\n      pop\n      jump\t// out\n        /* \"#utility.yul\":29663:29829   */\n    tag_377:\n        /* \"#utility.yul\":29803:29821   */\n      0x4368616c6c656e676520697320656e6400000000000000000000000000000000\n        /* \"#utility.yul\":29799:29800   */\n      0x00\n        /* \"#utility.yul\":29791:29797   */\n      dup3\n        /* \"#utility.yul\":29787:29801   */\n      add\n        /* \"#utility.yul\":29780:29822   */\n      mstore\n        /* \"#utility.yul\":29663:29829   */\n      pop\n      jump\t// out\n        /* \"#utility.yul\":29835:30201   */\n    tag_378:\n        /* \"#utility.yul\":29977:29980   */\n      0x00\n        /* \"#utility.yul\":29998:30065   */\n      tag_685\n        /* \"#utility.yul\":30062:30064   */\n      0x10\n        /* \"#utility.yul\":30057:30060   */\n      dup4\n        /* \"#utility.yul\":29998:30065   */\n      tag_366\n      jump\t// in\n    tag_685:\n        /* \"#utility.yul\":29991:30065   */\n      swap2\n      pop\n        /* \"#utility.yul\":30074:30167   */\n      tag_686\n        /* \"#utility.yul\":30163:30166   */\n      dup3\n        /* \"#utility.yul\":30074:30167   */\n      tag_377\n      jump\t// in\n    tag_686:\n        /* \"#utility.yul\":30192:30194   */\n      0x20\n        /* \"#utility.yul\":30187:30190   */\n      dup3\n        /* \"#utility.yul\":30183:30195   */\n      add\n        /* \"#utility.yul\":30176:30195   */\n      swap1\n      pop\n        /* \"#utility.yul\":29835:30201   */\n      swap2\n      swap1\n      pop\n      jump\t// out\n        /* \"#utility.yul\":30207:30626   */\n    tag_194:\n        /* \"#utility.yul\":30373:30377   */\n      0x00\n        /* \"#utility.yul\":30411:30413   */\n      0x20\n        /* \"#utility.yul\":30400:30409   */\n      dup3\n        /* \"#utility.yul\":30396:30414   */\n      add\n        /* \"#utility.yul\":30388:30414   */\n      swap1\n      pop\n        /* \"#utility.yul\":30460:30469   */\n      dup2\n        /* \"#utility.yul\":30454:30458   */\n      dup2\n        /* \"#utility.yul\":30450:30470   */\n      sub\n        /* \"#utility.yul\":30446:30447   */\n      0x00\n        /* \"#utility.yul\":30435:30444   */\n      dup4\n        /* \"#utility.yul\":30431:30448   */\n      add\n        /* \"#utility.yul\":30424:30471   */\n      mstore\n        /* \"#utility.yul\":30488:30619   */\n      tag_688\n        /* \"#utility.yul\":30614:30618   */\n      dup2\n        /* \"#utility.yul\":30488:30619   */\n      tag_378\n      jump\t// in\n    tag_688:\n        /* \"#utility.yul\":30480:30619   */\n      swap1\n      pop\n        /* \"#utility.yul\":30207:30626   */\n      swap2\n      swap1\n      pop\n      jump\t// out\n        /* \"#utility.yul\":30632:30853   */\n    tag_379:\n        /* \"#utility.yul\":30772:30806   */\n      0x53746172742074696d65206d757374206c657373207468616e20656e64207469\n        /* \"#utility.yul\":30768:30769   */\n      0x00\n        /* \"#utility.yul\":30760:30766   */\n      dup3\n        /* \"#utility.yul\":30756:30770   */\n      add\n        /* \"#utility.yul\":30749:30807   */\n      mstore\n        /* \"#utility.yul\":30841:30845   */\n      0x6d65000000000000000000000000000000000000000000000000000000000000\n        /* \"#utility.yul\":30836:30838   */\n      0x20\n        /* \"#utility.yul\":30828:30834   */\n      dup3\n        /* \"#utility.yul\":30824:30839   */\n      add\n        /* \"#utility.yul\":30817:30846   */\n      mstore\n        /* \"#utility.yul\":30632:30853   */\n      pop\n      jump\t// out\n        /* \"#utility.yul\":30859:31225   */\n    tag_380:\n        /* \"#utility.yul\":31001:31004   */\n      0x00\n        /* \"#utility.yul\":31022:31089   */\n      tag_691\n        /* \"#utility.yul\":31086:31088   */\n      0x22\n        /* \"#utility.yul\":31081:31084   */\n      dup4\n        /* \"#utility.yul\":31022:31089   */\n      tag_366\n      jump\t// in\n    tag_691:\n        /* \"#utility.yul\":31015:31089   */\n      swap2\n      pop\n        /* \"#utility.yul\":31098:31191   */\n      tag_692\n        /* \"#utility.yul\":31187:31190   */\n      dup3\n        /* \"#utility.yul\":31098:31191   */\n      tag_379\n      jump\t// in\n    tag_692:\n        /* \"#utility.yul\":31216:31218   */\n      0x40\n        /* \"#utility.yul\":31211:31214   */\n      dup3\n        /* \"#utility.yul\":31207:31219   */\n      add\n        /* \"#utility.yul\":31200:31219   */\n      swap1\n      pop\n        /* \"#utility.yul\":30859:31225   */\n      swap2\n      swap1\n      pop\n      jump\t// out\n        /* \"#utility.yul\":31231:31650   */\n    tag_197:\n        /* \"#utility.yul\":31397:31401   */\n      0x00\n        /* \"#utility.yul\":31435:31437   */\n      0x20\n        /* \"#utility.yul\":31424:31433   */\n      dup3\n        /* \"#utility.yul\":31420:31438   */\n      add\n        /* \"#utility.yul\":31412:31438   */\n      swap1\n      pop\n        /* \"#utility.yul\":31484:31493   */\n      dup2\n        /* \"#utility.yul\":31478:31482   */\n      dup2\n        /* \"#utility.yul\":31474:31494   */\n      sub\n        /* \"#utility.yul\":31470:31471   */\n      0x00\n        /* \"#utility.yul\":31459:31468   */\n      dup4\n        /* \"#utility.yul\":31455:31472   */\n      add\n        /* \"#utility.yul\":31448:31495   */\n      mstore\n        /* \"#utility.yul\":31512:31643   */\n      tag_694\n        /* \"#utility.yul\":31638:31642   */\n      dup2\n        /* \"#utility.yul\":31512:31643   */\n      tag_380\n      jump\t// in\n    tag_694:\n        /* \"#utility.yul\":31504:31643   */\n      swap1\n      pop\n        /* \"#utility.yul\":31231:31650   */\n      swap2\n      swap1\n      pop\n      jump\t// out\n        /* \"#utility.yul\":31656:31831   */\n    tag_381:\n        /* \"#utility.yul\":31796:31823   */\n      0x546f6b656e206964206e6f7420696e206368616c6c656e676500000000000000\n        /* \"#utility.yul\":31792:31793   */\n      0x00\n        /* \"#utility.yul\":31784:31790   */\n      dup3\n        /* \"#utility.yul\":31780:31794   */\n      add\n        /* \"#utility.yul\":31773:31824   */\n      mstore\n        /* \"#utility.yul\":31656:31831   */\n      pop\n      jump\t// out\n        /* \"#utility.yul\":31837:32203   */\n    tag_382:\n        /* \"#utility.yul\":31979:31982   */\n      0x00\n        /* \"#utility.yul\":32000:32067   */\n      tag_697\n        /* \"#utility.yul\":32064:32066   */\n      0x19\n        /* \"#utility.yul\":32059:32062   */\n      dup4\n        /* \"#utility.yul\":32000:32067   */\n      tag_366\n      jump\t// in\n    tag_697:\n        /* \"#utility.yul\":31993:32067   */\n      swap2\n      pop\n        /* \"#utility.yul\":32076:32169   */\n      tag_698\n        /* \"#utility.yul\":32165:32168   */\n      dup3\n        /* \"#utility.yul\":32076:32169   */\n      tag_381\n      jump\t// in\n    tag_698:\n        /* \"#utility.yul\":32194:32196   */\n      0x20\n        /* \"#utility.yul\":32189:32192   */\n      dup3\n        /* \"#utility.yul\":32185:32197   */\n      add\n        /* \"#utility.yul\":32178:32197   */\n      swap1\n      pop\n        /* \"#utility.yul\":31837:32203   */\n      swap2\n      swap1\n      pop\n      jump\t// out\n        /* \"#utility.yul\":32209:32628   */\n    tag_201:\n        /* \"#utility.yul\":32375:32379   */\n      0x00\n        /* \"#utility.yul\":32413:32415   */\n      0x20\n        /* \"#utility.yul\":32402:32411   */\n      dup3\n        /* \"#utility.yul\":32398:32416   */\n      add\n        /* \"#utility.yul\":32390:32416   */\n      swap1\n      pop\n        /* \"#utility.yul\":32462:32471   */\n      dup2\n        /* \"#utility.yul\":32456:32460   */\n      dup2\n        /* \"#utility.yul\":32452:32472   */\n      sub\n        /* \"#utility.yul\":32448:32449   */\n      0x00\n        /* \"#utility.yul\":32437:32446   */\n      dup4\n        /* \"#utility.yul\":32433:32450   */\n      add\n        /* \"#utility.yul\":32426:32473   */\n      mstore\n        /* \"#utility.yul\":32490:32621   */\n      tag_700\n        /* \"#utility.yul\":32616:32620   */\n      dup2\n        /* \"#utility.yul\":32490:32621   */\n      tag_382\n      jump\t// in\n    tag_700:\n        /* \"#utility.yul\":32482:32621   */\n      swap1\n      pop\n        /* \"#utility.yul\":32209:32628   */\n      swap2\n      swap1\n      pop\n      jump\t// out\n        /* \"#utility.yul\":32634:32939   */\n    tag_209:\n        /* \"#utility.yul\":32674:32677   */\n      0x00\n        /* \"#utility.yul\":32693:32713   */\n      tag_702\n        /* \"#utility.yul\":32711:32712   */\n      dup3\n        /* \"#utility.yul\":32693:32713   */\n      tag_331\n      jump\t// in\n    tag_702:\n        /* \"#utility.yul\":32688:32713   */\n      swap2\n      pop\n        /* \"#utility.yul\":32727:32747   */\n      tag_703\n        /* \"#utility.yul\":32745:32746   */\n      dup4\n        /* \"#utility.yul\":32727:32747   */\n      tag_331\n      jump\t// in\n    tag_703:\n        /* \"#utility.yul\":32722:32747   */\n      swap3\n      pop\n        /* \"#utility.yul\":32881:32882   */\n      dup3\n        /* \"#utility.yul\":32813:32879   */\n      0xffffffffffffffffffffffffffffffffffffffffffffffffffffffffffffffff\n        /* \"#utility.yul\":32809:32883   */\n      sub\n        /* \"#utility.yul\":32806:32807   */\n      dup3\n        /* \"#utility.yul\":32803:32884   */\n      gt\n        /* \"#utility.yul\":32800:32907   */\n      iszero\n      tag_704\n      jumpi\n        /* \"#utility.yul\":32887:32905   */\n      tag_705\n      tag_369\n      jump\t// in\n    tag_705:\n        /* \"#utility.yul\":32800:32907   */\n    tag_704:\n        /* \"#utility.yul\":32931:32932   */\n      dup3\n        /* \"#utility.yul\":32928:32929   */\n      dup3\n        /* \"#utility.yul\":32924:32933   */\n      add\n        /* \"#utility.yul\":32917:32933   */\n      swap1\n      pop\n        /* \"#utility.yul\":32634:32939   */\n      swap3\n      swap2\n      pop\n      pop\n      jump\t// out\n        /* \"#utility.yul\":32945:33166   */\n    tag_383:\n        /* \"#utility.yul\":33085:33119   */\n      0x41646d696e61626c653a2063616c6c6572206973206e6f74207468652061646d\n        /* \"#utility.yul\":33081:33082   */\n      0x00\n        /* \"#utility.yul\":33073:33079   */\n      dup3\n        /* \"#utility.yul\":33069:33083   */\n      add\n        /* \"#utility.yul\":33062:33120   */\n      mstore\n        /* \"#utility.yul\":33154:33158   */\n      0x696e000000000000000000000000000000000000000000000000000000000000\n        /* \"#utility.yul\":33149:33151   */\n      0x20\n        /* \"#utility.yul\":33141:33147   */\n      dup3\n        /* \"#utility.yul\":33137:33152   */\n      add\n        /* \"#utility.yul\":33130:33159   */\n      mstore\n        /* \"#utility.yul\":32945:33166   */\n      pop\n      jump\t// out\n        /* \"#utility.yul\":33172:33538   */\n    tag_384:\n        /* \"#utility.yul\":33314:33317   */\n      0x00\n        /* \"#utility.yul\":33335:33402   */\n      tag_708\n        /* \"#utility.yul\":33399:33401   */\n      0x22\n        /* \"#utility.yul\":33394:33397   */\n      dup4\n        /* \"#utility.yul\":33335:33402   */\n      tag_366\n      jump\t// in\n    tag_708:\n        /* \"#utility.yul\":33328:33402   */\n      swap2\n      pop\n        /* \"#utility.yul\":33411:33504   */\n      tag_709\n        /* \"#utility.yul\":33500:33503   */\n      dup3\n        /* \"#utility.yul\":33411:33504   */\n      tag_383\n      jump\t// in\n    tag_709:\n        /* \"#utility.yul\":33529:33531   */\n      0x40\n        /* \"#utility.yul\":33524:33527   */\n      dup3\n        /* \"#utility.yul\":33520:33532   */\n      add\n        /* \"#utility.yul\":33513:33532   */\n      swap1\n      pop\n        /* \"#utility.yul\":33172:33538   */\n      swap2\n      swap1\n      pop\n      jump\t// out\n        /* \"#utility.yul\":33544:33963   */\n    tag_250:\n        /* \"#utility.yul\":33710:33714   */\n      0x00\n        /* \"#utility.yul\":33748:33750   */\n      0x20\n        /* \"#utility.yul\":33737:33746   */\n      dup3\n        /* \"#utility.yul\":33733:33751   */\n      add\n        /* \"#utility.yul\":33725:33751   */\n      swap1\n      pop\n        /* \"#utility.yul\":33797:33806   */\n      dup2\n        /* \"#utility.yul\":33791:33795   */\n      dup2\n        /* \"#utility.yul\":33787:33807   */\n      sub\n        /* \"#utility.yul\":33783:33784   */\n      0x00\n        /* \"#utility.yul\":33772:33781   */\n      dup4\n        /* \"#utility.yul\":33768:33785   */\n      add\n        /* \"#utility.yul\":33761:33808   */\n      mstore\n        /* \"#utility.yul\":33825:33956   */\n      tag_711\n        /* \"#utility.yul\":33951:33955   */\n      dup2\n        /* \"#utility.yul\":33825:33956   */\n      tag_384\n      jump\t// in\n    tag_711:\n        /* \"#utility.yul\":33817:33956   */\n      swap1\n      pop\n        /* \"#utility.yul\":33544:33963   */\n      swap2\n      swap1\n      pop\n      jump\t// out\n        /* \"#utility.yul\":33969:34139   */\n    tag_385:\n        /* \"#utility.yul\":34109:34131   */\n      0x496e76616c6964206368616c6c656e6765206964000000000000000000000000\n        /* \"#utility.yul\":34105:34106   */\n      0x00\n        /* \"#utility.yul\":34097:34103   */\n      dup3\n        /* \"#utility.yul\":34093:34107   */\n      add\n        /* \"#utility.yul\":34086:34132   */\n      mstore\n        /* \"#utility.yul\":33969:34139   */\n      pop\n      jump\t// out\n        /* \"#utility.yul\":34145:34511   */\n    tag_386:\n        /* \"#utility.yul\":34287:34290   */\n      0x00\n        /* \"#utility.yul\":34308:34375   */\n      tag_714\n        /* \"#utility.yul\":34372:34374   */\n      0x14\n        /* \"#utility.yul\":34367:34370   */\n      dup4\n        /* \"#utility.yul\":34308:34375   */\n      tag_366\n      jump\t// in\n    tag_714:\n        /* \"#utility.yul\":34301:34375   */\n      swap2\n      pop\n        /* \"#utility.yul\":34384:34477   */\n      tag_715\n        /* \"#utility.yul\":34473:34476   */\n      dup3\n        /* \"#utility.yul\":34384:34477   */\n      tag_385\n      jump\t// in\n    tag_715:\n        /* \"#utility.yul\":34502:34504   */\n      0x20\n        /* \"#utility.yul\":34497:34500   */\n      dup3\n        /* \"#utility.yul\":34493:34505   */\n      add\n        /* \"#utility.yul\":34486:34505   */\n      swap1\n      pop\n        /* \"#utility.yul\":34145:34511   */\n      swap2\n      swap1\n      pop\n      jump\t// out\n        /* \"#utility.yul\":34517:34936   */\n    tag_258:\n        /* \"#utility.yul\":34683:34687   */\n      0x00\n        /* \"#utility.yul\":34721:34723   */\n      0x20\n        /* \"#utility.yul\":34710:34719   */\n      dup3\n        /* \"#utility.yul\":34706:34724   */\n      add\n        /* \"#utility.yul\":34698:34724   */\n      swap1\n      pop\n        /* \"#utility.yul\":34770:34779   */\n      dup2\n        /* \"#utility.yul\":34764:34768   */\n      dup2\n        /* \"#utility.yul\":34760:34780   */\n      sub\n        /* \"#utility.yul\":34756:34757   */\n      0x00\n        /* \"#utility.yul\":34745:34754   */\n      dup4\n        /* \"#utility.yul\":34741:34758   */\n      add\n        /* \"#utility.yul\":34734:34781   */\n      mstore\n        /* \"#utility.yul\":34798:34929   */\n      tag_717\n        /* \"#utility.yul\":34924:34928   */\n      dup2\n        /* \"#utility.yul\":34798:34929   */\n      tag_386\n      jump\t// in\n    tag_717:\n        /* \"#utility.yul\":34790:34929   */\n      swap1\n      pop\n        /* \"#utility.yul\":34517:34936   */\n      swap2\n      swap1\n      pop\n      jump\t// out\n        /* \"#utility.yul\":34942:35109   */\n    tag_387:\n        /* \"#utility.yul\":35082:35101   */\n      0x4368616c6c656e6765206e6f7420656e64000000000000000000000000000000\n        /* \"#utility.yul\":35078:35079   */\n      0x00\n        /* \"#utility.yul\":35070:35076   */\n      dup3\n        /* \"#utility.yul\":35066:35080   */\n      add\n        /* \"#utility.yul\":35059:35102   */\n      mstore\n        /* \"#utility.yul\":34942:35109   */\n      pop\n      jump\t// out\n        /* \"#utility.yul\":35115:35481   */\n    tag_388:\n        /* \"#utility.yul\":35257:35260   */\n      0x00\n        /* \"#utility.yul\":35278:35345   */\n      tag_720\n        /* \"#utility.yul\":35342:35344   */\n      0x11\n        /* \"#utility.yul\":35337:35340   */\n      dup4\n        /* \"#utility.yul\":35278:35345   */\n      tag_366\n      jump\t// in\n    tag_720:\n        /* \"#utility.yul\":35271:35345   */\n      swap2\n      pop\n        /* \"#utility.yul\":35354:35447   */\n      tag_721\n        /* \"#utility.yul\":35443:35446   */\n      dup3\n        /* \"#utility.yul\":35354:35447   */\n      tag_387\n      jump\t// in\n    tag_721:\n        /* \"#utility.yul\":35472:35474   */\n      0x20\n        /* \"#utility.yul\":35467:35470   */\n      dup3\n        /* \"#utility.yul\":35463:35475   */\n      add\n        /* \"#utility.yul\":35456:35475   */\n      swap1\n      pop\n        /* \"#utility.yul\":35115:35481   */\n      swap2\n      swap1\n      pop\n      jump\t// out\n        /* \"#utility.yul\":35487:35906   */\n    tag_263:\n        /* \"#utility.yul\":35653:35657   */\n      0x00\n        /* \"#utility.yul\":35691:35693   */\n      0x20\n        /* \"#utility.yul\":35680:35689   */\n      dup3\n        /* \"#utility.yul\":35676:35694   */\n      add\n        /* \"#utility.yul\":35668:35694   */\n      swap1\n      pop\n        /* \"#utility.yul\":35740:35749   */\n      dup2\n        /* \"#utility.yul\":35734:35738   */\n      dup2\n        /* \"#utility.yul\":35730:35750   */\n      sub\n        /* \"#utility.yul\":35726:35727   */\n      0x00\n        /* \"#utility.yul\":35715:35724   */\n      dup4\n        /* \"#utility.yul\":35711:35728   */\n      add\n        /* \"#utility.yul\":35704:35751   */\n      mstore\n        /* \"#utility.yul\":35768:35899   */\n      tag_723\n        /* \"#utility.yul\":35894:35898   */\n      dup2\n        /* \"#utility.yul\":35768:35899   */\n      tag_388\n      jump\t// in\n    tag_723:\n        /* \"#utility.yul\":35760:35899   */\n      swap1\n      pop\n        /* \"#utility.yul\":35487:35906   */\n      swap2\n      swap1\n      pop\n      jump\t// out\n        /* \"#utility.yul\":35912:36137   */\n    tag_389:\n        /* \"#utility.yul\":36052:36086   */\n      0x53746172742074696d65206d757374206d6f7265207468616e2070726573656e\n        /* \"#utility.yul\":36048:36049   */\n      0x00\n        /* \"#utility.yul\":36040:36046   */\n      dup3\n        /* \"#utility.yul\":36036:36050   */\n      add\n        /* \"#utility.yul\":36029:36087   */\n      mstore\n        /* \"#utility.yul\":36121:36129   */\n      0x742074696d650000000000000000000000000000000000000000000000000000\n        /* \"#utility.yul\":36116:36118   */\n      0x20\n        /* \"#utility.yul\":36108:36114   */\n      dup3\n        /* \"#utility.yul\":36104:36119   */\n      add\n        /* \"#utility.yul\":36097:36130   */\n      mstore\n        /* \"#utility.yul\":35912:36137   */\n      pop\n      jump\t// out\n        /* \"#utility.yul\":36143:36509   */\n    tag_390:\n        /* \"#utility.yul\":36285:36288   */\n      0x00\n        /* \"#utility.yul\":36306:36373   */\n      tag_726\n        /* \"#utility.yul\":36370:36372   */\n      0x26\n        /* \"#utility.yul\":36365:36368   */\n      dup4\n        /* \"#utility.yul\":36306:36373   */\n      tag_366\n      jump\t// in\n    tag_726:\n        /* \"#utility.yul\":36299:36373   */\n      swap2\n      pop\n        /* \"#utility.yul\":36382:36475   */\n      tag_727\n        /* \"#utility.yul\":36471:36474   */\n      dup3\n        /* \"#utility.yul\":36382:36475   */\n      tag_389\n      jump\t// in\n    tag_727:\n        /* \"#utility.yul\":36500:36502   */\n      0x40\n        /* \"#utility.yul\":36495:36498   */\n      dup3\n        /* \"#utility.yul\":36491:36503   */\n      add\n        /* \"#utility.yul\":36484:36503   */\n      swap1\n      pop\n        /* \"#utility.yul\":36143:36509   */\n      swap2\n      swap1\n      pop\n      jump\t// out\n        /* \"#utility.yul\":36515:36934   */\n    tag_274:\n        /* \"#utility.yul\":36681:36685   */\n      0x00\n        /* \"#utility.yul\":36719:36721   */\n      0x20\n        /* \"#utility.yul\":36708:36717   */\n      dup3\n        /* \"#utility.yul\":36704:36722   */\n      add\n        /* \"#utility.yul\":36696:36722   */\n      swap1\n      pop\n        /* \"#utility.yul\":36768:36777   */\n      dup2\n        /* \"#utility.yul\":36762:36766   */\n      dup2\n        /* \"#utility.yul\":36758:36778   */\n      sub\n        /* \"#utility.yul\":36754:36755   */\n      0x00\n        /* \"#utility.yul\":36743:36752   */\n      dup4\n        /* \"#utility.yul\":36739:36756   */\n      add\n        /* \"#utility.yul\":36732:36779   */\n      mstore\n        /* \"#utility.yul\":36796:36927   */\n      tag_729\n        /* \"#utility.yul\":36922:36926   */\n      dup2\n        /* \"#utility.yul\":36796:36927   */\n      tag_390\n      jump\t// in\n    tag_729:\n        /* \"#utility.yul\":36788:36927   */\n      swap1\n      pop\n        /* \"#utility.yul\":36515:36934   */\n      swap2\n      swap1\n      pop\n      jump\t// out\n        /* \"#utility.yul\":36940:37116   */\n    tag_391:\n        /* \"#utility.yul\":37080:37108   */\n      0x546f6b656e206964206d757374206c657373207468616e203337000000000000\n        /* \"#utility.yul\":37076:37077   */\n      0x00\n        /* \"#utility.yul\":37068:37074   */\n      dup3\n        /* \"#utility.yul\":37064:37078   */\n      add\n        /* \"#utility.yul\":37057:37109   */\n      mstore\n        /* \"#utility.yul\":36940:37116   */\n      pop\n      jump\t// out\n        /* \"#utility.yul\":37122:37488   */\n    tag_392:\n        /* \"#utility.yul\":37264:37267   */\n      0x00\n        /* \"#utility.yul\":37285:37352   */\n      tag_732\n        /* \"#utility.yul\":37349:37351   */\n      0x1a\n        /* \"#utility.yul\":37344:37347   */\n      dup4\n        /* \"#utility.yul\":37285:37352   */\n      tag_366\n      jump\t// in\n    tag_732:\n        /* \"#utility.yul\":37278:37352   */\n      swap2\n      pop\n        /* \"#utility.yul\":37361:37454   */\n      tag_733\n        /* \"#utility.yul\":37450:37453   */\n      dup3\n        /* \"#utility.yul\":37361:37454   */\n      tag_391\n      jump\t// in\n    tag_733:\n        /* \"#utility.yul\":37479:37481   */\n      0x20\n        /* \"#utility.yul\":37474:37477   */\n      dup3\n        /* \"#utility.yul\":37470:37482   */\n      add\n        /* \"#utility.yul\":37463:37482   */\n      swap1\n      pop\n        /* \"#utility.yul\":37122:37488   */\n      swap2\n      swap1\n      pop\n      jump\t// out\n        /* \"#utility.yul\":37494:37913   */\n    tag_278:\n        /* \"#utility.yul\":37660:37664   */\n      0x00\n        /* \"#utility.yul\":37698:37700   */\n      0x20\n        /* \"#utility.yul\":37687:37696   */\n      dup3\n        /* \"#utility.yul\":37683:37701   */\n      add\n        /* \"#utility.yul\":37675:37701   */\n      swap1\n      pop\n        /* \"#utility.yul\":37747:37756   */\n      dup2\n        /* \"#utility.yul\":37741:37745   */\n      dup2\n        /* \"#utility.yul\":37737:37757   */\n      sub\n        /* \"#utility.yul\":37733:37734   */\n      0x00\n        /* \"#utility.yul\":37722:37731   */\n      dup4\n        /* \"#utility.yul\":37718:37735   */\n      add\n        /* \"#utility.yul\":37711:37758   */\n      mstore\n        /* \"#utility.yul\":37775:37906   */\n      tag_735\n        /* \"#utility.yul\":37901:37905   */\n      dup2\n        /* \"#utility.yul\":37775:37906   */\n      tag_392\n      jump\t// in\n    tag_735:\n        /* \"#utility.yul\":37767:37906   */\n      swap1\n      pop\n        /* \"#utility.yul\":37494:37913   */\n      swap2\n      swap1\n      pop\n      jump\t// out\n        /* \"#utility.yul\":37919:38090   */\n    tag_280:\n        /* \"#utility.yul\":37957:37960   */\n      0x00\n        /* \"#utility.yul\":37980:38003   */\n      tag_737\n        /* \"#utility.yul\":37997:38002   */\n      dup3\n        /* \"#utility.yul\":37980:38003   */\n      tag_315\n      jump\t// in\n    tag_737:\n        /* \"#utility.yul\":37971:38003   */\n      swap2\n      pop\n        /* \"#utility.yul\":38025:38031   */\n      0xffff\n        /* \"#utility.yul\":38018:38023   */\n      dup3\n        /* \"#utility.yul\":38015:38032   */\n      sub\n        /* \"#utility.yul\":38012:38055   */\n      tag_738\n      jumpi\n        /* \"#utility.yul\":38035:38053   */\n      tag_739\n      tag_369\n      jump\t// in\n    tag_739:\n        /* \"#utility.yul\":38012:38055   */\n    tag_738:\n        /* \"#utility.yul\":38082:38083   */\n      0x01\n        /* \"#utility.yul\":38075:38080   */\n      dup3\n        /* \"#utility.yul\":38071:38084   */\n      add\n        /* \"#utility.yul\":38064:38084   */\n      swap1\n      pop\n        /* \"#utility.yul\":37919:38090   */\n      swap2\n      swap1\n      pop\n      jump\t// out\n        /* \"#utility.yul\":38096:38321   */\n    tag_393:\n        /* \"#utility.yul\":38236:38270   */\n      0x4f776e61626c653a206e6577206f776e657220697320746865207a65726f2061\n        /* \"#utility.yul\":38232:38233   */\n      0x00\n        /* \"#utility.yul\":38224:38230   */\n      dup3\n        /* \"#utility.yul\":38220:38234   */\n      add\n        /* \"#utility.yul\":38213:38271   */\n      mstore\n        /* \"#utility.yul\":38305:38313   */\n      0x6464726573730000000000000000000000000000000000000000000000000000\n        /* \"#utility.yul\":38300:38302   */\n      0x20\n        /* \"#utility.yul\":38292:38298   */\n      dup3\n        /* \"#utility.yul\":38288:38303   */\n      add\n        /* \"#utility.yul\":38281:38314   */\n      mstore\n        /* \"#utility.yul\":38096:38321   */\n      pop\n      jump\t// out\n        /* \"#utility.yul\":38327:38693   */\n    tag_394:\n        /* \"#utility.yul\":38469:38472   */\n      0x00\n        /* \"#utility.yul\":38490:38557   */\n      tag_742\n        /* \"#utility.yul\":38554:38556   */\n      0x26\n        /* \"#utility.yul\":38549:38552   */\n      dup4\n        /* \"#utility.yul\":38490:38557   */\n      tag_366\n      jump\t// in\n    tag_742:\n        /* \"#utility.yul\":38483:38557   */\n      swap2\n      pop\n        /* \"#utility.yul\":38566:38659   */\n      tag_743\n        /* \"#utility.yul\":38655:38658   */\n      dup3\n        /* \"#utility.yul\":38566:38659   */\n      tag_393\n      jump\t// in\n    tag_743:\n        /* \"#utility.yul\":38684:38686   */\n      0x40\n        /* \"#utility.yul\":38679:38682   */\n      dup3\n        /* \"#utility.yul\":38675:38687   */\n      add\n        /* \"#utility.yul\":38668:38687   */\n      swap1\n      pop\n        /* \"#utility.yul\":38327:38693   */\n      swap2\n      swap1\n      pop\n      jump\t// out\n        /* \"#utility.yul\":38699:39118   */\n    tag_294:\n        /* \"#utility.yul\":38865:38869   */\n      0x00\n        /* \"#utility.yul\":38903:38905   */\n      0x20\n        /* \"#utility.yul\":38892:38901   */\n      dup3\n        /* \"#utility.yul\":38888:38906   */\n      add\n        /* \"#utility.yul\":38880:38906   */\n      swap1\n      pop\n        /* \"#utility.yul\":38952:38961   */\n      dup2\n        /* \"#utility.yul\":38946:38950   */\n      dup2\n        /* \"#utility.yul\":38942:38962   */\n      sub\n        /* \"#utility.yul\":38938:38939   */\n      0x00\n        /* \"#utility.yul\":38927:38936   */\n      dup4\n        /* \"#utility.yul\":38923:38940   */\n      add\n        /* \"#utility.yul\":38916:38963   */\n      mstore\n        /* \"#utility.yul\":38980:39111   */\n      tag_745\n        /* \"#utility.yul\":39106:39110   */\n      dup2\n        /* \"#utility.yul\":38980:39111   */\n      tag_394\n      jump\t// in\n    tag_745:\n        /* \"#utility.yul\":38972:39111   */\n      swap1\n      pop\n        /* \"#utility.yul\":38699:39118   */\n      swap2\n      swap1\n      pop\n      jump\t// out\n\n    auxdata: 0xa26469706673582212206a0dd2f8ef60ee22c09a5ea3decf85ecca0cfccb16449a54ed1fb9362cac196064736f6c634300080d0033\n}\n",
				"bytecode": {
					"linkReferences": {},
					"object": "60806040526001600360146101000a81548161ffff021916908361ffff160217905550670de0b6b3a76400006004553480156200003b57600080fd5b506200005c620000506200006260201b60201c565b6200006a60201b60201c565b62000130565b600033905090565b6000600160009054906101000a900473ffffffffffffffffffffffffffffffffffffffff16905081600160006101000a81548173ffffffffffffffffffffffffffffffffffffffff021916908373ffffffffffffffffffffffffffffffffffffffff1602179055508173ffffffffffffffffffffffffffffffffffffffff168173ffffffffffffffffffffffffffffffffffffffff167f8be0079c531659141344cd1fd0a4f28419497f9722a3daafe3b4186f6b6457e060405160405180910390a35050565b61335f80620001406000396000f3fe608060405234801561001057600080fd5b506004361061014d5760003560e01c8063891ee6d3116100c3578063da80e59b1161007c578063da80e59b146103ac578063f23a6e61146103ca578063f2fde38b146103fa578063f606faea14610416578063f7c618c114610432578063ffa65732146104505761014d565b8063891ee6d3146102da5780638aee81271461030a5780638da5cb5b14610326578063a278602f14610344578063bc197c8114610360578063d5bf583b146103905761014d565b806324d7806c1161011557806324d7806c1461021a578063270e39941461024a57806352964def146102685780636cd262fb14610284578063715018a6146102a0578063749f3429146102aa5761014d565b806301ffc9a714610152578063082d07851461018257806311da8e541461019e57806318e20ecf146101ce57806321569088146101ea575b600080fd5b61016c60048036038101906101679190611fa9565b61046e565b6040516101799190611ff1565b60405180910390f35b61019c60048036038101906101979190612046565b6104e8565b005b6101b860048036038101906101b391906120d1565b610847565b6040516101c591906121bc565b60405180910390f35b6101e860048036038101906101e3919061220a565b610906565b005b61020460048036038101906101ff919061224a565b610a77565b60405161021191906122a3565b60405180910390f35b610234600480360381019061022f91906120d1565b610c91565b6040516102419190611ff1565b60405180910390f35b610252610ce6565b60405161025f91906122cd565b60405180910390f35b610282600480360381019061027d9190612314565b610d0c565b005b61029e600480360381019061029991906120d1565b6112e6565b005b6102a86113a6565b005b6102c460048036038101906102bf919061224a565b61142e565b6040516102d191906123da565b60405180910390f35b6102f460048036038101906102ef9190612046565b6114f0565b6040516103019190612538565b60405180910390f35b610324600480360381019061031f91906120d1565b6115d1565b005b61032e611691565b60405161033b91906122cd565b60405180910390f35b61035e60048036038101906103599190612554565b6116bb565b005b61037a600480360381019061037591906127a2565b611920565b6040516103879190612880565b60405180910390f35b6103aa60048036038101906103a591906128c0565b611935565b005b6103b4611b9c565b6040516103c191906122a3565b60405180910390f35b6103e460048036038101906103df919061293b565b611ba2565b6040516103f19190612880565b60405180910390f35b610414600480360381019061040f91906120d1565b611bb7565b005b610430600480360381019061042b91906129d2565b611cae565b005b61043a611d34565b60405161044791906122cd565b60405180910390f35b610458611d5a565b6040516104659190612a0e565b60405180910390f35b60007f4e2312e0000000000000000000000000000000000000000000000000000000007bffffffffffffffffffffffffffffffffffffffffffffffffffffffff1916827bffffffffffffffffffffffffffffffffffffffffffffffffffffffff191614806104e157506104e082611d6e565b5b9050919050565b60006104f43383610a77565b90506000600660003373ffffffffffffffffffffffffffffffffffffffff1673ffffffffffffffffffffffffffffffffffffffff16815260200190815260200160002060008461ffff1661ffff1681526020019081526020016000206040518060800160405290816000820160009054906101000a900461ffff1661ffff1661ffff16815260200160018201548152602001600282015481526020016003820160009054906101000a900460ff16151515158152505090506000806000600560008761ffff1661ffff168152602001908152602001600020604051806101400160405290816000820160009054906101000a900460ff1660018111156105fd576105fc6123f5565b5b600181111561060f5761060e6123f5565b5b81526020016000820160019054906101000a900461ffff1661ffff1661ffff1681526020016001820154815260200160028201548152602001600382015481526020016004820154815260200160058201548152602001600682015481526020016007820154815260200160088201548152505090508060a00151816101200151036106a8578060a001519250836020015191506106b7565b8060c0015192508060c0015191505b600260009054906101000a900473ffffffffffffffffffffffffffffffffffffffff1673ffffffffffffffffffffffffffffffffffffffff1663f242432a303386866040518563ffffffff1660e01b81526004016107189493929190612a60565b600060405180830381600087803b15801561073257600080fd5b505af1158015610746573d6000803e3d6000fd5b50505050600360009054906101000a900473ffffffffffffffffffffffffffffffffffffffff1673ffffffffffffffffffffffffffffffffffffffff1663a9059cbb33876040518363ffffffff1660e01b81526004016107a7929190612ab8565b6020604051808303816000875af11580156107c6573d6000803e3d6000fd5b505050506040513d601f19601f820116820180604052508101906107ea9190612af6565b503373ffffffffffffffffffffffffffffffffffffffff167f37928b7e81bcb91f89ab0bc4eb993473de24975366bebf5b4e1e946f2c948807826020015187604051610837929190612b23565b60405180910390a2505050505050565b6060600760008373ffffffffffffffffffffffffffffffffffffffff1673ffffffffffffffffffffffffffffffffffffffff1681526020019081526020016000208054806020026020016040519081016040528092919081815260200182805480156108fa57602002820191906000526020600020906000905b82829054906101000a900461ffff1661ffff16815260200190600201906020826001010492830192600103820291508084116108c15790505b50505050509050919050565b61090e611dd8565b73ffffffffffffffffffffffffffffffffffffffff1661092c611691565b73ffffffffffffffffffffffffffffffffffffffff1614610982576040517f08c379a000000000000000000000000000000000000000000000000000000000815260040161097990612bcf565b60405180910390fd5b8173ffffffffffffffffffffffffffffffffffffffff167f82f1fa40a3d82dea3e406073819290601f436580aa7c69f9feb61f885bdd88546000808573ffffffffffffffffffffffffffffffffffffffff1673ffffffffffffffffffffffffffffffffffffffff16815260200190815260200160002060009054906101000a900460ff1683604051610a15929190612bef565b60405180910390a2806000808473ffffffffffffffffffffffffffffffffffffffff1673ffffffffffffffffffffffffffffffffffffffff16815260200190815260200160002060006101000a81548160ff0219169083151502179055505050565b600080600560008461ffff1661ffff168152602001908152602001600020604051806101400160405290816000820160009054906101000a900460ff166001811115610ac657610ac56123f5565b5b6001811115610ad857610ad76123f5565b5b81526020016000820160019054906101000a900461ffff1661ffff1661ffff1681526020016001820154815260200160028201548152602001600382015481526020016004820154815260200160058201548152602001600682015481526020016007820154815260200160088201548152505090506000816020015161ffff1603610b68576000915050610c8b565b6000600660008673ffffffffffffffffffffffffffffffffffffffff1673ffffffffffffffffffffffffffffffffffffffff16815260200190815260200160002060008561ffff1661ffff1681526020019081526020016000206040518060800160405290816000820160009054906101000a900461ffff1661ffff1661ffff16815260200160018201548152602001600282015481526020016003820160009054906101000a900460ff16151515158152505090506000816000015161ffff1603610c3957600092505050610c8b565b60008260a0015183610120015103610c575781602001519050610c5f565b816040015190505b6064605060045483610c719190612c47565b610c7b9190612c47565b610c859190612cd0565b93505050505b92915050565b60008060008373ffffffffffffffffffffffffffffffffffffffff1673ffffffffffffffffffffffffffffffffffffffff16815260200190815260200160002060009054906101000a900460ff169050919050565b600260009054906101000a900473ffffffffffffffffffffffffffffffffffffffff1681565b60008111610d4f576040517f08c379a0000000000000000000000000000000000000000000000000000000008152600401610d4690612d4d565b60405180910390fd5b6000600560008561ffff1661ffff168152602001908152602001600020604051806101400160405290816000820160009054906101000a900460ff166001811115610d9d57610d9c6123f5565b5b6001811115610daf57610dae6123f5565b5b81526020016000820160019054906101000a900461ffff1661ffff1661ffff1681526020016001820154815260200160028201548152602001600382015481526020016004820154815260200160058201548152602001600682015481526020016007820154815260200160088201548152505090506000816020015161ffff1603610e70576040517f08c379a0000000000000000000000000000000000000000000000000000000008152600401610e6790612db9565b60405180910390fd5b4281604001511115610eb7576040517f08c379a0000000000000000000000000000000000000000000000000000000008152600401610eae90612e25565b60405180910390fd5b42816060015111610efd576040517f08c379a0000000000000000000000000000000000000000000000000000000008152600401610ef490612e91565b60405180910390fd5b8060600151816040015110610f47576040517f08c379a0000000000000000000000000000000000000000000000000000000008152600401610f3e90612f23565b60405180910390fd5b828160a001511480610f5c5750828160c00151145b610f9b576040517f08c379a0000000000000000000000000000000000000000000000000000000008152600401610f9290612f8f565b60405180910390fd5b600260009054906101000a900473ffffffffffffffffffffffffffffffffffffffff1673ffffffffffffffffffffffffffffffffffffffff1663f242432a333086866040518563ffffffff1660e01b8152600401610ffc9493929190612a60565b600060405180830381600087803b15801561101657600080fd5b505af115801561102a573d6000803e3d6000fd5b505050506000600660003373ffffffffffffffffffffffffffffffffffffffff1673ffffffffffffffffffffffffffffffffffffffff16815260200190815260200160002060008661ffff1661ffff1681526020019081526020016000206040518060800160405290816000820160009054906101000a900461ffff1661ffff1661ffff16815260200160018201548152602001600282015481526020016003820160009054906101000a900460ff161515151581525050905084816000019061ffff16908161ffff1681525050600760003373ffffffffffffffffffffffffffffffffffffffff1673ffffffffffffffffffffffffffffffffffffffff1681526020019081526020016000208590806001815401808255809150506001900390600052602060002090601091828204019190066002029091909190916101000a81548161ffff021916908361ffff160217905550838260a00151036111dd5782600560008761ffff1661ffff16815260200190815260200160002060060160008282546111b89190612faf565b9250508190555082816020018181516111d19190612faf565b9150818152505061122c565b82600560008761ffff1661ffff168152602001908152602001600020600701600082825461120b9190612faf565b9250508190555082816040018181516112249190612faf565b915081815250505b80600660003373ffffffffffffffffffffffffffffffffffffffff1673ffffffffffffffffffffffffffffffffffffffff16815260200190815260200160002060008761ffff1661ffff16815260200190815260200160002060008201518160000160006101000a81548161ffff021916908361ffff160217905550602082015181600101556040820151816002015560608201518160030160006101000a81548160ff0219169083151502179055509050505050505050565b6112ee611dd8565b73ffffffffffffffffffffffffffffffffffffffff1661130c611691565b73ffffffffffffffffffffffffffffffffffffffff1614611362576040517f08c379a000000000000000000000000000000000000000000000000000000000815260040161135990612bcf565b60405180910390fd5b80600260006101000a81548173ffffffffffffffffffffffffffffffffffffffff021916908373ffffffffffffffffffffffffffffffffffffffff16021790555050565b6113ae611dd8565b73ffffffffffffffffffffffffffffffffffffffff166113cc611691565b73ffffffffffffffffffffffffffffffffffffffff1614611422576040517f08c379a000000000000000000000000000000000000000000000000000000000815260040161141990612bcf565b60405180910390fd5b61142c6000611de0565b565b611436611ea6565b600660008473ffffffffffffffffffffffffffffffffffffffff1673ffffffffffffffffffffffffffffffffffffffff16815260200190815260200160002060008361ffff1661ffff1681526020019081526020016000206040518060800160405290816000820160009054906101000a900461ffff1661ffff1661ffff16815260200160018201548152602001600282015481526020016003820160009054906101000a900460ff161515151581525050905092915050565b6114f8611ed4565b600560008361ffff1661ffff168152602001908152602001600020604051806101400160405290816000820160009054906101000a900460ff166001811115611544576115436123f5565b5b6001811115611556576115556123f5565b5b81526020016000820160019054906101000a900461ffff1661ffff1661ffff168152602001600182015481526020016002820154815260200160038201548152602001600482015481526020016005820154815260200160068201548152602001600782015481526020016008820154815250509050919050565b6115d9611dd8565b73ffffffffffffffffffffffffffffffffffffffff166115f7611691565b73ffffffffffffffffffffffffffffffffffffffff161461164d576040517f08c379a000000000000000000000000000000000000000000000000000000000815260040161164490612bcf565b60405180910390fd5b80600360006101000a81548173ffffffffffffffffffffffffffffffffffffffff021916908373ffffffffffffffffffffffffffffffffffffffff16021790555050565b6000600160009054906101000a900473ffffffffffffffffffffffffffffffffffffffff16905090565b6116cb6116c6611dd8565b610c91565b61170a576040517f08c379a000000000000000000000000000000000000000000000000000000000815260040161170190613077565b60405180910390fd5b6000600560008461ffff1661ffff168152602001908152602001600020604051806101400160405290816000820160009054906101000a900460ff166001811115611758576117576123f5565b5b600181111561176a576117696123f5565b5b81526020016000820160019054906101000a900461ffff1661ffff1661ffff1681526020016001820154815260200160028201548152602001600382015481526020016004820154815260200160058201548152602001600682015481526020016007820154815260200160088201548152505090506000816020015161ffff161161182b576040517f08c379a0000000000000000000000000000000000000000000000000000000008152600401611822906130e3565b60405180910390fd5b4281604001511015611872576040517f08c379a000000000000000000000000000000000000000000000000000000000815260040161186990612e25565b60405180910390fd5b428160600151106118b8576040517f08c379a00000000000000000000000000000000000000000000000000000000081526004016118af9061314f565b60405180910390fd5b4281608001818152505081816101200181815250503373ffffffffffffffffffffffffffffffffffffffff167f8fdc8870ecd42629e72f8c2edf272000e1824b081ef420869c8435da7d78ef61846040516119139190612a0e565b60405180910390a2505050565b600063bc197c8160e01b905095945050505050565b611945611940611dd8565b610c91565b611984576040517f08c379a000000000000000000000000000000000000000000000000000000000815260040161197b90613077565b60405180910390fd5b4284116119c6576040517f08c379a00000000000000000000000000000000000000000000000000000000081526004016119bd906131e1565b60405180910390fd5b602482111580156119d8575060248111155b611a17576040517f08c379a0000000000000000000000000000000000000000000000000000000008152600401611a0e9061324d565b60405180910390fd5b6003601481819054906101000a900461ffff1680929190611a379061326d565b91906101000a81548161ffff021916908361ffff16021790555050604051806101400160405280866001811115611a7157611a706123f5565b5b8152602001600360149054906101000a900461ffff1661ffff168152602001858152602001848152602001600081526020018381526020018281526020016000815260200160008152602001600081525060056000600360149054906101000a900461ffff1661ffff1661ffff16815260200190815260200160002060008201518160000160006101000a81548160ff02191690836001811115611b1857611b176123f5565b5b021790555060208201518160000160016101000a81548161ffff021916908361ffff16021790555060408201518160010155606082015181600201556080820151816003015560a0820151816004015560c0820151816005015560e08201518160060155610100820151816007015561012082015181600801559050505050505050565b60045481565b600063f23a6e6160e01b905095945050505050565b611bbf611dd8565b73ffffffffffffffffffffffffffffffffffffffff16611bdd611691565b73ffffffffffffffffffffffffffffffffffffffff1614611c33576040517f08c379a0000000000000000000000000000000000000000000000000000000008152600401611c2a90612bcf565b60405180910390fd5b600073ffffffffffffffffffffffffffffffffffffffff168173ffffffffffffffffffffffffffffffffffffffff1603611ca2576040517f08c379a0000000000000000000000000000000000000000000000000000000008152600401611c9990613309565b60405180910390fd5b611cab81611de0565b50565b611cb6611dd8565b73ffffffffffffffffffffffffffffffffffffffff16611cd4611691565b73ffffffffffffffffffffffffffffffffffffffff1614611d2a576040517f08c379a0000000000000000000000000000000000000000000000000000000008152600401611d2190612bcf565b60405180910390fd5b8060048190555050565b600360009054906101000a900473ffffffffffffffffffffffffffffffffffffffff1681565b600360149054906101000a900461ffff1681565b60007f01ffc9a7000000000000000000000000000000000000000000000000000000007bffffffffffffffffffffffffffffffffffffffffffffffffffffffff1916827bffffffffffffffffffffffffffffffffffffffffffffffffffffffff1916149050919050565b600033905090565b6000600160009054906101000a900473ffffffffffffffffffffffffffffffffffffffff16905081600160006101000a81548173ffffffffffffffffffffffffffffffffffffffff021916908373ffffffffffffffffffffffffffffffffffffffff1602179055508173ffffffffffffffffffffffffffffffffffffffff168173ffffffffffffffffffffffffffffffffffffffff167f8be0079c531659141344cd1fd0a4f28419497f9722a3daafe3b4186f6b6457e060405160405180910390a35050565b6040518060800160405280600061ffff16815260200160008152602001600081526020016000151581525090565b60405180610140016040528060006001811115611ef457611ef36123f5565b5b8152602001600061ffff16815260200160008152602001600081526020016000815260200160008152602001600081526020016000815260200160008152602001600081525090565b6000604051905090565b600080fd5b600080fd5b60007fffffffff0000000000000000000000000000000000000000000000000000000082169050919050565b611f8681611f51565b8114611f9157600080fd5b50565b600081359050611fa381611f7d565b92915050565b600060208284031215611fbf57611fbe611f47565b5b6000611fcd84828501611f94565b91505092915050565b60008115159050919050565b611feb81611fd6565b82525050565b60006020820190506120066000830184611fe2565b92915050565b600061ffff82169050919050565b6120238161200c565b811461202e57600080fd5b50565b6000813590506120408161201a565b92915050565b60006020828403121561205c5761205b611f47565b5b600061206a84828501612031565b91505092915050565b600073ffffffffffffffffffffffffffffffffffffffff82169050919050565b600061209e82612073565b9050919050565b6120ae81612093565b81146120b957600080fd5b50565b6000813590506120cb816120a5565b92915050565b6000602082840312156120e7576120e6611f47565b5b60006120f5848285016120bc565b91505092915050565b600081519050919050565b600082825260208201905092915050565b6000819050602082019050919050565b6121338161200c565b82525050565b6000612145838361212a565b60208301905092915050565b6000602082019050919050565b6000612169826120fe565b6121738185612109565b935061217e8361211a565b8060005b838110156121af5781516121968882612139565b97506121a183612151565b925050600181019050612182565b5085935050505092915050565b600060208201905081810360008301526121d6818461215e565b905092915050565b6121e781611fd6565b81146121f257600080fd5b50565b600081359050612204816121de565b92915050565b6000806040838503121561222157612220611f47565b5b600061222f858286016120bc565b9250506020612240858286016121f5565b9150509250929050565b6000806040838503121561226157612260611f47565b5b600061226f858286016120bc565b925050602061228085828601612031565b9150509250929050565b6000819050919050565b61229d8161228a565b82525050565b60006020820190506122b86000830184612294565b92915050565b6122c781612093565b82525050565b60006020820190506122e260008301846122be565b92915050565b6122f18161228a565b81146122fc57600080fd5b50565b60008135905061230e816122e8565b92915050565b60008060006060848603121561232d5761232c611f47565b5b600061233b86828701612031565b935050602061234c868287016122ff565b925050604061235d868287016122ff565b9150509250925092565b6123708161228a565b82525050565b61237f81611fd6565b82525050565b60808201600082015161239b600085018261212a565b5060208201516123ae6020850182612367565b5060408201516123c16040850182612367565b5060608201516123d46060850182612376565b50505050565b60006080820190506123ef6000830184612385565b92915050565b7f4e487b7100000000000000000000000000000000000000000000000000000000600052602160045260246000fd5b60028110612435576124346123f5565b5b50565b600081905061244682612424565b919050565b600061245682612438565b9050919050565b6124668161244b565b82525050565b61014082016000820151612483600085018261245d565b506020820151612496602085018261212a565b5060408201516124a96040850182612367565b5060608201516124bc6060850182612367565b5060808201516124cf6080850182612367565b5060a08201516124e260a0850182612367565b5060c08201516124f560c0850182612367565b5060e082015161250860e0850182612367565b5061010082015161251d610100850182612367565b50610120820151612532610120850182612367565b50505050565b60006101408201905061254e600083018461246c565b92915050565b6000806040838503121561256b5761256a611f47565b5b600061257985828601612031565b925050602061258a858286016122ff565b9150509250929050565b600080fd5b6000601f19601f8301169050919050565b7f4e487b7100000000000000000000000000000000000000000000000000000000600052604160045260246000fd5b6125e282612599565b810181811067ffffffffffffffff82111715612601576126006125aa565b5b80604052505050565b6000612614611f3d565b905061262082826125d9565b919050565b600067ffffffffffffffff8211156126405761263f6125aa565b5b602082029050602081019050919050565b600080fd5b600061266961266484612625565b61260a565b9050808382526020820190506020840283018581111561268c5761268b612651565b5b835b818110156126b557806126a188826122ff565b84526020840193505060208101905061268e565b5050509392505050565b600082601f8301126126d4576126d3612594565b5b81356126e4848260208601612656565b91505092915050565b600080fd5b600067ffffffffffffffff82111561270d5761270c6125aa565b5b61271682612599565b9050602081019050919050565b82818337600083830152505050565b6000612745612740846126f2565b61260a565b905082815260208101848484011115612761576127606126ed565b5b61276c848285612723565b509392505050565b600082601f83011261278957612788612594565b5b8135612799848260208601612732565b91505092915050565b600080600080600060a086880312156127be576127bd611f47565b5b60006127cc888289016120bc565b95505060206127dd888289016120bc565b945050604086013567ffffffffffffffff8111156127fe576127fd611f4c565b5b61280a888289016126bf565b935050606086013567ffffffffffffffff81111561282b5761282a611f4c565b5b612837888289016126bf565b925050608086013567ffffffffffffffff81111561285857612857611f4c565b5b61286488828901612774565b9150509295509295909350565b61287a81611f51565b82525050565b60006020820190506128956000830184612871565b92915050565b600281106128a857600080fd5b50565b6000813590506128ba8161289b565b92915050565b600080600080600060a086880312156128dc576128db611f47565b5b60006128ea888289016128ab565b95505060206128fb888289016122ff565b945050604061290c888289016122ff565b935050606061291d888289016122ff565b925050608061292e888289016122ff565b9150509295509295909350565b600080600080600060a0868803121561295757612956611f47565b5b6000612965888289016120bc565b9550506020612976888289016120bc565b9450506040612987888289016122ff565b9350506060612998888289016122ff565b925050608086013567ffffffffffffffff8111156129b9576129b8611f4c565b5b6129c588828901612774565b9150509295509295909350565b6000602082840312156129e8576129e7611f47565b5b60006129f6848285016122ff565b91505092915050565b612a088161200c565b82525050565b6000602082019050612a2360008301846129ff565b92915050565b600082825260208201905092915050565b50565b6000612a4a600083612a29565b9150612a5582612a3a565b600082019050919050565b600060a082019050612a7560008301876122be565b612a8260208301866122be565b612a8f6040830185612294565b612a9c6060830184612294565b8181036080830152612aad81612a3d565b905095945050505050565b6000604082019050612acd60008301856122be565b612ada6020830184612294565b9392505050565b600081519050612af0816121de565b92915050565b600060208284031215612b0c57612b0b611f47565b5b6000612b1a84828501612ae1565b91505092915050565b6000604082019050612b3860008301856129ff565b612b456020830184612294565b9392505050565b600082825260208201905092915050565b7f41646d696e61626c653a2063616c6c6572206973206e6f7420746865206f776e60008201527f6572000000000000000000000000000000000000000000000000000000000000602082015250565b6000612bb9602283612b4c565b9150612bc482612b5d565b604082019050919050565b60006020820190508181036000830152612be881612bac565b9050919050565b6000604082019050612c046000830185611fe2565b612c116020830184611fe2565b9392505050565b7f4e487b7100000000000000000000000000000000000000000000000000000000600052601160045260246000fd5b6000612c528261228a565b9150612c5d8361228a565b9250817fffffffffffffffffffffffffffffffffffffffffffffffffffffffffffffffff0483118215151615612c9657612c95612c18565b5b828202905092915050565b7f4e487b7100000000000000000000000000000000000000000000000000000000600052601260045260246000fd5b6000612cdb8261228a565b9150612ce68361228a565b925082612cf657612cf5612ca1565b5b828204905092915050565b7f416d6f756e74206973207a65726f000000000000000000000000000000000000600082015250565b6000612d37600e83612b4c565b9150612d4282612d01565b602082019050919050565b60006020820190508181036000830152612d6681612d2a565b9050919050565b7f4964206572726f72000000000000000000000000000000000000000000000000600082015250565b6000612da3600883612b4c565b9150612dae82612d6d565b602082019050919050565b60006020820190508181036000830152612dd281612d96565b9050919050565b7f4368616c6c656e6765206e6f7420737461727400000000000000000000000000600082015250565b6000612e0f601383612b4c565b9150612e1a82612dd9565b602082019050919050565b60006020820190508181036000830152612e3e81612e02565b9050919050565b7f4368616c6c656e676520697320656e6400000000000000000000000000000000600082015250565b6000612e7b601083612b4c565b9150612e8682612e45565b602082019050919050565b60006020820190508181036000830152612eaa81612e6e565b9050919050565b7f53746172742074696d65206d757374206c657373207468616e20656e6420746960008201527f6d65000000000000000000000000000000000000000000000000000000000000602082015250565b6000612f0d602283612b4c565b9150612f1882612eb1565b604082019050919050565b60006020820190508181036000830152612f3c81612f00565b9050919050565b7f546f6b656e206964206e6f7420696e206368616c6c656e676500000000000000600082015250565b6000612f79601983612b4c565b9150612f8482612f43565b602082019050919050565b60006020820190508181036000830152612fa881612f6c565b9050919050565b6000612fba8261228a565b9150612fc58361228a565b9250827fffffffffffffffffffffffffffffffffffffffffffffffffffffffffffffffff03821115612ffa57612ff9612c18565b5b828201905092915050565b7f41646d696e61626c653a2063616c6c6572206973206e6f74207468652061646d60008201527f696e000000000000000000000000000000000000000000000000000000000000602082015250565b6000613061602283612b4c565b915061306c82613005565b604082019050919050565b6000602082019050818103600083015261309081613054565b9050919050565b7f496e76616c6964206368616c6c656e6765206964000000000000000000000000600082015250565b60006130cd601483612b4c565b91506130d882613097565b602082019050919050565b600060208201905081810360008301526130fc816130c0565b9050919050565b7f4368616c6c656e6765206e6f7420656e64000000000000000000000000000000600082015250565b6000613139601183612b4c565b915061314482613103565b602082019050919050565b600060208201905081810360008301526131688161312c565b9050919050565b7f53746172742074696d65206d757374206d6f7265207468616e2070726573656e60008201527f742074696d650000000000000000000000000000000000000000000000000000602082015250565b60006131cb602683612b4c565b91506131d68261316f565b604082019050919050565b600060208201905081810360008301526131fa816131be565b9050919050565b7f546f6b656e206964206d757374206c657373207468616e203337000000000000600082015250565b6000613237601a83612b4c565b915061324282613201565b602082019050919050565b600060208201905081810360008301526132668161322a565b9050919050565b60006132788261200c565b915061ffff820361328c5761328b612c18565b5b600182019050919050565b7f4f776e61626c653a206e6577206f776e657220697320746865207a65726f206160008201527f6464726573730000000000000000000000000000000000000000000000000000602082015250565b60006132f3602683612b4c565b91506132fe82613297565b604082019050919050565b60006020820190508181036000830152613322816132e6565b905091905056fea26469706673582212206a0dd2f8ef60ee22c09a5ea3decf85ecca0cfccb16449a54ed1fb9362cac196064736f6c634300080d0033",
					"opcodes": "PUSH1 0x80 PUSH1 0x40 MSTORE PUSH1 0x1 PUSH1 0x3 PUSH1 0x14 PUSH2 0x100 EXP DUP2 SLOAD DUP2 PUSH2 0xFFFF MUL NOT AND SWAP1 DUP4 PUSH2 0xFFFF AND MUL OR SWAP1 SSTORE POP PUSH8 0xDE0B6B3A7640000 PUSH1 0x4 SSTORE CALLVALUE DUP1 ISZERO PUSH3 0x3B JUMPI PUSH1 0x0 DUP1 REVERT JUMPDEST POP PUSH3 0x5C PUSH3 0x50 PUSH3 0x62 PUSH1 0x20 SHL PUSH1 0x20 SHR JUMP JUMPDEST PUSH3 0x6A PUSH1 0x20 SHL PUSH1 0x20 SHR JUMP JUMPDEST PUSH3 0x130 JUMP JUMPDEST PUSH1 0x0 CALLER SWAP1 POP SWAP1 JUMP JUMPDEST PUSH1 0x0 PUSH1 0x1 PUSH1 0x0 SWAP1 SLOAD SWAP1 PUSH2 0x100 EXP SWAP1 DIV PUSH20 0xFFFFFFFFFFFFFFFFFFFFFFFFFFFFFFFFFFFFFFFF AND SWAP1 POP DUP2 PUSH1 0x1 PUSH1 0x0 PUSH2 0x100 EXP DUP2 SLOAD DUP2 PUSH20 0xFFFFFFFFFFFFFFFFFFFFFFFFFFFFFFFFFFFFFFFF MUL NOT AND SWAP1 DUP4 PUSH20 0xFFFFFFFFFFFFFFFFFFFFFFFFFFFFFFFFFFFFFFFF AND MUL OR SWAP1 SSTORE POP DUP2 PUSH20 0xFFFFFFFFFFFFFFFFFFFFFFFFFFFFFFFFFFFFFFFF AND DUP2 PUSH20 0xFFFFFFFFFFFFFFFFFFFFFFFFFFFFFFFFFFFFFFFF AND PUSH32 0x8BE0079C531659141344CD1FD0A4F28419497F9722A3DAAFE3B4186F6B6457E0 PUSH1 0x40 MLOAD PUSH1 0x40 MLOAD DUP1 SWAP2 SUB SWAP1 LOG3 POP POP JUMP JUMPDEST PUSH2 0x335F DUP1 PUSH3 0x140 PUSH1 0x0 CODECOPY PUSH1 0x0 RETURN INVALID PUSH1 0x80 PUSH1 0x40 MSTORE CALLVALUE DUP1 ISZERO PUSH2 0x10 JUMPI PUSH1 0x0 DUP1 REVERT JUMPDEST POP PUSH1 0x4 CALLDATASIZE LT PUSH2 0x14D JUMPI PUSH1 0x0 CALLDATALOAD PUSH1 0xE0 SHR DUP1 PUSH4 0x891EE6D3 GT PUSH2 0xC3 JUMPI DUP1 PUSH4 0xDA80E59B GT PUSH2 0x7C JUMPI DUP1 PUSH4 0xDA80E59B EQ PUSH2 0x3AC JUMPI DUP1 PUSH4 0xF23A6E61 EQ PUSH2 0x3CA JUMPI DUP1 PUSH4 0xF2FDE38B EQ PUSH2 0x3FA JUMPI DUP1 PUSH4 0xF606FAEA EQ PUSH2 0x416 JUMPI DUP1 PUSH4 0xF7C618C1 EQ PUSH2 0x432 JUMPI DUP1 PUSH4 0xFFA65732 EQ PUSH2 0x450 JUMPI PUSH2 0x14D JUMP JUMPDEST DUP1 PUSH4 0x891EE6D3 EQ PUSH2 0x2DA JUMPI DUP1 PUSH4 0x8AEE8127 EQ PUSH2 0x30A JUMPI DUP1 PUSH4 0x8DA5CB5B EQ PUSH2 0x326 JUMPI DUP1 PUSH4 0xA278602F EQ PUSH2 0x344 JUMPI DUP1 PUSH4 0xBC197C81 EQ PUSH2 0x360 JUMPI DUP1 PUSH4 0xD5BF583B EQ PUSH2 0x390 JUMPI PUSH2 0x14D JUMP JUMPDEST DUP1 PUSH4 0x24D7806C GT PUSH2 0x115 JUMPI DUP1 PUSH4 0x24D7806C EQ PUSH2 0x21A JUMPI DUP1 PUSH4 0x270E3994 EQ PUSH2 0x24A JUMPI DUP1 PUSH4 0x52964DEF EQ PUSH2 0x268 JUMPI DUP1 PUSH4 0x6CD262FB EQ PUSH2 0x284 JUMPI DUP1 PUSH4 0x715018A6 EQ PUSH2 0x2A0 JUMPI DUP1 PUSH4 0x749F3429 EQ PUSH2 0x2AA JUMPI PUSH2 0x14D JUMP JUMPDEST DUP1 PUSH4 0x1FFC9A7 EQ PUSH2 0x152 JUMPI DUP1 PUSH4 0x82D0785 EQ PUSH2 0x182 JUMPI DUP1 PUSH4 0x11DA8E54 EQ PUSH2 0x19E JUMPI DUP1 PUSH4 0x18E20ECF EQ PUSH2 0x1CE JUMPI DUP1 PUSH4 0x21569088 EQ PUSH2 0x1EA JUMPI JUMPDEST PUSH1 0x0 DUP1 REVERT JUMPDEST PUSH2 0x16C PUSH1 0x4 DUP1 CALLDATASIZE SUB DUP2 ADD SWAP1 PUSH2 0x167 SWAP2 SWAP1 PUSH2 0x1FA9 JUMP JUMPDEST PUSH2 0x46E JUMP JUMPDEST PUSH1 0x40 MLOAD PUSH2 0x179 SWAP2 SWAP1 PUSH2 0x1FF1 JUMP JUMPDEST PUSH1 0x40 MLOAD DUP1 SWAP2 SUB SWAP1 RETURN JUMPDEST PUSH2 0x19C PUSH1 0x4 DUP1 CALLDATASIZE SUB DUP2 ADD SWAP1 PUSH2 0x197 SWAP2 SWAP1 PUSH2 0x2046 JUMP JUMPDEST PUSH2 0x4E8 JUMP JUMPDEST STOP JUMPDEST PUSH2 0x1B8 PUSH1 0x4 DUP1 CALLDATASIZE SUB DUP2 ADD SWAP1 PUSH2 0x1B3 SWAP2 SWAP1 PUSH2 0x20D1 JUMP JUMPDEST PUSH2 0x847 JUMP JUMPDEST PUSH1 0x40 MLOAD PUSH2 0x1C5 SWAP2 SWAP1 PUSH2 0x21BC JUMP JUMPDEST PUSH1 0x40 MLOAD DUP1 SWAP2 SUB SWAP1 RETURN JUMPDEST PUSH2 0x1E8 PUSH1 0x4 DUP1 CALLDATASIZE SUB DUP2 ADD SWAP1 PUSH2 0x1E3 SWAP2 SWAP1 PUSH2 0x220A JUMP JUMPDEST PUSH2 0x906 JUMP JUMPDEST STOP JUMPDEST PUSH2 0x204 PUSH1 0x4 DUP1 CALLDATASIZE SUB DUP2 ADD SWAP1 PUSH2 0x1FF SWAP2 SWAP1 PUSH2 0x224A JUMP JUMPDEST PUSH2 0xA77 JUMP JUMPDEST PUSH1 0x40 MLOAD PUSH2 0x211 SWAP2 SWAP1 PUSH2 0x22A3 JUMP JUMPDEST PUSH1 0x40 MLOAD DUP1 SWAP2 SUB SWAP1 RETURN JUMPDEST PUSH2 0x234 PUSH1 0x4 DUP1 CALLDATASIZE SUB DUP2 ADD SWAP1 PUSH2 0x22F SWAP2 SWAP1 PUSH2 0x20D1 JUMP JUMPDEST PUSH2 0xC91 JUMP JUMPDEST PUSH1 0x40 MLOAD PUSH2 0x241 SWAP2 SWAP1 PUSH2 0x1FF1 JUMP JUMPDEST PUSH1 0x40 MLOAD DUP1 SWAP2 SUB SWAP1 RETURN JUMPDEST PUSH2 0x252 PUSH2 0xCE6 JUMP JUMPDEST PUSH1 0x40 MLOAD PUSH2 0x25F SWAP2 SWAP1 PUSH2 0x22CD JUMP JUMPDEST PUSH1 0x40 MLOAD DUP1 SWAP2 SUB SWAP1 RETURN JUMPDEST PUSH2 0x282 PUSH1 0x4 DUP1 CALLDATASIZE SUB DUP2 ADD SWAP1 PUSH2 0x27D SWAP2 SWAP1 PUSH2 0x2314 JUMP JUMPDEST PUSH2 0xD0C JUMP JUMPDEST STOP JUMPDEST PUSH2 0x29E PUSH1 0x4 DUP1 CALLDATASIZE SUB DUP2 ADD SWAP1 PUSH2 0x299 SWAP2 SWAP1 PUSH2 0x20D1 JUMP JUMPDEST PUSH2 0x12E6 JUMP JUMPDEST STOP JUMPDEST PUSH2 0x2A8 PUSH2 0x13A6 JUMP JUMPDEST STOP JUMPDEST PUSH2 0x2C4 PUSH1 0x4 DUP1 CALLDATASIZE SUB DUP2 ADD SWAP1 PUSH2 0x2BF SWAP2 SWAP1 PUSH2 0x224A JUMP JUMPDEST PUSH2 0x142E JUMP JUMPDEST PUSH1 0x40 MLOAD PUSH2 0x2D1 SWAP2 SWAP1 PUSH2 0x23DA JUMP JUMPDEST PUSH1 0x40 MLOAD DUP1 SWAP2 SUB SWAP1 RETURN JUMPDEST PUSH2 0x2F4 PUSH1 0x4 DUP1 CALLDATASIZE SUB DUP2 ADD SWAP1 PUSH2 0x2EF SWAP2 SWAP1 PUSH2 0x2046 JUMP JUMPDEST PUSH2 0x14F0 JUMP JUMPDEST PUSH1 0x40 MLOAD PUSH2 0x301 SWAP2 SWAP1 PUSH2 0x2538 JUMP JUMPDEST PUSH1 0x40 MLOAD DUP1 SWAP2 SUB SWAP1 RETURN JUMPDEST PUSH2 0x324 PUSH1 0x4 DUP1 CALLDATASIZE SUB DUP2 ADD SWAP1 PUSH2 0x31F SWAP2 SWAP1 PUSH2 0x20D1 JUMP JUMPDEST PUSH2 0x15D1 JUMP JUMPDEST STOP JUMPDEST PUSH2 0x32E PUSH2 0x1691 JUMP JUMPDEST PUSH1 0x40 MLOAD PUSH2 0x33B SWAP2 SWAP1 PUSH2 0x22CD JUMP JUMPDEST PUSH1 0x40 MLOAD DUP1 SWAP2 SUB SWAP1 RETURN JUMPDEST PUSH2 0x35E PUSH1 0x4 DUP1 CALLDATASIZE SUB DUP2 ADD SWAP1 PUSH2 0x359 SWAP2 SWAP1 PUSH2 0x2554 JUMP JUMPDEST PUSH2 0x16BB JUMP JUMPDEST STOP JUMPDEST PUSH2 0x37A PUSH1 0x4 DUP1 CALLDATASIZE SUB DUP2 ADD SWAP1 PUSH2 0x375 SWAP2 SWAP1 PUSH2 0x27A2 JUMP JUMPDEST PUSH2 0x1920 JUMP JUMPDEST PUSH1 0x40 MLOAD PUSH2 0x387 SWAP2 SWAP1 PUSH2 0x2880 JUMP JUMPDEST PUSH1 0x40 MLOAD DUP1 SWAP2 SUB SWAP1 RETURN JUMPDEST PUSH2 0x3AA PUSH1 0x4 DUP1 CALLDATASIZE SUB DUP2 ADD SWAP1 PUSH2 0x3A5 SWAP2 SWAP1 PUSH2 0x28C0 JUMP JUMPDEST PUSH2 0x1935 JUMP JUMPDEST STOP JUMPDEST PUSH2 0x3B4 PUSH2 0x1B9C JUMP JUMPDEST PUSH1 0x40 MLOAD PUSH2 0x3C1 SWAP2 SWAP1 PUSH2 0x22A3 JUMP JUMPDEST PUSH1 0x40 MLOAD DUP1 SWAP2 SUB SWAP1 RETURN JUMPDEST PUSH2 0x3E4 PUSH1 0x4 DUP1 CALLDATASIZE SUB DUP2 ADD SWAP1 PUSH2 0x3DF SWAP2 SWAP1 PUSH2 0x293B JUMP JUMPDEST PUSH2 0x1BA2 JUMP JUMPDEST PUSH1 0x40 MLOAD PUSH2 0x3F1 SWAP2 SWAP1 PUSH2 0x2880 JUMP JUMPDEST PUSH1 0x40 MLOAD DUP1 SWAP2 SUB SWAP1 RETURN JUMPDEST PUSH2 0x414 PUSH1 0x4 DUP1 CALLDATASIZE SUB DUP2 ADD SWAP1 PUSH2 0x40F SWAP2 SWAP1 PUSH2 0x20D1 JUMP JUMPDEST PUSH2 0x1BB7 JUMP JUMPDEST STOP JUMPDEST PUSH2 0x430 PUSH1 0x4 DUP1 CALLDATASIZE SUB DUP2 ADD SWAP1 PUSH2 0x42B SWAP2 SWAP1 PUSH2 0x29D2 JUMP JUMPDEST PUSH2 0x1CAE JUMP JUMPDEST STOP JUMPDEST PUSH2 0x43A PUSH2 0x1D34 JUMP JUMPDEST PUSH1 0x40 MLOAD PUSH2 0x447 SWAP2 SWAP1 PUSH2 0x22CD JUMP JUMPDEST PUSH1 0x40 MLOAD DUP1 SWAP2 SUB SWAP1 RETURN JUMPDEST PUSH2 0x458 PUSH2 0x1D5A JUMP JUMPDEST PUSH1 0x40 MLOAD PUSH2 0x465 SWAP2 SWAP1 PUSH2 0x2A0E JUMP JUMPDEST PUSH1 0x40 MLOAD DUP1 SWAP2 SUB SWAP1 RETURN JUMPDEST PUSH1 0x0 PUSH32 0x4E2312E000000000000000000000000000000000000000000000000000000000 PUSH28 0xFFFFFFFFFFFFFFFFFFFFFFFFFFFFFFFFFFFFFFFFFFFFFFFFFFFFFFFF NOT AND DUP3 PUSH28 0xFFFFFFFFFFFFFFFFFFFFFFFFFFFFFFFFFFFFFFFFFFFFFFFFFFFFFFFF NOT AND EQ DUP1 PUSH2 0x4E1 JUMPI POP PUSH2 0x4E0 DUP3 PUSH2 0x1D6E JUMP JUMPDEST JUMPDEST SWAP1 POP SWAP2 SWAP1 POP JUMP JUMPDEST PUSH1 0x0 PUSH2 0x4F4 CALLER DUP4 PUSH2 0xA77 JUMP JUMPDEST SWAP1 POP PUSH1 0x0 PUSH1 0x6 PUSH1 0x0 CALLER PUSH20 0xFFFFFFFFFFFFFFFFFFFFFFFFFFFFFFFFFFFFFFFF AND PUSH20 0xFFFFFFFFFFFFFFFFFFFFFFFFFFFFFFFFFFFFFFFF AND DUP2 MSTORE PUSH1 0x20 ADD SWAP1 DUP2 MSTORE PUSH1 0x20 ADD PUSH1 0x0 KECCAK256 PUSH1 0x0 DUP5 PUSH2 0xFFFF AND PUSH2 0xFFFF AND DUP2 MSTORE PUSH1 0x20 ADD SWAP1 DUP2 MSTORE PUSH1 0x20 ADD PUSH1 0x0 KECCAK256 PUSH1 0x40 MLOAD DUP1 PUSH1 0x80 ADD PUSH1 0x40 MSTORE SWAP1 DUP2 PUSH1 0x0 DUP3 ADD PUSH1 0x0 SWAP1 SLOAD SWAP1 PUSH2 0x100 EXP SWAP1 DIV PUSH2 0xFFFF AND PUSH2 0xFFFF AND PUSH2 0xFFFF AND DUP2 MSTORE PUSH1 0x20 ADD PUSH1 0x1 DUP3 ADD SLOAD DUP2 MSTORE PUSH1 0x20 ADD PUSH1 0x2 DUP3 ADD SLOAD DUP2 MSTORE PUSH1 0x20 ADD PUSH1 0x3 DUP3 ADD PUSH1 0x0 SWAP1 SLOAD SWAP1 PUSH2 0x100 EXP SWAP1 DIV PUSH1 0xFF AND ISZERO ISZERO ISZERO ISZERO DUP2 MSTORE POP POP SWAP1 POP PUSH1 0x0 DUP1 PUSH1 0x0 PUSH1 0x5 PUSH1 0x0 DUP8 PUSH2 0xFFFF AND PUSH2 0xFFFF AND DUP2 MSTORE PUSH1 0x20 ADD SWAP1 DUP2 MSTORE PUSH1 0x20 ADD PUSH1 0x0 KECCAK256 PUSH1 0x40 MLOAD DUP1 PUSH2 0x140 ADD PUSH1 0x40 MSTORE SWAP1 DUP2 PUSH1 0x0 DUP3 ADD PUSH1 0x0 SWAP1 SLOAD SWAP1 PUSH2 0x100 EXP SWAP1 DIV PUSH1 0xFF AND PUSH1 0x1 DUP2 GT ISZERO PUSH2 0x5FD JUMPI PUSH2 0x5FC PUSH2 0x23F5 JUMP JUMPDEST JUMPDEST PUSH1 0x1 DUP2 GT ISZERO PUSH2 0x60F JUMPI PUSH2 0x60E PUSH2 0x23F5 JUMP JUMPDEST JUMPDEST DUP2 MSTORE PUSH1 0x20 ADD PUSH1 0x0 DUP3 ADD PUSH1 0x1 SWAP1 SLOAD SWAP1 PUSH2 0x100 EXP SWAP1 DIV PUSH2 0xFFFF AND PUSH2 0xFFFF AND PUSH2 0xFFFF AND DUP2 MSTORE PUSH1 0x20 ADD PUSH1 0x1 DUP3 ADD SLOAD DUP2 MSTORE PUSH1 0x20 ADD PUSH1 0x2 DUP3 ADD SLOAD DUP2 MSTORE PUSH1 0x20 ADD PUSH1 0x3 DUP3 ADD SLOAD DUP2 MSTORE PUSH1 0x20 ADD PUSH1 0x4 DUP3 ADD SLOAD DUP2 MSTORE PUSH1 0x20 ADD PUSH1 0x5 DUP3 ADD SLOAD DUP2 MSTORE PUSH1 0x20 ADD PUSH1 0x6 DUP3 ADD SLOAD DUP2 MSTORE PUSH1 0x20 ADD PUSH1 0x7 DUP3 ADD SLOAD DUP2 MSTORE PUSH1 0x20 ADD PUSH1 0x8 DUP3 ADD SLOAD DUP2 MSTORE POP POP SWAP1 POP DUP1 PUSH1 0xA0 ADD MLOAD DUP2 PUSH2 0x120 ADD MLOAD SUB PUSH2 0x6A8 JUMPI DUP1 PUSH1 0xA0 ADD MLOAD SWAP3 POP DUP4 PUSH1 0x20 ADD MLOAD SWAP2 POP PUSH2 0x6B7 JUMP JUMPDEST DUP1 PUSH1 0xC0 ADD MLOAD SWAP3 POP DUP1 PUSH1 0xC0 ADD MLOAD SWAP2 POP JUMPDEST PUSH1 0x2 PUSH1 0x0 SWAP1 SLOAD SWAP1 PUSH2 0x100 EXP SWAP1 DIV PUSH20 0xFFFFFFFFFFFFFFFFFFFFFFFFFFFFFFFFFFFFFFFF AND PUSH20 0xFFFFFFFFFFFFFFFFFFFFFFFFFFFFFFFFFFFFFFFF AND PUSH4 0xF242432A ADDRESS CALLER DUP7 DUP7 PUSH1 0x40 MLOAD DUP6 PUSH4 0xFFFFFFFF AND PUSH1 0xE0 SHL DUP2 MSTORE PUSH1 0x4 ADD PUSH2 0x718 SWAP5 SWAP4 SWAP3 SWAP2 SWAP1 PUSH2 0x2A60 JUMP JUMPDEST PUSH1 0x0 PUSH1 0x40 MLOAD DUP1 DUP4 SUB DUP2 PUSH1 0x0 DUP8 DUP1 EXTCODESIZE ISZERO DUP1 ISZERO PUSH2 0x732 JUMPI PUSH1 0x0 DUP1 REVERT JUMPDEST POP GAS CALL ISZERO DUP1 ISZERO PUSH2 0x746 JUMPI RETURNDATASIZE PUSH1 0x0 DUP1 RETURNDATACOPY RETURNDATASIZE PUSH1 0x0 REVERT JUMPDEST POP POP POP POP PUSH1 0x3 PUSH1 0x0 SWAP1 SLOAD SWAP1 PUSH2 0x100 EXP SWAP1 DIV PUSH20 0xFFFFFFFFFFFFFFFFFFFFFFFFFFFFFFFFFFFFFFFF AND PUSH20 0xFFFFFFFFFFFFFFFFFFFFFFFFFFFFFFFFFFFFFFFF AND PUSH4 0xA9059CBB CALLER DUP8 PUSH1 0x40 MLOAD DUP4 PUSH4 0xFFFFFFFF AND PUSH1 0xE0 SHL DUP2 MSTORE PUSH1 0x4 ADD PUSH2 0x7A7 SWAP3 SWAP2 SWAP1 PUSH2 0x2AB8 JUMP JUMPDEST PUSH1 0x20 PUSH1 0x40 MLOAD DUP1 DUP4 SUB DUP2 PUSH1 0x0 DUP8 GAS CALL ISZERO DUP1 ISZERO PUSH2 0x7C6 JUMPI RETURNDATASIZE PUSH1 0x0 DUP1 RETURNDATACOPY RETURNDATASIZE PUSH1 0x0 REVERT JUMPDEST POP POP POP POP PUSH1 0x40 MLOAD RETURNDATASIZE PUSH1 0x1F NOT PUSH1 0x1F DUP3 ADD AND DUP3 ADD DUP1 PUSH1 0x40 MSTORE POP DUP2 ADD SWAP1 PUSH2 0x7EA SWAP2 SWAP1 PUSH2 0x2AF6 JUMP JUMPDEST POP CALLER PUSH20 0xFFFFFFFFFFFFFFFFFFFFFFFFFFFFFFFFFFFFFFFF AND PUSH32 0x37928B7E81BCB91F89AB0BC4EB993473DE24975366BEBF5B4E1E946F2C948807 DUP3 PUSH1 0x20 ADD MLOAD DUP8 PUSH1 0x40 MLOAD PUSH2 0x837 SWAP3 SWAP2 SWAP1 PUSH2 0x2B23 JUMP JUMPDEST PUSH1 0x40 MLOAD DUP1 SWAP2 SUB SWAP1 LOG2 POP POP POP POP POP POP JUMP JUMPDEST PUSH1 0x60 PUSH1 0x7 PUSH1 0x0 DUP4 PUSH20 0xFFFFFFFFFFFFFFFFFFFFFFFFFFFFFFFFFFFFFFFF AND PUSH20 0xFFFFFFFFFFFFFFFFFFFFFFFFFFFFFFFFFFFFFFFF AND DUP2 MSTORE PUSH1 0x20 ADD SWAP1 DUP2 MSTORE PUSH1 0x20 ADD PUSH1 0x0 KECCAK256 DUP1 SLOAD DUP1 PUSH1 0x20 MUL PUSH1 0x20 ADD PUSH1 0x40 MLOAD SWAP1 DUP2 ADD PUSH1 0x40 MSTORE DUP1 SWAP3 SWAP2 SWAP1 DUP2 DUP2 MSTORE PUSH1 0x20 ADD DUP3 DUP1 SLOAD DUP1 ISZERO PUSH2 0x8FA JUMPI PUSH1 0x20 MUL DUP3 ADD SWAP2 SWAP1 PUSH1 0x0 MSTORE PUSH1 0x20 PUSH1 0x0 KECCAK256 SWAP1 PUSH1 0x0 SWAP1 JUMPDEST DUP3 DUP3 SWAP1 SLOAD SWAP1 PUSH2 0x100 EXP SWAP1 DIV PUSH2 0xFFFF AND PUSH2 0xFFFF AND DUP2 MSTORE PUSH1 0x20 ADD SWAP1 PUSH1 0x2 ADD SWAP1 PUSH1 0x20 DUP3 PUSH1 0x1 ADD DIV SWAP3 DUP4 ADD SWAP3 PUSH1 0x1 SUB DUP3 MUL SWAP2 POP DUP1 DUP5 GT PUSH2 0x8C1 JUMPI SWAP1 POP JUMPDEST POP POP POP POP POP SWAP1 POP SWAP2 SWAP1 POP JUMP JUMPDEST PUSH2 0x90E PUSH2 0x1DD8 JUMP JUMPDEST PUSH20 0xFFFFFFFFFFFFFFFFFFFFFFFFFFFFFFFFFFFFFFFF AND PUSH2 0x92C PUSH2 0x1691 JUMP JUMPDEST PUSH20 0xFFFFFFFFFFFFFFFFFFFFFFFFFFFFFFFFFFFFFFFF AND EQ PUSH2 0x982 JUMPI PUSH1 0x40 MLOAD PUSH32 0x8C379A000000000000000000000000000000000000000000000000000000000 DUP2 MSTORE PUSH1 0x4 ADD PUSH2 0x979 SWAP1 PUSH2 0x2BCF JUMP JUMPDEST PUSH1 0x40 MLOAD DUP1 SWAP2 SUB SWAP1 REVERT JUMPDEST DUP2 PUSH20 0xFFFFFFFFFFFFFFFFFFFFFFFFFFFFFFFFFFFFFFFF AND PUSH32 0x82F1FA40A3D82DEA3E406073819290601F436580AA7C69F9FEB61F885BDD8854 PUSH1 0x0 DUP1 DUP6 PUSH20 0xFFFFFFFFFFFFFFFFFFFFFFFFFFFFFFFFFFFFFFFF AND PUSH20 0xFFFFFFFFFFFFFFFFFFFFFFFFFFFFFFFFFFFFFFFF AND DUP2 MSTORE PUSH1 0x20 ADD SWAP1 DUP2 MSTORE PUSH1 0x20 ADD PUSH1 0x0 KECCAK256 PUSH1 0x0 SWAP1 SLOAD SWAP1 PUSH2 0x100 EXP SWAP1 DIV PUSH1 0xFF AND DUP4 PUSH1 0x40 MLOAD PUSH2 0xA15 SWAP3 SWAP2 SWAP1 PUSH2 0x2BEF JUMP JUMPDEST PUSH1 0x40 MLOAD DUP1 SWAP2 SUB SWAP1 LOG2 DUP1 PUSH1 0x0 DUP1 DUP5 PUSH20 0xFFFFFFFFFFFFFFFFFFFFFFFFFFFFFFFFFFFFFFFF AND PUSH20 0xFFFFFFFFFFFFFFFFFFFFFFFFFFFFFFFFFFFFFFFF AND DUP2 MSTORE PUSH1 0x20 ADD SWAP1 DUP2 MSTORE PUSH1 0x20 ADD PUSH1 0x0 KECCAK256 PUSH1 0x0 PUSH2 0x100 EXP DUP2 SLOAD DUP2 PUSH1 0xFF MUL NOT AND SWAP1 DUP4 ISZERO ISZERO MUL OR SWAP1 SSTORE POP POP POP JUMP JUMPDEST PUSH1 0x0 DUP1 PUSH1 0x5 PUSH1 0x0 DUP5 PUSH2 0xFFFF AND PUSH2 0xFFFF AND DUP2 MSTORE PUSH1 0x20 ADD SWAP1 DUP2 MSTORE PUSH1 0x20 ADD PUSH1 0x0 KECCAK256 PUSH1 0x40 MLOAD DUP1 PUSH2 0x140 ADD PUSH1 0x40 MSTORE SWAP1 DUP2 PUSH1 0x0 DUP3 ADD PUSH1 0x0 SWAP1 SLOAD SWAP1 PUSH2 0x100 EXP SWAP1 DIV PUSH1 0xFF AND PUSH1 0x1 DUP2 GT ISZERO PUSH2 0xAC6 JUMPI PUSH2 0xAC5 PUSH2 0x23F5 JUMP JUMPDEST JUMPDEST PUSH1 0x1 DUP2 GT ISZERO PUSH2 0xAD8 JUMPI PUSH2 0xAD7 PUSH2 0x23F5 JUMP JUMPDEST JUMPDEST DUP2 MSTORE PUSH1 0x20 ADD PUSH1 0x0 DUP3 ADD PUSH1 0x1 SWAP1 SLOAD SWAP1 PUSH2 0x100 EXP SWAP1 DIV PUSH2 0xFFFF AND PUSH2 0xFFFF AND PUSH2 0xFFFF AND DUP2 MSTORE PUSH1 0x20 ADD PUSH1 0x1 DUP3 ADD SLOAD DUP2 MSTORE PUSH1 0x20 ADD PUSH1 0x2 DUP3 ADD SLOAD DUP2 MSTORE PUSH1 0x20 ADD PUSH1 0x3 DUP3 ADD SLOAD DUP2 MSTORE PUSH1 0x20 ADD PUSH1 0x4 DUP3 ADD SLOAD DUP2 MSTORE PUSH1 0x20 ADD PUSH1 0x5 DUP3 ADD SLOAD DUP2 MSTORE PUSH1 0x20 ADD PUSH1 0x6 DUP3 ADD SLOAD DUP2 MSTORE PUSH1 0x20 ADD PUSH1 0x7 DUP3 ADD SLOAD DUP2 MSTORE PUSH1 0x20 ADD PUSH1 0x8 DUP3 ADD SLOAD DUP2 MSTORE POP POP SWAP1 POP PUSH1 0x0 DUP2 PUSH1 0x20 ADD MLOAD PUSH2 0xFFFF AND SUB PUSH2 0xB68 JUMPI PUSH1 0x0 SWAP2 POP POP PUSH2 0xC8B JUMP JUMPDEST PUSH1 0x0 PUSH1 0x6 PUSH1 0x0 DUP7 PUSH20 0xFFFFFFFFFFFFFFFFFFFFFFFFFFFFFFFFFFFFFFFF AND PUSH20 0xFFFFFFFFFFFFFFFFFFFFFFFFFFFFFFFFFFFFFFFF AND DUP2 MSTORE PUSH1 0x20 ADD SWAP1 DUP2 MSTORE PUSH1 0x20 ADD PUSH1 0x0 KECCAK256 PUSH1 0x0 DUP6 PUSH2 0xFFFF AND PUSH2 0xFFFF AND DUP2 MSTORE PUSH1 0x20 ADD SWAP1 DUP2 MSTORE PUSH1 0x20 ADD PUSH1 0x0 KECCAK256 PUSH1 0x40 MLOAD DUP1 PUSH1 0x80 ADD PUSH1 0x40 MSTORE SWAP1 DUP2 PUSH1 0x0 DUP3 ADD PUSH1 0x0 SWAP1 SLOAD SWAP1 PUSH2 0x100 EXP SWAP1 DIV PUSH2 0xFFFF AND PUSH2 0xFFFF AND PUSH2 0xFFFF AND DUP2 MSTORE PUSH1 0x20 ADD PUSH1 0x1 DUP3 ADD SLOAD DUP2 MSTORE PUSH1 0x20 ADD PUSH1 0x2 DUP3 ADD SLOAD DUP2 MSTORE PUSH1 0x20 ADD PUSH1 0x3 DUP3 ADD PUSH1 0x0 SWAP1 SLOAD SWAP1 PUSH2 0x100 EXP SWAP1 DIV PUSH1 0xFF AND ISZERO ISZERO ISZERO ISZERO DUP2 MSTORE POP POP SWAP1 POP PUSH1 0x0 DUP2 PUSH1 0x0 ADD MLOAD PUSH2 0xFFFF AND SUB PUSH2 0xC39 JUMPI PUSH1 0x0 SWAP3 POP POP POP PUSH2 0xC8B JUMP JUMPDEST PUSH1 0x0 DUP3 PUSH1 0xA0 ADD MLOAD DUP4 PUSH2 0x120 ADD MLOAD SUB PUSH2 0xC57 JUMPI DUP2 PUSH1 0x20 ADD MLOAD SWAP1 POP PUSH2 0xC5F JUMP JUMPDEST DUP2 PUSH1 0x40 ADD MLOAD SWAP1 POP JUMPDEST PUSH1 0x64 PUSH1 0x50 PUSH1 0x4 SLOAD DUP4 PUSH2 0xC71 SWAP2 SWAP1 PUSH2 0x2C47 JUMP JUMPDEST PUSH2 0xC7B SWAP2 SWAP1 PUSH2 0x2C47 JUMP JUMPDEST PUSH2 0xC85 SWAP2 SWAP1 PUSH2 0x2CD0 JUMP JUMPDEST SWAP4 POP POP POP POP JUMPDEST SWAP3 SWAP2 POP POP JUMP JUMPDEST PUSH1 0x0 DUP1 PUSH1 0x0 DUP4 PUSH20 0xFFFFFFFFFFFFFFFFFFFFFFFFFFFFFFFFFFFFFFFF AND PUSH20 0xFFFFFFFFFFFFFFFFFFFFFFFFFFFFFFFFFFFFFFFF AND DUP2 MSTORE PUSH1 0x20 ADD SWAP1 DUP2 MSTORE PUSH1 0x20 ADD PUSH1 0x0 KECCAK256 PUSH1 0x0 SWAP1 SLOAD SWAP1 PUSH2 0x100 EXP SWAP1 DIV PUSH1 0xFF AND SWAP1 POP SWAP2 SWAP1 POP JUMP JUMPDEST PUSH1 0x2 PUSH1 0x0 SWAP1 SLOAD SWAP1 PUSH2 0x100 EXP SWAP1 DIV PUSH20 0xFFFFFFFFFFFFFFFFFFFFFFFFFFFFFFFFFFFFFFFF AND DUP2 JUMP JUMPDEST PUSH1 0x0 DUP2 GT PUSH2 0xD4F JUMPI PUSH1 0x40 MLOAD PUSH32 0x8C379A000000000000000000000000000000000000000000000000000000000 DUP2 MSTORE PUSH1 0x4 ADD PUSH2 0xD46 SWAP1 PUSH2 0x2D4D JUMP JUMPDEST PUSH1 0x40 MLOAD DUP1 SWAP2 SUB SWAP1 REVERT JUMPDEST PUSH1 0x0 PUSH1 0x5 PUSH1 0x0 DUP6 PUSH2 0xFFFF AND PUSH2 0xFFFF AND DUP2 MSTORE PUSH1 0x20 ADD SWAP1 DUP2 MSTORE PUSH1 0x20 ADD PUSH1 0x0 KECCAK256 PUSH1 0x40 MLOAD DUP1 PUSH2 0x140 ADD PUSH1 0x40 MSTORE SWAP1 DUP2 PUSH1 0x0 DUP3 ADD PUSH1 0x0 SWAP1 SLOAD SWAP1 PUSH2 0x100 EXP SWAP1 DIV PUSH1 0xFF AND PUSH1 0x1 DUP2 GT ISZERO PUSH2 0xD9D JUMPI PUSH2 0xD9C PUSH2 0x23F5 JUMP JUMPDEST JUMPDEST PUSH1 0x1 DUP2 GT ISZERO PUSH2 0xDAF JUMPI PUSH2 0xDAE PUSH2 0x23F5 JUMP JUMPDEST JUMPDEST DUP2 MSTORE PUSH1 0x20 ADD PUSH1 0x0 DUP3 ADD PUSH1 0x1 SWAP1 SLOAD SWAP1 PUSH2 0x100 EXP SWAP1 DIV PUSH2 0xFFFF AND PUSH2 0xFFFF AND PUSH2 0xFFFF AND DUP2 MSTORE PUSH1 0x20 ADD PUSH1 0x1 DUP3 ADD SLOAD DUP2 MSTORE PUSH1 0x20 ADD PUSH1 0x2 DUP3 ADD SLOAD DUP2 MSTORE PUSH1 0x20 ADD PUSH1 0x3 DUP3 ADD SLOAD DUP2 MSTORE PUSH1 0x20 ADD PUSH1 0x4 DUP3 ADD SLOAD DUP2 MSTORE PUSH1 0x20 ADD PUSH1 0x5 DUP3 ADD SLOAD DUP2 MSTORE PUSH1 0x20 ADD PUSH1 0x6 DUP3 ADD SLOAD DUP2 MSTORE PUSH1 0x20 ADD PUSH1 0x7 DUP3 ADD SLOAD DUP2 MSTORE PUSH1 0x20 ADD PUSH1 0x8 DUP3 ADD SLOAD DUP2 MSTORE POP POP SWAP1 POP PUSH1 0x0 DUP2 PUSH1 0x20 ADD MLOAD PUSH2 0xFFFF AND SUB PUSH2 0xE70 JUMPI PUSH1 0x40 MLOAD PUSH32 0x8C379A000000000000000000000000000000000000000000000000000000000 DUP2 MSTORE PUSH1 0x4 ADD PUSH2 0xE67 SWAP1 PUSH2 0x2DB9 JUMP JUMPDEST PUSH1 0x40 MLOAD DUP1 SWAP2 SUB SWAP1 REVERT JUMPDEST TIMESTAMP DUP2 PUSH1 0x40 ADD MLOAD GT ISZERO PUSH2 0xEB7 JUMPI PUSH1 0x40 MLOAD PUSH32 0x8C379A000000000000000000000000000000000000000000000000000000000 DUP2 MSTORE PUSH1 0x4 ADD PUSH2 0xEAE SWAP1 PUSH2 0x2E25 JUMP JUMPDEST PUSH1 0x40 MLOAD DUP1 SWAP2 SUB SWAP1 REVERT JUMPDEST TIMESTAMP DUP2 PUSH1 0x60 ADD MLOAD GT PUSH2 0xEFD JUMPI PUSH1 0x40 MLOAD PUSH32 0x8C379A000000000000000000000000000000000000000000000000000000000 DUP2 MSTORE PUSH1 0x4 ADD PUSH2 0xEF4 SWAP1 PUSH2 0x2E91 JUMP JUMPDEST PUSH1 0x40 MLOAD DUP1 SWAP2 SUB SWAP1 REVERT JUMPDEST DUP1 PUSH1 0x60 ADD MLOAD DUP2 PUSH1 0x40 ADD MLOAD LT PUSH2 0xF47 JUMPI PUSH1 0x40 MLOAD PUSH32 0x8C379A000000000000000000000000000000000000000000000000000000000 DUP2 MSTORE PUSH1 0x4 ADD PUSH2 0xF3E SWAP1 PUSH2 0x2F23 JUMP JUMPDEST PUSH1 0x40 MLOAD DUP1 SWAP2 SUB SWAP1 REVERT JUMPDEST DUP3 DUP2 PUSH1 0xA0 ADD MLOAD EQ DUP1 PUSH2 0xF5C JUMPI POP DUP3 DUP2 PUSH1 0xC0 ADD MLOAD EQ JUMPDEST PUSH2 0xF9B JUMPI PUSH1 0x40 MLOAD PUSH32 0x8C379A000000000000000000000000000000000000000000000000000000000 DUP2 MSTORE PUSH1 0x4 ADD PUSH2 0xF92 SWAP1 PUSH2 0x2F8F JUMP JUMPDEST PUSH1 0x40 MLOAD DUP1 SWAP2 SUB SWAP1 REVERT JUMPDEST PUSH1 0x2 PUSH1 0x0 SWAP1 SLOAD SWAP1 PUSH2 0x100 EXP SWAP1 DIV PUSH20 0xFFFFFFFFFFFFFFFFFFFFFFFFFFFFFFFFFFFFFFFF AND PUSH20 0xFFFFFFFFFFFFFFFFFFFFFFFFFFFFFFFFFFFFFFFF AND PUSH4 0xF242432A CALLER ADDRESS DUP7 DUP7 PUSH1 0x40 MLOAD DUP6 PUSH4 0xFFFFFFFF AND PUSH1 0xE0 SHL DUP2 MSTORE PUSH1 0x4 ADD PUSH2 0xFFC SWAP5 SWAP4 SWAP3 SWAP2 SWAP1 PUSH2 0x2A60 JUMP JUMPDEST PUSH1 0x0 PUSH1 0x40 MLOAD DUP1 DUP4 SUB DUP2 PUSH1 0x0 DUP8 DUP1 EXTCODESIZE ISZERO DUP1 ISZERO PUSH2 0x1016 JUMPI PUSH1 0x0 DUP1 REVERT JUMPDEST POP GAS CALL ISZERO DUP1 ISZERO PUSH2 0x102A JUMPI RETURNDATASIZE PUSH1 0x0 DUP1 RETURNDATACOPY RETURNDATASIZE PUSH1 0x0 REVERT JUMPDEST POP POP POP POP PUSH1 0x0 PUSH1 0x6 PUSH1 0x0 CALLER PUSH20 0xFFFFFFFFFFFFFFFFFFFFFFFFFFFFFFFFFFFFFFFF AND PUSH20 0xFFFFFFFFFFFFFFFFFFFFFFFFFFFFFFFFFFFFFFFF AND DUP2 MSTORE PUSH1 0x20 ADD SWAP1 DUP2 MSTORE PUSH1 0x20 ADD PUSH1 0x0 KECCAK256 PUSH1 0x0 DUP7 PUSH2 0xFFFF AND PUSH2 0xFFFF AND DUP2 MSTORE PUSH1 0x20 ADD SWAP1 DUP2 MSTORE PUSH1 0x20 ADD PUSH1 0x0 KECCAK256 PUSH1 0x40 MLOAD DUP1 PUSH1 0x80 ADD PUSH1 0x40 MSTORE SWAP1 DUP2 PUSH1 0x0 DUP3 ADD PUSH1 0x0 SWAP1 SLOAD SWAP1 PUSH2 0x100 EXP SWAP1 DIV PUSH2 0xFFFF AND PUSH2 0xFFFF AND PUSH2 0xFFFF AND DUP2 MSTORE PUSH1 0x20 ADD PUSH1 0x1 DUP3 ADD SLOAD DUP2 MSTORE PUSH1 0x20 ADD PUSH1 0x2 DUP3 ADD SLOAD DUP2 MSTORE PUSH1 0x20 ADD PUSH1 0x3 DUP3 ADD PUSH1 0x0 SWAP1 SLOAD SWAP1 PUSH2 0x100 EXP SWAP1 DIV PUSH1 0xFF AND ISZERO ISZERO ISZERO ISZERO DUP2 MSTORE POP POP SWAP1 POP DUP5 DUP2 PUSH1 0x0 ADD SWAP1 PUSH2 0xFFFF AND SWAP1 DUP2 PUSH2 0xFFFF AND DUP2 MSTORE POP POP PUSH1 0x7 PUSH1 0x0 CALLER PUSH20 0xFFFFFFFFFFFFFFFFFFFFFFFFFFFFFFFFFFFFFFFF AND PUSH20 0xFFFFFFFFFFFFFFFFFFFFFFFFFFFFFFFFFFFFFFFF AND DUP2 MSTORE PUSH1 0x20 ADD SWAP1 DUP2 MSTORE PUSH1 0x20 ADD PUSH1 0x0 KECCAK256 DUP6 SWAP1 DUP1 PUSH1 0x1 DUP2 SLOAD ADD DUP1 DUP3 SSTORE DUP1 SWAP2 POP POP PUSH1 0x1 SWAP1 SUB SWAP1 PUSH1 0x0 MSTORE PUSH1 0x20 PUSH1 0x0 KECCAK256 SWAP1 PUSH1 0x10 SWAP2 DUP3 DUP3 DIV ADD SWAP2 SWAP1 MOD PUSH1 0x2 MUL SWAP1 SWAP2 SWAP1 SWAP2 SWAP1 SWAP2 PUSH2 0x100 EXP DUP2 SLOAD DUP2 PUSH2 0xFFFF MUL NOT AND SWAP1 DUP4 PUSH2 0xFFFF AND MUL OR SWAP1 SSTORE POP DUP4 DUP3 PUSH1 0xA0 ADD MLOAD SUB PUSH2 0x11DD JUMPI DUP3 PUSH1 0x5 PUSH1 0x0 DUP8 PUSH2 0xFFFF AND PUSH2 0xFFFF AND DUP2 MSTORE PUSH1 0x20 ADD SWAP1 DUP2 MSTORE PUSH1 0x20 ADD PUSH1 0x0 KECCAK256 PUSH1 0x6 ADD PUSH1 0x0 DUP3 DUP3 SLOAD PUSH2 0x11B8 SWAP2 SWAP1 PUSH2 0x2FAF JUMP JUMPDEST SWAP3 POP POP DUP2 SWAP1 SSTORE POP DUP3 DUP2 PUSH1 0x20 ADD DUP2 DUP2 MLOAD PUSH2 0x11D1 SWAP2 SWAP1 PUSH2 0x2FAF JUMP JUMPDEST SWAP2 POP DUP2 DUP2 MSTORE POP POP PUSH2 0x122C JUMP JUMPDEST DUP3 PUSH1 0x5 PUSH1 0x0 DUP8 PUSH2 0xFFFF AND PUSH2 0xFFFF AND DUP2 MSTORE PUSH1 0x20 ADD SWAP1 DUP2 MSTORE PUSH1 0x20 ADD PUSH1 0x0 KECCAK256 PUSH1 0x7 ADD PUSH1 0x0 DUP3 DUP3 SLOAD PUSH2 0x120B SWAP2 SWAP1 PUSH2 0x2FAF JUMP JUMPDEST SWAP3 POP POP DUP2 SWAP1 SSTORE POP DUP3 DUP2 PUSH1 0x40 ADD DUP2 DUP2 MLOAD PUSH2 0x1224 SWAP2 SWAP1 PUSH2 0x2FAF JUMP JUMPDEST SWAP2 POP DUP2 DUP2 MSTORE POP POP JUMPDEST DUP1 PUSH1 0x6 PUSH1 0x0 CALLER PUSH20 0xFFFFFFFFFFFFFFFFFFFFFFFFFFFFFFFFFFFFFFFF AND PUSH20 0xFFFFFFFFFFFFFFFFFFFFFFFFFFFFFFFFFFFFFFFF AND DUP2 MSTORE PUSH1 0x20 ADD SWAP1 DUP2 MSTORE PUSH1 0x20 ADD PUSH1 0x0 KECCAK256 PUSH1 0x0 DUP8 PUSH2 0xFFFF AND PUSH2 0xFFFF AND DUP2 MSTORE PUSH1 0x20 ADD SWAP1 DUP2 MSTORE PUSH1 0x20 ADD PUSH1 0x0 KECCAK256 PUSH1 0x0 DUP3 ADD MLOAD DUP2 PUSH1 0x0 ADD PUSH1 0x0 PUSH2 0x100 EXP DUP2 SLOAD DUP2 PUSH2 0xFFFF MUL NOT AND SWAP1 DUP4 PUSH2 0xFFFF AND MUL OR SWAP1 SSTORE POP PUSH1 0x20 DUP3 ADD MLOAD DUP2 PUSH1 0x1 ADD SSTORE PUSH1 0x40 DUP3 ADD MLOAD DUP2 PUSH1 0x2 ADD SSTORE PUSH1 0x60 DUP3 ADD MLOAD DUP2 PUSH1 0x3 ADD PUSH1 0x0 PUSH2 0x100 EXP DUP2 SLOAD DUP2 PUSH1 0xFF MUL NOT AND SWAP1 DUP4 ISZERO ISZERO MUL OR SWAP1 SSTORE POP SWAP1 POP POP POP POP POP POP POP JUMP JUMPDEST PUSH2 0x12EE PUSH2 0x1DD8 JUMP JUMPDEST PUSH20 0xFFFFFFFFFFFFFFFFFFFFFFFFFFFFFFFFFFFFFFFF AND PUSH2 0x130C PUSH2 0x1691 JUMP JUMPDEST PUSH20 0xFFFFFFFFFFFFFFFFFFFFFFFFFFFFFFFFFFFFFFFF AND EQ PUSH2 0x1362 JUMPI PUSH1 0x40 MLOAD PUSH32 0x8C379A000000000000000000000000000000000000000000000000000000000 DUP2 MSTORE PUSH1 0x4 ADD PUSH2 0x1359 SWAP1 PUSH2 0x2BCF JUMP JUMPDEST PUSH1 0x40 MLOAD DUP1 SWAP2 SUB SWAP1 REVERT JUMPDEST DUP1 PUSH1 0x2 PUSH1 0x0 PUSH2 0x100 EXP DUP2 SLOAD DUP2 PUSH20 0xFFFFFFFFFFFFFFFFFFFFFFFFFFFFFFFFFFFFFFFF MUL NOT AND SWAP1 DUP4 PUSH20 0xFFFFFFFFFFFFFFFFFFFFFFFFFFFFFFFFFFFFFFFF AND MUL OR SWAP1 SSTORE POP POP JUMP JUMPDEST PUSH2 0x13AE PUSH2 0x1DD8 JUMP JUMPDEST PUSH20 0xFFFFFFFFFFFFFFFFFFFFFFFFFFFFFFFFFFFFFFFF AND PUSH2 0x13CC PUSH2 0x1691 JUMP JUMPDEST PUSH20 0xFFFFFFFFFFFFFFFFFFFFFFFFFFFFFFFFFFFFFFFF AND EQ PUSH2 0x1422 JUMPI PUSH1 0x40 MLOAD PUSH32 0x8C379A000000000000000000000000000000000000000000000000000000000 DUP2 MSTORE PUSH1 0x4 ADD PUSH2 0x1419 SWAP1 PUSH2 0x2BCF JUMP JUMPDEST PUSH1 0x40 MLOAD DUP1 SWAP2 SUB SWAP1 REVERT JUMPDEST PUSH2 0x142C PUSH1 0x0 PUSH2 0x1DE0 JUMP JUMPDEST JUMP JUMPDEST PUSH2 0x1436 PUSH2 0x1EA6 JUMP JUMPDEST PUSH1 0x6 PUSH1 0x0 DUP5 PUSH20 0xFFFFFFFFFFFFFFFFFFFFFFFFFFFFFFFFFFFFFFFF AND PUSH20 0xFFFFFFFFFFFFFFFFFFFFFFFFFFFFFFFFFFFFFFFF AND DUP2 MSTORE PUSH1 0x20 ADD SWAP1 DUP2 MSTORE PUSH1 0x20 ADD PUSH1 0x0 KECCAK256 PUSH1 0x0 DUP4 PUSH2 0xFFFF AND PUSH2 0xFFFF AND DUP2 MSTORE PUSH1 0x20 ADD SWAP1 DUP2 MSTORE PUSH1 0x20 ADD PUSH1 0x0 KECCAK256 PUSH1 0x40 MLOAD DUP1 PUSH1 0x80 ADD PUSH1 0x40 MSTORE SWAP1 DUP2 PUSH1 0x0 DUP3 ADD PUSH1 0x0 SWAP1 SLOAD SWAP1 PUSH2 0x100 EXP SWAP1 DIV PUSH2 0xFFFF AND PUSH2 0xFFFF AND PUSH2 0xFFFF AND DUP2 MSTORE PUSH1 0x20 ADD PUSH1 0x1 DUP3 ADD SLOAD DUP2 MSTORE PUSH1 0x20 ADD PUSH1 0x2 DUP3 ADD SLOAD DUP2 MSTORE PUSH1 0x20 ADD PUSH1 0x3 DUP3 ADD PUSH1 0x0 SWAP1 SLOAD SWAP1 PUSH2 0x100 EXP SWAP1 DIV PUSH1 0xFF AND ISZERO ISZERO ISZERO ISZERO DUP2 MSTORE POP POP SWAP1 POP SWAP3 SWAP2 POP POP JUMP JUMPDEST PUSH2 0x14F8 PUSH2 0x1ED4 JUMP JUMPDEST PUSH1 0x5 PUSH1 0x0 DUP4 PUSH2 0xFFFF AND PUSH2 0xFFFF AND DUP2 MSTORE PUSH1 0x20 ADD SWAP1 DUP2 MSTORE PUSH1 0x20 ADD PUSH1 0x0 KECCAK256 PUSH1 0x40 MLOAD DUP1 PUSH2 0x140 ADD PUSH1 0x40 MSTORE SWAP1 DUP2 PUSH1 0x0 DUP3 ADD PUSH1 0x0 SWAP1 SLOAD SWAP1 PUSH2 0x100 EXP SWAP1 DIV PUSH1 0xFF AND PUSH1 0x1 DUP2 GT ISZERO PUSH2 0x1544 JUMPI PUSH2 0x1543 PUSH2 0x23F5 JUMP JUMPDEST JUMPDEST PUSH1 0x1 DUP2 GT ISZERO PUSH2 0x1556 JUMPI PUSH2 0x1555 PUSH2 0x23F5 JUMP JUMPDEST JUMPDEST DUP2 MSTORE PUSH1 0x20 ADD PUSH1 0x0 DUP3 ADD PUSH1 0x1 SWAP1 SLOAD SWAP1 PUSH2 0x100 EXP SWAP1 DIV PUSH2 0xFFFF AND PUSH2 0xFFFF AND PUSH2 0xFFFF AND DUP2 MSTORE PUSH1 0x20 ADD PUSH1 0x1 DUP3 ADD SLOAD DUP2 MSTORE PUSH1 0x20 ADD PUSH1 0x2 DUP3 ADD SLOAD DUP2 MSTORE PUSH1 0x20 ADD PUSH1 0x3 DUP3 ADD SLOAD DUP2 MSTORE PUSH1 0x20 ADD PUSH1 0x4 DUP3 ADD SLOAD DUP2 MSTORE PUSH1 0x20 ADD PUSH1 0x5 DUP3 ADD SLOAD DUP2 MSTORE PUSH1 0x20 ADD PUSH1 0x6 DUP3 ADD SLOAD DUP2 MSTORE PUSH1 0x20 ADD PUSH1 0x7 DUP3 ADD SLOAD DUP2 MSTORE PUSH1 0x20 ADD PUSH1 0x8 DUP3 ADD SLOAD DUP2 MSTORE POP POP SWAP1 POP SWAP2 SWAP1 POP JUMP JUMPDEST PUSH2 0x15D9 PUSH2 0x1DD8 JUMP JUMPDEST PUSH20 0xFFFFFFFFFFFFFFFFFFFFFFFFFFFFFFFFFFFFFFFF AND PUSH2 0x15F7 PUSH2 0x1691 JUMP JUMPDEST PUSH20 0xFFFFFFFFFFFFFFFFFFFFFFFFFFFFFFFFFFFFFFFF AND EQ PUSH2 0x164D JUMPI PUSH1 0x40 MLOAD PUSH32 0x8C379A000000000000000000000000000000000000000000000000000000000 DUP2 MSTORE PUSH1 0x4 ADD PUSH2 0x1644 SWAP1 PUSH2 0x2BCF JUMP JUMPDEST PUSH1 0x40 MLOAD DUP1 SWAP2 SUB SWAP1 REVERT JUMPDEST DUP1 PUSH1 0x3 PUSH1 0x0 PUSH2 0x100 EXP DUP2 SLOAD DUP2 PUSH20 0xFFFFFFFFFFFFFFFFFFFFFFFFFFFFFFFFFFFFFFFF MUL NOT AND SWAP1 DUP4 PUSH20 0xFFFFFFFFFFFFFFFFFFFFFFFFFFFFFFFFFFFFFFFF AND MUL OR SWAP1 SSTORE POP POP JUMP JUMPDEST PUSH1 0x0 PUSH1 0x1 PUSH1 0x0 SWAP1 SLOAD SWAP1 PUSH2 0x100 EXP SWAP1 DIV PUSH20 0xFFFFFFFFFFFFFFFFFFFFFFFFFFFFFFFFFFFFFFFF AND SWAP1 POP SWAP1 JUMP JUMPDEST PUSH2 0x16CB PUSH2 0x16C6 PUSH2 0x1DD8 JUMP JUMPDEST PUSH2 0xC91 JUMP JUMPDEST PUSH2 0x170A JUMPI PUSH1 0x40 MLOAD PUSH32 0x8C379A000000000000000000000000000000000000000000000000000000000 DUP2 MSTORE PUSH1 0x4 ADD PUSH2 0x1701 SWAP1 PUSH2 0x3077 JUMP JUMPDEST PUSH1 0x40 MLOAD DUP1 SWAP2 SUB SWAP1 REVERT JUMPDEST PUSH1 0x0 PUSH1 0x5 PUSH1 0x0 DUP5 PUSH2 0xFFFF AND PUSH2 0xFFFF AND DUP2 MSTORE PUSH1 0x20 ADD SWAP1 DUP2 MSTORE PUSH1 0x20 ADD PUSH1 0x0 KECCAK256 PUSH1 0x40 MLOAD DUP1 PUSH2 0x140 ADD PUSH1 0x40 MSTORE SWAP1 DUP2 PUSH1 0x0 DUP3 ADD PUSH1 0x0 SWAP1 SLOAD SWAP1 PUSH2 0x100 EXP SWAP1 DIV PUSH1 0xFF AND PUSH1 0x1 DUP2 GT ISZERO PUSH2 0x1758 JUMPI PUSH2 0x1757 PUSH2 0x23F5 JUMP JUMPDEST JUMPDEST PUSH1 0x1 DUP2 GT ISZERO PUSH2 0x176A JUMPI PUSH2 0x1769 PUSH2 0x23F5 JUMP JUMPDEST JUMPDEST DUP2 MSTORE PUSH1 0x20 ADD PUSH1 0x0 DUP3 ADD PUSH1 0x1 SWAP1 SLOAD SWAP1 PUSH2 0x100 EXP SWAP1 DIV PUSH2 0xFFFF AND PUSH2 0xFFFF AND PUSH2 0xFFFF AND DUP2 MSTORE PUSH1 0x20 ADD PUSH1 0x1 DUP3 ADD SLOAD DUP2 MSTORE PUSH1 0x20 ADD PUSH1 0x2 DUP3 ADD SLOAD DUP2 MSTORE PUSH1 0x20 ADD PUSH1 0x3 DUP3 ADD SLOAD DUP2 MSTORE PUSH1 0x20 ADD PUSH1 0x4 DUP3 ADD SLOAD DUP2 MSTORE PUSH1 0x20 ADD PUSH1 0x5 DUP3 ADD SLOAD DUP2 MSTORE PUSH1 0x20 ADD PUSH1 0x6 DUP3 ADD SLOAD DUP2 MSTORE PUSH1 0x20 ADD PUSH1 0x7 DUP3 ADD SLOAD DUP2 MSTORE PUSH1 0x20 ADD PUSH1 0x8 DUP3 ADD SLOAD DUP2 MSTORE POP POP SWAP1 POP PUSH1 0x0 DUP2 PUSH1 0x20 ADD MLOAD PUSH2 0xFFFF AND GT PUSH2 0x182B JUMPI PUSH1 0x40 MLOAD PUSH32 0x8C379A000000000000000000000000000000000000000000000000000000000 DUP2 MSTORE PUSH1 0x4 ADD PUSH2 0x1822 SWAP1 PUSH2 0x30E3 JUMP JUMPDEST PUSH1 0x40 MLOAD DUP1 SWAP2 SUB SWAP1 REVERT JUMPDEST TIMESTAMP DUP2 PUSH1 0x40 ADD MLOAD LT ISZERO PUSH2 0x1872 JUMPI PUSH1 0x40 MLOAD PUSH32 0x8C379A000000000000000000000000000000000000000000000000000000000 DUP2 MSTORE PUSH1 0x4 ADD PUSH2 0x1869 SWAP1 PUSH2 0x2E25 JUMP JUMPDEST PUSH1 0x40 MLOAD DUP1 SWAP2 SUB SWAP1 REVERT JUMPDEST TIMESTAMP DUP2 PUSH1 0x60 ADD MLOAD LT PUSH2 0x18B8 JUMPI PUSH1 0x40 MLOAD PUSH32 0x8C379A000000000000000000000000000000000000000000000000000000000 DUP2 MSTORE PUSH1 0x4 ADD PUSH2 0x18AF SWAP1 PUSH2 0x314F JUMP JUMPDEST PUSH1 0x40 MLOAD DUP1 SWAP2 SUB SWAP1 REVERT JUMPDEST TIMESTAMP DUP2 PUSH1 0x80 ADD DUP2 DUP2 MSTORE POP POP DUP2 DUP2 PUSH2 0x120 ADD DUP2 DUP2 MSTORE POP POP CALLER PUSH20 0xFFFFFFFFFFFFFFFFFFFFFFFFFFFFFFFFFFFFFFFF AND PUSH32 0x8FDC8870ECD42629E72F8C2EDF272000E1824B081EF420869C8435DA7D78EF61 DUP5 PUSH1 0x40 MLOAD PUSH2 0x1913 SWAP2 SWAP1 PUSH2 0x2A0E JUMP JUMPDEST PUSH1 0x40 MLOAD DUP1 SWAP2 SUB SWAP1 LOG2 POP POP POP JUMP JUMPDEST PUSH1 0x0 PUSH4 0xBC197C81 PUSH1 0xE0 SHL SWAP1 POP SWAP6 SWAP5 POP POP POP POP POP JUMP JUMPDEST PUSH2 0x1945 PUSH2 0x1940 PUSH2 0x1DD8 JUMP JUMPDEST PUSH2 0xC91 JUMP JUMPDEST PUSH2 0x1984 JUMPI PUSH1 0x40 MLOAD PUSH32 0x8C379A000000000000000000000000000000000000000000000000000000000 DUP2 MSTORE PUSH1 0x4 ADD PUSH2 0x197B SWAP1 PUSH2 0x3077 JUMP JUMPDEST PUSH1 0x40 MLOAD DUP1 SWAP2 SUB SWAP1 REVERT JUMPDEST TIMESTAMP DUP5 GT PUSH2 0x19C6 JUMPI PUSH1 0x40 MLOAD PUSH32 0x8C379A000000000000000000000000000000000000000000000000000000000 DUP2 MSTORE PUSH1 0x4 ADD PUSH2 0x19BD SWAP1 PUSH2 0x31E1 JUMP JUMPDEST PUSH1 0x40 MLOAD DUP1 SWAP2 SUB SWAP1 REVERT JUMPDEST PUSH1 0x24 DUP3 GT ISZERO DUP1 ISZERO PUSH2 0x19D8 JUMPI POP PUSH1 0x24 DUP2 GT ISZERO JUMPDEST PUSH2 0x1A17 JUMPI PUSH1 0x40 MLOAD PUSH32 0x8C379A000000000000000000000000000000000000000000000000000000000 DUP2 MSTORE PUSH1 0x4 ADD PUSH2 0x1A0E SWAP1 PUSH2 0x324D JUMP JUMPDEST PUSH1 0x40 MLOAD DUP1 SWAP2 SUB SWAP1 REVERT JUMPDEST PUSH1 0x3 PUSH1 0x14 DUP2 DUP2 SWAP1 SLOAD SWAP1 PUSH2 0x100 EXP SWAP1 DIV PUSH2 0xFFFF AND DUP1 SWAP3 SWAP2 SWAP1 PUSH2 0x1A37 SWAP1 PUSH2 0x326D JUMP JUMPDEST SWAP2 SWAP1 PUSH2 0x100 EXP DUP2 SLOAD DUP2 PUSH2 0xFFFF MUL NOT AND SWAP1 DUP4 PUSH2 0xFFFF AND MUL OR SWAP1 SSTORE POP POP PUSH1 0x40 MLOAD DUP1 PUSH2 0x140 ADD PUSH1 0x40 MSTORE DUP1 DUP7 PUSH1 0x1 DUP2 GT ISZERO PUSH2 0x1A71 JUMPI PUSH2 0x1A70 PUSH2 0x23F5 JUMP JUMPDEST JUMPDEST DUP2 MSTORE PUSH1 0x20 ADD PUSH1 0x3 PUSH1 0x14 SWAP1 SLOAD SWAP1 PUSH2 0x100 EXP SWAP1 DIV PUSH2 0xFFFF AND PUSH2 0xFFFF AND DUP2 MSTORE PUSH1 0x20 ADD DUP6 DUP2 MSTORE PUSH1 0x20 ADD DUP5 DUP2 MSTORE PUSH1 0x20 ADD PUSH1 0x0 DUP2 MSTORE PUSH1 0x20 ADD DUP4 DUP2 MSTORE PUSH1 0x20 ADD DUP3 DUP2 MSTORE PUSH1 0x20 ADD PUSH1 0x0 DUP2 MSTORE PUSH1 0x20 ADD PUSH1 0x0 DUP2 MSTORE PUSH1 0x20 ADD PUSH1 0x0 DUP2 MSTORE POP PUSH1 0x5 PUSH1 0x0 PUSH1 0x3 PUSH1 0x14 SWAP1 SLOAD SWAP1 PUSH2 0x100 EXP SWAP1 DIV PUSH2 0xFFFF AND PUSH2 0xFFFF AND PUSH2 0xFFFF AND DUP2 MSTORE PUSH1 0x20 ADD SWAP1 DUP2 MSTORE PUSH1 0x20 ADD PUSH1 0x0 KECCAK256 PUSH1 0x0 DUP3 ADD MLOAD DUP2 PUSH1 0x0 ADD PUSH1 0x0 PUSH2 0x100 EXP DUP2 SLOAD DUP2 PUSH1 0xFF MUL NOT AND SWAP1 DUP4 PUSH1 0x1 DUP2 GT ISZERO PUSH2 0x1B18 JUMPI PUSH2 0x1B17 PUSH2 0x23F5 JUMP JUMPDEST JUMPDEST MUL OR SWAP1 SSTORE POP PUSH1 0x20 DUP3 ADD MLOAD DUP2 PUSH1 0x0 ADD PUSH1 0x1 PUSH2 0x100 EXP DUP2 SLOAD DUP2 PUSH2 0xFFFF MUL NOT AND SWAP1 DUP4 PUSH2 0xFFFF AND MUL OR SWAP1 SSTORE POP PUSH1 0x40 DUP3 ADD MLOAD DUP2 PUSH1 0x1 ADD SSTORE PUSH1 0x60 DUP3 ADD MLOAD DUP2 PUSH1 0x2 ADD SSTORE PUSH1 0x80 DUP3 ADD MLOAD DUP2 PUSH1 0x3 ADD SSTORE PUSH1 0xA0 DUP3 ADD MLOAD DUP2 PUSH1 0x4 ADD SSTORE PUSH1 0xC0 DUP3 ADD MLOAD DUP2 PUSH1 0x5 ADD SSTORE PUSH1 0xE0 DUP3 ADD MLOAD DUP2 PUSH1 0x6 ADD SSTORE PUSH2 0x100 DUP3 ADD MLOAD DUP2 PUSH1 0x7 ADD SSTORE PUSH2 0x120 DUP3 ADD MLOAD DUP2 PUSH1 0x8 ADD SSTORE SWAP1 POP POP POP POP POP POP POP JUMP JUMPDEST PUSH1 0x4 SLOAD DUP2 JUMP JUMPDEST PUSH1 0x0 PUSH4 0xF23A6E61 PUSH1 0xE0 SHL SWAP1 POP SWAP6 SWAP5 POP POP POP POP POP JUMP JUMPDEST PUSH2 0x1BBF PUSH2 0x1DD8 JUMP JUMPDEST PUSH20 0xFFFFFFFFFFFFFFFFFFFFFFFFFFFFFFFFFFFFFFFF AND PUSH2 0x1BDD PUSH2 0x1691 JUMP JUMPDEST PUSH20 0xFFFFFFFFFFFFFFFFFFFFFFFFFFFFFFFFFFFFFFFF AND EQ PUSH2 0x1C33 JUMPI PUSH1 0x40 MLOAD PUSH32 0x8C379A000000000000000000000000000000000000000000000000000000000 DUP2 MSTORE PUSH1 0x4 ADD PUSH2 0x1C2A SWAP1 PUSH2 0x2BCF JUMP JUMPDEST PUSH1 0x40 MLOAD DUP1 SWAP2 SUB SWAP1 REVERT JUMPDEST PUSH1 0x0 PUSH20 0xFFFFFFFFFFFFFFFFFFFFFFFFFFFFFFFFFFFFFFFF AND DUP2 PUSH20 0xFFFFFFFFFFFFFFFFFFFFFFFFFFFFFFFFFFFFFFFF AND SUB PUSH2 0x1CA2 JUMPI PUSH1 0x40 MLOAD PUSH32 0x8C379A000000000000000000000000000000000000000000000000000000000 DUP2 MSTORE PUSH1 0x4 ADD PUSH2 0x1C99 SWAP1 PUSH2 0x3309 JUMP JUMPDEST PUSH1 0x40 MLOAD DUP1 SWAP2 SUB SWAP1 REVERT JUMPDEST PUSH2 0x1CAB DUP2 PUSH2 0x1DE0 JUMP JUMPDEST POP JUMP JUMPDEST PUSH2 0x1CB6 PUSH2 0x1DD8 JUMP JUMPDEST PUSH20 0xFFFFFFFFFFFFFFFFFFFFFFFFFFFFFFFFFFFFFFFF AND PUSH2 0x1CD4 PUSH2 0x1691 JUMP JUMPDEST PUSH20 0xFFFFFFFFFFFFFFFFFFFFFFFFFFFFFFFFFFFFFFFF AND EQ PUSH2 0x1D2A JUMPI PUSH1 0x40 MLOAD PUSH32 0x8C379A000000000000000000000000000000000000000000000000000000000 DUP2 MSTORE PUSH1 0x4 ADD PUSH2 0x1D21 SWAP1 PUSH2 0x2BCF JUMP JUMPDEST PUSH1 0x40 MLOAD DUP1 SWAP2 SUB SWAP1 REVERT JUMPDEST DUP1 PUSH1 0x4 DUP2 SWAP1 SSTORE POP POP JUMP JUMPDEST PUSH1 0x3 PUSH1 0x0 SWAP1 SLOAD SWAP1 PUSH2 0x100 EXP SWAP1 DIV PUSH20 0xFFFFFFFFFFFFFFFFFFFFFFFFFFFFFFFFFFFFFFFF AND DUP2 JUMP JUMPDEST PUSH1 0x3 PUSH1 0x14 SWAP1 SLOAD SWAP1 PUSH2 0x100 EXP SWAP1 DIV PUSH2 0xFFFF AND DUP2 JUMP JUMPDEST PUSH1 0x0 PUSH32 0x1FFC9A700000000000000000000000000000000000000000000000000000000 PUSH28 0xFFFFFFFFFFFFFFFFFFFFFFFFFFFFFFFFFFFFFFFFFFFFFFFFFFFFFFFF NOT AND DUP3 PUSH28 0xFFFFFFFFFFFFFFFFFFFFFFFFFFFFFFFFFFFFFFFFFFFFFFFFFFFFFFFF NOT AND EQ SWAP1 POP SWAP2 SWAP1 POP JUMP JUMPDEST PUSH1 0x0 CALLER SWAP1 POP SWAP1 JUMP JUMPDEST PUSH1 0x0 PUSH1 0x1 PUSH1 0x0 SWAP1 SLOAD SWAP1 PUSH2 0x100 EXP SWAP1 DIV PUSH20 0xFFFFFFFFFFFFFFFFFFFFFFFFFFFFFFFFFFFFFFFF AND SWAP1 POP DUP2 PUSH1 0x1 PUSH1 0x0 PUSH2 0x100 EXP DUP2 SLOAD DUP2 PUSH20 0xFFFFFFFFFFFFFFFFFFFFFFFFFFFFFFFFFFFFFFFF MUL NOT AND SWAP1 DUP4 PUSH20 0xFFFFFFFFFFFFFFFFFFFFFFFFFFFFFFFFFFFFFFFF AND MUL OR SWAP1 SSTORE POP DUP2 PUSH20 0xFFFFFFFFFFFFFFFFFFFFFFFFFFFFFFFFFFFFFFFF AND DUP2 PUSH20 0xFFFFFFFFFFFFFFFFFFFFFFFFFFFFFFFFFFFFFFFF AND PUSH32 0x8BE0079C531659141344CD1FD0A4F28419497F9722A3DAAFE3B4186F6B6457E0 PUSH1 0x40 MLOAD PUSH1 0x40 MLOAD DUP1 SWAP2 SUB SWAP1 LOG3 POP POP JUMP JUMPDEST PUSH1 0x40 MLOAD DUP1 PUSH1 0x80 ADD PUSH1 0x40 MSTORE DUP1 PUSH1 0x0 PUSH2 0xFFFF AND DUP2 MSTORE PUSH1 0x20 ADD PUSH1 0x0 DUP2 MSTORE PUSH1 0x20 ADD PUSH1 0x0 DUP2 MSTORE PUSH1 0x20 ADD PUSH1 0x0 ISZERO ISZERO DUP2 MSTORE POP SWAP1 JUMP JUMPDEST PUSH1 0x40 MLOAD DUP1 PUSH2 0x140 ADD PUSH1 0x40 MSTORE DUP1 PUSH1 0x0 PUSH1 0x1 DUP2 GT ISZERO PUSH2 0x1EF4 JUMPI PUSH2 0x1EF3 PUSH2 0x23F5 JUMP JUMPDEST JUMPDEST DUP2 MSTORE PUSH1 0x20 ADD PUSH1 0x0 PUSH2 0xFFFF AND DUP2 MSTORE PUSH1 0x20 ADD PUSH1 0x0 DUP2 MSTORE PUSH1 0x20 ADD PUSH1 0x0 DUP2 MSTORE PUSH1 0x20 ADD PUSH1 0x0 DUP2 MSTORE PUSH1 0x20 ADD PUSH1 0x0 DUP2 MSTORE PUSH1 0x20 ADD PUSH1 0x0 DUP2 MSTORE PUSH1 0x20 ADD PUSH1 0x0 DUP2 MSTORE PUSH1 0x20 ADD PUSH1 0x0 DUP2 MSTORE PUSH1 0x20 ADD PUSH1 0x0 DUP2 MSTORE POP SWAP1 JUMP JUMPDEST PUSH1 0x0 PUSH1 0x40 MLOAD SWAP1 POP SWAP1 JUMP JUMPDEST PUSH1 0x0 DUP1 REVERT JUMPDEST PUSH1 0x0 DUP1 REVERT JUMPDEST PUSH1 0x0 PUSH32 0xFFFFFFFF00000000000000000000000000000000000000000000000000000000 DUP3 AND SWAP1 POP SWAP2 SWAP1 POP JUMP JUMPDEST PUSH2 0x1F86 DUP2 PUSH2 0x1F51 JUMP JUMPDEST DUP2 EQ PUSH2 0x1F91 JUMPI PUSH1 0x0 DUP1 REVERT JUMPDEST POP JUMP JUMPDEST PUSH1 0x0 DUP2 CALLDATALOAD SWAP1 POP PUSH2 0x1FA3 DUP2 PUSH2 0x1F7D JUMP JUMPDEST SWAP3 SWAP2 POP POP JUMP JUMPDEST PUSH1 0x0 PUSH1 0x20 DUP3 DUP5 SUB SLT ISZERO PUSH2 0x1FBF JUMPI PUSH2 0x1FBE PUSH2 0x1F47 JUMP JUMPDEST JUMPDEST PUSH1 0x0 PUSH2 0x1FCD DUP5 DUP3 DUP6 ADD PUSH2 0x1F94 JUMP JUMPDEST SWAP2 POP POP SWAP3 SWAP2 POP POP JUMP JUMPDEST PUSH1 0x0 DUP2 ISZERO ISZERO SWAP1 POP SWAP2 SWAP1 POP JUMP JUMPDEST PUSH2 0x1FEB DUP2 PUSH2 0x1FD6 JUMP JUMPDEST DUP3 MSTORE POP POP JUMP JUMPDEST PUSH1 0x0 PUSH1 0x20 DUP3 ADD SWAP1 POP PUSH2 0x2006 PUSH1 0x0 DUP4 ADD DUP5 PUSH2 0x1FE2 JUMP JUMPDEST SWAP3 SWAP2 POP POP JUMP JUMPDEST PUSH1 0x0 PUSH2 0xFFFF DUP3 AND SWAP1 POP SWAP2 SWAP1 POP JUMP JUMPDEST PUSH2 0x2023 DUP2 PUSH2 0x200C JUMP JUMPDEST DUP2 EQ PUSH2 0x202E JUMPI PUSH1 0x0 DUP1 REVERT JUMPDEST POP JUMP JUMPDEST PUSH1 0x0 DUP2 CALLDATALOAD SWAP1 POP PUSH2 0x2040 DUP2 PUSH2 0x201A JUMP JUMPDEST SWAP3 SWAP2 POP POP JUMP JUMPDEST PUSH1 0x0 PUSH1 0x20 DUP3 DUP5 SUB SLT ISZERO PUSH2 0x205C JUMPI PUSH2 0x205B PUSH2 0x1F47 JUMP JUMPDEST JUMPDEST PUSH1 0x0 PUSH2 0x206A DUP5 DUP3 DUP6 ADD PUSH2 0x2031 JUMP JUMPDEST SWAP2 POP POP SWAP3 SWAP2 POP POP JUMP JUMPDEST PUSH1 0x0 PUSH20 0xFFFFFFFFFFFFFFFFFFFFFFFFFFFFFFFFFFFFFFFF DUP3 AND SWAP1 POP SWAP2 SWAP1 POP JUMP JUMPDEST PUSH1 0x0 PUSH2 0x209E DUP3 PUSH2 0x2073 JUMP JUMPDEST SWAP1 POP SWAP2 SWAP1 POP JUMP JUMPDEST PUSH2 0x20AE DUP2 PUSH2 0x2093 JUMP JUMPDEST DUP2 EQ PUSH2 0x20B9 JUMPI PUSH1 0x0 DUP1 REVERT JUMPDEST POP JUMP JUMPDEST PUSH1 0x0 DUP2 CALLDATALOAD SWAP1 POP PUSH2 0x20CB DUP2 PUSH2 0x20A5 JUMP JUMPDEST SWAP3 SWAP2 POP POP JUMP JUMPDEST PUSH1 0x0 PUSH1 0x20 DUP3 DUP5 SUB SLT ISZERO PUSH2 0x20E7 JUMPI PUSH2 0x20E6 PUSH2 0x1F47 JUMP JUMPDEST JUMPDEST PUSH1 0x0 PUSH2 0x20F5 DUP5 DUP3 DUP6 ADD PUSH2 0x20BC JUMP JUMPDEST SWAP2 POP POP SWAP3 SWAP2 POP POP JUMP JUMPDEST PUSH1 0x0 DUP2 MLOAD SWAP1 POP SWAP2 SWAP1 POP JUMP JUMPDEST PUSH1 0x0 DUP3 DUP3 MSTORE PUSH1 0x20 DUP3 ADD SWAP1 POP SWAP3 SWAP2 POP POP JUMP JUMPDEST PUSH1 0x0 DUP2 SWAP1 POP PUSH1 0x20 DUP3 ADD SWAP1 POP SWAP2 SWAP1 POP JUMP JUMPDEST PUSH2 0x2133 DUP2 PUSH2 0x200C JUMP JUMPDEST DUP3 MSTORE POP POP JUMP JUMPDEST PUSH1 0x0 PUSH2 0x2145 DUP4 DUP4 PUSH2 0x212A JUMP JUMPDEST PUSH1 0x20 DUP4 ADD SWAP1 POP SWAP3 SWAP2 POP POP JUMP JUMPDEST PUSH1 0x0 PUSH1 0x20 DUP3 ADD SWAP1 POP SWAP2 SWAP1 POP JUMP JUMPDEST PUSH1 0x0 PUSH2 0x2169 DUP3 PUSH2 0x20FE JUMP JUMPDEST PUSH2 0x2173 DUP2 DUP6 PUSH2 0x2109 JUMP JUMPDEST SWAP4 POP PUSH2 0x217E DUP4 PUSH2 0x211A JUMP JUMPDEST DUP1 PUSH1 0x0 JUMPDEST DUP4 DUP2 LT ISZERO PUSH2 0x21AF JUMPI DUP2 MLOAD PUSH2 0x2196 DUP9 DUP3 PUSH2 0x2139 JUMP JUMPDEST SWAP8 POP PUSH2 0x21A1 DUP4 PUSH2 0x2151 JUMP JUMPDEST SWAP3 POP POP PUSH1 0x1 DUP2 ADD SWAP1 POP PUSH2 0x2182 JUMP JUMPDEST POP DUP6 SWAP4 POP POP POP POP SWAP3 SWAP2 POP POP JUMP JUMPDEST PUSH1 0x0 PUSH1 0x20 DUP3 ADD SWAP1 POP DUP2 DUP2 SUB PUSH1 0x0 DUP4 ADD MSTORE PUSH2 0x21D6 DUP2 DUP5 PUSH2 0x215E JUMP JUMPDEST SWAP1 POP SWAP3 SWAP2 POP POP JUMP JUMPDEST PUSH2 0x21E7 DUP2 PUSH2 0x1FD6 JUMP JUMPDEST DUP2 EQ PUSH2 0x21F2 JUMPI PUSH1 0x0 DUP1 REVERT JUMPDEST POP JUMP JUMPDEST PUSH1 0x0 DUP2 CALLDATALOAD SWAP1 POP PUSH2 0x2204 DUP2 PUSH2 0x21DE JUMP JUMPDEST SWAP3 SWAP2 POP POP JUMP JUMPDEST PUSH1 0x0 DUP1 PUSH1 0x40 DUP4 DUP6 SUB SLT ISZERO PUSH2 0x2221 JUMPI PUSH2 0x2220 PUSH2 0x1F47 JUMP JUMPDEST JUMPDEST PUSH1 0x0 PUSH2 0x222F DUP6 DUP3 DUP7 ADD PUSH2 0x20BC JUMP JUMPDEST SWAP3 POP POP PUSH1 0x20 PUSH2 0x2240 DUP6 DUP3 DUP7 ADD PUSH2 0x21F5 JUMP JUMPDEST SWAP2 POP POP SWAP3 POP SWAP3 SWAP1 POP JUMP JUMPDEST PUSH1 0x0 DUP1 PUSH1 0x40 DUP4 DUP6 SUB SLT ISZERO PUSH2 0x2261 JUMPI PUSH2 0x2260 PUSH2 0x1F47 JUMP JUMPDEST JUMPDEST PUSH1 0x0 PUSH2 0x226F DUP6 DUP3 DUP7 ADD PUSH2 0x20BC JUMP JUMPDEST SWAP3 POP POP PUSH1 0x20 PUSH2 0x2280 DUP6 DUP3 DUP7 ADD PUSH2 0x2031 JUMP JUMPDEST SWAP2 POP POP SWAP3 POP SWAP3 SWAP1 POP JUMP JUMPDEST PUSH1 0x0 DUP2 SWAP1 POP SWAP2 SWAP1 POP JUMP JUMPDEST PUSH2 0x229D DUP2 PUSH2 0x228A JUMP JUMPDEST DUP3 MSTORE POP POP JUMP JUMPDEST PUSH1 0x0 PUSH1 0x20 DUP3 ADD SWAP1 POP PUSH2 0x22B8 PUSH1 0x0 DUP4 ADD DUP5 PUSH2 0x2294 JUMP JUMPDEST SWAP3 SWAP2 POP POP JUMP JUMPDEST PUSH2 0x22C7 DUP2 PUSH2 0x2093 JUMP JUMPDEST DUP3 MSTORE POP POP JUMP JUMPDEST PUSH1 0x0 PUSH1 0x20 DUP3 ADD SWAP1 POP PUSH2 0x22E2 PUSH1 0x0 DUP4 ADD DUP5 PUSH2 0x22BE JUMP JUMPDEST SWAP3 SWAP2 POP POP JUMP JUMPDEST PUSH2 0x22F1 DUP2 PUSH2 0x228A JUMP JUMPDEST DUP2 EQ PUSH2 0x22FC JUMPI PUSH1 0x0 DUP1 REVERT JUMPDEST POP JUMP JUMPDEST PUSH1 0x0 DUP2 CALLDATALOAD SWAP1 POP PUSH2 0x230E DUP2 PUSH2 0x22E8 JUMP JUMPDEST SWAP3 SWAP2 POP POP JUMP JUMPDEST PUSH1 0x0 DUP1 PUSH1 0x0 PUSH1 0x60 DUP5 DUP7 SUB SLT ISZERO PUSH2 0x232D JUMPI PUSH2 0x232C PUSH2 0x1F47 JUMP JUMPDEST JUMPDEST PUSH1 0x0 PUSH2 0x233B DUP7 DUP3 DUP8 ADD PUSH2 0x2031 JUMP JUMPDEST SWAP4 POP POP PUSH1 0x20 PUSH2 0x234C DUP7 DUP3 DUP8 ADD PUSH2 0x22FF JUMP JUMPDEST SWAP3 POP POP PUSH1 0x40 PUSH2 0x235D DUP7 DUP3 DUP8 ADD PUSH2 0x22FF JUMP JUMPDEST SWAP2 POP POP SWAP3 POP SWAP3 POP SWAP3 JUMP JUMPDEST PUSH2 0x2370 DUP2 PUSH2 0x228A JUMP JUMPDEST DUP3 MSTORE POP POP JUMP JUMPDEST PUSH2 0x237F DUP2 PUSH2 0x1FD6 JUMP JUMPDEST DUP3 MSTORE POP POP JUMP JUMPDEST PUSH1 0x80 DUP3 ADD PUSH1 0x0 DUP3 ADD MLOAD PUSH2 0x239B PUSH1 0x0 DUP6 ADD DUP3 PUSH2 0x212A JUMP JUMPDEST POP PUSH1 0x20 DUP3 ADD MLOAD PUSH2 0x23AE PUSH1 0x20 DUP6 ADD DUP3 PUSH2 0x2367 JUMP JUMPDEST POP PUSH1 0x40 DUP3 ADD MLOAD PUSH2 0x23C1 PUSH1 0x40 DUP6 ADD DUP3 PUSH2 0x2367 JUMP JUMPDEST POP PUSH1 0x60 DUP3 ADD MLOAD PUSH2 0x23D4 PUSH1 0x60 DUP6 ADD DUP3 PUSH2 0x2376 JUMP JUMPDEST POP POP POP POP JUMP JUMPDEST PUSH1 0x0 PUSH1 0x80 DUP3 ADD SWAP1 POP PUSH2 0x23EF PUSH1 0x0 DUP4 ADD DUP5 PUSH2 0x2385 JUMP JUMPDEST SWAP3 SWAP2 POP POP JUMP JUMPDEST PUSH32 0x4E487B7100000000000000000000000000000000000000000000000000000000 PUSH1 0x0 MSTORE PUSH1 0x21 PUSH1 0x4 MSTORE PUSH1 0x24 PUSH1 0x0 REVERT JUMPDEST PUSH1 0x2 DUP2 LT PUSH2 0x2435 JUMPI PUSH2 0x2434 PUSH2 0x23F5 JUMP JUMPDEST JUMPDEST POP JUMP JUMPDEST PUSH1 0x0 DUP2 SWAP1 POP PUSH2 0x2446 DUP3 PUSH2 0x2424 JUMP JUMPDEST SWAP2 SWAP1 POP JUMP JUMPDEST PUSH1 0x0 PUSH2 0x2456 DUP3 PUSH2 0x2438 JUMP JUMPDEST SWAP1 POP SWAP2 SWAP1 POP JUMP JUMPDEST PUSH2 0x2466 DUP2 PUSH2 0x244B JUMP JUMPDEST DUP3 MSTORE POP POP JUMP JUMPDEST PUSH2 0x140 DUP3 ADD PUSH1 0x0 DUP3 ADD MLOAD PUSH2 0x2483 PUSH1 0x0 DUP6 ADD DUP3 PUSH2 0x245D JUMP JUMPDEST POP PUSH1 0x20 DUP3 ADD MLOAD PUSH2 0x2496 PUSH1 0x20 DUP6 ADD DUP3 PUSH2 0x212A JUMP JUMPDEST POP PUSH1 0x40 DUP3 ADD MLOAD PUSH2 0x24A9 PUSH1 0x40 DUP6 ADD DUP3 PUSH2 0x2367 JUMP JUMPDEST POP PUSH1 0x60 DUP3 ADD MLOAD PUSH2 0x24BC PUSH1 0x60 DUP6 ADD DUP3 PUSH2 0x2367 JUMP JUMPDEST POP PUSH1 0x80 DUP3 ADD MLOAD PUSH2 0x24CF PUSH1 0x80 DUP6 ADD DUP3 PUSH2 0x2367 JUMP JUMPDEST POP PUSH1 0xA0 DUP3 ADD MLOAD PUSH2 0x24E2 PUSH1 0xA0 DUP6 ADD DUP3 PUSH2 0x2367 JUMP JUMPDEST POP PUSH1 0xC0 DUP3 ADD MLOAD PUSH2 0x24F5 PUSH1 0xC0 DUP6 ADD DUP3 PUSH2 0x2367 JUMP JUMPDEST POP PUSH1 0xE0 DUP3 ADD MLOAD PUSH2 0x2508 PUSH1 0xE0 DUP6 ADD DUP3 PUSH2 0x2367 JUMP JUMPDEST POP PUSH2 0x100 DUP3 ADD MLOAD PUSH2 0x251D PUSH2 0x100 DUP6 ADD DUP3 PUSH2 0x2367 JUMP JUMPDEST POP PUSH2 0x120 DUP3 ADD MLOAD PUSH2 0x2532 PUSH2 0x120 DUP6 ADD DUP3 PUSH2 0x2367 JUMP JUMPDEST POP POP POP POP JUMP JUMPDEST PUSH1 0x0 PUSH2 0x140 DUP3 ADD SWAP1 POP PUSH2 0x254E PUSH1 0x0 DUP4 ADD DUP5 PUSH2 0x246C JUMP JUMPDEST SWAP3 SWAP2 POP POP JUMP JUMPDEST PUSH1 0x0 DUP1 PUSH1 0x40 DUP4 DUP6 SUB SLT ISZERO PUSH2 0x256B JUMPI PUSH2 0x256A PUSH2 0x1F47 JUMP JUMPDEST JUMPDEST PUSH1 0x0 PUSH2 0x2579 DUP6 DUP3 DUP7 ADD PUSH2 0x2031 JUMP JUMPDEST SWAP3 POP POP PUSH1 0x20 PUSH2 0x258A DUP6 DUP3 DUP7 ADD PUSH2 0x22FF JUMP JUMPDEST SWAP2 POP POP SWAP3 POP SWAP3 SWAP1 POP JUMP JUMPDEST PUSH1 0x0 DUP1 REVERT JUMPDEST PUSH1 0x0 PUSH1 0x1F NOT PUSH1 0x1F DUP4 ADD AND SWAP1 POP SWAP2 SWAP1 POP JUMP JUMPDEST PUSH32 0x4E487B7100000000000000000000000000000000000000000000000000000000 PUSH1 0x0 MSTORE PUSH1 0x41 PUSH1 0x4 MSTORE PUSH1 0x24 PUSH1 0x0 REVERT JUMPDEST PUSH2 0x25E2 DUP3 PUSH2 0x2599 JUMP JUMPDEST DUP2 ADD DUP2 DUP2 LT PUSH8 0xFFFFFFFFFFFFFFFF DUP3 GT OR ISZERO PUSH2 0x2601 JUMPI PUSH2 0x2600 PUSH2 0x25AA JUMP JUMPDEST JUMPDEST DUP1 PUSH1 0x40 MSTORE POP POP POP JUMP JUMPDEST PUSH1 0x0 PUSH2 0x2614 PUSH2 0x1F3D JUMP JUMPDEST SWAP1 POP PUSH2 0x2620 DUP3 DUP3 PUSH2 0x25D9 JUMP JUMPDEST SWAP2 SWAP1 POP JUMP JUMPDEST PUSH1 0x0 PUSH8 0xFFFFFFFFFFFFFFFF DUP3 GT ISZERO PUSH2 0x2640 JUMPI PUSH2 0x263F PUSH2 0x25AA JUMP JUMPDEST JUMPDEST PUSH1 0x20 DUP3 MUL SWAP1 POP PUSH1 0x20 DUP2 ADD SWAP1 POP SWAP2 SWAP1 POP JUMP JUMPDEST PUSH1 0x0 DUP1 REVERT JUMPDEST PUSH1 0x0 PUSH2 0x2669 PUSH2 0x2664 DUP5 PUSH2 0x2625 JUMP JUMPDEST PUSH2 0x260A JUMP JUMPDEST SWAP1 POP DUP1 DUP4 DUP3 MSTORE PUSH1 0x20 DUP3 ADD SWAP1 POP PUSH1 0x20 DUP5 MUL DUP4 ADD DUP6 DUP2 GT ISZERO PUSH2 0x268C JUMPI PUSH2 0x268B PUSH2 0x2651 JUMP JUMPDEST JUMPDEST DUP4 JUMPDEST DUP2 DUP2 LT ISZERO PUSH2 0x26B5 JUMPI DUP1 PUSH2 0x26A1 DUP9 DUP3 PUSH2 0x22FF JUMP JUMPDEST DUP5 MSTORE PUSH1 0x20 DUP5 ADD SWAP4 POP POP PUSH1 0x20 DUP2 ADD SWAP1 POP PUSH2 0x268E JUMP JUMPDEST POP POP POP SWAP4 SWAP3 POP POP POP JUMP JUMPDEST PUSH1 0x0 DUP3 PUSH1 0x1F DUP4 ADD SLT PUSH2 0x26D4 JUMPI PUSH2 0x26D3 PUSH2 0x2594 JUMP JUMPDEST JUMPDEST DUP2 CALLDATALOAD PUSH2 0x26E4 DUP5 DUP3 PUSH1 0x20 DUP7 ADD PUSH2 0x2656 JUMP JUMPDEST SWAP2 POP POP SWAP3 SWAP2 POP POP JUMP JUMPDEST PUSH1 0x0 DUP1 REVERT JUMPDEST PUSH1 0x0 PUSH8 0xFFFFFFFFFFFFFFFF DUP3 GT ISZERO PUSH2 0x270D JUMPI PUSH2 0x270C PUSH2 0x25AA JUMP JUMPDEST JUMPDEST PUSH2 0x2716 DUP3 PUSH2 0x2599 JUMP JUMPDEST SWAP1 POP PUSH1 0x20 DUP2 ADD SWAP1 POP SWAP2 SWAP1 POP JUMP JUMPDEST DUP3 DUP2 DUP4 CALLDATACOPY PUSH1 0x0 DUP4 DUP4 ADD MSTORE POP POP POP JUMP JUMPDEST PUSH1 0x0 PUSH2 0x2745 PUSH2 0x2740 DUP5 PUSH2 0x26F2 JUMP JUMPDEST PUSH2 0x260A JUMP JUMPDEST SWAP1 POP DUP3 DUP2 MSTORE PUSH1 0x20 DUP2 ADD DUP5 DUP5 DUP5 ADD GT ISZERO PUSH2 0x2761 JUMPI PUSH2 0x2760 PUSH2 0x26ED JUMP JUMPDEST JUMPDEST PUSH2 0x276C DUP5 DUP3 DUP6 PUSH2 0x2723 JUMP JUMPDEST POP SWAP4 SWAP3 POP POP POP JUMP JUMPDEST PUSH1 0x0 DUP3 PUSH1 0x1F DUP4 ADD SLT PUSH2 0x2789 JUMPI PUSH2 0x2788 PUSH2 0x2594 JUMP JUMPDEST JUMPDEST DUP2 CALLDATALOAD PUSH2 0x2799 DUP5 DUP3 PUSH1 0x20 DUP7 ADD PUSH2 0x2732 JUMP JUMPDEST SWAP2 POP POP SWAP3 SWAP2 POP POP JUMP JUMPDEST PUSH1 0x0 DUP1 PUSH1 0x0 DUP1 PUSH1 0x0 PUSH1 0xA0 DUP7 DUP9 SUB SLT ISZERO PUSH2 0x27BE JUMPI PUSH2 0x27BD PUSH2 0x1F47 JUMP JUMPDEST JUMPDEST PUSH1 0x0 PUSH2 0x27CC DUP9 DUP3 DUP10 ADD PUSH2 0x20BC JUMP JUMPDEST SWAP6 POP POP PUSH1 0x20 PUSH2 0x27DD DUP9 DUP3 DUP10 ADD PUSH2 0x20BC JUMP JUMPDEST SWAP5 POP POP PUSH1 0x40 DUP7 ADD CALLDATALOAD PUSH8 0xFFFFFFFFFFFFFFFF DUP2 GT ISZERO PUSH2 0x27FE JUMPI PUSH2 0x27FD PUSH2 0x1F4C JUMP JUMPDEST JUMPDEST PUSH2 0x280A DUP9 DUP3 DUP10 ADD PUSH2 0x26BF JUMP JUMPDEST SWAP4 POP POP PUSH1 0x60 DUP7 ADD CALLDATALOAD PUSH8 0xFFFFFFFFFFFFFFFF DUP2 GT ISZERO PUSH2 0x282B JUMPI PUSH2 0x282A PUSH2 0x1F4C JUMP JUMPDEST JUMPDEST PUSH2 0x2837 DUP9 DUP3 DUP10 ADD PUSH2 0x26BF JUMP JUMPDEST SWAP3 POP POP PUSH1 0x80 DUP7 ADD CALLDATALOAD PUSH8 0xFFFFFFFFFFFFFFFF DUP2 GT ISZERO PUSH2 0x2858 JUMPI PUSH2 0x2857 PUSH2 0x1F4C JUMP JUMPDEST JUMPDEST PUSH2 0x2864 DUP9 DUP3 DUP10 ADD PUSH2 0x2774 JUMP JUMPDEST SWAP2 POP POP SWAP3 SWAP6 POP SWAP3 SWAP6 SWAP1 SWAP4 POP JUMP JUMPDEST PUSH2 0x287A DUP2 PUSH2 0x1F51 JUMP JUMPDEST DUP3 MSTORE POP POP JUMP JUMPDEST PUSH1 0x0 PUSH1 0x20 DUP3 ADD SWAP1 POP PUSH2 0x2895 PUSH1 0x0 DUP4 ADD DUP5 PUSH2 0x2871 JUMP JUMPDEST SWAP3 SWAP2 POP POP JUMP JUMPDEST PUSH1 0x2 DUP2 LT PUSH2 0x28A8 JUMPI PUSH1 0x0 DUP1 REVERT JUMPDEST POP JUMP JUMPDEST PUSH1 0x0 DUP2 CALLDATALOAD SWAP1 POP PUSH2 0x28BA DUP2 PUSH2 0x289B JUMP JUMPDEST SWAP3 SWAP2 POP POP JUMP JUMPDEST PUSH1 0x0 DUP1 PUSH1 0x0 DUP1 PUSH1 0x0 PUSH1 0xA0 DUP7 DUP9 SUB SLT ISZERO PUSH2 0x28DC JUMPI PUSH2 0x28DB PUSH2 0x1F47 JUMP JUMPDEST JUMPDEST PUSH1 0x0 PUSH2 0x28EA DUP9 DUP3 DUP10 ADD PUSH2 0x28AB JUMP JUMPDEST SWAP6 POP POP PUSH1 0x20 PUSH2 0x28FB DUP9 DUP3 DUP10 ADD PUSH2 0x22FF JUMP JUMPDEST SWAP5 POP POP PUSH1 0x40 PUSH2 0x290C DUP9 DUP3 DUP10 ADD PUSH2 0x22FF JUMP JUMPDEST SWAP4 POP POP PUSH1 0x60 PUSH2 0x291D DUP9 DUP3 DUP10 ADD PUSH2 0x22FF JUMP JUMPDEST SWAP3 POP POP PUSH1 0x80 PUSH2 0x292E DUP9 DUP3 DUP10 ADD PUSH2 0x22FF JUMP JUMPDEST SWAP2 POP POP SWAP3 SWAP6 POP SWAP3 SWAP6 SWAP1 SWAP4 POP JUMP JUMPDEST PUSH1 0x0 DUP1 PUSH1 0x0 DUP1 PUSH1 0x0 PUSH1 0xA0 DUP7 DUP9 SUB SLT ISZERO PUSH2 0x2957 JUMPI PUSH2 0x2956 PUSH2 0x1F47 JUMP JUMPDEST JUMPDEST PUSH1 0x0 PUSH2 0x2965 DUP9 DUP3 DUP10 ADD PUSH2 0x20BC JUMP JUMPDEST SWAP6 POP POP PUSH1 0x20 PUSH2 0x2976 DUP9 DUP3 DUP10 ADD PUSH2 0x20BC JUMP JUMPDEST SWAP5 POP POP PUSH1 0x40 PUSH2 0x2987 DUP9 DUP3 DUP10 ADD PUSH2 0x22FF JUMP JUMPDEST SWAP4 POP POP PUSH1 0x60 PUSH2 0x2998 DUP9 DUP3 DUP10 ADD PUSH2 0x22FF JUMP JUMPDEST SWAP3 POP POP PUSH1 0x80 DUP7 ADD CALLDATALOAD PUSH8 0xFFFFFFFFFFFFFFFF DUP2 GT ISZERO PUSH2 0x29B9 JUMPI PUSH2 0x29B8 PUSH2 0x1F4C JUMP JUMPDEST JUMPDEST PUSH2 0x29C5 DUP9 DUP3 DUP10 ADD PUSH2 0x2774 JUMP JUMPDEST SWAP2 POP POP SWAP3 SWAP6 POP SWAP3 SWAP6 SWAP1 SWAP4 POP JUMP JUMPDEST PUSH1 0x0 PUSH1 0x20 DUP3 DUP5 SUB SLT ISZERO PUSH2 0x29E8 JUMPI PUSH2 0x29E7 PUSH2 0x1F47 JUMP JUMPDEST JUMPDEST PUSH1 0x0 PUSH2 0x29F6 DUP5 DUP3 DUP6 ADD PUSH2 0x22FF JUMP JUMPDEST SWAP2 POP POP SWAP3 SWAP2 POP POP JUMP JUMPDEST PUSH2 0x2A08 DUP2 PUSH2 0x200C JUMP JUMPDEST DUP3 MSTORE POP POP JUMP JUMPDEST PUSH1 0x0 PUSH1 0x20 DUP3 ADD SWAP1 POP PUSH2 0x2A23 PUSH1 0x0 DUP4 ADD DUP5 PUSH2 0x29FF JUMP JUMPDEST SWAP3 SWAP2 POP POP JUMP JUMPDEST PUSH1 0x0 DUP3 DUP3 MSTORE PUSH1 0x20 DUP3 ADD SWAP1 POP SWAP3 SWAP2 POP POP JUMP JUMPDEST POP JUMP JUMPDEST PUSH1 0x0 PUSH2 0x2A4A PUSH1 0x0 DUP4 PUSH2 0x2A29 JUMP JUMPDEST SWAP2 POP PUSH2 0x2A55 DUP3 PUSH2 0x2A3A JUMP JUMPDEST PUSH1 0x0 DUP3 ADD SWAP1 POP SWAP2 SWAP1 POP JUMP JUMPDEST PUSH1 0x0 PUSH1 0xA0 DUP3 ADD SWAP1 POP PUSH2 0x2A75 PUSH1 0x0 DUP4 ADD DUP8 PUSH2 0x22BE JUMP JUMPDEST PUSH2 0x2A82 PUSH1 0x20 DUP4 ADD DUP7 PUSH2 0x22BE JUMP JUMPDEST PUSH2 0x2A8F PUSH1 0x40 DUP4 ADD DUP6 PUSH2 0x2294 JUMP JUMPDEST PUSH2 0x2A9C PUSH1 0x60 DUP4 ADD DUP5 PUSH2 0x2294 JUMP JUMPDEST DUP2 DUP2 SUB PUSH1 0x80 DUP4 ADD MSTORE PUSH2 0x2AAD DUP2 PUSH2 0x2A3D JUMP JUMPDEST SWAP1 POP SWAP6 SWAP5 POP POP POP POP POP JUMP JUMPDEST PUSH1 0x0 PUSH1 0x40 DUP3 ADD SWAP1 POP PUSH2 0x2ACD PUSH1 0x0 DUP4 ADD DUP6 PUSH2 0x22BE JUMP JUMPDEST PUSH2 0x2ADA PUSH1 0x20 DUP4 ADD DUP5 PUSH2 0x2294 JUMP JUMPDEST SWAP4 SWAP3 POP POP POP JUMP JUMPDEST PUSH1 0x0 DUP2 MLOAD SWAP1 POP PUSH2 0x2AF0 DUP2 PUSH2 0x21DE JUMP JUMPDEST SWAP3 SWAP2 POP POP JUMP JUMPDEST PUSH1 0x0 PUSH1 0x20 DUP3 DUP5 SUB SLT ISZERO PUSH2 0x2B0C JUMPI PUSH2 0x2B0B PUSH2 0x1F47 JUMP JUMPDEST JUMPDEST PUSH1 0x0 PUSH2 0x2B1A DUP5 DUP3 DUP6 ADD PUSH2 0x2AE1 JUMP JUMPDEST SWAP2 POP POP SWAP3 SWAP2 POP POP JUMP JUMPDEST PUSH1 0x0 PUSH1 0x40 DUP3 ADD SWAP1 POP PUSH2 0x2B38 PUSH1 0x0 DUP4 ADD DUP6 PUSH2 0x29FF JUMP JUMPDEST PUSH2 0x2B45 PUSH1 0x20 DUP4 ADD DUP5 PUSH2 0x2294 JUMP JUMPDEST SWAP4 SWAP3 POP POP POP JUMP JUMPDEST PUSH1 0x0 DUP3 DUP3 MSTORE PUSH1 0x20 DUP3 ADD SWAP1 POP SWAP3 SWAP2 POP POP JUMP JUMPDEST PUSH32 0x41646D696E61626C653A2063616C6C6572206973206E6F7420746865206F776E PUSH1 0x0 DUP3 ADD MSTORE PUSH32 0x6572000000000000000000000000000000000000000000000000000000000000 PUSH1 0x20 DUP3 ADD MSTORE POP JUMP JUMPDEST PUSH1 0x0 PUSH2 0x2BB9 PUSH1 0x22 DUP4 PUSH2 0x2B4C JUMP JUMPDEST SWAP2 POP PUSH2 0x2BC4 DUP3 PUSH2 0x2B5D JUMP JUMPDEST PUSH1 0x40 DUP3 ADD SWAP1 POP SWAP2 SWAP1 POP JUMP JUMPDEST PUSH1 0x0 PUSH1 0x20 DUP3 ADD SWAP1 POP DUP2 DUP2 SUB PUSH1 0x0 DUP4 ADD MSTORE PUSH2 0x2BE8 DUP2 PUSH2 0x2BAC JUMP JUMPDEST SWAP1 POP SWAP2 SWAP1 POP JUMP JUMPDEST PUSH1 0x0 PUSH1 0x40 DUP3 ADD SWAP1 POP PUSH2 0x2C04 PUSH1 0x0 DUP4 ADD DUP6 PUSH2 0x1FE2 JUMP JUMPDEST PUSH2 0x2C11 PUSH1 0x20 DUP4 ADD DUP5 PUSH2 0x1FE2 JUMP JUMPDEST SWAP4 SWAP3 POP POP POP JUMP JUMPDEST PUSH32 0x4E487B7100000000000000000000000000000000000000000000000000000000 PUSH1 0x0 MSTORE PUSH1 0x11 PUSH1 0x4 MSTORE PUSH1 0x24 PUSH1 0x0 REVERT JUMPDEST PUSH1 0x0 PUSH2 0x2C52 DUP3 PUSH2 0x228A JUMP JUMPDEST SWAP2 POP PUSH2 0x2C5D DUP4 PUSH2 0x228A JUMP JUMPDEST SWAP3 POP DUP2 PUSH32 0xFFFFFFFFFFFFFFFFFFFFFFFFFFFFFFFFFFFFFFFFFFFFFFFFFFFFFFFFFFFFFFFF DIV DUP4 GT DUP3 ISZERO ISZERO AND ISZERO PUSH2 0x2C96 JUMPI PUSH2 0x2C95 PUSH2 0x2C18 JUMP JUMPDEST JUMPDEST DUP3 DUP3 MUL SWAP1 POP SWAP3 SWAP2 POP POP JUMP JUMPDEST PUSH32 0x4E487B7100000000000000000000000000000000000000000000000000000000 PUSH1 0x0 MSTORE PUSH1 0x12 PUSH1 0x4 MSTORE PUSH1 0x24 PUSH1 0x0 REVERT JUMPDEST PUSH1 0x0 PUSH2 0x2CDB DUP3 PUSH2 0x228A JUMP JUMPDEST SWAP2 POP PUSH2 0x2CE6 DUP4 PUSH2 0x228A JUMP JUMPDEST SWAP3 POP DUP3 PUSH2 0x2CF6 JUMPI PUSH2 0x2CF5 PUSH2 0x2CA1 JUMP JUMPDEST JUMPDEST DUP3 DUP3 DIV SWAP1 POP SWAP3 SWAP2 POP POP JUMP JUMPDEST PUSH32 0x416D6F756E74206973207A65726F000000000000000000000000000000000000 PUSH1 0x0 DUP3 ADD MSTORE POP JUMP JUMPDEST PUSH1 0x0 PUSH2 0x2D37 PUSH1 0xE DUP4 PUSH2 0x2B4C JUMP JUMPDEST SWAP2 POP PUSH2 0x2D42 DUP3 PUSH2 0x2D01 JUMP JUMPDEST PUSH1 0x20 DUP3 ADD SWAP1 POP SWAP2 SWAP1 POP JUMP JUMPDEST PUSH1 0x0 PUSH1 0x20 DUP3 ADD SWAP1 POP DUP2 DUP2 SUB PUSH1 0x0 DUP4 ADD MSTORE PUSH2 0x2D66 DUP2 PUSH2 0x2D2A JUMP JUMPDEST SWAP1 POP SWAP2 SWAP1 POP JUMP JUMPDEST PUSH32 0x4964206572726F72000000000000000000000000000000000000000000000000 PUSH1 0x0 DUP3 ADD MSTORE POP JUMP JUMPDEST PUSH1 0x0 PUSH2 0x2DA3 PUSH1 0x8 DUP4 PUSH2 0x2B4C JUMP JUMPDEST SWAP2 POP PUSH2 0x2DAE DUP3 PUSH2 0x2D6D JUMP JUMPDEST PUSH1 0x20 DUP3 ADD SWAP1 POP SWAP2 SWAP1 POP JUMP JUMPDEST PUSH1 0x0 PUSH1 0x20 DUP3 ADD SWAP1 POP DUP2 DUP2 SUB PUSH1 0x0 DUP4 ADD MSTORE PUSH2 0x2DD2 DUP2 PUSH2 0x2D96 JUMP JUMPDEST SWAP1 POP SWAP2 SWAP1 POP JUMP JUMPDEST PUSH32 0x4368616C6C656E6765206E6F7420737461727400000000000000000000000000 PUSH1 0x0 DUP3 ADD MSTORE POP JUMP JUMPDEST PUSH1 0x0 PUSH2 0x2E0F PUSH1 0x13 DUP4 PUSH2 0x2B4C JUMP JUMPDEST SWAP2 POP PUSH2 0x2E1A DUP3 PUSH2 0x2DD9 JUMP JUMPDEST PUSH1 0x20 DUP3 ADD SWAP1 POP SWAP2 SWAP1 POP JUMP JUMPDEST PUSH1 0x0 PUSH1 0x20 DUP3 ADD SWAP1 POP DUP2 DUP2 SUB PUSH1 0x0 DUP4 ADD MSTORE PUSH2 0x2E3E DUP2 PUSH2 0x2E02 JUMP JUMPDEST SWAP1 POP SWAP2 SWAP1 POP JUMP JUMPDEST PUSH32 0x4368616C6C656E676520697320656E6400000000000000000000000000000000 PUSH1 0x0 DUP3 ADD MSTORE POP JUMP JUMPDEST PUSH1 0x0 PUSH2 0x2E7B PUSH1 0x10 DUP4 PUSH2 0x2B4C JUMP JUMPDEST SWAP2 POP PUSH2 0x2E86 DUP3 PUSH2 0x2E45 JUMP JUMPDEST PUSH1 0x20 DUP3 ADD SWAP1 POP SWAP2 SWAP1 POP JUMP JUMPDEST PUSH1 0x0 PUSH1 0x20 DUP3 ADD SWAP1 POP DUP2 DUP2 SUB PUSH1 0x0 DUP4 ADD MSTORE PUSH2 0x2EAA DUP2 PUSH2 0x2E6E JUMP JUMPDEST SWAP1 POP SWAP2 SWAP1 POP JUMP JUMPDEST PUSH32 0x53746172742074696D65206D757374206C657373207468616E20656E64207469 PUSH1 0x0 DUP3 ADD MSTORE PUSH32 0x6D65000000000000000000000000000000000000000000000000000000000000 PUSH1 0x20 DUP3 ADD MSTORE POP JUMP JUMPDEST PUSH1 0x0 PUSH2 0x2F0D PUSH1 0x22 DUP4 PUSH2 0x2B4C JUMP JUMPDEST SWAP2 POP PUSH2 0x2F18 DUP3 PUSH2 0x2EB1 JUMP JUMPDEST PUSH1 0x40 DUP3 ADD SWAP1 POP SWAP2 SWAP1 POP JUMP JUMPDEST PUSH1 0x0 PUSH1 0x20 DUP3 ADD SWAP1 POP DUP2 DUP2 SUB PUSH1 0x0 DUP4 ADD MSTORE PUSH2 0x2F3C DUP2 PUSH2 0x2F00 JUMP JUMPDEST SWAP1 POP SWAP2 SWAP1 POP JUMP JUMPDEST PUSH32 0x546F6B656E206964206E6F7420696E206368616C6C656E676500000000000000 PUSH1 0x0 DUP3 ADD MSTORE POP JUMP JUMPDEST PUSH1 0x0 PUSH2 0x2F79 PUSH1 0x19 DUP4 PUSH2 0x2B4C JUMP JUMPDEST SWAP2 POP PUSH2 0x2F84 DUP3 PUSH2 0x2F43 JUMP JUMPDEST PUSH1 0x20 DUP3 ADD SWAP1 POP SWAP2 SWAP1 POP JUMP JUMPDEST PUSH1 0x0 PUSH1 0x20 DUP3 ADD SWAP1 POP DUP2 DUP2 SUB PUSH1 0x0 DUP4 ADD MSTORE PUSH2 0x2FA8 DUP2 PUSH2 0x2F6C JUMP JUMPDEST SWAP1 POP SWAP2 SWAP1 POP JUMP JUMPDEST PUSH1 0x0 PUSH2 0x2FBA DUP3 PUSH2 0x228A JUMP JUMPDEST SWAP2 POP PUSH2 0x2FC5 DUP4 PUSH2 0x228A JUMP JUMPDEST SWAP3 POP DUP3 PUSH32 0xFFFFFFFFFFFFFFFFFFFFFFFFFFFFFFFFFFFFFFFFFFFFFFFFFFFFFFFFFFFFFFFF SUB DUP3 GT ISZERO PUSH2 0x2FFA JUMPI PUSH2 0x2FF9 PUSH2 0x2C18 JUMP JUMPDEST JUMPDEST DUP3 DUP3 ADD SWAP1 POP SWAP3 SWAP2 POP POP JUMP JUMPDEST PUSH32 0x41646D696E61626C653A2063616C6C6572206973206E6F74207468652061646D PUSH1 0x0 DUP3 ADD MSTORE PUSH32 0x696E000000000000000000000000000000000000000000000000000000000000 PUSH1 0x20 DUP3 ADD MSTORE POP JUMP JUMPDEST PUSH1 0x0 PUSH2 0x3061 PUSH1 0x22 DUP4 PUSH2 0x2B4C JUMP JUMPDEST SWAP2 POP PUSH2 0x306C DUP3 PUSH2 0x3005 JUMP JUMPDEST PUSH1 0x40 DUP3 ADD SWAP1 POP SWAP2 SWAP1 POP JUMP JUMPDEST PUSH1 0x0 PUSH1 0x20 DUP3 ADD SWAP1 POP DUP2 DUP2 SUB PUSH1 0x0 DUP4 ADD MSTORE PUSH2 0x3090 DUP2 PUSH2 0x3054 JUMP JUMPDEST SWAP1 POP SWAP2 SWAP1 POP JUMP JUMPDEST PUSH32 0x496E76616C6964206368616C6C656E6765206964000000000000000000000000 PUSH1 0x0 DUP3 ADD MSTORE POP JUMP JUMPDEST PUSH1 0x0 PUSH2 0x30CD PUSH1 0x14 DUP4 PUSH2 0x2B4C JUMP JUMPDEST SWAP2 POP PUSH2 0x30D8 DUP3 PUSH2 0x3097 JUMP JUMPDEST PUSH1 0x20 DUP3 ADD SWAP1 POP SWAP2 SWAP1 POP JUMP JUMPDEST PUSH1 0x0 PUSH1 0x20 DUP3 ADD SWAP1 POP DUP2 DUP2 SUB PUSH1 0x0 DUP4 ADD MSTORE PUSH2 0x30FC DUP2 PUSH2 0x30C0 JUMP JUMPDEST SWAP1 POP SWAP2 SWAP1 POP JUMP JUMPDEST PUSH32 0x4368616C6C656E6765206E6F7420656E64000000000000000000000000000000 PUSH1 0x0 DUP3 ADD MSTORE POP JUMP JUMPDEST PUSH1 0x0 PUSH2 0x3139 PUSH1 0x11 DUP4 PUSH2 0x2B4C JUMP JUMPDEST SWAP2 POP PUSH2 0x3144 DUP3 PUSH2 0x3103 JUMP JUMPDEST PUSH1 0x20 DUP3 ADD SWAP1 POP SWAP2 SWAP1 POP JUMP JUMPDEST PUSH1 0x0 PUSH1 0x20 DUP3 ADD SWAP1 POP DUP2 DUP2 SUB PUSH1 0x0 DUP4 ADD MSTORE PUSH2 0x3168 DUP2 PUSH2 0x312C JUMP JUMPDEST SWAP1 POP SWAP2 SWAP1 POP JUMP JUMPDEST PUSH32 0x53746172742074696D65206D757374206D6F7265207468616E2070726573656E PUSH1 0x0 DUP3 ADD MSTORE PUSH32 0x742074696D650000000000000000000000000000000000000000000000000000 PUSH1 0x20 DUP3 ADD MSTORE POP JUMP JUMPDEST PUSH1 0x0 PUSH2 0x31CB PUSH1 0x26 DUP4 PUSH2 0x2B4C JUMP JUMPDEST SWAP2 POP PUSH2 0x31D6 DUP3 PUSH2 0x316F JUMP JUMPDEST PUSH1 0x40 DUP3 ADD SWAP1 POP SWAP2 SWAP1 POP JUMP JUMPDEST PUSH1 0x0 PUSH1 0x20 DUP3 ADD SWAP1 POP DUP2 DUP2 SUB PUSH1 0x0 DUP4 ADD MSTORE PUSH2 0x31FA DUP2 PUSH2 0x31BE JUMP JUMPDEST SWAP1 POP SWAP2 SWAP1 POP JUMP JUMPDEST PUSH32 0x546F6B656E206964206D757374206C657373207468616E203337000000000000 PUSH1 0x0 DUP3 ADD MSTORE POP JUMP JUMPDEST PUSH1 0x0 PUSH2 0x3237 PUSH1 0x1A DUP4 PUSH2 0x2B4C JUMP JUMPDEST SWAP2 POP PUSH2 0x3242 DUP3 PUSH2 0x3201 JUMP JUMPDEST PUSH1 0x20 DUP3 ADD SWAP1 POP SWAP2 SWAP1 POP JUMP JUMPDEST PUSH1 0x0 PUSH1 0x20 DUP3 ADD SWAP1 POP DUP2 DUP2 SUB PUSH1 0x0 DUP4 ADD MSTORE PUSH2 0x3266 DUP2 PUSH2 0x322A JUMP JUMPDEST SWAP1 POP SWAP2 SWAP1 POP JUMP JUMPDEST PUSH1 0x0 PUSH2 0x3278 DUP3 PUSH2 0x200C JUMP JUMPDEST SWAP2 POP PUSH2 0xFFFF DUP3 SUB PUSH2 0x328C JUMPI PUSH2 0x328B PUSH2 0x2C18 JUMP JUMPDEST JUMPDEST PUSH1 0x1 DUP3 ADD SWAP1 POP SWAP2 SWAP1 POP JUMP JUMPDEST PUSH32 0x4F776E61626C653A206E6577206F776E657220697320746865207A65726F2061 PUSH1 0x0 DUP3 ADD MSTORE PUSH32 0x6464726573730000000000000000000000000000000000000000000000000000 PUSH1 0x20 DUP3 ADD MSTORE POP JUMP JUMPDEST PUSH1 0x0 PUSH2 0x32F3 PUSH1 0x26 DUP4 PUSH2 0x2B4C JUMP JUMPDEST SWAP2 POP PUSH2 0x32FE DUP3 PUSH2 0x3297 JUMP JUMPDEST PUSH1 0x40 DUP3 ADD SWAP1 POP SWAP2 SWAP1 POP JUMP JUMPDEST PUSH1 0x0 PUSH1 0x20 DUP3 ADD SWAP1 POP DUP2 DUP2 SUB PUSH1 0x0 DUP4 ADD MSTORE PUSH2 0x3322 DUP2 PUSH2 0x32E6 JUMP JUMPDEST SWAP1 POP SWAP2 SWAP1 POP JUMP INVALID LOG2 PUSH5 0x6970667358 0x22 SLT KECCAK256 PUSH11 0xDD2F8EF60EE22C09A5EA3 0xDE 0xCF DUP6 0xEC 0xCA 0xC 0xFC 0xCB AND DIFFICULTY SWAP11 SLOAD 0xED 0x1F 0xB9 CALLDATASIZE 0x2C 0xAC NOT PUSH1 0x64 PUSH20 0x6F6C634300080D00330000000000000000000000 "
				},
				"gasEstimates": {
					"creation": {
						"codeDepositCost": "2630200",
						"executionCost": "infinite",
						"totalCost": "infinite"
					},
					"external": {
						"addChallenge(uint8,uint256,uint256,uint256,uint256)": "infinite",
						"challengeIdInex()": "2653",
						"enterChallenge(uint16,uint256,uint256)": "infinite",
						"getChallengeInfo(uint16)": "infinite",
						"getUserChallengeInfo(address,uint16)": "infinite",
						"getUserChallenges(address)": "infinite",
						"getUserRewards(address,uint16)": "infinite",
						"isAdmin(address)": "2906",
						"modificationAdmin(address,bool)": "infinite",
						"nftCost()": "2451",
						"onERC1155BatchReceived(address,address,uint256[],uint256[],bytes)": "infinite",
						"onERC1155Received(address,address,uint256,uint256,bytes)": "infinite",
						"openChallenge(uint16,uint256)": "infinite",
						"owner()": "2589",
						"renounceOwnership()": "30485",
						"rewardToken()": "2624",
						"setNftCost(uint256)": "24848",
						"setRewardToken(address)": "27007",
						"setTeamNft(address)": "27051",
						"supportsInterface(bytes4)": "751",
						"teamNft()": "2559",
						"transferOwnership(address)": "30786",
						"withdrawReward(uint16)": "infinite"
					},
					"internal": {
						"_getWinnerTokenId(uint16)": "infinite"
					}
				},
				"methodIdentifiers": {
					"addChallenge(uint8,uint256,uint256,uint256,uint256)": "d5bf583b",
					"challengeIdInex()": "ffa65732",
					"enterChallenge(uint16,uint256,uint256)": "52964def",
					"getChallengeInfo(uint16)": "891ee6d3",
					"getUserChallengeInfo(address,uint16)": "749f3429",
					"getUserChallenges(address)": "11da8e54",
					"getUserRewards(address,uint16)": "21569088",
					"isAdmin(address)": "24d7806c",
					"modificationAdmin(address,bool)": "18e20ecf",
					"nftCost()": "da80e59b",
					"onERC1155BatchReceived(address,address,uint256[],uint256[],bytes)": "bc197c81",
					"onERC1155Received(address,address,uint256,uint256,bytes)": "f23a6e61",
					"openChallenge(uint16,uint256)": "a278602f",
					"owner()": "8da5cb5b",
					"renounceOwnership()": "715018a6",
					"rewardToken()": "f7c618c1",
					"setNftCost(uint256)": "f606faea",
					"setRewardToken(address)": "8aee8127",
					"setTeamNft(address)": "6cd262fb",
					"supportsInterface(bytes4)": "01ffc9a7",
					"teamNft()": "270e3994",
					"transferOwnership(address)": "f2fde38b",
					"withdrawReward(uint16)": "082d0785"
				}
			},
			"storageLayout": {
				"storage": [
					{
						"astId": 388,
						"contract": "worldcup/DreamChallenge.sol:DreamChallenge",
						"label": "_admins",
						"offset": 0,
						"slot": "0",
						"type": "t_mapping(t_address,t_bool)"
					},
					{
						"astId": 390,
						"contract": "worldcup/DreamChallenge.sol:DreamChallenge",
						"label": "_owner",
						"offset": 0,
						"slot": "1",
						"type": "t_address"
					},
					{
						"astId": 549,
						"contract": "worldcup/DreamChallenge.sol:DreamChallenge",
						"label": "teamNft",
						"offset": 0,
						"slot": "2",
						"type": "t_address"
					},
					{
						"astId": 551,
						"contract": "worldcup/DreamChallenge.sol:DreamChallenge",
						"label": "rewardToken",
						"offset": 0,
						"slot": "3",
						"type": "t_address"
					},
					{
						"astId": 554,
						"contract": "worldcup/DreamChallenge.sol:DreamChallenge",
						"label": "challengeIdInex",
						"offset": 20,
						"slot": "3",
						"type": "t_uint16"
					},
					{
						"astId": 561,
						"contract": "worldcup/DreamChallenge.sol:DreamChallenge",
						"label": "nftCost",
						"offset": 0,
						"slot": "4",
						"type": "t_uint256"
					},
					{
						"astId": 600,
						"contract": "worldcup/DreamChallenge.sol:DreamChallenge",
						"label": "challenges",
						"offset": 0,
						"slot": "5",
						"type": "t_mapping(t_uint16,t_struct(Challenge)586_storage)"
					},
					{
						"astId": 607,
						"contract": "worldcup/DreamChallenge.sol:DreamChallenge",
						"label": "userChallenges",
						"offset": 0,
						"slot": "6",
						"type": "t_mapping(t_address,t_mapping(t_uint16,t_struct(UserInfo)595_storage))"
					},
					{
						"astId": 612,
						"contract": "worldcup/DreamChallenge.sol:DreamChallenge",
						"label": "userChallengeIds",
						"offset": 0,
						"slot": "7",
						"type": "t_mapping(t_address,t_array(t_uint16)dyn_storage)"
					}
				],
				"types": {
					"t_address": {
						"encoding": "inplace",
						"label": "address",
						"numberOfBytes": "20"
					},
					"t_array(t_uint16)dyn_storage": {
						"base": "t_uint16",
						"encoding": "dynamic_array",
						"label": "uint16[]",
						"numberOfBytes": "32"
					},
					"t_bool": {
						"encoding": "inplace",
						"label": "bool",
						"numberOfBytes": "1"
					},
					"t_enum(Ctype)564": {
						"encoding": "inplace",
						"label": "enum DreamChallenge.Ctype",
						"numberOfBytes": "1"
					},
					"t_mapping(t_address,t_array(t_uint16)dyn_storage)": {
						"encoding": "mapping",
						"key": "t_address",
						"label": "mapping(address => uint16[])",
						"numberOfBytes": "32",
						"value": "t_array(t_uint16)dyn_storage"
					},
					"t_mapping(t_address,t_bool)": {
						"encoding": "mapping",
						"key": "t_address",
						"label": "mapping(address => bool)",
						"numberOfBytes": "32",
						"value": "t_bool"
					},
					"t_mapping(t_address,t_mapping(t_uint16,t_struct(UserInfo)595_storage))": {
						"encoding": "mapping",
						"key": "t_address",
						"label": "mapping(address => mapping(uint16 => struct DreamChallenge.UserInfo))",
						"numberOfBytes": "32",
						"value": "t_mapping(t_uint16,t_struct(UserInfo)595_storage)"
					},
					"t_mapping(t_uint16,t_struct(Challenge)586_storage)": {
						"encoding": "mapping",
						"key": "t_uint16",
						"label": "mapping(uint16 => struct DreamChallenge.Challenge)",
						"numberOfBytes": "32",
						"value": "t_struct(Challenge)586_storage"
					},
					"t_mapping(t_uint16,t_struct(UserInfo)595_storage)": {
						"encoding": "mapping",
						"key": "t_uint16",
						"label": "mapping(uint16 => struct DreamChallenge.UserInfo)",
						"numberOfBytes": "32",
						"value": "t_struct(UserInfo)595_storage"
					},
					"t_struct(Challenge)586_storage": {
						"encoding": "inplace",
						"label": "struct DreamChallenge.Challenge",
						"members": [
							{
								"astId": 567,
								"contract": "worldcup/DreamChallenge.sol:DreamChallenge",
								"label": "ctype",
								"offset": 0,
								"slot": "0",
								"type": "t_enum(Ctype)564"
							},
							{
								"astId": 569,
								"contract": "worldcup/DreamChallenge.sol:DreamChallenge",
								"label": "id",
								"offset": 1,
								"slot": "0",
								"type": "t_uint16"
							},
							{
								"astId": 571,
								"contract": "worldcup/DreamChallenge.sol:DreamChallenge",
								"label": "startAt",
								"offset": 0,
								"slot": "1",
								"type": "t_uint256"
							},
							{
								"astId": 573,
								"contract": "worldcup/DreamChallenge.sol:DreamChallenge",
								"label": "endAt",
								"offset": 0,
								"slot": "2",
								"type": "t_uint256"
							},
							{
								"astId": 575,
								"contract": "worldcup/DreamChallenge.sol:DreamChallenge",
								"label": "openAt",
								"offset": 0,
								"slot": "3",
								"type": "t_uint256"
							},
							{
								"astId": 577,
								"contract": "worldcup/DreamChallenge.sol:DreamChallenge",
								"label": "tokenIdLeft",
								"offset": 0,
								"slot": "4",
								"type": "t_uint256"
							},
							{
								"astId": 579,
								"contract": "worldcup/DreamChallenge.sol:DreamChallenge",
								"label": "tokenIdRight",
								"offset": 0,
								"slot": "5",
								"type": "t_uint256"
							},
							{
								"astId": 581,
								"contract": "worldcup/DreamChallenge.sol:DreamChallenge",
								"label": "leftTotalAmount",
								"offset": 0,
								"slot": "6",
								"type": "t_uint256"
							},
							{
								"astId": 583,
								"contract": "worldcup/DreamChallenge.sol:DreamChallenge",
								"label": "rightTotalAmount",
								"offset": 0,
								"slot": "7",
								"type": "t_uint256"
							},
							{
								"astId": 585,
								"contract": "worldcup/DreamChallenge.sol:DreamChallenge",
								"label": "winnerTokenId",
								"offset": 0,
								"slot": "8",
								"type": "t_uint256"
							}
						],
						"numberOfBytes": "288"
					},
					"t_struct(UserInfo)595_storage": {
						"encoding": "inplace",
						"label": "struct DreamChallenge.UserInfo",
						"members": [
							{
								"astId": 588,
								"contract": "worldcup/DreamChallenge.sol:DreamChallenge",
								"label": "challengeId",
								"offset": 0,
								"slot": "0",
								"type": "t_uint16"
							},
							{
								"astId": 590,
								"contract": "worldcup/DreamChallenge.sol:DreamChallenge",
								"label": "amountsLeft",
								"offset": 0,
								"slot": "1",
								"type": "t_uint256"
							},
							{
								"astId": 592,
								"contract": "worldcup/DreamChallenge.sol:DreamChallenge",
								"label": "amountsRight",
								"offset": 0,
								"slot": "2",
								"type": "t_uint256"
							},
							{
								"astId": 594,
								"contract": "worldcup/DreamChallenge.sol:DreamChallenge",
								"label": "isTakeReward",
								"offset": 0,
								"slot": "3",
								"type": "t_bool"
							}
						],
						"numberOfBytes": "128"
					},
					"t_uint16": {
						"encoding": "inplace",
						"label": "uint16",
						"numberOfBytes": "2"
					},
					"t_uint256": {
						"encoding": "inplace",
						"label": "uint256",
						"numberOfBytes": "32"
					}
				}
			},
			"userdoc": {
				"kind": "user",
				"methods": {},
				"version": 1
			}
		}
	}
}