{
	"worldcup/GameForecast.sol": {
		"GameForecast": {
			"abi": [
				{
					"anonymous": false,
					"inputs": [
						{
							"indexed": true,
							"internalType": "address",
							"name": "admin",
							"type": "address"
						},
						{
							"indexed": false,
							"internalType": "bool",
							"name": "oldState",
							"type": "bool"
						},
						{
							"indexed": false,
							"internalType": "bool",
							"name": "newState",
							"type": "bool"
						}
					],
					"name": "ModificationAdmin",
					"type": "event"
				},
				{
					"anonymous": false,
					"inputs": [
						{
							"indexed": true,
							"internalType": "address",
							"name": "previousOwner",
							"type": "address"
						},
						{
							"indexed": true,
							"internalType": "address",
							"name": "newOwner",
							"type": "address"
						}
					],
					"name": "OwnershipTransferred",
					"type": "event"
				},
				{
					"inputs": [
						{
							"internalType": "uint16",
							"name": "forecastId",
							"type": "uint16"
						}
					],
					"name": "claimForecastRewards",
					"outputs": [],
					"stateMutability": "nonpayable",
					"type": "function"
				},
				{
					"inputs": [],
					"name": "cupNft",
					"outputs": [
						{
							"internalType": "address",
							"name": "",
							"type": "address"
						}
					],
					"stateMutability": "view",
					"type": "function"
				},
				{
					"inputs": [
						{
							"internalType": "uint8[8]",
							"name": "_teams8",
							"type": "uint8[8]"
						},
						{
							"internalType": "uint8[4]",
							"name": "_teams4",
							"type": "uint8[4]"
						},
						{
							"internalType": "uint8[2]",
							"name": "_teams2",
							"type": "uint8[2]"
						},
						{
							"internalType": "uint8",
							"name": "_first",
							"type": "uint8"
						},
						{
							"internalType": "uint8",
							"name": "_third",
							"type": "uint8"
						}
					],
					"name": "enterForecast",
					"outputs": [],
					"stateMutability": "nonpayable",
					"type": "function"
				},
				{
					"inputs": [],
					"name": "gameResult",
					"outputs": [
						{
							"internalType": "uint8",
							"name": "first",
							"type": "uint8"
						},
						{
							"internalType": "uint8",
							"name": "third",
							"type": "uint8"
						}
					],
					"stateMutability": "view",
					"type": "function"
				},
				{
					"inputs": [],
					"name": "getGameResultFirst",
					"outputs": [
						{
							"internalType": "uint8",
							"name": "",
							"type": "uint8"
						}
					],
					"stateMutability": "view",
					"type": "function"
				},
				{
					"inputs": [],
					"name": "getGameResultTeams2",
					"outputs": [
						{
							"internalType": "uint8[2]",
							"name": "",
							"type": "uint8[2]"
						}
					],
					"stateMutability": "view",
					"type": "function"
				},
				{
					"inputs": [],
					"name": "getGameResultTeams4",
					"outputs": [
						{
							"internalType": "uint8[4]",
							"name": "",
							"type": "uint8[4]"
						}
					],
					"stateMutability": "view",
					"type": "function"
				},
				{
					"inputs": [],
					"name": "getGameResultTeams8",
					"outputs": [
						{
							"internalType": "uint8[8]",
							"name": "",
							"type": "uint8[8]"
						}
					],
					"stateMutability": "view",
					"type": "function"
				},
				{
					"inputs": [],
					"name": "getGameResultThird",
					"outputs": [
						{
							"internalType": "uint8",
							"name": "",
							"type": "uint8"
						}
					],
					"stateMutability": "view",
					"type": "function"
				},
				{
					"inputs": [],
					"name": "getTeam16Tokenid",
					"outputs": [
						{
							"internalType": "uint8[16]",
							"name": "",
							"type": "uint8[16]"
						}
					],
					"stateMutability": "view",
					"type": "function"
				},
				{
					"inputs": [
						{
							"internalType": "address",
							"name": "user",
							"type": "address"
						},
						{
							"internalType": "uint16",
							"name": "forecastId",
							"type": "uint16"
						}
					],
					"name": "getUserForecastRewards",
					"outputs": [
						{
							"internalType": "uint256",
							"name": "",
							"type": "uint256"
						}
					],
					"stateMutability": "view",
					"type": "function"
				},
				{
					"inputs": [
						{
							"internalType": "address",
							"name": "account",
							"type": "address"
						},
						{
							"internalType": "uint16",
							"name": "forecastId",
							"type": "uint16"
						}
					],
					"name": "getUserHits",
					"outputs": [
						{
							"internalType": "uint256",
							"name": "",
							"type": "uint256"
						}
					],
					"stateMutability": "view",
					"type": "function"
				},
				{
					"inputs": [
						{
							"internalType": "address",
							"name": "account",
							"type": "address"
						}
					],
					"name": "isAdmin",
					"outputs": [
						{
							"internalType": "bool",
							"name": "",
							"type": "bool"
						}
					],
					"stateMutability": "view",
					"type": "function"
				},
				{
					"inputs": [
						{
							"internalType": "address",
							"name": "admin",
							"type": "address"
						},
						{
							"internalType": "bool",
							"name": "state",
							"type": "bool"
						}
					],
					"name": "modificationAdmin",
					"outputs": [],
					"stateMutability": "nonpayable",
					"type": "function"
				},
				{
					"inputs": [
						{
							"internalType": "uint8[8]",
							"name": "_teams8",
							"type": "uint8[8]"
						},
						{
							"internalType": "uint8[4]",
							"name": "_teams4",
							"type": "uint8[4]"
						},
						{
							"internalType": "uint8[2]",
							"name": "_teams2",
							"type": "uint8[2]"
						},
						{
							"internalType": "uint8",
							"name": "_first",
							"type": "uint8"
						},
						{
							"internalType": "uint8",
							"name": "_third",
							"type": "uint8"
						}
					],
					"name": "openForecast",
					"outputs": [],
					"stateMutability": "nonpayable",
					"type": "function"
				},
				{
					"inputs": [],
					"name": "openTime",
					"outputs": [
						{
							"internalType": "uint256",
							"name": "",
							"type": "uint256"
						}
					],
					"stateMutability": "view",
					"type": "function"
				},
				{
					"inputs": [],
					"name": "owner",
					"outputs": [
						{
							"internalType": "address",
							"name": "",
							"type": "address"
						}
					],
					"stateMutability": "view",
					"type": "function"
				},
				{
					"inputs": [],
					"name": "renounceOwnership",
					"outputs": [],
					"stateMutability": "nonpayable",
					"type": "function"
				},
				{
					"inputs": [
						{
							"internalType": "uint8[16]",
							"name": "_teams16",
							"type": "uint8[16]"
						}
					],
					"name": "setTeam16Tokenid",
					"outputs": [],
					"stateMutability": "nonpayable",
					"type": "function"
				},
				{
					"inputs": [
						{
							"internalType": "uint256",
							"name": "",
							"type": "uint256"
						}
					],
					"name": "team16",
					"outputs": [
						{
							"internalType": "uint8",
							"name": "",
							"type": "uint8"
						}
					],
					"stateMutability": "view",
					"type": "function"
				},
				{
					"inputs": [
						{
							"internalType": "address",
							"name": "newOwner",
							"type": "address"
						}
					],
					"name": "transferOwnership",
					"outputs": [],
					"stateMutability": "nonpayable",
					"type": "function"
				},
				{
					"inputs": [
						{
							"internalType": "address",
							"name": "",
							"type": "address"
						},
						{
							"internalType": "uint16",
							"name": "",
							"type": "uint16"
						}
					],
					"name": "userForecastInfo",
					"outputs": [
						{
							"internalType": "uint8",
							"name": "first",
							"type": "uint8"
						},
						{
							"internalType": "uint8",
							"name": "third",
							"type": "uint8"
						}
					],
					"stateMutability": "view",
					"type": "function"
				},
				{
					"inputs": [
						{
							"internalType": "address",
							"name": "",
							"type": "address"
						}
					],
					"name": "userForecastNumbers",
					"outputs": [
						{
							"internalType": "uint16",
							"name": "",
							"type": "uint16"
						}
					],
					"stateMutability": "view",
					"type": "function"
				}
			],
			"devdoc": {
				"kind": "dev",
				"methods": {},
				"version": 1
			},
			"evm": {
				"assembly": "    /* \"worldcup/GameForecast.sol\":58:7067  contract GameForecast is Adminable{... */\n  mstore(0x40, 0x80)\n  callvalue\n  dup1\n  iszero\n  tag_1\n  jumpi\n  0x00\n  dup1\n  revert\ntag_1:\n  pop\n    /* \"worldcup/Adminable.sol\":605:637  _transferOwnership(_msgSender()) */\n  tag_4\n    /* \"worldcup/Adminable.sol\":624:636  _msgSender() */\n  tag_5\n    /* \"worldcup/Adminable.sol\":624:634  _msgSender */\n  shl(0x20, tag_6)\n    /* \"worldcup/Adminable.sol\":624:636  _msgSender() */\n  0x20\n  shr\n  jump\t// in\ntag_5:\n    /* \"worldcup/Adminable.sol\":605:623  _transferOwnership */\n  shl(0x20, tag_7)\n    /* \"worldcup/Adminable.sol\":605:637  _transferOwnership(_msgSender()) */\n  0x20\n  shr\n  jump\t// in\ntag_4:\n    /* \"worldcup/GameForecast.sol\":58:7067  contract GameForecast is Adminable{... */\n  jump(tag_8)\n    /* \"worldcup/Adminable.sol\":64:162  function _msgSender() internal view virtual returns (address) {... */\ntag_6:\n    /* \"worldcup/Adminable.sol\":117:124  address */\n  0x00\n    /* \"worldcup/Adminable.sol\":144:154  msg.sender */\n  caller\n    /* \"worldcup/Adminable.sol\":137:154  return msg.sender */\n  swap1\n  pop\n    /* \"worldcup/Adminable.sol\":64:162  function _msgSender() internal view virtual returns (address) {... */\n  swap1\n  jump\t// out\n    /* \"worldcup/Adminable.sol\":1445:1636  function _transferOwnership(address newOwner) internal virtual {... */\ntag_7:\n    /* \"worldcup/Adminable.sol\":1519:1535  address oldOwner */\n  0x00\n    /* \"worldcup/Adminable.sol\":1538:1544  _owner */\n  0x01\n  0x00\n  swap1\n  sload\n  swap1\n  0x0100\n  exp\n  swap1\n  div\n  0xffffffffffffffffffffffffffffffffffffffff\n  and\n    /* \"worldcup/Adminable.sol\":1519:1544  address oldOwner = _owner */\n  swap1\n  pop\n    /* \"worldcup/Adminable.sol\":1564:1572  newOwner */\n  dup2\n    /* \"worldcup/Adminable.sol\":1555:1561  _owner */\n  0x01\n  0x00\n    /* \"worldcup/Adminable.sol\":1555:1572  _owner = newOwner */\n  0x0100\n  exp\n  dup2\n  sload\n  dup2\n  0xffffffffffffffffffffffffffffffffffffffff\n  mul\n  not\n  and\n  swap1\n  dup4\n  0xffffffffffffffffffffffffffffffffffffffff\n  and\n  mul\n  or\n  swap1\n  sstore\n  pop\n    /* \"worldcup/Adminable.sol\":1619:1627  newOwner */\n  dup2\n    /* \"worldcup/Adminable.sol\":1588:1628  OwnershipTransferred(oldOwner, newOwner) */\n  0xffffffffffffffffffffffffffffffffffffffff\n  and\n    /* \"worldcup/Adminable.sol\":1609:1617  oldOwner */\n  dup2\n    /* \"worldcup/Adminable.sol\":1588:1628  OwnershipTransferred(oldOwner, newOwner) */\n  0xffffffffffffffffffffffffffffffffffffffff\n  and\n  0x8be0079c531659141344cd1fd0a4f28419497f9722a3daafe3b4186f6b6457e0\n  mload(0x40)\n  mload(0x40)\n  dup1\n  swap2\n  sub\n  swap1\n  log3\n    /* \"worldcup/Adminable.sol\":1508:1636  {... */\n  pop\n    /* \"worldcup/Adminable.sol\":1445:1636  function _transferOwnership(address newOwner) internal virtual {... */\n  pop\n  jump\t// out\n    /* \"worldcup/GameForecast.sol\":58:7067  contract GameForecast is Adminable{... */\ntag_8:\n  dataSize(sub_0)\n  dup1\n  dataOffset(sub_0)\n  0x00\n  codecopy\n  0x00\n  return\nstop\n\nsub_0: assembly {\n        /* \"worldcup/GameForecast.sol\":58:7067  contract GameForecast is Adminable{... */\n      mstore(0x40, 0x80)\n      callvalue\n      dup1\n      iszero\n      tag_1\n      jumpi\n      0x00\n      dup1\n      revert\n    tag_1:\n      pop\n      jumpi(tag_2, lt(calldatasize, 0x04))\n      shr(0xe0, calldataload(0x00))\n      dup1\n      0x9e79c1d4\n      gt\n      tag_26\n      jumpi\n      dup1\n      0xba43c3ec\n      gt\n      tag_27\n      jumpi\n      dup1\n      0xba43c3ec\n      eq\n      tag_20\n      jumpi\n      dup1\n      0xd28fc7c5\n      eq\n      tag_21\n      jumpi\n      dup1\n      0xd46ee691\n      eq\n      tag_22\n      jumpi\n      dup1\n      0xdb471ea4\n      eq\n      tag_23\n      jumpi\n      dup1\n      0xf2fde38b\n      eq\n      tag_24\n      jumpi\n      dup1\n      0xf4c00ff5\n      eq\n      tag_25\n      jumpi\n      jump(tag_2)\n    tag_27:\n      dup1\n      0x9e79c1d4\n      eq\n      tag_14\n      jumpi\n      dup1\n      0x9ec6ef33\n      eq\n      tag_15\n      jumpi\n      dup1\n      0xa1f902be\n      eq\n      tag_16\n      jumpi\n      dup1\n      0xaa0aa29d\n      eq\n      tag_17\n      jumpi\n      dup1\n      0xb1c5f9c6\n      eq\n      tag_18\n      jumpi\n      dup1\n      0xb4256888\n      eq\n      tag_19\n      jumpi\n      jump(tag_2)\n    tag_26:\n      dup1\n      0x37d87a61\n      gt\n      tag_28\n      jumpi\n      dup1\n      0x37d87a61\n      eq\n      tag_8\n      jumpi\n      dup1\n      0x6ca9378f\n      eq\n      tag_9\n      jumpi\n      dup1\n      0x715018a6\n      eq\n      tag_10\n      jumpi\n      dup1\n      0x7152f800\n      eq\n      tag_11\n      jumpi\n      dup1\n      0x830ee448\n      eq\n      tag_12\n      jumpi\n      dup1\n      0x8da5cb5b\n      eq\n      tag_13\n      jumpi\n      jump(tag_2)\n    tag_28:\n      dup1\n      0x080582af\n      eq\n      tag_3\n      jumpi\n      dup1\n      0x18e20ecf\n      eq\n      tag_4\n      jumpi\n      dup1\n      0x24d7806c\n      eq\n      tag_5\n      jumpi\n      dup1\n      0x27cf7e77\n      eq\n      tag_6\n      jumpi\n      dup1\n      0x353eb8d4\n      eq\n      tag_7\n      jumpi\n    tag_2:\n      0x00\n      dup1\n      revert\n        /* \"worldcup/GameForecast.sol\":2430:2530  function getGameResultFirst() public view returns (uint8) {... */\n    tag_3:\n      tag_29\n      tag_30\n      jump\t// in\n    tag_29:\n      mload(0x40)\n      tag_31\n      swap2\n      swap1\n      tag_32\n      jump\t// in\n    tag_31:\n      mload(0x40)\n      dup1\n      swap2\n      sub\n      swap1\n      return\n        /* \"worldcup/Adminable.sol\":1644:1828  function modificationAdmin(address admin, bool state) public virtual onlyOwner {... */\n    tag_4:\n      tag_33\n      0x04\n      dup1\n      calldatasize\n      sub\n      dup2\n      add\n      swap1\n      tag_34\n      swap2\n      swap1\n      tag_35\n      jump\t// in\n    tag_34:\n      tag_36\n      jump\t// in\n    tag_33:\n      stop\n        /* \"worldcup/Adminable.sol\":1006:1117  function isAdmin(address account) public view virtual returns (bool) {... */\n    tag_5:\n      tag_37\n      0x04\n      dup1\n      calldatasize\n      sub\n      dup2\n      add\n      swap1\n      tag_38\n      swap2\n      swap1\n      tag_39\n      jump\t// in\n    tag_38:\n      tag_40\n      jump\t// in\n    tag_37:\n      mload(0x40)\n      tag_41\n      swap2\n      swap1\n      tag_42\n      jump\t// in\n    tag_41:\n      mload(0x40)\n      dup1\n      swap2\n      sub\n      swap1\n      return\n        /* \"worldcup/GameForecast.sol\":353:406  mapping(address => uint16) public userForecastNumbers */\n    tag_6:\n      tag_43\n      0x04\n      dup1\n      calldatasize\n      sub\n      dup2\n      add\n      swap1\n      tag_44\n      swap2\n      swap1\n      tag_39\n      jump\t// in\n    tag_44:\n      tag_45\n      jump\t// in\n    tag_43:\n      mload(0x40)\n      tag_46\n      swap2\n      swap1\n      tag_47\n      jump\t// in\n    tag_46:\n      mload(0x40)\n      dup1\n      swap2\n      sub\n      swap1\n      return\n        /* \"worldcup/GameForecast.sol\":2190:2302  function getGameResultTeams4() public view returns (uint8[4] memory) {... */\n    tag_7:\n      tag_48\n      tag_49\n      jump\t// in\n    tag_48:\n      mload(0x40)\n      tag_50\n      swap2\n      swap1\n      tag_51\n      jump\t// in\n    tag_50:\n      mload(0x40)\n      dup1\n      swap2\n      sub\n      swap1\n      return\n        /* \"worldcup/GameForecast.sol\":101:122  address public cupNft */\n    tag_8:\n      tag_52\n      tag_53\n      jump\t// in\n    tag_52:\n      mload(0x40)\n      tag_54\n      swap2\n      swap1\n      tag_55\n      jump\t// in\n    tag_54:\n      mload(0x40)\n      dup1\n      swap2\n      sub\n      swap1\n      return\n        /* \"worldcup/GameForecast.sol\":2755:2860  function getUserForecastRewards(address user, uint16 forecastId) public view returns (uint256) {... */\n    tag_9:\n      tag_56\n      0x04\n      dup1\n      calldatasize\n      sub\n      dup2\n      add\n      swap1\n      tag_57\n      swap2\n      swap1\n      tag_58\n      jump\t// in\n    tag_57:\n      tag_59\n      jump\t// in\n    tag_56:\n      mload(0x40)\n      tag_60\n      swap2\n      swap1\n      tag_61\n      jump\t// in\n    tag_60:\n      mload(0x40)\n      dup1\n      swap2\n      sub\n      swap1\n      return\n        /* \"worldcup/Adminable.sol\":1125:1228  function renounceOwnership() public virtual onlyOwner {... */\n    tag_10:\n      tag_62\n      tag_63\n      jump\t// in\n    tag_62:\n      stop\n        /* \"worldcup/GameForecast.sol\":491:517  TeamInfo public gameResult */\n    tag_11:\n      tag_64\n      tag_65\n      jump\t// in\n    tag_64:\n      mload(0x40)\n      tag_66\n      swap3\n      swap2\n      swap1\n      tag_67\n      jump\t// in\n    tag_66:\n      mload(0x40)\n      dup1\n      swap2\n      sub\n      swap1\n      return\n        /* \"worldcup/GameForecast.sol\":2646:2745  function getTeam16Tokenid() public view returns (uint8[16] memory) {... */\n    tag_12:\n      tag_68\n      tag_69\n      jump\t// in\n    tag_68:\n      mload(0x40)\n      tag_70\n      swap2\n      swap1\n      tag_71\n      jump\t// in\n    tag_70:\n      mload(0x40)\n      dup1\n      swap2\n      sub\n      swap1\n      return\n        /* \"worldcup/Adminable.sol\":911:998  function owner() public view virtual returns (address) {... */\n    tag_13:\n      tag_72\n      tag_73\n      jump\t// in\n    tag_72:\n      mload(0x40)\n      tag_74\n      swap2\n      swap1\n      tag_55\n      jump\t// in\n    tag_74:\n      mload(0x40)\n      dup1\n      swap2\n      sub\n      swap1\n      return\n        /* \"worldcup/GameForecast.sol\":1460:2062  function enterForecast(uint8[8] calldata _teams8, uint8[4] calldata _teams4, uint8[2] calldata _teams2, uint8 _first, uint8 _third) public {... */\n    tag_14:\n      tag_75\n      0x04\n      dup1\n      calldatasize\n      sub\n      dup2\n      add\n      swap1\n      tag_76\n      swap2\n      swap1\n      tag_77\n      jump\t// in\n    tag_76:\n      tag_78\n      jump\t// in\n    tag_75:\n      stop\n        /* \"worldcup/GameForecast.sol\":2070:2182  function getGameResultTeams8() public view returns (uint8[8] memory) {... */\n    tag_15:\n      tag_79\n      tag_80\n      jump\t// in\n    tag_79:\n      mload(0x40)\n      tag_81\n      swap2\n      swap1\n      tag_82\n      jump\t// in\n    tag_81:\n      mload(0x40)\n      dup1\n      swap2\n      sub\n      swap1\n      return\n        /* \"worldcup/GameForecast.sol\":526:771  function setTeam16Tokenid(uint8[16] calldata _teams16) public onlyAdmin {... */\n    tag_16:\n      tag_83\n      0x04\n      dup1\n      calldatasize\n      sub\n      dup2\n      add\n      swap1\n      tag_84\n      swap2\n      swap1\n      tag_85\n      jump\t// in\n    tag_84:\n      tag_86\n      jump\t// in\n    tag_83:\n      stop\n        /* \"worldcup/GameForecast.sol\":5166:5501  function getUserHits(address account, uint16 forecastId) public view returns (uint256){... */\n    tag_17:\n      tag_87\n      0x04\n      dup1\n      calldatasize\n      sub\n      dup2\n      add\n      swap1\n      tag_88\n      swap2\n      swap1\n      tag_58\n      jump\t// in\n    tag_88:\n      tag_89\n      jump\t// in\n    tag_87:\n      mload(0x40)\n      tag_90\n      swap2\n      swap1\n      tag_61\n      jump\t// in\n    tag_90:\n      mload(0x40)\n      dup1\n      swap2\n      sub\n      swap1\n      return\n        /* \"worldcup/GameForecast.sol\":413:484  mapping(address => mapping(uint16 => TeamInfo)) public userForecastInfo */\n    tag_18:\n      tag_91\n      0x04\n      dup1\n      calldatasize\n      sub\n      dup2\n      add\n      swap1\n      tag_92\n      swap2\n      swap1\n      tag_58\n      jump\t// in\n    tag_92:\n      tag_93\n      jump\t// in\n    tag_91:\n      mload(0x40)\n      tag_94\n      swap3\n      swap2\n      swap1\n      tag_67\n      jump\t// in\n    tag_94:\n      mload(0x40)\n      dup1\n      swap2\n      sub\n      swap1\n      return\n        /* \"worldcup/GameForecast.sol\":319:342  uint256 public openTime */\n    tag_19:\n      tag_95\n      tag_96\n      jump\t// in\n    tag_95:\n      mload(0x40)\n      tag_97\n      swap2\n      swap1\n      tag_61\n      jump\t// in\n    tag_97:\n      mload(0x40)\n      dup1\n      swap2\n      sub\n      swap1\n      return\n        /* \"worldcup/GameForecast.sol\":2868:2934  function claimForecastRewards(uint16 forecastId) public {... */\n    tag_20:\n      tag_98\n      0x04\n      dup1\n      calldatasize\n      sub\n      dup2\n      add\n      swap1\n      tag_99\n      swap2\n      swap1\n      tag_100\n      jump\t// in\n    tag_99:\n      tag_101\n      jump\t// in\n    tag_98:\n      stop\n        /* \"worldcup/GameForecast.sol\":2538:2638  function getGameResultThird() public view returns (uint8) {... */\n    tag_21:\n      tag_102\n      tag_103\n      jump\t// in\n    tag_102:\n      mload(0x40)\n      tag_104\n      swap2\n      swap1\n      tag_32\n      jump\t// in\n    tag_104:\n      mload(0x40)\n      dup1\n      swap2\n      sub\n      swap1\n      return\n        /* \"worldcup/GameForecast.sol\":289:312  uint8[16] public team16 */\n    tag_22:\n      tag_105\n      0x04\n      dup1\n      calldatasize\n      sub\n      dup2\n      add\n      swap1\n      tag_106\n      swap2\n      swap1\n      tag_107\n      jump\t// in\n    tag_106:\n      tag_108\n      jump\t// in\n    tag_105:\n      mload(0x40)\n      tag_109\n      swap2\n      swap1\n      tag_32\n      jump\t// in\n    tag_109:\n      mload(0x40)\n      dup1\n      swap2\n      sub\n      swap1\n      return\n        /* \"worldcup/GameForecast.sol\":2310:2422  function getGameResultTeams2() public view returns (uint8[2] memory) {... */\n    tag_23:\n      tag_110\n      tag_111\n      jump\t// in\n    tag_110:\n      mload(0x40)\n      tag_112\n      swap2\n      swap1\n      tag_113\n      jump\t// in\n    tag_112:\n      mload(0x40)\n      dup1\n      swap2\n      sub\n      swap1\n      return\n        /* \"worldcup/Adminable.sol\":1236:1437  function transferOwnership(address newOwner) public virtual onlyOwner {... */\n    tag_24:\n      tag_114\n      0x04\n      dup1\n      calldatasize\n      sub\n      dup2\n      add\n      swap1\n      tag_115\n      swap2\n      swap1\n      tag_39\n      jump\t// in\n    tag_115:\n      tag_116\n      jump\t// in\n    tag_114:\n      stop\n        /* \"worldcup/GameForecast.sol\":779:1450  function openForecast(uint8[8] calldata _teams8, uint8[4] calldata _teams4, uint8[2] calldata _teams2, uint8 _first, uint8 _third) public onlyAdmin {... */\n    tag_25:\n      tag_117\n      0x04\n      dup1\n      calldatasize\n      sub\n      dup2\n      add\n      swap1\n      tag_118\n      swap2\n      swap1\n      tag_77\n      jump\t// in\n    tag_118:\n      tag_119\n      jump\t// in\n    tag_117:\n      stop\n        /* \"worldcup/GameForecast.sol\":2430:2530  function getGameResultFirst() public view returns (uint8) {... */\n    tag_30:\n        /* \"worldcup/GameForecast.sol\":2481:2486  uint8 */\n      0x00\n        /* \"worldcup/GameForecast.sol\":2506:2516  gameResult */\n      0x07\n        /* \"worldcup/GameForecast.sol\":2506:2522  gameResult.first */\n      0x03\n      add\n      0x00\n      swap1\n      sload\n      swap1\n      0x0100\n      exp\n      swap1\n      div\n      0xff\n      and\n        /* \"worldcup/GameForecast.sol\":2499:2522  return gameResult.first */\n      swap1\n      pop\n        /* \"worldcup/GameForecast.sol\":2430:2530  function getGameResultFirst() public view returns (uint8) {... */\n      swap1\n      jump\t// out\n        /* \"worldcup/Adminable.sol\":1644:1828  function modificationAdmin(address admin, bool state) public virtual onlyOwner {... */\n    tag_36:\n        /* \"worldcup/Adminable.sol\":704:716  _msgSender() */\n      tag_122\n        /* \"worldcup/Adminable.sol\":704:714  _msgSender */\n      tag_123\n        /* \"worldcup/Adminable.sol\":704:716  _msgSender() */\n      jump\t// in\n    tag_122:\n        /* \"worldcup/Adminable.sol\":693:716  owner() == _msgSender() */\n      0xffffffffffffffffffffffffffffffffffffffff\n      and\n        /* \"worldcup/Adminable.sol\":693:700  owner() */\n      tag_124\n        /* \"worldcup/Adminable.sol\":693:698  owner */\n      tag_73\n        /* \"worldcup/Adminable.sol\":693:700  owner() */\n      jump\t// in\n    tag_124:\n        /* \"worldcup/Adminable.sol\":693:716  owner() == _msgSender() */\n      0xffffffffffffffffffffffffffffffffffffffff\n      and\n      eq\n        /* \"worldcup/Adminable.sol\":685:755  require(owner() == _msgSender(), \"Adminable: caller is not the owner\") */\n      tag_125\n      jumpi\n      mload(0x40)\n      0x08c379a000000000000000000000000000000000000000000000000000000000\n      dup2\n      mstore\n      0x04\n      add\n      tag_126\n      swap1\n      tag_127\n      jump\t// in\n    tag_126:\n      mload(0x40)\n      dup1\n      swap2\n      sub\n      swap1\n      revert\n    tag_125:\n        /* \"worldcup/Adminable.sol\":1757:1762  admin */\n      dup2\n        /* \"worldcup/Adminable.sol\":1739:1787  ModificationAdmin(admin,  _admins[admin], state) */\n      0xffffffffffffffffffffffffffffffffffffffff\n      and\n      0x82f1fa40a3d82dea3e406073819290601f436580aa7c69f9feb61f885bdd8854\n        /* \"worldcup/Adminable.sol\":1765:1772  _admins */\n      0x00\n        /* \"worldcup/Adminable.sol\":1765:1779  _admins[admin] */\n      dup1\n        /* \"worldcup/Adminable.sol\":1773:1778  admin */\n      dup6\n        /* \"worldcup/Adminable.sol\":1765:1779  _admins[admin] */\n      0xffffffffffffffffffffffffffffffffffffffff\n      and\n      0xffffffffffffffffffffffffffffffffffffffff\n      and\n      dup2\n      mstore\n      0x20\n      add\n      swap1\n      dup2\n      mstore\n      0x20\n      add\n      0x00\n      keccak256\n      0x00\n      swap1\n      sload\n      swap1\n      0x0100\n      exp\n      swap1\n      div\n      0xff\n      and\n        /* \"worldcup/Adminable.sol\":1781:1786  state */\n      dup4\n        /* \"worldcup/Adminable.sol\":1739:1787  ModificationAdmin(admin,  _admins[admin], state) */\n      mload(0x40)\n      tag_129\n      swap3\n      swap2\n      swap1\n      tag_130\n      jump\t// in\n    tag_129:\n      mload(0x40)\n      dup1\n      swap2\n      sub\n      swap1\n      log2\n        /* \"worldcup/Adminable.sol\":1815:1820  state */\n      dup1\n        /* \"worldcup/Adminable.sol\":1798:1805  _admins */\n      0x00\n        /* \"worldcup/Adminable.sol\":1798:1812  _admins[admin] */\n      dup1\n        /* \"worldcup/Adminable.sol\":1806:1811  admin */\n      dup5\n        /* \"worldcup/Adminable.sol\":1798:1812  _admins[admin] */\n      0xffffffffffffffffffffffffffffffffffffffff\n      and\n      0xffffffffffffffffffffffffffffffffffffffff\n      and\n      dup2\n      mstore\n      0x20\n      add\n      swap1\n      dup2\n      mstore\n      0x20\n      add\n      0x00\n      keccak256\n      0x00\n        /* \"worldcup/Adminable.sol\":1798:1820  _admins[admin] = state */\n      0x0100\n      exp\n      dup2\n      sload\n      dup2\n      0xff\n      mul\n      not\n      and\n      swap1\n      dup4\n      iszero\n      iszero\n      mul\n      or\n      swap1\n      sstore\n      pop\n        /* \"worldcup/Adminable.sol\":1644:1828  function modificationAdmin(address admin, bool state) public virtual onlyOwner {... */\n      pop\n      pop\n      jump\t// out\n        /* \"worldcup/Adminable.sol\":1006:1117  function isAdmin(address account) public view virtual returns (bool) {... */\n    tag_40:\n        /* \"worldcup/Adminable.sol\":1069:1073  bool */\n      0x00\n        /* \"worldcup/Adminable.sol\":1093:1100  _admins */\n      dup1\n        /* \"worldcup/Adminable.sol\":1093:1109  _admins[account] */\n      0x00\n        /* \"worldcup/Adminable.sol\":1101:1108  account */\n      dup4\n        /* \"worldcup/Adminable.sol\":1093:1109  _admins[account] */\n      0xffffffffffffffffffffffffffffffffffffffff\n      and\n      0xffffffffffffffffffffffffffffffffffffffff\n      and\n      dup2\n      mstore\n      0x20\n      add\n      swap1\n      dup2\n      mstore\n      0x20\n      add\n      0x00\n      keccak256\n      0x00\n      swap1\n      sload\n      swap1\n      0x0100\n      exp\n      swap1\n      div\n      0xff\n      and\n        /* \"worldcup/Adminable.sol\":1086:1109  return _admins[account] */\n      swap1\n      pop\n        /* \"worldcup/Adminable.sol\":1006:1117  function isAdmin(address account) public view virtual returns (bool) {... */\n      swap2\n      swap1\n      pop\n      jump\t// out\n        /* \"worldcup/GameForecast.sol\":353:406  mapping(address => uint16) public userForecastNumbers */\n    tag_45:\n      mstore(0x20, 0x05)\n      dup1\n      0x00\n      mstore\n      keccak256(0x00, 0x40)\n      0x00\n      swap2\n      pop\n      sload\n      swap1\n      0x0100\n      exp\n      swap1\n      div\n      0xffff\n      and\n      dup2\n      jump\t// out\n        /* \"worldcup/GameForecast.sol\":2190:2302  function getGameResultTeams4() public view returns (uint8[4] memory) {... */\n    tag_49:\n        /* \"worldcup/GameForecast.sol\":2242:2257  uint8[4] memory */\n      tag_132\n      tag_133\n      jump\t// in\n    tag_132:\n        /* \"worldcup/GameForecast.sol\":2277:2287  gameResult */\n      0x07\n        /* \"worldcup/GameForecast.sol\":2277:2294  gameResult.teams4 */\n      0x01\n      add\n        /* \"worldcup/GameForecast.sol\":2270:2294  return gameResult.teams4 */\n      0x04\n      dup1\n      0x20\n      mul\n      mload(0x40)\n      swap1\n      dup2\n      add\n      0x40\n      mstore\n      dup1\n      swap3\n      swap2\n      swap1\n      dup3\n      0x04\n      dup1\n      iszero\n      tag_135\n      jumpi\n      0x20\n      mul\n      dup3\n      add\n      swap2\n      0x00\n      swap1\n    tag_136:\n      dup3\n      dup3\n      swap1\n      sload\n      swap1\n      0x0100\n      exp\n      swap1\n      div\n      0xff\n      and\n      0xff\n      and\n      dup2\n      mstore\n      0x20\n      add\n      swap1\n      0x01\n      add\n      swap1\n      0x20\n      dup3\n      0x00\n      add\n      div\n      swap3\n      dup4\n      add\n      swap3\n      0x01\n      sub\n      dup3\n      mul\n      swap2\n      pop\n      dup1\n      dup5\n      gt\n      tag_136\n      jumpi\n      swap1\n      pop\n    tag_135:\n      pop\n      pop\n      pop\n      pop\n      pop\n      swap1\n      pop\n        /* \"worldcup/GameForecast.sol\":2190:2302  function getGameResultTeams4() public view returns (uint8[4] memory) {... */\n      swap1\n      jump\t// out\n        /* \"worldcup/GameForecast.sol\":101:122  address public cupNft */\n    tag_53:\n      0x02\n      0x00\n      swap1\n      sload\n      swap1\n      0x0100\n      exp\n      swap1\n      div\n      0xffffffffffffffffffffffffffffffffffffffff\n      and\n      dup2\n      jump\t// out\n        /* \"worldcup/GameForecast.sol\":2755:2860  function getUserForecastRewards(address user, uint16 forecastId) public view returns (uint256) {... */\n    tag_59:\n        /* \"worldcup/GameForecast.sol\":2841:2848  uint256 */\n      0x00\n        /* \"worldcup/GameForecast.sol\":2755:2860  function getUserForecastRewards(address user, uint16 forecastId) public view returns (uint256) {... */\n      swap3\n      swap2\n      pop\n      pop\n      jump\t// out\n        /* \"worldcup/Adminable.sol\":1125:1228  function renounceOwnership() public virtual onlyOwner {... */\n    tag_63:\n        /* \"worldcup/Adminable.sol\":704:716  _msgSender() */\n      tag_139\n        /* \"worldcup/Adminable.sol\":704:714  _msgSender */\n      tag_123\n        /* \"worldcup/Adminable.sol\":704:716  _msgSender() */\n      jump\t// in\n    tag_139:\n        /* \"worldcup/Adminable.sol\":693:716  owner() == _msgSender() */\n      0xffffffffffffffffffffffffffffffffffffffff\n      and\n        /* \"worldcup/Adminable.sol\":693:700  owner() */\n      tag_140\n        /* \"worldcup/Adminable.sol\":693:698  owner */\n      tag_73\n        /* \"worldcup/Adminable.sol\":693:700  owner() */\n      jump\t// in\n    tag_140:\n        /* \"worldcup/Adminable.sol\":693:716  owner() == _msgSender() */\n      0xffffffffffffffffffffffffffffffffffffffff\n      and\n      eq\n        /* \"worldcup/Adminable.sol\":685:755  require(owner() == _msgSender(), \"Adminable: caller is not the owner\") */\n      tag_141\n      jumpi\n      mload(0x40)\n      0x08c379a000000000000000000000000000000000000000000000000000000000\n      dup2\n      mstore\n      0x04\n      add\n      tag_142\n      swap1\n      tag_127\n      jump\t// in\n    tag_142:\n      mload(0x40)\n      dup1\n      swap2\n      sub\n      swap1\n      revert\n    tag_141:\n        /* \"worldcup/Adminable.sol\":1190:1220  _transferOwnership(address(0)) */\n      tag_144\n        /* \"worldcup/Adminable.sol\":1217:1218  0 */\n      0x00\n        /* \"worldcup/Adminable.sol\":1190:1208  _transferOwnership */\n      tag_145\n        /* \"worldcup/Adminable.sol\":1190:1220  _transferOwnership(address(0)) */\n      jump\t// in\n    tag_144:\n        /* \"worldcup/Adminable.sol\":1125:1228  function renounceOwnership() public virtual onlyOwner {... */\n      jump\t// out\n        /* \"worldcup/GameForecast.sol\":491:517  TeamInfo public gameResult */\n    tag_65:\n      0x07\n      dup1\n      0x03\n      add\n      0x00\n      swap1\n      sload\n      swap1\n      0x0100\n      exp\n      swap1\n      div\n      0xff\n      and\n      swap1\n      dup1\n      0x03\n      add\n      0x01\n      swap1\n      sload\n      swap1\n      0x0100\n      exp\n      swap1\n      div\n      0xff\n      and\n      swap1\n      pop\n      dup3\n      jump\t// out\n        /* \"worldcup/GameForecast.sol\":2646:2745  function getTeam16Tokenid() public view returns (uint8[16] memory) {... */\n    tag_69:\n        /* \"worldcup/GameForecast.sol\":2695:2711  uint8[16] memory */\n      tag_146\n      tag_147\n      jump\t// in\n    tag_146:\n        /* \"worldcup/GameForecast.sol\":2731:2737  team16 */\n      0x03\n        /* \"worldcup/GameForecast.sol\":2724:2737  return team16 */\n      0x10\n      dup1\n      0x20\n      mul\n      mload(0x40)\n      swap1\n      dup2\n      add\n      0x40\n      mstore\n      dup1\n      swap3\n      swap2\n      swap1\n      dup3\n      0x10\n      dup1\n      iszero\n      tag_149\n      jumpi\n      0x20\n      mul\n      dup3\n      add\n      swap2\n      0x00\n      swap1\n    tag_150:\n      dup3\n      dup3\n      swap1\n      sload\n      swap1\n      0x0100\n      exp\n      swap1\n      div\n      0xff\n      and\n      0xff\n      and\n      dup2\n      mstore\n      0x20\n      add\n      swap1\n      0x01\n      add\n      swap1\n      0x20\n      dup3\n      0x00\n      add\n      div\n      swap3\n      dup4\n      add\n      swap3\n      0x01\n      sub\n      dup3\n      mul\n      swap2\n      pop\n      dup1\n      dup5\n      gt\n      tag_150\n      jumpi\n      swap1\n      pop\n    tag_149:\n      pop\n      pop\n      pop\n      pop\n      pop\n      swap1\n      pop\n        /* \"worldcup/GameForecast.sol\":2646:2745  function getTeam16Tokenid() public view returns (uint8[16] memory) {... */\n      swap1\n      jump\t// out\n        /* \"worldcup/Adminable.sol\":911:998  function owner() public view virtual returns (address) {... */\n    tag_73:\n        /* \"worldcup/Adminable.sol\":957:964  address */\n      0x00\n        /* \"worldcup/Adminable.sol\":984:990  _owner */\n      0x01\n      0x00\n      swap1\n      sload\n      swap1\n      0x0100\n      exp\n      swap1\n      div\n      0xffffffffffffffffffffffffffffffffffffffff\n      and\n        /* \"worldcup/Adminable.sol\":977:990  return _owner */\n      swap1\n      pop\n        /* \"worldcup/Adminable.sol\":911:998  function owner() public view virtual returns (address) {... */\n      swap1\n      jump\t// out\n        /* \"worldcup/GameForecast.sol\":1460:2062  function enterForecast(uint8[8] calldata _teams8, uint8[4] calldata _teams4, uint8[2] calldata _teams2, uint8 _first, uint8 _third) public {... */\n    tag_78:\n        /* \"worldcup/GameForecast.sol\":1610:1625  address account */\n      0x00\n        /* \"worldcup/GameForecast.sol\":1628:1638  msg.sender */\n      caller\n        /* \"worldcup/GameForecast.sol\":1610:1638  address account = msg.sender */\n      swap1\n      pop\n        /* \"worldcup/GameForecast.sol\":1649:1663  uint16 numbers */\n      0x00\n        /* \"worldcup/GameForecast.sol\":1666:1685  userForecastNumbers */\n      0x05\n        /* \"worldcup/GameForecast.sol\":1666:1694  userForecastNumbers[account] */\n      0x00\n        /* \"worldcup/GameForecast.sol\":1686:1693  account */\n      dup4\n        /* \"worldcup/GameForecast.sol\":1666:1694  userForecastNumbers[account] */\n      0xffffffffffffffffffffffffffffffffffffffff\n      and\n      0xffffffffffffffffffffffffffffffffffffffff\n      and\n      dup2\n      mstore\n      0x20\n      add\n      swap1\n      dup2\n      mstore\n      0x20\n      add\n      0x00\n      keccak256\n      0x00\n      swap1\n      sload\n      swap1\n      0x0100\n      exp\n      swap1\n      div\n      0xffff\n      and\n        /* \"worldcup/GameForecast.sol\":1649:1694  uint16 numbers = userForecastNumbers[account] */\n      swap1\n      pop\n        /* \"worldcup/GameForecast.sol\":1725:1726  1 */\n      0x01\n        /* \"worldcup/GameForecast.sol\":1715:1722  numbers */\n      dup2\n        /* \"worldcup/GameForecast.sol\":1715:1726  numbers + 1 */\n      tag_153\n      swap2\n      swap1\n      tag_154\n      jump\t// in\n    tag_153:\n        /* \"worldcup/GameForecast.sol\":1705:1726  numbers = numbers + 1 */\n      swap1\n      pop\n        /* \"worldcup/GameForecast.sol\":1737:1757  TeamInfo memory info */\n      0x00\n        /* \"worldcup/GameForecast.sol\":1760:1776  userForecastInfo */\n      0x06\n        /* \"worldcup/GameForecast.sol\":1760:1788  userForecastInfo[msg.sender] */\n      0x00\n        /* \"worldcup/GameForecast.sol\":1777:1787  msg.sender */\n      caller\n        /* \"worldcup/GameForecast.sol\":1760:1788  userForecastInfo[msg.sender] */\n      0xffffffffffffffffffffffffffffffffffffffff\n      and\n      0xffffffffffffffffffffffffffffffffffffffff\n      and\n      dup2\n      mstore\n      0x20\n      add\n      swap1\n      dup2\n      mstore\n      0x20\n      add\n      0x00\n      keccak256\n        /* \"worldcup/GameForecast.sol\":1760:1797  userForecastInfo[msg.sender][numbers] */\n      0x00\n        /* \"worldcup/GameForecast.sol\":1789:1796  numbers */\n      dup4\n        /* \"worldcup/GameForecast.sol\":1760:1797  userForecastInfo[msg.sender][numbers] */\n      0xffff\n      and\n      0xffff\n      and\n      dup2\n      mstore\n      0x20\n      add\n      swap1\n      dup2\n      mstore\n      0x20\n      add\n      0x00\n      keccak256\n        /* \"worldcup/GameForecast.sol\":1737:1797  TeamInfo memory info = userForecastInfo[msg.sender][numbers] */\n      mload(0x40)\n      dup1\n      0xa0\n      add\n      0x40\n      mstore\n      swap1\n      dup2\n      0x00\n      dup3\n      add\n      0x08\n      dup1\n      0x20\n      mul\n      mload(0x40)\n      swap1\n      dup2\n      add\n      0x40\n      mstore\n      dup1\n      swap3\n      swap2\n      swap1\n      dup3\n      0x08\n      dup1\n      iszero\n      tag_155\n      jumpi\n      0x20\n      mul\n      dup3\n      add\n      swap2\n      0x00\n      swap1\n    tag_156:\n      dup3\n      dup3\n      swap1\n      sload\n      swap1\n      0x0100\n      exp\n      swap1\n      div\n      0xff\n      and\n      0xff\n      and\n      dup2\n      mstore\n      0x20\n      add\n      swap1\n      0x01\n      add\n      swap1\n      0x20\n      dup3\n      0x00\n      add\n      div\n      swap3\n      dup4\n      add\n      swap3\n      0x01\n      sub\n      dup3\n      mul\n      swap2\n      pop\n      dup1\n      dup5\n      gt\n      tag_156\n      jumpi\n      swap1\n      pop\n    tag_155:\n      pop\n      pop\n      pop\n      pop\n      pop\n      dup2\n      mstore\n      0x20\n      add\n      0x01\n      dup3\n      add\n      0x04\n      dup1\n      0x20\n      mul\n      mload(0x40)\n      swap1\n      dup2\n      add\n      0x40\n      mstore\n      dup1\n      swap3\n      swap2\n      swap1\n      dup3\n      0x04\n      dup1\n      iszero\n      tag_157\n      jumpi\n      0x20\n      mul\n      dup3\n      add\n      swap2\n      0x00\n      swap1\n    tag_158:\n      dup3\n      dup3\n      swap1\n      sload\n      swap1\n      0x0100\n      exp\n      swap1\n      div\n      0xff\n      and\n      0xff\n      and\n      dup2\n      mstore\n      0x20\n      add\n      swap1\n      0x01\n      add\n      swap1\n      0x20\n      dup3\n      0x00\n      add\n      div\n      swap3\n      dup4\n      add\n      swap3\n      0x01\n      sub\n      dup3\n      mul\n      swap2\n      pop\n      dup1\n      dup5\n      gt\n      tag_158\n      jumpi\n      swap1\n      pop\n    tag_157:\n      pop\n      pop\n      pop\n      pop\n      pop\n      dup2\n      mstore\n      0x20\n      add\n      0x02\n      dup3\n      add\n      0x02\n      dup1\n      0x20\n      mul\n      mload(0x40)\n      swap1\n      dup2\n      add\n      0x40\n      mstore\n      dup1\n      swap3\n      swap2\n      swap1\n      dup3\n      0x02\n      dup1\n      iszero\n      tag_159\n      jumpi\n      0x20\n      mul\n      dup3\n      add\n      swap2\n      0x00\n      swap1\n    tag_160:\n      dup3\n      dup3\n      swap1\n      sload\n      swap1\n      0x0100\n      exp\n      swap1\n      div\n      0xff\n      and\n      0xff\n      and\n      dup2\n      mstore\n      0x20\n      add\n      swap1\n      0x01\n      add\n      swap1\n      0x20\n      dup3\n      0x00\n      add\n      div\n      swap3\n      dup4\n      add\n      swap3\n      0x01\n      sub\n      dup3\n      mul\n      swap2\n      pop\n      dup1\n      dup5\n      gt\n      tag_160\n      jumpi\n      swap1\n      pop\n    tag_159:\n      pop\n      pop\n      pop\n      pop\n      pop\n      dup2\n      mstore\n      0x20\n      add\n      0x03\n      dup3\n      add\n      0x00\n      swap1\n      sload\n      swap1\n      0x0100\n      exp\n      swap1\n      div\n      0xff\n      and\n      0xff\n      and\n      0xff\n      and\n      dup2\n      mstore\n      0x20\n      add\n      0x03\n      dup3\n      add\n      0x01\n      swap1\n      sload\n      swap1\n      0x0100\n      exp\n      swap1\n      div\n      0xff\n      and\n      0xff\n      and\n      0xff\n      and\n      dup2\n      mstore\n      pop\n      pop\n      swap1\n      pop\n        /* \"worldcup/GameForecast.sol\":1822:1829  _teams8 */\n      dup8\n        /* \"worldcup/GameForecast.sol\":1808:1829  info.teams8 = _teams8 */\n      0x08\n      dup1\n      0x20\n      mul\n      mload(0x40)\n      swap1\n      dup2\n      add\n      0x40\n      mstore\n      dup1\n      swap3\n      swap2\n      swap1\n      dup3\n      mul(0x20, 0x08)\n      dup1\n      dup3\n      dup5\n      calldatacopy\n      0x00\n      dup2\n      dup5\n      add\n      mstore\n      not(0x1f)\n      0x1f\n      dup3\n      add\n      and\n      swap1\n      pop\n      dup1\n      dup4\n      add\n      swap3\n      pop\n      pop\n      pop\n      pop\n      pop\n      pop\n        /* \"worldcup/GameForecast.sol\":1808:1812  info */\n      dup2\n        /* \"worldcup/GameForecast.sol\":1808:1819  info.teams8 */\n      0x00\n      add\n        /* \"worldcup/GameForecast.sol\":1808:1829  info.teams8 = _teams8 */\n      dup2\n      swap1\n      mstore\n      pop\n        /* \"worldcup/GameForecast.sol\":1854:1861  _teams4 */\n      dup7\n        /* \"worldcup/GameForecast.sol\":1840:1861  info.teams4 = _teams4 */\n      0x04\n      dup1\n      0x20\n      mul\n      mload(0x40)\n      swap1\n      dup2\n      add\n      0x40\n      mstore\n      dup1\n      swap3\n      swap2\n      swap1\n      dup3\n      mul(0x20, 0x04)\n      dup1\n      dup3\n      dup5\n      calldatacopy\n      0x00\n      dup2\n      dup5\n      add\n      mstore\n      not(0x1f)\n      0x1f\n      dup3\n      add\n      and\n      swap1\n      pop\n      dup1\n      dup4\n      add\n      swap3\n      pop\n      pop\n      pop\n      pop\n      pop\n      pop\n        /* \"worldcup/GameForecast.sol\":1840:1844  info */\n      dup2\n        /* \"worldcup/GameForecast.sol\":1840:1851  info.teams4 */\n      0x20\n      add\n        /* \"worldcup/GameForecast.sol\":1840:1861  info.teams4 = _teams4 */\n      dup2\n      swap1\n      mstore\n      pop\n        /* \"worldcup/GameForecast.sol\":1886:1893  _teams2 */\n      dup6\n        /* \"worldcup/GameForecast.sol\":1872:1893  info.teams2 = _teams2 */\n      0x02\n      dup1\n      0x20\n      mul\n      mload(0x40)\n      swap1\n      dup2\n      add\n      0x40\n      mstore\n      dup1\n      swap3\n      swap2\n      swap1\n      dup3\n      mul(0x20, 0x02)\n      dup1\n      dup3\n      dup5\n      calldatacopy\n      0x00\n      dup2\n      dup5\n      add\n      mstore\n      not(0x1f)\n      0x1f\n      dup3\n      add\n      and\n      swap1\n      pop\n      dup1\n      dup4\n      add\n      swap3\n      pop\n      pop\n      pop\n      pop\n      pop\n      pop\n        /* \"worldcup/GameForecast.sol\":1872:1876  info */\n      dup2\n        /* \"worldcup/GameForecast.sol\":1872:1883  info.teams2 */\n      0x40\n      add\n        /* \"worldcup/GameForecast.sol\":1872:1893  info.teams2 = _teams2 */\n      dup2\n      swap1\n      mstore\n      pop\n        /* \"worldcup/GameForecast.sol\":1917:1923  _first */\n      dup5\n        /* \"worldcup/GameForecast.sol\":1904:1908  info */\n      dup2\n        /* \"worldcup/GameForecast.sol\":1904:1914  info.first */\n      0x60\n      add\n        /* \"worldcup/GameForecast.sol\":1904:1923  info.first = _first */\n      swap1\n      0xff\n      and\n      swap1\n      dup2\n      0xff\n      and\n      dup2\n      mstore\n      pop\n      pop\n        /* \"worldcup/GameForecast.sol\":1947:1953  _third */\n      dup4\n        /* \"worldcup/GameForecast.sol\":1934:1938  info */\n      dup2\n        /* \"worldcup/GameForecast.sol\":1934:1944  info.third */\n      0x80\n      add\n        /* \"worldcup/GameForecast.sol\":1934:1953  info.third = _third */\n      swap1\n      0xff\n      and\n      swap1\n      dup2\n      0xff\n      and\n      dup2\n      mstore\n      pop\n      pop\n        /* \"worldcup/GameForecast.sol\":2001:2005  info */\n      dup1\n        /* \"worldcup/GameForecast.sol\":1964:1980  userForecastInfo */\n      0x06\n        /* \"worldcup/GameForecast.sol\":1964:1989  userForecastInfo[account] */\n      0x00\n        /* \"worldcup/GameForecast.sol\":1981:1988  account */\n      dup6\n        /* \"worldcup/GameForecast.sol\":1964:1989  userForecastInfo[account] */\n      0xffffffffffffffffffffffffffffffffffffffff\n      and\n      0xffffffffffffffffffffffffffffffffffffffff\n      and\n      dup2\n      mstore\n      0x20\n      add\n      swap1\n      dup2\n      mstore\n      0x20\n      add\n      0x00\n      keccak256\n        /* \"worldcup/GameForecast.sol\":1964:1998  userForecastInfo[account][numbers] */\n      0x00\n        /* \"worldcup/GameForecast.sol\":1990:1997  numbers */\n      dup5\n        /* \"worldcup/GameForecast.sol\":1964:1998  userForecastInfo[account][numbers] */\n      0xffff\n      and\n      0xffff\n      and\n      dup2\n      mstore\n      0x20\n      add\n      swap1\n      dup2\n      mstore\n      0x20\n      add\n      0x00\n      keccak256\n        /* \"worldcup/GameForecast.sol\":1964:2005  userForecastInfo[account][numbers] = info */\n      0x00\n      dup3\n      add\n      mload\n      dup2\n      0x00\n      add\n      swap1\n      0x08\n      tag_161\n      swap3\n      swap2\n      swap1\n      tag_162\n      jump\t// in\n    tag_161:\n      pop\n      0x20\n      dup3\n      add\n      mload\n      dup2\n      0x01\n      add\n      swap1\n      0x04\n      tag_163\n      swap3\n      swap2\n      swap1\n      tag_164\n      jump\t// in\n    tag_163:\n      pop\n      0x40\n      dup3\n      add\n      mload\n      dup2\n      0x02\n      add\n      swap1\n      0x02\n      tag_165\n      swap3\n      swap2\n      swap1\n      tag_166\n      jump\t// in\n    tag_165:\n      pop\n      0x60\n      dup3\n      add\n      mload\n      dup2\n      0x03\n      add\n      exp(0x0100, 0x00)\n      dup2\n      sload\n      dup2\n      0xff\n      mul\n      not\n      and\n      swap1\n      dup4\n      0xff\n      and\n      mul\n      or\n      swap1\n      sstore\n      pop\n      0x80\n      dup3\n      add\n      mload\n      dup2\n      0x03\n      add\n      exp(0x0100, 0x01)\n      dup2\n      sload\n      dup2\n      0xff\n      mul\n      not\n      and\n      swap1\n      dup4\n      0xff\n      and\n      mul\n      or\n      swap1\n      sstore\n      pop\n      swap1\n      pop\n      pop\n        /* \"worldcup/GameForecast.sol\":2047:2054  numbers */\n      dup2\n        /* \"worldcup/GameForecast.sol\":2016:2035  userForecastNumbers */\n      0x05\n        /* \"worldcup/GameForecast.sol\":2016:2044  userForecastNumbers[account] */\n      0x00\n        /* \"worldcup/GameForecast.sol\":2036:2043  account */\n      dup6\n        /* \"worldcup/GameForecast.sol\":2016:2044  userForecastNumbers[account] */\n      0xffffffffffffffffffffffffffffffffffffffff\n      and\n      0xffffffffffffffffffffffffffffffffffffffff\n      and\n      dup2\n      mstore\n      0x20\n      add\n      swap1\n      dup2\n      mstore\n      0x20\n      add\n      0x00\n      keccak256\n      0x00\n        /* \"worldcup/GameForecast.sol\":2016:2054  userForecastNumbers[account] = numbers */\n      0x0100\n      exp\n      dup2\n      sload\n      dup2\n      0xffff\n      mul\n      not\n      and\n      swap1\n      dup4\n      0xffff\n      and\n      mul\n      or\n      swap1\n      sstore\n      pop\n        /* \"worldcup/GameForecast.sol\":1599:2062  {... */\n      pop\n      pop\n      pop\n        /* \"worldcup/GameForecast.sol\":1460:2062  function enterForecast(uint8[8] calldata _teams8, uint8[4] calldata _teams4, uint8[2] calldata _teams2, uint8 _first, uint8 _third) public {... */\n      pop\n      pop\n      pop\n      pop\n      pop\n      jump\t// out\n        /* \"worldcup/GameForecast.sol\":2070:2182  function getGameResultTeams8() public view returns (uint8[8] memory) {... */\n    tag_80:\n        /* \"worldcup/GameForecast.sol\":2122:2137  uint8[8] memory */\n      tag_167\n      tag_168\n      jump\t// in\n    tag_167:\n        /* \"worldcup/GameForecast.sol\":2157:2167  gameResult */\n      0x07\n        /* \"worldcup/GameForecast.sol\":2157:2174  gameResult.teams8 */\n      0x00\n      add\n        /* \"worldcup/GameForecast.sol\":2150:2174  return gameResult.teams8 */\n      0x08\n      dup1\n      0x20\n      mul\n      mload(0x40)\n      swap1\n      dup2\n      add\n      0x40\n      mstore\n      dup1\n      swap3\n      swap2\n      swap1\n      dup3\n      0x08\n      dup1\n      iszero\n      tag_170\n      jumpi\n      0x20\n      mul\n      dup3\n      add\n      swap2\n      0x00\n      swap1\n    tag_171:\n      dup3\n      dup3\n      swap1\n      sload\n      swap1\n      0x0100\n      exp\n      swap1\n      div\n      0xff\n      and\n      0xff\n      and\n      dup2\n      mstore\n      0x20\n      add\n      swap1\n      0x01\n      add\n      swap1\n      0x20\n      dup3\n      0x00\n      add\n      div\n      swap3\n      dup4\n      add\n      swap3\n      0x01\n      sub\n      dup3\n      mul\n      swap2\n      pop\n      dup1\n      dup5\n      gt\n      tag_171\n      jumpi\n      swap1\n      pop\n    tag_170:\n      pop\n      pop\n      pop\n      pop\n      pop\n      swap1\n      pop\n        /* \"worldcup/GameForecast.sol\":2070:2182  function getGameResultTeams8() public view returns (uint8[8] memory) {... */\n      swap1\n      jump\t// out\n        /* \"worldcup/GameForecast.sol\":526:771  function setTeam16Tokenid(uint8[16] calldata _teams16) public onlyAdmin {... */\n    tag_86:\n        /* \"worldcup/Adminable.sol\":823:844  isAdmin(_msgSender()) */\n      tag_173\n        /* \"worldcup/Adminable.sol\":831:843  _msgSender() */\n      tag_174\n        /* \"worldcup/Adminable.sol\":831:841  _msgSender */\n      tag_123\n        /* \"worldcup/Adminable.sol\":831:843  _msgSender() */\n      jump\t// in\n    tag_174:\n        /* \"worldcup/Adminable.sol\":823:830  isAdmin */\n      tag_40\n        /* \"worldcup/Adminable.sol\":823:844  isAdmin(_msgSender()) */\n      jump\t// in\n    tag_173:\n        /* \"worldcup/Adminable.sol\":815:883  require(isAdmin(_msgSender()), \"Adminable: caller is not the admin\") */\n      tag_175\n      jumpi\n      mload(0x40)\n      0x08c379a000000000000000000000000000000000000000000000000000000000\n      dup2\n      mstore\n      0x04\n      add\n      tag_176\n      swap1\n      tag_177\n      jump\t// in\n    tag_176:\n      mload(0x40)\n      dup1\n      swap2\n      sub\n      swap1\n      revert\n    tag_175:\n        /* \"worldcup/GameForecast.sol\":609:637  uint8[16] memory _tmpTeams16 */\n      tag_179\n      tag_147\n      jump\t// in\n    tag_179:\n        /* \"worldcup/GameForecast.sol\":652:659  uint8 i */\n      0x00\n        /* \"worldcup/GameForecast.sol\":648:733  for(uint8 i = 0; i < 16; ++i) {... */\n    tag_180:\n        /* \"worldcup/GameForecast.sol\":669:671  16 */\n      0x10\n        /* \"worldcup/GameForecast.sol\":665:666  i */\n      dup2\n        /* \"worldcup/GameForecast.sol\":665:671  i < 16 */\n      0xff\n      and\n      lt\n        /* \"worldcup/GameForecast.sol\":648:733  for(uint8 i = 0; i < 16; ++i) {... */\n      iszero\n      tag_181\n      jumpi\n        /* \"worldcup/GameForecast.sol\":710:718  _teams16 */\n      dup3\n        /* \"worldcup/GameForecast.sol\":719:720  i */\n      dup2\n        /* \"worldcup/GameForecast.sol\":710:721  _teams16[i] */\n      0xff\n      and\n      0x10\n      dup2\n      lt\n      tag_183\n      jumpi\n      tag_184\n      tag_185\n      jump\t// in\n    tag_184:\n    tag_183:\n      0x20\n      mul\n      add\n      0x20\n      dup2\n      add\n      swap1\n      tag_186\n      swap2\n      swap1\n      tag_187\n      jump\t// in\n    tag_186:\n        /* \"worldcup/GameForecast.sol\":693:704  _tmpTeams16 */\n      dup3\n        /* \"worldcup/GameForecast.sol\":705:706  i */\n      dup3\n        /* \"worldcup/GameForecast.sol\":693:707  _tmpTeams16[i] */\n      0xff\n      and\n      0x10\n      dup2\n      lt\n      tag_188\n      jumpi\n      tag_189\n      tag_185\n      jump\t// in\n    tag_189:\n    tag_188:\n      0x20\n      mul\n      add\n        /* \"worldcup/GameForecast.sol\":693:721  _tmpTeams16[i] = _teams16[i] */\n      swap1\n      0xff\n      and\n      swap1\n      dup2\n      0xff\n      and\n      dup2\n      mstore\n      pop\n      pop\n        /* \"worldcup/GameForecast.sol\":673:676  ++i */\n      dup1\n      tag_190\n      swap1\n      tag_191\n      jump\t// in\n    tag_190:\n      swap1\n      pop\n        /* \"worldcup/GameForecast.sol\":648:733  for(uint8 i = 0; i < 16; ++i) {... */\n      jump(tag_180)\n    tag_181:\n      pop\n        /* \"worldcup/GameForecast.sol\":752:763  _tmpTeams16 */\n      dup1\n        /* \"worldcup/GameForecast.sol\":743:749  team16 */\n      0x03\n        /* \"worldcup/GameForecast.sol\":743:763  team16 = _tmpTeams16 */\n      swap1\n      0x10\n      tag_192\n      swap3\n      swap2\n      swap1\n      tag_193\n      jump\t// in\n    tag_192:\n      pop\n        /* \"worldcup/GameForecast.sol\":598:771  {... */\n      pop\n        /* \"worldcup/GameForecast.sol\":526:771  function setTeam16Tokenid(uint8[16] calldata _teams16) public onlyAdmin {... */\n      pop\n      jump\t// out\n        /* \"worldcup/GameForecast.sol\":5166:5501  function getUserHits(address account, uint16 forecastId) public view returns (uint256){... */\n    tag_89:\n        /* \"worldcup/GameForecast.sol\":5244:5251  uint256 */\n      0x00\n        /* \"worldcup/GameForecast.sol\":5263:5288  TeamInfo memory _teaminfo */\n      dup1\n        /* \"worldcup/GameForecast.sol\":5291:5307  userForecastInfo */\n      0x06\n        /* \"worldcup/GameForecast.sol\":5291:5316  userForecastInfo[account] */\n      0x00\n        /* \"worldcup/GameForecast.sol\":5308:5315  account */\n      dup6\n        /* \"worldcup/GameForecast.sol\":5291:5316  userForecastInfo[account] */\n      0xffffffffffffffffffffffffffffffffffffffff\n      and\n      0xffffffffffffffffffffffffffffffffffffffff\n      and\n      dup2\n      mstore\n      0x20\n      add\n      swap1\n      dup2\n      mstore\n      0x20\n      add\n      0x00\n      keccak256\n        /* \"worldcup/GameForecast.sol\":5291:5328  userForecastInfo[account][forecastId] */\n      0x00\n        /* \"worldcup/GameForecast.sol\":5317:5327  forecastId */\n      dup5\n        /* \"worldcup/GameForecast.sol\":5291:5328  userForecastInfo[account][forecastId] */\n      0xffff\n      and\n      0xffff\n      and\n      dup2\n      mstore\n      0x20\n      add\n      swap1\n      dup2\n      mstore\n      0x20\n      add\n      0x00\n      keccak256\n        /* \"worldcup/GameForecast.sol\":5263:5328  TeamInfo memory _teaminfo = userForecastInfo[account][forecastId] */\n      mload(0x40)\n      dup1\n      0xa0\n      add\n      0x40\n      mstore\n      swap1\n      dup2\n      0x00\n      dup3\n      add\n      0x08\n      dup1\n      0x20\n      mul\n      mload(0x40)\n      swap1\n      dup2\n      add\n      0x40\n      mstore\n      dup1\n      swap3\n      swap2\n      swap1\n      dup3\n      0x08\n      dup1\n      iszero\n      tag_195\n      jumpi\n      0x20\n      mul\n      dup3\n      add\n      swap2\n      0x00\n      swap1\n    tag_196:\n      dup3\n      dup3\n      swap1\n      sload\n      swap1\n      0x0100\n      exp\n      swap1\n      div\n      0xff\n      and\n      0xff\n      and\n      dup2\n      mstore\n      0x20\n      add\n      swap1\n      0x01\n      add\n      swap1\n      0x20\n      dup3\n      0x00\n      add\n      div\n      swap3\n      dup4\n      add\n      swap3\n      0x01\n      sub\n      dup3\n      mul\n      swap2\n      pop\n      dup1\n      dup5\n      gt\n      tag_196\n      jumpi\n      swap1\n      pop\n    tag_195:\n      pop\n      pop\n      pop\n      pop\n      pop\n      dup2\n      mstore\n      0x20\n      add\n      0x01\n      dup3\n      add\n      0x04\n      dup1\n      0x20\n      mul\n      mload(0x40)\n      swap1\n      dup2\n      add\n      0x40\n      mstore\n      dup1\n      swap3\n      swap2\n      swap1\n      dup3\n      0x04\n      dup1\n      iszero\n      tag_197\n      jumpi\n      0x20\n      mul\n      dup3\n      add\n      swap2\n      0x00\n      swap1\n    tag_198:\n      dup3\n      dup3\n      swap1\n      sload\n      swap1\n      0x0100\n      exp\n      swap1\n      div\n      0xff\n      and\n      0xff\n      and\n      dup2\n      mstore\n      0x20\n      add\n      swap1\n      0x01\n      add\n      swap1\n      0x20\n      dup3\n      0x00\n      add\n      div\n      swap3\n      dup4\n      add\n      swap3\n      0x01\n      sub\n      dup3\n      mul\n      swap2\n      pop\n      dup1\n      dup5\n      gt\n      tag_198\n      jumpi\n      swap1\n      pop\n    tag_197:\n      pop\n      pop\n      pop\n      pop\n      pop\n      dup2\n      mstore\n      0x20\n      add\n      0x02\n      dup3\n      add\n      0x02\n      dup1\n      0x20\n      mul\n      mload(0x40)\n      swap1\n      dup2\n      add\n      0x40\n      mstore\n      dup1\n      swap3\n      swap2\n      swap1\n      dup3\n      0x02\n      dup1\n      iszero\n      tag_199\n      jumpi\n      0x20\n      mul\n      dup3\n      add\n      swap2\n      0x00\n      swap1\n    tag_200:\n      dup3\n      dup3\n      swap1\n      sload\n      swap1\n      0x0100\n      exp\n      swap1\n      div\n      0xff\n      and\n      0xff\n      and\n      dup2\n      mstore\n      0x20\n      add\n      swap1\n      0x01\n      add\n      swap1\n      0x20\n      dup3\n      0x00\n      add\n      div\n      swap3\n      dup4\n      add\n      swap3\n      0x01\n      sub\n      dup3\n      mul\n      swap2\n      pop\n      dup1\n      dup5\n      gt\n      tag_200\n      jumpi\n      swap1\n      pop\n    tag_199:\n      pop\n      pop\n      pop\n      pop\n      pop\n      dup2\n      mstore\n      0x20\n      add\n      0x03\n      dup3\n      add\n      0x00\n      swap1\n      sload\n      swap1\n      0x0100\n      exp\n      swap1\n      div\n      0xff\n      and\n      0xff\n      and\n      0xff\n      and\n      dup2\n      mstore\n      0x20\n      add\n      0x03\n      dup3\n      add\n      0x01\n      swap1\n      sload\n      swap1\n      0x0100\n      exp\n      swap1\n      div\n      0xff\n      and\n      0xff\n      and\n      0xff\n      and\n      dup2\n      mstore\n      pop\n      pop\n      swap1\n      pop\n        /* \"worldcup/GameForecast.sol\":5467:5493  _hitThrid(_teaminfo.third) */\n      tag_201\n        /* \"worldcup/GameForecast.sol\":5477:5486  _teaminfo */\n      dup2\n        /* \"worldcup/GameForecast.sol\":5477:5492  _teaminfo.third */\n      0x80\n      add\n      mload\n        /* \"worldcup/GameForecast.sol\":5467:5476  _hitThrid */\n      tag_202\n        /* \"worldcup/GameForecast.sol\":5467:5493  _hitThrid(_teaminfo.third) */\n      jump\t// in\n    tag_201:\n        /* \"worldcup/GameForecast.sol\":5438:5464  _hitFirst(_teaminfo.first) */\n      tag_203\n        /* \"worldcup/GameForecast.sol\":5448:5457  _teaminfo */\n      dup3\n        /* \"worldcup/GameForecast.sol\":5448:5463  _teaminfo.first */\n      0x60\n      add\n      mload\n        /* \"worldcup/GameForecast.sol\":5438:5447  _hitFirst */\n      tag_204\n        /* \"worldcup/GameForecast.sol\":5438:5464  _hitFirst(_teaminfo.first) */\n      jump\t// in\n    tag_203:\n        /* \"worldcup/GameForecast.sol\":5412:5435  _hit2(_teaminfo.teams2) */\n      tag_205\n        /* \"worldcup/GameForecast.sol\":5418:5427  _teaminfo */\n      dup4\n        /* \"worldcup/GameForecast.sol\":5418:5434  _teaminfo.teams2 */\n      0x40\n      add\n      mload\n        /* \"worldcup/GameForecast.sol\":5412:5417  _hit2 */\n      tag_206\n        /* \"worldcup/GameForecast.sol\":5412:5435  _hit2(_teaminfo.teams2) */\n      jump\t// in\n    tag_205:\n        /* \"worldcup/GameForecast.sol\":5372:5395  _hit4(_teaminfo.teams4) */\n      tag_207\n        /* \"worldcup/GameForecast.sol\":5378:5387  _teaminfo */\n      dup5\n        /* \"worldcup/GameForecast.sol\":5378:5394  _teaminfo.teams4 */\n      0x20\n      add\n      mload\n        /* \"worldcup/GameForecast.sol\":5372:5377  _hit4 */\n      tag_208\n        /* \"worldcup/GameForecast.sol\":5372:5395  _hit4(_teaminfo.teams4) */\n      jump\t// in\n    tag_207:\n        /* \"worldcup/GameForecast.sol\":5346:5369  _hit8(_teaminfo.teams8) */\n      tag_209\n        /* \"worldcup/GameForecast.sol\":5352:5361  _teaminfo */\n      dup6\n        /* \"worldcup/GameForecast.sol\":5352:5368  _teaminfo.teams8 */\n      0x00\n      add\n      mload\n        /* \"worldcup/GameForecast.sol\":5346:5351  _hit8 */\n      tag_210\n        /* \"worldcup/GameForecast.sol\":5346:5369  _hit8(_teaminfo.teams8) */\n      jump\t// in\n    tag_209:\n        /* \"worldcup/GameForecast.sol\":5346:5395  _hit8(_teaminfo.teams8) + _hit4(_teaminfo.teams4) */\n      tag_211\n      swap2\n      swap1\n      tag_154\n      jump\t// in\n    tag_211:\n        /* \"worldcup/GameForecast.sol\":5346:5435  _hit8(_teaminfo.teams8) + _hit4(_teaminfo.teams4) ... */\n      tag_212\n      swap2\n      swap1\n      tag_154\n      jump\t// in\n    tag_212:\n        /* \"worldcup/GameForecast.sol\":5346:5464  _hit8(_teaminfo.teams8) + _hit4(_teaminfo.teams4) ... */\n      tag_213\n      swap2\n      swap1\n      tag_154\n      jump\t// in\n    tag_213:\n        /* \"worldcup/GameForecast.sol\":5346:5493  _hit8(_teaminfo.teams8) + _hit4(_teaminfo.teams4) ... */\n      tag_214\n      swap2\n      swap1\n      tag_154\n      jump\t// in\n    tag_214:\n        /* \"worldcup/GameForecast.sol\":5339:5493  return _hit8(_teaminfo.teams8) + _hit4(_teaminfo.teams4) ... */\n      0xffff\n      and\n      swap2\n      pop\n      pop\n        /* \"worldcup/GameForecast.sol\":5166:5501  function getUserHits(address account, uint16 forecastId) public view returns (uint256){... */\n      swap3\n      swap2\n      pop\n      pop\n      jump\t// out\n        /* \"worldcup/GameForecast.sol\":413:484  mapping(address => mapping(uint16 => TeamInfo)) public userForecastInfo */\n    tag_93:\n      mstore(0x20, 0x06)\n      dup2\n      0x00\n      mstore\n      mstore(0x20, keccak256(0x00, 0x40))\n      dup1\n      0x00\n      mstore\n      keccak256(0x00, 0x40)\n      0x00\n      swap2\n      pop\n      swap2\n      pop\n      pop\n      dup1\n      0x03\n      add\n      0x00\n      swap1\n      sload\n      swap1\n      0x0100\n      exp\n      swap1\n      div\n      0xff\n      and\n      swap1\n      dup1\n      0x03\n      add\n      0x01\n      swap1\n      sload\n      swap1\n      0x0100\n      exp\n      swap1\n      div\n      0xff\n      and\n      swap1\n      pop\n      dup3\n      jump\t// out\n        /* \"worldcup/GameForecast.sol\":319:342  uint256 public openTime */\n    tag_96:\n      sload(0x04)\n      dup2\n      jump\t// out\n        /* \"worldcup/GameForecast.sol\":2868:2934  function claimForecastRewards(uint16 forecastId) public {... */\n    tag_101:\n      pop\n      jump\t// out\n        /* \"worldcup/GameForecast.sol\":2538:2638  function getGameResultThird() public view returns (uint8) {... */\n    tag_103:\n        /* \"worldcup/GameForecast.sol\":2589:2594  uint8 */\n      0x00\n        /* \"worldcup/GameForecast.sol\":2614:2624  gameResult */\n      0x07\n        /* \"worldcup/GameForecast.sol\":2614:2630  gameResult.third */\n      0x03\n      add\n      0x01\n      swap1\n      sload\n      swap1\n      0x0100\n      exp\n      swap1\n      div\n      0xff\n      and\n        /* \"worldcup/GameForecast.sol\":2607:2630  return gameResult.third */\n      swap1\n      pop\n        /* \"worldcup/GameForecast.sol\":2538:2638  function getGameResultThird() public view returns (uint8) {... */\n      swap1\n      jump\t// out\n        /* \"worldcup/GameForecast.sol\":289:312  uint8[16] public team16 */\n    tag_108:\n      0x03\n      dup2\n      0x10\n      dup2\n      lt\n      tag_217\n      jumpi\n      0x00\n      dup1\n      revert\n    tag_217:\n      0x20\n      swap2\n      dup3\n      dup3\n      div\n      add\n      swap2\n      swap1\n      mod\n      swap2\n      pop\n      sload\n      swap1\n      0x0100\n      exp\n      swap1\n      div\n      0xff\n      and\n      dup2\n      jump\t// out\n        /* \"worldcup/GameForecast.sol\":2310:2422  function getGameResultTeams2() public view returns (uint8[2] memory) {... */\n    tag_111:\n        /* \"worldcup/GameForecast.sol\":2362:2377  uint8[2] memory */\n      tag_219\n      tag_220\n      jump\t// in\n    tag_219:\n        /* \"worldcup/GameForecast.sol\":2397:2407  gameResult */\n      0x07\n        /* \"worldcup/GameForecast.sol\":2397:2414  gameResult.teams2 */\n      0x02\n      add\n        /* \"worldcup/GameForecast.sol\":2390:2414  return gameResult.teams2 */\n      0x02\n      dup1\n      0x20\n      mul\n      mload(0x40)\n      swap1\n      dup2\n      add\n      0x40\n      mstore\n      dup1\n      swap3\n      swap2\n      swap1\n      dup3\n      0x02\n      dup1\n      iszero\n      tag_222\n      jumpi\n      0x20\n      mul\n      dup3\n      add\n      swap2\n      0x00\n      swap1\n    tag_223:\n      dup3\n      dup3\n      swap1\n      sload\n      swap1\n      0x0100\n      exp\n      swap1\n      div\n      0xff\n      and\n      0xff\n      and\n      dup2\n      mstore\n      0x20\n      add\n      swap1\n      0x01\n      add\n      swap1\n      0x20\n      dup3\n      0x00\n      add\n      div\n      swap3\n      dup4\n      add\n      swap3\n      0x01\n      sub\n      dup3\n      mul\n      swap2\n      pop\n      dup1\n      dup5\n      gt\n      tag_223\n      jumpi\n      swap1\n      pop\n    tag_222:\n      pop\n      pop\n      pop\n      pop\n      pop\n      swap1\n      pop\n        /* \"worldcup/GameForecast.sol\":2310:2422  function getGameResultTeams2() public view returns (uint8[2] memory) {... */\n      swap1\n      jump\t// out\n        /* \"worldcup/Adminable.sol\":1236:1437  function transferOwnership(address newOwner) public virtual onlyOwner {... */\n    tag_116:\n        /* \"worldcup/Adminable.sol\":704:716  _msgSender() */\n      tag_225\n        /* \"worldcup/Adminable.sol\":704:714  _msgSender */\n      tag_123\n        /* \"worldcup/Adminable.sol\":704:716  _msgSender() */\n      jump\t// in\n    tag_225:\n        /* \"worldcup/Adminable.sol\":693:716  owner() == _msgSender() */\n      0xffffffffffffffffffffffffffffffffffffffff\n      and\n        /* \"worldcup/Adminable.sol\":693:700  owner() */\n      tag_226\n        /* \"worldcup/Adminable.sol\":693:698  owner */\n      tag_73\n        /* \"worldcup/Adminable.sol\":693:700  owner() */\n      jump\t// in\n    tag_226:\n        /* \"worldcup/Adminable.sol\":693:716  owner() == _msgSender() */\n      0xffffffffffffffffffffffffffffffffffffffff\n      and\n      eq\n        /* \"worldcup/Adminable.sol\":685:755  require(owner() == _msgSender(), \"Adminable: caller is not the owner\") */\n      tag_227\n      jumpi\n      mload(0x40)\n      0x08c379a000000000000000000000000000000000000000000000000000000000\n      dup2\n      mstore\n      0x04\n      add\n      tag_228\n      swap1\n      tag_127\n      jump\t// in\n    tag_228:\n      mload(0x40)\n      dup1\n      swap2\n      sub\n      swap1\n      revert\n    tag_227:\n        /* \"worldcup/Adminable.sol\":1345:1346  0 */\n      0x00\n        /* \"worldcup/Adminable.sol\":1325:1347  newOwner != address(0) */\n      0xffffffffffffffffffffffffffffffffffffffff\n      and\n        /* \"worldcup/Adminable.sol\":1325:1333  newOwner */\n      dup2\n        /* \"worldcup/Adminable.sol\":1325:1347  newOwner != address(0) */\n      0xffffffffffffffffffffffffffffffffffffffff\n      and\n      sub\n        /* \"worldcup/Adminable.sol\":1317:1390  require(newOwner != address(0), \"Ownable: new owner is the zero address\") */\n      tag_230\n      jumpi\n      mload(0x40)\n      0x08c379a000000000000000000000000000000000000000000000000000000000\n      dup2\n      mstore\n      0x04\n      add\n      tag_231\n      swap1\n      tag_232\n      jump\t// in\n    tag_231:\n      mload(0x40)\n      dup1\n      swap2\n      sub\n      swap1\n      revert\n    tag_230:\n        /* \"worldcup/Adminable.sol\":1401:1429  _transferOwnership(newOwner) */\n      tag_233\n        /* \"worldcup/Adminable.sol\":1420:1428  newOwner */\n      dup2\n        /* \"worldcup/Adminable.sol\":1401:1419  _transferOwnership */\n      tag_145\n        /* \"worldcup/Adminable.sol\":1401:1429  _transferOwnership(newOwner) */\n      jump\t// in\n    tag_233:\n        /* \"worldcup/Adminable.sol\":1236:1437  function transferOwnership(address newOwner) public virtual onlyOwner {... */\n      pop\n      jump\t// out\n        /* \"worldcup/GameForecast.sol\":779:1450  function openForecast(uint8[8] calldata _teams8, uint8[4] calldata _teams4, uint8[2] calldata _teams2, uint8 _first, uint8 _third) public onlyAdmin {... */\n    tag_119:\n        /* \"worldcup/Adminable.sol\":823:844  isAdmin(_msgSender()) */\n      tag_235\n        /* \"worldcup/Adminable.sol\":831:843  _msgSender() */\n      tag_236\n        /* \"worldcup/Adminable.sol\":831:841  _msgSender */\n      tag_123\n        /* \"worldcup/Adminable.sol\":831:843  _msgSender() */\n      jump\t// in\n    tag_236:\n        /* \"worldcup/Adminable.sol\":823:830  isAdmin */\n      tag_40\n        /* \"worldcup/Adminable.sol\":823:844  isAdmin(_msgSender()) */\n      jump\t// in\n    tag_235:\n        /* \"worldcup/Adminable.sol\":815:883  require(isAdmin(_msgSender()), \"Adminable: caller is not the admin\") */\n      tag_237\n      jumpi\n      mload(0x40)\n      0x08c379a000000000000000000000000000000000000000000000000000000000\n      dup2\n      mstore\n      0x04\n      add\n      tag_238\n      swap1\n      tag_177\n      jump\t// in\n    tag_238:\n      mload(0x40)\n      dup1\n      swap2\n      sub\n      swap1\n      revert\n    tag_237:\n        /* \"worldcup/GameForecast.sol\":938:965  TeamInfo memory _gameResult */\n      0x00\n        /* \"worldcup/GameForecast.sol\":968:978  gameResult */\n      0x07\n        /* \"worldcup/GameForecast.sol\":938:978  TeamInfo memory _gameResult = gameResult */\n      mload(0x40)\n      dup1\n      0xa0\n      add\n      0x40\n      mstore\n      swap1\n      dup2\n      0x00\n      dup3\n      add\n      0x08\n      dup1\n      0x20\n      mul\n      mload(0x40)\n      swap1\n      dup2\n      add\n      0x40\n      mstore\n      dup1\n      swap3\n      swap2\n      swap1\n      dup3\n      0x08\n      dup1\n      iszero\n      tag_240\n      jumpi\n      0x20\n      mul\n      dup3\n      add\n      swap2\n      0x00\n      swap1\n    tag_241:\n      dup3\n      dup3\n      swap1\n      sload\n      swap1\n      0x0100\n      exp\n      swap1\n      div\n      0xff\n      and\n      0xff\n      and\n      dup2\n      mstore\n      0x20\n      add\n      swap1\n      0x01\n      add\n      swap1\n      0x20\n      dup3\n      0x00\n      add\n      div\n      swap3\n      dup4\n      add\n      swap3\n      0x01\n      sub\n      dup3\n      mul\n      swap2\n      pop\n      dup1\n      dup5\n      gt\n      tag_241\n      jumpi\n      swap1\n      pop\n    tag_240:\n      pop\n      pop\n      pop\n      pop\n      pop\n      dup2\n      mstore\n      0x20\n      add\n      0x01\n      dup3\n      add\n      0x04\n      dup1\n      0x20\n      mul\n      mload(0x40)\n      swap1\n      dup2\n      add\n      0x40\n      mstore\n      dup1\n      swap3\n      swap2\n      swap1\n      dup3\n      0x04\n      dup1\n      iszero\n      tag_242\n      jumpi\n      0x20\n      mul\n      dup3\n      add\n      swap2\n      0x00\n      swap1\n    tag_243:\n      dup3\n      dup3\n      swap1\n      sload\n      swap1\n      0x0100\n      exp\n      swap1\n      div\n      0xff\n      and\n      0xff\n      and\n      dup2\n      mstore\n      0x20\n      add\n      swap1\n      0x01\n      add\n      swap1\n      0x20\n      dup3\n      0x00\n      add\n      div\n      swap3\n      dup4\n      add\n      swap3\n      0x01\n      sub\n      dup3\n      mul\n      swap2\n      pop\n      dup1\n      dup5\n      gt\n      tag_243\n      jumpi\n      swap1\n      pop\n    tag_242:\n      pop\n      pop\n      pop\n      pop\n      pop\n      dup2\n      mstore\n      0x20\n      add\n      0x02\n      dup3\n      add\n      0x02\n      dup1\n      0x20\n      mul\n      mload(0x40)\n      swap1\n      dup2\n      add\n      0x40\n      mstore\n      dup1\n      swap3\n      swap2\n      swap1\n      dup3\n      0x02\n      dup1\n      iszero\n      tag_244\n      jumpi\n      0x20\n      mul\n      dup3\n      add\n      swap2\n      0x00\n      swap1\n    tag_245:\n      dup3\n      dup3\n      swap1\n      sload\n      swap1\n      0x0100\n      exp\n      swap1\n      div\n      0xff\n      and\n      0xff\n      and\n      dup2\n      mstore\n      0x20\n      add\n      swap1\n      0x01\n      add\n      swap1\n      0x20\n      dup3\n      0x00\n      add\n      div\n      swap3\n      dup4\n      add\n      swap3\n      0x01\n      sub\n      dup3\n      mul\n      swap2\n      pop\n      dup1\n      dup5\n      gt\n      tag_245\n      jumpi\n      swap1\n      pop\n    tag_244:\n      pop\n      pop\n      pop\n      pop\n      pop\n      dup2\n      mstore\n      0x20\n      add\n      0x03\n      dup3\n      add\n      0x00\n      swap1\n      sload\n      swap1\n      0x0100\n      exp\n      swap1\n      div\n      0xff\n      and\n      0xff\n      and\n      0xff\n      and\n      dup2\n      mstore\n      0x20\n      add\n      0x03\n      dup3\n      add\n      0x01\n      swap1\n      sload\n      swap1\n      0x0100\n      exp\n      swap1\n      div\n      0xff\n      and\n      0xff\n      and\n      0xff\n      and\n      dup2\n      mstore\n      pop\n      pop\n      swap1\n      pop\n        /* \"worldcup/GameForecast.sol\":989:1010  _checkTeams8(_teams8) */\n      tag_246\n        /* \"worldcup/GameForecast.sol\":1002:1009  _teams8 */\n      dup7\n        /* \"worldcup/GameForecast.sol\":989:1001  _checkTeams8 */\n      tag_247\n        /* \"worldcup/GameForecast.sol\":989:1010  _checkTeams8(_teams8) */\n      jump\t// in\n    tag_246:\n        /* \"worldcup/GameForecast.sol\":1021:1051  _checkTeams4(_teams8, _teams4) */\n      tag_248\n        /* \"worldcup/GameForecast.sol\":1034:1041  _teams8 */\n      dup7\n        /* \"worldcup/GameForecast.sol\":1043:1050  _teams4 */\n      dup7\n        /* \"worldcup/GameForecast.sol\":1021:1033  _checkTeams4 */\n      tag_249\n        /* \"worldcup/GameForecast.sol\":1021:1051  _checkTeams4(_teams8, _teams4) */\n      jump\t// in\n    tag_248:\n        /* \"worldcup/GameForecast.sol\":1062:1092  _checkTeams2(_teams4, _teams2) */\n      tag_250\n        /* \"worldcup/GameForecast.sol\":1075:1082  _teams4 */\n      dup6\n        /* \"worldcup/GameForecast.sol\":1084:1091  _teams2 */\n      dup6\n        /* \"worldcup/GameForecast.sol\":1062:1074  _checkTeams2 */\n      tag_251\n        /* \"worldcup/GameForecast.sol\":1062:1092  _checkTeams2(_teams4, _teams2) */\n      jump\t// in\n    tag_250:\n        /* \"worldcup/GameForecast.sol\":1103:1131  _checkFirst(_teams2, _first) */\n      tag_252\n        /* \"worldcup/GameForecast.sol\":1115:1122  _teams2 */\n      dup5\n        /* \"worldcup/GameForecast.sol\":1124:1130  _first */\n      dup5\n        /* \"worldcup/GameForecast.sol\":1103:1114  _checkFirst */\n      tag_253\n        /* \"worldcup/GameForecast.sol\":1103:1131  _checkFirst(_teams2, _first) */\n      jump\t// in\n    tag_252:\n        /* \"worldcup/GameForecast.sol\":1142:1179  _checkThrid(_teams4, _teams2, _third) */\n      tag_254\n        /* \"worldcup/GameForecast.sol\":1154:1161  _teams4 */\n      dup6\n        /* \"worldcup/GameForecast.sol\":1163:1170  _teams2 */\n      dup6\n        /* \"worldcup/GameForecast.sol\":1172:1178  _third */\n      dup5\n        /* \"worldcup/GameForecast.sol\":1142:1153  _checkThrid */\n      tag_255\n        /* \"worldcup/GameForecast.sol\":1142:1179  _checkThrid(_teams4, _teams2, _third) */\n      jump\t// in\n    tag_254:\n        /* \"worldcup/GameForecast.sol\":1211:1218  _teams8 */\n      dup6\n        /* \"worldcup/GameForecast.sol\":1190:1218  _gameResult.teams8 = _teams8 */\n      0x08\n      dup1\n      0x20\n      mul\n      mload(0x40)\n      swap1\n      dup2\n      add\n      0x40\n      mstore\n      dup1\n      swap3\n      swap2\n      swap1\n      dup3\n      mul(0x20, 0x08)\n      dup1\n      dup3\n      dup5\n      calldatacopy\n      0x00\n      dup2\n      dup5\n      add\n      mstore\n      not(0x1f)\n      0x1f\n      dup3\n      add\n      and\n      swap1\n      pop\n      dup1\n      dup4\n      add\n      swap3\n      pop\n      pop\n      pop\n      pop\n      pop\n      pop\n        /* \"worldcup/GameForecast.sol\":1190:1201  _gameResult */\n      dup2\n        /* \"worldcup/GameForecast.sol\":1190:1208  _gameResult.teams8 */\n      0x00\n      add\n        /* \"worldcup/GameForecast.sol\":1190:1218  _gameResult.teams8 = _teams8 */\n      dup2\n      swap1\n      mstore\n      pop\n        /* \"worldcup/GameForecast.sol\":1250:1257  _teams4 */\n      dup5\n        /* \"worldcup/GameForecast.sol\":1229:1257  _gameResult.teams4 = _teams4 */\n      0x04\n      dup1\n      0x20\n      mul\n      mload(0x40)\n      swap1\n      dup2\n      add\n      0x40\n      mstore\n      dup1\n      swap3\n      swap2\n      swap1\n      dup3\n      mul(0x20, 0x04)\n      dup1\n      dup3\n      dup5\n      calldatacopy\n      0x00\n      dup2\n      dup5\n      add\n      mstore\n      not(0x1f)\n      0x1f\n      dup3\n      add\n      and\n      swap1\n      pop\n      dup1\n      dup4\n      add\n      swap3\n      pop\n      pop\n      pop\n      pop\n      pop\n      pop\n        /* \"worldcup/GameForecast.sol\":1229:1240  _gameResult */\n      dup2\n        /* \"worldcup/GameForecast.sol\":1229:1247  _gameResult.teams4 */\n      0x20\n      add\n        /* \"worldcup/GameForecast.sol\":1229:1257  _gameResult.teams4 = _teams4 */\n      dup2\n      swap1\n      mstore\n      pop\n        /* \"worldcup/GameForecast.sol\":1289:1296  _teams2 */\n      dup4\n        /* \"worldcup/GameForecast.sol\":1268:1296  _gameResult.teams2 = _teams2 */\n      0x02\n      dup1\n      0x20\n      mul\n      mload(0x40)\n      swap1\n      dup2\n      add\n      0x40\n      mstore\n      dup1\n      swap3\n      swap2\n      swap1\n      dup3\n      mul(0x20, 0x02)\n      dup1\n      dup3\n      dup5\n      calldatacopy\n      0x00\n      dup2\n      dup5\n      add\n      mstore\n      not(0x1f)\n      0x1f\n      dup3\n      add\n      and\n      swap1\n      pop\n      dup1\n      dup4\n      add\n      swap3\n      pop\n      pop\n      pop\n      pop\n      pop\n      pop\n        /* \"worldcup/GameForecast.sol\":1268:1279  _gameResult */\n      dup2\n        /* \"worldcup/GameForecast.sol\":1268:1286  _gameResult.teams2 */\n      0x40\n      add\n        /* \"worldcup/GameForecast.sol\":1268:1296  _gameResult.teams2 = _teams2 */\n      dup2\n      swap1\n      mstore\n      pop\n        /* \"worldcup/GameForecast.sol\":1327:1333  _first */\n      dup3\n        /* \"worldcup/GameForecast.sol\":1307:1318  _gameResult */\n      dup2\n        /* \"worldcup/GameForecast.sol\":1307:1324  _gameResult.first */\n      0x60\n      add\n        /* \"worldcup/GameForecast.sol\":1307:1333  _gameResult.first = _first */\n      swap1\n      0xff\n      and\n      swap1\n      dup2\n      0xff\n      and\n      dup2\n      mstore\n      pop\n      pop\n        /* \"worldcup/GameForecast.sol\":1364:1370  _third */\n      dup2\n        /* \"worldcup/GameForecast.sol\":1344:1355  _gameResult */\n      dup2\n        /* \"worldcup/GameForecast.sol\":1344:1361  _gameResult.third */\n      0x80\n      add\n        /* \"worldcup/GameForecast.sol\":1344:1370  _gameResult.third = _third */\n      swap1\n      0xff\n      and\n      swap1\n      dup2\n      0xff\n      and\n      dup2\n      mstore\n      pop\n      pop\n        /* \"worldcup/GameForecast.sol\":1394:1405  _gameResult */\n      dup1\n        /* \"worldcup/GameForecast.sol\":1381:1391  gameResult */\n      0x07\n        /* \"worldcup/GameForecast.sol\":1381:1405  gameResult = _gameResult */\n      0x00\n      dup3\n      add\n      mload\n      dup2\n      0x00\n      add\n      swap1\n      0x08\n      tag_256\n      swap3\n      swap2\n      swap1\n      tag_162\n      jump\t// in\n    tag_256:\n      pop\n      0x20\n      dup3\n      add\n      mload\n      dup2\n      0x01\n      add\n      swap1\n      0x04\n      tag_257\n      swap3\n      swap2\n      swap1\n      tag_164\n      jump\t// in\n    tag_257:\n      pop\n      0x40\n      dup3\n      add\n      mload\n      dup2\n      0x02\n      add\n      swap1\n      0x02\n      tag_258\n      swap3\n      swap2\n      swap1\n      tag_166\n      jump\t// in\n    tag_258:\n      pop\n      0x60\n      dup3\n      add\n      mload\n      dup2\n      0x03\n      add\n      exp(0x0100, 0x00)\n      dup2\n      sload\n      dup2\n      0xff\n      mul\n      not\n      and\n      swap1\n      dup4\n      0xff\n      and\n      mul\n      or\n      swap1\n      sstore\n      pop\n      0x80\n      dup3\n      add\n      mload\n      dup2\n      0x03\n      add\n      exp(0x0100, 0x01)\n      dup2\n      sload\n      dup2\n      0xff\n      mul\n      not\n      and\n      swap1\n      dup4\n      0xff\n      and\n      mul\n      or\n      swap1\n      sstore\n      pop\n      swap1\n      pop\n      pop\n        /* \"worldcup/GameForecast.sol\":1427:1442  block.timestamp */\n      timestamp\n        /* \"worldcup/GameForecast.sol\":1416:1424  openTime */\n      0x04\n        /* \"worldcup/GameForecast.sol\":1416:1442  openTime = block.timestamp */\n      dup2\n      swap1\n      sstore\n      pop\n        /* \"worldcup/GameForecast.sol\":927:1450  {... */\n      pop\n        /* \"worldcup/GameForecast.sol\":779:1450  function openForecast(uint8[8] calldata _teams8, uint8[4] calldata _teams4, uint8[2] calldata _teams2, uint8 _first, uint8 _third) public onlyAdmin {... */\n      pop\n      pop\n      pop\n      pop\n      pop\n      jump\t// out\n        /* \"worldcup/Adminable.sol\":64:162  function _msgSender() internal view virtual returns (address) {... */\n    tag_123:\n        /* \"worldcup/Adminable.sol\":117:124  address */\n      0x00\n        /* \"worldcup/Adminable.sol\":144:154  msg.sender */\n      caller\n        /* \"worldcup/Adminable.sol\":137:154  return msg.sender */\n      swap1\n      pop\n        /* \"worldcup/Adminable.sol\":64:162  function _msgSender() internal view virtual returns (address) {... */\n      swap1\n      jump\t// out\n        /* \"worldcup/Adminable.sol\":1445:1636  function _transferOwnership(address newOwner) internal virtual {... */\n    tag_145:\n        /* \"worldcup/Adminable.sol\":1519:1535  address oldOwner */\n      0x00\n        /* \"worldcup/Adminable.sol\":1538:1544  _owner */\n      0x01\n      0x00\n      swap1\n      sload\n      swap1\n      0x0100\n      exp\n      swap1\n      div\n      0xffffffffffffffffffffffffffffffffffffffff\n      and\n        /* \"worldcup/Adminable.sol\":1519:1544  address oldOwner = _owner */\n      swap1\n      pop\n        /* \"worldcup/Adminable.sol\":1564:1572  newOwner */\n      dup2\n        /* \"worldcup/Adminable.sol\":1555:1561  _owner */\n      0x01\n      0x00\n        /* \"worldcup/Adminable.sol\":1555:1572  _owner = newOwner */\n      0x0100\n      exp\n      dup2\n      sload\n      dup2\n      0xffffffffffffffffffffffffffffffffffffffff\n      mul\n      not\n      and\n      swap1\n      dup4\n      0xffffffffffffffffffffffffffffffffffffffff\n      and\n      mul\n      or\n      swap1\n      sstore\n      pop\n        /* \"worldcup/Adminable.sol\":1619:1627  newOwner */\n      dup2\n        /* \"worldcup/Adminable.sol\":1588:1628  OwnershipTransferred(oldOwner, newOwner) */\n      0xffffffffffffffffffffffffffffffffffffffff\n      and\n        /* \"worldcup/Adminable.sol\":1609:1617  oldOwner */\n      dup2\n        /* \"worldcup/Adminable.sol\":1588:1628  OwnershipTransferred(oldOwner, newOwner) */\n      0xffffffffffffffffffffffffffffffffffffffff\n      and\n      0x8be0079c531659141344cd1fd0a4f28419497f9722a3daafe3b4186f6b6457e0\n      mload(0x40)\n      mload(0x40)\n      dup1\n      swap2\n      sub\n      swap1\n      log3\n        /* \"worldcup/Adminable.sol\":1508:1636  {... */\n      pop\n        /* \"worldcup/Adminable.sol\":1445:1636  function _transferOwnership(address newOwner) internal virtual {... */\n      pop\n      jump\t// out\n        /* \"worldcup/GameForecast.sol\":6890:7061  function _hitThrid(uint8 _third) private view returns (uint16) {... */\n    tag_202:\n        /* \"worldcup/GameForecast.sol\":6945:6951  uint16 */\n      0x00\n        /* \"worldcup/GameForecast.sol\":6978:6998  getGameResultThird() */\n      tag_262\n        /* \"worldcup/GameForecast.sol\":6978:6996  getGameResultThird */\n      tag_103\n        /* \"worldcup/GameForecast.sol\":6978:6998  getGameResultThird() */\n      jump\t// in\n    tag_262:\n        /* \"worldcup/GameForecast.sol\":6967:6998  _third ==  getGameResultThird() */\n      0xff\n      and\n        /* \"worldcup/GameForecast.sol\":6967:6973  _third */\n      dup3\n        /* \"worldcup/GameForecast.sol\":6967:6998  _third ==  getGameResultThird() */\n      0xff\n      and\n      sub\n        /* \"worldcup/GameForecast.sol\":6964:7035  if(_third ==  getGameResultThird()) {... */\n      tag_263\n      jumpi\n        /* \"worldcup/GameForecast.sol\":7022:7023  1 */\n      0x01\n        /* \"worldcup/GameForecast.sol\":7015:7023  return 1 */\n      swap1\n      pop\n      jump(tag_261)\n        /* \"worldcup/GameForecast.sol\":6964:7035  if(_third ==  getGameResultThird()) {... */\n    tag_263:\n        /* \"worldcup/GameForecast.sol\":7052:7053  0 */\n      0x00\n        /* \"worldcup/GameForecast.sol\":7045:7053  return 0 */\n      swap1\n      pop\n        /* \"worldcup/GameForecast.sol\":6890:7061  function _hitThrid(uint8 _third) private view returns (uint16) {... */\n    tag_261:\n      swap2\n      swap1\n      pop\n      jump\t// out\n        /* \"worldcup/GameForecast.sol\":6711:6882  function _hitFirst(uint8 _first) private view returns (uint16) {... */\n    tag_204:\n        /* \"worldcup/GameForecast.sol\":6766:6772  uint16 */\n      0x00\n        /* \"worldcup/GameForecast.sol\":6799:6819  getGameResultFirst() */\n      tag_265\n        /* \"worldcup/GameForecast.sol\":6799:6817  getGameResultFirst */\n      tag_30\n        /* \"worldcup/GameForecast.sol\":6799:6819  getGameResultFirst() */\n      jump\t// in\n    tag_265:\n        /* \"worldcup/GameForecast.sol\":6788:6819  _first ==  getGameResultFirst() */\n      0xff\n      and\n        /* \"worldcup/GameForecast.sol\":6788:6794  _first */\n      dup3\n        /* \"worldcup/GameForecast.sol\":6788:6819  _first ==  getGameResultFirst() */\n      0xff\n      and\n      sub\n        /* \"worldcup/GameForecast.sol\":6785:6856  if(_first ==  getGameResultFirst()) {... */\n      tag_266\n      jumpi\n        /* \"worldcup/GameForecast.sol\":6843:6844  1 */\n      0x01\n        /* \"worldcup/GameForecast.sol\":6836:6844  return 1 */\n      swap1\n      pop\n      jump(tag_264)\n        /* \"worldcup/GameForecast.sol\":6785:6856  if(_first ==  getGameResultFirst()) {... */\n    tag_266:\n        /* \"worldcup/GameForecast.sol\":6873:6874  0 */\n      0x00\n        /* \"worldcup/GameForecast.sol\":6866:6874  return 0 */\n      swap1\n      pop\n        /* \"worldcup/GameForecast.sol\":6711:6882  function _hitFirst(uint8 _first) private view returns (uint16) {... */\n    tag_264:\n      swap2\n      swap1\n      pop\n      jump\t// out\n        /* \"worldcup/GameForecast.sol\":6309:6703  function _hit2(uint8[2] memory _teams2) private view returns (uint16) {... */\n    tag_206:\n        /* \"worldcup/GameForecast.sol\":6371:6377  uint16 */\n      0x00\n        /* \"worldcup/GameForecast.sol\":6390:6400  uint16 ret */\n      dup1\n        /* \"worldcup/GameForecast.sol\":6411:6439  uint8[2] memory winnerTeams2 */\n      0x00\n        /* \"worldcup/GameForecast.sol\":6442:6463  getGameResultTeams2() */\n      tag_268\n        /* \"worldcup/GameForecast.sol\":6442:6461  getGameResultTeams2 */\n      tag_111\n        /* \"worldcup/GameForecast.sol\":6442:6463  getGameResultTeams2() */\n      jump\t// in\n    tag_268:\n        /* \"worldcup/GameForecast.sol\":6411:6463  uint8[2] memory winnerTeams2 = getGameResultTeams2() */\n      swap1\n      pop\n        /* \"worldcup/GameForecast.sol\":6478:6485  uint8 i */\n      0x00\n        /* \"worldcup/GameForecast.sol\":6474:6674  for(uint8 i = 0; i < 2; ++i) {... */\n    tag_269:\n        /* \"worldcup/GameForecast.sol\":6495:6496  2 */\n      0x02\n        /* \"worldcup/GameForecast.sol\":6491:6492  i */\n      dup2\n        /* \"worldcup/GameForecast.sol\":6491:6496  i < 2 */\n      0xff\n      and\n      lt\n        /* \"worldcup/GameForecast.sol\":6474:6674  for(uint8 i = 0; i < 2; ++i) {... */\n      iszero\n      tag_270\n      jumpi\n        /* \"worldcup/GameForecast.sol\":6522:6529  uint8 j */\n      0x00\n        /* \"worldcup/GameForecast.sol\":6518:6663  for(uint8 j = 0; j < 2; ++j) {... */\n    tag_272:\n        /* \"worldcup/GameForecast.sol\":6539:6540  2 */\n      0x02\n        /* \"worldcup/GameForecast.sol\":6535:6536  j */\n      dup2\n        /* \"worldcup/GameForecast.sol\":6535:6540  j < 2 */\n      0xff\n      and\n      lt\n        /* \"worldcup/GameForecast.sol\":6518:6663  for(uint8 j = 0; j < 2; ++j) {... */\n      iszero\n      tag_273\n      jumpi\n        /* \"worldcup/GameForecast.sol\":6583:6595  winnerTeams2 */\n      dup3\n        /* \"worldcup/GameForecast.sol\":6596:6597  j */\n      dup2\n        /* \"worldcup/GameForecast.sol\":6583:6598  winnerTeams2[j] */\n      0xff\n      and\n      0x02\n      dup2\n      lt\n      tag_275\n      jumpi\n      tag_276\n      tag_185\n      jump\t// in\n    tag_276:\n    tag_275:\n      0x20\n      mul\n      add\n      mload\n        /* \"worldcup/GameForecast.sol\":6569:6598  _teams2[i] == winnerTeams2[j] */\n      0xff\n      and\n        /* \"worldcup/GameForecast.sol\":6569:6576  _teams2 */\n      dup7\n        /* \"worldcup/GameForecast.sol\":6577:6578  i */\n      dup4\n        /* \"worldcup/GameForecast.sol\":6569:6579  _teams2[i] */\n      0xff\n      and\n      0x02\n      dup2\n      lt\n      tag_277\n      jumpi\n      tag_278\n      tag_185\n      jump\t// in\n    tag_278:\n    tag_277:\n      0x20\n      mul\n      add\n      mload\n        /* \"worldcup/GameForecast.sol\":6569:6598  _teams2[i] == winnerTeams2[j] */\n      0xff\n      and\n      sub\n        /* \"worldcup/GameForecast.sol\":6566:6648  if(_teams2[i] == winnerTeams2[j]) {... */\n      tag_279\n      jumpi\n        /* \"worldcup/GameForecast.sol\":6623:6628  ret++ */\n      dup4\n      dup1\n      tag_280\n      swap1\n      tag_281\n      jump\t// in\n    tag_280:\n      swap5\n      pop\n      pop\n        /* \"worldcup/GameForecast.sol\":6566:6648  if(_teams2[i] == winnerTeams2[j]) {... */\n    tag_279:\n        /* \"worldcup/GameForecast.sol\":6542:6545  ++j */\n      dup1\n      tag_282\n      swap1\n      tag_191\n      jump\t// in\n    tag_282:\n      swap1\n      pop\n        /* \"worldcup/GameForecast.sol\":6518:6663  for(uint8 j = 0; j < 2; ++j) {... */\n      jump(tag_272)\n    tag_273:\n      pop\n        /* \"worldcup/GameForecast.sol\":6498:6501  ++i */\n      dup1\n      tag_283\n      swap1\n      tag_191\n      jump\t// in\n    tag_283:\n      swap1\n      pop\n        /* \"worldcup/GameForecast.sol\":6474:6674  for(uint8 i = 0; i < 2; ++i) {... */\n      jump(tag_269)\n    tag_270:\n      pop\n        /* \"worldcup/GameForecast.sol\":6691:6694  ret */\n      dup2\n        /* \"worldcup/GameForecast.sol\":6684:6694  return ret */\n      swap3\n      pop\n      pop\n      pop\n        /* \"worldcup/GameForecast.sol\":6309:6703  function _hit2(uint8[2] memory _teams2) private view returns (uint16) {... */\n      swap2\n      swap1\n      pop\n      jump\t// out\n        /* \"worldcup/GameForecast.sol\":5910:6301  function _hit4(uint8[4] memory _team4) private view returns (uint16) {... */\n    tag_208:\n        /* \"worldcup/GameForecast.sol\":5971:5977  uint16 */\n      0x00\n        /* \"worldcup/GameForecast.sol\":5990:6000  uint16 ret */\n      dup1\n        /* \"worldcup/GameForecast.sol\":6011:6039  uint8[4] memory winnerTeams4 */\n      0x00\n        /* \"worldcup/GameForecast.sol\":6042:6063  getGameResultTeams4() */\n      tag_285\n        /* \"worldcup/GameForecast.sol\":6042:6061  getGameResultTeams4 */\n      tag_49\n        /* \"worldcup/GameForecast.sol\":6042:6063  getGameResultTeams4() */\n      jump\t// in\n    tag_285:\n        /* \"worldcup/GameForecast.sol\":6011:6063  uint8[4] memory winnerTeams4 = getGameResultTeams4() */\n      swap1\n      pop\n        /* \"worldcup/GameForecast.sol\":6078:6085  uint8 i */\n      0x00\n        /* \"worldcup/GameForecast.sol\":6074:6273  for(uint8 i = 0; i < 4; ++i) {... */\n    tag_286:\n        /* \"worldcup/GameForecast.sol\":6095:6096  4 */\n      0x04\n        /* \"worldcup/GameForecast.sol\":6091:6092  i */\n      dup2\n        /* \"worldcup/GameForecast.sol\":6091:6096  i < 4 */\n      0xff\n      and\n      lt\n        /* \"worldcup/GameForecast.sol\":6074:6273  for(uint8 i = 0; i < 4; ++i) {... */\n      iszero\n      tag_287\n      jumpi\n        /* \"worldcup/GameForecast.sol\":6122:6129  uint8 j */\n      0x00\n        /* \"worldcup/GameForecast.sol\":6118:6262  for(uint8 j = 0; j < 4; ++j) {... */\n    tag_289:\n        /* \"worldcup/GameForecast.sol\":6139:6140  4 */\n      0x04\n        /* \"worldcup/GameForecast.sol\":6135:6136  j */\n      dup2\n        /* \"worldcup/GameForecast.sol\":6135:6140  j < 4 */\n      0xff\n      and\n      lt\n        /* \"worldcup/GameForecast.sol\":6118:6262  for(uint8 j = 0; j < 4; ++j) {... */\n      iszero\n      tag_290\n      jumpi\n        /* \"worldcup/GameForecast.sol\":6182:6194  winnerTeams4 */\n      dup3\n        /* \"worldcup/GameForecast.sol\":6195:6196  j */\n      dup2\n        /* \"worldcup/GameForecast.sol\":6182:6197  winnerTeams4[j] */\n      0xff\n      and\n      0x04\n      dup2\n      lt\n      tag_292\n      jumpi\n      tag_293\n      tag_185\n      jump\t// in\n    tag_293:\n    tag_292:\n      0x20\n      mul\n      add\n      mload\n        /* \"worldcup/GameForecast.sol\":6169:6197  _team4[i] == winnerTeams4[j] */\n      0xff\n      and\n        /* \"worldcup/GameForecast.sol\":6169:6175  _team4 */\n      dup7\n        /* \"worldcup/GameForecast.sol\":6176:6177  i */\n      dup4\n        /* \"worldcup/GameForecast.sol\":6169:6178  _team4[i] */\n      0xff\n      and\n      0x04\n      dup2\n      lt\n      tag_294\n      jumpi\n      tag_295\n      tag_185\n      jump\t// in\n    tag_295:\n    tag_294:\n      0x20\n      mul\n      add\n      mload\n        /* \"worldcup/GameForecast.sol\":6169:6197  _team4[i] == winnerTeams4[j] */\n      0xff\n      and\n      sub\n        /* \"worldcup/GameForecast.sol\":6166:6247  if(_team4[i] == winnerTeams4[j]) {... */\n      tag_296\n      jumpi\n        /* \"worldcup/GameForecast.sol\":6222:6227  ret++ */\n      dup4\n      dup1\n      tag_297\n      swap1\n      tag_281\n      jump\t// in\n    tag_297:\n      swap5\n      pop\n      pop\n        /* \"worldcup/GameForecast.sol\":6166:6247  if(_team4[i] == winnerTeams4[j]) {... */\n    tag_296:\n        /* \"worldcup/GameForecast.sol\":6142:6145  ++j */\n      dup1\n      tag_298\n      swap1\n      tag_191\n      jump\t// in\n    tag_298:\n      swap1\n      pop\n        /* \"worldcup/GameForecast.sol\":6118:6262  for(uint8 j = 0; j < 4; ++j) {... */\n      jump(tag_289)\n    tag_290:\n      pop\n        /* \"worldcup/GameForecast.sol\":6098:6101  ++i */\n      dup1\n      tag_299\n      swap1\n      tag_191\n      jump\t// in\n    tag_299:\n      swap1\n      pop\n        /* \"worldcup/GameForecast.sol\":6074:6273  for(uint8 i = 0; i < 4; ++i) {... */\n      jump(tag_286)\n    tag_287:\n      pop\n        /* \"worldcup/GameForecast.sol\":6290:6293  ret */\n      dup2\n        /* \"worldcup/GameForecast.sol\":6283:6293  return ret */\n      swap3\n      pop\n      pop\n      pop\n        /* \"worldcup/GameForecast.sol\":5910:6301  function _hit4(uint8[4] memory _team4) private view returns (uint16) {... */\n      swap2\n      swap1\n      pop\n      jump\t// out\n        /* \"worldcup/GameForecast.sol\":5509:5902  function _hit8(uint8[8] memory _teams8) private view returns (uint16) {... */\n    tag_210:\n        /* \"worldcup/GameForecast.sol\":5571:5577  uint16 */\n      0x00\n        /* \"worldcup/GameForecast.sol\":5590:5600  uint16 ret */\n      dup1\n        /* \"worldcup/GameForecast.sol\":5611:5639  uint8[8] memory winnerTeams8 */\n      0x00\n        /* \"worldcup/GameForecast.sol\":5642:5663  getGameResultTeams8() */\n      tag_301\n        /* \"worldcup/GameForecast.sol\":5642:5661  getGameResultTeams8 */\n      tag_80\n        /* \"worldcup/GameForecast.sol\":5642:5663  getGameResultTeams8() */\n      jump\t// in\n    tag_301:\n        /* \"worldcup/GameForecast.sol\":5611:5663  uint8[8] memory winnerTeams8 = getGameResultTeams8() */\n      swap1\n      pop\n        /* \"worldcup/GameForecast.sol\":5678:5685  uint8 i */\n      0x00\n        /* \"worldcup/GameForecast.sol\":5674:5874  for(uint8 i = 0; i < 8; ++i) {... */\n    tag_302:\n        /* \"worldcup/GameForecast.sol\":5695:5696  8 */\n      0x08\n        /* \"worldcup/GameForecast.sol\":5691:5692  i */\n      dup2\n        /* \"worldcup/GameForecast.sol\":5691:5696  i < 8 */\n      0xff\n      and\n      lt\n        /* \"worldcup/GameForecast.sol\":5674:5874  for(uint8 i = 0; i < 8; ++i) {... */\n      iszero\n      tag_303\n      jumpi\n        /* \"worldcup/GameForecast.sol\":5722:5729  uint8 j */\n      0x00\n        /* \"worldcup/GameForecast.sol\":5718:5863  for(uint8 j = 0; j < 8; ++j) {... */\n    tag_305:\n        /* \"worldcup/GameForecast.sol\":5739:5740  8 */\n      0x08\n        /* \"worldcup/GameForecast.sol\":5735:5736  j */\n      dup2\n        /* \"worldcup/GameForecast.sol\":5735:5740  j < 8 */\n      0xff\n      and\n      lt\n        /* \"worldcup/GameForecast.sol\":5718:5863  for(uint8 j = 0; j < 8; ++j) {... */\n      iszero\n      tag_306\n      jumpi\n        /* \"worldcup/GameForecast.sol\":5783:5795  winnerTeams8 */\n      dup3\n        /* \"worldcup/GameForecast.sol\":5796:5797  j */\n      dup2\n        /* \"worldcup/GameForecast.sol\":5783:5798  winnerTeams8[j] */\n      0xff\n      and\n      0x08\n      dup2\n      lt\n      tag_308\n      jumpi\n      tag_309\n      tag_185\n      jump\t// in\n    tag_309:\n    tag_308:\n      0x20\n      mul\n      add\n      mload\n        /* \"worldcup/GameForecast.sol\":5769:5798  _teams8[i] == winnerTeams8[j] */\n      0xff\n      and\n        /* \"worldcup/GameForecast.sol\":5769:5776  _teams8 */\n      dup7\n        /* \"worldcup/GameForecast.sol\":5777:5778  i */\n      dup4\n        /* \"worldcup/GameForecast.sol\":5769:5779  _teams8[i] */\n      0xff\n      and\n      0x08\n      dup2\n      lt\n      tag_310\n      jumpi\n      tag_311\n      tag_185\n      jump\t// in\n    tag_311:\n    tag_310:\n      0x20\n      mul\n      add\n      mload\n        /* \"worldcup/GameForecast.sol\":5769:5798  _teams8[i] == winnerTeams8[j] */\n      0xff\n      and\n      sub\n        /* \"worldcup/GameForecast.sol\":5766:5848  if(_teams8[i] == winnerTeams8[j]) {... */\n      tag_312\n      jumpi\n        /* \"worldcup/GameForecast.sol\":5823:5828  ret++ */\n      dup4\n      dup1\n      tag_313\n      swap1\n      tag_281\n      jump\t// in\n    tag_313:\n      swap5\n      pop\n      pop\n        /* \"worldcup/GameForecast.sol\":5766:5848  if(_teams8[i] == winnerTeams8[j]) {... */\n    tag_312:\n        /* \"worldcup/GameForecast.sol\":5742:5745  ++j */\n      dup1\n      tag_314\n      swap1\n      tag_191\n      jump\t// in\n    tag_314:\n      swap1\n      pop\n        /* \"worldcup/GameForecast.sol\":5718:5863  for(uint8 j = 0; j < 8; ++j) {... */\n      jump(tag_305)\n    tag_306:\n      pop\n        /* \"worldcup/GameForecast.sol\":5698:5701  ++i */\n      dup1\n      tag_315\n      swap1\n      tag_191\n      jump\t// in\n    tag_315:\n      swap1\n      pop\n        /* \"worldcup/GameForecast.sol\":5674:5874  for(uint8 i = 0; i < 8; ++i) {... */\n      jump(tag_302)\n    tag_303:\n      pop\n        /* \"worldcup/GameForecast.sol\":5891:5894  ret */\n      dup2\n        /* \"worldcup/GameForecast.sol\":5884:5894  return ret */\n      swap3\n      pop\n      pop\n      pop\n        /* \"worldcup/GameForecast.sol\":5509:5902  function _hit8(uint8[8] memory _teams8) private view returns (uint16) {... */\n      swap2\n      swap1\n      pop\n      jump\t// out\n        /* \"worldcup/GameForecast.sol\":2946:3782  function _checkTeams8(uint8[8] calldata _teams8) private view {... */\n    tag_247:\n        /* \"worldcup/GameForecast.sol\":3041:3047  team16 */\n      0x03\n        /* \"worldcup/GameForecast.sol\":3048:3049  0 */\n      0x00\n        /* \"worldcup/GameForecast.sol\":3041:3050  team16[0] */\n      0x10\n      dup2\n      lt\n      tag_317\n      jumpi\n      tag_318\n      tag_185\n      jump\t// in\n    tag_318:\n    tag_317:\n      0x20\n      swap2\n      dup3\n      dup3\n      div\n      add\n      swap2\n      swap1\n      mod\n      swap1\n      sload\n      swap1\n      0x0100\n      exp\n      swap1\n      div\n      0xff\n      and\n        /* \"worldcup/GameForecast.sol\":3027:3050  _teams8[0] == team16[0] */\n      0xff\n      and\n        /* \"worldcup/GameForecast.sol\":3027:3034  _teams8 */\n      dup2\n        /* \"worldcup/GameForecast.sol\":3035:3036  0 */\n      0x00\n        /* \"worldcup/GameForecast.sol\":3027:3037  _teams8[0] */\n      0x08\n      dup2\n      lt\n      tag_320\n      jumpi\n      tag_321\n      tag_185\n      jump\t// in\n    tag_321:\n    tag_320:\n      0x20\n      mul\n      add\n      0x20\n      dup2\n      add\n      swap1\n      tag_322\n      swap2\n      swap1\n      tag_187\n      jump\t// in\n    tag_322:\n        /* \"worldcup/GameForecast.sol\":3027:3050  _teams8[0] == team16[0] */\n      0xff\n      and\n      eq\n        /* \"worldcup/GameForecast.sol\":3027:3077  _teams8[0] == team16[0] || _teams8[0] == team16[1] */\n      dup1\n      tag_323\n      jumpi\n      pop\n        /* \"worldcup/GameForecast.sol\":3068:3074  team16 */\n      0x03\n        /* \"worldcup/GameForecast.sol\":3075:3076  1 */\n      0x01\n        /* \"worldcup/GameForecast.sol\":3068:3077  team16[1] */\n      0x10\n      dup2\n      lt\n      tag_324\n      jumpi\n      tag_325\n      tag_185\n      jump\t// in\n    tag_325:\n    tag_324:\n      0x20\n      swap2\n      dup3\n      dup3\n      div\n      add\n      swap2\n      swap1\n      mod\n      swap1\n      sload\n      swap1\n      0x0100\n      exp\n      swap1\n      div\n      0xff\n      and\n        /* \"worldcup/GameForecast.sol\":3054:3077  _teams8[0] == team16[1] */\n      0xff\n      and\n        /* \"worldcup/GameForecast.sol\":3054:3061  _teams8 */\n      dup2\n        /* \"worldcup/GameForecast.sol\":3062:3063  0 */\n      0x00\n        /* \"worldcup/GameForecast.sol\":3054:3064  _teams8[0] */\n      0x08\n      dup2\n      lt\n      tag_327\n      jumpi\n      tag_328\n      tag_185\n      jump\t// in\n    tag_328:\n    tag_327:\n      0x20\n      mul\n      add\n      0x20\n      dup2\n      add\n      swap1\n      tag_329\n      swap2\n      swap1\n      tag_187\n      jump\t// in\n    tag_329:\n        /* \"worldcup/GameForecast.sol\":3054:3077  _teams8[0] == team16[1] */\n      0xff\n      and\n      eq\n        /* \"worldcup/GameForecast.sol\":3027:3077  _teams8[0] == team16[0] || _teams8[0] == team16[1] */\n    tag_323:\n        /* \"worldcup/GameForecast.sol\":3019:3103  require(_teams8[0] == team16[0] || _teams8[0] == team16[1], \"teams8 not in teams16\") */\n      tag_330\n      jumpi\n      mload(0x40)\n      0x08c379a000000000000000000000000000000000000000000000000000000000\n      dup2\n      mstore\n      0x04\n      add\n      tag_331\n      swap1\n      tag_332\n      jump\t// in\n    tag_331:\n      mload(0x40)\n      dup1\n      swap2\n      sub\n      swap1\n      revert\n    tag_330:\n        /* \"worldcup/GameForecast.sol\":3136:3142  team16 */\n      0x03\n        /* \"worldcup/GameForecast.sol\":3143:3144  2 */\n      0x02\n        /* \"worldcup/GameForecast.sol\":3136:3145  team16[2] */\n      0x10\n      dup2\n      lt\n      tag_333\n      jumpi\n      tag_334\n      tag_185\n      jump\t// in\n    tag_334:\n    tag_333:\n      0x20\n      swap2\n      dup3\n      dup3\n      div\n      add\n      swap2\n      swap1\n      mod\n      swap1\n      sload\n      swap1\n      0x0100\n      exp\n      swap1\n      div\n      0xff\n      and\n        /* \"worldcup/GameForecast.sol\":3122:3145  _teams8[1] == team16[2] */\n      0xff\n      and\n        /* \"worldcup/GameForecast.sol\":3122:3129  _teams8 */\n      dup2\n        /* \"worldcup/GameForecast.sol\":3130:3131  1 */\n      0x01\n        /* \"worldcup/GameForecast.sol\":3122:3132  _teams8[1] */\n      0x08\n      dup2\n      lt\n      tag_336\n      jumpi\n      tag_337\n      tag_185\n      jump\t// in\n    tag_337:\n    tag_336:\n      0x20\n      mul\n      add\n      0x20\n      dup2\n      add\n      swap1\n      tag_338\n      swap2\n      swap1\n      tag_187\n      jump\t// in\n    tag_338:\n        /* \"worldcup/GameForecast.sol\":3122:3145  _teams8[1] == team16[2] */\n      0xff\n      and\n      eq\n        /* \"worldcup/GameForecast.sol\":3122:3172  _teams8[1] == team16[2] || _teams8[1] == team16[3] */\n      dup1\n      tag_339\n      jumpi\n      pop\n        /* \"worldcup/GameForecast.sol\":3163:3169  team16 */\n      0x03\n        /* \"worldcup/GameForecast.sol\":3170:3171  3 */\n      dup1\n        /* \"worldcup/GameForecast.sol\":3163:3172  team16[3] */\n      0x10\n      dup2\n      lt\n      tag_340\n      jumpi\n      tag_341\n      tag_185\n      jump\t// in\n    tag_341:\n    tag_340:\n      0x20\n      swap2\n      dup3\n      dup3\n      div\n      add\n      swap2\n      swap1\n      mod\n      swap1\n      sload\n      swap1\n      0x0100\n      exp\n      swap1\n      div\n      0xff\n      and\n        /* \"worldcup/GameForecast.sol\":3149:3172  _teams8[1] == team16[3] */\n      0xff\n      and\n        /* \"worldcup/GameForecast.sol\":3149:3156  _teams8 */\n      dup2\n        /* \"worldcup/GameForecast.sol\":3157:3158  1 */\n      0x01\n        /* \"worldcup/GameForecast.sol\":3149:3159  _teams8[1] */\n      0x08\n      dup2\n      lt\n      tag_343\n      jumpi\n      tag_344\n      tag_185\n      jump\t// in\n    tag_344:\n    tag_343:\n      0x20\n      mul\n      add\n      0x20\n      dup2\n      add\n      swap1\n      tag_345\n      swap2\n      swap1\n      tag_187\n      jump\t// in\n    tag_345:\n        /* \"worldcup/GameForecast.sol\":3149:3172  _teams8[1] == team16[3] */\n      0xff\n      and\n      eq\n        /* \"worldcup/GameForecast.sol\":3122:3172  _teams8[1] == team16[2] || _teams8[1] == team16[3] */\n    tag_339:\n        /* \"worldcup/GameForecast.sol\":3114:3198  require(_teams8[1] == team16[2] || _teams8[1] == team16[3], \"teams8 not in teams16\") */\n      tag_346\n      jumpi\n      mload(0x40)\n      0x08c379a000000000000000000000000000000000000000000000000000000000\n      dup2\n      mstore\n      0x04\n      add\n      tag_347\n      swap1\n      tag_332\n      jump\t// in\n    tag_347:\n      mload(0x40)\n      dup1\n      swap2\n      sub\n      swap1\n      revert\n    tag_346:\n        /* \"worldcup/GameForecast.sol\":3231:3237  team16 */\n      0x03\n        /* \"worldcup/GameForecast.sol\":3238:3239  4 */\n      0x04\n        /* \"worldcup/GameForecast.sol\":3231:3240  team16[4] */\n      0x10\n      dup2\n      lt\n      tag_348\n      jumpi\n      tag_349\n      tag_185\n      jump\t// in\n    tag_349:\n    tag_348:\n      0x20\n      swap2\n      dup3\n      dup3\n      div\n      add\n      swap2\n      swap1\n      mod\n      swap1\n      sload\n      swap1\n      0x0100\n      exp\n      swap1\n      div\n      0xff\n      and\n        /* \"worldcup/GameForecast.sol\":3217:3240  _teams8[2] == team16[4] */\n      0xff\n      and\n        /* \"worldcup/GameForecast.sol\":3217:3224  _teams8 */\n      dup2\n        /* \"worldcup/GameForecast.sol\":3225:3226  2 */\n      0x02\n        /* \"worldcup/GameForecast.sol\":3217:3227  _teams8[2] */\n      0x08\n      dup2\n      lt\n      tag_351\n      jumpi\n      tag_352\n      tag_185\n      jump\t// in\n    tag_352:\n    tag_351:\n      0x20\n      mul\n      add\n      0x20\n      dup2\n      add\n      swap1\n      tag_353\n      swap2\n      swap1\n      tag_187\n      jump\t// in\n    tag_353:\n        /* \"worldcup/GameForecast.sol\":3217:3240  _teams8[2] == team16[4] */\n      0xff\n      and\n      eq\n        /* \"worldcup/GameForecast.sol\":3217:3267  _teams8[2] == team16[4] || _teams8[2] == team16[5] */\n      dup1\n      tag_354\n      jumpi\n      pop\n        /* \"worldcup/GameForecast.sol\":3258:3264  team16 */\n      0x03\n        /* \"worldcup/GameForecast.sol\":3265:3266  5 */\n      0x05\n        /* \"worldcup/GameForecast.sol\":3258:3267  team16[5] */\n      0x10\n      dup2\n      lt\n      tag_355\n      jumpi\n      tag_356\n      tag_185\n      jump\t// in\n    tag_356:\n    tag_355:\n      0x20\n      swap2\n      dup3\n      dup3\n      div\n      add\n      swap2\n      swap1\n      mod\n      swap1\n      sload\n      swap1\n      0x0100\n      exp\n      swap1\n      div\n      0xff\n      and\n        /* \"worldcup/GameForecast.sol\":3244:3267  _teams8[2] == team16[5] */\n      0xff\n      and\n        /* \"worldcup/GameForecast.sol\":3244:3251  _teams8 */\n      dup2\n        /* \"worldcup/GameForecast.sol\":3252:3253  2 */\n      0x02\n        /* \"worldcup/GameForecast.sol\":3244:3254  _teams8[2] */\n      0x08\n      dup2\n      lt\n      tag_358\n      jumpi\n      tag_359\n      tag_185\n      jump\t// in\n    tag_359:\n    tag_358:\n      0x20\n      mul\n      add\n      0x20\n      dup2\n      add\n      swap1\n      tag_360\n      swap2\n      swap1\n      tag_187\n      jump\t// in\n    tag_360:\n        /* \"worldcup/GameForecast.sol\":3244:3267  _teams8[2] == team16[5] */\n      0xff\n      and\n      eq\n        /* \"worldcup/GameForecast.sol\":3217:3267  _teams8[2] == team16[4] || _teams8[2] == team16[5] */\n    tag_354:\n        /* \"worldcup/GameForecast.sol\":3209:3293  require(_teams8[2] == team16[4] || _teams8[2] == team16[5], \"teams8 not in teams16\") */\n      tag_361\n      jumpi\n      mload(0x40)\n      0x08c379a000000000000000000000000000000000000000000000000000000000\n      dup2\n      mstore\n      0x04\n      add\n      tag_362\n      swap1\n      tag_332\n      jump\t// in\n    tag_362:\n      mload(0x40)\n      dup1\n      swap2\n      sub\n      swap1\n      revert\n    tag_361:\n        /* \"worldcup/GameForecast.sol\":3326:3332  team16 */\n      0x03\n        /* \"worldcup/GameForecast.sol\":3333:3334  6 */\n      0x06\n        /* \"worldcup/GameForecast.sol\":3326:3335  team16[6] */\n      0x10\n      dup2\n      lt\n      tag_363\n      jumpi\n      tag_364\n      tag_185\n      jump\t// in\n    tag_364:\n    tag_363:\n      0x20\n      swap2\n      dup3\n      dup3\n      div\n      add\n      swap2\n      swap1\n      mod\n      swap1\n      sload\n      swap1\n      0x0100\n      exp\n      swap1\n      div\n      0xff\n      and\n        /* \"worldcup/GameForecast.sol\":3312:3335  _teams8[3] == team16[6] */\n      0xff\n      and\n        /* \"worldcup/GameForecast.sol\":3312:3319  _teams8 */\n      dup2\n        /* \"worldcup/GameForecast.sol\":3320:3321  3 */\n      0x03\n        /* \"worldcup/GameForecast.sol\":3312:3322  _teams8[3] */\n      0x08\n      dup2\n      lt\n      tag_366\n      jumpi\n      tag_367\n      tag_185\n      jump\t// in\n    tag_367:\n    tag_366:\n      0x20\n      mul\n      add\n      0x20\n      dup2\n      add\n      swap1\n      tag_368\n      swap2\n      swap1\n      tag_187\n      jump\t// in\n    tag_368:\n        /* \"worldcup/GameForecast.sol\":3312:3335  _teams8[3] == team16[6] */\n      0xff\n      and\n      eq\n        /* \"worldcup/GameForecast.sol\":3312:3362  _teams8[3] == team16[6] || _teams8[3] == team16[7] */\n      dup1\n      tag_369\n      jumpi\n      pop\n        /* \"worldcup/GameForecast.sol\":3353:3359  team16 */\n      0x03\n        /* \"worldcup/GameForecast.sol\":3360:3361  7 */\n      0x07\n        /* \"worldcup/GameForecast.sol\":3353:3362  team16[7] */\n      0x10\n      dup2\n      lt\n      tag_370\n      jumpi\n      tag_371\n      tag_185\n      jump\t// in\n    tag_371:\n    tag_370:\n      0x20\n      swap2\n      dup3\n      dup3\n      div\n      add\n      swap2\n      swap1\n      mod\n      swap1\n      sload\n      swap1\n      0x0100\n      exp\n      swap1\n      div\n      0xff\n      and\n        /* \"worldcup/GameForecast.sol\":3339:3362  _teams8[3] == team16[7] */\n      0xff\n      and\n        /* \"worldcup/GameForecast.sol\":3339:3346  _teams8 */\n      dup2\n        /* \"worldcup/GameForecast.sol\":3347:3348  3 */\n      0x03\n        /* \"worldcup/GameForecast.sol\":3339:3349  _teams8[3] */\n      0x08\n      dup2\n      lt\n      tag_373\n      jumpi\n      tag_374\n      tag_185\n      jump\t// in\n    tag_374:\n    tag_373:\n      0x20\n      mul\n      add\n      0x20\n      dup2\n      add\n      swap1\n      tag_375\n      swap2\n      swap1\n      tag_187\n      jump\t// in\n    tag_375:\n        /* \"worldcup/GameForecast.sol\":3339:3362  _teams8[3] == team16[7] */\n      0xff\n      and\n      eq\n        /* \"worldcup/GameForecast.sol\":3312:3362  _teams8[3] == team16[6] || _teams8[3] == team16[7] */\n    tag_369:\n        /* \"worldcup/GameForecast.sol\":3304:3388  require(_teams8[3] == team16[6] || _teams8[3] == team16[7], \"teams8 not in teams16\") */\n      tag_376\n      jumpi\n      mload(0x40)\n      0x08c379a000000000000000000000000000000000000000000000000000000000\n      dup2\n      mstore\n      0x04\n      add\n      tag_377\n      swap1\n      tag_332\n      jump\t// in\n    tag_377:\n      mload(0x40)\n      dup1\n      swap2\n      sub\n      swap1\n      revert\n    tag_376:\n        /* \"worldcup/GameForecast.sol\":3421:3427  team16 */\n      0x03\n        /* \"worldcup/GameForecast.sol\":3428:3429  8 */\n      0x08\n        /* \"worldcup/GameForecast.sol\":3421:3430  team16[8] */\n      0x10\n      dup2\n      lt\n      tag_378\n      jumpi\n      tag_379\n      tag_185\n      jump\t// in\n    tag_379:\n    tag_378:\n      0x20\n      swap2\n      dup3\n      dup3\n      div\n      add\n      swap2\n      swap1\n      mod\n      swap1\n      sload\n      swap1\n      0x0100\n      exp\n      swap1\n      div\n      0xff\n      and\n        /* \"worldcup/GameForecast.sol\":3407:3430  _teams8[4] == team16[8] */\n      0xff\n      and\n        /* \"worldcup/GameForecast.sol\":3407:3414  _teams8 */\n      dup2\n        /* \"worldcup/GameForecast.sol\":3415:3416  4 */\n      0x04\n        /* \"worldcup/GameForecast.sol\":3407:3417  _teams8[4] */\n      0x08\n      dup2\n      lt\n      tag_381\n      jumpi\n      tag_382\n      tag_185\n      jump\t// in\n    tag_382:\n    tag_381:\n      0x20\n      mul\n      add\n      0x20\n      dup2\n      add\n      swap1\n      tag_383\n      swap2\n      swap1\n      tag_187\n      jump\t// in\n    tag_383:\n        /* \"worldcup/GameForecast.sol\":3407:3430  _teams8[4] == team16[8] */\n      0xff\n      and\n      eq\n        /* \"worldcup/GameForecast.sol\":3407:3457  _teams8[4] == team16[8] || _teams8[4] == team16[9] */\n      dup1\n      tag_384\n      jumpi\n      pop\n        /* \"worldcup/GameForecast.sol\":3448:3454  team16 */\n      0x03\n        /* \"worldcup/GameForecast.sol\":3455:3456  9 */\n      0x09\n        /* \"worldcup/GameForecast.sol\":3448:3457  team16[9] */\n      0x10\n      dup2\n      lt\n      tag_385\n      jumpi\n      tag_386\n      tag_185\n      jump\t// in\n    tag_386:\n    tag_385:\n      0x20\n      swap2\n      dup3\n      dup3\n      div\n      add\n      swap2\n      swap1\n      mod\n      swap1\n      sload\n      swap1\n      0x0100\n      exp\n      swap1\n      div\n      0xff\n      and\n        /* \"worldcup/GameForecast.sol\":3434:3457  _teams8[4] == team16[9] */\n      0xff\n      and\n        /* \"worldcup/GameForecast.sol\":3434:3441  _teams8 */\n      dup2\n        /* \"worldcup/GameForecast.sol\":3442:3443  4 */\n      0x04\n        /* \"worldcup/GameForecast.sol\":3434:3444  _teams8[4] */\n      0x08\n      dup2\n      lt\n      tag_388\n      jumpi\n      tag_389\n      tag_185\n      jump\t// in\n    tag_389:\n    tag_388:\n      0x20\n      mul\n      add\n      0x20\n      dup2\n      add\n      swap1\n      tag_390\n      swap2\n      swap1\n      tag_187\n      jump\t// in\n    tag_390:\n        /* \"worldcup/GameForecast.sol\":3434:3457  _teams8[4] == team16[9] */\n      0xff\n      and\n      eq\n        /* \"worldcup/GameForecast.sol\":3407:3457  _teams8[4] == team16[8] || _teams8[4] == team16[9] */\n    tag_384:\n        /* \"worldcup/GameForecast.sol\":3399:3483  require(_teams8[4] == team16[8] || _teams8[4] == team16[9], \"teams8 not in teams16\") */\n      tag_391\n      jumpi\n      mload(0x40)\n      0x08c379a000000000000000000000000000000000000000000000000000000000\n      dup2\n      mstore\n      0x04\n      add\n      tag_392\n      swap1\n      tag_332\n      jump\t// in\n    tag_392:\n      mload(0x40)\n      dup1\n      swap2\n      sub\n      swap1\n      revert\n    tag_391:\n        /* \"worldcup/GameForecast.sol\":3516:3522  team16 */\n      0x03\n        /* \"worldcup/GameForecast.sol\":3523:3525  10 */\n      0x0a\n        /* \"worldcup/GameForecast.sol\":3516:3526  team16[10] */\n      0x10\n      dup2\n      lt\n      tag_393\n      jumpi\n      tag_394\n      tag_185\n      jump\t// in\n    tag_394:\n    tag_393:\n      0x20\n      swap2\n      dup3\n      dup3\n      div\n      add\n      swap2\n      swap1\n      mod\n      swap1\n      sload\n      swap1\n      0x0100\n      exp\n      swap1\n      div\n      0xff\n      and\n        /* \"worldcup/GameForecast.sol\":3502:3526  _teams8[5] == team16[10] */\n      0xff\n      and\n        /* \"worldcup/GameForecast.sol\":3502:3509  _teams8 */\n      dup2\n        /* \"worldcup/GameForecast.sol\":3510:3511  5 */\n      0x05\n        /* \"worldcup/GameForecast.sol\":3502:3512  _teams8[5] */\n      0x08\n      dup2\n      lt\n      tag_396\n      jumpi\n      tag_397\n      tag_185\n      jump\t// in\n    tag_397:\n    tag_396:\n      0x20\n      mul\n      add\n      0x20\n      dup2\n      add\n      swap1\n      tag_398\n      swap2\n      swap1\n      tag_187\n      jump\t// in\n    tag_398:\n        /* \"worldcup/GameForecast.sol\":3502:3526  _teams8[5] == team16[10] */\n      0xff\n      and\n      eq\n        /* \"worldcup/GameForecast.sol\":3502:3554  _teams8[5] == team16[10] || _teams8[5] == team16[11] */\n      dup1\n      tag_399\n      jumpi\n      pop\n        /* \"worldcup/GameForecast.sol\":3544:3550  team16 */\n      0x03\n        /* \"worldcup/GameForecast.sol\":3551:3553  11 */\n      0x0b\n        /* \"worldcup/GameForecast.sol\":3544:3554  team16[11] */\n      0x10\n      dup2\n      lt\n      tag_400\n      jumpi\n      tag_401\n      tag_185\n      jump\t// in\n    tag_401:\n    tag_400:\n      0x20\n      swap2\n      dup3\n      dup3\n      div\n      add\n      swap2\n      swap1\n      mod\n      swap1\n      sload\n      swap1\n      0x0100\n      exp\n      swap1\n      div\n      0xff\n      and\n        /* \"worldcup/GameForecast.sol\":3530:3554  _teams8[5] == team16[11] */\n      0xff\n      and\n        /* \"worldcup/GameForecast.sol\":3530:3537  _teams8 */\n      dup2\n        /* \"worldcup/GameForecast.sol\":3538:3539  5 */\n      0x05\n        /* \"worldcup/GameForecast.sol\":3530:3540  _teams8[5] */\n      0x08\n      dup2\n      lt\n      tag_403\n      jumpi\n      tag_404\n      tag_185\n      jump\t// in\n    tag_404:\n    tag_403:\n      0x20\n      mul\n      add\n      0x20\n      dup2\n      add\n      swap1\n      tag_405\n      swap2\n      swap1\n      tag_187\n      jump\t// in\n    tag_405:\n        /* \"worldcup/GameForecast.sol\":3530:3554  _teams8[5] == team16[11] */\n      0xff\n      and\n      eq\n        /* \"worldcup/GameForecast.sol\":3502:3554  _teams8[5] == team16[10] || _teams8[5] == team16[11] */\n    tag_399:\n        /* \"worldcup/GameForecast.sol\":3494:3580  require(_teams8[5] == team16[10] || _teams8[5] == team16[11], \"teams8 not in teams16\") */\n      tag_406\n      jumpi\n      mload(0x40)\n      0x08c379a000000000000000000000000000000000000000000000000000000000\n      dup2\n      mstore\n      0x04\n      add\n      tag_407\n      swap1\n      tag_332\n      jump\t// in\n    tag_407:\n      mload(0x40)\n      dup1\n      swap2\n      sub\n      swap1\n      revert\n    tag_406:\n        /* \"worldcup/GameForecast.sol\":3613:3619  team16 */\n      0x03\n        /* \"worldcup/GameForecast.sol\":3620:3622  12 */\n      0x0c\n        /* \"worldcup/GameForecast.sol\":3613:3623  team16[12] */\n      0x10\n      dup2\n      lt\n      tag_408\n      jumpi\n      tag_409\n      tag_185\n      jump\t// in\n    tag_409:\n    tag_408:\n      0x20\n      swap2\n      dup3\n      dup3\n      div\n      add\n      swap2\n      swap1\n      mod\n      swap1\n      sload\n      swap1\n      0x0100\n      exp\n      swap1\n      div\n      0xff\n      and\n        /* \"worldcup/GameForecast.sol\":3599:3623  _teams8[6] == team16[12] */\n      0xff\n      and\n        /* \"worldcup/GameForecast.sol\":3599:3606  _teams8 */\n      dup2\n        /* \"worldcup/GameForecast.sol\":3607:3608  6 */\n      0x06\n        /* \"worldcup/GameForecast.sol\":3599:3609  _teams8[6] */\n      0x08\n      dup2\n      lt\n      tag_411\n      jumpi\n      tag_412\n      tag_185\n      jump\t// in\n    tag_412:\n    tag_411:\n      0x20\n      mul\n      add\n      0x20\n      dup2\n      add\n      swap1\n      tag_413\n      swap2\n      swap1\n      tag_187\n      jump\t// in\n    tag_413:\n        /* \"worldcup/GameForecast.sol\":3599:3623  _teams8[6] == team16[12] */\n      0xff\n      and\n      eq\n        /* \"worldcup/GameForecast.sol\":3599:3651  _teams8[6] == team16[12] || _teams8[6] == team16[13] */\n      dup1\n      tag_414\n      jumpi\n      pop\n        /* \"worldcup/GameForecast.sol\":3641:3647  team16 */\n      0x03\n        /* \"worldcup/GameForecast.sol\":3648:3650  13 */\n      0x0d\n        /* \"worldcup/GameForecast.sol\":3641:3651  team16[13] */\n      0x10\n      dup2\n      lt\n      tag_415\n      jumpi\n      tag_416\n      tag_185\n      jump\t// in\n    tag_416:\n    tag_415:\n      0x20\n      swap2\n      dup3\n      dup3\n      div\n      add\n      swap2\n      swap1\n      mod\n      swap1\n      sload\n      swap1\n      0x0100\n      exp\n      swap1\n      div\n      0xff\n      and\n        /* \"worldcup/GameForecast.sol\":3627:3651  _teams8[6] == team16[13] */\n      0xff\n      and\n        /* \"worldcup/GameForecast.sol\":3627:3634  _teams8 */\n      dup2\n        /* \"worldcup/GameForecast.sol\":3635:3636  6 */\n      0x06\n        /* \"worldcup/GameForecast.sol\":3627:3637  _teams8[6] */\n      0x08\n      dup2\n      lt\n      tag_418\n      jumpi\n      tag_419\n      tag_185\n      jump\t// in\n    tag_419:\n    tag_418:\n      0x20\n      mul\n      add\n      0x20\n      dup2\n      add\n      swap1\n      tag_420\n      swap2\n      swap1\n      tag_187\n      jump\t// in\n    tag_420:\n        /* \"worldcup/GameForecast.sol\":3627:3651  _teams8[6] == team16[13] */\n      0xff\n      and\n      eq\n        /* \"worldcup/GameForecast.sol\":3599:3651  _teams8[6] == team16[12] || _teams8[6] == team16[13] */\n    tag_414:\n        /* \"worldcup/GameForecast.sol\":3591:3677  require(_teams8[6] == team16[12] || _teams8[6] == team16[13], \"teams8 not in teams16\") */\n      tag_421\n      jumpi\n      mload(0x40)\n      0x08c379a000000000000000000000000000000000000000000000000000000000\n      dup2\n      mstore\n      0x04\n      add\n      tag_422\n      swap1\n      tag_332\n      jump\t// in\n    tag_422:\n      mload(0x40)\n      dup1\n      swap2\n      sub\n      swap1\n      revert\n    tag_421:\n        /* \"worldcup/GameForecast.sol\":3710:3716  team16 */\n      0x03\n        /* \"worldcup/GameForecast.sol\":3717:3719  14 */\n      0x0e\n        /* \"worldcup/GameForecast.sol\":3710:3720  team16[14] */\n      0x10\n      dup2\n      lt\n      tag_423\n      jumpi\n      tag_424\n      tag_185\n      jump\t// in\n    tag_424:\n    tag_423:\n      0x20\n      swap2\n      dup3\n      dup3\n      div\n      add\n      swap2\n      swap1\n      mod\n      swap1\n      sload\n      swap1\n      0x0100\n      exp\n      swap1\n      div\n      0xff\n      and\n        /* \"worldcup/GameForecast.sol\":3696:3720  _teams8[7] == team16[14] */\n      0xff\n      and\n        /* \"worldcup/GameForecast.sol\":3696:3703  _teams8 */\n      dup2\n        /* \"worldcup/GameForecast.sol\":3704:3705  7 */\n      0x07\n        /* \"worldcup/GameForecast.sol\":3696:3706  _teams8[7] */\n      0x08\n      dup2\n      lt\n      tag_426\n      jumpi\n      tag_427\n      tag_185\n      jump\t// in\n    tag_427:\n    tag_426:\n      0x20\n      mul\n      add\n      0x20\n      dup2\n      add\n      swap1\n      tag_428\n      swap2\n      swap1\n      tag_187\n      jump\t// in\n    tag_428:\n        /* \"worldcup/GameForecast.sol\":3696:3720  _teams8[7] == team16[14] */\n      0xff\n      and\n      eq\n        /* \"worldcup/GameForecast.sol\":3696:3748  _teams8[7] == team16[14] || _teams8[7] == team16[15] */\n      dup1\n      tag_429\n      jumpi\n      pop\n        /* \"worldcup/GameForecast.sol\":3738:3744  team16 */\n      0x03\n        /* \"worldcup/GameForecast.sol\":3745:3747  15 */\n      0x0f\n        /* \"worldcup/GameForecast.sol\":3738:3748  team16[15] */\n      0x10\n      dup2\n      lt\n      tag_430\n      jumpi\n      tag_431\n      tag_185\n      jump\t// in\n    tag_431:\n    tag_430:\n      0x20\n      swap2\n      dup3\n      dup3\n      div\n      add\n      swap2\n      swap1\n      mod\n      swap1\n      sload\n      swap1\n      0x0100\n      exp\n      swap1\n      div\n      0xff\n      and\n        /* \"worldcup/GameForecast.sol\":3724:3748  _teams8[7] == team16[15] */\n      0xff\n      and\n        /* \"worldcup/GameForecast.sol\":3724:3731  _teams8 */\n      dup2\n        /* \"worldcup/GameForecast.sol\":3732:3733  7 */\n      0x07\n        /* \"worldcup/GameForecast.sol\":3724:3734  _teams8[7] */\n      0x08\n      dup2\n      lt\n      tag_433\n      jumpi\n      tag_434\n      tag_185\n      jump\t// in\n    tag_434:\n    tag_433:\n      0x20\n      mul\n      add\n      0x20\n      dup2\n      add\n      swap1\n      tag_435\n      swap2\n      swap1\n      tag_187\n      jump\t// in\n    tag_435:\n        /* \"worldcup/GameForecast.sol\":3724:3748  _teams8[7] == team16[15] */\n      0xff\n      and\n      eq\n        /* \"worldcup/GameForecast.sol\":3696:3748  _teams8[7] == team16[14] || _teams8[7] == team16[15] */\n    tag_429:\n        /* \"worldcup/GameForecast.sol\":3688:3774  require(_teams8[7] == team16[14] || _teams8[7] == team16[15], \"teams8 not in teams16\") */\n      tag_436\n      jumpi\n      mload(0x40)\n      0x08c379a000000000000000000000000000000000000000000000000000000000\n      dup2\n      mstore\n      0x04\n      add\n      tag_437\n      swap1\n      tag_332\n      jump\t// in\n    tag_437:\n      mload(0x40)\n      dup1\n      swap2\n      sub\n      swap1\n      revert\n    tag_436:\n        /* \"worldcup/GameForecast.sol\":2946:3782  function _checkTeams8(uint8[8] calldata _teams8) private view {... */\n      pop\n      jump\t// out\n        /* \"worldcup/GameForecast.sol\":3790:4279  function _checkTeams4(uint8[8] calldata _teams8, uint8[4] calldata _teams4) private pure {... */\n    tag_249:\n        /* \"worldcup/GameForecast.sol\":3912:3919  _teams8 */\n      dup2\n        /* \"worldcup/GameForecast.sol\":3920:3921  0 */\n      0x00\n        /* \"worldcup/GameForecast.sol\":3912:3922  _teams8[0] */\n      0x08\n      dup2\n      lt\n      tag_439\n      jumpi\n      tag_440\n      tag_185\n      jump\t// in\n    tag_440:\n    tag_439:\n      0x20\n      mul\n      add\n      0x20\n      dup2\n      add\n      swap1\n      tag_441\n      swap2\n      swap1\n      tag_187\n      jump\t// in\n    tag_441:\n        /* \"worldcup/GameForecast.sol\":3898:3922  _teams4[0] == _teams8[0] */\n      0xff\n      and\n        /* \"worldcup/GameForecast.sol\":3898:3905  _teams4 */\n      dup2\n        /* \"worldcup/GameForecast.sol\":3906:3907  0 */\n      0x00\n        /* \"worldcup/GameForecast.sol\":3898:3908  _teams4[0] */\n      0x04\n      dup2\n      lt\n      tag_442\n      jumpi\n      tag_443\n      tag_185\n      jump\t// in\n    tag_443:\n    tag_442:\n      0x20\n      mul\n      add\n      0x20\n      dup2\n      add\n      swap1\n      tag_444\n      swap2\n      swap1\n      tag_187\n      jump\t// in\n    tag_444:\n        /* \"worldcup/GameForecast.sol\":3898:3922  _teams4[0] == _teams8[0] */\n      0xff\n      and\n      eq\n        /* \"worldcup/GameForecast.sol\":3898:3950  _teams4[0] == _teams8[0] || _teams4[0] == _teams8[1] */\n      dup1\n      tag_445\n      jumpi\n      pop\n        /* \"worldcup/GameForecast.sol\":3940:3947  _teams8 */\n      dup2\n        /* \"worldcup/GameForecast.sol\":3948:3949  1 */\n      0x01\n        /* \"worldcup/GameForecast.sol\":3940:3950  _teams8[1] */\n      0x08\n      dup2\n      lt\n      tag_446\n      jumpi\n      tag_447\n      tag_185\n      jump\t// in\n    tag_447:\n    tag_446:\n      0x20\n      mul\n      add\n      0x20\n      dup2\n      add\n      swap1\n      tag_448\n      swap2\n      swap1\n      tag_187\n      jump\t// in\n    tag_448:\n        /* \"worldcup/GameForecast.sol\":3926:3950  _teams4[0] == _teams8[1] */\n      0xff\n      and\n        /* \"worldcup/GameForecast.sol\":3926:3933  _teams4 */\n      dup2\n        /* \"worldcup/GameForecast.sol\":3934:3935  0 */\n      0x00\n        /* \"worldcup/GameForecast.sol\":3926:3936  _teams4[0] */\n      0x04\n      dup2\n      lt\n      tag_449\n      jumpi\n      tag_450\n      tag_185\n      jump\t// in\n    tag_450:\n    tag_449:\n      0x20\n      mul\n      add\n      0x20\n      dup2\n      add\n      swap1\n      tag_451\n      swap2\n      swap1\n      tag_187\n      jump\t// in\n    tag_451:\n        /* \"worldcup/GameForecast.sol\":3926:3950  _teams4[0] == _teams8[1] */\n      0xff\n      and\n      eq\n        /* \"worldcup/GameForecast.sol\":3898:3950  _teams4[0] == _teams8[0] || _teams4[0] == _teams8[1] */\n    tag_445:\n        /* \"worldcup/GameForecast.sol\":3890:3977  require(_teams4[0] == _teams8[0] || _teams4[0] == _teams8[1], \"_teams4 not in _teams8\") */\n      tag_452\n      jumpi\n      mload(0x40)\n      0x08c379a000000000000000000000000000000000000000000000000000000000\n      dup2\n      mstore\n      0x04\n      add\n      tag_453\n      swap1\n      tag_454\n      jump\t// in\n    tag_453:\n      mload(0x40)\n      dup1\n      swap2\n      sub\n      swap1\n      revert\n    tag_452:\n        /* \"worldcup/GameForecast.sol\":4010:4017  _teams8 */\n      dup2\n        /* \"worldcup/GameForecast.sol\":4018:4019  2 */\n      0x02\n        /* \"worldcup/GameForecast.sol\":4010:4020  _teams8[2] */\n      0x08\n      dup2\n      lt\n      tag_455\n      jumpi\n      tag_456\n      tag_185\n      jump\t// in\n    tag_456:\n    tag_455:\n      0x20\n      mul\n      add\n      0x20\n      dup2\n      add\n      swap1\n      tag_457\n      swap2\n      swap1\n      tag_187\n      jump\t// in\n    tag_457:\n        /* \"worldcup/GameForecast.sol\":3996:4020  _teams4[1] == _teams8[2] */\n      0xff\n      and\n        /* \"worldcup/GameForecast.sol\":3996:4003  _teams4 */\n      dup2\n        /* \"worldcup/GameForecast.sol\":4004:4005  1 */\n      0x01\n        /* \"worldcup/GameForecast.sol\":3996:4006  _teams4[1] */\n      0x04\n      dup2\n      lt\n      tag_458\n      jumpi\n      tag_459\n      tag_185\n      jump\t// in\n    tag_459:\n    tag_458:\n      0x20\n      mul\n      add\n      0x20\n      dup2\n      add\n      swap1\n      tag_460\n      swap2\n      swap1\n      tag_187\n      jump\t// in\n    tag_460:\n        /* \"worldcup/GameForecast.sol\":3996:4020  _teams4[1] == _teams8[2] */\n      0xff\n      and\n      eq\n        /* \"worldcup/GameForecast.sol\":3996:4048  _teams4[1] == _teams8[2] || _teams4[1] == _teams8[3] */\n      dup1\n      tag_461\n      jumpi\n      pop\n        /* \"worldcup/GameForecast.sol\":4038:4045  _teams8 */\n      dup2\n        /* \"worldcup/GameForecast.sol\":4046:4047  3 */\n      0x03\n        /* \"worldcup/GameForecast.sol\":4038:4048  _teams8[3] */\n      0x08\n      dup2\n      lt\n      tag_462\n      jumpi\n      tag_463\n      tag_185\n      jump\t// in\n    tag_463:\n    tag_462:\n      0x20\n      mul\n      add\n      0x20\n      dup2\n      add\n      swap1\n      tag_464\n      swap2\n      swap1\n      tag_187\n      jump\t// in\n    tag_464:\n        /* \"worldcup/GameForecast.sol\":4024:4048  _teams4[1] == _teams8[3] */\n      0xff\n      and\n        /* \"worldcup/GameForecast.sol\":4024:4031  _teams4 */\n      dup2\n        /* \"worldcup/GameForecast.sol\":4032:4033  1 */\n      0x01\n        /* \"worldcup/GameForecast.sol\":4024:4034  _teams4[1] */\n      0x04\n      dup2\n      lt\n      tag_465\n      jumpi\n      tag_466\n      tag_185\n      jump\t// in\n    tag_466:\n    tag_465:\n      0x20\n      mul\n      add\n      0x20\n      dup2\n      add\n      swap1\n      tag_467\n      swap2\n      swap1\n      tag_187\n      jump\t// in\n    tag_467:\n        /* \"worldcup/GameForecast.sol\":4024:4048  _teams4[1] == _teams8[3] */\n      0xff\n      and\n      eq\n        /* \"worldcup/GameForecast.sol\":3996:4048  _teams4[1] == _teams8[2] || _teams4[1] == _teams8[3] */\n    tag_461:\n        /* \"worldcup/GameForecast.sol\":3988:4075  require(_teams4[1] == _teams8[2] || _teams4[1] == _teams8[3], \"_teams4 not in _teams8\") */\n      tag_468\n      jumpi\n      mload(0x40)\n      0x08c379a000000000000000000000000000000000000000000000000000000000\n      dup2\n      mstore\n      0x04\n      add\n      tag_469\n      swap1\n      tag_454\n      jump\t// in\n    tag_469:\n      mload(0x40)\n      dup1\n      swap2\n      sub\n      swap1\n      revert\n    tag_468:\n        /* \"worldcup/GameForecast.sol\":4108:4115  _teams8 */\n      dup2\n        /* \"worldcup/GameForecast.sol\":4116:4117  4 */\n      0x04\n        /* \"worldcup/GameForecast.sol\":4108:4118  _teams8[4] */\n      0x08\n      dup2\n      lt\n      tag_470\n      jumpi\n      tag_471\n      tag_185\n      jump\t// in\n    tag_471:\n    tag_470:\n      0x20\n      mul\n      add\n      0x20\n      dup2\n      add\n      swap1\n      tag_472\n      swap2\n      swap1\n      tag_187\n      jump\t// in\n    tag_472:\n        /* \"worldcup/GameForecast.sol\":4094:4118  _teams4[2] == _teams8[4] */\n      0xff\n      and\n        /* \"worldcup/GameForecast.sol\":4094:4101  _teams4 */\n      dup2\n        /* \"worldcup/GameForecast.sol\":4102:4103  2 */\n      0x02\n        /* \"worldcup/GameForecast.sol\":4094:4104  _teams4[2] */\n      0x04\n      dup2\n      lt\n      tag_473\n      jumpi\n      tag_474\n      tag_185\n      jump\t// in\n    tag_474:\n    tag_473:\n      0x20\n      mul\n      add\n      0x20\n      dup2\n      add\n      swap1\n      tag_475\n      swap2\n      swap1\n      tag_187\n      jump\t// in\n    tag_475:\n        /* \"worldcup/GameForecast.sol\":4094:4118  _teams4[2] == _teams8[4] */\n      0xff\n      and\n      eq\n        /* \"worldcup/GameForecast.sol\":4094:4146  _teams4[2] == _teams8[4] || _teams4[2] == _teams8[5] */\n      dup1\n      tag_476\n      jumpi\n      pop\n        /* \"worldcup/GameForecast.sol\":4136:4143  _teams8 */\n      dup2\n        /* \"worldcup/GameForecast.sol\":4144:4145  5 */\n      0x05\n        /* \"worldcup/GameForecast.sol\":4136:4146  _teams8[5] */\n      0x08\n      dup2\n      lt\n      tag_477\n      jumpi\n      tag_478\n      tag_185\n      jump\t// in\n    tag_478:\n    tag_477:\n      0x20\n      mul\n      add\n      0x20\n      dup2\n      add\n      swap1\n      tag_479\n      swap2\n      swap1\n      tag_187\n      jump\t// in\n    tag_479:\n        /* \"worldcup/GameForecast.sol\":4122:4146  _teams4[2] == _teams8[5] */\n      0xff\n      and\n        /* \"worldcup/GameForecast.sol\":4122:4129  _teams4 */\n      dup2\n        /* \"worldcup/GameForecast.sol\":4130:4131  2 */\n      0x02\n        /* \"worldcup/GameForecast.sol\":4122:4132  _teams4[2] */\n      0x04\n      dup2\n      lt\n      tag_480\n      jumpi\n      tag_481\n      tag_185\n      jump\t// in\n    tag_481:\n    tag_480:\n      0x20\n      mul\n      add\n      0x20\n      dup2\n      add\n      swap1\n      tag_482\n      swap2\n      swap1\n      tag_187\n      jump\t// in\n    tag_482:\n        /* \"worldcup/GameForecast.sol\":4122:4146  _teams4[2] == _teams8[5] */\n      0xff\n      and\n      eq\n        /* \"worldcup/GameForecast.sol\":4094:4146  _teams4[2] == _teams8[4] || _teams4[2] == _teams8[5] */\n    tag_476:\n        /* \"worldcup/GameForecast.sol\":4086:4173  require(_teams4[2] == _teams8[4] || _teams4[2] == _teams8[5], \"_teams4 not in _teams8\") */\n      tag_483\n      jumpi\n      mload(0x40)\n      0x08c379a000000000000000000000000000000000000000000000000000000000\n      dup2\n      mstore\n      0x04\n      add\n      tag_484\n      swap1\n      tag_454\n      jump\t// in\n    tag_484:\n      mload(0x40)\n      dup1\n      swap2\n      sub\n      swap1\n      revert\n    tag_483:\n        /* \"worldcup/GameForecast.sol\":4206:4213  _teams8 */\n      dup2\n        /* \"worldcup/GameForecast.sol\":4214:4215  6 */\n      0x06\n        /* \"worldcup/GameForecast.sol\":4206:4216  _teams8[6] */\n      0x08\n      dup2\n      lt\n      tag_485\n      jumpi\n      tag_486\n      tag_185\n      jump\t// in\n    tag_486:\n    tag_485:\n      0x20\n      mul\n      add\n      0x20\n      dup2\n      add\n      swap1\n      tag_487\n      swap2\n      swap1\n      tag_187\n      jump\t// in\n    tag_487:\n        /* \"worldcup/GameForecast.sol\":4192:4216  _teams4[3] == _teams8[6] */\n      0xff\n      and\n        /* \"worldcup/GameForecast.sol\":4192:4199  _teams4 */\n      dup2\n        /* \"worldcup/GameForecast.sol\":4200:4201  3 */\n      0x03\n        /* \"worldcup/GameForecast.sol\":4192:4202  _teams4[3] */\n      0x04\n      dup2\n      lt\n      tag_488\n      jumpi\n      tag_489\n      tag_185\n      jump\t// in\n    tag_489:\n    tag_488:\n      0x20\n      mul\n      add\n      0x20\n      dup2\n      add\n      swap1\n      tag_490\n      swap2\n      swap1\n      tag_187\n      jump\t// in\n    tag_490:\n        /* \"worldcup/GameForecast.sol\":4192:4216  _teams4[3] == _teams8[6] */\n      0xff\n      and\n      eq\n        /* \"worldcup/GameForecast.sol\":4192:4244  _teams4[3] == _teams8[6] || _teams4[3] == _teams8[7] */\n      dup1\n      tag_491\n      jumpi\n      pop\n        /* \"worldcup/GameForecast.sol\":4234:4241  _teams8 */\n      dup2\n        /* \"worldcup/GameForecast.sol\":4242:4243  7 */\n      0x07\n        /* \"worldcup/GameForecast.sol\":4234:4244  _teams8[7] */\n      0x08\n      dup2\n      lt\n      tag_492\n      jumpi\n      tag_493\n      tag_185\n      jump\t// in\n    tag_493:\n    tag_492:\n      0x20\n      mul\n      add\n      0x20\n      dup2\n      add\n      swap1\n      tag_494\n      swap2\n      swap1\n      tag_187\n      jump\t// in\n    tag_494:\n        /* \"worldcup/GameForecast.sol\":4220:4244  _teams4[3] == _teams8[7] */\n      0xff\n      and\n        /* \"worldcup/GameForecast.sol\":4220:4227  _teams4 */\n      dup2\n        /* \"worldcup/GameForecast.sol\":4228:4229  3 */\n      0x03\n        /* \"worldcup/GameForecast.sol\":4220:4230  _teams4[3] */\n      0x04\n      dup2\n      lt\n      tag_495\n      jumpi\n      tag_496\n      tag_185\n      jump\t// in\n    tag_496:\n    tag_495:\n      0x20\n      mul\n      add\n      0x20\n      dup2\n      add\n      swap1\n      tag_497\n      swap2\n      swap1\n      tag_187\n      jump\t// in\n    tag_497:\n        /* \"worldcup/GameForecast.sol\":4220:4244  _teams4[3] == _teams8[7] */\n      0xff\n      and\n      eq\n        /* \"worldcup/GameForecast.sol\":4192:4244  _teams4[3] == _teams8[6] || _teams4[3] == _teams8[7] */\n    tag_491:\n        /* \"worldcup/GameForecast.sol\":4184:4271  require(_teams4[3] == _teams8[6] || _teams4[3] == _teams8[7], \"_teams4 not in _teams8\") */\n      tag_498\n      jumpi\n      mload(0x40)\n      0x08c379a000000000000000000000000000000000000000000000000000000000\n      dup2\n      mstore\n      0x04\n      add\n      tag_499\n      swap1\n      tag_454\n      jump\t// in\n    tag_499:\n      mload(0x40)\n      dup1\n      swap2\n      sub\n      swap1\n      revert\n    tag_498:\n        /* \"worldcup/GameForecast.sol\":3790:4279  function _checkTeams4(uint8[8] calldata _teams8, uint8[4] calldata _teams4) private pure {... */\n      pop\n      pop\n      jump\t// out\n        /* \"worldcup/GameForecast.sol\":4287:4580  function _checkTeams2(uint8[4] calldata _teams4, uint8[2] calldata _teams2) private pure {... */\n    tag_251:\n        /* \"worldcup/GameForecast.sol\":4409:4416  _teams4 */\n      dup2\n        /* \"worldcup/GameForecast.sol\":4417:4418  0 */\n      0x00\n        /* \"worldcup/GameForecast.sol\":4409:4419  _teams4[0] */\n      0x04\n      dup2\n      lt\n      tag_501\n      jumpi\n      tag_502\n      tag_185\n      jump\t// in\n    tag_502:\n    tag_501:\n      0x20\n      mul\n      add\n      0x20\n      dup2\n      add\n      swap1\n      tag_503\n      swap2\n      swap1\n      tag_187\n      jump\t// in\n    tag_503:\n        /* \"worldcup/GameForecast.sol\":4395:4419  _teams2[0] == _teams4[0] */\n      0xff\n      and\n        /* \"worldcup/GameForecast.sol\":4395:4402  _teams2 */\n      dup2\n        /* \"worldcup/GameForecast.sol\":4403:4404  0 */\n      0x00\n        /* \"worldcup/GameForecast.sol\":4395:4405  _teams2[0] */\n      0x02\n      dup2\n      lt\n      tag_504\n      jumpi\n      tag_505\n      tag_185\n      jump\t// in\n    tag_505:\n    tag_504:\n      0x20\n      mul\n      add\n      0x20\n      dup2\n      add\n      swap1\n      tag_506\n      swap2\n      swap1\n      tag_187\n      jump\t// in\n    tag_506:\n        /* \"worldcup/GameForecast.sol\":4395:4419  _teams2[0] == _teams4[0] */\n      0xff\n      and\n      eq\n        /* \"worldcup/GameForecast.sol\":4395:4447  _teams2[0] == _teams4[0] || _teams2[0] == _teams4[1] */\n      dup1\n      tag_507\n      jumpi\n      pop\n        /* \"worldcup/GameForecast.sol\":4437:4444  _teams4 */\n      dup2\n        /* \"worldcup/GameForecast.sol\":4445:4446  1 */\n      0x01\n        /* \"worldcup/GameForecast.sol\":4437:4447  _teams4[1] */\n      0x04\n      dup2\n      lt\n      tag_508\n      jumpi\n      tag_509\n      tag_185\n      jump\t// in\n    tag_509:\n    tag_508:\n      0x20\n      mul\n      add\n      0x20\n      dup2\n      add\n      swap1\n      tag_510\n      swap2\n      swap1\n      tag_187\n      jump\t// in\n    tag_510:\n        /* \"worldcup/GameForecast.sol\":4423:4447  _teams2[0] == _teams4[1] */\n      0xff\n      and\n        /* \"worldcup/GameForecast.sol\":4423:4430  _teams2 */\n      dup2\n        /* \"worldcup/GameForecast.sol\":4431:4432  0 */\n      0x00\n        /* \"worldcup/GameForecast.sol\":4423:4433  _teams2[0] */\n      0x02\n      dup2\n      lt\n      tag_511\n      jumpi\n      tag_512\n      tag_185\n      jump\t// in\n    tag_512:\n    tag_511:\n      0x20\n      mul\n      add\n      0x20\n      dup2\n      add\n      swap1\n      tag_513\n      swap2\n      swap1\n      tag_187\n      jump\t// in\n    tag_513:\n        /* \"worldcup/GameForecast.sol\":4423:4447  _teams2[0] == _teams4[1] */\n      0xff\n      and\n      eq\n        /* \"worldcup/GameForecast.sol\":4395:4447  _teams2[0] == _teams4[0] || _teams2[0] == _teams4[1] */\n    tag_507:\n        /* \"worldcup/GameForecast.sol\":4387:4474  require(_teams2[0] == _teams4[0] || _teams2[0] == _teams4[1], \"_teams2 not in _teams4\") */\n      tag_514\n      jumpi\n      mload(0x40)\n      0x08c379a000000000000000000000000000000000000000000000000000000000\n      dup2\n      mstore\n      0x04\n      add\n      tag_515\n      swap1\n      tag_516\n      jump\t// in\n    tag_515:\n      mload(0x40)\n      dup1\n      swap2\n      sub\n      swap1\n      revert\n    tag_514:\n        /* \"worldcup/GameForecast.sol\":4507:4514  _teams4 */\n      dup2\n        /* \"worldcup/GameForecast.sol\":4515:4516  2 */\n      0x02\n        /* \"worldcup/GameForecast.sol\":4507:4517  _teams4[2] */\n      0x04\n      dup2\n      lt\n      tag_517\n      jumpi\n      tag_518\n      tag_185\n      jump\t// in\n    tag_518:\n    tag_517:\n      0x20\n      mul\n      add\n      0x20\n      dup2\n      add\n      swap1\n      tag_519\n      swap2\n      swap1\n      tag_187\n      jump\t// in\n    tag_519:\n        /* \"worldcup/GameForecast.sol\":4493:4517  _teams2[1] == _teams4[2] */\n      0xff\n      and\n        /* \"worldcup/GameForecast.sol\":4493:4500  _teams2 */\n      dup2\n        /* \"worldcup/GameForecast.sol\":4501:4502  1 */\n      0x01\n        /* \"worldcup/GameForecast.sol\":4493:4503  _teams2[1] */\n      0x02\n      dup2\n      lt\n      tag_520\n      jumpi\n      tag_521\n      tag_185\n      jump\t// in\n    tag_521:\n    tag_520:\n      0x20\n      mul\n      add\n      0x20\n      dup2\n      add\n      swap1\n      tag_522\n      swap2\n      swap1\n      tag_187\n      jump\t// in\n    tag_522:\n        /* \"worldcup/GameForecast.sol\":4493:4517  _teams2[1] == _teams4[2] */\n      0xff\n      and\n      eq\n        /* \"worldcup/GameForecast.sol\":4493:4545  _teams2[1] == _teams4[2] || _teams2[1] == _teams4[3] */\n      dup1\n      tag_523\n      jumpi\n      pop\n        /* \"worldcup/GameForecast.sol\":4535:4542  _teams4 */\n      dup2\n        /* \"worldcup/GameForecast.sol\":4543:4544  3 */\n      0x03\n        /* \"worldcup/GameForecast.sol\":4535:4545  _teams4[3] */\n      0x04\n      dup2\n      lt\n      tag_524\n      jumpi\n      tag_525\n      tag_185\n      jump\t// in\n    tag_525:\n    tag_524:\n      0x20\n      mul\n      add\n      0x20\n      dup2\n      add\n      swap1\n      tag_526\n      swap2\n      swap1\n      tag_187\n      jump\t// in\n    tag_526:\n        /* \"worldcup/GameForecast.sol\":4521:4545  _teams2[1] == _teams4[3] */\n      0xff\n      and\n        /* \"worldcup/GameForecast.sol\":4521:4528  _teams2 */\n      dup2\n        /* \"worldcup/GameForecast.sol\":4529:4530  1 */\n      0x01\n        /* \"worldcup/GameForecast.sol\":4521:4531  _teams2[1] */\n      0x02\n      dup2\n      lt\n      tag_527\n      jumpi\n      tag_528\n      tag_185\n      jump\t// in\n    tag_528:\n    tag_527:\n      0x20\n      mul\n      add\n      0x20\n      dup2\n      add\n      swap1\n      tag_529\n      swap2\n      swap1\n      tag_187\n      jump\t// in\n    tag_529:\n        /* \"worldcup/GameForecast.sol\":4521:4545  _teams2[1] == _teams4[3] */\n      0xff\n      and\n      eq\n        /* \"worldcup/GameForecast.sol\":4493:4545  _teams2[1] == _teams4[2] || _teams2[1] == _teams4[3] */\n    tag_523:\n        /* \"worldcup/GameForecast.sol\":4485:4572  require(_teams2[1] == _teams4[2] || _teams2[1] == _teams4[3], \"_teams2 not in _teams4\") */\n      tag_530\n      jumpi\n      mload(0x40)\n      0x08c379a000000000000000000000000000000000000000000000000000000000\n      dup2\n      mstore\n      0x04\n      add\n      tag_531\n      swap1\n      tag_516\n      jump\t// in\n    tag_531:\n      mload(0x40)\n      dup1\n      swap2\n      sub\n      swap1\n      revert\n    tag_530:\n        /* \"worldcup/GameForecast.sol\":4287:4580  function _checkTeams2(uint8[4] calldata _teams4, uint8[2] calldata _teams2) private pure {... */\n      pop\n      pop\n      jump\t// out\n        /* \"worldcup/GameForecast.sol\":4588:4771  function _checkFirst(uint8[2] calldata _teams2, uint8 firstTeam) private pure {... */\n    tag_253:\n        /* \"worldcup/GameForecast.sol\":4698:4705  _teams2 */\n      dup2\n        /* \"worldcup/GameForecast.sol\":4706:4707  0 */\n      0x00\n        /* \"worldcup/GameForecast.sol\":4698:4708  _teams2[0] */\n      0x02\n      dup2\n      lt\n      tag_533\n      jumpi\n      tag_534\n      tag_185\n      jump\t// in\n    tag_534:\n    tag_533:\n      0x20\n      mul\n      add\n      0x20\n      dup2\n      add\n      swap1\n      tag_535\n      swap2\n      swap1\n      tag_187\n      jump\t// in\n    tag_535:\n        /* \"worldcup/GameForecast.sol\":4685:4708  firstTeam == _teams2[0] */\n      0xff\n      and\n        /* \"worldcup/GameForecast.sol\":4685:4694  firstTeam */\n      dup2\n        /* \"worldcup/GameForecast.sol\":4685:4708  firstTeam == _teams2[0] */\n      0xff\n      and\n      eq\n        /* \"worldcup/GameForecast.sol\":4685:4734  firstTeam == _teams2[0] ||firstTeam == _teams2[1] */\n      dup1\n      tag_536\n      jumpi\n      pop\n        /* \"worldcup/GameForecast.sol\":4724:4731  _teams2 */\n      dup2\n        /* \"worldcup/GameForecast.sol\":4732:4733  1 */\n      0x01\n        /* \"worldcup/GameForecast.sol\":4724:4734  _teams2[1] */\n      0x02\n      dup2\n      lt\n      tag_537\n      jumpi\n      tag_538\n      tag_185\n      jump\t// in\n    tag_538:\n    tag_537:\n      0x20\n      mul\n      add\n      0x20\n      dup2\n      add\n      swap1\n      tag_539\n      swap2\n      swap1\n      tag_187\n      jump\t// in\n    tag_539:\n        /* \"worldcup/GameForecast.sol\":4711:4734  firstTeam == _teams2[1] */\n      0xff\n      and\n        /* \"worldcup/GameForecast.sol\":4711:4720  firstTeam */\n      dup2\n        /* \"worldcup/GameForecast.sol\":4711:4734  firstTeam == _teams2[1] */\n      0xff\n      and\n      eq\n        /* \"worldcup/GameForecast.sol\":4685:4734  firstTeam == _teams2[0] ||firstTeam == _teams2[1] */\n    tag_536:\n        /* \"worldcup/GameForecast.sol\":4677:4763  require(firstTeam == _teams2[0] ||firstTeam == _teams2[1], \"firstTeam not in _teams2\") */\n      tag_540\n      jumpi\n      mload(0x40)\n      0x08c379a000000000000000000000000000000000000000000000000000000000\n      dup2\n      mstore\n      0x04\n      add\n      tag_541\n      swap1\n      tag_542\n      jump\t// in\n    tag_541:\n      mload(0x40)\n      dup1\n      swap2\n      sub\n      swap1\n      revert\n    tag_540:\n        /* \"worldcup/GameForecast.sol\":4588:4771  function _checkFirst(uint8[2] calldata _teams2, uint8 firstTeam) private pure {... */\n      pop\n      pop\n      jump\t// out\n        /* \"worldcup/GameForecast.sol\":4779:5158  function _checkThrid(uint8[4] calldata _teams4, uint8[2] calldata _teams2, uint8 thridTeam) private pure { ... */\n    tag_255:\n        /* \"worldcup/GameForecast.sol\":4917:4924  _teams2 */\n      dup2\n        /* \"worldcup/GameForecast.sol\":4925:4926  0 */\n      0x00\n        /* \"worldcup/GameForecast.sol\":4917:4927  _teams2[0] */\n      0x02\n      dup2\n      lt\n      tag_544\n      jumpi\n      tag_545\n      tag_185\n      jump\t// in\n    tag_545:\n    tag_544:\n      0x20\n      mul\n      add\n      0x20\n      dup2\n      add\n      swap1\n      tag_546\n      swap2\n      swap1\n      tag_187\n      jump\t// in\n    tag_546:\n        /* \"worldcup/GameForecast.sol\":4904:4927  thridTeam != _teams2[0] */\n      0xff\n      and\n        /* \"worldcup/GameForecast.sol\":4904:4913  thridTeam */\n      dup2\n        /* \"worldcup/GameForecast.sol\":4904:4927  thridTeam != _teams2[0] */\n      0xff\n      and\n      eq\n      iszero\n        /* \"worldcup/GameForecast.sol\":4904:4954  thridTeam != _teams2[0] && thridTeam != _teams2[1] */\n      dup1\n      iszero\n      tag_547\n      jumpi\n      pop\n        /* \"worldcup/GameForecast.sol\":4944:4951  _teams2 */\n      dup2\n        /* \"worldcup/GameForecast.sol\":4952:4953  1 */\n      0x01\n        /* \"worldcup/GameForecast.sol\":4944:4954  _teams2[1] */\n      0x02\n      dup2\n      lt\n      tag_548\n      jumpi\n      tag_549\n      tag_185\n      jump\t// in\n    tag_549:\n    tag_548:\n      0x20\n      mul\n      add\n      0x20\n      dup2\n      add\n      swap1\n      tag_550\n      swap2\n      swap1\n      tag_187\n      jump\t// in\n    tag_550:\n        /* \"worldcup/GameForecast.sol\":4931:4954  thridTeam != _teams2[1] */\n      0xff\n      and\n        /* \"worldcup/GameForecast.sol\":4931:4940  thridTeam */\n      dup2\n        /* \"worldcup/GameForecast.sol\":4931:4954  thridTeam != _teams2[1] */\n      0xff\n      and\n      eq\n      iszero\n        /* \"worldcup/GameForecast.sol\":4904:4954  thridTeam != _teams2[0] && thridTeam != _teams2[1] */\n    tag_547:\n        /* \"worldcup/GameForecast.sol\":4896:4988  require(thridTeam != _teams2[0] && thridTeam != _teams2[1], \"thridTeam must not in _teams2\") */\n      tag_551\n      jumpi\n      mload(0x40)\n      0x08c379a000000000000000000000000000000000000000000000000000000000\n      dup2\n      mstore\n      0x04\n      add\n      tag_552\n      swap1\n      tag_553\n      jump\t// in\n    tag_552:\n      mload(0x40)\n      dup1\n      swap2\n      sub\n      swap1\n      revert\n    tag_551:\n        /* \"worldcup/GameForecast.sol\":5020:5027  _teams4 */\n      dup3\n        /* \"worldcup/GameForecast.sol\":5028:5029  0 */\n      0x00\n        /* \"worldcup/GameForecast.sol\":5020:5030  _teams4[0] */\n      0x04\n      dup2\n      lt\n      tag_554\n      jumpi\n      tag_555\n      tag_185\n      jump\t// in\n    tag_555:\n    tag_554:\n      0x20\n      mul\n      add\n      0x20\n      dup2\n      add\n      swap1\n      tag_556\n      swap2\n      swap1\n      tag_187\n      jump\t// in\n    tag_556:\n        /* \"worldcup/GameForecast.sol\":5007:5030  thridTeam == _teams4[0] */\n      0xff\n      and\n        /* \"worldcup/GameForecast.sol\":5007:5016  thridTeam */\n      dup2\n        /* \"worldcup/GameForecast.sol\":5007:5030  thridTeam == _teams4[0] */\n      0xff\n      and\n      eq\n        /* \"worldcup/GameForecast.sol\":5007:5057  thridTeam == _teams4[0] || thridTeam != _teams4[1] */\n      dup1\n      tag_557\n      jumpi\n      pop\n        /* \"worldcup/GameForecast.sol\":5047:5054  _teams4 */\n      dup3\n        /* \"worldcup/GameForecast.sol\":5055:5056  1 */\n      0x01\n        /* \"worldcup/GameForecast.sol\":5047:5057  _teams4[1] */\n      0x04\n      dup2\n      lt\n      tag_558\n      jumpi\n      tag_559\n      tag_185\n      jump\t// in\n    tag_559:\n    tag_558:\n      0x20\n      mul\n      add\n      0x20\n      dup2\n      add\n      swap1\n      tag_560\n      swap2\n      swap1\n      tag_187\n      jump\t// in\n    tag_560:\n        /* \"worldcup/GameForecast.sol\":5034:5057  thridTeam != _teams4[1] */\n      0xff\n      and\n        /* \"worldcup/GameForecast.sol\":5034:5043  thridTeam */\n      dup2\n        /* \"worldcup/GameForecast.sol\":5034:5057  thridTeam != _teams4[1] */\n      0xff\n      and\n      eq\n      iszero\n        /* \"worldcup/GameForecast.sol\":5007:5057  thridTeam == _teams4[0] || thridTeam != _teams4[1] */\n    tag_557:\n        /* \"worldcup/GameForecast.sol\":5007:5093  thridTeam == _teams4[0] || thridTeam != _teams4[1]... */\n      dup1\n      tag_561\n      jumpi\n      pop\n        /* \"worldcup/GameForecast.sol\":5083:5090  _teams4 */\n      dup3\n        /* \"worldcup/GameForecast.sol\":5091:5092  2 */\n      0x02\n        /* \"worldcup/GameForecast.sol\":5083:5093  _teams4[2] */\n      0x04\n      dup2\n      lt\n      tag_562\n      jumpi\n      tag_563\n      tag_185\n      jump\t// in\n    tag_563:\n    tag_562:\n      0x20\n      mul\n      add\n      0x20\n      dup2\n      add\n      swap1\n      tag_564\n      swap2\n      swap1\n      tag_187\n      jump\t// in\n    tag_564:\n        /* \"worldcup/GameForecast.sol\":5070:5093  thridTeam == _teams4[2] */\n      0xff\n      and\n        /* \"worldcup/GameForecast.sol\":5070:5079  thridTeam */\n      dup2\n        /* \"worldcup/GameForecast.sol\":5070:5093  thridTeam == _teams4[2] */\n      0xff\n      and\n      eq\n        /* \"worldcup/GameForecast.sol\":5007:5093  thridTeam == _teams4[0] || thridTeam != _teams4[1]... */\n    tag_561:\n        /* \"worldcup/GameForecast.sol\":5007:5120  thridTeam == _teams4[0] || thridTeam != _teams4[1]... */\n      dup1\n      tag_565\n      jumpi\n      pop\n        /* \"worldcup/GameForecast.sol\":5110:5117  _teams4 */\n      dup3\n        /* \"worldcup/GameForecast.sol\":5118:5119  3 */\n      0x03\n        /* \"worldcup/GameForecast.sol\":5110:5120  _teams4[3] */\n      0x04\n      dup2\n      lt\n      tag_566\n      jumpi\n      tag_567\n      tag_185\n      jump\t// in\n    tag_567:\n    tag_566:\n      0x20\n      mul\n      add\n      0x20\n      dup2\n      add\n      swap1\n      tag_568\n      swap2\n      swap1\n      tag_187\n      jump\t// in\n    tag_568:\n        /* \"worldcup/GameForecast.sol\":5097:5120  thridTeam != _teams4[3] */\n      0xff\n      and\n        /* \"worldcup/GameForecast.sol\":5097:5106  thridTeam */\n      dup2\n        /* \"worldcup/GameForecast.sol\":5097:5120  thridTeam != _teams4[3] */\n      0xff\n      and\n      eq\n      iszero\n        /* \"worldcup/GameForecast.sol\":5007:5120  thridTeam == _teams4[0] || thridTeam != _teams4[1]... */\n    tag_565:\n        /* \"worldcup/GameForecast.sol\":4999:5150  require(thridTeam == _teams4[0] || thridTeam != _teams4[1]... */\n      tag_569\n      jumpi\n      mload(0x40)\n      0x08c379a000000000000000000000000000000000000000000000000000000000\n      dup2\n      mstore\n      0x04\n      add\n      tag_570\n      swap1\n      tag_571\n      jump\t// in\n    tag_570:\n      mload(0x40)\n      dup1\n      swap2\n      sub\n      swap1\n      revert\n    tag_569:\n        /* \"worldcup/GameForecast.sol\":4779:5158  function _checkThrid(uint8[4] calldata _teams4, uint8[2] calldata _teams2, uint8 thridTeam) private pure { ... */\n      pop\n      pop\n      pop\n      jump\t// out\n    tag_133:\n      mload(0x40)\n      dup1\n      0x80\n      add\n      0x40\n      mstore\n      dup1\n      0x04\n      swap1\n      0x20\n      dup3\n      mul\n      dup1\n      calldatasize\n      dup4\n      calldatacopy\n      dup1\n      dup3\n      add\n      swap2\n      pop\n      pop\n      swap1\n      pop\n      pop\n      swap1\n      jump\t// out\n    tag_147:\n      mload(0x40)\n      dup1\n      0x0200\n      add\n      0x40\n      mstore\n      dup1\n      0x10\n      swap1\n      0x20\n      dup3\n      mul\n      dup1\n      calldatasize\n      dup4\n      calldatacopy\n      dup1\n      dup3\n      add\n      swap2\n      pop\n      pop\n      swap1\n      pop\n      pop\n      swap1\n      jump\t// out\n    tag_162:\n      dup3\n      add(0x1f, 0x08)\n      0x20\n      swap1\n      div\n      dup2\n      add\n      swap3\n      dup3\n      iszero\n      tag_572\n      jumpi\n      swap2\n      0x20\n      mul\n      dup3\n      add\n      0x00\n    tag_573:\n      dup4\n      dup3\n      gt\n      iszero\n      tag_574\n      jumpi\n      dup4\n      mload\n      dup4\n      dup3\n      0x0100\n      exp\n      dup2\n      sload\n      dup2\n      0xff\n      mul\n      not\n      and\n      swap1\n      dup4\n      0xff\n      and\n      mul\n      or\n      swap1\n      sstore\n      pop\n      swap3\n      0x20\n      add\n      swap3\n      0x01\n      add\n      0x20\n      dup2\n      0x00\n      add\n      div\n      swap3\n      dup4\n      add\n      swap3\n      0x01\n      sub\n      mul\n      jump(tag_573)\n    tag_574:\n      dup1\n      iszero\n      tag_575\n      jumpi\n      dup3\n      dup2\n      0x0100\n      exp\n      dup2\n      sload\n      swap1\n      0xff\n      mul\n      not\n      and\n      swap1\n      sstore\n      0x01\n      add\n      0x20\n      dup2\n      0x00\n      add\n      div\n      swap3\n      dup4\n      add\n      swap3\n      0x01\n      sub\n      mul\n      jump(tag_574)\n    tag_575:\n      pop\n    tag_572:\n      pop\n      swap1\n      pop\n      tag_576\n      swap2\n      swap1\n      tag_577\n      jump\t// in\n    tag_576:\n      pop\n      swap1\n      jump\t// out\n    tag_164:\n      dup3\n      add(0x1f, 0x04)\n      0x20\n      swap1\n      div\n      dup2\n      add\n      swap3\n      dup3\n      iszero\n      tag_578\n      jumpi\n      swap2\n      0x20\n      mul\n      dup3\n      add\n      0x00\n    tag_579:\n      dup4\n      dup3\n      gt\n      iszero\n      tag_580\n      jumpi\n      dup4\n      mload\n      dup4\n      dup3\n      0x0100\n      exp\n      dup2\n      sload\n      dup2\n      0xff\n      mul\n      not\n      and\n      swap1\n      dup4\n      0xff\n      and\n      mul\n      or\n      swap1\n      sstore\n      pop\n      swap3\n      0x20\n      add\n      swap3\n      0x01\n      add\n      0x20\n      dup2\n      0x00\n      add\n      div\n      swap3\n      dup4\n      add\n      swap3\n      0x01\n      sub\n      mul\n      jump(tag_579)\n    tag_580:\n      dup1\n      iszero\n      tag_581\n      jumpi\n      dup3\n      dup2\n      0x0100\n      exp\n      dup2\n      sload\n      swap1\n      0xff\n      mul\n      not\n      and\n      swap1\n      sstore\n      0x01\n      add\n      0x20\n      dup2\n      0x00\n      add\n      div\n      swap3\n      dup4\n      add\n      swap3\n      0x01\n      sub\n      mul\n      jump(tag_580)\n    tag_581:\n      pop\n    tag_578:\n      pop\n      swap1\n      pop\n      tag_582\n      swap2\n      swap1\n      tag_577\n      jump\t// in\n    tag_582:\n      pop\n      swap1\n      jump\t// out\n    tag_166:\n      dup3\n      add(0x1f, 0x02)\n      0x20\n      swap1\n      div\n      dup2\n      add\n      swap3\n      dup3\n      iszero\n      tag_583\n      jumpi\n      swap2\n      0x20\n      mul\n      dup3\n      add\n      0x00\n    tag_584:\n      dup4\n      dup3\n      gt\n      iszero\n      tag_585\n      jumpi\n      dup4\n      mload\n      dup4\n      dup3\n      0x0100\n      exp\n      dup2\n      sload\n      dup2\n      0xff\n      mul\n      not\n      and\n      swap1\n      dup4\n      0xff\n      and\n      mul\n      or\n      swap1\n      sstore\n      pop\n      swap3\n      0x20\n      add\n      swap3\n      0x01\n      add\n      0x20\n      dup2\n      0x00\n      add\n      div\n      swap3\n      dup4\n      add\n      swap3\n      0x01\n      sub\n      mul\n      jump(tag_584)\n    tag_585:\n      dup1\n      iszero\n      tag_586\n      jumpi\n      dup3\n      dup2\n      0x0100\n      exp\n      dup2\n      sload\n      swap1\n      0xff\n      mul\n      not\n      and\n      swap1\n      sstore\n      0x01\n      add\n      0x20\n      dup2\n      0x00\n      add\n      div\n      swap3\n      dup4\n      add\n      swap3\n      0x01\n      sub\n      mul\n      jump(tag_585)\n    tag_586:\n      pop\n    tag_583:\n      pop\n      swap1\n      pop\n      tag_587\n      swap2\n      swap1\n      tag_577\n      jump\t// in\n    tag_587:\n      pop\n      swap1\n      jump\t// out\n    tag_168:\n      mload(0x40)\n      dup1\n      0x0100\n      add\n      0x40\n      mstore\n      dup1\n      0x08\n      swap1\n      0x20\n      dup3\n      mul\n      dup1\n      calldatasize\n      dup4\n      calldatacopy\n      dup1\n      dup3\n      add\n      swap2\n      pop\n      pop\n      swap1\n      pop\n      pop\n      swap1\n      jump\t// out\n    tag_193:\n      dup3\n      add(0x1f, 0x10)\n      0x20\n      swap1\n      div\n      dup2\n      add\n      swap3\n      dup3\n      iszero\n      tag_588\n      jumpi\n      swap2\n      0x20\n      mul\n      dup3\n      add\n      0x00\n    tag_589:\n      dup4\n      dup3\n      gt\n      iszero\n      tag_590\n      jumpi\n      dup4\n      mload\n      dup4\n      dup3\n      0x0100\n      exp\n      dup2\n      sload\n      dup2\n      0xff\n      mul\n      not\n      and\n      swap1\n      dup4\n      0xff\n      and\n      mul\n      or\n      swap1\n      sstore\n      pop\n      swap3\n      0x20\n      add\n      swap3\n      0x01\n      add\n      0x20\n      dup2\n      0x00\n      add\n      div\n      swap3\n      dup4\n      add\n      swap3\n      0x01\n      sub\n      mul\n      jump(tag_589)\n    tag_590:\n      dup1\n      iszero\n      tag_591\n      jumpi\n      dup3\n      dup2\n      0x0100\n      exp\n      dup2\n      sload\n      swap1\n      0xff\n      mul\n      not\n      and\n      swap1\n      sstore\n      0x01\n      add\n      0x20\n      dup2\n      0x00\n      add\n      div\n      swap3\n      dup4\n      add\n      swap3\n      0x01\n      sub\n      mul\n      jump(tag_590)\n    tag_591:\n      pop\n    tag_588:\n      pop\n      swap1\n      pop\n      tag_592\n      swap2\n      swap1\n      tag_577\n      jump\t// in\n    tag_592:\n      pop\n      swap1\n      jump\t// out\n    tag_220:\n      mload(0x40)\n      dup1\n      0x40\n      add\n      0x40\n      mstore\n      dup1\n      0x02\n      swap1\n      0x20\n      dup3\n      mul\n      dup1\n      calldatasize\n      dup4\n      calldatacopy\n      dup1\n      dup3\n      add\n      swap2\n      pop\n      pop\n      swap1\n      pop\n      pop\n      swap1\n      jump\t// out\n    tag_577:\n    tag_593:\n      dup1\n      dup3\n      gt\n      iszero\n      tag_594\n      jumpi\n      0x00\n      dup2\n      0x00\n      swap1\n      sstore\n      pop\n      0x01\n      add\n      jump(tag_593)\n    tag_594:\n      pop\n      swap1\n      jump\t// out\n        /* \"#utility.yul\":7:93   */\n    tag_595:\n        /* \"#utility.yul\":42:49   */\n      0x00\n        /* \"#utility.yul\":82:86   */\n      0xff\n        /* \"#utility.yul\":75:80   */\n      dup3\n        /* \"#utility.yul\":71:87   */\n      and\n        /* \"#utility.yul\":60:87   */\n      swap1\n      pop\n        /* \"#utility.yul\":7:93   */\n      swap2\n      swap1\n      pop\n      jump\t// out\n        /* \"#utility.yul\":99:211   */\n    tag_596:\n        /* \"#utility.yul\":182:204   */\n      tag_669\n        /* \"#utility.yul\":198:203   */\n      dup2\n        /* \"#utility.yul\":182:204   */\n      tag_595\n      jump\t// in\n    tag_669:\n        /* \"#utility.yul\":177:180   */\n      dup3\n        /* \"#utility.yul\":170:205   */\n      mstore\n        /* \"#utility.yul\":99:211   */\n      pop\n      pop\n      jump\t// out\n        /* \"#utility.yul\":217:431   */\n    tag_32:\n        /* \"#utility.yul\":306:310   */\n      0x00\n        /* \"#utility.yul\":344:346   */\n      0x20\n        /* \"#utility.yul\":333:342   */\n      dup3\n        /* \"#utility.yul\":329:347   */\n      add\n        /* \"#utility.yul\":321:347   */\n      swap1\n      pop\n        /* \"#utility.yul\":357:424   */\n      tag_671\n        /* \"#utility.yul\":421:422   */\n      0x00\n        /* \"#utility.yul\":410:419   */\n      dup4\n        /* \"#utility.yul\":406:423   */\n      add\n        /* \"#utility.yul\":397:403   */\n      dup5\n        /* \"#utility.yul\":357:424   */\n      tag_596\n      jump\t// in\n    tag_671:\n        /* \"#utility.yul\":217:431   */\n      swap3\n      swap2\n      pop\n      pop\n      jump\t// out\n        /* \"#utility.yul\":518:635   */\n    tag_598:\n        /* \"#utility.yul\":627:628   */\n      0x00\n        /* \"#utility.yul\":624:625   */\n      dup1\n        /* \"#utility.yul\":617:629   */\n      revert\n        /* \"#utility.yul\":764:890   */\n    tag_600:\n        /* \"#utility.yul\":801:808   */\n      0x00\n        /* \"#utility.yul\":841:883   */\n      0xffffffffffffffffffffffffffffffffffffffff\n        /* \"#utility.yul\":834:839   */\n      dup3\n        /* \"#utility.yul\":830:884   */\n      and\n        /* \"#utility.yul\":819:884   */\n      swap1\n      pop\n        /* \"#utility.yul\":764:890   */\n      swap2\n      swap1\n      pop\n      jump\t// out\n        /* \"#utility.yul\":896:992   */\n    tag_601:\n        /* \"#utility.yul\":933:940   */\n      0x00\n        /* \"#utility.yul\":962:986   */\n      tag_677\n        /* \"#utility.yul\":980:985   */\n      dup3\n        /* \"#utility.yul\":962:986   */\n      tag_600\n      jump\t// in\n    tag_677:\n        /* \"#utility.yul\":951:986   */\n      swap1\n      pop\n        /* \"#utility.yul\":896:992   */\n      swap2\n      swap1\n      pop\n      jump\t// out\n        /* \"#utility.yul\":998:1120   */\n    tag_602:\n        /* \"#utility.yul\":1071:1095   */\n      tag_679\n        /* \"#utility.yul\":1089:1094   */\n      dup2\n        /* \"#utility.yul\":1071:1095   */\n      tag_601\n      jump\t// in\n    tag_679:\n        /* \"#utility.yul\":1064:1069   */\n      dup2\n        /* \"#utility.yul\":1061:1096   */\n      eq\n        /* \"#utility.yul\":1051:1114   */\n      tag_680\n      jumpi\n        /* \"#utility.yul\":1110:1111   */\n      0x00\n        /* \"#utility.yul\":1107:1108   */\n      dup1\n        /* \"#utility.yul\":1100:1112   */\n      revert\n        /* \"#utility.yul\":1051:1114   */\n    tag_680:\n        /* \"#utility.yul\":998:1120   */\n      pop\n      jump\t// out\n        /* \"#utility.yul\":1126:1265   */\n    tag_603:\n        /* \"#utility.yul\":1172:1177   */\n      0x00\n        /* \"#utility.yul\":1210:1216   */\n      dup2\n        /* \"#utility.yul\":1197:1217   */\n      calldataload\n        /* \"#utility.yul\":1188:1217   */\n      swap1\n      pop\n        /* \"#utility.yul\":1226:1259   */\n      tag_682\n        /* \"#utility.yul\":1253:1258   */\n      dup2\n        /* \"#utility.yul\":1226:1259   */\n      tag_602\n      jump\t// in\n    tag_682:\n        /* \"#utility.yul\":1126:1265   */\n      swap3\n      swap2\n      pop\n      pop\n      jump\t// out\n        /* \"#utility.yul\":1271:1361   */\n    tag_604:\n        /* \"#utility.yul\":1305:1312   */\n      0x00\n        /* \"#utility.yul\":1348:1353   */\n      dup2\n        /* \"#utility.yul\":1341:1354   */\n      iszero\n        /* \"#utility.yul\":1334:1355   */\n      iszero\n        /* \"#utility.yul\":1323:1355   */\n      swap1\n      pop\n        /* \"#utility.yul\":1271:1361   */\n      swap2\n      swap1\n      pop\n      jump\t// out\n        /* \"#utility.yul\":1367:1483   */\n    tag_605:\n        /* \"#utility.yul\":1437:1458   */\n      tag_685\n        /* \"#utility.yul\":1452:1457   */\n      dup2\n        /* \"#utility.yul\":1437:1458   */\n      tag_604\n      jump\t// in\n    tag_685:\n        /* \"#utility.yul\":1430:1435   */\n      dup2\n        /* \"#utility.yul\":1427:1459   */\n      eq\n        /* \"#utility.yul\":1417:1477   */\n      tag_686\n      jumpi\n        /* \"#utility.yul\":1473:1474   */\n      0x00\n        /* \"#utility.yul\":1470:1471   */\n      dup1\n        /* \"#utility.yul\":1463:1475   */\n      revert\n        /* \"#utility.yul\":1417:1477   */\n    tag_686:\n        /* \"#utility.yul\":1367:1483   */\n      pop\n      jump\t// out\n        /* \"#utility.yul\":1489:1622   */\n    tag_606:\n        /* \"#utility.yul\":1532:1537   */\n      0x00\n        /* \"#utility.yul\":1570:1576   */\n      dup2\n        /* \"#utility.yul\":1557:1577   */\n      calldataload\n        /* \"#utility.yul\":1548:1577   */\n      swap1\n      pop\n        /* \"#utility.yul\":1586:1616   */\n      tag_688\n        /* \"#utility.yul\":1610:1615   */\n      dup2\n        /* \"#utility.yul\":1586:1616   */\n      tag_605\n      jump\t// in\n    tag_688:\n        /* \"#utility.yul\":1489:1622   */\n      swap3\n      swap2\n      pop\n      pop\n      jump\t// out\n        /* \"#utility.yul\":1628:2096   */\n    tag_35:\n        /* \"#utility.yul\":1693:1699   */\n      0x00\n        /* \"#utility.yul\":1701:1707   */\n      dup1\n        /* \"#utility.yul\":1750:1752   */\n      0x40\n        /* \"#utility.yul\":1738:1747   */\n      dup4\n        /* \"#utility.yul\":1729:1736   */\n      dup6\n        /* \"#utility.yul\":1725:1748   */\n      sub\n        /* \"#utility.yul\":1721:1753   */\n      slt\n        /* \"#utility.yul\":1718:1837   */\n      iszero\n      tag_690\n      jumpi\n        /* \"#utility.yul\":1756:1835   */\n      tag_691\n      tag_598\n      jump\t// in\n    tag_691:\n        /* \"#utility.yul\":1718:1837   */\n    tag_690:\n        /* \"#utility.yul\":1876:1877   */\n      0x00\n        /* \"#utility.yul\":1901:1954   */\n      tag_692\n        /* \"#utility.yul\":1946:1953   */\n      dup6\n        /* \"#utility.yul\":1937:1943   */\n      dup3\n        /* \"#utility.yul\":1926:1935   */\n      dup7\n        /* \"#utility.yul\":1922:1944   */\n      add\n        /* \"#utility.yul\":1901:1954   */\n      tag_603\n      jump\t// in\n    tag_692:\n        /* \"#utility.yul\":1891:1954   */\n      swap3\n      pop\n        /* \"#utility.yul\":1847:1964   */\n      pop\n        /* \"#utility.yul\":2003:2005   */\n      0x20\n        /* \"#utility.yul\":2029:2079   */\n      tag_693\n        /* \"#utility.yul\":2071:2078   */\n      dup6\n        /* \"#utility.yul\":2062:2068   */\n      dup3\n        /* \"#utility.yul\":2051:2060   */\n      dup7\n        /* \"#utility.yul\":2047:2069   */\n      add\n        /* \"#utility.yul\":2029:2079   */\n      tag_606\n      jump\t// in\n    tag_693:\n        /* \"#utility.yul\":2019:2079   */\n      swap2\n      pop\n        /* \"#utility.yul\":1974:2089   */\n      pop\n        /* \"#utility.yul\":1628:2096   */\n      swap3\n      pop\n      swap3\n      swap1\n      pop\n      jump\t// out\n        /* \"#utility.yul\":2102:2431   */\n    tag_39:\n        /* \"#utility.yul\":2161:2167   */\n      0x00\n        /* \"#utility.yul\":2210:2212   */\n      0x20\n        /* \"#utility.yul\":2198:2207   */\n      dup3\n        /* \"#utility.yul\":2189:2196   */\n      dup5\n        /* \"#utility.yul\":2185:2208   */\n      sub\n        /* \"#utility.yul\":2181:2213   */\n      slt\n        /* \"#utility.yul\":2178:2297   */\n      iszero\n      tag_695\n      jumpi\n        /* \"#utility.yul\":2216:2295   */\n      tag_696\n      tag_598\n      jump\t// in\n    tag_696:\n        /* \"#utility.yul\":2178:2297   */\n    tag_695:\n        /* \"#utility.yul\":2336:2337   */\n      0x00\n        /* \"#utility.yul\":2361:2414   */\n      tag_697\n        /* \"#utility.yul\":2406:2413   */\n      dup5\n        /* \"#utility.yul\":2397:2403   */\n      dup3\n        /* \"#utility.yul\":2386:2395   */\n      dup6\n        /* \"#utility.yul\":2382:2404   */\n      add\n        /* \"#utility.yul\":2361:2414   */\n      tag_603\n      jump\t// in\n    tag_697:\n        /* \"#utility.yul\":2351:2414   */\n      swap2\n      pop\n        /* \"#utility.yul\":2307:2424   */\n      pop\n        /* \"#utility.yul\":2102:2431   */\n      swap3\n      swap2\n      pop\n      pop\n      jump\t// out\n        /* \"#utility.yul\":2437:2546   */\n    tag_607:\n        /* \"#utility.yul\":2518:2539   */\n      tag_699\n        /* \"#utility.yul\":2533:2538   */\n      dup2\n        /* \"#utility.yul\":2518:2539   */\n      tag_604\n      jump\t// in\n    tag_699:\n        /* \"#utility.yul\":2513:2516   */\n      dup3\n        /* \"#utility.yul\":2506:2540   */\n      mstore\n        /* \"#utility.yul\":2437:2546   */\n      pop\n      pop\n      jump\t// out\n        /* \"#utility.yul\":2552:2762   */\n    tag_42:\n        /* \"#utility.yul\":2639:2643   */\n      0x00\n        /* \"#utility.yul\":2677:2679   */\n      0x20\n        /* \"#utility.yul\":2666:2675   */\n      dup3\n        /* \"#utility.yul\":2662:2680   */\n      add\n        /* \"#utility.yul\":2654:2680   */\n      swap1\n      pop\n        /* \"#utility.yul\":2690:2755   */\n      tag_701\n        /* \"#utility.yul\":2752:2753   */\n      0x00\n        /* \"#utility.yul\":2741:2750   */\n      dup4\n        /* \"#utility.yul\":2737:2754   */\n      add\n        /* \"#utility.yul\":2728:2734   */\n      dup5\n        /* \"#utility.yul\":2690:2755   */\n      tag_607\n      jump\t// in\n    tag_701:\n        /* \"#utility.yul\":2552:2762   */\n      swap3\n      swap2\n      pop\n      pop\n      jump\t// out\n        /* \"#utility.yul\":2768:2857   */\n    tag_608:\n        /* \"#utility.yul\":2804:2811   */\n      0x00\n        /* \"#utility.yul\":2844:2850   */\n      0xffff\n        /* \"#utility.yul\":2837:2842   */\n      dup3\n        /* \"#utility.yul\":2833:2851   */\n      and\n        /* \"#utility.yul\":2822:2851   */\n      swap1\n      pop\n        /* \"#utility.yul\":2768:2857   */\n      swap2\n      swap1\n      pop\n      jump\t// out\n        /* \"#utility.yul\":2863:2978   */\n    tag_609:\n        /* \"#utility.yul\":2948:2971   */\n      tag_704\n        /* \"#utility.yul\":2965:2970   */\n      dup2\n        /* \"#utility.yul\":2948:2971   */\n      tag_608\n      jump\t// in\n    tag_704:\n        /* \"#utility.yul\":2943:2946   */\n      dup3\n        /* \"#utility.yul\":2936:2972   */\n      mstore\n        /* \"#utility.yul\":2863:2978   */\n      pop\n      pop\n      jump\t// out\n        /* \"#utility.yul\":2984:3202   */\n    tag_47:\n        /* \"#utility.yul\":3075:3079   */\n      0x00\n        /* \"#utility.yul\":3113:3115   */\n      0x20\n        /* \"#utility.yul\":3102:3111   */\n      dup3\n        /* \"#utility.yul\":3098:3116   */\n      add\n        /* \"#utility.yul\":3090:3116   */\n      swap1\n      pop\n        /* \"#utility.yul\":3126:3195   */\n      tag_706\n        /* \"#utility.yul\":3192:3193   */\n      0x00\n        /* \"#utility.yul\":3181:3190   */\n      dup4\n        /* \"#utility.yul\":3177:3194   */\n      add\n        /* \"#utility.yul\":3168:3174   */\n      dup5\n        /* \"#utility.yul\":3126:3195   */\n      tag_609\n      jump\t// in\n    tag_706:\n        /* \"#utility.yul\":2984:3202   */\n      swap3\n      swap2\n      pop\n      pop\n      jump\t// out\n        /* \"#utility.yul\":3208:3310   */\n    tag_610:\n        /* \"#utility.yul\":3271:3277   */\n      0x00\n        /* \"#utility.yul\":3299:3303   */\n      0x04\n        /* \"#utility.yul\":3289:3303   */\n      swap1\n      pop\n        /* \"#utility.yul\":3208:3310   */\n      swap2\n      swap1\n      pop\n      jump\t// out\n        /* \"#utility.yul\":3316:3457   */\n    tag_611:\n        /* \"#utility.yul\":3411:3422   */\n      0x00\n        /* \"#utility.yul\":3448:3451   */\n      dup2\n        /* \"#utility.yul\":3433:3451   */\n      swap1\n      pop\n        /* \"#utility.yul\":3316:3457   */\n      swap3\n      swap2\n      pop\n      pop\n      jump\t// out\n        /* \"#utility.yul\":3463:3559   */\n    tag_612:\n        /* \"#utility.yul\":3526:3530   */\n      0x00\n        /* \"#utility.yul\":3549:3552   */\n      dup2\n        /* \"#utility.yul\":3541:3552   */\n      swap1\n      pop\n        /* \"#utility.yul\":3463:3559   */\n      swap2\n      swap1\n      pop\n      jump\t// out\n        /* \"#utility.yul\":3565:3667   */\n    tag_613:\n        /* \"#utility.yul\":3638:3660   */\n      tag_711\n        /* \"#utility.yul\":3654:3659   */\n      dup2\n        /* \"#utility.yul\":3638:3660   */\n      tag_595\n      jump\t// in\n    tag_711:\n        /* \"#utility.yul\":3633:3636   */\n      dup3\n        /* \"#utility.yul\":3626:3661   */\n      mstore\n        /* \"#utility.yul\":3565:3667   */\n      pop\n      pop\n      jump\t// out\n        /* \"#utility.yul\":3673:3844   */\n    tag_614:\n        /* \"#utility.yul\":3738:3748   */\n      0x00\n        /* \"#utility.yul\":3759:3801   */\n      tag_713\n        /* \"#utility.yul\":3797:3800   */\n      dup4\n        /* \"#utility.yul\":3789:3795   */\n      dup4\n        /* \"#utility.yul\":3759:3801   */\n      tag_613\n      jump\t// in\n    tag_713:\n        /* \"#utility.yul\":3833:3837   */\n      0x20\n        /* \"#utility.yul\":3828:3831   */\n      dup4\n        /* \"#utility.yul\":3824:3838   */\n      add\n        /* \"#utility.yul\":3810:3838   */\n      swap1\n      pop\n        /* \"#utility.yul\":3673:3844   */\n      swap3\n      swap2\n      pop\n      pop\n      jump\t// out\n        /* \"#utility.yul\":3850:3959   */\n    tag_615:\n        /* \"#utility.yul\":3916:3920   */\n      0x00\n        /* \"#utility.yul\":3948:3952   */\n      0x20\n        /* \"#utility.yul\":3943:3946   */\n      dup3\n        /* \"#utility.yul\":3939:3953   */\n      add\n        /* \"#utility.yul\":3931:3953   */\n      swap1\n      pop\n        /* \"#utility.yul\":3850:3959   */\n      swap2\n      swap1\n      pop\n      jump\t// out\n        /* \"#utility.yul\":3993:4671   */\n    tag_616:\n        /* \"#utility.yul\":4125:4175   */\n      tag_716\n        /* \"#utility.yul\":4169:4174   */\n      dup2\n        /* \"#utility.yul\":4125:4175   */\n      tag_610\n      jump\t// in\n    tag_716:\n        /* \"#utility.yul\":4191:4273   */\n      tag_717\n        /* \"#utility.yul\":4266:4272   */\n      dup2\n        /* \"#utility.yul\":4261:4264   */\n      dup5\n        /* \"#utility.yul\":4191:4273   */\n      tag_611\n      jump\t// in\n    tag_717:\n        /* \"#utility.yul\":4184:4273   */\n      swap3\n      pop\n        /* \"#utility.yul\":4297:4349   */\n      tag_718\n        /* \"#utility.yul\":4343:4348   */\n      dup3\n        /* \"#utility.yul\":4297:4349   */\n      tag_612\n      jump\t// in\n    tag_718:\n        /* \"#utility.yul\":4372:4379   */\n      dup1\n        /* \"#utility.yul\":4403:4404   */\n      0x00\n        /* \"#utility.yul\":4388:4664   */\n    tag_719:\n        /* \"#utility.yul\":4413:4419   */\n      dup4\n        /* \"#utility.yul\":4410:4411   */\n      dup2\n        /* \"#utility.yul\":4407:4420   */\n      lt\n        /* \"#utility.yul\":4388:4664   */\n      iszero\n      tag_721\n      jumpi\n        /* \"#utility.yul\":4489:4495   */\n      dup2\n        /* \"#utility.yul\":4483:4496   */\n      mload\n        /* \"#utility.yul\":4516:4575   */\n      tag_722\n        /* \"#utility.yul\":4571:4574   */\n      dup8\n        /* \"#utility.yul\":4556:4569   */\n      dup3\n        /* \"#utility.yul\":4516:4575   */\n      tag_614\n      jump\t// in\n    tag_722:\n        /* \"#utility.yul\":4509:4575   */\n      swap7\n      pop\n        /* \"#utility.yul\":4598:4654   */\n      tag_723\n        /* \"#utility.yul\":4647:4653   */\n      dup4\n        /* \"#utility.yul\":4598:4654   */\n      tag_615\n      jump\t// in\n    tag_723:\n        /* \"#utility.yul\":4588:4654   */\n      swap3\n      pop\n        /* \"#utility.yul\":4448:4664   */\n      pop\n        /* \"#utility.yul\":4435:4436   */\n      0x01\n        /* \"#utility.yul\":4432:4433   */\n      dup2\n        /* \"#utility.yul\":4428:4437   */\n      add\n        /* \"#utility.yul\":4423:4437   */\n      swap1\n      pop\n        /* \"#utility.yul\":4388:4664   */\n      jump(tag_719)\n    tag_721:\n        /* \"#utility.yul\":4392:4406   */\n      pop\n        /* \"#utility.yul\":4101:4671   */\n      pop\n      pop\n      pop\n        /* \"#utility.yul\":3993:4671   */\n      pop\n      pop\n      jump\t// out\n        /* \"#utility.yul\":4677:4984   */\n    tag_51:\n        /* \"#utility.yul\":4812:4816   */\n      0x00\n        /* \"#utility.yul\":4850:4853   */\n      0x80\n        /* \"#utility.yul\":4839:4848   */\n      dup3\n        /* \"#utility.yul\":4835:4854   */\n      add\n        /* \"#utility.yul\":4827:4854   */\n      swap1\n      pop\n        /* \"#utility.yul\":4864:4977   */\n      tag_725\n        /* \"#utility.yul\":4974:4975   */\n      0x00\n        /* \"#utility.yul\":4963:4972   */\n      dup4\n        /* \"#utility.yul\":4959:4976   */\n      add\n        /* \"#utility.yul\":4950:4956   */\n      dup5\n        /* \"#utility.yul\":4864:4977   */\n      tag_616\n      jump\t// in\n    tag_725:\n        /* \"#utility.yul\":4677:4984   */\n      swap3\n      swap2\n      pop\n      pop\n      jump\t// out\n        /* \"#utility.yul\":4990:5108   */\n    tag_617:\n        /* \"#utility.yul\":5077:5101   */\n      tag_727\n        /* \"#utility.yul\":5095:5100   */\n      dup2\n        /* \"#utility.yul\":5077:5101   */\n      tag_601\n      jump\t// in\n    tag_727:\n        /* \"#utility.yul\":5072:5075   */\n      dup3\n        /* \"#utility.yul\":5065:5102   */\n      mstore\n        /* \"#utility.yul\":4990:5108   */\n      pop\n      pop\n      jump\t// out\n        /* \"#utility.yul\":5114:5336   */\n    tag_55:\n        /* \"#utility.yul\":5207:5211   */\n      0x00\n        /* \"#utility.yul\":5245:5247   */\n      0x20\n        /* \"#utility.yul\":5234:5243   */\n      dup3\n        /* \"#utility.yul\":5230:5248   */\n      add\n        /* \"#utility.yul\":5222:5248   */\n      swap1\n      pop\n        /* \"#utility.yul\":5258:5329   */\n      tag_729\n        /* \"#utility.yul\":5326:5327   */\n      0x00\n        /* \"#utility.yul\":5315:5324   */\n      dup4\n        /* \"#utility.yul\":5311:5328   */\n      add\n        /* \"#utility.yul\":5302:5308   */\n      dup5\n        /* \"#utility.yul\":5258:5329   */\n      tag_617\n      jump\t// in\n    tag_729:\n        /* \"#utility.yul\":5114:5336   */\n      swap3\n      swap2\n      pop\n      pop\n      jump\t// out\n        /* \"#utility.yul\":5342:5462   */\n    tag_618:\n        /* \"#utility.yul\":5414:5437   */\n      tag_731\n        /* \"#utility.yul\":5431:5436   */\n      dup2\n        /* \"#utility.yul\":5414:5437   */\n      tag_608\n      jump\t// in\n    tag_731:\n        /* \"#utility.yul\":5407:5412   */\n      dup2\n        /* \"#utility.yul\":5404:5438   */\n      eq\n        /* \"#utility.yul\":5394:5456   */\n      tag_732\n      jumpi\n        /* \"#utility.yul\":5452:5453   */\n      0x00\n        /* \"#utility.yul\":5449:5450   */\n      dup1\n        /* \"#utility.yul\":5442:5454   */\n      revert\n        /* \"#utility.yul\":5394:5456   */\n    tag_732:\n        /* \"#utility.yul\":5342:5462   */\n      pop\n      jump\t// out\n        /* \"#utility.yul\":5468:5605   */\n    tag_619:\n        /* \"#utility.yul\":5513:5518   */\n      0x00\n        /* \"#utility.yul\":5551:5557   */\n      dup2\n        /* \"#utility.yul\":5538:5558   */\n      calldataload\n        /* \"#utility.yul\":5529:5558   */\n      swap1\n      pop\n        /* \"#utility.yul\":5567:5599   */\n      tag_734\n        /* \"#utility.yul\":5593:5598   */\n      dup2\n        /* \"#utility.yul\":5567:5599   */\n      tag_618\n      jump\t// in\n    tag_734:\n        /* \"#utility.yul\":5468:5605   */\n      swap3\n      swap2\n      pop\n      pop\n      jump\t// out\n        /* \"#utility.yul\":5611:6083   */\n    tag_58:\n        /* \"#utility.yul\":5678:5684   */\n      0x00\n        /* \"#utility.yul\":5686:5692   */\n      dup1\n        /* \"#utility.yul\":5735:5737   */\n      0x40\n        /* \"#utility.yul\":5723:5732   */\n      dup4\n        /* \"#utility.yul\":5714:5721   */\n      dup6\n        /* \"#utility.yul\":5710:5733   */\n      sub\n        /* \"#utility.yul\":5706:5738   */\n      slt\n        /* \"#utility.yul\":5703:5822   */\n      iszero\n      tag_736\n      jumpi\n        /* \"#utility.yul\":5741:5820   */\n      tag_737\n      tag_598\n      jump\t// in\n    tag_737:\n        /* \"#utility.yul\":5703:5822   */\n    tag_736:\n        /* \"#utility.yul\":5861:5862   */\n      0x00\n        /* \"#utility.yul\":5886:5939   */\n      tag_738\n        /* \"#utility.yul\":5931:5938   */\n      dup6\n        /* \"#utility.yul\":5922:5928   */\n      dup3\n        /* \"#utility.yul\":5911:5920   */\n      dup7\n        /* \"#utility.yul\":5907:5929   */\n      add\n        /* \"#utility.yul\":5886:5939   */\n      tag_603\n      jump\t// in\n    tag_738:\n        /* \"#utility.yul\":5876:5939   */\n      swap3\n      pop\n        /* \"#utility.yul\":5832:5949   */\n      pop\n        /* \"#utility.yul\":5988:5990   */\n      0x20\n        /* \"#utility.yul\":6014:6066   */\n      tag_739\n        /* \"#utility.yul\":6058:6065   */\n      dup6\n        /* \"#utility.yul\":6049:6055   */\n      dup3\n        /* \"#utility.yul\":6038:6047   */\n      dup7\n        /* \"#utility.yul\":6034:6056   */\n      add\n        /* \"#utility.yul\":6014:6066   */\n      tag_619\n      jump\t// in\n    tag_739:\n        /* \"#utility.yul\":6004:6066   */\n      swap2\n      pop\n        /* \"#utility.yul\":5959:6076   */\n      pop\n        /* \"#utility.yul\":5611:6083   */\n      swap3\n      pop\n      swap3\n      swap1\n      pop\n      jump\t// out\n        /* \"#utility.yul\":6089:6166   */\n    tag_620:\n        /* \"#utility.yul\":6126:6133   */\n      0x00\n        /* \"#utility.yul\":6155:6160   */\n      dup2\n        /* \"#utility.yul\":6144:6160   */\n      swap1\n      pop\n        /* \"#utility.yul\":6089:6166   */\n      swap2\n      swap1\n      pop\n      jump\t// out\n        /* \"#utility.yul\":6172:6290   */\n    tag_621:\n        /* \"#utility.yul\":6259:6283   */\n      tag_742\n        /* \"#utility.yul\":6277:6282   */\n      dup2\n        /* \"#utility.yul\":6259:6283   */\n      tag_620\n      jump\t// in\n    tag_742:\n        /* \"#utility.yul\":6254:6257   */\n      dup3\n        /* \"#utility.yul\":6247:6284   */\n      mstore\n        /* \"#utility.yul\":6172:6290   */\n      pop\n      pop\n      jump\t// out\n        /* \"#utility.yul\":6296:6518   */\n    tag_61:\n        /* \"#utility.yul\":6389:6393   */\n      0x00\n        /* \"#utility.yul\":6427:6429   */\n      0x20\n        /* \"#utility.yul\":6416:6425   */\n      dup3\n        /* \"#utility.yul\":6412:6430   */\n      add\n        /* \"#utility.yul\":6404:6430   */\n      swap1\n      pop\n        /* \"#utility.yul\":6440:6511   */\n      tag_744\n        /* \"#utility.yul\":6508:6509   */\n      0x00\n        /* \"#utility.yul\":6497:6506   */\n      dup4\n        /* \"#utility.yul\":6493:6510   */\n      add\n        /* \"#utility.yul\":6484:6490   */\n      dup5\n        /* \"#utility.yul\":6440:6511   */\n      tag_621\n      jump\t// in\n    tag_744:\n        /* \"#utility.yul\":6296:6518   */\n      swap3\n      swap2\n      pop\n      pop\n      jump\t// out\n        /* \"#utility.yul\":6524:6840   */\n    tag_67:\n        /* \"#utility.yul\":6637:6641   */\n      0x00\n        /* \"#utility.yul\":6675:6677   */\n      0x40\n        /* \"#utility.yul\":6664:6673   */\n      dup3\n        /* \"#utility.yul\":6660:6678   */\n      add\n        /* \"#utility.yul\":6652:6678   */\n      swap1\n      pop\n        /* \"#utility.yul\":6688:6755   */\n      tag_746\n        /* \"#utility.yul\":6752:6753   */\n      0x00\n        /* \"#utility.yul\":6741:6750   */\n      dup4\n        /* \"#utility.yul\":6737:6754   */\n      add\n        /* \"#utility.yul\":6728:6734   */\n      dup6\n        /* \"#utility.yul\":6688:6755   */\n      tag_596\n      jump\t// in\n    tag_746:\n        /* \"#utility.yul\":6765:6833   */\n      tag_747\n        /* \"#utility.yul\":6829:6831   */\n      0x20\n        /* \"#utility.yul\":6818:6827   */\n      dup4\n        /* \"#utility.yul\":6814:6832   */\n      add\n        /* \"#utility.yul\":6805:6811   */\n      dup5\n        /* \"#utility.yul\":6765:6833   */\n      tag_596\n      jump\t// in\n    tag_747:\n        /* \"#utility.yul\":6524:6840   */\n      swap4\n      swap3\n      pop\n      pop\n      pop\n      jump\t// out\n        /* \"#utility.yul\":6846:6949   */\n    tag_622:\n        /* \"#utility.yul\":6910:6916   */\n      0x00\n        /* \"#utility.yul\":6938:6942   */\n      0x10\n        /* \"#utility.yul\":6928:6942   */\n      swap1\n      pop\n        /* \"#utility.yul\":6846:6949   */\n      swap2\n      swap1\n      pop\n      jump\t// out\n        /* \"#utility.yul\":6955:7097   */\n    tag_623:\n        /* \"#utility.yul\":7051:7062   */\n      0x00\n        /* \"#utility.yul\":7088:7091   */\n      dup2\n        /* \"#utility.yul\":7073:7091   */\n      swap1\n      pop\n        /* \"#utility.yul\":6955:7097   */\n      swap3\n      swap2\n      pop\n      pop\n      jump\t// out\n        /* \"#utility.yul\":7103:7200   */\n    tag_624:\n        /* \"#utility.yul\":7167:7171   */\n      0x00\n        /* \"#utility.yul\":7190:7193   */\n      dup2\n        /* \"#utility.yul\":7182:7193   */\n      swap1\n      pop\n        /* \"#utility.yul\":7103:7200   */\n      swap2\n      swap1\n      pop\n      jump\t// out\n        /* \"#utility.yul\":7206:7316   */\n    tag_625:\n        /* \"#utility.yul\":7273:7277   */\n      0x00\n        /* \"#utility.yul\":7305:7309   */\n      0x20\n        /* \"#utility.yul\":7300:7303   */\n      dup3\n        /* \"#utility.yul\":7296:7310   */\n      add\n        /* \"#utility.yul\":7288:7310   */\n      swap1\n      pop\n        /* \"#utility.yul\":7206:7316   */\n      swap2\n      swap1\n      pop\n      jump\t// out\n        /* \"#utility.yul\":7352:8036   */\n    tag_626:\n        /* \"#utility.yul\":7486:7537   */\n      tag_753\n        /* \"#utility.yul\":7531:7536   */\n      dup2\n        /* \"#utility.yul\":7486:7537   */\n      tag_622\n      jump\t// in\n    tag_753:\n        /* \"#utility.yul\":7553:7636   */\n      tag_754\n        /* \"#utility.yul\":7629:7635   */\n      dup2\n        /* \"#utility.yul\":7624:7627   */\n      dup5\n        /* \"#utility.yul\":7553:7636   */\n      tag_623\n      jump\t// in\n    tag_754:\n        /* \"#utility.yul\":7546:7636   */\n      swap3\n      pop\n        /* \"#utility.yul\":7660:7713   */\n      tag_755\n        /* \"#utility.yul\":7707:7712   */\n      dup3\n        /* \"#utility.yul\":7660:7713   */\n      tag_624\n      jump\t// in\n    tag_755:\n        /* \"#utility.yul\":7736:7743   */\n      dup1\n        /* \"#utility.yul\":7767:7768   */\n      0x00\n        /* \"#utility.yul\":7752:8029   */\n    tag_756:\n        /* \"#utility.yul\":7777:7783   */\n      dup4\n        /* \"#utility.yul\":7774:7775   */\n      dup2\n        /* \"#utility.yul\":7771:7784   */\n      lt\n        /* \"#utility.yul\":7752:8029   */\n      iszero\n      tag_758\n      jumpi\n        /* \"#utility.yul\":7853:7859   */\n      dup2\n        /* \"#utility.yul\":7847:7860   */\n      mload\n        /* \"#utility.yul\":7880:7939   */\n      tag_759\n        /* \"#utility.yul\":7935:7938   */\n      dup8\n        /* \"#utility.yul\":7920:7933   */\n      dup3\n        /* \"#utility.yul\":7880:7939   */\n      tag_614\n      jump\t// in\n    tag_759:\n        /* \"#utility.yul\":7873:7939   */\n      swap7\n      pop\n        /* \"#utility.yul\":7962:8019   */\n      tag_760\n        /* \"#utility.yul\":8012:8018   */\n      dup4\n        /* \"#utility.yul\":7962:8019   */\n      tag_625\n      jump\t// in\n    tag_760:\n        /* \"#utility.yul\":7952:8019   */\n      swap3\n      pop\n        /* \"#utility.yul\":7812:8029   */\n      pop\n        /* \"#utility.yul\":7799:7800   */\n      0x01\n        /* \"#utility.yul\":7796:7797   */\n      dup2\n        /* \"#utility.yul\":7792:7801   */\n      add\n        /* \"#utility.yul\":7787:7801   */\n      swap1\n      pop\n        /* \"#utility.yul\":7752:8029   */\n      jump(tag_756)\n    tag_758:\n        /* \"#utility.yul\":7756:7770   */\n      pop\n        /* \"#utility.yul\":7462:8036   */\n      pop\n      pop\n      pop\n        /* \"#utility.yul\":7352:8036   */\n      pop\n      pop\n      jump\t// out\n        /* \"#utility.yul\":8042:8353   */\n    tag_71:\n        /* \"#utility.yul\":8179:8183   */\n      0x00\n        /* \"#utility.yul\":8217:8220   */\n      0x0200\n        /* \"#utility.yul\":8206:8215   */\n      dup3\n        /* \"#utility.yul\":8202:8221   */\n      add\n        /* \"#utility.yul\":8194:8221   */\n      swap1\n      pop\n        /* \"#utility.yul\":8231:8346   */\n      tag_762\n        /* \"#utility.yul\":8343:8344   */\n      0x00\n        /* \"#utility.yul\":8332:8341   */\n      dup4\n        /* \"#utility.yul\":8328:8345   */\n      add\n        /* \"#utility.yul\":8319:8325   */\n      dup5\n        /* \"#utility.yul\":8231:8346   */\n      tag_626\n      jump\t// in\n    tag_762:\n        /* \"#utility.yul\":8042:8353   */\n      swap3\n      swap2\n      pop\n      pop\n      jump\t// out\n        /* \"#utility.yul\":8359:8476   */\n    tag_627:\n        /* \"#utility.yul\":8468:8469   */\n      0x00\n        /* \"#utility.yul\":8465:8466   */\n      dup1\n        /* \"#utility.yul\":8458:8470   */\n      revert\n        /* \"#utility.yul\":8498:8745   */\n    tag_628:\n        /* \"#utility.yul\":8567:8575   */\n      0x00\n        /* \"#utility.yul\":8598:8604   */\n      dup2\n        /* \"#utility.yul\":8586:8604   */\n      swap1\n      pop\n        /* \"#utility.yul\":8651:8654   */\n      dup3\n        /* \"#utility.yul\":8643:8647   */\n      0x20\n        /* \"#utility.yul\":8637:8641   */\n      0x08\n        /* \"#utility.yul\":8633:8648   */\n      mul\n        /* \"#utility.yul\":8623:8631   */\n      dup3\n        /* \"#utility.yul\":8619:8649   */\n      add\n        /* \"#utility.yul\":8616:8655   */\n      gt\n        /* \"#utility.yul\":8613:8739   */\n      iszero\n      tag_765\n      jumpi\n        /* \"#utility.yul\":8658:8737   */\n      tag_766\n      tag_627\n      jump\t// in\n    tag_766:\n        /* \"#utility.yul\":8613:8739   */\n    tag_765:\n        /* \"#utility.yul\":8498:8745   */\n      swap3\n      swap2\n      pop\n      pop\n      jump\t// out\n        /* \"#utility.yul\":8767:9014   */\n    tag_629:\n        /* \"#utility.yul\":8836:8844   */\n      0x00\n        /* \"#utility.yul\":8867:8873   */\n      dup2\n        /* \"#utility.yul\":8855:8873   */\n      swap1\n      pop\n        /* \"#utility.yul\":8920:8923   */\n      dup3\n        /* \"#utility.yul\":8912:8916   */\n      0x20\n        /* \"#utility.yul\":8906:8910   */\n      0x04\n        /* \"#utility.yul\":8902:8917   */\n      mul\n        /* \"#utility.yul\":8892:8900   */\n      dup3\n        /* \"#utility.yul\":8888:8918   */\n      add\n        /* \"#utility.yul\":8885:8924   */\n      gt\n        /* \"#utility.yul\":8882:9008   */\n      iszero\n      tag_768\n      jumpi\n        /* \"#utility.yul\":8927:9006   */\n      tag_769\n      tag_627\n      jump\t// in\n    tag_769:\n        /* \"#utility.yul\":8882:9008   */\n    tag_768:\n        /* \"#utility.yul\":8767:9014   */\n      swap3\n      swap2\n      pop\n      pop\n      jump\t// out\n        /* \"#utility.yul\":9036:9283   */\n    tag_630:\n        /* \"#utility.yul\":9105:9113   */\n      0x00\n        /* \"#utility.yul\":9136:9142   */\n      dup2\n        /* \"#utility.yul\":9124:9142   */\n      swap1\n      pop\n        /* \"#utility.yul\":9189:9192   */\n      dup3\n        /* \"#utility.yul\":9181:9185   */\n      0x20\n        /* \"#utility.yul\":9175:9179   */\n      0x02\n        /* \"#utility.yul\":9171:9186   */\n      mul\n        /* \"#utility.yul\":9161:9169   */\n      dup3\n        /* \"#utility.yul\":9157:9187   */\n      add\n        /* \"#utility.yul\":9154:9193   */\n      gt\n        /* \"#utility.yul\":9151:9277   */\n      iszero\n      tag_771\n      jumpi\n        /* \"#utility.yul\":9196:9275   */\n      tag_772\n      tag_627\n      jump\t// in\n    tag_772:\n        /* \"#utility.yul\":9151:9277   */\n    tag_771:\n        /* \"#utility.yul\":9036:9283   */\n      swap3\n      swap2\n      pop\n      pop\n      jump\t// out\n        /* \"#utility.yul\":9289:9407   */\n    tag_631:\n        /* \"#utility.yul\":9360:9382   */\n      tag_774\n        /* \"#utility.yul\":9376:9381   */\n      dup2\n        /* \"#utility.yul\":9360:9382   */\n      tag_595\n      jump\t// in\n    tag_774:\n        /* \"#utility.yul\":9353:9358   */\n      dup2\n        /* \"#utility.yul\":9350:9383   */\n      eq\n        /* \"#utility.yul\":9340:9401   */\n      tag_775\n      jumpi\n        /* \"#utility.yul\":9397:9398   */\n      0x00\n        /* \"#utility.yul\":9394:9395   */\n      dup1\n        /* \"#utility.yul\":9387:9399   */\n      revert\n        /* \"#utility.yul\":9340:9401   */\n    tag_775:\n        /* \"#utility.yul\":9289:9407   */\n      pop\n      jump\t// out\n        /* \"#utility.yul\":9413:9548   */\n    tag_632:\n        /* \"#utility.yul\":9457:9462   */\n      0x00\n        /* \"#utility.yul\":9495:9501   */\n      dup2\n        /* \"#utility.yul\":9482:9502   */\n      calldataload\n        /* \"#utility.yul\":9473:9502   */\n      swap1\n      pop\n        /* \"#utility.yul\":9511:9542   */\n      tag_777\n        /* \"#utility.yul\":9536:9541   */\n      dup2\n        /* \"#utility.yul\":9511:9542   */\n      tag_631\n      jump\t// in\n    tag_777:\n        /* \"#utility.yul\":9413:9548   */\n      swap3\n      swap2\n      pop\n      pop\n      jump\t// out\n        /* \"#utility.yul\":9554:10598   */\n    tag_77:\n        /* \"#utility.yul\":9714:9720   */\n      0x00\n        /* \"#utility.yul\":9722:9728   */\n      dup1\n        /* \"#utility.yul\":9730:9736   */\n      0x00\n        /* \"#utility.yul\":9738:9744   */\n      dup1\n        /* \"#utility.yul\":9746:9752   */\n      0x00\n        /* \"#utility.yul\":9795:9798   */\n      0x0200\n        /* \"#utility.yul\":9783:9792   */\n      dup7\n        /* \"#utility.yul\":9774:9781   */\n      dup9\n        /* \"#utility.yul\":9770:9793   */\n      sub\n        /* \"#utility.yul\":9766:9799   */\n      slt\n        /* \"#utility.yul\":9763:9883   */\n      iszero\n      tag_779\n      jumpi\n        /* \"#utility.yul\":9802:9881   */\n      tag_780\n      tag_598\n      jump\t// in\n    tag_780:\n        /* \"#utility.yul\":9763:9883   */\n    tag_779:\n        /* \"#utility.yul\":9922:9923   */\n      0x00\n        /* \"#utility.yul\":9947:10023   */\n      tag_781\n        /* \"#utility.yul\":10015:10022   */\n      dup9\n        /* \"#utility.yul\":10006:10012   */\n      dup3\n        /* \"#utility.yul\":9995:10004   */\n      dup10\n        /* \"#utility.yul\":9991:10013   */\n      add\n        /* \"#utility.yul\":9947:10023   */\n      tag_628\n      jump\t// in\n    tag_781:\n        /* \"#utility.yul\":9937:10023   */\n      swap6\n      pop\n        /* \"#utility.yul\":9893:10033   */\n      pop\n        /* \"#utility.yul\":10072:10075   */\n      0x0100\n        /* \"#utility.yul\":10099:10175   */\n      tag_782\n        /* \"#utility.yul\":10167:10174   */\n      dup9\n        /* \"#utility.yul\":10158:10164   */\n      dup3\n        /* \"#utility.yul\":10147:10156   */\n      dup10\n        /* \"#utility.yul\":10143:10165   */\n      add\n        /* \"#utility.yul\":10099:10175   */\n      tag_629\n      jump\t// in\n    tag_782:\n        /* \"#utility.yul\":10089:10175   */\n      swap5\n      pop\n        /* \"#utility.yul\":10043:10185   */\n      pop\n        /* \"#utility.yul\":10224:10227   */\n      0x0180\n        /* \"#utility.yul\":10251:10327   */\n      tag_783\n        /* \"#utility.yul\":10319:10326   */\n      dup9\n        /* \"#utility.yul\":10310:10316   */\n      dup3\n        /* \"#utility.yul\":10299:10308   */\n      dup10\n        /* \"#utility.yul\":10295:10317   */\n      add\n        /* \"#utility.yul\":10251:10327   */\n      tag_630\n      jump\t// in\n    tag_783:\n        /* \"#utility.yul\":10241:10327   */\n      swap4\n      pop\n        /* \"#utility.yul\":10195:10337   */\n      pop\n        /* \"#utility.yul\":10376:10379   */\n      0x01c0\n        /* \"#utility.yul\":10403:10454   */\n      tag_784\n        /* \"#utility.yul\":10446:10453   */\n      dup9\n        /* \"#utility.yul\":10437:10443   */\n      dup3\n        /* \"#utility.yul\":10426:10435   */\n      dup10\n        /* \"#utility.yul\":10422:10444   */\n      add\n        /* \"#utility.yul\":10403:10454   */\n      tag_632\n      jump\t// in\n    tag_784:\n        /* \"#utility.yul\":10393:10454   */\n      swap3\n      pop\n        /* \"#utility.yul\":10347:10464   */\n      pop\n        /* \"#utility.yul\":10503:10506   */\n      0x01e0\n        /* \"#utility.yul\":10530:10581   */\n      tag_785\n        /* \"#utility.yul\":10573:10580   */\n      dup9\n        /* \"#utility.yul\":10564:10570   */\n      dup3\n        /* \"#utility.yul\":10553:10562   */\n      dup10\n        /* \"#utility.yul\":10549:10571   */\n      add\n        /* \"#utility.yul\":10530:10581   */\n      tag_632\n      jump\t// in\n    tag_785:\n        /* \"#utility.yul\":10520:10581   */\n      swap2\n      pop\n        /* \"#utility.yul\":10474:10591   */\n      pop\n        /* \"#utility.yul\":9554:10598   */\n      swap3\n      swap6\n      pop\n      swap3\n      swap6\n      swap1\n      swap4\n      pop\n      jump\t// out\n        /* \"#utility.yul\":10604:10706   */\n    tag_633:\n        /* \"#utility.yul\":10667:10673   */\n      0x00\n        /* \"#utility.yul\":10695:10699   */\n      0x08\n        /* \"#utility.yul\":10685:10699   */\n      swap1\n      pop\n        /* \"#utility.yul\":10604:10706   */\n      swap2\n      swap1\n      pop\n      jump\t// out\n        /* \"#utility.yul\":10712:10853   */\n    tag_634:\n        /* \"#utility.yul\":10807:10818   */\n      0x00\n        /* \"#utility.yul\":10844:10847   */\n      dup2\n        /* \"#utility.yul\":10829:10847   */\n      swap1\n      pop\n        /* \"#utility.yul\":10712:10853   */\n      swap3\n      swap2\n      pop\n      pop\n      jump\t// out\n        /* \"#utility.yul\":10859:10955   */\n    tag_635:\n        /* \"#utility.yul\":10922:10926   */\n      0x00\n        /* \"#utility.yul\":10945:10948   */\n      dup2\n        /* \"#utility.yul\":10937:10948   */\n      swap1\n      pop\n        /* \"#utility.yul\":10859:10955   */\n      swap2\n      swap1\n      pop\n      jump\t// out\n        /* \"#utility.yul\":10961:11070   */\n    tag_636:\n        /* \"#utility.yul\":11027:11031   */\n      0x00\n        /* \"#utility.yul\":11059:11063   */\n      0x20\n        /* \"#utility.yul\":11054:11057   */\n      dup3\n        /* \"#utility.yul\":11050:11064   */\n      add\n        /* \"#utility.yul\":11042:11064   */\n      swap1\n      pop\n        /* \"#utility.yul\":10961:11070   */\n      swap2\n      swap1\n      pop\n      jump\t// out\n        /* \"#utility.yul\":11104:11782   */\n    tag_637:\n        /* \"#utility.yul\":11236:11286   */\n      tag_791\n        /* \"#utility.yul\":11280:11285   */\n      dup2\n        /* \"#utility.yul\":11236:11286   */\n      tag_633\n      jump\t// in\n    tag_791:\n        /* \"#utility.yul\":11302:11384   */\n      tag_792\n        /* \"#utility.yul\":11377:11383   */\n      dup2\n        /* \"#utility.yul\":11372:11375   */\n      dup5\n        /* \"#utility.yul\":11302:11384   */\n      tag_634\n      jump\t// in\n    tag_792:\n        /* \"#utility.yul\":11295:11384   */\n      swap3\n      pop\n        /* \"#utility.yul\":11408:11460   */\n      tag_793\n        /* \"#utility.yul\":11454:11459   */\n      dup3\n        /* \"#utility.yul\":11408:11460   */\n      tag_635\n      jump\t// in\n    tag_793:\n        /* \"#utility.yul\":11483:11490   */\n      dup1\n        /* \"#utility.yul\":11514:11515   */\n      0x00\n        /* \"#utility.yul\":11499:11775   */\n    tag_794:\n        /* \"#utility.yul\":11524:11530   */\n      dup4\n        /* \"#utility.yul\":11521:11522   */\n      dup2\n        /* \"#utility.yul\":11518:11531   */\n      lt\n        /* \"#utility.yul\":11499:11775   */\n      iszero\n      tag_796\n      jumpi\n        /* \"#utility.yul\":11600:11606   */\n      dup2\n        /* \"#utility.yul\":11594:11607   */\n      mload\n        /* \"#utility.yul\":11627:11686   */\n      tag_797\n        /* \"#utility.yul\":11682:11685   */\n      dup8\n        /* \"#utility.yul\":11667:11680   */\n      dup3\n        /* \"#utility.yul\":11627:11686   */\n      tag_614\n      jump\t// in\n    tag_797:\n        /* \"#utility.yul\":11620:11686   */\n      swap7\n      pop\n        /* \"#utility.yul\":11709:11765   */\n      tag_798\n        /* \"#utility.yul\":11758:11764   */\n      dup4\n        /* \"#utility.yul\":11709:11765   */\n      tag_636\n      jump\t// in\n    tag_798:\n        /* \"#utility.yul\":11699:11765   */\n      swap3\n      pop\n        /* \"#utility.yul\":11559:11775   */\n      pop\n        /* \"#utility.yul\":11546:11547   */\n      0x01\n        /* \"#utility.yul\":11543:11544   */\n      dup2\n        /* \"#utility.yul\":11539:11548   */\n      add\n        /* \"#utility.yul\":11534:11548   */\n      swap1\n      pop\n        /* \"#utility.yul\":11499:11775   */\n      jump(tag_794)\n    tag_796:\n        /* \"#utility.yul\":11503:11517   */\n      pop\n        /* \"#utility.yul\":11212:11782   */\n      pop\n      pop\n      pop\n        /* \"#utility.yul\":11104:11782   */\n      pop\n      pop\n      jump\t// out\n        /* \"#utility.yul\":11788:12095   */\n    tag_82:\n        /* \"#utility.yul\":11923:11927   */\n      0x00\n        /* \"#utility.yul\":11961:11964   */\n      0x0100\n        /* \"#utility.yul\":11950:11959   */\n      dup3\n        /* \"#utility.yul\":11946:11965   */\n      add\n        /* \"#utility.yul\":11938:11965   */\n      swap1\n      pop\n        /* \"#utility.yul\":11975:12088   */\n      tag_800\n        /* \"#utility.yul\":12085:12086   */\n      0x00\n        /* \"#utility.yul\":12074:12083   */\n      dup4\n        /* \"#utility.yul\":12070:12087   */\n      add\n        /* \"#utility.yul\":12061:12067   */\n      dup5\n        /* \"#utility.yul\":11975:12088   */\n      tag_637\n      jump\t// in\n    tag_800:\n        /* \"#utility.yul\":11788:12095   */\n      swap3\n      swap2\n      pop\n      pop\n      jump\t// out\n        /* \"#utility.yul\":12118:12366   */\n    tag_638:\n        /* \"#utility.yul\":12188:12196   */\n      0x00\n        /* \"#utility.yul\":12219:12225   */\n      dup2\n        /* \"#utility.yul\":12207:12225   */\n      swap1\n      pop\n        /* \"#utility.yul\":12272:12275   */\n      dup3\n        /* \"#utility.yul\":12264:12268   */\n      0x20\n        /* \"#utility.yul\":12258:12262   */\n      0x10\n        /* \"#utility.yul\":12254:12269   */\n      mul\n        /* \"#utility.yul\":12244:12252   */\n      dup3\n        /* \"#utility.yul\":12240:12270   */\n      add\n        /* \"#utility.yul\":12237:12276   */\n      gt\n        /* \"#utility.yul\":12234:12360   */\n      iszero\n      tag_802\n      jumpi\n        /* \"#utility.yul\":12279:12358   */\n      tag_803\n      tag_627\n      jump\t// in\n    tag_803:\n        /* \"#utility.yul\":12234:12360   */\n    tag_802:\n        /* \"#utility.yul\":12118:12366   */\n      swap3\n      swap2\n      pop\n      pop\n      jump\t// out\n        /* \"#utility.yul\":12372:12750   */\n    tag_85:\n        /* \"#utility.yul\":12455:12461   */\n      0x00\n        /* \"#utility.yul\":12504:12507   */\n      0x0200\n        /* \"#utility.yul\":12492:12501   */\n      dup3\n        /* \"#utility.yul\":12483:12490   */\n      dup5\n        /* \"#utility.yul\":12479:12502   */\n      sub\n        /* \"#utility.yul\":12475:12508   */\n      slt\n        /* \"#utility.yul\":12472:12592   */\n      iszero\n      tag_805\n      jumpi\n        /* \"#utility.yul\":12511:12590   */\n      tag_806\n      tag_598\n      jump\t// in\n    tag_806:\n        /* \"#utility.yul\":12472:12592   */\n    tag_805:\n        /* \"#utility.yul\":12631:12632   */\n      0x00\n        /* \"#utility.yul\":12656:12733   */\n      tag_807\n        /* \"#utility.yul\":12725:12732   */\n      dup5\n        /* \"#utility.yul\":12716:12722   */\n      dup3\n        /* \"#utility.yul\":12705:12714   */\n      dup6\n        /* \"#utility.yul\":12701:12723   */\n      add\n        /* \"#utility.yul\":12656:12733   */\n      tag_638\n      jump\t// in\n    tag_807:\n        /* \"#utility.yul\":12646:12733   */\n      swap2\n      pop\n        /* \"#utility.yul\":12602:12743   */\n      pop\n        /* \"#utility.yul\":12372:12750   */\n      swap3\n      swap2\n      pop\n      pop\n      jump\t// out\n        /* \"#utility.yul\":12756:13083   */\n    tag_100:\n        /* \"#utility.yul\":12814:12820   */\n      0x00\n        /* \"#utility.yul\":12863:12865   */\n      0x20\n        /* \"#utility.yul\":12851:12860   */\n      dup3\n        /* \"#utility.yul\":12842:12849   */\n      dup5\n        /* \"#utility.yul\":12838:12861   */\n      sub\n        /* \"#utility.yul\":12834:12866   */\n      slt\n        /* \"#utility.yul\":12831:12950   */\n      iszero\n      tag_809\n      jumpi\n        /* \"#utility.yul\":12869:12948   */\n      tag_810\n      tag_598\n      jump\t// in\n    tag_810:\n        /* \"#utility.yul\":12831:12950   */\n    tag_809:\n        /* \"#utility.yul\":12989:12990   */\n      0x00\n        /* \"#utility.yul\":13014:13066   */\n      tag_811\n        /* \"#utility.yul\":13058:13065   */\n      dup5\n        /* \"#utility.yul\":13049:13055   */\n      dup3\n        /* \"#utility.yul\":13038:13047   */\n      dup6\n        /* \"#utility.yul\":13034:13056   */\n      add\n        /* \"#utility.yul\":13014:13066   */\n      tag_619\n      jump\t// in\n    tag_811:\n        /* \"#utility.yul\":13004:13066   */\n      swap2\n      pop\n        /* \"#utility.yul\":12960:13076   */\n      pop\n        /* \"#utility.yul\":12756:13083   */\n      swap3\n      swap2\n      pop\n      pop\n      jump\t// out\n        /* \"#utility.yul\":13089:13211   */\n    tag_639:\n        /* \"#utility.yul\":13162:13186   */\n      tag_813\n        /* \"#utility.yul\":13180:13185   */\n      dup2\n        /* \"#utility.yul\":13162:13186   */\n      tag_620\n      jump\t// in\n    tag_813:\n        /* \"#utility.yul\":13155:13160   */\n      dup2\n        /* \"#utility.yul\":13152:13187   */\n      eq\n        /* \"#utility.yul\":13142:13205   */\n      tag_814\n      jumpi\n        /* \"#utility.yul\":13201:13202   */\n      0x00\n        /* \"#utility.yul\":13198:13199   */\n      dup1\n        /* \"#utility.yul\":13191:13203   */\n      revert\n        /* \"#utility.yul\":13142:13205   */\n    tag_814:\n        /* \"#utility.yul\":13089:13211   */\n      pop\n      jump\t// out\n        /* \"#utility.yul\":13217:13356   */\n    tag_640:\n        /* \"#utility.yul\":13263:13268   */\n      0x00\n        /* \"#utility.yul\":13301:13307   */\n      dup2\n        /* \"#utility.yul\":13288:13308   */\n      calldataload\n        /* \"#utility.yul\":13279:13308   */\n      swap1\n      pop\n        /* \"#utility.yul\":13317:13350   */\n      tag_816\n        /* \"#utility.yul\":13344:13349   */\n      dup2\n        /* \"#utility.yul\":13317:13350   */\n      tag_639\n      jump\t// in\n    tag_816:\n        /* \"#utility.yul\":13217:13356   */\n      swap3\n      swap2\n      pop\n      pop\n      jump\t// out\n        /* \"#utility.yul\":13362:13691   */\n    tag_107:\n        /* \"#utility.yul\":13421:13427   */\n      0x00\n        /* \"#utility.yul\":13470:13472   */\n      0x20\n        /* \"#utility.yul\":13458:13467   */\n      dup3\n        /* \"#utility.yul\":13449:13456   */\n      dup5\n        /* \"#utility.yul\":13445:13468   */\n      sub\n        /* \"#utility.yul\":13441:13473   */\n      slt\n        /* \"#utility.yul\":13438:13557   */\n      iszero\n      tag_818\n      jumpi\n        /* \"#utility.yul\":13476:13555   */\n      tag_819\n      tag_598\n      jump\t// in\n    tag_819:\n        /* \"#utility.yul\":13438:13557   */\n    tag_818:\n        /* \"#utility.yul\":13596:13597   */\n      0x00\n        /* \"#utility.yul\":13621:13674   */\n      tag_820\n        /* \"#utility.yul\":13666:13673   */\n      dup5\n        /* \"#utility.yul\":13657:13663   */\n      dup3\n        /* \"#utility.yul\":13646:13655   */\n      dup6\n        /* \"#utility.yul\":13642:13664   */\n      add\n        /* \"#utility.yul\":13621:13674   */\n      tag_640\n      jump\t// in\n    tag_820:\n        /* \"#utility.yul\":13611:13674   */\n      swap2\n      pop\n        /* \"#utility.yul\":13567:13684   */\n      pop\n        /* \"#utility.yul\":13362:13691   */\n      swap3\n      swap2\n      pop\n      pop\n      jump\t// out\n        /* \"#utility.yul\":13697:13799   */\n    tag_641:\n        /* \"#utility.yul\":13760:13766   */\n      0x00\n        /* \"#utility.yul\":13788:13792   */\n      0x02\n        /* \"#utility.yul\":13778:13792   */\n      swap1\n      pop\n        /* \"#utility.yul\":13697:13799   */\n      swap2\n      swap1\n      pop\n      jump\t// out\n        /* \"#utility.yul\":13805:13946   */\n    tag_642:\n        /* \"#utility.yul\":13900:13911   */\n      0x00\n        /* \"#utility.yul\":13937:13940   */\n      dup2\n        /* \"#utility.yul\":13922:13940   */\n      swap1\n      pop\n        /* \"#utility.yul\":13805:13946   */\n      swap3\n      swap2\n      pop\n      pop\n      jump\t// out\n        /* \"#utility.yul\":13952:14048   */\n    tag_643:\n        /* \"#utility.yul\":14015:14019   */\n      0x00\n        /* \"#utility.yul\":14038:14041   */\n      dup2\n        /* \"#utility.yul\":14030:14041   */\n      swap1\n      pop\n        /* \"#utility.yul\":13952:14048   */\n      swap2\n      swap1\n      pop\n      jump\t// out\n        /* \"#utility.yul\":14054:14163   */\n    tag_644:\n        /* \"#utility.yul\":14120:14124   */\n      0x00\n        /* \"#utility.yul\":14152:14156   */\n      0x20\n        /* \"#utility.yul\":14147:14150   */\n      dup3\n        /* \"#utility.yul\":14143:14157   */\n      add\n        /* \"#utility.yul\":14135:14157   */\n      swap1\n      pop\n        /* \"#utility.yul\":14054:14163   */\n      swap2\n      swap1\n      pop\n      jump\t// out\n        /* \"#utility.yul\":14197:14875   */\n    tag_645:\n        /* \"#utility.yul\":14329:14379   */\n      tag_826\n        /* \"#utility.yul\":14373:14378   */\n      dup2\n        /* \"#utility.yul\":14329:14379   */\n      tag_641\n      jump\t// in\n    tag_826:\n        /* \"#utility.yul\":14395:14477   */\n      tag_827\n        /* \"#utility.yul\":14470:14476   */\n      dup2\n        /* \"#utility.yul\":14465:14468   */\n      dup5\n        /* \"#utility.yul\":14395:14477   */\n      tag_642\n      jump\t// in\n    tag_827:\n        /* \"#utility.yul\":14388:14477   */\n      swap3\n      pop\n        /* \"#utility.yul\":14501:14553   */\n      tag_828\n        /* \"#utility.yul\":14547:14552   */\n      dup3\n        /* \"#utility.yul\":14501:14553   */\n      tag_643\n      jump\t// in\n    tag_828:\n        /* \"#utility.yul\":14576:14583   */\n      dup1\n        /* \"#utility.yul\":14607:14608   */\n      0x00\n        /* \"#utility.yul\":14592:14868   */\n    tag_829:\n        /* \"#utility.yul\":14617:14623   */\n      dup4\n        /* \"#utility.yul\":14614:14615   */\n      dup2\n        /* \"#utility.yul\":14611:14624   */\n      lt\n        /* \"#utility.yul\":14592:14868   */\n      iszero\n      tag_831\n      jumpi\n        /* \"#utility.yul\":14693:14699   */\n      dup2\n        /* \"#utility.yul\":14687:14700   */\n      mload\n        /* \"#utility.yul\":14720:14779   */\n      tag_832\n        /* \"#utility.yul\":14775:14778   */\n      dup8\n        /* \"#utility.yul\":14760:14773   */\n      dup3\n        /* \"#utility.yul\":14720:14779   */\n      tag_614\n      jump\t// in\n    tag_832:\n        /* \"#utility.yul\":14713:14779   */\n      swap7\n      pop\n        /* \"#utility.yul\":14802:14858   */\n      tag_833\n        /* \"#utility.yul\":14851:14857   */\n      dup4\n        /* \"#utility.yul\":14802:14858   */\n      tag_644\n      jump\t// in\n    tag_833:\n        /* \"#utility.yul\":14792:14858   */\n      swap3\n      pop\n        /* \"#utility.yul\":14652:14868   */\n      pop\n        /* \"#utility.yul\":14639:14640   */\n      0x01\n        /* \"#utility.yul\":14636:14637   */\n      dup2\n        /* \"#utility.yul\":14632:14641   */\n      add\n        /* \"#utility.yul\":14627:14641   */\n      swap1\n      pop\n        /* \"#utility.yul\":14592:14868   */\n      jump(tag_829)\n    tag_831:\n        /* \"#utility.yul\":14596:14610   */\n      pop\n        /* \"#utility.yul\":14305:14875   */\n      pop\n      pop\n      pop\n        /* \"#utility.yul\":14197:14875   */\n      pop\n      pop\n      jump\t// out\n        /* \"#utility.yul\":14881:15187   */\n    tag_113:\n        /* \"#utility.yul\":15016:15020   */\n      0x00\n        /* \"#utility.yul\":15054:15056   */\n      0x40\n        /* \"#utility.yul\":15043:15052   */\n      dup3\n        /* \"#utility.yul\":15039:15057   */\n      add\n        /* \"#utility.yul\":15031:15057   */\n      swap1\n      pop\n        /* \"#utility.yul\":15067:15180   */\n      tag_835\n        /* \"#utility.yul\":15177:15178   */\n      0x00\n        /* \"#utility.yul\":15166:15175   */\n      dup4\n        /* \"#utility.yul\":15162:15179   */\n      add\n        /* \"#utility.yul\":15153:15159   */\n      dup5\n        /* \"#utility.yul\":15067:15180   */\n      tag_645\n      jump\t// in\n    tag_835:\n        /* \"#utility.yul\":14881:15187   */\n      swap3\n      swap2\n      pop\n      pop\n      jump\t// out\n        /* \"#utility.yul\":15193:15362   */\n    tag_646:\n        /* \"#utility.yul\":15277:15288   */\n      0x00\n        /* \"#utility.yul\":15311:15317   */\n      dup3\n        /* \"#utility.yul\":15306:15309   */\n      dup3\n        /* \"#utility.yul\":15299:15318   */\n      mstore\n        /* \"#utility.yul\":15351:15355   */\n      0x20\n        /* \"#utility.yul\":15346:15349   */\n      dup3\n        /* \"#utility.yul\":15342:15356   */\n      add\n        /* \"#utility.yul\":15327:15356   */\n      swap1\n      pop\n        /* \"#utility.yul\":15193:15362   */\n      swap3\n      swap2\n      pop\n      pop\n      jump\t// out\n        /* \"#utility.yul\":15368:15589   */\n    tag_647:\n        /* \"#utility.yul\":15508:15542   */\n      0x41646d696e61626c653a2063616c6c6572206973206e6f7420746865206f776e\n        /* \"#utility.yul\":15504:15505   */\n      0x00\n        /* \"#utility.yul\":15496:15502   */\n      dup3\n        /* \"#utility.yul\":15492:15506   */\n      add\n        /* \"#utility.yul\":15485:15543   */\n      mstore\n        /* \"#utility.yul\":15577:15581   */\n      0x6572000000000000000000000000000000000000000000000000000000000000\n        /* \"#utility.yul\":15572:15574   */\n      0x20\n        /* \"#utility.yul\":15564:15570   */\n      dup3\n        /* \"#utility.yul\":15560:15575   */\n      add\n        /* \"#utility.yul\":15553:15582   */\n      mstore\n        /* \"#utility.yul\":15368:15589   */\n      pop\n      jump\t// out\n        /* \"#utility.yul\":15595:15961   */\n    tag_648:\n        /* \"#utility.yul\":15737:15740   */\n      0x00\n        /* \"#utility.yul\":15758:15825   */\n      tag_839\n        /* \"#utility.yul\":15822:15824   */\n      0x22\n        /* \"#utility.yul\":15817:15820   */\n      dup4\n        /* \"#utility.yul\":15758:15825   */\n      tag_646\n      jump\t// in\n    tag_839:\n        /* \"#utility.yul\":15751:15825   */\n      swap2\n      pop\n        /* \"#utility.yul\":15834:15927   */\n      tag_840\n        /* \"#utility.yul\":15923:15926   */\n      dup3\n        /* \"#utility.yul\":15834:15927   */\n      tag_647\n      jump\t// in\n    tag_840:\n        /* \"#utility.yul\":15952:15954   */\n      0x40\n        /* \"#utility.yul\":15947:15950   */\n      dup3\n        /* \"#utility.yul\":15943:15955   */\n      add\n        /* \"#utility.yul\":15936:15955   */\n      swap1\n      pop\n        /* \"#utility.yul\":15595:15961   */\n      swap2\n      swap1\n      pop\n      jump\t// out\n        /* \"#utility.yul\":15967:16386   */\n    tag_127:\n        /* \"#utility.yul\":16133:16137   */\n      0x00\n        /* \"#utility.yul\":16171:16173   */\n      0x20\n        /* \"#utility.yul\":16160:16169   */\n      dup3\n        /* \"#utility.yul\":16156:16174   */\n      add\n        /* \"#utility.yul\":16148:16174   */\n      swap1\n      pop\n        /* \"#utility.yul\":16220:16229   */\n      dup2\n        /* \"#utility.yul\":16214:16218   */\n      dup2\n        /* \"#utility.yul\":16210:16230   */\n      sub\n        /* \"#utility.yul\":16206:16207   */\n      0x00\n        /* \"#utility.yul\":16195:16204   */\n      dup4\n        /* \"#utility.yul\":16191:16208   */\n      add\n        /* \"#utility.yul\":16184:16231   */\n      mstore\n        /* \"#utility.yul\":16248:16379   */\n      tag_842\n        /* \"#utility.yul\":16374:16378   */\n      dup2\n        /* \"#utility.yul\":16248:16379   */\n      tag_648\n      jump\t// in\n    tag_842:\n        /* \"#utility.yul\":16240:16379   */\n      swap1\n      pop\n        /* \"#utility.yul\":15967:16386   */\n      swap2\n      swap1\n      pop\n      jump\t// out\n        /* \"#utility.yul\":16392:16700   */\n    tag_130:\n        /* \"#utility.yul\":16501:16505   */\n      0x00\n        /* \"#utility.yul\":16539:16541   */\n      0x40\n        /* \"#utility.yul\":16528:16537   */\n      dup3\n        /* \"#utility.yul\":16524:16542   */\n      add\n        /* \"#utility.yul\":16516:16542   */\n      swap1\n      pop\n        /* \"#utility.yul\":16552:16617   */\n      tag_844\n        /* \"#utility.yul\":16614:16615   */\n      0x00\n        /* \"#utility.yul\":16603:16612   */\n      dup4\n        /* \"#utility.yul\":16599:16616   */\n      add\n        /* \"#utility.yul\":16590:16596   */\n      dup6\n        /* \"#utility.yul\":16552:16617   */\n      tag_607\n      jump\t// in\n    tag_844:\n        /* \"#utility.yul\":16627:16693   */\n      tag_845\n        /* \"#utility.yul\":16689:16691   */\n      0x20\n        /* \"#utility.yul\":16678:16687   */\n      dup4\n        /* \"#utility.yul\":16674:16692   */\n      add\n        /* \"#utility.yul\":16665:16671   */\n      dup5\n        /* \"#utility.yul\":16627:16693   */\n      tag_607\n      jump\t// in\n    tag_845:\n        /* \"#utility.yul\":16392:16700   */\n      swap4\n      swap3\n      pop\n      pop\n      pop\n      jump\t// out\n        /* \"#utility.yul\":16706:16886   */\n    tag_649:\n        /* \"#utility.yul\":16754:16831   */\n      0x4e487b7100000000000000000000000000000000000000000000000000000000\n        /* \"#utility.yul\":16751:16752   */\n      0x00\n        /* \"#utility.yul\":16744:16832   */\n      mstore\n        /* \"#utility.yul\":16851:16855   */\n      0x11\n        /* \"#utility.yul\":16848:16849   */\n      0x04\n        /* \"#utility.yul\":16841:16856   */\n      mstore\n        /* \"#utility.yul\":16875:16879   */\n      0x24\n        /* \"#utility.yul\":16872:16873   */\n      0x00\n        /* \"#utility.yul\":16865:16880   */\n      revert\n        /* \"#utility.yul\":16892:17134   */\n    tag_154:\n        /* \"#utility.yul\":16931:16934   */\n      0x00\n        /* \"#utility.yul\":16950:16969   */\n      tag_848\n        /* \"#utility.yul\":16967:16968   */\n      dup3\n        /* \"#utility.yul\":16950:16969   */\n      tag_608\n      jump\t// in\n    tag_848:\n        /* \"#utility.yul\":16945:16969   */\n      swap2\n      pop\n        /* \"#utility.yul\":16983:17002   */\n      tag_849\n        /* \"#utility.yul\":17000:17001   */\n      dup4\n        /* \"#utility.yul\":16983:17002   */\n      tag_608\n      jump\t// in\n    tag_849:\n        /* \"#utility.yul\":16978:17002   */\n      swap3\n      pop\n        /* \"#utility.yul\":17076:17077   */\n      dup3\n        /* \"#utility.yul\":17068:17074   */\n      0xffff\n        /* \"#utility.yul\":17064:17078   */\n      sub\n        /* \"#utility.yul\":17061:17062   */\n      dup3\n        /* \"#utility.yul\":17058:17079   */\n      gt\n        /* \"#utility.yul\":17055:17102   */\n      iszero\n      tag_850\n      jumpi\n        /* \"#utility.yul\":17082:17100   */\n      tag_851\n      tag_649\n      jump\t// in\n    tag_851:\n        /* \"#utility.yul\":17055:17102   */\n    tag_850:\n        /* \"#utility.yul\":17126:17127   */\n      dup3\n        /* \"#utility.yul\":17123:17124   */\n      dup3\n        /* \"#utility.yul\":17119:17128   */\n      add\n        /* \"#utility.yul\":17112:17128   */\n      swap1\n      pop\n        /* \"#utility.yul\":16892:17134   */\n      swap3\n      swap2\n      pop\n      pop\n      jump\t// out\n        /* \"#utility.yul\":17140:17361   */\n    tag_650:\n        /* \"#utility.yul\":17280:17314   */\n      0x41646d696e61626c653a2063616c6c6572206973206e6f74207468652061646d\n        /* \"#utility.yul\":17276:17277   */\n      0x00\n        /* \"#utility.yul\":17268:17274   */\n      dup3\n        /* \"#utility.yul\":17264:17278   */\n      add\n        /* \"#utility.yul\":17257:17315   */\n      mstore\n        /* \"#utility.yul\":17349:17353   */\n      0x696e000000000000000000000000000000000000000000000000000000000000\n        /* \"#utility.yul\":17344:17346   */\n      0x20\n        /* \"#utility.yul\":17336:17342   */\n      dup3\n        /* \"#utility.yul\":17332:17347   */\n      add\n        /* \"#utility.yul\":17325:17354   */\n      mstore\n        /* \"#utility.yul\":17140:17361   */\n      pop\n      jump\t// out\n        /* \"#utility.yul\":17367:17733   */\n    tag_651:\n        /* \"#utility.yul\":17509:17512   */\n      0x00\n        /* \"#utility.yul\":17530:17597   */\n      tag_854\n        /* \"#utility.yul\":17594:17596   */\n      0x22\n        /* \"#utility.yul\":17589:17592   */\n      dup4\n        /* \"#utility.yul\":17530:17597   */\n      tag_646\n      jump\t// in\n    tag_854:\n        /* \"#utility.yul\":17523:17597   */\n      swap2\n      pop\n        /* \"#utility.yul\":17606:17699   */\n      tag_855\n        /* \"#utility.yul\":17695:17698   */\n      dup3\n        /* \"#utility.yul\":17606:17699   */\n      tag_650\n      jump\t// in\n    tag_855:\n        /* \"#utility.yul\":17724:17726   */\n      0x40\n        /* \"#utility.yul\":17719:17722   */\n      dup3\n        /* \"#utility.yul\":17715:17727   */\n      add\n        /* \"#utility.yul\":17708:17727   */\n      swap1\n      pop\n        /* \"#utility.yul\":17367:17733   */\n      swap2\n      swap1\n      pop\n      jump\t// out\n        /* \"#utility.yul\":17739:18158   */\n    tag_177:\n        /* \"#utility.yul\":17905:17909   */\n      0x00\n        /* \"#utility.yul\":17943:17945   */\n      0x20\n        /* \"#utility.yul\":17932:17941   */\n      dup3\n        /* \"#utility.yul\":17928:17946   */\n      add\n        /* \"#utility.yul\":17920:17946   */\n      swap1\n      pop\n        /* \"#utility.yul\":17992:18001   */\n      dup2\n        /* \"#utility.yul\":17986:17990   */\n      dup2\n        /* \"#utility.yul\":17982:18002   */\n      sub\n        /* \"#utility.yul\":17978:17979   */\n      0x00\n        /* \"#utility.yul\":17967:17976   */\n      dup4\n        /* \"#utility.yul\":17963:17980   */\n      add\n        /* \"#utility.yul\":17956:18003   */\n      mstore\n        /* \"#utility.yul\":18020:18151   */\n      tag_857\n        /* \"#utility.yul\":18146:18150   */\n      dup2\n        /* \"#utility.yul\":18020:18151   */\n      tag_651\n      jump\t// in\n    tag_857:\n        /* \"#utility.yul\":18012:18151   */\n      swap1\n      pop\n        /* \"#utility.yul\":17739:18158   */\n      swap2\n      swap1\n      pop\n      jump\t// out\n        /* \"#utility.yul\":18164:18344   */\n    tag_185:\n        /* \"#utility.yul\":18212:18289   */\n      0x4e487b7100000000000000000000000000000000000000000000000000000000\n        /* \"#utility.yul\":18209:18210   */\n      0x00\n        /* \"#utility.yul\":18202:18290   */\n      mstore\n        /* \"#utility.yul\":18309:18313   */\n      0x32\n        /* \"#utility.yul\":18306:18307   */\n      0x04\n        /* \"#utility.yul\":18299:18314   */\n      mstore\n        /* \"#utility.yul\":18333:18337   */\n      0x24\n        /* \"#utility.yul\":18330:18331   */\n      0x00\n        /* \"#utility.yul\":18323:18338   */\n      revert\n        /* \"#utility.yul\":18350:18675   */\n    tag_187:\n        /* \"#utility.yul\":18407:18413   */\n      0x00\n        /* \"#utility.yul\":18456:18458   */\n      0x20\n        /* \"#utility.yul\":18444:18453   */\n      dup3\n        /* \"#utility.yul\":18435:18442   */\n      dup5\n        /* \"#utility.yul\":18431:18454   */\n      sub\n        /* \"#utility.yul\":18427:18459   */\n      slt\n        /* \"#utility.yul\":18424:18543   */\n      iszero\n      tag_860\n      jumpi\n        /* \"#utility.yul\":18462:18541   */\n      tag_861\n      tag_598\n      jump\t// in\n    tag_861:\n        /* \"#utility.yul\":18424:18543   */\n    tag_860:\n        /* \"#utility.yul\":18582:18583   */\n      0x00\n        /* \"#utility.yul\":18607:18658   */\n      tag_862\n        /* \"#utility.yul\":18650:18657   */\n      dup5\n        /* \"#utility.yul\":18641:18647   */\n      dup3\n        /* \"#utility.yul\":18630:18639   */\n      dup6\n        /* \"#utility.yul\":18626:18648   */\n      add\n        /* \"#utility.yul\":18607:18658   */\n      tag_632\n      jump\t// in\n    tag_862:\n        /* \"#utility.yul\":18597:18658   */\n      swap2\n      pop\n        /* \"#utility.yul\":18553:18668   */\n      pop\n        /* \"#utility.yul\":18350:18675   */\n      swap3\n      swap2\n      pop\n      pop\n      jump\t// out\n        /* \"#utility.yul\":18681:18848   */\n    tag_191:\n        /* \"#utility.yul\":18718:18721   */\n      0x00\n        /* \"#utility.yul\":18741:18763   */\n      tag_864\n        /* \"#utility.yul\":18757:18762   */\n      dup3\n        /* \"#utility.yul\":18741:18763   */\n      tag_595\n      jump\t// in\n    tag_864:\n        /* \"#utility.yul\":18732:18763   */\n      swap2\n      pop\n        /* \"#utility.yul\":18785:18789   */\n      0xff\n        /* \"#utility.yul\":18778:18783   */\n      dup3\n        /* \"#utility.yul\":18775:18790   */\n      sub\n        /* \"#utility.yul\":18772:18813   */\n      tag_865\n      jumpi\n        /* \"#utility.yul\":18793:18811   */\n      tag_866\n      tag_649\n      jump\t// in\n    tag_866:\n        /* \"#utility.yul\":18772:18813   */\n    tag_865:\n        /* \"#utility.yul\":18840:18841   */\n      0x01\n        /* \"#utility.yul\":18833:18838   */\n      dup3\n        /* \"#utility.yul\":18829:18842   */\n      add\n        /* \"#utility.yul\":18822:18842   */\n      swap1\n      pop\n        /* \"#utility.yul\":18681:18848   */\n      swap2\n      swap1\n      pop\n      jump\t// out\n        /* \"#utility.yul\":18854:19079   */\n    tag_652:\n        /* \"#utility.yul\":18994:19028   */\n      0x4f776e61626c653a206e6577206f776e657220697320746865207a65726f2061\n        /* \"#utility.yul\":18990:18991   */\n      0x00\n        /* \"#utility.yul\":18982:18988   */\n      dup3\n        /* \"#utility.yul\":18978:18992   */\n      add\n        /* \"#utility.yul\":18971:19029   */\n      mstore\n        /* \"#utility.yul\":19063:19071   */\n      0x6464726573730000000000000000000000000000000000000000000000000000\n        /* \"#utility.yul\":19058:19060   */\n      0x20\n        /* \"#utility.yul\":19050:19056   */\n      dup3\n        /* \"#utility.yul\":19046:19061   */\n      add\n        /* \"#utility.yul\":19039:19072   */\n      mstore\n        /* \"#utility.yul\":18854:19079   */\n      pop\n      jump\t// out\n        /* \"#utility.yul\":19085:19451   */\n    tag_653:\n        /* \"#utility.yul\":19227:19230   */\n      0x00\n        /* \"#utility.yul\":19248:19315   */\n      tag_869\n        /* \"#utility.yul\":19312:19314   */\n      0x26\n        /* \"#utility.yul\":19307:19310   */\n      dup4\n        /* \"#utility.yul\":19248:19315   */\n      tag_646\n      jump\t// in\n    tag_869:\n        /* \"#utility.yul\":19241:19315   */\n      swap2\n      pop\n        /* \"#utility.yul\":19324:19417   */\n      tag_870\n        /* \"#utility.yul\":19413:19416   */\n      dup3\n        /* \"#utility.yul\":19324:19417   */\n      tag_652\n      jump\t// in\n    tag_870:\n        /* \"#utility.yul\":19442:19444   */\n      0x40\n        /* \"#utility.yul\":19437:19440   */\n      dup3\n        /* \"#utility.yul\":19433:19445   */\n      add\n        /* \"#utility.yul\":19426:19445   */\n      swap1\n      pop\n        /* \"#utility.yul\":19085:19451   */\n      swap2\n      swap1\n      pop\n      jump\t// out\n        /* \"#utility.yul\":19457:19876   */\n    tag_232:\n        /* \"#utility.yul\":19623:19627   */\n      0x00\n        /* \"#utility.yul\":19661:19663   */\n      0x20\n        /* \"#utility.yul\":19650:19659   */\n      dup3\n        /* \"#utility.yul\":19646:19664   */\n      add\n        /* \"#utility.yul\":19638:19664   */\n      swap1\n      pop\n        /* \"#utility.yul\":19710:19719   */\n      dup2\n        /* \"#utility.yul\":19704:19708   */\n      dup2\n        /* \"#utility.yul\":19700:19720   */\n      sub\n        /* \"#utility.yul\":19696:19697   */\n      0x00\n        /* \"#utility.yul\":19685:19694   */\n      dup4\n        /* \"#utility.yul\":19681:19698   */\n      add\n        /* \"#utility.yul\":19674:19721   */\n      mstore\n        /* \"#utility.yul\":19738:19869   */\n      tag_872\n        /* \"#utility.yul\":19864:19868   */\n      dup2\n        /* \"#utility.yul\":19738:19869   */\n      tag_653\n      jump\t// in\n    tag_872:\n        /* \"#utility.yul\":19730:19869   */\n      swap1\n      pop\n        /* \"#utility.yul\":19457:19876   */\n      swap2\n      swap1\n      pop\n      jump\t// out\n        /* \"#utility.yul\":19882:20053   */\n    tag_281:\n        /* \"#utility.yul\":19920:19923   */\n      0x00\n        /* \"#utility.yul\":19943:19966   */\n      tag_874\n        /* \"#utility.yul\":19960:19965   */\n      dup3\n        /* \"#utility.yul\":19943:19966   */\n      tag_608\n      jump\t// in\n    tag_874:\n        /* \"#utility.yul\":19934:19966   */\n      swap2\n      pop\n        /* \"#utility.yul\":19988:19994   */\n      0xffff\n        /* \"#utility.yul\":19981:19986   */\n      dup3\n        /* \"#utility.yul\":19978:19995   */\n      sub\n        /* \"#utility.yul\":19975:20018   */\n      tag_875\n      jumpi\n        /* \"#utility.yul\":19998:20016   */\n      tag_876\n      tag_649\n      jump\t// in\n    tag_876:\n        /* \"#utility.yul\":19975:20018   */\n    tag_875:\n        /* \"#utility.yul\":20045:20046   */\n      0x01\n        /* \"#utility.yul\":20038:20043   */\n      dup3\n        /* \"#utility.yul\":20034:20047   */\n      add\n        /* \"#utility.yul\":20027:20047   */\n      swap1\n      pop\n        /* \"#utility.yul\":19882:20053   */\n      swap2\n      swap1\n      pop\n      jump\t// out\n        /* \"#utility.yul\":20059:20230   */\n    tag_654:\n        /* \"#utility.yul\":20199:20222   */\n      0x7465616d7338206e6f7420696e207465616d7331360000000000000000000000\n        /* \"#utility.yul\":20195:20196   */\n      0x00\n        /* \"#utility.yul\":20187:20193   */\n      dup3\n        /* \"#utility.yul\":20183:20197   */\n      add\n        /* \"#utility.yul\":20176:20223   */\n      mstore\n        /* \"#utility.yul\":20059:20230   */\n      pop\n      jump\t// out\n        /* \"#utility.yul\":20236:20602   */\n    tag_655:\n        /* \"#utility.yul\":20378:20381   */\n      0x00\n        /* \"#utility.yul\":20399:20466   */\n      tag_879\n        /* \"#utility.yul\":20463:20465   */\n      0x15\n        /* \"#utility.yul\":20458:20461   */\n      dup4\n        /* \"#utility.yul\":20399:20466   */\n      tag_646\n      jump\t// in\n    tag_879:\n        /* \"#utility.yul\":20392:20466   */\n      swap2\n      pop\n        /* \"#utility.yul\":20475:20568   */\n      tag_880\n        /* \"#utility.yul\":20564:20567   */\n      dup3\n        /* \"#utility.yul\":20475:20568   */\n      tag_654\n      jump\t// in\n    tag_880:\n        /* \"#utility.yul\":20593:20595   */\n      0x20\n        /* \"#utility.yul\":20588:20591   */\n      dup3\n        /* \"#utility.yul\":20584:20596   */\n      add\n        /* \"#utility.yul\":20577:20596   */\n      swap1\n      pop\n        /* \"#utility.yul\":20236:20602   */\n      swap2\n      swap1\n      pop\n      jump\t// out\n        /* \"#utility.yul\":20608:21027   */\n    tag_332:\n        /* \"#utility.yul\":20774:20778   */\n      0x00\n        /* \"#utility.yul\":20812:20814   */\n      0x20\n        /* \"#utility.yul\":20801:20810   */\n      dup3\n        /* \"#utility.yul\":20797:20815   */\n      add\n        /* \"#utility.yul\":20789:20815   */\n      swap1\n      pop\n        /* \"#utility.yul\":20861:20870   */\n      dup2\n        /* \"#utility.yul\":20855:20859   */\n      dup2\n        /* \"#utility.yul\":20851:20871   */\n      sub\n        /* \"#utility.yul\":20847:20848   */\n      0x00\n        /* \"#utility.yul\":20836:20845   */\n      dup4\n        /* \"#utility.yul\":20832:20849   */\n      add\n        /* \"#utility.yul\":20825:20872   */\n      mstore\n        /* \"#utility.yul\":20889:21020   */\n      tag_882\n        /* \"#utility.yul\":21015:21019   */\n      dup2\n        /* \"#utility.yul\":20889:21020   */\n      tag_655\n      jump\t// in\n    tag_882:\n        /* \"#utility.yul\":20881:21020   */\n      swap1\n      pop\n        /* \"#utility.yul\":20608:21027   */\n      swap2\n      swap1\n      pop\n      jump\t// out\n        /* \"#utility.yul\":21033:21205   */\n    tag_656:\n        /* \"#utility.yul\":21173:21197   */\n      0x5f7465616d7334206e6f7420696e205f7465616d733800000000000000000000\n        /* \"#utility.yul\":21169:21170   */\n      0x00\n        /* \"#utility.yul\":21161:21167   */\n      dup3\n        /* \"#utility.yul\":21157:21171   */\n      add\n        /* \"#utility.yul\":21150:21198   */\n      mstore\n        /* \"#utility.yul\":21033:21205   */\n      pop\n      jump\t// out\n        /* \"#utility.yul\":21211:21577   */\n    tag_657:\n        /* \"#utility.yul\":21353:21356   */\n      0x00\n        /* \"#utility.yul\":21374:21441   */\n      tag_885\n        /* \"#utility.yul\":21438:21440   */\n      0x16\n        /* \"#utility.yul\":21433:21436   */\n      dup4\n        /* \"#utility.yul\":21374:21441   */\n      tag_646\n      jump\t// in\n    tag_885:\n        /* \"#utility.yul\":21367:21441   */\n      swap2\n      pop\n        /* \"#utility.yul\":21450:21543   */\n      tag_886\n        /* \"#utility.yul\":21539:21542   */\n      dup3\n        /* \"#utility.yul\":21450:21543   */\n      tag_656\n      jump\t// in\n    tag_886:\n        /* \"#utility.yul\":21568:21570   */\n      0x20\n        /* \"#utility.yul\":21563:21566   */\n      dup3\n        /* \"#utility.yul\":21559:21571   */\n      add\n        /* \"#utility.yul\":21552:21571   */\n      swap1\n      pop\n        /* \"#utility.yul\":21211:21577   */\n      swap2\n      swap1\n      pop\n      jump\t// out\n        /* \"#utility.yul\":21583:22002   */\n    tag_454:\n        /* \"#utility.yul\":21749:21753   */\n      0x00\n        /* \"#utility.yul\":21787:21789   */\n      0x20\n        /* \"#utility.yul\":21776:21785   */\n      dup3\n        /* \"#utility.yul\":21772:21790   */\n      add\n        /* \"#utility.yul\":21764:21790   */\n      swap1\n      pop\n        /* \"#utility.yul\":21836:21845   */\n      dup2\n        /* \"#utility.yul\":21830:21834   */\n      dup2\n        /* \"#utility.yul\":21826:21846   */\n      sub\n        /* \"#utility.yul\":21822:21823   */\n      0x00\n        /* \"#utility.yul\":21811:21820   */\n      dup4\n        /* \"#utility.yul\":21807:21824   */\n      add\n        /* \"#utility.yul\":21800:21847   */\n      mstore\n        /* \"#utility.yul\":21864:21995   */\n      tag_888\n        /* \"#utility.yul\":21990:21994   */\n      dup2\n        /* \"#utility.yul\":21864:21995   */\n      tag_657\n      jump\t// in\n    tag_888:\n        /* \"#utility.yul\":21856:21995   */\n      swap1\n      pop\n        /* \"#utility.yul\":21583:22002   */\n      swap2\n      swap1\n      pop\n      jump\t// out\n        /* \"#utility.yul\":22008:22180   */\n    tag_658:\n        /* \"#utility.yul\":22148:22172   */\n      0x5f7465616d7332206e6f7420696e205f7465616d733400000000000000000000\n        /* \"#utility.yul\":22144:22145   */\n      0x00\n        /* \"#utility.yul\":22136:22142   */\n      dup3\n        /* \"#utility.yul\":22132:22146   */\n      add\n        /* \"#utility.yul\":22125:22173   */\n      mstore\n        /* \"#utility.yul\":22008:22180   */\n      pop\n      jump\t// out\n        /* \"#utility.yul\":22186:22552   */\n    tag_659:\n        /* \"#utility.yul\":22328:22331   */\n      0x00\n        /* \"#utility.yul\":22349:22416   */\n      tag_891\n        /* \"#utility.yul\":22413:22415   */\n      0x16\n        /* \"#utility.yul\":22408:22411   */\n      dup4\n        /* \"#utility.yul\":22349:22416   */\n      tag_646\n      jump\t// in\n    tag_891:\n        /* \"#utility.yul\":22342:22416   */\n      swap2\n      pop\n        /* \"#utility.yul\":22425:22518   */\n      tag_892\n        /* \"#utility.yul\":22514:22517   */\n      dup3\n        /* \"#utility.yul\":22425:22518   */\n      tag_658\n      jump\t// in\n    tag_892:\n        /* \"#utility.yul\":22543:22545   */\n      0x20\n        /* \"#utility.yul\":22538:22541   */\n      dup3\n        /* \"#utility.yul\":22534:22546   */\n      add\n        /* \"#utility.yul\":22527:22546   */\n      swap1\n      pop\n        /* \"#utility.yul\":22186:22552   */\n      swap2\n      swap1\n      pop\n      jump\t// out\n        /* \"#utility.yul\":22558:22977   */\n    tag_516:\n        /* \"#utility.yul\":22724:22728   */\n      0x00\n        /* \"#utility.yul\":22762:22764   */\n      0x20\n        /* \"#utility.yul\":22751:22760   */\n      dup3\n        /* \"#utility.yul\":22747:22765   */\n      add\n        /* \"#utility.yul\":22739:22765   */\n      swap1\n      pop\n        /* \"#utility.yul\":22811:22820   */\n      dup2\n        /* \"#utility.yul\":22805:22809   */\n      dup2\n        /* \"#utility.yul\":22801:22821   */\n      sub\n        /* \"#utility.yul\":22797:22798   */\n      0x00\n        /* \"#utility.yul\":22786:22795   */\n      dup4\n        /* \"#utility.yul\":22782:22799   */\n      add\n        /* \"#utility.yul\":22775:22822   */\n      mstore\n        /* \"#utility.yul\":22839:22970   */\n      tag_894\n        /* \"#utility.yul\":22965:22969   */\n      dup2\n        /* \"#utility.yul\":22839:22970   */\n      tag_659\n      jump\t// in\n    tag_894:\n        /* \"#utility.yul\":22831:22970   */\n      swap1\n      pop\n        /* \"#utility.yul\":22558:22977   */\n      swap2\n      swap1\n      pop\n      jump\t// out\n        /* \"#utility.yul\":22983:23157   */\n    tag_660:\n        /* \"#utility.yul\":23123:23149   */\n      0x66697273745465616d206e6f7420696e205f7465616d73320000000000000000\n        /* \"#utility.yul\":23119:23120   */\n      0x00\n        /* \"#utility.yul\":23111:23117   */\n      dup3\n        /* \"#utility.yul\":23107:23121   */\n      add\n        /* \"#utility.yul\":23100:23150   */\n      mstore\n        /* \"#utility.yul\":22983:23157   */\n      pop\n      jump\t// out\n        /* \"#utility.yul\":23163:23529   */\n    tag_661:\n        /* \"#utility.yul\":23305:23308   */\n      0x00\n        /* \"#utility.yul\":23326:23393   */\n      tag_897\n        /* \"#utility.yul\":23390:23392   */\n      0x18\n        /* \"#utility.yul\":23385:23388   */\n      dup4\n        /* \"#utility.yul\":23326:23393   */\n      tag_646\n      jump\t// in\n    tag_897:\n        /* \"#utility.yul\":23319:23393   */\n      swap2\n      pop\n        /* \"#utility.yul\":23402:23495   */\n      tag_898\n        /* \"#utility.yul\":23491:23494   */\n      dup3\n        /* \"#utility.yul\":23402:23495   */\n      tag_660\n      jump\t// in\n    tag_898:\n        /* \"#utility.yul\":23520:23522   */\n      0x20\n        /* \"#utility.yul\":23515:23518   */\n      dup3\n        /* \"#utility.yul\":23511:23523   */\n      add\n        /* \"#utility.yul\":23504:23523   */\n      swap1\n      pop\n        /* \"#utility.yul\":23163:23529   */\n      swap2\n      swap1\n      pop\n      jump\t// out\n        /* \"#utility.yul\":23535:23954   */\n    tag_542:\n        /* \"#utility.yul\":23701:23705   */\n      0x00\n        /* \"#utility.yul\":23739:23741   */\n      0x20\n        /* \"#utility.yul\":23728:23737   */\n      dup3\n        /* \"#utility.yul\":23724:23742   */\n      add\n        /* \"#utility.yul\":23716:23742   */\n      swap1\n      pop\n        /* \"#utility.yul\":23788:23797   */\n      dup2\n        /* \"#utility.yul\":23782:23786   */\n      dup2\n        /* \"#utility.yul\":23778:23798   */\n      sub\n        /* \"#utility.yul\":23774:23775   */\n      0x00\n        /* \"#utility.yul\":23763:23772   */\n      dup4\n        /* \"#utility.yul\":23759:23776   */\n      add\n        /* \"#utility.yul\":23752:23799   */\n      mstore\n        /* \"#utility.yul\":23816:23947   */\n      tag_900\n        /* \"#utility.yul\":23942:23946   */\n      dup2\n        /* \"#utility.yul\":23816:23947   */\n      tag_661\n      jump\t// in\n    tag_900:\n        /* \"#utility.yul\":23808:23947   */\n      swap1\n      pop\n        /* \"#utility.yul\":23535:23954   */\n      swap2\n      swap1\n      pop\n      jump\t// out\n        /* \"#utility.yul\":23960:24139   */\n    tag_662:\n        /* \"#utility.yul\":24100:24131   */\n      0x74687269645465616d206d757374206e6f7420696e205f7465616d7332000000\n        /* \"#utility.yul\":24096:24097   */\n      0x00\n        /* \"#utility.yul\":24088:24094   */\n      dup3\n        /* \"#utility.yul\":24084:24098   */\n      add\n        /* \"#utility.yul\":24077:24132   */\n      mstore\n        /* \"#utility.yul\":23960:24139   */\n      pop\n      jump\t// out\n        /* \"#utility.yul\":24145:24511   */\n    tag_663:\n        /* \"#utility.yul\":24287:24290   */\n      0x00\n        /* \"#utility.yul\":24308:24375   */\n      tag_903\n        /* \"#utility.yul\":24372:24374   */\n      0x1d\n        /* \"#utility.yul\":24367:24370   */\n      dup4\n        /* \"#utility.yul\":24308:24375   */\n      tag_646\n      jump\t// in\n    tag_903:\n        /* \"#utility.yul\":24301:24375   */\n      swap2\n      pop\n        /* \"#utility.yul\":24384:24477   */\n      tag_904\n        /* \"#utility.yul\":24473:24476   */\n      dup3\n        /* \"#utility.yul\":24384:24477   */\n      tag_662\n      jump\t// in\n    tag_904:\n        /* \"#utility.yul\":24502:24504   */\n      0x20\n        /* \"#utility.yul\":24497:24500   */\n      dup3\n        /* \"#utility.yul\":24493:24505   */\n      add\n        /* \"#utility.yul\":24486:24505   */\n      swap1\n      pop\n        /* \"#utility.yul\":24145:24511   */\n      swap2\n      swap1\n      pop\n      jump\t// out\n        /* \"#utility.yul\":24517:24936   */\n    tag_553:\n        /* \"#utility.yul\":24683:24687   */\n      0x00\n        /* \"#utility.yul\":24721:24723   */\n      0x20\n        /* \"#utility.yul\":24710:24719   */\n      dup3\n        /* \"#utility.yul\":24706:24724   */\n      add\n        /* \"#utility.yul\":24698:24724   */\n      swap1\n      pop\n        /* \"#utility.yul\":24770:24779   */\n      dup2\n        /* \"#utility.yul\":24764:24768   */\n      dup2\n        /* \"#utility.yul\":24760:24780   */\n      sub\n        /* \"#utility.yul\":24756:24757   */\n      0x00\n        /* \"#utility.yul\":24745:24754   */\n      dup4\n        /* \"#utility.yul\":24741:24758   */\n      add\n        /* \"#utility.yul\":24734:24781   */\n      mstore\n        /* \"#utility.yul\":24798:24929   */\n      tag_906\n        /* \"#utility.yul\":24924:24928   */\n      dup2\n        /* \"#utility.yul\":24798:24929   */\n      tag_663\n      jump\t// in\n    tag_906:\n        /* \"#utility.yul\":24790:24929   */\n      swap1\n      pop\n        /* \"#utility.yul\":24517:24936   */\n      swap2\n      swap1\n      pop\n      jump\t// out\n        /* \"#utility.yul\":24942:25117   */\n    tag_664:\n        /* \"#utility.yul\":25082:25109   */\n      0x74687269645465616d206d75737420696e205f7465616d733400000000000000\n        /* \"#utility.yul\":25078:25079   */\n      0x00\n        /* \"#utility.yul\":25070:25076   */\n      dup3\n        /* \"#utility.yul\":25066:25080   */\n      add\n        /* \"#utility.yul\":25059:25110   */\n      mstore\n        /* \"#utility.yul\":24942:25117   */\n      pop\n      jump\t// out\n        /* \"#utility.yul\":25123:25489   */\n    tag_665:\n        /* \"#utility.yul\":25265:25268   */\n      0x00\n        /* \"#utility.yul\":25286:25353   */\n      tag_909\n        /* \"#utility.yul\":25350:25352   */\n      0x19\n        /* \"#utility.yul\":25345:25348   */\n      dup4\n        /* \"#utility.yul\":25286:25353   */\n      tag_646\n      jump\t// in\n    tag_909:\n        /* \"#utility.yul\":25279:25353   */\n      swap2\n      pop\n        /* \"#utility.yul\":25362:25455   */\n      tag_910\n        /* \"#utility.yul\":25451:25454   */\n      dup3\n        /* \"#utility.yul\":25362:25455   */\n      tag_664\n      jump\t// in\n    tag_910:\n        /* \"#utility.yul\":25480:25482   */\n      0x20\n        /* \"#utility.yul\":25475:25478   */\n      dup3\n        /* \"#utility.yul\":25471:25483   */\n      add\n        /* \"#utility.yul\":25464:25483   */\n      swap1\n      pop\n        /* \"#utility.yul\":25123:25489   */\n      swap2\n      swap1\n      pop\n      jump\t// out\n        /* \"#utility.yul\":25495:25914   */\n    tag_571:\n        /* \"#utility.yul\":25661:25665   */\n      0x00\n        /* \"#utility.yul\":25699:25701   */\n      0x20\n        /* \"#utility.yul\":25688:25697   */\n      dup3\n        /* \"#utility.yul\":25684:25702   */\n      add\n        /* \"#utility.yul\":25676:25702   */\n      swap1\n      pop\n        /* \"#utility.yul\":25748:25757   */\n      dup2\n        /* \"#utility.yul\":25742:25746   */\n      dup2\n        /* \"#utility.yul\":25738:25758   */\n      sub\n        /* \"#utility.yul\":25734:25735   */\n      0x00\n        /* \"#utility.yul\":25723:25732   */\n      dup4\n        /* \"#utility.yul\":25719:25736   */\n      add\n        /* \"#utility.yul\":25712:25759   */\n      mstore\n        /* \"#utility.yul\":25776:25907   */\n      tag_912\n        /* \"#utility.yul\":25902:25906   */\n      dup2\n        /* \"#utility.yul\":25776:25907   */\n      tag_665\n      jump\t// in\n    tag_912:\n        /* \"#utility.yul\":25768:25907   */\n      swap1\n      pop\n        /* \"#utility.yul\":25495:25914   */\n      swap2\n      swap1\n      pop\n      jump\t// out\n\n    auxdata: 0xa2646970667358221220a47d19a5c76d3d284150c5ea33c6b4e4e9aba09e8edd37168bea3bbb7102ac9464736f6c634300080d0033\n}\n",
				"bytecode": {
					"linkReferences": {},
					"object": "60806040523480156200001157600080fd5b5062000032620000266200003860201b60201c565b6200004060201b60201c565b62000106565b600033905090565b6000600160009054906101000a900473ffffffffffffffffffffffffffffffffffffffff16905081600160006101000a81548173ffffffffffffffffffffffffffffffffffffffff021916908373ffffffffffffffffffffffffffffffffffffffff1602179055508173ffffffffffffffffffffffffffffffffffffffff168173ffffffffffffffffffffffffffffffffffffffff167f8be0079c531659141344cd1fd0a4f28419497f9722a3daafe3b4186f6b6457e060405160405180910390a35050565b6138e280620001166000396000f3fe608060405234801561001057600080fd5b506004361061014d5760003560e01c80639e79c1d4116100c3578063ba43c3ec1161007c578063ba43c3ec14610392578063d28fc7c5146103ae578063d46ee691146103cc578063db471ea4146103fc578063f2fde38b1461041a578063f4c00ff5146104365761014d565b80639e79c1d4146102bd5780639ec6ef33146102d9578063a1f902be146102f7578063aa0aa29d14610313578063b1c5f9c614610343578063b4256888146103745761014d565b806337d87a611161011557806337d87a611461020a5780636ca9378f14610228578063715018a6146102585780637152f80014610262578063830ee448146102815780638da5cb5b1461029f5761014d565b8063080582af1461015257806318e20ecf1461017057806324d7806c1461018c57806327cf7e77146101bc578063353eb8d4146101ec575b600080fd5b61015a610452565b6040516101679190612c14565b60405180910390f35b61018a60048036038101906101859190612cca565b61046c565b005b6101a660048036038101906101a19190612d0a565b6105dd565b6040516101b39190612d46565b60405180910390f35b6101d660048036038101906101d19190612d0a565b610632565b6040516101e39190612d7e565b60405180910390f35b6101f4610653565b6040516102019190612e44565b60405180910390f35b6102126106c7565b60405161021f9190612e6e565b60405180910390f35b610242600480360381019061023d9190612eb5565b6106ed565b60405161024f9190612f0e565b60405180910390f35b6102606106f5565b005b61026a61077d565b604051610278929190612f29565b60405180910390f35b6102896107a9565b6040516102969190612fd6565b60405180910390f35b6102a761081a565b6040516102b49190612e6e565b60405180910390f35b6102d760048036038101906102d29190613089565b610844565b005b6102e1610cba565b6040516102ee919061318d565b60405180910390f35b610311600480360381019061030c91906131cb565b610d2e565b005b61032d60048036038101906103289190612eb5565b610e0c565b60405161033a9190612f0e565b60405180910390f35b61035d60048036038101906103589190612eb5565b611065565b60405161036b929190612f29565b60405180910390f35b61037c6110b0565b6040516103899190612f0e565b60405180910390f35b6103ac60048036038101906103a791906131f9565b6110b6565b005b6103b66110b9565b6040516103c39190612c14565b60405180910390f35b6103e660048036038101906103e19190613252565b6110d3565b6040516103f39190612c14565b60405180910390f35b6104046110fd565b6040516104119190613303565b60405180910390f35b610434600480360381019061042f9190612d0a565b611171565b005b610450600480360381019061044b9190613089565b611268565b005b6000600760030160009054906101000a900460ff16905090565b6104746115f8565b73ffffffffffffffffffffffffffffffffffffffff1661049261081a565b73ffffffffffffffffffffffffffffffffffffffff16146104e8576040517f08c379a00000000000000000000000000000000000000000000000000000000081526004016104df906133a1565b60405180910390fd5b8173ffffffffffffffffffffffffffffffffffffffff167f82f1fa40a3d82dea3e406073819290601f436580aa7c69f9feb61f885bdd88546000808573ffffffffffffffffffffffffffffffffffffffff1673ffffffffffffffffffffffffffffffffffffffff16815260200190815260200160002060009054906101000a900460ff168360405161057b9291906133c1565b60405180910390a2806000808473ffffffffffffffffffffffffffffffffffffffff1673ffffffffffffffffffffffffffffffffffffffff16815260200190815260200160002060006101000a81548160ff0219169083151502179055505050565b60008060008373ffffffffffffffffffffffffffffffffffffffff1673ffffffffffffffffffffffffffffffffffffffff16815260200190815260200160002060009054906101000a900460ff169050919050565b60056020528060005260406000206000915054906101000a900461ffff1681565b61065b6128e9565b60076001016004806020026040519081016040528092919082600480156106bd576020028201916000905b82829054906101000a900460ff1660ff16815260200190600101906020826000010492830192600103820291508084116106865790505b5050505050905090565b600260009054906101000a900473ffffffffffffffffffffffffffffffffffffffff1681565b600092915050565b6106fd6115f8565b73ffffffffffffffffffffffffffffffffffffffff1661071b61081a565b73ffffffffffffffffffffffffffffffffffffffff1614610771576040517f08c379a0000000000000000000000000000000000000000000000000000000008152600401610768906133a1565b60405180910390fd5b61077b6000611600565b565b60078060030160009054906101000a900460ff16908060030160019054906101000a900460ff16905082565b6107b161290b565b6003601080602002604051908101604052809291908260108015610810576020028201916000905b82829054906101000a900460ff1660ff16815260200190600101906020826000010492830192600103820291508084116107d95790505b5050505050905090565b6000600160009054906101000a900473ffffffffffffffffffffffffffffffffffffffff16905090565b60003390506000600560008373ffffffffffffffffffffffffffffffffffffffff1673ffffffffffffffffffffffffffffffffffffffff16815260200190815260200160002060009054906101000a900461ffff1690506001816108a89190613419565b90506000600660003373ffffffffffffffffffffffffffffffffffffffff1673ffffffffffffffffffffffffffffffffffffffff16815260200190815260200160002060008361ffff1661ffff1681526020019081526020016000206040518060a001604052908160008201600880602002604051908101604052809291908260088015610971576020028201916000905b82829054906101000a900460ff1660ff168152602001906001019060208260000104928301926001038202915080841161093a5790505b50505050508152602001600182016004806020026040519081016040528092919082600480156109dc576020028201916000905b82829054906101000a900460ff1660ff16815260200190600101906020826000010492830192600103820291508084116109a55790505b5050505050815260200160028201600280602002604051908101604052809291908260028015610a47576020028201916000905b82829054906101000a900460ff1660ff1681526020019060010190602082600001049283019260010382029150808411610a105790505b505050505081526020016003820160009054906101000a900460ff1660ff1660ff1681526020016003820160019054906101000a900460ff1660ff1660ff16815250509050876008806020026040519081016040528092919082600860200280828437600081840152601f19601f8201169050808301925050505050508160000181905250866004806020026040519081016040528092919082600460200280828437600081840152601f19601f8201169050808301925050505050508160200181905250856002806020026040519081016040528092919082600260200280828437600081840152601f19601f820116905080830192505050505050816040018190525084816060019060ff16908160ff168152505083816080019060ff16908160ff168152505080600660008573ffffffffffffffffffffffffffffffffffffffff1673ffffffffffffffffffffffffffffffffffffffff16815260200190815260200160002060008461ffff1661ffff168152602001908152602001600020600082015181600001906008610be092919061292e565b50602082015181600101906004610bf89291906129c8565b50604082015181600201906002610c10929190612a62565b5060608201518160030160006101000a81548160ff021916908360ff16021790555060808201518160030160016101000a81548160ff021916908360ff16021790555090505081600560008573ffffffffffffffffffffffffffffffffffffffff1673ffffffffffffffffffffffffffffffffffffffff16815260200190815260200160002060006101000a81548161ffff021916908361ffff1602179055505050505050505050565b610cc2612afc565b6007600001600880602002604051908101604052809291908260088015610d24576020028201916000905b82829054906101000a900460ff1660ff1681526020019060010190602082600001049283019260010382029150808411610ced5790505b5050505050905090565b610d3e610d396115f8565b6105dd565b610d7d576040517f08c379a0000000000000000000000000000000000000000000000000000000008152600401610d74906134c3565b60405180910390fd5b610d8561290b565b60005b60108160ff161015610df557828160ff1660108110610daa57610da96134e3565b5b602002016020810190610dbd9190613512565b828260ff1660108110610dd357610dd26134e3565b5b602002019060ff16908160ff168152505080610dee9061353f565b9050610d88565b50806003906010610e07929190612b1f565b505050565b600080600660008573ffffffffffffffffffffffffffffffffffffffff1673ffffffffffffffffffffffffffffffffffffffff16815260200190815260200160002060008461ffff1661ffff1681526020019081526020016000206040518060a001604052908160008201600880602002604051908101604052809291908260088015610ed4576020028201916000905b82829054906101000a900460ff1660ff1681526020019060010190602082600001049283019260010382029150808411610e9d5790505b5050505050815260200160018201600480602002604051908101604052809291908260048015610f3f576020028201916000905b82829054906101000a900460ff1660ff1681526020019060010190602082600001049283019260010382029150808411610f085790505b5050505050815260200160028201600280602002604051908101604052809291908260028015610faa576020028201916000905b82829054906101000a900460ff1660ff1681526020019060010190602082600001049283019260010382029150808411610f735790505b505050505081526020016003820160009054906101000a900460ff1660ff1660ff1681526020016003820160019054906101000a900460ff1660ff1660ff16815250509050610ffc81608001516116c6565b61100982606001516116ef565b6110168360400151611718565b61102384602001516117c3565b611030856000015161186e565b61103a9190613419565b6110449190613419565b61104e9190613419565b6110589190613419565b61ffff1691505092915050565b6006602052816000526040600020602052806000526040600020600091509150508060030160009054906101000a900460ff16908060030160019054906101000a900460ff16905082565b60045481565b50565b6000600760030160019054906101000a900460ff16905090565b600381601081106110e357600080fd5b60209182820401919006915054906101000a900460ff1681565b611105612bb9565b6007600201600280602002604051908101604052809291908260028015611167576020028201916000905b82829054906101000a900460ff1660ff16815260200190600101906020826000010492830192600103820291508084116111305790505b5050505050905090565b6111796115f8565b73ffffffffffffffffffffffffffffffffffffffff1661119761081a565b73ffffffffffffffffffffffffffffffffffffffff16146111ed576040517f08c379a00000000000000000000000000000000000000000000000000000000081526004016111e4906133a1565b60405180910390fd5b600073ffffffffffffffffffffffffffffffffffffffff168173ffffffffffffffffffffffffffffffffffffffff160361125c576040517f08c379a0000000000000000000000000000000000000000000000000000000008152600401611253906135da565b60405180910390fd5b61126581611600565b50565b6112786112736115f8565b6105dd565b6112b7576040517f08c379a00000000000000000000000000000000000000000000000000000000081526004016112ae906134c3565b60405180910390fd5b600060076040518060a001604052908160008201600880602002604051908101604052809291908260088015611328576020028201916000905b82829054906101000a900460ff1660ff16815260200190600101906020826000010492830192600103820291508084116112f15790505b5050505050815260200160018201600480602002604051908101604052809291908260048015611393576020028201916000905b82829054906101000a900460ff1660ff168152602001906001019060208260000104928301926001038202915080841161135c5790505b50505050508152602001600282016002806020026040519081016040528092919082600280156113fe576020028201916000905b82829054906101000a900460ff1660ff16815260200190600101906020826000010492830192600103820291508084116113c75790505b505050505081526020016003820160009054906101000a900460ff1660ff1660ff1681526020016003820160019054906101000a900460ff1660ff1660ff1681525050905061144c86611919565b61145686866120db565b611460858561249f565b61146a8484612683565b61147585858461272b565b856008806020026040519081016040528092919082600860200280828437600081840152601f19601f8201169050808301925050505050508160000181905250846004806020026040519081016040528092919082600460200280828437600081840152601f19601f8201169050808301925050505050508160200181905250836002806020026040519081016040528092919082600260200280828437600081840152601f19601f820116905080830192505050505050816040018190525082816060019060ff16908160ff168152505081816080019060ff16908160ff168152505080600760008201518160000190600861157392919061292e565b5060208201518160010190600461158b9291906129c8565b506040820151816002019060026115a3929190612a62565b5060608201518160030160006101000a81548160ff021916908360ff16021790555060808201518160030160016101000a81548160ff021916908360ff16021790555090505042600481905550505050505050565b600033905090565b6000600160009054906101000a900473ffffffffffffffffffffffffffffffffffffffff16905081600160006101000a81548173ffffffffffffffffffffffffffffffffffffffff021916908373ffffffffffffffffffffffffffffffffffffffff1602179055508173ffffffffffffffffffffffffffffffffffffffff168173ffffffffffffffffffffffffffffffffffffffff167f8be0079c531659141344cd1fd0a4f28419497f9722a3daafe3b4186f6b6457e060405160405180910390a35050565b60006116d06110b9565b60ff168260ff16036116e557600190506116ea565b600090505b919050565b60006116f9610452565b60ff168260ff160361170e5760019050611713565b600090505b919050565b60008060006117256110fd565b905060005b60028160ff1610156117b85760005b60028160ff1610156117a657828160ff166002811061175b5761175a6134e3565b5b602002015160ff16868360ff1660028110611779576117786134e3565b5b602002015160ff1603611795578380611791906135fa565b9450505b8061179f9061353f565b9050611739565b50806117b19061353f565b905061172a565b508192505050919050565b60008060006117d0610653565b905060005b60048160ff1610156118635760005b60048160ff16101561185157828160ff1660048110611806576118056134e3565b5b602002015160ff16868360ff1660048110611824576118236134e3565b5b602002015160ff160361184057838061183c906135fa565b9450505b8061184a9061353f565b90506117e4565b508061185c9061353f565b90506117d5565b508192505050919050565b600080600061187b610cba565b905060005b60088160ff16101561190e5760005b60088160ff1610156118fc57828160ff16600881106118b1576118b06134e3565b5b602002015160ff16868360ff16600881106118cf576118ce6134e3565b5b602002015160ff16036118eb5783806118e7906135fa565b9450505b806118f59061353f565b905061188f565b50806119079061353f565b9050611880565b508192505050919050565b600360006010811061192e5761192d6134e3565b5b602091828204019190069054906101000a900460ff1660ff168160006008811061195b5761195a6134e3565b5b60200201602081019061196e9190613512565b60ff1614806119d25750600360016010811061198d5761198c6134e3565b5b602091828204019190069054906101000a900460ff1660ff16816000600881106119ba576119b96134e3565b5b6020020160208101906119cd9190613512565b60ff16145b611a11576040517f08c379a0000000000000000000000000000000000000000000000000000000008152600401611a0890613670565b60405180910390fd5b6003600260108110611a2657611a256134e3565b5b602091828204019190069054906101000a900460ff1660ff1681600160088110611a5357611a526134e3565b5b602002016020810190611a669190613512565b60ff161480611ac9575060038060108110611a8457611a836134e3565b5b602091828204019190069054906101000a900460ff1660ff1681600160088110611ab157611ab06134e3565b5b602002016020810190611ac49190613512565b60ff16145b611b08576040517f08c379a0000000000000000000000000000000000000000000000000000000008152600401611aff90613670565b60405180910390fd5b6003600460108110611b1d57611b1c6134e3565b5b602091828204019190069054906101000a900460ff1660ff1681600260088110611b4a57611b496134e3565b5b602002016020810190611b5d9190613512565b60ff161480611bc157506003600560108110611b7c57611b7b6134e3565b5b602091828204019190069054906101000a900460ff1660ff1681600260088110611ba957611ba86134e3565b5b602002016020810190611bbc9190613512565b60ff16145b611c00576040517f08c379a0000000000000000000000000000000000000000000000000000000008152600401611bf790613670565b60405180910390fd5b6003600660108110611c1557611c146134e3565b5b602091828204019190069054906101000a900460ff1660ff1681600360088110611c4257611c416134e3565b5b602002016020810190611c559190613512565b60ff161480611cb957506003600760108110611c7457611c736134e3565b5b602091828204019190069054906101000a900460ff1660ff1681600360088110611ca157611ca06134e3565b5b602002016020810190611cb49190613512565b60ff16145b611cf8576040517f08c379a0000000000000000000000000000000000000000000000000000000008152600401611cef90613670565b60405180910390fd5b6003600860108110611d0d57611d0c6134e3565b5b602091828204019190069054906101000a900460ff1660ff1681600460088110611d3a57611d396134e3565b5b602002016020810190611d4d9190613512565b60ff161480611db157506003600960108110611d6c57611d6b6134e3565b5b602091828204019190069054906101000a900460ff1660ff1681600460088110611d9957611d986134e3565b5b602002016020810190611dac9190613512565b60ff16145b611df0576040517f08c379a0000000000000000000000000000000000000000000000000000000008152600401611de790613670565b60405180910390fd5b6003600a60108110611e0557611e046134e3565b5b602091828204019190069054906101000a900460ff1660ff1681600560088110611e3257611e316134e3565b5b602002016020810190611e459190613512565b60ff161480611ea957506003600b60108110611e6457611e636134e3565b5b602091828204019190069054906101000a900460ff1660ff1681600560088110611e9157611e906134e3565b5b602002016020810190611ea49190613512565b60ff16145b611ee8576040517f08c379a0000000000000000000000000000000000000000000000000000000008152600401611edf90613670565b60405180910390fd5b6003600c60108110611efd57611efc6134e3565b5b602091828204019190069054906101000a900460ff1660ff1681600660088110611f2a57611f296134e3565b5b602002016020810190611f3d9190613512565b60ff161480611fa157506003600d60108110611f5c57611f5b6134e3565b5b602091828204019190069054906101000a900460ff1660ff1681600660088110611f8957611f886134e3565b5b602002016020810190611f9c9190613512565b60ff16145b611fe0576040517f08c379a0000000000000000000000000000000000000000000000000000000008152600401611fd790613670565b60405180910390fd5b6003600e60108110611ff557611ff46134e3565b5b602091828204019190069054906101000a900460ff1660ff1681600760088110612022576120216134e3565b5b6020020160208101906120359190613512565b60ff16148061209957506003600f60108110612054576120536134e3565b5b602091828204019190069054906101000a900460ff1660ff1681600760088110612081576120806134e3565b5b6020020160208101906120949190613512565b60ff16145b6120d8576040517f08c379a00000000000000000000000000000000000000000000000000000000081526004016120cf90613670565b60405180910390fd5b50565b816000600881106120ef576120ee6134e3565b5b6020020160208101906121029190613512565b60ff1681600060048110612119576121186134e3565b5b60200201602081019061212c9190613512565b60ff16148061218c57508160016008811061214a576121496134e3565b5b60200201602081019061215d9190613512565b60ff1681600060048110612174576121736134e3565b5b6020020160208101906121879190613512565b60ff16145b6121cb576040517f08c379a00000000000000000000000000000000000000000000000000000000081526004016121c2906136dc565b60405180910390fd5b816002600881106121df576121de6134e3565b5b6020020160208101906121f29190613512565b60ff1681600160048110612209576122086134e3565b5b60200201602081019061221c9190613512565b60ff16148061227c57508160036008811061223a576122396134e3565b5b60200201602081019061224d9190613512565b60ff1681600160048110612264576122636134e3565b5b6020020160208101906122779190613512565b60ff16145b6122bb576040517f08c379a00000000000000000000000000000000000000000000000000000000081526004016122b2906136dc565b60405180910390fd5b816004600881106122cf576122ce6134e3565b5b6020020160208101906122e29190613512565b60ff16816002600481106122f9576122f86134e3565b5b60200201602081019061230c9190613512565b60ff16148061236c57508160056008811061232a576123296134e3565b5b60200201602081019061233d9190613512565b60ff1681600260048110612354576123536134e3565b5b6020020160208101906123679190613512565b60ff16145b6123ab576040517f08c379a00000000000000000000000000000000000000000000000000000000081526004016123a2906136dc565b60405180910390fd5b816006600881106123bf576123be6134e3565b5b6020020160208101906123d29190613512565b60ff16816003600481106123e9576123e86134e3565b5b6020020160208101906123fc9190613512565b60ff16148061245c57508160076008811061241a576124196134e3565b5b60200201602081019061242d9190613512565b60ff1681600360048110612444576124436134e3565b5b6020020160208101906124579190613512565b60ff16145b61249b576040517f08c379a0000000000000000000000000000000000000000000000000000000008152600401612492906136dc565b60405180910390fd5b5050565b816000600481106124b3576124b26134e3565b5b6020020160208101906124c69190613512565b60ff16816000600281106124dd576124dc6134e3565b5b6020020160208101906124f09190613512565b60ff16148061255057508160016004811061250e5761250d6134e3565b5b6020020160208101906125219190613512565b60ff1681600060028110612538576125376134e3565b5b60200201602081019061254b9190613512565b60ff16145b61258f576040517f08c379a000000000000000000000000000000000000000000000000000000000815260040161258690613748565b60405180910390fd5b816002600481106125a3576125a26134e3565b5b6020020160208101906125b69190613512565b60ff16816001600281106125cd576125cc6134e3565b5b6020020160208101906125e09190613512565b60ff1614806126405750816003600481106125fe576125fd6134e3565b5b6020020160208101906126119190613512565b60ff1681600160028110612628576126276134e3565b5b60200201602081019061263b9190613512565b60ff16145b61267f576040517f08c379a000000000000000000000000000000000000000000000000000000000815260040161267690613748565b60405180910390fd5b5050565b81600060028110612697576126966134e3565b5b6020020160208101906126aa9190613512565b60ff168160ff1614806126e85750816001600281106126cc576126cb6134e3565b5b6020020160208101906126df9190613512565b60ff168160ff16145b612727576040517f08c379a000000000000000000000000000000000000000000000000000000000815260040161271e906137b4565b60405180910390fd5b5050565b8160006002811061273f5761273e6134e3565b5b6020020160208101906127529190613512565b60ff168160ff1614158015612793575081600160028110612776576127756134e3565b5b6020020160208101906127899190613512565b60ff168160ff1614155b6127d2576040517f08c379a00000000000000000000000000000000000000000000000000000000081526004016127c990613820565b60405180910390fd5b826000600481106127e6576127e56134e3565b5b6020020160208101906127f99190613512565b60ff168160ff16148061283857508260016004811061281b5761281a6134e3565b5b60200201602081019061282e9190613512565b60ff168160ff1614155b8061286e575082600260048110612852576128516134e3565b5b6020020160208101906128659190613512565b60ff168160ff16145b806128a5575082600360048110612888576128876134e3565b5b60200201602081019061289b9190613512565b60ff168160ff1614155b6128e4576040517f08c379a00000000000000000000000000000000000000000000000000000000081526004016128db9061388c565b60405180910390fd5b505050565b6040518060800160405280600490602082028036833780820191505090505090565b604051806102000160405280601090602082028036833780820191505090505090565b826008601f016020900481019282156129b75791602002820160005b8382111561298857835183826101000a81548160ff021916908360ff160217905550926020019260010160208160000104928301926001030261294a565b80156129b55782816101000a81549060ff0219169055600101602081600001049283019260010302612988565b505b5090506129c49190612bdb565b5090565b826004601f01602090048101928215612a515791602002820160005b83821115612a2257835183826101000a81548160ff021916908360ff16021790555092602001926001016020816000010492830192600103026129e4565b8015612a4f5782816101000a81549060ff0219169055600101602081600001049283019260010302612a22565b505b509050612a5e9190612bdb565b5090565b826002601f01602090048101928215612aeb5791602002820160005b83821115612abc57835183826101000a81548160ff021916908360ff1602179055509260200192600101602081600001049283019260010302612a7e565b8015612ae95782816101000a81549060ff0219169055600101602081600001049283019260010302612abc565b505b509050612af89190612bdb565b5090565b604051806101000160405280600890602082028036833780820191505090505090565b826010601f01602090048101928215612ba85791602002820160005b83821115612b7957835183826101000a81548160ff021916908360ff1602179055509260200192600101602081600001049283019260010302612b3b565b8015612ba65782816101000a81549060ff0219169055600101602081600001049283019260010302612b79565b505b509050612bb59190612bdb565b5090565b6040518060400160405280600290602082028036833780820191505090505090565b5b80821115612bf4576000816000905550600101612bdc565b5090565b600060ff82169050919050565b612c0e81612bf8565b82525050565b6000602082019050612c296000830184612c05565b92915050565b600080fd5b600073ffffffffffffffffffffffffffffffffffffffff82169050919050565b6000612c5f82612c34565b9050919050565b612c6f81612c54565b8114612c7a57600080fd5b50565b600081359050612c8c81612c66565b92915050565b60008115159050919050565b612ca781612c92565b8114612cb257600080fd5b50565b600081359050612cc481612c9e565b92915050565b60008060408385031215612ce157612ce0612c2f565b5b6000612cef85828601612c7d565b9250506020612d0085828601612cb5565b9150509250929050565b600060208284031215612d2057612d1f612c2f565b5b6000612d2e84828501612c7d565b91505092915050565b612d4081612c92565b82525050565b6000602082019050612d5b6000830184612d37565b92915050565b600061ffff82169050919050565b612d7881612d61565b82525050565b6000602082019050612d936000830184612d6f565b92915050565b600060049050919050565b600081905092915050565b6000819050919050565b612dc281612bf8565b82525050565b6000612dd48383612db9565b60208301905092915050565b6000602082019050919050565b612df681612d99565b612e008184612da4565b9250612e0b82612daf565b8060005b83811015612e3c578151612e238782612dc8565b9650612e2e83612de0565b925050600181019050612e0f565b505050505050565b6000608082019050612e596000830184612ded565b92915050565b612e6881612c54565b82525050565b6000602082019050612e836000830184612e5f565b92915050565b612e9281612d61565b8114612e9d57600080fd5b50565b600081359050612eaf81612e89565b92915050565b60008060408385031215612ecc57612ecb612c2f565b5b6000612eda85828601612c7d565b9250506020612eeb85828601612ea0565b9150509250929050565b6000819050919050565b612f0881612ef5565b82525050565b6000602082019050612f236000830184612eff565b92915050565b6000604082019050612f3e6000830185612c05565b612f4b6020830184612c05565b9392505050565b600060109050919050565b600081905092915050565b6000819050919050565b6000602082019050919050565b612f8881612f52565b612f928184612f5d565b9250612f9d82612f68565b8060005b83811015612fce578151612fb58782612dc8565b9650612fc083612f72565b925050600181019050612fa1565b505050505050565b600061020082019050612fec6000830184612f7f565b92915050565b600080fd5b60008190508260206008028201111561301357613012612ff2565b5b92915050565b60008190508260206004028201111561303557613034612ff2565b5b92915050565b60008190508260206002028201111561305757613056612ff2565b5b92915050565b61306681612bf8565b811461307157600080fd5b50565b6000813590506130838161305d565b92915050565b600080600080600061020086880312156130a6576130a5612c2f565b5b60006130b488828901612ff7565b9550506101006130c688828901613019565b9450506101806130d88882890161303b565b9350506101c06130ea88828901613074565b9250506101e06130fc88828901613074565b9150509295509295909350565b600060089050919050565b600081905092915050565b6000819050919050565b6000602082019050919050565b61313f81613109565b6131498184613114565b92506131548261311f565b8060005b8381101561318557815161316c8782612dc8565b965061317783613129565b925050600181019050613158565b505050505050565b6000610100820190506131a36000830184613136565b92915050565b6000819050826020601002820111156131c5576131c4612ff2565b5b92915050565b600061020082840312156131e2576131e1612c2f565b5b60006131f0848285016131a9565b91505092915050565b60006020828403121561320f5761320e612c2f565b5b600061321d84828501612ea0565b91505092915050565b61322f81612ef5565b811461323a57600080fd5b50565b60008135905061324c81613226565b92915050565b60006020828403121561326857613267612c2f565b5b60006132768482850161323d565b91505092915050565b600060029050919050565b600081905092915050565b6000819050919050565b6000602082019050919050565b6132b58161327f565b6132bf818461328a565b92506132ca82613295565b8060005b838110156132fb5781516132e28782612dc8565b96506132ed8361329f565b9250506001810190506132ce565b505050505050565b600060408201905061331860008301846132ac565b92915050565b600082825260208201905092915050565b7f41646d696e61626c653a2063616c6c6572206973206e6f7420746865206f776e60008201527f6572000000000000000000000000000000000000000000000000000000000000602082015250565b600061338b60228361331e565b91506133968261332f565b604082019050919050565b600060208201905081810360008301526133ba8161337e565b9050919050565b60006040820190506133d66000830185612d37565b6133e36020830184612d37565b9392505050565b7f4e487b7100000000000000000000000000000000000000000000000000000000600052601160045260246000fd5b600061342482612d61565b915061342f83612d61565b92508261ffff03821115613446576134456133ea565b5b828201905092915050565b7f41646d696e61626c653a2063616c6c6572206973206e6f74207468652061646d60008201527f696e000000000000000000000000000000000000000000000000000000000000602082015250565b60006134ad60228361331e565b91506134b882613451565b604082019050919050565b600060208201905081810360008301526134dc816134a0565b9050919050565b7f4e487b7100000000000000000000000000000000000000000000000000000000600052603260045260246000fd5b60006020828403121561352857613527612c2f565b5b600061353684828501613074565b91505092915050565b600061354a82612bf8565b915060ff820361355d5761355c6133ea565b5b600182019050919050565b7f4f776e61626c653a206e6577206f776e657220697320746865207a65726f206160008201527f6464726573730000000000000000000000000000000000000000000000000000602082015250565b60006135c460268361331e565b91506135cf82613568565b604082019050919050565b600060208201905081810360008301526135f3816135b7565b9050919050565b600061360582612d61565b915061ffff8203613619576136186133ea565b5b600182019050919050565b7f7465616d7338206e6f7420696e207465616d7331360000000000000000000000600082015250565b600061365a60158361331e565b915061366582613624565b602082019050919050565b600060208201905081810360008301526136898161364d565b9050919050565b7f5f7465616d7334206e6f7420696e205f7465616d733800000000000000000000600082015250565b60006136c660168361331e565b91506136d182613690565b602082019050919050565b600060208201905081810360008301526136f5816136b9565b9050919050565b7f5f7465616d7332206e6f7420696e205f7465616d733400000000000000000000600082015250565b600061373260168361331e565b915061373d826136fc565b602082019050919050565b6000602082019050818103600083015261376181613725565b9050919050565b7f66697273745465616d206e6f7420696e205f7465616d73320000000000000000600082015250565b600061379e60188361331e565b91506137a982613768565b602082019050919050565b600060208201905081810360008301526137cd81613791565b9050919050565b7f74687269645465616d206d757374206e6f7420696e205f7465616d7332000000600082015250565b600061380a601d8361331e565b9150613815826137d4565b602082019050919050565b60006020820190508181036000830152613839816137fd565b9050919050565b7f74687269645465616d206d75737420696e205f7465616d733400000000000000600082015250565b600061387660198361331e565b915061388182613840565b602082019050919050565b600060208201905081810360008301526138a581613869565b905091905056fea2646970667358221220a47d19a5c76d3d284150c5ea33c6b4e4e9aba09e8edd37168bea3bbb7102ac9464736f6c634300080d0033",
					"opcodes": "PUSH1 0x80 PUSH1 0x40 MSTORE CALLVALUE DUP1 ISZERO PUSH3 0x11 JUMPI PUSH1 0x0 DUP1 REVERT JUMPDEST POP PUSH3 0x32 PUSH3 0x26 PUSH3 0x38 PUSH1 0x20 SHL PUSH1 0x20 SHR JUMP JUMPDEST PUSH3 0x40 PUSH1 0x20 SHL PUSH1 0x20 SHR JUMP JUMPDEST PUSH3 0x106 JUMP JUMPDEST PUSH1 0x0 CALLER SWAP1 POP SWAP1 JUMP JUMPDEST PUSH1 0x0 PUSH1 0x1 PUSH1 0x0 SWAP1 SLOAD SWAP1 PUSH2 0x100 EXP SWAP1 DIV PUSH20 0xFFFFFFFFFFFFFFFFFFFFFFFFFFFFFFFFFFFFFFFF AND SWAP1 POP DUP2 PUSH1 0x1 PUSH1 0x0 PUSH2 0x100 EXP DUP2 SLOAD DUP2 PUSH20 0xFFFFFFFFFFFFFFFFFFFFFFFFFFFFFFFFFFFFFFFF MUL NOT AND SWAP1 DUP4 PUSH20 0xFFFFFFFFFFFFFFFFFFFFFFFFFFFFFFFFFFFFFFFF AND MUL OR SWAP1 SSTORE POP DUP2 PUSH20 0xFFFFFFFFFFFFFFFFFFFFFFFFFFFFFFFFFFFFFFFF AND DUP2 PUSH20 0xFFFFFFFFFFFFFFFFFFFFFFFFFFFFFFFFFFFFFFFF AND PUSH32 0x8BE0079C531659141344CD1FD0A4F28419497F9722A3DAAFE3B4186F6B6457E0 PUSH1 0x40 MLOAD PUSH1 0x40 MLOAD DUP1 SWAP2 SUB SWAP1 LOG3 POP POP JUMP JUMPDEST PUSH2 0x38E2 DUP1 PUSH3 0x116 PUSH1 0x0 CODECOPY PUSH1 0x0 RETURN INVALID PUSH1 0x80 PUSH1 0x40 MSTORE CALLVALUE DUP1 ISZERO PUSH2 0x10 JUMPI PUSH1 0x0 DUP1 REVERT JUMPDEST POP PUSH1 0x4 CALLDATASIZE LT PUSH2 0x14D JUMPI PUSH1 0x0 CALLDATALOAD PUSH1 0xE0 SHR DUP1 PUSH4 0x9E79C1D4 GT PUSH2 0xC3 JUMPI DUP1 PUSH4 0xBA43C3EC GT PUSH2 0x7C JUMPI DUP1 PUSH4 0xBA43C3EC EQ PUSH2 0x392 JUMPI DUP1 PUSH4 0xD28FC7C5 EQ PUSH2 0x3AE JUMPI DUP1 PUSH4 0xD46EE691 EQ PUSH2 0x3CC JUMPI DUP1 PUSH4 0xDB471EA4 EQ PUSH2 0x3FC JUMPI DUP1 PUSH4 0xF2FDE38B EQ PUSH2 0x41A JUMPI DUP1 PUSH4 0xF4C00FF5 EQ PUSH2 0x436 JUMPI PUSH2 0x14D JUMP JUMPDEST DUP1 PUSH4 0x9E79C1D4 EQ PUSH2 0x2BD JUMPI DUP1 PUSH4 0x9EC6EF33 EQ PUSH2 0x2D9 JUMPI DUP1 PUSH4 0xA1F902BE EQ PUSH2 0x2F7 JUMPI DUP1 PUSH4 0xAA0AA29D EQ PUSH2 0x313 JUMPI DUP1 PUSH4 0xB1C5F9C6 EQ PUSH2 0x343 JUMPI DUP1 PUSH4 0xB4256888 EQ PUSH2 0x374 JUMPI PUSH2 0x14D JUMP JUMPDEST DUP1 PUSH4 0x37D87A61 GT PUSH2 0x115 JUMPI DUP1 PUSH4 0x37D87A61 EQ PUSH2 0x20A JUMPI DUP1 PUSH4 0x6CA9378F EQ PUSH2 0x228 JUMPI DUP1 PUSH4 0x715018A6 EQ PUSH2 0x258 JUMPI DUP1 PUSH4 0x7152F800 EQ PUSH2 0x262 JUMPI DUP1 PUSH4 0x830EE448 EQ PUSH2 0x281 JUMPI DUP1 PUSH4 0x8DA5CB5B EQ PUSH2 0x29F JUMPI PUSH2 0x14D JUMP JUMPDEST DUP1 PUSH4 0x80582AF EQ PUSH2 0x152 JUMPI DUP1 PUSH4 0x18E20ECF EQ PUSH2 0x170 JUMPI DUP1 PUSH4 0x24D7806C EQ PUSH2 0x18C JUMPI DUP1 PUSH4 0x27CF7E77 EQ PUSH2 0x1BC JUMPI DUP1 PUSH4 0x353EB8D4 EQ PUSH2 0x1EC JUMPI JUMPDEST PUSH1 0x0 DUP1 REVERT JUMPDEST PUSH2 0x15A PUSH2 0x452 JUMP JUMPDEST PUSH1 0x40 MLOAD PUSH2 0x167 SWAP2 SWAP1 PUSH2 0x2C14 JUMP JUMPDEST PUSH1 0x40 MLOAD DUP1 SWAP2 SUB SWAP1 RETURN JUMPDEST PUSH2 0x18A PUSH1 0x4 DUP1 CALLDATASIZE SUB DUP2 ADD SWAP1 PUSH2 0x185 SWAP2 SWAP1 PUSH2 0x2CCA JUMP JUMPDEST PUSH2 0x46C JUMP JUMPDEST STOP JUMPDEST PUSH2 0x1A6 PUSH1 0x4 DUP1 CALLDATASIZE SUB DUP2 ADD SWAP1 PUSH2 0x1A1 SWAP2 SWAP1 PUSH2 0x2D0A JUMP JUMPDEST PUSH2 0x5DD JUMP JUMPDEST PUSH1 0x40 MLOAD PUSH2 0x1B3 SWAP2 SWAP1 PUSH2 0x2D46 JUMP JUMPDEST PUSH1 0x40 MLOAD DUP1 SWAP2 SUB SWAP1 RETURN JUMPDEST PUSH2 0x1D6 PUSH1 0x4 DUP1 CALLDATASIZE SUB DUP2 ADD SWAP1 PUSH2 0x1D1 SWAP2 SWAP1 PUSH2 0x2D0A JUMP JUMPDEST PUSH2 0x632 JUMP JUMPDEST PUSH1 0x40 MLOAD PUSH2 0x1E3 SWAP2 SWAP1 PUSH2 0x2D7E JUMP JUMPDEST PUSH1 0x40 MLOAD DUP1 SWAP2 SUB SWAP1 RETURN JUMPDEST PUSH2 0x1F4 PUSH2 0x653 JUMP JUMPDEST PUSH1 0x40 MLOAD PUSH2 0x201 SWAP2 SWAP1 PUSH2 0x2E44 JUMP JUMPDEST PUSH1 0x40 MLOAD DUP1 SWAP2 SUB SWAP1 RETURN JUMPDEST PUSH2 0x212 PUSH2 0x6C7 JUMP JUMPDEST PUSH1 0x40 MLOAD PUSH2 0x21F SWAP2 SWAP1 PUSH2 0x2E6E JUMP JUMPDEST PUSH1 0x40 MLOAD DUP1 SWAP2 SUB SWAP1 RETURN JUMPDEST PUSH2 0x242 PUSH1 0x4 DUP1 CALLDATASIZE SUB DUP2 ADD SWAP1 PUSH2 0x23D SWAP2 SWAP1 PUSH2 0x2EB5 JUMP JUMPDEST PUSH2 0x6ED JUMP JUMPDEST PUSH1 0x40 MLOAD PUSH2 0x24F SWAP2 SWAP1 PUSH2 0x2F0E JUMP JUMPDEST PUSH1 0x40 MLOAD DUP1 SWAP2 SUB SWAP1 RETURN JUMPDEST PUSH2 0x260 PUSH2 0x6F5 JUMP JUMPDEST STOP JUMPDEST PUSH2 0x26A PUSH2 0x77D JUMP JUMPDEST PUSH1 0x40 MLOAD PUSH2 0x278 SWAP3 SWAP2 SWAP1 PUSH2 0x2F29 JUMP JUMPDEST PUSH1 0x40 MLOAD DUP1 SWAP2 SUB SWAP1 RETURN JUMPDEST PUSH2 0x289 PUSH2 0x7A9 JUMP JUMPDEST PUSH1 0x40 MLOAD PUSH2 0x296 SWAP2 SWAP1 PUSH2 0x2FD6 JUMP JUMPDEST PUSH1 0x40 MLOAD DUP1 SWAP2 SUB SWAP1 RETURN JUMPDEST PUSH2 0x2A7 PUSH2 0x81A JUMP JUMPDEST PUSH1 0x40 MLOAD PUSH2 0x2B4 SWAP2 SWAP1 PUSH2 0x2E6E JUMP JUMPDEST PUSH1 0x40 MLOAD DUP1 SWAP2 SUB SWAP1 RETURN JUMPDEST PUSH2 0x2D7 PUSH1 0x4 DUP1 CALLDATASIZE SUB DUP2 ADD SWAP1 PUSH2 0x2D2 SWAP2 SWAP1 PUSH2 0x3089 JUMP JUMPDEST PUSH2 0x844 JUMP JUMPDEST STOP JUMPDEST PUSH2 0x2E1 PUSH2 0xCBA JUMP JUMPDEST PUSH1 0x40 MLOAD PUSH2 0x2EE SWAP2 SWAP1 PUSH2 0x318D JUMP JUMPDEST PUSH1 0x40 MLOAD DUP1 SWAP2 SUB SWAP1 RETURN JUMPDEST PUSH2 0x311 PUSH1 0x4 DUP1 CALLDATASIZE SUB DUP2 ADD SWAP1 PUSH2 0x30C SWAP2 SWAP1 PUSH2 0x31CB JUMP JUMPDEST PUSH2 0xD2E JUMP JUMPDEST STOP JUMPDEST PUSH2 0x32D PUSH1 0x4 DUP1 CALLDATASIZE SUB DUP2 ADD SWAP1 PUSH2 0x328 SWAP2 SWAP1 PUSH2 0x2EB5 JUMP JUMPDEST PUSH2 0xE0C JUMP JUMPDEST PUSH1 0x40 MLOAD PUSH2 0x33A SWAP2 SWAP1 PUSH2 0x2F0E JUMP JUMPDEST PUSH1 0x40 MLOAD DUP1 SWAP2 SUB SWAP1 RETURN JUMPDEST PUSH2 0x35D PUSH1 0x4 DUP1 CALLDATASIZE SUB DUP2 ADD SWAP1 PUSH2 0x358 SWAP2 SWAP1 PUSH2 0x2EB5 JUMP JUMPDEST PUSH2 0x1065 JUMP JUMPDEST PUSH1 0x40 MLOAD PUSH2 0x36B SWAP3 SWAP2 SWAP1 PUSH2 0x2F29 JUMP JUMPDEST PUSH1 0x40 MLOAD DUP1 SWAP2 SUB SWAP1 RETURN JUMPDEST PUSH2 0x37C PUSH2 0x10B0 JUMP JUMPDEST PUSH1 0x40 MLOAD PUSH2 0x389 SWAP2 SWAP1 PUSH2 0x2F0E JUMP JUMPDEST PUSH1 0x40 MLOAD DUP1 SWAP2 SUB SWAP1 RETURN JUMPDEST PUSH2 0x3AC PUSH1 0x4 DUP1 CALLDATASIZE SUB DUP2 ADD SWAP1 PUSH2 0x3A7 SWAP2 SWAP1 PUSH2 0x31F9 JUMP JUMPDEST PUSH2 0x10B6 JUMP JUMPDEST STOP JUMPDEST PUSH2 0x3B6 PUSH2 0x10B9 JUMP JUMPDEST PUSH1 0x40 MLOAD PUSH2 0x3C3 SWAP2 SWAP1 PUSH2 0x2C14 JUMP JUMPDEST PUSH1 0x40 MLOAD DUP1 SWAP2 SUB SWAP1 RETURN JUMPDEST PUSH2 0x3E6 PUSH1 0x4 DUP1 CALLDATASIZE SUB DUP2 ADD SWAP1 PUSH2 0x3E1 SWAP2 SWAP1 PUSH2 0x3252 JUMP JUMPDEST PUSH2 0x10D3 JUMP JUMPDEST PUSH1 0x40 MLOAD PUSH2 0x3F3 SWAP2 SWAP1 PUSH2 0x2C14 JUMP JUMPDEST PUSH1 0x40 MLOAD DUP1 SWAP2 SUB SWAP1 RETURN JUMPDEST PUSH2 0x404 PUSH2 0x10FD JUMP JUMPDEST PUSH1 0x40 MLOAD PUSH2 0x411 SWAP2 SWAP1 PUSH2 0x3303 JUMP JUMPDEST PUSH1 0x40 MLOAD DUP1 SWAP2 SUB SWAP1 RETURN JUMPDEST PUSH2 0x434 PUSH1 0x4 DUP1 CALLDATASIZE SUB DUP2 ADD SWAP1 PUSH2 0x42F SWAP2 SWAP1 PUSH2 0x2D0A JUMP JUMPDEST PUSH2 0x1171 JUMP JUMPDEST STOP JUMPDEST PUSH2 0x450 PUSH1 0x4 DUP1 CALLDATASIZE SUB DUP2 ADD SWAP1 PUSH2 0x44B SWAP2 SWAP1 PUSH2 0x3089 JUMP JUMPDEST PUSH2 0x1268 JUMP JUMPDEST STOP JUMPDEST PUSH1 0x0 PUSH1 0x7 PUSH1 0x3 ADD PUSH1 0x0 SWAP1 SLOAD SWAP1 PUSH2 0x100 EXP SWAP1 DIV PUSH1 0xFF AND SWAP1 POP SWAP1 JUMP JUMPDEST PUSH2 0x474 PUSH2 0x15F8 JUMP JUMPDEST PUSH20 0xFFFFFFFFFFFFFFFFFFFFFFFFFFFFFFFFFFFFFFFF AND PUSH2 0x492 PUSH2 0x81A JUMP JUMPDEST PUSH20 0xFFFFFFFFFFFFFFFFFFFFFFFFFFFFFFFFFFFFFFFF AND EQ PUSH2 0x4E8 JUMPI PUSH1 0x40 MLOAD PUSH32 0x8C379A000000000000000000000000000000000000000000000000000000000 DUP2 MSTORE PUSH1 0x4 ADD PUSH2 0x4DF SWAP1 PUSH2 0x33A1 JUMP JUMPDEST PUSH1 0x40 MLOAD DUP1 SWAP2 SUB SWAP1 REVERT JUMPDEST DUP2 PUSH20 0xFFFFFFFFFFFFFFFFFFFFFFFFFFFFFFFFFFFFFFFF AND PUSH32 0x82F1FA40A3D82DEA3E406073819290601F436580AA7C69F9FEB61F885BDD8854 PUSH1 0x0 DUP1 DUP6 PUSH20 0xFFFFFFFFFFFFFFFFFFFFFFFFFFFFFFFFFFFFFFFF AND PUSH20 0xFFFFFFFFFFFFFFFFFFFFFFFFFFFFFFFFFFFFFFFF AND DUP2 MSTORE PUSH1 0x20 ADD SWAP1 DUP2 MSTORE PUSH1 0x20 ADD PUSH1 0x0 KECCAK256 PUSH1 0x0 SWAP1 SLOAD SWAP1 PUSH2 0x100 EXP SWAP1 DIV PUSH1 0xFF AND DUP4 PUSH1 0x40 MLOAD PUSH2 0x57B SWAP3 SWAP2 SWAP1 PUSH2 0x33C1 JUMP JUMPDEST PUSH1 0x40 MLOAD DUP1 SWAP2 SUB SWAP1 LOG2 DUP1 PUSH1 0x0 DUP1 DUP5 PUSH20 0xFFFFFFFFFFFFFFFFFFFFFFFFFFFFFFFFFFFFFFFF AND PUSH20 0xFFFFFFFFFFFFFFFFFFFFFFFFFFFFFFFFFFFFFFFF AND DUP2 MSTORE PUSH1 0x20 ADD SWAP1 DUP2 MSTORE PUSH1 0x20 ADD PUSH1 0x0 KECCAK256 PUSH1 0x0 PUSH2 0x100 EXP DUP2 SLOAD DUP2 PUSH1 0xFF MUL NOT AND SWAP1 DUP4 ISZERO ISZERO MUL OR SWAP1 SSTORE POP POP POP JUMP JUMPDEST PUSH1 0x0 DUP1 PUSH1 0x0 DUP4 PUSH20 0xFFFFFFFFFFFFFFFFFFFFFFFFFFFFFFFFFFFFFFFF AND PUSH20 0xFFFFFFFFFFFFFFFFFFFFFFFFFFFFFFFFFFFFFFFF AND DUP2 MSTORE PUSH1 0x20 ADD SWAP1 DUP2 MSTORE PUSH1 0x20 ADD PUSH1 0x0 KECCAK256 PUSH1 0x0 SWAP1 SLOAD SWAP1 PUSH2 0x100 EXP SWAP1 DIV PUSH1 0xFF AND SWAP1 POP SWAP2 SWAP1 POP JUMP JUMPDEST PUSH1 0x5 PUSH1 0x20 MSTORE DUP1 PUSH1 0x0 MSTORE PUSH1 0x40 PUSH1 0x0 KECCAK256 PUSH1 0x0 SWAP2 POP SLOAD SWAP1 PUSH2 0x100 EXP SWAP1 DIV PUSH2 0xFFFF AND DUP2 JUMP JUMPDEST PUSH2 0x65B PUSH2 0x28E9 JUMP JUMPDEST PUSH1 0x7 PUSH1 0x1 ADD PUSH1 0x4 DUP1 PUSH1 0x20 MUL PUSH1 0x40 MLOAD SWAP1 DUP2 ADD PUSH1 0x40 MSTORE DUP1 SWAP3 SWAP2 SWAP1 DUP3 PUSH1 0x4 DUP1 ISZERO PUSH2 0x6BD JUMPI PUSH1 0x20 MUL DUP3 ADD SWAP2 PUSH1 0x0 SWAP1 JUMPDEST DUP3 DUP3 SWAP1 SLOAD SWAP1 PUSH2 0x100 EXP SWAP1 DIV PUSH1 0xFF AND PUSH1 0xFF AND DUP2 MSTORE PUSH1 0x20 ADD SWAP1 PUSH1 0x1 ADD SWAP1 PUSH1 0x20 DUP3 PUSH1 0x0 ADD DIV SWAP3 DUP4 ADD SWAP3 PUSH1 0x1 SUB DUP3 MUL SWAP2 POP DUP1 DUP5 GT PUSH2 0x686 JUMPI SWAP1 POP JUMPDEST POP POP POP POP POP SWAP1 POP SWAP1 JUMP JUMPDEST PUSH1 0x2 PUSH1 0x0 SWAP1 SLOAD SWAP1 PUSH2 0x100 EXP SWAP1 DIV PUSH20 0xFFFFFFFFFFFFFFFFFFFFFFFFFFFFFFFFFFFFFFFF AND DUP2 JUMP JUMPDEST PUSH1 0x0 SWAP3 SWAP2 POP POP JUMP JUMPDEST PUSH2 0x6FD PUSH2 0x15F8 JUMP JUMPDEST PUSH20 0xFFFFFFFFFFFFFFFFFFFFFFFFFFFFFFFFFFFFFFFF AND PUSH2 0x71B PUSH2 0x81A JUMP JUMPDEST PUSH20 0xFFFFFFFFFFFFFFFFFFFFFFFFFFFFFFFFFFFFFFFF AND EQ PUSH2 0x771 JUMPI PUSH1 0x40 MLOAD PUSH32 0x8C379A000000000000000000000000000000000000000000000000000000000 DUP2 MSTORE PUSH1 0x4 ADD PUSH2 0x768 SWAP1 PUSH2 0x33A1 JUMP JUMPDEST PUSH1 0x40 MLOAD DUP1 SWAP2 SUB SWAP1 REVERT JUMPDEST PUSH2 0x77B PUSH1 0x0 PUSH2 0x1600 JUMP JUMPDEST JUMP JUMPDEST PUSH1 0x7 DUP1 PUSH1 0x3 ADD PUSH1 0x0 SWAP1 SLOAD SWAP1 PUSH2 0x100 EXP SWAP1 DIV PUSH1 0xFF AND SWAP1 DUP1 PUSH1 0x3 ADD PUSH1 0x1 SWAP1 SLOAD SWAP1 PUSH2 0x100 EXP SWAP1 DIV PUSH1 0xFF AND SWAP1 POP DUP3 JUMP JUMPDEST PUSH2 0x7B1 PUSH2 0x290B JUMP JUMPDEST PUSH1 0x3 PUSH1 0x10 DUP1 PUSH1 0x20 MUL PUSH1 0x40 MLOAD SWAP1 DUP2 ADD PUSH1 0x40 MSTORE DUP1 SWAP3 SWAP2 SWAP1 DUP3 PUSH1 0x10 DUP1 ISZERO PUSH2 0x810 JUMPI PUSH1 0x20 MUL DUP3 ADD SWAP2 PUSH1 0x0 SWAP1 JUMPDEST DUP3 DUP3 SWAP1 SLOAD SWAP1 PUSH2 0x100 EXP SWAP1 DIV PUSH1 0xFF AND PUSH1 0xFF AND DUP2 MSTORE PUSH1 0x20 ADD SWAP1 PUSH1 0x1 ADD SWAP1 PUSH1 0x20 DUP3 PUSH1 0x0 ADD DIV SWAP3 DUP4 ADD SWAP3 PUSH1 0x1 SUB DUP3 MUL SWAP2 POP DUP1 DUP5 GT PUSH2 0x7D9 JUMPI SWAP1 POP JUMPDEST POP POP POP POP POP SWAP1 POP SWAP1 JUMP JUMPDEST PUSH1 0x0 PUSH1 0x1 PUSH1 0x0 SWAP1 SLOAD SWAP1 PUSH2 0x100 EXP SWAP1 DIV PUSH20 0xFFFFFFFFFFFFFFFFFFFFFFFFFFFFFFFFFFFFFFFF AND SWAP1 POP SWAP1 JUMP JUMPDEST PUSH1 0x0 CALLER SWAP1 POP PUSH1 0x0 PUSH1 0x5 PUSH1 0x0 DUP4 PUSH20 0xFFFFFFFFFFFFFFFFFFFFFFFFFFFFFFFFFFFFFFFF AND PUSH20 0xFFFFFFFFFFFFFFFFFFFFFFFFFFFFFFFFFFFFFFFF AND DUP2 MSTORE PUSH1 0x20 ADD SWAP1 DUP2 MSTORE PUSH1 0x20 ADD PUSH1 0x0 KECCAK256 PUSH1 0x0 SWAP1 SLOAD SWAP1 PUSH2 0x100 EXP SWAP1 DIV PUSH2 0xFFFF AND SWAP1 POP PUSH1 0x1 DUP2 PUSH2 0x8A8 SWAP2 SWAP1 PUSH2 0x3419 JUMP JUMPDEST SWAP1 POP PUSH1 0x0 PUSH1 0x6 PUSH1 0x0 CALLER PUSH20 0xFFFFFFFFFFFFFFFFFFFFFFFFFFFFFFFFFFFFFFFF AND PUSH20 0xFFFFFFFFFFFFFFFFFFFFFFFFFFFFFFFFFFFFFFFF AND DUP2 MSTORE PUSH1 0x20 ADD SWAP1 DUP2 MSTORE PUSH1 0x20 ADD PUSH1 0x0 KECCAK256 PUSH1 0x0 DUP4 PUSH2 0xFFFF AND PUSH2 0xFFFF AND DUP2 MSTORE PUSH1 0x20 ADD SWAP1 DUP2 MSTORE PUSH1 0x20 ADD PUSH1 0x0 KECCAK256 PUSH1 0x40 MLOAD DUP1 PUSH1 0xA0 ADD PUSH1 0x40 MSTORE SWAP1 DUP2 PUSH1 0x0 DUP3 ADD PUSH1 0x8 DUP1 PUSH1 0x20 MUL PUSH1 0x40 MLOAD SWAP1 DUP2 ADD PUSH1 0x40 MSTORE DUP1 SWAP3 SWAP2 SWAP1 DUP3 PUSH1 0x8 DUP1 ISZERO PUSH2 0x971 JUMPI PUSH1 0x20 MUL DUP3 ADD SWAP2 PUSH1 0x0 SWAP1 JUMPDEST DUP3 DUP3 SWAP1 SLOAD SWAP1 PUSH2 0x100 EXP SWAP1 DIV PUSH1 0xFF AND PUSH1 0xFF AND DUP2 MSTORE PUSH1 0x20 ADD SWAP1 PUSH1 0x1 ADD SWAP1 PUSH1 0x20 DUP3 PUSH1 0x0 ADD DIV SWAP3 DUP4 ADD SWAP3 PUSH1 0x1 SUB DUP3 MUL SWAP2 POP DUP1 DUP5 GT PUSH2 0x93A JUMPI SWAP1 POP JUMPDEST POP POP POP POP POP DUP2 MSTORE PUSH1 0x20 ADD PUSH1 0x1 DUP3 ADD PUSH1 0x4 DUP1 PUSH1 0x20 MUL PUSH1 0x40 MLOAD SWAP1 DUP2 ADD PUSH1 0x40 MSTORE DUP1 SWAP3 SWAP2 SWAP1 DUP3 PUSH1 0x4 DUP1 ISZERO PUSH2 0x9DC JUMPI PUSH1 0x20 MUL DUP3 ADD SWAP2 PUSH1 0x0 SWAP1 JUMPDEST DUP3 DUP3 SWAP1 SLOAD SWAP1 PUSH2 0x100 EXP SWAP1 DIV PUSH1 0xFF AND PUSH1 0xFF AND DUP2 MSTORE PUSH1 0x20 ADD SWAP1 PUSH1 0x1 ADD SWAP1 PUSH1 0x20 DUP3 PUSH1 0x0 ADD DIV SWAP3 DUP4 ADD SWAP3 PUSH1 0x1 SUB DUP3 MUL SWAP2 POP DUP1 DUP5 GT PUSH2 0x9A5 JUMPI SWAP1 POP JUMPDEST POP POP POP POP POP DUP2 MSTORE PUSH1 0x20 ADD PUSH1 0x2 DUP3 ADD PUSH1 0x2 DUP1 PUSH1 0x20 MUL PUSH1 0x40 MLOAD SWAP1 DUP2 ADD PUSH1 0x40 MSTORE DUP1 SWAP3 SWAP2 SWAP1 DUP3 PUSH1 0x2 DUP1 ISZERO PUSH2 0xA47 JUMPI PUSH1 0x20 MUL DUP3 ADD SWAP2 PUSH1 0x0 SWAP1 JUMPDEST DUP3 DUP3 SWAP1 SLOAD SWAP1 PUSH2 0x100 EXP SWAP1 DIV PUSH1 0xFF AND PUSH1 0xFF AND DUP2 MSTORE PUSH1 0x20 ADD SWAP1 PUSH1 0x1 ADD SWAP1 PUSH1 0x20 DUP3 PUSH1 0x0 ADD DIV SWAP3 DUP4 ADD SWAP3 PUSH1 0x1 SUB DUP3 MUL SWAP2 POP DUP1 DUP5 GT PUSH2 0xA10 JUMPI SWAP1 POP JUMPDEST POP POP POP POP POP DUP2 MSTORE PUSH1 0x20 ADD PUSH1 0x3 DUP3 ADD PUSH1 0x0 SWAP1 SLOAD SWAP1 PUSH2 0x100 EXP SWAP1 DIV PUSH1 0xFF AND PUSH1 0xFF AND PUSH1 0xFF AND DUP2 MSTORE PUSH1 0x20 ADD PUSH1 0x3 DUP3 ADD PUSH1 0x1 SWAP1 SLOAD SWAP1 PUSH2 0x100 EXP SWAP1 DIV PUSH1 0xFF AND PUSH1 0xFF AND PUSH1 0xFF AND DUP2 MSTORE POP POP SWAP1 POP DUP8 PUSH1 0x8 DUP1 PUSH1 0x20 MUL PUSH1 0x40 MLOAD SWAP1 DUP2 ADD PUSH1 0x40 MSTORE DUP1 SWAP3 SWAP2 SWAP1 DUP3 PUSH1 0x8 PUSH1 0x20 MUL DUP1 DUP3 DUP5 CALLDATACOPY PUSH1 0x0 DUP2 DUP5 ADD MSTORE PUSH1 0x1F NOT PUSH1 0x1F DUP3 ADD AND SWAP1 POP DUP1 DUP4 ADD SWAP3 POP POP POP POP POP POP DUP2 PUSH1 0x0 ADD DUP2 SWAP1 MSTORE POP DUP7 PUSH1 0x4 DUP1 PUSH1 0x20 MUL PUSH1 0x40 MLOAD SWAP1 DUP2 ADD PUSH1 0x40 MSTORE DUP1 SWAP3 SWAP2 SWAP1 DUP3 PUSH1 0x4 PUSH1 0x20 MUL DUP1 DUP3 DUP5 CALLDATACOPY PUSH1 0x0 DUP2 DUP5 ADD MSTORE PUSH1 0x1F NOT PUSH1 0x1F DUP3 ADD AND SWAP1 POP DUP1 DUP4 ADD SWAP3 POP POP POP POP POP POP DUP2 PUSH1 0x20 ADD DUP2 SWAP1 MSTORE POP DUP6 PUSH1 0x2 DUP1 PUSH1 0x20 MUL PUSH1 0x40 MLOAD SWAP1 DUP2 ADD PUSH1 0x40 MSTORE DUP1 SWAP3 SWAP2 SWAP1 DUP3 PUSH1 0x2 PUSH1 0x20 MUL DUP1 DUP3 DUP5 CALLDATACOPY PUSH1 0x0 DUP2 DUP5 ADD MSTORE PUSH1 0x1F NOT PUSH1 0x1F DUP3 ADD AND SWAP1 POP DUP1 DUP4 ADD SWAP3 POP POP POP POP POP POP DUP2 PUSH1 0x40 ADD DUP2 SWAP1 MSTORE POP DUP5 DUP2 PUSH1 0x60 ADD SWAP1 PUSH1 0xFF AND SWAP1 DUP2 PUSH1 0xFF AND DUP2 MSTORE POP POP DUP4 DUP2 PUSH1 0x80 ADD SWAP1 PUSH1 0xFF AND SWAP1 DUP2 PUSH1 0xFF AND DUP2 MSTORE POP POP DUP1 PUSH1 0x6 PUSH1 0x0 DUP6 PUSH20 0xFFFFFFFFFFFFFFFFFFFFFFFFFFFFFFFFFFFFFFFF AND PUSH20 0xFFFFFFFFFFFFFFFFFFFFFFFFFFFFFFFFFFFFFFFF AND DUP2 MSTORE PUSH1 0x20 ADD SWAP1 DUP2 MSTORE PUSH1 0x20 ADD PUSH1 0x0 KECCAK256 PUSH1 0x0 DUP5 PUSH2 0xFFFF AND PUSH2 0xFFFF AND DUP2 MSTORE PUSH1 0x20 ADD SWAP1 DUP2 MSTORE PUSH1 0x20 ADD PUSH1 0x0 KECCAK256 PUSH1 0x0 DUP3 ADD MLOAD DUP2 PUSH1 0x0 ADD SWAP1 PUSH1 0x8 PUSH2 0xBE0 SWAP3 SWAP2 SWAP1 PUSH2 0x292E JUMP JUMPDEST POP PUSH1 0x20 DUP3 ADD MLOAD DUP2 PUSH1 0x1 ADD SWAP1 PUSH1 0x4 PUSH2 0xBF8 SWAP3 SWAP2 SWAP1 PUSH2 0x29C8 JUMP JUMPDEST POP PUSH1 0x40 DUP3 ADD MLOAD DUP2 PUSH1 0x2 ADD SWAP1 PUSH1 0x2 PUSH2 0xC10 SWAP3 SWAP2 SWAP1 PUSH2 0x2A62 JUMP JUMPDEST POP PUSH1 0x60 DUP3 ADD MLOAD DUP2 PUSH1 0x3 ADD PUSH1 0x0 PUSH2 0x100 EXP DUP2 SLOAD DUP2 PUSH1 0xFF MUL NOT AND SWAP1 DUP4 PUSH1 0xFF AND MUL OR SWAP1 SSTORE POP PUSH1 0x80 DUP3 ADD MLOAD DUP2 PUSH1 0x3 ADD PUSH1 0x1 PUSH2 0x100 EXP DUP2 SLOAD DUP2 PUSH1 0xFF MUL NOT AND SWAP1 DUP4 PUSH1 0xFF AND MUL OR SWAP1 SSTORE POP SWAP1 POP POP DUP2 PUSH1 0x5 PUSH1 0x0 DUP6 PUSH20 0xFFFFFFFFFFFFFFFFFFFFFFFFFFFFFFFFFFFFFFFF AND PUSH20 0xFFFFFFFFFFFFFFFFFFFFFFFFFFFFFFFFFFFFFFFF AND DUP2 MSTORE PUSH1 0x20 ADD SWAP1 DUP2 MSTORE PUSH1 0x20 ADD PUSH1 0x0 KECCAK256 PUSH1 0x0 PUSH2 0x100 EXP DUP2 SLOAD DUP2 PUSH2 0xFFFF MUL NOT AND SWAP1 DUP4 PUSH2 0xFFFF AND MUL OR SWAP1 SSTORE POP POP POP POP POP POP POP POP POP JUMP JUMPDEST PUSH2 0xCC2 PUSH2 0x2AFC JUMP JUMPDEST PUSH1 0x7 PUSH1 0x0 ADD PUSH1 0x8 DUP1 PUSH1 0x20 MUL PUSH1 0x40 MLOAD SWAP1 DUP2 ADD PUSH1 0x40 MSTORE DUP1 SWAP3 SWAP2 SWAP1 DUP3 PUSH1 0x8 DUP1 ISZERO PUSH2 0xD24 JUMPI PUSH1 0x20 MUL DUP3 ADD SWAP2 PUSH1 0x0 SWAP1 JUMPDEST DUP3 DUP3 SWAP1 SLOAD SWAP1 PUSH2 0x100 EXP SWAP1 DIV PUSH1 0xFF AND PUSH1 0xFF AND DUP2 MSTORE PUSH1 0x20 ADD SWAP1 PUSH1 0x1 ADD SWAP1 PUSH1 0x20 DUP3 PUSH1 0x0 ADD DIV SWAP3 DUP4 ADD SWAP3 PUSH1 0x1 SUB DUP3 MUL SWAP2 POP DUP1 DUP5 GT PUSH2 0xCED JUMPI SWAP1 POP JUMPDEST POP POP POP POP POP SWAP1 POP SWAP1 JUMP JUMPDEST PUSH2 0xD3E PUSH2 0xD39 PUSH2 0x15F8 JUMP JUMPDEST PUSH2 0x5DD JUMP JUMPDEST PUSH2 0xD7D JUMPI PUSH1 0x40 MLOAD PUSH32 0x8C379A000000000000000000000000000000000000000000000000000000000 DUP2 MSTORE PUSH1 0x4 ADD PUSH2 0xD74 SWAP1 PUSH2 0x34C3 JUMP JUMPDEST PUSH1 0x40 MLOAD DUP1 SWAP2 SUB SWAP1 REVERT JUMPDEST PUSH2 0xD85 PUSH2 0x290B JUMP JUMPDEST PUSH1 0x0 JUMPDEST PUSH1 0x10 DUP2 PUSH1 0xFF AND LT ISZERO PUSH2 0xDF5 JUMPI DUP3 DUP2 PUSH1 0xFF AND PUSH1 0x10 DUP2 LT PUSH2 0xDAA JUMPI PUSH2 0xDA9 PUSH2 0x34E3 JUMP JUMPDEST JUMPDEST PUSH1 0x20 MUL ADD PUSH1 0x20 DUP2 ADD SWAP1 PUSH2 0xDBD SWAP2 SWAP1 PUSH2 0x3512 JUMP JUMPDEST DUP3 DUP3 PUSH1 0xFF AND PUSH1 0x10 DUP2 LT PUSH2 0xDD3 JUMPI PUSH2 0xDD2 PUSH2 0x34E3 JUMP JUMPDEST JUMPDEST PUSH1 0x20 MUL ADD SWAP1 PUSH1 0xFF AND SWAP1 DUP2 PUSH1 0xFF AND DUP2 MSTORE POP POP DUP1 PUSH2 0xDEE SWAP1 PUSH2 0x353F JUMP JUMPDEST SWAP1 POP PUSH2 0xD88 JUMP JUMPDEST POP DUP1 PUSH1 0x3 SWAP1 PUSH1 0x10 PUSH2 0xE07 SWAP3 SWAP2 SWAP1 PUSH2 0x2B1F JUMP JUMPDEST POP POP POP JUMP JUMPDEST PUSH1 0x0 DUP1 PUSH1 0x6 PUSH1 0x0 DUP6 PUSH20 0xFFFFFFFFFFFFFFFFFFFFFFFFFFFFFFFFFFFFFFFF AND PUSH20 0xFFFFFFFFFFFFFFFFFFFFFFFFFFFFFFFFFFFFFFFF AND DUP2 MSTORE PUSH1 0x20 ADD SWAP1 DUP2 MSTORE PUSH1 0x20 ADD PUSH1 0x0 KECCAK256 PUSH1 0x0 DUP5 PUSH2 0xFFFF AND PUSH2 0xFFFF AND DUP2 MSTORE PUSH1 0x20 ADD SWAP1 DUP2 MSTORE PUSH1 0x20 ADD PUSH1 0x0 KECCAK256 PUSH1 0x40 MLOAD DUP1 PUSH1 0xA0 ADD PUSH1 0x40 MSTORE SWAP1 DUP2 PUSH1 0x0 DUP3 ADD PUSH1 0x8 DUP1 PUSH1 0x20 MUL PUSH1 0x40 MLOAD SWAP1 DUP2 ADD PUSH1 0x40 MSTORE DUP1 SWAP3 SWAP2 SWAP1 DUP3 PUSH1 0x8 DUP1 ISZERO PUSH2 0xED4 JUMPI PUSH1 0x20 MUL DUP3 ADD SWAP2 PUSH1 0x0 SWAP1 JUMPDEST DUP3 DUP3 SWAP1 SLOAD SWAP1 PUSH2 0x100 EXP SWAP1 DIV PUSH1 0xFF AND PUSH1 0xFF AND DUP2 MSTORE PUSH1 0x20 ADD SWAP1 PUSH1 0x1 ADD SWAP1 PUSH1 0x20 DUP3 PUSH1 0x0 ADD DIV SWAP3 DUP4 ADD SWAP3 PUSH1 0x1 SUB DUP3 MUL SWAP2 POP DUP1 DUP5 GT PUSH2 0xE9D JUMPI SWAP1 POP JUMPDEST POP POP POP POP POP DUP2 MSTORE PUSH1 0x20 ADD PUSH1 0x1 DUP3 ADD PUSH1 0x4 DUP1 PUSH1 0x20 MUL PUSH1 0x40 MLOAD SWAP1 DUP2 ADD PUSH1 0x40 MSTORE DUP1 SWAP3 SWAP2 SWAP1 DUP3 PUSH1 0x4 DUP1 ISZERO PUSH2 0xF3F JUMPI PUSH1 0x20 MUL DUP3 ADD SWAP2 PUSH1 0x0 SWAP1 JUMPDEST DUP3 DUP3 SWAP1 SLOAD SWAP1 PUSH2 0x100 EXP SWAP1 DIV PUSH1 0xFF AND PUSH1 0xFF AND DUP2 MSTORE PUSH1 0x20 ADD SWAP1 PUSH1 0x1 ADD SWAP1 PUSH1 0x20 DUP3 PUSH1 0x0 ADD DIV SWAP3 DUP4 ADD SWAP3 PUSH1 0x1 SUB DUP3 MUL SWAP2 POP DUP1 DUP5 GT PUSH2 0xF08 JUMPI SWAP1 POP JUMPDEST POP POP POP POP POP DUP2 MSTORE PUSH1 0x20 ADD PUSH1 0x2 DUP3 ADD PUSH1 0x2 DUP1 PUSH1 0x20 MUL PUSH1 0x40 MLOAD SWAP1 DUP2 ADD PUSH1 0x40 MSTORE DUP1 SWAP3 SWAP2 SWAP1 DUP3 PUSH1 0x2 DUP1 ISZERO PUSH2 0xFAA JUMPI PUSH1 0x20 MUL DUP3 ADD SWAP2 PUSH1 0x0 SWAP1 JUMPDEST DUP3 DUP3 SWAP1 SLOAD SWAP1 PUSH2 0x100 EXP SWAP1 DIV PUSH1 0xFF AND PUSH1 0xFF AND DUP2 MSTORE PUSH1 0x20 ADD SWAP1 PUSH1 0x1 ADD SWAP1 PUSH1 0x20 DUP3 PUSH1 0x0 ADD DIV SWAP3 DUP4 ADD SWAP3 PUSH1 0x1 SUB DUP3 MUL SWAP2 POP DUP1 DUP5 GT PUSH2 0xF73 JUMPI SWAP1 POP JUMPDEST POP POP POP POP POP DUP2 MSTORE PUSH1 0x20 ADD PUSH1 0x3 DUP3 ADD PUSH1 0x0 SWAP1 SLOAD SWAP1 PUSH2 0x100 EXP SWAP1 DIV PUSH1 0xFF AND PUSH1 0xFF AND PUSH1 0xFF AND DUP2 MSTORE PUSH1 0x20 ADD PUSH1 0x3 DUP3 ADD PUSH1 0x1 SWAP1 SLOAD SWAP1 PUSH2 0x100 EXP SWAP1 DIV PUSH1 0xFF AND PUSH1 0xFF AND PUSH1 0xFF AND DUP2 MSTORE POP POP SWAP1 POP PUSH2 0xFFC DUP2 PUSH1 0x80 ADD MLOAD PUSH2 0x16C6 JUMP JUMPDEST PUSH2 0x1009 DUP3 PUSH1 0x60 ADD MLOAD PUSH2 0x16EF JUMP JUMPDEST PUSH2 0x1016 DUP4 PUSH1 0x40 ADD MLOAD PUSH2 0x1718 JUMP JUMPDEST PUSH2 0x1023 DUP5 PUSH1 0x20 ADD MLOAD PUSH2 0x17C3 JUMP JUMPDEST PUSH2 0x1030 DUP6 PUSH1 0x0 ADD MLOAD PUSH2 0x186E JUMP JUMPDEST PUSH2 0x103A SWAP2 SWAP1 PUSH2 0x3419 JUMP JUMPDEST PUSH2 0x1044 SWAP2 SWAP1 PUSH2 0x3419 JUMP JUMPDEST PUSH2 0x104E SWAP2 SWAP1 PUSH2 0x3419 JUMP JUMPDEST PUSH2 0x1058 SWAP2 SWAP1 PUSH2 0x3419 JUMP JUMPDEST PUSH2 0xFFFF AND SWAP2 POP POP SWAP3 SWAP2 POP POP JUMP JUMPDEST PUSH1 0x6 PUSH1 0x20 MSTORE DUP2 PUSH1 0x0 MSTORE PUSH1 0x40 PUSH1 0x0 KECCAK256 PUSH1 0x20 MSTORE DUP1 PUSH1 0x0 MSTORE PUSH1 0x40 PUSH1 0x0 KECCAK256 PUSH1 0x0 SWAP2 POP SWAP2 POP POP DUP1 PUSH1 0x3 ADD PUSH1 0x0 SWAP1 SLOAD SWAP1 PUSH2 0x100 EXP SWAP1 DIV PUSH1 0xFF AND SWAP1 DUP1 PUSH1 0x3 ADD PUSH1 0x1 SWAP1 SLOAD SWAP1 PUSH2 0x100 EXP SWAP1 DIV PUSH1 0xFF AND SWAP1 POP DUP3 JUMP JUMPDEST PUSH1 0x4 SLOAD DUP2 JUMP JUMPDEST POP JUMP JUMPDEST PUSH1 0x0 PUSH1 0x7 PUSH1 0x3 ADD PUSH1 0x1 SWAP1 SLOAD SWAP1 PUSH2 0x100 EXP SWAP1 DIV PUSH1 0xFF AND SWAP1 POP SWAP1 JUMP JUMPDEST PUSH1 0x3 DUP2 PUSH1 0x10 DUP2 LT PUSH2 0x10E3 JUMPI PUSH1 0x0 DUP1 REVERT JUMPDEST PUSH1 0x20 SWAP2 DUP3 DUP3 DIV ADD SWAP2 SWAP1 MOD SWAP2 POP SLOAD SWAP1 PUSH2 0x100 EXP SWAP1 DIV PUSH1 0xFF AND DUP2 JUMP JUMPDEST PUSH2 0x1105 PUSH2 0x2BB9 JUMP JUMPDEST PUSH1 0x7 PUSH1 0x2 ADD PUSH1 0x2 DUP1 PUSH1 0x20 MUL PUSH1 0x40 MLOAD SWAP1 DUP2 ADD PUSH1 0x40 MSTORE DUP1 SWAP3 SWAP2 SWAP1 DUP3 PUSH1 0x2 DUP1 ISZERO PUSH2 0x1167 JUMPI PUSH1 0x20 MUL DUP3 ADD SWAP2 PUSH1 0x0 SWAP1 JUMPDEST DUP3 DUP3 SWAP1 SLOAD SWAP1 PUSH2 0x100 EXP SWAP1 DIV PUSH1 0xFF AND PUSH1 0xFF AND DUP2 MSTORE PUSH1 0x20 ADD SWAP1 PUSH1 0x1 ADD SWAP1 PUSH1 0x20 DUP3 PUSH1 0x0 ADD DIV SWAP3 DUP4 ADD SWAP3 PUSH1 0x1 SUB DUP3 MUL SWAP2 POP DUP1 DUP5 GT PUSH2 0x1130 JUMPI SWAP1 POP JUMPDEST POP POP POP POP POP SWAP1 POP SWAP1 JUMP JUMPDEST PUSH2 0x1179 PUSH2 0x15F8 JUMP JUMPDEST PUSH20 0xFFFFFFFFFFFFFFFFFFFFFFFFFFFFFFFFFFFFFFFF AND PUSH2 0x1197 PUSH2 0x81A JUMP JUMPDEST PUSH20 0xFFFFFFFFFFFFFFFFFFFFFFFFFFFFFFFFFFFFFFFF AND EQ PUSH2 0x11ED JUMPI PUSH1 0x40 MLOAD PUSH32 0x8C379A000000000000000000000000000000000000000000000000000000000 DUP2 MSTORE PUSH1 0x4 ADD PUSH2 0x11E4 SWAP1 PUSH2 0x33A1 JUMP JUMPDEST PUSH1 0x40 MLOAD DUP1 SWAP2 SUB SWAP1 REVERT JUMPDEST PUSH1 0x0 PUSH20 0xFFFFFFFFFFFFFFFFFFFFFFFFFFFFFFFFFFFFFFFF AND DUP2 PUSH20 0xFFFFFFFFFFFFFFFFFFFFFFFFFFFFFFFFFFFFFFFF AND SUB PUSH2 0x125C JUMPI PUSH1 0x40 MLOAD PUSH32 0x8C379A000000000000000000000000000000000000000000000000000000000 DUP2 MSTORE PUSH1 0x4 ADD PUSH2 0x1253 SWAP1 PUSH2 0x35DA JUMP JUMPDEST PUSH1 0x40 MLOAD DUP1 SWAP2 SUB SWAP1 REVERT JUMPDEST PUSH2 0x1265 DUP2 PUSH2 0x1600 JUMP JUMPDEST POP JUMP JUMPDEST PUSH2 0x1278 PUSH2 0x1273 PUSH2 0x15F8 JUMP JUMPDEST PUSH2 0x5DD JUMP JUMPDEST PUSH2 0x12B7 JUMPI PUSH1 0x40 MLOAD PUSH32 0x8C379A000000000000000000000000000000000000000000000000000000000 DUP2 MSTORE PUSH1 0x4 ADD PUSH2 0x12AE SWAP1 PUSH2 0x34C3 JUMP JUMPDEST PUSH1 0x40 MLOAD DUP1 SWAP2 SUB SWAP1 REVERT JUMPDEST PUSH1 0x0 PUSH1 0x7 PUSH1 0x40 MLOAD DUP1 PUSH1 0xA0 ADD PUSH1 0x40 MSTORE SWAP1 DUP2 PUSH1 0x0 DUP3 ADD PUSH1 0x8 DUP1 PUSH1 0x20 MUL PUSH1 0x40 MLOAD SWAP1 DUP2 ADD PUSH1 0x40 MSTORE DUP1 SWAP3 SWAP2 SWAP1 DUP3 PUSH1 0x8 DUP1 ISZERO PUSH2 0x1328 JUMPI PUSH1 0x20 MUL DUP3 ADD SWAP2 PUSH1 0x0 SWAP1 JUMPDEST DUP3 DUP3 SWAP1 SLOAD SWAP1 PUSH2 0x100 EXP SWAP1 DIV PUSH1 0xFF AND PUSH1 0xFF AND DUP2 MSTORE PUSH1 0x20 ADD SWAP1 PUSH1 0x1 ADD SWAP1 PUSH1 0x20 DUP3 PUSH1 0x0 ADD DIV SWAP3 DUP4 ADD SWAP3 PUSH1 0x1 SUB DUP3 MUL SWAP2 POP DUP1 DUP5 GT PUSH2 0x12F1 JUMPI SWAP1 POP JUMPDEST POP POP POP POP POP DUP2 MSTORE PUSH1 0x20 ADD PUSH1 0x1 DUP3 ADD PUSH1 0x4 DUP1 PUSH1 0x20 MUL PUSH1 0x40 MLOAD SWAP1 DUP2 ADD PUSH1 0x40 MSTORE DUP1 SWAP3 SWAP2 SWAP1 DUP3 PUSH1 0x4 DUP1 ISZERO PUSH2 0x1393 JUMPI PUSH1 0x20 MUL DUP3 ADD SWAP2 PUSH1 0x0 SWAP1 JUMPDEST DUP3 DUP3 SWAP1 SLOAD SWAP1 PUSH2 0x100 EXP SWAP1 DIV PUSH1 0xFF AND PUSH1 0xFF AND DUP2 MSTORE PUSH1 0x20 ADD SWAP1 PUSH1 0x1 ADD SWAP1 PUSH1 0x20 DUP3 PUSH1 0x0 ADD DIV SWAP3 DUP4 ADD SWAP3 PUSH1 0x1 SUB DUP3 MUL SWAP2 POP DUP1 DUP5 GT PUSH2 0x135C JUMPI SWAP1 POP JUMPDEST POP POP POP POP POP DUP2 MSTORE PUSH1 0x20 ADD PUSH1 0x2 DUP3 ADD PUSH1 0x2 DUP1 PUSH1 0x20 MUL PUSH1 0x40 MLOAD SWAP1 DUP2 ADD PUSH1 0x40 MSTORE DUP1 SWAP3 SWAP2 SWAP1 DUP3 PUSH1 0x2 DUP1 ISZERO PUSH2 0x13FE JUMPI PUSH1 0x20 MUL DUP3 ADD SWAP2 PUSH1 0x0 SWAP1 JUMPDEST DUP3 DUP3 SWAP1 SLOAD SWAP1 PUSH2 0x100 EXP SWAP1 DIV PUSH1 0xFF AND PUSH1 0xFF AND DUP2 MSTORE PUSH1 0x20 ADD SWAP1 PUSH1 0x1 ADD SWAP1 PUSH1 0x20 DUP3 PUSH1 0x0 ADD DIV SWAP3 DUP4 ADD SWAP3 PUSH1 0x1 SUB DUP3 MUL SWAP2 POP DUP1 DUP5 GT PUSH2 0x13C7 JUMPI SWAP1 POP JUMPDEST POP POP POP POP POP DUP2 MSTORE PUSH1 0x20 ADD PUSH1 0x3 DUP3 ADD PUSH1 0x0 SWAP1 SLOAD SWAP1 PUSH2 0x100 EXP SWAP1 DIV PUSH1 0xFF AND PUSH1 0xFF AND PUSH1 0xFF AND DUP2 MSTORE PUSH1 0x20 ADD PUSH1 0x3 DUP3 ADD PUSH1 0x1 SWAP1 SLOAD SWAP1 PUSH2 0x100 EXP SWAP1 DIV PUSH1 0xFF AND PUSH1 0xFF AND PUSH1 0xFF AND DUP2 MSTORE POP POP SWAP1 POP PUSH2 0x144C DUP7 PUSH2 0x1919 JUMP JUMPDEST PUSH2 0x1456 DUP7 DUP7 PUSH2 0x20DB JUMP JUMPDEST PUSH2 0x1460 DUP6 DUP6 PUSH2 0x249F JUMP JUMPDEST PUSH2 0x146A DUP5 DUP5 PUSH2 0x2683 JUMP JUMPDEST PUSH2 0x1475 DUP6 DUP6 DUP5 PUSH2 0x272B JUMP JUMPDEST DUP6 PUSH1 0x8 DUP1 PUSH1 0x20 MUL PUSH1 0x40 MLOAD SWAP1 DUP2 ADD PUSH1 0x40 MSTORE DUP1 SWAP3 SWAP2 SWAP1 DUP3 PUSH1 0x8 PUSH1 0x20 MUL DUP1 DUP3 DUP5 CALLDATACOPY PUSH1 0x0 DUP2 DUP5 ADD MSTORE PUSH1 0x1F NOT PUSH1 0x1F DUP3 ADD AND SWAP1 POP DUP1 DUP4 ADD SWAP3 POP POP POP POP POP POP DUP2 PUSH1 0x0 ADD DUP2 SWAP1 MSTORE POP DUP5 PUSH1 0x4 DUP1 PUSH1 0x20 MUL PUSH1 0x40 MLOAD SWAP1 DUP2 ADD PUSH1 0x40 MSTORE DUP1 SWAP3 SWAP2 SWAP1 DUP3 PUSH1 0x4 PUSH1 0x20 MUL DUP1 DUP3 DUP5 CALLDATACOPY PUSH1 0x0 DUP2 DUP5 ADD MSTORE PUSH1 0x1F NOT PUSH1 0x1F DUP3 ADD AND SWAP1 POP DUP1 DUP4 ADD SWAP3 POP POP POP POP POP POP DUP2 PUSH1 0x20 ADD DUP2 SWAP1 MSTORE POP DUP4 PUSH1 0x2 DUP1 PUSH1 0x20 MUL PUSH1 0x40 MLOAD SWAP1 DUP2 ADD PUSH1 0x40 MSTORE DUP1 SWAP3 SWAP2 SWAP1 DUP3 PUSH1 0x2 PUSH1 0x20 MUL DUP1 DUP3 DUP5 CALLDATACOPY PUSH1 0x0 DUP2 DUP5 ADD MSTORE PUSH1 0x1F NOT PUSH1 0x1F DUP3 ADD AND SWAP1 POP DUP1 DUP4 ADD SWAP3 POP POP POP POP POP POP DUP2 PUSH1 0x40 ADD DUP2 SWAP1 MSTORE POP DUP3 DUP2 PUSH1 0x60 ADD SWAP1 PUSH1 0xFF AND SWAP1 DUP2 PUSH1 0xFF AND DUP2 MSTORE POP POP DUP2 DUP2 PUSH1 0x80 ADD SWAP1 PUSH1 0xFF AND SWAP1 DUP2 PUSH1 0xFF AND DUP2 MSTORE POP POP DUP1 PUSH1 0x7 PUSH1 0x0 DUP3 ADD MLOAD DUP2 PUSH1 0x0 ADD SWAP1 PUSH1 0x8 PUSH2 0x1573 SWAP3 SWAP2 SWAP1 PUSH2 0x292E JUMP JUMPDEST POP PUSH1 0x20 DUP3 ADD MLOAD DUP2 PUSH1 0x1 ADD SWAP1 PUSH1 0x4 PUSH2 0x158B SWAP3 SWAP2 SWAP1 PUSH2 0x29C8 JUMP JUMPDEST POP PUSH1 0x40 DUP3 ADD MLOAD DUP2 PUSH1 0x2 ADD SWAP1 PUSH1 0x2 PUSH2 0x15A3 SWAP3 SWAP2 SWAP1 PUSH2 0x2A62 JUMP JUMPDEST POP PUSH1 0x60 DUP3 ADD MLOAD DUP2 PUSH1 0x3 ADD PUSH1 0x0 PUSH2 0x100 EXP DUP2 SLOAD DUP2 PUSH1 0xFF MUL NOT AND SWAP1 DUP4 PUSH1 0xFF AND MUL OR SWAP1 SSTORE POP PUSH1 0x80 DUP3 ADD MLOAD DUP2 PUSH1 0x3 ADD PUSH1 0x1 PUSH2 0x100 EXP DUP2 SLOAD DUP2 PUSH1 0xFF MUL NOT AND SWAP1 DUP4 PUSH1 0xFF AND MUL OR SWAP1 SSTORE POP SWAP1 POP POP TIMESTAMP PUSH1 0x4 DUP2 SWAP1 SSTORE POP POP POP POP POP POP POP JUMP JUMPDEST PUSH1 0x0 CALLER SWAP1 POP SWAP1 JUMP JUMPDEST PUSH1 0x0 PUSH1 0x1 PUSH1 0x0 SWAP1 SLOAD SWAP1 PUSH2 0x100 EXP SWAP1 DIV PUSH20 0xFFFFFFFFFFFFFFFFFFFFFFFFFFFFFFFFFFFFFFFF AND SWAP1 POP DUP2 PUSH1 0x1 PUSH1 0x0 PUSH2 0x100 EXP DUP2 SLOAD DUP2 PUSH20 0xFFFFFFFFFFFFFFFFFFFFFFFFFFFFFFFFFFFFFFFF MUL NOT AND SWAP1 DUP4 PUSH20 0xFFFFFFFFFFFFFFFFFFFFFFFFFFFFFFFFFFFFFFFF AND MUL OR SWAP1 SSTORE POP DUP2 PUSH20 0xFFFFFFFFFFFFFFFFFFFFFFFFFFFFFFFFFFFFFFFF AND DUP2 PUSH20 0xFFFFFFFFFFFFFFFFFFFFFFFFFFFFFFFFFFFFFFFF AND PUSH32 0x8BE0079C531659141344CD1FD0A4F28419497F9722A3DAAFE3B4186F6B6457E0 PUSH1 0x40 MLOAD PUSH1 0x40 MLOAD DUP1 SWAP2 SUB SWAP1 LOG3 POP POP JUMP JUMPDEST PUSH1 0x0 PUSH2 0x16D0 PUSH2 0x10B9 JUMP JUMPDEST PUSH1 0xFF AND DUP3 PUSH1 0xFF AND SUB PUSH2 0x16E5 JUMPI PUSH1 0x1 SWAP1 POP PUSH2 0x16EA JUMP JUMPDEST PUSH1 0x0 SWAP1 POP JUMPDEST SWAP2 SWAP1 POP JUMP JUMPDEST PUSH1 0x0 PUSH2 0x16F9 PUSH2 0x452 JUMP JUMPDEST PUSH1 0xFF AND DUP3 PUSH1 0xFF AND SUB PUSH2 0x170E JUMPI PUSH1 0x1 SWAP1 POP PUSH2 0x1713 JUMP JUMPDEST PUSH1 0x0 SWAP1 POP JUMPDEST SWAP2 SWAP1 POP JUMP JUMPDEST PUSH1 0x0 DUP1 PUSH1 0x0 PUSH2 0x1725 PUSH2 0x10FD JUMP JUMPDEST SWAP1 POP PUSH1 0x0 JUMPDEST PUSH1 0x2 DUP2 PUSH1 0xFF AND LT ISZERO PUSH2 0x17B8 JUMPI PUSH1 0x0 JUMPDEST PUSH1 0x2 DUP2 PUSH1 0xFF AND LT ISZERO PUSH2 0x17A6 JUMPI DUP3 DUP2 PUSH1 0xFF AND PUSH1 0x2 DUP2 LT PUSH2 0x175B JUMPI PUSH2 0x175A PUSH2 0x34E3 JUMP JUMPDEST JUMPDEST PUSH1 0x20 MUL ADD MLOAD PUSH1 0xFF AND DUP7 DUP4 PUSH1 0xFF AND PUSH1 0x2 DUP2 LT PUSH2 0x1779 JUMPI PUSH2 0x1778 PUSH2 0x34E3 JUMP JUMPDEST JUMPDEST PUSH1 0x20 MUL ADD MLOAD PUSH1 0xFF AND SUB PUSH2 0x1795 JUMPI DUP4 DUP1 PUSH2 0x1791 SWAP1 PUSH2 0x35FA JUMP JUMPDEST SWAP5 POP POP JUMPDEST DUP1 PUSH2 0x179F SWAP1 PUSH2 0x353F JUMP JUMPDEST SWAP1 POP PUSH2 0x1739 JUMP JUMPDEST POP DUP1 PUSH2 0x17B1 SWAP1 PUSH2 0x353F JUMP JUMPDEST SWAP1 POP PUSH2 0x172A JUMP JUMPDEST POP DUP2 SWAP3 POP POP POP SWAP2 SWAP1 POP JUMP JUMPDEST PUSH1 0x0 DUP1 PUSH1 0x0 PUSH2 0x17D0 PUSH2 0x653 JUMP JUMPDEST SWAP1 POP PUSH1 0x0 JUMPDEST PUSH1 0x4 DUP2 PUSH1 0xFF AND LT ISZERO PUSH2 0x1863 JUMPI PUSH1 0x0 JUMPDEST PUSH1 0x4 DUP2 PUSH1 0xFF AND LT ISZERO PUSH2 0x1851 JUMPI DUP3 DUP2 PUSH1 0xFF AND PUSH1 0x4 DUP2 LT PUSH2 0x1806 JUMPI PUSH2 0x1805 PUSH2 0x34E3 JUMP JUMPDEST JUMPDEST PUSH1 0x20 MUL ADD MLOAD PUSH1 0xFF AND DUP7 DUP4 PUSH1 0xFF AND PUSH1 0x4 DUP2 LT PUSH2 0x1824 JUMPI PUSH2 0x1823 PUSH2 0x34E3 JUMP JUMPDEST JUMPDEST PUSH1 0x20 MUL ADD MLOAD PUSH1 0xFF AND SUB PUSH2 0x1840 JUMPI DUP4 DUP1 PUSH2 0x183C SWAP1 PUSH2 0x35FA JUMP JUMPDEST SWAP5 POP POP JUMPDEST DUP1 PUSH2 0x184A SWAP1 PUSH2 0x353F JUMP JUMPDEST SWAP1 POP PUSH2 0x17E4 JUMP JUMPDEST POP DUP1 PUSH2 0x185C SWAP1 PUSH2 0x353F JUMP JUMPDEST SWAP1 POP PUSH2 0x17D5 JUMP JUMPDEST POP DUP2 SWAP3 POP POP POP SWAP2 SWAP1 POP JUMP JUMPDEST PUSH1 0x0 DUP1 PUSH1 0x0 PUSH2 0x187B PUSH2 0xCBA JUMP JUMPDEST SWAP1 POP PUSH1 0x0 JUMPDEST PUSH1 0x8 DUP2 PUSH1 0xFF AND LT ISZERO PUSH2 0x190E JUMPI PUSH1 0x0 JUMPDEST PUSH1 0x8 DUP2 PUSH1 0xFF AND LT ISZERO PUSH2 0x18FC JUMPI DUP3 DUP2 PUSH1 0xFF AND PUSH1 0x8 DUP2 LT PUSH2 0x18B1 JUMPI PUSH2 0x18B0 PUSH2 0x34E3 JUMP JUMPDEST JUMPDEST PUSH1 0x20 MUL ADD MLOAD PUSH1 0xFF AND DUP7 DUP4 PUSH1 0xFF AND PUSH1 0x8 DUP2 LT PUSH2 0x18CF JUMPI PUSH2 0x18CE PUSH2 0x34E3 JUMP JUMPDEST JUMPDEST PUSH1 0x20 MUL ADD MLOAD PUSH1 0xFF AND SUB PUSH2 0x18EB JUMPI DUP4 DUP1 PUSH2 0x18E7 SWAP1 PUSH2 0x35FA JUMP JUMPDEST SWAP5 POP POP JUMPDEST DUP1 PUSH2 0x18F5 SWAP1 PUSH2 0x353F JUMP JUMPDEST SWAP1 POP PUSH2 0x188F JUMP JUMPDEST POP DUP1 PUSH2 0x1907 SWAP1 PUSH2 0x353F JUMP JUMPDEST SWAP1 POP PUSH2 0x1880 JUMP JUMPDEST POP DUP2 SWAP3 POP POP POP SWAP2 SWAP1 POP JUMP JUMPDEST PUSH1 0x3 PUSH1 0x0 PUSH1 0x10 DUP2 LT PUSH2 0x192E JUMPI PUSH2 0x192D PUSH2 0x34E3 JUMP JUMPDEST JUMPDEST PUSH1 0x20 SWAP2 DUP3 DUP3 DIV ADD SWAP2 SWAP1 MOD SWAP1 SLOAD SWAP1 PUSH2 0x100 EXP SWAP1 DIV PUSH1 0xFF AND PUSH1 0xFF AND DUP2 PUSH1 0x0 PUSH1 0x8 DUP2 LT PUSH2 0x195B JUMPI PUSH2 0x195A PUSH2 0x34E3 JUMP JUMPDEST JUMPDEST PUSH1 0x20 MUL ADD PUSH1 0x20 DUP2 ADD SWAP1 PUSH2 0x196E SWAP2 SWAP1 PUSH2 0x3512 JUMP JUMPDEST PUSH1 0xFF AND EQ DUP1 PUSH2 0x19D2 JUMPI POP PUSH1 0x3 PUSH1 0x1 PUSH1 0x10 DUP2 LT PUSH2 0x198D JUMPI PUSH2 0x198C PUSH2 0x34E3 JUMP JUMPDEST JUMPDEST PUSH1 0x20 SWAP2 DUP3 DUP3 DIV ADD SWAP2 SWAP1 MOD SWAP1 SLOAD SWAP1 PUSH2 0x100 EXP SWAP1 DIV PUSH1 0xFF AND PUSH1 0xFF AND DUP2 PUSH1 0x0 PUSH1 0x8 DUP2 LT PUSH2 0x19BA JUMPI PUSH2 0x19B9 PUSH2 0x34E3 JUMP JUMPDEST JUMPDEST PUSH1 0x20 MUL ADD PUSH1 0x20 DUP2 ADD SWAP1 PUSH2 0x19CD SWAP2 SWAP1 PUSH2 0x3512 JUMP JUMPDEST PUSH1 0xFF AND EQ JUMPDEST PUSH2 0x1A11 JUMPI PUSH1 0x40 MLOAD PUSH32 0x8C379A000000000000000000000000000000000000000000000000000000000 DUP2 MSTORE PUSH1 0x4 ADD PUSH2 0x1A08 SWAP1 PUSH2 0x3670 JUMP JUMPDEST PUSH1 0x40 MLOAD DUP1 SWAP2 SUB SWAP1 REVERT JUMPDEST PUSH1 0x3 PUSH1 0x2 PUSH1 0x10 DUP2 LT PUSH2 0x1A26 JUMPI PUSH2 0x1A25 PUSH2 0x34E3 JUMP JUMPDEST JUMPDEST PUSH1 0x20 SWAP2 DUP3 DUP3 DIV ADD SWAP2 SWAP1 MOD SWAP1 SLOAD SWAP1 PUSH2 0x100 EXP SWAP1 DIV PUSH1 0xFF AND PUSH1 0xFF AND DUP2 PUSH1 0x1 PUSH1 0x8 DUP2 LT PUSH2 0x1A53 JUMPI PUSH2 0x1A52 PUSH2 0x34E3 JUMP JUMPDEST JUMPDEST PUSH1 0x20 MUL ADD PUSH1 0x20 DUP2 ADD SWAP1 PUSH2 0x1A66 SWAP2 SWAP1 PUSH2 0x3512 JUMP JUMPDEST PUSH1 0xFF AND EQ DUP1 PUSH2 0x1AC9 JUMPI POP PUSH1 0x3 DUP1 PUSH1 0x10 DUP2 LT PUSH2 0x1A84 JUMPI PUSH2 0x1A83 PUSH2 0x34E3 JUMP JUMPDEST JUMPDEST PUSH1 0x20 SWAP2 DUP3 DUP3 DIV ADD SWAP2 SWAP1 MOD SWAP1 SLOAD SWAP1 PUSH2 0x100 EXP SWAP1 DIV PUSH1 0xFF AND PUSH1 0xFF AND DUP2 PUSH1 0x1 PUSH1 0x8 DUP2 LT PUSH2 0x1AB1 JUMPI PUSH2 0x1AB0 PUSH2 0x34E3 JUMP JUMPDEST JUMPDEST PUSH1 0x20 MUL ADD PUSH1 0x20 DUP2 ADD SWAP1 PUSH2 0x1AC4 SWAP2 SWAP1 PUSH2 0x3512 JUMP JUMPDEST PUSH1 0xFF AND EQ JUMPDEST PUSH2 0x1B08 JUMPI PUSH1 0x40 MLOAD PUSH32 0x8C379A000000000000000000000000000000000000000000000000000000000 DUP2 MSTORE PUSH1 0x4 ADD PUSH2 0x1AFF SWAP1 PUSH2 0x3670 JUMP JUMPDEST PUSH1 0x40 MLOAD DUP1 SWAP2 SUB SWAP1 REVERT JUMPDEST PUSH1 0x3 PUSH1 0x4 PUSH1 0x10 DUP2 LT PUSH2 0x1B1D JUMPI PUSH2 0x1B1C PUSH2 0x34E3 JUMP JUMPDEST JUMPDEST PUSH1 0x20 SWAP2 DUP3 DUP3 DIV ADD SWAP2 SWAP1 MOD SWAP1 SLOAD SWAP1 PUSH2 0x100 EXP SWAP1 DIV PUSH1 0xFF AND PUSH1 0xFF AND DUP2 PUSH1 0x2 PUSH1 0x8 DUP2 LT PUSH2 0x1B4A JUMPI PUSH2 0x1B49 PUSH2 0x34E3 JUMP JUMPDEST JUMPDEST PUSH1 0x20 MUL ADD PUSH1 0x20 DUP2 ADD SWAP1 PUSH2 0x1B5D SWAP2 SWAP1 PUSH2 0x3512 JUMP JUMPDEST PUSH1 0xFF AND EQ DUP1 PUSH2 0x1BC1 JUMPI POP PUSH1 0x3 PUSH1 0x5 PUSH1 0x10 DUP2 LT PUSH2 0x1B7C JUMPI PUSH2 0x1B7B PUSH2 0x34E3 JUMP JUMPDEST JUMPDEST PUSH1 0x20 SWAP2 DUP3 DUP3 DIV ADD SWAP2 SWAP1 MOD SWAP1 SLOAD SWAP1 PUSH2 0x100 EXP SWAP1 DIV PUSH1 0xFF AND PUSH1 0xFF AND DUP2 PUSH1 0x2 PUSH1 0x8 DUP2 LT PUSH2 0x1BA9 JUMPI PUSH2 0x1BA8 PUSH2 0x34E3 JUMP JUMPDEST JUMPDEST PUSH1 0x20 MUL ADD PUSH1 0x20 DUP2 ADD SWAP1 PUSH2 0x1BBC SWAP2 SWAP1 PUSH2 0x3512 JUMP JUMPDEST PUSH1 0xFF AND EQ JUMPDEST PUSH2 0x1C00 JUMPI PUSH1 0x40 MLOAD PUSH32 0x8C379A000000000000000000000000000000000000000000000000000000000 DUP2 MSTORE PUSH1 0x4 ADD PUSH2 0x1BF7 SWAP1 PUSH2 0x3670 JUMP JUMPDEST PUSH1 0x40 MLOAD DUP1 SWAP2 SUB SWAP1 REVERT JUMPDEST PUSH1 0x3 PUSH1 0x6 PUSH1 0x10 DUP2 LT PUSH2 0x1C15 JUMPI PUSH2 0x1C14 PUSH2 0x34E3 JUMP JUMPDEST JUMPDEST PUSH1 0x20 SWAP2 DUP3 DUP3 DIV ADD SWAP2 SWAP1 MOD SWAP1 SLOAD SWAP1 PUSH2 0x100 EXP SWAP1 DIV PUSH1 0xFF AND PUSH1 0xFF AND DUP2 PUSH1 0x3 PUSH1 0x8 DUP2 LT PUSH2 0x1C42 JUMPI PUSH2 0x1C41 PUSH2 0x34E3 JUMP JUMPDEST JUMPDEST PUSH1 0x20 MUL ADD PUSH1 0x20 DUP2 ADD SWAP1 PUSH2 0x1C55 SWAP2 SWAP1 PUSH2 0x3512 JUMP JUMPDEST PUSH1 0xFF AND EQ DUP1 PUSH2 0x1CB9 JUMPI POP PUSH1 0x3 PUSH1 0x7 PUSH1 0x10 DUP2 LT PUSH2 0x1C74 JUMPI PUSH2 0x1C73 PUSH2 0x34E3 JUMP JUMPDEST JUMPDEST PUSH1 0x20 SWAP2 DUP3 DUP3 DIV ADD SWAP2 SWAP1 MOD SWAP1 SLOAD SWAP1 PUSH2 0x100 EXP SWAP1 DIV PUSH1 0xFF AND PUSH1 0xFF AND DUP2 PUSH1 0x3 PUSH1 0x8 DUP2 LT PUSH2 0x1CA1 JUMPI PUSH2 0x1CA0 PUSH2 0x34E3 JUMP JUMPDEST JUMPDEST PUSH1 0x20 MUL ADD PUSH1 0x20 DUP2 ADD SWAP1 PUSH2 0x1CB4 SWAP2 SWAP1 PUSH2 0x3512 JUMP JUMPDEST PUSH1 0xFF AND EQ JUMPDEST PUSH2 0x1CF8 JUMPI PUSH1 0x40 MLOAD PUSH32 0x8C379A000000000000000000000000000000000000000000000000000000000 DUP2 MSTORE PUSH1 0x4 ADD PUSH2 0x1CEF SWAP1 PUSH2 0x3670 JUMP JUMPDEST PUSH1 0x40 MLOAD DUP1 SWAP2 SUB SWAP1 REVERT JUMPDEST PUSH1 0x3 PUSH1 0x8 PUSH1 0x10 DUP2 LT PUSH2 0x1D0D JUMPI PUSH2 0x1D0C PUSH2 0x34E3 JUMP JUMPDEST JUMPDEST PUSH1 0x20 SWAP2 DUP3 DUP3 DIV ADD SWAP2 SWAP1 MOD SWAP1 SLOAD SWAP1 PUSH2 0x100 EXP SWAP1 DIV PUSH1 0xFF AND PUSH1 0xFF AND DUP2 PUSH1 0x4 PUSH1 0x8 DUP2 LT PUSH2 0x1D3A JUMPI PUSH2 0x1D39 PUSH2 0x34E3 JUMP JUMPDEST JUMPDEST PUSH1 0x20 MUL ADD PUSH1 0x20 DUP2 ADD SWAP1 PUSH2 0x1D4D SWAP2 SWAP1 PUSH2 0x3512 JUMP JUMPDEST PUSH1 0xFF AND EQ DUP1 PUSH2 0x1DB1 JUMPI POP PUSH1 0x3 PUSH1 0x9 PUSH1 0x10 DUP2 LT PUSH2 0x1D6C JUMPI PUSH2 0x1D6B PUSH2 0x34E3 JUMP JUMPDEST JUMPDEST PUSH1 0x20 SWAP2 DUP3 DUP3 DIV ADD SWAP2 SWAP1 MOD SWAP1 SLOAD SWAP1 PUSH2 0x100 EXP SWAP1 DIV PUSH1 0xFF AND PUSH1 0xFF AND DUP2 PUSH1 0x4 PUSH1 0x8 DUP2 LT PUSH2 0x1D99 JUMPI PUSH2 0x1D98 PUSH2 0x34E3 JUMP JUMPDEST JUMPDEST PUSH1 0x20 MUL ADD PUSH1 0x20 DUP2 ADD SWAP1 PUSH2 0x1DAC SWAP2 SWAP1 PUSH2 0x3512 JUMP JUMPDEST PUSH1 0xFF AND EQ JUMPDEST PUSH2 0x1DF0 JUMPI PUSH1 0x40 MLOAD PUSH32 0x8C379A000000000000000000000000000000000000000000000000000000000 DUP2 MSTORE PUSH1 0x4 ADD PUSH2 0x1DE7 SWAP1 PUSH2 0x3670 JUMP JUMPDEST PUSH1 0x40 MLOAD DUP1 SWAP2 SUB SWAP1 REVERT JUMPDEST PUSH1 0x3 PUSH1 0xA PUSH1 0x10 DUP2 LT PUSH2 0x1E05 JUMPI PUSH2 0x1E04 PUSH2 0x34E3 JUMP JUMPDEST JUMPDEST PUSH1 0x20 SWAP2 DUP3 DUP3 DIV ADD SWAP2 SWAP1 MOD SWAP1 SLOAD SWAP1 PUSH2 0x100 EXP SWAP1 DIV PUSH1 0xFF AND PUSH1 0xFF AND DUP2 PUSH1 0x5 PUSH1 0x8 DUP2 LT PUSH2 0x1E32 JUMPI PUSH2 0x1E31 PUSH2 0x34E3 JUMP JUMPDEST JUMPDEST PUSH1 0x20 MUL ADD PUSH1 0x20 DUP2 ADD SWAP1 PUSH2 0x1E45 SWAP2 SWAP1 PUSH2 0x3512 JUMP JUMPDEST PUSH1 0xFF AND EQ DUP1 PUSH2 0x1EA9 JUMPI POP PUSH1 0x3 PUSH1 0xB PUSH1 0x10 DUP2 LT PUSH2 0x1E64 JUMPI PUSH2 0x1E63 PUSH2 0x34E3 JUMP JUMPDEST JUMPDEST PUSH1 0x20 SWAP2 DUP3 DUP3 DIV ADD SWAP2 SWAP1 MOD SWAP1 SLOAD SWAP1 PUSH2 0x100 EXP SWAP1 DIV PUSH1 0xFF AND PUSH1 0xFF AND DUP2 PUSH1 0x5 PUSH1 0x8 DUP2 LT PUSH2 0x1E91 JUMPI PUSH2 0x1E90 PUSH2 0x34E3 JUMP JUMPDEST JUMPDEST PUSH1 0x20 MUL ADD PUSH1 0x20 DUP2 ADD SWAP1 PUSH2 0x1EA4 SWAP2 SWAP1 PUSH2 0x3512 JUMP JUMPDEST PUSH1 0xFF AND EQ JUMPDEST PUSH2 0x1EE8 JUMPI PUSH1 0x40 MLOAD PUSH32 0x8C379A000000000000000000000000000000000000000000000000000000000 DUP2 MSTORE PUSH1 0x4 ADD PUSH2 0x1EDF SWAP1 PUSH2 0x3670 JUMP JUMPDEST PUSH1 0x40 MLOAD DUP1 SWAP2 SUB SWAP1 REVERT JUMPDEST PUSH1 0x3 PUSH1 0xC PUSH1 0x10 DUP2 LT PUSH2 0x1EFD JUMPI PUSH2 0x1EFC PUSH2 0x34E3 JUMP JUMPDEST JUMPDEST PUSH1 0x20 SWAP2 DUP3 DUP3 DIV ADD SWAP2 SWAP1 MOD SWAP1 SLOAD SWAP1 PUSH2 0x100 EXP SWAP1 DIV PUSH1 0xFF AND PUSH1 0xFF AND DUP2 PUSH1 0x6 PUSH1 0x8 DUP2 LT PUSH2 0x1F2A JUMPI PUSH2 0x1F29 PUSH2 0x34E3 JUMP JUMPDEST JUMPDEST PUSH1 0x20 MUL ADD PUSH1 0x20 DUP2 ADD SWAP1 PUSH2 0x1F3D SWAP2 SWAP1 PUSH2 0x3512 JUMP JUMPDEST PUSH1 0xFF AND EQ DUP1 PUSH2 0x1FA1 JUMPI POP PUSH1 0x3 PUSH1 0xD PUSH1 0x10 DUP2 LT PUSH2 0x1F5C JUMPI PUSH2 0x1F5B PUSH2 0x34E3 JUMP JUMPDEST JUMPDEST PUSH1 0x20 SWAP2 DUP3 DUP3 DIV ADD SWAP2 SWAP1 MOD SWAP1 SLOAD SWAP1 PUSH2 0x100 EXP SWAP1 DIV PUSH1 0xFF AND PUSH1 0xFF AND DUP2 PUSH1 0x6 PUSH1 0x8 DUP2 LT PUSH2 0x1F89 JUMPI PUSH2 0x1F88 PUSH2 0x34E3 JUMP JUMPDEST JUMPDEST PUSH1 0x20 MUL ADD PUSH1 0x20 DUP2 ADD SWAP1 PUSH2 0x1F9C SWAP2 SWAP1 PUSH2 0x3512 JUMP JUMPDEST PUSH1 0xFF AND EQ JUMPDEST PUSH2 0x1FE0 JUMPI PUSH1 0x40 MLOAD PUSH32 0x8C379A000000000000000000000000000000000000000000000000000000000 DUP2 MSTORE PUSH1 0x4 ADD PUSH2 0x1FD7 SWAP1 PUSH2 0x3670 JUMP JUMPDEST PUSH1 0x40 MLOAD DUP1 SWAP2 SUB SWAP1 REVERT JUMPDEST PUSH1 0x3 PUSH1 0xE PUSH1 0x10 DUP2 LT PUSH2 0x1FF5 JUMPI PUSH2 0x1FF4 PUSH2 0x34E3 JUMP JUMPDEST JUMPDEST PUSH1 0x20 SWAP2 DUP3 DUP3 DIV ADD SWAP2 SWAP1 MOD SWAP1 SLOAD SWAP1 PUSH2 0x100 EXP SWAP1 DIV PUSH1 0xFF AND PUSH1 0xFF AND DUP2 PUSH1 0x7 PUSH1 0x8 DUP2 LT PUSH2 0x2022 JUMPI PUSH2 0x2021 PUSH2 0x34E3 JUMP JUMPDEST JUMPDEST PUSH1 0x20 MUL ADD PUSH1 0x20 DUP2 ADD SWAP1 PUSH2 0x2035 SWAP2 SWAP1 PUSH2 0x3512 JUMP JUMPDEST PUSH1 0xFF AND EQ DUP1 PUSH2 0x2099 JUMPI POP PUSH1 0x3 PUSH1 0xF PUSH1 0x10 DUP2 LT PUSH2 0x2054 JUMPI PUSH2 0x2053 PUSH2 0x34E3 JUMP JUMPDEST JUMPDEST PUSH1 0x20 SWAP2 DUP3 DUP3 DIV ADD SWAP2 SWAP1 MOD SWAP1 SLOAD SWAP1 PUSH2 0x100 EXP SWAP1 DIV PUSH1 0xFF AND PUSH1 0xFF AND DUP2 PUSH1 0x7 PUSH1 0x8 DUP2 LT PUSH2 0x2081 JUMPI PUSH2 0x2080 PUSH2 0x34E3 JUMP JUMPDEST JUMPDEST PUSH1 0x20 MUL ADD PUSH1 0x20 DUP2 ADD SWAP1 PUSH2 0x2094 SWAP2 SWAP1 PUSH2 0x3512 JUMP JUMPDEST PUSH1 0xFF AND EQ JUMPDEST PUSH2 0x20D8 JUMPI PUSH1 0x40 MLOAD PUSH32 0x8C379A000000000000000000000000000000000000000000000000000000000 DUP2 MSTORE PUSH1 0x4 ADD PUSH2 0x20CF SWAP1 PUSH2 0x3670 JUMP JUMPDEST PUSH1 0x40 MLOAD DUP1 SWAP2 SUB SWAP1 REVERT JUMPDEST POP JUMP JUMPDEST DUP2 PUSH1 0x0 PUSH1 0x8 DUP2 LT PUSH2 0x20EF JUMPI PUSH2 0x20EE PUSH2 0x34E3 JUMP JUMPDEST JUMPDEST PUSH1 0x20 MUL ADD PUSH1 0x20 DUP2 ADD SWAP1 PUSH2 0x2102 SWAP2 SWAP1 PUSH2 0x3512 JUMP JUMPDEST PUSH1 0xFF AND DUP2 PUSH1 0x0 PUSH1 0x4 DUP2 LT PUSH2 0x2119 JUMPI PUSH2 0x2118 PUSH2 0x34E3 JUMP JUMPDEST JUMPDEST PUSH1 0x20 MUL ADD PUSH1 0x20 DUP2 ADD SWAP1 PUSH2 0x212C SWAP2 SWAP1 PUSH2 0x3512 JUMP JUMPDEST PUSH1 0xFF AND EQ DUP1 PUSH2 0x218C JUMPI POP DUP2 PUSH1 0x1 PUSH1 0x8 DUP2 LT PUSH2 0x214A JUMPI PUSH2 0x2149 PUSH2 0x34E3 JUMP JUMPDEST JUMPDEST PUSH1 0x20 MUL ADD PUSH1 0x20 DUP2 ADD SWAP1 PUSH2 0x215D SWAP2 SWAP1 PUSH2 0x3512 JUMP JUMPDEST PUSH1 0xFF AND DUP2 PUSH1 0x0 PUSH1 0x4 DUP2 LT PUSH2 0x2174 JUMPI PUSH2 0x2173 PUSH2 0x34E3 JUMP JUMPDEST JUMPDEST PUSH1 0x20 MUL ADD PUSH1 0x20 DUP2 ADD SWAP1 PUSH2 0x2187 SWAP2 SWAP1 PUSH2 0x3512 JUMP JUMPDEST PUSH1 0xFF AND EQ JUMPDEST PUSH2 0x21CB JUMPI PUSH1 0x40 MLOAD PUSH32 0x8C379A000000000000000000000000000000000000000000000000000000000 DUP2 MSTORE PUSH1 0x4 ADD PUSH2 0x21C2 SWAP1 PUSH2 0x36DC JUMP JUMPDEST PUSH1 0x40 MLOAD DUP1 SWAP2 SUB SWAP1 REVERT JUMPDEST DUP2 PUSH1 0x2 PUSH1 0x8 DUP2 LT PUSH2 0x21DF JUMPI PUSH2 0x21DE PUSH2 0x34E3 JUMP JUMPDEST JUMPDEST PUSH1 0x20 MUL ADD PUSH1 0x20 DUP2 ADD SWAP1 PUSH2 0x21F2 SWAP2 SWAP1 PUSH2 0x3512 JUMP JUMPDEST PUSH1 0xFF AND DUP2 PUSH1 0x1 PUSH1 0x4 DUP2 LT PUSH2 0x2209 JUMPI PUSH2 0x2208 PUSH2 0x34E3 JUMP JUMPDEST JUMPDEST PUSH1 0x20 MUL ADD PUSH1 0x20 DUP2 ADD SWAP1 PUSH2 0x221C SWAP2 SWAP1 PUSH2 0x3512 JUMP JUMPDEST PUSH1 0xFF AND EQ DUP1 PUSH2 0x227C JUMPI POP DUP2 PUSH1 0x3 PUSH1 0x8 DUP2 LT PUSH2 0x223A JUMPI PUSH2 0x2239 PUSH2 0x34E3 JUMP JUMPDEST JUMPDEST PUSH1 0x20 MUL ADD PUSH1 0x20 DUP2 ADD SWAP1 PUSH2 0x224D SWAP2 SWAP1 PUSH2 0x3512 JUMP JUMPDEST PUSH1 0xFF AND DUP2 PUSH1 0x1 PUSH1 0x4 DUP2 LT PUSH2 0x2264 JUMPI PUSH2 0x2263 PUSH2 0x34E3 JUMP JUMPDEST JUMPDEST PUSH1 0x20 MUL ADD PUSH1 0x20 DUP2 ADD SWAP1 PUSH2 0x2277 SWAP2 SWAP1 PUSH2 0x3512 JUMP JUMPDEST PUSH1 0xFF AND EQ JUMPDEST PUSH2 0x22BB JUMPI PUSH1 0x40 MLOAD PUSH32 0x8C379A000000000000000000000000000000000000000000000000000000000 DUP2 MSTORE PUSH1 0x4 ADD PUSH2 0x22B2 SWAP1 PUSH2 0x36DC JUMP JUMPDEST PUSH1 0x40 MLOAD DUP1 SWAP2 SUB SWAP1 REVERT JUMPDEST DUP2 PUSH1 0x4 PUSH1 0x8 DUP2 LT PUSH2 0x22CF JUMPI PUSH2 0x22CE PUSH2 0x34E3 JUMP JUMPDEST JUMPDEST PUSH1 0x20 MUL ADD PUSH1 0x20 DUP2 ADD SWAP1 PUSH2 0x22E2 SWAP2 SWAP1 PUSH2 0x3512 JUMP JUMPDEST PUSH1 0xFF AND DUP2 PUSH1 0x2 PUSH1 0x4 DUP2 LT PUSH2 0x22F9 JUMPI PUSH2 0x22F8 PUSH2 0x34E3 JUMP JUMPDEST JUMPDEST PUSH1 0x20 MUL ADD PUSH1 0x20 DUP2 ADD SWAP1 PUSH2 0x230C SWAP2 SWAP1 PUSH2 0x3512 JUMP JUMPDEST PUSH1 0xFF AND EQ DUP1 PUSH2 0x236C JUMPI POP DUP2 PUSH1 0x5 PUSH1 0x8 DUP2 LT PUSH2 0x232A JUMPI PUSH2 0x2329 PUSH2 0x34E3 JUMP JUMPDEST JUMPDEST PUSH1 0x20 MUL ADD PUSH1 0x20 DUP2 ADD SWAP1 PUSH2 0x233D SWAP2 SWAP1 PUSH2 0x3512 JUMP JUMPDEST PUSH1 0xFF AND DUP2 PUSH1 0x2 PUSH1 0x4 DUP2 LT PUSH2 0x2354 JUMPI PUSH2 0x2353 PUSH2 0x34E3 JUMP JUMPDEST JUMPDEST PUSH1 0x20 MUL ADD PUSH1 0x20 DUP2 ADD SWAP1 PUSH2 0x2367 SWAP2 SWAP1 PUSH2 0x3512 JUMP JUMPDEST PUSH1 0xFF AND EQ JUMPDEST PUSH2 0x23AB JUMPI PUSH1 0x40 MLOAD PUSH32 0x8C379A000000000000000000000000000000000000000000000000000000000 DUP2 MSTORE PUSH1 0x4 ADD PUSH2 0x23A2 SWAP1 PUSH2 0x36DC JUMP JUMPDEST PUSH1 0x40 MLOAD DUP1 SWAP2 SUB SWAP1 REVERT JUMPDEST DUP2 PUSH1 0x6 PUSH1 0x8 DUP2 LT PUSH2 0x23BF JUMPI PUSH2 0x23BE PUSH2 0x34E3 JUMP JUMPDEST JUMPDEST PUSH1 0x20 MUL ADD PUSH1 0x20 DUP2 ADD SWAP1 PUSH2 0x23D2 SWAP2 SWAP1 PUSH2 0x3512 JUMP JUMPDEST PUSH1 0xFF AND DUP2 PUSH1 0x3 PUSH1 0x4 DUP2 LT PUSH2 0x23E9 JUMPI PUSH2 0x23E8 PUSH2 0x34E3 JUMP JUMPDEST JUMPDEST PUSH1 0x20 MUL ADD PUSH1 0x20 DUP2 ADD SWAP1 PUSH2 0x23FC SWAP2 SWAP1 PUSH2 0x3512 JUMP JUMPDEST PUSH1 0xFF AND EQ DUP1 PUSH2 0x245C JUMPI POP DUP2 PUSH1 0x7 PUSH1 0x8 DUP2 LT PUSH2 0x241A JUMPI PUSH2 0x2419 PUSH2 0x34E3 JUMP JUMPDEST JUMPDEST PUSH1 0x20 MUL ADD PUSH1 0x20 DUP2 ADD SWAP1 PUSH2 0x242D SWAP2 SWAP1 PUSH2 0x3512 JUMP JUMPDEST PUSH1 0xFF AND DUP2 PUSH1 0x3 PUSH1 0x4 DUP2 LT PUSH2 0x2444 JUMPI PUSH2 0x2443 PUSH2 0x34E3 JUMP JUMPDEST JUMPDEST PUSH1 0x20 MUL ADD PUSH1 0x20 DUP2 ADD SWAP1 PUSH2 0x2457 SWAP2 SWAP1 PUSH2 0x3512 JUMP JUMPDEST PUSH1 0xFF AND EQ JUMPDEST PUSH2 0x249B JUMPI PUSH1 0x40 MLOAD PUSH32 0x8C379A000000000000000000000000000000000000000000000000000000000 DUP2 MSTORE PUSH1 0x4 ADD PUSH2 0x2492 SWAP1 PUSH2 0x36DC JUMP JUMPDEST PUSH1 0x40 MLOAD DUP1 SWAP2 SUB SWAP1 REVERT JUMPDEST POP POP JUMP JUMPDEST DUP2 PUSH1 0x0 PUSH1 0x4 DUP2 LT PUSH2 0x24B3 JUMPI PUSH2 0x24B2 PUSH2 0x34E3 JUMP JUMPDEST JUMPDEST PUSH1 0x20 MUL ADD PUSH1 0x20 DUP2 ADD SWAP1 PUSH2 0x24C6 SWAP2 SWAP1 PUSH2 0x3512 JUMP JUMPDEST PUSH1 0xFF AND DUP2 PUSH1 0x0 PUSH1 0x2 DUP2 LT PUSH2 0x24DD JUMPI PUSH2 0x24DC PUSH2 0x34E3 JUMP JUMPDEST JUMPDEST PUSH1 0x20 MUL ADD PUSH1 0x20 DUP2 ADD SWAP1 PUSH2 0x24F0 SWAP2 SWAP1 PUSH2 0x3512 JUMP JUMPDEST PUSH1 0xFF AND EQ DUP1 PUSH2 0x2550 JUMPI POP DUP2 PUSH1 0x1 PUSH1 0x4 DUP2 LT PUSH2 0x250E JUMPI PUSH2 0x250D PUSH2 0x34E3 JUMP JUMPDEST JUMPDEST PUSH1 0x20 MUL ADD PUSH1 0x20 DUP2 ADD SWAP1 PUSH2 0x2521 SWAP2 SWAP1 PUSH2 0x3512 JUMP JUMPDEST PUSH1 0xFF AND DUP2 PUSH1 0x0 PUSH1 0x2 DUP2 LT PUSH2 0x2538 JUMPI PUSH2 0x2537 PUSH2 0x34E3 JUMP JUMPDEST JUMPDEST PUSH1 0x20 MUL ADD PUSH1 0x20 DUP2 ADD SWAP1 PUSH2 0x254B SWAP2 SWAP1 PUSH2 0x3512 JUMP JUMPDEST PUSH1 0xFF AND EQ JUMPDEST PUSH2 0x258F JUMPI PUSH1 0x40 MLOAD PUSH32 0x8C379A000000000000000000000000000000000000000000000000000000000 DUP2 MSTORE PUSH1 0x4 ADD PUSH2 0x2586 SWAP1 PUSH2 0x3748 JUMP JUMPDEST PUSH1 0x40 MLOAD DUP1 SWAP2 SUB SWAP1 REVERT JUMPDEST DUP2 PUSH1 0x2 PUSH1 0x4 DUP2 LT PUSH2 0x25A3 JUMPI PUSH2 0x25A2 PUSH2 0x34E3 JUMP JUMPDEST JUMPDEST PUSH1 0x20 MUL ADD PUSH1 0x20 DUP2 ADD SWAP1 PUSH2 0x25B6 SWAP2 SWAP1 PUSH2 0x3512 JUMP JUMPDEST PUSH1 0xFF AND DUP2 PUSH1 0x1 PUSH1 0x2 DUP2 LT PUSH2 0x25CD JUMPI PUSH2 0x25CC PUSH2 0x34E3 JUMP JUMPDEST JUMPDEST PUSH1 0x20 MUL ADD PUSH1 0x20 DUP2 ADD SWAP1 PUSH2 0x25E0 SWAP2 SWAP1 PUSH2 0x3512 JUMP JUMPDEST PUSH1 0xFF AND EQ DUP1 PUSH2 0x2640 JUMPI POP DUP2 PUSH1 0x3 PUSH1 0x4 DUP2 LT PUSH2 0x25FE JUMPI PUSH2 0x25FD PUSH2 0x34E3 JUMP JUMPDEST JUMPDEST PUSH1 0x20 MUL ADD PUSH1 0x20 DUP2 ADD SWAP1 PUSH2 0x2611 SWAP2 SWAP1 PUSH2 0x3512 JUMP JUMPDEST PUSH1 0xFF AND DUP2 PUSH1 0x1 PUSH1 0x2 DUP2 LT PUSH2 0x2628 JUMPI PUSH2 0x2627 PUSH2 0x34E3 JUMP JUMPDEST JUMPDEST PUSH1 0x20 MUL ADD PUSH1 0x20 DUP2 ADD SWAP1 PUSH2 0x263B SWAP2 SWAP1 PUSH2 0x3512 JUMP JUMPDEST PUSH1 0xFF AND EQ JUMPDEST PUSH2 0x267F JUMPI PUSH1 0x40 MLOAD PUSH32 0x8C379A000000000000000000000000000000000000000000000000000000000 DUP2 MSTORE PUSH1 0x4 ADD PUSH2 0x2676 SWAP1 PUSH2 0x3748 JUMP JUMPDEST PUSH1 0x40 MLOAD DUP1 SWAP2 SUB SWAP1 REVERT JUMPDEST POP POP JUMP JUMPDEST DUP2 PUSH1 0x0 PUSH1 0x2 DUP2 LT PUSH2 0x2697 JUMPI PUSH2 0x2696 PUSH2 0x34E3 JUMP JUMPDEST JUMPDEST PUSH1 0x20 MUL ADD PUSH1 0x20 DUP2 ADD SWAP1 PUSH2 0x26AA SWAP2 SWAP1 PUSH2 0x3512 JUMP JUMPDEST PUSH1 0xFF AND DUP2 PUSH1 0xFF AND EQ DUP1 PUSH2 0x26E8 JUMPI POP DUP2 PUSH1 0x1 PUSH1 0x2 DUP2 LT PUSH2 0x26CC JUMPI PUSH2 0x26CB PUSH2 0x34E3 JUMP JUMPDEST JUMPDEST PUSH1 0x20 MUL ADD PUSH1 0x20 DUP2 ADD SWAP1 PUSH2 0x26DF SWAP2 SWAP1 PUSH2 0x3512 JUMP JUMPDEST PUSH1 0xFF AND DUP2 PUSH1 0xFF AND EQ JUMPDEST PUSH2 0x2727 JUMPI PUSH1 0x40 MLOAD PUSH32 0x8C379A000000000000000000000000000000000000000000000000000000000 DUP2 MSTORE PUSH1 0x4 ADD PUSH2 0x271E SWAP1 PUSH2 0x37B4 JUMP JUMPDEST PUSH1 0x40 MLOAD DUP1 SWAP2 SUB SWAP1 REVERT JUMPDEST POP POP JUMP JUMPDEST DUP2 PUSH1 0x0 PUSH1 0x2 DUP2 LT PUSH2 0x273F JUMPI PUSH2 0x273E PUSH2 0x34E3 JUMP JUMPDEST JUMPDEST PUSH1 0x20 MUL ADD PUSH1 0x20 DUP2 ADD SWAP1 PUSH2 0x2752 SWAP2 SWAP1 PUSH2 0x3512 JUMP JUMPDEST PUSH1 0xFF AND DUP2 PUSH1 0xFF AND EQ ISZERO DUP1 ISZERO PUSH2 0x2793 JUMPI POP DUP2 PUSH1 0x1 PUSH1 0x2 DUP2 LT PUSH2 0x2776 JUMPI PUSH2 0x2775 PUSH2 0x34E3 JUMP JUMPDEST JUMPDEST PUSH1 0x20 MUL ADD PUSH1 0x20 DUP2 ADD SWAP1 PUSH2 0x2789 SWAP2 SWAP1 PUSH2 0x3512 JUMP JUMPDEST PUSH1 0xFF AND DUP2 PUSH1 0xFF AND EQ ISZERO JUMPDEST PUSH2 0x27D2 JUMPI PUSH1 0x40 MLOAD PUSH32 0x8C379A000000000000000000000000000000000000000000000000000000000 DUP2 MSTORE PUSH1 0x4 ADD PUSH2 0x27C9 SWAP1 PUSH2 0x3820 JUMP JUMPDEST PUSH1 0x40 MLOAD DUP1 SWAP2 SUB SWAP1 REVERT JUMPDEST DUP3 PUSH1 0x0 PUSH1 0x4 DUP2 LT PUSH2 0x27E6 JUMPI PUSH2 0x27E5 PUSH2 0x34E3 JUMP JUMPDEST JUMPDEST PUSH1 0x20 MUL ADD PUSH1 0x20 DUP2 ADD SWAP1 PUSH2 0x27F9 SWAP2 SWAP1 PUSH2 0x3512 JUMP JUMPDEST PUSH1 0xFF AND DUP2 PUSH1 0xFF AND EQ DUP1 PUSH2 0x2838 JUMPI POP DUP3 PUSH1 0x1 PUSH1 0x4 DUP2 LT PUSH2 0x281B JUMPI PUSH2 0x281A PUSH2 0x34E3 JUMP JUMPDEST JUMPDEST PUSH1 0x20 MUL ADD PUSH1 0x20 DUP2 ADD SWAP1 PUSH2 0x282E SWAP2 SWAP1 PUSH2 0x3512 JUMP JUMPDEST PUSH1 0xFF AND DUP2 PUSH1 0xFF AND EQ ISZERO JUMPDEST DUP1 PUSH2 0x286E JUMPI POP DUP3 PUSH1 0x2 PUSH1 0x4 DUP2 LT PUSH2 0x2852 JUMPI PUSH2 0x2851 PUSH2 0x34E3 JUMP JUMPDEST JUMPDEST PUSH1 0x20 MUL ADD PUSH1 0x20 DUP2 ADD SWAP1 PUSH2 0x2865 SWAP2 SWAP1 PUSH2 0x3512 JUMP JUMPDEST PUSH1 0xFF AND DUP2 PUSH1 0xFF AND EQ JUMPDEST DUP1 PUSH2 0x28A5 JUMPI POP DUP3 PUSH1 0x3 PUSH1 0x4 DUP2 LT PUSH2 0x2888 JUMPI PUSH2 0x2887 PUSH2 0x34E3 JUMP JUMPDEST JUMPDEST PUSH1 0x20 MUL ADD PUSH1 0x20 DUP2 ADD SWAP1 PUSH2 0x289B SWAP2 SWAP1 PUSH2 0x3512 JUMP JUMPDEST PUSH1 0xFF AND DUP2 PUSH1 0xFF AND EQ ISZERO JUMPDEST PUSH2 0x28E4 JUMPI PUSH1 0x40 MLOAD PUSH32 0x8C379A000000000000000000000000000000000000000000000000000000000 DUP2 MSTORE PUSH1 0x4 ADD PUSH2 0x28DB SWAP1 PUSH2 0x388C JUMP JUMPDEST PUSH1 0x40 MLOAD DUP1 SWAP2 SUB SWAP1 REVERT JUMPDEST POP POP POP JUMP JUMPDEST PUSH1 0x40 MLOAD DUP1 PUSH1 0x80 ADD PUSH1 0x40 MSTORE DUP1 PUSH1 0x4 SWAP1 PUSH1 0x20 DUP3 MUL DUP1 CALLDATASIZE DUP4 CALLDATACOPY DUP1 DUP3 ADD SWAP2 POP POP SWAP1 POP POP SWAP1 JUMP JUMPDEST PUSH1 0x40 MLOAD DUP1 PUSH2 0x200 ADD PUSH1 0x40 MSTORE DUP1 PUSH1 0x10 SWAP1 PUSH1 0x20 DUP3 MUL DUP1 CALLDATASIZE DUP4 CALLDATACOPY DUP1 DUP3 ADD SWAP2 POP POP SWAP1 POP POP SWAP1 JUMP JUMPDEST DUP3 PUSH1 0x8 PUSH1 0x1F ADD PUSH1 0x20 SWAP1 DIV DUP2 ADD SWAP3 DUP3 ISZERO PUSH2 0x29B7 JUMPI SWAP2 PUSH1 0x20 MUL DUP3 ADD PUSH1 0x0 JUMPDEST DUP4 DUP3 GT ISZERO PUSH2 0x2988 JUMPI DUP4 MLOAD DUP4 DUP3 PUSH2 0x100 EXP DUP2 SLOAD DUP2 PUSH1 0xFF MUL NOT AND SWAP1 DUP4 PUSH1 0xFF AND MUL OR SWAP1 SSTORE POP SWAP3 PUSH1 0x20 ADD SWAP3 PUSH1 0x1 ADD PUSH1 0x20 DUP2 PUSH1 0x0 ADD DIV SWAP3 DUP4 ADD SWAP3 PUSH1 0x1 SUB MUL PUSH2 0x294A JUMP JUMPDEST DUP1 ISZERO PUSH2 0x29B5 JUMPI DUP3 DUP2 PUSH2 0x100 EXP DUP2 SLOAD SWAP1 PUSH1 0xFF MUL NOT AND SWAP1 SSTORE PUSH1 0x1 ADD PUSH1 0x20 DUP2 PUSH1 0x0 ADD DIV SWAP3 DUP4 ADD SWAP3 PUSH1 0x1 SUB MUL PUSH2 0x2988 JUMP JUMPDEST POP JUMPDEST POP SWAP1 POP PUSH2 0x29C4 SWAP2 SWAP1 PUSH2 0x2BDB JUMP JUMPDEST POP SWAP1 JUMP JUMPDEST DUP3 PUSH1 0x4 PUSH1 0x1F ADD PUSH1 0x20 SWAP1 DIV DUP2 ADD SWAP3 DUP3 ISZERO PUSH2 0x2A51 JUMPI SWAP2 PUSH1 0x20 MUL DUP3 ADD PUSH1 0x0 JUMPDEST DUP4 DUP3 GT ISZERO PUSH2 0x2A22 JUMPI DUP4 MLOAD DUP4 DUP3 PUSH2 0x100 EXP DUP2 SLOAD DUP2 PUSH1 0xFF MUL NOT AND SWAP1 DUP4 PUSH1 0xFF AND MUL OR SWAP1 SSTORE POP SWAP3 PUSH1 0x20 ADD SWAP3 PUSH1 0x1 ADD PUSH1 0x20 DUP2 PUSH1 0x0 ADD DIV SWAP3 DUP4 ADD SWAP3 PUSH1 0x1 SUB MUL PUSH2 0x29E4 JUMP JUMPDEST DUP1 ISZERO PUSH2 0x2A4F JUMPI DUP3 DUP2 PUSH2 0x100 EXP DUP2 SLOAD SWAP1 PUSH1 0xFF MUL NOT AND SWAP1 SSTORE PUSH1 0x1 ADD PUSH1 0x20 DUP2 PUSH1 0x0 ADD DIV SWAP3 DUP4 ADD SWAP3 PUSH1 0x1 SUB MUL PUSH2 0x2A22 JUMP JUMPDEST POP JUMPDEST POP SWAP1 POP PUSH2 0x2A5E SWAP2 SWAP1 PUSH2 0x2BDB JUMP JUMPDEST POP SWAP1 JUMP JUMPDEST DUP3 PUSH1 0x2 PUSH1 0x1F ADD PUSH1 0x20 SWAP1 DIV DUP2 ADD SWAP3 DUP3 ISZERO PUSH2 0x2AEB JUMPI SWAP2 PUSH1 0x20 MUL DUP3 ADD PUSH1 0x0 JUMPDEST DUP4 DUP3 GT ISZERO PUSH2 0x2ABC JUMPI DUP4 MLOAD DUP4 DUP3 PUSH2 0x100 EXP DUP2 SLOAD DUP2 PUSH1 0xFF MUL NOT AND SWAP1 DUP4 PUSH1 0xFF AND MUL OR SWAP1 SSTORE POP SWAP3 PUSH1 0x20 ADD SWAP3 PUSH1 0x1 ADD PUSH1 0x20 DUP2 PUSH1 0x0 ADD DIV SWAP3 DUP4 ADD SWAP3 PUSH1 0x1 SUB MUL PUSH2 0x2A7E JUMP JUMPDEST DUP1 ISZERO PUSH2 0x2AE9 JUMPI DUP3 DUP2 PUSH2 0x100 EXP DUP2 SLOAD SWAP1 PUSH1 0xFF MUL NOT AND SWAP1 SSTORE PUSH1 0x1 ADD PUSH1 0x20 DUP2 PUSH1 0x0 ADD DIV SWAP3 DUP4 ADD SWAP3 PUSH1 0x1 SUB MUL PUSH2 0x2ABC JUMP JUMPDEST POP JUMPDEST POP SWAP1 POP PUSH2 0x2AF8 SWAP2 SWAP1 PUSH2 0x2BDB JUMP JUMPDEST POP SWAP1 JUMP JUMPDEST PUSH1 0x40 MLOAD DUP1 PUSH2 0x100 ADD PUSH1 0x40 MSTORE DUP1 PUSH1 0x8 SWAP1 PUSH1 0x20 DUP3 MUL DUP1 CALLDATASIZE DUP4 CALLDATACOPY DUP1 DUP3 ADD SWAP2 POP POP SWAP1 POP POP SWAP1 JUMP JUMPDEST DUP3 PUSH1 0x10 PUSH1 0x1F ADD PUSH1 0x20 SWAP1 DIV DUP2 ADD SWAP3 DUP3 ISZERO PUSH2 0x2BA8 JUMPI SWAP2 PUSH1 0x20 MUL DUP3 ADD PUSH1 0x0 JUMPDEST DUP4 DUP3 GT ISZERO PUSH2 0x2B79 JUMPI DUP4 MLOAD DUP4 DUP3 PUSH2 0x100 EXP DUP2 SLOAD DUP2 PUSH1 0xFF MUL NOT AND SWAP1 DUP4 PUSH1 0xFF AND MUL OR SWAP1 SSTORE POP SWAP3 PUSH1 0x20 ADD SWAP3 PUSH1 0x1 ADD PUSH1 0x20 DUP2 PUSH1 0x0 ADD DIV SWAP3 DUP4 ADD SWAP3 PUSH1 0x1 SUB MUL PUSH2 0x2B3B JUMP JUMPDEST DUP1 ISZERO PUSH2 0x2BA6 JUMPI DUP3 DUP2 PUSH2 0x100 EXP DUP2 SLOAD SWAP1 PUSH1 0xFF MUL NOT AND SWAP1 SSTORE PUSH1 0x1 ADD PUSH1 0x20 DUP2 PUSH1 0x0 ADD DIV SWAP3 DUP4 ADD SWAP3 PUSH1 0x1 SUB MUL PUSH2 0x2B79 JUMP JUMPDEST POP JUMPDEST POP SWAP1 POP PUSH2 0x2BB5 SWAP2 SWAP1 PUSH2 0x2BDB JUMP JUMPDEST POP SWAP1 JUMP JUMPDEST PUSH1 0x40 MLOAD DUP1 PUSH1 0x40 ADD PUSH1 0x40 MSTORE DUP1 PUSH1 0x2 SWAP1 PUSH1 0x20 DUP3 MUL DUP1 CALLDATASIZE DUP4 CALLDATACOPY DUP1 DUP3 ADD SWAP2 POP POP SWAP1 POP POP SWAP1 JUMP JUMPDEST JUMPDEST DUP1 DUP3 GT ISZERO PUSH2 0x2BF4 JUMPI PUSH1 0x0 DUP2 PUSH1 0x0 SWAP1 SSTORE POP PUSH1 0x1 ADD PUSH2 0x2BDC JUMP JUMPDEST POP SWAP1 JUMP JUMPDEST PUSH1 0x0 PUSH1 0xFF DUP3 AND SWAP1 POP SWAP2 SWAP1 POP JUMP JUMPDEST PUSH2 0x2C0E DUP2 PUSH2 0x2BF8 JUMP JUMPDEST DUP3 MSTORE POP POP JUMP JUMPDEST PUSH1 0x0 PUSH1 0x20 DUP3 ADD SWAP1 POP PUSH2 0x2C29 PUSH1 0x0 DUP4 ADD DUP5 PUSH2 0x2C05 JUMP JUMPDEST SWAP3 SWAP2 POP POP JUMP JUMPDEST PUSH1 0x0 DUP1 REVERT JUMPDEST PUSH1 0x0 PUSH20 0xFFFFFFFFFFFFFFFFFFFFFFFFFFFFFFFFFFFFFFFF DUP3 AND SWAP1 POP SWAP2 SWAP1 POP JUMP JUMPDEST PUSH1 0x0 PUSH2 0x2C5F DUP3 PUSH2 0x2C34 JUMP JUMPDEST SWAP1 POP SWAP2 SWAP1 POP JUMP JUMPDEST PUSH2 0x2C6F DUP2 PUSH2 0x2C54 JUMP JUMPDEST DUP2 EQ PUSH2 0x2C7A JUMPI PUSH1 0x0 DUP1 REVERT JUMPDEST POP JUMP JUMPDEST PUSH1 0x0 DUP2 CALLDATALOAD SWAP1 POP PUSH2 0x2C8C DUP2 PUSH2 0x2C66 JUMP JUMPDEST SWAP3 SWAP2 POP POP JUMP JUMPDEST PUSH1 0x0 DUP2 ISZERO ISZERO SWAP1 POP SWAP2 SWAP1 POP JUMP JUMPDEST PUSH2 0x2CA7 DUP2 PUSH2 0x2C92 JUMP JUMPDEST DUP2 EQ PUSH2 0x2CB2 JUMPI PUSH1 0x0 DUP1 REVERT JUMPDEST POP JUMP JUMPDEST PUSH1 0x0 DUP2 CALLDATALOAD SWAP1 POP PUSH2 0x2CC4 DUP2 PUSH2 0x2C9E JUMP JUMPDEST SWAP3 SWAP2 POP POP JUMP JUMPDEST PUSH1 0x0 DUP1 PUSH1 0x40 DUP4 DUP6 SUB SLT ISZERO PUSH2 0x2CE1 JUMPI PUSH2 0x2CE0 PUSH2 0x2C2F JUMP JUMPDEST JUMPDEST PUSH1 0x0 PUSH2 0x2CEF DUP6 DUP3 DUP7 ADD PUSH2 0x2C7D JUMP JUMPDEST SWAP3 POP POP PUSH1 0x20 PUSH2 0x2D00 DUP6 DUP3 DUP7 ADD PUSH2 0x2CB5 JUMP JUMPDEST SWAP2 POP POP SWAP3 POP SWAP3 SWAP1 POP JUMP JUMPDEST PUSH1 0x0 PUSH1 0x20 DUP3 DUP5 SUB SLT ISZERO PUSH2 0x2D20 JUMPI PUSH2 0x2D1F PUSH2 0x2C2F JUMP JUMPDEST JUMPDEST PUSH1 0x0 PUSH2 0x2D2E DUP5 DUP3 DUP6 ADD PUSH2 0x2C7D JUMP JUMPDEST SWAP2 POP POP SWAP3 SWAP2 POP POP JUMP JUMPDEST PUSH2 0x2D40 DUP2 PUSH2 0x2C92 JUMP JUMPDEST DUP3 MSTORE POP POP JUMP JUMPDEST PUSH1 0x0 PUSH1 0x20 DUP3 ADD SWAP1 POP PUSH2 0x2D5B PUSH1 0x0 DUP4 ADD DUP5 PUSH2 0x2D37 JUMP JUMPDEST SWAP3 SWAP2 POP POP JUMP JUMPDEST PUSH1 0x0 PUSH2 0xFFFF DUP3 AND SWAP1 POP SWAP2 SWAP1 POP JUMP JUMPDEST PUSH2 0x2D78 DUP2 PUSH2 0x2D61 JUMP JUMPDEST DUP3 MSTORE POP POP JUMP JUMPDEST PUSH1 0x0 PUSH1 0x20 DUP3 ADD SWAP1 POP PUSH2 0x2D93 PUSH1 0x0 DUP4 ADD DUP5 PUSH2 0x2D6F JUMP JUMPDEST SWAP3 SWAP2 POP POP JUMP JUMPDEST PUSH1 0x0 PUSH1 0x4 SWAP1 POP SWAP2 SWAP1 POP JUMP JUMPDEST PUSH1 0x0 DUP2 SWAP1 POP SWAP3 SWAP2 POP POP JUMP JUMPDEST PUSH1 0x0 DUP2 SWAP1 POP SWAP2 SWAP1 POP JUMP JUMPDEST PUSH2 0x2DC2 DUP2 PUSH2 0x2BF8 JUMP JUMPDEST DUP3 MSTORE POP POP JUMP JUMPDEST PUSH1 0x0 PUSH2 0x2DD4 DUP4 DUP4 PUSH2 0x2DB9 JUMP JUMPDEST PUSH1 0x20 DUP4 ADD SWAP1 POP SWAP3 SWAP2 POP POP JUMP JUMPDEST PUSH1 0x0 PUSH1 0x20 DUP3 ADD SWAP1 POP SWAP2 SWAP1 POP JUMP JUMPDEST PUSH2 0x2DF6 DUP2 PUSH2 0x2D99 JUMP JUMPDEST PUSH2 0x2E00 DUP2 DUP5 PUSH2 0x2DA4 JUMP JUMPDEST SWAP3 POP PUSH2 0x2E0B DUP3 PUSH2 0x2DAF JUMP JUMPDEST DUP1 PUSH1 0x0 JUMPDEST DUP4 DUP2 LT ISZERO PUSH2 0x2E3C JUMPI DUP2 MLOAD PUSH2 0x2E23 DUP8 DUP3 PUSH2 0x2DC8 JUMP JUMPDEST SWAP7 POP PUSH2 0x2E2E DUP4 PUSH2 0x2DE0 JUMP JUMPDEST SWAP3 POP POP PUSH1 0x1 DUP2 ADD SWAP1 POP PUSH2 0x2E0F JUMP JUMPDEST POP POP POP POP POP POP JUMP JUMPDEST PUSH1 0x0 PUSH1 0x80 DUP3 ADD SWAP1 POP PUSH2 0x2E59 PUSH1 0x0 DUP4 ADD DUP5 PUSH2 0x2DED JUMP JUMPDEST SWAP3 SWAP2 POP POP JUMP JUMPDEST PUSH2 0x2E68 DUP2 PUSH2 0x2C54 JUMP JUMPDEST DUP3 MSTORE POP POP JUMP JUMPDEST PUSH1 0x0 PUSH1 0x20 DUP3 ADD SWAP1 POP PUSH2 0x2E83 PUSH1 0x0 DUP4 ADD DUP5 PUSH2 0x2E5F JUMP JUMPDEST SWAP3 SWAP2 POP POP JUMP JUMPDEST PUSH2 0x2E92 DUP2 PUSH2 0x2D61 JUMP JUMPDEST DUP2 EQ PUSH2 0x2E9D JUMPI PUSH1 0x0 DUP1 REVERT JUMPDEST POP JUMP JUMPDEST PUSH1 0x0 DUP2 CALLDATALOAD SWAP1 POP PUSH2 0x2EAF DUP2 PUSH2 0x2E89 JUMP JUMPDEST SWAP3 SWAP2 POP POP JUMP JUMPDEST PUSH1 0x0 DUP1 PUSH1 0x40 DUP4 DUP6 SUB SLT ISZERO PUSH2 0x2ECC JUMPI PUSH2 0x2ECB PUSH2 0x2C2F JUMP JUMPDEST JUMPDEST PUSH1 0x0 PUSH2 0x2EDA DUP6 DUP3 DUP7 ADD PUSH2 0x2C7D JUMP JUMPDEST SWAP3 POP POP PUSH1 0x20 PUSH2 0x2EEB DUP6 DUP3 DUP7 ADD PUSH2 0x2EA0 JUMP JUMPDEST SWAP2 POP POP SWAP3 POP SWAP3 SWAP1 POP JUMP JUMPDEST PUSH1 0x0 DUP2 SWAP1 POP SWAP2 SWAP1 POP JUMP JUMPDEST PUSH2 0x2F08 DUP2 PUSH2 0x2EF5 JUMP JUMPDEST DUP3 MSTORE POP POP JUMP JUMPDEST PUSH1 0x0 PUSH1 0x20 DUP3 ADD SWAP1 POP PUSH2 0x2F23 PUSH1 0x0 DUP4 ADD DUP5 PUSH2 0x2EFF JUMP JUMPDEST SWAP3 SWAP2 POP POP JUMP JUMPDEST PUSH1 0x0 PUSH1 0x40 DUP3 ADD SWAP1 POP PUSH2 0x2F3E PUSH1 0x0 DUP4 ADD DUP6 PUSH2 0x2C05 JUMP JUMPDEST PUSH2 0x2F4B PUSH1 0x20 DUP4 ADD DUP5 PUSH2 0x2C05 JUMP JUMPDEST SWAP4 SWAP3 POP POP POP JUMP JUMPDEST PUSH1 0x0 PUSH1 0x10 SWAP1 POP SWAP2 SWAP1 POP JUMP JUMPDEST PUSH1 0x0 DUP2 SWAP1 POP SWAP3 SWAP2 POP POP JUMP JUMPDEST PUSH1 0x0 DUP2 SWAP1 POP SWAP2 SWAP1 POP JUMP JUMPDEST PUSH1 0x0 PUSH1 0x20 DUP3 ADD SWAP1 POP SWAP2 SWAP1 POP JUMP JUMPDEST PUSH2 0x2F88 DUP2 PUSH2 0x2F52 JUMP JUMPDEST PUSH2 0x2F92 DUP2 DUP5 PUSH2 0x2F5D JUMP JUMPDEST SWAP3 POP PUSH2 0x2F9D DUP3 PUSH2 0x2F68 JUMP JUMPDEST DUP1 PUSH1 0x0 JUMPDEST DUP4 DUP2 LT ISZERO PUSH2 0x2FCE JUMPI DUP2 MLOAD PUSH2 0x2FB5 DUP8 DUP3 PUSH2 0x2DC8 JUMP JUMPDEST SWAP7 POP PUSH2 0x2FC0 DUP4 PUSH2 0x2F72 JUMP JUMPDEST SWAP3 POP POP PUSH1 0x1 DUP2 ADD SWAP1 POP PUSH2 0x2FA1 JUMP JUMPDEST POP POP POP POP POP POP JUMP JUMPDEST PUSH1 0x0 PUSH2 0x200 DUP3 ADD SWAP1 POP PUSH2 0x2FEC PUSH1 0x0 DUP4 ADD DUP5 PUSH2 0x2F7F JUMP JUMPDEST SWAP3 SWAP2 POP POP JUMP JUMPDEST PUSH1 0x0 DUP1 REVERT JUMPDEST PUSH1 0x0 DUP2 SWAP1 POP DUP3 PUSH1 0x20 PUSH1 0x8 MUL DUP3 ADD GT ISZERO PUSH2 0x3013 JUMPI PUSH2 0x3012 PUSH2 0x2FF2 JUMP JUMPDEST JUMPDEST SWAP3 SWAP2 POP POP JUMP JUMPDEST PUSH1 0x0 DUP2 SWAP1 POP DUP3 PUSH1 0x20 PUSH1 0x4 MUL DUP3 ADD GT ISZERO PUSH2 0x3035 JUMPI PUSH2 0x3034 PUSH2 0x2FF2 JUMP JUMPDEST JUMPDEST SWAP3 SWAP2 POP POP JUMP JUMPDEST PUSH1 0x0 DUP2 SWAP1 POP DUP3 PUSH1 0x20 PUSH1 0x2 MUL DUP3 ADD GT ISZERO PUSH2 0x3057 JUMPI PUSH2 0x3056 PUSH2 0x2FF2 JUMP JUMPDEST JUMPDEST SWAP3 SWAP2 POP POP JUMP JUMPDEST PUSH2 0x3066 DUP2 PUSH2 0x2BF8 JUMP JUMPDEST DUP2 EQ PUSH2 0x3071 JUMPI PUSH1 0x0 DUP1 REVERT JUMPDEST POP JUMP JUMPDEST PUSH1 0x0 DUP2 CALLDATALOAD SWAP1 POP PUSH2 0x3083 DUP2 PUSH2 0x305D JUMP JUMPDEST SWAP3 SWAP2 POP POP JUMP JUMPDEST PUSH1 0x0 DUP1 PUSH1 0x0 DUP1 PUSH1 0x0 PUSH2 0x200 DUP7 DUP9 SUB SLT ISZERO PUSH2 0x30A6 JUMPI PUSH2 0x30A5 PUSH2 0x2C2F JUMP JUMPDEST JUMPDEST PUSH1 0x0 PUSH2 0x30B4 DUP9 DUP3 DUP10 ADD PUSH2 0x2FF7 JUMP JUMPDEST SWAP6 POP POP PUSH2 0x100 PUSH2 0x30C6 DUP9 DUP3 DUP10 ADD PUSH2 0x3019 JUMP JUMPDEST SWAP5 POP POP PUSH2 0x180 PUSH2 0x30D8 DUP9 DUP3 DUP10 ADD PUSH2 0x303B JUMP JUMPDEST SWAP4 POP POP PUSH2 0x1C0 PUSH2 0x30EA DUP9 DUP3 DUP10 ADD PUSH2 0x3074 JUMP JUMPDEST SWAP3 POP POP PUSH2 0x1E0 PUSH2 0x30FC DUP9 DUP3 DUP10 ADD PUSH2 0x3074 JUMP JUMPDEST SWAP2 POP POP SWAP3 SWAP6 POP SWAP3 SWAP6 SWAP1 SWAP4 POP JUMP JUMPDEST PUSH1 0x0 PUSH1 0x8 SWAP1 POP SWAP2 SWAP1 POP JUMP JUMPDEST PUSH1 0x0 DUP2 SWAP1 POP SWAP3 SWAP2 POP POP JUMP JUMPDEST PUSH1 0x0 DUP2 SWAP1 POP SWAP2 SWAP1 POP JUMP JUMPDEST PUSH1 0x0 PUSH1 0x20 DUP3 ADD SWAP1 POP SWAP2 SWAP1 POP JUMP JUMPDEST PUSH2 0x313F DUP2 PUSH2 0x3109 JUMP JUMPDEST PUSH2 0x3149 DUP2 DUP5 PUSH2 0x3114 JUMP JUMPDEST SWAP3 POP PUSH2 0x3154 DUP3 PUSH2 0x311F JUMP JUMPDEST DUP1 PUSH1 0x0 JUMPDEST DUP4 DUP2 LT ISZERO PUSH2 0x3185 JUMPI DUP2 MLOAD PUSH2 0x316C DUP8 DUP3 PUSH2 0x2DC8 JUMP JUMPDEST SWAP7 POP PUSH2 0x3177 DUP4 PUSH2 0x3129 JUMP JUMPDEST SWAP3 POP POP PUSH1 0x1 DUP2 ADD SWAP1 POP PUSH2 0x3158 JUMP JUMPDEST POP POP POP POP POP POP JUMP JUMPDEST PUSH1 0x0 PUSH2 0x100 DUP3 ADD SWAP1 POP PUSH2 0x31A3 PUSH1 0x0 DUP4 ADD DUP5 PUSH2 0x3136 JUMP JUMPDEST SWAP3 SWAP2 POP POP JUMP JUMPDEST PUSH1 0x0 DUP2 SWAP1 POP DUP3 PUSH1 0x20 PUSH1 0x10 MUL DUP3 ADD GT ISZERO PUSH2 0x31C5 JUMPI PUSH2 0x31C4 PUSH2 0x2FF2 JUMP JUMPDEST JUMPDEST SWAP3 SWAP2 POP POP JUMP JUMPDEST PUSH1 0x0 PUSH2 0x200 DUP3 DUP5 SUB SLT ISZERO PUSH2 0x31E2 JUMPI PUSH2 0x31E1 PUSH2 0x2C2F JUMP JUMPDEST JUMPDEST PUSH1 0x0 PUSH2 0x31F0 DUP5 DUP3 DUP6 ADD PUSH2 0x31A9 JUMP JUMPDEST SWAP2 POP POP SWAP3 SWAP2 POP POP JUMP JUMPDEST PUSH1 0x0 PUSH1 0x20 DUP3 DUP5 SUB SLT ISZERO PUSH2 0x320F JUMPI PUSH2 0x320E PUSH2 0x2C2F JUMP JUMPDEST JUMPDEST PUSH1 0x0 PUSH2 0x321D DUP5 DUP3 DUP6 ADD PUSH2 0x2EA0 JUMP JUMPDEST SWAP2 POP POP SWAP3 SWAP2 POP POP JUMP JUMPDEST PUSH2 0x322F DUP2 PUSH2 0x2EF5 JUMP JUMPDEST DUP2 EQ PUSH2 0x323A JUMPI PUSH1 0x0 DUP1 REVERT JUMPDEST POP JUMP JUMPDEST PUSH1 0x0 DUP2 CALLDATALOAD SWAP1 POP PUSH2 0x324C DUP2 PUSH2 0x3226 JUMP JUMPDEST SWAP3 SWAP2 POP POP JUMP JUMPDEST PUSH1 0x0 PUSH1 0x20 DUP3 DUP5 SUB SLT ISZERO PUSH2 0x3268 JUMPI PUSH2 0x3267 PUSH2 0x2C2F JUMP JUMPDEST JUMPDEST PUSH1 0x0 PUSH2 0x3276 DUP5 DUP3 DUP6 ADD PUSH2 0x323D JUMP JUMPDEST SWAP2 POP POP SWAP3 SWAP2 POP POP JUMP JUMPDEST PUSH1 0x0 PUSH1 0x2 SWAP1 POP SWAP2 SWAP1 POP JUMP JUMPDEST PUSH1 0x0 DUP2 SWAP1 POP SWAP3 SWAP2 POP POP JUMP JUMPDEST PUSH1 0x0 DUP2 SWAP1 POP SWAP2 SWAP1 POP JUMP JUMPDEST PUSH1 0x0 PUSH1 0x20 DUP3 ADD SWAP1 POP SWAP2 SWAP1 POP JUMP JUMPDEST PUSH2 0x32B5 DUP2 PUSH2 0x327F JUMP JUMPDEST PUSH2 0x32BF DUP2 DUP5 PUSH2 0x328A JUMP JUMPDEST SWAP3 POP PUSH2 0x32CA DUP3 PUSH2 0x3295 JUMP JUMPDEST DUP1 PUSH1 0x0 JUMPDEST DUP4 DUP2 LT ISZERO PUSH2 0x32FB JUMPI DUP2 MLOAD PUSH2 0x32E2 DUP8 DUP3 PUSH2 0x2DC8 JUMP JUMPDEST SWAP7 POP PUSH2 0x32ED DUP4 PUSH2 0x329F JUMP JUMPDEST SWAP3 POP POP PUSH1 0x1 DUP2 ADD SWAP1 POP PUSH2 0x32CE JUMP JUMPDEST POP POP POP POP POP POP JUMP JUMPDEST PUSH1 0x0 PUSH1 0x40 DUP3 ADD SWAP1 POP PUSH2 0x3318 PUSH1 0x0 DUP4 ADD DUP5 PUSH2 0x32AC JUMP JUMPDEST SWAP3 SWAP2 POP POP JUMP JUMPDEST PUSH1 0x0 DUP3 DUP3 MSTORE PUSH1 0x20 DUP3 ADD SWAP1 POP SWAP3 SWAP2 POP POP JUMP JUMPDEST PUSH32 0x41646D696E61626C653A2063616C6C6572206973206E6F7420746865206F776E PUSH1 0x0 DUP3 ADD MSTORE PUSH32 0x6572000000000000000000000000000000000000000000000000000000000000 PUSH1 0x20 DUP3 ADD MSTORE POP JUMP JUMPDEST PUSH1 0x0 PUSH2 0x338B PUSH1 0x22 DUP4 PUSH2 0x331E JUMP JUMPDEST SWAP2 POP PUSH2 0x3396 DUP3 PUSH2 0x332F JUMP JUMPDEST PUSH1 0x40 DUP3 ADD SWAP1 POP SWAP2 SWAP1 POP JUMP JUMPDEST PUSH1 0x0 PUSH1 0x20 DUP3 ADD SWAP1 POP DUP2 DUP2 SUB PUSH1 0x0 DUP4 ADD MSTORE PUSH2 0x33BA DUP2 PUSH2 0x337E JUMP JUMPDEST SWAP1 POP SWAP2 SWAP1 POP JUMP JUMPDEST PUSH1 0x0 PUSH1 0x40 DUP3 ADD SWAP1 POP PUSH2 0x33D6 PUSH1 0x0 DUP4 ADD DUP6 PUSH2 0x2D37 JUMP JUMPDEST PUSH2 0x33E3 PUSH1 0x20 DUP4 ADD DUP5 PUSH2 0x2D37 JUMP JUMPDEST SWAP4 SWAP3 POP POP POP JUMP JUMPDEST PUSH32 0x4E487B7100000000000000000000000000000000000000000000000000000000 PUSH1 0x0 MSTORE PUSH1 0x11 PUSH1 0x4 MSTORE PUSH1 0x24 PUSH1 0x0 REVERT JUMPDEST PUSH1 0x0 PUSH2 0x3424 DUP3 PUSH2 0x2D61 JUMP JUMPDEST SWAP2 POP PUSH2 0x342F DUP4 PUSH2 0x2D61 JUMP JUMPDEST SWAP3 POP DUP3 PUSH2 0xFFFF SUB DUP3 GT ISZERO PUSH2 0x3446 JUMPI PUSH2 0x3445 PUSH2 0x33EA JUMP JUMPDEST JUMPDEST DUP3 DUP3 ADD SWAP1 POP SWAP3 SWAP2 POP POP JUMP JUMPDEST PUSH32 0x41646D696E61626C653A2063616C6C6572206973206E6F74207468652061646D PUSH1 0x0 DUP3 ADD MSTORE PUSH32 0x696E000000000000000000000000000000000000000000000000000000000000 PUSH1 0x20 DUP3 ADD MSTORE POP JUMP JUMPDEST PUSH1 0x0 PUSH2 0x34AD PUSH1 0x22 DUP4 PUSH2 0x331E JUMP JUMPDEST SWAP2 POP PUSH2 0x34B8 DUP3 PUSH2 0x3451 JUMP JUMPDEST PUSH1 0x40 DUP3 ADD SWAP1 POP SWAP2 SWAP1 POP JUMP JUMPDEST PUSH1 0x0 PUSH1 0x20 DUP3 ADD SWAP1 POP DUP2 DUP2 SUB PUSH1 0x0 DUP4 ADD MSTORE PUSH2 0x34DC DUP2 PUSH2 0x34A0 JUMP JUMPDEST SWAP1 POP SWAP2 SWAP1 POP JUMP JUMPDEST PUSH32 0x4E487B7100000000000000000000000000000000000000000000000000000000 PUSH1 0x0 MSTORE PUSH1 0x32 PUSH1 0x4 MSTORE PUSH1 0x24 PUSH1 0x0 REVERT JUMPDEST PUSH1 0x0 PUSH1 0x20 DUP3 DUP5 SUB SLT ISZERO PUSH2 0x3528 JUMPI PUSH2 0x3527 PUSH2 0x2C2F JUMP JUMPDEST JUMPDEST PUSH1 0x0 PUSH2 0x3536 DUP5 DUP3 DUP6 ADD PUSH2 0x3074 JUMP JUMPDEST SWAP2 POP POP SWAP3 SWAP2 POP POP JUMP JUMPDEST PUSH1 0x0 PUSH2 0x354A DUP3 PUSH2 0x2BF8 JUMP JUMPDEST SWAP2 POP PUSH1 0xFF DUP3 SUB PUSH2 0x355D JUMPI PUSH2 0x355C PUSH2 0x33EA JUMP JUMPDEST JUMPDEST PUSH1 0x1 DUP3 ADD SWAP1 POP SWAP2 SWAP1 POP JUMP JUMPDEST PUSH32 0x4F776E61626C653A206E6577206F776E657220697320746865207A65726F2061 PUSH1 0x0 DUP3 ADD MSTORE PUSH32 0x6464726573730000000000000000000000000000000000000000000000000000 PUSH1 0x20 DUP3 ADD MSTORE POP JUMP JUMPDEST PUSH1 0x0 PUSH2 0x35C4 PUSH1 0x26 DUP4 PUSH2 0x331E JUMP JUMPDEST SWAP2 POP PUSH2 0x35CF DUP3 PUSH2 0x3568 JUMP JUMPDEST PUSH1 0x40 DUP3 ADD SWAP1 POP SWAP2 SWAP1 POP JUMP JUMPDEST PUSH1 0x0 PUSH1 0x20 DUP3 ADD SWAP1 POP DUP2 DUP2 SUB PUSH1 0x0 DUP4 ADD MSTORE PUSH2 0x35F3 DUP2 PUSH2 0x35B7 JUMP JUMPDEST SWAP1 POP SWAP2 SWAP1 POP JUMP JUMPDEST PUSH1 0x0 PUSH2 0x3605 DUP3 PUSH2 0x2D61 JUMP JUMPDEST SWAP2 POP PUSH2 0xFFFF DUP3 SUB PUSH2 0x3619 JUMPI PUSH2 0x3618 PUSH2 0x33EA JUMP JUMPDEST JUMPDEST PUSH1 0x1 DUP3 ADD SWAP1 POP SWAP2 SWAP1 POP JUMP JUMPDEST PUSH32 0x7465616D7338206E6F7420696E207465616D7331360000000000000000000000 PUSH1 0x0 DUP3 ADD MSTORE POP JUMP JUMPDEST PUSH1 0x0 PUSH2 0x365A PUSH1 0x15 DUP4 PUSH2 0x331E JUMP JUMPDEST SWAP2 POP PUSH2 0x3665 DUP3 PUSH2 0x3624 JUMP JUMPDEST PUSH1 0x20 DUP3 ADD SWAP1 POP SWAP2 SWAP1 POP JUMP JUMPDEST PUSH1 0x0 PUSH1 0x20 DUP3 ADD SWAP1 POP DUP2 DUP2 SUB PUSH1 0x0 DUP4 ADD MSTORE PUSH2 0x3689 DUP2 PUSH2 0x364D JUMP JUMPDEST SWAP1 POP SWAP2 SWAP1 POP JUMP JUMPDEST PUSH32 0x5F7465616D7334206E6F7420696E205F7465616D733800000000000000000000 PUSH1 0x0 DUP3 ADD MSTORE POP JUMP JUMPDEST PUSH1 0x0 PUSH2 0x36C6 PUSH1 0x16 DUP4 PUSH2 0x331E JUMP JUMPDEST SWAP2 POP PUSH2 0x36D1 DUP3 PUSH2 0x3690 JUMP JUMPDEST PUSH1 0x20 DUP3 ADD SWAP1 POP SWAP2 SWAP1 POP JUMP JUMPDEST PUSH1 0x0 PUSH1 0x20 DUP3 ADD SWAP1 POP DUP2 DUP2 SUB PUSH1 0x0 DUP4 ADD MSTORE PUSH2 0x36F5 DUP2 PUSH2 0x36B9 JUMP JUMPDEST SWAP1 POP SWAP2 SWAP1 POP JUMP JUMPDEST PUSH32 0x5F7465616D7332206E6F7420696E205F7465616D733400000000000000000000 PUSH1 0x0 DUP3 ADD MSTORE POP JUMP JUMPDEST PUSH1 0x0 PUSH2 0x3732 PUSH1 0x16 DUP4 PUSH2 0x331E JUMP JUMPDEST SWAP2 POP PUSH2 0x373D DUP3 PUSH2 0x36FC JUMP JUMPDEST PUSH1 0x20 DUP3 ADD SWAP1 POP SWAP2 SWAP1 POP JUMP JUMPDEST PUSH1 0x0 PUSH1 0x20 DUP3 ADD SWAP1 POP DUP2 DUP2 SUB PUSH1 0x0 DUP4 ADD MSTORE PUSH2 0x3761 DUP2 PUSH2 0x3725 JUMP JUMPDEST SWAP1 POP SWAP2 SWAP1 POP JUMP JUMPDEST PUSH32 0x66697273745465616D206E6F7420696E205F7465616D73320000000000000000 PUSH1 0x0 DUP3 ADD MSTORE POP JUMP JUMPDEST PUSH1 0x0 PUSH2 0x379E PUSH1 0x18 DUP4 PUSH2 0x331E JUMP JUMPDEST SWAP2 POP PUSH2 0x37A9 DUP3 PUSH2 0x3768 JUMP JUMPDEST PUSH1 0x20 DUP3 ADD SWAP1 POP SWAP2 SWAP1 POP JUMP JUMPDEST PUSH1 0x0 PUSH1 0x20 DUP3 ADD SWAP1 POP DUP2 DUP2 SUB PUSH1 0x0 DUP4 ADD MSTORE PUSH2 0x37CD DUP2 PUSH2 0x3791 JUMP JUMPDEST SWAP1 POP SWAP2 SWAP1 POP JUMP JUMPDEST PUSH32 0x74687269645465616D206D757374206E6F7420696E205F7465616D7332000000 PUSH1 0x0 DUP3 ADD MSTORE POP JUMP JUMPDEST PUSH1 0x0 PUSH2 0x380A PUSH1 0x1D DUP4 PUSH2 0x331E JUMP JUMPDEST SWAP2 POP PUSH2 0x3815 DUP3 PUSH2 0x37D4 JUMP JUMPDEST PUSH1 0x20 DUP3 ADD SWAP1 POP SWAP2 SWAP1 POP JUMP JUMPDEST PUSH1 0x0 PUSH1 0x20 DUP3 ADD SWAP1 POP DUP2 DUP2 SUB PUSH1 0x0 DUP4 ADD MSTORE PUSH2 0x3839 DUP2 PUSH2 0x37FD JUMP JUMPDEST SWAP1 POP SWAP2 SWAP1 POP JUMP JUMPDEST PUSH32 0x74687269645465616D206D75737420696E205F7465616D733400000000000000 PUSH1 0x0 DUP3 ADD MSTORE POP JUMP JUMPDEST PUSH1 0x0 PUSH2 0x3876 PUSH1 0x19 DUP4 PUSH2 0x331E JUMP JUMPDEST SWAP2 POP PUSH2 0x3881 DUP3 PUSH2 0x3840 JUMP JUMPDEST PUSH1 0x20 DUP3 ADD SWAP1 POP SWAP2 SWAP1 POP JUMP JUMPDEST PUSH1 0x0 PUSH1 0x20 DUP3 ADD SWAP1 POP DUP2 DUP2 SUB PUSH1 0x0 DUP4 ADD MSTORE PUSH2 0x38A5 DUP2 PUSH2 0x3869 JUMP JUMPDEST SWAP1 POP SWAP2 SWAP1 POP JUMP INVALID LOG2 PUSH5 0x6970667358 0x22 SLT KECCAK256 LOG4 PUSH30 0x19A5C76D3D284150C5EA33C6B4E4E9ABA09E8EDD37168BEA3BBB7102AC94 PUSH5 0x736F6C6343 STOP ADDMOD 0xD STOP CALLER "
				},
				"gasEstimates": {
					"creation": {
						"codeDepositCost": "2912400",
						"executionCost": "infinite",
						"totalCost": "infinite"
					},
					"external": {
						"claimForecastRewards(uint16)": "434",
						"cupNft()": "2537",
						"enterForecast(uint8[8],uint8[4],uint8[2],uint8,uint8)": "infinite",
						"gameResult()": "infinite",
						"getGameResultFirst()": "2509",
						"getGameResultTeams2()": "infinite",
						"getGameResultTeams4()": "infinite",
						"getGameResultTeams8()": "infinite",
						"getGameResultThird()": "2579",
						"getTeam16Tokenid()": "infinite",
						"getUserForecastRewards(address,uint16)": "867",
						"getUserHits(address,uint16)": "infinite",
						"isAdmin(address)": "2951",
						"modificationAdmin(address,bool)": "infinite",
						"openForecast(uint8[8],uint8[4],uint8[2],uint8,uint8)": "infinite",
						"openTime()": "2562",
						"owner()": "2655",
						"renounceOwnership()": "30441",
						"setTeam16Tokenid(uint8[16])": "infinite",
						"team16(uint256)": "4453",
						"transferOwnership(address)": "30830",
						"userForecastInfo(address,uint16)": "infinite",
						"userForecastNumbers(address)": "2935"
					},
					"internal": {
						"_checkFirst(uint8[2] calldata,uint8)": "infinite",
						"_checkTeams2(uint8[4] calldata,uint8[2] calldata)": "infinite",
						"_checkTeams4(uint8[8] calldata,uint8[4] calldata)": "infinite",
						"_checkTeams8(uint8[8] calldata)": "infinite",
						"_checkThrid(uint8[4] calldata,uint8[2] calldata,uint8)": "infinite",
						"_hit2(uint8[2] memory)": "infinite",
						"_hit4(uint8[4] memory)": "infinite",
						"_hit8(uint8[8] memory)": "infinite",
						"_hitFirst(uint8)": "2251",
						"_hitThrid(uint8)": "2301"
					}
				},
				"methodIdentifiers": {
					"claimForecastRewards(uint16)": "ba43c3ec",
					"cupNft()": "37d87a61",
					"enterForecast(uint8[8],uint8[4],uint8[2],uint8,uint8)": "9e79c1d4",
					"gameResult()": "7152f800",
					"getGameResultFirst()": "080582af",
					"getGameResultTeams2()": "db471ea4",
					"getGameResultTeams4()": "353eb8d4",
					"getGameResultTeams8()": "9ec6ef33",
					"getGameResultThird()": "d28fc7c5",
					"getTeam16Tokenid()": "830ee448",
					"getUserForecastRewards(address,uint16)": "6ca9378f",
					"getUserHits(address,uint16)": "aa0aa29d",
					"isAdmin(address)": "24d7806c",
					"modificationAdmin(address,bool)": "18e20ecf",
					"openForecast(uint8[8],uint8[4],uint8[2],uint8,uint8)": "f4c00ff5",
					"openTime()": "b4256888",
					"owner()": "8da5cb5b",
					"renounceOwnership()": "715018a6",
					"setTeam16Tokenid(uint8[16])": "a1f902be",
					"team16(uint256)": "d46ee691",
					"transferOwnership(address)": "f2fde38b",
					"userForecastInfo(address,uint16)": "b1c5f9c6",
					"userForecastNumbers(address)": "27cf7e77"
				}
			},
			"storageLayout": {
				"storage": [
					{
						"astId": 26,
						"contract": "worldcup/GameForecast.sol:GameForecast",
						"label": "_admins",
						"offset": 0,
						"slot": "0",
						"type": "t_mapping(t_address,t_bool)"
					},
					{
						"astId": 28,
						"contract": "worldcup/GameForecast.sol:GameForecast",
						"label": "_owner",
						"offset": 0,
						"slot": "1",
						"type": "t_address"
					},
					{
						"astId": 182,
						"contract": "worldcup/GameForecast.sol:GameForecast",
						"label": "cupNft",
						"offset": 0,
						"slot": "2",
						"type": "t_address"
					},
					{
						"astId": 203,
						"contract": "worldcup/GameForecast.sol:GameForecast",
						"label": "team16",
						"offset": 0,
						"slot": "3",
						"type": "t_array(t_uint8)16_storage"
					},
					{
						"astId": 205,
						"contract": "worldcup/GameForecast.sol:GameForecast",
						"label": "openTime",
						"offset": 0,
						"slot": "4",
						"type": "t_uint256"
					},
					{
						"astId": 209,
						"contract": "worldcup/GameForecast.sol:GameForecast",
						"label": "userForecastNumbers",
						"offset": 0,
						"slot": "5",
						"type": "t_mapping(t_address,t_uint16)"
					},
					{
						"astId": 216,
						"contract": "worldcup/GameForecast.sol:GameForecast",
						"label": "userForecastInfo",
						"offset": 0,
						"slot": "6",
						"type": "t_mapping(t_address,t_mapping(t_uint16,t_struct(TeamInfo)199_storage))"
					},
					{
						"astId": 219,
						"contract": "worldcup/GameForecast.sol:GameForecast",
						"label": "gameResult",
						"offset": 0,
						"slot": "7",
						"type": "t_struct(TeamInfo)199_storage"
					}
				],
				"types": {
					"t_address": {
						"encoding": "inplace",
						"label": "address",
						"numberOfBytes": "20"
					},
					"t_array(t_uint8)16_storage": {
						"base": "t_uint8",
						"encoding": "inplace",
						"label": "uint8[16]",
						"numberOfBytes": "32"
					},
					"t_array(t_uint8)2_storage": {
						"base": "t_uint8",
						"encoding": "inplace",
						"label": "uint8[2]",
						"numberOfBytes": "32"
					},
					"t_array(t_uint8)4_storage": {
						"base": "t_uint8",
						"encoding": "inplace",
						"label": "uint8[4]",
						"numberOfBytes": "32"
					},
					"t_array(t_uint8)8_storage": {
						"base": "t_uint8",
						"encoding": "inplace",
						"label": "uint8[8]",
						"numberOfBytes": "32"
					},
					"t_bool": {
						"encoding": "inplace",
						"label": "bool",
						"numberOfBytes": "1"
					},
					"t_mapping(t_address,t_bool)": {
						"encoding": "mapping",
						"key": "t_address",
						"label": "mapping(address => bool)",
						"numberOfBytes": "32",
						"value": "t_bool"
					},
					"t_mapping(t_address,t_mapping(t_uint16,t_struct(TeamInfo)199_storage))": {
						"encoding": "mapping",
						"key": "t_address",
						"label": "mapping(address => mapping(uint16 => struct GameForecast.TeamInfo))",
						"numberOfBytes": "32",
						"value": "t_mapping(t_uint16,t_struct(TeamInfo)199_storage)"
					},
					"t_mapping(t_address,t_uint16)": {
						"encoding": "mapping",
						"key": "t_address",
						"label": "mapping(address => uint16)",
						"numberOfBytes": "32",
						"value": "t_uint16"
					},
					"t_mapping(t_uint16,t_struct(TeamInfo)199_storage)": {
						"encoding": "mapping",
						"key": "t_uint16",
						"label": "mapping(uint16 => struct GameForecast.TeamInfo)",
						"numberOfBytes": "32",
						"value": "t_struct(TeamInfo)199_storage"
					},
					"t_struct(TeamInfo)199_storage": {
						"encoding": "inplace",
						"label": "struct GameForecast.TeamInfo",
						"members": [
							{
								"astId": 186,
								"contract": "worldcup/GameForecast.sol:GameForecast",
								"label": "teams8",
								"offset": 0,
								"slot": "0",
								"type": "t_array(t_uint8)8_storage"
							},
							{
								"astId": 190,
								"contract": "worldcup/GameForecast.sol:GameForecast",
								"label": "teams4",
								"offset": 0,
								"slot": "1",
								"type": "t_array(t_uint8)4_storage"
							},
							{
								"astId": 194,
								"contract": "worldcup/GameForecast.sol:GameForecast",
								"label": "teams2",
								"offset": 0,
								"slot": "2",
								"type": "t_array(t_uint8)2_storage"
							},
							{
								"astId": 196,
								"contract": "worldcup/GameForecast.sol:GameForecast",
								"label": "first",
								"offset": 0,
								"slot": "3",
								"type": "t_uint8"
							},
							{
								"astId": 198,
								"contract": "worldcup/GameForecast.sol:GameForecast",
								"label": "third",
								"offset": 1,
								"slot": "3",
								"type": "t_uint8"
							}
						],
						"numberOfBytes": "128"
					},
					"t_uint16": {
						"encoding": "inplace",
						"label": "uint16",
						"numberOfBytes": "2"
					},
					"t_uint256": {
						"encoding": "inplace",
						"label": "uint256",
						"numberOfBytes": "32"
					},
					"t_uint8": {
						"encoding": "inplace",
						"label": "uint8",
						"numberOfBytes": "1"
					}
				}
			},
			"userdoc": {
				"kind": "user",
				"methods": {},
				"version": 1
			}
		}
	}
}