{
	"worldcup/DreamChallenge.sol": {
		"DreamChallenge": {
			"abi": [
				{
					"anonymous": false,
					"inputs": [
						{
							"indexed": true,
							"internalType": "address",
							"name": "admin",
							"type": "address"
						},
						{
							"indexed": false,
							"internalType": "enum DreamChallenge.Ctype",
							"name": "ctype",
							"type": "uint8"
						},
						{
							"indexed": false,
							"internalType": "uint16",
							"name": "challengeId",
							"type": "uint16"
						},
						{
							"indexed": false,
							"internalType": "uint256",
							"name": "startAt",
							"type": "uint256"
						},
						{
							"indexed": false,
							"internalType": "uint256",
							"name": "endAt",
							"type": "uint256"
						},
						{
							"indexed": false,
							"internalType": "uint256",
							"name": "tokenIdLeft",
							"type": "uint256"
						},
						{
							"indexed": false,
							"internalType": "uint256",
							"name": "tokenIdRigth",
							"type": "uint256"
						}
					],
					"name": "AddChallenge",
					"type": "event"
				},
				{
					"anonymous": false,
					"inputs": [
						{
							"indexed": true,
							"internalType": "address",
							"name": "user",
							"type": "address"
						},
						{
							"indexed": false,
							"internalType": "uint16",
							"name": "challengeId",
							"type": "uint16"
						},
						{
							"indexed": false,
							"internalType": "uint256",
							"name": "tokenid",
							"type": "uint256"
						},
						{
							"indexed": false,
							"internalType": "uint256",
							"name": "amount",
							"type": "uint256"
						}
					],
					"name": "EnterChallenge",
					"type": "event"
				},
				{
					"anonymous": false,
					"inputs": [
						{
							"indexed": true,
							"internalType": "address",
							"name": "admin",
							"type": "address"
						},
						{
							"indexed": false,
							"internalType": "bool",
							"name": "oldState",
							"type": "bool"
						},
						{
							"indexed": false,
							"internalType": "bool",
							"name": "newState",
							"type": "bool"
						}
					],
					"name": "ModificationAdmin",
					"type": "event"
				},
				{
					"anonymous": false,
					"inputs": [
						{
							"indexed": true,
							"internalType": "address",
							"name": "admin",
							"type": "address"
						},
						{
							"indexed": false,
							"internalType": "uint16",
							"name": "challenageId",
							"type": "uint16"
						}
					],
					"name": "OpenChallenge",
					"type": "event"
				},
				{
					"anonymous": false,
					"inputs": [
						{
							"indexed": true,
							"internalType": "address",
							"name": "previousOwner",
							"type": "address"
						},
						{
							"indexed": true,
							"internalType": "address",
							"name": "newOwner",
							"type": "address"
						}
					],
					"name": "OwnershipTransferred",
					"type": "event"
				},
				{
					"anonymous": false,
					"inputs": [
						{
							"indexed": true,
							"internalType": "address",
							"name": "user",
							"type": "address"
						},
						{
							"indexed": false,
							"internalType": "uint16",
							"name": "challageId",
							"type": "uint16"
						},
						{
							"indexed": false,
							"internalType": "uint256",
							"name": "amount",
							"type": "uint256"
						}
					],
					"name": "WithdrawReward",
					"type": "event"
				},
				{
					"inputs": [
						{
							"internalType": "enum DreamChallenge.Ctype",
							"name": "_ctype",
							"type": "uint8"
						},
						{
							"internalType": "uint256",
							"name": "_startAt",
							"type": "uint256"
						},
						{
							"internalType": "uint256",
							"name": "_endAt",
							"type": "uint256"
						},
						{
							"internalType": "uint256",
							"name": "_tokenIdLeft",
							"type": "uint256"
						},
						{
							"internalType": "uint256",
							"name": "_tokenIdRight",
							"type": "uint256"
						}
					],
					"name": "addChallenge",
					"outputs": [],
					"stateMutability": "nonpayable",
					"type": "function"
				},
				{
					"inputs": [],
					"name": "challengeIdInex",
					"outputs": [
						{
							"internalType": "uint16",
							"name": "",
							"type": "uint16"
						}
					],
					"stateMutability": "view",
					"type": "function"
				},
				{
					"inputs": [
						{
							"internalType": "uint16",
							"name": "_id",
							"type": "uint16"
						},
						{
							"internalType": "uint256",
							"name": "_tokenid",
							"type": "uint256"
						},
						{
							"internalType": "uint256",
							"name": "_amount",
							"type": "uint256"
						}
					],
					"name": "enterChallenge",
					"outputs": [],
					"stateMutability": "nonpayable",
					"type": "function"
				},
				{
					"inputs": [
						{
							"internalType": "uint16",
							"name": "challengeId",
							"type": "uint16"
						}
					],
					"name": "getChallengeInfo",
					"outputs": [
						{
							"components": [
								{
									"internalType": "enum DreamChallenge.Ctype",
									"name": "ctype",
									"type": "uint8"
								},
								{
									"internalType": "uint16",
									"name": "id",
									"type": "uint16"
								},
								{
									"internalType": "uint256",
									"name": "startAt",
									"type": "uint256"
								},
								{
									"internalType": "uint256",
									"name": "endAt",
									"type": "uint256"
								},
								{
									"internalType": "uint256",
									"name": "tokenIdLeft",
									"type": "uint256"
								},
								{
									"internalType": "uint256",
									"name": "tokenIdRight",
									"type": "uint256"
								},
								{
									"internalType": "uint256",
									"name": "leftTotalAmount",
									"type": "uint256"
								},
								{
									"internalType": "uint256",
									"name": "rightTotalAmount",
									"type": "uint256"
								},
								{
									"internalType": "uint256",
									"name": "winnerTokenId",
									"type": "uint256"
								}
							],
							"internalType": "struct DreamChallenge.Challenge",
							"name": "",
							"type": "tuple"
						}
					],
					"stateMutability": "view",
					"type": "function"
				},
				{
					"inputs": [
						{
							"internalType": "address",
							"name": "account",
							"type": "address"
						},
						{
							"internalType": "uint16",
							"name": "challengeId",
							"type": "uint16"
						}
					],
					"name": "getUserChallengeInfo",
					"outputs": [
						{
							"components": [
								{
									"internalType": "uint16",
									"name": "challengeId",
									"type": "uint16"
								},
								{
									"internalType": "uint256",
									"name": "amountsLeft",
									"type": "uint256"
								},
								{
									"internalType": "uint256",
									"name": "amountsRight",
									"type": "uint256"
								},
								{
									"internalType": "bool",
									"name": "isTakeReward",
									"type": "bool"
								}
							],
							"internalType": "struct DreamChallenge.UserInfo",
							"name": "",
							"type": "tuple"
						}
					],
					"stateMutability": "view",
					"type": "function"
				},
				{
					"inputs": [
						{
							"internalType": "address",
							"name": "account",
							"type": "address"
						}
					],
					"name": "getUserChallenges",
					"outputs": [
						{
							"internalType": "uint16[]",
							"name": "",
							"type": "uint16[]"
						}
					],
					"stateMutability": "view",
					"type": "function"
				},
				{
					"inputs": [
						{
							"internalType": "address",
							"name": "account",
							"type": "address"
						},
						{
							"internalType": "uint16",
							"name": "challengeId",
							"type": "uint16"
						}
					],
					"name": "getUserRewards",
					"outputs": [
						{
							"internalType": "uint256",
							"name": "",
							"type": "uint256"
						}
					],
					"stateMutability": "view",
					"type": "function"
				},
				{
					"inputs": [
						{
							"internalType": "address",
							"name": "account",
							"type": "address"
						}
					],
					"name": "isAdmin",
					"outputs": [
						{
							"internalType": "bool",
							"name": "",
							"type": "bool"
						}
					],
					"stateMutability": "view",
					"type": "function"
				},
				{
					"inputs": [
						{
							"internalType": "address",
							"name": "admin",
							"type": "address"
						},
						{
							"internalType": "bool",
							"name": "state",
							"type": "bool"
						}
					],
					"name": "modificationAdmin",
					"outputs": [],
					"stateMutability": "nonpayable",
					"type": "function"
				},
				{
					"inputs": [],
					"name": "nftCost",
					"outputs": [
						{
							"internalType": "uint256",
							"name": "",
							"type": "uint256"
						}
					],
					"stateMutability": "view",
					"type": "function"
				},
				{
					"inputs": [
						{
							"internalType": "address",
							"name": "",
							"type": "address"
						},
						{
							"internalType": "address",
							"name": "",
							"type": "address"
						},
						{
							"internalType": "uint256[]",
							"name": "",
							"type": "uint256[]"
						},
						{
							"internalType": "uint256[]",
							"name": "",
							"type": "uint256[]"
						},
						{
							"internalType": "bytes",
							"name": "",
							"type": "bytes"
						}
					],
					"name": "onERC1155BatchReceived",
					"outputs": [
						{
							"internalType": "bytes4",
							"name": "",
							"type": "bytes4"
						}
					],
					"stateMutability": "nonpayable",
					"type": "function"
				},
				{
					"inputs": [
						{
							"internalType": "address",
							"name": "",
							"type": "address"
						},
						{
							"internalType": "address",
							"name": "",
							"type": "address"
						},
						{
							"internalType": "uint256",
							"name": "",
							"type": "uint256"
						},
						{
							"internalType": "uint256",
							"name": "",
							"type": "uint256"
						},
						{
							"internalType": "bytes",
							"name": "",
							"type": "bytes"
						}
					],
					"name": "onERC1155Received",
					"outputs": [
						{
							"internalType": "bytes4",
							"name": "",
							"type": "bytes4"
						}
					],
					"stateMutability": "nonpayable",
					"type": "function"
				},
				{
					"inputs": [
						{
							"internalType": "uint16",
							"name": "challengeId",
							"type": "uint16"
						},
						{
							"internalType": "uint256",
							"name": "winnerTokenId",
							"type": "uint256"
						}
					],
					"name": "openChallenge",
					"outputs": [],
					"stateMutability": "nonpayable",
					"type": "function"
				},
				{
					"inputs": [],
					"name": "owner",
					"outputs": [
						{
							"internalType": "address",
							"name": "",
							"type": "address"
						}
					],
					"stateMutability": "view",
					"type": "function"
				},
				{
					"inputs": [],
					"name": "renounceOwnership",
					"outputs": [],
					"stateMutability": "nonpayable",
					"type": "function"
				},
				{
					"inputs": [],
					"name": "rewardToken",
					"outputs": [
						{
							"internalType": "address",
							"name": "",
							"type": "address"
						}
					],
					"stateMutability": "view",
					"type": "function"
				},
				{
					"inputs": [
						{
							"internalType": "uint256",
							"name": "_amount",
							"type": "uint256"
						}
					],
					"name": "setNftCost",
					"outputs": [],
					"stateMutability": "nonpayable",
					"type": "function"
				},
				{
					"inputs": [
						{
							"internalType": "address",
							"name": "_token",
							"type": "address"
						}
					],
					"name": "setRewardToken",
					"outputs": [],
					"stateMutability": "nonpayable",
					"type": "function"
				},
				{
					"inputs": [
						{
							"internalType": "address",
							"name": "_nft",
							"type": "address"
						}
					],
					"name": "setTeamNft",
					"outputs": [],
					"stateMutability": "nonpayable",
					"type": "function"
				},
				{
					"inputs": [
						{
							"internalType": "bytes4",
							"name": "interfaceId",
							"type": "bytes4"
						}
					],
					"name": "supportsInterface",
					"outputs": [
						{
							"internalType": "bool",
							"name": "",
							"type": "bool"
						}
					],
					"stateMutability": "view",
					"type": "function"
				},
				{
					"inputs": [],
					"name": "teamNft",
					"outputs": [
						{
							"internalType": "address",
							"name": "",
							"type": "address"
						}
					],
					"stateMutability": "view",
					"type": "function"
				},
				{
					"inputs": [
						{
							"internalType": "address",
							"name": "newOwner",
							"type": "address"
						}
					],
					"name": "transferOwnership",
					"outputs": [],
					"stateMutability": "nonpayable",
					"type": "function"
				},
				{
					"inputs": [
						{
							"internalType": "uint16",
							"name": "_challengeId",
							"type": "uint16"
						}
					],
					"name": "withdrawReward",
					"outputs": [],
					"stateMutability": "nonpayable",
					"type": "function"
				}
			],
			"devdoc": {
				"kind": "dev",
				"methods": {
					"supportsInterface(bytes4)": {
						"details": "See {IERC165-supportsInterface}."
					}
				},
				"version": 1
			},
			"evm": {
				"assembly": "    /* \"worldcup/DreamChallenge.sol\":498:6535  contract DreamChallenge is Adminable, ERC1155Holder{... */\n  mstore(0x40, 0x80)\n    /* \"worldcup/DreamChallenge.sol\":652:653  1 */\n  0x01\n    /* \"worldcup/DreamChallenge.sol\":620:653  uint16 public challengeIdInex = 1 */\n  0x03\n  exp(0x0100, 0x14)\n  dup2\n  sload\n  dup2\n  0xffff\n  mul\n  not\n  and\n  swap1\n  dup4\n  0xffff\n  and\n  mul\n  or\n  swap1\n  sstore\n  pop\n    /* \"worldcup/DreamChallenge.sol\":685:697  1 * 10 ** 18 */\n  0x0de0b6b3a7640000\n    /* \"worldcup/DreamChallenge.sol\":660:697  uint256 public nftCost = 1 * 10 ** 18 */\n  0x04\n  sstore\n    /* \"worldcup/DreamChallenge.sol\":498:6535  contract DreamChallenge is Adminable, ERC1155Holder{... */\n  callvalue\n  dup1\n  iszero\n  tag_1\n  jumpi\n  0x00\n  dup1\n  revert\ntag_1:\n  pop\n    /* \"worldcup/Adminable.sol\":605:637  _transferOwnership(_msgSender()) */\n  tag_4\n    /* \"worldcup/Adminable.sol\":624:636  _msgSender() */\n  tag_5\n    /* \"worldcup/Adminable.sol\":624:634  _msgSender */\n  shl(0x20, tag_6)\n    /* \"worldcup/Adminable.sol\":624:636  _msgSender() */\n  0x20\n  shr\n  jump\t// in\ntag_5:\n    /* \"worldcup/Adminable.sol\":605:623  _transferOwnership */\n  shl(0x20, tag_7)\n    /* \"worldcup/Adminable.sol\":605:637  _transferOwnership(_msgSender()) */\n  0x20\n  shr\n  jump\t// in\ntag_4:\n    /* \"worldcup/DreamChallenge.sol\":498:6535  contract DreamChallenge is Adminable, ERC1155Holder{... */\n  jump(tag_8)\n    /* \"worldcup/Adminable.sol\":64:162  function _msgSender() internal view virtual returns (address) {... */\ntag_6:\n    /* \"worldcup/Adminable.sol\":117:124  address */\n  0x00\n    /* \"worldcup/Adminable.sol\":144:154  msg.sender */\n  caller\n    /* \"worldcup/Adminable.sol\":137:154  return msg.sender */\n  swap1\n  pop\n    /* \"worldcup/Adminable.sol\":64:162  function _msgSender() internal view virtual returns (address) {... */\n  swap1\n  jump\t// out\n    /* \"worldcup/Adminable.sol\":1445:1636  function _transferOwnership(address newOwner) internal virtual {... */\ntag_7:\n    /* \"worldcup/Adminable.sol\":1519:1535  address oldOwner */\n  0x00\n    /* \"worldcup/Adminable.sol\":1538:1544  _owner */\n  0x01\n  0x00\n  swap1\n  sload\n  swap1\n  0x0100\n  exp\n  swap1\n  div\n  0xffffffffffffffffffffffffffffffffffffffff\n  and\n    /* \"worldcup/Adminable.sol\":1519:1544  address oldOwner = _owner */\n  swap1\n  pop\n    /* \"worldcup/Adminable.sol\":1564:1572  newOwner */\n  dup2\n    /* \"worldcup/Adminable.sol\":1555:1561  _owner */\n  0x01\n  0x00\n    /* \"worldcup/Adminable.sol\":1555:1572  _owner = newOwner */\n  0x0100\n  exp\n  dup2\n  sload\n  dup2\n  0xffffffffffffffffffffffffffffffffffffffff\n  mul\n  not\n  and\n  swap1\n  dup4\n  0xffffffffffffffffffffffffffffffffffffffff\n  and\n  mul\n  or\n  swap1\n  sstore\n  pop\n    /* \"worldcup/Adminable.sol\":1619:1627  newOwner */\n  dup2\n    /* \"worldcup/Adminable.sol\":1588:1628  OwnershipTransferred(oldOwner, newOwner) */\n  0xffffffffffffffffffffffffffffffffffffffff\n  and\n    /* \"worldcup/Adminable.sol\":1609:1617  oldOwner */\n  dup2\n    /* \"worldcup/Adminable.sol\":1588:1628  OwnershipTransferred(oldOwner, newOwner) */\n  0xffffffffffffffffffffffffffffffffffffffff\n  and\n  0x8be0079c531659141344cd1fd0a4f28419497f9722a3daafe3b4186f6b6457e0\n  mload(0x40)\n  mload(0x40)\n  dup1\n  swap2\n  sub\n  swap1\n  log3\n    /* \"worldcup/Adminable.sol\":1508:1636  {... */\n  pop\n    /* \"worldcup/Adminable.sol\":1445:1636  function _transferOwnership(address newOwner) internal virtual {... */\n  pop\n  jump\t// out\n    /* \"worldcup/DreamChallenge.sol\":498:6535  contract DreamChallenge is Adminable, ERC1155Holder{... */\ntag_8:\n  dataSize(sub_0)\n  dup1\n  dataOffset(sub_0)\n  0x00\n  codecopy\n  0x00\n  return\nstop\n\nsub_0: assembly {\n        /* \"worldcup/DreamChallenge.sol\":498:6535  contract DreamChallenge is Adminable, ERC1155Holder{... */\n      mstore(0x40, 0x80)\n      callvalue\n      dup1\n      iszero\n      tag_1\n      jumpi\n      0x00\n      dup1\n      revert\n    tag_1:\n      pop\n      jumpi(tag_2, lt(calldatasize, 0x04))\n      shr(0xe0, calldataload(0x00))\n      dup1\n      0x891ee6d3\n      gt\n      tag_26\n      jumpi\n      dup1\n      0xda80e59b\n      gt\n      tag_27\n      jumpi\n      dup1\n      0xda80e59b\n      eq\n      tag_20\n      jumpi\n      dup1\n      0xf23a6e61\n      eq\n      tag_21\n      jumpi\n      dup1\n      0xf2fde38b\n      eq\n      tag_22\n      jumpi\n      dup1\n      0xf606faea\n      eq\n      tag_23\n      jumpi\n      dup1\n      0xf7c618c1\n      eq\n      tag_24\n      jumpi\n      dup1\n      0xffa65732\n      eq\n      tag_25\n      jumpi\n      jump(tag_2)\n    tag_27:\n      dup1\n      0x891ee6d3\n      eq\n      tag_14\n      jumpi\n      dup1\n      0x8aee8127\n      eq\n      tag_15\n      jumpi\n      dup1\n      0x8da5cb5b\n      eq\n      tag_16\n      jumpi\n      dup1\n      0xa278602f\n      eq\n      tag_17\n      jumpi\n      dup1\n      0xbc197c81\n      eq\n      tag_18\n      jumpi\n      dup1\n      0xd5bf583b\n      eq\n      tag_19\n      jumpi\n      jump(tag_2)\n    tag_26:\n      dup1\n      0x24d7806c\n      gt\n      tag_28\n      jumpi\n      dup1\n      0x24d7806c\n      eq\n      tag_8\n      jumpi\n      dup1\n      0x270e3994\n      eq\n      tag_9\n      jumpi\n      dup1\n      0x52964def\n      eq\n      tag_10\n      jumpi\n      dup1\n      0x6cd262fb\n      eq\n      tag_11\n      jumpi\n      dup1\n      0x715018a6\n      eq\n      tag_12\n      jumpi\n      dup1\n      0x749f3429\n      eq\n      tag_13\n      jumpi\n      jump(tag_2)\n    tag_28:\n      dup1\n      0x01ffc9a7\n      eq\n      tag_3\n      jumpi\n      dup1\n      0x082d0785\n      eq\n      tag_4\n      jumpi\n      dup1\n      0x11da8e54\n      eq\n      tag_5\n      jumpi\n      dup1\n      0x18e20ecf\n      eq\n      tag_6\n      jumpi\n      dup1\n      0x21569088\n      eq\n      tag_7\n      jumpi\n    tag_2:\n      0x00\n      dup1\n      revert\n        /* \"https://github.com/OpenZeppelin/openzeppelin-contracts/blob/master/contracts/token/ERC1155/utils/ERC1155Receiver.sol\":387:608  function supportsInterface(bytes4 interfaceId) public view virtual override(ERC165, IERC165) returns (bool) {... */\n    tag_3:\n      tag_29\n      0x04\n      dup1\n      calldatasize\n      sub\n      dup2\n      add\n      swap1\n      tag_30\n      swap2\n      swap1\n      tag_31\n      jump\t// in\n    tag_30:\n      tag_32\n      jump\t// in\n    tag_29:\n      mload(0x40)\n      tag_33\n      swap2\n      swap1\n      tag_34\n      jump\t// in\n    tag_33:\n      mload(0x40)\n      dup1\n      swap2\n      sub\n      swap1\n      return\n        /* \"worldcup/DreamChallenge.sol\":3954:4796  function withdrawReward(uint16 _challengeId) public {... */\n    tag_4:\n      tag_35\n      0x04\n      dup1\n      calldatasize\n      sub\n      dup2\n      add\n      swap1\n      tag_36\n      swap2\n      swap1\n      tag_37\n      jump\t// in\n    tag_36:\n      tag_38\n      jump\t// in\n    tag_35:\n      stop\n        /* \"worldcup/DreamChallenge.sol\":6085:6217  function getUserChallenges(address account) public view returns(uint16[] memory) {... */\n    tag_5:\n      tag_39\n      0x04\n      dup1\n      calldatasize\n      sub\n      dup2\n      add\n      swap1\n      tag_40\n      swap2\n      swap1\n      tag_41\n      jump\t// in\n    tag_40:\n      tag_42\n      jump\t// in\n    tag_39:\n      mload(0x40)\n      tag_43\n      swap2\n      swap1\n      tag_44\n      jump\t// in\n    tag_43:\n      mload(0x40)\n      dup1\n      swap2\n      sub\n      swap1\n      return\n        /* \"worldcup/Adminable.sol\":1644:1828  function modificationAdmin(address admin, bool state) public virtual onlyOwner {... */\n    tag_6:\n      tag_45\n      0x04\n      dup1\n      calldatasize\n      sub\n      dup2\n      add\n      swap1\n      tag_46\n      swap2\n      swap1\n      tag_47\n      jump\t// in\n    tag_46:\n      tag_48\n      jump\t// in\n    tag_45:\n      stop\n        /* \"worldcup/DreamChallenge.sol\":5433:6077  function getUserRewards(address account, uint16 challengeId) public view returns(uint256){... */\n    tag_7:\n      tag_49\n      0x04\n      dup1\n      calldatasize\n      sub\n      dup2\n      add\n      swap1\n      tag_50\n      swap2\n      swap1\n      tag_51\n      jump\t// in\n    tag_50:\n      tag_52\n      jump\t// in\n    tag_49:\n      mload(0x40)\n      tag_53\n      swap2\n      swap1\n      tag_54\n      jump\t// in\n    tag_53:\n      mload(0x40)\n      dup1\n      swap2\n      sub\n      swap1\n      return\n        /* \"worldcup/Adminable.sol\":1006:1117  function isAdmin(address account) public view virtual returns (bool) {... */\n    tag_8:\n      tag_55\n      0x04\n      dup1\n      calldatasize\n      sub\n      dup2\n      add\n      swap1\n      tag_56\n      swap2\n      swap1\n      tag_41\n      jump\t// in\n    tag_56:\n      tag_57\n      jump\t// in\n    tag_55:\n      mload(0x40)\n      tag_58\n      swap2\n      swap1\n      tag_34\n      jump\t// in\n    tag_58:\n      mload(0x40)\n      dup1\n      swap2\n      sub\n      swap1\n      return\n        /* \"worldcup/DreamChallenge.sol\":558:580  address public teamNft */\n    tag_9:\n      tag_59\n      tag_60\n      jump\t// in\n    tag_59:\n      mload(0x40)\n      tag_61\n      swap2\n      swap1\n      tag_62\n      jump\t// in\n    tag_61:\n      mload(0x40)\n      dup1\n      swap2\n      sub\n      swap1\n      return\n        /* \"worldcup/DreamChallenge.sol\":2447:3460  function enterChallenge(uint16 _id, uint256 _tokenid, uint256 _amount) public {... */\n    tag_10:\n      tag_63\n      0x04\n      dup1\n      calldatasize\n      sub\n      dup2\n      add\n      swap1\n      tag_64\n      swap2\n      swap1\n      tag_65\n      jump\t// in\n    tag_64:\n      tag_66\n      jump\t// in\n    tag_63:\n      stop\n        /* \"worldcup/DreamChallenge.sol\":4804:4888  function setTeamNft(address _nft) public onlyOwner {... */\n    tag_11:\n      tag_67\n      0x04\n      dup1\n      calldatasize\n      sub\n      dup2\n      add\n      swap1\n      tag_68\n      swap2\n      swap1\n      tag_41\n      jump\t// in\n    tag_68:\n      tag_69\n      jump\t// in\n    tag_67:\n      stop\n        /* \"worldcup/Adminable.sol\":1125:1228  function renounceOwnership() public virtual onlyOwner {... */\n    tag_12:\n      tag_70\n      tag_71\n      jump\t// in\n    tag_70:\n      stop\n        /* \"worldcup/DreamChallenge.sol\":6225:6391  function getUserChallengeInfo(address account, uint16 challengeId) public view returns(UserInfo memory) {... */\n    tag_13:\n      tag_72\n      0x04\n      dup1\n      calldatasize\n      sub\n      dup2\n      add\n      swap1\n      tag_73\n      swap2\n      swap1\n      tag_51\n      jump\t// in\n    tag_73:\n      tag_74\n      jump\t// in\n    tag_72:\n      mload(0x40)\n      tag_75\n      swap2\n      swap1\n      tag_76\n      jump\t// in\n    tag_75:\n      mload(0x40)\n      dup1\n      swap2\n      sub\n      swap1\n      return\n        /* \"worldcup/DreamChallenge.sol\":6399:6532  function getChallengeInfo(uint16 challengeId) public view returns(Challenge memory) {... */\n    tag_14:\n      tag_77\n      0x04\n      dup1\n      calldatasize\n      sub\n      dup2\n      add\n      swap1\n      tag_78\n      swap2\n      swap1\n      tag_37\n      jump\t// in\n    tag_78:\n      tag_79\n      jump\t// in\n    tag_77:\n      mload(0x40)\n      tag_80\n      swap2\n      swap1\n      tag_81\n      jump\t// in\n    tag_80:\n      mload(0x40)\n      dup1\n      swap2\n      sub\n      swap1\n      return\n        /* \"worldcup/DreamChallenge.sol\":4896:4992  function setRewardToken(address _token) public onlyOwner {... */\n    tag_15:\n      tag_82\n      0x04\n      dup1\n      calldatasize\n      sub\n      dup2\n      add\n      swap1\n      tag_83\n      swap2\n      swap1\n      tag_41\n      jump\t// in\n    tag_83:\n      tag_84\n      jump\t// in\n    tag_82:\n      stop\n        /* \"worldcup/Adminable.sol\":911:998  function owner() public view virtual returns (address) {... */\n    tag_16:\n      tag_85\n      tag_86\n      jump\t// in\n    tag_85:\n      mload(0x40)\n      tag_87\n      swap2\n      swap1\n      tag_62\n      jump\t// in\n    tag_87:\n      mload(0x40)\n      dup1\n      swap2\n      sub\n      swap1\n      return\n        /* \"worldcup/DreamChallenge.sol\":3468:3910  function openChallenge(uint16 challengeId, uint256 winnerTokenId) public onlyAdmin {... */\n    tag_17:\n      tag_88\n      0x04\n      dup1\n      calldatasize\n      sub\n      dup2\n      add\n      swap1\n      tag_89\n      swap2\n      swap1\n      tag_90\n      jump\t// in\n    tag_89:\n      tag_91\n      jump\t// in\n    tag_88:\n      stop\n        /* \"https://github.com/OpenZeppelin/openzeppelin-contracts/blob/master/contracts/token/ERC1155/utils/ERC1155Holder.sol\":724:971  function onERC1155BatchReceived(... */\n    tag_18:\n      tag_92\n      0x04\n      dup1\n      calldatasize\n      sub\n      dup2\n      add\n      swap1\n      tag_93\n      swap2\n      swap1\n      tag_94\n      jump\t// in\n    tag_93:\n      tag_95\n      jump\t// in\n    tag_92:\n      mload(0x40)\n      tag_96\n      swap2\n      swap1\n      tag_97\n      jump\t// in\n    tag_96:\n      mload(0x40)\n      dup1\n      swap2\n      sub\n      swap1\n      return\n        /* \"worldcup/DreamChallenge.sol\":1826:2439  function addChallenge(Ctype _ctype, uint256 _startAt, uint256 _endAt,... */\n    tag_19:\n      tag_98\n      0x04\n      dup1\n      calldatasize\n      sub\n      dup2\n      add\n      swap1\n      tag_99\n      swap2\n      swap1\n      tag_100\n      jump\t// in\n    tag_99:\n      tag_101\n      jump\t// in\n    tag_98:\n      stop\n        /* \"worldcup/DreamChallenge.sol\":660:697  uint256 public nftCost = 1 * 10 ** 18 */\n    tag_20:\n      tag_102\n      tag_103\n      jump\t// in\n    tag_102:\n      mload(0x40)\n      tag_104\n      swap2\n      swap1\n      tag_54\n      jump\t// in\n    tag_104:\n      mload(0x40)\n      dup1\n      swap2\n      sub\n      swap1\n      return\n        /* \"https://github.com/OpenZeppelin/openzeppelin-contracts/blob/master/contracts/token/ERC1155/utils/ERC1155Holder.sol\":499:718  function onERC1155Received(... */\n    tag_21:\n      tag_105\n      0x04\n      dup1\n      calldatasize\n      sub\n      dup2\n      add\n      swap1\n      tag_106\n      swap2\n      swap1\n      tag_107\n      jump\t// in\n    tag_106:\n      tag_108\n      jump\t// in\n    tag_105:\n      mload(0x40)\n      tag_109\n      swap2\n      swap1\n      tag_97\n      jump\t// in\n    tag_109:\n      mload(0x40)\n      dup1\n      swap2\n      sub\n      swap1\n      return\n        /* \"worldcup/Adminable.sol\":1236:1437  function transferOwnership(address newOwner) public virtual onlyOwner {... */\n    tag_22:\n      tag_110\n      0x04\n      dup1\n      calldatasize\n      sub\n      dup2\n      add\n      swap1\n      tag_111\n      swap2\n      swap1\n      tag_41\n      jump\t// in\n    tag_111:\n      tag_112\n      jump\t// in\n    tag_110:\n      stop\n        /* \"worldcup/DreamChallenge.sol\":5000:5089  function setNftCost(uint256 _amount) public onlyOwner{... */\n    tag_23:\n      tag_113\n      0x04\n      dup1\n      calldatasize\n      sub\n      dup2\n      add\n      swap1\n      tag_114\n      swap2\n      swap1\n      tag_115\n      jump\t// in\n    tag_114:\n      tag_116\n      jump\t// in\n    tag_113:\n      stop\n        /* \"worldcup/DreamChallenge.sol\":587:613  address public rewardToken */\n    tag_24:\n      tag_117\n      tag_118\n      jump\t// in\n    tag_117:\n      mload(0x40)\n      tag_119\n      swap2\n      swap1\n      tag_62\n      jump\t// in\n    tag_119:\n      mload(0x40)\n      dup1\n      swap2\n      sub\n      swap1\n      return\n        /* \"worldcup/DreamChallenge.sol\":620:653  uint16 public challengeIdInex = 1 */\n    tag_25:\n      tag_120\n      tag_121\n      jump\t// in\n    tag_120:\n      mload(0x40)\n      tag_122\n      swap2\n      swap1\n      tag_123\n      jump\t// in\n    tag_122:\n      mload(0x40)\n      dup1\n      swap2\n      sub\n      swap1\n      return\n        /* \"https://github.com/OpenZeppelin/openzeppelin-contracts/blob/master/contracts/token/ERC1155/utils/ERC1155Receiver.sol\":387:608  function supportsInterface(bytes4 interfaceId) public view virtual override(ERC165, IERC165) returns (bool) {... */\n    tag_32:\n        /* \"https://github.com/OpenZeppelin/openzeppelin-contracts/blob/master/contracts/token/ERC1155/utils/ERC1155Receiver.sol\":489:493  bool */\n      0x00\n        /* \"https://github.com/OpenZeppelin/openzeppelin-contracts/blob/master/contracts/token/ERC1155/utils/ERC1155Receiver.sol\":527:561  type(IERC1155Receiver).interfaceId */\n      0x4e2312e000000000000000000000000000000000000000000000000000000000\n        /* \"https://github.com/OpenZeppelin/openzeppelin-contracts/blob/master/contracts/token/ERC1155/utils/ERC1155Receiver.sol\":512:561  interfaceId == type(IERC1155Receiver).interfaceId */\n      not(0xffffffffffffffffffffffffffffffffffffffffffffffffffffffff)\n      and\n        /* \"https://github.com/OpenZeppelin/openzeppelin-contracts/blob/master/contracts/token/ERC1155/utils/ERC1155Receiver.sol\":512:523  interfaceId */\n      dup3\n        /* \"https://github.com/OpenZeppelin/openzeppelin-contracts/blob/master/contracts/token/ERC1155/utils/ERC1155Receiver.sol\":512:561  interfaceId == type(IERC1155Receiver).interfaceId */\n      not(0xffffffffffffffffffffffffffffffffffffffffffffffffffffffff)\n      and\n      eq\n        /* \"https://github.com/OpenZeppelin/openzeppelin-contracts/blob/master/contracts/token/ERC1155/utils/ERC1155Receiver.sol\":512:601  interfaceId == type(IERC1155Receiver).interfaceId || super.supportsInterface(interfaceId) */\n      dup1\n      tag_125\n      jumpi\n      pop\n        /* \"https://github.com/OpenZeppelin/openzeppelin-contracts/blob/master/contracts/token/ERC1155/utils/ERC1155Receiver.sol\":565:601  super.supportsInterface(interfaceId) */\n      tag_126\n        /* \"https://github.com/OpenZeppelin/openzeppelin-contracts/blob/master/contracts/token/ERC1155/utils/ERC1155Receiver.sol\":589:600  interfaceId */\n      dup3\n        /* \"https://github.com/OpenZeppelin/openzeppelin-contracts/blob/master/contracts/token/ERC1155/utils/ERC1155Receiver.sol\":565:588  super.supportsInterface */\n      tag_127\n        /* \"https://github.com/OpenZeppelin/openzeppelin-contracts/blob/master/contracts/token/ERC1155/utils/ERC1155Receiver.sol\":565:601  super.supportsInterface(interfaceId) */\n      jump\t// in\n    tag_126:\n        /* \"https://github.com/OpenZeppelin/openzeppelin-contracts/blob/master/contracts/token/ERC1155/utils/ERC1155Receiver.sol\":512:601  interfaceId == type(IERC1155Receiver).interfaceId || super.supportsInterface(interfaceId) */\n    tag_125:\n        /* \"https://github.com/OpenZeppelin/openzeppelin-contracts/blob/master/contracts/token/ERC1155/utils/ERC1155Receiver.sol\":505:601  return interfaceId == type(IERC1155Receiver).interfaceId || super.supportsInterface(interfaceId) */\n      swap1\n      pop\n        /* \"https://github.com/OpenZeppelin/openzeppelin-contracts/blob/master/contracts/token/ERC1155/utils/ERC1155Receiver.sol\":387:608  function supportsInterface(bytes4 interfaceId) public view virtual override(ERC165, IERC165) returns (bool) {... */\n      swap2\n      swap1\n      pop\n      jump\t// out\n        /* \"worldcup/DreamChallenge.sol\":3954:4796  function withdrawReward(uint16 _challengeId) public {... */\n    tag_38:\n        /* \"worldcup/DreamChallenge.sol\":4017:4039  uint256 winTokenAmount */\n      0x00\n        /* \"worldcup/DreamChallenge.sol\":4042:4082  getUserRewards(msg.sender, _challengeId) */\n      tag_129\n        /* \"worldcup/DreamChallenge.sol\":4057:4067  msg.sender */\n      caller\n        /* \"worldcup/DreamChallenge.sol\":4069:4081  _challengeId */\n      dup4\n        /* \"worldcup/DreamChallenge.sol\":4042:4056  getUserRewards */\n      tag_52\n        /* \"worldcup/DreamChallenge.sol\":4042:4082  getUserRewards(msg.sender, _challengeId) */\n      jump\t// in\n    tag_129:\n        /* \"worldcup/DreamChallenge.sol\":4017:4082  uint256 winTokenAmount = getUserRewards(msg.sender, _challengeId) */\n      swap1\n      pop\n        /* \"worldcup/DreamChallenge.sol\":4093:4117  UserInfo memory userinfo */\n      0x00\n        /* \"worldcup/DreamChallenge.sol\":4120:4134  userChallenges */\n      0x06\n        /* \"worldcup/DreamChallenge.sol\":4120:4146  userChallenges[msg.sender] */\n      0x00\n        /* \"worldcup/DreamChallenge.sol\":4135:4145  msg.sender */\n      caller\n        /* \"worldcup/DreamChallenge.sol\":4120:4146  userChallenges[msg.sender] */\n      0xffffffffffffffffffffffffffffffffffffffff\n      and\n      0xffffffffffffffffffffffffffffffffffffffff\n      and\n      dup2\n      mstore\n      0x20\n      add\n      swap1\n      dup2\n      mstore\n      0x20\n      add\n      0x00\n      keccak256\n        /* \"worldcup/DreamChallenge.sol\":4120:4160  userChallenges[msg.sender][_challengeId] */\n      0x00\n        /* \"worldcup/DreamChallenge.sol\":4147:4159  _challengeId */\n      dup5\n        /* \"worldcup/DreamChallenge.sol\":4120:4160  userChallenges[msg.sender][_challengeId] */\n      0xffff\n      and\n      0xffff\n      and\n      dup2\n      mstore\n      0x20\n      add\n      swap1\n      dup2\n      mstore\n      0x20\n      add\n      0x00\n      keccak256\n        /* \"worldcup/DreamChallenge.sol\":4093:4160  UserInfo memory userinfo = userChallenges[msg.sender][_challengeId] */\n      mload(0x40)\n      dup1\n      0x80\n      add\n      0x40\n      mstore\n      swap1\n      dup2\n      0x00\n      dup3\n      add\n      0x00\n      swap1\n      sload\n      swap1\n      0x0100\n      exp\n      swap1\n      div\n      0xffff\n      and\n      0xffff\n      and\n      0xffff\n      and\n      dup2\n      mstore\n      0x20\n      add\n      0x01\n      dup3\n      add\n      sload\n      dup2\n      mstore\n      0x20\n      add\n      0x02\n      dup3\n      add\n      sload\n      dup2\n      mstore\n      0x20\n      add\n      0x03\n      dup3\n      add\n      0x00\n      swap1\n      sload\n      swap1\n      0x0100\n      exp\n      swap1\n      div\n      0xff\n      and\n      iszero\n      iszero\n      iszero\n      iszero\n      dup2\n      mstore\n      pop\n      pop\n      swap1\n      pop\n        /* \"worldcup/DreamChallenge.sol\":4173:4188  uint256 tokenid */\n      0x00\n        /* \"worldcup/DreamChallenge.sol\":4199:4213  uint256 amount */\n      dup1\n        /* \"worldcup/DreamChallenge.sol\":4224:4250  Challenge memory challenge */\n      0x00\n        /* \"worldcup/DreamChallenge.sol\":4253:4263  challenges */\n      0x05\n        /* \"worldcup/DreamChallenge.sol\":4253:4277  challenges[_challengeId] */\n      0x00\n        /* \"worldcup/DreamChallenge.sol\":4264:4276  _challengeId */\n      dup8\n        /* \"worldcup/DreamChallenge.sol\":4253:4277  challenges[_challengeId] */\n      0xffff\n      and\n      0xffff\n      and\n      dup2\n      mstore\n      0x20\n      add\n      swap1\n      dup2\n      mstore\n      0x20\n      add\n      0x00\n      keccak256\n        /* \"worldcup/DreamChallenge.sol\":4224:4277  Challenge memory challenge = challenges[_challengeId] */\n      mload(0x40)\n      dup1\n      0x0120\n      add\n      0x40\n      mstore\n      swap1\n      dup2\n      0x00\n      dup3\n      add\n      0x00\n      swap1\n      sload\n      swap1\n      0x0100\n      exp\n      swap1\n      div\n      0xff\n      and\n      0x01\n      dup2\n      gt\n      iszero\n      tag_130\n      jumpi\n      tag_131\n      tag_132\n      jump\t// in\n    tag_131:\n    tag_130:\n      0x01\n      dup2\n      gt\n      iszero\n      tag_133\n      jumpi\n      tag_134\n      tag_132\n      jump\t// in\n    tag_134:\n    tag_133:\n      dup2\n      mstore\n      0x20\n      add\n      0x00\n      dup3\n      add\n      0x01\n      swap1\n      sload\n      swap1\n      0x0100\n      exp\n      swap1\n      div\n      0xffff\n      and\n      0xffff\n      and\n      0xffff\n      and\n      dup2\n      mstore\n      0x20\n      add\n      0x01\n      dup3\n      add\n      sload\n      dup2\n      mstore\n      0x20\n      add\n      0x02\n      dup3\n      add\n      sload\n      dup2\n      mstore\n      0x20\n      add\n      0x03\n      dup3\n      add\n      sload\n      dup2\n      mstore\n      0x20\n      add\n      0x04\n      dup3\n      add\n      sload\n      dup2\n      mstore\n      0x20\n      add\n      0x05\n      dup3\n      add\n      sload\n      dup2\n      mstore\n      0x20\n      add\n      0x06\n      dup3\n      add\n      sload\n      dup2\n      mstore\n      0x20\n      add\n      0x07\n      dup3\n      add\n      sload\n      dup2\n      mstore\n      pop\n      pop\n      swap1\n      pop\n        /* \"worldcup/DreamChallenge.sol\":4318:4327  challenge */\n      dup1\n        /* \"worldcup/DreamChallenge.sol\":4318:4339  challenge.tokenIdLeft */\n      0x80\n      add\n      mload\n        /* \"worldcup/DreamChallenge.sol\":4291:4300  challenge */\n      dup2\n        /* \"worldcup/DreamChallenge.sol\":4291:4314  challenge.winnerTokenId */\n      0x0100\n      add\n      mload\n        /* \"worldcup/DreamChallenge.sol\":4291:4339  challenge.winnerTokenId == challenge.tokenIdLeft */\n      sub\n        /* \"worldcup/DreamChallenge.sol\":4288:4554  if(challenge.winnerTokenId == challenge.tokenIdLeft) {... */\n      tag_135\n      jumpi\n        /* \"worldcup/DreamChallenge.sol\":4366:4375  challenge */\n      dup1\n        /* \"worldcup/DreamChallenge.sol\":4366:4387  challenge.tokenIdLeft */\n      0x80\n      add\n      mload\n        /* \"worldcup/DreamChallenge.sol\":4356:4387  tokenid = challenge.tokenIdLeft */\n      swap3\n      pop\n        /* \"worldcup/DreamChallenge.sol\":4411:4419  userinfo */\n      dup4\n        /* \"worldcup/DreamChallenge.sol\":4411:4431  userinfo.amountsLeft */\n      0x20\n      add\n      mload\n        /* \"worldcup/DreamChallenge.sol\":4402:4431  amount = userinfo.amountsLeft */\n      swap2\n      pop\n        /* \"worldcup/DreamChallenge.sol\":4288:4554  if(challenge.winnerTokenId == challenge.tokenIdLeft) {... */\n      jump(tag_136)\n    tag_135:\n        /* \"worldcup/DreamChallenge.sol\":4474:4483  challenge */\n      dup1\n        /* \"worldcup/DreamChallenge.sol\":4474:4496  challenge.tokenIdRight */\n      0xa0\n      add\n      mload\n        /* \"worldcup/DreamChallenge.sol\":4464:4496  tokenid = challenge.tokenIdRight */\n      swap3\n      pop\n        /* \"worldcup/DreamChallenge.sol\":4520:4529  challenge */\n      dup1\n        /* \"worldcup/DreamChallenge.sol\":4520:4542  challenge.tokenIdRight */\n      0xa0\n      add\n      mload\n        /* \"worldcup/DreamChallenge.sol\":4511:4542  amount = challenge.tokenIdRight */\n      swap2\n      pop\n        /* \"worldcup/DreamChallenge.sol\":4288:4554  if(challenge.winnerTokenId == challenge.tokenIdLeft) {... */\n    tag_136:\n        /* \"worldcup/DreamChallenge.sol\":4576:4583  teamNft */\n      0x02\n      0x00\n      swap1\n      sload\n      swap1\n      0x0100\n      exp\n      swap1\n      div\n      0xffffffffffffffffffffffffffffffffffffffff\n      and\n        /* \"worldcup/DreamChallenge.sol\":4567:4601  IERC1155(teamNft).safeTransferFrom */\n      0xffffffffffffffffffffffffffffffffffffffff\n      and\n      0xf242432a\n        /* \"worldcup/DreamChallenge.sol\":4610:4614  this */\n      address\n        /* \"worldcup/DreamChallenge.sol\":4617:4627  msg.sender */\n      caller\n        /* \"worldcup/DreamChallenge.sol\":4629:4636  tokenid */\n      dup7\n        /* \"worldcup/DreamChallenge.sol\":4638:4644  amount */\n      dup7\n        /* \"worldcup/DreamChallenge.sol\":4567:4649  IERC1155(teamNft).safeTransferFrom(address(this), msg.sender, tokenid, amount, \"\") */\n      mload(0x40)\n      dup6\n      0xffffffff\n      and\n      0xe0\n      shl\n      dup2\n      mstore\n      0x04\n      add\n      tag_137\n      swap5\n      swap4\n      swap3\n      swap2\n      swap1\n      tag_138\n      jump\t// in\n    tag_137:\n      0x00\n      mload(0x40)\n      dup1\n      dup4\n      sub\n      dup2\n      0x00\n      dup8\n      dup1\n      extcodesize\n      iszero\n      dup1\n      iszero\n      tag_139\n      jumpi\n      0x00\n      dup1\n      revert\n    tag_139:\n      pop\n      gas\n      call\n      iszero\n      dup1\n      iszero\n      tag_141\n      jumpi\n      returndatasize\n      0x00\n      dup1\n      returndatacopy\n      revert(0x00, returndatasize)\n    tag_141:\n      pop\n      pop\n      pop\n      pop\n        /* \"worldcup/DreamChallenge.sol\":4667:4678  rewardToken */\n      0x03\n      0x00\n      swap1\n      sload\n      swap1\n      0x0100\n      exp\n      swap1\n      div\n      0xffffffffffffffffffffffffffffffffffffffff\n      and\n        /* \"worldcup/DreamChallenge.sol\":4660:4688  IERC20(rewardToken).transfer */\n      0xffffffffffffffffffffffffffffffffffffffff\n      and\n      0xa9059cbb\n        /* \"worldcup/DreamChallenge.sol\":4689:4699  msg.sender */\n      caller\n        /* \"worldcup/DreamChallenge.sol\":4701:4715  winTokenAmount */\n      dup8\n        /* \"worldcup/DreamChallenge.sol\":4660:4716  IERC20(rewardToken).transfer(msg.sender, winTokenAmount) */\n      mload(0x40)\n      dup4\n      0xffffffff\n      and\n      0xe0\n      shl\n      dup2\n      mstore\n      0x04\n      add\n      tag_142\n      swap3\n      swap2\n      swap1\n      tag_143\n      jump\t// in\n    tag_142:\n      0x20\n      mload(0x40)\n      dup1\n      dup4\n      sub\n      dup2\n      0x00\n      dup8\n      gas\n      call\n      iszero\n      dup1\n      iszero\n      tag_145\n      jumpi\n      returndatasize\n      0x00\n      dup1\n      returndatacopy\n      revert(0x00, returndatasize)\n    tag_145:\n      pop\n      pop\n      pop\n      pop\n      mload(0x40)\n      returndatasize\n      not(0x1f)\n      0x1f\n      dup3\n      add\n      and\n      dup3\n      add\n      dup1\n      0x40\n      mstore\n      pop\n      dup2\n      add\n      swap1\n      tag_146\n      swap2\n      swap1\n      tag_147\n      jump\t// in\n    tag_146:\n      pop\n        /* \"worldcup/DreamChallenge.sol\":4747:4757  msg.sender */\n      caller\n        /* \"worldcup/DreamChallenge.sol\":4732:4788  WithdrawReward(msg.sender, challenge.id, winTokenAmount) */\n      0xffffffffffffffffffffffffffffffffffffffff\n      and\n      0x37928b7e81bcb91f89ab0bc4eb993473de24975366bebf5b4e1e946f2c948807\n        /* \"worldcup/DreamChallenge.sol\":4759:4768  challenge */\n      dup3\n        /* \"worldcup/DreamChallenge.sol\":4759:4771  challenge.id */\n      0x20\n      add\n      mload\n        /* \"worldcup/DreamChallenge.sol\":4773:4787  winTokenAmount */\n      dup8\n        /* \"worldcup/DreamChallenge.sol\":4732:4788  WithdrawReward(msg.sender, challenge.id, winTokenAmount) */\n      mload(0x40)\n      tag_148\n      swap3\n      swap2\n      swap1\n      tag_149\n      jump\t// in\n    tag_148:\n      mload(0x40)\n      dup1\n      swap2\n      sub\n      swap1\n      log2\n        /* \"worldcup/DreamChallenge.sol\":4006:4796  {... */\n      pop\n      pop\n      pop\n      pop\n      pop\n        /* \"worldcup/DreamChallenge.sol\":3954:4796  function withdrawReward(uint16 _challengeId) public {... */\n      pop\n      jump\t// out\n        /* \"worldcup/DreamChallenge.sol\":6085:6217  function getUserChallenges(address account) public view returns(uint16[] memory) {... */\n    tag_42:\n        /* \"worldcup/DreamChallenge.sol\":6149:6164  uint16[] memory */\n      0x60\n        /* \"worldcup/DreamChallenge.sol\":6184:6200  userChallengeIds */\n      0x07\n        /* \"worldcup/DreamChallenge.sol\":6184:6209  userChallengeIds[account] */\n      0x00\n        /* \"worldcup/DreamChallenge.sol\":6201:6208  account */\n      dup4\n        /* \"worldcup/DreamChallenge.sol\":6184:6209  userChallengeIds[account] */\n      0xffffffffffffffffffffffffffffffffffffffff\n      and\n      0xffffffffffffffffffffffffffffffffffffffff\n      and\n      dup2\n      mstore\n      0x20\n      add\n      swap1\n      dup2\n      mstore\n      0x20\n      add\n      0x00\n      keccak256\n        /* \"worldcup/DreamChallenge.sol\":6177:6209  return userChallengeIds[account] */\n      dup1\n      sload\n      dup1\n      0x20\n      mul\n      0x20\n      add\n      mload(0x40)\n      swap1\n      dup2\n      add\n      0x40\n      mstore\n      dup1\n      swap3\n      swap2\n      swap1\n      dup2\n      dup2\n      mstore\n      0x20\n      add\n      dup3\n      dup1\n      sload\n      dup1\n      iszero\n      tag_151\n      jumpi\n      0x20\n      mul\n      dup3\n      add\n      swap2\n      swap1\n      0x00\n      mstore\n      keccak256(0x00, 0x20)\n      swap1\n      0x00\n      swap1\n    tag_152:\n      dup3\n      dup3\n      swap1\n      sload\n      swap1\n      0x0100\n      exp\n      swap1\n      div\n      0xffff\n      and\n      0xffff\n      and\n      dup2\n      mstore\n      0x20\n      add\n      swap1\n      0x02\n      add\n      swap1\n      0x20\n      dup3\n      0x01\n      add\n      div\n      swap3\n      dup4\n      add\n      swap3\n      0x01\n      sub\n      dup3\n      mul\n      swap2\n      pop\n      dup1\n      dup5\n      gt\n      tag_152\n      jumpi\n      swap1\n      pop\n    tag_151:\n      pop\n      pop\n      pop\n      pop\n      pop\n      swap1\n      pop\n        /* \"worldcup/DreamChallenge.sol\":6085:6217  function getUserChallenges(address account) public view returns(uint16[] memory) {... */\n      swap2\n      swap1\n      pop\n      jump\t// out\n        /* \"worldcup/Adminable.sol\":1644:1828  function modificationAdmin(address admin, bool state) public virtual onlyOwner {... */\n    tag_48:\n        /* \"worldcup/Adminable.sol\":704:716  _msgSender() */\n      tag_154\n        /* \"worldcup/Adminable.sol\":704:714  _msgSender */\n      tag_155\n        /* \"worldcup/Adminable.sol\":704:716  _msgSender() */\n      jump\t// in\n    tag_154:\n        /* \"worldcup/Adminable.sol\":693:716  owner() == _msgSender() */\n      0xffffffffffffffffffffffffffffffffffffffff\n      and\n        /* \"worldcup/Adminable.sol\":693:700  owner() */\n      tag_156\n        /* \"worldcup/Adminable.sol\":693:698  owner */\n      tag_86\n        /* \"worldcup/Adminable.sol\":693:700  owner() */\n      jump\t// in\n    tag_156:\n        /* \"worldcup/Adminable.sol\":693:716  owner() == _msgSender() */\n      0xffffffffffffffffffffffffffffffffffffffff\n      and\n      eq\n        /* \"worldcup/Adminable.sol\":685:755  require(owner() == _msgSender(), \"Adminable: caller is not the owner\") */\n      tag_157\n      jumpi\n      mload(0x40)\n      0x08c379a000000000000000000000000000000000000000000000000000000000\n      dup2\n      mstore\n      0x04\n      add\n      tag_158\n      swap1\n      tag_159\n      jump\t// in\n    tag_158:\n      mload(0x40)\n      dup1\n      swap2\n      sub\n      swap1\n      revert\n    tag_157:\n        /* \"worldcup/Adminable.sol\":1757:1762  admin */\n      dup2\n        /* \"worldcup/Adminable.sol\":1739:1787  ModificationAdmin(admin,  _admins[admin], state) */\n      0xffffffffffffffffffffffffffffffffffffffff\n      and\n      0x82f1fa40a3d82dea3e406073819290601f436580aa7c69f9feb61f885bdd8854\n        /* \"worldcup/Adminable.sol\":1765:1772  _admins */\n      0x00\n        /* \"worldcup/Adminable.sol\":1765:1779  _admins[admin] */\n      dup1\n        /* \"worldcup/Adminable.sol\":1773:1778  admin */\n      dup6\n        /* \"worldcup/Adminable.sol\":1765:1779  _admins[admin] */\n      0xffffffffffffffffffffffffffffffffffffffff\n      and\n      0xffffffffffffffffffffffffffffffffffffffff\n      and\n      dup2\n      mstore\n      0x20\n      add\n      swap1\n      dup2\n      mstore\n      0x20\n      add\n      0x00\n      keccak256\n      0x00\n      swap1\n      sload\n      swap1\n      0x0100\n      exp\n      swap1\n      div\n      0xff\n      and\n        /* \"worldcup/Adminable.sol\":1781:1786  state */\n      dup4\n        /* \"worldcup/Adminable.sol\":1739:1787  ModificationAdmin(admin,  _admins[admin], state) */\n      mload(0x40)\n      tag_161\n      swap3\n      swap2\n      swap1\n      tag_162\n      jump\t// in\n    tag_161:\n      mload(0x40)\n      dup1\n      swap2\n      sub\n      swap1\n      log2\n        /* \"worldcup/Adminable.sol\":1815:1820  state */\n      dup1\n        /* \"worldcup/Adminable.sol\":1798:1805  _admins */\n      0x00\n        /* \"worldcup/Adminable.sol\":1798:1812  _admins[admin] */\n      dup1\n        /* \"worldcup/Adminable.sol\":1806:1811  admin */\n      dup5\n        /* \"worldcup/Adminable.sol\":1798:1812  _admins[admin] */\n      0xffffffffffffffffffffffffffffffffffffffff\n      and\n      0xffffffffffffffffffffffffffffffffffffffff\n      and\n      dup2\n      mstore\n      0x20\n      add\n      swap1\n      dup2\n      mstore\n      0x20\n      add\n      0x00\n      keccak256\n      0x00\n        /* \"worldcup/Adminable.sol\":1798:1820  _admins[admin] = state */\n      0x0100\n      exp\n      dup2\n      sload\n      dup2\n      0xff\n      mul\n      not\n      and\n      swap1\n      dup4\n      iszero\n      iszero\n      mul\n      or\n      swap1\n      sstore\n      pop\n        /* \"worldcup/Adminable.sol\":1644:1828  function modificationAdmin(address admin, bool state) public virtual onlyOwner {... */\n      pop\n      pop\n      jump\t// out\n        /* \"worldcup/DreamChallenge.sol\":5433:6077  function getUserRewards(address account, uint16 challengeId) public view returns(uint256){... */\n    tag_52:\n        /* \"worldcup/DreamChallenge.sol\":5514:5521  uint256 */\n      0x00\n        /* \"worldcup/DreamChallenge.sol\":5533:5559  Challenge memory challenge */\n      dup1\n        /* \"worldcup/DreamChallenge.sol\":5562:5572  challenges */\n      0x05\n        /* \"worldcup/DreamChallenge.sol\":5562:5585  challenges[challengeId] */\n      0x00\n        /* \"worldcup/DreamChallenge.sol\":5573:5584  challengeId */\n      dup5\n        /* \"worldcup/DreamChallenge.sol\":5562:5585  challenges[challengeId] */\n      0xffff\n      and\n      0xffff\n      and\n      dup2\n      mstore\n      0x20\n      add\n      swap1\n      dup2\n      mstore\n      0x20\n      add\n      0x00\n      keccak256\n        /* \"worldcup/DreamChallenge.sol\":5533:5585  Challenge memory challenge = challenges[challengeId] */\n      mload(0x40)\n      dup1\n      0x0120\n      add\n      0x40\n      mstore\n      swap1\n      dup2\n      0x00\n      dup3\n      add\n      0x00\n      swap1\n      sload\n      swap1\n      0x0100\n      exp\n      swap1\n      div\n      0xff\n      and\n      0x01\n      dup2\n      gt\n      iszero\n      tag_164\n      jumpi\n      tag_165\n      tag_132\n      jump\t// in\n    tag_165:\n    tag_164:\n      0x01\n      dup2\n      gt\n      iszero\n      tag_166\n      jumpi\n      tag_167\n      tag_132\n      jump\t// in\n    tag_167:\n    tag_166:\n      dup2\n      mstore\n      0x20\n      add\n      0x00\n      dup3\n      add\n      0x01\n      swap1\n      sload\n      swap1\n      0x0100\n      exp\n      swap1\n      div\n      0xffff\n      and\n      0xffff\n      and\n      0xffff\n      and\n      dup2\n      mstore\n      0x20\n      add\n      0x01\n      dup3\n      add\n      sload\n      dup2\n      mstore\n      0x20\n      add\n      0x02\n      dup3\n      add\n      sload\n      dup2\n      mstore\n      0x20\n      add\n      0x03\n      dup3\n      add\n      sload\n      dup2\n      mstore\n      0x20\n      add\n      0x04\n      dup3\n      add\n      sload\n      dup2\n      mstore\n      0x20\n      add\n      0x05\n      dup3\n      add\n      sload\n      dup2\n      mstore\n      0x20\n      add\n      0x06\n      dup3\n      add\n      sload\n      dup2\n      mstore\n      0x20\n      add\n      0x07\n      dup3\n      add\n      sload\n      dup2\n      mstore\n      pop\n      pop\n      swap1\n      pop\n        /* \"worldcup/DreamChallenge.sol\":5615:5616  0 */\n      0x00\n        /* \"worldcup/DreamChallenge.sol\":5599:5608  challenge */\n      dup2\n        /* \"worldcup/DreamChallenge.sol\":5599:5611  challenge.id */\n      0x20\n      add\n      mload\n        /* \"worldcup/DreamChallenge.sol\":5599:5616  challenge.id == 0 */\n      0xffff\n      and\n      sub\n        /* \"worldcup/DreamChallenge.sol\":5596:5653  if(challenge.id == 0) {... */\n      tag_168\n      jumpi\n        /* \"worldcup/DreamChallenge.sol\":5640:5641  0 */\n      0x00\n        /* \"worldcup/DreamChallenge.sol\":5633:5641  return 0 */\n      swap2\n      pop\n      pop\n      jump(tag_163)\n        /* \"worldcup/DreamChallenge.sol\":5596:5653  if(challenge.id == 0) {... */\n    tag_168:\n        /* \"worldcup/DreamChallenge.sol\":5665:5689  UserInfo memory userinfo */\n      0x00\n        /* \"worldcup/DreamChallenge.sol\":5692:5706  userChallenges */\n      0x06\n        /* \"worldcup/DreamChallenge.sol\":5692:5715  userChallenges[account] */\n      0x00\n        /* \"worldcup/DreamChallenge.sol\":5707:5714  account */\n      dup7\n        /* \"worldcup/DreamChallenge.sol\":5692:5715  userChallenges[account] */\n      0xffffffffffffffffffffffffffffffffffffffff\n      and\n      0xffffffffffffffffffffffffffffffffffffffff\n      and\n      dup2\n      mstore\n      0x20\n      add\n      swap1\n      dup2\n      mstore\n      0x20\n      add\n      0x00\n      keccak256\n        /* \"worldcup/DreamChallenge.sol\":5692:5728  userChallenges[account][challengeId] */\n      0x00\n        /* \"worldcup/DreamChallenge.sol\":5716:5727  challengeId */\n      dup6\n        /* \"worldcup/DreamChallenge.sol\":5692:5728  userChallenges[account][challengeId] */\n      0xffff\n      and\n      0xffff\n      and\n      dup2\n      mstore\n      0x20\n      add\n      swap1\n      dup2\n      mstore\n      0x20\n      add\n      0x00\n      keccak256\n        /* \"worldcup/DreamChallenge.sol\":5665:5728  UserInfo memory userinfo = userChallenges[account][challengeId] */\n      mload(0x40)\n      dup1\n      0x80\n      add\n      0x40\n      mstore\n      swap1\n      dup2\n      0x00\n      dup3\n      add\n      0x00\n      swap1\n      sload\n      swap1\n      0x0100\n      exp\n      swap1\n      div\n      0xffff\n      and\n      0xffff\n      and\n      0xffff\n      and\n      dup2\n      mstore\n      0x20\n      add\n      0x01\n      dup3\n      add\n      sload\n      dup2\n      mstore\n      0x20\n      add\n      0x02\n      dup3\n      add\n      sload\n      dup2\n      mstore\n      0x20\n      add\n      0x03\n      dup3\n      add\n      0x00\n      swap1\n      sload\n      swap1\n      0x0100\n      exp\n      swap1\n      div\n      0xff\n      and\n      iszero\n      iszero\n      iszero\n      iszero\n      dup2\n      mstore\n      pop\n      pop\n      swap1\n      pop\n        /* \"worldcup/DreamChallenge.sol\":5768:5769  0 */\n      0x00\n        /* \"worldcup/DreamChallenge.sol\":5744:5752  userinfo */\n      dup2\n        /* \"worldcup/DreamChallenge.sol\":5744:5764  userinfo.challengeId */\n      0x00\n      add\n      mload\n        /* \"worldcup/DreamChallenge.sol\":5744:5769  userinfo.challengeId == 0 */\n      0xffff\n      and\n      sub\n        /* \"worldcup/DreamChallenge.sol\":5741:5806  if(userinfo.challengeId == 0) {... */\n      tag_169\n      jumpi\n        /* \"worldcup/DreamChallenge.sol\":5793:5794  0 */\n      0x00\n        /* \"worldcup/DreamChallenge.sol\":5786:5794  return 0 */\n      swap3\n      pop\n      pop\n      pop\n      jump(tag_163)\n        /* \"worldcup/DreamChallenge.sol\":5741:5806  if(userinfo.challengeId == 0) {... */\n    tag_169:\n        /* \"worldcup/DreamChallenge.sol\":5816:5833  uint256 winAmount */\n      0x00\n        /* \"worldcup/DreamChallenge.sol\":5874:5883  challenge */\n      dup3\n        /* \"worldcup/DreamChallenge.sol\":5874:5895  challenge.tokenIdLeft */\n      0x80\n      add\n      mload\n        /* \"worldcup/DreamChallenge.sol\":5847:5856  challenge */\n      dup4\n        /* \"worldcup/DreamChallenge.sol\":5847:5870  challenge.winnerTokenId */\n      0x0100\n      add\n      mload\n        /* \"worldcup/DreamChallenge.sol\":5847:5895  challenge.winnerTokenId == challenge.tokenIdLeft */\n      sub\n        /* \"worldcup/DreamChallenge.sol\":5844:6022  if(challenge.winnerTokenId == challenge.tokenIdLeft) {... */\n      tag_170\n      jumpi\n        /* \"worldcup/DreamChallenge.sol\":5924:5932  userinfo */\n      dup2\n        /* \"worldcup/DreamChallenge.sol\":5924:5944  userinfo.amountsLeft */\n      0x20\n      add\n      mload\n        /* \"worldcup/DreamChallenge.sol\":5912:5944  winAmount = userinfo.amountsLeft */\n      swap1\n      pop\n        /* \"worldcup/DreamChallenge.sol\":5844:6022  if(challenge.winnerTokenId == challenge.tokenIdLeft) {... */\n      jump(tag_171)\n    tag_170:\n        /* \"worldcup/DreamChallenge.sol\":5989:5997  userinfo */\n      dup2\n        /* \"worldcup/DreamChallenge.sol\":5989:6010  userinfo.amountsRight */\n      0x40\n      add\n      mload\n        /* \"worldcup/DreamChallenge.sol\":5977:6010  winAmount = userinfo.amountsRight */\n      swap1\n      pop\n        /* \"worldcup/DreamChallenge.sol\":5844:6022  if(challenge.winnerTokenId == challenge.tokenIdLeft) {... */\n    tag_171:\n        /* \"worldcup/DreamChallenge.sol\":6066:6069  100 */\n      0x64\n        /* \"worldcup/DreamChallenge.sol\":6061:6063  80 */\n      0x50\n        /* \"worldcup/DreamChallenge.sol\":6051:6058  nftCost */\n      sload(0x04)\n        /* \"worldcup/DreamChallenge.sol\":6039:6048  winAmount */\n      dup4\n        /* \"worldcup/DreamChallenge.sol\":6039:6058  winAmount * nftCost */\n      tag_172\n      swap2\n      swap1\n      tag_173\n      jump\t// in\n    tag_172:\n        /* \"worldcup/DreamChallenge.sol\":6039:6063  winAmount * nftCost * 80 */\n      tag_174\n      swap2\n      swap1\n      tag_173\n      jump\t// in\n    tag_174:\n        /* \"worldcup/DreamChallenge.sol\":6039:6069  winAmount * nftCost * 80 / 100 */\n      tag_175\n      swap2\n      swap1\n      tag_176\n      jump\t// in\n    tag_175:\n        /* \"worldcup/DreamChallenge.sol\":6032:6069  return winAmount * nftCost * 80 / 100 */\n      swap4\n      pop\n      pop\n      pop\n      pop\n        /* \"worldcup/DreamChallenge.sol\":5433:6077  function getUserRewards(address account, uint16 challengeId) public view returns(uint256){... */\n    tag_163:\n      swap3\n      swap2\n      pop\n      pop\n      jump\t// out\n        /* \"worldcup/Adminable.sol\":1006:1117  function isAdmin(address account) public view virtual returns (bool) {... */\n    tag_57:\n        /* \"worldcup/Adminable.sol\":1069:1073  bool */\n      0x00\n        /* \"worldcup/Adminable.sol\":1093:1100  _admins */\n      dup1\n        /* \"worldcup/Adminable.sol\":1093:1109  _admins[account] */\n      0x00\n        /* \"worldcup/Adminable.sol\":1101:1108  account */\n      dup4\n        /* \"worldcup/Adminable.sol\":1093:1109  _admins[account] */\n      0xffffffffffffffffffffffffffffffffffffffff\n      and\n      0xffffffffffffffffffffffffffffffffffffffff\n      and\n      dup2\n      mstore\n      0x20\n      add\n      swap1\n      dup2\n      mstore\n      0x20\n      add\n      0x00\n      keccak256\n      0x00\n      swap1\n      sload\n      swap1\n      0x0100\n      exp\n      swap1\n      div\n      0xff\n      and\n        /* \"worldcup/Adminable.sol\":1086:1109  return _admins[account] */\n      swap1\n      pop\n        /* \"worldcup/Adminable.sol\":1006:1117  function isAdmin(address account) public view virtual returns (bool) {... */\n      swap2\n      swap1\n      pop\n      jump\t// out\n        /* \"worldcup/DreamChallenge.sol\":558:580  address public teamNft */\n    tag_60:\n      0x02\n      0x00\n      swap1\n      sload\n      swap1\n      0x0100\n      exp\n      swap1\n      div\n      0xffffffffffffffffffffffffffffffffffffffff\n      and\n      dup2\n      jump\t// out\n        /* \"worldcup/DreamChallenge.sol\":2447:3460  function enterChallenge(uint16 _id, uint256 _tokenid, uint256 _amount) public {... */\n    tag_66:\n        /* \"worldcup/DreamChallenge.sol\":2556:2557  0 */\n      0x00\n        /* \"worldcup/DreamChallenge.sol\":2546:2553  _amount */\n      dup2\n        /* \"worldcup/DreamChallenge.sol\":2546:2557  _amount > 0 */\n      gt\n        /* \"worldcup/DreamChallenge.sol\":2538:2576  require(_amount > 0, \"Amount is zero\") */\n      tag_179\n      jumpi\n      mload(0x40)\n      0x08c379a000000000000000000000000000000000000000000000000000000000\n      dup2\n      mstore\n      0x04\n      add\n      tag_180\n      swap1\n      tag_181\n      jump\t// in\n    tag_180:\n      mload(0x40)\n      dup1\n      swap2\n      sub\n      swap1\n      revert\n    tag_179:\n        /* \"worldcup/DreamChallenge.sol\":2587:2609  Challenge memory chage */\n      0x00\n        /* \"worldcup/DreamChallenge.sol\":2612:2622  challenges */\n      0x05\n        /* \"worldcup/DreamChallenge.sol\":2612:2627  challenges[_id] */\n      0x00\n        /* \"worldcup/DreamChallenge.sol\":2623:2626  _id */\n      dup6\n        /* \"worldcup/DreamChallenge.sol\":2612:2627  challenges[_id] */\n      0xffff\n      and\n      0xffff\n      and\n      dup2\n      mstore\n      0x20\n      add\n      swap1\n      dup2\n      mstore\n      0x20\n      add\n      0x00\n      keccak256\n        /* \"worldcup/DreamChallenge.sol\":2587:2627  Challenge memory chage = challenges[_id] */\n      mload(0x40)\n      dup1\n      0x0120\n      add\n      0x40\n      mstore\n      swap1\n      dup2\n      0x00\n      dup3\n      add\n      0x00\n      swap1\n      sload\n      swap1\n      0x0100\n      exp\n      swap1\n      div\n      0xff\n      and\n      0x01\n      dup2\n      gt\n      iszero\n      tag_182\n      jumpi\n      tag_183\n      tag_132\n      jump\t// in\n    tag_183:\n    tag_182:\n      0x01\n      dup2\n      gt\n      iszero\n      tag_184\n      jumpi\n      tag_185\n      tag_132\n      jump\t// in\n    tag_185:\n    tag_184:\n      dup2\n      mstore\n      0x20\n      add\n      0x00\n      dup3\n      add\n      0x01\n      swap1\n      sload\n      swap1\n      0x0100\n      exp\n      swap1\n      div\n      0xffff\n      and\n      0xffff\n      and\n      0xffff\n      and\n      dup2\n      mstore\n      0x20\n      add\n      0x01\n      dup3\n      add\n      sload\n      dup2\n      mstore\n      0x20\n      add\n      0x02\n      dup3\n      add\n      sload\n      dup2\n      mstore\n      0x20\n      add\n      0x03\n      dup3\n      add\n      sload\n      dup2\n      mstore\n      0x20\n      add\n      0x04\n      dup3\n      add\n      sload\n      dup2\n      mstore\n      0x20\n      add\n      0x05\n      dup3\n      add\n      sload\n      dup2\n      mstore\n      0x20\n      add\n      0x06\n      dup3\n      add\n      sload\n      dup2\n      mstore\n      0x20\n      add\n      0x07\n      dup3\n      add\n      sload\n      dup2\n      mstore\n      pop\n      pop\n      swap1\n      pop\n        /* \"worldcup/DreamChallenge.sol\":2660:2661  0 */\n      0x00\n        /* \"worldcup/DreamChallenge.sol\":2648:2653  chage */\n      dup2\n        /* \"worldcup/DreamChallenge.sol\":2648:2656  chage.id */\n      0x20\n      add\n      mload\n        /* \"worldcup/DreamChallenge.sol\":2648:2661  chage.id != 0 */\n      0xffff\n      and\n      sub\n        /* \"worldcup/DreamChallenge.sol\":2640:2674  require(chage.id != 0, \"Id error\") */\n      tag_186\n      jumpi\n      mload(0x40)\n      0x08c379a000000000000000000000000000000000000000000000000000000000\n      dup2\n      mstore\n      0x04\n      add\n      tag_187\n      swap1\n      tag_188\n      jump\t// in\n    tag_187:\n      mload(0x40)\n      dup1\n      swap2\n      sub\n      swap1\n      revert\n    tag_186:\n        /* \"worldcup/DreamChallenge.sol\":2710:2725  block.timestamp */\n      timestamp\n        /* \"worldcup/DreamChallenge.sol\":2693:2698  chage */\n      dup2\n        /* \"worldcup/DreamChallenge.sol\":2693:2706  chage.startAt */\n      0x40\n      add\n      mload\n        /* \"worldcup/DreamChallenge.sol\":2693:2725  chage.startAt <= block.timestamp */\n      gt\n      iszero\n        /* \"worldcup/DreamChallenge.sol\":2685:2749  require(chage.startAt <= block.timestamp, \"Challenge not start\") */\n      tag_189\n      jumpi\n      mload(0x40)\n      0x08c379a000000000000000000000000000000000000000000000000000000000\n      dup2\n      mstore\n      0x04\n      add\n      tag_190\n      swap1\n      tag_191\n      jump\t// in\n    tag_190:\n      mload(0x40)\n      dup1\n      swap2\n      sub\n      swap1\n      revert\n    tag_189:\n        /* \"worldcup/DreamChallenge.sol\":2789:2797  _tokenid */\n      dup3\n        /* \"worldcup/DreamChallenge.sol\":2768:2773  chage */\n      dup2\n        /* \"worldcup/DreamChallenge.sol\":2768:2785  chage.tokenIdLeft */\n      0x80\n      add\n      mload\n        /* \"worldcup/DreamChallenge.sol\":2768:2797  chage.tokenIdLeft == _tokenid */\n      eq\n        /* \"worldcup/DreamChallenge.sol\":2768:2831  chage.tokenIdLeft == _tokenid || chage.tokenIdRight == _tokenid */\n      dup1\n      tag_192\n      jumpi\n      pop\n        /* \"worldcup/DreamChallenge.sol\":2823:2831  _tokenid */\n      dup3\n        /* \"worldcup/DreamChallenge.sol\":2801:2806  chage */\n      dup2\n        /* \"worldcup/DreamChallenge.sol\":2801:2819  chage.tokenIdRight */\n      0xa0\n      add\n      mload\n        /* \"worldcup/DreamChallenge.sol\":2801:2831  chage.tokenIdRight == _tokenid */\n      eq\n        /* \"worldcup/DreamChallenge.sol\":2768:2831  chage.tokenIdLeft == _tokenid || chage.tokenIdRight == _tokenid */\n    tag_192:\n        /* \"worldcup/DreamChallenge.sol\":2760:2861  require(chage.tokenIdLeft == _tokenid || chage.tokenIdRight == _tokenid, \"Token id not in challenge\") */\n      tag_193\n      jumpi\n      mload(0x40)\n      0x08c379a000000000000000000000000000000000000000000000000000000000\n      dup2\n      mstore\n      0x04\n      add\n      tag_194\n      swap1\n      tag_195\n      jump\t// in\n    tag_194:\n      mload(0x40)\n      dup1\n      swap2\n      sub\n      swap1\n      revert\n    tag_193:\n        /* \"worldcup/DreamChallenge.sol\":2883:2890  teamNft */\n      0x02\n      0x00\n      swap1\n      sload\n      swap1\n      0x0100\n      exp\n      swap1\n      div\n      0xffffffffffffffffffffffffffffffffffffffff\n      and\n        /* \"worldcup/DreamChallenge.sol\":2874:2908  IERC1155(teamNft).safeTransferFrom */\n      0xffffffffffffffffffffffffffffffffffffffff\n      and\n      0xf242432a\n        /* \"worldcup/DreamChallenge.sol\":2909:2919  msg.sender */\n      caller\n        /* \"worldcup/DreamChallenge.sol\":2929:2933  this */\n      address\n        /* \"worldcup/DreamChallenge.sol\":2936:2944  _tokenid */\n      dup7\n        /* \"worldcup/DreamChallenge.sol\":2946:2953  _amount */\n      dup7\n        /* \"worldcup/DreamChallenge.sol\":2874:2958  IERC1155(teamNft).safeTransferFrom(msg.sender, address(this), _tokenid, _amount, \"\") */\n      mload(0x40)\n      dup6\n      0xffffffff\n      and\n      0xe0\n      shl\n      dup2\n      mstore\n      0x04\n      add\n      tag_196\n      swap5\n      swap4\n      swap3\n      swap2\n      swap1\n      tag_138\n      jump\t// in\n    tag_196:\n      0x00\n      mload(0x40)\n      dup1\n      dup4\n      sub\n      dup2\n      0x00\n      dup8\n      dup1\n      extcodesize\n      iszero\n      dup1\n      iszero\n      tag_197\n      jumpi\n      0x00\n      dup1\n      revert\n    tag_197:\n      pop\n      gas\n      call\n      iszero\n      dup1\n      iszero\n      tag_199\n      jumpi\n      returndatasize\n      0x00\n      dup1\n      returndatacopy\n      revert(0x00, returndatasize)\n    tag_199:\n      pop\n      pop\n      pop\n      pop\n        /* \"worldcup/DreamChallenge.sol\":2969:2993  UserInfo memory userinfo */\n      0x00\n        /* \"worldcup/DreamChallenge.sol\":2996:3010  userChallenges */\n      0x06\n        /* \"worldcup/DreamChallenge.sol\":2996:3022  userChallenges[msg.sender] */\n      0x00\n        /* \"worldcup/DreamChallenge.sol\":3011:3021  msg.sender */\n      caller\n        /* \"worldcup/DreamChallenge.sol\":2996:3022  userChallenges[msg.sender] */\n      0xffffffffffffffffffffffffffffffffffffffff\n      and\n      0xffffffffffffffffffffffffffffffffffffffff\n      and\n      dup2\n      mstore\n      0x20\n      add\n      swap1\n      dup2\n      mstore\n      0x20\n      add\n      0x00\n      keccak256\n        /* \"worldcup/DreamChallenge.sol\":2996:3027  userChallenges[msg.sender][_id] */\n      0x00\n        /* \"worldcup/DreamChallenge.sol\":3023:3026  _id */\n      dup7\n        /* \"worldcup/DreamChallenge.sol\":2996:3027  userChallenges[msg.sender][_id] */\n      0xffff\n      and\n      0xffff\n      and\n      dup2\n      mstore\n      0x20\n      add\n      swap1\n      dup2\n      mstore\n      0x20\n      add\n      0x00\n      keccak256\n        /* \"worldcup/DreamChallenge.sol\":2969:3027  UserInfo memory userinfo = userChallenges[msg.sender][_id] */\n      mload(0x40)\n      dup1\n      0x80\n      add\n      0x40\n      mstore\n      swap1\n      dup2\n      0x00\n      dup3\n      add\n      0x00\n      swap1\n      sload\n      swap1\n      0x0100\n      exp\n      swap1\n      div\n      0xffff\n      and\n      0xffff\n      and\n      0xffff\n      and\n      dup2\n      mstore\n      0x20\n      add\n      0x01\n      dup3\n      add\n      sload\n      dup2\n      mstore\n      0x20\n      add\n      0x02\n      dup3\n      add\n      sload\n      dup2\n      mstore\n      0x20\n      add\n      0x03\n      dup3\n      add\n      0x00\n      swap1\n      sload\n      swap1\n      0x0100\n      exp\n      swap1\n      div\n      0xff\n      and\n      iszero\n      iszero\n      iszero\n      iszero\n      dup2\n      mstore\n      pop\n      pop\n      swap1\n      pop\n        /* \"worldcup/DreamChallenge.sol\":3061:3064  _id */\n      dup5\n        /* \"worldcup/DreamChallenge.sol\":3038:3046  userinfo */\n      dup2\n        /* \"worldcup/DreamChallenge.sol\":3038:3058  userinfo.challengeId */\n      0x00\n      add\n        /* \"worldcup/DreamChallenge.sol\":3038:3064  userinfo.challengeId = _id */\n      swap1\n      0xffff\n      and\n      swap1\n      dup2\n      0xffff\n      and\n      dup2\n      mstore\n      pop\n      pop\n        /* \"worldcup/DreamChallenge.sol\":3077:3093  userChallengeIds */\n      0x07\n        /* \"worldcup/DreamChallenge.sol\":3077:3105  userChallengeIds[msg.sender] */\n      0x00\n        /* \"worldcup/DreamChallenge.sol\":3094:3104  msg.sender */\n      caller\n        /* \"worldcup/DreamChallenge.sol\":3077:3105  userChallengeIds[msg.sender] */\n      0xffffffffffffffffffffffffffffffffffffffff\n      and\n      0xffffffffffffffffffffffffffffffffffffffff\n      and\n      dup2\n      mstore\n      0x20\n      add\n      swap1\n      dup2\n      mstore\n      0x20\n      add\n      0x00\n      keccak256\n        /* \"worldcup/DreamChallenge.sol\":3111:3114  _id */\n      dup6\n        /* \"worldcup/DreamChallenge.sol\":3077:3115  userChallengeIds[msg.sender].push(_id) */\n      swap1\n      dup1\n      0x01\n      dup2\n      sload\n      add\n      dup1\n      dup3\n      sstore\n      dup1\n      swap2\n      pop\n      pop\n      0x01\n      swap1\n      sub\n      swap1\n      0x00\n      mstore\n      keccak256(0x00, 0x20)\n      swap1\n      0x10\n      swap2\n      dup3\n      dup3\n      div\n      add\n      swap2\n      swap1\n      mod\n      0x02\n      mul\n      swap1\n      swap2\n      swap1\n      swap2\n      swap1\n      swap2\n      0x0100\n      exp\n      dup2\n      sload\n      dup2\n      0xffff\n      mul\n      not\n      and\n      swap1\n      dup4\n      0xffff\n      and\n      mul\n      or\n      swap1\n      sstore\n      pop\n        /* \"worldcup/DreamChallenge.sol\":3150:3158  _tokenid */\n      dup4\n        /* \"worldcup/DreamChallenge.sol\":3129:3134  chage */\n      dup3\n        /* \"worldcup/DreamChallenge.sol\":3129:3146  chage.tokenIdLeft */\n      0x80\n      add\n      mload\n        /* \"worldcup/DreamChallenge.sol\":3129:3158  chage.tokenIdLeft == _tokenid */\n      sub\n        /* \"worldcup/DreamChallenge.sol\":3126:3398  if(chage.tokenIdLeft == _tokenid) {... */\n      tag_201\n      jumpi\n        /* \"worldcup/DreamChallenge.sol\":3210:3217  _amount */\n      dup3\n        /* \"worldcup/DreamChallenge.sol\":3175:3185  challenges */\n      0x05\n        /* \"worldcup/DreamChallenge.sol\":3175:3190  challenges[_id] */\n      0x00\n        /* \"worldcup/DreamChallenge.sol\":3186:3189  _id */\n      dup8\n        /* \"worldcup/DreamChallenge.sol\":3175:3190  challenges[_id] */\n      0xffff\n      and\n      0xffff\n      and\n      dup2\n      mstore\n      0x20\n      add\n      swap1\n      dup2\n      mstore\n      0x20\n      add\n      0x00\n      keccak256\n        /* \"worldcup/DreamChallenge.sol\":3175:3206  challenges[_id].leftTotalAmount */\n      0x05\n      add\n      0x00\n        /* \"worldcup/DreamChallenge.sol\":3175:3217  challenges[_id].leftTotalAmount += _amount */\n      dup3\n      dup3\n      sload\n      tag_202\n      swap2\n      swap1\n      tag_203\n      jump\t// in\n    tag_202:\n      swap3\n      pop\n      pop\n      dup2\n      swap1\n      sstore\n      pop\n        /* \"worldcup/DreamChallenge.sol\":3256:3263  _amount */\n      dup3\n        /* \"worldcup/DreamChallenge.sol\":3232:3240  userinfo */\n      dup2\n        /* \"worldcup/DreamChallenge.sol\":3232:3252  userinfo.amountsLeft */\n      0x20\n      add\n        /* \"worldcup/DreamChallenge.sol\":3232:3263  userinfo.amountsLeft += _amount */\n      dup2\n      dup2\n      mload\n      tag_204\n      swap2\n      swap1\n      tag_203\n      jump\t// in\n    tag_204:\n      swap2\n      pop\n      dup2\n      dup2\n      mstore\n      pop\n      pop\n        /* \"worldcup/DreamChallenge.sol\":3126:3398  if(chage.tokenIdLeft == _tokenid) {... */\n      jump(tag_205)\n    tag_201:\n        /* \"worldcup/DreamChallenge.sol\":3332:3339  _amount */\n      dup3\n        /* \"worldcup/DreamChallenge.sol\":3296:3306  challenges */\n      0x05\n        /* \"worldcup/DreamChallenge.sol\":3296:3311  challenges[_id] */\n      0x00\n        /* \"worldcup/DreamChallenge.sol\":3307:3310  _id */\n      dup8\n        /* \"worldcup/DreamChallenge.sol\":3296:3311  challenges[_id] */\n      0xffff\n      and\n      0xffff\n      and\n      dup2\n      mstore\n      0x20\n      add\n      swap1\n      dup2\n      mstore\n      0x20\n      add\n      0x00\n      keccak256\n        /* \"worldcup/DreamChallenge.sol\":3296:3328  challenges[_id].rightTotalAmount */\n      0x06\n      add\n      0x00\n        /* \"worldcup/DreamChallenge.sol\":3296:3339  challenges[_id].rightTotalAmount += _amount */\n      dup3\n      dup3\n      sload\n      tag_206\n      swap2\n      swap1\n      tag_203\n      jump\t// in\n    tag_206:\n      swap3\n      pop\n      pop\n      dup2\n      swap1\n      sstore\n      pop\n        /* \"worldcup/DreamChallenge.sol\":3379:3386  _amount */\n      dup3\n        /* \"worldcup/DreamChallenge.sol\":3354:3362  userinfo */\n      dup2\n        /* \"worldcup/DreamChallenge.sol\":3354:3375  userinfo.amountsRight */\n      0x40\n      add\n        /* \"worldcup/DreamChallenge.sol\":3354:3386  userinfo.amountsRight += _amount */\n      dup2\n      dup2\n      mload\n      tag_207\n      swap2\n      swap1\n      tag_203\n      jump\t// in\n    tag_207:\n      swap2\n      pop\n      dup2\n      dup2\n      mstore\n      pop\n      pop\n        /* \"worldcup/DreamChallenge.sol\":3126:3398  if(chage.tokenIdLeft == _tokenid) {... */\n    tag_205:\n        /* \"worldcup/DreamChallenge.sol\":3444:3452  userinfo */\n      dup1\n        /* \"worldcup/DreamChallenge.sol\":3410:3424  userChallenges */\n      0x06\n        /* \"worldcup/DreamChallenge.sol\":3410:3436  userChallenges[msg.sender] */\n      0x00\n        /* \"worldcup/DreamChallenge.sol\":3425:3435  msg.sender */\n      caller\n        /* \"worldcup/DreamChallenge.sol\":3410:3436  userChallenges[msg.sender] */\n      0xffffffffffffffffffffffffffffffffffffffff\n      and\n      0xffffffffffffffffffffffffffffffffffffffff\n      and\n      dup2\n      mstore\n      0x20\n      add\n      swap1\n      dup2\n      mstore\n      0x20\n      add\n      0x00\n      keccak256\n        /* \"worldcup/DreamChallenge.sol\":3410:3441  userChallenges[msg.sender][_id] */\n      0x00\n        /* \"worldcup/DreamChallenge.sol\":3437:3440  _id */\n      dup8\n        /* \"worldcup/DreamChallenge.sol\":3410:3441  userChallenges[msg.sender][_id] */\n      0xffff\n      and\n      0xffff\n      and\n      dup2\n      mstore\n      0x20\n      add\n      swap1\n      dup2\n      mstore\n      0x20\n      add\n      0x00\n      keccak256\n        /* \"worldcup/DreamChallenge.sol\":3410:3452  userChallenges[msg.sender][_id] = userinfo */\n      0x00\n      dup3\n      add\n      mload\n      dup2\n      0x00\n      add\n      exp(0x0100, 0x00)\n      dup2\n      sload\n      dup2\n      0xffff\n      mul\n      not\n      and\n      swap1\n      dup4\n      0xffff\n      and\n      mul\n      or\n      swap1\n      sstore\n      pop\n      0x20\n      dup3\n      add\n      mload\n      dup2\n      0x01\n      add\n      sstore\n      0x40\n      dup3\n      add\n      mload\n      dup2\n      0x02\n      add\n      sstore\n      0x60\n      dup3\n      add\n      mload\n      dup2\n      0x03\n      add\n      exp(0x0100, 0x00)\n      dup2\n      sload\n      dup2\n      0xff\n      mul\n      not\n      and\n      swap1\n      dup4\n      iszero\n      iszero\n      mul\n      or\n      swap1\n      sstore\n      pop\n      swap1\n      pop\n      pop\n        /* \"worldcup/DreamChallenge.sol\":2525:3460  {... */\n      pop\n      pop\n        /* \"worldcup/DreamChallenge.sol\":2447:3460  function enterChallenge(uint16 _id, uint256 _tokenid, uint256 _amount) public {... */\n      pop\n      pop\n      pop\n      jump\t// out\n        /* \"worldcup/DreamChallenge.sol\":4804:4888  function setTeamNft(address _nft) public onlyOwner {... */\n    tag_69:\n        /* \"worldcup/Adminable.sol\":704:716  _msgSender() */\n      tag_209\n        /* \"worldcup/Adminable.sol\":704:714  _msgSender */\n      tag_155\n        /* \"worldcup/Adminable.sol\":704:716  _msgSender() */\n      jump\t// in\n    tag_209:\n        /* \"worldcup/Adminable.sol\":693:716  owner() == _msgSender() */\n      0xffffffffffffffffffffffffffffffffffffffff\n      and\n        /* \"worldcup/Adminable.sol\":693:700  owner() */\n      tag_210\n        /* \"worldcup/Adminable.sol\":693:698  owner */\n      tag_86\n        /* \"worldcup/Adminable.sol\":693:700  owner() */\n      jump\t// in\n    tag_210:\n        /* \"worldcup/Adminable.sol\":693:716  owner() == _msgSender() */\n      0xffffffffffffffffffffffffffffffffffffffff\n      and\n      eq\n        /* \"worldcup/Adminable.sol\":685:755  require(owner() == _msgSender(), \"Adminable: caller is not the owner\") */\n      tag_211\n      jumpi\n      mload(0x40)\n      0x08c379a000000000000000000000000000000000000000000000000000000000\n      dup2\n      mstore\n      0x04\n      add\n      tag_212\n      swap1\n      tag_159\n      jump\t// in\n    tag_212:\n      mload(0x40)\n      dup1\n      swap2\n      sub\n      swap1\n      revert\n    tag_211:\n        /* \"worldcup/DreamChallenge.sol\":4876:4880  _nft */\n      dup1\n        /* \"worldcup/DreamChallenge.sol\":4866:4873  teamNft */\n      0x02\n      0x00\n        /* \"worldcup/DreamChallenge.sol\":4866:4880  teamNft = _nft */\n      0x0100\n      exp\n      dup2\n      sload\n      dup2\n      0xffffffffffffffffffffffffffffffffffffffff\n      mul\n      not\n      and\n      swap1\n      dup4\n      0xffffffffffffffffffffffffffffffffffffffff\n      and\n      mul\n      or\n      swap1\n      sstore\n      pop\n        /* \"worldcup/DreamChallenge.sol\":4804:4888  function setTeamNft(address _nft) public onlyOwner {... */\n      pop\n      jump\t// out\n        /* \"worldcup/Adminable.sol\":1125:1228  function renounceOwnership() public virtual onlyOwner {... */\n    tag_71:\n        /* \"worldcup/Adminable.sol\":704:716  _msgSender() */\n      tag_215\n        /* \"worldcup/Adminable.sol\":704:714  _msgSender */\n      tag_155\n        /* \"worldcup/Adminable.sol\":704:716  _msgSender() */\n      jump\t// in\n    tag_215:\n        /* \"worldcup/Adminable.sol\":693:716  owner() == _msgSender() */\n      0xffffffffffffffffffffffffffffffffffffffff\n      and\n        /* \"worldcup/Adminable.sol\":693:700  owner() */\n      tag_216\n        /* \"worldcup/Adminable.sol\":693:698  owner */\n      tag_86\n        /* \"worldcup/Adminable.sol\":693:700  owner() */\n      jump\t// in\n    tag_216:\n        /* \"worldcup/Adminable.sol\":693:716  owner() == _msgSender() */\n      0xffffffffffffffffffffffffffffffffffffffff\n      and\n      eq\n        /* \"worldcup/Adminable.sol\":685:755  require(owner() == _msgSender(), \"Adminable: caller is not the owner\") */\n      tag_217\n      jumpi\n      mload(0x40)\n      0x08c379a000000000000000000000000000000000000000000000000000000000\n      dup2\n      mstore\n      0x04\n      add\n      tag_218\n      swap1\n      tag_159\n      jump\t// in\n    tag_218:\n      mload(0x40)\n      dup1\n      swap2\n      sub\n      swap1\n      revert\n    tag_217:\n        /* \"worldcup/Adminable.sol\":1190:1220  _transferOwnership(address(0)) */\n      tag_220\n        /* \"worldcup/Adminable.sol\":1217:1218  0 */\n      0x00\n        /* \"worldcup/Adminable.sol\":1190:1208  _transferOwnership */\n      tag_221\n        /* \"worldcup/Adminable.sol\":1190:1220  _transferOwnership(address(0)) */\n      jump\t// in\n    tag_220:\n        /* \"worldcup/Adminable.sol\":1125:1228  function renounceOwnership() public virtual onlyOwner {... */\n      jump\t// out\n        /* \"worldcup/DreamChallenge.sol\":6225:6391  function getUserChallengeInfo(address account, uint16 challengeId) public view returns(UserInfo memory) {... */\n    tag_74:\n        /* \"worldcup/DreamChallenge.sol\":6312:6327  UserInfo memory */\n      tag_222\n      tag_223\n      jump\t// in\n    tag_222:\n        /* \"worldcup/DreamChallenge.sol\":6347:6361  userChallenges */\n      0x06\n        /* \"worldcup/DreamChallenge.sol\":6347:6370  userChallenges[account] */\n      0x00\n        /* \"worldcup/DreamChallenge.sol\":6362:6369  account */\n      dup5\n        /* \"worldcup/DreamChallenge.sol\":6347:6370  userChallenges[account] */\n      0xffffffffffffffffffffffffffffffffffffffff\n      and\n      0xffffffffffffffffffffffffffffffffffffffff\n      and\n      dup2\n      mstore\n      0x20\n      add\n      swap1\n      dup2\n      mstore\n      0x20\n      add\n      0x00\n      keccak256\n        /* \"worldcup/DreamChallenge.sol\":6347:6383  userChallenges[account][challengeId] */\n      0x00\n        /* \"worldcup/DreamChallenge.sol\":6371:6382  challengeId */\n      dup4\n        /* \"worldcup/DreamChallenge.sol\":6347:6383  userChallenges[account][challengeId] */\n      0xffff\n      and\n      0xffff\n      and\n      dup2\n      mstore\n      0x20\n      add\n      swap1\n      dup2\n      mstore\n      0x20\n      add\n      0x00\n      keccak256\n        /* \"worldcup/DreamChallenge.sol\":6340:6383  return userChallenges[account][challengeId] */\n      mload(0x40)\n      dup1\n      0x80\n      add\n      0x40\n      mstore\n      swap1\n      dup2\n      0x00\n      dup3\n      add\n      0x00\n      swap1\n      sload\n      swap1\n      0x0100\n      exp\n      swap1\n      div\n      0xffff\n      and\n      0xffff\n      and\n      0xffff\n      and\n      dup2\n      mstore\n      0x20\n      add\n      0x01\n      dup3\n      add\n      sload\n      dup2\n      mstore\n      0x20\n      add\n      0x02\n      dup3\n      add\n      sload\n      dup2\n      mstore\n      0x20\n      add\n      0x03\n      dup3\n      add\n      0x00\n      swap1\n      sload\n      swap1\n      0x0100\n      exp\n      swap1\n      div\n      0xff\n      and\n      iszero\n      iszero\n      iszero\n      iszero\n      dup2\n      mstore\n      pop\n      pop\n      swap1\n      pop\n        /* \"worldcup/DreamChallenge.sol\":6225:6391  function getUserChallengeInfo(address account, uint16 challengeId) public view returns(UserInfo memory) {... */\n      swap3\n      swap2\n      pop\n      pop\n      jump\t// out\n        /* \"worldcup/DreamChallenge.sol\":6399:6532  function getChallengeInfo(uint16 challengeId) public view returns(Challenge memory) {... */\n    tag_79:\n        /* \"worldcup/DreamChallenge.sol\":6465:6481  Challenge memory */\n      tag_225\n      tag_226\n      jump\t// in\n    tag_225:\n        /* \"worldcup/DreamChallenge.sol\":6501:6511  challenges */\n      0x05\n        /* \"worldcup/DreamChallenge.sol\":6501:6524  challenges[challengeId] */\n      0x00\n        /* \"worldcup/DreamChallenge.sol\":6512:6523  challengeId */\n      dup4\n        /* \"worldcup/DreamChallenge.sol\":6501:6524  challenges[challengeId] */\n      0xffff\n      and\n      0xffff\n      and\n      dup2\n      mstore\n      0x20\n      add\n      swap1\n      dup2\n      mstore\n      0x20\n      add\n      0x00\n      keccak256\n        /* \"worldcup/DreamChallenge.sol\":6494:6524  return challenges[challengeId] */\n      mload(0x40)\n      dup1\n      0x0120\n      add\n      0x40\n      mstore\n      swap1\n      dup2\n      0x00\n      dup3\n      add\n      0x00\n      swap1\n      sload\n      swap1\n      0x0100\n      exp\n      swap1\n      div\n      0xff\n      and\n      0x01\n      dup2\n      gt\n      iszero\n      tag_228\n      jumpi\n      tag_229\n      tag_132\n      jump\t// in\n    tag_229:\n    tag_228:\n      0x01\n      dup2\n      gt\n      iszero\n      tag_230\n      jumpi\n      tag_231\n      tag_132\n      jump\t// in\n    tag_231:\n    tag_230:\n      dup2\n      mstore\n      0x20\n      add\n      0x00\n      dup3\n      add\n      0x01\n      swap1\n      sload\n      swap1\n      0x0100\n      exp\n      swap1\n      div\n      0xffff\n      and\n      0xffff\n      and\n      0xffff\n      and\n      dup2\n      mstore\n      0x20\n      add\n      0x01\n      dup3\n      add\n      sload\n      dup2\n      mstore\n      0x20\n      add\n      0x02\n      dup3\n      add\n      sload\n      dup2\n      mstore\n      0x20\n      add\n      0x03\n      dup3\n      add\n      sload\n      dup2\n      mstore\n      0x20\n      add\n      0x04\n      dup3\n      add\n      sload\n      dup2\n      mstore\n      0x20\n      add\n      0x05\n      dup3\n      add\n      sload\n      dup2\n      mstore\n      0x20\n      add\n      0x06\n      dup3\n      add\n      sload\n      dup2\n      mstore\n      0x20\n      add\n      0x07\n      dup3\n      add\n      sload\n      dup2\n      mstore\n      pop\n      pop\n      swap1\n      pop\n        /* \"worldcup/DreamChallenge.sol\":6399:6532  function getChallengeInfo(uint16 challengeId) public view returns(Challenge memory) {... */\n      swap2\n      swap1\n      pop\n      jump\t// out\n        /* \"worldcup/DreamChallenge.sol\":4896:4992  function setRewardToken(address _token) public onlyOwner {... */\n    tag_84:\n        /* \"worldcup/Adminable.sol\":704:716  _msgSender() */\n      tag_233\n        /* \"worldcup/Adminable.sol\":704:714  _msgSender */\n      tag_155\n        /* \"worldcup/Adminable.sol\":704:716  _msgSender() */\n      jump\t// in\n    tag_233:\n        /* \"worldcup/Adminable.sol\":693:716  owner() == _msgSender() */\n      0xffffffffffffffffffffffffffffffffffffffff\n      and\n        /* \"worldcup/Adminable.sol\":693:700  owner() */\n      tag_234\n        /* \"worldcup/Adminable.sol\":693:698  owner */\n      tag_86\n        /* \"worldcup/Adminable.sol\":693:700  owner() */\n      jump\t// in\n    tag_234:\n        /* \"worldcup/Adminable.sol\":693:716  owner() == _msgSender() */\n      0xffffffffffffffffffffffffffffffffffffffff\n      and\n      eq\n        /* \"worldcup/Adminable.sol\":685:755  require(owner() == _msgSender(), \"Adminable: caller is not the owner\") */\n      tag_235\n      jumpi\n      mload(0x40)\n      0x08c379a000000000000000000000000000000000000000000000000000000000\n      dup2\n      mstore\n      0x04\n      add\n      tag_236\n      swap1\n      tag_159\n      jump\t// in\n    tag_236:\n      mload(0x40)\n      dup1\n      swap2\n      sub\n      swap1\n      revert\n    tag_235:\n        /* \"worldcup/DreamChallenge.sol\":4978:4984  _token */\n      dup1\n        /* \"worldcup/DreamChallenge.sol\":4964:4975  rewardToken */\n      0x03\n      0x00\n        /* \"worldcup/DreamChallenge.sol\":4964:4984  rewardToken = _token */\n      0x0100\n      exp\n      dup2\n      sload\n      dup2\n      0xffffffffffffffffffffffffffffffffffffffff\n      mul\n      not\n      and\n      swap1\n      dup4\n      0xffffffffffffffffffffffffffffffffffffffff\n      and\n      mul\n      or\n      swap1\n      sstore\n      pop\n        /* \"worldcup/DreamChallenge.sol\":4896:4992  function setRewardToken(address _token) public onlyOwner {... */\n      pop\n      jump\t// out\n        /* \"worldcup/Adminable.sol\":911:998  function owner() public view virtual returns (address) {... */\n    tag_86:\n        /* \"worldcup/Adminable.sol\":957:964  address */\n      0x00\n        /* \"worldcup/Adminable.sol\":984:990  _owner */\n      0x01\n      0x00\n      swap1\n      sload\n      swap1\n      0x0100\n      exp\n      swap1\n      div\n      0xffffffffffffffffffffffffffffffffffffffff\n      and\n        /* \"worldcup/Adminable.sol\":977:990  return _owner */\n      swap1\n      pop\n        /* \"worldcup/Adminable.sol\":911:998  function owner() public view virtual returns (address) {... */\n      swap1\n      jump\t// out\n        /* \"worldcup/DreamChallenge.sol\":3468:3910  function openChallenge(uint16 challengeId, uint256 winnerTokenId) public onlyAdmin {... */\n    tag_91:\n        /* \"worldcup/Adminable.sol\":823:844  isAdmin(_msgSender()) */\n      tag_240\n        /* \"worldcup/Adminable.sol\":831:843  _msgSender() */\n      tag_241\n        /* \"worldcup/Adminable.sol\":831:841  _msgSender */\n      tag_155\n        /* \"worldcup/Adminable.sol\":831:843  _msgSender() */\n      jump\t// in\n    tag_241:\n        /* \"worldcup/Adminable.sol\":823:830  isAdmin */\n      tag_57\n        /* \"worldcup/Adminable.sol\":823:844  isAdmin(_msgSender()) */\n      jump\t// in\n    tag_240:\n        /* \"worldcup/Adminable.sol\":815:883  require(isAdmin(_msgSender()), \"Adminable: caller is not the admin\") */\n      tag_242\n      jumpi\n      mload(0x40)\n      0x08c379a000000000000000000000000000000000000000000000000000000000\n      dup2\n      mstore\n      0x04\n      add\n      tag_243\n      swap1\n      tag_244\n      jump\t// in\n    tag_243:\n      mload(0x40)\n      dup1\n      swap2\n      sub\n      swap1\n      revert\n    tag_242:\n        /* \"worldcup/DreamChallenge.sol\":3562:3588  Challenge memory challenge */\n      0x00\n        /* \"worldcup/DreamChallenge.sol\":3591:3601  challenges */\n      0x05\n        /* \"worldcup/DreamChallenge.sol\":3591:3614  challenges[challengeId] */\n      0x00\n        /* \"worldcup/DreamChallenge.sol\":3602:3613  challengeId */\n      dup5\n        /* \"worldcup/DreamChallenge.sol\":3591:3614  challenges[challengeId] */\n      0xffff\n      and\n      0xffff\n      and\n      dup2\n      mstore\n      0x20\n      add\n      swap1\n      dup2\n      mstore\n      0x20\n      add\n      0x00\n      keccak256\n        /* \"worldcup/DreamChallenge.sol\":3562:3614  Challenge memory challenge = challenges[challengeId] */\n      mload(0x40)\n      dup1\n      0x0120\n      add\n      0x40\n      mstore\n      swap1\n      dup2\n      0x00\n      dup3\n      add\n      0x00\n      swap1\n      sload\n      swap1\n      0x0100\n      exp\n      swap1\n      div\n      0xff\n      and\n      0x01\n      dup2\n      gt\n      iszero\n      tag_246\n      jumpi\n      tag_247\n      tag_132\n      jump\t// in\n    tag_247:\n    tag_246:\n      0x01\n      dup2\n      gt\n      iszero\n      tag_248\n      jumpi\n      tag_249\n      tag_132\n      jump\t// in\n    tag_249:\n    tag_248:\n      dup2\n      mstore\n      0x20\n      add\n      0x00\n      dup3\n      add\n      0x01\n      swap1\n      sload\n      swap1\n      0x0100\n      exp\n      swap1\n      div\n      0xffff\n      and\n      0xffff\n      and\n      0xffff\n      and\n      dup2\n      mstore\n      0x20\n      add\n      0x01\n      dup3\n      add\n      sload\n      dup2\n      mstore\n      0x20\n      add\n      0x02\n      dup3\n      add\n      sload\n      dup2\n      mstore\n      0x20\n      add\n      0x03\n      dup3\n      add\n      sload\n      dup2\n      mstore\n      0x20\n      add\n      0x04\n      dup3\n      add\n      sload\n      dup2\n      mstore\n      0x20\n      add\n      0x05\n      dup3\n      add\n      sload\n      dup2\n      mstore\n      0x20\n      add\n      0x06\n      dup3\n      add\n      sload\n      dup2\n      mstore\n      0x20\n      add\n      0x07\n      dup3\n      add\n      sload\n      dup2\n      mstore\n      pop\n      pop\n      swap1\n      pop\n        /* \"worldcup/DreamChallenge.sol\":3648:3649  0 */\n      0x00\n        /* \"worldcup/DreamChallenge.sol\":3633:3642  challenge */\n      dup2\n        /* \"worldcup/DreamChallenge.sol\":3633:3645  challenge.id */\n      0x20\n      add\n      mload\n        /* \"worldcup/DreamChallenge.sol\":3633:3649  challenge.id > 0 */\n      0xffff\n      and\n      gt\n        /* \"worldcup/DreamChallenge.sol\":3625:3674  require(challenge.id > 0, \"Invalid challenge id\") */\n      tag_250\n      jumpi\n      mload(0x40)\n      0x08c379a000000000000000000000000000000000000000000000000000000000\n      dup2\n      mstore\n      0x04\n      add\n      tag_251\n      swap1\n      tag_252\n      jump\t// in\n    tag_251:\n      mload(0x40)\n      dup1\n      swap2\n      sub\n      swap1\n      revert\n    tag_250:\n        /* \"worldcup/DreamChallenge.sol\":3713:3728  block.timestamp */\n      timestamp\n        /* \"worldcup/DreamChallenge.sol\":3693:3702  challenge */\n      dup2\n        /* \"worldcup/DreamChallenge.sol\":3693:3710  challenge.startAt */\n      0x40\n      add\n      mload\n        /* \"worldcup/DreamChallenge.sol\":3693:3728  challenge.startAt < block.timestamp */\n      lt\n        /* \"worldcup/DreamChallenge.sol\":3685:3752  require(challenge.startAt < block.timestamp, \"Challenge not start\") */\n      tag_253\n      jumpi\n      mload(0x40)\n      0x08c379a000000000000000000000000000000000000000000000000000000000\n      dup2\n      mstore\n      0x04\n      add\n      tag_254\n      swap1\n      tag_191\n      jump\t// in\n    tag_254:\n      mload(0x40)\n      dup1\n      swap2\n      sub\n      swap1\n      revert\n    tag_253:\n        /* \"worldcup/DreamChallenge.sol\":3783:3798  block.timestamp */\n      timestamp\n        /* \"worldcup/DreamChallenge.sol\":3765:3774  challenge */\n      dup2\n        /* \"worldcup/DreamChallenge.sol\":3765:3780  challenge.endAt */\n      0x60\n      add\n        /* \"worldcup/DreamChallenge.sol\":3765:3798  challenge.endAt = block.timestamp */\n      dup2\n      dup2\n      mstore\n      pop\n      pop\n        /* \"worldcup/DreamChallenge.sol\":3835:3848  winnerTokenId */\n      dup2\n        /* \"worldcup/DreamChallenge.sol\":3809:3818  challenge */\n      dup2\n        /* \"worldcup/DreamChallenge.sol\":3809:3832  challenge.winnerTokenId */\n      0x0100\n      add\n        /* \"worldcup/DreamChallenge.sol\":3809:3848  challenge.winnerTokenId = winnerTokenId */\n      dup2\n      dup2\n      mstore\n      pop\n      pop\n        /* \"worldcup/DreamChallenge.sol\":3878:3888  msg.sender */\n      caller\n        /* \"worldcup/DreamChallenge.sol\":3864:3902  OpenChallenge(msg.sender, challengeId) */\n      0xffffffffffffffffffffffffffffffffffffffff\n      and\n      0x8fdc8870ecd42629e72f8c2edf272000e1824b081ef420869c8435da7d78ef61\n        /* \"worldcup/DreamChallenge.sol\":3890:3901  challengeId */\n      dup5\n        /* \"worldcup/DreamChallenge.sol\":3864:3902  OpenChallenge(msg.sender, challengeId) */\n      mload(0x40)\n      tag_255\n      swap2\n      swap1\n      tag_123\n      jump\t// in\n    tag_255:\n      mload(0x40)\n      dup1\n      swap2\n      sub\n      swap1\n      log2\n        /* \"worldcup/DreamChallenge.sol\":3551:3910  {... */\n      pop\n        /* \"worldcup/DreamChallenge.sol\":3468:3910  function openChallenge(uint16 challengeId, uint256 winnerTokenId) public onlyAdmin {... */\n      pop\n      pop\n      jump\t// out\n        /* \"https://github.com/OpenZeppelin/openzeppelin-contracts/blob/master/contracts/token/ERC1155/utils/ERC1155Holder.sol\":724:971  function onERC1155BatchReceived(... */\n    tag_95:\n        /* \"https://github.com/OpenZeppelin/openzeppelin-contracts/blob/master/contracts/token/ERC1155/utils/ERC1155Holder.sol\":903:909  bytes4 */\n      0x00\n        /* \"https://github.com/OpenZeppelin/openzeppelin-contracts/blob/master/contracts/token/ERC1155/utils/ERC1155Holder.sol\":928:964  this.onERC1155BatchReceived.selector */\n      shl(0xe0, 0xbc197c81)\n        /* \"https://github.com/OpenZeppelin/openzeppelin-contracts/blob/master/contracts/token/ERC1155/utils/ERC1155Holder.sol\":921:964  return this.onERC1155BatchReceived.selector */\n      swap1\n      pop\n        /* \"https://github.com/OpenZeppelin/openzeppelin-contracts/blob/master/contracts/token/ERC1155/utils/ERC1155Holder.sol\":724:971  function onERC1155BatchReceived(... */\n      swap6\n      swap5\n      pop\n      pop\n      pop\n      pop\n      pop\n      jump\t// out\n        /* \"worldcup/DreamChallenge.sol\":1826:2439  function addChallenge(Ctype _ctype, uint256 _startAt, uint256 _endAt,... */\n    tag_101:\n        /* \"worldcup/Adminable.sol\":823:844  isAdmin(_msgSender()) */\n      tag_258\n        /* \"worldcup/Adminable.sol\":831:843  _msgSender() */\n      tag_259\n        /* \"worldcup/Adminable.sol\":831:841  _msgSender */\n      tag_155\n        /* \"worldcup/Adminable.sol\":831:843  _msgSender() */\n      jump\t// in\n    tag_259:\n        /* \"worldcup/Adminable.sol\":823:830  isAdmin */\n      tag_57\n        /* \"worldcup/Adminable.sol\":823:844  isAdmin(_msgSender()) */\n      jump\t// in\n    tag_258:\n        /* \"worldcup/Adminable.sol\":815:883  require(isAdmin(_msgSender()), \"Adminable: caller is not the admin\") */\n      tag_260\n      jumpi\n      mload(0x40)\n      0x08c379a000000000000000000000000000000000000000000000000000000000\n      dup2\n      mstore\n      0x04\n      add\n      tag_261\n      swap1\n      tag_244\n      jump\t// in\n    tag_261:\n      mload(0x40)\n      dup1\n      swap2\n      sub\n      swap1\n      revert\n    tag_260:\n        /* \"worldcup/DreamChallenge.sol\":2000:2015  block.timestamp */\n      timestamp\n        /* \"worldcup/DreamChallenge.sol\":1989:1997  _startAt */\n      dup5\n        /* \"worldcup/DreamChallenge.sol\":1989:2015  _startAt > block.timestamp */\n      gt\n        /* \"worldcup/DreamChallenge.sol\":1981:2058  require(_startAt > block.timestamp, \"Start time must more than present time\") */\n      tag_263\n      jumpi\n      mload(0x40)\n      0x08c379a000000000000000000000000000000000000000000000000000000000\n      dup2\n      mstore\n      0x04\n      add\n      tag_264\n      swap1\n      tag_265\n      jump\t// in\n    tag_264:\n      mload(0x40)\n      dup1\n      swap2\n      sub\n      swap1\n      revert\n    tag_263:\n        /* \"worldcup/DreamChallenge.sol\":2093:2095  36 */\n      0x24\n        /* \"worldcup/DreamChallenge.sol\":2077:2089  _tokenIdLeft */\n      dup3\n        /* \"worldcup/DreamChallenge.sol\":2077:2095  _tokenIdLeft <= 36 */\n      gt\n      iszero\n        /* \"worldcup/DreamChallenge.sol\":2077:2118  _tokenIdLeft <= 36 && _tokenIdRight <= 36 */\n      dup1\n      iszero\n      tag_266\n      jumpi\n      pop\n        /* \"worldcup/DreamChallenge.sol\":2116:2118  36 */\n      0x24\n        /* \"worldcup/DreamChallenge.sol\":2099:2112  _tokenIdRight */\n      dup2\n        /* \"worldcup/DreamChallenge.sol\":2099:2118  _tokenIdRight <= 36 */\n      gt\n      iszero\n        /* \"worldcup/DreamChallenge.sol\":2077:2118  _tokenIdLeft <= 36 && _tokenIdRight <= 36 */\n    tag_266:\n        /* \"worldcup/DreamChallenge.sol\":2069:2149  require(_tokenIdLeft <= 36 && _tokenIdRight <= 36, \"Token id must less than 37\") */\n      tag_267\n      jumpi\n      mload(0x40)\n      0x08c379a000000000000000000000000000000000000000000000000000000000\n      dup2\n      mstore\n      0x04\n      add\n      tag_268\n      swap1\n      tag_269\n      jump\t// in\n    tag_268:\n      mload(0x40)\n      dup1\n      swap2\n      sub\n      swap1\n      revert\n    tag_267:\n        /* \"worldcup/DreamChallenge.sol\":2160:2175  challengeIdInex */\n      0x03\n      0x14\n        /* \"worldcup/DreamChallenge.sol\":2160:2177  challengeIdInex++ */\n      dup2\n      dup2\n      swap1\n      sload\n      swap1\n      0x0100\n      exp\n      swap1\n      div\n      0xffff\n      and\n      dup1\n      swap3\n      swap2\n      swap1\n      tag_270\n      swap1\n      tag_271\n      jump\t// in\n    tag_270:\n      swap2\n      swap1\n      0x0100\n      exp\n      dup2\n      sload\n      dup2\n      0xffff\n      mul\n      not\n      and\n      swap1\n      dup4\n      0xffff\n      and\n      mul\n      or\n      swap1\n      sstore\n      pop\n      pop\n        /* \"worldcup/DreamChallenge.sol\":2218:2431  Challenge(... */\n      mload(0x40)\n      dup1\n      0x0120\n      add\n      0x40\n      mstore\n      dup1\n        /* \"worldcup/DreamChallenge.sol\":2242:2248  _ctype */\n      dup7\n        /* \"worldcup/DreamChallenge.sol\":2218:2431  Challenge(... */\n      0x01\n      dup2\n      gt\n      iszero\n      tag_272\n      jumpi\n      tag_273\n      tag_132\n      jump\t// in\n    tag_273:\n    tag_272:\n      dup2\n      mstore\n      0x20\n      add\n        /* \"worldcup/DreamChallenge.sol\":2263:2278  challengeIdInex */\n      0x03\n      0x14\n      swap1\n      sload\n      swap1\n      0x0100\n      exp\n      swap1\n      div\n      0xffff\n      and\n        /* \"worldcup/DreamChallenge.sol\":2218:2431  Challenge(... */\n      0xffff\n      and\n      dup2\n      mstore\n      0x20\n      add\n        /* \"worldcup/DreamChallenge.sol\":2293:2301  _startAt */\n      dup6\n        /* \"worldcup/DreamChallenge.sol\":2218:2431  Challenge(... */\n      dup2\n      mstore\n      0x20\n      add\n        /* \"worldcup/DreamChallenge.sol\":2316:2317  0 */\n      0x00\n        /* \"worldcup/DreamChallenge.sol\":2218:2431  Challenge(... */\n      dup2\n      mstore\n      0x20\n      add\n        /* \"worldcup/DreamChallenge.sol\":2332:2344  _tokenIdLeft */\n      dup4\n        /* \"worldcup/DreamChallenge.sol\":2218:2431  Challenge(... */\n      dup2\n      mstore\n      0x20\n      add\n        /* \"worldcup/DreamChallenge.sol\":2359:2372  _tokenIdRight */\n      dup3\n        /* \"worldcup/DreamChallenge.sol\":2218:2431  Challenge(... */\n      dup2\n      mstore\n      0x20\n      add\n        /* \"worldcup/DreamChallenge.sol\":2387:2388  0 */\n      0x00\n        /* \"worldcup/DreamChallenge.sol\":2218:2431  Challenge(... */\n      dup2\n      mstore\n      0x20\n      add\n        /* \"worldcup/DreamChallenge.sol\":2403:2404  0 */\n      0x00\n        /* \"worldcup/DreamChallenge.sol\":2218:2431  Challenge(... */\n      dup2\n      mstore\n      0x20\n      add\n        /* \"worldcup/DreamChallenge.sol\":2419:2420  0 */\n      0x00\n        /* \"worldcup/DreamChallenge.sol\":2218:2431  Challenge(... */\n      dup2\n      mstore\n      pop\n        /* \"worldcup/DreamChallenge.sol\":2188:2198  challenges */\n      0x05\n        /* \"worldcup/DreamChallenge.sol\":2188:2215  challenges[challengeIdInex] */\n      0x00\n        /* \"worldcup/DreamChallenge.sol\":2199:2214  challengeIdInex */\n      0x03\n      0x14\n      swap1\n      sload\n      swap1\n      0x0100\n      exp\n      swap1\n      div\n      0xffff\n      and\n        /* \"worldcup/DreamChallenge.sol\":2188:2215  challenges[challengeIdInex] */\n      0xffff\n      and\n      0xffff\n      and\n      dup2\n      mstore\n      0x20\n      add\n      swap1\n      dup2\n      mstore\n      0x20\n      add\n      0x00\n      keccak256\n        /* \"worldcup/DreamChallenge.sol\":2188:2431  challenges[challengeIdInex] = Challenge(... */\n      0x00\n      dup3\n      add\n      mload\n      dup2\n      0x00\n      add\n      exp(0x0100, 0x00)\n      dup2\n      sload\n      dup2\n      0xff\n      mul\n      not\n      and\n      swap1\n      dup4\n      0x01\n      dup2\n      gt\n      iszero\n      tag_274\n      jumpi\n      tag_275\n      tag_132\n      jump\t// in\n    tag_275:\n    tag_274:\n      mul\n      or\n      swap1\n      sstore\n      pop\n      0x20\n      dup3\n      add\n      mload\n      dup2\n      0x00\n      add\n      exp(0x0100, 0x01)\n      dup2\n      sload\n      dup2\n      0xffff\n      mul\n      not\n      and\n      swap1\n      dup4\n      0xffff\n      and\n      mul\n      or\n      swap1\n      sstore\n      pop\n      0x40\n      dup3\n      add\n      mload\n      dup2\n      0x01\n      add\n      sstore\n      0x60\n      dup3\n      add\n      mload\n      dup2\n      0x02\n      add\n      sstore\n      0x80\n      dup3\n      add\n      mload\n      dup2\n      0x03\n      add\n      sstore\n      0xa0\n      dup3\n      add\n      mload\n      dup2\n      0x04\n      add\n      sstore\n      0xc0\n      dup3\n      add\n      mload\n      dup2\n      0x05\n      add\n      sstore\n      0xe0\n      dup3\n      add\n      mload\n      dup2\n      0x06\n      add\n      sstore\n      0x0100\n      dup3\n      add\n      mload\n      dup2\n      0x07\n      add\n      sstore\n      swap1\n      pop\n      pop\n        /* \"worldcup/DreamChallenge.sol\":1826:2439  function addChallenge(Ctype _ctype, uint256 _startAt, uint256 _endAt,... */\n      pop\n      pop\n      pop\n      pop\n      pop\n      jump\t// out\n        /* \"worldcup/DreamChallenge.sol\":660:697  uint256 public nftCost = 1 * 10 ** 18 */\n    tag_103:\n      sload(0x04)\n      dup2\n      jump\t// out\n        /* \"https://github.com/OpenZeppelin/openzeppelin-contracts/blob/master/contracts/token/ERC1155/utils/ERC1155Holder.sol\":499:718  function onERC1155Received(... */\n    tag_108:\n        /* \"https://github.com/OpenZeppelin/openzeppelin-contracts/blob/master/contracts/token/ERC1155/utils/ERC1155Holder.sol\":655:661  bytes4 */\n      0x00\n        /* \"https://github.com/OpenZeppelin/openzeppelin-contracts/blob/master/contracts/token/ERC1155/utils/ERC1155Holder.sol\":680:711  this.onERC1155Received.selector */\n      shl(0xe0, 0xf23a6e61)\n        /* \"https://github.com/OpenZeppelin/openzeppelin-contracts/blob/master/contracts/token/ERC1155/utils/ERC1155Holder.sol\":673:711  return this.onERC1155Received.selector */\n      swap1\n      pop\n        /* \"https://github.com/OpenZeppelin/openzeppelin-contracts/blob/master/contracts/token/ERC1155/utils/ERC1155Holder.sol\":499:718  function onERC1155Received(... */\n      swap6\n      swap5\n      pop\n      pop\n      pop\n      pop\n      pop\n      jump\t// out\n        /* \"worldcup/Adminable.sol\":1236:1437  function transferOwnership(address newOwner) public virtual onlyOwner {... */\n    tag_112:\n        /* \"worldcup/Adminable.sol\":704:716  _msgSender() */\n      tag_278\n        /* \"worldcup/Adminable.sol\":704:714  _msgSender */\n      tag_155\n        /* \"worldcup/Adminable.sol\":704:716  _msgSender() */\n      jump\t// in\n    tag_278:\n        /* \"worldcup/Adminable.sol\":693:716  owner() == _msgSender() */\n      0xffffffffffffffffffffffffffffffffffffffff\n      and\n        /* \"worldcup/Adminable.sol\":693:700  owner() */\n      tag_279\n        /* \"worldcup/Adminable.sol\":693:698  owner */\n      tag_86\n        /* \"worldcup/Adminable.sol\":693:700  owner() */\n      jump\t// in\n    tag_279:\n        /* \"worldcup/Adminable.sol\":693:716  owner() == _msgSender() */\n      0xffffffffffffffffffffffffffffffffffffffff\n      and\n      eq\n        /* \"worldcup/Adminable.sol\":685:755  require(owner() == _msgSender(), \"Adminable: caller is not the owner\") */\n      tag_280\n      jumpi\n      mload(0x40)\n      0x08c379a000000000000000000000000000000000000000000000000000000000\n      dup2\n      mstore\n      0x04\n      add\n      tag_281\n      swap1\n      tag_159\n      jump\t// in\n    tag_281:\n      mload(0x40)\n      dup1\n      swap2\n      sub\n      swap1\n      revert\n    tag_280:\n        /* \"worldcup/Adminable.sol\":1345:1346  0 */\n      0x00\n        /* \"worldcup/Adminable.sol\":1325:1347  newOwner != address(0) */\n      0xffffffffffffffffffffffffffffffffffffffff\n      and\n        /* \"worldcup/Adminable.sol\":1325:1333  newOwner */\n      dup2\n        /* \"worldcup/Adminable.sol\":1325:1347  newOwner != address(0) */\n      0xffffffffffffffffffffffffffffffffffffffff\n      and\n      sub\n        /* \"worldcup/Adminable.sol\":1317:1390  require(newOwner != address(0), \"Ownable: new owner is the zero address\") */\n      tag_283\n      jumpi\n      mload(0x40)\n      0x08c379a000000000000000000000000000000000000000000000000000000000\n      dup2\n      mstore\n      0x04\n      add\n      tag_284\n      swap1\n      tag_285\n      jump\t// in\n    tag_284:\n      mload(0x40)\n      dup1\n      swap2\n      sub\n      swap1\n      revert\n    tag_283:\n        /* \"worldcup/Adminable.sol\":1401:1429  _transferOwnership(newOwner) */\n      tag_286\n        /* \"worldcup/Adminable.sol\":1420:1428  newOwner */\n      dup2\n        /* \"worldcup/Adminable.sol\":1401:1419  _transferOwnership */\n      tag_221\n        /* \"worldcup/Adminable.sol\":1401:1429  _transferOwnership(newOwner) */\n      jump\t// in\n    tag_286:\n        /* \"worldcup/Adminable.sol\":1236:1437  function transferOwnership(address newOwner) public virtual onlyOwner {... */\n      pop\n      jump\t// out\n        /* \"worldcup/DreamChallenge.sol\":5000:5089  function setNftCost(uint256 _amount) public onlyOwner{... */\n    tag_116:\n        /* \"worldcup/Adminable.sol\":704:716  _msgSender() */\n      tag_288\n        /* \"worldcup/Adminable.sol\":704:714  _msgSender */\n      tag_155\n        /* \"worldcup/Adminable.sol\":704:716  _msgSender() */\n      jump\t// in\n    tag_288:\n        /* \"worldcup/Adminable.sol\":693:716  owner() == _msgSender() */\n      0xffffffffffffffffffffffffffffffffffffffff\n      and\n        /* \"worldcup/Adminable.sol\":693:700  owner() */\n      tag_289\n        /* \"worldcup/Adminable.sol\":693:698  owner */\n      tag_86\n        /* \"worldcup/Adminable.sol\":693:700  owner() */\n      jump\t// in\n    tag_289:\n        /* \"worldcup/Adminable.sol\":693:716  owner() == _msgSender() */\n      0xffffffffffffffffffffffffffffffffffffffff\n      and\n      eq\n        /* \"worldcup/Adminable.sol\":685:755  require(owner() == _msgSender(), \"Adminable: caller is not the owner\") */\n      tag_290\n      jumpi\n      mload(0x40)\n      0x08c379a000000000000000000000000000000000000000000000000000000000\n      dup2\n      mstore\n      0x04\n      add\n      tag_291\n      swap1\n      tag_159\n      jump\t// in\n    tag_291:\n      mload(0x40)\n      dup1\n      swap2\n      sub\n      swap1\n      revert\n    tag_290:\n        /* \"worldcup/DreamChallenge.sol\":5074:5081  _amount */\n      dup1\n        /* \"worldcup/DreamChallenge.sol\":5064:5071  nftCost */\n      0x04\n        /* \"worldcup/DreamChallenge.sol\":5064:5081  nftCost = _amount */\n      dup2\n      swap1\n      sstore\n      pop\n        /* \"worldcup/DreamChallenge.sol\":5000:5089  function setNftCost(uint256 _amount) public onlyOwner{... */\n      pop\n      jump\t// out\n        /* \"worldcup/DreamChallenge.sol\":587:613  address public rewardToken */\n    tag_118:\n      0x03\n      0x00\n      swap1\n      sload\n      swap1\n      0x0100\n      exp\n      swap1\n      div\n      0xffffffffffffffffffffffffffffffffffffffff\n      and\n      dup2\n      jump\t// out\n        /* \"worldcup/DreamChallenge.sol\":620:653  uint16 public challengeIdInex = 1 */\n    tag_121:\n      0x03\n      0x14\n      swap1\n      sload\n      swap1\n      0x0100\n      exp\n      swap1\n      div\n      0xffff\n      and\n      dup2\n      jump\t// out\n        /* \"https://github.com/OpenZeppelin/openzeppelin-contracts/blob/master/contracts/utils/introspection/ERC165.sol\":829:984  function supportsInterface(bytes4 interfaceId) public view virtual override returns (bool) {... */\n    tag_127:\n        /* \"https://github.com/OpenZeppelin/openzeppelin-contracts/blob/master/contracts/utils/introspection/ERC165.sol\":914:918  bool */\n      0x00\n        /* \"https://github.com/OpenZeppelin/openzeppelin-contracts/blob/master/contracts/utils/introspection/ERC165.sol\":952:977  type(IERC165).interfaceId */\n      0x01ffc9a700000000000000000000000000000000000000000000000000000000\n        /* \"https://github.com/OpenZeppelin/openzeppelin-contracts/blob/master/contracts/utils/introspection/ERC165.sol\":937:977  interfaceId == type(IERC165).interfaceId */\n      not(0xffffffffffffffffffffffffffffffffffffffffffffffffffffffff)\n      and\n        /* \"https://github.com/OpenZeppelin/openzeppelin-contracts/blob/master/contracts/utils/introspection/ERC165.sol\":937:948  interfaceId */\n      dup3\n        /* \"https://github.com/OpenZeppelin/openzeppelin-contracts/blob/master/contracts/utils/introspection/ERC165.sol\":937:977  interfaceId == type(IERC165).interfaceId */\n      not(0xffffffffffffffffffffffffffffffffffffffffffffffffffffffff)\n      and\n      eq\n        /* \"https://github.com/OpenZeppelin/openzeppelin-contracts/blob/master/contracts/utils/introspection/ERC165.sol\":930:977  return interfaceId == type(IERC165).interfaceId */\n      swap1\n      pop\n        /* \"https://github.com/OpenZeppelin/openzeppelin-contracts/blob/master/contracts/utils/introspection/ERC165.sol\":829:984  function supportsInterface(bytes4 interfaceId) public view virtual override returns (bool) {... */\n      swap2\n      swap1\n      pop\n      jump\t// out\n        /* \"worldcup/Adminable.sol\":64:162  function _msgSender() internal view virtual returns (address) {... */\n    tag_155:\n        /* \"worldcup/Adminable.sol\":117:124  address */\n      0x00\n        /* \"worldcup/Adminable.sol\":144:154  msg.sender */\n      caller\n        /* \"worldcup/Adminable.sol\":137:154  return msg.sender */\n      swap1\n      pop\n        /* \"worldcup/Adminable.sol\":64:162  function _msgSender() internal view virtual returns (address) {... */\n      swap1\n      jump\t// out\n        /* \"worldcup/Adminable.sol\":1445:1636  function _transferOwnership(address newOwner) internal virtual {... */\n    tag_221:\n        /* \"worldcup/Adminable.sol\":1519:1535  address oldOwner */\n      0x00\n        /* \"worldcup/Adminable.sol\":1538:1544  _owner */\n      0x01\n      0x00\n      swap1\n      sload\n      swap1\n      0x0100\n      exp\n      swap1\n      div\n      0xffffffffffffffffffffffffffffffffffffffff\n      and\n        /* \"worldcup/Adminable.sol\":1519:1544  address oldOwner = _owner */\n      swap1\n      pop\n        /* \"worldcup/Adminable.sol\":1564:1572  newOwner */\n      dup2\n        /* \"worldcup/Adminable.sol\":1555:1561  _owner */\n      0x01\n      0x00\n        /* \"worldcup/Adminable.sol\":1555:1572  _owner = newOwner */\n      0x0100\n      exp\n      dup2\n      sload\n      dup2\n      0xffffffffffffffffffffffffffffffffffffffff\n      mul\n      not\n      and\n      swap1\n      dup4\n      0xffffffffffffffffffffffffffffffffffffffff\n      and\n      mul\n      or\n      swap1\n      sstore\n      pop\n        /* \"worldcup/Adminable.sol\":1619:1627  newOwner */\n      dup2\n        /* \"worldcup/Adminable.sol\":1588:1628  OwnershipTransferred(oldOwner, newOwner) */\n      0xffffffffffffffffffffffffffffffffffffffff\n      and\n        /* \"worldcup/Adminable.sol\":1609:1617  oldOwner */\n      dup2\n        /* \"worldcup/Adminable.sol\":1588:1628  OwnershipTransferred(oldOwner, newOwner) */\n      0xffffffffffffffffffffffffffffffffffffffff\n      and\n      0x8be0079c531659141344cd1fd0a4f28419497f9722a3daafe3b4186f6b6457e0\n      mload(0x40)\n      mload(0x40)\n      dup1\n      swap2\n      sub\n      swap1\n      log3\n        /* \"worldcup/Adminable.sol\":1508:1636  {... */\n      pop\n        /* \"worldcup/Adminable.sol\":1445:1636  function _transferOwnership(address newOwner) internal virtual {... */\n      pop\n      jump\t// out\n    tag_223:\n      mload(0x40)\n      dup1\n      0x80\n      add\n      0x40\n      mstore\n      dup1\n      and(0xffff, 0x00)\n      dup2\n      mstore\n      0x20\n      add\n      0x00\n      dup2\n      mstore\n      0x20\n      add\n      0x00\n      dup2\n      mstore\n      0x20\n      add\n      iszero(iszero(0x00))\n      dup2\n      mstore\n      pop\n      swap1\n      jump\t// out\n    tag_226:\n      mload(0x40)\n      dup1\n      0x0120\n      add\n      0x40\n      mstore\n      dup1\n      0x00\n      0x01\n      dup2\n      gt\n      iszero\n      tag_296\n      jumpi\n      tag_297\n      tag_132\n      jump\t// in\n    tag_297:\n    tag_296:\n      dup2\n      mstore\n      0x20\n      add\n      and(0xffff, 0x00)\n      dup2\n      mstore\n      0x20\n      add\n      0x00\n      dup2\n      mstore\n      0x20\n      add\n      0x00\n      dup2\n      mstore\n      0x20\n      add\n      0x00\n      dup2\n      mstore\n      0x20\n      add\n      0x00\n      dup2\n      mstore\n      0x20\n      add\n      0x00\n      dup2\n      mstore\n      0x20\n      add\n      0x00\n      dup2\n      mstore\n      0x20\n      add\n      0x00\n      dup2\n      mstore\n      pop\n      swap1\n      jump\t// out\n        /* \"#utility.yul\":7:82   */\n    tag_298:\n        /* \"#utility.yul\":40:46   */\n      0x00\n        /* \"#utility.yul\":73:75   */\n      0x40\n        /* \"#utility.yul\":67:76   */\n      mload\n        /* \"#utility.yul\":57:76   */\n      swap1\n      pop\n        /* \"#utility.yul\":7:82   */\n      swap1\n      jump\t// out\n        /* \"#utility.yul\":88:205   */\n    tag_299:\n        /* \"#utility.yul\":197:198   */\n      0x00\n        /* \"#utility.yul\":194:195   */\n      dup1\n        /* \"#utility.yul\":187:199   */\n      revert\n        /* \"#utility.yul\":211:328   */\n    tag_300:\n        /* \"#utility.yul\":320:321   */\n      0x00\n        /* \"#utility.yul\":317:318   */\n      dup1\n        /* \"#utility.yul\":310:322   */\n      revert\n        /* \"#utility.yul\":334:483   */\n    tag_301:\n        /* \"#utility.yul\":370:377   */\n      0x00\n        /* \"#utility.yul\":410:476   */\n      0xffffffff00000000000000000000000000000000000000000000000000000000\n        /* \"#utility.yul\":403:408   */\n      dup3\n        /* \"#utility.yul\":399:477   */\n      and\n        /* \"#utility.yul\":388:477   */\n      swap1\n      pop\n        /* \"#utility.yul\":334:483   */\n      swap2\n      swap1\n      pop\n      jump\t// out\n        /* \"#utility.yul\":489:609   */\n    tag_302:\n        /* \"#utility.yul\":561:584   */\n      tag_386\n        /* \"#utility.yul\":578:583   */\n      dup2\n        /* \"#utility.yul\":561:584   */\n      tag_301\n      jump\t// in\n    tag_386:\n        /* \"#utility.yul\":554:559   */\n      dup2\n        /* \"#utility.yul\":551:585   */\n      eq\n        /* \"#utility.yul\":541:603   */\n      tag_387\n      jumpi\n        /* \"#utility.yul\":599:600   */\n      0x00\n        /* \"#utility.yul\":596:597   */\n      dup1\n        /* \"#utility.yul\":589:601   */\n      revert\n        /* \"#utility.yul\":541:603   */\n    tag_387:\n        /* \"#utility.yul\":489:609   */\n      pop\n      jump\t// out\n        /* \"#utility.yul\":615:752   */\n    tag_303:\n        /* \"#utility.yul\":660:665   */\n      0x00\n        /* \"#utility.yul\":698:704   */\n      dup2\n        /* \"#utility.yul\":685:705   */\n      calldataload\n        /* \"#utility.yul\":676:705   */\n      swap1\n      pop\n        /* \"#utility.yul\":714:746   */\n      tag_389\n        /* \"#utility.yul\":740:745   */\n      dup2\n        /* \"#utility.yul\":714:746   */\n      tag_302\n      jump\t// in\n    tag_389:\n        /* \"#utility.yul\":615:752   */\n      swap3\n      swap2\n      pop\n      pop\n      jump\t// out\n        /* \"#utility.yul\":758:1085   */\n    tag_31:\n        /* \"#utility.yul\":816:822   */\n      0x00\n        /* \"#utility.yul\":865:867   */\n      0x20\n        /* \"#utility.yul\":853:862   */\n      dup3\n        /* \"#utility.yul\":844:851   */\n      dup5\n        /* \"#utility.yul\":840:863   */\n      sub\n        /* \"#utility.yul\":836:868   */\n      slt\n        /* \"#utility.yul\":833:952   */\n      iszero\n      tag_391\n      jumpi\n        /* \"#utility.yul\":871:950   */\n      tag_392\n      tag_299\n      jump\t// in\n    tag_392:\n        /* \"#utility.yul\":833:952   */\n    tag_391:\n        /* \"#utility.yul\":991:992   */\n      0x00\n        /* \"#utility.yul\":1016:1068   */\n      tag_393\n        /* \"#utility.yul\":1060:1067   */\n      dup5\n        /* \"#utility.yul\":1051:1057   */\n      dup3\n        /* \"#utility.yul\":1040:1049   */\n      dup6\n        /* \"#utility.yul\":1036:1058   */\n      add\n        /* \"#utility.yul\":1016:1068   */\n      tag_303\n      jump\t// in\n    tag_393:\n        /* \"#utility.yul\":1006:1068   */\n      swap2\n      pop\n        /* \"#utility.yul\":962:1078   */\n      pop\n        /* \"#utility.yul\":758:1085   */\n      swap3\n      swap2\n      pop\n      pop\n      jump\t// out\n        /* \"#utility.yul\":1091:1181   */\n    tag_304:\n        /* \"#utility.yul\":1125:1132   */\n      0x00\n        /* \"#utility.yul\":1168:1173   */\n      dup2\n        /* \"#utility.yul\":1161:1174   */\n      iszero\n        /* \"#utility.yul\":1154:1175   */\n      iszero\n        /* \"#utility.yul\":1143:1175   */\n      swap1\n      pop\n        /* \"#utility.yul\":1091:1181   */\n      swap2\n      swap1\n      pop\n      jump\t// out\n        /* \"#utility.yul\":1187:1296   */\n    tag_305:\n        /* \"#utility.yul\":1268:1289   */\n      tag_396\n        /* \"#utility.yul\":1283:1288   */\n      dup2\n        /* \"#utility.yul\":1268:1289   */\n      tag_304\n      jump\t// in\n    tag_396:\n        /* \"#utility.yul\":1263:1266   */\n      dup3\n        /* \"#utility.yul\":1256:1290   */\n      mstore\n        /* \"#utility.yul\":1187:1296   */\n      pop\n      pop\n      jump\t// out\n        /* \"#utility.yul\":1302:1512   */\n    tag_34:\n        /* \"#utility.yul\":1389:1393   */\n      0x00\n        /* \"#utility.yul\":1427:1429   */\n      0x20\n        /* \"#utility.yul\":1416:1425   */\n      dup3\n        /* \"#utility.yul\":1412:1430   */\n      add\n        /* \"#utility.yul\":1404:1430   */\n      swap1\n      pop\n        /* \"#utility.yul\":1440:1505   */\n      tag_398\n        /* \"#utility.yul\":1502:1503   */\n      0x00\n        /* \"#utility.yul\":1491:1500   */\n      dup4\n        /* \"#utility.yul\":1487:1504   */\n      add\n        /* \"#utility.yul\":1478:1484   */\n      dup5\n        /* \"#utility.yul\":1440:1505   */\n      tag_305\n      jump\t// in\n    tag_398:\n        /* \"#utility.yul\":1302:1512   */\n      swap3\n      swap2\n      pop\n      pop\n      jump\t// out\n        /* \"#utility.yul\":1518:1607   */\n    tag_306:\n        /* \"#utility.yul\":1554:1561   */\n      0x00\n        /* \"#utility.yul\":1594:1600   */\n      0xffff\n        /* \"#utility.yul\":1587:1592   */\n      dup3\n        /* \"#utility.yul\":1583:1601   */\n      and\n        /* \"#utility.yul\":1572:1601   */\n      swap1\n      pop\n        /* \"#utility.yul\":1518:1607   */\n      swap2\n      swap1\n      pop\n      jump\t// out\n        /* \"#utility.yul\":1613:1733   */\n    tag_307:\n        /* \"#utility.yul\":1685:1708   */\n      tag_401\n        /* \"#utility.yul\":1702:1707   */\n      dup2\n        /* \"#utility.yul\":1685:1708   */\n      tag_306\n      jump\t// in\n    tag_401:\n        /* \"#utility.yul\":1678:1683   */\n      dup2\n        /* \"#utility.yul\":1675:1709   */\n      eq\n        /* \"#utility.yul\":1665:1727   */\n      tag_402\n      jumpi\n        /* \"#utility.yul\":1723:1724   */\n      0x00\n        /* \"#utility.yul\":1720:1721   */\n      dup1\n        /* \"#utility.yul\":1713:1725   */\n      revert\n        /* \"#utility.yul\":1665:1727   */\n    tag_402:\n        /* \"#utility.yul\":1613:1733   */\n      pop\n      jump\t// out\n        /* \"#utility.yul\":1739:1876   */\n    tag_308:\n        /* \"#utility.yul\":1784:1789   */\n      0x00\n        /* \"#utility.yul\":1822:1828   */\n      dup2\n        /* \"#utility.yul\":1809:1829   */\n      calldataload\n        /* \"#utility.yul\":1800:1829   */\n      swap1\n      pop\n        /* \"#utility.yul\":1838:1870   */\n      tag_404\n        /* \"#utility.yul\":1864:1869   */\n      dup2\n        /* \"#utility.yul\":1838:1870   */\n      tag_307\n      jump\t// in\n    tag_404:\n        /* \"#utility.yul\":1739:1876   */\n      swap3\n      swap2\n      pop\n      pop\n      jump\t// out\n        /* \"#utility.yul\":1882:2209   */\n    tag_37:\n        /* \"#utility.yul\":1940:1946   */\n      0x00\n        /* \"#utility.yul\":1989:1991   */\n      0x20\n        /* \"#utility.yul\":1977:1986   */\n      dup3\n        /* \"#utility.yul\":1968:1975   */\n      dup5\n        /* \"#utility.yul\":1964:1987   */\n      sub\n        /* \"#utility.yul\":1960:1992   */\n      slt\n        /* \"#utility.yul\":1957:2076   */\n      iszero\n      tag_406\n      jumpi\n        /* \"#utility.yul\":1995:2074   */\n      tag_407\n      tag_299\n      jump\t// in\n    tag_407:\n        /* \"#utility.yul\":1957:2076   */\n    tag_406:\n        /* \"#utility.yul\":2115:2116   */\n      0x00\n        /* \"#utility.yul\":2140:2192   */\n      tag_408\n        /* \"#utility.yul\":2184:2191   */\n      dup5\n        /* \"#utility.yul\":2175:2181   */\n      dup3\n        /* \"#utility.yul\":2164:2173   */\n      dup6\n        /* \"#utility.yul\":2160:2182   */\n      add\n        /* \"#utility.yul\":2140:2192   */\n      tag_308\n      jump\t// in\n    tag_408:\n        /* \"#utility.yul\":2130:2192   */\n      swap2\n      pop\n        /* \"#utility.yul\":2086:2202   */\n      pop\n        /* \"#utility.yul\":1882:2209   */\n      swap3\n      swap2\n      pop\n      pop\n      jump\t// out\n        /* \"#utility.yul\":2215:2341   */\n    tag_309:\n        /* \"#utility.yul\":2252:2259   */\n      0x00\n        /* \"#utility.yul\":2292:2334   */\n      0xffffffffffffffffffffffffffffffffffffffff\n        /* \"#utility.yul\":2285:2290   */\n      dup3\n        /* \"#utility.yul\":2281:2335   */\n      and\n        /* \"#utility.yul\":2270:2335   */\n      swap1\n      pop\n        /* \"#utility.yul\":2215:2341   */\n      swap2\n      swap1\n      pop\n      jump\t// out\n        /* \"#utility.yul\":2347:2443   */\n    tag_310:\n        /* \"#utility.yul\":2384:2391   */\n      0x00\n        /* \"#utility.yul\":2413:2437   */\n      tag_411\n        /* \"#utility.yul\":2431:2436   */\n      dup3\n        /* \"#utility.yul\":2413:2437   */\n      tag_309\n      jump\t// in\n    tag_411:\n        /* \"#utility.yul\":2402:2437   */\n      swap1\n      pop\n        /* \"#utility.yul\":2347:2443   */\n      swap2\n      swap1\n      pop\n      jump\t// out\n        /* \"#utility.yul\":2449:2571   */\n    tag_311:\n        /* \"#utility.yul\":2522:2546   */\n      tag_413\n        /* \"#utility.yul\":2540:2545   */\n      dup2\n        /* \"#utility.yul\":2522:2546   */\n      tag_310\n      jump\t// in\n    tag_413:\n        /* \"#utility.yul\":2515:2520   */\n      dup2\n        /* \"#utility.yul\":2512:2547   */\n      eq\n        /* \"#utility.yul\":2502:2565   */\n      tag_414\n      jumpi\n        /* \"#utility.yul\":2561:2562   */\n      0x00\n        /* \"#utility.yul\":2558:2559   */\n      dup1\n        /* \"#utility.yul\":2551:2563   */\n      revert\n        /* \"#utility.yul\":2502:2565   */\n    tag_414:\n        /* \"#utility.yul\":2449:2571   */\n      pop\n      jump\t// out\n        /* \"#utility.yul\":2577:2716   */\n    tag_312:\n        /* \"#utility.yul\":2623:2628   */\n      0x00\n        /* \"#utility.yul\":2661:2667   */\n      dup2\n        /* \"#utility.yul\":2648:2668   */\n      calldataload\n        /* \"#utility.yul\":2639:2668   */\n      swap1\n      pop\n        /* \"#utility.yul\":2677:2710   */\n      tag_416\n        /* \"#utility.yul\":2704:2709   */\n      dup2\n        /* \"#utility.yul\":2677:2710   */\n      tag_311\n      jump\t// in\n    tag_416:\n        /* \"#utility.yul\":2577:2716   */\n      swap3\n      swap2\n      pop\n      pop\n      jump\t// out\n        /* \"#utility.yul\":2722:3051   */\n    tag_41:\n        /* \"#utility.yul\":2781:2787   */\n      0x00\n        /* \"#utility.yul\":2830:2832   */\n      0x20\n        /* \"#utility.yul\":2818:2827   */\n      dup3\n        /* \"#utility.yul\":2809:2816   */\n      dup5\n        /* \"#utility.yul\":2805:2828   */\n      sub\n        /* \"#utility.yul\":2801:2833   */\n      slt\n        /* \"#utility.yul\":2798:2917   */\n      iszero\n      tag_418\n      jumpi\n        /* \"#utility.yul\":2836:2915   */\n      tag_419\n      tag_299\n      jump\t// in\n    tag_419:\n        /* \"#utility.yul\":2798:2917   */\n    tag_418:\n        /* \"#utility.yul\":2956:2957   */\n      0x00\n        /* \"#utility.yul\":2981:3034   */\n      tag_420\n        /* \"#utility.yul\":3026:3033   */\n      dup5\n        /* \"#utility.yul\":3017:3023   */\n      dup3\n        /* \"#utility.yul\":3006:3015   */\n      dup6\n        /* \"#utility.yul\":3002:3024   */\n      add\n        /* \"#utility.yul\":2981:3034   */\n      tag_312\n      jump\t// in\n    tag_420:\n        /* \"#utility.yul\":2971:3034   */\n      swap2\n      pop\n        /* \"#utility.yul\":2927:3044   */\n      pop\n        /* \"#utility.yul\":2722:3051   */\n      swap3\n      swap2\n      pop\n      pop\n      jump\t// out\n        /* \"#utility.yul\":3057:3170   */\n    tag_313:\n        /* \"#utility.yul\":3123:3129   */\n      0x00\n        /* \"#utility.yul\":3157:3162   */\n      dup2\n        /* \"#utility.yul\":3151:3163   */\n      mload\n        /* \"#utility.yul\":3141:3163   */\n      swap1\n      pop\n        /* \"#utility.yul\":3057:3170   */\n      swap2\n      swap1\n      pop\n      jump\t// out\n        /* \"#utility.yul\":3176:3359   */\n    tag_314:\n        /* \"#utility.yul\":3274:3285   */\n      0x00\n        /* \"#utility.yul\":3308:3314   */\n      dup3\n        /* \"#utility.yul\":3303:3306   */\n      dup3\n        /* \"#utility.yul\":3296:3315   */\n      mstore\n        /* \"#utility.yul\":3348:3352   */\n      0x20\n        /* \"#utility.yul\":3343:3346   */\n      dup3\n        /* \"#utility.yul\":3339:3353   */\n      add\n        /* \"#utility.yul\":3324:3353   */\n      swap1\n      pop\n        /* \"#utility.yul\":3176:3359   */\n      swap3\n      swap2\n      pop\n      pop\n      jump\t// out\n        /* \"#utility.yul\":3365:3496   */\n    tag_315:\n        /* \"#utility.yul\":3431:3435   */\n      0x00\n        /* \"#utility.yul\":3454:3457   */\n      dup2\n        /* \"#utility.yul\":3446:3457   */\n      swap1\n      pop\n        /* \"#utility.yul\":3484:3488   */\n      0x20\n        /* \"#utility.yul\":3479:3482   */\n      dup3\n        /* \"#utility.yul\":3475:3489   */\n      add\n        /* \"#utility.yul\":3467:3489   */\n      swap1\n      pop\n        /* \"#utility.yul\":3365:3496   */\n      swap2\n      swap1\n      pop\n      jump\t// out\n        /* \"#utility.yul\":3502:3607   */\n    tag_316:\n        /* \"#utility.yul\":3577:3600   */\n      tag_425\n        /* \"#utility.yul\":3594:3599   */\n      dup2\n        /* \"#utility.yul\":3577:3600   */\n      tag_306\n      jump\t// in\n    tag_425:\n        /* \"#utility.yul\":3572:3575   */\n      dup3\n        /* \"#utility.yul\":3565:3601   */\n      mstore\n        /* \"#utility.yul\":3502:3607   */\n      pop\n      pop\n      jump\t// out\n        /* \"#utility.yul\":3613:3788   */\n    tag_317:\n        /* \"#utility.yul\":3680:3690   */\n      0x00\n        /* \"#utility.yul\":3701:3745   */\n      tag_427\n        /* \"#utility.yul\":3741:3744   */\n      dup4\n        /* \"#utility.yul\":3733:3739   */\n      dup4\n        /* \"#utility.yul\":3701:3745   */\n      tag_316\n      jump\t// in\n    tag_427:\n        /* \"#utility.yul\":3777:3781   */\n      0x20\n        /* \"#utility.yul\":3772:3775   */\n      dup4\n        /* \"#utility.yul\":3768:3782   */\n      add\n        /* \"#utility.yul\":3754:3782   */\n      swap1\n      pop\n        /* \"#utility.yul\":3613:3788   */\n      swap3\n      swap2\n      pop\n      pop\n      jump\t// out\n        /* \"#utility.yul\":3794:3906   */\n    tag_318:\n        /* \"#utility.yul\":3863:3867   */\n      0x00\n        /* \"#utility.yul\":3895:3899   */\n      0x20\n        /* \"#utility.yul\":3890:3893   */\n      dup3\n        /* \"#utility.yul\":3886:3900   */\n      add\n        /* \"#utility.yul\":3878:3900   */\n      swap1\n      pop\n        /* \"#utility.yul\":3794:3906   */\n      swap2\n      swap1\n      pop\n      jump\t// out\n        /* \"#utility.yul\":3940:4664   */\n    tag_319:\n        /* \"#utility.yul\":4057:4060   */\n      0x00\n        /* \"#utility.yul\":4086:4139   */\n      tag_430\n        /* \"#utility.yul\":4133:4138   */\n      dup3\n        /* \"#utility.yul\":4086:4139   */\n      tag_313\n      jump\t// in\n    tag_430:\n        /* \"#utility.yul\":4155:4240   */\n      tag_431\n        /* \"#utility.yul\":4233:4239   */\n      dup2\n        /* \"#utility.yul\":4228:4231   */\n      dup6\n        /* \"#utility.yul\":4155:4240   */\n      tag_314\n      jump\t// in\n    tag_431:\n        /* \"#utility.yul\":4148:4240   */\n      swap4\n      pop\n        /* \"#utility.yul\":4264:4319   */\n      tag_432\n        /* \"#utility.yul\":4313:4318   */\n      dup4\n        /* \"#utility.yul\":4264:4319   */\n      tag_315\n      jump\t// in\n    tag_432:\n        /* \"#utility.yul\":4342:4349   */\n      dup1\n        /* \"#utility.yul\":4373:4374   */\n      0x00\n        /* \"#utility.yul\":4358:4639   */\n    tag_433:\n        /* \"#utility.yul\":4383:4389   */\n      dup4\n        /* \"#utility.yul\":4380:4381   */\n      dup2\n        /* \"#utility.yul\":4377:4390   */\n      lt\n        /* \"#utility.yul\":4358:4639   */\n      iszero\n      tag_435\n      jumpi\n        /* \"#utility.yul\":4459:4465   */\n      dup2\n        /* \"#utility.yul\":4453:4466   */\n      mload\n        /* \"#utility.yul\":4486:4547   */\n      tag_436\n        /* \"#utility.yul\":4543:4546   */\n      dup9\n        /* \"#utility.yul\":4528:4541   */\n      dup3\n        /* \"#utility.yul\":4486:4547   */\n      tag_317\n      jump\t// in\n    tag_436:\n        /* \"#utility.yul\":4479:4547   */\n      swap8\n      pop\n        /* \"#utility.yul\":4570:4629   */\n      tag_437\n        /* \"#utility.yul\":4622:4628   */\n      dup4\n        /* \"#utility.yul\":4570:4629   */\n      tag_318\n      jump\t// in\n    tag_437:\n        /* \"#utility.yul\":4560:4629   */\n      swap3\n      pop\n        /* \"#utility.yul\":4418:4639   */\n      pop\n        /* \"#utility.yul\":4405:4406   */\n      0x01\n        /* \"#utility.yul\":4402:4403   */\n      dup2\n        /* \"#utility.yul\":4398:4407   */\n      add\n        /* \"#utility.yul\":4393:4407   */\n      swap1\n      pop\n        /* \"#utility.yul\":4358:4639   */\n      jump(tag_433)\n    tag_435:\n        /* \"#utility.yul\":4362:4376   */\n      pop\n        /* \"#utility.yul\":4655:4658   */\n      dup6\n        /* \"#utility.yul\":4648:4658   */\n      swap4\n      pop\n        /* \"#utility.yul\":4062:4664   */\n      pop\n      pop\n      pop\n        /* \"#utility.yul\":3940:4664   */\n      swap3\n      swap2\n      pop\n      pop\n      jump\t// out\n        /* \"#utility.yul\":4670:5039   */\n    tag_44:\n        /* \"#utility.yul\":4811:4815   */\n      0x00\n        /* \"#utility.yul\":4849:4851   */\n      0x20\n        /* \"#utility.yul\":4838:4847   */\n      dup3\n        /* \"#utility.yul\":4834:4852   */\n      add\n        /* \"#utility.yul\":4826:4852   */\n      swap1\n      pop\n        /* \"#utility.yul\":4898:4907   */\n      dup2\n        /* \"#utility.yul\":4892:4896   */\n      dup2\n        /* \"#utility.yul\":4888:4908   */\n      sub\n        /* \"#utility.yul\":4884:4885   */\n      0x00\n        /* \"#utility.yul\":4873:4882   */\n      dup4\n        /* \"#utility.yul\":4869:4886   */\n      add\n        /* \"#utility.yul\":4862:4909   */\n      mstore\n        /* \"#utility.yul\":4926:5032   */\n      tag_439\n        /* \"#utility.yul\":5027:5031   */\n      dup2\n        /* \"#utility.yul\":5018:5024   */\n      dup5\n        /* \"#utility.yul\":4926:5032   */\n      tag_319\n      jump\t// in\n    tag_439:\n        /* \"#utility.yul\":4918:5032   */\n      swap1\n      pop\n        /* \"#utility.yul\":4670:5039   */\n      swap3\n      swap2\n      pop\n      pop\n      jump\t// out\n        /* \"#utility.yul\":5045:5161   */\n    tag_320:\n        /* \"#utility.yul\":5115:5136   */\n      tag_441\n        /* \"#utility.yul\":5130:5135   */\n      dup2\n        /* \"#utility.yul\":5115:5136   */\n      tag_304\n      jump\t// in\n    tag_441:\n        /* \"#utility.yul\":5108:5113   */\n      dup2\n        /* \"#utility.yul\":5105:5137   */\n      eq\n        /* \"#utility.yul\":5095:5155   */\n      tag_442\n      jumpi\n        /* \"#utility.yul\":5151:5152   */\n      0x00\n        /* \"#utility.yul\":5148:5149   */\n      dup1\n        /* \"#utility.yul\":5141:5153   */\n      revert\n        /* \"#utility.yul\":5095:5155   */\n    tag_442:\n        /* \"#utility.yul\":5045:5161   */\n      pop\n      jump\t// out\n        /* \"#utility.yul\":5167:5300   */\n    tag_321:\n        /* \"#utility.yul\":5210:5215   */\n      0x00\n        /* \"#utility.yul\":5248:5254   */\n      dup2\n        /* \"#utility.yul\":5235:5255   */\n      calldataload\n        /* \"#utility.yul\":5226:5255   */\n      swap1\n      pop\n        /* \"#utility.yul\":5264:5294   */\n      tag_444\n        /* \"#utility.yul\":5288:5293   */\n      dup2\n        /* \"#utility.yul\":5264:5294   */\n      tag_320\n      jump\t// in\n    tag_444:\n        /* \"#utility.yul\":5167:5300   */\n      swap3\n      swap2\n      pop\n      pop\n      jump\t// out\n        /* \"#utility.yul\":5306:5774   */\n    tag_47:\n        /* \"#utility.yul\":5371:5377   */\n      0x00\n        /* \"#utility.yul\":5379:5385   */\n      dup1\n        /* \"#utility.yul\":5428:5430   */\n      0x40\n        /* \"#utility.yul\":5416:5425   */\n      dup4\n        /* \"#utility.yul\":5407:5414   */\n      dup6\n        /* \"#utility.yul\":5403:5426   */\n      sub\n        /* \"#utility.yul\":5399:5431   */\n      slt\n        /* \"#utility.yul\":5396:5515   */\n      iszero\n      tag_446\n      jumpi\n        /* \"#utility.yul\":5434:5513   */\n      tag_447\n      tag_299\n      jump\t// in\n    tag_447:\n        /* \"#utility.yul\":5396:5515   */\n    tag_446:\n        /* \"#utility.yul\":5554:5555   */\n      0x00\n        /* \"#utility.yul\":5579:5632   */\n      tag_448\n        /* \"#utility.yul\":5624:5631   */\n      dup6\n        /* \"#utility.yul\":5615:5621   */\n      dup3\n        /* \"#utility.yul\":5604:5613   */\n      dup7\n        /* \"#utility.yul\":5600:5622   */\n      add\n        /* \"#utility.yul\":5579:5632   */\n      tag_312\n      jump\t// in\n    tag_448:\n        /* \"#utility.yul\":5569:5632   */\n      swap3\n      pop\n        /* \"#utility.yul\":5525:5642   */\n      pop\n        /* \"#utility.yul\":5681:5683   */\n      0x20\n        /* \"#utility.yul\":5707:5757   */\n      tag_449\n        /* \"#utility.yul\":5749:5756   */\n      dup6\n        /* \"#utility.yul\":5740:5746   */\n      dup3\n        /* \"#utility.yul\":5729:5738   */\n      dup7\n        /* \"#utility.yul\":5725:5747   */\n      add\n        /* \"#utility.yul\":5707:5757   */\n      tag_321\n      jump\t// in\n    tag_449:\n        /* \"#utility.yul\":5697:5757   */\n      swap2\n      pop\n        /* \"#utility.yul\":5652:5767   */\n      pop\n        /* \"#utility.yul\":5306:5774   */\n      swap3\n      pop\n      swap3\n      swap1\n      pop\n      jump\t// out\n        /* \"#utility.yul\":5780:6252   */\n    tag_51:\n        /* \"#utility.yul\":5847:5853   */\n      0x00\n        /* \"#utility.yul\":5855:5861   */\n      dup1\n        /* \"#utility.yul\":5904:5906   */\n      0x40\n        /* \"#utility.yul\":5892:5901   */\n      dup4\n        /* \"#utility.yul\":5883:5890   */\n      dup6\n        /* \"#utility.yul\":5879:5902   */\n      sub\n        /* \"#utility.yul\":5875:5907   */\n      slt\n        /* \"#utility.yul\":5872:5991   */\n      iszero\n      tag_451\n      jumpi\n        /* \"#utility.yul\":5910:5989   */\n      tag_452\n      tag_299\n      jump\t// in\n    tag_452:\n        /* \"#utility.yul\":5872:5991   */\n    tag_451:\n        /* \"#utility.yul\":6030:6031   */\n      0x00\n        /* \"#utility.yul\":6055:6108   */\n      tag_453\n        /* \"#utility.yul\":6100:6107   */\n      dup6\n        /* \"#utility.yul\":6091:6097   */\n      dup3\n        /* \"#utility.yul\":6080:6089   */\n      dup7\n        /* \"#utility.yul\":6076:6098   */\n      add\n        /* \"#utility.yul\":6055:6108   */\n      tag_312\n      jump\t// in\n    tag_453:\n        /* \"#utility.yul\":6045:6108   */\n      swap3\n      pop\n        /* \"#utility.yul\":6001:6118   */\n      pop\n        /* \"#utility.yul\":6157:6159   */\n      0x20\n        /* \"#utility.yul\":6183:6235   */\n      tag_454\n        /* \"#utility.yul\":6227:6234   */\n      dup6\n        /* \"#utility.yul\":6218:6224   */\n      dup3\n        /* \"#utility.yul\":6207:6216   */\n      dup7\n        /* \"#utility.yul\":6203:6225   */\n      add\n        /* \"#utility.yul\":6183:6235   */\n      tag_308\n      jump\t// in\n    tag_454:\n        /* \"#utility.yul\":6173:6235   */\n      swap2\n      pop\n        /* \"#utility.yul\":6128:6245   */\n      pop\n        /* \"#utility.yul\":5780:6252   */\n      swap3\n      pop\n      swap3\n      swap1\n      pop\n      jump\t// out\n        /* \"#utility.yul\":6258:6335   */\n    tag_322:\n        /* \"#utility.yul\":6295:6302   */\n      0x00\n        /* \"#utility.yul\":6324:6329   */\n      dup2\n        /* \"#utility.yul\":6313:6329   */\n      swap1\n      pop\n        /* \"#utility.yul\":6258:6335   */\n      swap2\n      swap1\n      pop\n      jump\t// out\n        /* \"#utility.yul\":6341:6459   */\n    tag_323:\n        /* \"#utility.yul\":6428:6452   */\n      tag_457\n        /* \"#utility.yul\":6446:6451   */\n      dup2\n        /* \"#utility.yul\":6428:6452   */\n      tag_322\n      jump\t// in\n    tag_457:\n        /* \"#utility.yul\":6423:6426   */\n      dup3\n        /* \"#utility.yul\":6416:6453   */\n      mstore\n        /* \"#utility.yul\":6341:6459   */\n      pop\n      pop\n      jump\t// out\n        /* \"#utility.yul\":6465:6687   */\n    tag_54:\n        /* \"#utility.yul\":6558:6562   */\n      0x00\n        /* \"#utility.yul\":6596:6598   */\n      0x20\n        /* \"#utility.yul\":6585:6594   */\n      dup3\n        /* \"#utility.yul\":6581:6599   */\n      add\n        /* \"#utility.yul\":6573:6599   */\n      swap1\n      pop\n        /* \"#utility.yul\":6609:6680   */\n      tag_459\n        /* \"#utility.yul\":6677:6678   */\n      0x00\n        /* \"#utility.yul\":6666:6675   */\n      dup4\n        /* \"#utility.yul\":6662:6679   */\n      add\n        /* \"#utility.yul\":6653:6659   */\n      dup5\n        /* \"#utility.yul\":6609:6680   */\n      tag_323\n      jump\t// in\n    tag_459:\n        /* \"#utility.yul\":6465:6687   */\n      swap3\n      swap2\n      pop\n      pop\n      jump\t// out\n        /* \"#utility.yul\":6693:6811   */\n    tag_324:\n        /* \"#utility.yul\":6780:6804   */\n      tag_461\n        /* \"#utility.yul\":6798:6803   */\n      dup2\n        /* \"#utility.yul\":6780:6804   */\n      tag_310\n      jump\t// in\n    tag_461:\n        /* \"#utility.yul\":6775:6778   */\n      dup3\n        /* \"#utility.yul\":6768:6805   */\n      mstore\n        /* \"#utility.yul\":6693:6811   */\n      pop\n      pop\n      jump\t// out\n        /* \"#utility.yul\":6817:7039   */\n    tag_62:\n        /* \"#utility.yul\":6910:6914   */\n      0x00\n        /* \"#utility.yul\":6948:6950   */\n      0x20\n        /* \"#utility.yul\":6937:6946   */\n      dup3\n        /* \"#utility.yul\":6933:6951   */\n      add\n        /* \"#utility.yul\":6925:6951   */\n      swap1\n      pop\n        /* \"#utility.yul\":6961:7032   */\n      tag_463\n        /* \"#utility.yul\":7029:7030   */\n      0x00\n        /* \"#utility.yul\":7018:7027   */\n      dup4\n        /* \"#utility.yul\":7014:7031   */\n      add\n        /* \"#utility.yul\":7005:7011   */\n      dup5\n        /* \"#utility.yul\":6961:7032   */\n      tag_324\n      jump\t// in\n    tag_463:\n        /* \"#utility.yul\":6817:7039   */\n      swap3\n      swap2\n      pop\n      pop\n      jump\t// out\n        /* \"#utility.yul\":7045:7167   */\n    tag_325:\n        /* \"#utility.yul\":7118:7142   */\n      tag_465\n        /* \"#utility.yul\":7136:7141   */\n      dup2\n        /* \"#utility.yul\":7118:7142   */\n      tag_322\n      jump\t// in\n    tag_465:\n        /* \"#utility.yul\":7111:7116   */\n      dup2\n        /* \"#utility.yul\":7108:7143   */\n      eq\n        /* \"#utility.yul\":7098:7161   */\n      tag_466\n      jumpi\n        /* \"#utility.yul\":7157:7158   */\n      0x00\n        /* \"#utility.yul\":7154:7155   */\n      dup1\n        /* \"#utility.yul\":7147:7159   */\n      revert\n        /* \"#utility.yul\":7098:7161   */\n    tag_466:\n        /* \"#utility.yul\":7045:7167   */\n      pop\n      jump\t// out\n        /* \"#utility.yul\":7173:7312   */\n    tag_326:\n        /* \"#utility.yul\":7219:7224   */\n      0x00\n        /* \"#utility.yul\":7257:7263   */\n      dup2\n        /* \"#utility.yul\":7244:7264   */\n      calldataload\n        /* \"#utility.yul\":7235:7264   */\n      swap1\n      pop\n        /* \"#utility.yul\":7273:7306   */\n      tag_468\n        /* \"#utility.yul\":7300:7305   */\n      dup2\n        /* \"#utility.yul\":7273:7306   */\n      tag_325\n      jump\t// in\n    tag_468:\n        /* \"#utility.yul\":7173:7312   */\n      swap3\n      swap2\n      pop\n      pop\n      jump\t// out\n        /* \"#utility.yul\":7318:7935   */\n    tag_65:\n        /* \"#utility.yul\":7394:7400   */\n      0x00\n        /* \"#utility.yul\":7402:7408   */\n      dup1\n        /* \"#utility.yul\":7410:7416   */\n      0x00\n        /* \"#utility.yul\":7459:7461   */\n      0x60\n        /* \"#utility.yul\":7447:7456   */\n      dup5\n        /* \"#utility.yul\":7438:7445   */\n      dup7\n        /* \"#utility.yul\":7434:7457   */\n      sub\n        /* \"#utility.yul\":7430:7462   */\n      slt\n        /* \"#utility.yul\":7427:7546   */\n      iszero\n      tag_470\n      jumpi\n        /* \"#utility.yul\":7465:7544   */\n      tag_471\n      tag_299\n      jump\t// in\n    tag_471:\n        /* \"#utility.yul\":7427:7546   */\n    tag_470:\n        /* \"#utility.yul\":7585:7586   */\n      0x00\n        /* \"#utility.yul\":7610:7662   */\n      tag_472\n        /* \"#utility.yul\":7654:7661   */\n      dup7\n        /* \"#utility.yul\":7645:7651   */\n      dup3\n        /* \"#utility.yul\":7634:7643   */\n      dup8\n        /* \"#utility.yul\":7630:7652   */\n      add\n        /* \"#utility.yul\":7610:7662   */\n      tag_308\n      jump\t// in\n    tag_472:\n        /* \"#utility.yul\":7600:7662   */\n      swap4\n      pop\n        /* \"#utility.yul\":7556:7672   */\n      pop\n        /* \"#utility.yul\":7711:7713   */\n      0x20\n        /* \"#utility.yul\":7737:7790   */\n      tag_473\n        /* \"#utility.yul\":7782:7789   */\n      dup7\n        /* \"#utility.yul\":7773:7779   */\n      dup3\n        /* \"#utility.yul\":7762:7771   */\n      dup8\n        /* \"#utility.yul\":7758:7780   */\n      add\n        /* \"#utility.yul\":7737:7790   */\n      tag_326\n      jump\t// in\n    tag_473:\n        /* \"#utility.yul\":7727:7790   */\n      swap3\n      pop\n        /* \"#utility.yul\":7682:7800   */\n      pop\n        /* \"#utility.yul\":7839:7841   */\n      0x40\n        /* \"#utility.yul\":7865:7918   */\n      tag_474\n        /* \"#utility.yul\":7910:7917   */\n      dup7\n        /* \"#utility.yul\":7901:7907   */\n      dup3\n        /* \"#utility.yul\":7890:7899   */\n      dup8\n        /* \"#utility.yul\":7886:7908   */\n      add\n        /* \"#utility.yul\":7865:7918   */\n      tag_326\n      jump\t// in\n    tag_474:\n        /* \"#utility.yul\":7855:7918   */\n      swap2\n      pop\n        /* \"#utility.yul\":7810:7928   */\n      pop\n        /* \"#utility.yul\":7318:7935   */\n      swap3\n      pop\n      swap3\n      pop\n      swap3\n      jump\t// out\n        /* \"#utility.yul\":7941:8049   */\n    tag_327:\n        /* \"#utility.yul\":8018:8042   */\n      tag_476\n        /* \"#utility.yul\":8036:8041   */\n      dup2\n        /* \"#utility.yul\":8018:8042   */\n      tag_322\n      jump\t// in\n    tag_476:\n        /* \"#utility.yul\":8013:8016   */\n      dup3\n        /* \"#utility.yul\":8006:8043   */\n      mstore\n        /* \"#utility.yul\":7941:8049   */\n      pop\n      pop\n      jump\t// out\n        /* \"#utility.yul\":8055:8154   */\n    tag_328:\n        /* \"#utility.yul\":8126:8147   */\n      tag_478\n        /* \"#utility.yul\":8141:8146   */\n      dup2\n        /* \"#utility.yul\":8126:8147   */\n      tag_304\n      jump\t// in\n    tag_478:\n        /* \"#utility.yul\":8121:8124   */\n      dup3\n        /* \"#utility.yul\":8114:8148   */\n      mstore\n        /* \"#utility.yul\":8055:8154   */\n      pop\n      pop\n      jump\t// out\n        /* \"#utility.yul\":8232:9109   */\n    tag_329:\n        /* \"#utility.yul\":8379:8383   */\n      0x80\n        /* \"#utility.yul\":8374:8377   */\n      dup3\n        /* \"#utility.yul\":8370:8384   */\n      add\n        /* \"#utility.yul\":8473:8477   */\n      0x00\n        /* \"#utility.yul\":8466:8471   */\n      dup3\n        /* \"#utility.yul\":8462:8478   */\n      add\n        /* \"#utility.yul\":8456:8479   */\n      mload\n        /* \"#utility.yul\":8492:8553   */\n      tag_480\n        /* \"#utility.yul\":8547:8551   */\n      0x00\n        /* \"#utility.yul\":8542:8545   */\n      dup6\n        /* \"#utility.yul\":8538:8552   */\n      add\n        /* \"#utility.yul\":8524:8536   */\n      dup3\n        /* \"#utility.yul\":8492:8553   */\n      tag_316\n      jump\t// in\n    tag_480:\n        /* \"#utility.yul\":8394:8563   */\n      pop\n        /* \"#utility.yul\":8652:8656   */\n      0x20\n        /* \"#utility.yul\":8645:8650   */\n      dup3\n        /* \"#utility.yul\":8641:8657   */\n      add\n        /* \"#utility.yul\":8635:8658   */\n      mload\n        /* \"#utility.yul\":8671:8734   */\n      tag_481\n        /* \"#utility.yul\":8728:8732   */\n      0x20\n        /* \"#utility.yul\":8723:8726   */\n      dup6\n        /* \"#utility.yul\":8719:8733   */\n      add\n        /* \"#utility.yul\":8705:8717   */\n      dup3\n        /* \"#utility.yul\":8671:8734   */\n      tag_327\n      jump\t// in\n    tag_481:\n        /* \"#utility.yul\":8573:8744   */\n      pop\n        /* \"#utility.yul\":8834:8838   */\n      0x40\n        /* \"#utility.yul\":8827:8832   */\n      dup3\n        /* \"#utility.yul\":8823:8839   */\n      add\n        /* \"#utility.yul\":8817:8840   */\n      mload\n        /* \"#utility.yul\":8853:8916   */\n      tag_482\n        /* \"#utility.yul\":8910:8914   */\n      0x40\n        /* \"#utility.yul\":8905:8908   */\n      dup6\n        /* \"#utility.yul\":8901:8915   */\n      add\n        /* \"#utility.yul\":8887:8899   */\n      dup3\n        /* \"#utility.yul\":8853:8916   */\n      tag_327\n      jump\t// in\n    tag_482:\n        /* \"#utility.yul\":8754:8926   */\n      pop\n        /* \"#utility.yul\":9016:9020   */\n      0x60\n        /* \"#utility.yul\":9009:9014   */\n      dup3\n        /* \"#utility.yul\":9005:9021   */\n      add\n        /* \"#utility.yul\":8999:9022   */\n      mload\n        /* \"#utility.yul\":9035:9092   */\n      tag_483\n        /* \"#utility.yul\":9086:9090   */\n      0x60\n        /* \"#utility.yul\":9081:9084   */\n      dup6\n        /* \"#utility.yul\":9077:9091   */\n      add\n        /* \"#utility.yul\":9063:9075   */\n      dup3\n        /* \"#utility.yul\":9035:9092   */\n      tag_328\n      jump\t// in\n    tag_483:\n        /* \"#utility.yul\":8936:9102   */\n      pop\n        /* \"#utility.yul\":8348:9109   */\n      pop\n        /* \"#utility.yul\":8232:9109   */\n      pop\n      pop\n      jump\t// out\n        /* \"#utility.yul\":9115:9438   */\n    tag_76:\n        /* \"#utility.yul\":9258:9262   */\n      0x00\n        /* \"#utility.yul\":9296:9299   */\n      0x80\n        /* \"#utility.yul\":9285:9294   */\n      dup3\n        /* \"#utility.yul\":9281:9300   */\n      add\n        /* \"#utility.yul\":9273:9300   */\n      swap1\n      pop\n        /* \"#utility.yul\":9310:9431   */\n      tag_485\n        /* \"#utility.yul\":9428:9429   */\n      0x00\n        /* \"#utility.yul\":9417:9426   */\n      dup4\n        /* \"#utility.yul\":9413:9430   */\n      add\n        /* \"#utility.yul\":9404:9410   */\n      dup5\n        /* \"#utility.yul\":9310:9431   */\n      tag_329\n      jump\t// in\n    tag_485:\n        /* \"#utility.yul\":9115:9438   */\n      swap3\n      swap2\n      pop\n      pop\n      jump\t// out\n        /* \"#utility.yul\":9444:9624   */\n    tag_132:\n        /* \"#utility.yul\":9492:9569   */\n      0x4e487b7100000000000000000000000000000000000000000000000000000000\n        /* \"#utility.yul\":9489:9490   */\n      0x00\n        /* \"#utility.yul\":9482:9570   */\n      mstore\n        /* \"#utility.yul\":9589:9593   */\n      0x21\n        /* \"#utility.yul\":9586:9587   */\n      0x04\n        /* \"#utility.yul\":9579:9594   */\n      mstore\n        /* \"#utility.yul\":9613:9617   */\n      0x24\n        /* \"#utility.yul\":9610:9611   */\n      0x00\n        /* \"#utility.yul\":9603:9618   */\n      revert\n        /* \"#utility.yul\":9630:9744   */\n    tag_330:\n        /* \"#utility.yul\":9712:9713   */\n      0x02\n        /* \"#utility.yul\":9705:9710   */\n      dup2\n        /* \"#utility.yul\":9702:9714   */\n      lt\n        /* \"#utility.yul\":9692:9738   */\n      tag_488\n      jumpi\n        /* \"#utility.yul\":9718:9736   */\n      tag_489\n      tag_132\n      jump\t// in\n    tag_489:\n        /* \"#utility.yul\":9692:9738   */\n    tag_488:\n        /* \"#utility.yul\":9630:9744   */\n      pop\n      jump\t// out\n        /* \"#utility.yul\":9750:9879   */\n    tag_331:\n        /* \"#utility.yul\":9796:9803   */\n      0x00\n        /* \"#utility.yul\":9825:9830   */\n      dup2\n        /* \"#utility.yul\":9814:9830   */\n      swap1\n      pop\n        /* \"#utility.yul\":9831:9873   */\n      tag_491\n        /* \"#utility.yul\":9867:9872   */\n      dup3\n        /* \"#utility.yul\":9831:9873   */\n      tag_330\n      jump\t// in\n    tag_491:\n        /* \"#utility.yul\":9750:9879   */\n      swap2\n      swap1\n      pop\n      jump\t// out\n        /* \"#utility.yul\":9885:10014   */\n    tag_332:\n        /* \"#utility.yul\":9942:9951   */\n      0x00\n        /* \"#utility.yul\":9975:10008   */\n      tag_493\n        /* \"#utility.yul\":10002:10007   */\n      dup3\n        /* \"#utility.yul\":9975:10008   */\n      tag_331\n      jump\t// in\n    tag_493:\n        /* \"#utility.yul\":9962:10008   */\n      swap1\n      pop\n        /* \"#utility.yul\":9885:10014   */\n      swap2\n      swap1\n      pop\n      jump\t// out\n        /* \"#utility.yul\":10020:10155   */\n    tag_333:\n        /* \"#utility.yul\":10104:10148   */\n      tag_495\n        /* \"#utility.yul\":10142:10147   */\n      dup2\n        /* \"#utility.yul\":10104:10148   */\n      tag_332\n      jump\t// in\n    tag_495:\n        /* \"#utility.yul\":10099:10102   */\n      dup3\n        /* \"#utility.yul\":10092:10149   */\n      mstore\n        /* \"#utility.yul\":10020:10155   */\n      pop\n      pop\n      jump\t// out\n        /* \"#utility.yul\":10235:12023   */\n    tag_334:\n        /* \"#utility.yul\":10384:10390   */\n      0x0120\n        /* \"#utility.yul\":10379:10382   */\n      dup3\n        /* \"#utility.yul\":10375:10391   */\n      add\n        /* \"#utility.yul\":10474:10478   */\n      0x00\n        /* \"#utility.yul\":10467:10472   */\n      dup3\n        /* \"#utility.yul\":10463:10479   */\n      add\n        /* \"#utility.yul\":10457:10480   */\n      mload\n        /* \"#utility.yul\":10493:10563   */\n      tag_497\n        /* \"#utility.yul\":10557:10561   */\n      0x00\n        /* \"#utility.yul\":10552:10555   */\n      dup6\n        /* \"#utility.yul\":10548:10562   */\n      add\n        /* \"#utility.yul\":10534:10546   */\n      dup3\n        /* \"#utility.yul\":10493:10563   */\n      tag_333\n      jump\t// in\n    tag_497:\n        /* \"#utility.yul\":10401:10573   */\n      pop\n        /* \"#utility.yul\":10653:10657   */\n      0x20\n        /* \"#utility.yul\":10646:10651   */\n      dup3\n        /* \"#utility.yul\":10642:10658   */\n      add\n        /* \"#utility.yul\":10636:10659   */\n      mload\n        /* \"#utility.yul\":10672:10733   */\n      tag_498\n        /* \"#utility.yul\":10727:10731   */\n      0x20\n        /* \"#utility.yul\":10722:10725   */\n      dup6\n        /* \"#utility.yul\":10718:10732   */\n      add\n        /* \"#utility.yul\":10704:10716   */\n      dup3\n        /* \"#utility.yul\":10672:10733   */\n      tag_316\n      jump\t// in\n    tag_498:\n        /* \"#utility.yul\":10583:10743   */\n      pop\n        /* \"#utility.yul\":10828:10832   */\n      0x40\n        /* \"#utility.yul\":10821:10826   */\n      dup3\n        /* \"#utility.yul\":10817:10833   */\n      add\n        /* \"#utility.yul\":10811:10834   */\n      mload\n        /* \"#utility.yul\":10847:10910   */\n      tag_499\n        /* \"#utility.yul\":10904:10908   */\n      0x40\n        /* \"#utility.yul\":10899:10902   */\n      dup6\n        /* \"#utility.yul\":10895:10909   */\n      add\n        /* \"#utility.yul\":10881:10893   */\n      dup3\n        /* \"#utility.yul\":10847:10910   */\n      tag_327\n      jump\t// in\n    tag_499:\n        /* \"#utility.yul\":10753:10920   */\n      pop\n        /* \"#utility.yul\":11003:11007   */\n      0x60\n        /* \"#utility.yul\":10996:11001   */\n      dup3\n        /* \"#utility.yul\":10992:11008   */\n      add\n        /* \"#utility.yul\":10986:11009   */\n      mload\n        /* \"#utility.yul\":11022:11085   */\n      tag_500\n        /* \"#utility.yul\":11079:11083   */\n      0x60\n        /* \"#utility.yul\":11074:11077   */\n      dup6\n        /* \"#utility.yul\":11070:11084   */\n      add\n        /* \"#utility.yul\":11056:11068   */\n      dup3\n        /* \"#utility.yul\":11022:11085   */\n      tag_327\n      jump\t// in\n    tag_500:\n        /* \"#utility.yul\":10930:11095   */\n      pop\n        /* \"#utility.yul\":11184:11188   */\n      0x80\n        /* \"#utility.yul\":11177:11182   */\n      dup3\n        /* \"#utility.yul\":11173:11189   */\n      add\n        /* \"#utility.yul\":11167:11190   */\n      mload\n        /* \"#utility.yul\":11203:11266   */\n      tag_501\n        /* \"#utility.yul\":11260:11264   */\n      0x80\n        /* \"#utility.yul\":11255:11258   */\n      dup6\n        /* \"#utility.yul\":11251:11265   */\n      add\n        /* \"#utility.yul\":11237:11249   */\n      dup3\n        /* \"#utility.yul\":11203:11266   */\n      tag_327\n      jump\t// in\n    tag_501:\n        /* \"#utility.yul\":11105:11276   */\n      pop\n        /* \"#utility.yul\":11366:11370   */\n      0xa0\n        /* \"#utility.yul\":11359:11364   */\n      dup3\n        /* \"#utility.yul\":11355:11371   */\n      add\n        /* \"#utility.yul\":11349:11372   */\n      mload\n        /* \"#utility.yul\":11385:11448   */\n      tag_502\n        /* \"#utility.yul\":11442:11446   */\n      0xa0\n        /* \"#utility.yul\":11437:11440   */\n      dup6\n        /* \"#utility.yul\":11433:11447   */\n      add\n        /* \"#utility.yul\":11419:11431   */\n      dup3\n        /* \"#utility.yul\":11385:11448   */\n      tag_327\n      jump\t// in\n    tag_502:\n        /* \"#utility.yul\":11286:11458   */\n      pop\n        /* \"#utility.yul\":11551:11555   */\n      0xc0\n        /* \"#utility.yul\":11544:11549   */\n      dup3\n        /* \"#utility.yul\":11540:11556   */\n      add\n        /* \"#utility.yul\":11534:11557   */\n      mload\n        /* \"#utility.yul\":11570:11633   */\n      tag_503\n        /* \"#utility.yul\":11627:11631   */\n      0xc0\n        /* \"#utility.yul\":11622:11625   */\n      dup6\n        /* \"#utility.yul\":11618:11632   */\n      add\n        /* \"#utility.yul\":11604:11616   */\n      dup3\n        /* \"#utility.yul\":11570:11633   */\n      tag_327\n      jump\t// in\n    tag_503:\n        /* \"#utility.yul\":11468:11643   */\n      pop\n        /* \"#utility.yul\":11737:11741   */\n      0xe0\n        /* \"#utility.yul\":11730:11735   */\n      dup3\n        /* \"#utility.yul\":11726:11742   */\n      add\n        /* \"#utility.yul\":11720:11743   */\n      mload\n        /* \"#utility.yul\":11756:11819   */\n      tag_504\n        /* \"#utility.yul\":11813:11817   */\n      0xe0\n        /* \"#utility.yul\":11808:11811   */\n      dup6\n        /* \"#utility.yul\":11804:11818   */\n      add\n        /* \"#utility.yul\":11790:11802   */\n      dup3\n        /* \"#utility.yul\":11756:11819   */\n      tag_327\n      jump\t// in\n    tag_504:\n        /* \"#utility.yul\":11653:11829   */\n      pop\n        /* \"#utility.yul\":11920:11926   */\n      0x0100\n        /* \"#utility.yul\":11913:11918   */\n      dup3\n        /* \"#utility.yul\":11909:11927   */\n      add\n        /* \"#utility.yul\":11903:11928   */\n      mload\n        /* \"#utility.yul\":11941:12006   */\n      tag_505\n        /* \"#utility.yul\":11998:12004   */\n      0x0100\n        /* \"#utility.yul\":11993:11996   */\n      dup6\n        /* \"#utility.yul\":11989:12005   */\n      add\n        /* \"#utility.yul\":11975:11987   */\n      dup3\n        /* \"#utility.yul\":11941:12006   */\n      tag_327\n      jump\t// in\n    tag_505:\n        /* \"#utility.yul\":11839:12016   */\n      pop\n        /* \"#utility.yul\":10353:12023   */\n      pop\n        /* \"#utility.yul\":10235:12023   */\n      pop\n      pop\n      jump\t// out\n        /* \"#utility.yul\":12029:12356   */\n    tag_81:\n        /* \"#utility.yul\":12174:12178   */\n      0x00\n        /* \"#utility.yul\":12212:12215   */\n      0x0120\n        /* \"#utility.yul\":12201:12210   */\n      dup3\n        /* \"#utility.yul\":12197:12216   */\n      add\n        /* \"#utility.yul\":12189:12216   */\n      swap1\n      pop\n        /* \"#utility.yul\":12226:12349   */\n      tag_507\n        /* \"#utility.yul\":12346:12347   */\n      0x00\n        /* \"#utility.yul\":12335:12344   */\n      dup4\n        /* \"#utility.yul\":12331:12348   */\n      add\n        /* \"#utility.yul\":12322:12328   */\n      dup5\n        /* \"#utility.yul\":12226:12349   */\n      tag_334\n      jump\t// in\n    tag_507:\n        /* \"#utility.yul\":12029:12356   */\n      swap3\n      swap2\n      pop\n      pop\n      jump\t// out\n        /* \"#utility.yul\":12362:12834   */\n    tag_90:\n        /* \"#utility.yul\":12429:12435   */\n      0x00\n        /* \"#utility.yul\":12437:12443   */\n      dup1\n        /* \"#utility.yul\":12486:12488   */\n      0x40\n        /* \"#utility.yul\":12474:12483   */\n      dup4\n        /* \"#utility.yul\":12465:12472   */\n      dup6\n        /* \"#utility.yul\":12461:12484   */\n      sub\n        /* \"#utility.yul\":12457:12489   */\n      slt\n        /* \"#utility.yul\":12454:12573   */\n      iszero\n      tag_509\n      jumpi\n        /* \"#utility.yul\":12492:12571   */\n      tag_510\n      tag_299\n      jump\t// in\n    tag_510:\n        /* \"#utility.yul\":12454:12573   */\n    tag_509:\n        /* \"#utility.yul\":12612:12613   */\n      0x00\n        /* \"#utility.yul\":12637:12689   */\n      tag_511\n        /* \"#utility.yul\":12681:12688   */\n      dup6\n        /* \"#utility.yul\":12672:12678   */\n      dup3\n        /* \"#utility.yul\":12661:12670   */\n      dup7\n        /* \"#utility.yul\":12657:12679   */\n      add\n        /* \"#utility.yul\":12637:12689   */\n      tag_308\n      jump\t// in\n    tag_511:\n        /* \"#utility.yul\":12627:12689   */\n      swap3\n      pop\n        /* \"#utility.yul\":12583:12699   */\n      pop\n        /* \"#utility.yul\":12738:12740   */\n      0x20\n        /* \"#utility.yul\":12764:12817   */\n      tag_512\n        /* \"#utility.yul\":12809:12816   */\n      dup6\n        /* \"#utility.yul\":12800:12806   */\n      dup3\n        /* \"#utility.yul\":12789:12798   */\n      dup7\n        /* \"#utility.yul\":12785:12807   */\n      add\n        /* \"#utility.yul\":12764:12817   */\n      tag_326\n      jump\t// in\n    tag_512:\n        /* \"#utility.yul\":12754:12817   */\n      swap2\n      pop\n        /* \"#utility.yul\":12709:12827   */\n      pop\n        /* \"#utility.yul\":12362:12834   */\n      swap3\n      pop\n      swap3\n      swap1\n      pop\n      jump\t// out\n        /* \"#utility.yul\":12840:12957   */\n    tag_335:\n        /* \"#utility.yul\":12949:12950   */\n      0x00\n        /* \"#utility.yul\":12946:12947   */\n      dup1\n        /* \"#utility.yul\":12939:12951   */\n      revert\n        /* \"#utility.yul\":12963:13065   */\n    tag_336:\n        /* \"#utility.yul\":13004:13010   */\n      0x00\n        /* \"#utility.yul\":13055:13057   */\n      0x1f\n        /* \"#utility.yul\":13051:13058   */\n      not\n        /* \"#utility.yul\":13046:13048   */\n      0x1f\n        /* \"#utility.yul\":13039:13044   */\n      dup4\n        /* \"#utility.yul\":13035:13049   */\n      add\n        /* \"#utility.yul\":13031:13059   */\n      and\n        /* \"#utility.yul\":13021:13059   */\n      swap1\n      pop\n        /* \"#utility.yul\":12963:13065   */\n      swap2\n      swap1\n      pop\n      jump\t// out\n        /* \"#utility.yul\":13071:13251   */\n    tag_337:\n        /* \"#utility.yul\":13119:13196   */\n      0x4e487b7100000000000000000000000000000000000000000000000000000000\n        /* \"#utility.yul\":13116:13117   */\n      0x00\n        /* \"#utility.yul\":13109:13197   */\n      mstore\n        /* \"#utility.yul\":13216:13220   */\n      0x41\n        /* \"#utility.yul\":13213:13214   */\n      0x04\n        /* \"#utility.yul\":13206:13221   */\n      mstore\n        /* \"#utility.yul\":13240:13244   */\n      0x24\n        /* \"#utility.yul\":13237:13238   */\n      0x00\n        /* \"#utility.yul\":13230:13245   */\n      revert\n        /* \"#utility.yul\":13257:13538   */\n    tag_338:\n        /* \"#utility.yul\":13340:13367   */\n      tag_517\n        /* \"#utility.yul\":13362:13366   */\n      dup3\n        /* \"#utility.yul\":13340:13367   */\n      tag_336\n      jump\t// in\n    tag_517:\n        /* \"#utility.yul\":13332:13338   */\n      dup2\n        /* \"#utility.yul\":13328:13368   */\n      add\n        /* \"#utility.yul\":13470:13476   */\n      dup2\n        /* \"#utility.yul\":13458:13468   */\n      dup2\n        /* \"#utility.yul\":13455:13477   */\n      lt\n        /* \"#utility.yul\":13434:13452   */\n      0xffffffffffffffff\n        /* \"#utility.yul\":13422:13432   */\n      dup3\n        /* \"#utility.yul\":13419:13453   */\n      gt\n        /* \"#utility.yul\":13416:13478   */\n      or\n        /* \"#utility.yul\":13413:13501   */\n      iszero\n      tag_518\n      jumpi\n        /* \"#utility.yul\":13481:13499   */\n      tag_519\n      tag_337\n      jump\t// in\n    tag_519:\n        /* \"#utility.yul\":13413:13501   */\n    tag_518:\n        /* \"#utility.yul\":13521:13531   */\n      dup1\n        /* \"#utility.yul\":13517:13519   */\n      0x40\n        /* \"#utility.yul\":13510:13532   */\n      mstore\n        /* \"#utility.yul\":13300:13538   */\n      pop\n        /* \"#utility.yul\":13257:13538   */\n      pop\n      pop\n      jump\t// out\n        /* \"#utility.yul\":13544:13673   */\n    tag_339:\n        /* \"#utility.yul\":13578:13584   */\n      0x00\n        /* \"#utility.yul\":13605:13625   */\n      tag_521\n      tag_298\n      jump\t// in\n    tag_521:\n        /* \"#utility.yul\":13595:13625   */\n      swap1\n      pop\n        /* \"#utility.yul\":13634:13667   */\n      tag_522\n        /* \"#utility.yul\":13662:13666   */\n      dup3\n        /* \"#utility.yul\":13654:13660   */\n      dup3\n        /* \"#utility.yul\":13634:13667   */\n      tag_338\n      jump\t// in\n    tag_522:\n        /* \"#utility.yul\":13544:13673   */\n      swap2\n      swap1\n      pop\n      jump\t// out\n        /* \"#utility.yul\":13679:13990   */\n    tag_340:\n        /* \"#utility.yul\":13756:13760   */\n      0x00\n        /* \"#utility.yul\":13846:13864   */\n      0xffffffffffffffff\n        /* \"#utility.yul\":13838:13844   */\n      dup3\n        /* \"#utility.yul\":13835:13865   */\n      gt\n        /* \"#utility.yul\":13832:13888   */\n      iszero\n      tag_524\n      jumpi\n        /* \"#utility.yul\":13868:13886   */\n      tag_525\n      tag_337\n      jump\t// in\n    tag_525:\n        /* \"#utility.yul\":13832:13888   */\n    tag_524:\n        /* \"#utility.yul\":13918:13922   */\n      0x20\n        /* \"#utility.yul\":13910:13916   */\n      dup3\n        /* \"#utility.yul\":13906:13923   */\n      mul\n        /* \"#utility.yul\":13898:13923   */\n      swap1\n      pop\n        /* \"#utility.yul\":13978:13982   */\n      0x20\n        /* \"#utility.yul\":13972:13976   */\n      dup2\n        /* \"#utility.yul\":13968:13983   */\n      add\n        /* \"#utility.yul\":13960:13983   */\n      swap1\n      pop\n        /* \"#utility.yul\":13679:13990   */\n      swap2\n      swap1\n      pop\n      jump\t// out\n        /* \"#utility.yul\":13996:14113   */\n    tag_341:\n        /* \"#utility.yul\":14105:14106   */\n      0x00\n        /* \"#utility.yul\":14102:14103   */\n      dup1\n        /* \"#utility.yul\":14095:14107   */\n      revert\n        /* \"#utility.yul\":14136:14846   */\n    tag_342:\n        /* \"#utility.yul\":14232:14237   */\n      0x00\n        /* \"#utility.yul\":14257:14338   */\n      tag_528\n        /* \"#utility.yul\":14273:14337   */\n      tag_529\n        /* \"#utility.yul\":14330:14336   */\n      dup5\n        /* \"#utility.yul\":14273:14337   */\n      tag_340\n      jump\t// in\n    tag_529:\n        /* \"#utility.yul\":14257:14338   */\n      tag_339\n      jump\t// in\n    tag_528:\n        /* \"#utility.yul\":14248:14338   */\n      swap1\n      pop\n        /* \"#utility.yul\":14358:14363   */\n      dup1\n        /* \"#utility.yul\":14387:14393   */\n      dup4\n        /* \"#utility.yul\":14380:14385   */\n      dup3\n        /* \"#utility.yul\":14373:14394   */\n      mstore\n        /* \"#utility.yul\":14421:14425   */\n      0x20\n        /* \"#utility.yul\":14414:14419   */\n      dup3\n        /* \"#utility.yul\":14410:14426   */\n      add\n        /* \"#utility.yul\":14403:14426   */\n      swap1\n      pop\n        /* \"#utility.yul\":14474:14478   */\n      0x20\n        /* \"#utility.yul\":14466:14472   */\n      dup5\n        /* \"#utility.yul\":14462:14479   */\n      mul\n        /* \"#utility.yul\":14454:14460   */\n      dup4\n        /* \"#utility.yul\":14450:14480   */\n      add\n        /* \"#utility.yul\":14503:14506   */\n      dup6\n        /* \"#utility.yul\":14495:14501   */\n      dup2\n        /* \"#utility.yul\":14492:14507   */\n      gt\n        /* \"#utility.yul\":14489:14611   */\n      iszero\n      tag_530\n      jumpi\n        /* \"#utility.yul\":14522:14601   */\n      tag_531\n      tag_341\n      jump\t// in\n    tag_531:\n        /* \"#utility.yul\":14489:14611   */\n    tag_530:\n        /* \"#utility.yul\":14637:14643   */\n      dup4\n        /* \"#utility.yul\":14620:14840   */\n    tag_532:\n        /* \"#utility.yul\":14654:14660   */\n      dup2\n        /* \"#utility.yul\":14649:14652   */\n      dup2\n        /* \"#utility.yul\":14646:14661   */\n      lt\n        /* \"#utility.yul\":14620:14840   */\n      iszero\n      tag_534\n      jumpi\n        /* \"#utility.yul\":14729:14732   */\n      dup1\n        /* \"#utility.yul\":14758:14795   */\n      tag_535\n        /* \"#utility.yul\":14791:14794   */\n      dup9\n        /* \"#utility.yul\":14779:14789   */\n      dup3\n        /* \"#utility.yul\":14758:14795   */\n      tag_326\n      jump\t// in\n    tag_535:\n        /* \"#utility.yul\":14753:14756   */\n      dup5\n        /* \"#utility.yul\":14746:14796   */\n      mstore\n        /* \"#utility.yul\":14825:14829   */\n      0x20\n        /* \"#utility.yul\":14820:14823   */\n      dup5\n        /* \"#utility.yul\":14816:14830   */\n      add\n        /* \"#utility.yul\":14809:14830   */\n      swap4\n      pop\n        /* \"#utility.yul\":14696:14840   */\n      pop\n        /* \"#utility.yul\":14680:14684   */\n      0x20\n        /* \"#utility.yul\":14675:14678   */\n      dup2\n        /* \"#utility.yul\":14671:14685   */\n      add\n        /* \"#utility.yul\":14664:14685   */\n      swap1\n      pop\n        /* \"#utility.yul\":14620:14840   */\n      jump(tag_532)\n    tag_534:\n        /* \"#utility.yul\":14624:14645   */\n      pop\n        /* \"#utility.yul\":14238:14846   */\n      pop\n      pop\n        /* \"#utility.yul\":14136:14846   */\n      swap4\n      swap3\n      pop\n      pop\n      pop\n      jump\t// out\n        /* \"#utility.yul\":14869:15239   */\n    tag_343:\n        /* \"#utility.yul\":14940:14945   */\n      0x00\n        /* \"#utility.yul\":14989:14992   */\n      dup3\n        /* \"#utility.yul\":14982:14986   */\n      0x1f\n        /* \"#utility.yul\":14974:14980   */\n      dup4\n        /* \"#utility.yul\":14970:14987   */\n      add\n        /* \"#utility.yul\":14966:14993   */\n      slt\n        /* \"#utility.yul\":14956:15078   */\n      tag_537\n      jumpi\n        /* \"#utility.yul\":14997:15076   */\n      tag_538\n      tag_335\n      jump\t// in\n    tag_538:\n        /* \"#utility.yul\":14956:15078   */\n    tag_537:\n        /* \"#utility.yul\":15114:15120   */\n      dup2\n        /* \"#utility.yul\":15101:15121   */\n      calldataload\n        /* \"#utility.yul\":15139:15233   */\n      tag_539\n        /* \"#utility.yul\":15229:15232   */\n      dup5\n        /* \"#utility.yul\":15221:15227   */\n      dup3\n        /* \"#utility.yul\":15214:15218   */\n      0x20\n        /* \"#utility.yul\":15206:15212   */\n      dup7\n        /* \"#utility.yul\":15202:15219   */\n      add\n        /* \"#utility.yul\":15139:15233   */\n      tag_342\n      jump\t// in\n    tag_539:\n        /* \"#utility.yul\":15130:15233   */\n      swap2\n      pop\n        /* \"#utility.yul\":14946:15239   */\n      pop\n        /* \"#utility.yul\":14869:15239   */\n      swap3\n      swap2\n      pop\n      pop\n      jump\t// out\n        /* \"#utility.yul\":15245:15362   */\n    tag_344:\n        /* \"#utility.yul\":15354:15355   */\n      0x00\n        /* \"#utility.yul\":15351:15352   */\n      dup1\n        /* \"#utility.yul\":15344:15356   */\n      revert\n        /* \"#utility.yul\":15368:15675   */\n    tag_345:\n        /* \"#utility.yul\":15429:15433   */\n      0x00\n        /* \"#utility.yul\":15519:15537   */\n      0xffffffffffffffff\n        /* \"#utility.yul\":15511:15517   */\n      dup3\n        /* \"#utility.yul\":15508:15538   */\n      gt\n        /* \"#utility.yul\":15505:15561   */\n      iszero\n      tag_542\n      jumpi\n        /* \"#utility.yul\":15541:15559   */\n      tag_543\n      tag_337\n      jump\t// in\n    tag_543:\n        /* \"#utility.yul\":15505:15561   */\n    tag_542:\n        /* \"#utility.yul\":15579:15608   */\n      tag_544\n        /* \"#utility.yul\":15601:15607   */\n      dup3\n        /* \"#utility.yul\":15579:15608   */\n      tag_336\n      jump\t// in\n    tag_544:\n        /* \"#utility.yul\":15571:15608   */\n      swap1\n      pop\n        /* \"#utility.yul\":15663:15667   */\n      0x20\n        /* \"#utility.yul\":15657:15661   */\n      dup2\n        /* \"#utility.yul\":15653:15668   */\n      add\n        /* \"#utility.yul\":15645:15668   */\n      swap1\n      pop\n        /* \"#utility.yul\":15368:15675   */\n      swap2\n      swap1\n      pop\n      jump\t// out\n        /* \"#utility.yul\":15681:15835   */\n    tag_346:\n        /* \"#utility.yul\":15765:15771   */\n      dup3\n        /* \"#utility.yul\":15760:15763   */\n      dup2\n        /* \"#utility.yul\":15755:15758   */\n      dup4\n        /* \"#utility.yul\":15742:15772   */\n      calldatacopy\n        /* \"#utility.yul\":15827:15828   */\n      0x00\n        /* \"#utility.yul\":15818:15824   */\n      dup4\n        /* \"#utility.yul\":15813:15816   */\n      dup4\n        /* \"#utility.yul\":15809:15825   */\n      add\n        /* \"#utility.yul\":15802:15829   */\n      mstore\n        /* \"#utility.yul\":15681:15835   */\n      pop\n      pop\n      pop\n      jump\t// out\n        /* \"#utility.yul\":15841:16251   */\n    tag_347:\n        /* \"#utility.yul\":15918:15923   */\n      0x00\n        /* \"#utility.yul\":15943:16008   */\n      tag_547\n        /* \"#utility.yul\":15959:16007   */\n      tag_548\n        /* \"#utility.yul\":16000:16006   */\n      dup5\n        /* \"#utility.yul\":15959:16007   */\n      tag_345\n      jump\t// in\n    tag_548:\n        /* \"#utility.yul\":15943:16008   */\n      tag_339\n      jump\t// in\n    tag_547:\n        /* \"#utility.yul\":15934:16008   */\n      swap1\n      pop\n        /* \"#utility.yul\":16031:16037   */\n      dup3\n        /* \"#utility.yul\":16024:16029   */\n      dup2\n        /* \"#utility.yul\":16017:16038   */\n      mstore\n        /* \"#utility.yul\":16069:16073   */\n      0x20\n        /* \"#utility.yul\":16062:16067   */\n      dup2\n        /* \"#utility.yul\":16058:16074   */\n      add\n        /* \"#utility.yul\":16107:16110   */\n      dup5\n        /* \"#utility.yul\":16098:16104   */\n      dup5\n        /* \"#utility.yul\":16093:16096   */\n      dup5\n        /* \"#utility.yul\":16089:16105   */\n      add\n        /* \"#utility.yul\":16086:16111   */\n      gt\n        /* \"#utility.yul\":16083:16195   */\n      iszero\n      tag_549\n      jumpi\n        /* \"#utility.yul\":16114:16193   */\n      tag_550\n      tag_344\n      jump\t// in\n    tag_550:\n        /* \"#utility.yul\":16083:16195   */\n    tag_549:\n        /* \"#utility.yul\":16204:16245   */\n      tag_551\n        /* \"#utility.yul\":16238:16244   */\n      dup5\n        /* \"#utility.yul\":16233:16236   */\n      dup3\n        /* \"#utility.yul\":16228:16231   */\n      dup6\n        /* \"#utility.yul\":16204:16245   */\n      tag_346\n      jump\t// in\n    tag_551:\n        /* \"#utility.yul\":15924:16251   */\n      pop\n        /* \"#utility.yul\":15841:16251   */\n      swap4\n      swap3\n      pop\n      pop\n      pop\n      jump\t// out\n        /* \"#utility.yul\":16270:16608   */\n    tag_348:\n        /* \"#utility.yul\":16325:16330   */\n      0x00\n        /* \"#utility.yul\":16374:16377   */\n      dup3\n        /* \"#utility.yul\":16367:16371   */\n      0x1f\n        /* \"#utility.yul\":16359:16365   */\n      dup4\n        /* \"#utility.yul\":16355:16372   */\n      add\n        /* \"#utility.yul\":16351:16378   */\n      slt\n        /* \"#utility.yul\":16341:16463   */\n      tag_553\n      jumpi\n        /* \"#utility.yul\":16382:16461   */\n      tag_554\n      tag_335\n      jump\t// in\n    tag_554:\n        /* \"#utility.yul\":16341:16463   */\n    tag_553:\n        /* \"#utility.yul\":16499:16505   */\n      dup2\n        /* \"#utility.yul\":16486:16506   */\n      calldataload\n        /* \"#utility.yul\":16524:16602   */\n      tag_555\n        /* \"#utility.yul\":16598:16601   */\n      dup5\n        /* \"#utility.yul\":16590:16596   */\n      dup3\n        /* \"#utility.yul\":16583:16587   */\n      0x20\n        /* \"#utility.yul\":16575:16581   */\n      dup7\n        /* \"#utility.yul\":16571:16588   */\n      add\n        /* \"#utility.yul\":16524:16602   */\n      tag_347\n      jump\t// in\n    tag_555:\n        /* \"#utility.yul\":16515:16602   */\n      swap2\n      pop\n        /* \"#utility.yul\":16331:16608   */\n      pop\n        /* \"#utility.yul\":16270:16608   */\n      swap3\n      swap2\n      pop\n      pop\n      jump\t// out\n        /* \"#utility.yul\":16614:18123   */\n    tag_94:\n        /* \"#utility.yul\":16768:16774   */\n      0x00\n        /* \"#utility.yul\":16776:16782   */\n      dup1\n        /* \"#utility.yul\":16784:16790   */\n      0x00\n        /* \"#utility.yul\":16792:16798   */\n      dup1\n        /* \"#utility.yul\":16800:16806   */\n      0x00\n        /* \"#utility.yul\":16849:16852   */\n      0xa0\n        /* \"#utility.yul\":16837:16846   */\n      dup7\n        /* \"#utility.yul\":16828:16835   */\n      dup9\n        /* \"#utility.yul\":16824:16847   */\n      sub\n        /* \"#utility.yul\":16820:16853   */\n      slt\n        /* \"#utility.yul\":16817:16937   */\n      iszero\n      tag_557\n      jumpi\n        /* \"#utility.yul\":16856:16935   */\n      tag_558\n      tag_299\n      jump\t// in\n    tag_558:\n        /* \"#utility.yul\":16817:16937   */\n    tag_557:\n        /* \"#utility.yul\":16976:16977   */\n      0x00\n        /* \"#utility.yul\":17001:17054   */\n      tag_559\n        /* \"#utility.yul\":17046:17053   */\n      dup9\n        /* \"#utility.yul\":17037:17043   */\n      dup3\n        /* \"#utility.yul\":17026:17035   */\n      dup10\n        /* \"#utility.yul\":17022:17044   */\n      add\n        /* \"#utility.yul\":17001:17054   */\n      tag_312\n      jump\t// in\n    tag_559:\n        /* \"#utility.yul\":16991:17054   */\n      swap6\n      pop\n        /* \"#utility.yul\":16947:17064   */\n      pop\n        /* \"#utility.yul\":17103:17105   */\n      0x20\n        /* \"#utility.yul\":17129:17182   */\n      tag_560\n        /* \"#utility.yul\":17174:17181   */\n      dup9\n        /* \"#utility.yul\":17165:17171   */\n      dup3\n        /* \"#utility.yul\":17154:17163   */\n      dup10\n        /* \"#utility.yul\":17150:17172   */\n      add\n        /* \"#utility.yul\":17129:17182   */\n      tag_312\n      jump\t// in\n    tag_560:\n        /* \"#utility.yul\":17119:17182   */\n      swap5\n      pop\n        /* \"#utility.yul\":17074:17192   */\n      pop\n        /* \"#utility.yul\":17259:17261   */\n      0x40\n        /* \"#utility.yul\":17248:17257   */\n      dup7\n        /* \"#utility.yul\":17244:17262   */\n      add\n        /* \"#utility.yul\":17231:17263   */\n      calldataload\n        /* \"#utility.yul\":17290:17308   */\n      0xffffffffffffffff\n        /* \"#utility.yul\":17282:17288   */\n      dup2\n        /* \"#utility.yul\":17279:17309   */\n      gt\n        /* \"#utility.yul\":17276:17393   */\n      iszero\n      tag_561\n      jumpi\n        /* \"#utility.yul\":17312:17391   */\n      tag_562\n      tag_300\n      jump\t// in\n    tag_562:\n        /* \"#utility.yul\":17276:17393   */\n    tag_561:\n        /* \"#utility.yul\":17417:17495   */\n      tag_563\n        /* \"#utility.yul\":17487:17494   */\n      dup9\n        /* \"#utility.yul\":17478:17484   */\n      dup3\n        /* \"#utility.yul\":17467:17476   */\n      dup10\n        /* \"#utility.yul\":17463:17485   */\n      add\n        /* \"#utility.yul\":17417:17495   */\n      tag_343\n      jump\t// in\n    tag_563:\n        /* \"#utility.yul\":17407:17495   */\n      swap4\n      pop\n        /* \"#utility.yul\":17202:17505   */\n      pop\n        /* \"#utility.yul\":17572:17574   */\n      0x60\n        /* \"#utility.yul\":17561:17570   */\n      dup7\n        /* \"#utility.yul\":17557:17575   */\n      add\n        /* \"#utility.yul\":17544:17576   */\n      calldataload\n        /* \"#utility.yul\":17603:17621   */\n      0xffffffffffffffff\n        /* \"#utility.yul\":17595:17601   */\n      dup2\n        /* \"#utility.yul\":17592:17622   */\n      gt\n        /* \"#utility.yul\":17589:17706   */\n      iszero\n      tag_564\n      jumpi\n        /* \"#utility.yul\":17625:17704   */\n      tag_565\n      tag_300\n      jump\t// in\n    tag_565:\n        /* \"#utility.yul\":17589:17706   */\n    tag_564:\n        /* \"#utility.yul\":17730:17808   */\n      tag_566\n        /* \"#utility.yul\":17800:17807   */\n      dup9\n        /* \"#utility.yul\":17791:17797   */\n      dup3\n        /* \"#utility.yul\":17780:17789   */\n      dup10\n        /* \"#utility.yul\":17776:17798   */\n      add\n        /* \"#utility.yul\":17730:17808   */\n      tag_343\n      jump\t// in\n    tag_566:\n        /* \"#utility.yul\":17720:17808   */\n      swap3\n      pop\n        /* \"#utility.yul\":17515:17818   */\n      pop\n        /* \"#utility.yul\":17885:17888   */\n      0x80\n        /* \"#utility.yul\":17874:17883   */\n      dup7\n        /* \"#utility.yul\":17870:17889   */\n      add\n        /* \"#utility.yul\":17857:17890   */\n      calldataload\n        /* \"#utility.yul\":17917:17935   */\n      0xffffffffffffffff\n        /* \"#utility.yul\":17909:17915   */\n      dup2\n        /* \"#utility.yul\":17906:17936   */\n      gt\n        /* \"#utility.yul\":17903:18020   */\n      iszero\n      tag_567\n      jumpi\n        /* \"#utility.yul\":17939:18018   */\n      tag_568\n      tag_300\n      jump\t// in\n    tag_568:\n        /* \"#utility.yul\":17903:18020   */\n    tag_567:\n        /* \"#utility.yul\":18044:18106   */\n      tag_569\n        /* \"#utility.yul\":18098:18105   */\n      dup9\n        /* \"#utility.yul\":18089:18095   */\n      dup3\n        /* \"#utility.yul\":18078:18087   */\n      dup10\n        /* \"#utility.yul\":18074:18096   */\n      add\n        /* \"#utility.yul\":18044:18106   */\n      tag_348\n      jump\t// in\n    tag_569:\n        /* \"#utility.yul\":18034:18106   */\n      swap2\n      pop\n        /* \"#utility.yul\":17828:18116   */\n      pop\n        /* \"#utility.yul\":16614:18123   */\n      swap3\n      swap6\n      pop\n      swap3\n      swap6\n      swap1\n      swap4\n      pop\n      jump\t// out\n        /* \"#utility.yul\":18129:18244   */\n    tag_349:\n        /* \"#utility.yul\":18214:18237   */\n      tag_571\n        /* \"#utility.yul\":18231:18236   */\n      dup2\n        /* \"#utility.yul\":18214:18237   */\n      tag_301\n      jump\t// in\n    tag_571:\n        /* \"#utility.yul\":18209:18212   */\n      dup3\n        /* \"#utility.yul\":18202:18238   */\n      mstore\n        /* \"#utility.yul\":18129:18244   */\n      pop\n      pop\n      jump\t// out\n        /* \"#utility.yul\":18250:18468   */\n    tag_97:\n        /* \"#utility.yul\":18341:18345   */\n      0x00\n        /* \"#utility.yul\":18379:18381   */\n      0x20\n        /* \"#utility.yul\":18368:18377   */\n      dup3\n        /* \"#utility.yul\":18364:18382   */\n      add\n        /* \"#utility.yul\":18356:18382   */\n      swap1\n      pop\n        /* \"#utility.yul\":18392:18461   */\n      tag_573\n        /* \"#utility.yul\":18458:18459   */\n      0x00\n        /* \"#utility.yul\":18447:18456   */\n      dup4\n        /* \"#utility.yul\":18443:18460   */\n      add\n        /* \"#utility.yul\":18434:18440   */\n      dup5\n        /* \"#utility.yul\":18392:18461   */\n      tag_349\n      jump\t// in\n    tag_573:\n        /* \"#utility.yul\":18250:18468   */\n      swap3\n      swap2\n      pop\n      pop\n      jump\t// out\n        /* \"#utility.yul\":18474:18582   */\n    tag_350:\n        /* \"#utility.yul\":18556:18557   */\n      0x02\n        /* \"#utility.yul\":18549:18554   */\n      dup2\n        /* \"#utility.yul\":18546:18558   */\n      lt\n        /* \"#utility.yul\":18536:18576   */\n      tag_575\n      jumpi\n        /* \"#utility.yul\":18572:18573   */\n      0x00\n        /* \"#utility.yul\":18569:18570   */\n      dup1\n        /* \"#utility.yul\":18562:18574   */\n      revert\n        /* \"#utility.yul\":18536:18576   */\n    tag_575:\n        /* \"#utility.yul\":18474:18582   */\n      pop\n      jump\t// out\n        /* \"#utility.yul\":18588:18745   */\n    tag_351:\n        /* \"#utility.yul\":18643:18648   */\n      0x00\n        /* \"#utility.yul\":18681:18687   */\n      dup2\n        /* \"#utility.yul\":18668:18688   */\n      calldataload\n        /* \"#utility.yul\":18659:18688   */\n      swap1\n      pop\n        /* \"#utility.yul\":18697:18739   */\n      tag_577\n        /* \"#utility.yul\":18733:18738   */\n      dup2\n        /* \"#utility.yul\":18697:18739   */\n      tag_350\n      jump\t// in\n    tag_577:\n        /* \"#utility.yul\":18588:18745   */\n      swap3\n      swap2\n      pop\n      pop\n      jump\t// out\n        /* \"#utility.yul\":18751:19680   */\n    tag_100:\n        /* \"#utility.yul\":18855:18861   */\n      0x00\n        /* \"#utility.yul\":18863:18869   */\n      dup1\n        /* \"#utility.yul\":18871:18877   */\n      0x00\n        /* \"#utility.yul\":18879:18885   */\n      dup1\n        /* \"#utility.yul\":18887:18893   */\n      0x00\n        /* \"#utility.yul\":18936:18939   */\n      0xa0\n        /* \"#utility.yul\":18924:18933   */\n      dup7\n        /* \"#utility.yul\":18915:18922   */\n      dup9\n        /* \"#utility.yul\":18911:18934   */\n      sub\n        /* \"#utility.yul\":18907:18940   */\n      slt\n        /* \"#utility.yul\":18904:19024   */\n      iszero\n      tag_579\n      jumpi\n        /* \"#utility.yul\":18943:19022   */\n      tag_580\n      tag_299\n      jump\t// in\n    tag_580:\n        /* \"#utility.yul\":18904:19024   */\n    tag_579:\n        /* \"#utility.yul\":19063:19064   */\n      0x00\n        /* \"#utility.yul\":19088:19150   */\n      tag_581\n        /* \"#utility.yul\":19142:19149   */\n      dup9\n        /* \"#utility.yul\":19133:19139   */\n      dup3\n        /* \"#utility.yul\":19122:19131   */\n      dup10\n        /* \"#utility.yul\":19118:19140   */\n      add\n        /* \"#utility.yul\":19088:19150   */\n      tag_351\n      jump\t// in\n    tag_581:\n        /* \"#utility.yul\":19078:19150   */\n      swap6\n      pop\n        /* \"#utility.yul\":19034:19160   */\n      pop\n        /* \"#utility.yul\":19199:19201   */\n      0x20\n        /* \"#utility.yul\":19225:19278   */\n      tag_582\n        /* \"#utility.yul\":19270:19277   */\n      dup9\n        /* \"#utility.yul\":19261:19267   */\n      dup3\n        /* \"#utility.yul\":19250:19259   */\n      dup10\n        /* \"#utility.yul\":19246:19268   */\n      add\n        /* \"#utility.yul\":19225:19278   */\n      tag_326\n      jump\t// in\n    tag_582:\n        /* \"#utility.yul\":19215:19278   */\n      swap5\n      pop\n        /* \"#utility.yul\":19170:19288   */\n      pop\n        /* \"#utility.yul\":19327:19329   */\n      0x40\n        /* \"#utility.yul\":19353:19406   */\n      tag_583\n        /* \"#utility.yul\":19398:19405   */\n      dup9\n        /* \"#utility.yul\":19389:19395   */\n      dup3\n        /* \"#utility.yul\":19378:19387   */\n      dup10\n        /* \"#utility.yul\":19374:19396   */\n      add\n        /* \"#utility.yul\":19353:19406   */\n      tag_326\n      jump\t// in\n    tag_583:\n        /* \"#utility.yul\":19343:19406   */\n      swap4\n      pop\n        /* \"#utility.yul\":19298:19416   */\n      pop\n        /* \"#utility.yul\":19455:19457   */\n      0x60\n        /* \"#utility.yul\":19481:19534   */\n      tag_584\n        /* \"#utility.yul\":19526:19533   */\n      dup9\n        /* \"#utility.yul\":19517:19523   */\n      dup3\n        /* \"#utility.yul\":19506:19515   */\n      dup10\n        /* \"#utility.yul\":19502:19524   */\n      add\n        /* \"#utility.yul\":19481:19534   */\n      tag_326\n      jump\t// in\n    tag_584:\n        /* \"#utility.yul\":19471:19534   */\n      swap3\n      pop\n        /* \"#utility.yul\":19426:19544   */\n      pop\n        /* \"#utility.yul\":19583:19586   */\n      0x80\n        /* \"#utility.yul\":19610:19663   */\n      tag_585\n        /* \"#utility.yul\":19655:19662   */\n      dup9\n        /* \"#utility.yul\":19646:19652   */\n      dup3\n        /* \"#utility.yul\":19635:19644   */\n      dup10\n        /* \"#utility.yul\":19631:19653   */\n      add\n        /* \"#utility.yul\":19610:19663   */\n      tag_326\n      jump\t// in\n    tag_585:\n        /* \"#utility.yul\":19600:19663   */\n      swap2\n      pop\n        /* \"#utility.yul\":19554:19673   */\n      pop\n        /* \"#utility.yul\":18751:19680   */\n      swap3\n      swap6\n      pop\n      swap3\n      swap6\n      swap1\n      swap4\n      pop\n      jump\t// out\n        /* \"#utility.yul\":19686:20775   */\n    tag_107:\n        /* \"#utility.yul\":19790:19796   */\n      0x00\n        /* \"#utility.yul\":19798:19804   */\n      dup1\n        /* \"#utility.yul\":19806:19812   */\n      0x00\n        /* \"#utility.yul\":19814:19820   */\n      dup1\n        /* \"#utility.yul\":19822:19828   */\n      0x00\n        /* \"#utility.yul\":19871:19874   */\n      0xa0\n        /* \"#utility.yul\":19859:19868   */\n      dup7\n        /* \"#utility.yul\":19850:19857   */\n      dup9\n        /* \"#utility.yul\":19846:19869   */\n      sub\n        /* \"#utility.yul\":19842:19875   */\n      slt\n        /* \"#utility.yul\":19839:19959   */\n      iszero\n      tag_587\n      jumpi\n        /* \"#utility.yul\":19878:19957   */\n      tag_588\n      tag_299\n      jump\t// in\n    tag_588:\n        /* \"#utility.yul\":19839:19959   */\n    tag_587:\n        /* \"#utility.yul\":19998:19999   */\n      0x00\n        /* \"#utility.yul\":20023:20076   */\n      tag_589\n        /* \"#utility.yul\":20068:20075   */\n      dup9\n        /* \"#utility.yul\":20059:20065   */\n      dup3\n        /* \"#utility.yul\":20048:20057   */\n      dup10\n        /* \"#utility.yul\":20044:20066   */\n      add\n        /* \"#utility.yul\":20023:20076   */\n      tag_312\n      jump\t// in\n    tag_589:\n        /* \"#utility.yul\":20013:20076   */\n      swap6\n      pop\n        /* \"#utility.yul\":19969:20086   */\n      pop\n        /* \"#utility.yul\":20125:20127   */\n      0x20\n        /* \"#utility.yul\":20151:20204   */\n      tag_590\n        /* \"#utility.yul\":20196:20203   */\n      dup9\n        /* \"#utility.yul\":20187:20193   */\n      dup3\n        /* \"#utility.yul\":20176:20185   */\n      dup10\n        /* \"#utility.yul\":20172:20194   */\n      add\n        /* \"#utility.yul\":20151:20204   */\n      tag_312\n      jump\t// in\n    tag_590:\n        /* \"#utility.yul\":20141:20204   */\n      swap5\n      pop\n        /* \"#utility.yul\":20096:20214   */\n      pop\n        /* \"#utility.yul\":20253:20255   */\n      0x40\n        /* \"#utility.yul\":20279:20332   */\n      tag_591\n        /* \"#utility.yul\":20324:20331   */\n      dup9\n        /* \"#utility.yul\":20315:20321   */\n      dup3\n        /* \"#utility.yul\":20304:20313   */\n      dup10\n        /* \"#utility.yul\":20300:20322   */\n      add\n        /* \"#utility.yul\":20279:20332   */\n      tag_326\n      jump\t// in\n    tag_591:\n        /* \"#utility.yul\":20269:20332   */\n      swap4\n      pop\n        /* \"#utility.yul\":20224:20342   */\n      pop\n        /* \"#utility.yul\":20381:20383   */\n      0x60\n        /* \"#utility.yul\":20407:20460   */\n      tag_592\n        /* \"#utility.yul\":20452:20459   */\n      dup9\n        /* \"#utility.yul\":20443:20449   */\n      dup3\n        /* \"#utility.yul\":20432:20441   */\n      dup10\n        /* \"#utility.yul\":20428:20450   */\n      add\n        /* \"#utility.yul\":20407:20460   */\n      tag_326\n      jump\t// in\n    tag_592:\n        /* \"#utility.yul\":20397:20460   */\n      swap3\n      pop\n        /* \"#utility.yul\":20352:20470   */\n      pop\n        /* \"#utility.yul\":20537:20540   */\n      0x80\n        /* \"#utility.yul\":20526:20535   */\n      dup7\n        /* \"#utility.yul\":20522:20541   */\n      add\n        /* \"#utility.yul\":20509:20542   */\n      calldataload\n        /* \"#utility.yul\":20569:20587   */\n      0xffffffffffffffff\n        /* \"#utility.yul\":20561:20567   */\n      dup2\n        /* \"#utility.yul\":20558:20588   */\n      gt\n        /* \"#utility.yul\":20555:20672   */\n      iszero\n      tag_593\n      jumpi\n        /* \"#utility.yul\":20591:20670   */\n      tag_594\n      tag_300\n      jump\t// in\n    tag_594:\n        /* \"#utility.yul\":20555:20672   */\n    tag_593:\n        /* \"#utility.yul\":20696:20758   */\n      tag_595\n        /* \"#utility.yul\":20750:20757   */\n      dup9\n        /* \"#utility.yul\":20741:20747   */\n      dup3\n        /* \"#utility.yul\":20730:20739   */\n      dup10\n        /* \"#utility.yul\":20726:20748   */\n      add\n        /* \"#utility.yul\":20696:20758   */\n      tag_348\n      jump\t// in\n    tag_595:\n        /* \"#utility.yul\":20686:20758   */\n      swap2\n      pop\n        /* \"#utility.yul\":20480:20768   */\n      pop\n        /* \"#utility.yul\":19686:20775   */\n      swap3\n      swap6\n      pop\n      swap3\n      swap6\n      swap1\n      swap4\n      pop\n      jump\t// out\n        /* \"#utility.yul\":20781:21110   */\n    tag_115:\n        /* \"#utility.yul\":20840:20846   */\n      0x00\n        /* \"#utility.yul\":20889:20891   */\n      0x20\n        /* \"#utility.yul\":20877:20886   */\n      dup3\n        /* \"#utility.yul\":20868:20875   */\n      dup5\n        /* \"#utility.yul\":20864:20887   */\n      sub\n        /* \"#utility.yul\":20860:20892   */\n      slt\n        /* \"#utility.yul\":20857:20976   */\n      iszero\n      tag_597\n      jumpi\n        /* \"#utility.yul\":20895:20974   */\n      tag_598\n      tag_299\n      jump\t// in\n    tag_598:\n        /* \"#utility.yul\":20857:20976   */\n    tag_597:\n        /* \"#utility.yul\":21015:21016   */\n      0x00\n        /* \"#utility.yul\":21040:21093   */\n      tag_599\n        /* \"#utility.yul\":21085:21092   */\n      dup5\n        /* \"#utility.yul\":21076:21082   */\n      dup3\n        /* \"#utility.yul\":21065:21074   */\n      dup6\n        /* \"#utility.yul\":21061:21083   */\n      add\n        /* \"#utility.yul\":21040:21093   */\n      tag_326\n      jump\t// in\n    tag_599:\n        /* \"#utility.yul\":21030:21093   */\n      swap2\n      pop\n        /* \"#utility.yul\":20986:21103   */\n      pop\n        /* \"#utility.yul\":20781:21110   */\n      swap3\n      swap2\n      pop\n      pop\n      jump\t// out\n        /* \"#utility.yul\":21116:21231   */\n    tag_352:\n        /* \"#utility.yul\":21201:21224   */\n      tag_601\n        /* \"#utility.yul\":21218:21223   */\n      dup2\n        /* \"#utility.yul\":21201:21224   */\n      tag_306\n      jump\t// in\n    tag_601:\n        /* \"#utility.yul\":21196:21199   */\n      dup3\n        /* \"#utility.yul\":21189:21225   */\n      mstore\n        /* \"#utility.yul\":21116:21231   */\n      pop\n      pop\n      jump\t// out\n        /* \"#utility.yul\":21237:21455   */\n    tag_123:\n        /* \"#utility.yul\":21328:21332   */\n      0x00\n        /* \"#utility.yul\":21366:21368   */\n      0x20\n        /* \"#utility.yul\":21355:21364   */\n      dup3\n        /* \"#utility.yul\":21351:21369   */\n      add\n        /* \"#utility.yul\":21343:21369   */\n      swap1\n      pop\n        /* \"#utility.yul\":21379:21448   */\n      tag_603\n        /* \"#utility.yul\":21445:21446   */\n      0x00\n        /* \"#utility.yul\":21434:21443   */\n      dup4\n        /* \"#utility.yul\":21430:21447   */\n      add\n        /* \"#utility.yul\":21421:21427   */\n      dup5\n        /* \"#utility.yul\":21379:21448   */\n      tag_352\n      jump\t// in\n    tag_603:\n        /* \"#utility.yul\":21237:21455   */\n      swap3\n      swap2\n      pop\n      pop\n      jump\t// out\n        /* \"#utility.yul\":21461:21629   */\n    tag_353:\n        /* \"#utility.yul\":21544:21555   */\n      0x00\n        /* \"#utility.yul\":21578:21584   */\n      dup3\n        /* \"#utility.yul\":21573:21576   */\n      dup3\n        /* \"#utility.yul\":21566:21585   */\n      mstore\n        /* \"#utility.yul\":21618:21622   */\n      0x20\n        /* \"#utility.yul\":21613:21616   */\n      dup3\n        /* \"#utility.yul\":21609:21623   */\n      add\n        /* \"#utility.yul\":21594:21623   */\n      swap1\n      pop\n        /* \"#utility.yul\":21461:21629   */\n      swap3\n      swap2\n      pop\n      pop\n      jump\t// out\n        /* \"#utility.yul\":21635:21749   */\n    tag_354:\n      pop\n      jump\t// out\n        /* \"#utility.yul\":21755:22117   */\n    tag_355:\n        /* \"#utility.yul\":21896:21899   */\n      0x00\n        /* \"#utility.yul\":21917:21982   */\n      tag_607\n        /* \"#utility.yul\":21980:21981   */\n      0x00\n        /* \"#utility.yul\":21975:21978   */\n      dup4\n        /* \"#utility.yul\":21917:21982   */\n      tag_353\n      jump\t// in\n    tag_607:\n        /* \"#utility.yul\":21910:21982   */\n      swap2\n      pop\n        /* \"#utility.yul\":21991:22084   */\n      tag_608\n        /* \"#utility.yul\":22080:22083   */\n      dup3\n        /* \"#utility.yul\":21991:22084   */\n      tag_354\n      jump\t// in\n    tag_608:\n        /* \"#utility.yul\":22109:22110   */\n      0x00\n        /* \"#utility.yul\":22104:22107   */\n      dup3\n        /* \"#utility.yul\":22100:22111   */\n      add\n        /* \"#utility.yul\":22093:22111   */\n      swap1\n      pop\n        /* \"#utility.yul\":21755:22117   */\n      swap2\n      swap1\n      pop\n      jump\t// out\n        /* \"#utility.yul\":22123:22982   */\n    tag_138:\n        /* \"#utility.yul\":22400:22404   */\n      0x00\n        /* \"#utility.yul\":22438:22441   */\n      0xa0\n        /* \"#utility.yul\":22427:22436   */\n      dup3\n        /* \"#utility.yul\":22423:22442   */\n      add\n        /* \"#utility.yul\":22415:22442   */\n      swap1\n      pop\n        /* \"#utility.yul\":22452:22523   */\n      tag_610\n        /* \"#utility.yul\":22520:22521   */\n      0x00\n        /* \"#utility.yul\":22509:22518   */\n      dup4\n        /* \"#utility.yul\":22505:22522   */\n      add\n        /* \"#utility.yul\":22496:22502   */\n      dup8\n        /* \"#utility.yul\":22452:22523   */\n      tag_324\n      jump\t// in\n    tag_610:\n        /* \"#utility.yul\":22533:22605   */\n      tag_611\n        /* \"#utility.yul\":22601:22603   */\n      0x20\n        /* \"#utility.yul\":22590:22599   */\n      dup4\n        /* \"#utility.yul\":22586:22604   */\n      add\n        /* \"#utility.yul\":22577:22583   */\n      dup7\n        /* \"#utility.yul\":22533:22605   */\n      tag_324\n      jump\t// in\n    tag_611:\n        /* \"#utility.yul\":22615:22687   */\n      tag_612\n        /* \"#utility.yul\":22683:22685   */\n      0x40\n        /* \"#utility.yul\":22672:22681   */\n      dup4\n        /* \"#utility.yul\":22668:22686   */\n      add\n        /* \"#utility.yul\":22659:22665   */\n      dup6\n        /* \"#utility.yul\":22615:22687   */\n      tag_323\n      jump\t// in\n    tag_612:\n        /* \"#utility.yul\":22697:22769   */\n      tag_613\n        /* \"#utility.yul\":22765:22767   */\n      0x60\n        /* \"#utility.yul\":22754:22763   */\n      dup4\n        /* \"#utility.yul\":22750:22768   */\n      add\n        /* \"#utility.yul\":22741:22747   */\n      dup5\n        /* \"#utility.yul\":22697:22769   */\n      tag_323\n      jump\t// in\n    tag_613:\n        /* \"#utility.yul\":22817:22826   */\n      dup2\n        /* \"#utility.yul\":22811:22815   */\n      dup2\n        /* \"#utility.yul\":22807:22827   */\n      sub\n        /* \"#utility.yul\":22801:22804   */\n      0x80\n        /* \"#utility.yul\":22790:22799   */\n      dup4\n        /* \"#utility.yul\":22786:22805   */\n      add\n        /* \"#utility.yul\":22779:22828   */\n      mstore\n        /* \"#utility.yul\":22845:22975   */\n      tag_614\n        /* \"#utility.yul\":22970:22974   */\n      dup2\n        /* \"#utility.yul\":22845:22975   */\n      tag_355\n      jump\t// in\n    tag_614:\n        /* \"#utility.yul\":22837:22975   */\n      swap1\n      pop\n        /* \"#utility.yul\":22123:22982   */\n      swap6\n      swap5\n      pop\n      pop\n      pop\n      pop\n      pop\n      jump\t// out\n        /* \"#utility.yul\":22988:23320   */\n    tag_143:\n        /* \"#utility.yul\":23109:23113   */\n      0x00\n        /* \"#utility.yul\":23147:23149   */\n      0x40\n        /* \"#utility.yul\":23136:23145   */\n      dup3\n        /* \"#utility.yul\":23132:23150   */\n      add\n        /* \"#utility.yul\":23124:23150   */\n      swap1\n      pop\n        /* \"#utility.yul\":23160:23231   */\n      tag_616\n        /* \"#utility.yul\":23228:23229   */\n      0x00\n        /* \"#utility.yul\":23217:23226   */\n      dup4\n        /* \"#utility.yul\":23213:23230   */\n      add\n        /* \"#utility.yul\":23204:23210   */\n      dup6\n        /* \"#utility.yul\":23160:23231   */\n      tag_324\n      jump\t// in\n    tag_616:\n        /* \"#utility.yul\":23241:23313   */\n      tag_617\n        /* \"#utility.yul\":23309:23311   */\n      0x20\n        /* \"#utility.yul\":23298:23307   */\n      dup4\n        /* \"#utility.yul\":23294:23312   */\n      add\n        /* \"#utility.yul\":23285:23291   */\n      dup5\n        /* \"#utility.yul\":23241:23313   */\n      tag_323\n      jump\t// in\n    tag_617:\n        /* \"#utility.yul\":22988:23320   */\n      swap4\n      swap3\n      pop\n      pop\n      pop\n      jump\t// out\n        /* \"#utility.yul\":23326:23463   */\n    tag_356:\n        /* \"#utility.yul\":23380:23385   */\n      0x00\n        /* \"#utility.yul\":23411:23417   */\n      dup2\n        /* \"#utility.yul\":23405:23418   */\n      mload\n        /* \"#utility.yul\":23396:23418   */\n      swap1\n      pop\n        /* \"#utility.yul\":23427:23457   */\n      tag_619\n        /* \"#utility.yul\":23451:23456   */\n      dup2\n        /* \"#utility.yul\":23427:23457   */\n      tag_320\n      jump\t// in\n    tag_619:\n        /* \"#utility.yul\":23326:23463   */\n      swap3\n      swap2\n      pop\n      pop\n      jump\t// out\n        /* \"#utility.yul\":23469:23814   */\n    tag_147:\n        /* \"#utility.yul\":23536:23542   */\n      0x00\n        /* \"#utility.yul\":23585:23587   */\n      0x20\n        /* \"#utility.yul\":23573:23582   */\n      dup3\n        /* \"#utility.yul\":23564:23571   */\n      dup5\n        /* \"#utility.yul\":23560:23583   */\n      sub\n        /* \"#utility.yul\":23556:23588   */\n      slt\n        /* \"#utility.yul\":23553:23672   */\n      iszero\n      tag_621\n      jumpi\n        /* \"#utility.yul\":23591:23670   */\n      tag_622\n      tag_299\n      jump\t// in\n    tag_622:\n        /* \"#utility.yul\":23553:23672   */\n    tag_621:\n        /* \"#utility.yul\":23711:23712   */\n      0x00\n        /* \"#utility.yul\":23736:23797   */\n      tag_623\n        /* \"#utility.yul\":23789:23796   */\n      dup5\n        /* \"#utility.yul\":23780:23786   */\n      dup3\n        /* \"#utility.yul\":23769:23778   */\n      dup6\n        /* \"#utility.yul\":23765:23787   */\n      add\n        /* \"#utility.yul\":23736:23797   */\n      tag_356\n      jump\t// in\n    tag_623:\n        /* \"#utility.yul\":23726:23797   */\n      swap2\n      pop\n        /* \"#utility.yul\":23682:23807   */\n      pop\n        /* \"#utility.yul\":23469:23814   */\n      swap3\n      swap2\n      pop\n      pop\n      jump\t// out\n        /* \"#utility.yul\":23820:24148   */\n    tag_149:\n        /* \"#utility.yul\":23939:23943   */\n      0x00\n        /* \"#utility.yul\":23977:23979   */\n      0x40\n        /* \"#utility.yul\":23966:23975   */\n      dup3\n        /* \"#utility.yul\":23962:23980   */\n      add\n        /* \"#utility.yul\":23954:23980   */\n      swap1\n      pop\n        /* \"#utility.yul\":23990:24059   */\n      tag_625\n        /* \"#utility.yul\":24056:24057   */\n      0x00\n        /* \"#utility.yul\":24045:24054   */\n      dup4\n        /* \"#utility.yul\":24041:24058   */\n      add\n        /* \"#utility.yul\":24032:24038   */\n      dup6\n        /* \"#utility.yul\":23990:24059   */\n      tag_352\n      jump\t// in\n    tag_625:\n        /* \"#utility.yul\":24069:24141   */\n      tag_626\n        /* \"#utility.yul\":24137:24139   */\n      0x20\n        /* \"#utility.yul\":24126:24135   */\n      dup4\n        /* \"#utility.yul\":24122:24140   */\n      add\n        /* \"#utility.yul\":24113:24119   */\n      dup5\n        /* \"#utility.yul\":24069:24141   */\n      tag_323\n      jump\t// in\n    tag_626:\n        /* \"#utility.yul\":23820:24148   */\n      swap4\n      swap3\n      pop\n      pop\n      pop\n      jump\t// out\n        /* \"#utility.yul\":24154:24323   */\n    tag_357:\n        /* \"#utility.yul\":24238:24249   */\n      0x00\n        /* \"#utility.yul\":24272:24278   */\n      dup3\n        /* \"#utility.yul\":24267:24270   */\n      dup3\n        /* \"#utility.yul\":24260:24279   */\n      mstore\n        /* \"#utility.yul\":24312:24316   */\n      0x20\n        /* \"#utility.yul\":24307:24310   */\n      dup3\n        /* \"#utility.yul\":24303:24317   */\n      add\n        /* \"#utility.yul\":24288:24317   */\n      swap1\n      pop\n        /* \"#utility.yul\":24154:24323   */\n      swap3\n      swap2\n      pop\n      pop\n      jump\t// out\n        /* \"#utility.yul\":24329:24550   */\n    tag_358:\n        /* \"#utility.yul\":24469:24503   */\n      0x41646d696e61626c653a2063616c6c6572206973206e6f7420746865206f776e\n        /* \"#utility.yul\":24465:24466   */\n      0x00\n        /* \"#utility.yul\":24457:24463   */\n      dup3\n        /* \"#utility.yul\":24453:24467   */\n      add\n        /* \"#utility.yul\":24446:24504   */\n      mstore\n        /* \"#utility.yul\":24538:24542   */\n      0x6572000000000000000000000000000000000000000000000000000000000000\n        /* \"#utility.yul\":24533:24535   */\n      0x20\n        /* \"#utility.yul\":24525:24531   */\n      dup3\n        /* \"#utility.yul\":24521:24536   */\n      add\n        /* \"#utility.yul\":24514:24543   */\n      mstore\n        /* \"#utility.yul\":24329:24550   */\n      pop\n      jump\t// out\n        /* \"#utility.yul\":24556:24922   */\n    tag_359:\n        /* \"#utility.yul\":24698:24701   */\n      0x00\n        /* \"#utility.yul\":24719:24786   */\n      tag_630\n        /* \"#utility.yul\":24783:24785   */\n      0x22\n        /* \"#utility.yul\":24778:24781   */\n      dup4\n        /* \"#utility.yul\":24719:24786   */\n      tag_357\n      jump\t// in\n    tag_630:\n        /* \"#utility.yul\":24712:24786   */\n      swap2\n      pop\n        /* \"#utility.yul\":24795:24888   */\n      tag_631\n        /* \"#utility.yul\":24884:24887   */\n      dup3\n        /* \"#utility.yul\":24795:24888   */\n      tag_358\n      jump\t// in\n    tag_631:\n        /* \"#utility.yul\":24913:24915   */\n      0x40\n        /* \"#utility.yul\":24908:24911   */\n      dup3\n        /* \"#utility.yul\":24904:24916   */\n      add\n        /* \"#utility.yul\":24897:24916   */\n      swap1\n      pop\n        /* \"#utility.yul\":24556:24922   */\n      swap2\n      swap1\n      pop\n      jump\t// out\n        /* \"#utility.yul\":24928:25347   */\n    tag_159:\n        /* \"#utility.yul\":25094:25098   */\n      0x00\n        /* \"#utility.yul\":25132:25134   */\n      0x20\n        /* \"#utility.yul\":25121:25130   */\n      dup3\n        /* \"#utility.yul\":25117:25135   */\n      add\n        /* \"#utility.yul\":25109:25135   */\n      swap1\n      pop\n        /* \"#utility.yul\":25181:25190   */\n      dup2\n        /* \"#utility.yul\":25175:25179   */\n      dup2\n        /* \"#utility.yul\":25171:25191   */\n      sub\n        /* \"#utility.yul\":25167:25168   */\n      0x00\n        /* \"#utility.yul\":25156:25165   */\n      dup4\n        /* \"#utility.yul\":25152:25169   */\n      add\n        /* \"#utility.yul\":25145:25192   */\n      mstore\n        /* \"#utility.yul\":25209:25340   */\n      tag_633\n        /* \"#utility.yul\":25335:25339   */\n      dup2\n        /* \"#utility.yul\":25209:25340   */\n      tag_359\n      jump\t// in\n    tag_633:\n        /* \"#utility.yul\":25201:25340   */\n      swap1\n      pop\n        /* \"#utility.yul\":24928:25347   */\n      swap2\n      swap1\n      pop\n      jump\t// out\n        /* \"#utility.yul\":25353:25661   */\n    tag_162:\n        /* \"#utility.yul\":25462:25466   */\n      0x00\n        /* \"#utility.yul\":25500:25502   */\n      0x40\n        /* \"#utility.yul\":25489:25498   */\n      dup3\n        /* \"#utility.yul\":25485:25503   */\n      add\n        /* \"#utility.yul\":25477:25503   */\n      swap1\n      pop\n        /* \"#utility.yul\":25513:25578   */\n      tag_635\n        /* \"#utility.yul\":25575:25576   */\n      0x00\n        /* \"#utility.yul\":25564:25573   */\n      dup4\n        /* \"#utility.yul\":25560:25577   */\n      add\n        /* \"#utility.yul\":25551:25557   */\n      dup6\n        /* \"#utility.yul\":25513:25578   */\n      tag_305\n      jump\t// in\n    tag_635:\n        /* \"#utility.yul\":25588:25654   */\n      tag_636\n        /* \"#utility.yul\":25650:25652   */\n      0x20\n        /* \"#utility.yul\":25639:25648   */\n      dup4\n        /* \"#utility.yul\":25635:25653   */\n      add\n        /* \"#utility.yul\":25626:25632   */\n      dup5\n        /* \"#utility.yul\":25588:25654   */\n      tag_305\n      jump\t// in\n    tag_636:\n        /* \"#utility.yul\":25353:25661   */\n      swap4\n      swap3\n      pop\n      pop\n      pop\n      jump\t// out\n        /* \"#utility.yul\":25667:25847   */\n    tag_360:\n        /* \"#utility.yul\":25715:25792   */\n      0x4e487b7100000000000000000000000000000000000000000000000000000000\n        /* \"#utility.yul\":25712:25713   */\n      0x00\n        /* \"#utility.yul\":25705:25793   */\n      mstore\n        /* \"#utility.yul\":25812:25816   */\n      0x11\n        /* \"#utility.yul\":25809:25810   */\n      0x04\n        /* \"#utility.yul\":25802:25817   */\n      mstore\n        /* \"#utility.yul\":25836:25840   */\n      0x24\n        /* \"#utility.yul\":25833:25834   */\n      0x00\n        /* \"#utility.yul\":25826:25841   */\n      revert\n        /* \"#utility.yul\":25853:26201   */\n    tag_173:\n        /* \"#utility.yul\":25893:25900   */\n      0x00\n        /* \"#utility.yul\":25916:25936   */\n      tag_639\n        /* \"#utility.yul\":25934:25935   */\n      dup3\n        /* \"#utility.yul\":25916:25936   */\n      tag_322\n      jump\t// in\n    tag_639:\n        /* \"#utility.yul\":25911:25936   */\n      swap2\n      pop\n        /* \"#utility.yul\":25950:25970   */\n      tag_640\n        /* \"#utility.yul\":25968:25969   */\n      dup4\n        /* \"#utility.yul\":25950:25970   */\n      tag_322\n      jump\t// in\n    tag_640:\n        /* \"#utility.yul\":25945:25970   */\n      swap3\n      pop\n        /* \"#utility.yul\":26138:26139   */\n      dup2\n        /* \"#utility.yul\":26070:26136   */\n      0xffffffffffffffffffffffffffffffffffffffffffffffffffffffffffffffff\n        /* \"#utility.yul\":26066:26140   */\n      div\n        /* \"#utility.yul\":26063:26064   */\n      dup4\n        /* \"#utility.yul\":26060:26141   */\n      gt\n        /* \"#utility.yul\":26055:26056   */\n      dup3\n        /* \"#utility.yul\":26048:26057   */\n      iszero\n        /* \"#utility.yul\":26041:26058   */\n      iszero\n        /* \"#utility.yul\":26037:26142   */\n      and\n        /* \"#utility.yul\":26034:26165   */\n      iszero\n      tag_641\n      jumpi\n        /* \"#utility.yul\":26145:26163   */\n      tag_642\n      tag_360\n      jump\t// in\n    tag_642:\n        /* \"#utility.yul\":26034:26165   */\n    tag_641:\n        /* \"#utility.yul\":26193:26194   */\n      dup3\n        /* \"#utility.yul\":26190:26191   */\n      dup3\n        /* \"#utility.yul\":26186:26195   */\n      mul\n        /* \"#utility.yul\":26175:26195   */\n      swap1\n      pop\n        /* \"#utility.yul\":25853:26201   */\n      swap3\n      swap2\n      pop\n      pop\n      jump\t// out\n        /* \"#utility.yul\":26207:26387   */\n    tag_361:\n        /* \"#utility.yul\":26255:26332   */\n      0x4e487b7100000000000000000000000000000000000000000000000000000000\n        /* \"#utility.yul\":26252:26253   */\n      0x00\n        /* \"#utility.yul\":26245:26333   */\n      mstore\n        /* \"#utility.yul\":26352:26356   */\n      0x12\n        /* \"#utility.yul\":26349:26350   */\n      0x04\n        /* \"#utility.yul\":26342:26357   */\n      mstore\n        /* \"#utility.yul\":26376:26380   */\n      0x24\n        /* \"#utility.yul\":26373:26374   */\n      0x00\n        /* \"#utility.yul\":26366:26381   */\n      revert\n        /* \"#utility.yul\":26393:26578   */\n    tag_176:\n        /* \"#utility.yul\":26433:26434   */\n      0x00\n        /* \"#utility.yul\":26450:26470   */\n      tag_645\n        /* \"#utility.yul\":26468:26469   */\n      dup3\n        /* \"#utility.yul\":26450:26470   */\n      tag_322\n      jump\t// in\n    tag_645:\n        /* \"#utility.yul\":26445:26470   */\n      swap2\n      pop\n        /* \"#utility.yul\":26484:26504   */\n      tag_646\n        /* \"#utility.yul\":26502:26503   */\n      dup4\n        /* \"#utility.yul\":26484:26504   */\n      tag_322\n      jump\t// in\n    tag_646:\n        /* \"#utility.yul\":26479:26504   */\n      swap3\n      pop\n        /* \"#utility.yul\":26523:26524   */\n      dup3\n        /* \"#utility.yul\":26513:26548   */\n      tag_647\n      jumpi\n        /* \"#utility.yul\":26528:26546   */\n      tag_648\n      tag_361\n      jump\t// in\n    tag_648:\n        /* \"#utility.yul\":26513:26548   */\n    tag_647:\n        /* \"#utility.yul\":26570:26571   */\n      dup3\n        /* \"#utility.yul\":26567:26568   */\n      dup3\n        /* \"#utility.yul\":26563:26572   */\n      div\n        /* \"#utility.yul\":26558:26572   */\n      swap1\n      pop\n        /* \"#utility.yul\":26393:26578   */\n      swap3\n      swap2\n      pop\n      pop\n      jump\t// out\n        /* \"#utility.yul\":26584:26748   */\n    tag_362:\n        /* \"#utility.yul\":26724:26740   */\n      0x416d6f756e74206973207a65726f000000000000000000000000000000000000\n        /* \"#utility.yul\":26720:26721   */\n      0x00\n        /* \"#utility.yul\":26712:26718   */\n      dup3\n        /* \"#utility.yul\":26708:26722   */\n      add\n        /* \"#utility.yul\":26701:26741   */\n      mstore\n        /* \"#utility.yul\":26584:26748   */\n      pop\n      jump\t// out\n        /* \"#utility.yul\":26754:27120   */\n    tag_363:\n        /* \"#utility.yul\":26896:26899   */\n      0x00\n        /* \"#utility.yul\":26917:26984   */\n      tag_651\n        /* \"#utility.yul\":26981:26983   */\n      0x0e\n        /* \"#utility.yul\":26976:26979   */\n      dup4\n        /* \"#utility.yul\":26917:26984   */\n      tag_357\n      jump\t// in\n    tag_651:\n        /* \"#utility.yul\":26910:26984   */\n      swap2\n      pop\n        /* \"#utility.yul\":26993:27086   */\n      tag_652\n        /* \"#utility.yul\":27082:27085   */\n      dup3\n        /* \"#utility.yul\":26993:27086   */\n      tag_362\n      jump\t// in\n    tag_652:\n        /* \"#utility.yul\":27111:27113   */\n      0x20\n        /* \"#utility.yul\":27106:27109   */\n      dup3\n        /* \"#utility.yul\":27102:27114   */\n      add\n        /* \"#utility.yul\":27095:27114   */\n      swap1\n      pop\n        /* \"#utility.yul\":26754:27120   */\n      swap2\n      swap1\n      pop\n      jump\t// out\n        /* \"#utility.yul\":27126:27545   */\n    tag_181:\n        /* \"#utility.yul\":27292:27296   */\n      0x00\n        /* \"#utility.yul\":27330:27332   */\n      0x20\n        /* \"#utility.yul\":27319:27328   */\n      dup3\n        /* \"#utility.yul\":27315:27333   */\n      add\n        /* \"#utility.yul\":27307:27333   */\n      swap1\n      pop\n        /* \"#utility.yul\":27379:27388   */\n      dup2\n        /* \"#utility.yul\":27373:27377   */\n      dup2\n        /* \"#utility.yul\":27369:27389   */\n      sub\n        /* \"#utility.yul\":27365:27366   */\n      0x00\n        /* \"#utility.yul\":27354:27363   */\n      dup4\n        /* \"#utility.yul\":27350:27367   */\n      add\n        /* \"#utility.yul\":27343:27390   */\n      mstore\n        /* \"#utility.yul\":27407:27538   */\n      tag_654\n        /* \"#utility.yul\":27533:27537   */\n      dup2\n        /* \"#utility.yul\":27407:27538   */\n      tag_363\n      jump\t// in\n    tag_654:\n        /* \"#utility.yul\":27399:27538   */\n      swap1\n      pop\n        /* \"#utility.yul\":27126:27545   */\n      swap2\n      swap1\n      pop\n      jump\t// out\n        /* \"#utility.yul\":27551:27709   */\n    tag_364:\n        /* \"#utility.yul\":27691:27701   */\n      0x4964206572726f72000000000000000000000000000000000000000000000000\n        /* \"#utility.yul\":27687:27688   */\n      0x00\n        /* \"#utility.yul\":27679:27685   */\n      dup3\n        /* \"#utility.yul\":27675:27689   */\n      add\n        /* \"#utility.yul\":27668:27702   */\n      mstore\n        /* \"#utility.yul\":27551:27709   */\n      pop\n      jump\t// out\n        /* \"#utility.yul\":27715:28080   */\n    tag_365:\n        /* \"#utility.yul\":27857:27860   */\n      0x00\n        /* \"#utility.yul\":27878:27944   */\n      tag_657\n        /* \"#utility.yul\":27942:27943   */\n      0x08\n        /* \"#utility.yul\":27937:27940   */\n      dup4\n        /* \"#utility.yul\":27878:27944   */\n      tag_357\n      jump\t// in\n    tag_657:\n        /* \"#utility.yul\":27871:27944   */\n      swap2\n      pop\n        /* \"#utility.yul\":27953:28046   */\n      tag_658\n        /* \"#utility.yul\":28042:28045   */\n      dup3\n        /* \"#utility.yul\":27953:28046   */\n      tag_364\n      jump\t// in\n    tag_658:\n        /* \"#utility.yul\":28071:28073   */\n      0x20\n        /* \"#utility.yul\":28066:28069   */\n      dup3\n        /* \"#utility.yul\":28062:28074   */\n      add\n        /* \"#utility.yul\":28055:28074   */\n      swap1\n      pop\n        /* \"#utility.yul\":27715:28080   */\n      swap2\n      swap1\n      pop\n      jump\t// out\n        /* \"#utility.yul\":28086:28505   */\n    tag_188:\n        /* \"#utility.yul\":28252:28256   */\n      0x00\n        /* \"#utility.yul\":28290:28292   */\n      0x20\n        /* \"#utility.yul\":28279:28288   */\n      dup3\n        /* \"#utility.yul\":28275:28293   */\n      add\n        /* \"#utility.yul\":28267:28293   */\n      swap1\n      pop\n        /* \"#utility.yul\":28339:28348   */\n      dup2\n        /* \"#utility.yul\":28333:28337   */\n      dup2\n        /* \"#utility.yul\":28329:28349   */\n      sub\n        /* \"#utility.yul\":28325:28326   */\n      0x00\n        /* \"#utility.yul\":28314:28323   */\n      dup4\n        /* \"#utility.yul\":28310:28327   */\n      add\n        /* \"#utility.yul\":28303:28350   */\n      mstore\n        /* \"#utility.yul\":28367:28498   */\n      tag_660\n        /* \"#utility.yul\":28493:28497   */\n      dup2\n        /* \"#utility.yul\":28367:28498   */\n      tag_365\n      jump\t// in\n    tag_660:\n        /* \"#utility.yul\":28359:28498   */\n      swap1\n      pop\n        /* \"#utility.yul\":28086:28505   */\n      swap2\n      swap1\n      pop\n      jump\t// out\n        /* \"#utility.yul\":28511:28680   */\n    tag_366:\n        /* \"#utility.yul\":28651:28672   */\n      0x4368616c6c656e6765206e6f7420737461727400000000000000000000000000\n        /* \"#utility.yul\":28647:28648   */\n      0x00\n        /* \"#utility.yul\":28639:28645   */\n      dup3\n        /* \"#utility.yul\":28635:28649   */\n      add\n        /* \"#utility.yul\":28628:28673   */\n      mstore\n        /* \"#utility.yul\":28511:28680   */\n      pop\n      jump\t// out\n        /* \"#utility.yul\":28686:29052   */\n    tag_367:\n        /* \"#utility.yul\":28828:28831   */\n      0x00\n        /* \"#utility.yul\":28849:28916   */\n      tag_663\n        /* \"#utility.yul\":28913:28915   */\n      0x13\n        /* \"#utility.yul\":28908:28911   */\n      dup4\n        /* \"#utility.yul\":28849:28916   */\n      tag_357\n      jump\t// in\n    tag_663:\n        /* \"#utility.yul\":28842:28916   */\n      swap2\n      pop\n        /* \"#utility.yul\":28925:29018   */\n      tag_664\n        /* \"#utility.yul\":29014:29017   */\n      dup3\n        /* \"#utility.yul\":28925:29018   */\n      tag_366\n      jump\t// in\n    tag_664:\n        /* \"#utility.yul\":29043:29045   */\n      0x20\n        /* \"#utility.yul\":29038:29041   */\n      dup3\n        /* \"#utility.yul\":29034:29046   */\n      add\n        /* \"#utility.yul\":29027:29046   */\n      swap1\n      pop\n        /* \"#utility.yul\":28686:29052   */\n      swap2\n      swap1\n      pop\n      jump\t// out\n        /* \"#utility.yul\":29058:29477   */\n    tag_191:\n        /* \"#utility.yul\":29224:29228   */\n      0x00\n        /* \"#utility.yul\":29262:29264   */\n      0x20\n        /* \"#utility.yul\":29251:29260   */\n      dup3\n        /* \"#utility.yul\":29247:29265   */\n      add\n        /* \"#utility.yul\":29239:29265   */\n      swap1\n      pop\n        /* \"#utility.yul\":29311:29320   */\n      dup2\n        /* \"#utility.yul\":29305:29309   */\n      dup2\n        /* \"#utility.yul\":29301:29321   */\n      sub\n        /* \"#utility.yul\":29297:29298   */\n      0x00\n        /* \"#utility.yul\":29286:29295   */\n      dup4\n        /* \"#utility.yul\":29282:29299   */\n      add\n        /* \"#utility.yul\":29275:29322   */\n      mstore\n        /* \"#utility.yul\":29339:29470   */\n      tag_666\n        /* \"#utility.yul\":29465:29469   */\n      dup2\n        /* \"#utility.yul\":29339:29470   */\n      tag_367\n      jump\t// in\n    tag_666:\n        /* \"#utility.yul\":29331:29470   */\n      swap1\n      pop\n        /* \"#utility.yul\":29058:29477   */\n      swap2\n      swap1\n      pop\n      jump\t// out\n        /* \"#utility.yul\":29483:29658   */\n    tag_368:\n        /* \"#utility.yul\":29623:29650   */\n      0x546f6b656e206964206e6f7420696e206368616c6c656e676500000000000000\n        /* \"#utility.yul\":29619:29620   */\n      0x00\n        /* \"#utility.yul\":29611:29617   */\n      dup3\n        /* \"#utility.yul\":29607:29621   */\n      add\n        /* \"#utility.yul\":29600:29651   */\n      mstore\n        /* \"#utility.yul\":29483:29658   */\n      pop\n      jump\t// out\n        /* \"#utility.yul\":29664:30030   */\n    tag_369:\n        /* \"#utility.yul\":29806:29809   */\n      0x00\n        /* \"#utility.yul\":29827:29894   */\n      tag_669\n        /* \"#utility.yul\":29891:29893   */\n      0x19\n        /* \"#utility.yul\":29886:29889   */\n      dup4\n        /* \"#utility.yul\":29827:29894   */\n      tag_357\n      jump\t// in\n    tag_669:\n        /* \"#utility.yul\":29820:29894   */\n      swap2\n      pop\n        /* \"#utility.yul\":29903:29996   */\n      tag_670\n        /* \"#utility.yul\":29992:29995   */\n      dup3\n        /* \"#utility.yul\":29903:29996   */\n      tag_368\n      jump\t// in\n    tag_670:\n        /* \"#utility.yul\":30021:30023   */\n      0x20\n        /* \"#utility.yul\":30016:30019   */\n      dup3\n        /* \"#utility.yul\":30012:30024   */\n      add\n        /* \"#utility.yul\":30005:30024   */\n      swap1\n      pop\n        /* \"#utility.yul\":29664:30030   */\n      swap2\n      swap1\n      pop\n      jump\t// out\n        /* \"#utility.yul\":30036:30455   */\n    tag_195:\n        /* \"#utility.yul\":30202:30206   */\n      0x00\n        /* \"#utility.yul\":30240:30242   */\n      0x20\n        /* \"#utility.yul\":30229:30238   */\n      dup3\n        /* \"#utility.yul\":30225:30243   */\n      add\n        /* \"#utility.yul\":30217:30243   */\n      swap1\n      pop\n        /* \"#utility.yul\":30289:30298   */\n      dup2\n        /* \"#utility.yul\":30283:30287   */\n      dup2\n        /* \"#utility.yul\":30279:30299   */\n      sub\n        /* \"#utility.yul\":30275:30276   */\n      0x00\n        /* \"#utility.yul\":30264:30273   */\n      dup4\n        /* \"#utility.yul\":30260:30277   */\n      add\n        /* \"#utility.yul\":30253:30300   */\n      mstore\n        /* \"#utility.yul\":30317:30448   */\n      tag_672\n        /* \"#utility.yul\":30443:30447   */\n      dup2\n        /* \"#utility.yul\":30317:30448   */\n      tag_369\n      jump\t// in\n    tag_672:\n        /* \"#utility.yul\":30309:30448   */\n      swap1\n      pop\n        /* \"#utility.yul\":30036:30455   */\n      swap2\n      swap1\n      pop\n      jump\t// out\n        /* \"#utility.yul\":30461:30766   */\n    tag_203:\n        /* \"#utility.yul\":30501:30504   */\n      0x00\n        /* \"#utility.yul\":30520:30540   */\n      tag_674\n        /* \"#utility.yul\":30538:30539   */\n      dup3\n        /* \"#utility.yul\":30520:30540   */\n      tag_322\n      jump\t// in\n    tag_674:\n        /* \"#utility.yul\":30515:30540   */\n      swap2\n      pop\n        /* \"#utility.yul\":30554:30574   */\n      tag_675\n        /* \"#utility.yul\":30572:30573   */\n      dup4\n        /* \"#utility.yul\":30554:30574   */\n      tag_322\n      jump\t// in\n    tag_675:\n        /* \"#utility.yul\":30549:30574   */\n      swap3\n      pop\n        /* \"#utility.yul\":30708:30709   */\n      dup3\n        /* \"#utility.yul\":30640:30706   */\n      0xffffffffffffffffffffffffffffffffffffffffffffffffffffffffffffffff\n        /* \"#utility.yul\":30636:30710   */\n      sub\n        /* \"#utility.yul\":30633:30634   */\n      dup3\n        /* \"#utility.yul\":30630:30711   */\n      gt\n        /* \"#utility.yul\":30627:30734   */\n      iszero\n      tag_676\n      jumpi\n        /* \"#utility.yul\":30714:30732   */\n      tag_677\n      tag_360\n      jump\t// in\n    tag_677:\n        /* \"#utility.yul\":30627:30734   */\n    tag_676:\n        /* \"#utility.yul\":30758:30759   */\n      dup3\n        /* \"#utility.yul\":30755:30756   */\n      dup3\n        /* \"#utility.yul\":30751:30760   */\n      add\n        /* \"#utility.yul\":30744:30760   */\n      swap1\n      pop\n        /* \"#utility.yul\":30461:30766   */\n      swap3\n      swap2\n      pop\n      pop\n      jump\t// out\n        /* \"#utility.yul\":30772:30993   */\n    tag_370:\n        /* \"#utility.yul\":30912:30946   */\n      0x41646d696e61626c653a2063616c6c6572206973206e6f74207468652061646d\n        /* \"#utility.yul\":30908:30909   */\n      0x00\n        /* \"#utility.yul\":30900:30906   */\n      dup3\n        /* \"#utility.yul\":30896:30910   */\n      add\n        /* \"#utility.yul\":30889:30947   */\n      mstore\n        /* \"#utility.yul\":30981:30985   */\n      0x696e000000000000000000000000000000000000000000000000000000000000\n        /* \"#utility.yul\":30976:30978   */\n      0x20\n        /* \"#utility.yul\":30968:30974   */\n      dup3\n        /* \"#utility.yul\":30964:30979   */\n      add\n        /* \"#utility.yul\":30957:30986   */\n      mstore\n        /* \"#utility.yul\":30772:30993   */\n      pop\n      jump\t// out\n        /* \"#utility.yul\":30999:31365   */\n    tag_371:\n        /* \"#utility.yul\":31141:31144   */\n      0x00\n        /* \"#utility.yul\":31162:31229   */\n      tag_680\n        /* \"#utility.yul\":31226:31228   */\n      0x22\n        /* \"#utility.yul\":31221:31224   */\n      dup4\n        /* \"#utility.yul\":31162:31229   */\n      tag_357\n      jump\t// in\n    tag_680:\n        /* \"#utility.yul\":31155:31229   */\n      swap2\n      pop\n        /* \"#utility.yul\":31238:31331   */\n      tag_681\n        /* \"#utility.yul\":31327:31330   */\n      dup3\n        /* \"#utility.yul\":31238:31331   */\n      tag_370\n      jump\t// in\n    tag_681:\n        /* \"#utility.yul\":31356:31358   */\n      0x40\n        /* \"#utility.yul\":31351:31354   */\n      dup3\n        /* \"#utility.yul\":31347:31359   */\n      add\n        /* \"#utility.yul\":31340:31359   */\n      swap1\n      pop\n        /* \"#utility.yul\":30999:31365   */\n      swap2\n      swap1\n      pop\n      jump\t// out\n        /* \"#utility.yul\":31371:31790   */\n    tag_244:\n        /* \"#utility.yul\":31537:31541   */\n      0x00\n        /* \"#utility.yul\":31575:31577   */\n      0x20\n        /* \"#utility.yul\":31564:31573   */\n      dup3\n        /* \"#utility.yul\":31560:31578   */\n      add\n        /* \"#utility.yul\":31552:31578   */\n      swap1\n      pop\n        /* \"#utility.yul\":31624:31633   */\n      dup2\n        /* \"#utility.yul\":31618:31622   */\n      dup2\n        /* \"#utility.yul\":31614:31634   */\n      sub\n        /* \"#utility.yul\":31610:31611   */\n      0x00\n        /* \"#utility.yul\":31599:31608   */\n      dup4\n        /* \"#utility.yul\":31595:31612   */\n      add\n        /* \"#utility.yul\":31588:31635   */\n      mstore\n        /* \"#utility.yul\":31652:31783   */\n      tag_683\n        /* \"#utility.yul\":31778:31782   */\n      dup2\n        /* \"#utility.yul\":31652:31783   */\n      tag_371\n      jump\t// in\n    tag_683:\n        /* \"#utility.yul\":31644:31783   */\n      swap1\n      pop\n        /* \"#utility.yul\":31371:31790   */\n      swap2\n      swap1\n      pop\n      jump\t// out\n        /* \"#utility.yul\":31796:31966   */\n    tag_372:\n        /* \"#utility.yul\":31936:31958   */\n      0x496e76616c6964206368616c6c656e6765206964000000000000000000000000\n        /* \"#utility.yul\":31932:31933   */\n      0x00\n        /* \"#utility.yul\":31924:31930   */\n      dup3\n        /* \"#utility.yul\":31920:31934   */\n      add\n        /* \"#utility.yul\":31913:31959   */\n      mstore\n        /* \"#utility.yul\":31796:31966   */\n      pop\n      jump\t// out\n        /* \"#utility.yul\":31972:32338   */\n    tag_373:\n        /* \"#utility.yul\":32114:32117   */\n      0x00\n        /* \"#utility.yul\":32135:32202   */\n      tag_686\n        /* \"#utility.yul\":32199:32201   */\n      0x14\n        /* \"#utility.yul\":32194:32197   */\n      dup4\n        /* \"#utility.yul\":32135:32202   */\n      tag_357\n      jump\t// in\n    tag_686:\n        /* \"#utility.yul\":32128:32202   */\n      swap2\n      pop\n        /* \"#utility.yul\":32211:32304   */\n      tag_687\n        /* \"#utility.yul\":32300:32303   */\n      dup3\n        /* \"#utility.yul\":32211:32304   */\n      tag_372\n      jump\t// in\n    tag_687:\n        /* \"#utility.yul\":32329:32331   */\n      0x20\n        /* \"#utility.yul\":32324:32327   */\n      dup3\n        /* \"#utility.yul\":32320:32332   */\n      add\n        /* \"#utility.yul\":32313:32332   */\n      swap1\n      pop\n        /* \"#utility.yul\":31972:32338   */\n      swap2\n      swap1\n      pop\n      jump\t// out\n        /* \"#utility.yul\":32344:32763   */\n    tag_252:\n        /* \"#utility.yul\":32510:32514   */\n      0x00\n        /* \"#utility.yul\":32548:32550   */\n      0x20\n        /* \"#utility.yul\":32537:32546   */\n      dup3\n        /* \"#utility.yul\":32533:32551   */\n      add\n        /* \"#utility.yul\":32525:32551   */\n      swap1\n      pop\n        /* \"#utility.yul\":32597:32606   */\n      dup2\n        /* \"#utility.yul\":32591:32595   */\n      dup2\n        /* \"#utility.yul\":32587:32607   */\n      sub\n        /* \"#utility.yul\":32583:32584   */\n      0x00\n        /* \"#utility.yul\":32572:32581   */\n      dup4\n        /* \"#utility.yul\":32568:32585   */\n      add\n        /* \"#utility.yul\":32561:32608   */\n      mstore\n        /* \"#utility.yul\":32625:32756   */\n      tag_689\n        /* \"#utility.yul\":32751:32755   */\n      dup2\n        /* \"#utility.yul\":32625:32756   */\n      tag_373\n      jump\t// in\n    tag_689:\n        /* \"#utility.yul\":32617:32756   */\n      swap1\n      pop\n        /* \"#utility.yul\":32344:32763   */\n      swap2\n      swap1\n      pop\n      jump\t// out\n        /* \"#utility.yul\":32769:32994   */\n    tag_374:\n        /* \"#utility.yul\":32909:32943   */\n      0x53746172742074696d65206d757374206d6f7265207468616e2070726573656e\n        /* \"#utility.yul\":32905:32906   */\n      0x00\n        /* \"#utility.yul\":32897:32903   */\n      dup3\n        /* \"#utility.yul\":32893:32907   */\n      add\n        /* \"#utility.yul\":32886:32944   */\n      mstore\n        /* \"#utility.yul\":32978:32986   */\n      0x742074696d650000000000000000000000000000000000000000000000000000\n        /* \"#utility.yul\":32973:32975   */\n      0x20\n        /* \"#utility.yul\":32965:32971   */\n      dup3\n        /* \"#utility.yul\":32961:32976   */\n      add\n        /* \"#utility.yul\":32954:32987   */\n      mstore\n        /* \"#utility.yul\":32769:32994   */\n      pop\n      jump\t// out\n        /* \"#utility.yul\":33000:33366   */\n    tag_375:\n        /* \"#utility.yul\":33142:33145   */\n      0x00\n        /* \"#utility.yul\":33163:33230   */\n      tag_692\n        /* \"#utility.yul\":33227:33229   */\n      0x26\n        /* \"#utility.yul\":33222:33225   */\n      dup4\n        /* \"#utility.yul\":33163:33230   */\n      tag_357\n      jump\t// in\n    tag_692:\n        /* \"#utility.yul\":33156:33230   */\n      swap2\n      pop\n        /* \"#utility.yul\":33239:33332   */\n      tag_693\n        /* \"#utility.yul\":33328:33331   */\n      dup3\n        /* \"#utility.yul\":33239:33332   */\n      tag_374\n      jump\t// in\n    tag_693:\n        /* \"#utility.yul\":33357:33359   */\n      0x40\n        /* \"#utility.yul\":33352:33355   */\n      dup3\n        /* \"#utility.yul\":33348:33360   */\n      add\n        /* \"#utility.yul\":33341:33360   */\n      swap1\n      pop\n        /* \"#utility.yul\":33000:33366   */\n      swap2\n      swap1\n      pop\n      jump\t// out\n        /* \"#utility.yul\":33372:33791   */\n    tag_265:\n        /* \"#utility.yul\":33538:33542   */\n      0x00\n        /* \"#utility.yul\":33576:33578   */\n      0x20\n        /* \"#utility.yul\":33565:33574   */\n      dup3\n        /* \"#utility.yul\":33561:33579   */\n      add\n        /* \"#utility.yul\":33553:33579   */\n      swap1\n      pop\n        /* \"#utility.yul\":33625:33634   */\n      dup2\n        /* \"#utility.yul\":33619:33623   */\n      dup2\n        /* \"#utility.yul\":33615:33635   */\n      sub\n        /* \"#utility.yul\":33611:33612   */\n      0x00\n        /* \"#utility.yul\":33600:33609   */\n      dup4\n        /* \"#utility.yul\":33596:33613   */\n      add\n        /* \"#utility.yul\":33589:33636   */\n      mstore\n        /* \"#utility.yul\":33653:33784   */\n      tag_695\n        /* \"#utility.yul\":33779:33783   */\n      dup2\n        /* \"#utility.yul\":33653:33784   */\n      tag_375\n      jump\t// in\n    tag_695:\n        /* \"#utility.yul\":33645:33784   */\n      swap1\n      pop\n        /* \"#utility.yul\":33372:33791   */\n      swap2\n      swap1\n      pop\n      jump\t// out\n        /* \"#utility.yul\":33797:33973   */\n    tag_376:\n        /* \"#utility.yul\":33937:33965   */\n      0x546f6b656e206964206d757374206c657373207468616e203337000000000000\n        /* \"#utility.yul\":33933:33934   */\n      0x00\n        /* \"#utility.yul\":33925:33931   */\n      dup3\n        /* \"#utility.yul\":33921:33935   */\n      add\n        /* \"#utility.yul\":33914:33966   */\n      mstore\n        /* \"#utility.yul\":33797:33973   */\n      pop\n      jump\t// out\n        /* \"#utility.yul\":33979:34345   */\n    tag_377:\n        /* \"#utility.yul\":34121:34124   */\n      0x00\n        /* \"#utility.yul\":34142:34209   */\n      tag_698\n        /* \"#utility.yul\":34206:34208   */\n      0x1a\n        /* \"#utility.yul\":34201:34204   */\n      dup4\n        /* \"#utility.yul\":34142:34209   */\n      tag_357\n      jump\t// in\n    tag_698:\n        /* \"#utility.yul\":34135:34209   */\n      swap2\n      pop\n        /* \"#utility.yul\":34218:34311   */\n      tag_699\n        /* \"#utility.yul\":34307:34310   */\n      dup3\n        /* \"#utility.yul\":34218:34311   */\n      tag_376\n      jump\t// in\n    tag_699:\n        /* \"#utility.yul\":34336:34338   */\n      0x20\n        /* \"#utility.yul\":34331:34334   */\n      dup3\n        /* \"#utility.yul\":34327:34339   */\n      add\n        /* \"#utility.yul\":34320:34339   */\n      swap1\n      pop\n        /* \"#utility.yul\":33979:34345   */\n      swap2\n      swap1\n      pop\n      jump\t// out\n        /* \"#utility.yul\":34351:34770   */\n    tag_269:\n        /* \"#utility.yul\":34517:34521   */\n      0x00\n        /* \"#utility.yul\":34555:34557   */\n      0x20\n        /* \"#utility.yul\":34544:34553   */\n      dup3\n        /* \"#utility.yul\":34540:34558   */\n      add\n        /* \"#utility.yul\":34532:34558   */\n      swap1\n      pop\n        /* \"#utility.yul\":34604:34613   */\n      dup2\n        /* \"#utility.yul\":34598:34602   */\n      dup2\n        /* \"#utility.yul\":34594:34614   */\n      sub\n        /* \"#utility.yul\":34590:34591   */\n      0x00\n        /* \"#utility.yul\":34579:34588   */\n      dup4\n        /* \"#utility.yul\":34575:34592   */\n      add\n        /* \"#utility.yul\":34568:34615   */\n      mstore\n        /* \"#utility.yul\":34632:34763   */\n      tag_701\n        /* \"#utility.yul\":34758:34762   */\n      dup2\n        /* \"#utility.yul\":34632:34763   */\n      tag_377\n      jump\t// in\n    tag_701:\n        /* \"#utility.yul\":34624:34763   */\n      swap1\n      pop\n        /* \"#utility.yul\":34351:34770   */\n      swap2\n      swap1\n      pop\n      jump\t// out\n        /* \"#utility.yul\":34776:34947   */\n    tag_271:\n        /* \"#utility.yul\":34814:34817   */\n      0x00\n        /* \"#utility.yul\":34837:34860   */\n      tag_703\n        /* \"#utility.yul\":34854:34859   */\n      dup3\n        /* \"#utility.yul\":34837:34860   */\n      tag_306\n      jump\t// in\n    tag_703:\n        /* \"#utility.yul\":34828:34860   */\n      swap2\n      pop\n        /* \"#utility.yul\":34882:34888   */\n      0xffff\n        /* \"#utility.yul\":34875:34880   */\n      dup3\n        /* \"#utility.yul\":34872:34889   */\n      sub\n        /* \"#utility.yul\":34869:34912   */\n      tag_704\n      jumpi\n        /* \"#utility.yul\":34892:34910   */\n      tag_705\n      tag_360\n      jump\t// in\n    tag_705:\n        /* \"#utility.yul\":34869:34912   */\n    tag_704:\n        /* \"#utility.yul\":34939:34940   */\n      0x01\n        /* \"#utility.yul\":34932:34937   */\n      dup3\n        /* \"#utility.yul\":34928:34941   */\n      add\n        /* \"#utility.yul\":34921:34941   */\n      swap1\n      pop\n        /* \"#utility.yul\":34776:34947   */\n      swap2\n      swap1\n      pop\n      jump\t// out\n        /* \"#utility.yul\":34953:35178   */\n    tag_378:\n        /* \"#utility.yul\":35093:35127   */\n      0x4f776e61626c653a206e6577206f776e657220697320746865207a65726f2061\n        /* \"#utility.yul\":35089:35090   */\n      0x00\n        /* \"#utility.yul\":35081:35087   */\n      dup3\n        /* \"#utility.yul\":35077:35091   */\n      add\n        /* \"#utility.yul\":35070:35128   */\n      mstore\n        /* \"#utility.yul\":35162:35170   */\n      0x6464726573730000000000000000000000000000000000000000000000000000\n        /* \"#utility.yul\":35157:35159   */\n      0x20\n        /* \"#utility.yul\":35149:35155   */\n      dup3\n        /* \"#utility.yul\":35145:35160   */\n      add\n        /* \"#utility.yul\":35138:35171   */\n      mstore\n        /* \"#utility.yul\":34953:35178   */\n      pop\n      jump\t// out\n        /* \"#utility.yul\":35184:35550   */\n    tag_379:\n        /* \"#utility.yul\":35326:35329   */\n      0x00\n        /* \"#utility.yul\":35347:35414   */\n      tag_708\n        /* \"#utility.yul\":35411:35413   */\n      0x26\n        /* \"#utility.yul\":35406:35409   */\n      dup4\n        /* \"#utility.yul\":35347:35414   */\n      tag_357\n      jump\t// in\n    tag_708:\n        /* \"#utility.yul\":35340:35414   */\n      swap2\n      pop\n        /* \"#utility.yul\":35423:35516   */\n      tag_709\n        /* \"#utility.yul\":35512:35515   */\n      dup3\n        /* \"#utility.yul\":35423:35516   */\n      tag_378\n      jump\t// in\n    tag_709:\n        /* \"#utility.yul\":35541:35543   */\n      0x40\n        /* \"#utility.yul\":35536:35539   */\n      dup3\n        /* \"#utility.yul\":35532:35544   */\n      add\n        /* \"#utility.yul\":35525:35544   */\n      swap1\n      pop\n        /* \"#utility.yul\":35184:35550   */\n      swap2\n      swap1\n      pop\n      jump\t// out\n        /* \"#utility.yul\":35556:35975   */\n    tag_285:\n        /* \"#utility.yul\":35722:35726   */\n      0x00\n        /* \"#utility.yul\":35760:35762   */\n      0x20\n        /* \"#utility.yul\":35749:35758   */\n      dup3\n        /* \"#utility.yul\":35745:35763   */\n      add\n        /* \"#utility.yul\":35737:35763   */\n      swap1\n      pop\n        /* \"#utility.yul\":35809:35818   */\n      dup2\n        /* \"#utility.yul\":35803:35807   */\n      dup2\n        /* \"#utility.yul\":35799:35819   */\n      sub\n        /* \"#utility.yul\":35795:35796   */\n      0x00\n        /* \"#utility.yul\":35784:35793   */\n      dup4\n        /* \"#utility.yul\":35780:35797   */\n      add\n        /* \"#utility.yul\":35773:35820   */\n      mstore\n        /* \"#utility.yul\":35837:35968   */\n      tag_711\n        /* \"#utility.yul\":35963:35967   */\n      dup2\n        /* \"#utility.yul\":35837:35968   */\n      tag_379\n      jump\t// in\n    tag_711:\n        /* \"#utility.yul\":35829:35968   */\n      swap1\n      pop\n        /* \"#utility.yul\":35556:35975   */\n      swap2\n      swap1\n      pop\n      jump\t// out\n\n    auxdata: 0xa2646970667358221220db68e00df7808dbe8e1a50fac3aae1c685db58cf270ac877098b8bdd2a5a88f864736f6c634300080d0033\n}\n",
				"bytecode": {
					"linkReferences": {},
					"object": "60806040526001600360146101000a81548161ffff021916908361ffff160217905550670de0b6b3a76400006004553480156200003b57600080fd5b506200005c620000506200006260201b60201c565b6200006a60201b60201c565b62000130565b600033905090565b6000600160009054906101000a900473ffffffffffffffffffffffffffffffffffffffff16905081600160006101000a81548173ffffffffffffffffffffffffffffffffffffffff021916908373ffffffffffffffffffffffffffffffffffffffff1602179055508173ffffffffffffffffffffffffffffffffffffffff168173ffffffffffffffffffffffffffffffffffffffff167f8be0079c531659141344cd1fd0a4f28419497f9722a3daafe3b4186f6b6457e060405160405180910390a35050565b6130bf80620001406000396000f3fe608060405234801561001057600080fd5b506004361061014d5760003560e01c8063891ee6d3116100c3578063da80e59b1161007c578063da80e59b146103ac578063f23a6e61146103ca578063f2fde38b146103fa578063f606faea14610416578063f7c618c114610432578063ffa65732146104505761014d565b8063891ee6d3146102da5780638aee81271461030a5780638da5cb5b14610326578063a278602f14610344578063bc197c8114610360578063d5bf583b146103905761014d565b806324d7806c1161011557806324d7806c1461021a578063270e39941461024a57806352964def146102685780636cd262fb14610284578063715018a6146102a0578063749f3429146102aa5761014d565b806301ffc9a714610152578063082d07851461018257806311da8e541461019e57806318e20ecf146101ce57806321569088146101ea575b600080fd5b61016c60048036038101906101679190611e88565b61046e565b6040516101799190611ed0565b60405180910390f35b61019c60048036038101906101979190611f25565b6104e8565b005b6101b860048036038101906101b39190611fb0565b61083d565b6040516101c5919061209b565b60405180910390f35b6101e860048036038101906101e391906120e9565b6108fc565b005b61020460048036038101906101ff9190612129565b610a6d565b6040516102119190612182565b60405180910390f35b610234600480360381019061022f9190611fb0565b610c7d565b6040516102419190611ed0565b60405180910390f35b610252610cd2565b60405161025f91906121ac565b60405180910390f35b610282600480360381019061027d91906121f3565b610cf8565b005b61029e60048036038101906102999190611fb0565b611238565b005b6102a86112f8565b005b6102c460048036038101906102bf9190612129565b611380565b6040516102d191906122b9565b60405180910390f35b6102f460048036038101906102ef9190611f25565b611442565b6040516103019190612402565b60405180910390f35b610324600480360381019061031f9190611fb0565b611519565b005b61032e6115d9565b60405161033b91906121ac565b60405180910390f35b61035e6004803603810190610359919061241e565b611603565b005b61037a6004803603810190610375919061266c565b611817565b604051610387919061274a565b60405180910390f35b6103aa60048036038101906103a5919061278a565b61182c565b005b6103b4611a82565b6040516103c19190612182565b60405180910390f35b6103e460048036038101906103df9190612805565b611a88565b6040516103f1919061274a565b60405180910390f35b610414600480360381019061040f9190611fb0565b611a9d565b005b610430600480360381019061042b919061289c565b611b94565b005b61043a611c1a565b60405161044791906121ac565b60405180910390f35b610458611c40565b60405161046591906128d8565b60405180910390f35b60007f4e2312e0000000000000000000000000000000000000000000000000000000007bffffffffffffffffffffffffffffffffffffffffffffffffffffffff1916827bffffffffffffffffffffffffffffffffffffffffffffffffffffffff191614806104e157506104e082611c54565b5b9050919050565b60006104f43383610a6d565b90506000600660003373ffffffffffffffffffffffffffffffffffffffff1673ffffffffffffffffffffffffffffffffffffffff16815260200190815260200160002060008461ffff1661ffff1681526020019081526020016000206040518060800160405290816000820160009054906101000a900461ffff1661ffff1661ffff16815260200160018201548152602001600282015481526020016003820160009054906101000a900460ff16151515158152505090506000806000600560008761ffff1661ffff168152602001908152602001600020604051806101200160405290816000820160009054906101000a900460ff1660018111156105fd576105fc6122d4565b5b600181111561060f5761060e6122d4565b5b81526020016000820160019054906101000a900461ffff1661ffff1661ffff168152602001600182015481526020016002820154815260200160038201548152602001600482015481526020016005820154815260200160068201548152602001600782015481525050905080608001518161010001510361069e5780608001519250836020015191506106ad565b8060a0015192508060a0015191505b600260009054906101000a900473ffffffffffffffffffffffffffffffffffffffff1673ffffffffffffffffffffffffffffffffffffffff1663f242432a303386866040518563ffffffff1660e01b815260040161070e949392919061292a565b600060405180830381600087803b15801561072857600080fd5b505af115801561073c573d6000803e3d6000fd5b50505050600360009054906101000a900473ffffffffffffffffffffffffffffffffffffffff1673ffffffffffffffffffffffffffffffffffffffff1663a9059cbb33876040518363ffffffff1660e01b815260040161079d929190612982565b6020604051808303816000875af11580156107bc573d6000803e3d6000fd5b505050506040513d601f19601f820116820180604052508101906107e091906129c0565b503373ffffffffffffffffffffffffffffffffffffffff167f37928b7e81bcb91f89ab0bc4eb993473de24975366bebf5b4e1e946f2c94880782602001518760405161082d9291906129ed565b60405180910390a2505050505050565b6060600760008373ffffffffffffffffffffffffffffffffffffffff1673ffffffffffffffffffffffffffffffffffffffff1681526020019081526020016000208054806020026020016040519081016040528092919081815260200182805480156108f057602002820191906000526020600020906000905b82829054906101000a900461ffff1661ffff16815260200190600201906020826001010492830192600103820291508084116108b75790505b50505050509050919050565b610904611cbe565b73ffffffffffffffffffffffffffffffffffffffff166109226115d9565b73ffffffffffffffffffffffffffffffffffffffff1614610978576040517f08c379a000000000000000000000000000000000000000000000000000000000815260040161096f90612a99565b60405180910390fd5b8173ffffffffffffffffffffffffffffffffffffffff167f82f1fa40a3d82dea3e406073819290601f436580aa7c69f9feb61f885bdd88546000808573ffffffffffffffffffffffffffffffffffffffff1673ffffffffffffffffffffffffffffffffffffffff16815260200190815260200160002060009054906101000a900460ff1683604051610a0b929190612ab9565b60405180910390a2806000808473ffffffffffffffffffffffffffffffffffffffff1673ffffffffffffffffffffffffffffffffffffffff16815260200190815260200160002060006101000a81548160ff0219169083151502179055505050565b600080600560008461ffff1661ffff168152602001908152602001600020604051806101200160405290816000820160009054906101000a900460ff166001811115610abc57610abb6122d4565b5b6001811115610ace57610acd6122d4565b5b81526020016000820160019054906101000a900461ffff1661ffff1661ffff16815260200160018201548152602001600282015481526020016003820154815260200160048201548152602001600582015481526020016006820154815260200160078201548152505090506000816020015161ffff1603610b54576000915050610c77565b6000600660008673ffffffffffffffffffffffffffffffffffffffff1673ffffffffffffffffffffffffffffffffffffffff16815260200190815260200160002060008561ffff1661ffff1681526020019081526020016000206040518060800160405290816000820160009054906101000a900461ffff1661ffff1661ffff16815260200160018201548152602001600282015481526020016003820160009054906101000a900460ff16151515158152505090506000816000015161ffff1603610c2557600092505050610c77565b6000826080015183610100015103610c435781602001519050610c4b565b816040015190505b6064605060045483610c5d9190612b11565b610c679190612b11565b610c719190612b9a565b93505050505b92915050565b60008060008373ffffffffffffffffffffffffffffffffffffffff1673ffffffffffffffffffffffffffffffffffffffff16815260200190815260200160002060009054906101000a900460ff169050919050565b600260009054906101000a900473ffffffffffffffffffffffffffffffffffffffff1681565b60008111610d3b576040517f08c379a0000000000000000000000000000000000000000000000000000000008152600401610d3290612c17565b60405180910390fd5b6000600560008561ffff1661ffff168152602001908152602001600020604051806101200160405290816000820160009054906101000a900460ff166001811115610d8957610d886122d4565b5b6001811115610d9b57610d9a6122d4565b5b81526020016000820160019054906101000a900461ffff1661ffff1661ffff16815260200160018201548152602001600282015481526020016003820154815260200160048201548152602001600582015481526020016006820154815260200160078201548152505090506000816020015161ffff1603610e52576040517f08c379a0000000000000000000000000000000000000000000000000000000008152600401610e4990612c83565b60405180910390fd5b4281604001511115610e99576040517f08c379a0000000000000000000000000000000000000000000000000000000008152600401610e9090612cef565b60405180910390fd5b8281608001511480610eae5750828160a00151145b610eed576040517f08c379a0000000000000000000000000000000000000000000000000000000008152600401610ee490612d5b565b60405180910390fd5b600260009054906101000a900473ffffffffffffffffffffffffffffffffffffffff1673ffffffffffffffffffffffffffffffffffffffff1663f242432a333086866040518563ffffffff1660e01b8152600401610f4e949392919061292a565b600060405180830381600087803b158015610f6857600080fd5b505af1158015610f7c573d6000803e3d6000fd5b505050506000600660003373ffffffffffffffffffffffffffffffffffffffff1673ffffffffffffffffffffffffffffffffffffffff16815260200190815260200160002060008661ffff1661ffff1681526020019081526020016000206040518060800160405290816000820160009054906101000a900461ffff1661ffff1661ffff16815260200160018201548152602001600282015481526020016003820160009054906101000a900460ff161515151581525050905084816000019061ffff16908161ffff1681525050600760003373ffffffffffffffffffffffffffffffffffffffff1673ffffffffffffffffffffffffffffffffffffffff1681526020019081526020016000208590806001815401808255809150506001900390600052602060002090601091828204019190066002029091909190916101000a81548161ffff021916908361ffff1602179055508382608001510361112f5782600560008761ffff1661ffff168152602001908152602001600020600501600082825461110a9190612d7b565b9250508190555082816020018181516111239190612d7b565b9150818152505061117e565b82600560008761ffff1661ffff168152602001908152602001600020600601600082825461115d9190612d7b565b9250508190555082816040018181516111769190612d7b565b915081815250505b80600660003373ffffffffffffffffffffffffffffffffffffffff1673ffffffffffffffffffffffffffffffffffffffff16815260200190815260200160002060008761ffff1661ffff16815260200190815260200160002060008201518160000160006101000a81548161ffff021916908361ffff160217905550602082015181600101556040820151816002015560608201518160030160006101000a81548160ff0219169083151502179055509050505050505050565b611240611cbe565b73ffffffffffffffffffffffffffffffffffffffff1661125e6115d9565b73ffffffffffffffffffffffffffffffffffffffff16146112b4576040517f08c379a00000000000000000000000000000000000000000000000000000000081526004016112ab90612a99565b60405180910390fd5b80600260006101000a81548173ffffffffffffffffffffffffffffffffffffffff021916908373ffffffffffffffffffffffffffffffffffffffff16021790555050565b611300611cbe565b73ffffffffffffffffffffffffffffffffffffffff1661131e6115d9565b73ffffffffffffffffffffffffffffffffffffffff1614611374576040517f08c379a000000000000000000000000000000000000000000000000000000000815260040161136b90612a99565b60405180910390fd5b61137e6000611cc6565b565b611388611d8c565b600660008473ffffffffffffffffffffffffffffffffffffffff1673ffffffffffffffffffffffffffffffffffffffff16815260200190815260200160002060008361ffff1661ffff1681526020019081526020016000206040518060800160405290816000820160009054906101000a900461ffff1661ffff1661ffff16815260200160018201548152602001600282015481526020016003820160009054906101000a900460ff161515151581525050905092915050565b61144a611dba565b600560008361ffff1661ffff168152602001908152602001600020604051806101200160405290816000820160009054906101000a900460ff166001811115611496576114956122d4565b5b60018111156114a8576114a76122d4565b5b81526020016000820160019054906101000a900461ffff1661ffff1661ffff1681526020016001820154815260200160028201548152602001600382015481526020016004820154815260200160058201548152602001600682015481526020016007820154815250509050919050565b611521611cbe565b73ffffffffffffffffffffffffffffffffffffffff1661153f6115d9565b73ffffffffffffffffffffffffffffffffffffffff1614611595576040517f08c379a000000000000000000000000000000000000000000000000000000000815260040161158c90612a99565b60405180910390fd5b80600360006101000a81548173ffffffffffffffffffffffffffffffffffffffff021916908373ffffffffffffffffffffffffffffffffffffffff16021790555050565b6000600160009054906101000a900473ffffffffffffffffffffffffffffffffffffffff16905090565b61161361160e611cbe565b610c7d565b611652576040517f08c379a000000000000000000000000000000000000000000000000000000000815260040161164990612e43565b60405180910390fd5b6000600560008461ffff1661ffff168152602001908152602001600020604051806101200160405290816000820160009054906101000a900460ff1660018111156116a05761169f6122d4565b5b60018111156116b2576116b16122d4565b5b81526020016000820160019054906101000a900461ffff1661ffff1661ffff16815260200160018201548152602001600282015481526020016003820154815260200160048201548152602001600582015481526020016006820154815260200160078201548152505090506000816020015161ffff1611611769576040517f08c379a000000000000000000000000000000000000000000000000000000000815260040161176090612eaf565b60405180910390fd5b428160400151106117af576040517f08c379a00000000000000000000000000000000000000000000000000000000081526004016117a690612cef565b60405180910390fd5b4281606001818152505081816101000181815250503373ffffffffffffffffffffffffffffffffffffffff167f8fdc8870ecd42629e72f8c2edf272000e1824b081ef420869c8435da7d78ef618460405161180a91906128d8565b60405180910390a2505050565b600063bc197c8160e01b905095945050505050565b61183c611837611cbe565b610c7d565b61187b576040517f08c379a000000000000000000000000000000000000000000000000000000000815260040161187290612e43565b60405180910390fd5b4284116118bd576040517f08c379a00000000000000000000000000000000000000000000000000000000081526004016118b490612f41565b60405180910390fd5b602482111580156118cf575060248111155b61190e576040517f08c379a000000000000000000000000000000000000000000000000000000000815260040161190590612fad565b60405180910390fd5b6003601481819054906101000a900461ffff168092919061192e90612fcd565b91906101000a81548161ffff021916908361ffff16021790555050604051806101200160405280866001811115611968576119676122d4565b5b8152602001600360149054906101000a900461ffff1661ffff168152602001858152602001600081526020018381526020018281526020016000815260200160008152602001600081525060056000600360149054906101000a900461ffff1661ffff1661ffff16815260200190815260200160002060008201518160000160006101000a81548160ff02191690836001811115611a0957611a086122d4565b5b021790555060208201518160000160016101000a81548161ffff021916908361ffff16021790555060408201518160010155606082015181600201556080820151816003015560a0820151816004015560c0820151816005015560e0820151816006015561010082015181600701559050505050505050565b60045481565b600063f23a6e6160e01b905095945050505050565b611aa5611cbe565b73ffffffffffffffffffffffffffffffffffffffff16611ac36115d9565b73ffffffffffffffffffffffffffffffffffffffff1614611b19576040517f08c379a0000000000000000000000000000000000000000000000000000000008152600401611b1090612a99565b60405180910390fd5b600073ffffffffffffffffffffffffffffffffffffffff168173ffffffffffffffffffffffffffffffffffffffff1603611b88576040517f08c379a0000000000000000000000000000000000000000000000000000000008152600401611b7f90613069565b60405180910390fd5b611b9181611cc6565b50565b611b9c611cbe565b73ffffffffffffffffffffffffffffffffffffffff16611bba6115d9565b73ffffffffffffffffffffffffffffffffffffffff1614611c10576040517f08c379a0000000000000000000000000000000000000000000000000000000008152600401611c0790612a99565b60405180910390fd5b8060048190555050565b600360009054906101000a900473ffffffffffffffffffffffffffffffffffffffff1681565b600360149054906101000a900461ffff1681565b60007f01ffc9a7000000000000000000000000000000000000000000000000000000007bffffffffffffffffffffffffffffffffffffffffffffffffffffffff1916827bffffffffffffffffffffffffffffffffffffffffffffffffffffffff1916149050919050565b600033905090565b6000600160009054906101000a900473ffffffffffffffffffffffffffffffffffffffff16905081600160006101000a81548173ffffffffffffffffffffffffffffffffffffffff021916908373ffffffffffffffffffffffffffffffffffffffff1602179055508173ffffffffffffffffffffffffffffffffffffffff168173ffffffffffffffffffffffffffffffffffffffff167f8be0079c531659141344cd1fd0a4f28419497f9722a3daafe3b4186f6b6457e060405160405180910390a35050565b6040518060800160405280600061ffff16815260200160008152602001600081526020016000151581525090565b60405180610120016040528060006001811115611dda57611dd96122d4565b5b8152602001600061ffff168152602001600081526020016000815260200160008152602001600081526020016000815260200160008152602001600081525090565b6000604051905090565b600080fd5b600080fd5b60007fffffffff0000000000000000000000000000000000000000000000000000000082169050919050565b611e6581611e30565b8114611e7057600080fd5b50565b600081359050611e8281611e5c565b92915050565b600060208284031215611e9e57611e9d611e26565b5b6000611eac84828501611e73565b91505092915050565b60008115159050919050565b611eca81611eb5565b82525050565b6000602082019050611ee56000830184611ec1565b92915050565b600061ffff82169050919050565b611f0281611eeb565b8114611f0d57600080fd5b50565b600081359050611f1f81611ef9565b92915050565b600060208284031215611f3b57611f3a611e26565b5b6000611f4984828501611f10565b91505092915050565b600073ffffffffffffffffffffffffffffffffffffffff82169050919050565b6000611f7d82611f52565b9050919050565b611f8d81611f72565b8114611f9857600080fd5b50565b600081359050611faa81611f84565b92915050565b600060208284031215611fc657611fc5611e26565b5b6000611fd484828501611f9b565b91505092915050565b600081519050919050565b600082825260208201905092915050565b6000819050602082019050919050565b61201281611eeb565b82525050565b60006120248383612009565b60208301905092915050565b6000602082019050919050565b600061204882611fdd565b6120528185611fe8565b935061205d83611ff9565b8060005b8381101561208e5781516120758882612018565b975061208083612030565b925050600181019050612061565b5085935050505092915050565b600060208201905081810360008301526120b5818461203d565b905092915050565b6120c681611eb5565b81146120d157600080fd5b50565b6000813590506120e3816120bd565b92915050565b60008060408385031215612100576120ff611e26565b5b600061210e85828601611f9b565b925050602061211f858286016120d4565b9150509250929050565b600080604083850312156121405761213f611e26565b5b600061214e85828601611f9b565b925050602061215f85828601611f10565b9150509250929050565b6000819050919050565b61217c81612169565b82525050565b60006020820190506121976000830184612173565b92915050565b6121a681611f72565b82525050565b60006020820190506121c1600083018461219d565b92915050565b6121d081612169565b81146121db57600080fd5b50565b6000813590506121ed816121c7565b92915050565b60008060006060848603121561220c5761220b611e26565b5b600061221a86828701611f10565b935050602061222b868287016121de565b925050604061223c868287016121de565b9150509250925092565b61224f81612169565b82525050565b61225e81611eb5565b82525050565b60808201600082015161227a6000850182612009565b50602082015161228d6020850182612246565b5060408201516122a06040850182612246565b5060608201516122b36060850182612255565b50505050565b60006080820190506122ce6000830184612264565b92915050565b7f4e487b7100000000000000000000000000000000000000000000000000000000600052602160045260246000fd5b60028110612314576123136122d4565b5b50565b600081905061232582612303565b919050565b600061233582612317565b9050919050565b6123458161232a565b82525050565b61012082016000820151612362600085018261233c565b5060208201516123756020850182612009565b5060408201516123886040850182612246565b50606082015161239b6060850182612246565b5060808201516123ae6080850182612246565b5060a08201516123c160a0850182612246565b5060c08201516123d460c0850182612246565b5060e08201516123e760e0850182612246565b506101008201516123fc610100850182612246565b50505050565b600061012082019050612418600083018461234b565b92915050565b6000806040838503121561243557612434611e26565b5b600061244385828601611f10565b9250506020612454858286016121de565b9150509250929050565b600080fd5b6000601f19601f8301169050919050565b7f4e487b7100000000000000000000000000000000000000000000000000000000600052604160045260246000fd5b6124ac82612463565b810181811067ffffffffffffffff821117156124cb576124ca612474565b5b80604052505050565b60006124de611e1c565b90506124ea82826124a3565b919050565b600067ffffffffffffffff82111561250a57612509612474565b5b602082029050602081019050919050565b600080fd5b600061253361252e846124ef565b6124d4565b905080838252602082019050602084028301858111156125565761255561251b565b5b835b8181101561257f578061256b88826121de565b845260208401935050602081019050612558565b5050509392505050565b600082601f83011261259e5761259d61245e565b5b81356125ae848260208601612520565b91505092915050565b600080fd5b600067ffffffffffffffff8211156125d7576125d6612474565b5b6125e082612463565b9050602081019050919050565b82818337600083830152505050565b600061260f61260a846125bc565b6124d4565b90508281526020810184848401111561262b5761262a6125b7565b5b6126368482856125ed565b509392505050565b600082601f8301126126535761265261245e565b5b81356126638482602086016125fc565b91505092915050565b600080600080600060a0868803121561268857612687611e26565b5b600061269688828901611f9b565b95505060206126a788828901611f9b565b945050604086013567ffffffffffffffff8111156126c8576126c7611e2b565b5b6126d488828901612589565b935050606086013567ffffffffffffffff8111156126f5576126f4611e2b565b5b61270188828901612589565b925050608086013567ffffffffffffffff81111561272257612721611e2b565b5b61272e8882890161263e565b9150509295509295909350565b61274481611e30565b82525050565b600060208201905061275f600083018461273b565b92915050565b6002811061277257600080fd5b50565b60008135905061278481612765565b92915050565b600080600080600060a086880312156127a6576127a5611e26565b5b60006127b488828901612775565b95505060206127c5888289016121de565b94505060406127d6888289016121de565b93505060606127e7888289016121de565b92505060806127f8888289016121de565b9150509295509295909350565b600080600080600060a0868803121561282157612820611e26565b5b600061282f88828901611f9b565b955050602061284088828901611f9b565b9450506040612851888289016121de565b9350506060612862888289016121de565b925050608086013567ffffffffffffffff81111561288357612882611e2b565b5b61288f8882890161263e565b9150509295509295909350565b6000602082840312156128b2576128b1611e26565b5b60006128c0848285016121de565b91505092915050565b6128d281611eeb565b82525050565b60006020820190506128ed60008301846128c9565b92915050565b600082825260208201905092915050565b50565b60006129146000836128f3565b915061291f82612904565b600082019050919050565b600060a08201905061293f600083018761219d565b61294c602083018661219d565b6129596040830185612173565b6129666060830184612173565b818103608083015261297781612907565b905095945050505050565b6000604082019050612997600083018561219d565b6129a46020830184612173565b9392505050565b6000815190506129ba816120bd565b92915050565b6000602082840312156129d6576129d5611e26565b5b60006129e4848285016129ab565b91505092915050565b6000604082019050612a0260008301856128c9565b612a0f6020830184612173565b9392505050565b600082825260208201905092915050565b7f41646d696e61626c653a2063616c6c6572206973206e6f7420746865206f776e60008201527f6572000000000000000000000000000000000000000000000000000000000000602082015250565b6000612a83602283612a16565b9150612a8e82612a27565b604082019050919050565b60006020820190508181036000830152612ab281612a76565b9050919050565b6000604082019050612ace6000830185611ec1565b612adb6020830184611ec1565b9392505050565b7f4e487b7100000000000000000000000000000000000000000000000000000000600052601160045260246000fd5b6000612b1c82612169565b9150612b2783612169565b9250817fffffffffffffffffffffffffffffffffffffffffffffffffffffffffffffffff0483118215151615612b6057612b5f612ae2565b5b828202905092915050565b7f4e487b7100000000000000000000000000000000000000000000000000000000600052601260045260246000fd5b6000612ba582612169565b9150612bb083612169565b925082612bc057612bbf612b6b565b5b828204905092915050565b7f416d6f756e74206973207a65726f000000000000000000000000000000000000600082015250565b6000612c01600e83612a16565b9150612c0c82612bcb565b602082019050919050565b60006020820190508181036000830152612c3081612bf4565b9050919050565b7f4964206572726f72000000000000000000000000000000000000000000000000600082015250565b6000612c6d600883612a16565b9150612c7882612c37565b602082019050919050565b60006020820190508181036000830152612c9c81612c60565b9050919050565b7f4368616c6c656e6765206e6f7420737461727400000000000000000000000000600082015250565b6000612cd9601383612a16565b9150612ce482612ca3565b602082019050919050565b60006020820190508181036000830152612d0881612ccc565b9050919050565b7f546f6b656e206964206e6f7420696e206368616c6c656e676500000000000000600082015250565b6000612d45601983612a16565b9150612d5082612d0f565b602082019050919050565b60006020820190508181036000830152612d7481612d38565b9050919050565b6000612d8682612169565b9150612d9183612169565b9250827fffffffffffffffffffffffffffffffffffffffffffffffffffffffffffffffff03821115612dc657612dc5612ae2565b5b828201905092915050565b7f41646d696e61626c653a2063616c6c6572206973206e6f74207468652061646d60008201527f696e000000000000000000000000000000000000000000000000000000000000602082015250565b6000612e2d602283612a16565b9150612e3882612dd1565b604082019050919050565b60006020820190508181036000830152612e5c81612e20565b9050919050565b7f496e76616c6964206368616c6c656e6765206964000000000000000000000000600082015250565b6000612e99601483612a16565b9150612ea482612e63565b602082019050919050565b60006020820190508181036000830152612ec881612e8c565b9050919050565b7f53746172742074696d65206d757374206d6f7265207468616e2070726573656e60008201527f742074696d650000000000000000000000000000000000000000000000000000602082015250565b6000612f2b602683612a16565b9150612f3682612ecf565b604082019050919050565b60006020820190508181036000830152612f5a81612f1e565b9050919050565b7f546f6b656e206964206d757374206c657373207468616e203337000000000000600082015250565b6000612f97601a83612a16565b9150612fa282612f61565b602082019050919050565b60006020820190508181036000830152612fc681612f8a565b9050919050565b6000612fd882611eeb565b915061ffff8203612fec57612feb612ae2565b5b600182019050919050565b7f4f776e61626c653a206e6577206f776e657220697320746865207a65726f206160008201527f6464726573730000000000000000000000000000000000000000000000000000602082015250565b6000613053602683612a16565b915061305e82612ff7565b604082019050919050565b6000602082019050818103600083015261308281613046565b905091905056fea2646970667358221220db68e00df7808dbe8e1a50fac3aae1c685db58cf270ac877098b8bdd2a5a88f864736f6c634300080d0033",
					"opcodes": "PUSH1 0x80 PUSH1 0x40 MSTORE PUSH1 0x1 PUSH1 0x3 PUSH1 0x14 PUSH2 0x100 EXP DUP2 SLOAD DUP2 PUSH2 0xFFFF MUL NOT AND SWAP1 DUP4 PUSH2 0xFFFF AND MUL OR SWAP1 SSTORE POP PUSH8 0xDE0B6B3A7640000 PUSH1 0x4 SSTORE CALLVALUE DUP1 ISZERO PUSH3 0x3B JUMPI PUSH1 0x0 DUP1 REVERT JUMPDEST POP PUSH3 0x5C PUSH3 0x50 PUSH3 0x62 PUSH1 0x20 SHL PUSH1 0x20 SHR JUMP JUMPDEST PUSH3 0x6A PUSH1 0x20 SHL PUSH1 0x20 SHR JUMP JUMPDEST PUSH3 0x130 JUMP JUMPDEST PUSH1 0x0 CALLER SWAP1 POP SWAP1 JUMP JUMPDEST PUSH1 0x0 PUSH1 0x1 PUSH1 0x0 SWAP1 SLOAD SWAP1 PUSH2 0x100 EXP SWAP1 DIV PUSH20 0xFFFFFFFFFFFFFFFFFFFFFFFFFFFFFFFFFFFFFFFF AND SWAP1 POP DUP2 PUSH1 0x1 PUSH1 0x0 PUSH2 0x100 EXP DUP2 SLOAD DUP2 PUSH20 0xFFFFFFFFFFFFFFFFFFFFFFFFFFFFFFFFFFFFFFFF MUL NOT AND SWAP1 DUP4 PUSH20 0xFFFFFFFFFFFFFFFFFFFFFFFFFFFFFFFFFFFFFFFF AND MUL OR SWAP1 SSTORE POP DUP2 PUSH20 0xFFFFFFFFFFFFFFFFFFFFFFFFFFFFFFFFFFFFFFFF AND DUP2 PUSH20 0xFFFFFFFFFFFFFFFFFFFFFFFFFFFFFFFFFFFFFFFF AND PUSH32 0x8BE0079C531659141344CD1FD0A4F28419497F9722A3DAAFE3B4186F6B6457E0 PUSH1 0x40 MLOAD PUSH1 0x40 MLOAD DUP1 SWAP2 SUB SWAP1 LOG3 POP POP JUMP JUMPDEST PUSH2 0x30BF DUP1 PUSH3 0x140 PUSH1 0x0 CODECOPY PUSH1 0x0 RETURN INVALID PUSH1 0x80 PUSH1 0x40 MSTORE CALLVALUE DUP1 ISZERO PUSH2 0x10 JUMPI PUSH1 0x0 DUP1 REVERT JUMPDEST POP PUSH1 0x4 CALLDATASIZE LT PUSH2 0x14D JUMPI PUSH1 0x0 CALLDATALOAD PUSH1 0xE0 SHR DUP1 PUSH4 0x891EE6D3 GT PUSH2 0xC3 JUMPI DUP1 PUSH4 0xDA80E59B GT PUSH2 0x7C JUMPI DUP1 PUSH4 0xDA80E59B EQ PUSH2 0x3AC JUMPI DUP1 PUSH4 0xF23A6E61 EQ PUSH2 0x3CA JUMPI DUP1 PUSH4 0xF2FDE38B EQ PUSH2 0x3FA JUMPI DUP1 PUSH4 0xF606FAEA EQ PUSH2 0x416 JUMPI DUP1 PUSH4 0xF7C618C1 EQ PUSH2 0x432 JUMPI DUP1 PUSH4 0xFFA65732 EQ PUSH2 0x450 JUMPI PUSH2 0x14D JUMP JUMPDEST DUP1 PUSH4 0x891EE6D3 EQ PUSH2 0x2DA JUMPI DUP1 PUSH4 0x8AEE8127 EQ PUSH2 0x30A JUMPI DUP1 PUSH4 0x8DA5CB5B EQ PUSH2 0x326 JUMPI DUP1 PUSH4 0xA278602F EQ PUSH2 0x344 JUMPI DUP1 PUSH4 0xBC197C81 EQ PUSH2 0x360 JUMPI DUP1 PUSH4 0xD5BF583B EQ PUSH2 0x390 JUMPI PUSH2 0x14D JUMP JUMPDEST DUP1 PUSH4 0x24D7806C GT PUSH2 0x115 JUMPI DUP1 PUSH4 0x24D7806C EQ PUSH2 0x21A JUMPI DUP1 PUSH4 0x270E3994 EQ PUSH2 0x24A JUMPI DUP1 PUSH4 0x52964DEF EQ PUSH2 0x268 JUMPI DUP1 PUSH4 0x6CD262FB EQ PUSH2 0x284 JUMPI DUP1 PUSH4 0x715018A6 EQ PUSH2 0x2A0 JUMPI DUP1 PUSH4 0x749F3429 EQ PUSH2 0x2AA JUMPI PUSH2 0x14D JUMP JUMPDEST DUP1 PUSH4 0x1FFC9A7 EQ PUSH2 0x152 JUMPI DUP1 PUSH4 0x82D0785 EQ PUSH2 0x182 JUMPI DUP1 PUSH4 0x11DA8E54 EQ PUSH2 0x19E JUMPI DUP1 PUSH4 0x18E20ECF EQ PUSH2 0x1CE JUMPI DUP1 PUSH4 0x21569088 EQ PUSH2 0x1EA JUMPI JUMPDEST PUSH1 0x0 DUP1 REVERT JUMPDEST PUSH2 0x16C PUSH1 0x4 DUP1 CALLDATASIZE SUB DUP2 ADD SWAP1 PUSH2 0x167 SWAP2 SWAP1 PUSH2 0x1E88 JUMP JUMPDEST PUSH2 0x46E JUMP JUMPDEST PUSH1 0x40 MLOAD PUSH2 0x179 SWAP2 SWAP1 PUSH2 0x1ED0 JUMP JUMPDEST PUSH1 0x40 MLOAD DUP1 SWAP2 SUB SWAP1 RETURN JUMPDEST PUSH2 0x19C PUSH1 0x4 DUP1 CALLDATASIZE SUB DUP2 ADD SWAP1 PUSH2 0x197 SWAP2 SWAP1 PUSH2 0x1F25 JUMP JUMPDEST PUSH2 0x4E8 JUMP JUMPDEST STOP JUMPDEST PUSH2 0x1B8 PUSH1 0x4 DUP1 CALLDATASIZE SUB DUP2 ADD SWAP1 PUSH2 0x1B3 SWAP2 SWAP1 PUSH2 0x1FB0 JUMP JUMPDEST PUSH2 0x83D JUMP JUMPDEST PUSH1 0x40 MLOAD PUSH2 0x1C5 SWAP2 SWAP1 PUSH2 0x209B JUMP JUMPDEST PUSH1 0x40 MLOAD DUP1 SWAP2 SUB SWAP1 RETURN JUMPDEST PUSH2 0x1E8 PUSH1 0x4 DUP1 CALLDATASIZE SUB DUP2 ADD SWAP1 PUSH2 0x1E3 SWAP2 SWAP1 PUSH2 0x20E9 JUMP JUMPDEST PUSH2 0x8FC JUMP JUMPDEST STOP JUMPDEST PUSH2 0x204 PUSH1 0x4 DUP1 CALLDATASIZE SUB DUP2 ADD SWAP1 PUSH2 0x1FF SWAP2 SWAP1 PUSH2 0x2129 JUMP JUMPDEST PUSH2 0xA6D JUMP JUMPDEST PUSH1 0x40 MLOAD PUSH2 0x211 SWAP2 SWAP1 PUSH2 0x2182 JUMP JUMPDEST PUSH1 0x40 MLOAD DUP1 SWAP2 SUB SWAP1 RETURN JUMPDEST PUSH2 0x234 PUSH1 0x4 DUP1 CALLDATASIZE SUB DUP2 ADD SWAP1 PUSH2 0x22F SWAP2 SWAP1 PUSH2 0x1FB0 JUMP JUMPDEST PUSH2 0xC7D JUMP JUMPDEST PUSH1 0x40 MLOAD PUSH2 0x241 SWAP2 SWAP1 PUSH2 0x1ED0 JUMP JUMPDEST PUSH1 0x40 MLOAD DUP1 SWAP2 SUB SWAP1 RETURN JUMPDEST PUSH2 0x252 PUSH2 0xCD2 JUMP JUMPDEST PUSH1 0x40 MLOAD PUSH2 0x25F SWAP2 SWAP1 PUSH2 0x21AC JUMP JUMPDEST PUSH1 0x40 MLOAD DUP1 SWAP2 SUB SWAP1 RETURN JUMPDEST PUSH2 0x282 PUSH1 0x4 DUP1 CALLDATASIZE SUB DUP2 ADD SWAP1 PUSH2 0x27D SWAP2 SWAP1 PUSH2 0x21F3 JUMP JUMPDEST PUSH2 0xCF8 JUMP JUMPDEST STOP JUMPDEST PUSH2 0x29E PUSH1 0x4 DUP1 CALLDATASIZE SUB DUP2 ADD SWAP1 PUSH2 0x299 SWAP2 SWAP1 PUSH2 0x1FB0 JUMP JUMPDEST PUSH2 0x1238 JUMP JUMPDEST STOP JUMPDEST PUSH2 0x2A8 PUSH2 0x12F8 JUMP JUMPDEST STOP JUMPDEST PUSH2 0x2C4 PUSH1 0x4 DUP1 CALLDATASIZE SUB DUP2 ADD SWAP1 PUSH2 0x2BF SWAP2 SWAP1 PUSH2 0x2129 JUMP JUMPDEST PUSH2 0x1380 JUMP JUMPDEST PUSH1 0x40 MLOAD PUSH2 0x2D1 SWAP2 SWAP1 PUSH2 0x22B9 JUMP JUMPDEST PUSH1 0x40 MLOAD DUP1 SWAP2 SUB SWAP1 RETURN JUMPDEST PUSH2 0x2F4 PUSH1 0x4 DUP1 CALLDATASIZE SUB DUP2 ADD SWAP1 PUSH2 0x2EF SWAP2 SWAP1 PUSH2 0x1F25 JUMP JUMPDEST PUSH2 0x1442 JUMP JUMPDEST PUSH1 0x40 MLOAD PUSH2 0x301 SWAP2 SWAP1 PUSH2 0x2402 JUMP JUMPDEST PUSH1 0x40 MLOAD DUP1 SWAP2 SUB SWAP1 RETURN JUMPDEST PUSH2 0x324 PUSH1 0x4 DUP1 CALLDATASIZE SUB DUP2 ADD SWAP1 PUSH2 0x31F SWAP2 SWAP1 PUSH2 0x1FB0 JUMP JUMPDEST PUSH2 0x1519 JUMP JUMPDEST STOP JUMPDEST PUSH2 0x32E PUSH2 0x15D9 JUMP JUMPDEST PUSH1 0x40 MLOAD PUSH2 0x33B SWAP2 SWAP1 PUSH2 0x21AC JUMP JUMPDEST PUSH1 0x40 MLOAD DUP1 SWAP2 SUB SWAP1 RETURN JUMPDEST PUSH2 0x35E PUSH1 0x4 DUP1 CALLDATASIZE SUB DUP2 ADD SWAP1 PUSH2 0x359 SWAP2 SWAP1 PUSH2 0x241E JUMP JUMPDEST PUSH2 0x1603 JUMP JUMPDEST STOP JUMPDEST PUSH2 0x37A PUSH1 0x4 DUP1 CALLDATASIZE SUB DUP2 ADD SWAP1 PUSH2 0x375 SWAP2 SWAP1 PUSH2 0x266C JUMP JUMPDEST PUSH2 0x1817 JUMP JUMPDEST PUSH1 0x40 MLOAD PUSH2 0x387 SWAP2 SWAP1 PUSH2 0x274A JUMP JUMPDEST PUSH1 0x40 MLOAD DUP1 SWAP2 SUB SWAP1 RETURN JUMPDEST PUSH2 0x3AA PUSH1 0x4 DUP1 CALLDATASIZE SUB DUP2 ADD SWAP1 PUSH2 0x3A5 SWAP2 SWAP1 PUSH2 0x278A JUMP JUMPDEST PUSH2 0x182C JUMP JUMPDEST STOP JUMPDEST PUSH2 0x3B4 PUSH2 0x1A82 JUMP JUMPDEST PUSH1 0x40 MLOAD PUSH2 0x3C1 SWAP2 SWAP1 PUSH2 0x2182 JUMP JUMPDEST PUSH1 0x40 MLOAD DUP1 SWAP2 SUB SWAP1 RETURN JUMPDEST PUSH2 0x3E4 PUSH1 0x4 DUP1 CALLDATASIZE SUB DUP2 ADD SWAP1 PUSH2 0x3DF SWAP2 SWAP1 PUSH2 0x2805 JUMP JUMPDEST PUSH2 0x1A88 JUMP JUMPDEST PUSH1 0x40 MLOAD PUSH2 0x3F1 SWAP2 SWAP1 PUSH2 0x274A JUMP JUMPDEST PUSH1 0x40 MLOAD DUP1 SWAP2 SUB SWAP1 RETURN JUMPDEST PUSH2 0x414 PUSH1 0x4 DUP1 CALLDATASIZE SUB DUP2 ADD SWAP1 PUSH2 0x40F SWAP2 SWAP1 PUSH2 0x1FB0 JUMP JUMPDEST PUSH2 0x1A9D JUMP JUMPDEST STOP JUMPDEST PUSH2 0x430 PUSH1 0x4 DUP1 CALLDATASIZE SUB DUP2 ADD SWAP1 PUSH2 0x42B SWAP2 SWAP1 PUSH2 0x289C JUMP JUMPDEST PUSH2 0x1B94 JUMP JUMPDEST STOP JUMPDEST PUSH2 0x43A PUSH2 0x1C1A JUMP JUMPDEST PUSH1 0x40 MLOAD PUSH2 0x447 SWAP2 SWAP1 PUSH2 0x21AC JUMP JUMPDEST PUSH1 0x40 MLOAD DUP1 SWAP2 SUB SWAP1 RETURN JUMPDEST PUSH2 0x458 PUSH2 0x1C40 JUMP JUMPDEST PUSH1 0x40 MLOAD PUSH2 0x465 SWAP2 SWAP1 PUSH2 0x28D8 JUMP JUMPDEST PUSH1 0x40 MLOAD DUP1 SWAP2 SUB SWAP1 RETURN JUMPDEST PUSH1 0x0 PUSH32 0x4E2312E000000000000000000000000000000000000000000000000000000000 PUSH28 0xFFFFFFFFFFFFFFFFFFFFFFFFFFFFFFFFFFFFFFFFFFFFFFFFFFFFFFFF NOT AND DUP3 PUSH28 0xFFFFFFFFFFFFFFFFFFFFFFFFFFFFFFFFFFFFFFFFFFFFFFFFFFFFFFFF NOT AND EQ DUP1 PUSH2 0x4E1 JUMPI POP PUSH2 0x4E0 DUP3 PUSH2 0x1C54 JUMP JUMPDEST JUMPDEST SWAP1 POP SWAP2 SWAP1 POP JUMP JUMPDEST PUSH1 0x0 PUSH2 0x4F4 CALLER DUP4 PUSH2 0xA6D JUMP JUMPDEST SWAP1 POP PUSH1 0x0 PUSH1 0x6 PUSH1 0x0 CALLER PUSH20 0xFFFFFFFFFFFFFFFFFFFFFFFFFFFFFFFFFFFFFFFF AND PUSH20 0xFFFFFFFFFFFFFFFFFFFFFFFFFFFFFFFFFFFFFFFF AND DUP2 MSTORE PUSH1 0x20 ADD SWAP1 DUP2 MSTORE PUSH1 0x20 ADD PUSH1 0x0 KECCAK256 PUSH1 0x0 DUP5 PUSH2 0xFFFF AND PUSH2 0xFFFF AND DUP2 MSTORE PUSH1 0x20 ADD SWAP1 DUP2 MSTORE PUSH1 0x20 ADD PUSH1 0x0 KECCAK256 PUSH1 0x40 MLOAD DUP1 PUSH1 0x80 ADD PUSH1 0x40 MSTORE SWAP1 DUP2 PUSH1 0x0 DUP3 ADD PUSH1 0x0 SWAP1 SLOAD SWAP1 PUSH2 0x100 EXP SWAP1 DIV PUSH2 0xFFFF AND PUSH2 0xFFFF AND PUSH2 0xFFFF AND DUP2 MSTORE PUSH1 0x20 ADD PUSH1 0x1 DUP3 ADD SLOAD DUP2 MSTORE PUSH1 0x20 ADD PUSH1 0x2 DUP3 ADD SLOAD DUP2 MSTORE PUSH1 0x20 ADD PUSH1 0x3 DUP3 ADD PUSH1 0x0 SWAP1 SLOAD SWAP1 PUSH2 0x100 EXP SWAP1 DIV PUSH1 0xFF AND ISZERO ISZERO ISZERO ISZERO DUP2 MSTORE POP POP SWAP1 POP PUSH1 0x0 DUP1 PUSH1 0x0 PUSH1 0x5 PUSH1 0x0 DUP8 PUSH2 0xFFFF AND PUSH2 0xFFFF AND DUP2 MSTORE PUSH1 0x20 ADD SWAP1 DUP2 MSTORE PUSH1 0x20 ADD PUSH1 0x0 KECCAK256 PUSH1 0x40 MLOAD DUP1 PUSH2 0x120 ADD PUSH1 0x40 MSTORE SWAP1 DUP2 PUSH1 0x0 DUP3 ADD PUSH1 0x0 SWAP1 SLOAD SWAP1 PUSH2 0x100 EXP SWAP1 DIV PUSH1 0xFF AND PUSH1 0x1 DUP2 GT ISZERO PUSH2 0x5FD JUMPI PUSH2 0x5FC PUSH2 0x22D4 JUMP JUMPDEST JUMPDEST PUSH1 0x1 DUP2 GT ISZERO PUSH2 0x60F JUMPI PUSH2 0x60E PUSH2 0x22D4 JUMP JUMPDEST JUMPDEST DUP2 MSTORE PUSH1 0x20 ADD PUSH1 0x0 DUP3 ADD PUSH1 0x1 SWAP1 SLOAD SWAP1 PUSH2 0x100 EXP SWAP1 DIV PUSH2 0xFFFF AND PUSH2 0xFFFF AND PUSH2 0xFFFF AND DUP2 MSTORE PUSH1 0x20 ADD PUSH1 0x1 DUP3 ADD SLOAD DUP2 MSTORE PUSH1 0x20 ADD PUSH1 0x2 DUP3 ADD SLOAD DUP2 MSTORE PUSH1 0x20 ADD PUSH1 0x3 DUP3 ADD SLOAD DUP2 MSTORE PUSH1 0x20 ADD PUSH1 0x4 DUP3 ADD SLOAD DUP2 MSTORE PUSH1 0x20 ADD PUSH1 0x5 DUP3 ADD SLOAD DUP2 MSTORE PUSH1 0x20 ADD PUSH1 0x6 DUP3 ADD SLOAD DUP2 MSTORE PUSH1 0x20 ADD PUSH1 0x7 DUP3 ADD SLOAD DUP2 MSTORE POP POP SWAP1 POP DUP1 PUSH1 0x80 ADD MLOAD DUP2 PUSH2 0x100 ADD MLOAD SUB PUSH2 0x69E JUMPI DUP1 PUSH1 0x80 ADD MLOAD SWAP3 POP DUP4 PUSH1 0x20 ADD MLOAD SWAP2 POP PUSH2 0x6AD JUMP JUMPDEST DUP1 PUSH1 0xA0 ADD MLOAD SWAP3 POP DUP1 PUSH1 0xA0 ADD MLOAD SWAP2 POP JUMPDEST PUSH1 0x2 PUSH1 0x0 SWAP1 SLOAD SWAP1 PUSH2 0x100 EXP SWAP1 DIV PUSH20 0xFFFFFFFFFFFFFFFFFFFFFFFFFFFFFFFFFFFFFFFF AND PUSH20 0xFFFFFFFFFFFFFFFFFFFFFFFFFFFFFFFFFFFFFFFF AND PUSH4 0xF242432A ADDRESS CALLER DUP7 DUP7 PUSH1 0x40 MLOAD DUP6 PUSH4 0xFFFFFFFF AND PUSH1 0xE0 SHL DUP2 MSTORE PUSH1 0x4 ADD PUSH2 0x70E SWAP5 SWAP4 SWAP3 SWAP2 SWAP1 PUSH2 0x292A JUMP JUMPDEST PUSH1 0x0 PUSH1 0x40 MLOAD DUP1 DUP4 SUB DUP2 PUSH1 0x0 DUP8 DUP1 EXTCODESIZE ISZERO DUP1 ISZERO PUSH2 0x728 JUMPI PUSH1 0x0 DUP1 REVERT JUMPDEST POP GAS CALL ISZERO DUP1 ISZERO PUSH2 0x73C JUMPI RETURNDATASIZE PUSH1 0x0 DUP1 RETURNDATACOPY RETURNDATASIZE PUSH1 0x0 REVERT JUMPDEST POP POP POP POP PUSH1 0x3 PUSH1 0x0 SWAP1 SLOAD SWAP1 PUSH2 0x100 EXP SWAP1 DIV PUSH20 0xFFFFFFFFFFFFFFFFFFFFFFFFFFFFFFFFFFFFFFFF AND PUSH20 0xFFFFFFFFFFFFFFFFFFFFFFFFFFFFFFFFFFFFFFFF AND PUSH4 0xA9059CBB CALLER DUP8 PUSH1 0x40 MLOAD DUP4 PUSH4 0xFFFFFFFF AND PUSH1 0xE0 SHL DUP2 MSTORE PUSH1 0x4 ADD PUSH2 0x79D SWAP3 SWAP2 SWAP1 PUSH2 0x2982 JUMP JUMPDEST PUSH1 0x20 PUSH1 0x40 MLOAD DUP1 DUP4 SUB DUP2 PUSH1 0x0 DUP8 GAS CALL ISZERO DUP1 ISZERO PUSH2 0x7BC JUMPI RETURNDATASIZE PUSH1 0x0 DUP1 RETURNDATACOPY RETURNDATASIZE PUSH1 0x0 REVERT JUMPDEST POP POP POP POP PUSH1 0x40 MLOAD RETURNDATASIZE PUSH1 0x1F NOT PUSH1 0x1F DUP3 ADD AND DUP3 ADD DUP1 PUSH1 0x40 MSTORE POP DUP2 ADD SWAP1 PUSH2 0x7E0 SWAP2 SWAP1 PUSH2 0x29C0 JUMP JUMPDEST POP CALLER PUSH20 0xFFFFFFFFFFFFFFFFFFFFFFFFFFFFFFFFFFFFFFFF AND PUSH32 0x37928B7E81BCB91F89AB0BC4EB993473DE24975366BEBF5B4E1E946F2C948807 DUP3 PUSH1 0x20 ADD MLOAD DUP8 PUSH1 0x40 MLOAD PUSH2 0x82D SWAP3 SWAP2 SWAP1 PUSH2 0x29ED JUMP JUMPDEST PUSH1 0x40 MLOAD DUP1 SWAP2 SUB SWAP1 LOG2 POP POP POP POP POP POP JUMP JUMPDEST PUSH1 0x60 PUSH1 0x7 PUSH1 0x0 DUP4 PUSH20 0xFFFFFFFFFFFFFFFFFFFFFFFFFFFFFFFFFFFFFFFF AND PUSH20 0xFFFFFFFFFFFFFFFFFFFFFFFFFFFFFFFFFFFFFFFF AND DUP2 MSTORE PUSH1 0x20 ADD SWAP1 DUP2 MSTORE PUSH1 0x20 ADD PUSH1 0x0 KECCAK256 DUP1 SLOAD DUP1 PUSH1 0x20 MUL PUSH1 0x20 ADD PUSH1 0x40 MLOAD SWAP1 DUP2 ADD PUSH1 0x40 MSTORE DUP1 SWAP3 SWAP2 SWAP1 DUP2 DUP2 MSTORE PUSH1 0x20 ADD DUP3 DUP1 SLOAD DUP1 ISZERO PUSH2 0x8F0 JUMPI PUSH1 0x20 MUL DUP3 ADD SWAP2 SWAP1 PUSH1 0x0 MSTORE PUSH1 0x20 PUSH1 0x0 KECCAK256 SWAP1 PUSH1 0x0 SWAP1 JUMPDEST DUP3 DUP3 SWAP1 SLOAD SWAP1 PUSH2 0x100 EXP SWAP1 DIV PUSH2 0xFFFF AND PUSH2 0xFFFF AND DUP2 MSTORE PUSH1 0x20 ADD SWAP1 PUSH1 0x2 ADD SWAP1 PUSH1 0x20 DUP3 PUSH1 0x1 ADD DIV SWAP3 DUP4 ADD SWAP3 PUSH1 0x1 SUB DUP3 MUL SWAP2 POP DUP1 DUP5 GT PUSH2 0x8B7 JUMPI SWAP1 POP JUMPDEST POP POP POP POP POP SWAP1 POP SWAP2 SWAP1 POP JUMP JUMPDEST PUSH2 0x904 PUSH2 0x1CBE JUMP JUMPDEST PUSH20 0xFFFFFFFFFFFFFFFFFFFFFFFFFFFFFFFFFFFFFFFF AND PUSH2 0x922 PUSH2 0x15D9 JUMP JUMPDEST PUSH20 0xFFFFFFFFFFFFFFFFFFFFFFFFFFFFFFFFFFFFFFFF AND EQ PUSH2 0x978 JUMPI PUSH1 0x40 MLOAD PUSH32 0x8C379A000000000000000000000000000000000000000000000000000000000 DUP2 MSTORE PUSH1 0x4 ADD PUSH2 0x96F SWAP1 PUSH2 0x2A99 JUMP JUMPDEST PUSH1 0x40 MLOAD DUP1 SWAP2 SUB SWAP1 REVERT JUMPDEST DUP2 PUSH20 0xFFFFFFFFFFFFFFFFFFFFFFFFFFFFFFFFFFFFFFFF AND PUSH32 0x82F1FA40A3D82DEA3E406073819290601F436580AA7C69F9FEB61F885BDD8854 PUSH1 0x0 DUP1 DUP6 PUSH20 0xFFFFFFFFFFFFFFFFFFFFFFFFFFFFFFFFFFFFFFFF AND PUSH20 0xFFFFFFFFFFFFFFFFFFFFFFFFFFFFFFFFFFFFFFFF AND DUP2 MSTORE PUSH1 0x20 ADD SWAP1 DUP2 MSTORE PUSH1 0x20 ADD PUSH1 0x0 KECCAK256 PUSH1 0x0 SWAP1 SLOAD SWAP1 PUSH2 0x100 EXP SWAP1 DIV PUSH1 0xFF AND DUP4 PUSH1 0x40 MLOAD PUSH2 0xA0B SWAP3 SWAP2 SWAP1 PUSH2 0x2AB9 JUMP JUMPDEST PUSH1 0x40 MLOAD DUP1 SWAP2 SUB SWAP1 LOG2 DUP1 PUSH1 0x0 DUP1 DUP5 PUSH20 0xFFFFFFFFFFFFFFFFFFFFFFFFFFFFFFFFFFFFFFFF AND PUSH20 0xFFFFFFFFFFFFFFFFFFFFFFFFFFFFFFFFFFFFFFFF AND DUP2 MSTORE PUSH1 0x20 ADD SWAP1 DUP2 MSTORE PUSH1 0x20 ADD PUSH1 0x0 KECCAK256 PUSH1 0x0 PUSH2 0x100 EXP DUP2 SLOAD DUP2 PUSH1 0xFF MUL NOT AND SWAP1 DUP4 ISZERO ISZERO MUL OR SWAP1 SSTORE POP POP POP JUMP JUMPDEST PUSH1 0x0 DUP1 PUSH1 0x5 PUSH1 0x0 DUP5 PUSH2 0xFFFF AND PUSH2 0xFFFF AND DUP2 MSTORE PUSH1 0x20 ADD SWAP1 DUP2 MSTORE PUSH1 0x20 ADD PUSH1 0x0 KECCAK256 PUSH1 0x40 MLOAD DUP1 PUSH2 0x120 ADD PUSH1 0x40 MSTORE SWAP1 DUP2 PUSH1 0x0 DUP3 ADD PUSH1 0x0 SWAP1 SLOAD SWAP1 PUSH2 0x100 EXP SWAP1 DIV PUSH1 0xFF AND PUSH1 0x1 DUP2 GT ISZERO PUSH2 0xABC JUMPI PUSH2 0xABB PUSH2 0x22D4 JUMP JUMPDEST JUMPDEST PUSH1 0x1 DUP2 GT ISZERO PUSH2 0xACE JUMPI PUSH2 0xACD PUSH2 0x22D4 JUMP JUMPDEST JUMPDEST DUP2 MSTORE PUSH1 0x20 ADD PUSH1 0x0 DUP3 ADD PUSH1 0x1 SWAP1 SLOAD SWAP1 PUSH2 0x100 EXP SWAP1 DIV PUSH2 0xFFFF AND PUSH2 0xFFFF AND PUSH2 0xFFFF AND DUP2 MSTORE PUSH1 0x20 ADD PUSH1 0x1 DUP3 ADD SLOAD DUP2 MSTORE PUSH1 0x20 ADD PUSH1 0x2 DUP3 ADD SLOAD DUP2 MSTORE PUSH1 0x20 ADD PUSH1 0x3 DUP3 ADD SLOAD DUP2 MSTORE PUSH1 0x20 ADD PUSH1 0x4 DUP3 ADD SLOAD DUP2 MSTORE PUSH1 0x20 ADD PUSH1 0x5 DUP3 ADD SLOAD DUP2 MSTORE PUSH1 0x20 ADD PUSH1 0x6 DUP3 ADD SLOAD DUP2 MSTORE PUSH1 0x20 ADD PUSH1 0x7 DUP3 ADD SLOAD DUP2 MSTORE POP POP SWAP1 POP PUSH1 0x0 DUP2 PUSH1 0x20 ADD MLOAD PUSH2 0xFFFF AND SUB PUSH2 0xB54 JUMPI PUSH1 0x0 SWAP2 POP POP PUSH2 0xC77 JUMP JUMPDEST PUSH1 0x0 PUSH1 0x6 PUSH1 0x0 DUP7 PUSH20 0xFFFFFFFFFFFFFFFFFFFFFFFFFFFFFFFFFFFFFFFF AND PUSH20 0xFFFFFFFFFFFFFFFFFFFFFFFFFFFFFFFFFFFFFFFF AND DUP2 MSTORE PUSH1 0x20 ADD SWAP1 DUP2 MSTORE PUSH1 0x20 ADD PUSH1 0x0 KECCAK256 PUSH1 0x0 DUP6 PUSH2 0xFFFF AND PUSH2 0xFFFF AND DUP2 MSTORE PUSH1 0x20 ADD SWAP1 DUP2 MSTORE PUSH1 0x20 ADD PUSH1 0x0 KECCAK256 PUSH1 0x40 MLOAD DUP1 PUSH1 0x80 ADD PUSH1 0x40 MSTORE SWAP1 DUP2 PUSH1 0x0 DUP3 ADD PUSH1 0x0 SWAP1 SLOAD SWAP1 PUSH2 0x100 EXP SWAP1 DIV PUSH2 0xFFFF AND PUSH2 0xFFFF AND PUSH2 0xFFFF AND DUP2 MSTORE PUSH1 0x20 ADD PUSH1 0x1 DUP3 ADD SLOAD DUP2 MSTORE PUSH1 0x20 ADD PUSH1 0x2 DUP3 ADD SLOAD DUP2 MSTORE PUSH1 0x20 ADD PUSH1 0x3 DUP3 ADD PUSH1 0x0 SWAP1 SLOAD SWAP1 PUSH2 0x100 EXP SWAP1 DIV PUSH1 0xFF AND ISZERO ISZERO ISZERO ISZERO DUP2 MSTORE POP POP SWAP1 POP PUSH1 0x0 DUP2 PUSH1 0x0 ADD MLOAD PUSH2 0xFFFF AND SUB PUSH2 0xC25 JUMPI PUSH1 0x0 SWAP3 POP POP POP PUSH2 0xC77 JUMP JUMPDEST PUSH1 0x0 DUP3 PUSH1 0x80 ADD MLOAD DUP4 PUSH2 0x100 ADD MLOAD SUB PUSH2 0xC43 JUMPI DUP2 PUSH1 0x20 ADD MLOAD SWAP1 POP PUSH2 0xC4B JUMP JUMPDEST DUP2 PUSH1 0x40 ADD MLOAD SWAP1 POP JUMPDEST PUSH1 0x64 PUSH1 0x50 PUSH1 0x4 SLOAD DUP4 PUSH2 0xC5D SWAP2 SWAP1 PUSH2 0x2B11 JUMP JUMPDEST PUSH2 0xC67 SWAP2 SWAP1 PUSH2 0x2B11 JUMP JUMPDEST PUSH2 0xC71 SWAP2 SWAP1 PUSH2 0x2B9A JUMP JUMPDEST SWAP4 POP POP POP POP JUMPDEST SWAP3 SWAP2 POP POP JUMP JUMPDEST PUSH1 0x0 DUP1 PUSH1 0x0 DUP4 PUSH20 0xFFFFFFFFFFFFFFFFFFFFFFFFFFFFFFFFFFFFFFFF AND PUSH20 0xFFFFFFFFFFFFFFFFFFFFFFFFFFFFFFFFFFFFFFFF AND DUP2 MSTORE PUSH1 0x20 ADD SWAP1 DUP2 MSTORE PUSH1 0x20 ADD PUSH1 0x0 KECCAK256 PUSH1 0x0 SWAP1 SLOAD SWAP1 PUSH2 0x100 EXP SWAP1 DIV PUSH1 0xFF AND SWAP1 POP SWAP2 SWAP1 POP JUMP JUMPDEST PUSH1 0x2 PUSH1 0x0 SWAP1 SLOAD SWAP1 PUSH2 0x100 EXP SWAP1 DIV PUSH20 0xFFFFFFFFFFFFFFFFFFFFFFFFFFFFFFFFFFFFFFFF AND DUP2 JUMP JUMPDEST PUSH1 0x0 DUP2 GT PUSH2 0xD3B JUMPI PUSH1 0x40 MLOAD PUSH32 0x8C379A000000000000000000000000000000000000000000000000000000000 DUP2 MSTORE PUSH1 0x4 ADD PUSH2 0xD32 SWAP1 PUSH2 0x2C17 JUMP JUMPDEST PUSH1 0x40 MLOAD DUP1 SWAP2 SUB SWAP1 REVERT JUMPDEST PUSH1 0x0 PUSH1 0x5 PUSH1 0x0 DUP6 PUSH2 0xFFFF AND PUSH2 0xFFFF AND DUP2 MSTORE PUSH1 0x20 ADD SWAP1 DUP2 MSTORE PUSH1 0x20 ADD PUSH1 0x0 KECCAK256 PUSH1 0x40 MLOAD DUP1 PUSH2 0x120 ADD PUSH1 0x40 MSTORE SWAP1 DUP2 PUSH1 0x0 DUP3 ADD PUSH1 0x0 SWAP1 SLOAD SWAP1 PUSH2 0x100 EXP SWAP1 DIV PUSH1 0xFF AND PUSH1 0x1 DUP2 GT ISZERO PUSH2 0xD89 JUMPI PUSH2 0xD88 PUSH2 0x22D4 JUMP JUMPDEST JUMPDEST PUSH1 0x1 DUP2 GT ISZERO PUSH2 0xD9B JUMPI PUSH2 0xD9A PUSH2 0x22D4 JUMP JUMPDEST JUMPDEST DUP2 MSTORE PUSH1 0x20 ADD PUSH1 0x0 DUP3 ADD PUSH1 0x1 SWAP1 SLOAD SWAP1 PUSH2 0x100 EXP SWAP1 DIV PUSH2 0xFFFF AND PUSH2 0xFFFF AND PUSH2 0xFFFF AND DUP2 MSTORE PUSH1 0x20 ADD PUSH1 0x1 DUP3 ADD SLOAD DUP2 MSTORE PUSH1 0x20 ADD PUSH1 0x2 DUP3 ADD SLOAD DUP2 MSTORE PUSH1 0x20 ADD PUSH1 0x3 DUP3 ADD SLOAD DUP2 MSTORE PUSH1 0x20 ADD PUSH1 0x4 DUP3 ADD SLOAD DUP2 MSTORE PUSH1 0x20 ADD PUSH1 0x5 DUP3 ADD SLOAD DUP2 MSTORE PUSH1 0x20 ADD PUSH1 0x6 DUP3 ADD SLOAD DUP2 MSTORE PUSH1 0x20 ADD PUSH1 0x7 DUP3 ADD SLOAD DUP2 MSTORE POP POP SWAP1 POP PUSH1 0x0 DUP2 PUSH1 0x20 ADD MLOAD PUSH2 0xFFFF AND SUB PUSH2 0xE52 JUMPI PUSH1 0x40 MLOAD PUSH32 0x8C379A000000000000000000000000000000000000000000000000000000000 DUP2 MSTORE PUSH1 0x4 ADD PUSH2 0xE49 SWAP1 PUSH2 0x2C83 JUMP JUMPDEST PUSH1 0x40 MLOAD DUP1 SWAP2 SUB SWAP1 REVERT JUMPDEST TIMESTAMP DUP2 PUSH1 0x40 ADD MLOAD GT ISZERO PUSH2 0xE99 JUMPI PUSH1 0x40 MLOAD PUSH32 0x8C379A000000000000000000000000000000000000000000000000000000000 DUP2 MSTORE PUSH1 0x4 ADD PUSH2 0xE90 SWAP1 PUSH2 0x2CEF JUMP JUMPDEST PUSH1 0x40 MLOAD DUP1 SWAP2 SUB SWAP1 REVERT JUMPDEST DUP3 DUP2 PUSH1 0x80 ADD MLOAD EQ DUP1 PUSH2 0xEAE JUMPI POP DUP3 DUP2 PUSH1 0xA0 ADD MLOAD EQ JUMPDEST PUSH2 0xEED JUMPI PUSH1 0x40 MLOAD PUSH32 0x8C379A000000000000000000000000000000000000000000000000000000000 DUP2 MSTORE PUSH1 0x4 ADD PUSH2 0xEE4 SWAP1 PUSH2 0x2D5B JUMP JUMPDEST PUSH1 0x40 MLOAD DUP1 SWAP2 SUB SWAP1 REVERT JUMPDEST PUSH1 0x2 PUSH1 0x0 SWAP1 SLOAD SWAP1 PUSH2 0x100 EXP SWAP1 DIV PUSH20 0xFFFFFFFFFFFFFFFFFFFFFFFFFFFFFFFFFFFFFFFF AND PUSH20 0xFFFFFFFFFFFFFFFFFFFFFFFFFFFFFFFFFFFFFFFF AND PUSH4 0xF242432A CALLER ADDRESS DUP7 DUP7 PUSH1 0x40 MLOAD DUP6 PUSH4 0xFFFFFFFF AND PUSH1 0xE0 SHL DUP2 MSTORE PUSH1 0x4 ADD PUSH2 0xF4E SWAP5 SWAP4 SWAP3 SWAP2 SWAP1 PUSH2 0x292A JUMP JUMPDEST PUSH1 0x0 PUSH1 0x40 MLOAD DUP1 DUP4 SUB DUP2 PUSH1 0x0 DUP8 DUP1 EXTCODESIZE ISZERO DUP1 ISZERO PUSH2 0xF68 JUMPI PUSH1 0x0 DUP1 REVERT JUMPDEST POP GAS CALL ISZERO DUP1 ISZERO PUSH2 0xF7C JUMPI RETURNDATASIZE PUSH1 0x0 DUP1 RETURNDATACOPY RETURNDATASIZE PUSH1 0x0 REVERT JUMPDEST POP POP POP POP PUSH1 0x0 PUSH1 0x6 PUSH1 0x0 CALLER PUSH20 0xFFFFFFFFFFFFFFFFFFFFFFFFFFFFFFFFFFFFFFFF AND PUSH20 0xFFFFFFFFFFFFFFFFFFFFFFFFFFFFFFFFFFFFFFFF AND DUP2 MSTORE PUSH1 0x20 ADD SWAP1 DUP2 MSTORE PUSH1 0x20 ADD PUSH1 0x0 KECCAK256 PUSH1 0x0 DUP7 PUSH2 0xFFFF AND PUSH2 0xFFFF AND DUP2 MSTORE PUSH1 0x20 ADD SWAP1 DUP2 MSTORE PUSH1 0x20 ADD PUSH1 0x0 KECCAK256 PUSH1 0x40 MLOAD DUP1 PUSH1 0x80 ADD PUSH1 0x40 MSTORE SWAP1 DUP2 PUSH1 0x0 DUP3 ADD PUSH1 0x0 SWAP1 SLOAD SWAP1 PUSH2 0x100 EXP SWAP1 DIV PUSH2 0xFFFF AND PUSH2 0xFFFF AND PUSH2 0xFFFF AND DUP2 MSTORE PUSH1 0x20 ADD PUSH1 0x1 DUP3 ADD SLOAD DUP2 MSTORE PUSH1 0x20 ADD PUSH1 0x2 DUP3 ADD SLOAD DUP2 MSTORE PUSH1 0x20 ADD PUSH1 0x3 DUP3 ADD PUSH1 0x0 SWAP1 SLOAD SWAP1 PUSH2 0x100 EXP SWAP1 DIV PUSH1 0xFF AND ISZERO ISZERO ISZERO ISZERO DUP2 MSTORE POP POP SWAP1 POP DUP5 DUP2 PUSH1 0x0 ADD SWAP1 PUSH2 0xFFFF AND SWAP1 DUP2 PUSH2 0xFFFF AND DUP2 MSTORE POP POP PUSH1 0x7 PUSH1 0x0 CALLER PUSH20 0xFFFFFFFFFFFFFFFFFFFFFFFFFFFFFFFFFFFFFFFF AND PUSH20 0xFFFFFFFFFFFFFFFFFFFFFFFFFFFFFFFFFFFFFFFF AND DUP2 MSTORE PUSH1 0x20 ADD SWAP1 DUP2 MSTORE PUSH1 0x20 ADD PUSH1 0x0 KECCAK256 DUP6 SWAP1 DUP1 PUSH1 0x1 DUP2 SLOAD ADD DUP1 DUP3 SSTORE DUP1 SWAP2 POP POP PUSH1 0x1 SWAP1 SUB SWAP1 PUSH1 0x0 MSTORE PUSH1 0x20 PUSH1 0x0 KECCAK256 SWAP1 PUSH1 0x10 SWAP2 DUP3 DUP3 DIV ADD SWAP2 SWAP1 MOD PUSH1 0x2 MUL SWAP1 SWAP2 SWAP1 SWAP2 SWAP1 SWAP2 PUSH2 0x100 EXP DUP2 SLOAD DUP2 PUSH2 0xFFFF MUL NOT AND SWAP1 DUP4 PUSH2 0xFFFF AND MUL OR SWAP1 SSTORE POP DUP4 DUP3 PUSH1 0x80 ADD MLOAD SUB PUSH2 0x112F JUMPI DUP3 PUSH1 0x5 PUSH1 0x0 DUP8 PUSH2 0xFFFF AND PUSH2 0xFFFF AND DUP2 MSTORE PUSH1 0x20 ADD SWAP1 DUP2 MSTORE PUSH1 0x20 ADD PUSH1 0x0 KECCAK256 PUSH1 0x5 ADD PUSH1 0x0 DUP3 DUP3 SLOAD PUSH2 0x110A SWAP2 SWAP1 PUSH2 0x2D7B JUMP JUMPDEST SWAP3 POP POP DUP2 SWAP1 SSTORE POP DUP3 DUP2 PUSH1 0x20 ADD DUP2 DUP2 MLOAD PUSH2 0x1123 SWAP2 SWAP1 PUSH2 0x2D7B JUMP JUMPDEST SWAP2 POP DUP2 DUP2 MSTORE POP POP PUSH2 0x117E JUMP JUMPDEST DUP3 PUSH1 0x5 PUSH1 0x0 DUP8 PUSH2 0xFFFF AND PUSH2 0xFFFF AND DUP2 MSTORE PUSH1 0x20 ADD SWAP1 DUP2 MSTORE PUSH1 0x20 ADD PUSH1 0x0 KECCAK256 PUSH1 0x6 ADD PUSH1 0x0 DUP3 DUP3 SLOAD PUSH2 0x115D SWAP2 SWAP1 PUSH2 0x2D7B JUMP JUMPDEST SWAP3 POP POP DUP2 SWAP1 SSTORE POP DUP3 DUP2 PUSH1 0x40 ADD DUP2 DUP2 MLOAD PUSH2 0x1176 SWAP2 SWAP1 PUSH2 0x2D7B JUMP JUMPDEST SWAP2 POP DUP2 DUP2 MSTORE POP POP JUMPDEST DUP1 PUSH1 0x6 PUSH1 0x0 CALLER PUSH20 0xFFFFFFFFFFFFFFFFFFFFFFFFFFFFFFFFFFFFFFFF AND PUSH20 0xFFFFFFFFFFFFFFFFFFFFFFFFFFFFFFFFFFFFFFFF AND DUP2 MSTORE PUSH1 0x20 ADD SWAP1 DUP2 MSTORE PUSH1 0x20 ADD PUSH1 0x0 KECCAK256 PUSH1 0x0 DUP8 PUSH2 0xFFFF AND PUSH2 0xFFFF AND DUP2 MSTORE PUSH1 0x20 ADD SWAP1 DUP2 MSTORE PUSH1 0x20 ADD PUSH1 0x0 KECCAK256 PUSH1 0x0 DUP3 ADD MLOAD DUP2 PUSH1 0x0 ADD PUSH1 0x0 PUSH2 0x100 EXP DUP2 SLOAD DUP2 PUSH2 0xFFFF MUL NOT AND SWAP1 DUP4 PUSH2 0xFFFF AND MUL OR SWAP1 SSTORE POP PUSH1 0x20 DUP3 ADD MLOAD DUP2 PUSH1 0x1 ADD SSTORE PUSH1 0x40 DUP3 ADD MLOAD DUP2 PUSH1 0x2 ADD SSTORE PUSH1 0x60 DUP3 ADD MLOAD DUP2 PUSH1 0x3 ADD PUSH1 0x0 PUSH2 0x100 EXP DUP2 SLOAD DUP2 PUSH1 0xFF MUL NOT AND SWAP1 DUP4 ISZERO ISZERO MUL OR SWAP1 SSTORE POP SWAP1 POP POP POP POP POP POP POP JUMP JUMPDEST PUSH2 0x1240 PUSH2 0x1CBE JUMP JUMPDEST PUSH20 0xFFFFFFFFFFFFFFFFFFFFFFFFFFFFFFFFFFFFFFFF AND PUSH2 0x125E PUSH2 0x15D9 JUMP JUMPDEST PUSH20 0xFFFFFFFFFFFFFFFFFFFFFFFFFFFFFFFFFFFFFFFF AND EQ PUSH2 0x12B4 JUMPI PUSH1 0x40 MLOAD PUSH32 0x8C379A000000000000000000000000000000000000000000000000000000000 DUP2 MSTORE PUSH1 0x4 ADD PUSH2 0x12AB SWAP1 PUSH2 0x2A99 JUMP JUMPDEST PUSH1 0x40 MLOAD DUP1 SWAP2 SUB SWAP1 REVERT JUMPDEST DUP1 PUSH1 0x2 PUSH1 0x0 PUSH2 0x100 EXP DUP2 SLOAD DUP2 PUSH20 0xFFFFFFFFFFFFFFFFFFFFFFFFFFFFFFFFFFFFFFFF MUL NOT AND SWAP1 DUP4 PUSH20 0xFFFFFFFFFFFFFFFFFFFFFFFFFFFFFFFFFFFFFFFF AND MUL OR SWAP1 SSTORE POP POP JUMP JUMPDEST PUSH2 0x1300 PUSH2 0x1CBE JUMP JUMPDEST PUSH20 0xFFFFFFFFFFFFFFFFFFFFFFFFFFFFFFFFFFFFFFFF AND PUSH2 0x131E PUSH2 0x15D9 JUMP JUMPDEST PUSH20 0xFFFFFFFFFFFFFFFFFFFFFFFFFFFFFFFFFFFFFFFF AND EQ PUSH2 0x1374 JUMPI PUSH1 0x40 MLOAD PUSH32 0x8C379A000000000000000000000000000000000000000000000000000000000 DUP2 MSTORE PUSH1 0x4 ADD PUSH2 0x136B SWAP1 PUSH2 0x2A99 JUMP JUMPDEST PUSH1 0x40 MLOAD DUP1 SWAP2 SUB SWAP1 REVERT JUMPDEST PUSH2 0x137E PUSH1 0x0 PUSH2 0x1CC6 JUMP JUMPDEST JUMP JUMPDEST PUSH2 0x1388 PUSH2 0x1D8C JUMP JUMPDEST PUSH1 0x6 PUSH1 0x0 DUP5 PUSH20 0xFFFFFFFFFFFFFFFFFFFFFFFFFFFFFFFFFFFFFFFF AND PUSH20 0xFFFFFFFFFFFFFFFFFFFFFFFFFFFFFFFFFFFFFFFF AND DUP2 MSTORE PUSH1 0x20 ADD SWAP1 DUP2 MSTORE PUSH1 0x20 ADD PUSH1 0x0 KECCAK256 PUSH1 0x0 DUP4 PUSH2 0xFFFF AND PUSH2 0xFFFF AND DUP2 MSTORE PUSH1 0x20 ADD SWAP1 DUP2 MSTORE PUSH1 0x20 ADD PUSH1 0x0 KECCAK256 PUSH1 0x40 MLOAD DUP1 PUSH1 0x80 ADD PUSH1 0x40 MSTORE SWAP1 DUP2 PUSH1 0x0 DUP3 ADD PUSH1 0x0 SWAP1 SLOAD SWAP1 PUSH2 0x100 EXP SWAP1 DIV PUSH2 0xFFFF AND PUSH2 0xFFFF AND PUSH2 0xFFFF AND DUP2 MSTORE PUSH1 0x20 ADD PUSH1 0x1 DUP3 ADD SLOAD DUP2 MSTORE PUSH1 0x20 ADD PUSH1 0x2 DUP3 ADD SLOAD DUP2 MSTORE PUSH1 0x20 ADD PUSH1 0x3 DUP3 ADD PUSH1 0x0 SWAP1 SLOAD SWAP1 PUSH2 0x100 EXP SWAP1 DIV PUSH1 0xFF AND ISZERO ISZERO ISZERO ISZERO DUP2 MSTORE POP POP SWAP1 POP SWAP3 SWAP2 POP POP JUMP JUMPDEST PUSH2 0x144A PUSH2 0x1DBA JUMP JUMPDEST PUSH1 0x5 PUSH1 0x0 DUP4 PUSH2 0xFFFF AND PUSH2 0xFFFF AND DUP2 MSTORE PUSH1 0x20 ADD SWAP1 DUP2 MSTORE PUSH1 0x20 ADD PUSH1 0x0 KECCAK256 PUSH1 0x40 MLOAD DUP1 PUSH2 0x120 ADD PUSH1 0x40 MSTORE SWAP1 DUP2 PUSH1 0x0 DUP3 ADD PUSH1 0x0 SWAP1 SLOAD SWAP1 PUSH2 0x100 EXP SWAP1 DIV PUSH1 0xFF AND PUSH1 0x1 DUP2 GT ISZERO PUSH2 0x1496 JUMPI PUSH2 0x1495 PUSH2 0x22D4 JUMP JUMPDEST JUMPDEST PUSH1 0x1 DUP2 GT ISZERO PUSH2 0x14A8 JUMPI PUSH2 0x14A7 PUSH2 0x22D4 JUMP JUMPDEST JUMPDEST DUP2 MSTORE PUSH1 0x20 ADD PUSH1 0x0 DUP3 ADD PUSH1 0x1 SWAP1 SLOAD SWAP1 PUSH2 0x100 EXP SWAP1 DIV PUSH2 0xFFFF AND PUSH2 0xFFFF AND PUSH2 0xFFFF AND DUP2 MSTORE PUSH1 0x20 ADD PUSH1 0x1 DUP3 ADD SLOAD DUP2 MSTORE PUSH1 0x20 ADD PUSH1 0x2 DUP3 ADD SLOAD DUP2 MSTORE PUSH1 0x20 ADD PUSH1 0x3 DUP3 ADD SLOAD DUP2 MSTORE PUSH1 0x20 ADD PUSH1 0x4 DUP3 ADD SLOAD DUP2 MSTORE PUSH1 0x20 ADD PUSH1 0x5 DUP3 ADD SLOAD DUP2 MSTORE PUSH1 0x20 ADD PUSH1 0x6 DUP3 ADD SLOAD DUP2 MSTORE PUSH1 0x20 ADD PUSH1 0x7 DUP3 ADD SLOAD DUP2 MSTORE POP POP SWAP1 POP SWAP2 SWAP1 POP JUMP JUMPDEST PUSH2 0x1521 PUSH2 0x1CBE JUMP JUMPDEST PUSH20 0xFFFFFFFFFFFFFFFFFFFFFFFFFFFFFFFFFFFFFFFF AND PUSH2 0x153F PUSH2 0x15D9 JUMP JUMPDEST PUSH20 0xFFFFFFFFFFFFFFFFFFFFFFFFFFFFFFFFFFFFFFFF AND EQ PUSH2 0x1595 JUMPI PUSH1 0x40 MLOAD PUSH32 0x8C379A000000000000000000000000000000000000000000000000000000000 DUP2 MSTORE PUSH1 0x4 ADD PUSH2 0x158C SWAP1 PUSH2 0x2A99 JUMP JUMPDEST PUSH1 0x40 MLOAD DUP1 SWAP2 SUB SWAP1 REVERT JUMPDEST DUP1 PUSH1 0x3 PUSH1 0x0 PUSH2 0x100 EXP DUP2 SLOAD DUP2 PUSH20 0xFFFFFFFFFFFFFFFFFFFFFFFFFFFFFFFFFFFFFFFF MUL NOT AND SWAP1 DUP4 PUSH20 0xFFFFFFFFFFFFFFFFFFFFFFFFFFFFFFFFFFFFFFFF AND MUL OR SWAP1 SSTORE POP POP JUMP JUMPDEST PUSH1 0x0 PUSH1 0x1 PUSH1 0x0 SWAP1 SLOAD SWAP1 PUSH2 0x100 EXP SWAP1 DIV PUSH20 0xFFFFFFFFFFFFFFFFFFFFFFFFFFFFFFFFFFFFFFFF AND SWAP1 POP SWAP1 JUMP JUMPDEST PUSH2 0x1613 PUSH2 0x160E PUSH2 0x1CBE JUMP JUMPDEST PUSH2 0xC7D JUMP JUMPDEST PUSH2 0x1652 JUMPI PUSH1 0x40 MLOAD PUSH32 0x8C379A000000000000000000000000000000000000000000000000000000000 DUP2 MSTORE PUSH1 0x4 ADD PUSH2 0x1649 SWAP1 PUSH2 0x2E43 JUMP JUMPDEST PUSH1 0x40 MLOAD DUP1 SWAP2 SUB SWAP1 REVERT JUMPDEST PUSH1 0x0 PUSH1 0x5 PUSH1 0x0 DUP5 PUSH2 0xFFFF AND PUSH2 0xFFFF AND DUP2 MSTORE PUSH1 0x20 ADD SWAP1 DUP2 MSTORE PUSH1 0x20 ADD PUSH1 0x0 KECCAK256 PUSH1 0x40 MLOAD DUP1 PUSH2 0x120 ADD PUSH1 0x40 MSTORE SWAP1 DUP2 PUSH1 0x0 DUP3 ADD PUSH1 0x0 SWAP1 SLOAD SWAP1 PUSH2 0x100 EXP SWAP1 DIV PUSH1 0xFF AND PUSH1 0x1 DUP2 GT ISZERO PUSH2 0x16A0 JUMPI PUSH2 0x169F PUSH2 0x22D4 JUMP JUMPDEST JUMPDEST PUSH1 0x1 DUP2 GT ISZERO PUSH2 0x16B2 JUMPI PUSH2 0x16B1 PUSH2 0x22D4 JUMP JUMPDEST JUMPDEST DUP2 MSTORE PUSH1 0x20 ADD PUSH1 0x0 DUP3 ADD PUSH1 0x1 SWAP1 SLOAD SWAP1 PUSH2 0x100 EXP SWAP1 DIV PUSH2 0xFFFF AND PUSH2 0xFFFF AND PUSH2 0xFFFF AND DUP2 MSTORE PUSH1 0x20 ADD PUSH1 0x1 DUP3 ADD SLOAD DUP2 MSTORE PUSH1 0x20 ADD PUSH1 0x2 DUP3 ADD SLOAD DUP2 MSTORE PUSH1 0x20 ADD PUSH1 0x3 DUP3 ADD SLOAD DUP2 MSTORE PUSH1 0x20 ADD PUSH1 0x4 DUP3 ADD SLOAD DUP2 MSTORE PUSH1 0x20 ADD PUSH1 0x5 DUP3 ADD SLOAD DUP2 MSTORE PUSH1 0x20 ADD PUSH1 0x6 DUP3 ADD SLOAD DUP2 MSTORE PUSH1 0x20 ADD PUSH1 0x7 DUP3 ADD SLOAD DUP2 MSTORE POP POP SWAP1 POP PUSH1 0x0 DUP2 PUSH1 0x20 ADD MLOAD PUSH2 0xFFFF AND GT PUSH2 0x1769 JUMPI PUSH1 0x40 MLOAD PUSH32 0x8C379A000000000000000000000000000000000000000000000000000000000 DUP2 MSTORE PUSH1 0x4 ADD PUSH2 0x1760 SWAP1 PUSH2 0x2EAF JUMP JUMPDEST PUSH1 0x40 MLOAD DUP1 SWAP2 SUB SWAP1 REVERT JUMPDEST TIMESTAMP DUP2 PUSH1 0x40 ADD MLOAD LT PUSH2 0x17AF JUMPI PUSH1 0x40 MLOAD PUSH32 0x8C379A000000000000000000000000000000000000000000000000000000000 DUP2 MSTORE PUSH1 0x4 ADD PUSH2 0x17A6 SWAP1 PUSH2 0x2CEF JUMP JUMPDEST PUSH1 0x40 MLOAD DUP1 SWAP2 SUB SWAP1 REVERT JUMPDEST TIMESTAMP DUP2 PUSH1 0x60 ADD DUP2 DUP2 MSTORE POP POP DUP2 DUP2 PUSH2 0x100 ADD DUP2 DUP2 MSTORE POP POP CALLER PUSH20 0xFFFFFFFFFFFFFFFFFFFFFFFFFFFFFFFFFFFFFFFF AND PUSH32 0x8FDC8870ECD42629E72F8C2EDF272000E1824B081EF420869C8435DA7D78EF61 DUP5 PUSH1 0x40 MLOAD PUSH2 0x180A SWAP2 SWAP1 PUSH2 0x28D8 JUMP JUMPDEST PUSH1 0x40 MLOAD DUP1 SWAP2 SUB SWAP1 LOG2 POP POP POP JUMP JUMPDEST PUSH1 0x0 PUSH4 0xBC197C81 PUSH1 0xE0 SHL SWAP1 POP SWAP6 SWAP5 POP POP POP POP POP JUMP JUMPDEST PUSH2 0x183C PUSH2 0x1837 PUSH2 0x1CBE JUMP JUMPDEST PUSH2 0xC7D JUMP JUMPDEST PUSH2 0x187B JUMPI PUSH1 0x40 MLOAD PUSH32 0x8C379A000000000000000000000000000000000000000000000000000000000 DUP2 MSTORE PUSH1 0x4 ADD PUSH2 0x1872 SWAP1 PUSH2 0x2E43 JUMP JUMPDEST PUSH1 0x40 MLOAD DUP1 SWAP2 SUB SWAP1 REVERT JUMPDEST TIMESTAMP DUP5 GT PUSH2 0x18BD JUMPI PUSH1 0x40 MLOAD PUSH32 0x8C379A000000000000000000000000000000000000000000000000000000000 DUP2 MSTORE PUSH1 0x4 ADD PUSH2 0x18B4 SWAP1 PUSH2 0x2F41 JUMP JUMPDEST PUSH1 0x40 MLOAD DUP1 SWAP2 SUB SWAP1 REVERT JUMPDEST PUSH1 0x24 DUP3 GT ISZERO DUP1 ISZERO PUSH2 0x18CF JUMPI POP PUSH1 0x24 DUP2 GT ISZERO JUMPDEST PUSH2 0x190E JUMPI PUSH1 0x40 MLOAD PUSH32 0x8C379A000000000000000000000000000000000000000000000000000000000 DUP2 MSTORE PUSH1 0x4 ADD PUSH2 0x1905 SWAP1 PUSH2 0x2FAD JUMP JUMPDEST PUSH1 0x40 MLOAD DUP1 SWAP2 SUB SWAP1 REVERT JUMPDEST PUSH1 0x3 PUSH1 0x14 DUP2 DUP2 SWAP1 SLOAD SWAP1 PUSH2 0x100 EXP SWAP1 DIV PUSH2 0xFFFF AND DUP1 SWAP3 SWAP2 SWAP1 PUSH2 0x192E SWAP1 PUSH2 0x2FCD JUMP JUMPDEST SWAP2 SWAP1 PUSH2 0x100 EXP DUP2 SLOAD DUP2 PUSH2 0xFFFF MUL NOT AND SWAP1 DUP4 PUSH2 0xFFFF AND MUL OR SWAP1 SSTORE POP POP PUSH1 0x40 MLOAD DUP1 PUSH2 0x120 ADD PUSH1 0x40 MSTORE DUP1 DUP7 PUSH1 0x1 DUP2 GT ISZERO PUSH2 0x1968 JUMPI PUSH2 0x1967 PUSH2 0x22D4 JUMP JUMPDEST JUMPDEST DUP2 MSTORE PUSH1 0x20 ADD PUSH1 0x3 PUSH1 0x14 SWAP1 SLOAD SWAP1 PUSH2 0x100 EXP SWAP1 DIV PUSH2 0xFFFF AND PUSH2 0xFFFF AND DUP2 MSTORE PUSH1 0x20 ADD DUP6 DUP2 MSTORE PUSH1 0x20 ADD PUSH1 0x0 DUP2 MSTORE PUSH1 0x20 ADD DUP4 DUP2 MSTORE PUSH1 0x20 ADD DUP3 DUP2 MSTORE PUSH1 0x20 ADD PUSH1 0x0 DUP2 MSTORE PUSH1 0x20 ADD PUSH1 0x0 DUP2 MSTORE PUSH1 0x20 ADD PUSH1 0x0 DUP2 MSTORE POP PUSH1 0x5 PUSH1 0x0 PUSH1 0x3 PUSH1 0x14 SWAP1 SLOAD SWAP1 PUSH2 0x100 EXP SWAP1 DIV PUSH2 0xFFFF AND PUSH2 0xFFFF AND PUSH2 0xFFFF AND DUP2 MSTORE PUSH1 0x20 ADD SWAP1 DUP2 MSTORE PUSH1 0x20 ADD PUSH1 0x0 KECCAK256 PUSH1 0x0 DUP3 ADD MLOAD DUP2 PUSH1 0x0 ADD PUSH1 0x0 PUSH2 0x100 EXP DUP2 SLOAD DUP2 PUSH1 0xFF MUL NOT AND SWAP1 DUP4 PUSH1 0x1 DUP2 GT ISZERO PUSH2 0x1A09 JUMPI PUSH2 0x1A08 PUSH2 0x22D4 JUMP JUMPDEST JUMPDEST MUL OR SWAP1 SSTORE POP PUSH1 0x20 DUP3 ADD MLOAD DUP2 PUSH1 0x0 ADD PUSH1 0x1 PUSH2 0x100 EXP DUP2 SLOAD DUP2 PUSH2 0xFFFF MUL NOT AND SWAP1 DUP4 PUSH2 0xFFFF AND MUL OR SWAP1 SSTORE POP PUSH1 0x40 DUP3 ADD MLOAD DUP2 PUSH1 0x1 ADD SSTORE PUSH1 0x60 DUP3 ADD MLOAD DUP2 PUSH1 0x2 ADD SSTORE PUSH1 0x80 DUP3 ADD MLOAD DUP2 PUSH1 0x3 ADD SSTORE PUSH1 0xA0 DUP3 ADD MLOAD DUP2 PUSH1 0x4 ADD SSTORE PUSH1 0xC0 DUP3 ADD MLOAD DUP2 PUSH1 0x5 ADD SSTORE PUSH1 0xE0 DUP3 ADD MLOAD DUP2 PUSH1 0x6 ADD SSTORE PUSH2 0x100 DUP3 ADD MLOAD DUP2 PUSH1 0x7 ADD SSTORE SWAP1 POP POP POP POP POP POP POP JUMP JUMPDEST PUSH1 0x4 SLOAD DUP2 JUMP JUMPDEST PUSH1 0x0 PUSH4 0xF23A6E61 PUSH1 0xE0 SHL SWAP1 POP SWAP6 SWAP5 POP POP POP POP POP JUMP JUMPDEST PUSH2 0x1AA5 PUSH2 0x1CBE JUMP JUMPDEST PUSH20 0xFFFFFFFFFFFFFFFFFFFFFFFFFFFFFFFFFFFFFFFF AND PUSH2 0x1AC3 PUSH2 0x15D9 JUMP JUMPDEST PUSH20 0xFFFFFFFFFFFFFFFFFFFFFFFFFFFFFFFFFFFFFFFF AND EQ PUSH2 0x1B19 JUMPI PUSH1 0x40 MLOAD PUSH32 0x8C379A000000000000000000000000000000000000000000000000000000000 DUP2 MSTORE PUSH1 0x4 ADD PUSH2 0x1B10 SWAP1 PUSH2 0x2A99 JUMP JUMPDEST PUSH1 0x40 MLOAD DUP1 SWAP2 SUB SWAP1 REVERT JUMPDEST PUSH1 0x0 PUSH20 0xFFFFFFFFFFFFFFFFFFFFFFFFFFFFFFFFFFFFFFFF AND DUP2 PUSH20 0xFFFFFFFFFFFFFFFFFFFFFFFFFFFFFFFFFFFFFFFF AND SUB PUSH2 0x1B88 JUMPI PUSH1 0x40 MLOAD PUSH32 0x8C379A000000000000000000000000000000000000000000000000000000000 DUP2 MSTORE PUSH1 0x4 ADD PUSH2 0x1B7F SWAP1 PUSH2 0x3069 JUMP JUMPDEST PUSH1 0x40 MLOAD DUP1 SWAP2 SUB SWAP1 REVERT JUMPDEST PUSH2 0x1B91 DUP2 PUSH2 0x1CC6 JUMP JUMPDEST POP JUMP JUMPDEST PUSH2 0x1B9C PUSH2 0x1CBE JUMP JUMPDEST PUSH20 0xFFFFFFFFFFFFFFFFFFFFFFFFFFFFFFFFFFFFFFFF AND PUSH2 0x1BBA PUSH2 0x15D9 JUMP JUMPDEST PUSH20 0xFFFFFFFFFFFFFFFFFFFFFFFFFFFFFFFFFFFFFFFF AND EQ PUSH2 0x1C10 JUMPI PUSH1 0x40 MLOAD PUSH32 0x8C379A000000000000000000000000000000000000000000000000000000000 DUP2 MSTORE PUSH1 0x4 ADD PUSH2 0x1C07 SWAP1 PUSH2 0x2A99 JUMP JUMPDEST PUSH1 0x40 MLOAD DUP1 SWAP2 SUB SWAP1 REVERT JUMPDEST DUP1 PUSH1 0x4 DUP2 SWAP1 SSTORE POP POP JUMP JUMPDEST PUSH1 0x3 PUSH1 0x0 SWAP1 SLOAD SWAP1 PUSH2 0x100 EXP SWAP1 DIV PUSH20 0xFFFFFFFFFFFFFFFFFFFFFFFFFFFFFFFFFFFFFFFF AND DUP2 JUMP JUMPDEST PUSH1 0x3 PUSH1 0x14 SWAP1 SLOAD SWAP1 PUSH2 0x100 EXP SWAP1 DIV PUSH2 0xFFFF AND DUP2 JUMP JUMPDEST PUSH1 0x0 PUSH32 0x1FFC9A700000000000000000000000000000000000000000000000000000000 PUSH28 0xFFFFFFFFFFFFFFFFFFFFFFFFFFFFFFFFFFFFFFFFFFFFFFFFFFFFFFFF NOT AND DUP3 PUSH28 0xFFFFFFFFFFFFFFFFFFFFFFFFFFFFFFFFFFFFFFFFFFFFFFFFFFFFFFFF NOT AND EQ SWAP1 POP SWAP2 SWAP1 POP JUMP JUMPDEST PUSH1 0x0 CALLER SWAP1 POP SWAP1 JUMP JUMPDEST PUSH1 0x0 PUSH1 0x1 PUSH1 0x0 SWAP1 SLOAD SWAP1 PUSH2 0x100 EXP SWAP1 DIV PUSH20 0xFFFFFFFFFFFFFFFFFFFFFFFFFFFFFFFFFFFFFFFF AND SWAP1 POP DUP2 PUSH1 0x1 PUSH1 0x0 PUSH2 0x100 EXP DUP2 SLOAD DUP2 PUSH20 0xFFFFFFFFFFFFFFFFFFFFFFFFFFFFFFFFFFFFFFFF MUL NOT AND SWAP1 DUP4 PUSH20 0xFFFFFFFFFFFFFFFFFFFFFFFFFFFFFFFFFFFFFFFF AND MUL OR SWAP1 SSTORE POP DUP2 PUSH20 0xFFFFFFFFFFFFFFFFFFFFFFFFFFFFFFFFFFFFFFFF AND DUP2 PUSH20 0xFFFFFFFFFFFFFFFFFFFFFFFFFFFFFFFFFFFFFFFF AND PUSH32 0x8BE0079C531659141344CD1FD0A4F28419497F9722A3DAAFE3B4186F6B6457E0 PUSH1 0x40 MLOAD PUSH1 0x40 MLOAD DUP1 SWAP2 SUB SWAP1 LOG3 POP POP JUMP JUMPDEST PUSH1 0x40 MLOAD DUP1 PUSH1 0x80 ADD PUSH1 0x40 MSTORE DUP1 PUSH1 0x0 PUSH2 0xFFFF AND DUP2 MSTORE PUSH1 0x20 ADD PUSH1 0x0 DUP2 MSTORE PUSH1 0x20 ADD PUSH1 0x0 DUP2 MSTORE PUSH1 0x20 ADD PUSH1 0x0 ISZERO ISZERO DUP2 MSTORE POP SWAP1 JUMP JUMPDEST PUSH1 0x40 MLOAD DUP1 PUSH2 0x120 ADD PUSH1 0x40 MSTORE DUP1 PUSH1 0x0 PUSH1 0x1 DUP2 GT ISZERO PUSH2 0x1DDA JUMPI PUSH2 0x1DD9 PUSH2 0x22D4 JUMP JUMPDEST JUMPDEST DUP2 MSTORE PUSH1 0x20 ADD PUSH1 0x0 PUSH2 0xFFFF AND DUP2 MSTORE PUSH1 0x20 ADD PUSH1 0x0 DUP2 MSTORE PUSH1 0x20 ADD PUSH1 0x0 DUP2 MSTORE PUSH1 0x20 ADD PUSH1 0x0 DUP2 MSTORE PUSH1 0x20 ADD PUSH1 0x0 DUP2 MSTORE PUSH1 0x20 ADD PUSH1 0x0 DUP2 MSTORE PUSH1 0x20 ADD PUSH1 0x0 DUP2 MSTORE PUSH1 0x20 ADD PUSH1 0x0 DUP2 MSTORE POP SWAP1 JUMP JUMPDEST PUSH1 0x0 PUSH1 0x40 MLOAD SWAP1 POP SWAP1 JUMP JUMPDEST PUSH1 0x0 DUP1 REVERT JUMPDEST PUSH1 0x0 DUP1 REVERT JUMPDEST PUSH1 0x0 PUSH32 0xFFFFFFFF00000000000000000000000000000000000000000000000000000000 DUP3 AND SWAP1 POP SWAP2 SWAP1 POP JUMP JUMPDEST PUSH2 0x1E65 DUP2 PUSH2 0x1E30 JUMP JUMPDEST DUP2 EQ PUSH2 0x1E70 JUMPI PUSH1 0x0 DUP1 REVERT JUMPDEST POP JUMP JUMPDEST PUSH1 0x0 DUP2 CALLDATALOAD SWAP1 POP PUSH2 0x1E82 DUP2 PUSH2 0x1E5C JUMP JUMPDEST SWAP3 SWAP2 POP POP JUMP JUMPDEST PUSH1 0x0 PUSH1 0x20 DUP3 DUP5 SUB SLT ISZERO PUSH2 0x1E9E JUMPI PUSH2 0x1E9D PUSH2 0x1E26 JUMP JUMPDEST JUMPDEST PUSH1 0x0 PUSH2 0x1EAC DUP5 DUP3 DUP6 ADD PUSH2 0x1E73 JUMP JUMPDEST SWAP2 POP POP SWAP3 SWAP2 POP POP JUMP JUMPDEST PUSH1 0x0 DUP2 ISZERO ISZERO SWAP1 POP SWAP2 SWAP1 POP JUMP JUMPDEST PUSH2 0x1ECA DUP2 PUSH2 0x1EB5 JUMP JUMPDEST DUP3 MSTORE POP POP JUMP JUMPDEST PUSH1 0x0 PUSH1 0x20 DUP3 ADD SWAP1 POP PUSH2 0x1EE5 PUSH1 0x0 DUP4 ADD DUP5 PUSH2 0x1EC1 JUMP JUMPDEST SWAP3 SWAP2 POP POP JUMP JUMPDEST PUSH1 0x0 PUSH2 0xFFFF DUP3 AND SWAP1 POP SWAP2 SWAP1 POP JUMP JUMPDEST PUSH2 0x1F02 DUP2 PUSH2 0x1EEB JUMP JUMPDEST DUP2 EQ PUSH2 0x1F0D JUMPI PUSH1 0x0 DUP1 REVERT JUMPDEST POP JUMP JUMPDEST PUSH1 0x0 DUP2 CALLDATALOAD SWAP1 POP PUSH2 0x1F1F DUP2 PUSH2 0x1EF9 JUMP JUMPDEST SWAP3 SWAP2 POP POP JUMP JUMPDEST PUSH1 0x0 PUSH1 0x20 DUP3 DUP5 SUB SLT ISZERO PUSH2 0x1F3B JUMPI PUSH2 0x1F3A PUSH2 0x1E26 JUMP JUMPDEST JUMPDEST PUSH1 0x0 PUSH2 0x1F49 DUP5 DUP3 DUP6 ADD PUSH2 0x1F10 JUMP JUMPDEST SWAP2 POP POP SWAP3 SWAP2 POP POP JUMP JUMPDEST PUSH1 0x0 PUSH20 0xFFFFFFFFFFFFFFFFFFFFFFFFFFFFFFFFFFFFFFFF DUP3 AND SWAP1 POP SWAP2 SWAP1 POP JUMP JUMPDEST PUSH1 0x0 PUSH2 0x1F7D DUP3 PUSH2 0x1F52 JUMP JUMPDEST SWAP1 POP SWAP2 SWAP1 POP JUMP JUMPDEST PUSH2 0x1F8D DUP2 PUSH2 0x1F72 JUMP JUMPDEST DUP2 EQ PUSH2 0x1F98 JUMPI PUSH1 0x0 DUP1 REVERT JUMPDEST POP JUMP JUMPDEST PUSH1 0x0 DUP2 CALLDATALOAD SWAP1 POP PUSH2 0x1FAA DUP2 PUSH2 0x1F84 JUMP JUMPDEST SWAP3 SWAP2 POP POP JUMP JUMPDEST PUSH1 0x0 PUSH1 0x20 DUP3 DUP5 SUB SLT ISZERO PUSH2 0x1FC6 JUMPI PUSH2 0x1FC5 PUSH2 0x1E26 JUMP JUMPDEST JUMPDEST PUSH1 0x0 PUSH2 0x1FD4 DUP5 DUP3 DUP6 ADD PUSH2 0x1F9B JUMP JUMPDEST SWAP2 POP POP SWAP3 SWAP2 POP POP JUMP JUMPDEST PUSH1 0x0 DUP2 MLOAD SWAP1 POP SWAP2 SWAP1 POP JUMP JUMPDEST PUSH1 0x0 DUP3 DUP3 MSTORE PUSH1 0x20 DUP3 ADD SWAP1 POP SWAP3 SWAP2 POP POP JUMP JUMPDEST PUSH1 0x0 DUP2 SWAP1 POP PUSH1 0x20 DUP3 ADD SWAP1 POP SWAP2 SWAP1 POP JUMP JUMPDEST PUSH2 0x2012 DUP2 PUSH2 0x1EEB JUMP JUMPDEST DUP3 MSTORE POP POP JUMP JUMPDEST PUSH1 0x0 PUSH2 0x2024 DUP4 DUP4 PUSH2 0x2009 JUMP JUMPDEST PUSH1 0x20 DUP4 ADD SWAP1 POP SWAP3 SWAP2 POP POP JUMP JUMPDEST PUSH1 0x0 PUSH1 0x20 DUP3 ADD SWAP1 POP SWAP2 SWAP1 POP JUMP JUMPDEST PUSH1 0x0 PUSH2 0x2048 DUP3 PUSH2 0x1FDD JUMP JUMPDEST PUSH2 0x2052 DUP2 DUP6 PUSH2 0x1FE8 JUMP JUMPDEST SWAP4 POP PUSH2 0x205D DUP4 PUSH2 0x1FF9 JUMP JUMPDEST DUP1 PUSH1 0x0 JUMPDEST DUP4 DUP2 LT ISZERO PUSH2 0x208E JUMPI DUP2 MLOAD PUSH2 0x2075 DUP9 DUP3 PUSH2 0x2018 JUMP JUMPDEST SWAP8 POP PUSH2 0x2080 DUP4 PUSH2 0x2030 JUMP JUMPDEST SWAP3 POP POP PUSH1 0x1 DUP2 ADD SWAP1 POP PUSH2 0x2061 JUMP JUMPDEST POP DUP6 SWAP4 POP POP POP POP SWAP3 SWAP2 POP POP JUMP JUMPDEST PUSH1 0x0 PUSH1 0x20 DUP3 ADD SWAP1 POP DUP2 DUP2 SUB PUSH1 0x0 DUP4 ADD MSTORE PUSH2 0x20B5 DUP2 DUP5 PUSH2 0x203D JUMP JUMPDEST SWAP1 POP SWAP3 SWAP2 POP POP JUMP JUMPDEST PUSH2 0x20C6 DUP2 PUSH2 0x1EB5 JUMP JUMPDEST DUP2 EQ PUSH2 0x20D1 JUMPI PUSH1 0x0 DUP1 REVERT JUMPDEST POP JUMP JUMPDEST PUSH1 0x0 DUP2 CALLDATALOAD SWAP1 POP PUSH2 0x20E3 DUP2 PUSH2 0x20BD JUMP JUMPDEST SWAP3 SWAP2 POP POP JUMP JUMPDEST PUSH1 0x0 DUP1 PUSH1 0x40 DUP4 DUP6 SUB SLT ISZERO PUSH2 0x2100 JUMPI PUSH2 0x20FF PUSH2 0x1E26 JUMP JUMPDEST JUMPDEST PUSH1 0x0 PUSH2 0x210E DUP6 DUP3 DUP7 ADD PUSH2 0x1F9B JUMP JUMPDEST SWAP3 POP POP PUSH1 0x20 PUSH2 0x211F DUP6 DUP3 DUP7 ADD PUSH2 0x20D4 JUMP JUMPDEST SWAP2 POP POP SWAP3 POP SWAP3 SWAP1 POP JUMP JUMPDEST PUSH1 0x0 DUP1 PUSH1 0x40 DUP4 DUP6 SUB SLT ISZERO PUSH2 0x2140 JUMPI PUSH2 0x213F PUSH2 0x1E26 JUMP JUMPDEST JUMPDEST PUSH1 0x0 PUSH2 0x214E DUP6 DUP3 DUP7 ADD PUSH2 0x1F9B JUMP JUMPDEST SWAP3 POP POP PUSH1 0x20 PUSH2 0x215F DUP6 DUP3 DUP7 ADD PUSH2 0x1F10 JUMP JUMPDEST SWAP2 POP POP SWAP3 POP SWAP3 SWAP1 POP JUMP JUMPDEST PUSH1 0x0 DUP2 SWAP1 POP SWAP2 SWAP1 POP JUMP JUMPDEST PUSH2 0x217C DUP2 PUSH2 0x2169 JUMP JUMPDEST DUP3 MSTORE POP POP JUMP JUMPDEST PUSH1 0x0 PUSH1 0x20 DUP3 ADD SWAP1 POP PUSH2 0x2197 PUSH1 0x0 DUP4 ADD DUP5 PUSH2 0x2173 JUMP JUMPDEST SWAP3 SWAP2 POP POP JUMP JUMPDEST PUSH2 0x21A6 DUP2 PUSH2 0x1F72 JUMP JUMPDEST DUP3 MSTORE POP POP JUMP JUMPDEST PUSH1 0x0 PUSH1 0x20 DUP3 ADD SWAP1 POP PUSH2 0x21C1 PUSH1 0x0 DUP4 ADD DUP5 PUSH2 0x219D JUMP JUMPDEST SWAP3 SWAP2 POP POP JUMP JUMPDEST PUSH2 0x21D0 DUP2 PUSH2 0x2169 JUMP JUMPDEST DUP2 EQ PUSH2 0x21DB JUMPI PUSH1 0x0 DUP1 REVERT JUMPDEST POP JUMP JUMPDEST PUSH1 0x0 DUP2 CALLDATALOAD SWAP1 POP PUSH2 0x21ED DUP2 PUSH2 0x21C7 JUMP JUMPDEST SWAP3 SWAP2 POP POP JUMP JUMPDEST PUSH1 0x0 DUP1 PUSH1 0x0 PUSH1 0x60 DUP5 DUP7 SUB SLT ISZERO PUSH2 0x220C JUMPI PUSH2 0x220B PUSH2 0x1E26 JUMP JUMPDEST JUMPDEST PUSH1 0x0 PUSH2 0x221A DUP7 DUP3 DUP8 ADD PUSH2 0x1F10 JUMP JUMPDEST SWAP4 POP POP PUSH1 0x20 PUSH2 0x222B DUP7 DUP3 DUP8 ADD PUSH2 0x21DE JUMP JUMPDEST SWAP3 POP POP PUSH1 0x40 PUSH2 0x223C DUP7 DUP3 DUP8 ADD PUSH2 0x21DE JUMP JUMPDEST SWAP2 POP POP SWAP3 POP SWAP3 POP SWAP3 JUMP JUMPDEST PUSH2 0x224F DUP2 PUSH2 0x2169 JUMP JUMPDEST DUP3 MSTORE POP POP JUMP JUMPDEST PUSH2 0x225E DUP2 PUSH2 0x1EB5 JUMP JUMPDEST DUP3 MSTORE POP POP JUMP JUMPDEST PUSH1 0x80 DUP3 ADD PUSH1 0x0 DUP3 ADD MLOAD PUSH2 0x227A PUSH1 0x0 DUP6 ADD DUP3 PUSH2 0x2009 JUMP JUMPDEST POP PUSH1 0x20 DUP3 ADD MLOAD PUSH2 0x228D PUSH1 0x20 DUP6 ADD DUP3 PUSH2 0x2246 JUMP JUMPDEST POP PUSH1 0x40 DUP3 ADD MLOAD PUSH2 0x22A0 PUSH1 0x40 DUP6 ADD DUP3 PUSH2 0x2246 JUMP JUMPDEST POP PUSH1 0x60 DUP3 ADD MLOAD PUSH2 0x22B3 PUSH1 0x60 DUP6 ADD DUP3 PUSH2 0x2255 JUMP JUMPDEST POP POP POP POP JUMP JUMPDEST PUSH1 0x0 PUSH1 0x80 DUP3 ADD SWAP1 POP PUSH2 0x22CE PUSH1 0x0 DUP4 ADD DUP5 PUSH2 0x2264 JUMP JUMPDEST SWAP3 SWAP2 POP POP JUMP JUMPDEST PUSH32 0x4E487B7100000000000000000000000000000000000000000000000000000000 PUSH1 0x0 MSTORE PUSH1 0x21 PUSH1 0x4 MSTORE PUSH1 0x24 PUSH1 0x0 REVERT JUMPDEST PUSH1 0x2 DUP2 LT PUSH2 0x2314 JUMPI PUSH2 0x2313 PUSH2 0x22D4 JUMP JUMPDEST JUMPDEST POP JUMP JUMPDEST PUSH1 0x0 DUP2 SWAP1 POP PUSH2 0x2325 DUP3 PUSH2 0x2303 JUMP JUMPDEST SWAP2 SWAP1 POP JUMP JUMPDEST PUSH1 0x0 PUSH2 0x2335 DUP3 PUSH2 0x2317 JUMP JUMPDEST SWAP1 POP SWAP2 SWAP1 POP JUMP JUMPDEST PUSH2 0x2345 DUP2 PUSH2 0x232A JUMP JUMPDEST DUP3 MSTORE POP POP JUMP JUMPDEST PUSH2 0x120 DUP3 ADD PUSH1 0x0 DUP3 ADD MLOAD PUSH2 0x2362 PUSH1 0x0 DUP6 ADD DUP3 PUSH2 0x233C JUMP JUMPDEST POP PUSH1 0x20 DUP3 ADD MLOAD PUSH2 0x2375 PUSH1 0x20 DUP6 ADD DUP3 PUSH2 0x2009 JUMP JUMPDEST POP PUSH1 0x40 DUP3 ADD MLOAD PUSH2 0x2388 PUSH1 0x40 DUP6 ADD DUP3 PUSH2 0x2246 JUMP JUMPDEST POP PUSH1 0x60 DUP3 ADD MLOAD PUSH2 0x239B PUSH1 0x60 DUP6 ADD DUP3 PUSH2 0x2246 JUMP JUMPDEST POP PUSH1 0x80 DUP3 ADD MLOAD PUSH2 0x23AE PUSH1 0x80 DUP6 ADD DUP3 PUSH2 0x2246 JUMP JUMPDEST POP PUSH1 0xA0 DUP3 ADD MLOAD PUSH2 0x23C1 PUSH1 0xA0 DUP6 ADD DUP3 PUSH2 0x2246 JUMP JUMPDEST POP PUSH1 0xC0 DUP3 ADD MLOAD PUSH2 0x23D4 PUSH1 0xC0 DUP6 ADD DUP3 PUSH2 0x2246 JUMP JUMPDEST POP PUSH1 0xE0 DUP3 ADD MLOAD PUSH2 0x23E7 PUSH1 0xE0 DUP6 ADD DUP3 PUSH2 0x2246 JUMP JUMPDEST POP PUSH2 0x100 DUP3 ADD MLOAD PUSH2 0x23FC PUSH2 0x100 DUP6 ADD DUP3 PUSH2 0x2246 JUMP JUMPDEST POP POP POP POP JUMP JUMPDEST PUSH1 0x0 PUSH2 0x120 DUP3 ADD SWAP1 POP PUSH2 0x2418 PUSH1 0x0 DUP4 ADD DUP5 PUSH2 0x234B JUMP JUMPDEST SWAP3 SWAP2 POP POP JUMP JUMPDEST PUSH1 0x0 DUP1 PUSH1 0x40 DUP4 DUP6 SUB SLT ISZERO PUSH2 0x2435 JUMPI PUSH2 0x2434 PUSH2 0x1E26 JUMP JUMPDEST JUMPDEST PUSH1 0x0 PUSH2 0x2443 DUP6 DUP3 DUP7 ADD PUSH2 0x1F10 JUMP JUMPDEST SWAP3 POP POP PUSH1 0x20 PUSH2 0x2454 DUP6 DUP3 DUP7 ADD PUSH2 0x21DE JUMP JUMPDEST SWAP2 POP POP SWAP3 POP SWAP3 SWAP1 POP JUMP JUMPDEST PUSH1 0x0 DUP1 REVERT JUMPDEST PUSH1 0x0 PUSH1 0x1F NOT PUSH1 0x1F DUP4 ADD AND SWAP1 POP SWAP2 SWAP1 POP JUMP JUMPDEST PUSH32 0x4E487B7100000000000000000000000000000000000000000000000000000000 PUSH1 0x0 MSTORE PUSH1 0x41 PUSH1 0x4 MSTORE PUSH1 0x24 PUSH1 0x0 REVERT JUMPDEST PUSH2 0x24AC DUP3 PUSH2 0x2463 JUMP JUMPDEST DUP2 ADD DUP2 DUP2 LT PUSH8 0xFFFFFFFFFFFFFFFF DUP3 GT OR ISZERO PUSH2 0x24CB JUMPI PUSH2 0x24CA PUSH2 0x2474 JUMP JUMPDEST JUMPDEST DUP1 PUSH1 0x40 MSTORE POP POP POP JUMP JUMPDEST PUSH1 0x0 PUSH2 0x24DE PUSH2 0x1E1C JUMP JUMPDEST SWAP1 POP PUSH2 0x24EA DUP3 DUP3 PUSH2 0x24A3 JUMP JUMPDEST SWAP2 SWAP1 POP JUMP JUMPDEST PUSH1 0x0 PUSH8 0xFFFFFFFFFFFFFFFF DUP3 GT ISZERO PUSH2 0x250A JUMPI PUSH2 0x2509 PUSH2 0x2474 JUMP JUMPDEST JUMPDEST PUSH1 0x20 DUP3 MUL SWAP1 POP PUSH1 0x20 DUP2 ADD SWAP1 POP SWAP2 SWAP1 POP JUMP JUMPDEST PUSH1 0x0 DUP1 REVERT JUMPDEST PUSH1 0x0 PUSH2 0x2533 PUSH2 0x252E DUP5 PUSH2 0x24EF JUMP JUMPDEST PUSH2 0x24D4 JUMP JUMPDEST SWAP1 POP DUP1 DUP4 DUP3 MSTORE PUSH1 0x20 DUP3 ADD SWAP1 POP PUSH1 0x20 DUP5 MUL DUP4 ADD DUP6 DUP2 GT ISZERO PUSH2 0x2556 JUMPI PUSH2 0x2555 PUSH2 0x251B JUMP JUMPDEST JUMPDEST DUP4 JUMPDEST DUP2 DUP2 LT ISZERO PUSH2 0x257F JUMPI DUP1 PUSH2 0x256B DUP9 DUP3 PUSH2 0x21DE JUMP JUMPDEST DUP5 MSTORE PUSH1 0x20 DUP5 ADD SWAP4 POP POP PUSH1 0x20 DUP2 ADD SWAP1 POP PUSH2 0x2558 JUMP JUMPDEST POP POP POP SWAP4 SWAP3 POP POP POP JUMP JUMPDEST PUSH1 0x0 DUP3 PUSH1 0x1F DUP4 ADD SLT PUSH2 0x259E JUMPI PUSH2 0x259D PUSH2 0x245E JUMP JUMPDEST JUMPDEST DUP2 CALLDATALOAD PUSH2 0x25AE DUP5 DUP3 PUSH1 0x20 DUP7 ADD PUSH2 0x2520 JUMP JUMPDEST SWAP2 POP POP SWAP3 SWAP2 POP POP JUMP JUMPDEST PUSH1 0x0 DUP1 REVERT JUMPDEST PUSH1 0x0 PUSH8 0xFFFFFFFFFFFFFFFF DUP3 GT ISZERO PUSH2 0x25D7 JUMPI PUSH2 0x25D6 PUSH2 0x2474 JUMP JUMPDEST JUMPDEST PUSH2 0x25E0 DUP3 PUSH2 0x2463 JUMP JUMPDEST SWAP1 POP PUSH1 0x20 DUP2 ADD SWAP1 POP SWAP2 SWAP1 POP JUMP JUMPDEST DUP3 DUP2 DUP4 CALLDATACOPY PUSH1 0x0 DUP4 DUP4 ADD MSTORE POP POP POP JUMP JUMPDEST PUSH1 0x0 PUSH2 0x260F PUSH2 0x260A DUP5 PUSH2 0x25BC JUMP JUMPDEST PUSH2 0x24D4 JUMP JUMPDEST SWAP1 POP DUP3 DUP2 MSTORE PUSH1 0x20 DUP2 ADD DUP5 DUP5 DUP5 ADD GT ISZERO PUSH2 0x262B JUMPI PUSH2 0x262A PUSH2 0x25B7 JUMP JUMPDEST JUMPDEST PUSH2 0x2636 DUP5 DUP3 DUP6 PUSH2 0x25ED JUMP JUMPDEST POP SWAP4 SWAP3 POP POP POP JUMP JUMPDEST PUSH1 0x0 DUP3 PUSH1 0x1F DUP4 ADD SLT PUSH2 0x2653 JUMPI PUSH2 0x2652 PUSH2 0x245E JUMP JUMPDEST JUMPDEST DUP2 CALLDATALOAD PUSH2 0x2663 DUP5 DUP3 PUSH1 0x20 DUP7 ADD PUSH2 0x25FC JUMP JUMPDEST SWAP2 POP POP SWAP3 SWAP2 POP POP JUMP JUMPDEST PUSH1 0x0 DUP1 PUSH1 0x0 DUP1 PUSH1 0x0 PUSH1 0xA0 DUP7 DUP9 SUB SLT ISZERO PUSH2 0x2688 JUMPI PUSH2 0x2687 PUSH2 0x1E26 JUMP JUMPDEST JUMPDEST PUSH1 0x0 PUSH2 0x2696 DUP9 DUP3 DUP10 ADD PUSH2 0x1F9B JUMP JUMPDEST SWAP6 POP POP PUSH1 0x20 PUSH2 0x26A7 DUP9 DUP3 DUP10 ADD PUSH2 0x1F9B JUMP JUMPDEST SWAP5 POP POP PUSH1 0x40 DUP7 ADD CALLDATALOAD PUSH8 0xFFFFFFFFFFFFFFFF DUP2 GT ISZERO PUSH2 0x26C8 JUMPI PUSH2 0x26C7 PUSH2 0x1E2B JUMP JUMPDEST JUMPDEST PUSH2 0x26D4 DUP9 DUP3 DUP10 ADD PUSH2 0x2589 JUMP JUMPDEST SWAP4 POP POP PUSH1 0x60 DUP7 ADD CALLDATALOAD PUSH8 0xFFFFFFFFFFFFFFFF DUP2 GT ISZERO PUSH2 0x26F5 JUMPI PUSH2 0x26F4 PUSH2 0x1E2B JUMP JUMPDEST JUMPDEST PUSH2 0x2701 DUP9 DUP3 DUP10 ADD PUSH2 0x2589 JUMP JUMPDEST SWAP3 POP POP PUSH1 0x80 DUP7 ADD CALLDATALOAD PUSH8 0xFFFFFFFFFFFFFFFF DUP2 GT ISZERO PUSH2 0x2722 JUMPI PUSH2 0x2721 PUSH2 0x1E2B JUMP JUMPDEST JUMPDEST PUSH2 0x272E DUP9 DUP3 DUP10 ADD PUSH2 0x263E JUMP JUMPDEST SWAP2 POP POP SWAP3 SWAP6 POP SWAP3 SWAP6 SWAP1 SWAP4 POP JUMP JUMPDEST PUSH2 0x2744 DUP2 PUSH2 0x1E30 JUMP JUMPDEST DUP3 MSTORE POP POP JUMP JUMPDEST PUSH1 0x0 PUSH1 0x20 DUP3 ADD SWAP1 POP PUSH2 0x275F PUSH1 0x0 DUP4 ADD DUP5 PUSH2 0x273B JUMP JUMPDEST SWAP3 SWAP2 POP POP JUMP JUMPDEST PUSH1 0x2 DUP2 LT PUSH2 0x2772 JUMPI PUSH1 0x0 DUP1 REVERT JUMPDEST POP JUMP JUMPDEST PUSH1 0x0 DUP2 CALLDATALOAD SWAP1 POP PUSH2 0x2784 DUP2 PUSH2 0x2765 JUMP JUMPDEST SWAP3 SWAP2 POP POP JUMP JUMPDEST PUSH1 0x0 DUP1 PUSH1 0x0 DUP1 PUSH1 0x0 PUSH1 0xA0 DUP7 DUP9 SUB SLT ISZERO PUSH2 0x27A6 JUMPI PUSH2 0x27A5 PUSH2 0x1E26 JUMP JUMPDEST JUMPDEST PUSH1 0x0 PUSH2 0x27B4 DUP9 DUP3 DUP10 ADD PUSH2 0x2775 JUMP JUMPDEST SWAP6 POP POP PUSH1 0x20 PUSH2 0x27C5 DUP9 DUP3 DUP10 ADD PUSH2 0x21DE JUMP JUMPDEST SWAP5 POP POP PUSH1 0x40 PUSH2 0x27D6 DUP9 DUP3 DUP10 ADD PUSH2 0x21DE JUMP JUMPDEST SWAP4 POP POP PUSH1 0x60 PUSH2 0x27E7 DUP9 DUP3 DUP10 ADD PUSH2 0x21DE JUMP JUMPDEST SWAP3 POP POP PUSH1 0x80 PUSH2 0x27F8 DUP9 DUP3 DUP10 ADD PUSH2 0x21DE JUMP JUMPDEST SWAP2 POP POP SWAP3 SWAP6 POP SWAP3 SWAP6 SWAP1 SWAP4 POP JUMP JUMPDEST PUSH1 0x0 DUP1 PUSH1 0x0 DUP1 PUSH1 0x0 PUSH1 0xA0 DUP7 DUP9 SUB SLT ISZERO PUSH2 0x2821 JUMPI PUSH2 0x2820 PUSH2 0x1E26 JUMP JUMPDEST JUMPDEST PUSH1 0x0 PUSH2 0x282F DUP9 DUP3 DUP10 ADD PUSH2 0x1F9B JUMP JUMPDEST SWAP6 POP POP PUSH1 0x20 PUSH2 0x2840 DUP9 DUP3 DUP10 ADD PUSH2 0x1F9B JUMP JUMPDEST SWAP5 POP POP PUSH1 0x40 PUSH2 0x2851 DUP9 DUP3 DUP10 ADD PUSH2 0x21DE JUMP JUMPDEST SWAP4 POP POP PUSH1 0x60 PUSH2 0x2862 DUP9 DUP3 DUP10 ADD PUSH2 0x21DE JUMP JUMPDEST SWAP3 POP POP PUSH1 0x80 DUP7 ADD CALLDATALOAD PUSH8 0xFFFFFFFFFFFFFFFF DUP2 GT ISZERO PUSH2 0x2883 JUMPI PUSH2 0x2882 PUSH2 0x1E2B JUMP JUMPDEST JUMPDEST PUSH2 0x288F DUP9 DUP3 DUP10 ADD PUSH2 0x263E JUMP JUMPDEST SWAP2 POP POP SWAP3 SWAP6 POP SWAP3 SWAP6 SWAP1 SWAP4 POP JUMP JUMPDEST PUSH1 0x0 PUSH1 0x20 DUP3 DUP5 SUB SLT ISZERO PUSH2 0x28B2 JUMPI PUSH2 0x28B1 PUSH2 0x1E26 JUMP JUMPDEST JUMPDEST PUSH1 0x0 PUSH2 0x28C0 DUP5 DUP3 DUP6 ADD PUSH2 0x21DE JUMP JUMPDEST SWAP2 POP POP SWAP3 SWAP2 POP POP JUMP JUMPDEST PUSH2 0x28D2 DUP2 PUSH2 0x1EEB JUMP JUMPDEST DUP3 MSTORE POP POP JUMP JUMPDEST PUSH1 0x0 PUSH1 0x20 DUP3 ADD SWAP1 POP PUSH2 0x28ED PUSH1 0x0 DUP4 ADD DUP5 PUSH2 0x28C9 JUMP JUMPDEST SWAP3 SWAP2 POP POP JUMP JUMPDEST PUSH1 0x0 DUP3 DUP3 MSTORE PUSH1 0x20 DUP3 ADD SWAP1 POP SWAP3 SWAP2 POP POP JUMP JUMPDEST POP JUMP JUMPDEST PUSH1 0x0 PUSH2 0x2914 PUSH1 0x0 DUP4 PUSH2 0x28F3 JUMP JUMPDEST SWAP2 POP PUSH2 0x291F DUP3 PUSH2 0x2904 JUMP JUMPDEST PUSH1 0x0 DUP3 ADD SWAP1 POP SWAP2 SWAP1 POP JUMP JUMPDEST PUSH1 0x0 PUSH1 0xA0 DUP3 ADD SWAP1 POP PUSH2 0x293F PUSH1 0x0 DUP4 ADD DUP8 PUSH2 0x219D JUMP JUMPDEST PUSH2 0x294C PUSH1 0x20 DUP4 ADD DUP7 PUSH2 0x219D JUMP JUMPDEST PUSH2 0x2959 PUSH1 0x40 DUP4 ADD DUP6 PUSH2 0x2173 JUMP JUMPDEST PUSH2 0x2966 PUSH1 0x60 DUP4 ADD DUP5 PUSH2 0x2173 JUMP JUMPDEST DUP2 DUP2 SUB PUSH1 0x80 DUP4 ADD MSTORE PUSH2 0x2977 DUP2 PUSH2 0x2907 JUMP JUMPDEST SWAP1 POP SWAP6 SWAP5 POP POP POP POP POP JUMP JUMPDEST PUSH1 0x0 PUSH1 0x40 DUP3 ADD SWAP1 POP PUSH2 0x2997 PUSH1 0x0 DUP4 ADD DUP6 PUSH2 0x219D JUMP JUMPDEST PUSH2 0x29A4 PUSH1 0x20 DUP4 ADD DUP5 PUSH2 0x2173 JUMP JUMPDEST SWAP4 SWAP3 POP POP POP JUMP JUMPDEST PUSH1 0x0 DUP2 MLOAD SWAP1 POP PUSH2 0x29BA DUP2 PUSH2 0x20BD JUMP JUMPDEST SWAP3 SWAP2 POP POP JUMP JUMPDEST PUSH1 0x0 PUSH1 0x20 DUP3 DUP5 SUB SLT ISZERO PUSH2 0x29D6 JUMPI PUSH2 0x29D5 PUSH2 0x1E26 JUMP JUMPDEST JUMPDEST PUSH1 0x0 PUSH2 0x29E4 DUP5 DUP3 DUP6 ADD PUSH2 0x29AB JUMP JUMPDEST SWAP2 POP POP SWAP3 SWAP2 POP POP JUMP JUMPDEST PUSH1 0x0 PUSH1 0x40 DUP3 ADD SWAP1 POP PUSH2 0x2A02 PUSH1 0x0 DUP4 ADD DUP6 PUSH2 0x28C9 JUMP JUMPDEST PUSH2 0x2A0F PUSH1 0x20 DUP4 ADD DUP5 PUSH2 0x2173 JUMP JUMPDEST SWAP4 SWAP3 POP POP POP JUMP JUMPDEST PUSH1 0x0 DUP3 DUP3 MSTORE PUSH1 0x20 DUP3 ADD SWAP1 POP SWAP3 SWAP2 POP POP JUMP JUMPDEST PUSH32 0x41646D696E61626C653A2063616C6C6572206973206E6F7420746865206F776E PUSH1 0x0 DUP3 ADD MSTORE PUSH32 0x6572000000000000000000000000000000000000000000000000000000000000 PUSH1 0x20 DUP3 ADD MSTORE POP JUMP JUMPDEST PUSH1 0x0 PUSH2 0x2A83 PUSH1 0x22 DUP4 PUSH2 0x2A16 JUMP JUMPDEST SWAP2 POP PUSH2 0x2A8E DUP3 PUSH2 0x2A27 JUMP JUMPDEST PUSH1 0x40 DUP3 ADD SWAP1 POP SWAP2 SWAP1 POP JUMP JUMPDEST PUSH1 0x0 PUSH1 0x20 DUP3 ADD SWAP1 POP DUP2 DUP2 SUB PUSH1 0x0 DUP4 ADD MSTORE PUSH2 0x2AB2 DUP2 PUSH2 0x2A76 JUMP JUMPDEST SWAP1 POP SWAP2 SWAP1 POP JUMP JUMPDEST PUSH1 0x0 PUSH1 0x40 DUP3 ADD SWAP1 POP PUSH2 0x2ACE PUSH1 0x0 DUP4 ADD DUP6 PUSH2 0x1EC1 JUMP JUMPDEST PUSH2 0x2ADB PUSH1 0x20 DUP4 ADD DUP5 PUSH2 0x1EC1 JUMP JUMPDEST SWAP4 SWAP3 POP POP POP JUMP JUMPDEST PUSH32 0x4E487B7100000000000000000000000000000000000000000000000000000000 PUSH1 0x0 MSTORE PUSH1 0x11 PUSH1 0x4 MSTORE PUSH1 0x24 PUSH1 0x0 REVERT JUMPDEST PUSH1 0x0 PUSH2 0x2B1C DUP3 PUSH2 0x2169 JUMP JUMPDEST SWAP2 POP PUSH2 0x2B27 DUP4 PUSH2 0x2169 JUMP JUMPDEST SWAP3 POP DUP2 PUSH32 0xFFFFFFFFFFFFFFFFFFFFFFFFFFFFFFFFFFFFFFFFFFFFFFFFFFFFFFFFFFFFFFFF DIV DUP4 GT DUP3 ISZERO ISZERO AND ISZERO PUSH2 0x2B60 JUMPI PUSH2 0x2B5F PUSH2 0x2AE2 JUMP JUMPDEST JUMPDEST DUP3 DUP3 MUL SWAP1 POP SWAP3 SWAP2 POP POP JUMP JUMPDEST PUSH32 0x4E487B7100000000000000000000000000000000000000000000000000000000 PUSH1 0x0 MSTORE PUSH1 0x12 PUSH1 0x4 MSTORE PUSH1 0x24 PUSH1 0x0 REVERT JUMPDEST PUSH1 0x0 PUSH2 0x2BA5 DUP3 PUSH2 0x2169 JUMP JUMPDEST SWAP2 POP PUSH2 0x2BB0 DUP4 PUSH2 0x2169 JUMP JUMPDEST SWAP3 POP DUP3 PUSH2 0x2BC0 JUMPI PUSH2 0x2BBF PUSH2 0x2B6B JUMP JUMPDEST JUMPDEST DUP3 DUP3 DIV SWAP1 POP SWAP3 SWAP2 POP POP JUMP JUMPDEST PUSH32 0x416D6F756E74206973207A65726F000000000000000000000000000000000000 PUSH1 0x0 DUP3 ADD MSTORE POP JUMP JUMPDEST PUSH1 0x0 PUSH2 0x2C01 PUSH1 0xE DUP4 PUSH2 0x2A16 JUMP JUMPDEST SWAP2 POP PUSH2 0x2C0C DUP3 PUSH2 0x2BCB JUMP JUMPDEST PUSH1 0x20 DUP3 ADD SWAP1 POP SWAP2 SWAP1 POP JUMP JUMPDEST PUSH1 0x0 PUSH1 0x20 DUP3 ADD SWAP1 POP DUP2 DUP2 SUB PUSH1 0x0 DUP4 ADD MSTORE PUSH2 0x2C30 DUP2 PUSH2 0x2BF4 JUMP JUMPDEST SWAP1 POP SWAP2 SWAP1 POP JUMP JUMPDEST PUSH32 0x4964206572726F72000000000000000000000000000000000000000000000000 PUSH1 0x0 DUP3 ADD MSTORE POP JUMP JUMPDEST PUSH1 0x0 PUSH2 0x2C6D PUSH1 0x8 DUP4 PUSH2 0x2A16 JUMP JUMPDEST SWAP2 POP PUSH2 0x2C78 DUP3 PUSH2 0x2C37 JUMP JUMPDEST PUSH1 0x20 DUP3 ADD SWAP1 POP SWAP2 SWAP1 POP JUMP JUMPDEST PUSH1 0x0 PUSH1 0x20 DUP3 ADD SWAP1 POP DUP2 DUP2 SUB PUSH1 0x0 DUP4 ADD MSTORE PUSH2 0x2C9C DUP2 PUSH2 0x2C60 JUMP JUMPDEST SWAP1 POP SWAP2 SWAP1 POP JUMP JUMPDEST PUSH32 0x4368616C6C656E6765206E6F7420737461727400000000000000000000000000 PUSH1 0x0 DUP3 ADD MSTORE POP JUMP JUMPDEST PUSH1 0x0 PUSH2 0x2CD9 PUSH1 0x13 DUP4 PUSH2 0x2A16 JUMP JUMPDEST SWAP2 POP PUSH2 0x2CE4 DUP3 PUSH2 0x2CA3 JUMP JUMPDEST PUSH1 0x20 DUP3 ADD SWAP1 POP SWAP2 SWAP1 POP JUMP JUMPDEST PUSH1 0x0 PUSH1 0x20 DUP3 ADD SWAP1 POP DUP2 DUP2 SUB PUSH1 0x0 DUP4 ADD MSTORE PUSH2 0x2D08 DUP2 PUSH2 0x2CCC JUMP JUMPDEST SWAP1 POP SWAP2 SWAP1 POP JUMP JUMPDEST PUSH32 0x546F6B656E206964206E6F7420696E206368616C6C656E676500000000000000 PUSH1 0x0 DUP3 ADD MSTORE POP JUMP JUMPDEST PUSH1 0x0 PUSH2 0x2D45 PUSH1 0x19 DUP4 PUSH2 0x2A16 JUMP JUMPDEST SWAP2 POP PUSH2 0x2D50 DUP3 PUSH2 0x2D0F JUMP JUMPDEST PUSH1 0x20 DUP3 ADD SWAP1 POP SWAP2 SWAP1 POP JUMP JUMPDEST PUSH1 0x0 PUSH1 0x20 DUP3 ADD SWAP1 POP DUP2 DUP2 SUB PUSH1 0x0 DUP4 ADD MSTORE PUSH2 0x2D74 DUP2 PUSH2 0x2D38 JUMP JUMPDEST SWAP1 POP SWAP2 SWAP1 POP JUMP JUMPDEST PUSH1 0x0 PUSH2 0x2D86 DUP3 PUSH2 0x2169 JUMP JUMPDEST SWAP2 POP PUSH2 0x2D91 DUP4 PUSH2 0x2169 JUMP JUMPDEST SWAP3 POP DUP3 PUSH32 0xFFFFFFFFFFFFFFFFFFFFFFFFFFFFFFFFFFFFFFFFFFFFFFFFFFFFFFFFFFFFFFFF SUB DUP3 GT ISZERO PUSH2 0x2DC6 JUMPI PUSH2 0x2DC5 PUSH2 0x2AE2 JUMP JUMPDEST JUMPDEST DUP3 DUP3 ADD SWAP1 POP SWAP3 SWAP2 POP POP JUMP JUMPDEST PUSH32 0x41646D696E61626C653A2063616C6C6572206973206E6F74207468652061646D PUSH1 0x0 DUP3 ADD MSTORE PUSH32 0x696E000000000000000000000000000000000000000000000000000000000000 PUSH1 0x20 DUP3 ADD MSTORE POP JUMP JUMPDEST PUSH1 0x0 PUSH2 0x2E2D PUSH1 0x22 DUP4 PUSH2 0x2A16 JUMP JUMPDEST SWAP2 POP PUSH2 0x2E38 DUP3 PUSH2 0x2DD1 JUMP JUMPDEST PUSH1 0x40 DUP3 ADD SWAP1 POP SWAP2 SWAP1 POP JUMP JUMPDEST PUSH1 0x0 PUSH1 0x20 DUP3 ADD SWAP1 POP DUP2 DUP2 SUB PUSH1 0x0 DUP4 ADD MSTORE PUSH2 0x2E5C DUP2 PUSH2 0x2E20 JUMP JUMPDEST SWAP1 POP SWAP2 SWAP1 POP JUMP JUMPDEST PUSH32 0x496E76616C6964206368616C6C656E6765206964000000000000000000000000 PUSH1 0x0 DUP3 ADD MSTORE POP JUMP JUMPDEST PUSH1 0x0 PUSH2 0x2E99 PUSH1 0x14 DUP4 PUSH2 0x2A16 JUMP JUMPDEST SWAP2 POP PUSH2 0x2EA4 DUP3 PUSH2 0x2E63 JUMP JUMPDEST PUSH1 0x20 DUP3 ADD SWAP1 POP SWAP2 SWAP1 POP JUMP JUMPDEST PUSH1 0x0 PUSH1 0x20 DUP3 ADD SWAP1 POP DUP2 DUP2 SUB PUSH1 0x0 DUP4 ADD MSTORE PUSH2 0x2EC8 DUP2 PUSH2 0x2E8C JUMP JUMPDEST SWAP1 POP SWAP2 SWAP1 POP JUMP JUMPDEST PUSH32 0x53746172742074696D65206D757374206D6F7265207468616E2070726573656E PUSH1 0x0 DUP3 ADD MSTORE PUSH32 0x742074696D650000000000000000000000000000000000000000000000000000 PUSH1 0x20 DUP3 ADD MSTORE POP JUMP JUMPDEST PUSH1 0x0 PUSH2 0x2F2B PUSH1 0x26 DUP4 PUSH2 0x2A16 JUMP JUMPDEST SWAP2 POP PUSH2 0x2F36 DUP3 PUSH2 0x2ECF JUMP JUMPDEST PUSH1 0x40 DUP3 ADD SWAP1 POP SWAP2 SWAP1 POP JUMP JUMPDEST PUSH1 0x0 PUSH1 0x20 DUP3 ADD SWAP1 POP DUP2 DUP2 SUB PUSH1 0x0 DUP4 ADD MSTORE PUSH2 0x2F5A DUP2 PUSH2 0x2F1E JUMP JUMPDEST SWAP1 POP SWAP2 SWAP1 POP JUMP JUMPDEST PUSH32 0x546F6B656E206964206D757374206C657373207468616E203337000000000000 PUSH1 0x0 DUP3 ADD MSTORE POP JUMP JUMPDEST PUSH1 0x0 PUSH2 0x2F97 PUSH1 0x1A DUP4 PUSH2 0x2A16 JUMP JUMPDEST SWAP2 POP PUSH2 0x2FA2 DUP3 PUSH2 0x2F61 JUMP JUMPDEST PUSH1 0x20 DUP3 ADD SWAP1 POP SWAP2 SWAP1 POP JUMP JUMPDEST PUSH1 0x0 PUSH1 0x20 DUP3 ADD SWAP1 POP DUP2 DUP2 SUB PUSH1 0x0 DUP4 ADD MSTORE PUSH2 0x2FC6 DUP2 PUSH2 0x2F8A JUMP JUMPDEST SWAP1 POP SWAP2 SWAP1 POP JUMP JUMPDEST PUSH1 0x0 PUSH2 0x2FD8 DUP3 PUSH2 0x1EEB JUMP JUMPDEST SWAP2 POP PUSH2 0xFFFF DUP3 SUB PUSH2 0x2FEC JUMPI PUSH2 0x2FEB PUSH2 0x2AE2 JUMP JUMPDEST JUMPDEST PUSH1 0x1 DUP3 ADD SWAP1 POP SWAP2 SWAP1 POP JUMP JUMPDEST PUSH32 0x4F776E61626C653A206E6577206F776E657220697320746865207A65726F2061 PUSH1 0x0 DUP3 ADD MSTORE PUSH32 0x6464726573730000000000000000000000000000000000000000000000000000 PUSH1 0x20 DUP3 ADD MSTORE POP JUMP JUMPDEST PUSH1 0x0 PUSH2 0x3053 PUSH1 0x26 DUP4 PUSH2 0x2A16 JUMP JUMPDEST SWAP2 POP PUSH2 0x305E DUP3 PUSH2 0x2FF7 JUMP JUMPDEST PUSH1 0x40 DUP3 ADD SWAP1 POP SWAP2 SWAP1 POP JUMP JUMPDEST PUSH1 0x0 PUSH1 0x20 DUP3 ADD SWAP1 POP DUP2 DUP2 SUB PUSH1 0x0 DUP4 ADD MSTORE PUSH2 0x3082 DUP2 PUSH2 0x3046 JUMP JUMPDEST SWAP1 POP SWAP2 SWAP1 POP JUMP INVALID LOG2 PUSH5 0x6970667358 0x22 SLT KECCAK256 0xDB PUSH9 0xE00DF7808DBE8E1A50 STATICCALL 0xC3 0xAA 0xE1 0xC6 DUP6 0xDB PC 0xCF 0x27 EXP 0xC8 PUSH24 0x98B8BDD2A5A88F864736F6C634300080D00330000000000 "
				},
				"gasEstimates": {
					"creation": {
						"codeDepositCost": "2495800",
						"executionCost": "infinite",
						"totalCost": "infinite"
					},
					"external": {
						"addChallenge(uint8,uint256,uint256,uint256,uint256)": "infinite",
						"challengeIdInex()": "2653",
						"enterChallenge(uint16,uint256,uint256)": "infinite",
						"getChallengeInfo(uint16)": "infinite",
						"getUserChallengeInfo(address,uint16)": "infinite",
						"getUserChallenges(address)": "infinite",
						"getUserRewards(address,uint16)": "infinite",
						"isAdmin(address)": "2906",
						"modificationAdmin(address,bool)": "infinite",
						"nftCost()": "2451",
						"onERC1155BatchReceived(address,address,uint256[],uint256[],bytes)": "infinite",
						"onERC1155Received(address,address,uint256,uint256,bytes)": "infinite",
						"openChallenge(uint16,uint256)": "infinite",
						"owner()": "2589",
						"renounceOwnership()": "30485",
						"rewardToken()": "2624",
						"setNftCost(uint256)": "24848",
						"setRewardToken(address)": "27007",
						"setTeamNft(address)": "27051",
						"supportsInterface(bytes4)": "751",
						"teamNft()": "2559",
						"transferOwnership(address)": "30786",
						"withdrawReward(uint16)": "infinite"
					},
					"internal": {
						"_getWinnerTokenId(uint16)": "infinite"
					}
				},
				"methodIdentifiers": {
					"addChallenge(uint8,uint256,uint256,uint256,uint256)": "d5bf583b",
					"challengeIdInex()": "ffa65732",
					"enterChallenge(uint16,uint256,uint256)": "52964def",
					"getChallengeInfo(uint16)": "891ee6d3",
					"getUserChallengeInfo(address,uint16)": "749f3429",
					"getUserChallenges(address)": "11da8e54",
					"getUserRewards(address,uint16)": "21569088",
					"isAdmin(address)": "24d7806c",
					"modificationAdmin(address,bool)": "18e20ecf",
					"nftCost()": "da80e59b",
					"onERC1155BatchReceived(address,address,uint256[],uint256[],bytes)": "bc197c81",
					"onERC1155Received(address,address,uint256,uint256,bytes)": "f23a6e61",
					"openChallenge(uint16,uint256)": "a278602f",
					"owner()": "8da5cb5b",
					"renounceOwnership()": "715018a6",
					"rewardToken()": "f7c618c1",
					"setNftCost(uint256)": "f606faea",
					"setRewardToken(address)": "8aee8127",
					"setTeamNft(address)": "6cd262fb",
					"supportsInterface(bytes4)": "01ffc9a7",
					"teamNft()": "270e3994",
					"transferOwnership(address)": "f2fde38b",
					"withdrawReward(uint16)": "082d0785"
				}
			},
			"storageLayout": {
				"storage": [
					{
						"astId": 388,
						"contract": "worldcup/DreamChallenge.sol:DreamChallenge",
						"label": "_admins",
						"offset": 0,
						"slot": "0",
						"type": "t_mapping(t_address,t_bool)"
					},
					{
						"astId": 390,
						"contract": "worldcup/DreamChallenge.sol:DreamChallenge",
						"label": "_owner",
						"offset": 0,
						"slot": "1",
						"type": "t_address"
					},
					{
						"astId": 549,
						"contract": "worldcup/DreamChallenge.sol:DreamChallenge",
						"label": "teamNft",
						"offset": 0,
						"slot": "2",
						"type": "t_address"
					},
					{
						"astId": 551,
						"contract": "worldcup/DreamChallenge.sol:DreamChallenge",
						"label": "rewardToken",
						"offset": 0,
						"slot": "3",
						"type": "t_address"
					},
					{
						"astId": 554,
						"contract": "worldcup/DreamChallenge.sol:DreamChallenge",
						"label": "challengeIdInex",
						"offset": 20,
						"slot": "3",
						"type": "t_uint16"
					},
					{
						"astId": 561,
						"contract": "worldcup/DreamChallenge.sol:DreamChallenge",
						"label": "nftCost",
						"offset": 0,
						"slot": "4",
						"type": "t_uint256"
					},
					{
						"astId": 598,
						"contract": "worldcup/DreamChallenge.sol:DreamChallenge",
						"label": "challenges",
						"offset": 0,
						"slot": "5",
						"type": "t_mapping(t_uint16,t_struct(Challenge)584_storage)"
					},
					{
						"astId": 605,
						"contract": "worldcup/DreamChallenge.sol:DreamChallenge",
						"label": "userChallenges",
						"offset": 0,
						"slot": "6",
						"type": "t_mapping(t_address,t_mapping(t_uint16,t_struct(UserInfo)593_storage))"
					},
					{
						"astId": 610,
						"contract": "worldcup/DreamChallenge.sol:DreamChallenge",
						"label": "userChallengeIds",
						"offset": 0,
						"slot": "7",
						"type": "t_mapping(t_address,t_array(t_uint16)dyn_storage)"
					}
				],
				"types": {
					"t_address": {
						"encoding": "inplace",
						"label": "address",
						"numberOfBytes": "20"
					},
					"t_array(t_uint16)dyn_storage": {
						"base": "t_uint16",
						"encoding": "dynamic_array",
						"label": "uint16[]",
						"numberOfBytes": "32"
					},
					"t_bool": {
						"encoding": "inplace",
						"label": "bool",
						"numberOfBytes": "1"
					},
					"t_enum(Ctype)564": {
						"encoding": "inplace",
						"label": "enum DreamChallenge.Ctype",
						"numberOfBytes": "1"
					},
					"t_mapping(t_address,t_array(t_uint16)dyn_storage)": {
						"encoding": "mapping",
						"key": "t_address",
						"label": "mapping(address => uint16[])",
						"numberOfBytes": "32",
						"value": "t_array(t_uint16)dyn_storage"
					},
					"t_mapping(t_address,t_bool)": {
						"encoding": "mapping",
						"key": "t_address",
						"label": "mapping(address => bool)",
						"numberOfBytes": "32",
						"value": "t_bool"
					},
					"t_mapping(t_address,t_mapping(t_uint16,t_struct(UserInfo)593_storage))": {
						"encoding": "mapping",
						"key": "t_address",
						"label": "mapping(address => mapping(uint16 => struct DreamChallenge.UserInfo))",
						"numberOfBytes": "32",
						"value": "t_mapping(t_uint16,t_struct(UserInfo)593_storage)"
					},
					"t_mapping(t_uint16,t_struct(Challenge)584_storage)": {
						"encoding": "mapping",
						"key": "t_uint16",
						"label": "mapping(uint16 => struct DreamChallenge.Challenge)",
						"numberOfBytes": "32",
						"value": "t_struct(Challenge)584_storage"
					},
					"t_mapping(t_uint16,t_struct(UserInfo)593_storage)": {
						"encoding": "mapping",
						"key": "t_uint16",
						"label": "mapping(uint16 => struct DreamChallenge.UserInfo)",
						"numberOfBytes": "32",
						"value": "t_struct(UserInfo)593_storage"
					},
					"t_struct(Challenge)584_storage": {
						"encoding": "inplace",
						"label": "struct DreamChallenge.Challenge",
						"members": [
							{
								"astId": 567,
								"contract": "worldcup/DreamChallenge.sol:DreamChallenge",
								"label": "ctype",
								"offset": 0,
								"slot": "0",
								"type": "t_enum(Ctype)564"
							},
							{
								"astId": 569,
								"contract": "worldcup/DreamChallenge.sol:DreamChallenge",
								"label": "id",
								"offset": 1,
								"slot": "0",
								"type": "t_uint16"
							},
							{
								"astId": 571,
								"contract": "worldcup/DreamChallenge.sol:DreamChallenge",
								"label": "startAt",
								"offset": 0,
								"slot": "1",
								"type": "t_uint256"
							},
							{
								"astId": 573,
								"contract": "worldcup/DreamChallenge.sol:DreamChallenge",
								"label": "endAt",
								"offset": 0,
								"slot": "2",
								"type": "t_uint256"
							},
							{
								"astId": 575,
								"contract": "worldcup/DreamChallenge.sol:DreamChallenge",
								"label": "tokenIdLeft",
								"offset": 0,
								"slot": "3",
								"type": "t_uint256"
							},
							{
								"astId": 577,
								"contract": "worldcup/DreamChallenge.sol:DreamChallenge",
								"label": "tokenIdRight",
								"offset": 0,
								"slot": "4",
								"type": "t_uint256"
							},
							{
								"astId": 579,
								"contract": "worldcup/DreamChallenge.sol:DreamChallenge",
								"label": "leftTotalAmount",
								"offset": 0,
								"slot": "5",
								"type": "t_uint256"
							},
							{
								"astId": 581,
								"contract": "worldcup/DreamChallenge.sol:DreamChallenge",
								"label": "rightTotalAmount",
								"offset": 0,
								"slot": "6",
								"type": "t_uint256"
							},
							{
								"astId": 583,
								"contract": "worldcup/DreamChallenge.sol:DreamChallenge",
								"label": "winnerTokenId",
								"offset": 0,
								"slot": "7",
								"type": "t_uint256"
							}
						],
						"numberOfBytes": "256"
					},
					"t_struct(UserInfo)593_storage": {
						"encoding": "inplace",
						"label": "struct DreamChallenge.UserInfo",
						"members": [
							{
								"astId": 586,
								"contract": "worldcup/DreamChallenge.sol:DreamChallenge",
								"label": "challengeId",
								"offset": 0,
								"slot": "0",
								"type": "t_uint16"
							},
							{
								"astId": 588,
								"contract": "worldcup/DreamChallenge.sol:DreamChallenge",
								"label": "amountsLeft",
								"offset": 0,
								"slot": "1",
								"type": "t_uint256"
							},
							{
								"astId": 590,
								"contract": "worldcup/DreamChallenge.sol:DreamChallenge",
								"label": "amountsRight",
								"offset": 0,
								"slot": "2",
								"type": "t_uint256"
							},
							{
								"astId": 592,
								"contract": "worldcup/DreamChallenge.sol:DreamChallenge",
								"label": "isTakeReward",
								"offset": 0,
								"slot": "3",
								"type": "t_bool"
							}
						],
						"numberOfBytes": "128"
					},
					"t_uint16": {
						"encoding": "inplace",
						"label": "uint16",
						"numberOfBytes": "2"
					},
					"t_uint256": {
						"encoding": "inplace",
						"label": "uint256",
						"numberOfBytes": "32"
					}
				}
			},
			"userdoc": {
				"kind": "user",
				"methods": {},
				"version": 1
			}
		}
	}
}