{
	"inviter_presell/stake.sol": {
		"StakingRewards": {
			"abi": [
				{
					"anonymous": false,
					"inputs": [
						{
							"indexed": true,
							"internalType": "address",
							"name": "admin",
							"type": "address"
						},
						{
							"indexed": false,
							"internalType": "bool",
							"name": "oldState",
							"type": "bool"
						},
						{
							"indexed": false,
							"internalType": "bool",
							"name": "newState",
							"type": "bool"
						}
					],
					"name": "ModificationAdmin",
					"type": "event"
				},
				{
					"anonymous": false,
					"inputs": [
						{
							"indexed": true,
							"internalType": "address",
							"name": "previousOwner",
							"type": "address"
						},
						{
							"indexed": true,
							"internalType": "address",
							"name": "newOwner",
							"type": "address"
						}
					],
					"name": "OwnershipTransferred",
					"type": "event"
				},
				{
					"anonymous": false,
					"inputs": [
						{
							"indexed": true,
							"internalType": "address",
							"name": "user",
							"type": "address"
						},
						{
							"indexed": false,
							"internalType": "uint256",
							"name": "reward",
							"type": "uint256"
						}
					],
					"name": "RewardPaid",
					"type": "event"
				},
				{
					"anonymous": false,
					"inputs": [
						{
							"indexed": true,
							"internalType": "address",
							"name": "user",
							"type": "address"
						},
						{
							"indexed": false,
							"internalType": "uint256",
							"name": "amount",
							"type": "uint256"
						}
					],
					"name": "Staked",
					"type": "event"
				},
				{
					"inputs": [],
					"name": "curTime",
					"outputs": [
						{
							"internalType": "uint256",
							"name": "",
							"type": "uint256"
						}
					],
					"stateMutability": "view",
					"type": "function"
				},
				{
					"inputs": [
						{
							"internalType": "address",
							"name": "account",
							"type": "address"
						}
					],
					"name": "earned",
					"outputs": [
						{
							"internalType": "uint256",
							"name": "",
							"type": "uint256"
						}
					],
					"stateMutability": "view",
					"type": "function"
				},
				{
					"inputs": [],
					"name": "emergencyWithdraw",
					"outputs": [],
					"stateMutability": "nonpayable",
					"type": "function"
				},
				{
					"inputs": [
						{
							"internalType": "address",
							"name": "token",
							"type": "address"
						},
						{
							"internalType": "uint256",
							"name": "amount",
							"type": "uint256"
						}
					],
					"name": "emergencyWithdrawToken",
					"outputs": [],
					"stateMutability": "nonpayable",
					"type": "function"
				},
				{
					"inputs": [],
					"name": "getCurRewardPool",
					"outputs": [
						{
							"internalType": "uint256",
							"name": "",
							"type": "uint256"
						}
					],
					"stateMutability": "view",
					"type": "function"
				},
				{
					"inputs": [],
					"name": "getCurRewardRate",
					"outputs": [
						{
							"internalType": "uint256",
							"name": "",
							"type": "uint256"
						}
					],
					"stateMutability": "view",
					"type": "function"
				},
				{
					"inputs": [
						{
							"internalType": "uint256",
							"name": "time",
							"type": "uint256"
						}
					],
					"name": "getRemainPool",
					"outputs": [
						{
							"internalType": "uint256",
							"name": "",
							"type": "uint256"
						}
					],
					"stateMutability": "view",
					"type": "function"
				},
				{
					"inputs": [],
					"name": "getReward",
					"outputs": [],
					"stateMutability": "nonpayable",
					"type": "function"
				},
				{
					"inputs": [
						{
							"internalType": "uint256",
							"name": "time",
							"type": "uint256"
						}
					],
					"name": "getRewardPool",
					"outputs": [
						{
							"internalType": "uint256",
							"name": "",
							"type": "uint256"
						}
					],
					"stateMutability": "view",
					"type": "function"
				},
				{
					"inputs": [
						{
							"internalType": "uint256",
							"name": "leftTime",
							"type": "uint256"
						},
						{
							"internalType": "uint256",
							"name": "rightTime",
							"type": "uint256"
						}
					],
					"name": "getTimeWeightedAveRate",
					"outputs": [
						{
							"internalType": "uint256",
							"name": "",
							"type": "uint256"
						}
					],
					"stateMutability": "view",
					"type": "function"
				},
				{
					"inputs": [
						{
							"internalType": "address",
							"name": "account",
							"type": "address"
						}
					],
					"name": "isAdmin",
					"outputs": [
						{
							"internalType": "bool",
							"name": "",
							"type": "bool"
						}
					],
					"stateMutability": "view",
					"type": "function"
				},
				{
					"inputs": [],
					"name": "lastTimeRewardApplicable",
					"outputs": [
						{
							"internalType": "uint256",
							"name": "",
							"type": "uint256"
						}
					],
					"stateMutability": "view",
					"type": "function"
				},
				{
					"inputs": [],
					"name": "lastUpdateTime",
					"outputs": [
						{
							"internalType": "uint256",
							"name": "",
							"type": "uint256"
						}
					],
					"stateMutability": "view",
					"type": "function"
				},
				{
					"inputs": [
						{
							"internalType": "address",
							"name": "admin",
							"type": "address"
						},
						{
							"internalType": "bool",
							"name": "state",
							"type": "bool"
						}
					],
					"name": "modificationAdmin",
					"outputs": [],
					"stateMutability": "nonpayable",
					"type": "function"
				},
				{
					"inputs": [],
					"name": "owner",
					"outputs": [
						{
							"internalType": "address",
							"name": "",
							"type": "address"
						}
					],
					"stateMutability": "view",
					"type": "function"
				},
				{
					"inputs": [
						{
							"internalType": "address",
							"name": "account",
							"type": "address"
						}
					],
					"name": "powersOf",
					"outputs": [
						{
							"internalType": "uint256",
							"name": "",
							"type": "uint256"
						}
					],
					"stateMutability": "view",
					"type": "function"
				},
				{
					"inputs": [],
					"name": "rateInterval",
					"outputs": [
						{
							"internalType": "uint256",
							"name": "",
							"type": "uint256"
						}
					],
					"stateMutability": "view",
					"type": "function"
				},
				{
					"inputs": [],
					"name": "rateIntervalDenominator",
					"outputs": [
						{
							"internalType": "uint256",
							"name": "",
							"type": "uint256"
						}
					],
					"stateMutability": "view",
					"type": "function"
				},
				{
					"inputs": [],
					"name": "rateIntervalNumerator",
					"outputs": [
						{
							"internalType": "uint256",
							"name": "",
							"type": "uint256"
						}
					],
					"stateMutability": "view",
					"type": "function"
				},
				{
					"inputs": [],
					"name": "renounceOwnership",
					"outputs": [],
					"stateMutability": "nonpayable",
					"type": "function"
				},
				{
					"inputs": [
						{
							"internalType": "uint256",
							"name": "rewardRate",
							"type": "uint256"
						}
					],
					"name": "rewardPerToken",
					"outputs": [
						{
							"internalType": "uint256",
							"name": "",
							"type": "uint256"
						}
					],
					"stateMutability": "view",
					"type": "function"
				},
				{
					"inputs": [],
					"name": "rewardPerTokenStored",
					"outputs": [
						{
							"internalType": "uint256",
							"name": "",
							"type": "uint256"
						}
					],
					"stateMutability": "view",
					"type": "function"
				},
				{
					"inputs": [
						{
							"internalType": "address",
							"name": "",
							"type": "address"
						}
					],
					"name": "rewards",
					"outputs": [
						{
							"internalType": "uint256",
							"name": "",
							"type": "uint256"
						}
					],
					"stateMutability": "view",
					"type": "function"
				},
				{
					"inputs": [],
					"name": "rewardsToken",
					"outputs": [
						{
							"internalType": "contract IERC20",
							"name": "",
							"type": "address"
						}
					],
					"stateMutability": "view",
					"type": "function"
				},
				{
					"inputs": [
						{
							"internalType": "uint256",
							"name": "rateInterval",
							"type": "uint256"
						}
					],
					"name": "setConfig",
					"outputs": [],
					"stateMutability": "nonpayable",
					"type": "function"
				},
				{
					"inputs": [
						{
							"internalType": "address",
							"name": "token",
							"type": "address"
						}
					],
					"name": "setRewardToken",
					"outputs": [],
					"stateMutability": "nonpayable",
					"type": "function"
				},
				{
					"inputs": [
						{
							"internalType": "uint256",
							"name": "time",
							"type": "uint256"
						}
					],
					"name": "setStartTime",
					"outputs": [],
					"stateMutability": "nonpayable",
					"type": "function"
				},
				{
					"inputs": [
						{
							"internalType": "address",
							"name": "user",
							"type": "address"
						},
						{
							"internalType": "uint256",
							"name": "amount",
							"type": "uint256"
						}
					],
					"name": "stake",
					"outputs": [],
					"stateMutability": "nonpayable",
					"type": "function"
				},
				{
					"inputs": [],
					"name": "startTime",
					"outputs": [
						{
							"internalType": "uint256",
							"name": "",
							"type": "uint256"
						}
					],
					"stateMutability": "view",
					"type": "function"
				},
				{
					"inputs": [],
					"name": "totalPowers",
					"outputs": [
						{
							"internalType": "uint256",
							"name": "",
							"type": "uint256"
						}
					],
					"stateMutability": "view",
					"type": "function"
				},
				{
					"inputs": [],
					"name": "totalRewards",
					"outputs": [
						{
							"internalType": "uint256",
							"name": "",
							"type": "uint256"
						}
					],
					"stateMutability": "view",
					"type": "function"
				},
				{
					"inputs": [
						{
							"internalType": "address",
							"name": "newOwner",
							"type": "address"
						}
					],
					"name": "transferOwnership",
					"outputs": [],
					"stateMutability": "nonpayable",
					"type": "function"
				},
				{
					"inputs": [
						{
							"internalType": "address",
							"name": "",
							"type": "address"
						}
					],
					"name": "userLastUpdateTime",
					"outputs": [
						{
							"internalType": "uint256",
							"name": "",
							"type": "uint256"
						}
					],
					"stateMutability": "view",
					"type": "function"
				},
				{
					"inputs": [
						{
							"internalType": "address",
							"name": "",
							"type": "address"
						}
					],
					"name": "userRewardPerTokenPaid",
					"outputs": [
						{
							"internalType": "uint256",
							"name": "",
							"type": "uint256"
						}
					],
					"stateMutability": "view",
					"type": "function"
				}
			],
			"devdoc": {
				"kind": "dev",
				"methods": {},
				"version": 1
			},
			"evm": {
				"assembly": "    /* \"inviter_presell/stake.sol\":371:7410  contract StakingRewards is Adminable , ReentrancyGuard{... */\n  mstore(0x40, 0x80)\n    /* \"inviter_presell/stake.sol\":581:598  168000 * 10 ** 18 */\n  0x23934c5a09da19000000\n    /* \"inviter_presell/stake.sol\":551:598  uint256 public totalRewards = 168000 * 10 ** 18 */\n  0x05\n  sstore\n    /* \"inviter_presell/stake.sol\":666:676  10 minutes */\n  0x0258\n    /* \"inviter_presell/stake.sol\":636:676  uint256 public rateInterval = 10 minutes */\n  0x07\n  sstore\n    /* \"inviter_presell/stake.sol\":722:723  5 */\n  0x05\n    /* \"inviter_presell/stake.sol\":683:723  uint256 public rateIntervalNumerator = 5 */\n  0x08\n  sstore\n    /* \"inviter_presell/stake.sol\":771:775  1000 */\n  0x03e8\n    /* \"inviter_presell/stake.sol\":730:775  uint256 public rateIntervalDenominator = 1000 */\n  0x09\n  sstore\n    /* \"inviter_presell/stake.sol\":371:7410  contract StakingRewards is Adminable , ReentrancyGuard{... */\n  callvalue\n  dup1\n  iszero\n  tag_1\n  jumpi\n  0x00\n  dup1\n  revert\ntag_1:\n  pop\n    /* \"inviter_presell/adminable.sol\":603:635  _transferOwnership(_msgSender()) */\n  tag_5\n    /* \"inviter_presell/adminable.sol\":622:634  _msgSender() */\n  tag_6\n    /* \"inviter_presell/adminable.sol\":622:632  _msgSender */\n  shl(0x20, tag_7)\n    /* \"inviter_presell/adminable.sol\":622:634  _msgSender() */\n  0x20\n  shr\n  jump\t// in\ntag_6:\n    /* \"inviter_presell/adminable.sol\":603:621  _transferOwnership */\n  shl(0x20, tag_8)\n    /* \"inviter_presell/adminable.sol\":603:635  _transferOwnership(_msgSender()) */\n  0x20\n  shr\n  jump\t// in\ntag_5:\n    /* \"node_modules/@openzeppelin/contracts/security/ReentrancyGuard.sol\":1701:1702  1 */\n  0x01\n    /* \"node_modules/@openzeppelin/contracts/security/ReentrancyGuard.sol\":1806:1813  _status */\n  0x02\n    /* \"node_modules/@openzeppelin/contracts/security/ReentrancyGuard.sol\":1806:1828  _status = _NOT_ENTERED */\n  dup2\n  swap1\n  sstore\n  pop\n    /* \"inviter_presell/stake.sol\":371:7410  contract StakingRewards is Adminable , ReentrancyGuard{... */\n  jump(tag_10)\n    /* \"inviter_presell/adminable.sol\":63:161  function _msgSender() internal view virtual returns (address) {... */\ntag_7:\n    /* \"inviter_presell/adminable.sol\":116:123  address */\n  0x00\n    /* \"inviter_presell/adminable.sol\":143:153  msg.sender */\n  caller\n    /* \"inviter_presell/adminable.sol\":136:153  return msg.sender */\n  swap1\n  pop\n    /* \"inviter_presell/adminable.sol\":63:161  function _msgSender() internal view virtual returns (address) {... */\n  swap1\n  jump\t// out\n    /* \"inviter_presell/adminable.sol\":1443:1634  function _transferOwnership(address newOwner) internal virtual {... */\ntag_8:\n    /* \"inviter_presell/adminable.sol\":1517:1533  address oldOwner */\n  0x00\n    /* \"inviter_presell/adminable.sol\":1536:1542  _owner */\n  0x01\n  0x00\n  swap1\n  sload\n  swap1\n  0x0100\n  exp\n  swap1\n  div\n  0xffffffffffffffffffffffffffffffffffffffff\n  and\n    /* \"inviter_presell/adminable.sol\":1517:1542  address oldOwner = _owner */\n  swap1\n  pop\n    /* \"inviter_presell/adminable.sol\":1562:1570  newOwner */\n  dup2\n    /* \"inviter_presell/adminable.sol\":1553:1559  _owner */\n  0x01\n  0x00\n    /* \"inviter_presell/adminable.sol\":1553:1570  _owner = newOwner */\n  0x0100\n  exp\n  dup2\n  sload\n  dup2\n  0xffffffffffffffffffffffffffffffffffffffff\n  mul\n  not\n  and\n  swap1\n  dup4\n  0xffffffffffffffffffffffffffffffffffffffff\n  and\n  mul\n  or\n  swap1\n  sstore\n  pop\n    /* \"inviter_presell/adminable.sol\":1617:1625  newOwner */\n  dup2\n    /* \"inviter_presell/adminable.sol\":1586:1626  OwnershipTransferred(oldOwner, newOwner) */\n  0xffffffffffffffffffffffffffffffffffffffff\n  and\n    /* \"inviter_presell/adminable.sol\":1607:1615  oldOwner */\n  dup2\n    /* \"inviter_presell/adminable.sol\":1586:1626  OwnershipTransferred(oldOwner, newOwner) */\n  0xffffffffffffffffffffffffffffffffffffffff\n  and\n  0x8be0079c531659141344cd1fd0a4f28419497f9722a3daafe3b4186f6b6457e0\n  mload(0x40)\n  mload(0x40)\n  dup1\n  swap2\n  sub\n  swap1\n  log3\n    /* \"inviter_presell/adminable.sol\":1506:1634  {... */\n  pop\n    /* \"inviter_presell/adminable.sol\":1443:1634  function _transferOwnership(address newOwner) internal virtual {... */\n  pop\n  jump\t// out\n    /* \"inviter_presell/stake.sol\":371:7410  contract StakingRewards is Adminable , ReentrancyGuard{... */\ntag_10:\n  dataSize(sub_0)\n  dup1\n  dataOffset(sub_0)\n  0x00\n  codecopy\n  0x00\n  return\nstop\n\nsub_0: assembly {\n        /* \"inviter_presell/stake.sol\":371:7410  contract StakingRewards is Adminable , ReentrancyGuard{... */\n      mstore(0x40, 0x80)\n      callvalue\n      dup1\n      iszero\n      tag_1\n      jumpi\n      0x00\n      dup1\n      revert\n    tag_1:\n      pop\n      jumpi(tag_2, lt(calldatasize, 0x04))\n      shr(0xe0, calldataload(0x00))\n      dup1\n      0x874c120b\n      gt\n      tag_37\n      jumpi\n      dup1\n      0xadc9772e\n      gt\n      tag_38\n      jumpi\n      dup1\n      0xd1af0c7d\n      gt\n      tag_39\n      jumpi\n      dup1\n      0xd1af0c7d\n      eq\n      tag_32\n      jumpi\n      dup1\n      0xda4f8431\n      eq\n      tag_33\n      jumpi\n      dup1\n      0xdb2e21bc\n      eq\n      tag_34\n      jumpi\n      dup1\n      0xdf136d65\n      eq\n      tag_35\n      jumpi\n      dup1\n      0xf2fde38b\n      eq\n      tag_36\n      jumpi\n      jump(tag_2)\n    tag_39:\n      dup1\n      0xadc9772e\n      eq\n      tag_28\n      jumpi\n      dup1\n      0xb79ec812\n      eq\n      tag_29\n      jumpi\n      dup1\n      0xc8f33c91\n      eq\n      tag_30\n      jumpi\n      dup1\n      0xcdda56e0\n      eq\n      tag_31\n      jumpi\n      jump(tag_2)\n    tag_38:\n      dup1\n      0x8da5cb5b\n      gt\n      tag_40\n      jumpi\n      dup1\n      0x8da5cb5b\n      eq\n      tag_24\n      jumpi\n      dup1\n      0x9499c549\n      eq\n      tag_25\n      jumpi\n      dup1\n      0x9a5b17b0\n      eq\n      tag_26\n      jumpi\n      dup1\n      0xa4c3b091\n      eq\n      tag_27\n      jumpi\n      jump(tag_2)\n    tag_40:\n      dup1\n      0x874c120b\n      eq\n      tag_20\n      jumpi\n      dup1\n      0x893bcfbe\n      eq\n      tag_21\n      jumpi\n      dup1\n      0x8aee8127\n      eq\n      tag_22\n      jumpi\n      dup1\n      0x8b876347\n      eq\n      tag_23\n      jumpi\n      jump(tag_2)\n    tag_37:\n      dup1\n      0x4dbdc4eb\n      gt\n      tag_41\n      jumpi\n      dup1\n      0x715018a6\n      gt\n      tag_42\n      jumpi\n      dup1\n      0x715018a6\n      eq\n      tag_15\n      jumpi\n      dup1\n      0x78e97925\n      eq\n      tag_16\n      jumpi\n      dup1\n      0x7a6fcee7\n      eq\n      tag_17\n      jumpi\n      dup1\n      0x80faa57d\n      eq\n      tag_18\n      jumpi\n      dup1\n      0x8107368b\n      eq\n      tag_19\n      jumpi\n      jump(tag_2)\n    tag_42:\n      dup1\n      0x4dbdc4eb\n      eq\n      tag_11\n      jumpi\n      dup1\n      0x5cfa91f4\n      eq\n      tag_12\n      jumpi\n      dup1\n      0x6139d4b4\n      eq\n      tag_13\n      jumpi\n      dup1\n      0x6917c501\n      eq\n      tag_14\n      jumpi\n      jump(tag_2)\n    tag_41:\n      dup1\n      0x24d7806c\n      gt\n      tag_43\n      jumpi\n      dup1\n      0x24d7806c\n      eq\n      tag_7\n      jumpi\n      dup1\n      0x3c4045cf\n      eq\n      tag_8\n      jumpi\n      dup1\n      0x3d18b912\n      eq\n      tag_9\n      jumpi\n      dup1\n      0x3e0a322d\n      eq\n      tag_10\n      jumpi\n      jump(tag_2)\n    tag_43:\n      dup1\n      0x8cc262\n      eq\n      tag_3\n      jumpi\n      dup1\n      0x0700037d\n      eq\n      tag_4\n      jumpi\n      dup1\n      0x0e15561a\n      eq\n      tag_5\n      jumpi\n      dup1\n      0x18e20ecf\n      eq\n      tag_6\n      jumpi\n    tag_2:\n      0x00\n      dup1\n      revert\n        /* \"inviter_presell/stake.sol\":4551:4847  function earned(address account) public view returns (uint256) {... */\n    tag_3:\n      tag_44\n      0x04\n      dup1\n      calldatasize\n      sub\n      dup2\n      add\n      swap1\n      tag_45\n      swap2\n      swap1\n      tag_46\n      jump\t// in\n    tag_45:\n      tag_47\n      jump\t// in\n    tag_44:\n      mload(0x40)\n      tag_48\n      swap2\n      swap1\n      tag_49\n      jump\t// in\n    tag_48:\n      mload(0x40)\n      dup1\n      swap2\n      sub\n      swap1\n      return\n        /* \"inviter_presell/stake.sol\":500:542  mapping(address => uint256) public rewards */\n    tag_4:\n      tag_50\n      0x04\n      dup1\n      calldatasize\n      sub\n      dup2\n      add\n      swap1\n      tag_51\n      swap2\n      swap1\n      tag_46\n      jump\t// in\n    tag_51:\n      tag_52\n      jump\t// in\n    tag_50:\n      mload(0x40)\n      tag_53\n      swap2\n      swap1\n      tag_49\n      jump\t// in\n    tag_53:\n      mload(0x40)\n      dup1\n      swap2\n      sub\n      swap1\n      return\n        /* \"inviter_presell/stake.sol\":551:598  uint256 public totalRewards = 168000 * 10 ** 18 */\n    tag_5:\n      tag_54\n      tag_55\n      jump\t// in\n    tag_54:\n      mload(0x40)\n      tag_56\n      swap2\n      swap1\n      tag_49\n      jump\t// in\n    tag_56:\n      mload(0x40)\n      dup1\n      swap2\n      sub\n      swap1\n      return\n        /* \"inviter_presell/adminable.sol\":1642:1826  function modificationAdmin(address admin, bool state) public virtual onlyOwner {... */\n    tag_6:\n      tag_57\n      0x04\n      dup1\n      calldatasize\n      sub\n      dup2\n      add\n      swap1\n      tag_58\n      swap2\n      swap1\n      tag_59\n      jump\t// in\n    tag_58:\n      tag_60\n      jump\t// in\n    tag_57:\n      stop\n        /* \"inviter_presell/adminable.sol\":1004:1115  function isAdmin(address account) public view virtual returns (bool) {... */\n    tag_7:\n      tag_61\n      0x04\n      dup1\n      calldatasize\n      sub\n      dup2\n      add\n      swap1\n      tag_62\n      swap2\n      swap1\n      tag_46\n      jump\t// in\n    tag_62:\n      tag_63\n      jump\t// in\n    tag_61:\n      mload(0x40)\n      tag_64\n      swap2\n      swap1\n      tag_65\n      jump\t// in\n    tag_64:\n      mload(0x40)\n      dup1\n      swap2\n      sub\n      swap1\n      return\n        /* \"inviter_presell/stake.sol\":683:723  uint256 public rateIntervalNumerator = 5 */\n    tag_8:\n      tag_66\n      tag_67\n      jump\t// in\n    tag_66:\n      mload(0x40)\n      tag_68\n      swap2\n      swap1\n      tag_49\n      jump\t// in\n    tag_68:\n      mload(0x40)\n      dup1\n      swap2\n      sub\n      swap1\n      return\n        /* \"inviter_presell/stake.sol\":6589:6894  function getReward() external nonReentrant updateReward(msg.sender) {... */\n    tag_9:\n      tag_69\n      tag_70\n      jump\t// in\n    tag_69:\n      stop\n        /* \"inviter_presell/stake.sol\":1760:1850  function setStartTime(uint256 time) external onlyAdmin {... */\n    tag_10:\n      tag_71\n      0x04\n      dup1\n      calldatasize\n      sub\n      dup2\n      add\n      swap1\n      tag_72\n      swap2\n      swap1\n      tag_73\n      jump\t// in\n    tag_72:\n      tag_74\n      jump\t// in\n    tag_71:\n      stop\n        /* \"inviter_presell/stake.sol\":3301:3717  function getRemainPool(uint256 time) public view returns (uint256) {... */\n    tag_11:\n      tag_75\n      0x04\n      dup1\n      calldatasize\n      sub\n      dup2\n      add\n      swap1\n      tag_76\n      swap2\n      swap1\n      tag_73\n      jump\t// in\n    tag_76:\n      tag_77\n      jump\t// in\n    tag_75:\n      mload(0x40)\n      tag_78\n      swap2\n      swap1\n      tag_49\n      jump\t// in\n    tag_78:\n      mload(0x40)\n      dup1\n      swap2\n      sub\n      swap1\n      return\n        /* \"inviter_presell/stake.sol\":2302:2867  function getRewardPool(uint256 time) public view returns (uint256) {... */\n    tag_12:\n      tag_79\n      0x04\n      dup1\n      calldatasize\n      sub\n      dup2\n      add\n      swap1\n      tag_80\n      swap2\n      swap1\n      tag_73\n      jump\t// in\n    tag_80:\n      tag_81\n      jump\t// in\n    tag_79:\n      mload(0x40)\n      tag_82\n      swap2\n      swap1\n      tag_49\n      jump\t// in\n    tag_82:\n      mload(0x40)\n      dup1\n      swap2\n      sub\n      swap1\n      return\n        /* \"inviter_presell/stake.sol\":636:676  uint256 public rateInterval = 10 minutes */\n    tag_13:\n      tag_83\n      tag_84\n      jump\t// in\n    tag_83:\n      mload(0x40)\n      tag_85\n      swap2\n      swap1\n      tag_49\n      jump\t// in\n    tag_85:\n      mload(0x40)\n      dup1\n      swap2\n      sub\n      swap1\n      return\n        /* \"inviter_presell/stake.sol\":1858:1951  function totalPowers() external view returns (uint256) {... */\n    tag_14:\n      tag_86\n      tag_87\n      jump\t// in\n    tag_86:\n      mload(0x40)\n      tag_88\n      swap2\n      swap1\n      tag_49\n      jump\t// in\n    tag_88:\n      mload(0x40)\n      dup1\n      swap2\n      sub\n      swap1\n      return\n        /* \"inviter_presell/adminable.sol\":1123:1226  function renounceOwnership() public virtual onlyOwner {... */\n    tag_15:\n      tag_89\n      tag_90\n      jump\t// in\n    tag_89:\n      stop\n        /* \"inviter_presell/stake.sol\":605:629  uint256 public startTime */\n    tag_16:\n      tag_91\n      tag_92\n      jump\t// in\n    tag_91:\n      mload(0x40)\n      tag_93\n      swap2\n      swap1\n      tag_49\n      jump\t// in\n    tag_93:\n      mload(0x40)\n      dup1\n      swap2\n      sub\n      swap1\n      return\n        /* \"inviter_presell/stake.sol\":730:775  uint256 public rateIntervalDenominator = 1000 */\n    tag_17:\n      tag_94\n      tag_95\n      jump\t// in\n    tag_94:\n      mload(0x40)\n      tag_96\n      swap2\n      swap1\n      tag_49\n      jump\t// in\n    tag_96:\n      mload(0x40)\n      dup1\n      swap2\n      sub\n      swap1\n      return\n        /* \"inviter_presell/stake.sol\":4080:4187  function lastTimeRewardApplicable() public view returns (uint256) {... */\n    tag_18:\n      tag_97\n      tag_98\n      jump\t// in\n    tag_97:\n      mload(0x40)\n      tag_99\n      swap2\n      swap1\n      tag_49\n      jump\t// in\n    tag_99:\n      mload(0x40)\n      dup1\n      swap2\n      sub\n      swap1\n      return\n        /* \"inviter_presell/stake.sol\":926:979  mapping(address => uint256) public userLastUpdateTime */\n    tag_19:\n      tag_100\n      0x04\n      dup1\n      calldatasize\n      sub\n      dup2\n      add\n      swap1\n      tag_101\n      swap2\n      swap1\n      tag_46\n      jump\t// in\n    tag_101:\n      tag_102\n      jump\t// in\n    tag_100:\n      mload(0x40)\n      tag_103\n      swap2\n      swap1\n      tag_49\n      jump\t// in\n    tag_103:\n      mload(0x40)\n      dup1\n      swap2\n      sub\n      swap1\n      return\n        /* \"inviter_presell/stake.sol\":4195:4543  function rewardPerToken(uint256 rewardRate) public view returns (uint256) {... */\n    tag_20:\n      tag_104\n      0x04\n      dup1\n      calldatasize\n      sub\n      dup2\n      add\n      swap1\n      tag_105\n      swap2\n      swap1\n      tag_73\n      jump\t// in\n    tag_105:\n      tag_106\n      jump\t// in\n    tag_104:\n      mload(0x40)\n      tag_107\n      swap2\n      swap1\n      tag_49\n      jump\t// in\n    tag_107:\n      mload(0x40)\n      dup1\n      swap2\n      sub\n      swap1\n      return\n        /* \"inviter_presell/stake.sol\":1682:1752  function setConfig(uint256 rateInterval) external onlyOwner {... */\n    tag_21:\n      tag_108\n      0x04\n      dup1\n      calldatasize\n      sub\n      dup2\n      add\n      swap1\n      tag_109\n      swap2\n      swap1\n      tag_73\n      jump\t// in\n    tag_109:\n      tag_110\n      jump\t// in\n    tag_108:\n      stop\n        /* \"inviter_presell/stake.sol\":6902:7007  function setRewardToken(address token) external onlyOwner {... */\n    tag_22:\n      tag_111\n      0x04\n      dup1\n      calldatasize\n      sub\n      dup2\n      add\n      swap1\n      tag_112\n      swap2\n      swap1\n      tag_46\n      jump\t// in\n    tag_112:\n      tag_113\n      jump\t// in\n    tag_111:\n      stop\n        /* \"inviter_presell/stake.sol\":862:919  mapping(address => uint256) public userRewardPerTokenPaid */\n    tag_23:\n      tag_114\n      0x04\n      dup1\n      calldatasize\n      sub\n      dup2\n      add\n      swap1\n      tag_115\n      swap2\n      swap1\n      tag_46\n      jump\t// in\n    tag_115:\n      tag_116\n      jump\t// in\n    tag_114:\n      mload(0x40)\n      tag_117\n      swap2\n      swap1\n      tag_49\n      jump\t// in\n    tag_117:\n      mload(0x40)\n      dup1\n      swap2\n      sub\n      swap1\n      return\n        /* \"inviter_presell/adminable.sol\":909:996  function owner() public view virtual returns (address) {... */\n    tag_24:\n      tag_118\n      tag_119\n      jump\t// in\n    tag_118:\n      mload(0x40)\n      tag_120\n      swap2\n      swap1\n      tag_121\n      jump\t// in\n    tag_120:\n      mload(0x40)\n      dup1\n      swap2\n      sub\n      swap1\n      return\n        /* \"inviter_presell/stake.sol\":2180:2294  function getCurRewardPool() public view returns (uint256) {... */\n    tag_25:\n      tag_122\n      tag_123\n      jump\t// in\n    tag_122:\n      mload(0x40)\n      tag_124\n      swap2\n      swap1\n      tag_49\n      jump\t// in\n    tag_124:\n      mload(0x40)\n      dup1\n      swap2\n      sub\n      swap1\n      return\n        /* \"inviter_presell/stake.sol\":1959:2053  function curTime() external  view  returns (uint256) {... */\n    tag_26:\n      tag_125\n      tag_126\n      jump\t// in\n    tag_125:\n      mload(0x40)\n      tag_127\n      swap2\n      swap1\n      tag_49\n      jump\t// in\n    tag_127:\n      mload(0x40)\n      dup1\n      swap2\n      sub\n      swap1\n      return\n        /* \"inviter_presell/stake.sol\":7264:7407  function emergencyWithdrawToken(address token, uint256 amount) external onlyOwner {... */\n    tag_27:\n      tag_128\n      0x04\n      dup1\n      calldatasize\n      sub\n      dup2\n      add\n      swap1\n      tag_129\n      swap2\n      swap1\n      tag_130\n      jump\t// in\n    tag_129:\n      tag_131\n      jump\t// in\n    tag_128:\n      stop\n        /* \"inviter_presell/stake.sol\":6283:6577  function stake(address user, uint256 amount) external nonReentrant onlyAdmin updateReward(user) {... */\n    tag_28:\n      tag_132\n      0x04\n      dup1\n      calldatasize\n      sub\n      dup2\n      add\n      swap1\n      tag_133\n      swap2\n      swap1\n      tag_130\n      jump\t// in\n    tag_133:\n      tag_134\n      jump\t// in\n    tag_132:\n      stop\n        /* \"inviter_presell/stake.sol\":2061:2172  function powersOf(address account) external view returns (uint256) {... */\n    tag_29:\n      tag_135\n      0x04\n      dup1\n      calldatasize\n      sub\n      dup2\n      add\n      swap1\n      tag_136\n      swap2\n      swap1\n      tag_46\n      jump\t// in\n    tag_136:\n      tag_137\n      jump\t// in\n    tag_135:\n      mload(0x40)\n      tag_138\n      swap2\n      swap1\n      tag_49\n      jump\t// in\n    tag_138:\n      mload(0x40)\n      dup1\n      swap2\n      sub\n      swap1\n      return\n        /* \"inviter_presell/stake.sol\":782:811  uint256 public lastUpdateTime */\n    tag_30:\n      tag_139\n      tag_140\n      jump\t// in\n    tag_139:\n      mload(0x40)\n      tag_141\n      swap2\n      swap1\n      tag_49\n      jump\t// in\n    tag_141:\n      mload(0x40)\n      dup1\n      swap2\n      sub\n      swap1\n      return\n        /* \"inviter_presell/stake.sol\":3725:3840  function getCurRewardRate() public view returns (uint256) {... */\n    tag_31:\n      tag_142\n      tag_143\n      jump\t// in\n    tag_142:\n      mload(0x40)\n      tag_144\n      swap2\n      swap1\n      tag_49\n      jump\t// in\n    tag_144:\n      mload(0x40)\n      dup1\n      swap2\n      sub\n      swap1\n      return\n        /* \"inviter_presell/stake.sol\":467:493  IERC20 public rewardsToken */\n    tag_32:\n      tag_145\n      tag_146\n      jump\t// in\n    tag_145:\n      mload(0x40)\n      tag_147\n      swap2\n      swap1\n      tag_148\n      jump\t// in\n    tag_147:\n      mload(0x40)\n      dup1\n      swap2\n      sub\n      swap1\n      return\n        /* \"inviter_presell/stake.sol\":4890:6273  function getTimeWeightedAveRate(uint256 leftTime, uint256 rightTime) public view returns (uint256){... */\n    tag_33:\n      tag_149\n      0x04\n      dup1\n      calldatasize\n      sub\n      dup2\n      add\n      swap1\n      tag_150\n      swap2\n      swap1\n      tag_151\n      jump\t// in\n    tag_150:\n      tag_152\n      jump\t// in\n    tag_149:\n      mload(0x40)\n      tag_153\n      swap2\n      swap1\n      tag_49\n      jump\t// in\n    tag_153:\n      mload(0x40)\n      dup1\n      swap2\n      sub\n      swap1\n      return\n        /* \"inviter_presell/stake.sol\":7141:7256  function emergencyWithdraw() external onlyOwner {... */\n    tag_34:\n      tag_154\n      tag_155\n      jump\t// in\n    tag_154:\n      stop\n        /* \"inviter_presell/stake.sol\":818:853  uint256 public rewardPerTokenStored */\n    tag_35:\n      tag_156\n      tag_157\n      jump\t// in\n    tag_156:\n      mload(0x40)\n      tag_158\n      swap2\n      swap1\n      tag_49\n      jump\t// in\n    tag_158:\n      mload(0x40)\n      dup1\n      swap2\n      sub\n      swap1\n      return\n        /* \"inviter_presell/adminable.sol\":1234:1435  function transferOwnership(address newOwner) public virtual onlyOwner {... */\n    tag_36:\n      tag_159\n      0x04\n      dup1\n      calldatasize\n      sub\n      dup2\n      add\n      swap1\n      tag_160\n      swap2\n      swap1\n      tag_46\n      jump\t// in\n    tag_160:\n      tag_161\n      jump\t// in\n    tag_159:\n      stop\n        /* \"inviter_presell/stake.sol\":4551:4847  function earned(address account) public view returns (uint256) {... */\n    tag_47:\n        /* \"inviter_presell/stake.sol\":4605:4612  uint256 */\n      0x00\n        /* \"inviter_presell/stake.sol\":4625:4637  uint256 rate */\n      dup1\n        /* \"inviter_presell/stake.sol\":4640:4708  getTimeWeightedAveRate(userLastUpdateTime[account], block.timestamp) */\n      tag_163\n        /* \"inviter_presell/stake.sol\":4663:4681  userLastUpdateTime */\n      0x0d\n        /* \"inviter_presell/stake.sol\":4663:4690  userLastUpdateTime[account] */\n      0x00\n        /* \"inviter_presell/stake.sol\":4682:4689  account */\n      dup6\n        /* \"inviter_presell/stake.sol\":4663:4690  userLastUpdateTime[account] */\n      0xffffffffffffffffffffffffffffffffffffffff\n      and\n      0xffffffffffffffffffffffffffffffffffffffff\n      and\n      dup2\n      mstore\n      0x20\n      add\n      swap1\n      dup2\n      mstore\n      0x20\n      add\n      0x00\n      keccak256\n      sload\n        /* \"inviter_presell/stake.sol\":4692:4707  block.timestamp */\n      timestamp\n        /* \"inviter_presell/stake.sol\":4640:4662  getTimeWeightedAveRate */\n      tag_152\n        /* \"inviter_presell/stake.sol\":4640:4708  getTimeWeightedAveRate(userLastUpdateTime[account], block.timestamp) */\n      jump\t// in\n    tag_163:\n        /* \"inviter_presell/stake.sol\":4625:4708  uint256 rate = getTimeWeightedAveRate(userLastUpdateTime[account], block.timestamp) */\n      swap1\n      pop\n        /* \"inviter_presell/stake.sol\":4726:4839  _balances[account].mul(rewardPerToken(rate).sub(userRewardPerTokenPaid[account])).div(1e18).add(rewards[account]) */\n      tag_164\n        /* \"inviter_presell/stake.sol\":4822:4829  rewards */\n      0x04\n        /* \"inviter_presell/stake.sol\":4822:4838  rewards[account] */\n      0x00\n        /* \"inviter_presell/stake.sol\":4830:4837  account */\n      dup6\n        /* \"inviter_presell/stake.sol\":4822:4838  rewards[account] */\n      0xffffffffffffffffffffffffffffffffffffffff\n      and\n      0xffffffffffffffffffffffffffffffffffffffff\n      and\n      dup2\n      mstore\n      0x20\n      add\n      swap1\n      dup2\n      mstore\n      0x20\n      add\n      0x00\n      keccak256\n      sload\n        /* \"inviter_presell/stake.sol\":4726:4817  _balances[account].mul(rewardPerToken(rate).sub(userRewardPerTokenPaid[account])).div(1e18) */\n      tag_165\n        /* \"inviter_presell/stake.sol\":4812:4816  1e18 */\n      0x0de0b6b3a7640000\n        /* \"inviter_presell/stake.sol\":4726:4807  _balances[account].mul(rewardPerToken(rate).sub(userRewardPerTokenPaid[account])) */\n      tag_166\n        /* \"inviter_presell/stake.sol\":4749:4806  rewardPerToken(rate).sub(userRewardPerTokenPaid[account]) */\n      tag_167\n        /* \"inviter_presell/stake.sol\":4774:4796  userRewardPerTokenPaid */\n      0x0c\n        /* \"inviter_presell/stake.sol\":4774:4805  userRewardPerTokenPaid[account] */\n      0x00\n        /* \"inviter_presell/stake.sol\":4797:4804  account */\n      dup11\n        /* \"inviter_presell/stake.sol\":4774:4805  userRewardPerTokenPaid[account] */\n      0xffffffffffffffffffffffffffffffffffffffff\n      and\n      0xffffffffffffffffffffffffffffffffffffffff\n      and\n      dup2\n      mstore\n      0x20\n      add\n      swap1\n      dup2\n      mstore\n      0x20\n      add\n      0x00\n      keccak256\n      sload\n        /* \"inviter_presell/stake.sol\":4749:4769  rewardPerToken(rate) */\n      tag_168\n        /* \"inviter_presell/stake.sol\":4764:4768  rate */\n      dup9\n        /* \"inviter_presell/stake.sol\":4749:4763  rewardPerToken */\n      tag_106\n        /* \"inviter_presell/stake.sol\":4749:4769  rewardPerToken(rate) */\n      jump\t// in\n    tag_168:\n        /* \"inviter_presell/stake.sol\":4749:4773  rewardPerToken(rate).sub */\n      tag_169\n      swap1\n        /* \"inviter_presell/stake.sol\":4749:4806  rewardPerToken(rate).sub(userRewardPerTokenPaid[account]) */\n      swap2\n      swap1\n      0xffffffff\n      and\n      jump\t// in\n    tag_167:\n        /* \"inviter_presell/stake.sol\":4726:4735  _balances */\n      0x0f\n        /* \"inviter_presell/stake.sol\":4726:4744  _balances[account] */\n      0x00\n        /* \"inviter_presell/stake.sol\":4736:4743  account */\n      dup11\n        /* \"inviter_presell/stake.sol\":4726:4744  _balances[account] */\n      0xffffffffffffffffffffffffffffffffffffffff\n      and\n      0xffffffffffffffffffffffffffffffffffffffff\n      and\n      dup2\n      mstore\n      0x20\n      add\n      swap1\n      dup2\n      mstore\n      0x20\n      add\n      0x00\n      keccak256\n      sload\n        /* \"inviter_presell/stake.sol\":4726:4748  _balances[account].mul */\n      tag_170\n      swap1\n        /* \"inviter_presell/stake.sol\":4726:4807  _balances[account].mul(rewardPerToken(rate).sub(userRewardPerTokenPaid[account])) */\n      swap2\n      swap1\n      0xffffffff\n      and\n      jump\t// in\n    tag_166:\n        /* \"inviter_presell/stake.sol\":4726:4811  _balances[account].mul(rewardPerToken(rate).sub(userRewardPerTokenPaid[account])).div */\n      tag_171\n      swap1\n        /* \"inviter_presell/stake.sol\":4726:4817  _balances[account].mul(rewardPerToken(rate).sub(userRewardPerTokenPaid[account])).div(1e18) */\n      swap2\n      swap1\n      0xffffffff\n      and\n      jump\t// in\n    tag_165:\n        /* \"inviter_presell/stake.sol\":4726:4821  _balances[account].mul(rewardPerToken(rate).sub(userRewardPerTokenPaid[account])).div(1e18).add */\n      tag_172\n      swap1\n        /* \"inviter_presell/stake.sol\":4726:4839  _balances[account].mul(rewardPerToken(rate).sub(userRewardPerTokenPaid[account])).div(1e18).add(rewards[account]) */\n      swap2\n      swap1\n      0xffffffff\n      and\n      jump\t// in\n    tag_164:\n        /* \"inviter_presell/stake.sol\":4719:4839  return _balances[account].mul(rewardPerToken(rate).sub(userRewardPerTokenPaid[account])).div(1e18).add(rewards[account]) */\n      swap2\n      pop\n      pop\n        /* \"inviter_presell/stake.sol\":4551:4847  function earned(address account) public view returns (uint256) {... */\n      swap2\n      swap1\n      pop\n      jump\t// out\n        /* \"inviter_presell/stake.sol\":500:542  mapping(address => uint256) public rewards */\n    tag_52:\n      mstore(0x20, 0x04)\n      dup1\n      0x00\n      mstore\n      keccak256(0x00, 0x40)\n      0x00\n      swap2\n      pop\n      swap1\n      pop\n      sload\n      dup2\n      jump\t// out\n        /* \"inviter_presell/stake.sol\":551:598  uint256 public totalRewards = 168000 * 10 ** 18 */\n    tag_55:\n      sload(0x05)\n      dup2\n      jump\t// out\n        /* \"inviter_presell/adminable.sol\":1642:1826  function modificationAdmin(address admin, bool state) public virtual onlyOwner {... */\n    tag_60:\n        /* \"inviter_presell/adminable.sol\":702:714  _msgSender() */\n      tag_174\n        /* \"inviter_presell/adminable.sol\":702:712  _msgSender */\n      tag_175\n        /* \"inviter_presell/adminable.sol\":702:714  _msgSender() */\n      jump\t// in\n    tag_174:\n        /* \"inviter_presell/adminable.sol\":691:714  owner() == _msgSender() */\n      0xffffffffffffffffffffffffffffffffffffffff\n      and\n        /* \"inviter_presell/adminable.sol\":691:698  owner() */\n      tag_176\n        /* \"inviter_presell/adminable.sol\":691:696  owner */\n      tag_119\n        /* \"inviter_presell/adminable.sol\":691:698  owner() */\n      jump\t// in\n    tag_176:\n        /* \"inviter_presell/adminable.sol\":691:714  owner() == _msgSender() */\n      0xffffffffffffffffffffffffffffffffffffffff\n      and\n      eq\n        /* \"inviter_presell/adminable.sol\":683:753  require(owner() == _msgSender(), \"Adminable: caller is not the owner\") */\n      tag_177\n      jumpi\n      mload(0x40)\n      0x08c379a000000000000000000000000000000000000000000000000000000000\n      dup2\n      mstore\n      0x04\n      add\n      tag_178\n      swap1\n      tag_179\n      jump\t// in\n    tag_178:\n      mload(0x40)\n      dup1\n      swap2\n      sub\n      swap1\n      revert\n    tag_177:\n        /* \"inviter_presell/adminable.sol\":1755:1760  admin */\n      dup2\n        /* \"inviter_presell/adminable.sol\":1737:1785  ModificationAdmin(admin,  _admins[admin], state) */\n      0xffffffffffffffffffffffffffffffffffffffff\n      and\n      0x82f1fa40a3d82dea3e406073819290601f436580aa7c69f9feb61f885bdd8854\n        /* \"inviter_presell/adminable.sol\":1763:1770  _admins */\n      0x00\n        /* \"inviter_presell/adminable.sol\":1763:1777  _admins[admin] */\n      dup1\n        /* \"inviter_presell/adminable.sol\":1771:1776  admin */\n      dup6\n        /* \"inviter_presell/adminable.sol\":1763:1777  _admins[admin] */\n      0xffffffffffffffffffffffffffffffffffffffff\n      and\n      0xffffffffffffffffffffffffffffffffffffffff\n      and\n      dup2\n      mstore\n      0x20\n      add\n      swap1\n      dup2\n      mstore\n      0x20\n      add\n      0x00\n      keccak256\n      0x00\n      swap1\n      sload\n      swap1\n      0x0100\n      exp\n      swap1\n      div\n      0xff\n      and\n        /* \"inviter_presell/adminable.sol\":1779:1784  state */\n      dup4\n        /* \"inviter_presell/adminable.sol\":1737:1785  ModificationAdmin(admin,  _admins[admin], state) */\n      mload(0x40)\n      tag_181\n      swap3\n      swap2\n      swap1\n      tag_182\n      jump\t// in\n    tag_181:\n      mload(0x40)\n      dup1\n      swap2\n      sub\n      swap1\n      log2\n        /* \"inviter_presell/adminable.sol\":1813:1818  state */\n      dup1\n        /* \"inviter_presell/adminable.sol\":1796:1803  _admins */\n      0x00\n        /* \"inviter_presell/adminable.sol\":1796:1810  _admins[admin] */\n      dup1\n        /* \"inviter_presell/adminable.sol\":1804:1809  admin */\n      dup5\n        /* \"inviter_presell/adminable.sol\":1796:1810  _admins[admin] */\n      0xffffffffffffffffffffffffffffffffffffffff\n      and\n      0xffffffffffffffffffffffffffffffffffffffff\n      and\n      dup2\n      mstore\n      0x20\n      add\n      swap1\n      dup2\n      mstore\n      0x20\n      add\n      0x00\n      keccak256\n      0x00\n        /* \"inviter_presell/adminable.sol\":1796:1818  _admins[admin] = state */\n      0x0100\n      exp\n      dup2\n      sload\n      dup2\n      0xff\n      mul\n      not\n      and\n      swap1\n      dup4\n      iszero\n      iszero\n      mul\n      or\n      swap1\n      sstore\n      pop\n        /* \"inviter_presell/adminable.sol\":1642:1826  function modificationAdmin(address admin, bool state) public virtual onlyOwner {... */\n      pop\n      pop\n      jump\t// out\n        /* \"inviter_presell/adminable.sol\":1004:1115  function isAdmin(address account) public view virtual returns (bool) {... */\n    tag_63:\n        /* \"inviter_presell/adminable.sol\":1067:1071  bool */\n      0x00\n        /* \"inviter_presell/adminable.sol\":1091:1098  _admins */\n      dup1\n        /* \"inviter_presell/adminable.sol\":1091:1107  _admins[account] */\n      0x00\n        /* \"inviter_presell/adminable.sol\":1099:1106  account */\n      dup4\n        /* \"inviter_presell/adminable.sol\":1091:1107  _admins[account] */\n      0xffffffffffffffffffffffffffffffffffffffff\n      and\n      0xffffffffffffffffffffffffffffffffffffffff\n      and\n      dup2\n      mstore\n      0x20\n      add\n      swap1\n      dup2\n      mstore\n      0x20\n      add\n      0x00\n      keccak256\n      0x00\n      swap1\n      sload\n      swap1\n      0x0100\n      exp\n      swap1\n      div\n      0xff\n      and\n        /* \"inviter_presell/adminable.sol\":1084:1107  return _admins[account] */\n      swap1\n      pop\n        /* \"inviter_presell/adminable.sol\":1004:1115  function isAdmin(address account) public view virtual returns (bool) {... */\n      swap2\n      swap1\n      pop\n      jump\t// out\n        /* \"inviter_presell/stake.sol\":683:723  uint256 public rateIntervalNumerator = 5 */\n    tag_67:\n      sload(0x08)\n      dup2\n      jump\t// out\n        /* \"inviter_presell/stake.sol\":6589:6894  function getReward() external nonReentrant updateReward(msg.sender) {... */\n    tag_70:\n        /* \"node_modules/@openzeppelin/contracts/security/ReentrancyGuard.sol\":1744:1745  2 */\n      0x02\n        /* \"node_modules/@openzeppelin/contracts/security/ReentrancyGuard.sol\":2325:2332  _status */\n      dup1\n      sload\n        /* \"node_modules/@openzeppelin/contracts/security/ReentrancyGuard.sol\":2325:2344  _status != _ENTERED */\n      sub\n        /* \"node_modules/@openzeppelin/contracts/security/ReentrancyGuard.sol\":2317:2380  require(_status != _ENTERED, \"ReentrancyGuard: reentrant call\") */\n      tag_185\n      jumpi\n      mload(0x40)\n      0x08c379a000000000000000000000000000000000000000000000000000000000\n      dup2\n      mstore\n      0x04\n      add\n      tag_186\n      swap1\n      tag_187\n      jump\t// in\n    tag_186:\n      mload(0x40)\n      dup1\n      swap2\n      sub\n      swap1\n      revert\n    tag_185:\n        /* \"node_modules/@openzeppelin/contracts/security/ReentrancyGuard.sol\":1744:1745  2 */\n      0x02\n        /* \"node_modules/@openzeppelin/contracts/security/ReentrancyGuard.sol\":2455:2462  _status */\n      dup1\n        /* \"node_modules/@openzeppelin/contracts/security/ReentrancyGuard.sol\":2455:2473  _status = _ENTERED */\n      dup2\n      swap1\n      sstore\n      pop\n        /* \"inviter_presell/stake.sol\":6645:6655  msg.sender */\n      caller\n        /* \"inviter_presell/stake.sol\":1131:1143  uint256 time */\n      0x00\n        /* \"inviter_presell/stake.sol\":1146:1164  userLastUpdateTime */\n      0x0d\n        /* \"inviter_presell/stake.sol\":1146:1173  userLastUpdateTime[account] */\n      0x00\n        /* \"inviter_presell/stake.sol\":1165:1172  account */\n      dup4\n        /* \"inviter_presell/stake.sol\":1146:1173  userLastUpdateTime[account] */\n      0xffffffffffffffffffffffffffffffffffffffff\n      and\n      0xffffffffffffffffffffffffffffffffffffffff\n      and\n      dup2\n      mstore\n      0x20\n      add\n      swap1\n      dup2\n      mstore\n      0x20\n      add\n      0x00\n      keccak256\n      sload\n        /* \"inviter_presell/stake.sol\":1131:1173  uint256 time = userLastUpdateTime[account] */\n      swap1\n      pop\n        /* \"inviter_presell/stake.sol\":1195:1204  startTime */\n      sload(0x06)\n        /* \"inviter_presell/stake.sol\":1187:1191  time */\n      dup2\n        /* \"inviter_presell/stake.sol\":1187:1204  time <= startTime */\n      gt\n        /* \"inviter_presell/stake.sol\":1184:1249  if(time <= startTime) {... */\n      tag_189\n      jumpi\n        /* \"inviter_presell/stake.sol\":1228:1237  startTime */\n      sload(0x06)\n        /* \"inviter_presell/stake.sol\":1221:1237  time = startTime */\n      swap1\n      pop\n        /* \"inviter_presell/stake.sol\":1184:1249  if(time <= startTime) {... */\n    tag_189:\n        /* \"inviter_presell/stake.sol\":1259:1271  uint256 rate */\n      0x00\n        /* \"inviter_presell/stake.sol\":1274:1319  getTimeWeightedAveRate(time, block.timestamp) */\n      tag_190\n        /* \"inviter_presell/stake.sol\":1297:1301  time */\n      dup3\n        /* \"inviter_presell/stake.sol\":1303:1318  block.timestamp */\n      timestamp\n        /* \"inviter_presell/stake.sol\":1274:1296  getTimeWeightedAveRate */\n      tag_152\n        /* \"inviter_presell/stake.sol\":1274:1319  getTimeWeightedAveRate(time, block.timestamp) */\n      jump\t// in\n    tag_190:\n        /* \"inviter_presell/stake.sol\":1259:1319  uint256 rate = getTimeWeightedAveRate(time, block.timestamp) */\n      swap1\n      pop\n        /* \"inviter_presell/stake.sol\":1353:1373  rewardPerToken(rate) */\n      tag_191\n        /* \"inviter_presell/stake.sol\":1368:1372  rate */\n      dup2\n        /* \"inviter_presell/stake.sol\":1353:1367  rewardPerToken */\n      tag_106\n        /* \"inviter_presell/stake.sol\":1353:1373  rewardPerToken(rate) */\n      jump\t// in\n    tag_191:\n        /* \"inviter_presell/stake.sol\":1330:1350  rewardPerTokenStored */\n      0x0b\n        /* \"inviter_presell/stake.sol\":1330:1373  rewardPerTokenStored = rewardPerToken(rate) */\n      dup2\n      swap1\n      sstore\n      pop\n        /* \"inviter_presell/stake.sol\":1401:1427  lastTimeRewardApplicable() */\n      tag_192\n        /* \"inviter_presell/stake.sol\":1401:1425  lastTimeRewardApplicable */\n      tag_98\n        /* \"inviter_presell/stake.sol\":1401:1427  lastTimeRewardApplicable() */\n      jump\t// in\n    tag_192:\n        /* \"inviter_presell/stake.sol\":1384:1398  lastUpdateTime */\n      0x0a\n        /* \"inviter_presell/stake.sol\":1384:1427  lastUpdateTime = lastTimeRewardApplicable() */\n      dup2\n      swap1\n      sstore\n      pop\n        /* \"inviter_presell/stake.sol\":1461:1462  0 */\n      0x00\n        /* \"inviter_presell/stake.sol\":1442:1463  account != address(0) */\n      0xffffffffffffffffffffffffffffffffffffffff\n      and\n        /* \"inviter_presell/stake.sol\":1442:1449  account */\n      dup4\n        /* \"inviter_presell/stake.sol\":1442:1463  account != address(0) */\n      0xffffffffffffffffffffffffffffffffffffffff\n      and\n      eq\n        /* \"inviter_presell/stake.sol\":1438:1655  if (account != address(0)) {... */\n      tag_193\n      jumpi\n        /* \"inviter_presell/stake.sol\":1499:1514  earned(account) */\n      tag_194\n        /* \"inviter_presell/stake.sol\":1506:1513  account */\n      dup4\n        /* \"inviter_presell/stake.sol\":1499:1505  earned */\n      tag_47\n        /* \"inviter_presell/stake.sol\":1499:1514  earned(account) */\n      jump\t// in\n    tag_194:\n        /* \"inviter_presell/stake.sol\":1480:1487  rewards */\n      0x04\n        /* \"inviter_presell/stake.sol\":1480:1496  rewards[account] */\n      0x00\n        /* \"inviter_presell/stake.sol\":1488:1495  account */\n      dup6\n        /* \"inviter_presell/stake.sol\":1480:1496  rewards[account] */\n      0xffffffffffffffffffffffffffffffffffffffff\n      and\n      0xffffffffffffffffffffffffffffffffffffffff\n      and\n      dup2\n      mstore\n      0x20\n      add\n      swap1\n      dup2\n      mstore\n      0x20\n      add\n      0x00\n      keccak256\n        /* \"inviter_presell/stake.sol\":1480:1514  rewards[account] = earned(account) */\n      dup2\n      swap1\n      sstore\n      pop\n        /* \"inviter_presell/stake.sol\":1563:1583  rewardPerTokenStored */\n      sload(0x0b)\n        /* \"inviter_presell/stake.sol\":1529:1551  userRewardPerTokenPaid */\n      0x0c\n        /* \"inviter_presell/stake.sol\":1529:1560  userRewardPerTokenPaid[account] */\n      0x00\n        /* \"inviter_presell/stake.sol\":1552:1559  account */\n      dup6\n        /* \"inviter_presell/stake.sol\":1529:1560  userRewardPerTokenPaid[account] */\n      0xffffffffffffffffffffffffffffffffffffffff\n      and\n      0xffffffffffffffffffffffffffffffffffffffff\n      and\n      dup2\n      mstore\n      0x20\n      add\n      swap1\n      dup2\n      mstore\n      0x20\n      add\n      0x00\n      keccak256\n        /* \"inviter_presell/stake.sol\":1529:1583  userRewardPerTokenPaid[account] = rewardPerTokenStored */\n      dup2\n      swap1\n      sstore\n      pop\n        /* \"inviter_presell/stake.sol\":1628:1643  block.timestamp */\n      timestamp\n        /* \"inviter_presell/stake.sol\":1598:1616  userLastUpdateTime */\n      0x0d\n        /* \"inviter_presell/stake.sol\":1598:1625  userLastUpdateTime[account] */\n      0x00\n        /* \"inviter_presell/stake.sol\":1617:1624  account */\n      dup6\n        /* \"inviter_presell/stake.sol\":1598:1625  userLastUpdateTime[account] */\n      0xffffffffffffffffffffffffffffffffffffffff\n      and\n      0xffffffffffffffffffffffffffffffffffffffff\n      and\n      dup2\n      mstore\n      0x20\n      add\n      swap1\n      dup2\n      mstore\n      0x20\n      add\n      0x00\n      keccak256\n        /* \"inviter_presell/stake.sol\":1598:1643  userLastUpdateTime[account] = block.timestamp */\n      dup2\n      swap1\n      sstore\n      pop\n        /* \"inviter_presell/stake.sol\":1438:1655  if (account != address(0)) {... */\n    tag_193:\n        /* \"inviter_presell/stake.sol\":6668:6682  uint256 reward */\n      0x00\n        /* \"inviter_presell/stake.sol\":6685:6692  rewards */\n      0x04\n        /* \"inviter_presell/stake.sol\":6685:6704  rewards[msg.sender] */\n      0x00\n        /* \"inviter_presell/stake.sol\":6693:6703  msg.sender */\n      caller\n        /* \"inviter_presell/stake.sol\":6685:6704  rewards[msg.sender] */\n      0xffffffffffffffffffffffffffffffffffffffff\n      and\n      0xffffffffffffffffffffffffffffffffffffffff\n      and\n      dup2\n      mstore\n      0x20\n      add\n      swap1\n      dup2\n      mstore\n      0x20\n      add\n      0x00\n      keccak256\n      sload\n        /* \"inviter_presell/stake.sol\":6668:6704  uint256 reward = rewards[msg.sender] */\n      swap1\n      pop\n        /* \"inviter_presell/stake.sol\":6728:6729  0 */\n      0x00\n        /* \"inviter_presell/stake.sol\":6719:6725  reward */\n      dup2\n        /* \"inviter_presell/stake.sol\":6719:6729  reward > 0 */\n      gt\n        /* \"inviter_presell/stake.sol\":6715:6887  if (reward > 0) {... */\n      iszero\n      tag_196\n      jumpi\n        /* \"inviter_presell/stake.sol\":6768:6769  0 */\n      0x00\n        /* \"inviter_presell/stake.sol\":6746:6753  rewards */\n      0x04\n        /* \"inviter_presell/stake.sol\":6746:6765  rewards[msg.sender] */\n      0x00\n        /* \"inviter_presell/stake.sol\":6754:6764  msg.sender */\n      caller\n        /* \"inviter_presell/stake.sol\":6746:6765  rewards[msg.sender] */\n      0xffffffffffffffffffffffffffffffffffffffff\n      and\n      0xffffffffffffffffffffffffffffffffffffffff\n      and\n      dup2\n      mstore\n      0x20\n      add\n      swap1\n      dup2\n      mstore\n      0x20\n      add\n      0x00\n      keccak256\n        /* \"inviter_presell/stake.sol\":6746:6769  rewards[msg.sender] = 0 */\n      dup2\n      swap1\n      sstore\n      pop\n        /* \"inviter_presell/stake.sol\":6784:6796  rewardsToken */\n      0x03\n      0x00\n      swap1\n      sload\n      swap1\n      0x0100\n      exp\n      swap1\n      div\n      0xffffffffffffffffffffffffffffffffffffffff\n      and\n        /* \"inviter_presell/stake.sol\":6784:6805  rewardsToken.transfer */\n      0xffffffffffffffffffffffffffffffffffffffff\n      and\n      0xa9059cbb\n        /* \"inviter_presell/stake.sol\":6806:6816  msg.sender */\n      caller\n        /* \"inviter_presell/stake.sol\":6818:6824  reward */\n      dup4\n        /* \"inviter_presell/stake.sol\":6784:6825  rewardsToken.transfer(msg.sender, reward) */\n      mload(0x40)\n      dup4\n      0xffffffff\n      and\n      0xe0\n      shl\n      dup2\n      mstore\n      0x04\n      add\n      tag_197\n      swap3\n      swap2\n      swap1\n      tag_198\n      jump\t// in\n    tag_197:\n      0x20\n      mload(0x40)\n      dup1\n      dup4\n      sub\n      dup2\n      0x00\n      dup8\n      gas\n      call\n      iszero\n      dup1\n      iszero\n      tag_200\n      jumpi\n      returndatasize\n      0x00\n      dup1\n      returndatacopy\n      revert(0x00, returndatasize)\n    tag_200:\n      pop\n      pop\n      pop\n      pop\n      mload(0x40)\n      returndatasize\n      not(0x1f)\n      0x1f\n      dup3\n      add\n      and\n      dup3\n      add\n      dup1\n      0x40\n      mstore\n      pop\n      dup2\n      add\n      swap1\n      tag_201\n      swap2\n      swap1\n      tag_202\n      jump\t// in\n    tag_201:\n      pop\n        /* \"inviter_presell/stake.sol\":6856:6866  msg.sender */\n      caller\n        /* \"inviter_presell/stake.sol\":6845:6875  RewardPaid(msg.sender, reward) */\n      0xffffffffffffffffffffffffffffffffffffffff\n      and\n      0xe2403640ba68fed3a2f88b7557551d1993f84b99bb10ff833f0cf8db0c5e0486\n        /* \"inviter_presell/stake.sol\":6868:6874  reward */\n      dup3\n        /* \"inviter_presell/stake.sol\":6845:6875  RewardPaid(msg.sender, reward) */\n      mload(0x40)\n      tag_203\n      swap2\n      swap1\n      tag_49\n      jump\t// in\n    tag_203:\n      mload(0x40)\n      dup1\n      swap2\n      sub\n      swap1\n      log2\n        /* \"inviter_presell/stake.sol\":6715:6887  if (reward > 0) {... */\n    tag_196:\n        /* \"inviter_presell/stake.sol\":6657:6894  {... */\n      pop\n        /* \"inviter_presell/stake.sol\":1120:1674  {... */\n      pop\n      pop\n        /* \"node_modules/@openzeppelin/contracts/security/ReentrancyGuard.sol\":2484:2485  _ */\n      pop\n        /* \"node_modules/@openzeppelin/contracts/security/ReentrancyGuard.sol\":1701:1702  1 */\n      0x01\n        /* \"node_modules/@openzeppelin/contracts/security/ReentrancyGuard.sol\":2628:2635  _status */\n      0x02\n        /* \"node_modules/@openzeppelin/contracts/security/ReentrancyGuard.sol\":2628:2650  _status = _NOT_ENTERED */\n      dup2\n      swap1\n      sstore\n      pop\n        /* \"inviter_presell/stake.sol\":6589:6894  function getReward() external nonReentrant updateReward(msg.sender) {... */\n      jump\t// out\n        /* \"inviter_presell/stake.sol\":1760:1850  function setStartTime(uint256 time) external onlyAdmin {... */\n    tag_74:\n        /* \"inviter_presell/adminable.sol\":821:842  isAdmin(_msgSender()) */\n      tag_205\n        /* \"inviter_presell/adminable.sol\":829:841  _msgSender() */\n      tag_206\n        /* \"inviter_presell/adminable.sol\":829:839  _msgSender */\n      tag_175\n        /* \"inviter_presell/adminable.sol\":829:841  _msgSender() */\n      jump\t// in\n    tag_206:\n        /* \"inviter_presell/adminable.sol\":821:828  isAdmin */\n      tag_63\n        /* \"inviter_presell/adminable.sol\":821:842  isAdmin(_msgSender()) */\n      jump\t// in\n    tag_205:\n        /* \"inviter_presell/adminable.sol\":813:881  require(isAdmin(_msgSender()), \"Adminable: caller is not the admin\") */\n      tag_207\n      jumpi\n      mload(0x40)\n      0x08c379a000000000000000000000000000000000000000000000000000000000\n      dup2\n      mstore\n      0x04\n      add\n      tag_208\n      swap1\n      tag_209\n      jump\t// in\n    tag_208:\n      mload(0x40)\n      dup1\n      swap2\n      sub\n      swap1\n      revert\n    tag_207:\n        /* \"inviter_presell/stake.sol\":1838:1842  time */\n      dup1\n        /* \"inviter_presell/stake.sol\":1826:1835  startTime */\n      0x06\n        /* \"inviter_presell/stake.sol\":1826:1842  startTime = time */\n      dup2\n      swap1\n      sstore\n      pop\n        /* \"inviter_presell/stake.sol\":1760:1850  function setStartTime(uint256 time) external onlyAdmin {... */\n      pop\n      jump\t// out\n        /* \"inviter_presell/stake.sol\":3301:3717  function getRemainPool(uint256 time) public view returns (uint256) {... */\n    tag_77:\n        /* \"inviter_presell/stake.sol\":3359:3366  uint256 */\n      0x00\n        /* \"inviter_presell/stake.sol\":3395:3396  0 */\n      dup1\n        /* \"inviter_presell/stake.sol\":3382:3391  startTime */\n      sload(0x06)\n        /* \"inviter_presell/stake.sol\":3382:3396  startTime == 0 */\n      sub\n        /* \"inviter_presell/stake.sol\":3379:3441  if(startTime == 0) {... */\n      tag_212\n      jumpi\n        /* \"inviter_presell/stake.sol\":3420:3429  startTime */\n      sload(0x06)\n        /* \"inviter_presell/stake.sol\":3413:3429  return startTime */\n      swap1\n      pop\n      jump(tag_211)\n        /* \"inviter_presell/stake.sol\":3379:3441  if(startTime == 0) {... */\n    tag_212:\n        /* \"inviter_presell/stake.sol\":3451:3464  uint256 times */\n      0x00\n        /* \"inviter_presell/stake.sol\":3503:3504  1 */\n      0x01\n        /* \"inviter_presell/stake.sol\":3488:3500  rateInterval */\n      sload(0x07)\n        /* \"inviter_presell/stake.sol\":3475:3484  startTime */\n      sload(0x06)\n        /* \"inviter_presell/stake.sol\":3468:3472  time */\n      dup6\n        /* \"inviter_presell/stake.sol\":3468:3484  time - startTime */\n      tag_213\n      swap2\n      swap1\n      tag_214\n      jump\t// in\n    tag_213:\n        /* \"inviter_presell/stake.sol\":3467:3500  (time - startTime) / rateInterval */\n      tag_215\n      swap2\n      swap1\n      tag_216\n      jump\t// in\n    tag_215:\n        /* \"inviter_presell/stake.sol\":3467:3504  (time - startTime) / rateInterval + 1 */\n      tag_217\n      swap2\n      swap1\n      tag_218\n      jump\t// in\n    tag_217:\n        /* \"inviter_presell/stake.sol\":3451:3504  uint256 times = (time - startTime) / rateInterval + 1 */\n      swap1\n      pop\n        /* \"inviter_presell/stake.sol\":3515:3528  uint256 value */\n      0x00\n        /* \"inviter_presell/stake.sol\":3531:3543  totalRewards */\n      sload(0x05)\n        /* \"inviter_presell/stake.sol\":3515:3543  uint256 value = totalRewards */\n      swap1\n      pop\n        /* \"inviter_presell/stake.sol\":3558:3567  uint256 i */\n      0x00\n        /* \"inviter_presell/stake.sol\":3554:3687  for(uint256 i = 0; i < times; ++i) {... */\n    tag_219:\n        /* \"inviter_presell/stake.sol\":3577:3582  times */\n      dup3\n        /* \"inviter_presell/stake.sol\":3573:3574  i */\n      dup2\n        /* \"inviter_presell/stake.sol\":3573:3582  i < times */\n      lt\n        /* \"inviter_presell/stake.sol\":3554:3687  for(uint256 i = 0; i < times; ++i) {... */\n      iszero\n      tag_220\n      jumpi\n        /* \"inviter_presell/stake.sol\":3652:3675  rateIntervalDenominator */\n      sload(0x09)\n        /* \"inviter_presell/stake.sol\":3628:3649  rateIntervalNumerator */\n      sload(0x08)\n        /* \"inviter_presell/stake.sol\":3620:3625  value */\n      dup4\n        /* \"inviter_presell/stake.sol\":3620:3649  value * rateIntervalNumerator */\n      tag_222\n      swap2\n      swap1\n      tag_223\n      jump\t// in\n    tag_222:\n        /* \"inviter_presell/stake.sol\":3620:3675  value * rateIntervalNumerator / rateIntervalDenominator */\n      tag_224\n      swap2\n      swap1\n      tag_216\n      jump\t// in\n    tag_224:\n        /* \"inviter_presell/stake.sol\":3612:3617  value */\n      dup3\n        /* \"inviter_presell/stake.sol\":3612:3675  value - value * rateIntervalNumerator / rateIntervalDenominator */\n      tag_225\n      swap2\n      swap1\n      tag_214\n      jump\t// in\n    tag_225:\n        /* \"inviter_presell/stake.sol\":3604:3675  value = value - value * rateIntervalNumerator / rateIntervalDenominator */\n      swap2\n      pop\n        /* \"inviter_presell/stake.sol\":3584:3587  ++i */\n      dup1\n      tag_226\n      swap1\n      tag_227\n      jump\t// in\n    tag_226:\n      swap1\n      pop\n        /* \"inviter_presell/stake.sol\":3554:3687  for(uint256 i = 0; i < times; ++i) {... */\n      jump(tag_219)\n    tag_220:\n      pop\n        /* \"inviter_presell/stake.sol\":3704:3709  value */\n      dup1\n        /* \"inviter_presell/stake.sol\":3697:3709  return value */\n      swap3\n      pop\n      pop\n      pop\n        /* \"inviter_presell/stake.sol\":3301:3717  function getRemainPool(uint256 time) public view returns (uint256) {... */\n    tag_211:\n      swap2\n      swap1\n      pop\n      jump\t// out\n        /* \"inviter_presell/stake.sol\":2302:2867  function getRewardPool(uint256 time) public view returns (uint256) {... */\n    tag_81:\n        /* \"inviter_presell/stake.sol\":2360:2367  uint256 */\n      0x00\n        /* \"inviter_presell/stake.sol\":2396:2397  0 */\n      dup1\n        /* \"inviter_presell/stake.sol\":2383:2392  startTime */\n      sload(0x06)\n        /* \"inviter_presell/stake.sol\":2383:2397  startTime == 0 */\n      sub\n        /* \"inviter_presell/stake.sol\":2380:2445  if(startTime == 0) {... */\n      tag_229\n      jumpi\n        /* \"inviter_presell/stake.sol\":2421:2433  totalRewards */\n      sload(0x05)\n        /* \"inviter_presell/stake.sol\":2414:2433  return totalRewards */\n      swap1\n      pop\n      jump(tag_228)\n        /* \"inviter_presell/stake.sol\":2380:2445  if(startTime == 0) {... */\n    tag_229:\n        /* \"inviter_presell/stake.sol\":2465:2474  startTime */\n      sload(0x06)\n        /* \"inviter_presell/stake.sol\":2458:2462  time */\n      dup3\n        /* \"inviter_presell/stake.sol\":2458:2474  time < startTime */\n      lt\n        /* \"inviter_presell/stake.sol\":2455:2511  if(time < startTime) {... */\n      iszero\n      tag_230\n      jumpi\n        /* \"inviter_presell/stake.sol\":2498:2499  0 */\n      0x00\n        /* \"inviter_presell/stake.sol\":2491:2499  return 0 */\n      swap1\n      pop\n      jump(tag_228)\n        /* \"inviter_presell/stake.sol\":2455:2511  if(time < startTime) {... */\n    tag_230:\n        /* \"inviter_presell/stake.sol\":2521:2534  uint256 times */\n      0x00\n        /* \"inviter_presell/stake.sol\":2573:2574  1 */\n      0x01\n        /* \"inviter_presell/stake.sol\":2558:2570  rateInterval */\n      sload(0x07)\n        /* \"inviter_presell/stake.sol\":2545:2554  startTime */\n      sload(0x06)\n        /* \"inviter_presell/stake.sol\":2538:2542  time */\n      dup6\n        /* \"inviter_presell/stake.sol\":2538:2554  time - startTime */\n      tag_231\n      swap2\n      swap1\n      tag_214\n      jump\t// in\n    tag_231:\n        /* \"inviter_presell/stake.sol\":2537:2570  (time - startTime) / rateInterval */\n      tag_232\n      swap2\n      swap1\n      tag_216\n      jump\t// in\n    tag_232:\n        /* \"inviter_presell/stake.sol\":2537:2574  (time - startTime) / rateInterval + 1 */\n      tag_233\n      swap2\n      swap1\n      tag_218\n      jump\t// in\n    tag_233:\n        /* \"inviter_presell/stake.sol\":2521:2574  uint256 times = (time - startTime) / rateInterval + 1 */\n      swap1\n      pop\n        /* \"inviter_presell/stake.sol\":2585:2598  uint256 value */\n      0x00\n        /* \"inviter_presell/stake.sol\":2601:2613  totalRewards */\n      sload(0x05)\n        /* \"inviter_presell/stake.sol\":2585:2613  uint256 value = totalRewards */\n      swap1\n      pop\n        /* \"inviter_presell/stake.sol\":2628:2637  uint256 i */\n      0x00\n        /* \"inviter_presell/stake.sol\":2624:2757  for(uint256 i = 0; i < times; ++i) {... */\n    tag_234:\n        /* \"inviter_presell/stake.sol\":2647:2652  times */\n      dup3\n        /* \"inviter_presell/stake.sol\":2643:2644  i */\n      dup2\n        /* \"inviter_presell/stake.sol\":2643:2652  i < times */\n      lt\n        /* \"inviter_presell/stake.sol\":2624:2757  for(uint256 i = 0; i < times; ++i) {... */\n      iszero\n      tag_235\n      jumpi\n        /* \"inviter_presell/stake.sol\":2722:2745  rateIntervalDenominator */\n      sload(0x09)\n        /* \"inviter_presell/stake.sol\":2698:2719  rateIntervalNumerator */\n      sload(0x08)\n        /* \"inviter_presell/stake.sol\":2690:2695  value */\n      dup4\n        /* \"inviter_presell/stake.sol\":2690:2719  value * rateIntervalNumerator */\n      tag_237\n      swap2\n      swap1\n      tag_223\n      jump\t// in\n    tag_237:\n        /* \"inviter_presell/stake.sol\":2690:2745  value * rateIntervalNumerator / rateIntervalDenominator */\n      tag_238\n      swap2\n      swap1\n      tag_216\n      jump\t// in\n    tag_238:\n        /* \"inviter_presell/stake.sol\":2682:2687  value */\n      dup3\n        /* \"inviter_presell/stake.sol\":2682:2745  value - value * rateIntervalNumerator / rateIntervalDenominator */\n      tag_239\n      swap2\n      swap1\n      tag_214\n      jump\t// in\n    tag_239:\n        /* \"inviter_presell/stake.sol\":2674:2745  value = value - value * rateIntervalNumerator / rateIntervalDenominator */\n      swap2\n      pop\n        /* \"inviter_presell/stake.sol\":2654:2657  ++i */\n      dup1\n      tag_240\n      swap1\n      tag_227\n      jump\t// in\n    tag_240:\n      swap1\n      pop\n        /* \"inviter_presell/stake.sol\":2624:2757  for(uint256 i = 0; i < times; ++i) {... */\n      jump(tag_234)\n    tag_235:\n      pop\n        /* \"inviter_presell/stake.sol\":2836:2859  rateIntervalDenominator */\n      sload(0x09)\n        /* \"inviter_presell/stake.sol\":2812:2833  rateIntervalNumerator */\n      sload(0x08)\n        /* \"inviter_presell/stake.sol\":2804:2809  value */\n      dup3\n        /* \"inviter_presell/stake.sol\":2804:2833  value * rateIntervalNumerator */\n      tag_241\n      swap2\n      swap1\n      tag_223\n      jump\t// in\n    tag_241:\n        /* \"inviter_presell/stake.sol\":2804:2859  value * rateIntervalNumerator / rateIntervalDenominator */\n      tag_242\n      swap2\n      swap1\n      tag_216\n      jump\t// in\n    tag_242:\n        /* \"inviter_presell/stake.sol\":2797:2859  return value * rateIntervalNumerator / rateIntervalDenominator */\n      swap3\n      pop\n      pop\n      pop\n        /* \"inviter_presell/stake.sol\":2302:2867  function getRewardPool(uint256 time) public view returns (uint256) {... */\n    tag_228:\n      swap2\n      swap1\n      pop\n      jump\t// out\n        /* \"inviter_presell/stake.sol\":636:676  uint256 public rateInterval = 10 minutes */\n    tag_84:\n      sload(0x07)\n      dup2\n      jump\t// out\n        /* \"inviter_presell/stake.sol\":1858:1951  function totalPowers() external view returns (uint256) {... */\n    tag_87:\n        /* \"inviter_presell/stake.sol\":1904:1911  uint256 */\n      0x00\n        /* \"inviter_presell/stake.sol\":1931:1943  _totalPowers */\n      sload(0x0e)\n        /* \"inviter_presell/stake.sol\":1924:1943  return _totalPowers */\n      swap1\n      pop\n        /* \"inviter_presell/stake.sol\":1858:1951  function totalPowers() external view returns (uint256) {... */\n      swap1\n      jump\t// out\n        /* \"inviter_presell/adminable.sol\":1123:1226  function renounceOwnership() public virtual onlyOwner {... */\n    tag_90:\n        /* \"inviter_presell/adminable.sol\":702:714  _msgSender() */\n      tag_245\n        /* \"inviter_presell/adminable.sol\":702:712  _msgSender */\n      tag_175\n        /* \"inviter_presell/adminable.sol\":702:714  _msgSender() */\n      jump\t// in\n    tag_245:\n        /* \"inviter_presell/adminable.sol\":691:714  owner() == _msgSender() */\n      0xffffffffffffffffffffffffffffffffffffffff\n      and\n        /* \"inviter_presell/adminable.sol\":691:698  owner() */\n      tag_246\n        /* \"inviter_presell/adminable.sol\":691:696  owner */\n      tag_119\n        /* \"inviter_presell/adminable.sol\":691:698  owner() */\n      jump\t// in\n    tag_246:\n        /* \"inviter_presell/adminable.sol\":691:714  owner() == _msgSender() */\n      0xffffffffffffffffffffffffffffffffffffffff\n      and\n      eq\n        /* \"inviter_presell/adminable.sol\":683:753  require(owner() == _msgSender(), \"Adminable: caller is not the owner\") */\n      tag_247\n      jumpi\n      mload(0x40)\n      0x08c379a000000000000000000000000000000000000000000000000000000000\n      dup2\n      mstore\n      0x04\n      add\n      tag_248\n      swap1\n      tag_179\n      jump\t// in\n    tag_248:\n      mload(0x40)\n      dup1\n      swap2\n      sub\n      swap1\n      revert\n    tag_247:\n        /* \"inviter_presell/adminable.sol\":1188:1218  _transferOwnership(address(0)) */\n      tag_250\n        /* \"inviter_presell/adminable.sol\":1215:1216  0 */\n      0x00\n        /* \"inviter_presell/adminable.sol\":1188:1206  _transferOwnership */\n      tag_251\n        /* \"inviter_presell/adminable.sol\":1188:1218  _transferOwnership(address(0)) */\n      jump\t// in\n    tag_250:\n        /* \"inviter_presell/adminable.sol\":1123:1226  function renounceOwnership() public virtual onlyOwner {... */\n      jump\t// out\n        /* \"inviter_presell/stake.sol\":605:629  uint256 public startTime */\n    tag_92:\n      sload(0x06)\n      dup2\n      jump\t// out\n        /* \"inviter_presell/stake.sol\":730:775  uint256 public rateIntervalDenominator = 1000 */\n    tag_95:\n      sload(0x09)\n      dup2\n      jump\t// out\n        /* \"inviter_presell/stake.sol\":4080:4187  function lastTimeRewardApplicable() public view returns (uint256) {... */\n    tag_98:\n        /* \"inviter_presell/stake.sol\":4137:4144  uint256 */\n      0x00\n        /* \"inviter_presell/stake.sol\":4164:4179  block.timestamp */\n      timestamp\n        /* \"inviter_presell/stake.sol\":4157:4179  return block.timestamp */\n      swap1\n      pop\n        /* \"inviter_presell/stake.sol\":4080:4187  function lastTimeRewardApplicable() public view returns (uint256) {... */\n      swap1\n      jump\t// out\n        /* \"inviter_presell/stake.sol\":926:979  mapping(address => uint256) public userLastUpdateTime */\n    tag_102:\n      mstore(0x20, 0x0d)\n      dup1\n      0x00\n      mstore\n      keccak256(0x00, 0x40)\n      0x00\n      swap2\n      pop\n      swap1\n      pop\n      sload\n      dup2\n      jump\t// out\n        /* \"inviter_presell/stake.sol\":4195:4543  function rewardPerToken(uint256 rewardRate) public view returns (uint256) {... */\n    tag_106:\n        /* \"inviter_presell/stake.sol\":4260:4267  uint256 */\n      0x00\n        /* \"inviter_presell/stake.sol\":4300:4301  0 */\n      dup1\n        /* \"inviter_presell/stake.sol\":4284:4296  _totalPowers */\n      sload(0x0e)\n        /* \"inviter_presell/stake.sol\":4284:4301  _totalPowers == 0 */\n      sub\n        /* \"inviter_presell/stake.sol\":4280:4357  if (_totalPowers == 0) {... */\n      tag_254\n      jumpi\n        /* \"inviter_presell/stake.sol\":4325:4345  rewardPerTokenStored */\n      sload(0x0b)\n        /* \"inviter_presell/stake.sol\":4318:4345  return rewardPerTokenStored */\n      swap1\n      pop\n      jump(tag_253)\n        /* \"inviter_presell/stake.sol\":4280:4357  if (_totalPowers == 0) {... */\n    tag_254:\n        /* \"inviter_presell/stake.sol\":4387:4535  rewardPerTokenStored.add(... */\n      tag_255\n        /* \"inviter_presell/stake.sol\":4430:4520  lastTimeRewardApplicable().sub(lastUpdateTime).mul(rewardRate).mul(1e18).div(_totalPowers) */\n      tag_256\n        /* \"inviter_presell/stake.sol\":4507:4519  _totalPowers */\n      sload(0x0e)\n        /* \"inviter_presell/stake.sol\":4430:4502  lastTimeRewardApplicable().sub(lastUpdateTime).mul(rewardRate).mul(1e18) */\n      tag_257\n        /* \"inviter_presell/stake.sol\":4497:4501  1e18 */\n      0x0de0b6b3a7640000\n        /* \"inviter_presell/stake.sol\":4430:4492  lastTimeRewardApplicable().sub(lastUpdateTime).mul(rewardRate) */\n      tag_258\n        /* \"inviter_presell/stake.sol\":4481:4491  rewardRate */\n      dup8\n        /* \"inviter_presell/stake.sol\":4430:4476  lastTimeRewardApplicable().sub(lastUpdateTime) */\n      tag_259\n        /* \"inviter_presell/stake.sol\":4461:4475  lastUpdateTime */\n      sload(0x0a)\n        /* \"inviter_presell/stake.sol\":4430:4456  lastTimeRewardApplicable() */\n      tag_260\n        /* \"inviter_presell/stake.sol\":4430:4454  lastTimeRewardApplicable */\n      tag_98\n        /* \"inviter_presell/stake.sol\":4430:4456  lastTimeRewardApplicable() */\n      jump\t// in\n    tag_260:\n        /* \"inviter_presell/stake.sol\":4430:4460  lastTimeRewardApplicable().sub */\n      tag_169\n      swap1\n        /* \"inviter_presell/stake.sol\":4430:4476  lastTimeRewardApplicable().sub(lastUpdateTime) */\n      swap2\n      swap1\n      0xffffffff\n      and\n      jump\t// in\n    tag_259:\n        /* \"inviter_presell/stake.sol\":4430:4480  lastTimeRewardApplicable().sub(lastUpdateTime).mul */\n      tag_170\n      swap1\n        /* \"inviter_presell/stake.sol\":4430:4492  lastTimeRewardApplicable().sub(lastUpdateTime).mul(rewardRate) */\n      swap2\n      swap1\n      0xffffffff\n      and\n      jump\t// in\n    tag_258:\n        /* \"inviter_presell/stake.sol\":4430:4496  lastTimeRewardApplicable().sub(lastUpdateTime).mul(rewardRate).mul */\n      tag_170\n      swap1\n        /* \"inviter_presell/stake.sol\":4430:4502  lastTimeRewardApplicable().sub(lastUpdateTime).mul(rewardRate).mul(1e18) */\n      swap2\n      swap1\n      0xffffffff\n      and\n      jump\t// in\n    tag_257:\n        /* \"inviter_presell/stake.sol\":4430:4506  lastTimeRewardApplicable().sub(lastUpdateTime).mul(rewardRate).mul(1e18).div */\n      tag_171\n      swap1\n        /* \"inviter_presell/stake.sol\":4430:4520  lastTimeRewardApplicable().sub(lastUpdateTime).mul(rewardRate).mul(1e18).div(_totalPowers) */\n      swap2\n      swap1\n      0xffffffff\n      and\n      jump\t// in\n    tag_256:\n        /* \"inviter_presell/stake.sol\":4387:4407  rewardPerTokenStored */\n      sload(0x0b)\n        /* \"inviter_presell/stake.sol\":4387:4411  rewardPerTokenStored.add */\n      tag_172\n      swap1\n        /* \"inviter_presell/stake.sol\":4387:4535  rewardPerTokenStored.add(... */\n      swap2\n      swap1\n      0xffffffff\n      and\n      jump\t// in\n    tag_255:\n        /* \"inviter_presell/stake.sol\":4367:4535  return... */\n      swap1\n      pop\n        /* \"inviter_presell/stake.sol\":4195:4543  function rewardPerToken(uint256 rewardRate) public view returns (uint256) {... */\n    tag_253:\n      swap2\n      swap1\n      pop\n      jump\t// out\n        /* \"inviter_presell/stake.sol\":1682:1752  function setConfig(uint256 rateInterval) external onlyOwner {... */\n    tag_110:\n        /* \"inviter_presell/adminable.sol\":702:714  _msgSender() */\n      tag_262\n        /* \"inviter_presell/adminable.sol\":702:712  _msgSender */\n      tag_175\n        /* \"inviter_presell/adminable.sol\":702:714  _msgSender() */\n      jump\t// in\n    tag_262:\n        /* \"inviter_presell/adminable.sol\":691:714  owner() == _msgSender() */\n      0xffffffffffffffffffffffffffffffffffffffff\n      and\n        /* \"inviter_presell/adminable.sol\":691:698  owner() */\n      tag_263\n        /* \"inviter_presell/adminable.sol\":691:696  owner */\n      tag_119\n        /* \"inviter_presell/adminable.sol\":691:698  owner() */\n      jump\t// in\n    tag_263:\n        /* \"inviter_presell/adminable.sol\":691:714  owner() == _msgSender() */\n      0xffffffffffffffffffffffffffffffffffffffff\n      and\n      eq\n        /* \"inviter_presell/adminable.sol\":683:753  require(owner() == _msgSender(), \"Adminable: caller is not the owner\") */\n      tag_264\n      jumpi\n      mload(0x40)\n      0x08c379a000000000000000000000000000000000000000000000000000000000\n      dup2\n      mstore\n      0x04\n      add\n      tag_265\n      swap1\n      tag_179\n      jump\t// in\n    tag_265:\n      mload(0x40)\n      dup1\n      swap2\n      sub\n      swap1\n      revert\n    tag_264:\n        /* \"inviter_presell/stake.sol\":1682:1752  function setConfig(uint256 rateInterval) external onlyOwner {... */\n      pop\n      jump\t// out\n        /* \"inviter_presell/stake.sol\":6902:7007  function setRewardToken(address token) external onlyOwner {... */\n    tag_113:\n        /* \"inviter_presell/adminable.sol\":702:714  _msgSender() */\n      tag_268\n        /* \"inviter_presell/adminable.sol\":702:712  _msgSender */\n      tag_175\n        /* \"inviter_presell/adminable.sol\":702:714  _msgSender() */\n      jump\t// in\n    tag_268:\n        /* \"inviter_presell/adminable.sol\":691:714  owner() == _msgSender() */\n      0xffffffffffffffffffffffffffffffffffffffff\n      and\n        /* \"inviter_presell/adminable.sol\":691:698  owner() */\n      tag_269\n        /* \"inviter_presell/adminable.sol\":691:696  owner */\n      tag_119\n        /* \"inviter_presell/adminable.sol\":691:698  owner() */\n      jump\t// in\n    tag_269:\n        /* \"inviter_presell/adminable.sol\":691:714  owner() == _msgSender() */\n      0xffffffffffffffffffffffffffffffffffffffff\n      and\n      eq\n        /* \"inviter_presell/adminable.sol\":683:753  require(owner() == _msgSender(), \"Adminable: caller is not the owner\") */\n      tag_270\n      jumpi\n      mload(0x40)\n      0x08c379a000000000000000000000000000000000000000000000000000000000\n      dup2\n      mstore\n      0x04\n      add\n      tag_271\n      swap1\n      tag_179\n      jump\t// in\n    tag_271:\n      mload(0x40)\n      dup1\n      swap2\n      sub\n      swap1\n      revert\n    tag_270:\n        /* \"inviter_presell/stake.sol\":6993:6998  token */\n      dup1\n        /* \"inviter_presell/stake.sol\":6971:6983  rewardsToken */\n      0x03\n      0x00\n        /* \"inviter_presell/stake.sol\":6971:6999  rewardsToken = IERC20(token) */\n      0x0100\n      exp\n      dup2\n      sload\n      dup2\n      0xffffffffffffffffffffffffffffffffffffffff\n      mul\n      not\n      and\n      swap1\n      dup4\n      0xffffffffffffffffffffffffffffffffffffffff\n      and\n      mul\n      or\n      swap1\n      sstore\n      pop\n        /* \"inviter_presell/stake.sol\":6902:7007  function setRewardToken(address token) external onlyOwner {... */\n      pop\n      jump\t// out\n        /* \"inviter_presell/stake.sol\":862:919  mapping(address => uint256) public userRewardPerTokenPaid */\n    tag_116:\n      mstore(0x20, 0x0c)\n      dup1\n      0x00\n      mstore\n      keccak256(0x00, 0x40)\n      0x00\n      swap2\n      pop\n      swap1\n      pop\n      sload\n      dup2\n      jump\t// out\n        /* \"inviter_presell/adminable.sol\":909:996  function owner() public view virtual returns (address) {... */\n    tag_119:\n        /* \"inviter_presell/adminable.sol\":955:962  address */\n      0x00\n        /* \"inviter_presell/adminable.sol\":982:988  _owner */\n      0x01\n      0x00\n      swap1\n      sload\n      swap1\n      0x0100\n      exp\n      swap1\n      div\n      0xffffffffffffffffffffffffffffffffffffffff\n      and\n        /* \"inviter_presell/adminable.sol\":975:988  return _owner */\n      swap1\n      pop\n        /* \"inviter_presell/adminable.sol\":909:996  function owner() public view virtual returns (address) {... */\n      swap1\n      jump\t// out\n        /* \"inviter_presell/stake.sol\":2180:2294  function getCurRewardPool() public view returns (uint256) {... */\n    tag_123:\n        /* \"inviter_presell/stake.sol\":2229:2236  uint256 */\n      0x00\n        /* \"inviter_presell/stake.sol\":2256:2286  getRewardPool(block.timestamp) */\n      tag_275\n        /* \"inviter_presell/stake.sol\":2270:2285  block.timestamp */\n      timestamp\n        /* \"inviter_presell/stake.sol\":2256:2269  getRewardPool */\n      tag_81\n        /* \"inviter_presell/stake.sol\":2256:2286  getRewardPool(block.timestamp) */\n      jump\t// in\n    tag_275:\n        /* \"inviter_presell/stake.sol\":2249:2286  return getRewardPool(block.timestamp) */\n      swap1\n      pop\n        /* \"inviter_presell/stake.sol\":2180:2294  function getCurRewardPool() public view returns (uint256) {... */\n      swap1\n      jump\t// out\n        /* \"inviter_presell/stake.sol\":1959:2053  function curTime() external  view  returns (uint256) {... */\n    tag_126:\n        /* \"inviter_presell/stake.sol\":2003:2010  uint256 */\n      0x00\n        /* \"inviter_presell/stake.sol\":2030:2045  block.timestamp */\n      timestamp\n        /* \"inviter_presell/stake.sol\":2023:2045  return block.timestamp */\n      swap1\n      pop\n        /* \"inviter_presell/stake.sol\":1959:2053  function curTime() external  view  returns (uint256) {... */\n      swap1\n      jump\t// out\n        /* \"inviter_presell/stake.sol\":7264:7407  function emergencyWithdrawToken(address token, uint256 amount) external onlyOwner {... */\n    tag_131:\n        /* \"inviter_presell/adminable.sol\":702:714  _msgSender() */\n      tag_278\n        /* \"inviter_presell/adminable.sol\":702:712  _msgSender */\n      tag_175\n        /* \"inviter_presell/adminable.sol\":702:714  _msgSender() */\n      jump\t// in\n    tag_278:\n        /* \"inviter_presell/adminable.sol\":691:714  owner() == _msgSender() */\n      0xffffffffffffffffffffffffffffffffffffffff\n      and\n        /* \"inviter_presell/adminable.sol\":691:698  owner() */\n      tag_279\n        /* \"inviter_presell/adminable.sol\":691:696  owner */\n      tag_119\n        /* \"inviter_presell/adminable.sol\":691:698  owner() */\n      jump\t// in\n    tag_279:\n        /* \"inviter_presell/adminable.sol\":691:714  owner() == _msgSender() */\n      0xffffffffffffffffffffffffffffffffffffffff\n      and\n      eq\n        /* \"inviter_presell/adminable.sol\":683:753  require(owner() == _msgSender(), \"Adminable: caller is not the owner\") */\n      tag_280\n      jumpi\n      mload(0x40)\n      0x08c379a000000000000000000000000000000000000000000000000000000000\n      dup2\n      mstore\n      0x04\n      add\n      tag_281\n      swap1\n      tag_179\n      jump\t// in\n    tag_281:\n      mload(0x40)\n      dup1\n      swap2\n      sub\n      swap1\n      revert\n    tag_280:\n        /* \"inviter_presell/stake.sol\":7364:7369  token */\n      dup2\n        /* \"inviter_presell/stake.sol\":7357:7379  IERC20(token).transfer */\n      0xffffffffffffffffffffffffffffffffffffffff\n      and\n      0xa9059cbb\n        /* \"inviter_presell/stake.sol\":7380:7390  msg.sender */\n      caller\n        /* \"inviter_presell/stake.sol\":7392:7398  amount */\n      dup4\n        /* \"inviter_presell/stake.sol\":7357:7399  IERC20(token).transfer(msg.sender, amount) */\n      mload(0x40)\n      dup4\n      0xffffffff\n      and\n      0xe0\n      shl\n      dup2\n      mstore\n      0x04\n      add\n      tag_283\n      swap3\n      swap2\n      swap1\n      tag_198\n      jump\t// in\n    tag_283:\n      0x20\n      mload(0x40)\n      dup1\n      dup4\n      sub\n      dup2\n      0x00\n      dup8\n      gas\n      call\n      iszero\n      dup1\n      iszero\n      tag_285\n      jumpi\n      returndatasize\n      0x00\n      dup1\n      returndatacopy\n      revert(0x00, returndatasize)\n    tag_285:\n      pop\n      pop\n      pop\n      pop\n      mload(0x40)\n      returndatasize\n      not(0x1f)\n      0x1f\n      dup3\n      add\n      and\n      dup3\n      add\n      dup1\n      0x40\n      mstore\n      pop\n      dup2\n      add\n      swap1\n      tag_286\n      swap2\n      swap1\n      tag_202\n      jump\t// in\n    tag_286:\n      pop\n        /* \"inviter_presell/stake.sol\":7264:7407  function emergencyWithdrawToken(address token, uint256 amount) external onlyOwner {... */\n      pop\n      pop\n      jump\t// out\n        /* \"inviter_presell/stake.sol\":6283:6577  function stake(address user, uint256 amount) external nonReentrant onlyAdmin updateReward(user) {... */\n    tag_134:\n        /* \"node_modules/@openzeppelin/contracts/security/ReentrancyGuard.sol\":1744:1745  2 */\n      0x02\n        /* \"node_modules/@openzeppelin/contracts/security/ReentrancyGuard.sol\":2325:2332  _status */\n      dup1\n      sload\n        /* \"node_modules/@openzeppelin/contracts/security/ReentrancyGuard.sol\":2325:2344  _status != _ENTERED */\n      sub\n        /* \"node_modules/@openzeppelin/contracts/security/ReentrancyGuard.sol\":2317:2380  require(_status != _ENTERED, \"ReentrancyGuard: reentrant call\") */\n      tag_288\n      jumpi\n      mload(0x40)\n      0x08c379a000000000000000000000000000000000000000000000000000000000\n      dup2\n      mstore\n      0x04\n      add\n      tag_289\n      swap1\n      tag_187\n      jump\t// in\n    tag_289:\n      mload(0x40)\n      dup1\n      swap2\n      sub\n      swap1\n      revert\n    tag_288:\n        /* \"node_modules/@openzeppelin/contracts/security/ReentrancyGuard.sol\":1744:1745  2 */\n      0x02\n        /* \"node_modules/@openzeppelin/contracts/security/ReentrancyGuard.sol\":2455:2462  _status */\n      dup1\n        /* \"node_modules/@openzeppelin/contracts/security/ReentrancyGuard.sol\":2455:2473  _status = _ENTERED */\n      dup2\n      swap1\n      sstore\n      pop\n        /* \"inviter_presell/adminable.sol\":821:842  isAdmin(_msgSender()) */\n      tag_291\n        /* \"inviter_presell/adminable.sol\":829:841  _msgSender() */\n      tag_292\n        /* \"inviter_presell/adminable.sol\":829:839  _msgSender */\n      tag_175\n        /* \"inviter_presell/adminable.sol\":829:841  _msgSender() */\n      jump\t// in\n    tag_292:\n        /* \"inviter_presell/adminable.sol\":821:828  isAdmin */\n      tag_63\n        /* \"inviter_presell/adminable.sol\":821:842  isAdmin(_msgSender()) */\n      jump\t// in\n    tag_291:\n        /* \"inviter_presell/adminable.sol\":813:881  require(isAdmin(_msgSender()), \"Adminable: caller is not the admin\") */\n      tag_293\n      jumpi\n      mload(0x40)\n      0x08c379a000000000000000000000000000000000000000000000000000000000\n      dup2\n      mstore\n      0x04\n      add\n      tag_294\n      swap1\n      tag_209\n      jump\t// in\n    tag_294:\n      mload(0x40)\n      dup1\n      swap2\n      sub\n      swap1\n      revert\n    tag_293:\n        /* \"inviter_presell/stake.sol\":6373:6377  user */\n      dup2\n        /* \"inviter_presell/stake.sol\":1131:1143  uint256 time */\n      0x00\n        /* \"inviter_presell/stake.sol\":1146:1164  userLastUpdateTime */\n      0x0d\n        /* \"inviter_presell/stake.sol\":1146:1173  userLastUpdateTime[account] */\n      0x00\n        /* \"inviter_presell/stake.sol\":1165:1172  account */\n      dup4\n        /* \"inviter_presell/stake.sol\":1146:1173  userLastUpdateTime[account] */\n      0xffffffffffffffffffffffffffffffffffffffff\n      and\n      0xffffffffffffffffffffffffffffffffffffffff\n      and\n      dup2\n      mstore\n      0x20\n      add\n      swap1\n      dup2\n      mstore\n      0x20\n      add\n      0x00\n      keccak256\n      sload\n        /* \"inviter_presell/stake.sol\":1131:1173  uint256 time = userLastUpdateTime[account] */\n      swap1\n      pop\n        /* \"inviter_presell/stake.sol\":1195:1204  startTime */\n      sload(0x06)\n        /* \"inviter_presell/stake.sol\":1187:1191  time */\n      dup2\n        /* \"inviter_presell/stake.sol\":1187:1204  time <= startTime */\n      gt\n        /* \"inviter_presell/stake.sol\":1184:1249  if(time <= startTime) {... */\n      tag_296\n      jumpi\n        /* \"inviter_presell/stake.sol\":1228:1237  startTime */\n      sload(0x06)\n        /* \"inviter_presell/stake.sol\":1221:1237  time = startTime */\n      swap1\n      pop\n        /* \"inviter_presell/stake.sol\":1184:1249  if(time <= startTime) {... */\n    tag_296:\n        /* \"inviter_presell/stake.sol\":1259:1271  uint256 rate */\n      0x00\n        /* \"inviter_presell/stake.sol\":1274:1319  getTimeWeightedAveRate(time, block.timestamp) */\n      tag_297\n        /* \"inviter_presell/stake.sol\":1297:1301  time */\n      dup3\n        /* \"inviter_presell/stake.sol\":1303:1318  block.timestamp */\n      timestamp\n        /* \"inviter_presell/stake.sol\":1274:1296  getTimeWeightedAveRate */\n      tag_152\n        /* \"inviter_presell/stake.sol\":1274:1319  getTimeWeightedAveRate(time, block.timestamp) */\n      jump\t// in\n    tag_297:\n        /* \"inviter_presell/stake.sol\":1259:1319  uint256 rate = getTimeWeightedAveRate(time, block.timestamp) */\n      swap1\n      pop\n        /* \"inviter_presell/stake.sol\":1353:1373  rewardPerToken(rate) */\n      tag_298\n        /* \"inviter_presell/stake.sol\":1368:1372  rate */\n      dup2\n        /* \"inviter_presell/stake.sol\":1353:1367  rewardPerToken */\n      tag_106\n        /* \"inviter_presell/stake.sol\":1353:1373  rewardPerToken(rate) */\n      jump\t// in\n    tag_298:\n        /* \"inviter_presell/stake.sol\":1330:1350  rewardPerTokenStored */\n      0x0b\n        /* \"inviter_presell/stake.sol\":1330:1373  rewardPerTokenStored = rewardPerToken(rate) */\n      dup2\n      swap1\n      sstore\n      pop\n        /* \"inviter_presell/stake.sol\":1401:1427  lastTimeRewardApplicable() */\n      tag_299\n        /* \"inviter_presell/stake.sol\":1401:1425  lastTimeRewardApplicable */\n      tag_98\n        /* \"inviter_presell/stake.sol\":1401:1427  lastTimeRewardApplicable() */\n      jump\t// in\n    tag_299:\n        /* \"inviter_presell/stake.sol\":1384:1398  lastUpdateTime */\n      0x0a\n        /* \"inviter_presell/stake.sol\":1384:1427  lastUpdateTime = lastTimeRewardApplicable() */\n      dup2\n      swap1\n      sstore\n      pop\n        /* \"inviter_presell/stake.sol\":1461:1462  0 */\n      0x00\n        /* \"inviter_presell/stake.sol\":1442:1463  account != address(0) */\n      0xffffffffffffffffffffffffffffffffffffffff\n      and\n        /* \"inviter_presell/stake.sol\":1442:1449  account */\n      dup4\n        /* \"inviter_presell/stake.sol\":1442:1463  account != address(0) */\n      0xffffffffffffffffffffffffffffffffffffffff\n      and\n      eq\n        /* \"inviter_presell/stake.sol\":1438:1655  if (account != address(0)) {... */\n      tag_300\n      jumpi\n        /* \"inviter_presell/stake.sol\":1499:1514  earned(account) */\n      tag_301\n        /* \"inviter_presell/stake.sol\":1506:1513  account */\n      dup4\n        /* \"inviter_presell/stake.sol\":1499:1505  earned */\n      tag_47\n        /* \"inviter_presell/stake.sol\":1499:1514  earned(account) */\n      jump\t// in\n    tag_301:\n        /* \"inviter_presell/stake.sol\":1480:1487  rewards */\n      0x04\n        /* \"inviter_presell/stake.sol\":1480:1496  rewards[account] */\n      0x00\n        /* \"inviter_presell/stake.sol\":1488:1495  account */\n      dup6\n        /* \"inviter_presell/stake.sol\":1480:1496  rewards[account] */\n      0xffffffffffffffffffffffffffffffffffffffff\n      and\n      0xffffffffffffffffffffffffffffffffffffffff\n      and\n      dup2\n      mstore\n      0x20\n      add\n      swap1\n      dup2\n      mstore\n      0x20\n      add\n      0x00\n      keccak256\n        /* \"inviter_presell/stake.sol\":1480:1514  rewards[account] = earned(account) */\n      dup2\n      swap1\n      sstore\n      pop\n        /* \"inviter_presell/stake.sol\":1563:1583  rewardPerTokenStored */\n      sload(0x0b)\n        /* \"inviter_presell/stake.sol\":1529:1551  userRewardPerTokenPaid */\n      0x0c\n        /* \"inviter_presell/stake.sol\":1529:1560  userRewardPerTokenPaid[account] */\n      0x00\n        /* \"inviter_presell/stake.sol\":1552:1559  account */\n      dup6\n        /* \"inviter_presell/stake.sol\":1529:1560  userRewardPerTokenPaid[account] */\n      0xffffffffffffffffffffffffffffffffffffffff\n      and\n      0xffffffffffffffffffffffffffffffffffffffff\n      and\n      dup2\n      mstore\n      0x20\n      add\n      swap1\n      dup2\n      mstore\n      0x20\n      add\n      0x00\n      keccak256\n        /* \"inviter_presell/stake.sol\":1529:1583  userRewardPerTokenPaid[account] = rewardPerTokenStored */\n      dup2\n      swap1\n      sstore\n      pop\n        /* \"inviter_presell/stake.sol\":1628:1643  block.timestamp */\n      timestamp\n        /* \"inviter_presell/stake.sol\":1598:1616  userLastUpdateTime */\n      0x0d\n        /* \"inviter_presell/stake.sol\":1598:1625  userLastUpdateTime[account] */\n      0x00\n        /* \"inviter_presell/stake.sol\":1617:1624  account */\n      dup6\n        /* \"inviter_presell/stake.sol\":1598:1625  userLastUpdateTime[account] */\n      0xffffffffffffffffffffffffffffffffffffffff\n      and\n      0xffffffffffffffffffffffffffffffffffffffff\n      and\n      dup2\n      mstore\n      0x20\n      add\n      swap1\n      dup2\n      mstore\n      0x20\n      add\n      0x00\n      keccak256\n        /* \"inviter_presell/stake.sol\":1598:1643  userLastUpdateTime[account] = block.timestamp */\n      dup2\n      swap1\n      sstore\n      pop\n        /* \"inviter_presell/stake.sol\":1438:1655  if (account != address(0)) {... */\n    tag_300:\n        /* \"inviter_presell/stake.sol\":6407:6408  0 */\n      0x00\n        /* \"inviter_presell/stake.sol\":6398:6404  amount */\n      dup5\n        /* \"inviter_presell/stake.sol\":6398:6408  amount > 0 */\n      gt\n        /* \"inviter_presell/stake.sol\":6390:6427  require(amount > 0, \"Cannot stake 0\") */\n      tag_303\n      jumpi\n      mload(0x40)\n      0x08c379a000000000000000000000000000000000000000000000000000000000\n      dup2\n      mstore\n      0x04\n      add\n      tag_304\n      swap1\n      tag_305\n      jump\t// in\n    tag_304:\n      mload(0x40)\n      dup1\n      swap2\n      sub\n      swap1\n      revert\n    tag_303:\n        /* \"inviter_presell/stake.sol\":6453:6477  _totalPowers.add(amount) */\n      tag_306\n        /* \"inviter_presell/stake.sol\":6470:6476  amount */\n      dup5\n        /* \"inviter_presell/stake.sol\":6453:6465  _totalPowers */\n      sload(0x0e)\n        /* \"inviter_presell/stake.sol\":6453:6469  _totalPowers.add */\n      tag_172\n      swap1\n        /* \"inviter_presell/stake.sol\":6453:6477  _totalPowers.add(amount) */\n      swap2\n      swap1\n      0xffffffff\n      and\n      jump\t// in\n    tag_306:\n        /* \"inviter_presell/stake.sol\":6438:6450  _totalPowers */\n      0x0e\n        /* \"inviter_presell/stake.sol\":6438:6477  _totalPowers = _totalPowers.add(amount) */\n      dup2\n      swap1\n      sstore\n      pop\n        /* \"inviter_presell/stake.sol\":6506:6533  _balances[user].add(amount) */\n      tag_307\n        /* \"inviter_presell/stake.sol\":6526:6532  amount */\n      dup5\n        /* \"inviter_presell/stake.sol\":6506:6515  _balances */\n      0x0f\n        /* \"inviter_presell/stake.sol\":6506:6521  _balances[user] */\n      0x00\n        /* \"inviter_presell/stake.sol\":6516:6520  user */\n      dup9\n        /* \"inviter_presell/stake.sol\":6506:6521  _balances[user] */\n      0xffffffffffffffffffffffffffffffffffffffff\n      and\n      0xffffffffffffffffffffffffffffffffffffffff\n      and\n      dup2\n      mstore\n      0x20\n      add\n      swap1\n      dup2\n      mstore\n      0x20\n      add\n      0x00\n      keccak256\n      sload\n        /* \"inviter_presell/stake.sol\":6506:6525  _balances[user].add */\n      tag_172\n      swap1\n        /* \"inviter_presell/stake.sol\":6506:6533  _balances[user].add(amount) */\n      swap2\n      swap1\n      0xffffffff\n      and\n      jump\t// in\n    tag_307:\n        /* \"inviter_presell/stake.sol\":6488:6497  _balances */\n      0x0f\n        /* \"inviter_presell/stake.sol\":6488:6503  _balances[user] */\n      0x00\n        /* \"inviter_presell/stake.sol\":6498:6502  user */\n      dup8\n        /* \"inviter_presell/stake.sol\":6488:6503  _balances[user] */\n      0xffffffffffffffffffffffffffffffffffffffff\n      and\n      0xffffffffffffffffffffffffffffffffffffffff\n      and\n      dup2\n      mstore\n      0x20\n      add\n      swap1\n      dup2\n      mstore\n      0x20\n      add\n      0x00\n      keccak256\n        /* \"inviter_presell/stake.sol\":6488:6533  _balances[user] = _balances[user].add(amount) */\n      dup2\n      swap1\n      sstore\n      pop\n        /* \"inviter_presell/stake.sol\":6556:6560  user */\n      dup5\n        /* \"inviter_presell/stake.sol\":6549:6569  Staked(user, amount) */\n      0xffffffffffffffffffffffffffffffffffffffff\n      and\n      0x9e71bc8eea02a63969f509818f2dafb9254532904319f9dbda79b67bd34a5f3d\n        /* \"inviter_presell/stake.sol\":6562:6568  amount */\n      dup6\n        /* \"inviter_presell/stake.sol\":6549:6569  Staked(user, amount) */\n      mload(0x40)\n      tag_308\n      swap2\n      swap1\n      tag_49\n      jump\t// in\n    tag_308:\n      mload(0x40)\n      dup1\n      swap2\n      sub\n      swap1\n      log2\n        /* \"inviter_presell/stake.sol\":1120:1674  {... */\n      pop\n      pop\n        /* \"inviter_presell/adminable.sol\":892:893  _ */\n      pop\n        /* \"node_modules/@openzeppelin/contracts/security/ReentrancyGuard.sol\":1701:1702  1 */\n      0x01\n        /* \"node_modules/@openzeppelin/contracts/security/ReentrancyGuard.sol\":2628:2635  _status */\n      0x02\n        /* \"node_modules/@openzeppelin/contracts/security/ReentrancyGuard.sol\":2628:2650  _status = _NOT_ENTERED */\n      dup2\n      swap1\n      sstore\n      pop\n        /* \"inviter_presell/stake.sol\":6283:6577  function stake(address user, uint256 amount) external nonReentrant onlyAdmin updateReward(user) {... */\n      pop\n      pop\n      jump\t// out\n        /* \"inviter_presell/stake.sol\":2061:2172  function powersOf(address account) external view returns (uint256) {... */\n    tag_137:\n        /* \"inviter_presell/stake.sol\":2119:2126  uint256 */\n      0x00\n        /* \"inviter_presell/stake.sol\":2146:2155  _balances */\n      0x0f\n        /* \"inviter_presell/stake.sol\":2146:2164  _balances[account] */\n      0x00\n        /* \"inviter_presell/stake.sol\":2156:2163  account */\n      dup4\n        /* \"inviter_presell/stake.sol\":2146:2164  _balances[account] */\n      0xffffffffffffffffffffffffffffffffffffffff\n      and\n      0xffffffffffffffffffffffffffffffffffffffff\n      and\n      dup2\n      mstore\n      0x20\n      add\n      swap1\n      dup2\n      mstore\n      0x20\n      add\n      0x00\n      keccak256\n      sload\n        /* \"inviter_presell/stake.sol\":2139:2164  return _balances[account] */\n      swap1\n      pop\n        /* \"inviter_presell/stake.sol\":2061:2172  function powersOf(address account) external view returns (uint256) {... */\n      swap2\n      swap1\n      pop\n      jump\t// out\n        /* \"inviter_presell/stake.sol\":782:811  uint256 public lastUpdateTime */\n    tag_140:\n      sload(0x0a)\n      dup2\n      jump\t// out\n        /* \"inviter_presell/stake.sol\":3725:3840  function getCurRewardRate() public view returns (uint256) {... */\n    tag_143:\n        /* \"inviter_presell/stake.sol\":3774:3781  uint256 */\n      0x00\n        /* \"inviter_presell/stake.sol\":3801:3832  _getRewardRate(block.timestamp) */\n      tag_311\n        /* \"inviter_presell/stake.sol\":3816:3831  block.timestamp */\n      timestamp\n        /* \"inviter_presell/stake.sol\":3801:3815  _getRewardRate */\n      tag_312\n        /* \"inviter_presell/stake.sol\":3801:3832  _getRewardRate(block.timestamp) */\n      jump\t// in\n    tag_311:\n        /* \"inviter_presell/stake.sol\":3794:3832  return _getRewardRate(block.timestamp) */\n      swap1\n      pop\n        /* \"inviter_presell/stake.sol\":3725:3840  function getCurRewardRate() public view returns (uint256) {... */\n      swap1\n      jump\t// out\n        /* \"inviter_presell/stake.sol\":467:493  IERC20 public rewardsToken */\n    tag_146:\n      0x03\n      0x00\n      swap1\n      sload\n      swap1\n      0x0100\n      exp\n      swap1\n      div\n      0xffffffffffffffffffffffffffffffffffffffff\n      and\n      dup2\n      jump\t// out\n        /* \"inviter_presell/stake.sol\":4890:6273  function getTimeWeightedAveRate(uint256 leftTime, uint256 rightTime) public view returns (uint256){... */\n    tag_152:\n        /* \"inviter_presell/stake.sol\":4980:4987  uint256 */\n      0x00\n        /* \"inviter_presell/stake.sol\":5025:5026  0 */\n      dup1\n        /* \"inviter_presell/stake.sol\":5012:5021  startTime */\n      sload(0x06)\n        /* \"inviter_presell/stake.sol\":5012:5026  startTime == 0 */\n      eq\n        /* \"inviter_presell/stake.sol\":5012:5051  startTime == 0 || leftTime >= rightTime */\n      dup1\n      tag_314\n      jumpi\n      pop\n        /* \"inviter_presell/stake.sol\":5042:5051  rightTime */\n      dup2\n        /* \"inviter_presell/stake.sol\":5030:5038  leftTime */\n      dup4\n        /* \"inviter_presell/stake.sol\":5030:5051  leftTime >= rightTime */\n      lt\n      iszero\n        /* \"inviter_presell/stake.sol\":5012:5051  startTime == 0 || leftTime >= rightTime */\n    tag_314:\n        /* \"inviter_presell/stake.sol\":5012:5068  startTime == 0 || leftTime >= rightTime || leftTime == 0 */\n      dup1\n      tag_315\n      jumpi\n      pop\n        /* \"inviter_presell/stake.sol\":5067:5068  0 */\n      0x00\n        /* \"inviter_presell/stake.sol\":5055:5063  leftTime */\n      dup4\n        /* \"inviter_presell/stake.sol\":5055:5068  leftTime == 0 */\n      eq\n        /* \"inviter_presell/stake.sol\":5012:5068  startTime == 0 || leftTime >= rightTime || leftTime == 0 */\n    tag_315:\n        /* \"inviter_presell/stake.sol\":5009:5105  if(startTime == 0 || leftTime >= rightTime || leftTime == 0) {... */\n      iszero\n      tag_316\n      jumpi\n        /* \"inviter_presell/stake.sol\":5092:5093  0 */\n      0x00\n        /* \"inviter_presell/stake.sol\":5085:5093  return 0 */\n      swap1\n      pop\n      jump(tag_313)\n        /* \"inviter_presell/stake.sol\":5009:5105  if(startTime == 0 || leftTime >= rightTime || leftTime == 0) {... */\n    tag_316:\n        /* \"inviter_presell/stake.sol\":5131:5140  startTime */\n      sload(0x06)\n        /* \"inviter_presell/stake.sol\":5120:5128  leftTime */\n      dup4\n        /* \"inviter_presell/stake.sol\":5120:5140  leftTime < startTime */\n      lt\n        /* \"inviter_presell/stake.sol\":5117:5189  if(leftTime < startTime) {... */\n      iszero\n      tag_317\n      jumpi\n        /* \"inviter_presell/stake.sol\":5168:5177  startTime */\n      sload(0x06)\n        /* \"inviter_presell/stake.sol\":5157:5177  leftTime = startTime */\n      swap3\n      pop\n        /* \"inviter_presell/stake.sol\":5117:5189  if(leftTime < startTime) {... */\n    tag_317:\n        /* \"inviter_presell/stake.sol\":5201:5221  uint256 leftInterval */\n      0x00\n        /* \"inviter_presell/stake.sol\":5281:5293  rateInterval */\n      sload(0x07)\n        /* \"inviter_presell/stake.sol\":5265:5277  rateInterval */\n      sload(0x07)\n        /* \"inviter_presell/stake.sol\":5252:5261  startTime */\n      sload(0x06)\n        /* \"inviter_presell/stake.sol\":5241:5249  leftTime */\n      dup7\n        /* \"inviter_presell/stake.sol\":5241:5261  leftTime - startTime */\n      tag_318\n      swap2\n      swap1\n      tag_214\n      jump\t// in\n    tag_318:\n        /* \"inviter_presell/stake.sol\":5240:5277  (leftTime - startTime) % rateInterval */\n      tag_319\n      swap2\n      swap1\n      tag_320\n      jump\t// in\n    tag_319:\n        /* \"inviter_presell/stake.sol\":5225:5237  rateInterval */\n      sload(0x07)\n        /* \"inviter_presell/stake.sol\":5225:5277  rateInterval - (leftTime - startTime) % rateInterval */\n      tag_321\n      swap2\n      swap1\n      tag_214\n      jump\t// in\n    tag_321:\n        /* \"inviter_presell/stake.sol\":5224:5293  (rateInterval - (leftTime - startTime) % rateInterval) % rateInterval */\n      tag_322\n      swap2\n      swap1\n      tag_320\n      jump\t// in\n    tag_322:\n        /* \"inviter_presell/stake.sol\":5201:5293  uint256 leftInterval = (rateInterval - (leftTime - startTime) % rateInterval) % rateInterval */\n      swap1\n      pop\n        /* \"inviter_presell/stake.sol\":5304:5322  uint256 leftReward */\n      0x00\n        /* \"inviter_presell/stake.sol\":5366:5378  rateInterval */\n      sload(0x07)\n        /* \"inviter_presell/stake.sol\":5351:5363  leftInterval */\n      dup3\n        /* \"inviter_presell/stake.sol\":5325:5348  getRewardPool(leftTime) */\n      tag_323\n        /* \"inviter_presell/stake.sol\":5339:5347  leftTime */\n      dup8\n        /* \"inviter_presell/stake.sol\":5325:5338  getRewardPool */\n      tag_81\n        /* \"inviter_presell/stake.sol\":5325:5348  getRewardPool(leftTime) */\n      jump\t// in\n    tag_323:\n        /* \"inviter_presell/stake.sol\":5325:5363  getRewardPool(leftTime) * leftInterval */\n      tag_324\n      swap2\n      swap1\n      tag_223\n      jump\t// in\n    tag_324:\n        /* \"inviter_presell/stake.sol\":5325:5378  getRewardPool(leftTime) * leftInterval / rateInterval */\n      tag_325\n      swap2\n      swap1\n      tag_216\n      jump\t// in\n    tag_325:\n        /* \"inviter_presell/stake.sol\":5304:5378  uint256 leftReward = getRewardPool(leftTime) * leftInterval / rateInterval */\n      swap1\n      pop\n        /* \"inviter_presell/stake.sol\":5391:5412  uint256 rightInterval */\n      0x00\n        /* \"inviter_presell/stake.sol\":5441:5453  rateInterval */\n      sload(0x07)\n        /* \"inviter_presell/stake.sol\":5428:5437  startTime */\n      sload(0x06)\n        /* \"inviter_presell/stake.sol\":5416:5425  rightTime */\n      dup7\n        /* \"inviter_presell/stake.sol\":5416:5437  rightTime - startTime */\n      tag_326\n      swap2\n      swap1\n      tag_214\n      jump\t// in\n    tag_326:\n        /* \"inviter_presell/stake.sol\":5415:5453  (rightTime - startTime) % rateInterval */\n      tag_327\n      swap2\n      swap1\n      tag_320\n      jump\t// in\n    tag_327:\n        /* \"inviter_presell/stake.sol\":5391:5453  uint256 rightInterval = (rightTime - startTime) % rateInterval */\n      swap1\n      pop\n        /* \"inviter_presell/stake.sol\":5464:5483  uint256 rightReward */\n      0x00\n        /* \"inviter_presell/stake.sol\":5529:5541  rateInterval */\n      sload(0x07)\n        /* \"inviter_presell/stake.sol\":5513:5526  rightInterval */\n      dup3\n        /* \"inviter_presell/stake.sol\":5486:5510  getRewardPool(rightTime) */\n      tag_328\n        /* \"inviter_presell/stake.sol\":5500:5509  rightTime */\n      dup9\n        /* \"inviter_presell/stake.sol\":5486:5499  getRewardPool */\n      tag_81\n        /* \"inviter_presell/stake.sol\":5486:5510  getRewardPool(rightTime) */\n      jump\t// in\n    tag_328:\n        /* \"inviter_presell/stake.sol\":5486:5526  getRewardPool(rightTime) * rightInterval */\n      tag_329\n      swap2\n      swap1\n      tag_223\n      jump\t// in\n    tag_329:\n        /* \"inviter_presell/stake.sol\":5486:5541  getRewardPool(rightTime) * rightInterval / rateInterval */\n      tag_330\n      swap2\n      swap1\n      tag_216\n      jump\t// in\n    tag_330:\n        /* \"inviter_presell/stake.sol\":5464:5541  uint256 rightReward = getRewardPool(rightTime) * rightInterval / rateInterval */\n      swap1\n      pop\n        /* \"inviter_presell/stake.sol\":5583:5592  rightTime */\n      dup6\n        /* \"inviter_presell/stake.sol\":5568:5580  leftInterval */\n      dup5\n        /* \"inviter_presell/stake.sol\":5557:5565  leftTime */\n      dup9\n        /* \"inviter_presell/stake.sol\":5557:5580  leftTime + leftInterval */\n      tag_331\n      swap2\n      swap1\n      tag_218\n      jump\t// in\n    tag_331:\n        /* \"inviter_presell/stake.sol\":5557:5592  leftTime + leftInterval > rightTime */\n      gt\n        /* \"inviter_presell/stake.sol\":5554:5652  if(leftTime + leftInterval > rightTime) {... */\n      iszero\n      tag_332\n      jumpi\n        /* \"inviter_presell/stake.sol\":5616:5640  _getRewardRate(leftTime) */\n      tag_333\n        /* \"inviter_presell/stake.sol\":5631:5639  leftTime */\n      dup8\n        /* \"inviter_presell/stake.sol\":5616:5630  _getRewardRate */\n      tag_312\n        /* \"inviter_presell/stake.sol\":5616:5640  _getRewardRate(leftTime) */\n      jump\t// in\n    tag_333:\n        /* \"inviter_presell/stake.sol\":5609:5640  return _getRewardRate(leftTime) */\n      swap5\n      pop\n      pop\n      pop\n      pop\n      pop\n      jump(tag_313)\n        /* \"inviter_presell/stake.sol\":5554:5652  if(leftTime + leftInterval > rightTime) {... */\n    tag_332:\n        /* \"inviter_presell/stake.sol\":5664:5683  uint256 midInterval */\n      0x00\n        /* \"inviter_presell/stake.sol\":5725:5737  leftInterval */\n      dup5\n        /* \"inviter_presell/stake.sol\":5714:5722  leftTime */\n      dup9\n        /* \"inviter_presell/stake.sol\":5698:5711  rightInterval */\n      dup5\n        /* \"inviter_presell/stake.sol\":5686:5695  rightTime */\n      dup10\n        /* \"inviter_presell/stake.sol\":5686:5711  rightTime - rightInterval */\n      tag_334\n      swap2\n      swap1\n      tag_214\n      jump\t// in\n    tag_334:\n        /* \"inviter_presell/stake.sol\":5686:5722  rightTime - rightInterval - leftTime */\n      tag_335\n      swap2\n      swap1\n      tag_214\n      jump\t// in\n    tag_335:\n        /* \"inviter_presell/stake.sol\":5686:5737  rightTime - rightInterval - leftTime - leftInterval */\n      tag_336\n      swap2\n      swap1\n      tag_214\n      jump\t// in\n    tag_336:\n        /* \"inviter_presell/stake.sol\":5664:5737  uint256 midInterval = rightTime - rightInterval - leftTime - leftInterval */\n      swap1\n      pop\n        /* \"inviter_presell/stake.sol\":5748:5767  uint256 startReward */\n      0x00\n        /* \"inviter_presell/stake.sol\":5770:5793  getRemainPool(leftTime) */\n      tag_337\n        /* \"inviter_presell/stake.sol\":5784:5792  leftTime */\n      dup10\n        /* \"inviter_presell/stake.sol\":5770:5783  getRemainPool */\n      tag_77\n        /* \"inviter_presell/stake.sol\":5770:5793  getRemainPool(leftTime) */\n      jump\t// in\n    tag_337:\n        /* \"inviter_presell/stake.sol\":5748:5793  uint256 startReward = getRemainPool(leftTime) */\n      swap1\n      pop\n        /* \"inviter_presell/stake.sol\":5805:5827  uint256 midTotalReward */\n      0x00\n        /* \"inviter_presell/stake.sol\":5842:5860  uint256 nextReward */\n      dup1\n        /* \"inviter_presell/stake.sol\":5875:5888  uint256 value */\n      0x00\n        /* \"inviter_presell/stake.sol\":5891:5902  startReward */\n      dup4\n        /* \"inviter_presell/stake.sol\":5875:5902  uint256 value = startReward */\n      swap1\n      pop\n        /* \"inviter_presell/stake.sol\":5913:5926  uint256 times */\n      0x00\n        /* \"inviter_presell/stake.sol\":5943:5955  rateInterval */\n      sload(0x07)\n        /* \"inviter_presell/stake.sol\":5929:5940  midInterval */\n      dup7\n        /* \"inviter_presell/stake.sol\":5929:5955  midInterval / rateInterval */\n      tag_338\n      swap2\n      swap1\n      tag_216\n      jump\t// in\n    tag_338:\n        /* \"inviter_presell/stake.sol\":5913:5955  uint256 times = midInterval / rateInterval */\n      swap1\n      pop\n        /* \"inviter_presell/stake.sol\":5970:5979  uint256 i */\n      0x00\n        /* \"inviter_presell/stake.sol\":5966:6180  for(uint256 i = 0; i < times; ++i) {... */\n    tag_339:\n        /* \"inviter_presell/stake.sol\":5989:5994  times */\n      dup2\n        /* \"inviter_presell/stake.sol\":5985:5986  i */\n      dup2\n        /* \"inviter_presell/stake.sol\":5985:5994  i < times */\n      lt\n        /* \"inviter_presell/stake.sol\":5966:6180  for(uint256 i = 0; i < times; ++i) {... */\n      iszero\n      tag_340\n      jumpi\n        /* \"inviter_presell/stake.sol\":6061:6084  rateIntervalDenominator */\n      sload(0x09)\n        /* \"inviter_presell/stake.sol\":6037:6058  rateIntervalNumerator */\n      sload(0x08)\n        /* \"inviter_presell/stake.sol\":6029:6034  value */\n      dup5\n        /* \"inviter_presell/stake.sol\":6029:6058  value * rateIntervalNumerator */\n      tag_342\n      swap2\n      swap1\n      tag_223\n      jump\t// in\n    tag_342:\n        /* \"inviter_presell/stake.sol\":6029:6084  value * rateIntervalNumerator / rateIntervalDenominator */\n      tag_343\n      swap2\n      swap1\n      tag_216\n      jump\t// in\n    tag_343:\n        /* \"inviter_presell/stake.sol\":6016:6084  nextReward = value * rateIntervalNumerator / rateIntervalDenominator */\n      swap4\n      pop\n        /* \"inviter_presell/stake.sol\":6115:6125  nextReward */\n      dup4\n        /* \"inviter_presell/stake.sol\":6107:6112  value */\n      dup4\n        /* \"inviter_presell/stake.sol\":6107:6125  value - nextReward */\n      tag_344\n      swap2\n      swap1\n      tag_214\n      jump\t// in\n    tag_344:\n        /* \"inviter_presell/stake.sol\":6099:6125  value = value - nextReward */\n      swap3\n      pop\n        /* \"inviter_presell/stake.sol\":6158:6168  nextReward */\n      dup4\n        /* \"inviter_presell/stake.sol\":6140:6168  midTotalReward += nextReward */\n      dup6\n      tag_345\n      swap2\n      swap1\n      tag_218\n      jump\t// in\n    tag_345:\n      swap5\n      pop\n        /* \"inviter_presell/stake.sol\":5996:5999  ++i */\n      dup1\n      tag_346\n      swap1\n      tag_227\n      jump\t// in\n    tag_346:\n      swap1\n      pop\n        /* \"inviter_presell/stake.sol\":5966:6180  for(uint256 i = 0; i < times; ++i) {... */\n      jump(tag_339)\n    tag_340:\n      pop\n        /* \"inviter_presell/stake.sol\":6256:6264  leftTime */\n      dup13\n        /* \"inviter_presell/stake.sol\":6244:6253  rightTime */\n      dup13\n        /* \"inviter_presell/stake.sol\":6244:6264  rightTime - leftTime */\n      tag_347\n      swap2\n      swap1\n      tag_214\n      jump\t// in\n    tag_347:\n        /* \"inviter_presell/stake.sol\":6228:6239  rightReward */\n      dup8\n        /* \"inviter_presell/stake.sol\":6215:6225  leftReward */\n      dup11\n        /* \"inviter_presell/stake.sol\":6198:6212  midTotalReward */\n      dup7\n        /* \"inviter_presell/stake.sol\":6198:6225  midTotalReward + leftReward */\n      tag_348\n      swap2\n      swap1\n      tag_218\n      jump\t// in\n    tag_348:\n        /* \"inviter_presell/stake.sol\":6198:6239  midTotalReward + leftReward + rightReward */\n      tag_349\n      swap2\n      swap1\n      tag_218\n      jump\t// in\n    tag_349:\n        /* \"inviter_presell/stake.sol\":6197:6265  (midTotalReward + leftReward + rightReward) / (rightTime - leftTime) */\n      tag_350\n      swap2\n      swap1\n      tag_216\n      jump\t// in\n    tag_350:\n        /* \"inviter_presell/stake.sol\":6190:6265  return (midTotalReward + leftReward + rightReward) / (rightTime - leftTime) */\n      swap11\n      pop\n      pop\n      pop\n      pop\n      pop\n      pop\n      pop\n      pop\n      pop\n      pop\n      pop\n        /* \"inviter_presell/stake.sol\":4890:6273  function getTimeWeightedAveRate(uint256 leftTime, uint256 rightTime) public view returns (uint256){... */\n    tag_313:\n      swap3\n      swap2\n      pop\n      pop\n      jump\t// out\n        /* \"inviter_presell/stake.sol\":7141:7256  function emergencyWithdraw() external onlyOwner {... */\n    tag_155:\n        /* \"inviter_presell/adminable.sol\":702:714  _msgSender() */\n      tag_352\n        /* \"inviter_presell/adminable.sol\":702:712  _msgSender */\n      tag_175\n        /* \"inviter_presell/adminable.sol\":702:714  _msgSender() */\n      jump\t// in\n    tag_352:\n        /* \"inviter_presell/adminable.sol\":691:714  owner() == _msgSender() */\n      0xffffffffffffffffffffffffffffffffffffffff\n      and\n        /* \"inviter_presell/adminable.sol\":691:698  owner() */\n      tag_353\n        /* \"inviter_presell/adminable.sol\":691:696  owner */\n      tag_119\n        /* \"inviter_presell/adminable.sol\":691:698  owner() */\n      jump\t// in\n    tag_353:\n        /* \"inviter_presell/adminable.sol\":691:714  owner() == _msgSender() */\n      0xffffffffffffffffffffffffffffffffffffffff\n      and\n      eq\n        /* \"inviter_presell/adminable.sol\":683:753  require(owner() == _msgSender(), \"Adminable: caller is not the owner\") */\n      tag_354\n      jumpi\n      mload(0x40)\n      0x08c379a000000000000000000000000000000000000000000000000000000000\n      dup2\n      mstore\n      0x04\n      add\n      tag_355\n      swap1\n      tag_179\n      jump\t// in\n    tag_355:\n      mload(0x40)\n      dup1\n      swap2\n      sub\n      swap1\n      revert\n    tag_354:\n        /* \"inviter_presell/stake.sol\":7208:7215  owner() */\n      tag_357\n        /* \"inviter_presell/stake.sol\":7208:7213  owner */\n      tag_119\n        /* \"inviter_presell/stake.sol\":7208:7215  owner() */\n      jump\t// in\n    tag_357:\n        /* \"inviter_presell/stake.sol\":7200:7225  payable(owner()).transfer */\n      0xffffffffffffffffffffffffffffffffffffffff\n      and\n        /* \"inviter_presell/stake.sol\":7200:7248  payable(owner()).transfer(address(this).balance) */\n      0x08fc\n        /* \"inviter_presell/stake.sol\":7226:7247  address(this).balance */\n      selfbalance\n        /* \"inviter_presell/stake.sol\":7200:7248  payable(owner()).transfer(address(this).balance) */\n      swap1\n      dup2\n      iszero\n      mul\n      swap1\n      mload(0x40)\n      0x00\n      mload(0x40)\n      dup1\n      dup4\n      sub\n      dup2\n      dup6\n      dup9\n      dup9\n      call\n      swap4\n      pop\n      pop\n      pop\n      pop\n      iszero\n      dup1\n      iszero\n      tag_359\n      jumpi\n      returndatasize\n      0x00\n      dup1\n      returndatacopy\n      revert(0x00, returndatasize)\n    tag_359:\n      pop\n        /* \"inviter_presell/stake.sol\":7141:7256  function emergencyWithdraw() external onlyOwner {... */\n      jump\t// out\n        /* \"inviter_presell/stake.sol\":818:853  uint256 public rewardPerTokenStored */\n    tag_157:\n      sload(0x0b)\n      dup2\n      jump\t// out\n        /* \"inviter_presell/adminable.sol\":1234:1435  function transferOwnership(address newOwner) public virtual onlyOwner {... */\n    tag_161:\n        /* \"inviter_presell/adminable.sol\":702:714  _msgSender() */\n      tag_361\n        /* \"inviter_presell/adminable.sol\":702:712  _msgSender */\n      tag_175\n        /* \"inviter_presell/adminable.sol\":702:714  _msgSender() */\n      jump\t// in\n    tag_361:\n        /* \"inviter_presell/adminable.sol\":691:714  owner() == _msgSender() */\n      0xffffffffffffffffffffffffffffffffffffffff\n      and\n        /* \"inviter_presell/adminable.sol\":691:698  owner() */\n      tag_362\n        /* \"inviter_presell/adminable.sol\":691:696  owner */\n      tag_119\n        /* \"inviter_presell/adminable.sol\":691:698  owner() */\n      jump\t// in\n    tag_362:\n        /* \"inviter_presell/adminable.sol\":691:714  owner() == _msgSender() */\n      0xffffffffffffffffffffffffffffffffffffffff\n      and\n      eq\n        /* \"inviter_presell/adminable.sol\":683:753  require(owner() == _msgSender(), \"Adminable: caller is not the owner\") */\n      tag_363\n      jumpi\n      mload(0x40)\n      0x08c379a000000000000000000000000000000000000000000000000000000000\n      dup2\n      mstore\n      0x04\n      add\n      tag_364\n      swap1\n      tag_179\n      jump\t// in\n    tag_364:\n      mload(0x40)\n      dup1\n      swap2\n      sub\n      swap1\n      revert\n    tag_363:\n        /* \"inviter_presell/adminable.sol\":1343:1344  0 */\n      0x00\n        /* \"inviter_presell/adminable.sol\":1323:1345  newOwner != address(0) */\n      0xffffffffffffffffffffffffffffffffffffffff\n      and\n        /* \"inviter_presell/adminable.sol\":1323:1331  newOwner */\n      dup2\n        /* \"inviter_presell/adminable.sol\":1323:1345  newOwner != address(0) */\n      0xffffffffffffffffffffffffffffffffffffffff\n      and\n      sub\n        /* \"inviter_presell/adminable.sol\":1315:1388  require(newOwner != address(0), \"Ownable: new owner is the zero address\") */\n      tag_366\n      jumpi\n      mload(0x40)\n      0x08c379a000000000000000000000000000000000000000000000000000000000\n      dup2\n      mstore\n      0x04\n      add\n      tag_367\n      swap1\n      tag_368\n      jump\t// in\n    tag_367:\n      mload(0x40)\n      dup1\n      swap2\n      sub\n      swap1\n      revert\n    tag_366:\n        /* \"inviter_presell/adminable.sol\":1399:1427  _transferOwnership(newOwner) */\n      tag_369\n        /* \"inviter_presell/adminable.sol\":1418:1426  newOwner */\n      dup2\n        /* \"inviter_presell/adminable.sol\":1399:1417  _transferOwnership */\n      tag_251\n        /* \"inviter_presell/adminable.sol\":1399:1427  _transferOwnership(newOwner) */\n      jump\t// in\n    tag_369:\n        /* \"inviter_presell/adminable.sol\":1234:1435  function transferOwnership(address newOwner) public virtual onlyOwner {... */\n      pop\n      jump\t// out\n        /* \"node_modules/@openzeppelin/contracts/utils/math/SafeMath.sol\":3108:3204  function sub(uint256 a, uint256 b) internal pure returns (uint256) {... */\n    tag_169:\n        /* \"node_modules/@openzeppelin/contracts/utils/math/SafeMath.sol\":3166:3173  uint256 */\n      0x00\n        /* \"node_modules/@openzeppelin/contracts/utils/math/SafeMath.sol\":3196:3197  b */\n      dup2\n        /* \"node_modules/@openzeppelin/contracts/utils/math/SafeMath.sol\":3192:3193  a */\n      dup4\n        /* \"node_modules/@openzeppelin/contracts/utils/math/SafeMath.sol\":3192:3197  a - b */\n      tag_371\n      swap2\n      swap1\n      tag_214\n      jump\t// in\n    tag_371:\n        /* \"node_modules/@openzeppelin/contracts/utils/math/SafeMath.sol\":3185:3197  return a - b */\n      swap1\n      pop\n        /* \"node_modules/@openzeppelin/contracts/utils/math/SafeMath.sol\":3108:3204  function sub(uint256 a, uint256 b) internal pure returns (uint256) {... */\n      swap3\n      swap2\n      pop\n      pop\n      jump\t// out\n        /* \"node_modules/@openzeppelin/contracts/utils/math/SafeMath.sol\":3451:3547  function mul(uint256 a, uint256 b) internal pure returns (uint256) {... */\n    tag_170:\n        /* \"node_modules/@openzeppelin/contracts/utils/math/SafeMath.sol\":3509:3516  uint256 */\n      0x00\n        /* \"node_modules/@openzeppelin/contracts/utils/math/SafeMath.sol\":3539:3540  b */\n      dup2\n        /* \"node_modules/@openzeppelin/contracts/utils/math/SafeMath.sol\":3535:3536  a */\n      dup4\n        /* \"node_modules/@openzeppelin/contracts/utils/math/SafeMath.sol\":3535:3540  a * b */\n      tag_373\n      swap2\n      swap1\n      tag_223\n      jump\t// in\n    tag_373:\n        /* \"node_modules/@openzeppelin/contracts/utils/math/SafeMath.sol\":3528:3540  return a * b */\n      swap1\n      pop\n        /* \"node_modules/@openzeppelin/contracts/utils/math/SafeMath.sol\":3451:3547  function mul(uint256 a, uint256 b) internal pure returns (uint256) {... */\n      swap3\n      swap2\n      pop\n      pop\n      jump\t// out\n        /* \"node_modules/@openzeppelin/contracts/utils/math/SafeMath.sol\":3836:3932  function div(uint256 a, uint256 b) internal pure returns (uint256) {... */\n    tag_171:\n        /* \"node_modules/@openzeppelin/contracts/utils/math/SafeMath.sol\":3894:3901  uint256 */\n      0x00\n        /* \"node_modules/@openzeppelin/contracts/utils/math/SafeMath.sol\":3924:3925  b */\n      dup2\n        /* \"node_modules/@openzeppelin/contracts/utils/math/SafeMath.sol\":3920:3921  a */\n      dup4\n        /* \"node_modules/@openzeppelin/contracts/utils/math/SafeMath.sol\":3920:3925  a / b */\n      tag_375\n      swap2\n      swap1\n      tag_216\n      jump\t// in\n    tag_375:\n        /* \"node_modules/@openzeppelin/contracts/utils/math/SafeMath.sol\":3913:3925  return a / b */\n      swap1\n      pop\n        /* \"node_modules/@openzeppelin/contracts/utils/math/SafeMath.sol\":3836:3932  function div(uint256 a, uint256 b) internal pure returns (uint256) {... */\n      swap3\n      swap2\n      pop\n      pop\n      jump\t// out\n        /* \"node_modules/@openzeppelin/contracts/utils/math/SafeMath.sol\":2741:2837  function add(uint256 a, uint256 b) internal pure returns (uint256) {... */\n    tag_172:\n        /* \"node_modules/@openzeppelin/contracts/utils/math/SafeMath.sol\":2799:2806  uint256 */\n      0x00\n        /* \"node_modules/@openzeppelin/contracts/utils/math/SafeMath.sol\":2829:2830  b */\n      dup2\n        /* \"node_modules/@openzeppelin/contracts/utils/math/SafeMath.sol\":2825:2826  a */\n      dup4\n        /* \"node_modules/@openzeppelin/contracts/utils/math/SafeMath.sol\":2825:2830  a + b */\n      tag_377\n      swap2\n      swap1\n      tag_218\n      jump\t// in\n    tag_377:\n        /* \"node_modules/@openzeppelin/contracts/utils/math/SafeMath.sol\":2818:2830  return a + b */\n      swap1\n      pop\n        /* \"node_modules/@openzeppelin/contracts/utils/math/SafeMath.sol\":2741:2837  function add(uint256 a, uint256 b) internal pure returns (uint256) {... */\n      swap3\n      swap2\n      pop\n      pop\n      jump\t// out\n        /* \"inviter_presell/adminable.sol\":63:161  function _msgSender() internal view virtual returns (address) {... */\n    tag_175:\n        /* \"inviter_presell/adminable.sol\":116:123  address */\n      0x00\n        /* \"inviter_presell/adminable.sol\":143:153  msg.sender */\n      caller\n        /* \"inviter_presell/adminable.sol\":136:153  return msg.sender */\n      swap1\n      pop\n        /* \"inviter_presell/adminable.sol\":63:161  function _msgSender() internal view virtual returns (address) {... */\n      swap1\n      jump\t// out\n        /* \"inviter_presell/adminable.sol\":1443:1634  function _transferOwnership(address newOwner) internal virtual {... */\n    tag_251:\n        /* \"inviter_presell/adminable.sol\":1517:1533  address oldOwner */\n      0x00\n        /* \"inviter_presell/adminable.sol\":1536:1542  _owner */\n      0x01\n      0x00\n      swap1\n      sload\n      swap1\n      0x0100\n      exp\n      swap1\n      div\n      0xffffffffffffffffffffffffffffffffffffffff\n      and\n        /* \"inviter_presell/adminable.sol\":1517:1542  address oldOwner = _owner */\n      swap1\n      pop\n        /* \"inviter_presell/adminable.sol\":1562:1570  newOwner */\n      dup2\n        /* \"inviter_presell/adminable.sol\":1553:1559  _owner */\n      0x01\n      0x00\n        /* \"inviter_presell/adminable.sol\":1553:1570  _owner = newOwner */\n      0x0100\n      exp\n      dup2\n      sload\n      dup2\n      0xffffffffffffffffffffffffffffffffffffffff\n      mul\n      not\n      and\n      swap1\n      dup4\n      0xffffffffffffffffffffffffffffffffffffffff\n      and\n      mul\n      or\n      swap1\n      sstore\n      pop\n        /* \"inviter_presell/adminable.sol\":1617:1625  newOwner */\n      dup2\n        /* \"inviter_presell/adminable.sol\":1586:1626  OwnershipTransferred(oldOwner, newOwner) */\n      0xffffffffffffffffffffffffffffffffffffffff\n      and\n        /* \"inviter_presell/adminable.sol\":1607:1615  oldOwner */\n      dup2\n        /* \"inviter_presell/adminable.sol\":1586:1626  OwnershipTransferred(oldOwner, newOwner) */\n      0xffffffffffffffffffffffffffffffffffffffff\n      and\n      0x8be0079c531659141344cd1fd0a4f28419497f9722a3daafe3b4186f6b6457e0\n      mload(0x40)\n      mload(0x40)\n      dup1\n      swap2\n      sub\n      swap1\n      log3\n        /* \"inviter_presell/adminable.sol\":1506:1634  {... */\n      pop\n        /* \"inviter_presell/adminable.sol\":1443:1634  function _transferOwnership(address newOwner) internal virtual {... */\n      pop\n      jump\t// out\n        /* \"inviter_presell/stake.sol\":3848:4070  function _getRewardRate(uint256 time) private view returns (uint256) {... */\n    tag_312:\n        /* \"inviter_presell/stake.sol\":3908:3915  uint256 */\n      0x00\n        /* \"inviter_presell/stake.sol\":3928:3949  uint256 curPoolAmount */\n      dup1\n        /* \"inviter_presell/stake.sol\":3952:3971  getRewardPool(time) */\n      tag_381\n        /* \"inviter_presell/stake.sol\":3966:3970  time */\n      dup4\n        /* \"inviter_presell/stake.sol\":3952:3965  getRewardPool */\n      tag_81\n        /* \"inviter_presell/stake.sol\":3952:3971  getRewardPool(time) */\n      jump\t// in\n    tag_381:\n        /* \"inviter_presell/stake.sol\":3928:3971  uint256 curPoolAmount = getRewardPool(time) */\n      swap1\n      pop\n        /* \"inviter_presell/stake.sol\":3982:4000  uint256 rewardRate */\n      0x00\n        /* \"inviter_presell/stake.sol\":4003:4034  curPoolAmount.div(rateInterval) */\n      tag_382\n        /* \"inviter_presell/stake.sol\":4021:4033  rateInterval */\n      sload(0x07)\n        /* \"inviter_presell/stake.sol\":4003:4016  curPoolAmount */\n      dup4\n        /* \"inviter_presell/stake.sol\":4003:4020  curPoolAmount.div */\n      tag_171\n      swap1\n        /* \"inviter_presell/stake.sol\":4003:4034  curPoolAmount.div(rateInterval) */\n      swap2\n      swap1\n      0xffffffff\n      and\n      jump\t// in\n    tag_382:\n        /* \"inviter_presell/stake.sol\":3982:4034  uint256 rewardRate = curPoolAmount.div(rateInterval) */\n      swap1\n      pop\n        /* \"inviter_presell/stake.sol\":4052:4062  rewardRate */\n      dup1\n        /* \"inviter_presell/stake.sol\":4045:4062  return rewardRate */\n      swap3\n      pop\n      pop\n      pop\n        /* \"inviter_presell/stake.sol\":3848:4070  function _getRewardRate(uint256 time) private view returns (uint256) {... */\n      swap2\n      swap1\n      pop\n      jump\t// out\n        /* \"#utility.yul\":88:205   */\n    tag_384:\n        /* \"#utility.yul\":197:198   */\n      0x00\n        /* \"#utility.yul\":194:195   */\n      dup1\n        /* \"#utility.yul\":187:199   */\n      revert\n        /* \"#utility.yul\":334:460   */\n    tag_386:\n        /* \"#utility.yul\":371:378   */\n      0x00\n        /* \"#utility.yul\":411:453   */\n      0xffffffffffffffffffffffffffffffffffffffff\n        /* \"#utility.yul\":404:409   */\n      dup3\n        /* \"#utility.yul\":400:454   */\n      and\n        /* \"#utility.yul\":389:454   */\n      swap1\n      pop\n        /* \"#utility.yul\":334:460   */\n      swap2\n      swap1\n      pop\n      jump\t// out\n        /* \"#utility.yul\":466:562   */\n    tag_387:\n        /* \"#utility.yul\":503:510   */\n      0x00\n        /* \"#utility.yul\":532:556   */\n      tag_424\n        /* \"#utility.yul\":550:555   */\n      dup3\n        /* \"#utility.yul\":532:556   */\n      tag_386\n      jump\t// in\n    tag_424:\n        /* \"#utility.yul\":521:556   */\n      swap1\n      pop\n        /* \"#utility.yul\":466:562   */\n      swap2\n      swap1\n      pop\n      jump\t// out\n        /* \"#utility.yul\":568:690   */\n    tag_388:\n        /* \"#utility.yul\":641:665   */\n      tag_426\n        /* \"#utility.yul\":659:664   */\n      dup2\n        /* \"#utility.yul\":641:665   */\n      tag_387\n      jump\t// in\n    tag_426:\n        /* \"#utility.yul\":634:639   */\n      dup2\n        /* \"#utility.yul\":631:666   */\n      eq\n        /* \"#utility.yul\":621:684   */\n      tag_427\n      jumpi\n        /* \"#utility.yul\":680:681   */\n      0x00\n        /* \"#utility.yul\":677:678   */\n      dup1\n        /* \"#utility.yul\":670:682   */\n      revert\n        /* \"#utility.yul\":621:684   */\n    tag_427:\n        /* \"#utility.yul\":568:690   */\n      pop\n      jump\t// out\n        /* \"#utility.yul\":696:835   */\n    tag_389:\n        /* \"#utility.yul\":742:747   */\n      0x00\n        /* \"#utility.yul\":780:786   */\n      dup2\n        /* \"#utility.yul\":767:787   */\n      calldataload\n        /* \"#utility.yul\":758:787   */\n      swap1\n      pop\n        /* \"#utility.yul\":796:829   */\n      tag_429\n        /* \"#utility.yul\":823:828   */\n      dup2\n        /* \"#utility.yul\":796:829   */\n      tag_388\n      jump\t// in\n    tag_429:\n        /* \"#utility.yul\":696:835   */\n      swap3\n      swap2\n      pop\n      pop\n      jump\t// out\n        /* \"#utility.yul\":841:1170   */\n    tag_46:\n        /* \"#utility.yul\":900:906   */\n      0x00\n        /* \"#utility.yul\":949:951   */\n      0x20\n        /* \"#utility.yul\":937:946   */\n      dup3\n        /* \"#utility.yul\":928:935   */\n      dup5\n        /* \"#utility.yul\":924:947   */\n      sub\n        /* \"#utility.yul\":920:952   */\n      slt\n        /* \"#utility.yul\":917:1036   */\n      iszero\n      tag_431\n      jumpi\n        /* \"#utility.yul\":955:1034   */\n      tag_432\n      tag_384\n      jump\t// in\n    tag_432:\n        /* \"#utility.yul\":917:1036   */\n    tag_431:\n        /* \"#utility.yul\":1075:1076   */\n      0x00\n        /* \"#utility.yul\":1100:1153   */\n      tag_433\n        /* \"#utility.yul\":1145:1152   */\n      dup5\n        /* \"#utility.yul\":1136:1142   */\n      dup3\n        /* \"#utility.yul\":1125:1134   */\n      dup6\n        /* \"#utility.yul\":1121:1143   */\n      add\n        /* \"#utility.yul\":1100:1153   */\n      tag_389\n      jump\t// in\n    tag_433:\n        /* \"#utility.yul\":1090:1153   */\n      swap2\n      pop\n        /* \"#utility.yul\":1046:1163   */\n      pop\n        /* \"#utility.yul\":841:1170   */\n      swap3\n      swap2\n      pop\n      pop\n      jump\t// out\n        /* \"#utility.yul\":1176:1253   */\n    tag_390:\n        /* \"#utility.yul\":1213:1220   */\n      0x00\n        /* \"#utility.yul\":1242:1247   */\n      dup2\n        /* \"#utility.yul\":1231:1247   */\n      swap1\n      pop\n        /* \"#utility.yul\":1176:1253   */\n      swap2\n      swap1\n      pop\n      jump\t// out\n        /* \"#utility.yul\":1259:1377   */\n    tag_391:\n        /* \"#utility.yul\":1346:1370   */\n      tag_436\n        /* \"#utility.yul\":1364:1369   */\n      dup2\n        /* \"#utility.yul\":1346:1370   */\n      tag_390\n      jump\t// in\n    tag_436:\n        /* \"#utility.yul\":1341:1344   */\n      dup3\n        /* \"#utility.yul\":1334:1371   */\n      mstore\n        /* \"#utility.yul\":1259:1377   */\n      pop\n      pop\n      jump\t// out\n        /* \"#utility.yul\":1383:1605   */\n    tag_49:\n        /* \"#utility.yul\":1476:1480   */\n      0x00\n        /* \"#utility.yul\":1514:1516   */\n      0x20\n        /* \"#utility.yul\":1503:1512   */\n      dup3\n        /* \"#utility.yul\":1499:1517   */\n      add\n        /* \"#utility.yul\":1491:1517   */\n      swap1\n      pop\n        /* \"#utility.yul\":1527:1598   */\n      tag_438\n        /* \"#utility.yul\":1595:1596   */\n      0x00\n        /* \"#utility.yul\":1584:1593   */\n      dup4\n        /* \"#utility.yul\":1580:1597   */\n      add\n        /* \"#utility.yul\":1571:1577   */\n      dup5\n        /* \"#utility.yul\":1527:1598   */\n      tag_391\n      jump\t// in\n    tag_438:\n        /* \"#utility.yul\":1383:1605   */\n      swap3\n      swap2\n      pop\n      pop\n      jump\t// out\n        /* \"#utility.yul\":1611:1701   */\n    tag_392:\n        /* \"#utility.yul\":1645:1652   */\n      0x00\n        /* \"#utility.yul\":1688:1693   */\n      dup2\n        /* \"#utility.yul\":1681:1694   */\n      iszero\n        /* \"#utility.yul\":1674:1695   */\n      iszero\n        /* \"#utility.yul\":1663:1695   */\n      swap1\n      pop\n        /* \"#utility.yul\":1611:1701   */\n      swap2\n      swap1\n      pop\n      jump\t// out\n        /* \"#utility.yul\":1707:1823   */\n    tag_393:\n        /* \"#utility.yul\":1777:1798   */\n      tag_441\n        /* \"#utility.yul\":1792:1797   */\n      dup2\n        /* \"#utility.yul\":1777:1798   */\n      tag_392\n      jump\t// in\n    tag_441:\n        /* \"#utility.yul\":1770:1775   */\n      dup2\n        /* \"#utility.yul\":1767:1799   */\n      eq\n        /* \"#utility.yul\":1757:1817   */\n      tag_442\n      jumpi\n        /* \"#utility.yul\":1813:1814   */\n      0x00\n        /* \"#utility.yul\":1810:1811   */\n      dup1\n        /* \"#utility.yul\":1803:1815   */\n      revert\n        /* \"#utility.yul\":1757:1817   */\n    tag_442:\n        /* \"#utility.yul\":1707:1823   */\n      pop\n      jump\t// out\n        /* \"#utility.yul\":1829:1962   */\n    tag_394:\n        /* \"#utility.yul\":1872:1877   */\n      0x00\n        /* \"#utility.yul\":1910:1916   */\n      dup2\n        /* \"#utility.yul\":1897:1917   */\n      calldataload\n        /* \"#utility.yul\":1888:1917   */\n      swap1\n      pop\n        /* \"#utility.yul\":1926:1956   */\n      tag_444\n        /* \"#utility.yul\":1950:1955   */\n      dup2\n        /* \"#utility.yul\":1926:1956   */\n      tag_393\n      jump\t// in\n    tag_444:\n        /* \"#utility.yul\":1829:1962   */\n      swap3\n      swap2\n      pop\n      pop\n      jump\t// out\n        /* \"#utility.yul\":1968:2436   */\n    tag_59:\n        /* \"#utility.yul\":2033:2039   */\n      0x00\n        /* \"#utility.yul\":2041:2047   */\n      dup1\n        /* \"#utility.yul\":2090:2092   */\n      0x40\n        /* \"#utility.yul\":2078:2087   */\n      dup4\n        /* \"#utility.yul\":2069:2076   */\n      dup6\n        /* \"#utility.yul\":2065:2088   */\n      sub\n        /* \"#utility.yul\":2061:2093   */\n      slt\n        /* \"#utility.yul\":2058:2177   */\n      iszero\n      tag_446\n      jumpi\n        /* \"#utility.yul\":2096:2175   */\n      tag_447\n      tag_384\n      jump\t// in\n    tag_447:\n        /* \"#utility.yul\":2058:2177   */\n    tag_446:\n        /* \"#utility.yul\":2216:2217   */\n      0x00\n        /* \"#utility.yul\":2241:2294   */\n      tag_448\n        /* \"#utility.yul\":2286:2293   */\n      dup6\n        /* \"#utility.yul\":2277:2283   */\n      dup3\n        /* \"#utility.yul\":2266:2275   */\n      dup7\n        /* \"#utility.yul\":2262:2284   */\n      add\n        /* \"#utility.yul\":2241:2294   */\n      tag_389\n      jump\t// in\n    tag_448:\n        /* \"#utility.yul\":2231:2294   */\n      swap3\n      pop\n        /* \"#utility.yul\":2187:2304   */\n      pop\n        /* \"#utility.yul\":2343:2345   */\n      0x20\n        /* \"#utility.yul\":2369:2419   */\n      tag_449\n        /* \"#utility.yul\":2411:2418   */\n      dup6\n        /* \"#utility.yul\":2402:2408   */\n      dup3\n        /* \"#utility.yul\":2391:2400   */\n      dup7\n        /* \"#utility.yul\":2387:2409   */\n      add\n        /* \"#utility.yul\":2369:2419   */\n      tag_394\n      jump\t// in\n    tag_449:\n        /* \"#utility.yul\":2359:2419   */\n      swap2\n      pop\n        /* \"#utility.yul\":2314:2429   */\n      pop\n        /* \"#utility.yul\":1968:2436   */\n      swap3\n      pop\n      swap3\n      swap1\n      pop\n      jump\t// out\n        /* \"#utility.yul\":2442:2551   */\n    tag_395:\n        /* \"#utility.yul\":2523:2544   */\n      tag_451\n        /* \"#utility.yul\":2538:2543   */\n      dup2\n        /* \"#utility.yul\":2523:2544   */\n      tag_392\n      jump\t// in\n    tag_451:\n        /* \"#utility.yul\":2518:2521   */\n      dup3\n        /* \"#utility.yul\":2511:2545   */\n      mstore\n        /* \"#utility.yul\":2442:2551   */\n      pop\n      pop\n      jump\t// out\n        /* \"#utility.yul\":2557:2767   */\n    tag_65:\n        /* \"#utility.yul\":2644:2648   */\n      0x00\n        /* \"#utility.yul\":2682:2684   */\n      0x20\n        /* \"#utility.yul\":2671:2680   */\n      dup3\n        /* \"#utility.yul\":2667:2685   */\n      add\n        /* \"#utility.yul\":2659:2685   */\n      swap1\n      pop\n        /* \"#utility.yul\":2695:2760   */\n      tag_453\n        /* \"#utility.yul\":2757:2758   */\n      0x00\n        /* \"#utility.yul\":2746:2755   */\n      dup4\n        /* \"#utility.yul\":2742:2759   */\n      add\n        /* \"#utility.yul\":2733:2739   */\n      dup5\n        /* \"#utility.yul\":2695:2760   */\n      tag_395\n      jump\t// in\n    tag_453:\n        /* \"#utility.yul\":2557:2767   */\n      swap3\n      swap2\n      pop\n      pop\n      jump\t// out\n        /* \"#utility.yul\":2773:2895   */\n    tag_396:\n        /* \"#utility.yul\":2846:2870   */\n      tag_455\n        /* \"#utility.yul\":2864:2869   */\n      dup2\n        /* \"#utility.yul\":2846:2870   */\n      tag_390\n      jump\t// in\n    tag_455:\n        /* \"#utility.yul\":2839:2844   */\n      dup2\n        /* \"#utility.yul\":2836:2871   */\n      eq\n        /* \"#utility.yul\":2826:2889   */\n      tag_456\n      jumpi\n        /* \"#utility.yul\":2885:2886   */\n      0x00\n        /* \"#utility.yul\":2882:2883   */\n      dup1\n        /* \"#utility.yul\":2875:2887   */\n      revert\n        /* \"#utility.yul\":2826:2889   */\n    tag_456:\n        /* \"#utility.yul\":2773:2895   */\n      pop\n      jump\t// out\n        /* \"#utility.yul\":2901:3040   */\n    tag_397:\n        /* \"#utility.yul\":2947:2952   */\n      0x00\n        /* \"#utility.yul\":2985:2991   */\n      dup2\n        /* \"#utility.yul\":2972:2992   */\n      calldataload\n        /* \"#utility.yul\":2963:2992   */\n      swap1\n      pop\n        /* \"#utility.yul\":3001:3034   */\n      tag_458\n        /* \"#utility.yul\":3028:3033   */\n      dup2\n        /* \"#utility.yul\":3001:3034   */\n      tag_396\n      jump\t// in\n    tag_458:\n        /* \"#utility.yul\":2901:3040   */\n      swap3\n      swap2\n      pop\n      pop\n      jump\t// out\n        /* \"#utility.yul\":3046:3375   */\n    tag_73:\n        /* \"#utility.yul\":3105:3111   */\n      0x00\n        /* \"#utility.yul\":3154:3156   */\n      0x20\n        /* \"#utility.yul\":3142:3151   */\n      dup3\n        /* \"#utility.yul\":3133:3140   */\n      dup5\n        /* \"#utility.yul\":3129:3152   */\n      sub\n        /* \"#utility.yul\":3125:3157   */\n      slt\n        /* \"#utility.yul\":3122:3241   */\n      iszero\n      tag_460\n      jumpi\n        /* \"#utility.yul\":3160:3239   */\n      tag_461\n      tag_384\n      jump\t// in\n    tag_461:\n        /* \"#utility.yul\":3122:3241   */\n    tag_460:\n        /* \"#utility.yul\":3280:3281   */\n      0x00\n        /* \"#utility.yul\":3305:3358   */\n      tag_462\n        /* \"#utility.yul\":3350:3357   */\n      dup5\n        /* \"#utility.yul\":3341:3347   */\n      dup3\n        /* \"#utility.yul\":3330:3339   */\n      dup6\n        /* \"#utility.yul\":3326:3348   */\n      add\n        /* \"#utility.yul\":3305:3358   */\n      tag_397\n      jump\t// in\n    tag_462:\n        /* \"#utility.yul\":3295:3358   */\n      swap2\n      pop\n        /* \"#utility.yul\":3251:3368   */\n      pop\n        /* \"#utility.yul\":3046:3375   */\n      swap3\n      swap2\n      pop\n      pop\n      jump\t// out\n        /* \"#utility.yul\":3381:3499   */\n    tag_398:\n        /* \"#utility.yul\":3468:3492   */\n      tag_464\n        /* \"#utility.yul\":3486:3491   */\n      dup2\n        /* \"#utility.yul\":3468:3492   */\n      tag_387\n      jump\t// in\n    tag_464:\n        /* \"#utility.yul\":3463:3466   */\n      dup3\n        /* \"#utility.yul\":3456:3493   */\n      mstore\n        /* \"#utility.yul\":3381:3499   */\n      pop\n      pop\n      jump\t// out\n        /* \"#utility.yul\":3505:3727   */\n    tag_121:\n        /* \"#utility.yul\":3598:3602   */\n      0x00\n        /* \"#utility.yul\":3636:3638   */\n      0x20\n        /* \"#utility.yul\":3625:3634   */\n      dup3\n        /* \"#utility.yul\":3621:3639   */\n      add\n        /* \"#utility.yul\":3613:3639   */\n      swap1\n      pop\n        /* \"#utility.yul\":3649:3720   */\n      tag_466\n        /* \"#utility.yul\":3717:3718   */\n      0x00\n        /* \"#utility.yul\":3706:3715   */\n      dup4\n        /* \"#utility.yul\":3702:3719   */\n      add\n        /* \"#utility.yul\":3693:3699   */\n      dup5\n        /* \"#utility.yul\":3649:3720   */\n      tag_398\n      jump\t// in\n    tag_466:\n        /* \"#utility.yul\":3505:3727   */\n      swap3\n      swap2\n      pop\n      pop\n      jump\t// out\n        /* \"#utility.yul\":3733:4207   */\n    tag_130:\n        /* \"#utility.yul\":3801:3807   */\n      0x00\n        /* \"#utility.yul\":3809:3815   */\n      dup1\n        /* \"#utility.yul\":3858:3860   */\n      0x40\n        /* \"#utility.yul\":3846:3855   */\n      dup4\n        /* \"#utility.yul\":3837:3844   */\n      dup6\n        /* \"#utility.yul\":3833:3856   */\n      sub\n        /* \"#utility.yul\":3829:3861   */\n      slt\n        /* \"#utility.yul\":3826:3945   */\n      iszero\n      tag_468\n      jumpi\n        /* \"#utility.yul\":3864:3943   */\n      tag_469\n      tag_384\n      jump\t// in\n    tag_469:\n        /* \"#utility.yul\":3826:3945   */\n    tag_468:\n        /* \"#utility.yul\":3984:3985   */\n      0x00\n        /* \"#utility.yul\":4009:4062   */\n      tag_470\n        /* \"#utility.yul\":4054:4061   */\n      dup6\n        /* \"#utility.yul\":4045:4051   */\n      dup3\n        /* \"#utility.yul\":4034:4043   */\n      dup7\n        /* \"#utility.yul\":4030:4052   */\n      add\n        /* \"#utility.yul\":4009:4062   */\n      tag_389\n      jump\t// in\n    tag_470:\n        /* \"#utility.yul\":3999:4062   */\n      swap3\n      pop\n        /* \"#utility.yul\":3955:4072   */\n      pop\n        /* \"#utility.yul\":4111:4113   */\n      0x20\n        /* \"#utility.yul\":4137:4190   */\n      tag_471\n        /* \"#utility.yul\":4182:4189   */\n      dup6\n        /* \"#utility.yul\":4173:4179   */\n      dup3\n        /* \"#utility.yul\":4162:4171   */\n      dup7\n        /* \"#utility.yul\":4158:4180   */\n      add\n        /* \"#utility.yul\":4137:4190   */\n      tag_397\n      jump\t// in\n    tag_471:\n        /* \"#utility.yul\":4127:4190   */\n      swap2\n      pop\n        /* \"#utility.yul\":4082:4200   */\n      pop\n        /* \"#utility.yul\":3733:4207   */\n      swap3\n      pop\n      swap3\n      swap1\n      pop\n      jump\t// out\n        /* \"#utility.yul\":4213:4273   */\n    tag_399:\n        /* \"#utility.yul\":4241:4244   */\n      0x00\n        /* \"#utility.yul\":4262:4267   */\n      dup2\n        /* \"#utility.yul\":4255:4267   */\n      swap1\n      pop\n        /* \"#utility.yul\":4213:4273   */\n      swap2\n      swap1\n      pop\n      jump\t// out\n        /* \"#utility.yul\":4279:4421   */\n    tag_400:\n        /* \"#utility.yul\":4329:4338   */\n      0x00\n        /* \"#utility.yul\":4362:4415   */\n      tag_474\n        /* \"#utility.yul\":4380:4414   */\n      tag_475\n        /* \"#utility.yul\":4389:4413   */\n      tag_476\n        /* \"#utility.yul\":4407:4412   */\n      dup5\n        /* \"#utility.yul\":4389:4413   */\n      tag_386\n      jump\t// in\n    tag_476:\n        /* \"#utility.yul\":4380:4414   */\n      tag_399\n      jump\t// in\n    tag_475:\n        /* \"#utility.yul\":4362:4415   */\n      tag_386\n      jump\t// in\n    tag_474:\n        /* \"#utility.yul\":4349:4415   */\n      swap1\n      pop\n        /* \"#utility.yul\":4279:4421   */\n      swap2\n      swap1\n      pop\n      jump\t// out\n        /* \"#utility.yul\":4427:4553   */\n    tag_401:\n        /* \"#utility.yul\":4477:4486   */\n      0x00\n        /* \"#utility.yul\":4510:4547   */\n      tag_478\n        /* \"#utility.yul\":4541:4546   */\n      dup3\n        /* \"#utility.yul\":4510:4547   */\n      tag_400\n      jump\t// in\n    tag_478:\n        /* \"#utility.yul\":4497:4547   */\n      swap1\n      pop\n        /* \"#utility.yul\":4427:4553   */\n      swap2\n      swap1\n      pop\n      jump\t// out\n        /* \"#utility.yul\":4559:4700   */\n    tag_402:\n        /* \"#utility.yul\":4624:4633   */\n      0x00\n        /* \"#utility.yul\":4657:4694   */\n      tag_480\n        /* \"#utility.yul\":4688:4693   */\n      dup3\n        /* \"#utility.yul\":4657:4694   */\n      tag_401\n      jump\t// in\n    tag_480:\n        /* \"#utility.yul\":4644:4694   */\n      swap1\n      pop\n        /* \"#utility.yul\":4559:4700   */\n      swap2\n      swap1\n      pop\n      jump\t// out\n        /* \"#utility.yul\":4706:4867   */\n    tag_403:\n        /* \"#utility.yul\":4808:4860   */\n      tag_482\n        /* \"#utility.yul\":4854:4859   */\n      dup2\n        /* \"#utility.yul\":4808:4860   */\n      tag_402\n      jump\t// in\n    tag_482:\n        /* \"#utility.yul\":4803:4806   */\n      dup3\n        /* \"#utility.yul\":4796:4861   */\n      mstore\n        /* \"#utility.yul\":4706:4867   */\n      pop\n      pop\n      jump\t// out\n        /* \"#utility.yul\":4873:5125   */\n    tag_148:\n        /* \"#utility.yul\":4981:4985   */\n      0x00\n        /* \"#utility.yul\":5019:5021   */\n      0x20\n        /* \"#utility.yul\":5008:5017   */\n      dup3\n        /* \"#utility.yul\":5004:5022   */\n      add\n        /* \"#utility.yul\":4996:5022   */\n      swap1\n      pop\n        /* \"#utility.yul\":5032:5118   */\n      tag_484\n        /* \"#utility.yul\":5115:5116   */\n      0x00\n        /* \"#utility.yul\":5104:5113   */\n      dup4\n        /* \"#utility.yul\":5100:5117   */\n      add\n        /* \"#utility.yul\":5091:5097   */\n      dup5\n        /* \"#utility.yul\":5032:5118   */\n      tag_403\n      jump\t// in\n    tag_484:\n        /* \"#utility.yul\":4873:5125   */\n      swap3\n      swap2\n      pop\n      pop\n      jump\t// out\n        /* \"#utility.yul\":5131:5605   */\n    tag_151:\n        /* \"#utility.yul\":5199:5205   */\n      0x00\n        /* \"#utility.yul\":5207:5213   */\n      dup1\n        /* \"#utility.yul\":5256:5258   */\n      0x40\n        /* \"#utility.yul\":5244:5253   */\n      dup4\n        /* \"#utility.yul\":5235:5242   */\n      dup6\n        /* \"#utility.yul\":5231:5254   */\n      sub\n        /* \"#utility.yul\":5227:5259   */\n      slt\n        /* \"#utility.yul\":5224:5343   */\n      iszero\n      tag_486\n      jumpi\n        /* \"#utility.yul\":5262:5341   */\n      tag_487\n      tag_384\n      jump\t// in\n    tag_487:\n        /* \"#utility.yul\":5224:5343   */\n    tag_486:\n        /* \"#utility.yul\":5382:5383   */\n      0x00\n        /* \"#utility.yul\":5407:5460   */\n      tag_488\n        /* \"#utility.yul\":5452:5459   */\n      dup6\n        /* \"#utility.yul\":5443:5449   */\n      dup3\n        /* \"#utility.yul\":5432:5441   */\n      dup7\n        /* \"#utility.yul\":5428:5450   */\n      add\n        /* \"#utility.yul\":5407:5460   */\n      tag_397\n      jump\t// in\n    tag_488:\n        /* \"#utility.yul\":5397:5460   */\n      swap3\n      pop\n        /* \"#utility.yul\":5353:5470   */\n      pop\n        /* \"#utility.yul\":5509:5511   */\n      0x20\n        /* \"#utility.yul\":5535:5588   */\n      tag_489\n        /* \"#utility.yul\":5580:5587   */\n      dup6\n        /* \"#utility.yul\":5571:5577   */\n      dup3\n        /* \"#utility.yul\":5560:5569   */\n      dup7\n        /* \"#utility.yul\":5556:5578   */\n      add\n        /* \"#utility.yul\":5535:5588   */\n      tag_397\n      jump\t// in\n    tag_489:\n        /* \"#utility.yul\":5525:5588   */\n      swap2\n      pop\n        /* \"#utility.yul\":5480:5598   */\n      pop\n        /* \"#utility.yul\":5131:5605   */\n      swap3\n      pop\n      swap3\n      swap1\n      pop\n      jump\t// out\n        /* \"#utility.yul\":5611:5780   */\n    tag_404:\n        /* \"#utility.yul\":5695:5706   */\n      0x00\n        /* \"#utility.yul\":5729:5735   */\n      dup3\n        /* \"#utility.yul\":5724:5727   */\n      dup3\n        /* \"#utility.yul\":5717:5736   */\n      mstore\n        /* \"#utility.yul\":5769:5773   */\n      0x20\n        /* \"#utility.yul\":5764:5767   */\n      dup3\n        /* \"#utility.yul\":5760:5774   */\n      add\n        /* \"#utility.yul\":5745:5774   */\n      swap1\n      pop\n        /* \"#utility.yul\":5611:5780   */\n      swap3\n      swap2\n      pop\n      pop\n      jump\t// out\n        /* \"#utility.yul\":5786:6007   */\n    tag_405:\n        /* \"#utility.yul\":5926:5960   */\n      0x41646d696e61626c653a2063616c6c6572206973206e6f7420746865206f776e\n        /* \"#utility.yul\":5922:5923   */\n      0x00\n        /* \"#utility.yul\":5914:5920   */\n      dup3\n        /* \"#utility.yul\":5910:5924   */\n      add\n        /* \"#utility.yul\":5903:5961   */\n      mstore\n        /* \"#utility.yul\":5995:5999   */\n      0x6572000000000000000000000000000000000000000000000000000000000000\n        /* \"#utility.yul\":5990:5992   */\n      0x20\n        /* \"#utility.yul\":5982:5988   */\n      dup3\n        /* \"#utility.yul\":5978:5993   */\n      add\n        /* \"#utility.yul\":5971:6000   */\n      mstore\n        /* \"#utility.yul\":5786:6007   */\n      pop\n      jump\t// out\n        /* \"#utility.yul\":6013:6379   */\n    tag_406:\n        /* \"#utility.yul\":6155:6158   */\n      0x00\n        /* \"#utility.yul\":6176:6243   */\n      tag_493\n        /* \"#utility.yul\":6240:6242   */\n      0x22\n        /* \"#utility.yul\":6235:6238   */\n      dup4\n        /* \"#utility.yul\":6176:6243   */\n      tag_404\n      jump\t// in\n    tag_493:\n        /* \"#utility.yul\":6169:6243   */\n      swap2\n      pop\n        /* \"#utility.yul\":6252:6345   */\n      tag_494\n        /* \"#utility.yul\":6341:6344   */\n      dup3\n        /* \"#utility.yul\":6252:6345   */\n      tag_405\n      jump\t// in\n    tag_494:\n        /* \"#utility.yul\":6370:6372   */\n      0x40\n        /* \"#utility.yul\":6365:6368   */\n      dup3\n        /* \"#utility.yul\":6361:6373   */\n      add\n        /* \"#utility.yul\":6354:6373   */\n      swap1\n      pop\n        /* \"#utility.yul\":6013:6379   */\n      swap2\n      swap1\n      pop\n      jump\t// out\n        /* \"#utility.yul\":6385:6804   */\n    tag_179:\n        /* \"#utility.yul\":6551:6555   */\n      0x00\n        /* \"#utility.yul\":6589:6591   */\n      0x20\n        /* \"#utility.yul\":6578:6587   */\n      dup3\n        /* \"#utility.yul\":6574:6592   */\n      add\n        /* \"#utility.yul\":6566:6592   */\n      swap1\n      pop\n        /* \"#utility.yul\":6638:6647   */\n      dup2\n        /* \"#utility.yul\":6632:6636   */\n      dup2\n        /* \"#utility.yul\":6628:6648   */\n      sub\n        /* \"#utility.yul\":6624:6625   */\n      0x00\n        /* \"#utility.yul\":6613:6622   */\n      dup4\n        /* \"#utility.yul\":6609:6626   */\n      add\n        /* \"#utility.yul\":6602:6649   */\n      mstore\n        /* \"#utility.yul\":6666:6797   */\n      tag_496\n        /* \"#utility.yul\":6792:6796   */\n      dup2\n        /* \"#utility.yul\":6666:6797   */\n      tag_406\n      jump\t// in\n    tag_496:\n        /* \"#utility.yul\":6658:6797   */\n      swap1\n      pop\n        /* \"#utility.yul\":6385:6804   */\n      swap2\n      swap1\n      pop\n      jump\t// out\n        /* \"#utility.yul\":6810:7118   */\n    tag_182:\n        /* \"#utility.yul\":6919:6923   */\n      0x00\n        /* \"#utility.yul\":6957:6959   */\n      0x40\n        /* \"#utility.yul\":6946:6955   */\n      dup3\n        /* \"#utility.yul\":6942:6960   */\n      add\n        /* \"#utility.yul\":6934:6960   */\n      swap1\n      pop\n        /* \"#utility.yul\":6970:7035   */\n      tag_498\n        /* \"#utility.yul\":7032:7033   */\n      0x00\n        /* \"#utility.yul\":7021:7030   */\n      dup4\n        /* \"#utility.yul\":7017:7034   */\n      add\n        /* \"#utility.yul\":7008:7014   */\n      dup6\n        /* \"#utility.yul\":6970:7035   */\n      tag_395\n      jump\t// in\n    tag_498:\n        /* \"#utility.yul\":7045:7111   */\n      tag_499\n        /* \"#utility.yul\":7107:7109   */\n      0x20\n        /* \"#utility.yul\":7096:7105   */\n      dup4\n        /* \"#utility.yul\":7092:7110   */\n      add\n        /* \"#utility.yul\":7083:7089   */\n      dup5\n        /* \"#utility.yul\":7045:7111   */\n      tag_395\n      jump\t// in\n    tag_499:\n        /* \"#utility.yul\":6810:7118   */\n      swap4\n      swap3\n      pop\n      pop\n      pop\n      jump\t// out\n        /* \"#utility.yul\":7124:7305   */\n    tag_407:\n        /* \"#utility.yul\":7264:7297   */\n      0x5265656e7472616e637947756172643a207265656e7472616e742063616c6c00\n        /* \"#utility.yul\":7260:7261   */\n      0x00\n        /* \"#utility.yul\":7252:7258   */\n      dup3\n        /* \"#utility.yul\":7248:7262   */\n      add\n        /* \"#utility.yul\":7241:7298   */\n      mstore\n        /* \"#utility.yul\":7124:7305   */\n      pop\n      jump\t// out\n        /* \"#utility.yul\":7311:7677   */\n    tag_408:\n        /* \"#utility.yul\":7453:7456   */\n      0x00\n        /* \"#utility.yul\":7474:7541   */\n      tag_502\n        /* \"#utility.yul\":7538:7540   */\n      0x1f\n        /* \"#utility.yul\":7533:7536   */\n      dup4\n        /* \"#utility.yul\":7474:7541   */\n      tag_404\n      jump\t// in\n    tag_502:\n        /* \"#utility.yul\":7467:7541   */\n      swap2\n      pop\n        /* \"#utility.yul\":7550:7643   */\n      tag_503\n        /* \"#utility.yul\":7639:7642   */\n      dup3\n        /* \"#utility.yul\":7550:7643   */\n      tag_407\n      jump\t// in\n    tag_503:\n        /* \"#utility.yul\":7668:7670   */\n      0x20\n        /* \"#utility.yul\":7663:7666   */\n      dup3\n        /* \"#utility.yul\":7659:7671   */\n      add\n        /* \"#utility.yul\":7652:7671   */\n      swap1\n      pop\n        /* \"#utility.yul\":7311:7677   */\n      swap2\n      swap1\n      pop\n      jump\t// out\n        /* \"#utility.yul\":7683:8102   */\n    tag_187:\n        /* \"#utility.yul\":7849:7853   */\n      0x00\n        /* \"#utility.yul\":7887:7889   */\n      0x20\n        /* \"#utility.yul\":7876:7885   */\n      dup3\n        /* \"#utility.yul\":7872:7890   */\n      add\n        /* \"#utility.yul\":7864:7890   */\n      swap1\n      pop\n        /* \"#utility.yul\":7936:7945   */\n      dup2\n        /* \"#utility.yul\":7930:7934   */\n      dup2\n        /* \"#utility.yul\":7926:7946   */\n      sub\n        /* \"#utility.yul\":7922:7923   */\n      0x00\n        /* \"#utility.yul\":7911:7920   */\n      dup4\n        /* \"#utility.yul\":7907:7924   */\n      add\n        /* \"#utility.yul\":7900:7947   */\n      mstore\n        /* \"#utility.yul\":7964:8095   */\n      tag_505\n        /* \"#utility.yul\":8090:8094   */\n      dup2\n        /* \"#utility.yul\":7964:8095   */\n      tag_408\n      jump\t// in\n    tag_505:\n        /* \"#utility.yul\":7956:8095   */\n      swap1\n      pop\n        /* \"#utility.yul\":7683:8102   */\n      swap2\n      swap1\n      pop\n      jump\t// out\n        /* \"#utility.yul\":8108:8440   */\n    tag_198:\n        /* \"#utility.yul\":8229:8233   */\n      0x00\n        /* \"#utility.yul\":8267:8269   */\n      0x40\n        /* \"#utility.yul\":8256:8265   */\n      dup3\n        /* \"#utility.yul\":8252:8270   */\n      add\n        /* \"#utility.yul\":8244:8270   */\n      swap1\n      pop\n        /* \"#utility.yul\":8280:8351   */\n      tag_507\n        /* \"#utility.yul\":8348:8349   */\n      0x00\n        /* \"#utility.yul\":8337:8346   */\n      dup4\n        /* \"#utility.yul\":8333:8350   */\n      add\n        /* \"#utility.yul\":8324:8330   */\n      dup6\n        /* \"#utility.yul\":8280:8351   */\n      tag_398\n      jump\t// in\n    tag_507:\n        /* \"#utility.yul\":8361:8433   */\n      tag_508\n        /* \"#utility.yul\":8429:8431   */\n      0x20\n        /* \"#utility.yul\":8418:8427   */\n      dup4\n        /* \"#utility.yul\":8414:8432   */\n      add\n        /* \"#utility.yul\":8405:8411   */\n      dup5\n        /* \"#utility.yul\":8361:8433   */\n      tag_391\n      jump\t// in\n    tag_508:\n        /* \"#utility.yul\":8108:8440   */\n      swap4\n      swap3\n      pop\n      pop\n      pop\n      jump\t// out\n        /* \"#utility.yul\":8446:8583   */\n    tag_409:\n        /* \"#utility.yul\":8500:8505   */\n      0x00\n        /* \"#utility.yul\":8531:8537   */\n      dup2\n        /* \"#utility.yul\":8525:8538   */\n      mload\n        /* \"#utility.yul\":8516:8538   */\n      swap1\n      pop\n        /* \"#utility.yul\":8547:8577   */\n      tag_510\n        /* \"#utility.yul\":8571:8576   */\n      dup2\n        /* \"#utility.yul\":8547:8577   */\n      tag_393\n      jump\t// in\n    tag_510:\n        /* \"#utility.yul\":8446:8583   */\n      swap3\n      swap2\n      pop\n      pop\n      jump\t// out\n        /* \"#utility.yul\":8589:8934   */\n    tag_202:\n        /* \"#utility.yul\":8656:8662   */\n      0x00\n        /* \"#utility.yul\":8705:8707   */\n      0x20\n        /* \"#utility.yul\":8693:8702   */\n      dup3\n        /* \"#utility.yul\":8684:8691   */\n      dup5\n        /* \"#utility.yul\":8680:8703   */\n      sub\n        /* \"#utility.yul\":8676:8708   */\n      slt\n        /* \"#utility.yul\":8673:8792   */\n      iszero\n      tag_512\n      jumpi\n        /* \"#utility.yul\":8711:8790   */\n      tag_513\n      tag_384\n      jump\t// in\n    tag_513:\n        /* \"#utility.yul\":8673:8792   */\n    tag_512:\n        /* \"#utility.yul\":8831:8832   */\n      0x00\n        /* \"#utility.yul\":8856:8917   */\n      tag_514\n        /* \"#utility.yul\":8909:8916   */\n      dup5\n        /* \"#utility.yul\":8900:8906   */\n      dup3\n        /* \"#utility.yul\":8889:8898   */\n      dup6\n        /* \"#utility.yul\":8885:8907   */\n      add\n        /* \"#utility.yul\":8856:8917   */\n      tag_409\n      jump\t// in\n    tag_514:\n        /* \"#utility.yul\":8846:8917   */\n      swap2\n      pop\n        /* \"#utility.yul\":8802:8927   */\n      pop\n        /* \"#utility.yul\":8589:8934   */\n      swap3\n      swap2\n      pop\n      pop\n      jump\t// out\n        /* \"#utility.yul\":8940:9161   */\n    tag_410:\n        /* \"#utility.yul\":9080:9114   */\n      0x41646d696e61626c653a2063616c6c6572206973206e6f74207468652061646d\n        /* \"#utility.yul\":9076:9077   */\n      0x00\n        /* \"#utility.yul\":9068:9074   */\n      dup3\n        /* \"#utility.yul\":9064:9078   */\n      add\n        /* \"#utility.yul\":9057:9115   */\n      mstore\n        /* \"#utility.yul\":9149:9153   */\n      0x696e000000000000000000000000000000000000000000000000000000000000\n        /* \"#utility.yul\":9144:9146   */\n      0x20\n        /* \"#utility.yul\":9136:9142   */\n      dup3\n        /* \"#utility.yul\":9132:9147   */\n      add\n        /* \"#utility.yul\":9125:9154   */\n      mstore\n        /* \"#utility.yul\":8940:9161   */\n      pop\n      jump\t// out\n        /* \"#utility.yul\":9167:9533   */\n    tag_411:\n        /* \"#utility.yul\":9309:9312   */\n      0x00\n        /* \"#utility.yul\":9330:9397   */\n      tag_517\n        /* \"#utility.yul\":9394:9396   */\n      0x22\n        /* \"#utility.yul\":9389:9392   */\n      dup4\n        /* \"#utility.yul\":9330:9397   */\n      tag_404\n      jump\t// in\n    tag_517:\n        /* \"#utility.yul\":9323:9397   */\n      swap2\n      pop\n        /* \"#utility.yul\":9406:9499   */\n      tag_518\n        /* \"#utility.yul\":9495:9498   */\n      dup3\n        /* \"#utility.yul\":9406:9499   */\n      tag_410\n      jump\t// in\n    tag_518:\n        /* \"#utility.yul\":9524:9526   */\n      0x40\n        /* \"#utility.yul\":9519:9522   */\n      dup3\n        /* \"#utility.yul\":9515:9527   */\n      add\n        /* \"#utility.yul\":9508:9527   */\n      swap1\n      pop\n        /* \"#utility.yul\":9167:9533   */\n      swap2\n      swap1\n      pop\n      jump\t// out\n        /* \"#utility.yul\":9539:9958   */\n    tag_209:\n        /* \"#utility.yul\":9705:9709   */\n      0x00\n        /* \"#utility.yul\":9743:9745   */\n      0x20\n        /* \"#utility.yul\":9732:9741   */\n      dup3\n        /* \"#utility.yul\":9728:9746   */\n      add\n        /* \"#utility.yul\":9720:9746   */\n      swap1\n      pop\n        /* \"#utility.yul\":9792:9801   */\n      dup2\n        /* \"#utility.yul\":9786:9790   */\n      dup2\n        /* \"#utility.yul\":9782:9802   */\n      sub\n        /* \"#utility.yul\":9778:9779   */\n      0x00\n        /* \"#utility.yul\":9767:9776   */\n      dup4\n        /* \"#utility.yul\":9763:9780   */\n      add\n        /* \"#utility.yul\":9756:9803   */\n      mstore\n        /* \"#utility.yul\":9820:9951   */\n      tag_520\n        /* \"#utility.yul\":9946:9950   */\n      dup2\n        /* \"#utility.yul\":9820:9951   */\n      tag_411\n      jump\t// in\n    tag_520:\n        /* \"#utility.yul\":9812:9951   */\n      swap1\n      pop\n        /* \"#utility.yul\":9539:9958   */\n      swap2\n      swap1\n      pop\n      jump\t// out\n        /* \"#utility.yul\":9964:10144   */\n    tag_412:\n        /* \"#utility.yul\":10012:10089   */\n      0x4e487b7100000000000000000000000000000000000000000000000000000000\n        /* \"#utility.yul\":10009:10010   */\n      0x00\n        /* \"#utility.yul\":10002:10090   */\n      mstore\n        /* \"#utility.yul\":10109:10113   */\n      0x11\n        /* \"#utility.yul\":10106:10107   */\n      0x04\n        /* \"#utility.yul\":10099:10114   */\n      mstore\n        /* \"#utility.yul\":10133:10137   */\n      0x24\n        /* \"#utility.yul\":10130:10131   */\n      0x00\n        /* \"#utility.yul\":10123:10138   */\n      revert\n        /* \"#utility.yul\":10150:10344   */\n    tag_214:\n        /* \"#utility.yul\":10190:10194   */\n      0x00\n        /* \"#utility.yul\":10210:10230   */\n      tag_523\n        /* \"#utility.yul\":10228:10229   */\n      dup3\n        /* \"#utility.yul\":10210:10230   */\n      tag_390\n      jump\t// in\n    tag_523:\n        /* \"#utility.yul\":10205:10230   */\n      swap2\n      pop\n        /* \"#utility.yul\":10244:10264   */\n      tag_524\n        /* \"#utility.yul\":10262:10263   */\n      dup4\n        /* \"#utility.yul\":10244:10264   */\n      tag_390\n      jump\t// in\n    tag_524:\n        /* \"#utility.yul\":10239:10264   */\n      swap3\n      pop\n        /* \"#utility.yul\":10288:10289   */\n      dup3\n        /* \"#utility.yul\":10285:10286   */\n      dup3\n        /* \"#utility.yul\":10281:10290   */\n      sub\n        /* \"#utility.yul\":10273:10290   */\n      swap1\n      pop\n        /* \"#utility.yul\":10312:10313   */\n      dup2\n        /* \"#utility.yul\":10306:10310   */\n      dup2\n        /* \"#utility.yul\":10303:10314   */\n      gt\n        /* \"#utility.yul\":10300:10337   */\n      iszero\n      tag_525\n      jumpi\n        /* \"#utility.yul\":10317:10335   */\n      tag_526\n      tag_412\n      jump\t// in\n    tag_526:\n        /* \"#utility.yul\":10300:10337   */\n    tag_525:\n        /* \"#utility.yul\":10150:10344   */\n      swap3\n      swap2\n      pop\n      pop\n      jump\t// out\n        /* \"#utility.yul\":10350:10530   */\n    tag_413:\n        /* \"#utility.yul\":10398:10475   */\n      0x4e487b7100000000000000000000000000000000000000000000000000000000\n        /* \"#utility.yul\":10395:10396   */\n      0x00\n        /* \"#utility.yul\":10388:10476   */\n      mstore\n        /* \"#utility.yul\":10495:10499   */\n      0x12\n        /* \"#utility.yul\":10492:10493   */\n      0x04\n        /* \"#utility.yul\":10485:10500   */\n      mstore\n        /* \"#utility.yul\":10519:10523   */\n      0x24\n        /* \"#utility.yul\":10516:10517   */\n      0x00\n        /* \"#utility.yul\":10509:10524   */\n      revert\n        /* \"#utility.yul\":10536:10721   */\n    tag_216:\n        /* \"#utility.yul\":10576:10577   */\n      0x00\n        /* \"#utility.yul\":10593:10613   */\n      tag_529\n        /* \"#utility.yul\":10611:10612   */\n      dup3\n        /* \"#utility.yul\":10593:10613   */\n      tag_390\n      jump\t// in\n    tag_529:\n        /* \"#utility.yul\":10588:10613   */\n      swap2\n      pop\n        /* \"#utility.yul\":10627:10647   */\n      tag_530\n        /* \"#utility.yul\":10645:10646   */\n      dup4\n        /* \"#utility.yul\":10627:10647   */\n      tag_390\n      jump\t// in\n    tag_530:\n        /* \"#utility.yul\":10622:10647   */\n      swap3\n      pop\n        /* \"#utility.yul\":10666:10667   */\n      dup3\n        /* \"#utility.yul\":10656:10691   */\n      tag_531\n      jumpi\n        /* \"#utility.yul\":10671:10689   */\n      tag_532\n      tag_413\n      jump\t// in\n    tag_532:\n        /* \"#utility.yul\":10656:10691   */\n    tag_531:\n        /* \"#utility.yul\":10713:10714   */\n      dup3\n        /* \"#utility.yul\":10710:10711   */\n      dup3\n        /* \"#utility.yul\":10706:10715   */\n      div\n        /* \"#utility.yul\":10701:10715   */\n      swap1\n      pop\n        /* \"#utility.yul\":10536:10721   */\n      swap3\n      swap2\n      pop\n      pop\n      jump\t// out\n        /* \"#utility.yul\":10727:10918   */\n    tag_218:\n        /* \"#utility.yul\":10767:10770   */\n      0x00\n        /* \"#utility.yul\":10786:10806   */\n      tag_534\n        /* \"#utility.yul\":10804:10805   */\n      dup3\n        /* \"#utility.yul\":10786:10806   */\n      tag_390\n      jump\t// in\n    tag_534:\n        /* \"#utility.yul\":10781:10806   */\n      swap2\n      pop\n        /* \"#utility.yul\":10820:10840   */\n      tag_535\n        /* \"#utility.yul\":10838:10839   */\n      dup4\n        /* \"#utility.yul\":10820:10840   */\n      tag_390\n      jump\t// in\n    tag_535:\n        /* \"#utility.yul\":10815:10840   */\n      swap3\n      pop\n        /* \"#utility.yul\":10863:10864   */\n      dup3\n        /* \"#utility.yul\":10860:10861   */\n      dup3\n        /* \"#utility.yul\":10856:10865   */\n      add\n        /* \"#utility.yul\":10849:10865   */\n      swap1\n      pop\n        /* \"#utility.yul\":10884:10887   */\n      dup1\n        /* \"#utility.yul\":10881:10882   */\n      dup3\n        /* \"#utility.yul\":10878:10888   */\n      gt\n        /* \"#utility.yul\":10875:10911   */\n      iszero\n      tag_536\n      jumpi\n        /* \"#utility.yul\":10891:10909   */\n      tag_537\n      tag_412\n      jump\t// in\n    tag_537:\n        /* \"#utility.yul\":10875:10911   */\n    tag_536:\n        /* \"#utility.yul\":10727:10918   */\n      swap3\n      swap2\n      pop\n      pop\n      jump\t// out\n        /* \"#utility.yul\":10924:11334   */\n    tag_223:\n        /* \"#utility.yul\":10964:10971   */\n      0x00\n        /* \"#utility.yul\":10987:11007   */\n      tag_539\n        /* \"#utility.yul\":11005:11006   */\n      dup3\n        /* \"#utility.yul\":10987:11007   */\n      tag_390\n      jump\t// in\n    tag_539:\n        /* \"#utility.yul\":10982:11007   */\n      swap2\n      pop\n        /* \"#utility.yul\":11021:11041   */\n      tag_540\n        /* \"#utility.yul\":11039:11040   */\n      dup4\n        /* \"#utility.yul\":11021:11041   */\n      tag_390\n      jump\t// in\n    tag_540:\n        /* \"#utility.yul\":11016:11041   */\n      swap3\n      pop\n        /* \"#utility.yul\":11076:11077   */\n      dup3\n        /* \"#utility.yul\":11073:11074   */\n      dup3\n        /* \"#utility.yul\":11069:11078   */\n      mul\n        /* \"#utility.yul\":11098:11128   */\n      tag_541\n        /* \"#utility.yul\":11116:11127   */\n      dup2\n        /* \"#utility.yul\":11098:11128   */\n      tag_390\n      jump\t// in\n    tag_541:\n        /* \"#utility.yul\":11087:11128   */\n      swap2\n      pop\n        /* \"#utility.yul\":11277:11278   */\n      dup3\n        /* \"#utility.yul\":11268:11275   */\n      dup3\n        /* \"#utility.yul\":11264:11279   */\n      div\n        /* \"#utility.yul\":11261:11262   */\n      dup5\n        /* \"#utility.yul\":11258:11280   */\n      eq\n        /* \"#utility.yul\":11238:11239   */\n      dup4\n        /* \"#utility.yul\":11231:11240   */\n      iszero\n        /* \"#utility.yul\":11211:11294   */\n      or\n        /* \"#utility.yul\":11188:11327   */\n      tag_542\n      jumpi\n        /* \"#utility.yul\":11307:11325   */\n      tag_543\n      tag_412\n      jump\t// in\n    tag_543:\n        /* \"#utility.yul\":11188:11327   */\n    tag_542:\n        /* \"#utility.yul\":10972:11334   */\n      pop\n        /* \"#utility.yul\":10924:11334   */\n      swap3\n      swap2\n      pop\n      pop\n      jump\t// out\n        /* \"#utility.yul\":11340:11573   */\n    tag_227:\n        /* \"#utility.yul\":11379:11382   */\n      0x00\n        /* \"#utility.yul\":11402:11426   */\n      tag_545\n        /* \"#utility.yul\":11420:11425   */\n      dup3\n        /* \"#utility.yul\":11402:11426   */\n      tag_390\n      jump\t// in\n    tag_545:\n        /* \"#utility.yul\":11393:11426   */\n      swap2\n      pop\n        /* \"#utility.yul\":11448:11514   */\n      0xffffffffffffffffffffffffffffffffffffffffffffffffffffffffffffffff\n        /* \"#utility.yul\":11441:11446   */\n      dup3\n        /* \"#utility.yul\":11438:11515   */\n      sub\n        /* \"#utility.yul\":11435:11538   */\n      tag_546\n      jumpi\n        /* \"#utility.yul\":11518:11536   */\n      tag_547\n      tag_412\n      jump\t// in\n    tag_547:\n        /* \"#utility.yul\":11435:11538   */\n    tag_546:\n        /* \"#utility.yul\":11565:11566   */\n      0x01\n        /* \"#utility.yul\":11558:11563   */\n      dup3\n        /* \"#utility.yul\":11554:11567   */\n      add\n        /* \"#utility.yul\":11547:11567   */\n      swap1\n      pop\n        /* \"#utility.yul\":11340:11573   */\n      swap2\n      swap1\n      pop\n      jump\t// out\n        /* \"#utility.yul\":11579:11743   */\n    tag_414:\n        /* \"#utility.yul\":11719:11735   */\n      0x43616e6e6f74207374616b652030000000000000000000000000000000000000\n        /* \"#utility.yul\":11715:11716   */\n      0x00\n        /* \"#utility.yul\":11707:11713   */\n      dup3\n        /* \"#utility.yul\":11703:11717   */\n      add\n        /* \"#utility.yul\":11696:11736   */\n      mstore\n        /* \"#utility.yul\":11579:11743   */\n      pop\n      jump\t// out\n        /* \"#utility.yul\":11749:12115   */\n    tag_415:\n        /* \"#utility.yul\":11891:11894   */\n      0x00\n        /* \"#utility.yul\":11912:11979   */\n      tag_550\n        /* \"#utility.yul\":11976:11978   */\n      0x0e\n        /* \"#utility.yul\":11971:11974   */\n      dup4\n        /* \"#utility.yul\":11912:11979   */\n      tag_404\n      jump\t// in\n    tag_550:\n        /* \"#utility.yul\":11905:11979   */\n      swap2\n      pop\n        /* \"#utility.yul\":11988:12081   */\n      tag_551\n        /* \"#utility.yul\":12077:12080   */\n      dup3\n        /* \"#utility.yul\":11988:12081   */\n      tag_414\n      jump\t// in\n    tag_551:\n        /* \"#utility.yul\":12106:12108   */\n      0x20\n        /* \"#utility.yul\":12101:12104   */\n      dup3\n        /* \"#utility.yul\":12097:12109   */\n      add\n        /* \"#utility.yul\":12090:12109   */\n      swap1\n      pop\n        /* \"#utility.yul\":11749:12115   */\n      swap2\n      swap1\n      pop\n      jump\t// out\n        /* \"#utility.yul\":12121:12540   */\n    tag_305:\n        /* \"#utility.yul\":12287:12291   */\n      0x00\n        /* \"#utility.yul\":12325:12327   */\n      0x20\n        /* \"#utility.yul\":12314:12323   */\n      dup3\n        /* \"#utility.yul\":12310:12328   */\n      add\n        /* \"#utility.yul\":12302:12328   */\n      swap1\n      pop\n        /* \"#utility.yul\":12374:12383   */\n      dup2\n        /* \"#utility.yul\":12368:12372   */\n      dup2\n        /* \"#utility.yul\":12364:12384   */\n      sub\n        /* \"#utility.yul\":12360:12361   */\n      0x00\n        /* \"#utility.yul\":12349:12358   */\n      dup4\n        /* \"#utility.yul\":12345:12362   */\n      add\n        /* \"#utility.yul\":12338:12385   */\n      mstore\n        /* \"#utility.yul\":12402:12533   */\n      tag_553\n        /* \"#utility.yul\":12528:12532   */\n      dup2\n        /* \"#utility.yul\":12402:12533   */\n      tag_415\n      jump\t// in\n    tag_553:\n        /* \"#utility.yul\":12394:12533   */\n      swap1\n      pop\n        /* \"#utility.yul\":12121:12540   */\n      swap2\n      swap1\n      pop\n      jump\t// out\n        /* \"#utility.yul\":12546:12722   */\n    tag_320:\n        /* \"#utility.yul\":12578:12579   */\n      0x00\n        /* \"#utility.yul\":12595:12615   */\n      tag_555\n        /* \"#utility.yul\":12613:12614   */\n      dup3\n        /* \"#utility.yul\":12595:12615   */\n      tag_390\n      jump\t// in\n    tag_555:\n        /* \"#utility.yul\":12590:12615   */\n      swap2\n      pop\n        /* \"#utility.yul\":12629:12649   */\n      tag_556\n        /* \"#utility.yul\":12647:12648   */\n      dup4\n        /* \"#utility.yul\":12629:12649   */\n      tag_390\n      jump\t// in\n    tag_556:\n        /* \"#utility.yul\":12624:12649   */\n      swap3\n      pop\n        /* \"#utility.yul\":12668:12669   */\n      dup3\n        /* \"#utility.yul\":12658:12693   */\n      tag_557\n      jumpi\n        /* \"#utility.yul\":12673:12691   */\n      tag_558\n      tag_413\n      jump\t// in\n    tag_558:\n        /* \"#utility.yul\":12658:12693   */\n    tag_557:\n        /* \"#utility.yul\":12714:12715   */\n      dup3\n        /* \"#utility.yul\":12711:12712   */\n      dup3\n        /* \"#utility.yul\":12707:12716   */\n      mod\n        /* \"#utility.yul\":12702:12716   */\n      swap1\n      pop\n        /* \"#utility.yul\":12546:12722   */\n      swap3\n      swap2\n      pop\n      pop\n      jump\t// out\n        /* \"#utility.yul\":12728:12953   */\n    tag_416:\n        /* \"#utility.yul\":12868:12902   */\n      0x4f776e61626c653a206e6577206f776e657220697320746865207a65726f2061\n        /* \"#utility.yul\":12864:12865   */\n      0x00\n        /* \"#utility.yul\":12856:12862   */\n      dup3\n        /* \"#utility.yul\":12852:12866   */\n      add\n        /* \"#utility.yul\":12845:12903   */\n      mstore\n        /* \"#utility.yul\":12937:12945   */\n      0x6464726573730000000000000000000000000000000000000000000000000000\n        /* \"#utility.yul\":12932:12934   */\n      0x20\n        /* \"#utility.yul\":12924:12930   */\n      dup3\n        /* \"#utility.yul\":12920:12935   */\n      add\n        /* \"#utility.yul\":12913:12946   */\n      mstore\n        /* \"#utility.yul\":12728:12953   */\n      pop\n      jump\t// out\n        /* \"#utility.yul\":12959:13325   */\n    tag_417:\n        /* \"#utility.yul\":13101:13104   */\n      0x00\n        /* \"#utility.yul\":13122:13189   */\n      tag_561\n        /* \"#utility.yul\":13186:13188   */\n      0x26\n        /* \"#utility.yul\":13181:13184   */\n      dup4\n        /* \"#utility.yul\":13122:13189   */\n      tag_404\n      jump\t// in\n    tag_561:\n        /* \"#utility.yul\":13115:13189   */\n      swap2\n      pop\n        /* \"#utility.yul\":13198:13291   */\n      tag_562\n        /* \"#utility.yul\":13287:13290   */\n      dup3\n        /* \"#utility.yul\":13198:13291   */\n      tag_416\n      jump\t// in\n    tag_562:\n        /* \"#utility.yul\":13316:13318   */\n      0x40\n        /* \"#utility.yul\":13311:13314   */\n      dup3\n        /* \"#utility.yul\":13307:13319   */\n      add\n        /* \"#utility.yul\":13300:13319   */\n      swap1\n      pop\n        /* \"#utility.yul\":12959:13325   */\n      swap2\n      swap1\n      pop\n      jump\t// out\n        /* \"#utility.yul\":13331:13750   */\n    tag_368:\n        /* \"#utility.yul\":13497:13501   */\n      0x00\n        /* \"#utility.yul\":13535:13537   */\n      0x20\n        /* \"#utility.yul\":13524:13533   */\n      dup3\n        /* \"#utility.yul\":13520:13538   */\n      add\n        /* \"#utility.yul\":13512:13538   */\n      swap1\n      pop\n        /* \"#utility.yul\":13584:13593   */\n      dup2\n        /* \"#utility.yul\":13578:13582   */\n      dup2\n        /* \"#utility.yul\":13574:13594   */\n      sub\n        /* \"#utility.yul\":13570:13571   */\n      0x00\n        /* \"#utility.yul\":13559:13568   */\n      dup4\n        /* \"#utility.yul\":13555:13572   */\n      add\n        /* \"#utility.yul\":13548:13595   */\n      mstore\n        /* \"#utility.yul\":13612:13743   */\n      tag_564\n        /* \"#utility.yul\":13738:13742   */\n      dup2\n        /* \"#utility.yul\":13612:13743   */\n      tag_417\n      jump\t// in\n    tag_564:\n        /* \"#utility.yul\":13604:13743   */\n      swap1\n      pop\n        /* \"#utility.yul\":13331:13750   */\n      swap2\n      swap1\n      pop\n      jump\t// out\n\n    auxdata: 0xa26469706673582212207fcf0c9dffa31c91e3427a73dbeb443df19b5d41ee1385d613c07c4893c9c82764736f6c63430008110033\n}\n",
				"bytecode": {
					"linkReferences": {},
					"object": "60806040526923934c5a09da1900000060055561025860075560056008556103e860095534801561002f57600080fd5b5061004c61004161005960201b60201c565b61006160201b60201c565b6001600281905550610127565b600033905090565b6000600160009054906101000a900473ffffffffffffffffffffffffffffffffffffffff16905081600160006101000a81548173ffffffffffffffffffffffffffffffffffffffff021916908373ffffffffffffffffffffffffffffffffffffffff1602179055508173ffffffffffffffffffffffffffffffffffffffff168173ffffffffffffffffffffffffffffffffffffffff167f8be0079c531659141344cd1fd0a4f28419497f9722a3daafe3b4186f6b6457e060405160405180910390a35050565b6123c680620001376000396000f3fe608060405234801561001057600080fd5b50600436106102055760003560e01c8063874c120b1161011a578063adc9772e116100ad578063d1af0c7d1161007c578063d1af0c7d146105de578063da4f8431146105fc578063db2e21bc1461062c578063df136d6514610636578063f2fde38b1461065457610205565b8063adc9772e14610556578063b79ec81214610572578063c8f33c91146105a2578063cdda56e0146105c057610205565b80638da5cb5b116100e95780638da5cb5b146104e05780639499c549146104fe5780639a5b17b01461051c578063a4c3b0911461053a57610205565b8063874c120b14610448578063893bcfbe146104785780638aee8127146104945780638b876347146104b057610205565b80634dbdc4eb1161019d578063715018a61161016c578063715018a6146103b457806378e97925146103be5780637a6fcee7146103dc57806380faa57d146103fa5780638107368b1461041857610205565b80634dbdc4eb146103185780635cfa91f4146103485780636139d4b4146103785780636917c5011461039657610205565b806324d7806c116101d957806324d7806c146102a45780633c4045cf146102d45780633d18b912146102f25780633e0a322d146102fc57610205565b80628cc2621461020a5780630700037d1461023a5780630e15561a1461026a57806318e20ecf14610288575b600080fd5b610224600480360381019061021f9190611c2b565b610670565b6040516102319190611c71565b60405180910390f35b610254600480360381019061024f9190611c2b565b6107dc565b6040516102619190611c71565b60405180910390f35b6102726107f4565b60405161027f9190611c71565b60405180910390f35b6102a2600480360381019061029d9190611cc4565b6107fa565b005b6102be60048036038101906102b99190611c2b565b61096b565b6040516102cb9190611d13565b60405180910390f35b6102dc6109c0565b6040516102e99190611c71565b60405180910390f35b6102fa6109c6565b005b61031660048036038101906103119190611d5a565b610d2b565b005b610332600480360381019061032d9190611d5a565b610d84565b60405161033f9190611c71565b60405180910390f35b610362600480360381019061035d9190611d5a565b610e1b565b60405161036f9190611c71565b60405180910390f35b610380610edf565b60405161038d9190611c71565b60405180910390f35b61039e610ee5565b6040516103ab9190611c71565b60405180910390f35b6103bc610eef565b005b6103c6610f77565b6040516103d39190611c71565b60405180910390f35b6103e4610f7d565b6040516103f19190611c71565b60405180910390f35b610402610f83565b60405161040f9190611c71565b60405180910390f35b610432600480360381019061042d9190611c2b565b610f8b565b60405161043f9190611c71565b60405180910390f35b610462600480360381019061045d9190611d5a565b610fa3565b60405161046f9190611c71565b60405180910390f35b610492600480360381019061048d9190611d5a565b611030565b005b6104ae60048036038101906104a99190611c2b565b6110af565b005b6104ca60048036038101906104c59190611c2b565b61116f565b6040516104d79190611c71565b60405180910390f35b6104e8611187565b6040516104f59190611d96565b60405180910390f35b6105066111b1565b6040516105139190611c71565b60405180910390f35b6105246111c1565b6040516105319190611c71565b60405180910390f35b610554600480360381019061054f9190611db1565b6111c9565b005b610570600480360381019061056b9190611db1565b6112c8565b005b61058c60048036038101906105879190611c2b565b61163c565b6040516105999190611c71565b60405180910390f35b6105aa611685565b6040516105b79190611c71565b60405180910390f35b6105c861168b565b6040516105d59190611c71565b60405180910390f35b6105e661169b565b6040516105f39190611e50565b60405180910390f35b61061660048036038101906106119190611e6b565b6116c1565b6040516106239190611c71565b60405180910390f35b6106346118a8565b005b61063e611974565b60405161064b9190611c71565b60405180910390f35b61066e60048036038101906106699190611c2b565b61197a565b005b6000806106bc600d60008573ffffffffffffffffffffffffffffffffffffffff1673ffffffffffffffffffffffffffffffffffffffff16815260200190815260200160002054426116c1565b90506107d4600460008573ffffffffffffffffffffffffffffffffffffffff1673ffffffffffffffffffffffffffffffffffffffff168152602001908152602001600020546107c6670de0b6b3a76400006107b861076a600c60008a73ffffffffffffffffffffffffffffffffffffffff1673ffffffffffffffffffffffffffffffffffffffff1681526020019081526020016000205461075c88610fa3565b611a7190919063ffffffff16565b600f60008a73ffffffffffffffffffffffffffffffffffffffff1673ffffffffffffffffffffffffffffffffffffffff16815260200190815260200160002054611a8790919063ffffffff16565b611a9d90919063ffffffff16565b611ab390919063ffffffff16565b915050919050565b60046020528060005260406000206000915090505481565b60055481565b610802611ac9565b73ffffffffffffffffffffffffffffffffffffffff16610820611187565b73ffffffffffffffffffffffffffffffffffffffff1614610876576040517f08c379a000000000000000000000000000000000000000000000000000000000815260040161086d90611f2e565b60405180910390fd5b8173ffffffffffffffffffffffffffffffffffffffff167f82f1fa40a3d82dea3e406073819290601f436580aa7c69f9feb61f885bdd88546000808573ffffffffffffffffffffffffffffffffffffffff1673ffffffffffffffffffffffffffffffffffffffff16815260200190815260200160002060009054906101000a900460ff1683604051610909929190611f4e565b60405180910390a2806000808473ffffffffffffffffffffffffffffffffffffffff1673ffffffffffffffffffffffffffffffffffffffff16815260200190815260200160002060006101000a81548160ff0219169083151502179055505050565b60008060008373ffffffffffffffffffffffffffffffffffffffff1673ffffffffffffffffffffffffffffffffffffffff16815260200190815260200160002060009054906101000a900460ff169050919050565b60085481565b6002805403610a0a576040517f08c379a0000000000000000000000000000000000000000000000000000000008152600401610a0190611fc3565b60405180910390fd5b60028081905550336000600d60008373ffffffffffffffffffffffffffffffffffffffff1673ffffffffffffffffffffffffffffffffffffffff1681526020019081526020016000205490506006548111610a655760065490505b6000610a7182426116c1565b9050610a7c81610fa3565b600b81905550610a8a610f83565b600a81905550600073ffffffffffffffffffffffffffffffffffffffff168373ffffffffffffffffffffffffffffffffffffffff1614610b9b57610acd83610670565b600460008573ffffffffffffffffffffffffffffffffffffffff1673ffffffffffffffffffffffffffffffffffffffff16815260200190815260200160002081905550600b54600c60008573ffffffffffffffffffffffffffffffffffffffff1673ffffffffffffffffffffffffffffffffffffffff1681526020019081526020016000208190555042600d60008573ffffffffffffffffffffffffffffffffffffffff1673ffffffffffffffffffffffffffffffffffffffff168152602001908152602001600020819055505b6000600460003373ffffffffffffffffffffffffffffffffffffffff1673ffffffffffffffffffffffffffffffffffffffff1681526020019081526020016000205490506000811115610d1d576000600460003373ffffffffffffffffffffffffffffffffffffffff1673ffffffffffffffffffffffffffffffffffffffff16815260200190815260200160002081905550600360009054906101000a900473ffffffffffffffffffffffffffffffffffffffff1673ffffffffffffffffffffffffffffffffffffffff1663a9059cbb33836040518363ffffffff1660e01b8152600401610c8a929190611fe3565b6020604051808303816000875af1158015610ca9573d6000803e3d6000fd5b505050506040513d601f19601f82011682018060405250810190610ccd9190612021565b503373ffffffffffffffffffffffffffffffffffffffff167fe2403640ba68fed3a2f88b7557551d1993f84b99bb10ff833f0cf8db0c5e048682604051610d149190611c71565b60405180910390a25b505050506001600281905550565b610d3b610d36611ac9565b61096b565b610d7a576040517f08c379a0000000000000000000000000000000000000000000000000000000008152600401610d71906120c0565b60405180910390fd5b8060068190555050565b60008060065403610d99576006549050610e16565b6000600160075460065485610dae919061210f565b610db89190612172565b610dc291906121a3565b90506000600554905060005b82811015610e0f5760095460085483610de791906121d7565b610df19190612172565b82610dfc919061210f565b915080610e0890612219565b9050610dce565b5080925050505b919050565b60008060065403610e30576005549050610eda565b600654821015610e435760009050610eda565b6000600160075460065485610e58919061210f565b610e629190612172565b610e6c91906121a3565b90506000600554905060005b82811015610eb95760095460085483610e9191906121d7565b610e9b9190612172565b82610ea6919061210f565b915080610eb290612219565b9050610e78565b5060095460085482610ecb91906121d7565b610ed59190612172565b925050505b919050565b60075481565b6000600e54905090565b610ef7611ac9565b73ffffffffffffffffffffffffffffffffffffffff16610f15611187565b73ffffffffffffffffffffffffffffffffffffffff1614610f6b576040517f08c379a0000000000000000000000000000000000000000000000000000000008152600401610f6290611f2e565b60405180910390fd5b610f756000611ad1565b565b60065481565b60095481565b600042905090565b600d6020528060005260406000206000915090505481565b600080600e5403610fb857600b54905061102b565b611028611017600e54611009670de0b6b3a7640000610ffb87610fed600a54610fdf610f83565b611a7190919063ffffffff16565b611a8790919063ffffffff16565b611a8790919063ffffffff16565b611a9d90919063ffffffff16565b600b54611ab390919063ffffffff16565b90505b919050565b611038611ac9565b73ffffffffffffffffffffffffffffffffffffffff16611056611187565b73ffffffffffffffffffffffffffffffffffffffff16146110ac576040517f08c379a00000000000000000000000000000000000000000000000000000000081526004016110a390611f2e565b60405180910390fd5b50565b6110b7611ac9565b73ffffffffffffffffffffffffffffffffffffffff166110d5611187565b73ffffffffffffffffffffffffffffffffffffffff161461112b576040517f08c379a000000000000000000000000000000000000000000000000000000000815260040161112290611f2e565b60405180910390fd5b80600360006101000a81548173ffffffffffffffffffffffffffffffffffffffff021916908373ffffffffffffffffffffffffffffffffffffffff16021790555050565b600c6020528060005260406000206000915090505481565b6000600160009054906101000a900473ffffffffffffffffffffffffffffffffffffffff16905090565b60006111bc42610e1b565b905090565b600042905090565b6111d1611ac9565b73ffffffffffffffffffffffffffffffffffffffff166111ef611187565b73ffffffffffffffffffffffffffffffffffffffff1614611245576040517f08c379a000000000000000000000000000000000000000000000000000000000815260040161123c90611f2e565b60405180910390fd5b8173ffffffffffffffffffffffffffffffffffffffff1663a9059cbb33836040518363ffffffff1660e01b8152600401611280929190611fe3565b6020604051808303816000875af115801561129f573d6000803e3d6000fd5b505050506040513d601f19601f820116820180604052508101906112c39190612021565b505050565b600280540361130c576040517f08c379a000000000000000000000000000000000000000000000000000000000815260040161130390611fc3565b60405180910390fd5b6002808190555061132361131e611ac9565b61096b565b611362576040517f08c379a0000000000000000000000000000000000000000000000000000000008152600401611359906120c0565b60405180910390fd5b816000600d60008373ffffffffffffffffffffffffffffffffffffffff1673ffffffffffffffffffffffffffffffffffffffff16815260200190815260200160002054905060065481116113b65760065490505b60006113c282426116c1565b90506113cd81610fa3565b600b819055506113db610f83565b600a81905550600073ffffffffffffffffffffffffffffffffffffffff168373ffffffffffffffffffffffffffffffffffffffff16146114ec5761141e83610670565b600460008573ffffffffffffffffffffffffffffffffffffffff1673ffffffffffffffffffffffffffffffffffffffff16815260200190815260200160002081905550600b54600c60008573ffffffffffffffffffffffffffffffffffffffff1673ffffffffffffffffffffffffffffffffffffffff1681526020019081526020016000208190555042600d60008573ffffffffffffffffffffffffffffffffffffffff1673ffffffffffffffffffffffffffffffffffffffff168152602001908152602001600020819055505b6000841161152f576040517f08c379a0000000000000000000000000000000000000000000000000000000008152600401611526906122ad565b60405180910390fd5b61154484600e54611ab390919063ffffffff16565b600e8190555061159c84600f60008873ffffffffffffffffffffffffffffffffffffffff1673ffffffffffffffffffffffffffffffffffffffff16815260200190815260200160002054611ab390919063ffffffff16565b600f60008773ffffffffffffffffffffffffffffffffffffffff1673ffffffffffffffffffffffffffffffffffffffff168152602001908152602001600020819055508473ffffffffffffffffffffffffffffffffffffffff167f9e71bc8eea02a63969f509818f2dafb9254532904319f9dbda79b67bd34a5f3d856040516116259190611c71565b60405180910390a250505060016002819055505050565b6000600f60008373ffffffffffffffffffffffffffffffffffffffff1673ffffffffffffffffffffffffffffffffffffffff168152602001908152602001600020549050919050565b600a5481565b600061169642611b97565b905090565b600360009054906101000a900473ffffffffffffffffffffffffffffffffffffffff1681565b60008060065414806116d35750818310155b806116de5750600083145b156116ec57600090506118a2565b6006548310156116fc5760065492505b600060075460075460065486611712919061210f565b61171c91906122cd565b600754611729919061210f565b61173391906122cd565b905060006007548261174487610e1b565b61174e91906121d7565b6117589190612172565b905060006007546006548661176d919061210f565b61177791906122cd565b905060006007548261178888610e1b565b61179291906121d7565b61179c9190612172565b90508584886117ab91906121a3565b11156117c5576117ba87611b97565b9450505050506118a2565b6000848884896117d5919061210f565b6117df919061210f565b6117e9919061210f565b905060006117f689610d84565b905060008060008390506000600754866118109190612172565b905060005b81811015611867576009546008548461182e91906121d7565b6118389190612172565b93508383611846919061210f565b9250838561185491906121a3565b94508061186090612219565b9050611815565b508c8c611874919061210f565b878a8661188191906121a3565b61188b91906121a3565b6118959190612172565b9a50505050505050505050505b92915050565b6118b0611ac9565b73ffffffffffffffffffffffffffffffffffffffff166118ce611187565b73ffffffffffffffffffffffffffffffffffffffff1614611924576040517f08c379a000000000000000000000000000000000000000000000000000000000815260040161191b90611f2e565b60405180910390fd5b61192c611187565b73ffffffffffffffffffffffffffffffffffffffff166108fc479081150290604051600060405180830381858888f19350505050158015611971573d6000803e3d6000fd5b50565b600b5481565b611982611ac9565b73ffffffffffffffffffffffffffffffffffffffff166119a0611187565b73ffffffffffffffffffffffffffffffffffffffff16146119f6576040517f08c379a00000000000000000000000000000000000000000000000000000000081526004016119ed90611f2e565b60405180910390fd5b600073ffffffffffffffffffffffffffffffffffffffff168173ffffffffffffffffffffffffffffffffffffffff1603611a65576040517f08c379a0000000000000000000000000000000000000000000000000000000008152600401611a5c90612370565b60405180910390fd5b611a6e81611ad1565b50565b60008183611a7f919061210f565b905092915050565b60008183611a9591906121d7565b905092915050565b60008183611aab9190612172565b905092915050565b60008183611ac191906121a3565b905092915050565b600033905090565b6000600160009054906101000a900473ffffffffffffffffffffffffffffffffffffffff16905081600160006101000a81548173ffffffffffffffffffffffffffffffffffffffff021916908373ffffffffffffffffffffffffffffffffffffffff1602179055508173ffffffffffffffffffffffffffffffffffffffff168173ffffffffffffffffffffffffffffffffffffffff167f8be0079c531659141344cd1fd0a4f28419497f9722a3daafe3b4186f6b6457e060405160405180910390a35050565b600080611ba383610e1b565b90506000611bbc60075483611a9d90919063ffffffff16565b90508092505050919050565b600080fd5b600073ffffffffffffffffffffffffffffffffffffffff82169050919050565b6000611bf882611bcd565b9050919050565b611c0881611bed565b8114611c1357600080fd5b50565b600081359050611c2581611bff565b92915050565b600060208284031215611c4157611c40611bc8565b5b6000611c4f84828501611c16565b91505092915050565b6000819050919050565b611c6b81611c58565b82525050565b6000602082019050611c866000830184611c62565b92915050565b60008115159050919050565b611ca181611c8c565b8114611cac57600080fd5b50565b600081359050611cbe81611c98565b92915050565b60008060408385031215611cdb57611cda611bc8565b5b6000611ce985828601611c16565b9250506020611cfa85828601611caf565b9150509250929050565b611d0d81611c8c565b82525050565b6000602082019050611d286000830184611d04565b92915050565b611d3781611c58565b8114611d4257600080fd5b50565b600081359050611d5481611d2e565b92915050565b600060208284031215611d7057611d6f611bc8565b5b6000611d7e84828501611d45565b91505092915050565b611d9081611bed565b82525050565b6000602082019050611dab6000830184611d87565b92915050565b60008060408385031215611dc857611dc7611bc8565b5b6000611dd685828601611c16565b9250506020611de785828601611d45565b9150509250929050565b6000819050919050565b6000611e16611e11611e0c84611bcd565b611df1565b611bcd565b9050919050565b6000611e2882611dfb565b9050919050565b6000611e3a82611e1d565b9050919050565b611e4a81611e2f565b82525050565b6000602082019050611e656000830184611e41565b92915050565b60008060408385031215611e8257611e81611bc8565b5b6000611e9085828601611d45565b9250506020611ea185828601611d45565b9150509250929050565b600082825260208201905092915050565b7f41646d696e61626c653a2063616c6c6572206973206e6f7420746865206f776e60008201527f6572000000000000000000000000000000000000000000000000000000000000602082015250565b6000611f18602283611eab565b9150611f2382611ebc565b604082019050919050565b60006020820190508181036000830152611f4781611f0b565b9050919050565b6000604082019050611f636000830185611d04565b611f706020830184611d04565b9392505050565b7f5265656e7472616e637947756172643a207265656e7472616e742063616c6c00600082015250565b6000611fad601f83611eab565b9150611fb882611f77565b602082019050919050565b60006020820190508181036000830152611fdc81611fa0565b9050919050565b6000604082019050611ff86000830185611d87565b6120056020830184611c62565b9392505050565b60008151905061201b81611c98565b92915050565b60006020828403121561203757612036611bc8565b5b60006120458482850161200c565b91505092915050565b7f41646d696e61626c653a2063616c6c6572206973206e6f74207468652061646d60008201527f696e000000000000000000000000000000000000000000000000000000000000602082015250565b60006120aa602283611eab565b91506120b58261204e565b604082019050919050565b600060208201905081810360008301526120d98161209d565b9050919050565b7f4e487b7100000000000000000000000000000000000000000000000000000000600052601160045260246000fd5b600061211a82611c58565b915061212583611c58565b925082820390508181111561213d5761213c6120e0565b5b92915050565b7f4e487b7100000000000000000000000000000000000000000000000000000000600052601260045260246000fd5b600061217d82611c58565b915061218883611c58565b92508261219857612197612143565b5b828204905092915050565b60006121ae82611c58565b91506121b983611c58565b92508282019050808211156121d1576121d06120e0565b5b92915050565b60006121e282611c58565b91506121ed83611c58565b92508282026121fb81611c58565b91508282048414831517612212576122116120e0565b5b5092915050565b600061222482611c58565b91507fffffffffffffffffffffffffffffffffffffffffffffffffffffffffffffffff8203612256576122556120e0565b5b600182019050919050565b7f43616e6e6f74207374616b652030000000000000000000000000000000000000600082015250565b6000612297600e83611eab565b91506122a282612261565b602082019050919050565b600060208201905081810360008301526122c68161228a565b9050919050565b60006122d882611c58565b91506122e383611c58565b9250826122f3576122f2612143565b5b828206905092915050565b7f4f776e61626c653a206e6577206f776e657220697320746865207a65726f206160008201527f6464726573730000000000000000000000000000000000000000000000000000602082015250565b600061235a602683611eab565b9150612365826122fe565b604082019050919050565b600060208201905081810360008301526123898161234d565b905091905056fea26469706673582212207fcf0c9dffa31c91e3427a73dbeb443df19b5d41ee1385d613c07c4893c9c82764736f6c63430008110033",
					"opcodes": "PUSH1 0x80 PUSH1 0x40 MSTORE PUSH10 0x23934C5A09DA19000000 PUSH1 0x5 SSTORE PUSH2 0x258 PUSH1 0x7 SSTORE PUSH1 0x5 PUSH1 0x8 SSTORE PUSH2 0x3E8 PUSH1 0x9 SSTORE CALLVALUE DUP1 ISZERO PUSH2 0x2F JUMPI PUSH1 0x0 DUP1 REVERT JUMPDEST POP PUSH2 0x4C PUSH2 0x41 PUSH2 0x59 PUSH1 0x20 SHL PUSH1 0x20 SHR JUMP JUMPDEST PUSH2 0x61 PUSH1 0x20 SHL PUSH1 0x20 SHR JUMP JUMPDEST PUSH1 0x1 PUSH1 0x2 DUP2 SWAP1 SSTORE POP PUSH2 0x127 JUMP JUMPDEST PUSH1 0x0 CALLER SWAP1 POP SWAP1 JUMP JUMPDEST PUSH1 0x0 PUSH1 0x1 PUSH1 0x0 SWAP1 SLOAD SWAP1 PUSH2 0x100 EXP SWAP1 DIV PUSH20 0xFFFFFFFFFFFFFFFFFFFFFFFFFFFFFFFFFFFFFFFF AND SWAP1 POP DUP2 PUSH1 0x1 PUSH1 0x0 PUSH2 0x100 EXP DUP2 SLOAD DUP2 PUSH20 0xFFFFFFFFFFFFFFFFFFFFFFFFFFFFFFFFFFFFFFFF MUL NOT AND SWAP1 DUP4 PUSH20 0xFFFFFFFFFFFFFFFFFFFFFFFFFFFFFFFFFFFFFFFF AND MUL OR SWAP1 SSTORE POP DUP2 PUSH20 0xFFFFFFFFFFFFFFFFFFFFFFFFFFFFFFFFFFFFFFFF AND DUP2 PUSH20 0xFFFFFFFFFFFFFFFFFFFFFFFFFFFFFFFFFFFFFFFF AND PUSH32 0x8BE0079C531659141344CD1FD0A4F28419497F9722A3DAAFE3B4186F6B6457E0 PUSH1 0x40 MLOAD PUSH1 0x40 MLOAD DUP1 SWAP2 SUB SWAP1 LOG3 POP POP JUMP JUMPDEST PUSH2 0x23C6 DUP1 PUSH3 0x137 PUSH1 0x0 CODECOPY PUSH1 0x0 RETURN INVALID PUSH1 0x80 PUSH1 0x40 MSTORE CALLVALUE DUP1 ISZERO PUSH2 0x10 JUMPI PUSH1 0x0 DUP1 REVERT JUMPDEST POP PUSH1 0x4 CALLDATASIZE LT PUSH2 0x205 JUMPI PUSH1 0x0 CALLDATALOAD PUSH1 0xE0 SHR DUP1 PUSH4 0x874C120B GT PUSH2 0x11A JUMPI DUP1 PUSH4 0xADC9772E GT PUSH2 0xAD JUMPI DUP1 PUSH4 0xD1AF0C7D GT PUSH2 0x7C JUMPI DUP1 PUSH4 0xD1AF0C7D EQ PUSH2 0x5DE JUMPI DUP1 PUSH4 0xDA4F8431 EQ PUSH2 0x5FC JUMPI DUP1 PUSH4 0xDB2E21BC EQ PUSH2 0x62C JUMPI DUP1 PUSH4 0xDF136D65 EQ PUSH2 0x636 JUMPI DUP1 PUSH4 0xF2FDE38B EQ PUSH2 0x654 JUMPI PUSH2 0x205 JUMP JUMPDEST DUP1 PUSH4 0xADC9772E EQ PUSH2 0x556 JUMPI DUP1 PUSH4 0xB79EC812 EQ PUSH2 0x572 JUMPI DUP1 PUSH4 0xC8F33C91 EQ PUSH2 0x5A2 JUMPI DUP1 PUSH4 0xCDDA56E0 EQ PUSH2 0x5C0 JUMPI PUSH2 0x205 JUMP JUMPDEST DUP1 PUSH4 0x8DA5CB5B GT PUSH2 0xE9 JUMPI DUP1 PUSH4 0x8DA5CB5B EQ PUSH2 0x4E0 JUMPI DUP1 PUSH4 0x9499C549 EQ PUSH2 0x4FE JUMPI DUP1 PUSH4 0x9A5B17B0 EQ PUSH2 0x51C JUMPI DUP1 PUSH4 0xA4C3B091 EQ PUSH2 0x53A JUMPI PUSH2 0x205 JUMP JUMPDEST DUP1 PUSH4 0x874C120B EQ PUSH2 0x448 JUMPI DUP1 PUSH4 0x893BCFBE EQ PUSH2 0x478 JUMPI DUP1 PUSH4 0x8AEE8127 EQ PUSH2 0x494 JUMPI DUP1 PUSH4 0x8B876347 EQ PUSH2 0x4B0 JUMPI PUSH2 0x205 JUMP JUMPDEST DUP1 PUSH4 0x4DBDC4EB GT PUSH2 0x19D JUMPI DUP1 PUSH4 0x715018A6 GT PUSH2 0x16C JUMPI DUP1 PUSH4 0x715018A6 EQ PUSH2 0x3B4 JUMPI DUP1 PUSH4 0x78E97925 EQ PUSH2 0x3BE JUMPI DUP1 PUSH4 0x7A6FCEE7 EQ PUSH2 0x3DC JUMPI DUP1 PUSH4 0x80FAA57D EQ PUSH2 0x3FA JUMPI DUP1 PUSH4 0x8107368B EQ PUSH2 0x418 JUMPI PUSH2 0x205 JUMP JUMPDEST DUP1 PUSH4 0x4DBDC4EB EQ PUSH2 0x318 JUMPI DUP1 PUSH4 0x5CFA91F4 EQ PUSH2 0x348 JUMPI DUP1 PUSH4 0x6139D4B4 EQ PUSH2 0x378 JUMPI DUP1 PUSH4 0x6917C501 EQ PUSH2 0x396 JUMPI PUSH2 0x205 JUMP JUMPDEST DUP1 PUSH4 0x24D7806C GT PUSH2 0x1D9 JUMPI DUP1 PUSH4 0x24D7806C EQ PUSH2 0x2A4 JUMPI DUP1 PUSH4 0x3C4045CF EQ PUSH2 0x2D4 JUMPI DUP1 PUSH4 0x3D18B912 EQ PUSH2 0x2F2 JUMPI DUP1 PUSH4 0x3E0A322D EQ PUSH2 0x2FC JUMPI PUSH2 0x205 JUMP JUMPDEST DUP1 PUSH3 0x8CC262 EQ PUSH2 0x20A JUMPI DUP1 PUSH4 0x700037D EQ PUSH2 0x23A JUMPI DUP1 PUSH4 0xE15561A EQ PUSH2 0x26A JUMPI DUP1 PUSH4 0x18E20ECF EQ PUSH2 0x288 JUMPI JUMPDEST PUSH1 0x0 DUP1 REVERT JUMPDEST PUSH2 0x224 PUSH1 0x4 DUP1 CALLDATASIZE SUB DUP2 ADD SWAP1 PUSH2 0x21F SWAP2 SWAP1 PUSH2 0x1C2B JUMP JUMPDEST PUSH2 0x670 JUMP JUMPDEST PUSH1 0x40 MLOAD PUSH2 0x231 SWAP2 SWAP1 PUSH2 0x1C71 JUMP JUMPDEST PUSH1 0x40 MLOAD DUP1 SWAP2 SUB SWAP1 RETURN JUMPDEST PUSH2 0x254 PUSH1 0x4 DUP1 CALLDATASIZE SUB DUP2 ADD SWAP1 PUSH2 0x24F SWAP2 SWAP1 PUSH2 0x1C2B JUMP JUMPDEST PUSH2 0x7DC JUMP JUMPDEST PUSH1 0x40 MLOAD PUSH2 0x261 SWAP2 SWAP1 PUSH2 0x1C71 JUMP JUMPDEST PUSH1 0x40 MLOAD DUP1 SWAP2 SUB SWAP1 RETURN JUMPDEST PUSH2 0x272 PUSH2 0x7F4 JUMP JUMPDEST PUSH1 0x40 MLOAD PUSH2 0x27F SWAP2 SWAP1 PUSH2 0x1C71 JUMP JUMPDEST PUSH1 0x40 MLOAD DUP1 SWAP2 SUB SWAP1 RETURN JUMPDEST PUSH2 0x2A2 PUSH1 0x4 DUP1 CALLDATASIZE SUB DUP2 ADD SWAP1 PUSH2 0x29D SWAP2 SWAP1 PUSH2 0x1CC4 JUMP JUMPDEST PUSH2 0x7FA JUMP JUMPDEST STOP JUMPDEST PUSH2 0x2BE PUSH1 0x4 DUP1 CALLDATASIZE SUB DUP2 ADD SWAP1 PUSH2 0x2B9 SWAP2 SWAP1 PUSH2 0x1C2B JUMP JUMPDEST PUSH2 0x96B JUMP JUMPDEST PUSH1 0x40 MLOAD PUSH2 0x2CB SWAP2 SWAP1 PUSH2 0x1D13 JUMP JUMPDEST PUSH1 0x40 MLOAD DUP1 SWAP2 SUB SWAP1 RETURN JUMPDEST PUSH2 0x2DC PUSH2 0x9C0 JUMP JUMPDEST PUSH1 0x40 MLOAD PUSH2 0x2E9 SWAP2 SWAP1 PUSH2 0x1C71 JUMP JUMPDEST PUSH1 0x40 MLOAD DUP1 SWAP2 SUB SWAP1 RETURN JUMPDEST PUSH2 0x2FA PUSH2 0x9C6 JUMP JUMPDEST STOP JUMPDEST PUSH2 0x316 PUSH1 0x4 DUP1 CALLDATASIZE SUB DUP2 ADD SWAP1 PUSH2 0x311 SWAP2 SWAP1 PUSH2 0x1D5A JUMP JUMPDEST PUSH2 0xD2B JUMP JUMPDEST STOP JUMPDEST PUSH2 0x332 PUSH1 0x4 DUP1 CALLDATASIZE SUB DUP2 ADD SWAP1 PUSH2 0x32D SWAP2 SWAP1 PUSH2 0x1D5A JUMP JUMPDEST PUSH2 0xD84 JUMP JUMPDEST PUSH1 0x40 MLOAD PUSH2 0x33F SWAP2 SWAP1 PUSH2 0x1C71 JUMP JUMPDEST PUSH1 0x40 MLOAD DUP1 SWAP2 SUB SWAP1 RETURN JUMPDEST PUSH2 0x362 PUSH1 0x4 DUP1 CALLDATASIZE SUB DUP2 ADD SWAP1 PUSH2 0x35D SWAP2 SWAP1 PUSH2 0x1D5A JUMP JUMPDEST PUSH2 0xE1B JUMP JUMPDEST PUSH1 0x40 MLOAD PUSH2 0x36F SWAP2 SWAP1 PUSH2 0x1C71 JUMP JUMPDEST PUSH1 0x40 MLOAD DUP1 SWAP2 SUB SWAP1 RETURN JUMPDEST PUSH2 0x380 PUSH2 0xEDF JUMP JUMPDEST PUSH1 0x40 MLOAD PUSH2 0x38D SWAP2 SWAP1 PUSH2 0x1C71 JUMP JUMPDEST PUSH1 0x40 MLOAD DUP1 SWAP2 SUB SWAP1 RETURN JUMPDEST PUSH2 0x39E PUSH2 0xEE5 JUMP JUMPDEST PUSH1 0x40 MLOAD PUSH2 0x3AB SWAP2 SWAP1 PUSH2 0x1C71 JUMP JUMPDEST PUSH1 0x40 MLOAD DUP1 SWAP2 SUB SWAP1 RETURN JUMPDEST PUSH2 0x3BC PUSH2 0xEEF JUMP JUMPDEST STOP JUMPDEST PUSH2 0x3C6 PUSH2 0xF77 JUMP JUMPDEST PUSH1 0x40 MLOAD PUSH2 0x3D3 SWAP2 SWAP1 PUSH2 0x1C71 JUMP JUMPDEST PUSH1 0x40 MLOAD DUP1 SWAP2 SUB SWAP1 RETURN JUMPDEST PUSH2 0x3E4 PUSH2 0xF7D JUMP JUMPDEST PUSH1 0x40 MLOAD PUSH2 0x3F1 SWAP2 SWAP1 PUSH2 0x1C71 JUMP JUMPDEST PUSH1 0x40 MLOAD DUP1 SWAP2 SUB SWAP1 RETURN JUMPDEST PUSH2 0x402 PUSH2 0xF83 JUMP JUMPDEST PUSH1 0x40 MLOAD PUSH2 0x40F SWAP2 SWAP1 PUSH2 0x1C71 JUMP JUMPDEST PUSH1 0x40 MLOAD DUP1 SWAP2 SUB SWAP1 RETURN JUMPDEST PUSH2 0x432 PUSH1 0x4 DUP1 CALLDATASIZE SUB DUP2 ADD SWAP1 PUSH2 0x42D SWAP2 SWAP1 PUSH2 0x1C2B JUMP JUMPDEST PUSH2 0xF8B JUMP JUMPDEST PUSH1 0x40 MLOAD PUSH2 0x43F SWAP2 SWAP1 PUSH2 0x1C71 JUMP JUMPDEST PUSH1 0x40 MLOAD DUP1 SWAP2 SUB SWAP1 RETURN JUMPDEST PUSH2 0x462 PUSH1 0x4 DUP1 CALLDATASIZE SUB DUP2 ADD SWAP1 PUSH2 0x45D SWAP2 SWAP1 PUSH2 0x1D5A JUMP JUMPDEST PUSH2 0xFA3 JUMP JUMPDEST PUSH1 0x40 MLOAD PUSH2 0x46F SWAP2 SWAP1 PUSH2 0x1C71 JUMP JUMPDEST PUSH1 0x40 MLOAD DUP1 SWAP2 SUB SWAP1 RETURN JUMPDEST PUSH2 0x492 PUSH1 0x4 DUP1 CALLDATASIZE SUB DUP2 ADD SWAP1 PUSH2 0x48D SWAP2 SWAP1 PUSH2 0x1D5A JUMP JUMPDEST PUSH2 0x1030 JUMP JUMPDEST STOP JUMPDEST PUSH2 0x4AE PUSH1 0x4 DUP1 CALLDATASIZE SUB DUP2 ADD SWAP1 PUSH2 0x4A9 SWAP2 SWAP1 PUSH2 0x1C2B JUMP JUMPDEST PUSH2 0x10AF JUMP JUMPDEST STOP JUMPDEST PUSH2 0x4CA PUSH1 0x4 DUP1 CALLDATASIZE SUB DUP2 ADD SWAP1 PUSH2 0x4C5 SWAP2 SWAP1 PUSH2 0x1C2B JUMP JUMPDEST PUSH2 0x116F JUMP JUMPDEST PUSH1 0x40 MLOAD PUSH2 0x4D7 SWAP2 SWAP1 PUSH2 0x1C71 JUMP JUMPDEST PUSH1 0x40 MLOAD DUP1 SWAP2 SUB SWAP1 RETURN JUMPDEST PUSH2 0x4E8 PUSH2 0x1187 JUMP JUMPDEST PUSH1 0x40 MLOAD PUSH2 0x4F5 SWAP2 SWAP1 PUSH2 0x1D96 JUMP JUMPDEST PUSH1 0x40 MLOAD DUP1 SWAP2 SUB SWAP1 RETURN JUMPDEST PUSH2 0x506 PUSH2 0x11B1 JUMP JUMPDEST PUSH1 0x40 MLOAD PUSH2 0x513 SWAP2 SWAP1 PUSH2 0x1C71 JUMP JUMPDEST PUSH1 0x40 MLOAD DUP1 SWAP2 SUB SWAP1 RETURN JUMPDEST PUSH2 0x524 PUSH2 0x11C1 JUMP JUMPDEST PUSH1 0x40 MLOAD PUSH2 0x531 SWAP2 SWAP1 PUSH2 0x1C71 JUMP JUMPDEST PUSH1 0x40 MLOAD DUP1 SWAP2 SUB SWAP1 RETURN JUMPDEST PUSH2 0x554 PUSH1 0x4 DUP1 CALLDATASIZE SUB DUP2 ADD SWAP1 PUSH2 0x54F SWAP2 SWAP1 PUSH2 0x1DB1 JUMP JUMPDEST PUSH2 0x11C9 JUMP JUMPDEST STOP JUMPDEST PUSH2 0x570 PUSH1 0x4 DUP1 CALLDATASIZE SUB DUP2 ADD SWAP1 PUSH2 0x56B SWAP2 SWAP1 PUSH2 0x1DB1 JUMP JUMPDEST PUSH2 0x12C8 JUMP JUMPDEST STOP JUMPDEST PUSH2 0x58C PUSH1 0x4 DUP1 CALLDATASIZE SUB DUP2 ADD SWAP1 PUSH2 0x587 SWAP2 SWAP1 PUSH2 0x1C2B JUMP JUMPDEST PUSH2 0x163C JUMP JUMPDEST PUSH1 0x40 MLOAD PUSH2 0x599 SWAP2 SWAP1 PUSH2 0x1C71 JUMP JUMPDEST PUSH1 0x40 MLOAD DUP1 SWAP2 SUB SWAP1 RETURN JUMPDEST PUSH2 0x5AA PUSH2 0x1685 JUMP JUMPDEST PUSH1 0x40 MLOAD PUSH2 0x5B7 SWAP2 SWAP1 PUSH2 0x1C71 JUMP JUMPDEST PUSH1 0x40 MLOAD DUP1 SWAP2 SUB SWAP1 RETURN JUMPDEST PUSH2 0x5C8 PUSH2 0x168B JUMP JUMPDEST PUSH1 0x40 MLOAD PUSH2 0x5D5 SWAP2 SWAP1 PUSH2 0x1C71 JUMP JUMPDEST PUSH1 0x40 MLOAD DUP1 SWAP2 SUB SWAP1 RETURN JUMPDEST PUSH2 0x5E6 PUSH2 0x169B JUMP JUMPDEST PUSH1 0x40 MLOAD PUSH2 0x5F3 SWAP2 SWAP1 PUSH2 0x1E50 JUMP JUMPDEST PUSH1 0x40 MLOAD DUP1 SWAP2 SUB SWAP1 RETURN JUMPDEST PUSH2 0x616 PUSH1 0x4 DUP1 CALLDATASIZE SUB DUP2 ADD SWAP1 PUSH2 0x611 SWAP2 SWAP1 PUSH2 0x1E6B JUMP JUMPDEST PUSH2 0x16C1 JUMP JUMPDEST PUSH1 0x40 MLOAD PUSH2 0x623 SWAP2 SWAP1 PUSH2 0x1C71 JUMP JUMPDEST PUSH1 0x40 MLOAD DUP1 SWAP2 SUB SWAP1 RETURN JUMPDEST PUSH2 0x634 PUSH2 0x18A8 JUMP JUMPDEST STOP JUMPDEST PUSH2 0x63E PUSH2 0x1974 JUMP JUMPDEST PUSH1 0x40 MLOAD PUSH2 0x64B SWAP2 SWAP1 PUSH2 0x1C71 JUMP JUMPDEST PUSH1 0x40 MLOAD DUP1 SWAP2 SUB SWAP1 RETURN JUMPDEST PUSH2 0x66E PUSH1 0x4 DUP1 CALLDATASIZE SUB DUP2 ADD SWAP1 PUSH2 0x669 SWAP2 SWAP1 PUSH2 0x1C2B JUMP JUMPDEST PUSH2 0x197A JUMP JUMPDEST STOP JUMPDEST PUSH1 0x0 DUP1 PUSH2 0x6BC PUSH1 0xD PUSH1 0x0 DUP6 PUSH20 0xFFFFFFFFFFFFFFFFFFFFFFFFFFFFFFFFFFFFFFFF AND PUSH20 0xFFFFFFFFFFFFFFFFFFFFFFFFFFFFFFFFFFFFFFFF AND DUP2 MSTORE PUSH1 0x20 ADD SWAP1 DUP2 MSTORE PUSH1 0x20 ADD PUSH1 0x0 KECCAK256 SLOAD TIMESTAMP PUSH2 0x16C1 JUMP JUMPDEST SWAP1 POP PUSH2 0x7D4 PUSH1 0x4 PUSH1 0x0 DUP6 PUSH20 0xFFFFFFFFFFFFFFFFFFFFFFFFFFFFFFFFFFFFFFFF AND PUSH20 0xFFFFFFFFFFFFFFFFFFFFFFFFFFFFFFFFFFFFFFFF AND DUP2 MSTORE PUSH1 0x20 ADD SWAP1 DUP2 MSTORE PUSH1 0x20 ADD PUSH1 0x0 KECCAK256 SLOAD PUSH2 0x7C6 PUSH8 0xDE0B6B3A7640000 PUSH2 0x7B8 PUSH2 0x76A PUSH1 0xC PUSH1 0x0 DUP11 PUSH20 0xFFFFFFFFFFFFFFFFFFFFFFFFFFFFFFFFFFFFFFFF AND PUSH20 0xFFFFFFFFFFFFFFFFFFFFFFFFFFFFFFFFFFFFFFFF AND DUP2 MSTORE PUSH1 0x20 ADD SWAP1 DUP2 MSTORE PUSH1 0x20 ADD PUSH1 0x0 KECCAK256 SLOAD PUSH2 0x75C DUP9 PUSH2 0xFA3 JUMP JUMPDEST PUSH2 0x1A71 SWAP1 SWAP2 SWAP1 PUSH4 0xFFFFFFFF AND JUMP JUMPDEST PUSH1 0xF PUSH1 0x0 DUP11 PUSH20 0xFFFFFFFFFFFFFFFFFFFFFFFFFFFFFFFFFFFFFFFF AND PUSH20 0xFFFFFFFFFFFFFFFFFFFFFFFFFFFFFFFFFFFFFFFF AND DUP2 MSTORE PUSH1 0x20 ADD SWAP1 DUP2 MSTORE PUSH1 0x20 ADD PUSH1 0x0 KECCAK256 SLOAD PUSH2 0x1A87 SWAP1 SWAP2 SWAP1 PUSH4 0xFFFFFFFF AND JUMP JUMPDEST PUSH2 0x1A9D SWAP1 SWAP2 SWAP1 PUSH4 0xFFFFFFFF AND JUMP JUMPDEST PUSH2 0x1AB3 SWAP1 SWAP2 SWAP1 PUSH4 0xFFFFFFFF AND JUMP JUMPDEST SWAP2 POP POP SWAP2 SWAP1 POP JUMP JUMPDEST PUSH1 0x4 PUSH1 0x20 MSTORE DUP1 PUSH1 0x0 MSTORE PUSH1 0x40 PUSH1 0x0 KECCAK256 PUSH1 0x0 SWAP2 POP SWAP1 POP SLOAD DUP2 JUMP JUMPDEST PUSH1 0x5 SLOAD DUP2 JUMP JUMPDEST PUSH2 0x802 PUSH2 0x1AC9 JUMP JUMPDEST PUSH20 0xFFFFFFFFFFFFFFFFFFFFFFFFFFFFFFFFFFFFFFFF AND PUSH2 0x820 PUSH2 0x1187 JUMP JUMPDEST PUSH20 0xFFFFFFFFFFFFFFFFFFFFFFFFFFFFFFFFFFFFFFFF AND EQ PUSH2 0x876 JUMPI PUSH1 0x40 MLOAD PUSH32 0x8C379A000000000000000000000000000000000000000000000000000000000 DUP2 MSTORE PUSH1 0x4 ADD PUSH2 0x86D SWAP1 PUSH2 0x1F2E JUMP JUMPDEST PUSH1 0x40 MLOAD DUP1 SWAP2 SUB SWAP1 REVERT JUMPDEST DUP2 PUSH20 0xFFFFFFFFFFFFFFFFFFFFFFFFFFFFFFFFFFFFFFFF AND PUSH32 0x82F1FA40A3D82DEA3E406073819290601F436580AA7C69F9FEB61F885BDD8854 PUSH1 0x0 DUP1 DUP6 PUSH20 0xFFFFFFFFFFFFFFFFFFFFFFFFFFFFFFFFFFFFFFFF AND PUSH20 0xFFFFFFFFFFFFFFFFFFFFFFFFFFFFFFFFFFFFFFFF AND DUP2 MSTORE PUSH1 0x20 ADD SWAP1 DUP2 MSTORE PUSH1 0x20 ADD PUSH1 0x0 KECCAK256 PUSH1 0x0 SWAP1 SLOAD SWAP1 PUSH2 0x100 EXP SWAP1 DIV PUSH1 0xFF AND DUP4 PUSH1 0x40 MLOAD PUSH2 0x909 SWAP3 SWAP2 SWAP1 PUSH2 0x1F4E JUMP JUMPDEST PUSH1 0x40 MLOAD DUP1 SWAP2 SUB SWAP1 LOG2 DUP1 PUSH1 0x0 DUP1 DUP5 PUSH20 0xFFFFFFFFFFFFFFFFFFFFFFFFFFFFFFFFFFFFFFFF AND PUSH20 0xFFFFFFFFFFFFFFFFFFFFFFFFFFFFFFFFFFFFFFFF AND DUP2 MSTORE PUSH1 0x20 ADD SWAP1 DUP2 MSTORE PUSH1 0x20 ADD PUSH1 0x0 KECCAK256 PUSH1 0x0 PUSH2 0x100 EXP DUP2 SLOAD DUP2 PUSH1 0xFF MUL NOT AND SWAP1 DUP4 ISZERO ISZERO MUL OR SWAP1 SSTORE POP POP POP JUMP JUMPDEST PUSH1 0x0 DUP1 PUSH1 0x0 DUP4 PUSH20 0xFFFFFFFFFFFFFFFFFFFFFFFFFFFFFFFFFFFFFFFF AND PUSH20 0xFFFFFFFFFFFFFFFFFFFFFFFFFFFFFFFFFFFFFFFF AND DUP2 MSTORE PUSH1 0x20 ADD SWAP1 DUP2 MSTORE PUSH1 0x20 ADD PUSH1 0x0 KECCAK256 PUSH1 0x0 SWAP1 SLOAD SWAP1 PUSH2 0x100 EXP SWAP1 DIV PUSH1 0xFF AND SWAP1 POP SWAP2 SWAP1 POP JUMP JUMPDEST PUSH1 0x8 SLOAD DUP2 JUMP JUMPDEST PUSH1 0x2 DUP1 SLOAD SUB PUSH2 0xA0A JUMPI PUSH1 0x40 MLOAD PUSH32 0x8C379A000000000000000000000000000000000000000000000000000000000 DUP2 MSTORE PUSH1 0x4 ADD PUSH2 0xA01 SWAP1 PUSH2 0x1FC3 JUMP JUMPDEST PUSH1 0x40 MLOAD DUP1 SWAP2 SUB SWAP1 REVERT JUMPDEST PUSH1 0x2 DUP1 DUP2 SWAP1 SSTORE POP CALLER PUSH1 0x0 PUSH1 0xD PUSH1 0x0 DUP4 PUSH20 0xFFFFFFFFFFFFFFFFFFFFFFFFFFFFFFFFFFFFFFFF AND PUSH20 0xFFFFFFFFFFFFFFFFFFFFFFFFFFFFFFFFFFFFFFFF AND DUP2 MSTORE PUSH1 0x20 ADD SWAP1 DUP2 MSTORE PUSH1 0x20 ADD PUSH1 0x0 KECCAK256 SLOAD SWAP1 POP PUSH1 0x6 SLOAD DUP2 GT PUSH2 0xA65 JUMPI PUSH1 0x6 SLOAD SWAP1 POP JUMPDEST PUSH1 0x0 PUSH2 0xA71 DUP3 TIMESTAMP PUSH2 0x16C1 JUMP JUMPDEST SWAP1 POP PUSH2 0xA7C DUP2 PUSH2 0xFA3 JUMP JUMPDEST PUSH1 0xB DUP2 SWAP1 SSTORE POP PUSH2 0xA8A PUSH2 0xF83 JUMP JUMPDEST PUSH1 0xA DUP2 SWAP1 SSTORE POP PUSH1 0x0 PUSH20 0xFFFFFFFFFFFFFFFFFFFFFFFFFFFFFFFFFFFFFFFF AND DUP4 PUSH20 0xFFFFFFFFFFFFFFFFFFFFFFFFFFFFFFFFFFFFFFFF AND EQ PUSH2 0xB9B JUMPI PUSH2 0xACD DUP4 PUSH2 0x670 JUMP JUMPDEST PUSH1 0x4 PUSH1 0x0 DUP6 PUSH20 0xFFFFFFFFFFFFFFFFFFFFFFFFFFFFFFFFFFFFFFFF AND PUSH20 0xFFFFFFFFFFFFFFFFFFFFFFFFFFFFFFFFFFFFFFFF AND DUP2 MSTORE PUSH1 0x20 ADD SWAP1 DUP2 MSTORE PUSH1 0x20 ADD PUSH1 0x0 KECCAK256 DUP2 SWAP1 SSTORE POP PUSH1 0xB SLOAD PUSH1 0xC PUSH1 0x0 DUP6 PUSH20 0xFFFFFFFFFFFFFFFFFFFFFFFFFFFFFFFFFFFFFFFF AND PUSH20 0xFFFFFFFFFFFFFFFFFFFFFFFFFFFFFFFFFFFFFFFF AND DUP2 MSTORE PUSH1 0x20 ADD SWAP1 DUP2 MSTORE PUSH1 0x20 ADD PUSH1 0x0 KECCAK256 DUP2 SWAP1 SSTORE POP TIMESTAMP PUSH1 0xD PUSH1 0x0 DUP6 PUSH20 0xFFFFFFFFFFFFFFFFFFFFFFFFFFFFFFFFFFFFFFFF AND PUSH20 0xFFFFFFFFFFFFFFFFFFFFFFFFFFFFFFFFFFFFFFFF AND DUP2 MSTORE PUSH1 0x20 ADD SWAP1 DUP2 MSTORE PUSH1 0x20 ADD PUSH1 0x0 KECCAK256 DUP2 SWAP1 SSTORE POP JUMPDEST PUSH1 0x0 PUSH1 0x4 PUSH1 0x0 CALLER PUSH20 0xFFFFFFFFFFFFFFFFFFFFFFFFFFFFFFFFFFFFFFFF AND PUSH20 0xFFFFFFFFFFFFFFFFFFFFFFFFFFFFFFFFFFFFFFFF AND DUP2 MSTORE PUSH1 0x20 ADD SWAP1 DUP2 MSTORE PUSH1 0x20 ADD PUSH1 0x0 KECCAK256 SLOAD SWAP1 POP PUSH1 0x0 DUP2 GT ISZERO PUSH2 0xD1D JUMPI PUSH1 0x0 PUSH1 0x4 PUSH1 0x0 CALLER PUSH20 0xFFFFFFFFFFFFFFFFFFFFFFFFFFFFFFFFFFFFFFFF AND PUSH20 0xFFFFFFFFFFFFFFFFFFFFFFFFFFFFFFFFFFFFFFFF AND DUP2 MSTORE PUSH1 0x20 ADD SWAP1 DUP2 MSTORE PUSH1 0x20 ADD PUSH1 0x0 KECCAK256 DUP2 SWAP1 SSTORE POP PUSH1 0x3 PUSH1 0x0 SWAP1 SLOAD SWAP1 PUSH2 0x100 EXP SWAP1 DIV PUSH20 0xFFFFFFFFFFFFFFFFFFFFFFFFFFFFFFFFFFFFFFFF AND PUSH20 0xFFFFFFFFFFFFFFFFFFFFFFFFFFFFFFFFFFFFFFFF AND PUSH4 0xA9059CBB CALLER DUP4 PUSH1 0x40 MLOAD DUP4 PUSH4 0xFFFFFFFF AND PUSH1 0xE0 SHL DUP2 MSTORE PUSH1 0x4 ADD PUSH2 0xC8A SWAP3 SWAP2 SWAP1 PUSH2 0x1FE3 JUMP JUMPDEST PUSH1 0x20 PUSH1 0x40 MLOAD DUP1 DUP4 SUB DUP2 PUSH1 0x0 DUP8 GAS CALL ISZERO DUP1 ISZERO PUSH2 0xCA9 JUMPI RETURNDATASIZE PUSH1 0x0 DUP1 RETURNDATACOPY RETURNDATASIZE PUSH1 0x0 REVERT JUMPDEST POP POP POP POP PUSH1 0x40 MLOAD RETURNDATASIZE PUSH1 0x1F NOT PUSH1 0x1F DUP3 ADD AND DUP3 ADD DUP1 PUSH1 0x40 MSTORE POP DUP2 ADD SWAP1 PUSH2 0xCCD SWAP2 SWAP1 PUSH2 0x2021 JUMP JUMPDEST POP CALLER PUSH20 0xFFFFFFFFFFFFFFFFFFFFFFFFFFFFFFFFFFFFFFFF AND PUSH32 0xE2403640BA68FED3A2F88B7557551D1993F84B99BB10FF833F0CF8DB0C5E0486 DUP3 PUSH1 0x40 MLOAD PUSH2 0xD14 SWAP2 SWAP1 PUSH2 0x1C71 JUMP JUMPDEST PUSH1 0x40 MLOAD DUP1 SWAP2 SUB SWAP1 LOG2 JUMPDEST POP POP POP POP PUSH1 0x1 PUSH1 0x2 DUP2 SWAP1 SSTORE POP JUMP JUMPDEST PUSH2 0xD3B PUSH2 0xD36 PUSH2 0x1AC9 JUMP JUMPDEST PUSH2 0x96B JUMP JUMPDEST PUSH2 0xD7A JUMPI PUSH1 0x40 MLOAD PUSH32 0x8C379A000000000000000000000000000000000000000000000000000000000 DUP2 MSTORE PUSH1 0x4 ADD PUSH2 0xD71 SWAP1 PUSH2 0x20C0 JUMP JUMPDEST PUSH1 0x40 MLOAD DUP1 SWAP2 SUB SWAP1 REVERT JUMPDEST DUP1 PUSH1 0x6 DUP2 SWAP1 SSTORE POP POP JUMP JUMPDEST PUSH1 0x0 DUP1 PUSH1 0x6 SLOAD SUB PUSH2 0xD99 JUMPI PUSH1 0x6 SLOAD SWAP1 POP PUSH2 0xE16 JUMP JUMPDEST PUSH1 0x0 PUSH1 0x1 PUSH1 0x7 SLOAD PUSH1 0x6 SLOAD DUP6 PUSH2 0xDAE SWAP2 SWAP1 PUSH2 0x210F JUMP JUMPDEST PUSH2 0xDB8 SWAP2 SWAP1 PUSH2 0x2172 JUMP JUMPDEST PUSH2 0xDC2 SWAP2 SWAP1 PUSH2 0x21A3 JUMP JUMPDEST SWAP1 POP PUSH1 0x0 PUSH1 0x5 SLOAD SWAP1 POP PUSH1 0x0 JUMPDEST DUP3 DUP2 LT ISZERO PUSH2 0xE0F JUMPI PUSH1 0x9 SLOAD PUSH1 0x8 SLOAD DUP4 PUSH2 0xDE7 SWAP2 SWAP1 PUSH2 0x21D7 JUMP JUMPDEST PUSH2 0xDF1 SWAP2 SWAP1 PUSH2 0x2172 JUMP JUMPDEST DUP3 PUSH2 0xDFC SWAP2 SWAP1 PUSH2 0x210F JUMP JUMPDEST SWAP2 POP DUP1 PUSH2 0xE08 SWAP1 PUSH2 0x2219 JUMP JUMPDEST SWAP1 POP PUSH2 0xDCE JUMP JUMPDEST POP DUP1 SWAP3 POP POP POP JUMPDEST SWAP2 SWAP1 POP JUMP JUMPDEST PUSH1 0x0 DUP1 PUSH1 0x6 SLOAD SUB PUSH2 0xE30 JUMPI PUSH1 0x5 SLOAD SWAP1 POP PUSH2 0xEDA JUMP JUMPDEST PUSH1 0x6 SLOAD DUP3 LT ISZERO PUSH2 0xE43 JUMPI PUSH1 0x0 SWAP1 POP PUSH2 0xEDA JUMP JUMPDEST PUSH1 0x0 PUSH1 0x1 PUSH1 0x7 SLOAD PUSH1 0x6 SLOAD DUP6 PUSH2 0xE58 SWAP2 SWAP1 PUSH2 0x210F JUMP JUMPDEST PUSH2 0xE62 SWAP2 SWAP1 PUSH2 0x2172 JUMP JUMPDEST PUSH2 0xE6C SWAP2 SWAP1 PUSH2 0x21A3 JUMP JUMPDEST SWAP1 POP PUSH1 0x0 PUSH1 0x5 SLOAD SWAP1 POP PUSH1 0x0 JUMPDEST DUP3 DUP2 LT ISZERO PUSH2 0xEB9 JUMPI PUSH1 0x9 SLOAD PUSH1 0x8 SLOAD DUP4 PUSH2 0xE91 SWAP2 SWAP1 PUSH2 0x21D7 JUMP JUMPDEST PUSH2 0xE9B SWAP2 SWAP1 PUSH2 0x2172 JUMP JUMPDEST DUP3 PUSH2 0xEA6 SWAP2 SWAP1 PUSH2 0x210F JUMP JUMPDEST SWAP2 POP DUP1 PUSH2 0xEB2 SWAP1 PUSH2 0x2219 JUMP JUMPDEST SWAP1 POP PUSH2 0xE78 JUMP JUMPDEST POP PUSH1 0x9 SLOAD PUSH1 0x8 SLOAD DUP3 PUSH2 0xECB SWAP2 SWAP1 PUSH2 0x21D7 JUMP JUMPDEST PUSH2 0xED5 SWAP2 SWAP1 PUSH2 0x2172 JUMP JUMPDEST SWAP3 POP POP POP JUMPDEST SWAP2 SWAP1 POP JUMP JUMPDEST PUSH1 0x7 SLOAD DUP2 JUMP JUMPDEST PUSH1 0x0 PUSH1 0xE SLOAD SWAP1 POP SWAP1 JUMP JUMPDEST PUSH2 0xEF7 PUSH2 0x1AC9 JUMP JUMPDEST PUSH20 0xFFFFFFFFFFFFFFFFFFFFFFFFFFFFFFFFFFFFFFFF AND PUSH2 0xF15 PUSH2 0x1187 JUMP JUMPDEST PUSH20 0xFFFFFFFFFFFFFFFFFFFFFFFFFFFFFFFFFFFFFFFF AND EQ PUSH2 0xF6B JUMPI PUSH1 0x40 MLOAD PUSH32 0x8C379A000000000000000000000000000000000000000000000000000000000 DUP2 MSTORE PUSH1 0x4 ADD PUSH2 0xF62 SWAP1 PUSH2 0x1F2E JUMP JUMPDEST PUSH1 0x40 MLOAD DUP1 SWAP2 SUB SWAP1 REVERT JUMPDEST PUSH2 0xF75 PUSH1 0x0 PUSH2 0x1AD1 JUMP JUMPDEST JUMP JUMPDEST PUSH1 0x6 SLOAD DUP2 JUMP JUMPDEST PUSH1 0x9 SLOAD DUP2 JUMP JUMPDEST PUSH1 0x0 TIMESTAMP SWAP1 POP SWAP1 JUMP JUMPDEST PUSH1 0xD PUSH1 0x20 MSTORE DUP1 PUSH1 0x0 MSTORE PUSH1 0x40 PUSH1 0x0 KECCAK256 PUSH1 0x0 SWAP2 POP SWAP1 POP SLOAD DUP2 JUMP JUMPDEST PUSH1 0x0 DUP1 PUSH1 0xE SLOAD SUB PUSH2 0xFB8 JUMPI PUSH1 0xB SLOAD SWAP1 POP PUSH2 0x102B JUMP JUMPDEST PUSH2 0x1028 PUSH2 0x1017 PUSH1 0xE SLOAD PUSH2 0x1009 PUSH8 0xDE0B6B3A7640000 PUSH2 0xFFB DUP8 PUSH2 0xFED PUSH1 0xA SLOAD PUSH2 0xFDF PUSH2 0xF83 JUMP JUMPDEST PUSH2 0x1A71 SWAP1 SWAP2 SWAP1 PUSH4 0xFFFFFFFF AND JUMP JUMPDEST PUSH2 0x1A87 SWAP1 SWAP2 SWAP1 PUSH4 0xFFFFFFFF AND JUMP JUMPDEST PUSH2 0x1A87 SWAP1 SWAP2 SWAP1 PUSH4 0xFFFFFFFF AND JUMP JUMPDEST PUSH2 0x1A9D SWAP1 SWAP2 SWAP1 PUSH4 0xFFFFFFFF AND JUMP JUMPDEST PUSH1 0xB SLOAD PUSH2 0x1AB3 SWAP1 SWAP2 SWAP1 PUSH4 0xFFFFFFFF AND JUMP JUMPDEST SWAP1 POP JUMPDEST SWAP2 SWAP1 POP JUMP JUMPDEST PUSH2 0x1038 PUSH2 0x1AC9 JUMP JUMPDEST PUSH20 0xFFFFFFFFFFFFFFFFFFFFFFFFFFFFFFFFFFFFFFFF AND PUSH2 0x1056 PUSH2 0x1187 JUMP JUMPDEST PUSH20 0xFFFFFFFFFFFFFFFFFFFFFFFFFFFFFFFFFFFFFFFF AND EQ PUSH2 0x10AC JUMPI PUSH1 0x40 MLOAD PUSH32 0x8C379A000000000000000000000000000000000000000000000000000000000 DUP2 MSTORE PUSH1 0x4 ADD PUSH2 0x10A3 SWAP1 PUSH2 0x1F2E JUMP JUMPDEST PUSH1 0x40 MLOAD DUP1 SWAP2 SUB SWAP1 REVERT JUMPDEST POP JUMP JUMPDEST PUSH2 0x10B7 PUSH2 0x1AC9 JUMP JUMPDEST PUSH20 0xFFFFFFFFFFFFFFFFFFFFFFFFFFFFFFFFFFFFFFFF AND PUSH2 0x10D5 PUSH2 0x1187 JUMP JUMPDEST PUSH20 0xFFFFFFFFFFFFFFFFFFFFFFFFFFFFFFFFFFFFFFFF AND EQ PUSH2 0x112B JUMPI PUSH1 0x40 MLOAD PUSH32 0x8C379A000000000000000000000000000000000000000000000000000000000 DUP2 MSTORE PUSH1 0x4 ADD PUSH2 0x1122 SWAP1 PUSH2 0x1F2E JUMP JUMPDEST PUSH1 0x40 MLOAD DUP1 SWAP2 SUB SWAP1 REVERT JUMPDEST DUP1 PUSH1 0x3 PUSH1 0x0 PUSH2 0x100 EXP DUP2 SLOAD DUP2 PUSH20 0xFFFFFFFFFFFFFFFFFFFFFFFFFFFFFFFFFFFFFFFF MUL NOT AND SWAP1 DUP4 PUSH20 0xFFFFFFFFFFFFFFFFFFFFFFFFFFFFFFFFFFFFFFFF AND MUL OR SWAP1 SSTORE POP POP JUMP JUMPDEST PUSH1 0xC PUSH1 0x20 MSTORE DUP1 PUSH1 0x0 MSTORE PUSH1 0x40 PUSH1 0x0 KECCAK256 PUSH1 0x0 SWAP2 POP SWAP1 POP SLOAD DUP2 JUMP JUMPDEST PUSH1 0x0 PUSH1 0x1 PUSH1 0x0 SWAP1 SLOAD SWAP1 PUSH2 0x100 EXP SWAP1 DIV PUSH20 0xFFFFFFFFFFFFFFFFFFFFFFFFFFFFFFFFFFFFFFFF AND SWAP1 POP SWAP1 JUMP JUMPDEST PUSH1 0x0 PUSH2 0x11BC TIMESTAMP PUSH2 0xE1B JUMP JUMPDEST SWAP1 POP SWAP1 JUMP JUMPDEST PUSH1 0x0 TIMESTAMP SWAP1 POP SWAP1 JUMP JUMPDEST PUSH2 0x11D1 PUSH2 0x1AC9 JUMP JUMPDEST PUSH20 0xFFFFFFFFFFFFFFFFFFFFFFFFFFFFFFFFFFFFFFFF AND PUSH2 0x11EF PUSH2 0x1187 JUMP JUMPDEST PUSH20 0xFFFFFFFFFFFFFFFFFFFFFFFFFFFFFFFFFFFFFFFF AND EQ PUSH2 0x1245 JUMPI PUSH1 0x40 MLOAD PUSH32 0x8C379A000000000000000000000000000000000000000000000000000000000 DUP2 MSTORE PUSH1 0x4 ADD PUSH2 0x123C SWAP1 PUSH2 0x1F2E JUMP JUMPDEST PUSH1 0x40 MLOAD DUP1 SWAP2 SUB SWAP1 REVERT JUMPDEST DUP2 PUSH20 0xFFFFFFFFFFFFFFFFFFFFFFFFFFFFFFFFFFFFFFFF AND PUSH4 0xA9059CBB CALLER DUP4 PUSH1 0x40 MLOAD DUP4 PUSH4 0xFFFFFFFF AND PUSH1 0xE0 SHL DUP2 MSTORE PUSH1 0x4 ADD PUSH2 0x1280 SWAP3 SWAP2 SWAP1 PUSH2 0x1FE3 JUMP JUMPDEST PUSH1 0x20 PUSH1 0x40 MLOAD DUP1 DUP4 SUB DUP2 PUSH1 0x0 DUP8 GAS CALL ISZERO DUP1 ISZERO PUSH2 0x129F JUMPI RETURNDATASIZE PUSH1 0x0 DUP1 RETURNDATACOPY RETURNDATASIZE PUSH1 0x0 REVERT JUMPDEST POP POP POP POP PUSH1 0x40 MLOAD RETURNDATASIZE PUSH1 0x1F NOT PUSH1 0x1F DUP3 ADD AND DUP3 ADD DUP1 PUSH1 0x40 MSTORE POP DUP2 ADD SWAP1 PUSH2 0x12C3 SWAP2 SWAP1 PUSH2 0x2021 JUMP JUMPDEST POP POP POP JUMP JUMPDEST PUSH1 0x2 DUP1 SLOAD SUB PUSH2 0x130C JUMPI PUSH1 0x40 MLOAD PUSH32 0x8C379A000000000000000000000000000000000000000000000000000000000 DUP2 MSTORE PUSH1 0x4 ADD PUSH2 0x1303 SWAP1 PUSH2 0x1FC3 JUMP JUMPDEST PUSH1 0x40 MLOAD DUP1 SWAP2 SUB SWAP1 REVERT JUMPDEST PUSH1 0x2 DUP1 DUP2 SWAP1 SSTORE POP PUSH2 0x1323 PUSH2 0x131E PUSH2 0x1AC9 JUMP JUMPDEST PUSH2 0x96B JUMP JUMPDEST PUSH2 0x1362 JUMPI PUSH1 0x40 MLOAD PUSH32 0x8C379A000000000000000000000000000000000000000000000000000000000 DUP2 MSTORE PUSH1 0x4 ADD PUSH2 0x1359 SWAP1 PUSH2 0x20C0 JUMP JUMPDEST PUSH1 0x40 MLOAD DUP1 SWAP2 SUB SWAP1 REVERT JUMPDEST DUP2 PUSH1 0x0 PUSH1 0xD PUSH1 0x0 DUP4 PUSH20 0xFFFFFFFFFFFFFFFFFFFFFFFFFFFFFFFFFFFFFFFF AND PUSH20 0xFFFFFFFFFFFFFFFFFFFFFFFFFFFFFFFFFFFFFFFF AND DUP2 MSTORE PUSH1 0x20 ADD SWAP1 DUP2 MSTORE PUSH1 0x20 ADD PUSH1 0x0 KECCAK256 SLOAD SWAP1 POP PUSH1 0x6 SLOAD DUP2 GT PUSH2 0x13B6 JUMPI PUSH1 0x6 SLOAD SWAP1 POP JUMPDEST PUSH1 0x0 PUSH2 0x13C2 DUP3 TIMESTAMP PUSH2 0x16C1 JUMP JUMPDEST SWAP1 POP PUSH2 0x13CD DUP2 PUSH2 0xFA3 JUMP JUMPDEST PUSH1 0xB DUP2 SWAP1 SSTORE POP PUSH2 0x13DB PUSH2 0xF83 JUMP JUMPDEST PUSH1 0xA DUP2 SWAP1 SSTORE POP PUSH1 0x0 PUSH20 0xFFFFFFFFFFFFFFFFFFFFFFFFFFFFFFFFFFFFFFFF AND DUP4 PUSH20 0xFFFFFFFFFFFFFFFFFFFFFFFFFFFFFFFFFFFFFFFF AND EQ PUSH2 0x14EC JUMPI PUSH2 0x141E DUP4 PUSH2 0x670 JUMP JUMPDEST PUSH1 0x4 PUSH1 0x0 DUP6 PUSH20 0xFFFFFFFFFFFFFFFFFFFFFFFFFFFFFFFFFFFFFFFF AND PUSH20 0xFFFFFFFFFFFFFFFFFFFFFFFFFFFFFFFFFFFFFFFF AND DUP2 MSTORE PUSH1 0x20 ADD SWAP1 DUP2 MSTORE PUSH1 0x20 ADD PUSH1 0x0 KECCAK256 DUP2 SWAP1 SSTORE POP PUSH1 0xB SLOAD PUSH1 0xC PUSH1 0x0 DUP6 PUSH20 0xFFFFFFFFFFFFFFFFFFFFFFFFFFFFFFFFFFFFFFFF AND PUSH20 0xFFFFFFFFFFFFFFFFFFFFFFFFFFFFFFFFFFFFFFFF AND DUP2 MSTORE PUSH1 0x20 ADD SWAP1 DUP2 MSTORE PUSH1 0x20 ADD PUSH1 0x0 KECCAK256 DUP2 SWAP1 SSTORE POP TIMESTAMP PUSH1 0xD PUSH1 0x0 DUP6 PUSH20 0xFFFFFFFFFFFFFFFFFFFFFFFFFFFFFFFFFFFFFFFF AND PUSH20 0xFFFFFFFFFFFFFFFFFFFFFFFFFFFFFFFFFFFFFFFF AND DUP2 MSTORE PUSH1 0x20 ADD SWAP1 DUP2 MSTORE PUSH1 0x20 ADD PUSH1 0x0 KECCAK256 DUP2 SWAP1 SSTORE POP JUMPDEST PUSH1 0x0 DUP5 GT PUSH2 0x152F JUMPI PUSH1 0x40 MLOAD PUSH32 0x8C379A000000000000000000000000000000000000000000000000000000000 DUP2 MSTORE PUSH1 0x4 ADD PUSH2 0x1526 SWAP1 PUSH2 0x22AD JUMP JUMPDEST PUSH1 0x40 MLOAD DUP1 SWAP2 SUB SWAP1 REVERT JUMPDEST PUSH2 0x1544 DUP5 PUSH1 0xE SLOAD PUSH2 0x1AB3 SWAP1 SWAP2 SWAP1 PUSH4 0xFFFFFFFF AND JUMP JUMPDEST PUSH1 0xE DUP2 SWAP1 SSTORE POP PUSH2 0x159C DUP5 PUSH1 0xF PUSH1 0x0 DUP9 PUSH20 0xFFFFFFFFFFFFFFFFFFFFFFFFFFFFFFFFFFFFFFFF AND PUSH20 0xFFFFFFFFFFFFFFFFFFFFFFFFFFFFFFFFFFFFFFFF AND DUP2 MSTORE PUSH1 0x20 ADD SWAP1 DUP2 MSTORE PUSH1 0x20 ADD PUSH1 0x0 KECCAK256 SLOAD PUSH2 0x1AB3 SWAP1 SWAP2 SWAP1 PUSH4 0xFFFFFFFF AND JUMP JUMPDEST PUSH1 0xF PUSH1 0x0 DUP8 PUSH20 0xFFFFFFFFFFFFFFFFFFFFFFFFFFFFFFFFFFFFFFFF AND PUSH20 0xFFFFFFFFFFFFFFFFFFFFFFFFFFFFFFFFFFFFFFFF AND DUP2 MSTORE PUSH1 0x20 ADD SWAP1 DUP2 MSTORE PUSH1 0x20 ADD PUSH1 0x0 KECCAK256 DUP2 SWAP1 SSTORE POP DUP5 PUSH20 0xFFFFFFFFFFFFFFFFFFFFFFFFFFFFFFFFFFFFFFFF AND PUSH32 0x9E71BC8EEA02A63969F509818F2DAFB9254532904319F9DBDA79B67BD34A5F3D DUP6 PUSH1 0x40 MLOAD PUSH2 0x1625 SWAP2 SWAP1 PUSH2 0x1C71 JUMP JUMPDEST PUSH1 0x40 MLOAD DUP1 SWAP2 SUB SWAP1 LOG2 POP POP POP PUSH1 0x1 PUSH1 0x2 DUP2 SWAP1 SSTORE POP POP POP JUMP JUMPDEST PUSH1 0x0 PUSH1 0xF PUSH1 0x0 DUP4 PUSH20 0xFFFFFFFFFFFFFFFFFFFFFFFFFFFFFFFFFFFFFFFF AND PUSH20 0xFFFFFFFFFFFFFFFFFFFFFFFFFFFFFFFFFFFFFFFF AND DUP2 MSTORE PUSH1 0x20 ADD SWAP1 DUP2 MSTORE PUSH1 0x20 ADD PUSH1 0x0 KECCAK256 SLOAD SWAP1 POP SWAP2 SWAP1 POP JUMP JUMPDEST PUSH1 0xA SLOAD DUP2 JUMP JUMPDEST PUSH1 0x0 PUSH2 0x1696 TIMESTAMP PUSH2 0x1B97 JUMP JUMPDEST SWAP1 POP SWAP1 JUMP JUMPDEST PUSH1 0x3 PUSH1 0x0 SWAP1 SLOAD SWAP1 PUSH2 0x100 EXP SWAP1 DIV PUSH20 0xFFFFFFFFFFFFFFFFFFFFFFFFFFFFFFFFFFFFFFFF AND DUP2 JUMP JUMPDEST PUSH1 0x0 DUP1 PUSH1 0x6 SLOAD EQ DUP1 PUSH2 0x16D3 JUMPI POP DUP2 DUP4 LT ISZERO JUMPDEST DUP1 PUSH2 0x16DE JUMPI POP PUSH1 0x0 DUP4 EQ JUMPDEST ISZERO PUSH2 0x16EC JUMPI PUSH1 0x0 SWAP1 POP PUSH2 0x18A2 JUMP JUMPDEST PUSH1 0x6 SLOAD DUP4 LT ISZERO PUSH2 0x16FC JUMPI PUSH1 0x6 SLOAD SWAP3 POP JUMPDEST PUSH1 0x0 PUSH1 0x7 SLOAD PUSH1 0x7 SLOAD PUSH1 0x6 SLOAD DUP7 PUSH2 0x1712 SWAP2 SWAP1 PUSH2 0x210F JUMP JUMPDEST PUSH2 0x171C SWAP2 SWAP1 PUSH2 0x22CD JUMP JUMPDEST PUSH1 0x7 SLOAD PUSH2 0x1729 SWAP2 SWAP1 PUSH2 0x210F JUMP JUMPDEST PUSH2 0x1733 SWAP2 SWAP1 PUSH2 0x22CD JUMP JUMPDEST SWAP1 POP PUSH1 0x0 PUSH1 0x7 SLOAD DUP3 PUSH2 0x1744 DUP8 PUSH2 0xE1B JUMP JUMPDEST PUSH2 0x174E SWAP2 SWAP1 PUSH2 0x21D7 JUMP JUMPDEST PUSH2 0x1758 SWAP2 SWAP1 PUSH2 0x2172 JUMP JUMPDEST SWAP1 POP PUSH1 0x0 PUSH1 0x7 SLOAD PUSH1 0x6 SLOAD DUP7 PUSH2 0x176D SWAP2 SWAP1 PUSH2 0x210F JUMP JUMPDEST PUSH2 0x1777 SWAP2 SWAP1 PUSH2 0x22CD JUMP JUMPDEST SWAP1 POP PUSH1 0x0 PUSH1 0x7 SLOAD DUP3 PUSH2 0x1788 DUP9 PUSH2 0xE1B JUMP JUMPDEST PUSH2 0x1792 SWAP2 SWAP1 PUSH2 0x21D7 JUMP JUMPDEST PUSH2 0x179C SWAP2 SWAP1 PUSH2 0x2172 JUMP JUMPDEST SWAP1 POP DUP6 DUP5 DUP9 PUSH2 0x17AB SWAP2 SWAP1 PUSH2 0x21A3 JUMP JUMPDEST GT ISZERO PUSH2 0x17C5 JUMPI PUSH2 0x17BA DUP8 PUSH2 0x1B97 JUMP JUMPDEST SWAP5 POP POP POP POP POP PUSH2 0x18A2 JUMP JUMPDEST PUSH1 0x0 DUP5 DUP9 DUP5 DUP10 PUSH2 0x17D5 SWAP2 SWAP1 PUSH2 0x210F JUMP JUMPDEST PUSH2 0x17DF SWAP2 SWAP1 PUSH2 0x210F JUMP JUMPDEST PUSH2 0x17E9 SWAP2 SWAP1 PUSH2 0x210F JUMP JUMPDEST SWAP1 POP PUSH1 0x0 PUSH2 0x17F6 DUP10 PUSH2 0xD84 JUMP JUMPDEST SWAP1 POP PUSH1 0x0 DUP1 PUSH1 0x0 DUP4 SWAP1 POP PUSH1 0x0 PUSH1 0x7 SLOAD DUP7 PUSH2 0x1810 SWAP2 SWAP1 PUSH2 0x2172 JUMP JUMPDEST SWAP1 POP PUSH1 0x0 JUMPDEST DUP2 DUP2 LT ISZERO PUSH2 0x1867 JUMPI PUSH1 0x9 SLOAD PUSH1 0x8 SLOAD DUP5 PUSH2 0x182E SWAP2 SWAP1 PUSH2 0x21D7 JUMP JUMPDEST PUSH2 0x1838 SWAP2 SWAP1 PUSH2 0x2172 JUMP JUMPDEST SWAP4 POP DUP4 DUP4 PUSH2 0x1846 SWAP2 SWAP1 PUSH2 0x210F JUMP JUMPDEST SWAP3 POP DUP4 DUP6 PUSH2 0x1854 SWAP2 SWAP1 PUSH2 0x21A3 JUMP JUMPDEST SWAP5 POP DUP1 PUSH2 0x1860 SWAP1 PUSH2 0x2219 JUMP JUMPDEST SWAP1 POP PUSH2 0x1815 JUMP JUMPDEST POP DUP13 DUP13 PUSH2 0x1874 SWAP2 SWAP1 PUSH2 0x210F JUMP JUMPDEST DUP8 DUP11 DUP7 PUSH2 0x1881 SWAP2 SWAP1 PUSH2 0x21A3 JUMP JUMPDEST PUSH2 0x188B SWAP2 SWAP1 PUSH2 0x21A3 JUMP JUMPDEST PUSH2 0x1895 SWAP2 SWAP1 PUSH2 0x2172 JUMP JUMPDEST SWAP11 POP POP POP POP POP POP POP POP POP POP POP JUMPDEST SWAP3 SWAP2 POP POP JUMP JUMPDEST PUSH2 0x18B0 PUSH2 0x1AC9 JUMP JUMPDEST PUSH20 0xFFFFFFFFFFFFFFFFFFFFFFFFFFFFFFFFFFFFFFFF AND PUSH2 0x18CE PUSH2 0x1187 JUMP JUMPDEST PUSH20 0xFFFFFFFFFFFFFFFFFFFFFFFFFFFFFFFFFFFFFFFF AND EQ PUSH2 0x1924 JUMPI PUSH1 0x40 MLOAD PUSH32 0x8C379A000000000000000000000000000000000000000000000000000000000 DUP2 MSTORE PUSH1 0x4 ADD PUSH2 0x191B SWAP1 PUSH2 0x1F2E JUMP JUMPDEST PUSH1 0x40 MLOAD DUP1 SWAP2 SUB SWAP1 REVERT JUMPDEST PUSH2 0x192C PUSH2 0x1187 JUMP JUMPDEST PUSH20 0xFFFFFFFFFFFFFFFFFFFFFFFFFFFFFFFFFFFFFFFF AND PUSH2 0x8FC SELFBALANCE SWAP1 DUP2 ISZERO MUL SWAP1 PUSH1 0x40 MLOAD PUSH1 0x0 PUSH1 0x40 MLOAD DUP1 DUP4 SUB DUP2 DUP6 DUP9 DUP9 CALL SWAP4 POP POP POP POP ISZERO DUP1 ISZERO PUSH2 0x1971 JUMPI RETURNDATASIZE PUSH1 0x0 DUP1 RETURNDATACOPY RETURNDATASIZE PUSH1 0x0 REVERT JUMPDEST POP JUMP JUMPDEST PUSH1 0xB SLOAD DUP2 JUMP JUMPDEST PUSH2 0x1982 PUSH2 0x1AC9 JUMP JUMPDEST PUSH20 0xFFFFFFFFFFFFFFFFFFFFFFFFFFFFFFFFFFFFFFFF AND PUSH2 0x19A0 PUSH2 0x1187 JUMP JUMPDEST PUSH20 0xFFFFFFFFFFFFFFFFFFFFFFFFFFFFFFFFFFFFFFFF AND EQ PUSH2 0x19F6 JUMPI PUSH1 0x40 MLOAD PUSH32 0x8C379A000000000000000000000000000000000000000000000000000000000 DUP2 MSTORE PUSH1 0x4 ADD PUSH2 0x19ED SWAP1 PUSH2 0x1F2E JUMP JUMPDEST PUSH1 0x40 MLOAD DUP1 SWAP2 SUB SWAP1 REVERT JUMPDEST PUSH1 0x0 PUSH20 0xFFFFFFFFFFFFFFFFFFFFFFFFFFFFFFFFFFFFFFFF AND DUP2 PUSH20 0xFFFFFFFFFFFFFFFFFFFFFFFFFFFFFFFFFFFFFFFF AND SUB PUSH2 0x1A65 JUMPI PUSH1 0x40 MLOAD PUSH32 0x8C379A000000000000000000000000000000000000000000000000000000000 DUP2 MSTORE PUSH1 0x4 ADD PUSH2 0x1A5C SWAP1 PUSH2 0x2370 JUMP JUMPDEST PUSH1 0x40 MLOAD DUP1 SWAP2 SUB SWAP1 REVERT JUMPDEST PUSH2 0x1A6E DUP2 PUSH2 0x1AD1 JUMP JUMPDEST POP JUMP JUMPDEST PUSH1 0x0 DUP2 DUP4 PUSH2 0x1A7F SWAP2 SWAP1 PUSH2 0x210F JUMP JUMPDEST SWAP1 POP SWAP3 SWAP2 POP POP JUMP JUMPDEST PUSH1 0x0 DUP2 DUP4 PUSH2 0x1A95 SWAP2 SWAP1 PUSH2 0x21D7 JUMP JUMPDEST SWAP1 POP SWAP3 SWAP2 POP POP JUMP JUMPDEST PUSH1 0x0 DUP2 DUP4 PUSH2 0x1AAB SWAP2 SWAP1 PUSH2 0x2172 JUMP JUMPDEST SWAP1 POP SWAP3 SWAP2 POP POP JUMP JUMPDEST PUSH1 0x0 DUP2 DUP4 PUSH2 0x1AC1 SWAP2 SWAP1 PUSH2 0x21A3 JUMP JUMPDEST SWAP1 POP SWAP3 SWAP2 POP POP JUMP JUMPDEST PUSH1 0x0 CALLER SWAP1 POP SWAP1 JUMP JUMPDEST PUSH1 0x0 PUSH1 0x1 PUSH1 0x0 SWAP1 SLOAD SWAP1 PUSH2 0x100 EXP SWAP1 DIV PUSH20 0xFFFFFFFFFFFFFFFFFFFFFFFFFFFFFFFFFFFFFFFF AND SWAP1 POP DUP2 PUSH1 0x1 PUSH1 0x0 PUSH2 0x100 EXP DUP2 SLOAD DUP2 PUSH20 0xFFFFFFFFFFFFFFFFFFFFFFFFFFFFFFFFFFFFFFFF MUL NOT AND SWAP1 DUP4 PUSH20 0xFFFFFFFFFFFFFFFFFFFFFFFFFFFFFFFFFFFFFFFF AND MUL OR SWAP1 SSTORE POP DUP2 PUSH20 0xFFFFFFFFFFFFFFFFFFFFFFFFFFFFFFFFFFFFFFFF AND DUP2 PUSH20 0xFFFFFFFFFFFFFFFFFFFFFFFFFFFFFFFFFFFFFFFF AND PUSH32 0x8BE0079C531659141344CD1FD0A4F28419497F9722A3DAAFE3B4186F6B6457E0 PUSH1 0x40 MLOAD PUSH1 0x40 MLOAD DUP1 SWAP2 SUB SWAP1 LOG3 POP POP JUMP JUMPDEST PUSH1 0x0 DUP1 PUSH2 0x1BA3 DUP4 PUSH2 0xE1B JUMP JUMPDEST SWAP1 POP PUSH1 0x0 PUSH2 0x1BBC PUSH1 0x7 SLOAD DUP4 PUSH2 0x1A9D SWAP1 SWAP2 SWAP1 PUSH4 0xFFFFFFFF AND JUMP JUMPDEST SWAP1 POP DUP1 SWAP3 POP POP POP SWAP2 SWAP1 POP JUMP JUMPDEST PUSH1 0x0 DUP1 REVERT JUMPDEST PUSH1 0x0 PUSH20 0xFFFFFFFFFFFFFFFFFFFFFFFFFFFFFFFFFFFFFFFF DUP3 AND SWAP1 POP SWAP2 SWAP1 POP JUMP JUMPDEST PUSH1 0x0 PUSH2 0x1BF8 DUP3 PUSH2 0x1BCD JUMP JUMPDEST SWAP1 POP SWAP2 SWAP1 POP JUMP JUMPDEST PUSH2 0x1C08 DUP2 PUSH2 0x1BED JUMP JUMPDEST DUP2 EQ PUSH2 0x1C13 JUMPI PUSH1 0x0 DUP1 REVERT JUMPDEST POP JUMP JUMPDEST PUSH1 0x0 DUP2 CALLDATALOAD SWAP1 POP PUSH2 0x1C25 DUP2 PUSH2 0x1BFF JUMP JUMPDEST SWAP3 SWAP2 POP POP JUMP JUMPDEST PUSH1 0x0 PUSH1 0x20 DUP3 DUP5 SUB SLT ISZERO PUSH2 0x1C41 JUMPI PUSH2 0x1C40 PUSH2 0x1BC8 JUMP JUMPDEST JUMPDEST PUSH1 0x0 PUSH2 0x1C4F DUP5 DUP3 DUP6 ADD PUSH2 0x1C16 JUMP JUMPDEST SWAP2 POP POP SWAP3 SWAP2 POP POP JUMP JUMPDEST PUSH1 0x0 DUP2 SWAP1 POP SWAP2 SWAP1 POP JUMP JUMPDEST PUSH2 0x1C6B DUP2 PUSH2 0x1C58 JUMP JUMPDEST DUP3 MSTORE POP POP JUMP JUMPDEST PUSH1 0x0 PUSH1 0x20 DUP3 ADD SWAP1 POP PUSH2 0x1C86 PUSH1 0x0 DUP4 ADD DUP5 PUSH2 0x1C62 JUMP JUMPDEST SWAP3 SWAP2 POP POP JUMP JUMPDEST PUSH1 0x0 DUP2 ISZERO ISZERO SWAP1 POP SWAP2 SWAP1 POP JUMP JUMPDEST PUSH2 0x1CA1 DUP2 PUSH2 0x1C8C JUMP JUMPDEST DUP2 EQ PUSH2 0x1CAC JUMPI PUSH1 0x0 DUP1 REVERT JUMPDEST POP JUMP JUMPDEST PUSH1 0x0 DUP2 CALLDATALOAD SWAP1 POP PUSH2 0x1CBE DUP2 PUSH2 0x1C98 JUMP JUMPDEST SWAP3 SWAP2 POP POP JUMP JUMPDEST PUSH1 0x0 DUP1 PUSH1 0x40 DUP4 DUP6 SUB SLT ISZERO PUSH2 0x1CDB JUMPI PUSH2 0x1CDA PUSH2 0x1BC8 JUMP JUMPDEST JUMPDEST PUSH1 0x0 PUSH2 0x1CE9 DUP6 DUP3 DUP7 ADD PUSH2 0x1C16 JUMP JUMPDEST SWAP3 POP POP PUSH1 0x20 PUSH2 0x1CFA DUP6 DUP3 DUP7 ADD PUSH2 0x1CAF JUMP JUMPDEST SWAP2 POP POP SWAP3 POP SWAP3 SWAP1 POP JUMP JUMPDEST PUSH2 0x1D0D DUP2 PUSH2 0x1C8C JUMP JUMPDEST DUP3 MSTORE POP POP JUMP JUMPDEST PUSH1 0x0 PUSH1 0x20 DUP3 ADD SWAP1 POP PUSH2 0x1D28 PUSH1 0x0 DUP4 ADD DUP5 PUSH2 0x1D04 JUMP JUMPDEST SWAP3 SWAP2 POP POP JUMP JUMPDEST PUSH2 0x1D37 DUP2 PUSH2 0x1C58 JUMP JUMPDEST DUP2 EQ PUSH2 0x1D42 JUMPI PUSH1 0x0 DUP1 REVERT JUMPDEST POP JUMP JUMPDEST PUSH1 0x0 DUP2 CALLDATALOAD SWAP1 POP PUSH2 0x1D54 DUP2 PUSH2 0x1D2E JUMP JUMPDEST SWAP3 SWAP2 POP POP JUMP JUMPDEST PUSH1 0x0 PUSH1 0x20 DUP3 DUP5 SUB SLT ISZERO PUSH2 0x1D70 JUMPI PUSH2 0x1D6F PUSH2 0x1BC8 JUMP JUMPDEST JUMPDEST PUSH1 0x0 PUSH2 0x1D7E DUP5 DUP3 DUP6 ADD PUSH2 0x1D45 JUMP JUMPDEST SWAP2 POP POP SWAP3 SWAP2 POP POP JUMP JUMPDEST PUSH2 0x1D90 DUP2 PUSH2 0x1BED JUMP JUMPDEST DUP3 MSTORE POP POP JUMP JUMPDEST PUSH1 0x0 PUSH1 0x20 DUP3 ADD SWAP1 POP PUSH2 0x1DAB PUSH1 0x0 DUP4 ADD DUP5 PUSH2 0x1D87 JUMP JUMPDEST SWAP3 SWAP2 POP POP JUMP JUMPDEST PUSH1 0x0 DUP1 PUSH1 0x40 DUP4 DUP6 SUB SLT ISZERO PUSH2 0x1DC8 JUMPI PUSH2 0x1DC7 PUSH2 0x1BC8 JUMP JUMPDEST JUMPDEST PUSH1 0x0 PUSH2 0x1DD6 DUP6 DUP3 DUP7 ADD PUSH2 0x1C16 JUMP JUMPDEST SWAP3 POP POP PUSH1 0x20 PUSH2 0x1DE7 DUP6 DUP3 DUP7 ADD PUSH2 0x1D45 JUMP JUMPDEST SWAP2 POP POP SWAP3 POP SWAP3 SWAP1 POP JUMP JUMPDEST PUSH1 0x0 DUP2 SWAP1 POP SWAP2 SWAP1 POP JUMP JUMPDEST PUSH1 0x0 PUSH2 0x1E16 PUSH2 0x1E11 PUSH2 0x1E0C DUP5 PUSH2 0x1BCD JUMP JUMPDEST PUSH2 0x1DF1 JUMP JUMPDEST PUSH2 0x1BCD JUMP JUMPDEST SWAP1 POP SWAP2 SWAP1 POP JUMP JUMPDEST PUSH1 0x0 PUSH2 0x1E28 DUP3 PUSH2 0x1DFB JUMP JUMPDEST SWAP1 POP SWAP2 SWAP1 POP JUMP JUMPDEST PUSH1 0x0 PUSH2 0x1E3A DUP3 PUSH2 0x1E1D JUMP JUMPDEST SWAP1 POP SWAP2 SWAP1 POP JUMP JUMPDEST PUSH2 0x1E4A DUP2 PUSH2 0x1E2F JUMP JUMPDEST DUP3 MSTORE POP POP JUMP JUMPDEST PUSH1 0x0 PUSH1 0x20 DUP3 ADD SWAP1 POP PUSH2 0x1E65 PUSH1 0x0 DUP4 ADD DUP5 PUSH2 0x1E41 JUMP JUMPDEST SWAP3 SWAP2 POP POP JUMP JUMPDEST PUSH1 0x0 DUP1 PUSH1 0x40 DUP4 DUP6 SUB SLT ISZERO PUSH2 0x1E82 JUMPI PUSH2 0x1E81 PUSH2 0x1BC8 JUMP JUMPDEST JUMPDEST PUSH1 0x0 PUSH2 0x1E90 DUP6 DUP3 DUP7 ADD PUSH2 0x1D45 JUMP JUMPDEST SWAP3 POP POP PUSH1 0x20 PUSH2 0x1EA1 DUP6 DUP3 DUP7 ADD PUSH2 0x1D45 JUMP JUMPDEST SWAP2 POP POP SWAP3 POP SWAP3 SWAP1 POP JUMP JUMPDEST PUSH1 0x0 DUP3 DUP3 MSTORE PUSH1 0x20 DUP3 ADD SWAP1 POP SWAP3 SWAP2 POP POP JUMP JUMPDEST PUSH32 0x41646D696E61626C653A2063616C6C6572206973206E6F7420746865206F776E PUSH1 0x0 DUP3 ADD MSTORE PUSH32 0x6572000000000000000000000000000000000000000000000000000000000000 PUSH1 0x20 DUP3 ADD MSTORE POP JUMP JUMPDEST PUSH1 0x0 PUSH2 0x1F18 PUSH1 0x22 DUP4 PUSH2 0x1EAB JUMP JUMPDEST SWAP2 POP PUSH2 0x1F23 DUP3 PUSH2 0x1EBC JUMP JUMPDEST PUSH1 0x40 DUP3 ADD SWAP1 POP SWAP2 SWAP1 POP JUMP JUMPDEST PUSH1 0x0 PUSH1 0x20 DUP3 ADD SWAP1 POP DUP2 DUP2 SUB PUSH1 0x0 DUP4 ADD MSTORE PUSH2 0x1F47 DUP2 PUSH2 0x1F0B JUMP JUMPDEST SWAP1 POP SWAP2 SWAP1 POP JUMP JUMPDEST PUSH1 0x0 PUSH1 0x40 DUP3 ADD SWAP1 POP PUSH2 0x1F63 PUSH1 0x0 DUP4 ADD DUP6 PUSH2 0x1D04 JUMP JUMPDEST PUSH2 0x1F70 PUSH1 0x20 DUP4 ADD DUP5 PUSH2 0x1D04 JUMP JUMPDEST SWAP4 SWAP3 POP POP POP JUMP JUMPDEST PUSH32 0x5265656E7472616E637947756172643A207265656E7472616E742063616C6C00 PUSH1 0x0 DUP3 ADD MSTORE POP JUMP JUMPDEST PUSH1 0x0 PUSH2 0x1FAD PUSH1 0x1F DUP4 PUSH2 0x1EAB JUMP JUMPDEST SWAP2 POP PUSH2 0x1FB8 DUP3 PUSH2 0x1F77 JUMP JUMPDEST PUSH1 0x20 DUP3 ADD SWAP1 POP SWAP2 SWAP1 POP JUMP JUMPDEST PUSH1 0x0 PUSH1 0x20 DUP3 ADD SWAP1 POP DUP2 DUP2 SUB PUSH1 0x0 DUP4 ADD MSTORE PUSH2 0x1FDC DUP2 PUSH2 0x1FA0 JUMP JUMPDEST SWAP1 POP SWAP2 SWAP1 POP JUMP JUMPDEST PUSH1 0x0 PUSH1 0x40 DUP3 ADD SWAP1 POP PUSH2 0x1FF8 PUSH1 0x0 DUP4 ADD DUP6 PUSH2 0x1D87 JUMP JUMPDEST PUSH2 0x2005 PUSH1 0x20 DUP4 ADD DUP5 PUSH2 0x1C62 JUMP JUMPDEST SWAP4 SWAP3 POP POP POP JUMP JUMPDEST PUSH1 0x0 DUP2 MLOAD SWAP1 POP PUSH2 0x201B DUP2 PUSH2 0x1C98 JUMP JUMPDEST SWAP3 SWAP2 POP POP JUMP JUMPDEST PUSH1 0x0 PUSH1 0x20 DUP3 DUP5 SUB SLT ISZERO PUSH2 0x2037 JUMPI PUSH2 0x2036 PUSH2 0x1BC8 JUMP JUMPDEST JUMPDEST PUSH1 0x0 PUSH2 0x2045 DUP5 DUP3 DUP6 ADD PUSH2 0x200C JUMP JUMPDEST SWAP2 POP POP SWAP3 SWAP2 POP POP JUMP JUMPDEST PUSH32 0x41646D696E61626C653A2063616C6C6572206973206E6F74207468652061646D PUSH1 0x0 DUP3 ADD MSTORE PUSH32 0x696E000000000000000000000000000000000000000000000000000000000000 PUSH1 0x20 DUP3 ADD MSTORE POP JUMP JUMPDEST PUSH1 0x0 PUSH2 0x20AA PUSH1 0x22 DUP4 PUSH2 0x1EAB JUMP JUMPDEST SWAP2 POP PUSH2 0x20B5 DUP3 PUSH2 0x204E JUMP JUMPDEST PUSH1 0x40 DUP3 ADD SWAP1 POP SWAP2 SWAP1 POP JUMP JUMPDEST PUSH1 0x0 PUSH1 0x20 DUP3 ADD SWAP1 POP DUP2 DUP2 SUB PUSH1 0x0 DUP4 ADD MSTORE PUSH2 0x20D9 DUP2 PUSH2 0x209D JUMP JUMPDEST SWAP1 POP SWAP2 SWAP1 POP JUMP JUMPDEST PUSH32 0x4E487B7100000000000000000000000000000000000000000000000000000000 PUSH1 0x0 MSTORE PUSH1 0x11 PUSH1 0x4 MSTORE PUSH1 0x24 PUSH1 0x0 REVERT JUMPDEST PUSH1 0x0 PUSH2 0x211A DUP3 PUSH2 0x1C58 JUMP JUMPDEST SWAP2 POP PUSH2 0x2125 DUP4 PUSH2 0x1C58 JUMP JUMPDEST SWAP3 POP DUP3 DUP3 SUB SWAP1 POP DUP2 DUP2 GT ISZERO PUSH2 0x213D JUMPI PUSH2 0x213C PUSH2 0x20E0 JUMP JUMPDEST JUMPDEST SWAP3 SWAP2 POP POP JUMP JUMPDEST PUSH32 0x4E487B7100000000000000000000000000000000000000000000000000000000 PUSH1 0x0 MSTORE PUSH1 0x12 PUSH1 0x4 MSTORE PUSH1 0x24 PUSH1 0x0 REVERT JUMPDEST PUSH1 0x0 PUSH2 0x217D DUP3 PUSH2 0x1C58 JUMP JUMPDEST SWAP2 POP PUSH2 0x2188 DUP4 PUSH2 0x1C58 JUMP JUMPDEST SWAP3 POP DUP3 PUSH2 0x2198 JUMPI PUSH2 0x2197 PUSH2 0x2143 JUMP JUMPDEST JUMPDEST DUP3 DUP3 DIV SWAP1 POP SWAP3 SWAP2 POP POP JUMP JUMPDEST PUSH1 0x0 PUSH2 0x21AE DUP3 PUSH2 0x1C58 JUMP JUMPDEST SWAP2 POP PUSH2 0x21B9 DUP4 PUSH2 0x1C58 JUMP JUMPDEST SWAP3 POP DUP3 DUP3 ADD SWAP1 POP DUP1 DUP3 GT ISZERO PUSH2 0x21D1 JUMPI PUSH2 0x21D0 PUSH2 0x20E0 JUMP JUMPDEST JUMPDEST SWAP3 SWAP2 POP POP JUMP JUMPDEST PUSH1 0x0 PUSH2 0x21E2 DUP3 PUSH2 0x1C58 JUMP JUMPDEST SWAP2 POP PUSH2 0x21ED DUP4 PUSH2 0x1C58 JUMP JUMPDEST SWAP3 POP DUP3 DUP3 MUL PUSH2 0x21FB DUP2 PUSH2 0x1C58 JUMP JUMPDEST SWAP2 POP DUP3 DUP3 DIV DUP5 EQ DUP4 ISZERO OR PUSH2 0x2212 JUMPI PUSH2 0x2211 PUSH2 0x20E0 JUMP JUMPDEST JUMPDEST POP SWAP3 SWAP2 POP POP JUMP JUMPDEST PUSH1 0x0 PUSH2 0x2224 DUP3 PUSH2 0x1C58 JUMP JUMPDEST SWAP2 POP PUSH32 0xFFFFFFFFFFFFFFFFFFFFFFFFFFFFFFFFFFFFFFFFFFFFFFFFFFFFFFFFFFFFFFFF DUP3 SUB PUSH2 0x2256 JUMPI PUSH2 0x2255 PUSH2 0x20E0 JUMP JUMPDEST JUMPDEST PUSH1 0x1 DUP3 ADD SWAP1 POP SWAP2 SWAP1 POP JUMP JUMPDEST PUSH32 0x43616E6E6F74207374616B652030000000000000000000000000000000000000 PUSH1 0x0 DUP3 ADD MSTORE POP JUMP JUMPDEST PUSH1 0x0 PUSH2 0x2297 PUSH1 0xE DUP4 PUSH2 0x1EAB JUMP JUMPDEST SWAP2 POP PUSH2 0x22A2 DUP3 PUSH2 0x2261 JUMP JUMPDEST PUSH1 0x20 DUP3 ADD SWAP1 POP SWAP2 SWAP1 POP JUMP JUMPDEST PUSH1 0x0 PUSH1 0x20 DUP3 ADD SWAP1 POP DUP2 DUP2 SUB PUSH1 0x0 DUP4 ADD MSTORE PUSH2 0x22C6 DUP2 PUSH2 0x228A JUMP JUMPDEST SWAP1 POP SWAP2 SWAP1 POP JUMP JUMPDEST PUSH1 0x0 PUSH2 0x22D8 DUP3 PUSH2 0x1C58 JUMP JUMPDEST SWAP2 POP PUSH2 0x22E3 DUP4 PUSH2 0x1C58 JUMP JUMPDEST SWAP3 POP DUP3 PUSH2 0x22F3 JUMPI PUSH2 0x22F2 PUSH2 0x2143 JUMP JUMPDEST JUMPDEST DUP3 DUP3 MOD SWAP1 POP SWAP3 SWAP2 POP POP JUMP JUMPDEST PUSH32 0x4F776E61626C653A206E6577206F776E657220697320746865207A65726F2061 PUSH1 0x0 DUP3 ADD MSTORE PUSH32 0x6464726573730000000000000000000000000000000000000000000000000000 PUSH1 0x20 DUP3 ADD MSTORE POP JUMP JUMPDEST PUSH1 0x0 PUSH2 0x235A PUSH1 0x26 DUP4 PUSH2 0x1EAB JUMP JUMPDEST SWAP2 POP PUSH2 0x2365 DUP3 PUSH2 0x22FE JUMP JUMPDEST PUSH1 0x40 DUP3 ADD SWAP1 POP SWAP2 SWAP1 POP JUMP JUMPDEST PUSH1 0x0 PUSH1 0x20 DUP3 ADD SWAP1 POP DUP2 DUP2 SUB PUSH1 0x0 DUP4 ADD MSTORE PUSH2 0x2389 DUP2 PUSH2 0x234D JUMP JUMPDEST SWAP1 POP SWAP2 SWAP1 POP JUMP INVALID LOG2 PUSH5 0x6970667358 0x22 SLT KECCAK256 PUSH32 0xCF0C9DFFA31C91E3427A73DBEB443DF19B5D41EE1385D613C07C4893C9C82764 PUSH20 0x6F6C634300081100330000000000000000000000 "
				},
				"gasEstimates": {
					"creation": {
						"codeDepositCost": "1831600",
						"executionCost": "infinite",
						"totalCost": "infinite"
					},
					"external": {
						"curTime()": "425",
						"earned(address)": "infinite",
						"emergencyWithdraw()": "infinite",
						"emergencyWithdrawToken(address,uint256)": "infinite",
						"getCurRewardPool()": "infinite",
						"getCurRewardRate()": "infinite",
						"getRemainPool(uint256)": "infinite",
						"getReward()": "infinite",
						"getRewardPool(uint256)": "infinite",
						"getTimeWeightedAveRate(uint256,uint256)": "infinite",
						"isAdmin(address)": "2929",
						"lastTimeRewardApplicable()": "447",
						"lastUpdateTime()": "2518",
						"modificationAdmin(address,bool)": "infinite",
						"owner()": "2567",
						"powersOf(address)": "2908",
						"rateInterval()": "2519",
						"rateIntervalDenominator()": "2518",
						"rateIntervalNumerator()": "2497",
						"renounceOwnership()": "30419",
						"rewardPerToken(uint256)": "infinite",
						"rewardPerTokenStored()": "2539",
						"rewards(address)": "2883",
						"rewardsToken()": "infinite",
						"setConfig(uint256)": "3019",
						"setRewardToken(address)": "27052",
						"setStartTime(uint256)": "24952",
						"stake(address,uint256)": "infinite",
						"startTime()": "2496",
						"totalPowers()": "2549",
						"totalRewards()": "2520",
						"transferOwnership(address)": "30852",
						"userLastUpdateTime(address)": "2947",
						"userRewardPerTokenPaid(address)": "2926"
					},
					"internal": {
						"_getRemainPool(uint256)": "infinite",
						"_getRewardRate(uint256)": "infinite"
					}
				},
				"methodIdentifiers": {
					"curTime()": "9a5b17b0",
					"earned(address)": "008cc262",
					"emergencyWithdraw()": "db2e21bc",
					"emergencyWithdrawToken(address,uint256)": "a4c3b091",
					"getCurRewardPool()": "9499c549",
					"getCurRewardRate()": "cdda56e0",
					"getRemainPool(uint256)": "4dbdc4eb",
					"getReward()": "3d18b912",
					"getRewardPool(uint256)": "5cfa91f4",
					"getTimeWeightedAveRate(uint256,uint256)": "da4f8431",
					"isAdmin(address)": "24d7806c",
					"lastTimeRewardApplicable()": "80faa57d",
					"lastUpdateTime()": "c8f33c91",
					"modificationAdmin(address,bool)": "18e20ecf",
					"owner()": "8da5cb5b",
					"powersOf(address)": "b79ec812",
					"rateInterval()": "6139d4b4",
					"rateIntervalDenominator()": "7a6fcee7",
					"rateIntervalNumerator()": "3c4045cf",
					"renounceOwnership()": "715018a6",
					"rewardPerToken(uint256)": "874c120b",
					"rewardPerTokenStored()": "df136d65",
					"rewards(address)": "0700037d",
					"rewardsToken()": "d1af0c7d",
					"setConfig(uint256)": "893bcfbe",
					"setRewardToken(address)": "8aee8127",
					"setStartTime(uint256)": "3e0a322d",
					"stake(address,uint256)": "adc9772e",
					"startTime()": "78e97925",
					"totalPowers()": "6917c501",
					"totalRewards()": "0e15561a",
					"transferOwnership(address)": "f2fde38b",
					"userLastUpdateTime(address)": "8107368b",
					"userRewardPerTokenPaid(address)": "8b876347"
				}
			},
			"storageLayout": {
				"storage": [
					{
						"astId": 26,
						"contract": "inviter_presell/stake.sol:StakingRewards",
						"label": "_admins",
						"offset": 0,
						"slot": "0",
						"type": "t_mapping(t_address,t_bool)"
					},
					{
						"astId": 28,
						"contract": "inviter_presell/stake.sol:StakingRewards",
						"label": "_owner",
						"offset": 0,
						"slot": "1",
						"type": "t_address"
					},
					{
						"astId": 978,
						"contract": "inviter_presell/stake.sol:StakingRewards",
						"label": "_status",
						"offset": 0,
						"slot": "2",
						"type": "t_uint256"
					},
					{
						"astId": 192,
						"contract": "inviter_presell/stake.sol:StakingRewards",
						"label": "rewardsToken",
						"offset": 0,
						"slot": "3",
						"type": "t_contract(IERC20)1085"
					},
					{
						"astId": 196,
						"contract": "inviter_presell/stake.sol:StakingRewards",
						"label": "rewards",
						"offset": 0,
						"slot": "4",
						"type": "t_mapping(t_address,t_uint256)"
					},
					{
						"astId": 203,
						"contract": "inviter_presell/stake.sol:StakingRewards",
						"label": "totalRewards",
						"offset": 0,
						"slot": "5",
						"type": "t_uint256"
					},
					{
						"astId": 205,
						"contract": "inviter_presell/stake.sol:StakingRewards",
						"label": "startTime",
						"offset": 0,
						"slot": "6",
						"type": "t_uint256"
					},
					{
						"astId": 208,
						"contract": "inviter_presell/stake.sol:StakingRewards",
						"label": "rateInterval",
						"offset": 0,
						"slot": "7",
						"type": "t_uint256"
					},
					{
						"astId": 211,
						"contract": "inviter_presell/stake.sol:StakingRewards",
						"label": "rateIntervalNumerator",
						"offset": 0,
						"slot": "8",
						"type": "t_uint256"
					},
					{
						"astId": 214,
						"contract": "inviter_presell/stake.sol:StakingRewards",
						"label": "rateIntervalDenominator",
						"offset": 0,
						"slot": "9",
						"type": "t_uint256"
					},
					{
						"astId": 216,
						"contract": "inviter_presell/stake.sol:StakingRewards",
						"label": "lastUpdateTime",
						"offset": 0,
						"slot": "10",
						"type": "t_uint256"
					},
					{
						"astId": 218,
						"contract": "inviter_presell/stake.sol:StakingRewards",
						"label": "rewardPerTokenStored",
						"offset": 0,
						"slot": "11",
						"type": "t_uint256"
					},
					{
						"astId": 222,
						"contract": "inviter_presell/stake.sol:StakingRewards",
						"label": "userRewardPerTokenPaid",
						"offset": 0,
						"slot": "12",
						"type": "t_mapping(t_address,t_uint256)"
					},
					{
						"astId": 226,
						"contract": "inviter_presell/stake.sol:StakingRewards",
						"label": "userLastUpdateTime",
						"offset": 0,
						"slot": "13",
						"type": "t_mapping(t_address,t_uint256)"
					},
					{
						"astId": 228,
						"contract": "inviter_presell/stake.sol:StakingRewards",
						"label": "_totalPowers",
						"offset": 0,
						"slot": "14",
						"type": "t_uint256"
					},
					{
						"astId": 232,
						"contract": "inviter_presell/stake.sol:StakingRewards",
						"label": "_balances",
						"offset": 0,
						"slot": "15",
						"type": "t_mapping(t_address,t_uint256)"
					}
				],
				"types": {
					"t_address": {
						"encoding": "inplace",
						"label": "address",
						"numberOfBytes": "20"
					},
					"t_bool": {
						"encoding": "inplace",
						"label": "bool",
						"numberOfBytes": "1"
					},
					"t_contract(IERC20)1085": {
						"encoding": "inplace",
						"label": "contract IERC20",
						"numberOfBytes": "20"
					},
					"t_mapping(t_address,t_bool)": {
						"encoding": "mapping",
						"key": "t_address",
						"label": "mapping(address => bool)",
						"numberOfBytes": "32",
						"value": "t_bool"
					},
					"t_mapping(t_address,t_uint256)": {
						"encoding": "mapping",
						"key": "t_address",
						"label": "mapping(address => uint256)",
						"numberOfBytes": "32",
						"value": "t_uint256"
					},
					"t_uint256": {
						"encoding": "inplace",
						"label": "uint256",
						"numberOfBytes": "32"
					}
				}
			},
			"userdoc": {
				"kind": "user",
				"methods": {},
				"version": 1
			}
		}
	}
}