{
	"inviter_presell/stake.sol": {
		"StakingRewards": {
			"abi": [
				{
					"anonymous": false,
					"inputs": [
						{
							"indexed": true,
							"internalType": "address",
							"name": "admin",
							"type": "address"
						},
						{
							"indexed": false,
							"internalType": "bool",
							"name": "oldState",
							"type": "bool"
						},
						{
							"indexed": false,
							"internalType": "bool",
							"name": "newState",
							"type": "bool"
						}
					],
					"name": "ModificationAdmin",
					"type": "event"
				},
				{
					"anonymous": false,
					"inputs": [
						{
							"indexed": true,
							"internalType": "address",
							"name": "previousOwner",
							"type": "address"
						},
						{
							"indexed": true,
							"internalType": "address",
							"name": "newOwner",
							"type": "address"
						}
					],
					"name": "OwnershipTransferred",
					"type": "event"
				},
				{
					"anonymous": false,
					"inputs": [
						{
							"indexed": true,
							"internalType": "address",
							"name": "user",
							"type": "address"
						},
						{
							"indexed": false,
							"internalType": "uint256",
							"name": "reward",
							"type": "uint256"
						}
					],
					"name": "RewardPaid",
					"type": "event"
				},
				{
					"anonymous": false,
					"inputs": [
						{
							"indexed": true,
							"internalType": "address",
							"name": "user",
							"type": "address"
						},
						{
							"indexed": false,
							"internalType": "uint256",
							"name": "amount",
							"type": "uint256"
						}
					],
					"name": "Staked",
					"type": "event"
				},
				{
					"inputs": [
						{
							"internalType": "address",
							"name": "account",
							"type": "address"
						}
					],
					"name": "earned",
					"outputs": [
						{
							"internalType": "uint256",
							"name": "",
							"type": "uint256"
						}
					],
					"stateMutability": "view",
					"type": "function"
				},
				{
					"inputs": [],
					"name": "getCurRewardPool",
					"outputs": [
						{
							"internalType": "uint256",
							"name": "",
							"type": "uint256"
						}
					],
					"stateMutability": "view",
					"type": "function"
				},
				{
					"inputs": [],
					"name": "getCurRewardRate",
					"outputs": [
						{
							"internalType": "uint256",
							"name": "",
							"type": "uint256"
						}
					],
					"stateMutability": "view",
					"type": "function"
				},
				{
					"inputs": [],
					"name": "getReward",
					"outputs": [],
					"stateMutability": "nonpayable",
					"type": "function"
				},
				{
					"inputs": [
						{
							"internalType": "uint256",
							"name": "time",
							"type": "uint256"
						}
					],
					"name": "getRewardPool",
					"outputs": [
						{
							"internalType": "uint256",
							"name": "",
							"type": "uint256"
						}
					],
					"stateMutability": "view",
					"type": "function"
				},
				{
					"inputs": [
						{
							"internalType": "uint256",
							"name": "leftTime",
							"type": "uint256"
						},
						{
							"internalType": "uint256",
							"name": "rightTime",
							"type": "uint256"
						}
					],
					"name": "getTimeWeightedAveRate",
					"outputs": [
						{
							"internalType": "uint256",
							"name": "",
							"type": "uint256"
						}
					],
					"stateMutability": "view",
					"type": "function"
				},
				{
					"inputs": [
						{
							"internalType": "address",
							"name": "account",
							"type": "address"
						}
					],
					"name": "isAdmin",
					"outputs": [
						{
							"internalType": "bool",
							"name": "",
							"type": "bool"
						}
					],
					"stateMutability": "view",
					"type": "function"
				},
				{
					"inputs": [],
					"name": "lastTimeRewardApplicable",
					"outputs": [
						{
							"internalType": "uint256",
							"name": "",
							"type": "uint256"
						}
					],
					"stateMutability": "view",
					"type": "function"
				},
				{
					"inputs": [],
					"name": "lastUpdateTime",
					"outputs": [
						{
							"internalType": "uint256",
							"name": "",
							"type": "uint256"
						}
					],
					"stateMutability": "view",
					"type": "function"
				},
				{
					"inputs": [
						{
							"internalType": "address",
							"name": "admin",
							"type": "address"
						},
						{
							"internalType": "bool",
							"name": "state",
							"type": "bool"
						}
					],
					"name": "modificationAdmin",
					"outputs": [],
					"stateMutability": "nonpayable",
					"type": "function"
				},
				{
					"inputs": [],
					"name": "owner",
					"outputs": [
						{
							"internalType": "address",
							"name": "",
							"type": "address"
						}
					],
					"stateMutability": "view",
					"type": "function"
				},
				{
					"inputs": [
						{
							"internalType": "address",
							"name": "account",
							"type": "address"
						}
					],
					"name": "powersOf",
					"outputs": [
						{
							"internalType": "uint256",
							"name": "",
							"type": "uint256"
						}
					],
					"stateMutability": "view",
					"type": "function"
				},
				{
					"inputs": [],
					"name": "rateInterval",
					"outputs": [
						{
							"internalType": "uint256",
							"name": "",
							"type": "uint256"
						}
					],
					"stateMutability": "view",
					"type": "function"
				},
				{
					"inputs": [],
					"name": "rateIntervalDenominator",
					"outputs": [
						{
							"internalType": "uint256",
							"name": "",
							"type": "uint256"
						}
					],
					"stateMutability": "view",
					"type": "function"
				},
				{
					"inputs": [],
					"name": "rateIntervalNumerator",
					"outputs": [
						{
							"internalType": "uint256",
							"name": "",
							"type": "uint256"
						}
					],
					"stateMutability": "view",
					"type": "function"
				},
				{
					"inputs": [],
					"name": "renounceOwnership",
					"outputs": [],
					"stateMutability": "nonpayable",
					"type": "function"
				},
				{
					"inputs": [
						{
							"internalType": "uint256",
							"name": "rewardRate",
							"type": "uint256"
						}
					],
					"name": "rewardPerToken",
					"outputs": [
						{
							"internalType": "uint256",
							"name": "",
							"type": "uint256"
						}
					],
					"stateMutability": "view",
					"type": "function"
				},
				{
					"inputs": [],
					"name": "rewardPerTokenStored",
					"outputs": [
						{
							"internalType": "uint256",
							"name": "",
							"type": "uint256"
						}
					],
					"stateMutability": "view",
					"type": "function"
				},
				{
					"inputs": [
						{
							"internalType": "address",
							"name": "",
							"type": "address"
						}
					],
					"name": "rewards",
					"outputs": [
						{
							"internalType": "uint256",
							"name": "",
							"type": "uint256"
						}
					],
					"stateMutability": "view",
					"type": "function"
				},
				{
					"inputs": [],
					"name": "rewardsToken",
					"outputs": [
						{
							"internalType": "contract IERC20",
							"name": "",
							"type": "address"
						}
					],
					"stateMutability": "view",
					"type": "function"
				},
				{
					"inputs": [
						{
							"internalType": "uint256",
							"name": "time",
							"type": "uint256"
						}
					],
					"name": "setStartTime",
					"outputs": [],
					"stateMutability": "nonpayable",
					"type": "function"
				},
				{
					"inputs": [
						{
							"internalType": "address",
							"name": "user",
							"type": "address"
						},
						{
							"internalType": "uint256",
							"name": "amount",
							"type": "uint256"
						}
					],
					"name": "stake",
					"outputs": [],
					"stateMutability": "nonpayable",
					"type": "function"
				},
				{
					"inputs": [],
					"name": "startTime",
					"outputs": [
						{
							"internalType": "uint256",
							"name": "",
							"type": "uint256"
						}
					],
					"stateMutability": "view",
					"type": "function"
				},
				{
					"inputs": [],
					"name": "totalPowers",
					"outputs": [
						{
							"internalType": "uint256",
							"name": "",
							"type": "uint256"
						}
					],
					"stateMutability": "view",
					"type": "function"
				},
				{
					"inputs": [],
					"name": "totalRewards",
					"outputs": [
						{
							"internalType": "uint256",
							"name": "",
							"type": "uint256"
						}
					],
					"stateMutability": "view",
					"type": "function"
				},
				{
					"inputs": [
						{
							"internalType": "address",
							"name": "newOwner",
							"type": "address"
						}
					],
					"name": "transferOwnership",
					"outputs": [],
					"stateMutability": "nonpayable",
					"type": "function"
				},
				{
					"inputs": [
						{
							"internalType": "address",
							"name": "",
							"type": "address"
						}
					],
					"name": "userLastUpdateTime",
					"outputs": [
						{
							"internalType": "uint256",
							"name": "",
							"type": "uint256"
						}
					],
					"stateMutability": "view",
					"type": "function"
				},
				{
					"inputs": [
						{
							"internalType": "address",
							"name": "",
							"type": "address"
						}
					],
					"name": "userRewardPerTokenPaid",
					"outputs": [
						{
							"internalType": "uint256",
							"name": "",
							"type": "uint256"
						}
					],
					"stateMutability": "view",
					"type": "function"
				}
			],
			"devdoc": {
				"kind": "dev",
				"methods": {},
				"version": 1
			},
			"evm": {
				"assembly": "    /* \"inviter_presell/stake.sol\":297:5762  contract StakingRewards is Adminable , ReentrancyGuard{... */\n  mstore(0x40, 0x80)\n    /* \"inviter_presell/stake.sol\":507:521  400 * 10 ** 18 */\n  0x15af1d78b58c400000\n    /* \"inviter_presell/stake.sol\":477:521  uint256 public totalRewards = 400 * 10 ** 18 */\n  0x05\n  sstore\n    /* \"inviter_presell/stake.sol\":589:595  1 days */\n  0x015180\n    /* \"inviter_presell/stake.sol\":559:595  uint256 public rateInterval = 1 days */\n  0x07\n  sstore\n    /* \"inviter_presell/stake.sol\":641:642  5 */\n  0x05\n    /* \"inviter_presell/stake.sol\":602:642  uint256 public rateIntervalNumerator = 5 */\n  0x08\n  sstore\n    /* \"inviter_presell/stake.sol\":690:694  1000 */\n  0x03e8\n    /* \"inviter_presell/stake.sol\":649:694  uint256 public rateIntervalDenominator = 1000 */\n  0x09\n  sstore\n    /* \"inviter_presell/stake.sol\":297:5762  contract StakingRewards is Adminable , ReentrancyGuard{... */\n  callvalue\n  dup1\n  iszero\n  tag_1\n  jumpi\n  0x00\n  dup1\n  revert\ntag_1:\n  pop\n    /* \"inviter_presell/adminable.sol\":603:635  _transferOwnership(_msgSender()) */\n  tag_5\n    /* \"inviter_presell/adminable.sol\":143:153  msg.sender */\n  caller\n    /* \"inviter_presell/adminable.sol\":603:621  _transferOwnership */\n  tag_8\n    /* \"inviter_presell/adminable.sol\":603:635  _transferOwnership(_msgSender()) */\n  jump\t// in\ntag_5:\n    /* \"node_modules/@openzeppelin/contracts/security/ReentrancyGuard.sol\":1734:1735  1 */\n  0x01\n    /* \"node_modules/@openzeppelin/contracts/security/ReentrancyGuard.sol\":1845:1852  _status */\n  0x02\n    /* \"node_modules/@openzeppelin/contracts/security/ReentrancyGuard.sol\":1845:1867  _status = _NOT_ENTERED */\n  sstore\n    /* \"inviter_presell/stake.sol\":297:5762  contract StakingRewards is Adminable , ReentrancyGuard{... */\n  jump(tag_10)\n    /* \"inviter_presell/adminable.sol\":1443:1634  function _transferOwnership(address newOwner) internal virtual {... */\ntag_8:\n    /* \"inviter_presell/adminable.sol\":1536:1542  _owner */\n  0x01\n  dup1\n  sload\n  sub(shl(0xa0, 0x01), 0x01)\n    /* \"inviter_presell/adminable.sol\":1553:1570  _owner = newOwner */\n  dup4\n  dup2\n  and\n  not(sub(shl(0xa0, 0x01), 0x01))\n  dup4\n  and\n  dup2\n  or\n  swap1\n  swap4\n  sstore\n    /* \"inviter_presell/adminable.sol\":1586:1626  OwnershipTransferred(oldOwner, newOwner) */\n  mload(0x40)\n    /* \"inviter_presell/adminable.sol\":1536:1542  _owner */\n  swap2\n  and\n  swap2\n    /* \"inviter_presell/adminable.sol\":1553:1570  _owner = newOwner */\n  swap1\n    /* \"inviter_presell/adminable.sol\":1536:1542  _owner */\n  dup3\n  swap1\n    /* \"inviter_presell/adminable.sol\":1586:1626  OwnershipTransferred(oldOwner, newOwner) */\n  0x8be0079c531659141344cd1fd0a4f28419497f9722a3daafe3b4186f6b6457e0\n  swap1\n    /* \"inviter_presell/adminable.sol\":1517:1533  address oldOwner */\n  0x00\n  swap1\n    /* \"inviter_presell/adminable.sol\":1586:1626  OwnershipTransferred(oldOwner, newOwner) */\n  log3\n    /* \"inviter_presell/adminable.sol\":1506:1634  {... */\n  pop\n    /* \"inviter_presell/adminable.sol\":1443:1634  function _transferOwnership(address newOwner) internal virtual {... */\n  pop\n  jump\t// out\n    /* \"inviter_presell/stake.sol\":297:5762  contract StakingRewards is Adminable , ReentrancyGuard{... */\ntag_10:\n  dataSize(sub_0)\n  dup1\n  dataOffset(sub_0)\n  0x00\n  codecopy\n  0x00\n  return\nstop\n\nsub_0: assembly {\n        /* \"inviter_presell/stake.sol\":297:5762  contract StakingRewards is Adminable , ReentrancyGuard{... */\n      mstore(0x40, 0x80)\n      callvalue\n      dup1\n      iszero\n      tag_1\n      jumpi\n      0x00\n      dup1\n      revert\n    tag_1:\n      pop\n      jumpi(tag_2, lt(calldatasize, 0x04))\n      shr(0xe0, calldataload(0x00))\n      dup1\n      0x80faa57d\n      gt\n      tag_31\n      jumpi\n      dup1\n      0xb79ec812\n      gt\n      tag_32\n      jumpi\n      dup1\n      0xd1af0c7d\n      gt\n      tag_33\n      jumpi\n      dup1\n      0xd1af0c7d\n      eq\n      tag_27\n      jumpi\n      dup1\n      0xda4f8431\n      eq\n      tag_28\n      jumpi\n      dup1\n      0xdf136d65\n      eq\n      tag_29\n      jumpi\n      dup1\n      0xf2fde38b\n      eq\n      tag_30\n      jumpi\n      0x00\n      dup1\n      revert\n    tag_33:\n      dup1\n      0xb79ec812\n      eq\n      tag_24\n      jumpi\n      dup1\n      0xc8f33c91\n      eq\n      tag_25\n      jumpi\n      dup1\n      0xcdda56e0\n      eq\n      tag_26\n      jumpi\n      0x00\n      dup1\n      revert\n    tag_32:\n      dup1\n      0x8b876347\n      gt\n      tag_34\n      jumpi\n      dup1\n      0x8b876347\n      eq\n      tag_20\n      jumpi\n      dup1\n      0x8da5cb5b\n      eq\n      tag_21\n      jumpi\n      dup1\n      0x9499c549\n      eq\n      tag_22\n      jumpi\n      dup1\n      0xadc9772e\n      eq\n      tag_23\n      jumpi\n      0x00\n      dup1\n      revert\n    tag_34:\n      dup1\n      0x80faa57d\n      eq\n      tag_17\n      jumpi\n      dup1\n      0x8107368b\n      eq\n      tag_18\n      jumpi\n      dup1\n      0x874c120b\n      eq\n      tag_19\n      jumpi\n      0x00\n      dup1\n      revert\n    tag_31:\n      dup1\n      0x3e0a322d\n      gt\n      tag_35\n      jumpi\n      dup1\n      0x6917c501\n      gt\n      tag_36\n      jumpi\n      dup1\n      0x6917c501\n      eq\n      tag_13\n      jumpi\n      dup1\n      0x715018a6\n      eq\n      tag_14\n      jumpi\n      dup1\n      0x78e97925\n      eq\n      tag_15\n      jumpi\n      dup1\n      0x7a6fcee7\n      eq\n      tag_16\n      jumpi\n      0x00\n      dup1\n      revert\n    tag_36:\n      dup1\n      0x3e0a322d\n      eq\n      tag_10\n      jumpi\n      dup1\n      0x5cfa91f4\n      eq\n      tag_11\n      jumpi\n      dup1\n      0x6139d4b4\n      eq\n      tag_12\n      jumpi\n      0x00\n      dup1\n      revert\n    tag_35:\n      dup1\n      0x18e20ecf\n      gt\n      tag_37\n      jumpi\n      dup1\n      0x18e20ecf\n      eq\n      tag_6\n      jumpi\n      dup1\n      0x24d7806c\n      eq\n      tag_7\n      jumpi\n      dup1\n      0x3c4045cf\n      eq\n      tag_8\n      jumpi\n      dup1\n      0x3d18b912\n      eq\n      tag_9\n      jumpi\n      0x00\n      dup1\n      revert\n    tag_37:\n      dup1\n      0x8cc262\n      eq\n      tag_3\n      jumpi\n      dup1\n      0x0700037d\n      eq\n      tag_4\n      jumpi\n      dup1\n      0x0e15561a\n      eq\n      tag_5\n      jumpi\n    tag_2:\n      0x00\n      dup1\n      revert\n        /* \"inviter_presell/stake.sol\":3339:3635  function earned(address account) public view returns (uint256) {... */\n    tag_3:\n      tag_38\n      tag_39\n      calldatasize\n      0x04\n      tag_40\n      jump\t// in\n    tag_39:\n      tag_41\n      jump\t// in\n    tag_38:\n      mload(0x40)\n        /* \"#utility.yul\":529:554   */\n      swap1\n      dup2\n      mstore\n        /* \"#utility.yul\":517:519   */\n      0x20\n        /* \"#utility.yul\":502:520   */\n      add\n        /* \"inviter_presell/stake.sol\":3339:3635  function earned(address account) public view returns (uint256) {... */\n    tag_42:\n      mload(0x40)\n      dup1\n      swap2\n      sub\n      swap1\n      return\n        /* \"inviter_presell/stake.sol\":426:468  mapping(address => uint256) public rewards */\n    tag_4:\n      tag_38\n      tag_45\n      calldatasize\n      0x04\n      tag_40\n      jump\t// in\n    tag_45:\n      mstore(0x20, 0x04)\n      0x00\n      swap1\n      dup2\n      mstore\n      0x40\n      swap1\n      keccak256\n      sload\n      dup2\n      jump\n        /* \"inviter_presell/stake.sol\":477:521  uint256 public totalRewards = 400 * 10 ** 18 */\n    tag_5:\n      tag_38\n      sload(0x05)\n      dup2\n      jump\n        /* \"inviter_presell/adminable.sol\":1642:1826  function modificationAdmin(address admin, bool state) public virtual onlyOwner {... */\n    tag_6:\n      tag_51\n      tag_52\n      calldatasize\n      0x04\n      tag_53\n      jump\t// in\n    tag_52:\n      tag_54\n      jump\t// in\n    tag_51:\n      stop\n        /* \"inviter_presell/adminable.sol\":1004:1115  function isAdmin(address account) public view virtual returns (bool) {... */\n    tag_7:\n      tag_55\n      tag_56\n      calldatasize\n      0x04\n      tag_40\n      jump\t// in\n    tag_56:\n      sub(shl(0xa0, 0x01), 0x01)\n        /* \"inviter_presell/adminable.sol\":1091:1107  _admins[account] */\n      and\n        /* \"inviter_presell/adminable.sol\":1067:1071  bool */\n      0x00\n        /* \"inviter_presell/adminable.sol\":1091:1107  _admins[account] */\n      swap1\n      dup2\n      mstore\n      0x20\n      dup2\n      swap1\n      mstore\n      0x40\n      swap1\n      keccak256\n      sload\n      0xff\n      and\n      swap1\n        /* \"inviter_presell/adminable.sol\":1004:1115  function isAdmin(address account) public view virtual returns (bool) {... */\n      jump\n    tag_55:\n      mload(0x40)\n        /* \"#utility.yul\":1173:1187   */\n      swap1\n      iszero\n        /* \"#utility.yul\":1166:1188   */\n      iszero\n        /* \"#utility.yul\":1148:1189   */\n      dup2\n      mstore\n        /* \"#utility.yul\":1136:1138   */\n      0x20\n        /* \"#utility.yul\":1121:1139   */\n      add\n        /* \"inviter_presell/adminable.sol\":1004:1115  function isAdmin(address account) public view virtual returns (bool) {... */\n      tag_42\n        /* \"#utility.yul\":1008:1195   */\n      jump\n        /* \"inviter_presell/stake.sol\":602:642  uint256 public rateIntervalNumerator = 5 */\n    tag_8:\n      tag_38\n      sload(0x08)\n      dup2\n      jump\n        /* \"inviter_presell/stake.sol\":5326:5629  function getReward() public nonReentrant updateReward(msg.sender) {... */\n    tag_9:\n      tag_51\n      tag_64\n      jump\t// in\n        /* \"inviter_presell/stake.sol\":1593:1681  function setStartTime(uint256 time) public onlyAdmin {... */\n    tag_10:\n      tag_51\n      tag_66\n      calldatasize\n      0x04\n      tag_67\n      jump\t// in\n    tag_66:\n      tag_68\n      jump\t// in\n        /* \"inviter_presell/stake.sol\":2031:2497  function getRewardPool(uint256 time) public view returns (uint256) {... */\n    tag_11:\n      tag_38\n      tag_70\n      calldatasize\n      0x04\n      tag_67\n      jump\t// in\n    tag_70:\n      tag_71\n      jump\t// in\n        /* \"inviter_presell/stake.sol\":559:595  uint256 public rateInterval = 1 days */\n    tag_12:\n      tag_38\n      sload(0x07)\n      dup2\n      jump\n        /* \"inviter_presell/stake.sol\":1689:1782  function totalPowers() external view returns (uint256) {... */\n    tag_13:\n        /* \"inviter_presell/stake.sol\":1762:1774  _totalPowers */\n      sload(0x0e)\n        /* \"inviter_presell/stake.sol\":1689:1782  function totalPowers() external view returns (uint256) {... */\n      jump(tag_38)\n        /* \"inviter_presell/adminable.sol\":1123:1226  function renounceOwnership() public virtual onlyOwner {... */\n    tag_14:\n      tag_51\n      tag_80\n      jump\t// in\n        /* \"inviter_presell/stake.sol\":528:552  uint256 public startTime */\n    tag_15:\n      tag_38\n      sload(0x06)\n      dup2\n      jump\n        /* \"inviter_presell/stake.sol\":649:694  uint256 public rateIntervalDenominator = 1000 */\n    tag_16:\n      tag_38\n      sload(0x09)\n      dup2\n      jump\n        /* \"inviter_presell/stake.sol\":2868:2975  function lastTimeRewardApplicable() public view returns (uint256) {... */\n    tag_17:\n        /* \"inviter_presell/stake.sol\":2952:2967  block.timestamp */\n      timestamp\n        /* \"inviter_presell/stake.sol\":2868:2975  function lastTimeRewardApplicable() public view returns (uint256) {... */\n      jump(tag_38)\n        /* \"inviter_presell/stake.sol\":845:898  mapping(address => uint256) public userLastUpdateTime */\n    tag_18:\n      tag_38\n      tag_91\n      calldatasize\n      0x04\n      tag_40\n      jump\t// in\n    tag_91:\n      mstore(0x20, 0x0d)\n      0x00\n      swap1\n      dup2\n      mstore\n      0x40\n      swap1\n      keccak256\n      sload\n      dup2\n      jump\n        /* \"inviter_presell/stake.sol\":2983:3331  function rewardPerToken(uint256 rewardRate) public view returns (uint256) {... */\n    tag_19:\n      tag_38\n      tag_95\n      calldatasize\n      0x04\n      tag_67\n      jump\t// in\n    tag_95:\n      tag_96\n      jump\t// in\n        /* \"inviter_presell/stake.sol\":781:838  mapping(address => uint256) public userRewardPerTokenPaid */\n    tag_20:\n      tag_38\n      tag_99\n      calldatasize\n      0x04\n      tag_40\n      jump\t// in\n    tag_99:\n      mstore(0x20, 0x0c)\n      0x00\n      swap1\n      dup2\n      mstore\n      0x40\n      swap1\n      keccak256\n      sload\n      dup2\n      jump\n        /* \"inviter_presell/adminable.sol\":909:996  function owner() public view virtual returns (address) {... */\n    tag_21:\n        /* \"inviter_presell/adminable.sol\":982:988  _owner */\n      and(sub(shl(0xa0, 0x01), 0x01), sload(0x01))\n        /* \"inviter_presell/adminable.sol\":909:996  function owner() public view virtual returns (address) {... */\n    tag_102:\n      mload(0x40)\n      sub(shl(0xa0, 0x01), 0x01)\n        /* \"#utility.yul\":1549:1581   */\n      swap1\n      swap2\n      and\n        /* \"#utility.yul\":1531:1582   */\n      dup2\n      mstore\n        /* \"#utility.yul\":1519:1521   */\n      0x20\n        /* \"#utility.yul\":1504:1522   */\n      add\n        /* \"inviter_presell/adminable.sol\":909:996  function owner() public view virtual returns (address) {... */\n      tag_42\n        /* \"#utility.yul\":1385:1588   */\n      jump\n        /* \"inviter_presell/stake.sol\":1909:2023  function getCurRewardPool() public view returns (uint256) {... */\n    tag_22:\n      tag_38\n      tag_107\n      jump\t// in\n        /* \"inviter_presell/stake.sol\":5014:5314  function stake(address user, uint256 amount) external nonReentrant onlyAdmin updateReward(msg.sender) {... */\n    tag_23:\n      tag_51\n      tag_110\n      calldatasize\n      0x04\n      tag_111\n      jump\t// in\n    tag_110:\n      tag_112\n      jump\t// in\n        /* \"inviter_presell/stake.sol\":1790:1901  function powersOf(address account) external view returns (uint256) {... */\n    tag_24:\n      tag_38\n      tag_114\n      calldatasize\n      0x04\n      tag_40\n      jump\t// in\n    tag_114:\n      sub(shl(0xa0, 0x01), 0x01)\n        /* \"inviter_presell/stake.sol\":1875:1893  _balances[account] */\n      and\n        /* \"inviter_presell/stake.sol\":1848:1855  uint256 */\n      0x00\n        /* \"inviter_presell/stake.sol\":1875:1893  _balances[account] */\n      swap1\n      dup2\n      mstore\n        /* \"inviter_presell/stake.sol\":1875:1884  _balances */\n      0x0f\n        /* \"inviter_presell/stake.sol\":1875:1893  _balances[account] */\n      0x20\n      mstore\n      0x40\n      swap1\n      keccak256\n      sload\n      swap1\n        /* \"inviter_presell/stake.sol\":1790:1901  function powersOf(address account) external view returns (uint256) {... */\n      jump\n        /* \"inviter_presell/stake.sol\":701:730  uint256 public lastUpdateTime */\n    tag_25:\n      tag_38\n      sload(0x0a)\n      dup2\n      jump\n        /* \"inviter_presell/stake.sol\":2513:2628  function getCurRewardRate() public view returns (uint256) {... */\n    tag_26:\n      tag_38\n      tag_121\n      jump\t// in\n        /* \"inviter_presell/stake.sol\":393:419  IERC20 public rewardsToken */\n    tag_27:\n      sload(0x03)\n      tag_102\n      swap1\n      sub(shl(0xa0, 0x01), 0x01)\n      and\n      dup2\n      jump\n        /* \"inviter_presell/stake.sol\":3678:5004  function getTimeWeightedAveRate(uint256 leftTime, uint256 rightTime) public view returns (uint256){... */\n    tag_28:\n      tag_38\n      tag_128\n      calldatasize\n      0x04\n      tag_129\n      jump\t// in\n    tag_128:\n      tag_130\n      jump\t// in\n        /* \"inviter_presell/stake.sol\":737:772  uint256 public rewardPerTokenStored */\n    tag_29:\n      tag_38\n      sload(0x0b)\n      dup2\n      jump\n        /* \"inviter_presell/adminable.sol\":1234:1435  function transferOwnership(address newOwner) public virtual onlyOwner {... */\n    tag_30:\n      tag_51\n      tag_136\n      calldatasize\n      0x04\n      tag_40\n      jump\t// in\n    tag_136:\n      tag_137\n      jump\t// in\n        /* \"inviter_presell/stake.sol\":3339:3635  function earned(address account) public view returns (uint256) {... */\n    tag_41:\n      sub(shl(0xa0, 0x01), 0x01)\n        /* \"inviter_presell/stake.sol\":3451:3478  userLastUpdateTime[account] */\n      dup2\n      and\n        /* \"inviter_presell/stake.sol\":3393:3400  uint256 */\n      0x00\n        /* \"inviter_presell/stake.sol\":3451:3478  userLastUpdateTime[account] */\n      swap1\n      dup2\n      mstore\n        /* \"inviter_presell/stake.sol\":3451:3469  userLastUpdateTime */\n      0x0d\n        /* \"inviter_presell/stake.sol\":3451:3478  userLastUpdateTime[account] */\n      0x20\n      mstore\n      0x40\n      dup2\n      keccak256\n      sload\n        /* \"inviter_presell/stake.sol\":3393:3400  uint256 */\n      dup2\n      swap1\n        /* \"inviter_presell/stake.sol\":3428:3496  getTimeWeightedAveRate(userLastUpdateTime[account], block.timestamp) */\n      tag_139\n      swap1\n        /* \"inviter_presell/stake.sol\":3480:3495  block.timestamp */\n      timestamp\n        /* \"inviter_presell/stake.sol\":3428:3450  getTimeWeightedAveRate */\n      tag_130\n        /* \"inviter_presell/stake.sol\":3428:3496  getTimeWeightedAveRate(userLastUpdateTime[account], block.timestamp) */\n      jump\t// in\n    tag_139:\n      sub(shl(0xa0, 0x01), 0x01)\n        /* \"inviter_presell/stake.sol\":3610:3626  rewards[account] */\n      dup5\n      and\n      0x00\n      swap1\n      dup2\n      mstore\n        /* \"inviter_presell/stake.sol\":3610:3617  rewards */\n      0x04\n        /* \"inviter_presell/stake.sol\":3610:3626  rewards[account] */\n      0x20\n      swap1\n      dup2\n      mstore\n      0x40\n      dup1\n      dup4\n      keccak256\n      sload\n        /* \"inviter_presell/stake.sol\":3562:3584  userRewardPerTokenPaid */\n      0x0c\n        /* \"inviter_presell/stake.sol\":3562:3593  userRewardPerTokenPaid[account] */\n      swap1\n      swap3\n      mstore\n      swap1\n      swap2\n      keccak256\n      sload\n        /* \"inviter_presell/stake.sol\":3413:3496  uint256 rate = getTimeWeightedAveRate(userLastUpdateTime[account], block.timestamp) */\n      swap2\n      swap3\n      pop\n        /* \"inviter_presell/stake.sol\":3514:3627  _balances[account].mul(rewardPerToken(rate).sub(userRewardPerTokenPaid[account])).div(1e18).add(rewards[account]) */\n      tag_140\n      swap2\n        /* \"inviter_presell/stake.sol\":3514:3605  _balances[account].mul(rewardPerToken(rate).sub(userRewardPerTokenPaid[account])).div(1e18) */\n      tag_141\n      swap1\n        /* \"inviter_presell/stake.sol\":3600:3604  1e18 */\n      0x0de0b6b3a7640000\n      swap1\n        /* \"inviter_presell/stake.sol\":3514:3595  _balances[account].mul(rewardPerToken(rate).sub(userRewardPerTokenPaid[account])) */\n      tag_142\n      swap1\n        /* \"inviter_presell/stake.sol\":3537:3594  rewardPerToken(rate).sub(userRewardPerTokenPaid[account]) */\n      tag_143\n      swap1\n        /* \"inviter_presell/stake.sol\":3537:3557  rewardPerToken(rate) */\n      tag_144\n        /* \"inviter_presell/stake.sol\":3413:3496  uint256 rate = getTimeWeightedAveRate(userLastUpdateTime[account], block.timestamp) */\n      dup9\n        /* \"inviter_presell/stake.sol\":3537:3551  rewardPerToken */\n      tag_96\n        /* \"inviter_presell/stake.sol\":3537:3557  rewardPerToken(rate) */\n      jump\t// in\n    tag_144:\n        /* \"inviter_presell/stake.sol\":3537:3561  rewardPerToken(rate).sub */\n      swap1\n      tag_145\n        /* \"inviter_presell/stake.sol\":3537:3594  rewardPerToken(rate).sub(userRewardPerTokenPaid[account]) */\n      jump\t// in\n    tag_143:\n      sub(shl(0xa0, 0x01), 0x01)\n        /* \"inviter_presell/stake.sol\":3514:3532  _balances[account] */\n      dup10\n      and\n      0x00\n      swap1\n      dup2\n      mstore\n        /* \"inviter_presell/stake.sol\":3514:3523  _balances */\n      0x0f\n        /* \"inviter_presell/stake.sol\":3514:3532  _balances[account] */\n      0x20\n      mstore\n      0x40\n      swap1\n      keccak256\n      sload\n      swap1\n        /* \"inviter_presell/stake.sol\":3514:3536  _balances[account].mul */\n      tag_146\n        /* \"inviter_presell/stake.sol\":3514:3595  _balances[account].mul(rewardPerToken(rate).sub(userRewardPerTokenPaid[account])) */\n      jump\t// in\n    tag_142:\n        /* \"inviter_presell/stake.sol\":3514:3599  _balances[account].mul(rewardPerToken(rate).sub(userRewardPerTokenPaid[account])).div */\n      swap1\n      tag_147\n        /* \"inviter_presell/stake.sol\":3514:3605  _balances[account].mul(rewardPerToken(rate).sub(userRewardPerTokenPaid[account])).div(1e18) */\n      jump\t// in\n    tag_141:\n        /* \"inviter_presell/stake.sol\":3514:3609  _balances[account].mul(rewardPerToken(rate).sub(userRewardPerTokenPaid[account])).div(1e18).add */\n      swap1\n      tag_148\n        /* \"inviter_presell/stake.sol\":3514:3627  _balances[account].mul(rewardPerToken(rate).sub(userRewardPerTokenPaid[account])).div(1e18).add(rewards[account]) */\n      jump\t// in\n    tag_140:\n        /* \"inviter_presell/stake.sol\":3507:3627  return _balances[account].mul(rewardPerToken(rate).sub(userRewardPerTokenPaid[account])).div(1e18).add(rewards[account]) */\n      swap4\n        /* \"inviter_presell/stake.sol\":3339:3635  function earned(address account) public view returns (uint256) {... */\n      swap3\n      pop\n      pop\n      pop\n      jump\t// out\n        /* \"inviter_presell/adminable.sol\":1642:1826  function modificationAdmin(address admin, bool state) public virtual onlyOwner {... */\n    tag_54:\n        /* \"inviter_presell/adminable.sol\":982:988  _owner */\n      and(sub(shl(0xa0, 0x01), 0x01), sload(0x01))\n        /* \"inviter_presell/adminable.sol\":143:153  msg.sender */\n      caller\n        /* \"inviter_presell/adminable.sol\":691:714  owner() == _msgSender() */\n      eq\n        /* \"inviter_presell/adminable.sol\":683:753  require(owner() == _msgSender(), \"Adminable: caller is not the owner\") */\n      tag_153\n      jumpi\n      mload(0x40)\n      shl(0xe5, 0x461bcd)\n      dup2\n      mstore\n      0x04\n      add\n      tag_154\n      swap1\n      tag_155\n      jump\t// in\n    tag_154:\n      mload(0x40)\n      dup1\n      swap2\n      sub\n      swap1\n      revert\n    tag_153:\n      sub(shl(0xa0, 0x01), 0x01)\n        /* \"inviter_presell/adminable.sol\":1737:1785  ModificationAdmin(admin,  _admins[admin], state) */\n      dup3\n      and\n        /* \"inviter_presell/adminable.sol\":1763:1770  _admins */\n      0x00\n        /* \"inviter_presell/adminable.sol\":1763:1777  _admins[admin] */\n      dup2\n      dup2\n      mstore\n      0x20\n      dup2\n      dup2\n      mstore\n      0x40\n      swap2\n      dup3\n      swap1\n      keccak256\n      sload\n        /* \"inviter_presell/adminable.sol\":1737:1785  ModificationAdmin(admin,  _admins[admin], state) */\n      dup3\n      mload\n        /* \"inviter_presell/adminable.sol\":1763:1777  _admins[admin] */\n      0xff\n      swap1\n      swap2\n      and\n        /* \"#utility.yul\":2917:2931   */\n      iszero\n        /* \"#utility.yul\":2910:2932   */\n      iszero\n        /* \"#utility.yul\":2892:2933   */\n      dup2\n      mstore\n        /* \"#utility.yul\":2976:2990   */\n      dup5\n      iszero\n        /* \"#utility.yul\":2969:2991   */\n      iszero\n        /* \"#utility.yul\":2949:2967   */\n      swap2\n      dup2\n      add\n        /* \"#utility.yul\":2942:2992   */\n      swap2\n      swap1\n      swap2\n      mstore\n        /* \"inviter_presell/adminable.sol\":1737:1785  ModificationAdmin(admin,  _admins[admin], state) */\n      0x82f1fa40a3d82dea3e406073819290601f436580aa7c69f9feb61f885bdd8854\n      swap2\n        /* \"#utility.yul\":2865:2883   */\n      add\n        /* \"inviter_presell/adminable.sol\":1737:1785  ModificationAdmin(admin,  _admins[admin], state) */\n      mload(0x40)\n      dup1\n      swap2\n      sub\n      swap1\n      log2\n      sub(shl(0xa0, 0x01), 0x01)\n        /* \"inviter_presell/adminable.sol\":1796:1810  _admins[admin] */\n      swap2\n      swap1\n      swap2\n      and\n        /* \"inviter_presell/adminable.sol\":1796:1803  _admins */\n      0x00\n        /* \"inviter_presell/adminable.sol\":1796:1810  _admins[admin] */\n      swap1\n      dup2\n      mstore\n      0x20\n      dup2\n      swap1\n      mstore\n      0x40\n      swap1\n      keccak256\n        /* \"inviter_presell/adminable.sol\":1796:1818  _admins[admin] = state */\n      dup1\n      sload\n      not(0xff)\n      and\n      swap2\n      iszero\n      iszero\n      swap2\n      swap1\n      swap2\n      or\n      swap1\n      sstore\n        /* \"inviter_presell/adminable.sol\":1642:1826  function modificationAdmin(address admin, bool state) public virtual onlyOwner {... */\n      jump\t// out\n        /* \"inviter_presell/stake.sol\":5326:5629  function getReward() public nonReentrant updateReward(msg.sender) {... */\n    tag_64:\n        /* \"node_modules/@openzeppelin/contracts/security/ReentrancyGuard.sol\":1778:1779  2 */\n      0x02\n        /* \"node_modules/@openzeppelin/contracts/security/ReentrancyGuard.sol\":2376:2383  _status */\n      dup1\n      sload\n        /* \"node_modules/@openzeppelin/contracts/security/ReentrancyGuard.sol\":2376:2395  _status != _ENTERED */\n      sub\n        /* \"node_modules/@openzeppelin/contracts/security/ReentrancyGuard.sol\":2368:2431  require(_status != _ENTERED, \"ReentrancyGuard: reentrant call\") */\n      tag_161\n      jumpi\n      mload(0x40)\n      shl(0xe5, 0x461bcd)\n      dup2\n      mstore\n        /* \"#utility.yul\":3205:3207   */\n      0x20\n        /* \"node_modules/@openzeppelin/contracts/security/ReentrancyGuard.sol\":2368:2431  require(_status != _ENTERED, \"ReentrancyGuard: reentrant call\") */\n      0x04\n      dup3\n      add\n        /* \"#utility.yul\":3187:3208   */\n      mstore\n        /* \"#utility.yul\":3244:3246   */\n      0x1f\n        /* \"#utility.yul\":3224:3242   */\n      0x24\n      dup3\n      add\n        /* \"#utility.yul\":3217:3247   */\n      mstore\n        /* \"#utility.yul\":3283:3316   */\n      0x5265656e7472616e637947756172643a207265656e7472616e742063616c6c00\n        /* \"#utility.yul\":3263:3281   */\n      0x44\n      dup3\n      add\n        /* \"#utility.yul\":3256:3317   */\n      mstore\n        /* \"#utility.yul\":3334:3352   */\n      0x64\n      add\n        /* \"node_modules/@openzeppelin/contracts/security/ReentrancyGuard.sol\":2368:2431  require(_status != _ENTERED, \"ReentrancyGuard: reentrant call\") */\n      tag_154\n        /* \"#utility.yul\":3003:3358   */\n      jump\n        /* \"node_modules/@openzeppelin/contracts/security/ReentrancyGuard.sol\":2368:2431  require(_status != _ENTERED, \"ReentrancyGuard: reentrant call\") */\n    tag_161:\n        /* \"node_modules/@openzeppelin/contracts/security/ReentrancyGuard.sol\":1778:1779  2 */\n      0x02\n        /* \"node_modules/@openzeppelin/contracts/security/ReentrancyGuard.sol\":2509:2527  _status = _ENTERED */\n      dup1\n      sstore\n        /* \"inviter_presell/stake.sol\":5380:5390  msg.sender */\n      caller\n        /* \"inviter_presell/stake.sol\":1050:1062  uint256 time */\n      0x00\n        /* \"inviter_presell/stake.sol\":1065:1092  userLastUpdateTime[account] */\n      dup2\n      dup2\n      mstore\n        /* \"inviter_presell/stake.sol\":1065:1083  userLastUpdateTime */\n      0x0d\n        /* \"inviter_presell/stake.sol\":1065:1092  userLastUpdateTime[account] */\n      0x20\n      mstore\n      0x40\n      dup2\n      keccak256\n      sload\n      swap1\n        /* \"inviter_presell/stake.sol\":1106:1115  time == 0 */\n      dup2\n      swap1\n      sub\n        /* \"inviter_presell/stake.sol\":1103:1160  if(time == 0) {... */\n      tag_165\n      jumpi\n      pop\n        /* \"inviter_presell/stake.sol\":1139:1148  startTime */\n      sload(0x06)\n        /* \"inviter_presell/stake.sol\":1103:1160  if(time == 0) {... */\n    tag_165:\n        /* \"inviter_presell/stake.sol\":1170:1182  uint256 rate */\n      0x00\n        /* \"inviter_presell/stake.sol\":1185:1230  getTimeWeightedAveRate(time, block.timestamp) */\n      tag_166\n        /* \"inviter_presell/stake.sol\":1208:1212  time */\n      dup3\n        /* \"inviter_presell/stake.sol\":1214:1229  block.timestamp */\n      timestamp\n        /* \"inviter_presell/stake.sol\":1185:1207  getTimeWeightedAveRate */\n      tag_130\n        /* \"inviter_presell/stake.sol\":1185:1230  getTimeWeightedAveRate(time, block.timestamp) */\n      jump\t// in\n    tag_166:\n        /* \"inviter_presell/stake.sol\":1170:1230  uint256 rate = getTimeWeightedAveRate(time, block.timestamp) */\n      swap1\n      pop\n        /* \"inviter_presell/stake.sol\":1264:1284  rewardPerToken(rate) */\n      tag_167\n        /* \"inviter_presell/stake.sol\":1279:1283  rate */\n      dup2\n        /* \"inviter_presell/stake.sol\":1264:1278  rewardPerToken */\n      tag_96\n        /* \"inviter_presell/stake.sol\":1264:1284  rewardPerToken(rate) */\n      jump\t// in\n    tag_167:\n        /* \"inviter_presell/stake.sol\":1241:1261  rewardPerTokenStored */\n      0x0b\n        /* \"inviter_presell/stake.sol\":1241:1284  rewardPerTokenStored = rewardPerToken(rate) */\n      sstore\n        /* \"inviter_presell/stake.sol\":2952:2967  block.timestamp */\n      timestamp\n        /* \"inviter_presell/stake.sol\":1295:1309  lastUpdateTime */\n      0x0a\n        /* \"inviter_presell/stake.sol\":1295:1338  lastUpdateTime = lastTimeRewardApplicable() */\n      sstore\n      sub(shl(0xa0, 0x01), 0x01)\n        /* \"inviter_presell/stake.sol\":1353:1374  account != address(0) */\n      dup4\n      and\n      iszero\n        /* \"inviter_presell/stake.sol\":1349:1566  if (account != address(0)) {... */\n      tag_169\n      jumpi\n        /* \"inviter_presell/stake.sol\":1410:1425  earned(account) */\n      tag_170\n        /* \"inviter_presell/stake.sol\":1417:1424  account */\n      dup4\n        /* \"inviter_presell/stake.sol\":1410:1416  earned */\n      tag_41\n        /* \"inviter_presell/stake.sol\":1410:1425  earned(account) */\n      jump\t// in\n    tag_170:\n      sub(shl(0xa0, 0x01), 0x01)\n        /* \"inviter_presell/stake.sol\":1391:1407  rewards[account] */\n      dup5\n      and\n      0x00\n      swap1\n      dup2\n      mstore\n        /* \"inviter_presell/stake.sol\":1391:1398  rewards */\n      0x04\n        /* \"inviter_presell/stake.sol\":1391:1407  rewards[account] */\n      0x20\n      swap1\n      dup2\n      mstore\n      0x40\n      dup1\n      dup4\n      keccak256\n        /* \"inviter_presell/stake.sol\":1391:1425  rewards[account] = earned(account) */\n      swap4\n      swap1\n      swap4\n      sstore\n        /* \"inviter_presell/stake.sol\":1474:1494  rewardPerTokenStored */\n      sload(0x0b)\n        /* \"inviter_presell/stake.sol\":1440:1462  userRewardPerTokenPaid */\n      0x0c\n        /* \"inviter_presell/stake.sol\":1440:1471  userRewardPerTokenPaid[account] */\n      dup3\n      mstore\n      dup4\n      dup4\n      keccak256\n        /* \"inviter_presell/stake.sol\":1440:1494  userRewardPerTokenPaid[account] = rewardPerTokenStored */\n      sstore\n        /* \"inviter_presell/stake.sol\":1509:1527  userLastUpdateTime */\n      0x0d\n        /* \"inviter_presell/stake.sol\":1509:1536  userLastUpdateTime[account] */\n      swap1\n      mstore\n      keccak256\n        /* \"inviter_presell/stake.sol\":1539:1554  block.timestamp */\n      timestamp\n        /* \"inviter_presell/stake.sol\":1509:1554  userLastUpdateTime[account] = block.timestamp */\n      swap1\n      sstore\n        /* \"inviter_presell/stake.sol\":1349:1566  if (account != address(0)) {... */\n    tag_169:\n        /* \"inviter_presell/stake.sol\":5428:5438  msg.sender */\n      caller\n        /* \"inviter_presell/stake.sol\":5403:5417  uint256 reward */\n      0x00\n        /* \"inviter_presell/stake.sol\":5420:5439  rewards[msg.sender] */\n      swap1\n      dup2\n      mstore\n        /* \"inviter_presell/stake.sol\":5420:5427  rewards */\n      0x04\n        /* \"inviter_presell/stake.sol\":5420:5439  rewards[msg.sender] */\n      0x20\n      mstore\n      0x40\n      swap1\n      keccak256\n      sload\n        /* \"inviter_presell/stake.sol\":5454:5464  reward > 0 */\n      dup1\n      iszero\n        /* \"inviter_presell/stake.sol\":5450:5622  if (reward > 0) {... */\n      tag_172\n      jumpi\n        /* \"inviter_presell/stake.sol\":5489:5499  msg.sender */\n      caller\n        /* \"inviter_presell/stake.sol\":5503:5504  0 */\n      0x00\n        /* \"inviter_presell/stake.sol\":5481:5500  rewards[msg.sender] */\n      dup2\n      dup2\n      mstore\n        /* \"inviter_presell/stake.sol\":5481:5488  rewards */\n      0x04\n        /* \"inviter_presell/stake.sol\":5481:5500  rewards[msg.sender] */\n      0x20\n      dup2\n      swap1\n      mstore\n      0x40\n      dup1\n      dup4\n      keccak256\n        /* \"inviter_presell/stake.sol\":5481:5504  rewards[msg.sender] = 0 */\n      swap3\n      swap1\n      swap3\n      sstore\n        /* \"inviter_presell/stake.sol\":5519:5531  rewardsToken */\n      sload(0x03)\n        /* \"inviter_presell/stake.sol\":5519:5560  rewardsToken.transfer(msg.sender, reward) */\n      swap2\n      mload\n      shl(0xe0, 0xa9059cbb)\n      dup2\n      mstore\n      swap1\n      dup2\n      add\n        /* \"#utility.yul\":3537:3588   */\n      swap3\n      swap1\n      swap3\n      mstore\n        /* \"#utility.yul\":3604:3622   */\n      0x24\n      dup3\n      add\n        /* \"#utility.yul\":3597:3631   */\n      dup4\n      swap1\n      mstore\n      sub(shl(0xa0, 0x01), 0x01)\n        /* \"inviter_presell/stake.sol\":5519:5531  rewardsToken */\n      and\n      swap1\n        /* \"inviter_presell/stake.sol\":5519:5540  rewardsToken.transfer */\n      0xa9059cbb\n      swap1\n        /* \"#utility.yul\":3510:3528   */\n      0x44\n      add\n        /* \"inviter_presell/stake.sol\":5519:5560  rewardsToken.transfer(msg.sender, reward) */\n      0x20\n      mload(0x40)\n      dup1\n      dup4\n      sub\n      dup2\n      0x00\n      dup8\n      gas\n      call\n      iszero\n      dup1\n      iszero\n      tag_176\n      jumpi\n      returndatasize\n      0x00\n      dup1\n      returndatacopy\n      revert(0x00, returndatasize)\n    tag_176:\n      pop\n      pop\n      pop\n      pop\n      mload(0x40)\n      returndatasize\n      not(0x1f)\n      0x1f\n      dup3\n      add\n      and\n      dup3\n      add\n      dup1\n      0x40\n      mstore\n      pop\n      dup2\n      add\n      swap1\n      tag_177\n      swap2\n      swap1\n      tag_178\n      jump\t// in\n    tag_177:\n      pop\n        /* \"inviter_presell/stake.sol\":5580:5610  RewardPaid(msg.sender, reward) */\n      mload(0x40)\n        /* \"#utility.yul\":529:554   */\n      dup2\n      dup2\n      mstore\n        /* \"inviter_presell/stake.sol\":5591:5601  msg.sender */\n      caller\n      swap1\n        /* \"inviter_presell/stake.sol\":5580:5610  RewardPaid(msg.sender, reward) */\n      0xe2403640ba68fed3a2f88b7557551d1993f84b99bb10ff833f0cf8db0c5e0486\n      swap1\n        /* \"#utility.yul\":517:519   */\n      0x20\n        /* \"#utility.yul\":502:520   */\n      add\n        /* \"inviter_presell/stake.sol\":5580:5610  RewardPaid(msg.sender, reward) */\n      mload(0x40)\n      dup1\n      swap2\n      sub\n      swap1\n      log2\n        /* \"inviter_presell/stake.sol\":5450:5622  if (reward > 0) {... */\n    tag_172:\n      pop\n      pop\n        /* \"node_modules/@openzeppelin/contracts/security/ReentrancyGuard.sol\":1734:1735  1 */\n      0x01\n        /* \"node_modules/@openzeppelin/contracts/security/ReentrancyGuard.sol\":2688:2695  _status */\n      0x02\n        /* \"node_modules/@openzeppelin/contracts/security/ReentrancyGuard.sol\":2688:2710  _status = _NOT_ENTERED */\n      sstore\n      pop\n      pop\n        /* \"inviter_presell/stake.sol\":5326:5629  function getReward() public nonReentrant updateReward(msg.sender) {... */\n      jump\t// out\n        /* \"inviter_presell/stake.sol\":1593:1681  function setStartTime(uint256 time) public onlyAdmin {... */\n    tag_68:\n        /* \"inviter_presell/adminable.sol\":821:842  isAdmin(_msgSender()) */\n      tag_181\n        /* \"inviter_presell/adminable.sol\":143:153  msg.sender */\n      caller\n        /* \"inviter_presell/adminable.sol\":829:841  _msgSender() */\n      tag_56\n        /* \"inviter_presell/adminable.sol\":63:161  function _msgSender() internal view virtual returns (address) {... */\n      jump\n        /* \"inviter_presell/adminable.sol\":821:842  isAdmin(_msgSender()) */\n    tag_181:\n        /* \"inviter_presell/adminable.sol\":813:881  require(isAdmin(_msgSender()), \"Adminable: caller is not the admin\") */\n      tag_183\n      jumpi\n      mload(0x40)\n      shl(0xe5, 0x461bcd)\n      dup2\n      mstore\n      0x04\n      add\n      tag_154\n      swap1\n      tag_185\n      jump\t// in\n    tag_183:\n        /* \"inviter_presell/stake.sol\":1657:1666  startTime */\n      0x06\n        /* \"inviter_presell/stake.sol\":1657:1673  startTime = time */\n      sstore\n        /* \"inviter_presell/stake.sol\":1593:1681  function setStartTime(uint256 time) public onlyAdmin {... */\n      jump\t// out\n        /* \"inviter_presell/stake.sol\":2031:2497  function getRewardPool(uint256 time) public view returns (uint256) {... */\n    tag_71:\n        /* \"inviter_presell/stake.sol\":2089:2096  uint256 */\n      0x00\n        /* \"inviter_presell/stake.sol\":2112:2121  startTime */\n      sload(0x06)\n        /* \"inviter_presell/stake.sol\":2125:2126  0 */\n      0x00\n        /* \"inviter_presell/stake.sol\":2112:2126  startTime == 0 */\n      sub\n        /* \"inviter_presell/stake.sol\":2109:2171  if(startTime == 0) {... */\n      tag_188\n      jumpi\n      pop\n      pop\n        /* \"inviter_presell/stake.sol\":2150:2159  startTime */\n      sload(0x06)\n      swap1\n        /* \"inviter_presell/stake.sol\":2031:2497  function getRewardPool(uint256 time) public view returns (uint256) {... */\n      jump\t// out\n        /* \"inviter_presell/stake.sol\":2109:2171  if(startTime == 0) {... */\n    tag_188:\n        /* \"inviter_presell/stake.sol\":2181:2194  uint256 times */\n      0x00\n        /* \"inviter_presell/stake.sol\":2218:2230  rateInterval */\n      sload(0x07)\n        /* \"inviter_presell/stake.sol\":2205:2214  startTime */\n      sload(0x06)\n        /* \"inviter_presell/stake.sol\":2198:2202  time */\n      dup5\n        /* \"inviter_presell/stake.sol\":2198:2214  time - startTime */\n      tag_189\n      swap2\n      swap1\n      tag_190\n      jump\t// in\n    tag_189:\n        /* \"inviter_presell/stake.sol\":2197:2230  (time - startTime) / rateInterval */\n      tag_191\n      swap2\n      swap1\n      tag_192\n      jump\t// in\n    tag_191:\n        /* \"inviter_presell/stake.sol\":2197:2234  (time - startTime) / rateInterval + 1 */\n      tag_193\n      swap1\n        /* \"inviter_presell/stake.sol\":2233:2234  1 */\n      0x01\n        /* \"inviter_presell/stake.sol\":2197:2234  (time - startTime) / rateInterval + 1 */\n      tag_194\n      jump\t// in\n    tag_193:\n        /* \"inviter_presell/stake.sol\":2261:2273  totalRewards */\n      sload(0x05)\n        /* \"inviter_presell/stake.sol\":2181:2234  uint256 times = (time - startTime) / rateInterval + 1 */\n      swap1\n      swap2\n      pop\n        /* \"inviter_presell/stake.sol\":2245:2258  uint256 value */\n      0x00\n        /* \"inviter_presell/stake.sol\":2284:2417  for(uint256 i = 0; i < times; ++i) {... */\n    tag_195:\n        /* \"inviter_presell/stake.sol\":2307:2312  times */\n      dup3\n        /* \"inviter_presell/stake.sol\":2303:2304  i */\n      dup2\n        /* \"inviter_presell/stake.sol\":2303:2312  i < times */\n      lt\n        /* \"inviter_presell/stake.sol\":2284:2417  for(uint256 i = 0; i < times; ++i) {... */\n      iszero\n      tag_196\n      jumpi\n        /* \"inviter_presell/stake.sol\":2382:2405  rateIntervalDenominator */\n      sload(0x09)\n        /* \"inviter_presell/stake.sol\":2358:2379  rateIntervalNumerator */\n      sload(0x08)\n        /* \"inviter_presell/stake.sol\":2350:2379  value * rateIntervalNumerator */\n      tag_198\n      swap1\n        /* \"inviter_presell/stake.sol\":2350:2355  value */\n      dup5\n        /* \"inviter_presell/stake.sol\":2350:2379  value * rateIntervalNumerator */\n      tag_199\n      jump\t// in\n    tag_198:\n        /* \"inviter_presell/stake.sol\":2350:2405  value * rateIntervalNumerator / rateIntervalDenominator */\n      tag_200\n      swap2\n      swap1\n      tag_192\n      jump\t// in\n    tag_200:\n        /* \"inviter_presell/stake.sol\":2342:2405  value - value * rateIntervalNumerator / rateIntervalDenominator */\n      tag_201\n      swap1\n        /* \"inviter_presell/stake.sol\":2342:2347  value */\n      dup4\n        /* \"inviter_presell/stake.sol\":2342:2405  value - value * rateIntervalNumerator / rateIntervalDenominator */\n      tag_190\n      jump\t// in\n    tag_201:\n        /* \"inviter_presell/stake.sol\":2334:2405  value = value - value * rateIntervalNumerator / rateIntervalDenominator */\n      swap2\n      pop\n        /* \"inviter_presell/stake.sol\":2314:2317  ++i */\n      tag_202\n      dup2\n      tag_203\n      jump\t// in\n    tag_202:\n      swap1\n      pop\n        /* \"inviter_presell/stake.sol\":2284:2417  for(uint256 i = 0; i < times; ++i) {... */\n      jump(tag_195)\n    tag_196:\n      pop\n        /* \"inviter_presell/stake.sol\":2466:2489  rateIntervalDenominator */\n      sload(0x09)\n        /* \"inviter_presell/stake.sol\":2442:2463  rateIntervalNumerator */\n      sload(0x08)\n        /* \"inviter_presell/stake.sol\":2434:2463  value * rateIntervalNumerator */\n      tag_204\n      swap1\n        /* \"inviter_presell/stake.sol\":2434:2439  value */\n      dup4\n        /* \"inviter_presell/stake.sol\":2434:2463  value * rateIntervalNumerator */\n      tag_199\n      jump\t// in\n    tag_204:\n        /* \"inviter_presell/stake.sol\":2434:2489  value * rateIntervalNumerator / rateIntervalDenominator */\n      tag_205\n      swap2\n      swap1\n      tag_192\n      jump\t// in\n    tag_205:\n        /* \"inviter_presell/stake.sol\":2427:2489  return value * rateIntervalNumerator / rateIntervalDenominator */\n      swap5\n        /* \"inviter_presell/stake.sol\":2031:2497  function getRewardPool(uint256 time) public view returns (uint256) {... */\n      swap4\n      pop\n      pop\n      pop\n      pop\n      jump\t// out\n        /* \"inviter_presell/adminable.sol\":1123:1226  function renounceOwnership() public virtual onlyOwner {... */\n    tag_80:\n        /* \"inviter_presell/adminable.sol\":982:988  _owner */\n      and(sub(shl(0xa0, 0x01), 0x01), sload(0x01))\n        /* \"inviter_presell/adminable.sol\":143:153  msg.sender */\n      caller\n        /* \"inviter_presell/adminable.sol\":691:714  owner() == _msgSender() */\n      eq\n        /* \"inviter_presell/adminable.sol\":683:753  require(owner() == _msgSender(), \"Adminable: caller is not the owner\") */\n      tag_210\n      jumpi\n      mload(0x40)\n      shl(0xe5, 0x461bcd)\n      dup2\n      mstore\n      0x04\n      add\n      tag_154\n      swap1\n      tag_155\n      jump\t// in\n    tag_210:\n        /* \"inviter_presell/adminable.sol\":1188:1218  _transferOwnership(address(0)) */\n      tag_213\n        /* \"inviter_presell/adminable.sol\":1215:1216  0 */\n      0x00\n        /* \"inviter_presell/adminable.sol\":1188:1206  _transferOwnership */\n      tag_214\n        /* \"inviter_presell/adminable.sol\":1188:1218  _transferOwnership(address(0)) */\n      jump\t// in\n    tag_213:\n        /* \"inviter_presell/adminable.sol\":1123:1226  function renounceOwnership() public virtual onlyOwner {... */\n      jump\t// out\n        /* \"inviter_presell/stake.sol\":2983:3331  function rewardPerToken(uint256 rewardRate) public view returns (uint256) {... */\n    tag_96:\n        /* \"inviter_presell/stake.sol\":3048:3055  uint256 */\n      0x00\n        /* \"inviter_presell/stake.sol\":3072:3084  _totalPowers */\n      sload(0x0e)\n        /* \"inviter_presell/stake.sol\":3088:3089  0 */\n      0x00\n        /* \"inviter_presell/stake.sol\":3072:3089  _totalPowers == 0 */\n      sub\n        /* \"inviter_presell/stake.sol\":3068:3145  if (_totalPowers == 0) {... */\n      tag_217\n      jumpi\n      pop\n      pop\n        /* \"inviter_presell/stake.sol\":3113:3133  rewardPerTokenStored */\n      sload(0x0b)\n      swap1\n        /* \"inviter_presell/stake.sol\":2983:3331  function rewardPerToken(uint256 rewardRate) public view returns (uint256) {... */\n      jump\t// out\n        /* \"inviter_presell/stake.sol\":3068:3145  if (_totalPowers == 0) {... */\n    tag_217:\n        /* \"inviter_presell/stake.sol\":3175:3323  rewardPerTokenStored.add(... */\n      tag_218\n        /* \"inviter_presell/stake.sol\":3218:3308  lastTimeRewardApplicable().sub(lastUpdateTime).mul(rewardRate).mul(1e18).div(_totalPowers) */\n      tag_219\n        /* \"inviter_presell/stake.sol\":3295:3307  _totalPowers */\n      sload(0x0e)\n        /* \"inviter_presell/stake.sol\":3218:3290  lastTimeRewardApplicable().sub(lastUpdateTime).mul(rewardRate).mul(1e18) */\n      tag_142\n        /* \"inviter_presell/stake.sol\":3285:3289  1e18 */\n      0x0de0b6b3a7640000\n        /* \"inviter_presell/stake.sol\":3218:3280  lastTimeRewardApplicable().sub(lastUpdateTime).mul(rewardRate) */\n      tag_222\n        /* \"inviter_presell/stake.sol\":3269:3279  rewardRate */\n      dup8\n        /* \"inviter_presell/stake.sol\":3218:3264  lastTimeRewardApplicable().sub(lastUpdateTime) */\n      tag_222\n        /* \"inviter_presell/stake.sol\":3249:3263  lastUpdateTime */\n      sload(0x0a)\n        /* \"inviter_presell/stake.sol\":3218:3244  lastTimeRewardApplicable() */\n      tag_144\n        /* \"inviter_presell/stake.sol\":2952:2967  block.timestamp */\n      timestamp\n      swap1\n        /* \"inviter_presell/stake.sol\":2868:2975  function lastTimeRewardApplicable() public view returns (uint256) {... */\n      jump\n        /* \"inviter_presell/stake.sol\":3218:3264  lastTimeRewardApplicable().sub(lastUpdateTime) */\n    tag_222:\n        /* \"inviter_presell/stake.sol\":3218:3268  lastTimeRewardApplicable().sub(lastUpdateTime).mul */\n      swap1\n      tag_146\n        /* \"inviter_presell/stake.sol\":3218:3280  lastTimeRewardApplicable().sub(lastUpdateTime).mul(rewardRate) */\n      jump\t// in\n        /* \"inviter_presell/stake.sol\":3218:3308  lastTimeRewardApplicable().sub(lastUpdateTime).mul(rewardRate).mul(1e18).div(_totalPowers) */\n    tag_219:\n        /* \"inviter_presell/stake.sol\":3175:3195  rewardPerTokenStored */\n      sload(0x0b)\n      swap1\n        /* \"inviter_presell/stake.sol\":3175:3199  rewardPerTokenStored.add */\n      tag_148\n        /* \"inviter_presell/stake.sol\":3175:3323  rewardPerTokenStored.add(... */\n      jump\t// in\n    tag_218:\n        /* \"inviter_presell/stake.sol\":3155:3323  return... */\n      swap3\n        /* \"inviter_presell/stake.sol\":2983:3331  function rewardPerToken(uint256 rewardRate) public view returns (uint256) {... */\n      swap2\n      pop\n      pop\n      jump\t// out\n        /* \"inviter_presell/stake.sol\":1909:2023  function getCurRewardPool() public view returns (uint256) {... */\n    tag_107:\n        /* \"inviter_presell/stake.sol\":1958:1965  uint256 */\n      0x00\n        /* \"inviter_presell/stake.sol\":1985:2015  getRewardPool(block.timestamp) */\n      tag_226\n        /* \"inviter_presell/stake.sol\":1999:2014  block.timestamp */\n      timestamp\n        /* \"inviter_presell/stake.sol\":1985:1998  getRewardPool */\n      tag_71\n        /* \"inviter_presell/stake.sol\":1985:2015  getRewardPool(block.timestamp) */\n      jump\t// in\n    tag_226:\n        /* \"inviter_presell/stake.sol\":1978:2015  return getRewardPool(block.timestamp) */\n      swap1\n      pop\n        /* \"inviter_presell/stake.sol\":1909:2023  function getCurRewardPool() public view returns (uint256) {... */\n      swap1\n      jump\t// out\n        /* \"inviter_presell/stake.sol\":5014:5314  function stake(address user, uint256 amount) external nonReentrant onlyAdmin updateReward(msg.sender) {... */\n    tag_112:\n        /* \"node_modules/@openzeppelin/contracts/security/ReentrancyGuard.sol\":1778:1779  2 */\n      0x02\n        /* \"node_modules/@openzeppelin/contracts/security/ReentrancyGuard.sol\":2376:2383  _status */\n      dup1\n      sload\n        /* \"node_modules/@openzeppelin/contracts/security/ReentrancyGuard.sol\":2376:2395  _status != _ENTERED */\n      sub\n        /* \"node_modules/@openzeppelin/contracts/security/ReentrancyGuard.sol\":2368:2431  require(_status != _ENTERED, \"ReentrancyGuard: reentrant call\") */\n      tag_228\n      jumpi\n      mload(0x40)\n      shl(0xe5, 0x461bcd)\n      dup2\n      mstore\n        /* \"#utility.yul\":3205:3207   */\n      0x20\n        /* \"node_modules/@openzeppelin/contracts/security/ReentrancyGuard.sol\":2368:2431  require(_status != _ENTERED, \"ReentrancyGuard: reentrant call\") */\n      0x04\n      dup3\n      add\n        /* \"#utility.yul\":3187:3208   */\n      mstore\n        /* \"#utility.yul\":3244:3246   */\n      0x1f\n        /* \"#utility.yul\":3224:3242   */\n      0x24\n      dup3\n      add\n        /* \"#utility.yul\":3217:3247   */\n      mstore\n        /* \"#utility.yul\":3283:3316   */\n      0x5265656e7472616e637947756172643a207265656e7472616e742063616c6c00\n        /* \"#utility.yul\":3263:3281   */\n      0x44\n      dup3\n      add\n        /* \"#utility.yul\":3256:3317   */\n      mstore\n        /* \"#utility.yul\":3334:3352   */\n      0x64\n      add\n        /* \"node_modules/@openzeppelin/contracts/security/ReentrancyGuard.sol\":2368:2431  require(_status != _ENTERED, \"ReentrancyGuard: reentrant call\") */\n      tag_154\n        /* \"#utility.yul\":3003:3358   */\n      jump\n        /* \"node_modules/@openzeppelin/contracts/security/ReentrancyGuard.sol\":2368:2431  require(_status != _ENTERED, \"ReentrancyGuard: reentrant call\") */\n    tag_228:\n        /* \"node_modules/@openzeppelin/contracts/security/ReentrancyGuard.sol\":1778:1779  2 */\n      0x02\n        /* \"node_modules/@openzeppelin/contracts/security/ReentrancyGuard.sol\":2509:2527  _status = _ENTERED */\n      dup1\n      sstore\n        /* \"inviter_presell/adminable.sol\":821:842  isAdmin(_msgSender()) */\n      tag_231\n        /* \"inviter_presell/adminable.sol\":143:153  msg.sender */\n      caller\n        /* \"inviter_presell/adminable.sol\":829:841  _msgSender() */\n      tag_56\n        /* \"inviter_presell/adminable.sol\":63:161  function _msgSender() internal view virtual returns (address) {... */\n      jump\n        /* \"inviter_presell/adminable.sol\":821:842  isAdmin(_msgSender()) */\n    tag_231:\n        /* \"inviter_presell/adminable.sol\":813:881  require(isAdmin(_msgSender()), \"Adminable: caller is not the admin\") */\n      tag_233\n      jumpi\n      mload(0x40)\n      shl(0xe5, 0x461bcd)\n      dup2\n      mstore\n      0x04\n      add\n      tag_154\n      swap1\n      tag_185\n      jump\t// in\n    tag_233:\n        /* \"inviter_presell/stake.sol\":5104:5114  msg.sender */\n      caller\n        /* \"inviter_presell/stake.sol\":1050:1062  uint256 time */\n      0x00\n        /* \"inviter_presell/stake.sol\":1065:1092  userLastUpdateTime[account] */\n      dup2\n      dup2\n      mstore\n        /* \"inviter_presell/stake.sol\":1065:1083  userLastUpdateTime */\n      0x0d\n        /* \"inviter_presell/stake.sol\":1065:1092  userLastUpdateTime[account] */\n      0x20\n      mstore\n      0x40\n      dup2\n      keccak256\n      sload\n      swap1\n        /* \"inviter_presell/stake.sol\":1106:1115  time == 0 */\n      dup2\n      swap1\n      sub\n        /* \"inviter_presell/stake.sol\":1103:1160  if(time == 0) {... */\n      tag_236\n      jumpi\n      pop\n        /* \"inviter_presell/stake.sol\":1139:1148  startTime */\n      sload(0x06)\n        /* \"inviter_presell/stake.sol\":1103:1160  if(time == 0) {... */\n    tag_236:\n        /* \"inviter_presell/stake.sol\":1170:1182  uint256 rate */\n      0x00\n        /* \"inviter_presell/stake.sol\":1185:1230  getTimeWeightedAveRate(time, block.timestamp) */\n      tag_237\n        /* \"inviter_presell/stake.sol\":1208:1212  time */\n      dup3\n        /* \"inviter_presell/stake.sol\":1214:1229  block.timestamp */\n      timestamp\n        /* \"inviter_presell/stake.sol\":1185:1207  getTimeWeightedAveRate */\n      tag_130\n        /* \"inviter_presell/stake.sol\":1185:1230  getTimeWeightedAveRate(time, block.timestamp) */\n      jump\t// in\n    tag_237:\n        /* \"inviter_presell/stake.sol\":1170:1230  uint256 rate = getTimeWeightedAveRate(time, block.timestamp) */\n      swap1\n      pop\n        /* \"inviter_presell/stake.sol\":1264:1284  rewardPerToken(rate) */\n      tag_238\n        /* \"inviter_presell/stake.sol\":1279:1283  rate */\n      dup2\n        /* \"inviter_presell/stake.sol\":1264:1278  rewardPerToken */\n      tag_96\n        /* \"inviter_presell/stake.sol\":1264:1284  rewardPerToken(rate) */\n      jump\t// in\n    tag_238:\n        /* \"inviter_presell/stake.sol\":1241:1261  rewardPerTokenStored */\n      0x0b\n        /* \"inviter_presell/stake.sol\":1241:1284  rewardPerTokenStored = rewardPerToken(rate) */\n      sstore\n        /* \"inviter_presell/stake.sol\":2952:2967  block.timestamp */\n      timestamp\n        /* \"inviter_presell/stake.sol\":1295:1309  lastUpdateTime */\n      0x0a\n        /* \"inviter_presell/stake.sol\":1295:1338  lastUpdateTime = lastTimeRewardApplicable() */\n      sstore\n      sub(shl(0xa0, 0x01), 0x01)\n        /* \"inviter_presell/stake.sol\":1353:1374  account != address(0) */\n      dup4\n      and\n      iszero\n        /* \"inviter_presell/stake.sol\":1349:1566  if (account != address(0)) {... */\n      tag_240\n      jumpi\n        /* \"inviter_presell/stake.sol\":1410:1425  earned(account) */\n      tag_241\n        /* \"inviter_presell/stake.sol\":1417:1424  account */\n      dup4\n        /* \"inviter_presell/stake.sol\":1410:1416  earned */\n      tag_41\n        /* \"inviter_presell/stake.sol\":1410:1425  earned(account) */\n      jump\t// in\n    tag_241:\n      sub(shl(0xa0, 0x01), 0x01)\n        /* \"inviter_presell/stake.sol\":1391:1407  rewards[account] */\n      dup5\n      and\n      0x00\n      swap1\n      dup2\n      mstore\n        /* \"inviter_presell/stake.sol\":1391:1398  rewards */\n      0x04\n        /* \"inviter_presell/stake.sol\":1391:1407  rewards[account] */\n      0x20\n      swap1\n      dup2\n      mstore\n      0x40\n      dup1\n      dup4\n      keccak256\n        /* \"inviter_presell/stake.sol\":1391:1425  rewards[account] = earned(account) */\n      swap4\n      swap1\n      swap4\n      sstore\n        /* \"inviter_presell/stake.sol\":1474:1494  rewardPerTokenStored */\n      sload(0x0b)\n        /* \"inviter_presell/stake.sol\":1440:1462  userRewardPerTokenPaid */\n      0x0c\n        /* \"inviter_presell/stake.sol\":1440:1471  userRewardPerTokenPaid[account] */\n      dup3\n      mstore\n      dup4\n      dup4\n      keccak256\n        /* \"inviter_presell/stake.sol\":1440:1494  userRewardPerTokenPaid[account] = rewardPerTokenStored */\n      sstore\n        /* \"inviter_presell/stake.sol\":1509:1527  userLastUpdateTime */\n      0x0d\n        /* \"inviter_presell/stake.sol\":1509:1536  userLastUpdateTime[account] */\n      swap1\n      mstore\n      keccak256\n        /* \"inviter_presell/stake.sol\":1539:1554  block.timestamp */\n      timestamp\n        /* \"inviter_presell/stake.sol\":1509:1554  userLastUpdateTime[account] = block.timestamp */\n      swap1\n      sstore\n        /* \"inviter_presell/stake.sol\":1349:1566  if (account != address(0)) {... */\n    tag_240:\n        /* \"inviter_presell/stake.sol\":5144:5145  0 */\n      0x00\n        /* \"inviter_presell/stake.sol\":5135:5141  amount */\n      dup5\n        /* \"inviter_presell/stake.sol\":5135:5145  amount > 0 */\n      gt\n        /* \"inviter_presell/stake.sol\":5127:5164  require(amount > 0, \"Cannot stake 0\") */\n      tag_243\n      jumpi\n      mload(0x40)\n      shl(0xe5, 0x461bcd)\n      dup2\n      mstore\n        /* \"#utility.yul\":5462:5464   */\n      0x20\n        /* \"inviter_presell/stake.sol\":5127:5164  require(amount > 0, \"Cannot stake 0\") */\n      0x04\n      dup3\n      add\n        /* \"#utility.yul\":5444:5465   */\n      mstore\n        /* \"#utility.yul\":5501:5503   */\n      0x0e\n        /* \"#utility.yul\":5481:5499   */\n      0x24\n      dup3\n      add\n        /* \"#utility.yul\":5474:5504   */\n      mstore\n      shl(0x94, 0x043616e6e6f74207374616b65203)\n        /* \"#utility.yul\":5520:5538   */\n      0x44\n      dup3\n      add\n        /* \"#utility.yul\":5513:5557   */\n      mstore\n        /* \"#utility.yul\":5574:5592   */\n      0x64\n      add\n        /* \"inviter_presell/stake.sol\":5127:5164  require(amount > 0, \"Cannot stake 0\") */\n      tag_154\n        /* \"#utility.yul\":5260:5598   */\n      jump\n        /* \"inviter_presell/stake.sol\":5127:5164  require(amount > 0, \"Cannot stake 0\") */\n    tag_243:\n        /* \"inviter_presell/stake.sol\":5190:5202  _totalPowers */\n      sload(0x0e)\n        /* \"inviter_presell/stake.sol\":5190:5214  _totalPowers.add(amount) */\n      tag_246\n      swap1\n        /* \"inviter_presell/stake.sol\":5207:5213  amount */\n      dup6\n        /* \"inviter_presell/stake.sol\":5190:5206  _totalPowers.add */\n      tag_148\n        /* \"inviter_presell/stake.sol\":5190:5214  _totalPowers.add(amount) */\n      jump\t// in\n    tag_246:\n        /* \"inviter_presell/stake.sol\":5175:5187  _totalPowers */\n      0x0e\n        /* \"inviter_presell/stake.sol\":5175:5214  _totalPowers = _totalPowers.add(amount) */\n      sstore\n      sub(shl(0xa0, 0x01), 0x01)\n        /* \"inviter_presell/stake.sol\":5243:5258  _balances[user] */\n      dup6\n      and\n      0x00\n      swap1\n      dup2\n      mstore\n        /* \"inviter_presell/stake.sol\":5243:5252  _balances */\n      0x0f\n        /* \"inviter_presell/stake.sol\":5243:5258  _balances[user] */\n      0x20\n      mstore\n      0x40\n      swap1\n      keccak256\n      sload\n        /* \"inviter_presell/stake.sol\":5243:5270  _balances[user].add(amount) */\n      tag_247\n      swap1\n        /* \"inviter_presell/stake.sol\":5263:5269  amount */\n      dup6\n        /* \"inviter_presell/stake.sol\":5243:5262  _balances[user].add */\n      tag_148\n        /* \"inviter_presell/stake.sol\":5243:5270  _balances[user].add(amount) */\n      jump\t// in\n    tag_247:\n      sub(shl(0xa0, 0x01), 0x01)\n        /* \"inviter_presell/stake.sol\":5225:5240  _balances[user] */\n      dup7\n      and\n      0x00\n      dup2\n      dup2\n      mstore\n        /* \"inviter_presell/stake.sol\":5225:5234  _balances */\n      0x0f\n        /* \"inviter_presell/stake.sol\":5225:5240  _balances[user] */\n      0x20\n      mstore\n      0x40\n      swap1\n      dup2\n      swap1\n      keccak256\n        /* \"inviter_presell/stake.sol\":5225:5270  _balances[user] = _balances[user].add(amount) */\n      swap3\n      swap1\n      swap3\n      sstore\n        /* \"inviter_presell/stake.sol\":5286:5306  Staked(user, amount) */\n      swap1\n      mload\n      0x9e71bc8eea02a63969f509818f2dafb9254532904319f9dbda79b67bd34a5f3d\n      swap1\n      tag_248\n      swap1\n        /* \"inviter_presell/stake.sol\":5299:5305  amount */\n      dup8\n        /* \"#utility.yul\":529:554   */\n      dup2\n      mstore\n        /* \"#utility.yul\":517:519   */\n      0x20\n        /* \"#utility.yul\":502:520   */\n      add\n      swap1\n        /* \"#utility.yul\":383:560   */\n      jump\n        /* \"inviter_presell/stake.sol\":5286:5306  Staked(user, amount) */\n    tag_248:\n      mload(0x40)\n      dup1\n      swap2\n      sub\n      swap1\n      log2\n      pop\n      pop\n        /* \"node_modules/@openzeppelin/contracts/security/ReentrancyGuard.sol\":1734:1735  1 */\n      0x01\n        /* \"node_modules/@openzeppelin/contracts/security/ReentrancyGuard.sol\":2688:2695  _status */\n      0x02\n        /* \"node_modules/@openzeppelin/contracts/security/ReentrancyGuard.sol\":2688:2710  _status = _NOT_ENTERED */\n      sstore\n      pop\n      pop\n      pop\n        /* \"inviter_presell/stake.sol\":5014:5314  function stake(address user, uint256 amount) external nonReentrant onlyAdmin updateReward(msg.sender) {... */\n      jump\t// out\n        /* \"inviter_presell/stake.sol\":2513:2628  function getCurRewardRate() public view returns (uint256) {... */\n    tag_121:\n        /* \"inviter_presell/stake.sol\":2562:2569  uint256 */\n      0x00\n        /* \"inviter_presell/stake.sol\":2589:2620  _getRewardRate(block.timestamp) */\n      tag_226\n        /* \"inviter_presell/stake.sol\":2604:2619  block.timestamp */\n      timestamp\n        /* \"inviter_presell/stake.sol\":2589:2603  _getRewardRate */\n      tag_252\n        /* \"inviter_presell/stake.sol\":2589:2620  _getRewardRate(block.timestamp) */\n      jump\t// in\n        /* \"inviter_presell/stake.sol\":3678:5004  function getTimeWeightedAveRate(uint256 leftTime, uint256 rightTime) public view returns (uint256){... */\n    tag_130:\n        /* \"inviter_presell/stake.sol\":3768:3775  uint256 */\n      0x00\n        /* \"inviter_presell/stake.sol\":3800:3809  startTime */\n      sload(0x06)\n        /* \"inviter_presell/stake.sol\":3813:3814  0 */\n      0x00\n        /* \"inviter_presell/stake.sol\":3800:3814  startTime == 0 */\n      eq\n        /* \"inviter_presell/stake.sol\":3800:3839  startTime == 0 || leftTime >= rightTime */\n      dup1\n      tag_254\n      jumpi\n      pop\n        /* \"inviter_presell/stake.sol\":3830:3839  rightTime */\n      dup2\n        /* \"inviter_presell/stake.sol\":3818:3826  leftTime */\n      dup4\n        /* \"inviter_presell/stake.sol\":3818:3839  leftTime >= rightTime */\n      lt\n      iszero\n        /* \"inviter_presell/stake.sol\":3800:3839  startTime == 0 || leftTime >= rightTime */\n    tag_254:\n        /* \"inviter_presell/stake.sol\":3800:3856  startTime == 0 || leftTime >= rightTime || leftTime == 0 */\n      dup1\n      tag_255\n      jumpi\n      pop\n        /* \"inviter_presell/stake.sol\":3843:3856  leftTime == 0 */\n      dup3\n      iszero\n        /* \"inviter_presell/stake.sol\":3800:3856  startTime == 0 || leftTime >= rightTime || leftTime == 0 */\n    tag_255:\n        /* \"inviter_presell/stake.sol\":3797:3893  if(startTime == 0 || leftTime >= rightTime || leftTime == 0) {... */\n      iszero\n      tag_256\n      jumpi\n      pop\n        /* \"inviter_presell/stake.sol\":3880:3881  0 */\n      0x00\n        /* \"inviter_presell/stake.sol\":3873:3881  return 0 */\n      jump(tag_218)\n        /* \"inviter_presell/stake.sol\":3797:3893  if(startTime == 0 || leftTime >= rightTime || leftTime == 0) {... */\n    tag_256:\n        /* \"inviter_presell/stake.sol\":3919:3928  startTime */\n      sload(0x06)\n        /* \"inviter_presell/stake.sol\":3908:3916  leftTime */\n      dup4\n        /* \"inviter_presell/stake.sol\":3908:3928  leftTime < startTime */\n      lt\n        /* \"inviter_presell/stake.sol\":3905:3977  if(leftTime < startTime) {... */\n      iszero\n      tag_257\n      jumpi\n        /* \"inviter_presell/stake.sol\":3956:3965  startTime */\n      sload(0x06)\n        /* \"inviter_presell/stake.sol\":3945:3965  leftTime = startTime */\n      swap3\n      pop\n        /* \"inviter_presell/stake.sol\":3905:3977  if(leftTime < startTime) {... */\n    tag_257:\n        /* \"inviter_presell/stake.sol\":3989:4009  uint256 leftInterval */\n      0x00\n        /* \"inviter_presell/stake.sol\":4069:4081  rateInterval */\n      sload(0x07)\n        /* \"inviter_presell/stake.sol\":4053:4065  rateInterval */\n      sload(0x07)\n        /* \"inviter_presell/stake.sol\":4040:4049  startTime */\n      sload(0x06)\n        /* \"inviter_presell/stake.sol\":4029:4037  leftTime */\n      dup7\n        /* \"inviter_presell/stake.sol\":4029:4049  leftTime - startTime */\n      tag_258\n      swap2\n      swap1\n      tag_190\n      jump\t// in\n    tag_258:\n        /* \"inviter_presell/stake.sol\":4028:4065  (leftTime - startTime) % rateInterval */\n      tag_259\n      swap2\n      swap1\n      tag_260\n      jump\t// in\n    tag_259:\n        /* \"inviter_presell/stake.sol\":4013:4025  rateInterval */\n      sload(0x07)\n        /* \"inviter_presell/stake.sol\":4013:4065  rateInterval - (leftTime - startTime) % rateInterval */\n      tag_261\n      swap2\n      swap1\n      tag_190\n      jump\t// in\n    tag_261:\n        /* \"inviter_presell/stake.sol\":4012:4081  (rateInterval - (leftTime - startTime) % rateInterval) % rateInterval */\n      tag_262\n      swap2\n      swap1\n      tag_260\n      jump\t// in\n    tag_262:\n        /* \"inviter_presell/stake.sol\":3989:4081  uint256 leftInterval = (rateInterval - (leftTime - startTime) % rateInterval) % rateInterval */\n      swap1\n      pop\n        /* \"inviter_presell/stake.sol\":4092:4110  uint256 leftReward */\n      0x00\n        /* \"inviter_presell/stake.sol\":4154:4166  rateInterval */\n      sload(0x07)\n        /* \"inviter_presell/stake.sol\":4139:4151  leftInterval */\n      dup3\n        /* \"inviter_presell/stake.sol\":4113:4136  getRewardPool(leftTime) */\n      tag_263\n        /* \"inviter_presell/stake.sol\":4127:4135  leftTime */\n      dup8\n        /* \"inviter_presell/stake.sol\":4113:4126  getRewardPool */\n      tag_71\n        /* \"inviter_presell/stake.sol\":4113:4136  getRewardPool(leftTime) */\n      jump\t// in\n    tag_263:\n        /* \"inviter_presell/stake.sol\":4113:4151  getRewardPool(leftTime) * leftInterval */\n      tag_264\n      swap2\n      swap1\n      tag_199\n      jump\t// in\n    tag_264:\n        /* \"inviter_presell/stake.sol\":4113:4166  getRewardPool(leftTime) * leftInterval / rateInterval */\n      tag_265\n      swap2\n      swap1\n      tag_192\n      jump\t// in\n    tag_265:\n        /* \"inviter_presell/stake.sol\":4092:4166  uint256 leftReward = getRewardPool(leftTime) * leftInterval / rateInterval */\n      swap1\n      pop\n        /* \"inviter_presell/stake.sol\":4179:4200  uint256 rightInterval */\n      0x00\n        /* \"inviter_presell/stake.sol\":4229:4241  rateInterval */\n      sload(0x07)\n        /* \"inviter_presell/stake.sol\":4216:4225  startTime */\n      sload(0x06)\n        /* \"inviter_presell/stake.sol\":4204:4213  rightTime */\n      dup7\n        /* \"inviter_presell/stake.sol\":4204:4225  rightTime - startTime */\n      tag_266\n      swap2\n      swap1\n      tag_190\n      jump\t// in\n    tag_266:\n        /* \"inviter_presell/stake.sol\":4203:4241  (rightTime - startTime) % rateInterval */\n      tag_267\n      swap2\n      swap1\n      tag_260\n      jump\t// in\n    tag_267:\n        /* \"inviter_presell/stake.sol\":4179:4241  uint256 rightInterval = (rightTime - startTime) % rateInterval */\n      swap1\n      pop\n        /* \"inviter_presell/stake.sol\":4252:4271  uint256 rightReward */\n      0x00\n        /* \"inviter_presell/stake.sol\":4317:4329  rateInterval */\n      sload(0x07)\n        /* \"inviter_presell/stake.sol\":4301:4314  rightInterval */\n      dup3\n        /* \"inviter_presell/stake.sol\":4274:4298  getRewardPool(rightTime) */\n      tag_268\n        /* \"inviter_presell/stake.sol\":4288:4297  rightTime */\n      dup9\n        /* \"inviter_presell/stake.sol\":4274:4287  getRewardPool */\n      tag_71\n        /* \"inviter_presell/stake.sol\":4274:4298  getRewardPool(rightTime) */\n      jump\t// in\n    tag_268:\n        /* \"inviter_presell/stake.sol\":4274:4314  getRewardPool(rightTime) * rightInterval */\n      tag_269\n      swap2\n      swap1\n      tag_199\n      jump\t// in\n    tag_269:\n        /* \"inviter_presell/stake.sol\":4274:4329  getRewardPool(rightTime) * rightInterval / rateInterval */\n      tag_270\n      swap2\n      swap1\n      tag_192\n      jump\t// in\n    tag_270:\n        /* \"inviter_presell/stake.sol\":4252:4329  uint256 rightReward = getRewardPool(rightTime) * rightInterval / rateInterval */\n      swap1\n      pop\n        /* \"inviter_presell/stake.sol\":4391:4410  uint256 midInterval */\n      0x00\n        /* \"inviter_presell/stake.sol\":4452:4464  leftInterval */\n      dup5\n        /* \"inviter_presell/stake.sol\":4441:4449  leftTime */\n      dup9\n        /* \"inviter_presell/stake.sol\":4413:4438  rightTime - rightInterval */\n      tag_271\n        /* \"inviter_presell/stake.sol\":4425:4438  rightInterval */\n      dup6\n        /* \"inviter_presell/stake.sol\":4413:4422  rightTime */\n      dup11\n        /* \"inviter_presell/stake.sol\":4413:4438  rightTime - rightInterval */\n      tag_190\n      jump\t// in\n    tag_271:\n        /* \"inviter_presell/stake.sol\":4413:4449  rightTime - rightInterval - leftTime */\n      tag_272\n      swap2\n      swap1\n      tag_190\n      jump\t// in\n    tag_272:\n        /* \"inviter_presell/stake.sol\":4413:4464  rightTime - rightInterval - leftTime - leftInterval */\n      tag_273\n      swap2\n      swap1\n      tag_190\n      jump\t// in\n    tag_273:\n        /* \"inviter_presell/stake.sol\":4391:4464  uint256 midInterval = rightTime - rightInterval - leftTime - leftInterval */\n      swap1\n      pop\n        /* \"inviter_presell/stake.sol\":4475:4494  uint256 startReward */\n      0x00\n        /* \"inviter_presell/stake.sol\":4497:4520  getRewardPool(leftTime) */\n      tag_274\n        /* \"inviter_presell/stake.sol\":4511:4519  leftTime */\n      dup10\n        /* \"inviter_presell/stake.sol\":4497:4510  getRewardPool */\n      tag_71\n        /* \"inviter_presell/stake.sol\":4497:4520  getRewardPool(leftTime) */\n      jump\t// in\n    tag_274:\n        /* \"inviter_presell/stake.sol\":4475:4520  uint256 startReward = getRewardPool(leftTime) */\n      swap1\n      pop\n        /* \"inviter_presell/stake.sol\":4532:4554  uint256 midTotalReward */\n      0x00\n        /* \"inviter_presell/stake.sol\":4569:4587  uint256 nextReward */\n      dup1\n        /* \"inviter_presell/stake.sol\":4602:4615  uint256 value */\n      0x00\n        /* \"inviter_presell/stake.sol\":4618:4629  startReward */\n      dup4\n        /* \"inviter_presell/stake.sol\":4602:4629  uint256 value = startReward */\n      swap1\n      pop\n        /* \"inviter_presell/stake.sol\":4640:4653  uint256 times */\n      0x00\n        /* \"inviter_presell/stake.sol\":4670:4682  rateInterval */\n      sload(0x07)\n        /* \"inviter_presell/stake.sol\":4656:4667  midInterval */\n      dup7\n        /* \"inviter_presell/stake.sol\":4656:4682  midInterval / rateInterval */\n      tag_275\n      swap2\n      swap1\n      tag_192\n      jump\t// in\n    tag_275:\n        /* \"inviter_presell/stake.sol\":4656:4686  midInterval / rateInterval + 1 */\n      tag_276\n      swap1\n        /* \"inviter_presell/stake.sol\":4685:4686  1 */\n      0x01\n        /* \"inviter_presell/stake.sol\":4656:4686  midInterval / rateInterval + 1 */\n      tag_194\n      jump\t// in\n    tag_276:\n        /* \"inviter_presell/stake.sol\":4640:4686  uint256 times = midInterval / rateInterval + 1 */\n      swap1\n      pop\n        /* \"inviter_presell/stake.sol\":4701:4710  uint256 i */\n      0x00\n        /* \"inviter_presell/stake.sol\":4697:4911  for(uint256 i = 0; i < times; ++i) {... */\n    tag_277:\n        /* \"inviter_presell/stake.sol\":4720:4725  times */\n      dup2\n        /* \"inviter_presell/stake.sol\":4716:4717  i */\n      dup2\n        /* \"inviter_presell/stake.sol\":4716:4725  i < times */\n      lt\n        /* \"inviter_presell/stake.sol\":4697:4911  for(uint256 i = 0; i < times; ++i) {... */\n      iszero\n      tag_278\n      jumpi\n        /* \"inviter_presell/stake.sol\":4792:4815  rateIntervalDenominator */\n      sload(0x09)\n        /* \"inviter_presell/stake.sol\":4768:4789  rateIntervalNumerator */\n      sload(0x08)\n        /* \"inviter_presell/stake.sol\":4760:4789  value * rateIntervalNumerator */\n      tag_280\n      swap1\n        /* \"inviter_presell/stake.sol\":4760:4765  value */\n      dup6\n        /* \"inviter_presell/stake.sol\":4760:4789  value * rateIntervalNumerator */\n      tag_199\n      jump\t// in\n    tag_280:\n        /* \"inviter_presell/stake.sol\":4760:4815  value * rateIntervalNumerator / rateIntervalDenominator */\n      tag_281\n      swap2\n      swap1\n      tag_192\n      jump\t// in\n    tag_281:\n        /* \"inviter_presell/stake.sol\":4747:4815  nextReward = value * rateIntervalNumerator / rateIntervalDenominator */\n      swap4\n      pop\n        /* \"inviter_presell/stake.sol\":4838:4856  value - nextReward */\n      tag_282\n        /* \"inviter_presell/stake.sol\":4747:4815  nextReward = value * rateIntervalNumerator / rateIntervalDenominator */\n      dup5\n        /* \"inviter_presell/stake.sol\":4838:4843  value */\n      dup5\n        /* \"inviter_presell/stake.sol\":4838:4856  value - nextReward */\n      tag_190\n      jump\t// in\n    tag_282:\n        /* \"inviter_presell/stake.sol\":4830:4856  value = value - nextReward */\n      swap3\n      pop\n        /* \"inviter_presell/stake.sol\":4871:4899  midTotalReward += nextReward */\n      tag_283\n        /* \"inviter_presell/stake.sol\":4889:4899  nextReward */\n      dup5\n        /* \"inviter_presell/stake.sol\":4871:4899  midTotalReward += nextReward */\n      dup7\n      tag_194\n      jump\t// in\n    tag_283:\n      swap5\n      pop\n        /* \"inviter_presell/stake.sol\":4727:4730  ++i */\n      tag_284\n      dup2\n      tag_203\n      jump\t// in\n    tag_284:\n      swap1\n      pop\n        /* \"inviter_presell/stake.sol\":4697:4911  for(uint256 i = 0; i < times; ++i) {... */\n      jump(tag_277)\n    tag_278:\n      pop\n        /* \"inviter_presell/stake.sol\":4975:4995  rightTime - leftTime */\n      tag_285\n        /* \"inviter_presell/stake.sol\":4987:4995  leftTime */\n      dup14\n        /* \"inviter_presell/stake.sol\":4975:4984  rightTime */\n      dup14\n        /* \"inviter_presell/stake.sol\":4975:4995  rightTime - leftTime */\n      tag_190\n      jump\t// in\n    tag_285:\n        /* \"inviter_presell/stake.sol\":4959:4970  rightReward */\n      dup8\n        /* \"inviter_presell/stake.sol\":4929:4956  midTotalReward + leftReward */\n      tag_286\n        /* \"inviter_presell/stake.sol\":4946:4956  leftReward */\n      dup12\n        /* \"inviter_presell/stake.sol\":4929:4943  midTotalReward */\n      dup8\n        /* \"inviter_presell/stake.sol\":4929:4956  midTotalReward + leftReward */\n      tag_194\n      jump\t// in\n    tag_286:\n        /* \"inviter_presell/stake.sol\":4929:4970  midTotalReward + leftReward + rightReward */\n      tag_287\n      swap2\n      swap1\n      tag_194\n      jump\t// in\n    tag_287:\n        /* \"inviter_presell/stake.sol\":4928:4996  (midTotalReward + leftReward + rightReward) / (rightTime - leftTime) */\n      tag_288\n      swap2\n      swap1\n      tag_192\n      jump\t// in\n    tag_288:\n        /* \"inviter_presell/stake.sol\":4921:4996  return (midTotalReward + leftReward + rightReward) / (rightTime - leftTime) */\n      swap14\n        /* \"inviter_presell/stake.sol\":3678:5004  function getTimeWeightedAveRate(uint256 leftTime, uint256 rightTime) public view returns (uint256){... */\n      swap13\n      pop\n      pop\n      pop\n      pop\n      pop\n      pop\n      pop\n      pop\n      pop\n      pop\n      pop\n      pop\n      pop\n      jump\t// out\n        /* \"inviter_presell/adminable.sol\":1234:1435  function transferOwnership(address newOwner) public virtual onlyOwner {... */\n    tag_137:\n        /* \"inviter_presell/adminable.sol\":982:988  _owner */\n      and(sub(shl(0xa0, 0x01), 0x01), sload(0x01))\n        /* \"inviter_presell/adminable.sol\":143:153  msg.sender */\n      caller\n        /* \"inviter_presell/adminable.sol\":691:714  owner() == _msgSender() */\n      eq\n        /* \"inviter_presell/adminable.sol\":683:753  require(owner() == _msgSender(), \"Adminable: caller is not the owner\") */\n      tag_292\n      jumpi\n      mload(0x40)\n      shl(0xe5, 0x461bcd)\n      dup2\n      mstore\n      0x04\n      add\n      tag_154\n      swap1\n      tag_155\n      jump\t// in\n    tag_292:\n      sub(shl(0xa0, 0x01), 0x01)\n        /* \"inviter_presell/adminable.sol\":1323:1345  newOwner != address(0) */\n      dup2\n      and\n        /* \"inviter_presell/adminable.sol\":1315:1388  require(newOwner != address(0), \"Ownable: new owner is the zero address\") */\n      tag_295\n      jumpi\n      mload(0x40)\n      shl(0xe5, 0x461bcd)\n      dup2\n      mstore\n        /* \"#utility.yul\":5922:5924   */\n      0x20\n        /* \"inviter_presell/adminable.sol\":1315:1388  require(newOwner != address(0), \"Ownable: new owner is the zero address\") */\n      0x04\n      dup3\n      add\n        /* \"#utility.yul\":5904:5925   */\n      mstore\n        /* \"#utility.yul\":5961:5963   */\n      0x26\n        /* \"#utility.yul\":5941:5959   */\n      0x24\n      dup3\n      add\n        /* \"#utility.yul\":5934:5964   */\n      mstore\n        /* \"#utility.yul\":6000:6034   */\n      0x4f776e61626c653a206e6577206f776e657220697320746865207a65726f2061\n        /* \"#utility.yul\":5980:5998   */\n      0x44\n      dup3\n      add\n        /* \"#utility.yul\":5973:6035   */\n      mstore\n      shl(0xd0, 0x646472657373)\n        /* \"#utility.yul\":6051:6069   */\n      0x64\n      dup3\n      add\n        /* \"#utility.yul\":6044:6080   */\n      mstore\n        /* \"#utility.yul\":6097:6116   */\n      0x84\n      add\n        /* \"inviter_presell/adminable.sol\":1315:1388  require(newOwner != address(0), \"Ownable: new owner is the zero address\") */\n      tag_154\n        /* \"#utility.yul\":5720:6122   */\n      jump\n        /* \"inviter_presell/adminable.sol\":1315:1388  require(newOwner != address(0), \"Ownable: new owner is the zero address\") */\n    tag_295:\n        /* \"inviter_presell/adminable.sol\":1399:1427  _transferOwnership(newOwner) */\n      tag_298\n        /* \"inviter_presell/adminable.sol\":1418:1426  newOwner */\n      dup2\n        /* \"inviter_presell/adminable.sol\":1399:1417  _transferOwnership */\n      tag_214\n        /* \"inviter_presell/adminable.sol\":1399:1427  _transferOwnership(newOwner) */\n      jump\t// in\n    tag_298:\n        /* \"inviter_presell/adminable.sol\":1234:1435  function transferOwnership(address newOwner) public virtual onlyOwner {... */\n      pop\n      jump\t// out\n        /* \"node_modules/@openzeppelin/contracts/utils/math/SafeMath.sol\":3214:3312  function sub(uint256 a, uint256 b) internal pure returns (uint256) {... */\n    tag_145:\n        /* \"node_modules/@openzeppelin/contracts/utils/math/SafeMath.sol\":3272:3279  uint256 */\n      0x00\n        /* \"node_modules/@openzeppelin/contracts/utils/math/SafeMath.sol\":3299:3304  a - b */\n      tag_140\n        /* \"node_modules/@openzeppelin/contracts/utils/math/SafeMath.sol\":3303:3304  b */\n      dup3\n        /* \"node_modules/@openzeppelin/contracts/utils/math/SafeMath.sol\":3299:3300  a */\n      dup5\n        /* \"node_modules/@openzeppelin/contracts/utils/math/SafeMath.sol\":3299:3304  a - b */\n      tag_190\n      jump\t// in\n        /* \"node_modules/@openzeppelin/contracts/utils/math/SafeMath.sol\":3571:3669  function mul(uint256 a, uint256 b) internal pure returns (uint256) {... */\n    tag_146:\n        /* \"node_modules/@openzeppelin/contracts/utils/math/SafeMath.sol\":3629:3636  uint256 */\n      0x00\n        /* \"node_modules/@openzeppelin/contracts/utils/math/SafeMath.sol\":3656:3661  a * b */\n      tag_140\n        /* \"node_modules/@openzeppelin/contracts/utils/math/SafeMath.sol\":3660:3661  b */\n      dup3\n        /* \"node_modules/@openzeppelin/contracts/utils/math/SafeMath.sol\":3656:3657  a */\n      dup5\n        /* \"node_modules/@openzeppelin/contracts/utils/math/SafeMath.sol\":3656:3661  a * b */\n      tag_199\n      jump\t// in\n        /* \"node_modules/@openzeppelin/contracts/utils/math/SafeMath.sol\":3970:4068  function div(uint256 a, uint256 b) internal pure returns (uint256) {... */\n    tag_147:\n        /* \"node_modules/@openzeppelin/contracts/utils/math/SafeMath.sol\":4028:4035  uint256 */\n      0x00\n        /* \"node_modules/@openzeppelin/contracts/utils/math/SafeMath.sol\":4055:4060  a / b */\n      tag_140\n        /* \"node_modules/@openzeppelin/contracts/utils/math/SafeMath.sol\":4059:4060  b */\n      dup3\n        /* \"node_modules/@openzeppelin/contracts/utils/math/SafeMath.sol\":4055:4056  a */\n      dup5\n        /* \"node_modules/@openzeppelin/contracts/utils/math/SafeMath.sol\":4055:4060  a / b */\n      tag_192\n      jump\t// in\n        /* \"node_modules/@openzeppelin/contracts/utils/math/SafeMath.sol\":2833:2931  function add(uint256 a, uint256 b) internal pure returns (uint256) {... */\n    tag_148:\n        /* \"node_modules/@openzeppelin/contracts/utils/math/SafeMath.sol\":2891:2898  uint256 */\n      0x00\n        /* \"node_modules/@openzeppelin/contracts/utils/math/SafeMath.sol\":2918:2923  a + b */\n      tag_140\n        /* \"node_modules/@openzeppelin/contracts/utils/math/SafeMath.sol\":2922:2923  b */\n      dup3\n        /* \"node_modules/@openzeppelin/contracts/utils/math/SafeMath.sol\":2918:2919  a */\n      dup5\n        /* \"node_modules/@openzeppelin/contracts/utils/math/SafeMath.sol\":2918:2923  a + b */\n      tag_194\n      jump\t// in\n        /* \"inviter_presell/adminable.sol\":1443:1634  function _transferOwnership(address newOwner) internal virtual {... */\n    tag_214:\n        /* \"inviter_presell/adminable.sol\":1536:1542  _owner */\n      0x01\n      dup1\n      sload\n      sub(shl(0xa0, 0x01), 0x01)\n        /* \"inviter_presell/adminable.sol\":1553:1570  _owner = newOwner */\n      dup4\n      dup2\n      and\n      not(sub(shl(0xa0, 0x01), 0x01))\n      dup4\n      and\n      dup2\n      or\n      swap1\n      swap4\n      sstore\n        /* \"inviter_presell/adminable.sol\":1586:1626  OwnershipTransferred(oldOwner, newOwner) */\n      mload(0x40)\n        /* \"inviter_presell/adminable.sol\":1536:1542  _owner */\n      swap2\n      and\n      swap2\n        /* \"inviter_presell/adminable.sol\":1553:1570  _owner = newOwner */\n      swap1\n        /* \"inviter_presell/adminable.sol\":1536:1542  _owner */\n      dup3\n      swap1\n        /* \"inviter_presell/adminable.sol\":1586:1626  OwnershipTransferred(oldOwner, newOwner) */\n      0x8be0079c531659141344cd1fd0a4f28419497f9722a3daafe3b4186f6b6457e0\n      swap1\n        /* \"inviter_presell/adminable.sol\":1517:1533  address oldOwner */\n      0x00\n      swap1\n        /* \"inviter_presell/adminable.sol\":1586:1626  OwnershipTransferred(oldOwner, newOwner) */\n      log3\n        /* \"inviter_presell/adminable.sol\":1506:1634  {... */\n      pop\n        /* \"inviter_presell/adminable.sol\":1443:1634  function _transferOwnership(address newOwner) internal virtual {... */\n      pop\n      jump\t// out\n        /* \"inviter_presell/stake.sol\":2636:2858  function _getRewardRate(uint256 time) private view returns (uint256) {... */\n    tag_252:\n        /* \"inviter_presell/stake.sol\":2696:2703  uint256 */\n      0x00\n        /* \"inviter_presell/stake.sol\":2716:2737  uint256 curPoolAmount */\n      dup1\n        /* \"inviter_presell/stake.sol\":2740:2759  getRewardPool(time) */\n      tag_310\n        /* \"inviter_presell/stake.sol\":2754:2758  time */\n      dup4\n        /* \"inviter_presell/stake.sol\":2740:2753  getRewardPool */\n      tag_71\n        /* \"inviter_presell/stake.sol\":2740:2759  getRewardPool(time) */\n      jump\t// in\n    tag_310:\n        /* \"inviter_presell/stake.sol\":2716:2759  uint256 curPoolAmount = getRewardPool(time) */\n      swap1\n      pop\n        /* \"inviter_presell/stake.sol\":2770:2788  uint256 rewardRate */\n      0x00\n        /* \"inviter_presell/stake.sol\":2791:2822  curPoolAmount.div(rateInterval) */\n      tag_205\n        /* \"inviter_presell/stake.sol\":2809:2821  rateInterval */\n      sload(0x07)\n        /* \"inviter_presell/stake.sol\":2791:2804  curPoolAmount */\n      dup4\n        /* \"inviter_presell/stake.sol\":2791:2808  curPoolAmount.div */\n      tag_147\n      swap1\n        /* \"inviter_presell/stake.sol\":2791:2822  curPoolAmount.div(rateInterval) */\n      swap2\n      swap1\n      0xffffffff\n      and\n      jump\t// in\n        /* \"#utility.yul\":14:187   */\n    tag_312:\n        /* \"#utility.yul\":82:102   */\n      dup1\n      calldataload\n      sub(shl(0xa0, 0x01), 0x01)\n        /* \"#utility.yul\":131:162   */\n      dup2\n      and\n        /* \"#utility.yul\":121:163   */\n      dup2\n      eq\n        /* \"#utility.yul\":111:181   */\n      tag_318\n      jumpi\n        /* \"#utility.yul\":177:178   */\n      0x00\n        /* \"#utility.yul\":174:175   */\n      dup1\n        /* \"#utility.yul\":167:179   */\n      revert\n        /* \"#utility.yul\":111:181   */\n    tag_318:\n        /* \"#utility.yul\":14:187   */\n      swap2\n      swap1\n      pop\n      jump\t// out\n        /* \"#utility.yul\":192:378   */\n    tag_40:\n        /* \"#utility.yul\":251:257   */\n      0x00\n        /* \"#utility.yul\":304:306   */\n      0x20\n        /* \"#utility.yul\":292:301   */\n      dup3\n        /* \"#utility.yul\":283:290   */\n      dup5\n        /* \"#utility.yul\":279:302   */\n      sub\n        /* \"#utility.yul\":275:307   */\n      slt\n        /* \"#utility.yul\":272:324   */\n      iszero\n      tag_320\n      jumpi\n        /* \"#utility.yul\":320:321   */\n      0x00\n        /* \"#utility.yul\":317:318   */\n      dup1\n        /* \"#utility.yul\":310:322   */\n      revert\n        /* \"#utility.yul\":272:324   */\n    tag_320:\n        /* \"#utility.yul\":343:372   */\n      tag_140\n        /* \"#utility.yul\":362:371   */\n      dup3\n        /* \"#utility.yul\":343:372   */\n      tag_312\n      jump\t// in\n        /* \"#utility.yul\":565:683   */\n    tag_313:\n        /* \"#utility.yul\":651:656   */\n      dup1\n        /* \"#utility.yul\":644:657   */\n      iszero\n        /* \"#utility.yul\":637:658   */\n      iszero\n        /* \"#utility.yul\":630:635   */\n      dup2\n        /* \"#utility.yul\":627:659   */\n      eq\n        /* \"#utility.yul\":617:677   */\n      tag_298\n      jumpi\n        /* \"#utility.yul\":673:674   */\n      0x00\n        /* \"#utility.yul\":670:671   */\n      dup1\n        /* \"#utility.yul\":663:675   */\n      revert\n        /* \"#utility.yul\":688:1003   */\n    tag_53:\n        /* \"#utility.yul\":753:759   */\n      0x00\n        /* \"#utility.yul\":761:767   */\n      dup1\n        /* \"#utility.yul\":814:816   */\n      0x40\n        /* \"#utility.yul\":802:811   */\n      dup4\n        /* \"#utility.yul\":793:800   */\n      dup6\n        /* \"#utility.yul\":789:812   */\n      sub\n        /* \"#utility.yul\":785:817   */\n      slt\n        /* \"#utility.yul\":782:834   */\n      iszero\n      tag_326\n      jumpi\n        /* \"#utility.yul\":830:831   */\n      0x00\n        /* \"#utility.yul\":827:828   */\n      dup1\n        /* \"#utility.yul\":820:832   */\n      revert\n        /* \"#utility.yul\":782:834   */\n    tag_326:\n        /* \"#utility.yul\":853:882   */\n      tag_327\n        /* \"#utility.yul\":872:881   */\n      dup4\n        /* \"#utility.yul\":853:882   */\n      tag_312\n      jump\t// in\n    tag_327:\n        /* \"#utility.yul\":843:882   */\n      swap2\n      pop\n        /* \"#utility.yul\":932:934   */\n      0x20\n        /* \"#utility.yul\":921:930   */\n      dup4\n        /* \"#utility.yul\":917:935   */\n      add\n        /* \"#utility.yul\":904:936   */\n      calldataload\n        /* \"#utility.yul\":945:973   */\n      tag_328\n        /* \"#utility.yul\":967:972   */\n      dup2\n        /* \"#utility.yul\":945:973   */\n      tag_313\n      jump\t// in\n    tag_328:\n        /* \"#utility.yul\":992:997   */\n      dup1\n        /* \"#utility.yul\":982:997   */\n      swap2\n      pop\n      pop\n        /* \"#utility.yul\":688:1003   */\n      swap3\n      pop\n      swap3\n      swap1\n      pop\n      jump\t// out\n        /* \"#utility.yul\":1200:1380   */\n    tag_67:\n        /* \"#utility.yul\":1259:1265   */\n      0x00\n        /* \"#utility.yul\":1312:1314   */\n      0x20\n        /* \"#utility.yul\":1300:1309   */\n      dup3\n        /* \"#utility.yul\":1291:1298   */\n      dup5\n        /* \"#utility.yul\":1287:1310   */\n      sub\n        /* \"#utility.yul\":1283:1315   */\n      slt\n        /* \"#utility.yul\":1280:1332   */\n      iszero\n      tag_331\n      jumpi\n        /* \"#utility.yul\":1328:1329   */\n      0x00\n        /* \"#utility.yul\":1325:1326   */\n      dup1\n        /* \"#utility.yul\":1318:1330   */\n      revert\n        /* \"#utility.yul\":1280:1332   */\n    tag_331:\n      pop\n        /* \"#utility.yul\":1351:1374   */\n      calldataload\n      swap2\n        /* \"#utility.yul\":1200:1380   */\n      swap1\n      pop\n      jump\t// out\n        /* \"#utility.yul\":1593:1847   */\n    tag_111:\n        /* \"#utility.yul\":1661:1667   */\n      0x00\n        /* \"#utility.yul\":1669:1675   */\n      dup1\n        /* \"#utility.yul\":1722:1724   */\n      0x40\n        /* \"#utility.yul\":1710:1719   */\n      dup4\n        /* \"#utility.yul\":1701:1708   */\n      dup6\n        /* \"#utility.yul\":1697:1720   */\n      sub\n        /* \"#utility.yul\":1693:1725   */\n      slt\n        /* \"#utility.yul\":1690:1742   */\n      iszero\n      tag_334\n      jumpi\n        /* \"#utility.yul\":1738:1739   */\n      0x00\n        /* \"#utility.yul\":1735:1736   */\n      dup1\n        /* \"#utility.yul\":1728:1740   */\n      revert\n        /* \"#utility.yul\":1690:1742   */\n    tag_334:\n        /* \"#utility.yul\":1761:1790   */\n      tag_335\n        /* \"#utility.yul\":1780:1789   */\n      dup4\n        /* \"#utility.yul\":1761:1790   */\n      tag_312\n      jump\t// in\n    tag_335:\n        /* \"#utility.yul\":1751:1790   */\n      swap5\n        /* \"#utility.yul\":1837:1839   */\n      0x20\n        /* \"#utility.yul\":1822:1840   */\n      swap4\n      swap1\n      swap4\n      add\n        /* \"#utility.yul\":1809:1841   */\n      calldataload\n      swap4\n      pop\n      pop\n      pop\n        /* \"#utility.yul\":1593:1847   */\n      jump\t// out\n        /* \"#utility.yul\":2074:2322   */\n    tag_129:\n        /* \"#utility.yul\":2142:2148   */\n      0x00\n        /* \"#utility.yul\":2150:2156   */\n      dup1\n        /* \"#utility.yul\":2203:2205   */\n      0x40\n        /* \"#utility.yul\":2191:2200   */\n      dup4\n        /* \"#utility.yul\":2182:2189   */\n      dup6\n        /* \"#utility.yul\":2178:2201   */\n      sub\n        /* \"#utility.yul\":2174:2206   */\n      slt\n        /* \"#utility.yul\":2171:2223   */\n      iszero\n      tag_338\n      jumpi\n        /* \"#utility.yul\":2219:2220   */\n      0x00\n        /* \"#utility.yul\":2216:2217   */\n      dup1\n        /* \"#utility.yul\":2209:2221   */\n      revert\n        /* \"#utility.yul\":2171:2223   */\n    tag_338:\n      pop\n      pop\n        /* \"#utility.yul\":2242:2265   */\n      dup1\n      calldataload\n      swap3\n        /* \"#utility.yul\":2312:2314   */\n      0x20\n        /* \"#utility.yul\":2297:2315   */\n      swap1\n      swap2\n      add\n        /* \"#utility.yul\":2284:2316   */\n      calldataload\n      swap2\n      pop\n        /* \"#utility.yul\":2074:2322   */\n      jump\t// out\n        /* \"#utility.yul\":2327:2725   */\n    tag_155:\n        /* \"#utility.yul\":2529:2531   */\n      0x20\n        /* \"#utility.yul\":2511:2532   */\n      dup1\n      dup3\n      mstore\n        /* \"#utility.yul\":2568:2570   */\n      0x22\n        /* \"#utility.yul\":2548:2566   */\n      swap1\n      dup3\n      add\n        /* \"#utility.yul\":2541:2571   */\n      mstore\n        /* \"#utility.yul\":2607:2641   */\n      0x41646d696e61626c653a2063616c6c6572206973206e6f7420746865206f776e\n        /* \"#utility.yul\":2602:2604   */\n      0x40\n        /* \"#utility.yul\":2587:2605   */\n      dup3\n      add\n        /* \"#utility.yul\":2580:2642   */\n      mstore\n      shl(0xf1, 0x32b9)\n        /* \"#utility.yul\":2673:2675   */\n      0x60\n        /* \"#utility.yul\":2658:2676   */\n      dup3\n      add\n        /* \"#utility.yul\":2651:2683   */\n      mstore\n        /* \"#utility.yul\":2715:2718   */\n      0x80\n        /* \"#utility.yul\":2700:2719   */\n      add\n      swap1\n        /* \"#utility.yul\":2327:2725   */\n      jump\t// out\n        /* \"#utility.yul\":3642:3887   */\n    tag_178:\n        /* \"#utility.yul\":3709:3715   */\n      0x00\n        /* \"#utility.yul\":3762:3764   */\n      0x20\n        /* \"#utility.yul\":3750:3759   */\n      dup3\n        /* \"#utility.yul\":3741:3748   */\n      dup5\n        /* \"#utility.yul\":3737:3760   */\n      sub\n        /* \"#utility.yul\":3733:3765   */\n      slt\n        /* \"#utility.yul\":3730:3782   */\n      iszero\n      tag_344\n      jumpi\n        /* \"#utility.yul\":3778:3779   */\n      0x00\n        /* \"#utility.yul\":3775:3776   */\n      dup1\n        /* \"#utility.yul\":3768:3780   */\n      revert\n        /* \"#utility.yul\":3730:3782   */\n    tag_344:\n        /* \"#utility.yul\":3810:3819   */\n      dup2\n        /* \"#utility.yul\":3804:3820   */\n      mload\n        /* \"#utility.yul\":3829:3857   */\n      tag_140\n        /* \"#utility.yul\":3851:3856   */\n      dup2\n        /* \"#utility.yul\":3829:3857   */\n      tag_313\n      jump\t// in\n        /* \"#utility.yul\":3892:4290   */\n    tag_185:\n        /* \"#utility.yul\":4094:4096   */\n      0x20\n        /* \"#utility.yul\":4076:4097   */\n      dup1\n      dup3\n      mstore\n        /* \"#utility.yul\":4133:4135   */\n      0x22\n        /* \"#utility.yul\":4113:4131   */\n      swap1\n      dup3\n      add\n        /* \"#utility.yul\":4106:4136   */\n      mstore\n        /* \"#utility.yul\":4172:4206   */\n      0x41646d696e61626c653a2063616c6c6572206973206e6f74207468652061646d\n        /* \"#utility.yul\":4167:4169   */\n      0x40\n        /* \"#utility.yul\":4152:4170   */\n      dup3\n      add\n        /* \"#utility.yul\":4145:4207   */\n      mstore\n      shl(0xf1, 0x34b7)\n        /* \"#utility.yul\":4238:4240   */\n      0x60\n        /* \"#utility.yul\":4223:4241   */\n      dup3\n      add\n        /* \"#utility.yul\":4216:4248   */\n      mstore\n        /* \"#utility.yul\":4280:4283   */\n      0x80\n        /* \"#utility.yul\":4265:4284   */\n      add\n      swap1\n        /* \"#utility.yul\":3892:4290   */\n      jump\t// out\n        /* \"#utility.yul\":4295:4422   */\n    tag_314:\n        /* \"#utility.yul\":4356:4366   */\n      0x4e487b71\n        /* \"#utility.yul\":4351:4354   */\n      0xe0\n        /* \"#utility.yul\":4347:4367   */\n      shl\n        /* \"#utility.yul\":4344:4345   */\n      0x00\n        /* \"#utility.yul\":4337:4368   */\n      mstore\n        /* \"#utility.yul\":4387:4391   */\n      0x11\n        /* \"#utility.yul\":4384:4385   */\n      0x04\n        /* \"#utility.yul\":4377:4392   */\n      mstore\n        /* \"#utility.yul\":4411:4415   */\n      0x24\n        /* \"#utility.yul\":4408:4409   */\n      0x00\n        /* \"#utility.yul\":4401:4416   */\n      revert\n        /* \"#utility.yul\":4427:4555   */\n    tag_190:\n        /* \"#utility.yul\":4494:4503   */\n      dup2\n      dup2\n      sub\n        /* \"#utility.yul\":4515:4526   */\n      dup2\n      dup2\n      gt\n        /* \"#utility.yul\":4512:4549   */\n      iszero\n      tag_218\n      jumpi\n        /* \"#utility.yul\":4529:4547   */\n      tag_218\n      tag_314\n      jump\t// in\n        /* \"#utility.yul\":4560:4687   */\n    tag_315:\n        /* \"#utility.yul\":4621:4631   */\n      0x4e487b71\n        /* \"#utility.yul\":4616:4619   */\n      0xe0\n        /* \"#utility.yul\":4612:4632   */\n      shl\n        /* \"#utility.yul\":4609:4610   */\n      0x00\n        /* \"#utility.yul\":4602:4633   */\n      mstore\n        /* \"#utility.yul\":4652:4656   */\n      0x12\n        /* \"#utility.yul\":4649:4650   */\n      0x04\n        /* \"#utility.yul\":4642:4657   */\n      mstore\n        /* \"#utility.yul\":4676:4680   */\n      0x24\n        /* \"#utility.yul\":4673:4674   */\n      0x00\n        /* \"#utility.yul\":4666:4681   */\n      revert\n        /* \"#utility.yul\":4692:4812   */\n    tag_192:\n        /* \"#utility.yul\":4732:4733   */\n      0x00\n        /* \"#utility.yul\":4758:4759   */\n      dup3\n        /* \"#utility.yul\":4748:4783   */\n      tag_354\n      jumpi\n        /* \"#utility.yul\":4763:4781   */\n      tag_354\n      tag_315\n      jump\t// in\n    tag_354:\n      pop\n        /* \"#utility.yul\":4797:4806   */\n      div\n      swap1\n        /* \"#utility.yul\":4692:4812   */\n      jump\t// out\n        /* \"#utility.yul\":4817:4942   */\n    tag_194:\n        /* \"#utility.yul\":4882:4891   */\n      dup1\n      dup3\n      add\n        /* \"#utility.yul\":4903:4913   */\n      dup1\n      dup3\n      gt\n        /* \"#utility.yul\":4900:4936   */\n      iszero\n      tag_218\n      jumpi\n        /* \"#utility.yul\":4916:4934   */\n      tag_218\n      tag_314\n      jump\t// in\n        /* \"#utility.yul\":4947:5115   */\n    tag_199:\n        /* \"#utility.yul\":5020:5029   */\n      dup1\n      dup3\n      mul\n        /* \"#utility.yul\":5051:5060   */\n      dup2\n      iszero\n        /* \"#utility.yul\":5068:5083   */\n      dup3\n      dup3\n      div\n        /* \"#utility.yul\":5062:5084   */\n      dup5\n      eq\n        /* \"#utility.yul\":5048:5085   */\n      or\n        /* \"#utility.yul\":5038:5109   */\n      tag_218\n      jumpi\n        /* \"#utility.yul\":5089:5107   */\n      tag_218\n      tag_314\n      jump\t// in\n        /* \"#utility.yul\":5120:5255   */\n    tag_203:\n        /* \"#utility.yul\":5159:5162   */\n      0x00\n        /* \"#utility.yul\":5180:5197   */\n      0x01\n      dup3\n      add\n        /* \"#utility.yul\":5177:5220   */\n      tag_363\n      jumpi\n        /* \"#utility.yul\":5200:5218   */\n      tag_363\n      tag_314\n      jump\t// in\n    tag_363:\n      pop\n        /* \"#utility.yul\":5247:5248   */\n      0x01\n        /* \"#utility.yul\":5236:5249   */\n      add\n      swap1\n        /* \"#utility.yul\":5120:5255   */\n      jump\t// out\n        /* \"#utility.yul\":5603:5715   */\n    tag_260:\n        /* \"#utility.yul\":5635:5636   */\n      0x00\n        /* \"#utility.yul\":5661:5662   */\n      dup3\n        /* \"#utility.yul\":5651:5686   */\n      tag_367\n      jumpi\n        /* \"#utility.yul\":5666:5684   */\n      tag_367\n      tag_315\n      jump\t// in\n    tag_367:\n      pop\n        /* \"#utility.yul\":5700:5709   */\n      mod\n      swap1\n        /* \"#utility.yul\":5603:5715   */\n      jump\t// out\n\n    auxdata: 0xa264697066735822122025c5738d862107921a51991481890cf429a863e7e65228787b24e0d299946fe664736f6c63430008110033\n}\n",
				"bytecode": {
					"linkReferences": {},
					"object": "60806040526815af1d78b58c4000006005556201518060075560056008556103e860095534801561002f57600080fd5b5061003933610043565b6001600255610095565b600180546001600160a01b038381166001600160a01b0319831681179093556040519116919082907f8be0079c531659141344cd1fd0a4f28419497f9722a3daafe3b4186f6b6457e090600090a35050565b610fa2806100a46000396000f3fe608060405234801561001057600080fd5b50600436106101c35760003560e01c806380faa57d116100f9578063b79ec81211610097578063d1af0c7d11610071578063d1af0c7d1461039d578063da4f8431146103b0578063df136d65146103c3578063f2fde38b146103cc57600080fd5b8063b79ec81214610363578063c8f33c911461038c578063cdda56e01461039557600080fd5b80638b876347116100d35780638b876347146103035780638da5cb5b146103235780639499c54914610348578063adc9772e1461035057600080fd5b806380faa57d146102ca5780638107368b146102d0578063874c120b146102f057600080fd5b80633e0a322d116101665780636917c501116101405780636917c501146102a8578063715018a6146102b057806378e97925146102b85780637a6fcee7146102c157600080fd5b80633e0a322d146102795780635cfa91f41461028c5780636139d4b41461029f57600080fd5b806318e20ecf116101a257806318e20ecf1461021757806324d7806c1461022c5780633c4045cf146102685780633d18b9121461027157600080fd5b80628cc262146101c85780630700037d146101ee5780630e15561a1461020e575b600080fd5b6101db6101d6366004610d5c565b6103df565b6040519081526020015b60405180910390f35b6101db6101fc366004610d5c565b60046020526000908152604090205481565b6101db60055481565b61022a610225366004610d85565b610487565b005b61025861023a366004610d5c565b6001600160a01b031660009081526020819052604090205460ff1690565b60405190151581526020016101e5565b6101db60085481565b61022a610540565b61022a610287366004610dbc565b6106fc565b6101db61029a366004610dbc565b610726565b6101db60075481565b600e546101db565b61022a6107cc565b6101db60065481565b6101db60095481565b426101db565b6101db6102de366004610d5c565b600d6020526000908152604090205481565b6101db6102fe366004610dbc565b610802565b6101db610311366004610d5c565b600c6020526000908152604090205481565b6001546001600160a01b03165b6040516001600160a01b0390911681526020016101e5565b6101db610851565b61022a61035e366004610dd5565b610861565b6101db610371366004610d5c565b6001600160a01b03166000908152600f602052604090205490565b6101db600a5481565b6101db610a38565b600354610330906001600160a01b031681565b6101db6103be366004610dff565b610a43565b6101db600b5481565b61022a6103da366004610d5c565b610bfe565b6001600160a01b0381166000908152600d602052604081205481906104049042610a43565b6001600160a01b038416600090815260046020908152604080832054600c909252909120549192506104809161047a90670de0b6b3a764000090610474906104559061044f88610802565b90610c99565b6001600160a01b0389166000908152600f602052604090205490610ca5565b90610cb1565b90610cbd565b9392505050565b6001546001600160a01b031633146104ba5760405162461bcd60e51b81526004016104b190610e21565b60405180910390fd5b6001600160a01b0382166000818152602081815260409182902054825160ff90911615158152841515918101919091527f82f1fa40a3d82dea3e406073819290601f436580aa7c69f9feb61f885bdd8854910160405180910390a26001600160a01b03919091166000908152602081905260409020805460ff1916911515919091179055565b60028054036105915760405162461bcd60e51b815260206004820152601f60248201527f5265656e7472616e637947756172643a207265656e7472616e742063616c6c0060448201526064016104b1565b60028055336000818152600d6020526040812054908190036105b257506006545b60006105be8242610a43565b90506105c981610802565b600b5542600a556001600160a01b0383161561061b576105e8836103df565b6001600160a01b038416600090815260046020908152604080832093909355600b54600c825283832055600d9052204290555b3360009081526004602052604090205480156106f15733600081815260046020819052604080832092909255600354915163a9059cbb60e01b815290810192909252602482018390526001600160a01b03169063a9059cbb906044016020604051808303816000875af1158015610696573d6000803e3d6000fd5b505050506040513d601f19601f820116820180604052508101906106ba9190610e63565b5060405181815233907fe2403640ba68fed3a2f88b7557551d1993f84b99bb10ff833f0cf8db0c5e04869060200160405180910390a25b505060016002555050565b6107053361023a565b6107215760405162461bcd60e51b81526004016104b190610e80565b600655565b600060065460000361073a57505060065490565b60006007546006548461074d9190610ed8565b6107579190610f01565b610762906001610f15565b60055490915060005b828110156107a9576009546008546107839084610f28565b61078d9190610f01565b6107979083610ed8565b91506107a281610f3f565b905061076b565b506009546008546107ba9083610f28565b6107c49190610f01565b949350505050565b6001546001600160a01b031633146107f65760405162461bcd60e51b81526004016104b190610e21565b6108006000610cc9565b565b6000600e54600003610816575050600b5490565b61084b610842600e54610474670de0b6b3a764000061083c8761083c600a5461044f4290565b90610ca5565b600b5490610cbd565b92915050565b600061085c42610726565b905090565b60028054036108b25760405162461bcd60e51b815260206004820152601f60248201527f5265656e7472616e637947756172643a207265656e7472616e742063616c6c0060448201526064016104b1565b600280556108bf3361023a565b6108db5760405162461bcd60e51b81526004016104b190610e80565b336000818152600d6020526040812054908190036108f857506006545b60006109048242610a43565b905061090f81610802565b600b5542600a556001600160a01b038316156109615761092e836103df565b6001600160a01b038416600090815260046020908152604080832093909355600b54600c825283832055600d9052204290555b600084116109a25760405162461bcd60e51b815260206004820152600e60248201526d043616e6e6f74207374616b6520360941b60448201526064016104b1565b600e546109af9085610cbd565b600e556001600160a01b0385166000908152600f60205260409020546109d59085610cbd565b6001600160a01b0386166000818152600f6020526040908190209290925590517f9e71bc8eea02a63969f509818f2dafb9254532904319f9dbda79b67bd34a5f3d90610a249087815260200190565b60405180910390a250506001600255505050565b600061085c42610d1b565b600060065460001480610a565750818310155b80610a5f575082155b15610a6c5750600061084b565b600654831015610a7c5760065492505b600060075460075460065486610a929190610ed8565b610a9c9190610f58565b600754610aa99190610ed8565b610ab39190610f58565b9050600060075482610ac487610726565b610ace9190610f28565b610ad89190610f01565b9050600060075460065486610aed9190610ed8565b610af79190610f58565b9050600060075482610b0888610726565b610b129190610f28565b610b1c9190610f01565b905060008488610b2c858a610ed8565b610b369190610ed8565b610b409190610ed8565b90506000610b4d89610726565b90506000806000839050600060075486610b679190610f01565b610b72906001610f15565b905060005b81811015610bc357600954600854610b8f9085610f28565b610b999190610f01565b9350610ba58484610ed8565b9250610bb18486610f15565b9450610bbc81610f3f565b9050610b77565b50610bce8d8d610ed8565b87610bd98b87610f15565b610be39190610f15565b610bed9190610f01565b9d9c50505050505050505050505050565b6001546001600160a01b03163314610c285760405162461bcd60e51b81526004016104b190610e21565b6001600160a01b038116610c8d5760405162461bcd60e51b815260206004820152602660248201527f4f776e61626c653a206e6577206f776e657220697320746865207a65726f206160448201526564647265737360d01b60648201526084016104b1565b610c9681610cc9565b50565b60006104808284610ed8565b60006104808284610f28565b60006104808284610f01565b60006104808284610f15565b600180546001600160a01b038381166001600160a01b0319831681179093556040519116919082907f8be0079c531659141344cd1fd0a4f28419497f9722a3daafe3b4186f6b6457e090600090a35050565b600080610d2783610726565b905060006107c460075483610cb190919063ffffffff16565b80356001600160a01b0381168114610d5757600080fd5b919050565b600060208284031215610d6e57600080fd5b61048082610d40565b8015158114610c9657600080fd5b60008060408385031215610d9857600080fd5b610da183610d40565b91506020830135610db181610d77565b809150509250929050565b600060208284031215610dce57600080fd5b5035919050565b60008060408385031215610de857600080fd5b610df183610d40565b946020939093013593505050565b60008060408385031215610e1257600080fd5b50508035926020909101359150565b60208082526022908201527f41646d696e61626c653a2063616c6c6572206973206e6f7420746865206f776e60408201526132b960f11b606082015260800190565b600060208284031215610e7557600080fd5b815161048081610d77565b60208082526022908201527f41646d696e61626c653a2063616c6c6572206973206e6f74207468652061646d60408201526134b760f11b606082015260800190565b634e487b7160e01b600052601160045260246000fd5b8181038181111561084b5761084b610ec2565b634e487b7160e01b600052601260045260246000fd5b600082610f1057610f10610eeb565b500490565b8082018082111561084b5761084b610ec2565b808202811582820484141761084b5761084b610ec2565b600060018201610f5157610f51610ec2565b5060010190565b600082610f6757610f67610eeb565b50069056fea264697066735822122025c5738d862107921a51991481890cf429a863e7e65228787b24e0d299946fe664736f6c63430008110033",
					"opcodes": "PUSH1 0x80 PUSH1 0x40 MSTORE PUSH9 0x15AF1D78B58C400000 PUSH1 0x5 SSTORE PUSH3 0x15180 PUSH1 0x7 SSTORE PUSH1 0x5 PUSH1 0x8 SSTORE PUSH2 0x3E8 PUSH1 0x9 SSTORE CALLVALUE DUP1 ISZERO PUSH2 0x2F JUMPI PUSH1 0x0 DUP1 REVERT JUMPDEST POP PUSH2 0x39 CALLER PUSH2 0x43 JUMP JUMPDEST PUSH1 0x1 PUSH1 0x2 SSTORE PUSH2 0x95 JUMP JUMPDEST PUSH1 0x1 DUP1 SLOAD PUSH1 0x1 PUSH1 0x1 PUSH1 0xA0 SHL SUB DUP4 DUP2 AND PUSH1 0x1 PUSH1 0x1 PUSH1 0xA0 SHL SUB NOT DUP4 AND DUP2 OR SWAP1 SWAP4 SSTORE PUSH1 0x40 MLOAD SWAP2 AND SWAP2 SWAP1 DUP3 SWAP1 PUSH32 0x8BE0079C531659141344CD1FD0A4F28419497F9722A3DAAFE3B4186F6B6457E0 SWAP1 PUSH1 0x0 SWAP1 LOG3 POP POP JUMP JUMPDEST PUSH2 0xFA2 DUP1 PUSH2 0xA4 PUSH1 0x0 CODECOPY PUSH1 0x0 RETURN INVALID PUSH1 0x80 PUSH1 0x40 MSTORE CALLVALUE DUP1 ISZERO PUSH2 0x10 JUMPI PUSH1 0x0 DUP1 REVERT JUMPDEST POP PUSH1 0x4 CALLDATASIZE LT PUSH2 0x1C3 JUMPI PUSH1 0x0 CALLDATALOAD PUSH1 0xE0 SHR DUP1 PUSH4 0x80FAA57D GT PUSH2 0xF9 JUMPI DUP1 PUSH4 0xB79EC812 GT PUSH2 0x97 JUMPI DUP1 PUSH4 0xD1AF0C7D GT PUSH2 0x71 JUMPI DUP1 PUSH4 0xD1AF0C7D EQ PUSH2 0x39D JUMPI DUP1 PUSH4 0xDA4F8431 EQ PUSH2 0x3B0 JUMPI DUP1 PUSH4 0xDF136D65 EQ PUSH2 0x3C3 JUMPI DUP1 PUSH4 0xF2FDE38B EQ PUSH2 0x3CC JUMPI PUSH1 0x0 DUP1 REVERT JUMPDEST DUP1 PUSH4 0xB79EC812 EQ PUSH2 0x363 JUMPI DUP1 PUSH4 0xC8F33C91 EQ PUSH2 0x38C JUMPI DUP1 PUSH4 0xCDDA56E0 EQ PUSH2 0x395 JUMPI PUSH1 0x0 DUP1 REVERT JUMPDEST DUP1 PUSH4 0x8B876347 GT PUSH2 0xD3 JUMPI DUP1 PUSH4 0x8B876347 EQ PUSH2 0x303 JUMPI DUP1 PUSH4 0x8DA5CB5B EQ PUSH2 0x323 JUMPI DUP1 PUSH4 0x9499C549 EQ PUSH2 0x348 JUMPI DUP1 PUSH4 0xADC9772E EQ PUSH2 0x350 JUMPI PUSH1 0x0 DUP1 REVERT JUMPDEST DUP1 PUSH4 0x80FAA57D EQ PUSH2 0x2CA JUMPI DUP1 PUSH4 0x8107368B EQ PUSH2 0x2D0 JUMPI DUP1 PUSH4 0x874C120B EQ PUSH2 0x2F0 JUMPI PUSH1 0x0 DUP1 REVERT JUMPDEST DUP1 PUSH4 0x3E0A322D GT PUSH2 0x166 JUMPI DUP1 PUSH4 0x6917C501 GT PUSH2 0x140 JUMPI DUP1 PUSH4 0x6917C501 EQ PUSH2 0x2A8 JUMPI DUP1 PUSH4 0x715018A6 EQ PUSH2 0x2B0 JUMPI DUP1 PUSH4 0x78E97925 EQ PUSH2 0x2B8 JUMPI DUP1 PUSH4 0x7A6FCEE7 EQ PUSH2 0x2C1 JUMPI PUSH1 0x0 DUP1 REVERT JUMPDEST DUP1 PUSH4 0x3E0A322D EQ PUSH2 0x279 JUMPI DUP1 PUSH4 0x5CFA91F4 EQ PUSH2 0x28C JUMPI DUP1 PUSH4 0x6139D4B4 EQ PUSH2 0x29F JUMPI PUSH1 0x0 DUP1 REVERT JUMPDEST DUP1 PUSH4 0x18E20ECF GT PUSH2 0x1A2 JUMPI DUP1 PUSH4 0x18E20ECF EQ PUSH2 0x217 JUMPI DUP1 PUSH4 0x24D7806C EQ PUSH2 0x22C JUMPI DUP1 PUSH4 0x3C4045CF EQ PUSH2 0x268 JUMPI DUP1 PUSH4 0x3D18B912 EQ PUSH2 0x271 JUMPI PUSH1 0x0 DUP1 REVERT JUMPDEST DUP1 PUSH3 0x8CC262 EQ PUSH2 0x1C8 JUMPI DUP1 PUSH4 0x700037D EQ PUSH2 0x1EE JUMPI DUP1 PUSH4 0xE15561A EQ PUSH2 0x20E JUMPI JUMPDEST PUSH1 0x0 DUP1 REVERT JUMPDEST PUSH2 0x1DB PUSH2 0x1D6 CALLDATASIZE PUSH1 0x4 PUSH2 0xD5C JUMP JUMPDEST PUSH2 0x3DF JUMP JUMPDEST PUSH1 0x40 MLOAD SWAP1 DUP2 MSTORE PUSH1 0x20 ADD JUMPDEST PUSH1 0x40 MLOAD DUP1 SWAP2 SUB SWAP1 RETURN JUMPDEST PUSH2 0x1DB PUSH2 0x1FC CALLDATASIZE PUSH1 0x4 PUSH2 0xD5C JUMP JUMPDEST PUSH1 0x4 PUSH1 0x20 MSTORE PUSH1 0x0 SWAP1 DUP2 MSTORE PUSH1 0x40 SWAP1 KECCAK256 SLOAD DUP2 JUMP JUMPDEST PUSH2 0x1DB PUSH1 0x5 SLOAD DUP2 JUMP JUMPDEST PUSH2 0x22A PUSH2 0x225 CALLDATASIZE PUSH1 0x4 PUSH2 0xD85 JUMP JUMPDEST PUSH2 0x487 JUMP JUMPDEST STOP JUMPDEST PUSH2 0x258 PUSH2 0x23A CALLDATASIZE PUSH1 0x4 PUSH2 0xD5C JUMP JUMPDEST PUSH1 0x1 PUSH1 0x1 PUSH1 0xA0 SHL SUB AND PUSH1 0x0 SWAP1 DUP2 MSTORE PUSH1 0x20 DUP2 SWAP1 MSTORE PUSH1 0x40 SWAP1 KECCAK256 SLOAD PUSH1 0xFF AND SWAP1 JUMP JUMPDEST PUSH1 0x40 MLOAD SWAP1 ISZERO ISZERO DUP2 MSTORE PUSH1 0x20 ADD PUSH2 0x1E5 JUMP JUMPDEST PUSH2 0x1DB PUSH1 0x8 SLOAD DUP2 JUMP JUMPDEST PUSH2 0x22A PUSH2 0x540 JUMP JUMPDEST PUSH2 0x22A PUSH2 0x287 CALLDATASIZE PUSH1 0x4 PUSH2 0xDBC JUMP JUMPDEST PUSH2 0x6FC JUMP JUMPDEST PUSH2 0x1DB PUSH2 0x29A CALLDATASIZE PUSH1 0x4 PUSH2 0xDBC JUMP JUMPDEST PUSH2 0x726 JUMP JUMPDEST PUSH2 0x1DB PUSH1 0x7 SLOAD DUP2 JUMP JUMPDEST PUSH1 0xE SLOAD PUSH2 0x1DB JUMP JUMPDEST PUSH2 0x22A PUSH2 0x7CC JUMP JUMPDEST PUSH2 0x1DB PUSH1 0x6 SLOAD DUP2 JUMP JUMPDEST PUSH2 0x1DB PUSH1 0x9 SLOAD DUP2 JUMP JUMPDEST TIMESTAMP PUSH2 0x1DB JUMP JUMPDEST PUSH2 0x1DB PUSH2 0x2DE CALLDATASIZE PUSH1 0x4 PUSH2 0xD5C JUMP JUMPDEST PUSH1 0xD PUSH1 0x20 MSTORE PUSH1 0x0 SWAP1 DUP2 MSTORE PUSH1 0x40 SWAP1 KECCAK256 SLOAD DUP2 JUMP JUMPDEST PUSH2 0x1DB PUSH2 0x2FE CALLDATASIZE PUSH1 0x4 PUSH2 0xDBC JUMP JUMPDEST PUSH2 0x802 JUMP JUMPDEST PUSH2 0x1DB PUSH2 0x311 CALLDATASIZE PUSH1 0x4 PUSH2 0xD5C JUMP JUMPDEST PUSH1 0xC PUSH1 0x20 MSTORE PUSH1 0x0 SWAP1 DUP2 MSTORE PUSH1 0x40 SWAP1 KECCAK256 SLOAD DUP2 JUMP JUMPDEST PUSH1 0x1 SLOAD PUSH1 0x1 PUSH1 0x1 PUSH1 0xA0 SHL SUB AND JUMPDEST PUSH1 0x40 MLOAD PUSH1 0x1 PUSH1 0x1 PUSH1 0xA0 SHL SUB SWAP1 SWAP2 AND DUP2 MSTORE PUSH1 0x20 ADD PUSH2 0x1E5 JUMP JUMPDEST PUSH2 0x1DB PUSH2 0x851 JUMP JUMPDEST PUSH2 0x22A PUSH2 0x35E CALLDATASIZE PUSH1 0x4 PUSH2 0xDD5 JUMP JUMPDEST PUSH2 0x861 JUMP JUMPDEST PUSH2 0x1DB PUSH2 0x371 CALLDATASIZE PUSH1 0x4 PUSH2 0xD5C JUMP JUMPDEST PUSH1 0x1 PUSH1 0x1 PUSH1 0xA0 SHL SUB AND PUSH1 0x0 SWAP1 DUP2 MSTORE PUSH1 0xF PUSH1 0x20 MSTORE PUSH1 0x40 SWAP1 KECCAK256 SLOAD SWAP1 JUMP JUMPDEST PUSH2 0x1DB PUSH1 0xA SLOAD DUP2 JUMP JUMPDEST PUSH2 0x1DB PUSH2 0xA38 JUMP JUMPDEST PUSH1 0x3 SLOAD PUSH2 0x330 SWAP1 PUSH1 0x1 PUSH1 0x1 PUSH1 0xA0 SHL SUB AND DUP2 JUMP JUMPDEST PUSH2 0x1DB PUSH2 0x3BE CALLDATASIZE PUSH1 0x4 PUSH2 0xDFF JUMP JUMPDEST PUSH2 0xA43 JUMP JUMPDEST PUSH2 0x1DB PUSH1 0xB SLOAD DUP2 JUMP JUMPDEST PUSH2 0x22A PUSH2 0x3DA CALLDATASIZE PUSH1 0x4 PUSH2 0xD5C JUMP JUMPDEST PUSH2 0xBFE JUMP JUMPDEST PUSH1 0x1 PUSH1 0x1 PUSH1 0xA0 SHL SUB DUP2 AND PUSH1 0x0 SWAP1 DUP2 MSTORE PUSH1 0xD PUSH1 0x20 MSTORE PUSH1 0x40 DUP2 KECCAK256 SLOAD DUP2 SWAP1 PUSH2 0x404 SWAP1 TIMESTAMP PUSH2 0xA43 JUMP JUMPDEST PUSH1 0x1 PUSH1 0x1 PUSH1 0xA0 SHL SUB DUP5 AND PUSH1 0x0 SWAP1 DUP2 MSTORE PUSH1 0x4 PUSH1 0x20 SWAP1 DUP2 MSTORE PUSH1 0x40 DUP1 DUP4 KECCAK256 SLOAD PUSH1 0xC SWAP1 SWAP3 MSTORE SWAP1 SWAP2 KECCAK256 SLOAD SWAP2 SWAP3 POP PUSH2 0x480 SWAP2 PUSH2 0x47A SWAP1 PUSH8 0xDE0B6B3A7640000 SWAP1 PUSH2 0x474 SWAP1 PUSH2 0x455 SWAP1 PUSH2 0x44F DUP9 PUSH2 0x802 JUMP JUMPDEST SWAP1 PUSH2 0xC99 JUMP JUMPDEST PUSH1 0x1 PUSH1 0x1 PUSH1 0xA0 SHL SUB DUP10 AND PUSH1 0x0 SWAP1 DUP2 MSTORE PUSH1 0xF PUSH1 0x20 MSTORE PUSH1 0x40 SWAP1 KECCAK256 SLOAD SWAP1 PUSH2 0xCA5 JUMP JUMPDEST SWAP1 PUSH2 0xCB1 JUMP JUMPDEST SWAP1 PUSH2 0xCBD JUMP JUMPDEST SWAP4 SWAP3 POP POP POP JUMP JUMPDEST PUSH1 0x1 SLOAD PUSH1 0x1 PUSH1 0x1 PUSH1 0xA0 SHL SUB AND CALLER EQ PUSH2 0x4BA JUMPI PUSH1 0x40 MLOAD PUSH3 0x461BCD PUSH1 0xE5 SHL DUP2 MSTORE PUSH1 0x4 ADD PUSH2 0x4B1 SWAP1 PUSH2 0xE21 JUMP JUMPDEST PUSH1 0x40 MLOAD DUP1 SWAP2 SUB SWAP1 REVERT JUMPDEST PUSH1 0x1 PUSH1 0x1 PUSH1 0xA0 SHL SUB DUP3 AND PUSH1 0x0 DUP2 DUP2 MSTORE PUSH1 0x20 DUP2 DUP2 MSTORE PUSH1 0x40 SWAP2 DUP3 SWAP1 KECCAK256 SLOAD DUP3 MLOAD PUSH1 0xFF SWAP1 SWAP2 AND ISZERO ISZERO DUP2 MSTORE DUP5 ISZERO ISZERO SWAP2 DUP2 ADD SWAP2 SWAP1 SWAP2 MSTORE PUSH32 0x82F1FA40A3D82DEA3E406073819290601F436580AA7C69F9FEB61F885BDD8854 SWAP2 ADD PUSH1 0x40 MLOAD DUP1 SWAP2 SUB SWAP1 LOG2 PUSH1 0x1 PUSH1 0x1 PUSH1 0xA0 SHL SUB SWAP2 SWAP1 SWAP2 AND PUSH1 0x0 SWAP1 DUP2 MSTORE PUSH1 0x20 DUP2 SWAP1 MSTORE PUSH1 0x40 SWAP1 KECCAK256 DUP1 SLOAD PUSH1 0xFF NOT AND SWAP2 ISZERO ISZERO SWAP2 SWAP1 SWAP2 OR SWAP1 SSTORE JUMP JUMPDEST PUSH1 0x2 DUP1 SLOAD SUB PUSH2 0x591 JUMPI PUSH1 0x40 MLOAD PUSH3 0x461BCD PUSH1 0xE5 SHL DUP2 MSTORE PUSH1 0x20 PUSH1 0x4 DUP3 ADD MSTORE PUSH1 0x1F PUSH1 0x24 DUP3 ADD MSTORE PUSH32 0x5265656E7472616E637947756172643A207265656E7472616E742063616C6C00 PUSH1 0x44 DUP3 ADD MSTORE PUSH1 0x64 ADD PUSH2 0x4B1 JUMP JUMPDEST PUSH1 0x2 DUP1 SSTORE CALLER PUSH1 0x0 DUP2 DUP2 MSTORE PUSH1 0xD PUSH1 0x20 MSTORE PUSH1 0x40 DUP2 KECCAK256 SLOAD SWAP1 DUP2 SWAP1 SUB PUSH2 0x5B2 JUMPI POP PUSH1 0x6 SLOAD JUMPDEST PUSH1 0x0 PUSH2 0x5BE DUP3 TIMESTAMP PUSH2 0xA43 JUMP JUMPDEST SWAP1 POP PUSH2 0x5C9 DUP2 PUSH2 0x802 JUMP JUMPDEST PUSH1 0xB SSTORE TIMESTAMP PUSH1 0xA SSTORE PUSH1 0x1 PUSH1 0x1 PUSH1 0xA0 SHL SUB DUP4 AND ISZERO PUSH2 0x61B JUMPI PUSH2 0x5E8 DUP4 PUSH2 0x3DF JUMP JUMPDEST PUSH1 0x1 PUSH1 0x1 PUSH1 0xA0 SHL SUB DUP5 AND PUSH1 0x0 SWAP1 DUP2 MSTORE PUSH1 0x4 PUSH1 0x20 SWAP1 DUP2 MSTORE PUSH1 0x40 DUP1 DUP4 KECCAK256 SWAP4 SWAP1 SWAP4 SSTORE PUSH1 0xB SLOAD PUSH1 0xC DUP3 MSTORE DUP4 DUP4 KECCAK256 SSTORE PUSH1 0xD SWAP1 MSTORE KECCAK256 TIMESTAMP SWAP1 SSTORE JUMPDEST CALLER PUSH1 0x0 SWAP1 DUP2 MSTORE PUSH1 0x4 PUSH1 0x20 MSTORE PUSH1 0x40 SWAP1 KECCAK256 SLOAD DUP1 ISZERO PUSH2 0x6F1 JUMPI CALLER PUSH1 0x0 DUP2 DUP2 MSTORE PUSH1 0x4 PUSH1 0x20 DUP2 SWAP1 MSTORE PUSH1 0x40 DUP1 DUP4 KECCAK256 SWAP3 SWAP1 SWAP3 SSTORE PUSH1 0x3 SLOAD SWAP2 MLOAD PUSH4 0xA9059CBB PUSH1 0xE0 SHL DUP2 MSTORE SWAP1 DUP2 ADD SWAP3 SWAP1 SWAP3 MSTORE PUSH1 0x24 DUP3 ADD DUP4 SWAP1 MSTORE PUSH1 0x1 PUSH1 0x1 PUSH1 0xA0 SHL SUB AND SWAP1 PUSH4 0xA9059CBB SWAP1 PUSH1 0x44 ADD PUSH1 0x20 PUSH1 0x40 MLOAD DUP1 DUP4 SUB DUP2 PUSH1 0x0 DUP8 GAS CALL ISZERO DUP1 ISZERO PUSH2 0x696 JUMPI RETURNDATASIZE PUSH1 0x0 DUP1 RETURNDATACOPY RETURNDATASIZE PUSH1 0x0 REVERT JUMPDEST POP POP POP POP PUSH1 0x40 MLOAD RETURNDATASIZE PUSH1 0x1F NOT PUSH1 0x1F DUP3 ADD AND DUP3 ADD DUP1 PUSH1 0x40 MSTORE POP DUP2 ADD SWAP1 PUSH2 0x6BA SWAP2 SWAP1 PUSH2 0xE63 JUMP JUMPDEST POP PUSH1 0x40 MLOAD DUP2 DUP2 MSTORE CALLER SWAP1 PUSH32 0xE2403640BA68FED3A2F88B7557551D1993F84B99BB10FF833F0CF8DB0C5E0486 SWAP1 PUSH1 0x20 ADD PUSH1 0x40 MLOAD DUP1 SWAP2 SUB SWAP1 LOG2 JUMPDEST POP POP PUSH1 0x1 PUSH1 0x2 SSTORE POP POP JUMP JUMPDEST PUSH2 0x705 CALLER PUSH2 0x23A JUMP JUMPDEST PUSH2 0x721 JUMPI PUSH1 0x40 MLOAD PUSH3 0x461BCD PUSH1 0xE5 SHL DUP2 MSTORE PUSH1 0x4 ADD PUSH2 0x4B1 SWAP1 PUSH2 0xE80 JUMP JUMPDEST PUSH1 0x6 SSTORE JUMP JUMPDEST PUSH1 0x0 PUSH1 0x6 SLOAD PUSH1 0x0 SUB PUSH2 0x73A JUMPI POP POP PUSH1 0x6 SLOAD SWAP1 JUMP JUMPDEST PUSH1 0x0 PUSH1 0x7 SLOAD PUSH1 0x6 SLOAD DUP5 PUSH2 0x74D SWAP2 SWAP1 PUSH2 0xED8 JUMP JUMPDEST PUSH2 0x757 SWAP2 SWAP1 PUSH2 0xF01 JUMP JUMPDEST PUSH2 0x762 SWAP1 PUSH1 0x1 PUSH2 0xF15 JUMP JUMPDEST PUSH1 0x5 SLOAD SWAP1 SWAP2 POP PUSH1 0x0 JUMPDEST DUP3 DUP2 LT ISZERO PUSH2 0x7A9 JUMPI PUSH1 0x9 SLOAD PUSH1 0x8 SLOAD PUSH2 0x783 SWAP1 DUP5 PUSH2 0xF28 JUMP JUMPDEST PUSH2 0x78D SWAP2 SWAP1 PUSH2 0xF01 JUMP JUMPDEST PUSH2 0x797 SWAP1 DUP4 PUSH2 0xED8 JUMP JUMPDEST SWAP2 POP PUSH2 0x7A2 DUP2 PUSH2 0xF3F JUMP JUMPDEST SWAP1 POP PUSH2 0x76B JUMP JUMPDEST POP PUSH1 0x9 SLOAD PUSH1 0x8 SLOAD PUSH2 0x7BA SWAP1 DUP4 PUSH2 0xF28 JUMP JUMPDEST PUSH2 0x7C4 SWAP2 SWAP1 PUSH2 0xF01 JUMP JUMPDEST SWAP5 SWAP4 POP POP POP POP JUMP JUMPDEST PUSH1 0x1 SLOAD PUSH1 0x1 PUSH1 0x1 PUSH1 0xA0 SHL SUB AND CALLER EQ PUSH2 0x7F6 JUMPI PUSH1 0x40 MLOAD PUSH3 0x461BCD PUSH1 0xE5 SHL DUP2 MSTORE PUSH1 0x4 ADD PUSH2 0x4B1 SWAP1 PUSH2 0xE21 JUMP JUMPDEST PUSH2 0x800 PUSH1 0x0 PUSH2 0xCC9 JUMP JUMPDEST JUMP JUMPDEST PUSH1 0x0 PUSH1 0xE SLOAD PUSH1 0x0 SUB PUSH2 0x816 JUMPI POP POP PUSH1 0xB SLOAD SWAP1 JUMP JUMPDEST PUSH2 0x84B PUSH2 0x842 PUSH1 0xE SLOAD PUSH2 0x474 PUSH8 0xDE0B6B3A7640000 PUSH2 0x83C DUP8 PUSH2 0x83C PUSH1 0xA SLOAD PUSH2 0x44F TIMESTAMP SWAP1 JUMP JUMPDEST SWAP1 PUSH2 0xCA5 JUMP JUMPDEST PUSH1 0xB SLOAD SWAP1 PUSH2 0xCBD JUMP JUMPDEST SWAP3 SWAP2 POP POP JUMP JUMPDEST PUSH1 0x0 PUSH2 0x85C TIMESTAMP PUSH2 0x726 JUMP JUMPDEST SWAP1 POP SWAP1 JUMP JUMPDEST PUSH1 0x2 DUP1 SLOAD SUB PUSH2 0x8B2 JUMPI PUSH1 0x40 MLOAD PUSH3 0x461BCD PUSH1 0xE5 SHL DUP2 MSTORE PUSH1 0x20 PUSH1 0x4 DUP3 ADD MSTORE PUSH1 0x1F PUSH1 0x24 DUP3 ADD MSTORE PUSH32 0x5265656E7472616E637947756172643A207265656E7472616E742063616C6C00 PUSH1 0x44 DUP3 ADD MSTORE PUSH1 0x64 ADD PUSH2 0x4B1 JUMP JUMPDEST PUSH1 0x2 DUP1 SSTORE PUSH2 0x8BF CALLER PUSH2 0x23A JUMP JUMPDEST PUSH2 0x8DB JUMPI PUSH1 0x40 MLOAD PUSH3 0x461BCD PUSH1 0xE5 SHL DUP2 MSTORE PUSH1 0x4 ADD PUSH2 0x4B1 SWAP1 PUSH2 0xE80 JUMP JUMPDEST CALLER PUSH1 0x0 DUP2 DUP2 MSTORE PUSH1 0xD PUSH1 0x20 MSTORE PUSH1 0x40 DUP2 KECCAK256 SLOAD SWAP1 DUP2 SWAP1 SUB PUSH2 0x8F8 JUMPI POP PUSH1 0x6 SLOAD JUMPDEST PUSH1 0x0 PUSH2 0x904 DUP3 TIMESTAMP PUSH2 0xA43 JUMP JUMPDEST SWAP1 POP PUSH2 0x90F DUP2 PUSH2 0x802 JUMP JUMPDEST PUSH1 0xB SSTORE TIMESTAMP PUSH1 0xA SSTORE PUSH1 0x1 PUSH1 0x1 PUSH1 0xA0 SHL SUB DUP4 AND ISZERO PUSH2 0x961 JUMPI PUSH2 0x92E DUP4 PUSH2 0x3DF JUMP JUMPDEST PUSH1 0x1 PUSH1 0x1 PUSH1 0xA0 SHL SUB DUP5 AND PUSH1 0x0 SWAP1 DUP2 MSTORE PUSH1 0x4 PUSH1 0x20 SWAP1 DUP2 MSTORE PUSH1 0x40 DUP1 DUP4 KECCAK256 SWAP4 SWAP1 SWAP4 SSTORE PUSH1 0xB SLOAD PUSH1 0xC DUP3 MSTORE DUP4 DUP4 KECCAK256 SSTORE PUSH1 0xD SWAP1 MSTORE KECCAK256 TIMESTAMP SWAP1 SSTORE JUMPDEST PUSH1 0x0 DUP5 GT PUSH2 0x9A2 JUMPI PUSH1 0x40 MLOAD PUSH3 0x461BCD PUSH1 0xE5 SHL DUP2 MSTORE PUSH1 0x20 PUSH1 0x4 DUP3 ADD MSTORE PUSH1 0xE PUSH1 0x24 DUP3 ADD MSTORE PUSH14 0x43616E6E6F74207374616B65203 PUSH1 0x94 SHL PUSH1 0x44 DUP3 ADD MSTORE PUSH1 0x64 ADD PUSH2 0x4B1 JUMP JUMPDEST PUSH1 0xE SLOAD PUSH2 0x9AF SWAP1 DUP6 PUSH2 0xCBD JUMP JUMPDEST PUSH1 0xE SSTORE PUSH1 0x1 PUSH1 0x1 PUSH1 0xA0 SHL SUB DUP6 AND PUSH1 0x0 SWAP1 DUP2 MSTORE PUSH1 0xF PUSH1 0x20 MSTORE PUSH1 0x40 SWAP1 KECCAK256 SLOAD PUSH2 0x9D5 SWAP1 DUP6 PUSH2 0xCBD JUMP JUMPDEST PUSH1 0x1 PUSH1 0x1 PUSH1 0xA0 SHL SUB DUP7 AND PUSH1 0x0 DUP2 DUP2 MSTORE PUSH1 0xF PUSH1 0x20 MSTORE PUSH1 0x40 SWAP1 DUP2 SWAP1 KECCAK256 SWAP3 SWAP1 SWAP3 SSTORE SWAP1 MLOAD PUSH32 0x9E71BC8EEA02A63969F509818F2DAFB9254532904319F9DBDA79B67BD34A5F3D SWAP1 PUSH2 0xA24 SWAP1 DUP8 DUP2 MSTORE PUSH1 0x20 ADD SWAP1 JUMP JUMPDEST PUSH1 0x40 MLOAD DUP1 SWAP2 SUB SWAP1 LOG2 POP POP PUSH1 0x1 PUSH1 0x2 SSTORE POP POP POP JUMP JUMPDEST PUSH1 0x0 PUSH2 0x85C TIMESTAMP PUSH2 0xD1B JUMP JUMPDEST PUSH1 0x0 PUSH1 0x6 SLOAD PUSH1 0x0 EQ DUP1 PUSH2 0xA56 JUMPI POP DUP2 DUP4 LT ISZERO JUMPDEST DUP1 PUSH2 0xA5F JUMPI POP DUP3 ISZERO JUMPDEST ISZERO PUSH2 0xA6C JUMPI POP PUSH1 0x0 PUSH2 0x84B JUMP JUMPDEST PUSH1 0x6 SLOAD DUP4 LT ISZERO PUSH2 0xA7C JUMPI PUSH1 0x6 SLOAD SWAP3 POP JUMPDEST PUSH1 0x0 PUSH1 0x7 SLOAD PUSH1 0x7 SLOAD PUSH1 0x6 SLOAD DUP7 PUSH2 0xA92 SWAP2 SWAP1 PUSH2 0xED8 JUMP JUMPDEST PUSH2 0xA9C SWAP2 SWAP1 PUSH2 0xF58 JUMP JUMPDEST PUSH1 0x7 SLOAD PUSH2 0xAA9 SWAP2 SWAP1 PUSH2 0xED8 JUMP JUMPDEST PUSH2 0xAB3 SWAP2 SWAP1 PUSH2 0xF58 JUMP JUMPDEST SWAP1 POP PUSH1 0x0 PUSH1 0x7 SLOAD DUP3 PUSH2 0xAC4 DUP8 PUSH2 0x726 JUMP JUMPDEST PUSH2 0xACE SWAP2 SWAP1 PUSH2 0xF28 JUMP JUMPDEST PUSH2 0xAD8 SWAP2 SWAP1 PUSH2 0xF01 JUMP JUMPDEST SWAP1 POP PUSH1 0x0 PUSH1 0x7 SLOAD PUSH1 0x6 SLOAD DUP7 PUSH2 0xAED SWAP2 SWAP1 PUSH2 0xED8 JUMP JUMPDEST PUSH2 0xAF7 SWAP2 SWAP1 PUSH2 0xF58 JUMP JUMPDEST SWAP1 POP PUSH1 0x0 PUSH1 0x7 SLOAD DUP3 PUSH2 0xB08 DUP9 PUSH2 0x726 JUMP JUMPDEST PUSH2 0xB12 SWAP2 SWAP1 PUSH2 0xF28 JUMP JUMPDEST PUSH2 0xB1C SWAP2 SWAP1 PUSH2 0xF01 JUMP JUMPDEST SWAP1 POP PUSH1 0x0 DUP5 DUP9 PUSH2 0xB2C DUP6 DUP11 PUSH2 0xED8 JUMP JUMPDEST PUSH2 0xB36 SWAP2 SWAP1 PUSH2 0xED8 JUMP JUMPDEST PUSH2 0xB40 SWAP2 SWAP1 PUSH2 0xED8 JUMP JUMPDEST SWAP1 POP PUSH1 0x0 PUSH2 0xB4D DUP10 PUSH2 0x726 JUMP JUMPDEST SWAP1 POP PUSH1 0x0 DUP1 PUSH1 0x0 DUP4 SWAP1 POP PUSH1 0x0 PUSH1 0x7 SLOAD DUP7 PUSH2 0xB67 SWAP2 SWAP1 PUSH2 0xF01 JUMP JUMPDEST PUSH2 0xB72 SWAP1 PUSH1 0x1 PUSH2 0xF15 JUMP JUMPDEST SWAP1 POP PUSH1 0x0 JUMPDEST DUP2 DUP2 LT ISZERO PUSH2 0xBC3 JUMPI PUSH1 0x9 SLOAD PUSH1 0x8 SLOAD PUSH2 0xB8F SWAP1 DUP6 PUSH2 0xF28 JUMP JUMPDEST PUSH2 0xB99 SWAP2 SWAP1 PUSH2 0xF01 JUMP JUMPDEST SWAP4 POP PUSH2 0xBA5 DUP5 DUP5 PUSH2 0xED8 JUMP JUMPDEST SWAP3 POP PUSH2 0xBB1 DUP5 DUP7 PUSH2 0xF15 JUMP JUMPDEST SWAP5 POP PUSH2 0xBBC DUP2 PUSH2 0xF3F JUMP JUMPDEST SWAP1 POP PUSH2 0xB77 JUMP JUMPDEST POP PUSH2 0xBCE DUP14 DUP14 PUSH2 0xED8 JUMP JUMPDEST DUP8 PUSH2 0xBD9 DUP12 DUP8 PUSH2 0xF15 JUMP JUMPDEST PUSH2 0xBE3 SWAP2 SWAP1 PUSH2 0xF15 JUMP JUMPDEST PUSH2 0xBED SWAP2 SWAP1 PUSH2 0xF01 JUMP JUMPDEST SWAP14 SWAP13 POP POP POP POP POP POP POP POP POP POP POP POP POP JUMP JUMPDEST PUSH1 0x1 SLOAD PUSH1 0x1 PUSH1 0x1 PUSH1 0xA0 SHL SUB AND CALLER EQ PUSH2 0xC28 JUMPI PUSH1 0x40 MLOAD PUSH3 0x461BCD PUSH1 0xE5 SHL DUP2 MSTORE PUSH1 0x4 ADD PUSH2 0x4B1 SWAP1 PUSH2 0xE21 JUMP JUMPDEST PUSH1 0x1 PUSH1 0x1 PUSH1 0xA0 SHL SUB DUP2 AND PUSH2 0xC8D JUMPI PUSH1 0x40 MLOAD PUSH3 0x461BCD PUSH1 0xE5 SHL DUP2 MSTORE PUSH1 0x20 PUSH1 0x4 DUP3 ADD MSTORE PUSH1 0x26 PUSH1 0x24 DUP3 ADD MSTORE PUSH32 0x4F776E61626C653A206E6577206F776E657220697320746865207A65726F2061 PUSH1 0x44 DUP3 ADD MSTORE PUSH6 0x646472657373 PUSH1 0xD0 SHL PUSH1 0x64 DUP3 ADD MSTORE PUSH1 0x84 ADD PUSH2 0x4B1 JUMP JUMPDEST PUSH2 0xC96 DUP2 PUSH2 0xCC9 JUMP JUMPDEST POP JUMP JUMPDEST PUSH1 0x0 PUSH2 0x480 DUP3 DUP5 PUSH2 0xED8 JUMP JUMPDEST PUSH1 0x0 PUSH2 0x480 DUP3 DUP5 PUSH2 0xF28 JUMP JUMPDEST PUSH1 0x0 PUSH2 0x480 DUP3 DUP5 PUSH2 0xF01 JUMP JUMPDEST PUSH1 0x0 PUSH2 0x480 DUP3 DUP5 PUSH2 0xF15 JUMP JUMPDEST PUSH1 0x1 DUP1 SLOAD PUSH1 0x1 PUSH1 0x1 PUSH1 0xA0 SHL SUB DUP4 DUP2 AND PUSH1 0x1 PUSH1 0x1 PUSH1 0xA0 SHL SUB NOT DUP4 AND DUP2 OR SWAP1 SWAP4 SSTORE PUSH1 0x40 MLOAD SWAP2 AND SWAP2 SWAP1 DUP3 SWAP1 PUSH32 0x8BE0079C531659141344CD1FD0A4F28419497F9722A3DAAFE3B4186F6B6457E0 SWAP1 PUSH1 0x0 SWAP1 LOG3 POP POP JUMP JUMPDEST PUSH1 0x0 DUP1 PUSH2 0xD27 DUP4 PUSH2 0x726 JUMP JUMPDEST SWAP1 POP PUSH1 0x0 PUSH2 0x7C4 PUSH1 0x7 SLOAD DUP4 PUSH2 0xCB1 SWAP1 SWAP2 SWAP1 PUSH4 0xFFFFFFFF AND JUMP JUMPDEST DUP1 CALLDATALOAD PUSH1 0x1 PUSH1 0x1 PUSH1 0xA0 SHL SUB DUP2 AND DUP2 EQ PUSH2 0xD57 JUMPI PUSH1 0x0 DUP1 REVERT JUMPDEST SWAP2 SWAP1 POP JUMP JUMPDEST PUSH1 0x0 PUSH1 0x20 DUP3 DUP5 SUB SLT ISZERO PUSH2 0xD6E JUMPI PUSH1 0x0 DUP1 REVERT JUMPDEST PUSH2 0x480 DUP3 PUSH2 0xD40 JUMP JUMPDEST DUP1 ISZERO ISZERO DUP2 EQ PUSH2 0xC96 JUMPI PUSH1 0x0 DUP1 REVERT JUMPDEST PUSH1 0x0 DUP1 PUSH1 0x40 DUP4 DUP6 SUB SLT ISZERO PUSH2 0xD98 JUMPI PUSH1 0x0 DUP1 REVERT JUMPDEST PUSH2 0xDA1 DUP4 PUSH2 0xD40 JUMP JUMPDEST SWAP2 POP PUSH1 0x20 DUP4 ADD CALLDATALOAD PUSH2 0xDB1 DUP2 PUSH2 0xD77 JUMP JUMPDEST DUP1 SWAP2 POP POP SWAP3 POP SWAP3 SWAP1 POP JUMP JUMPDEST PUSH1 0x0 PUSH1 0x20 DUP3 DUP5 SUB SLT ISZERO PUSH2 0xDCE JUMPI PUSH1 0x0 DUP1 REVERT JUMPDEST POP CALLDATALOAD SWAP2 SWAP1 POP JUMP JUMPDEST PUSH1 0x0 DUP1 PUSH1 0x40 DUP4 DUP6 SUB SLT ISZERO PUSH2 0xDE8 JUMPI PUSH1 0x0 DUP1 REVERT JUMPDEST PUSH2 0xDF1 DUP4 PUSH2 0xD40 JUMP JUMPDEST SWAP5 PUSH1 0x20 SWAP4 SWAP1 SWAP4 ADD CALLDATALOAD SWAP4 POP POP POP JUMP JUMPDEST PUSH1 0x0 DUP1 PUSH1 0x40 DUP4 DUP6 SUB SLT ISZERO PUSH2 0xE12 JUMPI PUSH1 0x0 DUP1 REVERT JUMPDEST POP POP DUP1 CALLDATALOAD SWAP3 PUSH1 0x20 SWAP1 SWAP2 ADD CALLDATALOAD SWAP2 POP JUMP JUMPDEST PUSH1 0x20 DUP1 DUP3 MSTORE PUSH1 0x22 SWAP1 DUP3 ADD MSTORE PUSH32 0x41646D696E61626C653A2063616C6C6572206973206E6F7420746865206F776E PUSH1 0x40 DUP3 ADD MSTORE PUSH2 0x32B9 PUSH1 0xF1 SHL PUSH1 0x60 DUP3 ADD MSTORE PUSH1 0x80 ADD SWAP1 JUMP JUMPDEST PUSH1 0x0 PUSH1 0x20 DUP3 DUP5 SUB SLT ISZERO PUSH2 0xE75 JUMPI PUSH1 0x0 DUP1 REVERT JUMPDEST DUP2 MLOAD PUSH2 0x480 DUP2 PUSH2 0xD77 JUMP JUMPDEST PUSH1 0x20 DUP1 DUP3 MSTORE PUSH1 0x22 SWAP1 DUP3 ADD MSTORE PUSH32 0x41646D696E61626C653A2063616C6C6572206973206E6F74207468652061646D PUSH1 0x40 DUP3 ADD MSTORE PUSH2 0x34B7 PUSH1 0xF1 SHL PUSH1 0x60 DUP3 ADD MSTORE PUSH1 0x80 ADD SWAP1 JUMP JUMPDEST PUSH4 0x4E487B71 PUSH1 0xE0 SHL PUSH1 0x0 MSTORE PUSH1 0x11 PUSH1 0x4 MSTORE PUSH1 0x24 PUSH1 0x0 REVERT JUMPDEST DUP2 DUP2 SUB DUP2 DUP2 GT ISZERO PUSH2 0x84B JUMPI PUSH2 0x84B PUSH2 0xEC2 JUMP JUMPDEST PUSH4 0x4E487B71 PUSH1 0xE0 SHL PUSH1 0x0 MSTORE PUSH1 0x12 PUSH1 0x4 MSTORE PUSH1 0x24 PUSH1 0x0 REVERT JUMPDEST PUSH1 0x0 DUP3 PUSH2 0xF10 JUMPI PUSH2 0xF10 PUSH2 0xEEB JUMP JUMPDEST POP DIV SWAP1 JUMP JUMPDEST DUP1 DUP3 ADD DUP1 DUP3 GT ISZERO PUSH2 0x84B JUMPI PUSH2 0x84B PUSH2 0xEC2 JUMP JUMPDEST DUP1 DUP3 MUL DUP2 ISZERO DUP3 DUP3 DIV DUP5 EQ OR PUSH2 0x84B JUMPI PUSH2 0x84B PUSH2 0xEC2 JUMP JUMPDEST PUSH1 0x0 PUSH1 0x1 DUP3 ADD PUSH2 0xF51 JUMPI PUSH2 0xF51 PUSH2 0xEC2 JUMP JUMPDEST POP PUSH1 0x1 ADD SWAP1 JUMP JUMPDEST PUSH1 0x0 DUP3 PUSH2 0xF67 JUMPI PUSH2 0xF67 PUSH2 0xEEB JUMP JUMPDEST POP MOD SWAP1 JUMP INVALID LOG2 PUSH5 0x6970667358 0x22 SLT KECCAK256 0x25 0xC5 PUSH20 0x8D862107921A51991481890CF429A863E7E65228 PUSH25 0x7B24E0D299946FE664736F6C63430008110033000000000000 "
				},
				"gasEstimates": {
					"creation": {
						"codeDepositCost": "800400",
						"executionCost": "137212",
						"totalCost": "937612"
					},
					"external": {
						"earned(address)": "infinite",
						"getCurRewardPool()": "infinite",
						"getCurRewardRate()": "infinite",
						"getReward()": "infinite",
						"getRewardPool(uint256)": "infinite",
						"getTimeWeightedAveRate(uint256,uint256)": "infinite",
						"isAdmin(address)": "2620",
						"lastTimeRewardApplicable()": "226",
						"lastUpdateTime()": "2351",
						"modificationAdmin(address,bool)": "30844",
						"owner()": "2387",
						"powersOf(address)": "2571",
						"rateInterval()": "2374",
						"rateIntervalDenominator()": "2395",
						"rateIntervalNumerator()": "2374",
						"renounceOwnership()": "28184",
						"rewardPerToken(uint256)": "infinite",
						"rewardPerTokenStored()": "2372",
						"rewards(address)": "2577",
						"rewardsToken()": "2381",
						"setStartTime(uint256)": "24609",
						"stake(address,uint256)": "infinite",
						"startTime()": "2373",
						"totalPowers()": "2326",
						"totalRewards()": "2375",
						"transferOwnership(address)": "28422",
						"userLastUpdateTime(address)": "2576",
						"userRewardPerTokenPaid(address)": "2553"
					},
					"internal": {
						"_getRewardRate(uint256)": "infinite"
					}
				},
				"methodIdentifiers": {
					"earned(address)": "008cc262",
					"getCurRewardPool()": "9499c549",
					"getCurRewardRate()": "cdda56e0",
					"getReward()": "3d18b912",
					"getRewardPool(uint256)": "5cfa91f4",
					"getTimeWeightedAveRate(uint256,uint256)": "da4f8431",
					"isAdmin(address)": "24d7806c",
					"lastTimeRewardApplicable()": "80faa57d",
					"lastUpdateTime()": "c8f33c91",
					"modificationAdmin(address,bool)": "18e20ecf",
					"owner()": "8da5cb5b",
					"powersOf(address)": "b79ec812",
					"rateInterval()": "6139d4b4",
					"rateIntervalDenominator()": "7a6fcee7",
					"rateIntervalNumerator()": "3c4045cf",
					"renounceOwnership()": "715018a6",
					"rewardPerToken(uint256)": "874c120b",
					"rewardPerTokenStored()": "df136d65",
					"rewards(address)": "0700037d",
					"rewardsToken()": "d1af0c7d",
					"setStartTime(uint256)": "3e0a322d",
					"stake(address,uint256)": "adc9772e",
					"startTime()": "78e97925",
					"totalPowers()": "6917c501",
					"totalRewards()": "0e15561a",
					"transferOwnership(address)": "f2fde38b",
					"userLastUpdateTime(address)": "8107368b",
					"userRewardPerTokenPaid(address)": "8b876347"
				}
			},
			"storageLayout": {
				"storage": [
					{
						"astId": 26,
						"contract": "inviter_presell/stake.sol:StakingRewards",
						"label": "_admins",
						"offset": 0,
						"slot": "0",
						"type": "t_mapping(t_address,t_bool)"
					},
					{
						"astId": 28,
						"contract": "inviter_presell/stake.sol:StakingRewards",
						"label": "_owner",
						"offset": 0,
						"slot": "1",
						"type": "t_address"
					},
					{
						"astId": 785,
						"contract": "inviter_presell/stake.sol:StakingRewards",
						"label": "_status",
						"offset": 0,
						"slot": "2",
						"type": "t_uint256"
					},
					{
						"astId": 191,
						"contract": "inviter_presell/stake.sol:StakingRewards",
						"label": "rewardsToken",
						"offset": 0,
						"slot": "3",
						"type": "t_contract(IERC20)892"
					},
					{
						"astId": 195,
						"contract": "inviter_presell/stake.sol:StakingRewards",
						"label": "rewards",
						"offset": 0,
						"slot": "4",
						"type": "t_mapping(t_address,t_uint256)"
					},
					{
						"astId": 202,
						"contract": "inviter_presell/stake.sol:StakingRewards",
						"label": "totalRewards",
						"offset": 0,
						"slot": "5",
						"type": "t_uint256"
					},
					{
						"astId": 204,
						"contract": "inviter_presell/stake.sol:StakingRewards",
						"label": "startTime",
						"offset": 0,
						"slot": "6",
						"type": "t_uint256"
					},
					{
						"astId": 207,
						"contract": "inviter_presell/stake.sol:StakingRewards",
						"label": "rateInterval",
						"offset": 0,
						"slot": "7",
						"type": "t_uint256"
					},
					{
						"astId": 210,
						"contract": "inviter_presell/stake.sol:StakingRewards",
						"label": "rateIntervalNumerator",
						"offset": 0,
						"slot": "8",
						"type": "t_uint256"
					},
					{
						"astId": 213,
						"contract": "inviter_presell/stake.sol:StakingRewards",
						"label": "rateIntervalDenominator",
						"offset": 0,
						"slot": "9",
						"type": "t_uint256"
					},
					{
						"astId": 215,
						"contract": "inviter_presell/stake.sol:StakingRewards",
						"label": "lastUpdateTime",
						"offset": 0,
						"slot": "10",
						"type": "t_uint256"
					},
					{
						"astId": 217,
						"contract": "inviter_presell/stake.sol:StakingRewards",
						"label": "rewardPerTokenStored",
						"offset": 0,
						"slot": "11",
						"type": "t_uint256"
					},
					{
						"astId": 221,
						"contract": "inviter_presell/stake.sol:StakingRewards",
						"label": "userRewardPerTokenPaid",
						"offset": 0,
						"slot": "12",
						"type": "t_mapping(t_address,t_uint256)"
					},
					{
						"astId": 225,
						"contract": "inviter_presell/stake.sol:StakingRewards",
						"label": "userLastUpdateTime",
						"offset": 0,
						"slot": "13",
						"type": "t_mapping(t_address,t_uint256)"
					},
					{
						"astId": 227,
						"contract": "inviter_presell/stake.sol:StakingRewards",
						"label": "_totalPowers",
						"offset": 0,
						"slot": "14",
						"type": "t_uint256"
					},
					{
						"astId": 231,
						"contract": "inviter_presell/stake.sol:StakingRewards",
						"label": "_balances",
						"offset": 0,
						"slot": "15",
						"type": "t_mapping(t_address,t_uint256)"
					}
				],
				"types": {
					"t_address": {
						"encoding": "inplace",
						"label": "address",
						"numberOfBytes": "20"
					},
					"t_bool": {
						"encoding": "inplace",
						"label": "bool",
						"numberOfBytes": "1"
					},
					"t_contract(IERC20)892": {
						"encoding": "inplace",
						"label": "contract IERC20",
						"numberOfBytes": "20"
					},
					"t_mapping(t_address,t_bool)": {
						"encoding": "mapping",
						"key": "t_address",
						"label": "mapping(address => bool)",
						"numberOfBytes": "32",
						"value": "t_bool"
					},
					"t_mapping(t_address,t_uint256)": {
						"encoding": "mapping",
						"key": "t_address",
						"label": "mapping(address => uint256)",
						"numberOfBytes": "32",
						"value": "t_uint256"
					},
					"t_uint256": {
						"encoding": "inplace",
						"label": "uint256",
						"numberOfBytes": "32"
					}
				}
			},
			"userdoc": {
				"kind": "user",
				"methods": {},
				"version": 1
			}
		}
	}
}