{
	"inviter_presell/token.sol": {
		"Bee": {
			"abi": [
				{
					"inputs": [],
					"stateMutability": "nonpayable",
					"type": "constructor"
				},
				{
					"anonymous": false,
					"inputs": [
						{
							"indexed": true,
							"internalType": "address",
							"name": "owner",
							"type": "address"
						},
						{
							"indexed": true,
							"internalType": "address",
							"name": "spender",
							"type": "address"
						},
						{
							"indexed": false,
							"internalType": "uint256",
							"name": "value",
							"type": "uint256"
						}
					],
					"name": "Approval",
					"type": "event"
				},
				{
					"anonymous": false,
					"inputs": [
						{
							"indexed": true,
							"internalType": "address",
							"name": "previousOwner",
							"type": "address"
						},
						{
							"indexed": true,
							"internalType": "address",
							"name": "newOwner",
							"type": "address"
						}
					],
					"name": "OwnershipTransferred",
					"type": "event"
				},
				{
					"anonymous": false,
					"inputs": [
						{
							"indexed": true,
							"internalType": "address",
							"name": "from",
							"type": "address"
						},
						{
							"indexed": true,
							"internalType": "address",
							"name": "to",
							"type": "address"
						},
						{
							"indexed": false,
							"internalType": "uint256",
							"name": "value",
							"type": "uint256"
						}
					],
					"name": "Transfer",
					"type": "event"
				},
				{
					"inputs": [
						{
							"internalType": "address",
							"name": "",
							"type": "address"
						}
					],
					"name": "DEXs",
					"outputs": [
						{
							"internalType": "bool",
							"name": "",
							"type": "bool"
						}
					],
					"stateMutability": "view",
					"type": "function"
				},
				{
					"inputs": [
						{
							"internalType": "address",
							"name": "_pair",
							"type": "address"
						}
					],
					"name": "addDex",
					"outputs": [],
					"stateMutability": "nonpayable",
					"type": "function"
				},
				{
					"inputs": [
						{
							"internalType": "address",
							"name": "owner",
							"type": "address"
						},
						{
							"internalType": "address",
							"name": "spender",
							"type": "address"
						}
					],
					"name": "allowance",
					"outputs": [
						{
							"internalType": "uint256",
							"name": "",
							"type": "uint256"
						}
					],
					"stateMutability": "view",
					"type": "function"
				},
				{
					"inputs": [
						{
							"internalType": "address",
							"name": "spender",
							"type": "address"
						},
						{
							"internalType": "uint256",
							"name": "amount",
							"type": "uint256"
						}
					],
					"name": "approve",
					"outputs": [
						{
							"internalType": "bool",
							"name": "",
							"type": "bool"
						}
					],
					"stateMutability": "nonpayable",
					"type": "function"
				},
				{
					"inputs": [
						{
							"internalType": "address",
							"name": "account",
							"type": "address"
						}
					],
					"name": "balanceOf",
					"outputs": [
						{
							"internalType": "uint256",
							"name": "",
							"type": "uint256"
						}
					],
					"stateMutability": "view",
					"type": "function"
				},
				{
					"inputs": [
						{
							"internalType": "uint256",
							"name": "amount",
							"type": "uint256"
						}
					],
					"name": "burn",
					"outputs": [],
					"stateMutability": "nonpayable",
					"type": "function"
				},
				{
					"inputs": [],
					"name": "decimals",
					"outputs": [
						{
							"internalType": "uint8",
							"name": "",
							"type": "uint8"
						}
					],
					"stateMutability": "view",
					"type": "function"
				},
				{
					"inputs": [
						{
							"internalType": "address",
							"name": "spender",
							"type": "address"
						},
						{
							"internalType": "uint256",
							"name": "subtractedValue",
							"type": "uint256"
						}
					],
					"name": "decreaseAllowance",
					"outputs": [
						{
							"internalType": "bool",
							"name": "",
							"type": "bool"
						}
					],
					"stateMutability": "nonpayable",
					"type": "function"
				},
				{
					"inputs": [
						{
							"internalType": "address",
							"name": "_lp",
							"type": "address"
						}
					],
					"name": "deliver",
					"outputs": [],
					"stateMutability": "nonpayable",
					"type": "function"
				},
				{
					"inputs": [],
					"name": "emergencyWithdraw",
					"outputs": [],
					"stateMutability": "nonpayable",
					"type": "function"
				},
				{
					"inputs": [
						{
							"internalType": "address",
							"name": "token",
							"type": "address"
						},
						{
							"internalType": "uint256",
							"name": "amount",
							"type": "uint256"
						}
					],
					"name": "emergencyWithdrawToken",
					"outputs": [],
					"stateMutability": "nonpayable",
					"type": "function"
				},
				{
					"inputs": [
						{
							"internalType": "address",
							"name": "spender",
							"type": "address"
						},
						{
							"internalType": "uint256",
							"name": "addedValue",
							"type": "uint256"
						}
					],
					"name": "increaseAllowance",
					"outputs": [
						{
							"internalType": "bool",
							"name": "",
							"type": "bool"
						}
					],
					"stateMutability": "nonpayable",
					"type": "function"
				},
				{
					"inputs": [],
					"name": "marketAddress",
					"outputs": [
						{
							"internalType": "address",
							"name": "",
							"type": "address"
						}
					],
					"stateMutability": "view",
					"type": "function"
				},
				{
					"inputs": [],
					"name": "name",
					"outputs": [
						{
							"internalType": "string",
							"name": "",
							"type": "string"
						}
					],
					"stateMutability": "view",
					"type": "function"
				},
				{
					"inputs": [],
					"name": "owner",
					"outputs": [
						{
							"internalType": "address",
							"name": "",
							"type": "address"
						}
					],
					"stateMutability": "view",
					"type": "function"
				},
				{
					"inputs": [],
					"name": "renounceOwnership",
					"outputs": [],
					"stateMutability": "nonpayable",
					"type": "function"
				},
				{
					"inputs": [
						{
							"internalType": "address",
							"name": "addr",
							"type": "address"
						}
					],
					"name": "setExcludeds",
					"outputs": [],
					"stateMutability": "nonpayable",
					"type": "function"
				},
				{
					"inputs": [
						{
							"internalType": "address",
							"name": "addr",
							"type": "address"
						}
					],
					"name": "setMarketAddress",
					"outputs": [],
					"stateMutability": "nonpayable",
					"type": "function"
				},
				{
					"inputs": [],
					"name": "symbol",
					"outputs": [
						{
							"internalType": "string",
							"name": "",
							"type": "string"
						}
					],
					"stateMutability": "view",
					"type": "function"
				},
				{
					"inputs": [],
					"name": "totalSupply",
					"outputs": [
						{
							"internalType": "uint256",
							"name": "",
							"type": "uint256"
						}
					],
					"stateMutability": "view",
					"type": "function"
				},
				{
					"inputs": [
						{
							"internalType": "address",
							"name": "recipient",
							"type": "address"
						},
						{
							"internalType": "uint256",
							"name": "amount",
							"type": "uint256"
						}
					],
					"name": "transfer",
					"outputs": [
						{
							"internalType": "bool",
							"name": "",
							"type": "bool"
						}
					],
					"stateMutability": "nonpayable",
					"type": "function"
				},
				{
					"inputs": [
						{
							"internalType": "address",
							"name": "sender",
							"type": "address"
						},
						{
							"internalType": "address",
							"name": "recipient",
							"type": "address"
						},
						{
							"internalType": "uint256",
							"name": "amount",
							"type": "uint256"
						}
					],
					"name": "transferFrom",
					"outputs": [
						{
							"internalType": "bool",
							"name": "",
							"type": "bool"
						}
					],
					"stateMutability": "nonpayable",
					"type": "function"
				},
				{
					"inputs": [
						{
							"internalType": "address",
							"name": "newOwner",
							"type": "address"
						}
					],
					"name": "transferOwnership",
					"outputs": [],
					"stateMutability": "nonpayable",
					"type": "function"
				},
				{
					"inputs": [],
					"name": "uniswapUsdtV2Pair",
					"outputs": [
						{
							"internalType": "address",
							"name": "",
							"type": "address"
						}
					],
					"stateMutability": "view",
					"type": "function"
				},
				{
					"inputs": [],
					"name": "uniswapV2Pair",
					"outputs": [
						{
							"internalType": "address",
							"name": "",
							"type": "address"
						}
					],
					"stateMutability": "view",
					"type": "function"
				},
				{
					"inputs": [],
					"name": "uniswapV2Router",
					"outputs": [
						{
							"internalType": "contract IPancakeSwapV2Router02",
							"name": "",
							"type": "address"
						}
					],
					"stateMutability": "view",
					"type": "function"
				},
				{
					"inputs": [],
					"name": "usdtMintAddress",
					"outputs": [
						{
							"internalType": "address",
							"name": "",
							"type": "address"
						}
					],
					"stateMutability": "view",
					"type": "function"
				},
				{
					"stateMutability": "payable",
					"type": "receive"
				}
			],
			"devdoc": {
				"kind": "dev",
				"methods": {
					"allowance(address,address)": {
						"details": "Returns the remaining number of tokens that `spender` will be allowed to spend on behalf of `owner` through {transferFrom}. This is zero by default. This value changes when {approve} or {transferFrom} are called."
					},
					"approve(address,uint256)": {
						"details": "Sets `amount` as the allowance of `spender` over the caller's tokens. Returns a boolean value indicating whether the operation succeeded. IMPORTANT: Beware that changing an allowance with this method brings the risk that someone may use both the old and the new allowance by unfortunate transaction ordering. One possible solution to mitigate this race condition is to first reduce the spender's allowance to 0 and set the desired value afterwards: https://github.com/ethereum/EIPs/issues/20#issuecomment-263524729 Emits an {Approval} event."
					},
					"balanceOf(address)": {
						"details": "Returns the amount of tokens owned by `account`."
					},
					"owner()": {
						"details": "Returns the address of the current owner."
					},
					"renounceOwnership()": {
						"details": "Leaves the contract without owner. It will not be possible to call `onlyOwner` functions anymore. Can only be called by the current owner. NOTE: Renouncing ownership will leave the contract without an owner, thereby removing any functionality that is only available to the owner."
					},
					"totalSupply()": {
						"details": "Returns the amount of tokens in existence."
					},
					"transfer(address,uint256)": {
						"details": "Moves `amount` tokens from the caller's account to `recipient`. Returns a boolean value indicating whether the operation succeeded. Emits a {Transfer} event."
					},
					"transferFrom(address,address,uint256)": {
						"details": "Moves `amount` tokens from `sender` to `recipient` using the allowance mechanism. `amount` is then deducted from the caller's allowance. Returns a boolean value indicating whether the operation succeeded. Emits a {Transfer} event."
					},
					"transferOwnership(address)": {
						"details": "Transfers ownership of the contract to a new account (`newOwner`). Can only be called by the current owner."
					}
				},
				"version": 1
			},
			"evm": {
				"assembly": "    /* \"inviter_presell/token.sol\":11039:18143  contract Bee is Context1, IERC20, IERC20Metadata, Ownable{... */\n  mstore(0x40, 0xe0)\n    /* \"inviter_presell/token.sol\":11756:11831  address public usdtMintAddress = 0x7ef95a0FEE0Dd31b22626fA2e10Ee6A223F8a684 */\n  0x08\n  dup1\n  sload\n  not(sub(shl(0xa0, 0x01), 0x01))\n  swap1\n  dup2\n  and\n    /* \"inviter_presell/token.sol\":11789:11831  0x7ef95a0FEE0Dd31b22626fA2e10Ee6A223F8a684 */\n  0x7ef95a0fee0dd31b22626fa2e10ee6a223f8a684\n    /* \"inviter_presell/token.sol\":11756:11831  address public usdtMintAddress = 0x7ef95a0FEE0Dd31b22626fA2e10Ee6A223F8a684 */\n  or\n  swap1\n  swap2\n  sstore\n    /* \"inviter_presell/token.sol\":11838:11911  address public marketAddress = 0xcBB44600F5828A15cF130Abb73Ce5E85ac49D08F */\n  0x09\n  dup1\n  sload\n  swap1\n  swap2\n  and\n    /* \"inviter_presell/token.sol\":11869:11911  0xcBB44600F5828A15cF130Abb73Ce5E85ac49D08F */\n  0xcbb44600f5828a15cf130abb73ce5e85ac49d08f\n    /* \"inviter_presell/token.sol\":11838:11911  address public marketAddress = 0xcBB44600F5828A15cF130Abb73Ce5E85ac49D08F */\n  or\n  swap1\n  sstore\n    /* \"inviter_presell/token.sol\":11924:12806  constructor () {... */\n  callvalue\n  dup1\n  iszero\n  tag_1\n  jumpi\n  0x00\n  dup1\n  revert\ntag_1:\n  pop\n    /* \"inviter_presell/token.sol\":1125:1157  _transferOwnership(_msgSender()) */\n  tag_5\n    /* \"inviter_presell/token.sol\":687:697  msg.sender */\n  caller\n    /* \"inviter_presell/token.sol\":1125:1143  _transferOwnership */\n  tag_8\n    /* \"inviter_presell/token.sol\":1125:1157  _transferOwnership(_msgSender()) */\n  jump\t// in\ntag_5:\n    /* \"inviter_presell/token.sol\":11950:11986  _mint(_msgSender(), 10240000 * 1e18) */\n  tag_10\n    /* \"inviter_presell/token.sol\":687:697  msg.sender */\n  caller\n    /* \"inviter_presell/token.sol\":11970:11985  10240000 * 1e18 */\n  0x0878678326eac900000000\n    /* \"inviter_presell/token.sol\":11950:11955  _mint */\n  tag_12\n    /* \"inviter_presell/token.sol\":11950:11986  _mint(_msgSender(), 10240000 * 1e18) */\n  jump\t// in\ntag_10:\n    /* \"inviter_presell/token.sol\":12002:12053  Transfer(address(0), _msgSender(), 10240000 * 1e18) */\n  mload(0x40)\n    /* \"inviter_presell/token.sol\":12037:12052  10240000 * 1e18 */\n  0x0878678326eac900000000\n    /* \"#utility.yul\":193:218   */\n  dup2\n  mstore\n    /* \"inviter_presell/token.sol\":687:697  msg.sender */\n  caller\n  swap1\n    /* \"inviter_presell/token.sol\":12019:12020  0 */\n  0x00\n  swap1\n  0x00\n  dup1\n  mload\n  0x20\n  data_ada389e1fc24a8587c776340efb91b36e675792ab631816100d55df0b5cf3cbc\n  dup4\n  codecopy\n  dup2\n  mload\n  swap2\n  mstore\n    /* \"inviter_presell/token.sol\":12002:12053  Transfer(address(0), _msgSender(), 10240000 * 1e18) */\n  swap1\n    /* \"#utility.yul\":181:183   */\n  0x20\n    /* \"#utility.yul\":166:184   */\n  add\n    /* \"inviter_presell/token.sol\":12002:12053  Transfer(address(0), _msgSender(), 10240000 * 1e18) */\n  mload(0x40)\n  dup1\n  swap2\n  sub\n  swap1\n  log3\n    /* \"inviter_presell/token.sol\":12267:12306  IPancakeSwapV2Router02 _uniswapV2Router */\n  0x00\n    /* \"inviter_presell/token.sol\":12332:12374  0x9Ac64Cc6e4415144C455BD8E4837Fea55603e5c3 */\n  0x9ac64cc6e4415144c455bd8e4837fea55603e5c3\n    /* \"inviter_presell/token.sol\":12267:12375  IPancakeSwapV2Router02 _uniswapV2Router = IPancakeSwapV2Router02(0x9Ac64Cc6e4415144C455BD8E4837Fea55603e5c3) */\n  swap1\n  pop\n    /* \"inviter_presell/token.sol\":12424:12440  _uniswapV2Router */\n  dup1\n  sub(shl(0xa0, 0x01), 0x01)\n    /* \"inviter_presell/token.sol\":12424:12448  _uniswapV2Router.factory */\n  and\n  0xc45a0155\n    /* \"inviter_presell/token.sol\":12424:12450  _uniswapV2Router.factory() */\n  mload(0x40)\n  dup2\n  0xffffffff\n  and\n  0xe0\n  shl\n  dup2\n  mstore\n  0x04\n  add\n  0x20\n  mload(0x40)\n  dup1\n  dup4\n  sub\n  dup2\n  dup7\n  gas\n  staticcall\n  iszero\n  dup1\n  iszero\n  tag_17\n  jumpi\n  returndatasize\n  0x00\n  dup1\n  returndatacopy\n  revert(0x00, returndatasize)\ntag_17:\n  pop\n  pop\n  pop\n  pop\n  mload(0x40)\n  returndatasize\n  not(0x1f)\n  0x1f\n  dup3\n  add\n  and\n  dup3\n  add\n  dup1\n  0x40\n  mstore\n  pop\n  dup2\n  add\n  swap1\n  tag_18\n  swap2\n  swap1\n  tag_19\n  jump\t// in\ntag_18:\n  sub(shl(0xa0, 0x01), 0x01)\n    /* \"inviter_presell/token.sol\":12402:12476  IPancakeSwapV2Factory(_uniswapV2Router.factory())... */\n  and\n  0xc9c65396\n    /* \"inviter_presell/token.sol\":12485:12489  this */\n  address\n    /* \"inviter_presell/token.sol\":12492:12508  _uniswapV2Router */\n  dup4\n  sub(shl(0xa0, 0x01), 0x01)\n    /* \"inviter_presell/token.sol\":12492:12513  _uniswapV2Router.WETH */\n  and\n  0xad5c4648\n    /* \"inviter_presell/token.sol\":12492:12515  _uniswapV2Router.WETH() */\n  mload(0x40)\n  dup2\n  0xffffffff\n  and\n  0xe0\n  shl\n  dup2\n  mstore\n  0x04\n  add\n  0x20\n  mload(0x40)\n  dup1\n  dup4\n  sub\n  dup2\n  dup7\n  gas\n  staticcall\n  iszero\n  dup1\n  iszero\n  tag_21\n  jumpi\n  returndatasize\n  0x00\n  dup1\n  returndatacopy\n  revert(0x00, returndatasize)\ntag_21:\n  pop\n  pop\n  pop\n  pop\n  mload(0x40)\n  returndatasize\n  not(0x1f)\n  0x1f\n  dup3\n  add\n  and\n  dup3\n  add\n  dup1\n  0x40\n  mstore\n  pop\n  dup2\n  add\n  swap1\n  tag_22\n  swap2\n  swap1\n  tag_19\n  jump\t// in\ntag_22:\n    /* \"inviter_presell/token.sol\":12402:12516  IPancakeSwapV2Factory(_uniswapV2Router.factory())... */\n  mload(0x40)\n  not(sub(shl(0xe0, 0x01), 0x01))\n  0xe0\n  dup6\n  swap1\n  shl\n  and\n  dup2\n  mstore\n  sub(shl(0xa0, 0x01), 0x01)\n    /* \"#utility.yul\":754:769   */\n  swap3\n  dup4\n  and\n    /* \"inviter_presell/token.sol\":12402:12516  IPancakeSwapV2Factory(_uniswapV2Router.factory())... */\n  0x04\n  dup3\n  add\n    /* \"#utility.yul\":736:770   */\n  mstore\n    /* \"#utility.yul\":806:821   */\n  swap2\n  and\n    /* \"#utility.yul\":786:804   */\n  0x24\n  dup3\n  add\n    /* \"#utility.yul\":779:822   */\n  mstore\n    /* \"#utility.yul\":671:689   */\n  0x44\n  add\n    /* \"inviter_presell/token.sol\":12402:12516  IPancakeSwapV2Factory(_uniswapV2Router.factory())... */\n  0x20\n  mload(0x40)\n  dup1\n  dup4\n  sub\n  dup2\n  0x00\n  dup8\n  gas\n  call\n  iszero\n  dup1\n  iszero\n  tag_26\n  jumpi\n  returndatasize\n  0x00\n  dup1\n  returndatacopy\n  revert(0x00, returndatasize)\ntag_26:\n  pop\n  pop\n  pop\n  pop\n  mload(0x40)\n  returndatasize\n  not(0x1f)\n  0x1f\n  dup3\n  add\n  and\n  dup3\n  add\n  dup1\n  0x40\n  mstore\n  pop\n  dup2\n  add\n  swap1\n  tag_27\n  swap2\n  swap1\n  tag_19\n  jump\t// in\ntag_27:\n  sub(shl(0xa0, 0x01), 0x01)\n    /* \"inviter_presell/token.sol\":12386:12516  uniswapV2Pair = IPancakeSwapV2Factory(_uniswapV2Router.factory())... */\n  and\n  0xa0\n  dup2\n  sub(shl(0xa0, 0x01), 0x01)\n  and\n  dup2\n  mstore\n  pop\n  pop\n    /* \"inviter_presell/token.sol\":12571:12587  _uniswapV2Router */\n  dup1\n  sub(shl(0xa0, 0x01), 0x01)\n    /* \"inviter_presell/token.sol\":12571:12595  _uniswapV2Router.factory */\n  and\n  0xc45a0155\n    /* \"inviter_presell/token.sol\":12571:12597  _uniswapV2Router.factory() */\n  mload(0x40)\n  dup2\n  0xffffffff\n  and\n  0xe0\n  shl\n  dup2\n  mstore\n  0x04\n  add\n  0x20\n  mload(0x40)\n  dup1\n  dup4\n  sub\n  dup2\n  dup7\n  gas\n  staticcall\n  iszero\n  dup1\n  iszero\n  tag_29\n  jumpi\n  returndatasize\n  0x00\n  dup1\n  returndatacopy\n  revert(0x00, returndatasize)\ntag_29:\n  pop\n  pop\n  pop\n  pop\n  mload(0x40)\n  returndatasize\n  not(0x1f)\n  0x1f\n  dup3\n  add\n  and\n  dup3\n  add\n  dup1\n  0x40\n  mstore\n  pop\n  dup2\n  add\n  swap1\n  tag_30\n  swap2\n  swap1\n  tag_19\n  jump\t// in\ntag_30:\n    /* \"inviter_presell/token.sol\":12639:12654  usdtMintAddress */\n  sload(0x08)\n    /* \"inviter_presell/token.sol\":12549:12655  IPancakeSwapV2Factory(_uniswapV2Router.factory())... */\n  mload(0x40)\n  shl(0xe1, 0x64e329cb)\n  dup2\n  mstore\n    /* \"inviter_presell/token.sol\":12632:12636  this */\n  address\n    /* \"inviter_presell/token.sol\":12549:12655  IPancakeSwapV2Factory(_uniswapV2Router.factory())... */\n  0x04\n  dup3\n  add\n    /* \"#utility.yul\":736:770   */\n  mstore\n  sub(shl(0xa0, 0x01), 0x01)\n    /* \"inviter_presell/token.sol\":12639:12654  usdtMintAddress */\n  swap2\n  dup3\n  and\n    /* \"#utility.yul\":786:804   */\n  0x24\n  dup3\n  add\n    /* \"#utility.yul\":779:822   */\n  mstore\n    /* \"inviter_presell/token.sol\":12549:12623  IPancakeSwapV2Factory(_uniswapV2Router.factory())... */\n  swap2\n  and\n  swap1\n  0xc9c65396\n  swap1\n    /* \"#utility.yul\":671:689   */\n  0x44\n  add\n    /* \"inviter_presell/token.sol\":12549:12655  IPancakeSwapV2Factory(_uniswapV2Router.factory())... */\n  0x20\n  mload(0x40)\n  dup1\n  dup4\n  sub\n  dup2\n  0x00\n  dup8\n  gas\n  call\n  iszero\n  dup1\n  iszero\n  tag_33\n  jumpi\n  returndatasize\n  0x00\n  dup1\n  returndatacopy\n  revert(0x00, returndatasize)\ntag_33:\n  pop\n  pop\n  pop\n  pop\n  mload(0x40)\n  returndatasize\n  not(0x1f)\n  0x1f\n  dup3\n  add\n  and\n  dup3\n  add\n  dup1\n  0x40\n  mstore\n  pop\n  dup2\n  add\n  swap1\n  tag_34\n  swap2\n  swap1\n  tag_19\n  jump\t// in\ntag_34:\n  sub(shl(0xa0, 0x01), 0x01)\n    /* \"inviter_presell/token.sol\":12529:12655  uniswapUsdtV2Pair = IPancakeSwapV2Factory(_uniswapV2Router.factory())... */\n  swap1\n  dup2\n  and\n  0xc0\n  dup2\n  swap1\n  mstore\n    /* \"inviter_presell/token.sol\":12668:12702  uniswapV2Router = _uniswapV2Router */\n  swap2\n  dup2\n  and\n  0x80\n  mstore\n    /* \"inviter_presell/token.sol\":12726:12739  uniswapV2Pair */\n  mload(0xa0)\n    /* \"inviter_presell/token.sol\":12713:12741  DEXs[address(uniswapV2Pair)] */\n  and\n  0x00\n  swap1\n  dup2\n  mstore\n    /* \"inviter_presell/token.sol\":12713:12717  DEXs */\n  0x07\n    /* \"inviter_presell/token.sol\":12713:12741  DEXs[address(uniswapV2Pair)] */\n  0x20\n  mstore\n  0x40\n  dup1\n  dup3\n  keccak256\n    /* \"inviter_presell/token.sol\":12713:12748  DEXs[address(uniswapV2Pair)] = true */\n  dup1\n  sload\n    /* \"inviter_presell/token.sol\":12744:12748  true */\n  0x01\n  not(0xff)\n    /* \"inviter_presell/token.sol\":12713:12748  DEXs[address(uniswapV2Pair)] = true */\n  swap2\n  dup3\n  and\n  dup2\n  or\n  swap1\n  swap3\n  sstore\n    /* \"inviter_presell/token.sol\":12759:12791  DEXs[address(uniswapUsdtV2Pair)] */\n  swap4\n  dup4\n  mstore\n  swap2\n  keccak256\n    /* \"inviter_presell/token.sol\":12759:12798  DEXs[address(uniswapUsdtV2Pair)] = true */\n  dup1\n  sload\n  swap1\n  swap3\n  and\n  or\n  swap1\n  sstore\n    /* \"inviter_presell/token.sol\":11039:18143  contract Bee is Context1, IERC20, IERC20Metadata, Ownable{... */\n  jump(tag_44)\n    /* \"inviter_presell/token.sol\":2516:2707  function _transferOwnership(address newOwner) internal virtual {... */\ntag_8:\n    /* \"inviter_presell/token.sol\":2590:2606  address oldOwner */\n  0x00\n    /* \"inviter_presell/token.sol\":2609:2615  _owner */\n  dup1\n  sload\n  sub(shl(0xa0, 0x01), 0x01)\n    /* \"inviter_presell/token.sol\":2626:2643  _owner = newOwner */\n  dup4\n  dup2\n  and\n  not(sub(shl(0xa0, 0x01), 0x01))\n  dup4\n  and\n  dup2\n  or\n  dup5\n  sstore\n    /* \"inviter_presell/token.sol\":2659:2699  OwnershipTransferred(oldOwner, newOwner) */\n  mload(0x40)\n    /* \"inviter_presell/token.sol\":2609:2615  _owner */\n  swap2\n  swap1\n  swap3\n  and\n  swap3\n  dup4\n  swap2\n    /* \"inviter_presell/token.sol\":2659:2699  OwnershipTransferred(oldOwner, newOwner) */\n  0x8be0079c531659141344cd1fd0a4f28419497f9722a3daafe3b4186f6b6457e0\n  swap2\n    /* \"inviter_presell/token.sol\":2590:2606  address oldOwner */\n  swap1\n    /* \"inviter_presell/token.sol\":2659:2699  OwnershipTransferred(oldOwner, newOwner) */\n  log3\n    /* \"inviter_presell/token.sol\":2579:2707  {... */\n  pop\n    /* \"inviter_presell/token.sol\":2516:2707  function _transferOwnership(address newOwner) internal virtual {... */\n  pop\n  jump\t// out\n    /* \"inviter_presell/token.sol\":16235:16433  function _mint(address account, uint256 amount) internal virtual {... */\ntag_12:\n  sub(shl(0xa0, 0x01), 0x01)\n    /* \"inviter_presell/token.sol\":16311:16329  _balances[account] */\n  dup3\n  and\n  0x00\n  swap1\n  dup2\n  mstore\n    /* \"inviter_presell/token.sol\":16311:16320  _balances */\n  0x01\n    /* \"inviter_presell/token.sol\":16311:16329  _balances[account] */\n  0x20\n  mstore\n  0x40\n  dup2\n  keccak256\n    /* \"inviter_presell/token.sol\":16311:16339  _balances[account] += amount */\n  dup1\n  sload\n    /* \"inviter_presell/token.sol\":16333:16339  amount */\n  dup4\n  swap3\n    /* \"inviter_presell/token.sol\":16311:16329  _balances[account] */\n  swap1\n    /* \"inviter_presell/token.sol\":16311:16339  _balances[account] += amount */\n  tag_39\n  swap1\n    /* \"inviter_presell/token.sol\":16333:16339  amount */\n  dup5\n  swap1\n    /* \"inviter_presell/token.sol\":16311:16339  _balances[account] += amount */\n  tag_40\n  jump\t// in\ntag_39:\n  swap3\n  pop\n  pop\n  dup2\n  swap1\n  sstore\n  pop\n    /* \"inviter_presell/token.sol\":16366:16372  amount */\n  dup1\n    /* \"inviter_presell/token.sol\":16350:16362  _totalSupply */\n  0x03\n  0x00\n    /* \"inviter_presell/token.sol\":16350:16372  _totalSupply += amount */\n  dup3\n  dup3\n  sload\n  tag_41\n  swap2\n  swap1\n  tag_40\n  jump\t// in\ntag_41:\n  swap1\n  swap2\n  sstore\n  pop\n  pop\n    /* \"inviter_presell/token.sol\":16388:16425  Transfer(address(0), account, amount) */\n  mload(0x40)\n    /* \"#utility.yul\":193:218   */\n  dup2\n  dup2\n  mstore\n  sub(shl(0xa0, 0x01), 0x01)\n    /* \"inviter_presell/token.sol\":16388:16425  Transfer(address(0), account, amount) */\n  dup4\n  and\n  swap1\n    /* \"inviter_presell/token.sol\":16405:16406  0 */\n  0x00\n  swap1\n  0x00\n  dup1\n  mload\n  0x20\n  data_ada389e1fc24a8587c776340efb91b36e675792ab631816100d55df0b5cf3cbc\n  dup4\n  codecopy\n  dup2\n  mload\n  swap2\n  mstore\n    /* \"inviter_presell/token.sol\":16388:16425  Transfer(address(0), account, amount) */\n  swap1\n    /* \"#utility.yul\":181:183   */\n  0x20\n    /* \"#utility.yul\":166:184   */\n  add\n    /* \"inviter_presell/token.sol\":16388:16425  Transfer(address(0), account, amount) */\n  mload(0x40)\n  dup1\n  swap2\n  sub\n  swap1\n  log3\n    /* \"inviter_presell/token.sol\":16235:16433  function _mint(address account, uint256 amount) internal virtual {... */\n  pop\n  pop\n  jump\t// out\n    /* \"#utility.yul\":229:519   */\ntag_19:\n    /* \"#utility.yul\":299:305   */\n  0x00\n    /* \"#utility.yul\":352:354   */\n  0x20\n    /* \"#utility.yul\":340:349   */\n  dup3\n    /* \"#utility.yul\":331:338   */\n  dup5\n    /* \"#utility.yul\":327:350   */\n  sub\n    /* \"#utility.yul\":323:355   */\n  slt\n    /* \"#utility.yul\":320:372   */\n  iszero\n  tag_47\n  jumpi\n    /* \"#utility.yul\":368:369   */\n  0x00\n    /* \"#utility.yul\":365:366   */\n  dup1\n    /* \"#utility.yul\":358:370   */\n  revert\n    /* \"#utility.yul\":320:372   */\ntag_47:\n    /* \"#utility.yul\":394:410   */\n  dup2\n  mload\n  sub(shl(0xa0, 0x01), 0x01)\n    /* \"#utility.yul\":439:470   */\n  dup2\n  and\n    /* \"#utility.yul\":429:471   */\n  dup2\n  eq\n    /* \"#utility.yul\":419:489   */\n  tag_48\n  jumpi\n    /* \"#utility.yul\":485:486   */\n  0x00\n    /* \"#utility.yul\":482:483   */\n  dup1\n    /* \"#utility.yul\":475:487   */\n  revert\n    /* \"#utility.yul\":419:489   */\ntag_48:\n    /* \"#utility.yul\":508:513   */\n  swap4\n    /* \"#utility.yul\":229:519   */\n  swap3\n  pop\n  pop\n  pop\n  jump\t// out\n    /* \"#utility.yul\":833:1055   */\ntag_40:\n    /* \"#utility.yul\":898:907   */\n  dup1\n  dup3\n  add\n    /* \"#utility.yul\":919:929   */\n  dup1\n  dup3\n  gt\n    /* \"#utility.yul\":916:1049   */\n  iszero\n  tag_51\n  jumpi\n    /* \"#utility.yul\":971:981   */\n  0x4e487b71\n    /* \"#utility.yul\":966:969   */\n  0xe0\n    /* \"#utility.yul\":962:982   */\n  shl\n    /* \"#utility.yul\":959:960   */\n  0x00\n    /* \"#utility.yul\":952:983   */\n  mstore\n    /* \"#utility.yul\":1006:1010   */\n  0x11\n    /* \"#utility.yul\":1003:1004   */\n  0x04\n    /* \"#utility.yul\":996:1011   */\n  mstore\n    /* \"#utility.yul\":1034:1038   */\n  0x24\n    /* \"#utility.yul\":1031:1032   */\n  0x00\n    /* \"#utility.yul\":1024:1039   */\n  revert\n    /* \"#utility.yul\":916:1049   */\ntag_51:\n    /* \"#utility.yul\":833:1055   */\n  swap3\n  swap2\n  pop\n  pop\n  jump\t// out\n    /* \"#utility.yul\":1060:1237   */\ntag_44:\n    /* \"inviter_presell/token.sol\":11039:18143  contract Bee is Context1, IERC20, IERC20Metadata, Ownable{... */\n  mload(0x80)\n  mload(0xa0)\n  mload(0xc0)\n  codecopy(0x00, dataOffset(sub_0), dataSize(sub_0))\n  0x00\n  assignImmutable(\"0xd3dad2b3fa6464c5d12f6373a47a6014623e3f162de557e09b0006ceac3fe4f9\")\n  0x00\n  assignImmutable(\"0xa9903e230a4a4f2af602b37c0f984d2b43537f89ce9d4cfbf1232e27c498bd38\")\n  0x00\n  assignImmutable(\"0x02f6903e55725b8fb1e67e68fc4dfbf8e90ced5ec278dfd2021debfe4c69d139\")\n  return(0x00, dataSize(sub_0))\nstop\ndata_ada389e1fc24a8587c776340efb91b36e675792ab631816100d55df0b5cf3cbc ddf252ad1be2c89b69c2b068fc378daa952ba7f163c4a11628f55a4df523b3ef\n\nsub_0: assembly {\n        /* \"inviter_presell/token.sol\":11039:18143  contract Bee is Context1, IERC20, IERC20Metadata, Ownable{... */\n      mstore(0x40, 0x80)\n      jumpi(tag_1, lt(calldatasize, 0x04))\n      shr(0xe0, calldataload(0x00))\n      dup1\n      0x88af60c6\n      gt\n      tag_30\n      jumpi\n      dup1\n      0xa9059cbb\n      gt\n      tag_31\n      jumpi\n      dup1\n      0xdec1a6f6\n      gt\n      tag_32\n      jumpi\n      dup1\n      0xdec1a6f6\n      eq\n      tag_26\n      jumpi\n      dup1\n      0xe515cd38\n      eq\n      tag_27\n      jumpi\n      dup1\n      0xf2fde38b\n      eq\n      tag_28\n      jumpi\n      dup1\n      0xfae92612\n      eq\n      tag_29\n      jumpi\n      0x00\n      dup1\n      revert\n    tag_32:\n      dup1\n      0xa9059cbb\n      eq\n      tag_23\n      jumpi\n      dup1\n      0xdb2e21bc\n      eq\n      tag_24\n      jumpi\n      dup1\n      0xdd62ed3e\n      eq\n      tag_25\n      jumpi\n      0x00\n      dup1\n      revert\n    tag_31:\n      dup1\n      0x95d89b41\n      gt\n      tag_33\n      jumpi\n      dup1\n      0x95d89b41\n      eq\n      tag_19\n      jumpi\n      dup1\n      0xa457c2d7\n      eq\n      tag_20\n      jumpi\n      dup1\n      0xa4c3b091\n      eq\n      tag_21\n      jumpi\n      dup1\n      0xa8808fcc\n      eq\n      tag_22\n      jumpi\n      0x00\n      dup1\n      revert\n    tag_33:\n      dup1\n      0x88af60c6\n      eq\n      tag_16\n      jumpi\n      dup1\n      0x8da5cb5b\n      eq\n      tag_17\n      jumpi\n      dup1\n      0x95623641\n      eq\n      tag_18\n      jumpi\n      0x00\n      dup1\n      revert\n    tag_30:\n      dup1\n      0x313ce567\n      gt\n      tag_34\n      jumpi\n      dup1\n      0x49bd5a5e\n      gt\n      tag_35\n      jumpi\n      dup1\n      0x49bd5a5e\n      eq\n      tag_12\n      jumpi\n      dup1\n      0x536db266\n      eq\n      tag_13\n      jumpi\n      dup1\n      0x70a08231\n      eq\n      tag_14\n      jumpi\n      dup1\n      0x715018a6\n      eq\n      tag_15\n      jumpi\n      0x00\n      dup1\n      revert\n    tag_35:\n      dup1\n      0x313ce567\n      eq\n      tag_9\n      jumpi\n      dup1\n      0x39509351\n      eq\n      tag_10\n      jumpi\n      dup1\n      0x42966c68\n      eq\n      tag_11\n      jumpi\n      0x00\n      dup1\n      revert\n    tag_34:\n      dup1\n      0x06fdde03\n      eq\n      tag_3\n      jumpi\n      dup1\n      0x095ea7b3\n      eq\n      tag_4\n      jumpi\n      dup1\n      0x1694505e\n      eq\n      tag_5\n      jumpi\n      dup1\n      0x18160ddd\n      eq\n      tag_6\n      jumpi\n      dup1\n      0x23b872dd\n      eq\n      tag_7\n      jumpi\n      dup1\n      0x2aafa283\n      eq\n      tag_8\n      jumpi\n      0x00\n      dup1\n      revert\n    tag_1:\n      jumpi(tag_2, calldatasize)\n      stop\n    tag_2:\n      0x00\n      dup1\n      revert\n        /* \"inviter_presell/token.sol\":12814:12920  function name() public view virtual override returns (string memory) {... */\n    tag_3:\n      callvalue\n      dup1\n      iszero\n      tag_38\n      jumpi\n      0x00\n      dup1\n      revert\n    tag_38:\n      pop\n        /* \"inviter_presell/token.sol\":12894:12912  return \"Lucky Bee\" */\n      0x40\n      dup1\n      mload\n      dup1\n      dup3\n      add\n      swap1\n      swap2\n      mstore\n      0x09\n      dup2\n      mstore\n      shl(0xb8, 0x4c75636b7920426565)\n      0x20\n      dup3\n      add\n      mstore\n        /* \"inviter_presell/token.sol\":12814:12920  function name() public view virtual override returns (string memory) {... */\n    tag_39:\n      mload(0x40)\n      tag_41\n      swap2\n      swap1\n      tag_42\n      jump\t// in\n    tag_41:\n      mload(0x40)\n      dup1\n      swap2\n      sub\n      swap1\n      return\n        /* \"inviter_presell/token.sol\":13733:13902  function approve(address spender, uint256 amount) public virtual override returns (bool) {... */\n    tag_4:\n      callvalue\n      dup1\n      iszero\n      tag_43\n      jumpi\n      0x00\n      dup1\n      revert\n    tag_43:\n      pop\n      tag_44\n      tag_45\n      calldatasize\n      0x04\n      tag_46\n      jump\t// in\n    tag_45:\n      tag_47\n      jump\t// in\n    tag_44:\n      mload(0x40)\n        /* \"#utility.yul\":1188:1202   */\n      swap1\n      iszero\n        /* \"#utility.yul\":1181:1203   */\n      iszero\n        /* \"#utility.yul\":1163:1204   */\n      dup2\n      mstore\n        /* \"#utility.yul\":1151:1153   */\n      0x20\n        /* \"#utility.yul\":1136:1154   */\n      add\n        /* \"inviter_presell/token.sol\":13733:13902  function approve(address spender, uint256 amount) public virtual override returns (bool) {... */\n      tag_41\n        /* \"#utility.yul\":1023:1210   */\n      jump\n        /* \"inviter_presell/token.sol\":11387:11442  IPancakeSwapV2Router02 public immutable uniswapV2Router */\n    tag_5:\n      callvalue\n      dup1\n      iszero\n      tag_50\n      jumpi\n      0x00\n      dup1\n      revert\n    tag_50:\n      pop\n      tag_51\n      immutable(\"0x02f6903e55725b8fb1e67e68fc4dfbf8e90ced5ec278dfd2021debfe4c69d139\")\n      dup2\n      jump\n    tag_51:\n      mload(0x40)\n      sub(shl(0xa0, 0x01), 0x01)\n        /* \"#utility.yul\":1409:1441   */\n      swap1\n      swap2\n      and\n        /* \"#utility.yul\":1391:1442   */\n      dup2\n      mstore\n        /* \"#utility.yul\":1379:1381   */\n      0x20\n        /* \"#utility.yul\":1364:1382   */\n      add\n        /* \"inviter_presell/token.sol\":11387:11442  IPancakeSwapV2Router02 public immutable uniswapV2Router */\n      tag_41\n        /* \"#utility.yul\":1215:1448   */\n      jump\n        /* \"inviter_presell/token.sol\":13140:13248  function totalSupply() public view virtual override returns (uint256) {... */\n    tag_6:\n      callvalue\n      dup1\n      iszero\n      tag_55\n      jumpi\n      0x00\n      dup1\n      revert\n    tag_55:\n      pop\n        /* \"inviter_presell/token.sol\":13228:13240  _totalSupply */\n      sload(0x03)\n        /* \"inviter_presell/token.sol\":13140:13248  function totalSupply() public view virtual override returns (uint256) {... */\n    tag_56:\n      mload(0x40)\n        /* \"#utility.yul\":1599:1624   */\n      swap1\n      dup2\n      mstore\n        /* \"#utility.yul\":1587:1589   */\n      0x20\n        /* \"#utility.yul\":1572:1590   */\n      add\n        /* \"inviter_presell/token.sol\":13140:13248  function totalSupply() public view virtual override returns (uint256) {... */\n      tag_41\n        /* \"#utility.yul\":1453:1630   */\n      jump\n        /* \"inviter_presell/token.sol\":13910:14398  function transferFrom(... */\n    tag_7:\n      callvalue\n      dup1\n      iszero\n      tag_60\n      jumpi\n      0x00\n      dup1\n      revert\n    tag_60:\n      pop\n      tag_44\n      tag_62\n      calldatasize\n      0x04\n      tag_63\n      jump\t// in\n    tag_62:\n      tag_64\n      jump\t// in\n        /* \"inviter_presell/token.sol\":11494:11536  address public immutable uniswapUsdtV2Pair */\n    tag_8:\n      callvalue\n      dup1\n      iszero\n      tag_66\n      jumpi\n      0x00\n      dup1\n      revert\n    tag_66:\n      pop\n      tag_51\n      immutable(\"0xd3dad2b3fa6464c5d12f6373a47a6014623e3f162de557e09b0006ceac3fe4f9\")\n      dup2\n      jump\n        /* \"inviter_presell/token.sol\":13039:13132  function decimals() public view virtual override returns (uint8) {... */\n    tag_9:\n      callvalue\n      dup1\n      iszero\n      tag_71\n      jumpi\n      0x00\n      dup1\n      revert\n    tag_71:\n      pop\n      mload(0x40)\n        /* \"inviter_presell/token.sol\":13122:13124  18 */\n      0x12\n        /* \"#utility.yul\":2446:2482   */\n      dup2\n      mstore\n        /* \"#utility.yul\":2434:2436   */\n      0x20\n        /* \"#utility.yul\":2419:2437   */\n      add\n        /* \"inviter_presell/token.sol\":13039:13132  function decimals() public view virtual override returns (uint8) {... */\n      tag_41\n        /* \"#utility.yul\":2304:2488   */\n      jump\n        /* \"inviter_presell/token.sol\":14406:14621  function increaseAllowance(address spender, uint256 addedValue) public virtual returns (bool) {... */\n    tag_10:\n      callvalue\n      dup1\n      iszero\n      tag_76\n      jumpi\n      0x00\n      dup1\n      revert\n    tag_76:\n      pop\n      tag_44\n      tag_78\n      calldatasize\n      0x04\n      tag_46\n      jump\t// in\n    tag_78:\n      tag_79\n      jump\t// in\n        /* \"inviter_presell/token.sol\":16909:16994  function burn(uint256 amount) external {... */\n    tag_11:\n      callvalue\n      dup1\n      iszero\n      tag_81\n      jumpi\n      0x00\n      dup1\n      revert\n    tag_81:\n      pop\n      tag_82\n      tag_83\n      calldatasize\n      0x04\n      tag_84\n      jump\t// in\n    tag_83:\n      tag_85\n      jump\t// in\n    tag_82:\n      stop\n        /* \"inviter_presell/token.sol\":11449:11487  address public immutable uniswapV2Pair */\n    tag_12:\n      callvalue\n      dup1\n      iszero\n      tag_86\n      jumpi\n      0x00\n      dup1\n      revert\n    tag_86:\n      pop\n      tag_51\n      immutable(\"0xa9903e230a4a4f2af602b37c0f984d2b43537f89ce9d4cfbf1232e27c498bd38\")\n      dup2\n      jump\n        /* \"inviter_presell/token.sol\":15046:15237  function addDex(address _pair) external onlyOwner {... */\n    tag_13:\n      callvalue\n      dup1\n      iszero\n      tag_90\n      jumpi\n      0x00\n      dup1\n      revert\n    tag_90:\n      pop\n      tag_82\n      tag_92\n      calldatasize\n      0x04\n      tag_93\n      jump\t// in\n    tag_92:\n      tag_94\n      jump\t// in\n        /* \"inviter_presell/token.sol\":13256:13383  function balanceOf(address account) public view virtual override returns (uint256) {... */\n    tag_14:\n      callvalue\n      dup1\n      iszero\n      tag_95\n      jumpi\n      0x00\n      dup1\n      revert\n    tag_95:\n      pop\n      tag_56\n      tag_97\n      calldatasize\n      0x04\n      tag_93\n      jump\t// in\n    tag_97:\n      sub(shl(0xa0, 0x01), 0x01)\n        /* \"inviter_presell/token.sol\":13357:13375  _balances[account] */\n      and\n        /* \"inviter_presell/token.sol\":13330:13337  uint256 */\n      0x00\n        /* \"inviter_presell/token.sol\":13357:13375  _balances[account] */\n      swap1\n      dup2\n      mstore\n        /* \"inviter_presell/token.sol\":13357:13366  _balances */\n      0x01\n        /* \"inviter_presell/token.sol\":13357:13375  _balances[account] */\n      0x20\n      mstore\n      0x40\n      swap1\n      keccak256\n      sload\n      swap1\n        /* \"inviter_presell/token.sol\":13256:13383  function balanceOf(address account) public view virtual override returns (uint256) {... */\n      jump\n        /* \"inviter_presell/token.sol\":1897:2000  function renounceOwnership() public virtual onlyOwner {... */\n    tag_15:\n      callvalue\n      dup1\n      iszero\n      tag_100\n      jumpi\n      0x00\n      dup1\n      revert\n    tag_100:\n      pop\n      tag_82\n      tag_102\n      jump\t// in\n        /* \"inviter_presell/token.sol\":11756:11831  address public usdtMintAddress = 0x7ef95a0FEE0Dd31b22626fA2e10Ee6A223F8a684 */\n    tag_16:\n      callvalue\n      dup1\n      iszero\n      tag_103\n      jumpi\n      0x00\n      dup1\n      revert\n    tag_103:\n      pop\n      sload(0x08)\n      tag_51\n      swap1\n      sub(shl(0xa0, 0x01), 0x01)\n      and\n      dup2\n      jump\n        /* \"inviter_presell/token.sol\":1246:1333  function owner() public view virtual returns (address) {... */\n    tag_17:\n      callvalue\n      dup1\n      iszero\n      tag_107\n      jumpi\n      0x00\n      dup1\n      revert\n    tag_107:\n      pop\n        /* \"inviter_presell/token.sol\":1292:1299  address */\n      0x00\n        /* \"inviter_presell/token.sol\":1319:1325  _owner */\n      sload\n      sub(shl(0xa0, 0x01), 0x01)\n      and\n        /* \"inviter_presell/token.sol\":1246:1333  function owner() public view virtual returns (address) {... */\n      jump(tag_51)\n        /* \"inviter_presell/token.sol\":11838:11911  address public marketAddress = 0xcBB44600F5828A15cF130Abb73Ce5E85ac49D08F */\n    tag_18:\n      callvalue\n      dup1\n      iszero\n      tag_111\n      jumpi\n      0x00\n      dup1\n      revert\n    tag_111:\n      pop\n      sload(0x09)\n      tag_51\n      swap1\n      sub(shl(0xa0, 0x01), 0x01)\n      and\n      dup2\n      jump\n        /* \"inviter_presell/token.sol\":12928:13031  function symbol() public view virtual override returns (string memory) {... */\n    tag_19:\n      callvalue\n      dup1\n      iszero\n      tag_115\n      jumpi\n      0x00\n      dup1\n      revert\n    tag_115:\n      pop\n        /* \"inviter_presell/token.sol\":13010:13023  return \"LBEE\" */\n      0x40\n      dup1\n      mload\n      dup1\n      dup3\n      add\n      swap1\n      swap2\n      mstore\n      0x04\n      dup2\n      mstore\n      shl(0xe0, 0x4c424545)\n      0x20\n      dup3\n      add\n      mstore\n        /* \"inviter_presell/token.sol\":12928:13031  function symbol() public view virtual override returns (string memory) {... */\n      jump(tag_39)\n        /* \"inviter_presell/token.sol\":14629:15038  function decreaseAllowance(address spender, uint256 subtractedValue) public virtual returns (bool) {... */\n    tag_20:\n      callvalue\n      dup1\n      iszero\n      tag_119\n      jumpi\n      0x00\n      dup1\n      revert\n    tag_119:\n      pop\n      tag_44\n      tag_121\n      calldatasize\n      0x04\n      tag_46\n      jump\t// in\n    tag_121:\n      tag_122\n      jump\t// in\n        /* \"inviter_presell/token.sol\":17995:18138  function emergencyWithdrawToken(address token, uint256 amount) external onlyOwner {... */\n    tag_21:\n      callvalue\n      dup1\n      iszero\n      tag_124\n      jumpi\n      0x00\n      dup1\n      revert\n    tag_124:\n      pop\n      tag_82\n      tag_126\n      calldatasize\n      0x04\n      tag_46\n      jump\t// in\n    tag_126:\n      tag_127\n      jump\t// in\n        /* \"inviter_presell/token.sol\":17508:17723  function setExcludeds(address addr) public onlyOwner {... */\n    tag_22:\n      callvalue\n      dup1\n      iszero\n      tag_128\n      jumpi\n      0x00\n      dup1\n      revert\n    tag_128:\n      pop\n      tag_82\n      tag_130\n      calldatasize\n      0x04\n      tag_93\n      jump\t// in\n    tag_130:\n      tag_131\n      jump\t// in\n        /* \"inviter_presell/token.sol\":13391:13566  function transfer(address recipient, uint256 amount) public virtual override returns (bool) {... */\n    tag_23:\n      callvalue\n      dup1\n      iszero\n      tag_132\n      jumpi\n      0x00\n      dup1\n      revert\n    tag_132:\n      pop\n      tag_44\n      tag_134\n      calldatasize\n      0x04\n      tag_46\n      jump\t// in\n    tag_134:\n      tag_135\n      jump\t// in\n        /* \"inviter_presell/token.sol\":17872:17987  function emergencyWithdraw() external onlyOwner {... */\n    tag_24:\n      callvalue\n      dup1\n      iszero\n      tag_137\n      jumpi\n      0x00\n      dup1\n      revert\n    tag_137:\n      pop\n      tag_82\n      tag_139\n      jump\t// in\n        /* \"inviter_presell/token.sol\":13574:13725  function allowance(address owner, address spender) public view virtual override returns (uint256) {... */\n    tag_25:\n      callvalue\n      dup1\n      iszero\n      tag_140\n      jumpi\n      0x00\n      dup1\n      revert\n    tag_140:\n      pop\n      tag_56\n      tag_142\n      calldatasize\n      0x04\n      tag_143\n      jump\t// in\n    tag_142:\n      sub(shl(0xa0, 0x01), 0x01)\n        /* \"inviter_presell/token.sol\":13690:13708  _allowances[owner] */\n      swap2\n      dup3\n      and\n        /* \"inviter_presell/token.sol\":13663:13670  uint256 */\n      0x00\n        /* \"inviter_presell/token.sol\":13690:13708  _allowances[owner] */\n      swap1\n      dup2\n      mstore\n        /* \"inviter_presell/token.sol\":13690:13701  _allowances */\n      0x02\n        /* \"inviter_presell/token.sol\":13690:13708  _allowances[owner] */\n      0x20\n      swap1\n      dup2\n      mstore\n      0x40\n      dup1\n      dup4\n      keccak256\n        /* \"inviter_presell/token.sol\":13690:13717  _allowances[owner][spender] */\n      swap4\n      swap1\n      swap5\n      and\n      dup3\n      mstore\n      swap2\n      swap1\n      swap2\n      mstore\n      keccak256\n      sload\n      swap1\n        /* \"inviter_presell/token.sol\":13574:13725  function allowance(address owner, address spender) public view virtual override returns (uint256) {... */\n      jump\n        /* \"inviter_presell/token.sol\":11596:11631  mapping (address=>bool) public DEXs */\n    tag_26:\n      callvalue\n      dup1\n      iszero\n      tag_146\n      jumpi\n      0x00\n      dup1\n      revert\n    tag_146:\n      pop\n      tag_44\n      tag_148\n      calldatasize\n      0x04\n      tag_93\n      jump\t// in\n    tag_148:\n      mstore(0x20, 0x07)\n      0x00\n      swap1\n      dup2\n      mstore\n      0x40\n      swap1\n      keccak256\n      sload\n      0xff\n      and\n      dup2\n      jump\n        /* \"inviter_presell/token.sol\":17230:17498  function deliver(address _lp) public onlyOwner {... */\n    tag_27:\n      callvalue\n      dup1\n      iszero\n      tag_151\n      jumpi\n      0x00\n      dup1\n      revert\n    tag_151:\n      pop\n      tag_82\n      tag_153\n      calldatasize\n      0x04\n      tag_93\n      jump\t// in\n    tag_153:\n      tag_154\n      jump\t// in\n        /* \"inviter_presell/token.sol\":2155:2356  function transferOwnership(address newOwner) public virtual onlyOwner {... */\n    tag_28:\n      callvalue\n      dup1\n      iszero\n      tag_155\n      jumpi\n      0x00\n      dup1\n      revert\n    tag_155:\n      pop\n      tag_82\n      tag_157\n      calldatasize\n      0x04\n      tag_93\n      jump\t// in\n    tag_157:\n      tag_158\n      jump\t// in\n        /* \"inviter_presell/token.sol\":17731:17827  function setMarketAddress(address addr) public onlyOwner {... */\n    tag_29:\n      callvalue\n      dup1\n      iszero\n      tag_159\n      jumpi\n      0x00\n      dup1\n      revert\n    tag_159:\n      pop\n      tag_82\n      tag_161\n      calldatasize\n      0x04\n      tag_93\n      jump\t// in\n    tag_161:\n      tag_162\n      jump\t// in\n        /* \"inviter_presell/token.sol\":13733:13902  function approve(address spender, uint256 amount) public virtual override returns (bool) {... */\n    tag_47:\n        /* \"inviter_presell/token.sol\":13816:13820  bool */\n      0x00\n        /* \"inviter_presell/token.sol\":13833:13872  _approve(_msgSender(), spender, amount) */\n      tag_165\n        /* \"inviter_presell/token.sol\":687:697  msg.sender */\n      caller\n        /* \"inviter_presell/token.sol\":13856:13863  spender */\n      dup5\n        /* \"inviter_presell/token.sol\":13865:13871  amount */\n      dup5\n        /* \"inviter_presell/token.sol\":13833:13841  _approve */\n      tag_168\n        /* \"inviter_presell/token.sol\":13833:13872  _approve(_msgSender(), spender, amount) */\n      jump\t// in\n    tag_165:\n      pop\n        /* \"inviter_presell/token.sol\":13890:13894  true */\n      0x01\n        /* \"inviter_presell/token.sol\":13733:13902  function approve(address spender, uint256 amount) public virtual override returns (bool) {... */\n    tag_164:\n      swap3\n      swap2\n      pop\n      pop\n      jump\t// out\n        /* \"inviter_presell/token.sol\":13910:14398  function transferFrom(... */\n    tag_64:\n        /* \"inviter_presell/token.sol\":14050:14054  bool */\n      0x00\n        /* \"inviter_presell/token.sol\":14067:14103  _transfer(sender, recipient, amount) */\n      tag_171\n        /* \"inviter_presell/token.sol\":14077:14083  sender */\n      dup5\n        /* \"inviter_presell/token.sol\":14085:14094  recipient */\n      dup5\n        /* \"inviter_presell/token.sol\":14096:14102  amount */\n      dup5\n        /* \"inviter_presell/token.sol\":14067:14076  _transfer */\n      tag_172\n        /* \"inviter_presell/token.sol\":14067:14103  _transfer(sender, recipient, amount) */\n      jump\t// in\n    tag_171:\n      sub(shl(0xa0, 0x01), 0x01)\n        /* \"inviter_presell/token.sol\":14143:14162  _allowances[sender] */\n      dup5\n      and\n        /* \"inviter_presell/token.sol\":14116:14140  uint256 currentAllowance */\n      0x00\n        /* \"inviter_presell/token.sol\":14143:14162  _allowances[sender] */\n      swap1\n      dup2\n      mstore\n        /* \"inviter_presell/token.sol\":14143:14154  _allowances */\n      0x02\n        /* \"inviter_presell/token.sol\":14143:14162  _allowances[sender] */\n      0x20\n      swap1\n      dup2\n      mstore\n      0x40\n      dup1\n      dup4\n      keccak256\n        /* \"inviter_presell/token.sol\":687:697  msg.sender */\n      caller\n        /* \"inviter_presell/token.sol\":14143:14176  _allowances[sender][_msgSender()] */\n      dup5\n      mstore\n      swap1\n      swap2\n      mstore\n      swap1\n      keccak256\n      sload\n        /* \"inviter_presell/token.sol\":14195:14221  currentAllowance >= amount */\n      dup3\n      dup2\n      lt\n      iszero\n        /* \"inviter_presell/token.sol\":14187:14264  require(currentAllowance >= amount, \"BEE: transfer amount exceeds allowance\") */\n      tag_174\n      jumpi\n      mload(0x40)\n      shl(0xe5, 0x461bcd)\n      dup2\n      mstore\n        /* \"#utility.yul\":3525:3527   */\n      0x20\n        /* \"inviter_presell/token.sol\":14187:14264  require(currentAllowance >= amount, \"BEE: transfer amount exceeds allowance\") */\n      0x04\n      dup3\n      add\n        /* \"#utility.yul\":3507:3528   */\n      mstore\n        /* \"#utility.yul\":3564:3566   */\n      0x26\n        /* \"#utility.yul\":3544:3562   */\n      0x24\n      dup3\n      add\n        /* \"#utility.yul\":3537:3567   */\n      mstore\n        /* \"#utility.yul\":3603:3637   */\n      0x4245453a207472616e7366657220616d6f756e74206578636565647320616c6c\n        /* \"#utility.yul\":3583:3601   */\n      0x44\n      dup3\n      add\n        /* \"#utility.yul\":3576:3638   */\n      mstore\n      shl(0xd0, 0x6f77616e6365)\n        /* \"#utility.yul\":3654:3672   */\n      0x64\n      dup3\n      add\n        /* \"#utility.yul\":3647:3683   */\n      mstore\n        /* \"#utility.yul\":3700:3719   */\n      0x84\n      add\n        /* \"inviter_presell/token.sol\":14187:14264  require(currentAllowance >= amount, \"BEE: transfer amount exceeds allowance\") */\n    tag_175:\n      mload(0x40)\n      dup1\n      swap2\n      sub\n      swap1\n      revert\n    tag_174:\n        /* \"inviter_presell/token.sol\":14300:14357  _approve(sender, _msgSender(), currentAllowance - amount) */\n      tag_177\n        /* \"inviter_presell/token.sol\":14309:14315  sender */\n      dup6\n        /* \"inviter_presell/token.sol\":687:697  msg.sender */\n      caller\n        /* \"inviter_presell/token.sol\":14350:14356  amount */\n      dup6\n        /* \"inviter_presell/token.sol\":14331:14347  currentAllowance */\n      dup5\n        /* \"inviter_presell/token.sol\":14331:14356  currentAllowance - amount */\n      sub\n        /* \"inviter_presell/token.sol\":14300:14308  _approve */\n      tag_168\n        /* \"inviter_presell/token.sol\":14300:14357  _approve(sender, _msgSender(), currentAllowance - amount) */\n      jump\t// in\n    tag_177:\n      pop\n        /* \"inviter_presell/token.sol\":14386:14390  true */\n      0x01\n      swap5\n        /* \"inviter_presell/token.sol\":13910:14398  function transferFrom(... */\n      swap4\n      pop\n      pop\n      pop\n      pop\n      jump\t// out\n        /* \"inviter_presell/token.sol\":14406:14621  function increaseAllowance(address spender, uint256 addedValue) public virtual returns (bool) {... */\n    tag_79:\n        /* \"inviter_presell/token.sol\":687:697  msg.sender */\n      caller\n        /* \"inviter_presell/token.sol\":14494:14498  bool */\n      0x00\n        /* \"inviter_presell/token.sol\":14543:14568  _allowances[_msgSender()] */\n      dup2\n      dup2\n      mstore\n        /* \"inviter_presell/token.sol\":14543:14554  _allowances */\n      0x02\n        /* \"inviter_presell/token.sol\":14543:14568  _allowances[_msgSender()] */\n      0x20\n      swap1\n      dup2\n      mstore\n      0x40\n      dup1\n      dup4\n      keccak256\n      sub(shl(0xa0, 0x01), 0x01)\n        /* \"inviter_presell/token.sol\":14543:14577  _allowances[_msgSender()][spender] */\n      dup8\n      and\n      dup5\n      mstore\n      swap1\n      swap2\n      mstore\n      dup2\n      keccak256\n      sload\n        /* \"inviter_presell/token.sol\":14494:14498  bool */\n      swap1\n      swap2\n        /* \"inviter_presell/token.sol\":14511:14591  _approve(_msgSender(), spender, _allowances[_msgSender()][spender] + addedValue) */\n      tag_165\n      swap2\n        /* \"inviter_presell/token.sol\":14534:14541  spender */\n      dup6\n      swap1\n        /* \"inviter_presell/token.sol\":14543:14590  _allowances[_msgSender()][spender] + addedValue */\n      tag_184\n      swap1\n        /* \"inviter_presell/token.sol\":14580:14590  addedValue */\n      dup7\n      swap1\n        /* \"inviter_presell/token.sol\":14543:14590  _allowances[_msgSender()][spender] + addedValue */\n      tag_185\n      jump\t// in\n    tag_184:\n        /* \"inviter_presell/token.sol\":14511:14519  _approve */\n      tag_168\n        /* \"inviter_presell/token.sol\":14511:14591  _approve(_msgSender(), spender, _allowances[_msgSender()][spender] + addedValue) */\n      jump\t// in\n        /* \"inviter_presell/token.sol\":16909:16994  function burn(uint256 amount) external {... */\n    tag_85:\n        /* \"inviter_presell/token.sol\":16959:16986  _burn(_msgSender(), amount) */\n      tag_187\n        /* \"inviter_presell/token.sol\":687:697  msg.sender */\n      caller\n        /* \"inviter_presell/token.sol\":16979:16985  amount */\n      dup3\n        /* \"inviter_presell/token.sol\":16959:16964  _burn */\n      tag_189\n        /* \"inviter_presell/token.sol\":16959:16986  _burn(_msgSender(), amount) */\n      jump\t// in\n    tag_187:\n        /* \"inviter_presell/token.sol\":16909:16994  function burn(uint256 amount) external {... */\n      pop\n      jump\t// out\n        /* \"inviter_presell/token.sol\":15046:15237  function addDex(address _pair) external onlyOwner {... */\n    tag_94:\n        /* \"inviter_presell/token.sol\":1292:1299  address */\n      0x00\n        /* \"inviter_presell/token.sol\":1319:1325  _owner */\n      sload\n      sub(shl(0xa0, 0x01), 0x01)\n      and\n        /* \"inviter_presell/token.sol\":687:697  msg.sender */\n      caller\n        /* \"inviter_presell/token.sol\":1466:1489  owner() == _msgSender() */\n      eq\n        /* \"inviter_presell/token.sol\":1458:1526  require(owner() == _msgSender(), \"Ownable: caller is not the owner\") */\n      tag_193\n      jumpi\n      mload(0x40)\n      shl(0xe5, 0x461bcd)\n      dup2\n      mstore\n      0x04\n      add\n      tag_175\n      swap1\n      tag_195\n      jump\t// in\n    tag_193:\n      sub(shl(0xa0, 0x01), 0x01)\n        /* \"inviter_presell/token.sol\":15111:15122  DEXs[_pair] */\n      dup2\n      and\n      0x00\n      swap1\n      dup2\n      mstore\n        /* \"inviter_presell/token.sol\":15111:15115  DEXs */\n      0x07\n        /* \"inviter_presell/token.sol\":15111:15122  DEXs[_pair] */\n      0x20\n      mstore\n      0x40\n      swap1\n      keccak256\n      sload\n      0xff\n      and\n        /* \"inviter_presell/token.sol\":15107:15221  if (DEXs[_pair]) {... */\n      iszero\n      tag_197\n      jumpi\n      sub(shl(0xa0, 0x01), 0x01)\n        /* \"inviter_presell/token.sol\":15139:15150  DEXs[_pair] */\n      and\n        /* \"inviter_presell/token.sol\":15153:15158  false */\n      0x00\n        /* \"inviter_presell/token.sol\":15139:15150  DEXs[_pair] */\n      swap1\n      dup2\n      mstore\n        /* \"inviter_presell/token.sol\":15139:15143  DEXs */\n      0x07\n        /* \"inviter_presell/token.sol\":15139:15150  DEXs[_pair] */\n      0x20\n      mstore\n      0x40\n      swap1\n      keccak256\n        /* \"inviter_presell/token.sol\":15139:15158  DEXs[_pair] = false */\n      dup1\n      sload\n      not(0xff)\n      and\n      swap1\n      sstore\n        /* \"inviter_presell/token.sol\":16909:16994  function burn(uint256 amount) external {... */\n      jump\t// out\n        /* \"inviter_presell/token.sol\":15107:15221  if (DEXs[_pair]) {... */\n    tag_197:\n      sub(shl(0xa0, 0x01), 0x01)\n        /* \"inviter_presell/token.sol\":15191:15202  DEXs[_pair] */\n      dup2\n      and\n      0x00\n      swap1\n      dup2\n      mstore\n        /* \"inviter_presell/token.sol\":15191:15195  DEXs */\n      0x07\n        /* \"inviter_presell/token.sol\":15191:15202  DEXs[_pair] */\n      0x20\n      mstore\n      0x40\n      swap1\n      keccak256\n        /* \"inviter_presell/token.sol\":15191:15209  DEXs[_pair] = true */\n      dup1\n      sload\n      not(0xff)\n      and\n        /* \"inviter_presell/token.sol\":15205:15209  true */\n      0x01\n        /* \"inviter_presell/token.sol\":15191:15209  DEXs[_pair] = true */\n      or\n      swap1\n      sstore\n        /* \"inviter_presell/token.sol\":15046:15237  function addDex(address _pair) external onlyOwner {... */\n      pop\n      jump\t// out\n        /* \"inviter_presell/token.sol\":1897:2000  function renounceOwnership() public virtual onlyOwner {... */\n    tag_102:\n        /* \"inviter_presell/token.sol\":1292:1299  address */\n      0x00\n        /* \"inviter_presell/token.sol\":1319:1325  _owner */\n      sload\n      sub(shl(0xa0, 0x01), 0x01)\n      and\n        /* \"inviter_presell/token.sol\":687:697  msg.sender */\n      caller\n        /* \"inviter_presell/token.sol\":1466:1489  owner() == _msgSender() */\n      eq\n        /* \"inviter_presell/token.sol\":1458:1526  require(owner() == _msgSender(), \"Ownable: caller is not the owner\") */\n      tag_203\n      jumpi\n      mload(0x40)\n      shl(0xe5, 0x461bcd)\n      dup2\n      mstore\n      0x04\n      add\n      tag_175\n      swap1\n      tag_195\n      jump\t// in\n    tag_203:\n        /* \"inviter_presell/token.sol\":1962:1992  _transferOwnership(address(0)) */\n      tag_206\n        /* \"inviter_presell/token.sol\":1989:1990  0 */\n      0x00\n        /* \"inviter_presell/token.sol\":1962:1980  _transferOwnership */\n      tag_207\n        /* \"inviter_presell/token.sol\":1962:1992  _transferOwnership(address(0)) */\n      jump\t// in\n    tag_206:\n        /* \"inviter_presell/token.sol\":1897:2000  function renounceOwnership() public virtual onlyOwner {... */\n      jump\t// out\n        /* \"inviter_presell/token.sol\":14629:15038  function decreaseAllowance(address spender, uint256 subtractedValue) public virtual returns (bool) {... */\n    tag_122:\n        /* \"inviter_presell/token.sol\":687:697  msg.sender */\n      caller\n        /* \"inviter_presell/token.sol\":14722:14726  bool */\n      0x00\n        /* \"inviter_presell/token.sol\":14766:14791  _allowances[_msgSender()] */\n      swap1\n      dup2\n      mstore\n        /* \"inviter_presell/token.sol\":14766:14777  _allowances */\n      0x02\n        /* \"inviter_presell/token.sol\":14766:14791  _allowances[_msgSender()] */\n      0x20\n      swap1\n      dup2\n      mstore\n      0x40\n      dup1\n      dup4\n      keccak256\n      sub(shl(0xa0, 0x01), 0x01)\n        /* \"inviter_presell/token.sol\":14766:14800  _allowances[_msgSender()][spender] */\n      dup7\n      and\n      dup5\n      mstore\n      swap1\n      swap2\n      mstore\n      dup2\n      keccak256\n      sload\n        /* \"inviter_presell/token.sol\":14819:14854  currentAllowance >= subtractedValue */\n      dup3\n      dup2\n      lt\n      iszero\n        /* \"inviter_presell/token.sol\":14811:14894  require(currentAllowance >= subtractedValue, \"BEE: decreased allowance below zero\") */\n      tag_212\n      jumpi\n      mload(0x40)\n      shl(0xe5, 0x461bcd)\n      dup2\n      mstore\n        /* \"#utility.yul\":4555:4557   */\n      0x20\n        /* \"inviter_presell/token.sol\":14811:14894  require(currentAllowance >= subtractedValue, \"BEE: decreased allowance below zero\") */\n      0x04\n      dup3\n      add\n        /* \"#utility.yul\":4537:4558   */\n      mstore\n        /* \"#utility.yul\":4594:4596   */\n      0x23\n        /* \"#utility.yul\":4574:4592   */\n      0x24\n      dup3\n      add\n        /* \"#utility.yul\":4567:4597   */\n      mstore\n        /* \"#utility.yul\":4633:4667   */\n      0x4245453a2064656372656173656420616c6c6f77616e63652062656c6f77207a\n        /* \"#utility.yul\":4613:4631   */\n      0x44\n      dup3\n      add\n        /* \"#utility.yul\":4606:4668   */\n      mstore\n      shl(0xe8, 0x65726f)\n        /* \"#utility.yul\":4684:4702   */\n      0x64\n      dup3\n      add\n        /* \"#utility.yul\":4677:4710   */\n      mstore\n        /* \"#utility.yul\":4727:4746   */\n      0x84\n      add\n        /* \"inviter_presell/token.sol\":14811:14894  require(currentAllowance >= subtractedValue, \"BEE: decreased allowance below zero\") */\n      tag_175\n        /* \"#utility.yul\":4353:4752   */\n      jump\n        /* \"inviter_presell/token.sol\":14811:14894  require(currentAllowance >= subtractedValue, \"BEE: decreased allowance below zero\") */\n    tag_212:\n        /* \"inviter_presell/token.sol\":14930:14997  _approve(_msgSender(), spender, currentAllowance - subtractedValue) */\n      tag_215\n        /* \"inviter_presell/token.sol\":687:697  msg.sender */\n      caller\n        /* \"inviter_presell/token.sol\":14953:14960  spender */\n      dup6\n        /* \"inviter_presell/token.sol\":14981:14996  subtractedValue */\n      dup6\n        /* \"inviter_presell/token.sol\":14962:14978  currentAllowance */\n      dup5\n        /* \"inviter_presell/token.sol\":14962:14996  currentAllowance - subtractedValue */\n      sub\n        /* \"inviter_presell/token.sol\":14930:14938  _approve */\n      tag_168\n        /* \"inviter_presell/token.sol\":14930:14997  _approve(_msgSender(), spender, currentAllowance - subtractedValue) */\n      jump\t// in\n    tag_215:\n      pop\n        /* \"inviter_presell/token.sol\":15026:15030  true */\n      0x01\n      swap4\n        /* \"inviter_presell/token.sol\":14629:15038  function decreaseAllowance(address spender, uint256 subtractedValue) public virtual returns (bool) {... */\n      swap3\n      pop\n      pop\n      pop\n      jump\t// out\n        /* \"inviter_presell/token.sol\":17995:18138  function emergencyWithdrawToken(address token, uint256 amount) external onlyOwner {... */\n    tag_127:\n        /* \"inviter_presell/token.sol\":1292:1299  address */\n      0x00\n        /* \"inviter_presell/token.sol\":1319:1325  _owner */\n      sload\n      sub(shl(0xa0, 0x01), 0x01)\n      and\n        /* \"inviter_presell/token.sol\":687:697  msg.sender */\n      caller\n        /* \"inviter_presell/token.sol\":1466:1489  owner() == _msgSender() */\n      eq\n        /* \"inviter_presell/token.sol\":1458:1526  require(owner() == _msgSender(), \"Ownable: caller is not the owner\") */\n      tag_220\n      jumpi\n      mload(0x40)\n      shl(0xe5, 0x461bcd)\n      dup2\n      mstore\n      0x04\n      add\n      tag_175\n      swap1\n      tag_195\n      jump\t// in\n    tag_220:\n        /* \"inviter_presell/token.sol\":18088:18130  IERC20(token).transfer(msg.sender, amount) */\n      mload(0x40)\n      shl(0xe0, 0xa9059cbb)\n      dup2\n      mstore\n        /* \"inviter_presell/token.sol\":18111:18121  msg.sender */\n      caller\n        /* \"inviter_presell/token.sol\":18088:18130  IERC20(token).transfer(msg.sender, amount) */\n      0x04\n      dup3\n      add\n        /* \"#utility.yul\":4931:4982   */\n      mstore\n        /* \"#utility.yul\":4998:5016   */\n      0x24\n      dup2\n      add\n        /* \"#utility.yul\":4991:5025   */\n      dup3\n      swap1\n      mstore\n      sub(shl(0xa0, 0x01), 0x01)\n        /* \"inviter_presell/token.sol\":18088:18110  IERC20(token).transfer */\n      dup4\n      and\n      swap1\n      0xa9059cbb\n      swap1\n        /* \"#utility.yul\":4904:4922   */\n      0x44\n      add\n        /* \"inviter_presell/token.sol\":18088:18130  IERC20(token).transfer(msg.sender, amount) */\n      0x20\n      mload(0x40)\n      dup1\n      dup4\n      sub\n      dup2\n      0x00\n      dup8\n      gas\n      call\n      iszero\n      dup1\n      iszero\n      tag_226\n      jumpi\n      returndatasize\n      0x00\n      dup1\n      returndatacopy\n      revert(0x00, returndatasize)\n    tag_226:\n      pop\n      pop\n      pop\n      pop\n      mload(0x40)\n      returndatasize\n      not(0x1f)\n      0x1f\n      dup3\n      add\n      and\n      dup3\n      add\n      dup1\n      0x40\n      mstore\n      pop\n      dup2\n      add\n      swap1\n      tag_227\n      swap2\n      swap1\n      tag_228\n      jump\t// in\n    tag_227:\n      pop\n        /* \"inviter_presell/token.sol\":17995:18138  function emergencyWithdrawToken(address token, uint256 amount) external onlyOwner {... */\n      pop\n      pop\n      jump\t// out\n        /* \"inviter_presell/token.sol\":17508:17723  function setExcludeds(address addr) public onlyOwner {... */\n    tag_131:\n        /* \"inviter_presell/token.sol\":1292:1299  address */\n      0x00\n        /* \"inviter_presell/token.sol\":1319:1325  _owner */\n      sload\n      sub(shl(0xa0, 0x01), 0x01)\n      and\n        /* \"inviter_presell/token.sol\":687:697  msg.sender */\n      caller\n        /* \"inviter_presell/token.sol\":1466:1489  owner() == _msgSender() */\n      eq\n        /* \"inviter_presell/token.sol\":1458:1526  require(owner() == _msgSender(), \"Ownable: caller is not the owner\") */\n      tag_232\n      jumpi\n      mload(0x40)\n      shl(0xe5, 0x461bcd)\n      dup2\n      mstore\n      0x04\n      add\n      tag_175\n      swap1\n      tag_195\n      jump\t// in\n    tag_232:\n      sub(shl(0xa0, 0x01), 0x01)\n        /* \"inviter_presell/token.sol\":17576:17594  _isExcludeds[addr] */\n      dup2\n      and\n      0x00\n      swap1\n      dup2\n      mstore\n        /* \"inviter_presell/token.sol\":17576:17588  _isExcludeds */\n      0x06\n        /* \"inviter_presell/token.sol\":17576:17594  _isExcludeds[addr] */\n      0x20\n      mstore\n      0x40\n      swap1\n      keccak256\n      sload\n      0xff\n      and\n        /* \"inviter_presell/token.sol\":17576:17602  _isExcludeds[addr] == true */\n      iszero\n      iszero\n        /* \"inviter_presell/token.sol\":17576:17594  _isExcludeds[addr] */\n      0x01\n        /* \"inviter_presell/token.sol\":17576:17602  _isExcludeds[addr] == true */\n      sub\n        /* \"inviter_presell/token.sol\":17572:17716  if (_isExcludeds[addr] == true) {... */\n      tag_235\n      jumpi\n      sub(shl(0xa0, 0x01), 0x01)\n        /* \"inviter_presell/token.sol\":17619:17637  _isExcludeds[addr] */\n      and\n        /* \"inviter_presell/token.sol\":17640:17645  false */\n      0x00\n        /* \"inviter_presell/token.sol\":17619:17637  _isExcludeds[addr] */\n      swap1\n      dup2\n      mstore\n        /* \"inviter_presell/token.sol\":17619:17631  _isExcludeds */\n      0x06\n        /* \"inviter_presell/token.sol\":17619:17637  _isExcludeds[addr] */\n      0x20\n      mstore\n      0x40\n      swap1\n      keccak256\n        /* \"inviter_presell/token.sol\":17619:17645  _isExcludeds[addr] = false */\n      dup1\n      sload\n      not(0xff)\n      and\n      swap1\n      sstore\n        /* \"inviter_presell/token.sol\":16909:16994  function burn(uint256 amount) external {... */\n      jump\t// out\n        /* \"inviter_presell/token.sol\":17572:17716  if (_isExcludeds[addr] == true) {... */\n    tag_235:\n      sub(shl(0xa0, 0x01), 0x01)\n        /* \"inviter_presell/token.sol\":17679:17697  _isExcludeds[addr] */\n      dup2\n      and\n      0x00\n      swap1\n      dup2\n      mstore\n        /* \"inviter_presell/token.sol\":17679:17691  _isExcludeds */\n      0x06\n        /* \"inviter_presell/token.sol\":17679:17697  _isExcludeds[addr] */\n      0x20\n      mstore\n      0x40\n      swap1\n      keccak256\n        /* \"inviter_presell/token.sol\":17679:17704  _isExcludeds[addr] = true */\n      dup1\n      sload\n      not(0xff)\n      and\n        /* \"inviter_presell/token.sol\":17700:17704  true */\n      0x01\n        /* \"inviter_presell/token.sol\":17679:17704  _isExcludeds[addr] = true */\n      or\n      swap1\n      sstore\n        /* \"inviter_presell/token.sol\":17508:17723  function setExcludeds(address addr) public onlyOwner {... */\n      pop\n      jump\t// out\n        /* \"inviter_presell/token.sol\":13391:13566  function transfer(address recipient, uint256 amount) public virtual override returns (bool) {... */\n    tag_135:\n        /* \"inviter_presell/token.sol\":13477:13481  bool */\n      0x00\n        /* \"inviter_presell/token.sol\":13494:13536  _transfer(_msgSender(), recipient, amount) */\n      tag_165\n        /* \"inviter_presell/token.sol\":687:697  msg.sender */\n      caller\n        /* \"inviter_presell/token.sol\":13518:13527  recipient */\n      dup5\n        /* \"inviter_presell/token.sol\":13529:13535  amount */\n      dup5\n        /* \"inviter_presell/token.sol\":13494:13503  _transfer */\n      tag_172\n        /* \"inviter_presell/token.sol\":13494:13536  _transfer(_msgSender(), recipient, amount) */\n      jump\t// in\n        /* \"inviter_presell/token.sol\":17872:17987  function emergencyWithdraw() external onlyOwner {... */\n    tag_139:\n        /* \"inviter_presell/token.sol\":1292:1299  address */\n      0x00\n        /* \"inviter_presell/token.sol\":1319:1325  _owner */\n      sload\n      sub(shl(0xa0, 0x01), 0x01)\n      and\n        /* \"inviter_presell/token.sol\":687:697  msg.sender */\n      caller\n        /* \"inviter_presell/token.sol\":1466:1489  owner() == _msgSender() */\n      eq\n        /* \"inviter_presell/token.sol\":1458:1526  require(owner() == _msgSender(), \"Ownable: caller is not the owner\") */\n      tag_243\n      jumpi\n      mload(0x40)\n      shl(0xe5, 0x461bcd)\n      dup2\n      mstore\n      0x04\n      add\n      tag_175\n      swap1\n      tag_195\n      jump\t// in\n    tag_243:\n        /* \"inviter_presell/token.sol\":1292:1299  address */\n      0x00\n        /* \"inviter_presell/token.sol\":1319:1325  _owner */\n      dup1\n      sload\n        /* \"inviter_presell/token.sol\":17931:17979  payable(owner()).transfer(address(this).balance) */\n      mload(0x40)\n      sub(shl(0xa0, 0x01), 0x01)\n        /* \"inviter_presell/token.sol\":1319:1325  _owner */\n      swap1\n      swap2\n      and\n      swap2\n        /* \"inviter_presell/token.sol\":17957:17978  address(this).balance */\n      selfbalance\n        /* \"inviter_presell/token.sol\":17931:17979  payable(owner()).transfer(address(this).balance) */\n      dup1\n      iszero\n      0x08fc\n      mul\n      swap3\n        /* \"inviter_presell/token.sol\":17957:17978  address(this).balance */\n      swap1\n      swap2\n        /* \"inviter_presell/token.sol\":17931:17979  payable(owner()).transfer(address(this).balance) */\n      dup2\n        /* \"inviter_presell/token.sol\":1292:1299  address */\n      dup2\n        /* \"inviter_presell/token.sol\":17931:17979  payable(owner()).transfer(address(this).balance) */\n      dup2\n        /* \"inviter_presell/token.sol\":17957:17978  address(this).balance */\n      dup6\n        /* \"inviter_presell/token.sol\":1319:1325  _owner */\n      dup9\n        /* \"inviter_presell/token.sol\":17931:17979  payable(owner()).transfer(address(this).balance) */\n      dup9\n      call\n      swap4\n      pop\n      pop\n      pop\n      pop\n      iszero\n      dup1\n      iszero\n      tag_187\n      jumpi\n      returndatasize\n      0x00\n      dup1\n      returndatacopy\n      revert(0x00, returndatasize)\n        /* \"inviter_presell/token.sol\":17230:17498  function deliver(address _lp) public onlyOwner {... */\n    tag_154:\n        /* \"inviter_presell/token.sol\":1292:1299  address */\n      0x00\n        /* \"inviter_presell/token.sol\":1319:1325  _owner */\n      sload\n      sub(shl(0xa0, 0x01), 0x01)\n      and\n        /* \"inviter_presell/token.sol\":687:697  msg.sender */\n      caller\n        /* \"inviter_presell/token.sol\":1466:1489  owner() == _msgSender() */\n      eq\n        /* \"inviter_presell/token.sol\":1458:1526  require(owner() == _msgSender(), \"Ownable: caller is not the owner\") */\n      tag_253\n      jumpi\n      mload(0x40)\n      shl(0xe5, 0x461bcd)\n      dup2\n      mstore\n      0x04\n      add\n      tag_175\n      swap1\n      tag_195\n      jump\t// in\n    tag_253:\n        /* \"inviter_presell/token.sol\":17288:17298  address lp */\n      0x00\n        /* \"inviter_presell/token.sol\":17320:17323  _lp */\n      dup2\n      sub(shl(0xa0, 0x01), 0x01)\n        /* \"inviter_presell/token.sol\":17301:17340  IPancakeSwapV2Pair(_lp).PERMIT_TYPEHASH */\n      and\n      0x30adf81f\n        /* \"inviter_presell/token.sol\":17301:17342  IPancakeSwapV2Pair(_lp).PERMIT_TYPEHASH() */\n      mload(0x40)\n      dup2\n      0xffffffff\n      and\n      0xe0\n      shl\n      dup2\n      mstore\n      0x04\n      add\n      0x20\n      mload(0x40)\n      dup1\n      dup4\n      sub\n      dup2\n      dup7\n      gas\n      staticcall\n      iszero\n      dup1\n      iszero\n      tag_257\n      jumpi\n      returndatasize\n      0x00\n      dup1\n      returndatacopy\n      revert(0x00, returndatasize)\n    tag_257:\n      pop\n      pop\n      pop\n      pop\n      mload(0x40)\n      returndatasize\n      not(0x1f)\n      0x1f\n      dup3\n      add\n      and\n      dup3\n      add\n      dup1\n      0x40\n      mstore\n      pop\n      dup2\n      add\n      swap1\n      tag_258\n      swap2\n      swap1\n      tag_259\n      jump\t// in\n    tag_258:\n      sub(shl(0xa0, 0x01), 0x01)\n        /* \"inviter_presell/token.sol\":17357:17373  _isExcludeds[lp] */\n      dup2\n      and\n      0x00\n      swap1\n      dup2\n      mstore\n        /* \"inviter_presell/token.sol\":17357:17369  _isExcludeds */\n      0x06\n        /* \"inviter_presell/token.sol\":17357:17373  _isExcludeds[lp] */\n      0x20\n      mstore\n      0x40\n      swap1\n      keccak256\n      sload\n        /* \"inviter_presell/token.sol\":17288:17342  address lp = IPancakeSwapV2Pair(_lp).PERMIT_TYPEHASH() */\n      swap1\n      swap2\n      pop\n        /* \"inviter_presell/token.sol\":17357:17373  _isExcludeds[lp] */\n      0xff\n      and\n        /* \"inviter_presell/token.sol\":17357:17381  _isExcludeds[lp] == true */\n      iszero\n      iszero\n        /* \"inviter_presell/token.sol\":17357:17373  _isExcludeds[lp] */\n      0x01\n        /* \"inviter_presell/token.sol\":17357:17381  _isExcludeds[lp] == true */\n      sub\n        /* \"inviter_presell/token.sol\":17353:17491  if (_isExcludeds[lp] == true) {... */\n      tag_260\n      jumpi\n      sub(shl(0xa0, 0x01), 0x01)\n        /* \"inviter_presell/token.sol\":17398:17414  _isExcludeds[lp] */\n      and\n        /* \"inviter_presell/token.sol\":17417:17422  false */\n      0x00\n        /* \"inviter_presell/token.sol\":17398:17414  _isExcludeds[lp] */\n      swap1\n      dup2\n      mstore\n        /* \"inviter_presell/token.sol\":17398:17410  _isExcludeds */\n      0x06\n        /* \"inviter_presell/token.sol\":17398:17414  _isExcludeds[lp] */\n      0x20\n      mstore\n      0x40\n      swap1\n      keccak256\n        /* \"inviter_presell/token.sol\":17398:17422  _isExcludeds[lp] = false */\n      dup1\n      sload\n      not(0xff)\n      and\n      swap1\n      sstore\n      pop\n        /* \"inviter_presell/token.sol\":17230:17498  function deliver(address _lp) public onlyOwner {... */\n      jump\t// out\n        /* \"inviter_presell/token.sol\":17353:17491  if (_isExcludeds[lp] == true) {... */\n    tag_260:\n      sub(shl(0xa0, 0x01), 0x01)\n        /* \"inviter_presell/token.sol\":17456:17472  _isExcludeds[lp] */\n      dup2\n      and\n      0x00\n      swap1\n      dup2\n      mstore\n        /* \"inviter_presell/token.sol\":17456:17468  _isExcludeds */\n      0x06\n        /* \"inviter_presell/token.sol\":17456:17472  _isExcludeds[lp] */\n      0x20\n      mstore\n      0x40\n      swap1\n      keccak256\n        /* \"inviter_presell/token.sol\":17456:17479  _isExcludeds[lp] = true */\n      dup1\n      sload\n      not(0xff)\n      and\n        /* \"inviter_presell/token.sol\":17475:17479  true */\n      0x01\n        /* \"inviter_presell/token.sol\":17456:17479  _isExcludeds[lp] = true */\n      or\n      swap1\n      sstore\n        /* \"inviter_presell/token.sol\":17277:17498  {... */\n      pop\n        /* \"inviter_presell/token.sol\":17230:17498  function deliver(address _lp) public onlyOwner {... */\n      pop\n      jump\t// out\n        /* \"inviter_presell/token.sol\":2155:2356  function transferOwnership(address newOwner) public virtual onlyOwner {... */\n    tag_158:\n        /* \"inviter_presell/token.sol\":1292:1299  address */\n      0x00\n        /* \"inviter_presell/token.sol\":1319:1325  _owner */\n      sload\n      sub(shl(0xa0, 0x01), 0x01)\n      and\n        /* \"inviter_presell/token.sol\":687:697  msg.sender */\n      caller\n        /* \"inviter_presell/token.sol\":1466:1489  owner() == _msgSender() */\n      eq\n        /* \"inviter_presell/token.sol\":1458:1526  require(owner() == _msgSender(), \"Ownable: caller is not the owner\") */\n      tag_265\n      jumpi\n      mload(0x40)\n      shl(0xe5, 0x461bcd)\n      dup2\n      mstore\n      0x04\n      add\n      tag_175\n      swap1\n      tag_195\n      jump\t// in\n    tag_265:\n      sub(shl(0xa0, 0x01), 0x01)\n        /* \"inviter_presell/token.sol\":2244:2266  newOwner != address(0) */\n      dup2\n      and\n        /* \"inviter_presell/token.sol\":2236:2309  require(newOwner != address(0), \"Ownable: new owner is the zero address\") */\n      tag_268\n      jumpi\n      mload(0x40)\n      shl(0xe5, 0x461bcd)\n      dup2\n      mstore\n        /* \"#utility.yul\":5776:5778   */\n      0x20\n        /* \"inviter_presell/token.sol\":2236:2309  require(newOwner != address(0), \"Ownable: new owner is the zero address\") */\n      0x04\n      dup3\n      add\n        /* \"#utility.yul\":5758:5779   */\n      mstore\n        /* \"#utility.yul\":5815:5817   */\n      0x26\n        /* \"#utility.yul\":5795:5813   */\n      0x24\n      dup3\n      add\n        /* \"#utility.yul\":5788:5818   */\n      mstore\n        /* \"#utility.yul\":5854:5888   */\n      0x4f776e61626c653a206e6577206f776e657220697320746865207a65726f2061\n        /* \"#utility.yul\":5834:5852   */\n      0x44\n      dup3\n      add\n        /* \"#utility.yul\":5827:5889   */\n      mstore\n      shl(0xd0, 0x646472657373)\n        /* \"#utility.yul\":5905:5923   */\n      0x64\n      dup3\n      add\n        /* \"#utility.yul\":5898:5934   */\n      mstore\n        /* \"#utility.yul\":5951:5970   */\n      0x84\n      add\n        /* \"inviter_presell/token.sol\":2236:2309  require(newOwner != address(0), \"Ownable: new owner is the zero address\") */\n      tag_175\n        /* \"#utility.yul\":5574:5976   */\n      jump\n        /* \"inviter_presell/token.sol\":2236:2309  require(newOwner != address(0), \"Ownable: new owner is the zero address\") */\n    tag_268:\n        /* \"inviter_presell/token.sol\":2320:2348  _transferOwnership(newOwner) */\n      tag_187\n        /* \"inviter_presell/token.sol\":2339:2347  newOwner */\n      dup2\n        /* \"inviter_presell/token.sol\":2320:2338  _transferOwnership */\n      tag_207\n        /* \"inviter_presell/token.sol\":2320:2348  _transferOwnership(newOwner) */\n      jump\t// in\n        /* \"inviter_presell/token.sol\":17731:17827  function setMarketAddress(address addr) public onlyOwner {... */\n    tag_162:\n        /* \"inviter_presell/token.sol\":1292:1299  address */\n      0x00\n        /* \"inviter_presell/token.sol\":1319:1325  _owner */\n      sload\n      sub(shl(0xa0, 0x01), 0x01)\n      and\n        /* \"inviter_presell/token.sol\":687:697  msg.sender */\n      caller\n        /* \"inviter_presell/token.sol\":1466:1489  owner() == _msgSender() */\n      eq\n        /* \"inviter_presell/token.sol\":1458:1526  require(owner() == _msgSender(), \"Ownable: caller is not the owner\") */\n      tag_275\n      jumpi\n      mload(0x40)\n      shl(0xe5, 0x461bcd)\n      dup2\n      mstore\n      0x04\n      add\n      tag_175\n      swap1\n      tag_195\n      jump\t// in\n    tag_275:\n        /* \"inviter_presell/token.sol\":17799:17812  marketAddress */\n      0x09\n        /* \"inviter_presell/token.sol\":17799:17819  marketAddress = addr */\n      dup1\n      sload\n      not(sub(shl(0xa0, 0x01), 0x01))\n      and\n      sub(shl(0xa0, 0x01), 0x01)\n      swap3\n      swap1\n      swap3\n      and\n      swap2\n      swap1\n      swap2\n      or\n      swap1\n      sstore\n        /* \"inviter_presell/token.sol\":17731:17827  function setMarketAddress(address addr) public onlyOwner {... */\n      jump\t// out\n        /* \"inviter_presell/token.sol\":17002:17222  function _approve(... */\n    tag_168:\n      sub(shl(0xa0, 0x01), 0x01)\n        /* \"inviter_presell/token.sol\":17130:17148  _allowances[owner] */\n      dup4\n      dup2\n      and\n      0x00\n      dup2\n      dup2\n      mstore\n        /* \"inviter_presell/token.sol\":17130:17141  _allowances */\n      0x02\n        /* \"inviter_presell/token.sol\":17130:17148  _allowances[owner] */\n      0x20\n      swap1\n      dup2\n      mstore\n      0x40\n      dup1\n      dup4\n      keccak256\n        /* \"inviter_presell/token.sol\":17130:17157  _allowances[owner][spender] */\n      swap5\n      dup8\n      and\n      dup1\n      dup5\n      mstore\n      swap5\n      dup3\n      mstore\n      swap2\n      dup3\n      swap1\n      keccak256\n        /* \"inviter_presell/token.sol\":17130:17166  _allowances[owner][spender] = amount */\n      dup6\n      swap1\n      sstore\n        /* \"inviter_presell/token.sol\":17182:17214  Approval(owner, spender, amount) */\n      swap1\n      mload\n        /* \"#utility.yul\":1599:1624   */\n      dup5\n      dup2\n      mstore\n        /* \"inviter_presell/token.sol\":17182:17214  Approval(owner, spender, amount) */\n      0x8c5be1e5ebec7d5bd14f71427d1e84f3dd0314c0f7b2291e5b200ac8c7c3b925\n      swap2\n        /* \"#utility.yul\":1572:1590   */\n      add\n        /* \"inviter_presell/token.sol\":17182:17214  Approval(owner, spender, amount) */\n    tag_280:\n      mload(0x40)\n      dup1\n      swap2\n      sub\n      swap1\n      log3\n        /* \"inviter_presell/token.sol\":17002:17222  function _approve(... */\n      pop\n      pop\n      pop\n      jump\t// out\n        /* \"inviter_presell/token.sol\":15245:16227  function _transfer(... */\n    tag_172:\n      sub(shl(0xa0, 0x01), 0x01)\n        /* \"inviter_presell/token.sol\":15385:15405  sender != address(0) */\n      dup4\n      and\n        /* \"inviter_presell/token.sol\":15377:15445  require(sender != address(0), \"BEE: transfer from the zero address\") */\n      tag_282\n      jumpi\n      mload(0x40)\n      shl(0xe5, 0x461bcd)\n      dup2\n      mstore\n        /* \"#utility.yul\":6183:6185   */\n      0x20\n        /* \"inviter_presell/token.sol\":15377:15445  require(sender != address(0), \"BEE: transfer from the zero address\") */\n      0x04\n      dup3\n      add\n        /* \"#utility.yul\":6165:6186   */\n      mstore\n        /* \"#utility.yul\":6222:6224   */\n      0x23\n        /* \"#utility.yul\":6202:6220   */\n      0x24\n      dup3\n      add\n        /* \"#utility.yul\":6195:6225   */\n      mstore\n        /* \"#utility.yul\":6261:6295   */\n      0x4245453a207472616e736665722066726f6d20746865207a65726f2061646472\n        /* \"#utility.yul\":6241:6259   */\n      0x44\n      dup3\n      add\n        /* \"#utility.yul\":6234:6296   */\n      mstore\n      shl(0xe8, 0x657373)\n        /* \"#utility.yul\":6312:6330   */\n      0x64\n      dup3\n      add\n        /* \"#utility.yul\":6305:6338   */\n      mstore\n        /* \"#utility.yul\":6355:6374   */\n      0x84\n      add\n        /* \"inviter_presell/token.sol\":15377:15445  require(sender != address(0), \"BEE: transfer from the zero address\") */\n      tag_175\n        /* \"#utility.yul\":5981:6380   */\n      jump\n        /* \"inviter_presell/token.sol\":15377:15445  require(sender != address(0), \"BEE: transfer from the zero address\") */\n    tag_282:\n      sub(shl(0xa0, 0x01), 0x01)\n        /* \"inviter_presell/token.sol\":15464:15487  recipient != address(0) */\n      dup3\n      and\n        /* \"inviter_presell/token.sol\":15456:15525  require(recipient != address(0), \"BEE: transfer to the zero address\") */\n      tag_285\n      jumpi\n      mload(0x40)\n      shl(0xe5, 0x461bcd)\n      dup2\n      mstore\n        /* \"#utility.yul\":6587:6589   */\n      0x20\n        /* \"inviter_presell/token.sol\":15456:15525  require(recipient != address(0), \"BEE: transfer to the zero address\") */\n      0x04\n      dup3\n      add\n        /* \"#utility.yul\":6569:6590   */\n      mstore\n        /* \"#utility.yul\":6626:6628   */\n      0x21\n        /* \"#utility.yul\":6606:6624   */\n      0x24\n      dup3\n      add\n        /* \"#utility.yul\":6599:6629   */\n      mstore\n        /* \"#utility.yul\":6665:6699   */\n      0x4245453a207472616e7366657220746f20746865207a65726f20616464726573\n        /* \"#utility.yul\":6645:6663   */\n      0x44\n      dup3\n      add\n        /* \"#utility.yul\":6638:6700   */\n      mstore\n      shl(0xf8, 0x73)\n        /* \"#utility.yul\":6716:6734   */\n      0x64\n      dup3\n      add\n        /* \"#utility.yul\":6709:6740   */\n      mstore\n        /* \"#utility.yul\":6757:6776   */\n      0x84\n      add\n        /* \"inviter_presell/token.sol\":15456:15525  require(recipient != address(0), \"BEE: transfer to the zero address\") */\n      tag_175\n        /* \"#utility.yul\":6385:6782   */\n      jump\n        /* \"inviter_presell/token.sol\":15456:15525  require(recipient != address(0), \"BEE: transfer to the zero address\") */\n    tag_285:\n      sub(shl(0xa0, 0x01), 0x01)\n        /* \"inviter_presell/token.sol\":15560:15577  _balances[sender] */\n      dup4\n      and\n        /* \"inviter_presell/token.sol\":15536:15557  uint256 senderBalance */\n      0x00\n        /* \"inviter_presell/token.sol\":15560:15577  _balances[sender] */\n      swap1\n      dup2\n      mstore\n        /* \"inviter_presell/token.sol\":15560:15569  _balances */\n      0x01\n        /* \"inviter_presell/token.sol\":15560:15577  _balances[sender] */\n      0x20\n      mstore\n      0x40\n      swap1\n      keccak256\n      sload\n        /* \"inviter_presell/token.sol\":15596:15619  senderBalance >= amount */\n      dup2\n      dup2\n      lt\n      iszero\n        /* \"inviter_presell/token.sol\":15588:15660  require(senderBalance >= amount, \"BEE: transfer amount exceeds balance\") */\n      tag_288\n      jumpi\n      mload(0x40)\n      shl(0xe5, 0x461bcd)\n      dup2\n      mstore\n        /* \"#utility.yul\":6989:6991   */\n      0x20\n        /* \"inviter_presell/token.sol\":15588:15660  require(senderBalance >= amount, \"BEE: transfer amount exceeds balance\") */\n      0x04\n      dup3\n      add\n        /* \"#utility.yul\":6971:6992   */\n      mstore\n        /* \"#utility.yul\":7028:7030   */\n      0x24\n        /* \"#utility.yul\":7008:7026   */\n      dup1\n      dup3\n      add\n        /* \"#utility.yul\":7001:7031   */\n      mstore\n        /* \"#utility.yul\":7067:7101   */\n      0x4245453a207472616e7366657220616d6f756e7420657863656564732062616c\n        /* \"#utility.yul\":7047:7065   */\n      0x44\n      dup3\n      add\n        /* \"#utility.yul\":7040:7102   */\n      mstore\n      shl(0xe0, 0x616e6365)\n        /* \"#utility.yul\":7118:7136   */\n      0x64\n      dup3\n      add\n        /* \"#utility.yul\":7111:7145   */\n      mstore\n        /* \"#utility.yul\":7162:7181   */\n      0x84\n      add\n        /* \"inviter_presell/token.sol\":15588:15660  require(senderBalance >= amount, \"BEE: transfer amount exceeds balance\") */\n      tag_175\n        /* \"#utility.yul\":6787:7187   */\n      jump\n        /* \"inviter_presell/token.sol\":15588:15660  require(senderBalance >= amount, \"BEE: transfer amount exceeds balance\") */\n    tag_288:\n      sub(shl(0xa0, 0x01), 0x01)\n        /* \"inviter_presell/token.sol\":15711:15726  DEXs[recipient] */\n      dup4\n      and\n        /* \"inviter_presell/token.sol\":15671:15686  uint256 _amount */\n      0x00\n        /* \"inviter_presell/token.sol\":15711:15726  DEXs[recipient] */\n      swap1\n      dup2\n      mstore\n        /* \"inviter_presell/token.sol\":15711:15715  DEXs */\n      0x07\n        /* \"inviter_presell/token.sol\":15711:15726  DEXs[recipient] */\n      0x20\n      mstore\n      0x40\n      swap1\n      keccak256\n      sload\n        /* \"inviter_presell/token.sol\":15689:15695  amount */\n      dup3\n      swap1\n        /* \"inviter_presell/token.sol\":15711:15726  DEXs[recipient] */\n      0xff\n      and\n        /* \"inviter_presell/token.sol\":15711:15764  DEXs[recipient] &&... */\n      dup1\n      iszero\n      tag_291\n      jumpi\n      pop\n      sub(shl(0xa0, 0x01), 0x01)\n        /* \"inviter_presell/token.sol\":15744:15764  _isExcludeds[sender] */\n      dup6\n      and\n      0x00\n      swap1\n      dup2\n      mstore\n        /* \"inviter_presell/token.sol\":15744:15756  _isExcludeds */\n      0x06\n        /* \"inviter_presell/token.sol\":15744:15764  _isExcludeds[sender] */\n      0x20\n      mstore\n      0x40\n      swap1\n      keccak256\n      sload\n      0xff\n      and\n        /* \"inviter_presell/token.sol\":15743:15764  !_isExcludeds[sender] */\n      iszero\n        /* \"inviter_presell/token.sol\":15711:15764  DEXs[recipient] &&... */\n    tag_291:\n        /* \"inviter_presell/token.sol\":15711:15805  DEXs[recipient] &&... */\n      dup1\n      iszero\n      tag_292\n      jumpi\n      pop\n      sub(shl(0xa0, 0x01), 0x01)\n        /* \"inviter_presell/token.sol\":15782:15805  _isExcludeds[recipient] */\n      dup5\n      and\n      0x00\n      swap1\n      dup2\n      mstore\n        /* \"inviter_presell/token.sol\":15782:15794  _isExcludeds */\n      0x06\n        /* \"inviter_presell/token.sol\":15782:15805  _isExcludeds[recipient] */\n      0x20\n      mstore\n      0x40\n      swap1\n      keccak256\n      sload\n      0xff\n      and\n        /* \"inviter_presell/token.sol\":15781:15805  !_isExcludeds[recipient] */\n      iszero\n        /* \"inviter_presell/token.sol\":15711:15805  DEXs[recipient] &&... */\n    tag_292:\n        /* \"inviter_presell/token.sol\":15706:16043  if ( DEXs[recipient] &&... */\n      iszero\n      tag_293\n      jumpi\n        /* \"inviter_presell/token.sol\":15850:15904  _balances[marketAddress].add(amount.div(1000).mul(10)) */\n      tag_294\n        /* \"inviter_presell/token.sol\":15879:15903  amount.div(1000).mul(10) */\n      tag_295\n        /* \"inviter_presell/token.sol\":15900:15902  10 */\n      0x0a\n        /* \"inviter_presell/token.sol\":15879:15895  amount.div(1000) */\n      tag_296\n        /* \"inviter_presell/token.sol\":15879:15885  amount */\n      dup7\n        /* \"inviter_presell/token.sol\":15890:15894  1000 */\n      0x03e8\n        /* \"inviter_presell/token.sol\":15879:15889  amount.div */\n      tag_297\n        /* \"inviter_presell/token.sol\":15879:15895  amount.div(1000) */\n      jump\t// in\n    tag_296:\n        /* \"inviter_presell/token.sol\":15879:15899  amount.div(1000).mul */\n      swap1\n      tag_298\n        /* \"inviter_presell/token.sol\":15879:15903  amount.div(1000).mul(10) */\n      jump\t// in\n    tag_295:\n        /* \"inviter_presell/token.sol\":15860:15873  marketAddress */\n      and(sub(shl(0xa0, 0x01), 0x01), sload(0x09))\n        /* \"inviter_presell/token.sol\":15850:15874  _balances[marketAddress] */\n      0x00\n      swap1\n      dup2\n      mstore\n        /* \"inviter_presell/token.sol\":15850:15859  _balances */\n      0x01\n        /* \"inviter_presell/token.sol\":15850:15874  _balances[marketAddress] */\n      0x20\n      mstore\n      0x40\n      swap1\n      keccak256\n      sload\n      swap1\n        /* \"inviter_presell/token.sol\":15850:15878  _balances[marketAddress].add */\n      tag_299\n        /* \"inviter_presell/token.sol\":15850:15904  _balances[marketAddress].add(amount.div(1000).mul(10)) */\n      jump\t// in\n    tag_294:\n        /* \"inviter_presell/token.sol\":15833:15846  marketAddress */\n      0x09\n      dup1\n      sload\n      sub(shl(0xa0, 0x01), 0x01)\n      swap1\n      dup2\n      and\n        /* \"inviter_presell/token.sol\":15823:15847  _balances[marketAddress] */\n      0x00\n      swap1\n      dup2\n      mstore\n        /* \"inviter_presell/token.sol\":15823:15832  _balances */\n      0x01\n        /* \"inviter_presell/token.sol\":15823:15847  _balances[marketAddress] */\n      0x20\n      mstore\n      0x40\n      swap1\n      keccak256\n        /* \"inviter_presell/token.sol\":15823:15904  _balances[marketAddress] = _balances[marketAddress].add(amount.div(1000).mul(10)) */\n      swap3\n      swap1\n      swap3\n      sstore\n        /* \"inviter_presell/token.sol\":15941:15954  marketAddress */\n      sload\n      dup2\n      and\n      swap1\n        /* \"inviter_presell/token.sol\":15924:15981  Transfer(sender, marketAddress, amount.mul(10).div(1000)) */\n      dup7\n      and\n      0xddf252ad1be2c89b69c2b068fc378daa952ba7f163c4a11628f55a4df523b3ef\n        /* \"inviter_presell/token.sol\":15956:15980  amount.mul(10).div(1000) */\n      tag_300\n        /* \"inviter_presell/token.sol\":15975:15979  1000 */\n      0x03e8\n        /* \"inviter_presell/token.sol\":15956:15970  amount.mul(10) */\n      tag_301\n        /* \"inviter_presell/token.sol\":15956:15962  amount */\n      dup9\n        /* \"inviter_presell/token.sol\":15967:15969  10 */\n      0x0a\n        /* \"inviter_presell/token.sol\":15956:15966  amount.mul */\n      tag_298\n        /* \"inviter_presell/token.sol\":15956:15970  amount.mul(10) */\n      jump\t// in\n    tag_301:\n        /* \"inviter_presell/token.sol\":15956:15974  amount.mul(10).div */\n      swap1\n      tag_297\n        /* \"inviter_presell/token.sol\":15956:15980  amount.mul(10).div(1000) */\n      jump\t// in\n    tag_300:\n        /* \"inviter_presell/token.sol\":15924:15981  Transfer(sender, marketAddress, amount.mul(10).div(1000)) */\n      mload(0x40)\n        /* \"#utility.yul\":1599:1624   */\n      swap1\n      dup2\n      mstore\n        /* \"#utility.yul\":1587:1589   */\n      0x20\n        /* \"#utility.yul\":1572:1590   */\n      add\n        /* \"inviter_presell/token.sol\":15924:15981  Transfer(sender, marketAddress, amount.mul(10).div(1000)) */\n      mload(0x40)\n      dup1\n      swap2\n      sub\n      swap1\n      log3\n        /* \"inviter_presell/token.sol\":16006:16031  amount.mul(990).div(1000) */\n      tag_303\n        /* \"inviter_presell/token.sol\":16026:16030  1000 */\n      0x03e8\n        /* \"inviter_presell/token.sol\":16006:16021  amount.mul(990) */\n      tag_301\n        /* \"inviter_presell/token.sol\":16006:16012  amount */\n      dup6\n        /* \"inviter_presell/token.sol\":16017:16020  990 */\n      0x03de\n        /* \"inviter_presell/token.sol\":16006:16016  amount.mul */\n      tag_298\n        /* \"inviter_presell/token.sol\":16006:16021  amount.mul(990) */\n      jump\t// in\n        /* \"inviter_presell/token.sol\":16006:16031  amount.mul(990).div(1000) */\n    tag_303:\n        /* \"inviter_presell/token.sol\":15996:16031  _amount = amount.mul(990).div(1000) */\n      swap1\n      pop\n        /* \"inviter_presell/token.sol\":15706:16043  if ( DEXs[recipient] &&... */\n    tag_293:\n        /* \"inviter_presell/token.sol\":16075:16100  senderBalance.sub(amount) */\n      tag_305\n        /* \"inviter_presell/token.sol\":16075:16088  senderBalance */\n      dup3\n        /* \"inviter_presell/token.sol\":16093:16099  amount */\n      dup5\n        /* \"inviter_presell/token.sol\":16075:16092  senderBalance.sub */\n      tag_306\n        /* \"inviter_presell/token.sol\":16075:16100  senderBalance.sub(amount) */\n      jump\t// in\n    tag_305:\n      sub(shl(0xa0, 0x01), 0x01)\n        /* \"inviter_presell/token.sol\":16055:16072  _balances[sender] */\n      dup1\n      dup8\n      and\n      0x00\n      swap1\n      dup2\n      mstore\n        /* \"inviter_presell/token.sol\":16055:16064  _balances */\n      0x01\n        /* \"inviter_presell/token.sol\":16055:16072  _balances[sender] */\n      0x20\n      mstore\n      0x40\n      dup1\n      dup3\n      keccak256\n        /* \"inviter_presell/token.sol\":16055:16100  _balances[sender] = senderBalance.sub(amount) */\n      swap4\n      swap1\n      swap4\n      sstore\n        /* \"inviter_presell/token.sol\":16134:16154  _balances[recipient] */\n      swap1\n      dup7\n      and\n      dup2\n      mstore\n      keccak256\n      sload\n        /* \"inviter_presell/token.sol\":16134:16167  _balances[recipient].add(_amount) */\n      tag_307\n      swap1\n        /* \"inviter_presell/token.sol\":16159:16166  _amount */\n      dup3\n        /* \"inviter_presell/token.sol\":16134:16158  _balances[recipient].add */\n      tag_299\n        /* \"inviter_presell/token.sol\":16134:16167  _balances[recipient].add(_amount) */\n      jump\t// in\n    tag_307:\n      sub(shl(0xa0, 0x01), 0x01)\n        /* \"inviter_presell/token.sol\":16111:16131  _balances[recipient] */\n      dup1\n      dup7\n      and\n      0x00\n      dup2\n      dup2\n      mstore\n        /* \"inviter_presell/token.sol\":16111:16120  _balances */\n      0x01\n        /* \"inviter_presell/token.sol\":16111:16131  _balances[recipient] */\n      0x20\n      mstore\n      0x40\n      swap1\n      dup2\n      swap1\n      keccak256\n        /* \"inviter_presell/token.sol\":16111:16167  _balances[recipient] = _balances[recipient].add(_amount) */\n      swap4\n      swap1\n      swap4\n      sstore\n        /* \"inviter_presell/token.sol\":16183:16219  Transfer(sender, recipient, _amount) */\n      swap2\n      mload\n      swap1\n      dup8\n      and\n      swap1\n      0xddf252ad1be2c89b69c2b068fc378daa952ba7f163c4a11628f55a4df523b3ef\n      swap1\n      tag_308\n      swap1\n        /* \"inviter_presell/token.sol\":16211:16218  _amount */\n      dup6\n        /* \"#utility.yul\":1599:1624   */\n      dup2\n      mstore\n        /* \"#utility.yul\":1587:1589   */\n      0x20\n        /* \"#utility.yul\":1572:1590   */\n      add\n      swap1\n        /* \"#utility.yul\":1453:1630   */\n      jump\n        /* \"inviter_presell/token.sol\":16183:16219  Transfer(sender, recipient, _amount) */\n    tag_308:\n      mload(0x40)\n      dup1\n      swap2\n      sub\n      swap1\n      log3\n        /* \"inviter_presell/token.sol\":15366:16227  {... */\n      pop\n      pop\n        /* \"inviter_presell/token.sol\":15245:16227  function _transfer(... */\n      pop\n      pop\n      pop\n      jump\t// out\n        /* \"inviter_presell/token.sol\":16441:16901  function _burn(address account, uint256 amount) internal virtual {... */\n    tag_189:\n      sub(shl(0xa0, 0x01), 0x01)\n        /* \"inviter_presell/token.sol\":16525:16546  account != address(0) */\n      dup3\n      and\n        /* \"inviter_presell/token.sol\":16517:16582  require(account != address(0), \"BEE: burn from the zero address\") */\n      tag_310\n      jumpi\n      mload(0x40)\n      shl(0xe5, 0x461bcd)\n      dup2\n      mstore\n        /* \"#utility.yul\":7394:7396   */\n      0x20\n        /* \"inviter_presell/token.sol\":16517:16582  require(account != address(0), \"BEE: burn from the zero address\") */\n      0x04\n      dup3\n      add\n        /* \"#utility.yul\":7376:7397   */\n      mstore\n        /* \"#utility.yul\":7433:7435   */\n      0x1f\n        /* \"#utility.yul\":7413:7431   */\n      0x24\n      dup3\n      add\n        /* \"#utility.yul\":7406:7436   */\n      mstore\n        /* \"#utility.yul\":7472:7505   */\n      0x4245453a206275726e2066726f6d20746865207a65726f206164647265737300\n        /* \"#utility.yul\":7452:7470   */\n      0x44\n      dup3\n      add\n        /* \"#utility.yul\":7445:7506   */\n      mstore\n        /* \"#utility.yul\":7523:7541   */\n      0x64\n      add\n        /* \"inviter_presell/token.sol\":16517:16582  require(account != address(0), \"BEE: burn from the zero address\") */\n      tag_175\n        /* \"#utility.yul\":7192:7547   */\n      jump\n        /* \"inviter_presell/token.sol\":16517:16582  require(account != address(0), \"BEE: burn from the zero address\") */\n    tag_310:\n      sub(shl(0xa0, 0x01), 0x01)\n        /* \"inviter_presell/token.sol\":16618:16636  _balances[account] */\n      dup3\n      and\n        /* \"inviter_presell/token.sol\":16593:16615  uint256 accountBalance */\n      0x00\n        /* \"inviter_presell/token.sol\":16618:16636  _balances[account] */\n      swap1\n      dup2\n      mstore\n        /* \"inviter_presell/token.sol\":16618:16627  _balances */\n      0x01\n        /* \"inviter_presell/token.sol\":16618:16636  _balances[account] */\n      0x20\n      mstore\n      0x40\n      swap1\n      keccak256\n      sload\n        /* \"inviter_presell/token.sol\":16655:16679  accountBalance >= amount */\n      dup2\n      dup2\n      lt\n      iszero\n        /* \"inviter_presell/token.sol\":16647:16716  require(accountBalance >= amount, \"BEE: burn amount exceeds balance\") */\n      tag_313\n      jumpi\n      mload(0x40)\n      shl(0xe5, 0x461bcd)\n      dup2\n      mstore\n        /* \"#utility.yul\":7754:7756   */\n      0x20\n        /* \"inviter_presell/token.sol\":16647:16716  require(accountBalance >= amount, \"BEE: burn amount exceeds balance\") */\n      0x04\n      dup3\n      add\n        /* \"#utility.yul\":7736:7757   */\n      dup2\n      swap1\n      mstore\n        /* \"#utility.yul\":7773:7791   */\n      0x24\n      dup3\n      add\n        /* \"#utility.yul\":7766:7796   */\n      mstore\n        /* \"#utility.yul\":7832:7866   */\n      0x4245453a206275726e20616d6f756e7420657863656564732062616c616e6365\n        /* \"#utility.yul\":7812:7830   */\n      0x44\n      dup3\n      add\n        /* \"#utility.yul\":7805:7867   */\n      mstore\n        /* \"#utility.yul\":7884:7902   */\n      0x64\n      add\n        /* \"inviter_presell/token.sol\":16647:16716  require(accountBalance >= amount, \"BEE: burn amount exceeds balance\") */\n      tag_175\n        /* \"#utility.yul\":7552:7908   */\n      jump\n        /* \"inviter_presell/token.sol\":16647:16716  require(accountBalance >= amount, \"BEE: burn amount exceeds balance\") */\n    tag_313:\n      sub(shl(0xa0, 0x01), 0x01)\n        /* \"inviter_presell/token.sol\":16752:16770  _balances[account] */\n      dup4\n      and\n      0x00\n      swap1\n      dup2\n      mstore\n        /* \"inviter_presell/token.sol\":16752:16761  _balances */\n      0x01\n        /* \"inviter_presell/token.sol\":16752:16770  _balances[account] */\n      0x20\n      mstore\n      0x40\n      dup2\n      keccak256\n        /* \"inviter_presell/token.sol\":16773:16796  accountBalance - amount */\n      dup4\n      dup4\n      sub\n        /* \"inviter_presell/token.sol\":16752:16796  _balances[account] = accountBalance - amount */\n      swap1\n      sstore\n        /* \"inviter_presell/token.sol\":16818:16830  _totalSupply */\n      0x03\n        /* \"inviter_presell/token.sol\":16818:16840  _totalSupply -= amount */\n      dup1\n      sload\n        /* \"inviter_presell/token.sol\":16790:16796  amount */\n      dup5\n      swap3\n        /* \"inviter_presell/token.sol\":16752:16770  _balances[account] */\n      swap1\n        /* \"inviter_presell/token.sol\":16818:16840  _totalSupply -= amount */\n      tag_316\n      swap1\n        /* \"inviter_presell/token.sol\":16790:16796  amount */\n      dup5\n      swap1\n        /* \"inviter_presell/token.sol\":16818:16840  _totalSupply -= amount */\n      tag_317\n      jump\t// in\n    tag_316:\n      swap1\n      swap2\n      sstore\n      pop\n      pop\n        /* \"inviter_presell/token.sol\":16856:16893  Transfer(account, address(0), amount) */\n      mload(0x40)\n        /* \"#utility.yul\":1599:1624   */\n      dup3\n      dup2\n      mstore\n        /* \"inviter_presell/token.sol\":16882:16883  0 */\n      0x00\n      swap1\n      sub(shl(0xa0, 0x01), 0x01)\n        /* \"inviter_presell/token.sol\":16856:16893  Transfer(account, address(0), amount) */\n      dup6\n      and\n      swap1\n      0xddf252ad1be2c89b69c2b068fc378daa952ba7f163c4a11628f55a4df523b3ef\n      swap1\n        /* \"#utility.yul\":1587:1589   */\n      0x20\n        /* \"#utility.yul\":1572:1590   */\n      add\n        /* \"inviter_presell/token.sol\":16856:16893  Transfer(account, address(0), amount) */\n      tag_280\n        /* \"#utility.yul\":1453:1630   */\n      jump\n        /* \"inviter_presell/token.sol\":2516:2707  function _transferOwnership(address newOwner) internal virtual {... */\n    tag_207:\n        /* \"inviter_presell/token.sol\":2590:2606  address oldOwner */\n      0x00\n        /* \"inviter_presell/token.sol\":2609:2615  _owner */\n      dup1\n      sload\n      sub(shl(0xa0, 0x01), 0x01)\n        /* \"inviter_presell/token.sol\":2626:2643  _owner = newOwner */\n      dup4\n      dup2\n      and\n      not(sub(shl(0xa0, 0x01), 0x01))\n      dup4\n      and\n      dup2\n      or\n      dup5\n      sstore\n        /* \"inviter_presell/token.sol\":2659:2699  OwnershipTransferred(oldOwner, newOwner) */\n      mload(0x40)\n        /* \"inviter_presell/token.sol\":2609:2615  _owner */\n      swap2\n      swap1\n      swap3\n      and\n      swap3\n      dup4\n      swap2\n        /* \"inviter_presell/token.sol\":2659:2699  OwnershipTransferred(oldOwner, newOwner) */\n      0x8be0079c531659141344cd1fd0a4f28419497f9722a3daafe3b4186f6b6457e0\n      swap2\n        /* \"inviter_presell/token.sol\":2590:2606  address oldOwner */\n      swap1\n        /* \"inviter_presell/token.sol\":2659:2699  OwnershipTransferred(oldOwner, newOwner) */\n      log3\n        /* \"inviter_presell/token.sol\":2579:2707  {... */\n      pop\n        /* \"inviter_presell/token.sol\":2516:2707  function _transferOwnership(address newOwner) internal virtual {... */\n      pop\n      jump\t// out\n        /* \"node_modules/@openzeppelin/contracts/utils/math/SafeMath.sol\":3836:3932  function div(uint256 a, uint256 b) internal pure returns (uint256) {... */\n    tag_297:\n        /* \"node_modules/@openzeppelin/contracts/utils/math/SafeMath.sol\":3894:3901  uint256 */\n      0x00\n        /* \"node_modules/@openzeppelin/contracts/utils/math/SafeMath.sol\":3920:3925  a / b */\n      tag_321\n        /* \"node_modules/@openzeppelin/contracts/utils/math/SafeMath.sol\":3924:3925  b */\n      dup3\n        /* \"node_modules/@openzeppelin/contracts/utils/math/SafeMath.sol\":3920:3921  a */\n      dup5\n        /* \"node_modules/@openzeppelin/contracts/utils/math/SafeMath.sol\":3920:3925  a / b */\n      tag_322\n      jump\t// in\n    tag_321:\n        /* \"node_modules/@openzeppelin/contracts/utils/math/SafeMath.sol\":3913:3925  return a / b */\n      swap4\n        /* \"node_modules/@openzeppelin/contracts/utils/math/SafeMath.sol\":3836:3932  function div(uint256 a, uint256 b) internal pure returns (uint256) {... */\n      swap3\n      pop\n      pop\n      pop\n      jump\t// out\n        /* \"node_modules/@openzeppelin/contracts/utils/math/SafeMath.sol\":3451:3547  function mul(uint256 a, uint256 b) internal pure returns (uint256) {... */\n    tag_298:\n        /* \"node_modules/@openzeppelin/contracts/utils/math/SafeMath.sol\":3509:3516  uint256 */\n      0x00\n        /* \"node_modules/@openzeppelin/contracts/utils/math/SafeMath.sol\":3535:3540  a * b */\n      tag_321\n        /* \"node_modules/@openzeppelin/contracts/utils/math/SafeMath.sol\":3539:3540  b */\n      dup3\n        /* \"node_modules/@openzeppelin/contracts/utils/math/SafeMath.sol\":3535:3536  a */\n      dup5\n        /* \"node_modules/@openzeppelin/contracts/utils/math/SafeMath.sol\":3535:3540  a * b */\n      tag_325\n      jump\t// in\n        /* \"node_modules/@openzeppelin/contracts/utils/math/SafeMath.sol\":2741:2837  function add(uint256 a, uint256 b) internal pure returns (uint256) {... */\n    tag_299:\n        /* \"node_modules/@openzeppelin/contracts/utils/math/SafeMath.sol\":2799:2806  uint256 */\n      0x00\n        /* \"node_modules/@openzeppelin/contracts/utils/math/SafeMath.sol\":2825:2830  a + b */\n      tag_321\n        /* \"node_modules/@openzeppelin/contracts/utils/math/SafeMath.sol\":2829:2830  b */\n      dup3\n        /* \"node_modules/@openzeppelin/contracts/utils/math/SafeMath.sol\":2825:2826  a */\n      dup5\n        /* \"node_modules/@openzeppelin/contracts/utils/math/SafeMath.sol\":2825:2830  a + b */\n      tag_185\n      jump\t// in\n        /* \"node_modules/@openzeppelin/contracts/utils/math/SafeMath.sol\":3108:3204  function sub(uint256 a, uint256 b) internal pure returns (uint256) {... */\n    tag_306:\n        /* \"node_modules/@openzeppelin/contracts/utils/math/SafeMath.sol\":3166:3173  uint256 */\n      0x00\n        /* \"node_modules/@openzeppelin/contracts/utils/math/SafeMath.sol\":3192:3197  a - b */\n      tag_321\n        /* \"node_modules/@openzeppelin/contracts/utils/math/SafeMath.sol\":3196:3197  b */\n      dup3\n        /* \"node_modules/@openzeppelin/contracts/utils/math/SafeMath.sol\":3192:3193  a */\n      dup5\n        /* \"node_modules/@openzeppelin/contracts/utils/math/SafeMath.sol\":3192:3197  a - b */\n      tag_317\n      jump\t// in\n        /* \"#utility.yul\":14:562   */\n    tag_42:\n        /* \"#utility.yul\":126:130   */\n      0x00\n        /* \"#utility.yul\":155:157   */\n      0x20\n        /* \"#utility.yul\":184:186   */\n      dup1\n        /* \"#utility.yul\":173:182   */\n      dup4\n        /* \"#utility.yul\":166:187   */\n      mstore\n        /* \"#utility.yul\":216:222   */\n      dup4\n        /* \"#utility.yul\":210:223   */\n      mload\n        /* \"#utility.yul\":259:265   */\n      dup1\n        /* \"#utility.yul\":254:256   */\n      dup3\n        /* \"#utility.yul\":243:252   */\n      dup6\n        /* \"#utility.yul\":239:257   */\n      add\n        /* \"#utility.yul\":232:266   */\n      mstore\n        /* \"#utility.yul\":284:285   */\n      0x00\n        /* \"#utility.yul\":294:434   */\n    tag_334:\n        /* \"#utility.yul\":308:314   */\n      dup2\n        /* \"#utility.yul\":305:306   */\n      dup2\n        /* \"#utility.yul\":302:315   */\n      lt\n        /* \"#utility.yul\":294:434   */\n      iszero\n      tag_336\n      jumpi\n        /* \"#utility.yul\":403:417   */\n      dup6\n      dup2\n      add\n        /* \"#utility.yul\":399:422   */\n      dup4\n      add\n        /* \"#utility.yul\":393:423   */\n      mload\n        /* \"#utility.yul\":369:386   */\n      dup6\n      dup3\n      add\n        /* \"#utility.yul\":388:390   */\n      0x40\n        /* \"#utility.yul\":365:391   */\n      add\n        /* \"#utility.yul\":358:424   */\n      mstore\n        /* \"#utility.yul\":323:333   */\n      dup3\n      add\n        /* \"#utility.yul\":294:434   */\n      jump(tag_334)\n    tag_336:\n        /* \"#utility.yul\":298:301   */\n      pop\n        /* \"#utility.yul\":483:484   */\n      0x00\n        /* \"#utility.yul\":478:480   */\n      0x40\n        /* \"#utility.yul\":469:475   */\n      dup3\n        /* \"#utility.yul\":458:467   */\n      dup7\n        /* \"#utility.yul\":454:476   */\n      add\n        /* \"#utility.yul\":450:481   */\n      add\n        /* \"#utility.yul\":443:485   */\n      mstore\n        /* \"#utility.yul\":553:555   */\n      0x40\n        /* \"#utility.yul\":546:548   */\n      0x1f\n        /* \"#utility.yul\":542:549   */\n      not\n        /* \"#utility.yul\":537:539   */\n      0x1f\n        /* \"#utility.yul\":529:535   */\n      dup4\n        /* \"#utility.yul\":525:540   */\n      add\n        /* \"#utility.yul\":521:550   */\n      and\n        /* \"#utility.yul\":510:519   */\n      dup6\n        /* \"#utility.yul\":506:551   */\n      add\n        /* \"#utility.yul\":502:556   */\n      add\n        /* \"#utility.yul\":494:556   */\n      swap3\n      pop\n      pop\n      pop\n        /* \"#utility.yul\":14:562   */\n      swap3\n      swap2\n      pop\n      pop\n      jump\t// out\n        /* \"#utility.yul\":567:698   */\n    tag_330:\n      sub(shl(0xa0, 0x01), 0x01)\n        /* \"#utility.yul\":642:673   */\n      dup2\n      and\n        /* \"#utility.yul\":632:674   */\n      dup2\n      eq\n        /* \"#utility.yul\":622:692   */\n      tag_187\n      jumpi\n        /* \"#utility.yul\":688:689   */\n      0x00\n        /* \"#utility.yul\":685:686   */\n      dup1\n        /* \"#utility.yul\":678:690   */\n      revert\n        /* \"#utility.yul\":703:1018   */\n    tag_46:\n        /* \"#utility.yul\":771:777   */\n      0x00\n        /* \"#utility.yul\":779:785   */\n      dup1\n        /* \"#utility.yul\":832:834   */\n      0x40\n        /* \"#utility.yul\":820:829   */\n      dup4\n        /* \"#utility.yul\":811:818   */\n      dup6\n        /* \"#utility.yul\":807:830   */\n      sub\n        /* \"#utility.yul\":803:835   */\n      slt\n        /* \"#utility.yul\":800:852   */\n      iszero\n      tag_340\n      jumpi\n        /* \"#utility.yul\":848:849   */\n      0x00\n        /* \"#utility.yul\":845:846   */\n      dup1\n        /* \"#utility.yul\":838:850   */\n      revert\n        /* \"#utility.yul\":800:852   */\n    tag_340:\n        /* \"#utility.yul\":887:896   */\n      dup3\n        /* \"#utility.yul\":874:897   */\n      calldataload\n        /* \"#utility.yul\":906:937   */\n      tag_341\n        /* \"#utility.yul\":931:936   */\n      dup2\n        /* \"#utility.yul\":906:937   */\n      tag_330\n      jump\t// in\n    tag_341:\n        /* \"#utility.yul\":956:961   */\n      swap5\n        /* \"#utility.yul\":1008:1010   */\n      0x20\n        /* \"#utility.yul\":993:1011   */\n      swap4\n      swap1\n      swap4\n      add\n        /* \"#utility.yul\":980:1012   */\n      calldataload\n      swap4\n      pop\n      pop\n      pop\n        /* \"#utility.yul\":703:1018   */\n      jump\t// out\n        /* \"#utility.yul\":1635:2091   */\n    tag_63:\n        /* \"#utility.yul\":1712:1718   */\n      0x00\n        /* \"#utility.yul\":1720:1726   */\n      dup1\n        /* \"#utility.yul\":1728:1734   */\n      0x00\n        /* \"#utility.yul\":1781:1783   */\n      0x60\n        /* \"#utility.yul\":1769:1778   */\n      dup5\n        /* \"#utility.yul\":1760:1767   */\n      dup7\n        /* \"#utility.yul\":1756:1779   */\n      sub\n        /* \"#utility.yul\":1752:1784   */\n      slt\n        /* \"#utility.yul\":1749:1801   */\n      iszero\n      tag_346\n      jumpi\n        /* \"#utility.yul\":1797:1798   */\n      0x00\n        /* \"#utility.yul\":1794:1795   */\n      dup1\n        /* \"#utility.yul\":1787:1799   */\n      revert\n        /* \"#utility.yul\":1749:1801   */\n    tag_346:\n        /* \"#utility.yul\":1836:1845   */\n      dup4\n        /* \"#utility.yul\":1823:1846   */\n      calldataload\n        /* \"#utility.yul\":1855:1886   */\n      tag_347\n        /* \"#utility.yul\":1880:1885   */\n      dup2\n        /* \"#utility.yul\":1855:1886   */\n      tag_330\n      jump\t// in\n    tag_347:\n        /* \"#utility.yul\":1905:1910   */\n      swap3\n      pop\n        /* \"#utility.yul\":1962:1964   */\n      0x20\n        /* \"#utility.yul\":1947:1965   */\n      dup5\n      add\n        /* \"#utility.yul\":1934:1966   */\n      calldataload\n        /* \"#utility.yul\":1975:2008   */\n      tag_348\n        /* \"#utility.yul\":1934:1966   */\n      dup2\n        /* \"#utility.yul\":1975:2008   */\n      tag_330\n      jump\t// in\n    tag_348:\n        /* \"#utility.yul\":1635:2091   */\n      swap3\n      swap6\n        /* \"#utility.yul\":2027:2034   */\n      swap3\n      swap5\n      pop\n      pop\n      pop\n        /* \"#utility.yul\":2081:2083   */\n      0x40\n        /* \"#utility.yul\":2066:2084   */\n      swap2\n      swap1\n      swap2\n      add\n        /* \"#utility.yul\":2053:2085   */\n      calldataload\n      swap1\n        /* \"#utility.yul\":1635:2091   */\n      jump\t// out\n        /* \"#utility.yul\":2493:2673   */\n    tag_84:\n        /* \"#utility.yul\":2552:2558   */\n      0x00\n        /* \"#utility.yul\":2605:2607   */\n      0x20\n        /* \"#utility.yul\":2593:2602   */\n      dup3\n        /* \"#utility.yul\":2584:2591   */\n      dup5\n        /* \"#utility.yul\":2580:2603   */\n      sub\n        /* \"#utility.yul\":2576:2608   */\n      slt\n        /* \"#utility.yul\":2573:2625   */\n      iszero\n      tag_352\n      jumpi\n        /* \"#utility.yul\":2621:2622   */\n      0x00\n        /* \"#utility.yul\":2618:2619   */\n      dup1\n        /* \"#utility.yul\":2611:2623   */\n      revert\n        /* \"#utility.yul\":2573:2625   */\n    tag_352:\n      pop\n        /* \"#utility.yul\":2644:2667   */\n      calldataload\n      swap2\n        /* \"#utility.yul\":2493:2673   */\n      swap1\n      pop\n      jump\t// out\n        /* \"#utility.yul\":2678:2925   */\n    tag_93:\n        /* \"#utility.yul\":2737:2743   */\n      0x00\n        /* \"#utility.yul\":2790:2792   */\n      0x20\n        /* \"#utility.yul\":2778:2787   */\n      dup3\n        /* \"#utility.yul\":2769:2776   */\n      dup5\n        /* \"#utility.yul\":2765:2788   */\n      sub\n        /* \"#utility.yul\":2761:2793   */\n      slt\n        /* \"#utility.yul\":2758:2810   */\n      iszero\n      tag_354\n      jumpi\n        /* \"#utility.yul\":2806:2807   */\n      0x00\n        /* \"#utility.yul\":2803:2804   */\n      dup1\n        /* \"#utility.yul\":2796:2808   */\n      revert\n        /* \"#utility.yul\":2758:2810   */\n    tag_354:\n        /* \"#utility.yul\":2845:2854   */\n      dup2\n        /* \"#utility.yul\":2832:2855   */\n      calldataload\n        /* \"#utility.yul\":2864:2895   */\n      tag_321\n        /* \"#utility.yul\":2889:2894   */\n      dup2\n        /* \"#utility.yul\":2864:2895   */\n      tag_330\n      jump\t// in\n        /* \"#utility.yul\":2930:3318   */\n    tag_143:\n        /* \"#utility.yul\":2998:3004   */\n      0x00\n        /* \"#utility.yul\":3006:3012   */\n      dup1\n        /* \"#utility.yul\":3059:3061   */\n      0x40\n        /* \"#utility.yul\":3047:3056   */\n      dup4\n        /* \"#utility.yul\":3038:3045   */\n      dup6\n        /* \"#utility.yul\":3034:3057   */\n      sub\n        /* \"#utility.yul\":3030:3062   */\n      slt\n        /* \"#utility.yul\":3027:3079   */\n      iszero\n      tag_357\n      jumpi\n        /* \"#utility.yul\":3075:3076   */\n      0x00\n        /* \"#utility.yul\":3072:3073   */\n      dup1\n        /* \"#utility.yul\":3065:3077   */\n      revert\n        /* \"#utility.yul\":3027:3079   */\n    tag_357:\n        /* \"#utility.yul\":3114:3123   */\n      dup3\n        /* \"#utility.yul\":3101:3124   */\n      calldataload\n        /* \"#utility.yul\":3133:3164   */\n      tag_358\n        /* \"#utility.yul\":3158:3163   */\n      dup2\n        /* \"#utility.yul\":3133:3164   */\n      tag_330\n      jump\t// in\n    tag_358:\n        /* \"#utility.yul\":3183:3188   */\n      swap2\n      pop\n        /* \"#utility.yul\":3240:3242   */\n      0x20\n        /* \"#utility.yul\":3225:3243   */\n      dup4\n      add\n        /* \"#utility.yul\":3212:3244   */\n      calldataload\n        /* \"#utility.yul\":3253:3286   */\n      tag_359\n        /* \"#utility.yul\":3212:3244   */\n      dup2\n        /* \"#utility.yul\":3253:3286   */\n      tag_330\n      jump\t// in\n    tag_359:\n        /* \"#utility.yul\":3305:3312   */\n      dup1\n        /* \"#utility.yul\":3295:3312   */\n      swap2\n      pop\n      pop\n        /* \"#utility.yul\":2930:3318   */\n      swap3\n      pop\n      swap3\n      swap1\n      pop\n      jump\t// out\n        /* \"#utility.yul\":3730:3857   */\n    tag_331:\n        /* \"#utility.yul\":3791:3801   */\n      0x4e487b71\n        /* \"#utility.yul\":3786:3789   */\n      0xe0\n        /* \"#utility.yul\":3782:3802   */\n      shl\n        /* \"#utility.yul\":3779:3780   */\n      0x00\n        /* \"#utility.yul\":3772:3803   */\n      mstore\n        /* \"#utility.yul\":3822:3826   */\n      0x11\n        /* \"#utility.yul\":3819:3820   */\n      0x04\n        /* \"#utility.yul\":3812:3827   */\n      mstore\n        /* \"#utility.yul\":3846:3850   */\n      0x24\n        /* \"#utility.yul\":3843:3844   */\n      0x00\n        /* \"#utility.yul\":3836:3851   */\n      revert\n        /* \"#utility.yul\":3862:3987   */\n    tag_185:\n        /* \"#utility.yul\":3927:3936   */\n      dup1\n      dup3\n      add\n        /* \"#utility.yul\":3948:3958   */\n      dup1\n      dup3\n      gt\n        /* \"#utility.yul\":3945:3981   */\n      iszero\n      tag_164\n      jumpi\n        /* \"#utility.yul\":3961:3979   */\n      tag_164\n      tag_331\n      jump\t// in\n        /* \"#utility.yul\":3992:4348   */\n    tag_195:\n        /* \"#utility.yul\":4194:4196   */\n      0x20\n        /* \"#utility.yul\":4176:4197   */\n      dup1\n      dup3\n      mstore\n        /* \"#utility.yul\":4213:4231   */\n      dup2\n      dup2\n      add\n        /* \"#utility.yul\":4206:4236   */\n      mstore\n        /* \"#utility.yul\":4272:4306   */\n      0x4f776e61626c653a2063616c6c6572206973206e6f7420746865206f776e6572\n        /* \"#utility.yul\":4267:4269   */\n      0x40\n        /* \"#utility.yul\":4252:4270   */\n      dup3\n      add\n        /* \"#utility.yul\":4245:4307   */\n      mstore\n        /* \"#utility.yul\":4339:4341   */\n      0x60\n        /* \"#utility.yul\":4324:4342   */\n      add\n      swap1\n        /* \"#utility.yul\":3992:4348   */\n      jump\t// out\n        /* \"#utility.yul\":5036:5313   */\n    tag_228:\n        /* \"#utility.yul\":5103:5109   */\n      0x00\n        /* \"#utility.yul\":5156:5158   */\n      0x20\n        /* \"#utility.yul\":5144:5153   */\n      dup3\n        /* \"#utility.yul\":5135:5142   */\n      dup5\n        /* \"#utility.yul\":5131:5154   */\n      sub\n        /* \"#utility.yul\":5127:5159   */\n      slt\n        /* \"#utility.yul\":5124:5176   */\n      iszero\n      tag_369\n      jumpi\n        /* \"#utility.yul\":5172:5173   */\n      0x00\n        /* \"#utility.yul\":5169:5170   */\n      dup1\n        /* \"#utility.yul\":5162:5174   */\n      revert\n        /* \"#utility.yul\":5124:5176   */\n    tag_369:\n        /* \"#utility.yul\":5204:5213   */\n      dup2\n        /* \"#utility.yul\":5198:5214   */\n      mload\n        /* \"#utility.yul\":5257:5262   */\n      dup1\n        /* \"#utility.yul\":5250:5263   */\n      iszero\n        /* \"#utility.yul\":5243:5264   */\n      iszero\n        /* \"#utility.yul\":5236:5241   */\n      dup2\n        /* \"#utility.yul\":5233:5265   */\n      eq\n        /* \"#utility.yul\":5223:5283   */\n      tag_321\n      jumpi\n        /* \"#utility.yul\":5279:5280   */\n      0x00\n        /* \"#utility.yul\":5276:5277   */\n      dup1\n        /* \"#utility.yul\":5269:5281   */\n      revert\n        /* \"#utility.yul\":5318:5569   */\n    tag_259:\n        /* \"#utility.yul\":5388:5394   */\n      0x00\n        /* \"#utility.yul\":5441:5443   */\n      0x20\n        /* \"#utility.yul\":5429:5438   */\n      dup3\n        /* \"#utility.yul\":5420:5427   */\n      dup5\n        /* \"#utility.yul\":5416:5439   */\n      sub\n        /* \"#utility.yul\":5412:5444   */\n      slt\n        /* \"#utility.yul\":5409:5461   */\n      iszero\n      tag_372\n      jumpi\n        /* \"#utility.yul\":5457:5458   */\n      0x00\n        /* \"#utility.yul\":5454:5455   */\n      dup1\n        /* \"#utility.yul\":5447:5459   */\n      revert\n        /* \"#utility.yul\":5409:5461   */\n    tag_372:\n        /* \"#utility.yul\":5489:5498   */\n      dup2\n        /* \"#utility.yul\":5483:5499   */\n      mload\n        /* \"#utility.yul\":5508:5539   */\n      tag_321\n        /* \"#utility.yul\":5533:5538   */\n      dup2\n        /* \"#utility.yul\":5508:5539   */\n      tag_330\n      jump\t// in\n        /* \"#utility.yul\":7913:8041   */\n    tag_317:\n        /* \"#utility.yul\":7980:7989   */\n      dup2\n      dup2\n      sub\n        /* \"#utility.yul\":8001:8012   */\n      dup2\n      dup2\n      gt\n        /* \"#utility.yul\":7998:8035   */\n      iszero\n      tag_164\n      jumpi\n        /* \"#utility.yul\":8015:8033   */\n      tag_164\n      tag_331\n      jump\t// in\n        /* \"#utility.yul\":8046:8263   */\n    tag_322:\n        /* \"#utility.yul\":8086:8087   */\n      0x00\n        /* \"#utility.yul\":8112:8113   */\n      dup3\n        /* \"#utility.yul\":8102:8234   */\n      tag_384\n      jumpi\n        /* \"#utility.yul\":8156:8166   */\n      0x4e487b71\n        /* \"#utility.yul\":8151:8154   */\n      0xe0\n        /* \"#utility.yul\":8147:8167   */\n      shl\n        /* \"#utility.yul\":8144:8145   */\n      0x00\n        /* \"#utility.yul\":8137:8168   */\n      mstore\n        /* \"#utility.yul\":8191:8195   */\n      0x12\n        /* \"#utility.yul\":8188:8189   */\n      0x04\n        /* \"#utility.yul\":8181:8196   */\n      mstore\n        /* \"#utility.yul\":8219:8223   */\n      0x24\n        /* \"#utility.yul\":8216:8217   */\n      0x00\n        /* \"#utility.yul\":8209:8224   */\n      revert\n        /* \"#utility.yul\":8102:8234   */\n    tag_384:\n      pop\n        /* \"#utility.yul\":8248:8257   */\n      div\n      swap1\n        /* \"#utility.yul\":8046:8263   */\n      jump\t// out\n        /* \"#utility.yul\":8268:8436   */\n    tag_325:\n        /* \"#utility.yul\":8341:8350   */\n      dup1\n      dup3\n      mul\n        /* \"#utility.yul\":8372:8381   */\n      dup2\n      iszero\n        /* \"#utility.yul\":8389:8404   */\n      dup3\n      dup3\n      div\n        /* \"#utility.yul\":8383:8405   */\n      dup5\n      eq\n        /* \"#utility.yul\":8369:8406   */\n      or\n        /* \"#utility.yul\":8359:8430   */\n      tag_164\n      jumpi\n        /* \"#utility.yul\":8410:8428   */\n      tag_164\n      tag_331\n      jump\t// in\n\n    auxdata: 0xa2646970667358221220ffc3ea906b0e2310ca264e479f25359dfca9e8ca0b01800b76af66345c0681e464736f6c63430008110033\n}\n",
				"bytecode": {
					"linkReferences": {},
					"object": "60e0604052600880546001600160a01b0319908116737ef95a0fee0dd31b22626fa2e10ee6a223f8a684179091556009805490911673cbb44600f5828a15cf130abb73ce5e85ac49d08f1790553480156200005957600080fd5b50620000653362000355565b6200007c336a0878678326eac900000000620003a5565b6040516a0878678326eac90000000081523390600090600080516020620017ed8339815191529060200160405180910390a36000739ac64cc6e4415144c455bd8e4837fea55603e5c39050806001600160a01b031663c45a01556040518163ffffffff1660e01b8152600401602060405180830381865afa15801562000106573d6000803e3d6000fd5b505050506040513d601f19601f820116820180604052508101906200012c919062000423565b6001600160a01b031663c9c6539630836001600160a01b031663ad5c46486040518163ffffffff1660e01b8152600401602060405180830381865afa1580156200017a573d6000803e3d6000fd5b505050506040513d601f19601f82011682018060405250810190620001a0919062000423565b6040516001600160e01b031960e085901b1681526001600160a01b039283166004820152911660248201526044016020604051808303816000875af1158015620001ee573d6000803e3d6000fd5b505050506040513d601f19601f8201168201806040525081019062000214919062000423565b6001600160a01b031660a0816001600160a01b031681525050806001600160a01b031663c45a01556040518163ffffffff1660e01b8152600401602060405180830381865afa1580156200026c573d6000803e3d6000fd5b505050506040513d601f19601f8201168201806040525081019062000292919062000423565b6008546040516364e329cb60e11b81523060048201526001600160a01b03918216602482015291169063c9c65396906044016020604051808303816000875af1158015620002e4573d6000803e3d6000fd5b505050506040513d601f19601f820116820180604052508101906200030a919062000423565b6001600160a01b0390811660c081905291811660805260a051166000908152600760205260408082208054600160ff199182168117909255938352912080549092161790556200047d565b600080546001600160a01b038381166001600160a01b0319831681178455604051919092169283917f8be0079c531659141344cd1fd0a4f28419497f9722a3daafe3b4186f6b6457e09190a35050565b6001600160a01b03821660009081526001602052604081208054839290620003cf90849062000455565b925050819055508060036000828254620003ea919062000455565b90915550506040518181526001600160a01b03831690600090600080516020620017ed8339815191529060200160405180910390a35050565b6000602082840312156200043657600080fd5b81516001600160a01b03811681146200044e57600080fd5b9392505050565b808201808211156200047757634e487b7160e01b600052601160045260246000fd5b92915050565b60805160a05160c051611340620004ad60003960006102bd0152600061034f0152600061023201526113406000f3fe6080604052600436106101a05760003560e01c806388af60c6116100ec578063a9059cbb1161008a578063dec1a6f611610064578063dec1a6f614610542578063e515cd3814610572578063f2fde38b14610592578063fae92612146105b257600080fd5b8063a9059cbb146104c7578063db2e21bc146104e7578063dd62ed3e146104fc57600080fd5b806395d89b41116100c657806395d89b411461043a578063a457c2d714610467578063a4c3b09114610487578063a8808fcc146104a757600080fd5b806388af60c6146103dc5780638da5cb5b146103fc578063956236411461041a57600080fd5b8063313ce5671161015957806349bd5a5e1161013357806349bd5a5e1461033d578063536db2661461037157806370a0823114610391578063715018a6146103c757600080fd5b8063313ce567146102df57806339509351146102fb57806342966c681461031b57600080fd5b806306fdde03146101ac578063095ea7b3146101f05780631694505e1461022057806318160ddd1461026c57806323b872dd1461028b5780632aafa283146102ab57600080fd5b366101a757005b600080fd5b3480156101b857600080fd5b506040805180820190915260098152684c75636b792042656560b81b60208201525b6040516101e791906110e2565b60405180910390f35b3480156101fc57600080fd5b5061021061020b366004611145565b6105d2565b60405190151581526020016101e7565b34801561022c57600080fd5b506102547f000000000000000000000000000000000000000000000000000000000000000081565b6040516001600160a01b0390911681526020016101e7565b34801561027857600080fd5b506003545b6040519081526020016101e7565b34801561029757600080fd5b506102106102a6366004611171565b6105e9565b3480156102b757600080fd5b506102547f000000000000000000000000000000000000000000000000000000000000000081565b3480156102eb57600080fd5b50604051601281526020016101e7565b34801561030757600080fd5b50610210610316366004611145565b610696565b34801561032757600080fd5b5061033b6103363660046111b2565b6106d2565b005b34801561034957600080fd5b506102547f000000000000000000000000000000000000000000000000000000000000000081565b34801561037d57600080fd5b5061033b61038c3660046111cb565b6106df565b34801561039d57600080fd5b5061027d6103ac3660046111cb565b6001600160a01b031660009081526001602052604090205490565b3480156103d357600080fd5b5061033b610771565b3480156103e857600080fd5b50600854610254906001600160a01b031681565b34801561040857600080fd5b506000546001600160a01b0316610254565b34801561042657600080fd5b50600954610254906001600160a01b031681565b34801561044657600080fd5b506040805180820190915260048152634c42454560e01b60208201526101da565b34801561047357600080fd5b50610210610482366004611145565b6107a7565b34801561049357600080fd5b5061033b6104a2366004611145565b61083e565b3480156104b357600080fd5b5061033b6104c23660046111cb565b6108de565b3480156104d357600080fd5b506102106104e2366004611145565b610974565b3480156104f357600080fd5b5061033b610981565b34801561050857600080fd5b5061027d6105173660046111e8565b6001600160a01b03918216600090815260026020908152604080832093909416825291909152205490565b34801561054e57600080fd5b5061021061055d3660046111cb565b60076020526000908152604090205460ff1681565b34801561057e57600080fd5b5061033b61058d3660046111cb565b6109e5565b34801561059e57600080fd5b5061033b6105ad3660046111cb565b610ae4565b3480156105be57600080fd5b5061033b6105cd3660046111cb565b610b7c565b60006105df338484610bc8565b5060015b92915050565b60006105f6848484610c2a565b6001600160a01b03841660009081526002602090815260408083203384529091529020548281101561067e5760405162461bcd60e51b815260206004820152602660248201527f4245453a207472616e7366657220616d6f756e74206578636565647320616c6c6044820152656f77616e636560d01b60648201526084015b60405180910390fd5b61068b8533858403610bc8565b506001949350505050565b3360008181526002602090815260408083206001600160a01b038716845290915281205490916105df9185906106cd908690611237565b610bc8565b6106dc3382610f2a565b50565b6000546001600160a01b031633146107095760405162461bcd60e51b81526004016106759061124a565b6001600160a01b03811660009081526007602052604090205460ff161561074b576001600160a01b03166000908152600760205260409020805460ff19169055565b6001600160a01b0381166000908152600760205260409020805460ff1916600117905550565b6000546001600160a01b0316331461079b5760405162461bcd60e51b81526004016106759061124a565b6107a5600061105b565b565b3360009081526002602090815260408083206001600160a01b0386168452909152812054828110156108275760405162461bcd60e51b815260206004820152602360248201527f4245453a2064656372656173656420616c6c6f77616e63652062656c6f77207a60448201526265726f60e81b6064820152608401610675565b6108343385858403610bc8565b5060019392505050565b6000546001600160a01b031633146108685760405162461bcd60e51b81526004016106759061124a565b60405163a9059cbb60e01b8152336004820152602481018290526001600160a01b0383169063a9059cbb906044016020604051808303816000875af11580156108b5573d6000803e3d6000fd5b505050506040513d601f19601f820116820180604052508101906108d9919061127f565b505050565b6000546001600160a01b031633146109085760405162461bcd60e51b81526004016106759061124a565b6001600160a01b03811660009081526006602052604090205460ff16151560010361094e576001600160a01b03166000908152600660205260409020805460ff19169055565b6001600160a01b0381166000908152600660205260409020805460ff1916600117905550565b60006105df338484610c2a565b6000546001600160a01b031633146109ab5760405162461bcd60e51b81526004016106759061124a565b600080546040516001600160a01b03909116914780156108fc02929091818181858888f193505050501580156106dc573d6000803e3d6000fd5b6000546001600160a01b03163314610a0f5760405162461bcd60e51b81526004016106759061124a565b6000816001600160a01b03166330adf81f6040518163ffffffff1660e01b8152600401602060405180830381865afa158015610a4f573d6000803e3d6000fd5b505050506040513d601f19601f82011682018060405250810190610a7391906112a1565b6001600160a01b03811660009081526006602052604090205490915060ff161515600103610abd576001600160a01b03166000908152600660205260409020805460ff1916905550565b6001600160a01b0381166000908152600660205260409020805460ff191660011790555050565b6000546001600160a01b03163314610b0e5760405162461bcd60e51b81526004016106759061124a565b6001600160a01b038116610b735760405162461bcd60e51b815260206004820152602660248201527f4f776e61626c653a206e6577206f776e657220697320746865207a65726f206160448201526564647265737360d01b6064820152608401610675565b6106dc8161105b565b6000546001600160a01b03163314610ba65760405162461bcd60e51b81526004016106759061124a565b600980546001600160a01b0319166001600160a01b0392909216919091179055565b6001600160a01b0383811660008181526002602090815260408083209487168084529482529182902085905590518481527f8c5be1e5ebec7d5bd14f71427d1e84f3dd0314c0f7b2291e5b200ac8c7c3b92591015b60405180910390a3505050565b6001600160a01b038316610c8c5760405162461bcd60e51b815260206004820152602360248201527f4245453a207472616e736665722066726f6d20746865207a65726f206164647260448201526265737360e81b6064820152608401610675565b6001600160a01b038216610cec5760405162461bcd60e51b815260206004820152602160248201527f4245453a207472616e7366657220746f20746865207a65726f206164647265736044820152607360f81b6064820152608401610675565b6001600160a01b03831660009081526001602052604090205481811015610d615760405162461bcd60e51b8152602060048201526024808201527f4245453a207472616e7366657220616d6f756e7420657863656564732062616c604482015263616e636560e01b6064820152608401610675565b6001600160a01b038316600090815260076020526040902054829060ff168015610da457506001600160a01b03851660009081526006602052604090205460ff16155b8015610dc957506001600160a01b03841660009081526006602052604090205460ff16155b15610e8e57610e09610de8600a610de2866103e86110ab565b906110be565b6009546001600160a01b0316600090815260016020526040902054906110ca565b600980546001600160a01b039081166000908152600160205260409020929092555481169086167fddf252ad1be2c89b69c2b068fc378daa952ba7f163c4a11628f55a4df523b3ef610e686103e8610e6288600a6110be565b906110ab565b60405190815260200160405180910390a3610e8b6103e8610e62856103de6110be565b90505b610e9882846110d6565b6001600160a01b038087166000908152600160205260408082209390935590861681522054610ec790826110ca565b6001600160a01b0380861660008181526001602052604090819020939093559151908716907fddf252ad1be2c89b69c2b068fc378daa952ba7f163c4a11628f55a4df523b3ef90610f1b9085815260200190565b60405180910390a35050505050565b6001600160a01b038216610f805760405162461bcd60e51b815260206004820152601f60248201527f4245453a206275726e2066726f6d20746865207a65726f2061646472657373006044820152606401610675565b6001600160a01b03821660009081526001602052604090205481811015610fe95760405162461bcd60e51b815260206004820181905260248201527f4245453a206275726e20616d6f756e7420657863656564732062616c616e63656044820152606401610675565b6001600160a01b03831660009081526001602052604081208383039055600380548492906110189084906112be565b90915550506040518281526000906001600160a01b038516907fddf252ad1be2c89b69c2b068fc378daa952ba7f163c4a11628f55a4df523b3ef90602001610c1d565b600080546001600160a01b038381166001600160a01b0319831681178455604051919092169283917f8be0079c531659141344cd1fd0a4f28419497f9722a3daafe3b4186f6b6457e09190a35050565b60006110b782846112d1565b9392505050565b60006110b782846112f3565b60006110b78284611237565b60006110b782846112be565b600060208083528351808285015260005b8181101561110f578581018301518582016040015282016110f3565b506000604082860101526040601f19601f8301168501019250505092915050565b6001600160a01b03811681146106dc57600080fd5b6000806040838503121561115857600080fd5b823561116381611130565b946020939093013593505050565b60008060006060848603121561118657600080fd5b833561119181611130565b925060208401356111a181611130565b929592945050506040919091013590565b6000602082840312156111c457600080fd5b5035919050565b6000602082840312156111dd57600080fd5b81356110b781611130565b600080604083850312156111fb57600080fd5b823561120681611130565b9150602083013561121681611130565b809150509250929050565b634e487b7160e01b600052601160045260246000fd5b808201808211156105e3576105e3611221565b6020808252818101527f4f776e61626c653a2063616c6c6572206973206e6f7420746865206f776e6572604082015260600190565b60006020828403121561129157600080fd5b815180151581146110b757600080fd5b6000602082840312156112b357600080fd5b81516110b781611130565b818103818111156105e3576105e3611221565b6000826112ee57634e487b7160e01b600052601260045260246000fd5b500490565b80820281158282048414176105e3576105e361122156fea2646970667358221220ffc3ea906b0e2310ca264e479f25359dfca9e8ca0b01800b76af66345c0681e464736f6c63430008110033ddf252ad1be2c89b69c2b068fc378daa952ba7f163c4a11628f55a4df523b3ef",
					"opcodes": "PUSH1 0xE0 PUSH1 0x40 MSTORE PUSH1 0x8 DUP1 SLOAD PUSH1 0x1 PUSH1 0x1 PUSH1 0xA0 SHL SUB NOT SWAP1 DUP2 AND PUSH20 0x7EF95A0FEE0DD31B22626FA2E10EE6A223F8A684 OR SWAP1 SWAP2 SSTORE PUSH1 0x9 DUP1 SLOAD SWAP1 SWAP2 AND PUSH20 0xCBB44600F5828A15CF130ABB73CE5E85AC49D08F OR SWAP1 SSTORE CALLVALUE DUP1 ISZERO PUSH3 0x59 JUMPI PUSH1 0x0 DUP1 REVERT JUMPDEST POP PUSH3 0x65 CALLER PUSH3 0x355 JUMP JUMPDEST PUSH3 0x7C CALLER PUSH11 0x878678326EAC900000000 PUSH3 0x3A5 JUMP JUMPDEST PUSH1 0x40 MLOAD PUSH11 0x878678326EAC900000000 DUP2 MSTORE CALLER SWAP1 PUSH1 0x0 SWAP1 PUSH1 0x0 DUP1 MLOAD PUSH1 0x20 PUSH3 0x17ED DUP4 CODECOPY DUP2 MLOAD SWAP2 MSTORE SWAP1 PUSH1 0x20 ADD PUSH1 0x40 MLOAD DUP1 SWAP2 SUB SWAP1 LOG3 PUSH1 0x0 PUSH20 0x9AC64CC6E4415144C455BD8E4837FEA55603E5C3 SWAP1 POP DUP1 PUSH1 0x1 PUSH1 0x1 PUSH1 0xA0 SHL SUB AND PUSH4 0xC45A0155 PUSH1 0x40 MLOAD DUP2 PUSH4 0xFFFFFFFF AND PUSH1 0xE0 SHL DUP2 MSTORE PUSH1 0x4 ADD PUSH1 0x20 PUSH1 0x40 MLOAD DUP1 DUP4 SUB DUP2 DUP7 GAS STATICCALL ISZERO DUP1 ISZERO PUSH3 0x106 JUMPI RETURNDATASIZE PUSH1 0x0 DUP1 RETURNDATACOPY RETURNDATASIZE PUSH1 0x0 REVERT JUMPDEST POP POP POP POP PUSH1 0x40 MLOAD RETURNDATASIZE PUSH1 0x1F NOT PUSH1 0x1F DUP3 ADD AND DUP3 ADD DUP1 PUSH1 0x40 MSTORE POP DUP2 ADD SWAP1 PUSH3 0x12C SWAP2 SWAP1 PUSH3 0x423 JUMP JUMPDEST PUSH1 0x1 PUSH1 0x1 PUSH1 0xA0 SHL SUB AND PUSH4 0xC9C65396 ADDRESS DUP4 PUSH1 0x1 PUSH1 0x1 PUSH1 0xA0 SHL SUB AND PUSH4 0xAD5C4648 PUSH1 0x40 MLOAD DUP2 PUSH4 0xFFFFFFFF AND PUSH1 0xE0 SHL DUP2 MSTORE PUSH1 0x4 ADD PUSH1 0x20 PUSH1 0x40 MLOAD DUP1 DUP4 SUB DUP2 DUP7 GAS STATICCALL ISZERO DUP1 ISZERO PUSH3 0x17A JUMPI RETURNDATASIZE PUSH1 0x0 DUP1 RETURNDATACOPY RETURNDATASIZE PUSH1 0x0 REVERT JUMPDEST POP POP POP POP PUSH1 0x40 MLOAD RETURNDATASIZE PUSH1 0x1F NOT PUSH1 0x1F DUP3 ADD AND DUP3 ADD DUP1 PUSH1 0x40 MSTORE POP DUP2 ADD SWAP1 PUSH3 0x1A0 SWAP2 SWAP1 PUSH3 0x423 JUMP JUMPDEST PUSH1 0x40 MLOAD PUSH1 0x1 PUSH1 0x1 PUSH1 0xE0 SHL SUB NOT PUSH1 0xE0 DUP6 SWAP1 SHL AND DUP2 MSTORE PUSH1 0x1 PUSH1 0x1 PUSH1 0xA0 SHL SUB SWAP3 DUP4 AND PUSH1 0x4 DUP3 ADD MSTORE SWAP2 AND PUSH1 0x24 DUP3 ADD MSTORE PUSH1 0x44 ADD PUSH1 0x20 PUSH1 0x40 MLOAD DUP1 DUP4 SUB DUP2 PUSH1 0x0 DUP8 GAS CALL ISZERO DUP1 ISZERO PUSH3 0x1EE JUMPI RETURNDATASIZE PUSH1 0x0 DUP1 RETURNDATACOPY RETURNDATASIZE PUSH1 0x0 REVERT JUMPDEST POP POP POP POP PUSH1 0x40 MLOAD RETURNDATASIZE PUSH1 0x1F NOT PUSH1 0x1F DUP3 ADD AND DUP3 ADD DUP1 PUSH1 0x40 MSTORE POP DUP2 ADD SWAP1 PUSH3 0x214 SWAP2 SWAP1 PUSH3 0x423 JUMP JUMPDEST PUSH1 0x1 PUSH1 0x1 PUSH1 0xA0 SHL SUB AND PUSH1 0xA0 DUP2 PUSH1 0x1 PUSH1 0x1 PUSH1 0xA0 SHL SUB AND DUP2 MSTORE POP POP DUP1 PUSH1 0x1 PUSH1 0x1 PUSH1 0xA0 SHL SUB AND PUSH4 0xC45A0155 PUSH1 0x40 MLOAD DUP2 PUSH4 0xFFFFFFFF AND PUSH1 0xE0 SHL DUP2 MSTORE PUSH1 0x4 ADD PUSH1 0x20 PUSH1 0x40 MLOAD DUP1 DUP4 SUB DUP2 DUP7 GAS STATICCALL ISZERO DUP1 ISZERO PUSH3 0x26C JUMPI RETURNDATASIZE PUSH1 0x0 DUP1 RETURNDATACOPY RETURNDATASIZE PUSH1 0x0 REVERT JUMPDEST POP POP POP POP PUSH1 0x40 MLOAD RETURNDATASIZE PUSH1 0x1F NOT PUSH1 0x1F DUP3 ADD AND DUP3 ADD DUP1 PUSH1 0x40 MSTORE POP DUP2 ADD SWAP1 PUSH3 0x292 SWAP2 SWAP1 PUSH3 0x423 JUMP JUMPDEST PUSH1 0x8 SLOAD PUSH1 0x40 MLOAD PUSH4 0x64E329CB PUSH1 0xE1 SHL DUP2 MSTORE ADDRESS PUSH1 0x4 DUP3 ADD MSTORE PUSH1 0x1 PUSH1 0x1 PUSH1 0xA0 SHL SUB SWAP2 DUP3 AND PUSH1 0x24 DUP3 ADD MSTORE SWAP2 AND SWAP1 PUSH4 0xC9C65396 SWAP1 PUSH1 0x44 ADD PUSH1 0x20 PUSH1 0x40 MLOAD DUP1 DUP4 SUB DUP2 PUSH1 0x0 DUP8 GAS CALL ISZERO DUP1 ISZERO PUSH3 0x2E4 JUMPI RETURNDATASIZE PUSH1 0x0 DUP1 RETURNDATACOPY RETURNDATASIZE PUSH1 0x0 REVERT JUMPDEST POP POP POP POP PUSH1 0x40 MLOAD RETURNDATASIZE PUSH1 0x1F NOT PUSH1 0x1F DUP3 ADD AND DUP3 ADD DUP1 PUSH1 0x40 MSTORE POP DUP2 ADD SWAP1 PUSH3 0x30A SWAP2 SWAP1 PUSH3 0x423 JUMP JUMPDEST PUSH1 0x1 PUSH1 0x1 PUSH1 0xA0 SHL SUB SWAP1 DUP2 AND PUSH1 0xC0 DUP2 SWAP1 MSTORE SWAP2 DUP2 AND PUSH1 0x80 MSTORE PUSH1 0xA0 MLOAD AND PUSH1 0x0 SWAP1 DUP2 MSTORE PUSH1 0x7 PUSH1 0x20 MSTORE PUSH1 0x40 DUP1 DUP3 KECCAK256 DUP1 SLOAD PUSH1 0x1 PUSH1 0xFF NOT SWAP2 DUP3 AND DUP2 OR SWAP1 SWAP3 SSTORE SWAP4 DUP4 MSTORE SWAP2 KECCAK256 DUP1 SLOAD SWAP1 SWAP3 AND OR SWAP1 SSTORE PUSH3 0x47D JUMP JUMPDEST PUSH1 0x0 DUP1 SLOAD PUSH1 0x1 PUSH1 0x1 PUSH1 0xA0 SHL SUB DUP4 DUP2 AND PUSH1 0x1 PUSH1 0x1 PUSH1 0xA0 SHL SUB NOT DUP4 AND DUP2 OR DUP5 SSTORE PUSH1 0x40 MLOAD SWAP2 SWAP1 SWAP3 AND SWAP3 DUP4 SWAP2 PUSH32 0x8BE0079C531659141344CD1FD0A4F28419497F9722A3DAAFE3B4186F6B6457E0 SWAP2 SWAP1 LOG3 POP POP JUMP JUMPDEST PUSH1 0x1 PUSH1 0x1 PUSH1 0xA0 SHL SUB DUP3 AND PUSH1 0x0 SWAP1 DUP2 MSTORE PUSH1 0x1 PUSH1 0x20 MSTORE PUSH1 0x40 DUP2 KECCAK256 DUP1 SLOAD DUP4 SWAP3 SWAP1 PUSH3 0x3CF SWAP1 DUP5 SWAP1 PUSH3 0x455 JUMP JUMPDEST SWAP3 POP POP DUP2 SWAP1 SSTORE POP DUP1 PUSH1 0x3 PUSH1 0x0 DUP3 DUP3 SLOAD PUSH3 0x3EA SWAP2 SWAP1 PUSH3 0x455 JUMP JUMPDEST SWAP1 SWAP2 SSTORE POP POP PUSH1 0x40 MLOAD DUP2 DUP2 MSTORE PUSH1 0x1 PUSH1 0x1 PUSH1 0xA0 SHL SUB DUP4 AND SWAP1 PUSH1 0x0 SWAP1 PUSH1 0x0 DUP1 MLOAD PUSH1 0x20 PUSH3 0x17ED DUP4 CODECOPY DUP2 MLOAD SWAP2 MSTORE SWAP1 PUSH1 0x20 ADD PUSH1 0x40 MLOAD DUP1 SWAP2 SUB SWAP1 LOG3 POP POP JUMP JUMPDEST PUSH1 0x0 PUSH1 0x20 DUP3 DUP5 SUB SLT ISZERO PUSH3 0x436 JUMPI PUSH1 0x0 DUP1 REVERT JUMPDEST DUP2 MLOAD PUSH1 0x1 PUSH1 0x1 PUSH1 0xA0 SHL SUB DUP2 AND DUP2 EQ PUSH3 0x44E JUMPI PUSH1 0x0 DUP1 REVERT JUMPDEST SWAP4 SWAP3 POP POP POP JUMP JUMPDEST DUP1 DUP3 ADD DUP1 DUP3 GT ISZERO PUSH3 0x477 JUMPI PUSH4 0x4E487B71 PUSH1 0xE0 SHL PUSH1 0x0 MSTORE PUSH1 0x11 PUSH1 0x4 MSTORE PUSH1 0x24 PUSH1 0x0 REVERT JUMPDEST SWAP3 SWAP2 POP POP JUMP JUMPDEST PUSH1 0x80 MLOAD PUSH1 0xA0 MLOAD PUSH1 0xC0 MLOAD PUSH2 0x1340 PUSH3 0x4AD PUSH1 0x0 CODECOPY PUSH1 0x0 PUSH2 0x2BD ADD MSTORE PUSH1 0x0 PUSH2 0x34F ADD MSTORE PUSH1 0x0 PUSH2 0x232 ADD MSTORE PUSH2 0x1340 PUSH1 0x0 RETURN INVALID PUSH1 0x80 PUSH1 0x40 MSTORE PUSH1 0x4 CALLDATASIZE LT PUSH2 0x1A0 JUMPI PUSH1 0x0 CALLDATALOAD PUSH1 0xE0 SHR DUP1 PUSH4 0x88AF60C6 GT PUSH2 0xEC JUMPI DUP1 PUSH4 0xA9059CBB GT PUSH2 0x8A JUMPI DUP1 PUSH4 0xDEC1A6F6 GT PUSH2 0x64 JUMPI DUP1 PUSH4 0xDEC1A6F6 EQ PUSH2 0x542 JUMPI DUP1 PUSH4 0xE515CD38 EQ PUSH2 0x572 JUMPI DUP1 PUSH4 0xF2FDE38B EQ PUSH2 0x592 JUMPI DUP1 PUSH4 0xFAE92612 EQ PUSH2 0x5B2 JUMPI PUSH1 0x0 DUP1 REVERT JUMPDEST DUP1 PUSH4 0xA9059CBB EQ PUSH2 0x4C7 JUMPI DUP1 PUSH4 0xDB2E21BC EQ PUSH2 0x4E7 JUMPI DUP1 PUSH4 0xDD62ED3E EQ PUSH2 0x4FC JUMPI PUSH1 0x0 DUP1 REVERT JUMPDEST DUP1 PUSH4 0x95D89B41 GT PUSH2 0xC6 JUMPI DUP1 PUSH4 0x95D89B41 EQ PUSH2 0x43A JUMPI DUP1 PUSH4 0xA457C2D7 EQ PUSH2 0x467 JUMPI DUP1 PUSH4 0xA4C3B091 EQ PUSH2 0x487 JUMPI DUP1 PUSH4 0xA8808FCC EQ PUSH2 0x4A7 JUMPI PUSH1 0x0 DUP1 REVERT JUMPDEST DUP1 PUSH4 0x88AF60C6 EQ PUSH2 0x3DC JUMPI DUP1 PUSH4 0x8DA5CB5B EQ PUSH2 0x3FC JUMPI DUP1 PUSH4 0x95623641 EQ PUSH2 0x41A JUMPI PUSH1 0x0 DUP1 REVERT JUMPDEST DUP1 PUSH4 0x313CE567 GT PUSH2 0x159 JUMPI DUP1 PUSH4 0x49BD5A5E GT PUSH2 0x133 JUMPI DUP1 PUSH4 0x49BD5A5E EQ PUSH2 0x33D JUMPI DUP1 PUSH4 0x536DB266 EQ PUSH2 0x371 JUMPI DUP1 PUSH4 0x70A08231 EQ PUSH2 0x391 JUMPI DUP1 PUSH4 0x715018A6 EQ PUSH2 0x3C7 JUMPI PUSH1 0x0 DUP1 REVERT JUMPDEST DUP1 PUSH4 0x313CE567 EQ PUSH2 0x2DF JUMPI DUP1 PUSH4 0x39509351 EQ PUSH2 0x2FB JUMPI DUP1 PUSH4 0x42966C68 EQ PUSH2 0x31B JUMPI PUSH1 0x0 DUP1 REVERT JUMPDEST DUP1 PUSH4 0x6FDDE03 EQ PUSH2 0x1AC JUMPI DUP1 PUSH4 0x95EA7B3 EQ PUSH2 0x1F0 JUMPI DUP1 PUSH4 0x1694505E EQ PUSH2 0x220 JUMPI DUP1 PUSH4 0x18160DDD EQ PUSH2 0x26C JUMPI DUP1 PUSH4 0x23B872DD EQ PUSH2 0x28B JUMPI DUP1 PUSH4 0x2AAFA283 EQ PUSH2 0x2AB JUMPI PUSH1 0x0 DUP1 REVERT JUMPDEST CALLDATASIZE PUSH2 0x1A7 JUMPI STOP JUMPDEST PUSH1 0x0 DUP1 REVERT JUMPDEST CALLVALUE DUP1 ISZERO PUSH2 0x1B8 JUMPI PUSH1 0x0 DUP1 REVERT JUMPDEST POP PUSH1 0x40 DUP1 MLOAD DUP1 DUP3 ADD SWAP1 SWAP2 MSTORE PUSH1 0x9 DUP2 MSTORE PUSH9 0x4C75636B7920426565 PUSH1 0xB8 SHL PUSH1 0x20 DUP3 ADD MSTORE JUMPDEST PUSH1 0x40 MLOAD PUSH2 0x1E7 SWAP2 SWAP1 PUSH2 0x10E2 JUMP JUMPDEST PUSH1 0x40 MLOAD DUP1 SWAP2 SUB SWAP1 RETURN JUMPDEST CALLVALUE DUP1 ISZERO PUSH2 0x1FC JUMPI PUSH1 0x0 DUP1 REVERT JUMPDEST POP PUSH2 0x210 PUSH2 0x20B CALLDATASIZE PUSH1 0x4 PUSH2 0x1145 JUMP JUMPDEST PUSH2 0x5D2 JUMP JUMPDEST PUSH1 0x40 MLOAD SWAP1 ISZERO ISZERO DUP2 MSTORE PUSH1 0x20 ADD PUSH2 0x1E7 JUMP JUMPDEST CALLVALUE DUP1 ISZERO PUSH2 0x22C JUMPI PUSH1 0x0 DUP1 REVERT JUMPDEST POP PUSH2 0x254 PUSH32 0x0 DUP2 JUMP JUMPDEST PUSH1 0x40 MLOAD PUSH1 0x1 PUSH1 0x1 PUSH1 0xA0 SHL SUB SWAP1 SWAP2 AND DUP2 MSTORE PUSH1 0x20 ADD PUSH2 0x1E7 JUMP JUMPDEST CALLVALUE DUP1 ISZERO PUSH2 0x278 JUMPI PUSH1 0x0 DUP1 REVERT JUMPDEST POP PUSH1 0x3 SLOAD JUMPDEST PUSH1 0x40 MLOAD SWAP1 DUP2 MSTORE PUSH1 0x20 ADD PUSH2 0x1E7 JUMP JUMPDEST CALLVALUE DUP1 ISZERO PUSH2 0x297 JUMPI PUSH1 0x0 DUP1 REVERT JUMPDEST POP PUSH2 0x210 PUSH2 0x2A6 CALLDATASIZE PUSH1 0x4 PUSH2 0x1171 JUMP JUMPDEST PUSH2 0x5E9 JUMP JUMPDEST CALLVALUE DUP1 ISZERO PUSH2 0x2B7 JUMPI PUSH1 0x0 DUP1 REVERT JUMPDEST POP PUSH2 0x254 PUSH32 0x0 DUP2 JUMP JUMPDEST CALLVALUE DUP1 ISZERO PUSH2 0x2EB JUMPI PUSH1 0x0 DUP1 REVERT JUMPDEST POP PUSH1 0x40 MLOAD PUSH1 0x12 DUP2 MSTORE PUSH1 0x20 ADD PUSH2 0x1E7 JUMP JUMPDEST CALLVALUE DUP1 ISZERO PUSH2 0x307 JUMPI PUSH1 0x0 DUP1 REVERT JUMPDEST POP PUSH2 0x210 PUSH2 0x316 CALLDATASIZE PUSH1 0x4 PUSH2 0x1145 JUMP JUMPDEST PUSH2 0x696 JUMP JUMPDEST CALLVALUE DUP1 ISZERO PUSH2 0x327 JUMPI PUSH1 0x0 DUP1 REVERT JUMPDEST POP PUSH2 0x33B PUSH2 0x336 CALLDATASIZE PUSH1 0x4 PUSH2 0x11B2 JUMP JUMPDEST PUSH2 0x6D2 JUMP JUMPDEST STOP JUMPDEST CALLVALUE DUP1 ISZERO PUSH2 0x349 JUMPI PUSH1 0x0 DUP1 REVERT JUMPDEST POP PUSH2 0x254 PUSH32 0x0 DUP2 JUMP JUMPDEST CALLVALUE DUP1 ISZERO PUSH2 0x37D JUMPI PUSH1 0x0 DUP1 REVERT JUMPDEST POP PUSH2 0x33B PUSH2 0x38C CALLDATASIZE PUSH1 0x4 PUSH2 0x11CB JUMP JUMPDEST PUSH2 0x6DF JUMP JUMPDEST CALLVALUE DUP1 ISZERO PUSH2 0x39D JUMPI PUSH1 0x0 DUP1 REVERT JUMPDEST POP PUSH2 0x27D PUSH2 0x3AC CALLDATASIZE PUSH1 0x4 PUSH2 0x11CB JUMP JUMPDEST PUSH1 0x1 PUSH1 0x1 PUSH1 0xA0 SHL SUB AND PUSH1 0x0 SWAP1 DUP2 MSTORE PUSH1 0x1 PUSH1 0x20 MSTORE PUSH1 0x40 SWAP1 KECCAK256 SLOAD SWAP1 JUMP JUMPDEST CALLVALUE DUP1 ISZERO PUSH2 0x3D3 JUMPI PUSH1 0x0 DUP1 REVERT JUMPDEST POP PUSH2 0x33B PUSH2 0x771 JUMP JUMPDEST CALLVALUE DUP1 ISZERO PUSH2 0x3E8 JUMPI PUSH1 0x0 DUP1 REVERT JUMPDEST POP PUSH1 0x8 SLOAD PUSH2 0x254 SWAP1 PUSH1 0x1 PUSH1 0x1 PUSH1 0xA0 SHL SUB AND DUP2 JUMP JUMPDEST CALLVALUE DUP1 ISZERO PUSH2 0x408 JUMPI PUSH1 0x0 DUP1 REVERT JUMPDEST POP PUSH1 0x0 SLOAD PUSH1 0x1 PUSH1 0x1 PUSH1 0xA0 SHL SUB AND PUSH2 0x254 JUMP JUMPDEST CALLVALUE DUP1 ISZERO PUSH2 0x426 JUMPI PUSH1 0x0 DUP1 REVERT JUMPDEST POP PUSH1 0x9 SLOAD PUSH2 0x254 SWAP1 PUSH1 0x1 PUSH1 0x1 PUSH1 0xA0 SHL SUB AND DUP2 JUMP JUMPDEST CALLVALUE DUP1 ISZERO PUSH2 0x446 JUMPI PUSH1 0x0 DUP1 REVERT JUMPDEST POP PUSH1 0x40 DUP1 MLOAD DUP1 DUP3 ADD SWAP1 SWAP2 MSTORE PUSH1 0x4 DUP2 MSTORE PUSH4 0x4C424545 PUSH1 0xE0 SHL PUSH1 0x20 DUP3 ADD MSTORE PUSH2 0x1DA JUMP JUMPDEST CALLVALUE DUP1 ISZERO PUSH2 0x473 JUMPI PUSH1 0x0 DUP1 REVERT JUMPDEST POP PUSH2 0x210 PUSH2 0x482 CALLDATASIZE PUSH1 0x4 PUSH2 0x1145 JUMP JUMPDEST PUSH2 0x7A7 JUMP JUMPDEST CALLVALUE DUP1 ISZERO PUSH2 0x493 JUMPI PUSH1 0x0 DUP1 REVERT JUMPDEST POP PUSH2 0x33B PUSH2 0x4A2 CALLDATASIZE PUSH1 0x4 PUSH2 0x1145 JUMP JUMPDEST PUSH2 0x83E JUMP JUMPDEST CALLVALUE DUP1 ISZERO PUSH2 0x4B3 JUMPI PUSH1 0x0 DUP1 REVERT JUMPDEST POP PUSH2 0x33B PUSH2 0x4C2 CALLDATASIZE PUSH1 0x4 PUSH2 0x11CB JUMP JUMPDEST PUSH2 0x8DE JUMP JUMPDEST CALLVALUE DUP1 ISZERO PUSH2 0x4D3 JUMPI PUSH1 0x0 DUP1 REVERT JUMPDEST POP PUSH2 0x210 PUSH2 0x4E2 CALLDATASIZE PUSH1 0x4 PUSH2 0x1145 JUMP JUMPDEST PUSH2 0x974 JUMP JUMPDEST CALLVALUE DUP1 ISZERO PUSH2 0x4F3 JUMPI PUSH1 0x0 DUP1 REVERT JUMPDEST POP PUSH2 0x33B PUSH2 0x981 JUMP JUMPDEST CALLVALUE DUP1 ISZERO PUSH2 0x508 JUMPI PUSH1 0x0 DUP1 REVERT JUMPDEST POP PUSH2 0x27D PUSH2 0x517 CALLDATASIZE PUSH1 0x4 PUSH2 0x11E8 JUMP JUMPDEST PUSH1 0x1 PUSH1 0x1 PUSH1 0xA0 SHL SUB SWAP2 DUP3 AND PUSH1 0x0 SWAP1 DUP2 MSTORE PUSH1 0x2 PUSH1 0x20 SWAP1 DUP2 MSTORE PUSH1 0x40 DUP1 DUP4 KECCAK256 SWAP4 SWAP1 SWAP5 AND DUP3 MSTORE SWAP2 SWAP1 SWAP2 MSTORE KECCAK256 SLOAD SWAP1 JUMP JUMPDEST CALLVALUE DUP1 ISZERO PUSH2 0x54E JUMPI PUSH1 0x0 DUP1 REVERT JUMPDEST POP PUSH2 0x210 PUSH2 0x55D CALLDATASIZE PUSH1 0x4 PUSH2 0x11CB JUMP JUMPDEST PUSH1 0x7 PUSH1 0x20 MSTORE PUSH1 0x0 SWAP1 DUP2 MSTORE PUSH1 0x40 SWAP1 KECCAK256 SLOAD PUSH1 0xFF AND DUP2 JUMP JUMPDEST CALLVALUE DUP1 ISZERO PUSH2 0x57E JUMPI PUSH1 0x0 DUP1 REVERT JUMPDEST POP PUSH2 0x33B PUSH2 0x58D CALLDATASIZE PUSH1 0x4 PUSH2 0x11CB JUMP JUMPDEST PUSH2 0x9E5 JUMP JUMPDEST CALLVALUE DUP1 ISZERO PUSH2 0x59E JUMPI PUSH1 0x0 DUP1 REVERT JUMPDEST POP PUSH2 0x33B PUSH2 0x5AD CALLDATASIZE PUSH1 0x4 PUSH2 0x11CB JUMP JUMPDEST PUSH2 0xAE4 JUMP JUMPDEST CALLVALUE DUP1 ISZERO PUSH2 0x5BE JUMPI PUSH1 0x0 DUP1 REVERT JUMPDEST POP PUSH2 0x33B PUSH2 0x5CD CALLDATASIZE PUSH1 0x4 PUSH2 0x11CB JUMP JUMPDEST PUSH2 0xB7C JUMP JUMPDEST PUSH1 0x0 PUSH2 0x5DF CALLER DUP5 DUP5 PUSH2 0xBC8 JUMP JUMPDEST POP PUSH1 0x1 JUMPDEST SWAP3 SWAP2 POP POP JUMP JUMPDEST PUSH1 0x0 PUSH2 0x5F6 DUP5 DUP5 DUP5 PUSH2 0xC2A JUMP JUMPDEST PUSH1 0x1 PUSH1 0x1 PUSH1 0xA0 SHL SUB DUP5 AND PUSH1 0x0 SWAP1 DUP2 MSTORE PUSH1 0x2 PUSH1 0x20 SWAP1 DUP2 MSTORE PUSH1 0x40 DUP1 DUP4 KECCAK256 CALLER DUP5 MSTORE SWAP1 SWAP2 MSTORE SWAP1 KECCAK256 SLOAD DUP3 DUP2 LT ISZERO PUSH2 0x67E JUMPI PUSH1 0x40 MLOAD PUSH3 0x461BCD PUSH1 0xE5 SHL DUP2 MSTORE PUSH1 0x20 PUSH1 0x4 DUP3 ADD MSTORE PUSH1 0x26 PUSH1 0x24 DUP3 ADD MSTORE PUSH32 0x4245453A207472616E7366657220616D6F756E74206578636565647320616C6C PUSH1 0x44 DUP3 ADD MSTORE PUSH6 0x6F77616E6365 PUSH1 0xD0 SHL PUSH1 0x64 DUP3 ADD MSTORE PUSH1 0x84 ADD JUMPDEST PUSH1 0x40 MLOAD DUP1 SWAP2 SUB SWAP1 REVERT JUMPDEST PUSH2 0x68B DUP6 CALLER DUP6 DUP5 SUB PUSH2 0xBC8 JUMP JUMPDEST POP PUSH1 0x1 SWAP5 SWAP4 POP POP POP POP JUMP JUMPDEST CALLER PUSH1 0x0 DUP2 DUP2 MSTORE PUSH1 0x2 PUSH1 0x20 SWAP1 DUP2 MSTORE PUSH1 0x40 DUP1 DUP4 KECCAK256 PUSH1 0x1 PUSH1 0x1 PUSH1 0xA0 SHL SUB DUP8 AND DUP5 MSTORE SWAP1 SWAP2 MSTORE DUP2 KECCAK256 SLOAD SWAP1 SWAP2 PUSH2 0x5DF SWAP2 DUP6 SWAP1 PUSH2 0x6CD SWAP1 DUP7 SWAP1 PUSH2 0x1237 JUMP JUMPDEST PUSH2 0xBC8 JUMP JUMPDEST PUSH2 0x6DC CALLER DUP3 PUSH2 0xF2A JUMP JUMPDEST POP JUMP JUMPDEST PUSH1 0x0 SLOAD PUSH1 0x1 PUSH1 0x1 PUSH1 0xA0 SHL SUB AND CALLER EQ PUSH2 0x709 JUMPI PUSH1 0x40 MLOAD PUSH3 0x461BCD PUSH1 0xE5 SHL DUP2 MSTORE PUSH1 0x4 ADD PUSH2 0x675 SWAP1 PUSH2 0x124A JUMP JUMPDEST PUSH1 0x1 PUSH1 0x1 PUSH1 0xA0 SHL SUB DUP2 AND PUSH1 0x0 SWAP1 DUP2 MSTORE PUSH1 0x7 PUSH1 0x20 MSTORE PUSH1 0x40 SWAP1 KECCAK256 SLOAD PUSH1 0xFF AND ISZERO PUSH2 0x74B JUMPI PUSH1 0x1 PUSH1 0x1 PUSH1 0xA0 SHL SUB AND PUSH1 0x0 SWAP1 DUP2 MSTORE PUSH1 0x7 PUSH1 0x20 MSTORE PUSH1 0x40 SWAP1 KECCAK256 DUP1 SLOAD PUSH1 0xFF NOT AND SWAP1 SSTORE JUMP JUMPDEST PUSH1 0x1 PUSH1 0x1 PUSH1 0xA0 SHL SUB DUP2 AND PUSH1 0x0 SWAP1 DUP2 MSTORE PUSH1 0x7 PUSH1 0x20 MSTORE PUSH1 0x40 SWAP1 KECCAK256 DUP1 SLOAD PUSH1 0xFF NOT AND PUSH1 0x1 OR SWAP1 SSTORE POP JUMP JUMPDEST PUSH1 0x0 SLOAD PUSH1 0x1 PUSH1 0x1 PUSH1 0xA0 SHL SUB AND CALLER EQ PUSH2 0x79B JUMPI PUSH1 0x40 MLOAD PUSH3 0x461BCD PUSH1 0xE5 SHL DUP2 MSTORE PUSH1 0x4 ADD PUSH2 0x675 SWAP1 PUSH2 0x124A JUMP JUMPDEST PUSH2 0x7A5 PUSH1 0x0 PUSH2 0x105B JUMP JUMPDEST JUMP JUMPDEST CALLER PUSH1 0x0 SWAP1 DUP2 MSTORE PUSH1 0x2 PUSH1 0x20 SWAP1 DUP2 MSTORE PUSH1 0x40 DUP1 DUP4 KECCAK256 PUSH1 0x1 PUSH1 0x1 PUSH1 0xA0 SHL SUB DUP7 AND DUP5 MSTORE SWAP1 SWAP2 MSTORE DUP2 KECCAK256 SLOAD DUP3 DUP2 LT ISZERO PUSH2 0x827 JUMPI PUSH1 0x40 MLOAD PUSH3 0x461BCD PUSH1 0xE5 SHL DUP2 MSTORE PUSH1 0x20 PUSH1 0x4 DUP3 ADD MSTORE PUSH1 0x23 PUSH1 0x24 DUP3 ADD MSTORE PUSH32 0x4245453A2064656372656173656420616C6C6F77616E63652062656C6F77207A PUSH1 0x44 DUP3 ADD MSTORE PUSH3 0x65726F PUSH1 0xE8 SHL PUSH1 0x64 DUP3 ADD MSTORE PUSH1 0x84 ADD PUSH2 0x675 JUMP JUMPDEST PUSH2 0x834 CALLER DUP6 DUP6 DUP5 SUB PUSH2 0xBC8 JUMP JUMPDEST POP PUSH1 0x1 SWAP4 SWAP3 POP POP POP JUMP JUMPDEST PUSH1 0x0 SLOAD PUSH1 0x1 PUSH1 0x1 PUSH1 0xA0 SHL SUB AND CALLER EQ PUSH2 0x868 JUMPI PUSH1 0x40 MLOAD PUSH3 0x461BCD PUSH1 0xE5 SHL DUP2 MSTORE PUSH1 0x4 ADD PUSH2 0x675 SWAP1 PUSH2 0x124A JUMP JUMPDEST PUSH1 0x40 MLOAD PUSH4 0xA9059CBB PUSH1 0xE0 SHL DUP2 MSTORE CALLER PUSH1 0x4 DUP3 ADD MSTORE PUSH1 0x24 DUP2 ADD DUP3 SWAP1 MSTORE PUSH1 0x1 PUSH1 0x1 PUSH1 0xA0 SHL SUB DUP4 AND SWAP1 PUSH4 0xA9059CBB SWAP1 PUSH1 0x44 ADD PUSH1 0x20 PUSH1 0x40 MLOAD DUP1 DUP4 SUB DUP2 PUSH1 0x0 DUP8 GAS CALL ISZERO DUP1 ISZERO PUSH2 0x8B5 JUMPI RETURNDATASIZE PUSH1 0x0 DUP1 RETURNDATACOPY RETURNDATASIZE PUSH1 0x0 REVERT JUMPDEST POP POP POP POP PUSH1 0x40 MLOAD RETURNDATASIZE PUSH1 0x1F NOT PUSH1 0x1F DUP3 ADD AND DUP3 ADD DUP1 PUSH1 0x40 MSTORE POP DUP2 ADD SWAP1 PUSH2 0x8D9 SWAP2 SWAP1 PUSH2 0x127F JUMP JUMPDEST POP POP POP JUMP JUMPDEST PUSH1 0x0 SLOAD PUSH1 0x1 PUSH1 0x1 PUSH1 0xA0 SHL SUB AND CALLER EQ PUSH2 0x908 JUMPI PUSH1 0x40 MLOAD PUSH3 0x461BCD PUSH1 0xE5 SHL DUP2 MSTORE PUSH1 0x4 ADD PUSH2 0x675 SWAP1 PUSH2 0x124A JUMP JUMPDEST PUSH1 0x1 PUSH1 0x1 PUSH1 0xA0 SHL SUB DUP2 AND PUSH1 0x0 SWAP1 DUP2 MSTORE PUSH1 0x6 PUSH1 0x20 MSTORE PUSH1 0x40 SWAP1 KECCAK256 SLOAD PUSH1 0xFF AND ISZERO ISZERO PUSH1 0x1 SUB PUSH2 0x94E JUMPI PUSH1 0x1 PUSH1 0x1 PUSH1 0xA0 SHL SUB AND PUSH1 0x0 SWAP1 DUP2 MSTORE PUSH1 0x6 PUSH1 0x20 MSTORE PUSH1 0x40 SWAP1 KECCAK256 DUP1 SLOAD PUSH1 0xFF NOT AND SWAP1 SSTORE JUMP JUMPDEST PUSH1 0x1 PUSH1 0x1 PUSH1 0xA0 SHL SUB DUP2 AND PUSH1 0x0 SWAP1 DUP2 MSTORE PUSH1 0x6 PUSH1 0x20 MSTORE PUSH1 0x40 SWAP1 KECCAK256 DUP1 SLOAD PUSH1 0xFF NOT AND PUSH1 0x1 OR SWAP1 SSTORE POP JUMP JUMPDEST PUSH1 0x0 PUSH2 0x5DF CALLER DUP5 DUP5 PUSH2 0xC2A JUMP JUMPDEST PUSH1 0x0 SLOAD PUSH1 0x1 PUSH1 0x1 PUSH1 0xA0 SHL SUB AND CALLER EQ PUSH2 0x9AB JUMPI PUSH1 0x40 MLOAD PUSH3 0x461BCD PUSH1 0xE5 SHL DUP2 MSTORE PUSH1 0x4 ADD PUSH2 0x675 SWAP1 PUSH2 0x124A JUMP JUMPDEST PUSH1 0x0 DUP1 SLOAD PUSH1 0x40 MLOAD PUSH1 0x1 PUSH1 0x1 PUSH1 0xA0 SHL SUB SWAP1 SWAP2 AND SWAP2 SELFBALANCE DUP1 ISZERO PUSH2 0x8FC MUL SWAP3 SWAP1 SWAP2 DUP2 DUP2 DUP2 DUP6 DUP9 DUP9 CALL SWAP4 POP POP POP POP ISZERO DUP1 ISZERO PUSH2 0x6DC JUMPI RETURNDATASIZE PUSH1 0x0 DUP1 RETURNDATACOPY RETURNDATASIZE PUSH1 0x0 REVERT JUMPDEST PUSH1 0x0 SLOAD PUSH1 0x1 PUSH1 0x1 PUSH1 0xA0 SHL SUB AND CALLER EQ PUSH2 0xA0F JUMPI PUSH1 0x40 MLOAD PUSH3 0x461BCD PUSH1 0xE5 SHL DUP2 MSTORE PUSH1 0x4 ADD PUSH2 0x675 SWAP1 PUSH2 0x124A JUMP JUMPDEST PUSH1 0x0 DUP2 PUSH1 0x1 PUSH1 0x1 PUSH1 0xA0 SHL SUB AND PUSH4 0x30ADF81F PUSH1 0x40 MLOAD DUP2 PUSH4 0xFFFFFFFF AND PUSH1 0xE0 SHL DUP2 MSTORE PUSH1 0x4 ADD PUSH1 0x20 PUSH1 0x40 MLOAD DUP1 DUP4 SUB DUP2 DUP7 GAS STATICCALL ISZERO DUP1 ISZERO PUSH2 0xA4F JUMPI RETURNDATASIZE PUSH1 0x0 DUP1 RETURNDATACOPY RETURNDATASIZE PUSH1 0x0 REVERT JUMPDEST POP POP POP POP PUSH1 0x40 MLOAD RETURNDATASIZE PUSH1 0x1F NOT PUSH1 0x1F DUP3 ADD AND DUP3 ADD DUP1 PUSH1 0x40 MSTORE POP DUP2 ADD SWAP1 PUSH2 0xA73 SWAP2 SWAP1 PUSH2 0x12A1 JUMP JUMPDEST PUSH1 0x1 PUSH1 0x1 PUSH1 0xA0 SHL SUB DUP2 AND PUSH1 0x0 SWAP1 DUP2 MSTORE PUSH1 0x6 PUSH1 0x20 MSTORE PUSH1 0x40 SWAP1 KECCAK256 SLOAD SWAP1 SWAP2 POP PUSH1 0xFF AND ISZERO ISZERO PUSH1 0x1 SUB PUSH2 0xABD JUMPI PUSH1 0x1 PUSH1 0x1 PUSH1 0xA0 SHL SUB AND PUSH1 0x0 SWAP1 DUP2 MSTORE PUSH1 0x6 PUSH1 0x20 MSTORE PUSH1 0x40 SWAP1 KECCAK256 DUP1 SLOAD PUSH1 0xFF NOT AND SWAP1 SSTORE POP JUMP JUMPDEST PUSH1 0x1 PUSH1 0x1 PUSH1 0xA0 SHL SUB DUP2 AND PUSH1 0x0 SWAP1 DUP2 MSTORE PUSH1 0x6 PUSH1 0x20 MSTORE PUSH1 0x40 SWAP1 KECCAK256 DUP1 SLOAD PUSH1 0xFF NOT AND PUSH1 0x1 OR SWAP1 SSTORE POP POP JUMP JUMPDEST PUSH1 0x0 SLOAD PUSH1 0x1 PUSH1 0x1 PUSH1 0xA0 SHL SUB AND CALLER EQ PUSH2 0xB0E JUMPI PUSH1 0x40 MLOAD PUSH3 0x461BCD PUSH1 0xE5 SHL DUP2 MSTORE PUSH1 0x4 ADD PUSH2 0x675 SWAP1 PUSH2 0x124A JUMP JUMPDEST PUSH1 0x1 PUSH1 0x1 PUSH1 0xA0 SHL SUB DUP2 AND PUSH2 0xB73 JUMPI PUSH1 0x40 MLOAD PUSH3 0x461BCD PUSH1 0xE5 SHL DUP2 MSTORE PUSH1 0x20 PUSH1 0x4 DUP3 ADD MSTORE PUSH1 0x26 PUSH1 0x24 DUP3 ADD MSTORE PUSH32 0x4F776E61626C653A206E6577206F776E657220697320746865207A65726F2061 PUSH1 0x44 DUP3 ADD MSTORE PUSH6 0x646472657373 PUSH1 0xD0 SHL PUSH1 0x64 DUP3 ADD MSTORE PUSH1 0x84 ADD PUSH2 0x675 JUMP JUMPDEST PUSH2 0x6DC DUP2 PUSH2 0x105B JUMP JUMPDEST PUSH1 0x0 SLOAD PUSH1 0x1 PUSH1 0x1 PUSH1 0xA0 SHL SUB AND CALLER EQ PUSH2 0xBA6 JUMPI PUSH1 0x40 MLOAD PUSH3 0x461BCD PUSH1 0xE5 SHL DUP2 MSTORE PUSH1 0x4 ADD PUSH2 0x675 SWAP1 PUSH2 0x124A JUMP JUMPDEST PUSH1 0x9 DUP1 SLOAD PUSH1 0x1 PUSH1 0x1 PUSH1 0xA0 SHL SUB NOT AND PUSH1 0x1 PUSH1 0x1 PUSH1 0xA0 SHL SUB SWAP3 SWAP1 SWAP3 AND SWAP2 SWAP1 SWAP2 OR SWAP1 SSTORE JUMP JUMPDEST PUSH1 0x1 PUSH1 0x1 PUSH1 0xA0 SHL SUB DUP4 DUP2 AND PUSH1 0x0 DUP2 DUP2 MSTORE PUSH1 0x2 PUSH1 0x20 SWAP1 DUP2 MSTORE PUSH1 0x40 DUP1 DUP4 KECCAK256 SWAP5 DUP8 AND DUP1 DUP5 MSTORE SWAP5 DUP3 MSTORE SWAP2 DUP3 SWAP1 KECCAK256 DUP6 SWAP1 SSTORE SWAP1 MLOAD DUP5 DUP2 MSTORE PUSH32 0x8C5BE1E5EBEC7D5BD14F71427D1E84F3DD0314C0F7B2291E5B200AC8C7C3B925 SWAP2 ADD JUMPDEST PUSH1 0x40 MLOAD DUP1 SWAP2 SUB SWAP1 LOG3 POP POP POP JUMP JUMPDEST PUSH1 0x1 PUSH1 0x1 PUSH1 0xA0 SHL SUB DUP4 AND PUSH2 0xC8C JUMPI PUSH1 0x40 MLOAD PUSH3 0x461BCD PUSH1 0xE5 SHL DUP2 MSTORE PUSH1 0x20 PUSH1 0x4 DUP3 ADD MSTORE PUSH1 0x23 PUSH1 0x24 DUP3 ADD MSTORE PUSH32 0x4245453A207472616E736665722066726F6D20746865207A65726F2061646472 PUSH1 0x44 DUP3 ADD MSTORE PUSH3 0x657373 PUSH1 0xE8 SHL PUSH1 0x64 DUP3 ADD MSTORE PUSH1 0x84 ADD PUSH2 0x675 JUMP JUMPDEST PUSH1 0x1 PUSH1 0x1 PUSH1 0xA0 SHL SUB DUP3 AND PUSH2 0xCEC JUMPI PUSH1 0x40 MLOAD PUSH3 0x461BCD PUSH1 0xE5 SHL DUP2 MSTORE PUSH1 0x20 PUSH1 0x4 DUP3 ADD MSTORE PUSH1 0x21 PUSH1 0x24 DUP3 ADD MSTORE PUSH32 0x4245453A207472616E7366657220746F20746865207A65726F20616464726573 PUSH1 0x44 DUP3 ADD MSTORE PUSH1 0x73 PUSH1 0xF8 SHL PUSH1 0x64 DUP3 ADD MSTORE PUSH1 0x84 ADD PUSH2 0x675 JUMP JUMPDEST PUSH1 0x1 PUSH1 0x1 PUSH1 0xA0 SHL SUB DUP4 AND PUSH1 0x0 SWAP1 DUP2 MSTORE PUSH1 0x1 PUSH1 0x20 MSTORE PUSH1 0x40 SWAP1 KECCAK256 SLOAD DUP2 DUP2 LT ISZERO PUSH2 0xD61 JUMPI PUSH1 0x40 MLOAD PUSH3 0x461BCD PUSH1 0xE5 SHL DUP2 MSTORE PUSH1 0x20 PUSH1 0x4 DUP3 ADD MSTORE PUSH1 0x24 DUP1 DUP3 ADD MSTORE PUSH32 0x4245453A207472616E7366657220616D6F756E7420657863656564732062616C PUSH1 0x44 DUP3 ADD MSTORE PUSH4 0x616E6365 PUSH1 0xE0 SHL PUSH1 0x64 DUP3 ADD MSTORE PUSH1 0x84 ADD PUSH2 0x675 JUMP JUMPDEST PUSH1 0x1 PUSH1 0x1 PUSH1 0xA0 SHL SUB DUP4 AND PUSH1 0x0 SWAP1 DUP2 MSTORE PUSH1 0x7 PUSH1 0x20 MSTORE PUSH1 0x40 SWAP1 KECCAK256 SLOAD DUP3 SWAP1 PUSH1 0xFF AND DUP1 ISZERO PUSH2 0xDA4 JUMPI POP PUSH1 0x1 PUSH1 0x1 PUSH1 0xA0 SHL SUB DUP6 AND PUSH1 0x0 SWAP1 DUP2 MSTORE PUSH1 0x6 PUSH1 0x20 MSTORE PUSH1 0x40 SWAP1 KECCAK256 SLOAD PUSH1 0xFF AND ISZERO JUMPDEST DUP1 ISZERO PUSH2 0xDC9 JUMPI POP PUSH1 0x1 PUSH1 0x1 PUSH1 0xA0 SHL SUB DUP5 AND PUSH1 0x0 SWAP1 DUP2 MSTORE PUSH1 0x6 PUSH1 0x20 MSTORE PUSH1 0x40 SWAP1 KECCAK256 SLOAD PUSH1 0xFF AND ISZERO JUMPDEST ISZERO PUSH2 0xE8E JUMPI PUSH2 0xE09 PUSH2 0xDE8 PUSH1 0xA PUSH2 0xDE2 DUP7 PUSH2 0x3E8 PUSH2 0x10AB JUMP JUMPDEST SWAP1 PUSH2 0x10BE JUMP JUMPDEST PUSH1 0x9 SLOAD PUSH1 0x1 PUSH1 0x1 PUSH1 0xA0 SHL SUB AND PUSH1 0x0 SWAP1 DUP2 MSTORE PUSH1 0x1 PUSH1 0x20 MSTORE PUSH1 0x40 SWAP1 KECCAK256 SLOAD SWAP1 PUSH2 0x10CA JUMP JUMPDEST PUSH1 0x9 DUP1 SLOAD PUSH1 0x1 PUSH1 0x1 PUSH1 0xA0 SHL SUB SWAP1 DUP2 AND PUSH1 0x0 SWAP1 DUP2 MSTORE PUSH1 0x1 PUSH1 0x20 MSTORE PUSH1 0x40 SWAP1 KECCAK256 SWAP3 SWAP1 SWAP3 SSTORE SLOAD DUP2 AND SWAP1 DUP7 AND PUSH32 0xDDF252AD1BE2C89B69C2B068FC378DAA952BA7F163C4A11628F55A4DF523B3EF PUSH2 0xE68 PUSH2 0x3E8 PUSH2 0xE62 DUP9 PUSH1 0xA PUSH2 0x10BE JUMP JUMPDEST SWAP1 PUSH2 0x10AB JUMP JUMPDEST PUSH1 0x40 MLOAD SWAP1 DUP2 MSTORE PUSH1 0x20 ADD PUSH1 0x40 MLOAD DUP1 SWAP2 SUB SWAP1 LOG3 PUSH2 0xE8B PUSH2 0x3E8 PUSH2 0xE62 DUP6 PUSH2 0x3DE PUSH2 0x10BE JUMP JUMPDEST SWAP1 POP JUMPDEST PUSH2 0xE98 DUP3 DUP5 PUSH2 0x10D6 JUMP JUMPDEST PUSH1 0x1 PUSH1 0x1 PUSH1 0xA0 SHL SUB DUP1 DUP8 AND PUSH1 0x0 SWAP1 DUP2 MSTORE PUSH1 0x1 PUSH1 0x20 MSTORE PUSH1 0x40 DUP1 DUP3 KECCAK256 SWAP4 SWAP1 SWAP4 SSTORE SWAP1 DUP7 AND DUP2 MSTORE KECCAK256 SLOAD PUSH2 0xEC7 SWAP1 DUP3 PUSH2 0x10CA JUMP JUMPDEST PUSH1 0x1 PUSH1 0x1 PUSH1 0xA0 SHL SUB DUP1 DUP7 AND PUSH1 0x0 DUP2 DUP2 MSTORE PUSH1 0x1 PUSH1 0x20 MSTORE PUSH1 0x40 SWAP1 DUP2 SWAP1 KECCAK256 SWAP4 SWAP1 SWAP4 SSTORE SWAP2 MLOAD SWAP1 DUP8 AND SWAP1 PUSH32 0xDDF252AD1BE2C89B69C2B068FC378DAA952BA7F163C4A11628F55A4DF523B3EF SWAP1 PUSH2 0xF1B SWAP1 DUP6 DUP2 MSTORE PUSH1 0x20 ADD SWAP1 JUMP JUMPDEST PUSH1 0x40 MLOAD DUP1 SWAP2 SUB SWAP1 LOG3 POP POP POP POP POP JUMP JUMPDEST PUSH1 0x1 PUSH1 0x1 PUSH1 0xA0 SHL SUB DUP3 AND PUSH2 0xF80 JUMPI PUSH1 0x40 MLOAD PUSH3 0x461BCD PUSH1 0xE5 SHL DUP2 MSTORE PUSH1 0x20 PUSH1 0x4 DUP3 ADD MSTORE PUSH1 0x1F PUSH1 0x24 DUP3 ADD MSTORE PUSH32 0x4245453A206275726E2066726F6D20746865207A65726F206164647265737300 PUSH1 0x44 DUP3 ADD MSTORE PUSH1 0x64 ADD PUSH2 0x675 JUMP JUMPDEST PUSH1 0x1 PUSH1 0x1 PUSH1 0xA0 SHL SUB DUP3 AND PUSH1 0x0 SWAP1 DUP2 MSTORE PUSH1 0x1 PUSH1 0x20 MSTORE PUSH1 0x40 SWAP1 KECCAK256 SLOAD DUP2 DUP2 LT ISZERO PUSH2 0xFE9 JUMPI PUSH1 0x40 MLOAD PUSH3 0x461BCD PUSH1 0xE5 SHL DUP2 MSTORE PUSH1 0x20 PUSH1 0x4 DUP3 ADD DUP2 SWAP1 MSTORE PUSH1 0x24 DUP3 ADD MSTORE PUSH32 0x4245453A206275726E20616D6F756E7420657863656564732062616C616E6365 PUSH1 0x44 DUP3 ADD MSTORE PUSH1 0x64 ADD PUSH2 0x675 JUMP JUMPDEST PUSH1 0x1 PUSH1 0x1 PUSH1 0xA0 SHL SUB DUP4 AND PUSH1 0x0 SWAP1 DUP2 MSTORE PUSH1 0x1 PUSH1 0x20 MSTORE PUSH1 0x40 DUP2 KECCAK256 DUP4 DUP4 SUB SWAP1 SSTORE PUSH1 0x3 DUP1 SLOAD DUP5 SWAP3 SWAP1 PUSH2 0x1018 SWAP1 DUP5 SWAP1 PUSH2 0x12BE JUMP JUMPDEST SWAP1 SWAP2 SSTORE POP POP PUSH1 0x40 MLOAD DUP3 DUP2 MSTORE PUSH1 0x0 SWAP1 PUSH1 0x1 PUSH1 0x1 PUSH1 0xA0 SHL SUB DUP6 AND SWAP1 PUSH32 0xDDF252AD1BE2C89B69C2B068FC378DAA952BA7F163C4A11628F55A4DF523B3EF SWAP1 PUSH1 0x20 ADD PUSH2 0xC1D JUMP JUMPDEST PUSH1 0x0 DUP1 SLOAD PUSH1 0x1 PUSH1 0x1 PUSH1 0xA0 SHL SUB DUP4 DUP2 AND PUSH1 0x1 PUSH1 0x1 PUSH1 0xA0 SHL SUB NOT DUP4 AND DUP2 OR DUP5 SSTORE PUSH1 0x40 MLOAD SWAP2 SWAP1 SWAP3 AND SWAP3 DUP4 SWAP2 PUSH32 0x8BE0079C531659141344CD1FD0A4F28419497F9722A3DAAFE3B4186F6B6457E0 SWAP2 SWAP1 LOG3 POP POP JUMP JUMPDEST PUSH1 0x0 PUSH2 0x10B7 DUP3 DUP5 PUSH2 0x12D1 JUMP JUMPDEST SWAP4 SWAP3 POP POP POP JUMP JUMPDEST PUSH1 0x0 PUSH2 0x10B7 DUP3 DUP5 PUSH2 0x12F3 JUMP JUMPDEST PUSH1 0x0 PUSH2 0x10B7 DUP3 DUP5 PUSH2 0x1237 JUMP JUMPDEST PUSH1 0x0 PUSH2 0x10B7 DUP3 DUP5 PUSH2 0x12BE JUMP JUMPDEST PUSH1 0x0 PUSH1 0x20 DUP1 DUP4 MSTORE DUP4 MLOAD DUP1 DUP3 DUP6 ADD MSTORE PUSH1 0x0 JUMPDEST DUP2 DUP2 LT ISZERO PUSH2 0x110F JUMPI DUP6 DUP2 ADD DUP4 ADD MLOAD DUP6 DUP3 ADD PUSH1 0x40 ADD MSTORE DUP3 ADD PUSH2 0x10F3 JUMP JUMPDEST POP PUSH1 0x0 PUSH1 0x40 DUP3 DUP7 ADD ADD MSTORE PUSH1 0x40 PUSH1 0x1F NOT PUSH1 0x1F DUP4 ADD AND DUP6 ADD ADD SWAP3 POP POP POP SWAP3 SWAP2 POP POP JUMP JUMPDEST PUSH1 0x1 PUSH1 0x1 PUSH1 0xA0 SHL SUB DUP2 AND DUP2 EQ PUSH2 0x6DC JUMPI PUSH1 0x0 DUP1 REVERT JUMPDEST PUSH1 0x0 DUP1 PUSH1 0x40 DUP4 DUP6 SUB SLT ISZERO PUSH2 0x1158 JUMPI PUSH1 0x0 DUP1 REVERT JUMPDEST DUP3 CALLDATALOAD PUSH2 0x1163 DUP2 PUSH2 0x1130 JUMP JUMPDEST SWAP5 PUSH1 0x20 SWAP4 SWAP1 SWAP4 ADD CALLDATALOAD SWAP4 POP POP POP JUMP JUMPDEST PUSH1 0x0 DUP1 PUSH1 0x0 PUSH1 0x60 DUP5 DUP7 SUB SLT ISZERO PUSH2 0x1186 JUMPI PUSH1 0x0 DUP1 REVERT JUMPDEST DUP4 CALLDATALOAD PUSH2 0x1191 DUP2 PUSH2 0x1130 JUMP JUMPDEST SWAP3 POP PUSH1 0x20 DUP5 ADD CALLDATALOAD PUSH2 0x11A1 DUP2 PUSH2 0x1130 JUMP JUMPDEST SWAP3 SWAP6 SWAP3 SWAP5 POP POP POP PUSH1 0x40 SWAP2 SWAP1 SWAP2 ADD CALLDATALOAD SWAP1 JUMP JUMPDEST PUSH1 0x0 PUSH1 0x20 DUP3 DUP5 SUB SLT ISZERO PUSH2 0x11C4 JUMPI PUSH1 0x0 DUP1 REVERT JUMPDEST POP CALLDATALOAD SWAP2 SWAP1 POP JUMP JUMPDEST PUSH1 0x0 PUSH1 0x20 DUP3 DUP5 SUB SLT ISZERO PUSH2 0x11DD JUMPI PUSH1 0x0 DUP1 REVERT JUMPDEST DUP2 CALLDATALOAD PUSH2 0x10B7 DUP2 PUSH2 0x1130 JUMP JUMPDEST PUSH1 0x0 DUP1 PUSH1 0x40 DUP4 DUP6 SUB SLT ISZERO PUSH2 0x11FB JUMPI PUSH1 0x0 DUP1 REVERT JUMPDEST DUP3 CALLDATALOAD PUSH2 0x1206 DUP2 PUSH2 0x1130 JUMP JUMPDEST SWAP2 POP PUSH1 0x20 DUP4 ADD CALLDATALOAD PUSH2 0x1216 DUP2 PUSH2 0x1130 JUMP JUMPDEST DUP1 SWAP2 POP POP SWAP3 POP SWAP3 SWAP1 POP JUMP JUMPDEST PUSH4 0x4E487B71 PUSH1 0xE0 SHL PUSH1 0x0 MSTORE PUSH1 0x11 PUSH1 0x4 MSTORE PUSH1 0x24 PUSH1 0x0 REVERT JUMPDEST DUP1 DUP3 ADD DUP1 DUP3 GT ISZERO PUSH2 0x5E3 JUMPI PUSH2 0x5E3 PUSH2 0x1221 JUMP JUMPDEST PUSH1 0x20 DUP1 DUP3 MSTORE DUP2 DUP2 ADD MSTORE PUSH32 0x4F776E61626C653A2063616C6C6572206973206E6F7420746865206F776E6572 PUSH1 0x40 DUP3 ADD MSTORE PUSH1 0x60 ADD SWAP1 JUMP JUMPDEST PUSH1 0x0 PUSH1 0x20 DUP3 DUP5 SUB SLT ISZERO PUSH2 0x1291 JUMPI PUSH1 0x0 DUP1 REVERT JUMPDEST DUP2 MLOAD DUP1 ISZERO ISZERO DUP2 EQ PUSH2 0x10B7 JUMPI PUSH1 0x0 DUP1 REVERT JUMPDEST PUSH1 0x0 PUSH1 0x20 DUP3 DUP5 SUB SLT ISZERO PUSH2 0x12B3 JUMPI PUSH1 0x0 DUP1 REVERT JUMPDEST DUP2 MLOAD PUSH2 0x10B7 DUP2 PUSH2 0x1130 JUMP JUMPDEST DUP2 DUP2 SUB DUP2 DUP2 GT ISZERO PUSH2 0x5E3 JUMPI PUSH2 0x5E3 PUSH2 0x1221 JUMP JUMPDEST PUSH1 0x0 DUP3 PUSH2 0x12EE JUMPI PUSH4 0x4E487B71 PUSH1 0xE0 SHL PUSH1 0x0 MSTORE PUSH1 0x12 PUSH1 0x4 MSTORE PUSH1 0x24 PUSH1 0x0 REVERT JUMPDEST POP DIV SWAP1 JUMP JUMPDEST DUP1 DUP3 MUL DUP2 ISZERO DUP3 DUP3 DIV DUP5 EQ OR PUSH2 0x5E3 JUMPI PUSH2 0x5E3 PUSH2 0x1221 JUMP INVALID LOG2 PUSH5 0x6970667358 0x22 SLT KECCAK256 SELFDESTRUCT 0xC3 0xEA SWAP1 PUSH12 0xE2310CA264E479F25359DFC 0xA9 0xE8 0xCA SIGNEXTEND ADD DUP1 SIGNEXTEND PUSH23 0xAF66345C0681E464736F6C63430008110033DDF252AD1B 0xE2 0xC8 SWAP12 PUSH10 0xC2B068FC378DAA952BA7 CALL PUSH4 0xC4A11628 CREATE2 GAS 0x4D CREATE2 0x23 0xB3 0xEF "
				},
				"gasEstimates": {
					"creation": {
						"codeDepositCost": "985600",
						"executionCost": "infinite",
						"totalCost": "infinite"
					},
					"external": {
						"DEXs(address)": "2569",
						"addDex(address)": "29029",
						"allowance(address,address)": "infinite",
						"approve(address,uint256)": "24568",
						"balanceOf(address)": "2620",
						"burn(uint256)": "50953",
						"decimals()": "223",
						"decreaseAllowance(address,uint256)": "26880",
						"deliver(address)": "infinite",
						"emergencyWithdraw()": "infinite",
						"emergencyWithdrawToken(address,uint256)": "infinite",
						"increaseAllowance(address,uint256)": "infinite",
						"marketAddress()": "2427",
						"name()": "infinite",
						"owner()": "2399",
						"renounceOwnership()": "28225",
						"setExcludeds(address)": "29082",
						"setMarketAddress(address)": "26815",
						"symbol()": "infinite",
						"totalSupply()": "2371",
						"transfer(address,uint256)": "infinite",
						"transferFrom(address,address,uint256)": "infinite",
						"transferOwnership(address)": "infinite",
						"uniswapUsdtV2Pair()": "infinite",
						"uniswapV2Pair()": "infinite",
						"uniswapV2Router()": "infinite",
						"usdtMintAddress()": "2383"
					},
					"internal": {
						"_approve(address,address,uint256)": "infinite",
						"_burn(address,uint256)": "infinite",
						"_mint(address,uint256)": "infinite",
						"_transfer(address,address,uint256)": "infinite"
					}
				},
				"methodIdentifiers": {
					"DEXs(address)": "dec1a6f6",
					"addDex(address)": "536db266",
					"allowance(address,address)": "dd62ed3e",
					"approve(address,uint256)": "095ea7b3",
					"balanceOf(address)": "70a08231",
					"burn(uint256)": "42966c68",
					"decimals()": "313ce567",
					"decreaseAllowance(address,uint256)": "a457c2d7",
					"deliver(address)": "e515cd38",
					"emergencyWithdraw()": "db2e21bc",
					"emergencyWithdrawToken(address,uint256)": "a4c3b091",
					"increaseAllowance(address,uint256)": "39509351",
					"marketAddress()": "95623641",
					"name()": "06fdde03",
					"owner()": "8da5cb5b",
					"renounceOwnership()": "715018a6",
					"setExcludeds(address)": "a8808fcc",
					"setMarketAddress(address)": "fae92612",
					"symbol()": "95d89b41",
					"totalSupply()": "18160ddd",
					"transfer(address,uint256)": "a9059cbb",
					"transferFrom(address,address,uint256)": "23b872dd",
					"transferOwnership(address)": "f2fde38b",
					"uniswapUsdtV2Pair()": "2aafa283",
					"uniswapV2Pair()": "49bd5a5e",
					"uniswapV2Router()": "1694505e",
					"usdtMintAddress()": "88af60c6"
				}
			},
			"storageLayout": {
				"storage": [
					{
						"astId": 47,
						"contract": "inviter_presell/token.sol:Bee",
						"label": "_owner",
						"offset": 0,
						"slot": "0",
						"type": "t_address"
					},
					{
						"astId": 854,
						"contract": "inviter_presell/token.sol:Bee",
						"label": "_balances",
						"offset": 0,
						"slot": "1",
						"type": "t_mapping(t_address,t_uint256)"
					},
					{
						"astId": 860,
						"contract": "inviter_presell/token.sol:Bee",
						"label": "_allowances",
						"offset": 0,
						"slot": "2",
						"type": "t_mapping(t_address,t_mapping(t_address,t_uint256))"
					},
					{
						"astId": 862,
						"contract": "inviter_presell/token.sol:Bee",
						"label": "_totalSupply",
						"offset": 0,
						"slot": "3",
						"type": "t_uint256"
					},
					{
						"astId": 864,
						"contract": "inviter_presell/token.sol:Bee",
						"label": "_name",
						"offset": 0,
						"slot": "4",
						"type": "t_string_storage"
					},
					{
						"astId": 866,
						"contract": "inviter_presell/token.sol:Bee",
						"label": "_symbol",
						"offset": 0,
						"slot": "5",
						"type": "t_string_storage"
					},
					{
						"astId": 877,
						"contract": "inviter_presell/token.sol:Bee",
						"label": "_isExcludeds",
						"offset": 0,
						"slot": "6",
						"type": "t_mapping(t_address,t_bool)"
					},
					{
						"astId": 881,
						"contract": "inviter_presell/token.sol:Bee",
						"label": "DEXs",
						"offset": 0,
						"slot": "7",
						"type": "t_mapping(t_address,t_bool)"
					},
					{
						"astId": 884,
						"contract": "inviter_presell/token.sol:Bee",
						"label": "usdtMintAddress",
						"offset": 0,
						"slot": "8",
						"type": "t_address"
					},
					{
						"astId": 887,
						"contract": "inviter_presell/token.sol:Bee",
						"label": "marketAddress",
						"offset": 0,
						"slot": "9",
						"type": "t_address"
					}
				],
				"types": {
					"t_address": {
						"encoding": "inplace",
						"label": "address",
						"numberOfBytes": "20"
					},
					"t_bool": {
						"encoding": "inplace",
						"label": "bool",
						"numberOfBytes": "1"
					},
					"t_mapping(t_address,t_bool)": {
						"encoding": "mapping",
						"key": "t_address",
						"label": "mapping(address => bool)",
						"numberOfBytes": "32",
						"value": "t_bool"
					},
					"t_mapping(t_address,t_mapping(t_address,t_uint256))": {
						"encoding": "mapping",
						"key": "t_address",
						"label": "mapping(address => mapping(address => uint256))",
						"numberOfBytes": "32",
						"value": "t_mapping(t_address,t_uint256)"
					},
					"t_mapping(t_address,t_uint256)": {
						"encoding": "mapping",
						"key": "t_address",
						"label": "mapping(address => uint256)",
						"numberOfBytes": "32",
						"value": "t_uint256"
					},
					"t_string_storage": {
						"encoding": "bytes",
						"label": "string",
						"numberOfBytes": "32"
					},
					"t_uint256": {
						"encoding": "inplace",
						"label": "uint256",
						"numberOfBytes": "32"
					}
				}
			},
			"userdoc": {
				"kind": "user",
				"methods": {},
				"version": 1
			}
		}
	}
}