{
	"inviter_presell/token.sol": {
		"Bee": {
			"abi": [
				{
					"inputs": [],
					"stateMutability": "nonpayable",
					"type": "constructor"
				},
				{
					"anonymous": false,
					"inputs": [
						{
							"indexed": true,
							"internalType": "address",
							"name": "owner",
							"type": "address"
						},
						{
							"indexed": true,
							"internalType": "address",
							"name": "spender",
							"type": "address"
						},
						{
							"indexed": false,
							"internalType": "uint256",
							"name": "value",
							"type": "uint256"
						}
					],
					"name": "Approval",
					"type": "event"
				},
				{
					"anonymous": false,
					"inputs": [
						{
							"indexed": true,
							"internalType": "address",
							"name": "previousOwner",
							"type": "address"
						},
						{
							"indexed": true,
							"internalType": "address",
							"name": "newOwner",
							"type": "address"
						}
					],
					"name": "OwnershipTransferred",
					"type": "event"
				},
				{
					"anonymous": false,
					"inputs": [
						{
							"indexed": true,
							"internalType": "address",
							"name": "from",
							"type": "address"
						},
						{
							"indexed": true,
							"internalType": "address",
							"name": "to",
							"type": "address"
						},
						{
							"indexed": false,
							"internalType": "uint256",
							"name": "value",
							"type": "uint256"
						}
					],
					"name": "Transfer",
					"type": "event"
				},
				{
					"inputs": [
						{
							"internalType": "address",
							"name": "",
							"type": "address"
						}
					],
					"name": "DEXs",
					"outputs": [
						{
							"internalType": "bool",
							"name": "",
							"type": "bool"
						}
					],
					"stateMutability": "view",
					"type": "function"
				},
				{
					"inputs": [
						{
							"internalType": "address",
							"name": "_pair",
							"type": "address"
						}
					],
					"name": "addDex",
					"outputs": [],
					"stateMutability": "nonpayable",
					"type": "function"
				},
				{
					"inputs": [
						{
							"internalType": "address",
							"name": "owner",
							"type": "address"
						},
						{
							"internalType": "address",
							"name": "spender",
							"type": "address"
						}
					],
					"name": "allowance",
					"outputs": [
						{
							"internalType": "uint256",
							"name": "",
							"type": "uint256"
						}
					],
					"stateMutability": "view",
					"type": "function"
				},
				{
					"inputs": [
						{
							"internalType": "address",
							"name": "spender",
							"type": "address"
						},
						{
							"internalType": "uint256",
							"name": "amount",
							"type": "uint256"
						}
					],
					"name": "approve",
					"outputs": [
						{
							"internalType": "bool",
							"name": "",
							"type": "bool"
						}
					],
					"stateMutability": "nonpayable",
					"type": "function"
				},
				{
					"inputs": [
						{
							"internalType": "address",
							"name": "account",
							"type": "address"
						}
					],
					"name": "balanceOf",
					"outputs": [
						{
							"internalType": "uint256",
							"name": "",
							"type": "uint256"
						}
					],
					"stateMutability": "view",
					"type": "function"
				},
				{
					"inputs": [
						{
							"internalType": "uint256",
							"name": "amount",
							"type": "uint256"
						}
					],
					"name": "burn",
					"outputs": [],
					"stateMutability": "nonpayable",
					"type": "function"
				},
				{
					"inputs": [],
					"name": "decimals",
					"outputs": [
						{
							"internalType": "uint8",
							"name": "",
							"type": "uint8"
						}
					],
					"stateMutability": "view",
					"type": "function"
				},
				{
					"inputs": [
						{
							"internalType": "address",
							"name": "spender",
							"type": "address"
						},
						{
							"internalType": "uint256",
							"name": "subtractedValue",
							"type": "uint256"
						}
					],
					"name": "decreaseAllowance",
					"outputs": [
						{
							"internalType": "bool",
							"name": "",
							"type": "bool"
						}
					],
					"stateMutability": "nonpayable",
					"type": "function"
				},
				{
					"inputs": [
						{
							"internalType": "address",
							"name": "_lp",
							"type": "address"
						}
					],
					"name": "deliver",
					"outputs": [],
					"stateMutability": "nonpayable",
					"type": "function"
				},
				{
					"inputs": [],
					"name": "emergencyWithdraw",
					"outputs": [],
					"stateMutability": "nonpayable",
					"type": "function"
				},
				{
					"inputs": [
						{
							"internalType": "address",
							"name": "token",
							"type": "address"
						},
						{
							"internalType": "uint256",
							"name": "amount",
							"type": "uint256"
						}
					],
					"name": "emergencyWithdrawToken",
					"outputs": [],
					"stateMutability": "nonpayable",
					"type": "function"
				},
				{
					"inputs": [
						{
							"internalType": "address",
							"name": "spender",
							"type": "address"
						},
						{
							"internalType": "uint256",
							"name": "addedValue",
							"type": "uint256"
						}
					],
					"name": "increaseAllowance",
					"outputs": [
						{
							"internalType": "bool",
							"name": "",
							"type": "bool"
						}
					],
					"stateMutability": "nonpayable",
					"type": "function"
				},
				{
					"inputs": [],
					"name": "marketAddress",
					"outputs": [
						{
							"internalType": "address",
							"name": "",
							"type": "address"
						}
					],
					"stateMutability": "view",
					"type": "function"
				},
				{
					"inputs": [],
					"name": "name",
					"outputs": [
						{
							"internalType": "string",
							"name": "",
							"type": "string"
						}
					],
					"stateMutability": "view",
					"type": "function"
				},
				{
					"inputs": [],
					"name": "owner",
					"outputs": [
						{
							"internalType": "address",
							"name": "",
							"type": "address"
						}
					],
					"stateMutability": "view",
					"type": "function"
				},
				{
					"inputs": [],
					"name": "renounceOwnership",
					"outputs": [],
					"stateMutability": "nonpayable",
					"type": "function"
				},
				{
					"inputs": [
						{
							"internalType": "address",
							"name": "addr",
							"type": "address"
						}
					],
					"name": "setExcludeds",
					"outputs": [],
					"stateMutability": "nonpayable",
					"type": "function"
				},
				{
					"inputs": [
						{
							"internalType": "address",
							"name": "addr",
							"type": "address"
						}
					],
					"name": "setMarketAddress",
					"outputs": [],
					"stateMutability": "nonpayable",
					"type": "function"
				},
				{
					"inputs": [],
					"name": "symbol",
					"outputs": [
						{
							"internalType": "string",
							"name": "",
							"type": "string"
						}
					],
					"stateMutability": "view",
					"type": "function"
				},
				{
					"inputs": [],
					"name": "totalSupply",
					"outputs": [
						{
							"internalType": "uint256",
							"name": "",
							"type": "uint256"
						}
					],
					"stateMutability": "view",
					"type": "function"
				},
				{
					"inputs": [
						{
							"internalType": "address",
							"name": "recipient",
							"type": "address"
						},
						{
							"internalType": "uint256",
							"name": "amount",
							"type": "uint256"
						}
					],
					"name": "transfer",
					"outputs": [
						{
							"internalType": "bool",
							"name": "",
							"type": "bool"
						}
					],
					"stateMutability": "nonpayable",
					"type": "function"
				},
				{
					"inputs": [
						{
							"internalType": "address",
							"name": "sender",
							"type": "address"
						},
						{
							"internalType": "address",
							"name": "recipient",
							"type": "address"
						},
						{
							"internalType": "uint256",
							"name": "amount",
							"type": "uint256"
						}
					],
					"name": "transferFrom",
					"outputs": [
						{
							"internalType": "bool",
							"name": "",
							"type": "bool"
						}
					],
					"stateMutability": "nonpayable",
					"type": "function"
				},
				{
					"inputs": [
						{
							"internalType": "address",
							"name": "newOwner",
							"type": "address"
						}
					],
					"name": "transferOwnership",
					"outputs": [],
					"stateMutability": "nonpayable",
					"type": "function"
				},
				{
					"inputs": [],
					"name": "uniswapUsdtV2Pair",
					"outputs": [
						{
							"internalType": "address",
							"name": "",
							"type": "address"
						}
					],
					"stateMutability": "view",
					"type": "function"
				},
				{
					"inputs": [],
					"name": "uniswapV2Pair",
					"outputs": [
						{
							"internalType": "address",
							"name": "",
							"type": "address"
						}
					],
					"stateMutability": "view",
					"type": "function"
				},
				{
					"inputs": [],
					"name": "uniswapV2Router",
					"outputs": [
						{
							"internalType": "contract IPancakeSwapV2Router02",
							"name": "",
							"type": "address"
						}
					],
					"stateMutability": "view",
					"type": "function"
				},
				{
					"inputs": [],
					"name": "usdtMintAddress",
					"outputs": [
						{
							"internalType": "address",
							"name": "",
							"type": "address"
						}
					],
					"stateMutability": "view",
					"type": "function"
				},
				{
					"stateMutability": "payable",
					"type": "receive"
				}
			],
			"devdoc": {
				"kind": "dev",
				"methods": {
					"allowance(address,address)": {
						"details": "Returns the remaining number of tokens that `spender` will be allowed to spend on behalf of `owner` through {transferFrom}. This is zero by default. This value changes when {approve} or {transferFrom} are called."
					},
					"approve(address,uint256)": {
						"details": "Sets `amount` as the allowance of `spender` over the caller's tokens. Returns a boolean value indicating whether the operation succeeded. IMPORTANT: Beware that changing an allowance with this method brings the risk that someone may use both the old and the new allowance by unfortunate transaction ordering. One possible solution to mitigate this race condition is to first reduce the spender's allowance to 0 and set the desired value afterwards: https://github.com/ethereum/EIPs/issues/20#issuecomment-263524729 Emits an {Approval} event."
					},
					"balanceOf(address)": {
						"details": "Returns the amount of tokens owned by `account`."
					},
					"owner()": {
						"details": "Returns the address of the current owner."
					},
					"renounceOwnership()": {
						"details": "Leaves the contract without owner. It will not be possible to call `onlyOwner` functions anymore. Can only be called by the current owner. NOTE: Renouncing ownership will leave the contract without an owner, thereby removing any functionality that is only available to the owner."
					},
					"totalSupply()": {
						"details": "Returns the amount of tokens in existence."
					},
					"transfer(address,uint256)": {
						"details": "Moves `amount` tokens from the caller's account to `recipient`. Returns a boolean value indicating whether the operation succeeded. Emits a {Transfer} event."
					},
					"transferFrom(address,address,uint256)": {
						"details": "Moves `amount` tokens from `sender` to `recipient` using the allowance mechanism. `amount` is then deducted from the caller's allowance. Returns a boolean value indicating whether the operation succeeded. Emits a {Transfer} event."
					},
					"transferOwnership(address)": {
						"details": "Transfers ownership of the contract to a new account (`newOwner`). Can only be called by the current owner."
					}
				},
				"version": 1
			},
			"evm": {
				"assembly": "    /* \"inviter_presell/token.sol\":11039:18074  contract Bee is Context1, IERC20, IERC20Metadata, Ownable{... */\n  mstore(0x40, 0xe0)\n    /* \"inviter_presell/token.sol\":11756:11831  address public usdtMintAddress = 0x7ef95a0FEE0Dd31b22626fA2e10Ee6A223F8a684 */\n  0x08\n  dup1\n  sload\n  not(sub(shl(0xa0, 0x01), 0x01))\n  swap1\n  dup2\n  and\n    /* \"inviter_presell/token.sol\":11789:11831  0x7ef95a0FEE0Dd31b22626fA2e10Ee6A223F8a684 */\n  0x7ef95a0fee0dd31b22626fa2e10ee6a223f8a684\n    /* \"inviter_presell/token.sol\":11756:11831  address public usdtMintAddress = 0x7ef95a0FEE0Dd31b22626fA2e10Ee6A223F8a684 */\n  or\n  swap1\n  swap2\n  sstore\n    /* \"inviter_presell/token.sol\":11838:11911  address public marketAddress = 0xcBB44600F5828A15cF130Abb73Ce5E85ac49D08F */\n  0x09\n  dup1\n  sload\n  swap1\n  swap2\n  and\n    /* \"inviter_presell/token.sol\":11869:11911  0xcBB44600F5828A15cF130Abb73Ce5E85ac49D08F */\n  0xcbb44600f5828a15cf130abb73ce5e85ac49d08f\n    /* \"inviter_presell/token.sol\":11838:11911  address public marketAddress = 0xcBB44600F5828A15cF130Abb73Ce5E85ac49D08F */\n  or\n  swap1\n  sstore\n    /* \"inviter_presell/token.sol\":11924:12737  constructor () {... */\n  callvalue\n  dup1\n  iszero\n  tag_1\n  jumpi\n  0x00\n  dup1\n  revert\ntag_1:\n  pop\n    /* \"inviter_presell/token.sol\":1125:1157  _transferOwnership(_msgSender()) */\n  tag_5\n    /* \"inviter_presell/token.sol\":687:697  msg.sender */\n  caller\n    /* \"inviter_presell/token.sol\":1125:1143  _transferOwnership */\n  tag_8\n    /* \"inviter_presell/token.sol\":1125:1157  _transferOwnership(_msgSender()) */\n  jump\t// in\ntag_5:\n    /* \"inviter_presell/token.sol\":11950:11984  _mint(_msgSender(), 210000 * 1e18) */\n  tag_10\n    /* \"inviter_presell/token.sol\":687:697  msg.sender */\n  caller\n    /* \"inviter_presell/token.sol\":11970:11983  210000 * 1e18 */\n  0x2c781f708c509f400000\n    /* \"inviter_presell/token.sol\":11950:11955  _mint */\n  tag_12\n    /* \"inviter_presell/token.sol\":11950:11984  _mint(_msgSender(), 210000 * 1e18) */\n  jump\t// in\ntag_10:\n    /* \"inviter_presell/token.sol\":12198:12237  IPancakeSwapV2Router02 _uniswapV2Router */\n  0x00\n    /* \"inviter_presell/token.sol\":12263:12305  0x9Ac64Cc6e4415144C455BD8E4837Fea55603e5c3 */\n  0x9ac64cc6e4415144c455bd8e4837fea55603e5c3\n    /* \"inviter_presell/token.sol\":12198:12306  IPancakeSwapV2Router02 _uniswapV2Router = IPancakeSwapV2Router02(0x9Ac64Cc6e4415144C455BD8E4837Fea55603e5c3) */\n  swap1\n  pop\n    /* \"inviter_presell/token.sol\":12355:12371  _uniswapV2Router */\n  dup1\n  sub(shl(0xa0, 0x01), 0x01)\n    /* \"inviter_presell/token.sol\":12355:12379  _uniswapV2Router.factory */\n  and\n  0xc45a0155\n    /* \"inviter_presell/token.sol\":12355:12381  _uniswapV2Router.factory() */\n  mload(0x40)\n  dup2\n  0xffffffff\n  and\n  0xe0\n  shl\n  dup2\n  mstore\n  0x04\n  add\n  0x20\n  mload(0x40)\n  dup1\n  dup4\n  sub\n  dup2\n  dup7\n  gas\n  staticcall\n  iszero\n  dup1\n  iszero\n  tag_14\n  jumpi\n  returndatasize\n  0x00\n  dup1\n  returndatacopy\n  revert(0x00, returndatasize)\ntag_14:\n  pop\n  pop\n  pop\n  pop\n  mload(0x40)\n  returndatasize\n  not(0x1f)\n  0x1f\n  dup3\n  add\n  and\n  dup3\n  add\n  dup1\n  0x40\n  mstore\n  pop\n  dup2\n  add\n  swap1\n  tag_15\n  swap2\n  swap1\n  tag_16\n  jump\t// in\ntag_15:\n  sub(shl(0xa0, 0x01), 0x01)\n    /* \"inviter_presell/token.sol\":12333:12407  IPancakeSwapV2Factory(_uniswapV2Router.factory())... */\n  and\n  0xc9c65396\n    /* \"inviter_presell/token.sol\":12416:12420  this */\n  address\n    /* \"inviter_presell/token.sol\":12423:12439  _uniswapV2Router */\n  dup4\n  sub(shl(0xa0, 0x01), 0x01)\n    /* \"inviter_presell/token.sol\":12423:12444  _uniswapV2Router.WETH */\n  and\n  0xad5c4648\n    /* \"inviter_presell/token.sol\":12423:12446  _uniswapV2Router.WETH() */\n  mload(0x40)\n  dup2\n  0xffffffff\n  and\n  0xe0\n  shl\n  dup2\n  mstore\n  0x04\n  add\n  0x20\n  mload(0x40)\n  dup1\n  dup4\n  sub\n  dup2\n  dup7\n  gas\n  staticcall\n  iszero\n  dup1\n  iszero\n  tag_18\n  jumpi\n  returndatasize\n  0x00\n  dup1\n  returndatacopy\n  revert(0x00, returndatasize)\ntag_18:\n  pop\n  pop\n  pop\n  pop\n  mload(0x40)\n  returndatasize\n  not(0x1f)\n  0x1f\n  dup3\n  add\n  and\n  dup3\n  add\n  dup1\n  0x40\n  mstore\n  pop\n  dup2\n  add\n  swap1\n  tag_19\n  swap2\n  swap1\n  tag_16\n  jump\t// in\ntag_19:\n    /* \"inviter_presell/token.sol\":12333:12447  IPancakeSwapV2Factory(_uniswapV2Router.factory())... */\n  mload(0x40)\n  not(sub(shl(0xe0, 0x01), 0x01))\n  0xe0\n  dup6\n  swap1\n  shl\n  and\n  dup2\n  mstore\n  sub(shl(0xa0, 0x01), 0x01)\n    /* \"#utility.yul\":539:554   */\n  swap3\n  dup4\n  and\n    /* \"inviter_presell/token.sol\":12333:12447  IPancakeSwapV2Factory(_uniswapV2Router.factory())... */\n  0x04\n  dup3\n  add\n    /* \"#utility.yul\":521:555   */\n  mstore\n    /* \"#utility.yul\":591:606   */\n  swap2\n  and\n    /* \"#utility.yul\":571:589   */\n  0x24\n  dup3\n  add\n    /* \"#utility.yul\":564:607   */\n  mstore\n    /* \"#utility.yul\":456:474   */\n  0x44\n  add\n    /* \"inviter_presell/token.sol\":12333:12447  IPancakeSwapV2Factory(_uniswapV2Router.factory())... */\n  0x20\n  mload(0x40)\n  dup1\n  dup4\n  sub\n  dup2\n  0x00\n  dup8\n  gas\n  call\n  iszero\n  dup1\n  iszero\n  tag_23\n  jumpi\n  returndatasize\n  0x00\n  dup1\n  returndatacopy\n  revert(0x00, returndatasize)\ntag_23:\n  pop\n  pop\n  pop\n  pop\n  mload(0x40)\n  returndatasize\n  not(0x1f)\n  0x1f\n  dup3\n  add\n  and\n  dup3\n  add\n  dup1\n  0x40\n  mstore\n  pop\n  dup2\n  add\n  swap1\n  tag_24\n  swap2\n  swap1\n  tag_16\n  jump\t// in\ntag_24:\n  sub(shl(0xa0, 0x01), 0x01)\n    /* \"inviter_presell/token.sol\":12317:12447  uniswapV2Pair = IPancakeSwapV2Factory(_uniswapV2Router.factory())... */\n  and\n  0xa0\n  dup2\n  sub(shl(0xa0, 0x01), 0x01)\n  and\n  dup2\n  mstore\n  pop\n  pop\n    /* \"inviter_presell/token.sol\":12502:12518  _uniswapV2Router */\n  dup1\n  sub(shl(0xa0, 0x01), 0x01)\n    /* \"inviter_presell/token.sol\":12502:12526  _uniswapV2Router.factory */\n  and\n  0xc45a0155\n    /* \"inviter_presell/token.sol\":12502:12528  _uniswapV2Router.factory() */\n  mload(0x40)\n  dup2\n  0xffffffff\n  and\n  0xe0\n  shl\n  dup2\n  mstore\n  0x04\n  add\n  0x20\n  mload(0x40)\n  dup1\n  dup4\n  sub\n  dup2\n  dup7\n  gas\n  staticcall\n  iszero\n  dup1\n  iszero\n  tag_26\n  jumpi\n  returndatasize\n  0x00\n  dup1\n  returndatacopy\n  revert(0x00, returndatasize)\ntag_26:\n  pop\n  pop\n  pop\n  pop\n  mload(0x40)\n  returndatasize\n  not(0x1f)\n  0x1f\n  dup3\n  add\n  and\n  dup3\n  add\n  dup1\n  0x40\n  mstore\n  pop\n  dup2\n  add\n  swap1\n  tag_27\n  swap2\n  swap1\n  tag_16\n  jump\t// in\ntag_27:\n    /* \"inviter_presell/token.sol\":12570:12585  usdtMintAddress */\n  sload(0x08)\n    /* \"inviter_presell/token.sol\":12480:12586  IPancakeSwapV2Factory(_uniswapV2Router.factory())... */\n  mload(0x40)\n  shl(0xe1, 0x64e329cb)\n  dup2\n  mstore\n    /* \"inviter_presell/token.sol\":12563:12567  this */\n  address\n    /* \"inviter_presell/token.sol\":12480:12586  IPancakeSwapV2Factory(_uniswapV2Router.factory())... */\n  0x04\n  dup3\n  add\n    /* \"#utility.yul\":521:555   */\n  mstore\n  sub(shl(0xa0, 0x01), 0x01)\n    /* \"inviter_presell/token.sol\":12570:12585  usdtMintAddress */\n  swap2\n  dup3\n  and\n    /* \"#utility.yul\":571:589   */\n  0x24\n  dup3\n  add\n    /* \"#utility.yul\":564:607   */\n  mstore\n    /* \"inviter_presell/token.sol\":12480:12554  IPancakeSwapV2Factory(_uniswapV2Router.factory())... */\n  swap2\n  and\n  swap1\n  0xc9c65396\n  swap1\n    /* \"#utility.yul\":456:474   */\n  0x44\n  add\n    /* \"inviter_presell/token.sol\":12480:12586  IPancakeSwapV2Factory(_uniswapV2Router.factory())... */\n  0x20\n  mload(0x40)\n  dup1\n  dup4\n  sub\n  dup2\n  0x00\n  dup8\n  gas\n  call\n  iszero\n  dup1\n  iszero\n  tag_30\n  jumpi\n  returndatasize\n  0x00\n  dup1\n  returndatacopy\n  revert(0x00, returndatasize)\ntag_30:\n  pop\n  pop\n  pop\n  pop\n  mload(0x40)\n  returndatasize\n  not(0x1f)\n  0x1f\n  dup3\n  add\n  and\n  dup3\n  add\n  dup1\n  0x40\n  mstore\n  pop\n  dup2\n  add\n  swap1\n  tag_31\n  swap2\n  swap1\n  tag_16\n  jump\t// in\ntag_31:\n  sub(shl(0xa0, 0x01), 0x01)\n    /* \"inviter_presell/token.sol\":12460:12586  uniswapUsdtV2Pair = IPancakeSwapV2Factory(_uniswapV2Router.factory())... */\n  swap1\n  dup2\n  and\n  0xc0\n  dup2\n  swap1\n  mstore\n    /* \"inviter_presell/token.sol\":12599:12633  uniswapV2Router = _uniswapV2Router */\n  swap2\n  dup2\n  and\n  0x80\n  mstore\n    /* \"inviter_presell/token.sol\":12657:12670  uniswapV2Pair */\n  mload(0xa0)\n    /* \"inviter_presell/token.sol\":12644:12672  DEXs[address(uniswapV2Pair)] */\n  and\n  0x00\n  swap1\n  dup2\n  mstore\n    /* \"inviter_presell/token.sol\":12644:12648  DEXs */\n  0x07\n    /* \"inviter_presell/token.sol\":12644:12672  DEXs[address(uniswapV2Pair)] */\n  0x20\n  mstore\n  0x40\n  dup1\n  dup3\n  keccak256\n    /* \"inviter_presell/token.sol\":12644:12679  DEXs[address(uniswapV2Pair)] = true */\n  dup1\n  sload\n    /* \"inviter_presell/token.sol\":12675:12679  true */\n  0x01\n  not(0xff)\n    /* \"inviter_presell/token.sol\":12644:12679  DEXs[address(uniswapV2Pair)] = true */\n  swap2\n  dup3\n  and\n  dup2\n  or\n  swap1\n  swap3\n  sstore\n    /* \"inviter_presell/token.sol\":12690:12722  DEXs[address(uniswapUsdtV2Pair)] */\n  swap4\n  dup4\n  mstore\n  swap2\n  keccak256\n    /* \"inviter_presell/token.sol\":12690:12729  DEXs[address(uniswapUsdtV2Pair)] = true */\n  dup1\n  sload\n  swap1\n  swap3\n  and\n  or\n  swap1\n  sstore\n    /* \"inviter_presell/token.sol\":11039:18074  contract Bee is Context1, IERC20, IERC20Metadata, Ownable{... */\n  jump(tag_41)\n    /* \"inviter_presell/token.sol\":2516:2707  function _transferOwnership(address newOwner) internal virtual {... */\ntag_8:\n    /* \"inviter_presell/token.sol\":2590:2606  address oldOwner */\n  0x00\n    /* \"inviter_presell/token.sol\":2609:2615  _owner */\n  dup1\n  sload\n  sub(shl(0xa0, 0x01), 0x01)\n    /* \"inviter_presell/token.sol\":2626:2643  _owner = newOwner */\n  dup4\n  dup2\n  and\n  not(sub(shl(0xa0, 0x01), 0x01))\n  dup4\n  and\n  dup2\n  or\n  dup5\n  sstore\n    /* \"inviter_presell/token.sol\":2659:2699  OwnershipTransferred(oldOwner, newOwner) */\n  mload(0x40)\n    /* \"inviter_presell/token.sol\":2609:2615  _owner */\n  swap2\n  swap1\n  swap3\n  and\n  swap3\n  dup4\n  swap2\n    /* \"inviter_presell/token.sol\":2659:2699  OwnershipTransferred(oldOwner, newOwner) */\n  0x8be0079c531659141344cd1fd0a4f28419497f9722a3daafe3b4186f6b6457e0\n  swap2\n    /* \"inviter_presell/token.sol\":2590:2606  address oldOwner */\n  swap1\n    /* \"inviter_presell/token.sol\":2659:2699  OwnershipTransferred(oldOwner, newOwner) */\n  log3\n    /* \"inviter_presell/token.sol\":2579:2707  {... */\n  pop\n    /* \"inviter_presell/token.sol\":2516:2707  function _transferOwnership(address newOwner) internal virtual {... */\n  pop\n  jump\t// out\n    /* \"inviter_presell/token.sol\":16166:16364  function _mint(address account, uint256 amount) internal virtual {... */\ntag_12:\n  sub(shl(0xa0, 0x01), 0x01)\n    /* \"inviter_presell/token.sol\":16242:16260  _balances[account] */\n  dup3\n  and\n  0x00\n  swap1\n  dup2\n  mstore\n    /* \"inviter_presell/token.sol\":16242:16251  _balances */\n  0x01\n    /* \"inviter_presell/token.sol\":16242:16260  _balances[account] */\n  0x20\n  mstore\n  0x40\n  dup2\n  keccak256\n    /* \"inviter_presell/token.sol\":16242:16270  _balances[account] += amount */\n  dup1\n  sload\n    /* \"inviter_presell/token.sol\":16264:16270  amount */\n  dup4\n  swap3\n    /* \"inviter_presell/token.sol\":16242:16260  _balances[account] */\n  swap1\n    /* \"inviter_presell/token.sol\":16242:16270  _balances[account] += amount */\n  tag_36\n  swap1\n    /* \"inviter_presell/token.sol\":16264:16270  amount */\n  dup5\n  swap1\n    /* \"inviter_presell/token.sol\":16242:16270  _balances[account] += amount */\n  tag_37\n  jump\t// in\ntag_36:\n  swap3\n  pop\n  pop\n  dup2\n  swap1\n  sstore\n  pop\n    /* \"inviter_presell/token.sol\":16297:16303  amount */\n  dup1\n    /* \"inviter_presell/token.sol\":16281:16293  _totalSupply */\n  0x03\n  0x00\n    /* \"inviter_presell/token.sol\":16281:16303  _totalSupply += amount */\n  dup3\n  dup3\n  sload\n  tag_38\n  swap2\n  swap1\n  tag_37\n  jump\t// in\ntag_38:\n  swap1\n  swap2\n  sstore\n  pop\n  pop\n    /* \"inviter_presell/token.sol\":16319:16356  Transfer(address(0), account, amount) */\n  mload(0x40)\n    /* \"#utility.yul\":991:1016   */\n  dup2\n  dup2\n  mstore\n  sub(shl(0xa0, 0x01), 0x01)\n    /* \"inviter_presell/token.sol\":16319:16356  Transfer(address(0), account, amount) */\n  dup4\n  and\n  swap1\n    /* \"inviter_presell/token.sol\":16336:16337  0 */\n  0x00\n  swap1\n    /* \"inviter_presell/token.sol\":16319:16356  Transfer(address(0), account, amount) */\n  0xddf252ad1be2c89b69c2b068fc378daa952ba7f163c4a11628f55a4df523b3ef\n  swap1\n    /* \"#utility.yul\":979:981   */\n  0x20\n    /* \"#utility.yul\":964:982   */\n  add\n    /* \"inviter_presell/token.sol\":16319:16356  Transfer(address(0), account, amount) */\n  mload(0x40)\n  dup1\n  swap2\n  sub\n  swap1\n  log3\n    /* \"inviter_presell/token.sol\":16166:16364  function _mint(address account, uint256 amount) internal virtual {... */\n  pop\n  pop\n  jump\t// out\n    /* \"#utility.yul\":14:304   */\ntag_16:\n    /* \"#utility.yul\":84:90   */\n  0x00\n    /* \"#utility.yul\":137:139   */\n  0x20\n    /* \"#utility.yul\":125:134   */\n  dup3\n    /* \"#utility.yul\":116:123   */\n  dup5\n    /* \"#utility.yul\":112:135   */\n  sub\n    /* \"#utility.yul\":108:140   */\n  slt\n    /* \"#utility.yul\":105:157   */\n  iszero\n  tag_43\n  jumpi\n    /* \"#utility.yul\":153:154   */\n  0x00\n    /* \"#utility.yul\":150:151   */\n  dup1\n    /* \"#utility.yul\":143:155   */\n  revert\n    /* \"#utility.yul\":105:157   */\ntag_43:\n    /* \"#utility.yul\":179:195   */\n  dup2\n  mload\n  sub(shl(0xa0, 0x01), 0x01)\n    /* \"#utility.yul\":224:255   */\n  dup2\n  and\n    /* \"#utility.yul\":214:256   */\n  dup2\n  eq\n    /* \"#utility.yul\":204:274   */\n  tag_44\n  jumpi\n    /* \"#utility.yul\":270:271   */\n  0x00\n    /* \"#utility.yul\":267:268   */\n  dup1\n    /* \"#utility.yul\":260:272   */\n  revert\n    /* \"#utility.yul\":204:274   */\ntag_44:\n    /* \"#utility.yul\":293:298   */\n  swap4\n    /* \"#utility.yul\":14:304   */\n  swap3\n  pop\n  pop\n  pop\n  jump\t// out\n    /* \"#utility.yul\":618:840   */\ntag_37:\n    /* \"#utility.yul\":683:692   */\n  dup1\n  dup3\n  add\n    /* \"#utility.yul\":704:714   */\n  dup1\n  dup3\n  gt\n    /* \"#utility.yul\":701:834   */\n  iszero\n  tag_47\n  jumpi\n    /* \"#utility.yul\":756:766   */\n  0x4e487b71\n    /* \"#utility.yul\":751:754   */\n  0xe0\n    /* \"#utility.yul\":747:767   */\n  shl\n    /* \"#utility.yul\":744:745   */\n  0x00\n    /* \"#utility.yul\":737:768   */\n  mstore\n    /* \"#utility.yul\":791:795   */\n  0x11\n    /* \"#utility.yul\":788:789   */\n  0x04\n    /* \"#utility.yul\":781:796   */\n  mstore\n    /* \"#utility.yul\":819:823   */\n  0x24\n    /* \"#utility.yul\":816:817   */\n  0x00\n    /* \"#utility.yul\":809:824   */\n  revert\n    /* \"#utility.yul\":701:834   */\ntag_47:\n    /* \"#utility.yul\":618:840   */\n  swap3\n  swap2\n  pop\n  pop\n  jump\t// out\n    /* \"#utility.yul\":845:1022   */\ntag_41:\n    /* \"inviter_presell/token.sol\":11039:18074  contract Bee is Context1, IERC20, IERC20Metadata, Ownable{... */\n  mload(0x80)\n  mload(0xa0)\n  mload(0xc0)\n  codecopy(0x00, dataOffset(sub_0), dataSize(sub_0))\n  0x00\n  assignImmutable(\"0xd3dad2b3fa6464c5d12f6373a47a6014623e3f162de557e09b0006ceac3fe4f9\")\n  0x00\n  assignImmutable(\"0xa9903e230a4a4f2af602b37c0f984d2b43537f89ce9d4cfbf1232e27c498bd38\")\n  0x00\n  assignImmutable(\"0x02f6903e55725b8fb1e67e68fc4dfbf8e90ced5ec278dfd2021debfe4c69d139\")\n  return(0x00, dataSize(sub_0))\nstop\n\nsub_0: assembly {\n        /* \"inviter_presell/token.sol\":11039:18074  contract Bee is Context1, IERC20, IERC20Metadata, Ownable{... */\n      mstore(0x40, 0x80)\n      jumpi(tag_1, lt(calldatasize, 0x04))\n      shr(0xe0, calldataload(0x00))\n      dup1\n      0x88af60c6\n      gt\n      tag_30\n      jumpi\n      dup1\n      0xa9059cbb\n      gt\n      tag_31\n      jumpi\n      dup1\n      0xdec1a6f6\n      gt\n      tag_32\n      jumpi\n      dup1\n      0xdec1a6f6\n      eq\n      tag_26\n      jumpi\n      dup1\n      0xe515cd38\n      eq\n      tag_27\n      jumpi\n      dup1\n      0xf2fde38b\n      eq\n      tag_28\n      jumpi\n      dup1\n      0xfae92612\n      eq\n      tag_29\n      jumpi\n      0x00\n      dup1\n      revert\n    tag_32:\n      dup1\n      0xa9059cbb\n      eq\n      tag_23\n      jumpi\n      dup1\n      0xdb2e21bc\n      eq\n      tag_24\n      jumpi\n      dup1\n      0xdd62ed3e\n      eq\n      tag_25\n      jumpi\n      0x00\n      dup1\n      revert\n    tag_31:\n      dup1\n      0x95d89b41\n      gt\n      tag_33\n      jumpi\n      dup1\n      0x95d89b41\n      eq\n      tag_19\n      jumpi\n      dup1\n      0xa457c2d7\n      eq\n      tag_20\n      jumpi\n      dup1\n      0xa4c3b091\n      eq\n      tag_21\n      jumpi\n      dup1\n      0xa8808fcc\n      eq\n      tag_22\n      jumpi\n      0x00\n      dup1\n      revert\n    tag_33:\n      dup1\n      0x88af60c6\n      eq\n      tag_16\n      jumpi\n      dup1\n      0x8da5cb5b\n      eq\n      tag_17\n      jumpi\n      dup1\n      0x95623641\n      eq\n      tag_18\n      jumpi\n      0x00\n      dup1\n      revert\n    tag_30:\n      dup1\n      0x313ce567\n      gt\n      tag_34\n      jumpi\n      dup1\n      0x49bd5a5e\n      gt\n      tag_35\n      jumpi\n      dup1\n      0x49bd5a5e\n      eq\n      tag_12\n      jumpi\n      dup1\n      0x536db266\n      eq\n      tag_13\n      jumpi\n      dup1\n      0x70a08231\n      eq\n      tag_14\n      jumpi\n      dup1\n      0x715018a6\n      eq\n      tag_15\n      jumpi\n      0x00\n      dup1\n      revert\n    tag_35:\n      dup1\n      0x313ce567\n      eq\n      tag_9\n      jumpi\n      dup1\n      0x39509351\n      eq\n      tag_10\n      jumpi\n      dup1\n      0x42966c68\n      eq\n      tag_11\n      jumpi\n      0x00\n      dup1\n      revert\n    tag_34:\n      dup1\n      0x06fdde03\n      eq\n      tag_3\n      jumpi\n      dup1\n      0x095ea7b3\n      eq\n      tag_4\n      jumpi\n      dup1\n      0x1694505e\n      eq\n      tag_5\n      jumpi\n      dup1\n      0x18160ddd\n      eq\n      tag_6\n      jumpi\n      dup1\n      0x23b872dd\n      eq\n      tag_7\n      jumpi\n      dup1\n      0x2aafa283\n      eq\n      tag_8\n      jumpi\n      0x00\n      dup1\n      revert\n    tag_1:\n      jumpi(tag_2, calldatasize)\n      stop\n    tag_2:\n      0x00\n      dup1\n      revert\n        /* \"inviter_presell/token.sol\":12745:12851  function name() public view virtual override returns (string memory) {... */\n    tag_3:\n      callvalue\n      dup1\n      iszero\n      tag_38\n      jumpi\n      0x00\n      dup1\n      revert\n    tag_38:\n      pop\n        /* \"inviter_presell/token.sol\":12825:12843  return \"Lucky Bee\" */\n      0x40\n      dup1\n      mload\n      dup1\n      dup3\n      add\n      swap1\n      swap2\n      mstore\n      0x09\n      dup2\n      mstore\n      shl(0xb8, 0x4c75636b7920426565)\n      0x20\n      dup3\n      add\n      mstore\n        /* \"inviter_presell/token.sol\":12745:12851  function name() public view virtual override returns (string memory) {... */\n    tag_39:\n      mload(0x40)\n      tag_41\n      swap2\n      swap1\n      tag_42\n      jump\t// in\n    tag_41:\n      mload(0x40)\n      dup1\n      swap2\n      sub\n      swap1\n      return\n        /* \"inviter_presell/token.sol\":13664:13833  function approve(address spender, uint256 amount) public virtual override returns (bool) {... */\n    tag_4:\n      callvalue\n      dup1\n      iszero\n      tag_43\n      jumpi\n      0x00\n      dup1\n      revert\n    tag_43:\n      pop\n      tag_44\n      tag_45\n      calldatasize\n      0x04\n      tag_46\n      jump\t// in\n    tag_45:\n      tag_47\n      jump\t// in\n    tag_44:\n      mload(0x40)\n        /* \"#utility.yul\":1188:1202   */\n      swap1\n      iszero\n        /* \"#utility.yul\":1181:1203   */\n      iszero\n        /* \"#utility.yul\":1163:1204   */\n      dup2\n      mstore\n        /* \"#utility.yul\":1151:1153   */\n      0x20\n        /* \"#utility.yul\":1136:1154   */\n      add\n        /* \"inviter_presell/token.sol\":13664:13833  function approve(address spender, uint256 amount) public virtual override returns (bool) {... */\n      tag_41\n        /* \"#utility.yul\":1023:1210   */\n      jump\n        /* \"inviter_presell/token.sol\":11387:11442  IPancakeSwapV2Router02 public immutable uniswapV2Router */\n    tag_5:\n      callvalue\n      dup1\n      iszero\n      tag_50\n      jumpi\n      0x00\n      dup1\n      revert\n    tag_50:\n      pop\n      tag_51\n      immutable(\"0x02f6903e55725b8fb1e67e68fc4dfbf8e90ced5ec278dfd2021debfe4c69d139\")\n      dup2\n      jump\n    tag_51:\n      mload(0x40)\n      sub(shl(0xa0, 0x01), 0x01)\n        /* \"#utility.yul\":1409:1441   */\n      swap1\n      swap2\n      and\n        /* \"#utility.yul\":1391:1442   */\n      dup2\n      mstore\n        /* \"#utility.yul\":1379:1381   */\n      0x20\n        /* \"#utility.yul\":1364:1382   */\n      add\n        /* \"inviter_presell/token.sol\":11387:11442  IPancakeSwapV2Router02 public immutable uniswapV2Router */\n      tag_41\n        /* \"#utility.yul\":1215:1448   */\n      jump\n        /* \"inviter_presell/token.sol\":13071:13179  function totalSupply() public view virtual override returns (uint256) {... */\n    tag_6:\n      callvalue\n      dup1\n      iszero\n      tag_55\n      jumpi\n      0x00\n      dup1\n      revert\n    tag_55:\n      pop\n        /* \"inviter_presell/token.sol\":13159:13171  _totalSupply */\n      sload(0x03)\n        /* \"inviter_presell/token.sol\":13071:13179  function totalSupply() public view virtual override returns (uint256) {... */\n    tag_56:\n      mload(0x40)\n        /* \"#utility.yul\":1599:1624   */\n      swap1\n      dup2\n      mstore\n        /* \"#utility.yul\":1587:1589   */\n      0x20\n        /* \"#utility.yul\":1572:1590   */\n      add\n        /* \"inviter_presell/token.sol\":13071:13179  function totalSupply() public view virtual override returns (uint256) {... */\n      tag_41\n        /* \"#utility.yul\":1453:1630   */\n      jump\n        /* \"inviter_presell/token.sol\":13841:14329  function transferFrom(... */\n    tag_7:\n      callvalue\n      dup1\n      iszero\n      tag_60\n      jumpi\n      0x00\n      dup1\n      revert\n    tag_60:\n      pop\n      tag_44\n      tag_62\n      calldatasize\n      0x04\n      tag_63\n      jump\t// in\n    tag_62:\n      tag_64\n      jump\t// in\n        /* \"inviter_presell/token.sol\":11494:11536  address public immutable uniswapUsdtV2Pair */\n    tag_8:\n      callvalue\n      dup1\n      iszero\n      tag_66\n      jumpi\n      0x00\n      dup1\n      revert\n    tag_66:\n      pop\n      tag_51\n      immutable(\"0xd3dad2b3fa6464c5d12f6373a47a6014623e3f162de557e09b0006ceac3fe4f9\")\n      dup2\n      jump\n        /* \"inviter_presell/token.sol\":12970:13063  function decimals() public view virtual override returns (uint8) {... */\n    tag_9:\n      callvalue\n      dup1\n      iszero\n      tag_71\n      jumpi\n      0x00\n      dup1\n      revert\n    tag_71:\n      pop\n      mload(0x40)\n        /* \"inviter_presell/token.sol\":13053:13055  18 */\n      0x12\n        /* \"#utility.yul\":2446:2482   */\n      dup2\n      mstore\n        /* \"#utility.yul\":2434:2436   */\n      0x20\n        /* \"#utility.yul\":2419:2437   */\n      add\n        /* \"inviter_presell/token.sol\":12970:13063  function decimals() public view virtual override returns (uint8) {... */\n      tag_41\n        /* \"#utility.yul\":2304:2488   */\n      jump\n        /* \"inviter_presell/token.sol\":14337:14552  function increaseAllowance(address spender, uint256 addedValue) public virtual returns (bool) {... */\n    tag_10:\n      callvalue\n      dup1\n      iszero\n      tag_76\n      jumpi\n      0x00\n      dup1\n      revert\n    tag_76:\n      pop\n      tag_44\n      tag_78\n      calldatasize\n      0x04\n      tag_46\n      jump\t// in\n    tag_78:\n      tag_79\n      jump\t// in\n        /* \"inviter_presell/token.sol\":16840:16925  function burn(uint256 amount) external {... */\n    tag_11:\n      callvalue\n      dup1\n      iszero\n      tag_81\n      jumpi\n      0x00\n      dup1\n      revert\n    tag_81:\n      pop\n      tag_82\n      tag_83\n      calldatasize\n      0x04\n      tag_84\n      jump\t// in\n    tag_83:\n      tag_85\n      jump\t// in\n    tag_82:\n      stop\n        /* \"inviter_presell/token.sol\":11449:11487  address public immutable uniswapV2Pair */\n    tag_12:\n      callvalue\n      dup1\n      iszero\n      tag_86\n      jumpi\n      0x00\n      dup1\n      revert\n    tag_86:\n      pop\n      tag_51\n      immutable(\"0xa9903e230a4a4f2af602b37c0f984d2b43537f89ce9d4cfbf1232e27c498bd38\")\n      dup2\n      jump\n        /* \"inviter_presell/token.sol\":14977:15168  function addDex(address _pair) external onlyOwner {... */\n    tag_13:\n      callvalue\n      dup1\n      iszero\n      tag_90\n      jumpi\n      0x00\n      dup1\n      revert\n    tag_90:\n      pop\n      tag_82\n      tag_92\n      calldatasize\n      0x04\n      tag_93\n      jump\t// in\n    tag_92:\n      tag_94\n      jump\t// in\n        /* \"inviter_presell/token.sol\":13187:13314  function balanceOf(address account) public view virtual override returns (uint256) {... */\n    tag_14:\n      callvalue\n      dup1\n      iszero\n      tag_95\n      jumpi\n      0x00\n      dup1\n      revert\n    tag_95:\n      pop\n      tag_56\n      tag_97\n      calldatasize\n      0x04\n      tag_93\n      jump\t// in\n    tag_97:\n      sub(shl(0xa0, 0x01), 0x01)\n        /* \"inviter_presell/token.sol\":13288:13306  _balances[account] */\n      and\n        /* \"inviter_presell/token.sol\":13261:13268  uint256 */\n      0x00\n        /* \"inviter_presell/token.sol\":13288:13306  _balances[account] */\n      swap1\n      dup2\n      mstore\n        /* \"inviter_presell/token.sol\":13288:13297  _balances */\n      0x01\n        /* \"inviter_presell/token.sol\":13288:13306  _balances[account] */\n      0x20\n      mstore\n      0x40\n      swap1\n      keccak256\n      sload\n      swap1\n        /* \"inviter_presell/token.sol\":13187:13314  function balanceOf(address account) public view virtual override returns (uint256) {... */\n      jump\n        /* \"inviter_presell/token.sol\":1897:2000  function renounceOwnership() public virtual onlyOwner {... */\n    tag_15:\n      callvalue\n      dup1\n      iszero\n      tag_100\n      jumpi\n      0x00\n      dup1\n      revert\n    tag_100:\n      pop\n      tag_82\n      tag_102\n      jump\t// in\n        /* \"inviter_presell/token.sol\":11756:11831  address public usdtMintAddress = 0x7ef95a0FEE0Dd31b22626fA2e10Ee6A223F8a684 */\n    tag_16:\n      callvalue\n      dup1\n      iszero\n      tag_103\n      jumpi\n      0x00\n      dup1\n      revert\n    tag_103:\n      pop\n      sload(0x08)\n      tag_51\n      swap1\n      sub(shl(0xa0, 0x01), 0x01)\n      and\n      dup2\n      jump\n        /* \"inviter_presell/token.sol\":1246:1333  function owner() public view virtual returns (address) {... */\n    tag_17:\n      callvalue\n      dup1\n      iszero\n      tag_107\n      jumpi\n      0x00\n      dup1\n      revert\n    tag_107:\n      pop\n        /* \"inviter_presell/token.sol\":1292:1299  address */\n      0x00\n        /* \"inviter_presell/token.sol\":1319:1325  _owner */\n      sload\n      sub(shl(0xa0, 0x01), 0x01)\n      and\n        /* \"inviter_presell/token.sol\":1246:1333  function owner() public view virtual returns (address) {... */\n      jump(tag_51)\n        /* \"inviter_presell/token.sol\":11838:11911  address public marketAddress = 0xcBB44600F5828A15cF130Abb73Ce5E85ac49D08F */\n    tag_18:\n      callvalue\n      dup1\n      iszero\n      tag_111\n      jumpi\n      0x00\n      dup1\n      revert\n    tag_111:\n      pop\n      sload(0x09)\n      tag_51\n      swap1\n      sub(shl(0xa0, 0x01), 0x01)\n      and\n      dup2\n      jump\n        /* \"inviter_presell/token.sol\":12859:12962  function symbol() public view virtual override returns (string memory) {... */\n    tag_19:\n      callvalue\n      dup1\n      iszero\n      tag_115\n      jumpi\n      0x00\n      dup1\n      revert\n    tag_115:\n      pop\n        /* \"inviter_presell/token.sol\":12941:12954  return \"LBEE\" */\n      0x40\n      dup1\n      mload\n      dup1\n      dup3\n      add\n      swap1\n      swap2\n      mstore\n      0x04\n      dup2\n      mstore\n      shl(0xe0, 0x4c424545)\n      0x20\n      dup3\n      add\n      mstore\n        /* \"inviter_presell/token.sol\":12859:12962  function symbol() public view virtual override returns (string memory) {... */\n      jump(tag_39)\n        /* \"inviter_presell/token.sol\":14560:14969  function decreaseAllowance(address spender, uint256 subtractedValue) public virtual returns (bool) {... */\n    tag_20:\n      callvalue\n      dup1\n      iszero\n      tag_119\n      jumpi\n      0x00\n      dup1\n      revert\n    tag_119:\n      pop\n      tag_44\n      tag_121\n      calldatasize\n      0x04\n      tag_46\n      jump\t// in\n    tag_121:\n      tag_122\n      jump\t// in\n        /* \"inviter_presell/token.sol\":17926:18069  function emergencyWithdrawToken(address token, uint256 amount) external onlyOwner {... */\n    tag_21:\n      callvalue\n      dup1\n      iszero\n      tag_124\n      jumpi\n      0x00\n      dup1\n      revert\n    tag_124:\n      pop\n      tag_82\n      tag_126\n      calldatasize\n      0x04\n      tag_46\n      jump\t// in\n    tag_126:\n      tag_127\n      jump\t// in\n        /* \"inviter_presell/token.sol\":17439:17654  function setExcludeds(address addr) public onlyOwner {... */\n    tag_22:\n      callvalue\n      dup1\n      iszero\n      tag_128\n      jumpi\n      0x00\n      dup1\n      revert\n    tag_128:\n      pop\n      tag_82\n      tag_130\n      calldatasize\n      0x04\n      tag_93\n      jump\t// in\n    tag_130:\n      tag_131\n      jump\t// in\n        /* \"inviter_presell/token.sol\":13322:13497  function transfer(address recipient, uint256 amount) public virtual override returns (bool) {... */\n    tag_23:\n      callvalue\n      dup1\n      iszero\n      tag_132\n      jumpi\n      0x00\n      dup1\n      revert\n    tag_132:\n      pop\n      tag_44\n      tag_134\n      calldatasize\n      0x04\n      tag_46\n      jump\t// in\n    tag_134:\n      tag_135\n      jump\t// in\n        /* \"inviter_presell/token.sol\":17803:17918  function emergencyWithdraw() external onlyOwner {... */\n    tag_24:\n      callvalue\n      dup1\n      iszero\n      tag_137\n      jumpi\n      0x00\n      dup1\n      revert\n    tag_137:\n      pop\n      tag_82\n      tag_139\n      jump\t// in\n        /* \"inviter_presell/token.sol\":13505:13656  function allowance(address owner, address spender) public view virtual override returns (uint256) {... */\n    tag_25:\n      callvalue\n      dup1\n      iszero\n      tag_140\n      jumpi\n      0x00\n      dup1\n      revert\n    tag_140:\n      pop\n      tag_56\n      tag_142\n      calldatasize\n      0x04\n      tag_143\n      jump\t// in\n    tag_142:\n      sub(shl(0xa0, 0x01), 0x01)\n        /* \"inviter_presell/token.sol\":13621:13639  _allowances[owner] */\n      swap2\n      dup3\n      and\n        /* \"inviter_presell/token.sol\":13594:13601  uint256 */\n      0x00\n        /* \"inviter_presell/token.sol\":13621:13639  _allowances[owner] */\n      swap1\n      dup2\n      mstore\n        /* \"inviter_presell/token.sol\":13621:13632  _allowances */\n      0x02\n        /* \"inviter_presell/token.sol\":13621:13639  _allowances[owner] */\n      0x20\n      swap1\n      dup2\n      mstore\n      0x40\n      dup1\n      dup4\n      keccak256\n        /* \"inviter_presell/token.sol\":13621:13648  _allowances[owner][spender] */\n      swap4\n      swap1\n      swap5\n      and\n      dup3\n      mstore\n      swap2\n      swap1\n      swap2\n      mstore\n      keccak256\n      sload\n      swap1\n        /* \"inviter_presell/token.sol\":13505:13656  function allowance(address owner, address spender) public view virtual override returns (uint256) {... */\n      jump\n        /* \"inviter_presell/token.sol\":11596:11631  mapping (address=>bool) public DEXs */\n    tag_26:\n      callvalue\n      dup1\n      iszero\n      tag_146\n      jumpi\n      0x00\n      dup1\n      revert\n    tag_146:\n      pop\n      tag_44\n      tag_148\n      calldatasize\n      0x04\n      tag_93\n      jump\t// in\n    tag_148:\n      mstore(0x20, 0x07)\n      0x00\n      swap1\n      dup2\n      mstore\n      0x40\n      swap1\n      keccak256\n      sload\n      0xff\n      and\n      dup2\n      jump\n        /* \"inviter_presell/token.sol\":17161:17429  function deliver(address _lp) public onlyOwner {... */\n    tag_27:\n      callvalue\n      dup1\n      iszero\n      tag_151\n      jumpi\n      0x00\n      dup1\n      revert\n    tag_151:\n      pop\n      tag_82\n      tag_153\n      calldatasize\n      0x04\n      tag_93\n      jump\t// in\n    tag_153:\n      tag_154\n      jump\t// in\n        /* \"inviter_presell/token.sol\":2155:2356  function transferOwnership(address newOwner) public virtual onlyOwner {... */\n    tag_28:\n      callvalue\n      dup1\n      iszero\n      tag_155\n      jumpi\n      0x00\n      dup1\n      revert\n    tag_155:\n      pop\n      tag_82\n      tag_157\n      calldatasize\n      0x04\n      tag_93\n      jump\t// in\n    tag_157:\n      tag_158\n      jump\t// in\n        /* \"inviter_presell/token.sol\":17662:17758  function setMarketAddress(address addr) public onlyOwner {... */\n    tag_29:\n      callvalue\n      dup1\n      iszero\n      tag_159\n      jumpi\n      0x00\n      dup1\n      revert\n    tag_159:\n      pop\n      tag_82\n      tag_161\n      calldatasize\n      0x04\n      tag_93\n      jump\t// in\n    tag_161:\n      tag_162\n      jump\t// in\n        /* \"inviter_presell/token.sol\":13664:13833  function approve(address spender, uint256 amount) public virtual override returns (bool) {... */\n    tag_47:\n        /* \"inviter_presell/token.sol\":13747:13751  bool */\n      0x00\n        /* \"inviter_presell/token.sol\":13764:13803  _approve(_msgSender(), spender, amount) */\n      tag_165\n        /* \"inviter_presell/token.sol\":687:697  msg.sender */\n      caller\n        /* \"inviter_presell/token.sol\":13787:13794  spender */\n      dup5\n        /* \"inviter_presell/token.sol\":13796:13802  amount */\n      dup5\n        /* \"inviter_presell/token.sol\":13764:13772  _approve */\n      tag_168\n        /* \"inviter_presell/token.sol\":13764:13803  _approve(_msgSender(), spender, amount) */\n      jump\t// in\n    tag_165:\n      pop\n        /* \"inviter_presell/token.sol\":13821:13825  true */\n      0x01\n        /* \"inviter_presell/token.sol\":13664:13833  function approve(address spender, uint256 amount) public virtual override returns (bool) {... */\n    tag_164:\n      swap3\n      swap2\n      pop\n      pop\n      jump\t// out\n        /* \"inviter_presell/token.sol\":13841:14329  function transferFrom(... */\n    tag_64:\n        /* \"inviter_presell/token.sol\":13981:13985  bool */\n      0x00\n        /* \"inviter_presell/token.sol\":13998:14034  _transfer(sender, recipient, amount) */\n      tag_171\n        /* \"inviter_presell/token.sol\":14008:14014  sender */\n      dup5\n        /* \"inviter_presell/token.sol\":14016:14025  recipient */\n      dup5\n        /* \"inviter_presell/token.sol\":14027:14033  amount */\n      dup5\n        /* \"inviter_presell/token.sol\":13998:14007  _transfer */\n      tag_172\n        /* \"inviter_presell/token.sol\":13998:14034  _transfer(sender, recipient, amount) */\n      jump\t// in\n    tag_171:\n      sub(shl(0xa0, 0x01), 0x01)\n        /* \"inviter_presell/token.sol\":14074:14093  _allowances[sender] */\n      dup5\n      and\n        /* \"inviter_presell/token.sol\":14047:14071  uint256 currentAllowance */\n      0x00\n        /* \"inviter_presell/token.sol\":14074:14093  _allowances[sender] */\n      swap1\n      dup2\n      mstore\n        /* \"inviter_presell/token.sol\":14074:14085  _allowances */\n      0x02\n        /* \"inviter_presell/token.sol\":14074:14093  _allowances[sender] */\n      0x20\n      swap1\n      dup2\n      mstore\n      0x40\n      dup1\n      dup4\n      keccak256\n        /* \"inviter_presell/token.sol\":687:697  msg.sender */\n      caller\n        /* \"inviter_presell/token.sol\":14074:14107  _allowances[sender][_msgSender()] */\n      dup5\n      mstore\n      swap1\n      swap2\n      mstore\n      swap1\n      keccak256\n      sload\n        /* \"inviter_presell/token.sol\":14126:14152  currentAllowance >= amount */\n      dup3\n      dup2\n      lt\n      iszero\n        /* \"inviter_presell/token.sol\":14118:14195  require(currentAllowance >= amount, \"BEE: transfer amount exceeds allowance\") */\n      tag_174\n      jumpi\n      mload(0x40)\n      shl(0xe5, 0x461bcd)\n      dup2\n      mstore\n        /* \"#utility.yul\":3525:3527   */\n      0x20\n        /* \"inviter_presell/token.sol\":14118:14195  require(currentAllowance >= amount, \"BEE: transfer amount exceeds allowance\") */\n      0x04\n      dup3\n      add\n        /* \"#utility.yul\":3507:3528   */\n      mstore\n        /* \"#utility.yul\":3564:3566   */\n      0x26\n        /* \"#utility.yul\":3544:3562   */\n      0x24\n      dup3\n      add\n        /* \"#utility.yul\":3537:3567   */\n      mstore\n        /* \"#utility.yul\":3603:3637   */\n      0x4245453a207472616e7366657220616d6f756e74206578636565647320616c6c\n        /* \"#utility.yul\":3583:3601   */\n      0x44\n      dup3\n      add\n        /* \"#utility.yul\":3576:3638   */\n      mstore\n      shl(0xd0, 0x6f77616e6365)\n        /* \"#utility.yul\":3654:3672   */\n      0x64\n      dup3\n      add\n        /* \"#utility.yul\":3647:3683   */\n      mstore\n        /* \"#utility.yul\":3700:3719   */\n      0x84\n      add\n        /* \"inviter_presell/token.sol\":14118:14195  require(currentAllowance >= amount, \"BEE: transfer amount exceeds allowance\") */\n    tag_175:\n      mload(0x40)\n      dup1\n      swap2\n      sub\n      swap1\n      revert\n    tag_174:\n        /* \"inviter_presell/token.sol\":14231:14288  _approve(sender, _msgSender(), currentAllowance - amount) */\n      tag_177\n        /* \"inviter_presell/token.sol\":14240:14246  sender */\n      dup6\n        /* \"inviter_presell/token.sol\":687:697  msg.sender */\n      caller\n        /* \"inviter_presell/token.sol\":14281:14287  amount */\n      dup6\n        /* \"inviter_presell/token.sol\":14262:14278  currentAllowance */\n      dup5\n        /* \"inviter_presell/token.sol\":14262:14287  currentAllowance - amount */\n      sub\n        /* \"inviter_presell/token.sol\":14231:14239  _approve */\n      tag_168\n        /* \"inviter_presell/token.sol\":14231:14288  _approve(sender, _msgSender(), currentAllowance - amount) */\n      jump\t// in\n    tag_177:\n      pop\n        /* \"inviter_presell/token.sol\":14317:14321  true */\n      0x01\n      swap5\n        /* \"inviter_presell/token.sol\":13841:14329  function transferFrom(... */\n      swap4\n      pop\n      pop\n      pop\n      pop\n      jump\t// out\n        /* \"inviter_presell/token.sol\":14337:14552  function increaseAllowance(address spender, uint256 addedValue) public virtual returns (bool) {... */\n    tag_79:\n        /* \"inviter_presell/token.sol\":687:697  msg.sender */\n      caller\n        /* \"inviter_presell/token.sol\":14425:14429  bool */\n      0x00\n        /* \"inviter_presell/token.sol\":14474:14499  _allowances[_msgSender()] */\n      dup2\n      dup2\n      mstore\n        /* \"inviter_presell/token.sol\":14474:14485  _allowances */\n      0x02\n        /* \"inviter_presell/token.sol\":14474:14499  _allowances[_msgSender()] */\n      0x20\n      swap1\n      dup2\n      mstore\n      0x40\n      dup1\n      dup4\n      keccak256\n      sub(shl(0xa0, 0x01), 0x01)\n        /* \"inviter_presell/token.sol\":14474:14508  _allowances[_msgSender()][spender] */\n      dup8\n      and\n      dup5\n      mstore\n      swap1\n      swap2\n      mstore\n      dup2\n      keccak256\n      sload\n        /* \"inviter_presell/token.sol\":14425:14429  bool */\n      swap1\n      swap2\n        /* \"inviter_presell/token.sol\":14442:14522  _approve(_msgSender(), spender, _allowances[_msgSender()][spender] + addedValue) */\n      tag_165\n      swap2\n        /* \"inviter_presell/token.sol\":14465:14472  spender */\n      dup6\n      swap1\n        /* \"inviter_presell/token.sol\":14474:14521  _allowances[_msgSender()][spender] + addedValue */\n      tag_184\n      swap1\n        /* \"inviter_presell/token.sol\":14511:14521  addedValue */\n      dup7\n      swap1\n        /* \"inviter_presell/token.sol\":14474:14521  _allowances[_msgSender()][spender] + addedValue */\n      tag_185\n      jump\t// in\n    tag_184:\n        /* \"inviter_presell/token.sol\":14442:14450  _approve */\n      tag_168\n        /* \"inviter_presell/token.sol\":14442:14522  _approve(_msgSender(), spender, _allowances[_msgSender()][spender] + addedValue) */\n      jump\t// in\n        /* \"inviter_presell/token.sol\":16840:16925  function burn(uint256 amount) external {... */\n    tag_85:\n        /* \"inviter_presell/token.sol\":16890:16917  _burn(_msgSender(), amount) */\n      tag_187\n        /* \"inviter_presell/token.sol\":687:697  msg.sender */\n      caller\n        /* \"inviter_presell/token.sol\":16910:16916  amount */\n      dup3\n        /* \"inviter_presell/token.sol\":16890:16895  _burn */\n      tag_189\n        /* \"inviter_presell/token.sol\":16890:16917  _burn(_msgSender(), amount) */\n      jump\t// in\n    tag_187:\n        /* \"inviter_presell/token.sol\":16840:16925  function burn(uint256 amount) external {... */\n      pop\n      jump\t// out\n        /* \"inviter_presell/token.sol\":14977:15168  function addDex(address _pair) external onlyOwner {... */\n    tag_94:\n        /* \"inviter_presell/token.sol\":1292:1299  address */\n      0x00\n        /* \"inviter_presell/token.sol\":1319:1325  _owner */\n      sload\n      sub(shl(0xa0, 0x01), 0x01)\n      and\n        /* \"inviter_presell/token.sol\":687:697  msg.sender */\n      caller\n        /* \"inviter_presell/token.sol\":1466:1489  owner() == _msgSender() */\n      eq\n        /* \"inviter_presell/token.sol\":1458:1526  require(owner() == _msgSender(), \"Ownable: caller is not the owner\") */\n      tag_193\n      jumpi\n      mload(0x40)\n      shl(0xe5, 0x461bcd)\n      dup2\n      mstore\n      0x04\n      add\n      tag_175\n      swap1\n      tag_195\n      jump\t// in\n    tag_193:\n      sub(shl(0xa0, 0x01), 0x01)\n        /* \"inviter_presell/token.sol\":15042:15053  DEXs[_pair] */\n      dup2\n      and\n      0x00\n      swap1\n      dup2\n      mstore\n        /* \"inviter_presell/token.sol\":15042:15046  DEXs */\n      0x07\n        /* \"inviter_presell/token.sol\":15042:15053  DEXs[_pair] */\n      0x20\n      mstore\n      0x40\n      swap1\n      keccak256\n      sload\n      0xff\n      and\n        /* \"inviter_presell/token.sol\":15038:15152  if (DEXs[_pair]) {... */\n      iszero\n      tag_197\n      jumpi\n      sub(shl(0xa0, 0x01), 0x01)\n        /* \"inviter_presell/token.sol\":15070:15081  DEXs[_pair] */\n      and\n        /* \"inviter_presell/token.sol\":15084:15089  false */\n      0x00\n        /* \"inviter_presell/token.sol\":15070:15081  DEXs[_pair] */\n      swap1\n      dup2\n      mstore\n        /* \"inviter_presell/token.sol\":15070:15074  DEXs */\n      0x07\n        /* \"inviter_presell/token.sol\":15070:15081  DEXs[_pair] */\n      0x20\n      mstore\n      0x40\n      swap1\n      keccak256\n        /* \"inviter_presell/token.sol\":15070:15089  DEXs[_pair] = false */\n      dup1\n      sload\n      not(0xff)\n      and\n      swap1\n      sstore\n        /* \"inviter_presell/token.sol\":16840:16925  function burn(uint256 amount) external {... */\n      jump\t// out\n        /* \"inviter_presell/token.sol\":15038:15152  if (DEXs[_pair]) {... */\n    tag_197:\n      sub(shl(0xa0, 0x01), 0x01)\n        /* \"inviter_presell/token.sol\":15122:15133  DEXs[_pair] */\n      dup2\n      and\n      0x00\n      swap1\n      dup2\n      mstore\n        /* \"inviter_presell/token.sol\":15122:15126  DEXs */\n      0x07\n        /* \"inviter_presell/token.sol\":15122:15133  DEXs[_pair] */\n      0x20\n      mstore\n      0x40\n      swap1\n      keccak256\n        /* \"inviter_presell/token.sol\":15122:15140  DEXs[_pair] = true */\n      dup1\n      sload\n      not(0xff)\n      and\n        /* \"inviter_presell/token.sol\":15136:15140  true */\n      0x01\n        /* \"inviter_presell/token.sol\":15122:15140  DEXs[_pair] = true */\n      or\n      swap1\n      sstore\n        /* \"inviter_presell/token.sol\":14977:15168  function addDex(address _pair) external onlyOwner {... */\n      pop\n      jump\t// out\n        /* \"inviter_presell/token.sol\":1897:2000  function renounceOwnership() public virtual onlyOwner {... */\n    tag_102:\n        /* \"inviter_presell/token.sol\":1292:1299  address */\n      0x00\n        /* \"inviter_presell/token.sol\":1319:1325  _owner */\n      sload\n      sub(shl(0xa0, 0x01), 0x01)\n      and\n        /* \"inviter_presell/token.sol\":687:697  msg.sender */\n      caller\n        /* \"inviter_presell/token.sol\":1466:1489  owner() == _msgSender() */\n      eq\n        /* \"inviter_presell/token.sol\":1458:1526  require(owner() == _msgSender(), \"Ownable: caller is not the owner\") */\n      tag_203\n      jumpi\n      mload(0x40)\n      shl(0xe5, 0x461bcd)\n      dup2\n      mstore\n      0x04\n      add\n      tag_175\n      swap1\n      tag_195\n      jump\t// in\n    tag_203:\n        /* \"inviter_presell/token.sol\":1962:1992  _transferOwnership(address(0)) */\n      tag_206\n        /* \"inviter_presell/token.sol\":1989:1990  0 */\n      0x00\n        /* \"inviter_presell/token.sol\":1962:1980  _transferOwnership */\n      tag_207\n        /* \"inviter_presell/token.sol\":1962:1992  _transferOwnership(address(0)) */\n      jump\t// in\n    tag_206:\n        /* \"inviter_presell/token.sol\":1897:2000  function renounceOwnership() public virtual onlyOwner {... */\n      jump\t// out\n        /* \"inviter_presell/token.sol\":14560:14969  function decreaseAllowance(address spender, uint256 subtractedValue) public virtual returns (bool) {... */\n    tag_122:\n        /* \"inviter_presell/token.sol\":687:697  msg.sender */\n      caller\n        /* \"inviter_presell/token.sol\":14653:14657  bool */\n      0x00\n        /* \"inviter_presell/token.sol\":14697:14722  _allowances[_msgSender()] */\n      swap1\n      dup2\n      mstore\n        /* \"inviter_presell/token.sol\":14697:14708  _allowances */\n      0x02\n        /* \"inviter_presell/token.sol\":14697:14722  _allowances[_msgSender()] */\n      0x20\n      swap1\n      dup2\n      mstore\n      0x40\n      dup1\n      dup4\n      keccak256\n      sub(shl(0xa0, 0x01), 0x01)\n        /* \"inviter_presell/token.sol\":14697:14731  _allowances[_msgSender()][spender] */\n      dup7\n      and\n      dup5\n      mstore\n      swap1\n      swap2\n      mstore\n      dup2\n      keccak256\n      sload\n        /* \"inviter_presell/token.sol\":14750:14785  currentAllowance >= subtractedValue */\n      dup3\n      dup2\n      lt\n      iszero\n        /* \"inviter_presell/token.sol\":14742:14825  require(currentAllowance >= subtractedValue, \"BEE: decreased allowance below zero\") */\n      tag_212\n      jumpi\n      mload(0x40)\n      shl(0xe5, 0x461bcd)\n      dup2\n      mstore\n        /* \"#utility.yul\":4555:4557   */\n      0x20\n        /* \"inviter_presell/token.sol\":14742:14825  require(currentAllowance >= subtractedValue, \"BEE: decreased allowance below zero\") */\n      0x04\n      dup3\n      add\n        /* \"#utility.yul\":4537:4558   */\n      mstore\n        /* \"#utility.yul\":4594:4596   */\n      0x23\n        /* \"#utility.yul\":4574:4592   */\n      0x24\n      dup3\n      add\n        /* \"#utility.yul\":4567:4597   */\n      mstore\n        /* \"#utility.yul\":4633:4667   */\n      0x4245453a2064656372656173656420616c6c6f77616e63652062656c6f77207a\n        /* \"#utility.yul\":4613:4631   */\n      0x44\n      dup3\n      add\n        /* \"#utility.yul\":4606:4668   */\n      mstore\n      shl(0xe8, 0x65726f)\n        /* \"#utility.yul\":4684:4702   */\n      0x64\n      dup3\n      add\n        /* \"#utility.yul\":4677:4710   */\n      mstore\n        /* \"#utility.yul\":4727:4746   */\n      0x84\n      add\n        /* \"inviter_presell/token.sol\":14742:14825  require(currentAllowance >= subtractedValue, \"BEE: decreased allowance below zero\") */\n      tag_175\n        /* \"#utility.yul\":4353:4752   */\n      jump\n        /* \"inviter_presell/token.sol\":14742:14825  require(currentAllowance >= subtractedValue, \"BEE: decreased allowance below zero\") */\n    tag_212:\n        /* \"inviter_presell/token.sol\":14861:14928  _approve(_msgSender(), spender, currentAllowance - subtractedValue) */\n      tag_215\n        /* \"inviter_presell/token.sol\":687:697  msg.sender */\n      caller\n        /* \"inviter_presell/token.sol\":14884:14891  spender */\n      dup6\n        /* \"inviter_presell/token.sol\":14912:14927  subtractedValue */\n      dup6\n        /* \"inviter_presell/token.sol\":14893:14909  currentAllowance */\n      dup5\n        /* \"inviter_presell/token.sol\":14893:14927  currentAllowance - subtractedValue */\n      sub\n        /* \"inviter_presell/token.sol\":14861:14869  _approve */\n      tag_168\n        /* \"inviter_presell/token.sol\":14861:14928  _approve(_msgSender(), spender, currentAllowance - subtractedValue) */\n      jump\t// in\n    tag_215:\n      pop\n        /* \"inviter_presell/token.sol\":14957:14961  true */\n      0x01\n      swap4\n        /* \"inviter_presell/token.sol\":14560:14969  function decreaseAllowance(address spender, uint256 subtractedValue) public virtual returns (bool) {... */\n      swap3\n      pop\n      pop\n      pop\n      jump\t// out\n        /* \"inviter_presell/token.sol\":17926:18069  function emergencyWithdrawToken(address token, uint256 amount) external onlyOwner {... */\n    tag_127:\n        /* \"inviter_presell/token.sol\":1292:1299  address */\n      0x00\n        /* \"inviter_presell/token.sol\":1319:1325  _owner */\n      sload\n      sub(shl(0xa0, 0x01), 0x01)\n      and\n        /* \"inviter_presell/token.sol\":687:697  msg.sender */\n      caller\n        /* \"inviter_presell/token.sol\":1466:1489  owner() == _msgSender() */\n      eq\n        /* \"inviter_presell/token.sol\":1458:1526  require(owner() == _msgSender(), \"Ownable: caller is not the owner\") */\n      tag_220\n      jumpi\n      mload(0x40)\n      shl(0xe5, 0x461bcd)\n      dup2\n      mstore\n      0x04\n      add\n      tag_175\n      swap1\n      tag_195\n      jump\t// in\n    tag_220:\n        /* \"inviter_presell/token.sol\":18019:18061  IERC20(token).transfer(msg.sender, amount) */\n      mload(0x40)\n      shl(0xe0, 0xa9059cbb)\n      dup2\n      mstore\n        /* \"inviter_presell/token.sol\":18042:18052  msg.sender */\n      caller\n        /* \"inviter_presell/token.sol\":18019:18061  IERC20(token).transfer(msg.sender, amount) */\n      0x04\n      dup3\n      add\n        /* \"#utility.yul\":4931:4982   */\n      mstore\n        /* \"#utility.yul\":4998:5016   */\n      0x24\n      dup2\n      add\n        /* \"#utility.yul\":4991:5025   */\n      dup3\n      swap1\n      mstore\n      sub(shl(0xa0, 0x01), 0x01)\n        /* \"inviter_presell/token.sol\":18019:18041  IERC20(token).transfer */\n      dup4\n      and\n      swap1\n      0xa9059cbb\n      swap1\n        /* \"#utility.yul\":4904:4922   */\n      0x44\n      add\n        /* \"inviter_presell/token.sol\":18019:18061  IERC20(token).transfer(msg.sender, amount) */\n      0x20\n      mload(0x40)\n      dup1\n      dup4\n      sub\n      dup2\n      0x00\n      dup8\n      gas\n      call\n      iszero\n      dup1\n      iszero\n      tag_226\n      jumpi\n      returndatasize\n      0x00\n      dup1\n      returndatacopy\n      revert(0x00, returndatasize)\n    tag_226:\n      pop\n      pop\n      pop\n      pop\n      mload(0x40)\n      returndatasize\n      not(0x1f)\n      0x1f\n      dup3\n      add\n      and\n      dup3\n      add\n      dup1\n      0x40\n      mstore\n      pop\n      dup2\n      add\n      swap1\n      tag_227\n      swap2\n      swap1\n      tag_228\n      jump\t// in\n    tag_227:\n      pop\n        /* \"inviter_presell/token.sol\":17926:18069  function emergencyWithdrawToken(address token, uint256 amount) external onlyOwner {... */\n      pop\n      pop\n      jump\t// out\n        /* \"inviter_presell/token.sol\":17439:17654  function setExcludeds(address addr) public onlyOwner {... */\n    tag_131:\n        /* \"inviter_presell/token.sol\":1292:1299  address */\n      0x00\n        /* \"inviter_presell/token.sol\":1319:1325  _owner */\n      sload\n      sub(shl(0xa0, 0x01), 0x01)\n      and\n        /* \"inviter_presell/token.sol\":687:697  msg.sender */\n      caller\n        /* \"inviter_presell/token.sol\":1466:1489  owner() == _msgSender() */\n      eq\n        /* \"inviter_presell/token.sol\":1458:1526  require(owner() == _msgSender(), \"Ownable: caller is not the owner\") */\n      tag_232\n      jumpi\n      mload(0x40)\n      shl(0xe5, 0x461bcd)\n      dup2\n      mstore\n      0x04\n      add\n      tag_175\n      swap1\n      tag_195\n      jump\t// in\n    tag_232:\n      sub(shl(0xa0, 0x01), 0x01)\n        /* \"inviter_presell/token.sol\":17507:17525  _isExcludeds[addr] */\n      dup2\n      and\n      0x00\n      swap1\n      dup2\n      mstore\n        /* \"inviter_presell/token.sol\":17507:17519  _isExcludeds */\n      0x06\n        /* \"inviter_presell/token.sol\":17507:17525  _isExcludeds[addr] */\n      0x20\n      mstore\n      0x40\n      swap1\n      keccak256\n      sload\n      0xff\n      and\n        /* \"inviter_presell/token.sol\":17507:17533  _isExcludeds[addr] == true */\n      iszero\n      iszero\n        /* \"inviter_presell/token.sol\":17507:17525  _isExcludeds[addr] */\n      0x01\n        /* \"inviter_presell/token.sol\":17507:17533  _isExcludeds[addr] == true */\n      sub\n        /* \"inviter_presell/token.sol\":17503:17647  if (_isExcludeds[addr] == true) {... */\n      tag_235\n      jumpi\n      sub(shl(0xa0, 0x01), 0x01)\n        /* \"inviter_presell/token.sol\":17550:17568  _isExcludeds[addr] */\n      and\n        /* \"inviter_presell/token.sol\":17571:17576  false */\n      0x00\n        /* \"inviter_presell/token.sol\":17550:17568  _isExcludeds[addr] */\n      swap1\n      dup2\n      mstore\n        /* \"inviter_presell/token.sol\":17550:17562  _isExcludeds */\n      0x06\n        /* \"inviter_presell/token.sol\":17550:17568  _isExcludeds[addr] */\n      0x20\n      mstore\n      0x40\n      swap1\n      keccak256\n        /* \"inviter_presell/token.sol\":17550:17576  _isExcludeds[addr] = false */\n      dup1\n      sload\n      not(0xff)\n      and\n      swap1\n      sstore\n        /* \"inviter_presell/token.sol\":16840:16925  function burn(uint256 amount) external {... */\n      jump\t// out\n        /* \"inviter_presell/token.sol\":17503:17647  if (_isExcludeds[addr] == true) {... */\n    tag_235:\n      sub(shl(0xa0, 0x01), 0x01)\n        /* \"inviter_presell/token.sol\":17610:17628  _isExcludeds[addr] */\n      dup2\n      and\n      0x00\n      swap1\n      dup2\n      mstore\n        /* \"inviter_presell/token.sol\":17610:17622  _isExcludeds */\n      0x06\n        /* \"inviter_presell/token.sol\":17610:17628  _isExcludeds[addr] */\n      0x20\n      mstore\n      0x40\n      swap1\n      keccak256\n        /* \"inviter_presell/token.sol\":17610:17635  _isExcludeds[addr] = true */\n      dup1\n      sload\n      not(0xff)\n      and\n        /* \"inviter_presell/token.sol\":17631:17635  true */\n      0x01\n        /* \"inviter_presell/token.sol\":17610:17635  _isExcludeds[addr] = true */\n      or\n      swap1\n      sstore\n        /* \"inviter_presell/token.sol\":17439:17654  function setExcludeds(address addr) public onlyOwner {... */\n      pop\n      jump\t// out\n        /* \"inviter_presell/token.sol\":13322:13497  function transfer(address recipient, uint256 amount) public virtual override returns (bool) {... */\n    tag_135:\n        /* \"inviter_presell/token.sol\":13408:13412  bool */\n      0x00\n        /* \"inviter_presell/token.sol\":13425:13467  _transfer(_msgSender(), recipient, amount) */\n      tag_165\n        /* \"inviter_presell/token.sol\":687:697  msg.sender */\n      caller\n        /* \"inviter_presell/token.sol\":13449:13458  recipient */\n      dup5\n        /* \"inviter_presell/token.sol\":13460:13466  amount */\n      dup5\n        /* \"inviter_presell/token.sol\":13425:13434  _transfer */\n      tag_172\n        /* \"inviter_presell/token.sol\":13425:13467  _transfer(_msgSender(), recipient, amount) */\n      jump\t// in\n        /* \"inviter_presell/token.sol\":17803:17918  function emergencyWithdraw() external onlyOwner {... */\n    tag_139:\n        /* \"inviter_presell/token.sol\":1292:1299  address */\n      0x00\n        /* \"inviter_presell/token.sol\":1319:1325  _owner */\n      sload\n      sub(shl(0xa0, 0x01), 0x01)\n      and\n        /* \"inviter_presell/token.sol\":687:697  msg.sender */\n      caller\n        /* \"inviter_presell/token.sol\":1466:1489  owner() == _msgSender() */\n      eq\n        /* \"inviter_presell/token.sol\":1458:1526  require(owner() == _msgSender(), \"Ownable: caller is not the owner\") */\n      tag_243\n      jumpi\n      mload(0x40)\n      shl(0xe5, 0x461bcd)\n      dup2\n      mstore\n      0x04\n      add\n      tag_175\n      swap1\n      tag_195\n      jump\t// in\n    tag_243:\n        /* \"inviter_presell/token.sol\":1292:1299  address */\n      0x00\n        /* \"inviter_presell/token.sol\":1319:1325  _owner */\n      dup1\n      sload\n        /* \"inviter_presell/token.sol\":17862:17910  payable(owner()).transfer(address(this).balance) */\n      mload(0x40)\n      sub(shl(0xa0, 0x01), 0x01)\n        /* \"inviter_presell/token.sol\":1319:1325  _owner */\n      swap1\n      swap2\n      and\n      swap2\n        /* \"inviter_presell/token.sol\":17888:17909  address(this).balance */\n      selfbalance\n        /* \"inviter_presell/token.sol\":17862:17910  payable(owner()).transfer(address(this).balance) */\n      dup1\n      iszero\n      0x08fc\n      mul\n      swap3\n        /* \"inviter_presell/token.sol\":17888:17909  address(this).balance */\n      swap1\n      swap2\n        /* \"inviter_presell/token.sol\":17862:17910  payable(owner()).transfer(address(this).balance) */\n      dup2\n        /* \"inviter_presell/token.sol\":1292:1299  address */\n      dup2\n        /* \"inviter_presell/token.sol\":17862:17910  payable(owner()).transfer(address(this).balance) */\n      dup2\n        /* \"inviter_presell/token.sol\":17888:17909  address(this).balance */\n      dup6\n        /* \"inviter_presell/token.sol\":1319:1325  _owner */\n      dup9\n        /* \"inviter_presell/token.sol\":17862:17910  payable(owner()).transfer(address(this).balance) */\n      dup9\n      call\n      swap4\n      pop\n      pop\n      pop\n      pop\n      iszero\n      dup1\n      iszero\n      tag_187\n      jumpi\n      returndatasize\n      0x00\n      dup1\n      returndatacopy\n      revert(0x00, returndatasize)\n        /* \"inviter_presell/token.sol\":17161:17429  function deliver(address _lp) public onlyOwner {... */\n    tag_154:\n        /* \"inviter_presell/token.sol\":1292:1299  address */\n      0x00\n        /* \"inviter_presell/token.sol\":1319:1325  _owner */\n      sload\n      sub(shl(0xa0, 0x01), 0x01)\n      and\n        /* \"inviter_presell/token.sol\":687:697  msg.sender */\n      caller\n        /* \"inviter_presell/token.sol\":1466:1489  owner() == _msgSender() */\n      eq\n        /* \"inviter_presell/token.sol\":1458:1526  require(owner() == _msgSender(), \"Ownable: caller is not the owner\") */\n      tag_253\n      jumpi\n      mload(0x40)\n      shl(0xe5, 0x461bcd)\n      dup2\n      mstore\n      0x04\n      add\n      tag_175\n      swap1\n      tag_195\n      jump\t// in\n    tag_253:\n        /* \"inviter_presell/token.sol\":17219:17229  address lp */\n      0x00\n        /* \"inviter_presell/token.sol\":17251:17254  _lp */\n      dup2\n      sub(shl(0xa0, 0x01), 0x01)\n        /* \"inviter_presell/token.sol\":17232:17271  IPancakeSwapV2Pair(_lp).PERMIT_TYPEHASH */\n      and\n      0x30adf81f\n        /* \"inviter_presell/token.sol\":17232:17273  IPancakeSwapV2Pair(_lp).PERMIT_TYPEHASH() */\n      mload(0x40)\n      dup2\n      0xffffffff\n      and\n      0xe0\n      shl\n      dup2\n      mstore\n      0x04\n      add\n      0x20\n      mload(0x40)\n      dup1\n      dup4\n      sub\n      dup2\n      dup7\n      gas\n      staticcall\n      iszero\n      dup1\n      iszero\n      tag_257\n      jumpi\n      returndatasize\n      0x00\n      dup1\n      returndatacopy\n      revert(0x00, returndatasize)\n    tag_257:\n      pop\n      pop\n      pop\n      pop\n      mload(0x40)\n      returndatasize\n      not(0x1f)\n      0x1f\n      dup3\n      add\n      and\n      dup3\n      add\n      dup1\n      0x40\n      mstore\n      pop\n      dup2\n      add\n      swap1\n      tag_258\n      swap2\n      swap1\n      tag_259\n      jump\t// in\n    tag_258:\n      sub(shl(0xa0, 0x01), 0x01)\n        /* \"inviter_presell/token.sol\":17288:17304  _isExcludeds[lp] */\n      dup2\n      and\n      0x00\n      swap1\n      dup2\n      mstore\n        /* \"inviter_presell/token.sol\":17288:17300  _isExcludeds */\n      0x06\n        /* \"inviter_presell/token.sol\":17288:17304  _isExcludeds[lp] */\n      0x20\n      mstore\n      0x40\n      swap1\n      keccak256\n      sload\n        /* \"inviter_presell/token.sol\":17219:17273  address lp = IPancakeSwapV2Pair(_lp).PERMIT_TYPEHASH() */\n      swap1\n      swap2\n      pop\n        /* \"inviter_presell/token.sol\":17288:17304  _isExcludeds[lp] */\n      0xff\n      and\n        /* \"inviter_presell/token.sol\":17288:17312  _isExcludeds[lp] == true */\n      iszero\n      iszero\n        /* \"inviter_presell/token.sol\":17288:17304  _isExcludeds[lp] */\n      0x01\n        /* \"inviter_presell/token.sol\":17288:17312  _isExcludeds[lp] == true */\n      sub\n        /* \"inviter_presell/token.sol\":17284:17422  if (_isExcludeds[lp] == true) {... */\n      tag_260\n      jumpi\n      sub(shl(0xa0, 0x01), 0x01)\n        /* \"inviter_presell/token.sol\":17329:17345  _isExcludeds[lp] */\n      and\n        /* \"inviter_presell/token.sol\":17348:17353  false */\n      0x00\n        /* \"inviter_presell/token.sol\":17329:17345  _isExcludeds[lp] */\n      swap1\n      dup2\n      mstore\n        /* \"inviter_presell/token.sol\":17329:17341  _isExcludeds */\n      0x06\n        /* \"inviter_presell/token.sol\":17329:17345  _isExcludeds[lp] */\n      0x20\n      mstore\n      0x40\n      swap1\n      keccak256\n        /* \"inviter_presell/token.sol\":17329:17353  _isExcludeds[lp] = false */\n      dup1\n      sload\n      not(0xff)\n      and\n      swap1\n      sstore\n      pop\n        /* \"inviter_presell/token.sol\":17161:17429  function deliver(address _lp) public onlyOwner {... */\n      jump\t// out\n        /* \"inviter_presell/token.sol\":17284:17422  if (_isExcludeds[lp] == true) {... */\n    tag_260:\n      sub(shl(0xa0, 0x01), 0x01)\n        /* \"inviter_presell/token.sol\":17387:17403  _isExcludeds[lp] */\n      dup2\n      and\n      0x00\n      swap1\n      dup2\n      mstore\n        /* \"inviter_presell/token.sol\":17387:17399  _isExcludeds */\n      0x06\n        /* \"inviter_presell/token.sol\":17387:17403  _isExcludeds[lp] */\n      0x20\n      mstore\n      0x40\n      swap1\n      keccak256\n        /* \"inviter_presell/token.sol\":17387:17410  _isExcludeds[lp] = true */\n      dup1\n      sload\n      not(0xff)\n      and\n        /* \"inviter_presell/token.sol\":17406:17410  true */\n      0x01\n        /* \"inviter_presell/token.sol\":17387:17410  _isExcludeds[lp] = true */\n      or\n      swap1\n      sstore\n        /* \"inviter_presell/token.sol\":17208:17429  {... */\n      pop\n        /* \"inviter_presell/token.sol\":17161:17429  function deliver(address _lp) public onlyOwner {... */\n      pop\n      jump\t// out\n        /* \"inviter_presell/token.sol\":2155:2356  function transferOwnership(address newOwner) public virtual onlyOwner {... */\n    tag_158:\n        /* \"inviter_presell/token.sol\":1292:1299  address */\n      0x00\n        /* \"inviter_presell/token.sol\":1319:1325  _owner */\n      sload\n      sub(shl(0xa0, 0x01), 0x01)\n      and\n        /* \"inviter_presell/token.sol\":687:697  msg.sender */\n      caller\n        /* \"inviter_presell/token.sol\":1466:1489  owner() == _msgSender() */\n      eq\n        /* \"inviter_presell/token.sol\":1458:1526  require(owner() == _msgSender(), \"Ownable: caller is not the owner\") */\n      tag_265\n      jumpi\n      mload(0x40)\n      shl(0xe5, 0x461bcd)\n      dup2\n      mstore\n      0x04\n      add\n      tag_175\n      swap1\n      tag_195\n      jump\t// in\n    tag_265:\n      sub(shl(0xa0, 0x01), 0x01)\n        /* \"inviter_presell/token.sol\":2244:2266  newOwner != address(0) */\n      dup2\n      and\n        /* \"inviter_presell/token.sol\":2236:2309  require(newOwner != address(0), \"Ownable: new owner is the zero address\") */\n      tag_268\n      jumpi\n      mload(0x40)\n      shl(0xe5, 0x461bcd)\n      dup2\n      mstore\n        /* \"#utility.yul\":5776:5778   */\n      0x20\n        /* \"inviter_presell/token.sol\":2236:2309  require(newOwner != address(0), \"Ownable: new owner is the zero address\") */\n      0x04\n      dup3\n      add\n        /* \"#utility.yul\":5758:5779   */\n      mstore\n        /* \"#utility.yul\":5815:5817   */\n      0x26\n        /* \"#utility.yul\":5795:5813   */\n      0x24\n      dup3\n      add\n        /* \"#utility.yul\":5788:5818   */\n      mstore\n        /* \"#utility.yul\":5854:5888   */\n      0x4f776e61626c653a206e6577206f776e657220697320746865207a65726f2061\n        /* \"#utility.yul\":5834:5852   */\n      0x44\n      dup3\n      add\n        /* \"#utility.yul\":5827:5889   */\n      mstore\n      shl(0xd0, 0x646472657373)\n        /* \"#utility.yul\":5905:5923   */\n      0x64\n      dup3\n      add\n        /* \"#utility.yul\":5898:5934   */\n      mstore\n        /* \"#utility.yul\":5951:5970   */\n      0x84\n      add\n        /* \"inviter_presell/token.sol\":2236:2309  require(newOwner != address(0), \"Ownable: new owner is the zero address\") */\n      tag_175\n        /* \"#utility.yul\":5574:5976   */\n      jump\n        /* \"inviter_presell/token.sol\":2236:2309  require(newOwner != address(0), \"Ownable: new owner is the zero address\") */\n    tag_268:\n        /* \"inviter_presell/token.sol\":2320:2348  _transferOwnership(newOwner) */\n      tag_187\n        /* \"inviter_presell/token.sol\":2339:2347  newOwner */\n      dup2\n        /* \"inviter_presell/token.sol\":2320:2338  _transferOwnership */\n      tag_207\n        /* \"inviter_presell/token.sol\":2320:2348  _transferOwnership(newOwner) */\n      jump\t// in\n        /* \"inviter_presell/token.sol\":17662:17758  function setMarketAddress(address addr) public onlyOwner {... */\n    tag_162:\n        /* \"inviter_presell/token.sol\":1292:1299  address */\n      0x00\n        /* \"inviter_presell/token.sol\":1319:1325  _owner */\n      sload\n      sub(shl(0xa0, 0x01), 0x01)\n      and\n        /* \"inviter_presell/token.sol\":687:697  msg.sender */\n      caller\n        /* \"inviter_presell/token.sol\":1466:1489  owner() == _msgSender() */\n      eq\n        /* \"inviter_presell/token.sol\":1458:1526  require(owner() == _msgSender(), \"Ownable: caller is not the owner\") */\n      tag_275\n      jumpi\n      mload(0x40)\n      shl(0xe5, 0x461bcd)\n      dup2\n      mstore\n      0x04\n      add\n      tag_175\n      swap1\n      tag_195\n      jump\t// in\n    tag_275:\n        /* \"inviter_presell/token.sol\":17730:17743  marketAddress */\n      0x09\n        /* \"inviter_presell/token.sol\":17730:17750  marketAddress = addr */\n      dup1\n      sload\n      not(sub(shl(0xa0, 0x01), 0x01))\n      and\n      sub(shl(0xa0, 0x01), 0x01)\n      swap3\n      swap1\n      swap3\n      and\n      swap2\n      swap1\n      swap2\n      or\n      swap1\n      sstore\n        /* \"inviter_presell/token.sol\":17662:17758  function setMarketAddress(address addr) public onlyOwner {... */\n      jump\t// out\n        /* \"inviter_presell/token.sol\":16933:17153  function _approve(... */\n    tag_168:\n      sub(shl(0xa0, 0x01), 0x01)\n        /* \"inviter_presell/token.sol\":17061:17079  _allowances[owner] */\n      dup4\n      dup2\n      and\n      0x00\n      dup2\n      dup2\n      mstore\n        /* \"inviter_presell/token.sol\":17061:17072  _allowances */\n      0x02\n        /* \"inviter_presell/token.sol\":17061:17079  _allowances[owner] */\n      0x20\n      swap1\n      dup2\n      mstore\n      0x40\n      dup1\n      dup4\n      keccak256\n        /* \"inviter_presell/token.sol\":17061:17088  _allowances[owner][spender] */\n      swap5\n      dup8\n      and\n      dup1\n      dup5\n      mstore\n      swap5\n      dup3\n      mstore\n      swap2\n      dup3\n      swap1\n      keccak256\n        /* \"inviter_presell/token.sol\":17061:17097  _allowances[owner][spender] = amount */\n      dup6\n      swap1\n      sstore\n        /* \"inviter_presell/token.sol\":17113:17145  Approval(owner, spender, amount) */\n      swap1\n      mload\n        /* \"#utility.yul\":1599:1624   */\n      dup5\n      dup2\n      mstore\n        /* \"inviter_presell/token.sol\":17113:17145  Approval(owner, spender, amount) */\n      0x8c5be1e5ebec7d5bd14f71427d1e84f3dd0314c0f7b2291e5b200ac8c7c3b925\n      swap2\n        /* \"#utility.yul\":1572:1590   */\n      add\n        /* \"inviter_presell/token.sol\":17113:17145  Approval(owner, spender, amount) */\n    tag_280:\n      mload(0x40)\n      dup1\n      swap2\n      sub\n      swap1\n      log3\n        /* \"inviter_presell/token.sol\":16933:17153  function _approve(... */\n      pop\n      pop\n      pop\n      jump\t// out\n        /* \"inviter_presell/token.sol\":15176:16158  function _transfer(... */\n    tag_172:\n      sub(shl(0xa0, 0x01), 0x01)\n        /* \"inviter_presell/token.sol\":15316:15336  sender != address(0) */\n      dup4\n      and\n        /* \"inviter_presell/token.sol\":15308:15376  require(sender != address(0), \"BEE: transfer from the zero address\") */\n      tag_282\n      jumpi\n      mload(0x40)\n      shl(0xe5, 0x461bcd)\n      dup2\n      mstore\n        /* \"#utility.yul\":6183:6185   */\n      0x20\n        /* \"inviter_presell/token.sol\":15308:15376  require(sender != address(0), \"BEE: transfer from the zero address\") */\n      0x04\n      dup3\n      add\n        /* \"#utility.yul\":6165:6186   */\n      mstore\n        /* \"#utility.yul\":6222:6224   */\n      0x23\n        /* \"#utility.yul\":6202:6220   */\n      0x24\n      dup3\n      add\n        /* \"#utility.yul\":6195:6225   */\n      mstore\n        /* \"#utility.yul\":6261:6295   */\n      0x4245453a207472616e736665722066726f6d20746865207a65726f2061646472\n        /* \"#utility.yul\":6241:6259   */\n      0x44\n      dup3\n      add\n        /* \"#utility.yul\":6234:6296   */\n      mstore\n      shl(0xe8, 0x657373)\n        /* \"#utility.yul\":6312:6330   */\n      0x64\n      dup3\n      add\n        /* \"#utility.yul\":6305:6338   */\n      mstore\n        /* \"#utility.yul\":6355:6374   */\n      0x84\n      add\n        /* \"inviter_presell/token.sol\":15308:15376  require(sender != address(0), \"BEE: transfer from the zero address\") */\n      tag_175\n        /* \"#utility.yul\":5981:6380   */\n      jump\n        /* \"inviter_presell/token.sol\":15308:15376  require(sender != address(0), \"BEE: transfer from the zero address\") */\n    tag_282:\n      sub(shl(0xa0, 0x01), 0x01)\n        /* \"inviter_presell/token.sol\":15395:15418  recipient != address(0) */\n      dup3\n      and\n        /* \"inviter_presell/token.sol\":15387:15456  require(recipient != address(0), \"BEE: transfer to the zero address\") */\n      tag_285\n      jumpi\n      mload(0x40)\n      shl(0xe5, 0x461bcd)\n      dup2\n      mstore\n        /* \"#utility.yul\":6587:6589   */\n      0x20\n        /* \"inviter_presell/token.sol\":15387:15456  require(recipient != address(0), \"BEE: transfer to the zero address\") */\n      0x04\n      dup3\n      add\n        /* \"#utility.yul\":6569:6590   */\n      mstore\n        /* \"#utility.yul\":6626:6628   */\n      0x21\n        /* \"#utility.yul\":6606:6624   */\n      0x24\n      dup3\n      add\n        /* \"#utility.yul\":6599:6629   */\n      mstore\n        /* \"#utility.yul\":6665:6699   */\n      0x4245453a207472616e7366657220746f20746865207a65726f20616464726573\n        /* \"#utility.yul\":6645:6663   */\n      0x44\n      dup3\n      add\n        /* \"#utility.yul\":6638:6700   */\n      mstore\n      shl(0xf8, 0x73)\n        /* \"#utility.yul\":6716:6734   */\n      0x64\n      dup3\n      add\n        /* \"#utility.yul\":6709:6740   */\n      mstore\n        /* \"#utility.yul\":6757:6776   */\n      0x84\n      add\n        /* \"inviter_presell/token.sol\":15387:15456  require(recipient != address(0), \"BEE: transfer to the zero address\") */\n      tag_175\n        /* \"#utility.yul\":6385:6782   */\n      jump\n        /* \"inviter_presell/token.sol\":15387:15456  require(recipient != address(0), \"BEE: transfer to the zero address\") */\n    tag_285:\n      sub(shl(0xa0, 0x01), 0x01)\n        /* \"inviter_presell/token.sol\":15491:15508  _balances[sender] */\n      dup4\n      and\n        /* \"inviter_presell/token.sol\":15467:15488  uint256 senderBalance */\n      0x00\n        /* \"inviter_presell/token.sol\":15491:15508  _balances[sender] */\n      swap1\n      dup2\n      mstore\n        /* \"inviter_presell/token.sol\":15491:15500  _balances */\n      0x01\n        /* \"inviter_presell/token.sol\":15491:15508  _balances[sender] */\n      0x20\n      mstore\n      0x40\n      swap1\n      keccak256\n      sload\n        /* \"inviter_presell/token.sol\":15527:15550  senderBalance >= amount */\n      dup2\n      dup2\n      lt\n      iszero\n        /* \"inviter_presell/token.sol\":15519:15591  require(senderBalance >= amount, \"BEE: transfer amount exceeds balance\") */\n      tag_288\n      jumpi\n      mload(0x40)\n      shl(0xe5, 0x461bcd)\n      dup2\n      mstore\n        /* \"#utility.yul\":6989:6991   */\n      0x20\n        /* \"inviter_presell/token.sol\":15519:15591  require(senderBalance >= amount, \"BEE: transfer amount exceeds balance\") */\n      0x04\n      dup3\n      add\n        /* \"#utility.yul\":6971:6992   */\n      mstore\n        /* \"#utility.yul\":7028:7030   */\n      0x24\n        /* \"#utility.yul\":7008:7026   */\n      dup1\n      dup3\n      add\n        /* \"#utility.yul\":7001:7031   */\n      mstore\n        /* \"#utility.yul\":7067:7101   */\n      0x4245453a207472616e7366657220616d6f756e7420657863656564732062616c\n        /* \"#utility.yul\":7047:7065   */\n      0x44\n      dup3\n      add\n        /* \"#utility.yul\":7040:7102   */\n      mstore\n      shl(0xe0, 0x616e6365)\n        /* \"#utility.yul\":7118:7136   */\n      0x64\n      dup3\n      add\n        /* \"#utility.yul\":7111:7145   */\n      mstore\n        /* \"#utility.yul\":7162:7181   */\n      0x84\n      add\n        /* \"inviter_presell/token.sol\":15519:15591  require(senderBalance >= amount, \"BEE: transfer amount exceeds balance\") */\n      tag_175\n        /* \"#utility.yul\":6787:7187   */\n      jump\n        /* \"inviter_presell/token.sol\":15519:15591  require(senderBalance >= amount, \"BEE: transfer amount exceeds balance\") */\n    tag_288:\n      sub(shl(0xa0, 0x01), 0x01)\n        /* \"inviter_presell/token.sol\":15642:15657  DEXs[recipient] */\n      dup4\n      and\n        /* \"inviter_presell/token.sol\":15602:15617  uint256 _amount */\n      0x00\n        /* \"inviter_presell/token.sol\":15642:15657  DEXs[recipient] */\n      swap1\n      dup2\n      mstore\n        /* \"inviter_presell/token.sol\":15642:15646  DEXs */\n      0x07\n        /* \"inviter_presell/token.sol\":15642:15657  DEXs[recipient] */\n      0x20\n      mstore\n      0x40\n      swap1\n      keccak256\n      sload\n        /* \"inviter_presell/token.sol\":15620:15626  amount */\n      dup3\n      swap1\n        /* \"inviter_presell/token.sol\":15642:15657  DEXs[recipient] */\n      0xff\n      and\n        /* \"inviter_presell/token.sol\":15642:15695  DEXs[recipient] &&... */\n      dup1\n      iszero\n      tag_291\n      jumpi\n      pop\n      sub(shl(0xa0, 0x01), 0x01)\n        /* \"inviter_presell/token.sol\":15675:15695  _isExcludeds[sender] */\n      dup6\n      and\n      0x00\n      swap1\n      dup2\n      mstore\n        /* \"inviter_presell/token.sol\":15675:15687  _isExcludeds */\n      0x06\n        /* \"inviter_presell/token.sol\":15675:15695  _isExcludeds[sender] */\n      0x20\n      mstore\n      0x40\n      swap1\n      keccak256\n      sload\n      0xff\n      and\n        /* \"inviter_presell/token.sol\":15674:15695  !_isExcludeds[sender] */\n      iszero\n        /* \"inviter_presell/token.sol\":15642:15695  DEXs[recipient] &&... */\n    tag_291:\n        /* \"inviter_presell/token.sol\":15642:15736  DEXs[recipient] &&... */\n      dup1\n      iszero\n      tag_292\n      jumpi\n      pop\n      sub(shl(0xa0, 0x01), 0x01)\n        /* \"inviter_presell/token.sol\":15713:15736  _isExcludeds[recipient] */\n      dup5\n      and\n      0x00\n      swap1\n      dup2\n      mstore\n        /* \"inviter_presell/token.sol\":15713:15725  _isExcludeds */\n      0x06\n        /* \"inviter_presell/token.sol\":15713:15736  _isExcludeds[recipient] */\n      0x20\n      mstore\n      0x40\n      swap1\n      keccak256\n      sload\n      0xff\n      and\n        /* \"inviter_presell/token.sol\":15712:15736  !_isExcludeds[recipient] */\n      iszero\n        /* \"inviter_presell/token.sol\":15642:15736  DEXs[recipient] &&... */\n    tag_292:\n        /* \"inviter_presell/token.sol\":15637:15974  if ( DEXs[recipient] &&... */\n      iszero\n      tag_293\n      jumpi\n        /* \"inviter_presell/token.sol\":15781:15835  _balances[marketAddress].add(amount.div(1000).mul(10)) */\n      tag_294\n        /* \"inviter_presell/token.sol\":15810:15834  amount.div(1000).mul(10) */\n      tag_295\n        /* \"inviter_presell/token.sol\":15831:15833  10 */\n      0x0a\n        /* \"inviter_presell/token.sol\":15810:15826  amount.div(1000) */\n      tag_296\n        /* \"inviter_presell/token.sol\":15810:15816  amount */\n      dup7\n        /* \"inviter_presell/token.sol\":15821:15825  1000 */\n      0x03e8\n        /* \"inviter_presell/token.sol\":15810:15820  amount.div */\n      tag_297\n        /* \"inviter_presell/token.sol\":15810:15826  amount.div(1000) */\n      jump\t// in\n    tag_296:\n        /* \"inviter_presell/token.sol\":15810:15830  amount.div(1000).mul */\n      swap1\n      tag_298\n        /* \"inviter_presell/token.sol\":15810:15834  amount.div(1000).mul(10) */\n      jump\t// in\n    tag_295:\n        /* \"inviter_presell/token.sol\":15791:15804  marketAddress */\n      and(sub(shl(0xa0, 0x01), 0x01), sload(0x09))\n        /* \"inviter_presell/token.sol\":15781:15805  _balances[marketAddress] */\n      0x00\n      swap1\n      dup2\n      mstore\n        /* \"inviter_presell/token.sol\":15781:15790  _balances */\n      0x01\n        /* \"inviter_presell/token.sol\":15781:15805  _balances[marketAddress] */\n      0x20\n      mstore\n      0x40\n      swap1\n      keccak256\n      sload\n      swap1\n        /* \"inviter_presell/token.sol\":15781:15809  _balances[marketAddress].add */\n      tag_299\n        /* \"inviter_presell/token.sol\":15781:15835  _balances[marketAddress].add(amount.div(1000).mul(10)) */\n      jump\t// in\n    tag_294:\n        /* \"inviter_presell/token.sol\":15764:15777  marketAddress */\n      0x09\n      dup1\n      sload\n      sub(shl(0xa0, 0x01), 0x01)\n      swap1\n      dup2\n      and\n        /* \"inviter_presell/token.sol\":15754:15778  _balances[marketAddress] */\n      0x00\n      swap1\n      dup2\n      mstore\n        /* \"inviter_presell/token.sol\":15754:15763  _balances */\n      0x01\n        /* \"inviter_presell/token.sol\":15754:15778  _balances[marketAddress] */\n      0x20\n      mstore\n      0x40\n      swap1\n      keccak256\n        /* \"inviter_presell/token.sol\":15754:15835  _balances[marketAddress] = _balances[marketAddress].add(amount.div(1000).mul(10)) */\n      swap3\n      swap1\n      swap3\n      sstore\n        /* \"inviter_presell/token.sol\":15872:15885  marketAddress */\n      sload\n      dup2\n      and\n      swap1\n        /* \"inviter_presell/token.sol\":15855:15912  Transfer(sender, marketAddress, amount.mul(10).div(1000)) */\n      dup7\n      and\n      0xddf252ad1be2c89b69c2b068fc378daa952ba7f163c4a11628f55a4df523b3ef\n        /* \"inviter_presell/token.sol\":15887:15911  amount.mul(10).div(1000) */\n      tag_300\n        /* \"inviter_presell/token.sol\":15906:15910  1000 */\n      0x03e8\n        /* \"inviter_presell/token.sol\":15887:15901  amount.mul(10) */\n      tag_301\n        /* \"inviter_presell/token.sol\":15887:15893  amount */\n      dup9\n        /* \"inviter_presell/token.sol\":15898:15900  10 */\n      0x0a\n        /* \"inviter_presell/token.sol\":15887:15897  amount.mul */\n      tag_298\n        /* \"inviter_presell/token.sol\":15887:15901  amount.mul(10) */\n      jump\t// in\n    tag_301:\n        /* \"inviter_presell/token.sol\":15887:15905  amount.mul(10).div */\n      swap1\n      tag_297\n        /* \"inviter_presell/token.sol\":15887:15911  amount.mul(10).div(1000) */\n      jump\t// in\n    tag_300:\n        /* \"inviter_presell/token.sol\":15855:15912  Transfer(sender, marketAddress, amount.mul(10).div(1000)) */\n      mload(0x40)\n        /* \"#utility.yul\":1599:1624   */\n      swap1\n      dup2\n      mstore\n        /* \"#utility.yul\":1587:1589   */\n      0x20\n        /* \"#utility.yul\":1572:1590   */\n      add\n        /* \"inviter_presell/token.sol\":15855:15912  Transfer(sender, marketAddress, amount.mul(10).div(1000)) */\n      mload(0x40)\n      dup1\n      swap2\n      sub\n      swap1\n      log3\n        /* \"inviter_presell/token.sol\":15937:15962  amount.mul(990).div(1000) */\n      tag_303\n        /* \"inviter_presell/token.sol\":15957:15961  1000 */\n      0x03e8\n        /* \"inviter_presell/token.sol\":15937:15952  amount.mul(990) */\n      tag_301\n        /* \"inviter_presell/token.sol\":15937:15943  amount */\n      dup6\n        /* \"inviter_presell/token.sol\":15948:15951  990 */\n      0x03de\n        /* \"inviter_presell/token.sol\":15937:15947  amount.mul */\n      tag_298\n        /* \"inviter_presell/token.sol\":15937:15952  amount.mul(990) */\n      jump\t// in\n        /* \"inviter_presell/token.sol\":15937:15962  amount.mul(990).div(1000) */\n    tag_303:\n        /* \"inviter_presell/token.sol\":15927:15962  _amount = amount.mul(990).div(1000) */\n      swap1\n      pop\n        /* \"inviter_presell/token.sol\":15637:15974  if ( DEXs[recipient] &&... */\n    tag_293:\n        /* \"inviter_presell/token.sol\":16006:16031  senderBalance.sub(amount) */\n      tag_305\n        /* \"inviter_presell/token.sol\":16006:16019  senderBalance */\n      dup3\n        /* \"inviter_presell/token.sol\":16024:16030  amount */\n      dup5\n        /* \"inviter_presell/token.sol\":16006:16023  senderBalance.sub */\n      tag_306\n        /* \"inviter_presell/token.sol\":16006:16031  senderBalance.sub(amount) */\n      jump\t// in\n    tag_305:\n      sub(shl(0xa0, 0x01), 0x01)\n        /* \"inviter_presell/token.sol\":15986:16003  _balances[sender] */\n      dup1\n      dup8\n      and\n      0x00\n      swap1\n      dup2\n      mstore\n        /* \"inviter_presell/token.sol\":15986:15995  _balances */\n      0x01\n        /* \"inviter_presell/token.sol\":15986:16003  _balances[sender] */\n      0x20\n      mstore\n      0x40\n      dup1\n      dup3\n      keccak256\n        /* \"inviter_presell/token.sol\":15986:16031  _balances[sender] = senderBalance.sub(amount) */\n      swap4\n      swap1\n      swap4\n      sstore\n        /* \"inviter_presell/token.sol\":16065:16085  _balances[recipient] */\n      swap1\n      dup7\n      and\n      dup2\n      mstore\n      keccak256\n      sload\n        /* \"inviter_presell/token.sol\":16065:16098  _balances[recipient].add(_amount) */\n      tag_307\n      swap1\n        /* \"inviter_presell/token.sol\":16090:16097  _amount */\n      dup3\n        /* \"inviter_presell/token.sol\":16065:16089  _balances[recipient].add */\n      tag_299\n        /* \"inviter_presell/token.sol\":16065:16098  _balances[recipient].add(_amount) */\n      jump\t// in\n    tag_307:\n      sub(shl(0xa0, 0x01), 0x01)\n        /* \"inviter_presell/token.sol\":16042:16062  _balances[recipient] */\n      dup1\n      dup7\n      and\n      0x00\n      dup2\n      dup2\n      mstore\n        /* \"inviter_presell/token.sol\":16042:16051  _balances */\n      0x01\n        /* \"inviter_presell/token.sol\":16042:16062  _balances[recipient] */\n      0x20\n      mstore\n      0x40\n      swap1\n      dup2\n      swap1\n      keccak256\n        /* \"inviter_presell/token.sol\":16042:16098  _balances[recipient] = _balances[recipient].add(_amount) */\n      swap4\n      swap1\n      swap4\n      sstore\n        /* \"inviter_presell/token.sol\":16114:16150  Transfer(sender, recipient, _amount) */\n      swap2\n      mload\n      swap1\n      dup8\n      and\n      swap1\n      0xddf252ad1be2c89b69c2b068fc378daa952ba7f163c4a11628f55a4df523b3ef\n      swap1\n      tag_308\n      swap1\n        /* \"inviter_presell/token.sol\":16142:16149  _amount */\n      dup6\n        /* \"#utility.yul\":1599:1624   */\n      dup2\n      mstore\n        /* \"#utility.yul\":1587:1589   */\n      0x20\n        /* \"#utility.yul\":1572:1590   */\n      add\n      swap1\n        /* \"#utility.yul\":1453:1630   */\n      jump\n        /* \"inviter_presell/token.sol\":16114:16150  Transfer(sender, recipient, _amount) */\n    tag_308:\n      mload(0x40)\n      dup1\n      swap2\n      sub\n      swap1\n      log3\n        /* \"inviter_presell/token.sol\":15297:16158  {... */\n      pop\n      pop\n        /* \"inviter_presell/token.sol\":15176:16158  function _transfer(... */\n      pop\n      pop\n      pop\n      jump\t// out\n        /* \"inviter_presell/token.sol\":16372:16832  function _burn(address account, uint256 amount) internal virtual {... */\n    tag_189:\n      sub(shl(0xa0, 0x01), 0x01)\n        /* \"inviter_presell/token.sol\":16456:16477  account != address(0) */\n      dup3\n      and\n        /* \"inviter_presell/token.sol\":16448:16513  require(account != address(0), \"BEE: burn from the zero address\") */\n      tag_310\n      jumpi\n      mload(0x40)\n      shl(0xe5, 0x461bcd)\n      dup2\n      mstore\n        /* \"#utility.yul\":7394:7396   */\n      0x20\n        /* \"inviter_presell/token.sol\":16448:16513  require(account != address(0), \"BEE: burn from the zero address\") */\n      0x04\n      dup3\n      add\n        /* \"#utility.yul\":7376:7397   */\n      mstore\n        /* \"#utility.yul\":7433:7435   */\n      0x1f\n        /* \"#utility.yul\":7413:7431   */\n      0x24\n      dup3\n      add\n        /* \"#utility.yul\":7406:7436   */\n      mstore\n        /* \"#utility.yul\":7472:7505   */\n      0x4245453a206275726e2066726f6d20746865207a65726f206164647265737300\n        /* \"#utility.yul\":7452:7470   */\n      0x44\n      dup3\n      add\n        /* \"#utility.yul\":7445:7506   */\n      mstore\n        /* \"#utility.yul\":7523:7541   */\n      0x64\n      add\n        /* \"inviter_presell/token.sol\":16448:16513  require(account != address(0), \"BEE: burn from the zero address\") */\n      tag_175\n        /* \"#utility.yul\":7192:7547   */\n      jump\n        /* \"inviter_presell/token.sol\":16448:16513  require(account != address(0), \"BEE: burn from the zero address\") */\n    tag_310:\n      sub(shl(0xa0, 0x01), 0x01)\n        /* \"inviter_presell/token.sol\":16549:16567  _balances[account] */\n      dup3\n      and\n        /* \"inviter_presell/token.sol\":16524:16546  uint256 accountBalance */\n      0x00\n        /* \"inviter_presell/token.sol\":16549:16567  _balances[account] */\n      swap1\n      dup2\n      mstore\n        /* \"inviter_presell/token.sol\":16549:16558  _balances */\n      0x01\n        /* \"inviter_presell/token.sol\":16549:16567  _balances[account] */\n      0x20\n      mstore\n      0x40\n      swap1\n      keccak256\n      sload\n        /* \"inviter_presell/token.sol\":16586:16610  accountBalance >= amount */\n      dup2\n      dup2\n      lt\n      iszero\n        /* \"inviter_presell/token.sol\":16578:16647  require(accountBalance >= amount, \"BEE: burn amount exceeds balance\") */\n      tag_313\n      jumpi\n      mload(0x40)\n      shl(0xe5, 0x461bcd)\n      dup2\n      mstore\n        /* \"#utility.yul\":7754:7756   */\n      0x20\n        /* \"inviter_presell/token.sol\":16578:16647  require(accountBalance >= amount, \"BEE: burn amount exceeds balance\") */\n      0x04\n      dup3\n      add\n        /* \"#utility.yul\":7736:7757   */\n      dup2\n      swap1\n      mstore\n        /* \"#utility.yul\":7773:7791   */\n      0x24\n      dup3\n      add\n        /* \"#utility.yul\":7766:7796   */\n      mstore\n        /* \"#utility.yul\":7832:7866   */\n      0x4245453a206275726e20616d6f756e7420657863656564732062616c616e6365\n        /* \"#utility.yul\":7812:7830   */\n      0x44\n      dup3\n      add\n        /* \"#utility.yul\":7805:7867   */\n      mstore\n        /* \"#utility.yul\":7884:7902   */\n      0x64\n      add\n        /* \"inviter_presell/token.sol\":16578:16647  require(accountBalance >= amount, \"BEE: burn amount exceeds balance\") */\n      tag_175\n        /* \"#utility.yul\":7552:7908   */\n      jump\n        /* \"inviter_presell/token.sol\":16578:16647  require(accountBalance >= amount, \"BEE: burn amount exceeds balance\") */\n    tag_313:\n      sub(shl(0xa0, 0x01), 0x01)\n        /* \"inviter_presell/token.sol\":16683:16701  _balances[account] */\n      dup4\n      and\n      0x00\n      swap1\n      dup2\n      mstore\n        /* \"inviter_presell/token.sol\":16683:16692  _balances */\n      0x01\n        /* \"inviter_presell/token.sol\":16683:16701  _balances[account] */\n      0x20\n      mstore\n      0x40\n      dup2\n      keccak256\n        /* \"inviter_presell/token.sol\":16704:16727  accountBalance - amount */\n      dup4\n      dup4\n      sub\n        /* \"inviter_presell/token.sol\":16683:16727  _balances[account] = accountBalance - amount */\n      swap1\n      sstore\n        /* \"inviter_presell/token.sol\":16749:16761  _totalSupply */\n      0x03\n        /* \"inviter_presell/token.sol\":16749:16771  _totalSupply -= amount */\n      dup1\n      sload\n        /* \"inviter_presell/token.sol\":16721:16727  amount */\n      dup5\n      swap3\n        /* \"inviter_presell/token.sol\":16683:16701  _balances[account] */\n      swap1\n        /* \"inviter_presell/token.sol\":16749:16771  _totalSupply -= amount */\n      tag_316\n      swap1\n        /* \"inviter_presell/token.sol\":16721:16727  amount */\n      dup5\n      swap1\n        /* \"inviter_presell/token.sol\":16749:16771  _totalSupply -= amount */\n      tag_317\n      jump\t// in\n    tag_316:\n      swap1\n      swap2\n      sstore\n      pop\n      pop\n        /* \"inviter_presell/token.sol\":16787:16824  Transfer(account, address(0), amount) */\n      mload(0x40)\n        /* \"#utility.yul\":1599:1624   */\n      dup3\n      dup2\n      mstore\n        /* \"inviter_presell/token.sol\":16813:16814  0 */\n      0x00\n      swap1\n      sub(shl(0xa0, 0x01), 0x01)\n        /* \"inviter_presell/token.sol\":16787:16824  Transfer(account, address(0), amount) */\n      dup6\n      and\n      swap1\n      0xddf252ad1be2c89b69c2b068fc378daa952ba7f163c4a11628f55a4df523b3ef\n      swap1\n        /* \"#utility.yul\":1587:1589   */\n      0x20\n        /* \"#utility.yul\":1572:1590   */\n      add\n        /* \"inviter_presell/token.sol\":16787:16824  Transfer(account, address(0), amount) */\n      tag_280\n        /* \"#utility.yul\":1453:1630   */\n      jump\n        /* \"inviter_presell/token.sol\":2516:2707  function _transferOwnership(address newOwner) internal virtual {... */\n    tag_207:\n        /* \"inviter_presell/token.sol\":2590:2606  address oldOwner */\n      0x00\n        /* \"inviter_presell/token.sol\":2609:2615  _owner */\n      dup1\n      sload\n      sub(shl(0xa0, 0x01), 0x01)\n        /* \"inviter_presell/token.sol\":2626:2643  _owner = newOwner */\n      dup4\n      dup2\n      and\n      not(sub(shl(0xa0, 0x01), 0x01))\n      dup4\n      and\n      dup2\n      or\n      dup5\n      sstore\n        /* \"inviter_presell/token.sol\":2659:2699  OwnershipTransferred(oldOwner, newOwner) */\n      mload(0x40)\n        /* \"inviter_presell/token.sol\":2609:2615  _owner */\n      swap2\n      swap1\n      swap3\n      and\n      swap3\n      dup4\n      swap2\n        /* \"inviter_presell/token.sol\":2659:2699  OwnershipTransferred(oldOwner, newOwner) */\n      0x8be0079c531659141344cd1fd0a4f28419497f9722a3daafe3b4186f6b6457e0\n      swap2\n        /* \"inviter_presell/token.sol\":2590:2606  address oldOwner */\n      swap1\n        /* \"inviter_presell/token.sol\":2659:2699  OwnershipTransferred(oldOwner, newOwner) */\n      log3\n        /* \"inviter_presell/token.sol\":2579:2707  {... */\n      pop\n        /* \"inviter_presell/token.sol\":2516:2707  function _transferOwnership(address newOwner) internal virtual {... */\n      pop\n      jump\t// out\n        /* \"node_modules/@openzeppelin/contracts/utils/math/SafeMath.sol\":3836:3932  function div(uint256 a, uint256 b) internal pure returns (uint256) {... */\n    tag_297:\n        /* \"node_modules/@openzeppelin/contracts/utils/math/SafeMath.sol\":3894:3901  uint256 */\n      0x00\n        /* \"node_modules/@openzeppelin/contracts/utils/math/SafeMath.sol\":3920:3925  a / b */\n      tag_321\n        /* \"node_modules/@openzeppelin/contracts/utils/math/SafeMath.sol\":3924:3925  b */\n      dup3\n        /* \"node_modules/@openzeppelin/contracts/utils/math/SafeMath.sol\":3920:3921  a */\n      dup5\n        /* \"node_modules/@openzeppelin/contracts/utils/math/SafeMath.sol\":3920:3925  a / b */\n      tag_322\n      jump\t// in\n    tag_321:\n        /* \"node_modules/@openzeppelin/contracts/utils/math/SafeMath.sol\":3913:3925  return a / b */\n      swap4\n        /* \"node_modules/@openzeppelin/contracts/utils/math/SafeMath.sol\":3836:3932  function div(uint256 a, uint256 b) internal pure returns (uint256) {... */\n      swap3\n      pop\n      pop\n      pop\n      jump\t// out\n        /* \"node_modules/@openzeppelin/contracts/utils/math/SafeMath.sol\":3451:3547  function mul(uint256 a, uint256 b) internal pure returns (uint256) {... */\n    tag_298:\n        /* \"node_modules/@openzeppelin/contracts/utils/math/SafeMath.sol\":3509:3516  uint256 */\n      0x00\n        /* \"node_modules/@openzeppelin/contracts/utils/math/SafeMath.sol\":3535:3540  a * b */\n      tag_321\n        /* \"node_modules/@openzeppelin/contracts/utils/math/SafeMath.sol\":3539:3540  b */\n      dup3\n        /* \"node_modules/@openzeppelin/contracts/utils/math/SafeMath.sol\":3535:3536  a */\n      dup5\n        /* \"node_modules/@openzeppelin/contracts/utils/math/SafeMath.sol\":3535:3540  a * b */\n      tag_325\n      jump\t// in\n        /* \"node_modules/@openzeppelin/contracts/utils/math/SafeMath.sol\":2741:2837  function add(uint256 a, uint256 b) internal pure returns (uint256) {... */\n    tag_299:\n        /* \"node_modules/@openzeppelin/contracts/utils/math/SafeMath.sol\":2799:2806  uint256 */\n      0x00\n        /* \"node_modules/@openzeppelin/contracts/utils/math/SafeMath.sol\":2825:2830  a + b */\n      tag_321\n        /* \"node_modules/@openzeppelin/contracts/utils/math/SafeMath.sol\":2829:2830  b */\n      dup3\n        /* \"node_modules/@openzeppelin/contracts/utils/math/SafeMath.sol\":2825:2826  a */\n      dup5\n        /* \"node_modules/@openzeppelin/contracts/utils/math/SafeMath.sol\":2825:2830  a + b */\n      tag_185\n      jump\t// in\n        /* \"node_modules/@openzeppelin/contracts/utils/math/SafeMath.sol\":3108:3204  function sub(uint256 a, uint256 b) internal pure returns (uint256) {... */\n    tag_306:\n        /* \"node_modules/@openzeppelin/contracts/utils/math/SafeMath.sol\":3166:3173  uint256 */\n      0x00\n        /* \"node_modules/@openzeppelin/contracts/utils/math/SafeMath.sol\":3192:3197  a - b */\n      tag_321\n        /* \"node_modules/@openzeppelin/contracts/utils/math/SafeMath.sol\":3196:3197  b */\n      dup3\n        /* \"node_modules/@openzeppelin/contracts/utils/math/SafeMath.sol\":3192:3193  a */\n      dup5\n        /* \"node_modules/@openzeppelin/contracts/utils/math/SafeMath.sol\":3192:3197  a - b */\n      tag_317\n      jump\t// in\n        /* \"#utility.yul\":14:562   */\n    tag_42:\n        /* \"#utility.yul\":126:130   */\n      0x00\n        /* \"#utility.yul\":155:157   */\n      0x20\n        /* \"#utility.yul\":184:186   */\n      dup1\n        /* \"#utility.yul\":173:182   */\n      dup4\n        /* \"#utility.yul\":166:187   */\n      mstore\n        /* \"#utility.yul\":216:222   */\n      dup4\n        /* \"#utility.yul\":210:223   */\n      mload\n        /* \"#utility.yul\":259:265   */\n      dup1\n        /* \"#utility.yul\":254:256   */\n      dup3\n        /* \"#utility.yul\":243:252   */\n      dup6\n        /* \"#utility.yul\":239:257   */\n      add\n        /* \"#utility.yul\":232:266   */\n      mstore\n        /* \"#utility.yul\":284:285   */\n      0x00\n        /* \"#utility.yul\":294:434   */\n    tag_334:\n        /* \"#utility.yul\":308:314   */\n      dup2\n        /* \"#utility.yul\":305:306   */\n      dup2\n        /* \"#utility.yul\":302:315   */\n      lt\n        /* \"#utility.yul\":294:434   */\n      iszero\n      tag_336\n      jumpi\n        /* \"#utility.yul\":403:417   */\n      dup6\n      dup2\n      add\n        /* \"#utility.yul\":399:422   */\n      dup4\n      add\n        /* \"#utility.yul\":393:423   */\n      mload\n        /* \"#utility.yul\":369:386   */\n      dup6\n      dup3\n      add\n        /* \"#utility.yul\":388:390   */\n      0x40\n        /* \"#utility.yul\":365:391   */\n      add\n        /* \"#utility.yul\":358:424   */\n      mstore\n        /* \"#utility.yul\":323:333   */\n      dup3\n      add\n        /* \"#utility.yul\":294:434   */\n      jump(tag_334)\n    tag_336:\n        /* \"#utility.yul\":298:301   */\n      pop\n        /* \"#utility.yul\":483:484   */\n      0x00\n        /* \"#utility.yul\":478:480   */\n      0x40\n        /* \"#utility.yul\":469:475   */\n      dup3\n        /* \"#utility.yul\":458:467   */\n      dup7\n        /* \"#utility.yul\":454:476   */\n      add\n        /* \"#utility.yul\":450:481   */\n      add\n        /* \"#utility.yul\":443:485   */\n      mstore\n        /* \"#utility.yul\":553:555   */\n      0x40\n        /* \"#utility.yul\":546:548   */\n      0x1f\n        /* \"#utility.yul\":542:549   */\n      not\n        /* \"#utility.yul\":537:539   */\n      0x1f\n        /* \"#utility.yul\":529:535   */\n      dup4\n        /* \"#utility.yul\":525:540   */\n      add\n        /* \"#utility.yul\":521:550   */\n      and\n        /* \"#utility.yul\":510:519   */\n      dup6\n        /* \"#utility.yul\":506:551   */\n      add\n        /* \"#utility.yul\":502:556   */\n      add\n        /* \"#utility.yul\":494:556   */\n      swap3\n      pop\n      pop\n      pop\n        /* \"#utility.yul\":14:562   */\n      swap3\n      swap2\n      pop\n      pop\n      jump\t// out\n        /* \"#utility.yul\":567:698   */\n    tag_330:\n      sub(shl(0xa0, 0x01), 0x01)\n        /* \"#utility.yul\":642:673   */\n      dup2\n      and\n        /* \"#utility.yul\":632:674   */\n      dup2\n      eq\n        /* \"#utility.yul\":622:692   */\n      tag_187\n      jumpi\n        /* \"#utility.yul\":688:689   */\n      0x00\n        /* \"#utility.yul\":685:686   */\n      dup1\n        /* \"#utility.yul\":678:690   */\n      revert\n        /* \"#utility.yul\":703:1018   */\n    tag_46:\n        /* \"#utility.yul\":771:777   */\n      0x00\n        /* \"#utility.yul\":779:785   */\n      dup1\n        /* \"#utility.yul\":832:834   */\n      0x40\n        /* \"#utility.yul\":820:829   */\n      dup4\n        /* \"#utility.yul\":811:818   */\n      dup6\n        /* \"#utility.yul\":807:830   */\n      sub\n        /* \"#utility.yul\":803:835   */\n      slt\n        /* \"#utility.yul\":800:852   */\n      iszero\n      tag_340\n      jumpi\n        /* \"#utility.yul\":848:849   */\n      0x00\n        /* \"#utility.yul\":845:846   */\n      dup1\n        /* \"#utility.yul\":838:850   */\n      revert\n        /* \"#utility.yul\":800:852   */\n    tag_340:\n        /* \"#utility.yul\":887:896   */\n      dup3\n        /* \"#utility.yul\":874:897   */\n      calldataload\n        /* \"#utility.yul\":906:937   */\n      tag_341\n        /* \"#utility.yul\":931:936   */\n      dup2\n        /* \"#utility.yul\":906:937   */\n      tag_330\n      jump\t// in\n    tag_341:\n        /* \"#utility.yul\":956:961   */\n      swap5\n        /* \"#utility.yul\":1008:1010   */\n      0x20\n        /* \"#utility.yul\":993:1011   */\n      swap4\n      swap1\n      swap4\n      add\n        /* \"#utility.yul\":980:1012   */\n      calldataload\n      swap4\n      pop\n      pop\n      pop\n        /* \"#utility.yul\":703:1018   */\n      jump\t// out\n        /* \"#utility.yul\":1635:2091   */\n    tag_63:\n        /* \"#utility.yul\":1712:1718   */\n      0x00\n        /* \"#utility.yul\":1720:1726   */\n      dup1\n        /* \"#utility.yul\":1728:1734   */\n      0x00\n        /* \"#utility.yul\":1781:1783   */\n      0x60\n        /* \"#utility.yul\":1769:1778   */\n      dup5\n        /* \"#utility.yul\":1760:1767   */\n      dup7\n        /* \"#utility.yul\":1756:1779   */\n      sub\n        /* \"#utility.yul\":1752:1784   */\n      slt\n        /* \"#utility.yul\":1749:1801   */\n      iszero\n      tag_346\n      jumpi\n        /* \"#utility.yul\":1797:1798   */\n      0x00\n        /* \"#utility.yul\":1794:1795   */\n      dup1\n        /* \"#utility.yul\":1787:1799   */\n      revert\n        /* \"#utility.yul\":1749:1801   */\n    tag_346:\n        /* \"#utility.yul\":1836:1845   */\n      dup4\n        /* \"#utility.yul\":1823:1846   */\n      calldataload\n        /* \"#utility.yul\":1855:1886   */\n      tag_347\n        /* \"#utility.yul\":1880:1885   */\n      dup2\n        /* \"#utility.yul\":1855:1886   */\n      tag_330\n      jump\t// in\n    tag_347:\n        /* \"#utility.yul\":1905:1910   */\n      swap3\n      pop\n        /* \"#utility.yul\":1962:1964   */\n      0x20\n        /* \"#utility.yul\":1947:1965   */\n      dup5\n      add\n        /* \"#utility.yul\":1934:1966   */\n      calldataload\n        /* \"#utility.yul\":1975:2008   */\n      tag_348\n        /* \"#utility.yul\":1934:1966   */\n      dup2\n        /* \"#utility.yul\":1975:2008   */\n      tag_330\n      jump\t// in\n    tag_348:\n        /* \"#utility.yul\":1635:2091   */\n      swap3\n      swap6\n        /* \"#utility.yul\":2027:2034   */\n      swap3\n      swap5\n      pop\n      pop\n      pop\n        /* \"#utility.yul\":2081:2083   */\n      0x40\n        /* \"#utility.yul\":2066:2084   */\n      swap2\n      swap1\n      swap2\n      add\n        /* \"#utility.yul\":2053:2085   */\n      calldataload\n      swap1\n        /* \"#utility.yul\":1635:2091   */\n      jump\t// out\n        /* \"#utility.yul\":2493:2673   */\n    tag_84:\n        /* \"#utility.yul\":2552:2558   */\n      0x00\n        /* \"#utility.yul\":2605:2607   */\n      0x20\n        /* \"#utility.yul\":2593:2602   */\n      dup3\n        /* \"#utility.yul\":2584:2591   */\n      dup5\n        /* \"#utility.yul\":2580:2603   */\n      sub\n        /* \"#utility.yul\":2576:2608   */\n      slt\n        /* \"#utility.yul\":2573:2625   */\n      iszero\n      tag_352\n      jumpi\n        /* \"#utility.yul\":2621:2622   */\n      0x00\n        /* \"#utility.yul\":2618:2619   */\n      dup1\n        /* \"#utility.yul\":2611:2623   */\n      revert\n        /* \"#utility.yul\":2573:2625   */\n    tag_352:\n      pop\n        /* \"#utility.yul\":2644:2667   */\n      calldataload\n      swap2\n        /* \"#utility.yul\":2493:2673   */\n      swap1\n      pop\n      jump\t// out\n        /* \"#utility.yul\":2678:2925   */\n    tag_93:\n        /* \"#utility.yul\":2737:2743   */\n      0x00\n        /* \"#utility.yul\":2790:2792   */\n      0x20\n        /* \"#utility.yul\":2778:2787   */\n      dup3\n        /* \"#utility.yul\":2769:2776   */\n      dup5\n        /* \"#utility.yul\":2765:2788   */\n      sub\n        /* \"#utility.yul\":2761:2793   */\n      slt\n        /* \"#utility.yul\":2758:2810   */\n      iszero\n      tag_354\n      jumpi\n        /* \"#utility.yul\":2806:2807   */\n      0x00\n        /* \"#utility.yul\":2803:2804   */\n      dup1\n        /* \"#utility.yul\":2796:2808   */\n      revert\n        /* \"#utility.yul\":2758:2810   */\n    tag_354:\n        /* \"#utility.yul\":2845:2854   */\n      dup2\n        /* \"#utility.yul\":2832:2855   */\n      calldataload\n        /* \"#utility.yul\":2864:2895   */\n      tag_321\n        /* \"#utility.yul\":2889:2894   */\n      dup2\n        /* \"#utility.yul\":2864:2895   */\n      tag_330\n      jump\t// in\n        /* \"#utility.yul\":2930:3318   */\n    tag_143:\n        /* \"#utility.yul\":2998:3004   */\n      0x00\n        /* \"#utility.yul\":3006:3012   */\n      dup1\n        /* \"#utility.yul\":3059:3061   */\n      0x40\n        /* \"#utility.yul\":3047:3056   */\n      dup4\n        /* \"#utility.yul\":3038:3045   */\n      dup6\n        /* \"#utility.yul\":3034:3057   */\n      sub\n        /* \"#utility.yul\":3030:3062   */\n      slt\n        /* \"#utility.yul\":3027:3079   */\n      iszero\n      tag_357\n      jumpi\n        /* \"#utility.yul\":3075:3076   */\n      0x00\n        /* \"#utility.yul\":3072:3073   */\n      dup1\n        /* \"#utility.yul\":3065:3077   */\n      revert\n        /* \"#utility.yul\":3027:3079   */\n    tag_357:\n        /* \"#utility.yul\":3114:3123   */\n      dup3\n        /* \"#utility.yul\":3101:3124   */\n      calldataload\n        /* \"#utility.yul\":3133:3164   */\n      tag_358\n        /* \"#utility.yul\":3158:3163   */\n      dup2\n        /* \"#utility.yul\":3133:3164   */\n      tag_330\n      jump\t// in\n    tag_358:\n        /* \"#utility.yul\":3183:3188   */\n      swap2\n      pop\n        /* \"#utility.yul\":3240:3242   */\n      0x20\n        /* \"#utility.yul\":3225:3243   */\n      dup4\n      add\n        /* \"#utility.yul\":3212:3244   */\n      calldataload\n        /* \"#utility.yul\":3253:3286   */\n      tag_359\n        /* \"#utility.yul\":3212:3244   */\n      dup2\n        /* \"#utility.yul\":3253:3286   */\n      tag_330\n      jump\t// in\n    tag_359:\n        /* \"#utility.yul\":3305:3312   */\n      dup1\n        /* \"#utility.yul\":3295:3312   */\n      swap2\n      pop\n      pop\n        /* \"#utility.yul\":2930:3318   */\n      swap3\n      pop\n      swap3\n      swap1\n      pop\n      jump\t// out\n        /* \"#utility.yul\":3730:3857   */\n    tag_331:\n        /* \"#utility.yul\":3791:3801   */\n      0x4e487b71\n        /* \"#utility.yul\":3786:3789   */\n      0xe0\n        /* \"#utility.yul\":3782:3802   */\n      shl\n        /* \"#utility.yul\":3779:3780   */\n      0x00\n        /* \"#utility.yul\":3772:3803   */\n      mstore\n        /* \"#utility.yul\":3822:3826   */\n      0x11\n        /* \"#utility.yul\":3819:3820   */\n      0x04\n        /* \"#utility.yul\":3812:3827   */\n      mstore\n        /* \"#utility.yul\":3846:3850   */\n      0x24\n        /* \"#utility.yul\":3843:3844   */\n      0x00\n        /* \"#utility.yul\":3836:3851   */\n      revert\n        /* \"#utility.yul\":3862:3987   */\n    tag_185:\n        /* \"#utility.yul\":3927:3936   */\n      dup1\n      dup3\n      add\n        /* \"#utility.yul\":3948:3958   */\n      dup1\n      dup3\n      gt\n        /* \"#utility.yul\":3945:3981   */\n      iszero\n      tag_164\n      jumpi\n        /* \"#utility.yul\":3961:3979   */\n      tag_164\n      tag_331\n      jump\t// in\n        /* \"#utility.yul\":3992:4348   */\n    tag_195:\n        /* \"#utility.yul\":4194:4196   */\n      0x20\n        /* \"#utility.yul\":4176:4197   */\n      dup1\n      dup3\n      mstore\n        /* \"#utility.yul\":4213:4231   */\n      dup2\n      dup2\n      add\n        /* \"#utility.yul\":4206:4236   */\n      mstore\n        /* \"#utility.yul\":4272:4306   */\n      0x4f776e61626c653a2063616c6c6572206973206e6f7420746865206f776e6572\n        /* \"#utility.yul\":4267:4269   */\n      0x40\n        /* \"#utility.yul\":4252:4270   */\n      dup3\n      add\n        /* \"#utility.yul\":4245:4307   */\n      mstore\n        /* \"#utility.yul\":4339:4341   */\n      0x60\n        /* \"#utility.yul\":4324:4342   */\n      add\n      swap1\n        /* \"#utility.yul\":3992:4348   */\n      jump\t// out\n        /* \"#utility.yul\":5036:5313   */\n    tag_228:\n        /* \"#utility.yul\":5103:5109   */\n      0x00\n        /* \"#utility.yul\":5156:5158   */\n      0x20\n        /* \"#utility.yul\":5144:5153   */\n      dup3\n        /* \"#utility.yul\":5135:5142   */\n      dup5\n        /* \"#utility.yul\":5131:5154   */\n      sub\n        /* \"#utility.yul\":5127:5159   */\n      slt\n        /* \"#utility.yul\":5124:5176   */\n      iszero\n      tag_369\n      jumpi\n        /* \"#utility.yul\":5172:5173   */\n      0x00\n        /* \"#utility.yul\":5169:5170   */\n      dup1\n        /* \"#utility.yul\":5162:5174   */\n      revert\n        /* \"#utility.yul\":5124:5176   */\n    tag_369:\n        /* \"#utility.yul\":5204:5213   */\n      dup2\n        /* \"#utility.yul\":5198:5214   */\n      mload\n        /* \"#utility.yul\":5257:5262   */\n      dup1\n        /* \"#utility.yul\":5250:5263   */\n      iszero\n        /* \"#utility.yul\":5243:5264   */\n      iszero\n        /* \"#utility.yul\":5236:5241   */\n      dup2\n        /* \"#utility.yul\":5233:5265   */\n      eq\n        /* \"#utility.yul\":5223:5283   */\n      tag_321\n      jumpi\n        /* \"#utility.yul\":5279:5280   */\n      0x00\n        /* \"#utility.yul\":5276:5277   */\n      dup1\n        /* \"#utility.yul\":5269:5281   */\n      revert\n        /* \"#utility.yul\":5318:5569   */\n    tag_259:\n        /* \"#utility.yul\":5388:5394   */\n      0x00\n        /* \"#utility.yul\":5441:5443   */\n      0x20\n        /* \"#utility.yul\":5429:5438   */\n      dup3\n        /* \"#utility.yul\":5420:5427   */\n      dup5\n        /* \"#utility.yul\":5416:5439   */\n      sub\n        /* \"#utility.yul\":5412:5444   */\n      slt\n        /* \"#utility.yul\":5409:5461   */\n      iszero\n      tag_372\n      jumpi\n        /* \"#utility.yul\":5457:5458   */\n      0x00\n        /* \"#utility.yul\":5454:5455   */\n      dup1\n        /* \"#utility.yul\":5447:5459   */\n      revert\n        /* \"#utility.yul\":5409:5461   */\n    tag_372:\n        /* \"#utility.yul\":5489:5498   */\n      dup2\n        /* \"#utility.yul\":5483:5499   */\n      mload\n        /* \"#utility.yul\":5508:5539   */\n      tag_321\n        /* \"#utility.yul\":5533:5538   */\n      dup2\n        /* \"#utility.yul\":5508:5539   */\n      tag_330\n      jump\t// in\n        /* \"#utility.yul\":7913:8041   */\n    tag_317:\n        /* \"#utility.yul\":7980:7989   */\n      dup2\n      dup2\n      sub\n        /* \"#utility.yul\":8001:8012   */\n      dup2\n      dup2\n      gt\n        /* \"#utility.yul\":7998:8035   */\n      iszero\n      tag_164\n      jumpi\n        /* \"#utility.yul\":8015:8033   */\n      tag_164\n      tag_331\n      jump\t// in\n        /* \"#utility.yul\":8046:8263   */\n    tag_322:\n        /* \"#utility.yul\":8086:8087   */\n      0x00\n        /* \"#utility.yul\":8112:8113   */\n      dup3\n        /* \"#utility.yul\":8102:8234   */\n      tag_384\n      jumpi\n        /* \"#utility.yul\":8156:8166   */\n      0x4e487b71\n        /* \"#utility.yul\":8151:8154   */\n      0xe0\n        /* \"#utility.yul\":8147:8167   */\n      shl\n        /* \"#utility.yul\":8144:8145   */\n      0x00\n        /* \"#utility.yul\":8137:8168   */\n      mstore\n        /* \"#utility.yul\":8191:8195   */\n      0x12\n        /* \"#utility.yul\":8188:8189   */\n      0x04\n        /* \"#utility.yul\":8181:8196   */\n      mstore\n        /* \"#utility.yul\":8219:8223   */\n      0x24\n        /* \"#utility.yul\":8216:8217   */\n      0x00\n        /* \"#utility.yul\":8209:8224   */\n      revert\n        /* \"#utility.yul\":8102:8234   */\n    tag_384:\n      pop\n        /* \"#utility.yul\":8248:8257   */\n      div\n      swap1\n        /* \"#utility.yul\":8046:8263   */\n      jump\t// out\n        /* \"#utility.yul\":8268:8436   */\n    tag_325:\n        /* \"#utility.yul\":8341:8350   */\n      dup1\n      dup3\n      mul\n        /* \"#utility.yul\":8372:8381   */\n      dup2\n      iszero\n        /* \"#utility.yul\":8389:8404   */\n      dup3\n      dup3\n      div\n        /* \"#utility.yul\":8383:8405   */\n      dup5\n      eq\n        /* \"#utility.yul\":8369:8406   */\n      or\n        /* \"#utility.yul\":8359:8430   */\n      tag_164\n      jumpi\n        /* \"#utility.yul\":8410:8428   */\n      tag_164\n      tag_331\n      jump\t// in\n\n    auxdata: 0xa2646970667358221220ce63d060d4333f3e4d3decc067a278be19be2382970c6b8cdbc1dcc5eab02be964736f6c63430008110033\n}\n",
				"bytecode": {
					"linkReferences": {},
					"object": "60e0604052600880546001600160a01b0319908116737ef95a0fee0dd31b22626fa2e10ee6a223f8a684179091556009805490911673cbb44600f5828a15cf130abb73ce5e85ac49d08f1790553480156200005957600080fd5b50620000653362000322565b6200007b33692c781f708c509f40000062000372565b6000739ac64cc6e4415144c455bd8e4837fea55603e5c39050806001600160a01b031663c45a01556040518163ffffffff1660e01b8152600401602060405180830381865afa158015620000d3573d6000803e3d6000fd5b505050506040513d601f19601f82011682018060405250810190620000f9919062000401565b6001600160a01b031663c9c6539630836001600160a01b031663ad5c46486040518163ffffffff1660e01b8152600401602060405180830381865afa15801562000147573d6000803e3d6000fd5b505050506040513d601f19601f820116820180604052508101906200016d919062000401565b6040516001600160e01b031960e085901b1681526001600160a01b039283166004820152911660248201526044016020604051808303816000875af1158015620001bb573d6000803e3d6000fd5b505050506040513d601f19601f82011682018060405250810190620001e1919062000401565b6001600160a01b031660a0816001600160a01b031681525050806001600160a01b031663c45a01556040518163ffffffff1660e01b8152600401602060405180830381865afa15801562000239573d6000803e3d6000fd5b505050506040513d601f19601f820116820180604052508101906200025f919062000401565b6008546040516364e329cb60e11b81523060048201526001600160a01b03918216602482015291169063c9c65396906044016020604051808303816000875af1158015620002b1573d6000803e3d6000fd5b505050506040513d601f19601f82011682018060405250810190620002d7919062000401565b6001600160a01b0390811660c081905291811660805260a051166000908152600760205260408082208054600160ff199182168117909255938352912080549092161790556200045b565b600080546001600160a01b038381166001600160a01b0319831681178455604051919092169283917f8be0079c531659141344cd1fd0a4f28419497f9722a3daafe3b4186f6b6457e09190a35050565b6001600160a01b038216600090815260016020526040812080548392906200039c90849062000433565b925050819055508060036000828254620003b7919062000433565b90915550506040518181526001600160a01b038316906000907fddf252ad1be2c89b69c2b068fc378daa952ba7f163c4a11628f55a4df523b3ef9060200160405180910390a35050565b6000602082840312156200041457600080fd5b81516001600160a01b03811681146200042c57600080fd5b9392505050565b808201808211156200045557634e487b7160e01b600052601160045260246000fd5b92915050565b60805160a05160c0516113406200048b60003960006102bd0152600061034f0152600061023201526113406000f3fe6080604052600436106101a05760003560e01c806388af60c6116100ec578063a9059cbb1161008a578063dec1a6f611610064578063dec1a6f614610542578063e515cd3814610572578063f2fde38b14610592578063fae92612146105b257600080fd5b8063a9059cbb146104c7578063db2e21bc146104e7578063dd62ed3e146104fc57600080fd5b806395d89b41116100c657806395d89b411461043a578063a457c2d714610467578063a4c3b09114610487578063a8808fcc146104a757600080fd5b806388af60c6146103dc5780638da5cb5b146103fc578063956236411461041a57600080fd5b8063313ce5671161015957806349bd5a5e1161013357806349bd5a5e1461033d578063536db2661461037157806370a0823114610391578063715018a6146103c757600080fd5b8063313ce567146102df57806339509351146102fb57806342966c681461031b57600080fd5b806306fdde03146101ac578063095ea7b3146101f05780631694505e1461022057806318160ddd1461026c57806323b872dd1461028b5780632aafa283146102ab57600080fd5b366101a757005b600080fd5b3480156101b857600080fd5b506040805180820190915260098152684c75636b792042656560b81b60208201525b6040516101e791906110e2565b60405180910390f35b3480156101fc57600080fd5b5061021061020b366004611145565b6105d2565b60405190151581526020016101e7565b34801561022c57600080fd5b506102547f000000000000000000000000000000000000000000000000000000000000000081565b6040516001600160a01b0390911681526020016101e7565b34801561027857600080fd5b506003545b6040519081526020016101e7565b34801561029757600080fd5b506102106102a6366004611171565b6105e9565b3480156102b757600080fd5b506102547f000000000000000000000000000000000000000000000000000000000000000081565b3480156102eb57600080fd5b50604051601281526020016101e7565b34801561030757600080fd5b50610210610316366004611145565b610696565b34801561032757600080fd5b5061033b6103363660046111b2565b6106d2565b005b34801561034957600080fd5b506102547f000000000000000000000000000000000000000000000000000000000000000081565b34801561037d57600080fd5b5061033b61038c3660046111cb565b6106df565b34801561039d57600080fd5b5061027d6103ac3660046111cb565b6001600160a01b031660009081526001602052604090205490565b3480156103d357600080fd5b5061033b610771565b3480156103e857600080fd5b50600854610254906001600160a01b031681565b34801561040857600080fd5b506000546001600160a01b0316610254565b34801561042657600080fd5b50600954610254906001600160a01b031681565b34801561044657600080fd5b506040805180820190915260048152634c42454560e01b60208201526101da565b34801561047357600080fd5b50610210610482366004611145565b6107a7565b34801561049357600080fd5b5061033b6104a2366004611145565b61083e565b3480156104b357600080fd5b5061033b6104c23660046111cb565b6108de565b3480156104d357600080fd5b506102106104e2366004611145565b610974565b3480156104f357600080fd5b5061033b610981565b34801561050857600080fd5b5061027d6105173660046111e8565b6001600160a01b03918216600090815260026020908152604080832093909416825291909152205490565b34801561054e57600080fd5b5061021061055d3660046111cb565b60076020526000908152604090205460ff1681565b34801561057e57600080fd5b5061033b61058d3660046111cb565b6109e5565b34801561059e57600080fd5b5061033b6105ad3660046111cb565b610ae4565b3480156105be57600080fd5b5061033b6105cd3660046111cb565b610b7c565b60006105df338484610bc8565b5060015b92915050565b60006105f6848484610c2a565b6001600160a01b03841660009081526002602090815260408083203384529091529020548281101561067e5760405162461bcd60e51b815260206004820152602660248201527f4245453a207472616e7366657220616d6f756e74206578636565647320616c6c6044820152656f77616e636560d01b60648201526084015b60405180910390fd5b61068b8533858403610bc8565b506001949350505050565b3360008181526002602090815260408083206001600160a01b038716845290915281205490916105df9185906106cd908690611237565b610bc8565b6106dc3382610f2a565b50565b6000546001600160a01b031633146107095760405162461bcd60e51b81526004016106759061124a565b6001600160a01b03811660009081526007602052604090205460ff161561074b576001600160a01b03166000908152600760205260409020805460ff19169055565b6001600160a01b0381166000908152600760205260409020805460ff1916600117905550565b6000546001600160a01b0316331461079b5760405162461bcd60e51b81526004016106759061124a565b6107a5600061105b565b565b3360009081526002602090815260408083206001600160a01b0386168452909152812054828110156108275760405162461bcd60e51b815260206004820152602360248201527f4245453a2064656372656173656420616c6c6f77616e63652062656c6f77207a60448201526265726f60e81b6064820152608401610675565b6108343385858403610bc8565b5060019392505050565b6000546001600160a01b031633146108685760405162461bcd60e51b81526004016106759061124a565b60405163a9059cbb60e01b8152336004820152602481018290526001600160a01b0383169063a9059cbb906044016020604051808303816000875af11580156108b5573d6000803e3d6000fd5b505050506040513d601f19601f820116820180604052508101906108d9919061127f565b505050565b6000546001600160a01b031633146109085760405162461bcd60e51b81526004016106759061124a565b6001600160a01b03811660009081526006602052604090205460ff16151560010361094e576001600160a01b03166000908152600660205260409020805460ff19169055565b6001600160a01b0381166000908152600660205260409020805460ff1916600117905550565b60006105df338484610c2a565b6000546001600160a01b031633146109ab5760405162461bcd60e51b81526004016106759061124a565b600080546040516001600160a01b03909116914780156108fc02929091818181858888f193505050501580156106dc573d6000803e3d6000fd5b6000546001600160a01b03163314610a0f5760405162461bcd60e51b81526004016106759061124a565b6000816001600160a01b03166330adf81f6040518163ffffffff1660e01b8152600401602060405180830381865afa158015610a4f573d6000803e3d6000fd5b505050506040513d601f19601f82011682018060405250810190610a7391906112a1565b6001600160a01b03811660009081526006602052604090205490915060ff161515600103610abd576001600160a01b03166000908152600660205260409020805460ff1916905550565b6001600160a01b0381166000908152600660205260409020805460ff191660011790555050565b6000546001600160a01b03163314610b0e5760405162461bcd60e51b81526004016106759061124a565b6001600160a01b038116610b735760405162461bcd60e51b815260206004820152602660248201527f4f776e61626c653a206e6577206f776e657220697320746865207a65726f206160448201526564647265737360d01b6064820152608401610675565b6106dc8161105b565b6000546001600160a01b03163314610ba65760405162461bcd60e51b81526004016106759061124a565b600980546001600160a01b0319166001600160a01b0392909216919091179055565b6001600160a01b0383811660008181526002602090815260408083209487168084529482529182902085905590518481527f8c5be1e5ebec7d5bd14f71427d1e84f3dd0314c0f7b2291e5b200ac8c7c3b92591015b60405180910390a3505050565b6001600160a01b038316610c8c5760405162461bcd60e51b815260206004820152602360248201527f4245453a207472616e736665722066726f6d20746865207a65726f206164647260448201526265737360e81b6064820152608401610675565b6001600160a01b038216610cec5760405162461bcd60e51b815260206004820152602160248201527f4245453a207472616e7366657220746f20746865207a65726f206164647265736044820152607360f81b6064820152608401610675565b6001600160a01b03831660009081526001602052604090205481811015610d615760405162461bcd60e51b8152602060048201526024808201527f4245453a207472616e7366657220616d6f756e7420657863656564732062616c604482015263616e636560e01b6064820152608401610675565b6001600160a01b038316600090815260076020526040902054829060ff168015610da457506001600160a01b03851660009081526006602052604090205460ff16155b8015610dc957506001600160a01b03841660009081526006602052604090205460ff16155b15610e8e57610e09610de8600a610de2866103e86110ab565b906110be565b6009546001600160a01b0316600090815260016020526040902054906110ca565b600980546001600160a01b039081166000908152600160205260409020929092555481169086167fddf252ad1be2c89b69c2b068fc378daa952ba7f163c4a11628f55a4df523b3ef610e686103e8610e6288600a6110be565b906110ab565b60405190815260200160405180910390a3610e8b6103e8610e62856103de6110be565b90505b610e9882846110d6565b6001600160a01b038087166000908152600160205260408082209390935590861681522054610ec790826110ca565b6001600160a01b0380861660008181526001602052604090819020939093559151908716907fddf252ad1be2c89b69c2b068fc378daa952ba7f163c4a11628f55a4df523b3ef90610f1b9085815260200190565b60405180910390a35050505050565b6001600160a01b038216610f805760405162461bcd60e51b815260206004820152601f60248201527f4245453a206275726e2066726f6d20746865207a65726f2061646472657373006044820152606401610675565b6001600160a01b03821660009081526001602052604090205481811015610fe95760405162461bcd60e51b815260206004820181905260248201527f4245453a206275726e20616d6f756e7420657863656564732062616c616e63656044820152606401610675565b6001600160a01b03831660009081526001602052604081208383039055600380548492906110189084906112be565b90915550506040518281526000906001600160a01b038516907fddf252ad1be2c89b69c2b068fc378daa952ba7f163c4a11628f55a4df523b3ef90602001610c1d565b600080546001600160a01b038381166001600160a01b0319831681178455604051919092169283917f8be0079c531659141344cd1fd0a4f28419497f9722a3daafe3b4186f6b6457e09190a35050565b60006110b782846112d1565b9392505050565b60006110b782846112f3565b60006110b78284611237565b60006110b782846112be565b600060208083528351808285015260005b8181101561110f578581018301518582016040015282016110f3565b506000604082860101526040601f19601f8301168501019250505092915050565b6001600160a01b03811681146106dc57600080fd5b6000806040838503121561115857600080fd5b823561116381611130565b946020939093013593505050565b60008060006060848603121561118657600080fd5b833561119181611130565b925060208401356111a181611130565b929592945050506040919091013590565b6000602082840312156111c457600080fd5b5035919050565b6000602082840312156111dd57600080fd5b81356110b781611130565b600080604083850312156111fb57600080fd5b823561120681611130565b9150602083013561121681611130565b809150509250929050565b634e487b7160e01b600052601160045260246000fd5b808201808211156105e3576105e3611221565b6020808252818101527f4f776e61626c653a2063616c6c6572206973206e6f7420746865206f776e6572604082015260600190565b60006020828403121561129157600080fd5b815180151581146110b757600080fd5b6000602082840312156112b357600080fd5b81516110b781611130565b818103818111156105e3576105e3611221565b6000826112ee57634e487b7160e01b600052601260045260246000fd5b500490565b80820281158282048414176105e3576105e361122156fea2646970667358221220ce63d060d4333f3e4d3decc067a278be19be2382970c6b8cdbc1dcc5eab02be964736f6c63430008110033",
					"opcodes": "PUSH1 0xE0 PUSH1 0x40 MSTORE PUSH1 0x8 DUP1 SLOAD PUSH1 0x1 PUSH1 0x1 PUSH1 0xA0 SHL SUB NOT SWAP1 DUP2 AND PUSH20 0x7EF95A0FEE0DD31B22626FA2E10EE6A223F8A684 OR SWAP1 SWAP2 SSTORE PUSH1 0x9 DUP1 SLOAD SWAP1 SWAP2 AND PUSH20 0xCBB44600F5828A15CF130ABB73CE5E85AC49D08F OR SWAP1 SSTORE CALLVALUE DUP1 ISZERO PUSH3 0x59 JUMPI PUSH1 0x0 DUP1 REVERT JUMPDEST POP PUSH3 0x65 CALLER PUSH3 0x322 JUMP JUMPDEST PUSH3 0x7B CALLER PUSH10 0x2C781F708C509F400000 PUSH3 0x372 JUMP JUMPDEST PUSH1 0x0 PUSH20 0x9AC64CC6E4415144C455BD8E4837FEA55603E5C3 SWAP1 POP DUP1 PUSH1 0x1 PUSH1 0x1 PUSH1 0xA0 SHL SUB AND PUSH4 0xC45A0155 PUSH1 0x40 MLOAD DUP2 PUSH4 0xFFFFFFFF AND PUSH1 0xE0 SHL DUP2 MSTORE PUSH1 0x4 ADD PUSH1 0x20 PUSH1 0x40 MLOAD DUP1 DUP4 SUB DUP2 DUP7 GAS STATICCALL ISZERO DUP1 ISZERO PUSH3 0xD3 JUMPI RETURNDATASIZE PUSH1 0x0 DUP1 RETURNDATACOPY RETURNDATASIZE PUSH1 0x0 REVERT JUMPDEST POP POP POP POP PUSH1 0x40 MLOAD RETURNDATASIZE PUSH1 0x1F NOT PUSH1 0x1F DUP3 ADD AND DUP3 ADD DUP1 PUSH1 0x40 MSTORE POP DUP2 ADD SWAP1 PUSH3 0xF9 SWAP2 SWAP1 PUSH3 0x401 JUMP JUMPDEST PUSH1 0x1 PUSH1 0x1 PUSH1 0xA0 SHL SUB AND PUSH4 0xC9C65396 ADDRESS DUP4 PUSH1 0x1 PUSH1 0x1 PUSH1 0xA0 SHL SUB AND PUSH4 0xAD5C4648 PUSH1 0x40 MLOAD DUP2 PUSH4 0xFFFFFFFF AND PUSH1 0xE0 SHL DUP2 MSTORE PUSH1 0x4 ADD PUSH1 0x20 PUSH1 0x40 MLOAD DUP1 DUP4 SUB DUP2 DUP7 GAS STATICCALL ISZERO DUP1 ISZERO PUSH3 0x147 JUMPI RETURNDATASIZE PUSH1 0x0 DUP1 RETURNDATACOPY RETURNDATASIZE PUSH1 0x0 REVERT JUMPDEST POP POP POP POP PUSH1 0x40 MLOAD RETURNDATASIZE PUSH1 0x1F NOT PUSH1 0x1F DUP3 ADD AND DUP3 ADD DUP1 PUSH1 0x40 MSTORE POP DUP2 ADD SWAP1 PUSH3 0x16D SWAP2 SWAP1 PUSH3 0x401 JUMP JUMPDEST PUSH1 0x40 MLOAD PUSH1 0x1 PUSH1 0x1 PUSH1 0xE0 SHL SUB NOT PUSH1 0xE0 DUP6 SWAP1 SHL AND DUP2 MSTORE PUSH1 0x1 PUSH1 0x1 PUSH1 0xA0 SHL SUB SWAP3 DUP4 AND PUSH1 0x4 DUP3 ADD MSTORE SWAP2 AND PUSH1 0x24 DUP3 ADD MSTORE PUSH1 0x44 ADD PUSH1 0x20 PUSH1 0x40 MLOAD DUP1 DUP4 SUB DUP2 PUSH1 0x0 DUP8 GAS CALL ISZERO DUP1 ISZERO PUSH3 0x1BB JUMPI RETURNDATASIZE PUSH1 0x0 DUP1 RETURNDATACOPY RETURNDATASIZE PUSH1 0x0 REVERT JUMPDEST POP POP POP POP PUSH1 0x40 MLOAD RETURNDATASIZE PUSH1 0x1F NOT PUSH1 0x1F DUP3 ADD AND DUP3 ADD DUP1 PUSH1 0x40 MSTORE POP DUP2 ADD SWAP1 PUSH3 0x1E1 SWAP2 SWAP1 PUSH3 0x401 JUMP JUMPDEST PUSH1 0x1 PUSH1 0x1 PUSH1 0xA0 SHL SUB AND PUSH1 0xA0 DUP2 PUSH1 0x1 PUSH1 0x1 PUSH1 0xA0 SHL SUB AND DUP2 MSTORE POP POP DUP1 PUSH1 0x1 PUSH1 0x1 PUSH1 0xA0 SHL SUB AND PUSH4 0xC45A0155 PUSH1 0x40 MLOAD DUP2 PUSH4 0xFFFFFFFF AND PUSH1 0xE0 SHL DUP2 MSTORE PUSH1 0x4 ADD PUSH1 0x20 PUSH1 0x40 MLOAD DUP1 DUP4 SUB DUP2 DUP7 GAS STATICCALL ISZERO DUP1 ISZERO PUSH3 0x239 JUMPI RETURNDATASIZE PUSH1 0x0 DUP1 RETURNDATACOPY RETURNDATASIZE PUSH1 0x0 REVERT JUMPDEST POP POP POP POP PUSH1 0x40 MLOAD RETURNDATASIZE PUSH1 0x1F NOT PUSH1 0x1F DUP3 ADD AND DUP3 ADD DUP1 PUSH1 0x40 MSTORE POP DUP2 ADD SWAP1 PUSH3 0x25F SWAP2 SWAP1 PUSH3 0x401 JUMP JUMPDEST PUSH1 0x8 SLOAD PUSH1 0x40 MLOAD PUSH4 0x64E329CB PUSH1 0xE1 SHL DUP2 MSTORE ADDRESS PUSH1 0x4 DUP3 ADD MSTORE PUSH1 0x1 PUSH1 0x1 PUSH1 0xA0 SHL SUB SWAP2 DUP3 AND PUSH1 0x24 DUP3 ADD MSTORE SWAP2 AND SWAP1 PUSH4 0xC9C65396 SWAP1 PUSH1 0x44 ADD PUSH1 0x20 PUSH1 0x40 MLOAD DUP1 DUP4 SUB DUP2 PUSH1 0x0 DUP8 GAS CALL ISZERO DUP1 ISZERO PUSH3 0x2B1 JUMPI RETURNDATASIZE PUSH1 0x0 DUP1 RETURNDATACOPY RETURNDATASIZE PUSH1 0x0 REVERT JUMPDEST POP POP POP POP PUSH1 0x40 MLOAD RETURNDATASIZE PUSH1 0x1F NOT PUSH1 0x1F DUP3 ADD AND DUP3 ADD DUP1 PUSH1 0x40 MSTORE POP DUP2 ADD SWAP1 PUSH3 0x2D7 SWAP2 SWAP1 PUSH3 0x401 JUMP JUMPDEST PUSH1 0x1 PUSH1 0x1 PUSH1 0xA0 SHL SUB SWAP1 DUP2 AND PUSH1 0xC0 DUP2 SWAP1 MSTORE SWAP2 DUP2 AND PUSH1 0x80 MSTORE PUSH1 0xA0 MLOAD AND PUSH1 0x0 SWAP1 DUP2 MSTORE PUSH1 0x7 PUSH1 0x20 MSTORE PUSH1 0x40 DUP1 DUP3 KECCAK256 DUP1 SLOAD PUSH1 0x1 PUSH1 0xFF NOT SWAP2 DUP3 AND DUP2 OR SWAP1 SWAP3 SSTORE SWAP4 DUP4 MSTORE SWAP2 KECCAK256 DUP1 SLOAD SWAP1 SWAP3 AND OR SWAP1 SSTORE PUSH3 0x45B JUMP JUMPDEST PUSH1 0x0 DUP1 SLOAD PUSH1 0x1 PUSH1 0x1 PUSH1 0xA0 SHL SUB DUP4 DUP2 AND PUSH1 0x1 PUSH1 0x1 PUSH1 0xA0 SHL SUB NOT DUP4 AND DUP2 OR DUP5 SSTORE PUSH1 0x40 MLOAD SWAP2 SWAP1 SWAP3 AND SWAP3 DUP4 SWAP2 PUSH32 0x8BE0079C531659141344CD1FD0A4F28419497F9722A3DAAFE3B4186F6B6457E0 SWAP2 SWAP1 LOG3 POP POP JUMP JUMPDEST PUSH1 0x1 PUSH1 0x1 PUSH1 0xA0 SHL SUB DUP3 AND PUSH1 0x0 SWAP1 DUP2 MSTORE PUSH1 0x1 PUSH1 0x20 MSTORE PUSH1 0x40 DUP2 KECCAK256 DUP1 SLOAD DUP4 SWAP3 SWAP1 PUSH3 0x39C SWAP1 DUP5 SWAP1 PUSH3 0x433 JUMP JUMPDEST SWAP3 POP POP DUP2 SWAP1 SSTORE POP DUP1 PUSH1 0x3 PUSH1 0x0 DUP3 DUP3 SLOAD PUSH3 0x3B7 SWAP2 SWAP1 PUSH3 0x433 JUMP JUMPDEST SWAP1 SWAP2 SSTORE POP POP PUSH1 0x40 MLOAD DUP2 DUP2 MSTORE PUSH1 0x1 PUSH1 0x1 PUSH1 0xA0 SHL SUB DUP4 AND SWAP1 PUSH1 0x0 SWAP1 PUSH32 0xDDF252AD1BE2C89B69C2B068FC378DAA952BA7F163C4A11628F55A4DF523B3EF SWAP1 PUSH1 0x20 ADD PUSH1 0x40 MLOAD DUP1 SWAP2 SUB SWAP1 LOG3 POP POP JUMP JUMPDEST PUSH1 0x0 PUSH1 0x20 DUP3 DUP5 SUB SLT ISZERO PUSH3 0x414 JUMPI PUSH1 0x0 DUP1 REVERT JUMPDEST DUP2 MLOAD PUSH1 0x1 PUSH1 0x1 PUSH1 0xA0 SHL SUB DUP2 AND DUP2 EQ PUSH3 0x42C JUMPI PUSH1 0x0 DUP1 REVERT JUMPDEST SWAP4 SWAP3 POP POP POP JUMP JUMPDEST DUP1 DUP3 ADD DUP1 DUP3 GT ISZERO PUSH3 0x455 JUMPI PUSH4 0x4E487B71 PUSH1 0xE0 SHL PUSH1 0x0 MSTORE PUSH1 0x11 PUSH1 0x4 MSTORE PUSH1 0x24 PUSH1 0x0 REVERT JUMPDEST SWAP3 SWAP2 POP POP JUMP JUMPDEST PUSH1 0x80 MLOAD PUSH1 0xA0 MLOAD PUSH1 0xC0 MLOAD PUSH2 0x1340 PUSH3 0x48B PUSH1 0x0 CODECOPY PUSH1 0x0 PUSH2 0x2BD ADD MSTORE PUSH1 0x0 PUSH2 0x34F ADD MSTORE PUSH1 0x0 PUSH2 0x232 ADD MSTORE PUSH2 0x1340 PUSH1 0x0 RETURN INVALID PUSH1 0x80 PUSH1 0x40 MSTORE PUSH1 0x4 CALLDATASIZE LT PUSH2 0x1A0 JUMPI PUSH1 0x0 CALLDATALOAD PUSH1 0xE0 SHR DUP1 PUSH4 0x88AF60C6 GT PUSH2 0xEC JUMPI DUP1 PUSH4 0xA9059CBB GT PUSH2 0x8A JUMPI DUP1 PUSH4 0xDEC1A6F6 GT PUSH2 0x64 JUMPI DUP1 PUSH4 0xDEC1A6F6 EQ PUSH2 0x542 JUMPI DUP1 PUSH4 0xE515CD38 EQ PUSH2 0x572 JUMPI DUP1 PUSH4 0xF2FDE38B EQ PUSH2 0x592 JUMPI DUP1 PUSH4 0xFAE92612 EQ PUSH2 0x5B2 JUMPI PUSH1 0x0 DUP1 REVERT JUMPDEST DUP1 PUSH4 0xA9059CBB EQ PUSH2 0x4C7 JUMPI DUP1 PUSH4 0xDB2E21BC EQ PUSH2 0x4E7 JUMPI DUP1 PUSH4 0xDD62ED3E EQ PUSH2 0x4FC JUMPI PUSH1 0x0 DUP1 REVERT JUMPDEST DUP1 PUSH4 0x95D89B41 GT PUSH2 0xC6 JUMPI DUP1 PUSH4 0x95D89B41 EQ PUSH2 0x43A JUMPI DUP1 PUSH4 0xA457C2D7 EQ PUSH2 0x467 JUMPI DUP1 PUSH4 0xA4C3B091 EQ PUSH2 0x487 JUMPI DUP1 PUSH4 0xA8808FCC EQ PUSH2 0x4A7 JUMPI PUSH1 0x0 DUP1 REVERT JUMPDEST DUP1 PUSH4 0x88AF60C6 EQ PUSH2 0x3DC JUMPI DUP1 PUSH4 0x8DA5CB5B EQ PUSH2 0x3FC JUMPI DUP1 PUSH4 0x95623641 EQ PUSH2 0x41A JUMPI PUSH1 0x0 DUP1 REVERT JUMPDEST DUP1 PUSH4 0x313CE567 GT PUSH2 0x159 JUMPI DUP1 PUSH4 0x49BD5A5E GT PUSH2 0x133 JUMPI DUP1 PUSH4 0x49BD5A5E EQ PUSH2 0x33D JUMPI DUP1 PUSH4 0x536DB266 EQ PUSH2 0x371 JUMPI DUP1 PUSH4 0x70A08231 EQ PUSH2 0x391 JUMPI DUP1 PUSH4 0x715018A6 EQ PUSH2 0x3C7 JUMPI PUSH1 0x0 DUP1 REVERT JUMPDEST DUP1 PUSH4 0x313CE567 EQ PUSH2 0x2DF JUMPI DUP1 PUSH4 0x39509351 EQ PUSH2 0x2FB JUMPI DUP1 PUSH4 0x42966C68 EQ PUSH2 0x31B JUMPI PUSH1 0x0 DUP1 REVERT JUMPDEST DUP1 PUSH4 0x6FDDE03 EQ PUSH2 0x1AC JUMPI DUP1 PUSH4 0x95EA7B3 EQ PUSH2 0x1F0 JUMPI DUP1 PUSH4 0x1694505E EQ PUSH2 0x220 JUMPI DUP1 PUSH4 0x18160DDD EQ PUSH2 0x26C JUMPI DUP1 PUSH4 0x23B872DD EQ PUSH2 0x28B JUMPI DUP1 PUSH4 0x2AAFA283 EQ PUSH2 0x2AB JUMPI PUSH1 0x0 DUP1 REVERT JUMPDEST CALLDATASIZE PUSH2 0x1A7 JUMPI STOP JUMPDEST PUSH1 0x0 DUP1 REVERT JUMPDEST CALLVALUE DUP1 ISZERO PUSH2 0x1B8 JUMPI PUSH1 0x0 DUP1 REVERT JUMPDEST POP PUSH1 0x40 DUP1 MLOAD DUP1 DUP3 ADD SWAP1 SWAP2 MSTORE PUSH1 0x9 DUP2 MSTORE PUSH9 0x4C75636B7920426565 PUSH1 0xB8 SHL PUSH1 0x20 DUP3 ADD MSTORE JUMPDEST PUSH1 0x40 MLOAD PUSH2 0x1E7 SWAP2 SWAP1 PUSH2 0x10E2 JUMP JUMPDEST PUSH1 0x40 MLOAD DUP1 SWAP2 SUB SWAP1 RETURN JUMPDEST CALLVALUE DUP1 ISZERO PUSH2 0x1FC JUMPI PUSH1 0x0 DUP1 REVERT JUMPDEST POP PUSH2 0x210 PUSH2 0x20B CALLDATASIZE PUSH1 0x4 PUSH2 0x1145 JUMP JUMPDEST PUSH2 0x5D2 JUMP JUMPDEST PUSH1 0x40 MLOAD SWAP1 ISZERO ISZERO DUP2 MSTORE PUSH1 0x20 ADD PUSH2 0x1E7 JUMP JUMPDEST CALLVALUE DUP1 ISZERO PUSH2 0x22C JUMPI PUSH1 0x0 DUP1 REVERT JUMPDEST POP PUSH2 0x254 PUSH32 0x0 DUP2 JUMP JUMPDEST PUSH1 0x40 MLOAD PUSH1 0x1 PUSH1 0x1 PUSH1 0xA0 SHL SUB SWAP1 SWAP2 AND DUP2 MSTORE PUSH1 0x20 ADD PUSH2 0x1E7 JUMP JUMPDEST CALLVALUE DUP1 ISZERO PUSH2 0x278 JUMPI PUSH1 0x0 DUP1 REVERT JUMPDEST POP PUSH1 0x3 SLOAD JUMPDEST PUSH1 0x40 MLOAD SWAP1 DUP2 MSTORE PUSH1 0x20 ADD PUSH2 0x1E7 JUMP JUMPDEST CALLVALUE DUP1 ISZERO PUSH2 0x297 JUMPI PUSH1 0x0 DUP1 REVERT JUMPDEST POP PUSH2 0x210 PUSH2 0x2A6 CALLDATASIZE PUSH1 0x4 PUSH2 0x1171 JUMP JUMPDEST PUSH2 0x5E9 JUMP JUMPDEST CALLVALUE DUP1 ISZERO PUSH2 0x2B7 JUMPI PUSH1 0x0 DUP1 REVERT JUMPDEST POP PUSH2 0x254 PUSH32 0x0 DUP2 JUMP JUMPDEST CALLVALUE DUP1 ISZERO PUSH2 0x2EB JUMPI PUSH1 0x0 DUP1 REVERT JUMPDEST POP PUSH1 0x40 MLOAD PUSH1 0x12 DUP2 MSTORE PUSH1 0x20 ADD PUSH2 0x1E7 JUMP JUMPDEST CALLVALUE DUP1 ISZERO PUSH2 0x307 JUMPI PUSH1 0x0 DUP1 REVERT JUMPDEST POP PUSH2 0x210 PUSH2 0x316 CALLDATASIZE PUSH1 0x4 PUSH2 0x1145 JUMP JUMPDEST PUSH2 0x696 JUMP JUMPDEST CALLVALUE DUP1 ISZERO PUSH2 0x327 JUMPI PUSH1 0x0 DUP1 REVERT JUMPDEST POP PUSH2 0x33B PUSH2 0x336 CALLDATASIZE PUSH1 0x4 PUSH2 0x11B2 JUMP JUMPDEST PUSH2 0x6D2 JUMP JUMPDEST STOP JUMPDEST CALLVALUE DUP1 ISZERO PUSH2 0x349 JUMPI PUSH1 0x0 DUP1 REVERT JUMPDEST POP PUSH2 0x254 PUSH32 0x0 DUP2 JUMP JUMPDEST CALLVALUE DUP1 ISZERO PUSH2 0x37D JUMPI PUSH1 0x0 DUP1 REVERT JUMPDEST POP PUSH2 0x33B PUSH2 0x38C CALLDATASIZE PUSH1 0x4 PUSH2 0x11CB JUMP JUMPDEST PUSH2 0x6DF JUMP JUMPDEST CALLVALUE DUP1 ISZERO PUSH2 0x39D JUMPI PUSH1 0x0 DUP1 REVERT JUMPDEST POP PUSH2 0x27D PUSH2 0x3AC CALLDATASIZE PUSH1 0x4 PUSH2 0x11CB JUMP JUMPDEST PUSH1 0x1 PUSH1 0x1 PUSH1 0xA0 SHL SUB AND PUSH1 0x0 SWAP1 DUP2 MSTORE PUSH1 0x1 PUSH1 0x20 MSTORE PUSH1 0x40 SWAP1 KECCAK256 SLOAD SWAP1 JUMP JUMPDEST CALLVALUE DUP1 ISZERO PUSH2 0x3D3 JUMPI PUSH1 0x0 DUP1 REVERT JUMPDEST POP PUSH2 0x33B PUSH2 0x771 JUMP JUMPDEST CALLVALUE DUP1 ISZERO PUSH2 0x3E8 JUMPI PUSH1 0x0 DUP1 REVERT JUMPDEST POP PUSH1 0x8 SLOAD PUSH2 0x254 SWAP1 PUSH1 0x1 PUSH1 0x1 PUSH1 0xA0 SHL SUB AND DUP2 JUMP JUMPDEST CALLVALUE DUP1 ISZERO PUSH2 0x408 JUMPI PUSH1 0x0 DUP1 REVERT JUMPDEST POP PUSH1 0x0 SLOAD PUSH1 0x1 PUSH1 0x1 PUSH1 0xA0 SHL SUB AND PUSH2 0x254 JUMP JUMPDEST CALLVALUE DUP1 ISZERO PUSH2 0x426 JUMPI PUSH1 0x0 DUP1 REVERT JUMPDEST POP PUSH1 0x9 SLOAD PUSH2 0x254 SWAP1 PUSH1 0x1 PUSH1 0x1 PUSH1 0xA0 SHL SUB AND DUP2 JUMP JUMPDEST CALLVALUE DUP1 ISZERO PUSH2 0x446 JUMPI PUSH1 0x0 DUP1 REVERT JUMPDEST POP PUSH1 0x40 DUP1 MLOAD DUP1 DUP3 ADD SWAP1 SWAP2 MSTORE PUSH1 0x4 DUP2 MSTORE PUSH4 0x4C424545 PUSH1 0xE0 SHL PUSH1 0x20 DUP3 ADD MSTORE PUSH2 0x1DA JUMP JUMPDEST CALLVALUE DUP1 ISZERO PUSH2 0x473 JUMPI PUSH1 0x0 DUP1 REVERT JUMPDEST POP PUSH2 0x210 PUSH2 0x482 CALLDATASIZE PUSH1 0x4 PUSH2 0x1145 JUMP JUMPDEST PUSH2 0x7A7 JUMP JUMPDEST CALLVALUE DUP1 ISZERO PUSH2 0x493 JUMPI PUSH1 0x0 DUP1 REVERT JUMPDEST POP PUSH2 0x33B PUSH2 0x4A2 CALLDATASIZE PUSH1 0x4 PUSH2 0x1145 JUMP JUMPDEST PUSH2 0x83E JUMP JUMPDEST CALLVALUE DUP1 ISZERO PUSH2 0x4B3 JUMPI PUSH1 0x0 DUP1 REVERT JUMPDEST POP PUSH2 0x33B PUSH2 0x4C2 CALLDATASIZE PUSH1 0x4 PUSH2 0x11CB JUMP JUMPDEST PUSH2 0x8DE JUMP JUMPDEST CALLVALUE DUP1 ISZERO PUSH2 0x4D3 JUMPI PUSH1 0x0 DUP1 REVERT JUMPDEST POP PUSH2 0x210 PUSH2 0x4E2 CALLDATASIZE PUSH1 0x4 PUSH2 0x1145 JUMP JUMPDEST PUSH2 0x974 JUMP JUMPDEST CALLVALUE DUP1 ISZERO PUSH2 0x4F3 JUMPI PUSH1 0x0 DUP1 REVERT JUMPDEST POP PUSH2 0x33B PUSH2 0x981 JUMP JUMPDEST CALLVALUE DUP1 ISZERO PUSH2 0x508 JUMPI PUSH1 0x0 DUP1 REVERT JUMPDEST POP PUSH2 0x27D PUSH2 0x517 CALLDATASIZE PUSH1 0x4 PUSH2 0x11E8 JUMP JUMPDEST PUSH1 0x1 PUSH1 0x1 PUSH1 0xA0 SHL SUB SWAP2 DUP3 AND PUSH1 0x0 SWAP1 DUP2 MSTORE PUSH1 0x2 PUSH1 0x20 SWAP1 DUP2 MSTORE PUSH1 0x40 DUP1 DUP4 KECCAK256 SWAP4 SWAP1 SWAP5 AND DUP3 MSTORE SWAP2 SWAP1 SWAP2 MSTORE KECCAK256 SLOAD SWAP1 JUMP JUMPDEST CALLVALUE DUP1 ISZERO PUSH2 0x54E JUMPI PUSH1 0x0 DUP1 REVERT JUMPDEST POP PUSH2 0x210 PUSH2 0x55D CALLDATASIZE PUSH1 0x4 PUSH2 0x11CB JUMP JUMPDEST PUSH1 0x7 PUSH1 0x20 MSTORE PUSH1 0x0 SWAP1 DUP2 MSTORE PUSH1 0x40 SWAP1 KECCAK256 SLOAD PUSH1 0xFF AND DUP2 JUMP JUMPDEST CALLVALUE DUP1 ISZERO PUSH2 0x57E JUMPI PUSH1 0x0 DUP1 REVERT JUMPDEST POP PUSH2 0x33B PUSH2 0x58D CALLDATASIZE PUSH1 0x4 PUSH2 0x11CB JUMP JUMPDEST PUSH2 0x9E5 JUMP JUMPDEST CALLVALUE DUP1 ISZERO PUSH2 0x59E JUMPI PUSH1 0x0 DUP1 REVERT JUMPDEST POP PUSH2 0x33B PUSH2 0x5AD CALLDATASIZE PUSH1 0x4 PUSH2 0x11CB JUMP JUMPDEST PUSH2 0xAE4 JUMP JUMPDEST CALLVALUE DUP1 ISZERO PUSH2 0x5BE JUMPI PUSH1 0x0 DUP1 REVERT JUMPDEST POP PUSH2 0x33B PUSH2 0x5CD CALLDATASIZE PUSH1 0x4 PUSH2 0x11CB JUMP JUMPDEST PUSH2 0xB7C JUMP JUMPDEST PUSH1 0x0 PUSH2 0x5DF CALLER DUP5 DUP5 PUSH2 0xBC8 JUMP JUMPDEST POP PUSH1 0x1 JUMPDEST SWAP3 SWAP2 POP POP JUMP JUMPDEST PUSH1 0x0 PUSH2 0x5F6 DUP5 DUP5 DUP5 PUSH2 0xC2A JUMP JUMPDEST PUSH1 0x1 PUSH1 0x1 PUSH1 0xA0 SHL SUB DUP5 AND PUSH1 0x0 SWAP1 DUP2 MSTORE PUSH1 0x2 PUSH1 0x20 SWAP1 DUP2 MSTORE PUSH1 0x40 DUP1 DUP4 KECCAK256 CALLER DUP5 MSTORE SWAP1 SWAP2 MSTORE SWAP1 KECCAK256 SLOAD DUP3 DUP2 LT ISZERO PUSH2 0x67E JUMPI PUSH1 0x40 MLOAD PUSH3 0x461BCD PUSH1 0xE5 SHL DUP2 MSTORE PUSH1 0x20 PUSH1 0x4 DUP3 ADD MSTORE PUSH1 0x26 PUSH1 0x24 DUP3 ADD MSTORE PUSH32 0x4245453A207472616E7366657220616D6F756E74206578636565647320616C6C PUSH1 0x44 DUP3 ADD MSTORE PUSH6 0x6F77616E6365 PUSH1 0xD0 SHL PUSH1 0x64 DUP3 ADD MSTORE PUSH1 0x84 ADD JUMPDEST PUSH1 0x40 MLOAD DUP1 SWAP2 SUB SWAP1 REVERT JUMPDEST PUSH2 0x68B DUP6 CALLER DUP6 DUP5 SUB PUSH2 0xBC8 JUMP JUMPDEST POP PUSH1 0x1 SWAP5 SWAP4 POP POP POP POP JUMP JUMPDEST CALLER PUSH1 0x0 DUP2 DUP2 MSTORE PUSH1 0x2 PUSH1 0x20 SWAP1 DUP2 MSTORE PUSH1 0x40 DUP1 DUP4 KECCAK256 PUSH1 0x1 PUSH1 0x1 PUSH1 0xA0 SHL SUB DUP8 AND DUP5 MSTORE SWAP1 SWAP2 MSTORE DUP2 KECCAK256 SLOAD SWAP1 SWAP2 PUSH2 0x5DF SWAP2 DUP6 SWAP1 PUSH2 0x6CD SWAP1 DUP7 SWAP1 PUSH2 0x1237 JUMP JUMPDEST PUSH2 0xBC8 JUMP JUMPDEST PUSH2 0x6DC CALLER DUP3 PUSH2 0xF2A JUMP JUMPDEST POP JUMP JUMPDEST PUSH1 0x0 SLOAD PUSH1 0x1 PUSH1 0x1 PUSH1 0xA0 SHL SUB AND CALLER EQ PUSH2 0x709 JUMPI PUSH1 0x40 MLOAD PUSH3 0x461BCD PUSH1 0xE5 SHL DUP2 MSTORE PUSH1 0x4 ADD PUSH2 0x675 SWAP1 PUSH2 0x124A JUMP JUMPDEST PUSH1 0x1 PUSH1 0x1 PUSH1 0xA0 SHL SUB DUP2 AND PUSH1 0x0 SWAP1 DUP2 MSTORE PUSH1 0x7 PUSH1 0x20 MSTORE PUSH1 0x40 SWAP1 KECCAK256 SLOAD PUSH1 0xFF AND ISZERO PUSH2 0x74B JUMPI PUSH1 0x1 PUSH1 0x1 PUSH1 0xA0 SHL SUB AND PUSH1 0x0 SWAP1 DUP2 MSTORE PUSH1 0x7 PUSH1 0x20 MSTORE PUSH1 0x40 SWAP1 KECCAK256 DUP1 SLOAD PUSH1 0xFF NOT AND SWAP1 SSTORE JUMP JUMPDEST PUSH1 0x1 PUSH1 0x1 PUSH1 0xA0 SHL SUB DUP2 AND PUSH1 0x0 SWAP1 DUP2 MSTORE PUSH1 0x7 PUSH1 0x20 MSTORE PUSH1 0x40 SWAP1 KECCAK256 DUP1 SLOAD PUSH1 0xFF NOT AND PUSH1 0x1 OR SWAP1 SSTORE POP JUMP JUMPDEST PUSH1 0x0 SLOAD PUSH1 0x1 PUSH1 0x1 PUSH1 0xA0 SHL SUB AND CALLER EQ PUSH2 0x79B JUMPI PUSH1 0x40 MLOAD PUSH3 0x461BCD PUSH1 0xE5 SHL DUP2 MSTORE PUSH1 0x4 ADD PUSH2 0x675 SWAP1 PUSH2 0x124A JUMP JUMPDEST PUSH2 0x7A5 PUSH1 0x0 PUSH2 0x105B JUMP JUMPDEST JUMP JUMPDEST CALLER PUSH1 0x0 SWAP1 DUP2 MSTORE PUSH1 0x2 PUSH1 0x20 SWAP1 DUP2 MSTORE PUSH1 0x40 DUP1 DUP4 KECCAK256 PUSH1 0x1 PUSH1 0x1 PUSH1 0xA0 SHL SUB DUP7 AND DUP5 MSTORE SWAP1 SWAP2 MSTORE DUP2 KECCAK256 SLOAD DUP3 DUP2 LT ISZERO PUSH2 0x827 JUMPI PUSH1 0x40 MLOAD PUSH3 0x461BCD PUSH1 0xE5 SHL DUP2 MSTORE PUSH1 0x20 PUSH1 0x4 DUP3 ADD MSTORE PUSH1 0x23 PUSH1 0x24 DUP3 ADD MSTORE PUSH32 0x4245453A2064656372656173656420616C6C6F77616E63652062656C6F77207A PUSH1 0x44 DUP3 ADD MSTORE PUSH3 0x65726F PUSH1 0xE8 SHL PUSH1 0x64 DUP3 ADD MSTORE PUSH1 0x84 ADD PUSH2 0x675 JUMP JUMPDEST PUSH2 0x834 CALLER DUP6 DUP6 DUP5 SUB PUSH2 0xBC8 JUMP JUMPDEST POP PUSH1 0x1 SWAP4 SWAP3 POP POP POP JUMP JUMPDEST PUSH1 0x0 SLOAD PUSH1 0x1 PUSH1 0x1 PUSH1 0xA0 SHL SUB AND CALLER EQ PUSH2 0x868 JUMPI PUSH1 0x40 MLOAD PUSH3 0x461BCD PUSH1 0xE5 SHL DUP2 MSTORE PUSH1 0x4 ADD PUSH2 0x675 SWAP1 PUSH2 0x124A JUMP JUMPDEST PUSH1 0x40 MLOAD PUSH4 0xA9059CBB PUSH1 0xE0 SHL DUP2 MSTORE CALLER PUSH1 0x4 DUP3 ADD MSTORE PUSH1 0x24 DUP2 ADD DUP3 SWAP1 MSTORE PUSH1 0x1 PUSH1 0x1 PUSH1 0xA0 SHL SUB DUP4 AND SWAP1 PUSH4 0xA9059CBB SWAP1 PUSH1 0x44 ADD PUSH1 0x20 PUSH1 0x40 MLOAD DUP1 DUP4 SUB DUP2 PUSH1 0x0 DUP8 GAS CALL ISZERO DUP1 ISZERO PUSH2 0x8B5 JUMPI RETURNDATASIZE PUSH1 0x0 DUP1 RETURNDATACOPY RETURNDATASIZE PUSH1 0x0 REVERT JUMPDEST POP POP POP POP PUSH1 0x40 MLOAD RETURNDATASIZE PUSH1 0x1F NOT PUSH1 0x1F DUP3 ADD AND DUP3 ADD DUP1 PUSH1 0x40 MSTORE POP DUP2 ADD SWAP1 PUSH2 0x8D9 SWAP2 SWAP1 PUSH2 0x127F JUMP JUMPDEST POP POP POP JUMP JUMPDEST PUSH1 0x0 SLOAD PUSH1 0x1 PUSH1 0x1 PUSH1 0xA0 SHL SUB AND CALLER EQ PUSH2 0x908 JUMPI PUSH1 0x40 MLOAD PUSH3 0x461BCD PUSH1 0xE5 SHL DUP2 MSTORE PUSH1 0x4 ADD PUSH2 0x675 SWAP1 PUSH2 0x124A JUMP JUMPDEST PUSH1 0x1 PUSH1 0x1 PUSH1 0xA0 SHL SUB DUP2 AND PUSH1 0x0 SWAP1 DUP2 MSTORE PUSH1 0x6 PUSH1 0x20 MSTORE PUSH1 0x40 SWAP1 KECCAK256 SLOAD PUSH1 0xFF AND ISZERO ISZERO PUSH1 0x1 SUB PUSH2 0x94E JUMPI PUSH1 0x1 PUSH1 0x1 PUSH1 0xA0 SHL SUB AND PUSH1 0x0 SWAP1 DUP2 MSTORE PUSH1 0x6 PUSH1 0x20 MSTORE PUSH1 0x40 SWAP1 KECCAK256 DUP1 SLOAD PUSH1 0xFF NOT AND SWAP1 SSTORE JUMP JUMPDEST PUSH1 0x1 PUSH1 0x1 PUSH1 0xA0 SHL SUB DUP2 AND PUSH1 0x0 SWAP1 DUP2 MSTORE PUSH1 0x6 PUSH1 0x20 MSTORE PUSH1 0x40 SWAP1 KECCAK256 DUP1 SLOAD PUSH1 0xFF NOT AND PUSH1 0x1 OR SWAP1 SSTORE POP JUMP JUMPDEST PUSH1 0x0 PUSH2 0x5DF CALLER DUP5 DUP5 PUSH2 0xC2A JUMP JUMPDEST PUSH1 0x0 SLOAD PUSH1 0x1 PUSH1 0x1 PUSH1 0xA0 SHL SUB AND CALLER EQ PUSH2 0x9AB JUMPI PUSH1 0x40 MLOAD PUSH3 0x461BCD PUSH1 0xE5 SHL DUP2 MSTORE PUSH1 0x4 ADD PUSH2 0x675 SWAP1 PUSH2 0x124A JUMP JUMPDEST PUSH1 0x0 DUP1 SLOAD PUSH1 0x40 MLOAD PUSH1 0x1 PUSH1 0x1 PUSH1 0xA0 SHL SUB SWAP1 SWAP2 AND SWAP2 SELFBALANCE DUP1 ISZERO PUSH2 0x8FC MUL SWAP3 SWAP1 SWAP2 DUP2 DUP2 DUP2 DUP6 DUP9 DUP9 CALL SWAP4 POP POP POP POP ISZERO DUP1 ISZERO PUSH2 0x6DC JUMPI RETURNDATASIZE PUSH1 0x0 DUP1 RETURNDATACOPY RETURNDATASIZE PUSH1 0x0 REVERT JUMPDEST PUSH1 0x0 SLOAD PUSH1 0x1 PUSH1 0x1 PUSH1 0xA0 SHL SUB AND CALLER EQ PUSH2 0xA0F JUMPI PUSH1 0x40 MLOAD PUSH3 0x461BCD PUSH1 0xE5 SHL DUP2 MSTORE PUSH1 0x4 ADD PUSH2 0x675 SWAP1 PUSH2 0x124A JUMP JUMPDEST PUSH1 0x0 DUP2 PUSH1 0x1 PUSH1 0x1 PUSH1 0xA0 SHL SUB AND PUSH4 0x30ADF81F PUSH1 0x40 MLOAD DUP2 PUSH4 0xFFFFFFFF AND PUSH1 0xE0 SHL DUP2 MSTORE PUSH1 0x4 ADD PUSH1 0x20 PUSH1 0x40 MLOAD DUP1 DUP4 SUB DUP2 DUP7 GAS STATICCALL ISZERO DUP1 ISZERO PUSH2 0xA4F JUMPI RETURNDATASIZE PUSH1 0x0 DUP1 RETURNDATACOPY RETURNDATASIZE PUSH1 0x0 REVERT JUMPDEST POP POP POP POP PUSH1 0x40 MLOAD RETURNDATASIZE PUSH1 0x1F NOT PUSH1 0x1F DUP3 ADD AND DUP3 ADD DUP1 PUSH1 0x40 MSTORE POP DUP2 ADD SWAP1 PUSH2 0xA73 SWAP2 SWAP1 PUSH2 0x12A1 JUMP JUMPDEST PUSH1 0x1 PUSH1 0x1 PUSH1 0xA0 SHL SUB DUP2 AND PUSH1 0x0 SWAP1 DUP2 MSTORE PUSH1 0x6 PUSH1 0x20 MSTORE PUSH1 0x40 SWAP1 KECCAK256 SLOAD SWAP1 SWAP2 POP PUSH1 0xFF AND ISZERO ISZERO PUSH1 0x1 SUB PUSH2 0xABD JUMPI PUSH1 0x1 PUSH1 0x1 PUSH1 0xA0 SHL SUB AND PUSH1 0x0 SWAP1 DUP2 MSTORE PUSH1 0x6 PUSH1 0x20 MSTORE PUSH1 0x40 SWAP1 KECCAK256 DUP1 SLOAD PUSH1 0xFF NOT AND SWAP1 SSTORE POP JUMP JUMPDEST PUSH1 0x1 PUSH1 0x1 PUSH1 0xA0 SHL SUB DUP2 AND PUSH1 0x0 SWAP1 DUP2 MSTORE PUSH1 0x6 PUSH1 0x20 MSTORE PUSH1 0x40 SWAP1 KECCAK256 DUP1 SLOAD PUSH1 0xFF NOT AND PUSH1 0x1 OR SWAP1 SSTORE POP POP JUMP JUMPDEST PUSH1 0x0 SLOAD PUSH1 0x1 PUSH1 0x1 PUSH1 0xA0 SHL SUB AND CALLER EQ PUSH2 0xB0E JUMPI PUSH1 0x40 MLOAD PUSH3 0x461BCD PUSH1 0xE5 SHL DUP2 MSTORE PUSH1 0x4 ADD PUSH2 0x675 SWAP1 PUSH2 0x124A JUMP JUMPDEST PUSH1 0x1 PUSH1 0x1 PUSH1 0xA0 SHL SUB DUP2 AND PUSH2 0xB73 JUMPI PUSH1 0x40 MLOAD PUSH3 0x461BCD PUSH1 0xE5 SHL DUP2 MSTORE PUSH1 0x20 PUSH1 0x4 DUP3 ADD MSTORE PUSH1 0x26 PUSH1 0x24 DUP3 ADD MSTORE PUSH32 0x4F776E61626C653A206E6577206F776E657220697320746865207A65726F2061 PUSH1 0x44 DUP3 ADD MSTORE PUSH6 0x646472657373 PUSH1 0xD0 SHL PUSH1 0x64 DUP3 ADD MSTORE PUSH1 0x84 ADD PUSH2 0x675 JUMP JUMPDEST PUSH2 0x6DC DUP2 PUSH2 0x105B JUMP JUMPDEST PUSH1 0x0 SLOAD PUSH1 0x1 PUSH1 0x1 PUSH1 0xA0 SHL SUB AND CALLER EQ PUSH2 0xBA6 JUMPI PUSH1 0x40 MLOAD PUSH3 0x461BCD PUSH1 0xE5 SHL DUP2 MSTORE PUSH1 0x4 ADD PUSH2 0x675 SWAP1 PUSH2 0x124A JUMP JUMPDEST PUSH1 0x9 DUP1 SLOAD PUSH1 0x1 PUSH1 0x1 PUSH1 0xA0 SHL SUB NOT AND PUSH1 0x1 PUSH1 0x1 PUSH1 0xA0 SHL SUB SWAP3 SWAP1 SWAP3 AND SWAP2 SWAP1 SWAP2 OR SWAP1 SSTORE JUMP JUMPDEST PUSH1 0x1 PUSH1 0x1 PUSH1 0xA0 SHL SUB DUP4 DUP2 AND PUSH1 0x0 DUP2 DUP2 MSTORE PUSH1 0x2 PUSH1 0x20 SWAP1 DUP2 MSTORE PUSH1 0x40 DUP1 DUP4 KECCAK256 SWAP5 DUP8 AND DUP1 DUP5 MSTORE SWAP5 DUP3 MSTORE SWAP2 DUP3 SWAP1 KECCAK256 DUP6 SWAP1 SSTORE SWAP1 MLOAD DUP5 DUP2 MSTORE PUSH32 0x8C5BE1E5EBEC7D5BD14F71427D1E84F3DD0314C0F7B2291E5B200AC8C7C3B925 SWAP2 ADD JUMPDEST PUSH1 0x40 MLOAD DUP1 SWAP2 SUB SWAP1 LOG3 POP POP POP JUMP JUMPDEST PUSH1 0x1 PUSH1 0x1 PUSH1 0xA0 SHL SUB DUP4 AND PUSH2 0xC8C JUMPI PUSH1 0x40 MLOAD PUSH3 0x461BCD PUSH1 0xE5 SHL DUP2 MSTORE PUSH1 0x20 PUSH1 0x4 DUP3 ADD MSTORE PUSH1 0x23 PUSH1 0x24 DUP3 ADD MSTORE PUSH32 0x4245453A207472616E736665722066726F6D20746865207A65726F2061646472 PUSH1 0x44 DUP3 ADD MSTORE PUSH3 0x657373 PUSH1 0xE8 SHL PUSH1 0x64 DUP3 ADD MSTORE PUSH1 0x84 ADD PUSH2 0x675 JUMP JUMPDEST PUSH1 0x1 PUSH1 0x1 PUSH1 0xA0 SHL SUB DUP3 AND PUSH2 0xCEC JUMPI PUSH1 0x40 MLOAD PUSH3 0x461BCD PUSH1 0xE5 SHL DUP2 MSTORE PUSH1 0x20 PUSH1 0x4 DUP3 ADD MSTORE PUSH1 0x21 PUSH1 0x24 DUP3 ADD MSTORE PUSH32 0x4245453A207472616E7366657220746F20746865207A65726F20616464726573 PUSH1 0x44 DUP3 ADD MSTORE PUSH1 0x73 PUSH1 0xF8 SHL PUSH1 0x64 DUP3 ADD MSTORE PUSH1 0x84 ADD PUSH2 0x675 JUMP JUMPDEST PUSH1 0x1 PUSH1 0x1 PUSH1 0xA0 SHL SUB DUP4 AND PUSH1 0x0 SWAP1 DUP2 MSTORE PUSH1 0x1 PUSH1 0x20 MSTORE PUSH1 0x40 SWAP1 KECCAK256 SLOAD DUP2 DUP2 LT ISZERO PUSH2 0xD61 JUMPI PUSH1 0x40 MLOAD PUSH3 0x461BCD PUSH1 0xE5 SHL DUP2 MSTORE PUSH1 0x20 PUSH1 0x4 DUP3 ADD MSTORE PUSH1 0x24 DUP1 DUP3 ADD MSTORE PUSH32 0x4245453A207472616E7366657220616D6F756E7420657863656564732062616C PUSH1 0x44 DUP3 ADD MSTORE PUSH4 0x616E6365 PUSH1 0xE0 SHL PUSH1 0x64 DUP3 ADD MSTORE PUSH1 0x84 ADD PUSH2 0x675 JUMP JUMPDEST PUSH1 0x1 PUSH1 0x1 PUSH1 0xA0 SHL SUB DUP4 AND PUSH1 0x0 SWAP1 DUP2 MSTORE PUSH1 0x7 PUSH1 0x20 MSTORE PUSH1 0x40 SWAP1 KECCAK256 SLOAD DUP3 SWAP1 PUSH1 0xFF AND DUP1 ISZERO PUSH2 0xDA4 JUMPI POP PUSH1 0x1 PUSH1 0x1 PUSH1 0xA0 SHL SUB DUP6 AND PUSH1 0x0 SWAP1 DUP2 MSTORE PUSH1 0x6 PUSH1 0x20 MSTORE PUSH1 0x40 SWAP1 KECCAK256 SLOAD PUSH1 0xFF AND ISZERO JUMPDEST DUP1 ISZERO PUSH2 0xDC9 JUMPI POP PUSH1 0x1 PUSH1 0x1 PUSH1 0xA0 SHL SUB DUP5 AND PUSH1 0x0 SWAP1 DUP2 MSTORE PUSH1 0x6 PUSH1 0x20 MSTORE PUSH1 0x40 SWAP1 KECCAK256 SLOAD PUSH1 0xFF AND ISZERO JUMPDEST ISZERO PUSH2 0xE8E JUMPI PUSH2 0xE09 PUSH2 0xDE8 PUSH1 0xA PUSH2 0xDE2 DUP7 PUSH2 0x3E8 PUSH2 0x10AB JUMP JUMPDEST SWAP1 PUSH2 0x10BE JUMP JUMPDEST PUSH1 0x9 SLOAD PUSH1 0x1 PUSH1 0x1 PUSH1 0xA0 SHL SUB AND PUSH1 0x0 SWAP1 DUP2 MSTORE PUSH1 0x1 PUSH1 0x20 MSTORE PUSH1 0x40 SWAP1 KECCAK256 SLOAD SWAP1 PUSH2 0x10CA JUMP JUMPDEST PUSH1 0x9 DUP1 SLOAD PUSH1 0x1 PUSH1 0x1 PUSH1 0xA0 SHL SUB SWAP1 DUP2 AND PUSH1 0x0 SWAP1 DUP2 MSTORE PUSH1 0x1 PUSH1 0x20 MSTORE PUSH1 0x40 SWAP1 KECCAK256 SWAP3 SWAP1 SWAP3 SSTORE SLOAD DUP2 AND SWAP1 DUP7 AND PUSH32 0xDDF252AD1BE2C89B69C2B068FC378DAA952BA7F163C4A11628F55A4DF523B3EF PUSH2 0xE68 PUSH2 0x3E8 PUSH2 0xE62 DUP9 PUSH1 0xA PUSH2 0x10BE JUMP JUMPDEST SWAP1 PUSH2 0x10AB JUMP JUMPDEST PUSH1 0x40 MLOAD SWAP1 DUP2 MSTORE PUSH1 0x20 ADD PUSH1 0x40 MLOAD DUP1 SWAP2 SUB SWAP1 LOG3 PUSH2 0xE8B PUSH2 0x3E8 PUSH2 0xE62 DUP6 PUSH2 0x3DE PUSH2 0x10BE JUMP JUMPDEST SWAP1 POP JUMPDEST PUSH2 0xE98 DUP3 DUP5 PUSH2 0x10D6 JUMP JUMPDEST PUSH1 0x1 PUSH1 0x1 PUSH1 0xA0 SHL SUB DUP1 DUP8 AND PUSH1 0x0 SWAP1 DUP2 MSTORE PUSH1 0x1 PUSH1 0x20 MSTORE PUSH1 0x40 DUP1 DUP3 KECCAK256 SWAP4 SWAP1 SWAP4 SSTORE SWAP1 DUP7 AND DUP2 MSTORE KECCAK256 SLOAD PUSH2 0xEC7 SWAP1 DUP3 PUSH2 0x10CA JUMP JUMPDEST PUSH1 0x1 PUSH1 0x1 PUSH1 0xA0 SHL SUB DUP1 DUP7 AND PUSH1 0x0 DUP2 DUP2 MSTORE PUSH1 0x1 PUSH1 0x20 MSTORE PUSH1 0x40 SWAP1 DUP2 SWAP1 KECCAK256 SWAP4 SWAP1 SWAP4 SSTORE SWAP2 MLOAD SWAP1 DUP8 AND SWAP1 PUSH32 0xDDF252AD1BE2C89B69C2B068FC378DAA952BA7F163C4A11628F55A4DF523B3EF SWAP1 PUSH2 0xF1B SWAP1 DUP6 DUP2 MSTORE PUSH1 0x20 ADD SWAP1 JUMP JUMPDEST PUSH1 0x40 MLOAD DUP1 SWAP2 SUB SWAP1 LOG3 POP POP POP POP POP JUMP JUMPDEST PUSH1 0x1 PUSH1 0x1 PUSH1 0xA0 SHL SUB DUP3 AND PUSH2 0xF80 JUMPI PUSH1 0x40 MLOAD PUSH3 0x461BCD PUSH1 0xE5 SHL DUP2 MSTORE PUSH1 0x20 PUSH1 0x4 DUP3 ADD MSTORE PUSH1 0x1F PUSH1 0x24 DUP3 ADD MSTORE PUSH32 0x4245453A206275726E2066726F6D20746865207A65726F206164647265737300 PUSH1 0x44 DUP3 ADD MSTORE PUSH1 0x64 ADD PUSH2 0x675 JUMP JUMPDEST PUSH1 0x1 PUSH1 0x1 PUSH1 0xA0 SHL SUB DUP3 AND PUSH1 0x0 SWAP1 DUP2 MSTORE PUSH1 0x1 PUSH1 0x20 MSTORE PUSH1 0x40 SWAP1 KECCAK256 SLOAD DUP2 DUP2 LT ISZERO PUSH2 0xFE9 JUMPI PUSH1 0x40 MLOAD PUSH3 0x461BCD PUSH1 0xE5 SHL DUP2 MSTORE PUSH1 0x20 PUSH1 0x4 DUP3 ADD DUP2 SWAP1 MSTORE PUSH1 0x24 DUP3 ADD MSTORE PUSH32 0x4245453A206275726E20616D6F756E7420657863656564732062616C616E6365 PUSH1 0x44 DUP3 ADD MSTORE PUSH1 0x64 ADD PUSH2 0x675 JUMP JUMPDEST PUSH1 0x1 PUSH1 0x1 PUSH1 0xA0 SHL SUB DUP4 AND PUSH1 0x0 SWAP1 DUP2 MSTORE PUSH1 0x1 PUSH1 0x20 MSTORE PUSH1 0x40 DUP2 KECCAK256 DUP4 DUP4 SUB SWAP1 SSTORE PUSH1 0x3 DUP1 SLOAD DUP5 SWAP3 SWAP1 PUSH2 0x1018 SWAP1 DUP5 SWAP1 PUSH2 0x12BE JUMP JUMPDEST SWAP1 SWAP2 SSTORE POP POP PUSH1 0x40 MLOAD DUP3 DUP2 MSTORE PUSH1 0x0 SWAP1 PUSH1 0x1 PUSH1 0x1 PUSH1 0xA0 SHL SUB DUP6 AND SWAP1 PUSH32 0xDDF252AD1BE2C89B69C2B068FC378DAA952BA7F163C4A11628F55A4DF523B3EF SWAP1 PUSH1 0x20 ADD PUSH2 0xC1D JUMP JUMPDEST PUSH1 0x0 DUP1 SLOAD PUSH1 0x1 PUSH1 0x1 PUSH1 0xA0 SHL SUB DUP4 DUP2 AND PUSH1 0x1 PUSH1 0x1 PUSH1 0xA0 SHL SUB NOT DUP4 AND DUP2 OR DUP5 SSTORE PUSH1 0x40 MLOAD SWAP2 SWAP1 SWAP3 AND SWAP3 DUP4 SWAP2 PUSH32 0x8BE0079C531659141344CD1FD0A4F28419497F9722A3DAAFE3B4186F6B6457E0 SWAP2 SWAP1 LOG3 POP POP JUMP JUMPDEST PUSH1 0x0 PUSH2 0x10B7 DUP3 DUP5 PUSH2 0x12D1 JUMP JUMPDEST SWAP4 SWAP3 POP POP POP JUMP JUMPDEST PUSH1 0x0 PUSH2 0x10B7 DUP3 DUP5 PUSH2 0x12F3 JUMP JUMPDEST PUSH1 0x0 PUSH2 0x10B7 DUP3 DUP5 PUSH2 0x1237 JUMP JUMPDEST PUSH1 0x0 PUSH2 0x10B7 DUP3 DUP5 PUSH2 0x12BE JUMP JUMPDEST PUSH1 0x0 PUSH1 0x20 DUP1 DUP4 MSTORE DUP4 MLOAD DUP1 DUP3 DUP6 ADD MSTORE PUSH1 0x0 JUMPDEST DUP2 DUP2 LT ISZERO PUSH2 0x110F JUMPI DUP6 DUP2 ADD DUP4 ADD MLOAD DUP6 DUP3 ADD PUSH1 0x40 ADD MSTORE DUP3 ADD PUSH2 0x10F3 JUMP JUMPDEST POP PUSH1 0x0 PUSH1 0x40 DUP3 DUP7 ADD ADD MSTORE PUSH1 0x40 PUSH1 0x1F NOT PUSH1 0x1F DUP4 ADD AND DUP6 ADD ADD SWAP3 POP POP POP SWAP3 SWAP2 POP POP JUMP JUMPDEST PUSH1 0x1 PUSH1 0x1 PUSH1 0xA0 SHL SUB DUP2 AND DUP2 EQ PUSH2 0x6DC JUMPI PUSH1 0x0 DUP1 REVERT JUMPDEST PUSH1 0x0 DUP1 PUSH1 0x40 DUP4 DUP6 SUB SLT ISZERO PUSH2 0x1158 JUMPI PUSH1 0x0 DUP1 REVERT JUMPDEST DUP3 CALLDATALOAD PUSH2 0x1163 DUP2 PUSH2 0x1130 JUMP JUMPDEST SWAP5 PUSH1 0x20 SWAP4 SWAP1 SWAP4 ADD CALLDATALOAD SWAP4 POP POP POP JUMP JUMPDEST PUSH1 0x0 DUP1 PUSH1 0x0 PUSH1 0x60 DUP5 DUP7 SUB SLT ISZERO PUSH2 0x1186 JUMPI PUSH1 0x0 DUP1 REVERT JUMPDEST DUP4 CALLDATALOAD PUSH2 0x1191 DUP2 PUSH2 0x1130 JUMP JUMPDEST SWAP3 POP PUSH1 0x20 DUP5 ADD CALLDATALOAD PUSH2 0x11A1 DUP2 PUSH2 0x1130 JUMP JUMPDEST SWAP3 SWAP6 SWAP3 SWAP5 POP POP POP PUSH1 0x40 SWAP2 SWAP1 SWAP2 ADD CALLDATALOAD SWAP1 JUMP JUMPDEST PUSH1 0x0 PUSH1 0x20 DUP3 DUP5 SUB SLT ISZERO PUSH2 0x11C4 JUMPI PUSH1 0x0 DUP1 REVERT JUMPDEST POP CALLDATALOAD SWAP2 SWAP1 POP JUMP JUMPDEST PUSH1 0x0 PUSH1 0x20 DUP3 DUP5 SUB SLT ISZERO PUSH2 0x11DD JUMPI PUSH1 0x0 DUP1 REVERT JUMPDEST DUP2 CALLDATALOAD PUSH2 0x10B7 DUP2 PUSH2 0x1130 JUMP JUMPDEST PUSH1 0x0 DUP1 PUSH1 0x40 DUP4 DUP6 SUB SLT ISZERO PUSH2 0x11FB JUMPI PUSH1 0x0 DUP1 REVERT JUMPDEST DUP3 CALLDATALOAD PUSH2 0x1206 DUP2 PUSH2 0x1130 JUMP JUMPDEST SWAP2 POP PUSH1 0x20 DUP4 ADD CALLDATALOAD PUSH2 0x1216 DUP2 PUSH2 0x1130 JUMP JUMPDEST DUP1 SWAP2 POP POP SWAP3 POP SWAP3 SWAP1 POP JUMP JUMPDEST PUSH4 0x4E487B71 PUSH1 0xE0 SHL PUSH1 0x0 MSTORE PUSH1 0x11 PUSH1 0x4 MSTORE PUSH1 0x24 PUSH1 0x0 REVERT JUMPDEST DUP1 DUP3 ADD DUP1 DUP3 GT ISZERO PUSH2 0x5E3 JUMPI PUSH2 0x5E3 PUSH2 0x1221 JUMP JUMPDEST PUSH1 0x20 DUP1 DUP3 MSTORE DUP2 DUP2 ADD MSTORE PUSH32 0x4F776E61626C653A2063616C6C6572206973206E6F7420746865206F776E6572 PUSH1 0x40 DUP3 ADD MSTORE PUSH1 0x60 ADD SWAP1 JUMP JUMPDEST PUSH1 0x0 PUSH1 0x20 DUP3 DUP5 SUB SLT ISZERO PUSH2 0x1291 JUMPI PUSH1 0x0 DUP1 REVERT JUMPDEST DUP2 MLOAD DUP1 ISZERO ISZERO DUP2 EQ PUSH2 0x10B7 JUMPI PUSH1 0x0 DUP1 REVERT JUMPDEST PUSH1 0x0 PUSH1 0x20 DUP3 DUP5 SUB SLT ISZERO PUSH2 0x12B3 JUMPI PUSH1 0x0 DUP1 REVERT JUMPDEST DUP2 MLOAD PUSH2 0x10B7 DUP2 PUSH2 0x1130 JUMP JUMPDEST DUP2 DUP2 SUB DUP2 DUP2 GT ISZERO PUSH2 0x5E3 JUMPI PUSH2 0x5E3 PUSH2 0x1221 JUMP JUMPDEST PUSH1 0x0 DUP3 PUSH2 0x12EE JUMPI PUSH4 0x4E487B71 PUSH1 0xE0 SHL PUSH1 0x0 MSTORE PUSH1 0x12 PUSH1 0x4 MSTORE PUSH1 0x24 PUSH1 0x0 REVERT JUMPDEST POP DIV SWAP1 JUMP JUMPDEST DUP1 DUP3 MUL DUP2 ISZERO DUP3 DUP3 DIV DUP5 EQ OR PUSH2 0x5E3 JUMPI PUSH2 0x5E3 PUSH2 0x1221 JUMP INVALID LOG2 PUSH5 0x6970667358 0x22 SLT KECCAK256 0xCE PUSH4 0xD060D433 EXTCODEHASH RETURNDATACOPY 0x4D RETURNDATASIZE 0xEC 0xC0 PUSH8 0xA278BE19BE238297 0xC PUSH12 0x8CDBC1DCC5EAB02BE964736F PUSH13 0x63430008110033000000000000 "
				},
				"gasEstimates": {
					"creation": {
						"codeDepositCost": "985600",
						"executionCost": "infinite",
						"totalCost": "infinite"
					},
					"external": {
						"DEXs(address)": "2569",
						"addDex(address)": "29029",
						"allowance(address,address)": "infinite",
						"approve(address,uint256)": "24568",
						"balanceOf(address)": "2620",
						"burn(uint256)": "50953",
						"decimals()": "223",
						"decreaseAllowance(address,uint256)": "26880",
						"deliver(address)": "infinite",
						"emergencyWithdraw()": "infinite",
						"emergencyWithdrawToken(address,uint256)": "infinite",
						"increaseAllowance(address,uint256)": "infinite",
						"marketAddress()": "2427",
						"name()": "infinite",
						"owner()": "2399",
						"renounceOwnership()": "28225",
						"setExcludeds(address)": "29082",
						"setMarketAddress(address)": "26815",
						"symbol()": "infinite",
						"totalSupply()": "2371",
						"transfer(address,uint256)": "infinite",
						"transferFrom(address,address,uint256)": "infinite",
						"transferOwnership(address)": "infinite",
						"uniswapUsdtV2Pair()": "infinite",
						"uniswapV2Pair()": "infinite",
						"uniswapV2Router()": "infinite",
						"usdtMintAddress()": "2383"
					},
					"internal": {
						"_approve(address,address,uint256)": "infinite",
						"_burn(address,uint256)": "infinite",
						"_mint(address,uint256)": "infinite",
						"_transfer(address,address,uint256)": "infinite"
					}
				},
				"methodIdentifiers": {
					"DEXs(address)": "dec1a6f6",
					"addDex(address)": "536db266",
					"allowance(address,address)": "dd62ed3e",
					"approve(address,uint256)": "095ea7b3",
					"balanceOf(address)": "70a08231",
					"burn(uint256)": "42966c68",
					"decimals()": "313ce567",
					"decreaseAllowance(address,uint256)": "a457c2d7",
					"deliver(address)": "e515cd38",
					"emergencyWithdraw()": "db2e21bc",
					"emergencyWithdrawToken(address,uint256)": "a4c3b091",
					"increaseAllowance(address,uint256)": "39509351",
					"marketAddress()": "95623641",
					"name()": "06fdde03",
					"owner()": "8da5cb5b",
					"renounceOwnership()": "715018a6",
					"setExcludeds(address)": "a8808fcc",
					"setMarketAddress(address)": "fae92612",
					"symbol()": "95d89b41",
					"totalSupply()": "18160ddd",
					"transfer(address,uint256)": "a9059cbb",
					"transferFrom(address,address,uint256)": "23b872dd",
					"transferOwnership(address)": "f2fde38b",
					"uniswapUsdtV2Pair()": "2aafa283",
					"uniswapV2Pair()": "49bd5a5e",
					"uniswapV2Router()": "1694505e",
					"usdtMintAddress()": "88af60c6"
				}
			},
			"storageLayout": {
				"storage": [
					{
						"astId": 47,
						"contract": "inviter_presell/token.sol:Bee",
						"label": "_owner",
						"offset": 0,
						"slot": "0",
						"type": "t_address"
					},
					{
						"astId": 854,
						"contract": "inviter_presell/token.sol:Bee",
						"label": "_balances",
						"offset": 0,
						"slot": "1",
						"type": "t_mapping(t_address,t_uint256)"
					},
					{
						"astId": 860,
						"contract": "inviter_presell/token.sol:Bee",
						"label": "_allowances",
						"offset": 0,
						"slot": "2",
						"type": "t_mapping(t_address,t_mapping(t_address,t_uint256))"
					},
					{
						"astId": 862,
						"contract": "inviter_presell/token.sol:Bee",
						"label": "_totalSupply",
						"offset": 0,
						"slot": "3",
						"type": "t_uint256"
					},
					{
						"astId": 864,
						"contract": "inviter_presell/token.sol:Bee",
						"label": "_name",
						"offset": 0,
						"slot": "4",
						"type": "t_string_storage"
					},
					{
						"astId": 866,
						"contract": "inviter_presell/token.sol:Bee",
						"label": "_symbol",
						"offset": 0,
						"slot": "5",
						"type": "t_string_storage"
					},
					{
						"astId": 877,
						"contract": "inviter_presell/token.sol:Bee",
						"label": "_isExcludeds",
						"offset": 0,
						"slot": "6",
						"type": "t_mapping(t_address,t_bool)"
					},
					{
						"astId": 881,
						"contract": "inviter_presell/token.sol:Bee",
						"label": "DEXs",
						"offset": 0,
						"slot": "7",
						"type": "t_mapping(t_address,t_bool)"
					},
					{
						"astId": 884,
						"contract": "inviter_presell/token.sol:Bee",
						"label": "usdtMintAddress",
						"offset": 0,
						"slot": "8",
						"type": "t_address"
					},
					{
						"astId": 887,
						"contract": "inviter_presell/token.sol:Bee",
						"label": "marketAddress",
						"offset": 0,
						"slot": "9",
						"type": "t_address"
					}
				],
				"types": {
					"t_address": {
						"encoding": "inplace",
						"label": "address",
						"numberOfBytes": "20"
					},
					"t_bool": {
						"encoding": "inplace",
						"label": "bool",
						"numberOfBytes": "1"
					},
					"t_mapping(t_address,t_bool)": {
						"encoding": "mapping",
						"key": "t_address",
						"label": "mapping(address => bool)",
						"numberOfBytes": "32",
						"value": "t_bool"
					},
					"t_mapping(t_address,t_mapping(t_address,t_uint256))": {
						"encoding": "mapping",
						"key": "t_address",
						"label": "mapping(address => mapping(address => uint256))",
						"numberOfBytes": "32",
						"value": "t_mapping(t_address,t_uint256)"
					},
					"t_mapping(t_address,t_uint256)": {
						"encoding": "mapping",
						"key": "t_address",
						"label": "mapping(address => uint256)",
						"numberOfBytes": "32",
						"value": "t_uint256"
					},
					"t_string_storage": {
						"encoding": "bytes",
						"label": "string",
						"numberOfBytes": "32"
					},
					"t_uint256": {
						"encoding": "inplace",
						"label": "uint256",
						"numberOfBytes": "32"
					}
				}
			},
			"userdoc": {
				"kind": "user",
				"methods": {},
				"version": 1
			}
		}
	}
}