{
	"inviter_presell/stake.sol": {
		"StakingRewards": {
			"abi": [
				{
					"anonymous": false,
					"inputs": [
						{
							"indexed": true,
							"internalType": "address",
							"name": "admin",
							"type": "address"
						},
						{
							"indexed": false,
							"internalType": "bool",
							"name": "oldState",
							"type": "bool"
						},
						{
							"indexed": false,
							"internalType": "bool",
							"name": "newState",
							"type": "bool"
						}
					],
					"name": "ModificationAdmin",
					"type": "event"
				},
				{
					"anonymous": false,
					"inputs": [
						{
							"indexed": true,
							"internalType": "address",
							"name": "previousOwner",
							"type": "address"
						},
						{
							"indexed": true,
							"internalType": "address",
							"name": "newOwner",
							"type": "address"
						}
					],
					"name": "OwnershipTransferred",
					"type": "event"
				},
				{
					"anonymous": false,
					"inputs": [
						{
							"indexed": true,
							"internalType": "address",
							"name": "user",
							"type": "address"
						},
						{
							"indexed": false,
							"internalType": "uint256",
							"name": "reward",
							"type": "uint256"
						}
					],
					"name": "RewardPaid",
					"type": "event"
				},
				{
					"anonymous": false,
					"inputs": [
						{
							"indexed": true,
							"internalType": "address",
							"name": "user",
							"type": "address"
						},
						{
							"indexed": false,
							"internalType": "uint256",
							"name": "amount",
							"type": "uint256"
						}
					],
					"name": "Staked",
					"type": "event"
				},
				{
					"inputs": [],
					"name": "curTime",
					"outputs": [
						{
							"internalType": "uint256",
							"name": "",
							"type": "uint256"
						}
					],
					"stateMutability": "view",
					"type": "function"
				},
				{
					"inputs": [
						{
							"internalType": "address",
							"name": "account",
							"type": "address"
						}
					],
					"name": "earned",
					"outputs": [
						{
							"internalType": "uint256",
							"name": "",
							"type": "uint256"
						}
					],
					"stateMutability": "view",
					"type": "function"
				},
				{
					"inputs": [],
					"name": "emergencyWithdraw",
					"outputs": [],
					"stateMutability": "nonpayable",
					"type": "function"
				},
				{
					"inputs": [
						{
							"internalType": "address",
							"name": "token",
							"type": "address"
						},
						{
							"internalType": "uint256",
							"name": "amount",
							"type": "uint256"
						}
					],
					"name": "emergencyWithdrawToken",
					"outputs": [],
					"stateMutability": "nonpayable",
					"type": "function"
				},
				{
					"inputs": [],
					"name": "getCurRewardPool",
					"outputs": [
						{
							"internalType": "uint256",
							"name": "",
							"type": "uint256"
						}
					],
					"stateMutability": "view",
					"type": "function"
				},
				{
					"inputs": [],
					"name": "getCurRewardRate",
					"outputs": [
						{
							"internalType": "uint256",
							"name": "",
							"type": "uint256"
						}
					],
					"stateMutability": "view",
					"type": "function"
				},
				{
					"inputs": [
						{
							"internalType": "uint256",
							"name": "time",
							"type": "uint256"
						}
					],
					"name": "getRemainPool",
					"outputs": [
						{
							"internalType": "uint256",
							"name": "",
							"type": "uint256"
						}
					],
					"stateMutability": "view",
					"type": "function"
				},
				{
					"inputs": [],
					"name": "getReward",
					"outputs": [],
					"stateMutability": "nonpayable",
					"type": "function"
				},
				{
					"inputs": [
						{
							"internalType": "uint256",
							"name": "time",
							"type": "uint256"
						}
					],
					"name": "getRewardPool",
					"outputs": [
						{
							"internalType": "uint256",
							"name": "",
							"type": "uint256"
						}
					],
					"stateMutability": "view",
					"type": "function"
				},
				{
					"inputs": [
						{
							"internalType": "uint256",
							"name": "leftTime",
							"type": "uint256"
						},
						{
							"internalType": "uint256",
							"name": "rightTime",
							"type": "uint256"
						}
					],
					"name": "getTimeWeightedAveRate",
					"outputs": [
						{
							"internalType": "uint256",
							"name": "",
							"type": "uint256"
						}
					],
					"stateMutability": "view",
					"type": "function"
				},
				{
					"inputs": [
						{
							"internalType": "address",
							"name": "account",
							"type": "address"
						}
					],
					"name": "isAdmin",
					"outputs": [
						{
							"internalType": "bool",
							"name": "",
							"type": "bool"
						}
					],
					"stateMutability": "view",
					"type": "function"
				},
				{
					"inputs": [],
					"name": "lastTimeRewardApplicable",
					"outputs": [
						{
							"internalType": "uint256",
							"name": "",
							"type": "uint256"
						}
					],
					"stateMutability": "view",
					"type": "function"
				},
				{
					"inputs": [],
					"name": "lastUpdateTime",
					"outputs": [
						{
							"internalType": "uint256",
							"name": "",
							"type": "uint256"
						}
					],
					"stateMutability": "view",
					"type": "function"
				},
				{
					"inputs": [
						{
							"internalType": "address",
							"name": "admin",
							"type": "address"
						},
						{
							"internalType": "bool",
							"name": "state",
							"type": "bool"
						}
					],
					"name": "modificationAdmin",
					"outputs": [],
					"stateMutability": "nonpayable",
					"type": "function"
				},
				{
					"inputs": [],
					"name": "owner",
					"outputs": [
						{
							"internalType": "address",
							"name": "",
							"type": "address"
						}
					],
					"stateMutability": "view",
					"type": "function"
				},
				{
					"inputs": [
						{
							"internalType": "address",
							"name": "account",
							"type": "address"
						}
					],
					"name": "powersOf",
					"outputs": [
						{
							"internalType": "uint256",
							"name": "",
							"type": "uint256"
						}
					],
					"stateMutability": "view",
					"type": "function"
				},
				{
					"inputs": [],
					"name": "rateInterval",
					"outputs": [
						{
							"internalType": "uint256",
							"name": "",
							"type": "uint256"
						}
					],
					"stateMutability": "view",
					"type": "function"
				},
				{
					"inputs": [],
					"name": "rateIntervalDenominator",
					"outputs": [
						{
							"internalType": "uint256",
							"name": "",
							"type": "uint256"
						}
					],
					"stateMutability": "view",
					"type": "function"
				},
				{
					"inputs": [],
					"name": "rateIntervalNumerator",
					"outputs": [
						{
							"internalType": "uint256",
							"name": "",
							"type": "uint256"
						}
					],
					"stateMutability": "view",
					"type": "function"
				},
				{
					"inputs": [],
					"name": "renounceOwnership",
					"outputs": [],
					"stateMutability": "nonpayable",
					"type": "function"
				},
				{
					"inputs": [
						{
							"internalType": "uint256",
							"name": "rewardRate",
							"type": "uint256"
						}
					],
					"name": "rewardPerToken",
					"outputs": [
						{
							"internalType": "uint256",
							"name": "",
							"type": "uint256"
						}
					],
					"stateMutability": "view",
					"type": "function"
				},
				{
					"inputs": [],
					"name": "rewardPerTokenStored",
					"outputs": [
						{
							"internalType": "uint256",
							"name": "",
							"type": "uint256"
						}
					],
					"stateMutability": "view",
					"type": "function"
				},
				{
					"inputs": [
						{
							"internalType": "address",
							"name": "",
							"type": "address"
						}
					],
					"name": "rewards",
					"outputs": [
						{
							"internalType": "uint256",
							"name": "",
							"type": "uint256"
						}
					],
					"stateMutability": "view",
					"type": "function"
				},
				{
					"inputs": [],
					"name": "rewardsToken",
					"outputs": [
						{
							"internalType": "contract IERC20",
							"name": "",
							"type": "address"
						}
					],
					"stateMutability": "view",
					"type": "function"
				},
				{
					"inputs": [
						{
							"internalType": "address",
							"name": "token",
							"type": "address"
						}
					],
					"name": "setRewardToken",
					"outputs": [],
					"stateMutability": "nonpayable",
					"type": "function"
				},
				{
					"inputs": [
						{
							"internalType": "uint256",
							"name": "time",
							"type": "uint256"
						}
					],
					"name": "setStartTime",
					"outputs": [],
					"stateMutability": "nonpayable",
					"type": "function"
				},
				{
					"inputs": [
						{
							"internalType": "address",
							"name": "user",
							"type": "address"
						},
						{
							"internalType": "uint256",
							"name": "amount",
							"type": "uint256"
						}
					],
					"name": "stake",
					"outputs": [],
					"stateMutability": "nonpayable",
					"type": "function"
				},
				{
					"inputs": [],
					"name": "startTime",
					"outputs": [
						{
							"internalType": "uint256",
							"name": "",
							"type": "uint256"
						}
					],
					"stateMutability": "view",
					"type": "function"
				},
				{
					"inputs": [],
					"name": "totalPowers",
					"outputs": [
						{
							"internalType": "uint256",
							"name": "",
							"type": "uint256"
						}
					],
					"stateMutability": "view",
					"type": "function"
				},
				{
					"inputs": [],
					"name": "totalRewards",
					"outputs": [
						{
							"internalType": "uint256",
							"name": "",
							"type": "uint256"
						}
					],
					"stateMutability": "view",
					"type": "function"
				},
				{
					"inputs": [
						{
							"internalType": "address",
							"name": "newOwner",
							"type": "address"
						}
					],
					"name": "transferOwnership",
					"outputs": [],
					"stateMutability": "nonpayable",
					"type": "function"
				},
				{
					"inputs": [
						{
							"internalType": "address",
							"name": "",
							"type": "address"
						}
					],
					"name": "userLastUpdateTime",
					"outputs": [
						{
							"internalType": "uint256",
							"name": "",
							"type": "uint256"
						}
					],
					"stateMutability": "view",
					"type": "function"
				},
				{
					"inputs": [
						{
							"internalType": "address",
							"name": "",
							"type": "address"
						}
					],
					"name": "userRewardPerTokenPaid",
					"outputs": [
						{
							"internalType": "uint256",
							"name": "",
							"type": "uint256"
						}
					],
					"stateMutability": "view",
					"type": "function"
				}
			],
			"devdoc": {
				"kind": "dev",
				"methods": {},
				"version": 1
			},
			"evm": {
				"assembly": "    /* \"inviter_presell/stake.sol\":371:6833  contract StakingRewards is Adminable , ReentrancyGuard{... */\n  mstore(0x40, 0x80)\n    /* \"inviter_presell/stake.sol\":581:595  400 * 10 ** 18 */\n  0x15af1d78b58c400000\n    /* \"inviter_presell/stake.sol\":551:595  uint256 public totalRewards = 400 * 10 ** 18 */\n  0x05\n  sstore\n    /* \"inviter_presell/stake.sol\":663:672  1 minutes */\n  0x3c\n    /* \"inviter_presell/stake.sol\":633:672  uint256 public rateInterval = 1 minutes */\n  0x07\n  sstore\n    /* \"inviter_presell/stake.sol\":718:719  5 */\n  0x05\n    /* \"inviter_presell/stake.sol\":679:719  uint256 public rateIntervalNumerator = 5 */\n  0x08\n  sstore\n    /* \"inviter_presell/stake.sol\":767:771  1000 */\n  0x03e8\n    /* \"inviter_presell/stake.sol\":726:771  uint256 public rateIntervalDenominator = 1000 */\n  0x09\n  sstore\n    /* \"inviter_presell/stake.sol\":371:6833  contract StakingRewards is Adminable , ReentrancyGuard{... */\n  callvalue\n  dup1\n  iszero\n  tag_1\n  jumpi\n  0x00\n  dup1\n  revert\ntag_1:\n  pop\n    /* \"inviter_presell/adminable.sol\":603:635  _transferOwnership(_msgSender()) */\n  tag_5\n    /* \"inviter_presell/adminable.sol\":143:153  msg.sender */\n  caller\n    /* \"inviter_presell/adminable.sol\":603:621  _transferOwnership */\n  tag_8\n    /* \"inviter_presell/adminable.sol\":603:635  _transferOwnership(_msgSender()) */\n  jump\t// in\ntag_5:\n    /* \"node_modules/@openzeppelin/contracts/security/ReentrancyGuard.sol\":1734:1735  1 */\n  0x01\n    /* \"node_modules/@openzeppelin/contracts/security/ReentrancyGuard.sol\":1845:1852  _status */\n  0x02\n    /* \"node_modules/@openzeppelin/contracts/security/ReentrancyGuard.sol\":1845:1867  _status = _NOT_ENTERED */\n  sstore\n    /* \"inviter_presell/stake.sol\":371:6833  contract StakingRewards is Adminable , ReentrancyGuard{... */\n  jump(tag_10)\n    /* \"inviter_presell/adminable.sol\":1443:1634  function _transferOwnership(address newOwner) internal virtual {... */\ntag_8:\n    /* \"inviter_presell/adminable.sol\":1536:1542  _owner */\n  0x01\n  dup1\n  sload\n  sub(shl(0xa0, 0x01), 0x01)\n    /* \"inviter_presell/adminable.sol\":1553:1570  _owner = newOwner */\n  dup4\n  dup2\n  and\n  not(sub(shl(0xa0, 0x01), 0x01))\n  dup4\n  and\n  dup2\n  or\n  swap1\n  swap4\n  sstore\n    /* \"inviter_presell/adminable.sol\":1586:1626  OwnershipTransferred(oldOwner, newOwner) */\n  mload(0x40)\n    /* \"inviter_presell/adminable.sol\":1536:1542  _owner */\n  swap2\n  and\n  swap2\n    /* \"inviter_presell/adminable.sol\":1553:1570  _owner = newOwner */\n  swap1\n    /* \"inviter_presell/adminable.sol\":1536:1542  _owner */\n  dup3\n  swap1\n    /* \"inviter_presell/adminable.sol\":1586:1626  OwnershipTransferred(oldOwner, newOwner) */\n  0x8be0079c531659141344cd1fd0a4f28419497f9722a3daafe3b4186f6b6457e0\n  swap1\n    /* \"inviter_presell/adminable.sol\":1517:1533  address oldOwner */\n  0x00\n  swap1\n    /* \"inviter_presell/adminable.sol\":1586:1626  OwnershipTransferred(oldOwner, newOwner) */\n  log3\n    /* \"inviter_presell/adminable.sol\":1506:1634  {... */\n  pop\n    /* \"inviter_presell/adminable.sol\":1443:1634  function _transferOwnership(address newOwner) internal virtual {... */\n  pop\n  jump\t// out\n    /* \"inviter_presell/stake.sol\":371:6833  contract StakingRewards is Adminable , ReentrancyGuard{... */\ntag_10:\n  dataSize(sub_0)\n  dup1\n  dataOffset(sub_0)\n  0x00\n  codecopy\n  0x00\n  return\nstop\n\nsub_0: assembly {\n        /* \"inviter_presell/stake.sol\":371:6833  contract StakingRewards is Adminable , ReentrancyGuard{... */\n      mstore(0x40, 0x80)\n      callvalue\n      dup1\n      iszero\n      tag_1\n      jumpi\n      0x00\n      dup1\n      revert\n    tag_1:\n      pop\n      jumpi(tag_2, lt(calldatasize, 0x04))\n      shr(0xe0, calldataload(0x00))\n      dup1\n      0x8107368b\n      gt\n      tag_36\n      jumpi\n      dup1\n      0xadc9772e\n      gt\n      tag_37\n      jumpi\n      dup1\n      0xd1af0c7d\n      gt\n      tag_38\n      jumpi\n      dup1\n      0xd1af0c7d\n      eq\n      tag_31\n      jumpi\n      dup1\n      0xda4f8431\n      eq\n      tag_32\n      jumpi\n      dup1\n      0xdb2e21bc\n      eq\n      tag_33\n      jumpi\n      dup1\n      0xdf136d65\n      eq\n      tag_34\n      jumpi\n      dup1\n      0xf2fde38b\n      eq\n      tag_35\n      jumpi\n      0x00\n      dup1\n      revert\n    tag_38:\n      dup1\n      0xadc9772e\n      eq\n      tag_27\n      jumpi\n      dup1\n      0xb79ec812\n      eq\n      tag_28\n      jumpi\n      dup1\n      0xc8f33c91\n      eq\n      tag_29\n      jumpi\n      dup1\n      0xcdda56e0\n      eq\n      tag_30\n      jumpi\n      0x00\n      dup1\n      revert\n    tag_37:\n      dup1\n      0x8da5cb5b\n      gt\n      tag_39\n      jumpi\n      dup1\n      0x8da5cb5b\n      eq\n      tag_23\n      jumpi\n      dup1\n      0x9499c549\n      eq\n      tag_24\n      jumpi\n      dup1\n      0x9a5b17b0\n      eq\n      tag_18\n      jumpi\n      dup1\n      0xa4c3b091\n      eq\n      tag_26\n      jumpi\n      0x00\n      dup1\n      revert\n    tag_39:\n      dup1\n      0x8107368b\n      eq\n      tag_19\n      jumpi\n      dup1\n      0x874c120b\n      eq\n      tag_20\n      jumpi\n      dup1\n      0x8aee8127\n      eq\n      tag_21\n      jumpi\n      dup1\n      0x8b876347\n      eq\n      tag_22\n      jumpi\n      0x00\n      dup1\n      revert\n    tag_36:\n      dup1\n      0x4dbdc4eb\n      gt\n      tag_40\n      jumpi\n      dup1\n      0x715018a6\n      gt\n      tag_41\n      jumpi\n      dup1\n      0x715018a6\n      eq\n      tag_15\n      jumpi\n      dup1\n      0x78e97925\n      eq\n      tag_16\n      jumpi\n      dup1\n      0x7a6fcee7\n      eq\n      tag_17\n      jumpi\n      dup1\n      0x80faa57d\n      eq\n      tag_18\n      jumpi\n      0x00\n      dup1\n      revert\n    tag_41:\n      dup1\n      0x4dbdc4eb\n      eq\n      tag_11\n      jumpi\n      dup1\n      0x5cfa91f4\n      eq\n      tag_12\n      jumpi\n      dup1\n      0x6139d4b4\n      eq\n      tag_13\n      jumpi\n      dup1\n      0x6917c501\n      eq\n      tag_14\n      jumpi\n      0x00\n      dup1\n      revert\n    tag_40:\n      dup1\n      0x24d7806c\n      gt\n      tag_42\n      jumpi\n      dup1\n      0x24d7806c\n      eq\n      tag_7\n      jumpi\n      dup1\n      0x3c4045cf\n      eq\n      tag_8\n      jumpi\n      dup1\n      0x3d18b912\n      eq\n      tag_9\n      jumpi\n      dup1\n      0x3e0a322d\n      eq\n      tag_10\n      jumpi\n      0x00\n      dup1\n      revert\n    tag_42:\n      dup1\n      0x8cc262\n      eq\n      tag_3\n      jumpi\n      dup1\n      0x0700037d\n      eq\n      tag_4\n      jumpi\n      dup1\n      0x0e15561a\n      eq\n      tag_5\n      jumpi\n      dup1\n      0x18e20ecf\n      eq\n      tag_6\n      jumpi\n    tag_2:\n      0x00\n      dup1\n      revert\n        /* \"inviter_presell/stake.sol\":3972:4268  function earned(address account) public view returns (uint256) {... */\n    tag_3:\n      tag_43\n      tag_44\n      calldatasize\n      0x04\n      tag_45\n      jump\t// in\n    tag_44:\n      tag_46\n      jump\t// in\n    tag_43:\n      mload(0x40)\n        /* \"#utility.yul\":529:554   */\n      swap1\n      dup2\n      mstore\n        /* \"#utility.yul\":517:519   */\n      0x20\n        /* \"#utility.yul\":502:520   */\n      add\n        /* \"inviter_presell/stake.sol\":3972:4268  function earned(address account) public view returns (uint256) {... */\n    tag_47:\n      mload(0x40)\n      dup1\n      swap2\n      sub\n      swap1\n      return\n        /* \"inviter_presell/stake.sol\":500:542  mapping(address => uint256) public rewards */\n    tag_4:\n      tag_43\n      tag_50\n      calldatasize\n      0x04\n      tag_45\n      jump\t// in\n    tag_50:\n      mstore(0x20, 0x04)\n      0x00\n      swap1\n      dup2\n      mstore\n      0x40\n      swap1\n      keccak256\n      sload\n      dup2\n      jump\n        /* \"inviter_presell/stake.sol\":551:595  uint256 public totalRewards = 400 * 10 ** 18 */\n    tag_5:\n      tag_43\n      sload(0x05)\n      dup2\n      jump\n        /* \"inviter_presell/adminable.sol\":1642:1826  function modificationAdmin(address admin, bool state) public virtual onlyOwner {... */\n    tag_6:\n      tag_56\n      tag_57\n      calldatasize\n      0x04\n      tag_58\n      jump\t// in\n    tag_57:\n      tag_59\n      jump\t// in\n    tag_56:\n      stop\n        /* \"inviter_presell/adminable.sol\":1004:1115  function isAdmin(address account) public view virtual returns (bool) {... */\n    tag_7:\n      tag_60\n      tag_61\n      calldatasize\n      0x04\n      tag_45\n      jump\t// in\n    tag_61:\n      sub(shl(0xa0, 0x01), 0x01)\n        /* \"inviter_presell/adminable.sol\":1091:1107  _admins[account] */\n      and\n        /* \"inviter_presell/adminable.sol\":1067:1071  bool */\n      0x00\n        /* \"inviter_presell/adminable.sol\":1091:1107  _admins[account] */\n      swap1\n      dup2\n      mstore\n      0x20\n      dup2\n      swap1\n      mstore\n      0x40\n      swap1\n      keccak256\n      sload\n      0xff\n      and\n      swap1\n        /* \"inviter_presell/adminable.sol\":1004:1115  function isAdmin(address account) public view virtual returns (bool) {... */\n      jump\n    tag_60:\n      mload(0x40)\n        /* \"#utility.yul\":1173:1187   */\n      swap1\n      iszero\n        /* \"#utility.yul\":1166:1188   */\n      iszero\n        /* \"#utility.yul\":1148:1189   */\n      dup2\n      mstore\n        /* \"#utility.yul\":1136:1138   */\n      0x20\n        /* \"#utility.yul\":1121:1139   */\n      add\n        /* \"inviter_presell/adminable.sol\":1004:1115  function isAdmin(address account) public view virtual returns (bool) {... */\n      tag_47\n        /* \"#utility.yul\":1008:1195   */\n      jump\n        /* \"inviter_presell/stake.sol\":679:719  uint256 public rateIntervalNumerator = 5 */\n    tag_8:\n      tag_43\n      sload(0x08)\n      dup2\n      jump\n        /* \"inviter_presell/stake.sol\":6016:6319  function getReward() public nonReentrant updateReward(msg.sender) {... */\n    tag_9:\n      tag_56\n      tag_69\n      jump\t// in\n        /* \"inviter_presell/stake.sol\":1678:1766  function setStartTime(uint256 time) public onlyAdmin {... */\n    tag_10:\n      tag_56\n      tag_71\n      calldatasize\n      0x04\n      tag_72\n      jump\t// in\n    tag_71:\n      tag_73\n      jump\t// in\n        /* \"inviter_presell/stake.sol\":2722:3138  function getRemainPool(uint256 time) public view returns (uint256) {... */\n    tag_11:\n      tag_43\n      tag_75\n      calldatasize\n      0x04\n      tag_72\n      jump\t// in\n    tag_75:\n      tag_76\n      jump\t// in\n        /* \"inviter_presell/stake.sol\":2218:2714  function getRewardPool(uint256 time) public view returns (uint256) {... */\n    tag_12:\n      tag_43\n      tag_79\n      calldatasize\n      0x04\n      tag_72\n      jump\t// in\n    tag_79:\n      tag_80\n      jump\t// in\n        /* \"inviter_presell/stake.sol\":633:672  uint256 public rateInterval = 1 minutes */\n    tag_13:\n      tag_43\n      sload(0x07)\n      dup2\n      jump\n        /* \"inviter_presell/stake.sol\":1774:1867  function totalPowers() external view returns (uint256) {... */\n    tag_14:\n        /* \"inviter_presell/stake.sol\":1847:1859  _totalPowers */\n      sload(0x0e)\n        /* \"inviter_presell/stake.sol\":1774:1867  function totalPowers() external view returns (uint256) {... */\n      jump(tag_43)\n        /* \"inviter_presell/adminable.sol\":1123:1226  function renounceOwnership() public virtual onlyOwner {... */\n    tag_15:\n      tag_56\n      tag_89\n      jump\t// in\n        /* \"inviter_presell/stake.sol\":602:626  uint256 public startTime */\n    tag_16:\n      tag_43\n      sload(0x06)\n      dup2\n      jump\n        /* \"inviter_presell/stake.sol\":726:771  uint256 public rateIntervalDenominator = 1000 */\n    tag_17:\n      tag_43\n      sload(0x09)\n      dup2\n      jump\n        /* \"inviter_presell/stake.sol\":3501:3608  function lastTimeRewardApplicable() public view returns (uint256) {... */\n    tag_18:\n        /* \"inviter_presell/stake.sol\":3585:3600  block.timestamp */\n      timestamp\n        /* \"inviter_presell/stake.sol\":3501:3608  function lastTimeRewardApplicable() public view returns (uint256) {... */\n      jump(tag_43)\n        /* \"inviter_presell/stake.sol\":922:975  mapping(address => uint256) public userLastUpdateTime */\n    tag_19:\n      tag_43\n      tag_100\n      calldatasize\n      0x04\n      tag_45\n      jump\t// in\n    tag_100:\n      mstore(0x20, 0x0d)\n      0x00\n      swap1\n      dup2\n      mstore\n      0x40\n      swap1\n      keccak256\n      sload\n      dup2\n      jump\n        /* \"inviter_presell/stake.sol\":3616:3964  function rewardPerToken(uint256 rewardRate) public view returns (uint256) {... */\n    tag_20:\n      tag_43\n      tag_104\n      calldatasize\n      0x04\n      tag_72\n      jump\t// in\n    tag_104:\n      tag_105\n      jump\t// in\n        /* \"inviter_presell/stake.sol\":6327:6430  function setRewardToken(address token) public onlyOwner {... */\n    tag_21:\n      tag_56\n      tag_108\n      calldatasize\n      0x04\n      tag_45\n      jump\t// in\n    tag_108:\n      tag_109\n      jump\t// in\n        /* \"inviter_presell/stake.sol\":858:915  mapping(address => uint256) public userRewardPerTokenPaid */\n    tag_22:\n      tag_43\n      tag_111\n      calldatasize\n      0x04\n      tag_45\n      jump\t// in\n    tag_111:\n      mstore(0x20, 0x0c)\n      0x00\n      swap1\n      dup2\n      mstore\n      0x40\n      swap1\n      keccak256\n      sload\n      dup2\n      jump\n        /* \"inviter_presell/adminable.sol\":909:996  function owner() public view virtual returns (address) {... */\n    tag_23:\n        /* \"inviter_presell/adminable.sol\":982:988  _owner */\n      and(sub(shl(0xa0, 0x01), 0x01), sload(0x01))\n        /* \"inviter_presell/adminable.sol\":909:996  function owner() public view virtual returns (address) {... */\n    tag_114:\n      mload(0x40)\n      sub(shl(0xa0, 0x01), 0x01)\n        /* \"#utility.yul\":1549:1581   */\n      swap1\n      swap2\n      and\n        /* \"#utility.yul\":1531:1582   */\n      dup2\n      mstore\n        /* \"#utility.yul\":1519:1521   */\n      0x20\n        /* \"#utility.yul\":1504:1522   */\n      add\n        /* \"inviter_presell/adminable.sol\":909:996  function owner() public view virtual returns (address) {... */\n      tag_47\n        /* \"#utility.yul\":1385:1588   */\n      jump\n        /* \"inviter_presell/stake.sol\":2096:2210  function getCurRewardPool() public view returns (uint256) {... */\n    tag_24:\n      tag_43\n      tag_119\n      jump\t// in\n        /* \"inviter_presell/stake.sol\":6687:6830  function emergencyWithdrawToken(address token, uint256 amount) external onlyOwner {... */\n    tag_26:\n      tag_56\n      tag_125\n      calldatasize\n      0x04\n      tag_126\n      jump\t// in\n    tag_125:\n      tag_127\n      jump\t// in\n        /* \"inviter_presell/stake.sol\":5704:6004  function stake(address user, uint256 amount) external nonReentrant onlyAdmin updateReward(msg.sender) {... */\n    tag_27:\n      tag_56\n      tag_129\n      calldatasize\n      0x04\n      tag_126\n      jump\t// in\n    tag_129:\n      tag_130\n      jump\t// in\n        /* \"inviter_presell/stake.sol\":1977:2088  function powersOf(address account) external view returns (uint256) {... */\n    tag_28:\n      tag_43\n      tag_132\n      calldatasize\n      0x04\n      tag_45\n      jump\t// in\n    tag_132:\n      sub(shl(0xa0, 0x01), 0x01)\n        /* \"inviter_presell/stake.sol\":2062:2080  _balances[account] */\n      and\n        /* \"inviter_presell/stake.sol\":2035:2042  uint256 */\n      0x00\n        /* \"inviter_presell/stake.sol\":2062:2080  _balances[account] */\n      swap1\n      dup2\n      mstore\n        /* \"inviter_presell/stake.sol\":2062:2071  _balances */\n      0x0f\n        /* \"inviter_presell/stake.sol\":2062:2080  _balances[account] */\n      0x20\n      mstore\n      0x40\n      swap1\n      keccak256\n      sload\n      swap1\n        /* \"inviter_presell/stake.sol\":1977:2088  function powersOf(address account) external view returns (uint256) {... */\n      jump\n        /* \"inviter_presell/stake.sol\":778:807  uint256 public lastUpdateTime */\n    tag_29:\n      tag_43\n      sload(0x0a)\n      dup2\n      jump\n        /* \"inviter_presell/stake.sol\":3146:3261  function getCurRewardRate() public view returns (uint256) {... */\n    tag_30:\n      tag_43\n      tag_139\n      jump\t// in\n        /* \"inviter_presell/stake.sol\":467:493  IERC20 public rewardsToken */\n    tag_31:\n      sload(0x03)\n      tag_114\n      swap1\n      sub(shl(0xa0, 0x01), 0x01)\n      and\n      dup2\n      jump\n        /* \"inviter_presell/stake.sol\":4311:5694  function getTimeWeightedAveRate(uint256 leftTime, uint256 rightTime) public view returns (uint256){... */\n    tag_32:\n      tag_43\n      tag_146\n      calldatasize\n      0x04\n      tag_147\n      jump\t// in\n    tag_146:\n      tag_148\n      jump\t// in\n        /* \"inviter_presell/stake.sol\":6564:6679  function emergencyWithdraw() external onlyOwner {... */\n    tag_33:\n      tag_56\n      tag_151\n      jump\t// in\n        /* \"inviter_presell/stake.sol\":814:849  uint256 public rewardPerTokenStored */\n    tag_34:\n      tag_43\n      sload(0x0b)\n      dup2\n      jump\n        /* \"inviter_presell/adminable.sol\":1234:1435  function transferOwnership(address newOwner) public virtual onlyOwner {... */\n    tag_35:\n      tag_56\n      tag_156\n      calldatasize\n      0x04\n      tag_45\n      jump\t// in\n    tag_156:\n      tag_157\n      jump\t// in\n        /* \"inviter_presell/stake.sol\":3972:4268  function earned(address account) public view returns (uint256) {... */\n    tag_46:\n      sub(shl(0xa0, 0x01), 0x01)\n        /* \"inviter_presell/stake.sol\":4084:4111  userLastUpdateTime[account] */\n      dup2\n      and\n        /* \"inviter_presell/stake.sol\":4026:4033  uint256 */\n      0x00\n        /* \"inviter_presell/stake.sol\":4084:4111  userLastUpdateTime[account] */\n      swap1\n      dup2\n      mstore\n        /* \"inviter_presell/stake.sol\":4084:4102  userLastUpdateTime */\n      0x0d\n        /* \"inviter_presell/stake.sol\":4084:4111  userLastUpdateTime[account] */\n      0x20\n      mstore\n      0x40\n      dup2\n      keccak256\n      sload\n        /* \"inviter_presell/stake.sol\":4026:4033  uint256 */\n      dup2\n      swap1\n        /* \"inviter_presell/stake.sol\":4061:4129  getTimeWeightedAveRate(userLastUpdateTime[account], block.timestamp) */\n      tag_159\n      swap1\n        /* \"inviter_presell/stake.sol\":4113:4128  block.timestamp */\n      timestamp\n        /* \"inviter_presell/stake.sol\":4061:4083  getTimeWeightedAveRate */\n      tag_148\n        /* \"inviter_presell/stake.sol\":4061:4129  getTimeWeightedAveRate(userLastUpdateTime[account], block.timestamp) */\n      jump\t// in\n    tag_159:\n      sub(shl(0xa0, 0x01), 0x01)\n        /* \"inviter_presell/stake.sol\":4243:4259  rewards[account] */\n      dup5\n      and\n      0x00\n      swap1\n      dup2\n      mstore\n        /* \"inviter_presell/stake.sol\":4243:4250  rewards */\n      0x04\n        /* \"inviter_presell/stake.sol\":4243:4259  rewards[account] */\n      0x20\n      swap1\n      dup2\n      mstore\n      0x40\n      dup1\n      dup4\n      keccak256\n      sload\n        /* \"inviter_presell/stake.sol\":4195:4217  userRewardPerTokenPaid */\n      0x0c\n        /* \"inviter_presell/stake.sol\":4195:4226  userRewardPerTokenPaid[account] */\n      swap1\n      swap3\n      mstore\n      swap1\n      swap2\n      keccak256\n      sload\n        /* \"inviter_presell/stake.sol\":4046:4129  uint256 rate = getTimeWeightedAveRate(userLastUpdateTime[account], block.timestamp) */\n      swap2\n      swap3\n      pop\n        /* \"inviter_presell/stake.sol\":4147:4260  _balances[account].mul(rewardPerToken(rate).sub(userRewardPerTokenPaid[account])).div(1e18).add(rewards[account]) */\n      tag_160\n      swap2\n        /* \"inviter_presell/stake.sol\":4147:4238  _balances[account].mul(rewardPerToken(rate).sub(userRewardPerTokenPaid[account])).div(1e18) */\n      tag_161\n      swap1\n        /* \"inviter_presell/stake.sol\":4233:4237  1e18 */\n      0x0de0b6b3a7640000\n      swap1\n        /* \"inviter_presell/stake.sol\":4147:4228  _balances[account].mul(rewardPerToken(rate).sub(userRewardPerTokenPaid[account])) */\n      tag_162\n      swap1\n        /* \"inviter_presell/stake.sol\":4170:4227  rewardPerToken(rate).sub(userRewardPerTokenPaid[account]) */\n      tag_163\n      swap1\n        /* \"inviter_presell/stake.sol\":4170:4190  rewardPerToken(rate) */\n      tag_164\n        /* \"inviter_presell/stake.sol\":4046:4129  uint256 rate = getTimeWeightedAveRate(userLastUpdateTime[account], block.timestamp) */\n      dup9\n        /* \"inviter_presell/stake.sol\":4170:4184  rewardPerToken */\n      tag_105\n        /* \"inviter_presell/stake.sol\":4170:4190  rewardPerToken(rate) */\n      jump\t// in\n    tag_164:\n        /* \"inviter_presell/stake.sol\":4170:4194  rewardPerToken(rate).sub */\n      swap1\n      tag_165\n        /* \"inviter_presell/stake.sol\":4170:4227  rewardPerToken(rate).sub(userRewardPerTokenPaid[account]) */\n      jump\t// in\n    tag_163:\n      sub(shl(0xa0, 0x01), 0x01)\n        /* \"inviter_presell/stake.sol\":4147:4165  _balances[account] */\n      dup10\n      and\n      0x00\n      swap1\n      dup2\n      mstore\n        /* \"inviter_presell/stake.sol\":4147:4156  _balances */\n      0x0f\n        /* \"inviter_presell/stake.sol\":4147:4165  _balances[account] */\n      0x20\n      mstore\n      0x40\n      swap1\n      keccak256\n      sload\n      swap1\n        /* \"inviter_presell/stake.sol\":4147:4169  _balances[account].mul */\n      tag_166\n        /* \"inviter_presell/stake.sol\":4147:4228  _balances[account].mul(rewardPerToken(rate).sub(userRewardPerTokenPaid[account])) */\n      jump\t// in\n    tag_162:\n        /* \"inviter_presell/stake.sol\":4147:4232  _balances[account].mul(rewardPerToken(rate).sub(userRewardPerTokenPaid[account])).div */\n      swap1\n      tag_167\n        /* \"inviter_presell/stake.sol\":4147:4238  _balances[account].mul(rewardPerToken(rate).sub(userRewardPerTokenPaid[account])).div(1e18) */\n      jump\t// in\n    tag_161:\n        /* \"inviter_presell/stake.sol\":4147:4242  _balances[account].mul(rewardPerToken(rate).sub(userRewardPerTokenPaid[account])).div(1e18).add */\n      swap1\n      tag_168\n        /* \"inviter_presell/stake.sol\":4147:4260  _balances[account].mul(rewardPerToken(rate).sub(userRewardPerTokenPaid[account])).div(1e18).add(rewards[account]) */\n      jump\t// in\n    tag_160:\n        /* \"inviter_presell/stake.sol\":4140:4260  return _balances[account].mul(rewardPerToken(rate).sub(userRewardPerTokenPaid[account])).div(1e18).add(rewards[account]) */\n      swap4\n        /* \"inviter_presell/stake.sol\":3972:4268  function earned(address account) public view returns (uint256) {... */\n      swap3\n      pop\n      pop\n      pop\n      jump\t// out\n        /* \"inviter_presell/adminable.sol\":1642:1826  function modificationAdmin(address admin, bool state) public virtual onlyOwner {... */\n    tag_59:\n        /* \"inviter_presell/adminable.sol\":982:988  _owner */\n      and(sub(shl(0xa0, 0x01), 0x01), sload(0x01))\n        /* \"inviter_presell/adminable.sol\":143:153  msg.sender */\n      caller\n        /* \"inviter_presell/adminable.sol\":691:714  owner() == _msgSender() */\n      eq\n        /* \"inviter_presell/adminable.sol\":683:753  require(owner() == _msgSender(), \"Adminable: caller is not the owner\") */\n      tag_173\n      jumpi\n      mload(0x40)\n      shl(0xe5, 0x461bcd)\n      dup2\n      mstore\n      0x04\n      add\n      tag_174\n      swap1\n      tag_175\n      jump\t// in\n    tag_174:\n      mload(0x40)\n      dup1\n      swap2\n      sub\n      swap1\n      revert\n    tag_173:\n      sub(shl(0xa0, 0x01), 0x01)\n        /* \"inviter_presell/adminable.sol\":1737:1785  ModificationAdmin(admin,  _admins[admin], state) */\n      dup3\n      and\n        /* \"inviter_presell/adminable.sol\":1763:1770  _admins */\n      0x00\n        /* \"inviter_presell/adminable.sol\":1763:1777  _admins[admin] */\n      dup2\n      dup2\n      mstore\n      0x20\n      dup2\n      dup2\n      mstore\n      0x40\n      swap2\n      dup3\n      swap1\n      keccak256\n      sload\n        /* \"inviter_presell/adminable.sol\":1737:1785  ModificationAdmin(admin,  _admins[admin], state) */\n      dup3\n      mload\n        /* \"inviter_presell/adminable.sol\":1763:1777  _admins[admin] */\n      0xff\n      swap1\n      swap2\n      and\n        /* \"#utility.yul\":2918:2932   */\n      iszero\n        /* \"#utility.yul\":2911:2933   */\n      iszero\n        /* \"#utility.yul\":2893:2934   */\n      dup2\n      mstore\n        /* \"#utility.yul\":2977:2991   */\n      dup5\n      iszero\n        /* \"#utility.yul\":2970:2992   */\n      iszero\n        /* \"#utility.yul\":2950:2968   */\n      swap2\n      dup2\n      add\n        /* \"#utility.yul\":2943:2993   */\n      swap2\n      swap1\n      swap2\n      mstore\n        /* \"inviter_presell/adminable.sol\":1737:1785  ModificationAdmin(admin,  _admins[admin], state) */\n      0x82f1fa40a3d82dea3e406073819290601f436580aa7c69f9feb61f885bdd8854\n      swap2\n        /* \"#utility.yul\":2866:2884   */\n      add\n        /* \"inviter_presell/adminable.sol\":1737:1785  ModificationAdmin(admin,  _admins[admin], state) */\n      mload(0x40)\n      dup1\n      swap2\n      sub\n      swap1\n      log2\n      sub(shl(0xa0, 0x01), 0x01)\n        /* \"inviter_presell/adminable.sol\":1796:1810  _admins[admin] */\n      swap2\n      swap1\n      swap2\n      and\n        /* \"inviter_presell/adminable.sol\":1796:1803  _admins */\n      0x00\n        /* \"inviter_presell/adminable.sol\":1796:1810  _admins[admin] */\n      swap1\n      dup2\n      mstore\n      0x20\n      dup2\n      swap1\n      mstore\n      0x40\n      swap1\n      keccak256\n        /* \"inviter_presell/adminable.sol\":1796:1818  _admins[admin] = state */\n      dup1\n      sload\n      not(0xff)\n      and\n      swap2\n      iszero\n      iszero\n      swap2\n      swap1\n      swap2\n      or\n      swap1\n      sstore\n        /* \"inviter_presell/adminable.sol\":1642:1826  function modificationAdmin(address admin, bool state) public virtual onlyOwner {... */\n      jump\t// out\n        /* \"inviter_presell/stake.sol\":6016:6319  function getReward() public nonReentrant updateReward(msg.sender) {... */\n    tag_69:\n        /* \"node_modules/@openzeppelin/contracts/security/ReentrancyGuard.sol\":1778:1779  2 */\n      0x02\n        /* \"node_modules/@openzeppelin/contracts/security/ReentrancyGuard.sol\":2376:2383  _status */\n      dup1\n      sload\n        /* \"node_modules/@openzeppelin/contracts/security/ReentrancyGuard.sol\":2376:2395  _status != _ENTERED */\n      sub\n        /* \"node_modules/@openzeppelin/contracts/security/ReentrancyGuard.sol\":2368:2431  require(_status != _ENTERED, \"ReentrancyGuard: reentrant call\") */\n      tag_181\n      jumpi\n      mload(0x40)\n      shl(0xe5, 0x461bcd)\n      dup2\n      mstore\n        /* \"#utility.yul\":3206:3208   */\n      0x20\n        /* \"node_modules/@openzeppelin/contracts/security/ReentrancyGuard.sol\":2368:2431  require(_status != _ENTERED, \"ReentrancyGuard: reentrant call\") */\n      0x04\n      dup3\n      add\n        /* \"#utility.yul\":3188:3209   */\n      mstore\n        /* \"#utility.yul\":3245:3247   */\n      0x1f\n        /* \"#utility.yul\":3225:3243   */\n      0x24\n      dup3\n      add\n        /* \"#utility.yul\":3218:3248   */\n      mstore\n        /* \"#utility.yul\":3284:3317   */\n      0x5265656e7472616e637947756172643a207265656e7472616e742063616c6c00\n        /* \"#utility.yul\":3264:3282   */\n      0x44\n      dup3\n      add\n        /* \"#utility.yul\":3257:3318   */\n      mstore\n        /* \"#utility.yul\":3335:3353   */\n      0x64\n      add\n        /* \"node_modules/@openzeppelin/contracts/security/ReentrancyGuard.sol\":2368:2431  require(_status != _ENTERED, \"ReentrancyGuard: reentrant call\") */\n      tag_174\n        /* \"#utility.yul\":3004:3359   */\n      jump\n        /* \"node_modules/@openzeppelin/contracts/security/ReentrancyGuard.sol\":2368:2431  require(_status != _ENTERED, \"ReentrancyGuard: reentrant call\") */\n    tag_181:\n        /* \"node_modules/@openzeppelin/contracts/security/ReentrancyGuard.sol\":1778:1779  2 */\n      0x02\n        /* \"node_modules/@openzeppelin/contracts/security/ReentrancyGuard.sol\":2509:2527  _status = _ENTERED */\n      dup1\n      sstore\n        /* \"inviter_presell/stake.sol\":6070:6080  msg.sender */\n      caller\n        /* \"inviter_presell/stake.sol\":1127:1139  uint256 time */\n      0x00\n        /* \"inviter_presell/stake.sol\":1142:1169  userLastUpdateTime[account] */\n      dup2\n      dup2\n      mstore\n        /* \"inviter_presell/stake.sol\":1142:1160  userLastUpdateTime */\n      0x0d\n        /* \"inviter_presell/stake.sol\":1142:1169  userLastUpdateTime[account] */\n      0x20\n      mstore\n      0x40\n      swap1\n      keccak256\n      sload\n        /* \"inviter_presell/stake.sol\":1191:1200  startTime */\n      sload(0x06)\n        /* \"inviter_presell/stake.sol\":1183:1200  time <= startTime */\n      dup2\n      gt\n        /* \"inviter_presell/stake.sol\":1180:1245  if(time <= startTime) {... */\n      tag_185\n      jumpi\n      pop\n        /* \"inviter_presell/stake.sol\":1224:1233  startTime */\n      sload(0x06)\n        /* \"inviter_presell/stake.sol\":1180:1245  if(time <= startTime) {... */\n    tag_185:\n        /* \"inviter_presell/stake.sol\":1255:1267  uint256 rate */\n      0x00\n        /* \"inviter_presell/stake.sol\":1270:1315  getTimeWeightedAveRate(time, block.timestamp) */\n      tag_186\n        /* \"inviter_presell/stake.sol\":1293:1297  time */\n      dup3\n        /* \"inviter_presell/stake.sol\":1299:1314  block.timestamp */\n      timestamp\n        /* \"inviter_presell/stake.sol\":1270:1292  getTimeWeightedAveRate */\n      tag_148\n        /* \"inviter_presell/stake.sol\":1270:1315  getTimeWeightedAveRate(time, block.timestamp) */\n      jump\t// in\n    tag_186:\n        /* \"inviter_presell/stake.sol\":1255:1315  uint256 rate = getTimeWeightedAveRate(time, block.timestamp) */\n      swap1\n      pop\n        /* \"inviter_presell/stake.sol\":1349:1369  rewardPerToken(rate) */\n      tag_187\n        /* \"inviter_presell/stake.sol\":1364:1368  rate */\n      dup2\n        /* \"inviter_presell/stake.sol\":1349:1363  rewardPerToken */\n      tag_105\n        /* \"inviter_presell/stake.sol\":1349:1369  rewardPerToken(rate) */\n      jump\t// in\n    tag_187:\n        /* \"inviter_presell/stake.sol\":1326:1346  rewardPerTokenStored */\n      0x0b\n        /* \"inviter_presell/stake.sol\":1326:1369  rewardPerTokenStored = rewardPerToken(rate) */\n      sstore\n        /* \"inviter_presell/stake.sol\":3585:3600  block.timestamp */\n      timestamp\n        /* \"inviter_presell/stake.sol\":1380:1394  lastUpdateTime */\n      0x0a\n        /* \"inviter_presell/stake.sol\":1380:1423  lastUpdateTime = lastTimeRewardApplicable() */\n      sstore\n      sub(shl(0xa0, 0x01), 0x01)\n        /* \"inviter_presell/stake.sol\":1438:1459  account != address(0) */\n      dup4\n      and\n      iszero\n        /* \"inviter_presell/stake.sol\":1434:1651  if (account != address(0)) {... */\n      tag_189\n      jumpi\n        /* \"inviter_presell/stake.sol\":1495:1510  earned(account) */\n      tag_190\n        /* \"inviter_presell/stake.sol\":1502:1509  account */\n      dup4\n        /* \"inviter_presell/stake.sol\":1495:1501  earned */\n      tag_46\n        /* \"inviter_presell/stake.sol\":1495:1510  earned(account) */\n      jump\t// in\n    tag_190:\n      sub(shl(0xa0, 0x01), 0x01)\n        /* \"inviter_presell/stake.sol\":1476:1492  rewards[account] */\n      dup5\n      and\n      0x00\n      swap1\n      dup2\n      mstore\n        /* \"inviter_presell/stake.sol\":1476:1483  rewards */\n      0x04\n        /* \"inviter_presell/stake.sol\":1476:1492  rewards[account] */\n      0x20\n      swap1\n      dup2\n      mstore\n      0x40\n      dup1\n      dup4\n      keccak256\n        /* \"inviter_presell/stake.sol\":1476:1510  rewards[account] = earned(account) */\n      swap4\n      swap1\n      swap4\n      sstore\n        /* \"inviter_presell/stake.sol\":1559:1579  rewardPerTokenStored */\n      sload(0x0b)\n        /* \"inviter_presell/stake.sol\":1525:1547  userRewardPerTokenPaid */\n      0x0c\n        /* \"inviter_presell/stake.sol\":1525:1556  userRewardPerTokenPaid[account] */\n      dup3\n      mstore\n      dup4\n      dup4\n      keccak256\n        /* \"inviter_presell/stake.sol\":1525:1579  userRewardPerTokenPaid[account] = rewardPerTokenStored */\n      sstore\n        /* \"inviter_presell/stake.sol\":1594:1612  userLastUpdateTime */\n      0x0d\n        /* \"inviter_presell/stake.sol\":1594:1621  userLastUpdateTime[account] */\n      swap1\n      mstore\n      keccak256\n        /* \"inviter_presell/stake.sol\":1624:1639  block.timestamp */\n      timestamp\n        /* \"inviter_presell/stake.sol\":1594:1639  userLastUpdateTime[account] = block.timestamp */\n      swap1\n      sstore\n        /* \"inviter_presell/stake.sol\":1434:1651  if (account != address(0)) {... */\n    tag_189:\n        /* \"inviter_presell/stake.sol\":6118:6128  msg.sender */\n      caller\n        /* \"inviter_presell/stake.sol\":6093:6107  uint256 reward */\n      0x00\n        /* \"inviter_presell/stake.sol\":6110:6129  rewards[msg.sender] */\n      swap1\n      dup2\n      mstore\n        /* \"inviter_presell/stake.sol\":6110:6117  rewards */\n      0x04\n        /* \"inviter_presell/stake.sol\":6110:6129  rewards[msg.sender] */\n      0x20\n      mstore\n      0x40\n      swap1\n      keccak256\n      sload\n        /* \"inviter_presell/stake.sol\":6144:6154  reward > 0 */\n      dup1\n      iszero\n        /* \"inviter_presell/stake.sol\":6140:6312  if (reward > 0) {... */\n      tag_192\n      jumpi\n        /* \"inviter_presell/stake.sol\":6179:6189  msg.sender */\n      caller\n        /* \"inviter_presell/stake.sol\":6193:6194  0 */\n      0x00\n        /* \"inviter_presell/stake.sol\":6171:6190  rewards[msg.sender] */\n      dup2\n      dup2\n      mstore\n        /* \"inviter_presell/stake.sol\":6171:6178  rewards */\n      0x04\n        /* \"inviter_presell/stake.sol\":6171:6190  rewards[msg.sender] */\n      0x20\n      dup2\n      swap1\n      mstore\n      0x40\n      dup1\n      dup4\n      keccak256\n        /* \"inviter_presell/stake.sol\":6171:6194  rewards[msg.sender] = 0 */\n      swap3\n      swap1\n      swap3\n      sstore\n        /* \"inviter_presell/stake.sol\":6209:6221  rewardsToken */\n      sload(0x03)\n        /* \"inviter_presell/stake.sol\":6209:6250  rewardsToken.transfer(msg.sender, reward) */\n      swap2\n      mload\n      shl(0xe0, 0xa9059cbb)\n      dup2\n      mstore\n      swap1\n      dup2\n      add\n        /* \"#utility.yul\":3538:3589   */\n      swap3\n      swap1\n      swap3\n      mstore\n        /* \"#utility.yul\":3605:3623   */\n      0x24\n      dup3\n      add\n        /* \"#utility.yul\":3598:3632   */\n      dup4\n      swap1\n      mstore\n      sub(shl(0xa0, 0x01), 0x01)\n        /* \"inviter_presell/stake.sol\":6209:6221  rewardsToken */\n      and\n      swap1\n        /* \"inviter_presell/stake.sol\":6209:6230  rewardsToken.transfer */\n      0xa9059cbb\n      swap1\n        /* \"#utility.yul\":3511:3529   */\n      0x44\n      add\n        /* \"inviter_presell/stake.sol\":6209:6250  rewardsToken.transfer(msg.sender, reward) */\n      0x20\n      mload(0x40)\n      dup1\n      dup4\n      sub\n      dup2\n      0x00\n      dup8\n      gas\n      call\n      iszero\n      dup1\n      iszero\n      tag_196\n      jumpi\n      returndatasize\n      0x00\n      dup1\n      returndatacopy\n      revert(0x00, returndatasize)\n    tag_196:\n      pop\n      pop\n      pop\n      pop\n      mload(0x40)\n      returndatasize\n      not(0x1f)\n      0x1f\n      dup3\n      add\n      and\n      dup3\n      add\n      dup1\n      0x40\n      mstore\n      pop\n      dup2\n      add\n      swap1\n      tag_197\n      swap2\n      swap1\n      tag_198\n      jump\t// in\n    tag_197:\n      pop\n        /* \"inviter_presell/stake.sol\":6270:6300  RewardPaid(msg.sender, reward) */\n      mload(0x40)\n        /* \"#utility.yul\":529:554   */\n      dup2\n      dup2\n      mstore\n        /* \"inviter_presell/stake.sol\":6281:6291  msg.sender */\n      caller\n      swap1\n        /* \"inviter_presell/stake.sol\":6270:6300  RewardPaid(msg.sender, reward) */\n      0xe2403640ba68fed3a2f88b7557551d1993f84b99bb10ff833f0cf8db0c5e0486\n      swap1\n        /* \"#utility.yul\":517:519   */\n      0x20\n        /* \"#utility.yul\":502:520   */\n      add\n        /* \"inviter_presell/stake.sol\":6270:6300  RewardPaid(msg.sender, reward) */\n      mload(0x40)\n      dup1\n      swap2\n      sub\n      swap1\n      log2\n        /* \"inviter_presell/stake.sol\":6140:6312  if (reward > 0) {... */\n    tag_192:\n      pop\n      pop\n        /* \"node_modules/@openzeppelin/contracts/security/ReentrancyGuard.sol\":1734:1735  1 */\n      0x01\n        /* \"node_modules/@openzeppelin/contracts/security/ReentrancyGuard.sol\":2688:2695  _status */\n      0x02\n        /* \"node_modules/@openzeppelin/contracts/security/ReentrancyGuard.sol\":2688:2710  _status = _NOT_ENTERED */\n      sstore\n      pop\n      pop\n        /* \"inviter_presell/stake.sol\":6016:6319  function getReward() public nonReentrant updateReward(msg.sender) {... */\n      jump\t// out\n        /* \"inviter_presell/stake.sol\":1678:1766  function setStartTime(uint256 time) public onlyAdmin {... */\n    tag_73:\n        /* \"inviter_presell/adminable.sol\":821:842  isAdmin(_msgSender()) */\n      tag_201\n        /* \"inviter_presell/adminable.sol\":143:153  msg.sender */\n      caller\n        /* \"inviter_presell/adminable.sol\":829:841  _msgSender() */\n      tag_61\n        /* \"inviter_presell/adminable.sol\":63:161  function _msgSender() internal view virtual returns (address) {... */\n      jump\n        /* \"inviter_presell/adminable.sol\":821:842  isAdmin(_msgSender()) */\n    tag_201:\n        /* \"inviter_presell/adminable.sol\":813:881  require(isAdmin(_msgSender()), \"Adminable: caller is not the admin\") */\n      tag_203\n      jumpi\n      mload(0x40)\n      shl(0xe5, 0x461bcd)\n      dup2\n      mstore\n      0x04\n      add\n      tag_174\n      swap1\n      tag_205\n      jump\t// in\n    tag_203:\n        /* \"inviter_presell/stake.sol\":1742:1751  startTime */\n      0x06\n        /* \"inviter_presell/stake.sol\":1742:1758  startTime = time */\n      sstore\n        /* \"inviter_presell/stake.sol\":1678:1766  function setStartTime(uint256 time) public onlyAdmin {... */\n      jump\t// out\n        /* \"inviter_presell/stake.sol\":2722:3138  function getRemainPool(uint256 time) public view returns (uint256) {... */\n    tag_76:\n        /* \"inviter_presell/stake.sol\":2780:2787  uint256 */\n      0x00\n        /* \"inviter_presell/stake.sol\":2803:2812  startTime */\n      sload(0x06)\n        /* \"inviter_presell/stake.sol\":2816:2817  0 */\n      0x00\n        /* \"inviter_presell/stake.sol\":2803:2817  startTime == 0 */\n      sub\n        /* \"inviter_presell/stake.sol\":2800:2862  if(startTime == 0) {... */\n      tag_208\n      jumpi\n      pop\n      pop\n        /* \"inviter_presell/stake.sol\":2841:2850  startTime */\n      sload(0x06)\n      swap1\n        /* \"inviter_presell/stake.sol\":2722:3138  function getRemainPool(uint256 time) public view returns (uint256) {... */\n      jump\t// out\n        /* \"inviter_presell/stake.sol\":2800:2862  if(startTime == 0) {... */\n    tag_208:\n        /* \"inviter_presell/stake.sol\":2872:2885  uint256 times */\n      0x00\n        /* \"inviter_presell/stake.sol\":2909:2921  rateInterval */\n      sload(0x07)\n        /* \"inviter_presell/stake.sol\":2896:2905  startTime */\n      sload(0x06)\n        /* \"inviter_presell/stake.sol\":2889:2893  time */\n      dup5\n        /* \"inviter_presell/stake.sol\":2889:2905  time - startTime */\n      tag_209\n      swap2\n      swap1\n      tag_210\n      jump\t// in\n    tag_209:\n        /* \"inviter_presell/stake.sol\":2888:2921  (time - startTime) / rateInterval */\n      tag_211\n      swap2\n      swap1\n      tag_212\n      jump\t// in\n    tag_211:\n        /* \"inviter_presell/stake.sol\":2888:2925  (time - startTime) / rateInterval + 1 */\n      tag_213\n      swap1\n        /* \"inviter_presell/stake.sol\":2924:2925  1 */\n      0x01\n        /* \"inviter_presell/stake.sol\":2888:2925  (time - startTime) / rateInterval + 1 */\n      tag_214\n      jump\t// in\n    tag_213:\n        /* \"inviter_presell/stake.sol\":2952:2964  totalRewards */\n      sload(0x05)\n        /* \"inviter_presell/stake.sol\":2872:2925  uint256 times = (time - startTime) / rateInterval + 1 */\n      swap1\n      swap2\n      pop\n        /* \"inviter_presell/stake.sol\":2936:2949  uint256 value */\n      0x00\n        /* \"inviter_presell/stake.sol\":2975:3108  for(uint256 i = 0; i < times; ++i) {... */\n    tag_215:\n        /* \"inviter_presell/stake.sol\":2998:3003  times */\n      dup3\n        /* \"inviter_presell/stake.sol\":2994:2995  i */\n      dup2\n        /* \"inviter_presell/stake.sol\":2994:3003  i < times */\n      lt\n        /* \"inviter_presell/stake.sol\":2975:3108  for(uint256 i = 0; i < times; ++i) {... */\n      iszero\n      tag_216\n      jumpi\n        /* \"inviter_presell/stake.sol\":3073:3096  rateIntervalDenominator */\n      sload(0x09)\n        /* \"inviter_presell/stake.sol\":3049:3070  rateIntervalNumerator */\n      sload(0x08)\n        /* \"inviter_presell/stake.sol\":3041:3070  value * rateIntervalNumerator */\n      tag_218\n      swap1\n        /* \"inviter_presell/stake.sol\":3041:3046  value */\n      dup5\n        /* \"inviter_presell/stake.sol\":3041:3070  value * rateIntervalNumerator */\n      tag_219\n      jump\t// in\n    tag_218:\n        /* \"inviter_presell/stake.sol\":3041:3096  value * rateIntervalNumerator / rateIntervalDenominator */\n      tag_220\n      swap2\n      swap1\n      tag_212\n      jump\t// in\n    tag_220:\n        /* \"inviter_presell/stake.sol\":3033:3096  value - value * rateIntervalNumerator / rateIntervalDenominator */\n      tag_221\n      swap1\n        /* \"inviter_presell/stake.sol\":3033:3038  value */\n      dup4\n        /* \"inviter_presell/stake.sol\":3033:3096  value - value * rateIntervalNumerator / rateIntervalDenominator */\n      tag_210\n      jump\t// in\n    tag_221:\n        /* \"inviter_presell/stake.sol\":3025:3096  value = value - value * rateIntervalNumerator / rateIntervalDenominator */\n      swap2\n      pop\n        /* \"inviter_presell/stake.sol\":3005:3008  ++i */\n      tag_222\n      dup2\n      tag_223\n      jump\t// in\n    tag_222:\n      swap1\n      pop\n        /* \"inviter_presell/stake.sol\":2975:3108  for(uint256 i = 0; i < times; ++i) {... */\n      jump(tag_215)\n    tag_216:\n      pop\n        /* \"inviter_presell/stake.sol\":3125:3130  value */\n      swap4\n        /* \"inviter_presell/stake.sol\":2722:3138  function getRemainPool(uint256 time) public view returns (uint256) {... */\n      swap3\n      pop\n      pop\n      pop\n      jump\t// out\n        /* \"inviter_presell/stake.sol\":2218:2714  function getRewardPool(uint256 time) public view returns (uint256) {... */\n    tag_80:\n        /* \"inviter_presell/stake.sol\":2276:2283  uint256 */\n      0x00\n        /* \"inviter_presell/stake.sol\":2299:2308  startTime */\n      sload(0x06)\n        /* \"inviter_presell/stake.sol\":2312:2313  0 */\n      0x00\n        /* \"inviter_presell/stake.sol\":2299:2313  startTime == 0 */\n      sub\n        /* \"inviter_presell/stake.sol\":2296:2358  if(startTime == 0) {... */\n      tag_225\n      jumpi\n      pop\n      pop\n        /* \"inviter_presell/stake.sol\":2337:2346  startTime */\n      sload(0x06)\n      swap1\n        /* \"inviter_presell/stake.sol\":2218:2714  function getRewardPool(uint256 time) public view returns (uint256) {... */\n      jump\t// out\n        /* \"inviter_presell/stake.sol\":2296:2358  if(startTime == 0) {... */\n    tag_225:\n        /* \"inviter_presell/stake.sol\":2368:2381  uint256 times */\n      0x00\n        /* \"inviter_presell/stake.sol\":2405:2417  rateInterval */\n      sload(0x07)\n        /* \"inviter_presell/stake.sol\":2392:2401  startTime */\n      sload(0x06)\n        /* \"inviter_presell/stake.sol\":2385:2389  time */\n      dup5\n        /* \"inviter_presell/stake.sol\":2385:2401  time - startTime */\n      tag_226\n      swap2\n      swap1\n      tag_210\n      jump\t// in\n    tag_226:\n        /* \"inviter_presell/stake.sol\":2384:2417  (time - startTime) / rateInterval */\n      tag_227\n      swap2\n      swap1\n      tag_212\n      jump\t// in\n    tag_227:\n        /* \"inviter_presell/stake.sol\":2384:2421  (time - startTime) / rateInterval + 1 */\n      tag_228\n      swap1\n        /* \"inviter_presell/stake.sol\":2420:2421  1 */\n      0x01\n        /* \"inviter_presell/stake.sol\":2384:2421  (time - startTime) / rateInterval + 1 */\n      tag_214\n      jump\t// in\n    tag_228:\n        /* \"inviter_presell/stake.sol\":2448:2460  totalRewards */\n      sload(0x05)\n        /* \"inviter_presell/stake.sol\":2368:2421  uint256 times = (time - startTime) / rateInterval + 1 */\n      swap1\n      swap2\n      pop\n        /* \"inviter_presell/stake.sol\":2432:2445  uint256 value */\n      0x00\n        /* \"inviter_presell/stake.sol\":2471:2604  for(uint256 i = 0; i < times; ++i) {... */\n    tag_229:\n        /* \"inviter_presell/stake.sol\":2494:2499  times */\n      dup3\n        /* \"inviter_presell/stake.sol\":2490:2491  i */\n      dup2\n        /* \"inviter_presell/stake.sol\":2490:2499  i < times */\n      lt\n        /* \"inviter_presell/stake.sol\":2471:2604  for(uint256 i = 0; i < times; ++i) {... */\n      iszero\n      tag_230\n      jumpi\n        /* \"inviter_presell/stake.sol\":2569:2592  rateIntervalDenominator */\n      sload(0x09)\n        /* \"inviter_presell/stake.sol\":2545:2566  rateIntervalNumerator */\n      sload(0x08)\n        /* \"inviter_presell/stake.sol\":2537:2566  value * rateIntervalNumerator */\n      tag_232\n      swap1\n        /* \"inviter_presell/stake.sol\":2537:2542  value */\n      dup5\n        /* \"inviter_presell/stake.sol\":2537:2566  value * rateIntervalNumerator */\n      tag_219\n      jump\t// in\n    tag_232:\n        /* \"inviter_presell/stake.sol\":2537:2592  value * rateIntervalNumerator / rateIntervalDenominator */\n      tag_233\n      swap2\n      swap1\n      tag_212\n      jump\t// in\n    tag_233:\n        /* \"inviter_presell/stake.sol\":2529:2592  value - value * rateIntervalNumerator / rateIntervalDenominator */\n      tag_234\n      swap1\n        /* \"inviter_presell/stake.sol\":2529:2534  value */\n      dup4\n        /* \"inviter_presell/stake.sol\":2529:2592  value - value * rateIntervalNumerator / rateIntervalDenominator */\n      tag_210\n      jump\t// in\n    tag_234:\n        /* \"inviter_presell/stake.sol\":2521:2592  value = value - value * rateIntervalNumerator / rateIntervalDenominator */\n      swap2\n      pop\n        /* \"inviter_presell/stake.sol\":2501:2504  ++i */\n      tag_235\n      dup2\n      tag_223\n      jump\t// in\n    tag_235:\n      swap1\n      pop\n        /* \"inviter_presell/stake.sol\":2471:2604  for(uint256 i = 0; i < times; ++i) {... */\n      jump(tag_229)\n    tag_230:\n      pop\n        /* \"inviter_presell/stake.sol\":2683:2706  rateIntervalDenominator */\n      sload(0x09)\n        /* \"inviter_presell/stake.sol\":2659:2680  rateIntervalNumerator */\n      sload(0x08)\n        /* \"inviter_presell/stake.sol\":2651:2680  value * rateIntervalNumerator */\n      tag_236\n      swap1\n        /* \"inviter_presell/stake.sol\":2651:2656  value */\n      dup4\n        /* \"inviter_presell/stake.sol\":2651:2680  value * rateIntervalNumerator */\n      tag_219\n      jump\t// in\n    tag_236:\n        /* \"inviter_presell/stake.sol\":2651:2706  value * rateIntervalNumerator / rateIntervalDenominator */\n      tag_237\n      swap2\n      swap1\n      tag_212\n      jump\t// in\n    tag_237:\n        /* \"inviter_presell/stake.sol\":2644:2706  return value * rateIntervalNumerator / rateIntervalDenominator */\n      swap5\n        /* \"inviter_presell/stake.sol\":2218:2714  function getRewardPool(uint256 time) public view returns (uint256) {... */\n      swap4\n      pop\n      pop\n      pop\n      pop\n      jump\t// out\n        /* \"inviter_presell/adminable.sol\":1123:1226  function renounceOwnership() public virtual onlyOwner {... */\n    tag_89:\n        /* \"inviter_presell/adminable.sol\":982:988  _owner */\n      and(sub(shl(0xa0, 0x01), 0x01), sload(0x01))\n        /* \"inviter_presell/adminable.sol\":143:153  msg.sender */\n      caller\n        /* \"inviter_presell/adminable.sol\":691:714  owner() == _msgSender() */\n      eq\n        /* \"inviter_presell/adminable.sol\":683:753  require(owner() == _msgSender(), \"Adminable: caller is not the owner\") */\n      tag_242\n      jumpi\n      mload(0x40)\n      shl(0xe5, 0x461bcd)\n      dup2\n      mstore\n      0x04\n      add\n      tag_174\n      swap1\n      tag_175\n      jump\t// in\n    tag_242:\n        /* \"inviter_presell/adminable.sol\":1188:1218  _transferOwnership(address(0)) */\n      tag_245\n        /* \"inviter_presell/adminable.sol\":1215:1216  0 */\n      0x00\n        /* \"inviter_presell/adminable.sol\":1188:1206  _transferOwnership */\n      tag_246\n        /* \"inviter_presell/adminable.sol\":1188:1218  _transferOwnership(address(0)) */\n      jump\t// in\n    tag_245:\n        /* \"inviter_presell/adminable.sol\":1123:1226  function renounceOwnership() public virtual onlyOwner {... */\n      jump\t// out\n        /* \"inviter_presell/stake.sol\":3616:3964  function rewardPerToken(uint256 rewardRate) public view returns (uint256) {... */\n    tag_105:\n        /* \"inviter_presell/stake.sol\":3681:3688  uint256 */\n      0x00\n        /* \"inviter_presell/stake.sol\":3705:3717  _totalPowers */\n      sload(0x0e)\n        /* \"inviter_presell/stake.sol\":3721:3722  0 */\n      0x00\n        /* \"inviter_presell/stake.sol\":3705:3722  _totalPowers == 0 */\n      sub\n        /* \"inviter_presell/stake.sol\":3701:3778  if (_totalPowers == 0) {... */\n      tag_249\n      jumpi\n      pop\n      pop\n        /* \"inviter_presell/stake.sol\":3746:3766  rewardPerTokenStored */\n      sload(0x0b)\n      swap1\n        /* \"inviter_presell/stake.sol\":3616:3964  function rewardPerToken(uint256 rewardRate) public view returns (uint256) {... */\n      jump\t// out\n        /* \"inviter_presell/stake.sol\":3701:3778  if (_totalPowers == 0) {... */\n    tag_249:\n        /* \"inviter_presell/stake.sol\":3808:3956  rewardPerTokenStored.add(... */\n      tag_250\n        /* \"inviter_presell/stake.sol\":3851:3941  lastTimeRewardApplicable().sub(lastUpdateTime).mul(rewardRate).mul(1e18).div(_totalPowers) */\n      tag_251\n        /* \"inviter_presell/stake.sol\":3928:3940  _totalPowers */\n      sload(0x0e)\n        /* \"inviter_presell/stake.sol\":3851:3923  lastTimeRewardApplicable().sub(lastUpdateTime).mul(rewardRate).mul(1e18) */\n      tag_162\n        /* \"inviter_presell/stake.sol\":3918:3922  1e18 */\n      0x0de0b6b3a7640000\n        /* \"inviter_presell/stake.sol\":3851:3913  lastTimeRewardApplicable().sub(lastUpdateTime).mul(rewardRate) */\n      tag_254\n        /* \"inviter_presell/stake.sol\":3902:3912  rewardRate */\n      dup8\n        /* \"inviter_presell/stake.sol\":3851:3897  lastTimeRewardApplicable().sub(lastUpdateTime) */\n      tag_254\n        /* \"inviter_presell/stake.sol\":3882:3896  lastUpdateTime */\n      sload(0x0a)\n        /* \"inviter_presell/stake.sol\":3851:3877  lastTimeRewardApplicable() */\n      tag_164\n        /* \"inviter_presell/stake.sol\":3585:3600  block.timestamp */\n      timestamp\n      swap1\n        /* \"inviter_presell/stake.sol\":3501:3608  function lastTimeRewardApplicable() public view returns (uint256) {... */\n      jump\n        /* \"inviter_presell/stake.sol\":3851:3897  lastTimeRewardApplicable().sub(lastUpdateTime) */\n    tag_254:\n        /* \"inviter_presell/stake.sol\":3851:3901  lastTimeRewardApplicable().sub(lastUpdateTime).mul */\n      swap1\n      tag_166\n        /* \"inviter_presell/stake.sol\":3851:3913  lastTimeRewardApplicable().sub(lastUpdateTime).mul(rewardRate) */\n      jump\t// in\n        /* \"inviter_presell/stake.sol\":3851:3941  lastTimeRewardApplicable().sub(lastUpdateTime).mul(rewardRate).mul(1e18).div(_totalPowers) */\n    tag_251:\n        /* \"inviter_presell/stake.sol\":3808:3828  rewardPerTokenStored */\n      sload(0x0b)\n      swap1\n        /* \"inviter_presell/stake.sol\":3808:3832  rewardPerTokenStored.add */\n      tag_168\n        /* \"inviter_presell/stake.sol\":3808:3956  rewardPerTokenStored.add(... */\n      jump\t// in\n    tag_250:\n        /* \"inviter_presell/stake.sol\":3788:3956  return... */\n      swap3\n        /* \"inviter_presell/stake.sol\":3616:3964  function rewardPerToken(uint256 rewardRate) public view returns (uint256) {... */\n      swap2\n      pop\n      pop\n      jump\t// out\n        /* \"inviter_presell/stake.sol\":6327:6430  function setRewardToken(address token) public onlyOwner {... */\n    tag_109:\n        /* \"inviter_presell/adminable.sol\":982:988  _owner */\n      and(sub(shl(0xa0, 0x01), 0x01), sload(0x01))\n        /* \"inviter_presell/adminable.sol\":143:153  msg.sender */\n      caller\n        /* \"inviter_presell/adminable.sol\":691:714  owner() == _msgSender() */\n      eq\n        /* \"inviter_presell/adminable.sol\":683:753  require(owner() == _msgSender(), \"Adminable: caller is not the owner\") */\n      tag_259\n      jumpi\n      mload(0x40)\n      shl(0xe5, 0x461bcd)\n      dup2\n      mstore\n      0x04\n      add\n      tag_174\n      swap1\n      tag_175\n      jump\t// in\n    tag_259:\n        /* \"inviter_presell/stake.sol\":6394:6406  rewardsToken */\n      0x03\n        /* \"inviter_presell/stake.sol\":6394:6422  rewardsToken = IERC20(token) */\n      dup1\n      sload\n      not(sub(shl(0xa0, 0x01), 0x01))\n      and\n      sub(shl(0xa0, 0x01), 0x01)\n      swap3\n      swap1\n      swap3\n      and\n      swap2\n      swap1\n      swap2\n      or\n      swap1\n      sstore\n        /* \"inviter_presell/stake.sol\":6327:6430  function setRewardToken(address token) public onlyOwner {... */\n      jump\t// out\n        /* \"inviter_presell/stake.sol\":2096:2210  function getCurRewardPool() public view returns (uint256) {... */\n    tag_119:\n        /* \"inviter_presell/stake.sol\":2145:2152  uint256 */\n      0x00\n        /* \"inviter_presell/stake.sol\":2172:2202  getRewardPool(block.timestamp) */\n      tag_264\n        /* \"inviter_presell/stake.sol\":2186:2201  block.timestamp */\n      timestamp\n        /* \"inviter_presell/stake.sol\":2172:2185  getRewardPool */\n      tag_80\n        /* \"inviter_presell/stake.sol\":2172:2202  getRewardPool(block.timestamp) */\n      jump\t// in\n    tag_264:\n        /* \"inviter_presell/stake.sol\":2165:2202  return getRewardPool(block.timestamp) */\n      swap1\n      pop\n        /* \"inviter_presell/stake.sol\":2096:2210  function getCurRewardPool() public view returns (uint256) {... */\n      swap1\n      jump\t// out\n        /* \"inviter_presell/stake.sol\":6687:6830  function emergencyWithdrawToken(address token, uint256 amount) external onlyOwner {... */\n    tag_127:\n        /* \"inviter_presell/adminable.sol\":982:988  _owner */\n      and(sub(shl(0xa0, 0x01), 0x01), sload(0x01))\n        /* \"inviter_presell/adminable.sol\":143:153  msg.sender */\n      caller\n        /* \"inviter_presell/adminable.sol\":691:714  owner() == _msgSender() */\n      eq\n        /* \"inviter_presell/adminable.sol\":683:753  require(owner() == _msgSender(), \"Adminable: caller is not the owner\") */\n      tag_269\n      jumpi\n      mload(0x40)\n      shl(0xe5, 0x461bcd)\n      dup2\n      mstore\n      0x04\n      add\n      tag_174\n      swap1\n      tag_175\n      jump\t// in\n    tag_269:\n        /* \"inviter_presell/stake.sol\":6780:6822  IERC20(token).transfer(msg.sender, amount) */\n      mload(0x40)\n      shl(0xe0, 0xa9059cbb)\n      dup2\n      mstore\n        /* \"inviter_presell/stake.sol\":6803:6813  msg.sender */\n      caller\n        /* \"inviter_presell/stake.sol\":6780:6822  IERC20(token).transfer(msg.sender, amount) */\n      0x04\n      dup3\n      add\n        /* \"#utility.yul\":3538:3589   */\n      mstore\n        /* \"#utility.yul\":3605:3623   */\n      0x24\n      dup2\n      add\n        /* \"#utility.yul\":3598:3632   */\n      dup3\n      swap1\n      mstore\n      sub(shl(0xa0, 0x01), 0x01)\n        /* \"inviter_presell/stake.sol\":6780:6802  IERC20(token).transfer */\n      dup4\n      and\n      swap1\n      0xa9059cbb\n      swap1\n        /* \"#utility.yul\":3511:3529   */\n      0x44\n      add\n        /* \"inviter_presell/stake.sol\":6780:6822  IERC20(token).transfer(msg.sender, amount) */\n      0x20\n      mload(0x40)\n      dup1\n      dup4\n      sub\n      dup2\n      0x00\n      dup8\n      gas\n      call\n      iszero\n      dup1\n      iszero\n      tag_274\n      jumpi\n      returndatasize\n      0x00\n      dup1\n      returndatacopy\n      revert(0x00, returndatasize)\n    tag_274:\n      pop\n      pop\n      pop\n      pop\n      mload(0x40)\n      returndatasize\n      not(0x1f)\n      0x1f\n      dup3\n      add\n      and\n      dup3\n      add\n      dup1\n      0x40\n      mstore\n      pop\n      dup2\n      add\n      swap1\n      tag_275\n      swap2\n      swap1\n      tag_198\n      jump\t// in\n    tag_275:\n      pop\n        /* \"inviter_presell/stake.sol\":6687:6830  function emergencyWithdrawToken(address token, uint256 amount) external onlyOwner {... */\n      pop\n      pop\n      jump\t// out\n        /* \"inviter_presell/stake.sol\":5704:6004  function stake(address user, uint256 amount) external nonReentrant onlyAdmin updateReward(msg.sender) {... */\n    tag_130:\n        /* \"node_modules/@openzeppelin/contracts/security/ReentrancyGuard.sol\":1778:1779  2 */\n      0x02\n        /* \"node_modules/@openzeppelin/contracts/security/ReentrancyGuard.sol\":2376:2383  _status */\n      dup1\n      sload\n        /* \"node_modules/@openzeppelin/contracts/security/ReentrancyGuard.sol\":2376:2395  _status != _ENTERED */\n      sub\n        /* \"node_modules/@openzeppelin/contracts/security/ReentrancyGuard.sol\":2368:2431  require(_status != _ENTERED, \"ReentrancyGuard: reentrant call\") */\n      tag_277\n      jumpi\n      mload(0x40)\n      shl(0xe5, 0x461bcd)\n      dup2\n      mstore\n        /* \"#utility.yul\":3206:3208   */\n      0x20\n        /* \"node_modules/@openzeppelin/contracts/security/ReentrancyGuard.sol\":2368:2431  require(_status != _ENTERED, \"ReentrancyGuard: reentrant call\") */\n      0x04\n      dup3\n      add\n        /* \"#utility.yul\":3188:3209   */\n      mstore\n        /* \"#utility.yul\":3245:3247   */\n      0x1f\n        /* \"#utility.yul\":3225:3243   */\n      0x24\n      dup3\n      add\n        /* \"#utility.yul\":3218:3248   */\n      mstore\n        /* \"#utility.yul\":3284:3317   */\n      0x5265656e7472616e637947756172643a207265656e7472616e742063616c6c00\n        /* \"#utility.yul\":3264:3282   */\n      0x44\n      dup3\n      add\n        /* \"#utility.yul\":3257:3318   */\n      mstore\n        /* \"#utility.yul\":3335:3353   */\n      0x64\n      add\n        /* \"node_modules/@openzeppelin/contracts/security/ReentrancyGuard.sol\":2368:2431  require(_status != _ENTERED, \"ReentrancyGuard: reentrant call\") */\n      tag_174\n        /* \"#utility.yul\":3004:3359   */\n      jump\n        /* \"node_modules/@openzeppelin/contracts/security/ReentrancyGuard.sol\":2368:2431  require(_status != _ENTERED, \"ReentrancyGuard: reentrant call\") */\n    tag_277:\n        /* \"node_modules/@openzeppelin/contracts/security/ReentrancyGuard.sol\":1778:1779  2 */\n      0x02\n        /* \"node_modules/@openzeppelin/contracts/security/ReentrancyGuard.sol\":2509:2527  _status = _ENTERED */\n      dup1\n      sstore\n        /* \"inviter_presell/adminable.sol\":821:842  isAdmin(_msgSender()) */\n      tag_280\n        /* \"inviter_presell/adminable.sol\":143:153  msg.sender */\n      caller\n        /* \"inviter_presell/adminable.sol\":829:841  _msgSender() */\n      tag_61\n        /* \"inviter_presell/adminable.sol\":63:161  function _msgSender() internal view virtual returns (address) {... */\n      jump\n        /* \"inviter_presell/adminable.sol\":821:842  isAdmin(_msgSender()) */\n    tag_280:\n        /* \"inviter_presell/adminable.sol\":813:881  require(isAdmin(_msgSender()), \"Adminable: caller is not the admin\") */\n      tag_282\n      jumpi\n      mload(0x40)\n      shl(0xe5, 0x461bcd)\n      dup2\n      mstore\n      0x04\n      add\n      tag_174\n      swap1\n      tag_205\n      jump\t// in\n    tag_282:\n        /* \"inviter_presell/stake.sol\":5794:5804  msg.sender */\n      caller\n        /* \"inviter_presell/stake.sol\":1127:1139  uint256 time */\n      0x00\n        /* \"inviter_presell/stake.sol\":1142:1169  userLastUpdateTime[account] */\n      dup2\n      dup2\n      mstore\n        /* \"inviter_presell/stake.sol\":1142:1160  userLastUpdateTime */\n      0x0d\n        /* \"inviter_presell/stake.sol\":1142:1169  userLastUpdateTime[account] */\n      0x20\n      mstore\n      0x40\n      swap1\n      keccak256\n      sload\n        /* \"inviter_presell/stake.sol\":1191:1200  startTime */\n      sload(0x06)\n        /* \"inviter_presell/stake.sol\":1183:1200  time <= startTime */\n      dup2\n      gt\n        /* \"inviter_presell/stake.sol\":1180:1245  if(time <= startTime) {... */\n      tag_285\n      jumpi\n      pop\n        /* \"inviter_presell/stake.sol\":1224:1233  startTime */\n      sload(0x06)\n        /* \"inviter_presell/stake.sol\":1180:1245  if(time <= startTime) {... */\n    tag_285:\n        /* \"inviter_presell/stake.sol\":1255:1267  uint256 rate */\n      0x00\n        /* \"inviter_presell/stake.sol\":1270:1315  getTimeWeightedAveRate(time, block.timestamp) */\n      tag_286\n        /* \"inviter_presell/stake.sol\":1293:1297  time */\n      dup3\n        /* \"inviter_presell/stake.sol\":1299:1314  block.timestamp */\n      timestamp\n        /* \"inviter_presell/stake.sol\":1270:1292  getTimeWeightedAveRate */\n      tag_148\n        /* \"inviter_presell/stake.sol\":1270:1315  getTimeWeightedAveRate(time, block.timestamp) */\n      jump\t// in\n    tag_286:\n        /* \"inviter_presell/stake.sol\":1255:1315  uint256 rate = getTimeWeightedAveRate(time, block.timestamp) */\n      swap1\n      pop\n        /* \"inviter_presell/stake.sol\":1349:1369  rewardPerToken(rate) */\n      tag_287\n        /* \"inviter_presell/stake.sol\":1364:1368  rate */\n      dup2\n        /* \"inviter_presell/stake.sol\":1349:1363  rewardPerToken */\n      tag_105\n        /* \"inviter_presell/stake.sol\":1349:1369  rewardPerToken(rate) */\n      jump\t// in\n    tag_287:\n        /* \"inviter_presell/stake.sol\":1326:1346  rewardPerTokenStored */\n      0x0b\n        /* \"inviter_presell/stake.sol\":1326:1369  rewardPerTokenStored = rewardPerToken(rate) */\n      sstore\n        /* \"inviter_presell/stake.sol\":3585:3600  block.timestamp */\n      timestamp\n        /* \"inviter_presell/stake.sol\":1380:1394  lastUpdateTime */\n      0x0a\n        /* \"inviter_presell/stake.sol\":1380:1423  lastUpdateTime = lastTimeRewardApplicable() */\n      sstore\n      sub(shl(0xa0, 0x01), 0x01)\n        /* \"inviter_presell/stake.sol\":1438:1459  account != address(0) */\n      dup4\n      and\n      iszero\n        /* \"inviter_presell/stake.sol\":1434:1651  if (account != address(0)) {... */\n      tag_289\n      jumpi\n        /* \"inviter_presell/stake.sol\":1495:1510  earned(account) */\n      tag_290\n        /* \"inviter_presell/stake.sol\":1502:1509  account */\n      dup4\n        /* \"inviter_presell/stake.sol\":1495:1501  earned */\n      tag_46\n        /* \"inviter_presell/stake.sol\":1495:1510  earned(account) */\n      jump\t// in\n    tag_290:\n      sub(shl(0xa0, 0x01), 0x01)\n        /* \"inviter_presell/stake.sol\":1476:1492  rewards[account] */\n      dup5\n      and\n      0x00\n      swap1\n      dup2\n      mstore\n        /* \"inviter_presell/stake.sol\":1476:1483  rewards */\n      0x04\n        /* \"inviter_presell/stake.sol\":1476:1492  rewards[account] */\n      0x20\n      swap1\n      dup2\n      mstore\n      0x40\n      dup1\n      dup4\n      keccak256\n        /* \"inviter_presell/stake.sol\":1476:1510  rewards[account] = earned(account) */\n      swap4\n      swap1\n      swap4\n      sstore\n        /* \"inviter_presell/stake.sol\":1559:1579  rewardPerTokenStored */\n      sload(0x0b)\n        /* \"inviter_presell/stake.sol\":1525:1547  userRewardPerTokenPaid */\n      0x0c\n        /* \"inviter_presell/stake.sol\":1525:1556  userRewardPerTokenPaid[account] */\n      dup3\n      mstore\n      dup4\n      dup4\n      keccak256\n        /* \"inviter_presell/stake.sol\":1525:1579  userRewardPerTokenPaid[account] = rewardPerTokenStored */\n      sstore\n        /* \"inviter_presell/stake.sol\":1594:1612  userLastUpdateTime */\n      0x0d\n        /* \"inviter_presell/stake.sol\":1594:1621  userLastUpdateTime[account] */\n      swap1\n      mstore\n      keccak256\n        /* \"inviter_presell/stake.sol\":1624:1639  block.timestamp */\n      timestamp\n        /* \"inviter_presell/stake.sol\":1594:1639  userLastUpdateTime[account] = block.timestamp */\n      swap1\n      sstore\n        /* \"inviter_presell/stake.sol\":1434:1651  if (account != address(0)) {... */\n    tag_289:\n        /* \"inviter_presell/stake.sol\":5834:5835  0 */\n      0x00\n        /* \"inviter_presell/stake.sol\":5825:5831  amount */\n      dup5\n        /* \"inviter_presell/stake.sol\":5825:5835  amount > 0 */\n      gt\n        /* \"inviter_presell/stake.sol\":5817:5854  require(amount > 0, \"Cannot stake 0\") */\n      tag_292\n      jumpi\n      mload(0x40)\n      shl(0xe5, 0x461bcd)\n      dup2\n      mstore\n        /* \"#utility.yul\":5463:5465   */\n      0x20\n        /* \"inviter_presell/stake.sol\":5817:5854  require(amount > 0, \"Cannot stake 0\") */\n      0x04\n      dup3\n      add\n        /* \"#utility.yul\":5445:5466   */\n      mstore\n        /* \"#utility.yul\":5502:5504   */\n      0x0e\n        /* \"#utility.yul\":5482:5500   */\n      0x24\n      dup3\n      add\n        /* \"#utility.yul\":5475:5505   */\n      mstore\n      shl(0x94, 0x043616e6e6f74207374616b65203)\n        /* \"#utility.yul\":5521:5539   */\n      0x44\n      dup3\n      add\n        /* \"#utility.yul\":5514:5558   */\n      mstore\n        /* \"#utility.yul\":5575:5593   */\n      0x64\n      add\n        /* \"inviter_presell/stake.sol\":5817:5854  require(amount > 0, \"Cannot stake 0\") */\n      tag_174\n        /* \"#utility.yul\":5261:5599   */\n      jump\n        /* \"inviter_presell/stake.sol\":5817:5854  require(amount > 0, \"Cannot stake 0\") */\n    tag_292:\n        /* \"inviter_presell/stake.sol\":5880:5892  _totalPowers */\n      sload(0x0e)\n        /* \"inviter_presell/stake.sol\":5880:5904  _totalPowers.add(amount) */\n      tag_295\n      swap1\n        /* \"inviter_presell/stake.sol\":5897:5903  amount */\n      dup6\n        /* \"inviter_presell/stake.sol\":5880:5896  _totalPowers.add */\n      tag_168\n        /* \"inviter_presell/stake.sol\":5880:5904  _totalPowers.add(amount) */\n      jump\t// in\n    tag_295:\n        /* \"inviter_presell/stake.sol\":5865:5877  _totalPowers */\n      0x0e\n        /* \"inviter_presell/stake.sol\":5865:5904  _totalPowers = _totalPowers.add(amount) */\n      sstore\n      sub(shl(0xa0, 0x01), 0x01)\n        /* \"inviter_presell/stake.sol\":5933:5948  _balances[user] */\n      dup6\n      and\n      0x00\n      swap1\n      dup2\n      mstore\n        /* \"inviter_presell/stake.sol\":5933:5942  _balances */\n      0x0f\n        /* \"inviter_presell/stake.sol\":5933:5948  _balances[user] */\n      0x20\n      mstore\n      0x40\n      swap1\n      keccak256\n      sload\n        /* \"inviter_presell/stake.sol\":5933:5960  _balances[user].add(amount) */\n      tag_296\n      swap1\n        /* \"inviter_presell/stake.sol\":5953:5959  amount */\n      dup6\n        /* \"inviter_presell/stake.sol\":5933:5952  _balances[user].add */\n      tag_168\n        /* \"inviter_presell/stake.sol\":5933:5960  _balances[user].add(amount) */\n      jump\t// in\n    tag_296:\n      sub(shl(0xa0, 0x01), 0x01)\n        /* \"inviter_presell/stake.sol\":5915:5930  _balances[user] */\n      dup7\n      and\n      0x00\n      dup2\n      dup2\n      mstore\n        /* \"inviter_presell/stake.sol\":5915:5924  _balances */\n      0x0f\n        /* \"inviter_presell/stake.sol\":5915:5930  _balances[user] */\n      0x20\n      mstore\n      0x40\n      swap1\n      dup2\n      swap1\n      keccak256\n        /* \"inviter_presell/stake.sol\":5915:5960  _balances[user] = _balances[user].add(amount) */\n      swap3\n      swap1\n      swap3\n      sstore\n        /* \"inviter_presell/stake.sol\":5976:5996  Staked(user, amount) */\n      swap1\n      mload\n      0x9e71bc8eea02a63969f509818f2dafb9254532904319f9dbda79b67bd34a5f3d\n      swap1\n      tag_297\n      swap1\n        /* \"inviter_presell/stake.sol\":5989:5995  amount */\n      dup8\n        /* \"#utility.yul\":529:554   */\n      dup2\n      mstore\n        /* \"#utility.yul\":517:519   */\n      0x20\n        /* \"#utility.yul\":502:520   */\n      add\n      swap1\n        /* \"#utility.yul\":383:560   */\n      jump\n        /* \"inviter_presell/stake.sol\":5976:5996  Staked(user, amount) */\n    tag_297:\n      mload(0x40)\n      dup1\n      swap2\n      sub\n      swap1\n      log2\n      pop\n      pop\n        /* \"node_modules/@openzeppelin/contracts/security/ReentrancyGuard.sol\":1734:1735  1 */\n      0x01\n        /* \"node_modules/@openzeppelin/contracts/security/ReentrancyGuard.sol\":2688:2695  _status */\n      0x02\n        /* \"node_modules/@openzeppelin/contracts/security/ReentrancyGuard.sol\":2688:2710  _status = _NOT_ENTERED */\n      sstore\n      pop\n      pop\n      pop\n        /* \"inviter_presell/stake.sol\":5704:6004  function stake(address user, uint256 amount) external nonReentrant onlyAdmin updateReward(msg.sender) {... */\n      jump\t// out\n        /* \"inviter_presell/stake.sol\":3146:3261  function getCurRewardRate() public view returns (uint256) {... */\n    tag_139:\n        /* \"inviter_presell/stake.sol\":3195:3202  uint256 */\n      0x00\n        /* \"inviter_presell/stake.sol\":3222:3253  _getRewardRate(block.timestamp) */\n      tag_264\n        /* \"inviter_presell/stake.sol\":3237:3252  block.timestamp */\n      timestamp\n        /* \"inviter_presell/stake.sol\":3222:3236  _getRewardRate */\n      tag_301\n        /* \"inviter_presell/stake.sol\":3222:3253  _getRewardRate(block.timestamp) */\n      jump\t// in\n        /* \"inviter_presell/stake.sol\":4311:5694  function getTimeWeightedAveRate(uint256 leftTime, uint256 rightTime) public view returns (uint256){... */\n    tag_148:\n        /* \"inviter_presell/stake.sol\":4401:4408  uint256 */\n      0x00\n        /* \"inviter_presell/stake.sol\":4433:4442  startTime */\n      sload(0x06)\n        /* \"inviter_presell/stake.sol\":4446:4447  0 */\n      0x00\n        /* \"inviter_presell/stake.sol\":4433:4447  startTime == 0 */\n      eq\n        /* \"inviter_presell/stake.sol\":4433:4472  startTime == 0 || leftTime >= rightTime */\n      dup1\n      tag_303\n      jumpi\n      pop\n        /* \"inviter_presell/stake.sol\":4463:4472  rightTime */\n      dup2\n        /* \"inviter_presell/stake.sol\":4451:4459  leftTime */\n      dup4\n        /* \"inviter_presell/stake.sol\":4451:4472  leftTime >= rightTime */\n      lt\n      iszero\n        /* \"inviter_presell/stake.sol\":4433:4472  startTime == 0 || leftTime >= rightTime */\n    tag_303:\n        /* \"inviter_presell/stake.sol\":4433:4489  startTime == 0 || leftTime >= rightTime || leftTime == 0 */\n      dup1\n      tag_304\n      jumpi\n      pop\n        /* \"inviter_presell/stake.sol\":4476:4489  leftTime == 0 */\n      dup3\n      iszero\n        /* \"inviter_presell/stake.sol\":4433:4489  startTime == 0 || leftTime >= rightTime || leftTime == 0 */\n    tag_304:\n        /* \"inviter_presell/stake.sol\":4430:4526  if(startTime == 0 || leftTime >= rightTime || leftTime == 0) {... */\n      iszero\n      tag_305\n      jumpi\n      pop\n        /* \"inviter_presell/stake.sol\":4513:4514  0 */\n      0x00\n        /* \"inviter_presell/stake.sol\":4506:4514  return 0 */\n      jump(tag_250)\n        /* \"inviter_presell/stake.sol\":4430:4526  if(startTime == 0 || leftTime >= rightTime || leftTime == 0) {... */\n    tag_305:\n        /* \"inviter_presell/stake.sol\":4552:4561  startTime */\n      sload(0x06)\n        /* \"inviter_presell/stake.sol\":4541:4549  leftTime */\n      dup4\n        /* \"inviter_presell/stake.sol\":4541:4561  leftTime < startTime */\n      lt\n        /* \"inviter_presell/stake.sol\":4538:4610  if(leftTime < startTime) {... */\n      iszero\n      tag_306\n      jumpi\n        /* \"inviter_presell/stake.sol\":4589:4598  startTime */\n      sload(0x06)\n        /* \"inviter_presell/stake.sol\":4578:4598  leftTime = startTime */\n      swap3\n      pop\n        /* \"inviter_presell/stake.sol\":4538:4610  if(leftTime < startTime) {... */\n    tag_306:\n        /* \"inviter_presell/stake.sol\":4622:4642  uint256 leftInterval */\n      0x00\n        /* \"inviter_presell/stake.sol\":4702:4714  rateInterval */\n      sload(0x07)\n        /* \"inviter_presell/stake.sol\":4686:4698  rateInterval */\n      sload(0x07)\n        /* \"inviter_presell/stake.sol\":4673:4682  startTime */\n      sload(0x06)\n        /* \"inviter_presell/stake.sol\":4662:4670  leftTime */\n      dup7\n        /* \"inviter_presell/stake.sol\":4662:4682  leftTime - startTime */\n      tag_307\n      swap2\n      swap1\n      tag_210\n      jump\t// in\n    tag_307:\n        /* \"inviter_presell/stake.sol\":4661:4698  (leftTime - startTime) % rateInterval */\n      tag_308\n      swap2\n      swap1\n      tag_309\n      jump\t// in\n    tag_308:\n        /* \"inviter_presell/stake.sol\":4646:4658  rateInterval */\n      sload(0x07)\n        /* \"inviter_presell/stake.sol\":4646:4698  rateInterval - (leftTime - startTime) % rateInterval */\n      tag_310\n      swap2\n      swap1\n      tag_210\n      jump\t// in\n    tag_310:\n        /* \"inviter_presell/stake.sol\":4645:4714  (rateInterval - (leftTime - startTime) % rateInterval) % rateInterval */\n      tag_311\n      swap2\n      swap1\n      tag_309\n      jump\t// in\n    tag_311:\n        /* \"inviter_presell/stake.sol\":4622:4714  uint256 leftInterval = (rateInterval - (leftTime - startTime) % rateInterval) % rateInterval */\n      swap1\n      pop\n        /* \"inviter_presell/stake.sol\":4725:4743  uint256 leftReward */\n      0x00\n        /* \"inviter_presell/stake.sol\":4787:4799  rateInterval */\n      sload(0x07)\n        /* \"inviter_presell/stake.sol\":4772:4784  leftInterval */\n      dup3\n        /* \"inviter_presell/stake.sol\":4746:4769  getRewardPool(leftTime) */\n      tag_312\n        /* \"inviter_presell/stake.sol\":4760:4768  leftTime */\n      dup8\n        /* \"inviter_presell/stake.sol\":4746:4759  getRewardPool */\n      tag_80\n        /* \"inviter_presell/stake.sol\":4746:4769  getRewardPool(leftTime) */\n      jump\t// in\n    tag_312:\n        /* \"inviter_presell/stake.sol\":4746:4784  getRewardPool(leftTime) * leftInterval */\n      tag_313\n      swap2\n      swap1\n      tag_219\n      jump\t// in\n    tag_313:\n        /* \"inviter_presell/stake.sol\":4746:4799  getRewardPool(leftTime) * leftInterval / rateInterval */\n      tag_314\n      swap2\n      swap1\n      tag_212\n      jump\t// in\n    tag_314:\n        /* \"inviter_presell/stake.sol\":4725:4799  uint256 leftReward = getRewardPool(leftTime) * leftInterval / rateInterval */\n      swap1\n      pop\n        /* \"inviter_presell/stake.sol\":4812:4833  uint256 rightInterval */\n      0x00\n        /* \"inviter_presell/stake.sol\":4862:4874  rateInterval */\n      sload(0x07)\n        /* \"inviter_presell/stake.sol\":4849:4858  startTime */\n      sload(0x06)\n        /* \"inviter_presell/stake.sol\":4837:4846  rightTime */\n      dup7\n        /* \"inviter_presell/stake.sol\":4837:4858  rightTime - startTime */\n      tag_315\n      swap2\n      swap1\n      tag_210\n      jump\t// in\n    tag_315:\n        /* \"inviter_presell/stake.sol\":4836:4874  (rightTime - startTime) % rateInterval */\n      tag_316\n      swap2\n      swap1\n      tag_309\n      jump\t// in\n    tag_316:\n        /* \"inviter_presell/stake.sol\":4812:4874  uint256 rightInterval = (rightTime - startTime) % rateInterval */\n      swap1\n      pop\n        /* \"inviter_presell/stake.sol\":4885:4904  uint256 rightReward */\n      0x00\n        /* \"inviter_presell/stake.sol\":4950:4962  rateInterval */\n      sload(0x07)\n        /* \"inviter_presell/stake.sol\":4934:4947  rightInterval */\n      dup3\n        /* \"inviter_presell/stake.sol\":4907:4931  getRewardPool(rightTime) */\n      tag_317\n        /* \"inviter_presell/stake.sol\":4921:4930  rightTime */\n      dup9\n        /* \"inviter_presell/stake.sol\":4907:4920  getRewardPool */\n      tag_80\n        /* \"inviter_presell/stake.sol\":4907:4931  getRewardPool(rightTime) */\n      jump\t// in\n    tag_317:\n        /* \"inviter_presell/stake.sol\":4907:4947  getRewardPool(rightTime) * rightInterval */\n      tag_318\n      swap2\n      swap1\n      tag_219\n      jump\t// in\n    tag_318:\n        /* \"inviter_presell/stake.sol\":4907:4962  getRewardPool(rightTime) * rightInterval / rateInterval */\n      tag_319\n      swap2\n      swap1\n      tag_212\n      jump\t// in\n    tag_319:\n        /* \"inviter_presell/stake.sol\":4885:4962  uint256 rightReward = getRewardPool(rightTime) * rightInterval / rateInterval */\n      swap1\n      pop\n        /* \"inviter_presell/stake.sol\":5004:5013  rightTime */\n      dup6\n        /* \"inviter_presell/stake.sol\":4978:5001  leftTime + leftInterval */\n      tag_320\n        /* \"inviter_presell/stake.sol\":4989:5001  leftInterval */\n      dup6\n        /* \"inviter_presell/stake.sol\":4978:4986  leftTime */\n      dup10\n        /* \"inviter_presell/stake.sol\":4978:5001  leftTime + leftInterval */\n      tag_214\n      jump\t// in\n    tag_320:\n        /* \"inviter_presell/stake.sol\":4978:5013  leftTime + leftInterval > rightTime */\n      gt\n        /* \"inviter_presell/stake.sol\":4975:5073  if(leftTime + leftInterval > rightTime) {... */\n      iszero\n      tag_321\n      jumpi\n        /* \"inviter_presell/stake.sol\":5037:5061  _getRewardRate(leftTime) */\n      tag_322\n        /* \"inviter_presell/stake.sol\":5052:5060  leftTime */\n      dup8\n        /* \"inviter_presell/stake.sol\":5037:5051  _getRewardRate */\n      tag_301\n        /* \"inviter_presell/stake.sol\":5037:5061  _getRewardRate(leftTime) */\n      jump\t// in\n    tag_322:\n        /* \"inviter_presell/stake.sol\":5030:5061  return _getRewardRate(leftTime) */\n      swap5\n      pop\n      pop\n      pop\n      pop\n      pop\n      jump(tag_250)\n        /* \"inviter_presell/stake.sol\":4975:5073  if(leftTime + leftInterval > rightTime) {... */\n    tag_321:\n        /* \"inviter_presell/stake.sol\":5085:5104  uint256 midInterval */\n      0x00\n        /* \"inviter_presell/stake.sol\":5146:5158  leftInterval */\n      dup5\n        /* \"inviter_presell/stake.sol\":5135:5143  leftTime */\n      dup9\n        /* \"inviter_presell/stake.sol\":5107:5132  rightTime - rightInterval */\n      tag_323\n        /* \"inviter_presell/stake.sol\":5119:5132  rightInterval */\n      dup6\n        /* \"inviter_presell/stake.sol\":5107:5116  rightTime */\n      dup11\n        /* \"inviter_presell/stake.sol\":5107:5132  rightTime - rightInterval */\n      tag_210\n      jump\t// in\n    tag_323:\n        /* \"inviter_presell/stake.sol\":5107:5143  rightTime - rightInterval - leftTime */\n      tag_324\n      swap2\n      swap1\n      tag_210\n      jump\t// in\n    tag_324:\n        /* \"inviter_presell/stake.sol\":5107:5158  rightTime - rightInterval - leftTime - leftInterval */\n      tag_325\n      swap2\n      swap1\n      tag_210\n      jump\t// in\n    tag_325:\n        /* \"inviter_presell/stake.sol\":5085:5158  uint256 midInterval = rightTime - rightInterval - leftTime - leftInterval */\n      swap1\n      pop\n        /* \"inviter_presell/stake.sol\":5169:5188  uint256 startReward */\n      0x00\n        /* \"inviter_presell/stake.sol\":5191:5214  getRemainPool(leftTime) */\n      tag_326\n        /* \"inviter_presell/stake.sol\":5205:5213  leftTime */\n      dup10\n        /* \"inviter_presell/stake.sol\":5191:5204  getRemainPool */\n      tag_76\n        /* \"inviter_presell/stake.sol\":5191:5214  getRemainPool(leftTime) */\n      jump\t// in\n    tag_326:\n        /* \"inviter_presell/stake.sol\":5169:5214  uint256 startReward = getRemainPool(leftTime) */\n      swap1\n      pop\n        /* \"inviter_presell/stake.sol\":5226:5248  uint256 midTotalReward */\n      0x00\n        /* \"inviter_presell/stake.sol\":5263:5281  uint256 nextReward */\n      dup1\n        /* \"inviter_presell/stake.sol\":5296:5309  uint256 value */\n      0x00\n        /* \"inviter_presell/stake.sol\":5312:5323  startReward */\n      dup4\n        /* \"inviter_presell/stake.sol\":5296:5323  uint256 value = startReward */\n      swap1\n      pop\n        /* \"inviter_presell/stake.sol\":5334:5347  uint256 times */\n      0x00\n        /* \"inviter_presell/stake.sol\":5364:5376  rateInterval */\n      sload(0x07)\n        /* \"inviter_presell/stake.sol\":5350:5361  midInterval */\n      dup7\n        /* \"inviter_presell/stake.sol\":5350:5376  midInterval / rateInterval */\n      tag_327\n      swap2\n      swap1\n      tag_212\n      jump\t// in\n    tag_327:\n        /* \"inviter_presell/stake.sol\":5334:5376  uint256 times = midInterval / rateInterval */\n      swap1\n      pop\n        /* \"inviter_presell/stake.sol\":5391:5400  uint256 i */\n      0x00\n        /* \"inviter_presell/stake.sol\":5387:5601  for(uint256 i = 0; i < times; ++i) {... */\n    tag_328:\n        /* \"inviter_presell/stake.sol\":5410:5415  times */\n      dup2\n        /* \"inviter_presell/stake.sol\":5406:5407  i */\n      dup2\n        /* \"inviter_presell/stake.sol\":5406:5415  i < times */\n      lt\n        /* \"inviter_presell/stake.sol\":5387:5601  for(uint256 i = 0; i < times; ++i) {... */\n      iszero\n      tag_329\n      jumpi\n        /* \"inviter_presell/stake.sol\":5482:5505  rateIntervalDenominator */\n      sload(0x09)\n        /* \"inviter_presell/stake.sol\":5458:5479  rateIntervalNumerator */\n      sload(0x08)\n        /* \"inviter_presell/stake.sol\":5450:5479  value * rateIntervalNumerator */\n      tag_331\n      swap1\n        /* \"inviter_presell/stake.sol\":5450:5455  value */\n      dup6\n        /* \"inviter_presell/stake.sol\":5450:5479  value * rateIntervalNumerator */\n      tag_219\n      jump\t// in\n    tag_331:\n        /* \"inviter_presell/stake.sol\":5450:5505  value * rateIntervalNumerator / rateIntervalDenominator */\n      tag_332\n      swap2\n      swap1\n      tag_212\n      jump\t// in\n    tag_332:\n        /* \"inviter_presell/stake.sol\":5437:5505  nextReward = value * rateIntervalNumerator / rateIntervalDenominator */\n      swap4\n      pop\n        /* \"inviter_presell/stake.sol\":5528:5546  value - nextReward */\n      tag_333\n        /* \"inviter_presell/stake.sol\":5437:5505  nextReward = value * rateIntervalNumerator / rateIntervalDenominator */\n      dup5\n        /* \"inviter_presell/stake.sol\":5528:5533  value */\n      dup5\n        /* \"inviter_presell/stake.sol\":5528:5546  value - nextReward */\n      tag_210\n      jump\t// in\n    tag_333:\n        /* \"inviter_presell/stake.sol\":5520:5546  value = value - nextReward */\n      swap3\n      pop\n        /* \"inviter_presell/stake.sol\":5561:5589  midTotalReward += nextReward */\n      tag_334\n        /* \"inviter_presell/stake.sol\":5579:5589  nextReward */\n      dup5\n        /* \"inviter_presell/stake.sol\":5561:5589  midTotalReward += nextReward */\n      dup7\n      tag_214\n      jump\t// in\n    tag_334:\n      swap5\n      pop\n        /* \"inviter_presell/stake.sol\":5417:5420  ++i */\n      tag_335\n      dup2\n      tag_223\n      jump\t// in\n    tag_335:\n      swap1\n      pop\n        /* \"inviter_presell/stake.sol\":5387:5601  for(uint256 i = 0; i < times; ++i) {... */\n      jump(tag_328)\n    tag_329:\n      pop\n        /* \"inviter_presell/stake.sol\":5665:5685  rightTime - leftTime */\n      tag_336\n        /* \"inviter_presell/stake.sol\":5677:5685  leftTime */\n      dup14\n        /* \"inviter_presell/stake.sol\":5665:5674  rightTime */\n      dup14\n        /* \"inviter_presell/stake.sol\":5665:5685  rightTime - leftTime */\n      tag_210\n      jump\t// in\n    tag_336:\n        /* \"inviter_presell/stake.sol\":5649:5660  rightReward */\n      dup8\n        /* \"inviter_presell/stake.sol\":5619:5646  midTotalReward + leftReward */\n      tag_337\n        /* \"inviter_presell/stake.sol\":5636:5646  leftReward */\n      dup12\n        /* \"inviter_presell/stake.sol\":5619:5633  midTotalReward */\n      dup8\n        /* \"inviter_presell/stake.sol\":5619:5646  midTotalReward + leftReward */\n      tag_214\n      jump\t// in\n    tag_337:\n        /* \"inviter_presell/stake.sol\":5619:5660  midTotalReward + leftReward + rightReward */\n      tag_338\n      swap2\n      swap1\n      tag_214\n      jump\t// in\n    tag_338:\n        /* \"inviter_presell/stake.sol\":5618:5686  (midTotalReward + leftReward + rightReward) / (rightTime - leftTime) */\n      tag_339\n      swap2\n      swap1\n      tag_212\n      jump\t// in\n    tag_339:\n        /* \"inviter_presell/stake.sol\":5611:5686  return (midTotalReward + leftReward + rightReward) / (rightTime - leftTime) */\n      swap14\n        /* \"inviter_presell/stake.sol\":4311:5694  function getTimeWeightedAveRate(uint256 leftTime, uint256 rightTime) public view returns (uint256){... */\n      swap13\n      pop\n      pop\n      pop\n      pop\n      pop\n      pop\n      pop\n      pop\n      pop\n      pop\n      pop\n      pop\n      pop\n      jump\t// out\n        /* \"inviter_presell/stake.sol\":6564:6679  function emergencyWithdraw() external onlyOwner {... */\n    tag_151:\n        /* \"inviter_presell/adminable.sol\":982:988  _owner */\n      and(sub(shl(0xa0, 0x01), 0x01), sload(0x01))\n        /* \"inviter_presell/adminable.sol\":143:153  msg.sender */\n      caller\n        /* \"inviter_presell/adminable.sol\":691:714  owner() == _msgSender() */\n      eq\n        /* \"inviter_presell/adminable.sol\":683:753  require(owner() == _msgSender(), \"Adminable: caller is not the owner\") */\n      tag_343\n      jumpi\n      mload(0x40)\n      shl(0xe5, 0x461bcd)\n      dup2\n      mstore\n      0x04\n      add\n      tag_174\n      swap1\n      tag_175\n      jump\t// in\n    tag_343:\n        /* \"inviter_presell/adminable.sol\":982:988  _owner */\n      sload(0x01)\n        /* \"inviter_presell/stake.sol\":6623:6671  payable(owner()).transfer(address(this).balance) */\n      mload(0x40)\n      sub(shl(0xa0, 0x01), 0x01)\n        /* \"inviter_presell/adminable.sol\":982:988  _owner */\n      swap1\n      swap2\n      and\n      swap1\n        /* \"inviter_presell/stake.sol\":6649:6670  address(this).balance */\n      selfbalance\n        /* \"inviter_presell/stake.sol\":6623:6671  payable(owner()).transfer(address(this).balance) */\n      dup1\n      iszero\n      0x08fc\n      mul\n      swap2\n      0x00\n      dup2\n      dup2\n      dup2\n        /* \"inviter_presell/stake.sol\":6649:6670  address(this).balance */\n      dup6\n        /* \"inviter_presell/adminable.sol\":982:988  _owner */\n      dup9\n        /* \"inviter_presell/stake.sol\":6623:6671  payable(owner()).transfer(address(this).balance) */\n      dup9\n      call\n      swap4\n      pop\n      pop\n      pop\n      pop\n      iszero\n      dup1\n      iszero\n      tag_348\n      jumpi\n      returndatasize\n      0x00\n      dup1\n      returndatacopy\n      revert(0x00, returndatasize)\n    tag_348:\n      pop\n        /* \"inviter_presell/stake.sol\":6564:6679  function emergencyWithdraw() external onlyOwner {... */\n      jump\t// out\n        /* \"inviter_presell/adminable.sol\":1234:1435  function transferOwnership(address newOwner) public virtual onlyOwner {... */\n    tag_157:\n        /* \"inviter_presell/adminable.sol\":982:988  _owner */\n      and(sub(shl(0xa0, 0x01), 0x01), sload(0x01))\n        /* \"inviter_presell/adminable.sol\":143:153  msg.sender */\n      caller\n        /* \"inviter_presell/adminable.sol\":691:714  owner() == _msgSender() */\n      eq\n        /* \"inviter_presell/adminable.sol\":683:753  require(owner() == _msgSender(), \"Adminable: caller is not the owner\") */\n      tag_352\n      jumpi\n      mload(0x40)\n      shl(0xe5, 0x461bcd)\n      dup2\n      mstore\n      0x04\n      add\n      tag_174\n      swap1\n      tag_175\n      jump\t// in\n    tag_352:\n      sub(shl(0xa0, 0x01), 0x01)\n        /* \"inviter_presell/adminable.sol\":1323:1345  newOwner != address(0) */\n      dup2\n      and\n        /* \"inviter_presell/adminable.sol\":1315:1388  require(newOwner != address(0), \"Ownable: new owner is the zero address\") */\n      tag_355\n      jumpi\n      mload(0x40)\n      shl(0xe5, 0x461bcd)\n      dup2\n      mstore\n        /* \"#utility.yul\":5923:5925   */\n      0x20\n        /* \"inviter_presell/adminable.sol\":1315:1388  require(newOwner != address(0), \"Ownable: new owner is the zero address\") */\n      0x04\n      dup3\n      add\n        /* \"#utility.yul\":5905:5926   */\n      mstore\n        /* \"#utility.yul\":5962:5964   */\n      0x26\n        /* \"#utility.yul\":5942:5960   */\n      0x24\n      dup3\n      add\n        /* \"#utility.yul\":5935:5965   */\n      mstore\n        /* \"#utility.yul\":6001:6035   */\n      0x4f776e61626c653a206e6577206f776e657220697320746865207a65726f2061\n        /* \"#utility.yul\":5981:5999   */\n      0x44\n      dup3\n      add\n        /* \"#utility.yul\":5974:6036   */\n      mstore\n      shl(0xd0, 0x646472657373)\n        /* \"#utility.yul\":6052:6070   */\n      0x64\n      dup3\n      add\n        /* \"#utility.yul\":6045:6081   */\n      mstore\n        /* \"#utility.yul\":6098:6117   */\n      0x84\n      add\n        /* \"inviter_presell/adminable.sol\":1315:1388  require(newOwner != address(0), \"Ownable: new owner is the zero address\") */\n      tag_174\n        /* \"#utility.yul\":5721:6123   */\n      jump\n        /* \"inviter_presell/adminable.sol\":1315:1388  require(newOwner != address(0), \"Ownable: new owner is the zero address\") */\n    tag_355:\n        /* \"inviter_presell/adminable.sol\":1399:1427  _transferOwnership(newOwner) */\n      tag_348\n        /* \"inviter_presell/adminable.sol\":1418:1426  newOwner */\n      dup2\n        /* \"inviter_presell/adminable.sol\":1399:1417  _transferOwnership */\n      tag_246\n        /* \"inviter_presell/adminable.sol\":1399:1427  _transferOwnership(newOwner) */\n      jump\t// in\n        /* \"node_modules/@openzeppelin/contracts/utils/math/SafeMath.sol\":3214:3312  function sub(uint256 a, uint256 b) internal pure returns (uint256) {... */\n    tag_165:\n        /* \"node_modules/@openzeppelin/contracts/utils/math/SafeMath.sol\":3272:3279  uint256 */\n      0x00\n        /* \"node_modules/@openzeppelin/contracts/utils/math/SafeMath.sol\":3299:3304  a - b */\n      tag_160\n        /* \"node_modules/@openzeppelin/contracts/utils/math/SafeMath.sol\":3303:3304  b */\n      dup3\n        /* \"node_modules/@openzeppelin/contracts/utils/math/SafeMath.sol\":3299:3300  a */\n      dup5\n        /* \"node_modules/@openzeppelin/contracts/utils/math/SafeMath.sol\":3299:3304  a - b */\n      tag_210\n      jump\t// in\n        /* \"node_modules/@openzeppelin/contracts/utils/math/SafeMath.sol\":3571:3669  function mul(uint256 a, uint256 b) internal pure returns (uint256) {... */\n    tag_166:\n        /* \"node_modules/@openzeppelin/contracts/utils/math/SafeMath.sol\":3629:3636  uint256 */\n      0x00\n        /* \"node_modules/@openzeppelin/contracts/utils/math/SafeMath.sol\":3656:3661  a * b */\n      tag_160\n        /* \"node_modules/@openzeppelin/contracts/utils/math/SafeMath.sol\":3660:3661  b */\n      dup3\n        /* \"node_modules/@openzeppelin/contracts/utils/math/SafeMath.sol\":3656:3657  a */\n      dup5\n        /* \"node_modules/@openzeppelin/contracts/utils/math/SafeMath.sol\":3656:3661  a * b */\n      tag_219\n      jump\t// in\n        /* \"node_modules/@openzeppelin/contracts/utils/math/SafeMath.sol\":3970:4068  function div(uint256 a, uint256 b) internal pure returns (uint256) {... */\n    tag_167:\n        /* \"node_modules/@openzeppelin/contracts/utils/math/SafeMath.sol\":4028:4035  uint256 */\n      0x00\n        /* \"node_modules/@openzeppelin/contracts/utils/math/SafeMath.sol\":4055:4060  a / b */\n      tag_160\n        /* \"node_modules/@openzeppelin/contracts/utils/math/SafeMath.sol\":4059:4060  b */\n      dup3\n        /* \"node_modules/@openzeppelin/contracts/utils/math/SafeMath.sol\":4055:4056  a */\n      dup5\n        /* \"node_modules/@openzeppelin/contracts/utils/math/SafeMath.sol\":4055:4060  a / b */\n      tag_212\n      jump\t// in\n        /* \"node_modules/@openzeppelin/contracts/utils/math/SafeMath.sol\":2833:2931  function add(uint256 a, uint256 b) internal pure returns (uint256) {... */\n    tag_168:\n        /* \"node_modules/@openzeppelin/contracts/utils/math/SafeMath.sol\":2891:2898  uint256 */\n      0x00\n        /* \"node_modules/@openzeppelin/contracts/utils/math/SafeMath.sol\":2918:2923  a + b */\n      tag_160\n        /* \"node_modules/@openzeppelin/contracts/utils/math/SafeMath.sol\":2922:2923  b */\n      dup3\n        /* \"node_modules/@openzeppelin/contracts/utils/math/SafeMath.sol\":2918:2919  a */\n      dup5\n        /* \"node_modules/@openzeppelin/contracts/utils/math/SafeMath.sol\":2918:2923  a + b */\n      tag_214\n      jump\t// in\n        /* \"inviter_presell/adminable.sol\":1443:1634  function _transferOwnership(address newOwner) internal virtual {... */\n    tag_246:\n        /* \"inviter_presell/adminable.sol\":1536:1542  _owner */\n      0x01\n      dup1\n      sload\n      sub(shl(0xa0, 0x01), 0x01)\n        /* \"inviter_presell/adminable.sol\":1553:1570  _owner = newOwner */\n      dup4\n      dup2\n      and\n      not(sub(shl(0xa0, 0x01), 0x01))\n      dup4\n      and\n      dup2\n      or\n      swap1\n      swap4\n      sstore\n        /* \"inviter_presell/adminable.sol\":1586:1626  OwnershipTransferred(oldOwner, newOwner) */\n      mload(0x40)\n        /* \"inviter_presell/adminable.sol\":1536:1542  _owner */\n      swap2\n      and\n      swap2\n        /* \"inviter_presell/adminable.sol\":1553:1570  _owner = newOwner */\n      swap1\n        /* \"inviter_presell/adminable.sol\":1536:1542  _owner */\n      dup3\n      swap1\n        /* \"inviter_presell/adminable.sol\":1586:1626  OwnershipTransferred(oldOwner, newOwner) */\n      0x8be0079c531659141344cd1fd0a4f28419497f9722a3daafe3b4186f6b6457e0\n      swap1\n        /* \"inviter_presell/adminable.sol\":1517:1533  address oldOwner */\n      0x00\n      swap1\n        /* \"inviter_presell/adminable.sol\":1586:1626  OwnershipTransferred(oldOwner, newOwner) */\n      log3\n        /* \"inviter_presell/adminable.sol\":1506:1634  {... */\n      pop\n        /* \"inviter_presell/adminable.sol\":1443:1634  function _transferOwnership(address newOwner) internal virtual {... */\n      pop\n      jump\t// out\n        /* \"inviter_presell/stake.sol\":3269:3491  function _getRewardRate(uint256 time) private view returns (uint256) {... */\n    tag_301:\n        /* \"inviter_presell/stake.sol\":3329:3336  uint256 */\n      0x00\n        /* \"inviter_presell/stake.sol\":3349:3370  uint256 curPoolAmount */\n      dup1\n        /* \"inviter_presell/stake.sol\":3373:3392  getRewardPool(time) */\n      tag_370\n        /* \"inviter_presell/stake.sol\":3387:3391  time */\n      dup4\n        /* \"inviter_presell/stake.sol\":3373:3386  getRewardPool */\n      tag_80\n        /* \"inviter_presell/stake.sol\":3373:3392  getRewardPool(time) */\n      jump\t// in\n    tag_370:\n        /* \"inviter_presell/stake.sol\":3349:3392  uint256 curPoolAmount = getRewardPool(time) */\n      swap1\n      pop\n        /* \"inviter_presell/stake.sol\":3403:3421  uint256 rewardRate */\n      0x00\n        /* \"inviter_presell/stake.sol\":3424:3455  curPoolAmount.div(rateInterval) */\n      tag_237\n        /* \"inviter_presell/stake.sol\":3442:3454  rateInterval */\n      sload(0x07)\n        /* \"inviter_presell/stake.sol\":3424:3437  curPoolAmount */\n      dup4\n        /* \"inviter_presell/stake.sol\":3424:3441  curPoolAmount.div */\n      tag_167\n      swap1\n        /* \"inviter_presell/stake.sol\":3424:3455  curPoolAmount.div(rateInterval) */\n      swap2\n      swap1\n      0xffffffff\n      and\n      jump\t// in\n        /* \"#utility.yul\":14:187   */\n    tag_372:\n        /* \"#utility.yul\":82:102   */\n      dup1\n      calldataload\n      sub(shl(0xa0, 0x01), 0x01)\n        /* \"#utility.yul\":131:162   */\n      dup2\n      and\n        /* \"#utility.yul\":121:163   */\n      dup2\n      eq\n        /* \"#utility.yul\":111:181   */\n      tag_378\n      jumpi\n        /* \"#utility.yul\":177:178   */\n      0x00\n        /* \"#utility.yul\":174:175   */\n      dup1\n        /* \"#utility.yul\":167:179   */\n      revert\n        /* \"#utility.yul\":111:181   */\n    tag_378:\n        /* \"#utility.yul\":14:187   */\n      swap2\n      swap1\n      pop\n      jump\t// out\n        /* \"#utility.yul\":192:378   */\n    tag_45:\n        /* \"#utility.yul\":251:257   */\n      0x00\n        /* \"#utility.yul\":304:306   */\n      0x20\n        /* \"#utility.yul\":292:301   */\n      dup3\n        /* \"#utility.yul\":283:290   */\n      dup5\n        /* \"#utility.yul\":279:302   */\n      sub\n        /* \"#utility.yul\":275:307   */\n      slt\n        /* \"#utility.yul\":272:324   */\n      iszero\n      tag_380\n      jumpi\n        /* \"#utility.yul\":320:321   */\n      0x00\n        /* \"#utility.yul\":317:318   */\n      dup1\n        /* \"#utility.yul\":310:322   */\n      revert\n        /* \"#utility.yul\":272:324   */\n    tag_380:\n        /* \"#utility.yul\":343:372   */\n      tag_160\n        /* \"#utility.yul\":362:371   */\n      dup3\n        /* \"#utility.yul\":343:372   */\n      tag_372\n      jump\t// in\n        /* \"#utility.yul\":565:683   */\n    tag_373:\n        /* \"#utility.yul\":651:656   */\n      dup1\n        /* \"#utility.yul\":644:657   */\n      iszero\n        /* \"#utility.yul\":637:658   */\n      iszero\n        /* \"#utility.yul\":630:635   */\n      dup2\n        /* \"#utility.yul\":627:659   */\n      eq\n        /* \"#utility.yul\":617:677   */\n      tag_348\n      jumpi\n        /* \"#utility.yul\":673:674   */\n      0x00\n        /* \"#utility.yul\":670:671   */\n      dup1\n        /* \"#utility.yul\":663:675   */\n      revert\n        /* \"#utility.yul\":688:1003   */\n    tag_58:\n        /* \"#utility.yul\":753:759   */\n      0x00\n        /* \"#utility.yul\":761:767   */\n      dup1\n        /* \"#utility.yul\":814:816   */\n      0x40\n        /* \"#utility.yul\":802:811   */\n      dup4\n        /* \"#utility.yul\":793:800   */\n      dup6\n        /* \"#utility.yul\":789:812   */\n      sub\n        /* \"#utility.yul\":785:817   */\n      slt\n        /* \"#utility.yul\":782:834   */\n      iszero\n      tag_386\n      jumpi\n        /* \"#utility.yul\":830:831   */\n      0x00\n        /* \"#utility.yul\":827:828   */\n      dup1\n        /* \"#utility.yul\":820:832   */\n      revert\n        /* \"#utility.yul\":782:834   */\n    tag_386:\n        /* \"#utility.yul\":853:882   */\n      tag_387\n        /* \"#utility.yul\":872:881   */\n      dup4\n        /* \"#utility.yul\":853:882   */\n      tag_372\n      jump\t// in\n    tag_387:\n        /* \"#utility.yul\":843:882   */\n      swap2\n      pop\n        /* \"#utility.yul\":932:934   */\n      0x20\n        /* \"#utility.yul\":921:930   */\n      dup4\n        /* \"#utility.yul\":917:935   */\n      add\n        /* \"#utility.yul\":904:936   */\n      calldataload\n        /* \"#utility.yul\":945:973   */\n      tag_388\n        /* \"#utility.yul\":967:972   */\n      dup2\n        /* \"#utility.yul\":945:973   */\n      tag_373\n      jump\t// in\n    tag_388:\n        /* \"#utility.yul\":992:997   */\n      dup1\n        /* \"#utility.yul\":982:997   */\n      swap2\n      pop\n      pop\n        /* \"#utility.yul\":688:1003   */\n      swap3\n      pop\n      swap3\n      swap1\n      pop\n      jump\t// out\n        /* \"#utility.yul\":1200:1380   */\n    tag_72:\n        /* \"#utility.yul\":1259:1265   */\n      0x00\n        /* \"#utility.yul\":1312:1314   */\n      0x20\n        /* \"#utility.yul\":1300:1309   */\n      dup3\n        /* \"#utility.yul\":1291:1298   */\n      dup5\n        /* \"#utility.yul\":1287:1310   */\n      sub\n        /* \"#utility.yul\":1283:1315   */\n      slt\n        /* \"#utility.yul\":1280:1332   */\n      iszero\n      tag_391\n      jumpi\n        /* \"#utility.yul\":1328:1329   */\n      0x00\n        /* \"#utility.yul\":1325:1326   */\n      dup1\n        /* \"#utility.yul\":1318:1330   */\n      revert\n        /* \"#utility.yul\":1280:1332   */\n    tag_391:\n      pop\n        /* \"#utility.yul\":1351:1374   */\n      calldataload\n      swap2\n        /* \"#utility.yul\":1200:1380   */\n      swap1\n      pop\n      jump\t// out\n        /* \"#utility.yul\":1593:1847   */\n    tag_126:\n        /* \"#utility.yul\":1661:1667   */\n      0x00\n        /* \"#utility.yul\":1669:1675   */\n      dup1\n        /* \"#utility.yul\":1722:1724   */\n      0x40\n        /* \"#utility.yul\":1710:1719   */\n      dup4\n        /* \"#utility.yul\":1701:1708   */\n      dup6\n        /* \"#utility.yul\":1697:1720   */\n      sub\n        /* \"#utility.yul\":1693:1725   */\n      slt\n        /* \"#utility.yul\":1690:1742   */\n      iszero\n      tag_394\n      jumpi\n        /* \"#utility.yul\":1738:1739   */\n      0x00\n        /* \"#utility.yul\":1735:1736   */\n      dup1\n        /* \"#utility.yul\":1728:1740   */\n      revert\n        /* \"#utility.yul\":1690:1742   */\n    tag_394:\n        /* \"#utility.yul\":1761:1790   */\n      tag_395\n        /* \"#utility.yul\":1780:1789   */\n      dup4\n        /* \"#utility.yul\":1761:1790   */\n      tag_372\n      jump\t// in\n    tag_395:\n        /* \"#utility.yul\":1751:1790   */\n      swap5\n        /* \"#utility.yul\":1837:1839   */\n      0x20\n        /* \"#utility.yul\":1822:1840   */\n      swap4\n      swap1\n      swap4\n      add\n        /* \"#utility.yul\":1809:1841   */\n      calldataload\n      swap4\n      pop\n      pop\n      pop\n        /* \"#utility.yul\":1593:1847   */\n      jump\t// out\n        /* \"#utility.yul\":2075:2323   */\n    tag_147:\n        /* \"#utility.yul\":2143:2149   */\n      0x00\n        /* \"#utility.yul\":2151:2157   */\n      dup1\n        /* \"#utility.yul\":2204:2206   */\n      0x40\n        /* \"#utility.yul\":2192:2201   */\n      dup4\n        /* \"#utility.yul\":2183:2190   */\n      dup6\n        /* \"#utility.yul\":2179:2202   */\n      sub\n        /* \"#utility.yul\":2175:2207   */\n      slt\n        /* \"#utility.yul\":2172:2224   */\n      iszero\n      tag_398\n      jumpi\n        /* \"#utility.yul\":2220:2221   */\n      0x00\n        /* \"#utility.yul\":2217:2218   */\n      dup1\n        /* \"#utility.yul\":2210:2222   */\n      revert\n        /* \"#utility.yul\":2172:2224   */\n    tag_398:\n      pop\n      pop\n        /* \"#utility.yul\":2243:2266   */\n      dup1\n      calldataload\n      swap3\n        /* \"#utility.yul\":2313:2315   */\n      0x20\n        /* \"#utility.yul\":2298:2316   */\n      swap1\n      swap2\n      add\n        /* \"#utility.yul\":2285:2317   */\n      calldataload\n      swap2\n      pop\n        /* \"#utility.yul\":2075:2323   */\n      jump\t// out\n        /* \"#utility.yul\":2328:2726   */\n    tag_175:\n        /* \"#utility.yul\":2530:2532   */\n      0x20\n        /* \"#utility.yul\":2512:2533   */\n      dup1\n      dup3\n      mstore\n        /* \"#utility.yul\":2569:2571   */\n      0x22\n        /* \"#utility.yul\":2549:2567   */\n      swap1\n      dup3\n      add\n        /* \"#utility.yul\":2542:2572   */\n      mstore\n        /* \"#utility.yul\":2608:2642   */\n      0x41646d696e61626c653a2063616c6c6572206973206e6f7420746865206f776e\n        /* \"#utility.yul\":2603:2605   */\n      0x40\n        /* \"#utility.yul\":2588:2606   */\n      dup3\n      add\n        /* \"#utility.yul\":2581:2643   */\n      mstore\n      shl(0xf1, 0x32b9)\n        /* \"#utility.yul\":2674:2676   */\n      0x60\n        /* \"#utility.yul\":2659:2677   */\n      dup3\n      add\n        /* \"#utility.yul\":2652:2684   */\n      mstore\n        /* \"#utility.yul\":2716:2719   */\n      0x80\n        /* \"#utility.yul\":2701:2720   */\n      add\n      swap1\n        /* \"#utility.yul\":2328:2726   */\n      jump\t// out\n        /* \"#utility.yul\":3643:3888   */\n    tag_198:\n        /* \"#utility.yul\":3710:3716   */\n      0x00\n        /* \"#utility.yul\":3763:3765   */\n      0x20\n        /* \"#utility.yul\":3751:3760   */\n      dup3\n        /* \"#utility.yul\":3742:3749   */\n      dup5\n        /* \"#utility.yul\":3738:3761   */\n      sub\n        /* \"#utility.yul\":3734:3766   */\n      slt\n        /* \"#utility.yul\":3731:3783   */\n      iszero\n      tag_404\n      jumpi\n        /* \"#utility.yul\":3779:3780   */\n      0x00\n        /* \"#utility.yul\":3776:3777   */\n      dup1\n        /* \"#utility.yul\":3769:3781   */\n      revert\n        /* \"#utility.yul\":3731:3783   */\n    tag_404:\n        /* \"#utility.yul\":3811:3820   */\n      dup2\n        /* \"#utility.yul\":3805:3821   */\n      mload\n        /* \"#utility.yul\":3830:3858   */\n      tag_160\n        /* \"#utility.yul\":3852:3857   */\n      dup2\n        /* \"#utility.yul\":3830:3858   */\n      tag_373\n      jump\t// in\n        /* \"#utility.yul\":3893:4291   */\n    tag_205:\n        /* \"#utility.yul\":4095:4097   */\n      0x20\n        /* \"#utility.yul\":4077:4098   */\n      dup1\n      dup3\n      mstore\n        /* \"#utility.yul\":4134:4136   */\n      0x22\n        /* \"#utility.yul\":4114:4132   */\n      swap1\n      dup3\n      add\n        /* \"#utility.yul\":4107:4137   */\n      mstore\n        /* \"#utility.yul\":4173:4207   */\n      0x41646d696e61626c653a2063616c6c6572206973206e6f74207468652061646d\n        /* \"#utility.yul\":4168:4170   */\n      0x40\n        /* \"#utility.yul\":4153:4171   */\n      dup3\n      add\n        /* \"#utility.yul\":4146:4208   */\n      mstore\n      shl(0xf1, 0x34b7)\n        /* \"#utility.yul\":4239:4241   */\n      0x60\n        /* \"#utility.yul\":4224:4242   */\n      dup3\n      add\n        /* \"#utility.yul\":4217:4249   */\n      mstore\n        /* \"#utility.yul\":4281:4284   */\n      0x80\n        /* \"#utility.yul\":4266:4285   */\n      add\n      swap1\n        /* \"#utility.yul\":3893:4291   */\n      jump\t// out\n        /* \"#utility.yul\":4296:4423   */\n    tag_374:\n        /* \"#utility.yul\":4357:4367   */\n      0x4e487b71\n        /* \"#utility.yul\":4352:4355   */\n      0xe0\n        /* \"#utility.yul\":4348:4368   */\n      shl\n        /* \"#utility.yul\":4345:4346   */\n      0x00\n        /* \"#utility.yul\":4338:4369   */\n      mstore\n        /* \"#utility.yul\":4388:4392   */\n      0x11\n        /* \"#utility.yul\":4385:4386   */\n      0x04\n        /* \"#utility.yul\":4378:4393   */\n      mstore\n        /* \"#utility.yul\":4412:4416   */\n      0x24\n        /* \"#utility.yul\":4409:4410   */\n      0x00\n        /* \"#utility.yul\":4402:4417   */\n      revert\n        /* \"#utility.yul\":4428:4556   */\n    tag_210:\n        /* \"#utility.yul\":4495:4504   */\n      dup2\n      dup2\n      sub\n        /* \"#utility.yul\":4516:4527   */\n      dup2\n      dup2\n      gt\n        /* \"#utility.yul\":4513:4550   */\n      iszero\n      tag_250\n      jumpi\n        /* \"#utility.yul\":4530:4548   */\n      tag_250\n      tag_374\n      jump\t// in\n        /* \"#utility.yul\":4561:4688   */\n    tag_375:\n        /* \"#utility.yul\":4622:4632   */\n      0x4e487b71\n        /* \"#utility.yul\":4617:4620   */\n      0xe0\n        /* \"#utility.yul\":4613:4633   */\n      shl\n        /* \"#utility.yul\":4610:4611   */\n      0x00\n        /* \"#utility.yul\":4603:4634   */\n      mstore\n        /* \"#utility.yul\":4653:4657   */\n      0x12\n        /* \"#utility.yul\":4650:4651   */\n      0x04\n        /* \"#utility.yul\":4643:4658   */\n      mstore\n        /* \"#utility.yul\":4677:4681   */\n      0x24\n        /* \"#utility.yul\":4674:4675   */\n      0x00\n        /* \"#utility.yul\":4667:4682   */\n      revert\n        /* \"#utility.yul\":4693:4813   */\n    tag_212:\n        /* \"#utility.yul\":4733:4734   */\n      0x00\n        /* \"#utility.yul\":4759:4760   */\n      dup3\n        /* \"#utility.yul\":4749:4784   */\n      tag_414\n      jumpi\n        /* \"#utility.yul\":4764:4782   */\n      tag_414\n      tag_375\n      jump\t// in\n    tag_414:\n      pop\n        /* \"#utility.yul\":4798:4807   */\n      div\n      swap1\n        /* \"#utility.yul\":4693:4813   */\n      jump\t// out\n        /* \"#utility.yul\":4818:4943   */\n    tag_214:\n        /* \"#utility.yul\":4883:4892   */\n      dup1\n      dup3\n      add\n        /* \"#utility.yul\":4904:4914   */\n      dup1\n      dup3\n      gt\n        /* \"#utility.yul\":4901:4937   */\n      iszero\n      tag_250\n      jumpi\n        /* \"#utility.yul\":4917:4935   */\n      tag_250\n      tag_374\n      jump\t// in\n        /* \"#utility.yul\":4948:5116   */\n    tag_219:\n        /* \"#utility.yul\":5021:5030   */\n      dup1\n      dup3\n      mul\n        /* \"#utility.yul\":5052:5061   */\n      dup2\n      iszero\n        /* \"#utility.yul\":5069:5084   */\n      dup3\n      dup3\n      div\n        /* \"#utility.yul\":5063:5085   */\n      dup5\n      eq\n        /* \"#utility.yul\":5049:5086   */\n      or\n        /* \"#utility.yul\":5039:5110   */\n      tag_250\n      jumpi\n        /* \"#utility.yul\":5090:5108   */\n      tag_250\n      tag_374\n      jump\t// in\n        /* \"#utility.yul\":5121:5256   */\n    tag_223:\n        /* \"#utility.yul\":5160:5163   */\n      0x00\n        /* \"#utility.yul\":5181:5198   */\n      0x01\n      dup3\n      add\n        /* \"#utility.yul\":5178:5221   */\n      tag_423\n      jumpi\n        /* \"#utility.yul\":5201:5219   */\n      tag_423\n      tag_374\n      jump\t// in\n    tag_423:\n      pop\n        /* \"#utility.yul\":5248:5249   */\n      0x01\n        /* \"#utility.yul\":5237:5250   */\n      add\n      swap1\n        /* \"#utility.yul\":5121:5256   */\n      jump\t// out\n        /* \"#utility.yul\":5604:5716   */\n    tag_309:\n        /* \"#utility.yul\":5636:5637   */\n      0x00\n        /* \"#utility.yul\":5662:5663   */\n      dup3\n        /* \"#utility.yul\":5652:5687   */\n      tag_427\n      jumpi\n        /* \"#utility.yul\":5667:5685   */\n      tag_427\n      tag_375\n      jump\t// in\n    tag_427:\n      pop\n        /* \"#utility.yul\":5701:5710   */\n      mod\n      swap1\n        /* \"#utility.yul\":5604:5716   */\n      jump\t// out\n\n    auxdata: 0xa26469706673582212209d98e36d622ea2d5e7b534896534cd7fea55bebeaed9806c23ddc03ef2d98ab964736f6c63430008110033\n}\n",
				"bytecode": {
					"linkReferences": {},
					"object": "60806040526815af1d78b58c400000600555603c60075560056008556103e860095534801561002d57600080fd5b5061003733610041565b6001600255610093565b600180546001600160a01b038381166001600160a01b0319831681179093556040519116919082907f8be0079c531659141344cd1fd0a4f28419497f9722a3daafe3b4186f6b6457e090600090a35050565b611210806100a26000396000f3fe608060405234801561001057600080fd5b50600436106101fa5760003560e01c80638107368b1161011a578063adc9772e116100ad578063d1af0c7d1161007c578063d1af0c7d1461040d578063da4f843114610420578063db2e21bc14610433578063df136d651461043b578063f2fde38b1461044457600080fd5b8063adc9772e146103c0578063b79ec812146103d3578063c8f33c91146103fc578063cdda56e01461040557600080fd5b80638da5cb5b116100e95780638da5cb5b146103805780639499c549146103a55780639a5b17b014610314578063a4c3b091146103ad57600080fd5b80638107368b1461031a578063874c120b1461033a5780638aee81271461034d5780638b8763471461036057600080fd5b80634dbdc4eb11610192578063715018a611610161578063715018a6146102fa57806378e97925146103025780637a6fcee71461030b57806380faa57d1461031457600080fd5b80634dbdc4eb146102c35780635cfa91f4146102d65780636139d4b4146102e95780636917c501146102f257600080fd5b806324d7806c116101ce57806324d7806c146102635780633c4045cf1461029f5780633d18b912146102a85780633e0a322d146102b057600080fd5b80628cc262146101ff5780630700037d146102255780630e15561a1461024557806318e20ecf1461024e575b600080fd5b61021261020d366004610fca565b610457565b6040519081526020015b60405180910390f35b610212610233366004610fca565b60046020526000908152604090205481565b61021260055481565b61026161025c366004610ff3565b6104ff565b005b61028f610271366004610fca565b6001600160a01b031660009081526020819052604090205460ff1690565b604051901515815260200161021c565b61021260085481565b6102616105b8565b6102616102be36600461102a565b610775565b6102126102d136600461102a565b61079f565b6102126102e436600461102a565b61082a565b61021260075481565b600e54610212565b6102616108d0565b61021260065481565b61021260095481565b42610212565b610212610328366004610fca565b600d6020526000908152604090205481565b61021261034836600461102a565b610906565b61026161035b366004610fca565b610955565b61021261036e366004610fca565b600c6020526000908152604090205481565b6001546001600160a01b03165b6040516001600160a01b03909116815260200161021c565b6102126109a1565b6102616103bb366004611043565b6109b1565b6102616103ce366004611043565b610a51565b6102126103e1366004610fca565b6001600160a01b03166000908152600f602052604090205490565b610212600a5481565b610212610c29565b60035461038d906001600160a01b031681565b61021261042e36600461106d565b610c34565b610261610e09565b610212600b5481565b610261610452366004610fca565b610e6f565b6001600160a01b0381166000908152600d6020526040812054819061047c9042610c34565b6001600160a01b038416600090815260046020908152604080832054600c909252909120549192506104f8916104f290670de0b6b3a7640000906104ec906104cd906104c788610906565b90610f07565b6001600160a01b0389166000908152600f602052604090205490610f13565b90610f1f565b90610f2b565b9392505050565b6001546001600160a01b031633146105325760405162461bcd60e51b81526004016105299061108f565b60405180910390fd5b6001600160a01b0382166000818152602081815260409182902054825160ff90911615158152841515918101919091527f82f1fa40a3d82dea3e406073819290601f436580aa7c69f9feb61f885bdd8854910160405180910390a26001600160a01b03919091166000908152602081905260409020805460ff1916911515919091179055565b60028054036106095760405162461bcd60e51b815260206004820152601f60248201527f5265656e7472616e637947756172643a207265656e7472616e742063616c6c006044820152606401610529565b60028055336000818152600d6020526040902054600654811161062b57506006545b60006106378242610c34565b905061064281610906565b600b5542600a556001600160a01b038316156106945761066183610457565b6001600160a01b038416600090815260046020908152604080832093909355600b54600c825283832055600d9052204290555b33600090815260046020526040902054801561076a5733600081815260046020819052604080832092909255600354915163a9059cbb60e01b815290810192909252602482018390526001600160a01b03169063a9059cbb906044016020604051808303816000875af115801561070f573d6000803e3d6000fd5b505050506040513d601f19601f8201168201806040525081019061073391906110d1565b5060405181815233907fe2403640ba68fed3a2f88b7557551d1993f84b99bb10ff833f0cf8db0c5e04869060200160405180910390a25b505060016002555050565b61077e33610271565b61079a5760405162461bcd60e51b8152600401610529906110ee565b600655565b60006006546000036107b357505060065490565b6000600754600654846107c69190611146565b6107d0919061116f565b6107db906001611183565b60055490915060005b82811015610822576009546008546107fc9084611196565b610806919061116f565b6108109083611146565b915061081b816111ad565b90506107e4565b509392505050565b600060065460000361083e57505060065490565b6000600754600654846108519190611146565b61085b919061116f565b610866906001611183565b60055490915060005b828110156108ad576009546008546108879084611196565b610891919061116f565b61089b9083611146565b91506108a6816111ad565b905061086f565b506009546008546108be9083611196565b6108c8919061116f565b949350505050565b6001546001600160a01b031633146108fa5760405162461bcd60e51b81526004016105299061108f565b6109046000610f37565b565b6000600e5460000361091a575050600b5490565b61094f610946600e546104ec670de0b6b3a764000061094087610940600a546104c74290565b90610f13565b600b5490610f2b565b92915050565b6001546001600160a01b0316331461097f5760405162461bcd60e51b81526004016105299061108f565b600380546001600160a01b0319166001600160a01b0392909216919091179055565b60006109ac4261082a565b905090565b6001546001600160a01b031633146109db5760405162461bcd60e51b81526004016105299061108f565b60405163a9059cbb60e01b8152336004820152602481018290526001600160a01b0383169063a9059cbb906044016020604051808303816000875af1158015610a28573d6000803e3d6000fd5b505050506040513d601f19601f82011682018060405250810190610a4c91906110d1565b505050565b6002805403610aa25760405162461bcd60e51b815260206004820152601f60248201527f5265656e7472616e637947756172643a207265656e7472616e742063616c6c006044820152606401610529565b60028055610aaf33610271565b610acb5760405162461bcd60e51b8152600401610529906110ee565b336000818152600d60205260409020546006548111610ae957506006545b6000610af58242610c34565b9050610b0081610906565b600b5542600a556001600160a01b03831615610b5257610b1f83610457565b6001600160a01b038416600090815260046020908152604080832093909355600b54600c825283832055600d9052204290555b60008411610b935760405162461bcd60e51b815260206004820152600e60248201526d043616e6e6f74207374616b6520360941b6044820152606401610529565b600e54610ba09085610f2b565b600e556001600160a01b0385166000908152600f6020526040902054610bc69085610f2b565b6001600160a01b0386166000818152600f6020526040908190209290925590517f9e71bc8eea02a63969f509818f2dafb9254532904319f9dbda79b67bd34a5f3d90610c159087815260200190565b60405180910390a250506001600255505050565b60006109ac42610f89565b600060065460001480610c475750818310155b80610c50575082155b15610c5d5750600061094f565b600654831015610c6d5760065492505b600060075460075460065486610c839190611146565b610c8d91906111c6565b600754610c9a9190611146565b610ca491906111c6565b9050600060075482610cb58761082a565b610cbf9190611196565b610cc9919061116f565b9050600060075460065486610cde9190611146565b610ce891906111c6565b9050600060075482610cf98861082a565b610d039190611196565b610d0d919061116f565b905085610d1a8589611183565b1115610d3457610d2987610f89565b94505050505061094f565b60008488610d42858a611146565b610d4c9190611146565b610d569190611146565b90506000610d638961079f565b90506000806000839050600060075486610d7d919061116f565b905060005b81811015610dce57600954600854610d9a9085611196565b610da4919061116f565b9350610db08484611146565b9250610dbc8486611183565b9450610dc7816111ad565b9050610d82565b50610dd98d8d611146565b87610de48b87611183565b610dee9190611183565b610df8919061116f565b9d9c50505050505050505050505050565b6001546001600160a01b03163314610e335760405162461bcd60e51b81526004016105299061108f565b6001546040516001600160a01b03909116904780156108fc02916000818181858888f19350505050158015610e6c573d6000803e3d6000fd5b50565b6001546001600160a01b03163314610e995760405162461bcd60e51b81526004016105299061108f565b6001600160a01b038116610efe5760405162461bcd60e51b815260206004820152602660248201527f4f776e61626c653a206e6577206f776e657220697320746865207a65726f206160448201526564647265737360d01b6064820152608401610529565b610e6c81610f37565b60006104f88284611146565b60006104f88284611196565b60006104f8828461116f565b60006104f88284611183565b600180546001600160a01b038381166001600160a01b0319831681179093556040519116919082907f8be0079c531659141344cd1fd0a4f28419497f9722a3daafe3b4186f6b6457e090600090a35050565b600080610f958361082a565b905060006108c860075483610f1f90919063ffffffff16565b80356001600160a01b0381168114610fc557600080fd5b919050565b600060208284031215610fdc57600080fd5b6104f882610fae565b8015158114610e6c57600080fd5b6000806040838503121561100657600080fd5b61100f83610fae565b9150602083013561101f81610fe5565b809150509250929050565b60006020828403121561103c57600080fd5b5035919050565b6000806040838503121561105657600080fd5b61105f83610fae565b946020939093013593505050565b6000806040838503121561108057600080fd5b50508035926020909101359150565b60208082526022908201527f41646d696e61626c653a2063616c6c6572206973206e6f7420746865206f776e60408201526132b960f11b606082015260800190565b6000602082840312156110e357600080fd5b81516104f881610fe5565b60208082526022908201527f41646d696e61626c653a2063616c6c6572206973206e6f74207468652061646d60408201526134b760f11b606082015260800190565b634e487b7160e01b600052601160045260246000fd5b8181038181111561094f5761094f611130565b634e487b7160e01b600052601260045260246000fd5b60008261117e5761117e611159565b500490565b8082018082111561094f5761094f611130565b808202811582820484141761094f5761094f611130565b6000600182016111bf576111bf611130565b5060010190565b6000826111d5576111d5611159565b50069056fea26469706673582212209d98e36d622ea2d5e7b534896534cd7fea55bebeaed9806c23ddc03ef2d98ab964736f6c63430008110033",
					"opcodes": "PUSH1 0x80 PUSH1 0x40 MSTORE PUSH9 0x15AF1D78B58C400000 PUSH1 0x5 SSTORE PUSH1 0x3C PUSH1 0x7 SSTORE PUSH1 0x5 PUSH1 0x8 SSTORE PUSH2 0x3E8 PUSH1 0x9 SSTORE CALLVALUE DUP1 ISZERO PUSH2 0x2D JUMPI PUSH1 0x0 DUP1 REVERT JUMPDEST POP PUSH2 0x37 CALLER PUSH2 0x41 JUMP JUMPDEST PUSH1 0x1 PUSH1 0x2 SSTORE PUSH2 0x93 JUMP JUMPDEST PUSH1 0x1 DUP1 SLOAD PUSH1 0x1 PUSH1 0x1 PUSH1 0xA0 SHL SUB DUP4 DUP2 AND PUSH1 0x1 PUSH1 0x1 PUSH1 0xA0 SHL SUB NOT DUP4 AND DUP2 OR SWAP1 SWAP4 SSTORE PUSH1 0x40 MLOAD SWAP2 AND SWAP2 SWAP1 DUP3 SWAP1 PUSH32 0x8BE0079C531659141344CD1FD0A4F28419497F9722A3DAAFE3B4186F6B6457E0 SWAP1 PUSH1 0x0 SWAP1 LOG3 POP POP JUMP JUMPDEST PUSH2 0x1210 DUP1 PUSH2 0xA2 PUSH1 0x0 CODECOPY PUSH1 0x0 RETURN INVALID PUSH1 0x80 PUSH1 0x40 MSTORE CALLVALUE DUP1 ISZERO PUSH2 0x10 JUMPI PUSH1 0x0 DUP1 REVERT JUMPDEST POP PUSH1 0x4 CALLDATASIZE LT PUSH2 0x1FA JUMPI PUSH1 0x0 CALLDATALOAD PUSH1 0xE0 SHR DUP1 PUSH4 0x8107368B GT PUSH2 0x11A JUMPI DUP1 PUSH4 0xADC9772E GT PUSH2 0xAD JUMPI DUP1 PUSH4 0xD1AF0C7D GT PUSH2 0x7C JUMPI DUP1 PUSH4 0xD1AF0C7D EQ PUSH2 0x40D JUMPI DUP1 PUSH4 0xDA4F8431 EQ PUSH2 0x420 JUMPI DUP1 PUSH4 0xDB2E21BC EQ PUSH2 0x433 JUMPI DUP1 PUSH4 0xDF136D65 EQ PUSH2 0x43B JUMPI DUP1 PUSH4 0xF2FDE38B EQ PUSH2 0x444 JUMPI PUSH1 0x0 DUP1 REVERT JUMPDEST DUP1 PUSH4 0xADC9772E EQ PUSH2 0x3C0 JUMPI DUP1 PUSH4 0xB79EC812 EQ PUSH2 0x3D3 JUMPI DUP1 PUSH4 0xC8F33C91 EQ PUSH2 0x3FC JUMPI DUP1 PUSH4 0xCDDA56E0 EQ PUSH2 0x405 JUMPI PUSH1 0x0 DUP1 REVERT JUMPDEST DUP1 PUSH4 0x8DA5CB5B GT PUSH2 0xE9 JUMPI DUP1 PUSH4 0x8DA5CB5B EQ PUSH2 0x380 JUMPI DUP1 PUSH4 0x9499C549 EQ PUSH2 0x3A5 JUMPI DUP1 PUSH4 0x9A5B17B0 EQ PUSH2 0x314 JUMPI DUP1 PUSH4 0xA4C3B091 EQ PUSH2 0x3AD JUMPI PUSH1 0x0 DUP1 REVERT JUMPDEST DUP1 PUSH4 0x8107368B EQ PUSH2 0x31A JUMPI DUP1 PUSH4 0x874C120B EQ PUSH2 0x33A JUMPI DUP1 PUSH4 0x8AEE8127 EQ PUSH2 0x34D JUMPI DUP1 PUSH4 0x8B876347 EQ PUSH2 0x360 JUMPI PUSH1 0x0 DUP1 REVERT JUMPDEST DUP1 PUSH4 0x4DBDC4EB GT PUSH2 0x192 JUMPI DUP1 PUSH4 0x715018A6 GT PUSH2 0x161 JUMPI DUP1 PUSH4 0x715018A6 EQ PUSH2 0x2FA JUMPI DUP1 PUSH4 0x78E97925 EQ PUSH2 0x302 JUMPI DUP1 PUSH4 0x7A6FCEE7 EQ PUSH2 0x30B JUMPI DUP1 PUSH4 0x80FAA57D EQ PUSH2 0x314 JUMPI PUSH1 0x0 DUP1 REVERT JUMPDEST DUP1 PUSH4 0x4DBDC4EB EQ PUSH2 0x2C3 JUMPI DUP1 PUSH4 0x5CFA91F4 EQ PUSH2 0x2D6 JUMPI DUP1 PUSH4 0x6139D4B4 EQ PUSH2 0x2E9 JUMPI DUP1 PUSH4 0x6917C501 EQ PUSH2 0x2F2 JUMPI PUSH1 0x0 DUP1 REVERT JUMPDEST DUP1 PUSH4 0x24D7806C GT PUSH2 0x1CE JUMPI DUP1 PUSH4 0x24D7806C EQ PUSH2 0x263 JUMPI DUP1 PUSH4 0x3C4045CF EQ PUSH2 0x29F JUMPI DUP1 PUSH4 0x3D18B912 EQ PUSH2 0x2A8 JUMPI DUP1 PUSH4 0x3E0A322D EQ PUSH2 0x2B0 JUMPI PUSH1 0x0 DUP1 REVERT JUMPDEST DUP1 PUSH3 0x8CC262 EQ PUSH2 0x1FF JUMPI DUP1 PUSH4 0x700037D EQ PUSH2 0x225 JUMPI DUP1 PUSH4 0xE15561A EQ PUSH2 0x245 JUMPI DUP1 PUSH4 0x18E20ECF EQ PUSH2 0x24E JUMPI JUMPDEST PUSH1 0x0 DUP1 REVERT JUMPDEST PUSH2 0x212 PUSH2 0x20D CALLDATASIZE PUSH1 0x4 PUSH2 0xFCA JUMP JUMPDEST PUSH2 0x457 JUMP JUMPDEST PUSH1 0x40 MLOAD SWAP1 DUP2 MSTORE PUSH1 0x20 ADD JUMPDEST PUSH1 0x40 MLOAD DUP1 SWAP2 SUB SWAP1 RETURN JUMPDEST PUSH2 0x212 PUSH2 0x233 CALLDATASIZE PUSH1 0x4 PUSH2 0xFCA JUMP JUMPDEST PUSH1 0x4 PUSH1 0x20 MSTORE PUSH1 0x0 SWAP1 DUP2 MSTORE PUSH1 0x40 SWAP1 KECCAK256 SLOAD DUP2 JUMP JUMPDEST PUSH2 0x212 PUSH1 0x5 SLOAD DUP2 JUMP JUMPDEST PUSH2 0x261 PUSH2 0x25C CALLDATASIZE PUSH1 0x4 PUSH2 0xFF3 JUMP JUMPDEST PUSH2 0x4FF JUMP JUMPDEST STOP JUMPDEST PUSH2 0x28F PUSH2 0x271 CALLDATASIZE PUSH1 0x4 PUSH2 0xFCA JUMP JUMPDEST PUSH1 0x1 PUSH1 0x1 PUSH1 0xA0 SHL SUB AND PUSH1 0x0 SWAP1 DUP2 MSTORE PUSH1 0x20 DUP2 SWAP1 MSTORE PUSH1 0x40 SWAP1 KECCAK256 SLOAD PUSH1 0xFF AND SWAP1 JUMP JUMPDEST PUSH1 0x40 MLOAD SWAP1 ISZERO ISZERO DUP2 MSTORE PUSH1 0x20 ADD PUSH2 0x21C JUMP JUMPDEST PUSH2 0x212 PUSH1 0x8 SLOAD DUP2 JUMP JUMPDEST PUSH2 0x261 PUSH2 0x5B8 JUMP JUMPDEST PUSH2 0x261 PUSH2 0x2BE CALLDATASIZE PUSH1 0x4 PUSH2 0x102A JUMP JUMPDEST PUSH2 0x775 JUMP JUMPDEST PUSH2 0x212 PUSH2 0x2D1 CALLDATASIZE PUSH1 0x4 PUSH2 0x102A JUMP JUMPDEST PUSH2 0x79F JUMP JUMPDEST PUSH2 0x212 PUSH2 0x2E4 CALLDATASIZE PUSH1 0x4 PUSH2 0x102A JUMP JUMPDEST PUSH2 0x82A JUMP JUMPDEST PUSH2 0x212 PUSH1 0x7 SLOAD DUP2 JUMP JUMPDEST PUSH1 0xE SLOAD PUSH2 0x212 JUMP JUMPDEST PUSH2 0x261 PUSH2 0x8D0 JUMP JUMPDEST PUSH2 0x212 PUSH1 0x6 SLOAD DUP2 JUMP JUMPDEST PUSH2 0x212 PUSH1 0x9 SLOAD DUP2 JUMP JUMPDEST TIMESTAMP PUSH2 0x212 JUMP JUMPDEST PUSH2 0x212 PUSH2 0x328 CALLDATASIZE PUSH1 0x4 PUSH2 0xFCA JUMP JUMPDEST PUSH1 0xD PUSH1 0x20 MSTORE PUSH1 0x0 SWAP1 DUP2 MSTORE PUSH1 0x40 SWAP1 KECCAK256 SLOAD DUP2 JUMP JUMPDEST PUSH2 0x212 PUSH2 0x348 CALLDATASIZE PUSH1 0x4 PUSH2 0x102A JUMP JUMPDEST PUSH2 0x906 JUMP JUMPDEST PUSH2 0x261 PUSH2 0x35B CALLDATASIZE PUSH1 0x4 PUSH2 0xFCA JUMP JUMPDEST PUSH2 0x955 JUMP JUMPDEST PUSH2 0x212 PUSH2 0x36E CALLDATASIZE PUSH1 0x4 PUSH2 0xFCA JUMP JUMPDEST PUSH1 0xC PUSH1 0x20 MSTORE PUSH1 0x0 SWAP1 DUP2 MSTORE PUSH1 0x40 SWAP1 KECCAK256 SLOAD DUP2 JUMP JUMPDEST PUSH1 0x1 SLOAD PUSH1 0x1 PUSH1 0x1 PUSH1 0xA0 SHL SUB AND JUMPDEST PUSH1 0x40 MLOAD PUSH1 0x1 PUSH1 0x1 PUSH1 0xA0 SHL SUB SWAP1 SWAP2 AND DUP2 MSTORE PUSH1 0x20 ADD PUSH2 0x21C JUMP JUMPDEST PUSH2 0x212 PUSH2 0x9A1 JUMP JUMPDEST PUSH2 0x261 PUSH2 0x3BB CALLDATASIZE PUSH1 0x4 PUSH2 0x1043 JUMP JUMPDEST PUSH2 0x9B1 JUMP JUMPDEST PUSH2 0x261 PUSH2 0x3CE CALLDATASIZE PUSH1 0x4 PUSH2 0x1043 JUMP JUMPDEST PUSH2 0xA51 JUMP JUMPDEST PUSH2 0x212 PUSH2 0x3E1 CALLDATASIZE PUSH1 0x4 PUSH2 0xFCA JUMP JUMPDEST PUSH1 0x1 PUSH1 0x1 PUSH1 0xA0 SHL SUB AND PUSH1 0x0 SWAP1 DUP2 MSTORE PUSH1 0xF PUSH1 0x20 MSTORE PUSH1 0x40 SWAP1 KECCAK256 SLOAD SWAP1 JUMP JUMPDEST PUSH2 0x212 PUSH1 0xA SLOAD DUP2 JUMP JUMPDEST PUSH2 0x212 PUSH2 0xC29 JUMP JUMPDEST PUSH1 0x3 SLOAD PUSH2 0x38D SWAP1 PUSH1 0x1 PUSH1 0x1 PUSH1 0xA0 SHL SUB AND DUP2 JUMP JUMPDEST PUSH2 0x212 PUSH2 0x42E CALLDATASIZE PUSH1 0x4 PUSH2 0x106D JUMP JUMPDEST PUSH2 0xC34 JUMP JUMPDEST PUSH2 0x261 PUSH2 0xE09 JUMP JUMPDEST PUSH2 0x212 PUSH1 0xB SLOAD DUP2 JUMP JUMPDEST PUSH2 0x261 PUSH2 0x452 CALLDATASIZE PUSH1 0x4 PUSH2 0xFCA JUMP JUMPDEST PUSH2 0xE6F JUMP JUMPDEST PUSH1 0x1 PUSH1 0x1 PUSH1 0xA0 SHL SUB DUP2 AND PUSH1 0x0 SWAP1 DUP2 MSTORE PUSH1 0xD PUSH1 0x20 MSTORE PUSH1 0x40 DUP2 KECCAK256 SLOAD DUP2 SWAP1 PUSH2 0x47C SWAP1 TIMESTAMP PUSH2 0xC34 JUMP JUMPDEST PUSH1 0x1 PUSH1 0x1 PUSH1 0xA0 SHL SUB DUP5 AND PUSH1 0x0 SWAP1 DUP2 MSTORE PUSH1 0x4 PUSH1 0x20 SWAP1 DUP2 MSTORE PUSH1 0x40 DUP1 DUP4 KECCAK256 SLOAD PUSH1 0xC SWAP1 SWAP3 MSTORE SWAP1 SWAP2 KECCAK256 SLOAD SWAP2 SWAP3 POP PUSH2 0x4F8 SWAP2 PUSH2 0x4F2 SWAP1 PUSH8 0xDE0B6B3A7640000 SWAP1 PUSH2 0x4EC SWAP1 PUSH2 0x4CD SWAP1 PUSH2 0x4C7 DUP9 PUSH2 0x906 JUMP JUMPDEST SWAP1 PUSH2 0xF07 JUMP JUMPDEST PUSH1 0x1 PUSH1 0x1 PUSH1 0xA0 SHL SUB DUP10 AND PUSH1 0x0 SWAP1 DUP2 MSTORE PUSH1 0xF PUSH1 0x20 MSTORE PUSH1 0x40 SWAP1 KECCAK256 SLOAD SWAP1 PUSH2 0xF13 JUMP JUMPDEST SWAP1 PUSH2 0xF1F JUMP JUMPDEST SWAP1 PUSH2 0xF2B JUMP JUMPDEST SWAP4 SWAP3 POP POP POP JUMP JUMPDEST PUSH1 0x1 SLOAD PUSH1 0x1 PUSH1 0x1 PUSH1 0xA0 SHL SUB AND CALLER EQ PUSH2 0x532 JUMPI PUSH1 0x40 MLOAD PUSH3 0x461BCD PUSH1 0xE5 SHL DUP2 MSTORE PUSH1 0x4 ADD PUSH2 0x529 SWAP1 PUSH2 0x108F JUMP JUMPDEST PUSH1 0x40 MLOAD DUP1 SWAP2 SUB SWAP1 REVERT JUMPDEST PUSH1 0x1 PUSH1 0x1 PUSH1 0xA0 SHL SUB DUP3 AND PUSH1 0x0 DUP2 DUP2 MSTORE PUSH1 0x20 DUP2 DUP2 MSTORE PUSH1 0x40 SWAP2 DUP3 SWAP1 KECCAK256 SLOAD DUP3 MLOAD PUSH1 0xFF SWAP1 SWAP2 AND ISZERO ISZERO DUP2 MSTORE DUP5 ISZERO ISZERO SWAP2 DUP2 ADD SWAP2 SWAP1 SWAP2 MSTORE PUSH32 0x82F1FA40A3D82DEA3E406073819290601F436580AA7C69F9FEB61F885BDD8854 SWAP2 ADD PUSH1 0x40 MLOAD DUP1 SWAP2 SUB SWAP1 LOG2 PUSH1 0x1 PUSH1 0x1 PUSH1 0xA0 SHL SUB SWAP2 SWAP1 SWAP2 AND PUSH1 0x0 SWAP1 DUP2 MSTORE PUSH1 0x20 DUP2 SWAP1 MSTORE PUSH1 0x40 SWAP1 KECCAK256 DUP1 SLOAD PUSH1 0xFF NOT AND SWAP2 ISZERO ISZERO SWAP2 SWAP1 SWAP2 OR SWAP1 SSTORE JUMP JUMPDEST PUSH1 0x2 DUP1 SLOAD SUB PUSH2 0x609 JUMPI PUSH1 0x40 MLOAD PUSH3 0x461BCD PUSH1 0xE5 SHL DUP2 MSTORE PUSH1 0x20 PUSH1 0x4 DUP3 ADD MSTORE PUSH1 0x1F PUSH1 0x24 DUP3 ADD MSTORE PUSH32 0x5265656E7472616E637947756172643A207265656E7472616E742063616C6C00 PUSH1 0x44 DUP3 ADD MSTORE PUSH1 0x64 ADD PUSH2 0x529 JUMP JUMPDEST PUSH1 0x2 DUP1 SSTORE CALLER PUSH1 0x0 DUP2 DUP2 MSTORE PUSH1 0xD PUSH1 0x20 MSTORE PUSH1 0x40 SWAP1 KECCAK256 SLOAD PUSH1 0x6 SLOAD DUP2 GT PUSH2 0x62B JUMPI POP PUSH1 0x6 SLOAD JUMPDEST PUSH1 0x0 PUSH2 0x637 DUP3 TIMESTAMP PUSH2 0xC34 JUMP JUMPDEST SWAP1 POP PUSH2 0x642 DUP2 PUSH2 0x906 JUMP JUMPDEST PUSH1 0xB SSTORE TIMESTAMP PUSH1 0xA SSTORE PUSH1 0x1 PUSH1 0x1 PUSH1 0xA0 SHL SUB DUP4 AND ISZERO PUSH2 0x694 JUMPI PUSH2 0x661 DUP4 PUSH2 0x457 JUMP JUMPDEST PUSH1 0x1 PUSH1 0x1 PUSH1 0xA0 SHL SUB DUP5 AND PUSH1 0x0 SWAP1 DUP2 MSTORE PUSH1 0x4 PUSH1 0x20 SWAP1 DUP2 MSTORE PUSH1 0x40 DUP1 DUP4 KECCAK256 SWAP4 SWAP1 SWAP4 SSTORE PUSH1 0xB SLOAD PUSH1 0xC DUP3 MSTORE DUP4 DUP4 KECCAK256 SSTORE PUSH1 0xD SWAP1 MSTORE KECCAK256 TIMESTAMP SWAP1 SSTORE JUMPDEST CALLER PUSH1 0x0 SWAP1 DUP2 MSTORE PUSH1 0x4 PUSH1 0x20 MSTORE PUSH1 0x40 SWAP1 KECCAK256 SLOAD DUP1 ISZERO PUSH2 0x76A JUMPI CALLER PUSH1 0x0 DUP2 DUP2 MSTORE PUSH1 0x4 PUSH1 0x20 DUP2 SWAP1 MSTORE PUSH1 0x40 DUP1 DUP4 KECCAK256 SWAP3 SWAP1 SWAP3 SSTORE PUSH1 0x3 SLOAD SWAP2 MLOAD PUSH4 0xA9059CBB PUSH1 0xE0 SHL DUP2 MSTORE SWAP1 DUP2 ADD SWAP3 SWAP1 SWAP3 MSTORE PUSH1 0x24 DUP3 ADD DUP4 SWAP1 MSTORE PUSH1 0x1 PUSH1 0x1 PUSH1 0xA0 SHL SUB AND SWAP1 PUSH4 0xA9059CBB SWAP1 PUSH1 0x44 ADD PUSH1 0x20 PUSH1 0x40 MLOAD DUP1 DUP4 SUB DUP2 PUSH1 0x0 DUP8 GAS CALL ISZERO DUP1 ISZERO PUSH2 0x70F JUMPI RETURNDATASIZE PUSH1 0x0 DUP1 RETURNDATACOPY RETURNDATASIZE PUSH1 0x0 REVERT JUMPDEST POP POP POP POP PUSH1 0x40 MLOAD RETURNDATASIZE PUSH1 0x1F NOT PUSH1 0x1F DUP3 ADD AND DUP3 ADD DUP1 PUSH1 0x40 MSTORE POP DUP2 ADD SWAP1 PUSH2 0x733 SWAP2 SWAP1 PUSH2 0x10D1 JUMP JUMPDEST POP PUSH1 0x40 MLOAD DUP2 DUP2 MSTORE CALLER SWAP1 PUSH32 0xE2403640BA68FED3A2F88B7557551D1993F84B99BB10FF833F0CF8DB0C5E0486 SWAP1 PUSH1 0x20 ADD PUSH1 0x40 MLOAD DUP1 SWAP2 SUB SWAP1 LOG2 JUMPDEST POP POP PUSH1 0x1 PUSH1 0x2 SSTORE POP POP JUMP JUMPDEST PUSH2 0x77E CALLER PUSH2 0x271 JUMP JUMPDEST PUSH2 0x79A JUMPI PUSH1 0x40 MLOAD PUSH3 0x461BCD PUSH1 0xE5 SHL DUP2 MSTORE PUSH1 0x4 ADD PUSH2 0x529 SWAP1 PUSH2 0x10EE JUMP JUMPDEST PUSH1 0x6 SSTORE JUMP JUMPDEST PUSH1 0x0 PUSH1 0x6 SLOAD PUSH1 0x0 SUB PUSH2 0x7B3 JUMPI POP POP PUSH1 0x6 SLOAD SWAP1 JUMP JUMPDEST PUSH1 0x0 PUSH1 0x7 SLOAD PUSH1 0x6 SLOAD DUP5 PUSH2 0x7C6 SWAP2 SWAP1 PUSH2 0x1146 JUMP JUMPDEST PUSH2 0x7D0 SWAP2 SWAP1 PUSH2 0x116F JUMP JUMPDEST PUSH2 0x7DB SWAP1 PUSH1 0x1 PUSH2 0x1183 JUMP JUMPDEST PUSH1 0x5 SLOAD SWAP1 SWAP2 POP PUSH1 0x0 JUMPDEST DUP3 DUP2 LT ISZERO PUSH2 0x822 JUMPI PUSH1 0x9 SLOAD PUSH1 0x8 SLOAD PUSH2 0x7FC SWAP1 DUP5 PUSH2 0x1196 JUMP JUMPDEST PUSH2 0x806 SWAP2 SWAP1 PUSH2 0x116F JUMP JUMPDEST PUSH2 0x810 SWAP1 DUP4 PUSH2 0x1146 JUMP JUMPDEST SWAP2 POP PUSH2 0x81B DUP2 PUSH2 0x11AD JUMP JUMPDEST SWAP1 POP PUSH2 0x7E4 JUMP JUMPDEST POP SWAP4 SWAP3 POP POP POP JUMP JUMPDEST PUSH1 0x0 PUSH1 0x6 SLOAD PUSH1 0x0 SUB PUSH2 0x83E JUMPI POP POP PUSH1 0x6 SLOAD SWAP1 JUMP JUMPDEST PUSH1 0x0 PUSH1 0x7 SLOAD PUSH1 0x6 SLOAD DUP5 PUSH2 0x851 SWAP2 SWAP1 PUSH2 0x1146 JUMP JUMPDEST PUSH2 0x85B SWAP2 SWAP1 PUSH2 0x116F JUMP JUMPDEST PUSH2 0x866 SWAP1 PUSH1 0x1 PUSH2 0x1183 JUMP JUMPDEST PUSH1 0x5 SLOAD SWAP1 SWAP2 POP PUSH1 0x0 JUMPDEST DUP3 DUP2 LT ISZERO PUSH2 0x8AD JUMPI PUSH1 0x9 SLOAD PUSH1 0x8 SLOAD PUSH2 0x887 SWAP1 DUP5 PUSH2 0x1196 JUMP JUMPDEST PUSH2 0x891 SWAP2 SWAP1 PUSH2 0x116F JUMP JUMPDEST PUSH2 0x89B SWAP1 DUP4 PUSH2 0x1146 JUMP JUMPDEST SWAP2 POP PUSH2 0x8A6 DUP2 PUSH2 0x11AD JUMP JUMPDEST SWAP1 POP PUSH2 0x86F JUMP JUMPDEST POP PUSH1 0x9 SLOAD PUSH1 0x8 SLOAD PUSH2 0x8BE SWAP1 DUP4 PUSH2 0x1196 JUMP JUMPDEST PUSH2 0x8C8 SWAP2 SWAP1 PUSH2 0x116F JUMP JUMPDEST SWAP5 SWAP4 POP POP POP POP JUMP JUMPDEST PUSH1 0x1 SLOAD PUSH1 0x1 PUSH1 0x1 PUSH1 0xA0 SHL SUB AND CALLER EQ PUSH2 0x8FA JUMPI PUSH1 0x40 MLOAD PUSH3 0x461BCD PUSH1 0xE5 SHL DUP2 MSTORE PUSH1 0x4 ADD PUSH2 0x529 SWAP1 PUSH2 0x108F JUMP JUMPDEST PUSH2 0x904 PUSH1 0x0 PUSH2 0xF37 JUMP JUMPDEST JUMP JUMPDEST PUSH1 0x0 PUSH1 0xE SLOAD PUSH1 0x0 SUB PUSH2 0x91A JUMPI POP POP PUSH1 0xB SLOAD SWAP1 JUMP JUMPDEST PUSH2 0x94F PUSH2 0x946 PUSH1 0xE SLOAD PUSH2 0x4EC PUSH8 0xDE0B6B3A7640000 PUSH2 0x940 DUP8 PUSH2 0x940 PUSH1 0xA SLOAD PUSH2 0x4C7 TIMESTAMP SWAP1 JUMP JUMPDEST SWAP1 PUSH2 0xF13 JUMP JUMPDEST PUSH1 0xB SLOAD SWAP1 PUSH2 0xF2B JUMP JUMPDEST SWAP3 SWAP2 POP POP JUMP JUMPDEST PUSH1 0x1 SLOAD PUSH1 0x1 PUSH1 0x1 PUSH1 0xA0 SHL SUB AND CALLER EQ PUSH2 0x97F JUMPI PUSH1 0x40 MLOAD PUSH3 0x461BCD PUSH1 0xE5 SHL DUP2 MSTORE PUSH1 0x4 ADD PUSH2 0x529 SWAP1 PUSH2 0x108F JUMP JUMPDEST PUSH1 0x3 DUP1 SLOAD PUSH1 0x1 PUSH1 0x1 PUSH1 0xA0 SHL SUB NOT AND PUSH1 0x1 PUSH1 0x1 PUSH1 0xA0 SHL SUB SWAP3 SWAP1 SWAP3 AND SWAP2 SWAP1 SWAP2 OR SWAP1 SSTORE JUMP JUMPDEST PUSH1 0x0 PUSH2 0x9AC TIMESTAMP PUSH2 0x82A JUMP JUMPDEST SWAP1 POP SWAP1 JUMP JUMPDEST PUSH1 0x1 SLOAD PUSH1 0x1 PUSH1 0x1 PUSH1 0xA0 SHL SUB AND CALLER EQ PUSH2 0x9DB JUMPI PUSH1 0x40 MLOAD PUSH3 0x461BCD PUSH1 0xE5 SHL DUP2 MSTORE PUSH1 0x4 ADD PUSH2 0x529 SWAP1 PUSH2 0x108F JUMP JUMPDEST PUSH1 0x40 MLOAD PUSH4 0xA9059CBB PUSH1 0xE0 SHL DUP2 MSTORE CALLER PUSH1 0x4 DUP3 ADD MSTORE PUSH1 0x24 DUP2 ADD DUP3 SWAP1 MSTORE PUSH1 0x1 PUSH1 0x1 PUSH1 0xA0 SHL SUB DUP4 AND SWAP1 PUSH4 0xA9059CBB SWAP1 PUSH1 0x44 ADD PUSH1 0x20 PUSH1 0x40 MLOAD DUP1 DUP4 SUB DUP2 PUSH1 0x0 DUP8 GAS CALL ISZERO DUP1 ISZERO PUSH2 0xA28 JUMPI RETURNDATASIZE PUSH1 0x0 DUP1 RETURNDATACOPY RETURNDATASIZE PUSH1 0x0 REVERT JUMPDEST POP POP POP POP PUSH1 0x40 MLOAD RETURNDATASIZE PUSH1 0x1F NOT PUSH1 0x1F DUP3 ADD AND DUP3 ADD DUP1 PUSH1 0x40 MSTORE POP DUP2 ADD SWAP1 PUSH2 0xA4C SWAP2 SWAP1 PUSH2 0x10D1 JUMP JUMPDEST POP POP POP JUMP JUMPDEST PUSH1 0x2 DUP1 SLOAD SUB PUSH2 0xAA2 JUMPI PUSH1 0x40 MLOAD PUSH3 0x461BCD PUSH1 0xE5 SHL DUP2 MSTORE PUSH1 0x20 PUSH1 0x4 DUP3 ADD MSTORE PUSH1 0x1F PUSH1 0x24 DUP3 ADD MSTORE PUSH32 0x5265656E7472616E637947756172643A207265656E7472616E742063616C6C00 PUSH1 0x44 DUP3 ADD MSTORE PUSH1 0x64 ADD PUSH2 0x529 JUMP JUMPDEST PUSH1 0x2 DUP1 SSTORE PUSH2 0xAAF CALLER PUSH2 0x271 JUMP JUMPDEST PUSH2 0xACB JUMPI PUSH1 0x40 MLOAD PUSH3 0x461BCD PUSH1 0xE5 SHL DUP2 MSTORE PUSH1 0x4 ADD PUSH2 0x529 SWAP1 PUSH2 0x10EE JUMP JUMPDEST CALLER PUSH1 0x0 DUP2 DUP2 MSTORE PUSH1 0xD PUSH1 0x20 MSTORE PUSH1 0x40 SWAP1 KECCAK256 SLOAD PUSH1 0x6 SLOAD DUP2 GT PUSH2 0xAE9 JUMPI POP PUSH1 0x6 SLOAD JUMPDEST PUSH1 0x0 PUSH2 0xAF5 DUP3 TIMESTAMP PUSH2 0xC34 JUMP JUMPDEST SWAP1 POP PUSH2 0xB00 DUP2 PUSH2 0x906 JUMP JUMPDEST PUSH1 0xB SSTORE TIMESTAMP PUSH1 0xA SSTORE PUSH1 0x1 PUSH1 0x1 PUSH1 0xA0 SHL SUB DUP4 AND ISZERO PUSH2 0xB52 JUMPI PUSH2 0xB1F DUP4 PUSH2 0x457 JUMP JUMPDEST PUSH1 0x1 PUSH1 0x1 PUSH1 0xA0 SHL SUB DUP5 AND PUSH1 0x0 SWAP1 DUP2 MSTORE PUSH1 0x4 PUSH1 0x20 SWAP1 DUP2 MSTORE PUSH1 0x40 DUP1 DUP4 KECCAK256 SWAP4 SWAP1 SWAP4 SSTORE PUSH1 0xB SLOAD PUSH1 0xC DUP3 MSTORE DUP4 DUP4 KECCAK256 SSTORE PUSH1 0xD SWAP1 MSTORE KECCAK256 TIMESTAMP SWAP1 SSTORE JUMPDEST PUSH1 0x0 DUP5 GT PUSH2 0xB93 JUMPI PUSH1 0x40 MLOAD PUSH3 0x461BCD PUSH1 0xE5 SHL DUP2 MSTORE PUSH1 0x20 PUSH1 0x4 DUP3 ADD MSTORE PUSH1 0xE PUSH1 0x24 DUP3 ADD MSTORE PUSH14 0x43616E6E6F74207374616B65203 PUSH1 0x94 SHL PUSH1 0x44 DUP3 ADD MSTORE PUSH1 0x64 ADD PUSH2 0x529 JUMP JUMPDEST PUSH1 0xE SLOAD PUSH2 0xBA0 SWAP1 DUP6 PUSH2 0xF2B JUMP JUMPDEST PUSH1 0xE SSTORE PUSH1 0x1 PUSH1 0x1 PUSH1 0xA0 SHL SUB DUP6 AND PUSH1 0x0 SWAP1 DUP2 MSTORE PUSH1 0xF PUSH1 0x20 MSTORE PUSH1 0x40 SWAP1 KECCAK256 SLOAD PUSH2 0xBC6 SWAP1 DUP6 PUSH2 0xF2B JUMP JUMPDEST PUSH1 0x1 PUSH1 0x1 PUSH1 0xA0 SHL SUB DUP7 AND PUSH1 0x0 DUP2 DUP2 MSTORE PUSH1 0xF PUSH1 0x20 MSTORE PUSH1 0x40 SWAP1 DUP2 SWAP1 KECCAK256 SWAP3 SWAP1 SWAP3 SSTORE SWAP1 MLOAD PUSH32 0x9E71BC8EEA02A63969F509818F2DAFB9254532904319F9DBDA79B67BD34A5F3D SWAP1 PUSH2 0xC15 SWAP1 DUP8 DUP2 MSTORE PUSH1 0x20 ADD SWAP1 JUMP JUMPDEST PUSH1 0x40 MLOAD DUP1 SWAP2 SUB SWAP1 LOG2 POP POP PUSH1 0x1 PUSH1 0x2 SSTORE POP POP POP JUMP JUMPDEST PUSH1 0x0 PUSH2 0x9AC TIMESTAMP PUSH2 0xF89 JUMP JUMPDEST PUSH1 0x0 PUSH1 0x6 SLOAD PUSH1 0x0 EQ DUP1 PUSH2 0xC47 JUMPI POP DUP2 DUP4 LT ISZERO JUMPDEST DUP1 PUSH2 0xC50 JUMPI POP DUP3 ISZERO JUMPDEST ISZERO PUSH2 0xC5D JUMPI POP PUSH1 0x0 PUSH2 0x94F JUMP JUMPDEST PUSH1 0x6 SLOAD DUP4 LT ISZERO PUSH2 0xC6D JUMPI PUSH1 0x6 SLOAD SWAP3 POP JUMPDEST PUSH1 0x0 PUSH1 0x7 SLOAD PUSH1 0x7 SLOAD PUSH1 0x6 SLOAD DUP7 PUSH2 0xC83 SWAP2 SWAP1 PUSH2 0x1146 JUMP JUMPDEST PUSH2 0xC8D SWAP2 SWAP1 PUSH2 0x11C6 JUMP JUMPDEST PUSH1 0x7 SLOAD PUSH2 0xC9A SWAP2 SWAP1 PUSH2 0x1146 JUMP JUMPDEST PUSH2 0xCA4 SWAP2 SWAP1 PUSH2 0x11C6 JUMP JUMPDEST SWAP1 POP PUSH1 0x0 PUSH1 0x7 SLOAD DUP3 PUSH2 0xCB5 DUP8 PUSH2 0x82A JUMP JUMPDEST PUSH2 0xCBF SWAP2 SWAP1 PUSH2 0x1196 JUMP JUMPDEST PUSH2 0xCC9 SWAP2 SWAP1 PUSH2 0x116F JUMP JUMPDEST SWAP1 POP PUSH1 0x0 PUSH1 0x7 SLOAD PUSH1 0x6 SLOAD DUP7 PUSH2 0xCDE SWAP2 SWAP1 PUSH2 0x1146 JUMP JUMPDEST PUSH2 0xCE8 SWAP2 SWAP1 PUSH2 0x11C6 JUMP JUMPDEST SWAP1 POP PUSH1 0x0 PUSH1 0x7 SLOAD DUP3 PUSH2 0xCF9 DUP9 PUSH2 0x82A JUMP JUMPDEST PUSH2 0xD03 SWAP2 SWAP1 PUSH2 0x1196 JUMP JUMPDEST PUSH2 0xD0D SWAP2 SWAP1 PUSH2 0x116F JUMP JUMPDEST SWAP1 POP DUP6 PUSH2 0xD1A DUP6 DUP10 PUSH2 0x1183 JUMP JUMPDEST GT ISZERO PUSH2 0xD34 JUMPI PUSH2 0xD29 DUP8 PUSH2 0xF89 JUMP JUMPDEST SWAP5 POP POP POP POP POP PUSH2 0x94F JUMP JUMPDEST PUSH1 0x0 DUP5 DUP9 PUSH2 0xD42 DUP6 DUP11 PUSH2 0x1146 JUMP JUMPDEST PUSH2 0xD4C SWAP2 SWAP1 PUSH2 0x1146 JUMP JUMPDEST PUSH2 0xD56 SWAP2 SWAP1 PUSH2 0x1146 JUMP JUMPDEST SWAP1 POP PUSH1 0x0 PUSH2 0xD63 DUP10 PUSH2 0x79F JUMP JUMPDEST SWAP1 POP PUSH1 0x0 DUP1 PUSH1 0x0 DUP4 SWAP1 POP PUSH1 0x0 PUSH1 0x7 SLOAD DUP7 PUSH2 0xD7D SWAP2 SWAP1 PUSH2 0x116F JUMP JUMPDEST SWAP1 POP PUSH1 0x0 JUMPDEST DUP2 DUP2 LT ISZERO PUSH2 0xDCE JUMPI PUSH1 0x9 SLOAD PUSH1 0x8 SLOAD PUSH2 0xD9A SWAP1 DUP6 PUSH2 0x1196 JUMP JUMPDEST PUSH2 0xDA4 SWAP2 SWAP1 PUSH2 0x116F JUMP JUMPDEST SWAP4 POP PUSH2 0xDB0 DUP5 DUP5 PUSH2 0x1146 JUMP JUMPDEST SWAP3 POP PUSH2 0xDBC DUP5 DUP7 PUSH2 0x1183 JUMP JUMPDEST SWAP5 POP PUSH2 0xDC7 DUP2 PUSH2 0x11AD JUMP JUMPDEST SWAP1 POP PUSH2 0xD82 JUMP JUMPDEST POP PUSH2 0xDD9 DUP14 DUP14 PUSH2 0x1146 JUMP JUMPDEST DUP8 PUSH2 0xDE4 DUP12 DUP8 PUSH2 0x1183 JUMP JUMPDEST PUSH2 0xDEE SWAP2 SWAP1 PUSH2 0x1183 JUMP JUMPDEST PUSH2 0xDF8 SWAP2 SWAP1 PUSH2 0x116F JUMP JUMPDEST SWAP14 SWAP13 POP POP POP POP POP POP POP POP POP POP POP POP POP JUMP JUMPDEST PUSH1 0x1 SLOAD PUSH1 0x1 PUSH1 0x1 PUSH1 0xA0 SHL SUB AND CALLER EQ PUSH2 0xE33 JUMPI PUSH1 0x40 MLOAD PUSH3 0x461BCD PUSH1 0xE5 SHL DUP2 MSTORE PUSH1 0x4 ADD PUSH2 0x529 SWAP1 PUSH2 0x108F JUMP JUMPDEST PUSH1 0x1 SLOAD PUSH1 0x40 MLOAD PUSH1 0x1 PUSH1 0x1 PUSH1 0xA0 SHL SUB SWAP1 SWAP2 AND SWAP1 SELFBALANCE DUP1 ISZERO PUSH2 0x8FC MUL SWAP2 PUSH1 0x0 DUP2 DUP2 DUP2 DUP6 DUP9 DUP9 CALL SWAP4 POP POP POP POP ISZERO DUP1 ISZERO PUSH2 0xE6C JUMPI RETURNDATASIZE PUSH1 0x0 DUP1 RETURNDATACOPY RETURNDATASIZE PUSH1 0x0 REVERT JUMPDEST POP JUMP JUMPDEST PUSH1 0x1 SLOAD PUSH1 0x1 PUSH1 0x1 PUSH1 0xA0 SHL SUB AND CALLER EQ PUSH2 0xE99 JUMPI PUSH1 0x40 MLOAD PUSH3 0x461BCD PUSH1 0xE5 SHL DUP2 MSTORE PUSH1 0x4 ADD PUSH2 0x529 SWAP1 PUSH2 0x108F JUMP JUMPDEST PUSH1 0x1 PUSH1 0x1 PUSH1 0xA0 SHL SUB DUP2 AND PUSH2 0xEFE JUMPI PUSH1 0x40 MLOAD PUSH3 0x461BCD PUSH1 0xE5 SHL DUP2 MSTORE PUSH1 0x20 PUSH1 0x4 DUP3 ADD MSTORE PUSH1 0x26 PUSH1 0x24 DUP3 ADD MSTORE PUSH32 0x4F776E61626C653A206E6577206F776E657220697320746865207A65726F2061 PUSH1 0x44 DUP3 ADD MSTORE PUSH6 0x646472657373 PUSH1 0xD0 SHL PUSH1 0x64 DUP3 ADD MSTORE PUSH1 0x84 ADD PUSH2 0x529 JUMP JUMPDEST PUSH2 0xE6C DUP2 PUSH2 0xF37 JUMP JUMPDEST PUSH1 0x0 PUSH2 0x4F8 DUP3 DUP5 PUSH2 0x1146 JUMP JUMPDEST PUSH1 0x0 PUSH2 0x4F8 DUP3 DUP5 PUSH2 0x1196 JUMP JUMPDEST PUSH1 0x0 PUSH2 0x4F8 DUP3 DUP5 PUSH2 0x116F JUMP JUMPDEST PUSH1 0x0 PUSH2 0x4F8 DUP3 DUP5 PUSH2 0x1183 JUMP JUMPDEST PUSH1 0x1 DUP1 SLOAD PUSH1 0x1 PUSH1 0x1 PUSH1 0xA0 SHL SUB DUP4 DUP2 AND PUSH1 0x1 PUSH1 0x1 PUSH1 0xA0 SHL SUB NOT DUP4 AND DUP2 OR SWAP1 SWAP4 SSTORE PUSH1 0x40 MLOAD SWAP2 AND SWAP2 SWAP1 DUP3 SWAP1 PUSH32 0x8BE0079C531659141344CD1FD0A4F28419497F9722A3DAAFE3B4186F6B6457E0 SWAP1 PUSH1 0x0 SWAP1 LOG3 POP POP JUMP JUMPDEST PUSH1 0x0 DUP1 PUSH2 0xF95 DUP4 PUSH2 0x82A JUMP JUMPDEST SWAP1 POP PUSH1 0x0 PUSH2 0x8C8 PUSH1 0x7 SLOAD DUP4 PUSH2 0xF1F SWAP1 SWAP2 SWAP1 PUSH4 0xFFFFFFFF AND JUMP JUMPDEST DUP1 CALLDATALOAD PUSH1 0x1 PUSH1 0x1 PUSH1 0xA0 SHL SUB DUP2 AND DUP2 EQ PUSH2 0xFC5 JUMPI PUSH1 0x0 DUP1 REVERT JUMPDEST SWAP2 SWAP1 POP JUMP JUMPDEST PUSH1 0x0 PUSH1 0x20 DUP3 DUP5 SUB SLT ISZERO PUSH2 0xFDC JUMPI PUSH1 0x0 DUP1 REVERT JUMPDEST PUSH2 0x4F8 DUP3 PUSH2 0xFAE JUMP JUMPDEST DUP1 ISZERO ISZERO DUP2 EQ PUSH2 0xE6C JUMPI PUSH1 0x0 DUP1 REVERT JUMPDEST PUSH1 0x0 DUP1 PUSH1 0x40 DUP4 DUP6 SUB SLT ISZERO PUSH2 0x1006 JUMPI PUSH1 0x0 DUP1 REVERT JUMPDEST PUSH2 0x100F DUP4 PUSH2 0xFAE JUMP JUMPDEST SWAP2 POP PUSH1 0x20 DUP4 ADD CALLDATALOAD PUSH2 0x101F DUP2 PUSH2 0xFE5 JUMP JUMPDEST DUP1 SWAP2 POP POP SWAP3 POP SWAP3 SWAP1 POP JUMP JUMPDEST PUSH1 0x0 PUSH1 0x20 DUP3 DUP5 SUB SLT ISZERO PUSH2 0x103C JUMPI PUSH1 0x0 DUP1 REVERT JUMPDEST POP CALLDATALOAD SWAP2 SWAP1 POP JUMP JUMPDEST PUSH1 0x0 DUP1 PUSH1 0x40 DUP4 DUP6 SUB SLT ISZERO PUSH2 0x1056 JUMPI PUSH1 0x0 DUP1 REVERT JUMPDEST PUSH2 0x105F DUP4 PUSH2 0xFAE JUMP JUMPDEST SWAP5 PUSH1 0x20 SWAP4 SWAP1 SWAP4 ADD CALLDATALOAD SWAP4 POP POP POP JUMP JUMPDEST PUSH1 0x0 DUP1 PUSH1 0x40 DUP4 DUP6 SUB SLT ISZERO PUSH2 0x1080 JUMPI PUSH1 0x0 DUP1 REVERT JUMPDEST POP POP DUP1 CALLDATALOAD SWAP3 PUSH1 0x20 SWAP1 SWAP2 ADD CALLDATALOAD SWAP2 POP JUMP JUMPDEST PUSH1 0x20 DUP1 DUP3 MSTORE PUSH1 0x22 SWAP1 DUP3 ADD MSTORE PUSH32 0x41646D696E61626C653A2063616C6C6572206973206E6F7420746865206F776E PUSH1 0x40 DUP3 ADD MSTORE PUSH2 0x32B9 PUSH1 0xF1 SHL PUSH1 0x60 DUP3 ADD MSTORE PUSH1 0x80 ADD SWAP1 JUMP JUMPDEST PUSH1 0x0 PUSH1 0x20 DUP3 DUP5 SUB SLT ISZERO PUSH2 0x10E3 JUMPI PUSH1 0x0 DUP1 REVERT JUMPDEST DUP2 MLOAD PUSH2 0x4F8 DUP2 PUSH2 0xFE5 JUMP JUMPDEST PUSH1 0x20 DUP1 DUP3 MSTORE PUSH1 0x22 SWAP1 DUP3 ADD MSTORE PUSH32 0x41646D696E61626C653A2063616C6C6572206973206E6F74207468652061646D PUSH1 0x40 DUP3 ADD MSTORE PUSH2 0x34B7 PUSH1 0xF1 SHL PUSH1 0x60 DUP3 ADD MSTORE PUSH1 0x80 ADD SWAP1 JUMP JUMPDEST PUSH4 0x4E487B71 PUSH1 0xE0 SHL PUSH1 0x0 MSTORE PUSH1 0x11 PUSH1 0x4 MSTORE PUSH1 0x24 PUSH1 0x0 REVERT JUMPDEST DUP2 DUP2 SUB DUP2 DUP2 GT ISZERO PUSH2 0x94F JUMPI PUSH2 0x94F PUSH2 0x1130 JUMP JUMPDEST PUSH4 0x4E487B71 PUSH1 0xE0 SHL PUSH1 0x0 MSTORE PUSH1 0x12 PUSH1 0x4 MSTORE PUSH1 0x24 PUSH1 0x0 REVERT JUMPDEST PUSH1 0x0 DUP3 PUSH2 0x117E JUMPI PUSH2 0x117E PUSH2 0x1159 JUMP JUMPDEST POP DIV SWAP1 JUMP JUMPDEST DUP1 DUP3 ADD DUP1 DUP3 GT ISZERO PUSH2 0x94F JUMPI PUSH2 0x94F PUSH2 0x1130 JUMP JUMPDEST DUP1 DUP3 MUL DUP2 ISZERO DUP3 DUP3 DIV DUP5 EQ OR PUSH2 0x94F JUMPI PUSH2 0x94F PUSH2 0x1130 JUMP JUMPDEST PUSH1 0x0 PUSH1 0x1 DUP3 ADD PUSH2 0x11BF JUMPI PUSH2 0x11BF PUSH2 0x1130 JUMP JUMPDEST POP PUSH1 0x1 ADD SWAP1 JUMP JUMPDEST PUSH1 0x0 DUP3 PUSH2 0x11D5 JUMPI PUSH2 0x11D5 PUSH2 0x1159 JUMP JUMPDEST POP MOD SWAP1 JUMP INVALID LOG2 PUSH5 0x6970667358 0x22 SLT KECCAK256 SWAP14 SWAP9 0xE3 PUSH14 0x622EA2D5E7B534896534CD7FEA55 0xBE 0xBE 0xAE 0xD9 DUP1 PUSH13 0x23DDC03EF2D98AB964736F6C63 NUMBER STOP ADDMOD GT STOP CALLER "
				},
				"gasEstimates": {
					"creation": {
						"codeDepositCost": "924800",
						"executionCost": "137336",
						"totalCost": "1062136"
					},
					"external": {
						"curTime()": "269",
						"earned(address)": "infinite",
						"emergencyWithdraw()": "infinite",
						"emergencyWithdrawToken(address,uint256)": "infinite",
						"getCurRewardPool()": "infinite",
						"getCurRewardRate()": "infinite",
						"getRemainPool(uint256)": "infinite",
						"getReward()": "infinite",
						"getRewardPool(uint256)": "infinite",
						"getTimeWeightedAveRate(uint256,uint256)": "infinite",
						"isAdmin(address)": "2598",
						"lastTimeRewardApplicable()": "291",
						"lastUpdateTime()": "2373",
						"modificationAdmin(address,bool)": "30911",
						"owner()": "2365",
						"powersOf(address)": "2593",
						"rateInterval()": "2374",
						"rateIntervalDenominator()": "2373",
						"rateIntervalNumerator()": "2352",
						"renounceOwnership()": "28162",
						"rewardPerToken(uint256)": "infinite",
						"rewardPerTokenStored()": "2394",
						"rewards(address)": "2577",
						"rewardsToken()": "2381",
						"setRewardToken(address)": "26801",
						"setStartTime(uint256)": "24675",
						"stake(address,uint256)": "infinite",
						"startTime()": "2351",
						"totalPowers()": "2393",
						"totalRewards()": "2375",
						"transferOwnership(address)": "28444",
						"userLastUpdateTime(address)": "2554",
						"userRewardPerTokenPaid(address)": "2620"
					},
					"internal": {
						"_getRewardRate(uint256)": "infinite"
					}
				},
				"methodIdentifiers": {
					"curTime()": "9a5b17b0",
					"earned(address)": "008cc262",
					"emergencyWithdraw()": "db2e21bc",
					"emergencyWithdrawToken(address,uint256)": "a4c3b091",
					"getCurRewardPool()": "9499c549",
					"getCurRewardRate()": "cdda56e0",
					"getRemainPool(uint256)": "4dbdc4eb",
					"getReward()": "3d18b912",
					"getRewardPool(uint256)": "5cfa91f4",
					"getTimeWeightedAveRate(uint256,uint256)": "da4f8431",
					"isAdmin(address)": "24d7806c",
					"lastTimeRewardApplicable()": "80faa57d",
					"lastUpdateTime()": "c8f33c91",
					"modificationAdmin(address,bool)": "18e20ecf",
					"owner()": "8da5cb5b",
					"powersOf(address)": "b79ec812",
					"rateInterval()": "6139d4b4",
					"rateIntervalDenominator()": "7a6fcee7",
					"rateIntervalNumerator()": "3c4045cf",
					"renounceOwnership()": "715018a6",
					"rewardPerToken(uint256)": "874c120b",
					"rewardPerTokenStored()": "df136d65",
					"rewards(address)": "0700037d",
					"rewardsToken()": "d1af0c7d",
					"setRewardToken(address)": "8aee8127",
					"setStartTime(uint256)": "3e0a322d",
					"stake(address,uint256)": "adc9772e",
					"startTime()": "78e97925",
					"totalPowers()": "6917c501",
					"totalRewards()": "0e15561a",
					"transferOwnership(address)": "f2fde38b",
					"userLastUpdateTime(address)": "8107368b",
					"userRewardPerTokenPaid(address)": "8b876347"
				}
			},
			"storageLayout": {
				"storage": [
					{
						"astId": 26,
						"contract": "inviter_presell/stake.sol:StakingRewards",
						"label": "_admins",
						"offset": 0,
						"slot": "0",
						"type": "t_mapping(t_address,t_bool)"
					},
					{
						"astId": 28,
						"contract": "inviter_presell/stake.sol:StakingRewards",
						"label": "_owner",
						"offset": 0,
						"slot": "1",
						"type": "t_address"
					},
					{
						"astId": 910,
						"contract": "inviter_presell/stake.sol:StakingRewards",
						"label": "_status",
						"offset": 0,
						"slot": "2",
						"type": "t_uint256"
					},
					{
						"astId": 192,
						"contract": "inviter_presell/stake.sol:StakingRewards",
						"label": "rewardsToken",
						"offset": 0,
						"slot": "3",
						"type": "t_contract(IERC20)1017"
					},
					{
						"astId": 196,
						"contract": "inviter_presell/stake.sol:StakingRewards",
						"label": "rewards",
						"offset": 0,
						"slot": "4",
						"type": "t_mapping(t_address,t_uint256)"
					},
					{
						"astId": 203,
						"contract": "inviter_presell/stake.sol:StakingRewards",
						"label": "totalRewards",
						"offset": 0,
						"slot": "5",
						"type": "t_uint256"
					},
					{
						"astId": 205,
						"contract": "inviter_presell/stake.sol:StakingRewards",
						"label": "startTime",
						"offset": 0,
						"slot": "6",
						"type": "t_uint256"
					},
					{
						"astId": 208,
						"contract": "inviter_presell/stake.sol:StakingRewards",
						"label": "rateInterval",
						"offset": 0,
						"slot": "7",
						"type": "t_uint256"
					},
					{
						"astId": 211,
						"contract": "inviter_presell/stake.sol:StakingRewards",
						"label": "rateIntervalNumerator",
						"offset": 0,
						"slot": "8",
						"type": "t_uint256"
					},
					{
						"astId": 214,
						"contract": "inviter_presell/stake.sol:StakingRewards",
						"label": "rateIntervalDenominator",
						"offset": 0,
						"slot": "9",
						"type": "t_uint256"
					},
					{
						"astId": 216,
						"contract": "inviter_presell/stake.sol:StakingRewards",
						"label": "lastUpdateTime",
						"offset": 0,
						"slot": "10",
						"type": "t_uint256"
					},
					{
						"astId": 218,
						"contract": "inviter_presell/stake.sol:StakingRewards",
						"label": "rewardPerTokenStored",
						"offset": 0,
						"slot": "11",
						"type": "t_uint256"
					},
					{
						"astId": 222,
						"contract": "inviter_presell/stake.sol:StakingRewards",
						"label": "userRewardPerTokenPaid",
						"offset": 0,
						"slot": "12",
						"type": "t_mapping(t_address,t_uint256)"
					},
					{
						"astId": 226,
						"contract": "inviter_presell/stake.sol:StakingRewards",
						"label": "userLastUpdateTime",
						"offset": 0,
						"slot": "13",
						"type": "t_mapping(t_address,t_uint256)"
					},
					{
						"astId": 228,
						"contract": "inviter_presell/stake.sol:StakingRewards",
						"label": "_totalPowers",
						"offset": 0,
						"slot": "14",
						"type": "t_uint256"
					},
					{
						"astId": 232,
						"contract": "inviter_presell/stake.sol:StakingRewards",
						"label": "_balances",
						"offset": 0,
						"slot": "15",
						"type": "t_mapping(t_address,t_uint256)"
					}
				],
				"types": {
					"t_address": {
						"encoding": "inplace",
						"label": "address",
						"numberOfBytes": "20"
					},
					"t_bool": {
						"encoding": "inplace",
						"label": "bool",
						"numberOfBytes": "1"
					},
					"t_contract(IERC20)1017": {
						"encoding": "inplace",
						"label": "contract IERC20",
						"numberOfBytes": "20"
					},
					"t_mapping(t_address,t_bool)": {
						"encoding": "mapping",
						"key": "t_address",
						"label": "mapping(address => bool)",
						"numberOfBytes": "32",
						"value": "t_bool"
					},
					"t_mapping(t_address,t_uint256)": {
						"encoding": "mapping",
						"key": "t_address",
						"label": "mapping(address => uint256)",
						"numberOfBytes": "32",
						"value": "t_uint256"
					},
					"t_uint256": {
						"encoding": "inplace",
						"label": "uint256",
						"numberOfBytes": "32"
					}
				}
			},
			"userdoc": {
				"kind": "user",
				"methods": {},
				"version": 1
			}
		}
	}
}