{
	"inviter_presell/stake.sol": {
		"StakingRewards": {
			"abi": [
				{
					"anonymous": false,
					"inputs": [
						{
							"indexed": true,
							"internalType": "address",
							"name": "admin",
							"type": "address"
						},
						{
							"indexed": false,
							"internalType": "bool",
							"name": "oldState",
							"type": "bool"
						},
						{
							"indexed": false,
							"internalType": "bool",
							"name": "newState",
							"type": "bool"
						}
					],
					"name": "ModificationAdmin",
					"type": "event"
				},
				{
					"anonymous": false,
					"inputs": [
						{
							"indexed": true,
							"internalType": "address",
							"name": "previousOwner",
							"type": "address"
						},
						{
							"indexed": true,
							"internalType": "address",
							"name": "newOwner",
							"type": "address"
						}
					],
					"name": "OwnershipTransferred",
					"type": "event"
				},
				{
					"anonymous": false,
					"inputs": [
						{
							"indexed": true,
							"internalType": "address",
							"name": "user",
							"type": "address"
						},
						{
							"indexed": false,
							"internalType": "uint256",
							"name": "reward",
							"type": "uint256"
						}
					],
					"name": "RewardPaid",
					"type": "event"
				},
				{
					"anonymous": false,
					"inputs": [
						{
							"indexed": true,
							"internalType": "address",
							"name": "user",
							"type": "address"
						},
						{
							"indexed": false,
							"internalType": "uint256",
							"name": "amount",
							"type": "uint256"
						}
					],
					"name": "Staked",
					"type": "event"
				},
				{
					"inputs": [],
					"name": "curTime",
					"outputs": [
						{
							"internalType": "uint256",
							"name": "",
							"type": "uint256"
						}
					],
					"stateMutability": "view",
					"type": "function"
				},
				{
					"inputs": [
						{
							"internalType": "address",
							"name": "account",
							"type": "address"
						}
					],
					"name": "earned",
					"outputs": [
						{
							"internalType": "uint256",
							"name": "",
							"type": "uint256"
						}
					],
					"stateMutability": "view",
					"type": "function"
				},
				{
					"inputs": [],
					"name": "emergencyWithdraw",
					"outputs": [],
					"stateMutability": "nonpayable",
					"type": "function"
				},
				{
					"inputs": [
						{
							"internalType": "address",
							"name": "token",
							"type": "address"
						},
						{
							"internalType": "uint256",
							"name": "amount",
							"type": "uint256"
						}
					],
					"name": "emergencyWithdrawToken",
					"outputs": [],
					"stateMutability": "nonpayable",
					"type": "function"
				},
				{
					"inputs": [],
					"name": "getCurRewardPool",
					"outputs": [
						{
							"internalType": "uint256",
							"name": "",
							"type": "uint256"
						}
					],
					"stateMutability": "view",
					"type": "function"
				},
				{
					"inputs": [],
					"name": "getCurRewardRate",
					"outputs": [
						{
							"internalType": "uint256",
							"name": "",
							"type": "uint256"
						}
					],
					"stateMutability": "view",
					"type": "function"
				},
				{
					"inputs": [
						{
							"internalType": "uint256",
							"name": "time",
							"type": "uint256"
						}
					],
					"name": "getRemainPool",
					"outputs": [
						{
							"internalType": "uint256",
							"name": "",
							"type": "uint256"
						}
					],
					"stateMutability": "view",
					"type": "function"
				},
				{
					"inputs": [],
					"name": "getReward",
					"outputs": [],
					"stateMutability": "nonpayable",
					"type": "function"
				},
				{
					"inputs": [
						{
							"internalType": "uint256",
							"name": "time",
							"type": "uint256"
						}
					],
					"name": "getRewardPool",
					"outputs": [
						{
							"internalType": "uint256",
							"name": "",
							"type": "uint256"
						}
					],
					"stateMutability": "view",
					"type": "function"
				},
				{
					"inputs": [
						{
							"internalType": "uint256",
							"name": "leftTime",
							"type": "uint256"
						},
						{
							"internalType": "uint256",
							"name": "rightTime",
							"type": "uint256"
						}
					],
					"name": "getTimeWeightedAveRate",
					"outputs": [
						{
							"internalType": "uint256",
							"name": "",
							"type": "uint256"
						}
					],
					"stateMutability": "view",
					"type": "function"
				},
				{
					"inputs": [
						{
							"internalType": "address",
							"name": "account",
							"type": "address"
						}
					],
					"name": "isAdmin",
					"outputs": [
						{
							"internalType": "bool",
							"name": "",
							"type": "bool"
						}
					],
					"stateMutability": "view",
					"type": "function"
				},
				{
					"inputs": [],
					"name": "lastTimeRewardApplicable",
					"outputs": [
						{
							"internalType": "uint256",
							"name": "",
							"type": "uint256"
						}
					],
					"stateMutability": "view",
					"type": "function"
				},
				{
					"inputs": [],
					"name": "lastUpdateTime",
					"outputs": [
						{
							"internalType": "uint256",
							"name": "",
							"type": "uint256"
						}
					],
					"stateMutability": "view",
					"type": "function"
				},
				{
					"inputs": [
						{
							"internalType": "address",
							"name": "admin",
							"type": "address"
						},
						{
							"internalType": "bool",
							"name": "state",
							"type": "bool"
						}
					],
					"name": "modificationAdmin",
					"outputs": [],
					"stateMutability": "nonpayable",
					"type": "function"
				},
				{
					"inputs": [],
					"name": "owner",
					"outputs": [
						{
							"internalType": "address",
							"name": "",
							"type": "address"
						}
					],
					"stateMutability": "view",
					"type": "function"
				},
				{
					"inputs": [
						{
							"internalType": "address",
							"name": "account",
							"type": "address"
						}
					],
					"name": "powersOf",
					"outputs": [
						{
							"internalType": "uint256",
							"name": "",
							"type": "uint256"
						}
					],
					"stateMutability": "view",
					"type": "function"
				},
				{
					"inputs": [],
					"name": "rateInterval",
					"outputs": [
						{
							"internalType": "uint256",
							"name": "",
							"type": "uint256"
						}
					],
					"stateMutability": "view",
					"type": "function"
				},
				{
					"inputs": [],
					"name": "rateIntervalDenominator",
					"outputs": [
						{
							"internalType": "uint256",
							"name": "",
							"type": "uint256"
						}
					],
					"stateMutability": "view",
					"type": "function"
				},
				{
					"inputs": [],
					"name": "rateIntervalNumerator",
					"outputs": [
						{
							"internalType": "uint256",
							"name": "",
							"type": "uint256"
						}
					],
					"stateMutability": "view",
					"type": "function"
				},
				{
					"inputs": [],
					"name": "renounceOwnership",
					"outputs": [],
					"stateMutability": "nonpayable",
					"type": "function"
				},
				{
					"inputs": [
						{
							"internalType": "uint256",
							"name": "rewardRate",
							"type": "uint256"
						}
					],
					"name": "rewardPerToken",
					"outputs": [
						{
							"internalType": "uint256",
							"name": "",
							"type": "uint256"
						}
					],
					"stateMutability": "view",
					"type": "function"
				},
				{
					"inputs": [],
					"name": "rewardPerTokenStored",
					"outputs": [
						{
							"internalType": "uint256",
							"name": "",
							"type": "uint256"
						}
					],
					"stateMutability": "view",
					"type": "function"
				},
				{
					"inputs": [
						{
							"internalType": "address",
							"name": "",
							"type": "address"
						}
					],
					"name": "rewards",
					"outputs": [
						{
							"internalType": "uint256",
							"name": "",
							"type": "uint256"
						}
					],
					"stateMutability": "view",
					"type": "function"
				},
				{
					"inputs": [],
					"name": "rewardsToken",
					"outputs": [
						{
							"internalType": "contract IERC20",
							"name": "",
							"type": "address"
						}
					],
					"stateMutability": "view",
					"type": "function"
				},
				{
					"inputs": [
						{
							"internalType": "address",
							"name": "token",
							"type": "address"
						}
					],
					"name": "setRewardToken",
					"outputs": [],
					"stateMutability": "nonpayable",
					"type": "function"
				},
				{
					"inputs": [
						{
							"internalType": "uint256",
							"name": "time",
							"type": "uint256"
						}
					],
					"name": "setStartTime",
					"outputs": [],
					"stateMutability": "nonpayable",
					"type": "function"
				},
				{
					"inputs": [
						{
							"internalType": "address",
							"name": "user",
							"type": "address"
						},
						{
							"internalType": "uint256",
							"name": "amount",
							"type": "uint256"
						}
					],
					"name": "stake",
					"outputs": [],
					"stateMutability": "nonpayable",
					"type": "function"
				},
				{
					"inputs": [],
					"name": "startTime",
					"outputs": [
						{
							"internalType": "uint256",
							"name": "",
							"type": "uint256"
						}
					],
					"stateMutability": "view",
					"type": "function"
				},
				{
					"inputs": [],
					"name": "totalPowers",
					"outputs": [
						{
							"internalType": "uint256",
							"name": "",
							"type": "uint256"
						}
					],
					"stateMutability": "view",
					"type": "function"
				},
				{
					"inputs": [],
					"name": "totalRewards",
					"outputs": [
						{
							"internalType": "uint256",
							"name": "",
							"type": "uint256"
						}
					],
					"stateMutability": "view",
					"type": "function"
				},
				{
					"inputs": [
						{
							"internalType": "address",
							"name": "newOwner",
							"type": "address"
						}
					],
					"name": "transferOwnership",
					"outputs": [],
					"stateMutability": "nonpayable",
					"type": "function"
				},
				{
					"inputs": [
						{
							"internalType": "address",
							"name": "",
							"type": "address"
						}
					],
					"name": "userLastUpdateTime",
					"outputs": [
						{
							"internalType": "uint256",
							"name": "",
							"type": "uint256"
						}
					],
					"stateMutability": "view",
					"type": "function"
				},
				{
					"inputs": [
						{
							"internalType": "address",
							"name": "",
							"type": "address"
						}
					],
					"name": "userRewardPerTokenPaid",
					"outputs": [
						{
							"internalType": "uint256",
							"name": "",
							"type": "uint256"
						}
					],
					"stateMutability": "view",
					"type": "function"
				}
			],
			"devdoc": {
				"kind": "dev",
				"methods": {},
				"version": 1
			},
			"evm": {
				"assembly": "    /* \"inviter_presell/stake.sol\":371:7266  contract StakingRewards is Adminable , ReentrancyGuard{... */\n  mstore(0x40, 0x80)\n    /* \"inviter_presell/stake.sol\":581:598  168000 * 10 ** 18 */\n  0x23934c5a09da19000000\n    /* \"inviter_presell/stake.sol\":551:598  uint256 public totalRewards = 168000 * 10 ** 18 */\n  0x05\n  sstore\n    /* \"inviter_presell/stake.sol\":666:676  10 minutes */\n  0x0258\n    /* \"inviter_presell/stake.sol\":636:676  uint256 public rateInterval = 10 minutes */\n  0x07\n  sstore\n    /* \"inviter_presell/stake.sol\":722:723  5 */\n  0x05\n    /* \"inviter_presell/stake.sol\":683:723  uint256 public rateIntervalNumerator = 5 */\n  0x08\n  sstore\n    /* \"inviter_presell/stake.sol\":771:775  1000 */\n  0x03e8\n    /* \"inviter_presell/stake.sol\":730:775  uint256 public rateIntervalDenominator = 1000 */\n  0x09\n  sstore\n    /* \"inviter_presell/stake.sol\":371:7266  contract StakingRewards is Adminable , ReentrancyGuard{... */\n  callvalue\n  dup1\n  iszero\n  tag_1\n  jumpi\n  0x00\n  dup1\n  revert\ntag_1:\n  pop\n    /* \"inviter_presell/adminable.sol\":603:635  _transferOwnership(_msgSender()) */\n  tag_5\n    /* \"inviter_presell/adminable.sol\":622:634  _msgSender() */\n  tag_6\n    /* \"inviter_presell/adminable.sol\":622:632  _msgSender */\n  shl(0x20, tag_7)\n    /* \"inviter_presell/adminable.sol\":622:634  _msgSender() */\n  0x20\n  shr\n  jump\t// in\ntag_6:\n    /* \"inviter_presell/adminable.sol\":603:621  _transferOwnership */\n  shl(0x20, tag_8)\n    /* \"inviter_presell/adminable.sol\":603:635  _transferOwnership(_msgSender()) */\n  0x20\n  shr\n  jump\t// in\ntag_5:\n    /* \"node_modules/@openzeppelin/contracts/security/ReentrancyGuard.sol\":1701:1702  1 */\n  0x01\n    /* \"node_modules/@openzeppelin/contracts/security/ReentrancyGuard.sol\":1806:1813  _status */\n  0x02\n    /* \"node_modules/@openzeppelin/contracts/security/ReentrancyGuard.sol\":1806:1828  _status = _NOT_ENTERED */\n  dup2\n  swap1\n  sstore\n  pop\n    /* \"inviter_presell/stake.sol\":371:7266  contract StakingRewards is Adminable , ReentrancyGuard{... */\n  jump(tag_10)\n    /* \"inviter_presell/adminable.sol\":63:161  function _msgSender() internal view virtual returns (address) {... */\ntag_7:\n    /* \"inviter_presell/adminable.sol\":116:123  address */\n  0x00\n    /* \"inviter_presell/adminable.sol\":143:153  msg.sender */\n  caller\n    /* \"inviter_presell/adminable.sol\":136:153  return msg.sender */\n  swap1\n  pop\n    /* \"inviter_presell/adminable.sol\":63:161  function _msgSender() internal view virtual returns (address) {... */\n  swap1\n  jump\t// out\n    /* \"inviter_presell/adminable.sol\":1443:1634  function _transferOwnership(address newOwner) internal virtual {... */\ntag_8:\n    /* \"inviter_presell/adminable.sol\":1517:1533  address oldOwner */\n  0x00\n    /* \"inviter_presell/adminable.sol\":1536:1542  _owner */\n  0x01\n  0x00\n  swap1\n  sload\n  swap1\n  0x0100\n  exp\n  swap1\n  div\n  0xffffffffffffffffffffffffffffffffffffffff\n  and\n    /* \"inviter_presell/adminable.sol\":1517:1542  address oldOwner = _owner */\n  swap1\n  pop\n    /* \"inviter_presell/adminable.sol\":1562:1570  newOwner */\n  dup2\n    /* \"inviter_presell/adminable.sol\":1553:1559  _owner */\n  0x01\n  0x00\n    /* \"inviter_presell/adminable.sol\":1553:1570  _owner = newOwner */\n  0x0100\n  exp\n  dup2\n  sload\n  dup2\n  0xffffffffffffffffffffffffffffffffffffffff\n  mul\n  not\n  and\n  swap1\n  dup4\n  0xffffffffffffffffffffffffffffffffffffffff\n  and\n  mul\n  or\n  swap1\n  sstore\n  pop\n    /* \"inviter_presell/adminable.sol\":1617:1625  newOwner */\n  dup2\n    /* \"inviter_presell/adminable.sol\":1586:1626  OwnershipTransferred(oldOwner, newOwner) */\n  0xffffffffffffffffffffffffffffffffffffffff\n  and\n    /* \"inviter_presell/adminable.sol\":1607:1615  oldOwner */\n  dup2\n    /* \"inviter_presell/adminable.sol\":1586:1626  OwnershipTransferred(oldOwner, newOwner) */\n  0xffffffffffffffffffffffffffffffffffffffff\n  and\n  0x8be0079c531659141344cd1fd0a4f28419497f9722a3daafe3b4186f6b6457e0\n  mload(0x40)\n  mload(0x40)\n  dup1\n  swap2\n  sub\n  swap1\n  log3\n    /* \"inviter_presell/adminable.sol\":1506:1634  {... */\n  pop\n    /* \"inviter_presell/adminable.sol\":1443:1634  function _transferOwnership(address newOwner) internal virtual {... */\n  pop\n  jump\t// out\n    /* \"inviter_presell/stake.sol\":371:7266  contract StakingRewards is Adminable , ReentrancyGuard{... */\ntag_10:\n  dataSize(sub_0)\n  dup1\n  dataOffset(sub_0)\n  0x00\n  codecopy\n  0x00\n  return\nstop\n\nsub_0: assembly {\n        /* \"inviter_presell/stake.sol\":371:7266  contract StakingRewards is Adminable , ReentrancyGuard{... */\n      mstore(0x40, 0x80)\n      callvalue\n      dup1\n      iszero\n      tag_1\n      jumpi\n      0x00\n      dup1\n      revert\n    tag_1:\n      pop\n      jumpi(tag_2, lt(calldatasize, 0x04))\n      shr(0xe0, calldataload(0x00))\n      dup1\n      0x8107368b\n      gt\n      tag_36\n      jumpi\n      dup1\n      0xadc9772e\n      gt\n      tag_37\n      jumpi\n      dup1\n      0xd1af0c7d\n      gt\n      tag_38\n      jumpi\n      dup1\n      0xd1af0c7d\n      eq\n      tag_31\n      jumpi\n      dup1\n      0xda4f8431\n      eq\n      tag_32\n      jumpi\n      dup1\n      0xdb2e21bc\n      eq\n      tag_33\n      jumpi\n      dup1\n      0xdf136d65\n      eq\n      tag_34\n      jumpi\n      dup1\n      0xf2fde38b\n      eq\n      tag_35\n      jumpi\n      jump(tag_2)\n    tag_38:\n      dup1\n      0xadc9772e\n      eq\n      tag_27\n      jumpi\n      dup1\n      0xb79ec812\n      eq\n      tag_28\n      jumpi\n      dup1\n      0xc8f33c91\n      eq\n      tag_29\n      jumpi\n      dup1\n      0xcdda56e0\n      eq\n      tag_30\n      jumpi\n      jump(tag_2)\n    tag_37:\n      dup1\n      0x8da5cb5b\n      gt\n      tag_39\n      jumpi\n      dup1\n      0x8da5cb5b\n      eq\n      tag_23\n      jumpi\n      dup1\n      0x9499c549\n      eq\n      tag_24\n      jumpi\n      dup1\n      0x9a5b17b0\n      eq\n      tag_25\n      jumpi\n      dup1\n      0xa4c3b091\n      eq\n      tag_26\n      jumpi\n      jump(tag_2)\n    tag_39:\n      dup1\n      0x8107368b\n      eq\n      tag_19\n      jumpi\n      dup1\n      0x874c120b\n      eq\n      tag_20\n      jumpi\n      dup1\n      0x8aee8127\n      eq\n      tag_21\n      jumpi\n      dup1\n      0x8b876347\n      eq\n      tag_22\n      jumpi\n      jump(tag_2)\n    tag_36:\n      dup1\n      0x4dbdc4eb\n      gt\n      tag_40\n      jumpi\n      dup1\n      0x715018a6\n      gt\n      tag_41\n      jumpi\n      dup1\n      0x715018a6\n      eq\n      tag_15\n      jumpi\n      dup1\n      0x78e97925\n      eq\n      tag_16\n      jumpi\n      dup1\n      0x7a6fcee7\n      eq\n      tag_17\n      jumpi\n      dup1\n      0x80faa57d\n      eq\n      tag_18\n      jumpi\n      jump(tag_2)\n    tag_41:\n      dup1\n      0x4dbdc4eb\n      eq\n      tag_11\n      jumpi\n      dup1\n      0x5cfa91f4\n      eq\n      tag_12\n      jumpi\n      dup1\n      0x6139d4b4\n      eq\n      tag_13\n      jumpi\n      dup1\n      0x6917c501\n      eq\n      tag_14\n      jumpi\n      jump(tag_2)\n    tag_40:\n      dup1\n      0x24d7806c\n      gt\n      tag_42\n      jumpi\n      dup1\n      0x24d7806c\n      eq\n      tag_7\n      jumpi\n      dup1\n      0x3c4045cf\n      eq\n      tag_8\n      jumpi\n      dup1\n      0x3d18b912\n      eq\n      tag_9\n      jumpi\n      dup1\n      0x3e0a322d\n      eq\n      tag_10\n      jumpi\n      jump(tag_2)\n    tag_42:\n      dup1\n      0x8cc262\n      eq\n      tag_3\n      jumpi\n      dup1\n      0x0700037d\n      eq\n      tag_4\n      jumpi\n      dup1\n      0x0e15561a\n      eq\n      tag_5\n      jumpi\n      dup1\n      0x18e20ecf\n      eq\n      tag_6\n      jumpi\n    tag_2:\n      0x00\n      dup1\n      revert\n        /* \"inviter_presell/stake.sol\":4407:4703  function earned(address account) public view returns (uint256) {... */\n    tag_3:\n      tag_43\n      0x04\n      dup1\n      calldatasize\n      sub\n      dup2\n      add\n      swap1\n      tag_44\n      swap2\n      swap1\n      tag_45\n      jump\t// in\n    tag_44:\n      tag_46\n      jump\t// in\n    tag_43:\n      mload(0x40)\n      tag_47\n      swap2\n      swap1\n      tag_48\n      jump\t// in\n    tag_47:\n      mload(0x40)\n      dup1\n      swap2\n      sub\n      swap1\n      return\n        /* \"inviter_presell/stake.sol\":500:542  mapping(address => uint256) public rewards */\n    tag_4:\n      tag_49\n      0x04\n      dup1\n      calldatasize\n      sub\n      dup2\n      add\n      swap1\n      tag_50\n      swap2\n      swap1\n      tag_45\n      jump\t// in\n    tag_50:\n      tag_51\n      jump\t// in\n    tag_49:\n      mload(0x40)\n      tag_52\n      swap2\n      swap1\n      tag_48\n      jump\t// in\n    tag_52:\n      mload(0x40)\n      dup1\n      swap2\n      sub\n      swap1\n      return\n        /* \"inviter_presell/stake.sol\":551:598  uint256 public totalRewards = 168000 * 10 ** 18 */\n    tag_5:\n      tag_53\n      tag_54\n      jump\t// in\n    tag_53:\n      mload(0x40)\n      tag_55\n      swap2\n      swap1\n      tag_48\n      jump\t// in\n    tag_55:\n      mload(0x40)\n      dup1\n      swap2\n      sub\n      swap1\n      return\n        /* \"inviter_presell/adminable.sol\":1642:1826  function modificationAdmin(address admin, bool state) public virtual onlyOwner {... */\n    tag_6:\n      tag_56\n      0x04\n      dup1\n      calldatasize\n      sub\n      dup2\n      add\n      swap1\n      tag_57\n      swap2\n      swap1\n      tag_58\n      jump\t// in\n    tag_57:\n      tag_59\n      jump\t// in\n    tag_56:\n      stop\n        /* \"inviter_presell/adminable.sol\":1004:1115  function isAdmin(address account) public view virtual returns (bool) {... */\n    tag_7:\n      tag_60\n      0x04\n      dup1\n      calldatasize\n      sub\n      dup2\n      add\n      swap1\n      tag_61\n      swap2\n      swap1\n      tag_45\n      jump\t// in\n    tag_61:\n      tag_62\n      jump\t// in\n    tag_60:\n      mload(0x40)\n      tag_63\n      swap2\n      swap1\n      tag_64\n      jump\t// in\n    tag_63:\n      mload(0x40)\n      dup1\n      swap2\n      sub\n      swap1\n      return\n        /* \"inviter_presell/stake.sol\":683:723  uint256 public rateIntervalNumerator = 5 */\n    tag_8:\n      tag_65\n      tag_66\n      jump\t// in\n    tag_65:\n      mload(0x40)\n      tag_67\n      swap2\n      swap1\n      tag_48\n      jump\t// in\n    tag_67:\n      mload(0x40)\n      dup1\n      swap2\n      sub\n      swap1\n      return\n        /* \"inviter_presell/stake.sol\":6445:6750  function getReward() external nonReentrant updateReward(msg.sender) {... */\n    tag_9:\n      tag_68\n      tag_69\n      jump\t// in\n    tag_68:\n      stop\n        /* \"inviter_presell/stake.sol\":1682:1772  function setStartTime(uint256 time) external onlyAdmin {... */\n    tag_10:\n      tag_70\n      0x04\n      dup1\n      calldatasize\n      sub\n      dup2\n      add\n      swap1\n      tag_71\n      swap2\n      swap1\n      tag_72\n      jump\t// in\n    tag_71:\n      tag_73\n      jump\t// in\n    tag_70:\n      stop\n        /* \"inviter_presell/stake.sol\":3157:3573  function getRemainPool(uint256 time) public view returns (uint256) {... */\n    tag_11:\n      tag_74\n      0x04\n      dup1\n      calldatasize\n      sub\n      dup2\n      add\n      swap1\n      tag_75\n      swap2\n      swap1\n      tag_72\n      jump\t// in\n    tag_75:\n      tag_76\n      jump\t// in\n    tag_74:\n      mload(0x40)\n      tag_77\n      swap2\n      swap1\n      tag_48\n      jump\t// in\n    tag_77:\n      mload(0x40)\n      dup1\n      swap2\n      sub\n      swap1\n      return\n        /* \"inviter_presell/stake.sol\":2224:2723  function getRewardPool(uint256 time) public view returns (uint256) {... */\n    tag_12:\n      tag_78\n      0x04\n      dup1\n      calldatasize\n      sub\n      dup2\n      add\n      swap1\n      tag_79\n      swap2\n      swap1\n      tag_72\n      jump\t// in\n    tag_79:\n      tag_80\n      jump\t// in\n    tag_78:\n      mload(0x40)\n      tag_81\n      swap2\n      swap1\n      tag_48\n      jump\t// in\n    tag_81:\n      mload(0x40)\n      dup1\n      swap2\n      sub\n      swap1\n      return\n        /* \"inviter_presell/stake.sol\":636:676  uint256 public rateInterval = 10 minutes */\n    tag_13:\n      tag_82\n      tag_83\n      jump\t// in\n    tag_82:\n      mload(0x40)\n      tag_84\n      swap2\n      swap1\n      tag_48\n      jump\t// in\n    tag_84:\n      mload(0x40)\n      dup1\n      swap2\n      sub\n      swap1\n      return\n        /* \"inviter_presell/stake.sol\":1780:1873  function totalPowers() external view returns (uint256) {... */\n    tag_14:\n      tag_85\n      tag_86\n      jump\t// in\n    tag_85:\n      mload(0x40)\n      tag_87\n      swap2\n      swap1\n      tag_48\n      jump\t// in\n    tag_87:\n      mload(0x40)\n      dup1\n      swap2\n      sub\n      swap1\n      return\n        /* \"inviter_presell/adminable.sol\":1123:1226  function renounceOwnership() public virtual onlyOwner {... */\n    tag_15:\n      tag_88\n      tag_89\n      jump\t// in\n    tag_88:\n      stop\n        /* \"inviter_presell/stake.sol\":605:629  uint256 public startTime */\n    tag_16:\n      tag_90\n      tag_91\n      jump\t// in\n    tag_90:\n      mload(0x40)\n      tag_92\n      swap2\n      swap1\n      tag_48\n      jump\t// in\n    tag_92:\n      mload(0x40)\n      dup1\n      swap2\n      sub\n      swap1\n      return\n        /* \"inviter_presell/stake.sol\":730:775  uint256 public rateIntervalDenominator = 1000 */\n    tag_17:\n      tag_93\n      tag_94\n      jump\t// in\n    tag_93:\n      mload(0x40)\n      tag_95\n      swap2\n      swap1\n      tag_48\n      jump\t// in\n    tag_95:\n      mload(0x40)\n      dup1\n      swap2\n      sub\n      swap1\n      return\n        /* \"inviter_presell/stake.sol\":3936:4043  function lastTimeRewardApplicable() public view returns (uint256) {... */\n    tag_18:\n      tag_96\n      tag_97\n      jump\t// in\n    tag_96:\n      mload(0x40)\n      tag_98\n      swap2\n      swap1\n      tag_48\n      jump\t// in\n    tag_98:\n      mload(0x40)\n      dup1\n      swap2\n      sub\n      swap1\n      return\n        /* \"inviter_presell/stake.sol\":926:979  mapping(address => uint256) public userLastUpdateTime */\n    tag_19:\n      tag_99\n      0x04\n      dup1\n      calldatasize\n      sub\n      dup2\n      add\n      swap1\n      tag_100\n      swap2\n      swap1\n      tag_45\n      jump\t// in\n    tag_100:\n      tag_101\n      jump\t// in\n    tag_99:\n      mload(0x40)\n      tag_102\n      swap2\n      swap1\n      tag_48\n      jump\t// in\n    tag_102:\n      mload(0x40)\n      dup1\n      swap2\n      sub\n      swap1\n      return\n        /* \"inviter_presell/stake.sol\":4051:4399  function rewardPerToken(uint256 rewardRate) public view returns (uint256) {... */\n    tag_20:\n      tag_103\n      0x04\n      dup1\n      calldatasize\n      sub\n      dup2\n      add\n      swap1\n      tag_104\n      swap2\n      swap1\n      tag_72\n      jump\t// in\n    tag_104:\n      tag_105\n      jump\t// in\n    tag_103:\n      mload(0x40)\n      tag_106\n      swap2\n      swap1\n      tag_48\n      jump\t// in\n    tag_106:\n      mload(0x40)\n      dup1\n      swap2\n      sub\n      swap1\n      return\n        /* \"inviter_presell/stake.sol\":6758:6863  function setRewardToken(address token) external onlyOwner {... */\n    tag_21:\n      tag_107\n      0x04\n      dup1\n      calldatasize\n      sub\n      dup2\n      add\n      swap1\n      tag_108\n      swap2\n      swap1\n      tag_45\n      jump\t// in\n    tag_108:\n      tag_109\n      jump\t// in\n    tag_107:\n      stop\n        /* \"inviter_presell/stake.sol\":862:919  mapping(address => uint256) public userRewardPerTokenPaid */\n    tag_22:\n      tag_110\n      0x04\n      dup1\n      calldatasize\n      sub\n      dup2\n      add\n      swap1\n      tag_111\n      swap2\n      swap1\n      tag_45\n      jump\t// in\n    tag_111:\n      tag_112\n      jump\t// in\n    tag_110:\n      mload(0x40)\n      tag_113\n      swap2\n      swap1\n      tag_48\n      jump\t// in\n    tag_113:\n      mload(0x40)\n      dup1\n      swap2\n      sub\n      swap1\n      return\n        /* \"inviter_presell/adminable.sol\":909:996  function owner() public view virtual returns (address) {... */\n    tag_23:\n      tag_114\n      tag_115\n      jump\t// in\n    tag_114:\n      mload(0x40)\n      tag_116\n      swap2\n      swap1\n      tag_117\n      jump\t// in\n    tag_116:\n      mload(0x40)\n      dup1\n      swap2\n      sub\n      swap1\n      return\n        /* \"inviter_presell/stake.sol\":2102:2216  function getCurRewardPool() public view returns (uint256) {... */\n    tag_24:\n      tag_118\n      tag_119\n      jump\t// in\n    tag_118:\n      mload(0x40)\n      tag_120\n      swap2\n      swap1\n      tag_48\n      jump\t// in\n    tag_120:\n      mload(0x40)\n      dup1\n      swap2\n      sub\n      swap1\n      return\n        /* \"inviter_presell/stake.sol\":1881:1975  function curTime() external  view  returns (uint256) {... */\n    tag_25:\n      tag_121\n      tag_122\n      jump\t// in\n    tag_121:\n      mload(0x40)\n      tag_123\n      swap2\n      swap1\n      tag_48\n      jump\t// in\n    tag_123:\n      mload(0x40)\n      dup1\n      swap2\n      sub\n      swap1\n      return\n        /* \"inviter_presell/stake.sol\":7120:7263  function emergencyWithdrawToken(address token, uint256 amount) external onlyOwner {... */\n    tag_26:\n      tag_124\n      0x04\n      dup1\n      calldatasize\n      sub\n      dup2\n      add\n      swap1\n      tag_125\n      swap2\n      swap1\n      tag_126\n      jump\t// in\n    tag_125:\n      tag_127\n      jump\t// in\n    tag_124:\n      stop\n        /* \"inviter_presell/stake.sol\":6139:6433  function stake(address user, uint256 amount) external nonReentrant onlyAdmin updateReward(user) {... */\n    tag_27:\n      tag_128\n      0x04\n      dup1\n      calldatasize\n      sub\n      dup2\n      add\n      swap1\n      tag_129\n      swap2\n      swap1\n      tag_126\n      jump\t// in\n    tag_129:\n      tag_130\n      jump\t// in\n    tag_128:\n      stop\n        /* \"inviter_presell/stake.sol\":1983:2094  function powersOf(address account) external view returns (uint256) {... */\n    tag_28:\n      tag_131\n      0x04\n      dup1\n      calldatasize\n      sub\n      dup2\n      add\n      swap1\n      tag_132\n      swap2\n      swap1\n      tag_45\n      jump\t// in\n    tag_132:\n      tag_133\n      jump\t// in\n    tag_131:\n      mload(0x40)\n      tag_134\n      swap2\n      swap1\n      tag_48\n      jump\t// in\n    tag_134:\n      mload(0x40)\n      dup1\n      swap2\n      sub\n      swap1\n      return\n        /* \"inviter_presell/stake.sol\":782:811  uint256 public lastUpdateTime */\n    tag_29:\n      tag_135\n      tag_136\n      jump\t// in\n    tag_135:\n      mload(0x40)\n      tag_137\n      swap2\n      swap1\n      tag_48\n      jump\t// in\n    tag_137:\n      mload(0x40)\n      dup1\n      swap2\n      sub\n      swap1\n      return\n        /* \"inviter_presell/stake.sol\":3581:3696  function getCurRewardRate() public view returns (uint256) {... */\n    tag_30:\n      tag_138\n      tag_139\n      jump\t// in\n    tag_138:\n      mload(0x40)\n      tag_140\n      swap2\n      swap1\n      tag_48\n      jump\t// in\n    tag_140:\n      mload(0x40)\n      dup1\n      swap2\n      sub\n      swap1\n      return\n        /* \"inviter_presell/stake.sol\":467:493  IERC20 public rewardsToken */\n    tag_31:\n      tag_141\n      tag_142\n      jump\t// in\n    tag_141:\n      mload(0x40)\n      tag_143\n      swap2\n      swap1\n      tag_144\n      jump\t// in\n    tag_143:\n      mload(0x40)\n      dup1\n      swap2\n      sub\n      swap1\n      return\n        /* \"inviter_presell/stake.sol\":4746:6129  function getTimeWeightedAveRate(uint256 leftTime, uint256 rightTime) public view returns (uint256){... */\n    tag_32:\n      tag_145\n      0x04\n      dup1\n      calldatasize\n      sub\n      dup2\n      add\n      swap1\n      tag_146\n      swap2\n      swap1\n      tag_147\n      jump\t// in\n    tag_146:\n      tag_148\n      jump\t// in\n    tag_145:\n      mload(0x40)\n      tag_149\n      swap2\n      swap1\n      tag_48\n      jump\t// in\n    tag_149:\n      mload(0x40)\n      dup1\n      swap2\n      sub\n      swap1\n      return\n        /* \"inviter_presell/stake.sol\":6997:7112  function emergencyWithdraw() external onlyOwner {... */\n    tag_33:\n      tag_150\n      tag_151\n      jump\t// in\n    tag_150:\n      stop\n        /* \"inviter_presell/stake.sol\":818:853  uint256 public rewardPerTokenStored */\n    tag_34:\n      tag_152\n      tag_153\n      jump\t// in\n    tag_152:\n      mload(0x40)\n      tag_154\n      swap2\n      swap1\n      tag_48\n      jump\t// in\n    tag_154:\n      mload(0x40)\n      dup1\n      swap2\n      sub\n      swap1\n      return\n        /* \"inviter_presell/adminable.sol\":1234:1435  function transferOwnership(address newOwner) public virtual onlyOwner {... */\n    tag_35:\n      tag_155\n      0x04\n      dup1\n      calldatasize\n      sub\n      dup2\n      add\n      swap1\n      tag_156\n      swap2\n      swap1\n      tag_45\n      jump\t// in\n    tag_156:\n      tag_157\n      jump\t// in\n    tag_155:\n      stop\n        /* \"inviter_presell/stake.sol\":4407:4703  function earned(address account) public view returns (uint256) {... */\n    tag_46:\n        /* \"inviter_presell/stake.sol\":4461:4468  uint256 */\n      0x00\n        /* \"inviter_presell/stake.sol\":4481:4493  uint256 rate */\n      dup1\n        /* \"inviter_presell/stake.sol\":4496:4564  getTimeWeightedAveRate(userLastUpdateTime[account], block.timestamp) */\n      tag_159\n        /* \"inviter_presell/stake.sol\":4519:4537  userLastUpdateTime */\n      0x0d\n        /* \"inviter_presell/stake.sol\":4519:4546  userLastUpdateTime[account] */\n      0x00\n        /* \"inviter_presell/stake.sol\":4538:4545  account */\n      dup6\n        /* \"inviter_presell/stake.sol\":4519:4546  userLastUpdateTime[account] */\n      0xffffffffffffffffffffffffffffffffffffffff\n      and\n      0xffffffffffffffffffffffffffffffffffffffff\n      and\n      dup2\n      mstore\n      0x20\n      add\n      swap1\n      dup2\n      mstore\n      0x20\n      add\n      0x00\n      keccak256\n      sload\n        /* \"inviter_presell/stake.sol\":4548:4563  block.timestamp */\n      timestamp\n        /* \"inviter_presell/stake.sol\":4496:4518  getTimeWeightedAveRate */\n      tag_148\n        /* \"inviter_presell/stake.sol\":4496:4564  getTimeWeightedAveRate(userLastUpdateTime[account], block.timestamp) */\n      jump\t// in\n    tag_159:\n        /* \"inviter_presell/stake.sol\":4481:4564  uint256 rate = getTimeWeightedAveRate(userLastUpdateTime[account], block.timestamp) */\n      swap1\n      pop\n        /* \"inviter_presell/stake.sol\":4582:4695  _balances[account].mul(rewardPerToken(rate).sub(userRewardPerTokenPaid[account])).div(1e18).add(rewards[account]) */\n      tag_160\n        /* \"inviter_presell/stake.sol\":4678:4685  rewards */\n      0x04\n        /* \"inviter_presell/stake.sol\":4678:4694  rewards[account] */\n      0x00\n        /* \"inviter_presell/stake.sol\":4686:4693  account */\n      dup6\n        /* \"inviter_presell/stake.sol\":4678:4694  rewards[account] */\n      0xffffffffffffffffffffffffffffffffffffffff\n      and\n      0xffffffffffffffffffffffffffffffffffffffff\n      and\n      dup2\n      mstore\n      0x20\n      add\n      swap1\n      dup2\n      mstore\n      0x20\n      add\n      0x00\n      keccak256\n      sload\n        /* \"inviter_presell/stake.sol\":4582:4673  _balances[account].mul(rewardPerToken(rate).sub(userRewardPerTokenPaid[account])).div(1e18) */\n      tag_161\n        /* \"inviter_presell/stake.sol\":4668:4672  1e18 */\n      0x0de0b6b3a7640000\n        /* \"inviter_presell/stake.sol\":4582:4663  _balances[account].mul(rewardPerToken(rate).sub(userRewardPerTokenPaid[account])) */\n      tag_162\n        /* \"inviter_presell/stake.sol\":4605:4662  rewardPerToken(rate).sub(userRewardPerTokenPaid[account]) */\n      tag_163\n        /* \"inviter_presell/stake.sol\":4630:4652  userRewardPerTokenPaid */\n      0x0c\n        /* \"inviter_presell/stake.sol\":4630:4661  userRewardPerTokenPaid[account] */\n      0x00\n        /* \"inviter_presell/stake.sol\":4653:4660  account */\n      dup11\n        /* \"inviter_presell/stake.sol\":4630:4661  userRewardPerTokenPaid[account] */\n      0xffffffffffffffffffffffffffffffffffffffff\n      and\n      0xffffffffffffffffffffffffffffffffffffffff\n      and\n      dup2\n      mstore\n      0x20\n      add\n      swap1\n      dup2\n      mstore\n      0x20\n      add\n      0x00\n      keccak256\n      sload\n        /* \"inviter_presell/stake.sol\":4605:4625  rewardPerToken(rate) */\n      tag_164\n        /* \"inviter_presell/stake.sol\":4620:4624  rate */\n      dup9\n        /* \"inviter_presell/stake.sol\":4605:4619  rewardPerToken */\n      tag_105\n        /* \"inviter_presell/stake.sol\":4605:4625  rewardPerToken(rate) */\n      jump\t// in\n    tag_164:\n        /* \"inviter_presell/stake.sol\":4605:4629  rewardPerToken(rate).sub */\n      tag_165\n      swap1\n        /* \"inviter_presell/stake.sol\":4605:4662  rewardPerToken(rate).sub(userRewardPerTokenPaid[account]) */\n      swap2\n      swap1\n      0xffffffff\n      and\n      jump\t// in\n    tag_163:\n        /* \"inviter_presell/stake.sol\":4582:4591  _balances */\n      0x0f\n        /* \"inviter_presell/stake.sol\":4582:4600  _balances[account] */\n      0x00\n        /* \"inviter_presell/stake.sol\":4592:4599  account */\n      dup11\n        /* \"inviter_presell/stake.sol\":4582:4600  _balances[account] */\n      0xffffffffffffffffffffffffffffffffffffffff\n      and\n      0xffffffffffffffffffffffffffffffffffffffff\n      and\n      dup2\n      mstore\n      0x20\n      add\n      swap1\n      dup2\n      mstore\n      0x20\n      add\n      0x00\n      keccak256\n      sload\n        /* \"inviter_presell/stake.sol\":4582:4604  _balances[account].mul */\n      tag_166\n      swap1\n        /* \"inviter_presell/stake.sol\":4582:4663  _balances[account].mul(rewardPerToken(rate).sub(userRewardPerTokenPaid[account])) */\n      swap2\n      swap1\n      0xffffffff\n      and\n      jump\t// in\n    tag_162:\n        /* \"inviter_presell/stake.sol\":4582:4667  _balances[account].mul(rewardPerToken(rate).sub(userRewardPerTokenPaid[account])).div */\n      tag_167\n      swap1\n        /* \"inviter_presell/stake.sol\":4582:4673  _balances[account].mul(rewardPerToken(rate).sub(userRewardPerTokenPaid[account])).div(1e18) */\n      swap2\n      swap1\n      0xffffffff\n      and\n      jump\t// in\n    tag_161:\n        /* \"inviter_presell/stake.sol\":4582:4677  _balances[account].mul(rewardPerToken(rate).sub(userRewardPerTokenPaid[account])).div(1e18).add */\n      tag_168\n      swap1\n        /* \"inviter_presell/stake.sol\":4582:4695  _balances[account].mul(rewardPerToken(rate).sub(userRewardPerTokenPaid[account])).div(1e18).add(rewards[account]) */\n      swap2\n      swap1\n      0xffffffff\n      and\n      jump\t// in\n    tag_160:\n        /* \"inviter_presell/stake.sol\":4575:4695  return _balances[account].mul(rewardPerToken(rate).sub(userRewardPerTokenPaid[account])).div(1e18).add(rewards[account]) */\n      swap2\n      pop\n      pop\n        /* \"inviter_presell/stake.sol\":4407:4703  function earned(address account) public view returns (uint256) {... */\n      swap2\n      swap1\n      pop\n      jump\t// out\n        /* \"inviter_presell/stake.sol\":500:542  mapping(address => uint256) public rewards */\n    tag_51:\n      mstore(0x20, 0x04)\n      dup1\n      0x00\n      mstore\n      keccak256(0x00, 0x40)\n      0x00\n      swap2\n      pop\n      swap1\n      pop\n      sload\n      dup2\n      jump\t// out\n        /* \"inviter_presell/stake.sol\":551:598  uint256 public totalRewards = 168000 * 10 ** 18 */\n    tag_54:\n      sload(0x05)\n      dup2\n      jump\t// out\n        /* \"inviter_presell/adminable.sol\":1642:1826  function modificationAdmin(address admin, bool state) public virtual onlyOwner {... */\n    tag_59:\n        /* \"inviter_presell/adminable.sol\":702:714  _msgSender() */\n      tag_170\n        /* \"inviter_presell/adminable.sol\":702:712  _msgSender */\n      tag_171\n        /* \"inviter_presell/adminable.sol\":702:714  _msgSender() */\n      jump\t// in\n    tag_170:\n        /* \"inviter_presell/adminable.sol\":691:714  owner() == _msgSender() */\n      0xffffffffffffffffffffffffffffffffffffffff\n      and\n        /* \"inviter_presell/adminable.sol\":691:698  owner() */\n      tag_172\n        /* \"inviter_presell/adminable.sol\":691:696  owner */\n      tag_115\n        /* \"inviter_presell/adminable.sol\":691:698  owner() */\n      jump\t// in\n    tag_172:\n        /* \"inviter_presell/adminable.sol\":691:714  owner() == _msgSender() */\n      0xffffffffffffffffffffffffffffffffffffffff\n      and\n      eq\n        /* \"inviter_presell/adminable.sol\":683:753  require(owner() == _msgSender(), \"Adminable: caller is not the owner\") */\n      tag_173\n      jumpi\n      mload(0x40)\n      0x08c379a000000000000000000000000000000000000000000000000000000000\n      dup2\n      mstore\n      0x04\n      add\n      tag_174\n      swap1\n      tag_175\n      jump\t// in\n    tag_174:\n      mload(0x40)\n      dup1\n      swap2\n      sub\n      swap1\n      revert\n    tag_173:\n        /* \"inviter_presell/adminable.sol\":1755:1760  admin */\n      dup2\n        /* \"inviter_presell/adminable.sol\":1737:1785  ModificationAdmin(admin,  _admins[admin], state) */\n      0xffffffffffffffffffffffffffffffffffffffff\n      and\n      0x82f1fa40a3d82dea3e406073819290601f436580aa7c69f9feb61f885bdd8854\n        /* \"inviter_presell/adminable.sol\":1763:1770  _admins */\n      0x00\n        /* \"inviter_presell/adminable.sol\":1763:1777  _admins[admin] */\n      dup1\n        /* \"inviter_presell/adminable.sol\":1771:1776  admin */\n      dup6\n        /* \"inviter_presell/adminable.sol\":1763:1777  _admins[admin] */\n      0xffffffffffffffffffffffffffffffffffffffff\n      and\n      0xffffffffffffffffffffffffffffffffffffffff\n      and\n      dup2\n      mstore\n      0x20\n      add\n      swap1\n      dup2\n      mstore\n      0x20\n      add\n      0x00\n      keccak256\n      0x00\n      swap1\n      sload\n      swap1\n      0x0100\n      exp\n      swap1\n      div\n      0xff\n      and\n        /* \"inviter_presell/adminable.sol\":1779:1784  state */\n      dup4\n        /* \"inviter_presell/adminable.sol\":1737:1785  ModificationAdmin(admin,  _admins[admin], state) */\n      mload(0x40)\n      tag_177\n      swap3\n      swap2\n      swap1\n      tag_178\n      jump\t// in\n    tag_177:\n      mload(0x40)\n      dup1\n      swap2\n      sub\n      swap1\n      log2\n        /* \"inviter_presell/adminable.sol\":1813:1818  state */\n      dup1\n        /* \"inviter_presell/adminable.sol\":1796:1803  _admins */\n      0x00\n        /* \"inviter_presell/adminable.sol\":1796:1810  _admins[admin] */\n      dup1\n        /* \"inviter_presell/adminable.sol\":1804:1809  admin */\n      dup5\n        /* \"inviter_presell/adminable.sol\":1796:1810  _admins[admin] */\n      0xffffffffffffffffffffffffffffffffffffffff\n      and\n      0xffffffffffffffffffffffffffffffffffffffff\n      and\n      dup2\n      mstore\n      0x20\n      add\n      swap1\n      dup2\n      mstore\n      0x20\n      add\n      0x00\n      keccak256\n      0x00\n        /* \"inviter_presell/adminable.sol\":1796:1818  _admins[admin] = state */\n      0x0100\n      exp\n      dup2\n      sload\n      dup2\n      0xff\n      mul\n      not\n      and\n      swap1\n      dup4\n      iszero\n      iszero\n      mul\n      or\n      swap1\n      sstore\n      pop\n        /* \"inviter_presell/adminable.sol\":1642:1826  function modificationAdmin(address admin, bool state) public virtual onlyOwner {... */\n      pop\n      pop\n      jump\t// out\n        /* \"inviter_presell/adminable.sol\":1004:1115  function isAdmin(address account) public view virtual returns (bool) {... */\n    tag_62:\n        /* \"inviter_presell/adminable.sol\":1067:1071  bool */\n      0x00\n        /* \"inviter_presell/adminable.sol\":1091:1098  _admins */\n      dup1\n        /* \"inviter_presell/adminable.sol\":1091:1107  _admins[account] */\n      0x00\n        /* \"inviter_presell/adminable.sol\":1099:1106  account */\n      dup4\n        /* \"inviter_presell/adminable.sol\":1091:1107  _admins[account] */\n      0xffffffffffffffffffffffffffffffffffffffff\n      and\n      0xffffffffffffffffffffffffffffffffffffffff\n      and\n      dup2\n      mstore\n      0x20\n      add\n      swap1\n      dup2\n      mstore\n      0x20\n      add\n      0x00\n      keccak256\n      0x00\n      swap1\n      sload\n      swap1\n      0x0100\n      exp\n      swap1\n      div\n      0xff\n      and\n        /* \"inviter_presell/adminable.sol\":1084:1107  return _admins[account] */\n      swap1\n      pop\n        /* \"inviter_presell/adminable.sol\":1004:1115  function isAdmin(address account) public view virtual returns (bool) {... */\n      swap2\n      swap1\n      pop\n      jump\t// out\n        /* \"inviter_presell/stake.sol\":683:723  uint256 public rateIntervalNumerator = 5 */\n    tag_66:\n      sload(0x08)\n      dup2\n      jump\t// out\n        /* \"inviter_presell/stake.sol\":6445:6750  function getReward() external nonReentrant updateReward(msg.sender) {... */\n    tag_69:\n        /* \"node_modules/@openzeppelin/contracts/security/ReentrancyGuard.sol\":1744:1745  2 */\n      0x02\n        /* \"node_modules/@openzeppelin/contracts/security/ReentrancyGuard.sol\":2325:2332  _status */\n      dup1\n      sload\n        /* \"node_modules/@openzeppelin/contracts/security/ReentrancyGuard.sol\":2325:2344  _status != _ENTERED */\n      sub\n        /* \"node_modules/@openzeppelin/contracts/security/ReentrancyGuard.sol\":2317:2380  require(_status != _ENTERED, \"ReentrancyGuard: reentrant call\") */\n      tag_181\n      jumpi\n      mload(0x40)\n      0x08c379a000000000000000000000000000000000000000000000000000000000\n      dup2\n      mstore\n      0x04\n      add\n      tag_182\n      swap1\n      tag_183\n      jump\t// in\n    tag_182:\n      mload(0x40)\n      dup1\n      swap2\n      sub\n      swap1\n      revert\n    tag_181:\n        /* \"node_modules/@openzeppelin/contracts/security/ReentrancyGuard.sol\":1744:1745  2 */\n      0x02\n        /* \"node_modules/@openzeppelin/contracts/security/ReentrancyGuard.sol\":2455:2462  _status */\n      dup1\n        /* \"node_modules/@openzeppelin/contracts/security/ReentrancyGuard.sol\":2455:2473  _status = _ENTERED */\n      dup2\n      swap1\n      sstore\n      pop\n        /* \"inviter_presell/stake.sol\":6501:6511  msg.sender */\n      caller\n        /* \"inviter_presell/stake.sol\":1131:1143  uint256 time */\n      0x00\n        /* \"inviter_presell/stake.sol\":1146:1164  userLastUpdateTime */\n      0x0d\n        /* \"inviter_presell/stake.sol\":1146:1173  userLastUpdateTime[account] */\n      0x00\n        /* \"inviter_presell/stake.sol\":1165:1172  account */\n      dup4\n        /* \"inviter_presell/stake.sol\":1146:1173  userLastUpdateTime[account] */\n      0xffffffffffffffffffffffffffffffffffffffff\n      and\n      0xffffffffffffffffffffffffffffffffffffffff\n      and\n      dup2\n      mstore\n      0x20\n      add\n      swap1\n      dup2\n      mstore\n      0x20\n      add\n      0x00\n      keccak256\n      sload\n        /* \"inviter_presell/stake.sol\":1131:1173  uint256 time = userLastUpdateTime[account] */\n      swap1\n      pop\n        /* \"inviter_presell/stake.sol\":1195:1204  startTime */\n      sload(0x06)\n        /* \"inviter_presell/stake.sol\":1187:1191  time */\n      dup2\n        /* \"inviter_presell/stake.sol\":1187:1204  time <= startTime */\n      gt\n        /* \"inviter_presell/stake.sol\":1184:1249  if(time <= startTime) {... */\n      tag_185\n      jumpi\n        /* \"inviter_presell/stake.sol\":1228:1237  startTime */\n      sload(0x06)\n        /* \"inviter_presell/stake.sol\":1221:1237  time = startTime */\n      swap1\n      pop\n        /* \"inviter_presell/stake.sol\":1184:1249  if(time <= startTime) {... */\n    tag_185:\n        /* \"inviter_presell/stake.sol\":1259:1271  uint256 rate */\n      0x00\n        /* \"inviter_presell/stake.sol\":1274:1319  getTimeWeightedAveRate(time, block.timestamp) */\n      tag_186\n        /* \"inviter_presell/stake.sol\":1297:1301  time */\n      dup3\n        /* \"inviter_presell/stake.sol\":1303:1318  block.timestamp */\n      timestamp\n        /* \"inviter_presell/stake.sol\":1274:1296  getTimeWeightedAveRate */\n      tag_148\n        /* \"inviter_presell/stake.sol\":1274:1319  getTimeWeightedAveRate(time, block.timestamp) */\n      jump\t// in\n    tag_186:\n        /* \"inviter_presell/stake.sol\":1259:1319  uint256 rate = getTimeWeightedAveRate(time, block.timestamp) */\n      swap1\n      pop\n        /* \"inviter_presell/stake.sol\":1353:1373  rewardPerToken(rate) */\n      tag_187\n        /* \"inviter_presell/stake.sol\":1368:1372  rate */\n      dup2\n        /* \"inviter_presell/stake.sol\":1353:1367  rewardPerToken */\n      tag_105\n        /* \"inviter_presell/stake.sol\":1353:1373  rewardPerToken(rate) */\n      jump\t// in\n    tag_187:\n        /* \"inviter_presell/stake.sol\":1330:1350  rewardPerTokenStored */\n      0x0b\n        /* \"inviter_presell/stake.sol\":1330:1373  rewardPerTokenStored = rewardPerToken(rate) */\n      dup2\n      swap1\n      sstore\n      pop\n        /* \"inviter_presell/stake.sol\":1401:1427  lastTimeRewardApplicable() */\n      tag_188\n        /* \"inviter_presell/stake.sol\":1401:1425  lastTimeRewardApplicable */\n      tag_97\n        /* \"inviter_presell/stake.sol\":1401:1427  lastTimeRewardApplicable() */\n      jump\t// in\n    tag_188:\n        /* \"inviter_presell/stake.sol\":1384:1398  lastUpdateTime */\n      0x0a\n        /* \"inviter_presell/stake.sol\":1384:1427  lastUpdateTime = lastTimeRewardApplicable() */\n      dup2\n      swap1\n      sstore\n      pop\n        /* \"inviter_presell/stake.sol\":1461:1462  0 */\n      0x00\n        /* \"inviter_presell/stake.sol\":1442:1463  account != address(0) */\n      0xffffffffffffffffffffffffffffffffffffffff\n      and\n        /* \"inviter_presell/stake.sol\":1442:1449  account */\n      dup4\n        /* \"inviter_presell/stake.sol\":1442:1463  account != address(0) */\n      0xffffffffffffffffffffffffffffffffffffffff\n      and\n      eq\n        /* \"inviter_presell/stake.sol\":1438:1655  if (account != address(0)) {... */\n      tag_189\n      jumpi\n        /* \"inviter_presell/stake.sol\":1499:1514  earned(account) */\n      tag_190\n        /* \"inviter_presell/stake.sol\":1506:1513  account */\n      dup4\n        /* \"inviter_presell/stake.sol\":1499:1505  earned */\n      tag_46\n        /* \"inviter_presell/stake.sol\":1499:1514  earned(account) */\n      jump\t// in\n    tag_190:\n        /* \"inviter_presell/stake.sol\":1480:1487  rewards */\n      0x04\n        /* \"inviter_presell/stake.sol\":1480:1496  rewards[account] */\n      0x00\n        /* \"inviter_presell/stake.sol\":1488:1495  account */\n      dup6\n        /* \"inviter_presell/stake.sol\":1480:1496  rewards[account] */\n      0xffffffffffffffffffffffffffffffffffffffff\n      and\n      0xffffffffffffffffffffffffffffffffffffffff\n      and\n      dup2\n      mstore\n      0x20\n      add\n      swap1\n      dup2\n      mstore\n      0x20\n      add\n      0x00\n      keccak256\n        /* \"inviter_presell/stake.sol\":1480:1514  rewards[account] = earned(account) */\n      dup2\n      swap1\n      sstore\n      pop\n        /* \"inviter_presell/stake.sol\":1563:1583  rewardPerTokenStored */\n      sload(0x0b)\n        /* \"inviter_presell/stake.sol\":1529:1551  userRewardPerTokenPaid */\n      0x0c\n        /* \"inviter_presell/stake.sol\":1529:1560  userRewardPerTokenPaid[account] */\n      0x00\n        /* \"inviter_presell/stake.sol\":1552:1559  account */\n      dup6\n        /* \"inviter_presell/stake.sol\":1529:1560  userRewardPerTokenPaid[account] */\n      0xffffffffffffffffffffffffffffffffffffffff\n      and\n      0xffffffffffffffffffffffffffffffffffffffff\n      and\n      dup2\n      mstore\n      0x20\n      add\n      swap1\n      dup2\n      mstore\n      0x20\n      add\n      0x00\n      keccak256\n        /* \"inviter_presell/stake.sol\":1529:1583  userRewardPerTokenPaid[account] = rewardPerTokenStored */\n      dup2\n      swap1\n      sstore\n      pop\n        /* \"inviter_presell/stake.sol\":1628:1643  block.timestamp */\n      timestamp\n        /* \"inviter_presell/stake.sol\":1598:1616  userLastUpdateTime */\n      0x0d\n        /* \"inviter_presell/stake.sol\":1598:1625  userLastUpdateTime[account] */\n      0x00\n        /* \"inviter_presell/stake.sol\":1617:1624  account */\n      dup6\n        /* \"inviter_presell/stake.sol\":1598:1625  userLastUpdateTime[account] */\n      0xffffffffffffffffffffffffffffffffffffffff\n      and\n      0xffffffffffffffffffffffffffffffffffffffff\n      and\n      dup2\n      mstore\n      0x20\n      add\n      swap1\n      dup2\n      mstore\n      0x20\n      add\n      0x00\n      keccak256\n        /* \"inviter_presell/stake.sol\":1598:1643  userLastUpdateTime[account] = block.timestamp */\n      dup2\n      swap1\n      sstore\n      pop\n        /* \"inviter_presell/stake.sol\":1438:1655  if (account != address(0)) {... */\n    tag_189:\n        /* \"inviter_presell/stake.sol\":6524:6538  uint256 reward */\n      0x00\n        /* \"inviter_presell/stake.sol\":6541:6548  rewards */\n      0x04\n        /* \"inviter_presell/stake.sol\":6541:6560  rewards[msg.sender] */\n      0x00\n        /* \"inviter_presell/stake.sol\":6549:6559  msg.sender */\n      caller\n        /* \"inviter_presell/stake.sol\":6541:6560  rewards[msg.sender] */\n      0xffffffffffffffffffffffffffffffffffffffff\n      and\n      0xffffffffffffffffffffffffffffffffffffffff\n      and\n      dup2\n      mstore\n      0x20\n      add\n      swap1\n      dup2\n      mstore\n      0x20\n      add\n      0x00\n      keccak256\n      sload\n        /* \"inviter_presell/stake.sol\":6524:6560  uint256 reward = rewards[msg.sender] */\n      swap1\n      pop\n        /* \"inviter_presell/stake.sol\":6584:6585  0 */\n      0x00\n        /* \"inviter_presell/stake.sol\":6575:6581  reward */\n      dup2\n        /* \"inviter_presell/stake.sol\":6575:6585  reward > 0 */\n      gt\n        /* \"inviter_presell/stake.sol\":6571:6743  if (reward > 0) {... */\n      iszero\n      tag_192\n      jumpi\n        /* \"inviter_presell/stake.sol\":6624:6625  0 */\n      0x00\n        /* \"inviter_presell/stake.sol\":6602:6609  rewards */\n      0x04\n        /* \"inviter_presell/stake.sol\":6602:6621  rewards[msg.sender] */\n      0x00\n        /* \"inviter_presell/stake.sol\":6610:6620  msg.sender */\n      caller\n        /* \"inviter_presell/stake.sol\":6602:6621  rewards[msg.sender] */\n      0xffffffffffffffffffffffffffffffffffffffff\n      and\n      0xffffffffffffffffffffffffffffffffffffffff\n      and\n      dup2\n      mstore\n      0x20\n      add\n      swap1\n      dup2\n      mstore\n      0x20\n      add\n      0x00\n      keccak256\n        /* \"inviter_presell/stake.sol\":6602:6625  rewards[msg.sender] = 0 */\n      dup2\n      swap1\n      sstore\n      pop\n        /* \"inviter_presell/stake.sol\":6640:6652  rewardsToken */\n      0x03\n      0x00\n      swap1\n      sload\n      swap1\n      0x0100\n      exp\n      swap1\n      div\n      0xffffffffffffffffffffffffffffffffffffffff\n      and\n        /* \"inviter_presell/stake.sol\":6640:6661  rewardsToken.transfer */\n      0xffffffffffffffffffffffffffffffffffffffff\n      and\n      0xa9059cbb\n        /* \"inviter_presell/stake.sol\":6662:6672  msg.sender */\n      caller\n        /* \"inviter_presell/stake.sol\":6674:6680  reward */\n      dup4\n        /* \"inviter_presell/stake.sol\":6640:6681  rewardsToken.transfer(msg.sender, reward) */\n      mload(0x40)\n      dup4\n      0xffffffff\n      and\n      0xe0\n      shl\n      dup2\n      mstore\n      0x04\n      add\n      tag_193\n      swap3\n      swap2\n      swap1\n      tag_194\n      jump\t// in\n    tag_193:\n      0x20\n      mload(0x40)\n      dup1\n      dup4\n      sub\n      dup2\n      0x00\n      dup8\n      gas\n      call\n      iszero\n      dup1\n      iszero\n      tag_196\n      jumpi\n      returndatasize\n      0x00\n      dup1\n      returndatacopy\n      revert(0x00, returndatasize)\n    tag_196:\n      pop\n      pop\n      pop\n      pop\n      mload(0x40)\n      returndatasize\n      not(0x1f)\n      0x1f\n      dup3\n      add\n      and\n      dup3\n      add\n      dup1\n      0x40\n      mstore\n      pop\n      dup2\n      add\n      swap1\n      tag_197\n      swap2\n      swap1\n      tag_198\n      jump\t// in\n    tag_197:\n      pop\n        /* \"inviter_presell/stake.sol\":6712:6722  msg.sender */\n      caller\n        /* \"inviter_presell/stake.sol\":6701:6731  RewardPaid(msg.sender, reward) */\n      0xffffffffffffffffffffffffffffffffffffffff\n      and\n      0xe2403640ba68fed3a2f88b7557551d1993f84b99bb10ff833f0cf8db0c5e0486\n        /* \"inviter_presell/stake.sol\":6724:6730  reward */\n      dup3\n        /* \"inviter_presell/stake.sol\":6701:6731  RewardPaid(msg.sender, reward) */\n      mload(0x40)\n      tag_199\n      swap2\n      swap1\n      tag_48\n      jump\t// in\n    tag_199:\n      mload(0x40)\n      dup1\n      swap2\n      sub\n      swap1\n      log2\n        /* \"inviter_presell/stake.sol\":6571:6743  if (reward > 0) {... */\n    tag_192:\n        /* \"inviter_presell/stake.sol\":6513:6750  {... */\n      pop\n        /* \"inviter_presell/stake.sol\":1120:1674  {... */\n      pop\n      pop\n        /* \"node_modules/@openzeppelin/contracts/security/ReentrancyGuard.sol\":2484:2485  _ */\n      pop\n        /* \"node_modules/@openzeppelin/contracts/security/ReentrancyGuard.sol\":1701:1702  1 */\n      0x01\n        /* \"node_modules/@openzeppelin/contracts/security/ReentrancyGuard.sol\":2628:2635  _status */\n      0x02\n        /* \"node_modules/@openzeppelin/contracts/security/ReentrancyGuard.sol\":2628:2650  _status = _NOT_ENTERED */\n      dup2\n      swap1\n      sstore\n      pop\n        /* \"inviter_presell/stake.sol\":6445:6750  function getReward() external nonReentrant updateReward(msg.sender) {... */\n      jump\t// out\n        /* \"inviter_presell/stake.sol\":1682:1772  function setStartTime(uint256 time) external onlyAdmin {... */\n    tag_73:\n        /* \"inviter_presell/adminable.sol\":821:842  isAdmin(_msgSender()) */\n      tag_201\n        /* \"inviter_presell/adminable.sol\":829:841  _msgSender() */\n      tag_202\n        /* \"inviter_presell/adminable.sol\":829:839  _msgSender */\n      tag_171\n        /* \"inviter_presell/adminable.sol\":829:841  _msgSender() */\n      jump\t// in\n    tag_202:\n        /* \"inviter_presell/adminable.sol\":821:828  isAdmin */\n      tag_62\n        /* \"inviter_presell/adminable.sol\":821:842  isAdmin(_msgSender()) */\n      jump\t// in\n    tag_201:\n        /* \"inviter_presell/adminable.sol\":813:881  require(isAdmin(_msgSender()), \"Adminable: caller is not the admin\") */\n      tag_203\n      jumpi\n      mload(0x40)\n      0x08c379a000000000000000000000000000000000000000000000000000000000\n      dup2\n      mstore\n      0x04\n      add\n      tag_204\n      swap1\n      tag_205\n      jump\t// in\n    tag_204:\n      mload(0x40)\n      dup1\n      swap2\n      sub\n      swap1\n      revert\n    tag_203:\n        /* \"inviter_presell/stake.sol\":1760:1764  time */\n      dup1\n        /* \"inviter_presell/stake.sol\":1748:1757  startTime */\n      0x06\n        /* \"inviter_presell/stake.sol\":1748:1764  startTime = time */\n      dup2\n      swap1\n      sstore\n      pop\n        /* \"inviter_presell/stake.sol\":1682:1772  function setStartTime(uint256 time) external onlyAdmin {... */\n      pop\n      jump\t// out\n        /* \"inviter_presell/stake.sol\":3157:3573  function getRemainPool(uint256 time) public view returns (uint256) {... */\n    tag_76:\n        /* \"inviter_presell/stake.sol\":3215:3222  uint256 */\n      0x00\n        /* \"inviter_presell/stake.sol\":3251:3252  0 */\n      dup1\n        /* \"inviter_presell/stake.sol\":3238:3247  startTime */\n      sload(0x06)\n        /* \"inviter_presell/stake.sol\":3238:3252  startTime == 0 */\n      sub\n        /* \"inviter_presell/stake.sol\":3235:3297  if(startTime == 0) {... */\n      tag_208\n      jumpi\n        /* \"inviter_presell/stake.sol\":3276:3285  startTime */\n      sload(0x06)\n        /* \"inviter_presell/stake.sol\":3269:3285  return startTime */\n      swap1\n      pop\n      jump(tag_207)\n        /* \"inviter_presell/stake.sol\":3235:3297  if(startTime == 0) {... */\n    tag_208:\n        /* \"inviter_presell/stake.sol\":3307:3320  uint256 times */\n      0x00\n        /* \"inviter_presell/stake.sol\":3359:3360  1 */\n      0x01\n        /* \"inviter_presell/stake.sol\":3344:3356  rateInterval */\n      sload(0x07)\n        /* \"inviter_presell/stake.sol\":3331:3340  startTime */\n      sload(0x06)\n        /* \"inviter_presell/stake.sol\":3324:3328  time */\n      dup6\n        /* \"inviter_presell/stake.sol\":3324:3340  time - startTime */\n      tag_209\n      swap2\n      swap1\n      tag_210\n      jump\t// in\n    tag_209:\n        /* \"inviter_presell/stake.sol\":3323:3356  (time - startTime) / rateInterval */\n      tag_211\n      swap2\n      swap1\n      tag_212\n      jump\t// in\n    tag_211:\n        /* \"inviter_presell/stake.sol\":3323:3360  (time - startTime) / rateInterval + 1 */\n      tag_213\n      swap2\n      swap1\n      tag_214\n      jump\t// in\n    tag_213:\n        /* \"inviter_presell/stake.sol\":3307:3360  uint256 times = (time - startTime) / rateInterval + 1 */\n      swap1\n      pop\n        /* \"inviter_presell/stake.sol\":3371:3384  uint256 value */\n      0x00\n        /* \"inviter_presell/stake.sol\":3387:3399  totalRewards */\n      sload(0x05)\n        /* \"inviter_presell/stake.sol\":3371:3399  uint256 value = totalRewards */\n      swap1\n      pop\n        /* \"inviter_presell/stake.sol\":3414:3423  uint256 i */\n      0x00\n        /* \"inviter_presell/stake.sol\":3410:3543  for(uint256 i = 0; i < times; ++i) {... */\n    tag_215:\n        /* \"inviter_presell/stake.sol\":3433:3438  times */\n      dup3\n        /* \"inviter_presell/stake.sol\":3429:3430  i */\n      dup2\n        /* \"inviter_presell/stake.sol\":3429:3438  i < times */\n      lt\n        /* \"inviter_presell/stake.sol\":3410:3543  for(uint256 i = 0; i < times; ++i) {... */\n      iszero\n      tag_216\n      jumpi\n        /* \"inviter_presell/stake.sol\":3508:3531  rateIntervalDenominator */\n      sload(0x09)\n        /* \"inviter_presell/stake.sol\":3484:3505  rateIntervalNumerator */\n      sload(0x08)\n        /* \"inviter_presell/stake.sol\":3476:3481  value */\n      dup4\n        /* \"inviter_presell/stake.sol\":3476:3505  value * rateIntervalNumerator */\n      tag_218\n      swap2\n      swap1\n      tag_219\n      jump\t// in\n    tag_218:\n        /* \"inviter_presell/stake.sol\":3476:3531  value * rateIntervalNumerator / rateIntervalDenominator */\n      tag_220\n      swap2\n      swap1\n      tag_212\n      jump\t// in\n    tag_220:\n        /* \"inviter_presell/stake.sol\":3468:3473  value */\n      dup3\n        /* \"inviter_presell/stake.sol\":3468:3531  value - value * rateIntervalNumerator / rateIntervalDenominator */\n      tag_221\n      swap2\n      swap1\n      tag_210\n      jump\t// in\n    tag_221:\n        /* \"inviter_presell/stake.sol\":3460:3531  value = value - value * rateIntervalNumerator / rateIntervalDenominator */\n      swap2\n      pop\n        /* \"inviter_presell/stake.sol\":3440:3443  ++i */\n      dup1\n      tag_222\n      swap1\n      tag_223\n      jump\t// in\n    tag_222:\n      swap1\n      pop\n        /* \"inviter_presell/stake.sol\":3410:3543  for(uint256 i = 0; i < times; ++i) {... */\n      jump(tag_215)\n    tag_216:\n      pop\n        /* \"inviter_presell/stake.sol\":3560:3565  value */\n      dup1\n        /* \"inviter_presell/stake.sol\":3553:3565  return value */\n      swap3\n      pop\n      pop\n      pop\n        /* \"inviter_presell/stake.sol\":3157:3573  function getRemainPool(uint256 time) public view returns (uint256) {... */\n    tag_207:\n      swap2\n      swap1\n      pop\n      jump\t// out\n        /* \"inviter_presell/stake.sol\":2224:2723  function getRewardPool(uint256 time) public view returns (uint256) {... */\n    tag_80:\n        /* \"inviter_presell/stake.sol\":2282:2289  uint256 */\n      0x00\n        /* \"inviter_presell/stake.sol\":2318:2319  0 */\n      dup1\n        /* \"inviter_presell/stake.sol\":2305:2314  startTime */\n      sload(0x06)\n        /* \"inviter_presell/stake.sol\":2305:2319  startTime == 0 */\n      sub\n        /* \"inviter_presell/stake.sol\":2302:2367  if(startTime == 0) {... */\n      tag_225\n      jumpi\n        /* \"inviter_presell/stake.sol\":2343:2355  totalRewards */\n      sload(0x05)\n        /* \"inviter_presell/stake.sol\":2336:2355  return totalRewards */\n      swap1\n      pop\n      jump(tag_224)\n        /* \"inviter_presell/stake.sol\":2302:2367  if(startTime == 0) {... */\n    tag_225:\n        /* \"inviter_presell/stake.sol\":2377:2390  uint256 times */\n      0x00\n        /* \"inviter_presell/stake.sol\":2429:2430  1 */\n      0x01\n        /* \"inviter_presell/stake.sol\":2414:2426  rateInterval */\n      sload(0x07)\n        /* \"inviter_presell/stake.sol\":2401:2410  startTime */\n      sload(0x06)\n        /* \"inviter_presell/stake.sol\":2394:2398  time */\n      dup6\n        /* \"inviter_presell/stake.sol\":2394:2410  time - startTime */\n      tag_226\n      swap2\n      swap1\n      tag_210\n      jump\t// in\n    tag_226:\n        /* \"inviter_presell/stake.sol\":2393:2426  (time - startTime) / rateInterval */\n      tag_227\n      swap2\n      swap1\n      tag_212\n      jump\t// in\n    tag_227:\n        /* \"inviter_presell/stake.sol\":2393:2430  (time - startTime) / rateInterval + 1 */\n      tag_228\n      swap2\n      swap1\n      tag_214\n      jump\t// in\n    tag_228:\n        /* \"inviter_presell/stake.sol\":2377:2430  uint256 times = (time - startTime) / rateInterval + 1 */\n      swap1\n      pop\n        /* \"inviter_presell/stake.sol\":2441:2454  uint256 value */\n      0x00\n        /* \"inviter_presell/stake.sol\":2457:2469  totalRewards */\n      sload(0x05)\n        /* \"inviter_presell/stake.sol\":2441:2469  uint256 value = totalRewards */\n      swap1\n      pop\n        /* \"inviter_presell/stake.sol\":2484:2493  uint256 i */\n      0x00\n        /* \"inviter_presell/stake.sol\":2480:2613  for(uint256 i = 0; i < times; ++i) {... */\n    tag_229:\n        /* \"inviter_presell/stake.sol\":2503:2508  times */\n      dup3\n        /* \"inviter_presell/stake.sol\":2499:2500  i */\n      dup2\n        /* \"inviter_presell/stake.sol\":2499:2508  i < times */\n      lt\n        /* \"inviter_presell/stake.sol\":2480:2613  for(uint256 i = 0; i < times; ++i) {... */\n      iszero\n      tag_230\n      jumpi\n        /* \"inviter_presell/stake.sol\":2578:2601  rateIntervalDenominator */\n      sload(0x09)\n        /* \"inviter_presell/stake.sol\":2554:2575  rateIntervalNumerator */\n      sload(0x08)\n        /* \"inviter_presell/stake.sol\":2546:2551  value */\n      dup4\n        /* \"inviter_presell/stake.sol\":2546:2575  value * rateIntervalNumerator */\n      tag_232\n      swap2\n      swap1\n      tag_219\n      jump\t// in\n    tag_232:\n        /* \"inviter_presell/stake.sol\":2546:2601  value * rateIntervalNumerator / rateIntervalDenominator */\n      tag_233\n      swap2\n      swap1\n      tag_212\n      jump\t// in\n    tag_233:\n        /* \"inviter_presell/stake.sol\":2538:2543  value */\n      dup3\n        /* \"inviter_presell/stake.sol\":2538:2601  value - value * rateIntervalNumerator / rateIntervalDenominator */\n      tag_234\n      swap2\n      swap1\n      tag_210\n      jump\t// in\n    tag_234:\n        /* \"inviter_presell/stake.sol\":2530:2601  value = value - value * rateIntervalNumerator / rateIntervalDenominator */\n      swap2\n      pop\n        /* \"inviter_presell/stake.sol\":2510:2513  ++i */\n      dup1\n      tag_235\n      swap1\n      tag_223\n      jump\t// in\n    tag_235:\n      swap1\n      pop\n        /* \"inviter_presell/stake.sol\":2480:2613  for(uint256 i = 0; i < times; ++i) {... */\n      jump(tag_229)\n    tag_230:\n      pop\n        /* \"inviter_presell/stake.sol\":2692:2715  rateIntervalDenominator */\n      sload(0x09)\n        /* \"inviter_presell/stake.sol\":2668:2689  rateIntervalNumerator */\n      sload(0x08)\n        /* \"inviter_presell/stake.sol\":2660:2665  value */\n      dup3\n        /* \"inviter_presell/stake.sol\":2660:2689  value * rateIntervalNumerator */\n      tag_236\n      swap2\n      swap1\n      tag_219\n      jump\t// in\n    tag_236:\n        /* \"inviter_presell/stake.sol\":2660:2715  value * rateIntervalNumerator / rateIntervalDenominator */\n      tag_237\n      swap2\n      swap1\n      tag_212\n      jump\t// in\n    tag_237:\n        /* \"inviter_presell/stake.sol\":2653:2715  return value * rateIntervalNumerator / rateIntervalDenominator */\n      swap3\n      pop\n      pop\n      pop\n        /* \"inviter_presell/stake.sol\":2224:2723  function getRewardPool(uint256 time) public view returns (uint256) {... */\n    tag_224:\n      swap2\n      swap1\n      pop\n      jump\t// out\n        /* \"inviter_presell/stake.sol\":636:676  uint256 public rateInterval = 10 minutes */\n    tag_83:\n      sload(0x07)\n      dup2\n      jump\t// out\n        /* \"inviter_presell/stake.sol\":1780:1873  function totalPowers() external view returns (uint256) {... */\n    tag_86:\n        /* \"inviter_presell/stake.sol\":1826:1833  uint256 */\n      0x00\n        /* \"inviter_presell/stake.sol\":1853:1865  _totalPowers */\n      sload(0x0e)\n        /* \"inviter_presell/stake.sol\":1846:1865  return _totalPowers */\n      swap1\n      pop\n        /* \"inviter_presell/stake.sol\":1780:1873  function totalPowers() external view returns (uint256) {... */\n      swap1\n      jump\t// out\n        /* \"inviter_presell/adminable.sol\":1123:1226  function renounceOwnership() public virtual onlyOwner {... */\n    tag_89:\n        /* \"inviter_presell/adminable.sol\":702:714  _msgSender() */\n      tag_240\n        /* \"inviter_presell/adminable.sol\":702:712  _msgSender */\n      tag_171\n        /* \"inviter_presell/adminable.sol\":702:714  _msgSender() */\n      jump\t// in\n    tag_240:\n        /* \"inviter_presell/adminable.sol\":691:714  owner() == _msgSender() */\n      0xffffffffffffffffffffffffffffffffffffffff\n      and\n        /* \"inviter_presell/adminable.sol\":691:698  owner() */\n      tag_241\n        /* \"inviter_presell/adminable.sol\":691:696  owner */\n      tag_115\n        /* \"inviter_presell/adminable.sol\":691:698  owner() */\n      jump\t// in\n    tag_241:\n        /* \"inviter_presell/adminable.sol\":691:714  owner() == _msgSender() */\n      0xffffffffffffffffffffffffffffffffffffffff\n      and\n      eq\n        /* \"inviter_presell/adminable.sol\":683:753  require(owner() == _msgSender(), \"Adminable: caller is not the owner\") */\n      tag_242\n      jumpi\n      mload(0x40)\n      0x08c379a000000000000000000000000000000000000000000000000000000000\n      dup2\n      mstore\n      0x04\n      add\n      tag_243\n      swap1\n      tag_175\n      jump\t// in\n    tag_243:\n      mload(0x40)\n      dup1\n      swap2\n      sub\n      swap1\n      revert\n    tag_242:\n        /* \"inviter_presell/adminable.sol\":1188:1218  _transferOwnership(address(0)) */\n      tag_245\n        /* \"inviter_presell/adminable.sol\":1215:1216  0 */\n      0x00\n        /* \"inviter_presell/adminable.sol\":1188:1206  _transferOwnership */\n      tag_246\n        /* \"inviter_presell/adminable.sol\":1188:1218  _transferOwnership(address(0)) */\n      jump\t// in\n    tag_245:\n        /* \"inviter_presell/adminable.sol\":1123:1226  function renounceOwnership() public virtual onlyOwner {... */\n      jump\t// out\n        /* \"inviter_presell/stake.sol\":605:629  uint256 public startTime */\n    tag_91:\n      sload(0x06)\n      dup2\n      jump\t// out\n        /* \"inviter_presell/stake.sol\":730:775  uint256 public rateIntervalDenominator = 1000 */\n    tag_94:\n      sload(0x09)\n      dup2\n      jump\t// out\n        /* \"inviter_presell/stake.sol\":3936:4043  function lastTimeRewardApplicable() public view returns (uint256) {... */\n    tag_97:\n        /* \"inviter_presell/stake.sol\":3993:4000  uint256 */\n      0x00\n        /* \"inviter_presell/stake.sol\":4020:4035  block.timestamp */\n      timestamp\n        /* \"inviter_presell/stake.sol\":4013:4035  return block.timestamp */\n      swap1\n      pop\n        /* \"inviter_presell/stake.sol\":3936:4043  function lastTimeRewardApplicable() public view returns (uint256) {... */\n      swap1\n      jump\t// out\n        /* \"inviter_presell/stake.sol\":926:979  mapping(address => uint256) public userLastUpdateTime */\n    tag_101:\n      mstore(0x20, 0x0d)\n      dup1\n      0x00\n      mstore\n      keccak256(0x00, 0x40)\n      0x00\n      swap2\n      pop\n      swap1\n      pop\n      sload\n      dup2\n      jump\t// out\n        /* \"inviter_presell/stake.sol\":4051:4399  function rewardPerToken(uint256 rewardRate) public view returns (uint256) {... */\n    tag_105:\n        /* \"inviter_presell/stake.sol\":4116:4123  uint256 */\n      0x00\n        /* \"inviter_presell/stake.sol\":4156:4157  0 */\n      dup1\n        /* \"inviter_presell/stake.sol\":4140:4152  _totalPowers */\n      sload(0x0e)\n        /* \"inviter_presell/stake.sol\":4140:4157  _totalPowers == 0 */\n      sub\n        /* \"inviter_presell/stake.sol\":4136:4213  if (_totalPowers == 0) {... */\n      tag_249\n      jumpi\n        /* \"inviter_presell/stake.sol\":4181:4201  rewardPerTokenStored */\n      sload(0x0b)\n        /* \"inviter_presell/stake.sol\":4174:4201  return rewardPerTokenStored */\n      swap1\n      pop\n      jump(tag_248)\n        /* \"inviter_presell/stake.sol\":4136:4213  if (_totalPowers == 0) {... */\n    tag_249:\n        /* \"inviter_presell/stake.sol\":4243:4391  rewardPerTokenStored.add(... */\n      tag_250\n        /* \"inviter_presell/stake.sol\":4286:4376  lastTimeRewardApplicable().sub(lastUpdateTime).mul(rewardRate).mul(1e18).div(_totalPowers) */\n      tag_251\n        /* \"inviter_presell/stake.sol\":4363:4375  _totalPowers */\n      sload(0x0e)\n        /* \"inviter_presell/stake.sol\":4286:4358  lastTimeRewardApplicable().sub(lastUpdateTime).mul(rewardRate).mul(1e18) */\n      tag_252\n        /* \"inviter_presell/stake.sol\":4353:4357  1e18 */\n      0x0de0b6b3a7640000\n        /* \"inviter_presell/stake.sol\":4286:4348  lastTimeRewardApplicable().sub(lastUpdateTime).mul(rewardRate) */\n      tag_253\n        /* \"inviter_presell/stake.sol\":4337:4347  rewardRate */\n      dup8\n        /* \"inviter_presell/stake.sol\":4286:4332  lastTimeRewardApplicable().sub(lastUpdateTime) */\n      tag_254\n        /* \"inviter_presell/stake.sol\":4317:4331  lastUpdateTime */\n      sload(0x0a)\n        /* \"inviter_presell/stake.sol\":4286:4312  lastTimeRewardApplicable() */\n      tag_255\n        /* \"inviter_presell/stake.sol\":4286:4310  lastTimeRewardApplicable */\n      tag_97\n        /* \"inviter_presell/stake.sol\":4286:4312  lastTimeRewardApplicable() */\n      jump\t// in\n    tag_255:\n        /* \"inviter_presell/stake.sol\":4286:4316  lastTimeRewardApplicable().sub */\n      tag_165\n      swap1\n        /* \"inviter_presell/stake.sol\":4286:4332  lastTimeRewardApplicable().sub(lastUpdateTime) */\n      swap2\n      swap1\n      0xffffffff\n      and\n      jump\t// in\n    tag_254:\n        /* \"inviter_presell/stake.sol\":4286:4336  lastTimeRewardApplicable().sub(lastUpdateTime).mul */\n      tag_166\n      swap1\n        /* \"inviter_presell/stake.sol\":4286:4348  lastTimeRewardApplicable().sub(lastUpdateTime).mul(rewardRate) */\n      swap2\n      swap1\n      0xffffffff\n      and\n      jump\t// in\n    tag_253:\n        /* \"inviter_presell/stake.sol\":4286:4352  lastTimeRewardApplicable().sub(lastUpdateTime).mul(rewardRate).mul */\n      tag_166\n      swap1\n        /* \"inviter_presell/stake.sol\":4286:4358  lastTimeRewardApplicable().sub(lastUpdateTime).mul(rewardRate).mul(1e18) */\n      swap2\n      swap1\n      0xffffffff\n      and\n      jump\t// in\n    tag_252:\n        /* \"inviter_presell/stake.sol\":4286:4362  lastTimeRewardApplicable().sub(lastUpdateTime).mul(rewardRate).mul(1e18).div */\n      tag_167\n      swap1\n        /* \"inviter_presell/stake.sol\":4286:4376  lastTimeRewardApplicable().sub(lastUpdateTime).mul(rewardRate).mul(1e18).div(_totalPowers) */\n      swap2\n      swap1\n      0xffffffff\n      and\n      jump\t// in\n    tag_251:\n        /* \"inviter_presell/stake.sol\":4243:4263  rewardPerTokenStored */\n      sload(0x0b)\n        /* \"inviter_presell/stake.sol\":4243:4267  rewardPerTokenStored.add */\n      tag_168\n      swap1\n        /* \"inviter_presell/stake.sol\":4243:4391  rewardPerTokenStored.add(... */\n      swap2\n      swap1\n      0xffffffff\n      and\n      jump\t// in\n    tag_250:\n        /* \"inviter_presell/stake.sol\":4223:4391  return... */\n      swap1\n      pop\n        /* \"inviter_presell/stake.sol\":4051:4399  function rewardPerToken(uint256 rewardRate) public view returns (uint256) {... */\n    tag_248:\n      swap2\n      swap1\n      pop\n      jump\t// out\n        /* \"inviter_presell/stake.sol\":6758:6863  function setRewardToken(address token) external onlyOwner {... */\n    tag_109:\n        /* \"inviter_presell/adminable.sol\":702:714  _msgSender() */\n      tag_257\n        /* \"inviter_presell/adminable.sol\":702:712  _msgSender */\n      tag_171\n        /* \"inviter_presell/adminable.sol\":702:714  _msgSender() */\n      jump\t// in\n    tag_257:\n        /* \"inviter_presell/adminable.sol\":691:714  owner() == _msgSender() */\n      0xffffffffffffffffffffffffffffffffffffffff\n      and\n        /* \"inviter_presell/adminable.sol\":691:698  owner() */\n      tag_258\n        /* \"inviter_presell/adminable.sol\":691:696  owner */\n      tag_115\n        /* \"inviter_presell/adminable.sol\":691:698  owner() */\n      jump\t// in\n    tag_258:\n        /* \"inviter_presell/adminable.sol\":691:714  owner() == _msgSender() */\n      0xffffffffffffffffffffffffffffffffffffffff\n      and\n      eq\n        /* \"inviter_presell/adminable.sol\":683:753  require(owner() == _msgSender(), \"Adminable: caller is not the owner\") */\n      tag_259\n      jumpi\n      mload(0x40)\n      0x08c379a000000000000000000000000000000000000000000000000000000000\n      dup2\n      mstore\n      0x04\n      add\n      tag_260\n      swap1\n      tag_175\n      jump\t// in\n    tag_260:\n      mload(0x40)\n      dup1\n      swap2\n      sub\n      swap1\n      revert\n    tag_259:\n        /* \"inviter_presell/stake.sol\":6849:6854  token */\n      dup1\n        /* \"inviter_presell/stake.sol\":6827:6839  rewardsToken */\n      0x03\n      0x00\n        /* \"inviter_presell/stake.sol\":6827:6855  rewardsToken = IERC20(token) */\n      0x0100\n      exp\n      dup2\n      sload\n      dup2\n      0xffffffffffffffffffffffffffffffffffffffff\n      mul\n      not\n      and\n      swap1\n      dup4\n      0xffffffffffffffffffffffffffffffffffffffff\n      and\n      mul\n      or\n      swap1\n      sstore\n      pop\n        /* \"inviter_presell/stake.sol\":6758:6863  function setRewardToken(address token) external onlyOwner {... */\n      pop\n      jump\t// out\n        /* \"inviter_presell/stake.sol\":862:919  mapping(address => uint256) public userRewardPerTokenPaid */\n    tag_112:\n      mstore(0x20, 0x0c)\n      dup1\n      0x00\n      mstore\n      keccak256(0x00, 0x40)\n      0x00\n      swap2\n      pop\n      swap1\n      pop\n      sload\n      dup2\n      jump\t// out\n        /* \"inviter_presell/adminable.sol\":909:996  function owner() public view virtual returns (address) {... */\n    tag_115:\n        /* \"inviter_presell/adminable.sol\":955:962  address */\n      0x00\n        /* \"inviter_presell/adminable.sol\":982:988  _owner */\n      0x01\n      0x00\n      swap1\n      sload\n      swap1\n      0x0100\n      exp\n      swap1\n      div\n      0xffffffffffffffffffffffffffffffffffffffff\n      and\n        /* \"inviter_presell/adminable.sol\":975:988  return _owner */\n      swap1\n      pop\n        /* \"inviter_presell/adminable.sol\":909:996  function owner() public view virtual returns (address) {... */\n      swap1\n      jump\t// out\n        /* \"inviter_presell/stake.sol\":2102:2216  function getCurRewardPool() public view returns (uint256) {... */\n    tag_119:\n        /* \"inviter_presell/stake.sol\":2151:2158  uint256 */\n      0x00\n        /* \"inviter_presell/stake.sol\":2178:2208  getRewardPool(block.timestamp) */\n      tag_264\n        /* \"inviter_presell/stake.sol\":2192:2207  block.timestamp */\n      timestamp\n        /* \"inviter_presell/stake.sol\":2178:2191  getRewardPool */\n      tag_80\n        /* \"inviter_presell/stake.sol\":2178:2208  getRewardPool(block.timestamp) */\n      jump\t// in\n    tag_264:\n        /* \"inviter_presell/stake.sol\":2171:2208  return getRewardPool(block.timestamp) */\n      swap1\n      pop\n        /* \"inviter_presell/stake.sol\":2102:2216  function getCurRewardPool() public view returns (uint256) {... */\n      swap1\n      jump\t// out\n        /* \"inviter_presell/stake.sol\":1881:1975  function curTime() external  view  returns (uint256) {... */\n    tag_122:\n        /* \"inviter_presell/stake.sol\":1925:1932  uint256 */\n      0x00\n        /* \"inviter_presell/stake.sol\":1952:1967  block.timestamp */\n      timestamp\n        /* \"inviter_presell/stake.sol\":1945:1967  return block.timestamp */\n      swap1\n      pop\n        /* \"inviter_presell/stake.sol\":1881:1975  function curTime() external  view  returns (uint256) {... */\n      swap1\n      jump\t// out\n        /* \"inviter_presell/stake.sol\":7120:7263  function emergencyWithdrawToken(address token, uint256 amount) external onlyOwner {... */\n    tag_127:\n        /* \"inviter_presell/adminable.sol\":702:714  _msgSender() */\n      tag_267\n        /* \"inviter_presell/adminable.sol\":702:712  _msgSender */\n      tag_171\n        /* \"inviter_presell/adminable.sol\":702:714  _msgSender() */\n      jump\t// in\n    tag_267:\n        /* \"inviter_presell/adminable.sol\":691:714  owner() == _msgSender() */\n      0xffffffffffffffffffffffffffffffffffffffff\n      and\n        /* \"inviter_presell/adminable.sol\":691:698  owner() */\n      tag_268\n        /* \"inviter_presell/adminable.sol\":691:696  owner */\n      tag_115\n        /* \"inviter_presell/adminable.sol\":691:698  owner() */\n      jump\t// in\n    tag_268:\n        /* \"inviter_presell/adminable.sol\":691:714  owner() == _msgSender() */\n      0xffffffffffffffffffffffffffffffffffffffff\n      and\n      eq\n        /* \"inviter_presell/adminable.sol\":683:753  require(owner() == _msgSender(), \"Adminable: caller is not the owner\") */\n      tag_269\n      jumpi\n      mload(0x40)\n      0x08c379a000000000000000000000000000000000000000000000000000000000\n      dup2\n      mstore\n      0x04\n      add\n      tag_270\n      swap1\n      tag_175\n      jump\t// in\n    tag_270:\n      mload(0x40)\n      dup1\n      swap2\n      sub\n      swap1\n      revert\n    tag_269:\n        /* \"inviter_presell/stake.sol\":7220:7225  token */\n      dup2\n        /* \"inviter_presell/stake.sol\":7213:7235  IERC20(token).transfer */\n      0xffffffffffffffffffffffffffffffffffffffff\n      and\n      0xa9059cbb\n        /* \"inviter_presell/stake.sol\":7236:7246  msg.sender */\n      caller\n        /* \"inviter_presell/stake.sol\":7248:7254  amount */\n      dup4\n        /* \"inviter_presell/stake.sol\":7213:7255  IERC20(token).transfer(msg.sender, amount) */\n      mload(0x40)\n      dup4\n      0xffffffff\n      and\n      0xe0\n      shl\n      dup2\n      mstore\n      0x04\n      add\n      tag_272\n      swap3\n      swap2\n      swap1\n      tag_194\n      jump\t// in\n    tag_272:\n      0x20\n      mload(0x40)\n      dup1\n      dup4\n      sub\n      dup2\n      0x00\n      dup8\n      gas\n      call\n      iszero\n      dup1\n      iszero\n      tag_274\n      jumpi\n      returndatasize\n      0x00\n      dup1\n      returndatacopy\n      revert(0x00, returndatasize)\n    tag_274:\n      pop\n      pop\n      pop\n      pop\n      mload(0x40)\n      returndatasize\n      not(0x1f)\n      0x1f\n      dup3\n      add\n      and\n      dup3\n      add\n      dup1\n      0x40\n      mstore\n      pop\n      dup2\n      add\n      swap1\n      tag_275\n      swap2\n      swap1\n      tag_198\n      jump\t// in\n    tag_275:\n      pop\n        /* \"inviter_presell/stake.sol\":7120:7263  function emergencyWithdrawToken(address token, uint256 amount) external onlyOwner {... */\n      pop\n      pop\n      jump\t// out\n        /* \"inviter_presell/stake.sol\":6139:6433  function stake(address user, uint256 amount) external nonReentrant onlyAdmin updateReward(user) {... */\n    tag_130:\n        /* \"node_modules/@openzeppelin/contracts/security/ReentrancyGuard.sol\":1744:1745  2 */\n      0x02\n        /* \"node_modules/@openzeppelin/contracts/security/ReentrancyGuard.sol\":2325:2332  _status */\n      dup1\n      sload\n        /* \"node_modules/@openzeppelin/contracts/security/ReentrancyGuard.sol\":2325:2344  _status != _ENTERED */\n      sub\n        /* \"node_modules/@openzeppelin/contracts/security/ReentrancyGuard.sol\":2317:2380  require(_status != _ENTERED, \"ReentrancyGuard: reentrant call\") */\n      tag_277\n      jumpi\n      mload(0x40)\n      0x08c379a000000000000000000000000000000000000000000000000000000000\n      dup2\n      mstore\n      0x04\n      add\n      tag_278\n      swap1\n      tag_183\n      jump\t// in\n    tag_278:\n      mload(0x40)\n      dup1\n      swap2\n      sub\n      swap1\n      revert\n    tag_277:\n        /* \"node_modules/@openzeppelin/contracts/security/ReentrancyGuard.sol\":1744:1745  2 */\n      0x02\n        /* \"node_modules/@openzeppelin/contracts/security/ReentrancyGuard.sol\":2455:2462  _status */\n      dup1\n        /* \"node_modules/@openzeppelin/contracts/security/ReentrancyGuard.sol\":2455:2473  _status = _ENTERED */\n      dup2\n      swap1\n      sstore\n      pop\n        /* \"inviter_presell/adminable.sol\":821:842  isAdmin(_msgSender()) */\n      tag_280\n        /* \"inviter_presell/adminable.sol\":829:841  _msgSender() */\n      tag_281\n        /* \"inviter_presell/adminable.sol\":829:839  _msgSender */\n      tag_171\n        /* \"inviter_presell/adminable.sol\":829:841  _msgSender() */\n      jump\t// in\n    tag_281:\n        /* \"inviter_presell/adminable.sol\":821:828  isAdmin */\n      tag_62\n        /* \"inviter_presell/adminable.sol\":821:842  isAdmin(_msgSender()) */\n      jump\t// in\n    tag_280:\n        /* \"inviter_presell/adminable.sol\":813:881  require(isAdmin(_msgSender()), \"Adminable: caller is not the admin\") */\n      tag_282\n      jumpi\n      mload(0x40)\n      0x08c379a000000000000000000000000000000000000000000000000000000000\n      dup2\n      mstore\n      0x04\n      add\n      tag_283\n      swap1\n      tag_205\n      jump\t// in\n    tag_283:\n      mload(0x40)\n      dup1\n      swap2\n      sub\n      swap1\n      revert\n    tag_282:\n        /* \"inviter_presell/stake.sol\":6229:6233  user */\n      dup2\n        /* \"inviter_presell/stake.sol\":1131:1143  uint256 time */\n      0x00\n        /* \"inviter_presell/stake.sol\":1146:1164  userLastUpdateTime */\n      0x0d\n        /* \"inviter_presell/stake.sol\":1146:1173  userLastUpdateTime[account] */\n      0x00\n        /* \"inviter_presell/stake.sol\":1165:1172  account */\n      dup4\n        /* \"inviter_presell/stake.sol\":1146:1173  userLastUpdateTime[account] */\n      0xffffffffffffffffffffffffffffffffffffffff\n      and\n      0xffffffffffffffffffffffffffffffffffffffff\n      and\n      dup2\n      mstore\n      0x20\n      add\n      swap1\n      dup2\n      mstore\n      0x20\n      add\n      0x00\n      keccak256\n      sload\n        /* \"inviter_presell/stake.sol\":1131:1173  uint256 time = userLastUpdateTime[account] */\n      swap1\n      pop\n        /* \"inviter_presell/stake.sol\":1195:1204  startTime */\n      sload(0x06)\n        /* \"inviter_presell/stake.sol\":1187:1191  time */\n      dup2\n        /* \"inviter_presell/stake.sol\":1187:1204  time <= startTime */\n      gt\n        /* \"inviter_presell/stake.sol\":1184:1249  if(time <= startTime) {... */\n      tag_285\n      jumpi\n        /* \"inviter_presell/stake.sol\":1228:1237  startTime */\n      sload(0x06)\n        /* \"inviter_presell/stake.sol\":1221:1237  time = startTime */\n      swap1\n      pop\n        /* \"inviter_presell/stake.sol\":1184:1249  if(time <= startTime) {... */\n    tag_285:\n        /* \"inviter_presell/stake.sol\":1259:1271  uint256 rate */\n      0x00\n        /* \"inviter_presell/stake.sol\":1274:1319  getTimeWeightedAveRate(time, block.timestamp) */\n      tag_286\n        /* \"inviter_presell/stake.sol\":1297:1301  time */\n      dup3\n        /* \"inviter_presell/stake.sol\":1303:1318  block.timestamp */\n      timestamp\n        /* \"inviter_presell/stake.sol\":1274:1296  getTimeWeightedAveRate */\n      tag_148\n        /* \"inviter_presell/stake.sol\":1274:1319  getTimeWeightedAveRate(time, block.timestamp) */\n      jump\t// in\n    tag_286:\n        /* \"inviter_presell/stake.sol\":1259:1319  uint256 rate = getTimeWeightedAveRate(time, block.timestamp) */\n      swap1\n      pop\n        /* \"inviter_presell/stake.sol\":1353:1373  rewardPerToken(rate) */\n      tag_287\n        /* \"inviter_presell/stake.sol\":1368:1372  rate */\n      dup2\n        /* \"inviter_presell/stake.sol\":1353:1367  rewardPerToken */\n      tag_105\n        /* \"inviter_presell/stake.sol\":1353:1373  rewardPerToken(rate) */\n      jump\t// in\n    tag_287:\n        /* \"inviter_presell/stake.sol\":1330:1350  rewardPerTokenStored */\n      0x0b\n        /* \"inviter_presell/stake.sol\":1330:1373  rewardPerTokenStored = rewardPerToken(rate) */\n      dup2\n      swap1\n      sstore\n      pop\n        /* \"inviter_presell/stake.sol\":1401:1427  lastTimeRewardApplicable() */\n      tag_288\n        /* \"inviter_presell/stake.sol\":1401:1425  lastTimeRewardApplicable */\n      tag_97\n        /* \"inviter_presell/stake.sol\":1401:1427  lastTimeRewardApplicable() */\n      jump\t// in\n    tag_288:\n        /* \"inviter_presell/stake.sol\":1384:1398  lastUpdateTime */\n      0x0a\n        /* \"inviter_presell/stake.sol\":1384:1427  lastUpdateTime = lastTimeRewardApplicable() */\n      dup2\n      swap1\n      sstore\n      pop\n        /* \"inviter_presell/stake.sol\":1461:1462  0 */\n      0x00\n        /* \"inviter_presell/stake.sol\":1442:1463  account != address(0) */\n      0xffffffffffffffffffffffffffffffffffffffff\n      and\n        /* \"inviter_presell/stake.sol\":1442:1449  account */\n      dup4\n        /* \"inviter_presell/stake.sol\":1442:1463  account != address(0) */\n      0xffffffffffffffffffffffffffffffffffffffff\n      and\n      eq\n        /* \"inviter_presell/stake.sol\":1438:1655  if (account != address(0)) {... */\n      tag_289\n      jumpi\n        /* \"inviter_presell/stake.sol\":1499:1514  earned(account) */\n      tag_290\n        /* \"inviter_presell/stake.sol\":1506:1513  account */\n      dup4\n        /* \"inviter_presell/stake.sol\":1499:1505  earned */\n      tag_46\n        /* \"inviter_presell/stake.sol\":1499:1514  earned(account) */\n      jump\t// in\n    tag_290:\n        /* \"inviter_presell/stake.sol\":1480:1487  rewards */\n      0x04\n        /* \"inviter_presell/stake.sol\":1480:1496  rewards[account] */\n      0x00\n        /* \"inviter_presell/stake.sol\":1488:1495  account */\n      dup6\n        /* \"inviter_presell/stake.sol\":1480:1496  rewards[account] */\n      0xffffffffffffffffffffffffffffffffffffffff\n      and\n      0xffffffffffffffffffffffffffffffffffffffff\n      and\n      dup2\n      mstore\n      0x20\n      add\n      swap1\n      dup2\n      mstore\n      0x20\n      add\n      0x00\n      keccak256\n        /* \"inviter_presell/stake.sol\":1480:1514  rewards[account] = earned(account) */\n      dup2\n      swap1\n      sstore\n      pop\n        /* \"inviter_presell/stake.sol\":1563:1583  rewardPerTokenStored */\n      sload(0x0b)\n        /* \"inviter_presell/stake.sol\":1529:1551  userRewardPerTokenPaid */\n      0x0c\n        /* \"inviter_presell/stake.sol\":1529:1560  userRewardPerTokenPaid[account] */\n      0x00\n        /* \"inviter_presell/stake.sol\":1552:1559  account */\n      dup6\n        /* \"inviter_presell/stake.sol\":1529:1560  userRewardPerTokenPaid[account] */\n      0xffffffffffffffffffffffffffffffffffffffff\n      and\n      0xffffffffffffffffffffffffffffffffffffffff\n      and\n      dup2\n      mstore\n      0x20\n      add\n      swap1\n      dup2\n      mstore\n      0x20\n      add\n      0x00\n      keccak256\n        /* \"inviter_presell/stake.sol\":1529:1583  userRewardPerTokenPaid[account] = rewardPerTokenStored */\n      dup2\n      swap1\n      sstore\n      pop\n        /* \"inviter_presell/stake.sol\":1628:1643  block.timestamp */\n      timestamp\n        /* \"inviter_presell/stake.sol\":1598:1616  userLastUpdateTime */\n      0x0d\n        /* \"inviter_presell/stake.sol\":1598:1625  userLastUpdateTime[account] */\n      0x00\n        /* \"inviter_presell/stake.sol\":1617:1624  account */\n      dup6\n        /* \"inviter_presell/stake.sol\":1598:1625  userLastUpdateTime[account] */\n      0xffffffffffffffffffffffffffffffffffffffff\n      and\n      0xffffffffffffffffffffffffffffffffffffffff\n      and\n      dup2\n      mstore\n      0x20\n      add\n      swap1\n      dup2\n      mstore\n      0x20\n      add\n      0x00\n      keccak256\n        /* \"inviter_presell/stake.sol\":1598:1643  userLastUpdateTime[account] = block.timestamp */\n      dup2\n      swap1\n      sstore\n      pop\n        /* \"inviter_presell/stake.sol\":1438:1655  if (account != address(0)) {... */\n    tag_289:\n        /* \"inviter_presell/stake.sol\":6263:6264  0 */\n      0x00\n        /* \"inviter_presell/stake.sol\":6254:6260  amount */\n      dup5\n        /* \"inviter_presell/stake.sol\":6254:6264  amount > 0 */\n      gt\n        /* \"inviter_presell/stake.sol\":6246:6283  require(amount > 0, \"Cannot stake 0\") */\n      tag_292\n      jumpi\n      mload(0x40)\n      0x08c379a000000000000000000000000000000000000000000000000000000000\n      dup2\n      mstore\n      0x04\n      add\n      tag_293\n      swap1\n      tag_294\n      jump\t// in\n    tag_293:\n      mload(0x40)\n      dup1\n      swap2\n      sub\n      swap1\n      revert\n    tag_292:\n        /* \"inviter_presell/stake.sol\":6309:6333  _totalPowers.add(amount) */\n      tag_295\n        /* \"inviter_presell/stake.sol\":6326:6332  amount */\n      dup5\n        /* \"inviter_presell/stake.sol\":6309:6321  _totalPowers */\n      sload(0x0e)\n        /* \"inviter_presell/stake.sol\":6309:6325  _totalPowers.add */\n      tag_168\n      swap1\n        /* \"inviter_presell/stake.sol\":6309:6333  _totalPowers.add(amount) */\n      swap2\n      swap1\n      0xffffffff\n      and\n      jump\t// in\n    tag_295:\n        /* \"inviter_presell/stake.sol\":6294:6306  _totalPowers */\n      0x0e\n        /* \"inviter_presell/stake.sol\":6294:6333  _totalPowers = _totalPowers.add(amount) */\n      dup2\n      swap1\n      sstore\n      pop\n        /* \"inviter_presell/stake.sol\":6362:6389  _balances[user].add(amount) */\n      tag_296\n        /* \"inviter_presell/stake.sol\":6382:6388  amount */\n      dup5\n        /* \"inviter_presell/stake.sol\":6362:6371  _balances */\n      0x0f\n        /* \"inviter_presell/stake.sol\":6362:6377  _balances[user] */\n      0x00\n        /* \"inviter_presell/stake.sol\":6372:6376  user */\n      dup9\n        /* \"inviter_presell/stake.sol\":6362:6377  _balances[user] */\n      0xffffffffffffffffffffffffffffffffffffffff\n      and\n      0xffffffffffffffffffffffffffffffffffffffff\n      and\n      dup2\n      mstore\n      0x20\n      add\n      swap1\n      dup2\n      mstore\n      0x20\n      add\n      0x00\n      keccak256\n      sload\n        /* \"inviter_presell/stake.sol\":6362:6381  _balances[user].add */\n      tag_168\n      swap1\n        /* \"inviter_presell/stake.sol\":6362:6389  _balances[user].add(amount) */\n      swap2\n      swap1\n      0xffffffff\n      and\n      jump\t// in\n    tag_296:\n        /* \"inviter_presell/stake.sol\":6344:6353  _balances */\n      0x0f\n        /* \"inviter_presell/stake.sol\":6344:6359  _balances[user] */\n      0x00\n        /* \"inviter_presell/stake.sol\":6354:6358  user */\n      dup8\n        /* \"inviter_presell/stake.sol\":6344:6359  _balances[user] */\n      0xffffffffffffffffffffffffffffffffffffffff\n      and\n      0xffffffffffffffffffffffffffffffffffffffff\n      and\n      dup2\n      mstore\n      0x20\n      add\n      swap1\n      dup2\n      mstore\n      0x20\n      add\n      0x00\n      keccak256\n        /* \"inviter_presell/stake.sol\":6344:6389  _balances[user] = _balances[user].add(amount) */\n      dup2\n      swap1\n      sstore\n      pop\n        /* \"inviter_presell/stake.sol\":6412:6416  user */\n      dup5\n        /* \"inviter_presell/stake.sol\":6405:6425  Staked(user, amount) */\n      0xffffffffffffffffffffffffffffffffffffffff\n      and\n      0x9e71bc8eea02a63969f509818f2dafb9254532904319f9dbda79b67bd34a5f3d\n        /* \"inviter_presell/stake.sol\":6418:6424  amount */\n      dup6\n        /* \"inviter_presell/stake.sol\":6405:6425  Staked(user, amount) */\n      mload(0x40)\n      tag_297\n      swap2\n      swap1\n      tag_48\n      jump\t// in\n    tag_297:\n      mload(0x40)\n      dup1\n      swap2\n      sub\n      swap1\n      log2\n        /* \"inviter_presell/stake.sol\":1120:1674  {... */\n      pop\n      pop\n        /* \"inviter_presell/adminable.sol\":892:893  _ */\n      pop\n        /* \"node_modules/@openzeppelin/contracts/security/ReentrancyGuard.sol\":1701:1702  1 */\n      0x01\n        /* \"node_modules/@openzeppelin/contracts/security/ReentrancyGuard.sol\":2628:2635  _status */\n      0x02\n        /* \"node_modules/@openzeppelin/contracts/security/ReentrancyGuard.sol\":2628:2650  _status = _NOT_ENTERED */\n      dup2\n      swap1\n      sstore\n      pop\n        /* \"inviter_presell/stake.sol\":6139:6433  function stake(address user, uint256 amount) external nonReentrant onlyAdmin updateReward(user) {... */\n      pop\n      pop\n      jump\t// out\n        /* \"inviter_presell/stake.sol\":1983:2094  function powersOf(address account) external view returns (uint256) {... */\n    tag_133:\n        /* \"inviter_presell/stake.sol\":2041:2048  uint256 */\n      0x00\n        /* \"inviter_presell/stake.sol\":2068:2077  _balances */\n      0x0f\n        /* \"inviter_presell/stake.sol\":2068:2086  _balances[account] */\n      0x00\n        /* \"inviter_presell/stake.sol\":2078:2085  account */\n      dup4\n        /* \"inviter_presell/stake.sol\":2068:2086  _balances[account] */\n      0xffffffffffffffffffffffffffffffffffffffff\n      and\n      0xffffffffffffffffffffffffffffffffffffffff\n      and\n      dup2\n      mstore\n      0x20\n      add\n      swap1\n      dup2\n      mstore\n      0x20\n      add\n      0x00\n      keccak256\n      sload\n        /* \"inviter_presell/stake.sol\":2061:2086  return _balances[account] */\n      swap1\n      pop\n        /* \"inviter_presell/stake.sol\":1983:2094  function powersOf(address account) external view returns (uint256) {... */\n      swap2\n      swap1\n      pop\n      jump\t// out\n        /* \"inviter_presell/stake.sol\":782:811  uint256 public lastUpdateTime */\n    tag_136:\n      sload(0x0a)\n      dup2\n      jump\t// out\n        /* \"inviter_presell/stake.sol\":3581:3696  function getCurRewardRate() public view returns (uint256) {... */\n    tag_139:\n        /* \"inviter_presell/stake.sol\":3630:3637  uint256 */\n      0x00\n        /* \"inviter_presell/stake.sol\":3657:3688  _getRewardRate(block.timestamp) */\n      tag_300\n        /* \"inviter_presell/stake.sol\":3672:3687  block.timestamp */\n      timestamp\n        /* \"inviter_presell/stake.sol\":3657:3671  _getRewardRate */\n      tag_301\n        /* \"inviter_presell/stake.sol\":3657:3688  _getRewardRate(block.timestamp) */\n      jump\t// in\n    tag_300:\n        /* \"inviter_presell/stake.sol\":3650:3688  return _getRewardRate(block.timestamp) */\n      swap1\n      pop\n        /* \"inviter_presell/stake.sol\":3581:3696  function getCurRewardRate() public view returns (uint256) {... */\n      swap1\n      jump\t// out\n        /* \"inviter_presell/stake.sol\":467:493  IERC20 public rewardsToken */\n    tag_142:\n      0x03\n      0x00\n      swap1\n      sload\n      swap1\n      0x0100\n      exp\n      swap1\n      div\n      0xffffffffffffffffffffffffffffffffffffffff\n      and\n      dup2\n      jump\t// out\n        /* \"inviter_presell/stake.sol\":4746:6129  function getTimeWeightedAveRate(uint256 leftTime, uint256 rightTime) public view returns (uint256){... */\n    tag_148:\n        /* \"inviter_presell/stake.sol\":4836:4843  uint256 */\n      0x00\n        /* \"inviter_presell/stake.sol\":4881:4882  0 */\n      dup1\n        /* \"inviter_presell/stake.sol\":4868:4877  startTime */\n      sload(0x06)\n        /* \"inviter_presell/stake.sol\":4868:4882  startTime == 0 */\n      eq\n        /* \"inviter_presell/stake.sol\":4868:4907  startTime == 0 || leftTime >= rightTime */\n      dup1\n      tag_303\n      jumpi\n      pop\n        /* \"inviter_presell/stake.sol\":4898:4907  rightTime */\n      dup2\n        /* \"inviter_presell/stake.sol\":4886:4894  leftTime */\n      dup4\n        /* \"inviter_presell/stake.sol\":4886:4907  leftTime >= rightTime */\n      lt\n      iszero\n        /* \"inviter_presell/stake.sol\":4868:4907  startTime == 0 || leftTime >= rightTime */\n    tag_303:\n        /* \"inviter_presell/stake.sol\":4868:4924  startTime == 0 || leftTime >= rightTime || leftTime == 0 */\n      dup1\n      tag_304\n      jumpi\n      pop\n        /* \"inviter_presell/stake.sol\":4923:4924  0 */\n      0x00\n        /* \"inviter_presell/stake.sol\":4911:4919  leftTime */\n      dup4\n        /* \"inviter_presell/stake.sol\":4911:4924  leftTime == 0 */\n      eq\n        /* \"inviter_presell/stake.sol\":4868:4924  startTime == 0 || leftTime >= rightTime || leftTime == 0 */\n    tag_304:\n        /* \"inviter_presell/stake.sol\":4865:4961  if(startTime == 0 || leftTime >= rightTime || leftTime == 0) {... */\n      iszero\n      tag_305\n      jumpi\n        /* \"inviter_presell/stake.sol\":4948:4949  0 */\n      0x00\n        /* \"inviter_presell/stake.sol\":4941:4949  return 0 */\n      swap1\n      pop\n      jump(tag_302)\n        /* \"inviter_presell/stake.sol\":4865:4961  if(startTime == 0 || leftTime >= rightTime || leftTime == 0) {... */\n    tag_305:\n        /* \"inviter_presell/stake.sol\":4987:4996  startTime */\n      sload(0x06)\n        /* \"inviter_presell/stake.sol\":4976:4984  leftTime */\n      dup4\n        /* \"inviter_presell/stake.sol\":4976:4996  leftTime < startTime */\n      lt\n        /* \"inviter_presell/stake.sol\":4973:5045  if(leftTime < startTime) {... */\n      iszero\n      tag_306\n      jumpi\n        /* \"inviter_presell/stake.sol\":5024:5033  startTime */\n      sload(0x06)\n        /* \"inviter_presell/stake.sol\":5013:5033  leftTime = startTime */\n      swap3\n      pop\n        /* \"inviter_presell/stake.sol\":4973:5045  if(leftTime < startTime) {... */\n    tag_306:\n        /* \"inviter_presell/stake.sol\":5057:5077  uint256 leftInterval */\n      0x00\n        /* \"inviter_presell/stake.sol\":5137:5149  rateInterval */\n      sload(0x07)\n        /* \"inviter_presell/stake.sol\":5121:5133  rateInterval */\n      sload(0x07)\n        /* \"inviter_presell/stake.sol\":5108:5117  startTime */\n      sload(0x06)\n        /* \"inviter_presell/stake.sol\":5097:5105  leftTime */\n      dup7\n        /* \"inviter_presell/stake.sol\":5097:5117  leftTime - startTime */\n      tag_307\n      swap2\n      swap1\n      tag_210\n      jump\t// in\n    tag_307:\n        /* \"inviter_presell/stake.sol\":5096:5133  (leftTime - startTime) % rateInterval */\n      tag_308\n      swap2\n      swap1\n      tag_309\n      jump\t// in\n    tag_308:\n        /* \"inviter_presell/stake.sol\":5081:5093  rateInterval */\n      sload(0x07)\n        /* \"inviter_presell/stake.sol\":5081:5133  rateInterval - (leftTime - startTime) % rateInterval */\n      tag_310\n      swap2\n      swap1\n      tag_210\n      jump\t// in\n    tag_310:\n        /* \"inviter_presell/stake.sol\":5080:5149  (rateInterval - (leftTime - startTime) % rateInterval) % rateInterval */\n      tag_311\n      swap2\n      swap1\n      tag_309\n      jump\t// in\n    tag_311:\n        /* \"inviter_presell/stake.sol\":5057:5149  uint256 leftInterval = (rateInterval - (leftTime - startTime) % rateInterval) % rateInterval */\n      swap1\n      pop\n        /* \"inviter_presell/stake.sol\":5160:5178  uint256 leftReward */\n      0x00\n        /* \"inviter_presell/stake.sol\":5222:5234  rateInterval */\n      sload(0x07)\n        /* \"inviter_presell/stake.sol\":5207:5219  leftInterval */\n      dup3\n        /* \"inviter_presell/stake.sol\":5181:5204  getRewardPool(leftTime) */\n      tag_312\n        /* \"inviter_presell/stake.sol\":5195:5203  leftTime */\n      dup8\n        /* \"inviter_presell/stake.sol\":5181:5194  getRewardPool */\n      tag_80\n        /* \"inviter_presell/stake.sol\":5181:5204  getRewardPool(leftTime) */\n      jump\t// in\n    tag_312:\n        /* \"inviter_presell/stake.sol\":5181:5219  getRewardPool(leftTime) * leftInterval */\n      tag_313\n      swap2\n      swap1\n      tag_219\n      jump\t// in\n    tag_313:\n        /* \"inviter_presell/stake.sol\":5181:5234  getRewardPool(leftTime) * leftInterval / rateInterval */\n      tag_314\n      swap2\n      swap1\n      tag_212\n      jump\t// in\n    tag_314:\n        /* \"inviter_presell/stake.sol\":5160:5234  uint256 leftReward = getRewardPool(leftTime) * leftInterval / rateInterval */\n      swap1\n      pop\n        /* \"inviter_presell/stake.sol\":5247:5268  uint256 rightInterval */\n      0x00\n        /* \"inviter_presell/stake.sol\":5297:5309  rateInterval */\n      sload(0x07)\n        /* \"inviter_presell/stake.sol\":5284:5293  startTime */\n      sload(0x06)\n        /* \"inviter_presell/stake.sol\":5272:5281  rightTime */\n      dup7\n        /* \"inviter_presell/stake.sol\":5272:5293  rightTime - startTime */\n      tag_315\n      swap2\n      swap1\n      tag_210\n      jump\t// in\n    tag_315:\n        /* \"inviter_presell/stake.sol\":5271:5309  (rightTime - startTime) % rateInterval */\n      tag_316\n      swap2\n      swap1\n      tag_309\n      jump\t// in\n    tag_316:\n        /* \"inviter_presell/stake.sol\":5247:5309  uint256 rightInterval = (rightTime - startTime) % rateInterval */\n      swap1\n      pop\n        /* \"inviter_presell/stake.sol\":5320:5339  uint256 rightReward */\n      0x00\n        /* \"inviter_presell/stake.sol\":5385:5397  rateInterval */\n      sload(0x07)\n        /* \"inviter_presell/stake.sol\":5369:5382  rightInterval */\n      dup3\n        /* \"inviter_presell/stake.sol\":5342:5366  getRewardPool(rightTime) */\n      tag_317\n        /* \"inviter_presell/stake.sol\":5356:5365  rightTime */\n      dup9\n        /* \"inviter_presell/stake.sol\":5342:5355  getRewardPool */\n      tag_80\n        /* \"inviter_presell/stake.sol\":5342:5366  getRewardPool(rightTime) */\n      jump\t// in\n    tag_317:\n        /* \"inviter_presell/stake.sol\":5342:5382  getRewardPool(rightTime) * rightInterval */\n      tag_318\n      swap2\n      swap1\n      tag_219\n      jump\t// in\n    tag_318:\n        /* \"inviter_presell/stake.sol\":5342:5397  getRewardPool(rightTime) * rightInterval / rateInterval */\n      tag_319\n      swap2\n      swap1\n      tag_212\n      jump\t// in\n    tag_319:\n        /* \"inviter_presell/stake.sol\":5320:5397  uint256 rightReward = getRewardPool(rightTime) * rightInterval / rateInterval */\n      swap1\n      pop\n        /* \"inviter_presell/stake.sol\":5439:5448  rightTime */\n      dup6\n        /* \"inviter_presell/stake.sol\":5424:5436  leftInterval */\n      dup5\n        /* \"inviter_presell/stake.sol\":5413:5421  leftTime */\n      dup9\n        /* \"inviter_presell/stake.sol\":5413:5436  leftTime + leftInterval */\n      tag_320\n      swap2\n      swap1\n      tag_214\n      jump\t// in\n    tag_320:\n        /* \"inviter_presell/stake.sol\":5413:5448  leftTime + leftInterval > rightTime */\n      gt\n        /* \"inviter_presell/stake.sol\":5410:5508  if(leftTime + leftInterval > rightTime) {... */\n      iszero\n      tag_321\n      jumpi\n        /* \"inviter_presell/stake.sol\":5472:5496  _getRewardRate(leftTime) */\n      tag_322\n        /* \"inviter_presell/stake.sol\":5487:5495  leftTime */\n      dup8\n        /* \"inviter_presell/stake.sol\":5472:5486  _getRewardRate */\n      tag_301\n        /* \"inviter_presell/stake.sol\":5472:5496  _getRewardRate(leftTime) */\n      jump\t// in\n    tag_322:\n        /* \"inviter_presell/stake.sol\":5465:5496  return _getRewardRate(leftTime) */\n      swap5\n      pop\n      pop\n      pop\n      pop\n      pop\n      jump(tag_302)\n        /* \"inviter_presell/stake.sol\":5410:5508  if(leftTime + leftInterval > rightTime) {... */\n    tag_321:\n        /* \"inviter_presell/stake.sol\":5520:5539  uint256 midInterval */\n      0x00\n        /* \"inviter_presell/stake.sol\":5581:5593  leftInterval */\n      dup5\n        /* \"inviter_presell/stake.sol\":5570:5578  leftTime */\n      dup9\n        /* \"inviter_presell/stake.sol\":5554:5567  rightInterval */\n      dup5\n        /* \"inviter_presell/stake.sol\":5542:5551  rightTime */\n      dup10\n        /* \"inviter_presell/stake.sol\":5542:5567  rightTime - rightInterval */\n      tag_323\n      swap2\n      swap1\n      tag_210\n      jump\t// in\n    tag_323:\n        /* \"inviter_presell/stake.sol\":5542:5578  rightTime - rightInterval - leftTime */\n      tag_324\n      swap2\n      swap1\n      tag_210\n      jump\t// in\n    tag_324:\n        /* \"inviter_presell/stake.sol\":5542:5593  rightTime - rightInterval - leftTime - leftInterval */\n      tag_325\n      swap2\n      swap1\n      tag_210\n      jump\t// in\n    tag_325:\n        /* \"inviter_presell/stake.sol\":5520:5593  uint256 midInterval = rightTime - rightInterval - leftTime - leftInterval */\n      swap1\n      pop\n        /* \"inviter_presell/stake.sol\":5604:5623  uint256 startReward */\n      0x00\n        /* \"inviter_presell/stake.sol\":5626:5649  getRemainPool(leftTime) */\n      tag_326\n        /* \"inviter_presell/stake.sol\":5640:5648  leftTime */\n      dup10\n        /* \"inviter_presell/stake.sol\":5626:5639  getRemainPool */\n      tag_76\n        /* \"inviter_presell/stake.sol\":5626:5649  getRemainPool(leftTime) */\n      jump\t// in\n    tag_326:\n        /* \"inviter_presell/stake.sol\":5604:5649  uint256 startReward = getRemainPool(leftTime) */\n      swap1\n      pop\n        /* \"inviter_presell/stake.sol\":5661:5683  uint256 midTotalReward */\n      0x00\n        /* \"inviter_presell/stake.sol\":5698:5716  uint256 nextReward */\n      dup1\n        /* \"inviter_presell/stake.sol\":5731:5744  uint256 value */\n      0x00\n        /* \"inviter_presell/stake.sol\":5747:5758  startReward */\n      dup4\n        /* \"inviter_presell/stake.sol\":5731:5758  uint256 value = startReward */\n      swap1\n      pop\n        /* \"inviter_presell/stake.sol\":5769:5782  uint256 times */\n      0x00\n        /* \"inviter_presell/stake.sol\":5799:5811  rateInterval */\n      sload(0x07)\n        /* \"inviter_presell/stake.sol\":5785:5796  midInterval */\n      dup7\n        /* \"inviter_presell/stake.sol\":5785:5811  midInterval / rateInterval */\n      tag_327\n      swap2\n      swap1\n      tag_212\n      jump\t// in\n    tag_327:\n        /* \"inviter_presell/stake.sol\":5769:5811  uint256 times = midInterval / rateInterval */\n      swap1\n      pop\n        /* \"inviter_presell/stake.sol\":5826:5835  uint256 i */\n      0x00\n        /* \"inviter_presell/stake.sol\":5822:6036  for(uint256 i = 0; i < times; ++i) {... */\n    tag_328:\n        /* \"inviter_presell/stake.sol\":5845:5850  times */\n      dup2\n        /* \"inviter_presell/stake.sol\":5841:5842  i */\n      dup2\n        /* \"inviter_presell/stake.sol\":5841:5850  i < times */\n      lt\n        /* \"inviter_presell/stake.sol\":5822:6036  for(uint256 i = 0; i < times; ++i) {... */\n      iszero\n      tag_329\n      jumpi\n        /* \"inviter_presell/stake.sol\":5917:5940  rateIntervalDenominator */\n      sload(0x09)\n        /* \"inviter_presell/stake.sol\":5893:5914  rateIntervalNumerator */\n      sload(0x08)\n        /* \"inviter_presell/stake.sol\":5885:5890  value */\n      dup5\n        /* \"inviter_presell/stake.sol\":5885:5914  value * rateIntervalNumerator */\n      tag_331\n      swap2\n      swap1\n      tag_219\n      jump\t// in\n    tag_331:\n        /* \"inviter_presell/stake.sol\":5885:5940  value * rateIntervalNumerator / rateIntervalDenominator */\n      tag_332\n      swap2\n      swap1\n      tag_212\n      jump\t// in\n    tag_332:\n        /* \"inviter_presell/stake.sol\":5872:5940  nextReward = value * rateIntervalNumerator / rateIntervalDenominator */\n      swap4\n      pop\n        /* \"inviter_presell/stake.sol\":5971:5981  nextReward */\n      dup4\n        /* \"inviter_presell/stake.sol\":5963:5968  value */\n      dup4\n        /* \"inviter_presell/stake.sol\":5963:5981  value - nextReward */\n      tag_333\n      swap2\n      swap1\n      tag_210\n      jump\t// in\n    tag_333:\n        /* \"inviter_presell/stake.sol\":5955:5981  value = value - nextReward */\n      swap3\n      pop\n        /* \"inviter_presell/stake.sol\":6014:6024  nextReward */\n      dup4\n        /* \"inviter_presell/stake.sol\":5996:6024  midTotalReward += nextReward */\n      dup6\n      tag_334\n      swap2\n      swap1\n      tag_214\n      jump\t// in\n    tag_334:\n      swap5\n      pop\n        /* \"inviter_presell/stake.sol\":5852:5855  ++i */\n      dup1\n      tag_335\n      swap1\n      tag_223\n      jump\t// in\n    tag_335:\n      swap1\n      pop\n        /* \"inviter_presell/stake.sol\":5822:6036  for(uint256 i = 0; i < times; ++i) {... */\n      jump(tag_328)\n    tag_329:\n      pop\n        /* \"inviter_presell/stake.sol\":6112:6120  leftTime */\n      dup13\n        /* \"inviter_presell/stake.sol\":6100:6109  rightTime */\n      dup13\n        /* \"inviter_presell/stake.sol\":6100:6120  rightTime - leftTime */\n      tag_336\n      swap2\n      swap1\n      tag_210\n      jump\t// in\n    tag_336:\n        /* \"inviter_presell/stake.sol\":6084:6095  rightReward */\n      dup8\n        /* \"inviter_presell/stake.sol\":6071:6081  leftReward */\n      dup11\n        /* \"inviter_presell/stake.sol\":6054:6068  midTotalReward */\n      dup7\n        /* \"inviter_presell/stake.sol\":6054:6081  midTotalReward + leftReward */\n      tag_337\n      swap2\n      swap1\n      tag_214\n      jump\t// in\n    tag_337:\n        /* \"inviter_presell/stake.sol\":6054:6095  midTotalReward + leftReward + rightReward */\n      tag_338\n      swap2\n      swap1\n      tag_214\n      jump\t// in\n    tag_338:\n        /* \"inviter_presell/stake.sol\":6053:6121  (midTotalReward + leftReward + rightReward) / (rightTime - leftTime) */\n      tag_339\n      swap2\n      swap1\n      tag_212\n      jump\t// in\n    tag_339:\n        /* \"inviter_presell/stake.sol\":6046:6121  return (midTotalReward + leftReward + rightReward) / (rightTime - leftTime) */\n      swap11\n      pop\n      pop\n      pop\n      pop\n      pop\n      pop\n      pop\n      pop\n      pop\n      pop\n      pop\n        /* \"inviter_presell/stake.sol\":4746:6129  function getTimeWeightedAveRate(uint256 leftTime, uint256 rightTime) public view returns (uint256){... */\n    tag_302:\n      swap3\n      swap2\n      pop\n      pop\n      jump\t// out\n        /* \"inviter_presell/stake.sol\":6997:7112  function emergencyWithdraw() external onlyOwner {... */\n    tag_151:\n        /* \"inviter_presell/adminable.sol\":702:714  _msgSender() */\n      tag_341\n        /* \"inviter_presell/adminable.sol\":702:712  _msgSender */\n      tag_171\n        /* \"inviter_presell/adminable.sol\":702:714  _msgSender() */\n      jump\t// in\n    tag_341:\n        /* \"inviter_presell/adminable.sol\":691:714  owner() == _msgSender() */\n      0xffffffffffffffffffffffffffffffffffffffff\n      and\n        /* \"inviter_presell/adminable.sol\":691:698  owner() */\n      tag_342\n        /* \"inviter_presell/adminable.sol\":691:696  owner */\n      tag_115\n        /* \"inviter_presell/adminable.sol\":691:698  owner() */\n      jump\t// in\n    tag_342:\n        /* \"inviter_presell/adminable.sol\":691:714  owner() == _msgSender() */\n      0xffffffffffffffffffffffffffffffffffffffff\n      and\n      eq\n        /* \"inviter_presell/adminable.sol\":683:753  require(owner() == _msgSender(), \"Adminable: caller is not the owner\") */\n      tag_343\n      jumpi\n      mload(0x40)\n      0x08c379a000000000000000000000000000000000000000000000000000000000\n      dup2\n      mstore\n      0x04\n      add\n      tag_344\n      swap1\n      tag_175\n      jump\t// in\n    tag_344:\n      mload(0x40)\n      dup1\n      swap2\n      sub\n      swap1\n      revert\n    tag_343:\n        /* \"inviter_presell/stake.sol\":7064:7071  owner() */\n      tag_346\n        /* \"inviter_presell/stake.sol\":7064:7069  owner */\n      tag_115\n        /* \"inviter_presell/stake.sol\":7064:7071  owner() */\n      jump\t// in\n    tag_346:\n        /* \"inviter_presell/stake.sol\":7056:7081  payable(owner()).transfer */\n      0xffffffffffffffffffffffffffffffffffffffff\n      and\n        /* \"inviter_presell/stake.sol\":7056:7104  payable(owner()).transfer(address(this).balance) */\n      0x08fc\n        /* \"inviter_presell/stake.sol\":7082:7103  address(this).balance */\n      selfbalance\n        /* \"inviter_presell/stake.sol\":7056:7104  payable(owner()).transfer(address(this).balance) */\n      swap1\n      dup2\n      iszero\n      mul\n      swap1\n      mload(0x40)\n      0x00\n      mload(0x40)\n      dup1\n      dup4\n      sub\n      dup2\n      dup6\n      dup9\n      dup9\n      call\n      swap4\n      pop\n      pop\n      pop\n      pop\n      iszero\n      dup1\n      iszero\n      tag_348\n      jumpi\n      returndatasize\n      0x00\n      dup1\n      returndatacopy\n      revert(0x00, returndatasize)\n    tag_348:\n      pop\n        /* \"inviter_presell/stake.sol\":6997:7112  function emergencyWithdraw() external onlyOwner {... */\n      jump\t// out\n        /* \"inviter_presell/stake.sol\":818:853  uint256 public rewardPerTokenStored */\n    tag_153:\n      sload(0x0b)\n      dup2\n      jump\t// out\n        /* \"inviter_presell/adminable.sol\":1234:1435  function transferOwnership(address newOwner) public virtual onlyOwner {... */\n    tag_157:\n        /* \"inviter_presell/adminable.sol\":702:714  _msgSender() */\n      tag_350\n        /* \"inviter_presell/adminable.sol\":702:712  _msgSender */\n      tag_171\n        /* \"inviter_presell/adminable.sol\":702:714  _msgSender() */\n      jump\t// in\n    tag_350:\n        /* \"inviter_presell/adminable.sol\":691:714  owner() == _msgSender() */\n      0xffffffffffffffffffffffffffffffffffffffff\n      and\n        /* \"inviter_presell/adminable.sol\":691:698  owner() */\n      tag_351\n        /* \"inviter_presell/adminable.sol\":691:696  owner */\n      tag_115\n        /* \"inviter_presell/adminable.sol\":691:698  owner() */\n      jump\t// in\n    tag_351:\n        /* \"inviter_presell/adminable.sol\":691:714  owner() == _msgSender() */\n      0xffffffffffffffffffffffffffffffffffffffff\n      and\n      eq\n        /* \"inviter_presell/adminable.sol\":683:753  require(owner() == _msgSender(), \"Adminable: caller is not the owner\") */\n      tag_352\n      jumpi\n      mload(0x40)\n      0x08c379a000000000000000000000000000000000000000000000000000000000\n      dup2\n      mstore\n      0x04\n      add\n      tag_353\n      swap1\n      tag_175\n      jump\t// in\n    tag_353:\n      mload(0x40)\n      dup1\n      swap2\n      sub\n      swap1\n      revert\n    tag_352:\n        /* \"inviter_presell/adminable.sol\":1343:1344  0 */\n      0x00\n        /* \"inviter_presell/adminable.sol\":1323:1345  newOwner != address(0) */\n      0xffffffffffffffffffffffffffffffffffffffff\n      and\n        /* \"inviter_presell/adminable.sol\":1323:1331  newOwner */\n      dup2\n        /* \"inviter_presell/adminable.sol\":1323:1345  newOwner != address(0) */\n      0xffffffffffffffffffffffffffffffffffffffff\n      and\n      sub\n        /* \"inviter_presell/adminable.sol\":1315:1388  require(newOwner != address(0), \"Ownable: new owner is the zero address\") */\n      tag_355\n      jumpi\n      mload(0x40)\n      0x08c379a000000000000000000000000000000000000000000000000000000000\n      dup2\n      mstore\n      0x04\n      add\n      tag_356\n      swap1\n      tag_357\n      jump\t// in\n    tag_356:\n      mload(0x40)\n      dup1\n      swap2\n      sub\n      swap1\n      revert\n    tag_355:\n        /* \"inviter_presell/adminable.sol\":1399:1427  _transferOwnership(newOwner) */\n      tag_358\n        /* \"inviter_presell/adminable.sol\":1418:1426  newOwner */\n      dup2\n        /* \"inviter_presell/adminable.sol\":1399:1417  _transferOwnership */\n      tag_246\n        /* \"inviter_presell/adminable.sol\":1399:1427  _transferOwnership(newOwner) */\n      jump\t// in\n    tag_358:\n        /* \"inviter_presell/adminable.sol\":1234:1435  function transferOwnership(address newOwner) public virtual onlyOwner {... */\n      pop\n      jump\t// out\n        /* \"node_modules/@openzeppelin/contracts/utils/math/SafeMath.sol\":3108:3204  function sub(uint256 a, uint256 b) internal pure returns (uint256) {... */\n    tag_165:\n        /* \"node_modules/@openzeppelin/contracts/utils/math/SafeMath.sol\":3166:3173  uint256 */\n      0x00\n        /* \"node_modules/@openzeppelin/contracts/utils/math/SafeMath.sol\":3196:3197  b */\n      dup2\n        /* \"node_modules/@openzeppelin/contracts/utils/math/SafeMath.sol\":3192:3193  a */\n      dup4\n        /* \"node_modules/@openzeppelin/contracts/utils/math/SafeMath.sol\":3192:3197  a - b */\n      tag_360\n      swap2\n      swap1\n      tag_210\n      jump\t// in\n    tag_360:\n        /* \"node_modules/@openzeppelin/contracts/utils/math/SafeMath.sol\":3185:3197  return a - b */\n      swap1\n      pop\n        /* \"node_modules/@openzeppelin/contracts/utils/math/SafeMath.sol\":3108:3204  function sub(uint256 a, uint256 b) internal pure returns (uint256) {... */\n      swap3\n      swap2\n      pop\n      pop\n      jump\t// out\n        /* \"node_modules/@openzeppelin/contracts/utils/math/SafeMath.sol\":3451:3547  function mul(uint256 a, uint256 b) internal pure returns (uint256) {... */\n    tag_166:\n        /* \"node_modules/@openzeppelin/contracts/utils/math/SafeMath.sol\":3509:3516  uint256 */\n      0x00\n        /* \"node_modules/@openzeppelin/contracts/utils/math/SafeMath.sol\":3539:3540  b */\n      dup2\n        /* \"node_modules/@openzeppelin/contracts/utils/math/SafeMath.sol\":3535:3536  a */\n      dup4\n        /* \"node_modules/@openzeppelin/contracts/utils/math/SafeMath.sol\":3535:3540  a * b */\n      tag_362\n      swap2\n      swap1\n      tag_219\n      jump\t// in\n    tag_362:\n        /* \"node_modules/@openzeppelin/contracts/utils/math/SafeMath.sol\":3528:3540  return a * b */\n      swap1\n      pop\n        /* \"node_modules/@openzeppelin/contracts/utils/math/SafeMath.sol\":3451:3547  function mul(uint256 a, uint256 b) internal pure returns (uint256) {... */\n      swap3\n      swap2\n      pop\n      pop\n      jump\t// out\n        /* \"node_modules/@openzeppelin/contracts/utils/math/SafeMath.sol\":3836:3932  function div(uint256 a, uint256 b) internal pure returns (uint256) {... */\n    tag_167:\n        /* \"node_modules/@openzeppelin/contracts/utils/math/SafeMath.sol\":3894:3901  uint256 */\n      0x00\n        /* \"node_modules/@openzeppelin/contracts/utils/math/SafeMath.sol\":3924:3925  b */\n      dup2\n        /* \"node_modules/@openzeppelin/contracts/utils/math/SafeMath.sol\":3920:3921  a */\n      dup4\n        /* \"node_modules/@openzeppelin/contracts/utils/math/SafeMath.sol\":3920:3925  a / b */\n      tag_364\n      swap2\n      swap1\n      tag_212\n      jump\t// in\n    tag_364:\n        /* \"node_modules/@openzeppelin/contracts/utils/math/SafeMath.sol\":3913:3925  return a / b */\n      swap1\n      pop\n        /* \"node_modules/@openzeppelin/contracts/utils/math/SafeMath.sol\":3836:3932  function div(uint256 a, uint256 b) internal pure returns (uint256) {... */\n      swap3\n      swap2\n      pop\n      pop\n      jump\t// out\n        /* \"node_modules/@openzeppelin/contracts/utils/math/SafeMath.sol\":2741:2837  function add(uint256 a, uint256 b) internal pure returns (uint256) {... */\n    tag_168:\n        /* \"node_modules/@openzeppelin/contracts/utils/math/SafeMath.sol\":2799:2806  uint256 */\n      0x00\n        /* \"node_modules/@openzeppelin/contracts/utils/math/SafeMath.sol\":2829:2830  b */\n      dup2\n        /* \"node_modules/@openzeppelin/contracts/utils/math/SafeMath.sol\":2825:2826  a */\n      dup4\n        /* \"node_modules/@openzeppelin/contracts/utils/math/SafeMath.sol\":2825:2830  a + b */\n      tag_366\n      swap2\n      swap1\n      tag_214\n      jump\t// in\n    tag_366:\n        /* \"node_modules/@openzeppelin/contracts/utils/math/SafeMath.sol\":2818:2830  return a + b */\n      swap1\n      pop\n        /* \"node_modules/@openzeppelin/contracts/utils/math/SafeMath.sol\":2741:2837  function add(uint256 a, uint256 b) internal pure returns (uint256) {... */\n      swap3\n      swap2\n      pop\n      pop\n      jump\t// out\n        /* \"inviter_presell/adminable.sol\":63:161  function _msgSender() internal view virtual returns (address) {... */\n    tag_171:\n        /* \"inviter_presell/adminable.sol\":116:123  address */\n      0x00\n        /* \"inviter_presell/adminable.sol\":143:153  msg.sender */\n      caller\n        /* \"inviter_presell/adminable.sol\":136:153  return msg.sender */\n      swap1\n      pop\n        /* \"inviter_presell/adminable.sol\":63:161  function _msgSender() internal view virtual returns (address) {... */\n      swap1\n      jump\t// out\n        /* \"inviter_presell/adminable.sol\":1443:1634  function _transferOwnership(address newOwner) internal virtual {... */\n    tag_246:\n        /* \"inviter_presell/adminable.sol\":1517:1533  address oldOwner */\n      0x00\n        /* \"inviter_presell/adminable.sol\":1536:1542  _owner */\n      0x01\n      0x00\n      swap1\n      sload\n      swap1\n      0x0100\n      exp\n      swap1\n      div\n      0xffffffffffffffffffffffffffffffffffffffff\n      and\n        /* \"inviter_presell/adminable.sol\":1517:1542  address oldOwner = _owner */\n      swap1\n      pop\n        /* \"inviter_presell/adminable.sol\":1562:1570  newOwner */\n      dup2\n        /* \"inviter_presell/adminable.sol\":1553:1559  _owner */\n      0x01\n      0x00\n        /* \"inviter_presell/adminable.sol\":1553:1570  _owner = newOwner */\n      0x0100\n      exp\n      dup2\n      sload\n      dup2\n      0xffffffffffffffffffffffffffffffffffffffff\n      mul\n      not\n      and\n      swap1\n      dup4\n      0xffffffffffffffffffffffffffffffffffffffff\n      and\n      mul\n      or\n      swap1\n      sstore\n      pop\n        /* \"inviter_presell/adminable.sol\":1617:1625  newOwner */\n      dup2\n        /* \"inviter_presell/adminable.sol\":1586:1626  OwnershipTransferred(oldOwner, newOwner) */\n      0xffffffffffffffffffffffffffffffffffffffff\n      and\n        /* \"inviter_presell/adminable.sol\":1607:1615  oldOwner */\n      dup2\n        /* \"inviter_presell/adminable.sol\":1586:1626  OwnershipTransferred(oldOwner, newOwner) */\n      0xffffffffffffffffffffffffffffffffffffffff\n      and\n      0x8be0079c531659141344cd1fd0a4f28419497f9722a3daafe3b4186f6b6457e0\n      mload(0x40)\n      mload(0x40)\n      dup1\n      swap2\n      sub\n      swap1\n      log3\n        /* \"inviter_presell/adminable.sol\":1506:1634  {... */\n      pop\n        /* \"inviter_presell/adminable.sol\":1443:1634  function _transferOwnership(address newOwner) internal virtual {... */\n      pop\n      jump\t// out\n        /* \"inviter_presell/stake.sol\":3704:3926  function _getRewardRate(uint256 time) private view returns (uint256) {... */\n    tag_301:\n        /* \"inviter_presell/stake.sol\":3764:3771  uint256 */\n      0x00\n        /* \"inviter_presell/stake.sol\":3784:3805  uint256 curPoolAmount */\n      dup1\n        /* \"inviter_presell/stake.sol\":3808:3827  getRewardPool(time) */\n      tag_370\n        /* \"inviter_presell/stake.sol\":3822:3826  time */\n      dup4\n        /* \"inviter_presell/stake.sol\":3808:3821  getRewardPool */\n      tag_80\n        /* \"inviter_presell/stake.sol\":3808:3827  getRewardPool(time) */\n      jump\t// in\n    tag_370:\n        /* \"inviter_presell/stake.sol\":3784:3827  uint256 curPoolAmount = getRewardPool(time) */\n      swap1\n      pop\n        /* \"inviter_presell/stake.sol\":3838:3856  uint256 rewardRate */\n      0x00\n        /* \"inviter_presell/stake.sol\":3859:3890  curPoolAmount.div(rateInterval) */\n      tag_371\n        /* \"inviter_presell/stake.sol\":3877:3889  rateInterval */\n      sload(0x07)\n        /* \"inviter_presell/stake.sol\":3859:3872  curPoolAmount */\n      dup4\n        /* \"inviter_presell/stake.sol\":3859:3876  curPoolAmount.div */\n      tag_167\n      swap1\n        /* \"inviter_presell/stake.sol\":3859:3890  curPoolAmount.div(rateInterval) */\n      swap2\n      swap1\n      0xffffffff\n      and\n      jump\t// in\n    tag_371:\n        /* \"inviter_presell/stake.sol\":3838:3890  uint256 rewardRate = curPoolAmount.div(rateInterval) */\n      swap1\n      pop\n        /* \"inviter_presell/stake.sol\":3908:3918  rewardRate */\n      dup1\n        /* \"inviter_presell/stake.sol\":3901:3918  return rewardRate */\n      swap3\n      pop\n      pop\n      pop\n        /* \"inviter_presell/stake.sol\":3704:3926  function _getRewardRate(uint256 time) private view returns (uint256) {... */\n      swap2\n      swap1\n      pop\n      jump\t// out\n        /* \"#utility.yul\":88:205   */\n    tag_373:\n        /* \"#utility.yul\":197:198   */\n      0x00\n        /* \"#utility.yul\":194:195   */\n      dup1\n        /* \"#utility.yul\":187:199   */\n      revert\n        /* \"#utility.yul\":334:460   */\n    tag_375:\n        /* \"#utility.yul\":371:378   */\n      0x00\n        /* \"#utility.yul\":411:453   */\n      0xffffffffffffffffffffffffffffffffffffffff\n        /* \"#utility.yul\":404:409   */\n      dup3\n        /* \"#utility.yul\":400:454   */\n      and\n        /* \"#utility.yul\":389:454   */\n      swap1\n      pop\n        /* \"#utility.yul\":334:460   */\n      swap2\n      swap1\n      pop\n      jump\t// out\n        /* \"#utility.yul\":466:562   */\n    tag_376:\n        /* \"#utility.yul\":503:510   */\n      0x00\n        /* \"#utility.yul\":532:556   */\n      tag_413\n        /* \"#utility.yul\":550:555   */\n      dup3\n        /* \"#utility.yul\":532:556   */\n      tag_375\n      jump\t// in\n    tag_413:\n        /* \"#utility.yul\":521:556   */\n      swap1\n      pop\n        /* \"#utility.yul\":466:562   */\n      swap2\n      swap1\n      pop\n      jump\t// out\n        /* \"#utility.yul\":568:690   */\n    tag_377:\n        /* \"#utility.yul\":641:665   */\n      tag_415\n        /* \"#utility.yul\":659:664   */\n      dup2\n        /* \"#utility.yul\":641:665   */\n      tag_376\n      jump\t// in\n    tag_415:\n        /* \"#utility.yul\":634:639   */\n      dup2\n        /* \"#utility.yul\":631:666   */\n      eq\n        /* \"#utility.yul\":621:684   */\n      tag_416\n      jumpi\n        /* \"#utility.yul\":680:681   */\n      0x00\n        /* \"#utility.yul\":677:678   */\n      dup1\n        /* \"#utility.yul\":670:682   */\n      revert\n        /* \"#utility.yul\":621:684   */\n    tag_416:\n        /* \"#utility.yul\":568:690   */\n      pop\n      jump\t// out\n        /* \"#utility.yul\":696:835   */\n    tag_378:\n        /* \"#utility.yul\":742:747   */\n      0x00\n        /* \"#utility.yul\":780:786   */\n      dup2\n        /* \"#utility.yul\":767:787   */\n      calldataload\n        /* \"#utility.yul\":758:787   */\n      swap1\n      pop\n        /* \"#utility.yul\":796:829   */\n      tag_418\n        /* \"#utility.yul\":823:828   */\n      dup2\n        /* \"#utility.yul\":796:829   */\n      tag_377\n      jump\t// in\n    tag_418:\n        /* \"#utility.yul\":696:835   */\n      swap3\n      swap2\n      pop\n      pop\n      jump\t// out\n        /* \"#utility.yul\":841:1170   */\n    tag_45:\n        /* \"#utility.yul\":900:906   */\n      0x00\n        /* \"#utility.yul\":949:951   */\n      0x20\n        /* \"#utility.yul\":937:946   */\n      dup3\n        /* \"#utility.yul\":928:935   */\n      dup5\n        /* \"#utility.yul\":924:947   */\n      sub\n        /* \"#utility.yul\":920:952   */\n      slt\n        /* \"#utility.yul\":917:1036   */\n      iszero\n      tag_420\n      jumpi\n        /* \"#utility.yul\":955:1034   */\n      tag_421\n      tag_373\n      jump\t// in\n    tag_421:\n        /* \"#utility.yul\":917:1036   */\n    tag_420:\n        /* \"#utility.yul\":1075:1076   */\n      0x00\n        /* \"#utility.yul\":1100:1153   */\n      tag_422\n        /* \"#utility.yul\":1145:1152   */\n      dup5\n        /* \"#utility.yul\":1136:1142   */\n      dup3\n        /* \"#utility.yul\":1125:1134   */\n      dup6\n        /* \"#utility.yul\":1121:1143   */\n      add\n        /* \"#utility.yul\":1100:1153   */\n      tag_378\n      jump\t// in\n    tag_422:\n        /* \"#utility.yul\":1090:1153   */\n      swap2\n      pop\n        /* \"#utility.yul\":1046:1163   */\n      pop\n        /* \"#utility.yul\":841:1170   */\n      swap3\n      swap2\n      pop\n      pop\n      jump\t// out\n        /* \"#utility.yul\":1176:1253   */\n    tag_379:\n        /* \"#utility.yul\":1213:1220   */\n      0x00\n        /* \"#utility.yul\":1242:1247   */\n      dup2\n        /* \"#utility.yul\":1231:1247   */\n      swap1\n      pop\n        /* \"#utility.yul\":1176:1253   */\n      swap2\n      swap1\n      pop\n      jump\t// out\n        /* \"#utility.yul\":1259:1377   */\n    tag_380:\n        /* \"#utility.yul\":1346:1370   */\n      tag_425\n        /* \"#utility.yul\":1364:1369   */\n      dup2\n        /* \"#utility.yul\":1346:1370   */\n      tag_379\n      jump\t// in\n    tag_425:\n        /* \"#utility.yul\":1341:1344   */\n      dup3\n        /* \"#utility.yul\":1334:1371   */\n      mstore\n        /* \"#utility.yul\":1259:1377   */\n      pop\n      pop\n      jump\t// out\n        /* \"#utility.yul\":1383:1605   */\n    tag_48:\n        /* \"#utility.yul\":1476:1480   */\n      0x00\n        /* \"#utility.yul\":1514:1516   */\n      0x20\n        /* \"#utility.yul\":1503:1512   */\n      dup3\n        /* \"#utility.yul\":1499:1517   */\n      add\n        /* \"#utility.yul\":1491:1517   */\n      swap1\n      pop\n        /* \"#utility.yul\":1527:1598   */\n      tag_427\n        /* \"#utility.yul\":1595:1596   */\n      0x00\n        /* \"#utility.yul\":1584:1593   */\n      dup4\n        /* \"#utility.yul\":1580:1597   */\n      add\n        /* \"#utility.yul\":1571:1577   */\n      dup5\n        /* \"#utility.yul\":1527:1598   */\n      tag_380\n      jump\t// in\n    tag_427:\n        /* \"#utility.yul\":1383:1605   */\n      swap3\n      swap2\n      pop\n      pop\n      jump\t// out\n        /* \"#utility.yul\":1611:1701   */\n    tag_381:\n        /* \"#utility.yul\":1645:1652   */\n      0x00\n        /* \"#utility.yul\":1688:1693   */\n      dup2\n        /* \"#utility.yul\":1681:1694   */\n      iszero\n        /* \"#utility.yul\":1674:1695   */\n      iszero\n        /* \"#utility.yul\":1663:1695   */\n      swap1\n      pop\n        /* \"#utility.yul\":1611:1701   */\n      swap2\n      swap1\n      pop\n      jump\t// out\n        /* \"#utility.yul\":1707:1823   */\n    tag_382:\n        /* \"#utility.yul\":1777:1798   */\n      tag_430\n        /* \"#utility.yul\":1792:1797   */\n      dup2\n        /* \"#utility.yul\":1777:1798   */\n      tag_381\n      jump\t// in\n    tag_430:\n        /* \"#utility.yul\":1770:1775   */\n      dup2\n        /* \"#utility.yul\":1767:1799   */\n      eq\n        /* \"#utility.yul\":1757:1817   */\n      tag_431\n      jumpi\n        /* \"#utility.yul\":1813:1814   */\n      0x00\n        /* \"#utility.yul\":1810:1811   */\n      dup1\n        /* \"#utility.yul\":1803:1815   */\n      revert\n        /* \"#utility.yul\":1757:1817   */\n    tag_431:\n        /* \"#utility.yul\":1707:1823   */\n      pop\n      jump\t// out\n        /* \"#utility.yul\":1829:1962   */\n    tag_383:\n        /* \"#utility.yul\":1872:1877   */\n      0x00\n        /* \"#utility.yul\":1910:1916   */\n      dup2\n        /* \"#utility.yul\":1897:1917   */\n      calldataload\n        /* \"#utility.yul\":1888:1917   */\n      swap1\n      pop\n        /* \"#utility.yul\":1926:1956   */\n      tag_433\n        /* \"#utility.yul\":1950:1955   */\n      dup2\n        /* \"#utility.yul\":1926:1956   */\n      tag_382\n      jump\t// in\n    tag_433:\n        /* \"#utility.yul\":1829:1962   */\n      swap3\n      swap2\n      pop\n      pop\n      jump\t// out\n        /* \"#utility.yul\":1968:2436   */\n    tag_58:\n        /* \"#utility.yul\":2033:2039   */\n      0x00\n        /* \"#utility.yul\":2041:2047   */\n      dup1\n        /* \"#utility.yul\":2090:2092   */\n      0x40\n        /* \"#utility.yul\":2078:2087   */\n      dup4\n        /* \"#utility.yul\":2069:2076   */\n      dup6\n        /* \"#utility.yul\":2065:2088   */\n      sub\n        /* \"#utility.yul\":2061:2093   */\n      slt\n        /* \"#utility.yul\":2058:2177   */\n      iszero\n      tag_435\n      jumpi\n        /* \"#utility.yul\":2096:2175   */\n      tag_436\n      tag_373\n      jump\t// in\n    tag_436:\n        /* \"#utility.yul\":2058:2177   */\n    tag_435:\n        /* \"#utility.yul\":2216:2217   */\n      0x00\n        /* \"#utility.yul\":2241:2294   */\n      tag_437\n        /* \"#utility.yul\":2286:2293   */\n      dup6\n        /* \"#utility.yul\":2277:2283   */\n      dup3\n        /* \"#utility.yul\":2266:2275   */\n      dup7\n        /* \"#utility.yul\":2262:2284   */\n      add\n        /* \"#utility.yul\":2241:2294   */\n      tag_378\n      jump\t// in\n    tag_437:\n        /* \"#utility.yul\":2231:2294   */\n      swap3\n      pop\n        /* \"#utility.yul\":2187:2304   */\n      pop\n        /* \"#utility.yul\":2343:2345   */\n      0x20\n        /* \"#utility.yul\":2369:2419   */\n      tag_438\n        /* \"#utility.yul\":2411:2418   */\n      dup6\n        /* \"#utility.yul\":2402:2408   */\n      dup3\n        /* \"#utility.yul\":2391:2400   */\n      dup7\n        /* \"#utility.yul\":2387:2409   */\n      add\n        /* \"#utility.yul\":2369:2419   */\n      tag_383\n      jump\t// in\n    tag_438:\n        /* \"#utility.yul\":2359:2419   */\n      swap2\n      pop\n        /* \"#utility.yul\":2314:2429   */\n      pop\n        /* \"#utility.yul\":1968:2436   */\n      swap3\n      pop\n      swap3\n      swap1\n      pop\n      jump\t// out\n        /* \"#utility.yul\":2442:2551   */\n    tag_384:\n        /* \"#utility.yul\":2523:2544   */\n      tag_440\n        /* \"#utility.yul\":2538:2543   */\n      dup2\n        /* \"#utility.yul\":2523:2544   */\n      tag_381\n      jump\t// in\n    tag_440:\n        /* \"#utility.yul\":2518:2521   */\n      dup3\n        /* \"#utility.yul\":2511:2545   */\n      mstore\n        /* \"#utility.yul\":2442:2551   */\n      pop\n      pop\n      jump\t// out\n        /* \"#utility.yul\":2557:2767   */\n    tag_64:\n        /* \"#utility.yul\":2644:2648   */\n      0x00\n        /* \"#utility.yul\":2682:2684   */\n      0x20\n        /* \"#utility.yul\":2671:2680   */\n      dup3\n        /* \"#utility.yul\":2667:2685   */\n      add\n        /* \"#utility.yul\":2659:2685   */\n      swap1\n      pop\n        /* \"#utility.yul\":2695:2760   */\n      tag_442\n        /* \"#utility.yul\":2757:2758   */\n      0x00\n        /* \"#utility.yul\":2746:2755   */\n      dup4\n        /* \"#utility.yul\":2742:2759   */\n      add\n        /* \"#utility.yul\":2733:2739   */\n      dup5\n        /* \"#utility.yul\":2695:2760   */\n      tag_384\n      jump\t// in\n    tag_442:\n        /* \"#utility.yul\":2557:2767   */\n      swap3\n      swap2\n      pop\n      pop\n      jump\t// out\n        /* \"#utility.yul\":2773:2895   */\n    tag_385:\n        /* \"#utility.yul\":2846:2870   */\n      tag_444\n        /* \"#utility.yul\":2864:2869   */\n      dup2\n        /* \"#utility.yul\":2846:2870   */\n      tag_379\n      jump\t// in\n    tag_444:\n        /* \"#utility.yul\":2839:2844   */\n      dup2\n        /* \"#utility.yul\":2836:2871   */\n      eq\n        /* \"#utility.yul\":2826:2889   */\n      tag_445\n      jumpi\n        /* \"#utility.yul\":2885:2886   */\n      0x00\n        /* \"#utility.yul\":2882:2883   */\n      dup1\n        /* \"#utility.yul\":2875:2887   */\n      revert\n        /* \"#utility.yul\":2826:2889   */\n    tag_445:\n        /* \"#utility.yul\":2773:2895   */\n      pop\n      jump\t// out\n        /* \"#utility.yul\":2901:3040   */\n    tag_386:\n        /* \"#utility.yul\":2947:2952   */\n      0x00\n        /* \"#utility.yul\":2985:2991   */\n      dup2\n        /* \"#utility.yul\":2972:2992   */\n      calldataload\n        /* \"#utility.yul\":2963:2992   */\n      swap1\n      pop\n        /* \"#utility.yul\":3001:3034   */\n      tag_447\n        /* \"#utility.yul\":3028:3033   */\n      dup2\n        /* \"#utility.yul\":3001:3034   */\n      tag_385\n      jump\t// in\n    tag_447:\n        /* \"#utility.yul\":2901:3040   */\n      swap3\n      swap2\n      pop\n      pop\n      jump\t// out\n        /* \"#utility.yul\":3046:3375   */\n    tag_72:\n        /* \"#utility.yul\":3105:3111   */\n      0x00\n        /* \"#utility.yul\":3154:3156   */\n      0x20\n        /* \"#utility.yul\":3142:3151   */\n      dup3\n        /* \"#utility.yul\":3133:3140   */\n      dup5\n        /* \"#utility.yul\":3129:3152   */\n      sub\n        /* \"#utility.yul\":3125:3157   */\n      slt\n        /* \"#utility.yul\":3122:3241   */\n      iszero\n      tag_449\n      jumpi\n        /* \"#utility.yul\":3160:3239   */\n      tag_450\n      tag_373\n      jump\t// in\n    tag_450:\n        /* \"#utility.yul\":3122:3241   */\n    tag_449:\n        /* \"#utility.yul\":3280:3281   */\n      0x00\n        /* \"#utility.yul\":3305:3358   */\n      tag_451\n        /* \"#utility.yul\":3350:3357   */\n      dup5\n        /* \"#utility.yul\":3341:3347   */\n      dup3\n        /* \"#utility.yul\":3330:3339   */\n      dup6\n        /* \"#utility.yul\":3326:3348   */\n      add\n        /* \"#utility.yul\":3305:3358   */\n      tag_386\n      jump\t// in\n    tag_451:\n        /* \"#utility.yul\":3295:3358   */\n      swap2\n      pop\n        /* \"#utility.yul\":3251:3368   */\n      pop\n        /* \"#utility.yul\":3046:3375   */\n      swap3\n      swap2\n      pop\n      pop\n      jump\t// out\n        /* \"#utility.yul\":3381:3499   */\n    tag_387:\n        /* \"#utility.yul\":3468:3492   */\n      tag_453\n        /* \"#utility.yul\":3486:3491   */\n      dup2\n        /* \"#utility.yul\":3468:3492   */\n      tag_376\n      jump\t// in\n    tag_453:\n        /* \"#utility.yul\":3463:3466   */\n      dup3\n        /* \"#utility.yul\":3456:3493   */\n      mstore\n        /* \"#utility.yul\":3381:3499   */\n      pop\n      pop\n      jump\t// out\n        /* \"#utility.yul\":3505:3727   */\n    tag_117:\n        /* \"#utility.yul\":3598:3602   */\n      0x00\n        /* \"#utility.yul\":3636:3638   */\n      0x20\n        /* \"#utility.yul\":3625:3634   */\n      dup3\n        /* \"#utility.yul\":3621:3639   */\n      add\n        /* \"#utility.yul\":3613:3639   */\n      swap1\n      pop\n        /* \"#utility.yul\":3649:3720   */\n      tag_455\n        /* \"#utility.yul\":3717:3718   */\n      0x00\n        /* \"#utility.yul\":3706:3715   */\n      dup4\n        /* \"#utility.yul\":3702:3719   */\n      add\n        /* \"#utility.yul\":3693:3699   */\n      dup5\n        /* \"#utility.yul\":3649:3720   */\n      tag_387\n      jump\t// in\n    tag_455:\n        /* \"#utility.yul\":3505:3727   */\n      swap3\n      swap2\n      pop\n      pop\n      jump\t// out\n        /* \"#utility.yul\":3733:4207   */\n    tag_126:\n        /* \"#utility.yul\":3801:3807   */\n      0x00\n        /* \"#utility.yul\":3809:3815   */\n      dup1\n        /* \"#utility.yul\":3858:3860   */\n      0x40\n        /* \"#utility.yul\":3846:3855   */\n      dup4\n        /* \"#utility.yul\":3837:3844   */\n      dup6\n        /* \"#utility.yul\":3833:3856   */\n      sub\n        /* \"#utility.yul\":3829:3861   */\n      slt\n        /* \"#utility.yul\":3826:3945   */\n      iszero\n      tag_457\n      jumpi\n        /* \"#utility.yul\":3864:3943   */\n      tag_458\n      tag_373\n      jump\t// in\n    tag_458:\n        /* \"#utility.yul\":3826:3945   */\n    tag_457:\n        /* \"#utility.yul\":3984:3985   */\n      0x00\n        /* \"#utility.yul\":4009:4062   */\n      tag_459\n        /* \"#utility.yul\":4054:4061   */\n      dup6\n        /* \"#utility.yul\":4045:4051   */\n      dup3\n        /* \"#utility.yul\":4034:4043   */\n      dup7\n        /* \"#utility.yul\":4030:4052   */\n      add\n        /* \"#utility.yul\":4009:4062   */\n      tag_378\n      jump\t// in\n    tag_459:\n        /* \"#utility.yul\":3999:4062   */\n      swap3\n      pop\n        /* \"#utility.yul\":3955:4072   */\n      pop\n        /* \"#utility.yul\":4111:4113   */\n      0x20\n        /* \"#utility.yul\":4137:4190   */\n      tag_460\n        /* \"#utility.yul\":4182:4189   */\n      dup6\n        /* \"#utility.yul\":4173:4179   */\n      dup3\n        /* \"#utility.yul\":4162:4171   */\n      dup7\n        /* \"#utility.yul\":4158:4180   */\n      add\n        /* \"#utility.yul\":4137:4190   */\n      tag_386\n      jump\t// in\n    tag_460:\n        /* \"#utility.yul\":4127:4190   */\n      swap2\n      pop\n        /* \"#utility.yul\":4082:4200   */\n      pop\n        /* \"#utility.yul\":3733:4207   */\n      swap3\n      pop\n      swap3\n      swap1\n      pop\n      jump\t// out\n        /* \"#utility.yul\":4213:4273   */\n    tag_388:\n        /* \"#utility.yul\":4241:4244   */\n      0x00\n        /* \"#utility.yul\":4262:4267   */\n      dup2\n        /* \"#utility.yul\":4255:4267   */\n      swap1\n      pop\n        /* \"#utility.yul\":4213:4273   */\n      swap2\n      swap1\n      pop\n      jump\t// out\n        /* \"#utility.yul\":4279:4421   */\n    tag_389:\n        /* \"#utility.yul\":4329:4338   */\n      0x00\n        /* \"#utility.yul\":4362:4415   */\n      tag_463\n        /* \"#utility.yul\":4380:4414   */\n      tag_464\n        /* \"#utility.yul\":4389:4413   */\n      tag_465\n        /* \"#utility.yul\":4407:4412   */\n      dup5\n        /* \"#utility.yul\":4389:4413   */\n      tag_375\n      jump\t// in\n    tag_465:\n        /* \"#utility.yul\":4380:4414   */\n      tag_388\n      jump\t// in\n    tag_464:\n        /* \"#utility.yul\":4362:4415   */\n      tag_375\n      jump\t// in\n    tag_463:\n        /* \"#utility.yul\":4349:4415   */\n      swap1\n      pop\n        /* \"#utility.yul\":4279:4421   */\n      swap2\n      swap1\n      pop\n      jump\t// out\n        /* \"#utility.yul\":4427:4553   */\n    tag_390:\n        /* \"#utility.yul\":4477:4486   */\n      0x00\n        /* \"#utility.yul\":4510:4547   */\n      tag_467\n        /* \"#utility.yul\":4541:4546   */\n      dup3\n        /* \"#utility.yul\":4510:4547   */\n      tag_389\n      jump\t// in\n    tag_467:\n        /* \"#utility.yul\":4497:4547   */\n      swap1\n      pop\n        /* \"#utility.yul\":4427:4553   */\n      swap2\n      swap1\n      pop\n      jump\t// out\n        /* \"#utility.yul\":4559:4700   */\n    tag_391:\n        /* \"#utility.yul\":4624:4633   */\n      0x00\n        /* \"#utility.yul\":4657:4694   */\n      tag_469\n        /* \"#utility.yul\":4688:4693   */\n      dup3\n        /* \"#utility.yul\":4657:4694   */\n      tag_390\n      jump\t// in\n    tag_469:\n        /* \"#utility.yul\":4644:4694   */\n      swap1\n      pop\n        /* \"#utility.yul\":4559:4700   */\n      swap2\n      swap1\n      pop\n      jump\t// out\n        /* \"#utility.yul\":4706:4867   */\n    tag_392:\n        /* \"#utility.yul\":4808:4860   */\n      tag_471\n        /* \"#utility.yul\":4854:4859   */\n      dup2\n        /* \"#utility.yul\":4808:4860   */\n      tag_391\n      jump\t// in\n    tag_471:\n        /* \"#utility.yul\":4803:4806   */\n      dup3\n        /* \"#utility.yul\":4796:4861   */\n      mstore\n        /* \"#utility.yul\":4706:4867   */\n      pop\n      pop\n      jump\t// out\n        /* \"#utility.yul\":4873:5125   */\n    tag_144:\n        /* \"#utility.yul\":4981:4985   */\n      0x00\n        /* \"#utility.yul\":5019:5021   */\n      0x20\n        /* \"#utility.yul\":5008:5017   */\n      dup3\n        /* \"#utility.yul\":5004:5022   */\n      add\n        /* \"#utility.yul\":4996:5022   */\n      swap1\n      pop\n        /* \"#utility.yul\":5032:5118   */\n      tag_473\n        /* \"#utility.yul\":5115:5116   */\n      0x00\n        /* \"#utility.yul\":5104:5113   */\n      dup4\n        /* \"#utility.yul\":5100:5117   */\n      add\n        /* \"#utility.yul\":5091:5097   */\n      dup5\n        /* \"#utility.yul\":5032:5118   */\n      tag_392\n      jump\t// in\n    tag_473:\n        /* \"#utility.yul\":4873:5125   */\n      swap3\n      swap2\n      pop\n      pop\n      jump\t// out\n        /* \"#utility.yul\":5131:5605   */\n    tag_147:\n        /* \"#utility.yul\":5199:5205   */\n      0x00\n        /* \"#utility.yul\":5207:5213   */\n      dup1\n        /* \"#utility.yul\":5256:5258   */\n      0x40\n        /* \"#utility.yul\":5244:5253   */\n      dup4\n        /* \"#utility.yul\":5235:5242   */\n      dup6\n        /* \"#utility.yul\":5231:5254   */\n      sub\n        /* \"#utility.yul\":5227:5259   */\n      slt\n        /* \"#utility.yul\":5224:5343   */\n      iszero\n      tag_475\n      jumpi\n        /* \"#utility.yul\":5262:5341   */\n      tag_476\n      tag_373\n      jump\t// in\n    tag_476:\n        /* \"#utility.yul\":5224:5343   */\n    tag_475:\n        /* \"#utility.yul\":5382:5383   */\n      0x00\n        /* \"#utility.yul\":5407:5460   */\n      tag_477\n        /* \"#utility.yul\":5452:5459   */\n      dup6\n        /* \"#utility.yul\":5443:5449   */\n      dup3\n        /* \"#utility.yul\":5432:5441   */\n      dup7\n        /* \"#utility.yul\":5428:5450   */\n      add\n        /* \"#utility.yul\":5407:5460   */\n      tag_386\n      jump\t// in\n    tag_477:\n        /* \"#utility.yul\":5397:5460   */\n      swap3\n      pop\n        /* \"#utility.yul\":5353:5470   */\n      pop\n        /* \"#utility.yul\":5509:5511   */\n      0x20\n        /* \"#utility.yul\":5535:5588   */\n      tag_478\n        /* \"#utility.yul\":5580:5587   */\n      dup6\n        /* \"#utility.yul\":5571:5577   */\n      dup3\n        /* \"#utility.yul\":5560:5569   */\n      dup7\n        /* \"#utility.yul\":5556:5578   */\n      add\n        /* \"#utility.yul\":5535:5588   */\n      tag_386\n      jump\t// in\n    tag_478:\n        /* \"#utility.yul\":5525:5588   */\n      swap2\n      pop\n        /* \"#utility.yul\":5480:5598   */\n      pop\n        /* \"#utility.yul\":5131:5605   */\n      swap3\n      pop\n      swap3\n      swap1\n      pop\n      jump\t// out\n        /* \"#utility.yul\":5611:5780   */\n    tag_393:\n        /* \"#utility.yul\":5695:5706   */\n      0x00\n        /* \"#utility.yul\":5729:5735   */\n      dup3\n        /* \"#utility.yul\":5724:5727   */\n      dup3\n        /* \"#utility.yul\":5717:5736   */\n      mstore\n        /* \"#utility.yul\":5769:5773   */\n      0x20\n        /* \"#utility.yul\":5764:5767   */\n      dup3\n        /* \"#utility.yul\":5760:5774   */\n      add\n        /* \"#utility.yul\":5745:5774   */\n      swap1\n      pop\n        /* \"#utility.yul\":5611:5780   */\n      swap3\n      swap2\n      pop\n      pop\n      jump\t// out\n        /* \"#utility.yul\":5786:6007   */\n    tag_394:\n        /* \"#utility.yul\":5926:5960   */\n      0x41646d696e61626c653a2063616c6c6572206973206e6f7420746865206f776e\n        /* \"#utility.yul\":5922:5923   */\n      0x00\n        /* \"#utility.yul\":5914:5920   */\n      dup3\n        /* \"#utility.yul\":5910:5924   */\n      add\n        /* \"#utility.yul\":5903:5961   */\n      mstore\n        /* \"#utility.yul\":5995:5999   */\n      0x6572000000000000000000000000000000000000000000000000000000000000\n        /* \"#utility.yul\":5990:5992   */\n      0x20\n        /* \"#utility.yul\":5982:5988   */\n      dup3\n        /* \"#utility.yul\":5978:5993   */\n      add\n        /* \"#utility.yul\":5971:6000   */\n      mstore\n        /* \"#utility.yul\":5786:6007   */\n      pop\n      jump\t// out\n        /* \"#utility.yul\":6013:6379   */\n    tag_395:\n        /* \"#utility.yul\":6155:6158   */\n      0x00\n        /* \"#utility.yul\":6176:6243   */\n      tag_482\n        /* \"#utility.yul\":6240:6242   */\n      0x22\n        /* \"#utility.yul\":6235:6238   */\n      dup4\n        /* \"#utility.yul\":6176:6243   */\n      tag_393\n      jump\t// in\n    tag_482:\n        /* \"#utility.yul\":6169:6243   */\n      swap2\n      pop\n        /* \"#utility.yul\":6252:6345   */\n      tag_483\n        /* \"#utility.yul\":6341:6344   */\n      dup3\n        /* \"#utility.yul\":6252:6345   */\n      tag_394\n      jump\t// in\n    tag_483:\n        /* \"#utility.yul\":6370:6372   */\n      0x40\n        /* \"#utility.yul\":6365:6368   */\n      dup3\n        /* \"#utility.yul\":6361:6373   */\n      add\n        /* \"#utility.yul\":6354:6373   */\n      swap1\n      pop\n        /* \"#utility.yul\":6013:6379   */\n      swap2\n      swap1\n      pop\n      jump\t// out\n        /* \"#utility.yul\":6385:6804   */\n    tag_175:\n        /* \"#utility.yul\":6551:6555   */\n      0x00\n        /* \"#utility.yul\":6589:6591   */\n      0x20\n        /* \"#utility.yul\":6578:6587   */\n      dup3\n        /* \"#utility.yul\":6574:6592   */\n      add\n        /* \"#utility.yul\":6566:6592   */\n      swap1\n      pop\n        /* \"#utility.yul\":6638:6647   */\n      dup2\n        /* \"#utility.yul\":6632:6636   */\n      dup2\n        /* \"#utility.yul\":6628:6648   */\n      sub\n        /* \"#utility.yul\":6624:6625   */\n      0x00\n        /* \"#utility.yul\":6613:6622   */\n      dup4\n        /* \"#utility.yul\":6609:6626   */\n      add\n        /* \"#utility.yul\":6602:6649   */\n      mstore\n        /* \"#utility.yul\":6666:6797   */\n      tag_485\n        /* \"#utility.yul\":6792:6796   */\n      dup2\n        /* \"#utility.yul\":6666:6797   */\n      tag_395\n      jump\t// in\n    tag_485:\n        /* \"#utility.yul\":6658:6797   */\n      swap1\n      pop\n        /* \"#utility.yul\":6385:6804   */\n      swap2\n      swap1\n      pop\n      jump\t// out\n        /* \"#utility.yul\":6810:7118   */\n    tag_178:\n        /* \"#utility.yul\":6919:6923   */\n      0x00\n        /* \"#utility.yul\":6957:6959   */\n      0x40\n        /* \"#utility.yul\":6946:6955   */\n      dup3\n        /* \"#utility.yul\":6942:6960   */\n      add\n        /* \"#utility.yul\":6934:6960   */\n      swap1\n      pop\n        /* \"#utility.yul\":6970:7035   */\n      tag_487\n        /* \"#utility.yul\":7032:7033   */\n      0x00\n        /* \"#utility.yul\":7021:7030   */\n      dup4\n        /* \"#utility.yul\":7017:7034   */\n      add\n        /* \"#utility.yul\":7008:7014   */\n      dup6\n        /* \"#utility.yul\":6970:7035   */\n      tag_384\n      jump\t// in\n    tag_487:\n        /* \"#utility.yul\":7045:7111   */\n      tag_488\n        /* \"#utility.yul\":7107:7109   */\n      0x20\n        /* \"#utility.yul\":7096:7105   */\n      dup4\n        /* \"#utility.yul\":7092:7110   */\n      add\n        /* \"#utility.yul\":7083:7089   */\n      dup5\n        /* \"#utility.yul\":7045:7111   */\n      tag_384\n      jump\t// in\n    tag_488:\n        /* \"#utility.yul\":6810:7118   */\n      swap4\n      swap3\n      pop\n      pop\n      pop\n      jump\t// out\n        /* \"#utility.yul\":7124:7305   */\n    tag_396:\n        /* \"#utility.yul\":7264:7297   */\n      0x5265656e7472616e637947756172643a207265656e7472616e742063616c6c00\n        /* \"#utility.yul\":7260:7261   */\n      0x00\n        /* \"#utility.yul\":7252:7258   */\n      dup3\n        /* \"#utility.yul\":7248:7262   */\n      add\n        /* \"#utility.yul\":7241:7298   */\n      mstore\n        /* \"#utility.yul\":7124:7305   */\n      pop\n      jump\t// out\n        /* \"#utility.yul\":7311:7677   */\n    tag_397:\n        /* \"#utility.yul\":7453:7456   */\n      0x00\n        /* \"#utility.yul\":7474:7541   */\n      tag_491\n        /* \"#utility.yul\":7538:7540   */\n      0x1f\n        /* \"#utility.yul\":7533:7536   */\n      dup4\n        /* \"#utility.yul\":7474:7541   */\n      tag_393\n      jump\t// in\n    tag_491:\n        /* \"#utility.yul\":7467:7541   */\n      swap2\n      pop\n        /* \"#utility.yul\":7550:7643   */\n      tag_492\n        /* \"#utility.yul\":7639:7642   */\n      dup3\n        /* \"#utility.yul\":7550:7643   */\n      tag_396\n      jump\t// in\n    tag_492:\n        /* \"#utility.yul\":7668:7670   */\n      0x20\n        /* \"#utility.yul\":7663:7666   */\n      dup3\n        /* \"#utility.yul\":7659:7671   */\n      add\n        /* \"#utility.yul\":7652:7671   */\n      swap1\n      pop\n        /* \"#utility.yul\":7311:7677   */\n      swap2\n      swap1\n      pop\n      jump\t// out\n        /* \"#utility.yul\":7683:8102   */\n    tag_183:\n        /* \"#utility.yul\":7849:7853   */\n      0x00\n        /* \"#utility.yul\":7887:7889   */\n      0x20\n        /* \"#utility.yul\":7876:7885   */\n      dup3\n        /* \"#utility.yul\":7872:7890   */\n      add\n        /* \"#utility.yul\":7864:7890   */\n      swap1\n      pop\n        /* \"#utility.yul\":7936:7945   */\n      dup2\n        /* \"#utility.yul\":7930:7934   */\n      dup2\n        /* \"#utility.yul\":7926:7946   */\n      sub\n        /* \"#utility.yul\":7922:7923   */\n      0x00\n        /* \"#utility.yul\":7911:7920   */\n      dup4\n        /* \"#utility.yul\":7907:7924   */\n      add\n        /* \"#utility.yul\":7900:7947   */\n      mstore\n        /* \"#utility.yul\":7964:8095   */\n      tag_494\n        /* \"#utility.yul\":8090:8094   */\n      dup2\n        /* \"#utility.yul\":7964:8095   */\n      tag_397\n      jump\t// in\n    tag_494:\n        /* \"#utility.yul\":7956:8095   */\n      swap1\n      pop\n        /* \"#utility.yul\":7683:8102   */\n      swap2\n      swap1\n      pop\n      jump\t// out\n        /* \"#utility.yul\":8108:8440   */\n    tag_194:\n        /* \"#utility.yul\":8229:8233   */\n      0x00\n        /* \"#utility.yul\":8267:8269   */\n      0x40\n        /* \"#utility.yul\":8256:8265   */\n      dup3\n        /* \"#utility.yul\":8252:8270   */\n      add\n        /* \"#utility.yul\":8244:8270   */\n      swap1\n      pop\n        /* \"#utility.yul\":8280:8351   */\n      tag_496\n        /* \"#utility.yul\":8348:8349   */\n      0x00\n        /* \"#utility.yul\":8337:8346   */\n      dup4\n        /* \"#utility.yul\":8333:8350   */\n      add\n        /* \"#utility.yul\":8324:8330   */\n      dup6\n        /* \"#utility.yul\":8280:8351   */\n      tag_387\n      jump\t// in\n    tag_496:\n        /* \"#utility.yul\":8361:8433   */\n      tag_497\n        /* \"#utility.yul\":8429:8431   */\n      0x20\n        /* \"#utility.yul\":8418:8427   */\n      dup4\n        /* \"#utility.yul\":8414:8432   */\n      add\n        /* \"#utility.yul\":8405:8411   */\n      dup5\n        /* \"#utility.yul\":8361:8433   */\n      tag_380\n      jump\t// in\n    tag_497:\n        /* \"#utility.yul\":8108:8440   */\n      swap4\n      swap3\n      pop\n      pop\n      pop\n      jump\t// out\n        /* \"#utility.yul\":8446:8583   */\n    tag_398:\n        /* \"#utility.yul\":8500:8505   */\n      0x00\n        /* \"#utility.yul\":8531:8537   */\n      dup2\n        /* \"#utility.yul\":8525:8538   */\n      mload\n        /* \"#utility.yul\":8516:8538   */\n      swap1\n      pop\n        /* \"#utility.yul\":8547:8577   */\n      tag_499\n        /* \"#utility.yul\":8571:8576   */\n      dup2\n        /* \"#utility.yul\":8547:8577   */\n      tag_382\n      jump\t// in\n    tag_499:\n        /* \"#utility.yul\":8446:8583   */\n      swap3\n      swap2\n      pop\n      pop\n      jump\t// out\n        /* \"#utility.yul\":8589:8934   */\n    tag_198:\n        /* \"#utility.yul\":8656:8662   */\n      0x00\n        /* \"#utility.yul\":8705:8707   */\n      0x20\n        /* \"#utility.yul\":8693:8702   */\n      dup3\n        /* \"#utility.yul\":8684:8691   */\n      dup5\n        /* \"#utility.yul\":8680:8703   */\n      sub\n        /* \"#utility.yul\":8676:8708   */\n      slt\n        /* \"#utility.yul\":8673:8792   */\n      iszero\n      tag_501\n      jumpi\n        /* \"#utility.yul\":8711:8790   */\n      tag_502\n      tag_373\n      jump\t// in\n    tag_502:\n        /* \"#utility.yul\":8673:8792   */\n    tag_501:\n        /* \"#utility.yul\":8831:8832   */\n      0x00\n        /* \"#utility.yul\":8856:8917   */\n      tag_503\n        /* \"#utility.yul\":8909:8916   */\n      dup5\n        /* \"#utility.yul\":8900:8906   */\n      dup3\n        /* \"#utility.yul\":8889:8898   */\n      dup6\n        /* \"#utility.yul\":8885:8907   */\n      add\n        /* \"#utility.yul\":8856:8917   */\n      tag_398\n      jump\t// in\n    tag_503:\n        /* \"#utility.yul\":8846:8917   */\n      swap2\n      pop\n        /* \"#utility.yul\":8802:8927   */\n      pop\n        /* \"#utility.yul\":8589:8934   */\n      swap3\n      swap2\n      pop\n      pop\n      jump\t// out\n        /* \"#utility.yul\":8940:9161   */\n    tag_399:\n        /* \"#utility.yul\":9080:9114   */\n      0x41646d696e61626c653a2063616c6c6572206973206e6f74207468652061646d\n        /* \"#utility.yul\":9076:9077   */\n      0x00\n        /* \"#utility.yul\":9068:9074   */\n      dup3\n        /* \"#utility.yul\":9064:9078   */\n      add\n        /* \"#utility.yul\":9057:9115   */\n      mstore\n        /* \"#utility.yul\":9149:9153   */\n      0x696e000000000000000000000000000000000000000000000000000000000000\n        /* \"#utility.yul\":9144:9146   */\n      0x20\n        /* \"#utility.yul\":9136:9142   */\n      dup3\n        /* \"#utility.yul\":9132:9147   */\n      add\n        /* \"#utility.yul\":9125:9154   */\n      mstore\n        /* \"#utility.yul\":8940:9161   */\n      pop\n      jump\t// out\n        /* \"#utility.yul\":9167:9533   */\n    tag_400:\n        /* \"#utility.yul\":9309:9312   */\n      0x00\n        /* \"#utility.yul\":9330:9397   */\n      tag_506\n        /* \"#utility.yul\":9394:9396   */\n      0x22\n        /* \"#utility.yul\":9389:9392   */\n      dup4\n        /* \"#utility.yul\":9330:9397   */\n      tag_393\n      jump\t// in\n    tag_506:\n        /* \"#utility.yul\":9323:9397   */\n      swap2\n      pop\n        /* \"#utility.yul\":9406:9499   */\n      tag_507\n        /* \"#utility.yul\":9495:9498   */\n      dup3\n        /* \"#utility.yul\":9406:9499   */\n      tag_399\n      jump\t// in\n    tag_507:\n        /* \"#utility.yul\":9524:9526   */\n      0x40\n        /* \"#utility.yul\":9519:9522   */\n      dup3\n        /* \"#utility.yul\":9515:9527   */\n      add\n        /* \"#utility.yul\":9508:9527   */\n      swap1\n      pop\n        /* \"#utility.yul\":9167:9533   */\n      swap2\n      swap1\n      pop\n      jump\t// out\n        /* \"#utility.yul\":9539:9958   */\n    tag_205:\n        /* \"#utility.yul\":9705:9709   */\n      0x00\n        /* \"#utility.yul\":9743:9745   */\n      0x20\n        /* \"#utility.yul\":9732:9741   */\n      dup3\n        /* \"#utility.yul\":9728:9746   */\n      add\n        /* \"#utility.yul\":9720:9746   */\n      swap1\n      pop\n        /* \"#utility.yul\":9792:9801   */\n      dup2\n        /* \"#utility.yul\":9786:9790   */\n      dup2\n        /* \"#utility.yul\":9782:9802   */\n      sub\n        /* \"#utility.yul\":9778:9779   */\n      0x00\n        /* \"#utility.yul\":9767:9776   */\n      dup4\n        /* \"#utility.yul\":9763:9780   */\n      add\n        /* \"#utility.yul\":9756:9803   */\n      mstore\n        /* \"#utility.yul\":9820:9951   */\n      tag_509\n        /* \"#utility.yul\":9946:9950   */\n      dup2\n        /* \"#utility.yul\":9820:9951   */\n      tag_400\n      jump\t// in\n    tag_509:\n        /* \"#utility.yul\":9812:9951   */\n      swap1\n      pop\n        /* \"#utility.yul\":9539:9958   */\n      swap2\n      swap1\n      pop\n      jump\t// out\n        /* \"#utility.yul\":9964:10144   */\n    tag_401:\n        /* \"#utility.yul\":10012:10089   */\n      0x4e487b7100000000000000000000000000000000000000000000000000000000\n        /* \"#utility.yul\":10009:10010   */\n      0x00\n        /* \"#utility.yul\":10002:10090   */\n      mstore\n        /* \"#utility.yul\":10109:10113   */\n      0x11\n        /* \"#utility.yul\":10106:10107   */\n      0x04\n        /* \"#utility.yul\":10099:10114   */\n      mstore\n        /* \"#utility.yul\":10133:10137   */\n      0x24\n        /* \"#utility.yul\":10130:10131   */\n      0x00\n        /* \"#utility.yul\":10123:10138   */\n      revert\n        /* \"#utility.yul\":10150:10344   */\n    tag_210:\n        /* \"#utility.yul\":10190:10194   */\n      0x00\n        /* \"#utility.yul\":10210:10230   */\n      tag_512\n        /* \"#utility.yul\":10228:10229   */\n      dup3\n        /* \"#utility.yul\":10210:10230   */\n      tag_379\n      jump\t// in\n    tag_512:\n        /* \"#utility.yul\":10205:10230   */\n      swap2\n      pop\n        /* \"#utility.yul\":10244:10264   */\n      tag_513\n        /* \"#utility.yul\":10262:10263   */\n      dup4\n        /* \"#utility.yul\":10244:10264   */\n      tag_379\n      jump\t// in\n    tag_513:\n        /* \"#utility.yul\":10239:10264   */\n      swap3\n      pop\n        /* \"#utility.yul\":10288:10289   */\n      dup3\n        /* \"#utility.yul\":10285:10286   */\n      dup3\n        /* \"#utility.yul\":10281:10290   */\n      sub\n        /* \"#utility.yul\":10273:10290   */\n      swap1\n      pop\n        /* \"#utility.yul\":10312:10313   */\n      dup2\n        /* \"#utility.yul\":10306:10310   */\n      dup2\n        /* \"#utility.yul\":10303:10314   */\n      gt\n        /* \"#utility.yul\":10300:10337   */\n      iszero\n      tag_514\n      jumpi\n        /* \"#utility.yul\":10317:10335   */\n      tag_515\n      tag_401\n      jump\t// in\n    tag_515:\n        /* \"#utility.yul\":10300:10337   */\n    tag_514:\n        /* \"#utility.yul\":10150:10344   */\n      swap3\n      swap2\n      pop\n      pop\n      jump\t// out\n        /* \"#utility.yul\":10350:10530   */\n    tag_402:\n        /* \"#utility.yul\":10398:10475   */\n      0x4e487b7100000000000000000000000000000000000000000000000000000000\n        /* \"#utility.yul\":10395:10396   */\n      0x00\n        /* \"#utility.yul\":10388:10476   */\n      mstore\n        /* \"#utility.yul\":10495:10499   */\n      0x12\n        /* \"#utility.yul\":10492:10493   */\n      0x04\n        /* \"#utility.yul\":10485:10500   */\n      mstore\n        /* \"#utility.yul\":10519:10523   */\n      0x24\n        /* \"#utility.yul\":10516:10517   */\n      0x00\n        /* \"#utility.yul\":10509:10524   */\n      revert\n        /* \"#utility.yul\":10536:10721   */\n    tag_212:\n        /* \"#utility.yul\":10576:10577   */\n      0x00\n        /* \"#utility.yul\":10593:10613   */\n      tag_518\n        /* \"#utility.yul\":10611:10612   */\n      dup3\n        /* \"#utility.yul\":10593:10613   */\n      tag_379\n      jump\t// in\n    tag_518:\n        /* \"#utility.yul\":10588:10613   */\n      swap2\n      pop\n        /* \"#utility.yul\":10627:10647   */\n      tag_519\n        /* \"#utility.yul\":10645:10646   */\n      dup4\n        /* \"#utility.yul\":10627:10647   */\n      tag_379\n      jump\t// in\n    tag_519:\n        /* \"#utility.yul\":10622:10647   */\n      swap3\n      pop\n        /* \"#utility.yul\":10666:10667   */\n      dup3\n        /* \"#utility.yul\":10656:10691   */\n      tag_520\n      jumpi\n        /* \"#utility.yul\":10671:10689   */\n      tag_521\n      tag_402\n      jump\t// in\n    tag_521:\n        /* \"#utility.yul\":10656:10691   */\n    tag_520:\n        /* \"#utility.yul\":10713:10714   */\n      dup3\n        /* \"#utility.yul\":10710:10711   */\n      dup3\n        /* \"#utility.yul\":10706:10715   */\n      div\n        /* \"#utility.yul\":10701:10715   */\n      swap1\n      pop\n        /* \"#utility.yul\":10536:10721   */\n      swap3\n      swap2\n      pop\n      pop\n      jump\t// out\n        /* \"#utility.yul\":10727:10918   */\n    tag_214:\n        /* \"#utility.yul\":10767:10770   */\n      0x00\n        /* \"#utility.yul\":10786:10806   */\n      tag_523\n        /* \"#utility.yul\":10804:10805   */\n      dup3\n        /* \"#utility.yul\":10786:10806   */\n      tag_379\n      jump\t// in\n    tag_523:\n        /* \"#utility.yul\":10781:10806   */\n      swap2\n      pop\n        /* \"#utility.yul\":10820:10840   */\n      tag_524\n        /* \"#utility.yul\":10838:10839   */\n      dup4\n        /* \"#utility.yul\":10820:10840   */\n      tag_379\n      jump\t// in\n    tag_524:\n        /* \"#utility.yul\":10815:10840   */\n      swap3\n      pop\n        /* \"#utility.yul\":10863:10864   */\n      dup3\n        /* \"#utility.yul\":10860:10861   */\n      dup3\n        /* \"#utility.yul\":10856:10865   */\n      add\n        /* \"#utility.yul\":10849:10865   */\n      swap1\n      pop\n        /* \"#utility.yul\":10884:10887   */\n      dup1\n        /* \"#utility.yul\":10881:10882   */\n      dup3\n        /* \"#utility.yul\":10878:10888   */\n      gt\n        /* \"#utility.yul\":10875:10911   */\n      iszero\n      tag_525\n      jumpi\n        /* \"#utility.yul\":10891:10909   */\n      tag_526\n      tag_401\n      jump\t// in\n    tag_526:\n        /* \"#utility.yul\":10875:10911   */\n    tag_525:\n        /* \"#utility.yul\":10727:10918   */\n      swap3\n      swap2\n      pop\n      pop\n      jump\t// out\n        /* \"#utility.yul\":10924:11334   */\n    tag_219:\n        /* \"#utility.yul\":10964:10971   */\n      0x00\n        /* \"#utility.yul\":10987:11007   */\n      tag_528\n        /* \"#utility.yul\":11005:11006   */\n      dup3\n        /* \"#utility.yul\":10987:11007   */\n      tag_379\n      jump\t// in\n    tag_528:\n        /* \"#utility.yul\":10982:11007   */\n      swap2\n      pop\n        /* \"#utility.yul\":11021:11041   */\n      tag_529\n        /* \"#utility.yul\":11039:11040   */\n      dup4\n        /* \"#utility.yul\":11021:11041   */\n      tag_379\n      jump\t// in\n    tag_529:\n        /* \"#utility.yul\":11016:11041   */\n      swap3\n      pop\n        /* \"#utility.yul\":11076:11077   */\n      dup3\n        /* \"#utility.yul\":11073:11074   */\n      dup3\n        /* \"#utility.yul\":11069:11078   */\n      mul\n        /* \"#utility.yul\":11098:11128   */\n      tag_530\n        /* \"#utility.yul\":11116:11127   */\n      dup2\n        /* \"#utility.yul\":11098:11128   */\n      tag_379\n      jump\t// in\n    tag_530:\n        /* \"#utility.yul\":11087:11128   */\n      swap2\n      pop\n        /* \"#utility.yul\":11277:11278   */\n      dup3\n        /* \"#utility.yul\":11268:11275   */\n      dup3\n        /* \"#utility.yul\":11264:11279   */\n      div\n        /* \"#utility.yul\":11261:11262   */\n      dup5\n        /* \"#utility.yul\":11258:11280   */\n      eq\n        /* \"#utility.yul\":11238:11239   */\n      dup4\n        /* \"#utility.yul\":11231:11240   */\n      iszero\n        /* \"#utility.yul\":11211:11294   */\n      or\n        /* \"#utility.yul\":11188:11327   */\n      tag_531\n      jumpi\n        /* \"#utility.yul\":11307:11325   */\n      tag_532\n      tag_401\n      jump\t// in\n    tag_532:\n        /* \"#utility.yul\":11188:11327   */\n    tag_531:\n        /* \"#utility.yul\":10972:11334   */\n      pop\n        /* \"#utility.yul\":10924:11334   */\n      swap3\n      swap2\n      pop\n      pop\n      jump\t// out\n        /* \"#utility.yul\":11340:11573   */\n    tag_223:\n        /* \"#utility.yul\":11379:11382   */\n      0x00\n        /* \"#utility.yul\":11402:11426   */\n      tag_534\n        /* \"#utility.yul\":11420:11425   */\n      dup3\n        /* \"#utility.yul\":11402:11426   */\n      tag_379\n      jump\t// in\n    tag_534:\n        /* \"#utility.yul\":11393:11426   */\n      swap2\n      pop\n        /* \"#utility.yul\":11448:11514   */\n      0xffffffffffffffffffffffffffffffffffffffffffffffffffffffffffffffff\n        /* \"#utility.yul\":11441:11446   */\n      dup3\n        /* \"#utility.yul\":11438:11515   */\n      sub\n        /* \"#utility.yul\":11435:11538   */\n      tag_535\n      jumpi\n        /* \"#utility.yul\":11518:11536   */\n      tag_536\n      tag_401\n      jump\t// in\n    tag_536:\n        /* \"#utility.yul\":11435:11538   */\n    tag_535:\n        /* \"#utility.yul\":11565:11566   */\n      0x01\n        /* \"#utility.yul\":11558:11563   */\n      dup3\n        /* \"#utility.yul\":11554:11567   */\n      add\n        /* \"#utility.yul\":11547:11567   */\n      swap1\n      pop\n        /* \"#utility.yul\":11340:11573   */\n      swap2\n      swap1\n      pop\n      jump\t// out\n        /* \"#utility.yul\":11579:11743   */\n    tag_403:\n        /* \"#utility.yul\":11719:11735   */\n      0x43616e6e6f74207374616b652030000000000000000000000000000000000000\n        /* \"#utility.yul\":11715:11716   */\n      0x00\n        /* \"#utility.yul\":11707:11713   */\n      dup3\n        /* \"#utility.yul\":11703:11717   */\n      add\n        /* \"#utility.yul\":11696:11736   */\n      mstore\n        /* \"#utility.yul\":11579:11743   */\n      pop\n      jump\t// out\n        /* \"#utility.yul\":11749:12115   */\n    tag_404:\n        /* \"#utility.yul\":11891:11894   */\n      0x00\n        /* \"#utility.yul\":11912:11979   */\n      tag_539\n        /* \"#utility.yul\":11976:11978   */\n      0x0e\n        /* \"#utility.yul\":11971:11974   */\n      dup4\n        /* \"#utility.yul\":11912:11979   */\n      tag_393\n      jump\t// in\n    tag_539:\n        /* \"#utility.yul\":11905:11979   */\n      swap2\n      pop\n        /* \"#utility.yul\":11988:12081   */\n      tag_540\n        /* \"#utility.yul\":12077:12080   */\n      dup3\n        /* \"#utility.yul\":11988:12081   */\n      tag_403\n      jump\t// in\n    tag_540:\n        /* \"#utility.yul\":12106:12108   */\n      0x20\n        /* \"#utility.yul\":12101:12104   */\n      dup3\n        /* \"#utility.yul\":12097:12109   */\n      add\n        /* \"#utility.yul\":12090:12109   */\n      swap1\n      pop\n        /* \"#utility.yul\":11749:12115   */\n      swap2\n      swap1\n      pop\n      jump\t// out\n        /* \"#utility.yul\":12121:12540   */\n    tag_294:\n        /* \"#utility.yul\":12287:12291   */\n      0x00\n        /* \"#utility.yul\":12325:12327   */\n      0x20\n        /* \"#utility.yul\":12314:12323   */\n      dup3\n        /* \"#utility.yul\":12310:12328   */\n      add\n        /* \"#utility.yul\":12302:12328   */\n      swap1\n      pop\n        /* \"#utility.yul\":12374:12383   */\n      dup2\n        /* \"#utility.yul\":12368:12372   */\n      dup2\n        /* \"#utility.yul\":12364:12384   */\n      sub\n        /* \"#utility.yul\":12360:12361   */\n      0x00\n        /* \"#utility.yul\":12349:12358   */\n      dup4\n        /* \"#utility.yul\":12345:12362   */\n      add\n        /* \"#utility.yul\":12338:12385   */\n      mstore\n        /* \"#utility.yul\":12402:12533   */\n      tag_542\n        /* \"#utility.yul\":12528:12532   */\n      dup2\n        /* \"#utility.yul\":12402:12533   */\n      tag_404\n      jump\t// in\n    tag_542:\n        /* \"#utility.yul\":12394:12533   */\n      swap1\n      pop\n        /* \"#utility.yul\":12121:12540   */\n      swap2\n      swap1\n      pop\n      jump\t// out\n        /* \"#utility.yul\":12546:12722   */\n    tag_309:\n        /* \"#utility.yul\":12578:12579   */\n      0x00\n        /* \"#utility.yul\":12595:12615   */\n      tag_544\n        /* \"#utility.yul\":12613:12614   */\n      dup3\n        /* \"#utility.yul\":12595:12615   */\n      tag_379\n      jump\t// in\n    tag_544:\n        /* \"#utility.yul\":12590:12615   */\n      swap2\n      pop\n        /* \"#utility.yul\":12629:12649   */\n      tag_545\n        /* \"#utility.yul\":12647:12648   */\n      dup4\n        /* \"#utility.yul\":12629:12649   */\n      tag_379\n      jump\t// in\n    tag_545:\n        /* \"#utility.yul\":12624:12649   */\n      swap3\n      pop\n        /* \"#utility.yul\":12668:12669   */\n      dup3\n        /* \"#utility.yul\":12658:12693   */\n      tag_546\n      jumpi\n        /* \"#utility.yul\":12673:12691   */\n      tag_547\n      tag_402\n      jump\t// in\n    tag_547:\n        /* \"#utility.yul\":12658:12693   */\n    tag_546:\n        /* \"#utility.yul\":12714:12715   */\n      dup3\n        /* \"#utility.yul\":12711:12712   */\n      dup3\n        /* \"#utility.yul\":12707:12716   */\n      mod\n        /* \"#utility.yul\":12702:12716   */\n      swap1\n      pop\n        /* \"#utility.yul\":12546:12722   */\n      swap3\n      swap2\n      pop\n      pop\n      jump\t// out\n        /* \"#utility.yul\":12728:12953   */\n    tag_405:\n        /* \"#utility.yul\":12868:12902   */\n      0x4f776e61626c653a206e6577206f776e657220697320746865207a65726f2061\n        /* \"#utility.yul\":12864:12865   */\n      0x00\n        /* \"#utility.yul\":12856:12862   */\n      dup3\n        /* \"#utility.yul\":12852:12866   */\n      add\n        /* \"#utility.yul\":12845:12903   */\n      mstore\n        /* \"#utility.yul\":12937:12945   */\n      0x6464726573730000000000000000000000000000000000000000000000000000\n        /* \"#utility.yul\":12932:12934   */\n      0x20\n        /* \"#utility.yul\":12924:12930   */\n      dup3\n        /* \"#utility.yul\":12920:12935   */\n      add\n        /* \"#utility.yul\":12913:12946   */\n      mstore\n        /* \"#utility.yul\":12728:12953   */\n      pop\n      jump\t// out\n        /* \"#utility.yul\":12959:13325   */\n    tag_406:\n        /* \"#utility.yul\":13101:13104   */\n      0x00\n        /* \"#utility.yul\":13122:13189   */\n      tag_550\n        /* \"#utility.yul\":13186:13188   */\n      0x26\n        /* \"#utility.yul\":13181:13184   */\n      dup4\n        /* \"#utility.yul\":13122:13189   */\n      tag_393\n      jump\t// in\n    tag_550:\n        /* \"#utility.yul\":13115:13189   */\n      swap2\n      pop\n        /* \"#utility.yul\":13198:13291   */\n      tag_551\n        /* \"#utility.yul\":13287:13290   */\n      dup3\n        /* \"#utility.yul\":13198:13291   */\n      tag_405\n      jump\t// in\n    tag_551:\n        /* \"#utility.yul\":13316:13318   */\n      0x40\n        /* \"#utility.yul\":13311:13314   */\n      dup3\n        /* \"#utility.yul\":13307:13319   */\n      add\n        /* \"#utility.yul\":13300:13319   */\n      swap1\n      pop\n        /* \"#utility.yul\":12959:13325   */\n      swap2\n      swap1\n      pop\n      jump\t// out\n        /* \"#utility.yul\":13331:13750   */\n    tag_357:\n        /* \"#utility.yul\":13497:13501   */\n      0x00\n        /* \"#utility.yul\":13535:13537   */\n      0x20\n        /* \"#utility.yul\":13524:13533   */\n      dup3\n        /* \"#utility.yul\":13520:13538   */\n      add\n        /* \"#utility.yul\":13512:13538   */\n      swap1\n      pop\n        /* \"#utility.yul\":13584:13593   */\n      dup2\n        /* \"#utility.yul\":13578:13582   */\n      dup2\n        /* \"#utility.yul\":13574:13594   */\n      sub\n        /* \"#utility.yul\":13570:13571   */\n      0x00\n        /* \"#utility.yul\":13559:13568   */\n      dup4\n        /* \"#utility.yul\":13555:13572   */\n      add\n        /* \"#utility.yul\":13548:13595   */\n      mstore\n        /* \"#utility.yul\":13612:13743   */\n      tag_553\n        /* \"#utility.yul\":13738:13742   */\n      dup2\n        /* \"#utility.yul\":13612:13743   */\n      tag_406\n      jump\t// in\n    tag_553:\n        /* \"#utility.yul\":13604:13743   */\n      swap1\n      pop\n        /* \"#utility.yul\":13331:13750   */\n      swap2\n      swap1\n      pop\n      jump\t// out\n\n    auxdata: 0xa2646970667358221220f1e30a9344357949a61ad4dbb9b5455e72ac79e8d72208c3a55b8214e2fd706464736f6c63430008110033\n}\n",
				"bytecode": {
					"linkReferences": {},
					"object": "60806040526923934c5a09da1900000060055561025860075560056008556103e860095534801561002f57600080fd5b5061004c61004161005960201b60201c565b61006160201b60201c565b6001600281905550610127565b600033905090565b6000600160009054906101000a900473ffffffffffffffffffffffffffffffffffffffff16905081600160006101000a81548173ffffffffffffffffffffffffffffffffffffffff021916908373ffffffffffffffffffffffffffffffffffffffff1602179055508173ffffffffffffffffffffffffffffffffffffffff168173ffffffffffffffffffffffffffffffffffffffff167f8be0079c531659141344cd1fd0a4f28419497f9722a3daafe3b4186f6b6457e060405160405180910390a35050565b61230d80620001376000396000f3fe608060405234801561001057600080fd5b50600436106101fa5760003560e01c80638107368b1161011a578063adc9772e116100ad578063d1af0c7d1161007c578063d1af0c7d146105b7578063da4f8431146105d5578063db2e21bc14610605578063df136d651461060f578063f2fde38b1461062d576101fa565b8063adc9772e1461052f578063b79ec8121461054b578063c8f33c911461057b578063cdda56e014610599576101fa565b80638da5cb5b116100e95780638da5cb5b146104b95780639499c549146104d75780639a5b17b0146104f5578063a4c3b09114610513576101fa565b80638107368b1461040d578063874c120b1461043d5780638aee81271461046d5780638b87634714610489576101fa565b80634dbdc4eb11610192578063715018a611610161578063715018a6146103a957806378e97925146103b35780637a6fcee7146103d157806380faa57d146103ef576101fa565b80634dbdc4eb1461030d5780635cfa91f41461033d5780636139d4b41461036d5780636917c5011461038b576101fa565b806324d7806c116101ce57806324d7806c146102995780633c4045cf146102c95780633d18b912146102e75780633e0a322d146102f1576101fa565b80628cc262146101ff5780630700037d1461022f5780630e15561a1461025f57806318e20ecf1461027d575b600080fd5b61021960048036038101906102149190611b72565b610649565b6040516102269190611bb8565b60405180910390f35b61024960048036038101906102449190611b72565b6107b5565b6040516102569190611bb8565b60405180910390f35b6102676107cd565b6040516102749190611bb8565b60405180910390f35b61029760048036038101906102929190611c0b565b6107d3565b005b6102b360048036038101906102ae9190611b72565b610944565b6040516102c09190611c5a565b60405180910390f35b6102d1610999565b6040516102de9190611bb8565b60405180910390f35b6102ef61099f565b005b61030b60048036038101906103069190611ca1565b610d04565b005b61032760048036038101906103229190611ca1565b610d5d565b6040516103349190611bb8565b60405180910390f35b61035760048036038101906103529190611ca1565b610df4565b6040516103649190611bb8565b60405180910390f35b610375610ea5565b6040516103829190611bb8565b60405180910390f35b610393610eab565b6040516103a09190611bb8565b60405180910390f35b6103b1610eb5565b005b6103bb610f3d565b6040516103c89190611bb8565b60405180910390f35b6103d9610f43565b6040516103e69190611bb8565b60405180910390f35b6103f7610f49565b6040516104049190611bb8565b60405180910390f35b61042760048036038101906104229190611b72565b610f51565b6040516104349190611bb8565b60405180910390f35b61045760048036038101906104529190611ca1565b610f69565b6040516104649190611bb8565b60405180910390f35b61048760048036038101906104829190611b72565b610ff6565b005b6104a3600480360381019061049e9190611b72565b6110b6565b6040516104b09190611bb8565b60405180910390f35b6104c16110ce565b6040516104ce9190611cdd565b60405180910390f35b6104df6110f8565b6040516104ec9190611bb8565b60405180910390f35b6104fd611108565b60405161050a9190611bb8565b60405180910390f35b61052d60048036038101906105289190611cf8565b611110565b005b61054960048036038101906105449190611cf8565b61120f565b005b61056560048036038101906105609190611b72565b611583565b6040516105729190611bb8565b60405180910390f35b6105836115cc565b6040516105909190611bb8565b60405180910390f35b6105a16115d2565b6040516105ae9190611bb8565b60405180910390f35b6105bf6115e2565b6040516105cc9190611d97565b60405180910390f35b6105ef60048036038101906105ea9190611db2565b611608565b6040516105fc9190611bb8565b60405180910390f35b61060d6117ef565b005b6106176118bb565b6040516106249190611bb8565b60405180910390f35b61064760048036038101906106429190611b72565b6118c1565b005b600080610695600d60008573ffffffffffffffffffffffffffffffffffffffff1673ffffffffffffffffffffffffffffffffffffffff1681526020019081526020016000205442611608565b90506107ad600460008573ffffffffffffffffffffffffffffffffffffffff1673ffffffffffffffffffffffffffffffffffffffff1681526020019081526020016000205461079f670de0b6b3a7640000610791610743600c60008a73ffffffffffffffffffffffffffffffffffffffff1673ffffffffffffffffffffffffffffffffffffffff1681526020019081526020016000205461073588610f69565b6119b890919063ffffffff16565b600f60008a73ffffffffffffffffffffffffffffffffffffffff1673ffffffffffffffffffffffffffffffffffffffff168152602001908152602001600020546119ce90919063ffffffff16565b6119e490919063ffffffff16565b6119fa90919063ffffffff16565b915050919050565b60046020528060005260406000206000915090505481565b60055481565b6107db611a10565b73ffffffffffffffffffffffffffffffffffffffff166107f96110ce565b73ffffffffffffffffffffffffffffffffffffffff161461084f576040517f08c379a000000000000000000000000000000000000000000000000000000000815260040161084690611e75565b60405180910390fd5b8173ffffffffffffffffffffffffffffffffffffffff167f82f1fa40a3d82dea3e406073819290601f436580aa7c69f9feb61f885bdd88546000808573ffffffffffffffffffffffffffffffffffffffff1673ffffffffffffffffffffffffffffffffffffffff16815260200190815260200160002060009054906101000a900460ff16836040516108e2929190611e95565b60405180910390a2806000808473ffffffffffffffffffffffffffffffffffffffff1673ffffffffffffffffffffffffffffffffffffffff16815260200190815260200160002060006101000a81548160ff0219169083151502179055505050565b60008060008373ffffffffffffffffffffffffffffffffffffffff1673ffffffffffffffffffffffffffffffffffffffff16815260200190815260200160002060009054906101000a900460ff169050919050565b60085481565b60028054036109e3576040517f08c379a00000000000000000000000000000000000000000000000000000000081526004016109da90611f0a565b60405180910390fd5b60028081905550336000600d60008373ffffffffffffffffffffffffffffffffffffffff1673ffffffffffffffffffffffffffffffffffffffff1681526020019081526020016000205490506006548111610a3e5760065490505b6000610a4a8242611608565b9050610a5581610f69565b600b81905550610a63610f49565b600a81905550600073ffffffffffffffffffffffffffffffffffffffff168373ffffffffffffffffffffffffffffffffffffffff1614610b7457610aa683610649565b600460008573ffffffffffffffffffffffffffffffffffffffff1673ffffffffffffffffffffffffffffffffffffffff16815260200190815260200160002081905550600b54600c60008573ffffffffffffffffffffffffffffffffffffffff1673ffffffffffffffffffffffffffffffffffffffff1681526020019081526020016000208190555042600d60008573ffffffffffffffffffffffffffffffffffffffff1673ffffffffffffffffffffffffffffffffffffffff168152602001908152602001600020819055505b6000600460003373ffffffffffffffffffffffffffffffffffffffff1673ffffffffffffffffffffffffffffffffffffffff1681526020019081526020016000205490506000811115610cf6576000600460003373ffffffffffffffffffffffffffffffffffffffff1673ffffffffffffffffffffffffffffffffffffffff16815260200190815260200160002081905550600360009054906101000a900473ffffffffffffffffffffffffffffffffffffffff1673ffffffffffffffffffffffffffffffffffffffff1663a9059cbb33836040518363ffffffff1660e01b8152600401610c63929190611f2a565b6020604051808303816000875af1158015610c82573d6000803e3d6000fd5b505050506040513d601f19601f82011682018060405250810190610ca69190611f68565b503373ffffffffffffffffffffffffffffffffffffffff167fe2403640ba68fed3a2f88b7557551d1993f84b99bb10ff833f0cf8db0c5e048682604051610ced9190611bb8565b60405180910390a25b505050506001600281905550565b610d14610d0f611a10565b610944565b610d53576040517f08c379a0000000000000000000000000000000000000000000000000000000008152600401610d4a90612007565b60405180910390fd5b8060068190555050565b60008060065403610d72576006549050610def565b6000600160075460065485610d879190612056565b610d9191906120b9565b610d9b91906120ea565b90506000600554905060005b82811015610de85760095460085483610dc0919061211e565b610dca91906120b9565b82610dd59190612056565b915080610de190612160565b9050610da7565b5080925050505b919050565b60008060065403610e09576005549050610ea0565b6000600160075460065485610e1e9190612056565b610e2891906120b9565b610e3291906120ea565b90506000600554905060005b82811015610e7f5760095460085483610e57919061211e565b610e6191906120b9565b82610e6c9190612056565b915080610e7890612160565b9050610e3e565b5060095460085482610e91919061211e565b610e9b91906120b9565b925050505b919050565b60075481565b6000600e54905090565b610ebd611a10565b73ffffffffffffffffffffffffffffffffffffffff16610edb6110ce565b73ffffffffffffffffffffffffffffffffffffffff1614610f31576040517f08c379a0000000000000000000000000000000000000000000000000000000008152600401610f2890611e75565b60405180910390fd5b610f3b6000611a18565b565b60065481565b60095481565b600042905090565b600d6020528060005260406000206000915090505481565b600080600e5403610f7e57600b549050610ff1565b610fee610fdd600e54610fcf670de0b6b3a7640000610fc187610fb3600a54610fa5610f49565b6119b890919063ffffffff16565b6119ce90919063ffffffff16565b6119ce90919063ffffffff16565b6119e490919063ffffffff16565b600b546119fa90919063ffffffff16565b90505b919050565b610ffe611a10565b73ffffffffffffffffffffffffffffffffffffffff1661101c6110ce565b73ffffffffffffffffffffffffffffffffffffffff1614611072576040517f08c379a000000000000000000000000000000000000000000000000000000000815260040161106990611e75565b60405180910390fd5b80600360006101000a81548173ffffffffffffffffffffffffffffffffffffffff021916908373ffffffffffffffffffffffffffffffffffffffff16021790555050565b600c6020528060005260406000206000915090505481565b6000600160009054906101000a900473ffffffffffffffffffffffffffffffffffffffff16905090565b600061110342610df4565b905090565b600042905090565b611118611a10565b73ffffffffffffffffffffffffffffffffffffffff166111366110ce565b73ffffffffffffffffffffffffffffffffffffffff161461118c576040517f08c379a000000000000000000000000000000000000000000000000000000000815260040161118390611e75565b60405180910390fd5b8173ffffffffffffffffffffffffffffffffffffffff1663a9059cbb33836040518363ffffffff1660e01b81526004016111c7929190611f2a565b6020604051808303816000875af11580156111e6573d6000803e3d6000fd5b505050506040513d601f19601f8201168201806040525081019061120a9190611f68565b505050565b6002805403611253576040517f08c379a000000000000000000000000000000000000000000000000000000000815260040161124a90611f0a565b60405180910390fd5b6002808190555061126a611265611a10565b610944565b6112a9576040517f08c379a00000000000000000000000000000000000000000000000000000000081526004016112a090612007565b60405180910390fd5b816000600d60008373ffffffffffffffffffffffffffffffffffffffff1673ffffffffffffffffffffffffffffffffffffffff16815260200190815260200160002054905060065481116112fd5760065490505b60006113098242611608565b905061131481610f69565b600b81905550611322610f49565b600a81905550600073ffffffffffffffffffffffffffffffffffffffff168373ffffffffffffffffffffffffffffffffffffffff16146114335761136583610649565b600460008573ffffffffffffffffffffffffffffffffffffffff1673ffffffffffffffffffffffffffffffffffffffff16815260200190815260200160002081905550600b54600c60008573ffffffffffffffffffffffffffffffffffffffff1673ffffffffffffffffffffffffffffffffffffffff1681526020019081526020016000208190555042600d60008573ffffffffffffffffffffffffffffffffffffffff1673ffffffffffffffffffffffffffffffffffffffff168152602001908152602001600020819055505b60008411611476576040517f08c379a000000000000000000000000000000000000000000000000000000000815260040161146d906121f4565b60405180910390fd5b61148b84600e546119fa90919063ffffffff16565b600e819055506114e384600f60008873ffffffffffffffffffffffffffffffffffffffff1673ffffffffffffffffffffffffffffffffffffffff168152602001908152602001600020546119fa90919063ffffffff16565b600f60008773ffffffffffffffffffffffffffffffffffffffff1673ffffffffffffffffffffffffffffffffffffffff168152602001908152602001600020819055508473ffffffffffffffffffffffffffffffffffffffff167f9e71bc8eea02a63969f509818f2dafb9254532904319f9dbda79b67bd34a5f3d8560405161156c9190611bb8565b60405180910390a250505060016002819055505050565b6000600f60008373ffffffffffffffffffffffffffffffffffffffff1673ffffffffffffffffffffffffffffffffffffffff168152602001908152602001600020549050919050565b600a5481565b60006115dd42611ade565b905090565b600360009054906101000a900473ffffffffffffffffffffffffffffffffffffffff1681565b600080600654148061161a5750818310155b806116255750600083145b1561163357600090506117e9565b6006548310156116435760065492505b6000600754600754600654866116599190612056565b6116639190612214565b6007546116709190612056565b61167a9190612214565b905060006007548261168b87610df4565b611695919061211e565b61169f91906120b9565b90506000600754600654866116b49190612056565b6116be9190612214565b90506000600754826116cf88610df4565b6116d9919061211e565b6116e391906120b9565b90508584886116f291906120ea565b111561170c5761170187611ade565b9450505050506117e9565b60008488848961171c9190612056565b6117269190612056565b6117309190612056565b9050600061173d89610d5d565b9050600080600083905060006007548661175791906120b9565b905060005b818110156117ae5760095460085484611775919061211e565b61177f91906120b9565b9350838361178d9190612056565b9250838561179b91906120ea565b9450806117a790612160565b905061175c565b508c8c6117bb9190612056565b878a866117c891906120ea565b6117d291906120ea565b6117dc91906120b9565b9a50505050505050505050505b92915050565b6117f7611a10565b73ffffffffffffffffffffffffffffffffffffffff166118156110ce565b73ffffffffffffffffffffffffffffffffffffffff161461186b576040517f08c379a000000000000000000000000000000000000000000000000000000000815260040161186290611e75565b60405180910390fd5b6118736110ce565b73ffffffffffffffffffffffffffffffffffffffff166108fc479081150290604051600060405180830381858888f193505050501580156118b8573d6000803e3d6000fd5b50565b600b5481565b6118c9611a10565b73ffffffffffffffffffffffffffffffffffffffff166118e76110ce565b73ffffffffffffffffffffffffffffffffffffffff161461193d576040517f08c379a000000000000000000000000000000000000000000000000000000000815260040161193490611e75565b60405180910390fd5b600073ffffffffffffffffffffffffffffffffffffffff168173ffffffffffffffffffffffffffffffffffffffff16036119ac576040517f08c379a00000000000000000000000000000000000000000000000000000000081526004016119a3906122b7565b60405180910390fd5b6119b581611a18565b50565b600081836119c69190612056565b905092915050565b600081836119dc919061211e565b905092915050565b600081836119f291906120b9565b905092915050565b60008183611a0891906120ea565b905092915050565b600033905090565b6000600160009054906101000a900473ffffffffffffffffffffffffffffffffffffffff16905081600160006101000a81548173ffffffffffffffffffffffffffffffffffffffff021916908373ffffffffffffffffffffffffffffffffffffffff1602179055508173ffffffffffffffffffffffffffffffffffffffff168173ffffffffffffffffffffffffffffffffffffffff167f8be0079c531659141344cd1fd0a4f28419497f9722a3daafe3b4186f6b6457e060405160405180910390a35050565b600080611aea83610df4565b90506000611b03600754836119e490919063ffffffff16565b90508092505050919050565b600080fd5b600073ffffffffffffffffffffffffffffffffffffffff82169050919050565b6000611b3f82611b14565b9050919050565b611b4f81611b34565b8114611b5a57600080fd5b50565b600081359050611b6c81611b46565b92915050565b600060208284031215611b8857611b87611b0f565b5b6000611b9684828501611b5d565b91505092915050565b6000819050919050565b611bb281611b9f565b82525050565b6000602082019050611bcd6000830184611ba9565b92915050565b60008115159050919050565b611be881611bd3565b8114611bf357600080fd5b50565b600081359050611c0581611bdf565b92915050565b60008060408385031215611c2257611c21611b0f565b5b6000611c3085828601611b5d565b9250506020611c4185828601611bf6565b9150509250929050565b611c5481611bd3565b82525050565b6000602082019050611c6f6000830184611c4b565b92915050565b611c7e81611b9f565b8114611c8957600080fd5b50565b600081359050611c9b81611c75565b92915050565b600060208284031215611cb757611cb6611b0f565b5b6000611cc584828501611c8c565b91505092915050565b611cd781611b34565b82525050565b6000602082019050611cf26000830184611cce565b92915050565b60008060408385031215611d0f57611d0e611b0f565b5b6000611d1d85828601611b5d565b9250506020611d2e85828601611c8c565b9150509250929050565b6000819050919050565b6000611d5d611d58611d5384611b14565b611d38565b611b14565b9050919050565b6000611d6f82611d42565b9050919050565b6000611d8182611d64565b9050919050565b611d9181611d76565b82525050565b6000602082019050611dac6000830184611d88565b92915050565b60008060408385031215611dc957611dc8611b0f565b5b6000611dd785828601611c8c565b9250506020611de885828601611c8c565b9150509250929050565b600082825260208201905092915050565b7f41646d696e61626c653a2063616c6c6572206973206e6f7420746865206f776e60008201527f6572000000000000000000000000000000000000000000000000000000000000602082015250565b6000611e5f602283611df2565b9150611e6a82611e03565b604082019050919050565b60006020820190508181036000830152611e8e81611e52565b9050919050565b6000604082019050611eaa6000830185611c4b565b611eb76020830184611c4b565b9392505050565b7f5265656e7472616e637947756172643a207265656e7472616e742063616c6c00600082015250565b6000611ef4601f83611df2565b9150611eff82611ebe565b602082019050919050565b60006020820190508181036000830152611f2381611ee7565b9050919050565b6000604082019050611f3f6000830185611cce565b611f4c6020830184611ba9565b9392505050565b600081519050611f6281611bdf565b92915050565b600060208284031215611f7e57611f7d611b0f565b5b6000611f8c84828501611f53565b91505092915050565b7f41646d696e61626c653a2063616c6c6572206973206e6f74207468652061646d60008201527f696e000000000000000000000000000000000000000000000000000000000000602082015250565b6000611ff1602283611df2565b9150611ffc82611f95565b604082019050919050565b6000602082019050818103600083015261202081611fe4565b9050919050565b7f4e487b7100000000000000000000000000000000000000000000000000000000600052601160045260246000fd5b600061206182611b9f565b915061206c83611b9f565b925082820390508181111561208457612083612027565b5b92915050565b7f4e487b7100000000000000000000000000000000000000000000000000000000600052601260045260246000fd5b60006120c482611b9f565b91506120cf83611b9f565b9250826120df576120de61208a565b5b828204905092915050565b60006120f582611b9f565b915061210083611b9f565b925082820190508082111561211857612117612027565b5b92915050565b600061212982611b9f565b915061213483611b9f565b925082820261214281611b9f565b9150828204841483151761215957612158612027565b5b5092915050565b600061216b82611b9f565b91507fffffffffffffffffffffffffffffffffffffffffffffffffffffffffffffffff820361219d5761219c612027565b5b600182019050919050565b7f43616e6e6f74207374616b652030000000000000000000000000000000000000600082015250565b60006121de600e83611df2565b91506121e9826121a8565b602082019050919050565b6000602082019050818103600083015261220d816121d1565b9050919050565b600061221f82611b9f565b915061222a83611b9f565b92508261223a5761223961208a565b5b828206905092915050565b7f4f776e61626c653a206e6577206f776e657220697320746865207a65726f206160008201527f6464726573730000000000000000000000000000000000000000000000000000602082015250565b60006122a1602683611df2565b91506122ac82612245565b604082019050919050565b600060208201905081810360008301526122d081612294565b905091905056fea2646970667358221220f1e30a9344357949a61ad4dbb9b5455e72ac79e8d72208c3a55b8214e2fd706464736f6c63430008110033",
					"opcodes": "PUSH1 0x80 PUSH1 0x40 MSTORE PUSH10 0x23934C5A09DA19000000 PUSH1 0x5 SSTORE PUSH2 0x258 PUSH1 0x7 SSTORE PUSH1 0x5 PUSH1 0x8 SSTORE PUSH2 0x3E8 PUSH1 0x9 SSTORE CALLVALUE DUP1 ISZERO PUSH2 0x2F JUMPI PUSH1 0x0 DUP1 REVERT JUMPDEST POP PUSH2 0x4C PUSH2 0x41 PUSH2 0x59 PUSH1 0x20 SHL PUSH1 0x20 SHR JUMP JUMPDEST PUSH2 0x61 PUSH1 0x20 SHL PUSH1 0x20 SHR JUMP JUMPDEST PUSH1 0x1 PUSH1 0x2 DUP2 SWAP1 SSTORE POP PUSH2 0x127 JUMP JUMPDEST PUSH1 0x0 CALLER SWAP1 POP SWAP1 JUMP JUMPDEST PUSH1 0x0 PUSH1 0x1 PUSH1 0x0 SWAP1 SLOAD SWAP1 PUSH2 0x100 EXP SWAP1 DIV PUSH20 0xFFFFFFFFFFFFFFFFFFFFFFFFFFFFFFFFFFFFFFFF AND SWAP1 POP DUP2 PUSH1 0x1 PUSH1 0x0 PUSH2 0x100 EXP DUP2 SLOAD DUP2 PUSH20 0xFFFFFFFFFFFFFFFFFFFFFFFFFFFFFFFFFFFFFFFF MUL NOT AND SWAP1 DUP4 PUSH20 0xFFFFFFFFFFFFFFFFFFFFFFFFFFFFFFFFFFFFFFFF AND MUL OR SWAP1 SSTORE POP DUP2 PUSH20 0xFFFFFFFFFFFFFFFFFFFFFFFFFFFFFFFFFFFFFFFF AND DUP2 PUSH20 0xFFFFFFFFFFFFFFFFFFFFFFFFFFFFFFFFFFFFFFFF AND PUSH32 0x8BE0079C531659141344CD1FD0A4F28419497F9722A3DAAFE3B4186F6B6457E0 PUSH1 0x40 MLOAD PUSH1 0x40 MLOAD DUP1 SWAP2 SUB SWAP1 LOG3 POP POP JUMP JUMPDEST PUSH2 0x230D DUP1 PUSH3 0x137 PUSH1 0x0 CODECOPY PUSH1 0x0 RETURN INVALID PUSH1 0x80 PUSH1 0x40 MSTORE CALLVALUE DUP1 ISZERO PUSH2 0x10 JUMPI PUSH1 0x0 DUP1 REVERT JUMPDEST POP PUSH1 0x4 CALLDATASIZE LT PUSH2 0x1FA JUMPI PUSH1 0x0 CALLDATALOAD PUSH1 0xE0 SHR DUP1 PUSH4 0x8107368B GT PUSH2 0x11A JUMPI DUP1 PUSH4 0xADC9772E GT PUSH2 0xAD JUMPI DUP1 PUSH4 0xD1AF0C7D GT PUSH2 0x7C JUMPI DUP1 PUSH4 0xD1AF0C7D EQ PUSH2 0x5B7 JUMPI DUP1 PUSH4 0xDA4F8431 EQ PUSH2 0x5D5 JUMPI DUP1 PUSH4 0xDB2E21BC EQ PUSH2 0x605 JUMPI DUP1 PUSH4 0xDF136D65 EQ PUSH2 0x60F JUMPI DUP1 PUSH4 0xF2FDE38B EQ PUSH2 0x62D JUMPI PUSH2 0x1FA JUMP JUMPDEST DUP1 PUSH4 0xADC9772E EQ PUSH2 0x52F JUMPI DUP1 PUSH4 0xB79EC812 EQ PUSH2 0x54B JUMPI DUP1 PUSH4 0xC8F33C91 EQ PUSH2 0x57B JUMPI DUP1 PUSH4 0xCDDA56E0 EQ PUSH2 0x599 JUMPI PUSH2 0x1FA JUMP JUMPDEST DUP1 PUSH4 0x8DA5CB5B GT PUSH2 0xE9 JUMPI DUP1 PUSH4 0x8DA5CB5B EQ PUSH2 0x4B9 JUMPI DUP1 PUSH4 0x9499C549 EQ PUSH2 0x4D7 JUMPI DUP1 PUSH4 0x9A5B17B0 EQ PUSH2 0x4F5 JUMPI DUP1 PUSH4 0xA4C3B091 EQ PUSH2 0x513 JUMPI PUSH2 0x1FA JUMP JUMPDEST DUP1 PUSH4 0x8107368B EQ PUSH2 0x40D JUMPI DUP1 PUSH4 0x874C120B EQ PUSH2 0x43D JUMPI DUP1 PUSH4 0x8AEE8127 EQ PUSH2 0x46D JUMPI DUP1 PUSH4 0x8B876347 EQ PUSH2 0x489 JUMPI PUSH2 0x1FA JUMP JUMPDEST DUP1 PUSH4 0x4DBDC4EB GT PUSH2 0x192 JUMPI DUP1 PUSH4 0x715018A6 GT PUSH2 0x161 JUMPI DUP1 PUSH4 0x715018A6 EQ PUSH2 0x3A9 JUMPI DUP1 PUSH4 0x78E97925 EQ PUSH2 0x3B3 JUMPI DUP1 PUSH4 0x7A6FCEE7 EQ PUSH2 0x3D1 JUMPI DUP1 PUSH4 0x80FAA57D EQ PUSH2 0x3EF JUMPI PUSH2 0x1FA JUMP JUMPDEST DUP1 PUSH4 0x4DBDC4EB EQ PUSH2 0x30D JUMPI DUP1 PUSH4 0x5CFA91F4 EQ PUSH2 0x33D JUMPI DUP1 PUSH4 0x6139D4B4 EQ PUSH2 0x36D JUMPI DUP1 PUSH4 0x6917C501 EQ PUSH2 0x38B JUMPI PUSH2 0x1FA JUMP JUMPDEST DUP1 PUSH4 0x24D7806C GT PUSH2 0x1CE JUMPI DUP1 PUSH4 0x24D7806C EQ PUSH2 0x299 JUMPI DUP1 PUSH4 0x3C4045CF EQ PUSH2 0x2C9 JUMPI DUP1 PUSH4 0x3D18B912 EQ PUSH2 0x2E7 JUMPI DUP1 PUSH4 0x3E0A322D EQ PUSH2 0x2F1 JUMPI PUSH2 0x1FA JUMP JUMPDEST DUP1 PUSH3 0x8CC262 EQ PUSH2 0x1FF JUMPI DUP1 PUSH4 0x700037D EQ PUSH2 0x22F JUMPI DUP1 PUSH4 0xE15561A EQ PUSH2 0x25F JUMPI DUP1 PUSH4 0x18E20ECF EQ PUSH2 0x27D JUMPI JUMPDEST PUSH1 0x0 DUP1 REVERT JUMPDEST PUSH2 0x219 PUSH1 0x4 DUP1 CALLDATASIZE SUB DUP2 ADD SWAP1 PUSH2 0x214 SWAP2 SWAP1 PUSH2 0x1B72 JUMP JUMPDEST PUSH2 0x649 JUMP JUMPDEST PUSH1 0x40 MLOAD PUSH2 0x226 SWAP2 SWAP1 PUSH2 0x1BB8 JUMP JUMPDEST PUSH1 0x40 MLOAD DUP1 SWAP2 SUB SWAP1 RETURN JUMPDEST PUSH2 0x249 PUSH1 0x4 DUP1 CALLDATASIZE SUB DUP2 ADD SWAP1 PUSH2 0x244 SWAP2 SWAP1 PUSH2 0x1B72 JUMP JUMPDEST PUSH2 0x7B5 JUMP JUMPDEST PUSH1 0x40 MLOAD PUSH2 0x256 SWAP2 SWAP1 PUSH2 0x1BB8 JUMP JUMPDEST PUSH1 0x40 MLOAD DUP1 SWAP2 SUB SWAP1 RETURN JUMPDEST PUSH2 0x267 PUSH2 0x7CD JUMP JUMPDEST PUSH1 0x40 MLOAD PUSH2 0x274 SWAP2 SWAP1 PUSH2 0x1BB8 JUMP JUMPDEST PUSH1 0x40 MLOAD DUP1 SWAP2 SUB SWAP1 RETURN JUMPDEST PUSH2 0x297 PUSH1 0x4 DUP1 CALLDATASIZE SUB DUP2 ADD SWAP1 PUSH2 0x292 SWAP2 SWAP1 PUSH2 0x1C0B JUMP JUMPDEST PUSH2 0x7D3 JUMP JUMPDEST STOP JUMPDEST PUSH2 0x2B3 PUSH1 0x4 DUP1 CALLDATASIZE SUB DUP2 ADD SWAP1 PUSH2 0x2AE SWAP2 SWAP1 PUSH2 0x1B72 JUMP JUMPDEST PUSH2 0x944 JUMP JUMPDEST PUSH1 0x40 MLOAD PUSH2 0x2C0 SWAP2 SWAP1 PUSH2 0x1C5A JUMP JUMPDEST PUSH1 0x40 MLOAD DUP1 SWAP2 SUB SWAP1 RETURN JUMPDEST PUSH2 0x2D1 PUSH2 0x999 JUMP JUMPDEST PUSH1 0x40 MLOAD PUSH2 0x2DE SWAP2 SWAP1 PUSH2 0x1BB8 JUMP JUMPDEST PUSH1 0x40 MLOAD DUP1 SWAP2 SUB SWAP1 RETURN JUMPDEST PUSH2 0x2EF PUSH2 0x99F JUMP JUMPDEST STOP JUMPDEST PUSH2 0x30B PUSH1 0x4 DUP1 CALLDATASIZE SUB DUP2 ADD SWAP1 PUSH2 0x306 SWAP2 SWAP1 PUSH2 0x1CA1 JUMP JUMPDEST PUSH2 0xD04 JUMP JUMPDEST STOP JUMPDEST PUSH2 0x327 PUSH1 0x4 DUP1 CALLDATASIZE SUB DUP2 ADD SWAP1 PUSH2 0x322 SWAP2 SWAP1 PUSH2 0x1CA1 JUMP JUMPDEST PUSH2 0xD5D JUMP JUMPDEST PUSH1 0x40 MLOAD PUSH2 0x334 SWAP2 SWAP1 PUSH2 0x1BB8 JUMP JUMPDEST PUSH1 0x40 MLOAD DUP1 SWAP2 SUB SWAP1 RETURN JUMPDEST PUSH2 0x357 PUSH1 0x4 DUP1 CALLDATASIZE SUB DUP2 ADD SWAP1 PUSH2 0x352 SWAP2 SWAP1 PUSH2 0x1CA1 JUMP JUMPDEST PUSH2 0xDF4 JUMP JUMPDEST PUSH1 0x40 MLOAD PUSH2 0x364 SWAP2 SWAP1 PUSH2 0x1BB8 JUMP JUMPDEST PUSH1 0x40 MLOAD DUP1 SWAP2 SUB SWAP1 RETURN JUMPDEST PUSH2 0x375 PUSH2 0xEA5 JUMP JUMPDEST PUSH1 0x40 MLOAD PUSH2 0x382 SWAP2 SWAP1 PUSH2 0x1BB8 JUMP JUMPDEST PUSH1 0x40 MLOAD DUP1 SWAP2 SUB SWAP1 RETURN JUMPDEST PUSH2 0x393 PUSH2 0xEAB JUMP JUMPDEST PUSH1 0x40 MLOAD PUSH2 0x3A0 SWAP2 SWAP1 PUSH2 0x1BB8 JUMP JUMPDEST PUSH1 0x40 MLOAD DUP1 SWAP2 SUB SWAP1 RETURN JUMPDEST PUSH2 0x3B1 PUSH2 0xEB5 JUMP JUMPDEST STOP JUMPDEST PUSH2 0x3BB PUSH2 0xF3D JUMP JUMPDEST PUSH1 0x40 MLOAD PUSH2 0x3C8 SWAP2 SWAP1 PUSH2 0x1BB8 JUMP JUMPDEST PUSH1 0x40 MLOAD DUP1 SWAP2 SUB SWAP1 RETURN JUMPDEST PUSH2 0x3D9 PUSH2 0xF43 JUMP JUMPDEST PUSH1 0x40 MLOAD PUSH2 0x3E6 SWAP2 SWAP1 PUSH2 0x1BB8 JUMP JUMPDEST PUSH1 0x40 MLOAD DUP1 SWAP2 SUB SWAP1 RETURN JUMPDEST PUSH2 0x3F7 PUSH2 0xF49 JUMP JUMPDEST PUSH1 0x40 MLOAD PUSH2 0x404 SWAP2 SWAP1 PUSH2 0x1BB8 JUMP JUMPDEST PUSH1 0x40 MLOAD DUP1 SWAP2 SUB SWAP1 RETURN JUMPDEST PUSH2 0x427 PUSH1 0x4 DUP1 CALLDATASIZE SUB DUP2 ADD SWAP1 PUSH2 0x422 SWAP2 SWAP1 PUSH2 0x1B72 JUMP JUMPDEST PUSH2 0xF51 JUMP JUMPDEST PUSH1 0x40 MLOAD PUSH2 0x434 SWAP2 SWAP1 PUSH2 0x1BB8 JUMP JUMPDEST PUSH1 0x40 MLOAD DUP1 SWAP2 SUB SWAP1 RETURN JUMPDEST PUSH2 0x457 PUSH1 0x4 DUP1 CALLDATASIZE SUB DUP2 ADD SWAP1 PUSH2 0x452 SWAP2 SWAP1 PUSH2 0x1CA1 JUMP JUMPDEST PUSH2 0xF69 JUMP JUMPDEST PUSH1 0x40 MLOAD PUSH2 0x464 SWAP2 SWAP1 PUSH2 0x1BB8 JUMP JUMPDEST PUSH1 0x40 MLOAD DUP1 SWAP2 SUB SWAP1 RETURN JUMPDEST PUSH2 0x487 PUSH1 0x4 DUP1 CALLDATASIZE SUB DUP2 ADD SWAP1 PUSH2 0x482 SWAP2 SWAP1 PUSH2 0x1B72 JUMP JUMPDEST PUSH2 0xFF6 JUMP JUMPDEST STOP JUMPDEST PUSH2 0x4A3 PUSH1 0x4 DUP1 CALLDATASIZE SUB DUP2 ADD SWAP1 PUSH2 0x49E SWAP2 SWAP1 PUSH2 0x1B72 JUMP JUMPDEST PUSH2 0x10B6 JUMP JUMPDEST PUSH1 0x40 MLOAD PUSH2 0x4B0 SWAP2 SWAP1 PUSH2 0x1BB8 JUMP JUMPDEST PUSH1 0x40 MLOAD DUP1 SWAP2 SUB SWAP1 RETURN JUMPDEST PUSH2 0x4C1 PUSH2 0x10CE JUMP JUMPDEST PUSH1 0x40 MLOAD PUSH2 0x4CE SWAP2 SWAP1 PUSH2 0x1CDD JUMP JUMPDEST PUSH1 0x40 MLOAD DUP1 SWAP2 SUB SWAP1 RETURN JUMPDEST PUSH2 0x4DF PUSH2 0x10F8 JUMP JUMPDEST PUSH1 0x40 MLOAD PUSH2 0x4EC SWAP2 SWAP1 PUSH2 0x1BB8 JUMP JUMPDEST PUSH1 0x40 MLOAD DUP1 SWAP2 SUB SWAP1 RETURN JUMPDEST PUSH2 0x4FD PUSH2 0x1108 JUMP JUMPDEST PUSH1 0x40 MLOAD PUSH2 0x50A SWAP2 SWAP1 PUSH2 0x1BB8 JUMP JUMPDEST PUSH1 0x40 MLOAD DUP1 SWAP2 SUB SWAP1 RETURN JUMPDEST PUSH2 0x52D PUSH1 0x4 DUP1 CALLDATASIZE SUB DUP2 ADD SWAP1 PUSH2 0x528 SWAP2 SWAP1 PUSH2 0x1CF8 JUMP JUMPDEST PUSH2 0x1110 JUMP JUMPDEST STOP JUMPDEST PUSH2 0x549 PUSH1 0x4 DUP1 CALLDATASIZE SUB DUP2 ADD SWAP1 PUSH2 0x544 SWAP2 SWAP1 PUSH2 0x1CF8 JUMP JUMPDEST PUSH2 0x120F JUMP JUMPDEST STOP JUMPDEST PUSH2 0x565 PUSH1 0x4 DUP1 CALLDATASIZE SUB DUP2 ADD SWAP1 PUSH2 0x560 SWAP2 SWAP1 PUSH2 0x1B72 JUMP JUMPDEST PUSH2 0x1583 JUMP JUMPDEST PUSH1 0x40 MLOAD PUSH2 0x572 SWAP2 SWAP1 PUSH2 0x1BB8 JUMP JUMPDEST PUSH1 0x40 MLOAD DUP1 SWAP2 SUB SWAP1 RETURN JUMPDEST PUSH2 0x583 PUSH2 0x15CC JUMP JUMPDEST PUSH1 0x40 MLOAD PUSH2 0x590 SWAP2 SWAP1 PUSH2 0x1BB8 JUMP JUMPDEST PUSH1 0x40 MLOAD DUP1 SWAP2 SUB SWAP1 RETURN JUMPDEST PUSH2 0x5A1 PUSH2 0x15D2 JUMP JUMPDEST PUSH1 0x40 MLOAD PUSH2 0x5AE SWAP2 SWAP1 PUSH2 0x1BB8 JUMP JUMPDEST PUSH1 0x40 MLOAD DUP1 SWAP2 SUB SWAP1 RETURN JUMPDEST PUSH2 0x5BF PUSH2 0x15E2 JUMP JUMPDEST PUSH1 0x40 MLOAD PUSH2 0x5CC SWAP2 SWAP1 PUSH2 0x1D97 JUMP JUMPDEST PUSH1 0x40 MLOAD DUP1 SWAP2 SUB SWAP1 RETURN JUMPDEST PUSH2 0x5EF PUSH1 0x4 DUP1 CALLDATASIZE SUB DUP2 ADD SWAP1 PUSH2 0x5EA SWAP2 SWAP1 PUSH2 0x1DB2 JUMP JUMPDEST PUSH2 0x1608 JUMP JUMPDEST PUSH1 0x40 MLOAD PUSH2 0x5FC SWAP2 SWAP1 PUSH2 0x1BB8 JUMP JUMPDEST PUSH1 0x40 MLOAD DUP1 SWAP2 SUB SWAP1 RETURN JUMPDEST PUSH2 0x60D PUSH2 0x17EF JUMP JUMPDEST STOP JUMPDEST PUSH2 0x617 PUSH2 0x18BB JUMP JUMPDEST PUSH1 0x40 MLOAD PUSH2 0x624 SWAP2 SWAP1 PUSH2 0x1BB8 JUMP JUMPDEST PUSH1 0x40 MLOAD DUP1 SWAP2 SUB SWAP1 RETURN JUMPDEST PUSH2 0x647 PUSH1 0x4 DUP1 CALLDATASIZE SUB DUP2 ADD SWAP1 PUSH2 0x642 SWAP2 SWAP1 PUSH2 0x1B72 JUMP JUMPDEST PUSH2 0x18C1 JUMP JUMPDEST STOP JUMPDEST PUSH1 0x0 DUP1 PUSH2 0x695 PUSH1 0xD PUSH1 0x0 DUP6 PUSH20 0xFFFFFFFFFFFFFFFFFFFFFFFFFFFFFFFFFFFFFFFF AND PUSH20 0xFFFFFFFFFFFFFFFFFFFFFFFFFFFFFFFFFFFFFFFF AND DUP2 MSTORE PUSH1 0x20 ADD SWAP1 DUP2 MSTORE PUSH1 0x20 ADD PUSH1 0x0 KECCAK256 SLOAD TIMESTAMP PUSH2 0x1608 JUMP JUMPDEST SWAP1 POP PUSH2 0x7AD PUSH1 0x4 PUSH1 0x0 DUP6 PUSH20 0xFFFFFFFFFFFFFFFFFFFFFFFFFFFFFFFFFFFFFFFF AND PUSH20 0xFFFFFFFFFFFFFFFFFFFFFFFFFFFFFFFFFFFFFFFF AND DUP2 MSTORE PUSH1 0x20 ADD SWAP1 DUP2 MSTORE PUSH1 0x20 ADD PUSH1 0x0 KECCAK256 SLOAD PUSH2 0x79F PUSH8 0xDE0B6B3A7640000 PUSH2 0x791 PUSH2 0x743 PUSH1 0xC PUSH1 0x0 DUP11 PUSH20 0xFFFFFFFFFFFFFFFFFFFFFFFFFFFFFFFFFFFFFFFF AND PUSH20 0xFFFFFFFFFFFFFFFFFFFFFFFFFFFFFFFFFFFFFFFF AND DUP2 MSTORE PUSH1 0x20 ADD SWAP1 DUP2 MSTORE PUSH1 0x20 ADD PUSH1 0x0 KECCAK256 SLOAD PUSH2 0x735 DUP9 PUSH2 0xF69 JUMP JUMPDEST PUSH2 0x19B8 SWAP1 SWAP2 SWAP1 PUSH4 0xFFFFFFFF AND JUMP JUMPDEST PUSH1 0xF PUSH1 0x0 DUP11 PUSH20 0xFFFFFFFFFFFFFFFFFFFFFFFFFFFFFFFFFFFFFFFF AND PUSH20 0xFFFFFFFFFFFFFFFFFFFFFFFFFFFFFFFFFFFFFFFF AND DUP2 MSTORE PUSH1 0x20 ADD SWAP1 DUP2 MSTORE PUSH1 0x20 ADD PUSH1 0x0 KECCAK256 SLOAD PUSH2 0x19CE SWAP1 SWAP2 SWAP1 PUSH4 0xFFFFFFFF AND JUMP JUMPDEST PUSH2 0x19E4 SWAP1 SWAP2 SWAP1 PUSH4 0xFFFFFFFF AND JUMP JUMPDEST PUSH2 0x19FA SWAP1 SWAP2 SWAP1 PUSH4 0xFFFFFFFF AND JUMP JUMPDEST SWAP2 POP POP SWAP2 SWAP1 POP JUMP JUMPDEST PUSH1 0x4 PUSH1 0x20 MSTORE DUP1 PUSH1 0x0 MSTORE PUSH1 0x40 PUSH1 0x0 KECCAK256 PUSH1 0x0 SWAP2 POP SWAP1 POP SLOAD DUP2 JUMP JUMPDEST PUSH1 0x5 SLOAD DUP2 JUMP JUMPDEST PUSH2 0x7DB PUSH2 0x1A10 JUMP JUMPDEST PUSH20 0xFFFFFFFFFFFFFFFFFFFFFFFFFFFFFFFFFFFFFFFF AND PUSH2 0x7F9 PUSH2 0x10CE JUMP JUMPDEST PUSH20 0xFFFFFFFFFFFFFFFFFFFFFFFFFFFFFFFFFFFFFFFF AND EQ PUSH2 0x84F JUMPI PUSH1 0x40 MLOAD PUSH32 0x8C379A000000000000000000000000000000000000000000000000000000000 DUP2 MSTORE PUSH1 0x4 ADD PUSH2 0x846 SWAP1 PUSH2 0x1E75 JUMP JUMPDEST PUSH1 0x40 MLOAD DUP1 SWAP2 SUB SWAP1 REVERT JUMPDEST DUP2 PUSH20 0xFFFFFFFFFFFFFFFFFFFFFFFFFFFFFFFFFFFFFFFF AND PUSH32 0x82F1FA40A3D82DEA3E406073819290601F436580AA7C69F9FEB61F885BDD8854 PUSH1 0x0 DUP1 DUP6 PUSH20 0xFFFFFFFFFFFFFFFFFFFFFFFFFFFFFFFFFFFFFFFF AND PUSH20 0xFFFFFFFFFFFFFFFFFFFFFFFFFFFFFFFFFFFFFFFF AND DUP2 MSTORE PUSH1 0x20 ADD SWAP1 DUP2 MSTORE PUSH1 0x20 ADD PUSH1 0x0 KECCAK256 PUSH1 0x0 SWAP1 SLOAD SWAP1 PUSH2 0x100 EXP SWAP1 DIV PUSH1 0xFF AND DUP4 PUSH1 0x40 MLOAD PUSH2 0x8E2 SWAP3 SWAP2 SWAP1 PUSH2 0x1E95 JUMP JUMPDEST PUSH1 0x40 MLOAD DUP1 SWAP2 SUB SWAP1 LOG2 DUP1 PUSH1 0x0 DUP1 DUP5 PUSH20 0xFFFFFFFFFFFFFFFFFFFFFFFFFFFFFFFFFFFFFFFF AND PUSH20 0xFFFFFFFFFFFFFFFFFFFFFFFFFFFFFFFFFFFFFFFF AND DUP2 MSTORE PUSH1 0x20 ADD SWAP1 DUP2 MSTORE PUSH1 0x20 ADD PUSH1 0x0 KECCAK256 PUSH1 0x0 PUSH2 0x100 EXP DUP2 SLOAD DUP2 PUSH1 0xFF MUL NOT AND SWAP1 DUP4 ISZERO ISZERO MUL OR SWAP1 SSTORE POP POP POP JUMP JUMPDEST PUSH1 0x0 DUP1 PUSH1 0x0 DUP4 PUSH20 0xFFFFFFFFFFFFFFFFFFFFFFFFFFFFFFFFFFFFFFFF AND PUSH20 0xFFFFFFFFFFFFFFFFFFFFFFFFFFFFFFFFFFFFFFFF AND DUP2 MSTORE PUSH1 0x20 ADD SWAP1 DUP2 MSTORE PUSH1 0x20 ADD PUSH1 0x0 KECCAK256 PUSH1 0x0 SWAP1 SLOAD SWAP1 PUSH2 0x100 EXP SWAP1 DIV PUSH1 0xFF AND SWAP1 POP SWAP2 SWAP1 POP JUMP JUMPDEST PUSH1 0x8 SLOAD DUP2 JUMP JUMPDEST PUSH1 0x2 DUP1 SLOAD SUB PUSH2 0x9E3 JUMPI PUSH1 0x40 MLOAD PUSH32 0x8C379A000000000000000000000000000000000000000000000000000000000 DUP2 MSTORE PUSH1 0x4 ADD PUSH2 0x9DA SWAP1 PUSH2 0x1F0A JUMP JUMPDEST PUSH1 0x40 MLOAD DUP1 SWAP2 SUB SWAP1 REVERT JUMPDEST PUSH1 0x2 DUP1 DUP2 SWAP1 SSTORE POP CALLER PUSH1 0x0 PUSH1 0xD PUSH1 0x0 DUP4 PUSH20 0xFFFFFFFFFFFFFFFFFFFFFFFFFFFFFFFFFFFFFFFF AND PUSH20 0xFFFFFFFFFFFFFFFFFFFFFFFFFFFFFFFFFFFFFFFF AND DUP2 MSTORE PUSH1 0x20 ADD SWAP1 DUP2 MSTORE PUSH1 0x20 ADD PUSH1 0x0 KECCAK256 SLOAD SWAP1 POP PUSH1 0x6 SLOAD DUP2 GT PUSH2 0xA3E JUMPI PUSH1 0x6 SLOAD SWAP1 POP JUMPDEST PUSH1 0x0 PUSH2 0xA4A DUP3 TIMESTAMP PUSH2 0x1608 JUMP JUMPDEST SWAP1 POP PUSH2 0xA55 DUP2 PUSH2 0xF69 JUMP JUMPDEST PUSH1 0xB DUP2 SWAP1 SSTORE POP PUSH2 0xA63 PUSH2 0xF49 JUMP JUMPDEST PUSH1 0xA DUP2 SWAP1 SSTORE POP PUSH1 0x0 PUSH20 0xFFFFFFFFFFFFFFFFFFFFFFFFFFFFFFFFFFFFFFFF AND DUP4 PUSH20 0xFFFFFFFFFFFFFFFFFFFFFFFFFFFFFFFFFFFFFFFF AND EQ PUSH2 0xB74 JUMPI PUSH2 0xAA6 DUP4 PUSH2 0x649 JUMP JUMPDEST PUSH1 0x4 PUSH1 0x0 DUP6 PUSH20 0xFFFFFFFFFFFFFFFFFFFFFFFFFFFFFFFFFFFFFFFF AND PUSH20 0xFFFFFFFFFFFFFFFFFFFFFFFFFFFFFFFFFFFFFFFF AND DUP2 MSTORE PUSH1 0x20 ADD SWAP1 DUP2 MSTORE PUSH1 0x20 ADD PUSH1 0x0 KECCAK256 DUP2 SWAP1 SSTORE POP PUSH1 0xB SLOAD PUSH1 0xC PUSH1 0x0 DUP6 PUSH20 0xFFFFFFFFFFFFFFFFFFFFFFFFFFFFFFFFFFFFFFFF AND PUSH20 0xFFFFFFFFFFFFFFFFFFFFFFFFFFFFFFFFFFFFFFFF AND DUP2 MSTORE PUSH1 0x20 ADD SWAP1 DUP2 MSTORE PUSH1 0x20 ADD PUSH1 0x0 KECCAK256 DUP2 SWAP1 SSTORE POP TIMESTAMP PUSH1 0xD PUSH1 0x0 DUP6 PUSH20 0xFFFFFFFFFFFFFFFFFFFFFFFFFFFFFFFFFFFFFFFF AND PUSH20 0xFFFFFFFFFFFFFFFFFFFFFFFFFFFFFFFFFFFFFFFF AND DUP2 MSTORE PUSH1 0x20 ADD SWAP1 DUP2 MSTORE PUSH1 0x20 ADD PUSH1 0x0 KECCAK256 DUP2 SWAP1 SSTORE POP JUMPDEST PUSH1 0x0 PUSH1 0x4 PUSH1 0x0 CALLER PUSH20 0xFFFFFFFFFFFFFFFFFFFFFFFFFFFFFFFFFFFFFFFF AND PUSH20 0xFFFFFFFFFFFFFFFFFFFFFFFFFFFFFFFFFFFFFFFF AND DUP2 MSTORE PUSH1 0x20 ADD SWAP1 DUP2 MSTORE PUSH1 0x20 ADD PUSH1 0x0 KECCAK256 SLOAD SWAP1 POP PUSH1 0x0 DUP2 GT ISZERO PUSH2 0xCF6 JUMPI PUSH1 0x0 PUSH1 0x4 PUSH1 0x0 CALLER PUSH20 0xFFFFFFFFFFFFFFFFFFFFFFFFFFFFFFFFFFFFFFFF AND PUSH20 0xFFFFFFFFFFFFFFFFFFFFFFFFFFFFFFFFFFFFFFFF AND DUP2 MSTORE PUSH1 0x20 ADD SWAP1 DUP2 MSTORE PUSH1 0x20 ADD PUSH1 0x0 KECCAK256 DUP2 SWAP1 SSTORE POP PUSH1 0x3 PUSH1 0x0 SWAP1 SLOAD SWAP1 PUSH2 0x100 EXP SWAP1 DIV PUSH20 0xFFFFFFFFFFFFFFFFFFFFFFFFFFFFFFFFFFFFFFFF AND PUSH20 0xFFFFFFFFFFFFFFFFFFFFFFFFFFFFFFFFFFFFFFFF AND PUSH4 0xA9059CBB CALLER DUP4 PUSH1 0x40 MLOAD DUP4 PUSH4 0xFFFFFFFF AND PUSH1 0xE0 SHL DUP2 MSTORE PUSH1 0x4 ADD PUSH2 0xC63 SWAP3 SWAP2 SWAP1 PUSH2 0x1F2A JUMP JUMPDEST PUSH1 0x20 PUSH1 0x40 MLOAD DUP1 DUP4 SUB DUP2 PUSH1 0x0 DUP8 GAS CALL ISZERO DUP1 ISZERO PUSH2 0xC82 JUMPI RETURNDATASIZE PUSH1 0x0 DUP1 RETURNDATACOPY RETURNDATASIZE PUSH1 0x0 REVERT JUMPDEST POP POP POP POP PUSH1 0x40 MLOAD RETURNDATASIZE PUSH1 0x1F NOT PUSH1 0x1F DUP3 ADD AND DUP3 ADD DUP1 PUSH1 0x40 MSTORE POP DUP2 ADD SWAP1 PUSH2 0xCA6 SWAP2 SWAP1 PUSH2 0x1F68 JUMP JUMPDEST POP CALLER PUSH20 0xFFFFFFFFFFFFFFFFFFFFFFFFFFFFFFFFFFFFFFFF AND PUSH32 0xE2403640BA68FED3A2F88B7557551D1993F84B99BB10FF833F0CF8DB0C5E0486 DUP3 PUSH1 0x40 MLOAD PUSH2 0xCED SWAP2 SWAP1 PUSH2 0x1BB8 JUMP JUMPDEST PUSH1 0x40 MLOAD DUP1 SWAP2 SUB SWAP1 LOG2 JUMPDEST POP POP POP POP PUSH1 0x1 PUSH1 0x2 DUP2 SWAP1 SSTORE POP JUMP JUMPDEST PUSH2 0xD14 PUSH2 0xD0F PUSH2 0x1A10 JUMP JUMPDEST PUSH2 0x944 JUMP JUMPDEST PUSH2 0xD53 JUMPI PUSH1 0x40 MLOAD PUSH32 0x8C379A000000000000000000000000000000000000000000000000000000000 DUP2 MSTORE PUSH1 0x4 ADD PUSH2 0xD4A SWAP1 PUSH2 0x2007 JUMP JUMPDEST PUSH1 0x40 MLOAD DUP1 SWAP2 SUB SWAP1 REVERT JUMPDEST DUP1 PUSH1 0x6 DUP2 SWAP1 SSTORE POP POP JUMP JUMPDEST PUSH1 0x0 DUP1 PUSH1 0x6 SLOAD SUB PUSH2 0xD72 JUMPI PUSH1 0x6 SLOAD SWAP1 POP PUSH2 0xDEF JUMP JUMPDEST PUSH1 0x0 PUSH1 0x1 PUSH1 0x7 SLOAD PUSH1 0x6 SLOAD DUP6 PUSH2 0xD87 SWAP2 SWAP1 PUSH2 0x2056 JUMP JUMPDEST PUSH2 0xD91 SWAP2 SWAP1 PUSH2 0x20B9 JUMP JUMPDEST PUSH2 0xD9B SWAP2 SWAP1 PUSH2 0x20EA JUMP JUMPDEST SWAP1 POP PUSH1 0x0 PUSH1 0x5 SLOAD SWAP1 POP PUSH1 0x0 JUMPDEST DUP3 DUP2 LT ISZERO PUSH2 0xDE8 JUMPI PUSH1 0x9 SLOAD PUSH1 0x8 SLOAD DUP4 PUSH2 0xDC0 SWAP2 SWAP1 PUSH2 0x211E JUMP JUMPDEST PUSH2 0xDCA SWAP2 SWAP1 PUSH2 0x20B9 JUMP JUMPDEST DUP3 PUSH2 0xDD5 SWAP2 SWAP1 PUSH2 0x2056 JUMP JUMPDEST SWAP2 POP DUP1 PUSH2 0xDE1 SWAP1 PUSH2 0x2160 JUMP JUMPDEST SWAP1 POP PUSH2 0xDA7 JUMP JUMPDEST POP DUP1 SWAP3 POP POP POP JUMPDEST SWAP2 SWAP1 POP JUMP JUMPDEST PUSH1 0x0 DUP1 PUSH1 0x6 SLOAD SUB PUSH2 0xE09 JUMPI PUSH1 0x5 SLOAD SWAP1 POP PUSH2 0xEA0 JUMP JUMPDEST PUSH1 0x0 PUSH1 0x1 PUSH1 0x7 SLOAD PUSH1 0x6 SLOAD DUP6 PUSH2 0xE1E SWAP2 SWAP1 PUSH2 0x2056 JUMP JUMPDEST PUSH2 0xE28 SWAP2 SWAP1 PUSH2 0x20B9 JUMP JUMPDEST PUSH2 0xE32 SWAP2 SWAP1 PUSH2 0x20EA JUMP JUMPDEST SWAP1 POP PUSH1 0x0 PUSH1 0x5 SLOAD SWAP1 POP PUSH1 0x0 JUMPDEST DUP3 DUP2 LT ISZERO PUSH2 0xE7F JUMPI PUSH1 0x9 SLOAD PUSH1 0x8 SLOAD DUP4 PUSH2 0xE57 SWAP2 SWAP1 PUSH2 0x211E JUMP JUMPDEST PUSH2 0xE61 SWAP2 SWAP1 PUSH2 0x20B9 JUMP JUMPDEST DUP3 PUSH2 0xE6C SWAP2 SWAP1 PUSH2 0x2056 JUMP JUMPDEST SWAP2 POP DUP1 PUSH2 0xE78 SWAP1 PUSH2 0x2160 JUMP JUMPDEST SWAP1 POP PUSH2 0xE3E JUMP JUMPDEST POP PUSH1 0x9 SLOAD PUSH1 0x8 SLOAD DUP3 PUSH2 0xE91 SWAP2 SWAP1 PUSH2 0x211E JUMP JUMPDEST PUSH2 0xE9B SWAP2 SWAP1 PUSH2 0x20B9 JUMP JUMPDEST SWAP3 POP POP POP JUMPDEST SWAP2 SWAP1 POP JUMP JUMPDEST PUSH1 0x7 SLOAD DUP2 JUMP JUMPDEST PUSH1 0x0 PUSH1 0xE SLOAD SWAP1 POP SWAP1 JUMP JUMPDEST PUSH2 0xEBD PUSH2 0x1A10 JUMP JUMPDEST PUSH20 0xFFFFFFFFFFFFFFFFFFFFFFFFFFFFFFFFFFFFFFFF AND PUSH2 0xEDB PUSH2 0x10CE JUMP JUMPDEST PUSH20 0xFFFFFFFFFFFFFFFFFFFFFFFFFFFFFFFFFFFFFFFF AND EQ PUSH2 0xF31 JUMPI PUSH1 0x40 MLOAD PUSH32 0x8C379A000000000000000000000000000000000000000000000000000000000 DUP2 MSTORE PUSH1 0x4 ADD PUSH2 0xF28 SWAP1 PUSH2 0x1E75 JUMP JUMPDEST PUSH1 0x40 MLOAD DUP1 SWAP2 SUB SWAP1 REVERT JUMPDEST PUSH2 0xF3B PUSH1 0x0 PUSH2 0x1A18 JUMP JUMPDEST JUMP JUMPDEST PUSH1 0x6 SLOAD DUP2 JUMP JUMPDEST PUSH1 0x9 SLOAD DUP2 JUMP JUMPDEST PUSH1 0x0 TIMESTAMP SWAP1 POP SWAP1 JUMP JUMPDEST PUSH1 0xD PUSH1 0x20 MSTORE DUP1 PUSH1 0x0 MSTORE PUSH1 0x40 PUSH1 0x0 KECCAK256 PUSH1 0x0 SWAP2 POP SWAP1 POP SLOAD DUP2 JUMP JUMPDEST PUSH1 0x0 DUP1 PUSH1 0xE SLOAD SUB PUSH2 0xF7E JUMPI PUSH1 0xB SLOAD SWAP1 POP PUSH2 0xFF1 JUMP JUMPDEST PUSH2 0xFEE PUSH2 0xFDD PUSH1 0xE SLOAD PUSH2 0xFCF PUSH8 0xDE0B6B3A7640000 PUSH2 0xFC1 DUP8 PUSH2 0xFB3 PUSH1 0xA SLOAD PUSH2 0xFA5 PUSH2 0xF49 JUMP JUMPDEST PUSH2 0x19B8 SWAP1 SWAP2 SWAP1 PUSH4 0xFFFFFFFF AND JUMP JUMPDEST PUSH2 0x19CE SWAP1 SWAP2 SWAP1 PUSH4 0xFFFFFFFF AND JUMP JUMPDEST PUSH2 0x19CE SWAP1 SWAP2 SWAP1 PUSH4 0xFFFFFFFF AND JUMP JUMPDEST PUSH2 0x19E4 SWAP1 SWAP2 SWAP1 PUSH4 0xFFFFFFFF AND JUMP JUMPDEST PUSH1 0xB SLOAD PUSH2 0x19FA SWAP1 SWAP2 SWAP1 PUSH4 0xFFFFFFFF AND JUMP JUMPDEST SWAP1 POP JUMPDEST SWAP2 SWAP1 POP JUMP JUMPDEST PUSH2 0xFFE PUSH2 0x1A10 JUMP JUMPDEST PUSH20 0xFFFFFFFFFFFFFFFFFFFFFFFFFFFFFFFFFFFFFFFF AND PUSH2 0x101C PUSH2 0x10CE JUMP JUMPDEST PUSH20 0xFFFFFFFFFFFFFFFFFFFFFFFFFFFFFFFFFFFFFFFF AND EQ PUSH2 0x1072 JUMPI PUSH1 0x40 MLOAD PUSH32 0x8C379A000000000000000000000000000000000000000000000000000000000 DUP2 MSTORE PUSH1 0x4 ADD PUSH2 0x1069 SWAP1 PUSH2 0x1E75 JUMP JUMPDEST PUSH1 0x40 MLOAD DUP1 SWAP2 SUB SWAP1 REVERT JUMPDEST DUP1 PUSH1 0x3 PUSH1 0x0 PUSH2 0x100 EXP DUP2 SLOAD DUP2 PUSH20 0xFFFFFFFFFFFFFFFFFFFFFFFFFFFFFFFFFFFFFFFF MUL NOT AND SWAP1 DUP4 PUSH20 0xFFFFFFFFFFFFFFFFFFFFFFFFFFFFFFFFFFFFFFFF AND MUL OR SWAP1 SSTORE POP POP JUMP JUMPDEST PUSH1 0xC PUSH1 0x20 MSTORE DUP1 PUSH1 0x0 MSTORE PUSH1 0x40 PUSH1 0x0 KECCAK256 PUSH1 0x0 SWAP2 POP SWAP1 POP SLOAD DUP2 JUMP JUMPDEST PUSH1 0x0 PUSH1 0x1 PUSH1 0x0 SWAP1 SLOAD SWAP1 PUSH2 0x100 EXP SWAP1 DIV PUSH20 0xFFFFFFFFFFFFFFFFFFFFFFFFFFFFFFFFFFFFFFFF AND SWAP1 POP SWAP1 JUMP JUMPDEST PUSH1 0x0 PUSH2 0x1103 TIMESTAMP PUSH2 0xDF4 JUMP JUMPDEST SWAP1 POP SWAP1 JUMP JUMPDEST PUSH1 0x0 TIMESTAMP SWAP1 POP SWAP1 JUMP JUMPDEST PUSH2 0x1118 PUSH2 0x1A10 JUMP JUMPDEST PUSH20 0xFFFFFFFFFFFFFFFFFFFFFFFFFFFFFFFFFFFFFFFF AND PUSH2 0x1136 PUSH2 0x10CE JUMP JUMPDEST PUSH20 0xFFFFFFFFFFFFFFFFFFFFFFFFFFFFFFFFFFFFFFFF AND EQ PUSH2 0x118C JUMPI PUSH1 0x40 MLOAD PUSH32 0x8C379A000000000000000000000000000000000000000000000000000000000 DUP2 MSTORE PUSH1 0x4 ADD PUSH2 0x1183 SWAP1 PUSH2 0x1E75 JUMP JUMPDEST PUSH1 0x40 MLOAD DUP1 SWAP2 SUB SWAP1 REVERT JUMPDEST DUP2 PUSH20 0xFFFFFFFFFFFFFFFFFFFFFFFFFFFFFFFFFFFFFFFF AND PUSH4 0xA9059CBB CALLER DUP4 PUSH1 0x40 MLOAD DUP4 PUSH4 0xFFFFFFFF AND PUSH1 0xE0 SHL DUP2 MSTORE PUSH1 0x4 ADD PUSH2 0x11C7 SWAP3 SWAP2 SWAP1 PUSH2 0x1F2A JUMP JUMPDEST PUSH1 0x20 PUSH1 0x40 MLOAD DUP1 DUP4 SUB DUP2 PUSH1 0x0 DUP8 GAS CALL ISZERO DUP1 ISZERO PUSH2 0x11E6 JUMPI RETURNDATASIZE PUSH1 0x0 DUP1 RETURNDATACOPY RETURNDATASIZE PUSH1 0x0 REVERT JUMPDEST POP POP POP POP PUSH1 0x40 MLOAD RETURNDATASIZE PUSH1 0x1F NOT PUSH1 0x1F DUP3 ADD AND DUP3 ADD DUP1 PUSH1 0x40 MSTORE POP DUP2 ADD SWAP1 PUSH2 0x120A SWAP2 SWAP1 PUSH2 0x1F68 JUMP JUMPDEST POP POP POP JUMP JUMPDEST PUSH1 0x2 DUP1 SLOAD SUB PUSH2 0x1253 JUMPI PUSH1 0x40 MLOAD PUSH32 0x8C379A000000000000000000000000000000000000000000000000000000000 DUP2 MSTORE PUSH1 0x4 ADD PUSH2 0x124A SWAP1 PUSH2 0x1F0A JUMP JUMPDEST PUSH1 0x40 MLOAD DUP1 SWAP2 SUB SWAP1 REVERT JUMPDEST PUSH1 0x2 DUP1 DUP2 SWAP1 SSTORE POP PUSH2 0x126A PUSH2 0x1265 PUSH2 0x1A10 JUMP JUMPDEST PUSH2 0x944 JUMP JUMPDEST PUSH2 0x12A9 JUMPI PUSH1 0x40 MLOAD PUSH32 0x8C379A000000000000000000000000000000000000000000000000000000000 DUP2 MSTORE PUSH1 0x4 ADD PUSH2 0x12A0 SWAP1 PUSH2 0x2007 JUMP JUMPDEST PUSH1 0x40 MLOAD DUP1 SWAP2 SUB SWAP1 REVERT JUMPDEST DUP2 PUSH1 0x0 PUSH1 0xD PUSH1 0x0 DUP4 PUSH20 0xFFFFFFFFFFFFFFFFFFFFFFFFFFFFFFFFFFFFFFFF AND PUSH20 0xFFFFFFFFFFFFFFFFFFFFFFFFFFFFFFFFFFFFFFFF AND DUP2 MSTORE PUSH1 0x20 ADD SWAP1 DUP2 MSTORE PUSH1 0x20 ADD PUSH1 0x0 KECCAK256 SLOAD SWAP1 POP PUSH1 0x6 SLOAD DUP2 GT PUSH2 0x12FD JUMPI PUSH1 0x6 SLOAD SWAP1 POP JUMPDEST PUSH1 0x0 PUSH2 0x1309 DUP3 TIMESTAMP PUSH2 0x1608 JUMP JUMPDEST SWAP1 POP PUSH2 0x1314 DUP2 PUSH2 0xF69 JUMP JUMPDEST PUSH1 0xB DUP2 SWAP1 SSTORE POP PUSH2 0x1322 PUSH2 0xF49 JUMP JUMPDEST PUSH1 0xA DUP2 SWAP1 SSTORE POP PUSH1 0x0 PUSH20 0xFFFFFFFFFFFFFFFFFFFFFFFFFFFFFFFFFFFFFFFF AND DUP4 PUSH20 0xFFFFFFFFFFFFFFFFFFFFFFFFFFFFFFFFFFFFFFFF AND EQ PUSH2 0x1433 JUMPI PUSH2 0x1365 DUP4 PUSH2 0x649 JUMP JUMPDEST PUSH1 0x4 PUSH1 0x0 DUP6 PUSH20 0xFFFFFFFFFFFFFFFFFFFFFFFFFFFFFFFFFFFFFFFF AND PUSH20 0xFFFFFFFFFFFFFFFFFFFFFFFFFFFFFFFFFFFFFFFF AND DUP2 MSTORE PUSH1 0x20 ADD SWAP1 DUP2 MSTORE PUSH1 0x20 ADD PUSH1 0x0 KECCAK256 DUP2 SWAP1 SSTORE POP PUSH1 0xB SLOAD PUSH1 0xC PUSH1 0x0 DUP6 PUSH20 0xFFFFFFFFFFFFFFFFFFFFFFFFFFFFFFFFFFFFFFFF AND PUSH20 0xFFFFFFFFFFFFFFFFFFFFFFFFFFFFFFFFFFFFFFFF AND DUP2 MSTORE PUSH1 0x20 ADD SWAP1 DUP2 MSTORE PUSH1 0x20 ADD PUSH1 0x0 KECCAK256 DUP2 SWAP1 SSTORE POP TIMESTAMP PUSH1 0xD PUSH1 0x0 DUP6 PUSH20 0xFFFFFFFFFFFFFFFFFFFFFFFFFFFFFFFFFFFFFFFF AND PUSH20 0xFFFFFFFFFFFFFFFFFFFFFFFFFFFFFFFFFFFFFFFF AND DUP2 MSTORE PUSH1 0x20 ADD SWAP1 DUP2 MSTORE PUSH1 0x20 ADD PUSH1 0x0 KECCAK256 DUP2 SWAP1 SSTORE POP JUMPDEST PUSH1 0x0 DUP5 GT PUSH2 0x1476 JUMPI PUSH1 0x40 MLOAD PUSH32 0x8C379A000000000000000000000000000000000000000000000000000000000 DUP2 MSTORE PUSH1 0x4 ADD PUSH2 0x146D SWAP1 PUSH2 0x21F4 JUMP JUMPDEST PUSH1 0x40 MLOAD DUP1 SWAP2 SUB SWAP1 REVERT JUMPDEST PUSH2 0x148B DUP5 PUSH1 0xE SLOAD PUSH2 0x19FA SWAP1 SWAP2 SWAP1 PUSH4 0xFFFFFFFF AND JUMP JUMPDEST PUSH1 0xE DUP2 SWAP1 SSTORE POP PUSH2 0x14E3 DUP5 PUSH1 0xF PUSH1 0x0 DUP9 PUSH20 0xFFFFFFFFFFFFFFFFFFFFFFFFFFFFFFFFFFFFFFFF AND PUSH20 0xFFFFFFFFFFFFFFFFFFFFFFFFFFFFFFFFFFFFFFFF AND DUP2 MSTORE PUSH1 0x20 ADD SWAP1 DUP2 MSTORE PUSH1 0x20 ADD PUSH1 0x0 KECCAK256 SLOAD PUSH2 0x19FA SWAP1 SWAP2 SWAP1 PUSH4 0xFFFFFFFF AND JUMP JUMPDEST PUSH1 0xF PUSH1 0x0 DUP8 PUSH20 0xFFFFFFFFFFFFFFFFFFFFFFFFFFFFFFFFFFFFFFFF AND PUSH20 0xFFFFFFFFFFFFFFFFFFFFFFFFFFFFFFFFFFFFFFFF AND DUP2 MSTORE PUSH1 0x20 ADD SWAP1 DUP2 MSTORE PUSH1 0x20 ADD PUSH1 0x0 KECCAK256 DUP2 SWAP1 SSTORE POP DUP5 PUSH20 0xFFFFFFFFFFFFFFFFFFFFFFFFFFFFFFFFFFFFFFFF AND PUSH32 0x9E71BC8EEA02A63969F509818F2DAFB9254532904319F9DBDA79B67BD34A5F3D DUP6 PUSH1 0x40 MLOAD PUSH2 0x156C SWAP2 SWAP1 PUSH2 0x1BB8 JUMP JUMPDEST PUSH1 0x40 MLOAD DUP1 SWAP2 SUB SWAP1 LOG2 POP POP POP PUSH1 0x1 PUSH1 0x2 DUP2 SWAP1 SSTORE POP POP POP JUMP JUMPDEST PUSH1 0x0 PUSH1 0xF PUSH1 0x0 DUP4 PUSH20 0xFFFFFFFFFFFFFFFFFFFFFFFFFFFFFFFFFFFFFFFF AND PUSH20 0xFFFFFFFFFFFFFFFFFFFFFFFFFFFFFFFFFFFFFFFF AND DUP2 MSTORE PUSH1 0x20 ADD SWAP1 DUP2 MSTORE PUSH1 0x20 ADD PUSH1 0x0 KECCAK256 SLOAD SWAP1 POP SWAP2 SWAP1 POP JUMP JUMPDEST PUSH1 0xA SLOAD DUP2 JUMP JUMPDEST PUSH1 0x0 PUSH2 0x15DD TIMESTAMP PUSH2 0x1ADE JUMP JUMPDEST SWAP1 POP SWAP1 JUMP JUMPDEST PUSH1 0x3 PUSH1 0x0 SWAP1 SLOAD SWAP1 PUSH2 0x100 EXP SWAP1 DIV PUSH20 0xFFFFFFFFFFFFFFFFFFFFFFFFFFFFFFFFFFFFFFFF AND DUP2 JUMP JUMPDEST PUSH1 0x0 DUP1 PUSH1 0x6 SLOAD EQ DUP1 PUSH2 0x161A JUMPI POP DUP2 DUP4 LT ISZERO JUMPDEST DUP1 PUSH2 0x1625 JUMPI POP PUSH1 0x0 DUP4 EQ JUMPDEST ISZERO PUSH2 0x1633 JUMPI PUSH1 0x0 SWAP1 POP PUSH2 0x17E9 JUMP JUMPDEST PUSH1 0x6 SLOAD DUP4 LT ISZERO PUSH2 0x1643 JUMPI PUSH1 0x6 SLOAD SWAP3 POP JUMPDEST PUSH1 0x0 PUSH1 0x7 SLOAD PUSH1 0x7 SLOAD PUSH1 0x6 SLOAD DUP7 PUSH2 0x1659 SWAP2 SWAP1 PUSH2 0x2056 JUMP JUMPDEST PUSH2 0x1663 SWAP2 SWAP1 PUSH2 0x2214 JUMP JUMPDEST PUSH1 0x7 SLOAD PUSH2 0x1670 SWAP2 SWAP1 PUSH2 0x2056 JUMP JUMPDEST PUSH2 0x167A SWAP2 SWAP1 PUSH2 0x2214 JUMP JUMPDEST SWAP1 POP PUSH1 0x0 PUSH1 0x7 SLOAD DUP3 PUSH2 0x168B DUP8 PUSH2 0xDF4 JUMP JUMPDEST PUSH2 0x1695 SWAP2 SWAP1 PUSH2 0x211E JUMP JUMPDEST PUSH2 0x169F SWAP2 SWAP1 PUSH2 0x20B9 JUMP JUMPDEST SWAP1 POP PUSH1 0x0 PUSH1 0x7 SLOAD PUSH1 0x6 SLOAD DUP7 PUSH2 0x16B4 SWAP2 SWAP1 PUSH2 0x2056 JUMP JUMPDEST PUSH2 0x16BE SWAP2 SWAP1 PUSH2 0x2214 JUMP JUMPDEST SWAP1 POP PUSH1 0x0 PUSH1 0x7 SLOAD DUP3 PUSH2 0x16CF DUP9 PUSH2 0xDF4 JUMP JUMPDEST PUSH2 0x16D9 SWAP2 SWAP1 PUSH2 0x211E JUMP JUMPDEST PUSH2 0x16E3 SWAP2 SWAP1 PUSH2 0x20B9 JUMP JUMPDEST SWAP1 POP DUP6 DUP5 DUP9 PUSH2 0x16F2 SWAP2 SWAP1 PUSH2 0x20EA JUMP JUMPDEST GT ISZERO PUSH2 0x170C JUMPI PUSH2 0x1701 DUP8 PUSH2 0x1ADE JUMP JUMPDEST SWAP5 POP POP POP POP POP PUSH2 0x17E9 JUMP JUMPDEST PUSH1 0x0 DUP5 DUP9 DUP5 DUP10 PUSH2 0x171C SWAP2 SWAP1 PUSH2 0x2056 JUMP JUMPDEST PUSH2 0x1726 SWAP2 SWAP1 PUSH2 0x2056 JUMP JUMPDEST PUSH2 0x1730 SWAP2 SWAP1 PUSH2 0x2056 JUMP JUMPDEST SWAP1 POP PUSH1 0x0 PUSH2 0x173D DUP10 PUSH2 0xD5D JUMP JUMPDEST SWAP1 POP PUSH1 0x0 DUP1 PUSH1 0x0 DUP4 SWAP1 POP PUSH1 0x0 PUSH1 0x7 SLOAD DUP7 PUSH2 0x1757 SWAP2 SWAP1 PUSH2 0x20B9 JUMP JUMPDEST SWAP1 POP PUSH1 0x0 JUMPDEST DUP2 DUP2 LT ISZERO PUSH2 0x17AE JUMPI PUSH1 0x9 SLOAD PUSH1 0x8 SLOAD DUP5 PUSH2 0x1775 SWAP2 SWAP1 PUSH2 0x211E JUMP JUMPDEST PUSH2 0x177F SWAP2 SWAP1 PUSH2 0x20B9 JUMP JUMPDEST SWAP4 POP DUP4 DUP4 PUSH2 0x178D SWAP2 SWAP1 PUSH2 0x2056 JUMP JUMPDEST SWAP3 POP DUP4 DUP6 PUSH2 0x179B SWAP2 SWAP1 PUSH2 0x20EA JUMP JUMPDEST SWAP5 POP DUP1 PUSH2 0x17A7 SWAP1 PUSH2 0x2160 JUMP JUMPDEST SWAP1 POP PUSH2 0x175C JUMP JUMPDEST POP DUP13 DUP13 PUSH2 0x17BB SWAP2 SWAP1 PUSH2 0x2056 JUMP JUMPDEST DUP8 DUP11 DUP7 PUSH2 0x17C8 SWAP2 SWAP1 PUSH2 0x20EA JUMP JUMPDEST PUSH2 0x17D2 SWAP2 SWAP1 PUSH2 0x20EA JUMP JUMPDEST PUSH2 0x17DC SWAP2 SWAP1 PUSH2 0x20B9 JUMP JUMPDEST SWAP11 POP POP POP POP POP POP POP POP POP POP POP JUMPDEST SWAP3 SWAP2 POP POP JUMP JUMPDEST PUSH2 0x17F7 PUSH2 0x1A10 JUMP JUMPDEST PUSH20 0xFFFFFFFFFFFFFFFFFFFFFFFFFFFFFFFFFFFFFFFF AND PUSH2 0x1815 PUSH2 0x10CE JUMP JUMPDEST PUSH20 0xFFFFFFFFFFFFFFFFFFFFFFFFFFFFFFFFFFFFFFFF AND EQ PUSH2 0x186B JUMPI PUSH1 0x40 MLOAD PUSH32 0x8C379A000000000000000000000000000000000000000000000000000000000 DUP2 MSTORE PUSH1 0x4 ADD PUSH2 0x1862 SWAP1 PUSH2 0x1E75 JUMP JUMPDEST PUSH1 0x40 MLOAD DUP1 SWAP2 SUB SWAP1 REVERT JUMPDEST PUSH2 0x1873 PUSH2 0x10CE JUMP JUMPDEST PUSH20 0xFFFFFFFFFFFFFFFFFFFFFFFFFFFFFFFFFFFFFFFF AND PUSH2 0x8FC SELFBALANCE SWAP1 DUP2 ISZERO MUL SWAP1 PUSH1 0x40 MLOAD PUSH1 0x0 PUSH1 0x40 MLOAD DUP1 DUP4 SUB DUP2 DUP6 DUP9 DUP9 CALL SWAP4 POP POP POP POP ISZERO DUP1 ISZERO PUSH2 0x18B8 JUMPI RETURNDATASIZE PUSH1 0x0 DUP1 RETURNDATACOPY RETURNDATASIZE PUSH1 0x0 REVERT JUMPDEST POP JUMP JUMPDEST PUSH1 0xB SLOAD DUP2 JUMP JUMPDEST PUSH2 0x18C9 PUSH2 0x1A10 JUMP JUMPDEST PUSH20 0xFFFFFFFFFFFFFFFFFFFFFFFFFFFFFFFFFFFFFFFF AND PUSH2 0x18E7 PUSH2 0x10CE JUMP JUMPDEST PUSH20 0xFFFFFFFFFFFFFFFFFFFFFFFFFFFFFFFFFFFFFFFF AND EQ PUSH2 0x193D JUMPI PUSH1 0x40 MLOAD PUSH32 0x8C379A000000000000000000000000000000000000000000000000000000000 DUP2 MSTORE PUSH1 0x4 ADD PUSH2 0x1934 SWAP1 PUSH2 0x1E75 JUMP JUMPDEST PUSH1 0x40 MLOAD DUP1 SWAP2 SUB SWAP1 REVERT JUMPDEST PUSH1 0x0 PUSH20 0xFFFFFFFFFFFFFFFFFFFFFFFFFFFFFFFFFFFFFFFF AND DUP2 PUSH20 0xFFFFFFFFFFFFFFFFFFFFFFFFFFFFFFFFFFFFFFFF AND SUB PUSH2 0x19AC JUMPI PUSH1 0x40 MLOAD PUSH32 0x8C379A000000000000000000000000000000000000000000000000000000000 DUP2 MSTORE PUSH1 0x4 ADD PUSH2 0x19A3 SWAP1 PUSH2 0x22B7 JUMP JUMPDEST PUSH1 0x40 MLOAD DUP1 SWAP2 SUB SWAP1 REVERT JUMPDEST PUSH2 0x19B5 DUP2 PUSH2 0x1A18 JUMP JUMPDEST POP JUMP JUMPDEST PUSH1 0x0 DUP2 DUP4 PUSH2 0x19C6 SWAP2 SWAP1 PUSH2 0x2056 JUMP JUMPDEST SWAP1 POP SWAP3 SWAP2 POP POP JUMP JUMPDEST PUSH1 0x0 DUP2 DUP4 PUSH2 0x19DC SWAP2 SWAP1 PUSH2 0x211E JUMP JUMPDEST SWAP1 POP SWAP3 SWAP2 POP POP JUMP JUMPDEST PUSH1 0x0 DUP2 DUP4 PUSH2 0x19F2 SWAP2 SWAP1 PUSH2 0x20B9 JUMP JUMPDEST SWAP1 POP SWAP3 SWAP2 POP POP JUMP JUMPDEST PUSH1 0x0 DUP2 DUP4 PUSH2 0x1A08 SWAP2 SWAP1 PUSH2 0x20EA JUMP JUMPDEST SWAP1 POP SWAP3 SWAP2 POP POP JUMP JUMPDEST PUSH1 0x0 CALLER SWAP1 POP SWAP1 JUMP JUMPDEST PUSH1 0x0 PUSH1 0x1 PUSH1 0x0 SWAP1 SLOAD SWAP1 PUSH2 0x100 EXP SWAP1 DIV PUSH20 0xFFFFFFFFFFFFFFFFFFFFFFFFFFFFFFFFFFFFFFFF AND SWAP1 POP DUP2 PUSH1 0x1 PUSH1 0x0 PUSH2 0x100 EXP DUP2 SLOAD DUP2 PUSH20 0xFFFFFFFFFFFFFFFFFFFFFFFFFFFFFFFFFFFFFFFF MUL NOT AND SWAP1 DUP4 PUSH20 0xFFFFFFFFFFFFFFFFFFFFFFFFFFFFFFFFFFFFFFFF AND MUL OR SWAP1 SSTORE POP DUP2 PUSH20 0xFFFFFFFFFFFFFFFFFFFFFFFFFFFFFFFFFFFFFFFF AND DUP2 PUSH20 0xFFFFFFFFFFFFFFFFFFFFFFFFFFFFFFFFFFFFFFFF AND PUSH32 0x8BE0079C531659141344CD1FD0A4F28419497F9722A3DAAFE3B4186F6B6457E0 PUSH1 0x40 MLOAD PUSH1 0x40 MLOAD DUP1 SWAP2 SUB SWAP1 LOG3 POP POP JUMP JUMPDEST PUSH1 0x0 DUP1 PUSH2 0x1AEA DUP4 PUSH2 0xDF4 JUMP JUMPDEST SWAP1 POP PUSH1 0x0 PUSH2 0x1B03 PUSH1 0x7 SLOAD DUP4 PUSH2 0x19E4 SWAP1 SWAP2 SWAP1 PUSH4 0xFFFFFFFF AND JUMP JUMPDEST SWAP1 POP DUP1 SWAP3 POP POP POP SWAP2 SWAP1 POP JUMP JUMPDEST PUSH1 0x0 DUP1 REVERT JUMPDEST PUSH1 0x0 PUSH20 0xFFFFFFFFFFFFFFFFFFFFFFFFFFFFFFFFFFFFFFFF DUP3 AND SWAP1 POP SWAP2 SWAP1 POP JUMP JUMPDEST PUSH1 0x0 PUSH2 0x1B3F DUP3 PUSH2 0x1B14 JUMP JUMPDEST SWAP1 POP SWAP2 SWAP1 POP JUMP JUMPDEST PUSH2 0x1B4F DUP2 PUSH2 0x1B34 JUMP JUMPDEST DUP2 EQ PUSH2 0x1B5A JUMPI PUSH1 0x0 DUP1 REVERT JUMPDEST POP JUMP JUMPDEST PUSH1 0x0 DUP2 CALLDATALOAD SWAP1 POP PUSH2 0x1B6C DUP2 PUSH2 0x1B46 JUMP JUMPDEST SWAP3 SWAP2 POP POP JUMP JUMPDEST PUSH1 0x0 PUSH1 0x20 DUP3 DUP5 SUB SLT ISZERO PUSH2 0x1B88 JUMPI PUSH2 0x1B87 PUSH2 0x1B0F JUMP JUMPDEST JUMPDEST PUSH1 0x0 PUSH2 0x1B96 DUP5 DUP3 DUP6 ADD PUSH2 0x1B5D JUMP JUMPDEST SWAP2 POP POP SWAP3 SWAP2 POP POP JUMP JUMPDEST PUSH1 0x0 DUP2 SWAP1 POP SWAP2 SWAP1 POP JUMP JUMPDEST PUSH2 0x1BB2 DUP2 PUSH2 0x1B9F JUMP JUMPDEST DUP3 MSTORE POP POP JUMP JUMPDEST PUSH1 0x0 PUSH1 0x20 DUP3 ADD SWAP1 POP PUSH2 0x1BCD PUSH1 0x0 DUP4 ADD DUP5 PUSH2 0x1BA9 JUMP JUMPDEST SWAP3 SWAP2 POP POP JUMP JUMPDEST PUSH1 0x0 DUP2 ISZERO ISZERO SWAP1 POP SWAP2 SWAP1 POP JUMP JUMPDEST PUSH2 0x1BE8 DUP2 PUSH2 0x1BD3 JUMP JUMPDEST DUP2 EQ PUSH2 0x1BF3 JUMPI PUSH1 0x0 DUP1 REVERT JUMPDEST POP JUMP JUMPDEST PUSH1 0x0 DUP2 CALLDATALOAD SWAP1 POP PUSH2 0x1C05 DUP2 PUSH2 0x1BDF JUMP JUMPDEST SWAP3 SWAP2 POP POP JUMP JUMPDEST PUSH1 0x0 DUP1 PUSH1 0x40 DUP4 DUP6 SUB SLT ISZERO PUSH2 0x1C22 JUMPI PUSH2 0x1C21 PUSH2 0x1B0F JUMP JUMPDEST JUMPDEST PUSH1 0x0 PUSH2 0x1C30 DUP6 DUP3 DUP7 ADD PUSH2 0x1B5D JUMP JUMPDEST SWAP3 POP POP PUSH1 0x20 PUSH2 0x1C41 DUP6 DUP3 DUP7 ADD PUSH2 0x1BF6 JUMP JUMPDEST SWAP2 POP POP SWAP3 POP SWAP3 SWAP1 POP JUMP JUMPDEST PUSH2 0x1C54 DUP2 PUSH2 0x1BD3 JUMP JUMPDEST DUP3 MSTORE POP POP JUMP JUMPDEST PUSH1 0x0 PUSH1 0x20 DUP3 ADD SWAP1 POP PUSH2 0x1C6F PUSH1 0x0 DUP4 ADD DUP5 PUSH2 0x1C4B JUMP JUMPDEST SWAP3 SWAP2 POP POP JUMP JUMPDEST PUSH2 0x1C7E DUP2 PUSH2 0x1B9F JUMP JUMPDEST DUP2 EQ PUSH2 0x1C89 JUMPI PUSH1 0x0 DUP1 REVERT JUMPDEST POP JUMP JUMPDEST PUSH1 0x0 DUP2 CALLDATALOAD SWAP1 POP PUSH2 0x1C9B DUP2 PUSH2 0x1C75 JUMP JUMPDEST SWAP3 SWAP2 POP POP JUMP JUMPDEST PUSH1 0x0 PUSH1 0x20 DUP3 DUP5 SUB SLT ISZERO PUSH2 0x1CB7 JUMPI PUSH2 0x1CB6 PUSH2 0x1B0F JUMP JUMPDEST JUMPDEST PUSH1 0x0 PUSH2 0x1CC5 DUP5 DUP3 DUP6 ADD PUSH2 0x1C8C JUMP JUMPDEST SWAP2 POP POP SWAP3 SWAP2 POP POP JUMP JUMPDEST PUSH2 0x1CD7 DUP2 PUSH2 0x1B34 JUMP JUMPDEST DUP3 MSTORE POP POP JUMP JUMPDEST PUSH1 0x0 PUSH1 0x20 DUP3 ADD SWAP1 POP PUSH2 0x1CF2 PUSH1 0x0 DUP4 ADD DUP5 PUSH2 0x1CCE JUMP JUMPDEST SWAP3 SWAP2 POP POP JUMP JUMPDEST PUSH1 0x0 DUP1 PUSH1 0x40 DUP4 DUP6 SUB SLT ISZERO PUSH2 0x1D0F JUMPI PUSH2 0x1D0E PUSH2 0x1B0F JUMP JUMPDEST JUMPDEST PUSH1 0x0 PUSH2 0x1D1D DUP6 DUP3 DUP7 ADD PUSH2 0x1B5D JUMP JUMPDEST SWAP3 POP POP PUSH1 0x20 PUSH2 0x1D2E DUP6 DUP3 DUP7 ADD PUSH2 0x1C8C JUMP JUMPDEST SWAP2 POP POP SWAP3 POP SWAP3 SWAP1 POP JUMP JUMPDEST PUSH1 0x0 DUP2 SWAP1 POP SWAP2 SWAP1 POP JUMP JUMPDEST PUSH1 0x0 PUSH2 0x1D5D PUSH2 0x1D58 PUSH2 0x1D53 DUP5 PUSH2 0x1B14 JUMP JUMPDEST PUSH2 0x1D38 JUMP JUMPDEST PUSH2 0x1B14 JUMP JUMPDEST SWAP1 POP SWAP2 SWAP1 POP JUMP JUMPDEST PUSH1 0x0 PUSH2 0x1D6F DUP3 PUSH2 0x1D42 JUMP JUMPDEST SWAP1 POP SWAP2 SWAP1 POP JUMP JUMPDEST PUSH1 0x0 PUSH2 0x1D81 DUP3 PUSH2 0x1D64 JUMP JUMPDEST SWAP1 POP SWAP2 SWAP1 POP JUMP JUMPDEST PUSH2 0x1D91 DUP2 PUSH2 0x1D76 JUMP JUMPDEST DUP3 MSTORE POP POP JUMP JUMPDEST PUSH1 0x0 PUSH1 0x20 DUP3 ADD SWAP1 POP PUSH2 0x1DAC PUSH1 0x0 DUP4 ADD DUP5 PUSH2 0x1D88 JUMP JUMPDEST SWAP3 SWAP2 POP POP JUMP JUMPDEST PUSH1 0x0 DUP1 PUSH1 0x40 DUP4 DUP6 SUB SLT ISZERO PUSH2 0x1DC9 JUMPI PUSH2 0x1DC8 PUSH2 0x1B0F JUMP JUMPDEST JUMPDEST PUSH1 0x0 PUSH2 0x1DD7 DUP6 DUP3 DUP7 ADD PUSH2 0x1C8C JUMP JUMPDEST SWAP3 POP POP PUSH1 0x20 PUSH2 0x1DE8 DUP6 DUP3 DUP7 ADD PUSH2 0x1C8C JUMP JUMPDEST SWAP2 POP POP SWAP3 POP SWAP3 SWAP1 POP JUMP JUMPDEST PUSH1 0x0 DUP3 DUP3 MSTORE PUSH1 0x20 DUP3 ADD SWAP1 POP SWAP3 SWAP2 POP POP JUMP JUMPDEST PUSH32 0x41646D696E61626C653A2063616C6C6572206973206E6F7420746865206F776E PUSH1 0x0 DUP3 ADD MSTORE PUSH32 0x6572000000000000000000000000000000000000000000000000000000000000 PUSH1 0x20 DUP3 ADD MSTORE POP JUMP JUMPDEST PUSH1 0x0 PUSH2 0x1E5F PUSH1 0x22 DUP4 PUSH2 0x1DF2 JUMP JUMPDEST SWAP2 POP PUSH2 0x1E6A DUP3 PUSH2 0x1E03 JUMP JUMPDEST PUSH1 0x40 DUP3 ADD SWAP1 POP SWAP2 SWAP1 POP JUMP JUMPDEST PUSH1 0x0 PUSH1 0x20 DUP3 ADD SWAP1 POP DUP2 DUP2 SUB PUSH1 0x0 DUP4 ADD MSTORE PUSH2 0x1E8E DUP2 PUSH2 0x1E52 JUMP JUMPDEST SWAP1 POP SWAP2 SWAP1 POP JUMP JUMPDEST PUSH1 0x0 PUSH1 0x40 DUP3 ADD SWAP1 POP PUSH2 0x1EAA PUSH1 0x0 DUP4 ADD DUP6 PUSH2 0x1C4B JUMP JUMPDEST PUSH2 0x1EB7 PUSH1 0x20 DUP4 ADD DUP5 PUSH2 0x1C4B JUMP JUMPDEST SWAP4 SWAP3 POP POP POP JUMP JUMPDEST PUSH32 0x5265656E7472616E637947756172643A207265656E7472616E742063616C6C00 PUSH1 0x0 DUP3 ADD MSTORE POP JUMP JUMPDEST PUSH1 0x0 PUSH2 0x1EF4 PUSH1 0x1F DUP4 PUSH2 0x1DF2 JUMP JUMPDEST SWAP2 POP PUSH2 0x1EFF DUP3 PUSH2 0x1EBE JUMP JUMPDEST PUSH1 0x20 DUP3 ADD SWAP1 POP SWAP2 SWAP1 POP JUMP JUMPDEST PUSH1 0x0 PUSH1 0x20 DUP3 ADD SWAP1 POP DUP2 DUP2 SUB PUSH1 0x0 DUP4 ADD MSTORE PUSH2 0x1F23 DUP2 PUSH2 0x1EE7 JUMP JUMPDEST SWAP1 POP SWAP2 SWAP1 POP JUMP JUMPDEST PUSH1 0x0 PUSH1 0x40 DUP3 ADD SWAP1 POP PUSH2 0x1F3F PUSH1 0x0 DUP4 ADD DUP6 PUSH2 0x1CCE JUMP JUMPDEST PUSH2 0x1F4C PUSH1 0x20 DUP4 ADD DUP5 PUSH2 0x1BA9 JUMP JUMPDEST SWAP4 SWAP3 POP POP POP JUMP JUMPDEST PUSH1 0x0 DUP2 MLOAD SWAP1 POP PUSH2 0x1F62 DUP2 PUSH2 0x1BDF JUMP JUMPDEST SWAP3 SWAP2 POP POP JUMP JUMPDEST PUSH1 0x0 PUSH1 0x20 DUP3 DUP5 SUB SLT ISZERO PUSH2 0x1F7E JUMPI PUSH2 0x1F7D PUSH2 0x1B0F JUMP JUMPDEST JUMPDEST PUSH1 0x0 PUSH2 0x1F8C DUP5 DUP3 DUP6 ADD PUSH2 0x1F53 JUMP JUMPDEST SWAP2 POP POP SWAP3 SWAP2 POP POP JUMP JUMPDEST PUSH32 0x41646D696E61626C653A2063616C6C6572206973206E6F74207468652061646D PUSH1 0x0 DUP3 ADD MSTORE PUSH32 0x696E000000000000000000000000000000000000000000000000000000000000 PUSH1 0x20 DUP3 ADD MSTORE POP JUMP JUMPDEST PUSH1 0x0 PUSH2 0x1FF1 PUSH1 0x22 DUP4 PUSH2 0x1DF2 JUMP JUMPDEST SWAP2 POP PUSH2 0x1FFC DUP3 PUSH2 0x1F95 JUMP JUMPDEST PUSH1 0x40 DUP3 ADD SWAP1 POP SWAP2 SWAP1 POP JUMP JUMPDEST PUSH1 0x0 PUSH1 0x20 DUP3 ADD SWAP1 POP DUP2 DUP2 SUB PUSH1 0x0 DUP4 ADD MSTORE PUSH2 0x2020 DUP2 PUSH2 0x1FE4 JUMP JUMPDEST SWAP1 POP SWAP2 SWAP1 POP JUMP JUMPDEST PUSH32 0x4E487B7100000000000000000000000000000000000000000000000000000000 PUSH1 0x0 MSTORE PUSH1 0x11 PUSH1 0x4 MSTORE PUSH1 0x24 PUSH1 0x0 REVERT JUMPDEST PUSH1 0x0 PUSH2 0x2061 DUP3 PUSH2 0x1B9F JUMP JUMPDEST SWAP2 POP PUSH2 0x206C DUP4 PUSH2 0x1B9F JUMP JUMPDEST SWAP3 POP DUP3 DUP3 SUB SWAP1 POP DUP2 DUP2 GT ISZERO PUSH2 0x2084 JUMPI PUSH2 0x2083 PUSH2 0x2027 JUMP JUMPDEST JUMPDEST SWAP3 SWAP2 POP POP JUMP JUMPDEST PUSH32 0x4E487B7100000000000000000000000000000000000000000000000000000000 PUSH1 0x0 MSTORE PUSH1 0x12 PUSH1 0x4 MSTORE PUSH1 0x24 PUSH1 0x0 REVERT JUMPDEST PUSH1 0x0 PUSH2 0x20C4 DUP3 PUSH2 0x1B9F JUMP JUMPDEST SWAP2 POP PUSH2 0x20CF DUP4 PUSH2 0x1B9F JUMP JUMPDEST SWAP3 POP DUP3 PUSH2 0x20DF JUMPI PUSH2 0x20DE PUSH2 0x208A JUMP JUMPDEST JUMPDEST DUP3 DUP3 DIV SWAP1 POP SWAP3 SWAP2 POP POP JUMP JUMPDEST PUSH1 0x0 PUSH2 0x20F5 DUP3 PUSH2 0x1B9F JUMP JUMPDEST SWAP2 POP PUSH2 0x2100 DUP4 PUSH2 0x1B9F JUMP JUMPDEST SWAP3 POP DUP3 DUP3 ADD SWAP1 POP DUP1 DUP3 GT ISZERO PUSH2 0x2118 JUMPI PUSH2 0x2117 PUSH2 0x2027 JUMP JUMPDEST JUMPDEST SWAP3 SWAP2 POP POP JUMP JUMPDEST PUSH1 0x0 PUSH2 0x2129 DUP3 PUSH2 0x1B9F JUMP JUMPDEST SWAP2 POP PUSH2 0x2134 DUP4 PUSH2 0x1B9F JUMP JUMPDEST SWAP3 POP DUP3 DUP3 MUL PUSH2 0x2142 DUP2 PUSH2 0x1B9F JUMP JUMPDEST SWAP2 POP DUP3 DUP3 DIV DUP5 EQ DUP4 ISZERO OR PUSH2 0x2159 JUMPI PUSH2 0x2158 PUSH2 0x2027 JUMP JUMPDEST JUMPDEST POP SWAP3 SWAP2 POP POP JUMP JUMPDEST PUSH1 0x0 PUSH2 0x216B DUP3 PUSH2 0x1B9F JUMP JUMPDEST SWAP2 POP PUSH32 0xFFFFFFFFFFFFFFFFFFFFFFFFFFFFFFFFFFFFFFFFFFFFFFFFFFFFFFFFFFFFFFFF DUP3 SUB PUSH2 0x219D JUMPI PUSH2 0x219C PUSH2 0x2027 JUMP JUMPDEST JUMPDEST PUSH1 0x1 DUP3 ADD SWAP1 POP SWAP2 SWAP1 POP JUMP JUMPDEST PUSH32 0x43616E6E6F74207374616B652030000000000000000000000000000000000000 PUSH1 0x0 DUP3 ADD MSTORE POP JUMP JUMPDEST PUSH1 0x0 PUSH2 0x21DE PUSH1 0xE DUP4 PUSH2 0x1DF2 JUMP JUMPDEST SWAP2 POP PUSH2 0x21E9 DUP3 PUSH2 0x21A8 JUMP JUMPDEST PUSH1 0x20 DUP3 ADD SWAP1 POP SWAP2 SWAP1 POP JUMP JUMPDEST PUSH1 0x0 PUSH1 0x20 DUP3 ADD SWAP1 POP DUP2 DUP2 SUB PUSH1 0x0 DUP4 ADD MSTORE PUSH2 0x220D DUP2 PUSH2 0x21D1 JUMP JUMPDEST SWAP1 POP SWAP2 SWAP1 POP JUMP JUMPDEST PUSH1 0x0 PUSH2 0x221F DUP3 PUSH2 0x1B9F JUMP JUMPDEST SWAP2 POP PUSH2 0x222A DUP4 PUSH2 0x1B9F JUMP JUMPDEST SWAP3 POP DUP3 PUSH2 0x223A JUMPI PUSH2 0x2239 PUSH2 0x208A JUMP JUMPDEST JUMPDEST DUP3 DUP3 MOD SWAP1 POP SWAP3 SWAP2 POP POP JUMP JUMPDEST PUSH32 0x4F776E61626C653A206E6577206F776E657220697320746865207A65726F2061 PUSH1 0x0 DUP3 ADD MSTORE PUSH32 0x6464726573730000000000000000000000000000000000000000000000000000 PUSH1 0x20 DUP3 ADD MSTORE POP JUMP JUMPDEST PUSH1 0x0 PUSH2 0x22A1 PUSH1 0x26 DUP4 PUSH2 0x1DF2 JUMP JUMPDEST SWAP2 POP PUSH2 0x22AC DUP3 PUSH2 0x2245 JUMP JUMPDEST PUSH1 0x40 DUP3 ADD SWAP1 POP SWAP2 SWAP1 POP JUMP JUMPDEST PUSH1 0x0 PUSH1 0x20 DUP3 ADD SWAP1 POP DUP2 DUP2 SUB PUSH1 0x0 DUP4 ADD MSTORE PUSH2 0x22D0 DUP2 PUSH2 0x2294 JUMP JUMPDEST SWAP1 POP SWAP2 SWAP1 POP JUMP INVALID LOG2 PUSH5 0x6970667358 0x22 SLT KECCAK256 CALL 0xE3 EXP SWAP4 DIFFICULTY CALLDATALOAD PUSH26 0x49A61AD4DBB9B5455E72AC79E8D72208C3A55B8214E2FD706464 PUSH20 0x6F6C634300081100330000000000000000000000 "
				},
				"gasEstimates": {
					"creation": {
						"codeDepositCost": "1794600",
						"executionCost": "infinite",
						"totalCost": "infinite"
					},
					"external": {
						"curTime()": "425",
						"earned(address)": "infinite",
						"emergencyWithdraw()": "infinite",
						"emergencyWithdrawToken(address,uint256)": "infinite",
						"getCurRewardPool()": "infinite",
						"getCurRewardRate()": "infinite",
						"getRemainPool(uint256)": "infinite",
						"getReward()": "infinite",
						"getRewardPool(uint256)": "infinite",
						"getTimeWeightedAveRate(uint256,uint256)": "infinite",
						"isAdmin(address)": "2929",
						"lastTimeRewardApplicable()": "447",
						"lastUpdateTime()": "2518",
						"modificationAdmin(address,bool)": "infinite",
						"owner()": "2567",
						"powersOf(address)": "2908",
						"rateInterval()": "2519",
						"rateIntervalDenominator()": "2518",
						"rateIntervalNumerator()": "2497",
						"renounceOwnership()": "30419",
						"rewardPerToken(uint256)": "infinite",
						"rewardPerTokenStored()": "2539",
						"rewards(address)": "2883",
						"rewardsToken()": "infinite",
						"setRewardToken(address)": "27052",
						"setStartTime(uint256)": "24952",
						"stake(address,uint256)": "infinite",
						"startTime()": "2496",
						"totalPowers()": "2549",
						"totalRewards()": "2520",
						"transferOwnership(address)": "30852",
						"userLastUpdateTime(address)": "2860",
						"userRewardPerTokenPaid(address)": "2926"
					},
					"internal": {
						"_getRemainPool(uint256)": "infinite",
						"_getRewardRate(uint256)": "infinite"
					}
				},
				"methodIdentifiers": {
					"curTime()": "9a5b17b0",
					"earned(address)": "008cc262",
					"emergencyWithdraw()": "db2e21bc",
					"emergencyWithdrawToken(address,uint256)": "a4c3b091",
					"getCurRewardPool()": "9499c549",
					"getCurRewardRate()": "cdda56e0",
					"getRemainPool(uint256)": "4dbdc4eb",
					"getReward()": "3d18b912",
					"getRewardPool(uint256)": "5cfa91f4",
					"getTimeWeightedAveRate(uint256,uint256)": "da4f8431",
					"isAdmin(address)": "24d7806c",
					"lastTimeRewardApplicable()": "80faa57d",
					"lastUpdateTime()": "c8f33c91",
					"modificationAdmin(address,bool)": "18e20ecf",
					"owner()": "8da5cb5b",
					"powersOf(address)": "b79ec812",
					"rateInterval()": "6139d4b4",
					"rateIntervalDenominator()": "7a6fcee7",
					"rateIntervalNumerator()": "3c4045cf",
					"renounceOwnership()": "715018a6",
					"rewardPerToken(uint256)": "874c120b",
					"rewardPerTokenStored()": "df136d65",
					"rewards(address)": "0700037d",
					"rewardsToken()": "d1af0c7d",
					"setRewardToken(address)": "8aee8127",
					"setStartTime(uint256)": "3e0a322d",
					"stake(address,uint256)": "adc9772e",
					"startTime()": "78e97925",
					"totalPowers()": "6917c501",
					"totalRewards()": "0e15561a",
					"transferOwnership(address)": "f2fde38b",
					"userLastUpdateTime(address)": "8107368b",
					"userRewardPerTokenPaid(address)": "8b876347"
				}
			},
			"storageLayout": {
				"storage": [
					{
						"astId": 26,
						"contract": "inviter_presell/stake.sol:StakingRewards",
						"label": "_admins",
						"offset": 0,
						"slot": "0",
						"type": "t_mapping(t_address,t_bool)"
					},
					{
						"astId": 28,
						"contract": "inviter_presell/stake.sol:StakingRewards",
						"label": "_owner",
						"offset": 0,
						"slot": "1",
						"type": "t_address"
					},
					{
						"astId": 985,
						"contract": "inviter_presell/stake.sol:StakingRewards",
						"label": "_status",
						"offset": 0,
						"slot": "2",
						"type": "t_uint256"
					},
					{
						"astId": 192,
						"contract": "inviter_presell/stake.sol:StakingRewards",
						"label": "rewardsToken",
						"offset": 0,
						"slot": "3",
						"type": "t_contract(IERC20)1092"
					},
					{
						"astId": 196,
						"contract": "inviter_presell/stake.sol:StakingRewards",
						"label": "rewards",
						"offset": 0,
						"slot": "4",
						"type": "t_mapping(t_address,t_uint256)"
					},
					{
						"astId": 203,
						"contract": "inviter_presell/stake.sol:StakingRewards",
						"label": "totalRewards",
						"offset": 0,
						"slot": "5",
						"type": "t_uint256"
					},
					{
						"astId": 205,
						"contract": "inviter_presell/stake.sol:StakingRewards",
						"label": "startTime",
						"offset": 0,
						"slot": "6",
						"type": "t_uint256"
					},
					{
						"astId": 208,
						"contract": "inviter_presell/stake.sol:StakingRewards",
						"label": "rateInterval",
						"offset": 0,
						"slot": "7",
						"type": "t_uint256"
					},
					{
						"astId": 211,
						"contract": "inviter_presell/stake.sol:StakingRewards",
						"label": "rateIntervalNumerator",
						"offset": 0,
						"slot": "8",
						"type": "t_uint256"
					},
					{
						"astId": 214,
						"contract": "inviter_presell/stake.sol:StakingRewards",
						"label": "rateIntervalDenominator",
						"offset": 0,
						"slot": "9",
						"type": "t_uint256"
					},
					{
						"astId": 216,
						"contract": "inviter_presell/stake.sol:StakingRewards",
						"label": "lastUpdateTime",
						"offset": 0,
						"slot": "10",
						"type": "t_uint256"
					},
					{
						"astId": 218,
						"contract": "inviter_presell/stake.sol:StakingRewards",
						"label": "rewardPerTokenStored",
						"offset": 0,
						"slot": "11",
						"type": "t_uint256"
					},
					{
						"astId": 222,
						"contract": "inviter_presell/stake.sol:StakingRewards",
						"label": "userRewardPerTokenPaid",
						"offset": 0,
						"slot": "12",
						"type": "t_mapping(t_address,t_uint256)"
					},
					{
						"astId": 226,
						"contract": "inviter_presell/stake.sol:StakingRewards",
						"label": "userLastUpdateTime",
						"offset": 0,
						"slot": "13",
						"type": "t_mapping(t_address,t_uint256)"
					},
					{
						"astId": 228,
						"contract": "inviter_presell/stake.sol:StakingRewards",
						"label": "_totalPowers",
						"offset": 0,
						"slot": "14",
						"type": "t_uint256"
					},
					{
						"astId": 232,
						"contract": "inviter_presell/stake.sol:StakingRewards",
						"label": "_balances",
						"offset": 0,
						"slot": "15",
						"type": "t_mapping(t_address,t_uint256)"
					}
				],
				"types": {
					"t_address": {
						"encoding": "inplace",
						"label": "address",
						"numberOfBytes": "20"
					},
					"t_bool": {
						"encoding": "inplace",
						"label": "bool",
						"numberOfBytes": "1"
					},
					"t_contract(IERC20)1092": {
						"encoding": "inplace",
						"label": "contract IERC20",
						"numberOfBytes": "20"
					},
					"t_mapping(t_address,t_bool)": {
						"encoding": "mapping",
						"key": "t_address",
						"label": "mapping(address => bool)",
						"numberOfBytes": "32",
						"value": "t_bool"
					},
					"t_mapping(t_address,t_uint256)": {
						"encoding": "mapping",
						"key": "t_address",
						"label": "mapping(address => uint256)",
						"numberOfBytes": "32",
						"value": "t_uint256"
					},
					"t_uint256": {
						"encoding": "inplace",
						"label": "uint256",
						"numberOfBytes": "32"
					}
				}
			},
			"userdoc": {
				"kind": "user",
				"methods": {},
				"version": 1
			}
		}
	}
}