{
	"inviter_presell/test.sol": {
		"test": {
			"abi": [
				{
					"inputs": [],
					"name": "test2",
					"outputs": [],
					"stateMutability": "nonpayable",
					"type": "function"
				}
			],
			"devdoc": {
				"kind": "dev",
				"methods": {},
				"version": 1
			},
			"evm": {
				"assembly": "    /* \"inviter_presell/test.sol\":53:254  contract test {... */\n  mstore(0x40, 0x80)\n  callvalue\n  dup1\n  iszero\n  tag_1\n  jumpi\n  0x00\n  dup1\n  revert\ntag_1:\n  pop\n  dataSize(sub_0)\n  dup1\n  dataOffset(sub_0)\n  0x00\n  codecopy\n  0x00\n  return\nstop\n\nsub_0: assembly {\n        /* \"inviter_presell/test.sol\":53:254  contract test {... */\n      mstore(0x40, 0x80)\n      callvalue\n      dup1\n      iszero\n      tag_1\n      jumpi\n      0x00\n      dup1\n      revert\n    tag_1:\n      pop\n      jumpi(tag_2, lt(calldatasize, 0x04))\n      shr(0xe0, calldataload(0x00))\n      dup1\n      0x66e41cb7\n      eq\n      tag_3\n      jumpi\n    tag_2:\n      0x00\n      dup1\n      revert\n        /* \"inviter_presell/test.sol\":200:251  function test2() public  {... */\n    tag_3:\n      tag_4\n      tag_5\n      jump\t// in\n    tag_4:\n      stop\n    tag_5:\n        /* \"inviter_presell/test.sol\":236:243  test1() */\n      tag_7\n        /* \"inviter_presell/test.sol\":236:241  test1 */\n      tag_8\n        /* \"inviter_presell/test.sol\":236:243  test1() */\n      jump\t// in\n    tag_7:\n        /* \"inviter_presell/test.sol\":200:251  function test2() public  {... */\n      jump\t// out\n        /* \"inviter_presell/test.sol\":74:192  function test1() private {... */\n    tag_8:\n        /* \"inviter_presell/test.sol\":125:167  0x05c8dC15515300725Fb02899678E3AC95D264184 */\n      0x05c8dc15515300725fb02899678e3ac95d264184\n        /* \"inviter_presell/test.sol\":110:181  StakingRewards(0x05c8dC15515300725Fb02899678E3AC95D264184).setStartTime */\n      0xffffffffffffffffffffffffffffffffffffffff\n      and\n      0x3e0a322d\n        /* \"inviter_presell/test.sol\":182:183  1 */\n      0x01\n        /* \"inviter_presell/test.sol\":110:184  StakingRewards(0x05c8dC15515300725Fb02899678E3AC95D264184).setStartTime(1) */\n      mload(0x40)\n      dup3\n      0xffffffff\n      and\n      0xe0\n      shl\n      dup2\n      mstore\n      0x04\n      add\n      tag_10\n      swap2\n      swap1\n      tag_11\n      jump\t// in\n    tag_10:\n      0x00\n      mload(0x40)\n      dup1\n      dup4\n      sub\n      dup2\n      0x00\n      dup8\n      dup1\n      extcodesize\n      iszero\n      dup1\n      iszero\n      tag_12\n      jumpi\n      0x00\n      dup1\n      revert\n    tag_12:\n      pop\n      gas\n      call\n      iszero\n      dup1\n      iszero\n      tag_14\n      jumpi\n      returndatasize\n      0x00\n      dup1\n      returndatacopy\n      revert(0x00, returndatasize)\n    tag_14:\n      pop\n      pop\n      pop\n      pop\n        /* \"inviter_presell/test.sol\":74:192  function test1() private {... */\n      jump\t// out\n        /* \"#utility.yul\":7:92   */\n    tag_15:\n        /* \"#utility.yul\":52:59   */\n      0x00\n        /* \"#utility.yul\":81:86   */\n      dup2\n        /* \"#utility.yul\":70:86   */\n      swap1\n      pop\n        /* \"#utility.yul\":7:92   */\n      swap2\n      swap1\n      pop\n      jump\t// out\n        /* \"#utility.yul\":98:175   */\n    tag_16:\n        /* \"#utility.yul\":135:142   */\n      0x00\n        /* \"#utility.yul\":164:169   */\n      dup2\n        /* \"#utility.yul\":153:169   */\n      swap1\n      pop\n        /* \"#utility.yul\":98:175   */\n      swap2\n      swap1\n      pop\n      jump\t// out\n        /* \"#utility.yul\":181:241   */\n    tag_17:\n        /* \"#utility.yul\":209:212   */\n      0x00\n        /* \"#utility.yul\":230:235   */\n      dup2\n        /* \"#utility.yul\":223:235   */\n      swap1\n      pop\n        /* \"#utility.yul\":181:241   */\n      swap2\n      swap1\n      pop\n      jump\t// out\n        /* \"#utility.yul\":247:405   */\n    tag_18:\n        /* \"#utility.yul\":305:314   */\n      0x00\n        /* \"#utility.yul\":338:399   */\n      tag_25\n        /* \"#utility.yul\":356:398   */\n      tag_26\n        /* \"#utility.yul\":365:397   */\n      tag_27\n        /* \"#utility.yul\":391:396   */\n      dup5\n        /* \"#utility.yul\":365:397   */\n      tag_15\n      jump\t// in\n    tag_27:\n        /* \"#utility.yul\":356:398   */\n      tag_17\n      jump\t// in\n    tag_26:\n        /* \"#utility.yul\":338:399   */\n      tag_16\n      jump\t// in\n    tag_25:\n        /* \"#utility.yul\":325:399   */\n      swap1\n      pop\n        /* \"#utility.yul\":247:405   */\n      swap2\n      swap1\n      pop\n      jump\t// out\n        /* \"#utility.yul\":411:558   */\n    tag_19:\n        /* \"#utility.yul\":506:551   */\n      tag_29\n        /* \"#utility.yul\":545:550   */\n      dup2\n        /* \"#utility.yul\":506:551   */\n      tag_18\n      jump\t// in\n    tag_29:\n        /* \"#utility.yul\":501:504   */\n      dup3\n        /* \"#utility.yul\":494:552   */\n      mstore\n        /* \"#utility.yul\":411:558   */\n      pop\n      pop\n      jump\t// out\n        /* \"#utility.yul\":564:802   */\n    tag_11:\n        /* \"#utility.yul\":665:669   */\n      0x00\n        /* \"#utility.yul\":703:705   */\n      0x20\n        /* \"#utility.yul\":692:701   */\n      dup3\n        /* \"#utility.yul\":688:706   */\n      add\n        /* \"#utility.yul\":680:706   */\n      swap1\n      pop\n        /* \"#utility.yul\":716:795   */\n      tag_31\n        /* \"#utility.yul\":792:793   */\n      0x00\n        /* \"#utility.yul\":781:790   */\n      dup4\n        /* \"#utility.yul\":777:794   */\n      add\n        /* \"#utility.yul\":768:774   */\n      dup5\n        /* \"#utility.yul\":716:795   */\n      tag_19\n      jump\t// in\n    tag_31:\n        /* \"#utility.yul\":564:802   */\n      swap3\n      swap2\n      pop\n      pop\n      jump\t// out\n\n    auxdata: 0xa2646970667358221220cf46448c4fe64250d615200eb1e13d989658134198e6b05b6d32fba6afa4885164736f6c63430008110033\n}\n",
				"bytecode": {
					"linkReferences": {},
					"object": "608060405234801561001057600080fd5b50610166806100206000396000f3fe608060405234801561001057600080fd5b506004361061002b5760003560e01c806366e41cb714610030575b600080fd5b61003861003a565b005b610042610044565b565b7305c8dc15515300725fb02899678e3ac95d26418473ffffffffffffffffffffffffffffffffffffffff16633e0a322d60016040518263ffffffff1660e01b81526004016100929190610115565b600060405180830381600087803b1580156100ac57600080fd5b505af11580156100c0573d6000803e3d6000fd5b50505050565b6000819050919050565b6000819050919050565b6000819050919050565b60006100ff6100fa6100f5846100c6565b6100da565b6100d0565b9050919050565b61010f816100e4565b82525050565b600060208201905061012a6000830184610106565b9291505056fea2646970667358221220cf46448c4fe64250d615200eb1e13d989658134198e6b05b6d32fba6afa4885164736f6c63430008110033",
					"opcodes": "PUSH1 0x80 PUSH1 0x40 MSTORE CALLVALUE DUP1 ISZERO PUSH2 0x10 JUMPI PUSH1 0x0 DUP1 REVERT JUMPDEST POP PUSH2 0x166 DUP1 PUSH2 0x20 PUSH1 0x0 CODECOPY PUSH1 0x0 RETURN INVALID PUSH1 0x80 PUSH1 0x40 MSTORE CALLVALUE DUP1 ISZERO PUSH2 0x10 JUMPI PUSH1 0x0 DUP1 REVERT JUMPDEST POP PUSH1 0x4 CALLDATASIZE LT PUSH2 0x2B JUMPI PUSH1 0x0 CALLDATALOAD PUSH1 0xE0 SHR DUP1 PUSH4 0x66E41CB7 EQ PUSH2 0x30 JUMPI JUMPDEST PUSH1 0x0 DUP1 REVERT JUMPDEST PUSH2 0x38 PUSH2 0x3A JUMP JUMPDEST STOP JUMPDEST PUSH2 0x42 PUSH2 0x44 JUMP JUMPDEST JUMP JUMPDEST PUSH20 0x5C8DC15515300725FB02899678E3AC95D264184 PUSH20 0xFFFFFFFFFFFFFFFFFFFFFFFFFFFFFFFFFFFFFFFF AND PUSH4 0x3E0A322D PUSH1 0x1 PUSH1 0x40 MLOAD DUP3 PUSH4 0xFFFFFFFF AND PUSH1 0xE0 SHL DUP2 MSTORE PUSH1 0x4 ADD PUSH2 0x92 SWAP2 SWAP1 PUSH2 0x115 JUMP JUMPDEST PUSH1 0x0 PUSH1 0x40 MLOAD DUP1 DUP4 SUB DUP2 PUSH1 0x0 DUP8 DUP1 EXTCODESIZE ISZERO DUP1 ISZERO PUSH2 0xAC JUMPI PUSH1 0x0 DUP1 REVERT JUMPDEST POP GAS CALL ISZERO DUP1 ISZERO PUSH2 0xC0 JUMPI RETURNDATASIZE PUSH1 0x0 DUP1 RETURNDATACOPY RETURNDATASIZE PUSH1 0x0 REVERT JUMPDEST POP POP POP POP JUMP JUMPDEST PUSH1 0x0 DUP2 SWAP1 POP SWAP2 SWAP1 POP JUMP JUMPDEST PUSH1 0x0 DUP2 SWAP1 POP SWAP2 SWAP1 POP JUMP JUMPDEST PUSH1 0x0 DUP2 SWAP1 POP SWAP2 SWAP1 POP JUMP JUMPDEST PUSH1 0x0 PUSH2 0xFF PUSH2 0xFA PUSH2 0xF5 DUP5 PUSH2 0xC6 JUMP JUMPDEST PUSH2 0xDA JUMP JUMPDEST PUSH2 0xD0 JUMP JUMPDEST SWAP1 POP SWAP2 SWAP1 POP JUMP JUMPDEST PUSH2 0x10F DUP2 PUSH2 0xE4 JUMP JUMPDEST DUP3 MSTORE POP POP JUMP JUMPDEST PUSH1 0x0 PUSH1 0x20 DUP3 ADD SWAP1 POP PUSH2 0x12A PUSH1 0x0 DUP4 ADD DUP5 PUSH2 0x106 JUMP JUMPDEST SWAP3 SWAP2 POP POP JUMP INVALID LOG2 PUSH5 0x6970667358 0x22 SLT KECCAK256 0xCF CHAINID DIFFICULTY DUP13 0x4F 0xE6 TIMESTAMP POP 0xD6 ISZERO KECCAK256 0xE 0xB1 0xE1 RETURNDATASIZE SWAP9 SWAP7 PC SGT COINBASE SWAP9 0xE6 0xB0 JUMPDEST PUSH14 0x32FBA6AFA4885164736F6C634300 ADDMOD GT STOP CALLER "
				},
				"gasEstimates": {
					"creation": {
						"codeDepositCost": "71600",
						"executionCost": "123",
						"totalCost": "71723"
					},
					"external": {
						"test2()": "infinite"
					},
					"internal": {
						"test1()": "infinite"
					}
				},
				"methodIdentifiers": {
					"test2()": "66e41cb7"
				}
			},
			"storageLayout": {
				"storage": [],
				"types": null
			},
			"userdoc": {
				"kind": "user",
				"methods": {},
				"version": 1
			}
		}
	}
}