{
	"inviter_presell/stake.sol": {
		"StakingRewards": {
			"abi": [
				{
					"anonymous": false,
					"inputs": [
						{
							"indexed": true,
							"internalType": "address",
							"name": "admin",
							"type": "address"
						},
						{
							"indexed": false,
							"internalType": "bool",
							"name": "oldState",
							"type": "bool"
						},
						{
							"indexed": false,
							"internalType": "bool",
							"name": "newState",
							"type": "bool"
						}
					],
					"name": "ModificationAdmin",
					"type": "event"
				},
				{
					"anonymous": false,
					"inputs": [
						{
							"indexed": true,
							"internalType": "address",
							"name": "previousOwner",
							"type": "address"
						},
						{
							"indexed": true,
							"internalType": "address",
							"name": "newOwner",
							"type": "address"
						}
					],
					"name": "OwnershipTransferred",
					"type": "event"
				},
				{
					"anonymous": false,
					"inputs": [
						{
							"indexed": true,
							"internalType": "address",
							"name": "user",
							"type": "address"
						},
						{
							"indexed": false,
							"internalType": "uint256",
							"name": "reward",
							"type": "uint256"
						}
					],
					"name": "RewardPaid",
					"type": "event"
				},
				{
					"anonymous": false,
					"inputs": [
						{
							"indexed": true,
							"internalType": "address",
							"name": "user",
							"type": "address"
						},
						{
							"indexed": false,
							"internalType": "uint256",
							"name": "amount",
							"type": "uint256"
						}
					],
					"name": "Staked",
					"type": "event"
				},
				{
					"inputs": [
						{
							"internalType": "address",
							"name": "",
							"type": "address"
						}
					],
					"name": "claimedBalances",
					"outputs": [
						{
							"internalType": "uint256",
							"name": "",
							"type": "uint256"
						}
					],
					"stateMutability": "view",
					"type": "function"
				},
				{
					"inputs": [],
					"name": "curTime",
					"outputs": [
						{
							"internalType": "uint256",
							"name": "",
							"type": "uint256"
						}
					],
					"stateMutability": "view",
					"type": "function"
				},
				{
					"inputs": [
						{
							"internalType": "address",
							"name": "account",
							"type": "address"
						}
					],
					"name": "earned",
					"outputs": [
						{
							"internalType": "uint256",
							"name": "",
							"type": "uint256"
						}
					],
					"stateMutability": "view",
					"type": "function"
				},
				{
					"inputs": [],
					"name": "emergencyWithdraw",
					"outputs": [],
					"stateMutability": "nonpayable",
					"type": "function"
				},
				{
					"inputs": [
						{
							"internalType": "address",
							"name": "token",
							"type": "address"
						},
						{
							"internalType": "uint256",
							"name": "amount",
							"type": "uint256"
						}
					],
					"name": "emergencyWithdrawToken",
					"outputs": [],
					"stateMutability": "nonpayable",
					"type": "function"
				},
				{
					"inputs": [],
					"name": "getCurRewardPool",
					"outputs": [
						{
							"internalType": "uint256",
							"name": "",
							"type": "uint256"
						}
					],
					"stateMutability": "view",
					"type": "function"
				},
				{
					"inputs": [],
					"name": "getCurRewardRate",
					"outputs": [
						{
							"internalType": "uint256",
							"name": "",
							"type": "uint256"
						}
					],
					"stateMutability": "view",
					"type": "function"
				},
				{
					"inputs": [
						{
							"internalType": "uint256",
							"name": "time",
							"type": "uint256"
						}
					],
					"name": "getRemainPool",
					"outputs": [
						{
							"internalType": "uint256",
							"name": "",
							"type": "uint256"
						}
					],
					"stateMutability": "view",
					"type": "function"
				},
				{
					"inputs": [],
					"name": "getReward",
					"outputs": [],
					"stateMutability": "nonpayable",
					"type": "function"
				},
				{
					"inputs": [
						{
							"internalType": "uint256",
							"name": "time",
							"type": "uint256"
						}
					],
					"name": "getRewardPool",
					"outputs": [
						{
							"internalType": "uint256",
							"name": "",
							"type": "uint256"
						}
					],
					"stateMutability": "view",
					"type": "function"
				},
				{
					"inputs": [
						{
							"internalType": "uint256",
							"name": "leftTime",
							"type": "uint256"
						},
						{
							"internalType": "uint256",
							"name": "rightTime",
							"type": "uint256"
						}
					],
					"name": "getTimeWeightedAveRate",
					"outputs": [
						{
							"internalType": "uint256",
							"name": "",
							"type": "uint256"
						}
					],
					"stateMutability": "view",
					"type": "function"
				},
				{
					"inputs": [
						{
							"internalType": "address",
							"name": "account",
							"type": "address"
						}
					],
					"name": "isAdmin",
					"outputs": [
						{
							"internalType": "bool",
							"name": "",
							"type": "bool"
						}
					],
					"stateMutability": "view",
					"type": "function"
				},
				{
					"inputs": [],
					"name": "lastTimeRewardApplicable",
					"outputs": [
						{
							"internalType": "uint256",
							"name": "",
							"type": "uint256"
						}
					],
					"stateMutability": "view",
					"type": "function"
				},
				{
					"inputs": [],
					"name": "lastUpdateTime",
					"outputs": [
						{
							"internalType": "uint256",
							"name": "",
							"type": "uint256"
						}
					],
					"stateMutability": "view",
					"type": "function"
				},
				{
					"inputs": [
						{
							"internalType": "address",
							"name": "admin",
							"type": "address"
						},
						{
							"internalType": "bool",
							"name": "state",
							"type": "bool"
						}
					],
					"name": "modificationAdmin",
					"outputs": [],
					"stateMutability": "nonpayable",
					"type": "function"
				},
				{
					"inputs": [],
					"name": "owner",
					"outputs": [
						{
							"internalType": "address",
							"name": "",
							"type": "address"
						}
					],
					"stateMutability": "view",
					"type": "function"
				},
				{
					"inputs": [
						{
							"internalType": "address",
							"name": "account",
							"type": "address"
						}
					],
					"name": "powersOf",
					"outputs": [
						{
							"internalType": "uint256",
							"name": "",
							"type": "uint256"
						}
					],
					"stateMutability": "view",
					"type": "function"
				},
				{
					"inputs": [],
					"name": "rateInterval",
					"outputs": [
						{
							"internalType": "uint256",
							"name": "",
							"type": "uint256"
						}
					],
					"stateMutability": "view",
					"type": "function"
				},
				{
					"inputs": [],
					"name": "rateIntervalDenominator",
					"outputs": [
						{
							"internalType": "uint256",
							"name": "",
							"type": "uint256"
						}
					],
					"stateMutability": "view",
					"type": "function"
				},
				{
					"inputs": [],
					"name": "rateIntervalNumerator",
					"outputs": [
						{
							"internalType": "uint256",
							"name": "",
							"type": "uint256"
						}
					],
					"stateMutability": "view",
					"type": "function"
				},
				{
					"inputs": [],
					"name": "renounceOwnership",
					"outputs": [],
					"stateMutability": "nonpayable",
					"type": "function"
				},
				{
					"inputs": [
						{
							"internalType": "uint256",
							"name": "rewardRate",
							"type": "uint256"
						}
					],
					"name": "rewardPerToken",
					"outputs": [
						{
							"internalType": "uint256",
							"name": "",
							"type": "uint256"
						}
					],
					"stateMutability": "view",
					"type": "function"
				},
				{
					"inputs": [],
					"name": "rewardPerTokenStored",
					"outputs": [
						{
							"internalType": "uint256",
							"name": "",
							"type": "uint256"
						}
					],
					"stateMutability": "view",
					"type": "function"
				},
				{
					"inputs": [
						{
							"internalType": "address",
							"name": "",
							"type": "address"
						}
					],
					"name": "rewards",
					"outputs": [
						{
							"internalType": "uint256",
							"name": "",
							"type": "uint256"
						}
					],
					"stateMutability": "view",
					"type": "function"
				},
				{
					"inputs": [],
					"name": "rewardsToken",
					"outputs": [
						{
							"internalType": "contract IERC20",
							"name": "",
							"type": "address"
						}
					],
					"stateMutability": "view",
					"type": "function"
				},
				{
					"inputs": [
						{
							"internalType": "uint256",
							"name": "_rateInterval",
							"type": "uint256"
						},
						{
							"internalType": "uint256",
							"name": "_rateIntervalNumerator",
							"type": "uint256"
						},
						{
							"internalType": "uint256",
							"name": "_rateIntervalDenominator",
							"type": "uint256"
						}
					],
					"name": "setConfig",
					"outputs": [],
					"stateMutability": "nonpayable",
					"type": "function"
				},
				{
					"inputs": [
						{
							"internalType": "address",
							"name": "token",
							"type": "address"
						}
					],
					"name": "setRewardToken",
					"outputs": [],
					"stateMutability": "nonpayable",
					"type": "function"
				},
				{
					"inputs": [
						{
							"internalType": "uint256",
							"name": "time",
							"type": "uint256"
						}
					],
					"name": "setStartTime",
					"outputs": [],
					"stateMutability": "nonpayable",
					"type": "function"
				},
				{
					"inputs": [
						{
							"internalType": "uint256",
							"name": "amount",
							"type": "uint256"
						}
					],
					"name": "setTotalRewards",
					"outputs": [],
					"stateMutability": "nonpayable",
					"type": "function"
				},
				{
					"inputs": [
						{
							"internalType": "address",
							"name": "user",
							"type": "address"
						},
						{
							"internalType": "uint256",
							"name": "amount",
							"type": "uint256"
						}
					],
					"name": "stake",
					"outputs": [],
					"stateMutability": "nonpayable",
					"type": "function"
				},
				{
					"inputs": [],
					"name": "startTime",
					"outputs": [
						{
							"internalType": "uint256",
							"name": "",
							"type": "uint256"
						}
					],
					"stateMutability": "view",
					"type": "function"
				},
				{
					"inputs": [],
					"name": "totalPowers",
					"outputs": [
						{
							"internalType": "uint256",
							"name": "",
							"type": "uint256"
						}
					],
					"stateMutability": "view",
					"type": "function"
				},
				{
					"inputs": [],
					"name": "totalRewards",
					"outputs": [
						{
							"internalType": "uint256",
							"name": "",
							"type": "uint256"
						}
					],
					"stateMutability": "view",
					"type": "function"
				},
				{
					"inputs": [
						{
							"internalType": "address",
							"name": "newOwner",
							"type": "address"
						}
					],
					"name": "transferOwnership",
					"outputs": [],
					"stateMutability": "nonpayable",
					"type": "function"
				},
				{
					"inputs": [
						{
							"internalType": "address",
							"name": "",
							"type": "address"
						}
					],
					"name": "userLastUpdateTime",
					"outputs": [
						{
							"internalType": "uint256",
							"name": "",
							"type": "uint256"
						}
					],
					"stateMutability": "view",
					"type": "function"
				},
				{
					"inputs": [
						{
							"internalType": "address",
							"name": "",
							"type": "address"
						}
					],
					"name": "userRewardPerTokenPaid",
					"outputs": [
						{
							"internalType": "uint256",
							"name": "",
							"type": "uint256"
						}
					],
					"stateMutability": "view",
					"type": "function"
				}
			],
			"devdoc": {
				"kind": "dev",
				"methods": {},
				"version": 1
			},
			"evm": {
				"assembly": "    /* \"inviter_presell/stake.sol\":362:7809  contract StakingRewards is Adminable , ReentrancyGuard{... */\n  mstore(0x40, 0x80)\n    /* \"inviter_presell/stake.sol\":566:583  168000 * 10 ** 18 */\n  0x23934c5a09da19000000\n    /* \"inviter_presell/stake.sol\":536:583  uint256 public totalRewards = 168000 * 10 ** 18 */\n  0x05\n  sstore\n    /* \"inviter_presell/stake.sol\":649:655  1 days */\n  0x015180\n    /* \"inviter_presell/stake.sol\":619:655  uint256 public rateInterval = 1 days */\n  0x07\n  sstore\n    /* \"inviter_presell/stake.sol\":700:701  5 */\n  0x05\n    /* \"inviter_presell/stake.sol\":661:701  uint256 public rateIntervalNumerator = 5 */\n  0x08\n  sstore\n    /* \"inviter_presell/stake.sol\":748:752  1000 */\n  0x03e8\n    /* \"inviter_presell/stake.sol\":707:752  uint256 public rateIntervalDenominator = 1000 */\n  0x09\n  sstore\n    /* \"inviter_presell/stake.sol\":362:7809  contract StakingRewards is Adminable , ReentrancyGuard{... */\n  callvalue\n  dup1\n  iszero\n  tag_1\n  jumpi\n  0x00\n  dup1\n  revert\ntag_1:\n  pop\n    /* \"inviter_presell/adminable.sol\":581:613  _transferOwnership(_msgSender()) */\n  tag_5\n    /* \"inviter_presell/adminable.sol\":600:612  _msgSender() */\n  tag_6\n    /* \"inviter_presell/adminable.sol\":600:610  _msgSender */\n  shl(0x20, tag_7)\n    /* \"inviter_presell/adminable.sol\":600:612  _msgSender() */\n  0x20\n  shr\n  jump\t// in\ntag_6:\n    /* \"inviter_presell/adminable.sol\":581:599  _transferOwnership */\n  shl(0x20, tag_8)\n    /* \"inviter_presell/adminable.sol\":581:613  _transferOwnership(_msgSender()) */\n  0x20\n  shr\n  jump\t// in\ntag_5:\n    /* \"node_modules/@openzeppelin/contracts/security/ReentrancyGuard.sol\":1701:1702  1 */\n  0x01\n    /* \"node_modules/@openzeppelin/contracts/security/ReentrancyGuard.sol\":1806:1813  _status */\n  0x02\n    /* \"node_modules/@openzeppelin/contracts/security/ReentrancyGuard.sol\":1806:1828  _status = _NOT_ENTERED */\n  dup2\n  swap1\n  sstore\n  pop\n    /* \"inviter_presell/stake.sol\":362:7809  contract StakingRewards is Adminable , ReentrancyGuard{... */\n  jump(tag_10)\n    /* \"inviter_presell/adminable.sol\":59:155  function _msgSender() internal view virtual returns (address) {... */\ntag_7:\n    /* \"inviter_presell/adminable.sol\":112:119  address */\n  0x00\n    /* \"inviter_presell/adminable.sol\":138:148  msg.sender */\n  caller\n    /* \"inviter_presell/adminable.sol\":131:148  return msg.sender */\n  swap1\n  pop\n    /* \"inviter_presell/adminable.sol\":59:155  function _msgSender() internal view virtual returns (address) {... */\n  swap1\n  jump\t// out\n    /* \"inviter_presell/adminable.sol\":1391:1578  function _transferOwnership(address newOwner) internal virtual {... */\ntag_8:\n    /* \"inviter_presell/adminable.sol\":1464:1480  address oldOwner */\n  0x00\n    /* \"inviter_presell/adminable.sol\":1483:1489  _owner */\n  0x01\n  0x00\n  swap1\n  sload\n  swap1\n  0x0100\n  exp\n  swap1\n  div\n  0xffffffffffffffffffffffffffffffffffffffff\n  and\n    /* \"inviter_presell/adminable.sol\":1464:1489  address oldOwner = _owner */\n  swap1\n  pop\n    /* \"inviter_presell/adminable.sol\":1508:1516  newOwner */\n  dup2\n    /* \"inviter_presell/adminable.sol\":1499:1505  _owner */\n  0x01\n  0x00\n    /* \"inviter_presell/adminable.sol\":1499:1516  _owner = newOwner */\n  0x0100\n  exp\n  dup2\n  sload\n  dup2\n  0xffffffffffffffffffffffffffffffffffffffff\n  mul\n  not\n  and\n  swap1\n  dup4\n  0xffffffffffffffffffffffffffffffffffffffff\n  and\n  mul\n  or\n  swap1\n  sstore\n  pop\n    /* \"inviter_presell/adminable.sol\":1562:1570  newOwner */\n  dup2\n    /* \"inviter_presell/adminable.sol\":1531:1571  OwnershipTransferred(oldOwner, newOwner) */\n  0xffffffffffffffffffffffffffffffffffffffff\n  and\n    /* \"inviter_presell/adminable.sol\":1552:1560  oldOwner */\n  dup2\n    /* \"inviter_presell/adminable.sol\":1531:1571  OwnershipTransferred(oldOwner, newOwner) */\n  0xffffffffffffffffffffffffffffffffffffffff\n  and\n  0x8be0079c531659141344cd1fd0a4f28419497f9722a3daafe3b4186f6b6457e0\n  mload(0x40)\n  mload(0x40)\n  dup1\n  swap2\n  sub\n  swap1\n  log3\n    /* \"inviter_presell/adminable.sol\":1454:1578  {... */\n  pop\n    /* \"inviter_presell/adminable.sol\":1391:1578  function _transferOwnership(address newOwner) internal virtual {... */\n  pop\n  jump\t// out\n    /* \"inviter_presell/stake.sol\":362:7809  contract StakingRewards is Adminable , ReentrancyGuard{... */\ntag_10:\n  dataSize(sub_0)\n  dup1\n  dataOffset(sub_0)\n  0x00\n  codecopy\n  0x00\n  return\nstop\n\nsub_0: assembly {\n        /* \"inviter_presell/stake.sol\":362:7809  contract StakingRewards is Adminable , ReentrancyGuard{... */\n      mstore(0x40, 0x80)\n      callvalue\n      dup1\n      iszero\n      tag_1\n      jumpi\n      0x00\n      dup1\n      revert\n    tag_1:\n      pop\n      jumpi(tag_2, lt(calldatasize, 0x04))\n      shr(0xe0, calldataload(0x00))\n      dup1\n      0x874c120b\n      gt\n      tag_39\n      jumpi\n      dup1\n      0xb79ec812\n      gt\n      tag_40\n      jumpi\n      dup1\n      0xd42b779d\n      gt\n      tag_41\n      jumpi\n      dup1\n      0xd42b779d\n      eq\n      tag_34\n      jumpi\n      dup1\n      0xda4f8431\n      eq\n      tag_35\n      jumpi\n      dup1\n      0xdb2e21bc\n      eq\n      tag_36\n      jumpi\n      dup1\n      0xdf136d65\n      eq\n      tag_37\n      jumpi\n      dup1\n      0xf2fde38b\n      eq\n      tag_38\n      jumpi\n      jump(tag_2)\n    tag_41:\n      dup1\n      0xb79ec812\n      eq\n      tag_30\n      jumpi\n      dup1\n      0xc8f33c91\n      eq\n      tag_31\n      jumpi\n      dup1\n      0xcdda56e0\n      eq\n      tag_32\n      jumpi\n      dup1\n      0xd1af0c7d\n      eq\n      tag_33\n      jumpi\n      jump(tag_2)\n    tag_40:\n      dup1\n      0x92735675\n      gt\n      tag_42\n      jumpi\n      dup1\n      0x92735675\n      eq\n      tag_25\n      jumpi\n      dup1\n      0x9499c549\n      eq\n      tag_26\n      jumpi\n      dup1\n      0x9a5b17b0\n      eq\n      tag_27\n      jumpi\n      dup1\n      0xa4c3b091\n      eq\n      tag_28\n      jumpi\n      dup1\n      0xadc9772e\n      eq\n      tag_29\n      jumpi\n      jump(tag_2)\n    tag_42:\n      dup1\n      0x874c120b\n      eq\n      tag_21\n      jumpi\n      dup1\n      0x8aee8127\n      eq\n      tag_22\n      jumpi\n      dup1\n      0x8b876347\n      eq\n      tag_23\n      jumpi\n      dup1\n      0x8da5cb5b\n      eq\n      tag_24\n      jumpi\n      jump(tag_2)\n    tag_39:\n      dup1\n      0x4dbdc4eb\n      gt\n      tag_43\n      jumpi\n      dup1\n      0x715018a6\n      gt\n      tag_44\n      jumpi\n      dup1\n      0x715018a6\n      eq\n      tag_16\n      jumpi\n      dup1\n      0x78e97925\n      eq\n      tag_17\n      jumpi\n      dup1\n      0x7a6fcee7\n      eq\n      tag_18\n      jumpi\n      dup1\n      0x80faa57d\n      eq\n      tag_19\n      jumpi\n      dup1\n      0x8107368b\n      eq\n      tag_20\n      jumpi\n      jump(tag_2)\n    tag_44:\n      dup1\n      0x4dbdc4eb\n      eq\n      tag_12\n      jumpi\n      dup1\n      0x5cfa91f4\n      eq\n      tag_13\n      jumpi\n      dup1\n      0x6139d4b4\n      eq\n      tag_14\n      jumpi\n      dup1\n      0x6917c501\n      eq\n      tag_15\n      jumpi\n      jump(tag_2)\n    tag_43:\n      dup1\n      0x18e20ecf\n      gt\n      tag_45\n      jumpi\n      dup1\n      0x18e20ecf\n      eq\n      tag_7\n      jumpi\n      dup1\n      0x24d7806c\n      eq\n      tag_8\n      jumpi\n      dup1\n      0x3c4045cf\n      eq\n      tag_9\n      jumpi\n      dup1\n      0x3d18b912\n      eq\n      tag_10\n      jumpi\n      dup1\n      0x3e0a322d\n      eq\n      tag_11\n      jumpi\n      jump(tag_2)\n    tag_45:\n      dup1\n      0x8cc262\n      eq\n      tag_3\n      jumpi\n      dup1\n      0x0700037d\n      eq\n      tag_4\n      jumpi\n      dup1\n      0x0e15561a\n      eq\n      tag_5\n      jumpi\n      dup1\n      0x129ee21a\n      eq\n      tag_6\n      jumpi\n    tag_2:\n      0x00\n      dup1\n      revert\n        /* \"inviter_presell/stake.sol\":4974:5267  function earned(address account) public view returns (uint256) {... */\n    tag_3:\n      tag_46\n      0x04\n      dup1\n      calldatasize\n      sub\n      dup2\n      add\n      swap1\n      tag_47\n      swap2\n      swap1\n      tag_48\n      jump\t// in\n    tag_47:\n      tag_49\n      jump\t// in\n    tag_46:\n      mload(0x40)\n      tag_50\n      swap2\n      swap1\n      tag_51\n      jump\t// in\n    tag_50:\n      mload(0x40)\n      dup1\n      swap2\n      sub\n      swap1\n      return\n        /* \"inviter_presell/stake.sol\":487:529  mapping(address => uint256) public rewards */\n    tag_4:\n      tag_52\n      0x04\n      dup1\n      calldatasize\n      sub\n      dup2\n      add\n      swap1\n      tag_53\n      swap2\n      swap1\n      tag_48\n      jump\t// in\n    tag_53:\n      tag_54\n      jump\t// in\n    tag_52:\n      mload(0x40)\n      tag_55\n      swap2\n      swap1\n      tag_51\n      jump\t// in\n    tag_55:\n      mload(0x40)\n      dup1\n      swap2\n      sub\n      swap1\n      return\n        /* \"inviter_presell/stake.sol\":536:583  uint256 public totalRewards = 168000 * 10 ** 18 */\n    tag_5:\n      tag_56\n      tag_57\n      jump\t// in\n    tag_56:\n      mload(0x40)\n      tag_58\n      swap2\n      swap1\n      tag_51\n      jump\t// in\n    tag_58:\n      mload(0x40)\n      dup1\n      swap2\n      sub\n      swap1\n      return\n        /* \"inviter_presell/stake.sol\":1686:1974  function setConfig(uint256 _rateInterval, uint256 _rateIntervalNumerator, uint256 _rateIntervalDenominator) external onlyOwner {... */\n    tag_6:\n      tag_59\n      0x04\n      dup1\n      calldatasize\n      sub\n      dup2\n      add\n      swap1\n      tag_60\n      swap2\n      swap1\n      tag_61\n      jump\t// in\n    tag_60:\n      tag_62\n      jump\t// in\n    tag_59:\n      stop\n        /* \"inviter_presell/adminable.sol\":1584:1765  function modificationAdmin(address admin, bool state) public virtual onlyOwner {... */\n    tag_7:\n      tag_63\n      0x04\n      dup1\n      calldatasize\n      sub\n      dup2\n      add\n      swap1\n      tag_64\n      swap2\n      swap1\n      tag_65\n      jump\t// in\n    tag_64:\n      tag_66\n      jump\t// in\n    tag_63:\n      stop\n        /* \"inviter_presell/adminable.sol\":965:1074  function isAdmin(address account) public view virtual returns (bool) {... */\n    tag_8:\n      tag_67\n      0x04\n      dup1\n      calldatasize\n      sub\n      dup2\n      add\n      swap1\n      tag_68\n      swap2\n      swap1\n      tag_48\n      jump\t// in\n    tag_68:\n      tag_69\n      jump\t// in\n    tag_67:\n      mload(0x40)\n      tag_70\n      swap2\n      swap1\n      tag_71\n      jump\t// in\n    tag_70:\n      mload(0x40)\n      dup1\n      swap2\n      sub\n      swap1\n      return\n        /* \"inviter_presell/stake.sol\":661:701  uint256 public rateIntervalNumerator = 5 */\n    tag_9:\n      tag_72\n      tag_73\n      jump\t// in\n    tag_72:\n      mload(0x40)\n      tag_74\n      swap2\n      swap1\n      tag_51\n      jump\t// in\n    tag_74:\n      mload(0x40)\n      dup1\n      swap2\n      sub\n      swap1\n      return\n        /* \"inviter_presell/stake.sol\":6963:7312  function getReward() external nonReentrant updateReward(msg.sender) {... */\n    tag_10:\n      tag_75\n      tag_76\n      jump\t// in\n    tag_75:\n      stop\n        /* \"inviter_presell/stake.sol\":1980:2099  function setStartTime(uint256 time) external onlyAdmin {... */\n    tag_11:\n      tag_77\n      0x04\n      dup1\n      calldatasize\n      sub\n      dup2\n      add\n      swap1\n      tag_78\n      swap2\n      swap1\n      tag_79\n      jump\t// in\n    tag_78:\n      tag_80\n      jump\t// in\n    tag_77:\n      stop\n        /* \"inviter_presell/stake.sol\":3697:4167  function getRemainPool(uint256 time) public view returns (uint256) {... */\n    tag_12:\n      tag_81\n      0x04\n      dup1\n      calldatasize\n      sub\n      dup2\n      add\n      swap1\n      tag_82\n      swap2\n      swap1\n      tag_79\n      jump\t// in\n    tag_82:\n      tag_83\n      jump\t// in\n    tag_81:\n      mload(0x40)\n      tag_84\n      swap2\n      swap1\n      tag_51\n      jump\t// in\n    tag_84:\n      mload(0x40)\n      dup1\n      swap2\n      sub\n      swap1\n      return\n        /* \"inviter_presell/stake.sol\":2636:3149  function getRewardPool(uint256 time) public view returns (uint256) {... */\n    tag_13:\n      tag_85\n      0x04\n      dup1\n      calldatasize\n      sub\n      dup2\n      add\n      swap1\n      tag_86\n      swap2\n      swap1\n      tag_79\n      jump\t// in\n    tag_86:\n      tag_87\n      jump\t// in\n    tag_85:\n      mload(0x40)\n      tag_88\n      swap2\n      swap1\n      tag_51\n      jump\t// in\n    tag_88:\n      mload(0x40)\n      dup1\n      swap2\n      sub\n      swap1\n      return\n        /* \"inviter_presell/stake.sol\":619:655  uint256 public rateInterval = 1 days */\n    tag_14:\n      tag_89\n      tag_90\n      jump\t// in\n    tag_89:\n      mload(0x40)\n      tag_91\n      swap2\n      swap1\n      tag_51\n      jump\t// in\n    tag_91:\n      mload(0x40)\n      dup1\n      swap2\n      sub\n      swap1\n      return\n        /* \"inviter_presell/stake.sol\":2105:2196  function totalPowers() external view returns (uint256) {... */\n    tag_15:\n      tag_92\n      tag_93\n      jump\t// in\n    tag_92:\n      mload(0x40)\n      tag_94\n      swap2\n      swap1\n      tag_51\n      jump\t// in\n    tag_94:\n      mload(0x40)\n      dup1\n      swap2\n      sub\n      swap1\n      return\n        /* \"inviter_presell/adminable.sol\":1080:1181  function renounceOwnership() public virtual onlyOwner {... */\n    tag_16:\n      tag_95\n      tag_96\n      jump\t// in\n    tag_95:\n      stop\n        /* \"inviter_presell/stake.sol\":589:613  uint256 public startTime */\n    tag_17:\n      tag_97\n      tag_98\n      jump\t// in\n    tag_97:\n      mload(0x40)\n      tag_99\n      swap2\n      swap1\n      tag_51\n      jump\t// in\n    tag_99:\n      mload(0x40)\n      dup1\n      swap2\n      sub\n      swap1\n      return\n        /* \"inviter_presell/stake.sol\":707:752  uint256 public rateIntervalDenominator = 1000 */\n    tag_18:\n      tag_100\n      tag_101\n      jump\t// in\n    tag_100:\n      mload(0x40)\n      tag_102\n      swap2\n      swap1\n      tag_51\n      jump\t// in\n    tag_102:\n      mload(0x40)\n      dup1\n      swap2\n      sub\n      swap1\n      return\n        /* \"inviter_presell/stake.sol\":4517:4622  function lastTimeRewardApplicable() public view returns (uint256) {... */\n    tag_19:\n      tag_103\n      tag_104\n      jump\t// in\n    tag_103:\n      mload(0x40)\n      tag_105\n      swap2\n      swap1\n      tag_51\n      jump\t// in\n    tag_105:\n      mload(0x40)\n      dup1\n      swap2\n      sub\n      swap1\n      return\n        /* \"inviter_presell/stake.sol\":932:985  mapping(address => uint256) public userLastUpdateTime */\n    tag_20:\n      tag_106\n      0x04\n      dup1\n      calldatasize\n      sub\n      dup2\n      add\n      swap1\n      tag_107\n      swap2\n      swap1\n      tag_48\n      jump\t// in\n    tag_107:\n      tag_108\n      jump\t// in\n    tag_106:\n      mload(0x40)\n      tag_109\n      swap2\n      swap1\n      tag_51\n      jump\t// in\n    tag_109:\n      mload(0x40)\n      dup1\n      swap2\n      sub\n      swap1\n      return\n        /* \"inviter_presell/stake.sol\":4628:4968  function rewardPerToken(uint256 rewardRate) public view returns (uint256) {... */\n    tag_21:\n      tag_110\n      0x04\n      dup1\n      calldatasize\n      sub\n      dup2\n      add\n      swap1\n      tag_111\n      swap2\n      swap1\n      tag_79\n      jump\t// in\n    tag_111:\n      tag_112\n      jump\t// in\n    tag_110:\n      mload(0x40)\n      tag_113\n      swap2\n      swap1\n      tag_51\n      jump\t// in\n    tag_113:\n      mload(0x40)\n      dup1\n      swap2\n      sub\n      swap1\n      return\n        /* \"inviter_presell/stake.sol\":7318:7421  function setRewardToken(address token) external onlyOwner {... */\n    tag_22:\n      tag_114\n      0x04\n      dup1\n      calldatasize\n      sub\n      dup2\n      add\n      swap1\n      tag_115\n      swap2\n      swap1\n      tag_48\n      jump\t// in\n    tag_115:\n      tag_116\n      jump\t// in\n    tag_114:\n      stop\n        /* \"inviter_presell/stake.sol\":869:926  mapping(address => uint256) public userRewardPerTokenPaid */\n    tag_23:\n      tag_117\n      0x04\n      dup1\n      calldatasize\n      sub\n      dup2\n      add\n      swap1\n      tag_118\n      swap2\n      swap1\n      tag_48\n      jump\t// in\n    tag_118:\n      tag_119\n      jump\t// in\n    tag_117:\n      mload(0x40)\n      tag_120\n      swap2\n      swap1\n      tag_51\n      jump\t// in\n    tag_120:\n      mload(0x40)\n      dup1\n      swap2\n      sub\n      swap1\n      return\n        /* \"inviter_presell/adminable.sol\":874:959  function owner() public view virtual returns (address) {... */\n    tag_24:\n      tag_121\n      tag_122\n      jump\t// in\n    tag_121:\n      mload(0x40)\n      tag_123\n      swap2\n      swap1\n      tag_124\n      jump\t// in\n    tag_123:\n      mload(0x40)\n      dup1\n      swap2\n      sub\n      swap1\n      return\n        /* \"inviter_presell/stake.sol\":2202:2299  function setTotalRewards(uint256 amount) public  onlyOwner {... */\n    tag_25:\n      tag_125\n      0x04\n      dup1\n      calldatasize\n      sub\n      dup2\n      add\n      swap1\n      tag_126\n      swap2\n      swap1\n      tag_79\n      jump\t// in\n    tag_126:\n      tag_127\n      jump\t// in\n    tag_125:\n      stop\n        /* \"inviter_presell/stake.sol\":2518:2630  function getCurRewardPool() public view returns (uint256) {... */\n    tag_26:\n      tag_128\n      tag_129\n      jump\t// in\n    tag_128:\n      mload(0x40)\n      tag_130\n      swap2\n      swap1\n      tag_51\n      jump\t// in\n    tag_130:\n      mload(0x40)\n      dup1\n      swap2\n      sub\n      swap1\n      return\n        /* \"inviter_presell/stake.sol\":2305:2397  function curTime() external  view  returns (uint256) {... */\n    tag_27:\n      tag_131\n      tag_132\n      jump\t// in\n    tag_131:\n      mload(0x40)\n      tag_133\n      swap2\n      swap1\n      tag_51\n      jump\t// in\n    tag_133:\n      mload(0x40)\n      dup1\n      swap2\n      sub\n      swap1\n      return\n        /* \"inviter_presell/stake.sol\":7666:7807  function emergencyWithdrawToken(address token, uint256 amount) external onlyOwner {... */\n    tag_28:\n      tag_134\n      0x04\n      dup1\n      calldatasize\n      sub\n      dup2\n      add\n      swap1\n      tag_135\n      swap2\n      swap1\n      tag_136\n      jump\t// in\n    tag_135:\n      tag_137\n      jump\t// in\n    tag_134:\n      stop\n        /* \"inviter_presell/stake.sol\":6666:6955  function stake(address user, uint256 amount) external nonReentrant onlyAdmin updateReward(user) {... */\n    tag_29:\n      tag_138\n      0x04\n      dup1\n      calldatasize\n      sub\n      dup2\n      add\n      swap1\n      tag_139\n      swap2\n      swap1\n      tag_136\n      jump\t// in\n    tag_139:\n      tag_140\n      jump\t// in\n    tag_138:\n      stop\n        /* \"inviter_presell/stake.sol\":2403:2512  function powersOf(address account) external view returns (uint256) {... */\n    tag_30:\n      tag_141\n      0x04\n      dup1\n      calldatasize\n      sub\n      dup2\n      add\n      swap1\n      tag_142\n      swap2\n      swap1\n      tag_48\n      jump\t// in\n    tag_142:\n      tag_143\n      jump\t// in\n    tag_141:\n      mload(0x40)\n      tag_144\n      swap2\n      swap1\n      tag_51\n      jump\t// in\n    tag_144:\n      mload(0x40)\n      dup1\n      swap2\n      sub\n      swap1\n      return\n        /* \"inviter_presell/stake.sol\":758:787  uint256 public lastUpdateTime */\n    tag_31:\n      tag_145\n      tag_146\n      jump\t// in\n    tag_145:\n      mload(0x40)\n      tag_147\n      swap2\n      swap1\n      tag_51\n      jump\t// in\n    tag_147:\n      mload(0x40)\n      dup1\n      swap2\n      sub\n      swap1\n      return\n        /* \"inviter_presell/stake.sol\":4173:4286  function getCurRewardRate() public view returns (uint256) {... */\n    tag_32:\n      tag_148\n      tag_149\n      jump\t// in\n    tag_148:\n      mload(0x40)\n      tag_150\n      swap2\n      swap1\n      tag_51\n      jump\t// in\n    tag_150:\n      mload(0x40)\n      dup1\n      swap2\n      sub\n      swap1\n      return\n        /* \"inviter_presell/stake.sol\":455:481  IERC20 public rewardsToken */\n    tag_33:\n      tag_151\n      tag_152\n      jump\t// in\n    tag_151:\n      mload(0x40)\n      tag_153\n      swap2\n      swap1\n      tag_154\n      jump\t// in\n    tag_153:\n      mload(0x40)\n      dup1\n      swap2\n      sub\n      swap1\n      return\n        /* \"inviter_presell/stake.sol\":1042:1092  mapping(address => uint256) public claimedBalances */\n    tag_34:\n      tag_155\n      0x04\n      dup1\n      calldatasize\n      sub\n      dup2\n      add\n      swap1\n      tag_156\n      swap2\n      swap1\n      tag_48\n      jump\t// in\n    tag_156:\n      tag_157\n      jump\t// in\n    tag_155:\n      mload(0x40)\n      tag_158\n      swap2\n      swap1\n      tag_51\n      jump\t// in\n    tag_158:\n      mload(0x40)\n      dup1\n      swap2\n      sub\n      swap1\n      return\n        /* \"inviter_presell/stake.sol\":5307:6659  function getTimeWeightedAveRate(uint256 leftTime, uint256 rightTime) public view returns (uint256){... */\n    tag_35:\n      tag_159\n      0x04\n      dup1\n      calldatasize\n      sub\n      dup2\n      add\n      swap1\n      tag_160\n      swap2\n      swap1\n      tag_161\n      jump\t// in\n    tag_160:\n      tag_162\n      jump\t// in\n    tag_159:\n      mload(0x40)\n      tag_163\n      swap2\n      swap1\n      tag_51\n      jump\t// in\n    tag_163:\n      mload(0x40)\n      dup1\n      swap2\n      sub\n      swap1\n      return\n        /* \"inviter_presell/stake.sol\":7547:7660  function emergencyWithdraw() external onlyOwner {... */\n    tag_36:\n      tag_164\n      tag_165\n      jump\t// in\n    tag_164:\n      stop\n        /* \"inviter_presell/stake.sol\":793:828  uint256 public rewardPerTokenStored */\n    tag_37:\n      tag_166\n      tag_167\n      jump\t// in\n    tag_166:\n      mload(0x40)\n      tag_168\n      swap2\n      swap1\n      tag_51\n      jump\t// in\n    tag_168:\n      mload(0x40)\n      dup1\n      swap2\n      sub\n      swap1\n      return\n        /* \"inviter_presell/adminable.sol\":1187:1385  function transferOwnership(address newOwner) public virtual onlyOwner {... */\n    tag_38:\n      tag_169\n      0x04\n      dup1\n      calldatasize\n      sub\n      dup2\n      add\n      swap1\n      tag_170\n      swap2\n      swap1\n      tag_48\n      jump\t// in\n    tag_170:\n      tag_171\n      jump\t// in\n    tag_169:\n      stop\n        /* \"inviter_presell/stake.sol\":4974:5267  function earned(address account) public view returns (uint256) {... */\n    tag_49:\n        /* \"inviter_presell/stake.sol\":5028:5035  uint256 */\n      0x00\n        /* \"inviter_presell/stake.sol\":5047:5059  uint256 rate */\n      dup1\n        /* \"inviter_presell/stake.sol\":5062:5130  getTimeWeightedAveRate(userLastUpdateTime[account], block.timestamp) */\n      tag_173\n        /* \"inviter_presell/stake.sol\":5085:5103  userLastUpdateTime */\n      0x0e\n        /* \"inviter_presell/stake.sol\":5085:5112  userLastUpdateTime[account] */\n      0x00\n        /* \"inviter_presell/stake.sol\":5104:5111  account */\n      dup6\n        /* \"inviter_presell/stake.sol\":5085:5112  userLastUpdateTime[account] */\n      0xffffffffffffffffffffffffffffffffffffffff\n      and\n      0xffffffffffffffffffffffffffffffffffffffff\n      and\n      dup2\n      mstore\n      0x20\n      add\n      swap1\n      dup2\n      mstore\n      0x20\n      add\n      0x00\n      keccak256\n      sload\n        /* \"inviter_presell/stake.sol\":5114:5129  block.timestamp */\n      timestamp\n        /* \"inviter_presell/stake.sol\":5062:5084  getTimeWeightedAveRate */\n      tag_162\n        /* \"inviter_presell/stake.sol\":5062:5130  getTimeWeightedAveRate(userLastUpdateTime[account], block.timestamp) */\n      jump\t// in\n    tag_173:\n        /* \"inviter_presell/stake.sol\":5047:5130  uint256 rate = getTimeWeightedAveRate(userLastUpdateTime[account], block.timestamp) */\n      swap1\n      pop\n        /* \"inviter_presell/stake.sol\":5147:5260  _balances[account].mul(rewardPerToken(rate).sub(userRewardPerTokenPaid[account])).div(1e18).add(rewards[account]) */\n      tag_174\n        /* \"inviter_presell/stake.sol\":5243:5250  rewards */\n      0x04\n        /* \"inviter_presell/stake.sol\":5243:5259  rewards[account] */\n      0x00\n        /* \"inviter_presell/stake.sol\":5251:5258  account */\n      dup6\n        /* \"inviter_presell/stake.sol\":5243:5259  rewards[account] */\n      0xffffffffffffffffffffffffffffffffffffffff\n      and\n      0xffffffffffffffffffffffffffffffffffffffff\n      and\n      dup2\n      mstore\n      0x20\n      add\n      swap1\n      dup2\n      mstore\n      0x20\n      add\n      0x00\n      keccak256\n      sload\n        /* \"inviter_presell/stake.sol\":5147:5238  _balances[account].mul(rewardPerToken(rate).sub(userRewardPerTokenPaid[account])).div(1e18) */\n      tag_175\n        /* \"inviter_presell/stake.sol\":5233:5237  1e18 */\n      0x0de0b6b3a7640000\n        /* \"inviter_presell/stake.sol\":5147:5228  _balances[account].mul(rewardPerToken(rate).sub(userRewardPerTokenPaid[account])) */\n      tag_176\n        /* \"inviter_presell/stake.sol\":5170:5227  rewardPerToken(rate).sub(userRewardPerTokenPaid[account]) */\n      tag_177\n        /* \"inviter_presell/stake.sol\":5195:5217  userRewardPerTokenPaid */\n      0x0d\n        /* \"inviter_presell/stake.sol\":5195:5226  userRewardPerTokenPaid[account] */\n      0x00\n        /* \"inviter_presell/stake.sol\":5218:5225  account */\n      dup11\n        /* \"inviter_presell/stake.sol\":5195:5226  userRewardPerTokenPaid[account] */\n      0xffffffffffffffffffffffffffffffffffffffff\n      and\n      0xffffffffffffffffffffffffffffffffffffffff\n      and\n      dup2\n      mstore\n      0x20\n      add\n      swap1\n      dup2\n      mstore\n      0x20\n      add\n      0x00\n      keccak256\n      sload\n        /* \"inviter_presell/stake.sol\":5170:5190  rewardPerToken(rate) */\n      tag_178\n        /* \"inviter_presell/stake.sol\":5185:5189  rate */\n      dup9\n        /* \"inviter_presell/stake.sol\":5170:5184  rewardPerToken */\n      tag_112\n        /* \"inviter_presell/stake.sol\":5170:5190  rewardPerToken(rate) */\n      jump\t// in\n    tag_178:\n        /* \"inviter_presell/stake.sol\":5170:5194  rewardPerToken(rate).sub */\n      tag_179\n      swap1\n        /* \"inviter_presell/stake.sol\":5170:5227  rewardPerToken(rate).sub(userRewardPerTokenPaid[account]) */\n      swap2\n      swap1\n      0xffffffff\n      and\n      jump\t// in\n    tag_177:\n        /* \"inviter_presell/stake.sol\":5147:5156  _balances */\n      0x0f\n        /* \"inviter_presell/stake.sol\":5147:5165  _balances[account] */\n      0x00\n        /* \"inviter_presell/stake.sol\":5157:5164  account */\n      dup11\n        /* \"inviter_presell/stake.sol\":5147:5165  _balances[account] */\n      0xffffffffffffffffffffffffffffffffffffffff\n      and\n      0xffffffffffffffffffffffffffffffffffffffff\n      and\n      dup2\n      mstore\n      0x20\n      add\n      swap1\n      dup2\n      mstore\n      0x20\n      add\n      0x00\n      keccak256\n      sload\n        /* \"inviter_presell/stake.sol\":5147:5169  _balances[account].mul */\n      tag_180\n      swap1\n        /* \"inviter_presell/stake.sol\":5147:5228  _balances[account].mul(rewardPerToken(rate).sub(userRewardPerTokenPaid[account])) */\n      swap2\n      swap1\n      0xffffffff\n      and\n      jump\t// in\n    tag_176:\n        /* \"inviter_presell/stake.sol\":5147:5232  _balances[account].mul(rewardPerToken(rate).sub(userRewardPerTokenPaid[account])).div */\n      tag_181\n      swap1\n        /* \"inviter_presell/stake.sol\":5147:5238  _balances[account].mul(rewardPerToken(rate).sub(userRewardPerTokenPaid[account])).div(1e18) */\n      swap2\n      swap1\n      0xffffffff\n      and\n      jump\t// in\n    tag_175:\n        /* \"inviter_presell/stake.sol\":5147:5242  _balances[account].mul(rewardPerToken(rate).sub(userRewardPerTokenPaid[account])).div(1e18).add */\n      tag_182\n      swap1\n        /* \"inviter_presell/stake.sol\":5147:5260  _balances[account].mul(rewardPerToken(rate).sub(userRewardPerTokenPaid[account])).div(1e18).add(rewards[account]) */\n      swap2\n      swap1\n      0xffffffff\n      and\n      jump\t// in\n    tag_174:\n        /* \"inviter_presell/stake.sol\":5140:5260  return _balances[account].mul(rewardPerToken(rate).sub(userRewardPerTokenPaid[account])).div(1e18).add(rewards[account]) */\n      swap2\n      pop\n      pop\n        /* \"inviter_presell/stake.sol\":4974:5267  function earned(address account) public view returns (uint256) {... */\n      swap2\n      swap1\n      pop\n      jump\t// out\n        /* \"inviter_presell/stake.sol\":487:529  mapping(address => uint256) public rewards */\n    tag_54:\n      mstore(0x20, 0x04)\n      dup1\n      0x00\n      mstore\n      keccak256(0x00, 0x40)\n      0x00\n      swap2\n      pop\n      swap1\n      pop\n      sload\n      dup2\n      jump\t// out\n        /* \"inviter_presell/stake.sol\":536:583  uint256 public totalRewards = 168000 * 10 ** 18 */\n    tag_57:\n      sload(0x05)\n      dup2\n      jump\t// out\n        /* \"inviter_presell/stake.sol\":1686:1974  function setConfig(uint256 _rateInterval, uint256 _rateIntervalNumerator, uint256 _rateIntervalDenominator) external onlyOwner {... */\n    tag_62:\n        /* \"inviter_presell/adminable.sol\":676:688  _msgSender() */\n      tag_184\n        /* \"inviter_presell/adminable.sol\":676:686  _msgSender */\n      tag_185\n        /* \"inviter_presell/adminable.sol\":676:688  _msgSender() */\n      jump\t// in\n    tag_184:\n        /* \"inviter_presell/adminable.sol\":665:688  owner() == _msgSender() */\n      0xffffffffffffffffffffffffffffffffffffffff\n      and\n        /* \"inviter_presell/adminable.sol\":665:672  owner() */\n      tag_186\n        /* \"inviter_presell/adminable.sol\":665:670  owner */\n      tag_122\n        /* \"inviter_presell/adminable.sol\":665:672  owner() */\n      jump\t// in\n    tag_186:\n        /* \"inviter_presell/adminable.sol\":665:688  owner() == _msgSender() */\n      0xffffffffffffffffffffffffffffffffffffffff\n      and\n      eq\n        /* \"inviter_presell/adminable.sol\":657:727  require(owner() == _msgSender(), \"Adminable: caller is not the owner\") */\n      tag_187\n      jumpi\n      mload(0x40)\n      0x08c379a000000000000000000000000000000000000000000000000000000000\n      dup2\n      mstore\n      0x04\n      add\n      tag_188\n      swap1\n      tag_189\n      jump\t// in\n    tag_188:\n      mload(0x40)\n      dup1\n      swap2\n      sub\n      swap1\n      revert\n    tag_187:\n        /* \"inviter_presell/stake.sol\":1838:1851  _rateInterval */\n      dup3\n        /* \"inviter_presell/stake.sol\":1823:1835  rateInterval */\n      0x07\n        /* \"inviter_presell/stake.sol\":1823:1851  rateInterval = _rateInterval */\n      dup2\n      swap1\n      sstore\n      pop\n        /* \"inviter_presell/stake.sol\":1885:1907  _rateIntervalNumerator */\n      dup2\n        /* \"inviter_presell/stake.sol\":1861:1882  rateIntervalNumerator */\n      0x08\n        /* \"inviter_presell/stake.sol\":1861:1907  rateIntervalNumerator = _rateIntervalNumerator */\n      dup2\n      swap1\n      sstore\n      pop\n        /* \"inviter_presell/stake.sol\":1943:1967  _rateIntervalDenominator */\n      dup1\n        /* \"inviter_presell/stake.sol\":1917:1940  rateIntervalDenominator */\n      0x09\n        /* \"inviter_presell/stake.sol\":1917:1967  rateIntervalDenominator = _rateIntervalDenominator */\n      dup2\n      swap1\n      sstore\n      pop\n        /* \"inviter_presell/stake.sol\":1686:1974  function setConfig(uint256 _rateInterval, uint256 _rateIntervalNumerator, uint256 _rateIntervalDenominator) external onlyOwner {... */\n      pop\n      pop\n      pop\n      jump\t// out\n        /* \"inviter_presell/adminable.sol\":1584:1765  function modificationAdmin(address admin, bool state) public virtual onlyOwner {... */\n    tag_66:\n        /* \"inviter_presell/adminable.sol\":676:688  _msgSender() */\n      tag_192\n        /* \"inviter_presell/adminable.sol\":676:686  _msgSender */\n      tag_185\n        /* \"inviter_presell/adminable.sol\":676:688  _msgSender() */\n      jump\t// in\n    tag_192:\n        /* \"inviter_presell/adminable.sol\":665:688  owner() == _msgSender() */\n      0xffffffffffffffffffffffffffffffffffffffff\n      and\n        /* \"inviter_presell/adminable.sol\":665:672  owner() */\n      tag_193\n        /* \"inviter_presell/adminable.sol\":665:670  owner */\n      tag_122\n        /* \"inviter_presell/adminable.sol\":665:672  owner() */\n      jump\t// in\n    tag_193:\n        /* \"inviter_presell/adminable.sol\":665:688  owner() == _msgSender() */\n      0xffffffffffffffffffffffffffffffffffffffff\n      and\n      eq\n        /* \"inviter_presell/adminable.sol\":657:727  require(owner() == _msgSender(), \"Adminable: caller is not the owner\") */\n      tag_194\n      jumpi\n      mload(0x40)\n      0x08c379a000000000000000000000000000000000000000000000000000000000\n      dup2\n      mstore\n      0x04\n      add\n      tag_195\n      swap1\n      tag_189\n      jump\t// in\n    tag_195:\n      mload(0x40)\n      dup1\n      swap2\n      sub\n      swap1\n      revert\n    tag_194:\n        /* \"inviter_presell/adminable.sol\":1696:1701  admin */\n      dup2\n        /* \"inviter_presell/adminable.sol\":1678:1726  ModificationAdmin(admin,  _admins[admin], state) */\n      0xffffffffffffffffffffffffffffffffffffffff\n      and\n      0x82f1fa40a3d82dea3e406073819290601f436580aa7c69f9feb61f885bdd8854\n        /* \"inviter_presell/adminable.sol\":1704:1711  _admins */\n      0x00\n        /* \"inviter_presell/adminable.sol\":1704:1718  _admins[admin] */\n      dup1\n        /* \"inviter_presell/adminable.sol\":1712:1717  admin */\n      dup6\n        /* \"inviter_presell/adminable.sol\":1704:1718  _admins[admin] */\n      0xffffffffffffffffffffffffffffffffffffffff\n      and\n      0xffffffffffffffffffffffffffffffffffffffff\n      and\n      dup2\n      mstore\n      0x20\n      add\n      swap1\n      dup2\n      mstore\n      0x20\n      add\n      0x00\n      keccak256\n      0x00\n      swap1\n      sload\n      swap1\n      0x0100\n      exp\n      swap1\n      div\n      0xff\n      and\n        /* \"inviter_presell/adminable.sol\":1720:1725  state */\n      dup4\n        /* \"inviter_presell/adminable.sol\":1678:1726  ModificationAdmin(admin,  _admins[admin], state) */\n      mload(0x40)\n      tag_197\n      swap3\n      swap2\n      swap1\n      tag_198\n      jump\t// in\n    tag_197:\n      mload(0x40)\n      dup1\n      swap2\n      sub\n      swap1\n      log2\n        /* \"inviter_presell/adminable.sol\":1753:1758  state */\n      dup1\n        /* \"inviter_presell/adminable.sol\":1736:1743  _admins */\n      0x00\n        /* \"inviter_presell/adminable.sol\":1736:1750  _admins[admin] */\n      dup1\n        /* \"inviter_presell/adminable.sol\":1744:1749  admin */\n      dup5\n        /* \"inviter_presell/adminable.sol\":1736:1750  _admins[admin] */\n      0xffffffffffffffffffffffffffffffffffffffff\n      and\n      0xffffffffffffffffffffffffffffffffffffffff\n      and\n      dup2\n      mstore\n      0x20\n      add\n      swap1\n      dup2\n      mstore\n      0x20\n      add\n      0x00\n      keccak256\n      0x00\n        /* \"inviter_presell/adminable.sol\":1736:1758  _admins[admin] = state */\n      0x0100\n      exp\n      dup2\n      sload\n      dup2\n      0xff\n      mul\n      not\n      and\n      swap1\n      dup4\n      iszero\n      iszero\n      mul\n      or\n      swap1\n      sstore\n      pop\n        /* \"inviter_presell/adminable.sol\":1584:1765  function modificationAdmin(address admin, bool state) public virtual onlyOwner {... */\n      pop\n      pop\n      jump\t// out\n        /* \"inviter_presell/adminable.sol\":965:1074  function isAdmin(address account) public view virtual returns (bool) {... */\n    tag_69:\n        /* \"inviter_presell/adminable.sol\":1028:1032  bool */\n      0x00\n        /* \"inviter_presell/adminable.sol\":1051:1058  _admins */\n      dup1\n        /* \"inviter_presell/adminable.sol\":1051:1067  _admins[account] */\n      0x00\n        /* \"inviter_presell/adminable.sol\":1059:1066  account */\n      dup4\n        /* \"inviter_presell/adminable.sol\":1051:1067  _admins[account] */\n      0xffffffffffffffffffffffffffffffffffffffff\n      and\n      0xffffffffffffffffffffffffffffffffffffffff\n      and\n      dup2\n      mstore\n      0x20\n      add\n      swap1\n      dup2\n      mstore\n      0x20\n      add\n      0x00\n      keccak256\n      0x00\n      swap1\n      sload\n      swap1\n      0x0100\n      exp\n      swap1\n      div\n      0xff\n      and\n        /* \"inviter_presell/adminable.sol\":1044:1067  return _admins[account] */\n      swap1\n      pop\n        /* \"inviter_presell/adminable.sol\":965:1074  function isAdmin(address account) public view virtual returns (bool) {... */\n      swap2\n      swap1\n      pop\n      jump\t// out\n        /* \"inviter_presell/stake.sol\":661:701  uint256 public rateIntervalNumerator = 5 */\n    tag_73:\n      sload(0x08)\n      dup2\n      jump\t// out\n        /* \"inviter_presell/stake.sol\":6963:7312  function getReward() external nonReentrant updateReward(msg.sender) {... */\n    tag_76:\n        /* \"node_modules/@openzeppelin/contracts/security/ReentrancyGuard.sol\":1744:1745  2 */\n      0x02\n        /* \"node_modules/@openzeppelin/contracts/security/ReentrancyGuard.sol\":2325:2332  _status */\n      dup1\n      sload\n        /* \"node_modules/@openzeppelin/contracts/security/ReentrancyGuard.sol\":2325:2344  _status != _ENTERED */\n      sub\n        /* \"node_modules/@openzeppelin/contracts/security/ReentrancyGuard.sol\":2317:2380  require(_status != _ENTERED, \"ReentrancyGuard: reentrant call\") */\n      tag_201\n      jumpi\n      mload(0x40)\n      0x08c379a000000000000000000000000000000000000000000000000000000000\n      dup2\n      mstore\n      0x04\n      add\n      tag_202\n      swap1\n      tag_203\n      jump\t// in\n    tag_202:\n      mload(0x40)\n      dup1\n      swap2\n      sub\n      swap1\n      revert\n    tag_201:\n        /* \"node_modules/@openzeppelin/contracts/security/ReentrancyGuard.sol\":1744:1745  2 */\n      0x02\n        /* \"node_modules/@openzeppelin/contracts/security/ReentrancyGuard.sol\":2455:2462  _status */\n      dup1\n        /* \"node_modules/@openzeppelin/contracts/security/ReentrancyGuard.sol\":2455:2473  _status = _ENTERED */\n      dup2\n      swap1\n      sstore\n      pop\n        /* \"inviter_presell/stake.sol\":7019:7029  msg.sender */\n      caller\n        /* \"inviter_presell/stake.sol\":1150:1162  uint256 time */\n      0x00\n        /* \"inviter_presell/stake.sol\":1165:1183  userLastUpdateTime */\n      0x0e\n        /* \"inviter_presell/stake.sol\":1165:1192  userLastUpdateTime[account] */\n      0x00\n        /* \"inviter_presell/stake.sol\":1184:1191  account */\n      dup4\n        /* \"inviter_presell/stake.sol\":1165:1192  userLastUpdateTime[account] */\n      0xffffffffffffffffffffffffffffffffffffffff\n      and\n      0xffffffffffffffffffffffffffffffffffffffff\n      and\n      dup2\n      mstore\n      0x20\n      add\n      swap1\n      dup2\n      mstore\n      0x20\n      add\n      0x00\n      keccak256\n      sload\n        /* \"inviter_presell/stake.sol\":1150:1192  uint256 time = userLastUpdateTime[account] */\n      swap1\n      pop\n        /* \"inviter_presell/stake.sol\":1213:1222  startTime */\n      sload(0x06)\n        /* \"inviter_presell/stake.sol\":1205:1209  time */\n      dup2\n        /* \"inviter_presell/stake.sol\":1205:1222  time <= startTime */\n      gt\n        /* \"inviter_presell/stake.sol\":1202:1265  if(time <= startTime) {... */\n      tag_205\n      jumpi\n        /* \"inviter_presell/stake.sol\":1245:1254  startTime */\n      sload(0x06)\n        /* \"inviter_presell/stake.sol\":1238:1254  time = startTime */\n      swap1\n      pop\n        /* \"inviter_presell/stake.sol\":1202:1265  if(time <= startTime) {... */\n    tag_205:\n        /* \"inviter_presell/stake.sol\":1274:1286  uint256 rate */\n      0x00\n        /* \"inviter_presell/stake.sol\":1289:1334  getTimeWeightedAveRate(time, block.timestamp) */\n      tag_206\n        /* \"inviter_presell/stake.sol\":1312:1316  time */\n      dup3\n        /* \"inviter_presell/stake.sol\":1318:1333  block.timestamp */\n      timestamp\n        /* \"inviter_presell/stake.sol\":1289:1311  getTimeWeightedAveRate */\n      tag_162\n        /* \"inviter_presell/stake.sol\":1289:1334  getTimeWeightedAveRate(time, block.timestamp) */\n      jump\t// in\n    tag_206:\n        /* \"inviter_presell/stake.sol\":1274:1334  uint256 rate = getTimeWeightedAveRate(time, block.timestamp) */\n      swap1\n      pop\n        /* \"inviter_presell/stake.sol\":1367:1387  rewardPerToken(rate) */\n      tag_207\n        /* \"inviter_presell/stake.sol\":1382:1386  rate */\n      dup2\n        /* \"inviter_presell/stake.sol\":1367:1381  rewardPerToken */\n      tag_112\n        /* \"inviter_presell/stake.sol\":1367:1387  rewardPerToken(rate) */\n      jump\t// in\n    tag_207:\n        /* \"inviter_presell/stake.sol\":1344:1364  rewardPerTokenStored */\n      0x0b\n        /* \"inviter_presell/stake.sol\":1344:1387  rewardPerTokenStored = rewardPerToken(rate) */\n      dup2\n      swap1\n      sstore\n      pop\n        /* \"inviter_presell/stake.sol\":1414:1440  lastTimeRewardApplicable() */\n      tag_208\n        /* \"inviter_presell/stake.sol\":1414:1438  lastTimeRewardApplicable */\n      tag_104\n        /* \"inviter_presell/stake.sol\":1414:1440  lastTimeRewardApplicable() */\n      jump\t// in\n    tag_208:\n        /* \"inviter_presell/stake.sol\":1397:1411  lastUpdateTime */\n      0x0a\n        /* \"inviter_presell/stake.sol\":1397:1440  lastUpdateTime = lastTimeRewardApplicable() */\n      dup2\n      swap1\n      sstore\n      pop\n        /* \"inviter_presell/stake.sol\":1473:1474  0 */\n      0x00\n        /* \"inviter_presell/stake.sol\":1454:1475  account != address(0) */\n      0xffffffffffffffffffffffffffffffffffffffff\n      and\n        /* \"inviter_presell/stake.sol\":1454:1461  account */\n      dup4\n        /* \"inviter_presell/stake.sol\":1454:1475  account != address(0) */\n      0xffffffffffffffffffffffffffffffffffffffff\n      and\n      eq\n        /* \"inviter_presell/stake.sol\":1450:1663  if (account != address(0)) {... */\n      tag_209\n      jumpi\n        /* \"inviter_presell/stake.sol\":1510:1525  earned(account) */\n      tag_210\n        /* \"inviter_presell/stake.sol\":1517:1524  account */\n      dup4\n        /* \"inviter_presell/stake.sol\":1510:1516  earned */\n      tag_49\n        /* \"inviter_presell/stake.sol\":1510:1525  earned(account) */\n      jump\t// in\n    tag_210:\n        /* \"inviter_presell/stake.sol\":1491:1498  rewards */\n      0x04\n        /* \"inviter_presell/stake.sol\":1491:1507  rewards[account] */\n      0x00\n        /* \"inviter_presell/stake.sol\":1499:1506  account */\n      dup6\n        /* \"inviter_presell/stake.sol\":1491:1507  rewards[account] */\n      0xffffffffffffffffffffffffffffffffffffffff\n      and\n      0xffffffffffffffffffffffffffffffffffffffff\n      and\n      dup2\n      mstore\n      0x20\n      add\n      swap1\n      dup2\n      mstore\n      0x20\n      add\n      0x00\n      keccak256\n        /* \"inviter_presell/stake.sol\":1491:1525  rewards[account] = earned(account) */\n      dup2\n      swap1\n      sstore\n      pop\n        /* \"inviter_presell/stake.sol\":1573:1593  rewardPerTokenStored */\n      sload(0x0b)\n        /* \"inviter_presell/stake.sol\":1539:1561  userRewardPerTokenPaid */\n      0x0d\n        /* \"inviter_presell/stake.sol\":1539:1570  userRewardPerTokenPaid[account] */\n      0x00\n        /* \"inviter_presell/stake.sol\":1562:1569  account */\n      dup6\n        /* \"inviter_presell/stake.sol\":1539:1570  userRewardPerTokenPaid[account] */\n      0xffffffffffffffffffffffffffffffffffffffff\n      and\n      0xffffffffffffffffffffffffffffffffffffffff\n      and\n      dup2\n      mstore\n      0x20\n      add\n      swap1\n      dup2\n      mstore\n      0x20\n      add\n      0x00\n      keccak256\n        /* \"inviter_presell/stake.sol\":1539:1593  userRewardPerTokenPaid[account] = rewardPerTokenStored */\n      dup2\n      swap1\n      sstore\n      pop\n        /* \"inviter_presell/stake.sol\":1637:1652  block.timestamp */\n      timestamp\n        /* \"inviter_presell/stake.sol\":1607:1625  userLastUpdateTime */\n      0x0e\n        /* \"inviter_presell/stake.sol\":1607:1634  userLastUpdateTime[account] */\n      0x00\n        /* \"inviter_presell/stake.sol\":1626:1633  account */\n      dup6\n        /* \"inviter_presell/stake.sol\":1607:1634  userLastUpdateTime[account] */\n      0xffffffffffffffffffffffffffffffffffffffff\n      and\n      0xffffffffffffffffffffffffffffffffffffffff\n      and\n      dup2\n      mstore\n      0x20\n      add\n      swap1\n      dup2\n      mstore\n      0x20\n      add\n      0x00\n      keccak256\n        /* \"inviter_presell/stake.sol\":1607:1652  userLastUpdateTime[account] = block.timestamp */\n      dup2\n      swap1\n      sstore\n      pop\n        /* \"inviter_presell/stake.sol\":1450:1663  if (account != address(0)) {... */\n    tag_209:\n        /* \"inviter_presell/stake.sol\":7041:7055  uint256 reward */\n      0x00\n        /* \"inviter_presell/stake.sol\":7058:7065  rewards */\n      0x04\n        /* \"inviter_presell/stake.sol\":7058:7077  rewards[msg.sender] */\n      0x00\n        /* \"inviter_presell/stake.sol\":7066:7076  msg.sender */\n      caller\n        /* \"inviter_presell/stake.sol\":7058:7077  rewards[msg.sender] */\n      0xffffffffffffffffffffffffffffffffffffffff\n      and\n      0xffffffffffffffffffffffffffffffffffffffff\n      and\n      dup2\n      mstore\n      0x20\n      add\n      swap1\n      dup2\n      mstore\n      0x20\n      add\n      0x00\n      keccak256\n      sload\n        /* \"inviter_presell/stake.sol\":7041:7077  uint256 reward = rewards[msg.sender] */\n      swap1\n      pop\n        /* \"inviter_presell/stake.sol\":7100:7101  0 */\n      0x00\n        /* \"inviter_presell/stake.sol\":7091:7097  reward */\n      dup2\n        /* \"inviter_presell/stake.sol\":7091:7101  reward > 0 */\n      gt\n        /* \"inviter_presell/stake.sol\":7087:7306  if (reward > 0) {... */\n      iszero\n      tag_212\n      jumpi\n        /* \"inviter_presell/stake.sol\":7148:7154  reward */\n      dup1\n        /* \"inviter_presell/stake.sol\":7117:7132  claimedBalances */\n      0x10\n        /* \"inviter_presell/stake.sol\":7117:7144  claimedBalances[msg.sender] */\n      0x00\n        /* \"inviter_presell/stake.sol\":7133:7143  msg.sender */\n      caller\n        /* \"inviter_presell/stake.sol\":7117:7144  claimedBalances[msg.sender] */\n      0xffffffffffffffffffffffffffffffffffffffff\n      and\n      0xffffffffffffffffffffffffffffffffffffffff\n      and\n      dup2\n      mstore\n      0x20\n      add\n      swap1\n      dup2\n      mstore\n      0x20\n      add\n      0x00\n      keccak256\n      0x00\n        /* \"inviter_presell/stake.sol\":7117:7154  claimedBalances[msg.sender] += reward */\n      dup3\n      dup3\n      sload\n      tag_213\n      swap2\n      swap1\n      tag_214\n      jump\t// in\n    tag_213:\n      swap3\n      pop\n      pop\n      dup2\n      swap1\n      sstore\n      pop\n        /* \"inviter_presell/stake.sol\":7190:7191  0 */\n      0x00\n        /* \"inviter_presell/stake.sol\":7168:7175  rewards */\n      0x04\n        /* \"inviter_presell/stake.sol\":7168:7187  rewards[msg.sender] */\n      0x00\n        /* \"inviter_presell/stake.sol\":7176:7186  msg.sender */\n      caller\n        /* \"inviter_presell/stake.sol\":7168:7187  rewards[msg.sender] */\n      0xffffffffffffffffffffffffffffffffffffffff\n      and\n      0xffffffffffffffffffffffffffffffffffffffff\n      and\n      dup2\n      mstore\n      0x20\n      add\n      swap1\n      dup2\n      mstore\n      0x20\n      add\n      0x00\n      keccak256\n        /* \"inviter_presell/stake.sol\":7168:7191  rewards[msg.sender] = 0 */\n      dup2\n      swap1\n      sstore\n      pop\n        /* \"inviter_presell/stake.sol\":7205:7217  rewardsToken */\n      0x03\n      0x00\n      swap1\n      sload\n      swap1\n      0x0100\n      exp\n      swap1\n      div\n      0xffffffffffffffffffffffffffffffffffffffff\n      and\n        /* \"inviter_presell/stake.sol\":7205:7226  rewardsToken.transfer */\n      0xffffffffffffffffffffffffffffffffffffffff\n      and\n      0xa9059cbb\n        /* \"inviter_presell/stake.sol\":7227:7237  msg.sender */\n      caller\n        /* \"inviter_presell/stake.sol\":7239:7245  reward */\n      dup4\n        /* \"inviter_presell/stake.sol\":7205:7246  rewardsToken.transfer(msg.sender, reward) */\n      mload(0x40)\n      dup4\n      0xffffffff\n      and\n      0xe0\n      shl\n      dup2\n      mstore\n      0x04\n      add\n      tag_215\n      swap3\n      swap2\n      swap1\n      tag_216\n      jump\t// in\n    tag_215:\n      0x20\n      mload(0x40)\n      dup1\n      dup4\n      sub\n      dup2\n      0x00\n      dup8\n      gas\n      call\n      iszero\n      dup1\n      iszero\n      tag_218\n      jumpi\n      returndatasize\n      0x00\n      dup1\n      returndatacopy\n      revert(0x00, returndatasize)\n    tag_218:\n      pop\n      pop\n      pop\n      pop\n      mload(0x40)\n      returndatasize\n      not(0x1f)\n      0x1f\n      dup3\n      add\n      and\n      dup3\n      add\n      dup1\n      0x40\n      mstore\n      pop\n      dup2\n      add\n      swap1\n      tag_219\n      swap2\n      swap1\n      tag_220\n      jump\t// in\n    tag_219:\n      pop\n        /* \"inviter_presell/stake.sol\":7276:7286  msg.sender */\n      caller\n        /* \"inviter_presell/stake.sol\":7265:7295  RewardPaid(msg.sender, reward) */\n      0xffffffffffffffffffffffffffffffffffffffff\n      and\n      0xe2403640ba68fed3a2f88b7557551d1993f84b99bb10ff833f0cf8db0c5e0486\n        /* \"inviter_presell/stake.sol\":7288:7294  reward */\n      dup3\n        /* \"inviter_presell/stake.sol\":7265:7295  RewardPaid(msg.sender, reward) */\n      mload(0x40)\n      tag_221\n      swap2\n      swap1\n      tag_51\n      jump\t// in\n    tag_221:\n      mload(0x40)\n      dup1\n      swap2\n      sub\n      swap1\n      log2\n        /* \"inviter_presell/stake.sol\":7087:7306  if (reward > 0) {... */\n    tag_212:\n        /* \"inviter_presell/stake.sol\":7031:7312  {... */\n      pop\n        /* \"inviter_presell/stake.sol\":1140:1680  {... */\n      pop\n      pop\n        /* \"node_modules/@openzeppelin/contracts/security/ReentrancyGuard.sol\":2484:2485  _ */\n      pop\n        /* \"node_modules/@openzeppelin/contracts/security/ReentrancyGuard.sol\":1701:1702  1 */\n      0x01\n        /* \"node_modules/@openzeppelin/contracts/security/ReentrancyGuard.sol\":2628:2635  _status */\n      0x02\n        /* \"node_modules/@openzeppelin/contracts/security/ReentrancyGuard.sol\":2628:2650  _status = _NOT_ENTERED */\n      dup2\n      swap1\n      sstore\n      pop\n        /* \"inviter_presell/stake.sol\":6963:7312  function getReward() external nonReentrant updateReward(msg.sender) {... */\n      jump\t// out\n        /* \"inviter_presell/stake.sol\":1980:2099  function setStartTime(uint256 time) external onlyAdmin {... */\n    tag_80:\n        /* \"inviter_presell/adminable.sol\":790:811  isAdmin(_msgSender()) */\n      tag_223\n        /* \"inviter_presell/adminable.sol\":798:810  _msgSender() */\n      tag_224\n        /* \"inviter_presell/adminable.sol\":798:808  _msgSender */\n      tag_185\n        /* \"inviter_presell/adminable.sol\":798:810  _msgSender() */\n      jump\t// in\n    tag_224:\n        /* \"inviter_presell/adminable.sol\":790:797  isAdmin */\n      tag_69\n        /* \"inviter_presell/adminable.sol\":790:811  isAdmin(_msgSender()) */\n      jump\t// in\n    tag_223:\n        /* \"inviter_presell/adminable.sol\":782:850  require(isAdmin(_msgSender()), \"Adminable: caller is not the admin\") */\n      tag_225\n      jumpi\n      mload(0x40)\n      0x08c379a000000000000000000000000000000000000000000000000000000000\n      dup2\n      mstore\n      0x04\n      add\n      tag_226\n      swap1\n      tag_227\n      jump\t// in\n    tag_226:\n      mload(0x40)\n      dup1\n      swap2\n      sub\n      swap1\n      revert\n    tag_225:\n        /* \"inviter_presell/stake.sol\":2057:2061  time */\n      dup1\n        /* \"inviter_presell/stake.sol\":2045:2054  startTime */\n      0x06\n        /* \"inviter_presell/stake.sol\":2045:2061  startTime = time */\n      dup2\n      swap1\n      sstore\n      pop\n        /* \"inviter_presell/stake.sol\":2088:2092  time */\n      dup1\n        /* \"inviter_presell/stake.sol\":2071:2085  lastUpdateTime */\n      0x0a\n        /* \"inviter_presell/stake.sol\":2071:2092  lastUpdateTime = time */\n      dup2\n      swap1\n      sstore\n      pop\n        /* \"inviter_presell/stake.sol\":1980:2099  function setStartTime(uint256 time) external onlyAdmin {... */\n      pop\n      jump\t// out\n        /* \"inviter_presell/stake.sol\":3697:4167  function getRemainPool(uint256 time) public view returns (uint256) {... */\n    tag_83:\n        /* \"inviter_presell/stake.sol\":3755:3762  uint256 */\n      0x00\n        /* \"inviter_presell/stake.sol\":3790:3791  0 */\n      dup1\n        /* \"inviter_presell/stake.sol\":3777:3786  startTime */\n      sload(0x06)\n        /* \"inviter_presell/stake.sol\":3777:3791  startTime == 0 */\n      sub\n        /* \"inviter_presell/stake.sol\":3774:3834  if(startTime == 0) {... */\n      tag_230\n      jumpi\n        /* \"inviter_presell/stake.sol\":3814:3823  startTime */\n      sload(0x06)\n        /* \"inviter_presell/stake.sol\":3807:3823  return startTime */\n      swap1\n      pop\n      jump(tag_229)\n        /* \"inviter_presell/stake.sol\":3774:3834  if(startTime == 0) {... */\n    tag_230:\n        /* \"inviter_presell/stake.sol\":3854:3863  startTime */\n      sload(0x06)\n        /* \"inviter_presell/stake.sol\":3847:3851  time */\n      dup3\n        /* \"inviter_presell/stake.sol\":3847:3863  time < startTime */\n      lt\n        /* \"inviter_presell/stake.sol\":3844:3898  if(time < startTime) {... */\n      iszero\n      tag_231\n      jumpi\n        /* \"inviter_presell/stake.sol\":3886:3887  0 */\n      0x00\n        /* \"inviter_presell/stake.sol\":3879:3887  return 0 */\n      swap1\n      pop\n      jump(tag_229)\n        /* \"inviter_presell/stake.sol\":3844:3898  if(time < startTime) {... */\n    tag_231:\n        /* \"inviter_presell/stake.sol\":3907:3920  uint256 times */\n      0x00\n        /* \"inviter_presell/stake.sol\":3959:3960  1 */\n      0x01\n        /* \"inviter_presell/stake.sol\":3944:3956  rateInterval */\n      sload(0x07)\n        /* \"inviter_presell/stake.sol\":3931:3940  startTime */\n      sload(0x06)\n        /* \"inviter_presell/stake.sol\":3924:3928  time */\n      dup6\n        /* \"inviter_presell/stake.sol\":3924:3940  time - startTime */\n      tag_232\n      swap2\n      swap1\n      tag_233\n      jump\t// in\n    tag_232:\n        /* \"inviter_presell/stake.sol\":3923:3956  (time - startTime) / rateInterval */\n      tag_234\n      swap2\n      swap1\n      tag_235\n      jump\t// in\n    tag_234:\n        /* \"inviter_presell/stake.sol\":3923:3960  (time - startTime) / rateInterval + 1 */\n      tag_236\n      swap2\n      swap1\n      tag_214\n      jump\t// in\n    tag_236:\n        /* \"inviter_presell/stake.sol\":3907:3960  uint256 times = (time - startTime) / rateInterval + 1 */\n      swap1\n      pop\n        /* \"inviter_presell/stake.sol\":3970:3983  uint256 value */\n      0x00\n        /* \"inviter_presell/stake.sol\":3986:3998  totalRewards */\n      sload(0x05)\n        /* \"inviter_presell/stake.sol\":3970:3998  uint256 value = totalRewards */\n      swap1\n      pop\n        /* \"inviter_presell/stake.sol\":4012:4021  uint256 i */\n      0x00\n        /* \"inviter_presell/stake.sol\":4008:4139  for(uint256 i = 0; i < times; ++i) {... */\n    tag_237:\n        /* \"inviter_presell/stake.sol\":4031:4036  times */\n      dup3\n        /* \"inviter_presell/stake.sol\":4027:4028  i */\n      dup2\n        /* \"inviter_presell/stake.sol\":4027:4036  i < times */\n      lt\n        /* \"inviter_presell/stake.sol\":4008:4139  for(uint256 i = 0; i < times; ++i) {... */\n      iszero\n      tag_238\n      jumpi\n        /* \"inviter_presell/stake.sol\":4105:4128  rateIntervalDenominator */\n      sload(0x09)\n        /* \"inviter_presell/stake.sol\":4081:4102  rateIntervalNumerator */\n      sload(0x08)\n        /* \"inviter_presell/stake.sol\":4073:4078  value */\n      dup4\n        /* \"inviter_presell/stake.sol\":4073:4102  value * rateIntervalNumerator */\n      tag_240\n      swap2\n      swap1\n      tag_241\n      jump\t// in\n    tag_240:\n        /* \"inviter_presell/stake.sol\":4073:4128  value * rateIntervalNumerator / rateIntervalDenominator */\n      tag_242\n      swap2\n      swap1\n      tag_235\n      jump\t// in\n    tag_242:\n        /* \"inviter_presell/stake.sol\":4065:4070  value */\n      dup3\n        /* \"inviter_presell/stake.sol\":4065:4128  value - value * rateIntervalNumerator / rateIntervalDenominator */\n      tag_243\n      swap2\n      swap1\n      tag_233\n      jump\t// in\n    tag_243:\n        /* \"inviter_presell/stake.sol\":4057:4128  value = value - value * rateIntervalNumerator / rateIntervalDenominator */\n      swap2\n      pop\n        /* \"inviter_presell/stake.sol\":4038:4041  ++i */\n      dup1\n      tag_244\n      swap1\n      tag_245\n      jump\t// in\n    tag_244:\n      swap1\n      pop\n        /* \"inviter_presell/stake.sol\":4008:4139  for(uint256 i = 0; i < times; ++i) {... */\n      jump(tag_237)\n    tag_238:\n      pop\n        /* \"inviter_presell/stake.sol\":4155:4160  value */\n      dup1\n        /* \"inviter_presell/stake.sol\":4148:4160  return value */\n      swap3\n      pop\n      pop\n      pop\n        /* \"inviter_presell/stake.sol\":3697:4167  function getRemainPool(uint256 time) public view returns (uint256) {... */\n    tag_229:\n      swap2\n      swap1\n      pop\n      jump\t// out\n        /* \"inviter_presell/stake.sol\":2636:3149  function getRewardPool(uint256 time) public view returns (uint256) {... */\n    tag_87:\n        /* \"inviter_presell/stake.sol\":2694:2701  uint256 */\n      0x00\n        /* \"inviter_presell/stake.sol\":2729:2730  0 */\n      dup1\n        /* \"inviter_presell/stake.sol\":2716:2725  startTime */\n      sload(0x06)\n        /* \"inviter_presell/stake.sol\":2716:2730  startTime == 0 */\n      sub\n        /* \"inviter_presell/stake.sol\":2713:2765  if(startTime == 0) {... */\n      tag_247\n      jumpi\n        /* \"inviter_presell/stake.sol\":2753:2754  0 */\n      0x00\n        /* \"inviter_presell/stake.sol\":2746:2754  return 0 */\n      swap1\n      pop\n      jump(tag_246)\n        /* \"inviter_presell/stake.sol\":2713:2765  if(startTime == 0) {... */\n    tag_247:\n        /* \"inviter_presell/stake.sol\":2784:2793  startTime */\n      sload(0x06)\n        /* \"inviter_presell/stake.sol\":2777:2781  time */\n      dup3\n        /* \"inviter_presell/stake.sol\":2777:2793  time < startTime */\n      lt\n        /* \"inviter_presell/stake.sol\":2774:2828  if(time < startTime) {... */\n      iszero\n      tag_248\n      jumpi\n        /* \"inviter_presell/stake.sol\":2816:2817  0 */\n      0x00\n        /* \"inviter_presell/stake.sol\":2809:2817  return 0 */\n      swap1\n      pop\n      jump(tag_246)\n        /* \"inviter_presell/stake.sol\":2774:2828  if(time < startTime) {... */\n    tag_248:\n        /* \"inviter_presell/stake.sol\":2837:2850  uint256 times */\n      0x00\n        /* \"inviter_presell/stake.sol\":2874:2886  rateInterval */\n      sload(0x07)\n        /* \"inviter_presell/stake.sol\":2861:2870  startTime */\n      sload(0x06)\n        /* \"inviter_presell/stake.sol\":2854:2858  time */\n      dup5\n        /* \"inviter_presell/stake.sol\":2854:2870  time - startTime */\n      tag_249\n      swap2\n      swap1\n      tag_233\n      jump\t// in\n    tag_249:\n        /* \"inviter_presell/stake.sol\":2853:2886  (time - startTime) / rateInterval */\n      tag_250\n      swap2\n      swap1\n      tag_235\n      jump\t// in\n    tag_250:\n        /* \"inviter_presell/stake.sol\":2837:2886  uint256 times = (time - startTime) / rateInterval */\n      swap1\n      pop\n        /* \"inviter_presell/stake.sol\":2896:2909  uint256 value */\n      0x00\n        /* \"inviter_presell/stake.sol\":2912:2924  totalRewards */\n      sload(0x05)\n        /* \"inviter_presell/stake.sol\":2896:2924  uint256 value = totalRewards */\n      swap1\n      pop\n        /* \"inviter_presell/stake.sol\":2938:2947  uint256 i */\n      0x00\n        /* \"inviter_presell/stake.sol\":2934:3065  for(uint256 i = 0; i < times; ++i) {... */\n    tag_251:\n        /* \"inviter_presell/stake.sol\":2957:2962  times */\n      dup3\n        /* \"inviter_presell/stake.sol\":2953:2954  i */\n      dup2\n        /* \"inviter_presell/stake.sol\":2953:2962  i < times */\n      lt\n        /* \"inviter_presell/stake.sol\":2934:3065  for(uint256 i = 0; i < times; ++i) {... */\n      iszero\n      tag_252\n      jumpi\n        /* \"inviter_presell/stake.sol\":3031:3054  rateIntervalDenominator */\n      sload(0x09)\n        /* \"inviter_presell/stake.sol\":3007:3028  rateIntervalNumerator */\n      sload(0x08)\n        /* \"inviter_presell/stake.sol\":2999:3004  value */\n      dup4\n        /* \"inviter_presell/stake.sol\":2999:3028  value * rateIntervalNumerator */\n      tag_254\n      swap2\n      swap1\n      tag_241\n      jump\t// in\n    tag_254:\n        /* \"inviter_presell/stake.sol\":2999:3054  value * rateIntervalNumerator / rateIntervalDenominator */\n      tag_255\n      swap2\n      swap1\n      tag_235\n      jump\t// in\n    tag_255:\n        /* \"inviter_presell/stake.sol\":2991:2996  value */\n      dup3\n        /* \"inviter_presell/stake.sol\":2991:3054  value - value * rateIntervalNumerator / rateIntervalDenominator */\n      tag_256\n      swap2\n      swap1\n      tag_233\n      jump\t// in\n    tag_256:\n        /* \"inviter_presell/stake.sol\":2983:3054  value = value - value * rateIntervalNumerator / rateIntervalDenominator */\n      swap2\n      pop\n        /* \"inviter_presell/stake.sol\":2964:2967  ++i */\n      dup1\n      tag_257\n      swap1\n      tag_245\n      jump\t// in\n    tag_257:\n      swap1\n      pop\n        /* \"inviter_presell/stake.sol\":2934:3065  for(uint256 i = 0; i < times; ++i) {... */\n      jump(tag_251)\n    tag_252:\n      pop\n        /* \"inviter_presell/stake.sol\":3081:3142  value.mul(rateIntervalNumerator).div(rateIntervalDenominator) */\n      tag_258\n        /* \"inviter_presell/stake.sol\":3118:3141  rateIntervalDenominator */\n      sload(0x09)\n        /* \"inviter_presell/stake.sol\":3081:3113  value.mul(rateIntervalNumerator) */\n      tag_259\n        /* \"inviter_presell/stake.sol\":3091:3112  rateIntervalNumerator */\n      sload(0x08)\n        /* \"inviter_presell/stake.sol\":3081:3086  value */\n      dup5\n        /* \"inviter_presell/stake.sol\":3081:3090  value.mul */\n      tag_180\n      swap1\n        /* \"inviter_presell/stake.sol\":3081:3113  value.mul(rateIntervalNumerator) */\n      swap2\n      swap1\n      0xffffffff\n      and\n      jump\t// in\n    tag_259:\n        /* \"inviter_presell/stake.sol\":3081:3117  value.mul(rateIntervalNumerator).div */\n      tag_181\n      swap1\n        /* \"inviter_presell/stake.sol\":3081:3142  value.mul(rateIntervalNumerator).div(rateIntervalDenominator) */\n      swap2\n      swap1\n      0xffffffff\n      and\n      jump\t// in\n    tag_258:\n        /* \"inviter_presell/stake.sol\":3074:3142  return value.mul(rateIntervalNumerator).div(rateIntervalDenominator) */\n      swap3\n      pop\n      pop\n      pop\n        /* \"inviter_presell/stake.sol\":2636:3149  function getRewardPool(uint256 time) public view returns (uint256) {... */\n    tag_246:\n      swap2\n      swap1\n      pop\n      jump\t// out\n        /* \"inviter_presell/stake.sol\":619:655  uint256 public rateInterval = 1 days */\n    tag_90:\n      sload(0x07)\n      dup2\n      jump\t// out\n        /* \"inviter_presell/stake.sol\":2105:2196  function totalPowers() external view returns (uint256) {... */\n    tag_93:\n        /* \"inviter_presell/stake.sol\":2151:2158  uint256 */\n      0x00\n        /* \"inviter_presell/stake.sol\":2177:2189  _totalPowers */\n      sload(0x0c)\n        /* \"inviter_presell/stake.sol\":2170:2189  return _totalPowers */\n      swap1\n      pop\n        /* \"inviter_presell/stake.sol\":2105:2196  function totalPowers() external view returns (uint256) {... */\n      swap1\n      jump\t// out\n        /* \"inviter_presell/adminable.sol\":1080:1181  function renounceOwnership() public virtual onlyOwner {... */\n    tag_96:\n        /* \"inviter_presell/adminable.sol\":676:688  _msgSender() */\n      tag_262\n        /* \"inviter_presell/adminable.sol\":676:686  _msgSender */\n      tag_185\n        /* \"inviter_presell/adminable.sol\":676:688  _msgSender() */\n      jump\t// in\n    tag_262:\n        /* \"inviter_presell/adminable.sol\":665:688  owner() == _msgSender() */\n      0xffffffffffffffffffffffffffffffffffffffff\n      and\n        /* \"inviter_presell/adminable.sol\":665:672  owner() */\n      tag_263\n        /* \"inviter_presell/adminable.sol\":665:670  owner */\n      tag_122\n        /* \"inviter_presell/adminable.sol\":665:672  owner() */\n      jump\t// in\n    tag_263:\n        /* \"inviter_presell/adminable.sol\":665:688  owner() == _msgSender() */\n      0xffffffffffffffffffffffffffffffffffffffff\n      and\n      eq\n        /* \"inviter_presell/adminable.sol\":657:727  require(owner() == _msgSender(), \"Adminable: caller is not the owner\") */\n      tag_264\n      jumpi\n      mload(0x40)\n      0x08c379a000000000000000000000000000000000000000000000000000000000\n      dup2\n      mstore\n      0x04\n      add\n      tag_265\n      swap1\n      tag_189\n      jump\t// in\n    tag_265:\n      mload(0x40)\n      dup1\n      swap2\n      sub\n      swap1\n      revert\n    tag_264:\n        /* \"inviter_presell/adminable.sol\":1144:1174  _transferOwnership(address(0)) */\n      tag_267\n        /* \"inviter_presell/adminable.sol\":1171:1172  0 */\n      0x00\n        /* \"inviter_presell/adminable.sol\":1144:1162  _transferOwnership */\n      tag_268\n        /* \"inviter_presell/adminable.sol\":1144:1174  _transferOwnership(address(0)) */\n      jump\t// in\n    tag_267:\n        /* \"inviter_presell/adminable.sol\":1080:1181  function renounceOwnership() public virtual onlyOwner {... */\n      jump\t// out\n        /* \"inviter_presell/stake.sol\":589:613  uint256 public startTime */\n    tag_98:\n      sload(0x06)\n      dup2\n      jump\t// out\n        /* \"inviter_presell/stake.sol\":707:752  uint256 public rateIntervalDenominator = 1000 */\n    tag_101:\n      sload(0x09)\n      dup2\n      jump\t// out\n        /* \"inviter_presell/stake.sol\":4517:4622  function lastTimeRewardApplicable() public view returns (uint256) {... */\n    tag_104:\n        /* \"inviter_presell/stake.sol\":4574:4581  uint256 */\n      0x00\n        /* \"inviter_presell/stake.sol\":4600:4615  block.timestamp */\n      timestamp\n        /* \"inviter_presell/stake.sol\":4593:4615  return block.timestamp */\n      swap1\n      pop\n        /* \"inviter_presell/stake.sol\":4517:4622  function lastTimeRewardApplicable() public view returns (uint256) {... */\n      swap1\n      jump\t// out\n        /* \"inviter_presell/stake.sol\":932:985  mapping(address => uint256) public userLastUpdateTime */\n    tag_108:\n      mstore(0x20, 0x0e)\n      dup1\n      0x00\n      mstore\n      keccak256(0x00, 0x40)\n      0x00\n      swap2\n      pop\n      swap1\n      pop\n      sload\n      dup2\n      jump\t// out\n        /* \"inviter_presell/stake.sol\":4628:4968  function rewardPerToken(uint256 rewardRate) public view returns (uint256) {... */\n    tag_112:\n        /* \"inviter_presell/stake.sol\":4693:4700  uint256 */\n      0x00\n        /* \"inviter_presell/stake.sol\":4732:4733  0 */\n      dup1\n        /* \"inviter_presell/stake.sol\":4716:4728  _totalPowers */\n      sload(0x0c)\n        /* \"inviter_presell/stake.sol\":4716:4733  _totalPowers == 0 */\n      sub\n        /* \"inviter_presell/stake.sol\":4712:4787  if (_totalPowers == 0) {... */\n      tag_271\n      jumpi\n        /* \"inviter_presell/stake.sol\":4756:4776  rewardPerTokenStored */\n      sload(0x0b)\n        /* \"inviter_presell/stake.sol\":4749:4776  return rewardPerTokenStored */\n      swap1\n      pop\n      jump(tag_270)\n        /* \"inviter_presell/stake.sol\":4712:4787  if (_totalPowers == 0) {... */\n    tag_271:\n        /* \"inviter_presell/stake.sol\":4815:4961  rewardPerTokenStored.add(... */\n      tag_272\n        /* \"inviter_presell/stake.sol\":4857:4947  lastTimeRewardApplicable().sub(lastUpdateTime).mul(rewardRate).mul(1e18).div(_totalPowers) */\n      tag_273\n        /* \"inviter_presell/stake.sol\":4934:4946  _totalPowers */\n      sload(0x0c)\n        /* \"inviter_presell/stake.sol\":4857:4929  lastTimeRewardApplicable().sub(lastUpdateTime).mul(rewardRate).mul(1e18) */\n      tag_274\n        /* \"inviter_presell/stake.sol\":4924:4928  1e18 */\n      0x0de0b6b3a7640000\n        /* \"inviter_presell/stake.sol\":4857:4919  lastTimeRewardApplicable().sub(lastUpdateTime).mul(rewardRate) */\n      tag_275\n        /* \"inviter_presell/stake.sol\":4908:4918  rewardRate */\n      dup8\n        /* \"inviter_presell/stake.sol\":4857:4903  lastTimeRewardApplicable().sub(lastUpdateTime) */\n      tag_276\n        /* \"inviter_presell/stake.sol\":4888:4902  lastUpdateTime */\n      sload(0x0a)\n        /* \"inviter_presell/stake.sol\":4857:4883  lastTimeRewardApplicable() */\n      tag_277\n        /* \"inviter_presell/stake.sol\":4857:4881  lastTimeRewardApplicable */\n      tag_104\n        /* \"inviter_presell/stake.sol\":4857:4883  lastTimeRewardApplicable() */\n      jump\t// in\n    tag_277:\n        /* \"inviter_presell/stake.sol\":4857:4887  lastTimeRewardApplicable().sub */\n      tag_179\n      swap1\n        /* \"inviter_presell/stake.sol\":4857:4903  lastTimeRewardApplicable().sub(lastUpdateTime) */\n      swap2\n      swap1\n      0xffffffff\n      and\n      jump\t// in\n    tag_276:\n        /* \"inviter_presell/stake.sol\":4857:4907  lastTimeRewardApplicable().sub(lastUpdateTime).mul */\n      tag_180\n      swap1\n        /* \"inviter_presell/stake.sol\":4857:4919  lastTimeRewardApplicable().sub(lastUpdateTime).mul(rewardRate) */\n      swap2\n      swap1\n      0xffffffff\n      and\n      jump\t// in\n    tag_275:\n        /* \"inviter_presell/stake.sol\":4857:4923  lastTimeRewardApplicable().sub(lastUpdateTime).mul(rewardRate).mul */\n      tag_180\n      swap1\n        /* \"inviter_presell/stake.sol\":4857:4929  lastTimeRewardApplicable().sub(lastUpdateTime).mul(rewardRate).mul(1e18) */\n      swap2\n      swap1\n      0xffffffff\n      and\n      jump\t// in\n    tag_274:\n        /* \"inviter_presell/stake.sol\":4857:4933  lastTimeRewardApplicable().sub(lastUpdateTime).mul(rewardRate).mul(1e18).div */\n      tag_181\n      swap1\n        /* \"inviter_presell/stake.sol\":4857:4947  lastTimeRewardApplicable().sub(lastUpdateTime).mul(rewardRate).mul(1e18).div(_totalPowers) */\n      swap2\n      swap1\n      0xffffffff\n      and\n      jump\t// in\n    tag_273:\n        /* \"inviter_presell/stake.sol\":4815:4835  rewardPerTokenStored */\n      sload(0x0b)\n        /* \"inviter_presell/stake.sol\":4815:4839  rewardPerTokenStored.add */\n      tag_182\n      swap1\n        /* \"inviter_presell/stake.sol\":4815:4961  rewardPerTokenStored.add(... */\n      swap2\n      swap1\n      0xffffffff\n      and\n      jump\t// in\n    tag_272:\n        /* \"inviter_presell/stake.sol\":4796:4961  return... */\n      swap1\n      pop\n        /* \"inviter_presell/stake.sol\":4628:4968  function rewardPerToken(uint256 rewardRate) public view returns (uint256) {... */\n    tag_270:\n      swap2\n      swap1\n      pop\n      jump\t// out\n        /* \"inviter_presell/stake.sol\":7318:7421  function setRewardToken(address token) external onlyOwner {... */\n    tag_116:\n        /* \"inviter_presell/adminable.sol\":676:688  _msgSender() */\n      tag_279\n        /* \"inviter_presell/adminable.sol\":676:686  _msgSender */\n      tag_185\n        /* \"inviter_presell/adminable.sol\":676:688  _msgSender() */\n      jump\t// in\n    tag_279:\n        /* \"inviter_presell/adminable.sol\":665:688  owner() == _msgSender() */\n      0xffffffffffffffffffffffffffffffffffffffff\n      and\n        /* \"inviter_presell/adminable.sol\":665:672  owner() */\n      tag_280\n        /* \"inviter_presell/adminable.sol\":665:670  owner */\n      tag_122\n        /* \"inviter_presell/adminable.sol\":665:672  owner() */\n      jump\t// in\n    tag_280:\n        /* \"inviter_presell/adminable.sol\":665:688  owner() == _msgSender() */\n      0xffffffffffffffffffffffffffffffffffffffff\n      and\n      eq\n        /* \"inviter_presell/adminable.sol\":657:727  require(owner() == _msgSender(), \"Adminable: caller is not the owner\") */\n      tag_281\n      jumpi\n      mload(0x40)\n      0x08c379a000000000000000000000000000000000000000000000000000000000\n      dup2\n      mstore\n      0x04\n      add\n      tag_282\n      swap1\n      tag_189\n      jump\t// in\n    tag_282:\n      mload(0x40)\n      dup1\n      swap2\n      sub\n      swap1\n      revert\n    tag_281:\n        /* \"inviter_presell/stake.sol\":7408:7413  token */\n      dup1\n        /* \"inviter_presell/stake.sol\":7386:7398  rewardsToken */\n      0x03\n      0x00\n        /* \"inviter_presell/stake.sol\":7386:7414  rewardsToken = IERC20(token) */\n      0x0100\n      exp\n      dup2\n      sload\n      dup2\n      0xffffffffffffffffffffffffffffffffffffffff\n      mul\n      not\n      and\n      swap1\n      dup4\n      0xffffffffffffffffffffffffffffffffffffffff\n      and\n      mul\n      or\n      swap1\n      sstore\n      pop\n        /* \"inviter_presell/stake.sol\":7318:7421  function setRewardToken(address token) external onlyOwner {... */\n      pop\n      jump\t// out\n        /* \"inviter_presell/stake.sol\":869:926  mapping(address => uint256) public userRewardPerTokenPaid */\n    tag_119:\n      mstore(0x20, 0x0d)\n      dup1\n      0x00\n      mstore\n      keccak256(0x00, 0x40)\n      0x00\n      swap2\n      pop\n      swap1\n      pop\n      sload\n      dup2\n      jump\t// out\n        /* \"inviter_presell/adminable.sol\":874:959  function owner() public view virtual returns (address) {... */\n    tag_122:\n        /* \"inviter_presell/adminable.sol\":920:927  address */\n      0x00\n        /* \"inviter_presell/adminable.sol\":946:952  _owner */\n      0x01\n      0x00\n      swap1\n      sload\n      swap1\n      0x0100\n      exp\n      swap1\n      div\n      0xffffffffffffffffffffffffffffffffffffffff\n      and\n        /* \"inviter_presell/adminable.sol\":939:952  return _owner */\n      swap1\n      pop\n        /* \"inviter_presell/adminable.sol\":874:959  function owner() public view virtual returns (address) {... */\n      swap1\n      jump\t// out\n        /* \"inviter_presell/stake.sol\":2202:2299  function setTotalRewards(uint256 amount) public  onlyOwner {... */\n    tag_127:\n        /* \"inviter_presell/adminable.sol\":676:688  _msgSender() */\n      tag_286\n        /* \"inviter_presell/adminable.sol\":676:686  _msgSender */\n      tag_185\n        /* \"inviter_presell/adminable.sol\":676:688  _msgSender() */\n      jump\t// in\n    tag_286:\n        /* \"inviter_presell/adminable.sol\":665:688  owner() == _msgSender() */\n      0xffffffffffffffffffffffffffffffffffffffff\n      and\n        /* \"inviter_presell/adminable.sol\":665:672  owner() */\n      tag_287\n        /* \"inviter_presell/adminable.sol\":665:670  owner */\n      tag_122\n        /* \"inviter_presell/adminable.sol\":665:672  owner() */\n      jump\t// in\n    tag_287:\n        /* \"inviter_presell/adminable.sol\":665:688  owner() == _msgSender() */\n      0xffffffffffffffffffffffffffffffffffffffff\n      and\n      eq\n        /* \"inviter_presell/adminable.sol\":657:727  require(owner() == _msgSender(), \"Adminable: caller is not the owner\") */\n      tag_288\n      jumpi\n      mload(0x40)\n      0x08c379a000000000000000000000000000000000000000000000000000000000\n      dup2\n      mstore\n      0x04\n      add\n      tag_289\n      swap1\n      tag_189\n      jump\t// in\n    tag_289:\n      mload(0x40)\n      dup1\n      swap2\n      sub\n      swap1\n      revert\n    tag_288:\n        /* \"inviter_presell/stake.sol\":2286:2292  amount */\n      dup1\n        /* \"inviter_presell/stake.sol\":2271:2283  totalRewards */\n      0x05\n        /* \"inviter_presell/stake.sol\":2271:2292  totalRewards = amount */\n      dup2\n      swap1\n      sstore\n      pop\n        /* \"inviter_presell/stake.sol\":2202:2299  function setTotalRewards(uint256 amount) public  onlyOwner {... */\n      pop\n      jump\t// out\n        /* \"inviter_presell/stake.sol\":2518:2630  function getCurRewardPool() public view returns (uint256) {... */\n    tag_129:\n        /* \"inviter_presell/stake.sol\":2567:2574  uint256 */\n      0x00\n        /* \"inviter_presell/stake.sol\":2593:2623  getRewardPool(block.timestamp) */\n      tag_292\n        /* \"inviter_presell/stake.sol\":2607:2622  block.timestamp */\n      timestamp\n        /* \"inviter_presell/stake.sol\":2593:2606  getRewardPool */\n      tag_87\n        /* \"inviter_presell/stake.sol\":2593:2623  getRewardPool(block.timestamp) */\n      jump\t// in\n    tag_292:\n        /* \"inviter_presell/stake.sol\":2586:2623  return getRewardPool(block.timestamp) */\n      swap1\n      pop\n        /* \"inviter_presell/stake.sol\":2518:2630  function getCurRewardPool() public view returns (uint256) {... */\n      swap1\n      jump\t// out\n        /* \"inviter_presell/stake.sol\":2305:2397  function curTime() external  view  returns (uint256) {... */\n    tag_132:\n        /* \"inviter_presell/stake.sol\":2349:2356  uint256 */\n      0x00\n        /* \"inviter_presell/stake.sol\":2375:2390  block.timestamp */\n      timestamp\n        /* \"inviter_presell/stake.sol\":2368:2390  return block.timestamp */\n      swap1\n      pop\n        /* \"inviter_presell/stake.sol\":2305:2397  function curTime() external  view  returns (uint256) {... */\n      swap1\n      jump\t// out\n        /* \"inviter_presell/stake.sol\":7666:7807  function emergencyWithdrawToken(address token, uint256 amount) external onlyOwner {... */\n    tag_137:\n        /* \"inviter_presell/adminable.sol\":676:688  _msgSender() */\n      tag_295\n        /* \"inviter_presell/adminable.sol\":676:686  _msgSender */\n      tag_185\n        /* \"inviter_presell/adminable.sol\":676:688  _msgSender() */\n      jump\t// in\n    tag_295:\n        /* \"inviter_presell/adminable.sol\":665:688  owner() == _msgSender() */\n      0xffffffffffffffffffffffffffffffffffffffff\n      and\n        /* \"inviter_presell/adminable.sol\":665:672  owner() */\n      tag_296\n        /* \"inviter_presell/adminable.sol\":665:670  owner */\n      tag_122\n        /* \"inviter_presell/adminable.sol\":665:672  owner() */\n      jump\t// in\n    tag_296:\n        /* \"inviter_presell/adminable.sol\":665:688  owner() == _msgSender() */\n      0xffffffffffffffffffffffffffffffffffffffff\n      and\n      eq\n        /* \"inviter_presell/adminable.sol\":657:727  require(owner() == _msgSender(), \"Adminable: caller is not the owner\") */\n      tag_297\n      jumpi\n      mload(0x40)\n      0x08c379a000000000000000000000000000000000000000000000000000000000\n      dup2\n      mstore\n      0x04\n      add\n      tag_298\n      swap1\n      tag_189\n      jump\t// in\n    tag_298:\n      mload(0x40)\n      dup1\n      swap2\n      sub\n      swap1\n      revert\n    tag_297:\n        /* \"inviter_presell/stake.sol\":7765:7770  token */\n      dup2\n        /* \"inviter_presell/stake.sol\":7758:7780  IERC20(token).transfer */\n      0xffffffffffffffffffffffffffffffffffffffff\n      and\n      0xa9059cbb\n        /* \"inviter_presell/stake.sol\":7781:7791  msg.sender */\n      caller\n        /* \"inviter_presell/stake.sol\":7793:7799  amount */\n      dup4\n        /* \"inviter_presell/stake.sol\":7758:7800  IERC20(token).transfer(msg.sender, amount) */\n      mload(0x40)\n      dup4\n      0xffffffff\n      and\n      0xe0\n      shl\n      dup2\n      mstore\n      0x04\n      add\n      tag_300\n      swap3\n      swap2\n      swap1\n      tag_216\n      jump\t// in\n    tag_300:\n      0x20\n      mload(0x40)\n      dup1\n      dup4\n      sub\n      dup2\n      0x00\n      dup8\n      gas\n      call\n      iszero\n      dup1\n      iszero\n      tag_302\n      jumpi\n      returndatasize\n      0x00\n      dup1\n      returndatacopy\n      revert(0x00, returndatasize)\n    tag_302:\n      pop\n      pop\n      pop\n      pop\n      mload(0x40)\n      returndatasize\n      not(0x1f)\n      0x1f\n      dup3\n      add\n      and\n      dup3\n      add\n      dup1\n      0x40\n      mstore\n      pop\n      dup2\n      add\n      swap1\n      tag_303\n      swap2\n      swap1\n      tag_220\n      jump\t// in\n    tag_303:\n      pop\n        /* \"inviter_presell/stake.sol\":7666:7807  function emergencyWithdrawToken(address token, uint256 amount) external onlyOwner {... */\n      pop\n      pop\n      jump\t// out\n        /* \"inviter_presell/stake.sol\":6666:6955  function stake(address user, uint256 amount) external nonReentrant onlyAdmin updateReward(user) {... */\n    tag_140:\n        /* \"node_modules/@openzeppelin/contracts/security/ReentrancyGuard.sol\":1744:1745  2 */\n      0x02\n        /* \"node_modules/@openzeppelin/contracts/security/ReentrancyGuard.sol\":2325:2332  _status */\n      dup1\n      sload\n        /* \"node_modules/@openzeppelin/contracts/security/ReentrancyGuard.sol\":2325:2344  _status != _ENTERED */\n      sub\n        /* \"node_modules/@openzeppelin/contracts/security/ReentrancyGuard.sol\":2317:2380  require(_status != _ENTERED, \"ReentrancyGuard: reentrant call\") */\n      tag_305\n      jumpi\n      mload(0x40)\n      0x08c379a000000000000000000000000000000000000000000000000000000000\n      dup2\n      mstore\n      0x04\n      add\n      tag_306\n      swap1\n      tag_203\n      jump\t// in\n    tag_306:\n      mload(0x40)\n      dup1\n      swap2\n      sub\n      swap1\n      revert\n    tag_305:\n        /* \"node_modules/@openzeppelin/contracts/security/ReentrancyGuard.sol\":1744:1745  2 */\n      0x02\n        /* \"node_modules/@openzeppelin/contracts/security/ReentrancyGuard.sol\":2455:2462  _status */\n      dup1\n        /* \"node_modules/@openzeppelin/contracts/security/ReentrancyGuard.sol\":2455:2473  _status = _ENTERED */\n      dup2\n      swap1\n      sstore\n      pop\n        /* \"inviter_presell/adminable.sol\":790:811  isAdmin(_msgSender()) */\n      tag_308\n        /* \"inviter_presell/adminable.sol\":798:810  _msgSender() */\n      tag_309\n        /* \"inviter_presell/adminable.sol\":798:808  _msgSender */\n      tag_185\n        /* \"inviter_presell/adminable.sol\":798:810  _msgSender() */\n      jump\t// in\n    tag_309:\n        /* \"inviter_presell/adminable.sol\":790:797  isAdmin */\n      tag_69\n        /* \"inviter_presell/adminable.sol\":790:811  isAdmin(_msgSender()) */\n      jump\t// in\n    tag_308:\n        /* \"inviter_presell/adminable.sol\":782:850  require(isAdmin(_msgSender()), \"Adminable: caller is not the admin\") */\n      tag_310\n      jumpi\n      mload(0x40)\n      0x08c379a000000000000000000000000000000000000000000000000000000000\n      dup2\n      mstore\n      0x04\n      add\n      tag_311\n      swap1\n      tag_227\n      jump\t// in\n    tag_311:\n      mload(0x40)\n      dup1\n      swap2\n      sub\n      swap1\n      revert\n    tag_310:\n        /* \"inviter_presell/stake.sol\":6756:6760  user */\n      dup2\n        /* \"inviter_presell/stake.sol\":1150:1162  uint256 time */\n      0x00\n        /* \"inviter_presell/stake.sol\":1165:1183  userLastUpdateTime */\n      0x0e\n        /* \"inviter_presell/stake.sol\":1165:1192  userLastUpdateTime[account] */\n      0x00\n        /* \"inviter_presell/stake.sol\":1184:1191  account */\n      dup4\n        /* \"inviter_presell/stake.sol\":1165:1192  userLastUpdateTime[account] */\n      0xffffffffffffffffffffffffffffffffffffffff\n      and\n      0xffffffffffffffffffffffffffffffffffffffff\n      and\n      dup2\n      mstore\n      0x20\n      add\n      swap1\n      dup2\n      mstore\n      0x20\n      add\n      0x00\n      keccak256\n      sload\n        /* \"inviter_presell/stake.sol\":1150:1192  uint256 time = userLastUpdateTime[account] */\n      swap1\n      pop\n        /* \"inviter_presell/stake.sol\":1213:1222  startTime */\n      sload(0x06)\n        /* \"inviter_presell/stake.sol\":1205:1209  time */\n      dup2\n        /* \"inviter_presell/stake.sol\":1205:1222  time <= startTime */\n      gt\n        /* \"inviter_presell/stake.sol\":1202:1265  if(time <= startTime) {... */\n      tag_313\n      jumpi\n        /* \"inviter_presell/stake.sol\":1245:1254  startTime */\n      sload(0x06)\n        /* \"inviter_presell/stake.sol\":1238:1254  time = startTime */\n      swap1\n      pop\n        /* \"inviter_presell/stake.sol\":1202:1265  if(time <= startTime) {... */\n    tag_313:\n        /* \"inviter_presell/stake.sol\":1274:1286  uint256 rate */\n      0x00\n        /* \"inviter_presell/stake.sol\":1289:1334  getTimeWeightedAveRate(time, block.timestamp) */\n      tag_314\n        /* \"inviter_presell/stake.sol\":1312:1316  time */\n      dup3\n        /* \"inviter_presell/stake.sol\":1318:1333  block.timestamp */\n      timestamp\n        /* \"inviter_presell/stake.sol\":1289:1311  getTimeWeightedAveRate */\n      tag_162\n        /* \"inviter_presell/stake.sol\":1289:1334  getTimeWeightedAveRate(time, block.timestamp) */\n      jump\t// in\n    tag_314:\n        /* \"inviter_presell/stake.sol\":1274:1334  uint256 rate = getTimeWeightedAveRate(time, block.timestamp) */\n      swap1\n      pop\n        /* \"inviter_presell/stake.sol\":1367:1387  rewardPerToken(rate) */\n      tag_315\n        /* \"inviter_presell/stake.sol\":1382:1386  rate */\n      dup2\n        /* \"inviter_presell/stake.sol\":1367:1381  rewardPerToken */\n      tag_112\n        /* \"inviter_presell/stake.sol\":1367:1387  rewardPerToken(rate) */\n      jump\t// in\n    tag_315:\n        /* \"inviter_presell/stake.sol\":1344:1364  rewardPerTokenStored */\n      0x0b\n        /* \"inviter_presell/stake.sol\":1344:1387  rewardPerTokenStored = rewardPerToken(rate) */\n      dup2\n      swap1\n      sstore\n      pop\n        /* \"inviter_presell/stake.sol\":1414:1440  lastTimeRewardApplicable() */\n      tag_316\n        /* \"inviter_presell/stake.sol\":1414:1438  lastTimeRewardApplicable */\n      tag_104\n        /* \"inviter_presell/stake.sol\":1414:1440  lastTimeRewardApplicable() */\n      jump\t// in\n    tag_316:\n        /* \"inviter_presell/stake.sol\":1397:1411  lastUpdateTime */\n      0x0a\n        /* \"inviter_presell/stake.sol\":1397:1440  lastUpdateTime = lastTimeRewardApplicable() */\n      dup2\n      swap1\n      sstore\n      pop\n        /* \"inviter_presell/stake.sol\":1473:1474  0 */\n      0x00\n        /* \"inviter_presell/stake.sol\":1454:1475  account != address(0) */\n      0xffffffffffffffffffffffffffffffffffffffff\n      and\n        /* \"inviter_presell/stake.sol\":1454:1461  account */\n      dup4\n        /* \"inviter_presell/stake.sol\":1454:1475  account != address(0) */\n      0xffffffffffffffffffffffffffffffffffffffff\n      and\n      eq\n        /* \"inviter_presell/stake.sol\":1450:1663  if (account != address(0)) {... */\n      tag_317\n      jumpi\n        /* \"inviter_presell/stake.sol\":1510:1525  earned(account) */\n      tag_318\n        /* \"inviter_presell/stake.sol\":1517:1524  account */\n      dup4\n        /* \"inviter_presell/stake.sol\":1510:1516  earned */\n      tag_49\n        /* \"inviter_presell/stake.sol\":1510:1525  earned(account) */\n      jump\t// in\n    tag_318:\n        /* \"inviter_presell/stake.sol\":1491:1498  rewards */\n      0x04\n        /* \"inviter_presell/stake.sol\":1491:1507  rewards[account] */\n      0x00\n        /* \"inviter_presell/stake.sol\":1499:1506  account */\n      dup6\n        /* \"inviter_presell/stake.sol\":1491:1507  rewards[account] */\n      0xffffffffffffffffffffffffffffffffffffffff\n      and\n      0xffffffffffffffffffffffffffffffffffffffff\n      and\n      dup2\n      mstore\n      0x20\n      add\n      swap1\n      dup2\n      mstore\n      0x20\n      add\n      0x00\n      keccak256\n        /* \"inviter_presell/stake.sol\":1491:1525  rewards[account] = earned(account) */\n      dup2\n      swap1\n      sstore\n      pop\n        /* \"inviter_presell/stake.sol\":1573:1593  rewardPerTokenStored */\n      sload(0x0b)\n        /* \"inviter_presell/stake.sol\":1539:1561  userRewardPerTokenPaid */\n      0x0d\n        /* \"inviter_presell/stake.sol\":1539:1570  userRewardPerTokenPaid[account] */\n      0x00\n        /* \"inviter_presell/stake.sol\":1562:1569  account */\n      dup6\n        /* \"inviter_presell/stake.sol\":1539:1570  userRewardPerTokenPaid[account] */\n      0xffffffffffffffffffffffffffffffffffffffff\n      and\n      0xffffffffffffffffffffffffffffffffffffffff\n      and\n      dup2\n      mstore\n      0x20\n      add\n      swap1\n      dup2\n      mstore\n      0x20\n      add\n      0x00\n      keccak256\n        /* \"inviter_presell/stake.sol\":1539:1593  userRewardPerTokenPaid[account] = rewardPerTokenStored */\n      dup2\n      swap1\n      sstore\n      pop\n        /* \"inviter_presell/stake.sol\":1637:1652  block.timestamp */\n      timestamp\n        /* \"inviter_presell/stake.sol\":1607:1625  userLastUpdateTime */\n      0x0e\n        /* \"inviter_presell/stake.sol\":1607:1634  userLastUpdateTime[account] */\n      0x00\n        /* \"inviter_presell/stake.sol\":1626:1633  account */\n      dup6\n        /* \"inviter_presell/stake.sol\":1607:1634  userLastUpdateTime[account] */\n      0xffffffffffffffffffffffffffffffffffffffff\n      and\n      0xffffffffffffffffffffffffffffffffffffffff\n      and\n      dup2\n      mstore\n      0x20\n      add\n      swap1\n      dup2\n      mstore\n      0x20\n      add\n      0x00\n      keccak256\n        /* \"inviter_presell/stake.sol\":1607:1652  userLastUpdateTime[account] = block.timestamp */\n      dup2\n      swap1\n      sstore\n      pop\n        /* \"inviter_presell/stake.sol\":1450:1663  if (account != address(0)) {... */\n    tag_317:\n        /* \"inviter_presell/stake.sol\":6789:6790  0 */\n      0x00\n        /* \"inviter_presell/stake.sol\":6780:6786  amount */\n      dup5\n        /* \"inviter_presell/stake.sol\":6780:6790  amount > 0 */\n      gt\n        /* \"inviter_presell/stake.sol\":6772:6809  require(amount > 0, \"Cannot stake 0\") */\n      tag_320\n      jumpi\n      mload(0x40)\n      0x08c379a000000000000000000000000000000000000000000000000000000000\n      dup2\n      mstore\n      0x04\n      add\n      tag_321\n      swap1\n      tag_322\n      jump\t// in\n    tag_321:\n      mload(0x40)\n      dup1\n      swap2\n      sub\n      swap1\n      revert\n    tag_320:\n        /* \"inviter_presell/stake.sol\":6834:6858  _totalPowers.add(amount) */\n      tag_323\n        /* \"inviter_presell/stake.sol\":6851:6857  amount */\n      dup5\n        /* \"inviter_presell/stake.sol\":6834:6846  _totalPowers */\n      sload(0x0c)\n        /* \"inviter_presell/stake.sol\":6834:6850  _totalPowers.add */\n      tag_182\n      swap1\n        /* \"inviter_presell/stake.sol\":6834:6858  _totalPowers.add(amount) */\n      swap2\n      swap1\n      0xffffffff\n      and\n      jump\t// in\n    tag_323:\n        /* \"inviter_presell/stake.sol\":6819:6831  _totalPowers */\n      0x0c\n        /* \"inviter_presell/stake.sol\":6819:6858  _totalPowers = _totalPowers.add(amount) */\n      dup2\n      swap1\n      sstore\n      pop\n        /* \"inviter_presell/stake.sol\":6886:6913  _balances[user].add(amount) */\n      tag_324\n        /* \"inviter_presell/stake.sol\":6906:6912  amount */\n      dup5\n        /* \"inviter_presell/stake.sol\":6886:6895  _balances */\n      0x0f\n        /* \"inviter_presell/stake.sol\":6886:6901  _balances[user] */\n      0x00\n        /* \"inviter_presell/stake.sol\":6896:6900  user */\n      dup9\n        /* \"inviter_presell/stake.sol\":6886:6901  _balances[user] */\n      0xffffffffffffffffffffffffffffffffffffffff\n      and\n      0xffffffffffffffffffffffffffffffffffffffff\n      and\n      dup2\n      mstore\n      0x20\n      add\n      swap1\n      dup2\n      mstore\n      0x20\n      add\n      0x00\n      keccak256\n      sload\n        /* \"inviter_presell/stake.sol\":6886:6905  _balances[user].add */\n      tag_182\n      swap1\n        /* \"inviter_presell/stake.sol\":6886:6913  _balances[user].add(amount) */\n      swap2\n      swap1\n      0xffffffff\n      and\n      jump\t// in\n    tag_324:\n        /* \"inviter_presell/stake.sol\":6868:6877  _balances */\n      0x0f\n        /* \"inviter_presell/stake.sol\":6868:6883  _balances[user] */\n      0x00\n        /* \"inviter_presell/stake.sol\":6878:6882  user */\n      dup8\n        /* \"inviter_presell/stake.sol\":6868:6883  _balances[user] */\n      0xffffffffffffffffffffffffffffffffffffffff\n      and\n      0xffffffffffffffffffffffffffffffffffffffff\n      and\n      dup2\n      mstore\n      0x20\n      add\n      swap1\n      dup2\n      mstore\n      0x20\n      add\n      0x00\n      keccak256\n        /* \"inviter_presell/stake.sol\":6868:6913  _balances[user] = _balances[user].add(amount) */\n      dup2\n      swap1\n      sstore\n      pop\n        /* \"inviter_presell/stake.sol\":6935:6939  user */\n      dup5\n        /* \"inviter_presell/stake.sol\":6928:6948  Staked(user, amount) */\n      0xffffffffffffffffffffffffffffffffffffffff\n      and\n      0x9e71bc8eea02a63969f509818f2dafb9254532904319f9dbda79b67bd34a5f3d\n        /* \"inviter_presell/stake.sol\":6941:6947  amount */\n      dup6\n        /* \"inviter_presell/stake.sol\":6928:6948  Staked(user, amount) */\n      mload(0x40)\n      tag_325\n      swap2\n      swap1\n      tag_51\n      jump\t// in\n    tag_325:\n      mload(0x40)\n      dup1\n      swap2\n      sub\n      swap1\n      log2\n        /* \"inviter_presell/stake.sol\":1140:1680  {... */\n      pop\n      pop\n        /* \"inviter_presell/adminable.sol\":860:861  _ */\n      pop\n        /* \"node_modules/@openzeppelin/contracts/security/ReentrancyGuard.sol\":1701:1702  1 */\n      0x01\n        /* \"node_modules/@openzeppelin/contracts/security/ReentrancyGuard.sol\":2628:2635  _status */\n      0x02\n        /* \"node_modules/@openzeppelin/contracts/security/ReentrancyGuard.sol\":2628:2650  _status = _NOT_ENTERED */\n      dup2\n      swap1\n      sstore\n      pop\n        /* \"inviter_presell/stake.sol\":6666:6955  function stake(address user, uint256 amount) external nonReentrant onlyAdmin updateReward(user) {... */\n      pop\n      pop\n      jump\t// out\n        /* \"inviter_presell/stake.sol\":2403:2512  function powersOf(address account) external view returns (uint256) {... */\n    tag_143:\n        /* \"inviter_presell/stake.sol\":2461:2468  uint256 */\n      0x00\n        /* \"inviter_presell/stake.sol\":2487:2496  _balances */\n      0x0f\n        /* \"inviter_presell/stake.sol\":2487:2505  _balances[account] */\n      0x00\n        /* \"inviter_presell/stake.sol\":2497:2504  account */\n      dup4\n        /* \"inviter_presell/stake.sol\":2487:2505  _balances[account] */\n      0xffffffffffffffffffffffffffffffffffffffff\n      and\n      0xffffffffffffffffffffffffffffffffffffffff\n      and\n      dup2\n      mstore\n      0x20\n      add\n      swap1\n      dup2\n      mstore\n      0x20\n      add\n      0x00\n      keccak256\n      sload\n        /* \"inviter_presell/stake.sol\":2480:2505  return _balances[account] */\n      swap1\n      pop\n        /* \"inviter_presell/stake.sol\":2403:2512  function powersOf(address account) external view returns (uint256) {... */\n      swap2\n      swap1\n      pop\n      jump\t// out\n        /* \"inviter_presell/stake.sol\":758:787  uint256 public lastUpdateTime */\n    tag_146:\n      sload(0x0a)\n      dup2\n      jump\t// out\n        /* \"inviter_presell/stake.sol\":4173:4286  function getCurRewardRate() public view returns (uint256) {... */\n    tag_149:\n        /* \"inviter_presell/stake.sol\":4222:4229  uint256 */\n      0x00\n        /* \"inviter_presell/stake.sol\":4248:4279  _getRewardRate(block.timestamp) */\n      tag_328\n        /* \"inviter_presell/stake.sol\":4263:4278  block.timestamp */\n      timestamp\n        /* \"inviter_presell/stake.sol\":4248:4262  _getRewardRate */\n      tag_329\n        /* \"inviter_presell/stake.sol\":4248:4279  _getRewardRate(block.timestamp) */\n      jump\t// in\n    tag_328:\n        /* \"inviter_presell/stake.sol\":4241:4279  return _getRewardRate(block.timestamp) */\n      swap1\n      pop\n        /* \"inviter_presell/stake.sol\":4173:4286  function getCurRewardRate() public view returns (uint256) {... */\n      swap1\n      jump\t// out\n        /* \"inviter_presell/stake.sol\":455:481  IERC20 public rewardsToken */\n    tag_152:\n      0x03\n      0x00\n      swap1\n      sload\n      swap1\n      0x0100\n      exp\n      swap1\n      div\n      0xffffffffffffffffffffffffffffffffffffffff\n      and\n      dup2\n      jump\t// out\n        /* \"inviter_presell/stake.sol\":1042:1092  mapping(address => uint256) public claimedBalances */\n    tag_157:\n      mstore(0x20, 0x10)\n      dup1\n      0x00\n      mstore\n      keccak256(0x00, 0x40)\n      0x00\n      swap2\n      pop\n      swap1\n      pop\n      sload\n      dup2\n      jump\t// out\n        /* \"inviter_presell/stake.sol\":5307:6659  function getTimeWeightedAveRate(uint256 leftTime, uint256 rightTime) public view returns (uint256){... */\n    tag_162:\n        /* \"inviter_presell/stake.sol\":5397:5404  uint256 */\n      0x00\n        /* \"inviter_presell/stake.sol\":5440:5441  0 */\n      dup1\n        /* \"inviter_presell/stake.sol\":5427:5436  startTime */\n      sload(0x06)\n        /* \"inviter_presell/stake.sol\":5427:5441  startTime == 0 */\n      eq\n        /* \"inviter_presell/stake.sol\":5427:5466  startTime == 0 || leftTime >= rightTime */\n      dup1\n      tag_331\n      jumpi\n      pop\n        /* \"inviter_presell/stake.sol\":5457:5466  rightTime */\n      dup2\n        /* \"inviter_presell/stake.sol\":5445:5453  leftTime */\n      dup4\n        /* \"inviter_presell/stake.sol\":5445:5466  leftTime >= rightTime */\n      lt\n      iszero\n        /* \"inviter_presell/stake.sol\":5427:5466  startTime == 0 || leftTime >= rightTime */\n    tag_331:\n        /* \"inviter_presell/stake.sol\":5427:5483  startTime == 0 || leftTime >= rightTime || leftTime == 0 */\n      dup1\n      tag_332\n      jumpi\n      pop\n        /* \"inviter_presell/stake.sol\":5482:5483  0 */\n      0x00\n        /* \"inviter_presell/stake.sol\":5470:5478  leftTime */\n      dup4\n        /* \"inviter_presell/stake.sol\":5470:5483  leftTime == 0 */\n      eq\n        /* \"inviter_presell/stake.sol\":5427:5483  startTime == 0 || leftTime >= rightTime || leftTime == 0 */\n    tag_332:\n        /* \"inviter_presell/stake.sol\":5424:5518  if(startTime == 0 || leftTime >= rightTime || leftTime == 0) {... */\n      iszero\n      tag_333\n      jumpi\n        /* \"inviter_presell/stake.sol\":5506:5507  0 */\n      0x00\n        /* \"inviter_presell/stake.sol\":5499:5507  return 0 */\n      swap1\n      pop\n      jump(tag_330)\n        /* \"inviter_presell/stake.sol\":5424:5518  if(startTime == 0 || leftTime >= rightTime || leftTime == 0) {... */\n    tag_333:\n        /* \"inviter_presell/stake.sol\":5542:5551  startTime */\n      sload(0x06)\n        /* \"inviter_presell/stake.sol\":5531:5539  leftTime */\n      dup4\n        /* \"inviter_presell/stake.sol\":5531:5551  leftTime < startTime */\n      lt\n        /* \"inviter_presell/stake.sol\":5528:5598  if(leftTime < startTime) {... */\n      iszero\n      tag_334\n      jumpi\n        /* \"inviter_presell/stake.sol\":5578:5587  startTime */\n      sload(0x06)\n        /* \"inviter_presell/stake.sol\":5567:5587  leftTime = startTime */\n      swap3\n      pop\n        /* \"inviter_presell/stake.sol\":5528:5598  if(leftTime < startTime) {... */\n    tag_334:\n        /* \"inviter_presell/stake.sol\":5608:5628  uint256 leftInterval */\n      0x00\n        /* \"inviter_presell/stake.sol\":5688:5700  rateInterval */\n      sload(0x07)\n        /* \"inviter_presell/stake.sol\":5672:5684  rateInterval */\n      sload(0x07)\n        /* \"inviter_presell/stake.sol\":5659:5668  startTime */\n      sload(0x06)\n        /* \"inviter_presell/stake.sol\":5648:5656  leftTime */\n      dup7\n        /* \"inviter_presell/stake.sol\":5648:5668  leftTime - startTime */\n      tag_335\n      swap2\n      swap1\n      tag_233\n      jump\t// in\n    tag_335:\n        /* \"inviter_presell/stake.sol\":5647:5684  (leftTime - startTime) % rateInterval */\n      tag_336\n      swap2\n      swap1\n      tag_337\n      jump\t// in\n    tag_336:\n        /* \"inviter_presell/stake.sol\":5632:5644  rateInterval */\n      sload(0x07)\n        /* \"inviter_presell/stake.sol\":5632:5684  rateInterval - (leftTime - startTime) % rateInterval */\n      tag_338\n      swap2\n      swap1\n      tag_233\n      jump\t// in\n    tag_338:\n        /* \"inviter_presell/stake.sol\":5631:5700  (rateInterval - (leftTime - startTime) % rateInterval) % rateInterval */\n      tag_339\n      swap2\n      swap1\n      tag_337\n      jump\t// in\n    tag_339:\n        /* \"inviter_presell/stake.sol\":5608:5700  uint256 leftInterval = (rateInterval - (leftTime - startTime) % rateInterval) % rateInterval */\n      swap1\n      pop\n        /* \"inviter_presell/stake.sol\":5710:5728  uint256 leftReward */\n      0x00\n        /* \"inviter_presell/stake.sol\":5772:5784  rateInterval */\n      sload(0x07)\n        /* \"inviter_presell/stake.sol\":5757:5769  leftInterval */\n      dup3\n        /* \"inviter_presell/stake.sol\":5731:5754  getRewardPool(leftTime) */\n      tag_340\n        /* \"inviter_presell/stake.sol\":5745:5753  leftTime */\n      dup8\n        /* \"inviter_presell/stake.sol\":5731:5744  getRewardPool */\n      tag_87\n        /* \"inviter_presell/stake.sol\":5731:5754  getRewardPool(leftTime) */\n      jump\t// in\n    tag_340:\n        /* \"inviter_presell/stake.sol\":5731:5769  getRewardPool(leftTime) * leftInterval */\n      tag_341\n      swap2\n      swap1\n      tag_241\n      jump\t// in\n    tag_341:\n        /* \"inviter_presell/stake.sol\":5731:5784  getRewardPool(leftTime) * leftInterval / rateInterval */\n      tag_342\n      swap2\n      swap1\n      tag_235\n      jump\t// in\n    tag_342:\n        /* \"inviter_presell/stake.sol\":5710:5784  uint256 leftReward = getRewardPool(leftTime) * leftInterval / rateInterval */\n      swap1\n      pop\n        /* \"inviter_presell/stake.sol\":5795:5816  uint256 rightInterval */\n      0x00\n        /* \"inviter_presell/stake.sol\":5845:5857  rateInterval */\n      sload(0x07)\n        /* \"inviter_presell/stake.sol\":5832:5841  startTime */\n      sload(0x06)\n        /* \"inviter_presell/stake.sol\":5820:5829  rightTime */\n      dup7\n        /* \"inviter_presell/stake.sol\":5820:5841  rightTime - startTime */\n      tag_343\n      swap2\n      swap1\n      tag_233\n      jump\t// in\n    tag_343:\n        /* \"inviter_presell/stake.sol\":5819:5857  (rightTime - startTime) % rateInterval */\n      tag_344\n      swap2\n      swap1\n      tag_337\n      jump\t// in\n    tag_344:\n        /* \"inviter_presell/stake.sol\":5795:5857  uint256 rightInterval = (rightTime - startTime) % rateInterval */\n      swap1\n      pop\n        /* \"inviter_presell/stake.sol\":5867:5886  uint256 rightReward */\n      0x00\n        /* \"inviter_presell/stake.sol\":5932:5944  rateInterval */\n      sload(0x07)\n        /* \"inviter_presell/stake.sol\":5916:5929  rightInterval */\n      dup3\n        /* \"inviter_presell/stake.sol\":5889:5913  getRewardPool(rightTime) */\n      tag_345\n        /* \"inviter_presell/stake.sol\":5903:5912  rightTime */\n      dup9\n        /* \"inviter_presell/stake.sol\":5889:5902  getRewardPool */\n      tag_87\n        /* \"inviter_presell/stake.sol\":5889:5913  getRewardPool(rightTime) */\n      jump\t// in\n    tag_345:\n        /* \"inviter_presell/stake.sol\":5889:5929  getRewardPool(rightTime) * rightInterval */\n      tag_346\n      swap2\n      swap1\n      tag_241\n      jump\t// in\n    tag_346:\n        /* \"inviter_presell/stake.sol\":5889:5944  getRewardPool(rightTime) * rightInterval / rateInterval */\n      tag_347\n      swap2\n      swap1\n      tag_235\n      jump\t// in\n    tag_347:\n        /* \"inviter_presell/stake.sol\":5867:5944  uint256 rightReward = getRewardPool(rightTime) * rightInterval / rateInterval */\n      swap1\n      pop\n        /* \"inviter_presell/stake.sol\":5984:5993  rightTime */\n      dup6\n        /* \"inviter_presell/stake.sol\":5969:5981  leftInterval */\n      dup5\n        /* \"inviter_presell/stake.sol\":5958:5966  leftTime */\n      dup9\n        /* \"inviter_presell/stake.sol\":5958:5981  leftTime + leftInterval */\n      tag_348\n      swap2\n      swap1\n      tag_214\n      jump\t// in\n    tag_348:\n        /* \"inviter_presell/stake.sol\":5958:5993  leftTime + leftInterval > rightTime */\n      gt\n        /* \"inviter_presell/stake.sol\":5955:6051  if(leftTime + leftInterval > rightTime) {... */\n      iszero\n      tag_349\n      jumpi\n        /* \"inviter_presell/stake.sol\":6016:6040  _getRewardRate(leftTime) */\n      tag_350\n        /* \"inviter_presell/stake.sol\":6031:6039  leftTime */\n      dup8\n        /* \"inviter_presell/stake.sol\":6016:6030  _getRewardRate */\n      tag_329\n        /* \"inviter_presell/stake.sol\":6016:6040  _getRewardRate(leftTime) */\n      jump\t// in\n    tag_350:\n        /* \"inviter_presell/stake.sol\":6009:6040  return _getRewardRate(leftTime) */\n      swap5\n      pop\n      pop\n      pop\n      pop\n      pop\n      jump(tag_330)\n        /* \"inviter_presell/stake.sol\":5955:6051  if(leftTime + leftInterval > rightTime) {... */\n    tag_349:\n        /* \"inviter_presell/stake.sol\":6061:6080  uint256 midInterval */\n      0x00\n        /* \"inviter_presell/stake.sol\":6122:6134  leftInterval */\n      dup5\n        /* \"inviter_presell/stake.sol\":6111:6119  leftTime */\n      dup9\n        /* \"inviter_presell/stake.sol\":6095:6108  rightInterval */\n      dup5\n        /* \"inviter_presell/stake.sol\":6083:6092  rightTime */\n      dup10\n        /* \"inviter_presell/stake.sol\":6083:6108  rightTime - rightInterval */\n      tag_351\n      swap2\n      swap1\n      tag_233\n      jump\t// in\n    tag_351:\n        /* \"inviter_presell/stake.sol\":6083:6119  rightTime - rightInterval - leftTime */\n      tag_352\n      swap2\n      swap1\n      tag_233\n      jump\t// in\n    tag_352:\n        /* \"inviter_presell/stake.sol\":6083:6134  rightTime - rightInterval - leftTime - leftInterval */\n      tag_353\n      swap2\n      swap1\n      tag_233\n      jump\t// in\n    tag_353:\n        /* \"inviter_presell/stake.sol\":6061:6134  uint256 midInterval = rightTime - rightInterval - leftTime - leftInterval */\n      swap1\n      pop\n        /* \"inviter_presell/stake.sol\":6144:6163  uint256 startReward */\n      0x00\n        /* \"inviter_presell/stake.sol\":6166:6190  _getRemainPool(leftTime) */\n      tag_354\n        /* \"inviter_presell/stake.sol\":6181:6189  leftTime */\n      dup10\n        /* \"inviter_presell/stake.sol\":6166:6180  _getRemainPool */\n      tag_355\n        /* \"inviter_presell/stake.sol\":6166:6190  _getRemainPool(leftTime) */\n      jump\t// in\n    tag_354:\n        /* \"inviter_presell/stake.sol\":6144:6190  uint256 startReward = _getRemainPool(leftTime) */\n      swap1\n      pop\n        /* \"inviter_presell/stake.sol\":6201:6223  uint256 midTotalReward */\n      0x00\n        /* \"inviter_presell/stake.sol\":6237:6255  uint256 nextReward */\n      dup1\n        /* \"inviter_presell/stake.sol\":6269:6282  uint256 value */\n      0x00\n        /* \"inviter_presell/stake.sol\":6285:6296  startReward */\n      dup4\n        /* \"inviter_presell/stake.sol\":6269:6296  uint256 value = startReward */\n      swap1\n      pop\n        /* \"inviter_presell/stake.sol\":6306:6319  uint256 times */\n      0x00\n        /* \"inviter_presell/stake.sol\":6336:6348  rateInterval */\n      sload(0x07)\n        /* \"inviter_presell/stake.sol\":6322:6333  midInterval */\n      dup7\n        /* \"inviter_presell/stake.sol\":6322:6348  midInterval / rateInterval */\n      tag_356\n      swap2\n      swap1\n      tag_235\n      jump\t// in\n    tag_356:\n        /* \"inviter_presell/stake.sol\":6306:6348  uint256 times = midInterval / rateInterval */\n      swap1\n      pop\n        /* \"inviter_presell/stake.sol\":6362:6371  uint256 i */\n      0x00\n        /* \"inviter_presell/stake.sol\":6358:6568  for(uint256 i = 0; i < times; ++i) {... */\n    tag_357:\n        /* \"inviter_presell/stake.sol\":6381:6386  times */\n      dup2\n        /* \"inviter_presell/stake.sol\":6377:6378  i */\n      dup2\n        /* \"inviter_presell/stake.sol\":6377:6386  i < times */\n      lt\n        /* \"inviter_presell/stake.sol\":6358:6568  for(uint256 i = 0; i < times; ++i) {... */\n      iszero\n      tag_358\n      jumpi\n        /* \"inviter_presell/stake.sol\":6452:6475  rateIntervalDenominator */\n      sload(0x09)\n        /* \"inviter_presell/stake.sol\":6428:6449  rateIntervalNumerator */\n      sload(0x08)\n        /* \"inviter_presell/stake.sol\":6420:6425  value */\n      dup5\n        /* \"inviter_presell/stake.sol\":6420:6449  value * rateIntervalNumerator */\n      tag_360\n      swap2\n      swap1\n      tag_241\n      jump\t// in\n    tag_360:\n        /* \"inviter_presell/stake.sol\":6420:6475  value * rateIntervalNumerator / rateIntervalDenominator */\n      tag_361\n      swap2\n      swap1\n      tag_235\n      jump\t// in\n    tag_361:\n        /* \"inviter_presell/stake.sol\":6407:6475  nextReward = value * rateIntervalNumerator / rateIntervalDenominator */\n      swap4\n      pop\n        /* \"inviter_presell/stake.sol\":6505:6515  nextReward */\n      dup4\n        /* \"inviter_presell/stake.sol\":6497:6502  value */\n      dup4\n        /* \"inviter_presell/stake.sol\":6497:6515  value - nextReward */\n      tag_362\n      swap2\n      swap1\n      tag_233\n      jump\t// in\n    tag_362:\n        /* \"inviter_presell/stake.sol\":6489:6515  value = value - nextReward */\n      swap3\n      pop\n        /* \"inviter_presell/stake.sol\":6547:6557  nextReward */\n      dup4\n        /* \"inviter_presell/stake.sol\":6529:6557  midTotalReward += nextReward */\n      dup6\n      tag_363\n      swap2\n      swap1\n      tag_214\n      jump\t// in\n    tag_363:\n      swap5\n      pop\n        /* \"inviter_presell/stake.sol\":6388:6391  ++i */\n      dup1\n      tag_364\n      swap1\n      tag_245\n      jump\t// in\n    tag_364:\n      swap1\n      pop\n        /* \"inviter_presell/stake.sol\":6358:6568  for(uint256 i = 0; i < times; ++i) {... */\n      jump(tag_357)\n    tag_358:\n      pop\n        /* \"inviter_presell/stake.sol\":6643:6651  leftTime */\n      dup13\n        /* \"inviter_presell/stake.sol\":6631:6640  rightTime */\n      dup13\n        /* \"inviter_presell/stake.sol\":6631:6651  rightTime - leftTime */\n      tag_365\n      swap2\n      swap1\n      tag_233\n      jump\t// in\n    tag_365:\n        /* \"inviter_presell/stake.sol\":6615:6626  rightReward */\n      dup8\n        /* \"inviter_presell/stake.sol\":6602:6612  leftReward */\n      dup11\n        /* \"inviter_presell/stake.sol\":6585:6599  midTotalReward */\n      dup7\n        /* \"inviter_presell/stake.sol\":6585:6612  midTotalReward + leftReward */\n      tag_366\n      swap2\n      swap1\n      tag_214\n      jump\t// in\n    tag_366:\n        /* \"inviter_presell/stake.sol\":6585:6626  midTotalReward + leftReward + rightReward */\n      tag_367\n      swap2\n      swap1\n      tag_214\n      jump\t// in\n    tag_367:\n        /* \"inviter_presell/stake.sol\":6584:6652  (midTotalReward + leftReward + rightReward) / (rightTime - leftTime) */\n      tag_368\n      swap2\n      swap1\n      tag_235\n      jump\t// in\n    tag_368:\n        /* \"inviter_presell/stake.sol\":6577:6652  return (midTotalReward + leftReward + rightReward) / (rightTime - leftTime) */\n      swap11\n      pop\n      pop\n      pop\n      pop\n      pop\n      pop\n      pop\n      pop\n      pop\n      pop\n      pop\n        /* \"inviter_presell/stake.sol\":5307:6659  function getTimeWeightedAveRate(uint256 leftTime, uint256 rightTime) public view returns (uint256){... */\n    tag_330:\n      swap3\n      swap2\n      pop\n      pop\n      jump\t// out\n        /* \"inviter_presell/stake.sol\":7547:7660  function emergencyWithdraw() external onlyOwner {... */\n    tag_165:\n        /* \"inviter_presell/adminable.sol\":676:688  _msgSender() */\n      tag_370\n        /* \"inviter_presell/adminable.sol\":676:686  _msgSender */\n      tag_185\n        /* \"inviter_presell/adminable.sol\":676:688  _msgSender() */\n      jump\t// in\n    tag_370:\n        /* \"inviter_presell/adminable.sol\":665:688  owner() == _msgSender() */\n      0xffffffffffffffffffffffffffffffffffffffff\n      and\n        /* \"inviter_presell/adminable.sol\":665:672  owner() */\n      tag_371\n        /* \"inviter_presell/adminable.sol\":665:670  owner */\n      tag_122\n        /* \"inviter_presell/adminable.sol\":665:672  owner() */\n      jump\t// in\n    tag_371:\n        /* \"inviter_presell/adminable.sol\":665:688  owner() == _msgSender() */\n      0xffffffffffffffffffffffffffffffffffffffff\n      and\n      eq\n        /* \"inviter_presell/adminable.sol\":657:727  require(owner() == _msgSender(), \"Adminable: caller is not the owner\") */\n      tag_372\n      jumpi\n      mload(0x40)\n      0x08c379a000000000000000000000000000000000000000000000000000000000\n      dup2\n      mstore\n      0x04\n      add\n      tag_373\n      swap1\n      tag_189\n      jump\t// in\n    tag_373:\n      mload(0x40)\n      dup1\n      swap2\n      sub\n      swap1\n      revert\n    tag_372:\n        /* \"inviter_presell/stake.sol\":7613:7620  owner() */\n      tag_375\n        /* \"inviter_presell/stake.sol\":7613:7618  owner */\n      tag_122\n        /* \"inviter_presell/stake.sol\":7613:7620  owner() */\n      jump\t// in\n    tag_375:\n        /* \"inviter_presell/stake.sol\":7605:7630  payable(owner()).transfer */\n      0xffffffffffffffffffffffffffffffffffffffff\n      and\n        /* \"inviter_presell/stake.sol\":7605:7653  payable(owner()).transfer(address(this).balance) */\n      0x08fc\n        /* \"inviter_presell/stake.sol\":7631:7652  address(this).balance */\n      selfbalance\n        /* \"inviter_presell/stake.sol\":7605:7653  payable(owner()).transfer(address(this).balance) */\n      swap1\n      dup2\n      iszero\n      mul\n      swap1\n      mload(0x40)\n      0x00\n      mload(0x40)\n      dup1\n      dup4\n      sub\n      dup2\n      dup6\n      dup9\n      dup9\n      call\n      swap4\n      pop\n      pop\n      pop\n      pop\n      iszero\n      dup1\n      iszero\n      tag_377\n      jumpi\n      returndatasize\n      0x00\n      dup1\n      returndatacopy\n      revert(0x00, returndatasize)\n    tag_377:\n      pop\n        /* \"inviter_presell/stake.sol\":7547:7660  function emergencyWithdraw() external onlyOwner {... */\n      jump\t// out\n        /* \"inviter_presell/stake.sol\":793:828  uint256 public rewardPerTokenStored */\n    tag_167:\n      sload(0x0b)\n      dup2\n      jump\t// out\n        /* \"inviter_presell/adminable.sol\":1187:1385  function transferOwnership(address newOwner) public virtual onlyOwner {... */\n    tag_171:\n        /* \"inviter_presell/adminable.sol\":676:688  _msgSender() */\n      tag_379\n        /* \"inviter_presell/adminable.sol\":676:686  _msgSender */\n      tag_185\n        /* \"inviter_presell/adminable.sol\":676:688  _msgSender() */\n      jump\t// in\n    tag_379:\n        /* \"inviter_presell/adminable.sol\":665:688  owner() == _msgSender() */\n      0xffffffffffffffffffffffffffffffffffffffff\n      and\n        /* \"inviter_presell/adminable.sol\":665:672  owner() */\n      tag_380\n        /* \"inviter_presell/adminable.sol\":665:670  owner */\n      tag_122\n        /* \"inviter_presell/adminable.sol\":665:672  owner() */\n      jump\t// in\n    tag_380:\n        /* \"inviter_presell/adminable.sol\":665:688  owner() == _msgSender() */\n      0xffffffffffffffffffffffffffffffffffffffff\n      and\n      eq\n        /* \"inviter_presell/adminable.sol\":657:727  require(owner() == _msgSender(), \"Adminable: caller is not the owner\") */\n      tag_381\n      jumpi\n      mload(0x40)\n      0x08c379a000000000000000000000000000000000000000000000000000000000\n      dup2\n      mstore\n      0x04\n      add\n      tag_382\n      swap1\n      tag_189\n      jump\t// in\n    tag_382:\n      mload(0x40)\n      dup1\n      swap2\n      sub\n      swap1\n      revert\n    tag_381:\n        /* \"inviter_presell/adminable.sol\":1295:1296  0 */\n      0x00\n        /* \"inviter_presell/adminable.sol\":1275:1297  newOwner != address(0) */\n      0xffffffffffffffffffffffffffffffffffffffff\n      and\n        /* \"inviter_presell/adminable.sol\":1275:1283  newOwner */\n      dup2\n        /* \"inviter_presell/adminable.sol\":1275:1297  newOwner != address(0) */\n      0xffffffffffffffffffffffffffffffffffffffff\n      and\n      sub\n        /* \"inviter_presell/adminable.sol\":1267:1340  require(newOwner != address(0), \"Ownable: new owner is the zero address\") */\n      tag_384\n      jumpi\n      mload(0x40)\n      0x08c379a000000000000000000000000000000000000000000000000000000000\n      dup2\n      mstore\n      0x04\n      add\n      tag_385\n      swap1\n      tag_386\n      jump\t// in\n    tag_385:\n      mload(0x40)\n      dup1\n      swap2\n      sub\n      swap1\n      revert\n    tag_384:\n        /* \"inviter_presell/adminable.sol\":1350:1378  _transferOwnership(newOwner) */\n      tag_387\n        /* \"inviter_presell/adminable.sol\":1369:1377  newOwner */\n      dup2\n        /* \"inviter_presell/adminable.sol\":1350:1368  _transferOwnership */\n      tag_268\n        /* \"inviter_presell/adminable.sol\":1350:1378  _transferOwnership(newOwner) */\n      jump\t// in\n    tag_387:\n        /* \"inviter_presell/adminable.sol\":1187:1385  function transferOwnership(address newOwner) public virtual onlyOwner {... */\n      pop\n      jump\t// out\n        /* \"node_modules/@openzeppelin/contracts/utils/math/SafeMath.sol\":3108:3204  function sub(uint256 a, uint256 b) internal pure returns (uint256) {... */\n    tag_179:\n        /* \"node_modules/@openzeppelin/contracts/utils/math/SafeMath.sol\":3166:3173  uint256 */\n      0x00\n        /* \"node_modules/@openzeppelin/contracts/utils/math/SafeMath.sol\":3196:3197  b */\n      dup2\n        /* \"node_modules/@openzeppelin/contracts/utils/math/SafeMath.sol\":3192:3193  a */\n      dup4\n        /* \"node_modules/@openzeppelin/contracts/utils/math/SafeMath.sol\":3192:3197  a - b */\n      tag_389\n      swap2\n      swap1\n      tag_233\n      jump\t// in\n    tag_389:\n        /* \"node_modules/@openzeppelin/contracts/utils/math/SafeMath.sol\":3185:3197  return a - b */\n      swap1\n      pop\n        /* \"node_modules/@openzeppelin/contracts/utils/math/SafeMath.sol\":3108:3204  function sub(uint256 a, uint256 b) internal pure returns (uint256) {... */\n      swap3\n      swap2\n      pop\n      pop\n      jump\t// out\n        /* \"node_modules/@openzeppelin/contracts/utils/math/SafeMath.sol\":3451:3547  function mul(uint256 a, uint256 b) internal pure returns (uint256) {... */\n    tag_180:\n        /* \"node_modules/@openzeppelin/contracts/utils/math/SafeMath.sol\":3509:3516  uint256 */\n      0x00\n        /* \"node_modules/@openzeppelin/contracts/utils/math/SafeMath.sol\":3539:3540  b */\n      dup2\n        /* \"node_modules/@openzeppelin/contracts/utils/math/SafeMath.sol\":3535:3536  a */\n      dup4\n        /* \"node_modules/@openzeppelin/contracts/utils/math/SafeMath.sol\":3535:3540  a * b */\n      tag_391\n      swap2\n      swap1\n      tag_241\n      jump\t// in\n    tag_391:\n        /* \"node_modules/@openzeppelin/contracts/utils/math/SafeMath.sol\":3528:3540  return a * b */\n      swap1\n      pop\n        /* \"node_modules/@openzeppelin/contracts/utils/math/SafeMath.sol\":3451:3547  function mul(uint256 a, uint256 b) internal pure returns (uint256) {... */\n      swap3\n      swap2\n      pop\n      pop\n      jump\t// out\n        /* \"node_modules/@openzeppelin/contracts/utils/math/SafeMath.sol\":3836:3932  function div(uint256 a, uint256 b) internal pure returns (uint256) {... */\n    tag_181:\n        /* \"node_modules/@openzeppelin/contracts/utils/math/SafeMath.sol\":3894:3901  uint256 */\n      0x00\n        /* \"node_modules/@openzeppelin/contracts/utils/math/SafeMath.sol\":3924:3925  b */\n      dup2\n        /* \"node_modules/@openzeppelin/contracts/utils/math/SafeMath.sol\":3920:3921  a */\n      dup4\n        /* \"node_modules/@openzeppelin/contracts/utils/math/SafeMath.sol\":3920:3925  a / b */\n      tag_393\n      swap2\n      swap1\n      tag_235\n      jump\t// in\n    tag_393:\n        /* \"node_modules/@openzeppelin/contracts/utils/math/SafeMath.sol\":3913:3925  return a / b */\n      swap1\n      pop\n        /* \"node_modules/@openzeppelin/contracts/utils/math/SafeMath.sol\":3836:3932  function div(uint256 a, uint256 b) internal pure returns (uint256) {... */\n      swap3\n      swap2\n      pop\n      pop\n      jump\t// out\n        /* \"node_modules/@openzeppelin/contracts/utils/math/SafeMath.sol\":2741:2837  function add(uint256 a, uint256 b) internal pure returns (uint256) {... */\n    tag_182:\n        /* \"node_modules/@openzeppelin/contracts/utils/math/SafeMath.sol\":2799:2806  uint256 */\n      0x00\n        /* \"node_modules/@openzeppelin/contracts/utils/math/SafeMath.sol\":2829:2830  b */\n      dup2\n        /* \"node_modules/@openzeppelin/contracts/utils/math/SafeMath.sol\":2825:2826  a */\n      dup4\n        /* \"node_modules/@openzeppelin/contracts/utils/math/SafeMath.sol\":2825:2830  a + b */\n      tag_395\n      swap2\n      swap1\n      tag_214\n      jump\t// in\n    tag_395:\n        /* \"node_modules/@openzeppelin/contracts/utils/math/SafeMath.sol\":2818:2830  return a + b */\n      swap1\n      pop\n        /* \"node_modules/@openzeppelin/contracts/utils/math/SafeMath.sol\":2741:2837  function add(uint256 a, uint256 b) internal pure returns (uint256) {... */\n      swap3\n      swap2\n      pop\n      pop\n      jump\t// out\n        /* \"inviter_presell/adminable.sol\":59:155  function _msgSender() internal view virtual returns (address) {... */\n    tag_185:\n        /* \"inviter_presell/adminable.sol\":112:119  address */\n      0x00\n        /* \"inviter_presell/adminable.sol\":138:148  msg.sender */\n      caller\n        /* \"inviter_presell/adminable.sol\":131:148  return msg.sender */\n      swap1\n      pop\n        /* \"inviter_presell/adminable.sol\":59:155  function _msgSender() internal view virtual returns (address) {... */\n      swap1\n      jump\t// out\n        /* \"inviter_presell/adminable.sol\":1391:1578  function _transferOwnership(address newOwner) internal virtual {... */\n    tag_268:\n        /* \"inviter_presell/adminable.sol\":1464:1480  address oldOwner */\n      0x00\n        /* \"inviter_presell/adminable.sol\":1483:1489  _owner */\n      0x01\n      0x00\n      swap1\n      sload\n      swap1\n      0x0100\n      exp\n      swap1\n      div\n      0xffffffffffffffffffffffffffffffffffffffff\n      and\n        /* \"inviter_presell/adminable.sol\":1464:1489  address oldOwner = _owner */\n      swap1\n      pop\n        /* \"inviter_presell/adminable.sol\":1508:1516  newOwner */\n      dup2\n        /* \"inviter_presell/adminable.sol\":1499:1505  _owner */\n      0x01\n      0x00\n        /* \"inviter_presell/adminable.sol\":1499:1516  _owner = newOwner */\n      0x0100\n      exp\n      dup2\n      sload\n      dup2\n      0xffffffffffffffffffffffffffffffffffffffff\n      mul\n      not\n      and\n      swap1\n      dup4\n      0xffffffffffffffffffffffffffffffffffffffff\n      and\n      mul\n      or\n      swap1\n      sstore\n      pop\n        /* \"inviter_presell/adminable.sol\":1562:1570  newOwner */\n      dup2\n        /* \"inviter_presell/adminable.sol\":1531:1571  OwnershipTransferred(oldOwner, newOwner) */\n      0xffffffffffffffffffffffffffffffffffffffff\n      and\n        /* \"inviter_presell/adminable.sol\":1552:1560  oldOwner */\n      dup2\n        /* \"inviter_presell/adminable.sol\":1531:1571  OwnershipTransferred(oldOwner, newOwner) */\n      0xffffffffffffffffffffffffffffffffffffffff\n      and\n      0x8be0079c531659141344cd1fd0a4f28419497f9722a3daafe3b4186f6b6457e0\n      mload(0x40)\n      mload(0x40)\n      dup1\n      swap2\n      sub\n      swap1\n      log3\n        /* \"inviter_presell/adminable.sol\":1454:1578  {... */\n      pop\n        /* \"inviter_presell/adminable.sol\":1391:1578  function _transferOwnership(address newOwner) internal virtual {... */\n      pop\n      jump\t// out\n        /* \"inviter_presell/stake.sol\":4292:4510  function _getRewardRate(uint256 time) private view returns (uint256) {... */\n    tag_329:\n        /* \"inviter_presell/stake.sol\":4352:4359  uint256 */\n      0x00\n        /* \"inviter_presell/stake.sol\":4371:4392  uint256 curPoolAmount */\n      dup1\n        /* \"inviter_presell/stake.sol\":4395:4414  getRewardPool(time) */\n      tag_399\n        /* \"inviter_presell/stake.sol\":4409:4413  time */\n      dup4\n        /* \"inviter_presell/stake.sol\":4395:4408  getRewardPool */\n      tag_87\n        /* \"inviter_presell/stake.sol\":4395:4414  getRewardPool(time) */\n      jump\t// in\n    tag_399:\n        /* \"inviter_presell/stake.sol\":4371:4414  uint256 curPoolAmount = getRewardPool(time) */\n      swap1\n      pop\n        /* \"inviter_presell/stake.sol\":4424:4442  uint256 rewardRate */\n      0x00\n        /* \"inviter_presell/stake.sol\":4445:4476  curPoolAmount.div(rateInterval) */\n      tag_400\n        /* \"inviter_presell/stake.sol\":4463:4475  rateInterval */\n      sload(0x07)\n        /* \"inviter_presell/stake.sol\":4445:4458  curPoolAmount */\n      dup4\n        /* \"inviter_presell/stake.sol\":4445:4462  curPoolAmount.div */\n      tag_181\n      swap1\n        /* \"inviter_presell/stake.sol\":4445:4476  curPoolAmount.div(rateInterval) */\n      swap2\n      swap1\n      0xffffffff\n      and\n      jump\t// in\n    tag_400:\n        /* \"inviter_presell/stake.sol\":4424:4476  uint256 rewardRate = curPoolAmount.div(rateInterval) */\n      swap1\n      pop\n        /* \"inviter_presell/stake.sol\":4493:4503  rewardRate */\n      dup1\n        /* \"inviter_presell/stake.sol\":4486:4503  return rewardRate */\n      swap3\n      pop\n      pop\n      pop\n        /* \"inviter_presell/stake.sol\":4292:4510  function _getRewardRate(uint256 time) private view returns (uint256) {... */\n      swap2\n      swap1\n      pop\n      jump\t// out\n        /* \"inviter_presell/stake.sol\":3155:3691  function _getRemainPool(uint256 time) private view returns (uint256) {... */\n    tag_355:\n        /* \"inviter_presell/stake.sol\":3215:3222  uint256 */\n      0x00\n        /* \"inviter_presell/stake.sol\":3250:3251  0 */\n      dup1\n        /* \"inviter_presell/stake.sol\":3237:3246  startTime */\n      sload(0x06)\n        /* \"inviter_presell/stake.sol\":3237:3251  startTime == 0 */\n      sub\n        /* \"inviter_presell/stake.sol\":3234:3297  if(startTime == 0) {... */\n      tag_402\n      jumpi\n        /* \"inviter_presell/stake.sol\":3274:3286  totalRewards */\n      sload(0x05)\n        /* \"inviter_presell/stake.sol\":3267:3286  return totalRewards */\n      swap1\n      pop\n      jump(tag_401)\n        /* \"inviter_presell/stake.sol\":3234:3297  if(startTime == 0) {... */\n    tag_402:\n        /* \"inviter_presell/stake.sol\":3316:3325  startTime */\n      sload(0x06)\n        /* \"inviter_presell/stake.sol\":3309:3313  time */\n      dup3\n        /* \"inviter_presell/stake.sol\":3309:3325  time < startTime */\n      lt\n        /* \"inviter_presell/stake.sol\":3306:3360  if(time < startTime) {... */\n      iszero\n      tag_403\n      jumpi\n        /* \"inviter_presell/stake.sol\":3348:3349  0 */\n      0x00\n        /* \"inviter_presell/stake.sol\":3341:3349  return 0 */\n      swap1\n      pop\n      jump(tag_401)\n        /* \"inviter_presell/stake.sol\":3306:3360  if(time < startTime) {... */\n    tag_403:\n        /* \"inviter_presell/stake.sol\":3370:3383  uint256 times */\n      0x00\n        /* \"inviter_presell/stake.sol\":3407:3419  rateInterval */\n      sload(0x07)\n        /* \"inviter_presell/stake.sol\":3394:3403  startTime */\n      sload(0x06)\n        /* \"inviter_presell/stake.sol\":3387:3391  time */\n      dup5\n        /* \"inviter_presell/stake.sol\":3387:3403  time - startTime */\n      tag_404\n      swap2\n      swap1\n      tag_233\n      jump\t// in\n    tag_404:\n        /* \"inviter_presell/stake.sol\":3386:3419  (time - startTime) / rateInterval */\n      tag_405\n      swap2\n      swap1\n      tag_235\n      jump\t// in\n    tag_405:\n        /* \"inviter_presell/stake.sol\":3370:3419  uint256 times = (time - startTime) / rateInterval */\n      swap1\n      pop\n        /* \"inviter_presell/stake.sol\":3429:3442  uint256 value */\n      0x00\n        /* \"inviter_presell/stake.sol\":3499:3522  rateIntervalDenominator */\n      sload(0x09)\n        /* \"inviter_presell/stake.sol\":3475:3496  rateIntervalNumerator */\n      sload(0x08)\n        /* \"inviter_presell/stake.sol\":3460:3472  totalRewards */\n      sload(0x05)\n        /* \"inviter_presell/stake.sol\":3460:3496  totalRewards * rateIntervalNumerator */\n      tag_406\n      swap2\n      swap1\n      tag_241\n      jump\t// in\n    tag_406:\n        /* \"inviter_presell/stake.sol\":3460:3522  totalRewards * rateIntervalNumerator / rateIntervalDenominator */\n      tag_407\n      swap2\n      swap1\n      tag_235\n      jump\t// in\n    tag_407:\n        /* \"inviter_presell/stake.sol\":3445:3457  totalRewards */\n      sload(0x05)\n        /* \"inviter_presell/stake.sol\":3445:3522  totalRewards - totalRewards * rateIntervalNumerator / rateIntervalDenominator */\n      tag_408\n      swap2\n      swap1\n      tag_233\n      jump\t// in\n    tag_408:\n        /* \"inviter_presell/stake.sol\":3429:3522  uint256 value = totalRewards - totalRewards * rateIntervalNumerator / rateIntervalDenominator */\n      swap1\n      pop\n        /* \"inviter_presell/stake.sol\":3536:3545  uint256 i */\n      0x00\n        /* \"inviter_presell/stake.sol\":3532:3663  for(uint256 i = 0; i < times; ++i) {... */\n    tag_409:\n        /* \"inviter_presell/stake.sol\":3555:3560  times */\n      dup3\n        /* \"inviter_presell/stake.sol\":3551:3552  i */\n      dup2\n        /* \"inviter_presell/stake.sol\":3551:3560  i < times */\n      lt\n        /* \"inviter_presell/stake.sol\":3532:3663  for(uint256 i = 0; i < times; ++i) {... */\n      iszero\n      tag_410\n      jumpi\n        /* \"inviter_presell/stake.sol\":3629:3652  rateIntervalDenominator */\n      sload(0x09)\n        /* \"inviter_presell/stake.sol\":3605:3626  rateIntervalNumerator */\n      sload(0x08)\n        /* \"inviter_presell/stake.sol\":3597:3602  value */\n      dup4\n        /* \"inviter_presell/stake.sol\":3597:3626  value * rateIntervalNumerator */\n      tag_412\n      swap2\n      swap1\n      tag_241\n      jump\t// in\n    tag_412:\n        /* \"inviter_presell/stake.sol\":3597:3652  value * rateIntervalNumerator / rateIntervalDenominator */\n      tag_413\n      swap2\n      swap1\n      tag_235\n      jump\t// in\n    tag_413:\n        /* \"inviter_presell/stake.sol\":3589:3594  value */\n      dup3\n        /* \"inviter_presell/stake.sol\":3589:3652  value - value * rateIntervalNumerator / rateIntervalDenominator */\n      tag_414\n      swap2\n      swap1\n      tag_233\n      jump\t// in\n    tag_414:\n        /* \"inviter_presell/stake.sol\":3581:3652  value = value - value * rateIntervalNumerator / rateIntervalDenominator */\n      swap2\n      pop\n        /* \"inviter_presell/stake.sol\":3562:3565  ++i */\n      dup1\n      tag_415\n      swap1\n      tag_245\n      jump\t// in\n    tag_415:\n      swap1\n      pop\n        /* \"inviter_presell/stake.sol\":3532:3663  for(uint256 i = 0; i < times; ++i) {... */\n      jump(tag_409)\n    tag_410:\n      pop\n        /* \"inviter_presell/stake.sol\":3679:3684  value */\n      dup1\n        /* \"inviter_presell/stake.sol\":3672:3684  return value */\n      swap3\n      pop\n      pop\n      pop\n        /* \"inviter_presell/stake.sol\":3155:3691  function _getRemainPool(uint256 time) private view returns (uint256) {... */\n    tag_401:\n      swap2\n      swap1\n      pop\n      jump\t// out\n        /* \"#utility.yul\":88:205   */\n    tag_417:\n        /* \"#utility.yul\":197:198   */\n      0x00\n        /* \"#utility.yul\":194:195   */\n      dup1\n        /* \"#utility.yul\":187:199   */\n      revert\n        /* \"#utility.yul\":334:460   */\n    tag_419:\n        /* \"#utility.yul\":371:378   */\n      0x00\n        /* \"#utility.yul\":411:453   */\n      0xffffffffffffffffffffffffffffffffffffffff\n        /* \"#utility.yul\":404:409   */\n      dup3\n        /* \"#utility.yul\":400:454   */\n      and\n        /* \"#utility.yul\":389:454   */\n      swap1\n      pop\n        /* \"#utility.yul\":334:460   */\n      swap2\n      swap1\n      pop\n      jump\t// out\n        /* \"#utility.yul\":466:562   */\n    tag_420:\n        /* \"#utility.yul\":503:510   */\n      0x00\n        /* \"#utility.yul\":532:556   */\n      tag_457\n        /* \"#utility.yul\":550:555   */\n      dup3\n        /* \"#utility.yul\":532:556   */\n      tag_419\n      jump\t// in\n    tag_457:\n        /* \"#utility.yul\":521:556   */\n      swap1\n      pop\n        /* \"#utility.yul\":466:562   */\n      swap2\n      swap1\n      pop\n      jump\t// out\n        /* \"#utility.yul\":568:690   */\n    tag_421:\n        /* \"#utility.yul\":641:665   */\n      tag_459\n        /* \"#utility.yul\":659:664   */\n      dup2\n        /* \"#utility.yul\":641:665   */\n      tag_420\n      jump\t// in\n    tag_459:\n        /* \"#utility.yul\":634:639   */\n      dup2\n        /* \"#utility.yul\":631:666   */\n      eq\n        /* \"#utility.yul\":621:684   */\n      tag_460\n      jumpi\n        /* \"#utility.yul\":680:681   */\n      0x00\n        /* \"#utility.yul\":677:678   */\n      dup1\n        /* \"#utility.yul\":670:682   */\n      revert\n        /* \"#utility.yul\":621:684   */\n    tag_460:\n        /* \"#utility.yul\":568:690   */\n      pop\n      jump\t// out\n        /* \"#utility.yul\":696:835   */\n    tag_422:\n        /* \"#utility.yul\":742:747   */\n      0x00\n        /* \"#utility.yul\":780:786   */\n      dup2\n        /* \"#utility.yul\":767:787   */\n      calldataload\n        /* \"#utility.yul\":758:787   */\n      swap1\n      pop\n        /* \"#utility.yul\":796:829   */\n      tag_462\n        /* \"#utility.yul\":823:828   */\n      dup2\n        /* \"#utility.yul\":796:829   */\n      tag_421\n      jump\t// in\n    tag_462:\n        /* \"#utility.yul\":696:835   */\n      swap3\n      swap2\n      pop\n      pop\n      jump\t// out\n        /* \"#utility.yul\":841:1170   */\n    tag_48:\n        /* \"#utility.yul\":900:906   */\n      0x00\n        /* \"#utility.yul\":949:951   */\n      0x20\n        /* \"#utility.yul\":937:946   */\n      dup3\n        /* \"#utility.yul\":928:935   */\n      dup5\n        /* \"#utility.yul\":924:947   */\n      sub\n        /* \"#utility.yul\":920:952   */\n      slt\n        /* \"#utility.yul\":917:1036   */\n      iszero\n      tag_464\n      jumpi\n        /* \"#utility.yul\":955:1034   */\n      tag_465\n      tag_417\n      jump\t// in\n    tag_465:\n        /* \"#utility.yul\":917:1036   */\n    tag_464:\n        /* \"#utility.yul\":1075:1076   */\n      0x00\n        /* \"#utility.yul\":1100:1153   */\n      tag_466\n        /* \"#utility.yul\":1145:1152   */\n      dup5\n        /* \"#utility.yul\":1136:1142   */\n      dup3\n        /* \"#utility.yul\":1125:1134   */\n      dup6\n        /* \"#utility.yul\":1121:1143   */\n      add\n        /* \"#utility.yul\":1100:1153   */\n      tag_422\n      jump\t// in\n    tag_466:\n        /* \"#utility.yul\":1090:1153   */\n      swap2\n      pop\n        /* \"#utility.yul\":1046:1163   */\n      pop\n        /* \"#utility.yul\":841:1170   */\n      swap3\n      swap2\n      pop\n      pop\n      jump\t// out\n        /* \"#utility.yul\":1176:1253   */\n    tag_423:\n        /* \"#utility.yul\":1213:1220   */\n      0x00\n        /* \"#utility.yul\":1242:1247   */\n      dup2\n        /* \"#utility.yul\":1231:1247   */\n      swap1\n      pop\n        /* \"#utility.yul\":1176:1253   */\n      swap2\n      swap1\n      pop\n      jump\t// out\n        /* \"#utility.yul\":1259:1377   */\n    tag_424:\n        /* \"#utility.yul\":1346:1370   */\n      tag_469\n        /* \"#utility.yul\":1364:1369   */\n      dup2\n        /* \"#utility.yul\":1346:1370   */\n      tag_423\n      jump\t// in\n    tag_469:\n        /* \"#utility.yul\":1341:1344   */\n      dup3\n        /* \"#utility.yul\":1334:1371   */\n      mstore\n        /* \"#utility.yul\":1259:1377   */\n      pop\n      pop\n      jump\t// out\n        /* \"#utility.yul\":1383:1605   */\n    tag_51:\n        /* \"#utility.yul\":1476:1480   */\n      0x00\n        /* \"#utility.yul\":1514:1516   */\n      0x20\n        /* \"#utility.yul\":1503:1512   */\n      dup3\n        /* \"#utility.yul\":1499:1517   */\n      add\n        /* \"#utility.yul\":1491:1517   */\n      swap1\n      pop\n        /* \"#utility.yul\":1527:1598   */\n      tag_471\n        /* \"#utility.yul\":1595:1596   */\n      0x00\n        /* \"#utility.yul\":1584:1593   */\n      dup4\n        /* \"#utility.yul\":1580:1597   */\n      add\n        /* \"#utility.yul\":1571:1577   */\n      dup5\n        /* \"#utility.yul\":1527:1598   */\n      tag_424\n      jump\t// in\n    tag_471:\n        /* \"#utility.yul\":1383:1605   */\n      swap3\n      swap2\n      pop\n      pop\n      jump\t// out\n        /* \"#utility.yul\":1611:1733   */\n    tag_425:\n        /* \"#utility.yul\":1684:1708   */\n      tag_473\n        /* \"#utility.yul\":1702:1707   */\n      dup2\n        /* \"#utility.yul\":1684:1708   */\n      tag_423\n      jump\t// in\n    tag_473:\n        /* \"#utility.yul\":1677:1682   */\n      dup2\n        /* \"#utility.yul\":1674:1709   */\n      eq\n        /* \"#utility.yul\":1664:1727   */\n      tag_474\n      jumpi\n        /* \"#utility.yul\":1723:1724   */\n      0x00\n        /* \"#utility.yul\":1720:1721   */\n      dup1\n        /* \"#utility.yul\":1713:1725   */\n      revert\n        /* \"#utility.yul\":1664:1727   */\n    tag_474:\n        /* \"#utility.yul\":1611:1733   */\n      pop\n      jump\t// out\n        /* \"#utility.yul\":1739:1878   */\n    tag_426:\n        /* \"#utility.yul\":1785:1790   */\n      0x00\n        /* \"#utility.yul\":1823:1829   */\n      dup2\n        /* \"#utility.yul\":1810:1830   */\n      calldataload\n        /* \"#utility.yul\":1801:1830   */\n      swap1\n      pop\n        /* \"#utility.yul\":1839:1872   */\n      tag_476\n        /* \"#utility.yul\":1866:1871   */\n      dup2\n        /* \"#utility.yul\":1839:1872   */\n      tag_425\n      jump\t// in\n    tag_476:\n        /* \"#utility.yul\":1739:1878   */\n      swap3\n      swap2\n      pop\n      pop\n      jump\t// out\n        /* \"#utility.yul\":1884:2503   */\n    tag_61:\n        /* \"#utility.yul\":1961:1967   */\n      0x00\n        /* \"#utility.yul\":1969:1975   */\n      dup1\n        /* \"#utility.yul\":1977:1983   */\n      0x00\n        /* \"#utility.yul\":2026:2028   */\n      0x60\n        /* \"#utility.yul\":2014:2023   */\n      dup5\n        /* \"#utility.yul\":2005:2012   */\n      dup7\n        /* \"#utility.yul\":2001:2024   */\n      sub\n        /* \"#utility.yul\":1997:2029   */\n      slt\n        /* \"#utility.yul\":1994:2113   */\n      iszero\n      tag_478\n      jumpi\n        /* \"#utility.yul\":2032:2111   */\n      tag_479\n      tag_417\n      jump\t// in\n    tag_479:\n        /* \"#utility.yul\":1994:2113   */\n    tag_478:\n        /* \"#utility.yul\":2152:2153   */\n      0x00\n        /* \"#utility.yul\":2177:2230   */\n      tag_480\n        /* \"#utility.yul\":2222:2229   */\n      dup7\n        /* \"#utility.yul\":2213:2219   */\n      dup3\n        /* \"#utility.yul\":2202:2211   */\n      dup8\n        /* \"#utility.yul\":2198:2220   */\n      add\n        /* \"#utility.yul\":2177:2230   */\n      tag_426\n      jump\t// in\n    tag_480:\n        /* \"#utility.yul\":2167:2230   */\n      swap4\n      pop\n        /* \"#utility.yul\":2123:2240   */\n      pop\n        /* \"#utility.yul\":2279:2281   */\n      0x20\n        /* \"#utility.yul\":2305:2358   */\n      tag_481\n        /* \"#utility.yul\":2350:2357   */\n      dup7\n        /* \"#utility.yul\":2341:2347   */\n      dup3\n        /* \"#utility.yul\":2330:2339   */\n      dup8\n        /* \"#utility.yul\":2326:2348   */\n      add\n        /* \"#utility.yul\":2305:2358   */\n      tag_426\n      jump\t// in\n    tag_481:\n        /* \"#utility.yul\":2295:2358   */\n      swap3\n      pop\n        /* \"#utility.yul\":2250:2368   */\n      pop\n        /* \"#utility.yul\":2407:2409   */\n      0x40\n        /* \"#utility.yul\":2433:2486   */\n      tag_482\n        /* \"#utility.yul\":2478:2485   */\n      dup7\n        /* \"#utility.yul\":2469:2475   */\n      dup3\n        /* \"#utility.yul\":2458:2467   */\n      dup8\n        /* \"#utility.yul\":2454:2476   */\n      add\n        /* \"#utility.yul\":2433:2486   */\n      tag_426\n      jump\t// in\n    tag_482:\n        /* \"#utility.yul\":2423:2486   */\n      swap2\n      pop\n        /* \"#utility.yul\":2378:2496   */\n      pop\n        /* \"#utility.yul\":1884:2503   */\n      swap3\n      pop\n      swap3\n      pop\n      swap3\n      jump\t// out\n        /* \"#utility.yul\":2509:2599   */\n    tag_427:\n        /* \"#utility.yul\":2543:2550   */\n      0x00\n        /* \"#utility.yul\":2586:2591   */\n      dup2\n        /* \"#utility.yul\":2579:2592   */\n      iszero\n        /* \"#utility.yul\":2572:2593   */\n      iszero\n        /* \"#utility.yul\":2561:2593   */\n      swap1\n      pop\n        /* \"#utility.yul\":2509:2599   */\n      swap2\n      swap1\n      pop\n      jump\t// out\n        /* \"#utility.yul\":2605:2721   */\n    tag_428:\n        /* \"#utility.yul\":2675:2696   */\n      tag_485\n        /* \"#utility.yul\":2690:2695   */\n      dup2\n        /* \"#utility.yul\":2675:2696   */\n      tag_427\n      jump\t// in\n    tag_485:\n        /* \"#utility.yul\":2668:2673   */\n      dup2\n        /* \"#utility.yul\":2665:2697   */\n      eq\n        /* \"#utility.yul\":2655:2715   */\n      tag_486\n      jumpi\n        /* \"#utility.yul\":2711:2712   */\n      0x00\n        /* \"#utility.yul\":2708:2709   */\n      dup1\n        /* \"#utility.yul\":2701:2713   */\n      revert\n        /* \"#utility.yul\":2655:2715   */\n    tag_486:\n        /* \"#utility.yul\":2605:2721   */\n      pop\n      jump\t// out\n        /* \"#utility.yul\":2727:2860   */\n    tag_429:\n        /* \"#utility.yul\":2770:2775   */\n      0x00\n        /* \"#utility.yul\":2808:2814   */\n      dup2\n        /* \"#utility.yul\":2795:2815   */\n      calldataload\n        /* \"#utility.yul\":2786:2815   */\n      swap1\n      pop\n        /* \"#utility.yul\":2824:2854   */\n      tag_488\n        /* \"#utility.yul\":2848:2853   */\n      dup2\n        /* \"#utility.yul\":2824:2854   */\n      tag_428\n      jump\t// in\n    tag_488:\n        /* \"#utility.yul\":2727:2860   */\n      swap3\n      swap2\n      pop\n      pop\n      jump\t// out\n        /* \"#utility.yul\":2866:3334   */\n    tag_65:\n        /* \"#utility.yul\":2931:2937   */\n      0x00\n        /* \"#utility.yul\":2939:2945   */\n      dup1\n        /* \"#utility.yul\":2988:2990   */\n      0x40\n        /* \"#utility.yul\":2976:2985   */\n      dup4\n        /* \"#utility.yul\":2967:2974   */\n      dup6\n        /* \"#utility.yul\":2963:2986   */\n      sub\n        /* \"#utility.yul\":2959:2991   */\n      slt\n        /* \"#utility.yul\":2956:3075   */\n      iszero\n      tag_490\n      jumpi\n        /* \"#utility.yul\":2994:3073   */\n      tag_491\n      tag_417\n      jump\t// in\n    tag_491:\n        /* \"#utility.yul\":2956:3075   */\n    tag_490:\n        /* \"#utility.yul\":3114:3115   */\n      0x00\n        /* \"#utility.yul\":3139:3192   */\n      tag_492\n        /* \"#utility.yul\":3184:3191   */\n      dup6\n        /* \"#utility.yul\":3175:3181   */\n      dup3\n        /* \"#utility.yul\":3164:3173   */\n      dup7\n        /* \"#utility.yul\":3160:3182   */\n      add\n        /* \"#utility.yul\":3139:3192   */\n      tag_422\n      jump\t// in\n    tag_492:\n        /* \"#utility.yul\":3129:3192   */\n      swap3\n      pop\n        /* \"#utility.yul\":3085:3202   */\n      pop\n        /* \"#utility.yul\":3241:3243   */\n      0x20\n        /* \"#utility.yul\":3267:3317   */\n      tag_493\n        /* \"#utility.yul\":3309:3316   */\n      dup6\n        /* \"#utility.yul\":3300:3306   */\n      dup3\n        /* \"#utility.yul\":3289:3298   */\n      dup7\n        /* \"#utility.yul\":3285:3307   */\n      add\n        /* \"#utility.yul\":3267:3317   */\n      tag_429\n      jump\t// in\n    tag_493:\n        /* \"#utility.yul\":3257:3317   */\n      swap2\n      pop\n        /* \"#utility.yul\":3212:3327   */\n      pop\n        /* \"#utility.yul\":2866:3334   */\n      swap3\n      pop\n      swap3\n      swap1\n      pop\n      jump\t// out\n        /* \"#utility.yul\":3340:3449   */\n    tag_430:\n        /* \"#utility.yul\":3421:3442   */\n      tag_495\n        /* \"#utility.yul\":3436:3441   */\n      dup2\n        /* \"#utility.yul\":3421:3442   */\n      tag_427\n      jump\t// in\n    tag_495:\n        /* \"#utility.yul\":3416:3419   */\n      dup3\n        /* \"#utility.yul\":3409:3443   */\n      mstore\n        /* \"#utility.yul\":3340:3449   */\n      pop\n      pop\n      jump\t// out\n        /* \"#utility.yul\":3455:3665   */\n    tag_71:\n        /* \"#utility.yul\":3542:3546   */\n      0x00\n        /* \"#utility.yul\":3580:3582   */\n      0x20\n        /* \"#utility.yul\":3569:3578   */\n      dup3\n        /* \"#utility.yul\":3565:3583   */\n      add\n        /* \"#utility.yul\":3557:3583   */\n      swap1\n      pop\n        /* \"#utility.yul\":3593:3658   */\n      tag_497\n        /* \"#utility.yul\":3655:3656   */\n      0x00\n        /* \"#utility.yul\":3644:3653   */\n      dup4\n        /* \"#utility.yul\":3640:3657   */\n      add\n        /* \"#utility.yul\":3631:3637   */\n      dup5\n        /* \"#utility.yul\":3593:3658   */\n      tag_430\n      jump\t// in\n    tag_497:\n        /* \"#utility.yul\":3455:3665   */\n      swap3\n      swap2\n      pop\n      pop\n      jump\t// out\n        /* \"#utility.yul\":3671:4000   */\n    tag_79:\n        /* \"#utility.yul\":3730:3736   */\n      0x00\n        /* \"#utility.yul\":3779:3781   */\n      0x20\n        /* \"#utility.yul\":3767:3776   */\n      dup3\n        /* \"#utility.yul\":3758:3765   */\n      dup5\n        /* \"#utility.yul\":3754:3777   */\n      sub\n        /* \"#utility.yul\":3750:3782   */\n      slt\n        /* \"#utility.yul\":3747:3866   */\n      iszero\n      tag_499\n      jumpi\n        /* \"#utility.yul\":3785:3864   */\n      tag_500\n      tag_417\n      jump\t// in\n    tag_500:\n        /* \"#utility.yul\":3747:3866   */\n    tag_499:\n        /* \"#utility.yul\":3905:3906   */\n      0x00\n        /* \"#utility.yul\":3930:3983   */\n      tag_501\n        /* \"#utility.yul\":3975:3982   */\n      dup5\n        /* \"#utility.yul\":3966:3972   */\n      dup3\n        /* \"#utility.yul\":3955:3964   */\n      dup6\n        /* \"#utility.yul\":3951:3973   */\n      add\n        /* \"#utility.yul\":3930:3983   */\n      tag_426\n      jump\t// in\n    tag_501:\n        /* \"#utility.yul\":3920:3983   */\n      swap2\n      pop\n        /* \"#utility.yul\":3876:3993   */\n      pop\n        /* \"#utility.yul\":3671:4000   */\n      swap3\n      swap2\n      pop\n      pop\n      jump\t// out\n        /* \"#utility.yul\":4006:4124   */\n    tag_431:\n        /* \"#utility.yul\":4093:4117   */\n      tag_503\n        /* \"#utility.yul\":4111:4116   */\n      dup2\n        /* \"#utility.yul\":4093:4117   */\n      tag_420\n      jump\t// in\n    tag_503:\n        /* \"#utility.yul\":4088:4091   */\n      dup3\n        /* \"#utility.yul\":4081:4118   */\n      mstore\n        /* \"#utility.yul\":4006:4124   */\n      pop\n      pop\n      jump\t// out\n        /* \"#utility.yul\":4130:4352   */\n    tag_124:\n        /* \"#utility.yul\":4223:4227   */\n      0x00\n        /* \"#utility.yul\":4261:4263   */\n      0x20\n        /* \"#utility.yul\":4250:4259   */\n      dup3\n        /* \"#utility.yul\":4246:4264   */\n      add\n        /* \"#utility.yul\":4238:4264   */\n      swap1\n      pop\n        /* \"#utility.yul\":4274:4345   */\n      tag_505\n        /* \"#utility.yul\":4342:4343   */\n      0x00\n        /* \"#utility.yul\":4331:4340   */\n      dup4\n        /* \"#utility.yul\":4327:4344   */\n      add\n        /* \"#utility.yul\":4318:4324   */\n      dup5\n        /* \"#utility.yul\":4274:4345   */\n      tag_431\n      jump\t// in\n    tag_505:\n        /* \"#utility.yul\":4130:4352   */\n      swap3\n      swap2\n      pop\n      pop\n      jump\t// out\n        /* \"#utility.yul\":4358:4832   */\n    tag_136:\n        /* \"#utility.yul\":4426:4432   */\n      0x00\n        /* \"#utility.yul\":4434:4440   */\n      dup1\n        /* \"#utility.yul\":4483:4485   */\n      0x40\n        /* \"#utility.yul\":4471:4480   */\n      dup4\n        /* \"#utility.yul\":4462:4469   */\n      dup6\n        /* \"#utility.yul\":4458:4481   */\n      sub\n        /* \"#utility.yul\":4454:4486   */\n      slt\n        /* \"#utility.yul\":4451:4570   */\n      iszero\n      tag_507\n      jumpi\n        /* \"#utility.yul\":4489:4568   */\n      tag_508\n      tag_417\n      jump\t// in\n    tag_508:\n        /* \"#utility.yul\":4451:4570   */\n    tag_507:\n        /* \"#utility.yul\":4609:4610   */\n      0x00\n        /* \"#utility.yul\":4634:4687   */\n      tag_509\n        /* \"#utility.yul\":4679:4686   */\n      dup6\n        /* \"#utility.yul\":4670:4676   */\n      dup3\n        /* \"#utility.yul\":4659:4668   */\n      dup7\n        /* \"#utility.yul\":4655:4677   */\n      add\n        /* \"#utility.yul\":4634:4687   */\n      tag_422\n      jump\t// in\n    tag_509:\n        /* \"#utility.yul\":4624:4687   */\n      swap3\n      pop\n        /* \"#utility.yul\":4580:4697   */\n      pop\n        /* \"#utility.yul\":4736:4738   */\n      0x20\n        /* \"#utility.yul\":4762:4815   */\n      tag_510\n        /* \"#utility.yul\":4807:4814   */\n      dup6\n        /* \"#utility.yul\":4798:4804   */\n      dup3\n        /* \"#utility.yul\":4787:4796   */\n      dup7\n        /* \"#utility.yul\":4783:4805   */\n      add\n        /* \"#utility.yul\":4762:4815   */\n      tag_426\n      jump\t// in\n    tag_510:\n        /* \"#utility.yul\":4752:4815   */\n      swap2\n      pop\n        /* \"#utility.yul\":4707:4825   */\n      pop\n        /* \"#utility.yul\":4358:4832   */\n      swap3\n      pop\n      swap3\n      swap1\n      pop\n      jump\t// out\n        /* \"#utility.yul\":4838:4898   */\n    tag_432:\n        /* \"#utility.yul\":4866:4869   */\n      0x00\n        /* \"#utility.yul\":4887:4892   */\n      dup2\n        /* \"#utility.yul\":4880:4892   */\n      swap1\n      pop\n        /* \"#utility.yul\":4838:4898   */\n      swap2\n      swap1\n      pop\n      jump\t// out\n        /* \"#utility.yul\":4904:5046   */\n    tag_433:\n        /* \"#utility.yul\":4954:4963   */\n      0x00\n        /* \"#utility.yul\":4987:5040   */\n      tag_513\n        /* \"#utility.yul\":5005:5039   */\n      tag_514\n        /* \"#utility.yul\":5014:5038   */\n      tag_515\n        /* \"#utility.yul\":5032:5037   */\n      dup5\n        /* \"#utility.yul\":5014:5038   */\n      tag_419\n      jump\t// in\n    tag_515:\n        /* \"#utility.yul\":5005:5039   */\n      tag_432\n      jump\t// in\n    tag_514:\n        /* \"#utility.yul\":4987:5040   */\n      tag_419\n      jump\t// in\n    tag_513:\n        /* \"#utility.yul\":4974:5040   */\n      swap1\n      pop\n        /* \"#utility.yul\":4904:5046   */\n      swap2\n      swap1\n      pop\n      jump\t// out\n        /* \"#utility.yul\":5052:5178   */\n    tag_434:\n        /* \"#utility.yul\":5102:5111   */\n      0x00\n        /* \"#utility.yul\":5135:5172   */\n      tag_517\n        /* \"#utility.yul\":5166:5171   */\n      dup3\n        /* \"#utility.yul\":5135:5172   */\n      tag_433\n      jump\t// in\n    tag_517:\n        /* \"#utility.yul\":5122:5172   */\n      swap1\n      pop\n        /* \"#utility.yul\":5052:5178   */\n      swap2\n      swap1\n      pop\n      jump\t// out\n        /* \"#utility.yul\":5184:5325   */\n    tag_435:\n        /* \"#utility.yul\":5249:5258   */\n      0x00\n        /* \"#utility.yul\":5282:5319   */\n      tag_519\n        /* \"#utility.yul\":5313:5318   */\n      dup3\n        /* \"#utility.yul\":5282:5319   */\n      tag_434\n      jump\t// in\n    tag_519:\n        /* \"#utility.yul\":5269:5319   */\n      swap1\n      pop\n        /* \"#utility.yul\":5184:5325   */\n      swap2\n      swap1\n      pop\n      jump\t// out\n        /* \"#utility.yul\":5331:5492   */\n    tag_436:\n        /* \"#utility.yul\":5433:5485   */\n      tag_521\n        /* \"#utility.yul\":5479:5484   */\n      dup2\n        /* \"#utility.yul\":5433:5485   */\n      tag_435\n      jump\t// in\n    tag_521:\n        /* \"#utility.yul\":5428:5431   */\n      dup3\n        /* \"#utility.yul\":5421:5486   */\n      mstore\n        /* \"#utility.yul\":5331:5492   */\n      pop\n      pop\n      jump\t// out\n        /* \"#utility.yul\":5498:5750   */\n    tag_154:\n        /* \"#utility.yul\":5606:5610   */\n      0x00\n        /* \"#utility.yul\":5644:5646   */\n      0x20\n        /* \"#utility.yul\":5633:5642   */\n      dup3\n        /* \"#utility.yul\":5629:5647   */\n      add\n        /* \"#utility.yul\":5621:5647   */\n      swap1\n      pop\n        /* \"#utility.yul\":5657:5743   */\n      tag_523\n        /* \"#utility.yul\":5740:5741   */\n      0x00\n        /* \"#utility.yul\":5729:5738   */\n      dup4\n        /* \"#utility.yul\":5725:5742   */\n      add\n        /* \"#utility.yul\":5716:5722   */\n      dup5\n        /* \"#utility.yul\":5657:5743   */\n      tag_436\n      jump\t// in\n    tag_523:\n        /* \"#utility.yul\":5498:5750   */\n      swap3\n      swap2\n      pop\n      pop\n      jump\t// out\n        /* \"#utility.yul\":5756:6230   */\n    tag_161:\n        /* \"#utility.yul\":5824:5830   */\n      0x00\n        /* \"#utility.yul\":5832:5838   */\n      dup1\n        /* \"#utility.yul\":5881:5883   */\n      0x40\n        /* \"#utility.yul\":5869:5878   */\n      dup4\n        /* \"#utility.yul\":5860:5867   */\n      dup6\n        /* \"#utility.yul\":5856:5879   */\n      sub\n        /* \"#utility.yul\":5852:5884   */\n      slt\n        /* \"#utility.yul\":5849:5968   */\n      iszero\n      tag_525\n      jumpi\n        /* \"#utility.yul\":5887:5966   */\n      tag_526\n      tag_417\n      jump\t// in\n    tag_526:\n        /* \"#utility.yul\":5849:5968   */\n    tag_525:\n        /* \"#utility.yul\":6007:6008   */\n      0x00\n        /* \"#utility.yul\":6032:6085   */\n      tag_527\n        /* \"#utility.yul\":6077:6084   */\n      dup6\n        /* \"#utility.yul\":6068:6074   */\n      dup3\n        /* \"#utility.yul\":6057:6066   */\n      dup7\n        /* \"#utility.yul\":6053:6075   */\n      add\n        /* \"#utility.yul\":6032:6085   */\n      tag_426\n      jump\t// in\n    tag_527:\n        /* \"#utility.yul\":6022:6085   */\n      swap3\n      pop\n        /* \"#utility.yul\":5978:6095   */\n      pop\n        /* \"#utility.yul\":6134:6136   */\n      0x20\n        /* \"#utility.yul\":6160:6213   */\n      tag_528\n        /* \"#utility.yul\":6205:6212   */\n      dup6\n        /* \"#utility.yul\":6196:6202   */\n      dup3\n        /* \"#utility.yul\":6185:6194   */\n      dup7\n        /* \"#utility.yul\":6181:6203   */\n      add\n        /* \"#utility.yul\":6160:6213   */\n      tag_426\n      jump\t// in\n    tag_528:\n        /* \"#utility.yul\":6150:6213   */\n      swap2\n      pop\n        /* \"#utility.yul\":6105:6223   */\n      pop\n        /* \"#utility.yul\":5756:6230   */\n      swap3\n      pop\n      swap3\n      swap1\n      pop\n      jump\t// out\n        /* \"#utility.yul\":6236:6405   */\n    tag_437:\n        /* \"#utility.yul\":6320:6331   */\n      0x00\n        /* \"#utility.yul\":6354:6360   */\n      dup3\n        /* \"#utility.yul\":6349:6352   */\n      dup3\n        /* \"#utility.yul\":6342:6361   */\n      mstore\n        /* \"#utility.yul\":6394:6398   */\n      0x20\n        /* \"#utility.yul\":6389:6392   */\n      dup3\n        /* \"#utility.yul\":6385:6399   */\n      add\n        /* \"#utility.yul\":6370:6399   */\n      swap1\n      pop\n        /* \"#utility.yul\":6236:6405   */\n      swap3\n      swap2\n      pop\n      pop\n      jump\t// out\n        /* \"#utility.yul\":6411:6632   */\n    tag_438:\n        /* \"#utility.yul\":6551:6585   */\n      0x41646d696e61626c653a2063616c6c6572206973206e6f7420746865206f776e\n        /* \"#utility.yul\":6547:6548   */\n      0x00\n        /* \"#utility.yul\":6539:6545   */\n      dup3\n        /* \"#utility.yul\":6535:6549   */\n      add\n        /* \"#utility.yul\":6528:6586   */\n      mstore\n        /* \"#utility.yul\":6620:6624   */\n      0x6572000000000000000000000000000000000000000000000000000000000000\n        /* \"#utility.yul\":6615:6617   */\n      0x20\n        /* \"#utility.yul\":6607:6613   */\n      dup3\n        /* \"#utility.yul\":6603:6618   */\n      add\n        /* \"#utility.yul\":6596:6625   */\n      mstore\n        /* \"#utility.yul\":6411:6632   */\n      pop\n      jump\t// out\n        /* \"#utility.yul\":6638:7004   */\n    tag_439:\n        /* \"#utility.yul\":6780:6783   */\n      0x00\n        /* \"#utility.yul\":6801:6868   */\n      tag_532\n        /* \"#utility.yul\":6865:6867   */\n      0x22\n        /* \"#utility.yul\":6860:6863   */\n      dup4\n        /* \"#utility.yul\":6801:6868   */\n      tag_437\n      jump\t// in\n    tag_532:\n        /* \"#utility.yul\":6794:6868   */\n      swap2\n      pop\n        /* \"#utility.yul\":6877:6970   */\n      tag_533\n        /* \"#utility.yul\":6966:6969   */\n      dup3\n        /* \"#utility.yul\":6877:6970   */\n      tag_438\n      jump\t// in\n    tag_533:\n        /* \"#utility.yul\":6995:6997   */\n      0x40\n        /* \"#utility.yul\":6990:6993   */\n      dup3\n        /* \"#utility.yul\":6986:6998   */\n      add\n        /* \"#utility.yul\":6979:6998   */\n      swap1\n      pop\n        /* \"#utility.yul\":6638:7004   */\n      swap2\n      swap1\n      pop\n      jump\t// out\n        /* \"#utility.yul\":7010:7429   */\n    tag_189:\n        /* \"#utility.yul\":7176:7180   */\n      0x00\n        /* \"#utility.yul\":7214:7216   */\n      0x20\n        /* \"#utility.yul\":7203:7212   */\n      dup3\n        /* \"#utility.yul\":7199:7217   */\n      add\n        /* \"#utility.yul\":7191:7217   */\n      swap1\n      pop\n        /* \"#utility.yul\":7263:7272   */\n      dup2\n        /* \"#utility.yul\":7257:7261   */\n      dup2\n        /* \"#utility.yul\":7253:7273   */\n      sub\n        /* \"#utility.yul\":7249:7250   */\n      0x00\n        /* \"#utility.yul\":7238:7247   */\n      dup4\n        /* \"#utility.yul\":7234:7251   */\n      add\n        /* \"#utility.yul\":7227:7274   */\n      mstore\n        /* \"#utility.yul\":7291:7422   */\n      tag_535\n        /* \"#utility.yul\":7417:7421   */\n      dup2\n        /* \"#utility.yul\":7291:7422   */\n      tag_439\n      jump\t// in\n    tag_535:\n        /* \"#utility.yul\":7283:7422   */\n      swap1\n      pop\n        /* \"#utility.yul\":7010:7429   */\n      swap2\n      swap1\n      pop\n      jump\t// out\n        /* \"#utility.yul\":7435:7743   */\n    tag_198:\n        /* \"#utility.yul\":7544:7548   */\n      0x00\n        /* \"#utility.yul\":7582:7584   */\n      0x40\n        /* \"#utility.yul\":7571:7580   */\n      dup3\n        /* \"#utility.yul\":7567:7585   */\n      add\n        /* \"#utility.yul\":7559:7585   */\n      swap1\n      pop\n        /* \"#utility.yul\":7595:7660   */\n      tag_537\n        /* \"#utility.yul\":7657:7658   */\n      0x00\n        /* \"#utility.yul\":7646:7655   */\n      dup4\n        /* \"#utility.yul\":7642:7659   */\n      add\n        /* \"#utility.yul\":7633:7639   */\n      dup6\n        /* \"#utility.yul\":7595:7660   */\n      tag_430\n      jump\t// in\n    tag_537:\n        /* \"#utility.yul\":7670:7736   */\n      tag_538\n        /* \"#utility.yul\":7732:7734   */\n      0x20\n        /* \"#utility.yul\":7721:7730   */\n      dup4\n        /* \"#utility.yul\":7717:7735   */\n      add\n        /* \"#utility.yul\":7708:7714   */\n      dup5\n        /* \"#utility.yul\":7670:7736   */\n      tag_430\n      jump\t// in\n    tag_538:\n        /* \"#utility.yul\":7435:7743   */\n      swap4\n      swap3\n      pop\n      pop\n      pop\n      jump\t// out\n        /* \"#utility.yul\":7749:7930   */\n    tag_440:\n        /* \"#utility.yul\":7889:7922   */\n      0x5265656e7472616e637947756172643a207265656e7472616e742063616c6c00\n        /* \"#utility.yul\":7885:7886   */\n      0x00\n        /* \"#utility.yul\":7877:7883   */\n      dup3\n        /* \"#utility.yul\":7873:7887   */\n      add\n        /* \"#utility.yul\":7866:7923   */\n      mstore\n        /* \"#utility.yul\":7749:7930   */\n      pop\n      jump\t// out\n        /* \"#utility.yul\":7936:8302   */\n    tag_441:\n        /* \"#utility.yul\":8078:8081   */\n      0x00\n        /* \"#utility.yul\":8099:8166   */\n      tag_541\n        /* \"#utility.yul\":8163:8165   */\n      0x1f\n        /* \"#utility.yul\":8158:8161   */\n      dup4\n        /* \"#utility.yul\":8099:8166   */\n      tag_437\n      jump\t// in\n    tag_541:\n        /* \"#utility.yul\":8092:8166   */\n      swap2\n      pop\n        /* \"#utility.yul\":8175:8268   */\n      tag_542\n        /* \"#utility.yul\":8264:8267   */\n      dup3\n        /* \"#utility.yul\":8175:8268   */\n      tag_440\n      jump\t// in\n    tag_542:\n        /* \"#utility.yul\":8293:8295   */\n      0x20\n        /* \"#utility.yul\":8288:8291   */\n      dup3\n        /* \"#utility.yul\":8284:8296   */\n      add\n        /* \"#utility.yul\":8277:8296   */\n      swap1\n      pop\n        /* \"#utility.yul\":7936:8302   */\n      swap2\n      swap1\n      pop\n      jump\t// out\n        /* \"#utility.yul\":8308:8727   */\n    tag_203:\n        /* \"#utility.yul\":8474:8478   */\n      0x00\n        /* \"#utility.yul\":8512:8514   */\n      0x20\n        /* \"#utility.yul\":8501:8510   */\n      dup3\n        /* \"#utility.yul\":8497:8515   */\n      add\n        /* \"#utility.yul\":8489:8515   */\n      swap1\n      pop\n        /* \"#utility.yul\":8561:8570   */\n      dup2\n        /* \"#utility.yul\":8555:8559   */\n      dup2\n        /* \"#utility.yul\":8551:8571   */\n      sub\n        /* \"#utility.yul\":8547:8548   */\n      0x00\n        /* \"#utility.yul\":8536:8545   */\n      dup4\n        /* \"#utility.yul\":8532:8549   */\n      add\n        /* \"#utility.yul\":8525:8572   */\n      mstore\n        /* \"#utility.yul\":8589:8720   */\n      tag_544\n        /* \"#utility.yul\":8715:8719   */\n      dup2\n        /* \"#utility.yul\":8589:8720   */\n      tag_441\n      jump\t// in\n    tag_544:\n        /* \"#utility.yul\":8581:8720   */\n      swap1\n      pop\n        /* \"#utility.yul\":8308:8727   */\n      swap2\n      swap1\n      pop\n      jump\t// out\n        /* \"#utility.yul\":8733:8913   */\n    tag_442:\n        /* \"#utility.yul\":8781:8858   */\n      0x4e487b7100000000000000000000000000000000000000000000000000000000\n        /* \"#utility.yul\":8778:8779   */\n      0x00\n        /* \"#utility.yul\":8771:8859   */\n      mstore\n        /* \"#utility.yul\":8878:8882   */\n      0x11\n        /* \"#utility.yul\":8875:8876   */\n      0x04\n        /* \"#utility.yul\":8868:8883   */\n      mstore\n        /* \"#utility.yul\":8902:8906   */\n      0x24\n        /* \"#utility.yul\":8899:8900   */\n      0x00\n        /* \"#utility.yul\":8892:8907   */\n      revert\n        /* \"#utility.yul\":8919:9110   */\n    tag_214:\n        /* \"#utility.yul\":8959:8962   */\n      0x00\n        /* \"#utility.yul\":8978:8998   */\n      tag_547\n        /* \"#utility.yul\":8996:8997   */\n      dup3\n        /* \"#utility.yul\":8978:8998   */\n      tag_423\n      jump\t// in\n    tag_547:\n        /* \"#utility.yul\":8973:8998   */\n      swap2\n      pop\n        /* \"#utility.yul\":9012:9032   */\n      tag_548\n        /* \"#utility.yul\":9030:9031   */\n      dup4\n        /* \"#utility.yul\":9012:9032   */\n      tag_423\n      jump\t// in\n    tag_548:\n        /* \"#utility.yul\":9007:9032   */\n      swap3\n      pop\n        /* \"#utility.yul\":9055:9056   */\n      dup3\n        /* \"#utility.yul\":9052:9053   */\n      dup3\n        /* \"#utility.yul\":9048:9057   */\n      add\n        /* \"#utility.yul\":9041:9057   */\n      swap1\n      pop\n        /* \"#utility.yul\":9076:9079   */\n      dup1\n        /* \"#utility.yul\":9073:9074   */\n      dup3\n        /* \"#utility.yul\":9070:9080   */\n      gt\n        /* \"#utility.yul\":9067:9103   */\n      iszero\n      tag_549\n      jumpi\n        /* \"#utility.yul\":9083:9101   */\n      tag_550\n      tag_442\n      jump\t// in\n    tag_550:\n        /* \"#utility.yul\":9067:9103   */\n    tag_549:\n        /* \"#utility.yul\":8919:9110   */\n      swap3\n      swap2\n      pop\n      pop\n      jump\t// out\n        /* \"#utility.yul\":9116:9448   */\n    tag_216:\n        /* \"#utility.yul\":9237:9241   */\n      0x00\n        /* \"#utility.yul\":9275:9277   */\n      0x40\n        /* \"#utility.yul\":9264:9273   */\n      dup3\n        /* \"#utility.yul\":9260:9278   */\n      add\n        /* \"#utility.yul\":9252:9278   */\n      swap1\n      pop\n        /* \"#utility.yul\":9288:9359   */\n      tag_552\n        /* \"#utility.yul\":9356:9357   */\n      0x00\n        /* \"#utility.yul\":9345:9354   */\n      dup4\n        /* \"#utility.yul\":9341:9358   */\n      add\n        /* \"#utility.yul\":9332:9338   */\n      dup6\n        /* \"#utility.yul\":9288:9359   */\n      tag_431\n      jump\t// in\n    tag_552:\n        /* \"#utility.yul\":9369:9441   */\n      tag_553\n        /* \"#utility.yul\":9437:9439   */\n      0x20\n        /* \"#utility.yul\":9426:9435   */\n      dup4\n        /* \"#utility.yul\":9422:9440   */\n      add\n        /* \"#utility.yul\":9413:9419   */\n      dup5\n        /* \"#utility.yul\":9369:9441   */\n      tag_424\n      jump\t// in\n    tag_553:\n        /* \"#utility.yul\":9116:9448   */\n      swap4\n      swap3\n      pop\n      pop\n      pop\n      jump\t// out\n        /* \"#utility.yul\":9454:9591   */\n    tag_443:\n        /* \"#utility.yul\":9508:9513   */\n      0x00\n        /* \"#utility.yul\":9539:9545   */\n      dup2\n        /* \"#utility.yul\":9533:9546   */\n      mload\n        /* \"#utility.yul\":9524:9546   */\n      swap1\n      pop\n        /* \"#utility.yul\":9555:9585   */\n      tag_555\n        /* \"#utility.yul\":9579:9584   */\n      dup2\n        /* \"#utility.yul\":9555:9585   */\n      tag_428\n      jump\t// in\n    tag_555:\n        /* \"#utility.yul\":9454:9591   */\n      swap3\n      swap2\n      pop\n      pop\n      jump\t// out\n        /* \"#utility.yul\":9597:9942   */\n    tag_220:\n        /* \"#utility.yul\":9664:9670   */\n      0x00\n        /* \"#utility.yul\":9713:9715   */\n      0x20\n        /* \"#utility.yul\":9701:9710   */\n      dup3\n        /* \"#utility.yul\":9692:9699   */\n      dup5\n        /* \"#utility.yul\":9688:9711   */\n      sub\n        /* \"#utility.yul\":9684:9716   */\n      slt\n        /* \"#utility.yul\":9681:9800   */\n      iszero\n      tag_557\n      jumpi\n        /* \"#utility.yul\":9719:9798   */\n      tag_558\n      tag_417\n      jump\t// in\n    tag_558:\n        /* \"#utility.yul\":9681:9800   */\n    tag_557:\n        /* \"#utility.yul\":9839:9840   */\n      0x00\n        /* \"#utility.yul\":9864:9925   */\n      tag_559\n        /* \"#utility.yul\":9917:9924   */\n      dup5\n        /* \"#utility.yul\":9908:9914   */\n      dup3\n        /* \"#utility.yul\":9897:9906   */\n      dup6\n        /* \"#utility.yul\":9893:9915   */\n      add\n        /* \"#utility.yul\":9864:9925   */\n      tag_443\n      jump\t// in\n    tag_559:\n        /* \"#utility.yul\":9854:9925   */\n      swap2\n      pop\n        /* \"#utility.yul\":9810:9935   */\n      pop\n        /* \"#utility.yul\":9597:9942   */\n      swap3\n      swap2\n      pop\n      pop\n      jump\t// out\n        /* \"#utility.yul\":9948:10169   */\n    tag_444:\n        /* \"#utility.yul\":10088:10122   */\n      0x41646d696e61626c653a2063616c6c6572206973206e6f74207468652061646d\n        /* \"#utility.yul\":10084:10085   */\n      0x00\n        /* \"#utility.yul\":10076:10082   */\n      dup3\n        /* \"#utility.yul\":10072:10086   */\n      add\n        /* \"#utility.yul\":10065:10123   */\n      mstore\n        /* \"#utility.yul\":10157:10161   */\n      0x696e000000000000000000000000000000000000000000000000000000000000\n        /* \"#utility.yul\":10152:10154   */\n      0x20\n        /* \"#utility.yul\":10144:10150   */\n      dup3\n        /* \"#utility.yul\":10140:10155   */\n      add\n        /* \"#utility.yul\":10133:10162   */\n      mstore\n        /* \"#utility.yul\":9948:10169   */\n      pop\n      jump\t// out\n        /* \"#utility.yul\":10175:10541   */\n    tag_445:\n        /* \"#utility.yul\":10317:10320   */\n      0x00\n        /* \"#utility.yul\":10338:10405   */\n      tag_562\n        /* \"#utility.yul\":10402:10404   */\n      0x22\n        /* \"#utility.yul\":10397:10400   */\n      dup4\n        /* \"#utility.yul\":10338:10405   */\n      tag_437\n      jump\t// in\n    tag_562:\n        /* \"#utility.yul\":10331:10405   */\n      swap2\n      pop\n        /* \"#utility.yul\":10414:10507   */\n      tag_563\n        /* \"#utility.yul\":10503:10506   */\n      dup3\n        /* \"#utility.yul\":10414:10507   */\n      tag_444\n      jump\t// in\n    tag_563:\n        /* \"#utility.yul\":10532:10534   */\n      0x40\n        /* \"#utility.yul\":10527:10530   */\n      dup3\n        /* \"#utility.yul\":10523:10535   */\n      add\n        /* \"#utility.yul\":10516:10535   */\n      swap1\n      pop\n        /* \"#utility.yul\":10175:10541   */\n      swap2\n      swap1\n      pop\n      jump\t// out\n        /* \"#utility.yul\":10547:10966   */\n    tag_227:\n        /* \"#utility.yul\":10713:10717   */\n      0x00\n        /* \"#utility.yul\":10751:10753   */\n      0x20\n        /* \"#utility.yul\":10740:10749   */\n      dup3\n        /* \"#utility.yul\":10736:10754   */\n      add\n        /* \"#utility.yul\":10728:10754   */\n      swap1\n      pop\n        /* \"#utility.yul\":10800:10809   */\n      dup2\n        /* \"#utility.yul\":10794:10798   */\n      dup2\n        /* \"#utility.yul\":10790:10810   */\n      sub\n        /* \"#utility.yul\":10786:10787   */\n      0x00\n        /* \"#utility.yul\":10775:10784   */\n      dup4\n        /* \"#utility.yul\":10771:10788   */\n      add\n        /* \"#utility.yul\":10764:10811   */\n      mstore\n        /* \"#utility.yul\":10828:10959   */\n      tag_565\n        /* \"#utility.yul\":10954:10958   */\n      dup2\n        /* \"#utility.yul\":10828:10959   */\n      tag_445\n      jump\t// in\n    tag_565:\n        /* \"#utility.yul\":10820:10959   */\n      swap1\n      pop\n        /* \"#utility.yul\":10547:10966   */\n      swap2\n      swap1\n      pop\n      jump\t// out\n        /* \"#utility.yul\":10972:11166   */\n    tag_233:\n        /* \"#utility.yul\":11012:11016   */\n      0x00\n        /* \"#utility.yul\":11032:11052   */\n      tag_567\n        /* \"#utility.yul\":11050:11051   */\n      dup3\n        /* \"#utility.yul\":11032:11052   */\n      tag_423\n      jump\t// in\n    tag_567:\n        /* \"#utility.yul\":11027:11052   */\n      swap2\n      pop\n        /* \"#utility.yul\":11066:11086   */\n      tag_568\n        /* \"#utility.yul\":11084:11085   */\n      dup4\n        /* \"#utility.yul\":11066:11086   */\n      tag_423\n      jump\t// in\n    tag_568:\n        /* \"#utility.yul\":11061:11086   */\n      swap3\n      pop\n        /* \"#utility.yul\":11110:11111   */\n      dup3\n        /* \"#utility.yul\":11107:11108   */\n      dup3\n        /* \"#utility.yul\":11103:11112   */\n      sub\n        /* \"#utility.yul\":11095:11112   */\n      swap1\n      pop\n        /* \"#utility.yul\":11134:11135   */\n      dup2\n        /* \"#utility.yul\":11128:11132   */\n      dup2\n        /* \"#utility.yul\":11125:11136   */\n      gt\n        /* \"#utility.yul\":11122:11159   */\n      iszero\n      tag_569\n      jumpi\n        /* \"#utility.yul\":11139:11157   */\n      tag_570\n      tag_442\n      jump\t// in\n    tag_570:\n        /* \"#utility.yul\":11122:11159   */\n    tag_569:\n        /* \"#utility.yul\":10972:11166   */\n      swap3\n      swap2\n      pop\n      pop\n      jump\t// out\n        /* \"#utility.yul\":11172:11352   */\n    tag_446:\n        /* \"#utility.yul\":11220:11297   */\n      0x4e487b7100000000000000000000000000000000000000000000000000000000\n        /* \"#utility.yul\":11217:11218   */\n      0x00\n        /* \"#utility.yul\":11210:11298   */\n      mstore\n        /* \"#utility.yul\":11317:11321   */\n      0x12\n        /* \"#utility.yul\":11314:11315   */\n      0x04\n        /* \"#utility.yul\":11307:11322   */\n      mstore\n        /* \"#utility.yul\":11341:11345   */\n      0x24\n        /* \"#utility.yul\":11338:11339   */\n      0x00\n        /* \"#utility.yul\":11331:11346   */\n      revert\n        /* \"#utility.yul\":11358:11543   */\n    tag_235:\n        /* \"#utility.yul\":11398:11399   */\n      0x00\n        /* \"#utility.yul\":11415:11435   */\n      tag_573\n        /* \"#utility.yul\":11433:11434   */\n      dup3\n        /* \"#utility.yul\":11415:11435   */\n      tag_423\n      jump\t// in\n    tag_573:\n        /* \"#utility.yul\":11410:11435   */\n      swap2\n      pop\n        /* \"#utility.yul\":11449:11469   */\n      tag_574\n        /* \"#utility.yul\":11467:11468   */\n      dup4\n        /* \"#utility.yul\":11449:11469   */\n      tag_423\n      jump\t// in\n    tag_574:\n        /* \"#utility.yul\":11444:11469   */\n      swap3\n      pop\n        /* \"#utility.yul\":11488:11489   */\n      dup3\n        /* \"#utility.yul\":11478:11513   */\n      tag_575\n      jumpi\n        /* \"#utility.yul\":11493:11511   */\n      tag_576\n      tag_446\n      jump\t// in\n    tag_576:\n        /* \"#utility.yul\":11478:11513   */\n    tag_575:\n        /* \"#utility.yul\":11535:11536   */\n      dup3\n        /* \"#utility.yul\":11532:11533   */\n      dup3\n        /* \"#utility.yul\":11528:11537   */\n      div\n        /* \"#utility.yul\":11523:11537   */\n      swap1\n      pop\n        /* \"#utility.yul\":11358:11543   */\n      swap3\n      swap2\n      pop\n      pop\n      jump\t// out\n        /* \"#utility.yul\":11549:11897   */\n    tag_241:\n        /* \"#utility.yul\":11589:11596   */\n      0x00\n        /* \"#utility.yul\":11612:11632   */\n      tag_578\n        /* \"#utility.yul\":11630:11631   */\n      dup3\n        /* \"#utility.yul\":11612:11632   */\n      tag_423\n      jump\t// in\n    tag_578:\n        /* \"#utility.yul\":11607:11632   */\n      swap2\n      pop\n        /* \"#utility.yul\":11646:11666   */\n      tag_579\n        /* \"#utility.yul\":11664:11665   */\n      dup4\n        /* \"#utility.yul\":11646:11666   */\n      tag_423\n      jump\t// in\n    tag_579:\n        /* \"#utility.yul\":11641:11666   */\n      swap3\n      pop\n        /* \"#utility.yul\":11834:11835   */\n      dup2\n        /* \"#utility.yul\":11766:11832   */\n      0xffffffffffffffffffffffffffffffffffffffffffffffffffffffffffffffff\n        /* \"#utility.yul\":11762:11836   */\n      div\n        /* \"#utility.yul\":11759:11760   */\n      dup4\n        /* \"#utility.yul\":11756:11837   */\n      gt\n        /* \"#utility.yul\":11751:11752   */\n      dup3\n        /* \"#utility.yul\":11744:11753   */\n      iszero\n        /* \"#utility.yul\":11737:11754   */\n      iszero\n        /* \"#utility.yul\":11733:11838   */\n      and\n        /* \"#utility.yul\":11730:11861   */\n      iszero\n      tag_580\n      jumpi\n        /* \"#utility.yul\":11841:11859   */\n      tag_581\n      tag_442\n      jump\t// in\n    tag_581:\n        /* \"#utility.yul\":11730:11861   */\n    tag_580:\n        /* \"#utility.yul\":11889:11890   */\n      dup3\n        /* \"#utility.yul\":11886:11887   */\n      dup3\n        /* \"#utility.yul\":11882:11891   */\n      mul\n        /* \"#utility.yul\":11871:11891   */\n      swap1\n      pop\n        /* \"#utility.yul\":11549:11897   */\n      swap3\n      swap2\n      pop\n      pop\n      jump\t// out\n        /* \"#utility.yul\":11903:12136   */\n    tag_245:\n        /* \"#utility.yul\":11942:11945   */\n      0x00\n        /* \"#utility.yul\":11965:11989   */\n      tag_583\n        /* \"#utility.yul\":11983:11988   */\n      dup3\n        /* \"#utility.yul\":11965:11989   */\n      tag_423\n      jump\t// in\n    tag_583:\n        /* \"#utility.yul\":11956:11989   */\n      swap2\n      pop\n        /* \"#utility.yul\":12011:12077   */\n      0xffffffffffffffffffffffffffffffffffffffffffffffffffffffffffffffff\n        /* \"#utility.yul\":12004:12009   */\n      dup3\n        /* \"#utility.yul\":12001:12078   */\n      sub\n        /* \"#utility.yul\":11998:12101   */\n      tag_584\n      jumpi\n        /* \"#utility.yul\":12081:12099   */\n      tag_585\n      tag_442\n      jump\t// in\n    tag_585:\n        /* \"#utility.yul\":11998:12101   */\n    tag_584:\n        /* \"#utility.yul\":12128:12129   */\n      0x01\n        /* \"#utility.yul\":12121:12126   */\n      dup3\n        /* \"#utility.yul\":12117:12130   */\n      add\n        /* \"#utility.yul\":12110:12130   */\n      swap1\n      pop\n        /* \"#utility.yul\":11903:12136   */\n      swap2\n      swap1\n      pop\n      jump\t// out\n        /* \"#utility.yul\":12142:12306   */\n    tag_447:\n        /* \"#utility.yul\":12282:12298   */\n      0x43616e6e6f74207374616b652030000000000000000000000000000000000000\n        /* \"#utility.yul\":12278:12279   */\n      0x00\n        /* \"#utility.yul\":12270:12276   */\n      dup3\n        /* \"#utility.yul\":12266:12280   */\n      add\n        /* \"#utility.yul\":12259:12299   */\n      mstore\n        /* \"#utility.yul\":12142:12306   */\n      pop\n      jump\t// out\n        /* \"#utility.yul\":12312:12678   */\n    tag_448:\n        /* \"#utility.yul\":12454:12457   */\n      0x00\n        /* \"#utility.yul\":12475:12542   */\n      tag_588\n        /* \"#utility.yul\":12539:12541   */\n      0x0e\n        /* \"#utility.yul\":12534:12537   */\n      dup4\n        /* \"#utility.yul\":12475:12542   */\n      tag_437\n      jump\t// in\n    tag_588:\n        /* \"#utility.yul\":12468:12542   */\n      swap2\n      pop\n        /* \"#utility.yul\":12551:12644   */\n      tag_589\n        /* \"#utility.yul\":12640:12643   */\n      dup3\n        /* \"#utility.yul\":12551:12644   */\n      tag_447\n      jump\t// in\n    tag_589:\n        /* \"#utility.yul\":12669:12671   */\n      0x20\n        /* \"#utility.yul\":12664:12667   */\n      dup3\n        /* \"#utility.yul\":12660:12672   */\n      add\n        /* \"#utility.yul\":12653:12672   */\n      swap1\n      pop\n        /* \"#utility.yul\":12312:12678   */\n      swap2\n      swap1\n      pop\n      jump\t// out\n        /* \"#utility.yul\":12684:13103   */\n    tag_322:\n        /* \"#utility.yul\":12850:12854   */\n      0x00\n        /* \"#utility.yul\":12888:12890   */\n      0x20\n        /* \"#utility.yul\":12877:12886   */\n      dup3\n        /* \"#utility.yul\":12873:12891   */\n      add\n        /* \"#utility.yul\":12865:12891   */\n      swap1\n      pop\n        /* \"#utility.yul\":12937:12946   */\n      dup2\n        /* \"#utility.yul\":12931:12935   */\n      dup2\n        /* \"#utility.yul\":12927:12947   */\n      sub\n        /* \"#utility.yul\":12923:12924   */\n      0x00\n        /* \"#utility.yul\":12912:12921   */\n      dup4\n        /* \"#utility.yul\":12908:12925   */\n      add\n        /* \"#utility.yul\":12901:12948   */\n      mstore\n        /* \"#utility.yul\":12965:13096   */\n      tag_591\n        /* \"#utility.yul\":13091:13095   */\n      dup2\n        /* \"#utility.yul\":12965:13096   */\n      tag_448\n      jump\t// in\n    tag_591:\n        /* \"#utility.yul\":12957:13096   */\n      swap1\n      pop\n        /* \"#utility.yul\":12684:13103   */\n      swap2\n      swap1\n      pop\n      jump\t// out\n        /* \"#utility.yul\":13109:13285   */\n    tag_337:\n        /* \"#utility.yul\":13141:13142   */\n      0x00\n        /* \"#utility.yul\":13158:13178   */\n      tag_593\n        /* \"#utility.yul\":13176:13177   */\n      dup3\n        /* \"#utility.yul\":13158:13178   */\n      tag_423\n      jump\t// in\n    tag_593:\n        /* \"#utility.yul\":13153:13178   */\n      swap2\n      pop\n        /* \"#utility.yul\":13192:13212   */\n      tag_594\n        /* \"#utility.yul\":13210:13211   */\n      dup4\n        /* \"#utility.yul\":13192:13212   */\n      tag_423\n      jump\t// in\n    tag_594:\n        /* \"#utility.yul\":13187:13212   */\n      swap3\n      pop\n        /* \"#utility.yul\":13231:13232   */\n      dup3\n        /* \"#utility.yul\":13221:13256   */\n      tag_595\n      jumpi\n        /* \"#utility.yul\":13236:13254   */\n      tag_596\n      tag_446\n      jump\t// in\n    tag_596:\n        /* \"#utility.yul\":13221:13256   */\n    tag_595:\n        /* \"#utility.yul\":13277:13278   */\n      dup3\n        /* \"#utility.yul\":13274:13275   */\n      dup3\n        /* \"#utility.yul\":13270:13279   */\n      mod\n        /* \"#utility.yul\":13265:13279   */\n      swap1\n      pop\n        /* \"#utility.yul\":13109:13285   */\n      swap3\n      swap2\n      pop\n      pop\n      jump\t// out\n        /* \"#utility.yul\":13291:13516   */\n    tag_449:\n        /* \"#utility.yul\":13431:13465   */\n      0x4f776e61626c653a206e6577206f776e657220697320746865207a65726f2061\n        /* \"#utility.yul\":13427:13428   */\n      0x00\n        /* \"#utility.yul\":13419:13425   */\n      dup3\n        /* \"#utility.yul\":13415:13429   */\n      add\n        /* \"#utility.yul\":13408:13466   */\n      mstore\n        /* \"#utility.yul\":13500:13508   */\n      0x6464726573730000000000000000000000000000000000000000000000000000\n        /* \"#utility.yul\":13495:13497   */\n      0x20\n        /* \"#utility.yul\":13487:13493   */\n      dup3\n        /* \"#utility.yul\":13483:13498   */\n      add\n        /* \"#utility.yul\":13476:13509   */\n      mstore\n        /* \"#utility.yul\":13291:13516   */\n      pop\n      jump\t// out\n        /* \"#utility.yul\":13522:13888   */\n    tag_450:\n        /* \"#utility.yul\":13664:13667   */\n      0x00\n        /* \"#utility.yul\":13685:13752   */\n      tag_599\n        /* \"#utility.yul\":13749:13751   */\n      0x26\n        /* \"#utility.yul\":13744:13747   */\n      dup4\n        /* \"#utility.yul\":13685:13752   */\n      tag_437\n      jump\t// in\n    tag_599:\n        /* \"#utility.yul\":13678:13752   */\n      swap2\n      pop\n        /* \"#utility.yul\":13761:13854   */\n      tag_600\n        /* \"#utility.yul\":13850:13853   */\n      dup3\n        /* \"#utility.yul\":13761:13854   */\n      tag_449\n      jump\t// in\n    tag_600:\n        /* \"#utility.yul\":13879:13881   */\n      0x40\n        /* \"#utility.yul\":13874:13877   */\n      dup3\n        /* \"#utility.yul\":13870:13882   */\n      add\n        /* \"#utility.yul\":13863:13882   */\n      swap1\n      pop\n        /* \"#utility.yul\":13522:13888   */\n      swap2\n      swap1\n      pop\n      jump\t// out\n        /* \"#utility.yul\":13894:14313   */\n    tag_386:\n        /* \"#utility.yul\":14060:14064   */\n      0x00\n        /* \"#utility.yul\":14098:14100   */\n      0x20\n        /* \"#utility.yul\":14087:14096   */\n      dup3\n        /* \"#utility.yul\":14083:14101   */\n      add\n        /* \"#utility.yul\":14075:14101   */\n      swap1\n      pop\n        /* \"#utility.yul\":14147:14156   */\n      dup2\n        /* \"#utility.yul\":14141:14145   */\n      dup2\n        /* \"#utility.yul\":14137:14157   */\n      sub\n        /* \"#utility.yul\":14133:14134   */\n      0x00\n        /* \"#utility.yul\":14122:14131   */\n      dup4\n        /* \"#utility.yul\":14118:14135   */\n      add\n        /* \"#utility.yul\":14111:14158   */\n      mstore\n        /* \"#utility.yul\":14175:14306   */\n      tag_602\n        /* \"#utility.yul\":14301:14305   */\n      dup2\n        /* \"#utility.yul\":14175:14306   */\n      tag_450\n      jump\t// in\n    tag_602:\n        /* \"#utility.yul\":14167:14306   */\n      swap1\n      pop\n        /* \"#utility.yul\":13894:14313   */\n      swap2\n      swap1\n      pop\n      jump\t// out\n\n    auxdata: 0xa2646970667358221220726443d553b810291ba57e2d2e1b46d66d134c0d6af4f9acf5b5f6a7ee30c7d964736f6c63430008100033\n}\n",
				"bytecode": {
					"linkReferences": {},
					"object": "60806040526923934c5a09da190000006005556201518060075560056008556103e86009553480156200003157600080fd5b5062000052620000466200006060201b60201c565b6200006860201b60201c565b60016002819055506200012e565b600033905090565b6000600160009054906101000a900473ffffffffffffffffffffffffffffffffffffffff16905081600160006101000a81548173ffffffffffffffffffffffffffffffffffffffff021916908373ffffffffffffffffffffffffffffffffffffffff1602179055508173ffffffffffffffffffffffffffffffffffffffff168173ffffffffffffffffffffffffffffffffffffffff167f8be0079c531659141344cd1fd0a4f28419497f9722a3daafe3b4186f6b6457e060405160405180910390a35050565b61267e806200013e6000396000f3fe608060405234801561001057600080fd5b506004361061021b5760003560e01c8063874c120b11610125578063b79ec812116100ad578063d42b779d1161007c578063d42b779d1461062e578063da4f84311461065e578063db2e21bc1461068e578063df136d6514610698578063f2fde38b146106b65761021b565b8063b79ec812146105a4578063c8f33c91146105d4578063cdda56e0146105f2578063d1af0c7d146106105761021b565b806392735675116100f457806392735675146105145780639499c549146105305780639a5b17b01461054e578063a4c3b0911461056c578063adc9772e146105885761021b565b8063874c120b1461047a5780638aee8127146104aa5780638b876347146104c65780638da5cb5b146104f65761021b565b80634dbdc4eb116101a8578063715018a611610177578063715018a6146103e657806378e97925146103f05780637a6fcee71461040e57806380faa57d1461042c5780638107368b1461044a5761021b565b80634dbdc4eb1461034a5780635cfa91f41461037a5780636139d4b4146103aa5780636917c501146103c85761021b565b806318e20ecf116101ef57806318e20ecf146102ba57806324d7806c146102d65780633c4045cf146103065780633d18b912146103245780633e0a322d1461032e5761021b565b80628cc262146102205780630700037d146102505780630e15561a14610280578063129ee21a1461029e575b600080fd5b61023a60048036038101906102359190611e78565b6106d2565b6040516102479190611ebe565b60405180910390f35b61026a60048036038101906102659190611e78565b61083e565b6040516102779190611ebe565b60405180910390f35b610288610856565b6040516102959190611ebe565b60405180910390f35b6102b860048036038101906102b39190611f05565b61085c565b005b6102d460048036038101906102cf9190611f90565b6108f2565b005b6102f060048036038101906102eb9190611e78565b610a63565b6040516102fd9190611fdf565b60405180910390f35b61030e610ab8565b60405161031b9190611ebe565b60405180910390f35b61032c610abe565b005b61034860048036038101906103439190611ffa565b610e79565b005b610364600480360381019061035f9190611ffa565b610ed9565b6040516103719190611ebe565b60405180910390f35b610394600480360381019061038f9190611ffa565b610f83565b6040516103a19190611ebe565b60405180910390f35b6103b2611048565b6040516103bf9190611ebe565b60405180910390f35b6103d061104e565b6040516103dd9190611ebe565b60405180910390f35b6103ee611058565b005b6103f86110e0565b6040516104059190611ebe565b60405180910390f35b6104166110e6565b6040516104239190611ebe565b60405180910390f35b6104346110ec565b6040516104419190611ebe565b60405180910390f35b610464600480360381019061045f9190611e78565b6110f4565b6040516104719190611ebe565b60405180910390f35b610494600480360381019061048f9190611ffa565b61110c565b6040516104a19190611ebe565b60405180910390f35b6104c460048036038101906104bf9190611e78565b611199565b005b6104e060048036038101906104db9190611e78565b611259565b6040516104ed9190611ebe565b60405180910390f35b6104fe611271565b60405161050b9190612036565b60405180910390f35b61052e60048036038101906105299190611ffa565b61129b565b005b610538611321565b6040516105459190611ebe565b60405180910390f35b610556611331565b6040516105639190611ebe565b60405180910390f35b61058660048036038101906105819190612051565b611339565b005b6105a2600480360381019061059d9190612051565b611438565b005b6105be60048036038101906105b99190611e78565b6117ac565b6040516105cb9190611ebe565b60405180910390f35b6105dc6117f5565b6040516105e99190611ebe565b60405180910390f35b6105fa6117fb565b6040516106079190611ebe565b60405180910390f35b61061861180b565b60405161062591906120f0565b60405180910390f35b61064860048036038101906106439190611e78565b611831565b6040516106559190611ebe565b60405180910390f35b6106786004803603810190610673919061210b565b611849565b6040516106859190611ebe565b60405180910390f35b610696611a30565b005b6106a0611afc565b6040516106ad9190611ebe565b60405180910390f35b6106d060048036038101906106cb9190611e78565b611b02565b005b60008061071e600e60008573ffffffffffffffffffffffffffffffffffffffff1673ffffffffffffffffffffffffffffffffffffffff1681526020019081526020016000205442611849565b9050610836600460008573ffffffffffffffffffffffffffffffffffffffff1673ffffffffffffffffffffffffffffffffffffffff16815260200190815260200160002054610828670de0b6b3a764000061081a6107cc600d60008a73ffffffffffffffffffffffffffffffffffffffff1673ffffffffffffffffffffffffffffffffffffffff168152602001908152602001600020546107be8861110c565b611bf990919063ffffffff16565b600f60008a73ffffffffffffffffffffffffffffffffffffffff1673ffffffffffffffffffffffffffffffffffffffff16815260200190815260200160002054611c0f90919063ffffffff16565b611c2590919063ffffffff16565b611c3b90919063ffffffff16565b915050919050565b60046020528060005260406000206000915090505481565b60055481565b610864611c51565b73ffffffffffffffffffffffffffffffffffffffff16610882611271565b73ffffffffffffffffffffffffffffffffffffffff16146108d8576040517f08c379a00000000000000000000000000000000000000000000000000000000081526004016108cf906121ce565b60405180910390fd5b826007819055508160088190555080600981905550505050565b6108fa611c51565b73ffffffffffffffffffffffffffffffffffffffff16610918611271565b73ffffffffffffffffffffffffffffffffffffffff161461096e576040517f08c379a0000000000000000000000000000000000000000000000000000000008152600401610965906121ce565b60405180910390fd5b8173ffffffffffffffffffffffffffffffffffffffff167f82f1fa40a3d82dea3e406073819290601f436580aa7c69f9feb61f885bdd88546000808573ffffffffffffffffffffffffffffffffffffffff1673ffffffffffffffffffffffffffffffffffffffff16815260200190815260200160002060009054906101000a900460ff1683604051610a019291906121ee565b60405180910390a2806000808473ffffffffffffffffffffffffffffffffffffffff1673ffffffffffffffffffffffffffffffffffffffff16815260200190815260200160002060006101000a81548160ff0219169083151502179055505050565b60008060008373ffffffffffffffffffffffffffffffffffffffff1673ffffffffffffffffffffffffffffffffffffffff16815260200190815260200160002060009054906101000a900460ff169050919050565b60085481565b6002805403610b02576040517f08c379a0000000000000000000000000000000000000000000000000000000008152600401610af990612263565b60405180910390fd5b60028081905550336000600e60008373ffffffffffffffffffffffffffffffffffffffff1673ffffffffffffffffffffffffffffffffffffffff1681526020019081526020016000205490506006548111610b5d5760065490505b6000610b698242611849565b9050610b748161110c565b600b81905550610b826110ec565b600a81905550600073ffffffffffffffffffffffffffffffffffffffff168373ffffffffffffffffffffffffffffffffffffffff1614610c9357610bc5836106d2565b600460008573ffffffffffffffffffffffffffffffffffffffff1673ffffffffffffffffffffffffffffffffffffffff16815260200190815260200160002081905550600b54600d60008573ffffffffffffffffffffffffffffffffffffffff1673ffffffffffffffffffffffffffffffffffffffff1681526020019081526020016000208190555042600e60008573ffffffffffffffffffffffffffffffffffffffff1673ffffffffffffffffffffffffffffffffffffffff168152602001908152602001600020819055505b6000600460003373ffffffffffffffffffffffffffffffffffffffff1673ffffffffffffffffffffffffffffffffffffffff1681526020019081526020016000205490506000811115610e6b5780601060003373ffffffffffffffffffffffffffffffffffffffff1673ffffffffffffffffffffffffffffffffffffffff1681526020019081526020016000206000828254610d2f91906122b2565b925050819055506000600460003373ffffffffffffffffffffffffffffffffffffffff1673ffffffffffffffffffffffffffffffffffffffff16815260200190815260200160002081905550600360009054906101000a900473ffffffffffffffffffffffffffffffffffffffff1673ffffffffffffffffffffffffffffffffffffffff1663a9059cbb33836040518363ffffffff1660e01b8152600401610dd89291906122e6565b6020604051808303816000875af1158015610df7573d6000803e3d6000fd5b505050506040513d601f19601f82011682018060405250810190610e1b9190612324565b503373ffffffffffffffffffffffffffffffffffffffff167fe2403640ba68fed3a2f88b7557551d1993f84b99bb10ff833f0cf8db0c5e048682604051610e629190611ebe565b60405180910390a25b505050506001600281905550565b610e89610e84611c51565b610a63565b610ec8576040517f08c379a0000000000000000000000000000000000000000000000000000000008152600401610ebf906123c3565b60405180910390fd5b8060068190555080600a8190555050565b60008060065403610eee576006549050610f7e565b600654821015610f015760009050610f7e565b6000600160075460065485610f1691906123e3565b610f209190612446565b610f2a91906122b2565b90506000600554905060005b82811015610f775760095460085483610f4f9190612477565b610f599190612446565b82610f6491906123e3565b915080610f70906124d1565b9050610f36565b5080925050505b919050565b60008060065403610f975760009050611043565b600654821015610faa5760009050611043565b600060075460065484610fbd91906123e3565b610fc79190612446565b90506000600554905060005b828110156110145760095460085483610fec9190612477565b610ff69190612446565b8261100191906123e3565b91508061100d906124d1565b9050610fd3565b5061103e60095461103060085484611c0f90919063ffffffff16565b611c2590919063ffffffff16565b925050505b919050565b60075481565b6000600c54905090565b611060611c51565b73ffffffffffffffffffffffffffffffffffffffff1661107e611271565b73ffffffffffffffffffffffffffffffffffffffff16146110d4576040517f08c379a00000000000000000000000000000000000000000000000000000000081526004016110cb906121ce565b60405180910390fd5b6110de6000611c59565b565b60065481565b60095481565b600042905090565b600e6020528060005260406000206000915090505481565b600080600c540361112157600b549050611194565b611191611180600c54611172670de0b6b3a764000061116487611156600a546111486110ec565b611bf990919063ffffffff16565b611c0f90919063ffffffff16565b611c0f90919063ffffffff16565b611c2590919063ffffffff16565b600b54611c3b90919063ffffffff16565b90505b919050565b6111a1611c51565b73ffffffffffffffffffffffffffffffffffffffff166111bf611271565b73ffffffffffffffffffffffffffffffffffffffff1614611215576040517f08c379a000000000000000000000000000000000000000000000000000000000815260040161120c906121ce565b60405180910390fd5b80600360006101000a81548173ffffffffffffffffffffffffffffffffffffffff021916908373ffffffffffffffffffffffffffffffffffffffff16021790555050565b600d6020528060005260406000206000915090505481565b6000600160009054906101000a900473ffffffffffffffffffffffffffffffffffffffff16905090565b6112a3611c51565b73ffffffffffffffffffffffffffffffffffffffff166112c1611271565b73ffffffffffffffffffffffffffffffffffffffff1614611317576040517f08c379a000000000000000000000000000000000000000000000000000000000815260040161130e906121ce565b60405180910390fd5b8060058190555050565b600061132c42610f83565b905090565b600042905090565b611341611c51565b73ffffffffffffffffffffffffffffffffffffffff1661135f611271565b73ffffffffffffffffffffffffffffffffffffffff16146113b5576040517f08c379a00000000000000000000000000000000000000000000000000000000081526004016113ac906121ce565b60405180910390fd5b8173ffffffffffffffffffffffffffffffffffffffff1663a9059cbb33836040518363ffffffff1660e01b81526004016113f09291906122e6565b6020604051808303816000875af115801561140f573d6000803e3d6000fd5b505050506040513d601f19601f820116820180604052508101906114339190612324565b505050565b600280540361147c576040517f08c379a000000000000000000000000000000000000000000000000000000000815260040161147390612263565b60405180910390fd5b6002808190555061149361148e611c51565b610a63565b6114d2576040517f08c379a00000000000000000000000000000000000000000000000000000000081526004016114c9906123c3565b60405180910390fd5b816000600e60008373ffffffffffffffffffffffffffffffffffffffff1673ffffffffffffffffffffffffffffffffffffffff16815260200190815260200160002054905060065481116115265760065490505b60006115328242611849565b905061153d8161110c565b600b8190555061154b6110ec565b600a81905550600073ffffffffffffffffffffffffffffffffffffffff168373ffffffffffffffffffffffffffffffffffffffff161461165c5761158e836106d2565b600460008573ffffffffffffffffffffffffffffffffffffffff1673ffffffffffffffffffffffffffffffffffffffff16815260200190815260200160002081905550600b54600d60008573ffffffffffffffffffffffffffffffffffffffff1673ffffffffffffffffffffffffffffffffffffffff1681526020019081526020016000208190555042600e60008573ffffffffffffffffffffffffffffffffffffffff1673ffffffffffffffffffffffffffffffffffffffff168152602001908152602001600020819055505b6000841161169f576040517f08c379a000000000000000000000000000000000000000000000000000000000815260040161169690612565565b60405180910390fd5b6116b484600c54611c3b90919063ffffffff16565b600c8190555061170c84600f60008873ffffffffffffffffffffffffffffffffffffffff1673ffffffffffffffffffffffffffffffffffffffff16815260200190815260200160002054611c3b90919063ffffffff16565b600f60008773ffffffffffffffffffffffffffffffffffffffff1673ffffffffffffffffffffffffffffffffffffffff168152602001908152602001600020819055508473ffffffffffffffffffffffffffffffffffffffff167f9e71bc8eea02a63969f509818f2dafb9254532904319f9dbda79b67bd34a5f3d856040516117959190611ebe565b60405180910390a250505060016002819055505050565b6000600f60008373ffffffffffffffffffffffffffffffffffffffff1673ffffffffffffffffffffffffffffffffffffffff168152602001908152602001600020549050919050565b600a5481565b600061180642611d1f565b905090565b600360009054906101000a900473ffffffffffffffffffffffffffffffffffffffff1681565b60106020528060005260406000206000915090505481565b600080600654148061185b5750818310155b806118665750600083145b156118745760009050611a2a565b6006548310156118845760065492505b60006007546007546006548661189a91906123e3565b6118a49190612585565b6007546118b191906123e3565b6118bb9190612585565b90506000600754826118cc87610f83565b6118d69190612477565b6118e09190612446565b90506000600754600654866118f591906123e3565b6118ff9190612585565b905060006007548261191088610f83565b61191a9190612477565b6119249190612446565b905085848861193391906122b2565b111561194d5761194287611d1f565b945050505050611a2a565b60008488848961195d91906123e3565b61196791906123e3565b61197191906123e3565b9050600061197e89611d50565b905060008060008390506000600754866119989190612446565b905060005b818110156119ef57600954600854846119b69190612477565b6119c09190612446565b935083836119ce91906123e3565b925083856119dc91906122b2565b9450806119e8906124d1565b905061199d565b508c8c6119fc91906123e3565b878a86611a0991906122b2565b611a1391906122b2565b611a1d9190612446565b9a50505050505050505050505b92915050565b611a38611c51565b73ffffffffffffffffffffffffffffffffffffffff16611a56611271565b73ffffffffffffffffffffffffffffffffffffffff1614611aac576040517f08c379a0000000000000000000000000000000000000000000000000000000008152600401611aa3906121ce565b60405180910390fd5b611ab4611271565b73ffffffffffffffffffffffffffffffffffffffff166108fc479081150290604051600060405180830381858888f19350505050158015611af9573d6000803e3d6000fd5b50565b600b5481565b611b0a611c51565b73ffffffffffffffffffffffffffffffffffffffff16611b28611271565b73ffffffffffffffffffffffffffffffffffffffff1614611b7e576040517f08c379a0000000000000000000000000000000000000000000000000000000008152600401611b75906121ce565b60405180910390fd5b600073ffffffffffffffffffffffffffffffffffffffff168173ffffffffffffffffffffffffffffffffffffffff1603611bed576040517f08c379a0000000000000000000000000000000000000000000000000000000008152600401611be490612628565b60405180910390fd5b611bf681611c59565b50565b60008183611c0791906123e3565b905092915050565b60008183611c1d9190612477565b905092915050565b60008183611c339190612446565b905092915050565b60008183611c4991906122b2565b905092915050565b600033905090565b6000600160009054906101000a900473ffffffffffffffffffffffffffffffffffffffff16905081600160006101000a81548173ffffffffffffffffffffffffffffffffffffffff021916908373ffffffffffffffffffffffffffffffffffffffff1602179055508173ffffffffffffffffffffffffffffffffffffffff168173ffffffffffffffffffffffffffffffffffffffff167f8be0079c531659141344cd1fd0a4f28419497f9722a3daafe3b4186f6b6457e060405160405180910390a35050565b600080611d2b83610f83565b90506000611d4460075483611c2590919063ffffffff16565b90508092505050919050565b60008060065403611d65576005549050611e10565b600654821015611d785760009050611e10565b600060075460065484611d8b91906123e3565b611d959190612446565b90506000600954600854600554611dac9190612477565b611db69190612446565b600554611dc391906123e3565b905060005b82811015611e095760095460085483611de19190612477565b611deb9190612446565b82611df691906123e3565b915080611e02906124d1565b9050611dc8565b5080925050505b919050565b600080fd5b600073ffffffffffffffffffffffffffffffffffffffff82169050919050565b6000611e4582611e1a565b9050919050565b611e5581611e3a565b8114611e6057600080fd5b50565b600081359050611e7281611e4c565b92915050565b600060208284031215611e8e57611e8d611e15565b5b6000611e9c84828501611e63565b91505092915050565b6000819050919050565b611eb881611ea5565b82525050565b6000602082019050611ed36000830184611eaf565b92915050565b611ee281611ea5565b8114611eed57600080fd5b50565b600081359050611eff81611ed9565b92915050565b600080600060608486031215611f1e57611f1d611e15565b5b6000611f2c86828701611ef0565b9350506020611f3d86828701611ef0565b9250506040611f4e86828701611ef0565b9150509250925092565b60008115159050919050565b611f6d81611f58565b8114611f7857600080fd5b50565b600081359050611f8a81611f64565b92915050565b60008060408385031215611fa757611fa6611e15565b5b6000611fb585828601611e63565b9250506020611fc685828601611f7b565b9150509250929050565b611fd981611f58565b82525050565b6000602082019050611ff46000830184611fd0565b92915050565b6000602082840312156120105761200f611e15565b5b600061201e84828501611ef0565b91505092915050565b61203081611e3a565b82525050565b600060208201905061204b6000830184612027565b92915050565b6000806040838503121561206857612067611e15565b5b600061207685828601611e63565b925050602061208785828601611ef0565b9150509250929050565b6000819050919050565b60006120b66120b16120ac84611e1a565b612091565b611e1a565b9050919050565b60006120c88261209b565b9050919050565b60006120da826120bd565b9050919050565b6120ea816120cf565b82525050565b600060208201905061210560008301846120e1565b92915050565b6000806040838503121561212257612121611e15565b5b600061213085828601611ef0565b925050602061214185828601611ef0565b9150509250929050565b600082825260208201905092915050565b7f41646d696e61626c653a2063616c6c6572206973206e6f7420746865206f776e60008201527f6572000000000000000000000000000000000000000000000000000000000000602082015250565b60006121b860228361214b565b91506121c38261215c565b604082019050919050565b600060208201905081810360008301526121e7816121ab565b9050919050565b60006040820190506122036000830185611fd0565b6122106020830184611fd0565b9392505050565b7f5265656e7472616e637947756172643a207265656e7472616e742063616c6c00600082015250565b600061224d601f8361214b565b915061225882612217565b602082019050919050565b6000602082019050818103600083015261227c81612240565b9050919050565b7f4e487b7100000000000000000000000000000000000000000000000000000000600052601160045260246000fd5b60006122bd82611ea5565b91506122c883611ea5565b92508282019050808211156122e0576122df612283565b5b92915050565b60006040820190506122fb6000830185612027565b6123086020830184611eaf565b9392505050565b60008151905061231e81611f64565b92915050565b60006020828403121561233a57612339611e15565b5b60006123488482850161230f565b91505092915050565b7f41646d696e61626c653a2063616c6c6572206973206e6f74207468652061646d60008201527f696e000000000000000000000000000000000000000000000000000000000000602082015250565b60006123ad60228361214b565b91506123b882612351565b604082019050919050565b600060208201905081810360008301526123dc816123a0565b9050919050565b60006123ee82611ea5565b91506123f983611ea5565b925082820390508181111561241157612410612283565b5b92915050565b7f4e487b7100000000000000000000000000000000000000000000000000000000600052601260045260246000fd5b600061245182611ea5565b915061245c83611ea5565b92508261246c5761246b612417565b5b828204905092915050565b600061248282611ea5565b915061248d83611ea5565b9250817fffffffffffffffffffffffffffffffffffffffffffffffffffffffffffffffff04831182151516156124c6576124c5612283565b5b828202905092915050565b60006124dc82611ea5565b91507fffffffffffffffffffffffffffffffffffffffffffffffffffffffffffffffff820361250e5761250d612283565b5b600182019050919050565b7f43616e6e6f74207374616b652030000000000000000000000000000000000000600082015250565b600061254f600e8361214b565b915061255a82612519565b602082019050919050565b6000602082019050818103600083015261257e81612542565b9050919050565b600061259082611ea5565b915061259b83611ea5565b9250826125ab576125aa612417565b5b828206905092915050565b7f4f776e61626c653a206e6577206f776e657220697320746865207a65726f206160008201527f6464726573730000000000000000000000000000000000000000000000000000602082015250565b600061261260268361214b565b915061261d826125b6565b604082019050919050565b6000602082019050818103600083015261264181612605565b905091905056fea2646970667358221220726443d553b810291ba57e2d2e1b46d66d134c0d6af4f9acf5b5f6a7ee30c7d964736f6c63430008100033",
					"opcodes": "PUSH1 0x80 PUSH1 0x40 MSTORE PUSH10 0x23934C5A09DA19000000 PUSH1 0x5 SSTORE PUSH3 0x15180 PUSH1 0x7 SSTORE PUSH1 0x5 PUSH1 0x8 SSTORE PUSH2 0x3E8 PUSH1 0x9 SSTORE CALLVALUE DUP1 ISZERO PUSH3 0x31 JUMPI PUSH1 0x0 DUP1 REVERT JUMPDEST POP PUSH3 0x52 PUSH3 0x46 PUSH3 0x60 PUSH1 0x20 SHL PUSH1 0x20 SHR JUMP JUMPDEST PUSH3 0x68 PUSH1 0x20 SHL PUSH1 0x20 SHR JUMP JUMPDEST PUSH1 0x1 PUSH1 0x2 DUP2 SWAP1 SSTORE POP PUSH3 0x12E JUMP JUMPDEST PUSH1 0x0 CALLER SWAP1 POP SWAP1 JUMP JUMPDEST PUSH1 0x0 PUSH1 0x1 PUSH1 0x0 SWAP1 SLOAD SWAP1 PUSH2 0x100 EXP SWAP1 DIV PUSH20 0xFFFFFFFFFFFFFFFFFFFFFFFFFFFFFFFFFFFFFFFF AND SWAP1 POP DUP2 PUSH1 0x1 PUSH1 0x0 PUSH2 0x100 EXP DUP2 SLOAD DUP2 PUSH20 0xFFFFFFFFFFFFFFFFFFFFFFFFFFFFFFFFFFFFFFFF MUL NOT AND SWAP1 DUP4 PUSH20 0xFFFFFFFFFFFFFFFFFFFFFFFFFFFFFFFFFFFFFFFF AND MUL OR SWAP1 SSTORE POP DUP2 PUSH20 0xFFFFFFFFFFFFFFFFFFFFFFFFFFFFFFFFFFFFFFFF AND DUP2 PUSH20 0xFFFFFFFFFFFFFFFFFFFFFFFFFFFFFFFFFFFFFFFF AND PUSH32 0x8BE0079C531659141344CD1FD0A4F28419497F9722A3DAAFE3B4186F6B6457E0 PUSH1 0x40 MLOAD PUSH1 0x40 MLOAD DUP1 SWAP2 SUB SWAP1 LOG3 POP POP JUMP JUMPDEST PUSH2 0x267E DUP1 PUSH3 0x13E PUSH1 0x0 CODECOPY PUSH1 0x0 RETURN INVALID PUSH1 0x80 PUSH1 0x40 MSTORE CALLVALUE DUP1 ISZERO PUSH2 0x10 JUMPI PUSH1 0x0 DUP1 REVERT JUMPDEST POP PUSH1 0x4 CALLDATASIZE LT PUSH2 0x21B JUMPI PUSH1 0x0 CALLDATALOAD PUSH1 0xE0 SHR DUP1 PUSH4 0x874C120B GT PUSH2 0x125 JUMPI DUP1 PUSH4 0xB79EC812 GT PUSH2 0xAD JUMPI DUP1 PUSH4 0xD42B779D GT PUSH2 0x7C JUMPI DUP1 PUSH4 0xD42B779D EQ PUSH2 0x62E JUMPI DUP1 PUSH4 0xDA4F8431 EQ PUSH2 0x65E JUMPI DUP1 PUSH4 0xDB2E21BC EQ PUSH2 0x68E JUMPI DUP1 PUSH4 0xDF136D65 EQ PUSH2 0x698 JUMPI DUP1 PUSH4 0xF2FDE38B EQ PUSH2 0x6B6 JUMPI PUSH2 0x21B JUMP JUMPDEST DUP1 PUSH4 0xB79EC812 EQ PUSH2 0x5A4 JUMPI DUP1 PUSH4 0xC8F33C91 EQ PUSH2 0x5D4 JUMPI DUP1 PUSH4 0xCDDA56E0 EQ PUSH2 0x5F2 JUMPI DUP1 PUSH4 0xD1AF0C7D EQ PUSH2 0x610 JUMPI PUSH2 0x21B JUMP JUMPDEST DUP1 PUSH4 0x92735675 GT PUSH2 0xF4 JUMPI DUP1 PUSH4 0x92735675 EQ PUSH2 0x514 JUMPI DUP1 PUSH4 0x9499C549 EQ PUSH2 0x530 JUMPI DUP1 PUSH4 0x9A5B17B0 EQ PUSH2 0x54E JUMPI DUP1 PUSH4 0xA4C3B091 EQ PUSH2 0x56C JUMPI DUP1 PUSH4 0xADC9772E EQ PUSH2 0x588 JUMPI PUSH2 0x21B JUMP JUMPDEST DUP1 PUSH4 0x874C120B EQ PUSH2 0x47A JUMPI DUP1 PUSH4 0x8AEE8127 EQ PUSH2 0x4AA JUMPI DUP1 PUSH4 0x8B876347 EQ PUSH2 0x4C6 JUMPI DUP1 PUSH4 0x8DA5CB5B EQ PUSH2 0x4F6 JUMPI PUSH2 0x21B JUMP JUMPDEST DUP1 PUSH4 0x4DBDC4EB GT PUSH2 0x1A8 JUMPI DUP1 PUSH4 0x715018A6 GT PUSH2 0x177 JUMPI DUP1 PUSH4 0x715018A6 EQ PUSH2 0x3E6 JUMPI DUP1 PUSH4 0x78E97925 EQ PUSH2 0x3F0 JUMPI DUP1 PUSH4 0x7A6FCEE7 EQ PUSH2 0x40E JUMPI DUP1 PUSH4 0x80FAA57D EQ PUSH2 0x42C JUMPI DUP1 PUSH4 0x8107368B EQ PUSH2 0x44A JUMPI PUSH2 0x21B JUMP JUMPDEST DUP1 PUSH4 0x4DBDC4EB EQ PUSH2 0x34A JUMPI DUP1 PUSH4 0x5CFA91F4 EQ PUSH2 0x37A JUMPI DUP1 PUSH4 0x6139D4B4 EQ PUSH2 0x3AA JUMPI DUP1 PUSH4 0x6917C501 EQ PUSH2 0x3C8 JUMPI PUSH2 0x21B JUMP JUMPDEST DUP1 PUSH4 0x18E20ECF GT PUSH2 0x1EF JUMPI DUP1 PUSH4 0x18E20ECF EQ PUSH2 0x2BA JUMPI DUP1 PUSH4 0x24D7806C EQ PUSH2 0x2D6 JUMPI DUP1 PUSH4 0x3C4045CF EQ PUSH2 0x306 JUMPI DUP1 PUSH4 0x3D18B912 EQ PUSH2 0x324 JUMPI DUP1 PUSH4 0x3E0A322D EQ PUSH2 0x32E JUMPI PUSH2 0x21B JUMP JUMPDEST DUP1 PUSH3 0x8CC262 EQ PUSH2 0x220 JUMPI DUP1 PUSH4 0x700037D EQ PUSH2 0x250 JUMPI DUP1 PUSH4 0xE15561A EQ PUSH2 0x280 JUMPI DUP1 PUSH4 0x129EE21A EQ PUSH2 0x29E JUMPI JUMPDEST PUSH1 0x0 DUP1 REVERT JUMPDEST PUSH2 0x23A PUSH1 0x4 DUP1 CALLDATASIZE SUB DUP2 ADD SWAP1 PUSH2 0x235 SWAP2 SWAP1 PUSH2 0x1E78 JUMP JUMPDEST PUSH2 0x6D2 JUMP JUMPDEST PUSH1 0x40 MLOAD PUSH2 0x247 SWAP2 SWAP1 PUSH2 0x1EBE JUMP JUMPDEST PUSH1 0x40 MLOAD DUP1 SWAP2 SUB SWAP1 RETURN JUMPDEST PUSH2 0x26A PUSH1 0x4 DUP1 CALLDATASIZE SUB DUP2 ADD SWAP1 PUSH2 0x265 SWAP2 SWAP1 PUSH2 0x1E78 JUMP JUMPDEST PUSH2 0x83E JUMP JUMPDEST PUSH1 0x40 MLOAD PUSH2 0x277 SWAP2 SWAP1 PUSH2 0x1EBE JUMP JUMPDEST PUSH1 0x40 MLOAD DUP1 SWAP2 SUB SWAP1 RETURN JUMPDEST PUSH2 0x288 PUSH2 0x856 JUMP JUMPDEST PUSH1 0x40 MLOAD PUSH2 0x295 SWAP2 SWAP1 PUSH2 0x1EBE JUMP JUMPDEST PUSH1 0x40 MLOAD DUP1 SWAP2 SUB SWAP1 RETURN JUMPDEST PUSH2 0x2B8 PUSH1 0x4 DUP1 CALLDATASIZE SUB DUP2 ADD SWAP1 PUSH2 0x2B3 SWAP2 SWAP1 PUSH2 0x1F05 JUMP JUMPDEST PUSH2 0x85C JUMP JUMPDEST STOP JUMPDEST PUSH2 0x2D4 PUSH1 0x4 DUP1 CALLDATASIZE SUB DUP2 ADD SWAP1 PUSH2 0x2CF SWAP2 SWAP1 PUSH2 0x1F90 JUMP JUMPDEST PUSH2 0x8F2 JUMP JUMPDEST STOP JUMPDEST PUSH2 0x2F0 PUSH1 0x4 DUP1 CALLDATASIZE SUB DUP2 ADD SWAP1 PUSH2 0x2EB SWAP2 SWAP1 PUSH2 0x1E78 JUMP JUMPDEST PUSH2 0xA63 JUMP JUMPDEST PUSH1 0x40 MLOAD PUSH2 0x2FD SWAP2 SWAP1 PUSH2 0x1FDF JUMP JUMPDEST PUSH1 0x40 MLOAD DUP1 SWAP2 SUB SWAP1 RETURN JUMPDEST PUSH2 0x30E PUSH2 0xAB8 JUMP JUMPDEST PUSH1 0x40 MLOAD PUSH2 0x31B SWAP2 SWAP1 PUSH2 0x1EBE JUMP JUMPDEST PUSH1 0x40 MLOAD DUP1 SWAP2 SUB SWAP1 RETURN JUMPDEST PUSH2 0x32C PUSH2 0xABE JUMP JUMPDEST STOP JUMPDEST PUSH2 0x348 PUSH1 0x4 DUP1 CALLDATASIZE SUB DUP2 ADD SWAP1 PUSH2 0x343 SWAP2 SWAP1 PUSH2 0x1FFA JUMP JUMPDEST PUSH2 0xE79 JUMP JUMPDEST STOP JUMPDEST PUSH2 0x364 PUSH1 0x4 DUP1 CALLDATASIZE SUB DUP2 ADD SWAP1 PUSH2 0x35F SWAP2 SWAP1 PUSH2 0x1FFA JUMP JUMPDEST PUSH2 0xED9 JUMP JUMPDEST PUSH1 0x40 MLOAD PUSH2 0x371 SWAP2 SWAP1 PUSH2 0x1EBE JUMP JUMPDEST PUSH1 0x40 MLOAD DUP1 SWAP2 SUB SWAP1 RETURN JUMPDEST PUSH2 0x394 PUSH1 0x4 DUP1 CALLDATASIZE SUB DUP2 ADD SWAP1 PUSH2 0x38F SWAP2 SWAP1 PUSH2 0x1FFA JUMP JUMPDEST PUSH2 0xF83 JUMP JUMPDEST PUSH1 0x40 MLOAD PUSH2 0x3A1 SWAP2 SWAP1 PUSH2 0x1EBE JUMP JUMPDEST PUSH1 0x40 MLOAD DUP1 SWAP2 SUB SWAP1 RETURN JUMPDEST PUSH2 0x3B2 PUSH2 0x1048 JUMP JUMPDEST PUSH1 0x40 MLOAD PUSH2 0x3BF SWAP2 SWAP1 PUSH2 0x1EBE JUMP JUMPDEST PUSH1 0x40 MLOAD DUP1 SWAP2 SUB SWAP1 RETURN JUMPDEST PUSH2 0x3D0 PUSH2 0x104E JUMP JUMPDEST PUSH1 0x40 MLOAD PUSH2 0x3DD SWAP2 SWAP1 PUSH2 0x1EBE JUMP JUMPDEST PUSH1 0x40 MLOAD DUP1 SWAP2 SUB SWAP1 RETURN JUMPDEST PUSH2 0x3EE PUSH2 0x1058 JUMP JUMPDEST STOP JUMPDEST PUSH2 0x3F8 PUSH2 0x10E0 JUMP JUMPDEST PUSH1 0x40 MLOAD PUSH2 0x405 SWAP2 SWAP1 PUSH2 0x1EBE JUMP JUMPDEST PUSH1 0x40 MLOAD DUP1 SWAP2 SUB SWAP1 RETURN JUMPDEST PUSH2 0x416 PUSH2 0x10E6 JUMP JUMPDEST PUSH1 0x40 MLOAD PUSH2 0x423 SWAP2 SWAP1 PUSH2 0x1EBE JUMP JUMPDEST PUSH1 0x40 MLOAD DUP1 SWAP2 SUB SWAP1 RETURN JUMPDEST PUSH2 0x434 PUSH2 0x10EC JUMP JUMPDEST PUSH1 0x40 MLOAD PUSH2 0x441 SWAP2 SWAP1 PUSH2 0x1EBE JUMP JUMPDEST PUSH1 0x40 MLOAD DUP1 SWAP2 SUB SWAP1 RETURN JUMPDEST PUSH2 0x464 PUSH1 0x4 DUP1 CALLDATASIZE SUB DUP2 ADD SWAP1 PUSH2 0x45F SWAP2 SWAP1 PUSH2 0x1E78 JUMP JUMPDEST PUSH2 0x10F4 JUMP JUMPDEST PUSH1 0x40 MLOAD PUSH2 0x471 SWAP2 SWAP1 PUSH2 0x1EBE JUMP JUMPDEST PUSH1 0x40 MLOAD DUP1 SWAP2 SUB SWAP1 RETURN JUMPDEST PUSH2 0x494 PUSH1 0x4 DUP1 CALLDATASIZE SUB DUP2 ADD SWAP1 PUSH2 0x48F SWAP2 SWAP1 PUSH2 0x1FFA JUMP JUMPDEST PUSH2 0x110C JUMP JUMPDEST PUSH1 0x40 MLOAD PUSH2 0x4A1 SWAP2 SWAP1 PUSH2 0x1EBE JUMP JUMPDEST PUSH1 0x40 MLOAD DUP1 SWAP2 SUB SWAP1 RETURN JUMPDEST PUSH2 0x4C4 PUSH1 0x4 DUP1 CALLDATASIZE SUB DUP2 ADD SWAP1 PUSH2 0x4BF SWAP2 SWAP1 PUSH2 0x1E78 JUMP JUMPDEST PUSH2 0x1199 JUMP JUMPDEST STOP JUMPDEST PUSH2 0x4E0 PUSH1 0x4 DUP1 CALLDATASIZE SUB DUP2 ADD SWAP1 PUSH2 0x4DB SWAP2 SWAP1 PUSH2 0x1E78 JUMP JUMPDEST PUSH2 0x1259 JUMP JUMPDEST PUSH1 0x40 MLOAD PUSH2 0x4ED SWAP2 SWAP1 PUSH2 0x1EBE JUMP JUMPDEST PUSH1 0x40 MLOAD DUP1 SWAP2 SUB SWAP1 RETURN JUMPDEST PUSH2 0x4FE PUSH2 0x1271 JUMP JUMPDEST PUSH1 0x40 MLOAD PUSH2 0x50B SWAP2 SWAP1 PUSH2 0x2036 JUMP JUMPDEST PUSH1 0x40 MLOAD DUP1 SWAP2 SUB SWAP1 RETURN JUMPDEST PUSH2 0x52E PUSH1 0x4 DUP1 CALLDATASIZE SUB DUP2 ADD SWAP1 PUSH2 0x529 SWAP2 SWAP1 PUSH2 0x1FFA JUMP JUMPDEST PUSH2 0x129B JUMP JUMPDEST STOP JUMPDEST PUSH2 0x538 PUSH2 0x1321 JUMP JUMPDEST PUSH1 0x40 MLOAD PUSH2 0x545 SWAP2 SWAP1 PUSH2 0x1EBE JUMP JUMPDEST PUSH1 0x40 MLOAD DUP1 SWAP2 SUB SWAP1 RETURN JUMPDEST PUSH2 0x556 PUSH2 0x1331 JUMP JUMPDEST PUSH1 0x40 MLOAD PUSH2 0x563 SWAP2 SWAP1 PUSH2 0x1EBE JUMP JUMPDEST PUSH1 0x40 MLOAD DUP1 SWAP2 SUB SWAP1 RETURN JUMPDEST PUSH2 0x586 PUSH1 0x4 DUP1 CALLDATASIZE SUB DUP2 ADD SWAP1 PUSH2 0x581 SWAP2 SWAP1 PUSH2 0x2051 JUMP JUMPDEST PUSH2 0x1339 JUMP JUMPDEST STOP JUMPDEST PUSH2 0x5A2 PUSH1 0x4 DUP1 CALLDATASIZE SUB DUP2 ADD SWAP1 PUSH2 0x59D SWAP2 SWAP1 PUSH2 0x2051 JUMP JUMPDEST PUSH2 0x1438 JUMP JUMPDEST STOP JUMPDEST PUSH2 0x5BE PUSH1 0x4 DUP1 CALLDATASIZE SUB DUP2 ADD SWAP1 PUSH2 0x5B9 SWAP2 SWAP1 PUSH2 0x1E78 JUMP JUMPDEST PUSH2 0x17AC JUMP JUMPDEST PUSH1 0x40 MLOAD PUSH2 0x5CB SWAP2 SWAP1 PUSH2 0x1EBE JUMP JUMPDEST PUSH1 0x40 MLOAD DUP1 SWAP2 SUB SWAP1 RETURN JUMPDEST PUSH2 0x5DC PUSH2 0x17F5 JUMP JUMPDEST PUSH1 0x40 MLOAD PUSH2 0x5E9 SWAP2 SWAP1 PUSH2 0x1EBE JUMP JUMPDEST PUSH1 0x40 MLOAD DUP1 SWAP2 SUB SWAP1 RETURN JUMPDEST PUSH2 0x5FA PUSH2 0x17FB JUMP JUMPDEST PUSH1 0x40 MLOAD PUSH2 0x607 SWAP2 SWAP1 PUSH2 0x1EBE JUMP JUMPDEST PUSH1 0x40 MLOAD DUP1 SWAP2 SUB SWAP1 RETURN JUMPDEST PUSH2 0x618 PUSH2 0x180B JUMP JUMPDEST PUSH1 0x40 MLOAD PUSH2 0x625 SWAP2 SWAP1 PUSH2 0x20F0 JUMP JUMPDEST PUSH1 0x40 MLOAD DUP1 SWAP2 SUB SWAP1 RETURN JUMPDEST PUSH2 0x648 PUSH1 0x4 DUP1 CALLDATASIZE SUB DUP2 ADD SWAP1 PUSH2 0x643 SWAP2 SWAP1 PUSH2 0x1E78 JUMP JUMPDEST PUSH2 0x1831 JUMP JUMPDEST PUSH1 0x40 MLOAD PUSH2 0x655 SWAP2 SWAP1 PUSH2 0x1EBE JUMP JUMPDEST PUSH1 0x40 MLOAD DUP1 SWAP2 SUB SWAP1 RETURN JUMPDEST PUSH2 0x678 PUSH1 0x4 DUP1 CALLDATASIZE SUB DUP2 ADD SWAP1 PUSH2 0x673 SWAP2 SWAP1 PUSH2 0x210B JUMP JUMPDEST PUSH2 0x1849 JUMP JUMPDEST PUSH1 0x40 MLOAD PUSH2 0x685 SWAP2 SWAP1 PUSH2 0x1EBE JUMP JUMPDEST PUSH1 0x40 MLOAD DUP1 SWAP2 SUB SWAP1 RETURN JUMPDEST PUSH2 0x696 PUSH2 0x1A30 JUMP JUMPDEST STOP JUMPDEST PUSH2 0x6A0 PUSH2 0x1AFC JUMP JUMPDEST PUSH1 0x40 MLOAD PUSH2 0x6AD SWAP2 SWAP1 PUSH2 0x1EBE JUMP JUMPDEST PUSH1 0x40 MLOAD DUP1 SWAP2 SUB SWAP1 RETURN JUMPDEST PUSH2 0x6D0 PUSH1 0x4 DUP1 CALLDATASIZE SUB DUP2 ADD SWAP1 PUSH2 0x6CB SWAP2 SWAP1 PUSH2 0x1E78 JUMP JUMPDEST PUSH2 0x1B02 JUMP JUMPDEST STOP JUMPDEST PUSH1 0x0 DUP1 PUSH2 0x71E PUSH1 0xE PUSH1 0x0 DUP6 PUSH20 0xFFFFFFFFFFFFFFFFFFFFFFFFFFFFFFFFFFFFFFFF AND PUSH20 0xFFFFFFFFFFFFFFFFFFFFFFFFFFFFFFFFFFFFFFFF AND DUP2 MSTORE PUSH1 0x20 ADD SWAP1 DUP2 MSTORE PUSH1 0x20 ADD PUSH1 0x0 KECCAK256 SLOAD TIMESTAMP PUSH2 0x1849 JUMP JUMPDEST SWAP1 POP PUSH2 0x836 PUSH1 0x4 PUSH1 0x0 DUP6 PUSH20 0xFFFFFFFFFFFFFFFFFFFFFFFFFFFFFFFFFFFFFFFF AND PUSH20 0xFFFFFFFFFFFFFFFFFFFFFFFFFFFFFFFFFFFFFFFF AND DUP2 MSTORE PUSH1 0x20 ADD SWAP1 DUP2 MSTORE PUSH1 0x20 ADD PUSH1 0x0 KECCAK256 SLOAD PUSH2 0x828 PUSH8 0xDE0B6B3A7640000 PUSH2 0x81A PUSH2 0x7CC PUSH1 0xD PUSH1 0x0 DUP11 PUSH20 0xFFFFFFFFFFFFFFFFFFFFFFFFFFFFFFFFFFFFFFFF AND PUSH20 0xFFFFFFFFFFFFFFFFFFFFFFFFFFFFFFFFFFFFFFFF AND DUP2 MSTORE PUSH1 0x20 ADD SWAP1 DUP2 MSTORE PUSH1 0x20 ADD PUSH1 0x0 KECCAK256 SLOAD PUSH2 0x7BE DUP9 PUSH2 0x110C JUMP JUMPDEST PUSH2 0x1BF9 SWAP1 SWAP2 SWAP1 PUSH4 0xFFFFFFFF AND JUMP JUMPDEST PUSH1 0xF PUSH1 0x0 DUP11 PUSH20 0xFFFFFFFFFFFFFFFFFFFFFFFFFFFFFFFFFFFFFFFF AND PUSH20 0xFFFFFFFFFFFFFFFFFFFFFFFFFFFFFFFFFFFFFFFF AND DUP2 MSTORE PUSH1 0x20 ADD SWAP1 DUP2 MSTORE PUSH1 0x20 ADD PUSH1 0x0 KECCAK256 SLOAD PUSH2 0x1C0F SWAP1 SWAP2 SWAP1 PUSH4 0xFFFFFFFF AND JUMP JUMPDEST PUSH2 0x1C25 SWAP1 SWAP2 SWAP1 PUSH4 0xFFFFFFFF AND JUMP JUMPDEST PUSH2 0x1C3B SWAP1 SWAP2 SWAP1 PUSH4 0xFFFFFFFF AND JUMP JUMPDEST SWAP2 POP POP SWAP2 SWAP1 POP JUMP JUMPDEST PUSH1 0x4 PUSH1 0x20 MSTORE DUP1 PUSH1 0x0 MSTORE PUSH1 0x40 PUSH1 0x0 KECCAK256 PUSH1 0x0 SWAP2 POP SWAP1 POP SLOAD DUP2 JUMP JUMPDEST PUSH1 0x5 SLOAD DUP2 JUMP JUMPDEST PUSH2 0x864 PUSH2 0x1C51 JUMP JUMPDEST PUSH20 0xFFFFFFFFFFFFFFFFFFFFFFFFFFFFFFFFFFFFFFFF AND PUSH2 0x882 PUSH2 0x1271 JUMP JUMPDEST PUSH20 0xFFFFFFFFFFFFFFFFFFFFFFFFFFFFFFFFFFFFFFFF AND EQ PUSH2 0x8D8 JUMPI PUSH1 0x40 MLOAD PUSH32 0x8C379A000000000000000000000000000000000000000000000000000000000 DUP2 MSTORE PUSH1 0x4 ADD PUSH2 0x8CF SWAP1 PUSH2 0x21CE JUMP JUMPDEST PUSH1 0x40 MLOAD DUP1 SWAP2 SUB SWAP1 REVERT JUMPDEST DUP3 PUSH1 0x7 DUP2 SWAP1 SSTORE POP DUP2 PUSH1 0x8 DUP2 SWAP1 SSTORE POP DUP1 PUSH1 0x9 DUP2 SWAP1 SSTORE POP POP POP POP JUMP JUMPDEST PUSH2 0x8FA PUSH2 0x1C51 JUMP JUMPDEST PUSH20 0xFFFFFFFFFFFFFFFFFFFFFFFFFFFFFFFFFFFFFFFF AND PUSH2 0x918 PUSH2 0x1271 JUMP JUMPDEST PUSH20 0xFFFFFFFFFFFFFFFFFFFFFFFFFFFFFFFFFFFFFFFF AND EQ PUSH2 0x96E JUMPI PUSH1 0x40 MLOAD PUSH32 0x8C379A000000000000000000000000000000000000000000000000000000000 DUP2 MSTORE PUSH1 0x4 ADD PUSH2 0x965 SWAP1 PUSH2 0x21CE JUMP JUMPDEST PUSH1 0x40 MLOAD DUP1 SWAP2 SUB SWAP1 REVERT JUMPDEST DUP2 PUSH20 0xFFFFFFFFFFFFFFFFFFFFFFFFFFFFFFFFFFFFFFFF AND PUSH32 0x82F1FA40A3D82DEA3E406073819290601F436580AA7C69F9FEB61F885BDD8854 PUSH1 0x0 DUP1 DUP6 PUSH20 0xFFFFFFFFFFFFFFFFFFFFFFFFFFFFFFFFFFFFFFFF AND PUSH20 0xFFFFFFFFFFFFFFFFFFFFFFFFFFFFFFFFFFFFFFFF AND DUP2 MSTORE PUSH1 0x20 ADD SWAP1 DUP2 MSTORE PUSH1 0x20 ADD PUSH1 0x0 KECCAK256 PUSH1 0x0 SWAP1 SLOAD SWAP1 PUSH2 0x100 EXP SWAP1 DIV PUSH1 0xFF AND DUP4 PUSH1 0x40 MLOAD PUSH2 0xA01 SWAP3 SWAP2 SWAP1 PUSH2 0x21EE JUMP JUMPDEST PUSH1 0x40 MLOAD DUP1 SWAP2 SUB SWAP1 LOG2 DUP1 PUSH1 0x0 DUP1 DUP5 PUSH20 0xFFFFFFFFFFFFFFFFFFFFFFFFFFFFFFFFFFFFFFFF AND PUSH20 0xFFFFFFFFFFFFFFFFFFFFFFFFFFFFFFFFFFFFFFFF AND DUP2 MSTORE PUSH1 0x20 ADD SWAP1 DUP2 MSTORE PUSH1 0x20 ADD PUSH1 0x0 KECCAK256 PUSH1 0x0 PUSH2 0x100 EXP DUP2 SLOAD DUP2 PUSH1 0xFF MUL NOT AND SWAP1 DUP4 ISZERO ISZERO MUL OR SWAP1 SSTORE POP POP POP JUMP JUMPDEST PUSH1 0x0 DUP1 PUSH1 0x0 DUP4 PUSH20 0xFFFFFFFFFFFFFFFFFFFFFFFFFFFFFFFFFFFFFFFF AND PUSH20 0xFFFFFFFFFFFFFFFFFFFFFFFFFFFFFFFFFFFFFFFF AND DUP2 MSTORE PUSH1 0x20 ADD SWAP1 DUP2 MSTORE PUSH1 0x20 ADD PUSH1 0x0 KECCAK256 PUSH1 0x0 SWAP1 SLOAD SWAP1 PUSH2 0x100 EXP SWAP1 DIV PUSH1 0xFF AND SWAP1 POP SWAP2 SWAP1 POP JUMP JUMPDEST PUSH1 0x8 SLOAD DUP2 JUMP JUMPDEST PUSH1 0x2 DUP1 SLOAD SUB PUSH2 0xB02 JUMPI PUSH1 0x40 MLOAD PUSH32 0x8C379A000000000000000000000000000000000000000000000000000000000 DUP2 MSTORE PUSH1 0x4 ADD PUSH2 0xAF9 SWAP1 PUSH2 0x2263 JUMP JUMPDEST PUSH1 0x40 MLOAD DUP1 SWAP2 SUB SWAP1 REVERT JUMPDEST PUSH1 0x2 DUP1 DUP2 SWAP1 SSTORE POP CALLER PUSH1 0x0 PUSH1 0xE PUSH1 0x0 DUP4 PUSH20 0xFFFFFFFFFFFFFFFFFFFFFFFFFFFFFFFFFFFFFFFF AND PUSH20 0xFFFFFFFFFFFFFFFFFFFFFFFFFFFFFFFFFFFFFFFF AND DUP2 MSTORE PUSH1 0x20 ADD SWAP1 DUP2 MSTORE PUSH1 0x20 ADD PUSH1 0x0 KECCAK256 SLOAD SWAP1 POP PUSH1 0x6 SLOAD DUP2 GT PUSH2 0xB5D JUMPI PUSH1 0x6 SLOAD SWAP1 POP JUMPDEST PUSH1 0x0 PUSH2 0xB69 DUP3 TIMESTAMP PUSH2 0x1849 JUMP JUMPDEST SWAP1 POP PUSH2 0xB74 DUP2 PUSH2 0x110C JUMP JUMPDEST PUSH1 0xB DUP2 SWAP1 SSTORE POP PUSH2 0xB82 PUSH2 0x10EC JUMP JUMPDEST PUSH1 0xA DUP2 SWAP1 SSTORE POP PUSH1 0x0 PUSH20 0xFFFFFFFFFFFFFFFFFFFFFFFFFFFFFFFFFFFFFFFF AND DUP4 PUSH20 0xFFFFFFFFFFFFFFFFFFFFFFFFFFFFFFFFFFFFFFFF AND EQ PUSH2 0xC93 JUMPI PUSH2 0xBC5 DUP4 PUSH2 0x6D2 JUMP JUMPDEST PUSH1 0x4 PUSH1 0x0 DUP6 PUSH20 0xFFFFFFFFFFFFFFFFFFFFFFFFFFFFFFFFFFFFFFFF AND PUSH20 0xFFFFFFFFFFFFFFFFFFFFFFFFFFFFFFFFFFFFFFFF AND DUP2 MSTORE PUSH1 0x20 ADD SWAP1 DUP2 MSTORE PUSH1 0x20 ADD PUSH1 0x0 KECCAK256 DUP2 SWAP1 SSTORE POP PUSH1 0xB SLOAD PUSH1 0xD PUSH1 0x0 DUP6 PUSH20 0xFFFFFFFFFFFFFFFFFFFFFFFFFFFFFFFFFFFFFFFF AND PUSH20 0xFFFFFFFFFFFFFFFFFFFFFFFFFFFFFFFFFFFFFFFF AND DUP2 MSTORE PUSH1 0x20 ADD SWAP1 DUP2 MSTORE PUSH1 0x20 ADD PUSH1 0x0 KECCAK256 DUP2 SWAP1 SSTORE POP TIMESTAMP PUSH1 0xE PUSH1 0x0 DUP6 PUSH20 0xFFFFFFFFFFFFFFFFFFFFFFFFFFFFFFFFFFFFFFFF AND PUSH20 0xFFFFFFFFFFFFFFFFFFFFFFFFFFFFFFFFFFFFFFFF AND DUP2 MSTORE PUSH1 0x20 ADD SWAP1 DUP2 MSTORE PUSH1 0x20 ADD PUSH1 0x0 KECCAK256 DUP2 SWAP1 SSTORE POP JUMPDEST PUSH1 0x0 PUSH1 0x4 PUSH1 0x0 CALLER PUSH20 0xFFFFFFFFFFFFFFFFFFFFFFFFFFFFFFFFFFFFFFFF AND PUSH20 0xFFFFFFFFFFFFFFFFFFFFFFFFFFFFFFFFFFFFFFFF AND DUP2 MSTORE PUSH1 0x20 ADD SWAP1 DUP2 MSTORE PUSH1 0x20 ADD PUSH1 0x0 KECCAK256 SLOAD SWAP1 POP PUSH1 0x0 DUP2 GT ISZERO PUSH2 0xE6B JUMPI DUP1 PUSH1 0x10 PUSH1 0x0 CALLER PUSH20 0xFFFFFFFFFFFFFFFFFFFFFFFFFFFFFFFFFFFFFFFF AND PUSH20 0xFFFFFFFFFFFFFFFFFFFFFFFFFFFFFFFFFFFFFFFF AND DUP2 MSTORE PUSH1 0x20 ADD SWAP1 DUP2 MSTORE PUSH1 0x20 ADD PUSH1 0x0 KECCAK256 PUSH1 0x0 DUP3 DUP3 SLOAD PUSH2 0xD2F SWAP2 SWAP1 PUSH2 0x22B2 JUMP JUMPDEST SWAP3 POP POP DUP2 SWAP1 SSTORE POP PUSH1 0x0 PUSH1 0x4 PUSH1 0x0 CALLER PUSH20 0xFFFFFFFFFFFFFFFFFFFFFFFFFFFFFFFFFFFFFFFF AND PUSH20 0xFFFFFFFFFFFFFFFFFFFFFFFFFFFFFFFFFFFFFFFF AND DUP2 MSTORE PUSH1 0x20 ADD SWAP1 DUP2 MSTORE PUSH1 0x20 ADD PUSH1 0x0 KECCAK256 DUP2 SWAP1 SSTORE POP PUSH1 0x3 PUSH1 0x0 SWAP1 SLOAD SWAP1 PUSH2 0x100 EXP SWAP1 DIV PUSH20 0xFFFFFFFFFFFFFFFFFFFFFFFFFFFFFFFFFFFFFFFF AND PUSH20 0xFFFFFFFFFFFFFFFFFFFFFFFFFFFFFFFFFFFFFFFF AND PUSH4 0xA9059CBB CALLER DUP4 PUSH1 0x40 MLOAD DUP4 PUSH4 0xFFFFFFFF AND PUSH1 0xE0 SHL DUP2 MSTORE PUSH1 0x4 ADD PUSH2 0xDD8 SWAP3 SWAP2 SWAP1 PUSH2 0x22E6 JUMP JUMPDEST PUSH1 0x20 PUSH1 0x40 MLOAD DUP1 DUP4 SUB DUP2 PUSH1 0x0 DUP8 GAS CALL ISZERO DUP1 ISZERO PUSH2 0xDF7 JUMPI RETURNDATASIZE PUSH1 0x0 DUP1 RETURNDATACOPY RETURNDATASIZE PUSH1 0x0 REVERT JUMPDEST POP POP POP POP PUSH1 0x40 MLOAD RETURNDATASIZE PUSH1 0x1F NOT PUSH1 0x1F DUP3 ADD AND DUP3 ADD DUP1 PUSH1 0x40 MSTORE POP DUP2 ADD SWAP1 PUSH2 0xE1B SWAP2 SWAP1 PUSH2 0x2324 JUMP JUMPDEST POP CALLER PUSH20 0xFFFFFFFFFFFFFFFFFFFFFFFFFFFFFFFFFFFFFFFF AND PUSH32 0xE2403640BA68FED3A2F88B7557551D1993F84B99BB10FF833F0CF8DB0C5E0486 DUP3 PUSH1 0x40 MLOAD PUSH2 0xE62 SWAP2 SWAP1 PUSH2 0x1EBE JUMP JUMPDEST PUSH1 0x40 MLOAD DUP1 SWAP2 SUB SWAP1 LOG2 JUMPDEST POP POP POP POP PUSH1 0x1 PUSH1 0x2 DUP2 SWAP1 SSTORE POP JUMP JUMPDEST PUSH2 0xE89 PUSH2 0xE84 PUSH2 0x1C51 JUMP JUMPDEST PUSH2 0xA63 JUMP JUMPDEST PUSH2 0xEC8 JUMPI PUSH1 0x40 MLOAD PUSH32 0x8C379A000000000000000000000000000000000000000000000000000000000 DUP2 MSTORE PUSH1 0x4 ADD PUSH2 0xEBF SWAP1 PUSH2 0x23C3 JUMP JUMPDEST PUSH1 0x40 MLOAD DUP1 SWAP2 SUB SWAP1 REVERT JUMPDEST DUP1 PUSH1 0x6 DUP2 SWAP1 SSTORE POP DUP1 PUSH1 0xA DUP2 SWAP1 SSTORE POP POP JUMP JUMPDEST PUSH1 0x0 DUP1 PUSH1 0x6 SLOAD SUB PUSH2 0xEEE JUMPI PUSH1 0x6 SLOAD SWAP1 POP PUSH2 0xF7E JUMP JUMPDEST PUSH1 0x6 SLOAD DUP3 LT ISZERO PUSH2 0xF01 JUMPI PUSH1 0x0 SWAP1 POP PUSH2 0xF7E JUMP JUMPDEST PUSH1 0x0 PUSH1 0x1 PUSH1 0x7 SLOAD PUSH1 0x6 SLOAD DUP6 PUSH2 0xF16 SWAP2 SWAP1 PUSH2 0x23E3 JUMP JUMPDEST PUSH2 0xF20 SWAP2 SWAP1 PUSH2 0x2446 JUMP JUMPDEST PUSH2 0xF2A SWAP2 SWAP1 PUSH2 0x22B2 JUMP JUMPDEST SWAP1 POP PUSH1 0x0 PUSH1 0x5 SLOAD SWAP1 POP PUSH1 0x0 JUMPDEST DUP3 DUP2 LT ISZERO PUSH2 0xF77 JUMPI PUSH1 0x9 SLOAD PUSH1 0x8 SLOAD DUP4 PUSH2 0xF4F SWAP2 SWAP1 PUSH2 0x2477 JUMP JUMPDEST PUSH2 0xF59 SWAP2 SWAP1 PUSH2 0x2446 JUMP JUMPDEST DUP3 PUSH2 0xF64 SWAP2 SWAP1 PUSH2 0x23E3 JUMP JUMPDEST SWAP2 POP DUP1 PUSH2 0xF70 SWAP1 PUSH2 0x24D1 JUMP JUMPDEST SWAP1 POP PUSH2 0xF36 JUMP JUMPDEST POP DUP1 SWAP3 POP POP POP JUMPDEST SWAP2 SWAP1 POP JUMP JUMPDEST PUSH1 0x0 DUP1 PUSH1 0x6 SLOAD SUB PUSH2 0xF97 JUMPI PUSH1 0x0 SWAP1 POP PUSH2 0x1043 JUMP JUMPDEST PUSH1 0x6 SLOAD DUP3 LT ISZERO PUSH2 0xFAA JUMPI PUSH1 0x0 SWAP1 POP PUSH2 0x1043 JUMP JUMPDEST PUSH1 0x0 PUSH1 0x7 SLOAD PUSH1 0x6 SLOAD DUP5 PUSH2 0xFBD SWAP2 SWAP1 PUSH2 0x23E3 JUMP JUMPDEST PUSH2 0xFC7 SWAP2 SWAP1 PUSH2 0x2446 JUMP JUMPDEST SWAP1 POP PUSH1 0x0 PUSH1 0x5 SLOAD SWAP1 POP PUSH1 0x0 JUMPDEST DUP3 DUP2 LT ISZERO PUSH2 0x1014 JUMPI PUSH1 0x9 SLOAD PUSH1 0x8 SLOAD DUP4 PUSH2 0xFEC SWAP2 SWAP1 PUSH2 0x2477 JUMP JUMPDEST PUSH2 0xFF6 SWAP2 SWAP1 PUSH2 0x2446 JUMP JUMPDEST DUP3 PUSH2 0x1001 SWAP2 SWAP1 PUSH2 0x23E3 JUMP JUMPDEST SWAP2 POP DUP1 PUSH2 0x100D SWAP1 PUSH2 0x24D1 JUMP JUMPDEST SWAP1 POP PUSH2 0xFD3 JUMP JUMPDEST POP PUSH2 0x103E PUSH1 0x9 SLOAD PUSH2 0x1030 PUSH1 0x8 SLOAD DUP5 PUSH2 0x1C0F SWAP1 SWAP2 SWAP1 PUSH4 0xFFFFFFFF AND JUMP JUMPDEST PUSH2 0x1C25 SWAP1 SWAP2 SWAP1 PUSH4 0xFFFFFFFF AND JUMP JUMPDEST SWAP3 POP POP POP JUMPDEST SWAP2 SWAP1 POP JUMP JUMPDEST PUSH1 0x7 SLOAD DUP2 JUMP JUMPDEST PUSH1 0x0 PUSH1 0xC SLOAD SWAP1 POP SWAP1 JUMP JUMPDEST PUSH2 0x1060 PUSH2 0x1C51 JUMP JUMPDEST PUSH20 0xFFFFFFFFFFFFFFFFFFFFFFFFFFFFFFFFFFFFFFFF AND PUSH2 0x107E PUSH2 0x1271 JUMP JUMPDEST PUSH20 0xFFFFFFFFFFFFFFFFFFFFFFFFFFFFFFFFFFFFFFFF AND EQ PUSH2 0x10D4 JUMPI PUSH1 0x40 MLOAD PUSH32 0x8C379A000000000000000000000000000000000000000000000000000000000 DUP2 MSTORE PUSH1 0x4 ADD PUSH2 0x10CB SWAP1 PUSH2 0x21CE JUMP JUMPDEST PUSH1 0x40 MLOAD DUP1 SWAP2 SUB SWAP1 REVERT JUMPDEST PUSH2 0x10DE PUSH1 0x0 PUSH2 0x1C59 JUMP JUMPDEST JUMP JUMPDEST PUSH1 0x6 SLOAD DUP2 JUMP JUMPDEST PUSH1 0x9 SLOAD DUP2 JUMP JUMPDEST PUSH1 0x0 TIMESTAMP SWAP1 POP SWAP1 JUMP JUMPDEST PUSH1 0xE PUSH1 0x20 MSTORE DUP1 PUSH1 0x0 MSTORE PUSH1 0x40 PUSH1 0x0 KECCAK256 PUSH1 0x0 SWAP2 POP SWAP1 POP SLOAD DUP2 JUMP JUMPDEST PUSH1 0x0 DUP1 PUSH1 0xC SLOAD SUB PUSH2 0x1121 JUMPI PUSH1 0xB SLOAD SWAP1 POP PUSH2 0x1194 JUMP JUMPDEST PUSH2 0x1191 PUSH2 0x1180 PUSH1 0xC SLOAD PUSH2 0x1172 PUSH8 0xDE0B6B3A7640000 PUSH2 0x1164 DUP8 PUSH2 0x1156 PUSH1 0xA SLOAD PUSH2 0x1148 PUSH2 0x10EC JUMP JUMPDEST PUSH2 0x1BF9 SWAP1 SWAP2 SWAP1 PUSH4 0xFFFFFFFF AND JUMP JUMPDEST PUSH2 0x1C0F SWAP1 SWAP2 SWAP1 PUSH4 0xFFFFFFFF AND JUMP JUMPDEST PUSH2 0x1C0F SWAP1 SWAP2 SWAP1 PUSH4 0xFFFFFFFF AND JUMP JUMPDEST PUSH2 0x1C25 SWAP1 SWAP2 SWAP1 PUSH4 0xFFFFFFFF AND JUMP JUMPDEST PUSH1 0xB SLOAD PUSH2 0x1C3B SWAP1 SWAP2 SWAP1 PUSH4 0xFFFFFFFF AND JUMP JUMPDEST SWAP1 POP JUMPDEST SWAP2 SWAP1 POP JUMP JUMPDEST PUSH2 0x11A1 PUSH2 0x1C51 JUMP JUMPDEST PUSH20 0xFFFFFFFFFFFFFFFFFFFFFFFFFFFFFFFFFFFFFFFF AND PUSH2 0x11BF PUSH2 0x1271 JUMP JUMPDEST PUSH20 0xFFFFFFFFFFFFFFFFFFFFFFFFFFFFFFFFFFFFFFFF AND EQ PUSH2 0x1215 JUMPI PUSH1 0x40 MLOAD PUSH32 0x8C379A000000000000000000000000000000000000000000000000000000000 DUP2 MSTORE PUSH1 0x4 ADD PUSH2 0x120C SWAP1 PUSH2 0x21CE JUMP JUMPDEST PUSH1 0x40 MLOAD DUP1 SWAP2 SUB SWAP1 REVERT JUMPDEST DUP1 PUSH1 0x3 PUSH1 0x0 PUSH2 0x100 EXP DUP2 SLOAD DUP2 PUSH20 0xFFFFFFFFFFFFFFFFFFFFFFFFFFFFFFFFFFFFFFFF MUL NOT AND SWAP1 DUP4 PUSH20 0xFFFFFFFFFFFFFFFFFFFFFFFFFFFFFFFFFFFFFFFF AND MUL OR SWAP1 SSTORE POP POP JUMP JUMPDEST PUSH1 0xD PUSH1 0x20 MSTORE DUP1 PUSH1 0x0 MSTORE PUSH1 0x40 PUSH1 0x0 KECCAK256 PUSH1 0x0 SWAP2 POP SWAP1 POP SLOAD DUP2 JUMP JUMPDEST PUSH1 0x0 PUSH1 0x1 PUSH1 0x0 SWAP1 SLOAD SWAP1 PUSH2 0x100 EXP SWAP1 DIV PUSH20 0xFFFFFFFFFFFFFFFFFFFFFFFFFFFFFFFFFFFFFFFF AND SWAP1 POP SWAP1 JUMP JUMPDEST PUSH2 0x12A3 PUSH2 0x1C51 JUMP JUMPDEST PUSH20 0xFFFFFFFFFFFFFFFFFFFFFFFFFFFFFFFFFFFFFFFF AND PUSH2 0x12C1 PUSH2 0x1271 JUMP JUMPDEST PUSH20 0xFFFFFFFFFFFFFFFFFFFFFFFFFFFFFFFFFFFFFFFF AND EQ PUSH2 0x1317 JUMPI PUSH1 0x40 MLOAD PUSH32 0x8C379A000000000000000000000000000000000000000000000000000000000 DUP2 MSTORE PUSH1 0x4 ADD PUSH2 0x130E SWAP1 PUSH2 0x21CE JUMP JUMPDEST PUSH1 0x40 MLOAD DUP1 SWAP2 SUB SWAP1 REVERT JUMPDEST DUP1 PUSH1 0x5 DUP2 SWAP1 SSTORE POP POP JUMP JUMPDEST PUSH1 0x0 PUSH2 0x132C TIMESTAMP PUSH2 0xF83 JUMP JUMPDEST SWAP1 POP SWAP1 JUMP JUMPDEST PUSH1 0x0 TIMESTAMP SWAP1 POP SWAP1 JUMP JUMPDEST PUSH2 0x1341 PUSH2 0x1C51 JUMP JUMPDEST PUSH20 0xFFFFFFFFFFFFFFFFFFFFFFFFFFFFFFFFFFFFFFFF AND PUSH2 0x135F PUSH2 0x1271 JUMP JUMPDEST PUSH20 0xFFFFFFFFFFFFFFFFFFFFFFFFFFFFFFFFFFFFFFFF AND EQ PUSH2 0x13B5 JUMPI PUSH1 0x40 MLOAD PUSH32 0x8C379A000000000000000000000000000000000000000000000000000000000 DUP2 MSTORE PUSH1 0x4 ADD PUSH2 0x13AC SWAP1 PUSH2 0x21CE JUMP JUMPDEST PUSH1 0x40 MLOAD DUP1 SWAP2 SUB SWAP1 REVERT JUMPDEST DUP2 PUSH20 0xFFFFFFFFFFFFFFFFFFFFFFFFFFFFFFFFFFFFFFFF AND PUSH4 0xA9059CBB CALLER DUP4 PUSH1 0x40 MLOAD DUP4 PUSH4 0xFFFFFFFF AND PUSH1 0xE0 SHL DUP2 MSTORE PUSH1 0x4 ADD PUSH2 0x13F0 SWAP3 SWAP2 SWAP1 PUSH2 0x22E6 JUMP JUMPDEST PUSH1 0x20 PUSH1 0x40 MLOAD DUP1 DUP4 SUB DUP2 PUSH1 0x0 DUP8 GAS CALL ISZERO DUP1 ISZERO PUSH2 0x140F JUMPI RETURNDATASIZE PUSH1 0x0 DUP1 RETURNDATACOPY RETURNDATASIZE PUSH1 0x0 REVERT JUMPDEST POP POP POP POP PUSH1 0x40 MLOAD RETURNDATASIZE PUSH1 0x1F NOT PUSH1 0x1F DUP3 ADD AND DUP3 ADD DUP1 PUSH1 0x40 MSTORE POP DUP2 ADD SWAP1 PUSH2 0x1433 SWAP2 SWAP1 PUSH2 0x2324 JUMP JUMPDEST POP POP POP JUMP JUMPDEST PUSH1 0x2 DUP1 SLOAD SUB PUSH2 0x147C JUMPI PUSH1 0x40 MLOAD PUSH32 0x8C379A000000000000000000000000000000000000000000000000000000000 DUP2 MSTORE PUSH1 0x4 ADD PUSH2 0x1473 SWAP1 PUSH2 0x2263 JUMP JUMPDEST PUSH1 0x40 MLOAD DUP1 SWAP2 SUB SWAP1 REVERT JUMPDEST PUSH1 0x2 DUP1 DUP2 SWAP1 SSTORE POP PUSH2 0x1493 PUSH2 0x148E PUSH2 0x1C51 JUMP JUMPDEST PUSH2 0xA63 JUMP JUMPDEST PUSH2 0x14D2 JUMPI PUSH1 0x40 MLOAD PUSH32 0x8C379A000000000000000000000000000000000000000000000000000000000 DUP2 MSTORE PUSH1 0x4 ADD PUSH2 0x14C9 SWAP1 PUSH2 0x23C3 JUMP JUMPDEST PUSH1 0x40 MLOAD DUP1 SWAP2 SUB SWAP1 REVERT JUMPDEST DUP2 PUSH1 0x0 PUSH1 0xE PUSH1 0x0 DUP4 PUSH20 0xFFFFFFFFFFFFFFFFFFFFFFFFFFFFFFFFFFFFFFFF AND PUSH20 0xFFFFFFFFFFFFFFFFFFFFFFFFFFFFFFFFFFFFFFFF AND DUP2 MSTORE PUSH1 0x20 ADD SWAP1 DUP2 MSTORE PUSH1 0x20 ADD PUSH1 0x0 KECCAK256 SLOAD SWAP1 POP PUSH1 0x6 SLOAD DUP2 GT PUSH2 0x1526 JUMPI PUSH1 0x6 SLOAD SWAP1 POP JUMPDEST PUSH1 0x0 PUSH2 0x1532 DUP3 TIMESTAMP PUSH2 0x1849 JUMP JUMPDEST SWAP1 POP PUSH2 0x153D DUP2 PUSH2 0x110C JUMP JUMPDEST PUSH1 0xB DUP2 SWAP1 SSTORE POP PUSH2 0x154B PUSH2 0x10EC JUMP JUMPDEST PUSH1 0xA DUP2 SWAP1 SSTORE POP PUSH1 0x0 PUSH20 0xFFFFFFFFFFFFFFFFFFFFFFFFFFFFFFFFFFFFFFFF AND DUP4 PUSH20 0xFFFFFFFFFFFFFFFFFFFFFFFFFFFFFFFFFFFFFFFF AND EQ PUSH2 0x165C JUMPI PUSH2 0x158E DUP4 PUSH2 0x6D2 JUMP JUMPDEST PUSH1 0x4 PUSH1 0x0 DUP6 PUSH20 0xFFFFFFFFFFFFFFFFFFFFFFFFFFFFFFFFFFFFFFFF AND PUSH20 0xFFFFFFFFFFFFFFFFFFFFFFFFFFFFFFFFFFFFFFFF AND DUP2 MSTORE PUSH1 0x20 ADD SWAP1 DUP2 MSTORE PUSH1 0x20 ADD PUSH1 0x0 KECCAK256 DUP2 SWAP1 SSTORE POP PUSH1 0xB SLOAD PUSH1 0xD PUSH1 0x0 DUP6 PUSH20 0xFFFFFFFFFFFFFFFFFFFFFFFFFFFFFFFFFFFFFFFF AND PUSH20 0xFFFFFFFFFFFFFFFFFFFFFFFFFFFFFFFFFFFFFFFF AND DUP2 MSTORE PUSH1 0x20 ADD SWAP1 DUP2 MSTORE PUSH1 0x20 ADD PUSH1 0x0 KECCAK256 DUP2 SWAP1 SSTORE POP TIMESTAMP PUSH1 0xE PUSH1 0x0 DUP6 PUSH20 0xFFFFFFFFFFFFFFFFFFFFFFFFFFFFFFFFFFFFFFFF AND PUSH20 0xFFFFFFFFFFFFFFFFFFFFFFFFFFFFFFFFFFFFFFFF AND DUP2 MSTORE PUSH1 0x20 ADD SWAP1 DUP2 MSTORE PUSH1 0x20 ADD PUSH1 0x0 KECCAK256 DUP2 SWAP1 SSTORE POP JUMPDEST PUSH1 0x0 DUP5 GT PUSH2 0x169F JUMPI PUSH1 0x40 MLOAD PUSH32 0x8C379A000000000000000000000000000000000000000000000000000000000 DUP2 MSTORE PUSH1 0x4 ADD PUSH2 0x1696 SWAP1 PUSH2 0x2565 JUMP JUMPDEST PUSH1 0x40 MLOAD DUP1 SWAP2 SUB SWAP1 REVERT JUMPDEST PUSH2 0x16B4 DUP5 PUSH1 0xC SLOAD PUSH2 0x1C3B SWAP1 SWAP2 SWAP1 PUSH4 0xFFFFFFFF AND JUMP JUMPDEST PUSH1 0xC DUP2 SWAP1 SSTORE POP PUSH2 0x170C DUP5 PUSH1 0xF PUSH1 0x0 DUP9 PUSH20 0xFFFFFFFFFFFFFFFFFFFFFFFFFFFFFFFFFFFFFFFF AND PUSH20 0xFFFFFFFFFFFFFFFFFFFFFFFFFFFFFFFFFFFFFFFF AND DUP2 MSTORE PUSH1 0x20 ADD SWAP1 DUP2 MSTORE PUSH1 0x20 ADD PUSH1 0x0 KECCAK256 SLOAD PUSH2 0x1C3B SWAP1 SWAP2 SWAP1 PUSH4 0xFFFFFFFF AND JUMP JUMPDEST PUSH1 0xF PUSH1 0x0 DUP8 PUSH20 0xFFFFFFFFFFFFFFFFFFFFFFFFFFFFFFFFFFFFFFFF AND PUSH20 0xFFFFFFFFFFFFFFFFFFFFFFFFFFFFFFFFFFFFFFFF AND DUP2 MSTORE PUSH1 0x20 ADD SWAP1 DUP2 MSTORE PUSH1 0x20 ADD PUSH1 0x0 KECCAK256 DUP2 SWAP1 SSTORE POP DUP5 PUSH20 0xFFFFFFFFFFFFFFFFFFFFFFFFFFFFFFFFFFFFFFFF AND PUSH32 0x9E71BC8EEA02A63969F509818F2DAFB9254532904319F9DBDA79B67BD34A5F3D DUP6 PUSH1 0x40 MLOAD PUSH2 0x1795 SWAP2 SWAP1 PUSH2 0x1EBE JUMP JUMPDEST PUSH1 0x40 MLOAD DUP1 SWAP2 SUB SWAP1 LOG2 POP POP POP PUSH1 0x1 PUSH1 0x2 DUP2 SWAP1 SSTORE POP POP POP JUMP JUMPDEST PUSH1 0x0 PUSH1 0xF PUSH1 0x0 DUP4 PUSH20 0xFFFFFFFFFFFFFFFFFFFFFFFFFFFFFFFFFFFFFFFF AND PUSH20 0xFFFFFFFFFFFFFFFFFFFFFFFFFFFFFFFFFFFFFFFF AND DUP2 MSTORE PUSH1 0x20 ADD SWAP1 DUP2 MSTORE PUSH1 0x20 ADD PUSH1 0x0 KECCAK256 SLOAD SWAP1 POP SWAP2 SWAP1 POP JUMP JUMPDEST PUSH1 0xA SLOAD DUP2 JUMP JUMPDEST PUSH1 0x0 PUSH2 0x1806 TIMESTAMP PUSH2 0x1D1F JUMP JUMPDEST SWAP1 POP SWAP1 JUMP JUMPDEST PUSH1 0x3 PUSH1 0x0 SWAP1 SLOAD SWAP1 PUSH2 0x100 EXP SWAP1 DIV PUSH20 0xFFFFFFFFFFFFFFFFFFFFFFFFFFFFFFFFFFFFFFFF AND DUP2 JUMP JUMPDEST PUSH1 0x10 PUSH1 0x20 MSTORE DUP1 PUSH1 0x0 MSTORE PUSH1 0x40 PUSH1 0x0 KECCAK256 PUSH1 0x0 SWAP2 POP SWAP1 POP SLOAD DUP2 JUMP JUMPDEST PUSH1 0x0 DUP1 PUSH1 0x6 SLOAD EQ DUP1 PUSH2 0x185B JUMPI POP DUP2 DUP4 LT ISZERO JUMPDEST DUP1 PUSH2 0x1866 JUMPI POP PUSH1 0x0 DUP4 EQ JUMPDEST ISZERO PUSH2 0x1874 JUMPI PUSH1 0x0 SWAP1 POP PUSH2 0x1A2A JUMP JUMPDEST PUSH1 0x6 SLOAD DUP4 LT ISZERO PUSH2 0x1884 JUMPI PUSH1 0x6 SLOAD SWAP3 POP JUMPDEST PUSH1 0x0 PUSH1 0x7 SLOAD PUSH1 0x7 SLOAD PUSH1 0x6 SLOAD DUP7 PUSH2 0x189A SWAP2 SWAP1 PUSH2 0x23E3 JUMP JUMPDEST PUSH2 0x18A4 SWAP2 SWAP1 PUSH2 0x2585 JUMP JUMPDEST PUSH1 0x7 SLOAD PUSH2 0x18B1 SWAP2 SWAP1 PUSH2 0x23E3 JUMP JUMPDEST PUSH2 0x18BB SWAP2 SWAP1 PUSH2 0x2585 JUMP JUMPDEST SWAP1 POP PUSH1 0x0 PUSH1 0x7 SLOAD DUP3 PUSH2 0x18CC DUP8 PUSH2 0xF83 JUMP JUMPDEST PUSH2 0x18D6 SWAP2 SWAP1 PUSH2 0x2477 JUMP JUMPDEST PUSH2 0x18E0 SWAP2 SWAP1 PUSH2 0x2446 JUMP JUMPDEST SWAP1 POP PUSH1 0x0 PUSH1 0x7 SLOAD PUSH1 0x6 SLOAD DUP7 PUSH2 0x18F5 SWAP2 SWAP1 PUSH2 0x23E3 JUMP JUMPDEST PUSH2 0x18FF SWAP2 SWAP1 PUSH2 0x2585 JUMP JUMPDEST SWAP1 POP PUSH1 0x0 PUSH1 0x7 SLOAD DUP3 PUSH2 0x1910 DUP9 PUSH2 0xF83 JUMP JUMPDEST PUSH2 0x191A SWAP2 SWAP1 PUSH2 0x2477 JUMP JUMPDEST PUSH2 0x1924 SWAP2 SWAP1 PUSH2 0x2446 JUMP JUMPDEST SWAP1 POP DUP6 DUP5 DUP9 PUSH2 0x1933 SWAP2 SWAP1 PUSH2 0x22B2 JUMP JUMPDEST GT ISZERO PUSH2 0x194D JUMPI PUSH2 0x1942 DUP8 PUSH2 0x1D1F JUMP JUMPDEST SWAP5 POP POP POP POP POP PUSH2 0x1A2A JUMP JUMPDEST PUSH1 0x0 DUP5 DUP9 DUP5 DUP10 PUSH2 0x195D SWAP2 SWAP1 PUSH2 0x23E3 JUMP JUMPDEST PUSH2 0x1967 SWAP2 SWAP1 PUSH2 0x23E3 JUMP JUMPDEST PUSH2 0x1971 SWAP2 SWAP1 PUSH2 0x23E3 JUMP JUMPDEST SWAP1 POP PUSH1 0x0 PUSH2 0x197E DUP10 PUSH2 0x1D50 JUMP JUMPDEST SWAP1 POP PUSH1 0x0 DUP1 PUSH1 0x0 DUP4 SWAP1 POP PUSH1 0x0 PUSH1 0x7 SLOAD DUP7 PUSH2 0x1998 SWAP2 SWAP1 PUSH2 0x2446 JUMP JUMPDEST SWAP1 POP PUSH1 0x0 JUMPDEST DUP2 DUP2 LT ISZERO PUSH2 0x19EF JUMPI PUSH1 0x9 SLOAD PUSH1 0x8 SLOAD DUP5 PUSH2 0x19B6 SWAP2 SWAP1 PUSH2 0x2477 JUMP JUMPDEST PUSH2 0x19C0 SWAP2 SWAP1 PUSH2 0x2446 JUMP JUMPDEST SWAP4 POP DUP4 DUP4 PUSH2 0x19CE SWAP2 SWAP1 PUSH2 0x23E3 JUMP JUMPDEST SWAP3 POP DUP4 DUP6 PUSH2 0x19DC SWAP2 SWAP1 PUSH2 0x22B2 JUMP JUMPDEST SWAP5 POP DUP1 PUSH2 0x19E8 SWAP1 PUSH2 0x24D1 JUMP JUMPDEST SWAP1 POP PUSH2 0x199D JUMP JUMPDEST POP DUP13 DUP13 PUSH2 0x19FC SWAP2 SWAP1 PUSH2 0x23E3 JUMP JUMPDEST DUP8 DUP11 DUP7 PUSH2 0x1A09 SWAP2 SWAP1 PUSH2 0x22B2 JUMP JUMPDEST PUSH2 0x1A13 SWAP2 SWAP1 PUSH2 0x22B2 JUMP JUMPDEST PUSH2 0x1A1D SWAP2 SWAP1 PUSH2 0x2446 JUMP JUMPDEST SWAP11 POP POP POP POP POP POP POP POP POP POP POP JUMPDEST SWAP3 SWAP2 POP POP JUMP JUMPDEST PUSH2 0x1A38 PUSH2 0x1C51 JUMP JUMPDEST PUSH20 0xFFFFFFFFFFFFFFFFFFFFFFFFFFFFFFFFFFFFFFFF AND PUSH2 0x1A56 PUSH2 0x1271 JUMP JUMPDEST PUSH20 0xFFFFFFFFFFFFFFFFFFFFFFFFFFFFFFFFFFFFFFFF AND EQ PUSH2 0x1AAC JUMPI PUSH1 0x40 MLOAD PUSH32 0x8C379A000000000000000000000000000000000000000000000000000000000 DUP2 MSTORE PUSH1 0x4 ADD PUSH2 0x1AA3 SWAP1 PUSH2 0x21CE JUMP JUMPDEST PUSH1 0x40 MLOAD DUP1 SWAP2 SUB SWAP1 REVERT JUMPDEST PUSH2 0x1AB4 PUSH2 0x1271 JUMP JUMPDEST PUSH20 0xFFFFFFFFFFFFFFFFFFFFFFFFFFFFFFFFFFFFFFFF AND PUSH2 0x8FC SELFBALANCE SWAP1 DUP2 ISZERO MUL SWAP1 PUSH1 0x40 MLOAD PUSH1 0x0 PUSH1 0x40 MLOAD DUP1 DUP4 SUB DUP2 DUP6 DUP9 DUP9 CALL SWAP4 POP POP POP POP ISZERO DUP1 ISZERO PUSH2 0x1AF9 JUMPI RETURNDATASIZE PUSH1 0x0 DUP1 RETURNDATACOPY RETURNDATASIZE PUSH1 0x0 REVERT JUMPDEST POP JUMP JUMPDEST PUSH1 0xB SLOAD DUP2 JUMP JUMPDEST PUSH2 0x1B0A PUSH2 0x1C51 JUMP JUMPDEST PUSH20 0xFFFFFFFFFFFFFFFFFFFFFFFFFFFFFFFFFFFFFFFF AND PUSH2 0x1B28 PUSH2 0x1271 JUMP JUMPDEST PUSH20 0xFFFFFFFFFFFFFFFFFFFFFFFFFFFFFFFFFFFFFFFF AND EQ PUSH2 0x1B7E JUMPI PUSH1 0x40 MLOAD PUSH32 0x8C379A000000000000000000000000000000000000000000000000000000000 DUP2 MSTORE PUSH1 0x4 ADD PUSH2 0x1B75 SWAP1 PUSH2 0x21CE JUMP JUMPDEST PUSH1 0x40 MLOAD DUP1 SWAP2 SUB SWAP1 REVERT JUMPDEST PUSH1 0x0 PUSH20 0xFFFFFFFFFFFFFFFFFFFFFFFFFFFFFFFFFFFFFFFF AND DUP2 PUSH20 0xFFFFFFFFFFFFFFFFFFFFFFFFFFFFFFFFFFFFFFFF AND SUB PUSH2 0x1BED JUMPI PUSH1 0x40 MLOAD PUSH32 0x8C379A000000000000000000000000000000000000000000000000000000000 DUP2 MSTORE PUSH1 0x4 ADD PUSH2 0x1BE4 SWAP1 PUSH2 0x2628 JUMP JUMPDEST PUSH1 0x40 MLOAD DUP1 SWAP2 SUB SWAP1 REVERT JUMPDEST PUSH2 0x1BF6 DUP2 PUSH2 0x1C59 JUMP JUMPDEST POP JUMP JUMPDEST PUSH1 0x0 DUP2 DUP4 PUSH2 0x1C07 SWAP2 SWAP1 PUSH2 0x23E3 JUMP JUMPDEST SWAP1 POP SWAP3 SWAP2 POP POP JUMP JUMPDEST PUSH1 0x0 DUP2 DUP4 PUSH2 0x1C1D SWAP2 SWAP1 PUSH2 0x2477 JUMP JUMPDEST SWAP1 POP SWAP3 SWAP2 POP POP JUMP JUMPDEST PUSH1 0x0 DUP2 DUP4 PUSH2 0x1C33 SWAP2 SWAP1 PUSH2 0x2446 JUMP JUMPDEST SWAP1 POP SWAP3 SWAP2 POP POP JUMP JUMPDEST PUSH1 0x0 DUP2 DUP4 PUSH2 0x1C49 SWAP2 SWAP1 PUSH2 0x22B2 JUMP JUMPDEST SWAP1 POP SWAP3 SWAP2 POP POP JUMP JUMPDEST PUSH1 0x0 CALLER SWAP1 POP SWAP1 JUMP JUMPDEST PUSH1 0x0 PUSH1 0x1 PUSH1 0x0 SWAP1 SLOAD SWAP1 PUSH2 0x100 EXP SWAP1 DIV PUSH20 0xFFFFFFFFFFFFFFFFFFFFFFFFFFFFFFFFFFFFFFFF AND SWAP1 POP DUP2 PUSH1 0x1 PUSH1 0x0 PUSH2 0x100 EXP DUP2 SLOAD DUP2 PUSH20 0xFFFFFFFFFFFFFFFFFFFFFFFFFFFFFFFFFFFFFFFF MUL NOT AND SWAP1 DUP4 PUSH20 0xFFFFFFFFFFFFFFFFFFFFFFFFFFFFFFFFFFFFFFFF AND MUL OR SWAP1 SSTORE POP DUP2 PUSH20 0xFFFFFFFFFFFFFFFFFFFFFFFFFFFFFFFFFFFFFFFF AND DUP2 PUSH20 0xFFFFFFFFFFFFFFFFFFFFFFFFFFFFFFFFFFFFFFFF AND PUSH32 0x8BE0079C531659141344CD1FD0A4F28419497F9722A3DAAFE3B4186F6B6457E0 PUSH1 0x40 MLOAD PUSH1 0x40 MLOAD DUP1 SWAP2 SUB SWAP1 LOG3 POP POP JUMP JUMPDEST PUSH1 0x0 DUP1 PUSH2 0x1D2B DUP4 PUSH2 0xF83 JUMP JUMPDEST SWAP1 POP PUSH1 0x0 PUSH2 0x1D44 PUSH1 0x7 SLOAD DUP4 PUSH2 0x1C25 SWAP1 SWAP2 SWAP1 PUSH4 0xFFFFFFFF AND JUMP JUMPDEST SWAP1 POP DUP1 SWAP3 POP POP POP SWAP2 SWAP1 POP JUMP JUMPDEST PUSH1 0x0 DUP1 PUSH1 0x6 SLOAD SUB PUSH2 0x1D65 JUMPI PUSH1 0x5 SLOAD SWAP1 POP PUSH2 0x1E10 JUMP JUMPDEST PUSH1 0x6 SLOAD DUP3 LT ISZERO PUSH2 0x1D78 JUMPI PUSH1 0x0 SWAP1 POP PUSH2 0x1E10 JUMP JUMPDEST PUSH1 0x0 PUSH1 0x7 SLOAD PUSH1 0x6 SLOAD DUP5 PUSH2 0x1D8B SWAP2 SWAP1 PUSH2 0x23E3 JUMP JUMPDEST PUSH2 0x1D95 SWAP2 SWAP1 PUSH2 0x2446 JUMP JUMPDEST SWAP1 POP PUSH1 0x0 PUSH1 0x9 SLOAD PUSH1 0x8 SLOAD PUSH1 0x5 SLOAD PUSH2 0x1DAC SWAP2 SWAP1 PUSH2 0x2477 JUMP JUMPDEST PUSH2 0x1DB6 SWAP2 SWAP1 PUSH2 0x2446 JUMP JUMPDEST PUSH1 0x5 SLOAD PUSH2 0x1DC3 SWAP2 SWAP1 PUSH2 0x23E3 JUMP JUMPDEST SWAP1 POP PUSH1 0x0 JUMPDEST DUP3 DUP2 LT ISZERO PUSH2 0x1E09 JUMPI PUSH1 0x9 SLOAD PUSH1 0x8 SLOAD DUP4 PUSH2 0x1DE1 SWAP2 SWAP1 PUSH2 0x2477 JUMP JUMPDEST PUSH2 0x1DEB SWAP2 SWAP1 PUSH2 0x2446 JUMP JUMPDEST DUP3 PUSH2 0x1DF6 SWAP2 SWAP1 PUSH2 0x23E3 JUMP JUMPDEST SWAP2 POP DUP1 PUSH2 0x1E02 SWAP1 PUSH2 0x24D1 JUMP JUMPDEST SWAP1 POP PUSH2 0x1DC8 JUMP JUMPDEST POP DUP1 SWAP3 POP POP POP JUMPDEST SWAP2 SWAP1 POP JUMP JUMPDEST PUSH1 0x0 DUP1 REVERT JUMPDEST PUSH1 0x0 PUSH20 0xFFFFFFFFFFFFFFFFFFFFFFFFFFFFFFFFFFFFFFFF DUP3 AND SWAP1 POP SWAP2 SWAP1 POP JUMP JUMPDEST PUSH1 0x0 PUSH2 0x1E45 DUP3 PUSH2 0x1E1A JUMP JUMPDEST SWAP1 POP SWAP2 SWAP1 POP JUMP JUMPDEST PUSH2 0x1E55 DUP2 PUSH2 0x1E3A JUMP JUMPDEST DUP2 EQ PUSH2 0x1E60 JUMPI PUSH1 0x0 DUP1 REVERT JUMPDEST POP JUMP JUMPDEST PUSH1 0x0 DUP2 CALLDATALOAD SWAP1 POP PUSH2 0x1E72 DUP2 PUSH2 0x1E4C JUMP JUMPDEST SWAP3 SWAP2 POP POP JUMP JUMPDEST PUSH1 0x0 PUSH1 0x20 DUP3 DUP5 SUB SLT ISZERO PUSH2 0x1E8E JUMPI PUSH2 0x1E8D PUSH2 0x1E15 JUMP JUMPDEST JUMPDEST PUSH1 0x0 PUSH2 0x1E9C DUP5 DUP3 DUP6 ADD PUSH2 0x1E63 JUMP JUMPDEST SWAP2 POP POP SWAP3 SWAP2 POP POP JUMP JUMPDEST PUSH1 0x0 DUP2 SWAP1 POP SWAP2 SWAP1 POP JUMP JUMPDEST PUSH2 0x1EB8 DUP2 PUSH2 0x1EA5 JUMP JUMPDEST DUP3 MSTORE POP POP JUMP JUMPDEST PUSH1 0x0 PUSH1 0x20 DUP3 ADD SWAP1 POP PUSH2 0x1ED3 PUSH1 0x0 DUP4 ADD DUP5 PUSH2 0x1EAF JUMP JUMPDEST SWAP3 SWAP2 POP POP JUMP JUMPDEST PUSH2 0x1EE2 DUP2 PUSH2 0x1EA5 JUMP JUMPDEST DUP2 EQ PUSH2 0x1EED JUMPI PUSH1 0x0 DUP1 REVERT JUMPDEST POP JUMP JUMPDEST PUSH1 0x0 DUP2 CALLDATALOAD SWAP1 POP PUSH2 0x1EFF DUP2 PUSH2 0x1ED9 JUMP JUMPDEST SWAP3 SWAP2 POP POP JUMP JUMPDEST PUSH1 0x0 DUP1 PUSH1 0x0 PUSH1 0x60 DUP5 DUP7 SUB SLT ISZERO PUSH2 0x1F1E JUMPI PUSH2 0x1F1D PUSH2 0x1E15 JUMP JUMPDEST JUMPDEST PUSH1 0x0 PUSH2 0x1F2C DUP7 DUP3 DUP8 ADD PUSH2 0x1EF0 JUMP JUMPDEST SWAP4 POP POP PUSH1 0x20 PUSH2 0x1F3D DUP7 DUP3 DUP8 ADD PUSH2 0x1EF0 JUMP JUMPDEST SWAP3 POP POP PUSH1 0x40 PUSH2 0x1F4E DUP7 DUP3 DUP8 ADD PUSH2 0x1EF0 JUMP JUMPDEST SWAP2 POP POP SWAP3 POP SWAP3 POP SWAP3 JUMP JUMPDEST PUSH1 0x0 DUP2 ISZERO ISZERO SWAP1 POP SWAP2 SWAP1 POP JUMP JUMPDEST PUSH2 0x1F6D DUP2 PUSH2 0x1F58 JUMP JUMPDEST DUP2 EQ PUSH2 0x1F78 JUMPI PUSH1 0x0 DUP1 REVERT JUMPDEST POP JUMP JUMPDEST PUSH1 0x0 DUP2 CALLDATALOAD SWAP1 POP PUSH2 0x1F8A DUP2 PUSH2 0x1F64 JUMP JUMPDEST SWAP3 SWAP2 POP POP JUMP JUMPDEST PUSH1 0x0 DUP1 PUSH1 0x40 DUP4 DUP6 SUB SLT ISZERO PUSH2 0x1FA7 JUMPI PUSH2 0x1FA6 PUSH2 0x1E15 JUMP JUMPDEST JUMPDEST PUSH1 0x0 PUSH2 0x1FB5 DUP6 DUP3 DUP7 ADD PUSH2 0x1E63 JUMP JUMPDEST SWAP3 POP POP PUSH1 0x20 PUSH2 0x1FC6 DUP6 DUP3 DUP7 ADD PUSH2 0x1F7B JUMP JUMPDEST SWAP2 POP POP SWAP3 POP SWAP3 SWAP1 POP JUMP JUMPDEST PUSH2 0x1FD9 DUP2 PUSH2 0x1F58 JUMP JUMPDEST DUP3 MSTORE POP POP JUMP JUMPDEST PUSH1 0x0 PUSH1 0x20 DUP3 ADD SWAP1 POP PUSH2 0x1FF4 PUSH1 0x0 DUP4 ADD DUP5 PUSH2 0x1FD0 JUMP JUMPDEST SWAP3 SWAP2 POP POP JUMP JUMPDEST PUSH1 0x0 PUSH1 0x20 DUP3 DUP5 SUB SLT ISZERO PUSH2 0x2010 JUMPI PUSH2 0x200F PUSH2 0x1E15 JUMP JUMPDEST JUMPDEST PUSH1 0x0 PUSH2 0x201E DUP5 DUP3 DUP6 ADD PUSH2 0x1EF0 JUMP JUMPDEST SWAP2 POP POP SWAP3 SWAP2 POP POP JUMP JUMPDEST PUSH2 0x2030 DUP2 PUSH2 0x1E3A JUMP JUMPDEST DUP3 MSTORE POP POP JUMP JUMPDEST PUSH1 0x0 PUSH1 0x20 DUP3 ADD SWAP1 POP PUSH2 0x204B PUSH1 0x0 DUP4 ADD DUP5 PUSH2 0x2027 JUMP JUMPDEST SWAP3 SWAP2 POP POP JUMP JUMPDEST PUSH1 0x0 DUP1 PUSH1 0x40 DUP4 DUP6 SUB SLT ISZERO PUSH2 0x2068 JUMPI PUSH2 0x2067 PUSH2 0x1E15 JUMP JUMPDEST JUMPDEST PUSH1 0x0 PUSH2 0x2076 DUP6 DUP3 DUP7 ADD PUSH2 0x1E63 JUMP JUMPDEST SWAP3 POP POP PUSH1 0x20 PUSH2 0x2087 DUP6 DUP3 DUP7 ADD PUSH2 0x1EF0 JUMP JUMPDEST SWAP2 POP POP SWAP3 POP SWAP3 SWAP1 POP JUMP JUMPDEST PUSH1 0x0 DUP2 SWAP1 POP SWAP2 SWAP1 POP JUMP JUMPDEST PUSH1 0x0 PUSH2 0x20B6 PUSH2 0x20B1 PUSH2 0x20AC DUP5 PUSH2 0x1E1A JUMP JUMPDEST PUSH2 0x2091 JUMP JUMPDEST PUSH2 0x1E1A JUMP JUMPDEST SWAP1 POP SWAP2 SWAP1 POP JUMP JUMPDEST PUSH1 0x0 PUSH2 0x20C8 DUP3 PUSH2 0x209B JUMP JUMPDEST SWAP1 POP SWAP2 SWAP1 POP JUMP JUMPDEST PUSH1 0x0 PUSH2 0x20DA DUP3 PUSH2 0x20BD JUMP JUMPDEST SWAP1 POP SWAP2 SWAP1 POP JUMP JUMPDEST PUSH2 0x20EA DUP2 PUSH2 0x20CF JUMP JUMPDEST DUP3 MSTORE POP POP JUMP JUMPDEST PUSH1 0x0 PUSH1 0x20 DUP3 ADD SWAP1 POP PUSH2 0x2105 PUSH1 0x0 DUP4 ADD DUP5 PUSH2 0x20E1 JUMP JUMPDEST SWAP3 SWAP2 POP POP JUMP JUMPDEST PUSH1 0x0 DUP1 PUSH1 0x40 DUP4 DUP6 SUB SLT ISZERO PUSH2 0x2122 JUMPI PUSH2 0x2121 PUSH2 0x1E15 JUMP JUMPDEST JUMPDEST PUSH1 0x0 PUSH2 0x2130 DUP6 DUP3 DUP7 ADD PUSH2 0x1EF0 JUMP JUMPDEST SWAP3 POP POP PUSH1 0x20 PUSH2 0x2141 DUP6 DUP3 DUP7 ADD PUSH2 0x1EF0 JUMP JUMPDEST SWAP2 POP POP SWAP3 POP SWAP3 SWAP1 POP JUMP JUMPDEST PUSH1 0x0 DUP3 DUP3 MSTORE PUSH1 0x20 DUP3 ADD SWAP1 POP SWAP3 SWAP2 POP POP JUMP JUMPDEST PUSH32 0x41646D696E61626C653A2063616C6C6572206973206E6F7420746865206F776E PUSH1 0x0 DUP3 ADD MSTORE PUSH32 0x6572000000000000000000000000000000000000000000000000000000000000 PUSH1 0x20 DUP3 ADD MSTORE POP JUMP JUMPDEST PUSH1 0x0 PUSH2 0x21B8 PUSH1 0x22 DUP4 PUSH2 0x214B JUMP JUMPDEST SWAP2 POP PUSH2 0x21C3 DUP3 PUSH2 0x215C JUMP JUMPDEST PUSH1 0x40 DUP3 ADD SWAP1 POP SWAP2 SWAP1 POP JUMP JUMPDEST PUSH1 0x0 PUSH1 0x20 DUP3 ADD SWAP1 POP DUP2 DUP2 SUB PUSH1 0x0 DUP4 ADD MSTORE PUSH2 0x21E7 DUP2 PUSH2 0x21AB JUMP JUMPDEST SWAP1 POP SWAP2 SWAP1 POP JUMP JUMPDEST PUSH1 0x0 PUSH1 0x40 DUP3 ADD SWAP1 POP PUSH2 0x2203 PUSH1 0x0 DUP4 ADD DUP6 PUSH2 0x1FD0 JUMP JUMPDEST PUSH2 0x2210 PUSH1 0x20 DUP4 ADD DUP5 PUSH2 0x1FD0 JUMP JUMPDEST SWAP4 SWAP3 POP POP POP JUMP JUMPDEST PUSH32 0x5265656E7472616E637947756172643A207265656E7472616E742063616C6C00 PUSH1 0x0 DUP3 ADD MSTORE POP JUMP JUMPDEST PUSH1 0x0 PUSH2 0x224D PUSH1 0x1F DUP4 PUSH2 0x214B JUMP JUMPDEST SWAP2 POP PUSH2 0x2258 DUP3 PUSH2 0x2217 JUMP JUMPDEST PUSH1 0x20 DUP3 ADD SWAP1 POP SWAP2 SWAP1 POP JUMP JUMPDEST PUSH1 0x0 PUSH1 0x20 DUP3 ADD SWAP1 POP DUP2 DUP2 SUB PUSH1 0x0 DUP4 ADD MSTORE PUSH2 0x227C DUP2 PUSH2 0x2240 JUMP JUMPDEST SWAP1 POP SWAP2 SWAP1 POP JUMP JUMPDEST PUSH32 0x4E487B7100000000000000000000000000000000000000000000000000000000 PUSH1 0x0 MSTORE PUSH1 0x11 PUSH1 0x4 MSTORE PUSH1 0x24 PUSH1 0x0 REVERT JUMPDEST PUSH1 0x0 PUSH2 0x22BD DUP3 PUSH2 0x1EA5 JUMP JUMPDEST SWAP2 POP PUSH2 0x22C8 DUP4 PUSH2 0x1EA5 JUMP JUMPDEST SWAP3 POP DUP3 DUP3 ADD SWAP1 POP DUP1 DUP3 GT ISZERO PUSH2 0x22E0 JUMPI PUSH2 0x22DF PUSH2 0x2283 JUMP JUMPDEST JUMPDEST SWAP3 SWAP2 POP POP JUMP JUMPDEST PUSH1 0x0 PUSH1 0x40 DUP3 ADD SWAP1 POP PUSH2 0x22FB PUSH1 0x0 DUP4 ADD DUP6 PUSH2 0x2027 JUMP JUMPDEST PUSH2 0x2308 PUSH1 0x20 DUP4 ADD DUP5 PUSH2 0x1EAF JUMP JUMPDEST SWAP4 SWAP3 POP POP POP JUMP JUMPDEST PUSH1 0x0 DUP2 MLOAD SWAP1 POP PUSH2 0x231E DUP2 PUSH2 0x1F64 JUMP JUMPDEST SWAP3 SWAP2 POP POP JUMP JUMPDEST PUSH1 0x0 PUSH1 0x20 DUP3 DUP5 SUB SLT ISZERO PUSH2 0x233A JUMPI PUSH2 0x2339 PUSH2 0x1E15 JUMP JUMPDEST JUMPDEST PUSH1 0x0 PUSH2 0x2348 DUP5 DUP3 DUP6 ADD PUSH2 0x230F JUMP JUMPDEST SWAP2 POP POP SWAP3 SWAP2 POP POP JUMP JUMPDEST PUSH32 0x41646D696E61626C653A2063616C6C6572206973206E6F74207468652061646D PUSH1 0x0 DUP3 ADD MSTORE PUSH32 0x696E000000000000000000000000000000000000000000000000000000000000 PUSH1 0x20 DUP3 ADD MSTORE POP JUMP JUMPDEST PUSH1 0x0 PUSH2 0x23AD PUSH1 0x22 DUP4 PUSH2 0x214B JUMP JUMPDEST SWAP2 POP PUSH2 0x23B8 DUP3 PUSH2 0x2351 JUMP JUMPDEST PUSH1 0x40 DUP3 ADD SWAP1 POP SWAP2 SWAP1 POP JUMP JUMPDEST PUSH1 0x0 PUSH1 0x20 DUP3 ADD SWAP1 POP DUP2 DUP2 SUB PUSH1 0x0 DUP4 ADD MSTORE PUSH2 0x23DC DUP2 PUSH2 0x23A0 JUMP JUMPDEST SWAP1 POP SWAP2 SWAP1 POP JUMP JUMPDEST PUSH1 0x0 PUSH2 0x23EE DUP3 PUSH2 0x1EA5 JUMP JUMPDEST SWAP2 POP PUSH2 0x23F9 DUP4 PUSH2 0x1EA5 JUMP JUMPDEST SWAP3 POP DUP3 DUP3 SUB SWAP1 POP DUP2 DUP2 GT ISZERO PUSH2 0x2411 JUMPI PUSH2 0x2410 PUSH2 0x2283 JUMP JUMPDEST JUMPDEST SWAP3 SWAP2 POP POP JUMP JUMPDEST PUSH32 0x4E487B7100000000000000000000000000000000000000000000000000000000 PUSH1 0x0 MSTORE PUSH1 0x12 PUSH1 0x4 MSTORE PUSH1 0x24 PUSH1 0x0 REVERT JUMPDEST PUSH1 0x0 PUSH2 0x2451 DUP3 PUSH2 0x1EA5 JUMP JUMPDEST SWAP2 POP PUSH2 0x245C DUP4 PUSH2 0x1EA5 JUMP JUMPDEST SWAP3 POP DUP3 PUSH2 0x246C JUMPI PUSH2 0x246B PUSH2 0x2417 JUMP JUMPDEST JUMPDEST DUP3 DUP3 DIV SWAP1 POP SWAP3 SWAP2 POP POP JUMP JUMPDEST PUSH1 0x0 PUSH2 0x2482 DUP3 PUSH2 0x1EA5 JUMP JUMPDEST SWAP2 POP PUSH2 0x248D DUP4 PUSH2 0x1EA5 JUMP JUMPDEST SWAP3 POP DUP2 PUSH32 0xFFFFFFFFFFFFFFFFFFFFFFFFFFFFFFFFFFFFFFFFFFFFFFFFFFFFFFFFFFFFFFFF DIV DUP4 GT DUP3 ISZERO ISZERO AND ISZERO PUSH2 0x24C6 JUMPI PUSH2 0x24C5 PUSH2 0x2283 JUMP JUMPDEST JUMPDEST DUP3 DUP3 MUL SWAP1 POP SWAP3 SWAP2 POP POP JUMP JUMPDEST PUSH1 0x0 PUSH2 0x24DC DUP3 PUSH2 0x1EA5 JUMP JUMPDEST SWAP2 POP PUSH32 0xFFFFFFFFFFFFFFFFFFFFFFFFFFFFFFFFFFFFFFFFFFFFFFFFFFFFFFFFFFFFFFFF DUP3 SUB PUSH2 0x250E JUMPI PUSH2 0x250D PUSH2 0x2283 JUMP JUMPDEST JUMPDEST PUSH1 0x1 DUP3 ADD SWAP1 POP SWAP2 SWAP1 POP JUMP JUMPDEST PUSH32 0x43616E6E6F74207374616B652030000000000000000000000000000000000000 PUSH1 0x0 DUP3 ADD MSTORE POP JUMP JUMPDEST PUSH1 0x0 PUSH2 0x254F PUSH1 0xE DUP4 PUSH2 0x214B JUMP JUMPDEST SWAP2 POP PUSH2 0x255A DUP3 PUSH2 0x2519 JUMP JUMPDEST PUSH1 0x20 DUP3 ADD SWAP1 POP SWAP2 SWAP1 POP JUMP JUMPDEST PUSH1 0x0 PUSH1 0x20 DUP3 ADD SWAP1 POP DUP2 DUP2 SUB PUSH1 0x0 DUP4 ADD MSTORE PUSH2 0x257E DUP2 PUSH2 0x2542 JUMP JUMPDEST SWAP1 POP SWAP2 SWAP1 POP JUMP JUMPDEST PUSH1 0x0 PUSH2 0x2590 DUP3 PUSH2 0x1EA5 JUMP JUMPDEST SWAP2 POP PUSH2 0x259B DUP4 PUSH2 0x1EA5 JUMP JUMPDEST SWAP3 POP DUP3 PUSH2 0x25AB JUMPI PUSH2 0x25AA PUSH2 0x2417 JUMP JUMPDEST JUMPDEST DUP3 DUP3 MOD SWAP1 POP SWAP3 SWAP2 POP POP JUMP JUMPDEST PUSH32 0x4F776E61626C653A206E6577206F776E657220697320746865207A65726F2061 PUSH1 0x0 DUP3 ADD MSTORE PUSH32 0x6464726573730000000000000000000000000000000000000000000000000000 PUSH1 0x20 DUP3 ADD MSTORE POP JUMP JUMPDEST PUSH1 0x0 PUSH2 0x2612 PUSH1 0x26 DUP4 PUSH2 0x214B JUMP JUMPDEST SWAP2 POP PUSH2 0x261D DUP3 PUSH2 0x25B6 JUMP JUMPDEST PUSH1 0x40 DUP3 ADD SWAP1 POP SWAP2 SWAP1 POP JUMP JUMPDEST PUSH1 0x0 PUSH1 0x20 DUP3 ADD SWAP1 POP DUP2 DUP2 SUB PUSH1 0x0 DUP4 ADD MSTORE PUSH2 0x2641 DUP2 PUSH2 0x2605 JUMP JUMPDEST SWAP1 POP SWAP2 SWAP1 POP JUMP INVALID LOG2 PUSH5 0x6970667358 0x22 SLT KECCAK256 PUSH19 0x6443D553B810291BA57E2D2E1B46D66D134C0D PUSH11 0xF4F9ACF5B5F6A7EE30C7D9 PUSH5 0x736F6C6343 STOP ADDMOD LT STOP CALLER "
				},
				"gasEstimates": {
					"creation": {
						"codeDepositCost": "1970800",
						"executionCost": "infinite",
						"totalCost": "infinite"
					},
					"external": {
						"claimedBalances(address)": "2858",
						"curTime()": "425",
						"earned(address)": "infinite",
						"emergencyWithdraw()": "infinite",
						"emergencyWithdrawToken(address,uint256)": "infinite",
						"getCurRewardPool()": "infinite",
						"getCurRewardRate()": "infinite",
						"getRemainPool(uint256)": "infinite",
						"getReward()": "infinite",
						"getRewardPool(uint256)": "infinite",
						"getTimeWeightedAveRate(uint256,uint256)": "infinite",
						"isAdmin(address)": "2951",
						"lastTimeRewardApplicable()": "447",
						"lastUpdateTime()": "2496",
						"modificationAdmin(address,bool)": "infinite",
						"owner()": "2634",
						"powersOf(address)": "2886",
						"rateInterval()": "2519",
						"rateIntervalDenominator()": "2518",
						"rateIntervalNumerator()": "2519",
						"renounceOwnership()": "30419",
						"rewardPerToken(uint256)": "infinite",
						"rewardPerTokenStored()": "2539",
						"rewards(address)": "2883",
						"rewardsToken()": "infinite",
						"setConfig(uint256,uint256,uint256)": "infinite",
						"setRewardToken(address)": "27030",
						"setStartTime(uint256)": "47088",
						"setTotalRewards(uint256)": "24805",
						"stake(address,uint256)": "infinite",
						"startTime()": "2496",
						"totalPowers()": "2549",
						"totalRewards()": "2520",
						"transferOwnership(address)": "30852",
						"userLastUpdateTime(address)": "2947",
						"userRewardPerTokenPaid(address)": "2904"
					},
					"internal": {
						"_getRemainPool(uint256)": "infinite",
						"_getRewardRate(uint256)": "infinite"
					}
				},
				"methodIdentifiers": {
					"claimedBalances(address)": "d42b779d",
					"curTime()": "9a5b17b0",
					"earned(address)": "008cc262",
					"emergencyWithdraw()": "db2e21bc",
					"emergencyWithdrawToken(address,uint256)": "a4c3b091",
					"getCurRewardPool()": "9499c549",
					"getCurRewardRate()": "cdda56e0",
					"getRemainPool(uint256)": "4dbdc4eb",
					"getReward()": "3d18b912",
					"getRewardPool(uint256)": "5cfa91f4",
					"getTimeWeightedAveRate(uint256,uint256)": "da4f8431",
					"isAdmin(address)": "24d7806c",
					"lastTimeRewardApplicable()": "80faa57d",
					"lastUpdateTime()": "c8f33c91",
					"modificationAdmin(address,bool)": "18e20ecf",
					"owner()": "8da5cb5b",
					"powersOf(address)": "b79ec812",
					"rateInterval()": "6139d4b4",
					"rateIntervalDenominator()": "7a6fcee7",
					"rateIntervalNumerator()": "3c4045cf",
					"renounceOwnership()": "715018a6",
					"rewardPerToken(uint256)": "874c120b",
					"rewardPerTokenStored()": "df136d65",
					"rewards(address)": "0700037d",
					"rewardsToken()": "d1af0c7d",
					"setConfig(uint256,uint256,uint256)": "129ee21a",
					"setRewardToken(address)": "8aee8127",
					"setStartTime(uint256)": "3e0a322d",
					"setTotalRewards(uint256)": "92735675",
					"stake(address,uint256)": "adc9772e",
					"startTime()": "78e97925",
					"totalPowers()": "6917c501",
					"totalRewards()": "0e15561a",
					"transferOwnership(address)": "f2fde38b",
					"userLastUpdateTime(address)": "8107368b",
					"userRewardPerTokenPaid(address)": "8b876347"
				}
			},
			"storageLayout": {
				"storage": [
					{
						"astId": 26,
						"contract": "inviter_presell/stake.sol:StakingRewards",
						"label": "_admins",
						"offset": 0,
						"slot": "0",
						"type": "t_mapping(t_address,t_bool)"
					},
					{
						"astId": 28,
						"contract": "inviter_presell/stake.sol:StakingRewards",
						"label": "_owner",
						"offset": 0,
						"slot": "1",
						"type": "t_address"
					},
					{
						"astId": 1039,
						"contract": "inviter_presell/stake.sol:StakingRewards",
						"label": "_status",
						"offset": 0,
						"slot": "2",
						"type": "t_uint256"
					},
					{
						"astId": 192,
						"contract": "inviter_presell/stake.sol:StakingRewards",
						"label": "rewardsToken",
						"offset": 0,
						"slot": "3",
						"type": "t_contract(IERC20)1146"
					},
					{
						"astId": 196,
						"contract": "inviter_presell/stake.sol:StakingRewards",
						"label": "rewards",
						"offset": 0,
						"slot": "4",
						"type": "t_mapping(t_address,t_uint256)"
					},
					{
						"astId": 203,
						"contract": "inviter_presell/stake.sol:StakingRewards",
						"label": "totalRewards",
						"offset": 0,
						"slot": "5",
						"type": "t_uint256"
					},
					{
						"astId": 205,
						"contract": "inviter_presell/stake.sol:StakingRewards",
						"label": "startTime",
						"offset": 0,
						"slot": "6",
						"type": "t_uint256"
					},
					{
						"astId": 208,
						"contract": "inviter_presell/stake.sol:StakingRewards",
						"label": "rateInterval",
						"offset": 0,
						"slot": "7",
						"type": "t_uint256"
					},
					{
						"astId": 211,
						"contract": "inviter_presell/stake.sol:StakingRewards",
						"label": "rateIntervalNumerator",
						"offset": 0,
						"slot": "8",
						"type": "t_uint256"
					},
					{
						"astId": 214,
						"contract": "inviter_presell/stake.sol:StakingRewards",
						"label": "rateIntervalDenominator",
						"offset": 0,
						"slot": "9",
						"type": "t_uint256"
					},
					{
						"astId": 216,
						"contract": "inviter_presell/stake.sol:StakingRewards",
						"label": "lastUpdateTime",
						"offset": 0,
						"slot": "10",
						"type": "t_uint256"
					},
					{
						"astId": 218,
						"contract": "inviter_presell/stake.sol:StakingRewards",
						"label": "rewardPerTokenStored",
						"offset": 0,
						"slot": "11",
						"type": "t_uint256"
					},
					{
						"astId": 220,
						"contract": "inviter_presell/stake.sol:StakingRewards",
						"label": "_totalPowers",
						"offset": 0,
						"slot": "12",
						"type": "t_uint256"
					},
					{
						"astId": 224,
						"contract": "inviter_presell/stake.sol:StakingRewards",
						"label": "userRewardPerTokenPaid",
						"offset": 0,
						"slot": "13",
						"type": "t_mapping(t_address,t_uint256)"
					},
					{
						"astId": 228,
						"contract": "inviter_presell/stake.sol:StakingRewards",
						"label": "userLastUpdateTime",
						"offset": 0,
						"slot": "14",
						"type": "t_mapping(t_address,t_uint256)"
					},
					{
						"astId": 232,
						"contract": "inviter_presell/stake.sol:StakingRewards",
						"label": "_balances",
						"offset": 0,
						"slot": "15",
						"type": "t_mapping(t_address,t_uint256)"
					},
					{
						"astId": 236,
						"contract": "inviter_presell/stake.sol:StakingRewards",
						"label": "claimedBalances",
						"offset": 0,
						"slot": "16",
						"type": "t_mapping(t_address,t_uint256)"
					}
				],
				"types": {
					"t_address": {
						"encoding": "inplace",
						"label": "address",
						"numberOfBytes": "20"
					},
					"t_bool": {
						"encoding": "inplace",
						"label": "bool",
						"numberOfBytes": "1"
					},
					"t_contract(IERC20)1146": {
						"encoding": "inplace",
						"label": "contract IERC20",
						"numberOfBytes": "20"
					},
					"t_mapping(t_address,t_bool)": {
						"encoding": "mapping",
						"key": "t_address",
						"label": "mapping(address => bool)",
						"numberOfBytes": "32",
						"value": "t_bool"
					},
					"t_mapping(t_address,t_uint256)": {
						"encoding": "mapping",
						"key": "t_address",
						"label": "mapping(address => uint256)",
						"numberOfBytes": "32",
						"value": "t_uint256"
					},
					"t_uint256": {
						"encoding": "inplace",
						"label": "uint256",
						"numberOfBytes": "32"
					}
				}
			},
			"userdoc": {
				"kind": "user",
				"methods": {},
				"version": 1
			}
		}
	}
}