{
	"inviter_presell/token.sol": {
		"Bee": {
			"abi": [
				{
					"inputs": [],
					"stateMutability": "nonpayable",
					"type": "constructor"
				},
				{
					"anonymous": false,
					"inputs": [
						{
							"indexed": true,
							"internalType": "address",
							"name": "owner",
							"type": "address"
						},
						{
							"indexed": true,
							"internalType": "address",
							"name": "spender",
							"type": "address"
						},
						{
							"indexed": false,
							"internalType": "uint256",
							"name": "value",
							"type": "uint256"
						}
					],
					"name": "Approval",
					"type": "event"
				},
				{
					"anonymous": false,
					"inputs": [
						{
							"indexed": true,
							"internalType": "address",
							"name": "previousOwner",
							"type": "address"
						},
						{
							"indexed": true,
							"internalType": "address",
							"name": "newOwner",
							"type": "address"
						}
					],
					"name": "OwnershipTransferred",
					"type": "event"
				},
				{
					"anonymous": false,
					"inputs": [
						{
							"indexed": true,
							"internalType": "address",
							"name": "from",
							"type": "address"
						},
						{
							"indexed": true,
							"internalType": "address",
							"name": "to",
							"type": "address"
						},
						{
							"indexed": false,
							"internalType": "uint256",
							"name": "value",
							"type": "uint256"
						}
					],
					"name": "Transfer",
					"type": "event"
				},
				{
					"inputs": [
						{
							"internalType": "address",
							"name": "",
							"type": "address"
						}
					],
					"name": "DEXs",
					"outputs": [
						{
							"internalType": "bool",
							"name": "",
							"type": "bool"
						}
					],
					"stateMutability": "view",
					"type": "function"
				},
				{
					"inputs": [
						{
							"internalType": "address",
							"name": "_pair",
							"type": "address"
						}
					],
					"name": "addDex",
					"outputs": [],
					"stateMutability": "nonpayable",
					"type": "function"
				},
				{
					"inputs": [
						{
							"internalType": "address",
							"name": "owner",
							"type": "address"
						},
						{
							"internalType": "address",
							"name": "spender",
							"type": "address"
						}
					],
					"name": "allowance",
					"outputs": [
						{
							"internalType": "uint256",
							"name": "",
							"type": "uint256"
						}
					],
					"stateMutability": "view",
					"type": "function"
				},
				{
					"inputs": [
						{
							"internalType": "address",
							"name": "spender",
							"type": "address"
						},
						{
							"internalType": "uint256",
							"name": "amount",
							"type": "uint256"
						}
					],
					"name": "approve",
					"outputs": [
						{
							"internalType": "bool",
							"name": "",
							"type": "bool"
						}
					],
					"stateMutability": "nonpayable",
					"type": "function"
				},
				{
					"inputs": [
						{
							"internalType": "address",
							"name": "account",
							"type": "address"
						}
					],
					"name": "balanceOf",
					"outputs": [
						{
							"internalType": "uint256",
							"name": "",
							"type": "uint256"
						}
					],
					"stateMutability": "view",
					"type": "function"
				},
				{
					"inputs": [
						{
							"internalType": "uint256",
							"name": "amount",
							"type": "uint256"
						}
					],
					"name": "burn",
					"outputs": [],
					"stateMutability": "nonpayable",
					"type": "function"
				},
				{
					"inputs": [],
					"name": "decimals",
					"outputs": [
						{
							"internalType": "uint8",
							"name": "",
							"type": "uint8"
						}
					],
					"stateMutability": "view",
					"type": "function"
				},
				{
					"inputs": [
						{
							"internalType": "address",
							"name": "spender",
							"type": "address"
						},
						{
							"internalType": "uint256",
							"name": "subtractedValue",
							"type": "uint256"
						}
					],
					"name": "decreaseAllowance",
					"outputs": [
						{
							"internalType": "bool",
							"name": "",
							"type": "bool"
						}
					],
					"stateMutability": "nonpayable",
					"type": "function"
				},
				{
					"inputs": [
						{
							"internalType": "address",
							"name": "_lp",
							"type": "address"
						}
					],
					"name": "deliver",
					"outputs": [],
					"stateMutability": "nonpayable",
					"type": "function"
				},
				{
					"inputs": [],
					"name": "emergencyWithdraw",
					"outputs": [],
					"stateMutability": "nonpayable",
					"type": "function"
				},
				{
					"inputs": [
						{
							"internalType": "address",
							"name": "token",
							"type": "address"
						},
						{
							"internalType": "uint256",
							"name": "amount",
							"type": "uint256"
						}
					],
					"name": "emergencyWithdrawToken",
					"outputs": [],
					"stateMutability": "nonpayable",
					"type": "function"
				},
				{
					"inputs": [
						{
							"internalType": "address",
							"name": "spender",
							"type": "address"
						},
						{
							"internalType": "uint256",
							"name": "addedValue",
							"type": "uint256"
						}
					],
					"name": "increaseAllowance",
					"outputs": [
						{
							"internalType": "bool",
							"name": "",
							"type": "bool"
						}
					],
					"stateMutability": "nonpayable",
					"type": "function"
				},
				{
					"inputs": [],
					"name": "marketAddress",
					"outputs": [
						{
							"internalType": "address",
							"name": "",
							"type": "address"
						}
					],
					"stateMutability": "view",
					"type": "function"
				},
				{
					"inputs": [],
					"name": "name",
					"outputs": [
						{
							"internalType": "string",
							"name": "",
							"type": "string"
						}
					],
					"stateMutability": "view",
					"type": "function"
				},
				{
					"inputs": [],
					"name": "owner",
					"outputs": [
						{
							"internalType": "address",
							"name": "",
							"type": "address"
						}
					],
					"stateMutability": "view",
					"type": "function"
				},
				{
					"inputs": [],
					"name": "renounceOwnership",
					"outputs": [],
					"stateMutability": "nonpayable",
					"type": "function"
				},
				{
					"inputs": [
						{
							"internalType": "address",
							"name": "addr",
							"type": "address"
						}
					],
					"name": "setExcludeds",
					"outputs": [],
					"stateMutability": "nonpayable",
					"type": "function"
				},
				{
					"inputs": [
						{
							"internalType": "address",
							"name": "addr",
							"type": "address"
						}
					],
					"name": "setMarketAddress",
					"outputs": [],
					"stateMutability": "nonpayable",
					"type": "function"
				},
				{
					"inputs": [],
					"name": "symbol",
					"outputs": [
						{
							"internalType": "string",
							"name": "",
							"type": "string"
						}
					],
					"stateMutability": "view",
					"type": "function"
				},
				{
					"inputs": [],
					"name": "totalSupply",
					"outputs": [
						{
							"internalType": "uint256",
							"name": "",
							"type": "uint256"
						}
					],
					"stateMutability": "view",
					"type": "function"
				},
				{
					"inputs": [
						{
							"internalType": "address",
							"name": "recipient",
							"type": "address"
						},
						{
							"internalType": "uint256",
							"name": "amount",
							"type": "uint256"
						}
					],
					"name": "transfer",
					"outputs": [
						{
							"internalType": "bool",
							"name": "",
							"type": "bool"
						}
					],
					"stateMutability": "nonpayable",
					"type": "function"
				},
				{
					"inputs": [
						{
							"internalType": "address",
							"name": "sender",
							"type": "address"
						},
						{
							"internalType": "address",
							"name": "recipient",
							"type": "address"
						},
						{
							"internalType": "uint256",
							"name": "amount",
							"type": "uint256"
						}
					],
					"name": "transferFrom",
					"outputs": [
						{
							"internalType": "bool",
							"name": "",
							"type": "bool"
						}
					],
					"stateMutability": "nonpayable",
					"type": "function"
				},
				{
					"inputs": [
						{
							"internalType": "address",
							"name": "newOwner",
							"type": "address"
						}
					],
					"name": "transferOwnership",
					"outputs": [],
					"stateMutability": "nonpayable",
					"type": "function"
				},
				{
					"inputs": [],
					"name": "uniswapUsdtV2Pair",
					"outputs": [
						{
							"internalType": "address",
							"name": "",
							"type": "address"
						}
					],
					"stateMutability": "view",
					"type": "function"
				},
				{
					"inputs": [],
					"name": "uniswapV2Pair",
					"outputs": [
						{
							"internalType": "address",
							"name": "",
							"type": "address"
						}
					],
					"stateMutability": "view",
					"type": "function"
				},
				{
					"inputs": [],
					"name": "uniswapV2Router",
					"outputs": [
						{
							"internalType": "contract IPancakeSwapV2Router02",
							"name": "",
							"type": "address"
						}
					],
					"stateMutability": "view",
					"type": "function"
				},
				{
					"inputs": [],
					"name": "usdtMintAddress",
					"outputs": [
						{
							"internalType": "address",
							"name": "",
							"type": "address"
						}
					],
					"stateMutability": "view",
					"type": "function"
				},
				{
					"stateMutability": "payable",
					"type": "receive"
				}
			],
			"devdoc": {
				"kind": "dev",
				"methods": {
					"allowance(address,address)": {
						"details": "Returns the remaining number of tokens that `spender` will be allowed to spend on behalf of `owner` through {transferFrom}. This is zero by default. This value changes when {approve} or {transferFrom} are called."
					},
					"approve(address,uint256)": {
						"details": "Sets `amount` as the allowance of `spender` over the caller's tokens. Returns a boolean value indicating whether the operation succeeded. IMPORTANT: Beware that changing an allowance with this method brings the risk that someone may use both the old and the new allowance by unfortunate transaction ordering. One possible solution to mitigate this race condition is to first reduce the spender's allowance to 0 and set the desired value afterwards: https://github.com/ethereum/EIPs/issues/20#issuecomment-263524729 Emits an {Approval} event."
					},
					"balanceOf(address)": {
						"details": "Returns the amount of tokens owned by `account`."
					},
					"owner()": {
						"details": "Returns the address of the current owner."
					},
					"renounceOwnership()": {
						"details": "Leaves the contract without owner. It will not be possible to call `onlyOwner` functions anymore. Can only be called by the current owner. NOTE: Renouncing ownership will leave the contract without an owner, thereby removing any functionality that is only available to the owner."
					},
					"totalSupply()": {
						"details": "Returns the amount of tokens in existence."
					},
					"transfer(address,uint256)": {
						"details": "Moves `amount` tokens from the caller's account to `recipient`. Returns a boolean value indicating whether the operation succeeded. Emits a {Transfer} event."
					},
					"transferFrom(address,address,uint256)": {
						"details": "Moves `amount` tokens from `sender` to `recipient` using the allowance mechanism. `amount` is then deducted from the caller's allowance. Returns a boolean value indicating whether the operation succeeded. Emits a {Transfer} event."
					},
					"transferOwnership(address)": {
						"details": "Transfers ownership of the contract to a new account (`newOwner`). Can only be called by the current owner."
					}
				},
				"version": 1
			},
			"evm": {
				"assembly": "    /* \"inviter_presell/token.sol\":13313:20339  contract Bee is Context1, IERC20, IERC20Metadata, Ownable{... */\n  mstore(0x40, 0xe0)\n    /* \"inviter_presell/token.sol\":13912:13987  address public usdtMintAddress = 0x55d398326f99059fF775485246999027B3197955 */\n  0x08\n  dup1\n  sload\n  not(sub(shl(0xa0, 0x01), 0x01))\n  swap1\n  dup2\n  and\n    /* \"inviter_presell/token.sol\":13945:13987  0x55d398326f99059fF775485246999027B3197955 */\n  0x55d398326f99059ff775485246999027b3197955\n    /* \"inviter_presell/token.sol\":13912:13987  address public usdtMintAddress = 0x55d398326f99059fF775485246999027B3197955 */\n  or\n  swap1\n  swap2\n  sstore\n    /* \"inviter_presell/token.sol\":13994:14067  address public marketAddress = 0xcBB44600F5828A15cF130Abb73Ce5E85ac49D08F */\n  0x09\n  dup1\n  sload\n  swap1\n  swap2\n  and\n    /* \"inviter_presell/token.sol\":14025:14067  0xcBB44600F5828A15cF130Abb73Ce5E85ac49D08F */\n  0xcbb44600f5828a15cf130abb73ce5e85ac49d08f\n    /* \"inviter_presell/token.sol\":13994:14067  address public marketAddress = 0xcBB44600F5828A15cF130Abb73Ce5E85ac49D08F */\n  or\n  swap1\n  sstore\n    /* \"inviter_presell/token.sol\":14080:14962  constructor () {... */\n  callvalue\n  dup1\n  iszero\n  tag_1\n  jumpi\n  0x00\n  dup1\n  revert\ntag_1:\n  pop\n    /* \"inviter_presell/token.sol\":1131:1163  _transferOwnership(_msgSender()) */\n  tag_5\n    /* \"inviter_presell/token.sol\":693:703  msg.sender */\n  caller\n    /* \"inviter_presell/token.sol\":1131:1149  _transferOwnership */\n  tag_8\n    /* \"inviter_presell/token.sol\":1131:1163  _transferOwnership(_msgSender()) */\n  jump\t// in\ntag_5:\n    /* \"inviter_presell/token.sol\":14106:14142  _mint(_msgSender(), 10240000 * 1e18) */\n  tag_10\n    /* \"inviter_presell/token.sol\":693:703  msg.sender */\n  caller\n    /* \"inviter_presell/token.sol\":14126:14141  10240000 * 1e18 */\n  0x0878678326eac900000000\n    /* \"inviter_presell/token.sol\":14106:14111  _mint */\n  tag_12\n    /* \"inviter_presell/token.sol\":14106:14142  _mint(_msgSender(), 10240000 * 1e18) */\n  jump\t// in\ntag_10:\n    /* \"inviter_presell/token.sol\":14158:14209  Transfer(address(0), _msgSender(), 10240000 * 1e18) */\n  mload(0x40)\n    /* \"inviter_presell/token.sol\":14193:14208  10240000 * 1e18 */\n  0x0878678326eac900000000\n    /* \"#utility.yul\":193:218   */\n  dup2\n  mstore\n    /* \"inviter_presell/token.sol\":693:703  msg.sender */\n  caller\n  swap1\n    /* \"inviter_presell/token.sol\":14175:14176  0 */\n  0x00\n  swap1\n  0x00\n  dup1\n  mload\n  0x20\n  data_ada389e1fc24a8587c776340efb91b36e675792ab631816100d55df0b5cf3cbc\n  dup4\n  codecopy\n  dup2\n  mload\n  swap2\n  mstore\n    /* \"inviter_presell/token.sol\":14158:14209  Transfer(address(0), _msgSender(), 10240000 * 1e18) */\n  swap1\n    /* \"#utility.yul\":181:183   */\n  0x20\n    /* \"#utility.yul\":166:184   */\n  add\n    /* \"inviter_presell/token.sol\":14158:14209  Transfer(address(0), _msgSender(), 10240000 * 1e18) */\n  mload(0x40)\n  dup1\n  swap2\n  sub\n  swap1\n  log3\n    /* \"inviter_presell/token.sol\":14423:14462  IPancakeSwapV2Router02 _uniswapV2Router */\n  0x00\n    /* \"inviter_presell/token.sol\":14488:14530  0x10ED43C718714eb63d5aA57B78B54704E256024E */\n  0x10ed43c718714eb63d5aa57b78b54704e256024e\n    /* \"inviter_presell/token.sol\":14423:14531  IPancakeSwapV2Router02 _uniswapV2Router = IPancakeSwapV2Router02(0x10ED43C718714eb63d5aA57B78B54704E256024E) */\n  swap1\n  pop\n    /* \"inviter_presell/token.sol\":14580:14596  _uniswapV2Router */\n  dup1\n  sub(shl(0xa0, 0x01), 0x01)\n    /* \"inviter_presell/token.sol\":14580:14604  _uniswapV2Router.factory */\n  and\n  0xc45a0155\n    /* \"inviter_presell/token.sol\":14580:14606  _uniswapV2Router.factory() */\n  mload(0x40)\n  dup2\n  0xffffffff\n  and\n  0xe0\n  shl\n  dup2\n  mstore\n  0x04\n  add\n  0x20\n  mload(0x40)\n  dup1\n  dup4\n  sub\n  dup2\n  dup7\n  gas\n  staticcall\n  iszero\n  dup1\n  iszero\n  tag_17\n  jumpi\n  returndatasize\n  0x00\n  dup1\n  returndatacopy\n  revert(0x00, returndatasize)\ntag_17:\n  pop\n  pop\n  pop\n  pop\n  mload(0x40)\n  returndatasize\n  not(0x1f)\n  0x1f\n  dup3\n  add\n  and\n  dup3\n  add\n  dup1\n  0x40\n  mstore\n  pop\n  dup2\n  add\n  swap1\n  tag_18\n  swap2\n  swap1\n  tag_19\n  jump\t// in\ntag_18:\n  sub(shl(0xa0, 0x01), 0x01)\n    /* \"inviter_presell/token.sol\":14558:14632  IPancakeSwapV2Factory(_uniswapV2Router.factory())... */\n  and\n  0xc9c65396\n    /* \"inviter_presell/token.sol\":14641:14645  this */\n  address\n    /* \"inviter_presell/token.sol\":14648:14664  _uniswapV2Router */\n  dup4\n  sub(shl(0xa0, 0x01), 0x01)\n    /* \"inviter_presell/token.sol\":14648:14669  _uniswapV2Router.WETH */\n  and\n  0xad5c4648\n    /* \"inviter_presell/token.sol\":14648:14671  _uniswapV2Router.WETH() */\n  mload(0x40)\n  dup2\n  0xffffffff\n  and\n  0xe0\n  shl\n  dup2\n  mstore\n  0x04\n  add\n  0x20\n  mload(0x40)\n  dup1\n  dup4\n  sub\n  dup2\n  dup7\n  gas\n  staticcall\n  iszero\n  dup1\n  iszero\n  tag_21\n  jumpi\n  returndatasize\n  0x00\n  dup1\n  returndatacopy\n  revert(0x00, returndatasize)\ntag_21:\n  pop\n  pop\n  pop\n  pop\n  mload(0x40)\n  returndatasize\n  not(0x1f)\n  0x1f\n  dup3\n  add\n  and\n  dup3\n  add\n  dup1\n  0x40\n  mstore\n  pop\n  dup2\n  add\n  swap1\n  tag_22\n  swap2\n  swap1\n  tag_19\n  jump\t// in\ntag_22:\n    /* \"inviter_presell/token.sol\":14558:14672  IPancakeSwapV2Factory(_uniswapV2Router.factory())... */\n  mload(0x40)\n  not(sub(shl(0xe0, 0x01), 0x01))\n  0xe0\n  dup6\n  swap1\n  shl\n  and\n  dup2\n  mstore\n  sub(shl(0xa0, 0x01), 0x01)\n    /* \"#utility.yul\":754:769   */\n  swap3\n  dup4\n  and\n    /* \"inviter_presell/token.sol\":14558:14672  IPancakeSwapV2Factory(_uniswapV2Router.factory())... */\n  0x04\n  dup3\n  add\n    /* \"#utility.yul\":736:770   */\n  mstore\n    /* \"#utility.yul\":806:821   */\n  swap2\n  and\n    /* \"#utility.yul\":786:804   */\n  0x24\n  dup3\n  add\n    /* \"#utility.yul\":779:822   */\n  mstore\n    /* \"#utility.yul\":671:689   */\n  0x44\n  add\n    /* \"inviter_presell/token.sol\":14558:14672  IPancakeSwapV2Factory(_uniswapV2Router.factory())... */\n  0x20\n  mload(0x40)\n  dup1\n  dup4\n  sub\n  dup2\n  0x00\n  dup8\n  gas\n  call\n  iszero\n  dup1\n  iszero\n  tag_26\n  jumpi\n  returndatasize\n  0x00\n  dup1\n  returndatacopy\n  revert(0x00, returndatasize)\ntag_26:\n  pop\n  pop\n  pop\n  pop\n  mload(0x40)\n  returndatasize\n  not(0x1f)\n  0x1f\n  dup3\n  add\n  and\n  dup3\n  add\n  dup1\n  0x40\n  mstore\n  pop\n  dup2\n  add\n  swap1\n  tag_27\n  swap2\n  swap1\n  tag_19\n  jump\t// in\ntag_27:\n  sub(shl(0xa0, 0x01), 0x01)\n    /* \"inviter_presell/token.sol\":14542:14672  uniswapV2Pair = IPancakeSwapV2Factory(_uniswapV2Router.factory())... */\n  and\n  0xa0\n  dup2\n  sub(shl(0xa0, 0x01), 0x01)\n  and\n  dup2\n  mstore\n  pop\n  pop\n    /* \"inviter_presell/token.sol\":14727:14743  _uniswapV2Router */\n  dup1\n  sub(shl(0xa0, 0x01), 0x01)\n    /* \"inviter_presell/token.sol\":14727:14751  _uniswapV2Router.factory */\n  and\n  0xc45a0155\n    /* \"inviter_presell/token.sol\":14727:14753  _uniswapV2Router.factory() */\n  mload(0x40)\n  dup2\n  0xffffffff\n  and\n  0xe0\n  shl\n  dup2\n  mstore\n  0x04\n  add\n  0x20\n  mload(0x40)\n  dup1\n  dup4\n  sub\n  dup2\n  dup7\n  gas\n  staticcall\n  iszero\n  dup1\n  iszero\n  tag_29\n  jumpi\n  returndatasize\n  0x00\n  dup1\n  returndatacopy\n  revert(0x00, returndatasize)\ntag_29:\n  pop\n  pop\n  pop\n  pop\n  mload(0x40)\n  returndatasize\n  not(0x1f)\n  0x1f\n  dup3\n  add\n  and\n  dup3\n  add\n  dup1\n  0x40\n  mstore\n  pop\n  dup2\n  add\n  swap1\n  tag_30\n  swap2\n  swap1\n  tag_19\n  jump\t// in\ntag_30:\n    /* \"inviter_presell/token.sol\":14795:14810  usdtMintAddress */\n  sload(0x08)\n    /* \"inviter_presell/token.sol\":14705:14811  IPancakeSwapV2Factory(_uniswapV2Router.factory())... */\n  mload(0x40)\n  shl(0xe1, 0x64e329cb)\n  dup2\n  mstore\n    /* \"inviter_presell/token.sol\":14788:14792  this */\n  address\n    /* \"inviter_presell/token.sol\":14705:14811  IPancakeSwapV2Factory(_uniswapV2Router.factory())... */\n  0x04\n  dup3\n  add\n    /* \"#utility.yul\":736:770   */\n  mstore\n  sub(shl(0xa0, 0x01), 0x01)\n    /* \"inviter_presell/token.sol\":14795:14810  usdtMintAddress */\n  swap2\n  dup3\n  and\n    /* \"#utility.yul\":786:804   */\n  0x24\n  dup3\n  add\n    /* \"#utility.yul\":779:822   */\n  mstore\n    /* \"inviter_presell/token.sol\":14705:14779  IPancakeSwapV2Factory(_uniswapV2Router.factory())... */\n  swap2\n  and\n  swap1\n  0xc9c65396\n  swap1\n    /* \"#utility.yul\":671:689   */\n  0x44\n  add\n    /* \"inviter_presell/token.sol\":14705:14811  IPancakeSwapV2Factory(_uniswapV2Router.factory())... */\n  0x20\n  mload(0x40)\n  dup1\n  dup4\n  sub\n  dup2\n  0x00\n  dup8\n  gas\n  call\n  iszero\n  dup1\n  iszero\n  tag_33\n  jumpi\n  returndatasize\n  0x00\n  dup1\n  returndatacopy\n  revert(0x00, returndatasize)\ntag_33:\n  pop\n  pop\n  pop\n  pop\n  mload(0x40)\n  returndatasize\n  not(0x1f)\n  0x1f\n  dup3\n  add\n  and\n  dup3\n  add\n  dup1\n  0x40\n  mstore\n  pop\n  dup2\n  add\n  swap1\n  tag_34\n  swap2\n  swap1\n  tag_19\n  jump\t// in\ntag_34:\n  sub(shl(0xa0, 0x01), 0x01)\n    /* \"inviter_presell/token.sol\":14685:14811  uniswapUsdtV2Pair = IPancakeSwapV2Factory(_uniswapV2Router.factory())... */\n  swap1\n  dup2\n  and\n  0xc0\n  dup2\n  swap1\n  mstore\n    /* \"inviter_presell/token.sol\":14824:14858  uniswapV2Router = _uniswapV2Router */\n  swap2\n  dup2\n  and\n  0x80\n  mstore\n    /* \"inviter_presell/token.sol\":14882:14895  uniswapV2Pair */\n  mload(0xa0)\n    /* \"inviter_presell/token.sol\":14869:14897  DEXs[address(uniswapV2Pair)] */\n  and\n  0x00\n  swap1\n  dup2\n  mstore\n    /* \"inviter_presell/token.sol\":14869:14873  DEXs */\n  0x07\n    /* \"inviter_presell/token.sol\":14869:14897  DEXs[address(uniswapV2Pair)] */\n  0x20\n  mstore\n  0x40\n  dup1\n  dup3\n  keccak256\n    /* \"inviter_presell/token.sol\":14869:14904  DEXs[address(uniswapV2Pair)] = true */\n  dup1\n  sload\n    /* \"inviter_presell/token.sol\":14900:14904  true */\n  0x01\n  not(0xff)\n    /* \"inviter_presell/token.sol\":14869:14904  DEXs[address(uniswapV2Pair)] = true */\n  swap2\n  dup3\n  and\n  dup2\n  or\n  swap1\n  swap3\n  sstore\n    /* \"inviter_presell/token.sol\":14915:14947  DEXs[address(uniswapUsdtV2Pair)] */\n  swap4\n  dup4\n  mstore\n  swap2\n  keccak256\n    /* \"inviter_presell/token.sol\":14915:14954  DEXs[address(uniswapUsdtV2Pair)] = true */\n  dup1\n  sload\n  swap1\n  swap3\n  and\n  or\n  swap1\n  sstore\n    /* \"inviter_presell/token.sol\":13313:20339  contract Bee is Context1, IERC20, IERC20Metadata, Ownable{... */\n  jump(tag_44)\n    /* \"inviter_presell/token.sol\":2522:2713  function _transferOwnership(address newOwner) internal virtual {... */\ntag_8:\n    /* \"inviter_presell/token.sol\":2596:2612  address oldOwner */\n  0x00\n    /* \"inviter_presell/token.sol\":2615:2621  _owner */\n  dup1\n  sload\n  sub(shl(0xa0, 0x01), 0x01)\n    /* \"inviter_presell/token.sol\":2632:2649  _owner = newOwner */\n  dup4\n  dup2\n  and\n  not(sub(shl(0xa0, 0x01), 0x01))\n  dup4\n  and\n  dup2\n  or\n  dup5\n  sstore\n    /* \"inviter_presell/token.sol\":2665:2705  OwnershipTransferred(oldOwner, newOwner) */\n  mload(0x40)\n    /* \"inviter_presell/token.sol\":2615:2621  _owner */\n  swap2\n  swap1\n  swap3\n  and\n  swap3\n  dup4\n  swap2\n    /* \"inviter_presell/token.sol\":2665:2705  OwnershipTransferred(oldOwner, newOwner) */\n  0x8be0079c531659141344cd1fd0a4f28419497f9722a3daafe3b4186f6b6457e0\n  swap2\n    /* \"inviter_presell/token.sol\":2596:2612  address oldOwner */\n  swap1\n    /* \"inviter_presell/token.sol\":2665:2705  OwnershipTransferred(oldOwner, newOwner) */\n  log3\n    /* \"inviter_presell/token.sol\":2585:2713  {... */\n  pop\n    /* \"inviter_presell/token.sol\":2522:2713  function _transferOwnership(address newOwner) internal virtual {... */\n  pop\n  jump\t// out\n    /* \"inviter_presell/token.sol\":18431:18629  function _mint(address account, uint256 amount) internal virtual {... */\ntag_12:\n  sub(shl(0xa0, 0x01), 0x01)\n    /* \"inviter_presell/token.sol\":18507:18525  _balances[account] */\n  dup3\n  and\n  0x00\n  swap1\n  dup2\n  mstore\n    /* \"inviter_presell/token.sol\":18507:18516  _balances */\n  0x01\n    /* \"inviter_presell/token.sol\":18507:18525  _balances[account] */\n  0x20\n  mstore\n  0x40\n  dup2\n  keccak256\n    /* \"inviter_presell/token.sol\":18507:18535  _balances[account] += amount */\n  dup1\n  sload\n    /* \"inviter_presell/token.sol\":18529:18535  amount */\n  dup4\n  swap3\n    /* \"inviter_presell/token.sol\":18507:18525  _balances[account] */\n  swap1\n    /* \"inviter_presell/token.sol\":18507:18535  _balances[account] += amount */\n  tag_39\n  swap1\n    /* \"inviter_presell/token.sol\":18529:18535  amount */\n  dup5\n  swap1\n    /* \"inviter_presell/token.sol\":18507:18535  _balances[account] += amount */\n  tag_40\n  jump\t// in\ntag_39:\n  swap3\n  pop\n  pop\n  dup2\n  swap1\n  sstore\n  pop\n    /* \"inviter_presell/token.sol\":18562:18568  amount */\n  dup1\n    /* \"inviter_presell/token.sol\":18546:18558  _totalSupply */\n  0x03\n  0x00\n    /* \"inviter_presell/token.sol\":18546:18568  _totalSupply += amount */\n  dup3\n  dup3\n  sload\n  tag_41\n  swap2\n  swap1\n  tag_40\n  jump\t// in\ntag_41:\n  swap1\n  swap2\n  sstore\n  pop\n  pop\n    /* \"inviter_presell/token.sol\":18584:18621  Transfer(address(0), account, amount) */\n  mload(0x40)\n    /* \"#utility.yul\":193:218   */\n  dup2\n  dup2\n  mstore\n  sub(shl(0xa0, 0x01), 0x01)\n    /* \"inviter_presell/token.sol\":18584:18621  Transfer(address(0), account, amount) */\n  dup4\n  and\n  swap1\n    /* \"inviter_presell/token.sol\":18601:18602  0 */\n  0x00\n  swap1\n  0x00\n  dup1\n  mload\n  0x20\n  data_ada389e1fc24a8587c776340efb91b36e675792ab631816100d55df0b5cf3cbc\n  dup4\n  codecopy\n  dup2\n  mload\n  swap2\n  mstore\n    /* \"inviter_presell/token.sol\":18584:18621  Transfer(address(0), account, amount) */\n  swap1\n    /* \"#utility.yul\":181:183   */\n  0x20\n    /* \"#utility.yul\":166:184   */\n  add\n    /* \"inviter_presell/token.sol\":18584:18621  Transfer(address(0), account, amount) */\n  mload(0x40)\n  dup1\n  swap2\n  sub\n  swap1\n  log3\n    /* \"inviter_presell/token.sol\":18431:18629  function _mint(address account, uint256 amount) internal virtual {... */\n  pop\n  pop\n  jump\t// out\n    /* \"#utility.yul\":229:519   */\ntag_19:\n    /* \"#utility.yul\":299:305   */\n  0x00\n    /* \"#utility.yul\":352:354   */\n  0x20\n    /* \"#utility.yul\":340:349   */\n  dup3\n    /* \"#utility.yul\":331:338   */\n  dup5\n    /* \"#utility.yul\":327:350   */\n  sub\n    /* \"#utility.yul\":323:355   */\n  slt\n    /* \"#utility.yul\":320:372   */\n  iszero\n  tag_47\n  jumpi\n    /* \"#utility.yul\":368:369   */\n  0x00\n    /* \"#utility.yul\":365:366   */\n  dup1\n    /* \"#utility.yul\":358:370   */\n  revert\n    /* \"#utility.yul\":320:372   */\ntag_47:\n    /* \"#utility.yul\":394:410   */\n  dup2\n  mload\n  sub(shl(0xa0, 0x01), 0x01)\n    /* \"#utility.yul\":439:470   */\n  dup2\n  and\n    /* \"#utility.yul\":429:471   */\n  dup2\n  eq\n    /* \"#utility.yul\":419:489   */\n  tag_48\n  jumpi\n    /* \"#utility.yul\":485:486   */\n  0x00\n    /* \"#utility.yul\":482:483   */\n  dup1\n    /* \"#utility.yul\":475:487   */\n  revert\n    /* \"#utility.yul\":419:489   */\ntag_48:\n    /* \"#utility.yul\":508:513   */\n  swap4\n    /* \"#utility.yul\":229:519   */\n  swap3\n  pop\n  pop\n  pop\n  jump\t// out\n    /* \"#utility.yul\":833:1055   */\ntag_40:\n    /* \"#utility.yul\":898:907   */\n  dup1\n  dup3\n  add\n    /* \"#utility.yul\":919:929   */\n  dup1\n  dup3\n  gt\n    /* \"#utility.yul\":916:1049   */\n  iszero\n  tag_51\n  jumpi\n    /* \"#utility.yul\":971:981   */\n  0x4e487b71\n    /* \"#utility.yul\":966:969   */\n  0xe0\n    /* \"#utility.yul\":962:982   */\n  shl\n    /* \"#utility.yul\":959:960   */\n  0x00\n    /* \"#utility.yul\":952:983   */\n  mstore\n    /* \"#utility.yul\":1006:1010   */\n  0x11\n    /* \"#utility.yul\":1003:1004   */\n  0x04\n    /* \"#utility.yul\":996:1011   */\n  mstore\n    /* \"#utility.yul\":1034:1038   */\n  0x24\n    /* \"#utility.yul\":1031:1032   */\n  0x00\n    /* \"#utility.yul\":1024:1039   */\n  revert\n    /* \"#utility.yul\":916:1049   */\ntag_51:\n    /* \"#utility.yul\":833:1055   */\n  swap3\n  swap2\n  pop\n  pop\n  jump\t// out\n    /* \"#utility.yul\":1060:1237   */\ntag_44:\n    /* \"inviter_presell/token.sol\":13313:20339  contract Bee is Context1, IERC20, IERC20Metadata, Ownable{... */\n  mload(0x80)\n  mload(0xa0)\n  mload(0xc0)\n  codecopy(0x00, dataOffset(sub_0), dataSize(sub_0))\n  0x00\n  assignImmutable(\"0x962c584afcd4dd6cb0e25fef291e59a13b9ae1b34d13f25b13a34669b807535c\")\n  0x00\n  assignImmutable(\"0x5d0e843169a959565868d1bb90146ec5c40092bfd7808c444f36bb919316c421\")\n  0x00\n  assignImmutable(\"0x219fe5d1c18f2cbf388f9e850fcdf2097051cb75bfacbd7a8efd0178bdf8d594\")\n  return(0x00, dataSize(sub_0))\nstop\ndata_ada389e1fc24a8587c776340efb91b36e675792ab631816100d55df0b5cf3cbc ddf252ad1be2c89b69c2b068fc378daa952ba7f163c4a11628f55a4df523b3ef\n\nsub_0: assembly {\n        /* \"inviter_presell/token.sol\":13313:20339  contract Bee is Context1, IERC20, IERC20Metadata, Ownable{... */\n      mstore(0x40, 0x80)\n      jumpi(tag_1, lt(calldatasize, 0x04))\n      shr(0xe0, calldataload(0x00))\n      dup1\n      0x88af60c6\n      gt\n      tag_30\n      jumpi\n      dup1\n      0xa9059cbb\n      gt\n      tag_31\n      jumpi\n      dup1\n      0xdec1a6f6\n      gt\n      tag_32\n      jumpi\n      dup1\n      0xdec1a6f6\n      eq\n      tag_26\n      jumpi\n      dup1\n      0xe515cd38\n      eq\n      tag_27\n      jumpi\n      dup1\n      0xf2fde38b\n      eq\n      tag_28\n      jumpi\n      dup1\n      0xfae92612\n      eq\n      tag_29\n      jumpi\n      0x00\n      dup1\n      revert\n    tag_32:\n      dup1\n      0xa9059cbb\n      eq\n      tag_23\n      jumpi\n      dup1\n      0xdb2e21bc\n      eq\n      tag_24\n      jumpi\n      dup1\n      0xdd62ed3e\n      eq\n      tag_25\n      jumpi\n      0x00\n      dup1\n      revert\n    tag_31:\n      dup1\n      0x95d89b41\n      gt\n      tag_33\n      jumpi\n      dup1\n      0x95d89b41\n      eq\n      tag_19\n      jumpi\n      dup1\n      0xa457c2d7\n      eq\n      tag_20\n      jumpi\n      dup1\n      0xa4c3b091\n      eq\n      tag_21\n      jumpi\n      dup1\n      0xa8808fcc\n      eq\n      tag_22\n      jumpi\n      0x00\n      dup1\n      revert\n    tag_33:\n      dup1\n      0x88af60c6\n      eq\n      tag_16\n      jumpi\n      dup1\n      0x8da5cb5b\n      eq\n      tag_17\n      jumpi\n      dup1\n      0x95623641\n      eq\n      tag_18\n      jumpi\n      0x00\n      dup1\n      revert\n    tag_30:\n      dup1\n      0x313ce567\n      gt\n      tag_34\n      jumpi\n      dup1\n      0x49bd5a5e\n      gt\n      tag_35\n      jumpi\n      dup1\n      0x49bd5a5e\n      eq\n      tag_12\n      jumpi\n      dup1\n      0x536db266\n      eq\n      tag_13\n      jumpi\n      dup1\n      0x70a08231\n      eq\n      tag_14\n      jumpi\n      dup1\n      0x715018a6\n      eq\n      tag_15\n      jumpi\n      0x00\n      dup1\n      revert\n    tag_35:\n      dup1\n      0x313ce567\n      eq\n      tag_9\n      jumpi\n      dup1\n      0x39509351\n      eq\n      tag_10\n      jumpi\n      dup1\n      0x42966c68\n      eq\n      tag_11\n      jumpi\n      0x00\n      dup1\n      revert\n    tag_34:\n      dup1\n      0x06fdde03\n      eq\n      tag_3\n      jumpi\n      dup1\n      0x095ea7b3\n      eq\n      tag_4\n      jumpi\n      dup1\n      0x1694505e\n      eq\n      tag_5\n      jumpi\n      dup1\n      0x18160ddd\n      eq\n      tag_6\n      jumpi\n      dup1\n      0x23b872dd\n      eq\n      tag_7\n      jumpi\n      dup1\n      0x2aafa283\n      eq\n      tag_8\n      jumpi\n      0x00\n      dup1\n      revert\n    tag_1:\n      jumpi(tag_2, calldatasize)\n      stop\n    tag_2:\n      0x00\n      dup1\n      revert\n        /* \"inviter_presell/token.sol\":14970:15075  function name() public view virtual override returns (string memory) {... */\n    tag_3:\n      callvalue\n      dup1\n      iszero\n      tag_38\n      jumpi\n      0x00\n      dup1\n      revert\n    tag_38:\n      pop\n        /* \"inviter_presell/token.sol\":15050:15067  return \"AIR TEST\" */\n      0x40\n      dup1\n      mload\n      dup1\n      dup3\n      add\n      swap1\n      swap2\n      mstore\n      0x08\n      dup2\n      mstore\n      shl(0xc2, 0x10525488151154d5)\n      0x20\n      dup3\n      add\n      mstore\n        /* \"inviter_presell/token.sol\":14970:15075  function name() public view virtual override returns (string memory) {... */\n    tag_39:\n      mload(0x40)\n      tag_41\n      swap2\n      swap1\n      tag_42\n      jump\t// in\n    tag_41:\n      mload(0x40)\n      dup1\n      swap2\n      sub\n      swap1\n      return\n        /* \"inviter_presell/token.sol\":15888:16057  function approve(address spender, uint256 amount) public virtual override returns (bool) {... */\n    tag_4:\n      callvalue\n      dup1\n      iszero\n      tag_43\n      jumpi\n      0x00\n      dup1\n      revert\n    tag_43:\n      pop\n      tag_44\n      tag_45\n      calldatasize\n      0x04\n      tag_46\n      jump\t// in\n    tag_45:\n      tag_47\n      jump\t// in\n    tag_44:\n      mload(0x40)\n        /* \"#utility.yul\":1188:1202   */\n      swap1\n      iszero\n        /* \"#utility.yul\":1181:1203   */\n      iszero\n        /* \"#utility.yul\":1163:1204   */\n      dup2\n      mstore\n        /* \"#utility.yul\":1151:1153   */\n      0x20\n        /* \"#utility.yul\":1136:1154   */\n      add\n        /* \"inviter_presell/token.sol\":15888:16057  function approve(address spender, uint256 amount) public virtual override returns (bool) {... */\n      tag_41\n        /* \"#utility.yul\":1023:1210   */\n      jump\n        /* \"inviter_presell/token.sol\":13661:13716  IPancakeSwapV2Router02 public immutable uniswapV2Router */\n    tag_5:\n      callvalue\n      dup1\n      iszero\n      tag_50\n      jumpi\n      0x00\n      dup1\n      revert\n    tag_50:\n      pop\n      tag_51\n      immutable(\"0x219fe5d1c18f2cbf388f9e850fcdf2097051cb75bfacbd7a8efd0178bdf8d594\")\n      dup2\n      jump\n    tag_51:\n      mload(0x40)\n      sub(shl(0xa0, 0x01), 0x01)\n        /* \"#utility.yul\":1410:1442   */\n      swap1\n      swap2\n      and\n        /* \"#utility.yul\":1392:1443   */\n      dup2\n      mstore\n        /* \"#utility.yul\":1380:1382   */\n      0x20\n        /* \"#utility.yul\":1365:1383   */\n      add\n        /* \"inviter_presell/token.sol\":13661:13716  IPancakeSwapV2Router02 public immutable uniswapV2Router */\n      tag_41\n        /* \"#utility.yul\":1215:1449   */\n      jump\n        /* \"inviter_presell/token.sol\":15295:15403  function totalSupply() public view virtual override returns (uint256) {... */\n    tag_6:\n      callvalue\n      dup1\n      iszero\n      tag_55\n      jumpi\n      0x00\n      dup1\n      revert\n    tag_55:\n      pop\n        /* \"inviter_presell/token.sol\":15383:15395  _totalSupply */\n      sload(0x03)\n        /* \"inviter_presell/token.sol\":15295:15403  function totalSupply() public view virtual override returns (uint256) {... */\n    tag_56:\n      mload(0x40)\n        /* \"#utility.yul\":1600:1625   */\n      swap1\n      dup2\n      mstore\n        /* \"#utility.yul\":1588:1590   */\n      0x20\n        /* \"#utility.yul\":1573:1591   */\n      add\n        /* \"inviter_presell/token.sol\":15295:15403  function totalSupply() public view virtual override returns (uint256) {... */\n      tag_41\n        /* \"#utility.yul\":1454:1631   */\n      jump\n        /* \"inviter_presell/token.sol\":16065:16553  function transferFrom(... */\n    tag_7:\n      callvalue\n      dup1\n      iszero\n      tag_60\n      jumpi\n      0x00\n      dup1\n      revert\n    tag_60:\n      pop\n      tag_44\n      tag_62\n      calldatasize\n      0x04\n      tag_63\n      jump\t// in\n    tag_62:\n      tag_64\n      jump\t// in\n        /* \"inviter_presell/token.sol\":13768:13810  address public immutable uniswapUsdtV2Pair */\n    tag_8:\n      callvalue\n      dup1\n      iszero\n      tag_66\n      jumpi\n      0x00\n      dup1\n      revert\n    tag_66:\n      pop\n      tag_51\n      immutable(\"0x962c584afcd4dd6cb0e25fef291e59a13b9ae1b34d13f25b13a34669b807535c\")\n      dup2\n      jump\n        /* \"inviter_presell/token.sol\":15194:15287  function decimals() public view virtual override returns (uint8) {... */\n    tag_9:\n      callvalue\n      dup1\n      iszero\n      tag_71\n      jumpi\n      0x00\n      dup1\n      revert\n    tag_71:\n      pop\n      mload(0x40)\n        /* \"inviter_presell/token.sol\":15277:15279  18 */\n      0x12\n        /* \"#utility.yul\":2447:2483   */\n      dup2\n      mstore\n        /* \"#utility.yul\":2435:2437   */\n      0x20\n        /* \"#utility.yul\":2420:2438   */\n      add\n        /* \"inviter_presell/token.sol\":15194:15287  function decimals() public view virtual override returns (uint8) {... */\n      tag_41\n        /* \"#utility.yul\":2305:2489   */\n      jump\n        /* \"inviter_presell/token.sol\":16561:16776  function increaseAllowance(address spender, uint256 addedValue) public virtual returns (bool) {... */\n    tag_10:\n      callvalue\n      dup1\n      iszero\n      tag_76\n      jumpi\n      0x00\n      dup1\n      revert\n    tag_76:\n      pop\n      tag_44\n      tag_78\n      calldatasize\n      0x04\n      tag_46\n      jump\t// in\n    tag_78:\n      tag_79\n      jump\t// in\n        /* \"inviter_presell/token.sol\":19105:19190  function burn(uint256 amount) external {... */\n    tag_11:\n      callvalue\n      dup1\n      iszero\n      tag_81\n      jumpi\n      0x00\n      dup1\n      revert\n    tag_81:\n      pop\n      tag_82\n      tag_83\n      calldatasize\n      0x04\n      tag_84\n      jump\t// in\n    tag_83:\n      tag_85\n      jump\t// in\n    tag_82:\n      stop\n        /* \"inviter_presell/token.sol\":13723:13761  address public immutable uniswapV2Pair */\n    tag_12:\n      callvalue\n      dup1\n      iszero\n      tag_86\n      jumpi\n      0x00\n      dup1\n      revert\n    tag_86:\n      pop\n      tag_51\n      immutable(\"0x5d0e843169a959565868d1bb90146ec5c40092bfd7808c444f36bb919316c421\")\n      dup2\n      jump\n        /* \"inviter_presell/token.sol\":17201:17392  function addDex(address _pair) external onlyOwner {... */\n    tag_13:\n      callvalue\n      dup1\n      iszero\n      tag_90\n      jumpi\n      0x00\n      dup1\n      revert\n    tag_90:\n      pop\n      tag_82\n      tag_92\n      calldatasize\n      0x04\n      tag_93\n      jump\t// in\n    tag_92:\n      tag_94\n      jump\t// in\n        /* \"inviter_presell/token.sol\":15411:15538  function balanceOf(address account) public view virtual override returns (uint256) {... */\n    tag_14:\n      callvalue\n      dup1\n      iszero\n      tag_95\n      jumpi\n      0x00\n      dup1\n      revert\n    tag_95:\n      pop\n      tag_56\n      tag_97\n      calldatasize\n      0x04\n      tag_93\n      jump\t// in\n    tag_97:\n      sub(shl(0xa0, 0x01), 0x01)\n        /* \"inviter_presell/token.sol\":15512:15530  _balances[account] */\n      and\n        /* \"inviter_presell/token.sol\":15485:15492  uint256 */\n      0x00\n        /* \"inviter_presell/token.sol\":15512:15530  _balances[account] */\n      swap1\n      dup2\n      mstore\n        /* \"inviter_presell/token.sol\":15512:15521  _balances */\n      0x01\n        /* \"inviter_presell/token.sol\":15512:15530  _balances[account] */\n      0x20\n      mstore\n      0x40\n      swap1\n      keccak256\n      sload\n      swap1\n        /* \"inviter_presell/token.sol\":15411:15538  function balanceOf(address account) public view virtual override returns (uint256) {... */\n      jump\n        /* \"inviter_presell/token.sol\":1903:2006  function renounceOwnership() public virtual onlyOwner {... */\n    tag_15:\n      callvalue\n      dup1\n      iszero\n      tag_100\n      jumpi\n      0x00\n      dup1\n      revert\n    tag_100:\n      pop\n      tag_82\n      tag_102\n      jump\t// in\n        /* \"inviter_presell/token.sol\":13912:13987  address public usdtMintAddress = 0x55d398326f99059fF775485246999027B3197955 */\n    tag_16:\n      callvalue\n      dup1\n      iszero\n      tag_103\n      jumpi\n      0x00\n      dup1\n      revert\n    tag_103:\n      pop\n      sload(0x08)\n      tag_51\n      swap1\n      sub(shl(0xa0, 0x01), 0x01)\n      and\n      dup2\n      jump\n        /* \"inviter_presell/token.sol\":1252:1339  function owner() public view virtual returns (address) {... */\n    tag_17:\n      callvalue\n      dup1\n      iszero\n      tag_107\n      jumpi\n      0x00\n      dup1\n      revert\n    tag_107:\n      pop\n        /* \"inviter_presell/token.sol\":1298:1305  address */\n      0x00\n        /* \"inviter_presell/token.sol\":1325:1331  _owner */\n      sload\n      sub(shl(0xa0, 0x01), 0x01)\n      and\n        /* \"inviter_presell/token.sol\":1252:1339  function owner() public view virtual returns (address) {... */\n      jump(tag_51)\n        /* \"inviter_presell/token.sol\":13994:14067  address public marketAddress = 0xcBB44600F5828A15cF130Abb73Ce5E85ac49D08F */\n    tag_18:\n      callvalue\n      dup1\n      iszero\n      tag_111\n      jumpi\n      0x00\n      dup1\n      revert\n    tag_111:\n      pop\n      sload(0x09)\n      tag_51\n      swap1\n      sub(shl(0xa0, 0x01), 0x01)\n      and\n      dup2\n      jump\n        /* \"inviter_presell/token.sol\":15083:15186  function symbol() public view virtual override returns (string memory) {... */\n    tag_19:\n      callvalue\n      dup1\n      iszero\n      tag_115\n      jumpi\n      0x00\n      dup1\n      revert\n    tag_115:\n      pop\n        /* \"inviter_presell/token.sol\":15165:15178  return \"AIRT\" */\n      0x40\n      dup1\n      mload\n      dup1\n      dup3\n      add\n      swap1\n      swap2\n      mstore\n      0x04\n      dup2\n      mstore\n      shl(0xe2, 0x10525495)\n      0x20\n      dup3\n      add\n      mstore\n        /* \"inviter_presell/token.sol\":15083:15186  function symbol() public view virtual override returns (string memory) {... */\n      jump(tag_39)\n        /* \"inviter_presell/token.sol\":16784:17193  function decreaseAllowance(address spender, uint256 subtractedValue) public virtual returns (bool) {... */\n    tag_20:\n      callvalue\n      dup1\n      iszero\n      tag_119\n      jumpi\n      0x00\n      dup1\n      revert\n    tag_119:\n      pop\n      tag_44\n      tag_121\n      calldatasize\n      0x04\n      tag_46\n      jump\t// in\n    tag_121:\n      tag_122\n      jump\t// in\n        /* \"inviter_presell/token.sol\":20191:20334  function emergencyWithdrawToken(address token, uint256 amount) external onlyOwner {... */\n    tag_21:\n      callvalue\n      dup1\n      iszero\n      tag_124\n      jumpi\n      0x00\n      dup1\n      revert\n    tag_124:\n      pop\n      tag_82\n      tag_126\n      calldatasize\n      0x04\n      tag_46\n      jump\t// in\n    tag_126:\n      tag_127\n      jump\t// in\n        /* \"inviter_presell/token.sol\":19704:19919  function setExcludeds(address addr) public onlyOwner {... */\n    tag_22:\n      callvalue\n      dup1\n      iszero\n      tag_128\n      jumpi\n      0x00\n      dup1\n      revert\n    tag_128:\n      pop\n      tag_82\n      tag_130\n      calldatasize\n      0x04\n      tag_93\n      jump\t// in\n    tag_130:\n      tag_131\n      jump\t// in\n        /* \"inviter_presell/token.sol\":15546:15721  function transfer(address recipient, uint256 amount) public virtual override returns (bool) {... */\n    tag_23:\n      callvalue\n      dup1\n      iszero\n      tag_132\n      jumpi\n      0x00\n      dup1\n      revert\n    tag_132:\n      pop\n      tag_44\n      tag_134\n      calldatasize\n      0x04\n      tag_46\n      jump\t// in\n    tag_134:\n      tag_135\n      jump\t// in\n        /* \"inviter_presell/token.sol\":20068:20183  function emergencyWithdraw() external onlyOwner {... */\n    tag_24:\n      callvalue\n      dup1\n      iszero\n      tag_137\n      jumpi\n      0x00\n      dup1\n      revert\n    tag_137:\n      pop\n      tag_82\n      tag_139\n      jump\t// in\n        /* \"inviter_presell/token.sol\":15729:15880  function allowance(address owner, address spender) public view virtual override returns (uint256) {... */\n    tag_25:\n      callvalue\n      dup1\n      iszero\n      tag_140\n      jumpi\n      0x00\n      dup1\n      revert\n    tag_140:\n      pop\n      tag_56\n      tag_142\n      calldatasize\n      0x04\n      tag_143\n      jump\t// in\n    tag_142:\n      sub(shl(0xa0, 0x01), 0x01)\n        /* \"inviter_presell/token.sol\":15845:15863  _allowances[owner] */\n      swap2\n      dup3\n      and\n        /* \"inviter_presell/token.sol\":15818:15825  uint256 */\n      0x00\n        /* \"inviter_presell/token.sol\":15845:15863  _allowances[owner] */\n      swap1\n      dup2\n      mstore\n        /* \"inviter_presell/token.sol\":15845:15856  _allowances */\n      0x02\n        /* \"inviter_presell/token.sol\":15845:15863  _allowances[owner] */\n      0x20\n      swap1\n      dup2\n      mstore\n      0x40\n      dup1\n      dup4\n      keccak256\n        /* \"inviter_presell/token.sol\":15845:15872  _allowances[owner][spender] */\n      swap4\n      swap1\n      swap5\n      and\n      dup3\n      mstore\n      swap2\n      swap1\n      swap2\n      mstore\n      keccak256\n      sload\n      swap1\n        /* \"inviter_presell/token.sol\":15729:15880  function allowance(address owner, address spender) public view virtual override returns (uint256) {... */\n      jump\n        /* \"inviter_presell/token.sol\":13870:13905  mapping (address=>bool) public DEXs */\n    tag_26:\n      callvalue\n      dup1\n      iszero\n      tag_146\n      jumpi\n      0x00\n      dup1\n      revert\n    tag_146:\n      pop\n      tag_44\n      tag_148\n      calldatasize\n      0x04\n      tag_93\n      jump\t// in\n    tag_148:\n      mstore(0x20, 0x07)\n      0x00\n      swap1\n      dup2\n      mstore\n      0x40\n      swap1\n      keccak256\n      sload\n      0xff\n      and\n      dup2\n      jump\n        /* \"inviter_presell/token.sol\":19426:19694  function deliver(address _lp) public onlyOwner {... */\n    tag_27:\n      callvalue\n      dup1\n      iszero\n      tag_151\n      jumpi\n      0x00\n      dup1\n      revert\n    tag_151:\n      pop\n      tag_82\n      tag_153\n      calldatasize\n      0x04\n      tag_93\n      jump\t// in\n    tag_153:\n      tag_154\n      jump\t// in\n        /* \"inviter_presell/token.sol\":2161:2362  function transferOwnership(address newOwner) public virtual onlyOwner {... */\n    tag_28:\n      callvalue\n      dup1\n      iszero\n      tag_155\n      jumpi\n      0x00\n      dup1\n      revert\n    tag_155:\n      pop\n      tag_82\n      tag_157\n      calldatasize\n      0x04\n      tag_93\n      jump\t// in\n    tag_157:\n      tag_158\n      jump\t// in\n        /* \"inviter_presell/token.sol\":19927:20023  function setMarketAddress(address addr) public onlyOwner {... */\n    tag_29:\n      callvalue\n      dup1\n      iszero\n      tag_159\n      jumpi\n      0x00\n      dup1\n      revert\n    tag_159:\n      pop\n      tag_82\n      tag_161\n      calldatasize\n      0x04\n      tag_93\n      jump\t// in\n    tag_161:\n      tag_162\n      jump\t// in\n        /* \"inviter_presell/token.sol\":15888:16057  function approve(address spender, uint256 amount) public virtual override returns (bool) {... */\n    tag_47:\n        /* \"inviter_presell/token.sol\":15971:15975  bool */\n      0x00\n        /* \"inviter_presell/token.sol\":15988:16027  _approve(_msgSender(), spender, amount) */\n      tag_165\n        /* \"inviter_presell/token.sol\":693:703  msg.sender */\n      caller\n        /* \"inviter_presell/token.sol\":16011:16018  spender */\n      dup5\n        /* \"inviter_presell/token.sol\":16020:16026  amount */\n      dup5\n        /* \"inviter_presell/token.sol\":15988:15996  _approve */\n      tag_168\n        /* \"inviter_presell/token.sol\":15988:16027  _approve(_msgSender(), spender, amount) */\n      jump\t// in\n    tag_165:\n      pop\n        /* \"inviter_presell/token.sol\":16045:16049  true */\n      0x01\n        /* \"inviter_presell/token.sol\":15888:16057  function approve(address spender, uint256 amount) public virtual override returns (bool) {... */\n    tag_164:\n      swap3\n      swap2\n      pop\n      pop\n      jump\t// out\n        /* \"inviter_presell/token.sol\":16065:16553  function transferFrom(... */\n    tag_64:\n        /* \"inviter_presell/token.sol\":16205:16209  bool */\n      0x00\n        /* \"inviter_presell/token.sol\":16222:16258  _transfer(sender, recipient, amount) */\n      tag_171\n        /* \"inviter_presell/token.sol\":16232:16238  sender */\n      dup5\n        /* \"inviter_presell/token.sol\":16240:16249  recipient */\n      dup5\n        /* \"inviter_presell/token.sol\":16251:16257  amount */\n      dup5\n        /* \"inviter_presell/token.sol\":16222:16231  _transfer */\n      tag_172\n        /* \"inviter_presell/token.sol\":16222:16258  _transfer(sender, recipient, amount) */\n      jump\t// in\n    tag_171:\n      sub(shl(0xa0, 0x01), 0x01)\n        /* \"inviter_presell/token.sol\":16298:16317  _allowances[sender] */\n      dup5\n      and\n        /* \"inviter_presell/token.sol\":16271:16295  uint256 currentAllowance */\n      0x00\n        /* \"inviter_presell/token.sol\":16298:16317  _allowances[sender] */\n      swap1\n      dup2\n      mstore\n        /* \"inviter_presell/token.sol\":16298:16309  _allowances */\n      0x02\n        /* \"inviter_presell/token.sol\":16298:16317  _allowances[sender] */\n      0x20\n      swap1\n      dup2\n      mstore\n      0x40\n      dup1\n      dup4\n      keccak256\n        /* \"inviter_presell/token.sol\":693:703  msg.sender */\n      caller\n        /* \"inviter_presell/token.sol\":16298:16331  _allowances[sender][_msgSender()] */\n      dup5\n      mstore\n      swap1\n      swap2\n      mstore\n      swap1\n      keccak256\n      sload\n        /* \"inviter_presell/token.sol\":16350:16376  currentAllowance >= amount */\n      dup3\n      dup2\n      lt\n      iszero\n        /* \"inviter_presell/token.sol\":16342:16419  require(currentAllowance >= amount, \"BEE: transfer amount exceeds allowance\") */\n      tag_174\n      jumpi\n      mload(0x40)\n      shl(0xe5, 0x461bcd)\n      dup2\n      mstore\n        /* \"#utility.yul\":3526:3528   */\n      0x20\n        /* \"inviter_presell/token.sol\":16342:16419  require(currentAllowance >= amount, \"BEE: transfer amount exceeds allowance\") */\n      0x04\n      dup3\n      add\n        /* \"#utility.yul\":3508:3529   */\n      mstore\n        /* \"#utility.yul\":3565:3567   */\n      0x26\n        /* \"#utility.yul\":3545:3563   */\n      0x24\n      dup3\n      add\n        /* \"#utility.yul\":3538:3568   */\n      mstore\n        /* \"#utility.yul\":3604:3638   */\n      0x4245453a207472616e7366657220616d6f756e74206578636565647320616c6c\n        /* \"#utility.yul\":3584:3602   */\n      0x44\n      dup3\n      add\n        /* \"#utility.yul\":3577:3639   */\n      mstore\n      shl(0xd0, 0x6f77616e6365)\n        /* \"#utility.yul\":3655:3673   */\n      0x64\n      dup3\n      add\n        /* \"#utility.yul\":3648:3684   */\n      mstore\n        /* \"#utility.yul\":3701:3720   */\n      0x84\n      add\n        /* \"inviter_presell/token.sol\":16342:16419  require(currentAllowance >= amount, \"BEE: transfer amount exceeds allowance\") */\n    tag_175:\n      mload(0x40)\n      dup1\n      swap2\n      sub\n      swap1\n      revert\n    tag_174:\n        /* \"inviter_presell/token.sol\":16455:16512  _approve(sender, _msgSender(), currentAllowance - amount) */\n      tag_177\n        /* \"inviter_presell/token.sol\":16464:16470  sender */\n      dup6\n        /* \"inviter_presell/token.sol\":693:703  msg.sender */\n      caller\n        /* \"inviter_presell/token.sol\":16505:16511  amount */\n      dup6\n        /* \"inviter_presell/token.sol\":16486:16502  currentAllowance */\n      dup5\n        /* \"inviter_presell/token.sol\":16486:16511  currentAllowance - amount */\n      sub\n        /* \"inviter_presell/token.sol\":16455:16463  _approve */\n      tag_168\n        /* \"inviter_presell/token.sol\":16455:16512  _approve(sender, _msgSender(), currentAllowance - amount) */\n      jump\t// in\n    tag_177:\n      pop\n        /* \"inviter_presell/token.sol\":16541:16545  true */\n      0x01\n      swap5\n        /* \"inviter_presell/token.sol\":16065:16553  function transferFrom(... */\n      swap4\n      pop\n      pop\n      pop\n      pop\n      jump\t// out\n        /* \"inviter_presell/token.sol\":16561:16776  function increaseAllowance(address spender, uint256 addedValue) public virtual returns (bool) {... */\n    tag_79:\n        /* \"inviter_presell/token.sol\":693:703  msg.sender */\n      caller\n        /* \"inviter_presell/token.sol\":16649:16653  bool */\n      0x00\n        /* \"inviter_presell/token.sol\":16698:16723  _allowances[_msgSender()] */\n      dup2\n      dup2\n      mstore\n        /* \"inviter_presell/token.sol\":16698:16709  _allowances */\n      0x02\n        /* \"inviter_presell/token.sol\":16698:16723  _allowances[_msgSender()] */\n      0x20\n      swap1\n      dup2\n      mstore\n      0x40\n      dup1\n      dup4\n      keccak256\n      sub(shl(0xa0, 0x01), 0x01)\n        /* \"inviter_presell/token.sol\":16698:16732  _allowances[_msgSender()][spender] */\n      dup8\n      and\n      dup5\n      mstore\n      swap1\n      swap2\n      mstore\n      dup2\n      keccak256\n      sload\n        /* \"inviter_presell/token.sol\":16649:16653  bool */\n      swap1\n      swap2\n        /* \"inviter_presell/token.sol\":16666:16746  _approve(_msgSender(), spender, _allowances[_msgSender()][spender] + addedValue) */\n      tag_165\n      swap2\n        /* \"inviter_presell/token.sol\":16689:16696  spender */\n      dup6\n      swap1\n        /* \"inviter_presell/token.sol\":16698:16745  _allowances[_msgSender()][spender] + addedValue */\n      tag_184\n      swap1\n        /* \"inviter_presell/token.sol\":16735:16745  addedValue */\n      dup7\n      swap1\n        /* \"inviter_presell/token.sol\":16698:16745  _allowances[_msgSender()][spender] + addedValue */\n      tag_185\n      jump\t// in\n    tag_184:\n        /* \"inviter_presell/token.sol\":16666:16674  _approve */\n      tag_168\n        /* \"inviter_presell/token.sol\":16666:16746  _approve(_msgSender(), spender, _allowances[_msgSender()][spender] + addedValue) */\n      jump\t// in\n        /* \"inviter_presell/token.sol\":19105:19190  function burn(uint256 amount) external {... */\n    tag_85:\n        /* \"inviter_presell/token.sol\":19155:19182  _burn(_msgSender(), amount) */\n      tag_187\n        /* \"inviter_presell/token.sol\":693:703  msg.sender */\n      caller\n        /* \"inviter_presell/token.sol\":19175:19181  amount */\n      dup3\n        /* \"inviter_presell/token.sol\":19155:19160  _burn */\n      tag_189\n        /* \"inviter_presell/token.sol\":19155:19182  _burn(_msgSender(), amount) */\n      jump\t// in\n    tag_187:\n        /* \"inviter_presell/token.sol\":19105:19190  function burn(uint256 amount) external {... */\n      pop\n      jump\t// out\n        /* \"inviter_presell/token.sol\":17201:17392  function addDex(address _pair) external onlyOwner {... */\n    tag_94:\n        /* \"inviter_presell/token.sol\":1298:1305  address */\n      0x00\n        /* \"inviter_presell/token.sol\":1325:1331  _owner */\n      sload\n      sub(shl(0xa0, 0x01), 0x01)\n      and\n        /* \"inviter_presell/token.sol\":693:703  msg.sender */\n      caller\n        /* \"inviter_presell/token.sol\":1472:1495  owner() == _msgSender() */\n      eq\n        /* \"inviter_presell/token.sol\":1464:1532  require(owner() == _msgSender(), \"Ownable: caller is not the owner\") */\n      tag_193\n      jumpi\n      mload(0x40)\n      shl(0xe5, 0x461bcd)\n      dup2\n      mstore\n      0x04\n      add\n      tag_175\n      swap1\n      tag_195\n      jump\t// in\n    tag_193:\n      sub(shl(0xa0, 0x01), 0x01)\n        /* \"inviter_presell/token.sol\":17266:17277  DEXs[_pair] */\n      dup2\n      and\n      0x00\n      swap1\n      dup2\n      mstore\n        /* \"inviter_presell/token.sol\":17266:17270  DEXs */\n      0x07\n        /* \"inviter_presell/token.sol\":17266:17277  DEXs[_pair] */\n      0x20\n      mstore\n      0x40\n      swap1\n      keccak256\n      sload\n      0xff\n      and\n        /* \"inviter_presell/token.sol\":17262:17376  if (DEXs[_pair]) {... */\n      iszero\n      tag_197\n      jumpi\n      sub(shl(0xa0, 0x01), 0x01)\n        /* \"inviter_presell/token.sol\":17294:17305  DEXs[_pair] */\n      and\n        /* \"inviter_presell/token.sol\":17308:17313  false */\n      0x00\n        /* \"inviter_presell/token.sol\":17294:17305  DEXs[_pair] */\n      swap1\n      dup2\n      mstore\n        /* \"inviter_presell/token.sol\":17294:17298  DEXs */\n      0x07\n        /* \"inviter_presell/token.sol\":17294:17305  DEXs[_pair] */\n      0x20\n      mstore\n      0x40\n      swap1\n      keccak256\n        /* \"inviter_presell/token.sol\":17294:17313  DEXs[_pair] = false */\n      dup1\n      sload\n      not(0xff)\n      and\n      swap1\n      sstore\n        /* \"inviter_presell/token.sol\":19105:19190  function burn(uint256 amount) external {... */\n      jump\t// out\n        /* \"inviter_presell/token.sol\":17262:17376  if (DEXs[_pair]) {... */\n    tag_197:\n      sub(shl(0xa0, 0x01), 0x01)\n        /* \"inviter_presell/token.sol\":17346:17357  DEXs[_pair] */\n      dup2\n      and\n      0x00\n      swap1\n      dup2\n      mstore\n        /* \"inviter_presell/token.sol\":17346:17350  DEXs */\n      0x07\n        /* \"inviter_presell/token.sol\":17346:17357  DEXs[_pair] */\n      0x20\n      mstore\n      0x40\n      swap1\n      keccak256\n        /* \"inviter_presell/token.sol\":17346:17364  DEXs[_pair] = true */\n      dup1\n      sload\n      not(0xff)\n      and\n        /* \"inviter_presell/token.sol\":17360:17364  true */\n      0x01\n        /* \"inviter_presell/token.sol\":17346:17364  DEXs[_pair] = true */\n      or\n      swap1\n      sstore\n        /* \"inviter_presell/token.sol\":17201:17392  function addDex(address _pair) external onlyOwner {... */\n      pop\n      jump\t// out\n        /* \"inviter_presell/token.sol\":1903:2006  function renounceOwnership() public virtual onlyOwner {... */\n    tag_102:\n        /* \"inviter_presell/token.sol\":1298:1305  address */\n      0x00\n        /* \"inviter_presell/token.sol\":1325:1331  _owner */\n      sload\n      sub(shl(0xa0, 0x01), 0x01)\n      and\n        /* \"inviter_presell/token.sol\":693:703  msg.sender */\n      caller\n        /* \"inviter_presell/token.sol\":1472:1495  owner() == _msgSender() */\n      eq\n        /* \"inviter_presell/token.sol\":1464:1532  require(owner() == _msgSender(), \"Ownable: caller is not the owner\") */\n      tag_203\n      jumpi\n      mload(0x40)\n      shl(0xe5, 0x461bcd)\n      dup2\n      mstore\n      0x04\n      add\n      tag_175\n      swap1\n      tag_195\n      jump\t// in\n    tag_203:\n        /* \"inviter_presell/token.sol\":1968:1998  _transferOwnership(address(0)) */\n      tag_206\n        /* \"inviter_presell/token.sol\":1995:1996  0 */\n      0x00\n        /* \"inviter_presell/token.sol\":1968:1986  _transferOwnership */\n      tag_207\n        /* \"inviter_presell/token.sol\":1968:1998  _transferOwnership(address(0)) */\n      jump\t// in\n    tag_206:\n        /* \"inviter_presell/token.sol\":1903:2006  function renounceOwnership() public virtual onlyOwner {... */\n      jump\t// out\n        /* \"inviter_presell/token.sol\":16784:17193  function decreaseAllowance(address spender, uint256 subtractedValue) public virtual returns (bool) {... */\n    tag_122:\n        /* \"inviter_presell/token.sol\":693:703  msg.sender */\n      caller\n        /* \"inviter_presell/token.sol\":16877:16881  bool */\n      0x00\n        /* \"inviter_presell/token.sol\":16921:16946  _allowances[_msgSender()] */\n      swap1\n      dup2\n      mstore\n        /* \"inviter_presell/token.sol\":16921:16932  _allowances */\n      0x02\n        /* \"inviter_presell/token.sol\":16921:16946  _allowances[_msgSender()] */\n      0x20\n      swap1\n      dup2\n      mstore\n      0x40\n      dup1\n      dup4\n      keccak256\n      sub(shl(0xa0, 0x01), 0x01)\n        /* \"inviter_presell/token.sol\":16921:16955  _allowances[_msgSender()][spender] */\n      dup7\n      and\n      dup5\n      mstore\n      swap1\n      swap2\n      mstore\n      dup2\n      keccak256\n      sload\n        /* \"inviter_presell/token.sol\":16974:17009  currentAllowance >= subtractedValue */\n      dup3\n      dup2\n      lt\n      iszero\n        /* \"inviter_presell/token.sol\":16966:17049  require(currentAllowance >= subtractedValue, \"BEE: decreased allowance below zero\") */\n      tag_212\n      jumpi\n      mload(0x40)\n      shl(0xe5, 0x461bcd)\n      dup2\n      mstore\n        /* \"#utility.yul\":4556:4558   */\n      0x20\n        /* \"inviter_presell/token.sol\":16966:17049  require(currentAllowance >= subtractedValue, \"BEE: decreased allowance below zero\") */\n      0x04\n      dup3\n      add\n        /* \"#utility.yul\":4538:4559   */\n      mstore\n        /* \"#utility.yul\":4595:4597   */\n      0x23\n        /* \"#utility.yul\":4575:4593   */\n      0x24\n      dup3\n      add\n        /* \"#utility.yul\":4568:4598   */\n      mstore\n        /* \"#utility.yul\":4634:4668   */\n      0x4245453a2064656372656173656420616c6c6f77616e63652062656c6f77207a\n        /* \"#utility.yul\":4614:4632   */\n      0x44\n      dup3\n      add\n        /* \"#utility.yul\":4607:4669   */\n      mstore\n      shl(0xe8, 0x65726f)\n        /* \"#utility.yul\":4685:4703   */\n      0x64\n      dup3\n      add\n        /* \"#utility.yul\":4678:4711   */\n      mstore\n        /* \"#utility.yul\":4728:4747   */\n      0x84\n      add\n        /* \"inviter_presell/token.sol\":16966:17049  require(currentAllowance >= subtractedValue, \"BEE: decreased allowance below zero\") */\n      tag_175\n        /* \"#utility.yul\":4354:4753   */\n      jump\n        /* \"inviter_presell/token.sol\":16966:17049  require(currentAllowance >= subtractedValue, \"BEE: decreased allowance below zero\") */\n    tag_212:\n        /* \"inviter_presell/token.sol\":17085:17152  _approve(_msgSender(), spender, currentAllowance - subtractedValue) */\n      tag_215\n        /* \"inviter_presell/token.sol\":693:703  msg.sender */\n      caller\n        /* \"inviter_presell/token.sol\":17108:17115  spender */\n      dup6\n        /* \"inviter_presell/token.sol\":17136:17151  subtractedValue */\n      dup6\n        /* \"inviter_presell/token.sol\":17117:17133  currentAllowance */\n      dup5\n        /* \"inviter_presell/token.sol\":17117:17151  currentAllowance - subtractedValue */\n      sub\n        /* \"inviter_presell/token.sol\":17085:17093  _approve */\n      tag_168\n        /* \"inviter_presell/token.sol\":17085:17152  _approve(_msgSender(), spender, currentAllowance - subtractedValue) */\n      jump\t// in\n    tag_215:\n      pop\n        /* \"inviter_presell/token.sol\":17181:17185  true */\n      0x01\n      swap4\n        /* \"inviter_presell/token.sol\":16784:17193  function decreaseAllowance(address spender, uint256 subtractedValue) public virtual returns (bool) {... */\n      swap3\n      pop\n      pop\n      pop\n      jump\t// out\n        /* \"inviter_presell/token.sol\":20191:20334  function emergencyWithdrawToken(address token, uint256 amount) external onlyOwner {... */\n    tag_127:\n        /* \"inviter_presell/token.sol\":1298:1305  address */\n      0x00\n        /* \"inviter_presell/token.sol\":1325:1331  _owner */\n      sload\n      sub(shl(0xa0, 0x01), 0x01)\n      and\n        /* \"inviter_presell/token.sol\":693:703  msg.sender */\n      caller\n        /* \"inviter_presell/token.sol\":1472:1495  owner() == _msgSender() */\n      eq\n        /* \"inviter_presell/token.sol\":1464:1532  require(owner() == _msgSender(), \"Ownable: caller is not the owner\") */\n      tag_220\n      jumpi\n      mload(0x40)\n      shl(0xe5, 0x461bcd)\n      dup2\n      mstore\n      0x04\n      add\n      tag_175\n      swap1\n      tag_195\n      jump\t// in\n    tag_220:\n        /* \"inviter_presell/token.sol\":20284:20326  IERC20(token).transfer(msg.sender, amount) */\n      mload(0x40)\n      shl(0xe0, 0xa9059cbb)\n      dup2\n      mstore\n        /* \"inviter_presell/token.sol\":20307:20317  msg.sender */\n      caller\n        /* \"inviter_presell/token.sol\":20284:20326  IERC20(token).transfer(msg.sender, amount) */\n      0x04\n      dup3\n      add\n        /* \"#utility.yul\":4932:4983   */\n      mstore\n        /* \"#utility.yul\":4999:5017   */\n      0x24\n      dup2\n      add\n        /* \"#utility.yul\":4992:5026   */\n      dup3\n      swap1\n      mstore\n      sub(shl(0xa0, 0x01), 0x01)\n        /* \"inviter_presell/token.sol\":20284:20306  IERC20(token).transfer */\n      dup4\n      and\n      swap1\n      0xa9059cbb\n      swap1\n        /* \"#utility.yul\":4905:4923   */\n      0x44\n      add\n        /* \"inviter_presell/token.sol\":20284:20326  IERC20(token).transfer(msg.sender, amount) */\n      0x20\n      mload(0x40)\n      dup1\n      dup4\n      sub\n      dup2\n      0x00\n      dup8\n      gas\n      call\n      iszero\n      dup1\n      iszero\n      tag_226\n      jumpi\n      returndatasize\n      0x00\n      dup1\n      returndatacopy\n      revert(0x00, returndatasize)\n    tag_226:\n      pop\n      pop\n      pop\n      pop\n      mload(0x40)\n      returndatasize\n      not(0x1f)\n      0x1f\n      dup3\n      add\n      and\n      dup3\n      add\n      dup1\n      0x40\n      mstore\n      pop\n      dup2\n      add\n      swap1\n      tag_227\n      swap2\n      swap1\n      tag_228\n      jump\t// in\n    tag_227:\n      pop\n        /* \"inviter_presell/token.sol\":20191:20334  function emergencyWithdrawToken(address token, uint256 amount) external onlyOwner {... */\n      pop\n      pop\n      jump\t// out\n        /* \"inviter_presell/token.sol\":19704:19919  function setExcludeds(address addr) public onlyOwner {... */\n    tag_131:\n        /* \"inviter_presell/token.sol\":1298:1305  address */\n      0x00\n        /* \"inviter_presell/token.sol\":1325:1331  _owner */\n      sload\n      sub(shl(0xa0, 0x01), 0x01)\n      and\n        /* \"inviter_presell/token.sol\":693:703  msg.sender */\n      caller\n        /* \"inviter_presell/token.sol\":1472:1495  owner() == _msgSender() */\n      eq\n        /* \"inviter_presell/token.sol\":1464:1532  require(owner() == _msgSender(), \"Ownable: caller is not the owner\") */\n      tag_232\n      jumpi\n      mload(0x40)\n      shl(0xe5, 0x461bcd)\n      dup2\n      mstore\n      0x04\n      add\n      tag_175\n      swap1\n      tag_195\n      jump\t// in\n    tag_232:\n      sub(shl(0xa0, 0x01), 0x01)\n        /* \"inviter_presell/token.sol\":19772:19790  _isExcludeds[addr] */\n      dup2\n      and\n      0x00\n      swap1\n      dup2\n      mstore\n        /* \"inviter_presell/token.sol\":19772:19784  _isExcludeds */\n      0x06\n        /* \"inviter_presell/token.sol\":19772:19790  _isExcludeds[addr] */\n      0x20\n      mstore\n      0x40\n      swap1\n      keccak256\n      sload\n      0xff\n      and\n        /* \"inviter_presell/token.sol\":19772:19798  _isExcludeds[addr] == true */\n      iszero\n      iszero\n        /* \"inviter_presell/token.sol\":19772:19790  _isExcludeds[addr] */\n      0x01\n        /* \"inviter_presell/token.sol\":19772:19798  _isExcludeds[addr] == true */\n      sub\n        /* \"inviter_presell/token.sol\":19768:19912  if (_isExcludeds[addr] == true) {... */\n      tag_235\n      jumpi\n      sub(shl(0xa0, 0x01), 0x01)\n        /* \"inviter_presell/token.sol\":19815:19833  _isExcludeds[addr] */\n      and\n        /* \"inviter_presell/token.sol\":19836:19841  false */\n      0x00\n        /* \"inviter_presell/token.sol\":19815:19833  _isExcludeds[addr] */\n      swap1\n      dup2\n      mstore\n        /* \"inviter_presell/token.sol\":19815:19827  _isExcludeds */\n      0x06\n        /* \"inviter_presell/token.sol\":19815:19833  _isExcludeds[addr] */\n      0x20\n      mstore\n      0x40\n      swap1\n      keccak256\n        /* \"inviter_presell/token.sol\":19815:19841  _isExcludeds[addr] = false */\n      dup1\n      sload\n      not(0xff)\n      and\n      swap1\n      sstore\n        /* \"inviter_presell/token.sol\":19105:19190  function burn(uint256 amount) external {... */\n      jump\t// out\n        /* \"inviter_presell/token.sol\":19768:19912  if (_isExcludeds[addr] == true) {... */\n    tag_235:\n      sub(shl(0xa0, 0x01), 0x01)\n        /* \"inviter_presell/token.sol\":19875:19893  _isExcludeds[addr] */\n      dup2\n      and\n      0x00\n      swap1\n      dup2\n      mstore\n        /* \"inviter_presell/token.sol\":19875:19887  _isExcludeds */\n      0x06\n        /* \"inviter_presell/token.sol\":19875:19893  _isExcludeds[addr] */\n      0x20\n      mstore\n      0x40\n      swap1\n      keccak256\n        /* \"inviter_presell/token.sol\":19875:19900  _isExcludeds[addr] = true */\n      dup1\n      sload\n      not(0xff)\n      and\n        /* \"inviter_presell/token.sol\":19896:19900  true */\n      0x01\n        /* \"inviter_presell/token.sol\":19875:19900  _isExcludeds[addr] = true */\n      or\n      swap1\n      sstore\n        /* \"inviter_presell/token.sol\":19704:19919  function setExcludeds(address addr) public onlyOwner {... */\n      pop\n      jump\t// out\n        /* \"inviter_presell/token.sol\":15546:15721  function transfer(address recipient, uint256 amount) public virtual override returns (bool) {... */\n    tag_135:\n        /* \"inviter_presell/token.sol\":15632:15636  bool */\n      0x00\n        /* \"inviter_presell/token.sol\":15649:15691  _transfer(_msgSender(), recipient, amount) */\n      tag_165\n        /* \"inviter_presell/token.sol\":693:703  msg.sender */\n      caller\n        /* \"inviter_presell/token.sol\":15673:15682  recipient */\n      dup5\n        /* \"inviter_presell/token.sol\":15684:15690  amount */\n      dup5\n        /* \"inviter_presell/token.sol\":15649:15658  _transfer */\n      tag_172\n        /* \"inviter_presell/token.sol\":15649:15691  _transfer(_msgSender(), recipient, amount) */\n      jump\t// in\n        /* \"inviter_presell/token.sol\":20068:20183  function emergencyWithdraw() external onlyOwner {... */\n    tag_139:\n        /* \"inviter_presell/token.sol\":1298:1305  address */\n      0x00\n        /* \"inviter_presell/token.sol\":1325:1331  _owner */\n      sload\n      sub(shl(0xa0, 0x01), 0x01)\n      and\n        /* \"inviter_presell/token.sol\":693:703  msg.sender */\n      caller\n        /* \"inviter_presell/token.sol\":1472:1495  owner() == _msgSender() */\n      eq\n        /* \"inviter_presell/token.sol\":1464:1532  require(owner() == _msgSender(), \"Ownable: caller is not the owner\") */\n      tag_243\n      jumpi\n      mload(0x40)\n      shl(0xe5, 0x461bcd)\n      dup2\n      mstore\n      0x04\n      add\n      tag_175\n      swap1\n      tag_195\n      jump\t// in\n    tag_243:\n        /* \"inviter_presell/token.sol\":1298:1305  address */\n      0x00\n        /* \"inviter_presell/token.sol\":1325:1331  _owner */\n      dup1\n      sload\n        /* \"inviter_presell/token.sol\":20127:20175  payable(owner()).transfer(address(this).balance) */\n      mload(0x40)\n      sub(shl(0xa0, 0x01), 0x01)\n        /* \"inviter_presell/token.sol\":1325:1331  _owner */\n      swap1\n      swap2\n      and\n      swap2\n        /* \"inviter_presell/token.sol\":20153:20174  address(this).balance */\n      selfbalance\n        /* \"inviter_presell/token.sol\":20127:20175  payable(owner()).transfer(address(this).balance) */\n      dup1\n      iszero\n      0x08fc\n      mul\n      swap3\n        /* \"inviter_presell/token.sol\":20153:20174  address(this).balance */\n      swap1\n      swap2\n        /* \"inviter_presell/token.sol\":20127:20175  payable(owner()).transfer(address(this).balance) */\n      dup2\n        /* \"inviter_presell/token.sol\":1298:1305  address */\n      dup2\n        /* \"inviter_presell/token.sol\":20127:20175  payable(owner()).transfer(address(this).balance) */\n      dup2\n        /* \"inviter_presell/token.sol\":20153:20174  address(this).balance */\n      dup6\n        /* \"inviter_presell/token.sol\":1325:1331  _owner */\n      dup9\n        /* \"inviter_presell/token.sol\":20127:20175  payable(owner()).transfer(address(this).balance) */\n      dup9\n      call\n      swap4\n      pop\n      pop\n      pop\n      pop\n      iszero\n      dup1\n      iszero\n      tag_187\n      jumpi\n      returndatasize\n      0x00\n      dup1\n      returndatacopy\n      revert(0x00, returndatasize)\n        /* \"inviter_presell/token.sol\":19426:19694  function deliver(address _lp) public onlyOwner {... */\n    tag_154:\n        /* \"inviter_presell/token.sol\":1298:1305  address */\n      0x00\n        /* \"inviter_presell/token.sol\":1325:1331  _owner */\n      sload\n      sub(shl(0xa0, 0x01), 0x01)\n      and\n        /* \"inviter_presell/token.sol\":693:703  msg.sender */\n      caller\n        /* \"inviter_presell/token.sol\":1472:1495  owner() == _msgSender() */\n      eq\n        /* \"inviter_presell/token.sol\":1464:1532  require(owner() == _msgSender(), \"Ownable: caller is not the owner\") */\n      tag_253\n      jumpi\n      mload(0x40)\n      shl(0xe5, 0x461bcd)\n      dup2\n      mstore\n      0x04\n      add\n      tag_175\n      swap1\n      tag_195\n      jump\t// in\n    tag_253:\n        /* \"inviter_presell/token.sol\":19484:19494  address lp */\n      0x00\n        /* \"inviter_presell/token.sol\":19516:19519  _lp */\n      dup2\n      sub(shl(0xa0, 0x01), 0x01)\n        /* \"inviter_presell/token.sol\":19497:19536  IPancakeSwapV2Pair(_lp).PERMIT_TYPEHASH */\n      and\n      0x30adf81f\n        /* \"inviter_presell/token.sol\":19497:19538  IPancakeSwapV2Pair(_lp).PERMIT_TYPEHASH() */\n      mload(0x40)\n      dup2\n      0xffffffff\n      and\n      0xe0\n      shl\n      dup2\n      mstore\n      0x04\n      add\n      0x20\n      mload(0x40)\n      dup1\n      dup4\n      sub\n      dup2\n      dup7\n      gas\n      staticcall\n      iszero\n      dup1\n      iszero\n      tag_257\n      jumpi\n      returndatasize\n      0x00\n      dup1\n      returndatacopy\n      revert(0x00, returndatasize)\n    tag_257:\n      pop\n      pop\n      pop\n      pop\n      mload(0x40)\n      returndatasize\n      not(0x1f)\n      0x1f\n      dup3\n      add\n      and\n      dup3\n      add\n      dup1\n      0x40\n      mstore\n      pop\n      dup2\n      add\n      swap1\n      tag_258\n      swap2\n      swap1\n      tag_259\n      jump\t// in\n    tag_258:\n      sub(shl(0xa0, 0x01), 0x01)\n        /* \"inviter_presell/token.sol\":19553:19569  _isExcludeds[lp] */\n      dup2\n      and\n      0x00\n      swap1\n      dup2\n      mstore\n        /* \"inviter_presell/token.sol\":19553:19565  _isExcludeds */\n      0x06\n        /* \"inviter_presell/token.sol\":19553:19569  _isExcludeds[lp] */\n      0x20\n      mstore\n      0x40\n      swap1\n      keccak256\n      sload\n        /* \"inviter_presell/token.sol\":19484:19538  address lp = IPancakeSwapV2Pair(_lp).PERMIT_TYPEHASH() */\n      swap1\n      swap2\n      pop\n        /* \"inviter_presell/token.sol\":19553:19569  _isExcludeds[lp] */\n      0xff\n      and\n        /* \"inviter_presell/token.sol\":19553:19577  _isExcludeds[lp] == true */\n      iszero\n      iszero\n        /* \"inviter_presell/token.sol\":19553:19569  _isExcludeds[lp] */\n      0x01\n        /* \"inviter_presell/token.sol\":19553:19577  _isExcludeds[lp] == true */\n      sub\n        /* \"inviter_presell/token.sol\":19549:19687  if (_isExcludeds[lp] == true) {... */\n      tag_260\n      jumpi\n      sub(shl(0xa0, 0x01), 0x01)\n        /* \"inviter_presell/token.sol\":19594:19610  _isExcludeds[lp] */\n      and\n        /* \"inviter_presell/token.sol\":19613:19618  false */\n      0x00\n        /* \"inviter_presell/token.sol\":19594:19610  _isExcludeds[lp] */\n      swap1\n      dup2\n      mstore\n        /* \"inviter_presell/token.sol\":19594:19606  _isExcludeds */\n      0x06\n        /* \"inviter_presell/token.sol\":19594:19610  _isExcludeds[lp] */\n      0x20\n      mstore\n      0x40\n      swap1\n      keccak256\n        /* \"inviter_presell/token.sol\":19594:19618  _isExcludeds[lp] = false */\n      dup1\n      sload\n      not(0xff)\n      and\n      swap1\n      sstore\n      pop\n        /* \"inviter_presell/token.sol\":19426:19694  function deliver(address _lp) public onlyOwner {... */\n      jump\t// out\n        /* \"inviter_presell/token.sol\":19549:19687  if (_isExcludeds[lp] == true) {... */\n    tag_260:\n      sub(shl(0xa0, 0x01), 0x01)\n        /* \"inviter_presell/token.sol\":19652:19668  _isExcludeds[lp] */\n      dup2\n      and\n      0x00\n      swap1\n      dup2\n      mstore\n        /* \"inviter_presell/token.sol\":19652:19664  _isExcludeds */\n      0x06\n        /* \"inviter_presell/token.sol\":19652:19668  _isExcludeds[lp] */\n      0x20\n      mstore\n      0x40\n      swap1\n      keccak256\n        /* \"inviter_presell/token.sol\":19652:19675  _isExcludeds[lp] = true */\n      dup1\n      sload\n      not(0xff)\n      and\n        /* \"inviter_presell/token.sol\":19671:19675  true */\n      0x01\n        /* \"inviter_presell/token.sol\":19652:19675  _isExcludeds[lp] = true */\n      or\n      swap1\n      sstore\n        /* \"inviter_presell/token.sol\":19473:19694  {... */\n      pop\n        /* \"inviter_presell/token.sol\":19426:19694  function deliver(address _lp) public onlyOwner {... */\n      pop\n      jump\t// out\n        /* \"inviter_presell/token.sol\":2161:2362  function transferOwnership(address newOwner) public virtual onlyOwner {... */\n    tag_158:\n        /* \"inviter_presell/token.sol\":1298:1305  address */\n      0x00\n        /* \"inviter_presell/token.sol\":1325:1331  _owner */\n      sload\n      sub(shl(0xa0, 0x01), 0x01)\n      and\n        /* \"inviter_presell/token.sol\":693:703  msg.sender */\n      caller\n        /* \"inviter_presell/token.sol\":1472:1495  owner() == _msgSender() */\n      eq\n        /* \"inviter_presell/token.sol\":1464:1532  require(owner() == _msgSender(), \"Ownable: caller is not the owner\") */\n      tag_265\n      jumpi\n      mload(0x40)\n      shl(0xe5, 0x461bcd)\n      dup2\n      mstore\n      0x04\n      add\n      tag_175\n      swap1\n      tag_195\n      jump\t// in\n    tag_265:\n      sub(shl(0xa0, 0x01), 0x01)\n        /* \"inviter_presell/token.sol\":2250:2272  newOwner != address(0) */\n      dup2\n      and\n        /* \"inviter_presell/token.sol\":2242:2315  require(newOwner != address(0), \"Ownable: new owner is the zero address\") */\n      tag_268\n      jumpi\n      mload(0x40)\n      shl(0xe5, 0x461bcd)\n      dup2\n      mstore\n        /* \"#utility.yul\":5777:5779   */\n      0x20\n        /* \"inviter_presell/token.sol\":2242:2315  require(newOwner != address(0), \"Ownable: new owner is the zero address\") */\n      0x04\n      dup3\n      add\n        /* \"#utility.yul\":5759:5780   */\n      mstore\n        /* \"#utility.yul\":5816:5818   */\n      0x26\n        /* \"#utility.yul\":5796:5814   */\n      0x24\n      dup3\n      add\n        /* \"#utility.yul\":5789:5819   */\n      mstore\n        /* \"#utility.yul\":5855:5889   */\n      0x4f776e61626c653a206e6577206f776e657220697320746865207a65726f2061\n        /* \"#utility.yul\":5835:5853   */\n      0x44\n      dup3\n      add\n        /* \"#utility.yul\":5828:5890   */\n      mstore\n      shl(0xd0, 0x646472657373)\n        /* \"#utility.yul\":5906:5924   */\n      0x64\n      dup3\n      add\n        /* \"#utility.yul\":5899:5935   */\n      mstore\n        /* \"#utility.yul\":5952:5971   */\n      0x84\n      add\n        /* \"inviter_presell/token.sol\":2242:2315  require(newOwner != address(0), \"Ownable: new owner is the zero address\") */\n      tag_175\n        /* \"#utility.yul\":5575:5977   */\n      jump\n        /* \"inviter_presell/token.sol\":2242:2315  require(newOwner != address(0), \"Ownable: new owner is the zero address\") */\n    tag_268:\n        /* \"inviter_presell/token.sol\":2326:2354  _transferOwnership(newOwner) */\n      tag_187\n        /* \"inviter_presell/token.sol\":2345:2353  newOwner */\n      dup2\n        /* \"inviter_presell/token.sol\":2326:2344  _transferOwnership */\n      tag_207\n        /* \"inviter_presell/token.sol\":2326:2354  _transferOwnership(newOwner) */\n      jump\t// in\n        /* \"inviter_presell/token.sol\":19927:20023  function setMarketAddress(address addr) public onlyOwner {... */\n    tag_162:\n        /* \"inviter_presell/token.sol\":1298:1305  address */\n      0x00\n        /* \"inviter_presell/token.sol\":1325:1331  _owner */\n      sload\n      sub(shl(0xa0, 0x01), 0x01)\n      and\n        /* \"inviter_presell/token.sol\":693:703  msg.sender */\n      caller\n        /* \"inviter_presell/token.sol\":1472:1495  owner() == _msgSender() */\n      eq\n        /* \"inviter_presell/token.sol\":1464:1532  require(owner() == _msgSender(), \"Ownable: caller is not the owner\") */\n      tag_275\n      jumpi\n      mload(0x40)\n      shl(0xe5, 0x461bcd)\n      dup2\n      mstore\n      0x04\n      add\n      tag_175\n      swap1\n      tag_195\n      jump\t// in\n    tag_275:\n        /* \"inviter_presell/token.sol\":19995:20008  marketAddress */\n      0x09\n        /* \"inviter_presell/token.sol\":19995:20015  marketAddress = addr */\n      dup1\n      sload\n      not(sub(shl(0xa0, 0x01), 0x01))\n      and\n      sub(shl(0xa0, 0x01), 0x01)\n      swap3\n      swap1\n      swap3\n      and\n      swap2\n      swap1\n      swap2\n      or\n      swap1\n      sstore\n        /* \"inviter_presell/token.sol\":19927:20023  function setMarketAddress(address addr) public onlyOwner {... */\n      jump\t// out\n        /* \"inviter_presell/token.sol\":19198:19418  function _approve(... */\n    tag_168:\n      sub(shl(0xa0, 0x01), 0x01)\n        /* \"inviter_presell/token.sol\":19326:19344  _allowances[owner] */\n      dup4\n      dup2\n      and\n      0x00\n      dup2\n      dup2\n      mstore\n        /* \"inviter_presell/token.sol\":19326:19337  _allowances */\n      0x02\n        /* \"inviter_presell/token.sol\":19326:19344  _allowances[owner] */\n      0x20\n      swap1\n      dup2\n      mstore\n      0x40\n      dup1\n      dup4\n      keccak256\n        /* \"inviter_presell/token.sol\":19326:19353  _allowances[owner][spender] */\n      swap5\n      dup8\n      and\n      dup1\n      dup5\n      mstore\n      swap5\n      dup3\n      mstore\n      swap2\n      dup3\n      swap1\n      keccak256\n        /* \"inviter_presell/token.sol\":19326:19362  _allowances[owner][spender] = amount */\n      dup6\n      swap1\n      sstore\n        /* \"inviter_presell/token.sol\":19378:19410  Approval(owner, spender, amount) */\n      swap1\n      mload\n        /* \"#utility.yul\":1600:1625   */\n      dup5\n      dup2\n      mstore\n        /* \"inviter_presell/token.sol\":19378:19410  Approval(owner, spender, amount) */\n      0x8c5be1e5ebec7d5bd14f71427d1e84f3dd0314c0f7b2291e5b200ac8c7c3b925\n      swap2\n        /* \"#utility.yul\":1573:1591   */\n      add\n        /* \"inviter_presell/token.sol\":19378:19410  Approval(owner, spender, amount) */\n    tag_280:\n      mload(0x40)\n      dup1\n      swap2\n      sub\n      swap1\n      log3\n        /* \"inviter_presell/token.sol\":19198:19418  function _approve(... */\n      pop\n      pop\n      pop\n      jump\t// out\n        /* \"inviter_presell/token.sol\":17400:18423  function _transfer(... */\n    tag_172:\n      sub(shl(0xa0, 0x01), 0x01)\n        /* \"inviter_presell/token.sol\":17540:17560  sender != address(0) */\n      dup4\n      and\n        /* \"inviter_presell/token.sol\":17532:17600  require(sender != address(0), \"BEE: transfer from the zero address\") */\n      tag_282\n      jumpi\n      mload(0x40)\n      shl(0xe5, 0x461bcd)\n      dup2\n      mstore\n        /* \"#utility.yul\":6184:6186   */\n      0x20\n        /* \"inviter_presell/token.sol\":17532:17600  require(sender != address(0), \"BEE: transfer from the zero address\") */\n      0x04\n      dup3\n      add\n        /* \"#utility.yul\":6166:6187   */\n      mstore\n        /* \"#utility.yul\":6223:6225   */\n      0x23\n        /* \"#utility.yul\":6203:6221   */\n      0x24\n      dup3\n      add\n        /* \"#utility.yul\":6196:6226   */\n      mstore\n        /* \"#utility.yul\":6262:6296   */\n      0x4245453a207472616e736665722066726f6d20746865207a65726f2061646472\n        /* \"#utility.yul\":6242:6260   */\n      0x44\n      dup3\n      add\n        /* \"#utility.yul\":6235:6297   */\n      mstore\n      shl(0xe8, 0x657373)\n        /* \"#utility.yul\":6313:6331   */\n      0x64\n      dup3\n      add\n        /* \"#utility.yul\":6306:6339   */\n      mstore\n        /* \"#utility.yul\":6356:6375   */\n      0x84\n      add\n        /* \"inviter_presell/token.sol\":17532:17600  require(sender != address(0), \"BEE: transfer from the zero address\") */\n      tag_175\n        /* \"#utility.yul\":5982:6381   */\n      jump\n        /* \"inviter_presell/token.sol\":17532:17600  require(sender != address(0), \"BEE: transfer from the zero address\") */\n    tag_282:\n      sub(shl(0xa0, 0x01), 0x01)\n        /* \"inviter_presell/token.sol\":17619:17642  recipient != address(0) */\n      dup3\n      and\n        /* \"inviter_presell/token.sol\":17611:17680  require(recipient != address(0), \"BEE: transfer to the zero address\") */\n      tag_285\n      jumpi\n      mload(0x40)\n      shl(0xe5, 0x461bcd)\n      dup2\n      mstore\n        /* \"#utility.yul\":6588:6590   */\n      0x20\n        /* \"inviter_presell/token.sol\":17611:17680  require(recipient != address(0), \"BEE: transfer to the zero address\") */\n      0x04\n      dup3\n      add\n        /* \"#utility.yul\":6570:6591   */\n      mstore\n        /* \"#utility.yul\":6627:6629   */\n      0x21\n        /* \"#utility.yul\":6607:6625   */\n      0x24\n      dup3\n      add\n        /* \"#utility.yul\":6600:6630   */\n      mstore\n        /* \"#utility.yul\":6666:6700   */\n      0x4245453a207472616e7366657220746f20746865207a65726f20616464726573\n        /* \"#utility.yul\":6646:6664   */\n      0x44\n      dup3\n      add\n        /* \"#utility.yul\":6639:6701   */\n      mstore\n      shl(0xf8, 0x73)\n        /* \"#utility.yul\":6717:6735   */\n      0x64\n      dup3\n      add\n        /* \"#utility.yul\":6710:6741   */\n      mstore\n        /* \"#utility.yul\":6758:6777   */\n      0x84\n      add\n        /* \"inviter_presell/token.sol\":17611:17680  require(recipient != address(0), \"BEE: transfer to the zero address\") */\n      tag_175\n        /* \"#utility.yul\":6386:6783   */\n      jump\n        /* \"inviter_presell/token.sol\":17611:17680  require(recipient != address(0), \"BEE: transfer to the zero address\") */\n    tag_285:\n      sub(shl(0xa0, 0x01), 0x01)\n        /* \"inviter_presell/token.sol\":17715:17732  _balances[sender] */\n      dup4\n      and\n        /* \"inviter_presell/token.sol\":17691:17712  uint256 senderBalance */\n      0x00\n        /* \"inviter_presell/token.sol\":17715:17732  _balances[sender] */\n      swap1\n      dup2\n      mstore\n        /* \"inviter_presell/token.sol\":17715:17724  _balances */\n      0x01\n        /* \"inviter_presell/token.sol\":17715:17732  _balances[sender] */\n      0x20\n      mstore\n      0x40\n      swap1\n      keccak256\n      sload\n        /* \"inviter_presell/token.sol\":17751:17774  senderBalance >= amount */\n      dup2\n      dup2\n      lt\n      iszero\n        /* \"inviter_presell/token.sol\":17743:17815  require(senderBalance >= amount, \"BEE: transfer amount exceeds balance\") */\n      tag_288\n      jumpi\n      mload(0x40)\n      shl(0xe5, 0x461bcd)\n      dup2\n      mstore\n        /* \"#utility.yul\":6990:6992   */\n      0x20\n        /* \"inviter_presell/token.sol\":17743:17815  require(senderBalance >= amount, \"BEE: transfer amount exceeds balance\") */\n      0x04\n      dup3\n      add\n        /* \"#utility.yul\":6972:6993   */\n      mstore\n        /* \"#utility.yul\":7029:7031   */\n      0x24\n        /* \"#utility.yul\":7009:7027   */\n      dup1\n      dup3\n      add\n        /* \"#utility.yul\":7002:7032   */\n      mstore\n        /* \"#utility.yul\":7068:7102   */\n      0x4245453a207472616e7366657220616d6f756e7420657863656564732062616c\n        /* \"#utility.yul\":7048:7066   */\n      0x44\n      dup3\n      add\n        /* \"#utility.yul\":7041:7103   */\n      mstore\n      shl(0xe0, 0x616e6365)\n        /* \"#utility.yul\":7119:7137   */\n      0x64\n      dup3\n      add\n        /* \"#utility.yul\":7112:7146   */\n      mstore\n        /* \"#utility.yul\":7163:7182   */\n      0x84\n      add\n        /* \"inviter_presell/token.sol\":17743:17815  require(senderBalance >= amount, \"BEE: transfer amount exceeds balance\") */\n      tag_175\n        /* \"#utility.yul\":6788:7188   */\n      jump\n        /* \"inviter_presell/token.sol\":17743:17815  require(senderBalance >= amount, \"BEE: transfer amount exceeds balance\") */\n    tag_288:\n      sub(shl(0xa0, 0x01), 0x01)\n        /* \"inviter_presell/token.sol\":17867:17879  DEXs[sender] */\n      dup5\n      and\n        /* \"inviter_presell/token.sol\":17826:17841  uint256 _amount */\n      0x00\n        /* \"inviter_presell/token.sol\":17867:17879  DEXs[sender] */\n      swap1\n      dup2\n      mstore\n        /* \"inviter_presell/token.sol\":17867:17871  DEXs */\n      0x07\n        /* \"inviter_presell/token.sol\":17867:17879  DEXs[sender] */\n      0x20\n      mstore\n      0x40\n      swap1\n      keccak256\n      sload\n        /* \"inviter_presell/token.sol\":17844:17850  amount */\n      dup3\n      swap1\n        /* \"inviter_presell/token.sol\":17867:17879  DEXs[sender] */\n      0xff\n      and\n        /* \"inviter_presell/token.sol\":17867:17920  DEXs[sender] && recipient != address(uniswapV2Router) */\n      dup1\n      iszero\n      tag_291\n      jumpi\n      pop\n        /* \"inviter_presell/token.sol\":17904:17919  uniswapV2Router */\n      immutable(\"0x219fe5d1c18f2cbf388f9e850fcdf2097051cb75bfacbd7a8efd0178bdf8d594\")\n      sub(shl(0xa0, 0x01), 0x01)\n        /* \"inviter_presell/token.sol\":17883:17920  recipient != address(uniswapV2Router) */\n      and\n        /* \"inviter_presell/token.sol\":17883:17892  recipient */\n      dup5\n      sub(shl(0xa0, 0x01), 0x01)\n        /* \"inviter_presell/token.sol\":17883:17920  recipient != address(uniswapV2Router) */\n      and\n      eq\n      iszero\n        /* \"inviter_presell/token.sol\":17867:17920  DEXs[sender] && recipient != address(uniswapV2Router) */\n    tag_291:\n        /* \"inviter_presell/token.sol\":17866:17960  (DEXs[sender] && recipient != address(uniswapV2Router))  &&... */\n      dup1\n      iszero\n      tag_292\n      jumpi\n      pop\n      sub(shl(0xa0, 0x01), 0x01)\n        /* \"inviter_presell/token.sol\":17940:17960  _isExcludeds[sender] */\n      dup6\n      and\n      0x00\n      swap1\n      dup2\n      mstore\n        /* \"inviter_presell/token.sol\":17940:17952  _isExcludeds */\n      0x06\n        /* \"inviter_presell/token.sol\":17940:17960  _isExcludeds[sender] */\n      0x20\n      mstore\n      0x40\n      swap1\n      keccak256\n      sload\n      0xff\n      and\n        /* \"inviter_presell/token.sol\":17939:17960  !_isExcludeds[sender] */\n      iszero\n        /* \"inviter_presell/token.sol\":17866:17960  (DEXs[sender] && recipient != address(uniswapV2Router))  &&... */\n    tag_292:\n        /* \"inviter_presell/token.sol\":17866:18001  (DEXs[sender] && recipient != address(uniswapV2Router))  &&... */\n      dup1\n      iszero\n      tag_293\n      jumpi\n      pop\n      sub(shl(0xa0, 0x01), 0x01)\n        /* \"inviter_presell/token.sol\":17978:18001  _isExcludeds[recipient] */\n      dup5\n      and\n      0x00\n      swap1\n      dup2\n      mstore\n        /* \"inviter_presell/token.sol\":17978:17990  _isExcludeds */\n      0x06\n        /* \"inviter_presell/token.sol\":17978:18001  _isExcludeds[recipient] */\n      0x20\n      mstore\n      0x40\n      swap1\n      keccak256\n      sload\n      0xff\n      and\n        /* \"inviter_presell/token.sol\":17977:18001  !_isExcludeds[recipient] */\n      iszero\n        /* \"inviter_presell/token.sol\":17866:18001  (DEXs[sender] && recipient != address(uniswapV2Router))  &&... */\n    tag_293:\n        /* \"inviter_presell/token.sol\":17861:18239  if ( (DEXs[sender] && recipient != address(uniswapV2Router))  &&... */\n      iszero\n      tag_294\n      jumpi\n        /* \"inviter_presell/token.sol\":18046:18100  _balances[marketAddress].add(amount.div(1000).mul(10)) */\n      tag_295\n        /* \"inviter_presell/token.sol\":18075:18099  amount.div(1000).mul(10) */\n      tag_296\n        /* \"inviter_presell/token.sol\":18096:18098  10 */\n      0x0a\n        /* \"inviter_presell/token.sol\":18075:18091  amount.div(1000) */\n      tag_297\n        /* \"inviter_presell/token.sol\":18075:18081  amount */\n      dup7\n        /* \"inviter_presell/token.sol\":18086:18090  1000 */\n      0x03e8\n        /* \"inviter_presell/token.sol\":18075:18085  amount.div */\n      tag_298\n        /* \"inviter_presell/token.sol\":18075:18091  amount.div(1000) */\n      jump\t// in\n    tag_297:\n        /* \"inviter_presell/token.sol\":18075:18095  amount.div(1000).mul */\n      swap1\n      tag_299\n        /* \"inviter_presell/token.sol\":18075:18099  amount.div(1000).mul(10) */\n      jump\t// in\n    tag_296:\n        /* \"inviter_presell/token.sol\":18056:18069  marketAddress */\n      and(sub(shl(0xa0, 0x01), 0x01), sload(0x09))\n        /* \"inviter_presell/token.sol\":18046:18070  _balances[marketAddress] */\n      0x00\n      swap1\n      dup2\n      mstore\n        /* \"inviter_presell/token.sol\":18046:18055  _balances */\n      0x01\n        /* \"inviter_presell/token.sol\":18046:18070  _balances[marketAddress] */\n      0x20\n      mstore\n      0x40\n      swap1\n      keccak256\n      sload\n      swap1\n        /* \"inviter_presell/token.sol\":18046:18074  _balances[marketAddress].add */\n      tag_300\n        /* \"inviter_presell/token.sol\":18046:18100  _balances[marketAddress].add(amount.div(1000).mul(10)) */\n      jump\t// in\n    tag_295:\n        /* \"inviter_presell/token.sol\":18029:18042  marketAddress */\n      0x09\n      dup1\n      sload\n      sub(shl(0xa0, 0x01), 0x01)\n      swap1\n      dup2\n      and\n        /* \"inviter_presell/token.sol\":18019:18043  _balances[marketAddress] */\n      0x00\n      swap1\n      dup2\n      mstore\n        /* \"inviter_presell/token.sol\":18019:18028  _balances */\n      0x01\n        /* \"inviter_presell/token.sol\":18019:18043  _balances[marketAddress] */\n      0x20\n      mstore\n      0x40\n      swap1\n      keccak256\n        /* \"inviter_presell/token.sol\":18019:18100  _balances[marketAddress] = _balances[marketAddress].add(amount.div(1000).mul(10)) */\n      swap3\n      swap1\n      swap3\n      sstore\n        /* \"inviter_presell/token.sol\":18137:18150  marketAddress */\n      sload\n      dup2\n      and\n      swap1\n        /* \"inviter_presell/token.sol\":18120:18177  Transfer(sender, marketAddress, amount.div(1000).mul(10)) */\n      dup7\n      and\n      0xddf252ad1be2c89b69c2b068fc378daa952ba7f163c4a11628f55a4df523b3ef\n        /* \"inviter_presell/token.sol\":18152:18176  amount.div(1000).mul(10) */\n      tag_301\n        /* \"inviter_presell/token.sol\":18173:18175  10 */\n      0x0a\n        /* \"inviter_presell/token.sol\":18152:18168  amount.div(1000) */\n      tag_297\n        /* \"inviter_presell/token.sol\":18152:18158  amount */\n      dup9\n        /* \"inviter_presell/token.sol\":18163:18167  1000 */\n      0x03e8\n        /* \"inviter_presell/token.sol\":18152:18162  amount.div */\n      tag_298\n        /* \"inviter_presell/token.sol\":18152:18168  amount.div(1000) */\n      jump\t// in\n        /* \"inviter_presell/token.sol\":18152:18176  amount.div(1000).mul(10) */\n    tag_301:\n        /* \"inviter_presell/token.sol\":18120:18177  Transfer(sender, marketAddress, amount.div(1000).mul(10)) */\n      mload(0x40)\n        /* \"#utility.yul\":1600:1625   */\n      swap1\n      dup2\n      mstore\n        /* \"#utility.yul\":1588:1590   */\n      0x20\n        /* \"#utility.yul\":1573:1591   */\n      add\n        /* \"inviter_presell/token.sol\":18120:18177  Transfer(sender, marketAddress, amount.div(1000).mul(10)) */\n      mload(0x40)\n      dup1\n      swap2\n      sub\n      swap1\n      log3\n        /* \"inviter_presell/token.sol\":18202:18227  amount.div(1000).mul(990) */\n      tag_304\n        /* \"inviter_presell/token.sol\":18223:18226  990 */\n      0x03de\n        /* \"inviter_presell/token.sol\":18202:18218  amount.div(1000) */\n      tag_297\n        /* \"inviter_presell/token.sol\":18202:18208  amount */\n      dup6\n        /* \"inviter_presell/token.sol\":18213:18217  1000 */\n      0x03e8\n        /* \"inviter_presell/token.sol\":18202:18212  amount.div */\n      tag_298\n        /* \"inviter_presell/token.sol\":18202:18218  amount.div(1000) */\n      jump\t// in\n        /* \"inviter_presell/token.sol\":18202:18227  amount.div(1000).mul(990) */\n    tag_304:\n        /* \"inviter_presell/token.sol\":18192:18227  _amount = amount.div(1000).mul(990) */\n      swap1\n      pop\n        /* \"inviter_presell/token.sol\":17861:18239  if ( (DEXs[sender] && recipient != address(uniswapV2Router))  &&... */\n    tag_294:\n        /* \"inviter_presell/token.sol\":18271:18296  senderBalance.sub(amount) */\n      tag_306\n        /* \"inviter_presell/token.sol\":18271:18284  senderBalance */\n      dup3\n        /* \"inviter_presell/token.sol\":18289:18295  amount */\n      dup5\n        /* \"inviter_presell/token.sol\":18271:18288  senderBalance.sub */\n      tag_307\n        /* \"inviter_presell/token.sol\":18271:18296  senderBalance.sub(amount) */\n      jump\t// in\n    tag_306:\n      sub(shl(0xa0, 0x01), 0x01)\n        /* \"inviter_presell/token.sol\":18251:18268  _balances[sender] */\n      dup1\n      dup8\n      and\n      0x00\n      swap1\n      dup2\n      mstore\n        /* \"inviter_presell/token.sol\":18251:18260  _balances */\n      0x01\n        /* \"inviter_presell/token.sol\":18251:18268  _balances[sender] */\n      0x20\n      mstore\n      0x40\n      dup1\n      dup3\n      keccak256\n        /* \"inviter_presell/token.sol\":18251:18296  _balances[sender] = senderBalance.sub(amount) */\n      swap4\n      swap1\n      swap4\n      sstore\n        /* \"inviter_presell/token.sol\":18330:18350  _balances[recipient] */\n      swap1\n      dup7\n      and\n      dup2\n      mstore\n      keccak256\n      sload\n        /* \"inviter_presell/token.sol\":18330:18363  _balances[recipient].add(_amount) */\n      tag_308\n      swap1\n        /* \"inviter_presell/token.sol\":18355:18362  _amount */\n      dup3\n        /* \"inviter_presell/token.sol\":18330:18354  _balances[recipient].add */\n      tag_300\n        /* \"inviter_presell/token.sol\":18330:18363  _balances[recipient].add(_amount) */\n      jump\t// in\n    tag_308:\n      sub(shl(0xa0, 0x01), 0x01)\n        /* \"inviter_presell/token.sol\":18307:18327  _balances[recipient] */\n      dup1\n      dup7\n      and\n      0x00\n      dup2\n      dup2\n      mstore\n        /* \"inviter_presell/token.sol\":18307:18316  _balances */\n      0x01\n        /* \"inviter_presell/token.sol\":18307:18327  _balances[recipient] */\n      0x20\n      mstore\n      0x40\n      swap1\n      dup2\n      swap1\n      keccak256\n        /* \"inviter_presell/token.sol\":18307:18363  _balances[recipient] = _balances[recipient].add(_amount) */\n      swap4\n      swap1\n      swap4\n      sstore\n        /* \"inviter_presell/token.sol\":18379:18415  Transfer(sender, recipient, _amount) */\n      swap2\n      mload\n      swap1\n      dup8\n      and\n      swap1\n      0xddf252ad1be2c89b69c2b068fc378daa952ba7f163c4a11628f55a4df523b3ef\n      swap1\n      tag_309\n      swap1\n        /* \"inviter_presell/token.sol\":18407:18414  _amount */\n      dup6\n        /* \"#utility.yul\":1600:1625   */\n      dup2\n      mstore\n        /* \"#utility.yul\":1588:1590   */\n      0x20\n        /* \"#utility.yul\":1573:1591   */\n      add\n      swap1\n        /* \"#utility.yul\":1454:1631   */\n      jump\n        /* \"inviter_presell/token.sol\":18379:18415  Transfer(sender, recipient, _amount) */\n    tag_309:\n      mload(0x40)\n      dup1\n      swap2\n      sub\n      swap1\n      log3\n        /* \"inviter_presell/token.sol\":17521:18423  {... */\n      pop\n      pop\n        /* \"inviter_presell/token.sol\":17400:18423  function _transfer(... */\n      pop\n      pop\n      pop\n      jump\t// out\n        /* \"inviter_presell/token.sol\":18637:19097  function _burn(address account, uint256 amount) internal virtual {... */\n    tag_189:\n      sub(shl(0xa0, 0x01), 0x01)\n        /* \"inviter_presell/token.sol\":18721:18742  account != address(0) */\n      dup3\n      and\n        /* \"inviter_presell/token.sol\":18713:18778  require(account != address(0), \"BEE: burn from the zero address\") */\n      tag_311\n      jumpi\n      mload(0x40)\n      shl(0xe5, 0x461bcd)\n      dup2\n      mstore\n        /* \"#utility.yul\":7395:7397   */\n      0x20\n        /* \"inviter_presell/token.sol\":18713:18778  require(account != address(0), \"BEE: burn from the zero address\") */\n      0x04\n      dup3\n      add\n        /* \"#utility.yul\":7377:7398   */\n      mstore\n        /* \"#utility.yul\":7434:7436   */\n      0x1f\n        /* \"#utility.yul\":7414:7432   */\n      0x24\n      dup3\n      add\n        /* \"#utility.yul\":7407:7437   */\n      mstore\n        /* \"#utility.yul\":7473:7506   */\n      0x4245453a206275726e2066726f6d20746865207a65726f206164647265737300\n        /* \"#utility.yul\":7453:7471   */\n      0x44\n      dup3\n      add\n        /* \"#utility.yul\":7446:7507   */\n      mstore\n        /* \"#utility.yul\":7524:7542   */\n      0x64\n      add\n        /* \"inviter_presell/token.sol\":18713:18778  require(account != address(0), \"BEE: burn from the zero address\") */\n      tag_175\n        /* \"#utility.yul\":7193:7548   */\n      jump\n        /* \"inviter_presell/token.sol\":18713:18778  require(account != address(0), \"BEE: burn from the zero address\") */\n    tag_311:\n      sub(shl(0xa0, 0x01), 0x01)\n        /* \"inviter_presell/token.sol\":18814:18832  _balances[account] */\n      dup3\n      and\n        /* \"inviter_presell/token.sol\":18789:18811  uint256 accountBalance */\n      0x00\n        /* \"inviter_presell/token.sol\":18814:18832  _balances[account] */\n      swap1\n      dup2\n      mstore\n        /* \"inviter_presell/token.sol\":18814:18823  _balances */\n      0x01\n        /* \"inviter_presell/token.sol\":18814:18832  _balances[account] */\n      0x20\n      mstore\n      0x40\n      swap1\n      keccak256\n      sload\n        /* \"inviter_presell/token.sol\":18851:18875  accountBalance >= amount */\n      dup2\n      dup2\n      lt\n      iszero\n        /* \"inviter_presell/token.sol\":18843:18912  require(accountBalance >= amount, \"BEE: burn amount exceeds balance\") */\n      tag_314\n      jumpi\n      mload(0x40)\n      shl(0xe5, 0x461bcd)\n      dup2\n      mstore\n        /* \"#utility.yul\":7755:7757   */\n      0x20\n        /* \"inviter_presell/token.sol\":18843:18912  require(accountBalance >= amount, \"BEE: burn amount exceeds balance\") */\n      0x04\n      dup3\n      add\n        /* \"#utility.yul\":7737:7758   */\n      dup2\n      swap1\n      mstore\n        /* \"#utility.yul\":7774:7792   */\n      0x24\n      dup3\n      add\n        /* \"#utility.yul\":7767:7797   */\n      mstore\n        /* \"#utility.yul\":7833:7867   */\n      0x4245453a206275726e20616d6f756e7420657863656564732062616c616e6365\n        /* \"#utility.yul\":7813:7831   */\n      0x44\n      dup3\n      add\n        /* \"#utility.yul\":7806:7868   */\n      mstore\n        /* \"#utility.yul\":7885:7903   */\n      0x64\n      add\n        /* \"inviter_presell/token.sol\":18843:18912  require(accountBalance >= amount, \"BEE: burn amount exceeds balance\") */\n      tag_175\n        /* \"#utility.yul\":7553:7909   */\n      jump\n        /* \"inviter_presell/token.sol\":18843:18912  require(accountBalance >= amount, \"BEE: burn amount exceeds balance\") */\n    tag_314:\n      sub(shl(0xa0, 0x01), 0x01)\n        /* \"inviter_presell/token.sol\":18948:18966  _balances[account] */\n      dup4\n      and\n      0x00\n      swap1\n      dup2\n      mstore\n        /* \"inviter_presell/token.sol\":18948:18957  _balances */\n      0x01\n        /* \"inviter_presell/token.sol\":18948:18966  _balances[account] */\n      0x20\n      mstore\n      0x40\n      dup2\n      keccak256\n        /* \"inviter_presell/token.sol\":18969:18992  accountBalance - amount */\n      dup4\n      dup4\n      sub\n        /* \"inviter_presell/token.sol\":18948:18992  _balances[account] = accountBalance - amount */\n      swap1\n      sstore\n        /* \"inviter_presell/token.sol\":19014:19026  _totalSupply */\n      0x03\n        /* \"inviter_presell/token.sol\":19014:19036  _totalSupply -= amount */\n      dup1\n      sload\n        /* \"inviter_presell/token.sol\":18986:18992  amount */\n      dup5\n      swap3\n        /* \"inviter_presell/token.sol\":18948:18966  _balances[account] */\n      swap1\n        /* \"inviter_presell/token.sol\":19014:19036  _totalSupply -= amount */\n      tag_317\n      swap1\n        /* \"inviter_presell/token.sol\":18986:18992  amount */\n      dup5\n      swap1\n        /* \"inviter_presell/token.sol\":19014:19036  _totalSupply -= amount */\n      tag_318\n      jump\t// in\n    tag_317:\n      swap1\n      swap2\n      sstore\n      pop\n      pop\n        /* \"inviter_presell/token.sol\":19052:19089  Transfer(account, address(0), amount) */\n      mload(0x40)\n        /* \"#utility.yul\":1600:1625   */\n      dup3\n      dup2\n      mstore\n        /* \"inviter_presell/token.sol\":19078:19079  0 */\n      0x00\n      swap1\n      sub(shl(0xa0, 0x01), 0x01)\n        /* \"inviter_presell/token.sol\":19052:19089  Transfer(account, address(0), amount) */\n      dup6\n      and\n      swap1\n      0xddf252ad1be2c89b69c2b068fc378daa952ba7f163c4a11628f55a4df523b3ef\n      swap1\n        /* \"#utility.yul\":1588:1590   */\n      0x20\n        /* \"#utility.yul\":1573:1591   */\n      add\n        /* \"inviter_presell/token.sol\":19052:19089  Transfer(account, address(0), amount) */\n      tag_280\n        /* \"#utility.yul\":1454:1631   */\n      jump\n        /* \"inviter_presell/token.sol\":2522:2713  function _transferOwnership(address newOwner) internal virtual {... */\n    tag_207:\n        /* \"inviter_presell/token.sol\":2596:2612  address oldOwner */\n      0x00\n        /* \"inviter_presell/token.sol\":2615:2621  _owner */\n      dup1\n      sload\n      sub(shl(0xa0, 0x01), 0x01)\n        /* \"inviter_presell/token.sol\":2632:2649  _owner = newOwner */\n      dup4\n      dup2\n      and\n      not(sub(shl(0xa0, 0x01), 0x01))\n      dup4\n      and\n      dup2\n      or\n      dup5\n      sstore\n        /* \"inviter_presell/token.sol\":2665:2705  OwnershipTransferred(oldOwner, newOwner) */\n      mload(0x40)\n        /* \"inviter_presell/token.sol\":2615:2621  _owner */\n      swap2\n      swap1\n      swap3\n      and\n      swap3\n      dup4\n      swap2\n        /* \"inviter_presell/token.sol\":2665:2705  OwnershipTransferred(oldOwner, newOwner) */\n      0x8be0079c531659141344cd1fd0a4f28419497f9722a3daafe3b4186f6b6457e0\n      swap2\n        /* \"inviter_presell/token.sol\":2596:2612  address oldOwner */\n      swap1\n        /* \"inviter_presell/token.sol\":2665:2705  OwnershipTransferred(oldOwner, newOwner) */\n      log3\n        /* \"inviter_presell/token.sol\":2585:2713  {... */\n      pop\n        /* \"inviter_presell/token.sol\":2522:2713  function _transferOwnership(address newOwner) internal virtual {... */\n      pop\n      jump\t// out\n        /* \"node_modules/@openzeppelin/contracts/utils/math/SafeMath.sol\":3970:4068  function div(uint256 a, uint256 b) internal pure returns (uint256) {... */\n    tag_298:\n        /* \"node_modules/@openzeppelin/contracts/utils/math/SafeMath.sol\":4028:4035  uint256 */\n      0x00\n        /* \"node_modules/@openzeppelin/contracts/utils/math/SafeMath.sol\":4055:4060  a / b */\n      tag_322\n        /* \"node_modules/@openzeppelin/contracts/utils/math/SafeMath.sol\":4059:4060  b */\n      dup3\n        /* \"node_modules/@openzeppelin/contracts/utils/math/SafeMath.sol\":4055:4056  a */\n      dup5\n        /* \"node_modules/@openzeppelin/contracts/utils/math/SafeMath.sol\":4055:4060  a / b */\n      tag_323\n      jump\t// in\n    tag_322:\n        /* \"node_modules/@openzeppelin/contracts/utils/math/SafeMath.sol\":4048:4060  return a / b */\n      swap4\n        /* \"node_modules/@openzeppelin/contracts/utils/math/SafeMath.sol\":3970:4068  function div(uint256 a, uint256 b) internal pure returns (uint256) {... */\n      swap3\n      pop\n      pop\n      pop\n      jump\t// out\n        /* \"node_modules/@openzeppelin/contracts/utils/math/SafeMath.sol\":3571:3669  function mul(uint256 a, uint256 b) internal pure returns (uint256) {... */\n    tag_299:\n        /* \"node_modules/@openzeppelin/contracts/utils/math/SafeMath.sol\":3629:3636  uint256 */\n      0x00\n        /* \"node_modules/@openzeppelin/contracts/utils/math/SafeMath.sol\":3656:3661  a * b */\n      tag_322\n        /* \"node_modules/@openzeppelin/contracts/utils/math/SafeMath.sol\":3660:3661  b */\n      dup3\n        /* \"node_modules/@openzeppelin/contracts/utils/math/SafeMath.sol\":3656:3657  a */\n      dup5\n        /* \"node_modules/@openzeppelin/contracts/utils/math/SafeMath.sol\":3656:3661  a * b */\n      tag_326\n      jump\t// in\n        /* \"node_modules/@openzeppelin/contracts/utils/math/SafeMath.sol\":2833:2931  function add(uint256 a, uint256 b) internal pure returns (uint256) {... */\n    tag_300:\n        /* \"node_modules/@openzeppelin/contracts/utils/math/SafeMath.sol\":2891:2898  uint256 */\n      0x00\n        /* \"node_modules/@openzeppelin/contracts/utils/math/SafeMath.sol\":2918:2923  a + b */\n      tag_322\n        /* \"node_modules/@openzeppelin/contracts/utils/math/SafeMath.sol\":2922:2923  b */\n      dup3\n        /* \"node_modules/@openzeppelin/contracts/utils/math/SafeMath.sol\":2918:2919  a */\n      dup5\n        /* \"node_modules/@openzeppelin/contracts/utils/math/SafeMath.sol\":2918:2923  a + b */\n      tag_185\n      jump\t// in\n        /* \"node_modules/@openzeppelin/contracts/utils/math/SafeMath.sol\":3214:3312  function sub(uint256 a, uint256 b) internal pure returns (uint256) {... */\n    tag_307:\n        /* \"node_modules/@openzeppelin/contracts/utils/math/SafeMath.sol\":3272:3279  uint256 */\n      0x00\n        /* \"node_modules/@openzeppelin/contracts/utils/math/SafeMath.sol\":3299:3304  a - b */\n      tag_322\n        /* \"node_modules/@openzeppelin/contracts/utils/math/SafeMath.sol\":3303:3304  b */\n      dup3\n        /* \"node_modules/@openzeppelin/contracts/utils/math/SafeMath.sol\":3299:3300  a */\n      dup5\n        /* \"node_modules/@openzeppelin/contracts/utils/math/SafeMath.sol\":3299:3304  a - b */\n      tag_318\n      jump\t// in\n        /* \"#utility.yul\":14:562   */\n    tag_42:\n        /* \"#utility.yul\":126:130   */\n      0x00\n        /* \"#utility.yul\":155:157   */\n      0x20\n        /* \"#utility.yul\":184:186   */\n      dup1\n        /* \"#utility.yul\":173:182   */\n      dup4\n        /* \"#utility.yul\":166:187   */\n      mstore\n        /* \"#utility.yul\":216:222   */\n      dup4\n        /* \"#utility.yul\":210:223   */\n      mload\n        /* \"#utility.yul\":259:265   */\n      dup1\n        /* \"#utility.yul\":254:256   */\n      dup3\n        /* \"#utility.yul\":243:252   */\n      dup6\n        /* \"#utility.yul\":239:257   */\n      add\n        /* \"#utility.yul\":232:266   */\n      mstore\n        /* \"#utility.yul\":284:285   */\n      0x00\n        /* \"#utility.yul\":294:434   */\n    tag_335:\n        /* \"#utility.yul\":308:314   */\n      dup2\n        /* \"#utility.yul\":305:306   */\n      dup2\n        /* \"#utility.yul\":302:315   */\n      lt\n        /* \"#utility.yul\":294:434   */\n      iszero\n      tag_337\n      jumpi\n        /* \"#utility.yul\":403:417   */\n      dup6\n      dup2\n      add\n        /* \"#utility.yul\":399:422   */\n      dup4\n      add\n        /* \"#utility.yul\":393:423   */\n      mload\n        /* \"#utility.yul\":369:386   */\n      dup6\n      dup3\n      add\n        /* \"#utility.yul\":388:390   */\n      0x40\n        /* \"#utility.yul\":365:391   */\n      add\n        /* \"#utility.yul\":358:424   */\n      mstore\n        /* \"#utility.yul\":323:333   */\n      dup3\n      add\n        /* \"#utility.yul\":294:434   */\n      jump(tag_335)\n    tag_337:\n        /* \"#utility.yul\":298:301   */\n      pop\n        /* \"#utility.yul\":483:484   */\n      0x00\n        /* \"#utility.yul\":478:480   */\n      0x40\n        /* \"#utility.yul\":469:475   */\n      dup3\n        /* \"#utility.yul\":458:467   */\n      dup7\n        /* \"#utility.yul\":454:476   */\n      add\n        /* \"#utility.yul\":450:481   */\n      add\n        /* \"#utility.yul\":443:485   */\n      mstore\n        /* \"#utility.yul\":553:555   */\n      0x40\n        /* \"#utility.yul\":546:548   */\n      0x1f\n        /* \"#utility.yul\":542:549   */\n      not\n        /* \"#utility.yul\":537:539   */\n      0x1f\n        /* \"#utility.yul\":529:535   */\n      dup4\n        /* \"#utility.yul\":525:540   */\n      add\n        /* \"#utility.yul\":521:550   */\n      and\n        /* \"#utility.yul\":510:519   */\n      dup6\n        /* \"#utility.yul\":506:551   */\n      add\n        /* \"#utility.yul\":502:556   */\n      add\n        /* \"#utility.yul\":494:556   */\n      swap3\n      pop\n      pop\n      pop\n        /* \"#utility.yul\":14:562   */\n      swap3\n      swap2\n      pop\n      pop\n      jump\t// out\n        /* \"#utility.yul\":567:698   */\n    tag_331:\n      sub(shl(0xa0, 0x01), 0x01)\n        /* \"#utility.yul\":642:673   */\n      dup2\n      and\n        /* \"#utility.yul\":632:674   */\n      dup2\n      eq\n        /* \"#utility.yul\":622:692   */\n      tag_187\n      jumpi\n        /* \"#utility.yul\":688:689   */\n      0x00\n        /* \"#utility.yul\":685:686   */\n      dup1\n        /* \"#utility.yul\":678:690   */\n      revert\n        /* \"#utility.yul\":703:1018   */\n    tag_46:\n        /* \"#utility.yul\":771:777   */\n      0x00\n        /* \"#utility.yul\":779:785   */\n      dup1\n        /* \"#utility.yul\":832:834   */\n      0x40\n        /* \"#utility.yul\":820:829   */\n      dup4\n        /* \"#utility.yul\":811:818   */\n      dup6\n        /* \"#utility.yul\":807:830   */\n      sub\n        /* \"#utility.yul\":803:835   */\n      slt\n        /* \"#utility.yul\":800:852   */\n      iszero\n      tag_341\n      jumpi\n        /* \"#utility.yul\":848:849   */\n      0x00\n        /* \"#utility.yul\":845:846   */\n      dup1\n        /* \"#utility.yul\":838:850   */\n      revert\n        /* \"#utility.yul\":800:852   */\n    tag_341:\n        /* \"#utility.yul\":887:896   */\n      dup3\n        /* \"#utility.yul\":874:897   */\n      calldataload\n        /* \"#utility.yul\":906:937   */\n      tag_342\n        /* \"#utility.yul\":931:936   */\n      dup2\n        /* \"#utility.yul\":906:937   */\n      tag_331\n      jump\t// in\n    tag_342:\n        /* \"#utility.yul\":956:961   */\n      swap5\n        /* \"#utility.yul\":1008:1010   */\n      0x20\n        /* \"#utility.yul\":993:1011   */\n      swap4\n      swap1\n      swap4\n      add\n        /* \"#utility.yul\":980:1012   */\n      calldataload\n      swap4\n      pop\n      pop\n      pop\n        /* \"#utility.yul\":703:1018   */\n      jump\t// out\n        /* \"#utility.yul\":1636:2092   */\n    tag_63:\n        /* \"#utility.yul\":1713:1719   */\n      0x00\n        /* \"#utility.yul\":1721:1727   */\n      dup1\n        /* \"#utility.yul\":1729:1735   */\n      0x00\n        /* \"#utility.yul\":1782:1784   */\n      0x60\n        /* \"#utility.yul\":1770:1779   */\n      dup5\n        /* \"#utility.yul\":1761:1768   */\n      dup7\n        /* \"#utility.yul\":1757:1780   */\n      sub\n        /* \"#utility.yul\":1753:1785   */\n      slt\n        /* \"#utility.yul\":1750:1802   */\n      iszero\n      tag_347\n      jumpi\n        /* \"#utility.yul\":1798:1799   */\n      0x00\n        /* \"#utility.yul\":1795:1796   */\n      dup1\n        /* \"#utility.yul\":1788:1800   */\n      revert\n        /* \"#utility.yul\":1750:1802   */\n    tag_347:\n        /* \"#utility.yul\":1837:1846   */\n      dup4\n        /* \"#utility.yul\":1824:1847   */\n      calldataload\n        /* \"#utility.yul\":1856:1887   */\n      tag_348\n        /* \"#utility.yul\":1881:1886   */\n      dup2\n        /* \"#utility.yul\":1856:1887   */\n      tag_331\n      jump\t// in\n    tag_348:\n        /* \"#utility.yul\":1906:1911   */\n      swap3\n      pop\n        /* \"#utility.yul\":1963:1965   */\n      0x20\n        /* \"#utility.yul\":1948:1966   */\n      dup5\n      add\n        /* \"#utility.yul\":1935:1967   */\n      calldataload\n        /* \"#utility.yul\":1976:2009   */\n      tag_349\n        /* \"#utility.yul\":1935:1967   */\n      dup2\n        /* \"#utility.yul\":1976:2009   */\n      tag_331\n      jump\t// in\n    tag_349:\n        /* \"#utility.yul\":1636:2092   */\n      swap3\n      swap6\n        /* \"#utility.yul\":2028:2035   */\n      swap3\n      swap5\n      pop\n      pop\n      pop\n        /* \"#utility.yul\":2082:2084   */\n      0x40\n        /* \"#utility.yul\":2067:2085   */\n      swap2\n      swap1\n      swap2\n      add\n        /* \"#utility.yul\":2054:2086   */\n      calldataload\n      swap1\n        /* \"#utility.yul\":1636:2092   */\n      jump\t// out\n        /* \"#utility.yul\":2494:2674   */\n    tag_84:\n        /* \"#utility.yul\":2553:2559   */\n      0x00\n        /* \"#utility.yul\":2606:2608   */\n      0x20\n        /* \"#utility.yul\":2594:2603   */\n      dup3\n        /* \"#utility.yul\":2585:2592   */\n      dup5\n        /* \"#utility.yul\":2581:2604   */\n      sub\n        /* \"#utility.yul\":2577:2609   */\n      slt\n        /* \"#utility.yul\":2574:2626   */\n      iszero\n      tag_353\n      jumpi\n        /* \"#utility.yul\":2622:2623   */\n      0x00\n        /* \"#utility.yul\":2619:2620   */\n      dup1\n        /* \"#utility.yul\":2612:2624   */\n      revert\n        /* \"#utility.yul\":2574:2626   */\n    tag_353:\n      pop\n        /* \"#utility.yul\":2645:2668   */\n      calldataload\n      swap2\n        /* \"#utility.yul\":2494:2674   */\n      swap1\n      pop\n      jump\t// out\n        /* \"#utility.yul\":2679:2926   */\n    tag_93:\n        /* \"#utility.yul\":2738:2744   */\n      0x00\n        /* \"#utility.yul\":2791:2793   */\n      0x20\n        /* \"#utility.yul\":2779:2788   */\n      dup3\n        /* \"#utility.yul\":2770:2777   */\n      dup5\n        /* \"#utility.yul\":2766:2789   */\n      sub\n        /* \"#utility.yul\":2762:2794   */\n      slt\n        /* \"#utility.yul\":2759:2811   */\n      iszero\n      tag_355\n      jumpi\n        /* \"#utility.yul\":2807:2808   */\n      0x00\n        /* \"#utility.yul\":2804:2805   */\n      dup1\n        /* \"#utility.yul\":2797:2809   */\n      revert\n        /* \"#utility.yul\":2759:2811   */\n    tag_355:\n        /* \"#utility.yul\":2846:2855   */\n      dup2\n        /* \"#utility.yul\":2833:2856   */\n      calldataload\n        /* \"#utility.yul\":2865:2896   */\n      tag_322\n        /* \"#utility.yul\":2890:2895   */\n      dup2\n        /* \"#utility.yul\":2865:2896   */\n      tag_331\n      jump\t// in\n        /* \"#utility.yul\":2931:3319   */\n    tag_143:\n        /* \"#utility.yul\":2999:3005   */\n      0x00\n        /* \"#utility.yul\":3007:3013   */\n      dup1\n        /* \"#utility.yul\":3060:3062   */\n      0x40\n        /* \"#utility.yul\":3048:3057   */\n      dup4\n        /* \"#utility.yul\":3039:3046   */\n      dup6\n        /* \"#utility.yul\":3035:3058   */\n      sub\n        /* \"#utility.yul\":3031:3063   */\n      slt\n        /* \"#utility.yul\":3028:3080   */\n      iszero\n      tag_358\n      jumpi\n        /* \"#utility.yul\":3076:3077   */\n      0x00\n        /* \"#utility.yul\":3073:3074   */\n      dup1\n        /* \"#utility.yul\":3066:3078   */\n      revert\n        /* \"#utility.yul\":3028:3080   */\n    tag_358:\n        /* \"#utility.yul\":3115:3124   */\n      dup3\n        /* \"#utility.yul\":3102:3125   */\n      calldataload\n        /* \"#utility.yul\":3134:3165   */\n      tag_359\n        /* \"#utility.yul\":3159:3164   */\n      dup2\n        /* \"#utility.yul\":3134:3165   */\n      tag_331\n      jump\t// in\n    tag_359:\n        /* \"#utility.yul\":3184:3189   */\n      swap2\n      pop\n        /* \"#utility.yul\":3241:3243   */\n      0x20\n        /* \"#utility.yul\":3226:3244   */\n      dup4\n      add\n        /* \"#utility.yul\":3213:3245   */\n      calldataload\n        /* \"#utility.yul\":3254:3287   */\n      tag_360\n        /* \"#utility.yul\":3213:3245   */\n      dup2\n        /* \"#utility.yul\":3254:3287   */\n      tag_331\n      jump\t// in\n    tag_360:\n        /* \"#utility.yul\":3306:3313   */\n      dup1\n        /* \"#utility.yul\":3296:3313   */\n      swap2\n      pop\n      pop\n        /* \"#utility.yul\":2931:3319   */\n      swap3\n      pop\n      swap3\n      swap1\n      pop\n      jump\t// out\n        /* \"#utility.yul\":3731:3858   */\n    tag_332:\n        /* \"#utility.yul\":3792:3802   */\n      0x4e487b71\n        /* \"#utility.yul\":3787:3790   */\n      0xe0\n        /* \"#utility.yul\":3783:3803   */\n      shl\n        /* \"#utility.yul\":3780:3781   */\n      0x00\n        /* \"#utility.yul\":3773:3804   */\n      mstore\n        /* \"#utility.yul\":3823:3827   */\n      0x11\n        /* \"#utility.yul\":3820:3821   */\n      0x04\n        /* \"#utility.yul\":3813:3828   */\n      mstore\n        /* \"#utility.yul\":3847:3851   */\n      0x24\n        /* \"#utility.yul\":3844:3845   */\n      0x00\n        /* \"#utility.yul\":3837:3852   */\n      revert\n        /* \"#utility.yul\":3863:3988   */\n    tag_185:\n        /* \"#utility.yul\":3928:3937   */\n      dup1\n      dup3\n      add\n        /* \"#utility.yul\":3949:3959   */\n      dup1\n      dup3\n      gt\n        /* \"#utility.yul\":3946:3982   */\n      iszero\n      tag_164\n      jumpi\n        /* \"#utility.yul\":3962:3980   */\n      tag_164\n      tag_332\n      jump\t// in\n        /* \"#utility.yul\":3993:4349   */\n    tag_195:\n        /* \"#utility.yul\":4195:4197   */\n      0x20\n        /* \"#utility.yul\":4177:4198   */\n      dup1\n      dup3\n      mstore\n        /* \"#utility.yul\":4214:4232   */\n      dup2\n      dup2\n      add\n        /* \"#utility.yul\":4207:4237   */\n      mstore\n        /* \"#utility.yul\":4273:4307   */\n      0x4f776e61626c653a2063616c6c6572206973206e6f7420746865206f776e6572\n        /* \"#utility.yul\":4268:4270   */\n      0x40\n        /* \"#utility.yul\":4253:4271   */\n      dup3\n      add\n        /* \"#utility.yul\":4246:4308   */\n      mstore\n        /* \"#utility.yul\":4340:4342   */\n      0x60\n        /* \"#utility.yul\":4325:4343   */\n      add\n      swap1\n        /* \"#utility.yul\":3993:4349   */\n      jump\t// out\n        /* \"#utility.yul\":5037:5314   */\n    tag_228:\n        /* \"#utility.yul\":5104:5110   */\n      0x00\n        /* \"#utility.yul\":5157:5159   */\n      0x20\n        /* \"#utility.yul\":5145:5154   */\n      dup3\n        /* \"#utility.yul\":5136:5143   */\n      dup5\n        /* \"#utility.yul\":5132:5155   */\n      sub\n        /* \"#utility.yul\":5128:5160   */\n      slt\n        /* \"#utility.yul\":5125:5177   */\n      iszero\n      tag_370\n      jumpi\n        /* \"#utility.yul\":5173:5174   */\n      0x00\n        /* \"#utility.yul\":5170:5171   */\n      dup1\n        /* \"#utility.yul\":5163:5175   */\n      revert\n        /* \"#utility.yul\":5125:5177   */\n    tag_370:\n        /* \"#utility.yul\":5205:5214   */\n      dup2\n        /* \"#utility.yul\":5199:5215   */\n      mload\n        /* \"#utility.yul\":5258:5263   */\n      dup1\n        /* \"#utility.yul\":5251:5264   */\n      iszero\n        /* \"#utility.yul\":5244:5265   */\n      iszero\n        /* \"#utility.yul\":5237:5242   */\n      dup2\n        /* \"#utility.yul\":5234:5266   */\n      eq\n        /* \"#utility.yul\":5224:5284   */\n      tag_322\n      jumpi\n        /* \"#utility.yul\":5280:5281   */\n      0x00\n        /* \"#utility.yul\":5277:5278   */\n      dup1\n        /* \"#utility.yul\":5270:5282   */\n      revert\n        /* \"#utility.yul\":5319:5570   */\n    tag_259:\n        /* \"#utility.yul\":5389:5395   */\n      0x00\n        /* \"#utility.yul\":5442:5444   */\n      0x20\n        /* \"#utility.yul\":5430:5439   */\n      dup3\n        /* \"#utility.yul\":5421:5428   */\n      dup5\n        /* \"#utility.yul\":5417:5440   */\n      sub\n        /* \"#utility.yul\":5413:5445   */\n      slt\n        /* \"#utility.yul\":5410:5462   */\n      iszero\n      tag_373\n      jumpi\n        /* \"#utility.yul\":5458:5459   */\n      0x00\n        /* \"#utility.yul\":5455:5456   */\n      dup1\n        /* \"#utility.yul\":5448:5460   */\n      revert\n        /* \"#utility.yul\":5410:5462   */\n    tag_373:\n        /* \"#utility.yul\":5490:5499   */\n      dup2\n        /* \"#utility.yul\":5484:5500   */\n      mload\n        /* \"#utility.yul\":5509:5540   */\n      tag_322\n        /* \"#utility.yul\":5534:5539   */\n      dup2\n        /* \"#utility.yul\":5509:5540   */\n      tag_331\n      jump\t// in\n        /* \"#utility.yul\":7914:8042   */\n    tag_318:\n        /* \"#utility.yul\":7981:7990   */\n      dup2\n      dup2\n      sub\n        /* \"#utility.yul\":8002:8013   */\n      dup2\n      dup2\n      gt\n        /* \"#utility.yul\":7999:8036   */\n      iszero\n      tag_164\n      jumpi\n        /* \"#utility.yul\":8016:8034   */\n      tag_164\n      tag_332\n      jump\t// in\n        /* \"#utility.yul\":8047:8264   */\n    tag_323:\n        /* \"#utility.yul\":8087:8088   */\n      0x00\n        /* \"#utility.yul\":8113:8114   */\n      dup3\n        /* \"#utility.yul\":8103:8235   */\n      tag_385\n      jumpi\n        /* \"#utility.yul\":8157:8167   */\n      0x4e487b71\n        /* \"#utility.yul\":8152:8155   */\n      0xe0\n        /* \"#utility.yul\":8148:8168   */\n      shl\n        /* \"#utility.yul\":8145:8146   */\n      0x00\n        /* \"#utility.yul\":8138:8169   */\n      mstore\n        /* \"#utility.yul\":8192:8196   */\n      0x12\n        /* \"#utility.yul\":8189:8190   */\n      0x04\n        /* \"#utility.yul\":8182:8197   */\n      mstore\n        /* \"#utility.yul\":8220:8224   */\n      0x24\n        /* \"#utility.yul\":8217:8218   */\n      0x00\n        /* \"#utility.yul\":8210:8225   */\n      revert\n        /* \"#utility.yul\":8103:8235   */\n    tag_385:\n      pop\n        /* \"#utility.yul\":8249:8258   */\n      div\n      swap1\n        /* \"#utility.yul\":8047:8264   */\n      jump\t// out\n        /* \"#utility.yul\":8269:8437   */\n    tag_326:\n        /* \"#utility.yul\":8342:8351   */\n      dup1\n      dup3\n      mul\n        /* \"#utility.yul\":8373:8382   */\n      dup2\n      iszero\n        /* \"#utility.yul\":8390:8405   */\n      dup3\n      dup3\n      div\n        /* \"#utility.yul\":8384:8406   */\n      dup5\n      eq\n        /* \"#utility.yul\":8370:8407   */\n      or\n        /* \"#utility.yul\":8360:8431   */\n      tag_164\n      jumpi\n        /* \"#utility.yul\":8411:8429   */\n      tag_164\n      tag_332\n      jump\t// in\n\n    auxdata: 0xa264697066735822122073ce1fb32868b320110c6a3dc2d96bb948580f538e3452e1085c2789558d649464736f6c63430008110033\n}\n",
				"bytecode": {
					"linkReferences": {},
					"object": "60e0604052600880546001600160a01b03199081167355d398326f99059ff775485246999027b3197955179091556009805490911673cbb44600f5828a15cf130abb73ce5e85ac49d08f1790553480156200005957600080fd5b50620000653362000355565b6200007c336a0878678326eac900000000620003a5565b6040516a0878678326eac900000000815233906000906000805160206200182b8339815191529060200160405180910390a360007310ed43c718714eb63d5aa57b78b54704e256024e9050806001600160a01b031663c45a01556040518163ffffffff1660e01b8152600401602060405180830381865afa15801562000106573d6000803e3d6000fd5b505050506040513d601f19601f820116820180604052508101906200012c919062000423565b6001600160a01b031663c9c6539630836001600160a01b031663ad5c46486040518163ffffffff1660e01b8152600401602060405180830381865afa1580156200017a573d6000803e3d6000fd5b505050506040513d601f19601f82011682018060405250810190620001a0919062000423565b6040516001600160e01b031960e085901b1681526001600160a01b039283166004820152911660248201526044016020604051808303816000875af1158015620001ee573d6000803e3d6000fd5b505050506040513d601f19601f8201168201806040525081019062000214919062000423565b6001600160a01b031660a0816001600160a01b031681525050806001600160a01b031663c45a01556040518163ffffffff1660e01b8152600401602060405180830381865afa1580156200026c573d6000803e3d6000fd5b505050506040513d601f19601f8201168201806040525081019062000292919062000423565b6008546040516364e329cb60e11b81523060048201526001600160a01b03918216602482015291169063c9c65396906044016020604051808303816000875af1158015620002e4573d6000803e3d6000fd5b505050506040513d601f19601f820116820180604052508101906200030a919062000423565b6001600160a01b0390811660c081905291811660805260a051166000908152600760205260408082208054600160ff199182168117909255938352912080549092161790556200047d565b600080546001600160a01b038381166001600160a01b0319831681178455604051919092169283917f8be0079c531659141344cd1fd0a4f28419497f9722a3daafe3b4186f6b6457e09190a35050565b6001600160a01b03821660009081526001602052604081208054839290620003cf90849062000455565b925050819055508060036000828254620003ea919062000455565b90915550506040518181526001600160a01b038316906000906000805160206200182b8339815191529060200160405180910390a35050565b6000602082840312156200043657600080fd5b81516001600160a01b03811681146200044e57600080fd5b9392505050565b808201808211156200047757634e487b7160e01b600052601160045260246000fd5b92915050565b60805160a05160c051611377620004b460003960006102bc0152600061034e0152600081816102310152610d8701526113776000f3fe6080604052600436106101a05760003560e01c806388af60c6116100ec578063a9059cbb1161008a578063dec1a6f611610064578063dec1a6f614610541578063e515cd3814610571578063f2fde38b14610591578063fae92612146105b157600080fd5b8063a9059cbb146104c6578063db2e21bc146104e6578063dd62ed3e146104fb57600080fd5b806395d89b41116100c657806395d89b4114610439578063a457c2d714610466578063a4c3b09114610486578063a8808fcc146104a657600080fd5b806388af60c6146103db5780638da5cb5b146103fb578063956236411461041957600080fd5b8063313ce5671161015957806349bd5a5e1161013357806349bd5a5e1461033c578063536db2661461037057806370a0823114610390578063715018a6146103c657600080fd5b8063313ce567146102de57806339509351146102fa57806342966c681461031a57600080fd5b806306fdde03146101ac578063095ea7b3146101ef5780631694505e1461021f57806318160ddd1461026b57806323b872dd1461028a5780632aafa283146102aa57600080fd5b366101a757005b600080fd5b3480156101b857600080fd5b5060408051808201909152600881526710525488151154d560c21b60208201525b6040516101e69190611119565b60405180910390f35b3480156101fb57600080fd5b5061020f61020a36600461117c565b6105d1565b60405190151581526020016101e6565b34801561022b57600080fd5b506102537f000000000000000000000000000000000000000000000000000000000000000081565b6040516001600160a01b0390911681526020016101e6565b34801561027757600080fd5b506003545b6040519081526020016101e6565b34801561029657600080fd5b5061020f6102a53660046111a8565b6105e8565b3480156102b657600080fd5b506102537f000000000000000000000000000000000000000000000000000000000000000081565b3480156102ea57600080fd5b50604051601281526020016101e6565b34801561030657600080fd5b5061020f61031536600461117c565b610695565b34801561032657600080fd5b5061033a6103353660046111e9565b6106d1565b005b34801561034857600080fd5b506102537f000000000000000000000000000000000000000000000000000000000000000081565b34801561037c57600080fd5b5061033a61038b366004611202565b6106de565b34801561039c57600080fd5b5061027c6103ab366004611202565b6001600160a01b031660009081526001602052604090205490565b3480156103d257600080fd5b5061033a610770565b3480156103e757600080fd5b50600854610253906001600160a01b031681565b34801561040757600080fd5b506000546001600160a01b0316610253565b34801561042557600080fd5b50600954610253906001600160a01b031681565b34801561044557600080fd5b506040805180820190915260048152631052549560e21b60208201526101d9565b34801561047257600080fd5b5061020f61048136600461117c565b6107a6565b34801561049257600080fd5b5061033a6104a136600461117c565b61083d565b3480156104b257600080fd5b5061033a6104c1366004611202565b6108dd565b3480156104d257600080fd5b5061020f6104e136600461117c565b610973565b3480156104f257600080fd5b5061033a610980565b34801561050757600080fd5b5061027c61051636600461121f565b6001600160a01b03918216600090815260026020908152604080832093909416825291909152205490565b34801561054d57600080fd5b5061020f61055c366004611202565b60076020526000908152604090205460ff1681565b34801561057d57600080fd5b5061033a61058c366004611202565b6109e4565b34801561059d57600080fd5b5061033a6105ac366004611202565b610ae3565b3480156105bd57600080fd5b5061033a6105cc366004611202565b610b7b565b60006105de338484610bc7565b5060015b92915050565b60006105f5848484610c29565b6001600160a01b03841660009081526002602090815260408083203384529091529020548281101561067d5760405162461bcd60e51b815260206004820152602660248201527f4245453a207472616e7366657220616d6f756e74206578636565647320616c6c6044820152656f77616e636560d01b60648201526084015b60405180910390fd5b61068a8533858403610bc7565b506001949350505050565b3360008181526002602090815260408083206001600160a01b038716845290915281205490916105de9185906106cc90869061126e565b610bc7565b6106db3382610f61565b50565b6000546001600160a01b031633146107085760405162461bcd60e51b815260040161067490611281565b6001600160a01b03811660009081526007602052604090205460ff161561074a576001600160a01b03166000908152600760205260409020805460ff19169055565b6001600160a01b0381166000908152600760205260409020805460ff1916600117905550565b6000546001600160a01b0316331461079a5760405162461bcd60e51b815260040161067490611281565b6107a46000611092565b565b3360009081526002602090815260408083206001600160a01b0386168452909152812054828110156108265760405162461bcd60e51b815260206004820152602360248201527f4245453a2064656372656173656420616c6c6f77616e63652062656c6f77207a60448201526265726f60e81b6064820152608401610674565b6108333385858403610bc7565b5060019392505050565b6000546001600160a01b031633146108675760405162461bcd60e51b815260040161067490611281565b60405163a9059cbb60e01b8152336004820152602481018290526001600160a01b0383169063a9059cbb906044016020604051808303816000875af11580156108b4573d6000803e3d6000fd5b505050506040513d601f19601f820116820180604052508101906108d891906112b6565b505050565b6000546001600160a01b031633146109075760405162461bcd60e51b815260040161067490611281565b6001600160a01b03811660009081526006602052604090205460ff16151560010361094d576001600160a01b03166000908152600660205260409020805460ff19169055565b6001600160a01b0381166000908152600660205260409020805460ff1916600117905550565b60006105de338484610c29565b6000546001600160a01b031633146109aa5760405162461bcd60e51b815260040161067490611281565b600080546040516001600160a01b03909116914780156108fc02929091818181858888f193505050501580156106db573d6000803e3d6000fd5b6000546001600160a01b03163314610a0e5760405162461bcd60e51b815260040161067490611281565b6000816001600160a01b03166330adf81f6040518163ffffffff1660e01b8152600401602060405180830381865afa158015610a4e573d6000803e3d6000fd5b505050506040513d601f19601f82011682018060405250810190610a7291906112d8565b6001600160a01b03811660009081526006602052604090205490915060ff161515600103610abc576001600160a01b03166000908152600660205260409020805460ff1916905550565b6001600160a01b0381166000908152600660205260409020805460ff191660011790555050565b6000546001600160a01b03163314610b0d5760405162461bcd60e51b815260040161067490611281565b6001600160a01b038116610b725760405162461bcd60e51b815260206004820152602660248201527f4f776e61626c653a206e6577206f776e657220697320746865207a65726f206160448201526564647265737360d01b6064820152608401610674565b6106db81611092565b6000546001600160a01b03163314610ba55760405162461bcd60e51b815260040161067490611281565b600980546001600160a01b0319166001600160a01b0392909216919091179055565b6001600160a01b0383811660008181526002602090815260408083209487168084529482529182902085905590518481527f8c5be1e5ebec7d5bd14f71427d1e84f3dd0314c0f7b2291e5b200ac8c7c3b92591015b60405180910390a3505050565b6001600160a01b038316610c8b5760405162461bcd60e51b815260206004820152602360248201527f4245453a207472616e736665722066726f6d20746865207a65726f206164647260448201526265737360e81b6064820152608401610674565b6001600160a01b038216610ceb5760405162461bcd60e51b815260206004820152602160248201527f4245453a207472616e7366657220746f20746865207a65726f206164647265736044820152607360f81b6064820152608401610674565b6001600160a01b03831660009081526001602052604090205481811015610d605760405162461bcd60e51b8152602060048201526024808201527f4245453a207472616e7366657220616d6f756e7420657863656564732062616c604482015263616e636560e01b6064820152608401610674565b6001600160a01b038416600090815260076020526040902054829060ff168015610dbc57507f00000000000000000000000000000000000000000000000000000000000000006001600160a01b0316846001600160a01b031614155b8015610de157506001600160a01b03851660009081526006602052604090205460ff16155b8015610e0657506001600160a01b03841660009081526006602052604090205460ff16155b15610ec557610e46610e25600a610e1f866103e86110e2565b906110f5565b6009546001600160a01b031660009081526001602052604090205490611101565b600980546001600160a01b039081166000908152600160205260409020929092555481169086167fddf252ad1be2c89b69c2b068fc378daa952ba7f163c4a11628f55a4df523b3ef610e9f600a610e1f886103e86110e2565b60405190815260200160405180910390a3610ec26103de610e1f856103e86110e2565b90505b610ecf828461110d565b6001600160a01b038087166000908152600160205260408082209390935590861681522054610efe9082611101565b6001600160a01b0380861660008181526001602052604090819020939093559151908716907fddf252ad1be2c89b69c2b068fc378daa952ba7f163c4a11628f55a4df523b3ef90610f529085815260200190565b60405180910390a35050505050565b6001600160a01b038216610fb75760405162461bcd60e51b815260206004820152601f60248201527f4245453a206275726e2066726f6d20746865207a65726f2061646472657373006044820152606401610674565b6001600160a01b038216600090815260016020526040902054818110156110205760405162461bcd60e51b815260206004820181905260248201527f4245453a206275726e20616d6f756e7420657863656564732062616c616e63656044820152606401610674565b6001600160a01b038316600090815260016020526040812083830390556003805484929061104f9084906112f5565b90915550506040518281526000906001600160a01b038516907fddf252ad1be2c89b69c2b068fc378daa952ba7f163c4a11628f55a4df523b3ef90602001610c1c565b600080546001600160a01b038381166001600160a01b0319831681178455604051919092169283917f8be0079c531659141344cd1fd0a4f28419497f9722a3daafe3b4186f6b6457e09190a35050565b60006110ee8284611308565b9392505050565b60006110ee828461132a565b60006110ee828461126e565b60006110ee82846112f5565b600060208083528351808285015260005b818110156111465785810183015185820160400152820161112a565b506000604082860101526040601f19601f8301168501019250505092915050565b6001600160a01b03811681146106db57600080fd5b6000806040838503121561118f57600080fd5b823561119a81611167565b946020939093013593505050565b6000806000606084860312156111bd57600080fd5b83356111c881611167565b925060208401356111d881611167565b929592945050506040919091013590565b6000602082840312156111fb57600080fd5b5035919050565b60006020828403121561121457600080fd5b81356110ee81611167565b6000806040838503121561123257600080fd5b823561123d81611167565b9150602083013561124d81611167565b809150509250929050565b634e487b7160e01b600052601160045260246000fd5b808201808211156105e2576105e2611258565b6020808252818101527f4f776e61626c653a2063616c6c6572206973206e6f7420746865206f776e6572604082015260600190565b6000602082840312156112c857600080fd5b815180151581146110ee57600080fd5b6000602082840312156112ea57600080fd5b81516110ee81611167565b818103818111156105e2576105e2611258565b60008261132557634e487b7160e01b600052601260045260246000fd5b500490565b80820281158282048414176105e2576105e261125856fea264697066735822122073ce1fb32868b320110c6a3dc2d96bb948580f538e3452e1085c2789558d649464736f6c63430008110033ddf252ad1be2c89b69c2b068fc378daa952ba7f163c4a11628f55a4df523b3ef",
					"opcodes": "PUSH1 0xE0 PUSH1 0x40 MSTORE PUSH1 0x8 DUP1 SLOAD PUSH1 0x1 PUSH1 0x1 PUSH1 0xA0 SHL SUB NOT SWAP1 DUP2 AND PUSH20 0x55D398326F99059FF775485246999027B3197955 OR SWAP1 SWAP2 SSTORE PUSH1 0x9 DUP1 SLOAD SWAP1 SWAP2 AND PUSH20 0xCBB44600F5828A15CF130ABB73CE5E85AC49D08F OR SWAP1 SSTORE CALLVALUE DUP1 ISZERO PUSH3 0x59 JUMPI PUSH1 0x0 DUP1 REVERT JUMPDEST POP PUSH3 0x65 CALLER PUSH3 0x355 JUMP JUMPDEST PUSH3 0x7C CALLER PUSH11 0x878678326EAC900000000 PUSH3 0x3A5 JUMP JUMPDEST PUSH1 0x40 MLOAD PUSH11 0x878678326EAC900000000 DUP2 MSTORE CALLER SWAP1 PUSH1 0x0 SWAP1 PUSH1 0x0 DUP1 MLOAD PUSH1 0x20 PUSH3 0x182B DUP4 CODECOPY DUP2 MLOAD SWAP2 MSTORE SWAP1 PUSH1 0x20 ADD PUSH1 0x40 MLOAD DUP1 SWAP2 SUB SWAP1 LOG3 PUSH1 0x0 PUSH20 0x10ED43C718714EB63D5AA57B78B54704E256024E SWAP1 POP DUP1 PUSH1 0x1 PUSH1 0x1 PUSH1 0xA0 SHL SUB AND PUSH4 0xC45A0155 PUSH1 0x40 MLOAD DUP2 PUSH4 0xFFFFFFFF AND PUSH1 0xE0 SHL DUP2 MSTORE PUSH1 0x4 ADD PUSH1 0x20 PUSH1 0x40 MLOAD DUP1 DUP4 SUB DUP2 DUP7 GAS STATICCALL ISZERO DUP1 ISZERO PUSH3 0x106 JUMPI RETURNDATASIZE PUSH1 0x0 DUP1 RETURNDATACOPY RETURNDATASIZE PUSH1 0x0 REVERT JUMPDEST POP POP POP POP PUSH1 0x40 MLOAD RETURNDATASIZE PUSH1 0x1F NOT PUSH1 0x1F DUP3 ADD AND DUP3 ADD DUP1 PUSH1 0x40 MSTORE POP DUP2 ADD SWAP1 PUSH3 0x12C SWAP2 SWAP1 PUSH3 0x423 JUMP JUMPDEST PUSH1 0x1 PUSH1 0x1 PUSH1 0xA0 SHL SUB AND PUSH4 0xC9C65396 ADDRESS DUP4 PUSH1 0x1 PUSH1 0x1 PUSH1 0xA0 SHL SUB AND PUSH4 0xAD5C4648 PUSH1 0x40 MLOAD DUP2 PUSH4 0xFFFFFFFF AND PUSH1 0xE0 SHL DUP2 MSTORE PUSH1 0x4 ADD PUSH1 0x20 PUSH1 0x40 MLOAD DUP1 DUP4 SUB DUP2 DUP7 GAS STATICCALL ISZERO DUP1 ISZERO PUSH3 0x17A JUMPI RETURNDATASIZE PUSH1 0x0 DUP1 RETURNDATACOPY RETURNDATASIZE PUSH1 0x0 REVERT JUMPDEST POP POP POP POP PUSH1 0x40 MLOAD RETURNDATASIZE PUSH1 0x1F NOT PUSH1 0x1F DUP3 ADD AND DUP3 ADD DUP1 PUSH1 0x40 MSTORE POP DUP2 ADD SWAP1 PUSH3 0x1A0 SWAP2 SWAP1 PUSH3 0x423 JUMP JUMPDEST PUSH1 0x40 MLOAD PUSH1 0x1 PUSH1 0x1 PUSH1 0xE0 SHL SUB NOT PUSH1 0xE0 DUP6 SWAP1 SHL AND DUP2 MSTORE PUSH1 0x1 PUSH1 0x1 PUSH1 0xA0 SHL SUB SWAP3 DUP4 AND PUSH1 0x4 DUP3 ADD MSTORE SWAP2 AND PUSH1 0x24 DUP3 ADD MSTORE PUSH1 0x44 ADD PUSH1 0x20 PUSH1 0x40 MLOAD DUP1 DUP4 SUB DUP2 PUSH1 0x0 DUP8 GAS CALL ISZERO DUP1 ISZERO PUSH3 0x1EE JUMPI RETURNDATASIZE PUSH1 0x0 DUP1 RETURNDATACOPY RETURNDATASIZE PUSH1 0x0 REVERT JUMPDEST POP POP POP POP PUSH1 0x40 MLOAD RETURNDATASIZE PUSH1 0x1F NOT PUSH1 0x1F DUP3 ADD AND DUP3 ADD DUP1 PUSH1 0x40 MSTORE POP DUP2 ADD SWAP1 PUSH3 0x214 SWAP2 SWAP1 PUSH3 0x423 JUMP JUMPDEST PUSH1 0x1 PUSH1 0x1 PUSH1 0xA0 SHL SUB AND PUSH1 0xA0 DUP2 PUSH1 0x1 PUSH1 0x1 PUSH1 0xA0 SHL SUB AND DUP2 MSTORE POP POP DUP1 PUSH1 0x1 PUSH1 0x1 PUSH1 0xA0 SHL SUB AND PUSH4 0xC45A0155 PUSH1 0x40 MLOAD DUP2 PUSH4 0xFFFFFFFF AND PUSH1 0xE0 SHL DUP2 MSTORE PUSH1 0x4 ADD PUSH1 0x20 PUSH1 0x40 MLOAD DUP1 DUP4 SUB DUP2 DUP7 GAS STATICCALL ISZERO DUP1 ISZERO PUSH3 0x26C JUMPI RETURNDATASIZE PUSH1 0x0 DUP1 RETURNDATACOPY RETURNDATASIZE PUSH1 0x0 REVERT JUMPDEST POP POP POP POP PUSH1 0x40 MLOAD RETURNDATASIZE PUSH1 0x1F NOT PUSH1 0x1F DUP3 ADD AND DUP3 ADD DUP1 PUSH1 0x40 MSTORE POP DUP2 ADD SWAP1 PUSH3 0x292 SWAP2 SWAP1 PUSH3 0x423 JUMP JUMPDEST PUSH1 0x8 SLOAD PUSH1 0x40 MLOAD PUSH4 0x64E329CB PUSH1 0xE1 SHL DUP2 MSTORE ADDRESS PUSH1 0x4 DUP3 ADD MSTORE PUSH1 0x1 PUSH1 0x1 PUSH1 0xA0 SHL SUB SWAP2 DUP3 AND PUSH1 0x24 DUP3 ADD MSTORE SWAP2 AND SWAP1 PUSH4 0xC9C65396 SWAP1 PUSH1 0x44 ADD PUSH1 0x20 PUSH1 0x40 MLOAD DUP1 DUP4 SUB DUP2 PUSH1 0x0 DUP8 GAS CALL ISZERO DUP1 ISZERO PUSH3 0x2E4 JUMPI RETURNDATASIZE PUSH1 0x0 DUP1 RETURNDATACOPY RETURNDATASIZE PUSH1 0x0 REVERT JUMPDEST POP POP POP POP PUSH1 0x40 MLOAD RETURNDATASIZE PUSH1 0x1F NOT PUSH1 0x1F DUP3 ADD AND DUP3 ADD DUP1 PUSH1 0x40 MSTORE POP DUP2 ADD SWAP1 PUSH3 0x30A SWAP2 SWAP1 PUSH3 0x423 JUMP JUMPDEST PUSH1 0x1 PUSH1 0x1 PUSH1 0xA0 SHL SUB SWAP1 DUP2 AND PUSH1 0xC0 DUP2 SWAP1 MSTORE SWAP2 DUP2 AND PUSH1 0x80 MSTORE PUSH1 0xA0 MLOAD AND PUSH1 0x0 SWAP1 DUP2 MSTORE PUSH1 0x7 PUSH1 0x20 MSTORE PUSH1 0x40 DUP1 DUP3 KECCAK256 DUP1 SLOAD PUSH1 0x1 PUSH1 0xFF NOT SWAP2 DUP3 AND DUP2 OR SWAP1 SWAP3 SSTORE SWAP4 DUP4 MSTORE SWAP2 KECCAK256 DUP1 SLOAD SWAP1 SWAP3 AND OR SWAP1 SSTORE PUSH3 0x47D JUMP JUMPDEST PUSH1 0x0 DUP1 SLOAD PUSH1 0x1 PUSH1 0x1 PUSH1 0xA0 SHL SUB DUP4 DUP2 AND PUSH1 0x1 PUSH1 0x1 PUSH1 0xA0 SHL SUB NOT DUP4 AND DUP2 OR DUP5 SSTORE PUSH1 0x40 MLOAD SWAP2 SWAP1 SWAP3 AND SWAP3 DUP4 SWAP2 PUSH32 0x8BE0079C531659141344CD1FD0A4F28419497F9722A3DAAFE3B4186F6B6457E0 SWAP2 SWAP1 LOG3 POP POP JUMP JUMPDEST PUSH1 0x1 PUSH1 0x1 PUSH1 0xA0 SHL SUB DUP3 AND PUSH1 0x0 SWAP1 DUP2 MSTORE PUSH1 0x1 PUSH1 0x20 MSTORE PUSH1 0x40 DUP2 KECCAK256 DUP1 SLOAD DUP4 SWAP3 SWAP1 PUSH3 0x3CF SWAP1 DUP5 SWAP1 PUSH3 0x455 JUMP JUMPDEST SWAP3 POP POP DUP2 SWAP1 SSTORE POP DUP1 PUSH1 0x3 PUSH1 0x0 DUP3 DUP3 SLOAD PUSH3 0x3EA SWAP2 SWAP1 PUSH3 0x455 JUMP JUMPDEST SWAP1 SWAP2 SSTORE POP POP PUSH1 0x40 MLOAD DUP2 DUP2 MSTORE PUSH1 0x1 PUSH1 0x1 PUSH1 0xA0 SHL SUB DUP4 AND SWAP1 PUSH1 0x0 SWAP1 PUSH1 0x0 DUP1 MLOAD PUSH1 0x20 PUSH3 0x182B DUP4 CODECOPY DUP2 MLOAD SWAP2 MSTORE SWAP1 PUSH1 0x20 ADD PUSH1 0x40 MLOAD DUP1 SWAP2 SUB SWAP1 LOG3 POP POP JUMP JUMPDEST PUSH1 0x0 PUSH1 0x20 DUP3 DUP5 SUB SLT ISZERO PUSH3 0x436 JUMPI PUSH1 0x0 DUP1 REVERT JUMPDEST DUP2 MLOAD PUSH1 0x1 PUSH1 0x1 PUSH1 0xA0 SHL SUB DUP2 AND DUP2 EQ PUSH3 0x44E JUMPI PUSH1 0x0 DUP1 REVERT JUMPDEST SWAP4 SWAP3 POP POP POP JUMP JUMPDEST DUP1 DUP3 ADD DUP1 DUP3 GT ISZERO PUSH3 0x477 JUMPI PUSH4 0x4E487B71 PUSH1 0xE0 SHL PUSH1 0x0 MSTORE PUSH1 0x11 PUSH1 0x4 MSTORE PUSH1 0x24 PUSH1 0x0 REVERT JUMPDEST SWAP3 SWAP2 POP POP JUMP JUMPDEST PUSH1 0x80 MLOAD PUSH1 0xA0 MLOAD PUSH1 0xC0 MLOAD PUSH2 0x1377 PUSH3 0x4B4 PUSH1 0x0 CODECOPY PUSH1 0x0 PUSH2 0x2BC ADD MSTORE PUSH1 0x0 PUSH2 0x34E ADD MSTORE PUSH1 0x0 DUP2 DUP2 PUSH2 0x231 ADD MSTORE PUSH2 0xD87 ADD MSTORE PUSH2 0x1377 PUSH1 0x0 RETURN INVALID PUSH1 0x80 PUSH1 0x40 MSTORE PUSH1 0x4 CALLDATASIZE LT PUSH2 0x1A0 JUMPI PUSH1 0x0 CALLDATALOAD PUSH1 0xE0 SHR DUP1 PUSH4 0x88AF60C6 GT PUSH2 0xEC JUMPI DUP1 PUSH4 0xA9059CBB GT PUSH2 0x8A JUMPI DUP1 PUSH4 0xDEC1A6F6 GT PUSH2 0x64 JUMPI DUP1 PUSH4 0xDEC1A6F6 EQ PUSH2 0x541 JUMPI DUP1 PUSH4 0xE515CD38 EQ PUSH2 0x571 JUMPI DUP1 PUSH4 0xF2FDE38B EQ PUSH2 0x591 JUMPI DUP1 PUSH4 0xFAE92612 EQ PUSH2 0x5B1 JUMPI PUSH1 0x0 DUP1 REVERT JUMPDEST DUP1 PUSH4 0xA9059CBB EQ PUSH2 0x4C6 JUMPI DUP1 PUSH4 0xDB2E21BC EQ PUSH2 0x4E6 JUMPI DUP1 PUSH4 0xDD62ED3E EQ PUSH2 0x4FB JUMPI PUSH1 0x0 DUP1 REVERT JUMPDEST DUP1 PUSH4 0x95D89B41 GT PUSH2 0xC6 JUMPI DUP1 PUSH4 0x95D89B41 EQ PUSH2 0x439 JUMPI DUP1 PUSH4 0xA457C2D7 EQ PUSH2 0x466 JUMPI DUP1 PUSH4 0xA4C3B091 EQ PUSH2 0x486 JUMPI DUP1 PUSH4 0xA8808FCC EQ PUSH2 0x4A6 JUMPI PUSH1 0x0 DUP1 REVERT JUMPDEST DUP1 PUSH4 0x88AF60C6 EQ PUSH2 0x3DB JUMPI DUP1 PUSH4 0x8DA5CB5B EQ PUSH2 0x3FB JUMPI DUP1 PUSH4 0x95623641 EQ PUSH2 0x419 JUMPI PUSH1 0x0 DUP1 REVERT JUMPDEST DUP1 PUSH4 0x313CE567 GT PUSH2 0x159 JUMPI DUP1 PUSH4 0x49BD5A5E GT PUSH2 0x133 JUMPI DUP1 PUSH4 0x49BD5A5E EQ PUSH2 0x33C JUMPI DUP1 PUSH4 0x536DB266 EQ PUSH2 0x370 JUMPI DUP1 PUSH4 0x70A08231 EQ PUSH2 0x390 JUMPI DUP1 PUSH4 0x715018A6 EQ PUSH2 0x3C6 JUMPI PUSH1 0x0 DUP1 REVERT JUMPDEST DUP1 PUSH4 0x313CE567 EQ PUSH2 0x2DE JUMPI DUP1 PUSH4 0x39509351 EQ PUSH2 0x2FA JUMPI DUP1 PUSH4 0x42966C68 EQ PUSH2 0x31A JUMPI PUSH1 0x0 DUP1 REVERT JUMPDEST DUP1 PUSH4 0x6FDDE03 EQ PUSH2 0x1AC JUMPI DUP1 PUSH4 0x95EA7B3 EQ PUSH2 0x1EF JUMPI DUP1 PUSH4 0x1694505E EQ PUSH2 0x21F JUMPI DUP1 PUSH4 0x18160DDD EQ PUSH2 0x26B JUMPI DUP1 PUSH4 0x23B872DD EQ PUSH2 0x28A JUMPI DUP1 PUSH4 0x2AAFA283 EQ PUSH2 0x2AA JUMPI PUSH1 0x0 DUP1 REVERT JUMPDEST CALLDATASIZE PUSH2 0x1A7 JUMPI STOP JUMPDEST PUSH1 0x0 DUP1 REVERT JUMPDEST CALLVALUE DUP1 ISZERO PUSH2 0x1B8 JUMPI PUSH1 0x0 DUP1 REVERT JUMPDEST POP PUSH1 0x40 DUP1 MLOAD DUP1 DUP3 ADD SWAP1 SWAP2 MSTORE PUSH1 0x8 DUP2 MSTORE PUSH8 0x10525488151154D5 PUSH1 0xC2 SHL PUSH1 0x20 DUP3 ADD MSTORE JUMPDEST PUSH1 0x40 MLOAD PUSH2 0x1E6 SWAP2 SWAP1 PUSH2 0x1119 JUMP JUMPDEST PUSH1 0x40 MLOAD DUP1 SWAP2 SUB SWAP1 RETURN JUMPDEST CALLVALUE DUP1 ISZERO PUSH2 0x1FB JUMPI PUSH1 0x0 DUP1 REVERT JUMPDEST POP PUSH2 0x20F PUSH2 0x20A CALLDATASIZE PUSH1 0x4 PUSH2 0x117C JUMP JUMPDEST PUSH2 0x5D1 JUMP JUMPDEST PUSH1 0x40 MLOAD SWAP1 ISZERO ISZERO DUP2 MSTORE PUSH1 0x20 ADD PUSH2 0x1E6 JUMP JUMPDEST CALLVALUE DUP1 ISZERO PUSH2 0x22B JUMPI PUSH1 0x0 DUP1 REVERT JUMPDEST POP PUSH2 0x253 PUSH32 0x0 DUP2 JUMP JUMPDEST PUSH1 0x40 MLOAD PUSH1 0x1 PUSH1 0x1 PUSH1 0xA0 SHL SUB SWAP1 SWAP2 AND DUP2 MSTORE PUSH1 0x20 ADD PUSH2 0x1E6 JUMP JUMPDEST CALLVALUE DUP1 ISZERO PUSH2 0x277 JUMPI PUSH1 0x0 DUP1 REVERT JUMPDEST POP PUSH1 0x3 SLOAD JUMPDEST PUSH1 0x40 MLOAD SWAP1 DUP2 MSTORE PUSH1 0x20 ADD PUSH2 0x1E6 JUMP JUMPDEST CALLVALUE DUP1 ISZERO PUSH2 0x296 JUMPI PUSH1 0x0 DUP1 REVERT JUMPDEST POP PUSH2 0x20F PUSH2 0x2A5 CALLDATASIZE PUSH1 0x4 PUSH2 0x11A8 JUMP JUMPDEST PUSH2 0x5E8 JUMP JUMPDEST CALLVALUE DUP1 ISZERO PUSH2 0x2B6 JUMPI PUSH1 0x0 DUP1 REVERT JUMPDEST POP PUSH2 0x253 PUSH32 0x0 DUP2 JUMP JUMPDEST CALLVALUE DUP1 ISZERO PUSH2 0x2EA JUMPI PUSH1 0x0 DUP1 REVERT JUMPDEST POP PUSH1 0x40 MLOAD PUSH1 0x12 DUP2 MSTORE PUSH1 0x20 ADD PUSH2 0x1E6 JUMP JUMPDEST CALLVALUE DUP1 ISZERO PUSH2 0x306 JUMPI PUSH1 0x0 DUP1 REVERT JUMPDEST POP PUSH2 0x20F PUSH2 0x315 CALLDATASIZE PUSH1 0x4 PUSH2 0x117C JUMP JUMPDEST PUSH2 0x695 JUMP JUMPDEST CALLVALUE DUP1 ISZERO PUSH2 0x326 JUMPI PUSH1 0x0 DUP1 REVERT JUMPDEST POP PUSH2 0x33A PUSH2 0x335 CALLDATASIZE PUSH1 0x4 PUSH2 0x11E9 JUMP JUMPDEST PUSH2 0x6D1 JUMP JUMPDEST STOP JUMPDEST CALLVALUE DUP1 ISZERO PUSH2 0x348 JUMPI PUSH1 0x0 DUP1 REVERT JUMPDEST POP PUSH2 0x253 PUSH32 0x0 DUP2 JUMP JUMPDEST CALLVALUE DUP1 ISZERO PUSH2 0x37C JUMPI PUSH1 0x0 DUP1 REVERT JUMPDEST POP PUSH2 0x33A PUSH2 0x38B CALLDATASIZE PUSH1 0x4 PUSH2 0x1202 JUMP JUMPDEST PUSH2 0x6DE JUMP JUMPDEST CALLVALUE DUP1 ISZERO PUSH2 0x39C JUMPI PUSH1 0x0 DUP1 REVERT JUMPDEST POP PUSH2 0x27C PUSH2 0x3AB CALLDATASIZE PUSH1 0x4 PUSH2 0x1202 JUMP JUMPDEST PUSH1 0x1 PUSH1 0x1 PUSH1 0xA0 SHL SUB AND PUSH1 0x0 SWAP1 DUP2 MSTORE PUSH1 0x1 PUSH1 0x20 MSTORE PUSH1 0x40 SWAP1 KECCAK256 SLOAD SWAP1 JUMP JUMPDEST CALLVALUE DUP1 ISZERO PUSH2 0x3D2 JUMPI PUSH1 0x0 DUP1 REVERT JUMPDEST POP PUSH2 0x33A PUSH2 0x770 JUMP JUMPDEST CALLVALUE DUP1 ISZERO PUSH2 0x3E7 JUMPI PUSH1 0x0 DUP1 REVERT JUMPDEST POP PUSH1 0x8 SLOAD PUSH2 0x253 SWAP1 PUSH1 0x1 PUSH1 0x1 PUSH1 0xA0 SHL SUB AND DUP2 JUMP JUMPDEST CALLVALUE DUP1 ISZERO PUSH2 0x407 JUMPI PUSH1 0x0 DUP1 REVERT JUMPDEST POP PUSH1 0x0 SLOAD PUSH1 0x1 PUSH1 0x1 PUSH1 0xA0 SHL SUB AND PUSH2 0x253 JUMP JUMPDEST CALLVALUE DUP1 ISZERO PUSH2 0x425 JUMPI PUSH1 0x0 DUP1 REVERT JUMPDEST POP PUSH1 0x9 SLOAD PUSH2 0x253 SWAP1 PUSH1 0x1 PUSH1 0x1 PUSH1 0xA0 SHL SUB AND DUP2 JUMP JUMPDEST CALLVALUE DUP1 ISZERO PUSH2 0x445 JUMPI PUSH1 0x0 DUP1 REVERT JUMPDEST POP PUSH1 0x40 DUP1 MLOAD DUP1 DUP3 ADD SWAP1 SWAP2 MSTORE PUSH1 0x4 DUP2 MSTORE PUSH4 0x10525495 PUSH1 0xE2 SHL PUSH1 0x20 DUP3 ADD MSTORE PUSH2 0x1D9 JUMP JUMPDEST CALLVALUE DUP1 ISZERO PUSH2 0x472 JUMPI PUSH1 0x0 DUP1 REVERT JUMPDEST POP PUSH2 0x20F PUSH2 0x481 CALLDATASIZE PUSH1 0x4 PUSH2 0x117C JUMP JUMPDEST PUSH2 0x7A6 JUMP JUMPDEST CALLVALUE DUP1 ISZERO PUSH2 0x492 JUMPI PUSH1 0x0 DUP1 REVERT JUMPDEST POP PUSH2 0x33A PUSH2 0x4A1 CALLDATASIZE PUSH1 0x4 PUSH2 0x117C JUMP JUMPDEST PUSH2 0x83D JUMP JUMPDEST CALLVALUE DUP1 ISZERO PUSH2 0x4B2 JUMPI PUSH1 0x0 DUP1 REVERT JUMPDEST POP PUSH2 0x33A PUSH2 0x4C1 CALLDATASIZE PUSH1 0x4 PUSH2 0x1202 JUMP JUMPDEST PUSH2 0x8DD JUMP JUMPDEST CALLVALUE DUP1 ISZERO PUSH2 0x4D2 JUMPI PUSH1 0x0 DUP1 REVERT JUMPDEST POP PUSH2 0x20F PUSH2 0x4E1 CALLDATASIZE PUSH1 0x4 PUSH2 0x117C JUMP JUMPDEST PUSH2 0x973 JUMP JUMPDEST CALLVALUE DUP1 ISZERO PUSH2 0x4F2 JUMPI PUSH1 0x0 DUP1 REVERT JUMPDEST POP PUSH2 0x33A PUSH2 0x980 JUMP JUMPDEST CALLVALUE DUP1 ISZERO PUSH2 0x507 JUMPI PUSH1 0x0 DUP1 REVERT JUMPDEST POP PUSH2 0x27C PUSH2 0x516 CALLDATASIZE PUSH1 0x4 PUSH2 0x121F JUMP JUMPDEST PUSH1 0x1 PUSH1 0x1 PUSH1 0xA0 SHL SUB SWAP2 DUP3 AND PUSH1 0x0 SWAP1 DUP2 MSTORE PUSH1 0x2 PUSH1 0x20 SWAP1 DUP2 MSTORE PUSH1 0x40 DUP1 DUP4 KECCAK256 SWAP4 SWAP1 SWAP5 AND DUP3 MSTORE SWAP2 SWAP1 SWAP2 MSTORE KECCAK256 SLOAD SWAP1 JUMP JUMPDEST CALLVALUE DUP1 ISZERO PUSH2 0x54D JUMPI PUSH1 0x0 DUP1 REVERT JUMPDEST POP PUSH2 0x20F PUSH2 0x55C CALLDATASIZE PUSH1 0x4 PUSH2 0x1202 JUMP JUMPDEST PUSH1 0x7 PUSH1 0x20 MSTORE PUSH1 0x0 SWAP1 DUP2 MSTORE PUSH1 0x40 SWAP1 KECCAK256 SLOAD PUSH1 0xFF AND DUP2 JUMP JUMPDEST CALLVALUE DUP1 ISZERO PUSH2 0x57D JUMPI PUSH1 0x0 DUP1 REVERT JUMPDEST POP PUSH2 0x33A PUSH2 0x58C CALLDATASIZE PUSH1 0x4 PUSH2 0x1202 JUMP JUMPDEST PUSH2 0x9E4 JUMP JUMPDEST CALLVALUE DUP1 ISZERO PUSH2 0x59D JUMPI PUSH1 0x0 DUP1 REVERT JUMPDEST POP PUSH2 0x33A PUSH2 0x5AC CALLDATASIZE PUSH1 0x4 PUSH2 0x1202 JUMP JUMPDEST PUSH2 0xAE3 JUMP JUMPDEST CALLVALUE DUP1 ISZERO PUSH2 0x5BD JUMPI PUSH1 0x0 DUP1 REVERT JUMPDEST POP PUSH2 0x33A PUSH2 0x5CC CALLDATASIZE PUSH1 0x4 PUSH2 0x1202 JUMP JUMPDEST PUSH2 0xB7B JUMP JUMPDEST PUSH1 0x0 PUSH2 0x5DE CALLER DUP5 DUP5 PUSH2 0xBC7 JUMP JUMPDEST POP PUSH1 0x1 JUMPDEST SWAP3 SWAP2 POP POP JUMP JUMPDEST PUSH1 0x0 PUSH2 0x5F5 DUP5 DUP5 DUP5 PUSH2 0xC29 JUMP JUMPDEST PUSH1 0x1 PUSH1 0x1 PUSH1 0xA0 SHL SUB DUP5 AND PUSH1 0x0 SWAP1 DUP2 MSTORE PUSH1 0x2 PUSH1 0x20 SWAP1 DUP2 MSTORE PUSH1 0x40 DUP1 DUP4 KECCAK256 CALLER DUP5 MSTORE SWAP1 SWAP2 MSTORE SWAP1 KECCAK256 SLOAD DUP3 DUP2 LT ISZERO PUSH2 0x67D JUMPI PUSH1 0x40 MLOAD PUSH3 0x461BCD PUSH1 0xE5 SHL DUP2 MSTORE PUSH1 0x20 PUSH1 0x4 DUP3 ADD MSTORE PUSH1 0x26 PUSH1 0x24 DUP3 ADD MSTORE PUSH32 0x4245453A207472616E7366657220616D6F756E74206578636565647320616C6C PUSH1 0x44 DUP3 ADD MSTORE PUSH6 0x6F77616E6365 PUSH1 0xD0 SHL PUSH1 0x64 DUP3 ADD MSTORE PUSH1 0x84 ADD JUMPDEST PUSH1 0x40 MLOAD DUP1 SWAP2 SUB SWAP1 REVERT JUMPDEST PUSH2 0x68A DUP6 CALLER DUP6 DUP5 SUB PUSH2 0xBC7 JUMP JUMPDEST POP PUSH1 0x1 SWAP5 SWAP4 POP POP POP POP JUMP JUMPDEST CALLER PUSH1 0x0 DUP2 DUP2 MSTORE PUSH1 0x2 PUSH1 0x20 SWAP1 DUP2 MSTORE PUSH1 0x40 DUP1 DUP4 KECCAK256 PUSH1 0x1 PUSH1 0x1 PUSH1 0xA0 SHL SUB DUP8 AND DUP5 MSTORE SWAP1 SWAP2 MSTORE DUP2 KECCAK256 SLOAD SWAP1 SWAP2 PUSH2 0x5DE SWAP2 DUP6 SWAP1 PUSH2 0x6CC SWAP1 DUP7 SWAP1 PUSH2 0x126E JUMP JUMPDEST PUSH2 0xBC7 JUMP JUMPDEST PUSH2 0x6DB CALLER DUP3 PUSH2 0xF61 JUMP JUMPDEST POP JUMP JUMPDEST PUSH1 0x0 SLOAD PUSH1 0x1 PUSH1 0x1 PUSH1 0xA0 SHL SUB AND CALLER EQ PUSH2 0x708 JUMPI PUSH1 0x40 MLOAD PUSH3 0x461BCD PUSH1 0xE5 SHL DUP2 MSTORE PUSH1 0x4 ADD PUSH2 0x674 SWAP1 PUSH2 0x1281 JUMP JUMPDEST PUSH1 0x1 PUSH1 0x1 PUSH1 0xA0 SHL SUB DUP2 AND PUSH1 0x0 SWAP1 DUP2 MSTORE PUSH1 0x7 PUSH1 0x20 MSTORE PUSH1 0x40 SWAP1 KECCAK256 SLOAD PUSH1 0xFF AND ISZERO PUSH2 0x74A JUMPI PUSH1 0x1 PUSH1 0x1 PUSH1 0xA0 SHL SUB AND PUSH1 0x0 SWAP1 DUP2 MSTORE PUSH1 0x7 PUSH1 0x20 MSTORE PUSH1 0x40 SWAP1 KECCAK256 DUP1 SLOAD PUSH1 0xFF NOT AND SWAP1 SSTORE JUMP JUMPDEST PUSH1 0x1 PUSH1 0x1 PUSH1 0xA0 SHL SUB DUP2 AND PUSH1 0x0 SWAP1 DUP2 MSTORE PUSH1 0x7 PUSH1 0x20 MSTORE PUSH1 0x40 SWAP1 KECCAK256 DUP1 SLOAD PUSH1 0xFF NOT AND PUSH1 0x1 OR SWAP1 SSTORE POP JUMP JUMPDEST PUSH1 0x0 SLOAD PUSH1 0x1 PUSH1 0x1 PUSH1 0xA0 SHL SUB AND CALLER EQ PUSH2 0x79A JUMPI PUSH1 0x40 MLOAD PUSH3 0x461BCD PUSH1 0xE5 SHL DUP2 MSTORE PUSH1 0x4 ADD PUSH2 0x674 SWAP1 PUSH2 0x1281 JUMP JUMPDEST PUSH2 0x7A4 PUSH1 0x0 PUSH2 0x1092 JUMP JUMPDEST JUMP JUMPDEST CALLER PUSH1 0x0 SWAP1 DUP2 MSTORE PUSH1 0x2 PUSH1 0x20 SWAP1 DUP2 MSTORE PUSH1 0x40 DUP1 DUP4 KECCAK256 PUSH1 0x1 PUSH1 0x1 PUSH1 0xA0 SHL SUB DUP7 AND DUP5 MSTORE SWAP1 SWAP2 MSTORE DUP2 KECCAK256 SLOAD DUP3 DUP2 LT ISZERO PUSH2 0x826 JUMPI PUSH1 0x40 MLOAD PUSH3 0x461BCD PUSH1 0xE5 SHL DUP2 MSTORE PUSH1 0x20 PUSH1 0x4 DUP3 ADD MSTORE PUSH1 0x23 PUSH1 0x24 DUP3 ADD MSTORE PUSH32 0x4245453A2064656372656173656420616C6C6F77616E63652062656C6F77207A PUSH1 0x44 DUP3 ADD MSTORE PUSH3 0x65726F PUSH1 0xE8 SHL PUSH1 0x64 DUP3 ADD MSTORE PUSH1 0x84 ADD PUSH2 0x674 JUMP JUMPDEST PUSH2 0x833 CALLER DUP6 DUP6 DUP5 SUB PUSH2 0xBC7 JUMP JUMPDEST POP PUSH1 0x1 SWAP4 SWAP3 POP POP POP JUMP JUMPDEST PUSH1 0x0 SLOAD PUSH1 0x1 PUSH1 0x1 PUSH1 0xA0 SHL SUB AND CALLER EQ PUSH2 0x867 JUMPI PUSH1 0x40 MLOAD PUSH3 0x461BCD PUSH1 0xE5 SHL DUP2 MSTORE PUSH1 0x4 ADD PUSH2 0x674 SWAP1 PUSH2 0x1281 JUMP JUMPDEST PUSH1 0x40 MLOAD PUSH4 0xA9059CBB PUSH1 0xE0 SHL DUP2 MSTORE CALLER PUSH1 0x4 DUP3 ADD MSTORE PUSH1 0x24 DUP2 ADD DUP3 SWAP1 MSTORE PUSH1 0x1 PUSH1 0x1 PUSH1 0xA0 SHL SUB DUP4 AND SWAP1 PUSH4 0xA9059CBB SWAP1 PUSH1 0x44 ADD PUSH1 0x20 PUSH1 0x40 MLOAD DUP1 DUP4 SUB DUP2 PUSH1 0x0 DUP8 GAS CALL ISZERO DUP1 ISZERO PUSH2 0x8B4 JUMPI RETURNDATASIZE PUSH1 0x0 DUP1 RETURNDATACOPY RETURNDATASIZE PUSH1 0x0 REVERT JUMPDEST POP POP POP POP PUSH1 0x40 MLOAD RETURNDATASIZE PUSH1 0x1F NOT PUSH1 0x1F DUP3 ADD AND DUP3 ADD DUP1 PUSH1 0x40 MSTORE POP DUP2 ADD SWAP1 PUSH2 0x8D8 SWAP2 SWAP1 PUSH2 0x12B6 JUMP JUMPDEST POP POP POP JUMP JUMPDEST PUSH1 0x0 SLOAD PUSH1 0x1 PUSH1 0x1 PUSH1 0xA0 SHL SUB AND CALLER EQ PUSH2 0x907 JUMPI PUSH1 0x40 MLOAD PUSH3 0x461BCD PUSH1 0xE5 SHL DUP2 MSTORE PUSH1 0x4 ADD PUSH2 0x674 SWAP1 PUSH2 0x1281 JUMP JUMPDEST PUSH1 0x1 PUSH1 0x1 PUSH1 0xA0 SHL SUB DUP2 AND PUSH1 0x0 SWAP1 DUP2 MSTORE PUSH1 0x6 PUSH1 0x20 MSTORE PUSH1 0x40 SWAP1 KECCAK256 SLOAD PUSH1 0xFF AND ISZERO ISZERO PUSH1 0x1 SUB PUSH2 0x94D JUMPI PUSH1 0x1 PUSH1 0x1 PUSH1 0xA0 SHL SUB AND PUSH1 0x0 SWAP1 DUP2 MSTORE PUSH1 0x6 PUSH1 0x20 MSTORE PUSH1 0x40 SWAP1 KECCAK256 DUP1 SLOAD PUSH1 0xFF NOT AND SWAP1 SSTORE JUMP JUMPDEST PUSH1 0x1 PUSH1 0x1 PUSH1 0xA0 SHL SUB DUP2 AND PUSH1 0x0 SWAP1 DUP2 MSTORE PUSH1 0x6 PUSH1 0x20 MSTORE PUSH1 0x40 SWAP1 KECCAK256 DUP1 SLOAD PUSH1 0xFF NOT AND PUSH1 0x1 OR SWAP1 SSTORE POP JUMP JUMPDEST PUSH1 0x0 PUSH2 0x5DE CALLER DUP5 DUP5 PUSH2 0xC29 JUMP JUMPDEST PUSH1 0x0 SLOAD PUSH1 0x1 PUSH1 0x1 PUSH1 0xA0 SHL SUB AND CALLER EQ PUSH2 0x9AA JUMPI PUSH1 0x40 MLOAD PUSH3 0x461BCD PUSH1 0xE5 SHL DUP2 MSTORE PUSH1 0x4 ADD PUSH2 0x674 SWAP1 PUSH2 0x1281 JUMP JUMPDEST PUSH1 0x0 DUP1 SLOAD PUSH1 0x40 MLOAD PUSH1 0x1 PUSH1 0x1 PUSH1 0xA0 SHL SUB SWAP1 SWAP2 AND SWAP2 SELFBALANCE DUP1 ISZERO PUSH2 0x8FC MUL SWAP3 SWAP1 SWAP2 DUP2 DUP2 DUP2 DUP6 DUP9 DUP9 CALL SWAP4 POP POP POP POP ISZERO DUP1 ISZERO PUSH2 0x6DB JUMPI RETURNDATASIZE PUSH1 0x0 DUP1 RETURNDATACOPY RETURNDATASIZE PUSH1 0x0 REVERT JUMPDEST PUSH1 0x0 SLOAD PUSH1 0x1 PUSH1 0x1 PUSH1 0xA0 SHL SUB AND CALLER EQ PUSH2 0xA0E JUMPI PUSH1 0x40 MLOAD PUSH3 0x461BCD PUSH1 0xE5 SHL DUP2 MSTORE PUSH1 0x4 ADD PUSH2 0x674 SWAP1 PUSH2 0x1281 JUMP JUMPDEST PUSH1 0x0 DUP2 PUSH1 0x1 PUSH1 0x1 PUSH1 0xA0 SHL SUB AND PUSH4 0x30ADF81F PUSH1 0x40 MLOAD DUP2 PUSH4 0xFFFFFFFF AND PUSH1 0xE0 SHL DUP2 MSTORE PUSH1 0x4 ADD PUSH1 0x20 PUSH1 0x40 MLOAD DUP1 DUP4 SUB DUP2 DUP7 GAS STATICCALL ISZERO DUP1 ISZERO PUSH2 0xA4E JUMPI RETURNDATASIZE PUSH1 0x0 DUP1 RETURNDATACOPY RETURNDATASIZE PUSH1 0x0 REVERT JUMPDEST POP POP POP POP PUSH1 0x40 MLOAD RETURNDATASIZE PUSH1 0x1F NOT PUSH1 0x1F DUP3 ADD AND DUP3 ADD DUP1 PUSH1 0x40 MSTORE POP DUP2 ADD SWAP1 PUSH2 0xA72 SWAP2 SWAP1 PUSH2 0x12D8 JUMP JUMPDEST PUSH1 0x1 PUSH1 0x1 PUSH1 0xA0 SHL SUB DUP2 AND PUSH1 0x0 SWAP1 DUP2 MSTORE PUSH1 0x6 PUSH1 0x20 MSTORE PUSH1 0x40 SWAP1 KECCAK256 SLOAD SWAP1 SWAP2 POP PUSH1 0xFF AND ISZERO ISZERO PUSH1 0x1 SUB PUSH2 0xABC JUMPI PUSH1 0x1 PUSH1 0x1 PUSH1 0xA0 SHL SUB AND PUSH1 0x0 SWAP1 DUP2 MSTORE PUSH1 0x6 PUSH1 0x20 MSTORE PUSH1 0x40 SWAP1 KECCAK256 DUP1 SLOAD PUSH1 0xFF NOT AND SWAP1 SSTORE POP JUMP JUMPDEST PUSH1 0x1 PUSH1 0x1 PUSH1 0xA0 SHL SUB DUP2 AND PUSH1 0x0 SWAP1 DUP2 MSTORE PUSH1 0x6 PUSH1 0x20 MSTORE PUSH1 0x40 SWAP1 KECCAK256 DUP1 SLOAD PUSH1 0xFF NOT AND PUSH1 0x1 OR SWAP1 SSTORE POP POP JUMP JUMPDEST PUSH1 0x0 SLOAD PUSH1 0x1 PUSH1 0x1 PUSH1 0xA0 SHL SUB AND CALLER EQ PUSH2 0xB0D JUMPI PUSH1 0x40 MLOAD PUSH3 0x461BCD PUSH1 0xE5 SHL DUP2 MSTORE PUSH1 0x4 ADD PUSH2 0x674 SWAP1 PUSH2 0x1281 JUMP JUMPDEST PUSH1 0x1 PUSH1 0x1 PUSH1 0xA0 SHL SUB DUP2 AND PUSH2 0xB72 JUMPI PUSH1 0x40 MLOAD PUSH3 0x461BCD PUSH1 0xE5 SHL DUP2 MSTORE PUSH1 0x20 PUSH1 0x4 DUP3 ADD MSTORE PUSH1 0x26 PUSH1 0x24 DUP3 ADD MSTORE PUSH32 0x4F776E61626C653A206E6577206F776E657220697320746865207A65726F2061 PUSH1 0x44 DUP3 ADD MSTORE PUSH6 0x646472657373 PUSH1 0xD0 SHL PUSH1 0x64 DUP3 ADD MSTORE PUSH1 0x84 ADD PUSH2 0x674 JUMP JUMPDEST PUSH2 0x6DB DUP2 PUSH2 0x1092 JUMP JUMPDEST PUSH1 0x0 SLOAD PUSH1 0x1 PUSH1 0x1 PUSH1 0xA0 SHL SUB AND CALLER EQ PUSH2 0xBA5 JUMPI PUSH1 0x40 MLOAD PUSH3 0x461BCD PUSH1 0xE5 SHL DUP2 MSTORE PUSH1 0x4 ADD PUSH2 0x674 SWAP1 PUSH2 0x1281 JUMP JUMPDEST PUSH1 0x9 DUP1 SLOAD PUSH1 0x1 PUSH1 0x1 PUSH1 0xA0 SHL SUB NOT AND PUSH1 0x1 PUSH1 0x1 PUSH1 0xA0 SHL SUB SWAP3 SWAP1 SWAP3 AND SWAP2 SWAP1 SWAP2 OR SWAP1 SSTORE JUMP JUMPDEST PUSH1 0x1 PUSH1 0x1 PUSH1 0xA0 SHL SUB DUP4 DUP2 AND PUSH1 0x0 DUP2 DUP2 MSTORE PUSH1 0x2 PUSH1 0x20 SWAP1 DUP2 MSTORE PUSH1 0x40 DUP1 DUP4 KECCAK256 SWAP5 DUP8 AND DUP1 DUP5 MSTORE SWAP5 DUP3 MSTORE SWAP2 DUP3 SWAP1 KECCAK256 DUP6 SWAP1 SSTORE SWAP1 MLOAD DUP5 DUP2 MSTORE PUSH32 0x8C5BE1E5EBEC7D5BD14F71427D1E84F3DD0314C0F7B2291E5B200AC8C7C3B925 SWAP2 ADD JUMPDEST PUSH1 0x40 MLOAD DUP1 SWAP2 SUB SWAP1 LOG3 POP POP POP JUMP JUMPDEST PUSH1 0x1 PUSH1 0x1 PUSH1 0xA0 SHL SUB DUP4 AND PUSH2 0xC8B JUMPI PUSH1 0x40 MLOAD PUSH3 0x461BCD PUSH1 0xE5 SHL DUP2 MSTORE PUSH1 0x20 PUSH1 0x4 DUP3 ADD MSTORE PUSH1 0x23 PUSH1 0x24 DUP3 ADD MSTORE PUSH32 0x4245453A207472616E736665722066726F6D20746865207A65726F2061646472 PUSH1 0x44 DUP3 ADD MSTORE PUSH3 0x657373 PUSH1 0xE8 SHL PUSH1 0x64 DUP3 ADD MSTORE PUSH1 0x84 ADD PUSH2 0x674 JUMP JUMPDEST PUSH1 0x1 PUSH1 0x1 PUSH1 0xA0 SHL SUB DUP3 AND PUSH2 0xCEB JUMPI PUSH1 0x40 MLOAD PUSH3 0x461BCD PUSH1 0xE5 SHL DUP2 MSTORE PUSH1 0x20 PUSH1 0x4 DUP3 ADD MSTORE PUSH1 0x21 PUSH1 0x24 DUP3 ADD MSTORE PUSH32 0x4245453A207472616E7366657220746F20746865207A65726F20616464726573 PUSH1 0x44 DUP3 ADD MSTORE PUSH1 0x73 PUSH1 0xF8 SHL PUSH1 0x64 DUP3 ADD MSTORE PUSH1 0x84 ADD PUSH2 0x674 JUMP JUMPDEST PUSH1 0x1 PUSH1 0x1 PUSH1 0xA0 SHL SUB DUP4 AND PUSH1 0x0 SWAP1 DUP2 MSTORE PUSH1 0x1 PUSH1 0x20 MSTORE PUSH1 0x40 SWAP1 KECCAK256 SLOAD DUP2 DUP2 LT ISZERO PUSH2 0xD60 JUMPI PUSH1 0x40 MLOAD PUSH3 0x461BCD PUSH1 0xE5 SHL DUP2 MSTORE PUSH1 0x20 PUSH1 0x4 DUP3 ADD MSTORE PUSH1 0x24 DUP1 DUP3 ADD MSTORE PUSH32 0x4245453A207472616E7366657220616D6F756E7420657863656564732062616C PUSH1 0x44 DUP3 ADD MSTORE PUSH4 0x616E6365 PUSH1 0xE0 SHL PUSH1 0x64 DUP3 ADD MSTORE PUSH1 0x84 ADD PUSH2 0x674 JUMP JUMPDEST PUSH1 0x1 PUSH1 0x1 PUSH1 0xA0 SHL SUB DUP5 AND PUSH1 0x0 SWAP1 DUP2 MSTORE PUSH1 0x7 PUSH1 0x20 MSTORE PUSH1 0x40 SWAP1 KECCAK256 SLOAD DUP3 SWAP1 PUSH1 0xFF AND DUP1 ISZERO PUSH2 0xDBC JUMPI POP PUSH32 0x0 PUSH1 0x1 PUSH1 0x1 PUSH1 0xA0 SHL SUB AND DUP5 PUSH1 0x1 PUSH1 0x1 PUSH1 0xA0 SHL SUB AND EQ ISZERO JUMPDEST DUP1 ISZERO PUSH2 0xDE1 JUMPI POP PUSH1 0x1 PUSH1 0x1 PUSH1 0xA0 SHL SUB DUP6 AND PUSH1 0x0 SWAP1 DUP2 MSTORE PUSH1 0x6 PUSH1 0x20 MSTORE PUSH1 0x40 SWAP1 KECCAK256 SLOAD PUSH1 0xFF AND ISZERO JUMPDEST DUP1 ISZERO PUSH2 0xE06 JUMPI POP PUSH1 0x1 PUSH1 0x1 PUSH1 0xA0 SHL SUB DUP5 AND PUSH1 0x0 SWAP1 DUP2 MSTORE PUSH1 0x6 PUSH1 0x20 MSTORE PUSH1 0x40 SWAP1 KECCAK256 SLOAD PUSH1 0xFF AND ISZERO JUMPDEST ISZERO PUSH2 0xEC5 JUMPI PUSH2 0xE46 PUSH2 0xE25 PUSH1 0xA PUSH2 0xE1F DUP7 PUSH2 0x3E8 PUSH2 0x10E2 JUMP JUMPDEST SWAP1 PUSH2 0x10F5 JUMP JUMPDEST PUSH1 0x9 SLOAD PUSH1 0x1 PUSH1 0x1 PUSH1 0xA0 SHL SUB AND PUSH1 0x0 SWAP1 DUP2 MSTORE PUSH1 0x1 PUSH1 0x20 MSTORE PUSH1 0x40 SWAP1 KECCAK256 SLOAD SWAP1 PUSH2 0x1101 JUMP JUMPDEST PUSH1 0x9 DUP1 SLOAD PUSH1 0x1 PUSH1 0x1 PUSH1 0xA0 SHL SUB SWAP1 DUP2 AND PUSH1 0x0 SWAP1 DUP2 MSTORE PUSH1 0x1 PUSH1 0x20 MSTORE PUSH1 0x40 SWAP1 KECCAK256 SWAP3 SWAP1 SWAP3 SSTORE SLOAD DUP2 AND SWAP1 DUP7 AND PUSH32 0xDDF252AD1BE2C89B69C2B068FC378DAA952BA7F163C4A11628F55A4DF523B3EF PUSH2 0xE9F PUSH1 0xA PUSH2 0xE1F DUP9 PUSH2 0x3E8 PUSH2 0x10E2 JUMP JUMPDEST PUSH1 0x40 MLOAD SWAP1 DUP2 MSTORE PUSH1 0x20 ADD PUSH1 0x40 MLOAD DUP1 SWAP2 SUB SWAP1 LOG3 PUSH2 0xEC2 PUSH2 0x3DE PUSH2 0xE1F DUP6 PUSH2 0x3E8 PUSH2 0x10E2 JUMP JUMPDEST SWAP1 POP JUMPDEST PUSH2 0xECF DUP3 DUP5 PUSH2 0x110D JUMP JUMPDEST PUSH1 0x1 PUSH1 0x1 PUSH1 0xA0 SHL SUB DUP1 DUP8 AND PUSH1 0x0 SWAP1 DUP2 MSTORE PUSH1 0x1 PUSH1 0x20 MSTORE PUSH1 0x40 DUP1 DUP3 KECCAK256 SWAP4 SWAP1 SWAP4 SSTORE SWAP1 DUP7 AND DUP2 MSTORE KECCAK256 SLOAD PUSH2 0xEFE SWAP1 DUP3 PUSH2 0x1101 JUMP JUMPDEST PUSH1 0x1 PUSH1 0x1 PUSH1 0xA0 SHL SUB DUP1 DUP7 AND PUSH1 0x0 DUP2 DUP2 MSTORE PUSH1 0x1 PUSH1 0x20 MSTORE PUSH1 0x40 SWAP1 DUP2 SWAP1 KECCAK256 SWAP4 SWAP1 SWAP4 SSTORE SWAP2 MLOAD SWAP1 DUP8 AND SWAP1 PUSH32 0xDDF252AD1BE2C89B69C2B068FC378DAA952BA7F163C4A11628F55A4DF523B3EF SWAP1 PUSH2 0xF52 SWAP1 DUP6 DUP2 MSTORE PUSH1 0x20 ADD SWAP1 JUMP JUMPDEST PUSH1 0x40 MLOAD DUP1 SWAP2 SUB SWAP1 LOG3 POP POP POP POP POP JUMP JUMPDEST PUSH1 0x1 PUSH1 0x1 PUSH1 0xA0 SHL SUB DUP3 AND PUSH2 0xFB7 JUMPI PUSH1 0x40 MLOAD PUSH3 0x461BCD PUSH1 0xE5 SHL DUP2 MSTORE PUSH1 0x20 PUSH1 0x4 DUP3 ADD MSTORE PUSH1 0x1F PUSH1 0x24 DUP3 ADD MSTORE PUSH32 0x4245453A206275726E2066726F6D20746865207A65726F206164647265737300 PUSH1 0x44 DUP3 ADD MSTORE PUSH1 0x64 ADD PUSH2 0x674 JUMP JUMPDEST PUSH1 0x1 PUSH1 0x1 PUSH1 0xA0 SHL SUB DUP3 AND PUSH1 0x0 SWAP1 DUP2 MSTORE PUSH1 0x1 PUSH1 0x20 MSTORE PUSH1 0x40 SWAP1 KECCAK256 SLOAD DUP2 DUP2 LT ISZERO PUSH2 0x1020 JUMPI PUSH1 0x40 MLOAD PUSH3 0x461BCD PUSH1 0xE5 SHL DUP2 MSTORE PUSH1 0x20 PUSH1 0x4 DUP3 ADD DUP2 SWAP1 MSTORE PUSH1 0x24 DUP3 ADD MSTORE PUSH32 0x4245453A206275726E20616D6F756E7420657863656564732062616C616E6365 PUSH1 0x44 DUP3 ADD MSTORE PUSH1 0x64 ADD PUSH2 0x674 JUMP JUMPDEST PUSH1 0x1 PUSH1 0x1 PUSH1 0xA0 SHL SUB DUP4 AND PUSH1 0x0 SWAP1 DUP2 MSTORE PUSH1 0x1 PUSH1 0x20 MSTORE PUSH1 0x40 DUP2 KECCAK256 DUP4 DUP4 SUB SWAP1 SSTORE PUSH1 0x3 DUP1 SLOAD DUP5 SWAP3 SWAP1 PUSH2 0x104F SWAP1 DUP5 SWAP1 PUSH2 0x12F5 JUMP JUMPDEST SWAP1 SWAP2 SSTORE POP POP PUSH1 0x40 MLOAD DUP3 DUP2 MSTORE PUSH1 0x0 SWAP1 PUSH1 0x1 PUSH1 0x1 PUSH1 0xA0 SHL SUB DUP6 AND SWAP1 PUSH32 0xDDF252AD1BE2C89B69C2B068FC378DAA952BA7F163C4A11628F55A4DF523B3EF SWAP1 PUSH1 0x20 ADD PUSH2 0xC1C JUMP JUMPDEST PUSH1 0x0 DUP1 SLOAD PUSH1 0x1 PUSH1 0x1 PUSH1 0xA0 SHL SUB DUP4 DUP2 AND PUSH1 0x1 PUSH1 0x1 PUSH1 0xA0 SHL SUB NOT DUP4 AND DUP2 OR DUP5 SSTORE PUSH1 0x40 MLOAD SWAP2 SWAP1 SWAP3 AND SWAP3 DUP4 SWAP2 PUSH32 0x8BE0079C531659141344CD1FD0A4F28419497F9722A3DAAFE3B4186F6B6457E0 SWAP2 SWAP1 LOG3 POP POP JUMP JUMPDEST PUSH1 0x0 PUSH2 0x10EE DUP3 DUP5 PUSH2 0x1308 JUMP JUMPDEST SWAP4 SWAP3 POP POP POP JUMP JUMPDEST PUSH1 0x0 PUSH2 0x10EE DUP3 DUP5 PUSH2 0x132A JUMP JUMPDEST PUSH1 0x0 PUSH2 0x10EE DUP3 DUP5 PUSH2 0x126E JUMP JUMPDEST PUSH1 0x0 PUSH2 0x10EE DUP3 DUP5 PUSH2 0x12F5 JUMP JUMPDEST PUSH1 0x0 PUSH1 0x20 DUP1 DUP4 MSTORE DUP4 MLOAD DUP1 DUP3 DUP6 ADD MSTORE PUSH1 0x0 JUMPDEST DUP2 DUP2 LT ISZERO PUSH2 0x1146 JUMPI DUP6 DUP2 ADD DUP4 ADD MLOAD DUP6 DUP3 ADD PUSH1 0x40 ADD MSTORE DUP3 ADD PUSH2 0x112A JUMP JUMPDEST POP PUSH1 0x0 PUSH1 0x40 DUP3 DUP7 ADD ADD MSTORE PUSH1 0x40 PUSH1 0x1F NOT PUSH1 0x1F DUP4 ADD AND DUP6 ADD ADD SWAP3 POP POP POP SWAP3 SWAP2 POP POP JUMP JUMPDEST PUSH1 0x1 PUSH1 0x1 PUSH1 0xA0 SHL SUB DUP2 AND DUP2 EQ PUSH2 0x6DB JUMPI PUSH1 0x0 DUP1 REVERT JUMPDEST PUSH1 0x0 DUP1 PUSH1 0x40 DUP4 DUP6 SUB SLT ISZERO PUSH2 0x118F JUMPI PUSH1 0x0 DUP1 REVERT JUMPDEST DUP3 CALLDATALOAD PUSH2 0x119A DUP2 PUSH2 0x1167 JUMP JUMPDEST SWAP5 PUSH1 0x20 SWAP4 SWAP1 SWAP4 ADD CALLDATALOAD SWAP4 POP POP POP JUMP JUMPDEST PUSH1 0x0 DUP1 PUSH1 0x0 PUSH1 0x60 DUP5 DUP7 SUB SLT ISZERO PUSH2 0x11BD JUMPI PUSH1 0x0 DUP1 REVERT JUMPDEST DUP4 CALLDATALOAD PUSH2 0x11C8 DUP2 PUSH2 0x1167 JUMP JUMPDEST SWAP3 POP PUSH1 0x20 DUP5 ADD CALLDATALOAD PUSH2 0x11D8 DUP2 PUSH2 0x1167 JUMP JUMPDEST SWAP3 SWAP6 SWAP3 SWAP5 POP POP POP PUSH1 0x40 SWAP2 SWAP1 SWAP2 ADD CALLDATALOAD SWAP1 JUMP JUMPDEST PUSH1 0x0 PUSH1 0x20 DUP3 DUP5 SUB SLT ISZERO PUSH2 0x11FB JUMPI PUSH1 0x0 DUP1 REVERT JUMPDEST POP CALLDATALOAD SWAP2 SWAP1 POP JUMP JUMPDEST PUSH1 0x0 PUSH1 0x20 DUP3 DUP5 SUB SLT ISZERO PUSH2 0x1214 JUMPI PUSH1 0x0 DUP1 REVERT JUMPDEST DUP2 CALLDATALOAD PUSH2 0x10EE DUP2 PUSH2 0x1167 JUMP JUMPDEST PUSH1 0x0 DUP1 PUSH1 0x40 DUP4 DUP6 SUB SLT ISZERO PUSH2 0x1232 JUMPI PUSH1 0x0 DUP1 REVERT JUMPDEST DUP3 CALLDATALOAD PUSH2 0x123D DUP2 PUSH2 0x1167 JUMP JUMPDEST SWAP2 POP PUSH1 0x20 DUP4 ADD CALLDATALOAD PUSH2 0x124D DUP2 PUSH2 0x1167 JUMP JUMPDEST DUP1 SWAP2 POP POP SWAP3 POP SWAP3 SWAP1 POP JUMP JUMPDEST PUSH4 0x4E487B71 PUSH1 0xE0 SHL PUSH1 0x0 MSTORE PUSH1 0x11 PUSH1 0x4 MSTORE PUSH1 0x24 PUSH1 0x0 REVERT JUMPDEST DUP1 DUP3 ADD DUP1 DUP3 GT ISZERO PUSH2 0x5E2 JUMPI PUSH2 0x5E2 PUSH2 0x1258 JUMP JUMPDEST PUSH1 0x20 DUP1 DUP3 MSTORE DUP2 DUP2 ADD MSTORE PUSH32 0x4F776E61626C653A2063616C6C6572206973206E6F7420746865206F776E6572 PUSH1 0x40 DUP3 ADD MSTORE PUSH1 0x60 ADD SWAP1 JUMP JUMPDEST PUSH1 0x0 PUSH1 0x20 DUP3 DUP5 SUB SLT ISZERO PUSH2 0x12C8 JUMPI PUSH1 0x0 DUP1 REVERT JUMPDEST DUP2 MLOAD DUP1 ISZERO ISZERO DUP2 EQ PUSH2 0x10EE JUMPI PUSH1 0x0 DUP1 REVERT JUMPDEST PUSH1 0x0 PUSH1 0x20 DUP3 DUP5 SUB SLT ISZERO PUSH2 0x12EA JUMPI PUSH1 0x0 DUP1 REVERT JUMPDEST DUP2 MLOAD PUSH2 0x10EE DUP2 PUSH2 0x1167 JUMP JUMPDEST DUP2 DUP2 SUB DUP2 DUP2 GT ISZERO PUSH2 0x5E2 JUMPI PUSH2 0x5E2 PUSH2 0x1258 JUMP JUMPDEST PUSH1 0x0 DUP3 PUSH2 0x1325 JUMPI PUSH4 0x4E487B71 PUSH1 0xE0 SHL PUSH1 0x0 MSTORE PUSH1 0x12 PUSH1 0x4 MSTORE PUSH1 0x24 PUSH1 0x0 REVERT JUMPDEST POP DIV SWAP1 JUMP JUMPDEST DUP1 DUP3 MUL DUP2 ISZERO DUP3 DUP3 DIV DUP5 EQ OR PUSH2 0x5E2 JUMPI PUSH2 0x5E2 PUSH2 0x1258 JUMP INVALID LOG2 PUSH5 0x6970667358 0x22 SLT KECCAK256 PUSH20 0xCE1FB32868B320110C6A3DC2D96BB948580F538E CALLVALUE MSTORE 0xE1 ADDMOD 0x5C 0x27 DUP10 SSTORE DUP14 PUSH5 0x9464736F6C PUSH4 0x43000811 STOP CALLER 0xDD CALLCODE MSTORE 0xAD SHL 0xE2 0xC8 SWAP12 PUSH10 0xC2B068FC378DAA952BA7 CALL PUSH4 0xC4A11628 CREATE2 GAS 0x4D CREATE2 0x23 0xB3 0xEF "
				},
				"gasEstimates": {
					"creation": {
						"codeDepositCost": "996600",
						"executionCost": "infinite",
						"totalCost": "infinite"
					},
					"external": {
						"DEXs(address)": "2569",
						"addDex(address)": "29029",
						"allowance(address,address)": "infinite",
						"approve(address,uint256)": "24568",
						"balanceOf(address)": "2620",
						"burn(uint256)": "50953",
						"decimals()": "223",
						"decreaseAllowance(address,uint256)": "26880",
						"deliver(address)": "infinite",
						"emergencyWithdraw()": "infinite",
						"emergencyWithdrawToken(address,uint256)": "infinite",
						"increaseAllowance(address,uint256)": "infinite",
						"marketAddress()": "2427",
						"name()": "infinite",
						"owner()": "2399",
						"renounceOwnership()": "28225",
						"setExcludeds(address)": "29082",
						"setMarketAddress(address)": "26815",
						"symbol()": "infinite",
						"totalSupply()": "2371",
						"transfer(address,uint256)": "infinite",
						"transferFrom(address,address,uint256)": "infinite",
						"transferOwnership(address)": "infinite",
						"uniswapUsdtV2Pair()": "infinite",
						"uniswapV2Pair()": "infinite",
						"uniswapV2Router()": "infinite",
						"usdtMintAddress()": "2383"
					},
					"internal": {
						"_approve(address,address,uint256)": "infinite",
						"_burn(address,uint256)": "infinite",
						"_mint(address,uint256)": "infinite",
						"_transfer(address,address,uint256)": "infinite"
					}
				},
				"methodIdentifiers": {
					"DEXs(address)": "dec1a6f6",
					"addDex(address)": "536db266",
					"allowance(address,address)": "dd62ed3e",
					"approve(address,uint256)": "095ea7b3",
					"balanceOf(address)": "70a08231",
					"burn(uint256)": "42966c68",
					"decimals()": "313ce567",
					"decreaseAllowance(address,uint256)": "a457c2d7",
					"deliver(address)": "e515cd38",
					"emergencyWithdraw()": "db2e21bc",
					"emergencyWithdrawToken(address,uint256)": "a4c3b091",
					"increaseAllowance(address,uint256)": "39509351",
					"marketAddress()": "95623641",
					"name()": "06fdde03",
					"owner()": "8da5cb5b",
					"renounceOwnership()": "715018a6",
					"setExcludeds(address)": "a8808fcc",
					"setMarketAddress(address)": "fae92612",
					"symbol()": "95d89b41",
					"totalSupply()": "18160ddd",
					"transfer(address,uint256)": "a9059cbb",
					"transferFrom(address,address,uint256)": "23b872dd",
					"transferOwnership(address)": "f2fde38b",
					"uniswapUsdtV2Pair()": "2aafa283",
					"uniswapV2Pair()": "49bd5a5e",
					"uniswapV2Router()": "1694505e",
					"usdtMintAddress()": "88af60c6"
				}
			},
			"storageLayout": {
				"storage": [
					{
						"astId": 47,
						"contract": "inviter_presell/token.sol:Bee",
						"label": "_owner",
						"offset": 0,
						"slot": "0",
						"type": "t_address"
					},
					{
						"astId": 1049,
						"contract": "inviter_presell/token.sol:Bee",
						"label": "_balances",
						"offset": 0,
						"slot": "1",
						"type": "t_mapping(t_address,t_uint256)"
					},
					{
						"astId": 1055,
						"contract": "inviter_presell/token.sol:Bee",
						"label": "_allowances",
						"offset": 0,
						"slot": "2",
						"type": "t_mapping(t_address,t_mapping(t_address,t_uint256))"
					},
					{
						"astId": 1057,
						"contract": "inviter_presell/token.sol:Bee",
						"label": "_totalSupply",
						"offset": 0,
						"slot": "3",
						"type": "t_uint256"
					},
					{
						"astId": 1059,
						"contract": "inviter_presell/token.sol:Bee",
						"label": "_name",
						"offset": 0,
						"slot": "4",
						"type": "t_string_storage"
					},
					{
						"astId": 1061,
						"contract": "inviter_presell/token.sol:Bee",
						"label": "_symbol",
						"offset": 0,
						"slot": "5",
						"type": "t_string_storage"
					},
					{
						"astId": 1072,
						"contract": "inviter_presell/token.sol:Bee",
						"label": "_isExcludeds",
						"offset": 0,
						"slot": "6",
						"type": "t_mapping(t_address,t_bool)"
					},
					{
						"astId": 1076,
						"contract": "inviter_presell/token.sol:Bee",
						"label": "DEXs",
						"offset": 0,
						"slot": "7",
						"type": "t_mapping(t_address,t_bool)"
					},
					{
						"astId": 1079,
						"contract": "inviter_presell/token.sol:Bee",
						"label": "usdtMintAddress",
						"offset": 0,
						"slot": "8",
						"type": "t_address"
					},
					{
						"astId": 1082,
						"contract": "inviter_presell/token.sol:Bee",
						"label": "marketAddress",
						"offset": 0,
						"slot": "9",
						"type": "t_address"
					}
				],
				"types": {
					"t_address": {
						"encoding": "inplace",
						"label": "address",
						"numberOfBytes": "20"
					},
					"t_bool": {
						"encoding": "inplace",
						"label": "bool",
						"numberOfBytes": "1"
					},
					"t_mapping(t_address,t_bool)": {
						"encoding": "mapping",
						"key": "t_address",
						"label": "mapping(address => bool)",
						"numberOfBytes": "32",
						"value": "t_bool"
					},
					"t_mapping(t_address,t_mapping(t_address,t_uint256))": {
						"encoding": "mapping",
						"key": "t_address",
						"label": "mapping(address => mapping(address => uint256))",
						"numberOfBytes": "32",
						"value": "t_mapping(t_address,t_uint256)"
					},
					"t_mapping(t_address,t_uint256)": {
						"encoding": "mapping",
						"key": "t_address",
						"label": "mapping(address => uint256)",
						"numberOfBytes": "32",
						"value": "t_uint256"
					},
					"t_string_storage": {
						"encoding": "bytes",
						"label": "string",
						"numberOfBytes": "32"
					},
					"t_uint256": {
						"encoding": "inplace",
						"label": "uint256",
						"numberOfBytes": "32"
					}
				}
			},
			"userdoc": {
				"kind": "user",
				"methods": {},
				"version": 1
			}
		}
	}
}