{
	"inviter_presell/stake.sol": {
		"StakingRewards": {
			"abi": [
				{
					"anonymous": false,
					"inputs": [
						{
							"indexed": true,
							"internalType": "address",
							"name": "admin",
							"type": "address"
						},
						{
							"indexed": false,
							"internalType": "bool",
							"name": "oldState",
							"type": "bool"
						},
						{
							"indexed": false,
							"internalType": "bool",
							"name": "newState",
							"type": "bool"
						}
					],
					"name": "ModificationAdmin",
					"type": "event"
				},
				{
					"anonymous": false,
					"inputs": [
						{
							"indexed": true,
							"internalType": "address",
							"name": "previousOwner",
							"type": "address"
						},
						{
							"indexed": true,
							"internalType": "address",
							"name": "newOwner",
							"type": "address"
						}
					],
					"name": "OwnershipTransferred",
					"type": "event"
				},
				{
					"anonymous": false,
					"inputs": [
						{
							"indexed": true,
							"internalType": "address",
							"name": "user",
							"type": "address"
						},
						{
							"indexed": false,
							"internalType": "uint256",
							"name": "reward",
							"type": "uint256"
						}
					],
					"name": "RewardPaid",
					"type": "event"
				},
				{
					"anonymous": false,
					"inputs": [
						{
							"indexed": true,
							"internalType": "address",
							"name": "user",
							"type": "address"
						},
						{
							"indexed": false,
							"internalType": "uint256",
							"name": "amount",
							"type": "uint256"
						}
					],
					"name": "Staked",
					"type": "event"
				},
				{
					"inputs": [],
					"name": "curTime",
					"outputs": [
						{
							"internalType": "uint256",
							"name": "",
							"type": "uint256"
						}
					],
					"stateMutability": "view",
					"type": "function"
				},
				{
					"inputs": [
						{
							"internalType": "address",
							"name": "account",
							"type": "address"
						}
					],
					"name": "earned",
					"outputs": [
						{
							"internalType": "uint256",
							"name": "",
							"type": "uint256"
						}
					],
					"stateMutability": "view",
					"type": "function"
				},
				{
					"inputs": [],
					"name": "emergencyWithdraw",
					"outputs": [],
					"stateMutability": "nonpayable",
					"type": "function"
				},
				{
					"inputs": [
						{
							"internalType": "address",
							"name": "token",
							"type": "address"
						},
						{
							"internalType": "uint256",
							"name": "amount",
							"type": "uint256"
						}
					],
					"name": "emergencyWithdrawToken",
					"outputs": [],
					"stateMutability": "nonpayable",
					"type": "function"
				},
				{
					"inputs": [],
					"name": "getCurRewardPool",
					"outputs": [
						{
							"internalType": "uint256",
							"name": "",
							"type": "uint256"
						}
					],
					"stateMutability": "view",
					"type": "function"
				},
				{
					"inputs": [],
					"name": "getCurRewardRate",
					"outputs": [
						{
							"internalType": "uint256",
							"name": "",
							"type": "uint256"
						}
					],
					"stateMutability": "view",
					"type": "function"
				},
				{
					"inputs": [
						{
							"internalType": "uint256",
							"name": "time",
							"type": "uint256"
						}
					],
					"name": "getRemainPool",
					"outputs": [
						{
							"internalType": "uint256",
							"name": "",
							"type": "uint256"
						}
					],
					"stateMutability": "view",
					"type": "function"
				},
				{
					"inputs": [],
					"name": "getReward",
					"outputs": [],
					"stateMutability": "nonpayable",
					"type": "function"
				},
				{
					"inputs": [
						{
							"internalType": "uint256",
							"name": "time",
							"type": "uint256"
						}
					],
					"name": "getRewardPool",
					"outputs": [
						{
							"internalType": "uint256",
							"name": "",
							"type": "uint256"
						}
					],
					"stateMutability": "view",
					"type": "function"
				},
				{
					"inputs": [
						{
							"internalType": "uint256",
							"name": "leftTime",
							"type": "uint256"
						},
						{
							"internalType": "uint256",
							"name": "rightTime",
							"type": "uint256"
						}
					],
					"name": "getTimeWeightedAveRate",
					"outputs": [
						{
							"internalType": "uint256",
							"name": "",
							"type": "uint256"
						}
					],
					"stateMutability": "view",
					"type": "function"
				},
				{
					"inputs": [
						{
							"internalType": "address",
							"name": "account",
							"type": "address"
						}
					],
					"name": "isAdmin",
					"outputs": [
						{
							"internalType": "bool",
							"name": "",
							"type": "bool"
						}
					],
					"stateMutability": "view",
					"type": "function"
				},
				{
					"inputs": [],
					"name": "lastTimeRewardApplicable",
					"outputs": [
						{
							"internalType": "uint256",
							"name": "",
							"type": "uint256"
						}
					],
					"stateMutability": "view",
					"type": "function"
				},
				{
					"inputs": [],
					"name": "lastUpdateTime",
					"outputs": [
						{
							"internalType": "uint256",
							"name": "",
							"type": "uint256"
						}
					],
					"stateMutability": "view",
					"type": "function"
				},
				{
					"inputs": [
						{
							"internalType": "address",
							"name": "admin",
							"type": "address"
						},
						{
							"internalType": "bool",
							"name": "state",
							"type": "bool"
						}
					],
					"name": "modificationAdmin",
					"outputs": [],
					"stateMutability": "nonpayable",
					"type": "function"
				},
				{
					"inputs": [],
					"name": "owner",
					"outputs": [
						{
							"internalType": "address",
							"name": "",
							"type": "address"
						}
					],
					"stateMutability": "view",
					"type": "function"
				},
				{
					"inputs": [
						{
							"internalType": "address",
							"name": "account",
							"type": "address"
						}
					],
					"name": "powersOf",
					"outputs": [
						{
							"internalType": "uint256",
							"name": "",
							"type": "uint256"
						}
					],
					"stateMutability": "view",
					"type": "function"
				},
				{
					"inputs": [],
					"name": "rateInterval",
					"outputs": [
						{
							"internalType": "uint256",
							"name": "",
							"type": "uint256"
						}
					],
					"stateMutability": "view",
					"type": "function"
				},
				{
					"inputs": [],
					"name": "rateIntervalDenominator",
					"outputs": [
						{
							"internalType": "uint256",
							"name": "",
							"type": "uint256"
						}
					],
					"stateMutability": "view",
					"type": "function"
				},
				{
					"inputs": [],
					"name": "rateIntervalNumerator",
					"outputs": [
						{
							"internalType": "uint256",
							"name": "",
							"type": "uint256"
						}
					],
					"stateMutability": "view",
					"type": "function"
				},
				{
					"inputs": [],
					"name": "renounceOwnership",
					"outputs": [],
					"stateMutability": "nonpayable",
					"type": "function"
				},
				{
					"inputs": [
						{
							"internalType": "uint256",
							"name": "rewardRate",
							"type": "uint256"
						}
					],
					"name": "rewardPerToken",
					"outputs": [
						{
							"internalType": "uint256",
							"name": "",
							"type": "uint256"
						}
					],
					"stateMutability": "view",
					"type": "function"
				},
				{
					"inputs": [],
					"name": "rewardPerTokenStored",
					"outputs": [
						{
							"internalType": "uint256",
							"name": "",
							"type": "uint256"
						}
					],
					"stateMutability": "view",
					"type": "function"
				},
				{
					"inputs": [
						{
							"internalType": "address",
							"name": "",
							"type": "address"
						}
					],
					"name": "rewards",
					"outputs": [
						{
							"internalType": "uint256",
							"name": "",
							"type": "uint256"
						}
					],
					"stateMutability": "view",
					"type": "function"
				},
				{
					"inputs": [],
					"name": "rewardsToken",
					"outputs": [
						{
							"internalType": "contract IERC20",
							"name": "",
							"type": "address"
						}
					],
					"stateMutability": "view",
					"type": "function"
				},
				{
					"inputs": [
						{
							"internalType": "uint256",
							"name": "_rateInterval",
							"type": "uint256"
						},
						{
							"internalType": "uint256",
							"name": "_rateIntervalNumerator",
							"type": "uint256"
						},
						{
							"internalType": "uint256",
							"name": "_rateIntervalDenominator",
							"type": "uint256"
						}
					],
					"name": "setConfig",
					"outputs": [],
					"stateMutability": "nonpayable",
					"type": "function"
				},
				{
					"inputs": [
						{
							"internalType": "address",
							"name": "token",
							"type": "address"
						}
					],
					"name": "setRewardToken",
					"outputs": [],
					"stateMutability": "nonpayable",
					"type": "function"
				},
				{
					"inputs": [
						{
							"internalType": "uint256",
							"name": "time",
							"type": "uint256"
						}
					],
					"name": "setStartTime",
					"outputs": [],
					"stateMutability": "nonpayable",
					"type": "function"
				},
				{
					"inputs": [
						{
							"internalType": "address",
							"name": "user",
							"type": "address"
						},
						{
							"internalType": "uint256",
							"name": "amount",
							"type": "uint256"
						}
					],
					"name": "stake",
					"outputs": [],
					"stateMutability": "nonpayable",
					"type": "function"
				},
				{
					"inputs": [],
					"name": "startTime",
					"outputs": [
						{
							"internalType": "uint256",
							"name": "",
							"type": "uint256"
						}
					],
					"stateMutability": "view",
					"type": "function"
				},
				{
					"inputs": [],
					"name": "totalPowers",
					"outputs": [
						{
							"internalType": "uint256",
							"name": "",
							"type": "uint256"
						}
					],
					"stateMutability": "view",
					"type": "function"
				},
				{
					"inputs": [],
					"name": "totalRewards",
					"outputs": [
						{
							"internalType": "uint256",
							"name": "",
							"type": "uint256"
						}
					],
					"stateMutability": "view",
					"type": "function"
				},
				{
					"inputs": [
						{
							"internalType": "address",
							"name": "newOwner",
							"type": "address"
						}
					],
					"name": "transferOwnership",
					"outputs": [],
					"stateMutability": "nonpayable",
					"type": "function"
				},
				{
					"inputs": [
						{
							"internalType": "address",
							"name": "",
							"type": "address"
						}
					],
					"name": "userLastUpdateTime",
					"outputs": [
						{
							"internalType": "uint256",
							"name": "",
							"type": "uint256"
						}
					],
					"stateMutability": "view",
					"type": "function"
				},
				{
					"inputs": [
						{
							"internalType": "address",
							"name": "",
							"type": "address"
						}
					],
					"name": "userRewardPerTokenPaid",
					"outputs": [
						{
							"internalType": "uint256",
							"name": "",
							"type": "uint256"
						}
					],
					"stateMutability": "view",
					"type": "function"
				}
			],
			"devdoc": {
				"kind": "dev",
				"methods": {},
				"version": 1
			},
			"evm": {
				"assembly": "    /* \"inviter_presell/stake.sol\":371:7638  contract StakingRewards is Adminable , ReentrancyGuard{... */\n  mstore(0x40, 0x80)\n    /* \"inviter_presell/stake.sol\":581:598  168000 * 10 ** 18 */\n  0x23934c5a09da19000000\n    /* \"inviter_presell/stake.sol\":551:598  uint256 public totalRewards = 168000 * 10 ** 18 */\n  0x05\n  sstore\n    /* \"inviter_presell/stake.sol\":666:676  10 minutes */\n  0x0258\n    /* \"inviter_presell/stake.sol\":636:676  uint256 public rateInterval = 10 minutes */\n  0x07\n  sstore\n    /* \"inviter_presell/stake.sol\":722:723  5 */\n  0x05\n    /* \"inviter_presell/stake.sol\":683:723  uint256 public rateIntervalNumerator = 5 */\n  0x08\n  sstore\n    /* \"inviter_presell/stake.sol\":771:775  1000 */\n  0x03e8\n    /* \"inviter_presell/stake.sol\":730:775  uint256 public rateIntervalDenominator = 1000 */\n  0x09\n  sstore\n    /* \"inviter_presell/stake.sol\":371:7638  contract StakingRewards is Adminable , ReentrancyGuard{... */\n  callvalue\n  dup1\n  iszero\n  tag_1\n  jumpi\n  0x00\n  dup1\n  revert\ntag_1:\n  pop\n    /* \"inviter_presell/adminable.sol\":603:635  _transferOwnership(_msgSender()) */\n  tag_5\n    /* \"inviter_presell/adminable.sol\":622:634  _msgSender() */\n  tag_6\n    /* \"inviter_presell/adminable.sol\":622:632  _msgSender */\n  shl(0x20, tag_7)\n    /* \"inviter_presell/adminable.sol\":622:634  _msgSender() */\n  0x20\n  shr\n  jump\t// in\ntag_6:\n    /* \"inviter_presell/adminable.sol\":603:621  _transferOwnership */\n  shl(0x20, tag_8)\n    /* \"inviter_presell/adminable.sol\":603:635  _transferOwnership(_msgSender()) */\n  0x20\n  shr\n  jump\t// in\ntag_5:\n    /* \"node_modules/@openzeppelin/contracts/security/ReentrancyGuard.sol\":1701:1702  1 */\n  0x01\n    /* \"node_modules/@openzeppelin/contracts/security/ReentrancyGuard.sol\":1806:1813  _status */\n  0x02\n    /* \"node_modules/@openzeppelin/contracts/security/ReentrancyGuard.sol\":1806:1828  _status = _NOT_ENTERED */\n  dup2\n  swap1\n  sstore\n  pop\n    /* \"inviter_presell/stake.sol\":371:7638  contract StakingRewards is Adminable , ReentrancyGuard{... */\n  jump(tag_10)\n    /* \"inviter_presell/adminable.sol\":63:161  function _msgSender() internal view virtual returns (address) {... */\ntag_7:\n    /* \"inviter_presell/adminable.sol\":116:123  address */\n  0x00\n    /* \"inviter_presell/adminable.sol\":143:153  msg.sender */\n  caller\n    /* \"inviter_presell/adminable.sol\":136:153  return msg.sender */\n  swap1\n  pop\n    /* \"inviter_presell/adminable.sol\":63:161  function _msgSender() internal view virtual returns (address) {... */\n  swap1\n  jump\t// out\n    /* \"inviter_presell/adminable.sol\":1443:1634  function _transferOwnership(address newOwner) internal virtual {... */\ntag_8:\n    /* \"inviter_presell/adminable.sol\":1517:1533  address oldOwner */\n  0x00\n    /* \"inviter_presell/adminable.sol\":1536:1542  _owner */\n  0x01\n  0x00\n  swap1\n  sload\n  swap1\n  0x0100\n  exp\n  swap1\n  div\n  0xffffffffffffffffffffffffffffffffffffffff\n  and\n    /* \"inviter_presell/adminable.sol\":1517:1542  address oldOwner = _owner */\n  swap1\n  pop\n    /* \"inviter_presell/adminable.sol\":1562:1570  newOwner */\n  dup2\n    /* \"inviter_presell/adminable.sol\":1553:1559  _owner */\n  0x01\n  0x00\n    /* \"inviter_presell/adminable.sol\":1553:1570  _owner = newOwner */\n  0x0100\n  exp\n  dup2\n  sload\n  dup2\n  0xffffffffffffffffffffffffffffffffffffffff\n  mul\n  not\n  and\n  swap1\n  dup4\n  0xffffffffffffffffffffffffffffffffffffffff\n  and\n  mul\n  or\n  swap1\n  sstore\n  pop\n    /* \"inviter_presell/adminable.sol\":1617:1625  newOwner */\n  dup2\n    /* \"inviter_presell/adminable.sol\":1586:1626  OwnershipTransferred(oldOwner, newOwner) */\n  0xffffffffffffffffffffffffffffffffffffffff\n  and\n    /* \"inviter_presell/adminable.sol\":1607:1615  oldOwner */\n  dup2\n    /* \"inviter_presell/adminable.sol\":1586:1626  OwnershipTransferred(oldOwner, newOwner) */\n  0xffffffffffffffffffffffffffffffffffffffff\n  and\n  0x8be0079c531659141344cd1fd0a4f28419497f9722a3daafe3b4186f6b6457e0\n  mload(0x40)\n  mload(0x40)\n  dup1\n  swap2\n  sub\n  swap1\n  log3\n    /* \"inviter_presell/adminable.sol\":1506:1634  {... */\n  pop\n    /* \"inviter_presell/adminable.sol\":1443:1634  function _transferOwnership(address newOwner) internal virtual {... */\n  pop\n  jump\t// out\n    /* \"inviter_presell/stake.sol\":371:7638  contract StakingRewards is Adminable , ReentrancyGuard{... */\ntag_10:\n  dataSize(sub_0)\n  dup1\n  dataOffset(sub_0)\n  0x00\n  codecopy\n  0x00\n  return\nstop\n\nsub_0: assembly {\n        /* \"inviter_presell/stake.sol\":371:7638  contract StakingRewards is Adminable , ReentrancyGuard{... */\n      mstore(0x40, 0x80)\n      callvalue\n      dup1\n      iszero\n      tag_1\n      jumpi\n      0x00\n      dup1\n      revert\n    tag_1:\n      pop\n      jumpi(tag_2, lt(calldatasize, 0x04))\n      shr(0xe0, calldataload(0x00))\n      dup1\n      0x8107368b\n      gt\n      tag_37\n      jumpi\n      dup1\n      0xadc9772e\n      gt\n      tag_38\n      jumpi\n      dup1\n      0xd1af0c7d\n      gt\n      tag_39\n      jumpi\n      dup1\n      0xd1af0c7d\n      eq\n      tag_32\n      jumpi\n      dup1\n      0xda4f8431\n      eq\n      tag_33\n      jumpi\n      dup1\n      0xdb2e21bc\n      eq\n      tag_34\n      jumpi\n      dup1\n      0xdf136d65\n      eq\n      tag_35\n      jumpi\n      dup1\n      0xf2fde38b\n      eq\n      tag_36\n      jumpi\n      jump(tag_2)\n    tag_39:\n      dup1\n      0xadc9772e\n      eq\n      tag_28\n      jumpi\n      dup1\n      0xb79ec812\n      eq\n      tag_29\n      jumpi\n      dup1\n      0xc8f33c91\n      eq\n      tag_30\n      jumpi\n      dup1\n      0xcdda56e0\n      eq\n      tag_31\n      jumpi\n      jump(tag_2)\n    tag_38:\n      dup1\n      0x8da5cb5b\n      gt\n      tag_40\n      jumpi\n      dup1\n      0x8da5cb5b\n      eq\n      tag_24\n      jumpi\n      dup1\n      0x9499c549\n      eq\n      tag_25\n      jumpi\n      dup1\n      0x9a5b17b0\n      eq\n      tag_26\n      jumpi\n      dup1\n      0xa4c3b091\n      eq\n      tag_27\n      jumpi\n      jump(tag_2)\n    tag_40:\n      dup1\n      0x8107368b\n      eq\n      tag_20\n      jumpi\n      dup1\n      0x874c120b\n      eq\n      tag_21\n      jumpi\n      dup1\n      0x8aee8127\n      eq\n      tag_22\n      jumpi\n      dup1\n      0x8b876347\n      eq\n      tag_23\n      jumpi\n      jump(tag_2)\n    tag_37:\n      dup1\n      0x3e0a322d\n      gt\n      tag_41\n      jumpi\n      dup1\n      0x6917c501\n      gt\n      tag_42\n      jumpi\n      dup1\n      0x6917c501\n      eq\n      tag_15\n      jumpi\n      dup1\n      0x715018a6\n      eq\n      tag_16\n      jumpi\n      dup1\n      0x78e97925\n      eq\n      tag_17\n      jumpi\n      dup1\n      0x7a6fcee7\n      eq\n      tag_18\n      jumpi\n      dup1\n      0x80faa57d\n      eq\n      tag_19\n      jumpi\n      jump(tag_2)\n    tag_42:\n      dup1\n      0x3e0a322d\n      eq\n      tag_11\n      jumpi\n      dup1\n      0x4dbdc4eb\n      eq\n      tag_12\n      jumpi\n      dup1\n      0x5cfa91f4\n      eq\n      tag_13\n      jumpi\n      dup1\n      0x6139d4b4\n      eq\n      tag_14\n      jumpi\n      jump(tag_2)\n    tag_41:\n      dup1\n      0x18e20ecf\n      gt\n      tag_43\n      jumpi\n      dup1\n      0x18e20ecf\n      eq\n      tag_7\n      jumpi\n      dup1\n      0x24d7806c\n      eq\n      tag_8\n      jumpi\n      dup1\n      0x3c4045cf\n      eq\n      tag_9\n      jumpi\n      dup1\n      0x3d18b912\n      eq\n      tag_10\n      jumpi\n      jump(tag_2)\n    tag_43:\n      dup1\n      0x8cc262\n      eq\n      tag_3\n      jumpi\n      dup1\n      0x0700037d\n      eq\n      tag_4\n      jumpi\n      dup1\n      0x0e15561a\n      eq\n      tag_5\n      jumpi\n      dup1\n      0x129ee21a\n      eq\n      tag_6\n      jumpi\n    tag_2:\n      0x00\n      dup1\n      revert\n        /* \"inviter_presell/stake.sol\":4779:5075  function earned(address account) public view returns (uint256) {... */\n    tag_3:\n      tag_44\n      0x04\n      dup1\n      calldatasize\n      sub\n      dup2\n      add\n      swap1\n      tag_45\n      swap2\n      swap1\n      tag_46\n      jump\t// in\n    tag_45:\n      tag_47\n      jump\t// in\n    tag_44:\n      mload(0x40)\n      tag_48\n      swap2\n      swap1\n      tag_49\n      jump\t// in\n    tag_48:\n      mload(0x40)\n      dup1\n      swap2\n      sub\n      swap1\n      return\n        /* \"inviter_presell/stake.sol\":500:542  mapping(address => uint256) public rewards */\n    tag_4:\n      tag_50\n      0x04\n      dup1\n      calldatasize\n      sub\n      dup2\n      add\n      swap1\n      tag_51\n      swap2\n      swap1\n      tag_46\n      jump\t// in\n    tag_51:\n      tag_52\n      jump\t// in\n    tag_50:\n      mload(0x40)\n      tag_53\n      swap2\n      swap1\n      tag_49\n      jump\t// in\n    tag_53:\n      mload(0x40)\n      dup1\n      swap2\n      sub\n      swap1\n      return\n        /* \"inviter_presell/stake.sol\":551:598  uint256 public totalRewards = 168000 * 10 ** 18 */\n    tag_5:\n      tag_54\n      tag_55\n      jump\t// in\n    tag_54:\n      mload(0x40)\n      tag_56\n      swap2\n      swap1\n      tag_49\n      jump\t// in\n    tag_56:\n      mload(0x40)\n      dup1\n      swap2\n      sub\n      swap1\n      return\n        /* \"inviter_presell/stake.sol\":1682:1974  function setConfig(uint256 _rateInterval, uint256 _rateIntervalNumerator, uint256 _rateIntervalDenominator) external onlyOwner {... */\n    tag_6:\n      tag_57\n      0x04\n      dup1\n      calldatasize\n      sub\n      dup2\n      add\n      swap1\n      tag_58\n      swap2\n      swap1\n      tag_59\n      jump\t// in\n    tag_58:\n      tag_60\n      jump\t// in\n    tag_57:\n      stop\n        /* \"inviter_presell/adminable.sol\":1642:1826  function modificationAdmin(address admin, bool state) public virtual onlyOwner {... */\n    tag_7:\n      tag_61\n      0x04\n      dup1\n      calldatasize\n      sub\n      dup2\n      add\n      swap1\n      tag_62\n      swap2\n      swap1\n      tag_63\n      jump\t// in\n    tag_62:\n      tag_64\n      jump\t// in\n    tag_61:\n      stop\n        /* \"inviter_presell/adminable.sol\":1004:1115  function isAdmin(address account) public view virtual returns (bool) {... */\n    tag_8:\n      tag_65\n      0x04\n      dup1\n      calldatasize\n      sub\n      dup2\n      add\n      swap1\n      tag_66\n      swap2\n      swap1\n      tag_46\n      jump\t// in\n    tag_66:\n      tag_67\n      jump\t// in\n    tag_65:\n      mload(0x40)\n      tag_68\n      swap2\n      swap1\n      tag_69\n      jump\t// in\n    tag_68:\n      mload(0x40)\n      dup1\n      swap2\n      sub\n      swap1\n      return\n        /* \"inviter_presell/stake.sol\":683:723  uint256 public rateIntervalNumerator = 5 */\n    tag_9:\n      tag_70\n      tag_71\n      jump\t// in\n    tag_70:\n      mload(0x40)\n      tag_72\n      swap2\n      swap1\n      tag_49\n      jump\t// in\n    tag_72:\n      mload(0x40)\n      dup1\n      swap2\n      sub\n      swap1\n      return\n        /* \"inviter_presell/stake.sol\":6817:7122  function getReward() external nonReentrant updateReward(msg.sender) {... */\n    tag_10:\n      tag_73\n      tag_74\n      jump\t// in\n    tag_73:\n      stop\n        /* \"inviter_presell/stake.sol\":1982:2072  function setStartTime(uint256 time) external onlyAdmin {... */\n    tag_11:\n      tag_75\n      0x04\n      dup1\n      calldatasize\n      sub\n      dup2\n      add\n      swap1\n      tag_76\n      swap2\n      swap1\n      tag_77\n      jump\t// in\n    tag_76:\n      tag_78\n      jump\t// in\n    tag_75:\n      stop\n        /* \"inviter_presell/stake.sol\":3529:3945  function getRemainPool(uint256 time) public view returns (uint256) {... */\n    tag_12:\n      tag_79\n      0x04\n      dup1\n      calldatasize\n      sub\n      dup2\n      add\n      swap1\n      tag_80\n      swap2\n      swap1\n      tag_77\n      jump\t// in\n    tag_80:\n      tag_81\n      jump\t// in\n    tag_79:\n      mload(0x40)\n      tag_82\n      swap2\n      swap1\n      tag_49\n      jump\t// in\n    tag_82:\n      mload(0x40)\n      dup1\n      swap2\n      sub\n      swap1\n      return\n        /* \"inviter_presell/stake.sol\":2524:3095  function getRewardPool(uint256 time) public view returns (uint256) {... */\n    tag_13:\n      tag_83\n      0x04\n      dup1\n      calldatasize\n      sub\n      dup2\n      add\n      swap1\n      tag_84\n      swap2\n      swap1\n      tag_77\n      jump\t// in\n    tag_84:\n      tag_85\n      jump\t// in\n    tag_83:\n      mload(0x40)\n      tag_86\n      swap2\n      swap1\n      tag_49\n      jump\t// in\n    tag_86:\n      mload(0x40)\n      dup1\n      swap2\n      sub\n      swap1\n      return\n        /* \"inviter_presell/stake.sol\":636:676  uint256 public rateInterval = 10 minutes */\n    tag_14:\n      tag_87\n      tag_88\n      jump\t// in\n    tag_87:\n      mload(0x40)\n      tag_89\n      swap2\n      swap1\n      tag_49\n      jump\t// in\n    tag_89:\n      mload(0x40)\n      dup1\n      swap2\n      sub\n      swap1\n      return\n        /* \"inviter_presell/stake.sol\":2080:2173  function totalPowers() external view returns (uint256) {... */\n    tag_15:\n      tag_90\n      tag_91\n      jump\t// in\n    tag_90:\n      mload(0x40)\n      tag_92\n      swap2\n      swap1\n      tag_49\n      jump\t// in\n    tag_92:\n      mload(0x40)\n      dup1\n      swap2\n      sub\n      swap1\n      return\n        /* \"inviter_presell/adminable.sol\":1123:1226  function renounceOwnership() public virtual onlyOwner {... */\n    tag_16:\n      tag_93\n      tag_94\n      jump\t// in\n    tag_93:\n      stop\n        /* \"inviter_presell/stake.sol\":605:629  uint256 public startTime */\n    tag_17:\n      tag_95\n      tag_96\n      jump\t// in\n    tag_95:\n      mload(0x40)\n      tag_97\n      swap2\n      swap1\n      tag_49\n      jump\t// in\n    tag_97:\n      mload(0x40)\n      dup1\n      swap2\n      sub\n      swap1\n      return\n        /* \"inviter_presell/stake.sol\":730:775  uint256 public rateIntervalDenominator = 1000 */\n    tag_18:\n      tag_98\n      tag_99\n      jump\t// in\n    tag_98:\n      mload(0x40)\n      tag_100\n      swap2\n      swap1\n      tag_49\n      jump\t// in\n    tag_100:\n      mload(0x40)\n      dup1\n      swap2\n      sub\n      swap1\n      return\n        /* \"inviter_presell/stake.sol\":4308:4415  function lastTimeRewardApplicable() public view returns (uint256) {... */\n    tag_19:\n      tag_101\n      tag_102\n      jump\t// in\n    tag_101:\n      mload(0x40)\n      tag_103\n      swap2\n      swap1\n      tag_49\n      jump\t// in\n    tag_103:\n      mload(0x40)\n      dup1\n      swap2\n      sub\n      swap1\n      return\n        /* \"inviter_presell/stake.sol\":926:979  mapping(address => uint256) public userLastUpdateTime */\n    tag_20:\n      tag_104\n      0x04\n      dup1\n      calldatasize\n      sub\n      dup2\n      add\n      swap1\n      tag_105\n      swap2\n      swap1\n      tag_46\n      jump\t// in\n    tag_105:\n      tag_106\n      jump\t// in\n    tag_104:\n      mload(0x40)\n      tag_107\n      swap2\n      swap1\n      tag_49\n      jump\t// in\n    tag_107:\n      mload(0x40)\n      dup1\n      swap2\n      sub\n      swap1\n      return\n        /* \"inviter_presell/stake.sol\":4423:4771  function rewardPerToken(uint256 rewardRate) public view returns (uint256) {... */\n    tag_21:\n      tag_108\n      0x04\n      dup1\n      calldatasize\n      sub\n      dup2\n      add\n      swap1\n      tag_109\n      swap2\n      swap1\n      tag_77\n      jump\t// in\n    tag_109:\n      tag_110\n      jump\t// in\n    tag_108:\n      mload(0x40)\n      tag_111\n      swap2\n      swap1\n      tag_49\n      jump\t// in\n    tag_111:\n      mload(0x40)\n      dup1\n      swap2\n      sub\n      swap1\n      return\n        /* \"inviter_presell/stake.sol\":7130:7235  function setRewardToken(address token) external onlyOwner {... */\n    tag_22:\n      tag_112\n      0x04\n      dup1\n      calldatasize\n      sub\n      dup2\n      add\n      swap1\n      tag_113\n      swap2\n      swap1\n      tag_46\n      jump\t// in\n    tag_113:\n      tag_114\n      jump\t// in\n    tag_112:\n      stop\n        /* \"inviter_presell/stake.sol\":862:919  mapping(address => uint256) public userRewardPerTokenPaid */\n    tag_23:\n      tag_115\n      0x04\n      dup1\n      calldatasize\n      sub\n      dup2\n      add\n      swap1\n      tag_116\n      swap2\n      swap1\n      tag_46\n      jump\t// in\n    tag_116:\n      tag_117\n      jump\t// in\n    tag_115:\n      mload(0x40)\n      tag_118\n      swap2\n      swap1\n      tag_49\n      jump\t// in\n    tag_118:\n      mload(0x40)\n      dup1\n      swap2\n      sub\n      swap1\n      return\n        /* \"inviter_presell/adminable.sol\":909:996  function owner() public view virtual returns (address) {... */\n    tag_24:\n      tag_119\n      tag_120\n      jump\t// in\n    tag_119:\n      mload(0x40)\n      tag_121\n      swap2\n      swap1\n      tag_122\n      jump\t// in\n    tag_121:\n      mload(0x40)\n      dup1\n      swap2\n      sub\n      swap1\n      return\n        /* \"inviter_presell/stake.sol\":2402:2516  function getCurRewardPool() public view returns (uint256) {... */\n    tag_25:\n      tag_123\n      tag_124\n      jump\t// in\n    tag_123:\n      mload(0x40)\n      tag_125\n      swap2\n      swap1\n      tag_49\n      jump\t// in\n    tag_125:\n      mload(0x40)\n      dup1\n      swap2\n      sub\n      swap1\n      return\n        /* \"inviter_presell/stake.sol\":2181:2275  function curTime() external  view  returns (uint256) {... */\n    tag_26:\n      tag_126\n      tag_127\n      jump\t// in\n    tag_126:\n      mload(0x40)\n      tag_128\n      swap2\n      swap1\n      tag_49\n      jump\t// in\n    tag_128:\n      mload(0x40)\n      dup1\n      swap2\n      sub\n      swap1\n      return\n        /* \"inviter_presell/stake.sol\":7492:7635  function emergencyWithdrawToken(address token, uint256 amount) external onlyOwner {... */\n    tag_27:\n      tag_129\n      0x04\n      dup1\n      calldatasize\n      sub\n      dup2\n      add\n      swap1\n      tag_130\n      swap2\n      swap1\n      tag_131\n      jump\t// in\n    tag_130:\n      tag_132\n      jump\t// in\n    tag_129:\n      stop\n        /* \"inviter_presell/stake.sol\":6511:6805  function stake(address user, uint256 amount) external nonReentrant onlyAdmin updateReward(user) {... */\n    tag_28:\n      tag_133\n      0x04\n      dup1\n      calldatasize\n      sub\n      dup2\n      add\n      swap1\n      tag_134\n      swap2\n      swap1\n      tag_131\n      jump\t// in\n    tag_134:\n      tag_135\n      jump\t// in\n    tag_133:\n      stop\n        /* \"inviter_presell/stake.sol\":2283:2394  function powersOf(address account) external view returns (uint256) {... */\n    tag_29:\n      tag_136\n      0x04\n      dup1\n      calldatasize\n      sub\n      dup2\n      add\n      swap1\n      tag_137\n      swap2\n      swap1\n      tag_46\n      jump\t// in\n    tag_137:\n      tag_138\n      jump\t// in\n    tag_136:\n      mload(0x40)\n      tag_139\n      swap2\n      swap1\n      tag_49\n      jump\t// in\n    tag_139:\n      mload(0x40)\n      dup1\n      swap2\n      sub\n      swap1\n      return\n        /* \"inviter_presell/stake.sol\":782:811  uint256 public lastUpdateTime */\n    tag_30:\n      tag_140\n      tag_141\n      jump\t// in\n    tag_140:\n      mload(0x40)\n      tag_142\n      swap2\n      swap1\n      tag_49\n      jump\t// in\n    tag_142:\n      mload(0x40)\n      dup1\n      swap2\n      sub\n      swap1\n      return\n        /* \"inviter_presell/stake.sol\":3953:4068  function getCurRewardRate() public view returns (uint256) {... */\n    tag_31:\n      tag_143\n      tag_144\n      jump\t// in\n    tag_143:\n      mload(0x40)\n      tag_145\n      swap2\n      swap1\n      tag_49\n      jump\t// in\n    tag_145:\n      mload(0x40)\n      dup1\n      swap2\n      sub\n      swap1\n      return\n        /* \"inviter_presell/stake.sol\":467:493  IERC20 public rewardsToken */\n    tag_32:\n      tag_146\n      tag_147\n      jump\t// in\n    tag_146:\n      mload(0x40)\n      tag_148\n      swap2\n      swap1\n      tag_149\n      jump\t// in\n    tag_148:\n      mload(0x40)\n      dup1\n      swap2\n      sub\n      swap1\n      return\n        /* \"inviter_presell/stake.sol\":5118:6501  function getTimeWeightedAveRate(uint256 leftTime, uint256 rightTime) public view returns (uint256){... */\n    tag_33:\n      tag_150\n      0x04\n      dup1\n      calldatasize\n      sub\n      dup2\n      add\n      swap1\n      tag_151\n      swap2\n      swap1\n      tag_152\n      jump\t// in\n    tag_151:\n      tag_153\n      jump\t// in\n    tag_150:\n      mload(0x40)\n      tag_154\n      swap2\n      swap1\n      tag_49\n      jump\t// in\n    tag_154:\n      mload(0x40)\n      dup1\n      swap2\n      sub\n      swap1\n      return\n        /* \"inviter_presell/stake.sol\":7369:7484  function emergencyWithdraw() external onlyOwner {... */\n    tag_34:\n      tag_155\n      tag_156\n      jump\t// in\n    tag_155:\n      stop\n        /* \"inviter_presell/stake.sol\":818:853  uint256 public rewardPerTokenStored */\n    tag_35:\n      tag_157\n      tag_158\n      jump\t// in\n    tag_157:\n      mload(0x40)\n      tag_159\n      swap2\n      swap1\n      tag_49\n      jump\t// in\n    tag_159:\n      mload(0x40)\n      dup1\n      swap2\n      sub\n      swap1\n      return\n        /* \"inviter_presell/adminable.sol\":1234:1435  function transferOwnership(address newOwner) public virtual onlyOwner {... */\n    tag_36:\n      tag_160\n      0x04\n      dup1\n      calldatasize\n      sub\n      dup2\n      add\n      swap1\n      tag_161\n      swap2\n      swap1\n      tag_46\n      jump\t// in\n    tag_161:\n      tag_162\n      jump\t// in\n    tag_160:\n      stop\n        /* \"inviter_presell/stake.sol\":4779:5075  function earned(address account) public view returns (uint256) {... */\n    tag_47:\n        /* \"inviter_presell/stake.sol\":4833:4840  uint256 */\n      0x00\n        /* \"inviter_presell/stake.sol\":4853:4865  uint256 rate */\n      dup1\n        /* \"inviter_presell/stake.sol\":4868:4936  getTimeWeightedAveRate(userLastUpdateTime[account], block.timestamp) */\n      tag_164\n        /* \"inviter_presell/stake.sol\":4891:4909  userLastUpdateTime */\n      0x0d\n        /* \"inviter_presell/stake.sol\":4891:4918  userLastUpdateTime[account] */\n      0x00\n        /* \"inviter_presell/stake.sol\":4910:4917  account */\n      dup6\n        /* \"inviter_presell/stake.sol\":4891:4918  userLastUpdateTime[account] */\n      0xffffffffffffffffffffffffffffffffffffffff\n      and\n      0xffffffffffffffffffffffffffffffffffffffff\n      and\n      dup2\n      mstore\n      0x20\n      add\n      swap1\n      dup2\n      mstore\n      0x20\n      add\n      0x00\n      keccak256\n      sload\n        /* \"inviter_presell/stake.sol\":4920:4935  block.timestamp */\n      timestamp\n        /* \"inviter_presell/stake.sol\":4868:4890  getTimeWeightedAveRate */\n      tag_153\n        /* \"inviter_presell/stake.sol\":4868:4936  getTimeWeightedAveRate(userLastUpdateTime[account], block.timestamp) */\n      jump\t// in\n    tag_164:\n        /* \"inviter_presell/stake.sol\":4853:4936  uint256 rate = getTimeWeightedAveRate(userLastUpdateTime[account], block.timestamp) */\n      swap1\n      pop\n        /* \"inviter_presell/stake.sol\":4954:5067  _balances[account].mul(rewardPerToken(rate).sub(userRewardPerTokenPaid[account])).div(1e18).add(rewards[account]) */\n      tag_165\n        /* \"inviter_presell/stake.sol\":5050:5057  rewards */\n      0x04\n        /* \"inviter_presell/stake.sol\":5050:5066  rewards[account] */\n      0x00\n        /* \"inviter_presell/stake.sol\":5058:5065  account */\n      dup6\n        /* \"inviter_presell/stake.sol\":5050:5066  rewards[account] */\n      0xffffffffffffffffffffffffffffffffffffffff\n      and\n      0xffffffffffffffffffffffffffffffffffffffff\n      and\n      dup2\n      mstore\n      0x20\n      add\n      swap1\n      dup2\n      mstore\n      0x20\n      add\n      0x00\n      keccak256\n      sload\n        /* \"inviter_presell/stake.sol\":4954:5045  _balances[account].mul(rewardPerToken(rate).sub(userRewardPerTokenPaid[account])).div(1e18) */\n      tag_166\n        /* \"inviter_presell/stake.sol\":5040:5044  1e18 */\n      0x0de0b6b3a7640000\n        /* \"inviter_presell/stake.sol\":4954:5035  _balances[account].mul(rewardPerToken(rate).sub(userRewardPerTokenPaid[account])) */\n      tag_167\n        /* \"inviter_presell/stake.sol\":4977:5034  rewardPerToken(rate).sub(userRewardPerTokenPaid[account]) */\n      tag_168\n        /* \"inviter_presell/stake.sol\":5002:5024  userRewardPerTokenPaid */\n      0x0c\n        /* \"inviter_presell/stake.sol\":5002:5033  userRewardPerTokenPaid[account] */\n      0x00\n        /* \"inviter_presell/stake.sol\":5025:5032  account */\n      dup11\n        /* \"inviter_presell/stake.sol\":5002:5033  userRewardPerTokenPaid[account] */\n      0xffffffffffffffffffffffffffffffffffffffff\n      and\n      0xffffffffffffffffffffffffffffffffffffffff\n      and\n      dup2\n      mstore\n      0x20\n      add\n      swap1\n      dup2\n      mstore\n      0x20\n      add\n      0x00\n      keccak256\n      sload\n        /* \"inviter_presell/stake.sol\":4977:4997  rewardPerToken(rate) */\n      tag_169\n        /* \"inviter_presell/stake.sol\":4992:4996  rate */\n      dup9\n        /* \"inviter_presell/stake.sol\":4977:4991  rewardPerToken */\n      tag_110\n        /* \"inviter_presell/stake.sol\":4977:4997  rewardPerToken(rate) */\n      jump\t// in\n    tag_169:\n        /* \"inviter_presell/stake.sol\":4977:5001  rewardPerToken(rate).sub */\n      tag_170\n      swap1\n        /* \"inviter_presell/stake.sol\":4977:5034  rewardPerToken(rate).sub(userRewardPerTokenPaid[account]) */\n      swap2\n      swap1\n      0xffffffff\n      and\n      jump\t// in\n    tag_168:\n        /* \"inviter_presell/stake.sol\":4954:4963  _balances */\n      0x0f\n        /* \"inviter_presell/stake.sol\":4954:4972  _balances[account] */\n      0x00\n        /* \"inviter_presell/stake.sol\":4964:4971  account */\n      dup11\n        /* \"inviter_presell/stake.sol\":4954:4972  _balances[account] */\n      0xffffffffffffffffffffffffffffffffffffffff\n      and\n      0xffffffffffffffffffffffffffffffffffffffff\n      and\n      dup2\n      mstore\n      0x20\n      add\n      swap1\n      dup2\n      mstore\n      0x20\n      add\n      0x00\n      keccak256\n      sload\n        /* \"inviter_presell/stake.sol\":4954:4976  _balances[account].mul */\n      tag_171\n      swap1\n        /* \"inviter_presell/stake.sol\":4954:5035  _balances[account].mul(rewardPerToken(rate).sub(userRewardPerTokenPaid[account])) */\n      swap2\n      swap1\n      0xffffffff\n      and\n      jump\t// in\n    tag_167:\n        /* \"inviter_presell/stake.sol\":4954:5039  _balances[account].mul(rewardPerToken(rate).sub(userRewardPerTokenPaid[account])).div */\n      tag_172\n      swap1\n        /* \"inviter_presell/stake.sol\":4954:5045  _balances[account].mul(rewardPerToken(rate).sub(userRewardPerTokenPaid[account])).div(1e18) */\n      swap2\n      swap1\n      0xffffffff\n      and\n      jump\t// in\n    tag_166:\n        /* \"inviter_presell/stake.sol\":4954:5049  _balances[account].mul(rewardPerToken(rate).sub(userRewardPerTokenPaid[account])).div(1e18).add */\n      tag_173\n      swap1\n        /* \"inviter_presell/stake.sol\":4954:5067  _balances[account].mul(rewardPerToken(rate).sub(userRewardPerTokenPaid[account])).div(1e18).add(rewards[account]) */\n      swap2\n      swap1\n      0xffffffff\n      and\n      jump\t// in\n    tag_165:\n        /* \"inviter_presell/stake.sol\":4947:5067  return _balances[account].mul(rewardPerToken(rate).sub(userRewardPerTokenPaid[account])).div(1e18).add(rewards[account]) */\n      swap2\n      pop\n      pop\n        /* \"inviter_presell/stake.sol\":4779:5075  function earned(address account) public view returns (uint256) {... */\n      swap2\n      swap1\n      pop\n      jump\t// out\n        /* \"inviter_presell/stake.sol\":500:542  mapping(address => uint256) public rewards */\n    tag_52:\n      mstore(0x20, 0x04)\n      dup1\n      0x00\n      mstore\n      keccak256(0x00, 0x40)\n      0x00\n      swap2\n      pop\n      swap1\n      pop\n      sload\n      dup2\n      jump\t// out\n        /* \"inviter_presell/stake.sol\":551:598  uint256 public totalRewards = 168000 * 10 ** 18 */\n    tag_55:\n      sload(0x05)\n      dup2\n      jump\t// out\n        /* \"inviter_presell/stake.sol\":1682:1974  function setConfig(uint256 _rateInterval, uint256 _rateIntervalNumerator, uint256 _rateIntervalDenominator) external onlyOwner {... */\n    tag_60:\n        /* \"inviter_presell/adminable.sol\":702:714  _msgSender() */\n      tag_175\n        /* \"inviter_presell/adminable.sol\":702:712  _msgSender */\n      tag_176\n        /* \"inviter_presell/adminable.sol\":702:714  _msgSender() */\n      jump\t// in\n    tag_175:\n        /* \"inviter_presell/adminable.sol\":691:714  owner() == _msgSender() */\n      0xffffffffffffffffffffffffffffffffffffffff\n      and\n        /* \"inviter_presell/adminable.sol\":691:698  owner() */\n      tag_177\n        /* \"inviter_presell/adminable.sol\":691:696  owner */\n      tag_120\n        /* \"inviter_presell/adminable.sol\":691:698  owner() */\n      jump\t// in\n    tag_177:\n        /* \"inviter_presell/adminable.sol\":691:714  owner() == _msgSender() */\n      0xffffffffffffffffffffffffffffffffffffffff\n      and\n      eq\n        /* \"inviter_presell/adminable.sol\":683:753  require(owner() == _msgSender(), \"Adminable: caller is not the owner\") */\n      tag_178\n      jumpi\n      mload(0x40)\n      0x08c379a000000000000000000000000000000000000000000000000000000000\n      dup2\n      mstore\n      0x04\n      add\n      tag_179\n      swap1\n      tag_180\n      jump\t// in\n    tag_179:\n      mload(0x40)\n      dup1\n      swap2\n      sub\n      swap1\n      revert\n    tag_178:\n        /* \"inviter_presell/stake.sol\":1835:1848  _rateInterval */\n      dup3\n        /* \"inviter_presell/stake.sol\":1820:1832  rateInterval */\n      0x07\n        /* \"inviter_presell/stake.sol\":1820:1848  rateInterval = _rateInterval */\n      dup2\n      swap1\n      sstore\n      pop\n        /* \"inviter_presell/stake.sol\":1883:1905  _rateIntervalNumerator */\n      dup2\n        /* \"inviter_presell/stake.sol\":1859:1880  rateIntervalNumerator */\n      0x08\n        /* \"inviter_presell/stake.sol\":1859:1905  rateIntervalNumerator = _rateIntervalNumerator */\n      dup2\n      swap1\n      sstore\n      pop\n        /* \"inviter_presell/stake.sol\":1942:1966  _rateIntervalDenominator */\n      dup1\n        /* \"inviter_presell/stake.sol\":1916:1939  rateIntervalDenominator */\n      0x09\n        /* \"inviter_presell/stake.sol\":1916:1966  rateIntervalDenominator = _rateIntervalDenominator */\n      dup2\n      swap1\n      sstore\n      pop\n        /* \"inviter_presell/stake.sol\":1682:1974  function setConfig(uint256 _rateInterval, uint256 _rateIntervalNumerator, uint256 _rateIntervalDenominator) external onlyOwner {... */\n      pop\n      pop\n      pop\n      jump\t// out\n        /* \"inviter_presell/adminable.sol\":1642:1826  function modificationAdmin(address admin, bool state) public virtual onlyOwner {... */\n    tag_64:\n        /* \"inviter_presell/adminable.sol\":702:714  _msgSender() */\n      tag_183\n        /* \"inviter_presell/adminable.sol\":702:712  _msgSender */\n      tag_176\n        /* \"inviter_presell/adminable.sol\":702:714  _msgSender() */\n      jump\t// in\n    tag_183:\n        /* \"inviter_presell/adminable.sol\":691:714  owner() == _msgSender() */\n      0xffffffffffffffffffffffffffffffffffffffff\n      and\n        /* \"inviter_presell/adminable.sol\":691:698  owner() */\n      tag_184\n        /* \"inviter_presell/adminable.sol\":691:696  owner */\n      tag_120\n        /* \"inviter_presell/adminable.sol\":691:698  owner() */\n      jump\t// in\n    tag_184:\n        /* \"inviter_presell/adminable.sol\":691:714  owner() == _msgSender() */\n      0xffffffffffffffffffffffffffffffffffffffff\n      and\n      eq\n        /* \"inviter_presell/adminable.sol\":683:753  require(owner() == _msgSender(), \"Adminable: caller is not the owner\") */\n      tag_185\n      jumpi\n      mload(0x40)\n      0x08c379a000000000000000000000000000000000000000000000000000000000\n      dup2\n      mstore\n      0x04\n      add\n      tag_186\n      swap1\n      tag_180\n      jump\t// in\n    tag_186:\n      mload(0x40)\n      dup1\n      swap2\n      sub\n      swap1\n      revert\n    tag_185:\n        /* \"inviter_presell/adminable.sol\":1755:1760  admin */\n      dup2\n        /* \"inviter_presell/adminable.sol\":1737:1785  ModificationAdmin(admin,  _admins[admin], state) */\n      0xffffffffffffffffffffffffffffffffffffffff\n      and\n      0x82f1fa40a3d82dea3e406073819290601f436580aa7c69f9feb61f885bdd8854\n        /* \"inviter_presell/adminable.sol\":1763:1770  _admins */\n      0x00\n        /* \"inviter_presell/adminable.sol\":1763:1777  _admins[admin] */\n      dup1\n        /* \"inviter_presell/adminable.sol\":1771:1776  admin */\n      dup6\n        /* \"inviter_presell/adminable.sol\":1763:1777  _admins[admin] */\n      0xffffffffffffffffffffffffffffffffffffffff\n      and\n      0xffffffffffffffffffffffffffffffffffffffff\n      and\n      dup2\n      mstore\n      0x20\n      add\n      swap1\n      dup2\n      mstore\n      0x20\n      add\n      0x00\n      keccak256\n      0x00\n      swap1\n      sload\n      swap1\n      0x0100\n      exp\n      swap1\n      div\n      0xff\n      and\n        /* \"inviter_presell/adminable.sol\":1779:1784  state */\n      dup4\n        /* \"inviter_presell/adminable.sol\":1737:1785  ModificationAdmin(admin,  _admins[admin], state) */\n      mload(0x40)\n      tag_188\n      swap3\n      swap2\n      swap1\n      tag_189\n      jump\t// in\n    tag_188:\n      mload(0x40)\n      dup1\n      swap2\n      sub\n      swap1\n      log2\n        /* \"inviter_presell/adminable.sol\":1813:1818  state */\n      dup1\n        /* \"inviter_presell/adminable.sol\":1796:1803  _admins */\n      0x00\n        /* \"inviter_presell/adminable.sol\":1796:1810  _admins[admin] */\n      dup1\n        /* \"inviter_presell/adminable.sol\":1804:1809  admin */\n      dup5\n        /* \"inviter_presell/adminable.sol\":1796:1810  _admins[admin] */\n      0xffffffffffffffffffffffffffffffffffffffff\n      and\n      0xffffffffffffffffffffffffffffffffffffffff\n      and\n      dup2\n      mstore\n      0x20\n      add\n      swap1\n      dup2\n      mstore\n      0x20\n      add\n      0x00\n      keccak256\n      0x00\n        /* \"inviter_presell/adminable.sol\":1796:1818  _admins[admin] = state */\n      0x0100\n      exp\n      dup2\n      sload\n      dup2\n      0xff\n      mul\n      not\n      and\n      swap1\n      dup4\n      iszero\n      iszero\n      mul\n      or\n      swap1\n      sstore\n      pop\n        /* \"inviter_presell/adminable.sol\":1642:1826  function modificationAdmin(address admin, bool state) public virtual onlyOwner {... */\n      pop\n      pop\n      jump\t// out\n        /* \"inviter_presell/adminable.sol\":1004:1115  function isAdmin(address account) public view virtual returns (bool) {... */\n    tag_67:\n        /* \"inviter_presell/adminable.sol\":1067:1071  bool */\n      0x00\n        /* \"inviter_presell/adminable.sol\":1091:1098  _admins */\n      dup1\n        /* \"inviter_presell/adminable.sol\":1091:1107  _admins[account] */\n      0x00\n        /* \"inviter_presell/adminable.sol\":1099:1106  account */\n      dup4\n        /* \"inviter_presell/adminable.sol\":1091:1107  _admins[account] */\n      0xffffffffffffffffffffffffffffffffffffffff\n      and\n      0xffffffffffffffffffffffffffffffffffffffff\n      and\n      dup2\n      mstore\n      0x20\n      add\n      swap1\n      dup2\n      mstore\n      0x20\n      add\n      0x00\n      keccak256\n      0x00\n      swap1\n      sload\n      swap1\n      0x0100\n      exp\n      swap1\n      div\n      0xff\n      and\n        /* \"inviter_presell/adminable.sol\":1084:1107  return _admins[account] */\n      swap1\n      pop\n        /* \"inviter_presell/adminable.sol\":1004:1115  function isAdmin(address account) public view virtual returns (bool) {... */\n      swap2\n      swap1\n      pop\n      jump\t// out\n        /* \"inviter_presell/stake.sol\":683:723  uint256 public rateIntervalNumerator = 5 */\n    tag_71:\n      sload(0x08)\n      dup2\n      jump\t// out\n        /* \"inviter_presell/stake.sol\":6817:7122  function getReward() external nonReentrant updateReward(msg.sender) {... */\n    tag_74:\n        /* \"node_modules/@openzeppelin/contracts/security/ReentrancyGuard.sol\":1744:1745  2 */\n      0x02\n        /* \"node_modules/@openzeppelin/contracts/security/ReentrancyGuard.sol\":2325:2332  _status */\n      dup1\n      sload\n        /* \"node_modules/@openzeppelin/contracts/security/ReentrancyGuard.sol\":2325:2344  _status != _ENTERED */\n      sub\n        /* \"node_modules/@openzeppelin/contracts/security/ReentrancyGuard.sol\":2317:2380  require(_status != _ENTERED, \"ReentrancyGuard: reentrant call\") */\n      tag_192\n      jumpi\n      mload(0x40)\n      0x08c379a000000000000000000000000000000000000000000000000000000000\n      dup2\n      mstore\n      0x04\n      add\n      tag_193\n      swap1\n      tag_194\n      jump\t// in\n    tag_193:\n      mload(0x40)\n      dup1\n      swap2\n      sub\n      swap1\n      revert\n    tag_192:\n        /* \"node_modules/@openzeppelin/contracts/security/ReentrancyGuard.sol\":1744:1745  2 */\n      0x02\n        /* \"node_modules/@openzeppelin/contracts/security/ReentrancyGuard.sol\":2455:2462  _status */\n      dup1\n        /* \"node_modules/@openzeppelin/contracts/security/ReentrancyGuard.sol\":2455:2473  _status = _ENTERED */\n      dup2\n      swap1\n      sstore\n      pop\n        /* \"inviter_presell/stake.sol\":6873:6883  msg.sender */\n      caller\n        /* \"inviter_presell/stake.sol\":1131:1143  uint256 time */\n      0x00\n        /* \"inviter_presell/stake.sol\":1146:1164  userLastUpdateTime */\n      0x0d\n        /* \"inviter_presell/stake.sol\":1146:1173  userLastUpdateTime[account] */\n      0x00\n        /* \"inviter_presell/stake.sol\":1165:1172  account */\n      dup4\n        /* \"inviter_presell/stake.sol\":1146:1173  userLastUpdateTime[account] */\n      0xffffffffffffffffffffffffffffffffffffffff\n      and\n      0xffffffffffffffffffffffffffffffffffffffff\n      and\n      dup2\n      mstore\n      0x20\n      add\n      swap1\n      dup2\n      mstore\n      0x20\n      add\n      0x00\n      keccak256\n      sload\n        /* \"inviter_presell/stake.sol\":1131:1173  uint256 time = userLastUpdateTime[account] */\n      swap1\n      pop\n        /* \"inviter_presell/stake.sol\":1195:1204  startTime */\n      sload(0x06)\n        /* \"inviter_presell/stake.sol\":1187:1191  time */\n      dup2\n        /* \"inviter_presell/stake.sol\":1187:1204  time <= startTime */\n      gt\n        /* \"inviter_presell/stake.sol\":1184:1249  if(time <= startTime) {... */\n      tag_196\n      jumpi\n        /* \"inviter_presell/stake.sol\":1228:1237  startTime */\n      sload(0x06)\n        /* \"inviter_presell/stake.sol\":1221:1237  time = startTime */\n      swap1\n      pop\n        /* \"inviter_presell/stake.sol\":1184:1249  if(time <= startTime) {... */\n    tag_196:\n        /* \"inviter_presell/stake.sol\":1259:1271  uint256 rate */\n      0x00\n        /* \"inviter_presell/stake.sol\":1274:1319  getTimeWeightedAveRate(time, block.timestamp) */\n      tag_197\n        /* \"inviter_presell/stake.sol\":1297:1301  time */\n      dup3\n        /* \"inviter_presell/stake.sol\":1303:1318  block.timestamp */\n      timestamp\n        /* \"inviter_presell/stake.sol\":1274:1296  getTimeWeightedAveRate */\n      tag_153\n        /* \"inviter_presell/stake.sol\":1274:1319  getTimeWeightedAveRate(time, block.timestamp) */\n      jump\t// in\n    tag_197:\n        /* \"inviter_presell/stake.sol\":1259:1319  uint256 rate = getTimeWeightedAveRate(time, block.timestamp) */\n      swap1\n      pop\n        /* \"inviter_presell/stake.sol\":1353:1373  rewardPerToken(rate) */\n      tag_198\n        /* \"inviter_presell/stake.sol\":1368:1372  rate */\n      dup2\n        /* \"inviter_presell/stake.sol\":1353:1367  rewardPerToken */\n      tag_110\n        /* \"inviter_presell/stake.sol\":1353:1373  rewardPerToken(rate) */\n      jump\t// in\n    tag_198:\n        /* \"inviter_presell/stake.sol\":1330:1350  rewardPerTokenStored */\n      0x0b\n        /* \"inviter_presell/stake.sol\":1330:1373  rewardPerTokenStored = rewardPerToken(rate) */\n      dup2\n      swap1\n      sstore\n      pop\n        /* \"inviter_presell/stake.sol\":1401:1427  lastTimeRewardApplicable() */\n      tag_199\n        /* \"inviter_presell/stake.sol\":1401:1425  lastTimeRewardApplicable */\n      tag_102\n        /* \"inviter_presell/stake.sol\":1401:1427  lastTimeRewardApplicable() */\n      jump\t// in\n    tag_199:\n        /* \"inviter_presell/stake.sol\":1384:1398  lastUpdateTime */\n      0x0a\n        /* \"inviter_presell/stake.sol\":1384:1427  lastUpdateTime = lastTimeRewardApplicable() */\n      dup2\n      swap1\n      sstore\n      pop\n        /* \"inviter_presell/stake.sol\":1461:1462  0 */\n      0x00\n        /* \"inviter_presell/stake.sol\":1442:1463  account != address(0) */\n      0xffffffffffffffffffffffffffffffffffffffff\n      and\n        /* \"inviter_presell/stake.sol\":1442:1449  account */\n      dup4\n        /* \"inviter_presell/stake.sol\":1442:1463  account != address(0) */\n      0xffffffffffffffffffffffffffffffffffffffff\n      and\n      eq\n        /* \"inviter_presell/stake.sol\":1438:1655  if (account != address(0)) {... */\n      tag_200\n      jumpi\n        /* \"inviter_presell/stake.sol\":1499:1514  earned(account) */\n      tag_201\n        /* \"inviter_presell/stake.sol\":1506:1513  account */\n      dup4\n        /* \"inviter_presell/stake.sol\":1499:1505  earned */\n      tag_47\n        /* \"inviter_presell/stake.sol\":1499:1514  earned(account) */\n      jump\t// in\n    tag_201:\n        /* \"inviter_presell/stake.sol\":1480:1487  rewards */\n      0x04\n        /* \"inviter_presell/stake.sol\":1480:1496  rewards[account] */\n      0x00\n        /* \"inviter_presell/stake.sol\":1488:1495  account */\n      dup6\n        /* \"inviter_presell/stake.sol\":1480:1496  rewards[account] */\n      0xffffffffffffffffffffffffffffffffffffffff\n      and\n      0xffffffffffffffffffffffffffffffffffffffff\n      and\n      dup2\n      mstore\n      0x20\n      add\n      swap1\n      dup2\n      mstore\n      0x20\n      add\n      0x00\n      keccak256\n        /* \"inviter_presell/stake.sol\":1480:1514  rewards[account] = earned(account) */\n      dup2\n      swap1\n      sstore\n      pop\n        /* \"inviter_presell/stake.sol\":1563:1583  rewardPerTokenStored */\n      sload(0x0b)\n        /* \"inviter_presell/stake.sol\":1529:1551  userRewardPerTokenPaid */\n      0x0c\n        /* \"inviter_presell/stake.sol\":1529:1560  userRewardPerTokenPaid[account] */\n      0x00\n        /* \"inviter_presell/stake.sol\":1552:1559  account */\n      dup6\n        /* \"inviter_presell/stake.sol\":1529:1560  userRewardPerTokenPaid[account] */\n      0xffffffffffffffffffffffffffffffffffffffff\n      and\n      0xffffffffffffffffffffffffffffffffffffffff\n      and\n      dup2\n      mstore\n      0x20\n      add\n      swap1\n      dup2\n      mstore\n      0x20\n      add\n      0x00\n      keccak256\n        /* \"inviter_presell/stake.sol\":1529:1583  userRewardPerTokenPaid[account] = rewardPerTokenStored */\n      dup2\n      swap1\n      sstore\n      pop\n        /* \"inviter_presell/stake.sol\":1628:1643  block.timestamp */\n      timestamp\n        /* \"inviter_presell/stake.sol\":1598:1616  userLastUpdateTime */\n      0x0d\n        /* \"inviter_presell/stake.sol\":1598:1625  userLastUpdateTime[account] */\n      0x00\n        /* \"inviter_presell/stake.sol\":1617:1624  account */\n      dup6\n        /* \"inviter_presell/stake.sol\":1598:1625  userLastUpdateTime[account] */\n      0xffffffffffffffffffffffffffffffffffffffff\n      and\n      0xffffffffffffffffffffffffffffffffffffffff\n      and\n      dup2\n      mstore\n      0x20\n      add\n      swap1\n      dup2\n      mstore\n      0x20\n      add\n      0x00\n      keccak256\n        /* \"inviter_presell/stake.sol\":1598:1643  userLastUpdateTime[account] = block.timestamp */\n      dup2\n      swap1\n      sstore\n      pop\n        /* \"inviter_presell/stake.sol\":1438:1655  if (account != address(0)) {... */\n    tag_200:\n        /* \"inviter_presell/stake.sol\":6896:6910  uint256 reward */\n      0x00\n        /* \"inviter_presell/stake.sol\":6913:6920  rewards */\n      0x04\n        /* \"inviter_presell/stake.sol\":6913:6932  rewards[msg.sender] */\n      0x00\n        /* \"inviter_presell/stake.sol\":6921:6931  msg.sender */\n      caller\n        /* \"inviter_presell/stake.sol\":6913:6932  rewards[msg.sender] */\n      0xffffffffffffffffffffffffffffffffffffffff\n      and\n      0xffffffffffffffffffffffffffffffffffffffff\n      and\n      dup2\n      mstore\n      0x20\n      add\n      swap1\n      dup2\n      mstore\n      0x20\n      add\n      0x00\n      keccak256\n      sload\n        /* \"inviter_presell/stake.sol\":6896:6932  uint256 reward = rewards[msg.sender] */\n      swap1\n      pop\n        /* \"inviter_presell/stake.sol\":6956:6957  0 */\n      0x00\n        /* \"inviter_presell/stake.sol\":6947:6953  reward */\n      dup2\n        /* \"inviter_presell/stake.sol\":6947:6957  reward > 0 */\n      gt\n        /* \"inviter_presell/stake.sol\":6943:7115  if (reward > 0) {... */\n      iszero\n      tag_203\n      jumpi\n        /* \"inviter_presell/stake.sol\":6996:6997  0 */\n      0x00\n        /* \"inviter_presell/stake.sol\":6974:6981  rewards */\n      0x04\n        /* \"inviter_presell/stake.sol\":6974:6993  rewards[msg.sender] */\n      0x00\n        /* \"inviter_presell/stake.sol\":6982:6992  msg.sender */\n      caller\n        /* \"inviter_presell/stake.sol\":6974:6993  rewards[msg.sender] */\n      0xffffffffffffffffffffffffffffffffffffffff\n      and\n      0xffffffffffffffffffffffffffffffffffffffff\n      and\n      dup2\n      mstore\n      0x20\n      add\n      swap1\n      dup2\n      mstore\n      0x20\n      add\n      0x00\n      keccak256\n        /* \"inviter_presell/stake.sol\":6974:6997  rewards[msg.sender] = 0 */\n      dup2\n      swap1\n      sstore\n      pop\n        /* \"inviter_presell/stake.sol\":7012:7024  rewardsToken */\n      0x03\n      0x00\n      swap1\n      sload\n      swap1\n      0x0100\n      exp\n      swap1\n      div\n      0xffffffffffffffffffffffffffffffffffffffff\n      and\n        /* \"inviter_presell/stake.sol\":7012:7033  rewardsToken.transfer */\n      0xffffffffffffffffffffffffffffffffffffffff\n      and\n      0xa9059cbb\n        /* \"inviter_presell/stake.sol\":7034:7044  msg.sender */\n      caller\n        /* \"inviter_presell/stake.sol\":7046:7052  reward */\n      dup4\n        /* \"inviter_presell/stake.sol\":7012:7053  rewardsToken.transfer(msg.sender, reward) */\n      mload(0x40)\n      dup4\n      0xffffffff\n      and\n      0xe0\n      shl\n      dup2\n      mstore\n      0x04\n      add\n      tag_204\n      swap3\n      swap2\n      swap1\n      tag_205\n      jump\t// in\n    tag_204:\n      0x20\n      mload(0x40)\n      dup1\n      dup4\n      sub\n      dup2\n      0x00\n      dup8\n      gas\n      call\n      iszero\n      dup1\n      iszero\n      tag_207\n      jumpi\n      returndatasize\n      0x00\n      dup1\n      returndatacopy\n      revert(0x00, returndatasize)\n    tag_207:\n      pop\n      pop\n      pop\n      pop\n      mload(0x40)\n      returndatasize\n      not(0x1f)\n      0x1f\n      dup3\n      add\n      and\n      dup3\n      add\n      dup1\n      0x40\n      mstore\n      pop\n      dup2\n      add\n      swap1\n      tag_208\n      swap2\n      swap1\n      tag_209\n      jump\t// in\n    tag_208:\n      pop\n        /* \"inviter_presell/stake.sol\":7084:7094  msg.sender */\n      caller\n        /* \"inviter_presell/stake.sol\":7073:7103  RewardPaid(msg.sender, reward) */\n      0xffffffffffffffffffffffffffffffffffffffff\n      and\n      0xe2403640ba68fed3a2f88b7557551d1993f84b99bb10ff833f0cf8db0c5e0486\n        /* \"inviter_presell/stake.sol\":7096:7102  reward */\n      dup3\n        /* \"inviter_presell/stake.sol\":7073:7103  RewardPaid(msg.sender, reward) */\n      mload(0x40)\n      tag_210\n      swap2\n      swap1\n      tag_49\n      jump\t// in\n    tag_210:\n      mload(0x40)\n      dup1\n      swap2\n      sub\n      swap1\n      log2\n        /* \"inviter_presell/stake.sol\":6943:7115  if (reward > 0) {... */\n    tag_203:\n        /* \"inviter_presell/stake.sol\":6885:7122  {... */\n      pop\n        /* \"inviter_presell/stake.sol\":1120:1674  {... */\n      pop\n      pop\n        /* \"node_modules/@openzeppelin/contracts/security/ReentrancyGuard.sol\":2484:2485  _ */\n      pop\n        /* \"node_modules/@openzeppelin/contracts/security/ReentrancyGuard.sol\":1701:1702  1 */\n      0x01\n        /* \"node_modules/@openzeppelin/contracts/security/ReentrancyGuard.sol\":2628:2635  _status */\n      0x02\n        /* \"node_modules/@openzeppelin/contracts/security/ReentrancyGuard.sol\":2628:2650  _status = _NOT_ENTERED */\n      dup2\n      swap1\n      sstore\n      pop\n        /* \"inviter_presell/stake.sol\":6817:7122  function getReward() external nonReentrant updateReward(msg.sender) {... */\n      jump\t// out\n        /* \"inviter_presell/stake.sol\":1982:2072  function setStartTime(uint256 time) external onlyAdmin {... */\n    tag_78:\n        /* \"inviter_presell/adminable.sol\":821:842  isAdmin(_msgSender()) */\n      tag_212\n        /* \"inviter_presell/adminable.sol\":829:841  _msgSender() */\n      tag_213\n        /* \"inviter_presell/adminable.sol\":829:839  _msgSender */\n      tag_176\n        /* \"inviter_presell/adminable.sol\":829:841  _msgSender() */\n      jump\t// in\n    tag_213:\n        /* \"inviter_presell/adminable.sol\":821:828  isAdmin */\n      tag_67\n        /* \"inviter_presell/adminable.sol\":821:842  isAdmin(_msgSender()) */\n      jump\t// in\n    tag_212:\n        /* \"inviter_presell/adminable.sol\":813:881  require(isAdmin(_msgSender()), \"Adminable: caller is not the admin\") */\n      tag_214\n      jumpi\n      mload(0x40)\n      0x08c379a000000000000000000000000000000000000000000000000000000000\n      dup2\n      mstore\n      0x04\n      add\n      tag_215\n      swap1\n      tag_216\n      jump\t// in\n    tag_215:\n      mload(0x40)\n      dup1\n      swap2\n      sub\n      swap1\n      revert\n    tag_214:\n        /* \"inviter_presell/stake.sol\":2060:2064  time */\n      dup1\n        /* \"inviter_presell/stake.sol\":2048:2057  startTime */\n      0x06\n        /* \"inviter_presell/stake.sol\":2048:2064  startTime = time */\n      dup2\n      swap1\n      sstore\n      pop\n        /* \"inviter_presell/stake.sol\":1982:2072  function setStartTime(uint256 time) external onlyAdmin {... */\n      pop\n      jump\t// out\n        /* \"inviter_presell/stake.sol\":3529:3945  function getRemainPool(uint256 time) public view returns (uint256) {... */\n    tag_81:\n        /* \"inviter_presell/stake.sol\":3587:3594  uint256 */\n      0x00\n        /* \"inviter_presell/stake.sol\":3623:3624  0 */\n      dup1\n        /* \"inviter_presell/stake.sol\":3610:3619  startTime */\n      sload(0x06)\n        /* \"inviter_presell/stake.sol\":3610:3624  startTime == 0 */\n      sub\n        /* \"inviter_presell/stake.sol\":3607:3669  if(startTime == 0) {... */\n      tag_219\n      jumpi\n        /* \"inviter_presell/stake.sol\":3648:3657  startTime */\n      sload(0x06)\n        /* \"inviter_presell/stake.sol\":3641:3657  return startTime */\n      swap1\n      pop\n      jump(tag_218)\n        /* \"inviter_presell/stake.sol\":3607:3669  if(startTime == 0) {... */\n    tag_219:\n        /* \"inviter_presell/stake.sol\":3679:3692  uint256 times */\n      0x00\n        /* \"inviter_presell/stake.sol\":3731:3732  1 */\n      0x01\n        /* \"inviter_presell/stake.sol\":3716:3728  rateInterval */\n      sload(0x07)\n        /* \"inviter_presell/stake.sol\":3703:3712  startTime */\n      sload(0x06)\n        /* \"inviter_presell/stake.sol\":3696:3700  time */\n      dup6\n        /* \"inviter_presell/stake.sol\":3696:3712  time - startTime */\n      tag_220\n      swap2\n      swap1\n      tag_221\n      jump\t// in\n    tag_220:\n        /* \"inviter_presell/stake.sol\":3695:3728  (time - startTime) / rateInterval */\n      tag_222\n      swap2\n      swap1\n      tag_223\n      jump\t// in\n    tag_222:\n        /* \"inviter_presell/stake.sol\":3695:3732  (time - startTime) / rateInterval + 1 */\n      tag_224\n      swap2\n      swap1\n      tag_225\n      jump\t// in\n    tag_224:\n        /* \"inviter_presell/stake.sol\":3679:3732  uint256 times = (time - startTime) / rateInterval + 1 */\n      swap1\n      pop\n        /* \"inviter_presell/stake.sol\":3743:3756  uint256 value */\n      0x00\n        /* \"inviter_presell/stake.sol\":3759:3771  totalRewards */\n      sload(0x05)\n        /* \"inviter_presell/stake.sol\":3743:3771  uint256 value = totalRewards */\n      swap1\n      pop\n        /* \"inviter_presell/stake.sol\":3786:3795  uint256 i */\n      0x00\n        /* \"inviter_presell/stake.sol\":3782:3915  for(uint256 i = 0; i < times; ++i) {... */\n    tag_226:\n        /* \"inviter_presell/stake.sol\":3805:3810  times */\n      dup3\n        /* \"inviter_presell/stake.sol\":3801:3802  i */\n      dup2\n        /* \"inviter_presell/stake.sol\":3801:3810  i < times */\n      lt\n        /* \"inviter_presell/stake.sol\":3782:3915  for(uint256 i = 0; i < times; ++i) {... */\n      iszero\n      tag_227\n      jumpi\n        /* \"inviter_presell/stake.sol\":3880:3903  rateIntervalDenominator */\n      sload(0x09)\n        /* \"inviter_presell/stake.sol\":3856:3877  rateIntervalNumerator */\n      sload(0x08)\n        /* \"inviter_presell/stake.sol\":3848:3853  value */\n      dup4\n        /* \"inviter_presell/stake.sol\":3848:3877  value * rateIntervalNumerator */\n      tag_229\n      swap2\n      swap1\n      tag_230\n      jump\t// in\n    tag_229:\n        /* \"inviter_presell/stake.sol\":3848:3903  value * rateIntervalNumerator / rateIntervalDenominator */\n      tag_231\n      swap2\n      swap1\n      tag_223\n      jump\t// in\n    tag_231:\n        /* \"inviter_presell/stake.sol\":3840:3845  value */\n      dup3\n        /* \"inviter_presell/stake.sol\":3840:3903  value - value * rateIntervalNumerator / rateIntervalDenominator */\n      tag_232\n      swap2\n      swap1\n      tag_221\n      jump\t// in\n    tag_232:\n        /* \"inviter_presell/stake.sol\":3832:3903  value = value - value * rateIntervalNumerator / rateIntervalDenominator */\n      swap2\n      pop\n        /* \"inviter_presell/stake.sol\":3812:3815  ++i */\n      dup1\n      tag_233\n      swap1\n      tag_234\n      jump\t// in\n    tag_233:\n      swap1\n      pop\n        /* \"inviter_presell/stake.sol\":3782:3915  for(uint256 i = 0; i < times; ++i) {... */\n      jump(tag_226)\n    tag_227:\n      pop\n        /* \"inviter_presell/stake.sol\":3932:3937  value */\n      dup1\n        /* \"inviter_presell/stake.sol\":3925:3937  return value */\n      swap3\n      pop\n      pop\n      pop\n        /* \"inviter_presell/stake.sol\":3529:3945  function getRemainPool(uint256 time) public view returns (uint256) {... */\n    tag_218:\n      swap2\n      swap1\n      pop\n      jump\t// out\n        /* \"inviter_presell/stake.sol\":2524:3095  function getRewardPool(uint256 time) public view returns (uint256) {... */\n    tag_85:\n        /* \"inviter_presell/stake.sol\":2582:2589  uint256 */\n      0x00\n        /* \"inviter_presell/stake.sol\":2618:2619  0 */\n      dup1\n        /* \"inviter_presell/stake.sol\":2605:2614  startTime */\n      sload(0x06)\n        /* \"inviter_presell/stake.sol\":2605:2619  startTime == 0 */\n      sub\n        /* \"inviter_presell/stake.sol\":2602:2667  if(startTime == 0) {... */\n      tag_236\n      jumpi\n        /* \"inviter_presell/stake.sol\":2643:2655  totalRewards */\n      sload(0x05)\n        /* \"inviter_presell/stake.sol\":2636:2655  return totalRewards */\n      swap1\n      pop\n      jump(tag_235)\n        /* \"inviter_presell/stake.sol\":2602:2667  if(startTime == 0) {... */\n    tag_236:\n        /* \"inviter_presell/stake.sol\":2687:2696  startTime */\n      sload(0x06)\n        /* \"inviter_presell/stake.sol\":2680:2684  time */\n      dup3\n        /* \"inviter_presell/stake.sol\":2680:2696  time < startTime */\n      lt\n        /* \"inviter_presell/stake.sol\":2677:2733  if(time < startTime) {... */\n      iszero\n      tag_237\n      jumpi\n        /* \"inviter_presell/stake.sol\":2720:2721  0 */\n      0x00\n        /* \"inviter_presell/stake.sol\":2713:2721  return 0 */\n      swap1\n      pop\n      jump(tag_235)\n        /* \"inviter_presell/stake.sol\":2677:2733  if(time < startTime) {... */\n    tag_237:\n        /* \"inviter_presell/stake.sol\":2743:2756  uint256 times */\n      0x00\n        /* \"inviter_presell/stake.sol\":2795:2796  1 */\n      0x01\n        /* \"inviter_presell/stake.sol\":2780:2792  rateInterval */\n      sload(0x07)\n        /* \"inviter_presell/stake.sol\":2767:2776  startTime */\n      sload(0x06)\n        /* \"inviter_presell/stake.sol\":2760:2764  time */\n      dup6\n        /* \"inviter_presell/stake.sol\":2760:2776  time - startTime */\n      tag_238\n      swap2\n      swap1\n      tag_221\n      jump\t// in\n    tag_238:\n        /* \"inviter_presell/stake.sol\":2759:2792  (time - startTime) / rateInterval */\n      tag_239\n      swap2\n      swap1\n      tag_223\n      jump\t// in\n    tag_239:\n        /* \"inviter_presell/stake.sol\":2759:2796  (time - startTime) / rateInterval + 1 */\n      tag_240\n      swap2\n      swap1\n      tag_225\n      jump\t// in\n    tag_240:\n        /* \"inviter_presell/stake.sol\":2743:2796  uint256 times = (time - startTime) / rateInterval + 1 */\n      swap1\n      pop\n        /* \"inviter_presell/stake.sol\":2807:2820  uint256 value */\n      0x00\n        /* \"inviter_presell/stake.sol\":2823:2835  totalRewards */\n      sload(0x05)\n        /* \"inviter_presell/stake.sol\":2807:2835  uint256 value = totalRewards */\n      swap1\n      pop\n        /* \"inviter_presell/stake.sol\":2850:2859  uint256 i */\n      0x00\n        /* \"inviter_presell/stake.sol\":2846:2979  for(uint256 i = 0; i < times; ++i) {... */\n    tag_241:\n        /* \"inviter_presell/stake.sol\":2869:2874  times */\n      dup3\n        /* \"inviter_presell/stake.sol\":2865:2866  i */\n      dup2\n        /* \"inviter_presell/stake.sol\":2865:2874  i < times */\n      lt\n        /* \"inviter_presell/stake.sol\":2846:2979  for(uint256 i = 0; i < times; ++i) {... */\n      iszero\n      tag_242\n      jumpi\n        /* \"inviter_presell/stake.sol\":2944:2967  rateIntervalDenominator */\n      sload(0x09)\n        /* \"inviter_presell/stake.sol\":2920:2941  rateIntervalNumerator */\n      sload(0x08)\n        /* \"inviter_presell/stake.sol\":2912:2917  value */\n      dup4\n        /* \"inviter_presell/stake.sol\":2912:2941  value * rateIntervalNumerator */\n      tag_244\n      swap2\n      swap1\n      tag_230\n      jump\t// in\n    tag_244:\n        /* \"inviter_presell/stake.sol\":2912:2967  value * rateIntervalNumerator / rateIntervalDenominator */\n      tag_245\n      swap2\n      swap1\n      tag_223\n      jump\t// in\n    tag_245:\n        /* \"inviter_presell/stake.sol\":2904:2909  value */\n      dup3\n        /* \"inviter_presell/stake.sol\":2904:2967  value - value * rateIntervalNumerator / rateIntervalDenominator */\n      tag_246\n      swap2\n      swap1\n      tag_221\n      jump\t// in\n    tag_246:\n        /* \"inviter_presell/stake.sol\":2896:2967  value = value - value * rateIntervalNumerator / rateIntervalDenominator */\n      swap2\n      pop\n        /* \"inviter_presell/stake.sol\":2876:2879  ++i */\n      dup1\n      tag_247\n      swap1\n      tag_234\n      jump\t// in\n    tag_247:\n      swap1\n      pop\n        /* \"inviter_presell/stake.sol\":2846:2979  for(uint256 i = 0; i < times; ++i) {... */\n      jump(tag_241)\n    tag_242:\n      pop\n        /* \"inviter_presell/stake.sol\":3026:3087  value.mul(rateIntervalNumerator).div(rateIntervalDenominator) */\n      tag_248\n        /* \"inviter_presell/stake.sol\":3063:3086  rateIntervalDenominator */\n      sload(0x09)\n        /* \"inviter_presell/stake.sol\":3026:3058  value.mul(rateIntervalNumerator) */\n      tag_249\n        /* \"inviter_presell/stake.sol\":3036:3057  rateIntervalNumerator */\n      sload(0x08)\n        /* \"inviter_presell/stake.sol\":3026:3031  value */\n      dup5\n        /* \"inviter_presell/stake.sol\":3026:3035  value.mul */\n      tag_171\n      swap1\n        /* \"inviter_presell/stake.sol\":3026:3058  value.mul(rateIntervalNumerator) */\n      swap2\n      swap1\n      0xffffffff\n      and\n      jump\t// in\n    tag_249:\n        /* \"inviter_presell/stake.sol\":3026:3062  value.mul(rateIntervalNumerator).div */\n      tag_172\n      swap1\n        /* \"inviter_presell/stake.sol\":3026:3087  value.mul(rateIntervalNumerator).div(rateIntervalDenominator) */\n      swap2\n      swap1\n      0xffffffff\n      and\n      jump\t// in\n    tag_248:\n        /* \"inviter_presell/stake.sol\":3019:3087  return value.mul(rateIntervalNumerator).div(rateIntervalDenominator) */\n      swap3\n      pop\n      pop\n      pop\n        /* \"inviter_presell/stake.sol\":2524:3095  function getRewardPool(uint256 time) public view returns (uint256) {... */\n    tag_235:\n      swap2\n      swap1\n      pop\n      jump\t// out\n        /* \"inviter_presell/stake.sol\":636:676  uint256 public rateInterval = 10 minutes */\n    tag_88:\n      sload(0x07)\n      dup2\n      jump\t// out\n        /* \"inviter_presell/stake.sol\":2080:2173  function totalPowers() external view returns (uint256) {... */\n    tag_91:\n        /* \"inviter_presell/stake.sol\":2126:2133  uint256 */\n      0x00\n        /* \"inviter_presell/stake.sol\":2153:2165  _totalPowers */\n      sload(0x0e)\n        /* \"inviter_presell/stake.sol\":2146:2165  return _totalPowers */\n      swap1\n      pop\n        /* \"inviter_presell/stake.sol\":2080:2173  function totalPowers() external view returns (uint256) {... */\n      swap1\n      jump\t// out\n        /* \"inviter_presell/adminable.sol\":1123:1226  function renounceOwnership() public virtual onlyOwner {... */\n    tag_94:\n        /* \"inviter_presell/adminable.sol\":702:714  _msgSender() */\n      tag_252\n        /* \"inviter_presell/adminable.sol\":702:712  _msgSender */\n      tag_176\n        /* \"inviter_presell/adminable.sol\":702:714  _msgSender() */\n      jump\t// in\n    tag_252:\n        /* \"inviter_presell/adminable.sol\":691:714  owner() == _msgSender() */\n      0xffffffffffffffffffffffffffffffffffffffff\n      and\n        /* \"inviter_presell/adminable.sol\":691:698  owner() */\n      tag_253\n        /* \"inviter_presell/adminable.sol\":691:696  owner */\n      tag_120\n        /* \"inviter_presell/adminable.sol\":691:698  owner() */\n      jump\t// in\n    tag_253:\n        /* \"inviter_presell/adminable.sol\":691:714  owner() == _msgSender() */\n      0xffffffffffffffffffffffffffffffffffffffff\n      and\n      eq\n        /* \"inviter_presell/adminable.sol\":683:753  require(owner() == _msgSender(), \"Adminable: caller is not the owner\") */\n      tag_254\n      jumpi\n      mload(0x40)\n      0x08c379a000000000000000000000000000000000000000000000000000000000\n      dup2\n      mstore\n      0x04\n      add\n      tag_255\n      swap1\n      tag_180\n      jump\t// in\n    tag_255:\n      mload(0x40)\n      dup1\n      swap2\n      sub\n      swap1\n      revert\n    tag_254:\n        /* \"inviter_presell/adminable.sol\":1188:1218  _transferOwnership(address(0)) */\n      tag_257\n        /* \"inviter_presell/adminable.sol\":1215:1216  0 */\n      0x00\n        /* \"inviter_presell/adminable.sol\":1188:1206  _transferOwnership */\n      tag_258\n        /* \"inviter_presell/adminable.sol\":1188:1218  _transferOwnership(address(0)) */\n      jump\t// in\n    tag_257:\n        /* \"inviter_presell/adminable.sol\":1123:1226  function renounceOwnership() public virtual onlyOwner {... */\n      jump\t// out\n        /* \"inviter_presell/stake.sol\":605:629  uint256 public startTime */\n    tag_96:\n      sload(0x06)\n      dup2\n      jump\t// out\n        /* \"inviter_presell/stake.sol\":730:775  uint256 public rateIntervalDenominator = 1000 */\n    tag_99:\n      sload(0x09)\n      dup2\n      jump\t// out\n        /* \"inviter_presell/stake.sol\":4308:4415  function lastTimeRewardApplicable() public view returns (uint256) {... */\n    tag_102:\n        /* \"inviter_presell/stake.sol\":4365:4372  uint256 */\n      0x00\n        /* \"inviter_presell/stake.sol\":4392:4407  block.timestamp */\n      timestamp\n        /* \"inviter_presell/stake.sol\":4385:4407  return block.timestamp */\n      swap1\n      pop\n        /* \"inviter_presell/stake.sol\":4308:4415  function lastTimeRewardApplicable() public view returns (uint256) {... */\n      swap1\n      jump\t// out\n        /* \"inviter_presell/stake.sol\":926:979  mapping(address => uint256) public userLastUpdateTime */\n    tag_106:\n      mstore(0x20, 0x0d)\n      dup1\n      0x00\n      mstore\n      keccak256(0x00, 0x40)\n      0x00\n      swap2\n      pop\n      swap1\n      pop\n      sload\n      dup2\n      jump\t// out\n        /* \"inviter_presell/stake.sol\":4423:4771  function rewardPerToken(uint256 rewardRate) public view returns (uint256) {... */\n    tag_110:\n        /* \"inviter_presell/stake.sol\":4488:4495  uint256 */\n      0x00\n        /* \"inviter_presell/stake.sol\":4528:4529  0 */\n      dup1\n        /* \"inviter_presell/stake.sol\":4512:4524  _totalPowers */\n      sload(0x0e)\n        /* \"inviter_presell/stake.sol\":4512:4529  _totalPowers == 0 */\n      sub\n        /* \"inviter_presell/stake.sol\":4508:4585  if (_totalPowers == 0) {... */\n      tag_261\n      jumpi\n        /* \"inviter_presell/stake.sol\":4553:4573  rewardPerTokenStored */\n      sload(0x0b)\n        /* \"inviter_presell/stake.sol\":4546:4573  return rewardPerTokenStored */\n      swap1\n      pop\n      jump(tag_260)\n        /* \"inviter_presell/stake.sol\":4508:4585  if (_totalPowers == 0) {... */\n    tag_261:\n        /* \"inviter_presell/stake.sol\":4615:4763  rewardPerTokenStored.add(... */\n      tag_262\n        /* \"inviter_presell/stake.sol\":4658:4748  lastTimeRewardApplicable().sub(lastUpdateTime).mul(rewardRate).mul(1e18).div(_totalPowers) */\n      tag_263\n        /* \"inviter_presell/stake.sol\":4735:4747  _totalPowers */\n      sload(0x0e)\n        /* \"inviter_presell/stake.sol\":4658:4730  lastTimeRewardApplicable().sub(lastUpdateTime).mul(rewardRate).mul(1e18) */\n      tag_264\n        /* \"inviter_presell/stake.sol\":4725:4729  1e18 */\n      0x0de0b6b3a7640000\n        /* \"inviter_presell/stake.sol\":4658:4720  lastTimeRewardApplicable().sub(lastUpdateTime).mul(rewardRate) */\n      tag_265\n        /* \"inviter_presell/stake.sol\":4709:4719  rewardRate */\n      dup8\n        /* \"inviter_presell/stake.sol\":4658:4704  lastTimeRewardApplicable().sub(lastUpdateTime) */\n      tag_266\n        /* \"inviter_presell/stake.sol\":4689:4703  lastUpdateTime */\n      sload(0x0a)\n        /* \"inviter_presell/stake.sol\":4658:4684  lastTimeRewardApplicable() */\n      tag_267\n        /* \"inviter_presell/stake.sol\":4658:4682  lastTimeRewardApplicable */\n      tag_102\n        /* \"inviter_presell/stake.sol\":4658:4684  lastTimeRewardApplicable() */\n      jump\t// in\n    tag_267:\n        /* \"inviter_presell/stake.sol\":4658:4688  lastTimeRewardApplicable().sub */\n      tag_170\n      swap1\n        /* \"inviter_presell/stake.sol\":4658:4704  lastTimeRewardApplicable().sub(lastUpdateTime) */\n      swap2\n      swap1\n      0xffffffff\n      and\n      jump\t// in\n    tag_266:\n        /* \"inviter_presell/stake.sol\":4658:4708  lastTimeRewardApplicable().sub(lastUpdateTime).mul */\n      tag_171\n      swap1\n        /* \"inviter_presell/stake.sol\":4658:4720  lastTimeRewardApplicable().sub(lastUpdateTime).mul(rewardRate) */\n      swap2\n      swap1\n      0xffffffff\n      and\n      jump\t// in\n    tag_265:\n        /* \"inviter_presell/stake.sol\":4658:4724  lastTimeRewardApplicable().sub(lastUpdateTime).mul(rewardRate).mul */\n      tag_171\n      swap1\n        /* \"inviter_presell/stake.sol\":4658:4730  lastTimeRewardApplicable().sub(lastUpdateTime).mul(rewardRate).mul(1e18) */\n      swap2\n      swap1\n      0xffffffff\n      and\n      jump\t// in\n    tag_264:\n        /* \"inviter_presell/stake.sol\":4658:4734  lastTimeRewardApplicable().sub(lastUpdateTime).mul(rewardRate).mul(1e18).div */\n      tag_172\n      swap1\n        /* \"inviter_presell/stake.sol\":4658:4748  lastTimeRewardApplicable().sub(lastUpdateTime).mul(rewardRate).mul(1e18).div(_totalPowers) */\n      swap2\n      swap1\n      0xffffffff\n      and\n      jump\t// in\n    tag_263:\n        /* \"inviter_presell/stake.sol\":4615:4635  rewardPerTokenStored */\n      sload(0x0b)\n        /* \"inviter_presell/stake.sol\":4615:4639  rewardPerTokenStored.add */\n      tag_173\n      swap1\n        /* \"inviter_presell/stake.sol\":4615:4763  rewardPerTokenStored.add(... */\n      swap2\n      swap1\n      0xffffffff\n      and\n      jump\t// in\n    tag_262:\n        /* \"inviter_presell/stake.sol\":4595:4763  return... */\n      swap1\n      pop\n        /* \"inviter_presell/stake.sol\":4423:4771  function rewardPerToken(uint256 rewardRate) public view returns (uint256) {... */\n    tag_260:\n      swap2\n      swap1\n      pop\n      jump\t// out\n        /* \"inviter_presell/stake.sol\":7130:7235  function setRewardToken(address token) external onlyOwner {... */\n    tag_114:\n        /* \"inviter_presell/adminable.sol\":702:714  _msgSender() */\n      tag_269\n        /* \"inviter_presell/adminable.sol\":702:712  _msgSender */\n      tag_176\n        /* \"inviter_presell/adminable.sol\":702:714  _msgSender() */\n      jump\t// in\n    tag_269:\n        /* \"inviter_presell/adminable.sol\":691:714  owner() == _msgSender() */\n      0xffffffffffffffffffffffffffffffffffffffff\n      and\n        /* \"inviter_presell/adminable.sol\":691:698  owner() */\n      tag_270\n        /* \"inviter_presell/adminable.sol\":691:696  owner */\n      tag_120\n        /* \"inviter_presell/adminable.sol\":691:698  owner() */\n      jump\t// in\n    tag_270:\n        /* \"inviter_presell/adminable.sol\":691:714  owner() == _msgSender() */\n      0xffffffffffffffffffffffffffffffffffffffff\n      and\n      eq\n        /* \"inviter_presell/adminable.sol\":683:753  require(owner() == _msgSender(), \"Adminable: caller is not the owner\") */\n      tag_271\n      jumpi\n      mload(0x40)\n      0x08c379a000000000000000000000000000000000000000000000000000000000\n      dup2\n      mstore\n      0x04\n      add\n      tag_272\n      swap1\n      tag_180\n      jump\t// in\n    tag_272:\n      mload(0x40)\n      dup1\n      swap2\n      sub\n      swap1\n      revert\n    tag_271:\n        /* \"inviter_presell/stake.sol\":7221:7226  token */\n      dup1\n        /* \"inviter_presell/stake.sol\":7199:7211  rewardsToken */\n      0x03\n      0x00\n        /* \"inviter_presell/stake.sol\":7199:7227  rewardsToken = IERC20(token) */\n      0x0100\n      exp\n      dup2\n      sload\n      dup2\n      0xffffffffffffffffffffffffffffffffffffffff\n      mul\n      not\n      and\n      swap1\n      dup4\n      0xffffffffffffffffffffffffffffffffffffffff\n      and\n      mul\n      or\n      swap1\n      sstore\n      pop\n        /* \"inviter_presell/stake.sol\":7130:7235  function setRewardToken(address token) external onlyOwner {... */\n      pop\n      jump\t// out\n        /* \"inviter_presell/stake.sol\":862:919  mapping(address => uint256) public userRewardPerTokenPaid */\n    tag_117:\n      mstore(0x20, 0x0c)\n      dup1\n      0x00\n      mstore\n      keccak256(0x00, 0x40)\n      0x00\n      swap2\n      pop\n      swap1\n      pop\n      sload\n      dup2\n      jump\t// out\n        /* \"inviter_presell/adminable.sol\":909:996  function owner() public view virtual returns (address) {... */\n    tag_120:\n        /* \"inviter_presell/adminable.sol\":955:962  address */\n      0x00\n        /* \"inviter_presell/adminable.sol\":982:988  _owner */\n      0x01\n      0x00\n      swap1\n      sload\n      swap1\n      0x0100\n      exp\n      swap1\n      div\n      0xffffffffffffffffffffffffffffffffffffffff\n      and\n        /* \"inviter_presell/adminable.sol\":975:988  return _owner */\n      swap1\n      pop\n        /* \"inviter_presell/adminable.sol\":909:996  function owner() public view virtual returns (address) {... */\n      swap1\n      jump\t// out\n        /* \"inviter_presell/stake.sol\":2402:2516  function getCurRewardPool() public view returns (uint256) {... */\n    tag_124:\n        /* \"inviter_presell/stake.sol\":2451:2458  uint256 */\n      0x00\n        /* \"inviter_presell/stake.sol\":2478:2508  getRewardPool(block.timestamp) */\n      tag_276\n        /* \"inviter_presell/stake.sol\":2492:2507  block.timestamp */\n      timestamp\n        /* \"inviter_presell/stake.sol\":2478:2491  getRewardPool */\n      tag_85\n        /* \"inviter_presell/stake.sol\":2478:2508  getRewardPool(block.timestamp) */\n      jump\t// in\n    tag_276:\n        /* \"inviter_presell/stake.sol\":2471:2508  return getRewardPool(block.timestamp) */\n      swap1\n      pop\n        /* \"inviter_presell/stake.sol\":2402:2516  function getCurRewardPool() public view returns (uint256) {... */\n      swap1\n      jump\t// out\n        /* \"inviter_presell/stake.sol\":2181:2275  function curTime() external  view  returns (uint256) {... */\n    tag_127:\n        /* \"inviter_presell/stake.sol\":2225:2232  uint256 */\n      0x00\n        /* \"inviter_presell/stake.sol\":2252:2267  block.timestamp */\n      timestamp\n        /* \"inviter_presell/stake.sol\":2245:2267  return block.timestamp */\n      swap1\n      pop\n        /* \"inviter_presell/stake.sol\":2181:2275  function curTime() external  view  returns (uint256) {... */\n      swap1\n      jump\t// out\n        /* \"inviter_presell/stake.sol\":7492:7635  function emergencyWithdrawToken(address token, uint256 amount) external onlyOwner {... */\n    tag_132:\n        /* \"inviter_presell/adminable.sol\":702:714  _msgSender() */\n      tag_279\n        /* \"inviter_presell/adminable.sol\":702:712  _msgSender */\n      tag_176\n        /* \"inviter_presell/adminable.sol\":702:714  _msgSender() */\n      jump\t// in\n    tag_279:\n        /* \"inviter_presell/adminable.sol\":691:714  owner() == _msgSender() */\n      0xffffffffffffffffffffffffffffffffffffffff\n      and\n        /* \"inviter_presell/adminable.sol\":691:698  owner() */\n      tag_280\n        /* \"inviter_presell/adminable.sol\":691:696  owner */\n      tag_120\n        /* \"inviter_presell/adminable.sol\":691:698  owner() */\n      jump\t// in\n    tag_280:\n        /* \"inviter_presell/adminable.sol\":691:714  owner() == _msgSender() */\n      0xffffffffffffffffffffffffffffffffffffffff\n      and\n      eq\n        /* \"inviter_presell/adminable.sol\":683:753  require(owner() == _msgSender(), \"Adminable: caller is not the owner\") */\n      tag_281\n      jumpi\n      mload(0x40)\n      0x08c379a000000000000000000000000000000000000000000000000000000000\n      dup2\n      mstore\n      0x04\n      add\n      tag_282\n      swap1\n      tag_180\n      jump\t// in\n    tag_282:\n      mload(0x40)\n      dup1\n      swap2\n      sub\n      swap1\n      revert\n    tag_281:\n        /* \"inviter_presell/stake.sol\":7592:7597  token */\n      dup2\n        /* \"inviter_presell/stake.sol\":7585:7607  IERC20(token).transfer */\n      0xffffffffffffffffffffffffffffffffffffffff\n      and\n      0xa9059cbb\n        /* \"inviter_presell/stake.sol\":7608:7618  msg.sender */\n      caller\n        /* \"inviter_presell/stake.sol\":7620:7626  amount */\n      dup4\n        /* \"inviter_presell/stake.sol\":7585:7627  IERC20(token).transfer(msg.sender, amount) */\n      mload(0x40)\n      dup4\n      0xffffffff\n      and\n      0xe0\n      shl\n      dup2\n      mstore\n      0x04\n      add\n      tag_284\n      swap3\n      swap2\n      swap1\n      tag_205\n      jump\t// in\n    tag_284:\n      0x20\n      mload(0x40)\n      dup1\n      dup4\n      sub\n      dup2\n      0x00\n      dup8\n      gas\n      call\n      iszero\n      dup1\n      iszero\n      tag_286\n      jumpi\n      returndatasize\n      0x00\n      dup1\n      returndatacopy\n      revert(0x00, returndatasize)\n    tag_286:\n      pop\n      pop\n      pop\n      pop\n      mload(0x40)\n      returndatasize\n      not(0x1f)\n      0x1f\n      dup3\n      add\n      and\n      dup3\n      add\n      dup1\n      0x40\n      mstore\n      pop\n      dup2\n      add\n      swap1\n      tag_287\n      swap2\n      swap1\n      tag_209\n      jump\t// in\n    tag_287:\n      pop\n        /* \"inviter_presell/stake.sol\":7492:7635  function emergencyWithdrawToken(address token, uint256 amount) external onlyOwner {... */\n      pop\n      pop\n      jump\t// out\n        /* \"inviter_presell/stake.sol\":6511:6805  function stake(address user, uint256 amount) external nonReentrant onlyAdmin updateReward(user) {... */\n    tag_135:\n        /* \"node_modules/@openzeppelin/contracts/security/ReentrancyGuard.sol\":1744:1745  2 */\n      0x02\n        /* \"node_modules/@openzeppelin/contracts/security/ReentrancyGuard.sol\":2325:2332  _status */\n      dup1\n      sload\n        /* \"node_modules/@openzeppelin/contracts/security/ReentrancyGuard.sol\":2325:2344  _status != _ENTERED */\n      sub\n        /* \"node_modules/@openzeppelin/contracts/security/ReentrancyGuard.sol\":2317:2380  require(_status != _ENTERED, \"ReentrancyGuard: reentrant call\") */\n      tag_289\n      jumpi\n      mload(0x40)\n      0x08c379a000000000000000000000000000000000000000000000000000000000\n      dup2\n      mstore\n      0x04\n      add\n      tag_290\n      swap1\n      tag_194\n      jump\t// in\n    tag_290:\n      mload(0x40)\n      dup1\n      swap2\n      sub\n      swap1\n      revert\n    tag_289:\n        /* \"node_modules/@openzeppelin/contracts/security/ReentrancyGuard.sol\":1744:1745  2 */\n      0x02\n        /* \"node_modules/@openzeppelin/contracts/security/ReentrancyGuard.sol\":2455:2462  _status */\n      dup1\n        /* \"node_modules/@openzeppelin/contracts/security/ReentrancyGuard.sol\":2455:2473  _status = _ENTERED */\n      dup2\n      swap1\n      sstore\n      pop\n        /* \"inviter_presell/adminable.sol\":821:842  isAdmin(_msgSender()) */\n      tag_292\n        /* \"inviter_presell/adminable.sol\":829:841  _msgSender() */\n      tag_293\n        /* \"inviter_presell/adminable.sol\":829:839  _msgSender */\n      tag_176\n        /* \"inviter_presell/adminable.sol\":829:841  _msgSender() */\n      jump\t// in\n    tag_293:\n        /* \"inviter_presell/adminable.sol\":821:828  isAdmin */\n      tag_67\n        /* \"inviter_presell/adminable.sol\":821:842  isAdmin(_msgSender()) */\n      jump\t// in\n    tag_292:\n        /* \"inviter_presell/adminable.sol\":813:881  require(isAdmin(_msgSender()), \"Adminable: caller is not the admin\") */\n      tag_294\n      jumpi\n      mload(0x40)\n      0x08c379a000000000000000000000000000000000000000000000000000000000\n      dup2\n      mstore\n      0x04\n      add\n      tag_295\n      swap1\n      tag_216\n      jump\t// in\n    tag_295:\n      mload(0x40)\n      dup1\n      swap2\n      sub\n      swap1\n      revert\n    tag_294:\n        /* \"inviter_presell/stake.sol\":6601:6605  user */\n      dup2\n        /* \"inviter_presell/stake.sol\":1131:1143  uint256 time */\n      0x00\n        /* \"inviter_presell/stake.sol\":1146:1164  userLastUpdateTime */\n      0x0d\n        /* \"inviter_presell/stake.sol\":1146:1173  userLastUpdateTime[account] */\n      0x00\n        /* \"inviter_presell/stake.sol\":1165:1172  account */\n      dup4\n        /* \"inviter_presell/stake.sol\":1146:1173  userLastUpdateTime[account] */\n      0xffffffffffffffffffffffffffffffffffffffff\n      and\n      0xffffffffffffffffffffffffffffffffffffffff\n      and\n      dup2\n      mstore\n      0x20\n      add\n      swap1\n      dup2\n      mstore\n      0x20\n      add\n      0x00\n      keccak256\n      sload\n        /* \"inviter_presell/stake.sol\":1131:1173  uint256 time = userLastUpdateTime[account] */\n      swap1\n      pop\n        /* \"inviter_presell/stake.sol\":1195:1204  startTime */\n      sload(0x06)\n        /* \"inviter_presell/stake.sol\":1187:1191  time */\n      dup2\n        /* \"inviter_presell/stake.sol\":1187:1204  time <= startTime */\n      gt\n        /* \"inviter_presell/stake.sol\":1184:1249  if(time <= startTime) {... */\n      tag_297\n      jumpi\n        /* \"inviter_presell/stake.sol\":1228:1237  startTime */\n      sload(0x06)\n        /* \"inviter_presell/stake.sol\":1221:1237  time = startTime */\n      swap1\n      pop\n        /* \"inviter_presell/stake.sol\":1184:1249  if(time <= startTime) {... */\n    tag_297:\n        /* \"inviter_presell/stake.sol\":1259:1271  uint256 rate */\n      0x00\n        /* \"inviter_presell/stake.sol\":1274:1319  getTimeWeightedAveRate(time, block.timestamp) */\n      tag_298\n        /* \"inviter_presell/stake.sol\":1297:1301  time */\n      dup3\n        /* \"inviter_presell/stake.sol\":1303:1318  block.timestamp */\n      timestamp\n        /* \"inviter_presell/stake.sol\":1274:1296  getTimeWeightedAveRate */\n      tag_153\n        /* \"inviter_presell/stake.sol\":1274:1319  getTimeWeightedAveRate(time, block.timestamp) */\n      jump\t// in\n    tag_298:\n        /* \"inviter_presell/stake.sol\":1259:1319  uint256 rate = getTimeWeightedAveRate(time, block.timestamp) */\n      swap1\n      pop\n        /* \"inviter_presell/stake.sol\":1353:1373  rewardPerToken(rate) */\n      tag_299\n        /* \"inviter_presell/stake.sol\":1368:1372  rate */\n      dup2\n        /* \"inviter_presell/stake.sol\":1353:1367  rewardPerToken */\n      tag_110\n        /* \"inviter_presell/stake.sol\":1353:1373  rewardPerToken(rate) */\n      jump\t// in\n    tag_299:\n        /* \"inviter_presell/stake.sol\":1330:1350  rewardPerTokenStored */\n      0x0b\n        /* \"inviter_presell/stake.sol\":1330:1373  rewardPerTokenStored = rewardPerToken(rate) */\n      dup2\n      swap1\n      sstore\n      pop\n        /* \"inviter_presell/stake.sol\":1401:1427  lastTimeRewardApplicable() */\n      tag_300\n        /* \"inviter_presell/stake.sol\":1401:1425  lastTimeRewardApplicable */\n      tag_102\n        /* \"inviter_presell/stake.sol\":1401:1427  lastTimeRewardApplicable() */\n      jump\t// in\n    tag_300:\n        /* \"inviter_presell/stake.sol\":1384:1398  lastUpdateTime */\n      0x0a\n        /* \"inviter_presell/stake.sol\":1384:1427  lastUpdateTime = lastTimeRewardApplicable() */\n      dup2\n      swap1\n      sstore\n      pop\n        /* \"inviter_presell/stake.sol\":1461:1462  0 */\n      0x00\n        /* \"inviter_presell/stake.sol\":1442:1463  account != address(0) */\n      0xffffffffffffffffffffffffffffffffffffffff\n      and\n        /* \"inviter_presell/stake.sol\":1442:1449  account */\n      dup4\n        /* \"inviter_presell/stake.sol\":1442:1463  account != address(0) */\n      0xffffffffffffffffffffffffffffffffffffffff\n      and\n      eq\n        /* \"inviter_presell/stake.sol\":1438:1655  if (account != address(0)) {... */\n      tag_301\n      jumpi\n        /* \"inviter_presell/stake.sol\":1499:1514  earned(account) */\n      tag_302\n        /* \"inviter_presell/stake.sol\":1506:1513  account */\n      dup4\n        /* \"inviter_presell/stake.sol\":1499:1505  earned */\n      tag_47\n        /* \"inviter_presell/stake.sol\":1499:1514  earned(account) */\n      jump\t// in\n    tag_302:\n        /* \"inviter_presell/stake.sol\":1480:1487  rewards */\n      0x04\n        /* \"inviter_presell/stake.sol\":1480:1496  rewards[account] */\n      0x00\n        /* \"inviter_presell/stake.sol\":1488:1495  account */\n      dup6\n        /* \"inviter_presell/stake.sol\":1480:1496  rewards[account] */\n      0xffffffffffffffffffffffffffffffffffffffff\n      and\n      0xffffffffffffffffffffffffffffffffffffffff\n      and\n      dup2\n      mstore\n      0x20\n      add\n      swap1\n      dup2\n      mstore\n      0x20\n      add\n      0x00\n      keccak256\n        /* \"inviter_presell/stake.sol\":1480:1514  rewards[account] = earned(account) */\n      dup2\n      swap1\n      sstore\n      pop\n        /* \"inviter_presell/stake.sol\":1563:1583  rewardPerTokenStored */\n      sload(0x0b)\n        /* \"inviter_presell/stake.sol\":1529:1551  userRewardPerTokenPaid */\n      0x0c\n        /* \"inviter_presell/stake.sol\":1529:1560  userRewardPerTokenPaid[account] */\n      0x00\n        /* \"inviter_presell/stake.sol\":1552:1559  account */\n      dup6\n        /* \"inviter_presell/stake.sol\":1529:1560  userRewardPerTokenPaid[account] */\n      0xffffffffffffffffffffffffffffffffffffffff\n      and\n      0xffffffffffffffffffffffffffffffffffffffff\n      and\n      dup2\n      mstore\n      0x20\n      add\n      swap1\n      dup2\n      mstore\n      0x20\n      add\n      0x00\n      keccak256\n        /* \"inviter_presell/stake.sol\":1529:1583  userRewardPerTokenPaid[account] = rewardPerTokenStored */\n      dup2\n      swap1\n      sstore\n      pop\n        /* \"inviter_presell/stake.sol\":1628:1643  block.timestamp */\n      timestamp\n        /* \"inviter_presell/stake.sol\":1598:1616  userLastUpdateTime */\n      0x0d\n        /* \"inviter_presell/stake.sol\":1598:1625  userLastUpdateTime[account] */\n      0x00\n        /* \"inviter_presell/stake.sol\":1617:1624  account */\n      dup6\n        /* \"inviter_presell/stake.sol\":1598:1625  userLastUpdateTime[account] */\n      0xffffffffffffffffffffffffffffffffffffffff\n      and\n      0xffffffffffffffffffffffffffffffffffffffff\n      and\n      dup2\n      mstore\n      0x20\n      add\n      swap1\n      dup2\n      mstore\n      0x20\n      add\n      0x00\n      keccak256\n        /* \"inviter_presell/stake.sol\":1598:1643  userLastUpdateTime[account] = block.timestamp */\n      dup2\n      swap1\n      sstore\n      pop\n        /* \"inviter_presell/stake.sol\":1438:1655  if (account != address(0)) {... */\n    tag_301:\n        /* \"inviter_presell/stake.sol\":6635:6636  0 */\n      0x00\n        /* \"inviter_presell/stake.sol\":6626:6632  amount */\n      dup5\n        /* \"inviter_presell/stake.sol\":6626:6636  amount > 0 */\n      gt\n        /* \"inviter_presell/stake.sol\":6618:6655  require(amount > 0, \"Cannot stake 0\") */\n      tag_304\n      jumpi\n      mload(0x40)\n      0x08c379a000000000000000000000000000000000000000000000000000000000\n      dup2\n      mstore\n      0x04\n      add\n      tag_305\n      swap1\n      tag_306\n      jump\t// in\n    tag_305:\n      mload(0x40)\n      dup1\n      swap2\n      sub\n      swap1\n      revert\n    tag_304:\n        /* \"inviter_presell/stake.sol\":6681:6705  _totalPowers.add(amount) */\n      tag_307\n        /* \"inviter_presell/stake.sol\":6698:6704  amount */\n      dup5\n        /* \"inviter_presell/stake.sol\":6681:6693  _totalPowers */\n      sload(0x0e)\n        /* \"inviter_presell/stake.sol\":6681:6697  _totalPowers.add */\n      tag_173\n      swap1\n        /* \"inviter_presell/stake.sol\":6681:6705  _totalPowers.add(amount) */\n      swap2\n      swap1\n      0xffffffff\n      and\n      jump\t// in\n    tag_307:\n        /* \"inviter_presell/stake.sol\":6666:6678  _totalPowers */\n      0x0e\n        /* \"inviter_presell/stake.sol\":6666:6705  _totalPowers = _totalPowers.add(amount) */\n      dup2\n      swap1\n      sstore\n      pop\n        /* \"inviter_presell/stake.sol\":6734:6761  _balances[user].add(amount) */\n      tag_308\n        /* \"inviter_presell/stake.sol\":6754:6760  amount */\n      dup5\n        /* \"inviter_presell/stake.sol\":6734:6743  _balances */\n      0x0f\n        /* \"inviter_presell/stake.sol\":6734:6749  _balances[user] */\n      0x00\n        /* \"inviter_presell/stake.sol\":6744:6748  user */\n      dup9\n        /* \"inviter_presell/stake.sol\":6734:6749  _balances[user] */\n      0xffffffffffffffffffffffffffffffffffffffff\n      and\n      0xffffffffffffffffffffffffffffffffffffffff\n      and\n      dup2\n      mstore\n      0x20\n      add\n      swap1\n      dup2\n      mstore\n      0x20\n      add\n      0x00\n      keccak256\n      sload\n        /* \"inviter_presell/stake.sol\":6734:6753  _balances[user].add */\n      tag_173\n      swap1\n        /* \"inviter_presell/stake.sol\":6734:6761  _balances[user].add(amount) */\n      swap2\n      swap1\n      0xffffffff\n      and\n      jump\t// in\n    tag_308:\n        /* \"inviter_presell/stake.sol\":6716:6725  _balances */\n      0x0f\n        /* \"inviter_presell/stake.sol\":6716:6731  _balances[user] */\n      0x00\n        /* \"inviter_presell/stake.sol\":6726:6730  user */\n      dup8\n        /* \"inviter_presell/stake.sol\":6716:6731  _balances[user] */\n      0xffffffffffffffffffffffffffffffffffffffff\n      and\n      0xffffffffffffffffffffffffffffffffffffffff\n      and\n      dup2\n      mstore\n      0x20\n      add\n      swap1\n      dup2\n      mstore\n      0x20\n      add\n      0x00\n      keccak256\n        /* \"inviter_presell/stake.sol\":6716:6761  _balances[user] = _balances[user].add(amount) */\n      dup2\n      swap1\n      sstore\n      pop\n        /* \"inviter_presell/stake.sol\":6784:6788  user */\n      dup5\n        /* \"inviter_presell/stake.sol\":6777:6797  Staked(user, amount) */\n      0xffffffffffffffffffffffffffffffffffffffff\n      and\n      0x9e71bc8eea02a63969f509818f2dafb9254532904319f9dbda79b67bd34a5f3d\n        /* \"inviter_presell/stake.sol\":6790:6796  amount */\n      dup6\n        /* \"inviter_presell/stake.sol\":6777:6797  Staked(user, amount) */\n      mload(0x40)\n      tag_309\n      swap2\n      swap1\n      tag_49\n      jump\t// in\n    tag_309:\n      mload(0x40)\n      dup1\n      swap2\n      sub\n      swap1\n      log2\n        /* \"inviter_presell/stake.sol\":1120:1674  {... */\n      pop\n      pop\n        /* \"inviter_presell/adminable.sol\":892:893  _ */\n      pop\n        /* \"node_modules/@openzeppelin/contracts/security/ReentrancyGuard.sol\":1701:1702  1 */\n      0x01\n        /* \"node_modules/@openzeppelin/contracts/security/ReentrancyGuard.sol\":2628:2635  _status */\n      0x02\n        /* \"node_modules/@openzeppelin/contracts/security/ReentrancyGuard.sol\":2628:2650  _status = _NOT_ENTERED */\n      dup2\n      swap1\n      sstore\n      pop\n        /* \"inviter_presell/stake.sol\":6511:6805  function stake(address user, uint256 amount) external nonReentrant onlyAdmin updateReward(user) {... */\n      pop\n      pop\n      jump\t// out\n        /* \"inviter_presell/stake.sol\":2283:2394  function powersOf(address account) external view returns (uint256) {... */\n    tag_138:\n        /* \"inviter_presell/stake.sol\":2341:2348  uint256 */\n      0x00\n        /* \"inviter_presell/stake.sol\":2368:2377  _balances */\n      0x0f\n        /* \"inviter_presell/stake.sol\":2368:2386  _balances[account] */\n      0x00\n        /* \"inviter_presell/stake.sol\":2378:2385  account */\n      dup4\n        /* \"inviter_presell/stake.sol\":2368:2386  _balances[account] */\n      0xffffffffffffffffffffffffffffffffffffffff\n      and\n      0xffffffffffffffffffffffffffffffffffffffff\n      and\n      dup2\n      mstore\n      0x20\n      add\n      swap1\n      dup2\n      mstore\n      0x20\n      add\n      0x00\n      keccak256\n      sload\n        /* \"inviter_presell/stake.sol\":2361:2386  return _balances[account] */\n      swap1\n      pop\n        /* \"inviter_presell/stake.sol\":2283:2394  function powersOf(address account) external view returns (uint256) {... */\n      swap2\n      swap1\n      pop\n      jump\t// out\n        /* \"inviter_presell/stake.sol\":782:811  uint256 public lastUpdateTime */\n    tag_141:\n      sload(0x0a)\n      dup2\n      jump\t// out\n        /* \"inviter_presell/stake.sol\":3953:4068  function getCurRewardRate() public view returns (uint256) {... */\n    tag_144:\n        /* \"inviter_presell/stake.sol\":4002:4009  uint256 */\n      0x00\n        /* \"inviter_presell/stake.sol\":4029:4060  _getRewardRate(block.timestamp) */\n      tag_312\n        /* \"inviter_presell/stake.sol\":4044:4059  block.timestamp */\n      timestamp\n        /* \"inviter_presell/stake.sol\":4029:4043  _getRewardRate */\n      tag_313\n        /* \"inviter_presell/stake.sol\":4029:4060  _getRewardRate(block.timestamp) */\n      jump\t// in\n    tag_312:\n        /* \"inviter_presell/stake.sol\":4022:4060  return _getRewardRate(block.timestamp) */\n      swap1\n      pop\n        /* \"inviter_presell/stake.sol\":3953:4068  function getCurRewardRate() public view returns (uint256) {... */\n      swap1\n      jump\t// out\n        /* \"inviter_presell/stake.sol\":467:493  IERC20 public rewardsToken */\n    tag_147:\n      0x03\n      0x00\n      swap1\n      sload\n      swap1\n      0x0100\n      exp\n      swap1\n      div\n      0xffffffffffffffffffffffffffffffffffffffff\n      and\n      dup2\n      jump\t// out\n        /* \"inviter_presell/stake.sol\":5118:6501  function getTimeWeightedAveRate(uint256 leftTime, uint256 rightTime) public view returns (uint256){... */\n    tag_153:\n        /* \"inviter_presell/stake.sol\":5208:5215  uint256 */\n      0x00\n        /* \"inviter_presell/stake.sol\":5253:5254  0 */\n      dup1\n        /* \"inviter_presell/stake.sol\":5240:5249  startTime */\n      sload(0x06)\n        /* \"inviter_presell/stake.sol\":5240:5254  startTime == 0 */\n      eq\n        /* \"inviter_presell/stake.sol\":5240:5279  startTime == 0 || leftTime >= rightTime */\n      dup1\n      tag_315\n      jumpi\n      pop\n        /* \"inviter_presell/stake.sol\":5270:5279  rightTime */\n      dup2\n        /* \"inviter_presell/stake.sol\":5258:5266  leftTime */\n      dup4\n        /* \"inviter_presell/stake.sol\":5258:5279  leftTime >= rightTime */\n      lt\n      iszero\n        /* \"inviter_presell/stake.sol\":5240:5279  startTime == 0 || leftTime >= rightTime */\n    tag_315:\n        /* \"inviter_presell/stake.sol\":5240:5296  startTime == 0 || leftTime >= rightTime || leftTime == 0 */\n      dup1\n      tag_316\n      jumpi\n      pop\n        /* \"inviter_presell/stake.sol\":5295:5296  0 */\n      0x00\n        /* \"inviter_presell/stake.sol\":5283:5291  leftTime */\n      dup4\n        /* \"inviter_presell/stake.sol\":5283:5296  leftTime == 0 */\n      eq\n        /* \"inviter_presell/stake.sol\":5240:5296  startTime == 0 || leftTime >= rightTime || leftTime == 0 */\n    tag_316:\n        /* \"inviter_presell/stake.sol\":5237:5333  if(startTime == 0 || leftTime >= rightTime || leftTime == 0) {... */\n      iszero\n      tag_317\n      jumpi\n        /* \"inviter_presell/stake.sol\":5320:5321  0 */\n      0x00\n        /* \"inviter_presell/stake.sol\":5313:5321  return 0 */\n      swap1\n      pop\n      jump(tag_314)\n        /* \"inviter_presell/stake.sol\":5237:5333  if(startTime == 0 || leftTime >= rightTime || leftTime == 0) {... */\n    tag_317:\n        /* \"inviter_presell/stake.sol\":5359:5368  startTime */\n      sload(0x06)\n        /* \"inviter_presell/stake.sol\":5348:5356  leftTime */\n      dup4\n        /* \"inviter_presell/stake.sol\":5348:5368  leftTime < startTime */\n      lt\n        /* \"inviter_presell/stake.sol\":5345:5417  if(leftTime < startTime) {... */\n      iszero\n      tag_318\n      jumpi\n        /* \"inviter_presell/stake.sol\":5396:5405  startTime */\n      sload(0x06)\n        /* \"inviter_presell/stake.sol\":5385:5405  leftTime = startTime */\n      swap3\n      pop\n        /* \"inviter_presell/stake.sol\":5345:5417  if(leftTime < startTime) {... */\n    tag_318:\n        /* \"inviter_presell/stake.sol\":5429:5449  uint256 leftInterval */\n      0x00\n        /* \"inviter_presell/stake.sol\":5509:5521  rateInterval */\n      sload(0x07)\n        /* \"inviter_presell/stake.sol\":5493:5505  rateInterval */\n      sload(0x07)\n        /* \"inviter_presell/stake.sol\":5480:5489  startTime */\n      sload(0x06)\n        /* \"inviter_presell/stake.sol\":5469:5477  leftTime */\n      dup7\n        /* \"inviter_presell/stake.sol\":5469:5489  leftTime - startTime */\n      tag_319\n      swap2\n      swap1\n      tag_221\n      jump\t// in\n    tag_319:\n        /* \"inviter_presell/stake.sol\":5468:5505  (leftTime - startTime) % rateInterval */\n      tag_320\n      swap2\n      swap1\n      tag_321\n      jump\t// in\n    tag_320:\n        /* \"inviter_presell/stake.sol\":5453:5465  rateInterval */\n      sload(0x07)\n        /* \"inviter_presell/stake.sol\":5453:5505  rateInterval - (leftTime - startTime) % rateInterval */\n      tag_322\n      swap2\n      swap1\n      tag_221\n      jump\t// in\n    tag_322:\n        /* \"inviter_presell/stake.sol\":5452:5521  (rateInterval - (leftTime - startTime) % rateInterval) % rateInterval */\n      tag_323\n      swap2\n      swap1\n      tag_321\n      jump\t// in\n    tag_323:\n        /* \"inviter_presell/stake.sol\":5429:5521  uint256 leftInterval = (rateInterval - (leftTime - startTime) % rateInterval) % rateInterval */\n      swap1\n      pop\n        /* \"inviter_presell/stake.sol\":5532:5550  uint256 leftReward */\n      0x00\n        /* \"inviter_presell/stake.sol\":5594:5606  rateInterval */\n      sload(0x07)\n        /* \"inviter_presell/stake.sol\":5579:5591  leftInterval */\n      dup3\n        /* \"inviter_presell/stake.sol\":5553:5576  getRewardPool(leftTime) */\n      tag_324\n        /* \"inviter_presell/stake.sol\":5567:5575  leftTime */\n      dup8\n        /* \"inviter_presell/stake.sol\":5553:5566  getRewardPool */\n      tag_85\n        /* \"inviter_presell/stake.sol\":5553:5576  getRewardPool(leftTime) */\n      jump\t// in\n    tag_324:\n        /* \"inviter_presell/stake.sol\":5553:5591  getRewardPool(leftTime) * leftInterval */\n      tag_325\n      swap2\n      swap1\n      tag_230\n      jump\t// in\n    tag_325:\n        /* \"inviter_presell/stake.sol\":5553:5606  getRewardPool(leftTime) * leftInterval / rateInterval */\n      tag_326\n      swap2\n      swap1\n      tag_223\n      jump\t// in\n    tag_326:\n        /* \"inviter_presell/stake.sol\":5532:5606  uint256 leftReward = getRewardPool(leftTime) * leftInterval / rateInterval */\n      swap1\n      pop\n        /* \"inviter_presell/stake.sol\":5619:5640  uint256 rightInterval */\n      0x00\n        /* \"inviter_presell/stake.sol\":5669:5681  rateInterval */\n      sload(0x07)\n        /* \"inviter_presell/stake.sol\":5656:5665  startTime */\n      sload(0x06)\n        /* \"inviter_presell/stake.sol\":5644:5653  rightTime */\n      dup7\n        /* \"inviter_presell/stake.sol\":5644:5665  rightTime - startTime */\n      tag_327\n      swap2\n      swap1\n      tag_221\n      jump\t// in\n    tag_327:\n        /* \"inviter_presell/stake.sol\":5643:5681  (rightTime - startTime) % rateInterval */\n      tag_328\n      swap2\n      swap1\n      tag_321\n      jump\t// in\n    tag_328:\n        /* \"inviter_presell/stake.sol\":5619:5681  uint256 rightInterval = (rightTime - startTime) % rateInterval */\n      swap1\n      pop\n        /* \"inviter_presell/stake.sol\":5692:5711  uint256 rightReward */\n      0x00\n        /* \"inviter_presell/stake.sol\":5757:5769  rateInterval */\n      sload(0x07)\n        /* \"inviter_presell/stake.sol\":5741:5754  rightInterval */\n      dup3\n        /* \"inviter_presell/stake.sol\":5714:5738  getRewardPool(rightTime) */\n      tag_329\n        /* \"inviter_presell/stake.sol\":5728:5737  rightTime */\n      dup9\n        /* \"inviter_presell/stake.sol\":5714:5727  getRewardPool */\n      tag_85\n        /* \"inviter_presell/stake.sol\":5714:5738  getRewardPool(rightTime) */\n      jump\t// in\n    tag_329:\n        /* \"inviter_presell/stake.sol\":5714:5754  getRewardPool(rightTime) * rightInterval */\n      tag_330\n      swap2\n      swap1\n      tag_230\n      jump\t// in\n    tag_330:\n        /* \"inviter_presell/stake.sol\":5714:5769  getRewardPool(rightTime) * rightInterval / rateInterval */\n      tag_331\n      swap2\n      swap1\n      tag_223\n      jump\t// in\n    tag_331:\n        /* \"inviter_presell/stake.sol\":5692:5769  uint256 rightReward = getRewardPool(rightTime) * rightInterval / rateInterval */\n      swap1\n      pop\n        /* \"inviter_presell/stake.sol\":5811:5820  rightTime */\n      dup6\n        /* \"inviter_presell/stake.sol\":5796:5808  leftInterval */\n      dup5\n        /* \"inviter_presell/stake.sol\":5785:5793  leftTime */\n      dup9\n        /* \"inviter_presell/stake.sol\":5785:5808  leftTime + leftInterval */\n      tag_332\n      swap2\n      swap1\n      tag_225\n      jump\t// in\n    tag_332:\n        /* \"inviter_presell/stake.sol\":5785:5820  leftTime + leftInterval > rightTime */\n      gt\n        /* \"inviter_presell/stake.sol\":5782:5880  if(leftTime + leftInterval > rightTime) {... */\n      iszero\n      tag_333\n      jumpi\n        /* \"inviter_presell/stake.sol\":5844:5868  _getRewardRate(leftTime) */\n      tag_334\n        /* \"inviter_presell/stake.sol\":5859:5867  leftTime */\n      dup8\n        /* \"inviter_presell/stake.sol\":5844:5858  _getRewardRate */\n      tag_313\n        /* \"inviter_presell/stake.sol\":5844:5868  _getRewardRate(leftTime) */\n      jump\t// in\n    tag_334:\n        /* \"inviter_presell/stake.sol\":5837:5868  return _getRewardRate(leftTime) */\n      swap5\n      pop\n      pop\n      pop\n      pop\n      pop\n      jump(tag_314)\n        /* \"inviter_presell/stake.sol\":5782:5880  if(leftTime + leftInterval > rightTime) {... */\n    tag_333:\n        /* \"inviter_presell/stake.sol\":5892:5911  uint256 midInterval */\n      0x00\n        /* \"inviter_presell/stake.sol\":5953:5965  leftInterval */\n      dup5\n        /* \"inviter_presell/stake.sol\":5942:5950  leftTime */\n      dup9\n        /* \"inviter_presell/stake.sol\":5926:5939  rightInterval */\n      dup5\n        /* \"inviter_presell/stake.sol\":5914:5923  rightTime */\n      dup10\n        /* \"inviter_presell/stake.sol\":5914:5939  rightTime - rightInterval */\n      tag_335\n      swap2\n      swap1\n      tag_221\n      jump\t// in\n    tag_335:\n        /* \"inviter_presell/stake.sol\":5914:5950  rightTime - rightInterval - leftTime */\n      tag_336\n      swap2\n      swap1\n      tag_221\n      jump\t// in\n    tag_336:\n        /* \"inviter_presell/stake.sol\":5914:5965  rightTime - rightInterval - leftTime - leftInterval */\n      tag_337\n      swap2\n      swap1\n      tag_221\n      jump\t// in\n    tag_337:\n        /* \"inviter_presell/stake.sol\":5892:5965  uint256 midInterval = rightTime - rightInterval - leftTime - leftInterval */\n      swap1\n      pop\n        /* \"inviter_presell/stake.sol\":5976:5995  uint256 startReward */\n      0x00\n        /* \"inviter_presell/stake.sol\":5998:6021  getRemainPool(leftTime) */\n      tag_338\n        /* \"inviter_presell/stake.sol\":6012:6020  leftTime */\n      dup10\n        /* \"inviter_presell/stake.sol\":5998:6011  getRemainPool */\n      tag_81\n        /* \"inviter_presell/stake.sol\":5998:6021  getRemainPool(leftTime) */\n      jump\t// in\n    tag_338:\n        /* \"inviter_presell/stake.sol\":5976:6021  uint256 startReward = getRemainPool(leftTime) */\n      swap1\n      pop\n        /* \"inviter_presell/stake.sol\":6033:6055  uint256 midTotalReward */\n      0x00\n        /* \"inviter_presell/stake.sol\":6070:6088  uint256 nextReward */\n      dup1\n        /* \"inviter_presell/stake.sol\":6103:6116  uint256 value */\n      0x00\n        /* \"inviter_presell/stake.sol\":6119:6130  startReward */\n      dup4\n        /* \"inviter_presell/stake.sol\":6103:6130  uint256 value = startReward */\n      swap1\n      pop\n        /* \"inviter_presell/stake.sol\":6141:6154  uint256 times */\n      0x00\n        /* \"inviter_presell/stake.sol\":6171:6183  rateInterval */\n      sload(0x07)\n        /* \"inviter_presell/stake.sol\":6157:6168  midInterval */\n      dup7\n        /* \"inviter_presell/stake.sol\":6157:6183  midInterval / rateInterval */\n      tag_339\n      swap2\n      swap1\n      tag_223\n      jump\t// in\n    tag_339:\n        /* \"inviter_presell/stake.sol\":6141:6183  uint256 times = midInterval / rateInterval */\n      swap1\n      pop\n        /* \"inviter_presell/stake.sol\":6198:6207  uint256 i */\n      0x00\n        /* \"inviter_presell/stake.sol\":6194:6408  for(uint256 i = 0; i < times; ++i) {... */\n    tag_340:\n        /* \"inviter_presell/stake.sol\":6217:6222  times */\n      dup2\n        /* \"inviter_presell/stake.sol\":6213:6214  i */\n      dup2\n        /* \"inviter_presell/stake.sol\":6213:6222  i < times */\n      lt\n        /* \"inviter_presell/stake.sol\":6194:6408  for(uint256 i = 0; i < times; ++i) {... */\n      iszero\n      tag_341\n      jumpi\n        /* \"inviter_presell/stake.sol\":6289:6312  rateIntervalDenominator */\n      sload(0x09)\n        /* \"inviter_presell/stake.sol\":6265:6286  rateIntervalNumerator */\n      sload(0x08)\n        /* \"inviter_presell/stake.sol\":6257:6262  value */\n      dup5\n        /* \"inviter_presell/stake.sol\":6257:6286  value * rateIntervalNumerator */\n      tag_343\n      swap2\n      swap1\n      tag_230\n      jump\t// in\n    tag_343:\n        /* \"inviter_presell/stake.sol\":6257:6312  value * rateIntervalNumerator / rateIntervalDenominator */\n      tag_344\n      swap2\n      swap1\n      tag_223\n      jump\t// in\n    tag_344:\n        /* \"inviter_presell/stake.sol\":6244:6312  nextReward = value * rateIntervalNumerator / rateIntervalDenominator */\n      swap4\n      pop\n        /* \"inviter_presell/stake.sol\":6343:6353  nextReward */\n      dup4\n        /* \"inviter_presell/stake.sol\":6335:6340  value */\n      dup4\n        /* \"inviter_presell/stake.sol\":6335:6353  value - nextReward */\n      tag_345\n      swap2\n      swap1\n      tag_221\n      jump\t// in\n    tag_345:\n        /* \"inviter_presell/stake.sol\":6327:6353  value = value - nextReward */\n      swap3\n      pop\n        /* \"inviter_presell/stake.sol\":6386:6396  nextReward */\n      dup4\n        /* \"inviter_presell/stake.sol\":6368:6396  midTotalReward += nextReward */\n      dup6\n      tag_346\n      swap2\n      swap1\n      tag_225\n      jump\t// in\n    tag_346:\n      swap5\n      pop\n        /* \"inviter_presell/stake.sol\":6224:6227  ++i */\n      dup1\n      tag_347\n      swap1\n      tag_234\n      jump\t// in\n    tag_347:\n      swap1\n      pop\n        /* \"inviter_presell/stake.sol\":6194:6408  for(uint256 i = 0; i < times; ++i) {... */\n      jump(tag_340)\n    tag_341:\n      pop\n        /* \"inviter_presell/stake.sol\":6484:6492  leftTime */\n      dup13\n        /* \"inviter_presell/stake.sol\":6472:6481  rightTime */\n      dup13\n        /* \"inviter_presell/stake.sol\":6472:6492  rightTime - leftTime */\n      tag_348\n      swap2\n      swap1\n      tag_221\n      jump\t// in\n    tag_348:\n        /* \"inviter_presell/stake.sol\":6456:6467  rightReward */\n      dup8\n        /* \"inviter_presell/stake.sol\":6443:6453  leftReward */\n      dup11\n        /* \"inviter_presell/stake.sol\":6426:6440  midTotalReward */\n      dup7\n        /* \"inviter_presell/stake.sol\":6426:6453  midTotalReward + leftReward */\n      tag_349\n      swap2\n      swap1\n      tag_225\n      jump\t// in\n    tag_349:\n        /* \"inviter_presell/stake.sol\":6426:6467  midTotalReward + leftReward + rightReward */\n      tag_350\n      swap2\n      swap1\n      tag_225\n      jump\t// in\n    tag_350:\n        /* \"inviter_presell/stake.sol\":6425:6493  (midTotalReward + leftReward + rightReward) / (rightTime - leftTime) */\n      tag_351\n      swap2\n      swap1\n      tag_223\n      jump\t// in\n    tag_351:\n        /* \"inviter_presell/stake.sol\":6418:6493  return (midTotalReward + leftReward + rightReward) / (rightTime - leftTime) */\n      swap11\n      pop\n      pop\n      pop\n      pop\n      pop\n      pop\n      pop\n      pop\n      pop\n      pop\n      pop\n        /* \"inviter_presell/stake.sol\":5118:6501  function getTimeWeightedAveRate(uint256 leftTime, uint256 rightTime) public view returns (uint256){... */\n    tag_314:\n      swap3\n      swap2\n      pop\n      pop\n      jump\t// out\n        /* \"inviter_presell/stake.sol\":7369:7484  function emergencyWithdraw() external onlyOwner {... */\n    tag_156:\n        /* \"inviter_presell/adminable.sol\":702:714  _msgSender() */\n      tag_353\n        /* \"inviter_presell/adminable.sol\":702:712  _msgSender */\n      tag_176\n        /* \"inviter_presell/adminable.sol\":702:714  _msgSender() */\n      jump\t// in\n    tag_353:\n        /* \"inviter_presell/adminable.sol\":691:714  owner() == _msgSender() */\n      0xffffffffffffffffffffffffffffffffffffffff\n      and\n        /* \"inviter_presell/adminable.sol\":691:698  owner() */\n      tag_354\n        /* \"inviter_presell/adminable.sol\":691:696  owner */\n      tag_120\n        /* \"inviter_presell/adminable.sol\":691:698  owner() */\n      jump\t// in\n    tag_354:\n        /* \"inviter_presell/adminable.sol\":691:714  owner() == _msgSender() */\n      0xffffffffffffffffffffffffffffffffffffffff\n      and\n      eq\n        /* \"inviter_presell/adminable.sol\":683:753  require(owner() == _msgSender(), \"Adminable: caller is not the owner\") */\n      tag_355\n      jumpi\n      mload(0x40)\n      0x08c379a000000000000000000000000000000000000000000000000000000000\n      dup2\n      mstore\n      0x04\n      add\n      tag_356\n      swap1\n      tag_180\n      jump\t// in\n    tag_356:\n      mload(0x40)\n      dup1\n      swap2\n      sub\n      swap1\n      revert\n    tag_355:\n        /* \"inviter_presell/stake.sol\":7436:7443  owner() */\n      tag_358\n        /* \"inviter_presell/stake.sol\":7436:7441  owner */\n      tag_120\n        /* \"inviter_presell/stake.sol\":7436:7443  owner() */\n      jump\t// in\n    tag_358:\n        /* \"inviter_presell/stake.sol\":7428:7453  payable(owner()).transfer */\n      0xffffffffffffffffffffffffffffffffffffffff\n      and\n        /* \"inviter_presell/stake.sol\":7428:7476  payable(owner()).transfer(address(this).balance) */\n      0x08fc\n        /* \"inviter_presell/stake.sol\":7454:7475  address(this).balance */\n      selfbalance\n        /* \"inviter_presell/stake.sol\":7428:7476  payable(owner()).transfer(address(this).balance) */\n      swap1\n      dup2\n      iszero\n      mul\n      swap1\n      mload(0x40)\n      0x00\n      mload(0x40)\n      dup1\n      dup4\n      sub\n      dup2\n      dup6\n      dup9\n      dup9\n      call\n      swap4\n      pop\n      pop\n      pop\n      pop\n      iszero\n      dup1\n      iszero\n      tag_360\n      jumpi\n      returndatasize\n      0x00\n      dup1\n      returndatacopy\n      revert(0x00, returndatasize)\n    tag_360:\n      pop\n        /* \"inviter_presell/stake.sol\":7369:7484  function emergencyWithdraw() external onlyOwner {... */\n      jump\t// out\n        /* \"inviter_presell/stake.sol\":818:853  uint256 public rewardPerTokenStored */\n    tag_158:\n      sload(0x0b)\n      dup2\n      jump\t// out\n        /* \"inviter_presell/adminable.sol\":1234:1435  function transferOwnership(address newOwner) public virtual onlyOwner {... */\n    tag_162:\n        /* \"inviter_presell/adminable.sol\":702:714  _msgSender() */\n      tag_362\n        /* \"inviter_presell/adminable.sol\":702:712  _msgSender */\n      tag_176\n        /* \"inviter_presell/adminable.sol\":702:714  _msgSender() */\n      jump\t// in\n    tag_362:\n        /* \"inviter_presell/adminable.sol\":691:714  owner() == _msgSender() */\n      0xffffffffffffffffffffffffffffffffffffffff\n      and\n        /* \"inviter_presell/adminable.sol\":691:698  owner() */\n      tag_363\n        /* \"inviter_presell/adminable.sol\":691:696  owner */\n      tag_120\n        /* \"inviter_presell/adminable.sol\":691:698  owner() */\n      jump\t// in\n    tag_363:\n        /* \"inviter_presell/adminable.sol\":691:714  owner() == _msgSender() */\n      0xffffffffffffffffffffffffffffffffffffffff\n      and\n      eq\n        /* \"inviter_presell/adminable.sol\":683:753  require(owner() == _msgSender(), \"Adminable: caller is not the owner\") */\n      tag_364\n      jumpi\n      mload(0x40)\n      0x08c379a000000000000000000000000000000000000000000000000000000000\n      dup2\n      mstore\n      0x04\n      add\n      tag_365\n      swap1\n      tag_180\n      jump\t// in\n    tag_365:\n      mload(0x40)\n      dup1\n      swap2\n      sub\n      swap1\n      revert\n    tag_364:\n        /* \"inviter_presell/adminable.sol\":1343:1344  0 */\n      0x00\n        /* \"inviter_presell/adminable.sol\":1323:1345  newOwner != address(0) */\n      0xffffffffffffffffffffffffffffffffffffffff\n      and\n        /* \"inviter_presell/adminable.sol\":1323:1331  newOwner */\n      dup2\n        /* \"inviter_presell/adminable.sol\":1323:1345  newOwner != address(0) */\n      0xffffffffffffffffffffffffffffffffffffffff\n      and\n      sub\n        /* \"inviter_presell/adminable.sol\":1315:1388  require(newOwner != address(0), \"Ownable: new owner is the zero address\") */\n      tag_367\n      jumpi\n      mload(0x40)\n      0x08c379a000000000000000000000000000000000000000000000000000000000\n      dup2\n      mstore\n      0x04\n      add\n      tag_368\n      swap1\n      tag_369\n      jump\t// in\n    tag_368:\n      mload(0x40)\n      dup1\n      swap2\n      sub\n      swap1\n      revert\n    tag_367:\n        /* \"inviter_presell/adminable.sol\":1399:1427  _transferOwnership(newOwner) */\n      tag_370\n        /* \"inviter_presell/adminable.sol\":1418:1426  newOwner */\n      dup2\n        /* \"inviter_presell/adminable.sol\":1399:1417  _transferOwnership */\n      tag_258\n        /* \"inviter_presell/adminable.sol\":1399:1427  _transferOwnership(newOwner) */\n      jump\t// in\n    tag_370:\n        /* \"inviter_presell/adminable.sol\":1234:1435  function transferOwnership(address newOwner) public virtual onlyOwner {... */\n      pop\n      jump\t// out\n        /* \"node_modules/@openzeppelin/contracts/utils/math/SafeMath.sol\":3108:3204  function sub(uint256 a, uint256 b) internal pure returns (uint256) {... */\n    tag_170:\n        /* \"node_modules/@openzeppelin/contracts/utils/math/SafeMath.sol\":3166:3173  uint256 */\n      0x00\n        /* \"node_modules/@openzeppelin/contracts/utils/math/SafeMath.sol\":3196:3197  b */\n      dup2\n        /* \"node_modules/@openzeppelin/contracts/utils/math/SafeMath.sol\":3192:3193  a */\n      dup4\n        /* \"node_modules/@openzeppelin/contracts/utils/math/SafeMath.sol\":3192:3197  a - b */\n      tag_372\n      swap2\n      swap1\n      tag_221\n      jump\t// in\n    tag_372:\n        /* \"node_modules/@openzeppelin/contracts/utils/math/SafeMath.sol\":3185:3197  return a - b */\n      swap1\n      pop\n        /* \"node_modules/@openzeppelin/contracts/utils/math/SafeMath.sol\":3108:3204  function sub(uint256 a, uint256 b) internal pure returns (uint256) {... */\n      swap3\n      swap2\n      pop\n      pop\n      jump\t// out\n        /* \"node_modules/@openzeppelin/contracts/utils/math/SafeMath.sol\":3451:3547  function mul(uint256 a, uint256 b) internal pure returns (uint256) {... */\n    tag_171:\n        /* \"node_modules/@openzeppelin/contracts/utils/math/SafeMath.sol\":3509:3516  uint256 */\n      0x00\n        /* \"node_modules/@openzeppelin/contracts/utils/math/SafeMath.sol\":3539:3540  b */\n      dup2\n        /* \"node_modules/@openzeppelin/contracts/utils/math/SafeMath.sol\":3535:3536  a */\n      dup4\n        /* \"node_modules/@openzeppelin/contracts/utils/math/SafeMath.sol\":3535:3540  a * b */\n      tag_374\n      swap2\n      swap1\n      tag_230\n      jump\t// in\n    tag_374:\n        /* \"node_modules/@openzeppelin/contracts/utils/math/SafeMath.sol\":3528:3540  return a * b */\n      swap1\n      pop\n        /* \"node_modules/@openzeppelin/contracts/utils/math/SafeMath.sol\":3451:3547  function mul(uint256 a, uint256 b) internal pure returns (uint256) {... */\n      swap3\n      swap2\n      pop\n      pop\n      jump\t// out\n        /* \"node_modules/@openzeppelin/contracts/utils/math/SafeMath.sol\":3836:3932  function div(uint256 a, uint256 b) internal pure returns (uint256) {... */\n    tag_172:\n        /* \"node_modules/@openzeppelin/contracts/utils/math/SafeMath.sol\":3894:3901  uint256 */\n      0x00\n        /* \"node_modules/@openzeppelin/contracts/utils/math/SafeMath.sol\":3924:3925  b */\n      dup2\n        /* \"node_modules/@openzeppelin/contracts/utils/math/SafeMath.sol\":3920:3921  a */\n      dup4\n        /* \"node_modules/@openzeppelin/contracts/utils/math/SafeMath.sol\":3920:3925  a / b */\n      tag_376\n      swap2\n      swap1\n      tag_223\n      jump\t// in\n    tag_376:\n        /* \"node_modules/@openzeppelin/contracts/utils/math/SafeMath.sol\":3913:3925  return a / b */\n      swap1\n      pop\n        /* \"node_modules/@openzeppelin/contracts/utils/math/SafeMath.sol\":3836:3932  function div(uint256 a, uint256 b) internal pure returns (uint256) {... */\n      swap3\n      swap2\n      pop\n      pop\n      jump\t// out\n        /* \"node_modules/@openzeppelin/contracts/utils/math/SafeMath.sol\":2741:2837  function add(uint256 a, uint256 b) internal pure returns (uint256) {... */\n    tag_173:\n        /* \"node_modules/@openzeppelin/contracts/utils/math/SafeMath.sol\":2799:2806  uint256 */\n      0x00\n        /* \"node_modules/@openzeppelin/contracts/utils/math/SafeMath.sol\":2829:2830  b */\n      dup2\n        /* \"node_modules/@openzeppelin/contracts/utils/math/SafeMath.sol\":2825:2826  a */\n      dup4\n        /* \"node_modules/@openzeppelin/contracts/utils/math/SafeMath.sol\":2825:2830  a + b */\n      tag_378\n      swap2\n      swap1\n      tag_225\n      jump\t// in\n    tag_378:\n        /* \"node_modules/@openzeppelin/contracts/utils/math/SafeMath.sol\":2818:2830  return a + b */\n      swap1\n      pop\n        /* \"node_modules/@openzeppelin/contracts/utils/math/SafeMath.sol\":2741:2837  function add(uint256 a, uint256 b) internal pure returns (uint256) {... */\n      swap3\n      swap2\n      pop\n      pop\n      jump\t// out\n        /* \"inviter_presell/adminable.sol\":63:161  function _msgSender() internal view virtual returns (address) {... */\n    tag_176:\n        /* \"inviter_presell/adminable.sol\":116:123  address */\n      0x00\n        /* \"inviter_presell/adminable.sol\":143:153  msg.sender */\n      caller\n        /* \"inviter_presell/adminable.sol\":136:153  return msg.sender */\n      swap1\n      pop\n        /* \"inviter_presell/adminable.sol\":63:161  function _msgSender() internal view virtual returns (address) {... */\n      swap1\n      jump\t// out\n        /* \"inviter_presell/adminable.sol\":1443:1634  function _transferOwnership(address newOwner) internal virtual {... */\n    tag_258:\n        /* \"inviter_presell/adminable.sol\":1517:1533  address oldOwner */\n      0x00\n        /* \"inviter_presell/adminable.sol\":1536:1542  _owner */\n      0x01\n      0x00\n      swap1\n      sload\n      swap1\n      0x0100\n      exp\n      swap1\n      div\n      0xffffffffffffffffffffffffffffffffffffffff\n      and\n        /* \"inviter_presell/adminable.sol\":1517:1542  address oldOwner = _owner */\n      swap1\n      pop\n        /* \"inviter_presell/adminable.sol\":1562:1570  newOwner */\n      dup2\n        /* \"inviter_presell/adminable.sol\":1553:1559  _owner */\n      0x01\n      0x00\n        /* \"inviter_presell/adminable.sol\":1553:1570  _owner = newOwner */\n      0x0100\n      exp\n      dup2\n      sload\n      dup2\n      0xffffffffffffffffffffffffffffffffffffffff\n      mul\n      not\n      and\n      swap1\n      dup4\n      0xffffffffffffffffffffffffffffffffffffffff\n      and\n      mul\n      or\n      swap1\n      sstore\n      pop\n        /* \"inviter_presell/adminable.sol\":1617:1625  newOwner */\n      dup2\n        /* \"inviter_presell/adminable.sol\":1586:1626  OwnershipTransferred(oldOwner, newOwner) */\n      0xffffffffffffffffffffffffffffffffffffffff\n      and\n        /* \"inviter_presell/adminable.sol\":1607:1615  oldOwner */\n      dup2\n        /* \"inviter_presell/adminable.sol\":1586:1626  OwnershipTransferred(oldOwner, newOwner) */\n      0xffffffffffffffffffffffffffffffffffffffff\n      and\n      0x8be0079c531659141344cd1fd0a4f28419497f9722a3daafe3b4186f6b6457e0\n      mload(0x40)\n      mload(0x40)\n      dup1\n      swap2\n      sub\n      swap1\n      log3\n        /* \"inviter_presell/adminable.sol\":1506:1634  {... */\n      pop\n        /* \"inviter_presell/adminable.sol\":1443:1634  function _transferOwnership(address newOwner) internal virtual {... */\n      pop\n      jump\t// out\n        /* \"inviter_presell/stake.sol\":4076:4298  function _getRewardRate(uint256 time) private view returns (uint256) {... */\n    tag_313:\n        /* \"inviter_presell/stake.sol\":4136:4143  uint256 */\n      0x00\n        /* \"inviter_presell/stake.sol\":4156:4177  uint256 curPoolAmount */\n      dup1\n        /* \"inviter_presell/stake.sol\":4180:4199  getRewardPool(time) */\n      tag_382\n        /* \"inviter_presell/stake.sol\":4194:4198  time */\n      dup4\n        /* \"inviter_presell/stake.sol\":4180:4193  getRewardPool */\n      tag_85\n        /* \"inviter_presell/stake.sol\":4180:4199  getRewardPool(time) */\n      jump\t// in\n    tag_382:\n        /* \"inviter_presell/stake.sol\":4156:4199  uint256 curPoolAmount = getRewardPool(time) */\n      swap1\n      pop\n        /* \"inviter_presell/stake.sol\":4210:4228  uint256 rewardRate */\n      0x00\n        /* \"inviter_presell/stake.sol\":4231:4262  curPoolAmount.div(rateInterval) */\n      tag_383\n        /* \"inviter_presell/stake.sol\":4249:4261  rateInterval */\n      sload(0x07)\n        /* \"inviter_presell/stake.sol\":4231:4244  curPoolAmount */\n      dup4\n        /* \"inviter_presell/stake.sol\":4231:4248  curPoolAmount.div */\n      tag_172\n      swap1\n        /* \"inviter_presell/stake.sol\":4231:4262  curPoolAmount.div(rateInterval) */\n      swap2\n      swap1\n      0xffffffff\n      and\n      jump\t// in\n    tag_383:\n        /* \"inviter_presell/stake.sol\":4210:4262  uint256 rewardRate = curPoolAmount.div(rateInterval) */\n      swap1\n      pop\n        /* \"inviter_presell/stake.sol\":4280:4290  rewardRate */\n      dup1\n        /* \"inviter_presell/stake.sol\":4273:4290  return rewardRate */\n      swap3\n      pop\n      pop\n      pop\n        /* \"inviter_presell/stake.sol\":4076:4298  function _getRewardRate(uint256 time) private view returns (uint256) {... */\n      swap2\n      swap1\n      pop\n      jump\t// out\n        /* \"#utility.yul\":88:205   */\n    tag_385:\n        /* \"#utility.yul\":197:198   */\n      0x00\n        /* \"#utility.yul\":194:195   */\n      dup1\n        /* \"#utility.yul\":187:199   */\n      revert\n        /* \"#utility.yul\":334:460   */\n    tag_387:\n        /* \"#utility.yul\":371:378   */\n      0x00\n        /* \"#utility.yul\":411:453   */\n      0xffffffffffffffffffffffffffffffffffffffff\n        /* \"#utility.yul\":404:409   */\n      dup3\n        /* \"#utility.yul\":400:454   */\n      and\n        /* \"#utility.yul\":389:454   */\n      swap1\n      pop\n        /* \"#utility.yul\":334:460   */\n      swap2\n      swap1\n      pop\n      jump\t// out\n        /* \"#utility.yul\":466:562   */\n    tag_388:\n        /* \"#utility.yul\":503:510   */\n      0x00\n        /* \"#utility.yul\":532:556   */\n      tag_425\n        /* \"#utility.yul\":550:555   */\n      dup3\n        /* \"#utility.yul\":532:556   */\n      tag_387\n      jump\t// in\n    tag_425:\n        /* \"#utility.yul\":521:556   */\n      swap1\n      pop\n        /* \"#utility.yul\":466:562   */\n      swap2\n      swap1\n      pop\n      jump\t// out\n        /* \"#utility.yul\":568:690   */\n    tag_389:\n        /* \"#utility.yul\":641:665   */\n      tag_427\n        /* \"#utility.yul\":659:664   */\n      dup2\n        /* \"#utility.yul\":641:665   */\n      tag_388\n      jump\t// in\n    tag_427:\n        /* \"#utility.yul\":634:639   */\n      dup2\n        /* \"#utility.yul\":631:666   */\n      eq\n        /* \"#utility.yul\":621:684   */\n      tag_428\n      jumpi\n        /* \"#utility.yul\":680:681   */\n      0x00\n        /* \"#utility.yul\":677:678   */\n      dup1\n        /* \"#utility.yul\":670:682   */\n      revert\n        /* \"#utility.yul\":621:684   */\n    tag_428:\n        /* \"#utility.yul\":568:690   */\n      pop\n      jump\t// out\n        /* \"#utility.yul\":696:835   */\n    tag_390:\n        /* \"#utility.yul\":742:747   */\n      0x00\n        /* \"#utility.yul\":780:786   */\n      dup2\n        /* \"#utility.yul\":767:787   */\n      calldataload\n        /* \"#utility.yul\":758:787   */\n      swap1\n      pop\n        /* \"#utility.yul\":796:829   */\n      tag_430\n        /* \"#utility.yul\":823:828   */\n      dup2\n        /* \"#utility.yul\":796:829   */\n      tag_389\n      jump\t// in\n    tag_430:\n        /* \"#utility.yul\":696:835   */\n      swap3\n      swap2\n      pop\n      pop\n      jump\t// out\n        /* \"#utility.yul\":841:1170   */\n    tag_46:\n        /* \"#utility.yul\":900:906   */\n      0x00\n        /* \"#utility.yul\":949:951   */\n      0x20\n        /* \"#utility.yul\":937:946   */\n      dup3\n        /* \"#utility.yul\":928:935   */\n      dup5\n        /* \"#utility.yul\":924:947   */\n      sub\n        /* \"#utility.yul\":920:952   */\n      slt\n        /* \"#utility.yul\":917:1036   */\n      iszero\n      tag_432\n      jumpi\n        /* \"#utility.yul\":955:1034   */\n      tag_433\n      tag_385\n      jump\t// in\n    tag_433:\n        /* \"#utility.yul\":917:1036   */\n    tag_432:\n        /* \"#utility.yul\":1075:1076   */\n      0x00\n        /* \"#utility.yul\":1100:1153   */\n      tag_434\n        /* \"#utility.yul\":1145:1152   */\n      dup5\n        /* \"#utility.yul\":1136:1142   */\n      dup3\n        /* \"#utility.yul\":1125:1134   */\n      dup6\n        /* \"#utility.yul\":1121:1143   */\n      add\n        /* \"#utility.yul\":1100:1153   */\n      tag_390\n      jump\t// in\n    tag_434:\n        /* \"#utility.yul\":1090:1153   */\n      swap2\n      pop\n        /* \"#utility.yul\":1046:1163   */\n      pop\n        /* \"#utility.yul\":841:1170   */\n      swap3\n      swap2\n      pop\n      pop\n      jump\t// out\n        /* \"#utility.yul\":1176:1253   */\n    tag_391:\n        /* \"#utility.yul\":1213:1220   */\n      0x00\n        /* \"#utility.yul\":1242:1247   */\n      dup2\n        /* \"#utility.yul\":1231:1247   */\n      swap1\n      pop\n        /* \"#utility.yul\":1176:1253   */\n      swap2\n      swap1\n      pop\n      jump\t// out\n        /* \"#utility.yul\":1259:1377   */\n    tag_392:\n        /* \"#utility.yul\":1346:1370   */\n      tag_437\n        /* \"#utility.yul\":1364:1369   */\n      dup2\n        /* \"#utility.yul\":1346:1370   */\n      tag_391\n      jump\t// in\n    tag_437:\n        /* \"#utility.yul\":1341:1344   */\n      dup3\n        /* \"#utility.yul\":1334:1371   */\n      mstore\n        /* \"#utility.yul\":1259:1377   */\n      pop\n      pop\n      jump\t// out\n        /* \"#utility.yul\":1383:1605   */\n    tag_49:\n        /* \"#utility.yul\":1476:1480   */\n      0x00\n        /* \"#utility.yul\":1514:1516   */\n      0x20\n        /* \"#utility.yul\":1503:1512   */\n      dup3\n        /* \"#utility.yul\":1499:1517   */\n      add\n        /* \"#utility.yul\":1491:1517   */\n      swap1\n      pop\n        /* \"#utility.yul\":1527:1598   */\n      tag_439\n        /* \"#utility.yul\":1595:1596   */\n      0x00\n        /* \"#utility.yul\":1584:1593   */\n      dup4\n        /* \"#utility.yul\":1580:1597   */\n      add\n        /* \"#utility.yul\":1571:1577   */\n      dup5\n        /* \"#utility.yul\":1527:1598   */\n      tag_392\n      jump\t// in\n    tag_439:\n        /* \"#utility.yul\":1383:1605   */\n      swap3\n      swap2\n      pop\n      pop\n      jump\t// out\n        /* \"#utility.yul\":1611:1733   */\n    tag_393:\n        /* \"#utility.yul\":1684:1708   */\n      tag_441\n        /* \"#utility.yul\":1702:1707   */\n      dup2\n        /* \"#utility.yul\":1684:1708   */\n      tag_391\n      jump\t// in\n    tag_441:\n        /* \"#utility.yul\":1677:1682   */\n      dup2\n        /* \"#utility.yul\":1674:1709   */\n      eq\n        /* \"#utility.yul\":1664:1727   */\n      tag_442\n      jumpi\n        /* \"#utility.yul\":1723:1724   */\n      0x00\n        /* \"#utility.yul\":1720:1721   */\n      dup1\n        /* \"#utility.yul\":1713:1725   */\n      revert\n        /* \"#utility.yul\":1664:1727   */\n    tag_442:\n        /* \"#utility.yul\":1611:1733   */\n      pop\n      jump\t// out\n        /* \"#utility.yul\":1739:1878   */\n    tag_394:\n        /* \"#utility.yul\":1785:1790   */\n      0x00\n        /* \"#utility.yul\":1823:1829   */\n      dup2\n        /* \"#utility.yul\":1810:1830   */\n      calldataload\n        /* \"#utility.yul\":1801:1830   */\n      swap1\n      pop\n        /* \"#utility.yul\":1839:1872   */\n      tag_444\n        /* \"#utility.yul\":1866:1871   */\n      dup2\n        /* \"#utility.yul\":1839:1872   */\n      tag_393\n      jump\t// in\n    tag_444:\n        /* \"#utility.yul\":1739:1878   */\n      swap3\n      swap2\n      pop\n      pop\n      jump\t// out\n        /* \"#utility.yul\":1884:2503   */\n    tag_59:\n        /* \"#utility.yul\":1961:1967   */\n      0x00\n        /* \"#utility.yul\":1969:1975   */\n      dup1\n        /* \"#utility.yul\":1977:1983   */\n      0x00\n        /* \"#utility.yul\":2026:2028   */\n      0x60\n        /* \"#utility.yul\":2014:2023   */\n      dup5\n        /* \"#utility.yul\":2005:2012   */\n      dup7\n        /* \"#utility.yul\":2001:2024   */\n      sub\n        /* \"#utility.yul\":1997:2029   */\n      slt\n        /* \"#utility.yul\":1994:2113   */\n      iszero\n      tag_446\n      jumpi\n        /* \"#utility.yul\":2032:2111   */\n      tag_447\n      tag_385\n      jump\t// in\n    tag_447:\n        /* \"#utility.yul\":1994:2113   */\n    tag_446:\n        /* \"#utility.yul\":2152:2153   */\n      0x00\n        /* \"#utility.yul\":2177:2230   */\n      tag_448\n        /* \"#utility.yul\":2222:2229   */\n      dup7\n        /* \"#utility.yul\":2213:2219   */\n      dup3\n        /* \"#utility.yul\":2202:2211   */\n      dup8\n        /* \"#utility.yul\":2198:2220   */\n      add\n        /* \"#utility.yul\":2177:2230   */\n      tag_394\n      jump\t// in\n    tag_448:\n        /* \"#utility.yul\":2167:2230   */\n      swap4\n      pop\n        /* \"#utility.yul\":2123:2240   */\n      pop\n        /* \"#utility.yul\":2279:2281   */\n      0x20\n        /* \"#utility.yul\":2305:2358   */\n      tag_449\n        /* \"#utility.yul\":2350:2357   */\n      dup7\n        /* \"#utility.yul\":2341:2347   */\n      dup3\n        /* \"#utility.yul\":2330:2339   */\n      dup8\n        /* \"#utility.yul\":2326:2348   */\n      add\n        /* \"#utility.yul\":2305:2358   */\n      tag_394\n      jump\t// in\n    tag_449:\n        /* \"#utility.yul\":2295:2358   */\n      swap3\n      pop\n        /* \"#utility.yul\":2250:2368   */\n      pop\n        /* \"#utility.yul\":2407:2409   */\n      0x40\n        /* \"#utility.yul\":2433:2486   */\n      tag_450\n        /* \"#utility.yul\":2478:2485   */\n      dup7\n        /* \"#utility.yul\":2469:2475   */\n      dup3\n        /* \"#utility.yul\":2458:2467   */\n      dup8\n        /* \"#utility.yul\":2454:2476   */\n      add\n        /* \"#utility.yul\":2433:2486   */\n      tag_394\n      jump\t// in\n    tag_450:\n        /* \"#utility.yul\":2423:2486   */\n      swap2\n      pop\n        /* \"#utility.yul\":2378:2496   */\n      pop\n        /* \"#utility.yul\":1884:2503   */\n      swap3\n      pop\n      swap3\n      pop\n      swap3\n      jump\t// out\n        /* \"#utility.yul\":2509:2599   */\n    tag_395:\n        /* \"#utility.yul\":2543:2550   */\n      0x00\n        /* \"#utility.yul\":2586:2591   */\n      dup2\n        /* \"#utility.yul\":2579:2592   */\n      iszero\n        /* \"#utility.yul\":2572:2593   */\n      iszero\n        /* \"#utility.yul\":2561:2593   */\n      swap1\n      pop\n        /* \"#utility.yul\":2509:2599   */\n      swap2\n      swap1\n      pop\n      jump\t// out\n        /* \"#utility.yul\":2605:2721   */\n    tag_396:\n        /* \"#utility.yul\":2675:2696   */\n      tag_453\n        /* \"#utility.yul\":2690:2695   */\n      dup2\n        /* \"#utility.yul\":2675:2696   */\n      tag_395\n      jump\t// in\n    tag_453:\n        /* \"#utility.yul\":2668:2673   */\n      dup2\n        /* \"#utility.yul\":2665:2697   */\n      eq\n        /* \"#utility.yul\":2655:2715   */\n      tag_454\n      jumpi\n        /* \"#utility.yul\":2711:2712   */\n      0x00\n        /* \"#utility.yul\":2708:2709   */\n      dup1\n        /* \"#utility.yul\":2701:2713   */\n      revert\n        /* \"#utility.yul\":2655:2715   */\n    tag_454:\n        /* \"#utility.yul\":2605:2721   */\n      pop\n      jump\t// out\n        /* \"#utility.yul\":2727:2860   */\n    tag_397:\n        /* \"#utility.yul\":2770:2775   */\n      0x00\n        /* \"#utility.yul\":2808:2814   */\n      dup2\n        /* \"#utility.yul\":2795:2815   */\n      calldataload\n        /* \"#utility.yul\":2786:2815   */\n      swap1\n      pop\n        /* \"#utility.yul\":2824:2854   */\n      tag_456\n        /* \"#utility.yul\":2848:2853   */\n      dup2\n        /* \"#utility.yul\":2824:2854   */\n      tag_396\n      jump\t// in\n    tag_456:\n        /* \"#utility.yul\":2727:2860   */\n      swap3\n      swap2\n      pop\n      pop\n      jump\t// out\n        /* \"#utility.yul\":2866:3334   */\n    tag_63:\n        /* \"#utility.yul\":2931:2937   */\n      0x00\n        /* \"#utility.yul\":2939:2945   */\n      dup1\n        /* \"#utility.yul\":2988:2990   */\n      0x40\n        /* \"#utility.yul\":2976:2985   */\n      dup4\n        /* \"#utility.yul\":2967:2974   */\n      dup6\n        /* \"#utility.yul\":2963:2986   */\n      sub\n        /* \"#utility.yul\":2959:2991   */\n      slt\n        /* \"#utility.yul\":2956:3075   */\n      iszero\n      tag_458\n      jumpi\n        /* \"#utility.yul\":2994:3073   */\n      tag_459\n      tag_385\n      jump\t// in\n    tag_459:\n        /* \"#utility.yul\":2956:3075   */\n    tag_458:\n        /* \"#utility.yul\":3114:3115   */\n      0x00\n        /* \"#utility.yul\":3139:3192   */\n      tag_460\n        /* \"#utility.yul\":3184:3191   */\n      dup6\n        /* \"#utility.yul\":3175:3181   */\n      dup3\n        /* \"#utility.yul\":3164:3173   */\n      dup7\n        /* \"#utility.yul\":3160:3182   */\n      add\n        /* \"#utility.yul\":3139:3192   */\n      tag_390\n      jump\t// in\n    tag_460:\n        /* \"#utility.yul\":3129:3192   */\n      swap3\n      pop\n        /* \"#utility.yul\":3085:3202   */\n      pop\n        /* \"#utility.yul\":3241:3243   */\n      0x20\n        /* \"#utility.yul\":3267:3317   */\n      tag_461\n        /* \"#utility.yul\":3309:3316   */\n      dup6\n        /* \"#utility.yul\":3300:3306   */\n      dup3\n        /* \"#utility.yul\":3289:3298   */\n      dup7\n        /* \"#utility.yul\":3285:3307   */\n      add\n        /* \"#utility.yul\":3267:3317   */\n      tag_397\n      jump\t// in\n    tag_461:\n        /* \"#utility.yul\":3257:3317   */\n      swap2\n      pop\n        /* \"#utility.yul\":3212:3327   */\n      pop\n        /* \"#utility.yul\":2866:3334   */\n      swap3\n      pop\n      swap3\n      swap1\n      pop\n      jump\t// out\n        /* \"#utility.yul\":3340:3449   */\n    tag_398:\n        /* \"#utility.yul\":3421:3442   */\n      tag_463\n        /* \"#utility.yul\":3436:3441   */\n      dup2\n        /* \"#utility.yul\":3421:3442   */\n      tag_395\n      jump\t// in\n    tag_463:\n        /* \"#utility.yul\":3416:3419   */\n      dup3\n        /* \"#utility.yul\":3409:3443   */\n      mstore\n        /* \"#utility.yul\":3340:3449   */\n      pop\n      pop\n      jump\t// out\n        /* \"#utility.yul\":3455:3665   */\n    tag_69:\n        /* \"#utility.yul\":3542:3546   */\n      0x00\n        /* \"#utility.yul\":3580:3582   */\n      0x20\n        /* \"#utility.yul\":3569:3578   */\n      dup3\n        /* \"#utility.yul\":3565:3583   */\n      add\n        /* \"#utility.yul\":3557:3583   */\n      swap1\n      pop\n        /* \"#utility.yul\":3593:3658   */\n      tag_465\n        /* \"#utility.yul\":3655:3656   */\n      0x00\n        /* \"#utility.yul\":3644:3653   */\n      dup4\n        /* \"#utility.yul\":3640:3657   */\n      add\n        /* \"#utility.yul\":3631:3637   */\n      dup5\n        /* \"#utility.yul\":3593:3658   */\n      tag_398\n      jump\t// in\n    tag_465:\n        /* \"#utility.yul\":3455:3665   */\n      swap3\n      swap2\n      pop\n      pop\n      jump\t// out\n        /* \"#utility.yul\":3671:4000   */\n    tag_77:\n        /* \"#utility.yul\":3730:3736   */\n      0x00\n        /* \"#utility.yul\":3779:3781   */\n      0x20\n        /* \"#utility.yul\":3767:3776   */\n      dup3\n        /* \"#utility.yul\":3758:3765   */\n      dup5\n        /* \"#utility.yul\":3754:3777   */\n      sub\n        /* \"#utility.yul\":3750:3782   */\n      slt\n        /* \"#utility.yul\":3747:3866   */\n      iszero\n      tag_467\n      jumpi\n        /* \"#utility.yul\":3785:3864   */\n      tag_468\n      tag_385\n      jump\t// in\n    tag_468:\n        /* \"#utility.yul\":3747:3866   */\n    tag_467:\n        /* \"#utility.yul\":3905:3906   */\n      0x00\n        /* \"#utility.yul\":3930:3983   */\n      tag_469\n        /* \"#utility.yul\":3975:3982   */\n      dup5\n        /* \"#utility.yul\":3966:3972   */\n      dup3\n        /* \"#utility.yul\":3955:3964   */\n      dup6\n        /* \"#utility.yul\":3951:3973   */\n      add\n        /* \"#utility.yul\":3930:3983   */\n      tag_394\n      jump\t// in\n    tag_469:\n        /* \"#utility.yul\":3920:3983   */\n      swap2\n      pop\n        /* \"#utility.yul\":3876:3993   */\n      pop\n        /* \"#utility.yul\":3671:4000   */\n      swap3\n      swap2\n      pop\n      pop\n      jump\t// out\n        /* \"#utility.yul\":4006:4124   */\n    tag_399:\n        /* \"#utility.yul\":4093:4117   */\n      tag_471\n        /* \"#utility.yul\":4111:4116   */\n      dup2\n        /* \"#utility.yul\":4093:4117   */\n      tag_388\n      jump\t// in\n    tag_471:\n        /* \"#utility.yul\":4088:4091   */\n      dup3\n        /* \"#utility.yul\":4081:4118   */\n      mstore\n        /* \"#utility.yul\":4006:4124   */\n      pop\n      pop\n      jump\t// out\n        /* \"#utility.yul\":4130:4352   */\n    tag_122:\n        /* \"#utility.yul\":4223:4227   */\n      0x00\n        /* \"#utility.yul\":4261:4263   */\n      0x20\n        /* \"#utility.yul\":4250:4259   */\n      dup3\n        /* \"#utility.yul\":4246:4264   */\n      add\n        /* \"#utility.yul\":4238:4264   */\n      swap1\n      pop\n        /* \"#utility.yul\":4274:4345   */\n      tag_473\n        /* \"#utility.yul\":4342:4343   */\n      0x00\n        /* \"#utility.yul\":4331:4340   */\n      dup4\n        /* \"#utility.yul\":4327:4344   */\n      add\n        /* \"#utility.yul\":4318:4324   */\n      dup5\n        /* \"#utility.yul\":4274:4345   */\n      tag_399\n      jump\t// in\n    tag_473:\n        /* \"#utility.yul\":4130:4352   */\n      swap3\n      swap2\n      pop\n      pop\n      jump\t// out\n        /* \"#utility.yul\":4358:4832   */\n    tag_131:\n        /* \"#utility.yul\":4426:4432   */\n      0x00\n        /* \"#utility.yul\":4434:4440   */\n      dup1\n        /* \"#utility.yul\":4483:4485   */\n      0x40\n        /* \"#utility.yul\":4471:4480   */\n      dup4\n        /* \"#utility.yul\":4462:4469   */\n      dup6\n        /* \"#utility.yul\":4458:4481   */\n      sub\n        /* \"#utility.yul\":4454:4486   */\n      slt\n        /* \"#utility.yul\":4451:4570   */\n      iszero\n      tag_475\n      jumpi\n        /* \"#utility.yul\":4489:4568   */\n      tag_476\n      tag_385\n      jump\t// in\n    tag_476:\n        /* \"#utility.yul\":4451:4570   */\n    tag_475:\n        /* \"#utility.yul\":4609:4610   */\n      0x00\n        /* \"#utility.yul\":4634:4687   */\n      tag_477\n        /* \"#utility.yul\":4679:4686   */\n      dup6\n        /* \"#utility.yul\":4670:4676   */\n      dup3\n        /* \"#utility.yul\":4659:4668   */\n      dup7\n        /* \"#utility.yul\":4655:4677   */\n      add\n        /* \"#utility.yul\":4634:4687   */\n      tag_390\n      jump\t// in\n    tag_477:\n        /* \"#utility.yul\":4624:4687   */\n      swap3\n      pop\n        /* \"#utility.yul\":4580:4697   */\n      pop\n        /* \"#utility.yul\":4736:4738   */\n      0x20\n        /* \"#utility.yul\":4762:4815   */\n      tag_478\n        /* \"#utility.yul\":4807:4814   */\n      dup6\n        /* \"#utility.yul\":4798:4804   */\n      dup3\n        /* \"#utility.yul\":4787:4796   */\n      dup7\n        /* \"#utility.yul\":4783:4805   */\n      add\n        /* \"#utility.yul\":4762:4815   */\n      tag_394\n      jump\t// in\n    tag_478:\n        /* \"#utility.yul\":4752:4815   */\n      swap2\n      pop\n        /* \"#utility.yul\":4707:4825   */\n      pop\n        /* \"#utility.yul\":4358:4832   */\n      swap3\n      pop\n      swap3\n      swap1\n      pop\n      jump\t// out\n        /* \"#utility.yul\":4838:4898   */\n    tag_400:\n        /* \"#utility.yul\":4866:4869   */\n      0x00\n        /* \"#utility.yul\":4887:4892   */\n      dup2\n        /* \"#utility.yul\":4880:4892   */\n      swap1\n      pop\n        /* \"#utility.yul\":4838:4898   */\n      swap2\n      swap1\n      pop\n      jump\t// out\n        /* \"#utility.yul\":4904:5046   */\n    tag_401:\n        /* \"#utility.yul\":4954:4963   */\n      0x00\n        /* \"#utility.yul\":4987:5040   */\n      tag_481\n        /* \"#utility.yul\":5005:5039   */\n      tag_482\n        /* \"#utility.yul\":5014:5038   */\n      tag_483\n        /* \"#utility.yul\":5032:5037   */\n      dup5\n        /* \"#utility.yul\":5014:5038   */\n      tag_387\n      jump\t// in\n    tag_483:\n        /* \"#utility.yul\":5005:5039   */\n      tag_400\n      jump\t// in\n    tag_482:\n        /* \"#utility.yul\":4987:5040   */\n      tag_387\n      jump\t// in\n    tag_481:\n        /* \"#utility.yul\":4974:5040   */\n      swap1\n      pop\n        /* \"#utility.yul\":4904:5046   */\n      swap2\n      swap1\n      pop\n      jump\t// out\n        /* \"#utility.yul\":5052:5178   */\n    tag_402:\n        /* \"#utility.yul\":5102:5111   */\n      0x00\n        /* \"#utility.yul\":5135:5172   */\n      tag_485\n        /* \"#utility.yul\":5166:5171   */\n      dup3\n        /* \"#utility.yul\":5135:5172   */\n      tag_401\n      jump\t// in\n    tag_485:\n        /* \"#utility.yul\":5122:5172   */\n      swap1\n      pop\n        /* \"#utility.yul\":5052:5178   */\n      swap2\n      swap1\n      pop\n      jump\t// out\n        /* \"#utility.yul\":5184:5325   */\n    tag_403:\n        /* \"#utility.yul\":5249:5258   */\n      0x00\n        /* \"#utility.yul\":5282:5319   */\n      tag_487\n        /* \"#utility.yul\":5313:5318   */\n      dup3\n        /* \"#utility.yul\":5282:5319   */\n      tag_402\n      jump\t// in\n    tag_487:\n        /* \"#utility.yul\":5269:5319   */\n      swap1\n      pop\n        /* \"#utility.yul\":5184:5325   */\n      swap2\n      swap1\n      pop\n      jump\t// out\n        /* \"#utility.yul\":5331:5492   */\n    tag_404:\n        /* \"#utility.yul\":5433:5485   */\n      tag_489\n        /* \"#utility.yul\":5479:5484   */\n      dup2\n        /* \"#utility.yul\":5433:5485   */\n      tag_403\n      jump\t// in\n    tag_489:\n        /* \"#utility.yul\":5428:5431   */\n      dup3\n        /* \"#utility.yul\":5421:5486   */\n      mstore\n        /* \"#utility.yul\":5331:5492   */\n      pop\n      pop\n      jump\t// out\n        /* \"#utility.yul\":5498:5750   */\n    tag_149:\n        /* \"#utility.yul\":5606:5610   */\n      0x00\n        /* \"#utility.yul\":5644:5646   */\n      0x20\n        /* \"#utility.yul\":5633:5642   */\n      dup3\n        /* \"#utility.yul\":5629:5647   */\n      add\n        /* \"#utility.yul\":5621:5647   */\n      swap1\n      pop\n        /* \"#utility.yul\":5657:5743   */\n      tag_491\n        /* \"#utility.yul\":5740:5741   */\n      0x00\n        /* \"#utility.yul\":5729:5738   */\n      dup4\n        /* \"#utility.yul\":5725:5742   */\n      add\n        /* \"#utility.yul\":5716:5722   */\n      dup5\n        /* \"#utility.yul\":5657:5743   */\n      tag_404\n      jump\t// in\n    tag_491:\n        /* \"#utility.yul\":5498:5750   */\n      swap3\n      swap2\n      pop\n      pop\n      jump\t// out\n        /* \"#utility.yul\":5756:6230   */\n    tag_152:\n        /* \"#utility.yul\":5824:5830   */\n      0x00\n        /* \"#utility.yul\":5832:5838   */\n      dup1\n        /* \"#utility.yul\":5881:5883   */\n      0x40\n        /* \"#utility.yul\":5869:5878   */\n      dup4\n        /* \"#utility.yul\":5860:5867   */\n      dup6\n        /* \"#utility.yul\":5856:5879   */\n      sub\n        /* \"#utility.yul\":5852:5884   */\n      slt\n        /* \"#utility.yul\":5849:5968   */\n      iszero\n      tag_493\n      jumpi\n        /* \"#utility.yul\":5887:5966   */\n      tag_494\n      tag_385\n      jump\t// in\n    tag_494:\n        /* \"#utility.yul\":5849:5968   */\n    tag_493:\n        /* \"#utility.yul\":6007:6008   */\n      0x00\n        /* \"#utility.yul\":6032:6085   */\n      tag_495\n        /* \"#utility.yul\":6077:6084   */\n      dup6\n        /* \"#utility.yul\":6068:6074   */\n      dup3\n        /* \"#utility.yul\":6057:6066   */\n      dup7\n        /* \"#utility.yul\":6053:6075   */\n      add\n        /* \"#utility.yul\":6032:6085   */\n      tag_394\n      jump\t// in\n    tag_495:\n        /* \"#utility.yul\":6022:6085   */\n      swap3\n      pop\n        /* \"#utility.yul\":5978:6095   */\n      pop\n        /* \"#utility.yul\":6134:6136   */\n      0x20\n        /* \"#utility.yul\":6160:6213   */\n      tag_496\n        /* \"#utility.yul\":6205:6212   */\n      dup6\n        /* \"#utility.yul\":6196:6202   */\n      dup3\n        /* \"#utility.yul\":6185:6194   */\n      dup7\n        /* \"#utility.yul\":6181:6203   */\n      add\n        /* \"#utility.yul\":6160:6213   */\n      tag_394\n      jump\t// in\n    tag_496:\n        /* \"#utility.yul\":6150:6213   */\n      swap2\n      pop\n        /* \"#utility.yul\":6105:6223   */\n      pop\n        /* \"#utility.yul\":5756:6230   */\n      swap3\n      pop\n      swap3\n      swap1\n      pop\n      jump\t// out\n        /* \"#utility.yul\":6236:6405   */\n    tag_405:\n        /* \"#utility.yul\":6320:6331   */\n      0x00\n        /* \"#utility.yul\":6354:6360   */\n      dup3\n        /* \"#utility.yul\":6349:6352   */\n      dup3\n        /* \"#utility.yul\":6342:6361   */\n      mstore\n        /* \"#utility.yul\":6394:6398   */\n      0x20\n        /* \"#utility.yul\":6389:6392   */\n      dup3\n        /* \"#utility.yul\":6385:6399   */\n      add\n        /* \"#utility.yul\":6370:6399   */\n      swap1\n      pop\n        /* \"#utility.yul\":6236:6405   */\n      swap3\n      swap2\n      pop\n      pop\n      jump\t// out\n        /* \"#utility.yul\":6411:6632   */\n    tag_406:\n        /* \"#utility.yul\":6551:6585   */\n      0x41646d696e61626c653a2063616c6c6572206973206e6f7420746865206f776e\n        /* \"#utility.yul\":6547:6548   */\n      0x00\n        /* \"#utility.yul\":6539:6545   */\n      dup3\n        /* \"#utility.yul\":6535:6549   */\n      add\n        /* \"#utility.yul\":6528:6586   */\n      mstore\n        /* \"#utility.yul\":6620:6624   */\n      0x6572000000000000000000000000000000000000000000000000000000000000\n        /* \"#utility.yul\":6615:6617   */\n      0x20\n        /* \"#utility.yul\":6607:6613   */\n      dup3\n        /* \"#utility.yul\":6603:6618   */\n      add\n        /* \"#utility.yul\":6596:6625   */\n      mstore\n        /* \"#utility.yul\":6411:6632   */\n      pop\n      jump\t// out\n        /* \"#utility.yul\":6638:7004   */\n    tag_407:\n        /* \"#utility.yul\":6780:6783   */\n      0x00\n        /* \"#utility.yul\":6801:6868   */\n      tag_500\n        /* \"#utility.yul\":6865:6867   */\n      0x22\n        /* \"#utility.yul\":6860:6863   */\n      dup4\n        /* \"#utility.yul\":6801:6868   */\n      tag_405\n      jump\t// in\n    tag_500:\n        /* \"#utility.yul\":6794:6868   */\n      swap2\n      pop\n        /* \"#utility.yul\":6877:6970   */\n      tag_501\n        /* \"#utility.yul\":6966:6969   */\n      dup3\n        /* \"#utility.yul\":6877:6970   */\n      tag_406\n      jump\t// in\n    tag_501:\n        /* \"#utility.yul\":6995:6997   */\n      0x40\n        /* \"#utility.yul\":6990:6993   */\n      dup3\n        /* \"#utility.yul\":6986:6998   */\n      add\n        /* \"#utility.yul\":6979:6998   */\n      swap1\n      pop\n        /* \"#utility.yul\":6638:7004   */\n      swap2\n      swap1\n      pop\n      jump\t// out\n        /* \"#utility.yul\":7010:7429   */\n    tag_180:\n        /* \"#utility.yul\":7176:7180   */\n      0x00\n        /* \"#utility.yul\":7214:7216   */\n      0x20\n        /* \"#utility.yul\":7203:7212   */\n      dup3\n        /* \"#utility.yul\":7199:7217   */\n      add\n        /* \"#utility.yul\":7191:7217   */\n      swap1\n      pop\n        /* \"#utility.yul\":7263:7272   */\n      dup2\n        /* \"#utility.yul\":7257:7261   */\n      dup2\n        /* \"#utility.yul\":7253:7273   */\n      sub\n        /* \"#utility.yul\":7249:7250   */\n      0x00\n        /* \"#utility.yul\":7238:7247   */\n      dup4\n        /* \"#utility.yul\":7234:7251   */\n      add\n        /* \"#utility.yul\":7227:7274   */\n      mstore\n        /* \"#utility.yul\":7291:7422   */\n      tag_503\n        /* \"#utility.yul\":7417:7421   */\n      dup2\n        /* \"#utility.yul\":7291:7422   */\n      tag_407\n      jump\t// in\n    tag_503:\n        /* \"#utility.yul\":7283:7422   */\n      swap1\n      pop\n        /* \"#utility.yul\":7010:7429   */\n      swap2\n      swap1\n      pop\n      jump\t// out\n        /* \"#utility.yul\":7435:7743   */\n    tag_189:\n        /* \"#utility.yul\":7544:7548   */\n      0x00\n        /* \"#utility.yul\":7582:7584   */\n      0x40\n        /* \"#utility.yul\":7571:7580   */\n      dup3\n        /* \"#utility.yul\":7567:7585   */\n      add\n        /* \"#utility.yul\":7559:7585   */\n      swap1\n      pop\n        /* \"#utility.yul\":7595:7660   */\n      tag_505\n        /* \"#utility.yul\":7657:7658   */\n      0x00\n        /* \"#utility.yul\":7646:7655   */\n      dup4\n        /* \"#utility.yul\":7642:7659   */\n      add\n        /* \"#utility.yul\":7633:7639   */\n      dup6\n        /* \"#utility.yul\":7595:7660   */\n      tag_398\n      jump\t// in\n    tag_505:\n        /* \"#utility.yul\":7670:7736   */\n      tag_506\n        /* \"#utility.yul\":7732:7734   */\n      0x20\n        /* \"#utility.yul\":7721:7730   */\n      dup4\n        /* \"#utility.yul\":7717:7735   */\n      add\n        /* \"#utility.yul\":7708:7714   */\n      dup5\n        /* \"#utility.yul\":7670:7736   */\n      tag_398\n      jump\t// in\n    tag_506:\n        /* \"#utility.yul\":7435:7743   */\n      swap4\n      swap3\n      pop\n      pop\n      pop\n      jump\t// out\n        /* \"#utility.yul\":7749:7930   */\n    tag_408:\n        /* \"#utility.yul\":7889:7922   */\n      0x5265656e7472616e637947756172643a207265656e7472616e742063616c6c00\n        /* \"#utility.yul\":7885:7886   */\n      0x00\n        /* \"#utility.yul\":7877:7883   */\n      dup3\n        /* \"#utility.yul\":7873:7887   */\n      add\n        /* \"#utility.yul\":7866:7923   */\n      mstore\n        /* \"#utility.yul\":7749:7930   */\n      pop\n      jump\t// out\n        /* \"#utility.yul\":7936:8302   */\n    tag_409:\n        /* \"#utility.yul\":8078:8081   */\n      0x00\n        /* \"#utility.yul\":8099:8166   */\n      tag_509\n        /* \"#utility.yul\":8163:8165   */\n      0x1f\n        /* \"#utility.yul\":8158:8161   */\n      dup4\n        /* \"#utility.yul\":8099:8166   */\n      tag_405\n      jump\t// in\n    tag_509:\n        /* \"#utility.yul\":8092:8166   */\n      swap2\n      pop\n        /* \"#utility.yul\":8175:8268   */\n      tag_510\n        /* \"#utility.yul\":8264:8267   */\n      dup3\n        /* \"#utility.yul\":8175:8268   */\n      tag_408\n      jump\t// in\n    tag_510:\n        /* \"#utility.yul\":8293:8295   */\n      0x20\n        /* \"#utility.yul\":8288:8291   */\n      dup3\n        /* \"#utility.yul\":8284:8296   */\n      add\n        /* \"#utility.yul\":8277:8296   */\n      swap1\n      pop\n        /* \"#utility.yul\":7936:8302   */\n      swap2\n      swap1\n      pop\n      jump\t// out\n        /* \"#utility.yul\":8308:8727   */\n    tag_194:\n        /* \"#utility.yul\":8474:8478   */\n      0x00\n        /* \"#utility.yul\":8512:8514   */\n      0x20\n        /* \"#utility.yul\":8501:8510   */\n      dup3\n        /* \"#utility.yul\":8497:8515   */\n      add\n        /* \"#utility.yul\":8489:8515   */\n      swap1\n      pop\n        /* \"#utility.yul\":8561:8570   */\n      dup2\n        /* \"#utility.yul\":8555:8559   */\n      dup2\n        /* \"#utility.yul\":8551:8571   */\n      sub\n        /* \"#utility.yul\":8547:8548   */\n      0x00\n        /* \"#utility.yul\":8536:8545   */\n      dup4\n        /* \"#utility.yul\":8532:8549   */\n      add\n        /* \"#utility.yul\":8525:8572   */\n      mstore\n        /* \"#utility.yul\":8589:8720   */\n      tag_512\n        /* \"#utility.yul\":8715:8719   */\n      dup2\n        /* \"#utility.yul\":8589:8720   */\n      tag_409\n      jump\t// in\n    tag_512:\n        /* \"#utility.yul\":8581:8720   */\n      swap1\n      pop\n        /* \"#utility.yul\":8308:8727   */\n      swap2\n      swap1\n      pop\n      jump\t// out\n        /* \"#utility.yul\":8733:9065   */\n    tag_205:\n        /* \"#utility.yul\":8854:8858   */\n      0x00\n        /* \"#utility.yul\":8892:8894   */\n      0x40\n        /* \"#utility.yul\":8881:8890   */\n      dup3\n        /* \"#utility.yul\":8877:8895   */\n      add\n        /* \"#utility.yul\":8869:8895   */\n      swap1\n      pop\n        /* \"#utility.yul\":8905:8976   */\n      tag_514\n        /* \"#utility.yul\":8973:8974   */\n      0x00\n        /* \"#utility.yul\":8962:8971   */\n      dup4\n        /* \"#utility.yul\":8958:8975   */\n      add\n        /* \"#utility.yul\":8949:8955   */\n      dup6\n        /* \"#utility.yul\":8905:8976   */\n      tag_399\n      jump\t// in\n    tag_514:\n        /* \"#utility.yul\":8986:9058   */\n      tag_515\n        /* \"#utility.yul\":9054:9056   */\n      0x20\n        /* \"#utility.yul\":9043:9052   */\n      dup4\n        /* \"#utility.yul\":9039:9057   */\n      add\n        /* \"#utility.yul\":9030:9036   */\n      dup5\n        /* \"#utility.yul\":8986:9058   */\n      tag_392\n      jump\t// in\n    tag_515:\n        /* \"#utility.yul\":8733:9065   */\n      swap4\n      swap3\n      pop\n      pop\n      pop\n      jump\t// out\n        /* \"#utility.yul\":9071:9208   */\n    tag_410:\n        /* \"#utility.yul\":9125:9130   */\n      0x00\n        /* \"#utility.yul\":9156:9162   */\n      dup2\n        /* \"#utility.yul\":9150:9163   */\n      mload\n        /* \"#utility.yul\":9141:9163   */\n      swap1\n      pop\n        /* \"#utility.yul\":9172:9202   */\n      tag_517\n        /* \"#utility.yul\":9196:9201   */\n      dup2\n        /* \"#utility.yul\":9172:9202   */\n      tag_396\n      jump\t// in\n    tag_517:\n        /* \"#utility.yul\":9071:9208   */\n      swap3\n      swap2\n      pop\n      pop\n      jump\t// out\n        /* \"#utility.yul\":9214:9559   */\n    tag_209:\n        /* \"#utility.yul\":9281:9287   */\n      0x00\n        /* \"#utility.yul\":9330:9332   */\n      0x20\n        /* \"#utility.yul\":9318:9327   */\n      dup3\n        /* \"#utility.yul\":9309:9316   */\n      dup5\n        /* \"#utility.yul\":9305:9328   */\n      sub\n        /* \"#utility.yul\":9301:9333   */\n      slt\n        /* \"#utility.yul\":9298:9417   */\n      iszero\n      tag_519\n      jumpi\n        /* \"#utility.yul\":9336:9415   */\n      tag_520\n      tag_385\n      jump\t// in\n    tag_520:\n        /* \"#utility.yul\":9298:9417   */\n    tag_519:\n        /* \"#utility.yul\":9456:9457   */\n      0x00\n        /* \"#utility.yul\":9481:9542   */\n      tag_521\n        /* \"#utility.yul\":9534:9541   */\n      dup5\n        /* \"#utility.yul\":9525:9531   */\n      dup3\n        /* \"#utility.yul\":9514:9523   */\n      dup6\n        /* \"#utility.yul\":9510:9532   */\n      add\n        /* \"#utility.yul\":9481:9542   */\n      tag_410\n      jump\t// in\n    tag_521:\n        /* \"#utility.yul\":9471:9542   */\n      swap2\n      pop\n        /* \"#utility.yul\":9427:9552   */\n      pop\n        /* \"#utility.yul\":9214:9559   */\n      swap3\n      swap2\n      pop\n      pop\n      jump\t// out\n        /* \"#utility.yul\":9565:9786   */\n    tag_411:\n        /* \"#utility.yul\":9705:9739   */\n      0x41646d696e61626c653a2063616c6c6572206973206e6f74207468652061646d\n        /* \"#utility.yul\":9701:9702   */\n      0x00\n        /* \"#utility.yul\":9693:9699   */\n      dup3\n        /* \"#utility.yul\":9689:9703   */\n      add\n        /* \"#utility.yul\":9682:9740   */\n      mstore\n        /* \"#utility.yul\":9774:9778   */\n      0x696e000000000000000000000000000000000000000000000000000000000000\n        /* \"#utility.yul\":9769:9771   */\n      0x20\n        /* \"#utility.yul\":9761:9767   */\n      dup3\n        /* \"#utility.yul\":9757:9772   */\n      add\n        /* \"#utility.yul\":9750:9779   */\n      mstore\n        /* \"#utility.yul\":9565:9786   */\n      pop\n      jump\t// out\n        /* \"#utility.yul\":9792:10158   */\n    tag_412:\n        /* \"#utility.yul\":9934:9937   */\n      0x00\n        /* \"#utility.yul\":9955:10022   */\n      tag_524\n        /* \"#utility.yul\":10019:10021   */\n      0x22\n        /* \"#utility.yul\":10014:10017   */\n      dup4\n        /* \"#utility.yul\":9955:10022   */\n      tag_405\n      jump\t// in\n    tag_524:\n        /* \"#utility.yul\":9948:10022   */\n      swap2\n      pop\n        /* \"#utility.yul\":10031:10124   */\n      tag_525\n        /* \"#utility.yul\":10120:10123   */\n      dup3\n        /* \"#utility.yul\":10031:10124   */\n      tag_411\n      jump\t// in\n    tag_525:\n        /* \"#utility.yul\":10149:10151   */\n      0x40\n        /* \"#utility.yul\":10144:10147   */\n      dup3\n        /* \"#utility.yul\":10140:10152   */\n      add\n        /* \"#utility.yul\":10133:10152   */\n      swap1\n      pop\n        /* \"#utility.yul\":9792:10158   */\n      swap2\n      swap1\n      pop\n      jump\t// out\n        /* \"#utility.yul\":10164:10583   */\n    tag_216:\n        /* \"#utility.yul\":10330:10334   */\n      0x00\n        /* \"#utility.yul\":10368:10370   */\n      0x20\n        /* \"#utility.yul\":10357:10366   */\n      dup3\n        /* \"#utility.yul\":10353:10371   */\n      add\n        /* \"#utility.yul\":10345:10371   */\n      swap1\n      pop\n        /* \"#utility.yul\":10417:10426   */\n      dup2\n        /* \"#utility.yul\":10411:10415   */\n      dup2\n        /* \"#utility.yul\":10407:10427   */\n      sub\n        /* \"#utility.yul\":10403:10404   */\n      0x00\n        /* \"#utility.yul\":10392:10401   */\n      dup4\n        /* \"#utility.yul\":10388:10405   */\n      add\n        /* \"#utility.yul\":10381:10428   */\n      mstore\n        /* \"#utility.yul\":10445:10576   */\n      tag_527\n        /* \"#utility.yul\":10571:10575   */\n      dup2\n        /* \"#utility.yul\":10445:10576   */\n      tag_412\n      jump\t// in\n    tag_527:\n        /* \"#utility.yul\":10437:10576   */\n      swap1\n      pop\n        /* \"#utility.yul\":10164:10583   */\n      swap2\n      swap1\n      pop\n      jump\t// out\n        /* \"#utility.yul\":10589:10769   */\n    tag_413:\n        /* \"#utility.yul\":10637:10714   */\n      0x4e487b7100000000000000000000000000000000000000000000000000000000\n        /* \"#utility.yul\":10634:10635   */\n      0x00\n        /* \"#utility.yul\":10627:10715   */\n      mstore\n        /* \"#utility.yul\":10734:10738   */\n      0x11\n        /* \"#utility.yul\":10731:10732   */\n      0x04\n        /* \"#utility.yul\":10724:10739   */\n      mstore\n        /* \"#utility.yul\":10758:10762   */\n      0x24\n        /* \"#utility.yul\":10755:10756   */\n      0x00\n        /* \"#utility.yul\":10748:10763   */\n      revert\n        /* \"#utility.yul\":10775:10969   */\n    tag_221:\n        /* \"#utility.yul\":10815:10819   */\n      0x00\n        /* \"#utility.yul\":10835:10855   */\n      tag_530\n        /* \"#utility.yul\":10853:10854   */\n      dup3\n        /* \"#utility.yul\":10835:10855   */\n      tag_391\n      jump\t// in\n    tag_530:\n        /* \"#utility.yul\":10830:10855   */\n      swap2\n      pop\n        /* \"#utility.yul\":10869:10889   */\n      tag_531\n        /* \"#utility.yul\":10887:10888   */\n      dup4\n        /* \"#utility.yul\":10869:10889   */\n      tag_391\n      jump\t// in\n    tag_531:\n        /* \"#utility.yul\":10864:10889   */\n      swap3\n      pop\n        /* \"#utility.yul\":10913:10914   */\n      dup3\n        /* \"#utility.yul\":10910:10911   */\n      dup3\n        /* \"#utility.yul\":10906:10915   */\n      sub\n        /* \"#utility.yul\":10898:10915   */\n      swap1\n      pop\n        /* \"#utility.yul\":10937:10938   */\n      dup2\n        /* \"#utility.yul\":10931:10935   */\n      dup2\n        /* \"#utility.yul\":10928:10939   */\n      gt\n        /* \"#utility.yul\":10925:10962   */\n      iszero\n      tag_532\n      jumpi\n        /* \"#utility.yul\":10942:10960   */\n      tag_533\n      tag_413\n      jump\t// in\n    tag_533:\n        /* \"#utility.yul\":10925:10962   */\n    tag_532:\n        /* \"#utility.yul\":10775:10969   */\n      swap3\n      swap2\n      pop\n      pop\n      jump\t// out\n        /* \"#utility.yul\":10975:11155   */\n    tag_414:\n        /* \"#utility.yul\":11023:11100   */\n      0x4e487b7100000000000000000000000000000000000000000000000000000000\n        /* \"#utility.yul\":11020:11021   */\n      0x00\n        /* \"#utility.yul\":11013:11101   */\n      mstore\n        /* \"#utility.yul\":11120:11124   */\n      0x12\n        /* \"#utility.yul\":11117:11118   */\n      0x04\n        /* \"#utility.yul\":11110:11125   */\n      mstore\n        /* \"#utility.yul\":11144:11148   */\n      0x24\n        /* \"#utility.yul\":11141:11142   */\n      0x00\n        /* \"#utility.yul\":11134:11149   */\n      revert\n        /* \"#utility.yul\":11161:11346   */\n    tag_223:\n        /* \"#utility.yul\":11201:11202   */\n      0x00\n        /* \"#utility.yul\":11218:11238   */\n      tag_536\n        /* \"#utility.yul\":11236:11237   */\n      dup3\n        /* \"#utility.yul\":11218:11238   */\n      tag_391\n      jump\t// in\n    tag_536:\n        /* \"#utility.yul\":11213:11238   */\n      swap2\n      pop\n        /* \"#utility.yul\":11252:11272   */\n      tag_537\n        /* \"#utility.yul\":11270:11271   */\n      dup4\n        /* \"#utility.yul\":11252:11272   */\n      tag_391\n      jump\t// in\n    tag_537:\n        /* \"#utility.yul\":11247:11272   */\n      swap3\n      pop\n        /* \"#utility.yul\":11291:11292   */\n      dup3\n        /* \"#utility.yul\":11281:11316   */\n      tag_538\n      jumpi\n        /* \"#utility.yul\":11296:11314   */\n      tag_539\n      tag_414\n      jump\t// in\n    tag_539:\n        /* \"#utility.yul\":11281:11316   */\n    tag_538:\n        /* \"#utility.yul\":11338:11339   */\n      dup3\n        /* \"#utility.yul\":11335:11336   */\n      dup3\n        /* \"#utility.yul\":11331:11340   */\n      div\n        /* \"#utility.yul\":11326:11340   */\n      swap1\n      pop\n        /* \"#utility.yul\":11161:11346   */\n      swap3\n      swap2\n      pop\n      pop\n      jump\t// out\n        /* \"#utility.yul\":11352:11543   */\n    tag_225:\n        /* \"#utility.yul\":11392:11395   */\n      0x00\n        /* \"#utility.yul\":11411:11431   */\n      tag_541\n        /* \"#utility.yul\":11429:11430   */\n      dup3\n        /* \"#utility.yul\":11411:11431   */\n      tag_391\n      jump\t// in\n    tag_541:\n        /* \"#utility.yul\":11406:11431   */\n      swap2\n      pop\n        /* \"#utility.yul\":11445:11465   */\n      tag_542\n        /* \"#utility.yul\":11463:11464   */\n      dup4\n        /* \"#utility.yul\":11445:11465   */\n      tag_391\n      jump\t// in\n    tag_542:\n        /* \"#utility.yul\":11440:11465   */\n      swap3\n      pop\n        /* \"#utility.yul\":11488:11489   */\n      dup3\n        /* \"#utility.yul\":11485:11486   */\n      dup3\n        /* \"#utility.yul\":11481:11490   */\n      add\n        /* \"#utility.yul\":11474:11490   */\n      swap1\n      pop\n        /* \"#utility.yul\":11509:11512   */\n      dup1\n        /* \"#utility.yul\":11506:11507   */\n      dup3\n        /* \"#utility.yul\":11503:11513   */\n      gt\n        /* \"#utility.yul\":11500:11536   */\n      iszero\n      tag_543\n      jumpi\n        /* \"#utility.yul\":11516:11534   */\n      tag_544\n      tag_413\n      jump\t// in\n    tag_544:\n        /* \"#utility.yul\":11500:11536   */\n    tag_543:\n        /* \"#utility.yul\":11352:11543   */\n      swap3\n      swap2\n      pop\n      pop\n      jump\t// out\n        /* \"#utility.yul\":11549:11959   */\n    tag_230:\n        /* \"#utility.yul\":11589:11596   */\n      0x00\n        /* \"#utility.yul\":11612:11632   */\n      tag_546\n        /* \"#utility.yul\":11630:11631   */\n      dup3\n        /* \"#utility.yul\":11612:11632   */\n      tag_391\n      jump\t// in\n    tag_546:\n        /* \"#utility.yul\":11607:11632   */\n      swap2\n      pop\n        /* \"#utility.yul\":11646:11666   */\n      tag_547\n        /* \"#utility.yul\":11664:11665   */\n      dup4\n        /* \"#utility.yul\":11646:11666   */\n      tag_391\n      jump\t// in\n    tag_547:\n        /* \"#utility.yul\":11641:11666   */\n      swap3\n      pop\n        /* \"#utility.yul\":11701:11702   */\n      dup3\n        /* \"#utility.yul\":11698:11699   */\n      dup3\n        /* \"#utility.yul\":11694:11703   */\n      mul\n        /* \"#utility.yul\":11723:11753   */\n      tag_548\n        /* \"#utility.yul\":11741:11752   */\n      dup2\n        /* \"#utility.yul\":11723:11753   */\n      tag_391\n      jump\t// in\n    tag_548:\n        /* \"#utility.yul\":11712:11753   */\n      swap2\n      pop\n        /* \"#utility.yul\":11902:11903   */\n      dup3\n        /* \"#utility.yul\":11893:11900   */\n      dup3\n        /* \"#utility.yul\":11889:11904   */\n      div\n        /* \"#utility.yul\":11886:11887   */\n      dup5\n        /* \"#utility.yul\":11883:11905   */\n      eq\n        /* \"#utility.yul\":11863:11864   */\n      dup4\n        /* \"#utility.yul\":11856:11865   */\n      iszero\n        /* \"#utility.yul\":11836:11919   */\n      or\n        /* \"#utility.yul\":11813:11952   */\n      tag_549\n      jumpi\n        /* \"#utility.yul\":11932:11950   */\n      tag_550\n      tag_413\n      jump\t// in\n    tag_550:\n        /* \"#utility.yul\":11813:11952   */\n    tag_549:\n        /* \"#utility.yul\":11597:11959   */\n      pop\n        /* \"#utility.yul\":11549:11959   */\n      swap3\n      swap2\n      pop\n      pop\n      jump\t// out\n        /* \"#utility.yul\":11965:12198   */\n    tag_234:\n        /* \"#utility.yul\":12004:12007   */\n      0x00\n        /* \"#utility.yul\":12027:12051   */\n      tag_552\n        /* \"#utility.yul\":12045:12050   */\n      dup3\n        /* \"#utility.yul\":12027:12051   */\n      tag_391\n      jump\t// in\n    tag_552:\n        /* \"#utility.yul\":12018:12051   */\n      swap2\n      pop\n        /* \"#utility.yul\":12073:12139   */\n      0xffffffffffffffffffffffffffffffffffffffffffffffffffffffffffffffff\n        /* \"#utility.yul\":12066:12071   */\n      dup3\n        /* \"#utility.yul\":12063:12140   */\n      sub\n        /* \"#utility.yul\":12060:12163   */\n      tag_553\n      jumpi\n        /* \"#utility.yul\":12143:12161   */\n      tag_554\n      tag_413\n      jump\t// in\n    tag_554:\n        /* \"#utility.yul\":12060:12163   */\n    tag_553:\n        /* \"#utility.yul\":12190:12191   */\n      0x01\n        /* \"#utility.yul\":12183:12188   */\n      dup3\n        /* \"#utility.yul\":12179:12192   */\n      add\n        /* \"#utility.yul\":12172:12192   */\n      swap1\n      pop\n        /* \"#utility.yul\":11965:12198   */\n      swap2\n      swap1\n      pop\n      jump\t// out\n        /* \"#utility.yul\":12204:12368   */\n    tag_415:\n        /* \"#utility.yul\":12344:12360   */\n      0x43616e6e6f74207374616b652030000000000000000000000000000000000000\n        /* \"#utility.yul\":12340:12341   */\n      0x00\n        /* \"#utility.yul\":12332:12338   */\n      dup3\n        /* \"#utility.yul\":12328:12342   */\n      add\n        /* \"#utility.yul\":12321:12361   */\n      mstore\n        /* \"#utility.yul\":12204:12368   */\n      pop\n      jump\t// out\n        /* \"#utility.yul\":12374:12740   */\n    tag_416:\n        /* \"#utility.yul\":12516:12519   */\n      0x00\n        /* \"#utility.yul\":12537:12604   */\n      tag_557\n        /* \"#utility.yul\":12601:12603   */\n      0x0e\n        /* \"#utility.yul\":12596:12599   */\n      dup4\n        /* \"#utility.yul\":12537:12604   */\n      tag_405\n      jump\t// in\n    tag_557:\n        /* \"#utility.yul\":12530:12604   */\n      swap2\n      pop\n        /* \"#utility.yul\":12613:12706   */\n      tag_558\n        /* \"#utility.yul\":12702:12705   */\n      dup3\n        /* \"#utility.yul\":12613:12706   */\n      tag_415\n      jump\t// in\n    tag_558:\n        /* \"#utility.yul\":12731:12733   */\n      0x20\n        /* \"#utility.yul\":12726:12729   */\n      dup3\n        /* \"#utility.yul\":12722:12734   */\n      add\n        /* \"#utility.yul\":12715:12734   */\n      swap1\n      pop\n        /* \"#utility.yul\":12374:12740   */\n      swap2\n      swap1\n      pop\n      jump\t// out\n        /* \"#utility.yul\":12746:13165   */\n    tag_306:\n        /* \"#utility.yul\":12912:12916   */\n      0x00\n        /* \"#utility.yul\":12950:12952   */\n      0x20\n        /* \"#utility.yul\":12939:12948   */\n      dup3\n        /* \"#utility.yul\":12935:12953   */\n      add\n        /* \"#utility.yul\":12927:12953   */\n      swap1\n      pop\n        /* \"#utility.yul\":12999:13008   */\n      dup2\n        /* \"#utility.yul\":12993:12997   */\n      dup2\n        /* \"#utility.yul\":12989:13009   */\n      sub\n        /* \"#utility.yul\":12985:12986   */\n      0x00\n        /* \"#utility.yul\":12974:12983   */\n      dup4\n        /* \"#utility.yul\":12970:12987   */\n      add\n        /* \"#utility.yul\":12963:13010   */\n      mstore\n        /* \"#utility.yul\":13027:13158   */\n      tag_560\n        /* \"#utility.yul\":13153:13157   */\n      dup2\n        /* \"#utility.yul\":13027:13158   */\n      tag_416\n      jump\t// in\n    tag_560:\n        /* \"#utility.yul\":13019:13158   */\n      swap1\n      pop\n        /* \"#utility.yul\":12746:13165   */\n      swap2\n      swap1\n      pop\n      jump\t// out\n        /* \"#utility.yul\":13171:13347   */\n    tag_321:\n        /* \"#utility.yul\":13203:13204   */\n      0x00\n        /* \"#utility.yul\":13220:13240   */\n      tag_562\n        /* \"#utility.yul\":13238:13239   */\n      dup3\n        /* \"#utility.yul\":13220:13240   */\n      tag_391\n      jump\t// in\n    tag_562:\n        /* \"#utility.yul\":13215:13240   */\n      swap2\n      pop\n        /* \"#utility.yul\":13254:13274   */\n      tag_563\n        /* \"#utility.yul\":13272:13273   */\n      dup4\n        /* \"#utility.yul\":13254:13274   */\n      tag_391\n      jump\t// in\n    tag_563:\n        /* \"#utility.yul\":13249:13274   */\n      swap3\n      pop\n        /* \"#utility.yul\":13293:13294   */\n      dup3\n        /* \"#utility.yul\":13283:13318   */\n      tag_564\n      jumpi\n        /* \"#utility.yul\":13298:13316   */\n      tag_565\n      tag_414\n      jump\t// in\n    tag_565:\n        /* \"#utility.yul\":13283:13318   */\n    tag_564:\n        /* \"#utility.yul\":13339:13340   */\n      dup3\n        /* \"#utility.yul\":13336:13337   */\n      dup3\n        /* \"#utility.yul\":13332:13341   */\n      mod\n        /* \"#utility.yul\":13327:13341   */\n      swap1\n      pop\n        /* \"#utility.yul\":13171:13347   */\n      swap3\n      swap2\n      pop\n      pop\n      jump\t// out\n        /* \"#utility.yul\":13353:13578   */\n    tag_417:\n        /* \"#utility.yul\":13493:13527   */\n      0x4f776e61626c653a206e6577206f776e657220697320746865207a65726f2061\n        /* \"#utility.yul\":13489:13490   */\n      0x00\n        /* \"#utility.yul\":13481:13487   */\n      dup3\n        /* \"#utility.yul\":13477:13491   */\n      add\n        /* \"#utility.yul\":13470:13528   */\n      mstore\n        /* \"#utility.yul\":13562:13570   */\n      0x6464726573730000000000000000000000000000000000000000000000000000\n        /* \"#utility.yul\":13557:13559   */\n      0x20\n        /* \"#utility.yul\":13549:13555   */\n      dup3\n        /* \"#utility.yul\":13545:13560   */\n      add\n        /* \"#utility.yul\":13538:13571   */\n      mstore\n        /* \"#utility.yul\":13353:13578   */\n      pop\n      jump\t// out\n        /* \"#utility.yul\":13584:13950   */\n    tag_418:\n        /* \"#utility.yul\":13726:13729   */\n      0x00\n        /* \"#utility.yul\":13747:13814   */\n      tag_568\n        /* \"#utility.yul\":13811:13813   */\n      0x26\n        /* \"#utility.yul\":13806:13809   */\n      dup4\n        /* \"#utility.yul\":13747:13814   */\n      tag_405\n      jump\t// in\n    tag_568:\n        /* \"#utility.yul\":13740:13814   */\n      swap2\n      pop\n        /* \"#utility.yul\":13823:13916   */\n      tag_569\n        /* \"#utility.yul\":13912:13915   */\n      dup3\n        /* \"#utility.yul\":13823:13916   */\n      tag_417\n      jump\t// in\n    tag_569:\n        /* \"#utility.yul\":13941:13943   */\n      0x40\n        /* \"#utility.yul\":13936:13939   */\n      dup3\n        /* \"#utility.yul\":13932:13944   */\n      add\n        /* \"#utility.yul\":13925:13944   */\n      swap1\n      pop\n        /* \"#utility.yul\":13584:13950   */\n      swap2\n      swap1\n      pop\n      jump\t// out\n        /* \"#utility.yul\":13956:14375   */\n    tag_369:\n        /* \"#utility.yul\":14122:14126   */\n      0x00\n        /* \"#utility.yul\":14160:14162   */\n      0x20\n        /* \"#utility.yul\":14149:14158   */\n      dup3\n        /* \"#utility.yul\":14145:14163   */\n      add\n        /* \"#utility.yul\":14137:14163   */\n      swap1\n      pop\n        /* \"#utility.yul\":14209:14218   */\n      dup2\n        /* \"#utility.yul\":14203:14207   */\n      dup2\n        /* \"#utility.yul\":14199:14219   */\n      sub\n        /* \"#utility.yul\":14195:14196   */\n      0x00\n        /* \"#utility.yul\":14184:14193   */\n      dup4\n        /* \"#utility.yul\":14180:14197   */\n      add\n        /* \"#utility.yul\":14173:14220   */\n      mstore\n        /* \"#utility.yul\":14237:14368   */\n      tag_571\n        /* \"#utility.yul\":14363:14367   */\n      dup2\n        /* \"#utility.yul\":14237:14368   */\n      tag_418\n      jump\t// in\n    tag_571:\n        /* \"#utility.yul\":14229:14368   */\n      swap1\n      pop\n        /* \"#utility.yul\":13956:14375   */\n      swap2\n      swap1\n      pop\n      jump\t// out\n\n    auxdata: 0xa26469706673582212205551cfb99e92733bfbbb27c885169177a61d7f27e6a97571b9ee9ab9d6071caa64736f6c63430008110033\n}\n",
				"bytecode": {
					"linkReferences": {},
					"object": "60806040526923934c5a09da1900000060055561025860075560056008556103e860095534801561002f57600080fd5b5061004c61004161005960201b60201c565b61006160201b60201c565b6001600281905550610127565b600033905090565b6000600160009054906101000a900473ffffffffffffffffffffffffffffffffffffffff16905081600160006101000a81548173ffffffffffffffffffffffffffffffffffffffff021916908373ffffffffffffffffffffffffffffffffffffffff1602179055508173ffffffffffffffffffffffffffffffffffffffff168173ffffffffffffffffffffffffffffffffffffffff167f8be0079c531659141344cd1fd0a4f28419497f9722a3daafe3b4186f6b6457e060405160405180910390a35050565b61243e80620001376000396000f3fe608060405234801561001057600080fd5b50600436106102055760003560e01c80638107368b1161011a578063adc9772e116100ad578063d1af0c7d1161007c578063d1af0c7d146105de578063da4f8431146105fc578063db2e21bc1461062c578063df136d6514610636578063f2fde38b1461065457610205565b8063adc9772e14610556578063b79ec81214610572578063c8f33c91146105a2578063cdda56e0146105c057610205565b80638da5cb5b116100e95780638da5cb5b146104e05780639499c549146104fe5780639a5b17b01461051c578063a4c3b0911461053a57610205565b80638107368b14610434578063874c120b146104645780638aee8127146104945780638b876347146104b057610205565b80633e0a322d1161019d5780636917c5011161016c5780636917c501146103b2578063715018a6146103d057806378e97925146103da5780637a6fcee7146103f857806380faa57d1461041657610205565b80633e0a322d146103185780634dbdc4eb146103345780635cfa91f4146103645780636139d4b41461039457610205565b806318e20ecf116101d957806318e20ecf146102a457806324d7806c146102c05780633c4045cf146102f05780633d18b9121461030e57610205565b80628cc2621461020a5780630700037d1461023a5780630e15561a1461026a578063129ee21a14610288575b600080fd5b610224600480360381019061021f9190611c50565b610670565b6040516102319190611c96565b60405180910390f35b610254600480360381019061024f9190611c50565b6107dc565b6040516102619190611c96565b60405180910390f35b6102726107f4565b60405161027f9190611c96565b60405180910390f35b6102a2600480360381019061029d9190611cdd565b6107fa565b005b6102be60048036038101906102b99190611d68565b610890565b005b6102da60048036038101906102d59190611c50565b610a01565b6040516102e79190611db7565b60405180910390f35b6102f8610a56565b6040516103059190611c96565b60405180910390f35b610316610a5c565b005b610332600480360381019061032d9190611dd2565b610dc1565b005b61034e60048036038101906103499190611dd2565b610e1a565b60405161035b9190611c96565b60405180910390f35b61037e60048036038101906103799190611dd2565b610eb1565b60405161038b9190611c96565b60405180910390f35b61039c610f83565b6040516103a99190611c96565b60405180910390f35b6103ba610f89565b6040516103c79190611c96565b60405180910390f35b6103d8610f93565b005b6103e261101b565b6040516103ef9190611c96565b60405180910390f35b610400611021565b60405161040d9190611c96565b60405180910390f35b61041e611027565b60405161042b9190611c96565b60405180910390f35b61044e60048036038101906104499190611c50565b61102f565b60405161045b9190611c96565b60405180910390f35b61047e60048036038101906104799190611dd2565b611047565b60405161048b9190611c96565b60405180910390f35b6104ae60048036038101906104a99190611c50565b6110d4565b005b6104ca60048036038101906104c59190611c50565b611194565b6040516104d79190611c96565b60405180910390f35b6104e86111ac565b6040516104f59190611e0e565b60405180910390f35b6105066111d6565b6040516105139190611c96565b60405180910390f35b6105246111e6565b6040516105319190611c96565b60405180910390f35b610554600480360381019061054f9190611e29565b6111ee565b005b610570600480360381019061056b9190611e29565b6112ed565b005b61058c60048036038101906105879190611c50565b611661565b6040516105999190611c96565b60405180910390f35b6105aa6116aa565b6040516105b79190611c96565b60405180910390f35b6105c86116b0565b6040516105d59190611c96565b60405180910390f35b6105e66116c0565b6040516105f39190611ec8565b60405180910390f35b61061660048036038101906106119190611ee3565b6116e6565b6040516106239190611c96565b60405180910390f35b6106346118cd565b005b61063e611999565b60405161064b9190611c96565b60405180910390f35b61066e60048036038101906106699190611c50565b61199f565b005b6000806106bc600d60008573ffffffffffffffffffffffffffffffffffffffff1673ffffffffffffffffffffffffffffffffffffffff16815260200190815260200160002054426116e6565b90506107d4600460008573ffffffffffffffffffffffffffffffffffffffff1673ffffffffffffffffffffffffffffffffffffffff168152602001908152602001600020546107c6670de0b6b3a76400006107b861076a600c60008a73ffffffffffffffffffffffffffffffffffffffff1673ffffffffffffffffffffffffffffffffffffffff1681526020019081526020016000205461075c88611047565b611a9690919063ffffffff16565b600f60008a73ffffffffffffffffffffffffffffffffffffffff1673ffffffffffffffffffffffffffffffffffffffff16815260200190815260200160002054611aac90919063ffffffff16565b611ac290919063ffffffff16565b611ad890919063ffffffff16565b915050919050565b60046020528060005260406000206000915090505481565b60055481565b610802611aee565b73ffffffffffffffffffffffffffffffffffffffff166108206111ac565b73ffffffffffffffffffffffffffffffffffffffff1614610876576040517f08c379a000000000000000000000000000000000000000000000000000000000815260040161086d90611fa6565b60405180910390fd5b826007819055508160088190555080600981905550505050565b610898611aee565b73ffffffffffffffffffffffffffffffffffffffff166108b66111ac565b73ffffffffffffffffffffffffffffffffffffffff161461090c576040517f08c379a000000000000000000000000000000000000000000000000000000000815260040161090390611fa6565b60405180910390fd5b8173ffffffffffffffffffffffffffffffffffffffff167f82f1fa40a3d82dea3e406073819290601f436580aa7c69f9feb61f885bdd88546000808573ffffffffffffffffffffffffffffffffffffffff1673ffffffffffffffffffffffffffffffffffffffff16815260200190815260200160002060009054906101000a900460ff168360405161099f929190611fc6565b60405180910390a2806000808473ffffffffffffffffffffffffffffffffffffffff1673ffffffffffffffffffffffffffffffffffffffff16815260200190815260200160002060006101000a81548160ff0219169083151502179055505050565b60008060008373ffffffffffffffffffffffffffffffffffffffff1673ffffffffffffffffffffffffffffffffffffffff16815260200190815260200160002060009054906101000a900460ff169050919050565b60085481565b6002805403610aa0576040517f08c379a0000000000000000000000000000000000000000000000000000000008152600401610a979061203b565b60405180910390fd5b60028081905550336000600d60008373ffffffffffffffffffffffffffffffffffffffff1673ffffffffffffffffffffffffffffffffffffffff1681526020019081526020016000205490506006548111610afb5760065490505b6000610b0782426116e6565b9050610b1281611047565b600b81905550610b20611027565b600a81905550600073ffffffffffffffffffffffffffffffffffffffff168373ffffffffffffffffffffffffffffffffffffffff1614610c3157610b6383610670565b600460008573ffffffffffffffffffffffffffffffffffffffff1673ffffffffffffffffffffffffffffffffffffffff16815260200190815260200160002081905550600b54600c60008573ffffffffffffffffffffffffffffffffffffffff1673ffffffffffffffffffffffffffffffffffffffff1681526020019081526020016000208190555042600d60008573ffffffffffffffffffffffffffffffffffffffff1673ffffffffffffffffffffffffffffffffffffffff168152602001908152602001600020819055505b6000600460003373ffffffffffffffffffffffffffffffffffffffff1673ffffffffffffffffffffffffffffffffffffffff1681526020019081526020016000205490506000811115610db3576000600460003373ffffffffffffffffffffffffffffffffffffffff1673ffffffffffffffffffffffffffffffffffffffff16815260200190815260200160002081905550600360009054906101000a900473ffffffffffffffffffffffffffffffffffffffff1673ffffffffffffffffffffffffffffffffffffffff1663a9059cbb33836040518363ffffffff1660e01b8152600401610d2092919061205b565b6020604051808303816000875af1158015610d3f573d6000803e3d6000fd5b505050506040513d601f19601f82011682018060405250810190610d639190612099565b503373ffffffffffffffffffffffffffffffffffffffff167fe2403640ba68fed3a2f88b7557551d1993f84b99bb10ff833f0cf8db0c5e048682604051610daa9190611c96565b60405180910390a25b505050506001600281905550565b610dd1610dcc611aee565b610a01565b610e10576040517f08c379a0000000000000000000000000000000000000000000000000000000008152600401610e0790612138565b60405180910390fd5b8060068190555050565b60008060065403610e2f576006549050610eac565b6000600160075460065485610e449190612187565b610e4e91906121ea565b610e58919061221b565b90506000600554905060005b82811015610ea55760095460085483610e7d919061224f565b610e8791906121ea565b82610e929190612187565b915080610e9e90612291565b9050610e64565b5080925050505b919050565b60008060065403610ec6576005549050610f7e565b600654821015610ed95760009050610f7e565b6000600160075460065485610eee9190612187565b610ef891906121ea565b610f02919061221b565b90506000600554905060005b82811015610f4f5760095460085483610f27919061224f565b610f3191906121ea565b82610f3c9190612187565b915080610f4890612291565b9050610f0e565b50610f79600954610f6b60085484611aac90919063ffffffff16565b611ac290919063ffffffff16565b925050505b919050565b60075481565b6000600e54905090565b610f9b611aee565b73ffffffffffffffffffffffffffffffffffffffff16610fb96111ac565b73ffffffffffffffffffffffffffffffffffffffff161461100f576040517f08c379a000000000000000000000000000000000000000000000000000000000815260040161100690611fa6565b60405180910390fd5b6110196000611af6565b565b60065481565b60095481565b600042905090565b600d6020528060005260406000206000915090505481565b600080600e540361105c57600b5490506110cf565b6110cc6110bb600e546110ad670de0b6b3a764000061109f87611091600a54611083611027565b611a9690919063ffffffff16565b611aac90919063ffffffff16565b611aac90919063ffffffff16565b611ac290919063ffffffff16565b600b54611ad890919063ffffffff16565b90505b919050565b6110dc611aee565b73ffffffffffffffffffffffffffffffffffffffff166110fa6111ac565b73ffffffffffffffffffffffffffffffffffffffff1614611150576040517f08c379a000000000000000000000000000000000000000000000000000000000815260040161114790611fa6565b60405180910390fd5b80600360006101000a81548173ffffffffffffffffffffffffffffffffffffffff021916908373ffffffffffffffffffffffffffffffffffffffff16021790555050565b600c6020528060005260406000206000915090505481565b6000600160009054906101000a900473ffffffffffffffffffffffffffffffffffffffff16905090565b60006111e142610eb1565b905090565b600042905090565b6111f6611aee565b73ffffffffffffffffffffffffffffffffffffffff166112146111ac565b73ffffffffffffffffffffffffffffffffffffffff161461126a576040517f08c379a000000000000000000000000000000000000000000000000000000000815260040161126190611fa6565b60405180910390fd5b8173ffffffffffffffffffffffffffffffffffffffff1663a9059cbb33836040518363ffffffff1660e01b81526004016112a592919061205b565b6020604051808303816000875af11580156112c4573d6000803e3d6000fd5b505050506040513d601f19601f820116820180604052508101906112e89190612099565b505050565b6002805403611331576040517f08c379a00000000000000000000000000000000000000000000000000000000081526004016113289061203b565b60405180910390fd5b60028081905550611348611343611aee565b610a01565b611387576040517f08c379a000000000000000000000000000000000000000000000000000000000815260040161137e90612138565b60405180910390fd5b816000600d60008373ffffffffffffffffffffffffffffffffffffffff1673ffffffffffffffffffffffffffffffffffffffff16815260200190815260200160002054905060065481116113db5760065490505b60006113e782426116e6565b90506113f281611047565b600b81905550611400611027565b600a81905550600073ffffffffffffffffffffffffffffffffffffffff168373ffffffffffffffffffffffffffffffffffffffff16146115115761144383610670565b600460008573ffffffffffffffffffffffffffffffffffffffff1673ffffffffffffffffffffffffffffffffffffffff16815260200190815260200160002081905550600b54600c60008573ffffffffffffffffffffffffffffffffffffffff1673ffffffffffffffffffffffffffffffffffffffff1681526020019081526020016000208190555042600d60008573ffffffffffffffffffffffffffffffffffffffff1673ffffffffffffffffffffffffffffffffffffffff168152602001908152602001600020819055505b60008411611554576040517f08c379a000000000000000000000000000000000000000000000000000000000815260040161154b90612325565b60405180910390fd5b61156984600e54611ad890919063ffffffff16565b600e819055506115c184600f60008873ffffffffffffffffffffffffffffffffffffffff1673ffffffffffffffffffffffffffffffffffffffff16815260200190815260200160002054611ad890919063ffffffff16565b600f60008773ffffffffffffffffffffffffffffffffffffffff1673ffffffffffffffffffffffffffffffffffffffff168152602001908152602001600020819055508473ffffffffffffffffffffffffffffffffffffffff167f9e71bc8eea02a63969f509818f2dafb9254532904319f9dbda79b67bd34a5f3d8560405161164a9190611c96565b60405180910390a250505060016002819055505050565b6000600f60008373ffffffffffffffffffffffffffffffffffffffff1673ffffffffffffffffffffffffffffffffffffffff168152602001908152602001600020549050919050565b600a5481565b60006116bb42611bbc565b905090565b600360009054906101000a900473ffffffffffffffffffffffffffffffffffffffff1681565b60008060065414806116f85750818310155b806117035750600083145b1561171157600090506118c7565b6006548310156117215760065492505b6000600754600754600654866117379190612187565b6117419190612345565b60075461174e9190612187565b6117589190612345565b905060006007548261176987610eb1565b611773919061224f565b61177d91906121ea565b90506000600754600654866117929190612187565b61179c9190612345565b90506000600754826117ad88610eb1565b6117b7919061224f565b6117c191906121ea565b90508584886117d0919061221b565b11156117ea576117df87611bbc565b9450505050506118c7565b6000848884896117fa9190612187565b6118049190612187565b61180e9190612187565b9050600061181b89610e1a565b9050600080600083905060006007548661183591906121ea565b905060005b8181101561188c5760095460085484611853919061224f565b61185d91906121ea565b9350838361186b9190612187565b92508385611879919061221b565b94508061188590612291565b905061183a565b508c8c6118999190612187565b878a866118a6919061221b565b6118b0919061221b565b6118ba91906121ea565b9a50505050505050505050505b92915050565b6118d5611aee565b73ffffffffffffffffffffffffffffffffffffffff166118f36111ac565b73ffffffffffffffffffffffffffffffffffffffff1614611949576040517f08c379a000000000000000000000000000000000000000000000000000000000815260040161194090611fa6565b60405180910390fd5b6119516111ac565b73ffffffffffffffffffffffffffffffffffffffff166108fc479081150290604051600060405180830381858888f19350505050158015611996573d6000803e3d6000fd5b50565b600b5481565b6119a7611aee565b73ffffffffffffffffffffffffffffffffffffffff166119c56111ac565b73ffffffffffffffffffffffffffffffffffffffff1614611a1b576040517f08c379a0000000000000000000000000000000000000000000000000000000008152600401611a1290611fa6565b60405180910390fd5b600073ffffffffffffffffffffffffffffffffffffffff168173ffffffffffffffffffffffffffffffffffffffff1603611a8a576040517f08c379a0000000000000000000000000000000000000000000000000000000008152600401611a81906123e8565b60405180910390fd5b611a9381611af6565b50565b60008183611aa49190612187565b905092915050565b60008183611aba919061224f565b905092915050565b60008183611ad091906121ea565b905092915050565b60008183611ae6919061221b565b905092915050565b600033905090565b6000600160009054906101000a900473ffffffffffffffffffffffffffffffffffffffff16905081600160006101000a81548173ffffffffffffffffffffffffffffffffffffffff021916908373ffffffffffffffffffffffffffffffffffffffff1602179055508173ffffffffffffffffffffffffffffffffffffffff168173ffffffffffffffffffffffffffffffffffffffff167f8be0079c531659141344cd1fd0a4f28419497f9722a3daafe3b4186f6b6457e060405160405180910390a35050565b600080611bc883610eb1565b90506000611be160075483611ac290919063ffffffff16565b90508092505050919050565b600080fd5b600073ffffffffffffffffffffffffffffffffffffffff82169050919050565b6000611c1d82611bf2565b9050919050565b611c2d81611c12565b8114611c3857600080fd5b50565b600081359050611c4a81611c24565b92915050565b600060208284031215611c6657611c65611bed565b5b6000611c7484828501611c3b565b91505092915050565b6000819050919050565b611c9081611c7d565b82525050565b6000602082019050611cab6000830184611c87565b92915050565b611cba81611c7d565b8114611cc557600080fd5b50565b600081359050611cd781611cb1565b92915050565b600080600060608486031215611cf657611cf5611bed565b5b6000611d0486828701611cc8565b9350506020611d1586828701611cc8565b9250506040611d2686828701611cc8565b9150509250925092565b60008115159050919050565b611d4581611d30565b8114611d5057600080fd5b50565b600081359050611d6281611d3c565b92915050565b60008060408385031215611d7f57611d7e611bed565b5b6000611d8d85828601611c3b565b9250506020611d9e85828601611d53565b9150509250929050565b611db181611d30565b82525050565b6000602082019050611dcc6000830184611da8565b92915050565b600060208284031215611de857611de7611bed565b5b6000611df684828501611cc8565b91505092915050565b611e0881611c12565b82525050565b6000602082019050611e236000830184611dff565b92915050565b60008060408385031215611e4057611e3f611bed565b5b6000611e4e85828601611c3b565b9250506020611e5f85828601611cc8565b9150509250929050565b6000819050919050565b6000611e8e611e89611e8484611bf2565b611e69565b611bf2565b9050919050565b6000611ea082611e73565b9050919050565b6000611eb282611e95565b9050919050565b611ec281611ea7565b82525050565b6000602082019050611edd6000830184611eb9565b92915050565b60008060408385031215611efa57611ef9611bed565b5b6000611f0885828601611cc8565b9250506020611f1985828601611cc8565b9150509250929050565b600082825260208201905092915050565b7f41646d696e61626c653a2063616c6c6572206973206e6f7420746865206f776e60008201527f6572000000000000000000000000000000000000000000000000000000000000602082015250565b6000611f90602283611f23565b9150611f9b82611f34565b604082019050919050565b60006020820190508181036000830152611fbf81611f83565b9050919050565b6000604082019050611fdb6000830185611da8565b611fe86020830184611da8565b9392505050565b7f5265656e7472616e637947756172643a207265656e7472616e742063616c6c00600082015250565b6000612025601f83611f23565b915061203082611fef565b602082019050919050565b6000602082019050818103600083015261205481612018565b9050919050565b60006040820190506120706000830185611dff565b61207d6020830184611c87565b9392505050565b60008151905061209381611d3c565b92915050565b6000602082840312156120af576120ae611bed565b5b60006120bd84828501612084565b91505092915050565b7f41646d696e61626c653a2063616c6c6572206973206e6f74207468652061646d60008201527f696e000000000000000000000000000000000000000000000000000000000000602082015250565b6000612122602283611f23565b915061212d826120c6565b604082019050919050565b6000602082019050818103600083015261215181612115565b9050919050565b7f4e487b7100000000000000000000000000000000000000000000000000000000600052601160045260246000fd5b600061219282611c7d565b915061219d83611c7d565b92508282039050818111156121b5576121b4612158565b5b92915050565b7f4e487b7100000000000000000000000000000000000000000000000000000000600052601260045260246000fd5b60006121f582611c7d565b915061220083611c7d565b9250826122105761220f6121bb565b5b828204905092915050565b600061222682611c7d565b915061223183611c7d565b925082820190508082111561224957612248612158565b5b92915050565b600061225a82611c7d565b915061226583611c7d565b925082820261227381611c7d565b9150828204841483151761228a57612289612158565b5b5092915050565b600061229c82611c7d565b91507fffffffffffffffffffffffffffffffffffffffffffffffffffffffffffffffff82036122ce576122cd612158565b5b600182019050919050565b7f43616e6e6f74207374616b652030000000000000000000000000000000000000600082015250565b600061230f600e83611f23565b915061231a826122d9565b602082019050919050565b6000602082019050818103600083015261233e81612302565b9050919050565b600061235082611c7d565b915061235b83611c7d565b92508261236b5761236a6121bb565b5b828206905092915050565b7f4f776e61626c653a206e6577206f776e657220697320746865207a65726f206160008201527f6464726573730000000000000000000000000000000000000000000000000000602082015250565b60006123d2602683611f23565b91506123dd82612376565b604082019050919050565b60006020820190508181036000830152612401816123c5565b905091905056fea26469706673582212205551cfb99e92733bfbbb27c885169177a61d7f27e6a97571b9ee9ab9d6071caa64736f6c63430008110033",
					"opcodes": "PUSH1 0x80 PUSH1 0x40 MSTORE PUSH10 0x23934C5A09DA19000000 PUSH1 0x5 SSTORE PUSH2 0x258 PUSH1 0x7 SSTORE PUSH1 0x5 PUSH1 0x8 SSTORE PUSH2 0x3E8 PUSH1 0x9 SSTORE CALLVALUE DUP1 ISZERO PUSH2 0x2F JUMPI PUSH1 0x0 DUP1 REVERT JUMPDEST POP PUSH2 0x4C PUSH2 0x41 PUSH2 0x59 PUSH1 0x20 SHL PUSH1 0x20 SHR JUMP JUMPDEST PUSH2 0x61 PUSH1 0x20 SHL PUSH1 0x20 SHR JUMP JUMPDEST PUSH1 0x1 PUSH1 0x2 DUP2 SWAP1 SSTORE POP PUSH2 0x127 JUMP JUMPDEST PUSH1 0x0 CALLER SWAP1 POP SWAP1 JUMP JUMPDEST PUSH1 0x0 PUSH1 0x1 PUSH1 0x0 SWAP1 SLOAD SWAP1 PUSH2 0x100 EXP SWAP1 DIV PUSH20 0xFFFFFFFFFFFFFFFFFFFFFFFFFFFFFFFFFFFFFFFF AND SWAP1 POP DUP2 PUSH1 0x1 PUSH1 0x0 PUSH2 0x100 EXP DUP2 SLOAD DUP2 PUSH20 0xFFFFFFFFFFFFFFFFFFFFFFFFFFFFFFFFFFFFFFFF MUL NOT AND SWAP1 DUP4 PUSH20 0xFFFFFFFFFFFFFFFFFFFFFFFFFFFFFFFFFFFFFFFF AND MUL OR SWAP1 SSTORE POP DUP2 PUSH20 0xFFFFFFFFFFFFFFFFFFFFFFFFFFFFFFFFFFFFFFFF AND DUP2 PUSH20 0xFFFFFFFFFFFFFFFFFFFFFFFFFFFFFFFFFFFFFFFF AND PUSH32 0x8BE0079C531659141344CD1FD0A4F28419497F9722A3DAAFE3B4186F6B6457E0 PUSH1 0x40 MLOAD PUSH1 0x40 MLOAD DUP1 SWAP2 SUB SWAP1 LOG3 POP POP JUMP JUMPDEST PUSH2 0x243E DUP1 PUSH3 0x137 PUSH1 0x0 CODECOPY PUSH1 0x0 RETURN INVALID PUSH1 0x80 PUSH1 0x40 MSTORE CALLVALUE DUP1 ISZERO PUSH2 0x10 JUMPI PUSH1 0x0 DUP1 REVERT JUMPDEST POP PUSH1 0x4 CALLDATASIZE LT PUSH2 0x205 JUMPI PUSH1 0x0 CALLDATALOAD PUSH1 0xE0 SHR DUP1 PUSH4 0x8107368B GT PUSH2 0x11A JUMPI DUP1 PUSH4 0xADC9772E GT PUSH2 0xAD JUMPI DUP1 PUSH4 0xD1AF0C7D GT PUSH2 0x7C JUMPI DUP1 PUSH4 0xD1AF0C7D EQ PUSH2 0x5DE JUMPI DUP1 PUSH4 0xDA4F8431 EQ PUSH2 0x5FC JUMPI DUP1 PUSH4 0xDB2E21BC EQ PUSH2 0x62C JUMPI DUP1 PUSH4 0xDF136D65 EQ PUSH2 0x636 JUMPI DUP1 PUSH4 0xF2FDE38B EQ PUSH2 0x654 JUMPI PUSH2 0x205 JUMP JUMPDEST DUP1 PUSH4 0xADC9772E EQ PUSH2 0x556 JUMPI DUP1 PUSH4 0xB79EC812 EQ PUSH2 0x572 JUMPI DUP1 PUSH4 0xC8F33C91 EQ PUSH2 0x5A2 JUMPI DUP1 PUSH4 0xCDDA56E0 EQ PUSH2 0x5C0 JUMPI PUSH2 0x205 JUMP JUMPDEST DUP1 PUSH4 0x8DA5CB5B GT PUSH2 0xE9 JUMPI DUP1 PUSH4 0x8DA5CB5B EQ PUSH2 0x4E0 JUMPI DUP1 PUSH4 0x9499C549 EQ PUSH2 0x4FE JUMPI DUP1 PUSH4 0x9A5B17B0 EQ PUSH2 0x51C JUMPI DUP1 PUSH4 0xA4C3B091 EQ PUSH2 0x53A JUMPI PUSH2 0x205 JUMP JUMPDEST DUP1 PUSH4 0x8107368B EQ PUSH2 0x434 JUMPI DUP1 PUSH4 0x874C120B EQ PUSH2 0x464 JUMPI DUP1 PUSH4 0x8AEE8127 EQ PUSH2 0x494 JUMPI DUP1 PUSH4 0x8B876347 EQ PUSH2 0x4B0 JUMPI PUSH2 0x205 JUMP JUMPDEST DUP1 PUSH4 0x3E0A322D GT PUSH2 0x19D JUMPI DUP1 PUSH4 0x6917C501 GT PUSH2 0x16C JUMPI DUP1 PUSH4 0x6917C501 EQ PUSH2 0x3B2 JUMPI DUP1 PUSH4 0x715018A6 EQ PUSH2 0x3D0 JUMPI DUP1 PUSH4 0x78E97925 EQ PUSH2 0x3DA JUMPI DUP1 PUSH4 0x7A6FCEE7 EQ PUSH2 0x3F8 JUMPI DUP1 PUSH4 0x80FAA57D EQ PUSH2 0x416 JUMPI PUSH2 0x205 JUMP JUMPDEST DUP1 PUSH4 0x3E0A322D EQ PUSH2 0x318 JUMPI DUP1 PUSH4 0x4DBDC4EB EQ PUSH2 0x334 JUMPI DUP1 PUSH4 0x5CFA91F4 EQ PUSH2 0x364 JUMPI DUP1 PUSH4 0x6139D4B4 EQ PUSH2 0x394 JUMPI PUSH2 0x205 JUMP JUMPDEST DUP1 PUSH4 0x18E20ECF GT PUSH2 0x1D9 JUMPI DUP1 PUSH4 0x18E20ECF EQ PUSH2 0x2A4 JUMPI DUP1 PUSH4 0x24D7806C EQ PUSH2 0x2C0 JUMPI DUP1 PUSH4 0x3C4045CF EQ PUSH2 0x2F0 JUMPI DUP1 PUSH4 0x3D18B912 EQ PUSH2 0x30E JUMPI PUSH2 0x205 JUMP JUMPDEST DUP1 PUSH3 0x8CC262 EQ PUSH2 0x20A JUMPI DUP1 PUSH4 0x700037D EQ PUSH2 0x23A JUMPI DUP1 PUSH4 0xE15561A EQ PUSH2 0x26A JUMPI DUP1 PUSH4 0x129EE21A EQ PUSH2 0x288 JUMPI JUMPDEST PUSH1 0x0 DUP1 REVERT JUMPDEST PUSH2 0x224 PUSH1 0x4 DUP1 CALLDATASIZE SUB DUP2 ADD SWAP1 PUSH2 0x21F SWAP2 SWAP1 PUSH2 0x1C50 JUMP JUMPDEST PUSH2 0x670 JUMP JUMPDEST PUSH1 0x40 MLOAD PUSH2 0x231 SWAP2 SWAP1 PUSH2 0x1C96 JUMP JUMPDEST PUSH1 0x40 MLOAD DUP1 SWAP2 SUB SWAP1 RETURN JUMPDEST PUSH2 0x254 PUSH1 0x4 DUP1 CALLDATASIZE SUB DUP2 ADD SWAP1 PUSH2 0x24F SWAP2 SWAP1 PUSH2 0x1C50 JUMP JUMPDEST PUSH2 0x7DC JUMP JUMPDEST PUSH1 0x40 MLOAD PUSH2 0x261 SWAP2 SWAP1 PUSH2 0x1C96 JUMP JUMPDEST PUSH1 0x40 MLOAD DUP1 SWAP2 SUB SWAP1 RETURN JUMPDEST PUSH2 0x272 PUSH2 0x7F4 JUMP JUMPDEST PUSH1 0x40 MLOAD PUSH2 0x27F SWAP2 SWAP1 PUSH2 0x1C96 JUMP JUMPDEST PUSH1 0x40 MLOAD DUP1 SWAP2 SUB SWAP1 RETURN JUMPDEST PUSH2 0x2A2 PUSH1 0x4 DUP1 CALLDATASIZE SUB DUP2 ADD SWAP1 PUSH2 0x29D SWAP2 SWAP1 PUSH2 0x1CDD JUMP JUMPDEST PUSH2 0x7FA JUMP JUMPDEST STOP JUMPDEST PUSH2 0x2BE PUSH1 0x4 DUP1 CALLDATASIZE SUB DUP2 ADD SWAP1 PUSH2 0x2B9 SWAP2 SWAP1 PUSH2 0x1D68 JUMP JUMPDEST PUSH2 0x890 JUMP JUMPDEST STOP JUMPDEST PUSH2 0x2DA PUSH1 0x4 DUP1 CALLDATASIZE SUB DUP2 ADD SWAP1 PUSH2 0x2D5 SWAP2 SWAP1 PUSH2 0x1C50 JUMP JUMPDEST PUSH2 0xA01 JUMP JUMPDEST PUSH1 0x40 MLOAD PUSH2 0x2E7 SWAP2 SWAP1 PUSH2 0x1DB7 JUMP JUMPDEST PUSH1 0x40 MLOAD DUP1 SWAP2 SUB SWAP1 RETURN JUMPDEST PUSH2 0x2F8 PUSH2 0xA56 JUMP JUMPDEST PUSH1 0x40 MLOAD PUSH2 0x305 SWAP2 SWAP1 PUSH2 0x1C96 JUMP JUMPDEST PUSH1 0x40 MLOAD DUP1 SWAP2 SUB SWAP1 RETURN JUMPDEST PUSH2 0x316 PUSH2 0xA5C JUMP JUMPDEST STOP JUMPDEST PUSH2 0x332 PUSH1 0x4 DUP1 CALLDATASIZE SUB DUP2 ADD SWAP1 PUSH2 0x32D SWAP2 SWAP1 PUSH2 0x1DD2 JUMP JUMPDEST PUSH2 0xDC1 JUMP JUMPDEST STOP JUMPDEST PUSH2 0x34E PUSH1 0x4 DUP1 CALLDATASIZE SUB DUP2 ADD SWAP1 PUSH2 0x349 SWAP2 SWAP1 PUSH2 0x1DD2 JUMP JUMPDEST PUSH2 0xE1A JUMP JUMPDEST PUSH1 0x40 MLOAD PUSH2 0x35B SWAP2 SWAP1 PUSH2 0x1C96 JUMP JUMPDEST PUSH1 0x40 MLOAD DUP1 SWAP2 SUB SWAP1 RETURN JUMPDEST PUSH2 0x37E PUSH1 0x4 DUP1 CALLDATASIZE SUB DUP2 ADD SWAP1 PUSH2 0x379 SWAP2 SWAP1 PUSH2 0x1DD2 JUMP JUMPDEST PUSH2 0xEB1 JUMP JUMPDEST PUSH1 0x40 MLOAD PUSH2 0x38B SWAP2 SWAP1 PUSH2 0x1C96 JUMP JUMPDEST PUSH1 0x40 MLOAD DUP1 SWAP2 SUB SWAP1 RETURN JUMPDEST PUSH2 0x39C PUSH2 0xF83 JUMP JUMPDEST PUSH1 0x40 MLOAD PUSH2 0x3A9 SWAP2 SWAP1 PUSH2 0x1C96 JUMP JUMPDEST PUSH1 0x40 MLOAD DUP1 SWAP2 SUB SWAP1 RETURN JUMPDEST PUSH2 0x3BA PUSH2 0xF89 JUMP JUMPDEST PUSH1 0x40 MLOAD PUSH2 0x3C7 SWAP2 SWAP1 PUSH2 0x1C96 JUMP JUMPDEST PUSH1 0x40 MLOAD DUP1 SWAP2 SUB SWAP1 RETURN JUMPDEST PUSH2 0x3D8 PUSH2 0xF93 JUMP JUMPDEST STOP JUMPDEST PUSH2 0x3E2 PUSH2 0x101B JUMP JUMPDEST PUSH1 0x40 MLOAD PUSH2 0x3EF SWAP2 SWAP1 PUSH2 0x1C96 JUMP JUMPDEST PUSH1 0x40 MLOAD DUP1 SWAP2 SUB SWAP1 RETURN JUMPDEST PUSH2 0x400 PUSH2 0x1021 JUMP JUMPDEST PUSH1 0x40 MLOAD PUSH2 0x40D SWAP2 SWAP1 PUSH2 0x1C96 JUMP JUMPDEST PUSH1 0x40 MLOAD DUP1 SWAP2 SUB SWAP1 RETURN JUMPDEST PUSH2 0x41E PUSH2 0x1027 JUMP JUMPDEST PUSH1 0x40 MLOAD PUSH2 0x42B SWAP2 SWAP1 PUSH2 0x1C96 JUMP JUMPDEST PUSH1 0x40 MLOAD DUP1 SWAP2 SUB SWAP1 RETURN JUMPDEST PUSH2 0x44E PUSH1 0x4 DUP1 CALLDATASIZE SUB DUP2 ADD SWAP1 PUSH2 0x449 SWAP2 SWAP1 PUSH2 0x1C50 JUMP JUMPDEST PUSH2 0x102F JUMP JUMPDEST PUSH1 0x40 MLOAD PUSH2 0x45B SWAP2 SWAP1 PUSH2 0x1C96 JUMP JUMPDEST PUSH1 0x40 MLOAD DUP1 SWAP2 SUB SWAP1 RETURN JUMPDEST PUSH2 0x47E PUSH1 0x4 DUP1 CALLDATASIZE SUB DUP2 ADD SWAP1 PUSH2 0x479 SWAP2 SWAP1 PUSH2 0x1DD2 JUMP JUMPDEST PUSH2 0x1047 JUMP JUMPDEST PUSH1 0x40 MLOAD PUSH2 0x48B SWAP2 SWAP1 PUSH2 0x1C96 JUMP JUMPDEST PUSH1 0x40 MLOAD DUP1 SWAP2 SUB SWAP1 RETURN JUMPDEST PUSH2 0x4AE PUSH1 0x4 DUP1 CALLDATASIZE SUB DUP2 ADD SWAP1 PUSH2 0x4A9 SWAP2 SWAP1 PUSH2 0x1C50 JUMP JUMPDEST PUSH2 0x10D4 JUMP JUMPDEST STOP JUMPDEST PUSH2 0x4CA PUSH1 0x4 DUP1 CALLDATASIZE SUB DUP2 ADD SWAP1 PUSH2 0x4C5 SWAP2 SWAP1 PUSH2 0x1C50 JUMP JUMPDEST PUSH2 0x1194 JUMP JUMPDEST PUSH1 0x40 MLOAD PUSH2 0x4D7 SWAP2 SWAP1 PUSH2 0x1C96 JUMP JUMPDEST PUSH1 0x40 MLOAD DUP1 SWAP2 SUB SWAP1 RETURN JUMPDEST PUSH2 0x4E8 PUSH2 0x11AC JUMP JUMPDEST PUSH1 0x40 MLOAD PUSH2 0x4F5 SWAP2 SWAP1 PUSH2 0x1E0E JUMP JUMPDEST PUSH1 0x40 MLOAD DUP1 SWAP2 SUB SWAP1 RETURN JUMPDEST PUSH2 0x506 PUSH2 0x11D6 JUMP JUMPDEST PUSH1 0x40 MLOAD PUSH2 0x513 SWAP2 SWAP1 PUSH2 0x1C96 JUMP JUMPDEST PUSH1 0x40 MLOAD DUP1 SWAP2 SUB SWAP1 RETURN JUMPDEST PUSH2 0x524 PUSH2 0x11E6 JUMP JUMPDEST PUSH1 0x40 MLOAD PUSH2 0x531 SWAP2 SWAP1 PUSH2 0x1C96 JUMP JUMPDEST PUSH1 0x40 MLOAD DUP1 SWAP2 SUB SWAP1 RETURN JUMPDEST PUSH2 0x554 PUSH1 0x4 DUP1 CALLDATASIZE SUB DUP2 ADD SWAP1 PUSH2 0x54F SWAP2 SWAP1 PUSH2 0x1E29 JUMP JUMPDEST PUSH2 0x11EE JUMP JUMPDEST STOP JUMPDEST PUSH2 0x570 PUSH1 0x4 DUP1 CALLDATASIZE SUB DUP2 ADD SWAP1 PUSH2 0x56B SWAP2 SWAP1 PUSH2 0x1E29 JUMP JUMPDEST PUSH2 0x12ED JUMP JUMPDEST STOP JUMPDEST PUSH2 0x58C PUSH1 0x4 DUP1 CALLDATASIZE SUB DUP2 ADD SWAP1 PUSH2 0x587 SWAP2 SWAP1 PUSH2 0x1C50 JUMP JUMPDEST PUSH2 0x1661 JUMP JUMPDEST PUSH1 0x40 MLOAD PUSH2 0x599 SWAP2 SWAP1 PUSH2 0x1C96 JUMP JUMPDEST PUSH1 0x40 MLOAD DUP1 SWAP2 SUB SWAP1 RETURN JUMPDEST PUSH2 0x5AA PUSH2 0x16AA JUMP JUMPDEST PUSH1 0x40 MLOAD PUSH2 0x5B7 SWAP2 SWAP1 PUSH2 0x1C96 JUMP JUMPDEST PUSH1 0x40 MLOAD DUP1 SWAP2 SUB SWAP1 RETURN JUMPDEST PUSH2 0x5C8 PUSH2 0x16B0 JUMP JUMPDEST PUSH1 0x40 MLOAD PUSH2 0x5D5 SWAP2 SWAP1 PUSH2 0x1C96 JUMP JUMPDEST PUSH1 0x40 MLOAD DUP1 SWAP2 SUB SWAP1 RETURN JUMPDEST PUSH2 0x5E6 PUSH2 0x16C0 JUMP JUMPDEST PUSH1 0x40 MLOAD PUSH2 0x5F3 SWAP2 SWAP1 PUSH2 0x1EC8 JUMP JUMPDEST PUSH1 0x40 MLOAD DUP1 SWAP2 SUB SWAP1 RETURN JUMPDEST PUSH2 0x616 PUSH1 0x4 DUP1 CALLDATASIZE SUB DUP2 ADD SWAP1 PUSH2 0x611 SWAP2 SWAP1 PUSH2 0x1EE3 JUMP JUMPDEST PUSH2 0x16E6 JUMP JUMPDEST PUSH1 0x40 MLOAD PUSH2 0x623 SWAP2 SWAP1 PUSH2 0x1C96 JUMP JUMPDEST PUSH1 0x40 MLOAD DUP1 SWAP2 SUB SWAP1 RETURN JUMPDEST PUSH2 0x634 PUSH2 0x18CD JUMP JUMPDEST STOP JUMPDEST PUSH2 0x63E PUSH2 0x1999 JUMP JUMPDEST PUSH1 0x40 MLOAD PUSH2 0x64B SWAP2 SWAP1 PUSH2 0x1C96 JUMP JUMPDEST PUSH1 0x40 MLOAD DUP1 SWAP2 SUB SWAP1 RETURN JUMPDEST PUSH2 0x66E PUSH1 0x4 DUP1 CALLDATASIZE SUB DUP2 ADD SWAP1 PUSH2 0x669 SWAP2 SWAP1 PUSH2 0x1C50 JUMP JUMPDEST PUSH2 0x199F JUMP JUMPDEST STOP JUMPDEST PUSH1 0x0 DUP1 PUSH2 0x6BC PUSH1 0xD PUSH1 0x0 DUP6 PUSH20 0xFFFFFFFFFFFFFFFFFFFFFFFFFFFFFFFFFFFFFFFF AND PUSH20 0xFFFFFFFFFFFFFFFFFFFFFFFFFFFFFFFFFFFFFFFF AND DUP2 MSTORE PUSH1 0x20 ADD SWAP1 DUP2 MSTORE PUSH1 0x20 ADD PUSH1 0x0 KECCAK256 SLOAD TIMESTAMP PUSH2 0x16E6 JUMP JUMPDEST SWAP1 POP PUSH2 0x7D4 PUSH1 0x4 PUSH1 0x0 DUP6 PUSH20 0xFFFFFFFFFFFFFFFFFFFFFFFFFFFFFFFFFFFFFFFF AND PUSH20 0xFFFFFFFFFFFFFFFFFFFFFFFFFFFFFFFFFFFFFFFF AND DUP2 MSTORE PUSH1 0x20 ADD SWAP1 DUP2 MSTORE PUSH1 0x20 ADD PUSH1 0x0 KECCAK256 SLOAD PUSH2 0x7C6 PUSH8 0xDE0B6B3A7640000 PUSH2 0x7B8 PUSH2 0x76A PUSH1 0xC PUSH1 0x0 DUP11 PUSH20 0xFFFFFFFFFFFFFFFFFFFFFFFFFFFFFFFFFFFFFFFF AND PUSH20 0xFFFFFFFFFFFFFFFFFFFFFFFFFFFFFFFFFFFFFFFF AND DUP2 MSTORE PUSH1 0x20 ADD SWAP1 DUP2 MSTORE PUSH1 0x20 ADD PUSH1 0x0 KECCAK256 SLOAD PUSH2 0x75C DUP9 PUSH2 0x1047 JUMP JUMPDEST PUSH2 0x1A96 SWAP1 SWAP2 SWAP1 PUSH4 0xFFFFFFFF AND JUMP JUMPDEST PUSH1 0xF PUSH1 0x0 DUP11 PUSH20 0xFFFFFFFFFFFFFFFFFFFFFFFFFFFFFFFFFFFFFFFF AND PUSH20 0xFFFFFFFFFFFFFFFFFFFFFFFFFFFFFFFFFFFFFFFF AND DUP2 MSTORE PUSH1 0x20 ADD SWAP1 DUP2 MSTORE PUSH1 0x20 ADD PUSH1 0x0 KECCAK256 SLOAD PUSH2 0x1AAC SWAP1 SWAP2 SWAP1 PUSH4 0xFFFFFFFF AND JUMP JUMPDEST PUSH2 0x1AC2 SWAP1 SWAP2 SWAP1 PUSH4 0xFFFFFFFF AND JUMP JUMPDEST PUSH2 0x1AD8 SWAP1 SWAP2 SWAP1 PUSH4 0xFFFFFFFF AND JUMP JUMPDEST SWAP2 POP POP SWAP2 SWAP1 POP JUMP JUMPDEST PUSH1 0x4 PUSH1 0x20 MSTORE DUP1 PUSH1 0x0 MSTORE PUSH1 0x40 PUSH1 0x0 KECCAK256 PUSH1 0x0 SWAP2 POP SWAP1 POP SLOAD DUP2 JUMP JUMPDEST PUSH1 0x5 SLOAD DUP2 JUMP JUMPDEST PUSH2 0x802 PUSH2 0x1AEE JUMP JUMPDEST PUSH20 0xFFFFFFFFFFFFFFFFFFFFFFFFFFFFFFFFFFFFFFFF AND PUSH2 0x820 PUSH2 0x11AC JUMP JUMPDEST PUSH20 0xFFFFFFFFFFFFFFFFFFFFFFFFFFFFFFFFFFFFFFFF AND EQ PUSH2 0x876 JUMPI PUSH1 0x40 MLOAD PUSH32 0x8C379A000000000000000000000000000000000000000000000000000000000 DUP2 MSTORE PUSH1 0x4 ADD PUSH2 0x86D SWAP1 PUSH2 0x1FA6 JUMP JUMPDEST PUSH1 0x40 MLOAD DUP1 SWAP2 SUB SWAP1 REVERT JUMPDEST DUP3 PUSH1 0x7 DUP2 SWAP1 SSTORE POP DUP2 PUSH1 0x8 DUP2 SWAP1 SSTORE POP DUP1 PUSH1 0x9 DUP2 SWAP1 SSTORE POP POP POP POP JUMP JUMPDEST PUSH2 0x898 PUSH2 0x1AEE JUMP JUMPDEST PUSH20 0xFFFFFFFFFFFFFFFFFFFFFFFFFFFFFFFFFFFFFFFF AND PUSH2 0x8B6 PUSH2 0x11AC JUMP JUMPDEST PUSH20 0xFFFFFFFFFFFFFFFFFFFFFFFFFFFFFFFFFFFFFFFF AND EQ PUSH2 0x90C JUMPI PUSH1 0x40 MLOAD PUSH32 0x8C379A000000000000000000000000000000000000000000000000000000000 DUP2 MSTORE PUSH1 0x4 ADD PUSH2 0x903 SWAP1 PUSH2 0x1FA6 JUMP JUMPDEST PUSH1 0x40 MLOAD DUP1 SWAP2 SUB SWAP1 REVERT JUMPDEST DUP2 PUSH20 0xFFFFFFFFFFFFFFFFFFFFFFFFFFFFFFFFFFFFFFFF AND PUSH32 0x82F1FA40A3D82DEA3E406073819290601F436580AA7C69F9FEB61F885BDD8854 PUSH1 0x0 DUP1 DUP6 PUSH20 0xFFFFFFFFFFFFFFFFFFFFFFFFFFFFFFFFFFFFFFFF AND PUSH20 0xFFFFFFFFFFFFFFFFFFFFFFFFFFFFFFFFFFFFFFFF AND DUP2 MSTORE PUSH1 0x20 ADD SWAP1 DUP2 MSTORE PUSH1 0x20 ADD PUSH1 0x0 KECCAK256 PUSH1 0x0 SWAP1 SLOAD SWAP1 PUSH2 0x100 EXP SWAP1 DIV PUSH1 0xFF AND DUP4 PUSH1 0x40 MLOAD PUSH2 0x99F SWAP3 SWAP2 SWAP1 PUSH2 0x1FC6 JUMP JUMPDEST PUSH1 0x40 MLOAD DUP1 SWAP2 SUB SWAP1 LOG2 DUP1 PUSH1 0x0 DUP1 DUP5 PUSH20 0xFFFFFFFFFFFFFFFFFFFFFFFFFFFFFFFFFFFFFFFF AND PUSH20 0xFFFFFFFFFFFFFFFFFFFFFFFFFFFFFFFFFFFFFFFF AND DUP2 MSTORE PUSH1 0x20 ADD SWAP1 DUP2 MSTORE PUSH1 0x20 ADD PUSH1 0x0 KECCAK256 PUSH1 0x0 PUSH2 0x100 EXP DUP2 SLOAD DUP2 PUSH1 0xFF MUL NOT AND SWAP1 DUP4 ISZERO ISZERO MUL OR SWAP1 SSTORE POP POP POP JUMP JUMPDEST PUSH1 0x0 DUP1 PUSH1 0x0 DUP4 PUSH20 0xFFFFFFFFFFFFFFFFFFFFFFFFFFFFFFFFFFFFFFFF AND PUSH20 0xFFFFFFFFFFFFFFFFFFFFFFFFFFFFFFFFFFFFFFFF AND DUP2 MSTORE PUSH1 0x20 ADD SWAP1 DUP2 MSTORE PUSH1 0x20 ADD PUSH1 0x0 KECCAK256 PUSH1 0x0 SWAP1 SLOAD SWAP1 PUSH2 0x100 EXP SWAP1 DIV PUSH1 0xFF AND SWAP1 POP SWAP2 SWAP1 POP JUMP JUMPDEST PUSH1 0x8 SLOAD DUP2 JUMP JUMPDEST PUSH1 0x2 DUP1 SLOAD SUB PUSH2 0xAA0 JUMPI PUSH1 0x40 MLOAD PUSH32 0x8C379A000000000000000000000000000000000000000000000000000000000 DUP2 MSTORE PUSH1 0x4 ADD PUSH2 0xA97 SWAP1 PUSH2 0x203B JUMP JUMPDEST PUSH1 0x40 MLOAD DUP1 SWAP2 SUB SWAP1 REVERT JUMPDEST PUSH1 0x2 DUP1 DUP2 SWAP1 SSTORE POP CALLER PUSH1 0x0 PUSH1 0xD PUSH1 0x0 DUP4 PUSH20 0xFFFFFFFFFFFFFFFFFFFFFFFFFFFFFFFFFFFFFFFF AND PUSH20 0xFFFFFFFFFFFFFFFFFFFFFFFFFFFFFFFFFFFFFFFF AND DUP2 MSTORE PUSH1 0x20 ADD SWAP1 DUP2 MSTORE PUSH1 0x20 ADD PUSH1 0x0 KECCAK256 SLOAD SWAP1 POP PUSH1 0x6 SLOAD DUP2 GT PUSH2 0xAFB JUMPI PUSH1 0x6 SLOAD SWAP1 POP JUMPDEST PUSH1 0x0 PUSH2 0xB07 DUP3 TIMESTAMP PUSH2 0x16E6 JUMP JUMPDEST SWAP1 POP PUSH2 0xB12 DUP2 PUSH2 0x1047 JUMP JUMPDEST PUSH1 0xB DUP2 SWAP1 SSTORE POP PUSH2 0xB20 PUSH2 0x1027 JUMP JUMPDEST PUSH1 0xA DUP2 SWAP1 SSTORE POP PUSH1 0x0 PUSH20 0xFFFFFFFFFFFFFFFFFFFFFFFFFFFFFFFFFFFFFFFF AND DUP4 PUSH20 0xFFFFFFFFFFFFFFFFFFFFFFFFFFFFFFFFFFFFFFFF AND EQ PUSH2 0xC31 JUMPI PUSH2 0xB63 DUP4 PUSH2 0x670 JUMP JUMPDEST PUSH1 0x4 PUSH1 0x0 DUP6 PUSH20 0xFFFFFFFFFFFFFFFFFFFFFFFFFFFFFFFFFFFFFFFF AND PUSH20 0xFFFFFFFFFFFFFFFFFFFFFFFFFFFFFFFFFFFFFFFF AND DUP2 MSTORE PUSH1 0x20 ADD SWAP1 DUP2 MSTORE PUSH1 0x20 ADD PUSH1 0x0 KECCAK256 DUP2 SWAP1 SSTORE POP PUSH1 0xB SLOAD PUSH1 0xC PUSH1 0x0 DUP6 PUSH20 0xFFFFFFFFFFFFFFFFFFFFFFFFFFFFFFFFFFFFFFFF AND PUSH20 0xFFFFFFFFFFFFFFFFFFFFFFFFFFFFFFFFFFFFFFFF AND DUP2 MSTORE PUSH1 0x20 ADD SWAP1 DUP2 MSTORE PUSH1 0x20 ADD PUSH1 0x0 KECCAK256 DUP2 SWAP1 SSTORE POP TIMESTAMP PUSH1 0xD PUSH1 0x0 DUP6 PUSH20 0xFFFFFFFFFFFFFFFFFFFFFFFFFFFFFFFFFFFFFFFF AND PUSH20 0xFFFFFFFFFFFFFFFFFFFFFFFFFFFFFFFFFFFFFFFF AND DUP2 MSTORE PUSH1 0x20 ADD SWAP1 DUP2 MSTORE PUSH1 0x20 ADD PUSH1 0x0 KECCAK256 DUP2 SWAP1 SSTORE POP JUMPDEST PUSH1 0x0 PUSH1 0x4 PUSH1 0x0 CALLER PUSH20 0xFFFFFFFFFFFFFFFFFFFFFFFFFFFFFFFFFFFFFFFF AND PUSH20 0xFFFFFFFFFFFFFFFFFFFFFFFFFFFFFFFFFFFFFFFF AND DUP2 MSTORE PUSH1 0x20 ADD SWAP1 DUP2 MSTORE PUSH1 0x20 ADD PUSH1 0x0 KECCAK256 SLOAD SWAP1 POP PUSH1 0x0 DUP2 GT ISZERO PUSH2 0xDB3 JUMPI PUSH1 0x0 PUSH1 0x4 PUSH1 0x0 CALLER PUSH20 0xFFFFFFFFFFFFFFFFFFFFFFFFFFFFFFFFFFFFFFFF AND PUSH20 0xFFFFFFFFFFFFFFFFFFFFFFFFFFFFFFFFFFFFFFFF AND DUP2 MSTORE PUSH1 0x20 ADD SWAP1 DUP2 MSTORE PUSH1 0x20 ADD PUSH1 0x0 KECCAK256 DUP2 SWAP1 SSTORE POP PUSH1 0x3 PUSH1 0x0 SWAP1 SLOAD SWAP1 PUSH2 0x100 EXP SWAP1 DIV PUSH20 0xFFFFFFFFFFFFFFFFFFFFFFFFFFFFFFFFFFFFFFFF AND PUSH20 0xFFFFFFFFFFFFFFFFFFFFFFFFFFFFFFFFFFFFFFFF AND PUSH4 0xA9059CBB CALLER DUP4 PUSH1 0x40 MLOAD DUP4 PUSH4 0xFFFFFFFF AND PUSH1 0xE0 SHL DUP2 MSTORE PUSH1 0x4 ADD PUSH2 0xD20 SWAP3 SWAP2 SWAP1 PUSH2 0x205B JUMP JUMPDEST PUSH1 0x20 PUSH1 0x40 MLOAD DUP1 DUP4 SUB DUP2 PUSH1 0x0 DUP8 GAS CALL ISZERO DUP1 ISZERO PUSH2 0xD3F JUMPI RETURNDATASIZE PUSH1 0x0 DUP1 RETURNDATACOPY RETURNDATASIZE PUSH1 0x0 REVERT JUMPDEST POP POP POP POP PUSH1 0x40 MLOAD RETURNDATASIZE PUSH1 0x1F NOT PUSH1 0x1F DUP3 ADD AND DUP3 ADD DUP1 PUSH1 0x40 MSTORE POP DUP2 ADD SWAP1 PUSH2 0xD63 SWAP2 SWAP1 PUSH2 0x2099 JUMP JUMPDEST POP CALLER PUSH20 0xFFFFFFFFFFFFFFFFFFFFFFFFFFFFFFFFFFFFFFFF AND PUSH32 0xE2403640BA68FED3A2F88B7557551D1993F84B99BB10FF833F0CF8DB0C5E0486 DUP3 PUSH1 0x40 MLOAD PUSH2 0xDAA SWAP2 SWAP1 PUSH2 0x1C96 JUMP JUMPDEST PUSH1 0x40 MLOAD DUP1 SWAP2 SUB SWAP1 LOG2 JUMPDEST POP POP POP POP PUSH1 0x1 PUSH1 0x2 DUP2 SWAP1 SSTORE POP JUMP JUMPDEST PUSH2 0xDD1 PUSH2 0xDCC PUSH2 0x1AEE JUMP JUMPDEST PUSH2 0xA01 JUMP JUMPDEST PUSH2 0xE10 JUMPI PUSH1 0x40 MLOAD PUSH32 0x8C379A000000000000000000000000000000000000000000000000000000000 DUP2 MSTORE PUSH1 0x4 ADD PUSH2 0xE07 SWAP1 PUSH2 0x2138 JUMP JUMPDEST PUSH1 0x40 MLOAD DUP1 SWAP2 SUB SWAP1 REVERT JUMPDEST DUP1 PUSH1 0x6 DUP2 SWAP1 SSTORE POP POP JUMP JUMPDEST PUSH1 0x0 DUP1 PUSH1 0x6 SLOAD SUB PUSH2 0xE2F JUMPI PUSH1 0x6 SLOAD SWAP1 POP PUSH2 0xEAC JUMP JUMPDEST PUSH1 0x0 PUSH1 0x1 PUSH1 0x7 SLOAD PUSH1 0x6 SLOAD DUP6 PUSH2 0xE44 SWAP2 SWAP1 PUSH2 0x2187 JUMP JUMPDEST PUSH2 0xE4E SWAP2 SWAP1 PUSH2 0x21EA JUMP JUMPDEST PUSH2 0xE58 SWAP2 SWAP1 PUSH2 0x221B JUMP JUMPDEST SWAP1 POP PUSH1 0x0 PUSH1 0x5 SLOAD SWAP1 POP PUSH1 0x0 JUMPDEST DUP3 DUP2 LT ISZERO PUSH2 0xEA5 JUMPI PUSH1 0x9 SLOAD PUSH1 0x8 SLOAD DUP4 PUSH2 0xE7D SWAP2 SWAP1 PUSH2 0x224F JUMP JUMPDEST PUSH2 0xE87 SWAP2 SWAP1 PUSH2 0x21EA JUMP JUMPDEST DUP3 PUSH2 0xE92 SWAP2 SWAP1 PUSH2 0x2187 JUMP JUMPDEST SWAP2 POP DUP1 PUSH2 0xE9E SWAP1 PUSH2 0x2291 JUMP JUMPDEST SWAP1 POP PUSH2 0xE64 JUMP JUMPDEST POP DUP1 SWAP3 POP POP POP JUMPDEST SWAP2 SWAP1 POP JUMP JUMPDEST PUSH1 0x0 DUP1 PUSH1 0x6 SLOAD SUB PUSH2 0xEC6 JUMPI PUSH1 0x5 SLOAD SWAP1 POP PUSH2 0xF7E JUMP JUMPDEST PUSH1 0x6 SLOAD DUP3 LT ISZERO PUSH2 0xED9 JUMPI PUSH1 0x0 SWAP1 POP PUSH2 0xF7E JUMP JUMPDEST PUSH1 0x0 PUSH1 0x1 PUSH1 0x7 SLOAD PUSH1 0x6 SLOAD DUP6 PUSH2 0xEEE SWAP2 SWAP1 PUSH2 0x2187 JUMP JUMPDEST PUSH2 0xEF8 SWAP2 SWAP1 PUSH2 0x21EA JUMP JUMPDEST PUSH2 0xF02 SWAP2 SWAP1 PUSH2 0x221B JUMP JUMPDEST SWAP1 POP PUSH1 0x0 PUSH1 0x5 SLOAD SWAP1 POP PUSH1 0x0 JUMPDEST DUP3 DUP2 LT ISZERO PUSH2 0xF4F JUMPI PUSH1 0x9 SLOAD PUSH1 0x8 SLOAD DUP4 PUSH2 0xF27 SWAP2 SWAP1 PUSH2 0x224F JUMP JUMPDEST PUSH2 0xF31 SWAP2 SWAP1 PUSH2 0x21EA JUMP JUMPDEST DUP3 PUSH2 0xF3C SWAP2 SWAP1 PUSH2 0x2187 JUMP JUMPDEST SWAP2 POP DUP1 PUSH2 0xF48 SWAP1 PUSH2 0x2291 JUMP JUMPDEST SWAP1 POP PUSH2 0xF0E JUMP JUMPDEST POP PUSH2 0xF79 PUSH1 0x9 SLOAD PUSH2 0xF6B PUSH1 0x8 SLOAD DUP5 PUSH2 0x1AAC SWAP1 SWAP2 SWAP1 PUSH4 0xFFFFFFFF AND JUMP JUMPDEST PUSH2 0x1AC2 SWAP1 SWAP2 SWAP1 PUSH4 0xFFFFFFFF AND JUMP JUMPDEST SWAP3 POP POP POP JUMPDEST SWAP2 SWAP1 POP JUMP JUMPDEST PUSH1 0x7 SLOAD DUP2 JUMP JUMPDEST PUSH1 0x0 PUSH1 0xE SLOAD SWAP1 POP SWAP1 JUMP JUMPDEST PUSH2 0xF9B PUSH2 0x1AEE JUMP JUMPDEST PUSH20 0xFFFFFFFFFFFFFFFFFFFFFFFFFFFFFFFFFFFFFFFF AND PUSH2 0xFB9 PUSH2 0x11AC JUMP JUMPDEST PUSH20 0xFFFFFFFFFFFFFFFFFFFFFFFFFFFFFFFFFFFFFFFF AND EQ PUSH2 0x100F JUMPI PUSH1 0x40 MLOAD PUSH32 0x8C379A000000000000000000000000000000000000000000000000000000000 DUP2 MSTORE PUSH1 0x4 ADD PUSH2 0x1006 SWAP1 PUSH2 0x1FA6 JUMP JUMPDEST PUSH1 0x40 MLOAD DUP1 SWAP2 SUB SWAP1 REVERT JUMPDEST PUSH2 0x1019 PUSH1 0x0 PUSH2 0x1AF6 JUMP JUMPDEST JUMP JUMPDEST PUSH1 0x6 SLOAD DUP2 JUMP JUMPDEST PUSH1 0x9 SLOAD DUP2 JUMP JUMPDEST PUSH1 0x0 TIMESTAMP SWAP1 POP SWAP1 JUMP JUMPDEST PUSH1 0xD PUSH1 0x20 MSTORE DUP1 PUSH1 0x0 MSTORE PUSH1 0x40 PUSH1 0x0 KECCAK256 PUSH1 0x0 SWAP2 POP SWAP1 POP SLOAD DUP2 JUMP JUMPDEST PUSH1 0x0 DUP1 PUSH1 0xE SLOAD SUB PUSH2 0x105C JUMPI PUSH1 0xB SLOAD SWAP1 POP PUSH2 0x10CF JUMP JUMPDEST PUSH2 0x10CC PUSH2 0x10BB PUSH1 0xE SLOAD PUSH2 0x10AD PUSH8 0xDE0B6B3A7640000 PUSH2 0x109F DUP8 PUSH2 0x1091 PUSH1 0xA SLOAD PUSH2 0x1083 PUSH2 0x1027 JUMP JUMPDEST PUSH2 0x1A96 SWAP1 SWAP2 SWAP1 PUSH4 0xFFFFFFFF AND JUMP JUMPDEST PUSH2 0x1AAC SWAP1 SWAP2 SWAP1 PUSH4 0xFFFFFFFF AND JUMP JUMPDEST PUSH2 0x1AAC SWAP1 SWAP2 SWAP1 PUSH4 0xFFFFFFFF AND JUMP JUMPDEST PUSH2 0x1AC2 SWAP1 SWAP2 SWAP1 PUSH4 0xFFFFFFFF AND JUMP JUMPDEST PUSH1 0xB SLOAD PUSH2 0x1AD8 SWAP1 SWAP2 SWAP1 PUSH4 0xFFFFFFFF AND JUMP JUMPDEST SWAP1 POP JUMPDEST SWAP2 SWAP1 POP JUMP JUMPDEST PUSH2 0x10DC PUSH2 0x1AEE JUMP JUMPDEST PUSH20 0xFFFFFFFFFFFFFFFFFFFFFFFFFFFFFFFFFFFFFFFF AND PUSH2 0x10FA PUSH2 0x11AC JUMP JUMPDEST PUSH20 0xFFFFFFFFFFFFFFFFFFFFFFFFFFFFFFFFFFFFFFFF AND EQ PUSH2 0x1150 JUMPI PUSH1 0x40 MLOAD PUSH32 0x8C379A000000000000000000000000000000000000000000000000000000000 DUP2 MSTORE PUSH1 0x4 ADD PUSH2 0x1147 SWAP1 PUSH2 0x1FA6 JUMP JUMPDEST PUSH1 0x40 MLOAD DUP1 SWAP2 SUB SWAP1 REVERT JUMPDEST DUP1 PUSH1 0x3 PUSH1 0x0 PUSH2 0x100 EXP DUP2 SLOAD DUP2 PUSH20 0xFFFFFFFFFFFFFFFFFFFFFFFFFFFFFFFFFFFFFFFF MUL NOT AND SWAP1 DUP4 PUSH20 0xFFFFFFFFFFFFFFFFFFFFFFFFFFFFFFFFFFFFFFFF AND MUL OR SWAP1 SSTORE POP POP JUMP JUMPDEST PUSH1 0xC PUSH1 0x20 MSTORE DUP1 PUSH1 0x0 MSTORE PUSH1 0x40 PUSH1 0x0 KECCAK256 PUSH1 0x0 SWAP2 POP SWAP1 POP SLOAD DUP2 JUMP JUMPDEST PUSH1 0x0 PUSH1 0x1 PUSH1 0x0 SWAP1 SLOAD SWAP1 PUSH2 0x100 EXP SWAP1 DIV PUSH20 0xFFFFFFFFFFFFFFFFFFFFFFFFFFFFFFFFFFFFFFFF AND SWAP1 POP SWAP1 JUMP JUMPDEST PUSH1 0x0 PUSH2 0x11E1 TIMESTAMP PUSH2 0xEB1 JUMP JUMPDEST SWAP1 POP SWAP1 JUMP JUMPDEST PUSH1 0x0 TIMESTAMP SWAP1 POP SWAP1 JUMP JUMPDEST PUSH2 0x11F6 PUSH2 0x1AEE JUMP JUMPDEST PUSH20 0xFFFFFFFFFFFFFFFFFFFFFFFFFFFFFFFFFFFFFFFF AND PUSH2 0x1214 PUSH2 0x11AC JUMP JUMPDEST PUSH20 0xFFFFFFFFFFFFFFFFFFFFFFFFFFFFFFFFFFFFFFFF AND EQ PUSH2 0x126A JUMPI PUSH1 0x40 MLOAD PUSH32 0x8C379A000000000000000000000000000000000000000000000000000000000 DUP2 MSTORE PUSH1 0x4 ADD PUSH2 0x1261 SWAP1 PUSH2 0x1FA6 JUMP JUMPDEST PUSH1 0x40 MLOAD DUP1 SWAP2 SUB SWAP1 REVERT JUMPDEST DUP2 PUSH20 0xFFFFFFFFFFFFFFFFFFFFFFFFFFFFFFFFFFFFFFFF AND PUSH4 0xA9059CBB CALLER DUP4 PUSH1 0x40 MLOAD DUP4 PUSH4 0xFFFFFFFF AND PUSH1 0xE0 SHL DUP2 MSTORE PUSH1 0x4 ADD PUSH2 0x12A5 SWAP3 SWAP2 SWAP1 PUSH2 0x205B JUMP JUMPDEST PUSH1 0x20 PUSH1 0x40 MLOAD DUP1 DUP4 SUB DUP2 PUSH1 0x0 DUP8 GAS CALL ISZERO DUP1 ISZERO PUSH2 0x12C4 JUMPI RETURNDATASIZE PUSH1 0x0 DUP1 RETURNDATACOPY RETURNDATASIZE PUSH1 0x0 REVERT JUMPDEST POP POP POP POP PUSH1 0x40 MLOAD RETURNDATASIZE PUSH1 0x1F NOT PUSH1 0x1F DUP3 ADD AND DUP3 ADD DUP1 PUSH1 0x40 MSTORE POP DUP2 ADD SWAP1 PUSH2 0x12E8 SWAP2 SWAP1 PUSH2 0x2099 JUMP JUMPDEST POP POP POP JUMP JUMPDEST PUSH1 0x2 DUP1 SLOAD SUB PUSH2 0x1331 JUMPI PUSH1 0x40 MLOAD PUSH32 0x8C379A000000000000000000000000000000000000000000000000000000000 DUP2 MSTORE PUSH1 0x4 ADD PUSH2 0x1328 SWAP1 PUSH2 0x203B JUMP JUMPDEST PUSH1 0x40 MLOAD DUP1 SWAP2 SUB SWAP1 REVERT JUMPDEST PUSH1 0x2 DUP1 DUP2 SWAP1 SSTORE POP PUSH2 0x1348 PUSH2 0x1343 PUSH2 0x1AEE JUMP JUMPDEST PUSH2 0xA01 JUMP JUMPDEST PUSH2 0x1387 JUMPI PUSH1 0x40 MLOAD PUSH32 0x8C379A000000000000000000000000000000000000000000000000000000000 DUP2 MSTORE PUSH1 0x4 ADD PUSH2 0x137E SWAP1 PUSH2 0x2138 JUMP JUMPDEST PUSH1 0x40 MLOAD DUP1 SWAP2 SUB SWAP1 REVERT JUMPDEST DUP2 PUSH1 0x0 PUSH1 0xD PUSH1 0x0 DUP4 PUSH20 0xFFFFFFFFFFFFFFFFFFFFFFFFFFFFFFFFFFFFFFFF AND PUSH20 0xFFFFFFFFFFFFFFFFFFFFFFFFFFFFFFFFFFFFFFFF AND DUP2 MSTORE PUSH1 0x20 ADD SWAP1 DUP2 MSTORE PUSH1 0x20 ADD PUSH1 0x0 KECCAK256 SLOAD SWAP1 POP PUSH1 0x6 SLOAD DUP2 GT PUSH2 0x13DB JUMPI PUSH1 0x6 SLOAD SWAP1 POP JUMPDEST PUSH1 0x0 PUSH2 0x13E7 DUP3 TIMESTAMP PUSH2 0x16E6 JUMP JUMPDEST SWAP1 POP PUSH2 0x13F2 DUP2 PUSH2 0x1047 JUMP JUMPDEST PUSH1 0xB DUP2 SWAP1 SSTORE POP PUSH2 0x1400 PUSH2 0x1027 JUMP JUMPDEST PUSH1 0xA DUP2 SWAP1 SSTORE POP PUSH1 0x0 PUSH20 0xFFFFFFFFFFFFFFFFFFFFFFFFFFFFFFFFFFFFFFFF AND DUP4 PUSH20 0xFFFFFFFFFFFFFFFFFFFFFFFFFFFFFFFFFFFFFFFF AND EQ PUSH2 0x1511 JUMPI PUSH2 0x1443 DUP4 PUSH2 0x670 JUMP JUMPDEST PUSH1 0x4 PUSH1 0x0 DUP6 PUSH20 0xFFFFFFFFFFFFFFFFFFFFFFFFFFFFFFFFFFFFFFFF AND PUSH20 0xFFFFFFFFFFFFFFFFFFFFFFFFFFFFFFFFFFFFFFFF AND DUP2 MSTORE PUSH1 0x20 ADD SWAP1 DUP2 MSTORE PUSH1 0x20 ADD PUSH1 0x0 KECCAK256 DUP2 SWAP1 SSTORE POP PUSH1 0xB SLOAD PUSH1 0xC PUSH1 0x0 DUP6 PUSH20 0xFFFFFFFFFFFFFFFFFFFFFFFFFFFFFFFFFFFFFFFF AND PUSH20 0xFFFFFFFFFFFFFFFFFFFFFFFFFFFFFFFFFFFFFFFF AND DUP2 MSTORE PUSH1 0x20 ADD SWAP1 DUP2 MSTORE PUSH1 0x20 ADD PUSH1 0x0 KECCAK256 DUP2 SWAP1 SSTORE POP TIMESTAMP PUSH1 0xD PUSH1 0x0 DUP6 PUSH20 0xFFFFFFFFFFFFFFFFFFFFFFFFFFFFFFFFFFFFFFFF AND PUSH20 0xFFFFFFFFFFFFFFFFFFFFFFFFFFFFFFFFFFFFFFFF AND DUP2 MSTORE PUSH1 0x20 ADD SWAP1 DUP2 MSTORE PUSH1 0x20 ADD PUSH1 0x0 KECCAK256 DUP2 SWAP1 SSTORE POP JUMPDEST PUSH1 0x0 DUP5 GT PUSH2 0x1554 JUMPI PUSH1 0x40 MLOAD PUSH32 0x8C379A000000000000000000000000000000000000000000000000000000000 DUP2 MSTORE PUSH1 0x4 ADD PUSH2 0x154B SWAP1 PUSH2 0x2325 JUMP JUMPDEST PUSH1 0x40 MLOAD DUP1 SWAP2 SUB SWAP1 REVERT JUMPDEST PUSH2 0x1569 DUP5 PUSH1 0xE SLOAD PUSH2 0x1AD8 SWAP1 SWAP2 SWAP1 PUSH4 0xFFFFFFFF AND JUMP JUMPDEST PUSH1 0xE DUP2 SWAP1 SSTORE POP PUSH2 0x15C1 DUP5 PUSH1 0xF PUSH1 0x0 DUP9 PUSH20 0xFFFFFFFFFFFFFFFFFFFFFFFFFFFFFFFFFFFFFFFF AND PUSH20 0xFFFFFFFFFFFFFFFFFFFFFFFFFFFFFFFFFFFFFFFF AND DUP2 MSTORE PUSH1 0x20 ADD SWAP1 DUP2 MSTORE PUSH1 0x20 ADD PUSH1 0x0 KECCAK256 SLOAD PUSH2 0x1AD8 SWAP1 SWAP2 SWAP1 PUSH4 0xFFFFFFFF AND JUMP JUMPDEST PUSH1 0xF PUSH1 0x0 DUP8 PUSH20 0xFFFFFFFFFFFFFFFFFFFFFFFFFFFFFFFFFFFFFFFF AND PUSH20 0xFFFFFFFFFFFFFFFFFFFFFFFFFFFFFFFFFFFFFFFF AND DUP2 MSTORE PUSH1 0x20 ADD SWAP1 DUP2 MSTORE PUSH1 0x20 ADD PUSH1 0x0 KECCAK256 DUP2 SWAP1 SSTORE POP DUP5 PUSH20 0xFFFFFFFFFFFFFFFFFFFFFFFFFFFFFFFFFFFFFFFF AND PUSH32 0x9E71BC8EEA02A63969F509818F2DAFB9254532904319F9DBDA79B67BD34A5F3D DUP6 PUSH1 0x40 MLOAD PUSH2 0x164A SWAP2 SWAP1 PUSH2 0x1C96 JUMP JUMPDEST PUSH1 0x40 MLOAD DUP1 SWAP2 SUB SWAP1 LOG2 POP POP POP PUSH1 0x1 PUSH1 0x2 DUP2 SWAP1 SSTORE POP POP POP JUMP JUMPDEST PUSH1 0x0 PUSH1 0xF PUSH1 0x0 DUP4 PUSH20 0xFFFFFFFFFFFFFFFFFFFFFFFFFFFFFFFFFFFFFFFF AND PUSH20 0xFFFFFFFFFFFFFFFFFFFFFFFFFFFFFFFFFFFFFFFF AND DUP2 MSTORE PUSH1 0x20 ADD SWAP1 DUP2 MSTORE PUSH1 0x20 ADD PUSH1 0x0 KECCAK256 SLOAD SWAP1 POP SWAP2 SWAP1 POP JUMP JUMPDEST PUSH1 0xA SLOAD DUP2 JUMP JUMPDEST PUSH1 0x0 PUSH2 0x16BB TIMESTAMP PUSH2 0x1BBC JUMP JUMPDEST SWAP1 POP SWAP1 JUMP JUMPDEST PUSH1 0x3 PUSH1 0x0 SWAP1 SLOAD SWAP1 PUSH2 0x100 EXP SWAP1 DIV PUSH20 0xFFFFFFFFFFFFFFFFFFFFFFFFFFFFFFFFFFFFFFFF AND DUP2 JUMP JUMPDEST PUSH1 0x0 DUP1 PUSH1 0x6 SLOAD EQ DUP1 PUSH2 0x16F8 JUMPI POP DUP2 DUP4 LT ISZERO JUMPDEST DUP1 PUSH2 0x1703 JUMPI POP PUSH1 0x0 DUP4 EQ JUMPDEST ISZERO PUSH2 0x1711 JUMPI PUSH1 0x0 SWAP1 POP PUSH2 0x18C7 JUMP JUMPDEST PUSH1 0x6 SLOAD DUP4 LT ISZERO PUSH2 0x1721 JUMPI PUSH1 0x6 SLOAD SWAP3 POP JUMPDEST PUSH1 0x0 PUSH1 0x7 SLOAD PUSH1 0x7 SLOAD PUSH1 0x6 SLOAD DUP7 PUSH2 0x1737 SWAP2 SWAP1 PUSH2 0x2187 JUMP JUMPDEST PUSH2 0x1741 SWAP2 SWAP1 PUSH2 0x2345 JUMP JUMPDEST PUSH1 0x7 SLOAD PUSH2 0x174E SWAP2 SWAP1 PUSH2 0x2187 JUMP JUMPDEST PUSH2 0x1758 SWAP2 SWAP1 PUSH2 0x2345 JUMP JUMPDEST SWAP1 POP PUSH1 0x0 PUSH1 0x7 SLOAD DUP3 PUSH2 0x1769 DUP8 PUSH2 0xEB1 JUMP JUMPDEST PUSH2 0x1773 SWAP2 SWAP1 PUSH2 0x224F JUMP JUMPDEST PUSH2 0x177D SWAP2 SWAP1 PUSH2 0x21EA JUMP JUMPDEST SWAP1 POP PUSH1 0x0 PUSH1 0x7 SLOAD PUSH1 0x6 SLOAD DUP7 PUSH2 0x1792 SWAP2 SWAP1 PUSH2 0x2187 JUMP JUMPDEST PUSH2 0x179C SWAP2 SWAP1 PUSH2 0x2345 JUMP JUMPDEST SWAP1 POP PUSH1 0x0 PUSH1 0x7 SLOAD DUP3 PUSH2 0x17AD DUP9 PUSH2 0xEB1 JUMP JUMPDEST PUSH2 0x17B7 SWAP2 SWAP1 PUSH2 0x224F JUMP JUMPDEST PUSH2 0x17C1 SWAP2 SWAP1 PUSH2 0x21EA JUMP JUMPDEST SWAP1 POP DUP6 DUP5 DUP9 PUSH2 0x17D0 SWAP2 SWAP1 PUSH2 0x221B JUMP JUMPDEST GT ISZERO PUSH2 0x17EA JUMPI PUSH2 0x17DF DUP8 PUSH2 0x1BBC JUMP JUMPDEST SWAP5 POP POP POP POP POP PUSH2 0x18C7 JUMP JUMPDEST PUSH1 0x0 DUP5 DUP9 DUP5 DUP10 PUSH2 0x17FA SWAP2 SWAP1 PUSH2 0x2187 JUMP JUMPDEST PUSH2 0x1804 SWAP2 SWAP1 PUSH2 0x2187 JUMP JUMPDEST PUSH2 0x180E SWAP2 SWAP1 PUSH2 0x2187 JUMP JUMPDEST SWAP1 POP PUSH1 0x0 PUSH2 0x181B DUP10 PUSH2 0xE1A JUMP JUMPDEST SWAP1 POP PUSH1 0x0 DUP1 PUSH1 0x0 DUP4 SWAP1 POP PUSH1 0x0 PUSH1 0x7 SLOAD DUP7 PUSH2 0x1835 SWAP2 SWAP1 PUSH2 0x21EA JUMP JUMPDEST SWAP1 POP PUSH1 0x0 JUMPDEST DUP2 DUP2 LT ISZERO PUSH2 0x188C JUMPI PUSH1 0x9 SLOAD PUSH1 0x8 SLOAD DUP5 PUSH2 0x1853 SWAP2 SWAP1 PUSH2 0x224F JUMP JUMPDEST PUSH2 0x185D SWAP2 SWAP1 PUSH2 0x21EA JUMP JUMPDEST SWAP4 POP DUP4 DUP4 PUSH2 0x186B SWAP2 SWAP1 PUSH2 0x2187 JUMP JUMPDEST SWAP3 POP DUP4 DUP6 PUSH2 0x1879 SWAP2 SWAP1 PUSH2 0x221B JUMP JUMPDEST SWAP5 POP DUP1 PUSH2 0x1885 SWAP1 PUSH2 0x2291 JUMP JUMPDEST SWAP1 POP PUSH2 0x183A JUMP JUMPDEST POP DUP13 DUP13 PUSH2 0x1899 SWAP2 SWAP1 PUSH2 0x2187 JUMP JUMPDEST DUP8 DUP11 DUP7 PUSH2 0x18A6 SWAP2 SWAP1 PUSH2 0x221B JUMP JUMPDEST PUSH2 0x18B0 SWAP2 SWAP1 PUSH2 0x221B JUMP JUMPDEST PUSH2 0x18BA SWAP2 SWAP1 PUSH2 0x21EA JUMP JUMPDEST SWAP11 POP POP POP POP POP POP POP POP POP POP POP JUMPDEST SWAP3 SWAP2 POP POP JUMP JUMPDEST PUSH2 0x18D5 PUSH2 0x1AEE JUMP JUMPDEST PUSH20 0xFFFFFFFFFFFFFFFFFFFFFFFFFFFFFFFFFFFFFFFF AND PUSH2 0x18F3 PUSH2 0x11AC JUMP JUMPDEST PUSH20 0xFFFFFFFFFFFFFFFFFFFFFFFFFFFFFFFFFFFFFFFF AND EQ PUSH2 0x1949 JUMPI PUSH1 0x40 MLOAD PUSH32 0x8C379A000000000000000000000000000000000000000000000000000000000 DUP2 MSTORE PUSH1 0x4 ADD PUSH2 0x1940 SWAP1 PUSH2 0x1FA6 JUMP JUMPDEST PUSH1 0x40 MLOAD DUP1 SWAP2 SUB SWAP1 REVERT JUMPDEST PUSH2 0x1951 PUSH2 0x11AC JUMP JUMPDEST PUSH20 0xFFFFFFFFFFFFFFFFFFFFFFFFFFFFFFFFFFFFFFFF AND PUSH2 0x8FC SELFBALANCE SWAP1 DUP2 ISZERO MUL SWAP1 PUSH1 0x40 MLOAD PUSH1 0x0 PUSH1 0x40 MLOAD DUP1 DUP4 SUB DUP2 DUP6 DUP9 DUP9 CALL SWAP4 POP POP POP POP ISZERO DUP1 ISZERO PUSH2 0x1996 JUMPI RETURNDATASIZE PUSH1 0x0 DUP1 RETURNDATACOPY RETURNDATASIZE PUSH1 0x0 REVERT JUMPDEST POP JUMP JUMPDEST PUSH1 0xB SLOAD DUP2 JUMP JUMPDEST PUSH2 0x19A7 PUSH2 0x1AEE JUMP JUMPDEST PUSH20 0xFFFFFFFFFFFFFFFFFFFFFFFFFFFFFFFFFFFFFFFF AND PUSH2 0x19C5 PUSH2 0x11AC JUMP JUMPDEST PUSH20 0xFFFFFFFFFFFFFFFFFFFFFFFFFFFFFFFFFFFFFFFF AND EQ PUSH2 0x1A1B JUMPI PUSH1 0x40 MLOAD PUSH32 0x8C379A000000000000000000000000000000000000000000000000000000000 DUP2 MSTORE PUSH1 0x4 ADD PUSH2 0x1A12 SWAP1 PUSH2 0x1FA6 JUMP JUMPDEST PUSH1 0x40 MLOAD DUP1 SWAP2 SUB SWAP1 REVERT JUMPDEST PUSH1 0x0 PUSH20 0xFFFFFFFFFFFFFFFFFFFFFFFFFFFFFFFFFFFFFFFF AND DUP2 PUSH20 0xFFFFFFFFFFFFFFFFFFFFFFFFFFFFFFFFFFFFFFFF AND SUB PUSH2 0x1A8A JUMPI PUSH1 0x40 MLOAD PUSH32 0x8C379A000000000000000000000000000000000000000000000000000000000 DUP2 MSTORE PUSH1 0x4 ADD PUSH2 0x1A81 SWAP1 PUSH2 0x23E8 JUMP JUMPDEST PUSH1 0x40 MLOAD DUP1 SWAP2 SUB SWAP1 REVERT JUMPDEST PUSH2 0x1A93 DUP2 PUSH2 0x1AF6 JUMP JUMPDEST POP JUMP JUMPDEST PUSH1 0x0 DUP2 DUP4 PUSH2 0x1AA4 SWAP2 SWAP1 PUSH2 0x2187 JUMP JUMPDEST SWAP1 POP SWAP3 SWAP2 POP POP JUMP JUMPDEST PUSH1 0x0 DUP2 DUP4 PUSH2 0x1ABA SWAP2 SWAP1 PUSH2 0x224F JUMP JUMPDEST SWAP1 POP SWAP3 SWAP2 POP POP JUMP JUMPDEST PUSH1 0x0 DUP2 DUP4 PUSH2 0x1AD0 SWAP2 SWAP1 PUSH2 0x21EA JUMP JUMPDEST SWAP1 POP SWAP3 SWAP2 POP POP JUMP JUMPDEST PUSH1 0x0 DUP2 DUP4 PUSH2 0x1AE6 SWAP2 SWAP1 PUSH2 0x221B JUMP JUMPDEST SWAP1 POP SWAP3 SWAP2 POP POP JUMP JUMPDEST PUSH1 0x0 CALLER SWAP1 POP SWAP1 JUMP JUMPDEST PUSH1 0x0 PUSH1 0x1 PUSH1 0x0 SWAP1 SLOAD SWAP1 PUSH2 0x100 EXP SWAP1 DIV PUSH20 0xFFFFFFFFFFFFFFFFFFFFFFFFFFFFFFFFFFFFFFFF AND SWAP1 POP DUP2 PUSH1 0x1 PUSH1 0x0 PUSH2 0x100 EXP DUP2 SLOAD DUP2 PUSH20 0xFFFFFFFFFFFFFFFFFFFFFFFFFFFFFFFFFFFFFFFF MUL NOT AND SWAP1 DUP4 PUSH20 0xFFFFFFFFFFFFFFFFFFFFFFFFFFFFFFFFFFFFFFFF AND MUL OR SWAP1 SSTORE POP DUP2 PUSH20 0xFFFFFFFFFFFFFFFFFFFFFFFFFFFFFFFFFFFFFFFF AND DUP2 PUSH20 0xFFFFFFFFFFFFFFFFFFFFFFFFFFFFFFFFFFFFFFFF AND PUSH32 0x8BE0079C531659141344CD1FD0A4F28419497F9722A3DAAFE3B4186F6B6457E0 PUSH1 0x40 MLOAD PUSH1 0x40 MLOAD DUP1 SWAP2 SUB SWAP1 LOG3 POP POP JUMP JUMPDEST PUSH1 0x0 DUP1 PUSH2 0x1BC8 DUP4 PUSH2 0xEB1 JUMP JUMPDEST SWAP1 POP PUSH1 0x0 PUSH2 0x1BE1 PUSH1 0x7 SLOAD DUP4 PUSH2 0x1AC2 SWAP1 SWAP2 SWAP1 PUSH4 0xFFFFFFFF AND JUMP JUMPDEST SWAP1 POP DUP1 SWAP3 POP POP POP SWAP2 SWAP1 POP JUMP JUMPDEST PUSH1 0x0 DUP1 REVERT JUMPDEST PUSH1 0x0 PUSH20 0xFFFFFFFFFFFFFFFFFFFFFFFFFFFFFFFFFFFFFFFF DUP3 AND SWAP1 POP SWAP2 SWAP1 POP JUMP JUMPDEST PUSH1 0x0 PUSH2 0x1C1D DUP3 PUSH2 0x1BF2 JUMP JUMPDEST SWAP1 POP SWAP2 SWAP1 POP JUMP JUMPDEST PUSH2 0x1C2D DUP2 PUSH2 0x1C12 JUMP JUMPDEST DUP2 EQ PUSH2 0x1C38 JUMPI PUSH1 0x0 DUP1 REVERT JUMPDEST POP JUMP JUMPDEST PUSH1 0x0 DUP2 CALLDATALOAD SWAP1 POP PUSH2 0x1C4A DUP2 PUSH2 0x1C24 JUMP JUMPDEST SWAP3 SWAP2 POP POP JUMP JUMPDEST PUSH1 0x0 PUSH1 0x20 DUP3 DUP5 SUB SLT ISZERO PUSH2 0x1C66 JUMPI PUSH2 0x1C65 PUSH2 0x1BED JUMP JUMPDEST JUMPDEST PUSH1 0x0 PUSH2 0x1C74 DUP5 DUP3 DUP6 ADD PUSH2 0x1C3B JUMP JUMPDEST SWAP2 POP POP SWAP3 SWAP2 POP POP JUMP JUMPDEST PUSH1 0x0 DUP2 SWAP1 POP SWAP2 SWAP1 POP JUMP JUMPDEST PUSH2 0x1C90 DUP2 PUSH2 0x1C7D JUMP JUMPDEST DUP3 MSTORE POP POP JUMP JUMPDEST PUSH1 0x0 PUSH1 0x20 DUP3 ADD SWAP1 POP PUSH2 0x1CAB PUSH1 0x0 DUP4 ADD DUP5 PUSH2 0x1C87 JUMP JUMPDEST SWAP3 SWAP2 POP POP JUMP JUMPDEST PUSH2 0x1CBA DUP2 PUSH2 0x1C7D JUMP JUMPDEST DUP2 EQ PUSH2 0x1CC5 JUMPI PUSH1 0x0 DUP1 REVERT JUMPDEST POP JUMP JUMPDEST PUSH1 0x0 DUP2 CALLDATALOAD SWAP1 POP PUSH2 0x1CD7 DUP2 PUSH2 0x1CB1 JUMP JUMPDEST SWAP3 SWAP2 POP POP JUMP JUMPDEST PUSH1 0x0 DUP1 PUSH1 0x0 PUSH1 0x60 DUP5 DUP7 SUB SLT ISZERO PUSH2 0x1CF6 JUMPI PUSH2 0x1CF5 PUSH2 0x1BED JUMP JUMPDEST JUMPDEST PUSH1 0x0 PUSH2 0x1D04 DUP7 DUP3 DUP8 ADD PUSH2 0x1CC8 JUMP JUMPDEST SWAP4 POP POP PUSH1 0x20 PUSH2 0x1D15 DUP7 DUP3 DUP8 ADD PUSH2 0x1CC8 JUMP JUMPDEST SWAP3 POP POP PUSH1 0x40 PUSH2 0x1D26 DUP7 DUP3 DUP8 ADD PUSH2 0x1CC8 JUMP JUMPDEST SWAP2 POP POP SWAP3 POP SWAP3 POP SWAP3 JUMP JUMPDEST PUSH1 0x0 DUP2 ISZERO ISZERO SWAP1 POP SWAP2 SWAP1 POP JUMP JUMPDEST PUSH2 0x1D45 DUP2 PUSH2 0x1D30 JUMP JUMPDEST DUP2 EQ PUSH2 0x1D50 JUMPI PUSH1 0x0 DUP1 REVERT JUMPDEST POP JUMP JUMPDEST PUSH1 0x0 DUP2 CALLDATALOAD SWAP1 POP PUSH2 0x1D62 DUP2 PUSH2 0x1D3C JUMP JUMPDEST SWAP3 SWAP2 POP POP JUMP JUMPDEST PUSH1 0x0 DUP1 PUSH1 0x40 DUP4 DUP6 SUB SLT ISZERO PUSH2 0x1D7F JUMPI PUSH2 0x1D7E PUSH2 0x1BED JUMP JUMPDEST JUMPDEST PUSH1 0x0 PUSH2 0x1D8D DUP6 DUP3 DUP7 ADD PUSH2 0x1C3B JUMP JUMPDEST SWAP3 POP POP PUSH1 0x20 PUSH2 0x1D9E DUP6 DUP3 DUP7 ADD PUSH2 0x1D53 JUMP JUMPDEST SWAP2 POP POP SWAP3 POP SWAP3 SWAP1 POP JUMP JUMPDEST PUSH2 0x1DB1 DUP2 PUSH2 0x1D30 JUMP JUMPDEST DUP3 MSTORE POP POP JUMP JUMPDEST PUSH1 0x0 PUSH1 0x20 DUP3 ADD SWAP1 POP PUSH2 0x1DCC PUSH1 0x0 DUP4 ADD DUP5 PUSH2 0x1DA8 JUMP JUMPDEST SWAP3 SWAP2 POP POP JUMP JUMPDEST PUSH1 0x0 PUSH1 0x20 DUP3 DUP5 SUB SLT ISZERO PUSH2 0x1DE8 JUMPI PUSH2 0x1DE7 PUSH2 0x1BED JUMP JUMPDEST JUMPDEST PUSH1 0x0 PUSH2 0x1DF6 DUP5 DUP3 DUP6 ADD PUSH2 0x1CC8 JUMP JUMPDEST SWAP2 POP POP SWAP3 SWAP2 POP POP JUMP JUMPDEST PUSH2 0x1E08 DUP2 PUSH2 0x1C12 JUMP JUMPDEST DUP3 MSTORE POP POP JUMP JUMPDEST PUSH1 0x0 PUSH1 0x20 DUP3 ADD SWAP1 POP PUSH2 0x1E23 PUSH1 0x0 DUP4 ADD DUP5 PUSH2 0x1DFF JUMP JUMPDEST SWAP3 SWAP2 POP POP JUMP JUMPDEST PUSH1 0x0 DUP1 PUSH1 0x40 DUP4 DUP6 SUB SLT ISZERO PUSH2 0x1E40 JUMPI PUSH2 0x1E3F PUSH2 0x1BED JUMP JUMPDEST JUMPDEST PUSH1 0x0 PUSH2 0x1E4E DUP6 DUP3 DUP7 ADD PUSH2 0x1C3B JUMP JUMPDEST SWAP3 POP POP PUSH1 0x20 PUSH2 0x1E5F DUP6 DUP3 DUP7 ADD PUSH2 0x1CC8 JUMP JUMPDEST SWAP2 POP POP SWAP3 POP SWAP3 SWAP1 POP JUMP JUMPDEST PUSH1 0x0 DUP2 SWAP1 POP SWAP2 SWAP1 POP JUMP JUMPDEST PUSH1 0x0 PUSH2 0x1E8E PUSH2 0x1E89 PUSH2 0x1E84 DUP5 PUSH2 0x1BF2 JUMP JUMPDEST PUSH2 0x1E69 JUMP JUMPDEST PUSH2 0x1BF2 JUMP JUMPDEST SWAP1 POP SWAP2 SWAP1 POP JUMP JUMPDEST PUSH1 0x0 PUSH2 0x1EA0 DUP3 PUSH2 0x1E73 JUMP JUMPDEST SWAP1 POP SWAP2 SWAP1 POP JUMP JUMPDEST PUSH1 0x0 PUSH2 0x1EB2 DUP3 PUSH2 0x1E95 JUMP JUMPDEST SWAP1 POP SWAP2 SWAP1 POP JUMP JUMPDEST PUSH2 0x1EC2 DUP2 PUSH2 0x1EA7 JUMP JUMPDEST DUP3 MSTORE POP POP JUMP JUMPDEST PUSH1 0x0 PUSH1 0x20 DUP3 ADD SWAP1 POP PUSH2 0x1EDD PUSH1 0x0 DUP4 ADD DUP5 PUSH2 0x1EB9 JUMP JUMPDEST SWAP3 SWAP2 POP POP JUMP JUMPDEST PUSH1 0x0 DUP1 PUSH1 0x40 DUP4 DUP6 SUB SLT ISZERO PUSH2 0x1EFA JUMPI PUSH2 0x1EF9 PUSH2 0x1BED JUMP JUMPDEST JUMPDEST PUSH1 0x0 PUSH2 0x1F08 DUP6 DUP3 DUP7 ADD PUSH2 0x1CC8 JUMP JUMPDEST SWAP3 POP POP PUSH1 0x20 PUSH2 0x1F19 DUP6 DUP3 DUP7 ADD PUSH2 0x1CC8 JUMP JUMPDEST SWAP2 POP POP SWAP3 POP SWAP3 SWAP1 POP JUMP JUMPDEST PUSH1 0x0 DUP3 DUP3 MSTORE PUSH1 0x20 DUP3 ADD SWAP1 POP SWAP3 SWAP2 POP POP JUMP JUMPDEST PUSH32 0x41646D696E61626C653A2063616C6C6572206973206E6F7420746865206F776E PUSH1 0x0 DUP3 ADD MSTORE PUSH32 0x6572000000000000000000000000000000000000000000000000000000000000 PUSH1 0x20 DUP3 ADD MSTORE POP JUMP JUMPDEST PUSH1 0x0 PUSH2 0x1F90 PUSH1 0x22 DUP4 PUSH2 0x1F23 JUMP JUMPDEST SWAP2 POP PUSH2 0x1F9B DUP3 PUSH2 0x1F34 JUMP JUMPDEST PUSH1 0x40 DUP3 ADD SWAP1 POP SWAP2 SWAP1 POP JUMP JUMPDEST PUSH1 0x0 PUSH1 0x20 DUP3 ADD SWAP1 POP DUP2 DUP2 SUB PUSH1 0x0 DUP4 ADD MSTORE PUSH2 0x1FBF DUP2 PUSH2 0x1F83 JUMP JUMPDEST SWAP1 POP SWAP2 SWAP1 POP JUMP JUMPDEST PUSH1 0x0 PUSH1 0x40 DUP3 ADD SWAP1 POP PUSH2 0x1FDB PUSH1 0x0 DUP4 ADD DUP6 PUSH2 0x1DA8 JUMP JUMPDEST PUSH2 0x1FE8 PUSH1 0x20 DUP4 ADD DUP5 PUSH2 0x1DA8 JUMP JUMPDEST SWAP4 SWAP3 POP POP POP JUMP JUMPDEST PUSH32 0x5265656E7472616E637947756172643A207265656E7472616E742063616C6C00 PUSH1 0x0 DUP3 ADD MSTORE POP JUMP JUMPDEST PUSH1 0x0 PUSH2 0x2025 PUSH1 0x1F DUP4 PUSH2 0x1F23 JUMP JUMPDEST SWAP2 POP PUSH2 0x2030 DUP3 PUSH2 0x1FEF JUMP JUMPDEST PUSH1 0x20 DUP3 ADD SWAP1 POP SWAP2 SWAP1 POP JUMP JUMPDEST PUSH1 0x0 PUSH1 0x20 DUP3 ADD SWAP1 POP DUP2 DUP2 SUB PUSH1 0x0 DUP4 ADD MSTORE PUSH2 0x2054 DUP2 PUSH2 0x2018 JUMP JUMPDEST SWAP1 POP SWAP2 SWAP1 POP JUMP JUMPDEST PUSH1 0x0 PUSH1 0x40 DUP3 ADD SWAP1 POP PUSH2 0x2070 PUSH1 0x0 DUP4 ADD DUP6 PUSH2 0x1DFF JUMP JUMPDEST PUSH2 0x207D PUSH1 0x20 DUP4 ADD DUP5 PUSH2 0x1C87 JUMP JUMPDEST SWAP4 SWAP3 POP POP POP JUMP JUMPDEST PUSH1 0x0 DUP2 MLOAD SWAP1 POP PUSH2 0x2093 DUP2 PUSH2 0x1D3C JUMP JUMPDEST SWAP3 SWAP2 POP POP JUMP JUMPDEST PUSH1 0x0 PUSH1 0x20 DUP3 DUP5 SUB SLT ISZERO PUSH2 0x20AF JUMPI PUSH2 0x20AE PUSH2 0x1BED JUMP JUMPDEST JUMPDEST PUSH1 0x0 PUSH2 0x20BD DUP5 DUP3 DUP6 ADD PUSH2 0x2084 JUMP JUMPDEST SWAP2 POP POP SWAP3 SWAP2 POP POP JUMP JUMPDEST PUSH32 0x41646D696E61626C653A2063616C6C6572206973206E6F74207468652061646D PUSH1 0x0 DUP3 ADD MSTORE PUSH32 0x696E000000000000000000000000000000000000000000000000000000000000 PUSH1 0x20 DUP3 ADD MSTORE POP JUMP JUMPDEST PUSH1 0x0 PUSH2 0x2122 PUSH1 0x22 DUP4 PUSH2 0x1F23 JUMP JUMPDEST SWAP2 POP PUSH2 0x212D DUP3 PUSH2 0x20C6 JUMP JUMPDEST PUSH1 0x40 DUP3 ADD SWAP1 POP SWAP2 SWAP1 POP JUMP JUMPDEST PUSH1 0x0 PUSH1 0x20 DUP3 ADD SWAP1 POP DUP2 DUP2 SUB PUSH1 0x0 DUP4 ADD MSTORE PUSH2 0x2151 DUP2 PUSH2 0x2115 JUMP JUMPDEST SWAP1 POP SWAP2 SWAP1 POP JUMP JUMPDEST PUSH32 0x4E487B7100000000000000000000000000000000000000000000000000000000 PUSH1 0x0 MSTORE PUSH1 0x11 PUSH1 0x4 MSTORE PUSH1 0x24 PUSH1 0x0 REVERT JUMPDEST PUSH1 0x0 PUSH2 0x2192 DUP3 PUSH2 0x1C7D JUMP JUMPDEST SWAP2 POP PUSH2 0x219D DUP4 PUSH2 0x1C7D JUMP JUMPDEST SWAP3 POP DUP3 DUP3 SUB SWAP1 POP DUP2 DUP2 GT ISZERO PUSH2 0x21B5 JUMPI PUSH2 0x21B4 PUSH2 0x2158 JUMP JUMPDEST JUMPDEST SWAP3 SWAP2 POP POP JUMP JUMPDEST PUSH32 0x4E487B7100000000000000000000000000000000000000000000000000000000 PUSH1 0x0 MSTORE PUSH1 0x12 PUSH1 0x4 MSTORE PUSH1 0x24 PUSH1 0x0 REVERT JUMPDEST PUSH1 0x0 PUSH2 0x21F5 DUP3 PUSH2 0x1C7D JUMP JUMPDEST SWAP2 POP PUSH2 0x2200 DUP4 PUSH2 0x1C7D JUMP JUMPDEST SWAP3 POP DUP3 PUSH2 0x2210 JUMPI PUSH2 0x220F PUSH2 0x21BB JUMP JUMPDEST JUMPDEST DUP3 DUP3 DIV SWAP1 POP SWAP3 SWAP2 POP POP JUMP JUMPDEST PUSH1 0x0 PUSH2 0x2226 DUP3 PUSH2 0x1C7D JUMP JUMPDEST SWAP2 POP PUSH2 0x2231 DUP4 PUSH2 0x1C7D JUMP JUMPDEST SWAP3 POP DUP3 DUP3 ADD SWAP1 POP DUP1 DUP3 GT ISZERO PUSH2 0x2249 JUMPI PUSH2 0x2248 PUSH2 0x2158 JUMP JUMPDEST JUMPDEST SWAP3 SWAP2 POP POP JUMP JUMPDEST PUSH1 0x0 PUSH2 0x225A DUP3 PUSH2 0x1C7D JUMP JUMPDEST SWAP2 POP PUSH2 0x2265 DUP4 PUSH2 0x1C7D JUMP JUMPDEST SWAP3 POP DUP3 DUP3 MUL PUSH2 0x2273 DUP2 PUSH2 0x1C7D JUMP JUMPDEST SWAP2 POP DUP3 DUP3 DIV DUP5 EQ DUP4 ISZERO OR PUSH2 0x228A JUMPI PUSH2 0x2289 PUSH2 0x2158 JUMP JUMPDEST JUMPDEST POP SWAP3 SWAP2 POP POP JUMP JUMPDEST PUSH1 0x0 PUSH2 0x229C DUP3 PUSH2 0x1C7D JUMP JUMPDEST SWAP2 POP PUSH32 0xFFFFFFFFFFFFFFFFFFFFFFFFFFFFFFFFFFFFFFFFFFFFFFFFFFFFFFFFFFFFFFFF DUP3 SUB PUSH2 0x22CE JUMPI PUSH2 0x22CD PUSH2 0x2158 JUMP JUMPDEST JUMPDEST PUSH1 0x1 DUP3 ADD SWAP1 POP SWAP2 SWAP1 POP JUMP JUMPDEST PUSH32 0x43616E6E6F74207374616B652030000000000000000000000000000000000000 PUSH1 0x0 DUP3 ADD MSTORE POP JUMP JUMPDEST PUSH1 0x0 PUSH2 0x230F PUSH1 0xE DUP4 PUSH2 0x1F23 JUMP JUMPDEST SWAP2 POP PUSH2 0x231A DUP3 PUSH2 0x22D9 JUMP JUMPDEST PUSH1 0x20 DUP3 ADD SWAP1 POP SWAP2 SWAP1 POP JUMP JUMPDEST PUSH1 0x0 PUSH1 0x20 DUP3 ADD SWAP1 POP DUP2 DUP2 SUB PUSH1 0x0 DUP4 ADD MSTORE PUSH2 0x233E DUP2 PUSH2 0x2302 JUMP JUMPDEST SWAP1 POP SWAP2 SWAP1 POP JUMP JUMPDEST PUSH1 0x0 PUSH2 0x2350 DUP3 PUSH2 0x1C7D JUMP JUMPDEST SWAP2 POP PUSH2 0x235B DUP4 PUSH2 0x1C7D JUMP JUMPDEST SWAP3 POP DUP3 PUSH2 0x236B JUMPI PUSH2 0x236A PUSH2 0x21BB JUMP JUMPDEST JUMPDEST DUP3 DUP3 MOD SWAP1 POP SWAP3 SWAP2 POP POP JUMP JUMPDEST PUSH32 0x4F776E61626C653A206E6577206F776E657220697320746865207A65726F2061 PUSH1 0x0 DUP3 ADD MSTORE PUSH32 0x6464726573730000000000000000000000000000000000000000000000000000 PUSH1 0x20 DUP3 ADD MSTORE POP JUMP JUMPDEST PUSH1 0x0 PUSH2 0x23D2 PUSH1 0x26 DUP4 PUSH2 0x1F23 JUMP JUMPDEST SWAP2 POP PUSH2 0x23DD DUP3 PUSH2 0x2376 JUMP JUMPDEST PUSH1 0x40 DUP3 ADD SWAP1 POP SWAP2 SWAP1 POP JUMP JUMPDEST PUSH1 0x0 PUSH1 0x20 DUP3 ADD SWAP1 POP DUP2 DUP2 SUB PUSH1 0x0 DUP4 ADD MSTORE PUSH2 0x2401 DUP2 PUSH2 0x23C5 JUMP JUMPDEST SWAP1 POP SWAP2 SWAP1 POP JUMP INVALID LOG2 PUSH5 0x6970667358 0x22 SLT KECCAK256 SSTORE MLOAD 0xCF 0xB9 SWAP15 SWAP3 PUSH20 0x3BFBBB27C885169177A61D7F27E6A97571B9EE9A 0xB9 0xD6 SMOD SHR 0xAA PUSH5 0x736F6C6343 STOP ADDMOD GT STOP CALLER "
				},
				"gasEstimates": {
					"creation": {
						"codeDepositCost": "1855600",
						"executionCost": "infinite",
						"totalCost": "infinite"
					},
					"external": {
						"curTime()": "425",
						"earned(address)": "infinite",
						"emergencyWithdraw()": "infinite",
						"emergencyWithdrawToken(address,uint256)": "infinite",
						"getCurRewardPool()": "infinite",
						"getCurRewardRate()": "infinite",
						"getRemainPool(uint256)": "infinite",
						"getReward()": "infinite",
						"getRewardPool(uint256)": "infinite",
						"getTimeWeightedAveRate(uint256,uint256)": "infinite",
						"isAdmin(address)": "2951",
						"lastTimeRewardApplicable()": "469",
						"lastUpdateTime()": "2518",
						"modificationAdmin(address,bool)": "infinite",
						"owner()": "2567",
						"powersOf(address)": "2908",
						"rateInterval()": "2541",
						"rateIntervalDenominator()": "2540",
						"rateIntervalNumerator()": "2519",
						"renounceOwnership()": "30441",
						"rewardPerToken(uint256)": "infinite",
						"rewardPerTokenStored()": "2539",
						"rewards(address)": "2883",
						"rewardsToken()": "infinite",
						"setConfig(uint256,uint256,uint256)": "infinite",
						"setRewardToken(address)": "27052",
						"setStartTime(uint256)": "24886",
						"stake(address,uint256)": "infinite",
						"startTime()": "2518",
						"totalPowers()": "2482",
						"totalRewards()": "2520",
						"transferOwnership(address)": "30852",
						"userLastUpdateTime(address)": "2860",
						"userRewardPerTokenPaid(address)": "2926"
					},
					"internal": {
						"_getRemainPool(uint256)": "infinite",
						"_getRewardRate(uint256)": "infinite"
					}
				},
				"methodIdentifiers": {
					"curTime()": "9a5b17b0",
					"earned(address)": "008cc262",
					"emergencyWithdraw()": "db2e21bc",
					"emergencyWithdrawToken(address,uint256)": "a4c3b091",
					"getCurRewardPool()": "9499c549",
					"getCurRewardRate()": "cdda56e0",
					"getRemainPool(uint256)": "4dbdc4eb",
					"getReward()": "3d18b912",
					"getRewardPool(uint256)": "5cfa91f4",
					"getTimeWeightedAveRate(uint256,uint256)": "da4f8431",
					"isAdmin(address)": "24d7806c",
					"lastTimeRewardApplicable()": "80faa57d",
					"lastUpdateTime()": "c8f33c91",
					"modificationAdmin(address,bool)": "18e20ecf",
					"owner()": "8da5cb5b",
					"powersOf(address)": "b79ec812",
					"rateInterval()": "6139d4b4",
					"rateIntervalDenominator()": "7a6fcee7",
					"rateIntervalNumerator()": "3c4045cf",
					"renounceOwnership()": "715018a6",
					"rewardPerToken(uint256)": "874c120b",
					"rewardPerTokenStored()": "df136d65",
					"rewards(address)": "0700037d",
					"rewardsToken()": "d1af0c7d",
					"setConfig(uint256,uint256,uint256)": "129ee21a",
					"setRewardToken(address)": "8aee8127",
					"setStartTime(uint256)": "3e0a322d",
					"stake(address,uint256)": "adc9772e",
					"startTime()": "78e97925",
					"totalPowers()": "6917c501",
					"totalRewards()": "0e15561a",
					"transferOwnership(address)": "f2fde38b",
					"userLastUpdateTime(address)": "8107368b",
					"userRewardPerTokenPaid(address)": "8b876347"
				}
			},
			"storageLayout": {
				"storage": [
					{
						"astId": 26,
						"contract": "inviter_presell/stake.sol:StakingRewards",
						"label": "_admins",
						"offset": 0,
						"slot": "0",
						"type": "t_mapping(t_address,t_bool)"
					},
					{
						"astId": 28,
						"contract": "inviter_presell/stake.sol:StakingRewards",
						"label": "_owner",
						"offset": 0,
						"slot": "1",
						"type": "t_address"
					},
					{
						"astId": 996,
						"contract": "inviter_presell/stake.sol:StakingRewards",
						"label": "_status",
						"offset": 0,
						"slot": "2",
						"type": "t_uint256"
					},
					{
						"astId": 192,
						"contract": "inviter_presell/stake.sol:StakingRewards",
						"label": "rewardsToken",
						"offset": 0,
						"slot": "3",
						"type": "t_contract(IERC20)1103"
					},
					{
						"astId": 196,
						"contract": "inviter_presell/stake.sol:StakingRewards",
						"label": "rewards",
						"offset": 0,
						"slot": "4",
						"type": "t_mapping(t_address,t_uint256)"
					},
					{
						"astId": 203,
						"contract": "inviter_presell/stake.sol:StakingRewards",
						"label": "totalRewards",
						"offset": 0,
						"slot": "5",
						"type": "t_uint256"
					},
					{
						"astId": 205,
						"contract": "inviter_presell/stake.sol:StakingRewards",
						"label": "startTime",
						"offset": 0,
						"slot": "6",
						"type": "t_uint256"
					},
					{
						"astId": 208,
						"contract": "inviter_presell/stake.sol:StakingRewards",
						"label": "rateInterval",
						"offset": 0,
						"slot": "7",
						"type": "t_uint256"
					},
					{
						"astId": 211,
						"contract": "inviter_presell/stake.sol:StakingRewards",
						"label": "rateIntervalNumerator",
						"offset": 0,
						"slot": "8",
						"type": "t_uint256"
					},
					{
						"astId": 214,
						"contract": "inviter_presell/stake.sol:StakingRewards",
						"label": "rateIntervalDenominator",
						"offset": 0,
						"slot": "9",
						"type": "t_uint256"
					},
					{
						"astId": 216,
						"contract": "inviter_presell/stake.sol:StakingRewards",
						"label": "lastUpdateTime",
						"offset": 0,
						"slot": "10",
						"type": "t_uint256"
					},
					{
						"astId": 218,
						"contract": "inviter_presell/stake.sol:StakingRewards",
						"label": "rewardPerTokenStored",
						"offset": 0,
						"slot": "11",
						"type": "t_uint256"
					},
					{
						"astId": 222,
						"contract": "inviter_presell/stake.sol:StakingRewards",
						"label": "userRewardPerTokenPaid",
						"offset": 0,
						"slot": "12",
						"type": "t_mapping(t_address,t_uint256)"
					},
					{
						"astId": 226,
						"contract": "inviter_presell/stake.sol:StakingRewards",
						"label": "userLastUpdateTime",
						"offset": 0,
						"slot": "13",
						"type": "t_mapping(t_address,t_uint256)"
					},
					{
						"astId": 228,
						"contract": "inviter_presell/stake.sol:StakingRewards",
						"label": "_totalPowers",
						"offset": 0,
						"slot": "14",
						"type": "t_uint256"
					},
					{
						"astId": 232,
						"contract": "inviter_presell/stake.sol:StakingRewards",
						"label": "_balances",
						"offset": 0,
						"slot": "15",
						"type": "t_mapping(t_address,t_uint256)"
					}
				],
				"types": {
					"t_address": {
						"encoding": "inplace",
						"label": "address",
						"numberOfBytes": "20"
					},
					"t_bool": {
						"encoding": "inplace",
						"label": "bool",
						"numberOfBytes": "1"
					},
					"t_contract(IERC20)1103": {
						"encoding": "inplace",
						"label": "contract IERC20",
						"numberOfBytes": "20"
					},
					"t_mapping(t_address,t_bool)": {
						"encoding": "mapping",
						"key": "t_address",
						"label": "mapping(address => bool)",
						"numberOfBytes": "32",
						"value": "t_bool"
					},
					"t_mapping(t_address,t_uint256)": {
						"encoding": "mapping",
						"key": "t_address",
						"label": "mapping(address => uint256)",
						"numberOfBytes": "32",
						"value": "t_uint256"
					},
					"t_uint256": {
						"encoding": "inplace",
						"label": "uint256",
						"numberOfBytes": "32"
					}
				}
			},
			"userdoc": {
				"kind": "user",
				"methods": {},
				"version": 1
			}
		}
	}
}