{
	"inviter_presell/stake.sol": {
		"StakingRewards": {
			"abi": [
				{
					"anonymous": false,
					"inputs": [
						{
							"indexed": true,
							"internalType": "address",
							"name": "admin",
							"type": "address"
						},
						{
							"indexed": false,
							"internalType": "bool",
							"name": "oldState",
							"type": "bool"
						},
						{
							"indexed": false,
							"internalType": "bool",
							"name": "newState",
							"type": "bool"
						}
					],
					"name": "ModificationAdmin",
					"type": "event"
				},
				{
					"anonymous": false,
					"inputs": [
						{
							"indexed": true,
							"internalType": "address",
							"name": "previousOwner",
							"type": "address"
						},
						{
							"indexed": true,
							"internalType": "address",
							"name": "newOwner",
							"type": "address"
						}
					],
					"name": "OwnershipTransferred",
					"type": "event"
				},
				{
					"anonymous": false,
					"inputs": [
						{
							"indexed": true,
							"internalType": "address",
							"name": "user",
							"type": "address"
						},
						{
							"indexed": false,
							"internalType": "uint256",
							"name": "reward",
							"type": "uint256"
						}
					],
					"name": "RewardPaid",
					"type": "event"
				},
				{
					"anonymous": false,
					"inputs": [
						{
							"indexed": true,
							"internalType": "address",
							"name": "user",
							"type": "address"
						},
						{
							"indexed": false,
							"internalType": "uint256",
							"name": "amount",
							"type": "uint256"
						}
					],
					"name": "Staked",
					"type": "event"
				},
				{
					"inputs": [
						{
							"internalType": "address",
							"name": "",
							"type": "address"
						}
					],
					"name": "claimedBalances",
					"outputs": [
						{
							"internalType": "uint256",
							"name": "",
							"type": "uint256"
						}
					],
					"stateMutability": "view",
					"type": "function"
				},
				{
					"inputs": [],
					"name": "curTime",
					"outputs": [
						{
							"internalType": "uint256",
							"name": "",
							"type": "uint256"
						}
					],
					"stateMutability": "view",
					"type": "function"
				},
				{
					"inputs": [
						{
							"internalType": "address",
							"name": "account",
							"type": "address"
						}
					],
					"name": "earned",
					"outputs": [
						{
							"internalType": "uint256",
							"name": "",
							"type": "uint256"
						}
					],
					"stateMutability": "view",
					"type": "function"
				},
				{
					"inputs": [],
					"name": "emergencyWithdraw",
					"outputs": [],
					"stateMutability": "nonpayable",
					"type": "function"
				},
				{
					"inputs": [
						{
							"internalType": "address",
							"name": "token",
							"type": "address"
						},
						{
							"internalType": "uint256",
							"name": "amount",
							"type": "uint256"
						}
					],
					"name": "emergencyWithdrawToken",
					"outputs": [],
					"stateMutability": "nonpayable",
					"type": "function"
				},
				{
					"inputs": [],
					"name": "getCurRewardPool",
					"outputs": [
						{
							"internalType": "uint256",
							"name": "",
							"type": "uint256"
						}
					],
					"stateMutability": "view",
					"type": "function"
				},
				{
					"inputs": [],
					"name": "getCurRewardRate",
					"outputs": [
						{
							"internalType": "uint256",
							"name": "",
							"type": "uint256"
						}
					],
					"stateMutability": "view",
					"type": "function"
				},
				{
					"inputs": [
						{
							"internalType": "uint256",
							"name": "time",
							"type": "uint256"
						}
					],
					"name": "getRemainPool",
					"outputs": [
						{
							"internalType": "uint256",
							"name": "",
							"type": "uint256"
						}
					],
					"stateMutability": "view",
					"type": "function"
				},
				{
					"inputs": [],
					"name": "getReward",
					"outputs": [],
					"stateMutability": "nonpayable",
					"type": "function"
				},
				{
					"inputs": [
						{
							"internalType": "uint256",
							"name": "time",
							"type": "uint256"
						}
					],
					"name": "getRewardPool",
					"outputs": [
						{
							"internalType": "uint256",
							"name": "",
							"type": "uint256"
						}
					],
					"stateMutability": "view",
					"type": "function"
				},
				{
					"inputs": [
						{
							"internalType": "uint256",
							"name": "leftTime",
							"type": "uint256"
						},
						{
							"internalType": "uint256",
							"name": "rightTime",
							"type": "uint256"
						}
					],
					"name": "getTimeWeightedAveRate",
					"outputs": [
						{
							"internalType": "uint256",
							"name": "",
							"type": "uint256"
						}
					],
					"stateMutability": "view",
					"type": "function"
				},
				{
					"inputs": [
						{
							"internalType": "address",
							"name": "account",
							"type": "address"
						}
					],
					"name": "isAdmin",
					"outputs": [
						{
							"internalType": "bool",
							"name": "",
							"type": "bool"
						}
					],
					"stateMutability": "view",
					"type": "function"
				},
				{
					"inputs": [],
					"name": "lastTimeRewardApplicable",
					"outputs": [
						{
							"internalType": "uint256",
							"name": "",
							"type": "uint256"
						}
					],
					"stateMutability": "view",
					"type": "function"
				},
				{
					"inputs": [],
					"name": "lastUpdateTime",
					"outputs": [
						{
							"internalType": "uint256",
							"name": "",
							"type": "uint256"
						}
					],
					"stateMutability": "view",
					"type": "function"
				},
				{
					"inputs": [
						{
							"internalType": "address",
							"name": "admin",
							"type": "address"
						},
						{
							"internalType": "bool",
							"name": "state",
							"type": "bool"
						}
					],
					"name": "modificationAdmin",
					"outputs": [],
					"stateMutability": "nonpayable",
					"type": "function"
				},
				{
					"inputs": [],
					"name": "owner",
					"outputs": [
						{
							"internalType": "address",
							"name": "",
							"type": "address"
						}
					],
					"stateMutability": "view",
					"type": "function"
				},
				{
					"inputs": [
						{
							"internalType": "address",
							"name": "account",
							"type": "address"
						}
					],
					"name": "powersOf",
					"outputs": [
						{
							"internalType": "uint256",
							"name": "",
							"type": "uint256"
						}
					],
					"stateMutability": "view",
					"type": "function"
				},
				{
					"inputs": [],
					"name": "rateInterval",
					"outputs": [
						{
							"internalType": "uint256",
							"name": "",
							"type": "uint256"
						}
					],
					"stateMutability": "view",
					"type": "function"
				},
				{
					"inputs": [],
					"name": "rateIntervalDenominator",
					"outputs": [
						{
							"internalType": "uint256",
							"name": "",
							"type": "uint256"
						}
					],
					"stateMutability": "view",
					"type": "function"
				},
				{
					"inputs": [],
					"name": "rateIntervalNumerator",
					"outputs": [
						{
							"internalType": "uint256",
							"name": "",
							"type": "uint256"
						}
					],
					"stateMutability": "view",
					"type": "function"
				},
				{
					"inputs": [],
					"name": "renounceOwnership",
					"outputs": [],
					"stateMutability": "nonpayable",
					"type": "function"
				},
				{
					"inputs": [
						{
							"internalType": "uint256",
							"name": "rewardRate",
							"type": "uint256"
						}
					],
					"name": "rewardPerToken",
					"outputs": [
						{
							"internalType": "uint256",
							"name": "",
							"type": "uint256"
						}
					],
					"stateMutability": "view",
					"type": "function"
				},
				{
					"inputs": [],
					"name": "rewardPerTokenStored",
					"outputs": [
						{
							"internalType": "uint256",
							"name": "",
							"type": "uint256"
						}
					],
					"stateMutability": "view",
					"type": "function"
				},
				{
					"inputs": [
						{
							"internalType": "address",
							"name": "",
							"type": "address"
						}
					],
					"name": "rewards",
					"outputs": [
						{
							"internalType": "uint256",
							"name": "",
							"type": "uint256"
						}
					],
					"stateMutability": "view",
					"type": "function"
				},
				{
					"inputs": [],
					"name": "rewardsToken",
					"outputs": [
						{
							"internalType": "contract IERC20",
							"name": "",
							"type": "address"
						}
					],
					"stateMutability": "view",
					"type": "function"
				},
				{
					"inputs": [
						{
							"internalType": "uint256",
							"name": "_rateInterval",
							"type": "uint256"
						},
						{
							"internalType": "uint256",
							"name": "_rateIntervalNumerator",
							"type": "uint256"
						},
						{
							"internalType": "uint256",
							"name": "_rateIntervalDenominator",
							"type": "uint256"
						}
					],
					"name": "setConfig",
					"outputs": [],
					"stateMutability": "nonpayable",
					"type": "function"
				},
				{
					"inputs": [
						{
							"internalType": "address",
							"name": "token",
							"type": "address"
						}
					],
					"name": "setRewardToken",
					"outputs": [],
					"stateMutability": "nonpayable",
					"type": "function"
				},
				{
					"inputs": [
						{
							"internalType": "uint256",
							"name": "time",
							"type": "uint256"
						}
					],
					"name": "setStartTime",
					"outputs": [],
					"stateMutability": "nonpayable",
					"type": "function"
				},
				{
					"inputs": [
						{
							"internalType": "address",
							"name": "user",
							"type": "address"
						},
						{
							"internalType": "uint256",
							"name": "amount",
							"type": "uint256"
						}
					],
					"name": "stake",
					"outputs": [],
					"stateMutability": "nonpayable",
					"type": "function"
				},
				{
					"inputs": [],
					"name": "startTime",
					"outputs": [
						{
							"internalType": "uint256",
							"name": "",
							"type": "uint256"
						}
					],
					"stateMutability": "view",
					"type": "function"
				},
				{
					"inputs": [],
					"name": "totalPowers",
					"outputs": [
						{
							"internalType": "uint256",
							"name": "",
							"type": "uint256"
						}
					],
					"stateMutability": "view",
					"type": "function"
				},
				{
					"inputs": [],
					"name": "totalRewards",
					"outputs": [
						{
							"internalType": "uint256",
							"name": "",
							"type": "uint256"
						}
					],
					"stateMutability": "view",
					"type": "function"
				},
				{
					"inputs": [
						{
							"internalType": "address",
							"name": "newOwner",
							"type": "address"
						}
					],
					"name": "transferOwnership",
					"outputs": [],
					"stateMutability": "nonpayable",
					"type": "function"
				},
				{
					"inputs": [
						{
							"internalType": "address",
							"name": "",
							"type": "address"
						}
					],
					"name": "userLastUpdateTime",
					"outputs": [
						{
							"internalType": "uint256",
							"name": "",
							"type": "uint256"
						}
					],
					"stateMutability": "view",
					"type": "function"
				},
				{
					"inputs": [
						{
							"internalType": "address",
							"name": "",
							"type": "address"
						}
					],
					"name": "userRewardPerTokenPaid",
					"outputs": [
						{
							"internalType": "uint256",
							"name": "",
							"type": "uint256"
						}
					],
					"stateMutability": "view",
					"type": "function"
				}
			],
			"devdoc": {
				"kind": "dev",
				"methods": {},
				"version": 1
			},
			"evm": {
				"assembly": "    /* \"inviter_presell/stake.sol\":371:7813  contract StakingRewards is Adminable , ReentrancyGuard{... */\n  mstore(0x40, 0x80)\n    /* \"inviter_presell/stake.sol\":581:598  168000 * 10 ** 18 */\n  0x23934c5a09da19000000\n    /* \"inviter_presell/stake.sol\":551:598  uint256 public totalRewards = 168000 * 10 ** 18 */\n  0x05\n  sstore\n    /* \"inviter_presell/stake.sol\":666:676  10 minutes */\n  0x0258\n    /* \"inviter_presell/stake.sol\":636:676  uint256 public rateInterval = 10 minutes */\n  0x07\n  sstore\n    /* \"inviter_presell/stake.sol\":722:723  5 */\n  0x05\n    /* \"inviter_presell/stake.sol\":683:723  uint256 public rateIntervalNumerator = 5 */\n  0x08\n  sstore\n    /* \"inviter_presell/stake.sol\":771:775  1000 */\n  0x03e8\n    /* \"inviter_presell/stake.sol\":730:775  uint256 public rateIntervalDenominator = 1000 */\n  0x09\n  sstore\n    /* \"inviter_presell/stake.sol\":371:7813  contract StakingRewards is Adminable , ReentrancyGuard{... */\n  callvalue\n  dup1\n  iszero\n  tag_1\n  jumpi\n  0x00\n  dup1\n  revert\ntag_1:\n  pop\n    /* \"inviter_presell/adminable.sol\":603:635  _transferOwnership(_msgSender()) */\n  tag_5\n    /* \"inviter_presell/adminable.sol\":622:634  _msgSender() */\n  tag_6\n    /* \"inviter_presell/adminable.sol\":622:632  _msgSender */\n  shl(0x20, tag_7)\n    /* \"inviter_presell/adminable.sol\":622:634  _msgSender() */\n  0x20\n  shr\n  jump\t// in\ntag_6:\n    /* \"inviter_presell/adminable.sol\":603:621  _transferOwnership */\n  shl(0x20, tag_8)\n    /* \"inviter_presell/adminable.sol\":603:635  _transferOwnership(_msgSender()) */\n  0x20\n  shr\n  jump\t// in\ntag_5:\n    /* \"node_modules/@openzeppelin/contracts/security/ReentrancyGuard.sol\":1701:1702  1 */\n  0x01\n    /* \"node_modules/@openzeppelin/contracts/security/ReentrancyGuard.sol\":1806:1813  _status */\n  0x02\n    /* \"node_modules/@openzeppelin/contracts/security/ReentrancyGuard.sol\":1806:1828  _status = _NOT_ENTERED */\n  dup2\n  swap1\n  sstore\n  pop\n    /* \"inviter_presell/stake.sol\":371:7813  contract StakingRewards is Adminable , ReentrancyGuard{... */\n  jump(tag_10)\n    /* \"inviter_presell/adminable.sol\":63:161  function _msgSender() internal view virtual returns (address) {... */\ntag_7:\n    /* \"inviter_presell/adminable.sol\":116:123  address */\n  0x00\n    /* \"inviter_presell/adminable.sol\":143:153  msg.sender */\n  caller\n    /* \"inviter_presell/adminable.sol\":136:153  return msg.sender */\n  swap1\n  pop\n    /* \"inviter_presell/adminable.sol\":63:161  function _msgSender() internal view virtual returns (address) {... */\n  swap1\n  jump\t// out\n    /* \"inviter_presell/adminable.sol\":1443:1634  function _transferOwnership(address newOwner) internal virtual {... */\ntag_8:\n    /* \"inviter_presell/adminable.sol\":1517:1533  address oldOwner */\n  0x00\n    /* \"inviter_presell/adminable.sol\":1536:1542  _owner */\n  0x01\n  0x00\n  swap1\n  sload\n  swap1\n  0x0100\n  exp\n  swap1\n  div\n  0xffffffffffffffffffffffffffffffffffffffff\n  and\n    /* \"inviter_presell/adminable.sol\":1517:1542  address oldOwner = _owner */\n  swap1\n  pop\n    /* \"inviter_presell/adminable.sol\":1562:1570  newOwner */\n  dup2\n    /* \"inviter_presell/adminable.sol\":1553:1559  _owner */\n  0x01\n  0x00\n    /* \"inviter_presell/adminable.sol\":1553:1570  _owner = newOwner */\n  0x0100\n  exp\n  dup2\n  sload\n  dup2\n  0xffffffffffffffffffffffffffffffffffffffff\n  mul\n  not\n  and\n  swap1\n  dup4\n  0xffffffffffffffffffffffffffffffffffffffff\n  and\n  mul\n  or\n  swap1\n  sstore\n  pop\n    /* \"inviter_presell/adminable.sol\":1617:1625  newOwner */\n  dup2\n    /* \"inviter_presell/adminable.sol\":1586:1626  OwnershipTransferred(oldOwner, newOwner) */\n  0xffffffffffffffffffffffffffffffffffffffff\n  and\n    /* \"inviter_presell/adminable.sol\":1607:1615  oldOwner */\n  dup2\n    /* \"inviter_presell/adminable.sol\":1586:1626  OwnershipTransferred(oldOwner, newOwner) */\n  0xffffffffffffffffffffffffffffffffffffffff\n  and\n  0x8be0079c531659141344cd1fd0a4f28419497f9722a3daafe3b4186f6b6457e0\n  mload(0x40)\n  mload(0x40)\n  dup1\n  swap2\n  sub\n  swap1\n  log3\n    /* \"inviter_presell/adminable.sol\":1506:1634  {... */\n  pop\n    /* \"inviter_presell/adminable.sol\":1443:1634  function _transferOwnership(address newOwner) internal virtual {... */\n  pop\n  jump\t// out\n    /* \"inviter_presell/stake.sol\":371:7813  contract StakingRewards is Adminable , ReentrancyGuard{... */\ntag_10:\n  dataSize(sub_0)\n  dup1\n  dataOffset(sub_0)\n  0x00\n  codecopy\n  0x00\n  return\nstop\n\nsub_0: assembly {\n        /* \"inviter_presell/stake.sol\":371:7813  contract StakingRewards is Adminable , ReentrancyGuard{... */\n      mstore(0x40, 0x80)\n      callvalue\n      dup1\n      iszero\n      tag_1\n      jumpi\n      0x00\n      dup1\n      revert\n    tag_1:\n      pop\n      jumpi(tag_2, lt(calldatasize, 0x04))\n      shr(0xe0, calldataload(0x00))\n      dup1\n      0x8107368b\n      gt\n      tag_38\n      jumpi\n      dup1\n      0xb79ec812\n      gt\n      tag_39\n      jumpi\n      dup1\n      0xd42b779d\n      gt\n      tag_40\n      jumpi\n      dup1\n      0xd42b779d\n      eq\n      tag_33\n      jumpi\n      dup1\n      0xda4f8431\n      eq\n      tag_34\n      jumpi\n      dup1\n      0xdb2e21bc\n      eq\n      tag_35\n      jumpi\n      dup1\n      0xdf136d65\n      eq\n      tag_36\n      jumpi\n      dup1\n      0xf2fde38b\n      eq\n      tag_37\n      jumpi\n      jump(tag_2)\n    tag_40:\n      dup1\n      0xb79ec812\n      eq\n      tag_29\n      jumpi\n      dup1\n      0xc8f33c91\n      eq\n      tag_30\n      jumpi\n      dup1\n      0xcdda56e0\n      eq\n      tag_31\n      jumpi\n      dup1\n      0xd1af0c7d\n      eq\n      tag_32\n      jumpi\n      jump(tag_2)\n    tag_39:\n      dup1\n      0x8da5cb5b\n      gt\n      tag_41\n      jumpi\n      dup1\n      0x8da5cb5b\n      eq\n      tag_24\n      jumpi\n      dup1\n      0x9499c549\n      eq\n      tag_25\n      jumpi\n      dup1\n      0x9a5b17b0\n      eq\n      tag_26\n      jumpi\n      dup1\n      0xa4c3b091\n      eq\n      tag_27\n      jumpi\n      dup1\n      0xadc9772e\n      eq\n      tag_28\n      jumpi\n      jump(tag_2)\n    tag_41:\n      dup1\n      0x8107368b\n      eq\n      tag_20\n      jumpi\n      dup1\n      0x874c120b\n      eq\n      tag_21\n      jumpi\n      dup1\n      0x8aee8127\n      eq\n      tag_22\n      jumpi\n      dup1\n      0x8b876347\n      eq\n      tag_23\n      jumpi\n      jump(tag_2)\n    tag_38:\n      dup1\n      0x3e0a322d\n      gt\n      tag_42\n      jumpi\n      dup1\n      0x6917c501\n      gt\n      tag_43\n      jumpi\n      dup1\n      0x6917c501\n      eq\n      tag_15\n      jumpi\n      dup1\n      0x715018a6\n      eq\n      tag_16\n      jumpi\n      dup1\n      0x78e97925\n      eq\n      tag_17\n      jumpi\n      dup1\n      0x7a6fcee7\n      eq\n      tag_18\n      jumpi\n      dup1\n      0x80faa57d\n      eq\n      tag_19\n      jumpi\n      jump(tag_2)\n    tag_43:\n      dup1\n      0x3e0a322d\n      eq\n      tag_11\n      jumpi\n      dup1\n      0x4dbdc4eb\n      eq\n      tag_12\n      jumpi\n      dup1\n      0x5cfa91f4\n      eq\n      tag_13\n      jumpi\n      dup1\n      0x6139d4b4\n      eq\n      tag_14\n      jumpi\n      jump(tag_2)\n    tag_42:\n      dup1\n      0x18e20ecf\n      gt\n      tag_44\n      jumpi\n      dup1\n      0x18e20ecf\n      eq\n      tag_7\n      jumpi\n      dup1\n      0x24d7806c\n      eq\n      tag_8\n      jumpi\n      dup1\n      0x3c4045cf\n      eq\n      tag_9\n      jumpi\n      dup1\n      0x3d18b912\n      eq\n      tag_10\n      jumpi\n      jump(tag_2)\n    tag_44:\n      dup1\n      0x8cc262\n      eq\n      tag_3\n      jumpi\n      dup1\n      0x0700037d\n      eq\n      tag_4\n      jumpi\n      dup1\n      0x0e15561a\n      eq\n      tag_5\n      jumpi\n      dup1\n      0x129ee21a\n      eq\n      tag_6\n      jumpi\n    tag_2:\n      0x00\n      dup1\n      revert\n        /* \"inviter_presell/stake.sol\":4902:5198  function earned(address account) public view returns (uint256) {... */\n    tag_3:\n      tag_45\n      0x04\n      dup1\n      calldatasize\n      sub\n      dup2\n      add\n      swap1\n      tag_46\n      swap2\n      swap1\n      tag_47\n      jump\t// in\n    tag_46:\n      tag_48\n      jump\t// in\n    tag_45:\n      mload(0x40)\n      tag_49\n      swap2\n      swap1\n      tag_50\n      jump\t// in\n    tag_49:\n      mload(0x40)\n      dup1\n      swap2\n      sub\n      swap1\n      return\n        /* \"inviter_presell/stake.sol\":500:542  mapping(address => uint256) public rewards */\n    tag_4:\n      tag_51\n      0x04\n      dup1\n      calldatasize\n      sub\n      dup2\n      add\n      swap1\n      tag_52\n      swap2\n      swap1\n      tag_47\n      jump\t// in\n    tag_52:\n      tag_53\n      jump\t// in\n    tag_51:\n      mload(0x40)\n      tag_54\n      swap2\n      swap1\n      tag_50\n      jump\t// in\n    tag_54:\n      mload(0x40)\n      dup1\n      swap2\n      sub\n      swap1\n      return\n        /* \"inviter_presell/stake.sol\":551:598  uint256 public totalRewards = 168000 * 10 ** 18 */\n    tag_5:\n      tag_55\n      tag_56\n      jump\t// in\n    tag_55:\n      mload(0x40)\n      tag_57\n      swap2\n      swap1\n      tag_50\n      jump\t// in\n    tag_57:\n      mload(0x40)\n      dup1\n      swap2\n      sub\n      swap1\n      return\n        /* \"inviter_presell/stake.sol\":1737:2029  function setConfig(uint256 _rateInterval, uint256 _rateIntervalNumerator, uint256 _rateIntervalDenominator) external onlyOwner {... */\n    tag_6:\n      tag_58\n      0x04\n      dup1\n      calldatasize\n      sub\n      dup2\n      add\n      swap1\n      tag_59\n      swap2\n      swap1\n      tag_60\n      jump\t// in\n    tag_59:\n      tag_61\n      jump\t// in\n    tag_58:\n      stop\n        /* \"inviter_presell/adminable.sol\":1642:1826  function modificationAdmin(address admin, bool state) public virtual onlyOwner {... */\n    tag_7:\n      tag_62\n      0x04\n      dup1\n      calldatasize\n      sub\n      dup2\n      add\n      swap1\n      tag_63\n      swap2\n      swap1\n      tag_64\n      jump\t// in\n    tag_63:\n      tag_65\n      jump\t// in\n    tag_62:\n      stop\n        /* \"inviter_presell/adminable.sol\":1004:1115  function isAdmin(address account) public view virtual returns (bool) {... */\n    tag_8:\n      tag_66\n      0x04\n      dup1\n      calldatasize\n      sub\n      dup2\n      add\n      swap1\n      tag_67\n      swap2\n      swap1\n      tag_47\n      jump\t// in\n    tag_67:\n      tag_68\n      jump\t// in\n    tag_66:\n      mload(0x40)\n      tag_69\n      swap2\n      swap1\n      tag_70\n      jump\t// in\n    tag_69:\n      mload(0x40)\n      dup1\n      swap2\n      sub\n      swap1\n      return\n        /* \"inviter_presell/stake.sol\":683:723  uint256 public rateIntervalNumerator = 5 */\n    tag_9:\n      tag_71\n      tag_72\n      jump\t// in\n    tag_71:\n      mload(0x40)\n      tag_73\n      swap2\n      swap1\n      tag_50\n      jump\t// in\n    tag_73:\n      mload(0x40)\n      dup1\n      swap2\n      sub\n      swap1\n      return\n        /* \"inviter_presell/stake.sol\":6940:7297  function getReward() external nonReentrant updateReward(msg.sender) {... */\n    tag_10:\n      tag_74\n      tag_75\n      jump\t// in\n    tag_74:\n      stop\n        /* \"inviter_presell/stake.sol\":2037:2127  function setStartTime(uint256 time) external onlyAdmin {... */\n    tag_11:\n      tag_76\n      0x04\n      dup1\n      calldatasize\n      sub\n      dup2\n      add\n      swap1\n      tag_77\n      swap2\n      swap1\n      tag_78\n      jump\t// in\n    tag_77:\n      tag_79\n      jump\t// in\n    tag_76:\n      stop\n        /* \"inviter_presell/stake.sol\":3652:4068  function getRemainPool(uint256 time) public view returns (uint256) {... */\n    tag_12:\n      tag_80\n      0x04\n      dup1\n      calldatasize\n      sub\n      dup2\n      add\n      swap1\n      tag_81\n      swap2\n      swap1\n      tag_78\n      jump\t// in\n    tag_81:\n      tag_82\n      jump\t// in\n    tag_80:\n      mload(0x40)\n      tag_83\n      swap2\n      swap1\n      tag_50\n      jump\t// in\n    tag_83:\n      mload(0x40)\n      dup1\n      swap2\n      sub\n      swap1\n      return\n        /* \"inviter_presell/stake.sol\":2579:3150  function getRewardPool(uint256 time) public view returns (uint256) {... */\n    tag_13:\n      tag_84\n      0x04\n      dup1\n      calldatasize\n      sub\n      dup2\n      add\n      swap1\n      tag_85\n      swap2\n      swap1\n      tag_78\n      jump\t// in\n    tag_85:\n      tag_86\n      jump\t// in\n    tag_84:\n      mload(0x40)\n      tag_87\n      swap2\n      swap1\n      tag_50\n      jump\t// in\n    tag_87:\n      mload(0x40)\n      dup1\n      swap2\n      sub\n      swap1\n      return\n        /* \"inviter_presell/stake.sol\":636:676  uint256 public rateInterval = 10 minutes */\n    tag_14:\n      tag_88\n      tag_89\n      jump\t// in\n    tag_88:\n      mload(0x40)\n      tag_90\n      swap2\n      swap1\n      tag_50\n      jump\t// in\n    tag_90:\n      mload(0x40)\n      dup1\n      swap2\n      sub\n      swap1\n      return\n        /* \"inviter_presell/stake.sol\":2135:2228  function totalPowers() external view returns (uint256) {... */\n    tag_15:\n      tag_91\n      tag_92\n      jump\t// in\n    tag_91:\n      mload(0x40)\n      tag_93\n      swap2\n      swap1\n      tag_50\n      jump\t// in\n    tag_93:\n      mload(0x40)\n      dup1\n      swap2\n      sub\n      swap1\n      return\n        /* \"inviter_presell/adminable.sol\":1123:1226  function renounceOwnership() public virtual onlyOwner {... */\n    tag_16:\n      tag_94\n      tag_95\n      jump\t// in\n    tag_94:\n      stop\n        /* \"inviter_presell/stake.sol\":605:629  uint256 public startTime */\n    tag_17:\n      tag_96\n      tag_97\n      jump\t// in\n    tag_96:\n      mload(0x40)\n      tag_98\n      swap2\n      swap1\n      tag_50\n      jump\t// in\n    tag_98:\n      mload(0x40)\n      dup1\n      swap2\n      sub\n      swap1\n      return\n        /* \"inviter_presell/stake.sol\":730:775  uint256 public rateIntervalDenominator = 1000 */\n    tag_18:\n      tag_99\n      tag_100\n      jump\t// in\n    tag_99:\n      mload(0x40)\n      tag_101\n      swap2\n      swap1\n      tag_50\n      jump\t// in\n    tag_101:\n      mload(0x40)\n      dup1\n      swap2\n      sub\n      swap1\n      return\n        /* \"inviter_presell/stake.sol\":4431:4538  function lastTimeRewardApplicable() public view returns (uint256) {... */\n    tag_19:\n      tag_102\n      tag_103\n      jump\t// in\n    tag_102:\n      mload(0x40)\n      tag_104\n      swap2\n      swap1\n      tag_50\n      jump\t// in\n    tag_104:\n      mload(0x40)\n      dup1\n      swap2\n      sub\n      swap1\n      return\n        /* \"inviter_presell/stake.sol\":961:1014  mapping(address => uint256) public userLastUpdateTime */\n    tag_20:\n      tag_105\n      0x04\n      dup1\n      calldatasize\n      sub\n      dup2\n      add\n      swap1\n      tag_106\n      swap2\n      swap1\n      tag_47\n      jump\t// in\n    tag_106:\n      tag_107\n      jump\t// in\n    tag_105:\n      mload(0x40)\n      tag_108\n      swap2\n      swap1\n      tag_50\n      jump\t// in\n    tag_108:\n      mload(0x40)\n      dup1\n      swap2\n      sub\n      swap1\n      return\n        /* \"inviter_presell/stake.sol\":4546:4894  function rewardPerToken(uint256 rewardRate) public view returns (uint256) {... */\n    tag_21:\n      tag_109\n      0x04\n      dup1\n      calldatasize\n      sub\n      dup2\n      add\n      swap1\n      tag_110\n      swap2\n      swap1\n      tag_78\n      jump\t// in\n    tag_110:\n      tag_111\n      jump\t// in\n    tag_109:\n      mload(0x40)\n      tag_112\n      swap2\n      swap1\n      tag_50\n      jump\t// in\n    tag_112:\n      mload(0x40)\n      dup1\n      swap2\n      sub\n      swap1\n      return\n        /* \"inviter_presell/stake.sol\":7305:7410  function setRewardToken(address token) external onlyOwner {... */\n    tag_22:\n      tag_113\n      0x04\n      dup1\n      calldatasize\n      sub\n      dup2\n      add\n      swap1\n      tag_114\n      swap2\n      swap1\n      tag_47\n      jump\t// in\n    tag_114:\n      tag_115\n      jump\t// in\n    tag_113:\n      stop\n        /* \"inviter_presell/stake.sol\":897:954  mapping(address => uint256) public userRewardPerTokenPaid */\n    tag_23:\n      tag_116\n      0x04\n      dup1\n      calldatasize\n      sub\n      dup2\n      add\n      swap1\n      tag_117\n      swap2\n      swap1\n      tag_47\n      jump\t// in\n    tag_117:\n      tag_118\n      jump\t// in\n    tag_116:\n      mload(0x40)\n      tag_119\n      swap2\n      swap1\n      tag_50\n      jump\t// in\n    tag_119:\n      mload(0x40)\n      dup1\n      swap2\n      sub\n      swap1\n      return\n        /* \"inviter_presell/adminable.sol\":909:996  function owner() public view virtual returns (address) {... */\n    tag_24:\n      tag_120\n      tag_121\n      jump\t// in\n    tag_120:\n      mload(0x40)\n      tag_122\n      swap2\n      swap1\n      tag_123\n      jump\t// in\n    tag_122:\n      mload(0x40)\n      dup1\n      swap2\n      sub\n      swap1\n      return\n        /* \"inviter_presell/stake.sol\":2457:2571  function getCurRewardPool() public view returns (uint256) {... */\n    tag_25:\n      tag_124\n      tag_125\n      jump\t// in\n    tag_124:\n      mload(0x40)\n      tag_126\n      swap2\n      swap1\n      tag_50\n      jump\t// in\n    tag_126:\n      mload(0x40)\n      dup1\n      swap2\n      sub\n      swap1\n      return\n        /* \"inviter_presell/stake.sol\":2236:2330  function curTime() external  view  returns (uint256) {... */\n    tag_26:\n      tag_127\n      tag_128\n      jump\t// in\n    tag_127:\n      mload(0x40)\n      tag_129\n      swap2\n      swap1\n      tag_50\n      jump\t// in\n    tag_129:\n      mload(0x40)\n      dup1\n      swap2\n      sub\n      swap1\n      return\n        /* \"inviter_presell/stake.sol\":7667:7810  function emergencyWithdrawToken(address token, uint256 amount) external onlyOwner {... */\n    tag_27:\n      tag_130\n      0x04\n      dup1\n      calldatasize\n      sub\n      dup2\n      add\n      swap1\n      tag_131\n      swap2\n      swap1\n      tag_132\n      jump\t// in\n    tag_131:\n      tag_133\n      jump\t// in\n    tag_130:\n      stop\n        /* \"inviter_presell/stake.sol\":6634:6928  function stake(address user, uint256 amount) external nonReentrant onlyAdmin updateReward(user) {... */\n    tag_28:\n      tag_134\n      0x04\n      dup1\n      calldatasize\n      sub\n      dup2\n      add\n      swap1\n      tag_135\n      swap2\n      swap1\n      tag_132\n      jump\t// in\n    tag_135:\n      tag_136\n      jump\t// in\n    tag_134:\n      stop\n        /* \"inviter_presell/stake.sol\":2338:2449  function powersOf(address account) external view returns (uint256) {... */\n    tag_29:\n      tag_137\n      0x04\n      dup1\n      calldatasize\n      sub\n      dup2\n      add\n      swap1\n      tag_138\n      swap2\n      swap1\n      tag_47\n      jump\t// in\n    tag_138:\n      tag_139\n      jump\t// in\n    tag_137:\n      mload(0x40)\n      tag_140\n      swap2\n      swap1\n      tag_50\n      jump\t// in\n    tag_140:\n      mload(0x40)\n      dup1\n      swap2\n      sub\n      swap1\n      return\n        /* \"inviter_presell/stake.sol\":782:811  uint256 public lastUpdateTime */\n    tag_30:\n      tag_141\n      tag_142\n      jump\t// in\n    tag_141:\n      mload(0x40)\n      tag_143\n      swap2\n      swap1\n      tag_50\n      jump\t// in\n    tag_143:\n      mload(0x40)\n      dup1\n      swap2\n      sub\n      swap1\n      return\n        /* \"inviter_presell/stake.sol\":4076:4191  function getCurRewardRate() public view returns (uint256) {... */\n    tag_31:\n      tag_144\n      tag_145\n      jump\t// in\n    tag_144:\n      mload(0x40)\n      tag_146\n      swap2\n      swap1\n      tag_50\n      jump\t// in\n    tag_146:\n      mload(0x40)\n      dup1\n      swap2\n      sub\n      swap1\n      return\n        /* \"inviter_presell/stake.sol\":467:493  IERC20 public rewardsToken */\n    tag_32:\n      tag_147\n      tag_148\n      jump\t// in\n    tag_147:\n      mload(0x40)\n      tag_149\n      swap2\n      swap1\n      tag_150\n      jump\t// in\n    tag_149:\n      mload(0x40)\n      dup1\n      swap2\n      sub\n      swap1\n      return\n        /* \"inviter_presell/stake.sol\":1073:1123  mapping(address => uint256) public claimedBalances */\n    tag_33:\n      tag_151\n      0x04\n      dup1\n      calldatasize\n      sub\n      dup2\n      add\n      swap1\n      tag_152\n      swap2\n      swap1\n      tag_47\n      jump\t// in\n    tag_152:\n      tag_153\n      jump\t// in\n    tag_151:\n      mload(0x40)\n      tag_154\n      swap2\n      swap1\n      tag_50\n      jump\t// in\n    tag_154:\n      mload(0x40)\n      dup1\n      swap2\n      sub\n      swap1\n      return\n        /* \"inviter_presell/stake.sol\":5241:6624  function getTimeWeightedAveRate(uint256 leftTime, uint256 rightTime) public view returns (uint256){... */\n    tag_34:\n      tag_155\n      0x04\n      dup1\n      calldatasize\n      sub\n      dup2\n      add\n      swap1\n      tag_156\n      swap2\n      swap1\n      tag_157\n      jump\t// in\n    tag_156:\n      tag_158\n      jump\t// in\n    tag_155:\n      mload(0x40)\n      tag_159\n      swap2\n      swap1\n      tag_50\n      jump\t// in\n    tag_159:\n      mload(0x40)\n      dup1\n      swap2\n      sub\n      swap1\n      return\n        /* \"inviter_presell/stake.sol\":7544:7659  function emergencyWithdraw() external onlyOwner {... */\n    tag_35:\n      tag_160\n      tag_161\n      jump\t// in\n    tag_160:\n      stop\n        /* \"inviter_presell/stake.sol\":818:853  uint256 public rewardPerTokenStored */\n    tag_36:\n      tag_162\n      tag_163\n      jump\t// in\n    tag_162:\n      mload(0x40)\n      tag_164\n      swap2\n      swap1\n      tag_50\n      jump\t// in\n    tag_164:\n      mload(0x40)\n      dup1\n      swap2\n      sub\n      swap1\n      return\n        /* \"inviter_presell/adminable.sol\":1234:1435  function transferOwnership(address newOwner) public virtual onlyOwner {... */\n    tag_37:\n      tag_165\n      0x04\n      dup1\n      calldatasize\n      sub\n      dup2\n      add\n      swap1\n      tag_166\n      swap2\n      swap1\n      tag_47\n      jump\t// in\n    tag_166:\n      tag_167\n      jump\t// in\n    tag_165:\n      stop\n        /* \"inviter_presell/stake.sol\":4902:5198  function earned(address account) public view returns (uint256) {... */\n    tag_48:\n        /* \"inviter_presell/stake.sol\":4956:4963  uint256 */\n      0x00\n        /* \"inviter_presell/stake.sol\":4976:4988  uint256 rate */\n      dup1\n        /* \"inviter_presell/stake.sol\":4991:5059  getTimeWeightedAveRate(userLastUpdateTime[account], block.timestamp) */\n      tag_169\n        /* \"inviter_presell/stake.sol\":5014:5032  userLastUpdateTime */\n      0x0e\n        /* \"inviter_presell/stake.sol\":5014:5041  userLastUpdateTime[account] */\n      0x00\n        /* \"inviter_presell/stake.sol\":5033:5040  account */\n      dup6\n        /* \"inviter_presell/stake.sol\":5014:5041  userLastUpdateTime[account] */\n      0xffffffffffffffffffffffffffffffffffffffff\n      and\n      0xffffffffffffffffffffffffffffffffffffffff\n      and\n      dup2\n      mstore\n      0x20\n      add\n      swap1\n      dup2\n      mstore\n      0x20\n      add\n      0x00\n      keccak256\n      sload\n        /* \"inviter_presell/stake.sol\":5043:5058  block.timestamp */\n      timestamp\n        /* \"inviter_presell/stake.sol\":4991:5013  getTimeWeightedAveRate */\n      tag_158\n        /* \"inviter_presell/stake.sol\":4991:5059  getTimeWeightedAveRate(userLastUpdateTime[account], block.timestamp) */\n      jump\t// in\n    tag_169:\n        /* \"inviter_presell/stake.sol\":4976:5059  uint256 rate = getTimeWeightedAveRate(userLastUpdateTime[account], block.timestamp) */\n      swap1\n      pop\n        /* \"inviter_presell/stake.sol\":5077:5190  _balances[account].mul(rewardPerToken(rate).sub(userRewardPerTokenPaid[account])).div(1e18).add(rewards[account]) */\n      tag_170\n        /* \"inviter_presell/stake.sol\":5173:5180  rewards */\n      0x04\n        /* \"inviter_presell/stake.sol\":5173:5189  rewards[account] */\n      0x00\n        /* \"inviter_presell/stake.sol\":5181:5188  account */\n      dup6\n        /* \"inviter_presell/stake.sol\":5173:5189  rewards[account] */\n      0xffffffffffffffffffffffffffffffffffffffff\n      and\n      0xffffffffffffffffffffffffffffffffffffffff\n      and\n      dup2\n      mstore\n      0x20\n      add\n      swap1\n      dup2\n      mstore\n      0x20\n      add\n      0x00\n      keccak256\n      sload\n        /* \"inviter_presell/stake.sol\":5077:5168  _balances[account].mul(rewardPerToken(rate).sub(userRewardPerTokenPaid[account])).div(1e18) */\n      tag_171\n        /* \"inviter_presell/stake.sol\":5163:5167  1e18 */\n      0x0de0b6b3a7640000\n        /* \"inviter_presell/stake.sol\":5077:5158  _balances[account].mul(rewardPerToken(rate).sub(userRewardPerTokenPaid[account])) */\n      tag_172\n        /* \"inviter_presell/stake.sol\":5100:5157  rewardPerToken(rate).sub(userRewardPerTokenPaid[account]) */\n      tag_173\n        /* \"inviter_presell/stake.sol\":5125:5147  userRewardPerTokenPaid */\n      0x0d\n        /* \"inviter_presell/stake.sol\":5125:5156  userRewardPerTokenPaid[account] */\n      0x00\n        /* \"inviter_presell/stake.sol\":5148:5155  account */\n      dup11\n        /* \"inviter_presell/stake.sol\":5125:5156  userRewardPerTokenPaid[account] */\n      0xffffffffffffffffffffffffffffffffffffffff\n      and\n      0xffffffffffffffffffffffffffffffffffffffff\n      and\n      dup2\n      mstore\n      0x20\n      add\n      swap1\n      dup2\n      mstore\n      0x20\n      add\n      0x00\n      keccak256\n      sload\n        /* \"inviter_presell/stake.sol\":5100:5120  rewardPerToken(rate) */\n      tag_174\n        /* \"inviter_presell/stake.sol\":5115:5119  rate */\n      dup9\n        /* \"inviter_presell/stake.sol\":5100:5114  rewardPerToken */\n      tag_111\n        /* \"inviter_presell/stake.sol\":5100:5120  rewardPerToken(rate) */\n      jump\t// in\n    tag_174:\n        /* \"inviter_presell/stake.sol\":5100:5124  rewardPerToken(rate).sub */\n      tag_175\n      swap1\n        /* \"inviter_presell/stake.sol\":5100:5157  rewardPerToken(rate).sub(userRewardPerTokenPaid[account]) */\n      swap2\n      swap1\n      0xffffffff\n      and\n      jump\t// in\n    tag_173:\n        /* \"inviter_presell/stake.sol\":5077:5086  _balances */\n      0x0f\n        /* \"inviter_presell/stake.sol\":5077:5095  _balances[account] */\n      0x00\n        /* \"inviter_presell/stake.sol\":5087:5094  account */\n      dup11\n        /* \"inviter_presell/stake.sol\":5077:5095  _balances[account] */\n      0xffffffffffffffffffffffffffffffffffffffff\n      and\n      0xffffffffffffffffffffffffffffffffffffffff\n      and\n      dup2\n      mstore\n      0x20\n      add\n      swap1\n      dup2\n      mstore\n      0x20\n      add\n      0x00\n      keccak256\n      sload\n        /* \"inviter_presell/stake.sol\":5077:5099  _balances[account].mul */\n      tag_176\n      swap1\n        /* \"inviter_presell/stake.sol\":5077:5158  _balances[account].mul(rewardPerToken(rate).sub(userRewardPerTokenPaid[account])) */\n      swap2\n      swap1\n      0xffffffff\n      and\n      jump\t// in\n    tag_172:\n        /* \"inviter_presell/stake.sol\":5077:5162  _balances[account].mul(rewardPerToken(rate).sub(userRewardPerTokenPaid[account])).div */\n      tag_177\n      swap1\n        /* \"inviter_presell/stake.sol\":5077:5168  _balances[account].mul(rewardPerToken(rate).sub(userRewardPerTokenPaid[account])).div(1e18) */\n      swap2\n      swap1\n      0xffffffff\n      and\n      jump\t// in\n    tag_171:\n        /* \"inviter_presell/stake.sol\":5077:5172  _balances[account].mul(rewardPerToken(rate).sub(userRewardPerTokenPaid[account])).div(1e18).add */\n      tag_178\n      swap1\n        /* \"inviter_presell/stake.sol\":5077:5190  _balances[account].mul(rewardPerToken(rate).sub(userRewardPerTokenPaid[account])).div(1e18).add(rewards[account]) */\n      swap2\n      swap1\n      0xffffffff\n      and\n      jump\t// in\n    tag_170:\n        /* \"inviter_presell/stake.sol\":5070:5190  return _balances[account].mul(rewardPerToken(rate).sub(userRewardPerTokenPaid[account])).div(1e18).add(rewards[account]) */\n      swap2\n      pop\n      pop\n        /* \"inviter_presell/stake.sol\":4902:5198  function earned(address account) public view returns (uint256) {... */\n      swap2\n      swap1\n      pop\n      jump\t// out\n        /* \"inviter_presell/stake.sol\":500:542  mapping(address => uint256) public rewards */\n    tag_53:\n      mstore(0x20, 0x04)\n      dup1\n      0x00\n      mstore\n      keccak256(0x00, 0x40)\n      0x00\n      swap2\n      pop\n      swap1\n      pop\n      sload\n      dup2\n      jump\t// out\n        /* \"inviter_presell/stake.sol\":551:598  uint256 public totalRewards = 168000 * 10 ** 18 */\n    tag_56:\n      sload(0x05)\n      dup2\n      jump\t// out\n        /* \"inviter_presell/stake.sol\":1737:2029  function setConfig(uint256 _rateInterval, uint256 _rateIntervalNumerator, uint256 _rateIntervalDenominator) external onlyOwner {... */\n    tag_61:\n        /* \"inviter_presell/adminable.sol\":702:714  _msgSender() */\n      tag_180\n        /* \"inviter_presell/adminable.sol\":702:712  _msgSender */\n      tag_181\n        /* \"inviter_presell/adminable.sol\":702:714  _msgSender() */\n      jump\t// in\n    tag_180:\n        /* \"inviter_presell/adminable.sol\":691:714  owner() == _msgSender() */\n      0xffffffffffffffffffffffffffffffffffffffff\n      and\n        /* \"inviter_presell/adminable.sol\":691:698  owner() */\n      tag_182\n        /* \"inviter_presell/adminable.sol\":691:696  owner */\n      tag_121\n        /* \"inviter_presell/adminable.sol\":691:698  owner() */\n      jump\t// in\n    tag_182:\n        /* \"inviter_presell/adminable.sol\":691:714  owner() == _msgSender() */\n      0xffffffffffffffffffffffffffffffffffffffff\n      and\n      eq\n        /* \"inviter_presell/adminable.sol\":683:753  require(owner() == _msgSender(), \"Adminable: caller is not the owner\") */\n      tag_183\n      jumpi\n      mload(0x40)\n      0x08c379a000000000000000000000000000000000000000000000000000000000\n      dup2\n      mstore\n      0x04\n      add\n      tag_184\n      swap1\n      tag_185\n      jump\t// in\n    tag_184:\n      mload(0x40)\n      dup1\n      swap2\n      sub\n      swap1\n      revert\n    tag_183:\n        /* \"inviter_presell/stake.sol\":1890:1903  _rateInterval */\n      dup3\n        /* \"inviter_presell/stake.sol\":1875:1887  rateInterval */\n      0x07\n        /* \"inviter_presell/stake.sol\":1875:1903  rateInterval = _rateInterval */\n      dup2\n      swap1\n      sstore\n      pop\n        /* \"inviter_presell/stake.sol\":1938:1960  _rateIntervalNumerator */\n      dup2\n        /* \"inviter_presell/stake.sol\":1914:1935  rateIntervalNumerator */\n      0x08\n        /* \"inviter_presell/stake.sol\":1914:1960  rateIntervalNumerator = _rateIntervalNumerator */\n      dup2\n      swap1\n      sstore\n      pop\n        /* \"inviter_presell/stake.sol\":1997:2021  _rateIntervalDenominator */\n      dup1\n        /* \"inviter_presell/stake.sol\":1971:1994  rateIntervalDenominator */\n      0x09\n        /* \"inviter_presell/stake.sol\":1971:2021  rateIntervalDenominator = _rateIntervalDenominator */\n      dup2\n      swap1\n      sstore\n      pop\n        /* \"inviter_presell/stake.sol\":1737:2029  function setConfig(uint256 _rateInterval, uint256 _rateIntervalNumerator, uint256 _rateIntervalDenominator) external onlyOwner {... */\n      pop\n      pop\n      pop\n      jump\t// out\n        /* \"inviter_presell/adminable.sol\":1642:1826  function modificationAdmin(address admin, bool state) public virtual onlyOwner {... */\n    tag_65:\n        /* \"inviter_presell/adminable.sol\":702:714  _msgSender() */\n      tag_188\n        /* \"inviter_presell/adminable.sol\":702:712  _msgSender */\n      tag_181\n        /* \"inviter_presell/adminable.sol\":702:714  _msgSender() */\n      jump\t// in\n    tag_188:\n        /* \"inviter_presell/adminable.sol\":691:714  owner() == _msgSender() */\n      0xffffffffffffffffffffffffffffffffffffffff\n      and\n        /* \"inviter_presell/adminable.sol\":691:698  owner() */\n      tag_189\n        /* \"inviter_presell/adminable.sol\":691:696  owner */\n      tag_121\n        /* \"inviter_presell/adminable.sol\":691:698  owner() */\n      jump\t// in\n    tag_189:\n        /* \"inviter_presell/adminable.sol\":691:714  owner() == _msgSender() */\n      0xffffffffffffffffffffffffffffffffffffffff\n      and\n      eq\n        /* \"inviter_presell/adminable.sol\":683:753  require(owner() == _msgSender(), \"Adminable: caller is not the owner\") */\n      tag_190\n      jumpi\n      mload(0x40)\n      0x08c379a000000000000000000000000000000000000000000000000000000000\n      dup2\n      mstore\n      0x04\n      add\n      tag_191\n      swap1\n      tag_185\n      jump\t// in\n    tag_191:\n      mload(0x40)\n      dup1\n      swap2\n      sub\n      swap1\n      revert\n    tag_190:\n        /* \"inviter_presell/adminable.sol\":1755:1760  admin */\n      dup2\n        /* \"inviter_presell/adminable.sol\":1737:1785  ModificationAdmin(admin,  _admins[admin], state) */\n      0xffffffffffffffffffffffffffffffffffffffff\n      and\n      0x82f1fa40a3d82dea3e406073819290601f436580aa7c69f9feb61f885bdd8854\n        /* \"inviter_presell/adminable.sol\":1763:1770  _admins */\n      0x00\n        /* \"inviter_presell/adminable.sol\":1763:1777  _admins[admin] */\n      dup1\n        /* \"inviter_presell/adminable.sol\":1771:1776  admin */\n      dup6\n        /* \"inviter_presell/adminable.sol\":1763:1777  _admins[admin] */\n      0xffffffffffffffffffffffffffffffffffffffff\n      and\n      0xffffffffffffffffffffffffffffffffffffffff\n      and\n      dup2\n      mstore\n      0x20\n      add\n      swap1\n      dup2\n      mstore\n      0x20\n      add\n      0x00\n      keccak256\n      0x00\n      swap1\n      sload\n      swap1\n      0x0100\n      exp\n      swap1\n      div\n      0xff\n      and\n        /* \"inviter_presell/adminable.sol\":1779:1784  state */\n      dup4\n        /* \"inviter_presell/adminable.sol\":1737:1785  ModificationAdmin(admin,  _admins[admin], state) */\n      mload(0x40)\n      tag_193\n      swap3\n      swap2\n      swap1\n      tag_194\n      jump\t// in\n    tag_193:\n      mload(0x40)\n      dup1\n      swap2\n      sub\n      swap1\n      log2\n        /* \"inviter_presell/adminable.sol\":1813:1818  state */\n      dup1\n        /* \"inviter_presell/adminable.sol\":1796:1803  _admins */\n      0x00\n        /* \"inviter_presell/adminable.sol\":1796:1810  _admins[admin] */\n      dup1\n        /* \"inviter_presell/adminable.sol\":1804:1809  admin */\n      dup5\n        /* \"inviter_presell/adminable.sol\":1796:1810  _admins[admin] */\n      0xffffffffffffffffffffffffffffffffffffffff\n      and\n      0xffffffffffffffffffffffffffffffffffffffff\n      and\n      dup2\n      mstore\n      0x20\n      add\n      swap1\n      dup2\n      mstore\n      0x20\n      add\n      0x00\n      keccak256\n      0x00\n        /* \"inviter_presell/adminable.sol\":1796:1818  _admins[admin] = state */\n      0x0100\n      exp\n      dup2\n      sload\n      dup2\n      0xff\n      mul\n      not\n      and\n      swap1\n      dup4\n      iszero\n      iszero\n      mul\n      or\n      swap1\n      sstore\n      pop\n        /* \"inviter_presell/adminable.sol\":1642:1826  function modificationAdmin(address admin, bool state) public virtual onlyOwner {... */\n      pop\n      pop\n      jump\t// out\n        /* \"inviter_presell/adminable.sol\":1004:1115  function isAdmin(address account) public view virtual returns (bool) {... */\n    tag_68:\n        /* \"inviter_presell/adminable.sol\":1067:1071  bool */\n      0x00\n        /* \"inviter_presell/adminable.sol\":1091:1098  _admins */\n      dup1\n        /* \"inviter_presell/adminable.sol\":1091:1107  _admins[account] */\n      0x00\n        /* \"inviter_presell/adminable.sol\":1099:1106  account */\n      dup4\n        /* \"inviter_presell/adminable.sol\":1091:1107  _admins[account] */\n      0xffffffffffffffffffffffffffffffffffffffff\n      and\n      0xffffffffffffffffffffffffffffffffffffffff\n      and\n      dup2\n      mstore\n      0x20\n      add\n      swap1\n      dup2\n      mstore\n      0x20\n      add\n      0x00\n      keccak256\n      0x00\n      swap1\n      sload\n      swap1\n      0x0100\n      exp\n      swap1\n      div\n      0xff\n      and\n        /* \"inviter_presell/adminable.sol\":1084:1107  return _admins[account] */\n      swap1\n      pop\n        /* \"inviter_presell/adminable.sol\":1004:1115  function isAdmin(address account) public view virtual returns (bool) {... */\n      swap2\n      swap1\n      pop\n      jump\t// out\n        /* \"inviter_presell/stake.sol\":683:723  uint256 public rateIntervalNumerator = 5 */\n    tag_72:\n      sload(0x08)\n      dup2\n      jump\t// out\n        /* \"inviter_presell/stake.sol\":6940:7297  function getReward() external nonReentrant updateReward(msg.sender) {... */\n    tag_75:\n        /* \"node_modules/@openzeppelin/contracts/security/ReentrancyGuard.sol\":1744:1745  2 */\n      0x02\n        /* \"node_modules/@openzeppelin/contracts/security/ReentrancyGuard.sol\":2325:2332  _status */\n      dup1\n      sload\n        /* \"node_modules/@openzeppelin/contracts/security/ReentrancyGuard.sol\":2325:2344  _status != _ENTERED */\n      sub\n        /* \"node_modules/@openzeppelin/contracts/security/ReentrancyGuard.sol\":2317:2380  require(_status != _ENTERED, \"ReentrancyGuard: reentrant call\") */\n      tag_197\n      jumpi\n      mload(0x40)\n      0x08c379a000000000000000000000000000000000000000000000000000000000\n      dup2\n      mstore\n      0x04\n      add\n      tag_198\n      swap1\n      tag_199\n      jump\t// in\n    tag_198:\n      mload(0x40)\n      dup1\n      swap2\n      sub\n      swap1\n      revert\n    tag_197:\n        /* \"node_modules/@openzeppelin/contracts/security/ReentrancyGuard.sol\":1744:1745  2 */\n      0x02\n        /* \"node_modules/@openzeppelin/contracts/security/ReentrancyGuard.sol\":2455:2462  _status */\n      dup1\n        /* \"node_modules/@openzeppelin/contracts/security/ReentrancyGuard.sol\":2455:2473  _status = _ENTERED */\n      dup2\n      swap1\n      sstore\n      pop\n        /* \"inviter_presell/stake.sol\":6996:7006  msg.sender */\n      caller\n        /* \"inviter_presell/stake.sol\":1186:1198  uint256 time */\n      0x00\n        /* \"inviter_presell/stake.sol\":1201:1219  userLastUpdateTime */\n      0x0e\n        /* \"inviter_presell/stake.sol\":1201:1228  userLastUpdateTime[account] */\n      0x00\n        /* \"inviter_presell/stake.sol\":1220:1227  account */\n      dup4\n        /* \"inviter_presell/stake.sol\":1201:1228  userLastUpdateTime[account] */\n      0xffffffffffffffffffffffffffffffffffffffff\n      and\n      0xffffffffffffffffffffffffffffffffffffffff\n      and\n      dup2\n      mstore\n      0x20\n      add\n      swap1\n      dup2\n      mstore\n      0x20\n      add\n      0x00\n      keccak256\n      sload\n        /* \"inviter_presell/stake.sol\":1186:1228  uint256 time = userLastUpdateTime[account] */\n      swap1\n      pop\n        /* \"inviter_presell/stake.sol\":1250:1259  startTime */\n      sload(0x06)\n        /* \"inviter_presell/stake.sol\":1242:1246  time */\n      dup2\n        /* \"inviter_presell/stake.sol\":1242:1259  time <= startTime */\n      gt\n        /* \"inviter_presell/stake.sol\":1239:1304  if(time <= startTime) {... */\n      tag_201\n      jumpi\n        /* \"inviter_presell/stake.sol\":1283:1292  startTime */\n      sload(0x06)\n        /* \"inviter_presell/stake.sol\":1276:1292  time = startTime */\n      swap1\n      pop\n        /* \"inviter_presell/stake.sol\":1239:1304  if(time <= startTime) {... */\n    tag_201:\n        /* \"inviter_presell/stake.sol\":1314:1326  uint256 rate */\n      0x00\n        /* \"inviter_presell/stake.sol\":1329:1374  getTimeWeightedAveRate(time, block.timestamp) */\n      tag_202\n        /* \"inviter_presell/stake.sol\":1352:1356  time */\n      dup3\n        /* \"inviter_presell/stake.sol\":1358:1373  block.timestamp */\n      timestamp\n        /* \"inviter_presell/stake.sol\":1329:1351  getTimeWeightedAveRate */\n      tag_158\n        /* \"inviter_presell/stake.sol\":1329:1374  getTimeWeightedAveRate(time, block.timestamp) */\n      jump\t// in\n    tag_202:\n        /* \"inviter_presell/stake.sol\":1314:1374  uint256 rate = getTimeWeightedAveRate(time, block.timestamp) */\n      swap1\n      pop\n        /* \"inviter_presell/stake.sol\":1408:1428  rewardPerToken(rate) */\n      tag_203\n        /* \"inviter_presell/stake.sol\":1423:1427  rate */\n      dup2\n        /* \"inviter_presell/stake.sol\":1408:1422  rewardPerToken */\n      tag_111\n        /* \"inviter_presell/stake.sol\":1408:1428  rewardPerToken(rate) */\n      jump\t// in\n    tag_203:\n        /* \"inviter_presell/stake.sol\":1385:1405  rewardPerTokenStored */\n      0x0b\n        /* \"inviter_presell/stake.sol\":1385:1428  rewardPerTokenStored = rewardPerToken(rate) */\n      dup2\n      swap1\n      sstore\n      pop\n        /* \"inviter_presell/stake.sol\":1456:1482  lastTimeRewardApplicable() */\n      tag_204\n        /* \"inviter_presell/stake.sol\":1456:1480  lastTimeRewardApplicable */\n      tag_103\n        /* \"inviter_presell/stake.sol\":1456:1482  lastTimeRewardApplicable() */\n      jump\t// in\n    tag_204:\n        /* \"inviter_presell/stake.sol\":1439:1453  lastUpdateTime */\n      0x0a\n        /* \"inviter_presell/stake.sol\":1439:1482  lastUpdateTime = lastTimeRewardApplicable() */\n      dup2\n      swap1\n      sstore\n      pop\n        /* \"inviter_presell/stake.sol\":1516:1517  0 */\n      0x00\n        /* \"inviter_presell/stake.sol\":1497:1518  account != address(0) */\n      0xffffffffffffffffffffffffffffffffffffffff\n      and\n        /* \"inviter_presell/stake.sol\":1497:1504  account */\n      dup4\n        /* \"inviter_presell/stake.sol\":1497:1518  account != address(0) */\n      0xffffffffffffffffffffffffffffffffffffffff\n      and\n      eq\n        /* \"inviter_presell/stake.sol\":1493:1710  if (account != address(0)) {... */\n      tag_205\n      jumpi\n        /* \"inviter_presell/stake.sol\":1554:1569  earned(account) */\n      tag_206\n        /* \"inviter_presell/stake.sol\":1561:1568  account */\n      dup4\n        /* \"inviter_presell/stake.sol\":1554:1560  earned */\n      tag_48\n        /* \"inviter_presell/stake.sol\":1554:1569  earned(account) */\n      jump\t// in\n    tag_206:\n        /* \"inviter_presell/stake.sol\":1535:1542  rewards */\n      0x04\n        /* \"inviter_presell/stake.sol\":1535:1551  rewards[account] */\n      0x00\n        /* \"inviter_presell/stake.sol\":1543:1550  account */\n      dup6\n        /* \"inviter_presell/stake.sol\":1535:1551  rewards[account] */\n      0xffffffffffffffffffffffffffffffffffffffff\n      and\n      0xffffffffffffffffffffffffffffffffffffffff\n      and\n      dup2\n      mstore\n      0x20\n      add\n      swap1\n      dup2\n      mstore\n      0x20\n      add\n      0x00\n      keccak256\n        /* \"inviter_presell/stake.sol\":1535:1569  rewards[account] = earned(account) */\n      dup2\n      swap1\n      sstore\n      pop\n        /* \"inviter_presell/stake.sol\":1618:1638  rewardPerTokenStored */\n      sload(0x0b)\n        /* \"inviter_presell/stake.sol\":1584:1606  userRewardPerTokenPaid */\n      0x0d\n        /* \"inviter_presell/stake.sol\":1584:1615  userRewardPerTokenPaid[account] */\n      0x00\n        /* \"inviter_presell/stake.sol\":1607:1614  account */\n      dup6\n        /* \"inviter_presell/stake.sol\":1584:1615  userRewardPerTokenPaid[account] */\n      0xffffffffffffffffffffffffffffffffffffffff\n      and\n      0xffffffffffffffffffffffffffffffffffffffff\n      and\n      dup2\n      mstore\n      0x20\n      add\n      swap1\n      dup2\n      mstore\n      0x20\n      add\n      0x00\n      keccak256\n        /* \"inviter_presell/stake.sol\":1584:1638  userRewardPerTokenPaid[account] = rewardPerTokenStored */\n      dup2\n      swap1\n      sstore\n      pop\n        /* \"inviter_presell/stake.sol\":1683:1698  block.timestamp */\n      timestamp\n        /* \"inviter_presell/stake.sol\":1653:1671  userLastUpdateTime */\n      0x0e\n        /* \"inviter_presell/stake.sol\":1653:1680  userLastUpdateTime[account] */\n      0x00\n        /* \"inviter_presell/stake.sol\":1672:1679  account */\n      dup6\n        /* \"inviter_presell/stake.sol\":1653:1680  userLastUpdateTime[account] */\n      0xffffffffffffffffffffffffffffffffffffffff\n      and\n      0xffffffffffffffffffffffffffffffffffffffff\n      and\n      dup2\n      mstore\n      0x20\n      add\n      swap1\n      dup2\n      mstore\n      0x20\n      add\n      0x00\n      keccak256\n        /* \"inviter_presell/stake.sol\":1653:1698  userLastUpdateTime[account] = block.timestamp */\n      dup2\n      swap1\n      sstore\n      pop\n        /* \"inviter_presell/stake.sol\":1493:1710  if (account != address(0)) {... */\n    tag_205:\n        /* \"inviter_presell/stake.sol\":7019:7033  uint256 reward */\n      0x00\n        /* \"inviter_presell/stake.sol\":7036:7043  rewards */\n      0x04\n        /* \"inviter_presell/stake.sol\":7036:7055  rewards[msg.sender] */\n      0x00\n        /* \"inviter_presell/stake.sol\":7044:7054  msg.sender */\n      caller\n        /* \"inviter_presell/stake.sol\":7036:7055  rewards[msg.sender] */\n      0xffffffffffffffffffffffffffffffffffffffff\n      and\n      0xffffffffffffffffffffffffffffffffffffffff\n      and\n      dup2\n      mstore\n      0x20\n      add\n      swap1\n      dup2\n      mstore\n      0x20\n      add\n      0x00\n      keccak256\n      sload\n        /* \"inviter_presell/stake.sol\":7019:7055  uint256 reward = rewards[msg.sender] */\n      swap1\n      pop\n        /* \"inviter_presell/stake.sol\":7079:7080  0 */\n      0x00\n        /* \"inviter_presell/stake.sol\":7070:7076  reward */\n      dup2\n        /* \"inviter_presell/stake.sol\":7070:7080  reward > 0 */\n      gt\n        /* \"inviter_presell/stake.sol\":7066:7290  if (reward > 0) {... */\n      iszero\n      tag_208\n      jumpi\n        /* \"inviter_presell/stake.sol\":7128:7134  reward */\n      dup1\n        /* \"inviter_presell/stake.sol\":7097:7112  claimedBalances */\n      0x10\n        /* \"inviter_presell/stake.sol\":7097:7124  claimedBalances[msg.sender] */\n      0x00\n        /* \"inviter_presell/stake.sol\":7113:7123  msg.sender */\n      caller\n        /* \"inviter_presell/stake.sol\":7097:7124  claimedBalances[msg.sender] */\n      0xffffffffffffffffffffffffffffffffffffffff\n      and\n      0xffffffffffffffffffffffffffffffffffffffff\n      and\n      dup2\n      mstore\n      0x20\n      add\n      swap1\n      dup2\n      mstore\n      0x20\n      add\n      0x00\n      keccak256\n      0x00\n        /* \"inviter_presell/stake.sol\":7097:7134  claimedBalances[msg.sender] += reward */\n      dup3\n      dup3\n      sload\n      tag_209\n      swap2\n      swap1\n      tag_210\n      jump\t// in\n    tag_209:\n      swap3\n      pop\n      pop\n      dup2\n      swap1\n      sstore\n      pop\n        /* \"inviter_presell/stake.sol\":7171:7172  0 */\n      0x00\n        /* \"inviter_presell/stake.sol\":7149:7156  rewards */\n      0x04\n        /* \"inviter_presell/stake.sol\":7149:7168  rewards[msg.sender] */\n      0x00\n        /* \"inviter_presell/stake.sol\":7157:7167  msg.sender */\n      caller\n        /* \"inviter_presell/stake.sol\":7149:7168  rewards[msg.sender] */\n      0xffffffffffffffffffffffffffffffffffffffff\n      and\n      0xffffffffffffffffffffffffffffffffffffffff\n      and\n      dup2\n      mstore\n      0x20\n      add\n      swap1\n      dup2\n      mstore\n      0x20\n      add\n      0x00\n      keccak256\n        /* \"inviter_presell/stake.sol\":7149:7172  rewards[msg.sender] = 0 */\n      dup2\n      swap1\n      sstore\n      pop\n        /* \"inviter_presell/stake.sol\":7187:7199  rewardsToken */\n      0x03\n      0x00\n      swap1\n      sload\n      swap1\n      0x0100\n      exp\n      swap1\n      div\n      0xffffffffffffffffffffffffffffffffffffffff\n      and\n        /* \"inviter_presell/stake.sol\":7187:7208  rewardsToken.transfer */\n      0xffffffffffffffffffffffffffffffffffffffff\n      and\n      0xa9059cbb\n        /* \"inviter_presell/stake.sol\":7209:7219  msg.sender */\n      caller\n        /* \"inviter_presell/stake.sol\":7221:7227  reward */\n      dup4\n        /* \"inviter_presell/stake.sol\":7187:7228  rewardsToken.transfer(msg.sender, reward) */\n      mload(0x40)\n      dup4\n      0xffffffff\n      and\n      0xe0\n      shl\n      dup2\n      mstore\n      0x04\n      add\n      tag_211\n      swap3\n      swap2\n      swap1\n      tag_212\n      jump\t// in\n    tag_211:\n      0x20\n      mload(0x40)\n      dup1\n      dup4\n      sub\n      dup2\n      0x00\n      dup8\n      gas\n      call\n      iszero\n      dup1\n      iszero\n      tag_214\n      jumpi\n      returndatasize\n      0x00\n      dup1\n      returndatacopy\n      revert(0x00, returndatasize)\n    tag_214:\n      pop\n      pop\n      pop\n      pop\n      mload(0x40)\n      returndatasize\n      not(0x1f)\n      0x1f\n      dup3\n      add\n      and\n      dup3\n      add\n      dup1\n      0x40\n      mstore\n      pop\n      dup2\n      add\n      swap1\n      tag_215\n      swap2\n      swap1\n      tag_216\n      jump\t// in\n    tag_215:\n      pop\n        /* \"inviter_presell/stake.sol\":7259:7269  msg.sender */\n      caller\n        /* \"inviter_presell/stake.sol\":7248:7278  RewardPaid(msg.sender, reward) */\n      0xffffffffffffffffffffffffffffffffffffffff\n      and\n      0xe2403640ba68fed3a2f88b7557551d1993f84b99bb10ff833f0cf8db0c5e0486\n        /* \"inviter_presell/stake.sol\":7271:7277  reward */\n      dup3\n        /* \"inviter_presell/stake.sol\":7248:7278  RewardPaid(msg.sender, reward) */\n      mload(0x40)\n      tag_217\n      swap2\n      swap1\n      tag_50\n      jump\t// in\n    tag_217:\n      mload(0x40)\n      dup1\n      swap2\n      sub\n      swap1\n      log2\n        /* \"inviter_presell/stake.sol\":7066:7290  if (reward > 0) {... */\n    tag_208:\n        /* \"inviter_presell/stake.sol\":7008:7297  {... */\n      pop\n        /* \"inviter_presell/stake.sol\":1175:1729  {... */\n      pop\n      pop\n        /* \"node_modules/@openzeppelin/contracts/security/ReentrancyGuard.sol\":2484:2485  _ */\n      pop\n        /* \"node_modules/@openzeppelin/contracts/security/ReentrancyGuard.sol\":1701:1702  1 */\n      0x01\n        /* \"node_modules/@openzeppelin/contracts/security/ReentrancyGuard.sol\":2628:2635  _status */\n      0x02\n        /* \"node_modules/@openzeppelin/contracts/security/ReentrancyGuard.sol\":2628:2650  _status = _NOT_ENTERED */\n      dup2\n      swap1\n      sstore\n      pop\n        /* \"inviter_presell/stake.sol\":6940:7297  function getReward() external nonReentrant updateReward(msg.sender) {... */\n      jump\t// out\n        /* \"inviter_presell/stake.sol\":2037:2127  function setStartTime(uint256 time) external onlyAdmin {... */\n    tag_79:\n        /* \"inviter_presell/adminable.sol\":821:842  isAdmin(_msgSender()) */\n      tag_219\n        /* \"inviter_presell/adminable.sol\":829:841  _msgSender() */\n      tag_220\n        /* \"inviter_presell/adminable.sol\":829:839  _msgSender */\n      tag_181\n        /* \"inviter_presell/adminable.sol\":829:841  _msgSender() */\n      jump\t// in\n    tag_220:\n        /* \"inviter_presell/adminable.sol\":821:828  isAdmin */\n      tag_68\n        /* \"inviter_presell/adminable.sol\":821:842  isAdmin(_msgSender()) */\n      jump\t// in\n    tag_219:\n        /* \"inviter_presell/adminable.sol\":813:881  require(isAdmin(_msgSender()), \"Adminable: caller is not the admin\") */\n      tag_221\n      jumpi\n      mload(0x40)\n      0x08c379a000000000000000000000000000000000000000000000000000000000\n      dup2\n      mstore\n      0x04\n      add\n      tag_222\n      swap1\n      tag_223\n      jump\t// in\n    tag_222:\n      mload(0x40)\n      dup1\n      swap2\n      sub\n      swap1\n      revert\n    tag_221:\n        /* \"inviter_presell/stake.sol\":2115:2119  time */\n      dup1\n        /* \"inviter_presell/stake.sol\":2103:2112  startTime */\n      0x06\n        /* \"inviter_presell/stake.sol\":2103:2119  startTime = time */\n      dup2\n      swap1\n      sstore\n      pop\n        /* \"inviter_presell/stake.sol\":2037:2127  function setStartTime(uint256 time) external onlyAdmin {... */\n      pop\n      jump\t// out\n        /* \"inviter_presell/stake.sol\":3652:4068  function getRemainPool(uint256 time) public view returns (uint256) {... */\n    tag_82:\n        /* \"inviter_presell/stake.sol\":3710:3717  uint256 */\n      0x00\n        /* \"inviter_presell/stake.sol\":3746:3747  0 */\n      dup1\n        /* \"inviter_presell/stake.sol\":3733:3742  startTime */\n      sload(0x06)\n        /* \"inviter_presell/stake.sol\":3733:3747  startTime == 0 */\n      sub\n        /* \"inviter_presell/stake.sol\":3730:3792  if(startTime == 0) {... */\n      tag_226\n      jumpi\n        /* \"inviter_presell/stake.sol\":3771:3780  startTime */\n      sload(0x06)\n        /* \"inviter_presell/stake.sol\":3764:3780  return startTime */\n      swap1\n      pop\n      jump(tag_225)\n        /* \"inviter_presell/stake.sol\":3730:3792  if(startTime == 0) {... */\n    tag_226:\n        /* \"inviter_presell/stake.sol\":3802:3815  uint256 times */\n      0x00\n        /* \"inviter_presell/stake.sol\":3854:3855  1 */\n      0x01\n        /* \"inviter_presell/stake.sol\":3839:3851  rateInterval */\n      sload(0x07)\n        /* \"inviter_presell/stake.sol\":3826:3835  startTime */\n      sload(0x06)\n        /* \"inviter_presell/stake.sol\":3819:3823  time */\n      dup6\n        /* \"inviter_presell/stake.sol\":3819:3835  time - startTime */\n      tag_227\n      swap2\n      swap1\n      tag_228\n      jump\t// in\n    tag_227:\n        /* \"inviter_presell/stake.sol\":3818:3851  (time - startTime) / rateInterval */\n      tag_229\n      swap2\n      swap1\n      tag_230\n      jump\t// in\n    tag_229:\n        /* \"inviter_presell/stake.sol\":3818:3855  (time - startTime) / rateInterval + 1 */\n      tag_231\n      swap2\n      swap1\n      tag_210\n      jump\t// in\n    tag_231:\n        /* \"inviter_presell/stake.sol\":3802:3855  uint256 times = (time - startTime) / rateInterval + 1 */\n      swap1\n      pop\n        /* \"inviter_presell/stake.sol\":3866:3879  uint256 value */\n      0x00\n        /* \"inviter_presell/stake.sol\":3882:3894  totalRewards */\n      sload(0x05)\n        /* \"inviter_presell/stake.sol\":3866:3894  uint256 value = totalRewards */\n      swap1\n      pop\n        /* \"inviter_presell/stake.sol\":3909:3918  uint256 i */\n      0x00\n        /* \"inviter_presell/stake.sol\":3905:4038  for(uint256 i = 0; i < times; ++i) {... */\n    tag_232:\n        /* \"inviter_presell/stake.sol\":3928:3933  times */\n      dup3\n        /* \"inviter_presell/stake.sol\":3924:3925  i */\n      dup2\n        /* \"inviter_presell/stake.sol\":3924:3933  i < times */\n      lt\n        /* \"inviter_presell/stake.sol\":3905:4038  for(uint256 i = 0; i < times; ++i) {... */\n      iszero\n      tag_233\n      jumpi\n        /* \"inviter_presell/stake.sol\":4003:4026  rateIntervalDenominator */\n      sload(0x09)\n        /* \"inviter_presell/stake.sol\":3979:4000  rateIntervalNumerator */\n      sload(0x08)\n        /* \"inviter_presell/stake.sol\":3971:3976  value */\n      dup4\n        /* \"inviter_presell/stake.sol\":3971:4000  value * rateIntervalNumerator */\n      tag_235\n      swap2\n      swap1\n      tag_236\n      jump\t// in\n    tag_235:\n        /* \"inviter_presell/stake.sol\":3971:4026  value * rateIntervalNumerator / rateIntervalDenominator */\n      tag_237\n      swap2\n      swap1\n      tag_230\n      jump\t// in\n    tag_237:\n        /* \"inviter_presell/stake.sol\":3963:3968  value */\n      dup3\n        /* \"inviter_presell/stake.sol\":3963:4026  value - value * rateIntervalNumerator / rateIntervalDenominator */\n      tag_238\n      swap2\n      swap1\n      tag_228\n      jump\t// in\n    tag_238:\n        /* \"inviter_presell/stake.sol\":3955:4026  value = value - value * rateIntervalNumerator / rateIntervalDenominator */\n      swap2\n      pop\n        /* \"inviter_presell/stake.sol\":3935:3938  ++i */\n      dup1\n      tag_239\n      swap1\n      tag_240\n      jump\t// in\n    tag_239:\n      swap1\n      pop\n        /* \"inviter_presell/stake.sol\":3905:4038  for(uint256 i = 0; i < times; ++i) {... */\n      jump(tag_232)\n    tag_233:\n      pop\n        /* \"inviter_presell/stake.sol\":4055:4060  value */\n      dup1\n        /* \"inviter_presell/stake.sol\":4048:4060  return value */\n      swap3\n      pop\n      pop\n      pop\n        /* \"inviter_presell/stake.sol\":3652:4068  function getRemainPool(uint256 time) public view returns (uint256) {... */\n    tag_225:\n      swap2\n      swap1\n      pop\n      jump\t// out\n        /* \"inviter_presell/stake.sol\":2579:3150  function getRewardPool(uint256 time) public view returns (uint256) {... */\n    tag_86:\n        /* \"inviter_presell/stake.sol\":2637:2644  uint256 */\n      0x00\n        /* \"inviter_presell/stake.sol\":2673:2674  0 */\n      dup1\n        /* \"inviter_presell/stake.sol\":2660:2669  startTime */\n      sload(0x06)\n        /* \"inviter_presell/stake.sol\":2660:2674  startTime == 0 */\n      sub\n        /* \"inviter_presell/stake.sol\":2657:2722  if(startTime == 0) {... */\n      tag_242\n      jumpi\n        /* \"inviter_presell/stake.sol\":2698:2710  totalRewards */\n      sload(0x05)\n        /* \"inviter_presell/stake.sol\":2691:2710  return totalRewards */\n      swap1\n      pop\n      jump(tag_241)\n        /* \"inviter_presell/stake.sol\":2657:2722  if(startTime == 0) {... */\n    tag_242:\n        /* \"inviter_presell/stake.sol\":2742:2751  startTime */\n      sload(0x06)\n        /* \"inviter_presell/stake.sol\":2735:2739  time */\n      dup3\n        /* \"inviter_presell/stake.sol\":2735:2751  time < startTime */\n      lt\n        /* \"inviter_presell/stake.sol\":2732:2788  if(time < startTime) {... */\n      iszero\n      tag_243\n      jumpi\n        /* \"inviter_presell/stake.sol\":2775:2776  0 */\n      0x00\n        /* \"inviter_presell/stake.sol\":2768:2776  return 0 */\n      swap1\n      pop\n      jump(tag_241)\n        /* \"inviter_presell/stake.sol\":2732:2788  if(time < startTime) {... */\n    tag_243:\n        /* \"inviter_presell/stake.sol\":2798:2811  uint256 times */\n      0x00\n        /* \"inviter_presell/stake.sol\":2850:2851  1 */\n      0x01\n        /* \"inviter_presell/stake.sol\":2835:2847  rateInterval */\n      sload(0x07)\n        /* \"inviter_presell/stake.sol\":2822:2831  startTime */\n      sload(0x06)\n        /* \"inviter_presell/stake.sol\":2815:2819  time */\n      dup6\n        /* \"inviter_presell/stake.sol\":2815:2831  time - startTime */\n      tag_244\n      swap2\n      swap1\n      tag_228\n      jump\t// in\n    tag_244:\n        /* \"inviter_presell/stake.sol\":2814:2847  (time - startTime) / rateInterval */\n      tag_245\n      swap2\n      swap1\n      tag_230\n      jump\t// in\n    tag_245:\n        /* \"inviter_presell/stake.sol\":2814:2851  (time - startTime) / rateInterval + 1 */\n      tag_246\n      swap2\n      swap1\n      tag_210\n      jump\t// in\n    tag_246:\n        /* \"inviter_presell/stake.sol\":2798:2851  uint256 times = (time - startTime) / rateInterval + 1 */\n      swap1\n      pop\n        /* \"inviter_presell/stake.sol\":2862:2875  uint256 value */\n      0x00\n        /* \"inviter_presell/stake.sol\":2878:2890  totalRewards */\n      sload(0x05)\n        /* \"inviter_presell/stake.sol\":2862:2890  uint256 value = totalRewards */\n      swap1\n      pop\n        /* \"inviter_presell/stake.sol\":2905:2914  uint256 i */\n      0x00\n        /* \"inviter_presell/stake.sol\":2901:3034  for(uint256 i = 0; i < times; ++i) {... */\n    tag_247:\n        /* \"inviter_presell/stake.sol\":2924:2929  times */\n      dup3\n        /* \"inviter_presell/stake.sol\":2920:2921  i */\n      dup2\n        /* \"inviter_presell/stake.sol\":2920:2929  i < times */\n      lt\n        /* \"inviter_presell/stake.sol\":2901:3034  for(uint256 i = 0; i < times; ++i) {... */\n      iszero\n      tag_248\n      jumpi\n        /* \"inviter_presell/stake.sol\":2999:3022  rateIntervalDenominator */\n      sload(0x09)\n        /* \"inviter_presell/stake.sol\":2975:2996  rateIntervalNumerator */\n      sload(0x08)\n        /* \"inviter_presell/stake.sol\":2967:2972  value */\n      dup4\n        /* \"inviter_presell/stake.sol\":2967:2996  value * rateIntervalNumerator */\n      tag_250\n      swap2\n      swap1\n      tag_236\n      jump\t// in\n    tag_250:\n        /* \"inviter_presell/stake.sol\":2967:3022  value * rateIntervalNumerator / rateIntervalDenominator */\n      tag_251\n      swap2\n      swap1\n      tag_230\n      jump\t// in\n    tag_251:\n        /* \"inviter_presell/stake.sol\":2959:2964  value */\n      dup3\n        /* \"inviter_presell/stake.sol\":2959:3022  value - value * rateIntervalNumerator / rateIntervalDenominator */\n      tag_252\n      swap2\n      swap1\n      tag_228\n      jump\t// in\n    tag_252:\n        /* \"inviter_presell/stake.sol\":2951:3022  value = value - value * rateIntervalNumerator / rateIntervalDenominator */\n      swap2\n      pop\n        /* \"inviter_presell/stake.sol\":2931:2934  ++i */\n      dup1\n      tag_253\n      swap1\n      tag_240\n      jump\t// in\n    tag_253:\n      swap1\n      pop\n        /* \"inviter_presell/stake.sol\":2901:3034  for(uint256 i = 0; i < times; ++i) {... */\n      jump(tag_247)\n    tag_248:\n      pop\n        /* \"inviter_presell/stake.sol\":3081:3142  value.mul(rateIntervalNumerator).div(rateIntervalDenominator) */\n      tag_254\n        /* \"inviter_presell/stake.sol\":3118:3141  rateIntervalDenominator */\n      sload(0x09)\n        /* \"inviter_presell/stake.sol\":3081:3113  value.mul(rateIntervalNumerator) */\n      tag_255\n        /* \"inviter_presell/stake.sol\":3091:3112  rateIntervalNumerator */\n      sload(0x08)\n        /* \"inviter_presell/stake.sol\":3081:3086  value */\n      dup5\n        /* \"inviter_presell/stake.sol\":3081:3090  value.mul */\n      tag_176\n      swap1\n        /* \"inviter_presell/stake.sol\":3081:3113  value.mul(rateIntervalNumerator) */\n      swap2\n      swap1\n      0xffffffff\n      and\n      jump\t// in\n    tag_255:\n        /* \"inviter_presell/stake.sol\":3081:3117  value.mul(rateIntervalNumerator).div */\n      tag_177\n      swap1\n        /* \"inviter_presell/stake.sol\":3081:3142  value.mul(rateIntervalNumerator).div(rateIntervalDenominator) */\n      swap2\n      swap1\n      0xffffffff\n      and\n      jump\t// in\n    tag_254:\n        /* \"inviter_presell/stake.sol\":3074:3142  return value.mul(rateIntervalNumerator).div(rateIntervalDenominator) */\n      swap3\n      pop\n      pop\n      pop\n        /* \"inviter_presell/stake.sol\":2579:3150  function getRewardPool(uint256 time) public view returns (uint256) {... */\n    tag_241:\n      swap2\n      swap1\n      pop\n      jump\t// out\n        /* \"inviter_presell/stake.sol\":636:676  uint256 public rateInterval = 10 minutes */\n    tag_89:\n      sload(0x07)\n      dup2\n      jump\t// out\n        /* \"inviter_presell/stake.sol\":2135:2228  function totalPowers() external view returns (uint256) {... */\n    tag_92:\n        /* \"inviter_presell/stake.sol\":2181:2188  uint256 */\n      0x00\n        /* \"inviter_presell/stake.sol\":2208:2220  _totalPowers */\n      sload(0x0c)\n        /* \"inviter_presell/stake.sol\":2201:2220  return _totalPowers */\n      swap1\n      pop\n        /* \"inviter_presell/stake.sol\":2135:2228  function totalPowers() external view returns (uint256) {... */\n      swap1\n      jump\t// out\n        /* \"inviter_presell/adminable.sol\":1123:1226  function renounceOwnership() public virtual onlyOwner {... */\n    tag_95:\n        /* \"inviter_presell/adminable.sol\":702:714  _msgSender() */\n      tag_258\n        /* \"inviter_presell/adminable.sol\":702:712  _msgSender */\n      tag_181\n        /* \"inviter_presell/adminable.sol\":702:714  _msgSender() */\n      jump\t// in\n    tag_258:\n        /* \"inviter_presell/adminable.sol\":691:714  owner() == _msgSender() */\n      0xffffffffffffffffffffffffffffffffffffffff\n      and\n        /* \"inviter_presell/adminable.sol\":691:698  owner() */\n      tag_259\n        /* \"inviter_presell/adminable.sol\":691:696  owner */\n      tag_121\n        /* \"inviter_presell/adminable.sol\":691:698  owner() */\n      jump\t// in\n    tag_259:\n        /* \"inviter_presell/adminable.sol\":691:714  owner() == _msgSender() */\n      0xffffffffffffffffffffffffffffffffffffffff\n      and\n      eq\n        /* \"inviter_presell/adminable.sol\":683:753  require(owner() == _msgSender(), \"Adminable: caller is not the owner\") */\n      tag_260\n      jumpi\n      mload(0x40)\n      0x08c379a000000000000000000000000000000000000000000000000000000000\n      dup2\n      mstore\n      0x04\n      add\n      tag_261\n      swap1\n      tag_185\n      jump\t// in\n    tag_261:\n      mload(0x40)\n      dup1\n      swap2\n      sub\n      swap1\n      revert\n    tag_260:\n        /* \"inviter_presell/adminable.sol\":1188:1218  _transferOwnership(address(0)) */\n      tag_263\n        /* \"inviter_presell/adminable.sol\":1215:1216  0 */\n      0x00\n        /* \"inviter_presell/adminable.sol\":1188:1206  _transferOwnership */\n      tag_264\n        /* \"inviter_presell/adminable.sol\":1188:1218  _transferOwnership(address(0)) */\n      jump\t// in\n    tag_263:\n        /* \"inviter_presell/adminable.sol\":1123:1226  function renounceOwnership() public virtual onlyOwner {... */\n      jump\t// out\n        /* \"inviter_presell/stake.sol\":605:629  uint256 public startTime */\n    tag_97:\n      sload(0x06)\n      dup2\n      jump\t// out\n        /* \"inviter_presell/stake.sol\":730:775  uint256 public rateIntervalDenominator = 1000 */\n    tag_100:\n      sload(0x09)\n      dup2\n      jump\t// out\n        /* \"inviter_presell/stake.sol\":4431:4538  function lastTimeRewardApplicable() public view returns (uint256) {... */\n    tag_103:\n        /* \"inviter_presell/stake.sol\":4488:4495  uint256 */\n      0x00\n        /* \"inviter_presell/stake.sol\":4515:4530  block.timestamp */\n      timestamp\n        /* \"inviter_presell/stake.sol\":4508:4530  return block.timestamp */\n      swap1\n      pop\n        /* \"inviter_presell/stake.sol\":4431:4538  function lastTimeRewardApplicable() public view returns (uint256) {... */\n      swap1\n      jump\t// out\n        /* \"inviter_presell/stake.sol\":961:1014  mapping(address => uint256) public userLastUpdateTime */\n    tag_107:\n      mstore(0x20, 0x0e)\n      dup1\n      0x00\n      mstore\n      keccak256(0x00, 0x40)\n      0x00\n      swap2\n      pop\n      swap1\n      pop\n      sload\n      dup2\n      jump\t// out\n        /* \"inviter_presell/stake.sol\":4546:4894  function rewardPerToken(uint256 rewardRate) public view returns (uint256) {... */\n    tag_111:\n        /* \"inviter_presell/stake.sol\":4611:4618  uint256 */\n      0x00\n        /* \"inviter_presell/stake.sol\":4651:4652  0 */\n      dup1\n        /* \"inviter_presell/stake.sol\":4635:4647  _totalPowers */\n      sload(0x0c)\n        /* \"inviter_presell/stake.sol\":4635:4652  _totalPowers == 0 */\n      sub\n        /* \"inviter_presell/stake.sol\":4631:4708  if (_totalPowers == 0) {... */\n      tag_267\n      jumpi\n        /* \"inviter_presell/stake.sol\":4676:4696  rewardPerTokenStored */\n      sload(0x0b)\n        /* \"inviter_presell/stake.sol\":4669:4696  return rewardPerTokenStored */\n      swap1\n      pop\n      jump(tag_266)\n        /* \"inviter_presell/stake.sol\":4631:4708  if (_totalPowers == 0) {... */\n    tag_267:\n        /* \"inviter_presell/stake.sol\":4738:4886  rewardPerTokenStored.add(... */\n      tag_268\n        /* \"inviter_presell/stake.sol\":4781:4871  lastTimeRewardApplicable().sub(lastUpdateTime).mul(rewardRate).mul(1e18).div(_totalPowers) */\n      tag_269\n        /* \"inviter_presell/stake.sol\":4858:4870  _totalPowers */\n      sload(0x0c)\n        /* \"inviter_presell/stake.sol\":4781:4853  lastTimeRewardApplicable().sub(lastUpdateTime).mul(rewardRate).mul(1e18) */\n      tag_270\n        /* \"inviter_presell/stake.sol\":4848:4852  1e18 */\n      0x0de0b6b3a7640000\n        /* \"inviter_presell/stake.sol\":4781:4843  lastTimeRewardApplicable().sub(lastUpdateTime).mul(rewardRate) */\n      tag_271\n        /* \"inviter_presell/stake.sol\":4832:4842  rewardRate */\n      dup8\n        /* \"inviter_presell/stake.sol\":4781:4827  lastTimeRewardApplicable().sub(lastUpdateTime) */\n      tag_272\n        /* \"inviter_presell/stake.sol\":4812:4826  lastUpdateTime */\n      sload(0x0a)\n        /* \"inviter_presell/stake.sol\":4781:4807  lastTimeRewardApplicable() */\n      tag_273\n        /* \"inviter_presell/stake.sol\":4781:4805  lastTimeRewardApplicable */\n      tag_103\n        /* \"inviter_presell/stake.sol\":4781:4807  lastTimeRewardApplicable() */\n      jump\t// in\n    tag_273:\n        /* \"inviter_presell/stake.sol\":4781:4811  lastTimeRewardApplicable().sub */\n      tag_175\n      swap1\n        /* \"inviter_presell/stake.sol\":4781:4827  lastTimeRewardApplicable().sub(lastUpdateTime) */\n      swap2\n      swap1\n      0xffffffff\n      and\n      jump\t// in\n    tag_272:\n        /* \"inviter_presell/stake.sol\":4781:4831  lastTimeRewardApplicable().sub(lastUpdateTime).mul */\n      tag_176\n      swap1\n        /* \"inviter_presell/stake.sol\":4781:4843  lastTimeRewardApplicable().sub(lastUpdateTime).mul(rewardRate) */\n      swap2\n      swap1\n      0xffffffff\n      and\n      jump\t// in\n    tag_271:\n        /* \"inviter_presell/stake.sol\":4781:4847  lastTimeRewardApplicable().sub(lastUpdateTime).mul(rewardRate).mul */\n      tag_176\n      swap1\n        /* \"inviter_presell/stake.sol\":4781:4853  lastTimeRewardApplicable().sub(lastUpdateTime).mul(rewardRate).mul(1e18) */\n      swap2\n      swap1\n      0xffffffff\n      and\n      jump\t// in\n    tag_270:\n        /* \"inviter_presell/stake.sol\":4781:4857  lastTimeRewardApplicable().sub(lastUpdateTime).mul(rewardRate).mul(1e18).div */\n      tag_177\n      swap1\n        /* \"inviter_presell/stake.sol\":4781:4871  lastTimeRewardApplicable().sub(lastUpdateTime).mul(rewardRate).mul(1e18).div(_totalPowers) */\n      swap2\n      swap1\n      0xffffffff\n      and\n      jump\t// in\n    tag_269:\n        /* \"inviter_presell/stake.sol\":4738:4758  rewardPerTokenStored */\n      sload(0x0b)\n        /* \"inviter_presell/stake.sol\":4738:4762  rewardPerTokenStored.add */\n      tag_178\n      swap1\n        /* \"inviter_presell/stake.sol\":4738:4886  rewardPerTokenStored.add(... */\n      swap2\n      swap1\n      0xffffffff\n      and\n      jump\t// in\n    tag_268:\n        /* \"inviter_presell/stake.sol\":4718:4886  return... */\n      swap1\n      pop\n        /* \"inviter_presell/stake.sol\":4546:4894  function rewardPerToken(uint256 rewardRate) public view returns (uint256) {... */\n    tag_266:\n      swap2\n      swap1\n      pop\n      jump\t// out\n        /* \"inviter_presell/stake.sol\":7305:7410  function setRewardToken(address token) external onlyOwner {... */\n    tag_115:\n        /* \"inviter_presell/adminable.sol\":702:714  _msgSender() */\n      tag_275\n        /* \"inviter_presell/adminable.sol\":702:712  _msgSender */\n      tag_181\n        /* \"inviter_presell/adminable.sol\":702:714  _msgSender() */\n      jump\t// in\n    tag_275:\n        /* \"inviter_presell/adminable.sol\":691:714  owner() == _msgSender() */\n      0xffffffffffffffffffffffffffffffffffffffff\n      and\n        /* \"inviter_presell/adminable.sol\":691:698  owner() */\n      tag_276\n        /* \"inviter_presell/adminable.sol\":691:696  owner */\n      tag_121\n        /* \"inviter_presell/adminable.sol\":691:698  owner() */\n      jump\t// in\n    tag_276:\n        /* \"inviter_presell/adminable.sol\":691:714  owner() == _msgSender() */\n      0xffffffffffffffffffffffffffffffffffffffff\n      and\n      eq\n        /* \"inviter_presell/adminable.sol\":683:753  require(owner() == _msgSender(), \"Adminable: caller is not the owner\") */\n      tag_277\n      jumpi\n      mload(0x40)\n      0x08c379a000000000000000000000000000000000000000000000000000000000\n      dup2\n      mstore\n      0x04\n      add\n      tag_278\n      swap1\n      tag_185\n      jump\t// in\n    tag_278:\n      mload(0x40)\n      dup1\n      swap2\n      sub\n      swap1\n      revert\n    tag_277:\n        /* \"inviter_presell/stake.sol\":7396:7401  token */\n      dup1\n        /* \"inviter_presell/stake.sol\":7374:7386  rewardsToken */\n      0x03\n      0x00\n        /* \"inviter_presell/stake.sol\":7374:7402  rewardsToken = IERC20(token) */\n      0x0100\n      exp\n      dup2\n      sload\n      dup2\n      0xffffffffffffffffffffffffffffffffffffffff\n      mul\n      not\n      and\n      swap1\n      dup4\n      0xffffffffffffffffffffffffffffffffffffffff\n      and\n      mul\n      or\n      swap1\n      sstore\n      pop\n        /* \"inviter_presell/stake.sol\":7305:7410  function setRewardToken(address token) external onlyOwner {... */\n      pop\n      jump\t// out\n        /* \"inviter_presell/stake.sol\":897:954  mapping(address => uint256) public userRewardPerTokenPaid */\n    tag_118:\n      mstore(0x20, 0x0d)\n      dup1\n      0x00\n      mstore\n      keccak256(0x00, 0x40)\n      0x00\n      swap2\n      pop\n      swap1\n      pop\n      sload\n      dup2\n      jump\t// out\n        /* \"inviter_presell/adminable.sol\":909:996  function owner() public view virtual returns (address) {... */\n    tag_121:\n        /* \"inviter_presell/adminable.sol\":955:962  address */\n      0x00\n        /* \"inviter_presell/adminable.sol\":982:988  _owner */\n      0x01\n      0x00\n      swap1\n      sload\n      swap1\n      0x0100\n      exp\n      swap1\n      div\n      0xffffffffffffffffffffffffffffffffffffffff\n      and\n        /* \"inviter_presell/adminable.sol\":975:988  return _owner */\n      swap1\n      pop\n        /* \"inviter_presell/adminable.sol\":909:996  function owner() public view virtual returns (address) {... */\n      swap1\n      jump\t// out\n        /* \"inviter_presell/stake.sol\":2457:2571  function getCurRewardPool() public view returns (uint256) {... */\n    tag_125:\n        /* \"inviter_presell/stake.sol\":2506:2513  uint256 */\n      0x00\n        /* \"inviter_presell/stake.sol\":2533:2563  getRewardPool(block.timestamp) */\n      tag_282\n        /* \"inviter_presell/stake.sol\":2547:2562  block.timestamp */\n      timestamp\n        /* \"inviter_presell/stake.sol\":2533:2546  getRewardPool */\n      tag_86\n        /* \"inviter_presell/stake.sol\":2533:2563  getRewardPool(block.timestamp) */\n      jump\t// in\n    tag_282:\n        /* \"inviter_presell/stake.sol\":2526:2563  return getRewardPool(block.timestamp) */\n      swap1\n      pop\n        /* \"inviter_presell/stake.sol\":2457:2571  function getCurRewardPool() public view returns (uint256) {... */\n      swap1\n      jump\t// out\n        /* \"inviter_presell/stake.sol\":2236:2330  function curTime() external  view  returns (uint256) {... */\n    tag_128:\n        /* \"inviter_presell/stake.sol\":2280:2287  uint256 */\n      0x00\n        /* \"inviter_presell/stake.sol\":2307:2322  block.timestamp */\n      timestamp\n        /* \"inviter_presell/stake.sol\":2300:2322  return block.timestamp */\n      swap1\n      pop\n        /* \"inviter_presell/stake.sol\":2236:2330  function curTime() external  view  returns (uint256) {... */\n      swap1\n      jump\t// out\n        /* \"inviter_presell/stake.sol\":7667:7810  function emergencyWithdrawToken(address token, uint256 amount) external onlyOwner {... */\n    tag_133:\n        /* \"inviter_presell/adminable.sol\":702:714  _msgSender() */\n      tag_285\n        /* \"inviter_presell/adminable.sol\":702:712  _msgSender */\n      tag_181\n        /* \"inviter_presell/adminable.sol\":702:714  _msgSender() */\n      jump\t// in\n    tag_285:\n        /* \"inviter_presell/adminable.sol\":691:714  owner() == _msgSender() */\n      0xffffffffffffffffffffffffffffffffffffffff\n      and\n        /* \"inviter_presell/adminable.sol\":691:698  owner() */\n      tag_286\n        /* \"inviter_presell/adminable.sol\":691:696  owner */\n      tag_121\n        /* \"inviter_presell/adminable.sol\":691:698  owner() */\n      jump\t// in\n    tag_286:\n        /* \"inviter_presell/adminable.sol\":691:714  owner() == _msgSender() */\n      0xffffffffffffffffffffffffffffffffffffffff\n      and\n      eq\n        /* \"inviter_presell/adminable.sol\":683:753  require(owner() == _msgSender(), \"Adminable: caller is not the owner\") */\n      tag_287\n      jumpi\n      mload(0x40)\n      0x08c379a000000000000000000000000000000000000000000000000000000000\n      dup2\n      mstore\n      0x04\n      add\n      tag_288\n      swap1\n      tag_185\n      jump\t// in\n    tag_288:\n      mload(0x40)\n      dup1\n      swap2\n      sub\n      swap1\n      revert\n    tag_287:\n        /* \"inviter_presell/stake.sol\":7767:7772  token */\n      dup2\n        /* \"inviter_presell/stake.sol\":7760:7782  IERC20(token).transfer */\n      0xffffffffffffffffffffffffffffffffffffffff\n      and\n      0xa9059cbb\n        /* \"inviter_presell/stake.sol\":7783:7793  msg.sender */\n      caller\n        /* \"inviter_presell/stake.sol\":7795:7801  amount */\n      dup4\n        /* \"inviter_presell/stake.sol\":7760:7802  IERC20(token).transfer(msg.sender, amount) */\n      mload(0x40)\n      dup4\n      0xffffffff\n      and\n      0xe0\n      shl\n      dup2\n      mstore\n      0x04\n      add\n      tag_290\n      swap3\n      swap2\n      swap1\n      tag_212\n      jump\t// in\n    tag_290:\n      0x20\n      mload(0x40)\n      dup1\n      dup4\n      sub\n      dup2\n      0x00\n      dup8\n      gas\n      call\n      iszero\n      dup1\n      iszero\n      tag_292\n      jumpi\n      returndatasize\n      0x00\n      dup1\n      returndatacopy\n      revert(0x00, returndatasize)\n    tag_292:\n      pop\n      pop\n      pop\n      pop\n      mload(0x40)\n      returndatasize\n      not(0x1f)\n      0x1f\n      dup3\n      add\n      and\n      dup3\n      add\n      dup1\n      0x40\n      mstore\n      pop\n      dup2\n      add\n      swap1\n      tag_293\n      swap2\n      swap1\n      tag_216\n      jump\t// in\n    tag_293:\n      pop\n        /* \"inviter_presell/stake.sol\":7667:7810  function emergencyWithdrawToken(address token, uint256 amount) external onlyOwner {... */\n      pop\n      pop\n      jump\t// out\n        /* \"inviter_presell/stake.sol\":6634:6928  function stake(address user, uint256 amount) external nonReentrant onlyAdmin updateReward(user) {... */\n    tag_136:\n        /* \"node_modules/@openzeppelin/contracts/security/ReentrancyGuard.sol\":1744:1745  2 */\n      0x02\n        /* \"node_modules/@openzeppelin/contracts/security/ReentrancyGuard.sol\":2325:2332  _status */\n      dup1\n      sload\n        /* \"node_modules/@openzeppelin/contracts/security/ReentrancyGuard.sol\":2325:2344  _status != _ENTERED */\n      sub\n        /* \"node_modules/@openzeppelin/contracts/security/ReentrancyGuard.sol\":2317:2380  require(_status != _ENTERED, \"ReentrancyGuard: reentrant call\") */\n      tag_295\n      jumpi\n      mload(0x40)\n      0x08c379a000000000000000000000000000000000000000000000000000000000\n      dup2\n      mstore\n      0x04\n      add\n      tag_296\n      swap1\n      tag_199\n      jump\t// in\n    tag_296:\n      mload(0x40)\n      dup1\n      swap2\n      sub\n      swap1\n      revert\n    tag_295:\n        /* \"node_modules/@openzeppelin/contracts/security/ReentrancyGuard.sol\":1744:1745  2 */\n      0x02\n        /* \"node_modules/@openzeppelin/contracts/security/ReentrancyGuard.sol\":2455:2462  _status */\n      dup1\n        /* \"node_modules/@openzeppelin/contracts/security/ReentrancyGuard.sol\":2455:2473  _status = _ENTERED */\n      dup2\n      swap1\n      sstore\n      pop\n        /* \"inviter_presell/adminable.sol\":821:842  isAdmin(_msgSender()) */\n      tag_298\n        /* \"inviter_presell/adminable.sol\":829:841  _msgSender() */\n      tag_299\n        /* \"inviter_presell/adminable.sol\":829:839  _msgSender */\n      tag_181\n        /* \"inviter_presell/adminable.sol\":829:841  _msgSender() */\n      jump\t// in\n    tag_299:\n        /* \"inviter_presell/adminable.sol\":821:828  isAdmin */\n      tag_68\n        /* \"inviter_presell/adminable.sol\":821:842  isAdmin(_msgSender()) */\n      jump\t// in\n    tag_298:\n        /* \"inviter_presell/adminable.sol\":813:881  require(isAdmin(_msgSender()), \"Adminable: caller is not the admin\") */\n      tag_300\n      jumpi\n      mload(0x40)\n      0x08c379a000000000000000000000000000000000000000000000000000000000\n      dup2\n      mstore\n      0x04\n      add\n      tag_301\n      swap1\n      tag_223\n      jump\t// in\n    tag_301:\n      mload(0x40)\n      dup1\n      swap2\n      sub\n      swap1\n      revert\n    tag_300:\n        /* \"inviter_presell/stake.sol\":6724:6728  user */\n      dup2\n        /* \"inviter_presell/stake.sol\":1186:1198  uint256 time */\n      0x00\n        /* \"inviter_presell/stake.sol\":1201:1219  userLastUpdateTime */\n      0x0e\n        /* \"inviter_presell/stake.sol\":1201:1228  userLastUpdateTime[account] */\n      0x00\n        /* \"inviter_presell/stake.sol\":1220:1227  account */\n      dup4\n        /* \"inviter_presell/stake.sol\":1201:1228  userLastUpdateTime[account] */\n      0xffffffffffffffffffffffffffffffffffffffff\n      and\n      0xffffffffffffffffffffffffffffffffffffffff\n      and\n      dup2\n      mstore\n      0x20\n      add\n      swap1\n      dup2\n      mstore\n      0x20\n      add\n      0x00\n      keccak256\n      sload\n        /* \"inviter_presell/stake.sol\":1186:1228  uint256 time = userLastUpdateTime[account] */\n      swap1\n      pop\n        /* \"inviter_presell/stake.sol\":1250:1259  startTime */\n      sload(0x06)\n        /* \"inviter_presell/stake.sol\":1242:1246  time */\n      dup2\n        /* \"inviter_presell/stake.sol\":1242:1259  time <= startTime */\n      gt\n        /* \"inviter_presell/stake.sol\":1239:1304  if(time <= startTime) {... */\n      tag_303\n      jumpi\n        /* \"inviter_presell/stake.sol\":1283:1292  startTime */\n      sload(0x06)\n        /* \"inviter_presell/stake.sol\":1276:1292  time = startTime */\n      swap1\n      pop\n        /* \"inviter_presell/stake.sol\":1239:1304  if(time <= startTime) {... */\n    tag_303:\n        /* \"inviter_presell/stake.sol\":1314:1326  uint256 rate */\n      0x00\n        /* \"inviter_presell/stake.sol\":1329:1374  getTimeWeightedAveRate(time, block.timestamp) */\n      tag_304\n        /* \"inviter_presell/stake.sol\":1352:1356  time */\n      dup3\n        /* \"inviter_presell/stake.sol\":1358:1373  block.timestamp */\n      timestamp\n        /* \"inviter_presell/stake.sol\":1329:1351  getTimeWeightedAveRate */\n      tag_158\n        /* \"inviter_presell/stake.sol\":1329:1374  getTimeWeightedAveRate(time, block.timestamp) */\n      jump\t// in\n    tag_304:\n        /* \"inviter_presell/stake.sol\":1314:1374  uint256 rate = getTimeWeightedAveRate(time, block.timestamp) */\n      swap1\n      pop\n        /* \"inviter_presell/stake.sol\":1408:1428  rewardPerToken(rate) */\n      tag_305\n        /* \"inviter_presell/stake.sol\":1423:1427  rate */\n      dup2\n        /* \"inviter_presell/stake.sol\":1408:1422  rewardPerToken */\n      tag_111\n        /* \"inviter_presell/stake.sol\":1408:1428  rewardPerToken(rate) */\n      jump\t// in\n    tag_305:\n        /* \"inviter_presell/stake.sol\":1385:1405  rewardPerTokenStored */\n      0x0b\n        /* \"inviter_presell/stake.sol\":1385:1428  rewardPerTokenStored = rewardPerToken(rate) */\n      dup2\n      swap1\n      sstore\n      pop\n        /* \"inviter_presell/stake.sol\":1456:1482  lastTimeRewardApplicable() */\n      tag_306\n        /* \"inviter_presell/stake.sol\":1456:1480  lastTimeRewardApplicable */\n      tag_103\n        /* \"inviter_presell/stake.sol\":1456:1482  lastTimeRewardApplicable() */\n      jump\t// in\n    tag_306:\n        /* \"inviter_presell/stake.sol\":1439:1453  lastUpdateTime */\n      0x0a\n        /* \"inviter_presell/stake.sol\":1439:1482  lastUpdateTime = lastTimeRewardApplicable() */\n      dup2\n      swap1\n      sstore\n      pop\n        /* \"inviter_presell/stake.sol\":1516:1517  0 */\n      0x00\n        /* \"inviter_presell/stake.sol\":1497:1518  account != address(0) */\n      0xffffffffffffffffffffffffffffffffffffffff\n      and\n        /* \"inviter_presell/stake.sol\":1497:1504  account */\n      dup4\n        /* \"inviter_presell/stake.sol\":1497:1518  account != address(0) */\n      0xffffffffffffffffffffffffffffffffffffffff\n      and\n      eq\n        /* \"inviter_presell/stake.sol\":1493:1710  if (account != address(0)) {... */\n      tag_307\n      jumpi\n        /* \"inviter_presell/stake.sol\":1554:1569  earned(account) */\n      tag_308\n        /* \"inviter_presell/stake.sol\":1561:1568  account */\n      dup4\n        /* \"inviter_presell/stake.sol\":1554:1560  earned */\n      tag_48\n        /* \"inviter_presell/stake.sol\":1554:1569  earned(account) */\n      jump\t// in\n    tag_308:\n        /* \"inviter_presell/stake.sol\":1535:1542  rewards */\n      0x04\n        /* \"inviter_presell/stake.sol\":1535:1551  rewards[account] */\n      0x00\n        /* \"inviter_presell/stake.sol\":1543:1550  account */\n      dup6\n        /* \"inviter_presell/stake.sol\":1535:1551  rewards[account] */\n      0xffffffffffffffffffffffffffffffffffffffff\n      and\n      0xffffffffffffffffffffffffffffffffffffffff\n      and\n      dup2\n      mstore\n      0x20\n      add\n      swap1\n      dup2\n      mstore\n      0x20\n      add\n      0x00\n      keccak256\n        /* \"inviter_presell/stake.sol\":1535:1569  rewards[account] = earned(account) */\n      dup2\n      swap1\n      sstore\n      pop\n        /* \"inviter_presell/stake.sol\":1618:1638  rewardPerTokenStored */\n      sload(0x0b)\n        /* \"inviter_presell/stake.sol\":1584:1606  userRewardPerTokenPaid */\n      0x0d\n        /* \"inviter_presell/stake.sol\":1584:1615  userRewardPerTokenPaid[account] */\n      0x00\n        /* \"inviter_presell/stake.sol\":1607:1614  account */\n      dup6\n        /* \"inviter_presell/stake.sol\":1584:1615  userRewardPerTokenPaid[account] */\n      0xffffffffffffffffffffffffffffffffffffffff\n      and\n      0xffffffffffffffffffffffffffffffffffffffff\n      and\n      dup2\n      mstore\n      0x20\n      add\n      swap1\n      dup2\n      mstore\n      0x20\n      add\n      0x00\n      keccak256\n        /* \"inviter_presell/stake.sol\":1584:1638  userRewardPerTokenPaid[account] = rewardPerTokenStored */\n      dup2\n      swap1\n      sstore\n      pop\n        /* \"inviter_presell/stake.sol\":1683:1698  block.timestamp */\n      timestamp\n        /* \"inviter_presell/stake.sol\":1653:1671  userLastUpdateTime */\n      0x0e\n        /* \"inviter_presell/stake.sol\":1653:1680  userLastUpdateTime[account] */\n      0x00\n        /* \"inviter_presell/stake.sol\":1672:1679  account */\n      dup6\n        /* \"inviter_presell/stake.sol\":1653:1680  userLastUpdateTime[account] */\n      0xffffffffffffffffffffffffffffffffffffffff\n      and\n      0xffffffffffffffffffffffffffffffffffffffff\n      and\n      dup2\n      mstore\n      0x20\n      add\n      swap1\n      dup2\n      mstore\n      0x20\n      add\n      0x00\n      keccak256\n        /* \"inviter_presell/stake.sol\":1653:1698  userLastUpdateTime[account] = block.timestamp */\n      dup2\n      swap1\n      sstore\n      pop\n        /* \"inviter_presell/stake.sol\":1493:1710  if (account != address(0)) {... */\n    tag_307:\n        /* \"inviter_presell/stake.sol\":6758:6759  0 */\n      0x00\n        /* \"inviter_presell/stake.sol\":6749:6755  amount */\n      dup5\n        /* \"inviter_presell/stake.sol\":6749:6759  amount > 0 */\n      gt\n        /* \"inviter_presell/stake.sol\":6741:6778  require(amount > 0, \"Cannot stake 0\") */\n      tag_310\n      jumpi\n      mload(0x40)\n      0x08c379a000000000000000000000000000000000000000000000000000000000\n      dup2\n      mstore\n      0x04\n      add\n      tag_311\n      swap1\n      tag_312\n      jump\t// in\n    tag_311:\n      mload(0x40)\n      dup1\n      swap2\n      sub\n      swap1\n      revert\n    tag_310:\n        /* \"inviter_presell/stake.sol\":6804:6828  _totalPowers.add(amount) */\n      tag_313\n        /* \"inviter_presell/stake.sol\":6821:6827  amount */\n      dup5\n        /* \"inviter_presell/stake.sol\":6804:6816  _totalPowers */\n      sload(0x0c)\n        /* \"inviter_presell/stake.sol\":6804:6820  _totalPowers.add */\n      tag_178\n      swap1\n        /* \"inviter_presell/stake.sol\":6804:6828  _totalPowers.add(amount) */\n      swap2\n      swap1\n      0xffffffff\n      and\n      jump\t// in\n    tag_313:\n        /* \"inviter_presell/stake.sol\":6789:6801  _totalPowers */\n      0x0c\n        /* \"inviter_presell/stake.sol\":6789:6828  _totalPowers = _totalPowers.add(amount) */\n      dup2\n      swap1\n      sstore\n      pop\n        /* \"inviter_presell/stake.sol\":6857:6884  _balances[user].add(amount) */\n      tag_314\n        /* \"inviter_presell/stake.sol\":6877:6883  amount */\n      dup5\n        /* \"inviter_presell/stake.sol\":6857:6866  _balances */\n      0x0f\n        /* \"inviter_presell/stake.sol\":6857:6872  _balances[user] */\n      0x00\n        /* \"inviter_presell/stake.sol\":6867:6871  user */\n      dup9\n        /* \"inviter_presell/stake.sol\":6857:6872  _balances[user] */\n      0xffffffffffffffffffffffffffffffffffffffff\n      and\n      0xffffffffffffffffffffffffffffffffffffffff\n      and\n      dup2\n      mstore\n      0x20\n      add\n      swap1\n      dup2\n      mstore\n      0x20\n      add\n      0x00\n      keccak256\n      sload\n        /* \"inviter_presell/stake.sol\":6857:6876  _balances[user].add */\n      tag_178\n      swap1\n        /* \"inviter_presell/stake.sol\":6857:6884  _balances[user].add(amount) */\n      swap2\n      swap1\n      0xffffffff\n      and\n      jump\t// in\n    tag_314:\n        /* \"inviter_presell/stake.sol\":6839:6848  _balances */\n      0x0f\n        /* \"inviter_presell/stake.sol\":6839:6854  _balances[user] */\n      0x00\n        /* \"inviter_presell/stake.sol\":6849:6853  user */\n      dup8\n        /* \"inviter_presell/stake.sol\":6839:6854  _balances[user] */\n      0xffffffffffffffffffffffffffffffffffffffff\n      and\n      0xffffffffffffffffffffffffffffffffffffffff\n      and\n      dup2\n      mstore\n      0x20\n      add\n      swap1\n      dup2\n      mstore\n      0x20\n      add\n      0x00\n      keccak256\n        /* \"inviter_presell/stake.sol\":6839:6884  _balances[user] = _balances[user].add(amount) */\n      dup2\n      swap1\n      sstore\n      pop\n        /* \"inviter_presell/stake.sol\":6907:6911  user */\n      dup5\n        /* \"inviter_presell/stake.sol\":6900:6920  Staked(user, amount) */\n      0xffffffffffffffffffffffffffffffffffffffff\n      and\n      0x9e71bc8eea02a63969f509818f2dafb9254532904319f9dbda79b67bd34a5f3d\n        /* \"inviter_presell/stake.sol\":6913:6919  amount */\n      dup6\n        /* \"inviter_presell/stake.sol\":6900:6920  Staked(user, amount) */\n      mload(0x40)\n      tag_315\n      swap2\n      swap1\n      tag_50\n      jump\t// in\n    tag_315:\n      mload(0x40)\n      dup1\n      swap2\n      sub\n      swap1\n      log2\n        /* \"inviter_presell/stake.sol\":1175:1729  {... */\n      pop\n      pop\n        /* \"inviter_presell/adminable.sol\":892:893  _ */\n      pop\n        /* \"node_modules/@openzeppelin/contracts/security/ReentrancyGuard.sol\":1701:1702  1 */\n      0x01\n        /* \"node_modules/@openzeppelin/contracts/security/ReentrancyGuard.sol\":2628:2635  _status */\n      0x02\n        /* \"node_modules/@openzeppelin/contracts/security/ReentrancyGuard.sol\":2628:2650  _status = _NOT_ENTERED */\n      dup2\n      swap1\n      sstore\n      pop\n        /* \"inviter_presell/stake.sol\":6634:6928  function stake(address user, uint256 amount) external nonReentrant onlyAdmin updateReward(user) {... */\n      pop\n      pop\n      jump\t// out\n        /* \"inviter_presell/stake.sol\":2338:2449  function powersOf(address account) external view returns (uint256) {... */\n    tag_139:\n        /* \"inviter_presell/stake.sol\":2396:2403  uint256 */\n      0x00\n        /* \"inviter_presell/stake.sol\":2423:2432  _balances */\n      0x0f\n        /* \"inviter_presell/stake.sol\":2423:2441  _balances[account] */\n      0x00\n        /* \"inviter_presell/stake.sol\":2433:2440  account */\n      dup4\n        /* \"inviter_presell/stake.sol\":2423:2441  _balances[account] */\n      0xffffffffffffffffffffffffffffffffffffffff\n      and\n      0xffffffffffffffffffffffffffffffffffffffff\n      and\n      dup2\n      mstore\n      0x20\n      add\n      swap1\n      dup2\n      mstore\n      0x20\n      add\n      0x00\n      keccak256\n      sload\n        /* \"inviter_presell/stake.sol\":2416:2441  return _balances[account] */\n      swap1\n      pop\n        /* \"inviter_presell/stake.sol\":2338:2449  function powersOf(address account) external view returns (uint256) {... */\n      swap2\n      swap1\n      pop\n      jump\t// out\n        /* \"inviter_presell/stake.sol\":782:811  uint256 public lastUpdateTime */\n    tag_142:\n      sload(0x0a)\n      dup2\n      jump\t// out\n        /* \"inviter_presell/stake.sol\":4076:4191  function getCurRewardRate() public view returns (uint256) {... */\n    tag_145:\n        /* \"inviter_presell/stake.sol\":4125:4132  uint256 */\n      0x00\n        /* \"inviter_presell/stake.sol\":4152:4183  _getRewardRate(block.timestamp) */\n      tag_318\n        /* \"inviter_presell/stake.sol\":4167:4182  block.timestamp */\n      timestamp\n        /* \"inviter_presell/stake.sol\":4152:4166  _getRewardRate */\n      tag_319\n        /* \"inviter_presell/stake.sol\":4152:4183  _getRewardRate(block.timestamp) */\n      jump\t// in\n    tag_318:\n        /* \"inviter_presell/stake.sol\":4145:4183  return _getRewardRate(block.timestamp) */\n      swap1\n      pop\n        /* \"inviter_presell/stake.sol\":4076:4191  function getCurRewardRate() public view returns (uint256) {... */\n      swap1\n      jump\t// out\n        /* \"inviter_presell/stake.sol\":467:493  IERC20 public rewardsToken */\n    tag_148:\n      0x03\n      0x00\n      swap1\n      sload\n      swap1\n      0x0100\n      exp\n      swap1\n      div\n      0xffffffffffffffffffffffffffffffffffffffff\n      and\n      dup2\n      jump\t// out\n        /* \"inviter_presell/stake.sol\":1073:1123  mapping(address => uint256) public claimedBalances */\n    tag_153:\n      mstore(0x20, 0x10)\n      dup1\n      0x00\n      mstore\n      keccak256(0x00, 0x40)\n      0x00\n      swap2\n      pop\n      swap1\n      pop\n      sload\n      dup2\n      jump\t// out\n        /* \"inviter_presell/stake.sol\":5241:6624  function getTimeWeightedAveRate(uint256 leftTime, uint256 rightTime) public view returns (uint256){... */\n    tag_158:\n        /* \"inviter_presell/stake.sol\":5331:5338  uint256 */\n      0x00\n        /* \"inviter_presell/stake.sol\":5376:5377  0 */\n      dup1\n        /* \"inviter_presell/stake.sol\":5363:5372  startTime */\n      sload(0x06)\n        /* \"inviter_presell/stake.sol\":5363:5377  startTime == 0 */\n      eq\n        /* \"inviter_presell/stake.sol\":5363:5402  startTime == 0 || leftTime >= rightTime */\n      dup1\n      tag_321\n      jumpi\n      pop\n        /* \"inviter_presell/stake.sol\":5393:5402  rightTime */\n      dup2\n        /* \"inviter_presell/stake.sol\":5381:5389  leftTime */\n      dup4\n        /* \"inviter_presell/stake.sol\":5381:5402  leftTime >= rightTime */\n      lt\n      iszero\n        /* \"inviter_presell/stake.sol\":5363:5402  startTime == 0 || leftTime >= rightTime */\n    tag_321:\n        /* \"inviter_presell/stake.sol\":5363:5419  startTime == 0 || leftTime >= rightTime || leftTime == 0 */\n      dup1\n      tag_322\n      jumpi\n      pop\n        /* \"inviter_presell/stake.sol\":5418:5419  0 */\n      0x00\n        /* \"inviter_presell/stake.sol\":5406:5414  leftTime */\n      dup4\n        /* \"inviter_presell/stake.sol\":5406:5419  leftTime == 0 */\n      eq\n        /* \"inviter_presell/stake.sol\":5363:5419  startTime == 0 || leftTime >= rightTime || leftTime == 0 */\n    tag_322:\n        /* \"inviter_presell/stake.sol\":5360:5456  if(startTime == 0 || leftTime >= rightTime || leftTime == 0) {... */\n      iszero\n      tag_323\n      jumpi\n        /* \"inviter_presell/stake.sol\":5443:5444  0 */\n      0x00\n        /* \"inviter_presell/stake.sol\":5436:5444  return 0 */\n      swap1\n      pop\n      jump(tag_320)\n        /* \"inviter_presell/stake.sol\":5360:5456  if(startTime == 0 || leftTime >= rightTime || leftTime == 0) {... */\n    tag_323:\n        /* \"inviter_presell/stake.sol\":5482:5491  startTime */\n      sload(0x06)\n        /* \"inviter_presell/stake.sol\":5471:5479  leftTime */\n      dup4\n        /* \"inviter_presell/stake.sol\":5471:5491  leftTime < startTime */\n      lt\n        /* \"inviter_presell/stake.sol\":5468:5540  if(leftTime < startTime) {... */\n      iszero\n      tag_324\n      jumpi\n        /* \"inviter_presell/stake.sol\":5519:5528  startTime */\n      sload(0x06)\n        /* \"inviter_presell/stake.sol\":5508:5528  leftTime = startTime */\n      swap3\n      pop\n        /* \"inviter_presell/stake.sol\":5468:5540  if(leftTime < startTime) {... */\n    tag_324:\n        /* \"inviter_presell/stake.sol\":5552:5572  uint256 leftInterval */\n      0x00\n        /* \"inviter_presell/stake.sol\":5632:5644  rateInterval */\n      sload(0x07)\n        /* \"inviter_presell/stake.sol\":5616:5628  rateInterval */\n      sload(0x07)\n        /* \"inviter_presell/stake.sol\":5603:5612  startTime */\n      sload(0x06)\n        /* \"inviter_presell/stake.sol\":5592:5600  leftTime */\n      dup7\n        /* \"inviter_presell/stake.sol\":5592:5612  leftTime - startTime */\n      tag_325\n      swap2\n      swap1\n      tag_228\n      jump\t// in\n    tag_325:\n        /* \"inviter_presell/stake.sol\":5591:5628  (leftTime - startTime) % rateInterval */\n      tag_326\n      swap2\n      swap1\n      tag_327\n      jump\t// in\n    tag_326:\n        /* \"inviter_presell/stake.sol\":5576:5588  rateInterval */\n      sload(0x07)\n        /* \"inviter_presell/stake.sol\":5576:5628  rateInterval - (leftTime - startTime) % rateInterval */\n      tag_328\n      swap2\n      swap1\n      tag_228\n      jump\t// in\n    tag_328:\n        /* \"inviter_presell/stake.sol\":5575:5644  (rateInterval - (leftTime - startTime) % rateInterval) % rateInterval */\n      tag_329\n      swap2\n      swap1\n      tag_327\n      jump\t// in\n    tag_329:\n        /* \"inviter_presell/stake.sol\":5552:5644  uint256 leftInterval = (rateInterval - (leftTime - startTime) % rateInterval) % rateInterval */\n      swap1\n      pop\n        /* \"inviter_presell/stake.sol\":5655:5673  uint256 leftReward */\n      0x00\n        /* \"inviter_presell/stake.sol\":5717:5729  rateInterval */\n      sload(0x07)\n        /* \"inviter_presell/stake.sol\":5702:5714  leftInterval */\n      dup3\n        /* \"inviter_presell/stake.sol\":5676:5699  getRewardPool(leftTime) */\n      tag_330\n        /* \"inviter_presell/stake.sol\":5690:5698  leftTime */\n      dup8\n        /* \"inviter_presell/stake.sol\":5676:5689  getRewardPool */\n      tag_86\n        /* \"inviter_presell/stake.sol\":5676:5699  getRewardPool(leftTime) */\n      jump\t// in\n    tag_330:\n        /* \"inviter_presell/stake.sol\":5676:5714  getRewardPool(leftTime) * leftInterval */\n      tag_331\n      swap2\n      swap1\n      tag_236\n      jump\t// in\n    tag_331:\n        /* \"inviter_presell/stake.sol\":5676:5729  getRewardPool(leftTime) * leftInterval / rateInterval */\n      tag_332\n      swap2\n      swap1\n      tag_230\n      jump\t// in\n    tag_332:\n        /* \"inviter_presell/stake.sol\":5655:5729  uint256 leftReward = getRewardPool(leftTime) * leftInterval / rateInterval */\n      swap1\n      pop\n        /* \"inviter_presell/stake.sol\":5742:5763  uint256 rightInterval */\n      0x00\n        /* \"inviter_presell/stake.sol\":5792:5804  rateInterval */\n      sload(0x07)\n        /* \"inviter_presell/stake.sol\":5779:5788  startTime */\n      sload(0x06)\n        /* \"inviter_presell/stake.sol\":5767:5776  rightTime */\n      dup7\n        /* \"inviter_presell/stake.sol\":5767:5788  rightTime - startTime */\n      tag_333\n      swap2\n      swap1\n      tag_228\n      jump\t// in\n    tag_333:\n        /* \"inviter_presell/stake.sol\":5766:5804  (rightTime - startTime) % rateInterval */\n      tag_334\n      swap2\n      swap1\n      tag_327\n      jump\t// in\n    tag_334:\n        /* \"inviter_presell/stake.sol\":5742:5804  uint256 rightInterval = (rightTime - startTime) % rateInterval */\n      swap1\n      pop\n        /* \"inviter_presell/stake.sol\":5815:5834  uint256 rightReward */\n      0x00\n        /* \"inviter_presell/stake.sol\":5880:5892  rateInterval */\n      sload(0x07)\n        /* \"inviter_presell/stake.sol\":5864:5877  rightInterval */\n      dup3\n        /* \"inviter_presell/stake.sol\":5837:5861  getRewardPool(rightTime) */\n      tag_335\n        /* \"inviter_presell/stake.sol\":5851:5860  rightTime */\n      dup9\n        /* \"inviter_presell/stake.sol\":5837:5850  getRewardPool */\n      tag_86\n        /* \"inviter_presell/stake.sol\":5837:5861  getRewardPool(rightTime) */\n      jump\t// in\n    tag_335:\n        /* \"inviter_presell/stake.sol\":5837:5877  getRewardPool(rightTime) * rightInterval */\n      tag_336\n      swap2\n      swap1\n      tag_236\n      jump\t// in\n    tag_336:\n        /* \"inviter_presell/stake.sol\":5837:5892  getRewardPool(rightTime) * rightInterval / rateInterval */\n      tag_337\n      swap2\n      swap1\n      tag_230\n      jump\t// in\n    tag_337:\n        /* \"inviter_presell/stake.sol\":5815:5892  uint256 rightReward = getRewardPool(rightTime) * rightInterval / rateInterval */\n      swap1\n      pop\n        /* \"inviter_presell/stake.sol\":5934:5943  rightTime */\n      dup6\n        /* \"inviter_presell/stake.sol\":5919:5931  leftInterval */\n      dup5\n        /* \"inviter_presell/stake.sol\":5908:5916  leftTime */\n      dup9\n        /* \"inviter_presell/stake.sol\":5908:5931  leftTime + leftInterval */\n      tag_338\n      swap2\n      swap1\n      tag_210\n      jump\t// in\n    tag_338:\n        /* \"inviter_presell/stake.sol\":5908:5943  leftTime + leftInterval > rightTime */\n      gt\n        /* \"inviter_presell/stake.sol\":5905:6003  if(leftTime + leftInterval > rightTime) {... */\n      iszero\n      tag_339\n      jumpi\n        /* \"inviter_presell/stake.sol\":5967:5991  _getRewardRate(leftTime) */\n      tag_340\n        /* \"inviter_presell/stake.sol\":5982:5990  leftTime */\n      dup8\n        /* \"inviter_presell/stake.sol\":5967:5981  _getRewardRate */\n      tag_319\n        /* \"inviter_presell/stake.sol\":5967:5991  _getRewardRate(leftTime) */\n      jump\t// in\n    tag_340:\n        /* \"inviter_presell/stake.sol\":5960:5991  return _getRewardRate(leftTime) */\n      swap5\n      pop\n      pop\n      pop\n      pop\n      pop\n      jump(tag_320)\n        /* \"inviter_presell/stake.sol\":5905:6003  if(leftTime + leftInterval > rightTime) {... */\n    tag_339:\n        /* \"inviter_presell/stake.sol\":6015:6034  uint256 midInterval */\n      0x00\n        /* \"inviter_presell/stake.sol\":6076:6088  leftInterval */\n      dup5\n        /* \"inviter_presell/stake.sol\":6065:6073  leftTime */\n      dup9\n        /* \"inviter_presell/stake.sol\":6049:6062  rightInterval */\n      dup5\n        /* \"inviter_presell/stake.sol\":6037:6046  rightTime */\n      dup10\n        /* \"inviter_presell/stake.sol\":6037:6062  rightTime - rightInterval */\n      tag_341\n      swap2\n      swap1\n      tag_228\n      jump\t// in\n    tag_341:\n        /* \"inviter_presell/stake.sol\":6037:6073  rightTime - rightInterval - leftTime */\n      tag_342\n      swap2\n      swap1\n      tag_228\n      jump\t// in\n    tag_342:\n        /* \"inviter_presell/stake.sol\":6037:6088  rightTime - rightInterval - leftTime - leftInterval */\n      tag_343\n      swap2\n      swap1\n      tag_228\n      jump\t// in\n    tag_343:\n        /* \"inviter_presell/stake.sol\":6015:6088  uint256 midInterval = rightTime - rightInterval - leftTime - leftInterval */\n      swap1\n      pop\n        /* \"inviter_presell/stake.sol\":6099:6118  uint256 startReward */\n      0x00\n        /* \"inviter_presell/stake.sol\":6121:6144  getRemainPool(leftTime) */\n      tag_344\n        /* \"inviter_presell/stake.sol\":6135:6143  leftTime */\n      dup10\n        /* \"inviter_presell/stake.sol\":6121:6134  getRemainPool */\n      tag_82\n        /* \"inviter_presell/stake.sol\":6121:6144  getRemainPool(leftTime) */\n      jump\t// in\n    tag_344:\n        /* \"inviter_presell/stake.sol\":6099:6144  uint256 startReward = getRemainPool(leftTime) */\n      swap1\n      pop\n        /* \"inviter_presell/stake.sol\":6156:6178  uint256 midTotalReward */\n      0x00\n        /* \"inviter_presell/stake.sol\":6193:6211  uint256 nextReward */\n      dup1\n        /* \"inviter_presell/stake.sol\":6226:6239  uint256 value */\n      0x00\n        /* \"inviter_presell/stake.sol\":6242:6253  startReward */\n      dup4\n        /* \"inviter_presell/stake.sol\":6226:6253  uint256 value = startReward */\n      swap1\n      pop\n        /* \"inviter_presell/stake.sol\":6264:6277  uint256 times */\n      0x00\n        /* \"inviter_presell/stake.sol\":6294:6306  rateInterval */\n      sload(0x07)\n        /* \"inviter_presell/stake.sol\":6280:6291  midInterval */\n      dup7\n        /* \"inviter_presell/stake.sol\":6280:6306  midInterval / rateInterval */\n      tag_345\n      swap2\n      swap1\n      tag_230\n      jump\t// in\n    tag_345:\n        /* \"inviter_presell/stake.sol\":6264:6306  uint256 times = midInterval / rateInterval */\n      swap1\n      pop\n        /* \"inviter_presell/stake.sol\":6321:6330  uint256 i */\n      0x00\n        /* \"inviter_presell/stake.sol\":6317:6531  for(uint256 i = 0; i < times; ++i) {... */\n    tag_346:\n        /* \"inviter_presell/stake.sol\":6340:6345  times */\n      dup2\n        /* \"inviter_presell/stake.sol\":6336:6337  i */\n      dup2\n        /* \"inviter_presell/stake.sol\":6336:6345  i < times */\n      lt\n        /* \"inviter_presell/stake.sol\":6317:6531  for(uint256 i = 0; i < times; ++i) {... */\n      iszero\n      tag_347\n      jumpi\n        /* \"inviter_presell/stake.sol\":6412:6435  rateIntervalDenominator */\n      sload(0x09)\n        /* \"inviter_presell/stake.sol\":6388:6409  rateIntervalNumerator */\n      sload(0x08)\n        /* \"inviter_presell/stake.sol\":6380:6385  value */\n      dup5\n        /* \"inviter_presell/stake.sol\":6380:6409  value * rateIntervalNumerator */\n      tag_349\n      swap2\n      swap1\n      tag_236\n      jump\t// in\n    tag_349:\n        /* \"inviter_presell/stake.sol\":6380:6435  value * rateIntervalNumerator / rateIntervalDenominator */\n      tag_350\n      swap2\n      swap1\n      tag_230\n      jump\t// in\n    tag_350:\n        /* \"inviter_presell/stake.sol\":6367:6435  nextReward = value * rateIntervalNumerator / rateIntervalDenominator */\n      swap4\n      pop\n        /* \"inviter_presell/stake.sol\":6466:6476  nextReward */\n      dup4\n        /* \"inviter_presell/stake.sol\":6458:6463  value */\n      dup4\n        /* \"inviter_presell/stake.sol\":6458:6476  value - nextReward */\n      tag_351\n      swap2\n      swap1\n      tag_228\n      jump\t// in\n    tag_351:\n        /* \"inviter_presell/stake.sol\":6450:6476  value = value - nextReward */\n      swap3\n      pop\n        /* \"inviter_presell/stake.sol\":6509:6519  nextReward */\n      dup4\n        /* \"inviter_presell/stake.sol\":6491:6519  midTotalReward += nextReward */\n      dup6\n      tag_352\n      swap2\n      swap1\n      tag_210\n      jump\t// in\n    tag_352:\n      swap5\n      pop\n        /* \"inviter_presell/stake.sol\":6347:6350  ++i */\n      dup1\n      tag_353\n      swap1\n      tag_240\n      jump\t// in\n    tag_353:\n      swap1\n      pop\n        /* \"inviter_presell/stake.sol\":6317:6531  for(uint256 i = 0; i < times; ++i) {... */\n      jump(tag_346)\n    tag_347:\n      pop\n        /* \"inviter_presell/stake.sol\":6607:6615  leftTime */\n      dup13\n        /* \"inviter_presell/stake.sol\":6595:6604  rightTime */\n      dup13\n        /* \"inviter_presell/stake.sol\":6595:6615  rightTime - leftTime */\n      tag_354\n      swap2\n      swap1\n      tag_228\n      jump\t// in\n    tag_354:\n        /* \"inviter_presell/stake.sol\":6579:6590  rightReward */\n      dup8\n        /* \"inviter_presell/stake.sol\":6566:6576  leftReward */\n      dup11\n        /* \"inviter_presell/stake.sol\":6549:6563  midTotalReward */\n      dup7\n        /* \"inviter_presell/stake.sol\":6549:6576  midTotalReward + leftReward */\n      tag_355\n      swap2\n      swap1\n      tag_210\n      jump\t// in\n    tag_355:\n        /* \"inviter_presell/stake.sol\":6549:6590  midTotalReward + leftReward + rightReward */\n      tag_356\n      swap2\n      swap1\n      tag_210\n      jump\t// in\n    tag_356:\n        /* \"inviter_presell/stake.sol\":6548:6616  (midTotalReward + leftReward + rightReward) / (rightTime - leftTime) */\n      tag_357\n      swap2\n      swap1\n      tag_230\n      jump\t// in\n    tag_357:\n        /* \"inviter_presell/stake.sol\":6541:6616  return (midTotalReward + leftReward + rightReward) / (rightTime - leftTime) */\n      swap11\n      pop\n      pop\n      pop\n      pop\n      pop\n      pop\n      pop\n      pop\n      pop\n      pop\n      pop\n        /* \"inviter_presell/stake.sol\":5241:6624  function getTimeWeightedAveRate(uint256 leftTime, uint256 rightTime) public view returns (uint256){... */\n    tag_320:\n      swap3\n      swap2\n      pop\n      pop\n      jump\t// out\n        /* \"inviter_presell/stake.sol\":7544:7659  function emergencyWithdraw() external onlyOwner {... */\n    tag_161:\n        /* \"inviter_presell/adminable.sol\":702:714  _msgSender() */\n      tag_359\n        /* \"inviter_presell/adminable.sol\":702:712  _msgSender */\n      tag_181\n        /* \"inviter_presell/adminable.sol\":702:714  _msgSender() */\n      jump\t// in\n    tag_359:\n        /* \"inviter_presell/adminable.sol\":691:714  owner() == _msgSender() */\n      0xffffffffffffffffffffffffffffffffffffffff\n      and\n        /* \"inviter_presell/adminable.sol\":691:698  owner() */\n      tag_360\n        /* \"inviter_presell/adminable.sol\":691:696  owner */\n      tag_121\n        /* \"inviter_presell/adminable.sol\":691:698  owner() */\n      jump\t// in\n    tag_360:\n        /* \"inviter_presell/adminable.sol\":691:714  owner() == _msgSender() */\n      0xffffffffffffffffffffffffffffffffffffffff\n      and\n      eq\n        /* \"inviter_presell/adminable.sol\":683:753  require(owner() == _msgSender(), \"Adminable: caller is not the owner\") */\n      tag_361\n      jumpi\n      mload(0x40)\n      0x08c379a000000000000000000000000000000000000000000000000000000000\n      dup2\n      mstore\n      0x04\n      add\n      tag_362\n      swap1\n      tag_185\n      jump\t// in\n    tag_362:\n      mload(0x40)\n      dup1\n      swap2\n      sub\n      swap1\n      revert\n    tag_361:\n        /* \"inviter_presell/stake.sol\":7611:7618  owner() */\n      tag_364\n        /* \"inviter_presell/stake.sol\":7611:7616  owner */\n      tag_121\n        /* \"inviter_presell/stake.sol\":7611:7618  owner() */\n      jump\t// in\n    tag_364:\n        /* \"inviter_presell/stake.sol\":7603:7628  payable(owner()).transfer */\n      0xffffffffffffffffffffffffffffffffffffffff\n      and\n        /* \"inviter_presell/stake.sol\":7603:7651  payable(owner()).transfer(address(this).balance) */\n      0x08fc\n        /* \"inviter_presell/stake.sol\":7629:7650  address(this).balance */\n      selfbalance\n        /* \"inviter_presell/stake.sol\":7603:7651  payable(owner()).transfer(address(this).balance) */\n      swap1\n      dup2\n      iszero\n      mul\n      swap1\n      mload(0x40)\n      0x00\n      mload(0x40)\n      dup1\n      dup4\n      sub\n      dup2\n      dup6\n      dup9\n      dup9\n      call\n      swap4\n      pop\n      pop\n      pop\n      pop\n      iszero\n      dup1\n      iszero\n      tag_366\n      jumpi\n      returndatasize\n      0x00\n      dup1\n      returndatacopy\n      revert(0x00, returndatasize)\n    tag_366:\n      pop\n        /* \"inviter_presell/stake.sol\":7544:7659  function emergencyWithdraw() external onlyOwner {... */\n      jump\t// out\n        /* \"inviter_presell/stake.sol\":818:853  uint256 public rewardPerTokenStored */\n    tag_163:\n      sload(0x0b)\n      dup2\n      jump\t// out\n        /* \"inviter_presell/adminable.sol\":1234:1435  function transferOwnership(address newOwner) public virtual onlyOwner {... */\n    tag_167:\n        /* \"inviter_presell/adminable.sol\":702:714  _msgSender() */\n      tag_368\n        /* \"inviter_presell/adminable.sol\":702:712  _msgSender */\n      tag_181\n        /* \"inviter_presell/adminable.sol\":702:714  _msgSender() */\n      jump\t// in\n    tag_368:\n        /* \"inviter_presell/adminable.sol\":691:714  owner() == _msgSender() */\n      0xffffffffffffffffffffffffffffffffffffffff\n      and\n        /* \"inviter_presell/adminable.sol\":691:698  owner() */\n      tag_369\n        /* \"inviter_presell/adminable.sol\":691:696  owner */\n      tag_121\n        /* \"inviter_presell/adminable.sol\":691:698  owner() */\n      jump\t// in\n    tag_369:\n        /* \"inviter_presell/adminable.sol\":691:714  owner() == _msgSender() */\n      0xffffffffffffffffffffffffffffffffffffffff\n      and\n      eq\n        /* \"inviter_presell/adminable.sol\":683:753  require(owner() == _msgSender(), \"Adminable: caller is not the owner\") */\n      tag_370\n      jumpi\n      mload(0x40)\n      0x08c379a000000000000000000000000000000000000000000000000000000000\n      dup2\n      mstore\n      0x04\n      add\n      tag_371\n      swap1\n      tag_185\n      jump\t// in\n    tag_371:\n      mload(0x40)\n      dup1\n      swap2\n      sub\n      swap1\n      revert\n    tag_370:\n        /* \"inviter_presell/adminable.sol\":1343:1344  0 */\n      0x00\n        /* \"inviter_presell/adminable.sol\":1323:1345  newOwner != address(0) */\n      0xffffffffffffffffffffffffffffffffffffffff\n      and\n        /* \"inviter_presell/adminable.sol\":1323:1331  newOwner */\n      dup2\n        /* \"inviter_presell/adminable.sol\":1323:1345  newOwner != address(0) */\n      0xffffffffffffffffffffffffffffffffffffffff\n      and\n      sub\n        /* \"inviter_presell/adminable.sol\":1315:1388  require(newOwner != address(0), \"Ownable: new owner is the zero address\") */\n      tag_373\n      jumpi\n      mload(0x40)\n      0x08c379a000000000000000000000000000000000000000000000000000000000\n      dup2\n      mstore\n      0x04\n      add\n      tag_374\n      swap1\n      tag_375\n      jump\t// in\n    tag_374:\n      mload(0x40)\n      dup1\n      swap2\n      sub\n      swap1\n      revert\n    tag_373:\n        /* \"inviter_presell/adminable.sol\":1399:1427  _transferOwnership(newOwner) */\n      tag_376\n        /* \"inviter_presell/adminable.sol\":1418:1426  newOwner */\n      dup2\n        /* \"inviter_presell/adminable.sol\":1399:1417  _transferOwnership */\n      tag_264\n        /* \"inviter_presell/adminable.sol\":1399:1427  _transferOwnership(newOwner) */\n      jump\t// in\n    tag_376:\n        /* \"inviter_presell/adminable.sol\":1234:1435  function transferOwnership(address newOwner) public virtual onlyOwner {... */\n      pop\n      jump\t// out\n        /* \"node_modules/@openzeppelin/contracts/utils/math/SafeMath.sol\":3108:3204  function sub(uint256 a, uint256 b) internal pure returns (uint256) {... */\n    tag_175:\n        /* \"node_modules/@openzeppelin/contracts/utils/math/SafeMath.sol\":3166:3173  uint256 */\n      0x00\n        /* \"node_modules/@openzeppelin/contracts/utils/math/SafeMath.sol\":3196:3197  b */\n      dup2\n        /* \"node_modules/@openzeppelin/contracts/utils/math/SafeMath.sol\":3192:3193  a */\n      dup4\n        /* \"node_modules/@openzeppelin/contracts/utils/math/SafeMath.sol\":3192:3197  a - b */\n      tag_378\n      swap2\n      swap1\n      tag_228\n      jump\t// in\n    tag_378:\n        /* \"node_modules/@openzeppelin/contracts/utils/math/SafeMath.sol\":3185:3197  return a - b */\n      swap1\n      pop\n        /* \"node_modules/@openzeppelin/contracts/utils/math/SafeMath.sol\":3108:3204  function sub(uint256 a, uint256 b) internal pure returns (uint256) {... */\n      swap3\n      swap2\n      pop\n      pop\n      jump\t// out\n        /* \"node_modules/@openzeppelin/contracts/utils/math/SafeMath.sol\":3451:3547  function mul(uint256 a, uint256 b) internal pure returns (uint256) {... */\n    tag_176:\n        /* \"node_modules/@openzeppelin/contracts/utils/math/SafeMath.sol\":3509:3516  uint256 */\n      0x00\n        /* \"node_modules/@openzeppelin/contracts/utils/math/SafeMath.sol\":3539:3540  b */\n      dup2\n        /* \"node_modules/@openzeppelin/contracts/utils/math/SafeMath.sol\":3535:3536  a */\n      dup4\n        /* \"node_modules/@openzeppelin/contracts/utils/math/SafeMath.sol\":3535:3540  a * b */\n      tag_380\n      swap2\n      swap1\n      tag_236\n      jump\t// in\n    tag_380:\n        /* \"node_modules/@openzeppelin/contracts/utils/math/SafeMath.sol\":3528:3540  return a * b */\n      swap1\n      pop\n        /* \"node_modules/@openzeppelin/contracts/utils/math/SafeMath.sol\":3451:3547  function mul(uint256 a, uint256 b) internal pure returns (uint256) {... */\n      swap3\n      swap2\n      pop\n      pop\n      jump\t// out\n        /* \"node_modules/@openzeppelin/contracts/utils/math/SafeMath.sol\":3836:3932  function div(uint256 a, uint256 b) internal pure returns (uint256) {... */\n    tag_177:\n        /* \"node_modules/@openzeppelin/contracts/utils/math/SafeMath.sol\":3894:3901  uint256 */\n      0x00\n        /* \"node_modules/@openzeppelin/contracts/utils/math/SafeMath.sol\":3924:3925  b */\n      dup2\n        /* \"node_modules/@openzeppelin/contracts/utils/math/SafeMath.sol\":3920:3921  a */\n      dup4\n        /* \"node_modules/@openzeppelin/contracts/utils/math/SafeMath.sol\":3920:3925  a / b */\n      tag_382\n      swap2\n      swap1\n      tag_230\n      jump\t// in\n    tag_382:\n        /* \"node_modules/@openzeppelin/contracts/utils/math/SafeMath.sol\":3913:3925  return a / b */\n      swap1\n      pop\n        /* \"node_modules/@openzeppelin/contracts/utils/math/SafeMath.sol\":3836:3932  function div(uint256 a, uint256 b) internal pure returns (uint256) {... */\n      swap3\n      swap2\n      pop\n      pop\n      jump\t// out\n        /* \"node_modules/@openzeppelin/contracts/utils/math/SafeMath.sol\":2741:2837  function add(uint256 a, uint256 b) internal pure returns (uint256) {... */\n    tag_178:\n        /* \"node_modules/@openzeppelin/contracts/utils/math/SafeMath.sol\":2799:2806  uint256 */\n      0x00\n        /* \"node_modules/@openzeppelin/contracts/utils/math/SafeMath.sol\":2829:2830  b */\n      dup2\n        /* \"node_modules/@openzeppelin/contracts/utils/math/SafeMath.sol\":2825:2826  a */\n      dup4\n        /* \"node_modules/@openzeppelin/contracts/utils/math/SafeMath.sol\":2825:2830  a + b */\n      tag_384\n      swap2\n      swap1\n      tag_210\n      jump\t// in\n    tag_384:\n        /* \"node_modules/@openzeppelin/contracts/utils/math/SafeMath.sol\":2818:2830  return a + b */\n      swap1\n      pop\n        /* \"node_modules/@openzeppelin/contracts/utils/math/SafeMath.sol\":2741:2837  function add(uint256 a, uint256 b) internal pure returns (uint256) {... */\n      swap3\n      swap2\n      pop\n      pop\n      jump\t// out\n        /* \"inviter_presell/adminable.sol\":63:161  function _msgSender() internal view virtual returns (address) {... */\n    tag_181:\n        /* \"inviter_presell/adminable.sol\":116:123  address */\n      0x00\n        /* \"inviter_presell/adminable.sol\":143:153  msg.sender */\n      caller\n        /* \"inviter_presell/adminable.sol\":136:153  return msg.sender */\n      swap1\n      pop\n        /* \"inviter_presell/adminable.sol\":63:161  function _msgSender() internal view virtual returns (address) {... */\n      swap1\n      jump\t// out\n        /* \"inviter_presell/adminable.sol\":1443:1634  function _transferOwnership(address newOwner) internal virtual {... */\n    tag_264:\n        /* \"inviter_presell/adminable.sol\":1517:1533  address oldOwner */\n      0x00\n        /* \"inviter_presell/adminable.sol\":1536:1542  _owner */\n      0x01\n      0x00\n      swap1\n      sload\n      swap1\n      0x0100\n      exp\n      swap1\n      div\n      0xffffffffffffffffffffffffffffffffffffffff\n      and\n        /* \"inviter_presell/adminable.sol\":1517:1542  address oldOwner = _owner */\n      swap1\n      pop\n        /* \"inviter_presell/adminable.sol\":1562:1570  newOwner */\n      dup2\n        /* \"inviter_presell/adminable.sol\":1553:1559  _owner */\n      0x01\n      0x00\n        /* \"inviter_presell/adminable.sol\":1553:1570  _owner = newOwner */\n      0x0100\n      exp\n      dup2\n      sload\n      dup2\n      0xffffffffffffffffffffffffffffffffffffffff\n      mul\n      not\n      and\n      swap1\n      dup4\n      0xffffffffffffffffffffffffffffffffffffffff\n      and\n      mul\n      or\n      swap1\n      sstore\n      pop\n        /* \"inviter_presell/adminable.sol\":1617:1625  newOwner */\n      dup2\n        /* \"inviter_presell/adminable.sol\":1586:1626  OwnershipTransferred(oldOwner, newOwner) */\n      0xffffffffffffffffffffffffffffffffffffffff\n      and\n        /* \"inviter_presell/adminable.sol\":1607:1615  oldOwner */\n      dup2\n        /* \"inviter_presell/adminable.sol\":1586:1626  OwnershipTransferred(oldOwner, newOwner) */\n      0xffffffffffffffffffffffffffffffffffffffff\n      and\n      0x8be0079c531659141344cd1fd0a4f28419497f9722a3daafe3b4186f6b6457e0\n      mload(0x40)\n      mload(0x40)\n      dup1\n      swap2\n      sub\n      swap1\n      log3\n        /* \"inviter_presell/adminable.sol\":1506:1634  {... */\n      pop\n        /* \"inviter_presell/adminable.sol\":1443:1634  function _transferOwnership(address newOwner) internal virtual {... */\n      pop\n      jump\t// out\n        /* \"inviter_presell/stake.sol\":4199:4421  function _getRewardRate(uint256 time) private view returns (uint256) {... */\n    tag_319:\n        /* \"inviter_presell/stake.sol\":4259:4266  uint256 */\n      0x00\n        /* \"inviter_presell/stake.sol\":4279:4300  uint256 curPoolAmount */\n      dup1\n        /* \"inviter_presell/stake.sol\":4303:4322  getRewardPool(time) */\n      tag_388\n        /* \"inviter_presell/stake.sol\":4317:4321  time */\n      dup4\n        /* \"inviter_presell/stake.sol\":4303:4316  getRewardPool */\n      tag_86\n        /* \"inviter_presell/stake.sol\":4303:4322  getRewardPool(time) */\n      jump\t// in\n    tag_388:\n        /* \"inviter_presell/stake.sol\":4279:4322  uint256 curPoolAmount = getRewardPool(time) */\n      swap1\n      pop\n        /* \"inviter_presell/stake.sol\":4333:4351  uint256 rewardRate */\n      0x00\n        /* \"inviter_presell/stake.sol\":4354:4385  curPoolAmount.div(rateInterval) */\n      tag_389\n        /* \"inviter_presell/stake.sol\":4372:4384  rateInterval */\n      sload(0x07)\n        /* \"inviter_presell/stake.sol\":4354:4367  curPoolAmount */\n      dup4\n        /* \"inviter_presell/stake.sol\":4354:4371  curPoolAmount.div */\n      tag_177\n      swap1\n        /* \"inviter_presell/stake.sol\":4354:4385  curPoolAmount.div(rateInterval) */\n      swap2\n      swap1\n      0xffffffff\n      and\n      jump\t// in\n    tag_389:\n        /* \"inviter_presell/stake.sol\":4333:4385  uint256 rewardRate = curPoolAmount.div(rateInterval) */\n      swap1\n      pop\n        /* \"inviter_presell/stake.sol\":4403:4413  rewardRate */\n      dup1\n        /* \"inviter_presell/stake.sol\":4396:4413  return rewardRate */\n      swap3\n      pop\n      pop\n      pop\n        /* \"inviter_presell/stake.sol\":4199:4421  function _getRewardRate(uint256 time) private view returns (uint256) {... */\n      swap2\n      swap1\n      pop\n      jump\t// out\n        /* \"#utility.yul\":88:205   */\n    tag_391:\n        /* \"#utility.yul\":197:198   */\n      0x00\n        /* \"#utility.yul\":194:195   */\n      dup1\n        /* \"#utility.yul\":187:199   */\n      revert\n        /* \"#utility.yul\":334:460   */\n    tag_393:\n        /* \"#utility.yul\":371:378   */\n      0x00\n        /* \"#utility.yul\":411:453   */\n      0xffffffffffffffffffffffffffffffffffffffff\n        /* \"#utility.yul\":404:409   */\n      dup3\n        /* \"#utility.yul\":400:454   */\n      and\n        /* \"#utility.yul\":389:454   */\n      swap1\n      pop\n        /* \"#utility.yul\":334:460   */\n      swap2\n      swap1\n      pop\n      jump\t// out\n        /* \"#utility.yul\":466:562   */\n    tag_394:\n        /* \"#utility.yul\":503:510   */\n      0x00\n        /* \"#utility.yul\":532:556   */\n      tag_431\n        /* \"#utility.yul\":550:555   */\n      dup3\n        /* \"#utility.yul\":532:556   */\n      tag_393\n      jump\t// in\n    tag_431:\n        /* \"#utility.yul\":521:556   */\n      swap1\n      pop\n        /* \"#utility.yul\":466:562   */\n      swap2\n      swap1\n      pop\n      jump\t// out\n        /* \"#utility.yul\":568:690   */\n    tag_395:\n        /* \"#utility.yul\":641:665   */\n      tag_433\n        /* \"#utility.yul\":659:664   */\n      dup2\n        /* \"#utility.yul\":641:665   */\n      tag_394\n      jump\t// in\n    tag_433:\n        /* \"#utility.yul\":634:639   */\n      dup2\n        /* \"#utility.yul\":631:666   */\n      eq\n        /* \"#utility.yul\":621:684   */\n      tag_434\n      jumpi\n        /* \"#utility.yul\":680:681   */\n      0x00\n        /* \"#utility.yul\":677:678   */\n      dup1\n        /* \"#utility.yul\":670:682   */\n      revert\n        /* \"#utility.yul\":621:684   */\n    tag_434:\n        /* \"#utility.yul\":568:690   */\n      pop\n      jump\t// out\n        /* \"#utility.yul\":696:835   */\n    tag_396:\n        /* \"#utility.yul\":742:747   */\n      0x00\n        /* \"#utility.yul\":780:786   */\n      dup2\n        /* \"#utility.yul\":767:787   */\n      calldataload\n        /* \"#utility.yul\":758:787   */\n      swap1\n      pop\n        /* \"#utility.yul\":796:829   */\n      tag_436\n        /* \"#utility.yul\":823:828   */\n      dup2\n        /* \"#utility.yul\":796:829   */\n      tag_395\n      jump\t// in\n    tag_436:\n        /* \"#utility.yul\":696:835   */\n      swap3\n      swap2\n      pop\n      pop\n      jump\t// out\n        /* \"#utility.yul\":841:1170   */\n    tag_47:\n        /* \"#utility.yul\":900:906   */\n      0x00\n        /* \"#utility.yul\":949:951   */\n      0x20\n        /* \"#utility.yul\":937:946   */\n      dup3\n        /* \"#utility.yul\":928:935   */\n      dup5\n        /* \"#utility.yul\":924:947   */\n      sub\n        /* \"#utility.yul\":920:952   */\n      slt\n        /* \"#utility.yul\":917:1036   */\n      iszero\n      tag_438\n      jumpi\n        /* \"#utility.yul\":955:1034   */\n      tag_439\n      tag_391\n      jump\t// in\n    tag_439:\n        /* \"#utility.yul\":917:1036   */\n    tag_438:\n        /* \"#utility.yul\":1075:1076   */\n      0x00\n        /* \"#utility.yul\":1100:1153   */\n      tag_440\n        /* \"#utility.yul\":1145:1152   */\n      dup5\n        /* \"#utility.yul\":1136:1142   */\n      dup3\n        /* \"#utility.yul\":1125:1134   */\n      dup6\n        /* \"#utility.yul\":1121:1143   */\n      add\n        /* \"#utility.yul\":1100:1153   */\n      tag_396\n      jump\t// in\n    tag_440:\n        /* \"#utility.yul\":1090:1153   */\n      swap2\n      pop\n        /* \"#utility.yul\":1046:1163   */\n      pop\n        /* \"#utility.yul\":841:1170   */\n      swap3\n      swap2\n      pop\n      pop\n      jump\t// out\n        /* \"#utility.yul\":1176:1253   */\n    tag_397:\n        /* \"#utility.yul\":1213:1220   */\n      0x00\n        /* \"#utility.yul\":1242:1247   */\n      dup2\n        /* \"#utility.yul\":1231:1247   */\n      swap1\n      pop\n        /* \"#utility.yul\":1176:1253   */\n      swap2\n      swap1\n      pop\n      jump\t// out\n        /* \"#utility.yul\":1259:1377   */\n    tag_398:\n        /* \"#utility.yul\":1346:1370   */\n      tag_443\n        /* \"#utility.yul\":1364:1369   */\n      dup2\n        /* \"#utility.yul\":1346:1370   */\n      tag_397\n      jump\t// in\n    tag_443:\n        /* \"#utility.yul\":1341:1344   */\n      dup3\n        /* \"#utility.yul\":1334:1371   */\n      mstore\n        /* \"#utility.yul\":1259:1377   */\n      pop\n      pop\n      jump\t// out\n        /* \"#utility.yul\":1383:1605   */\n    tag_50:\n        /* \"#utility.yul\":1476:1480   */\n      0x00\n        /* \"#utility.yul\":1514:1516   */\n      0x20\n        /* \"#utility.yul\":1503:1512   */\n      dup3\n        /* \"#utility.yul\":1499:1517   */\n      add\n        /* \"#utility.yul\":1491:1517   */\n      swap1\n      pop\n        /* \"#utility.yul\":1527:1598   */\n      tag_445\n        /* \"#utility.yul\":1595:1596   */\n      0x00\n        /* \"#utility.yul\":1584:1593   */\n      dup4\n        /* \"#utility.yul\":1580:1597   */\n      add\n        /* \"#utility.yul\":1571:1577   */\n      dup5\n        /* \"#utility.yul\":1527:1598   */\n      tag_398\n      jump\t// in\n    tag_445:\n        /* \"#utility.yul\":1383:1605   */\n      swap3\n      swap2\n      pop\n      pop\n      jump\t// out\n        /* \"#utility.yul\":1611:1733   */\n    tag_399:\n        /* \"#utility.yul\":1684:1708   */\n      tag_447\n        /* \"#utility.yul\":1702:1707   */\n      dup2\n        /* \"#utility.yul\":1684:1708   */\n      tag_397\n      jump\t// in\n    tag_447:\n        /* \"#utility.yul\":1677:1682   */\n      dup2\n        /* \"#utility.yul\":1674:1709   */\n      eq\n        /* \"#utility.yul\":1664:1727   */\n      tag_448\n      jumpi\n        /* \"#utility.yul\":1723:1724   */\n      0x00\n        /* \"#utility.yul\":1720:1721   */\n      dup1\n        /* \"#utility.yul\":1713:1725   */\n      revert\n        /* \"#utility.yul\":1664:1727   */\n    tag_448:\n        /* \"#utility.yul\":1611:1733   */\n      pop\n      jump\t// out\n        /* \"#utility.yul\":1739:1878   */\n    tag_400:\n        /* \"#utility.yul\":1785:1790   */\n      0x00\n        /* \"#utility.yul\":1823:1829   */\n      dup2\n        /* \"#utility.yul\":1810:1830   */\n      calldataload\n        /* \"#utility.yul\":1801:1830   */\n      swap1\n      pop\n        /* \"#utility.yul\":1839:1872   */\n      tag_450\n        /* \"#utility.yul\":1866:1871   */\n      dup2\n        /* \"#utility.yul\":1839:1872   */\n      tag_399\n      jump\t// in\n    tag_450:\n        /* \"#utility.yul\":1739:1878   */\n      swap3\n      swap2\n      pop\n      pop\n      jump\t// out\n        /* \"#utility.yul\":1884:2503   */\n    tag_60:\n        /* \"#utility.yul\":1961:1967   */\n      0x00\n        /* \"#utility.yul\":1969:1975   */\n      dup1\n        /* \"#utility.yul\":1977:1983   */\n      0x00\n        /* \"#utility.yul\":2026:2028   */\n      0x60\n        /* \"#utility.yul\":2014:2023   */\n      dup5\n        /* \"#utility.yul\":2005:2012   */\n      dup7\n        /* \"#utility.yul\":2001:2024   */\n      sub\n        /* \"#utility.yul\":1997:2029   */\n      slt\n        /* \"#utility.yul\":1994:2113   */\n      iszero\n      tag_452\n      jumpi\n        /* \"#utility.yul\":2032:2111   */\n      tag_453\n      tag_391\n      jump\t// in\n    tag_453:\n        /* \"#utility.yul\":1994:2113   */\n    tag_452:\n        /* \"#utility.yul\":2152:2153   */\n      0x00\n        /* \"#utility.yul\":2177:2230   */\n      tag_454\n        /* \"#utility.yul\":2222:2229   */\n      dup7\n        /* \"#utility.yul\":2213:2219   */\n      dup3\n        /* \"#utility.yul\":2202:2211   */\n      dup8\n        /* \"#utility.yul\":2198:2220   */\n      add\n        /* \"#utility.yul\":2177:2230   */\n      tag_400\n      jump\t// in\n    tag_454:\n        /* \"#utility.yul\":2167:2230   */\n      swap4\n      pop\n        /* \"#utility.yul\":2123:2240   */\n      pop\n        /* \"#utility.yul\":2279:2281   */\n      0x20\n        /* \"#utility.yul\":2305:2358   */\n      tag_455\n        /* \"#utility.yul\":2350:2357   */\n      dup7\n        /* \"#utility.yul\":2341:2347   */\n      dup3\n        /* \"#utility.yul\":2330:2339   */\n      dup8\n        /* \"#utility.yul\":2326:2348   */\n      add\n        /* \"#utility.yul\":2305:2358   */\n      tag_400\n      jump\t// in\n    tag_455:\n        /* \"#utility.yul\":2295:2358   */\n      swap3\n      pop\n        /* \"#utility.yul\":2250:2368   */\n      pop\n        /* \"#utility.yul\":2407:2409   */\n      0x40\n        /* \"#utility.yul\":2433:2486   */\n      tag_456\n        /* \"#utility.yul\":2478:2485   */\n      dup7\n        /* \"#utility.yul\":2469:2475   */\n      dup3\n        /* \"#utility.yul\":2458:2467   */\n      dup8\n        /* \"#utility.yul\":2454:2476   */\n      add\n        /* \"#utility.yul\":2433:2486   */\n      tag_400\n      jump\t// in\n    tag_456:\n        /* \"#utility.yul\":2423:2486   */\n      swap2\n      pop\n        /* \"#utility.yul\":2378:2496   */\n      pop\n        /* \"#utility.yul\":1884:2503   */\n      swap3\n      pop\n      swap3\n      pop\n      swap3\n      jump\t// out\n        /* \"#utility.yul\":2509:2599   */\n    tag_401:\n        /* \"#utility.yul\":2543:2550   */\n      0x00\n        /* \"#utility.yul\":2586:2591   */\n      dup2\n        /* \"#utility.yul\":2579:2592   */\n      iszero\n        /* \"#utility.yul\":2572:2593   */\n      iszero\n        /* \"#utility.yul\":2561:2593   */\n      swap1\n      pop\n        /* \"#utility.yul\":2509:2599   */\n      swap2\n      swap1\n      pop\n      jump\t// out\n        /* \"#utility.yul\":2605:2721   */\n    tag_402:\n        /* \"#utility.yul\":2675:2696   */\n      tag_459\n        /* \"#utility.yul\":2690:2695   */\n      dup2\n        /* \"#utility.yul\":2675:2696   */\n      tag_401\n      jump\t// in\n    tag_459:\n        /* \"#utility.yul\":2668:2673   */\n      dup2\n        /* \"#utility.yul\":2665:2697   */\n      eq\n        /* \"#utility.yul\":2655:2715   */\n      tag_460\n      jumpi\n        /* \"#utility.yul\":2711:2712   */\n      0x00\n        /* \"#utility.yul\":2708:2709   */\n      dup1\n        /* \"#utility.yul\":2701:2713   */\n      revert\n        /* \"#utility.yul\":2655:2715   */\n    tag_460:\n        /* \"#utility.yul\":2605:2721   */\n      pop\n      jump\t// out\n        /* \"#utility.yul\":2727:2860   */\n    tag_403:\n        /* \"#utility.yul\":2770:2775   */\n      0x00\n        /* \"#utility.yul\":2808:2814   */\n      dup2\n        /* \"#utility.yul\":2795:2815   */\n      calldataload\n        /* \"#utility.yul\":2786:2815   */\n      swap1\n      pop\n        /* \"#utility.yul\":2824:2854   */\n      tag_462\n        /* \"#utility.yul\":2848:2853   */\n      dup2\n        /* \"#utility.yul\":2824:2854   */\n      tag_402\n      jump\t// in\n    tag_462:\n        /* \"#utility.yul\":2727:2860   */\n      swap3\n      swap2\n      pop\n      pop\n      jump\t// out\n        /* \"#utility.yul\":2866:3334   */\n    tag_64:\n        /* \"#utility.yul\":2931:2937   */\n      0x00\n        /* \"#utility.yul\":2939:2945   */\n      dup1\n        /* \"#utility.yul\":2988:2990   */\n      0x40\n        /* \"#utility.yul\":2976:2985   */\n      dup4\n        /* \"#utility.yul\":2967:2974   */\n      dup6\n        /* \"#utility.yul\":2963:2986   */\n      sub\n        /* \"#utility.yul\":2959:2991   */\n      slt\n        /* \"#utility.yul\":2956:3075   */\n      iszero\n      tag_464\n      jumpi\n        /* \"#utility.yul\":2994:3073   */\n      tag_465\n      tag_391\n      jump\t// in\n    tag_465:\n        /* \"#utility.yul\":2956:3075   */\n    tag_464:\n        /* \"#utility.yul\":3114:3115   */\n      0x00\n        /* \"#utility.yul\":3139:3192   */\n      tag_466\n        /* \"#utility.yul\":3184:3191   */\n      dup6\n        /* \"#utility.yul\":3175:3181   */\n      dup3\n        /* \"#utility.yul\":3164:3173   */\n      dup7\n        /* \"#utility.yul\":3160:3182   */\n      add\n        /* \"#utility.yul\":3139:3192   */\n      tag_396\n      jump\t// in\n    tag_466:\n        /* \"#utility.yul\":3129:3192   */\n      swap3\n      pop\n        /* \"#utility.yul\":3085:3202   */\n      pop\n        /* \"#utility.yul\":3241:3243   */\n      0x20\n        /* \"#utility.yul\":3267:3317   */\n      tag_467\n        /* \"#utility.yul\":3309:3316   */\n      dup6\n        /* \"#utility.yul\":3300:3306   */\n      dup3\n        /* \"#utility.yul\":3289:3298   */\n      dup7\n        /* \"#utility.yul\":3285:3307   */\n      add\n        /* \"#utility.yul\":3267:3317   */\n      tag_403\n      jump\t// in\n    tag_467:\n        /* \"#utility.yul\":3257:3317   */\n      swap2\n      pop\n        /* \"#utility.yul\":3212:3327   */\n      pop\n        /* \"#utility.yul\":2866:3334   */\n      swap3\n      pop\n      swap3\n      swap1\n      pop\n      jump\t// out\n        /* \"#utility.yul\":3340:3449   */\n    tag_404:\n        /* \"#utility.yul\":3421:3442   */\n      tag_469\n        /* \"#utility.yul\":3436:3441   */\n      dup2\n        /* \"#utility.yul\":3421:3442   */\n      tag_401\n      jump\t// in\n    tag_469:\n        /* \"#utility.yul\":3416:3419   */\n      dup3\n        /* \"#utility.yul\":3409:3443   */\n      mstore\n        /* \"#utility.yul\":3340:3449   */\n      pop\n      pop\n      jump\t// out\n        /* \"#utility.yul\":3455:3665   */\n    tag_70:\n        /* \"#utility.yul\":3542:3546   */\n      0x00\n        /* \"#utility.yul\":3580:3582   */\n      0x20\n        /* \"#utility.yul\":3569:3578   */\n      dup3\n        /* \"#utility.yul\":3565:3583   */\n      add\n        /* \"#utility.yul\":3557:3583   */\n      swap1\n      pop\n        /* \"#utility.yul\":3593:3658   */\n      tag_471\n        /* \"#utility.yul\":3655:3656   */\n      0x00\n        /* \"#utility.yul\":3644:3653   */\n      dup4\n        /* \"#utility.yul\":3640:3657   */\n      add\n        /* \"#utility.yul\":3631:3637   */\n      dup5\n        /* \"#utility.yul\":3593:3658   */\n      tag_404\n      jump\t// in\n    tag_471:\n        /* \"#utility.yul\":3455:3665   */\n      swap3\n      swap2\n      pop\n      pop\n      jump\t// out\n        /* \"#utility.yul\":3671:4000   */\n    tag_78:\n        /* \"#utility.yul\":3730:3736   */\n      0x00\n        /* \"#utility.yul\":3779:3781   */\n      0x20\n        /* \"#utility.yul\":3767:3776   */\n      dup3\n        /* \"#utility.yul\":3758:3765   */\n      dup5\n        /* \"#utility.yul\":3754:3777   */\n      sub\n        /* \"#utility.yul\":3750:3782   */\n      slt\n        /* \"#utility.yul\":3747:3866   */\n      iszero\n      tag_473\n      jumpi\n        /* \"#utility.yul\":3785:3864   */\n      tag_474\n      tag_391\n      jump\t// in\n    tag_474:\n        /* \"#utility.yul\":3747:3866   */\n    tag_473:\n        /* \"#utility.yul\":3905:3906   */\n      0x00\n        /* \"#utility.yul\":3930:3983   */\n      tag_475\n        /* \"#utility.yul\":3975:3982   */\n      dup5\n        /* \"#utility.yul\":3966:3972   */\n      dup3\n        /* \"#utility.yul\":3955:3964   */\n      dup6\n        /* \"#utility.yul\":3951:3973   */\n      add\n        /* \"#utility.yul\":3930:3983   */\n      tag_400\n      jump\t// in\n    tag_475:\n        /* \"#utility.yul\":3920:3983   */\n      swap2\n      pop\n        /* \"#utility.yul\":3876:3993   */\n      pop\n        /* \"#utility.yul\":3671:4000   */\n      swap3\n      swap2\n      pop\n      pop\n      jump\t// out\n        /* \"#utility.yul\":4006:4124   */\n    tag_405:\n        /* \"#utility.yul\":4093:4117   */\n      tag_477\n        /* \"#utility.yul\":4111:4116   */\n      dup2\n        /* \"#utility.yul\":4093:4117   */\n      tag_394\n      jump\t// in\n    tag_477:\n        /* \"#utility.yul\":4088:4091   */\n      dup3\n        /* \"#utility.yul\":4081:4118   */\n      mstore\n        /* \"#utility.yul\":4006:4124   */\n      pop\n      pop\n      jump\t// out\n        /* \"#utility.yul\":4130:4352   */\n    tag_123:\n        /* \"#utility.yul\":4223:4227   */\n      0x00\n        /* \"#utility.yul\":4261:4263   */\n      0x20\n        /* \"#utility.yul\":4250:4259   */\n      dup3\n        /* \"#utility.yul\":4246:4264   */\n      add\n        /* \"#utility.yul\":4238:4264   */\n      swap1\n      pop\n        /* \"#utility.yul\":4274:4345   */\n      tag_479\n        /* \"#utility.yul\":4342:4343   */\n      0x00\n        /* \"#utility.yul\":4331:4340   */\n      dup4\n        /* \"#utility.yul\":4327:4344   */\n      add\n        /* \"#utility.yul\":4318:4324   */\n      dup5\n        /* \"#utility.yul\":4274:4345   */\n      tag_405\n      jump\t// in\n    tag_479:\n        /* \"#utility.yul\":4130:4352   */\n      swap3\n      swap2\n      pop\n      pop\n      jump\t// out\n        /* \"#utility.yul\":4358:4832   */\n    tag_132:\n        /* \"#utility.yul\":4426:4432   */\n      0x00\n        /* \"#utility.yul\":4434:4440   */\n      dup1\n        /* \"#utility.yul\":4483:4485   */\n      0x40\n        /* \"#utility.yul\":4471:4480   */\n      dup4\n        /* \"#utility.yul\":4462:4469   */\n      dup6\n        /* \"#utility.yul\":4458:4481   */\n      sub\n        /* \"#utility.yul\":4454:4486   */\n      slt\n        /* \"#utility.yul\":4451:4570   */\n      iszero\n      tag_481\n      jumpi\n        /* \"#utility.yul\":4489:4568   */\n      tag_482\n      tag_391\n      jump\t// in\n    tag_482:\n        /* \"#utility.yul\":4451:4570   */\n    tag_481:\n        /* \"#utility.yul\":4609:4610   */\n      0x00\n        /* \"#utility.yul\":4634:4687   */\n      tag_483\n        /* \"#utility.yul\":4679:4686   */\n      dup6\n        /* \"#utility.yul\":4670:4676   */\n      dup3\n        /* \"#utility.yul\":4659:4668   */\n      dup7\n        /* \"#utility.yul\":4655:4677   */\n      add\n        /* \"#utility.yul\":4634:4687   */\n      tag_396\n      jump\t// in\n    tag_483:\n        /* \"#utility.yul\":4624:4687   */\n      swap3\n      pop\n        /* \"#utility.yul\":4580:4697   */\n      pop\n        /* \"#utility.yul\":4736:4738   */\n      0x20\n        /* \"#utility.yul\":4762:4815   */\n      tag_484\n        /* \"#utility.yul\":4807:4814   */\n      dup6\n        /* \"#utility.yul\":4798:4804   */\n      dup3\n        /* \"#utility.yul\":4787:4796   */\n      dup7\n        /* \"#utility.yul\":4783:4805   */\n      add\n        /* \"#utility.yul\":4762:4815   */\n      tag_400\n      jump\t// in\n    tag_484:\n        /* \"#utility.yul\":4752:4815   */\n      swap2\n      pop\n        /* \"#utility.yul\":4707:4825   */\n      pop\n        /* \"#utility.yul\":4358:4832   */\n      swap3\n      pop\n      swap3\n      swap1\n      pop\n      jump\t// out\n        /* \"#utility.yul\":4838:4898   */\n    tag_406:\n        /* \"#utility.yul\":4866:4869   */\n      0x00\n        /* \"#utility.yul\":4887:4892   */\n      dup2\n        /* \"#utility.yul\":4880:4892   */\n      swap1\n      pop\n        /* \"#utility.yul\":4838:4898   */\n      swap2\n      swap1\n      pop\n      jump\t// out\n        /* \"#utility.yul\":4904:5046   */\n    tag_407:\n        /* \"#utility.yul\":4954:4963   */\n      0x00\n        /* \"#utility.yul\":4987:5040   */\n      tag_487\n        /* \"#utility.yul\":5005:5039   */\n      tag_488\n        /* \"#utility.yul\":5014:5038   */\n      tag_489\n        /* \"#utility.yul\":5032:5037   */\n      dup5\n        /* \"#utility.yul\":5014:5038   */\n      tag_393\n      jump\t// in\n    tag_489:\n        /* \"#utility.yul\":5005:5039   */\n      tag_406\n      jump\t// in\n    tag_488:\n        /* \"#utility.yul\":4987:5040   */\n      tag_393\n      jump\t// in\n    tag_487:\n        /* \"#utility.yul\":4974:5040   */\n      swap1\n      pop\n        /* \"#utility.yul\":4904:5046   */\n      swap2\n      swap1\n      pop\n      jump\t// out\n        /* \"#utility.yul\":5052:5178   */\n    tag_408:\n        /* \"#utility.yul\":5102:5111   */\n      0x00\n        /* \"#utility.yul\":5135:5172   */\n      tag_491\n        /* \"#utility.yul\":5166:5171   */\n      dup3\n        /* \"#utility.yul\":5135:5172   */\n      tag_407\n      jump\t// in\n    tag_491:\n        /* \"#utility.yul\":5122:5172   */\n      swap1\n      pop\n        /* \"#utility.yul\":5052:5178   */\n      swap2\n      swap1\n      pop\n      jump\t// out\n        /* \"#utility.yul\":5184:5325   */\n    tag_409:\n        /* \"#utility.yul\":5249:5258   */\n      0x00\n        /* \"#utility.yul\":5282:5319   */\n      tag_493\n        /* \"#utility.yul\":5313:5318   */\n      dup3\n        /* \"#utility.yul\":5282:5319   */\n      tag_408\n      jump\t// in\n    tag_493:\n        /* \"#utility.yul\":5269:5319   */\n      swap1\n      pop\n        /* \"#utility.yul\":5184:5325   */\n      swap2\n      swap1\n      pop\n      jump\t// out\n        /* \"#utility.yul\":5331:5492   */\n    tag_410:\n        /* \"#utility.yul\":5433:5485   */\n      tag_495\n        /* \"#utility.yul\":5479:5484   */\n      dup2\n        /* \"#utility.yul\":5433:5485   */\n      tag_409\n      jump\t// in\n    tag_495:\n        /* \"#utility.yul\":5428:5431   */\n      dup3\n        /* \"#utility.yul\":5421:5486   */\n      mstore\n        /* \"#utility.yul\":5331:5492   */\n      pop\n      pop\n      jump\t// out\n        /* \"#utility.yul\":5498:5750   */\n    tag_150:\n        /* \"#utility.yul\":5606:5610   */\n      0x00\n        /* \"#utility.yul\":5644:5646   */\n      0x20\n        /* \"#utility.yul\":5633:5642   */\n      dup3\n        /* \"#utility.yul\":5629:5647   */\n      add\n        /* \"#utility.yul\":5621:5647   */\n      swap1\n      pop\n        /* \"#utility.yul\":5657:5743   */\n      tag_497\n        /* \"#utility.yul\":5740:5741   */\n      0x00\n        /* \"#utility.yul\":5729:5738   */\n      dup4\n        /* \"#utility.yul\":5725:5742   */\n      add\n        /* \"#utility.yul\":5716:5722   */\n      dup5\n        /* \"#utility.yul\":5657:5743   */\n      tag_410\n      jump\t// in\n    tag_497:\n        /* \"#utility.yul\":5498:5750   */\n      swap3\n      swap2\n      pop\n      pop\n      jump\t// out\n        /* \"#utility.yul\":5756:6230   */\n    tag_157:\n        /* \"#utility.yul\":5824:5830   */\n      0x00\n        /* \"#utility.yul\":5832:5838   */\n      dup1\n        /* \"#utility.yul\":5881:5883   */\n      0x40\n        /* \"#utility.yul\":5869:5878   */\n      dup4\n        /* \"#utility.yul\":5860:5867   */\n      dup6\n        /* \"#utility.yul\":5856:5879   */\n      sub\n        /* \"#utility.yul\":5852:5884   */\n      slt\n        /* \"#utility.yul\":5849:5968   */\n      iszero\n      tag_499\n      jumpi\n        /* \"#utility.yul\":5887:5966   */\n      tag_500\n      tag_391\n      jump\t// in\n    tag_500:\n        /* \"#utility.yul\":5849:5968   */\n    tag_499:\n        /* \"#utility.yul\":6007:6008   */\n      0x00\n        /* \"#utility.yul\":6032:6085   */\n      tag_501\n        /* \"#utility.yul\":6077:6084   */\n      dup6\n        /* \"#utility.yul\":6068:6074   */\n      dup3\n        /* \"#utility.yul\":6057:6066   */\n      dup7\n        /* \"#utility.yul\":6053:6075   */\n      add\n        /* \"#utility.yul\":6032:6085   */\n      tag_400\n      jump\t// in\n    tag_501:\n        /* \"#utility.yul\":6022:6085   */\n      swap3\n      pop\n        /* \"#utility.yul\":5978:6095   */\n      pop\n        /* \"#utility.yul\":6134:6136   */\n      0x20\n        /* \"#utility.yul\":6160:6213   */\n      tag_502\n        /* \"#utility.yul\":6205:6212   */\n      dup6\n        /* \"#utility.yul\":6196:6202   */\n      dup3\n        /* \"#utility.yul\":6185:6194   */\n      dup7\n        /* \"#utility.yul\":6181:6203   */\n      add\n        /* \"#utility.yul\":6160:6213   */\n      tag_400\n      jump\t// in\n    tag_502:\n        /* \"#utility.yul\":6150:6213   */\n      swap2\n      pop\n        /* \"#utility.yul\":6105:6223   */\n      pop\n        /* \"#utility.yul\":5756:6230   */\n      swap3\n      pop\n      swap3\n      swap1\n      pop\n      jump\t// out\n        /* \"#utility.yul\":6236:6405   */\n    tag_411:\n        /* \"#utility.yul\":6320:6331   */\n      0x00\n        /* \"#utility.yul\":6354:6360   */\n      dup3\n        /* \"#utility.yul\":6349:6352   */\n      dup3\n        /* \"#utility.yul\":6342:6361   */\n      mstore\n        /* \"#utility.yul\":6394:6398   */\n      0x20\n        /* \"#utility.yul\":6389:6392   */\n      dup3\n        /* \"#utility.yul\":6385:6399   */\n      add\n        /* \"#utility.yul\":6370:6399   */\n      swap1\n      pop\n        /* \"#utility.yul\":6236:6405   */\n      swap3\n      swap2\n      pop\n      pop\n      jump\t// out\n        /* \"#utility.yul\":6411:6632   */\n    tag_412:\n        /* \"#utility.yul\":6551:6585   */\n      0x41646d696e61626c653a2063616c6c6572206973206e6f7420746865206f776e\n        /* \"#utility.yul\":6547:6548   */\n      0x00\n        /* \"#utility.yul\":6539:6545   */\n      dup3\n        /* \"#utility.yul\":6535:6549   */\n      add\n        /* \"#utility.yul\":6528:6586   */\n      mstore\n        /* \"#utility.yul\":6620:6624   */\n      0x6572000000000000000000000000000000000000000000000000000000000000\n        /* \"#utility.yul\":6615:6617   */\n      0x20\n        /* \"#utility.yul\":6607:6613   */\n      dup3\n        /* \"#utility.yul\":6603:6618   */\n      add\n        /* \"#utility.yul\":6596:6625   */\n      mstore\n        /* \"#utility.yul\":6411:6632   */\n      pop\n      jump\t// out\n        /* \"#utility.yul\":6638:7004   */\n    tag_413:\n        /* \"#utility.yul\":6780:6783   */\n      0x00\n        /* \"#utility.yul\":6801:6868   */\n      tag_506\n        /* \"#utility.yul\":6865:6867   */\n      0x22\n        /* \"#utility.yul\":6860:6863   */\n      dup4\n        /* \"#utility.yul\":6801:6868   */\n      tag_411\n      jump\t// in\n    tag_506:\n        /* \"#utility.yul\":6794:6868   */\n      swap2\n      pop\n        /* \"#utility.yul\":6877:6970   */\n      tag_507\n        /* \"#utility.yul\":6966:6969   */\n      dup3\n        /* \"#utility.yul\":6877:6970   */\n      tag_412\n      jump\t// in\n    tag_507:\n        /* \"#utility.yul\":6995:6997   */\n      0x40\n        /* \"#utility.yul\":6990:6993   */\n      dup3\n        /* \"#utility.yul\":6986:6998   */\n      add\n        /* \"#utility.yul\":6979:6998   */\n      swap1\n      pop\n        /* \"#utility.yul\":6638:7004   */\n      swap2\n      swap1\n      pop\n      jump\t// out\n        /* \"#utility.yul\":7010:7429   */\n    tag_185:\n        /* \"#utility.yul\":7176:7180   */\n      0x00\n        /* \"#utility.yul\":7214:7216   */\n      0x20\n        /* \"#utility.yul\":7203:7212   */\n      dup3\n        /* \"#utility.yul\":7199:7217   */\n      add\n        /* \"#utility.yul\":7191:7217   */\n      swap1\n      pop\n        /* \"#utility.yul\":7263:7272   */\n      dup2\n        /* \"#utility.yul\":7257:7261   */\n      dup2\n        /* \"#utility.yul\":7253:7273   */\n      sub\n        /* \"#utility.yul\":7249:7250   */\n      0x00\n        /* \"#utility.yul\":7238:7247   */\n      dup4\n        /* \"#utility.yul\":7234:7251   */\n      add\n        /* \"#utility.yul\":7227:7274   */\n      mstore\n        /* \"#utility.yul\":7291:7422   */\n      tag_509\n        /* \"#utility.yul\":7417:7421   */\n      dup2\n        /* \"#utility.yul\":7291:7422   */\n      tag_413\n      jump\t// in\n    tag_509:\n        /* \"#utility.yul\":7283:7422   */\n      swap1\n      pop\n        /* \"#utility.yul\":7010:7429   */\n      swap2\n      swap1\n      pop\n      jump\t// out\n        /* \"#utility.yul\":7435:7743   */\n    tag_194:\n        /* \"#utility.yul\":7544:7548   */\n      0x00\n        /* \"#utility.yul\":7582:7584   */\n      0x40\n        /* \"#utility.yul\":7571:7580   */\n      dup3\n        /* \"#utility.yul\":7567:7585   */\n      add\n        /* \"#utility.yul\":7559:7585   */\n      swap1\n      pop\n        /* \"#utility.yul\":7595:7660   */\n      tag_511\n        /* \"#utility.yul\":7657:7658   */\n      0x00\n        /* \"#utility.yul\":7646:7655   */\n      dup4\n        /* \"#utility.yul\":7642:7659   */\n      add\n        /* \"#utility.yul\":7633:7639   */\n      dup6\n        /* \"#utility.yul\":7595:7660   */\n      tag_404\n      jump\t// in\n    tag_511:\n        /* \"#utility.yul\":7670:7736   */\n      tag_512\n        /* \"#utility.yul\":7732:7734   */\n      0x20\n        /* \"#utility.yul\":7721:7730   */\n      dup4\n        /* \"#utility.yul\":7717:7735   */\n      add\n        /* \"#utility.yul\":7708:7714   */\n      dup5\n        /* \"#utility.yul\":7670:7736   */\n      tag_404\n      jump\t// in\n    tag_512:\n        /* \"#utility.yul\":7435:7743   */\n      swap4\n      swap3\n      pop\n      pop\n      pop\n      jump\t// out\n        /* \"#utility.yul\":7749:7930   */\n    tag_414:\n        /* \"#utility.yul\":7889:7922   */\n      0x5265656e7472616e637947756172643a207265656e7472616e742063616c6c00\n        /* \"#utility.yul\":7885:7886   */\n      0x00\n        /* \"#utility.yul\":7877:7883   */\n      dup3\n        /* \"#utility.yul\":7873:7887   */\n      add\n        /* \"#utility.yul\":7866:7923   */\n      mstore\n        /* \"#utility.yul\":7749:7930   */\n      pop\n      jump\t// out\n        /* \"#utility.yul\":7936:8302   */\n    tag_415:\n        /* \"#utility.yul\":8078:8081   */\n      0x00\n        /* \"#utility.yul\":8099:8166   */\n      tag_515\n        /* \"#utility.yul\":8163:8165   */\n      0x1f\n        /* \"#utility.yul\":8158:8161   */\n      dup4\n        /* \"#utility.yul\":8099:8166   */\n      tag_411\n      jump\t// in\n    tag_515:\n        /* \"#utility.yul\":8092:8166   */\n      swap2\n      pop\n        /* \"#utility.yul\":8175:8268   */\n      tag_516\n        /* \"#utility.yul\":8264:8267   */\n      dup3\n        /* \"#utility.yul\":8175:8268   */\n      tag_414\n      jump\t// in\n    tag_516:\n        /* \"#utility.yul\":8293:8295   */\n      0x20\n        /* \"#utility.yul\":8288:8291   */\n      dup3\n        /* \"#utility.yul\":8284:8296   */\n      add\n        /* \"#utility.yul\":8277:8296   */\n      swap1\n      pop\n        /* \"#utility.yul\":7936:8302   */\n      swap2\n      swap1\n      pop\n      jump\t// out\n        /* \"#utility.yul\":8308:8727   */\n    tag_199:\n        /* \"#utility.yul\":8474:8478   */\n      0x00\n        /* \"#utility.yul\":8512:8514   */\n      0x20\n        /* \"#utility.yul\":8501:8510   */\n      dup3\n        /* \"#utility.yul\":8497:8515   */\n      add\n        /* \"#utility.yul\":8489:8515   */\n      swap1\n      pop\n        /* \"#utility.yul\":8561:8570   */\n      dup2\n        /* \"#utility.yul\":8555:8559   */\n      dup2\n        /* \"#utility.yul\":8551:8571   */\n      sub\n        /* \"#utility.yul\":8547:8548   */\n      0x00\n        /* \"#utility.yul\":8536:8545   */\n      dup4\n        /* \"#utility.yul\":8532:8549   */\n      add\n        /* \"#utility.yul\":8525:8572   */\n      mstore\n        /* \"#utility.yul\":8589:8720   */\n      tag_518\n        /* \"#utility.yul\":8715:8719   */\n      dup2\n        /* \"#utility.yul\":8589:8720   */\n      tag_415\n      jump\t// in\n    tag_518:\n        /* \"#utility.yul\":8581:8720   */\n      swap1\n      pop\n        /* \"#utility.yul\":8308:8727   */\n      swap2\n      swap1\n      pop\n      jump\t// out\n        /* \"#utility.yul\":8733:8913   */\n    tag_416:\n        /* \"#utility.yul\":8781:8858   */\n      0x4e487b7100000000000000000000000000000000000000000000000000000000\n        /* \"#utility.yul\":8778:8779   */\n      0x00\n        /* \"#utility.yul\":8771:8859   */\n      mstore\n        /* \"#utility.yul\":8878:8882   */\n      0x11\n        /* \"#utility.yul\":8875:8876   */\n      0x04\n        /* \"#utility.yul\":8868:8883   */\n      mstore\n        /* \"#utility.yul\":8902:8906   */\n      0x24\n        /* \"#utility.yul\":8899:8900   */\n      0x00\n        /* \"#utility.yul\":8892:8907   */\n      revert\n        /* \"#utility.yul\":8919:9110   */\n    tag_210:\n        /* \"#utility.yul\":8959:8962   */\n      0x00\n        /* \"#utility.yul\":8978:8998   */\n      tag_521\n        /* \"#utility.yul\":8996:8997   */\n      dup3\n        /* \"#utility.yul\":8978:8998   */\n      tag_397\n      jump\t// in\n    tag_521:\n        /* \"#utility.yul\":8973:8998   */\n      swap2\n      pop\n        /* \"#utility.yul\":9012:9032   */\n      tag_522\n        /* \"#utility.yul\":9030:9031   */\n      dup4\n        /* \"#utility.yul\":9012:9032   */\n      tag_397\n      jump\t// in\n    tag_522:\n        /* \"#utility.yul\":9007:9032   */\n      swap3\n      pop\n        /* \"#utility.yul\":9055:9056   */\n      dup3\n        /* \"#utility.yul\":9052:9053   */\n      dup3\n        /* \"#utility.yul\":9048:9057   */\n      add\n        /* \"#utility.yul\":9041:9057   */\n      swap1\n      pop\n        /* \"#utility.yul\":9076:9079   */\n      dup1\n        /* \"#utility.yul\":9073:9074   */\n      dup3\n        /* \"#utility.yul\":9070:9080   */\n      gt\n        /* \"#utility.yul\":9067:9103   */\n      iszero\n      tag_523\n      jumpi\n        /* \"#utility.yul\":9083:9101   */\n      tag_524\n      tag_416\n      jump\t// in\n    tag_524:\n        /* \"#utility.yul\":9067:9103   */\n    tag_523:\n        /* \"#utility.yul\":8919:9110   */\n      swap3\n      swap2\n      pop\n      pop\n      jump\t// out\n        /* \"#utility.yul\":9116:9448   */\n    tag_212:\n        /* \"#utility.yul\":9237:9241   */\n      0x00\n        /* \"#utility.yul\":9275:9277   */\n      0x40\n        /* \"#utility.yul\":9264:9273   */\n      dup3\n        /* \"#utility.yul\":9260:9278   */\n      add\n        /* \"#utility.yul\":9252:9278   */\n      swap1\n      pop\n        /* \"#utility.yul\":9288:9359   */\n      tag_526\n        /* \"#utility.yul\":9356:9357   */\n      0x00\n        /* \"#utility.yul\":9345:9354   */\n      dup4\n        /* \"#utility.yul\":9341:9358   */\n      add\n        /* \"#utility.yul\":9332:9338   */\n      dup6\n        /* \"#utility.yul\":9288:9359   */\n      tag_405\n      jump\t// in\n    tag_526:\n        /* \"#utility.yul\":9369:9441   */\n      tag_527\n        /* \"#utility.yul\":9437:9439   */\n      0x20\n        /* \"#utility.yul\":9426:9435   */\n      dup4\n        /* \"#utility.yul\":9422:9440   */\n      add\n        /* \"#utility.yul\":9413:9419   */\n      dup5\n        /* \"#utility.yul\":9369:9441   */\n      tag_398\n      jump\t// in\n    tag_527:\n        /* \"#utility.yul\":9116:9448   */\n      swap4\n      swap3\n      pop\n      pop\n      pop\n      jump\t// out\n        /* \"#utility.yul\":9454:9591   */\n    tag_417:\n        /* \"#utility.yul\":9508:9513   */\n      0x00\n        /* \"#utility.yul\":9539:9545   */\n      dup2\n        /* \"#utility.yul\":9533:9546   */\n      mload\n        /* \"#utility.yul\":9524:9546   */\n      swap1\n      pop\n        /* \"#utility.yul\":9555:9585   */\n      tag_529\n        /* \"#utility.yul\":9579:9584   */\n      dup2\n        /* \"#utility.yul\":9555:9585   */\n      tag_402\n      jump\t// in\n    tag_529:\n        /* \"#utility.yul\":9454:9591   */\n      swap3\n      swap2\n      pop\n      pop\n      jump\t// out\n        /* \"#utility.yul\":9597:9942   */\n    tag_216:\n        /* \"#utility.yul\":9664:9670   */\n      0x00\n        /* \"#utility.yul\":9713:9715   */\n      0x20\n        /* \"#utility.yul\":9701:9710   */\n      dup3\n        /* \"#utility.yul\":9692:9699   */\n      dup5\n        /* \"#utility.yul\":9688:9711   */\n      sub\n        /* \"#utility.yul\":9684:9716   */\n      slt\n        /* \"#utility.yul\":9681:9800   */\n      iszero\n      tag_531\n      jumpi\n        /* \"#utility.yul\":9719:9798   */\n      tag_532\n      tag_391\n      jump\t// in\n    tag_532:\n        /* \"#utility.yul\":9681:9800   */\n    tag_531:\n        /* \"#utility.yul\":9839:9840   */\n      0x00\n        /* \"#utility.yul\":9864:9925   */\n      tag_533\n        /* \"#utility.yul\":9917:9924   */\n      dup5\n        /* \"#utility.yul\":9908:9914   */\n      dup3\n        /* \"#utility.yul\":9897:9906   */\n      dup6\n        /* \"#utility.yul\":9893:9915   */\n      add\n        /* \"#utility.yul\":9864:9925   */\n      tag_417\n      jump\t// in\n    tag_533:\n        /* \"#utility.yul\":9854:9925   */\n      swap2\n      pop\n        /* \"#utility.yul\":9810:9935   */\n      pop\n        /* \"#utility.yul\":9597:9942   */\n      swap3\n      swap2\n      pop\n      pop\n      jump\t// out\n        /* \"#utility.yul\":9948:10169   */\n    tag_418:\n        /* \"#utility.yul\":10088:10122   */\n      0x41646d696e61626c653a2063616c6c6572206973206e6f74207468652061646d\n        /* \"#utility.yul\":10084:10085   */\n      0x00\n        /* \"#utility.yul\":10076:10082   */\n      dup3\n        /* \"#utility.yul\":10072:10086   */\n      add\n        /* \"#utility.yul\":10065:10123   */\n      mstore\n        /* \"#utility.yul\":10157:10161   */\n      0x696e000000000000000000000000000000000000000000000000000000000000\n        /* \"#utility.yul\":10152:10154   */\n      0x20\n        /* \"#utility.yul\":10144:10150   */\n      dup3\n        /* \"#utility.yul\":10140:10155   */\n      add\n        /* \"#utility.yul\":10133:10162   */\n      mstore\n        /* \"#utility.yul\":9948:10169   */\n      pop\n      jump\t// out\n        /* \"#utility.yul\":10175:10541   */\n    tag_419:\n        /* \"#utility.yul\":10317:10320   */\n      0x00\n        /* \"#utility.yul\":10338:10405   */\n      tag_536\n        /* \"#utility.yul\":10402:10404   */\n      0x22\n        /* \"#utility.yul\":10397:10400   */\n      dup4\n        /* \"#utility.yul\":10338:10405   */\n      tag_411\n      jump\t// in\n    tag_536:\n        /* \"#utility.yul\":10331:10405   */\n      swap2\n      pop\n        /* \"#utility.yul\":10414:10507   */\n      tag_537\n        /* \"#utility.yul\":10503:10506   */\n      dup3\n        /* \"#utility.yul\":10414:10507   */\n      tag_418\n      jump\t// in\n    tag_537:\n        /* \"#utility.yul\":10532:10534   */\n      0x40\n        /* \"#utility.yul\":10527:10530   */\n      dup3\n        /* \"#utility.yul\":10523:10535   */\n      add\n        /* \"#utility.yul\":10516:10535   */\n      swap1\n      pop\n        /* \"#utility.yul\":10175:10541   */\n      swap2\n      swap1\n      pop\n      jump\t// out\n        /* \"#utility.yul\":10547:10966   */\n    tag_223:\n        /* \"#utility.yul\":10713:10717   */\n      0x00\n        /* \"#utility.yul\":10751:10753   */\n      0x20\n        /* \"#utility.yul\":10740:10749   */\n      dup3\n        /* \"#utility.yul\":10736:10754   */\n      add\n        /* \"#utility.yul\":10728:10754   */\n      swap1\n      pop\n        /* \"#utility.yul\":10800:10809   */\n      dup2\n        /* \"#utility.yul\":10794:10798   */\n      dup2\n        /* \"#utility.yul\":10790:10810   */\n      sub\n        /* \"#utility.yul\":10786:10787   */\n      0x00\n        /* \"#utility.yul\":10775:10784   */\n      dup4\n        /* \"#utility.yul\":10771:10788   */\n      add\n        /* \"#utility.yul\":10764:10811   */\n      mstore\n        /* \"#utility.yul\":10828:10959   */\n      tag_539\n        /* \"#utility.yul\":10954:10958   */\n      dup2\n        /* \"#utility.yul\":10828:10959   */\n      tag_419\n      jump\t// in\n    tag_539:\n        /* \"#utility.yul\":10820:10959   */\n      swap1\n      pop\n        /* \"#utility.yul\":10547:10966   */\n      swap2\n      swap1\n      pop\n      jump\t// out\n        /* \"#utility.yul\":10972:11166   */\n    tag_228:\n        /* \"#utility.yul\":11012:11016   */\n      0x00\n        /* \"#utility.yul\":11032:11052   */\n      tag_541\n        /* \"#utility.yul\":11050:11051   */\n      dup3\n        /* \"#utility.yul\":11032:11052   */\n      tag_397\n      jump\t// in\n    tag_541:\n        /* \"#utility.yul\":11027:11052   */\n      swap2\n      pop\n        /* \"#utility.yul\":11066:11086   */\n      tag_542\n        /* \"#utility.yul\":11084:11085   */\n      dup4\n        /* \"#utility.yul\":11066:11086   */\n      tag_397\n      jump\t// in\n    tag_542:\n        /* \"#utility.yul\":11061:11086   */\n      swap3\n      pop\n        /* \"#utility.yul\":11110:11111   */\n      dup3\n        /* \"#utility.yul\":11107:11108   */\n      dup3\n        /* \"#utility.yul\":11103:11112   */\n      sub\n        /* \"#utility.yul\":11095:11112   */\n      swap1\n      pop\n        /* \"#utility.yul\":11134:11135   */\n      dup2\n        /* \"#utility.yul\":11128:11132   */\n      dup2\n        /* \"#utility.yul\":11125:11136   */\n      gt\n        /* \"#utility.yul\":11122:11159   */\n      iszero\n      tag_543\n      jumpi\n        /* \"#utility.yul\":11139:11157   */\n      tag_544\n      tag_416\n      jump\t// in\n    tag_544:\n        /* \"#utility.yul\":11122:11159   */\n    tag_543:\n        /* \"#utility.yul\":10972:11166   */\n      swap3\n      swap2\n      pop\n      pop\n      jump\t// out\n        /* \"#utility.yul\":11172:11352   */\n    tag_420:\n        /* \"#utility.yul\":11220:11297   */\n      0x4e487b7100000000000000000000000000000000000000000000000000000000\n        /* \"#utility.yul\":11217:11218   */\n      0x00\n        /* \"#utility.yul\":11210:11298   */\n      mstore\n        /* \"#utility.yul\":11317:11321   */\n      0x12\n        /* \"#utility.yul\":11314:11315   */\n      0x04\n        /* \"#utility.yul\":11307:11322   */\n      mstore\n        /* \"#utility.yul\":11341:11345   */\n      0x24\n        /* \"#utility.yul\":11338:11339   */\n      0x00\n        /* \"#utility.yul\":11331:11346   */\n      revert\n        /* \"#utility.yul\":11358:11543   */\n    tag_230:\n        /* \"#utility.yul\":11398:11399   */\n      0x00\n        /* \"#utility.yul\":11415:11435   */\n      tag_547\n        /* \"#utility.yul\":11433:11434   */\n      dup3\n        /* \"#utility.yul\":11415:11435   */\n      tag_397\n      jump\t// in\n    tag_547:\n        /* \"#utility.yul\":11410:11435   */\n      swap2\n      pop\n        /* \"#utility.yul\":11449:11469   */\n      tag_548\n        /* \"#utility.yul\":11467:11468   */\n      dup4\n        /* \"#utility.yul\":11449:11469   */\n      tag_397\n      jump\t// in\n    tag_548:\n        /* \"#utility.yul\":11444:11469   */\n      swap3\n      pop\n        /* \"#utility.yul\":11488:11489   */\n      dup3\n        /* \"#utility.yul\":11478:11513   */\n      tag_549\n      jumpi\n        /* \"#utility.yul\":11493:11511   */\n      tag_550\n      tag_420\n      jump\t// in\n    tag_550:\n        /* \"#utility.yul\":11478:11513   */\n    tag_549:\n        /* \"#utility.yul\":11535:11536   */\n      dup3\n        /* \"#utility.yul\":11532:11533   */\n      dup3\n        /* \"#utility.yul\":11528:11537   */\n      div\n        /* \"#utility.yul\":11523:11537   */\n      swap1\n      pop\n        /* \"#utility.yul\":11358:11543   */\n      swap3\n      swap2\n      pop\n      pop\n      jump\t// out\n        /* \"#utility.yul\":11549:11959   */\n    tag_236:\n        /* \"#utility.yul\":11589:11596   */\n      0x00\n        /* \"#utility.yul\":11612:11632   */\n      tag_552\n        /* \"#utility.yul\":11630:11631   */\n      dup3\n        /* \"#utility.yul\":11612:11632   */\n      tag_397\n      jump\t// in\n    tag_552:\n        /* \"#utility.yul\":11607:11632   */\n      swap2\n      pop\n        /* \"#utility.yul\":11646:11666   */\n      tag_553\n        /* \"#utility.yul\":11664:11665   */\n      dup4\n        /* \"#utility.yul\":11646:11666   */\n      tag_397\n      jump\t// in\n    tag_553:\n        /* \"#utility.yul\":11641:11666   */\n      swap3\n      pop\n        /* \"#utility.yul\":11701:11702   */\n      dup3\n        /* \"#utility.yul\":11698:11699   */\n      dup3\n        /* \"#utility.yul\":11694:11703   */\n      mul\n        /* \"#utility.yul\":11723:11753   */\n      tag_554\n        /* \"#utility.yul\":11741:11752   */\n      dup2\n        /* \"#utility.yul\":11723:11753   */\n      tag_397\n      jump\t// in\n    tag_554:\n        /* \"#utility.yul\":11712:11753   */\n      swap2\n      pop\n        /* \"#utility.yul\":11902:11903   */\n      dup3\n        /* \"#utility.yul\":11893:11900   */\n      dup3\n        /* \"#utility.yul\":11889:11904   */\n      div\n        /* \"#utility.yul\":11886:11887   */\n      dup5\n        /* \"#utility.yul\":11883:11905   */\n      eq\n        /* \"#utility.yul\":11863:11864   */\n      dup4\n        /* \"#utility.yul\":11856:11865   */\n      iszero\n        /* \"#utility.yul\":11836:11919   */\n      or\n        /* \"#utility.yul\":11813:11952   */\n      tag_555\n      jumpi\n        /* \"#utility.yul\":11932:11950   */\n      tag_556\n      tag_416\n      jump\t// in\n    tag_556:\n        /* \"#utility.yul\":11813:11952   */\n    tag_555:\n        /* \"#utility.yul\":11597:11959   */\n      pop\n        /* \"#utility.yul\":11549:11959   */\n      swap3\n      swap2\n      pop\n      pop\n      jump\t// out\n        /* \"#utility.yul\":11965:12198   */\n    tag_240:\n        /* \"#utility.yul\":12004:12007   */\n      0x00\n        /* \"#utility.yul\":12027:12051   */\n      tag_558\n        /* \"#utility.yul\":12045:12050   */\n      dup3\n        /* \"#utility.yul\":12027:12051   */\n      tag_397\n      jump\t// in\n    tag_558:\n        /* \"#utility.yul\":12018:12051   */\n      swap2\n      pop\n        /* \"#utility.yul\":12073:12139   */\n      0xffffffffffffffffffffffffffffffffffffffffffffffffffffffffffffffff\n        /* \"#utility.yul\":12066:12071   */\n      dup3\n        /* \"#utility.yul\":12063:12140   */\n      sub\n        /* \"#utility.yul\":12060:12163   */\n      tag_559\n      jumpi\n        /* \"#utility.yul\":12143:12161   */\n      tag_560\n      tag_416\n      jump\t// in\n    tag_560:\n        /* \"#utility.yul\":12060:12163   */\n    tag_559:\n        /* \"#utility.yul\":12190:12191   */\n      0x01\n        /* \"#utility.yul\":12183:12188   */\n      dup3\n        /* \"#utility.yul\":12179:12192   */\n      add\n        /* \"#utility.yul\":12172:12192   */\n      swap1\n      pop\n        /* \"#utility.yul\":11965:12198   */\n      swap2\n      swap1\n      pop\n      jump\t// out\n        /* \"#utility.yul\":12204:12368   */\n    tag_421:\n        /* \"#utility.yul\":12344:12360   */\n      0x43616e6e6f74207374616b652030000000000000000000000000000000000000\n        /* \"#utility.yul\":12340:12341   */\n      0x00\n        /* \"#utility.yul\":12332:12338   */\n      dup3\n        /* \"#utility.yul\":12328:12342   */\n      add\n        /* \"#utility.yul\":12321:12361   */\n      mstore\n        /* \"#utility.yul\":12204:12368   */\n      pop\n      jump\t// out\n        /* \"#utility.yul\":12374:12740   */\n    tag_422:\n        /* \"#utility.yul\":12516:12519   */\n      0x00\n        /* \"#utility.yul\":12537:12604   */\n      tag_563\n        /* \"#utility.yul\":12601:12603   */\n      0x0e\n        /* \"#utility.yul\":12596:12599   */\n      dup4\n        /* \"#utility.yul\":12537:12604   */\n      tag_411\n      jump\t// in\n    tag_563:\n        /* \"#utility.yul\":12530:12604   */\n      swap2\n      pop\n        /* \"#utility.yul\":12613:12706   */\n      tag_564\n        /* \"#utility.yul\":12702:12705   */\n      dup3\n        /* \"#utility.yul\":12613:12706   */\n      tag_421\n      jump\t// in\n    tag_564:\n        /* \"#utility.yul\":12731:12733   */\n      0x20\n        /* \"#utility.yul\":12726:12729   */\n      dup3\n        /* \"#utility.yul\":12722:12734   */\n      add\n        /* \"#utility.yul\":12715:12734   */\n      swap1\n      pop\n        /* \"#utility.yul\":12374:12740   */\n      swap2\n      swap1\n      pop\n      jump\t// out\n        /* \"#utility.yul\":12746:13165   */\n    tag_312:\n        /* \"#utility.yul\":12912:12916   */\n      0x00\n        /* \"#utility.yul\":12950:12952   */\n      0x20\n        /* \"#utility.yul\":12939:12948   */\n      dup3\n        /* \"#utility.yul\":12935:12953   */\n      add\n        /* \"#utility.yul\":12927:12953   */\n      swap1\n      pop\n        /* \"#utility.yul\":12999:13008   */\n      dup2\n        /* \"#utility.yul\":12993:12997   */\n      dup2\n        /* \"#utility.yul\":12989:13009   */\n      sub\n        /* \"#utility.yul\":12985:12986   */\n      0x00\n        /* \"#utility.yul\":12974:12983   */\n      dup4\n        /* \"#utility.yul\":12970:12987   */\n      add\n        /* \"#utility.yul\":12963:13010   */\n      mstore\n        /* \"#utility.yul\":13027:13158   */\n      tag_566\n        /* \"#utility.yul\":13153:13157   */\n      dup2\n        /* \"#utility.yul\":13027:13158   */\n      tag_422\n      jump\t// in\n    tag_566:\n        /* \"#utility.yul\":13019:13158   */\n      swap1\n      pop\n        /* \"#utility.yul\":12746:13165   */\n      swap2\n      swap1\n      pop\n      jump\t// out\n        /* \"#utility.yul\":13171:13347   */\n    tag_327:\n        /* \"#utility.yul\":13203:13204   */\n      0x00\n        /* \"#utility.yul\":13220:13240   */\n      tag_568\n        /* \"#utility.yul\":13238:13239   */\n      dup3\n        /* \"#utility.yul\":13220:13240   */\n      tag_397\n      jump\t// in\n    tag_568:\n        /* \"#utility.yul\":13215:13240   */\n      swap2\n      pop\n        /* \"#utility.yul\":13254:13274   */\n      tag_569\n        /* \"#utility.yul\":13272:13273   */\n      dup4\n        /* \"#utility.yul\":13254:13274   */\n      tag_397\n      jump\t// in\n    tag_569:\n        /* \"#utility.yul\":13249:13274   */\n      swap3\n      pop\n        /* \"#utility.yul\":13293:13294   */\n      dup3\n        /* \"#utility.yul\":13283:13318   */\n      tag_570\n      jumpi\n        /* \"#utility.yul\":13298:13316   */\n      tag_571\n      tag_420\n      jump\t// in\n    tag_571:\n        /* \"#utility.yul\":13283:13318   */\n    tag_570:\n        /* \"#utility.yul\":13339:13340   */\n      dup3\n        /* \"#utility.yul\":13336:13337   */\n      dup3\n        /* \"#utility.yul\":13332:13341   */\n      mod\n        /* \"#utility.yul\":13327:13341   */\n      swap1\n      pop\n        /* \"#utility.yul\":13171:13347   */\n      swap3\n      swap2\n      pop\n      pop\n      jump\t// out\n        /* \"#utility.yul\":13353:13578   */\n    tag_423:\n        /* \"#utility.yul\":13493:13527   */\n      0x4f776e61626c653a206e6577206f776e657220697320746865207a65726f2061\n        /* \"#utility.yul\":13489:13490   */\n      0x00\n        /* \"#utility.yul\":13481:13487   */\n      dup3\n        /* \"#utility.yul\":13477:13491   */\n      add\n        /* \"#utility.yul\":13470:13528   */\n      mstore\n        /* \"#utility.yul\":13562:13570   */\n      0x6464726573730000000000000000000000000000000000000000000000000000\n        /* \"#utility.yul\":13557:13559   */\n      0x20\n        /* \"#utility.yul\":13549:13555   */\n      dup3\n        /* \"#utility.yul\":13545:13560   */\n      add\n        /* \"#utility.yul\":13538:13571   */\n      mstore\n        /* \"#utility.yul\":13353:13578   */\n      pop\n      jump\t// out\n        /* \"#utility.yul\":13584:13950   */\n    tag_424:\n        /* \"#utility.yul\":13726:13729   */\n      0x00\n        /* \"#utility.yul\":13747:13814   */\n      tag_574\n        /* \"#utility.yul\":13811:13813   */\n      0x26\n        /* \"#utility.yul\":13806:13809   */\n      dup4\n        /* \"#utility.yul\":13747:13814   */\n      tag_411\n      jump\t// in\n    tag_574:\n        /* \"#utility.yul\":13740:13814   */\n      swap2\n      pop\n        /* \"#utility.yul\":13823:13916   */\n      tag_575\n        /* \"#utility.yul\":13912:13915   */\n      dup3\n        /* \"#utility.yul\":13823:13916   */\n      tag_423\n      jump\t// in\n    tag_575:\n        /* \"#utility.yul\":13941:13943   */\n      0x40\n        /* \"#utility.yul\":13936:13939   */\n      dup3\n        /* \"#utility.yul\":13932:13944   */\n      add\n        /* \"#utility.yul\":13925:13944   */\n      swap1\n      pop\n        /* \"#utility.yul\":13584:13950   */\n      swap2\n      swap1\n      pop\n      jump\t// out\n        /* \"#utility.yul\":13956:14375   */\n    tag_375:\n        /* \"#utility.yul\":14122:14126   */\n      0x00\n        /* \"#utility.yul\":14160:14162   */\n      0x20\n        /* \"#utility.yul\":14149:14158   */\n      dup3\n        /* \"#utility.yul\":14145:14163   */\n      add\n        /* \"#utility.yul\":14137:14163   */\n      swap1\n      pop\n        /* \"#utility.yul\":14209:14218   */\n      dup2\n        /* \"#utility.yul\":14203:14207   */\n      dup2\n        /* \"#utility.yul\":14199:14219   */\n      sub\n        /* \"#utility.yul\":14195:14196   */\n      0x00\n        /* \"#utility.yul\":14184:14193   */\n      dup4\n        /* \"#utility.yul\":14180:14197   */\n      add\n        /* \"#utility.yul\":14173:14220   */\n      mstore\n        /* \"#utility.yul\":14237:14368   */\n      tag_577\n        /* \"#utility.yul\":14363:14367   */\n      dup2\n        /* \"#utility.yul\":14237:14368   */\n      tag_424\n      jump\t// in\n    tag_577:\n        /* \"#utility.yul\":14229:14368   */\n      swap1\n      pop\n        /* \"#utility.yul\":13956:14375   */\n      swap2\n      swap1\n      pop\n      jump\t// out\n\n    auxdata: 0xa2646970667358221220817d595e775647bf21fac61ddc0054dc89dddd86150da90a6fa622766afa6f6864736f6c63430008110033\n}\n",
				"bytecode": {
					"linkReferences": {},
					"object": "60806040526923934c5a09da1900000060055561025860075560056008556103e86009553480156200003057600080fd5b5062000051620000456200005f60201b60201c565b6200006760201b60201c565b60016002819055506200012d565b600033905090565b6000600160009054906101000a900473ffffffffffffffffffffffffffffffffffffffff16905081600160006101000a81548173ffffffffffffffffffffffffffffffffffffffff021916908373ffffffffffffffffffffffffffffffffffffffff1602179055508173ffffffffffffffffffffffffffffffffffffffff168173ffffffffffffffffffffffffffffffffffffffff167f8be0079c531659141344cd1fd0a4f28419497f9722a3daafe3b4186f6b6457e060405160405180910390a35050565b6124e7806200013d6000396000f3fe608060405234801561001057600080fd5b50600436106102105760003560e01c80638107368b11610125578063b79ec812116100ad578063d42b779d1161007c578063d42b779d14610607578063da4f843114610637578063db2e21bc14610667578063df136d6514610671578063f2fde38b1461068f57610210565b8063b79ec8121461057d578063c8f33c91146105ad578063cdda56e0146105cb578063d1af0c7d146105e957610210565b80638da5cb5b116100f45780638da5cb5b146104eb5780639499c549146105095780639a5b17b014610527578063a4c3b09114610545578063adc9772e1461056157610210565b80638107368b1461043f578063874c120b1461046f5780638aee81271461049f5780638b876347146104bb57610210565b80633e0a322d116101a85780636917c501116101775780636917c501146103bd578063715018a6146103db57806378e97925146103e55780637a6fcee71461040357806380faa57d1461042157610210565b80633e0a322d146103235780634dbdc4eb1461033f5780635cfa91f41461036f5780636139d4b41461039f57610210565b806318e20ecf116101e457806318e20ecf146102af57806324d7806c146102cb5780633c4045cf146102fb5780633d18b9121461031957610210565b80628cc262146102155780630700037d146102455780630e15561a14610275578063129ee21a14610293575b600080fd5b61022f600480360381019061022a9190611cf9565b6106ab565b60405161023c9190611d3f565b60405180910390f35b61025f600480360381019061025a9190611cf9565b610817565b60405161026c9190611d3f565b60405180910390f35b61027d61082f565b60405161028a9190611d3f565b60405180910390f35b6102ad60048036038101906102a89190611d86565b610835565b005b6102c960048036038101906102c49190611e11565b6108cb565b005b6102e560048036038101906102e09190611cf9565b610a3c565b6040516102f29190611e60565b60405180910390f35b610303610a91565b6040516103109190611d3f565b60405180910390f35b610321610a97565b005b61033d60048036038101906103389190611e7b565b610e52565b005b61035960048036038101906103549190611e7b565b610eab565b6040516103669190611d3f565b60405180910390f35b61038960048036038101906103849190611e7b565b610f42565b6040516103969190611d3f565b60405180910390f35b6103a7611014565b6040516103b49190611d3f565b60405180910390f35b6103c561101a565b6040516103d29190611d3f565b60405180910390f35b6103e3611024565b005b6103ed6110ac565b6040516103fa9190611d3f565b60405180910390f35b61040b6110b2565b6040516104189190611d3f565b60405180910390f35b6104296110b8565b6040516104369190611d3f565b60405180910390f35b61045960048036038101906104549190611cf9565b6110c0565b6040516104669190611d3f565b60405180910390f35b61048960048036038101906104849190611e7b565b6110d8565b6040516104969190611d3f565b60405180910390f35b6104b960048036038101906104b49190611cf9565b611165565b005b6104d560048036038101906104d09190611cf9565b611225565b6040516104e29190611d3f565b60405180910390f35b6104f361123d565b6040516105009190611eb7565b60405180910390f35b610511611267565b60405161051e9190611d3f565b60405180910390f35b61052f611277565b60405161053c9190611d3f565b60405180910390f35b61055f600480360381019061055a9190611ed2565b61127f565b005b61057b60048036038101906105769190611ed2565b61137e565b005b61059760048036038101906105929190611cf9565b6116f2565b6040516105a49190611d3f565b60405180910390f35b6105b561173b565b6040516105c29190611d3f565b60405180910390f35b6105d3611741565b6040516105e09190611d3f565b60405180910390f35b6105f1611751565b6040516105fe9190611f71565b60405180910390f35b610621600480360381019061061c9190611cf9565b611777565b60405161062e9190611d3f565b60405180910390f35b610651600480360381019061064c9190611f8c565b61178f565b60405161065e9190611d3f565b60405180910390f35b61066f611976565b005b610679611a42565b6040516106869190611d3f565b60405180910390f35b6106a960048036038101906106a49190611cf9565b611a48565b005b6000806106f7600e60008573ffffffffffffffffffffffffffffffffffffffff1673ffffffffffffffffffffffffffffffffffffffff168152602001908152602001600020544261178f565b905061080f600460008573ffffffffffffffffffffffffffffffffffffffff1673ffffffffffffffffffffffffffffffffffffffff16815260200190815260200160002054610801670de0b6b3a76400006107f36107a5600d60008a73ffffffffffffffffffffffffffffffffffffffff1673ffffffffffffffffffffffffffffffffffffffff16815260200190815260200160002054610797886110d8565b611b3f90919063ffffffff16565b600f60008a73ffffffffffffffffffffffffffffffffffffffff1673ffffffffffffffffffffffffffffffffffffffff16815260200190815260200160002054611b5590919063ffffffff16565b611b6b90919063ffffffff16565b611b8190919063ffffffff16565b915050919050565b60046020528060005260406000206000915090505481565b60055481565b61083d611b97565b73ffffffffffffffffffffffffffffffffffffffff1661085b61123d565b73ffffffffffffffffffffffffffffffffffffffff16146108b1576040517f08c379a00000000000000000000000000000000000000000000000000000000081526004016108a89061204f565b60405180910390fd5b826007819055508160088190555080600981905550505050565b6108d3611b97565b73ffffffffffffffffffffffffffffffffffffffff166108f161123d565b73ffffffffffffffffffffffffffffffffffffffff1614610947576040517f08c379a000000000000000000000000000000000000000000000000000000000815260040161093e9061204f565b60405180910390fd5b8173ffffffffffffffffffffffffffffffffffffffff167f82f1fa40a3d82dea3e406073819290601f436580aa7c69f9feb61f885bdd88546000808573ffffffffffffffffffffffffffffffffffffffff1673ffffffffffffffffffffffffffffffffffffffff16815260200190815260200160002060009054906101000a900460ff16836040516109da92919061206f565b60405180910390a2806000808473ffffffffffffffffffffffffffffffffffffffff1673ffffffffffffffffffffffffffffffffffffffff16815260200190815260200160002060006101000a81548160ff0219169083151502179055505050565b60008060008373ffffffffffffffffffffffffffffffffffffffff1673ffffffffffffffffffffffffffffffffffffffff16815260200190815260200160002060009054906101000a900460ff169050919050565b60085481565b6002805403610adb576040517f08c379a0000000000000000000000000000000000000000000000000000000008152600401610ad2906120e4565b60405180910390fd5b60028081905550336000600e60008373ffffffffffffffffffffffffffffffffffffffff1673ffffffffffffffffffffffffffffffffffffffff1681526020019081526020016000205490506006548111610b365760065490505b6000610b42824261178f565b9050610b4d816110d8565b600b81905550610b5b6110b8565b600a81905550600073ffffffffffffffffffffffffffffffffffffffff168373ffffffffffffffffffffffffffffffffffffffff1614610c6c57610b9e836106ab565b600460008573ffffffffffffffffffffffffffffffffffffffff1673ffffffffffffffffffffffffffffffffffffffff16815260200190815260200160002081905550600b54600d60008573ffffffffffffffffffffffffffffffffffffffff1673ffffffffffffffffffffffffffffffffffffffff1681526020019081526020016000208190555042600e60008573ffffffffffffffffffffffffffffffffffffffff1673ffffffffffffffffffffffffffffffffffffffff168152602001908152602001600020819055505b6000600460003373ffffffffffffffffffffffffffffffffffffffff1673ffffffffffffffffffffffffffffffffffffffff1681526020019081526020016000205490506000811115610e445780601060003373ffffffffffffffffffffffffffffffffffffffff1673ffffffffffffffffffffffffffffffffffffffff1681526020019081526020016000206000828254610d089190612133565b925050819055506000600460003373ffffffffffffffffffffffffffffffffffffffff1673ffffffffffffffffffffffffffffffffffffffff16815260200190815260200160002081905550600360009054906101000a900473ffffffffffffffffffffffffffffffffffffffff1673ffffffffffffffffffffffffffffffffffffffff1663a9059cbb33836040518363ffffffff1660e01b8152600401610db1929190612167565b6020604051808303816000875af1158015610dd0573d6000803e3d6000fd5b505050506040513d601f19601f82011682018060405250810190610df491906121a5565b503373ffffffffffffffffffffffffffffffffffffffff167fe2403640ba68fed3a2f88b7557551d1993f84b99bb10ff833f0cf8db0c5e048682604051610e3b9190611d3f565b60405180910390a25b505050506001600281905550565b610e62610e5d611b97565b610a3c565b610ea1576040517f08c379a0000000000000000000000000000000000000000000000000000000008152600401610e9890612244565b60405180910390fd5b8060068190555050565b60008060065403610ec0576006549050610f3d565b6000600160075460065485610ed59190612264565b610edf91906122c7565b610ee99190612133565b90506000600554905060005b82811015610f365760095460085483610f0e91906122f8565b610f1891906122c7565b82610f239190612264565b915080610f2f9061233a565b9050610ef5565b5080925050505b919050565b60008060065403610f5757600554905061100f565b600654821015610f6a576000905061100f565b6000600160075460065485610f7f9190612264565b610f8991906122c7565b610f939190612133565b90506000600554905060005b82811015610fe05760095460085483610fb891906122f8565b610fc291906122c7565b82610fcd9190612264565b915080610fd99061233a565b9050610f9f565b5061100a600954610ffc60085484611b5590919063ffffffff16565b611b6b90919063ffffffff16565b925050505b919050565b60075481565b6000600c54905090565b61102c611b97565b73ffffffffffffffffffffffffffffffffffffffff1661104a61123d565b73ffffffffffffffffffffffffffffffffffffffff16146110a0576040517f08c379a00000000000000000000000000000000000000000000000000000000081526004016110979061204f565b60405180910390fd5b6110aa6000611b9f565b565b60065481565b60095481565b600042905090565b600e6020528060005260406000206000915090505481565b600080600c54036110ed57600b549050611160565b61115d61114c600c5461113e670de0b6b3a764000061113087611122600a546111146110b8565b611b3f90919063ffffffff16565b611b5590919063ffffffff16565b611b5590919063ffffffff16565b611b6b90919063ffffffff16565b600b54611b8190919063ffffffff16565b90505b919050565b61116d611b97565b73ffffffffffffffffffffffffffffffffffffffff1661118b61123d565b73ffffffffffffffffffffffffffffffffffffffff16146111e1576040517f08c379a00000000000000000000000000000000000000000000000000000000081526004016111d89061204f565b60405180910390fd5b80600360006101000a81548173ffffffffffffffffffffffffffffffffffffffff021916908373ffffffffffffffffffffffffffffffffffffffff16021790555050565b600d6020528060005260406000206000915090505481565b6000600160009054906101000a900473ffffffffffffffffffffffffffffffffffffffff16905090565b600061127242610f42565b905090565b600042905090565b611287611b97565b73ffffffffffffffffffffffffffffffffffffffff166112a561123d565b73ffffffffffffffffffffffffffffffffffffffff16146112fb576040517f08c379a00000000000000000000000000000000000000000000000000000000081526004016112f29061204f565b60405180910390fd5b8173ffffffffffffffffffffffffffffffffffffffff1663a9059cbb33836040518363ffffffff1660e01b8152600401611336929190612167565b6020604051808303816000875af1158015611355573d6000803e3d6000fd5b505050506040513d601f19601f8201168201806040525081019061137991906121a5565b505050565b60028054036113c2576040517f08c379a00000000000000000000000000000000000000000000000000000000081526004016113b9906120e4565b60405180910390fd5b600280819055506113d96113d4611b97565b610a3c565b611418576040517f08c379a000000000000000000000000000000000000000000000000000000000815260040161140f90612244565b60405180910390fd5b816000600e60008373ffffffffffffffffffffffffffffffffffffffff1673ffffffffffffffffffffffffffffffffffffffff168152602001908152602001600020549050600654811161146c5760065490505b6000611478824261178f565b9050611483816110d8565b600b819055506114916110b8565b600a81905550600073ffffffffffffffffffffffffffffffffffffffff168373ffffffffffffffffffffffffffffffffffffffff16146115a2576114d4836106ab565b600460008573ffffffffffffffffffffffffffffffffffffffff1673ffffffffffffffffffffffffffffffffffffffff16815260200190815260200160002081905550600b54600d60008573ffffffffffffffffffffffffffffffffffffffff1673ffffffffffffffffffffffffffffffffffffffff1681526020019081526020016000208190555042600e60008573ffffffffffffffffffffffffffffffffffffffff1673ffffffffffffffffffffffffffffffffffffffff168152602001908152602001600020819055505b600084116115e5576040517f08c379a00000000000000000000000000000000000000000000000000000000081526004016115dc906123ce565b60405180910390fd5b6115fa84600c54611b8190919063ffffffff16565b600c8190555061165284600f60008873ffffffffffffffffffffffffffffffffffffffff1673ffffffffffffffffffffffffffffffffffffffff16815260200190815260200160002054611b8190919063ffffffff16565b600f60008773ffffffffffffffffffffffffffffffffffffffff1673ffffffffffffffffffffffffffffffffffffffff168152602001908152602001600020819055508473ffffffffffffffffffffffffffffffffffffffff167f9e71bc8eea02a63969f509818f2dafb9254532904319f9dbda79b67bd34a5f3d856040516116db9190611d3f565b60405180910390a250505060016002819055505050565b6000600f60008373ffffffffffffffffffffffffffffffffffffffff1673ffffffffffffffffffffffffffffffffffffffff168152602001908152602001600020549050919050565b600a5481565b600061174c42611c65565b905090565b600360009054906101000a900473ffffffffffffffffffffffffffffffffffffffff1681565b60106020528060005260406000206000915090505481565b60008060065414806117a15750818310155b806117ac5750600083145b156117ba5760009050611970565b6006548310156117ca5760065492505b6000600754600754600654866117e09190612264565b6117ea91906123ee565b6007546117f79190612264565b61180191906123ee565b905060006007548261181287610f42565b61181c91906122f8565b61182691906122c7565b905060006007546006548661183b9190612264565b61184591906123ee565b905060006007548261185688610f42565b61186091906122f8565b61186a91906122c7565b90508584886118799190612133565b11156118935761188887611c65565b945050505050611970565b6000848884896118a39190612264565b6118ad9190612264565b6118b79190612264565b905060006118c489610eab565b905060008060008390506000600754866118de91906122c7565b905060005b8181101561193557600954600854846118fc91906122f8565b61190691906122c7565b935083836119149190612264565b925083856119229190612133565b94508061192e9061233a565b90506118e3565b508c8c6119429190612264565b878a8661194f9190612133565b6119599190612133565b61196391906122c7565b9a50505050505050505050505b92915050565b61197e611b97565b73ffffffffffffffffffffffffffffffffffffffff1661199c61123d565b73ffffffffffffffffffffffffffffffffffffffff16146119f2576040517f08c379a00000000000000000000000000000000000000000000000000000000081526004016119e99061204f565b60405180910390fd5b6119fa61123d565b73ffffffffffffffffffffffffffffffffffffffff166108fc479081150290604051600060405180830381858888f19350505050158015611a3f573d6000803e3d6000fd5b50565b600b5481565b611a50611b97565b73ffffffffffffffffffffffffffffffffffffffff16611a6e61123d565b73ffffffffffffffffffffffffffffffffffffffff1614611ac4576040517f08c379a0000000000000000000000000000000000000000000000000000000008152600401611abb9061204f565b60405180910390fd5b600073ffffffffffffffffffffffffffffffffffffffff168173ffffffffffffffffffffffffffffffffffffffff1603611b33576040517f08c379a0000000000000000000000000000000000000000000000000000000008152600401611b2a90612491565b60405180910390fd5b611b3c81611b9f565b50565b60008183611b4d9190612264565b905092915050565b60008183611b6391906122f8565b905092915050565b60008183611b7991906122c7565b905092915050565b60008183611b8f9190612133565b905092915050565b600033905090565b6000600160009054906101000a900473ffffffffffffffffffffffffffffffffffffffff16905081600160006101000a81548173ffffffffffffffffffffffffffffffffffffffff021916908373ffffffffffffffffffffffffffffffffffffffff1602179055508173ffffffffffffffffffffffffffffffffffffffff168173ffffffffffffffffffffffffffffffffffffffff167f8be0079c531659141344cd1fd0a4f28419497f9722a3daafe3b4186f6b6457e060405160405180910390a35050565b600080611c7183610f42565b90506000611c8a60075483611b6b90919063ffffffff16565b90508092505050919050565b600080fd5b600073ffffffffffffffffffffffffffffffffffffffff82169050919050565b6000611cc682611c9b565b9050919050565b611cd681611cbb565b8114611ce157600080fd5b50565b600081359050611cf381611ccd565b92915050565b600060208284031215611d0f57611d0e611c96565b5b6000611d1d84828501611ce4565b91505092915050565b6000819050919050565b611d3981611d26565b82525050565b6000602082019050611d546000830184611d30565b92915050565b611d6381611d26565b8114611d6e57600080fd5b50565b600081359050611d8081611d5a565b92915050565b600080600060608486031215611d9f57611d9e611c96565b5b6000611dad86828701611d71565b9350506020611dbe86828701611d71565b9250506040611dcf86828701611d71565b9150509250925092565b60008115159050919050565b611dee81611dd9565b8114611df957600080fd5b50565b600081359050611e0b81611de5565b92915050565b60008060408385031215611e2857611e27611c96565b5b6000611e3685828601611ce4565b9250506020611e4785828601611dfc565b9150509250929050565b611e5a81611dd9565b82525050565b6000602082019050611e756000830184611e51565b92915050565b600060208284031215611e9157611e90611c96565b5b6000611e9f84828501611d71565b91505092915050565b611eb181611cbb565b82525050565b6000602082019050611ecc6000830184611ea8565b92915050565b60008060408385031215611ee957611ee8611c96565b5b6000611ef785828601611ce4565b9250506020611f0885828601611d71565b9150509250929050565b6000819050919050565b6000611f37611f32611f2d84611c9b565b611f12565b611c9b565b9050919050565b6000611f4982611f1c565b9050919050565b6000611f5b82611f3e565b9050919050565b611f6b81611f50565b82525050565b6000602082019050611f866000830184611f62565b92915050565b60008060408385031215611fa357611fa2611c96565b5b6000611fb185828601611d71565b9250506020611fc285828601611d71565b9150509250929050565b600082825260208201905092915050565b7f41646d696e61626c653a2063616c6c6572206973206e6f7420746865206f776e60008201527f6572000000000000000000000000000000000000000000000000000000000000602082015250565b6000612039602283611fcc565b915061204482611fdd565b604082019050919050565b600060208201905081810360008301526120688161202c565b9050919050565b60006040820190506120846000830185611e51565b6120916020830184611e51565b9392505050565b7f5265656e7472616e637947756172643a207265656e7472616e742063616c6c00600082015250565b60006120ce601f83611fcc565b91506120d982612098565b602082019050919050565b600060208201905081810360008301526120fd816120c1565b9050919050565b7f4e487b7100000000000000000000000000000000000000000000000000000000600052601160045260246000fd5b600061213e82611d26565b915061214983611d26565b925082820190508082111561216157612160612104565b5b92915050565b600060408201905061217c6000830185611ea8565b6121896020830184611d30565b9392505050565b60008151905061219f81611de5565b92915050565b6000602082840312156121bb576121ba611c96565b5b60006121c984828501612190565b91505092915050565b7f41646d696e61626c653a2063616c6c6572206973206e6f74207468652061646d60008201527f696e000000000000000000000000000000000000000000000000000000000000602082015250565b600061222e602283611fcc565b9150612239826121d2565b604082019050919050565b6000602082019050818103600083015261225d81612221565b9050919050565b600061226f82611d26565b915061227a83611d26565b925082820390508181111561229257612291612104565b5b92915050565b7f4e487b7100000000000000000000000000000000000000000000000000000000600052601260045260246000fd5b60006122d282611d26565b91506122dd83611d26565b9250826122ed576122ec612298565b5b828204905092915050565b600061230382611d26565b915061230e83611d26565b925082820261231c81611d26565b9150828204841483151761233357612332612104565b5b5092915050565b600061234582611d26565b91507fffffffffffffffffffffffffffffffffffffffffffffffffffffffffffffffff820361237757612376612104565b5b600182019050919050565b7f43616e6e6f74207374616b652030000000000000000000000000000000000000600082015250565b60006123b8600e83611fcc565b91506123c382612382565b602082019050919050565b600060208201905081810360008301526123e7816123ab565b9050919050565b60006123f982611d26565b915061240483611d26565b92508261241457612413612298565b5b828206905092915050565b7f4f776e61626c653a206e6577206f776e657220697320746865207a65726f206160008201527f6464726573730000000000000000000000000000000000000000000000000000602082015250565b600061247b602683611fcc565b91506124868261241f565b604082019050919050565b600060208201905081810360008301526124aa8161246e565b905091905056fea2646970667358221220817d595e775647bf21fac61ddc0054dc89dddd86150da90a6fa622766afa6f6864736f6c63430008110033",
					"opcodes": "PUSH1 0x80 PUSH1 0x40 MSTORE PUSH10 0x23934C5A09DA19000000 PUSH1 0x5 SSTORE PUSH2 0x258 PUSH1 0x7 SSTORE PUSH1 0x5 PUSH1 0x8 SSTORE PUSH2 0x3E8 PUSH1 0x9 SSTORE CALLVALUE DUP1 ISZERO PUSH3 0x30 JUMPI PUSH1 0x0 DUP1 REVERT JUMPDEST POP PUSH3 0x51 PUSH3 0x45 PUSH3 0x5F PUSH1 0x20 SHL PUSH1 0x20 SHR JUMP JUMPDEST PUSH3 0x67 PUSH1 0x20 SHL PUSH1 0x20 SHR JUMP JUMPDEST PUSH1 0x1 PUSH1 0x2 DUP2 SWAP1 SSTORE POP PUSH3 0x12D JUMP JUMPDEST PUSH1 0x0 CALLER SWAP1 POP SWAP1 JUMP JUMPDEST PUSH1 0x0 PUSH1 0x1 PUSH1 0x0 SWAP1 SLOAD SWAP1 PUSH2 0x100 EXP SWAP1 DIV PUSH20 0xFFFFFFFFFFFFFFFFFFFFFFFFFFFFFFFFFFFFFFFF AND SWAP1 POP DUP2 PUSH1 0x1 PUSH1 0x0 PUSH2 0x100 EXP DUP2 SLOAD DUP2 PUSH20 0xFFFFFFFFFFFFFFFFFFFFFFFFFFFFFFFFFFFFFFFF MUL NOT AND SWAP1 DUP4 PUSH20 0xFFFFFFFFFFFFFFFFFFFFFFFFFFFFFFFFFFFFFFFF AND MUL OR SWAP1 SSTORE POP DUP2 PUSH20 0xFFFFFFFFFFFFFFFFFFFFFFFFFFFFFFFFFFFFFFFF AND DUP2 PUSH20 0xFFFFFFFFFFFFFFFFFFFFFFFFFFFFFFFFFFFFFFFF AND PUSH32 0x8BE0079C531659141344CD1FD0A4F28419497F9722A3DAAFE3B4186F6B6457E0 PUSH1 0x40 MLOAD PUSH1 0x40 MLOAD DUP1 SWAP2 SUB SWAP1 LOG3 POP POP JUMP JUMPDEST PUSH2 0x24E7 DUP1 PUSH3 0x13D PUSH1 0x0 CODECOPY PUSH1 0x0 RETURN INVALID PUSH1 0x80 PUSH1 0x40 MSTORE CALLVALUE DUP1 ISZERO PUSH2 0x10 JUMPI PUSH1 0x0 DUP1 REVERT JUMPDEST POP PUSH1 0x4 CALLDATASIZE LT PUSH2 0x210 JUMPI PUSH1 0x0 CALLDATALOAD PUSH1 0xE0 SHR DUP1 PUSH4 0x8107368B GT PUSH2 0x125 JUMPI DUP1 PUSH4 0xB79EC812 GT PUSH2 0xAD JUMPI DUP1 PUSH4 0xD42B779D GT PUSH2 0x7C JUMPI DUP1 PUSH4 0xD42B779D EQ PUSH2 0x607 JUMPI DUP1 PUSH4 0xDA4F8431 EQ PUSH2 0x637 JUMPI DUP1 PUSH4 0xDB2E21BC EQ PUSH2 0x667 JUMPI DUP1 PUSH4 0xDF136D65 EQ PUSH2 0x671 JUMPI DUP1 PUSH4 0xF2FDE38B EQ PUSH2 0x68F JUMPI PUSH2 0x210 JUMP JUMPDEST DUP1 PUSH4 0xB79EC812 EQ PUSH2 0x57D JUMPI DUP1 PUSH4 0xC8F33C91 EQ PUSH2 0x5AD JUMPI DUP1 PUSH4 0xCDDA56E0 EQ PUSH2 0x5CB JUMPI DUP1 PUSH4 0xD1AF0C7D EQ PUSH2 0x5E9 JUMPI PUSH2 0x210 JUMP JUMPDEST DUP1 PUSH4 0x8DA5CB5B GT PUSH2 0xF4 JUMPI DUP1 PUSH4 0x8DA5CB5B EQ PUSH2 0x4EB JUMPI DUP1 PUSH4 0x9499C549 EQ PUSH2 0x509 JUMPI DUP1 PUSH4 0x9A5B17B0 EQ PUSH2 0x527 JUMPI DUP1 PUSH4 0xA4C3B091 EQ PUSH2 0x545 JUMPI DUP1 PUSH4 0xADC9772E EQ PUSH2 0x561 JUMPI PUSH2 0x210 JUMP JUMPDEST DUP1 PUSH4 0x8107368B EQ PUSH2 0x43F JUMPI DUP1 PUSH4 0x874C120B EQ PUSH2 0x46F JUMPI DUP1 PUSH4 0x8AEE8127 EQ PUSH2 0x49F JUMPI DUP1 PUSH4 0x8B876347 EQ PUSH2 0x4BB JUMPI PUSH2 0x210 JUMP JUMPDEST DUP1 PUSH4 0x3E0A322D GT PUSH2 0x1A8 JUMPI DUP1 PUSH4 0x6917C501 GT PUSH2 0x177 JUMPI DUP1 PUSH4 0x6917C501 EQ PUSH2 0x3BD JUMPI DUP1 PUSH4 0x715018A6 EQ PUSH2 0x3DB JUMPI DUP1 PUSH4 0x78E97925 EQ PUSH2 0x3E5 JUMPI DUP1 PUSH4 0x7A6FCEE7 EQ PUSH2 0x403 JUMPI DUP1 PUSH4 0x80FAA57D EQ PUSH2 0x421 JUMPI PUSH2 0x210 JUMP JUMPDEST DUP1 PUSH4 0x3E0A322D EQ PUSH2 0x323 JUMPI DUP1 PUSH4 0x4DBDC4EB EQ PUSH2 0x33F JUMPI DUP1 PUSH4 0x5CFA91F4 EQ PUSH2 0x36F JUMPI DUP1 PUSH4 0x6139D4B4 EQ PUSH2 0x39F JUMPI PUSH2 0x210 JUMP JUMPDEST DUP1 PUSH4 0x18E20ECF GT PUSH2 0x1E4 JUMPI DUP1 PUSH4 0x18E20ECF EQ PUSH2 0x2AF JUMPI DUP1 PUSH4 0x24D7806C EQ PUSH2 0x2CB JUMPI DUP1 PUSH4 0x3C4045CF EQ PUSH2 0x2FB JUMPI DUP1 PUSH4 0x3D18B912 EQ PUSH2 0x319 JUMPI PUSH2 0x210 JUMP JUMPDEST DUP1 PUSH3 0x8CC262 EQ PUSH2 0x215 JUMPI DUP1 PUSH4 0x700037D EQ PUSH2 0x245 JUMPI DUP1 PUSH4 0xE15561A EQ PUSH2 0x275 JUMPI DUP1 PUSH4 0x129EE21A EQ PUSH2 0x293 JUMPI JUMPDEST PUSH1 0x0 DUP1 REVERT JUMPDEST PUSH2 0x22F PUSH1 0x4 DUP1 CALLDATASIZE SUB DUP2 ADD SWAP1 PUSH2 0x22A SWAP2 SWAP1 PUSH2 0x1CF9 JUMP JUMPDEST PUSH2 0x6AB JUMP JUMPDEST PUSH1 0x40 MLOAD PUSH2 0x23C SWAP2 SWAP1 PUSH2 0x1D3F JUMP JUMPDEST PUSH1 0x40 MLOAD DUP1 SWAP2 SUB SWAP1 RETURN JUMPDEST PUSH2 0x25F PUSH1 0x4 DUP1 CALLDATASIZE SUB DUP2 ADD SWAP1 PUSH2 0x25A SWAP2 SWAP1 PUSH2 0x1CF9 JUMP JUMPDEST PUSH2 0x817 JUMP JUMPDEST PUSH1 0x40 MLOAD PUSH2 0x26C SWAP2 SWAP1 PUSH2 0x1D3F JUMP JUMPDEST PUSH1 0x40 MLOAD DUP1 SWAP2 SUB SWAP1 RETURN JUMPDEST PUSH2 0x27D PUSH2 0x82F JUMP JUMPDEST PUSH1 0x40 MLOAD PUSH2 0x28A SWAP2 SWAP1 PUSH2 0x1D3F JUMP JUMPDEST PUSH1 0x40 MLOAD DUP1 SWAP2 SUB SWAP1 RETURN JUMPDEST PUSH2 0x2AD PUSH1 0x4 DUP1 CALLDATASIZE SUB DUP2 ADD SWAP1 PUSH2 0x2A8 SWAP2 SWAP1 PUSH2 0x1D86 JUMP JUMPDEST PUSH2 0x835 JUMP JUMPDEST STOP JUMPDEST PUSH2 0x2C9 PUSH1 0x4 DUP1 CALLDATASIZE SUB DUP2 ADD SWAP1 PUSH2 0x2C4 SWAP2 SWAP1 PUSH2 0x1E11 JUMP JUMPDEST PUSH2 0x8CB JUMP JUMPDEST STOP JUMPDEST PUSH2 0x2E5 PUSH1 0x4 DUP1 CALLDATASIZE SUB DUP2 ADD SWAP1 PUSH2 0x2E0 SWAP2 SWAP1 PUSH2 0x1CF9 JUMP JUMPDEST PUSH2 0xA3C JUMP JUMPDEST PUSH1 0x40 MLOAD PUSH2 0x2F2 SWAP2 SWAP1 PUSH2 0x1E60 JUMP JUMPDEST PUSH1 0x40 MLOAD DUP1 SWAP2 SUB SWAP1 RETURN JUMPDEST PUSH2 0x303 PUSH2 0xA91 JUMP JUMPDEST PUSH1 0x40 MLOAD PUSH2 0x310 SWAP2 SWAP1 PUSH2 0x1D3F JUMP JUMPDEST PUSH1 0x40 MLOAD DUP1 SWAP2 SUB SWAP1 RETURN JUMPDEST PUSH2 0x321 PUSH2 0xA97 JUMP JUMPDEST STOP JUMPDEST PUSH2 0x33D PUSH1 0x4 DUP1 CALLDATASIZE SUB DUP2 ADD SWAP1 PUSH2 0x338 SWAP2 SWAP1 PUSH2 0x1E7B JUMP JUMPDEST PUSH2 0xE52 JUMP JUMPDEST STOP JUMPDEST PUSH2 0x359 PUSH1 0x4 DUP1 CALLDATASIZE SUB DUP2 ADD SWAP1 PUSH2 0x354 SWAP2 SWAP1 PUSH2 0x1E7B JUMP JUMPDEST PUSH2 0xEAB JUMP JUMPDEST PUSH1 0x40 MLOAD PUSH2 0x366 SWAP2 SWAP1 PUSH2 0x1D3F JUMP JUMPDEST PUSH1 0x40 MLOAD DUP1 SWAP2 SUB SWAP1 RETURN JUMPDEST PUSH2 0x389 PUSH1 0x4 DUP1 CALLDATASIZE SUB DUP2 ADD SWAP1 PUSH2 0x384 SWAP2 SWAP1 PUSH2 0x1E7B JUMP JUMPDEST PUSH2 0xF42 JUMP JUMPDEST PUSH1 0x40 MLOAD PUSH2 0x396 SWAP2 SWAP1 PUSH2 0x1D3F JUMP JUMPDEST PUSH1 0x40 MLOAD DUP1 SWAP2 SUB SWAP1 RETURN JUMPDEST PUSH2 0x3A7 PUSH2 0x1014 JUMP JUMPDEST PUSH1 0x40 MLOAD PUSH2 0x3B4 SWAP2 SWAP1 PUSH2 0x1D3F JUMP JUMPDEST PUSH1 0x40 MLOAD DUP1 SWAP2 SUB SWAP1 RETURN JUMPDEST PUSH2 0x3C5 PUSH2 0x101A JUMP JUMPDEST PUSH1 0x40 MLOAD PUSH2 0x3D2 SWAP2 SWAP1 PUSH2 0x1D3F JUMP JUMPDEST PUSH1 0x40 MLOAD DUP1 SWAP2 SUB SWAP1 RETURN JUMPDEST PUSH2 0x3E3 PUSH2 0x1024 JUMP JUMPDEST STOP JUMPDEST PUSH2 0x3ED PUSH2 0x10AC JUMP JUMPDEST PUSH1 0x40 MLOAD PUSH2 0x3FA SWAP2 SWAP1 PUSH2 0x1D3F JUMP JUMPDEST PUSH1 0x40 MLOAD DUP1 SWAP2 SUB SWAP1 RETURN JUMPDEST PUSH2 0x40B PUSH2 0x10B2 JUMP JUMPDEST PUSH1 0x40 MLOAD PUSH2 0x418 SWAP2 SWAP1 PUSH2 0x1D3F JUMP JUMPDEST PUSH1 0x40 MLOAD DUP1 SWAP2 SUB SWAP1 RETURN JUMPDEST PUSH2 0x429 PUSH2 0x10B8 JUMP JUMPDEST PUSH1 0x40 MLOAD PUSH2 0x436 SWAP2 SWAP1 PUSH2 0x1D3F JUMP JUMPDEST PUSH1 0x40 MLOAD DUP1 SWAP2 SUB SWAP1 RETURN JUMPDEST PUSH2 0x459 PUSH1 0x4 DUP1 CALLDATASIZE SUB DUP2 ADD SWAP1 PUSH2 0x454 SWAP2 SWAP1 PUSH2 0x1CF9 JUMP JUMPDEST PUSH2 0x10C0 JUMP JUMPDEST PUSH1 0x40 MLOAD PUSH2 0x466 SWAP2 SWAP1 PUSH2 0x1D3F JUMP JUMPDEST PUSH1 0x40 MLOAD DUP1 SWAP2 SUB SWAP1 RETURN JUMPDEST PUSH2 0x489 PUSH1 0x4 DUP1 CALLDATASIZE SUB DUP2 ADD SWAP1 PUSH2 0x484 SWAP2 SWAP1 PUSH2 0x1E7B JUMP JUMPDEST PUSH2 0x10D8 JUMP JUMPDEST PUSH1 0x40 MLOAD PUSH2 0x496 SWAP2 SWAP1 PUSH2 0x1D3F JUMP JUMPDEST PUSH1 0x40 MLOAD DUP1 SWAP2 SUB SWAP1 RETURN JUMPDEST PUSH2 0x4B9 PUSH1 0x4 DUP1 CALLDATASIZE SUB DUP2 ADD SWAP1 PUSH2 0x4B4 SWAP2 SWAP1 PUSH2 0x1CF9 JUMP JUMPDEST PUSH2 0x1165 JUMP JUMPDEST STOP JUMPDEST PUSH2 0x4D5 PUSH1 0x4 DUP1 CALLDATASIZE SUB DUP2 ADD SWAP1 PUSH2 0x4D0 SWAP2 SWAP1 PUSH2 0x1CF9 JUMP JUMPDEST PUSH2 0x1225 JUMP JUMPDEST PUSH1 0x40 MLOAD PUSH2 0x4E2 SWAP2 SWAP1 PUSH2 0x1D3F JUMP JUMPDEST PUSH1 0x40 MLOAD DUP1 SWAP2 SUB SWAP1 RETURN JUMPDEST PUSH2 0x4F3 PUSH2 0x123D JUMP JUMPDEST PUSH1 0x40 MLOAD PUSH2 0x500 SWAP2 SWAP1 PUSH2 0x1EB7 JUMP JUMPDEST PUSH1 0x40 MLOAD DUP1 SWAP2 SUB SWAP1 RETURN JUMPDEST PUSH2 0x511 PUSH2 0x1267 JUMP JUMPDEST PUSH1 0x40 MLOAD PUSH2 0x51E SWAP2 SWAP1 PUSH2 0x1D3F JUMP JUMPDEST PUSH1 0x40 MLOAD DUP1 SWAP2 SUB SWAP1 RETURN JUMPDEST PUSH2 0x52F PUSH2 0x1277 JUMP JUMPDEST PUSH1 0x40 MLOAD PUSH2 0x53C SWAP2 SWAP1 PUSH2 0x1D3F JUMP JUMPDEST PUSH1 0x40 MLOAD DUP1 SWAP2 SUB SWAP1 RETURN JUMPDEST PUSH2 0x55F PUSH1 0x4 DUP1 CALLDATASIZE SUB DUP2 ADD SWAP1 PUSH2 0x55A SWAP2 SWAP1 PUSH2 0x1ED2 JUMP JUMPDEST PUSH2 0x127F JUMP JUMPDEST STOP JUMPDEST PUSH2 0x57B PUSH1 0x4 DUP1 CALLDATASIZE SUB DUP2 ADD SWAP1 PUSH2 0x576 SWAP2 SWAP1 PUSH2 0x1ED2 JUMP JUMPDEST PUSH2 0x137E JUMP JUMPDEST STOP JUMPDEST PUSH2 0x597 PUSH1 0x4 DUP1 CALLDATASIZE SUB DUP2 ADD SWAP1 PUSH2 0x592 SWAP2 SWAP1 PUSH2 0x1CF9 JUMP JUMPDEST PUSH2 0x16F2 JUMP JUMPDEST PUSH1 0x40 MLOAD PUSH2 0x5A4 SWAP2 SWAP1 PUSH2 0x1D3F JUMP JUMPDEST PUSH1 0x40 MLOAD DUP1 SWAP2 SUB SWAP1 RETURN JUMPDEST PUSH2 0x5B5 PUSH2 0x173B JUMP JUMPDEST PUSH1 0x40 MLOAD PUSH2 0x5C2 SWAP2 SWAP1 PUSH2 0x1D3F JUMP JUMPDEST PUSH1 0x40 MLOAD DUP1 SWAP2 SUB SWAP1 RETURN JUMPDEST PUSH2 0x5D3 PUSH2 0x1741 JUMP JUMPDEST PUSH1 0x40 MLOAD PUSH2 0x5E0 SWAP2 SWAP1 PUSH2 0x1D3F JUMP JUMPDEST PUSH1 0x40 MLOAD DUP1 SWAP2 SUB SWAP1 RETURN JUMPDEST PUSH2 0x5F1 PUSH2 0x1751 JUMP JUMPDEST PUSH1 0x40 MLOAD PUSH2 0x5FE SWAP2 SWAP1 PUSH2 0x1F71 JUMP JUMPDEST PUSH1 0x40 MLOAD DUP1 SWAP2 SUB SWAP1 RETURN JUMPDEST PUSH2 0x621 PUSH1 0x4 DUP1 CALLDATASIZE SUB DUP2 ADD SWAP1 PUSH2 0x61C SWAP2 SWAP1 PUSH2 0x1CF9 JUMP JUMPDEST PUSH2 0x1777 JUMP JUMPDEST PUSH1 0x40 MLOAD PUSH2 0x62E SWAP2 SWAP1 PUSH2 0x1D3F JUMP JUMPDEST PUSH1 0x40 MLOAD DUP1 SWAP2 SUB SWAP1 RETURN JUMPDEST PUSH2 0x651 PUSH1 0x4 DUP1 CALLDATASIZE SUB DUP2 ADD SWAP1 PUSH2 0x64C SWAP2 SWAP1 PUSH2 0x1F8C JUMP JUMPDEST PUSH2 0x178F JUMP JUMPDEST PUSH1 0x40 MLOAD PUSH2 0x65E SWAP2 SWAP1 PUSH2 0x1D3F JUMP JUMPDEST PUSH1 0x40 MLOAD DUP1 SWAP2 SUB SWAP1 RETURN JUMPDEST PUSH2 0x66F PUSH2 0x1976 JUMP JUMPDEST STOP JUMPDEST PUSH2 0x679 PUSH2 0x1A42 JUMP JUMPDEST PUSH1 0x40 MLOAD PUSH2 0x686 SWAP2 SWAP1 PUSH2 0x1D3F JUMP JUMPDEST PUSH1 0x40 MLOAD DUP1 SWAP2 SUB SWAP1 RETURN JUMPDEST PUSH2 0x6A9 PUSH1 0x4 DUP1 CALLDATASIZE SUB DUP2 ADD SWAP1 PUSH2 0x6A4 SWAP2 SWAP1 PUSH2 0x1CF9 JUMP JUMPDEST PUSH2 0x1A48 JUMP JUMPDEST STOP JUMPDEST PUSH1 0x0 DUP1 PUSH2 0x6F7 PUSH1 0xE PUSH1 0x0 DUP6 PUSH20 0xFFFFFFFFFFFFFFFFFFFFFFFFFFFFFFFFFFFFFFFF AND PUSH20 0xFFFFFFFFFFFFFFFFFFFFFFFFFFFFFFFFFFFFFFFF AND DUP2 MSTORE PUSH1 0x20 ADD SWAP1 DUP2 MSTORE PUSH1 0x20 ADD PUSH1 0x0 KECCAK256 SLOAD TIMESTAMP PUSH2 0x178F JUMP JUMPDEST SWAP1 POP PUSH2 0x80F PUSH1 0x4 PUSH1 0x0 DUP6 PUSH20 0xFFFFFFFFFFFFFFFFFFFFFFFFFFFFFFFFFFFFFFFF AND PUSH20 0xFFFFFFFFFFFFFFFFFFFFFFFFFFFFFFFFFFFFFFFF AND DUP2 MSTORE PUSH1 0x20 ADD SWAP1 DUP2 MSTORE PUSH1 0x20 ADD PUSH1 0x0 KECCAK256 SLOAD PUSH2 0x801 PUSH8 0xDE0B6B3A7640000 PUSH2 0x7F3 PUSH2 0x7A5 PUSH1 0xD PUSH1 0x0 DUP11 PUSH20 0xFFFFFFFFFFFFFFFFFFFFFFFFFFFFFFFFFFFFFFFF AND PUSH20 0xFFFFFFFFFFFFFFFFFFFFFFFFFFFFFFFFFFFFFFFF AND DUP2 MSTORE PUSH1 0x20 ADD SWAP1 DUP2 MSTORE PUSH1 0x20 ADD PUSH1 0x0 KECCAK256 SLOAD PUSH2 0x797 DUP9 PUSH2 0x10D8 JUMP JUMPDEST PUSH2 0x1B3F SWAP1 SWAP2 SWAP1 PUSH4 0xFFFFFFFF AND JUMP JUMPDEST PUSH1 0xF PUSH1 0x0 DUP11 PUSH20 0xFFFFFFFFFFFFFFFFFFFFFFFFFFFFFFFFFFFFFFFF AND PUSH20 0xFFFFFFFFFFFFFFFFFFFFFFFFFFFFFFFFFFFFFFFF AND DUP2 MSTORE PUSH1 0x20 ADD SWAP1 DUP2 MSTORE PUSH1 0x20 ADD PUSH1 0x0 KECCAK256 SLOAD PUSH2 0x1B55 SWAP1 SWAP2 SWAP1 PUSH4 0xFFFFFFFF AND JUMP JUMPDEST PUSH2 0x1B6B SWAP1 SWAP2 SWAP1 PUSH4 0xFFFFFFFF AND JUMP JUMPDEST PUSH2 0x1B81 SWAP1 SWAP2 SWAP1 PUSH4 0xFFFFFFFF AND JUMP JUMPDEST SWAP2 POP POP SWAP2 SWAP1 POP JUMP JUMPDEST PUSH1 0x4 PUSH1 0x20 MSTORE DUP1 PUSH1 0x0 MSTORE PUSH1 0x40 PUSH1 0x0 KECCAK256 PUSH1 0x0 SWAP2 POP SWAP1 POP SLOAD DUP2 JUMP JUMPDEST PUSH1 0x5 SLOAD DUP2 JUMP JUMPDEST PUSH2 0x83D PUSH2 0x1B97 JUMP JUMPDEST PUSH20 0xFFFFFFFFFFFFFFFFFFFFFFFFFFFFFFFFFFFFFFFF AND PUSH2 0x85B PUSH2 0x123D JUMP JUMPDEST PUSH20 0xFFFFFFFFFFFFFFFFFFFFFFFFFFFFFFFFFFFFFFFF AND EQ PUSH2 0x8B1 JUMPI PUSH1 0x40 MLOAD PUSH32 0x8C379A000000000000000000000000000000000000000000000000000000000 DUP2 MSTORE PUSH1 0x4 ADD PUSH2 0x8A8 SWAP1 PUSH2 0x204F JUMP JUMPDEST PUSH1 0x40 MLOAD DUP1 SWAP2 SUB SWAP1 REVERT JUMPDEST DUP3 PUSH1 0x7 DUP2 SWAP1 SSTORE POP DUP2 PUSH1 0x8 DUP2 SWAP1 SSTORE POP DUP1 PUSH1 0x9 DUP2 SWAP1 SSTORE POP POP POP POP JUMP JUMPDEST PUSH2 0x8D3 PUSH2 0x1B97 JUMP JUMPDEST PUSH20 0xFFFFFFFFFFFFFFFFFFFFFFFFFFFFFFFFFFFFFFFF AND PUSH2 0x8F1 PUSH2 0x123D JUMP JUMPDEST PUSH20 0xFFFFFFFFFFFFFFFFFFFFFFFFFFFFFFFFFFFFFFFF AND EQ PUSH2 0x947 JUMPI PUSH1 0x40 MLOAD PUSH32 0x8C379A000000000000000000000000000000000000000000000000000000000 DUP2 MSTORE PUSH1 0x4 ADD PUSH2 0x93E SWAP1 PUSH2 0x204F JUMP JUMPDEST PUSH1 0x40 MLOAD DUP1 SWAP2 SUB SWAP1 REVERT JUMPDEST DUP2 PUSH20 0xFFFFFFFFFFFFFFFFFFFFFFFFFFFFFFFFFFFFFFFF AND PUSH32 0x82F1FA40A3D82DEA3E406073819290601F436580AA7C69F9FEB61F885BDD8854 PUSH1 0x0 DUP1 DUP6 PUSH20 0xFFFFFFFFFFFFFFFFFFFFFFFFFFFFFFFFFFFFFFFF AND PUSH20 0xFFFFFFFFFFFFFFFFFFFFFFFFFFFFFFFFFFFFFFFF AND DUP2 MSTORE PUSH1 0x20 ADD SWAP1 DUP2 MSTORE PUSH1 0x20 ADD PUSH1 0x0 KECCAK256 PUSH1 0x0 SWAP1 SLOAD SWAP1 PUSH2 0x100 EXP SWAP1 DIV PUSH1 0xFF AND DUP4 PUSH1 0x40 MLOAD PUSH2 0x9DA SWAP3 SWAP2 SWAP1 PUSH2 0x206F JUMP JUMPDEST PUSH1 0x40 MLOAD DUP1 SWAP2 SUB SWAP1 LOG2 DUP1 PUSH1 0x0 DUP1 DUP5 PUSH20 0xFFFFFFFFFFFFFFFFFFFFFFFFFFFFFFFFFFFFFFFF AND PUSH20 0xFFFFFFFFFFFFFFFFFFFFFFFFFFFFFFFFFFFFFFFF AND DUP2 MSTORE PUSH1 0x20 ADD SWAP1 DUP2 MSTORE PUSH1 0x20 ADD PUSH1 0x0 KECCAK256 PUSH1 0x0 PUSH2 0x100 EXP DUP2 SLOAD DUP2 PUSH1 0xFF MUL NOT AND SWAP1 DUP4 ISZERO ISZERO MUL OR SWAP1 SSTORE POP POP POP JUMP JUMPDEST PUSH1 0x0 DUP1 PUSH1 0x0 DUP4 PUSH20 0xFFFFFFFFFFFFFFFFFFFFFFFFFFFFFFFFFFFFFFFF AND PUSH20 0xFFFFFFFFFFFFFFFFFFFFFFFFFFFFFFFFFFFFFFFF AND DUP2 MSTORE PUSH1 0x20 ADD SWAP1 DUP2 MSTORE PUSH1 0x20 ADD PUSH1 0x0 KECCAK256 PUSH1 0x0 SWAP1 SLOAD SWAP1 PUSH2 0x100 EXP SWAP1 DIV PUSH1 0xFF AND SWAP1 POP SWAP2 SWAP1 POP JUMP JUMPDEST PUSH1 0x8 SLOAD DUP2 JUMP JUMPDEST PUSH1 0x2 DUP1 SLOAD SUB PUSH2 0xADB JUMPI PUSH1 0x40 MLOAD PUSH32 0x8C379A000000000000000000000000000000000000000000000000000000000 DUP2 MSTORE PUSH1 0x4 ADD PUSH2 0xAD2 SWAP1 PUSH2 0x20E4 JUMP JUMPDEST PUSH1 0x40 MLOAD DUP1 SWAP2 SUB SWAP1 REVERT JUMPDEST PUSH1 0x2 DUP1 DUP2 SWAP1 SSTORE POP CALLER PUSH1 0x0 PUSH1 0xE PUSH1 0x0 DUP4 PUSH20 0xFFFFFFFFFFFFFFFFFFFFFFFFFFFFFFFFFFFFFFFF AND PUSH20 0xFFFFFFFFFFFFFFFFFFFFFFFFFFFFFFFFFFFFFFFF AND DUP2 MSTORE PUSH1 0x20 ADD SWAP1 DUP2 MSTORE PUSH1 0x20 ADD PUSH1 0x0 KECCAK256 SLOAD SWAP1 POP PUSH1 0x6 SLOAD DUP2 GT PUSH2 0xB36 JUMPI PUSH1 0x6 SLOAD SWAP1 POP JUMPDEST PUSH1 0x0 PUSH2 0xB42 DUP3 TIMESTAMP PUSH2 0x178F JUMP JUMPDEST SWAP1 POP PUSH2 0xB4D DUP2 PUSH2 0x10D8 JUMP JUMPDEST PUSH1 0xB DUP2 SWAP1 SSTORE POP PUSH2 0xB5B PUSH2 0x10B8 JUMP JUMPDEST PUSH1 0xA DUP2 SWAP1 SSTORE POP PUSH1 0x0 PUSH20 0xFFFFFFFFFFFFFFFFFFFFFFFFFFFFFFFFFFFFFFFF AND DUP4 PUSH20 0xFFFFFFFFFFFFFFFFFFFFFFFFFFFFFFFFFFFFFFFF AND EQ PUSH2 0xC6C JUMPI PUSH2 0xB9E DUP4 PUSH2 0x6AB JUMP JUMPDEST PUSH1 0x4 PUSH1 0x0 DUP6 PUSH20 0xFFFFFFFFFFFFFFFFFFFFFFFFFFFFFFFFFFFFFFFF AND PUSH20 0xFFFFFFFFFFFFFFFFFFFFFFFFFFFFFFFFFFFFFFFF AND DUP2 MSTORE PUSH1 0x20 ADD SWAP1 DUP2 MSTORE PUSH1 0x20 ADD PUSH1 0x0 KECCAK256 DUP2 SWAP1 SSTORE POP PUSH1 0xB SLOAD PUSH1 0xD PUSH1 0x0 DUP6 PUSH20 0xFFFFFFFFFFFFFFFFFFFFFFFFFFFFFFFFFFFFFFFF AND PUSH20 0xFFFFFFFFFFFFFFFFFFFFFFFFFFFFFFFFFFFFFFFF AND DUP2 MSTORE PUSH1 0x20 ADD SWAP1 DUP2 MSTORE PUSH1 0x20 ADD PUSH1 0x0 KECCAK256 DUP2 SWAP1 SSTORE POP TIMESTAMP PUSH1 0xE PUSH1 0x0 DUP6 PUSH20 0xFFFFFFFFFFFFFFFFFFFFFFFFFFFFFFFFFFFFFFFF AND PUSH20 0xFFFFFFFFFFFFFFFFFFFFFFFFFFFFFFFFFFFFFFFF AND DUP2 MSTORE PUSH1 0x20 ADD SWAP1 DUP2 MSTORE PUSH1 0x20 ADD PUSH1 0x0 KECCAK256 DUP2 SWAP1 SSTORE POP JUMPDEST PUSH1 0x0 PUSH1 0x4 PUSH1 0x0 CALLER PUSH20 0xFFFFFFFFFFFFFFFFFFFFFFFFFFFFFFFFFFFFFFFF AND PUSH20 0xFFFFFFFFFFFFFFFFFFFFFFFFFFFFFFFFFFFFFFFF AND DUP2 MSTORE PUSH1 0x20 ADD SWAP1 DUP2 MSTORE PUSH1 0x20 ADD PUSH1 0x0 KECCAK256 SLOAD SWAP1 POP PUSH1 0x0 DUP2 GT ISZERO PUSH2 0xE44 JUMPI DUP1 PUSH1 0x10 PUSH1 0x0 CALLER PUSH20 0xFFFFFFFFFFFFFFFFFFFFFFFFFFFFFFFFFFFFFFFF AND PUSH20 0xFFFFFFFFFFFFFFFFFFFFFFFFFFFFFFFFFFFFFFFF AND DUP2 MSTORE PUSH1 0x20 ADD SWAP1 DUP2 MSTORE PUSH1 0x20 ADD PUSH1 0x0 KECCAK256 PUSH1 0x0 DUP3 DUP3 SLOAD PUSH2 0xD08 SWAP2 SWAP1 PUSH2 0x2133 JUMP JUMPDEST SWAP3 POP POP DUP2 SWAP1 SSTORE POP PUSH1 0x0 PUSH1 0x4 PUSH1 0x0 CALLER PUSH20 0xFFFFFFFFFFFFFFFFFFFFFFFFFFFFFFFFFFFFFFFF AND PUSH20 0xFFFFFFFFFFFFFFFFFFFFFFFFFFFFFFFFFFFFFFFF AND DUP2 MSTORE PUSH1 0x20 ADD SWAP1 DUP2 MSTORE PUSH1 0x20 ADD PUSH1 0x0 KECCAK256 DUP2 SWAP1 SSTORE POP PUSH1 0x3 PUSH1 0x0 SWAP1 SLOAD SWAP1 PUSH2 0x100 EXP SWAP1 DIV PUSH20 0xFFFFFFFFFFFFFFFFFFFFFFFFFFFFFFFFFFFFFFFF AND PUSH20 0xFFFFFFFFFFFFFFFFFFFFFFFFFFFFFFFFFFFFFFFF AND PUSH4 0xA9059CBB CALLER DUP4 PUSH1 0x40 MLOAD DUP4 PUSH4 0xFFFFFFFF AND PUSH1 0xE0 SHL DUP2 MSTORE PUSH1 0x4 ADD PUSH2 0xDB1 SWAP3 SWAP2 SWAP1 PUSH2 0x2167 JUMP JUMPDEST PUSH1 0x20 PUSH1 0x40 MLOAD DUP1 DUP4 SUB DUP2 PUSH1 0x0 DUP8 GAS CALL ISZERO DUP1 ISZERO PUSH2 0xDD0 JUMPI RETURNDATASIZE PUSH1 0x0 DUP1 RETURNDATACOPY RETURNDATASIZE PUSH1 0x0 REVERT JUMPDEST POP POP POP POP PUSH1 0x40 MLOAD RETURNDATASIZE PUSH1 0x1F NOT PUSH1 0x1F DUP3 ADD AND DUP3 ADD DUP1 PUSH1 0x40 MSTORE POP DUP2 ADD SWAP1 PUSH2 0xDF4 SWAP2 SWAP1 PUSH2 0x21A5 JUMP JUMPDEST POP CALLER PUSH20 0xFFFFFFFFFFFFFFFFFFFFFFFFFFFFFFFFFFFFFFFF AND PUSH32 0xE2403640BA68FED3A2F88B7557551D1993F84B99BB10FF833F0CF8DB0C5E0486 DUP3 PUSH1 0x40 MLOAD PUSH2 0xE3B SWAP2 SWAP1 PUSH2 0x1D3F JUMP JUMPDEST PUSH1 0x40 MLOAD DUP1 SWAP2 SUB SWAP1 LOG2 JUMPDEST POP POP POP POP PUSH1 0x1 PUSH1 0x2 DUP2 SWAP1 SSTORE POP JUMP JUMPDEST PUSH2 0xE62 PUSH2 0xE5D PUSH2 0x1B97 JUMP JUMPDEST PUSH2 0xA3C JUMP JUMPDEST PUSH2 0xEA1 JUMPI PUSH1 0x40 MLOAD PUSH32 0x8C379A000000000000000000000000000000000000000000000000000000000 DUP2 MSTORE PUSH1 0x4 ADD PUSH2 0xE98 SWAP1 PUSH2 0x2244 JUMP JUMPDEST PUSH1 0x40 MLOAD DUP1 SWAP2 SUB SWAP1 REVERT JUMPDEST DUP1 PUSH1 0x6 DUP2 SWAP1 SSTORE POP POP JUMP JUMPDEST PUSH1 0x0 DUP1 PUSH1 0x6 SLOAD SUB PUSH2 0xEC0 JUMPI PUSH1 0x6 SLOAD SWAP1 POP PUSH2 0xF3D JUMP JUMPDEST PUSH1 0x0 PUSH1 0x1 PUSH1 0x7 SLOAD PUSH1 0x6 SLOAD DUP6 PUSH2 0xED5 SWAP2 SWAP1 PUSH2 0x2264 JUMP JUMPDEST PUSH2 0xEDF SWAP2 SWAP1 PUSH2 0x22C7 JUMP JUMPDEST PUSH2 0xEE9 SWAP2 SWAP1 PUSH2 0x2133 JUMP JUMPDEST SWAP1 POP PUSH1 0x0 PUSH1 0x5 SLOAD SWAP1 POP PUSH1 0x0 JUMPDEST DUP3 DUP2 LT ISZERO PUSH2 0xF36 JUMPI PUSH1 0x9 SLOAD PUSH1 0x8 SLOAD DUP4 PUSH2 0xF0E SWAP2 SWAP1 PUSH2 0x22F8 JUMP JUMPDEST PUSH2 0xF18 SWAP2 SWAP1 PUSH2 0x22C7 JUMP JUMPDEST DUP3 PUSH2 0xF23 SWAP2 SWAP1 PUSH2 0x2264 JUMP JUMPDEST SWAP2 POP DUP1 PUSH2 0xF2F SWAP1 PUSH2 0x233A JUMP JUMPDEST SWAP1 POP PUSH2 0xEF5 JUMP JUMPDEST POP DUP1 SWAP3 POP POP POP JUMPDEST SWAP2 SWAP1 POP JUMP JUMPDEST PUSH1 0x0 DUP1 PUSH1 0x6 SLOAD SUB PUSH2 0xF57 JUMPI PUSH1 0x5 SLOAD SWAP1 POP PUSH2 0x100F JUMP JUMPDEST PUSH1 0x6 SLOAD DUP3 LT ISZERO PUSH2 0xF6A JUMPI PUSH1 0x0 SWAP1 POP PUSH2 0x100F JUMP JUMPDEST PUSH1 0x0 PUSH1 0x1 PUSH1 0x7 SLOAD PUSH1 0x6 SLOAD DUP6 PUSH2 0xF7F SWAP2 SWAP1 PUSH2 0x2264 JUMP JUMPDEST PUSH2 0xF89 SWAP2 SWAP1 PUSH2 0x22C7 JUMP JUMPDEST PUSH2 0xF93 SWAP2 SWAP1 PUSH2 0x2133 JUMP JUMPDEST SWAP1 POP PUSH1 0x0 PUSH1 0x5 SLOAD SWAP1 POP PUSH1 0x0 JUMPDEST DUP3 DUP2 LT ISZERO PUSH2 0xFE0 JUMPI PUSH1 0x9 SLOAD PUSH1 0x8 SLOAD DUP4 PUSH2 0xFB8 SWAP2 SWAP1 PUSH2 0x22F8 JUMP JUMPDEST PUSH2 0xFC2 SWAP2 SWAP1 PUSH2 0x22C7 JUMP JUMPDEST DUP3 PUSH2 0xFCD SWAP2 SWAP1 PUSH2 0x2264 JUMP JUMPDEST SWAP2 POP DUP1 PUSH2 0xFD9 SWAP1 PUSH2 0x233A JUMP JUMPDEST SWAP1 POP PUSH2 0xF9F JUMP JUMPDEST POP PUSH2 0x100A PUSH1 0x9 SLOAD PUSH2 0xFFC PUSH1 0x8 SLOAD DUP5 PUSH2 0x1B55 SWAP1 SWAP2 SWAP1 PUSH4 0xFFFFFFFF AND JUMP JUMPDEST PUSH2 0x1B6B SWAP1 SWAP2 SWAP1 PUSH4 0xFFFFFFFF AND JUMP JUMPDEST SWAP3 POP POP POP JUMPDEST SWAP2 SWAP1 POP JUMP JUMPDEST PUSH1 0x7 SLOAD DUP2 JUMP JUMPDEST PUSH1 0x0 PUSH1 0xC SLOAD SWAP1 POP SWAP1 JUMP JUMPDEST PUSH2 0x102C PUSH2 0x1B97 JUMP JUMPDEST PUSH20 0xFFFFFFFFFFFFFFFFFFFFFFFFFFFFFFFFFFFFFFFF AND PUSH2 0x104A PUSH2 0x123D JUMP JUMPDEST PUSH20 0xFFFFFFFFFFFFFFFFFFFFFFFFFFFFFFFFFFFFFFFF AND EQ PUSH2 0x10A0 JUMPI PUSH1 0x40 MLOAD PUSH32 0x8C379A000000000000000000000000000000000000000000000000000000000 DUP2 MSTORE PUSH1 0x4 ADD PUSH2 0x1097 SWAP1 PUSH2 0x204F JUMP JUMPDEST PUSH1 0x40 MLOAD DUP1 SWAP2 SUB SWAP1 REVERT JUMPDEST PUSH2 0x10AA PUSH1 0x0 PUSH2 0x1B9F JUMP JUMPDEST JUMP JUMPDEST PUSH1 0x6 SLOAD DUP2 JUMP JUMPDEST PUSH1 0x9 SLOAD DUP2 JUMP JUMPDEST PUSH1 0x0 TIMESTAMP SWAP1 POP SWAP1 JUMP JUMPDEST PUSH1 0xE PUSH1 0x20 MSTORE DUP1 PUSH1 0x0 MSTORE PUSH1 0x40 PUSH1 0x0 KECCAK256 PUSH1 0x0 SWAP2 POP SWAP1 POP SLOAD DUP2 JUMP JUMPDEST PUSH1 0x0 DUP1 PUSH1 0xC SLOAD SUB PUSH2 0x10ED JUMPI PUSH1 0xB SLOAD SWAP1 POP PUSH2 0x1160 JUMP JUMPDEST PUSH2 0x115D PUSH2 0x114C PUSH1 0xC SLOAD PUSH2 0x113E PUSH8 0xDE0B6B3A7640000 PUSH2 0x1130 DUP8 PUSH2 0x1122 PUSH1 0xA SLOAD PUSH2 0x1114 PUSH2 0x10B8 JUMP JUMPDEST PUSH2 0x1B3F SWAP1 SWAP2 SWAP1 PUSH4 0xFFFFFFFF AND JUMP JUMPDEST PUSH2 0x1B55 SWAP1 SWAP2 SWAP1 PUSH4 0xFFFFFFFF AND JUMP JUMPDEST PUSH2 0x1B55 SWAP1 SWAP2 SWAP1 PUSH4 0xFFFFFFFF AND JUMP JUMPDEST PUSH2 0x1B6B SWAP1 SWAP2 SWAP1 PUSH4 0xFFFFFFFF AND JUMP JUMPDEST PUSH1 0xB SLOAD PUSH2 0x1B81 SWAP1 SWAP2 SWAP1 PUSH4 0xFFFFFFFF AND JUMP JUMPDEST SWAP1 POP JUMPDEST SWAP2 SWAP1 POP JUMP JUMPDEST PUSH2 0x116D PUSH2 0x1B97 JUMP JUMPDEST PUSH20 0xFFFFFFFFFFFFFFFFFFFFFFFFFFFFFFFFFFFFFFFF AND PUSH2 0x118B PUSH2 0x123D JUMP JUMPDEST PUSH20 0xFFFFFFFFFFFFFFFFFFFFFFFFFFFFFFFFFFFFFFFF AND EQ PUSH2 0x11E1 JUMPI PUSH1 0x40 MLOAD PUSH32 0x8C379A000000000000000000000000000000000000000000000000000000000 DUP2 MSTORE PUSH1 0x4 ADD PUSH2 0x11D8 SWAP1 PUSH2 0x204F JUMP JUMPDEST PUSH1 0x40 MLOAD DUP1 SWAP2 SUB SWAP1 REVERT JUMPDEST DUP1 PUSH1 0x3 PUSH1 0x0 PUSH2 0x100 EXP DUP2 SLOAD DUP2 PUSH20 0xFFFFFFFFFFFFFFFFFFFFFFFFFFFFFFFFFFFFFFFF MUL NOT AND SWAP1 DUP4 PUSH20 0xFFFFFFFFFFFFFFFFFFFFFFFFFFFFFFFFFFFFFFFF AND MUL OR SWAP1 SSTORE POP POP JUMP JUMPDEST PUSH1 0xD PUSH1 0x20 MSTORE DUP1 PUSH1 0x0 MSTORE PUSH1 0x40 PUSH1 0x0 KECCAK256 PUSH1 0x0 SWAP2 POP SWAP1 POP SLOAD DUP2 JUMP JUMPDEST PUSH1 0x0 PUSH1 0x1 PUSH1 0x0 SWAP1 SLOAD SWAP1 PUSH2 0x100 EXP SWAP1 DIV PUSH20 0xFFFFFFFFFFFFFFFFFFFFFFFFFFFFFFFFFFFFFFFF AND SWAP1 POP SWAP1 JUMP JUMPDEST PUSH1 0x0 PUSH2 0x1272 TIMESTAMP PUSH2 0xF42 JUMP JUMPDEST SWAP1 POP SWAP1 JUMP JUMPDEST PUSH1 0x0 TIMESTAMP SWAP1 POP SWAP1 JUMP JUMPDEST PUSH2 0x1287 PUSH2 0x1B97 JUMP JUMPDEST PUSH20 0xFFFFFFFFFFFFFFFFFFFFFFFFFFFFFFFFFFFFFFFF AND PUSH2 0x12A5 PUSH2 0x123D JUMP JUMPDEST PUSH20 0xFFFFFFFFFFFFFFFFFFFFFFFFFFFFFFFFFFFFFFFF AND EQ PUSH2 0x12FB JUMPI PUSH1 0x40 MLOAD PUSH32 0x8C379A000000000000000000000000000000000000000000000000000000000 DUP2 MSTORE PUSH1 0x4 ADD PUSH2 0x12F2 SWAP1 PUSH2 0x204F JUMP JUMPDEST PUSH1 0x40 MLOAD DUP1 SWAP2 SUB SWAP1 REVERT JUMPDEST DUP2 PUSH20 0xFFFFFFFFFFFFFFFFFFFFFFFFFFFFFFFFFFFFFFFF AND PUSH4 0xA9059CBB CALLER DUP4 PUSH1 0x40 MLOAD DUP4 PUSH4 0xFFFFFFFF AND PUSH1 0xE0 SHL DUP2 MSTORE PUSH1 0x4 ADD PUSH2 0x1336 SWAP3 SWAP2 SWAP1 PUSH2 0x2167 JUMP JUMPDEST PUSH1 0x20 PUSH1 0x40 MLOAD DUP1 DUP4 SUB DUP2 PUSH1 0x0 DUP8 GAS CALL ISZERO DUP1 ISZERO PUSH2 0x1355 JUMPI RETURNDATASIZE PUSH1 0x0 DUP1 RETURNDATACOPY RETURNDATASIZE PUSH1 0x0 REVERT JUMPDEST POP POP POP POP PUSH1 0x40 MLOAD RETURNDATASIZE PUSH1 0x1F NOT PUSH1 0x1F DUP3 ADD AND DUP3 ADD DUP1 PUSH1 0x40 MSTORE POP DUP2 ADD SWAP1 PUSH2 0x1379 SWAP2 SWAP1 PUSH2 0x21A5 JUMP JUMPDEST POP POP POP JUMP JUMPDEST PUSH1 0x2 DUP1 SLOAD SUB PUSH2 0x13C2 JUMPI PUSH1 0x40 MLOAD PUSH32 0x8C379A000000000000000000000000000000000000000000000000000000000 DUP2 MSTORE PUSH1 0x4 ADD PUSH2 0x13B9 SWAP1 PUSH2 0x20E4 JUMP JUMPDEST PUSH1 0x40 MLOAD DUP1 SWAP2 SUB SWAP1 REVERT JUMPDEST PUSH1 0x2 DUP1 DUP2 SWAP1 SSTORE POP PUSH2 0x13D9 PUSH2 0x13D4 PUSH2 0x1B97 JUMP JUMPDEST PUSH2 0xA3C JUMP JUMPDEST PUSH2 0x1418 JUMPI PUSH1 0x40 MLOAD PUSH32 0x8C379A000000000000000000000000000000000000000000000000000000000 DUP2 MSTORE PUSH1 0x4 ADD PUSH2 0x140F SWAP1 PUSH2 0x2244 JUMP JUMPDEST PUSH1 0x40 MLOAD DUP1 SWAP2 SUB SWAP1 REVERT JUMPDEST DUP2 PUSH1 0x0 PUSH1 0xE PUSH1 0x0 DUP4 PUSH20 0xFFFFFFFFFFFFFFFFFFFFFFFFFFFFFFFFFFFFFFFF AND PUSH20 0xFFFFFFFFFFFFFFFFFFFFFFFFFFFFFFFFFFFFFFFF AND DUP2 MSTORE PUSH1 0x20 ADD SWAP1 DUP2 MSTORE PUSH1 0x20 ADD PUSH1 0x0 KECCAK256 SLOAD SWAP1 POP PUSH1 0x6 SLOAD DUP2 GT PUSH2 0x146C JUMPI PUSH1 0x6 SLOAD SWAP1 POP JUMPDEST PUSH1 0x0 PUSH2 0x1478 DUP3 TIMESTAMP PUSH2 0x178F JUMP JUMPDEST SWAP1 POP PUSH2 0x1483 DUP2 PUSH2 0x10D8 JUMP JUMPDEST PUSH1 0xB DUP2 SWAP1 SSTORE POP PUSH2 0x1491 PUSH2 0x10B8 JUMP JUMPDEST PUSH1 0xA DUP2 SWAP1 SSTORE POP PUSH1 0x0 PUSH20 0xFFFFFFFFFFFFFFFFFFFFFFFFFFFFFFFFFFFFFFFF AND DUP4 PUSH20 0xFFFFFFFFFFFFFFFFFFFFFFFFFFFFFFFFFFFFFFFF AND EQ PUSH2 0x15A2 JUMPI PUSH2 0x14D4 DUP4 PUSH2 0x6AB JUMP JUMPDEST PUSH1 0x4 PUSH1 0x0 DUP6 PUSH20 0xFFFFFFFFFFFFFFFFFFFFFFFFFFFFFFFFFFFFFFFF AND PUSH20 0xFFFFFFFFFFFFFFFFFFFFFFFFFFFFFFFFFFFFFFFF AND DUP2 MSTORE PUSH1 0x20 ADD SWAP1 DUP2 MSTORE PUSH1 0x20 ADD PUSH1 0x0 KECCAK256 DUP2 SWAP1 SSTORE POP PUSH1 0xB SLOAD PUSH1 0xD PUSH1 0x0 DUP6 PUSH20 0xFFFFFFFFFFFFFFFFFFFFFFFFFFFFFFFFFFFFFFFF AND PUSH20 0xFFFFFFFFFFFFFFFFFFFFFFFFFFFFFFFFFFFFFFFF AND DUP2 MSTORE PUSH1 0x20 ADD SWAP1 DUP2 MSTORE PUSH1 0x20 ADD PUSH1 0x0 KECCAK256 DUP2 SWAP1 SSTORE POP TIMESTAMP PUSH1 0xE PUSH1 0x0 DUP6 PUSH20 0xFFFFFFFFFFFFFFFFFFFFFFFFFFFFFFFFFFFFFFFF AND PUSH20 0xFFFFFFFFFFFFFFFFFFFFFFFFFFFFFFFFFFFFFFFF AND DUP2 MSTORE PUSH1 0x20 ADD SWAP1 DUP2 MSTORE PUSH1 0x20 ADD PUSH1 0x0 KECCAK256 DUP2 SWAP1 SSTORE POP JUMPDEST PUSH1 0x0 DUP5 GT PUSH2 0x15E5 JUMPI PUSH1 0x40 MLOAD PUSH32 0x8C379A000000000000000000000000000000000000000000000000000000000 DUP2 MSTORE PUSH1 0x4 ADD PUSH2 0x15DC SWAP1 PUSH2 0x23CE JUMP JUMPDEST PUSH1 0x40 MLOAD DUP1 SWAP2 SUB SWAP1 REVERT JUMPDEST PUSH2 0x15FA DUP5 PUSH1 0xC SLOAD PUSH2 0x1B81 SWAP1 SWAP2 SWAP1 PUSH4 0xFFFFFFFF AND JUMP JUMPDEST PUSH1 0xC DUP2 SWAP1 SSTORE POP PUSH2 0x1652 DUP5 PUSH1 0xF PUSH1 0x0 DUP9 PUSH20 0xFFFFFFFFFFFFFFFFFFFFFFFFFFFFFFFFFFFFFFFF AND PUSH20 0xFFFFFFFFFFFFFFFFFFFFFFFFFFFFFFFFFFFFFFFF AND DUP2 MSTORE PUSH1 0x20 ADD SWAP1 DUP2 MSTORE PUSH1 0x20 ADD PUSH1 0x0 KECCAK256 SLOAD PUSH2 0x1B81 SWAP1 SWAP2 SWAP1 PUSH4 0xFFFFFFFF AND JUMP JUMPDEST PUSH1 0xF PUSH1 0x0 DUP8 PUSH20 0xFFFFFFFFFFFFFFFFFFFFFFFFFFFFFFFFFFFFFFFF AND PUSH20 0xFFFFFFFFFFFFFFFFFFFFFFFFFFFFFFFFFFFFFFFF AND DUP2 MSTORE PUSH1 0x20 ADD SWAP1 DUP2 MSTORE PUSH1 0x20 ADD PUSH1 0x0 KECCAK256 DUP2 SWAP1 SSTORE POP DUP5 PUSH20 0xFFFFFFFFFFFFFFFFFFFFFFFFFFFFFFFFFFFFFFFF AND PUSH32 0x9E71BC8EEA02A63969F509818F2DAFB9254532904319F9DBDA79B67BD34A5F3D DUP6 PUSH1 0x40 MLOAD PUSH2 0x16DB SWAP2 SWAP1 PUSH2 0x1D3F JUMP JUMPDEST PUSH1 0x40 MLOAD DUP1 SWAP2 SUB SWAP1 LOG2 POP POP POP PUSH1 0x1 PUSH1 0x2 DUP2 SWAP1 SSTORE POP POP POP JUMP JUMPDEST PUSH1 0x0 PUSH1 0xF PUSH1 0x0 DUP4 PUSH20 0xFFFFFFFFFFFFFFFFFFFFFFFFFFFFFFFFFFFFFFFF AND PUSH20 0xFFFFFFFFFFFFFFFFFFFFFFFFFFFFFFFFFFFFFFFF AND DUP2 MSTORE PUSH1 0x20 ADD SWAP1 DUP2 MSTORE PUSH1 0x20 ADD PUSH1 0x0 KECCAK256 SLOAD SWAP1 POP SWAP2 SWAP1 POP JUMP JUMPDEST PUSH1 0xA SLOAD DUP2 JUMP JUMPDEST PUSH1 0x0 PUSH2 0x174C TIMESTAMP PUSH2 0x1C65 JUMP JUMPDEST SWAP1 POP SWAP1 JUMP JUMPDEST PUSH1 0x3 PUSH1 0x0 SWAP1 SLOAD SWAP1 PUSH2 0x100 EXP SWAP1 DIV PUSH20 0xFFFFFFFFFFFFFFFFFFFFFFFFFFFFFFFFFFFFFFFF AND DUP2 JUMP JUMPDEST PUSH1 0x10 PUSH1 0x20 MSTORE DUP1 PUSH1 0x0 MSTORE PUSH1 0x40 PUSH1 0x0 KECCAK256 PUSH1 0x0 SWAP2 POP SWAP1 POP SLOAD DUP2 JUMP JUMPDEST PUSH1 0x0 DUP1 PUSH1 0x6 SLOAD EQ DUP1 PUSH2 0x17A1 JUMPI POP DUP2 DUP4 LT ISZERO JUMPDEST DUP1 PUSH2 0x17AC JUMPI POP PUSH1 0x0 DUP4 EQ JUMPDEST ISZERO PUSH2 0x17BA JUMPI PUSH1 0x0 SWAP1 POP PUSH2 0x1970 JUMP JUMPDEST PUSH1 0x6 SLOAD DUP4 LT ISZERO PUSH2 0x17CA JUMPI PUSH1 0x6 SLOAD SWAP3 POP JUMPDEST PUSH1 0x0 PUSH1 0x7 SLOAD PUSH1 0x7 SLOAD PUSH1 0x6 SLOAD DUP7 PUSH2 0x17E0 SWAP2 SWAP1 PUSH2 0x2264 JUMP JUMPDEST PUSH2 0x17EA SWAP2 SWAP1 PUSH2 0x23EE JUMP JUMPDEST PUSH1 0x7 SLOAD PUSH2 0x17F7 SWAP2 SWAP1 PUSH2 0x2264 JUMP JUMPDEST PUSH2 0x1801 SWAP2 SWAP1 PUSH2 0x23EE JUMP JUMPDEST SWAP1 POP PUSH1 0x0 PUSH1 0x7 SLOAD DUP3 PUSH2 0x1812 DUP8 PUSH2 0xF42 JUMP JUMPDEST PUSH2 0x181C SWAP2 SWAP1 PUSH2 0x22F8 JUMP JUMPDEST PUSH2 0x1826 SWAP2 SWAP1 PUSH2 0x22C7 JUMP JUMPDEST SWAP1 POP PUSH1 0x0 PUSH1 0x7 SLOAD PUSH1 0x6 SLOAD DUP7 PUSH2 0x183B SWAP2 SWAP1 PUSH2 0x2264 JUMP JUMPDEST PUSH2 0x1845 SWAP2 SWAP1 PUSH2 0x23EE JUMP JUMPDEST SWAP1 POP PUSH1 0x0 PUSH1 0x7 SLOAD DUP3 PUSH2 0x1856 DUP9 PUSH2 0xF42 JUMP JUMPDEST PUSH2 0x1860 SWAP2 SWAP1 PUSH2 0x22F8 JUMP JUMPDEST PUSH2 0x186A SWAP2 SWAP1 PUSH2 0x22C7 JUMP JUMPDEST SWAP1 POP DUP6 DUP5 DUP9 PUSH2 0x1879 SWAP2 SWAP1 PUSH2 0x2133 JUMP JUMPDEST GT ISZERO PUSH2 0x1893 JUMPI PUSH2 0x1888 DUP8 PUSH2 0x1C65 JUMP JUMPDEST SWAP5 POP POP POP POP POP PUSH2 0x1970 JUMP JUMPDEST PUSH1 0x0 DUP5 DUP9 DUP5 DUP10 PUSH2 0x18A3 SWAP2 SWAP1 PUSH2 0x2264 JUMP JUMPDEST PUSH2 0x18AD SWAP2 SWAP1 PUSH2 0x2264 JUMP JUMPDEST PUSH2 0x18B7 SWAP2 SWAP1 PUSH2 0x2264 JUMP JUMPDEST SWAP1 POP PUSH1 0x0 PUSH2 0x18C4 DUP10 PUSH2 0xEAB JUMP JUMPDEST SWAP1 POP PUSH1 0x0 DUP1 PUSH1 0x0 DUP4 SWAP1 POP PUSH1 0x0 PUSH1 0x7 SLOAD DUP7 PUSH2 0x18DE SWAP2 SWAP1 PUSH2 0x22C7 JUMP JUMPDEST SWAP1 POP PUSH1 0x0 JUMPDEST DUP2 DUP2 LT ISZERO PUSH2 0x1935 JUMPI PUSH1 0x9 SLOAD PUSH1 0x8 SLOAD DUP5 PUSH2 0x18FC SWAP2 SWAP1 PUSH2 0x22F8 JUMP JUMPDEST PUSH2 0x1906 SWAP2 SWAP1 PUSH2 0x22C7 JUMP JUMPDEST SWAP4 POP DUP4 DUP4 PUSH2 0x1914 SWAP2 SWAP1 PUSH2 0x2264 JUMP JUMPDEST SWAP3 POP DUP4 DUP6 PUSH2 0x1922 SWAP2 SWAP1 PUSH2 0x2133 JUMP JUMPDEST SWAP5 POP DUP1 PUSH2 0x192E SWAP1 PUSH2 0x233A JUMP JUMPDEST SWAP1 POP PUSH2 0x18E3 JUMP JUMPDEST POP DUP13 DUP13 PUSH2 0x1942 SWAP2 SWAP1 PUSH2 0x2264 JUMP JUMPDEST DUP8 DUP11 DUP7 PUSH2 0x194F SWAP2 SWAP1 PUSH2 0x2133 JUMP JUMPDEST PUSH2 0x1959 SWAP2 SWAP1 PUSH2 0x2133 JUMP JUMPDEST PUSH2 0x1963 SWAP2 SWAP1 PUSH2 0x22C7 JUMP JUMPDEST SWAP11 POP POP POP POP POP POP POP POP POP POP POP JUMPDEST SWAP3 SWAP2 POP POP JUMP JUMPDEST PUSH2 0x197E PUSH2 0x1B97 JUMP JUMPDEST PUSH20 0xFFFFFFFFFFFFFFFFFFFFFFFFFFFFFFFFFFFFFFFF AND PUSH2 0x199C PUSH2 0x123D JUMP JUMPDEST PUSH20 0xFFFFFFFFFFFFFFFFFFFFFFFFFFFFFFFFFFFFFFFF AND EQ PUSH2 0x19F2 JUMPI PUSH1 0x40 MLOAD PUSH32 0x8C379A000000000000000000000000000000000000000000000000000000000 DUP2 MSTORE PUSH1 0x4 ADD PUSH2 0x19E9 SWAP1 PUSH2 0x204F JUMP JUMPDEST PUSH1 0x40 MLOAD DUP1 SWAP2 SUB SWAP1 REVERT JUMPDEST PUSH2 0x19FA PUSH2 0x123D JUMP JUMPDEST PUSH20 0xFFFFFFFFFFFFFFFFFFFFFFFFFFFFFFFFFFFFFFFF AND PUSH2 0x8FC SELFBALANCE SWAP1 DUP2 ISZERO MUL SWAP1 PUSH1 0x40 MLOAD PUSH1 0x0 PUSH1 0x40 MLOAD DUP1 DUP4 SUB DUP2 DUP6 DUP9 DUP9 CALL SWAP4 POP POP POP POP ISZERO DUP1 ISZERO PUSH2 0x1A3F JUMPI RETURNDATASIZE PUSH1 0x0 DUP1 RETURNDATACOPY RETURNDATASIZE PUSH1 0x0 REVERT JUMPDEST POP JUMP JUMPDEST PUSH1 0xB SLOAD DUP2 JUMP JUMPDEST PUSH2 0x1A50 PUSH2 0x1B97 JUMP JUMPDEST PUSH20 0xFFFFFFFFFFFFFFFFFFFFFFFFFFFFFFFFFFFFFFFF AND PUSH2 0x1A6E PUSH2 0x123D JUMP JUMPDEST PUSH20 0xFFFFFFFFFFFFFFFFFFFFFFFFFFFFFFFFFFFFFFFF AND EQ PUSH2 0x1AC4 JUMPI PUSH1 0x40 MLOAD PUSH32 0x8C379A000000000000000000000000000000000000000000000000000000000 DUP2 MSTORE PUSH1 0x4 ADD PUSH2 0x1ABB SWAP1 PUSH2 0x204F JUMP JUMPDEST PUSH1 0x40 MLOAD DUP1 SWAP2 SUB SWAP1 REVERT JUMPDEST PUSH1 0x0 PUSH20 0xFFFFFFFFFFFFFFFFFFFFFFFFFFFFFFFFFFFFFFFF AND DUP2 PUSH20 0xFFFFFFFFFFFFFFFFFFFFFFFFFFFFFFFFFFFFFFFF AND SUB PUSH2 0x1B33 JUMPI PUSH1 0x40 MLOAD PUSH32 0x8C379A000000000000000000000000000000000000000000000000000000000 DUP2 MSTORE PUSH1 0x4 ADD PUSH2 0x1B2A SWAP1 PUSH2 0x2491 JUMP JUMPDEST PUSH1 0x40 MLOAD DUP1 SWAP2 SUB SWAP1 REVERT JUMPDEST PUSH2 0x1B3C DUP2 PUSH2 0x1B9F JUMP JUMPDEST POP JUMP JUMPDEST PUSH1 0x0 DUP2 DUP4 PUSH2 0x1B4D SWAP2 SWAP1 PUSH2 0x2264 JUMP JUMPDEST SWAP1 POP SWAP3 SWAP2 POP POP JUMP JUMPDEST PUSH1 0x0 DUP2 DUP4 PUSH2 0x1B63 SWAP2 SWAP1 PUSH2 0x22F8 JUMP JUMPDEST SWAP1 POP SWAP3 SWAP2 POP POP JUMP JUMPDEST PUSH1 0x0 DUP2 DUP4 PUSH2 0x1B79 SWAP2 SWAP1 PUSH2 0x22C7 JUMP JUMPDEST SWAP1 POP SWAP3 SWAP2 POP POP JUMP JUMPDEST PUSH1 0x0 DUP2 DUP4 PUSH2 0x1B8F SWAP2 SWAP1 PUSH2 0x2133 JUMP JUMPDEST SWAP1 POP SWAP3 SWAP2 POP POP JUMP JUMPDEST PUSH1 0x0 CALLER SWAP1 POP SWAP1 JUMP JUMPDEST PUSH1 0x0 PUSH1 0x1 PUSH1 0x0 SWAP1 SLOAD SWAP1 PUSH2 0x100 EXP SWAP1 DIV PUSH20 0xFFFFFFFFFFFFFFFFFFFFFFFFFFFFFFFFFFFFFFFF AND SWAP1 POP DUP2 PUSH1 0x1 PUSH1 0x0 PUSH2 0x100 EXP DUP2 SLOAD DUP2 PUSH20 0xFFFFFFFFFFFFFFFFFFFFFFFFFFFFFFFFFFFFFFFF MUL NOT AND SWAP1 DUP4 PUSH20 0xFFFFFFFFFFFFFFFFFFFFFFFFFFFFFFFFFFFFFFFF AND MUL OR SWAP1 SSTORE POP DUP2 PUSH20 0xFFFFFFFFFFFFFFFFFFFFFFFFFFFFFFFFFFFFFFFF AND DUP2 PUSH20 0xFFFFFFFFFFFFFFFFFFFFFFFFFFFFFFFFFFFFFFFF AND PUSH32 0x8BE0079C531659141344CD1FD0A4F28419497F9722A3DAAFE3B4186F6B6457E0 PUSH1 0x40 MLOAD PUSH1 0x40 MLOAD DUP1 SWAP2 SUB SWAP1 LOG3 POP POP JUMP JUMPDEST PUSH1 0x0 DUP1 PUSH2 0x1C71 DUP4 PUSH2 0xF42 JUMP JUMPDEST SWAP1 POP PUSH1 0x0 PUSH2 0x1C8A PUSH1 0x7 SLOAD DUP4 PUSH2 0x1B6B SWAP1 SWAP2 SWAP1 PUSH4 0xFFFFFFFF AND JUMP JUMPDEST SWAP1 POP DUP1 SWAP3 POP POP POP SWAP2 SWAP1 POP JUMP JUMPDEST PUSH1 0x0 DUP1 REVERT JUMPDEST PUSH1 0x0 PUSH20 0xFFFFFFFFFFFFFFFFFFFFFFFFFFFFFFFFFFFFFFFF DUP3 AND SWAP1 POP SWAP2 SWAP1 POP JUMP JUMPDEST PUSH1 0x0 PUSH2 0x1CC6 DUP3 PUSH2 0x1C9B JUMP JUMPDEST SWAP1 POP SWAP2 SWAP1 POP JUMP JUMPDEST PUSH2 0x1CD6 DUP2 PUSH2 0x1CBB JUMP JUMPDEST DUP2 EQ PUSH2 0x1CE1 JUMPI PUSH1 0x0 DUP1 REVERT JUMPDEST POP JUMP JUMPDEST PUSH1 0x0 DUP2 CALLDATALOAD SWAP1 POP PUSH2 0x1CF3 DUP2 PUSH2 0x1CCD JUMP JUMPDEST SWAP3 SWAP2 POP POP JUMP JUMPDEST PUSH1 0x0 PUSH1 0x20 DUP3 DUP5 SUB SLT ISZERO PUSH2 0x1D0F JUMPI PUSH2 0x1D0E PUSH2 0x1C96 JUMP JUMPDEST JUMPDEST PUSH1 0x0 PUSH2 0x1D1D DUP5 DUP3 DUP6 ADD PUSH2 0x1CE4 JUMP JUMPDEST SWAP2 POP POP SWAP3 SWAP2 POP POP JUMP JUMPDEST PUSH1 0x0 DUP2 SWAP1 POP SWAP2 SWAP1 POP JUMP JUMPDEST PUSH2 0x1D39 DUP2 PUSH2 0x1D26 JUMP JUMPDEST DUP3 MSTORE POP POP JUMP JUMPDEST PUSH1 0x0 PUSH1 0x20 DUP3 ADD SWAP1 POP PUSH2 0x1D54 PUSH1 0x0 DUP4 ADD DUP5 PUSH2 0x1D30 JUMP JUMPDEST SWAP3 SWAP2 POP POP JUMP JUMPDEST PUSH2 0x1D63 DUP2 PUSH2 0x1D26 JUMP JUMPDEST DUP2 EQ PUSH2 0x1D6E JUMPI PUSH1 0x0 DUP1 REVERT JUMPDEST POP JUMP JUMPDEST PUSH1 0x0 DUP2 CALLDATALOAD SWAP1 POP PUSH2 0x1D80 DUP2 PUSH2 0x1D5A JUMP JUMPDEST SWAP3 SWAP2 POP POP JUMP JUMPDEST PUSH1 0x0 DUP1 PUSH1 0x0 PUSH1 0x60 DUP5 DUP7 SUB SLT ISZERO PUSH2 0x1D9F JUMPI PUSH2 0x1D9E PUSH2 0x1C96 JUMP JUMPDEST JUMPDEST PUSH1 0x0 PUSH2 0x1DAD DUP7 DUP3 DUP8 ADD PUSH2 0x1D71 JUMP JUMPDEST SWAP4 POP POP PUSH1 0x20 PUSH2 0x1DBE DUP7 DUP3 DUP8 ADD PUSH2 0x1D71 JUMP JUMPDEST SWAP3 POP POP PUSH1 0x40 PUSH2 0x1DCF DUP7 DUP3 DUP8 ADD PUSH2 0x1D71 JUMP JUMPDEST SWAP2 POP POP SWAP3 POP SWAP3 POP SWAP3 JUMP JUMPDEST PUSH1 0x0 DUP2 ISZERO ISZERO SWAP1 POP SWAP2 SWAP1 POP JUMP JUMPDEST PUSH2 0x1DEE DUP2 PUSH2 0x1DD9 JUMP JUMPDEST DUP2 EQ PUSH2 0x1DF9 JUMPI PUSH1 0x0 DUP1 REVERT JUMPDEST POP JUMP JUMPDEST PUSH1 0x0 DUP2 CALLDATALOAD SWAP1 POP PUSH2 0x1E0B DUP2 PUSH2 0x1DE5 JUMP JUMPDEST SWAP3 SWAP2 POP POP JUMP JUMPDEST PUSH1 0x0 DUP1 PUSH1 0x40 DUP4 DUP6 SUB SLT ISZERO PUSH2 0x1E28 JUMPI PUSH2 0x1E27 PUSH2 0x1C96 JUMP JUMPDEST JUMPDEST PUSH1 0x0 PUSH2 0x1E36 DUP6 DUP3 DUP7 ADD PUSH2 0x1CE4 JUMP JUMPDEST SWAP3 POP POP PUSH1 0x20 PUSH2 0x1E47 DUP6 DUP3 DUP7 ADD PUSH2 0x1DFC JUMP JUMPDEST SWAP2 POP POP SWAP3 POP SWAP3 SWAP1 POP JUMP JUMPDEST PUSH2 0x1E5A DUP2 PUSH2 0x1DD9 JUMP JUMPDEST DUP3 MSTORE POP POP JUMP JUMPDEST PUSH1 0x0 PUSH1 0x20 DUP3 ADD SWAP1 POP PUSH2 0x1E75 PUSH1 0x0 DUP4 ADD DUP5 PUSH2 0x1E51 JUMP JUMPDEST SWAP3 SWAP2 POP POP JUMP JUMPDEST PUSH1 0x0 PUSH1 0x20 DUP3 DUP5 SUB SLT ISZERO PUSH2 0x1E91 JUMPI PUSH2 0x1E90 PUSH2 0x1C96 JUMP JUMPDEST JUMPDEST PUSH1 0x0 PUSH2 0x1E9F DUP5 DUP3 DUP6 ADD PUSH2 0x1D71 JUMP JUMPDEST SWAP2 POP POP SWAP3 SWAP2 POP POP JUMP JUMPDEST PUSH2 0x1EB1 DUP2 PUSH2 0x1CBB JUMP JUMPDEST DUP3 MSTORE POP POP JUMP JUMPDEST PUSH1 0x0 PUSH1 0x20 DUP3 ADD SWAP1 POP PUSH2 0x1ECC PUSH1 0x0 DUP4 ADD DUP5 PUSH2 0x1EA8 JUMP JUMPDEST SWAP3 SWAP2 POP POP JUMP JUMPDEST PUSH1 0x0 DUP1 PUSH1 0x40 DUP4 DUP6 SUB SLT ISZERO PUSH2 0x1EE9 JUMPI PUSH2 0x1EE8 PUSH2 0x1C96 JUMP JUMPDEST JUMPDEST PUSH1 0x0 PUSH2 0x1EF7 DUP6 DUP3 DUP7 ADD PUSH2 0x1CE4 JUMP JUMPDEST SWAP3 POP POP PUSH1 0x20 PUSH2 0x1F08 DUP6 DUP3 DUP7 ADD PUSH2 0x1D71 JUMP JUMPDEST SWAP2 POP POP SWAP3 POP SWAP3 SWAP1 POP JUMP JUMPDEST PUSH1 0x0 DUP2 SWAP1 POP SWAP2 SWAP1 POP JUMP JUMPDEST PUSH1 0x0 PUSH2 0x1F37 PUSH2 0x1F32 PUSH2 0x1F2D DUP5 PUSH2 0x1C9B JUMP JUMPDEST PUSH2 0x1F12 JUMP JUMPDEST PUSH2 0x1C9B JUMP JUMPDEST SWAP1 POP SWAP2 SWAP1 POP JUMP JUMPDEST PUSH1 0x0 PUSH2 0x1F49 DUP3 PUSH2 0x1F1C JUMP JUMPDEST SWAP1 POP SWAP2 SWAP1 POP JUMP JUMPDEST PUSH1 0x0 PUSH2 0x1F5B DUP3 PUSH2 0x1F3E JUMP JUMPDEST SWAP1 POP SWAP2 SWAP1 POP JUMP JUMPDEST PUSH2 0x1F6B DUP2 PUSH2 0x1F50 JUMP JUMPDEST DUP3 MSTORE POP POP JUMP JUMPDEST PUSH1 0x0 PUSH1 0x20 DUP3 ADD SWAP1 POP PUSH2 0x1F86 PUSH1 0x0 DUP4 ADD DUP5 PUSH2 0x1F62 JUMP JUMPDEST SWAP3 SWAP2 POP POP JUMP JUMPDEST PUSH1 0x0 DUP1 PUSH1 0x40 DUP4 DUP6 SUB SLT ISZERO PUSH2 0x1FA3 JUMPI PUSH2 0x1FA2 PUSH2 0x1C96 JUMP JUMPDEST JUMPDEST PUSH1 0x0 PUSH2 0x1FB1 DUP6 DUP3 DUP7 ADD PUSH2 0x1D71 JUMP JUMPDEST SWAP3 POP POP PUSH1 0x20 PUSH2 0x1FC2 DUP6 DUP3 DUP7 ADD PUSH2 0x1D71 JUMP JUMPDEST SWAP2 POP POP SWAP3 POP SWAP3 SWAP1 POP JUMP JUMPDEST PUSH1 0x0 DUP3 DUP3 MSTORE PUSH1 0x20 DUP3 ADD SWAP1 POP SWAP3 SWAP2 POP POP JUMP JUMPDEST PUSH32 0x41646D696E61626C653A2063616C6C6572206973206E6F7420746865206F776E PUSH1 0x0 DUP3 ADD MSTORE PUSH32 0x6572000000000000000000000000000000000000000000000000000000000000 PUSH1 0x20 DUP3 ADD MSTORE POP JUMP JUMPDEST PUSH1 0x0 PUSH2 0x2039 PUSH1 0x22 DUP4 PUSH2 0x1FCC JUMP JUMPDEST SWAP2 POP PUSH2 0x2044 DUP3 PUSH2 0x1FDD JUMP JUMPDEST PUSH1 0x40 DUP3 ADD SWAP1 POP SWAP2 SWAP1 POP JUMP JUMPDEST PUSH1 0x0 PUSH1 0x20 DUP3 ADD SWAP1 POP DUP2 DUP2 SUB PUSH1 0x0 DUP4 ADD MSTORE PUSH2 0x2068 DUP2 PUSH2 0x202C JUMP JUMPDEST SWAP1 POP SWAP2 SWAP1 POP JUMP JUMPDEST PUSH1 0x0 PUSH1 0x40 DUP3 ADD SWAP1 POP PUSH2 0x2084 PUSH1 0x0 DUP4 ADD DUP6 PUSH2 0x1E51 JUMP JUMPDEST PUSH2 0x2091 PUSH1 0x20 DUP4 ADD DUP5 PUSH2 0x1E51 JUMP JUMPDEST SWAP4 SWAP3 POP POP POP JUMP JUMPDEST PUSH32 0x5265656E7472616E637947756172643A207265656E7472616E742063616C6C00 PUSH1 0x0 DUP3 ADD MSTORE POP JUMP JUMPDEST PUSH1 0x0 PUSH2 0x20CE PUSH1 0x1F DUP4 PUSH2 0x1FCC JUMP JUMPDEST SWAP2 POP PUSH2 0x20D9 DUP3 PUSH2 0x2098 JUMP JUMPDEST PUSH1 0x20 DUP3 ADD SWAP1 POP SWAP2 SWAP1 POP JUMP JUMPDEST PUSH1 0x0 PUSH1 0x20 DUP3 ADD SWAP1 POP DUP2 DUP2 SUB PUSH1 0x0 DUP4 ADD MSTORE PUSH2 0x20FD DUP2 PUSH2 0x20C1 JUMP JUMPDEST SWAP1 POP SWAP2 SWAP1 POP JUMP JUMPDEST PUSH32 0x4E487B7100000000000000000000000000000000000000000000000000000000 PUSH1 0x0 MSTORE PUSH1 0x11 PUSH1 0x4 MSTORE PUSH1 0x24 PUSH1 0x0 REVERT JUMPDEST PUSH1 0x0 PUSH2 0x213E DUP3 PUSH2 0x1D26 JUMP JUMPDEST SWAP2 POP PUSH2 0x2149 DUP4 PUSH2 0x1D26 JUMP JUMPDEST SWAP3 POP DUP3 DUP3 ADD SWAP1 POP DUP1 DUP3 GT ISZERO PUSH2 0x2161 JUMPI PUSH2 0x2160 PUSH2 0x2104 JUMP JUMPDEST JUMPDEST SWAP3 SWAP2 POP POP JUMP JUMPDEST PUSH1 0x0 PUSH1 0x40 DUP3 ADD SWAP1 POP PUSH2 0x217C PUSH1 0x0 DUP4 ADD DUP6 PUSH2 0x1EA8 JUMP JUMPDEST PUSH2 0x2189 PUSH1 0x20 DUP4 ADD DUP5 PUSH2 0x1D30 JUMP JUMPDEST SWAP4 SWAP3 POP POP POP JUMP JUMPDEST PUSH1 0x0 DUP2 MLOAD SWAP1 POP PUSH2 0x219F DUP2 PUSH2 0x1DE5 JUMP JUMPDEST SWAP3 SWAP2 POP POP JUMP JUMPDEST PUSH1 0x0 PUSH1 0x20 DUP3 DUP5 SUB SLT ISZERO PUSH2 0x21BB JUMPI PUSH2 0x21BA PUSH2 0x1C96 JUMP JUMPDEST JUMPDEST PUSH1 0x0 PUSH2 0x21C9 DUP5 DUP3 DUP6 ADD PUSH2 0x2190 JUMP JUMPDEST SWAP2 POP POP SWAP3 SWAP2 POP POP JUMP JUMPDEST PUSH32 0x41646D696E61626C653A2063616C6C6572206973206E6F74207468652061646D PUSH1 0x0 DUP3 ADD MSTORE PUSH32 0x696E000000000000000000000000000000000000000000000000000000000000 PUSH1 0x20 DUP3 ADD MSTORE POP JUMP JUMPDEST PUSH1 0x0 PUSH2 0x222E PUSH1 0x22 DUP4 PUSH2 0x1FCC JUMP JUMPDEST SWAP2 POP PUSH2 0x2239 DUP3 PUSH2 0x21D2 JUMP JUMPDEST PUSH1 0x40 DUP3 ADD SWAP1 POP SWAP2 SWAP1 POP JUMP JUMPDEST PUSH1 0x0 PUSH1 0x20 DUP3 ADD SWAP1 POP DUP2 DUP2 SUB PUSH1 0x0 DUP4 ADD MSTORE PUSH2 0x225D DUP2 PUSH2 0x2221 JUMP JUMPDEST SWAP1 POP SWAP2 SWAP1 POP JUMP JUMPDEST PUSH1 0x0 PUSH2 0x226F DUP3 PUSH2 0x1D26 JUMP JUMPDEST SWAP2 POP PUSH2 0x227A DUP4 PUSH2 0x1D26 JUMP JUMPDEST SWAP3 POP DUP3 DUP3 SUB SWAP1 POP DUP2 DUP2 GT ISZERO PUSH2 0x2292 JUMPI PUSH2 0x2291 PUSH2 0x2104 JUMP JUMPDEST JUMPDEST SWAP3 SWAP2 POP POP JUMP JUMPDEST PUSH32 0x4E487B7100000000000000000000000000000000000000000000000000000000 PUSH1 0x0 MSTORE PUSH1 0x12 PUSH1 0x4 MSTORE PUSH1 0x24 PUSH1 0x0 REVERT JUMPDEST PUSH1 0x0 PUSH2 0x22D2 DUP3 PUSH2 0x1D26 JUMP JUMPDEST SWAP2 POP PUSH2 0x22DD DUP4 PUSH2 0x1D26 JUMP JUMPDEST SWAP3 POP DUP3 PUSH2 0x22ED JUMPI PUSH2 0x22EC PUSH2 0x2298 JUMP JUMPDEST JUMPDEST DUP3 DUP3 DIV SWAP1 POP SWAP3 SWAP2 POP POP JUMP JUMPDEST PUSH1 0x0 PUSH2 0x2303 DUP3 PUSH2 0x1D26 JUMP JUMPDEST SWAP2 POP PUSH2 0x230E DUP4 PUSH2 0x1D26 JUMP JUMPDEST SWAP3 POP DUP3 DUP3 MUL PUSH2 0x231C DUP2 PUSH2 0x1D26 JUMP JUMPDEST SWAP2 POP DUP3 DUP3 DIV DUP5 EQ DUP4 ISZERO OR PUSH2 0x2333 JUMPI PUSH2 0x2332 PUSH2 0x2104 JUMP JUMPDEST JUMPDEST POP SWAP3 SWAP2 POP POP JUMP JUMPDEST PUSH1 0x0 PUSH2 0x2345 DUP3 PUSH2 0x1D26 JUMP JUMPDEST SWAP2 POP PUSH32 0xFFFFFFFFFFFFFFFFFFFFFFFFFFFFFFFFFFFFFFFFFFFFFFFFFFFFFFFFFFFFFFFF DUP3 SUB PUSH2 0x2377 JUMPI PUSH2 0x2376 PUSH2 0x2104 JUMP JUMPDEST JUMPDEST PUSH1 0x1 DUP3 ADD SWAP1 POP SWAP2 SWAP1 POP JUMP JUMPDEST PUSH32 0x43616E6E6F74207374616B652030000000000000000000000000000000000000 PUSH1 0x0 DUP3 ADD MSTORE POP JUMP JUMPDEST PUSH1 0x0 PUSH2 0x23B8 PUSH1 0xE DUP4 PUSH2 0x1FCC JUMP JUMPDEST SWAP2 POP PUSH2 0x23C3 DUP3 PUSH2 0x2382 JUMP JUMPDEST PUSH1 0x20 DUP3 ADD SWAP1 POP SWAP2 SWAP1 POP JUMP JUMPDEST PUSH1 0x0 PUSH1 0x20 DUP3 ADD SWAP1 POP DUP2 DUP2 SUB PUSH1 0x0 DUP4 ADD MSTORE PUSH2 0x23E7 DUP2 PUSH2 0x23AB JUMP JUMPDEST SWAP1 POP SWAP2 SWAP1 POP JUMP JUMPDEST PUSH1 0x0 PUSH2 0x23F9 DUP3 PUSH2 0x1D26 JUMP JUMPDEST SWAP2 POP PUSH2 0x2404 DUP4 PUSH2 0x1D26 JUMP JUMPDEST SWAP3 POP DUP3 PUSH2 0x2414 JUMPI PUSH2 0x2413 PUSH2 0x2298 JUMP JUMPDEST JUMPDEST DUP3 DUP3 MOD SWAP1 POP SWAP3 SWAP2 POP POP JUMP JUMPDEST PUSH32 0x4F776E61626C653A206E6577206F776E657220697320746865207A65726F2061 PUSH1 0x0 DUP3 ADD MSTORE PUSH32 0x6464726573730000000000000000000000000000000000000000000000000000 PUSH1 0x20 DUP3 ADD MSTORE POP JUMP JUMPDEST PUSH1 0x0 PUSH2 0x247B PUSH1 0x26 DUP4 PUSH2 0x1FCC JUMP JUMPDEST SWAP2 POP PUSH2 0x2486 DUP3 PUSH2 0x241F JUMP JUMPDEST PUSH1 0x40 DUP3 ADD SWAP1 POP SWAP2 SWAP1 POP JUMP JUMPDEST PUSH1 0x0 PUSH1 0x20 DUP3 ADD SWAP1 POP DUP2 DUP2 SUB PUSH1 0x0 DUP4 ADD MSTORE PUSH2 0x24AA DUP2 PUSH2 0x246E JUMP JUMPDEST SWAP1 POP SWAP2 SWAP1 POP JUMP INVALID LOG2 PUSH5 0x6970667358 0x22 SLT KECCAK256 DUP2 PUSH30 0x595E775647BF21FAC61DDC0054DC89DDDD86150DA90A6FA622766AFA6F68 PUSH5 0x736F6C6343 STOP ADDMOD GT STOP CALLER "
				},
				"gasEstimates": {
					"creation": {
						"codeDepositCost": "1889400",
						"executionCost": "infinite",
						"totalCost": "infinite"
					},
					"external": {
						"claimedBalances(address)": "2858",
						"curTime()": "425",
						"earned(address)": "infinite",
						"emergencyWithdraw()": "infinite",
						"emergencyWithdrawToken(address,uint256)": "infinite",
						"getCurRewardPool()": "infinite",
						"getCurRewardRate()": "infinite",
						"getRemainPool(uint256)": "infinite",
						"getReward()": "infinite",
						"getRewardPool(uint256)": "infinite",
						"getTimeWeightedAveRate(uint256,uint256)": "infinite",
						"isAdmin(address)": "2951",
						"lastTimeRewardApplicable()": "469",
						"lastUpdateTime()": "2496",
						"modificationAdmin(address,bool)": "infinite",
						"owner()": "2567",
						"powersOf(address)": "2886",
						"rateInterval()": "2541",
						"rateIntervalDenominator()": "2540",
						"rateIntervalNumerator()": "2519",
						"renounceOwnership()": "30441",
						"rewardPerToken(uint256)": "infinite",
						"rewardPerTokenStored()": "2539",
						"rewards(address)": "2883",
						"rewardsToken()": "infinite",
						"setConfig(uint256,uint256,uint256)": "infinite",
						"setRewardToken(address)": "27052",
						"setStartTime(uint256)": "24886",
						"stake(address,uint256)": "infinite",
						"startTime()": "2518",
						"totalPowers()": "2482",
						"totalRewards()": "2520",
						"transferOwnership(address)": "30852",
						"userLastUpdateTime(address)": "2860",
						"userRewardPerTokenPaid(address)": "2926"
					},
					"internal": {
						"_getRemainPool(uint256)": "infinite",
						"_getRewardRate(uint256)": "infinite"
					}
				},
				"methodIdentifiers": {
					"claimedBalances(address)": "d42b779d",
					"curTime()": "9a5b17b0",
					"earned(address)": "008cc262",
					"emergencyWithdraw()": "db2e21bc",
					"emergencyWithdrawToken(address,uint256)": "a4c3b091",
					"getCurRewardPool()": "9499c549",
					"getCurRewardRate()": "cdda56e0",
					"getRemainPool(uint256)": "4dbdc4eb",
					"getReward()": "3d18b912",
					"getRewardPool(uint256)": "5cfa91f4",
					"getTimeWeightedAveRate(uint256,uint256)": "da4f8431",
					"isAdmin(address)": "24d7806c",
					"lastTimeRewardApplicable()": "80faa57d",
					"lastUpdateTime()": "c8f33c91",
					"modificationAdmin(address,bool)": "18e20ecf",
					"owner()": "8da5cb5b",
					"powersOf(address)": "b79ec812",
					"rateInterval()": "6139d4b4",
					"rateIntervalDenominator()": "7a6fcee7",
					"rateIntervalNumerator()": "3c4045cf",
					"renounceOwnership()": "715018a6",
					"rewardPerToken(uint256)": "874c120b",
					"rewardPerTokenStored()": "df136d65",
					"rewards(address)": "0700037d",
					"rewardsToken()": "d1af0c7d",
					"setConfig(uint256,uint256,uint256)": "129ee21a",
					"setRewardToken(address)": "8aee8127",
					"setStartTime(uint256)": "3e0a322d",
					"stake(address,uint256)": "adc9772e",
					"startTime()": "78e97925",
					"totalPowers()": "6917c501",
					"totalRewards()": "0e15561a",
					"transferOwnership(address)": "f2fde38b",
					"userLastUpdateTime(address)": "8107368b",
					"userRewardPerTokenPaid(address)": "8b876347"
				}
			},
			"storageLayout": {
				"storage": [
					{
						"astId": 26,
						"contract": "inviter_presell/stake.sol:StakingRewards",
						"label": "_admins",
						"offset": 0,
						"slot": "0",
						"type": "t_mapping(t_address,t_bool)"
					},
					{
						"astId": 28,
						"contract": "inviter_presell/stake.sol:StakingRewards",
						"label": "_owner",
						"offset": 0,
						"slot": "1",
						"type": "t_address"
					},
					{
						"astId": 1014,
						"contract": "inviter_presell/stake.sol:StakingRewards",
						"label": "_status",
						"offset": 0,
						"slot": "2",
						"type": "t_uint256"
					},
					{
						"astId": 192,
						"contract": "inviter_presell/stake.sol:StakingRewards",
						"label": "rewardsToken",
						"offset": 0,
						"slot": "3",
						"type": "t_contract(IERC20)1121"
					},
					{
						"astId": 196,
						"contract": "inviter_presell/stake.sol:StakingRewards",
						"label": "rewards",
						"offset": 0,
						"slot": "4",
						"type": "t_mapping(t_address,t_uint256)"
					},
					{
						"astId": 203,
						"contract": "inviter_presell/stake.sol:StakingRewards",
						"label": "totalRewards",
						"offset": 0,
						"slot": "5",
						"type": "t_uint256"
					},
					{
						"astId": 205,
						"contract": "inviter_presell/stake.sol:StakingRewards",
						"label": "startTime",
						"offset": 0,
						"slot": "6",
						"type": "t_uint256"
					},
					{
						"astId": 208,
						"contract": "inviter_presell/stake.sol:StakingRewards",
						"label": "rateInterval",
						"offset": 0,
						"slot": "7",
						"type": "t_uint256"
					},
					{
						"astId": 211,
						"contract": "inviter_presell/stake.sol:StakingRewards",
						"label": "rateIntervalNumerator",
						"offset": 0,
						"slot": "8",
						"type": "t_uint256"
					},
					{
						"astId": 214,
						"contract": "inviter_presell/stake.sol:StakingRewards",
						"label": "rateIntervalDenominator",
						"offset": 0,
						"slot": "9",
						"type": "t_uint256"
					},
					{
						"astId": 216,
						"contract": "inviter_presell/stake.sol:StakingRewards",
						"label": "lastUpdateTime",
						"offset": 0,
						"slot": "10",
						"type": "t_uint256"
					},
					{
						"astId": 218,
						"contract": "inviter_presell/stake.sol:StakingRewards",
						"label": "rewardPerTokenStored",
						"offset": 0,
						"slot": "11",
						"type": "t_uint256"
					},
					{
						"astId": 220,
						"contract": "inviter_presell/stake.sol:StakingRewards",
						"label": "_totalPowers",
						"offset": 0,
						"slot": "12",
						"type": "t_uint256"
					},
					{
						"astId": 224,
						"contract": "inviter_presell/stake.sol:StakingRewards",
						"label": "userRewardPerTokenPaid",
						"offset": 0,
						"slot": "13",
						"type": "t_mapping(t_address,t_uint256)"
					},
					{
						"astId": 228,
						"contract": "inviter_presell/stake.sol:StakingRewards",
						"label": "userLastUpdateTime",
						"offset": 0,
						"slot": "14",
						"type": "t_mapping(t_address,t_uint256)"
					},
					{
						"astId": 232,
						"contract": "inviter_presell/stake.sol:StakingRewards",
						"label": "_balances",
						"offset": 0,
						"slot": "15",
						"type": "t_mapping(t_address,t_uint256)"
					},
					{
						"astId": 236,
						"contract": "inviter_presell/stake.sol:StakingRewards",
						"label": "claimedBalances",
						"offset": 0,
						"slot": "16",
						"type": "t_mapping(t_address,t_uint256)"
					}
				],
				"types": {
					"t_address": {
						"encoding": "inplace",
						"label": "address",
						"numberOfBytes": "20"
					},
					"t_bool": {
						"encoding": "inplace",
						"label": "bool",
						"numberOfBytes": "1"
					},
					"t_contract(IERC20)1121": {
						"encoding": "inplace",
						"label": "contract IERC20",
						"numberOfBytes": "20"
					},
					"t_mapping(t_address,t_bool)": {
						"encoding": "mapping",
						"key": "t_address",
						"label": "mapping(address => bool)",
						"numberOfBytes": "32",
						"value": "t_bool"
					},
					"t_mapping(t_address,t_uint256)": {
						"encoding": "mapping",
						"key": "t_address",
						"label": "mapping(address => uint256)",
						"numberOfBytes": "32",
						"value": "t_uint256"
					},
					"t_uint256": {
						"encoding": "inplace",
						"label": "uint256",
						"numberOfBytes": "32"
					}
				}
			},
			"userdoc": {
				"kind": "user",
				"methods": {},
				"version": 1
			}
		}
	}
}