{
	"inviter_presell/stake.sol": {
		"StakingRewards": {
			"abi": [
				{
					"anonymous": false,
					"inputs": [
						{
							"indexed": true,
							"internalType": "address",
							"name": "admin",
							"type": "address"
						},
						{
							"indexed": false,
							"internalType": "bool",
							"name": "oldState",
							"type": "bool"
						},
						{
							"indexed": false,
							"internalType": "bool",
							"name": "newState",
							"type": "bool"
						}
					],
					"name": "ModificationAdmin",
					"type": "event"
				},
				{
					"anonymous": false,
					"inputs": [
						{
							"indexed": true,
							"internalType": "address",
							"name": "previousOwner",
							"type": "address"
						},
						{
							"indexed": true,
							"internalType": "address",
							"name": "newOwner",
							"type": "address"
						}
					],
					"name": "OwnershipTransferred",
					"type": "event"
				},
				{
					"anonymous": false,
					"inputs": [
						{
							"indexed": true,
							"internalType": "address",
							"name": "user",
							"type": "address"
						},
						{
							"indexed": false,
							"internalType": "uint256",
							"name": "reward",
							"type": "uint256"
						}
					],
					"name": "RewardPaid",
					"type": "event"
				},
				{
					"anonymous": false,
					"inputs": [
						{
							"indexed": true,
							"internalType": "address",
							"name": "user",
							"type": "address"
						},
						{
							"indexed": false,
							"internalType": "uint256",
							"name": "amount",
							"type": "uint256"
						}
					],
					"name": "Staked",
					"type": "event"
				},
				{
					"inputs": [],
					"name": "curTime",
					"outputs": [
						{
							"internalType": "uint256",
							"name": "",
							"type": "uint256"
						}
					],
					"stateMutability": "view",
					"type": "function"
				},
				{
					"inputs": [
						{
							"internalType": "address",
							"name": "account",
							"type": "address"
						}
					],
					"name": "earned",
					"outputs": [
						{
							"internalType": "uint256",
							"name": "",
							"type": "uint256"
						}
					],
					"stateMutability": "view",
					"type": "function"
				},
				{
					"inputs": [],
					"name": "getCurRewardPool",
					"outputs": [
						{
							"internalType": "uint256",
							"name": "",
							"type": "uint256"
						}
					],
					"stateMutability": "view",
					"type": "function"
				},
				{
					"inputs": [],
					"name": "getCurRewardRate",
					"outputs": [
						{
							"internalType": "uint256",
							"name": "",
							"type": "uint256"
						}
					],
					"stateMutability": "view",
					"type": "function"
				},
				{
					"inputs": [
						{
							"internalType": "uint256",
							"name": "time",
							"type": "uint256"
						}
					],
					"name": "getRemainPool",
					"outputs": [
						{
							"internalType": "uint256",
							"name": "",
							"type": "uint256"
						}
					],
					"stateMutability": "view",
					"type": "function"
				},
				{
					"inputs": [],
					"name": "getReward",
					"outputs": [],
					"stateMutability": "nonpayable",
					"type": "function"
				},
				{
					"inputs": [
						{
							"internalType": "uint256",
							"name": "time",
							"type": "uint256"
						}
					],
					"name": "getRewardPool",
					"outputs": [
						{
							"internalType": "uint256",
							"name": "",
							"type": "uint256"
						}
					],
					"stateMutability": "view",
					"type": "function"
				},
				{
					"inputs": [
						{
							"internalType": "uint256",
							"name": "leftTime",
							"type": "uint256"
						},
						{
							"internalType": "uint256",
							"name": "rightTime",
							"type": "uint256"
						}
					],
					"name": "getTimeWeightedAveRate",
					"outputs": [
						{
							"internalType": "uint256",
							"name": "",
							"type": "uint256"
						}
					],
					"stateMutability": "view",
					"type": "function"
				},
				{
					"inputs": [
						{
							"internalType": "address",
							"name": "account",
							"type": "address"
						}
					],
					"name": "isAdmin",
					"outputs": [
						{
							"internalType": "bool",
							"name": "",
							"type": "bool"
						}
					],
					"stateMutability": "view",
					"type": "function"
				},
				{
					"inputs": [],
					"name": "lastTimeRewardApplicable",
					"outputs": [
						{
							"internalType": "uint256",
							"name": "",
							"type": "uint256"
						}
					],
					"stateMutability": "view",
					"type": "function"
				},
				{
					"inputs": [],
					"name": "lastUpdateTime",
					"outputs": [
						{
							"internalType": "uint256",
							"name": "",
							"type": "uint256"
						}
					],
					"stateMutability": "view",
					"type": "function"
				},
				{
					"inputs": [
						{
							"internalType": "address",
							"name": "admin",
							"type": "address"
						},
						{
							"internalType": "bool",
							"name": "state",
							"type": "bool"
						}
					],
					"name": "modificationAdmin",
					"outputs": [],
					"stateMutability": "nonpayable",
					"type": "function"
				},
				{
					"inputs": [],
					"name": "owner",
					"outputs": [
						{
							"internalType": "address",
							"name": "",
							"type": "address"
						}
					],
					"stateMutability": "view",
					"type": "function"
				},
				{
					"inputs": [
						{
							"internalType": "address",
							"name": "account",
							"type": "address"
						}
					],
					"name": "powersOf",
					"outputs": [
						{
							"internalType": "uint256",
							"name": "",
							"type": "uint256"
						}
					],
					"stateMutability": "view",
					"type": "function"
				},
				{
					"inputs": [],
					"name": "rateInterval",
					"outputs": [
						{
							"internalType": "uint256",
							"name": "",
							"type": "uint256"
						}
					],
					"stateMutability": "view",
					"type": "function"
				},
				{
					"inputs": [],
					"name": "rateIntervalDenominator",
					"outputs": [
						{
							"internalType": "uint256",
							"name": "",
							"type": "uint256"
						}
					],
					"stateMutability": "view",
					"type": "function"
				},
				{
					"inputs": [],
					"name": "rateIntervalNumerator",
					"outputs": [
						{
							"internalType": "uint256",
							"name": "",
							"type": "uint256"
						}
					],
					"stateMutability": "view",
					"type": "function"
				},
				{
					"inputs": [],
					"name": "renounceOwnership",
					"outputs": [],
					"stateMutability": "nonpayable",
					"type": "function"
				},
				{
					"inputs": [
						{
							"internalType": "uint256",
							"name": "rewardRate",
							"type": "uint256"
						}
					],
					"name": "rewardPerToken",
					"outputs": [
						{
							"internalType": "uint256",
							"name": "",
							"type": "uint256"
						}
					],
					"stateMutability": "view",
					"type": "function"
				},
				{
					"inputs": [],
					"name": "rewardPerTokenStored",
					"outputs": [
						{
							"internalType": "uint256",
							"name": "",
							"type": "uint256"
						}
					],
					"stateMutability": "view",
					"type": "function"
				},
				{
					"inputs": [
						{
							"internalType": "address",
							"name": "",
							"type": "address"
						}
					],
					"name": "rewards",
					"outputs": [
						{
							"internalType": "uint256",
							"name": "",
							"type": "uint256"
						}
					],
					"stateMutability": "view",
					"type": "function"
				},
				{
					"inputs": [],
					"name": "rewardsToken",
					"outputs": [
						{
							"internalType": "contract IERC20",
							"name": "",
							"type": "address"
						}
					],
					"stateMutability": "view",
					"type": "function"
				},
				{
					"inputs": [
						{
							"internalType": "uint256",
							"name": "time",
							"type": "uint256"
						}
					],
					"name": "setStartTime",
					"outputs": [],
					"stateMutability": "nonpayable",
					"type": "function"
				},
				{
					"inputs": [
						{
							"internalType": "address",
							"name": "user",
							"type": "address"
						},
						{
							"internalType": "uint256",
							"name": "amount",
							"type": "uint256"
						}
					],
					"name": "stake",
					"outputs": [],
					"stateMutability": "nonpayable",
					"type": "function"
				},
				{
					"inputs": [],
					"name": "startTime",
					"outputs": [
						{
							"internalType": "uint256",
							"name": "",
							"type": "uint256"
						}
					],
					"stateMutability": "view",
					"type": "function"
				},
				{
					"inputs": [],
					"name": "totalPowers",
					"outputs": [
						{
							"internalType": "uint256",
							"name": "",
							"type": "uint256"
						}
					],
					"stateMutability": "view",
					"type": "function"
				},
				{
					"inputs": [],
					"name": "totalRewards",
					"outputs": [
						{
							"internalType": "uint256",
							"name": "",
							"type": "uint256"
						}
					],
					"stateMutability": "view",
					"type": "function"
				},
				{
					"inputs": [
						{
							"internalType": "address",
							"name": "newOwner",
							"type": "address"
						}
					],
					"name": "transferOwnership",
					"outputs": [],
					"stateMutability": "nonpayable",
					"type": "function"
				},
				{
					"inputs": [
						{
							"internalType": "address",
							"name": "",
							"type": "address"
						}
					],
					"name": "userLastUpdateTime",
					"outputs": [
						{
							"internalType": "uint256",
							"name": "",
							"type": "uint256"
						}
					],
					"stateMutability": "view",
					"type": "function"
				},
				{
					"inputs": [
						{
							"internalType": "address",
							"name": "",
							"type": "address"
						}
					],
					"name": "userRewardPerTokenPaid",
					"outputs": [
						{
							"internalType": "uint256",
							"name": "",
							"type": "uint256"
						}
					],
					"stateMutability": "view",
					"type": "function"
				}
			],
			"devdoc": {
				"kind": "dev",
				"methods": {},
				"version": 1
			},
			"evm": {
				"assembly": "    /* \"inviter_presell/stake.sol\":371:6422  contract StakingRewards is Adminable , ReentrancyGuard{... */\n  mstore(0x40, 0x80)\n    /* \"inviter_presell/stake.sol\":581:595  400 * 10 ** 18 */\n  0x15af1d78b58c400000\n    /* \"inviter_presell/stake.sol\":551:595  uint256 public totalRewards = 400 * 10 ** 18 */\n  0x05\n  sstore\n    /* \"inviter_presell/stake.sol\":663:672  1 minutes */\n  0x3c\n    /* \"inviter_presell/stake.sol\":633:672  uint256 public rateInterval = 1 minutes */\n  0x07\n  sstore\n    /* \"inviter_presell/stake.sol\":718:719  5 */\n  0x05\n    /* \"inviter_presell/stake.sol\":679:719  uint256 public rateIntervalNumerator = 5 */\n  0x08\n  sstore\n    /* \"inviter_presell/stake.sol\":767:771  1000 */\n  0x03e8\n    /* \"inviter_presell/stake.sol\":726:771  uint256 public rateIntervalDenominator = 1000 */\n  0x09\n  sstore\n    /* \"inviter_presell/stake.sol\":371:6422  contract StakingRewards is Adminable , ReentrancyGuard{... */\n  callvalue\n  dup1\n  iszero\n  tag_1\n  jumpi\n  0x00\n  dup1\n  revert\ntag_1:\n  pop\n    /* \"inviter_presell/adminable.sol\":603:635  _transferOwnership(_msgSender()) */\n  tag_5\n    /* \"inviter_presell/adminable.sol\":143:153  msg.sender */\n  caller\n    /* \"inviter_presell/adminable.sol\":603:621  _transferOwnership */\n  tag_8\n    /* \"inviter_presell/adminable.sol\":603:635  _transferOwnership(_msgSender()) */\n  jump\t// in\ntag_5:\n    /* \"node_modules/@openzeppelin/contracts/security/ReentrancyGuard.sol\":1734:1735  1 */\n  0x01\n    /* \"node_modules/@openzeppelin/contracts/security/ReentrancyGuard.sol\":1845:1852  _status */\n  0x02\n    /* \"node_modules/@openzeppelin/contracts/security/ReentrancyGuard.sol\":1845:1867  _status = _NOT_ENTERED */\n  sstore\n    /* \"inviter_presell/stake.sol\":371:6422  contract StakingRewards is Adminable , ReentrancyGuard{... */\n  jump(tag_10)\n    /* \"inviter_presell/adminable.sol\":1443:1634  function _transferOwnership(address newOwner) internal virtual {... */\ntag_8:\n    /* \"inviter_presell/adminable.sol\":1536:1542  _owner */\n  0x01\n  dup1\n  sload\n  sub(shl(0xa0, 0x01), 0x01)\n    /* \"inviter_presell/adminable.sol\":1553:1570  _owner = newOwner */\n  dup4\n  dup2\n  and\n  not(sub(shl(0xa0, 0x01), 0x01))\n  dup4\n  and\n  dup2\n  or\n  swap1\n  swap4\n  sstore\n    /* \"inviter_presell/adminable.sol\":1586:1626  OwnershipTransferred(oldOwner, newOwner) */\n  mload(0x40)\n    /* \"inviter_presell/adminable.sol\":1536:1542  _owner */\n  swap2\n  and\n  swap2\n    /* \"inviter_presell/adminable.sol\":1553:1570  _owner = newOwner */\n  swap1\n    /* \"inviter_presell/adminable.sol\":1536:1542  _owner */\n  dup3\n  swap1\n    /* \"inviter_presell/adminable.sol\":1586:1626  OwnershipTransferred(oldOwner, newOwner) */\n  0x8be0079c531659141344cd1fd0a4f28419497f9722a3daafe3b4186f6b6457e0\n  swap1\n    /* \"inviter_presell/adminable.sol\":1517:1533  address oldOwner */\n  0x00\n  swap1\n    /* \"inviter_presell/adminable.sol\":1586:1626  OwnershipTransferred(oldOwner, newOwner) */\n  log3\n    /* \"inviter_presell/adminable.sol\":1506:1634  {... */\n  pop\n    /* \"inviter_presell/adminable.sol\":1443:1634  function _transferOwnership(address newOwner) internal virtual {... */\n  pop\n  jump\t// out\n    /* \"inviter_presell/stake.sol\":371:6422  contract StakingRewards is Adminable , ReentrancyGuard{... */\ntag_10:\n  dataSize(sub_0)\n  dup1\n  dataOffset(sub_0)\n  0x00\n  codecopy\n  0x00\n  return\nstop\n\nsub_0: assembly {\n        /* \"inviter_presell/stake.sol\":371:6422  contract StakingRewards is Adminable , ReentrancyGuard{... */\n      mstore(0x40, 0x80)\n      callvalue\n      dup1\n      iszero\n      tag_1\n      jumpi\n      0x00\n      dup1\n      revert\n    tag_1:\n      pop\n      jumpi(tag_2, lt(calldatasize, 0x04))\n      shr(0xe0, calldataload(0x00))\n      dup1\n      0x80faa57d\n      gt\n      tag_33\n      jumpi\n      dup1\n      0xadc9772e\n      gt\n      tag_34\n      jumpi\n      dup1\n      0xd1af0c7d\n      gt\n      tag_35\n      jumpi\n      dup1\n      0xd1af0c7d\n      eq\n      tag_29\n      jumpi\n      dup1\n      0xda4f8431\n      eq\n      tag_30\n      jumpi\n      dup1\n      0xdf136d65\n      eq\n      tag_31\n      jumpi\n      dup1\n      0xf2fde38b\n      eq\n      tag_32\n      jumpi\n      0x00\n      dup1\n      revert\n    tag_35:\n      dup1\n      0xadc9772e\n      eq\n      tag_25\n      jumpi\n      dup1\n      0xb79ec812\n      eq\n      tag_26\n      jumpi\n      dup1\n      0xc8f33c91\n      eq\n      tag_27\n      jumpi\n      dup1\n      0xcdda56e0\n      eq\n      tag_28\n      jumpi\n      0x00\n      dup1\n      revert\n    tag_34:\n      dup1\n      0x8b876347\n      gt\n      tag_36\n      jumpi\n      dup1\n      0x8b876347\n      eq\n      tag_21\n      jumpi\n      dup1\n      0x8da5cb5b\n      eq\n      tag_22\n      jumpi\n      dup1\n      0x9499c549\n      eq\n      tag_23\n      jumpi\n      dup1\n      0x9a5b17b0\n      eq\n      tag_18\n      jumpi\n      0x00\n      dup1\n      revert\n    tag_36:\n      dup1\n      0x80faa57d\n      eq\n      tag_18\n      jumpi\n      dup1\n      0x8107368b\n      eq\n      tag_19\n      jumpi\n      dup1\n      0x874c120b\n      eq\n      tag_20\n      jumpi\n      0x00\n      dup1\n      revert\n    tag_33:\n      dup1\n      0x3e0a322d\n      gt\n      tag_37\n      jumpi\n      dup1\n      0x6917c501\n      gt\n      tag_38\n      jumpi\n      dup1\n      0x6917c501\n      eq\n      tag_14\n      jumpi\n      dup1\n      0x715018a6\n      eq\n      tag_15\n      jumpi\n      dup1\n      0x78e97925\n      eq\n      tag_16\n      jumpi\n      dup1\n      0x7a6fcee7\n      eq\n      tag_17\n      jumpi\n      0x00\n      dup1\n      revert\n    tag_38:\n      dup1\n      0x3e0a322d\n      eq\n      tag_10\n      jumpi\n      dup1\n      0x4dbdc4eb\n      eq\n      tag_11\n      jumpi\n      dup1\n      0x5cfa91f4\n      eq\n      tag_12\n      jumpi\n      dup1\n      0x6139d4b4\n      eq\n      tag_13\n      jumpi\n      0x00\n      dup1\n      revert\n    tag_37:\n      dup1\n      0x18e20ecf\n      gt\n      tag_39\n      jumpi\n      dup1\n      0x18e20ecf\n      eq\n      tag_6\n      jumpi\n      dup1\n      0x24d7806c\n      eq\n      tag_7\n      jumpi\n      dup1\n      0x3c4045cf\n      eq\n      tag_8\n      jumpi\n      dup1\n      0x3d18b912\n      eq\n      tag_9\n      jumpi\n      0x00\n      dup1\n      revert\n    tag_39:\n      dup1\n      0x8cc262\n      eq\n      tag_3\n      jumpi\n      dup1\n      0x0700037d\n      eq\n      tag_4\n      jumpi\n      dup1\n      0x0e15561a\n      eq\n      tag_5\n      jumpi\n    tag_2:\n      0x00\n      dup1\n      revert\n        /* \"inviter_presell/stake.sol\":3942:4238  function earned(address account) public view returns (uint256) {... */\n    tag_3:\n      tag_40\n      tag_41\n      calldatasize\n      0x04\n      tag_42\n      jump\t// in\n    tag_41:\n      tag_43\n      jump\t// in\n    tag_40:\n      mload(0x40)\n        /* \"#utility.yul\":529:554   */\n      swap1\n      dup2\n      mstore\n        /* \"#utility.yul\":517:519   */\n      0x20\n        /* \"#utility.yul\":502:520   */\n      add\n        /* \"inviter_presell/stake.sol\":3942:4238  function earned(address account) public view returns (uint256) {... */\n    tag_44:\n      mload(0x40)\n      dup1\n      swap2\n      sub\n      swap1\n      return\n        /* \"inviter_presell/stake.sol\":500:542  mapping(address => uint256) public rewards */\n    tag_4:\n      tag_40\n      tag_47\n      calldatasize\n      0x04\n      tag_42\n      jump\t// in\n    tag_47:\n      mstore(0x20, 0x04)\n      0x00\n      swap1\n      dup2\n      mstore\n      0x40\n      swap1\n      keccak256\n      sload\n      dup2\n      jump\n        /* \"inviter_presell/stake.sol\":551:595  uint256 public totalRewards = 400 * 10 ** 18 */\n    tag_5:\n      tag_40\n      sload(0x05)\n      dup2\n      jump\n        /* \"inviter_presell/adminable.sol\":1642:1826  function modificationAdmin(address admin, bool state) public virtual onlyOwner {... */\n    tag_6:\n      tag_53\n      tag_54\n      calldatasize\n      0x04\n      tag_55\n      jump\t// in\n    tag_54:\n      tag_56\n      jump\t// in\n    tag_53:\n      stop\n        /* \"inviter_presell/adminable.sol\":1004:1115  function isAdmin(address account) public view virtual returns (bool) {... */\n    tag_7:\n      tag_57\n      tag_58\n      calldatasize\n      0x04\n      tag_42\n      jump\t// in\n    tag_58:\n      sub(shl(0xa0, 0x01), 0x01)\n        /* \"inviter_presell/adminable.sol\":1091:1107  _admins[account] */\n      and\n        /* \"inviter_presell/adminable.sol\":1067:1071  bool */\n      0x00\n        /* \"inviter_presell/adminable.sol\":1091:1107  _admins[account] */\n      swap1\n      dup2\n      mstore\n      0x20\n      dup2\n      swap1\n      mstore\n      0x40\n      swap1\n      keccak256\n      sload\n      0xff\n      and\n      swap1\n        /* \"inviter_presell/adminable.sol\":1004:1115  function isAdmin(address account) public view virtual returns (bool) {... */\n      jump\n    tag_57:\n      mload(0x40)\n        /* \"#utility.yul\":1173:1187   */\n      swap1\n      iszero\n        /* \"#utility.yul\":1166:1188   */\n      iszero\n        /* \"#utility.yul\":1148:1189   */\n      dup2\n      mstore\n        /* \"#utility.yul\":1136:1138   */\n      0x20\n        /* \"#utility.yul\":1121:1139   */\n      add\n        /* \"inviter_presell/adminable.sol\":1004:1115  function isAdmin(address account) public view virtual returns (bool) {... */\n      tag_44\n        /* \"#utility.yul\":1008:1195   */\n      jump\n        /* \"inviter_presell/stake.sol\":679:719  uint256 public rateIntervalNumerator = 5 */\n    tag_8:\n      tag_40\n      sload(0x08)\n      dup2\n      jump\n        /* \"inviter_presell/stake.sol\":5986:6289  function getReward() public nonReentrant updateReward(msg.sender) {... */\n    tag_9:\n      tag_53\n      tag_66\n      jump\t// in\n        /* \"inviter_presell/stake.sol\":1678:1766  function setStartTime(uint256 time) public onlyAdmin {... */\n    tag_10:\n      tag_53\n      tag_68\n      calldatasize\n      0x04\n      tag_69\n      jump\t// in\n    tag_68:\n      tag_70\n      jump\t// in\n        /* \"inviter_presell/stake.sol\":2692:3108  function getRemainPool(uint256 time) public view returns (uint256) {... */\n    tag_11:\n      tag_40\n      tag_72\n      calldatasize\n      0x04\n      tag_69\n      jump\t// in\n    tag_72:\n      tag_73\n      jump\t// in\n        /* \"inviter_presell/stake.sol\":2218:2684  function getRewardPool(uint256 time) public view returns (uint256) {... */\n    tag_12:\n      tag_40\n      tag_76\n      calldatasize\n      0x04\n      tag_69\n      jump\t// in\n    tag_76:\n      tag_77\n      jump\t// in\n        /* \"inviter_presell/stake.sol\":633:672  uint256 public rateInterval = 1 minutes */\n    tag_13:\n      tag_40\n      sload(0x07)\n      dup2\n      jump\n        /* \"inviter_presell/stake.sol\":1774:1867  function totalPowers() external view returns (uint256) {... */\n    tag_14:\n        /* \"inviter_presell/stake.sol\":1847:1859  _totalPowers */\n      sload(0x0e)\n        /* \"inviter_presell/stake.sol\":1774:1867  function totalPowers() external view returns (uint256) {... */\n      jump(tag_40)\n        /* \"inviter_presell/adminable.sol\":1123:1226  function renounceOwnership() public virtual onlyOwner {... */\n    tag_15:\n      tag_53\n      tag_86\n      jump\t// in\n        /* \"inviter_presell/stake.sol\":602:626  uint256 public startTime */\n    tag_16:\n      tag_40\n      sload(0x06)\n      dup2\n      jump\n        /* \"inviter_presell/stake.sol\":726:771  uint256 public rateIntervalDenominator = 1000 */\n    tag_17:\n      tag_40\n      sload(0x09)\n      dup2\n      jump\n        /* \"inviter_presell/stake.sol\":3471:3578  function lastTimeRewardApplicable() public view returns (uint256) {... */\n    tag_18:\n        /* \"inviter_presell/stake.sol\":3555:3570  block.timestamp */\n      timestamp\n        /* \"inviter_presell/stake.sol\":3471:3578  function lastTimeRewardApplicable() public view returns (uint256) {... */\n      jump(tag_40)\n        /* \"inviter_presell/stake.sol\":922:975  mapping(address => uint256) public userLastUpdateTime */\n    tag_19:\n      tag_40\n      tag_97\n      calldatasize\n      0x04\n      tag_42\n      jump\t// in\n    tag_97:\n      mstore(0x20, 0x0d)\n      0x00\n      swap1\n      dup2\n      mstore\n      0x40\n      swap1\n      keccak256\n      sload\n      dup2\n      jump\n        /* \"inviter_presell/stake.sol\":3586:3934  function rewardPerToken(uint256 rewardRate) public view returns (uint256) {... */\n    tag_20:\n      tag_40\n      tag_101\n      calldatasize\n      0x04\n      tag_69\n      jump\t// in\n    tag_101:\n      tag_102\n      jump\t// in\n        /* \"inviter_presell/stake.sol\":858:915  mapping(address => uint256) public userRewardPerTokenPaid */\n    tag_21:\n      tag_40\n      tag_105\n      calldatasize\n      0x04\n      tag_42\n      jump\t// in\n    tag_105:\n      mstore(0x20, 0x0c)\n      0x00\n      swap1\n      dup2\n      mstore\n      0x40\n      swap1\n      keccak256\n      sload\n      dup2\n      jump\n        /* \"inviter_presell/adminable.sol\":909:996  function owner() public view virtual returns (address) {... */\n    tag_22:\n        /* \"inviter_presell/adminable.sol\":982:988  _owner */\n      and(sub(shl(0xa0, 0x01), 0x01), sload(0x01))\n        /* \"inviter_presell/adminable.sol\":909:996  function owner() public view virtual returns (address) {... */\n    tag_108:\n      mload(0x40)\n      sub(shl(0xa0, 0x01), 0x01)\n        /* \"#utility.yul\":1549:1581   */\n      swap1\n      swap2\n      and\n        /* \"#utility.yul\":1531:1582   */\n      dup2\n      mstore\n        /* \"#utility.yul\":1519:1521   */\n      0x20\n        /* \"#utility.yul\":1504:1522   */\n      add\n        /* \"inviter_presell/adminable.sol\":909:996  function owner() public view virtual returns (address) {... */\n      tag_44\n        /* \"#utility.yul\":1385:1588   */\n      jump\n        /* \"inviter_presell/stake.sol\":2096:2210  function getCurRewardPool() public view returns (uint256) {... */\n    tag_23:\n      tag_40\n      tag_113\n      jump\t// in\n        /* \"inviter_presell/stake.sol\":5674:5974  function stake(address user, uint256 amount) external nonReentrant onlyAdmin updateReward(msg.sender) {... */\n    tag_25:\n      tag_53\n      tag_119\n      calldatasize\n      0x04\n      tag_120\n      jump\t// in\n    tag_119:\n      tag_121\n      jump\t// in\n        /* \"inviter_presell/stake.sol\":1977:2088  function powersOf(address account) external view returns (uint256) {... */\n    tag_26:\n      tag_40\n      tag_123\n      calldatasize\n      0x04\n      tag_42\n      jump\t// in\n    tag_123:\n      sub(shl(0xa0, 0x01), 0x01)\n        /* \"inviter_presell/stake.sol\":2062:2080  _balances[account] */\n      and\n        /* \"inviter_presell/stake.sol\":2035:2042  uint256 */\n      0x00\n        /* \"inviter_presell/stake.sol\":2062:2080  _balances[account] */\n      swap1\n      dup2\n      mstore\n        /* \"inviter_presell/stake.sol\":2062:2071  _balances */\n      0x0f\n        /* \"inviter_presell/stake.sol\":2062:2080  _balances[account] */\n      0x20\n      mstore\n      0x40\n      swap1\n      keccak256\n      sload\n      swap1\n        /* \"inviter_presell/stake.sol\":1977:2088  function powersOf(address account) external view returns (uint256) {... */\n      jump\n        /* \"inviter_presell/stake.sol\":778:807  uint256 public lastUpdateTime */\n    tag_27:\n      tag_40\n      sload(0x0a)\n      dup2\n      jump\n        /* \"inviter_presell/stake.sol\":3116:3231  function getCurRewardRate() public view returns (uint256) {... */\n    tag_28:\n      tag_40\n      tag_130\n      jump\t// in\n        /* \"inviter_presell/stake.sol\":467:493  IERC20 public rewardsToken */\n    tag_29:\n      sload(0x03)\n      tag_108\n      swap1\n      sub(shl(0xa0, 0x01), 0x01)\n      and\n      dup2\n      jump\n        /* \"inviter_presell/stake.sol\":4281:5664  function getTimeWeightedAveRate(uint256 leftTime, uint256 rightTime) public view returns (uint256){... */\n    tag_30:\n      tag_40\n      tag_137\n      calldatasize\n      0x04\n      tag_138\n      jump\t// in\n    tag_137:\n      tag_139\n      jump\t// in\n        /* \"inviter_presell/stake.sol\":814:849  uint256 public rewardPerTokenStored */\n    tag_31:\n      tag_40\n      sload(0x0b)\n      dup2\n      jump\n        /* \"inviter_presell/adminable.sol\":1234:1435  function transferOwnership(address newOwner) public virtual onlyOwner {... */\n    tag_32:\n      tag_53\n      tag_145\n      calldatasize\n      0x04\n      tag_42\n      jump\t// in\n    tag_145:\n      tag_146\n      jump\t// in\n        /* \"inviter_presell/stake.sol\":3942:4238  function earned(address account) public view returns (uint256) {... */\n    tag_43:\n      sub(shl(0xa0, 0x01), 0x01)\n        /* \"inviter_presell/stake.sol\":4054:4081  userLastUpdateTime[account] */\n      dup2\n      and\n        /* \"inviter_presell/stake.sol\":3996:4003  uint256 */\n      0x00\n        /* \"inviter_presell/stake.sol\":4054:4081  userLastUpdateTime[account] */\n      swap1\n      dup2\n      mstore\n        /* \"inviter_presell/stake.sol\":4054:4072  userLastUpdateTime */\n      0x0d\n        /* \"inviter_presell/stake.sol\":4054:4081  userLastUpdateTime[account] */\n      0x20\n      mstore\n      0x40\n      dup2\n      keccak256\n      sload\n        /* \"inviter_presell/stake.sol\":3996:4003  uint256 */\n      dup2\n      swap1\n        /* \"inviter_presell/stake.sol\":4031:4099  getTimeWeightedAveRate(userLastUpdateTime[account], block.timestamp) */\n      tag_148\n      swap1\n        /* \"inviter_presell/stake.sol\":4083:4098  block.timestamp */\n      timestamp\n        /* \"inviter_presell/stake.sol\":4031:4053  getTimeWeightedAveRate */\n      tag_139\n        /* \"inviter_presell/stake.sol\":4031:4099  getTimeWeightedAveRate(userLastUpdateTime[account], block.timestamp) */\n      jump\t// in\n    tag_148:\n      sub(shl(0xa0, 0x01), 0x01)\n        /* \"inviter_presell/stake.sol\":4213:4229  rewards[account] */\n      dup5\n      and\n      0x00\n      swap1\n      dup2\n      mstore\n        /* \"inviter_presell/stake.sol\":4213:4220  rewards */\n      0x04\n        /* \"inviter_presell/stake.sol\":4213:4229  rewards[account] */\n      0x20\n      swap1\n      dup2\n      mstore\n      0x40\n      dup1\n      dup4\n      keccak256\n      sload\n        /* \"inviter_presell/stake.sol\":4165:4187  userRewardPerTokenPaid */\n      0x0c\n        /* \"inviter_presell/stake.sol\":4165:4196  userRewardPerTokenPaid[account] */\n      swap1\n      swap3\n      mstore\n      swap1\n      swap2\n      keccak256\n      sload\n        /* \"inviter_presell/stake.sol\":4016:4099  uint256 rate = getTimeWeightedAveRate(userLastUpdateTime[account], block.timestamp) */\n      swap2\n      swap3\n      pop\n        /* \"inviter_presell/stake.sol\":4117:4230  _balances[account].mul(rewardPerToken(rate).sub(userRewardPerTokenPaid[account])).div(1e18).add(rewards[account]) */\n      tag_149\n      swap2\n        /* \"inviter_presell/stake.sol\":4117:4208  _balances[account].mul(rewardPerToken(rate).sub(userRewardPerTokenPaid[account])).div(1e18) */\n      tag_150\n      swap1\n        /* \"inviter_presell/stake.sol\":4203:4207  1e18 */\n      0x0de0b6b3a7640000\n      swap1\n        /* \"inviter_presell/stake.sol\":4117:4198  _balances[account].mul(rewardPerToken(rate).sub(userRewardPerTokenPaid[account])) */\n      tag_151\n      swap1\n        /* \"inviter_presell/stake.sol\":4140:4197  rewardPerToken(rate).sub(userRewardPerTokenPaid[account]) */\n      tag_152\n      swap1\n        /* \"inviter_presell/stake.sol\":4140:4160  rewardPerToken(rate) */\n      tag_153\n        /* \"inviter_presell/stake.sol\":4016:4099  uint256 rate = getTimeWeightedAveRate(userLastUpdateTime[account], block.timestamp) */\n      dup9\n        /* \"inviter_presell/stake.sol\":4140:4154  rewardPerToken */\n      tag_102\n        /* \"inviter_presell/stake.sol\":4140:4160  rewardPerToken(rate) */\n      jump\t// in\n    tag_153:\n        /* \"inviter_presell/stake.sol\":4140:4164  rewardPerToken(rate).sub */\n      swap1\n      tag_154\n        /* \"inviter_presell/stake.sol\":4140:4197  rewardPerToken(rate).sub(userRewardPerTokenPaid[account]) */\n      jump\t// in\n    tag_152:\n      sub(shl(0xa0, 0x01), 0x01)\n        /* \"inviter_presell/stake.sol\":4117:4135  _balances[account] */\n      dup10\n      and\n      0x00\n      swap1\n      dup2\n      mstore\n        /* \"inviter_presell/stake.sol\":4117:4126  _balances */\n      0x0f\n        /* \"inviter_presell/stake.sol\":4117:4135  _balances[account] */\n      0x20\n      mstore\n      0x40\n      swap1\n      keccak256\n      sload\n      swap1\n        /* \"inviter_presell/stake.sol\":4117:4139  _balances[account].mul */\n      tag_155\n        /* \"inviter_presell/stake.sol\":4117:4198  _balances[account].mul(rewardPerToken(rate).sub(userRewardPerTokenPaid[account])) */\n      jump\t// in\n    tag_151:\n        /* \"inviter_presell/stake.sol\":4117:4202  _balances[account].mul(rewardPerToken(rate).sub(userRewardPerTokenPaid[account])).div */\n      swap1\n      tag_156\n        /* \"inviter_presell/stake.sol\":4117:4208  _balances[account].mul(rewardPerToken(rate).sub(userRewardPerTokenPaid[account])).div(1e18) */\n      jump\t// in\n    tag_150:\n        /* \"inviter_presell/stake.sol\":4117:4212  _balances[account].mul(rewardPerToken(rate).sub(userRewardPerTokenPaid[account])).div(1e18).add */\n      swap1\n      tag_157\n        /* \"inviter_presell/stake.sol\":4117:4230  _balances[account].mul(rewardPerToken(rate).sub(userRewardPerTokenPaid[account])).div(1e18).add(rewards[account]) */\n      jump\t// in\n    tag_149:\n        /* \"inviter_presell/stake.sol\":4110:4230  return _balances[account].mul(rewardPerToken(rate).sub(userRewardPerTokenPaid[account])).div(1e18).add(rewards[account]) */\n      swap4\n        /* \"inviter_presell/stake.sol\":3942:4238  function earned(address account) public view returns (uint256) {... */\n      swap3\n      pop\n      pop\n      pop\n      jump\t// out\n        /* \"inviter_presell/adminable.sol\":1642:1826  function modificationAdmin(address admin, bool state) public virtual onlyOwner {... */\n    tag_56:\n        /* \"inviter_presell/adminable.sol\":982:988  _owner */\n      and(sub(shl(0xa0, 0x01), 0x01), sload(0x01))\n        /* \"inviter_presell/adminable.sol\":143:153  msg.sender */\n      caller\n        /* \"inviter_presell/adminable.sol\":691:714  owner() == _msgSender() */\n      eq\n        /* \"inviter_presell/adminable.sol\":683:753  require(owner() == _msgSender(), \"Adminable: caller is not the owner\") */\n      tag_162\n      jumpi\n      mload(0x40)\n      shl(0xe5, 0x461bcd)\n      dup2\n      mstore\n      0x04\n      add\n      tag_163\n      swap1\n      tag_164\n      jump\t// in\n    tag_163:\n      mload(0x40)\n      dup1\n      swap2\n      sub\n      swap1\n      revert\n    tag_162:\n      sub(shl(0xa0, 0x01), 0x01)\n        /* \"inviter_presell/adminable.sol\":1737:1785  ModificationAdmin(admin,  _admins[admin], state) */\n      dup3\n      and\n        /* \"inviter_presell/adminable.sol\":1763:1770  _admins */\n      0x00\n        /* \"inviter_presell/adminable.sol\":1763:1777  _admins[admin] */\n      dup2\n      dup2\n      mstore\n      0x20\n      dup2\n      dup2\n      mstore\n      0x40\n      swap2\n      dup3\n      swap1\n      keccak256\n      sload\n        /* \"inviter_presell/adminable.sol\":1737:1785  ModificationAdmin(admin,  _admins[admin], state) */\n      dup3\n      mload\n        /* \"inviter_presell/adminable.sol\":1763:1777  _admins[admin] */\n      0xff\n      swap1\n      swap2\n      and\n        /* \"#utility.yul\":2917:2931   */\n      iszero\n        /* \"#utility.yul\":2910:2932   */\n      iszero\n        /* \"#utility.yul\":2892:2933   */\n      dup2\n      mstore\n        /* \"#utility.yul\":2976:2990   */\n      dup5\n      iszero\n        /* \"#utility.yul\":2969:2991   */\n      iszero\n        /* \"#utility.yul\":2949:2967   */\n      swap2\n      dup2\n      add\n        /* \"#utility.yul\":2942:2992   */\n      swap2\n      swap1\n      swap2\n      mstore\n        /* \"inviter_presell/adminable.sol\":1737:1785  ModificationAdmin(admin,  _admins[admin], state) */\n      0x82f1fa40a3d82dea3e406073819290601f436580aa7c69f9feb61f885bdd8854\n      swap2\n        /* \"#utility.yul\":2865:2883   */\n      add\n        /* \"inviter_presell/adminable.sol\":1737:1785  ModificationAdmin(admin,  _admins[admin], state) */\n      mload(0x40)\n      dup1\n      swap2\n      sub\n      swap1\n      log2\n      sub(shl(0xa0, 0x01), 0x01)\n        /* \"inviter_presell/adminable.sol\":1796:1810  _admins[admin] */\n      swap2\n      swap1\n      swap2\n      and\n        /* \"inviter_presell/adminable.sol\":1796:1803  _admins */\n      0x00\n        /* \"inviter_presell/adminable.sol\":1796:1810  _admins[admin] */\n      swap1\n      dup2\n      mstore\n      0x20\n      dup2\n      swap1\n      mstore\n      0x40\n      swap1\n      keccak256\n        /* \"inviter_presell/adminable.sol\":1796:1818  _admins[admin] = state */\n      dup1\n      sload\n      not(0xff)\n      and\n      swap2\n      iszero\n      iszero\n      swap2\n      swap1\n      swap2\n      or\n      swap1\n      sstore\n        /* \"inviter_presell/adminable.sol\":1642:1826  function modificationAdmin(address admin, bool state) public virtual onlyOwner {... */\n      jump\t// out\n        /* \"inviter_presell/stake.sol\":5986:6289  function getReward() public nonReentrant updateReward(msg.sender) {... */\n    tag_66:\n        /* \"node_modules/@openzeppelin/contracts/security/ReentrancyGuard.sol\":1778:1779  2 */\n      0x02\n        /* \"node_modules/@openzeppelin/contracts/security/ReentrancyGuard.sol\":2376:2383  _status */\n      dup1\n      sload\n        /* \"node_modules/@openzeppelin/contracts/security/ReentrancyGuard.sol\":2376:2395  _status != _ENTERED */\n      sub\n        /* \"node_modules/@openzeppelin/contracts/security/ReentrancyGuard.sol\":2368:2431  require(_status != _ENTERED, \"ReentrancyGuard: reentrant call\") */\n      tag_170\n      jumpi\n      mload(0x40)\n      shl(0xe5, 0x461bcd)\n      dup2\n      mstore\n        /* \"#utility.yul\":3205:3207   */\n      0x20\n        /* \"node_modules/@openzeppelin/contracts/security/ReentrancyGuard.sol\":2368:2431  require(_status != _ENTERED, \"ReentrancyGuard: reentrant call\") */\n      0x04\n      dup3\n      add\n        /* \"#utility.yul\":3187:3208   */\n      mstore\n        /* \"#utility.yul\":3244:3246   */\n      0x1f\n        /* \"#utility.yul\":3224:3242   */\n      0x24\n      dup3\n      add\n        /* \"#utility.yul\":3217:3247   */\n      mstore\n        /* \"#utility.yul\":3283:3316   */\n      0x5265656e7472616e637947756172643a207265656e7472616e742063616c6c00\n        /* \"#utility.yul\":3263:3281   */\n      0x44\n      dup3\n      add\n        /* \"#utility.yul\":3256:3317   */\n      mstore\n        /* \"#utility.yul\":3334:3352   */\n      0x64\n      add\n        /* \"node_modules/@openzeppelin/contracts/security/ReentrancyGuard.sol\":2368:2431  require(_status != _ENTERED, \"ReentrancyGuard: reentrant call\") */\n      tag_163\n        /* \"#utility.yul\":3003:3358   */\n      jump\n        /* \"node_modules/@openzeppelin/contracts/security/ReentrancyGuard.sol\":2368:2431  require(_status != _ENTERED, \"ReentrancyGuard: reentrant call\") */\n    tag_170:\n        /* \"node_modules/@openzeppelin/contracts/security/ReentrancyGuard.sol\":1778:1779  2 */\n      0x02\n        /* \"node_modules/@openzeppelin/contracts/security/ReentrancyGuard.sol\":2509:2527  _status = _ENTERED */\n      dup1\n      sstore\n        /* \"inviter_presell/stake.sol\":6040:6050  msg.sender */\n      caller\n        /* \"inviter_presell/stake.sol\":1127:1139  uint256 time */\n      0x00\n        /* \"inviter_presell/stake.sol\":1142:1169  userLastUpdateTime[account] */\n      dup2\n      dup2\n      mstore\n        /* \"inviter_presell/stake.sol\":1142:1160  userLastUpdateTime */\n      0x0d\n        /* \"inviter_presell/stake.sol\":1142:1169  userLastUpdateTime[account] */\n      0x20\n      mstore\n      0x40\n      swap1\n      keccak256\n      sload\n        /* \"inviter_presell/stake.sol\":1191:1200  startTime */\n      sload(0x06)\n        /* \"inviter_presell/stake.sol\":1183:1200  time <= startTime */\n      dup2\n      gt\n        /* \"inviter_presell/stake.sol\":1180:1245  if(time <= startTime) {... */\n      tag_174\n      jumpi\n      pop\n        /* \"inviter_presell/stake.sol\":1224:1233  startTime */\n      sload(0x06)\n        /* \"inviter_presell/stake.sol\":1180:1245  if(time <= startTime) {... */\n    tag_174:\n        /* \"inviter_presell/stake.sol\":1255:1267  uint256 rate */\n      0x00\n        /* \"inviter_presell/stake.sol\":1270:1315  getTimeWeightedAveRate(time, block.timestamp) */\n      tag_175\n        /* \"inviter_presell/stake.sol\":1293:1297  time */\n      dup3\n        /* \"inviter_presell/stake.sol\":1299:1314  block.timestamp */\n      timestamp\n        /* \"inviter_presell/stake.sol\":1270:1292  getTimeWeightedAveRate */\n      tag_139\n        /* \"inviter_presell/stake.sol\":1270:1315  getTimeWeightedAveRate(time, block.timestamp) */\n      jump\t// in\n    tag_175:\n        /* \"inviter_presell/stake.sol\":1255:1315  uint256 rate = getTimeWeightedAveRate(time, block.timestamp) */\n      swap1\n      pop\n        /* \"inviter_presell/stake.sol\":1349:1369  rewardPerToken(rate) */\n      tag_176\n        /* \"inviter_presell/stake.sol\":1364:1368  rate */\n      dup2\n        /* \"inviter_presell/stake.sol\":1349:1363  rewardPerToken */\n      tag_102\n        /* \"inviter_presell/stake.sol\":1349:1369  rewardPerToken(rate) */\n      jump\t// in\n    tag_176:\n        /* \"inviter_presell/stake.sol\":1326:1346  rewardPerTokenStored */\n      0x0b\n        /* \"inviter_presell/stake.sol\":1326:1369  rewardPerTokenStored = rewardPerToken(rate) */\n      sstore\n        /* \"inviter_presell/stake.sol\":3555:3570  block.timestamp */\n      timestamp\n        /* \"inviter_presell/stake.sol\":1380:1394  lastUpdateTime */\n      0x0a\n        /* \"inviter_presell/stake.sol\":1380:1423  lastUpdateTime = lastTimeRewardApplicable() */\n      sstore\n      sub(shl(0xa0, 0x01), 0x01)\n        /* \"inviter_presell/stake.sol\":1438:1459  account != address(0) */\n      dup4\n      and\n      iszero\n        /* \"inviter_presell/stake.sol\":1434:1651  if (account != address(0)) {... */\n      tag_178\n      jumpi\n        /* \"inviter_presell/stake.sol\":1495:1510  earned(account) */\n      tag_179\n        /* \"inviter_presell/stake.sol\":1502:1509  account */\n      dup4\n        /* \"inviter_presell/stake.sol\":1495:1501  earned */\n      tag_43\n        /* \"inviter_presell/stake.sol\":1495:1510  earned(account) */\n      jump\t// in\n    tag_179:\n      sub(shl(0xa0, 0x01), 0x01)\n        /* \"inviter_presell/stake.sol\":1476:1492  rewards[account] */\n      dup5\n      and\n      0x00\n      swap1\n      dup2\n      mstore\n        /* \"inviter_presell/stake.sol\":1476:1483  rewards */\n      0x04\n        /* \"inviter_presell/stake.sol\":1476:1492  rewards[account] */\n      0x20\n      swap1\n      dup2\n      mstore\n      0x40\n      dup1\n      dup4\n      keccak256\n        /* \"inviter_presell/stake.sol\":1476:1510  rewards[account] = earned(account) */\n      swap4\n      swap1\n      swap4\n      sstore\n        /* \"inviter_presell/stake.sol\":1559:1579  rewardPerTokenStored */\n      sload(0x0b)\n        /* \"inviter_presell/stake.sol\":1525:1547  userRewardPerTokenPaid */\n      0x0c\n        /* \"inviter_presell/stake.sol\":1525:1556  userRewardPerTokenPaid[account] */\n      dup3\n      mstore\n      dup4\n      dup4\n      keccak256\n        /* \"inviter_presell/stake.sol\":1525:1579  userRewardPerTokenPaid[account] = rewardPerTokenStored */\n      sstore\n        /* \"inviter_presell/stake.sol\":1594:1612  userLastUpdateTime */\n      0x0d\n        /* \"inviter_presell/stake.sol\":1594:1621  userLastUpdateTime[account] */\n      swap1\n      mstore\n      keccak256\n        /* \"inviter_presell/stake.sol\":1624:1639  block.timestamp */\n      timestamp\n        /* \"inviter_presell/stake.sol\":1594:1639  userLastUpdateTime[account] = block.timestamp */\n      swap1\n      sstore\n        /* \"inviter_presell/stake.sol\":1434:1651  if (account != address(0)) {... */\n    tag_178:\n        /* \"inviter_presell/stake.sol\":6088:6098  msg.sender */\n      caller\n        /* \"inviter_presell/stake.sol\":6063:6077  uint256 reward */\n      0x00\n        /* \"inviter_presell/stake.sol\":6080:6099  rewards[msg.sender] */\n      swap1\n      dup2\n      mstore\n        /* \"inviter_presell/stake.sol\":6080:6087  rewards */\n      0x04\n        /* \"inviter_presell/stake.sol\":6080:6099  rewards[msg.sender] */\n      0x20\n      mstore\n      0x40\n      swap1\n      keccak256\n      sload\n        /* \"inviter_presell/stake.sol\":6114:6124  reward > 0 */\n      dup1\n      iszero\n        /* \"inviter_presell/stake.sol\":6110:6282  if (reward > 0) {... */\n      tag_181\n      jumpi\n        /* \"inviter_presell/stake.sol\":6149:6159  msg.sender */\n      caller\n        /* \"inviter_presell/stake.sol\":6163:6164  0 */\n      0x00\n        /* \"inviter_presell/stake.sol\":6141:6160  rewards[msg.sender] */\n      dup2\n      dup2\n      mstore\n        /* \"inviter_presell/stake.sol\":6141:6148  rewards */\n      0x04\n        /* \"inviter_presell/stake.sol\":6141:6160  rewards[msg.sender] */\n      0x20\n      dup2\n      swap1\n      mstore\n      0x40\n      dup1\n      dup4\n      keccak256\n        /* \"inviter_presell/stake.sol\":6141:6164  rewards[msg.sender] = 0 */\n      swap3\n      swap1\n      swap3\n      sstore\n        /* \"inviter_presell/stake.sol\":6179:6191  rewardsToken */\n      sload(0x03)\n        /* \"inviter_presell/stake.sol\":6179:6220  rewardsToken.transfer(msg.sender, reward) */\n      swap2\n      mload\n      shl(0xe0, 0xa9059cbb)\n      dup2\n      mstore\n      swap1\n      dup2\n      add\n        /* \"#utility.yul\":3537:3588   */\n      swap3\n      swap1\n      swap3\n      mstore\n        /* \"#utility.yul\":3604:3622   */\n      0x24\n      dup3\n      add\n        /* \"#utility.yul\":3597:3631   */\n      dup4\n      swap1\n      mstore\n      sub(shl(0xa0, 0x01), 0x01)\n        /* \"inviter_presell/stake.sol\":6179:6191  rewardsToken */\n      and\n      swap1\n        /* \"inviter_presell/stake.sol\":6179:6200  rewardsToken.transfer */\n      0xa9059cbb\n      swap1\n        /* \"#utility.yul\":3510:3528   */\n      0x44\n      add\n        /* \"inviter_presell/stake.sol\":6179:6220  rewardsToken.transfer(msg.sender, reward) */\n      0x20\n      mload(0x40)\n      dup1\n      dup4\n      sub\n      dup2\n      0x00\n      dup8\n      gas\n      call\n      iszero\n      dup1\n      iszero\n      tag_185\n      jumpi\n      returndatasize\n      0x00\n      dup1\n      returndatacopy\n      revert(0x00, returndatasize)\n    tag_185:\n      pop\n      pop\n      pop\n      pop\n      mload(0x40)\n      returndatasize\n      not(0x1f)\n      0x1f\n      dup3\n      add\n      and\n      dup3\n      add\n      dup1\n      0x40\n      mstore\n      pop\n      dup2\n      add\n      swap1\n      tag_186\n      swap2\n      swap1\n      tag_187\n      jump\t// in\n    tag_186:\n      pop\n        /* \"inviter_presell/stake.sol\":6240:6270  RewardPaid(msg.sender, reward) */\n      mload(0x40)\n        /* \"#utility.yul\":529:554   */\n      dup2\n      dup2\n      mstore\n        /* \"inviter_presell/stake.sol\":6251:6261  msg.sender */\n      caller\n      swap1\n        /* \"inviter_presell/stake.sol\":6240:6270  RewardPaid(msg.sender, reward) */\n      0xe2403640ba68fed3a2f88b7557551d1993f84b99bb10ff833f0cf8db0c5e0486\n      swap1\n        /* \"#utility.yul\":517:519   */\n      0x20\n        /* \"#utility.yul\":502:520   */\n      add\n        /* \"inviter_presell/stake.sol\":6240:6270  RewardPaid(msg.sender, reward) */\n      mload(0x40)\n      dup1\n      swap2\n      sub\n      swap1\n      log2\n        /* \"inviter_presell/stake.sol\":6110:6282  if (reward > 0) {... */\n    tag_181:\n      pop\n      pop\n        /* \"node_modules/@openzeppelin/contracts/security/ReentrancyGuard.sol\":1734:1735  1 */\n      0x01\n        /* \"node_modules/@openzeppelin/contracts/security/ReentrancyGuard.sol\":2688:2695  _status */\n      0x02\n        /* \"node_modules/@openzeppelin/contracts/security/ReentrancyGuard.sol\":2688:2710  _status = _NOT_ENTERED */\n      sstore\n      pop\n      pop\n        /* \"inviter_presell/stake.sol\":5986:6289  function getReward() public nonReentrant updateReward(msg.sender) {... */\n      jump\t// out\n        /* \"inviter_presell/stake.sol\":1678:1766  function setStartTime(uint256 time) public onlyAdmin {... */\n    tag_70:\n        /* \"inviter_presell/adminable.sol\":821:842  isAdmin(_msgSender()) */\n      tag_190\n        /* \"inviter_presell/adminable.sol\":143:153  msg.sender */\n      caller\n        /* \"inviter_presell/adminable.sol\":829:841  _msgSender() */\n      tag_58\n        /* \"inviter_presell/adminable.sol\":63:161  function _msgSender() internal view virtual returns (address) {... */\n      jump\n        /* \"inviter_presell/adminable.sol\":821:842  isAdmin(_msgSender()) */\n    tag_190:\n        /* \"inviter_presell/adminable.sol\":813:881  require(isAdmin(_msgSender()), \"Adminable: caller is not the admin\") */\n      tag_192\n      jumpi\n      mload(0x40)\n      shl(0xe5, 0x461bcd)\n      dup2\n      mstore\n      0x04\n      add\n      tag_163\n      swap1\n      tag_194\n      jump\t// in\n    tag_192:\n        /* \"inviter_presell/stake.sol\":1742:1751  startTime */\n      0x06\n        /* \"inviter_presell/stake.sol\":1742:1758  startTime = time */\n      sstore\n        /* \"inviter_presell/stake.sol\":1678:1766  function setStartTime(uint256 time) public onlyAdmin {... */\n      jump\t// out\n        /* \"inviter_presell/stake.sol\":2692:3108  function getRemainPool(uint256 time) public view returns (uint256) {... */\n    tag_73:\n        /* \"inviter_presell/stake.sol\":2750:2757  uint256 */\n      0x00\n        /* \"inviter_presell/stake.sol\":2773:2782  startTime */\n      sload(0x06)\n        /* \"inviter_presell/stake.sol\":2786:2787  0 */\n      0x00\n        /* \"inviter_presell/stake.sol\":2773:2787  startTime == 0 */\n      sub\n        /* \"inviter_presell/stake.sol\":2770:2832  if(startTime == 0) {... */\n      tag_197\n      jumpi\n      pop\n      pop\n        /* \"inviter_presell/stake.sol\":2811:2820  startTime */\n      sload(0x06)\n      swap1\n        /* \"inviter_presell/stake.sol\":2692:3108  function getRemainPool(uint256 time) public view returns (uint256) {... */\n      jump\t// out\n        /* \"inviter_presell/stake.sol\":2770:2832  if(startTime == 0) {... */\n    tag_197:\n        /* \"inviter_presell/stake.sol\":2842:2855  uint256 times */\n      0x00\n        /* \"inviter_presell/stake.sol\":2879:2891  rateInterval */\n      sload(0x07)\n        /* \"inviter_presell/stake.sol\":2866:2875  startTime */\n      sload(0x06)\n        /* \"inviter_presell/stake.sol\":2859:2863  time */\n      dup5\n        /* \"inviter_presell/stake.sol\":2859:2875  time - startTime */\n      tag_198\n      swap2\n      swap1\n      tag_199\n      jump\t// in\n    tag_198:\n        /* \"inviter_presell/stake.sol\":2858:2891  (time - startTime) / rateInterval */\n      tag_200\n      swap2\n      swap1\n      tag_201\n      jump\t// in\n    tag_200:\n        /* \"inviter_presell/stake.sol\":2858:2895  (time - startTime) / rateInterval + 1 */\n      tag_202\n      swap1\n        /* \"inviter_presell/stake.sol\":2894:2895  1 */\n      0x01\n        /* \"inviter_presell/stake.sol\":2858:2895  (time - startTime) / rateInterval + 1 */\n      tag_203\n      jump\t// in\n    tag_202:\n        /* \"inviter_presell/stake.sol\":2922:2934  totalRewards */\n      sload(0x05)\n        /* \"inviter_presell/stake.sol\":2842:2895  uint256 times = (time - startTime) / rateInterval + 1 */\n      swap1\n      swap2\n      pop\n        /* \"inviter_presell/stake.sol\":2906:2919  uint256 value */\n      0x00\n        /* \"inviter_presell/stake.sol\":2945:3078  for(uint256 i = 0; i < times; ++i) {... */\n    tag_204:\n        /* \"inviter_presell/stake.sol\":2968:2973  times */\n      dup3\n        /* \"inviter_presell/stake.sol\":2964:2965  i */\n      dup2\n        /* \"inviter_presell/stake.sol\":2964:2973  i < times */\n      lt\n        /* \"inviter_presell/stake.sol\":2945:3078  for(uint256 i = 0; i < times; ++i) {... */\n      iszero\n      tag_205\n      jumpi\n        /* \"inviter_presell/stake.sol\":3043:3066  rateIntervalDenominator */\n      sload(0x09)\n        /* \"inviter_presell/stake.sol\":3019:3040  rateIntervalNumerator */\n      sload(0x08)\n        /* \"inviter_presell/stake.sol\":3011:3040  value * rateIntervalNumerator */\n      tag_207\n      swap1\n        /* \"inviter_presell/stake.sol\":3011:3016  value */\n      dup5\n        /* \"inviter_presell/stake.sol\":3011:3040  value * rateIntervalNumerator */\n      tag_208\n      jump\t// in\n    tag_207:\n        /* \"inviter_presell/stake.sol\":3011:3066  value * rateIntervalNumerator / rateIntervalDenominator */\n      tag_209\n      swap2\n      swap1\n      tag_201\n      jump\t// in\n    tag_209:\n        /* \"inviter_presell/stake.sol\":3003:3066  value - value * rateIntervalNumerator / rateIntervalDenominator */\n      tag_210\n      swap1\n        /* \"inviter_presell/stake.sol\":3003:3008  value */\n      dup4\n        /* \"inviter_presell/stake.sol\":3003:3066  value - value * rateIntervalNumerator / rateIntervalDenominator */\n      tag_199\n      jump\t// in\n    tag_210:\n        /* \"inviter_presell/stake.sol\":2995:3066  value = value - value * rateIntervalNumerator / rateIntervalDenominator */\n      swap2\n      pop\n        /* \"inviter_presell/stake.sol\":2975:2978  ++i */\n      tag_211\n      dup2\n      tag_212\n      jump\t// in\n    tag_211:\n      swap1\n      pop\n        /* \"inviter_presell/stake.sol\":2945:3078  for(uint256 i = 0; i < times; ++i) {... */\n      jump(tag_204)\n    tag_205:\n      pop\n        /* \"inviter_presell/stake.sol\":3095:3100  value */\n      swap4\n        /* \"inviter_presell/stake.sol\":2692:3108  function getRemainPool(uint256 time) public view returns (uint256) {... */\n      swap3\n      pop\n      pop\n      pop\n      jump\t// out\n        /* \"inviter_presell/stake.sol\":2218:2684  function getRewardPool(uint256 time) public view returns (uint256) {... */\n    tag_77:\n        /* \"inviter_presell/stake.sol\":2276:2283  uint256 */\n      0x00\n        /* \"inviter_presell/stake.sol\":2299:2308  startTime */\n      sload(0x06)\n        /* \"inviter_presell/stake.sol\":2312:2313  0 */\n      0x00\n        /* \"inviter_presell/stake.sol\":2299:2313  startTime == 0 */\n      sub\n        /* \"inviter_presell/stake.sol\":2296:2358  if(startTime == 0) {... */\n      tag_214\n      jumpi\n      pop\n      pop\n        /* \"inviter_presell/stake.sol\":2337:2346  startTime */\n      sload(0x06)\n      swap1\n        /* \"inviter_presell/stake.sol\":2218:2684  function getRewardPool(uint256 time) public view returns (uint256) {... */\n      jump\t// out\n        /* \"inviter_presell/stake.sol\":2296:2358  if(startTime == 0) {... */\n    tag_214:\n        /* \"inviter_presell/stake.sol\":2368:2381  uint256 times */\n      0x00\n        /* \"inviter_presell/stake.sol\":2405:2417  rateInterval */\n      sload(0x07)\n        /* \"inviter_presell/stake.sol\":2392:2401  startTime */\n      sload(0x06)\n        /* \"inviter_presell/stake.sol\":2385:2389  time */\n      dup5\n        /* \"inviter_presell/stake.sol\":2385:2401  time - startTime */\n      tag_215\n      swap2\n      swap1\n      tag_199\n      jump\t// in\n    tag_215:\n        /* \"inviter_presell/stake.sol\":2384:2417  (time - startTime) / rateInterval */\n      tag_216\n      swap2\n      swap1\n      tag_201\n      jump\t// in\n    tag_216:\n        /* \"inviter_presell/stake.sol\":2384:2421  (time - startTime) / rateInterval + 1 */\n      tag_217\n      swap1\n        /* \"inviter_presell/stake.sol\":2420:2421  1 */\n      0x01\n        /* \"inviter_presell/stake.sol\":2384:2421  (time - startTime) / rateInterval + 1 */\n      tag_203\n      jump\t// in\n    tag_217:\n        /* \"inviter_presell/stake.sol\":2448:2460  totalRewards */\n      sload(0x05)\n        /* \"inviter_presell/stake.sol\":2368:2421  uint256 times = (time - startTime) / rateInterval + 1 */\n      swap1\n      swap2\n      pop\n        /* \"inviter_presell/stake.sol\":2432:2445  uint256 value */\n      0x00\n        /* \"inviter_presell/stake.sol\":2471:2604  for(uint256 i = 0; i < times; ++i) {... */\n    tag_218:\n        /* \"inviter_presell/stake.sol\":2494:2499  times */\n      dup3\n        /* \"inviter_presell/stake.sol\":2490:2491  i */\n      dup2\n        /* \"inviter_presell/stake.sol\":2490:2499  i < times */\n      lt\n        /* \"inviter_presell/stake.sol\":2471:2604  for(uint256 i = 0; i < times; ++i) {... */\n      iszero\n      tag_219\n      jumpi\n        /* \"inviter_presell/stake.sol\":2569:2592  rateIntervalDenominator */\n      sload(0x09)\n        /* \"inviter_presell/stake.sol\":2545:2566  rateIntervalNumerator */\n      sload(0x08)\n        /* \"inviter_presell/stake.sol\":2537:2566  value * rateIntervalNumerator */\n      tag_221\n      swap1\n        /* \"inviter_presell/stake.sol\":2537:2542  value */\n      dup5\n        /* \"inviter_presell/stake.sol\":2537:2566  value * rateIntervalNumerator */\n      tag_208\n      jump\t// in\n    tag_221:\n        /* \"inviter_presell/stake.sol\":2537:2592  value * rateIntervalNumerator / rateIntervalDenominator */\n      tag_222\n      swap2\n      swap1\n      tag_201\n      jump\t// in\n    tag_222:\n        /* \"inviter_presell/stake.sol\":2529:2592  value - value * rateIntervalNumerator / rateIntervalDenominator */\n      tag_223\n      swap1\n        /* \"inviter_presell/stake.sol\":2529:2534  value */\n      dup4\n        /* \"inviter_presell/stake.sol\":2529:2592  value - value * rateIntervalNumerator / rateIntervalDenominator */\n      tag_199\n      jump\t// in\n    tag_223:\n        /* \"inviter_presell/stake.sol\":2521:2592  value = value - value * rateIntervalNumerator / rateIntervalDenominator */\n      swap2\n      pop\n        /* \"inviter_presell/stake.sol\":2501:2504  ++i */\n      tag_224\n      dup2\n      tag_212\n      jump\t// in\n    tag_224:\n      swap1\n      pop\n        /* \"inviter_presell/stake.sol\":2471:2604  for(uint256 i = 0; i < times; ++i) {... */\n      jump(tag_218)\n    tag_219:\n      pop\n        /* \"inviter_presell/stake.sol\":2653:2676  rateIntervalDenominator */\n      sload(0x09)\n        /* \"inviter_presell/stake.sol\":2629:2650  rateIntervalNumerator */\n      sload(0x08)\n        /* \"inviter_presell/stake.sol\":2621:2650  value * rateIntervalNumerator */\n      tag_225\n      swap1\n        /* \"inviter_presell/stake.sol\":2621:2626  value */\n      dup4\n        /* \"inviter_presell/stake.sol\":2621:2650  value * rateIntervalNumerator */\n      tag_208\n      jump\t// in\n    tag_225:\n        /* \"inviter_presell/stake.sol\":2621:2676  value * rateIntervalNumerator / rateIntervalDenominator */\n      tag_226\n      swap2\n      swap1\n      tag_201\n      jump\t// in\n    tag_226:\n        /* \"inviter_presell/stake.sol\":2614:2676  return value * rateIntervalNumerator / rateIntervalDenominator */\n      swap5\n        /* \"inviter_presell/stake.sol\":2218:2684  function getRewardPool(uint256 time) public view returns (uint256) {... */\n      swap4\n      pop\n      pop\n      pop\n      pop\n      jump\t// out\n        /* \"inviter_presell/adminable.sol\":1123:1226  function renounceOwnership() public virtual onlyOwner {... */\n    tag_86:\n        /* \"inviter_presell/adminable.sol\":982:988  _owner */\n      and(sub(shl(0xa0, 0x01), 0x01), sload(0x01))\n        /* \"inviter_presell/adminable.sol\":143:153  msg.sender */\n      caller\n        /* \"inviter_presell/adminable.sol\":691:714  owner() == _msgSender() */\n      eq\n        /* \"inviter_presell/adminable.sol\":683:753  require(owner() == _msgSender(), \"Adminable: caller is not the owner\") */\n      tag_231\n      jumpi\n      mload(0x40)\n      shl(0xe5, 0x461bcd)\n      dup2\n      mstore\n      0x04\n      add\n      tag_163\n      swap1\n      tag_164\n      jump\t// in\n    tag_231:\n        /* \"inviter_presell/adminable.sol\":1188:1218  _transferOwnership(address(0)) */\n      tag_234\n        /* \"inviter_presell/adminable.sol\":1215:1216  0 */\n      0x00\n        /* \"inviter_presell/adminable.sol\":1188:1206  _transferOwnership */\n      tag_235\n        /* \"inviter_presell/adminable.sol\":1188:1218  _transferOwnership(address(0)) */\n      jump\t// in\n    tag_234:\n        /* \"inviter_presell/adminable.sol\":1123:1226  function renounceOwnership() public virtual onlyOwner {... */\n      jump\t// out\n        /* \"inviter_presell/stake.sol\":3586:3934  function rewardPerToken(uint256 rewardRate) public view returns (uint256) {... */\n    tag_102:\n        /* \"inviter_presell/stake.sol\":3651:3658  uint256 */\n      0x00\n        /* \"inviter_presell/stake.sol\":3675:3687  _totalPowers */\n      sload(0x0e)\n        /* \"inviter_presell/stake.sol\":3691:3692  0 */\n      0x00\n        /* \"inviter_presell/stake.sol\":3675:3692  _totalPowers == 0 */\n      sub\n        /* \"inviter_presell/stake.sol\":3671:3748  if (_totalPowers == 0) {... */\n      tag_238\n      jumpi\n      pop\n      pop\n        /* \"inviter_presell/stake.sol\":3716:3736  rewardPerTokenStored */\n      sload(0x0b)\n      swap1\n        /* \"inviter_presell/stake.sol\":3586:3934  function rewardPerToken(uint256 rewardRate) public view returns (uint256) {... */\n      jump\t// out\n        /* \"inviter_presell/stake.sol\":3671:3748  if (_totalPowers == 0) {... */\n    tag_238:\n        /* \"inviter_presell/stake.sol\":3778:3926  rewardPerTokenStored.add(... */\n      tag_239\n        /* \"inviter_presell/stake.sol\":3821:3911  lastTimeRewardApplicable().sub(lastUpdateTime).mul(rewardRate).mul(1e18).div(_totalPowers) */\n      tag_240\n        /* \"inviter_presell/stake.sol\":3898:3910  _totalPowers */\n      sload(0x0e)\n        /* \"inviter_presell/stake.sol\":3821:3893  lastTimeRewardApplicable().sub(lastUpdateTime).mul(rewardRate).mul(1e18) */\n      tag_151\n        /* \"inviter_presell/stake.sol\":3888:3892  1e18 */\n      0x0de0b6b3a7640000\n        /* \"inviter_presell/stake.sol\":3821:3883  lastTimeRewardApplicable().sub(lastUpdateTime).mul(rewardRate) */\n      tag_243\n        /* \"inviter_presell/stake.sol\":3872:3882  rewardRate */\n      dup8\n        /* \"inviter_presell/stake.sol\":3821:3867  lastTimeRewardApplicable().sub(lastUpdateTime) */\n      tag_243\n        /* \"inviter_presell/stake.sol\":3852:3866  lastUpdateTime */\n      sload(0x0a)\n        /* \"inviter_presell/stake.sol\":3821:3847  lastTimeRewardApplicable() */\n      tag_153\n        /* \"inviter_presell/stake.sol\":3555:3570  block.timestamp */\n      timestamp\n      swap1\n        /* \"inviter_presell/stake.sol\":3471:3578  function lastTimeRewardApplicable() public view returns (uint256) {... */\n      jump\n        /* \"inviter_presell/stake.sol\":3821:3867  lastTimeRewardApplicable().sub(lastUpdateTime) */\n    tag_243:\n        /* \"inviter_presell/stake.sol\":3821:3871  lastTimeRewardApplicable().sub(lastUpdateTime).mul */\n      swap1\n      tag_155\n        /* \"inviter_presell/stake.sol\":3821:3883  lastTimeRewardApplicable().sub(lastUpdateTime).mul(rewardRate) */\n      jump\t// in\n        /* \"inviter_presell/stake.sol\":3821:3911  lastTimeRewardApplicable().sub(lastUpdateTime).mul(rewardRate).mul(1e18).div(_totalPowers) */\n    tag_240:\n        /* \"inviter_presell/stake.sol\":3778:3798  rewardPerTokenStored */\n      sload(0x0b)\n      swap1\n        /* \"inviter_presell/stake.sol\":3778:3802  rewardPerTokenStored.add */\n      tag_157\n        /* \"inviter_presell/stake.sol\":3778:3926  rewardPerTokenStored.add(... */\n      jump\t// in\n    tag_239:\n        /* \"inviter_presell/stake.sol\":3758:3926  return... */\n      swap3\n        /* \"inviter_presell/stake.sol\":3586:3934  function rewardPerToken(uint256 rewardRate) public view returns (uint256) {... */\n      swap2\n      pop\n      pop\n      jump\t// out\n        /* \"inviter_presell/stake.sol\":2096:2210  function getCurRewardPool() public view returns (uint256) {... */\n    tag_113:\n        /* \"inviter_presell/stake.sol\":2145:2152  uint256 */\n      0x00\n        /* \"inviter_presell/stake.sol\":2172:2202  getRewardPool(block.timestamp) */\n      tag_247\n        /* \"inviter_presell/stake.sol\":2186:2201  block.timestamp */\n      timestamp\n        /* \"inviter_presell/stake.sol\":2172:2185  getRewardPool */\n      tag_77\n        /* \"inviter_presell/stake.sol\":2172:2202  getRewardPool(block.timestamp) */\n      jump\t// in\n    tag_247:\n        /* \"inviter_presell/stake.sol\":2165:2202  return getRewardPool(block.timestamp) */\n      swap1\n      pop\n        /* \"inviter_presell/stake.sol\":2096:2210  function getCurRewardPool() public view returns (uint256) {... */\n      swap1\n      jump\t// out\n        /* \"inviter_presell/stake.sol\":5674:5974  function stake(address user, uint256 amount) external nonReentrant onlyAdmin updateReward(msg.sender) {... */\n    tag_121:\n        /* \"node_modules/@openzeppelin/contracts/security/ReentrancyGuard.sol\":1778:1779  2 */\n      0x02\n        /* \"node_modules/@openzeppelin/contracts/security/ReentrancyGuard.sol\":2376:2383  _status */\n      dup1\n      sload\n        /* \"node_modules/@openzeppelin/contracts/security/ReentrancyGuard.sol\":2376:2395  _status != _ENTERED */\n      sub\n        /* \"node_modules/@openzeppelin/contracts/security/ReentrancyGuard.sol\":2368:2431  require(_status != _ENTERED, \"ReentrancyGuard: reentrant call\") */\n      tag_250\n      jumpi\n      mload(0x40)\n      shl(0xe5, 0x461bcd)\n      dup2\n      mstore\n        /* \"#utility.yul\":3205:3207   */\n      0x20\n        /* \"node_modules/@openzeppelin/contracts/security/ReentrancyGuard.sol\":2368:2431  require(_status != _ENTERED, \"ReentrancyGuard: reentrant call\") */\n      0x04\n      dup3\n      add\n        /* \"#utility.yul\":3187:3208   */\n      mstore\n        /* \"#utility.yul\":3244:3246   */\n      0x1f\n        /* \"#utility.yul\":3224:3242   */\n      0x24\n      dup3\n      add\n        /* \"#utility.yul\":3217:3247   */\n      mstore\n        /* \"#utility.yul\":3283:3316   */\n      0x5265656e7472616e637947756172643a207265656e7472616e742063616c6c00\n        /* \"#utility.yul\":3263:3281   */\n      0x44\n      dup3\n      add\n        /* \"#utility.yul\":3256:3317   */\n      mstore\n        /* \"#utility.yul\":3334:3352   */\n      0x64\n      add\n        /* \"node_modules/@openzeppelin/contracts/security/ReentrancyGuard.sol\":2368:2431  require(_status != _ENTERED, \"ReentrancyGuard: reentrant call\") */\n      tag_163\n        /* \"#utility.yul\":3003:3358   */\n      jump\n        /* \"node_modules/@openzeppelin/contracts/security/ReentrancyGuard.sol\":2368:2431  require(_status != _ENTERED, \"ReentrancyGuard: reentrant call\") */\n    tag_250:\n        /* \"node_modules/@openzeppelin/contracts/security/ReentrancyGuard.sol\":1778:1779  2 */\n      0x02\n        /* \"node_modules/@openzeppelin/contracts/security/ReentrancyGuard.sol\":2509:2527  _status = _ENTERED */\n      dup1\n      sstore\n        /* \"inviter_presell/adminable.sol\":821:842  isAdmin(_msgSender()) */\n      tag_253\n        /* \"inviter_presell/adminable.sol\":143:153  msg.sender */\n      caller\n        /* \"inviter_presell/adminable.sol\":829:841  _msgSender() */\n      tag_58\n        /* \"inviter_presell/adminable.sol\":63:161  function _msgSender() internal view virtual returns (address) {... */\n      jump\n        /* \"inviter_presell/adminable.sol\":821:842  isAdmin(_msgSender()) */\n    tag_253:\n        /* \"inviter_presell/adminable.sol\":813:881  require(isAdmin(_msgSender()), \"Adminable: caller is not the admin\") */\n      tag_255\n      jumpi\n      mload(0x40)\n      shl(0xe5, 0x461bcd)\n      dup2\n      mstore\n      0x04\n      add\n      tag_163\n      swap1\n      tag_194\n      jump\t// in\n    tag_255:\n        /* \"inviter_presell/stake.sol\":5764:5774  msg.sender */\n      caller\n        /* \"inviter_presell/stake.sol\":1127:1139  uint256 time */\n      0x00\n        /* \"inviter_presell/stake.sol\":1142:1169  userLastUpdateTime[account] */\n      dup2\n      dup2\n      mstore\n        /* \"inviter_presell/stake.sol\":1142:1160  userLastUpdateTime */\n      0x0d\n        /* \"inviter_presell/stake.sol\":1142:1169  userLastUpdateTime[account] */\n      0x20\n      mstore\n      0x40\n      swap1\n      keccak256\n      sload\n        /* \"inviter_presell/stake.sol\":1191:1200  startTime */\n      sload(0x06)\n        /* \"inviter_presell/stake.sol\":1183:1200  time <= startTime */\n      dup2\n      gt\n        /* \"inviter_presell/stake.sol\":1180:1245  if(time <= startTime) {... */\n      tag_258\n      jumpi\n      pop\n        /* \"inviter_presell/stake.sol\":1224:1233  startTime */\n      sload(0x06)\n        /* \"inviter_presell/stake.sol\":1180:1245  if(time <= startTime) {... */\n    tag_258:\n        /* \"inviter_presell/stake.sol\":1255:1267  uint256 rate */\n      0x00\n        /* \"inviter_presell/stake.sol\":1270:1315  getTimeWeightedAveRate(time, block.timestamp) */\n      tag_259\n        /* \"inviter_presell/stake.sol\":1293:1297  time */\n      dup3\n        /* \"inviter_presell/stake.sol\":1299:1314  block.timestamp */\n      timestamp\n        /* \"inviter_presell/stake.sol\":1270:1292  getTimeWeightedAveRate */\n      tag_139\n        /* \"inviter_presell/stake.sol\":1270:1315  getTimeWeightedAveRate(time, block.timestamp) */\n      jump\t// in\n    tag_259:\n        /* \"inviter_presell/stake.sol\":1255:1315  uint256 rate = getTimeWeightedAveRate(time, block.timestamp) */\n      swap1\n      pop\n        /* \"inviter_presell/stake.sol\":1349:1369  rewardPerToken(rate) */\n      tag_260\n        /* \"inviter_presell/stake.sol\":1364:1368  rate */\n      dup2\n        /* \"inviter_presell/stake.sol\":1349:1363  rewardPerToken */\n      tag_102\n        /* \"inviter_presell/stake.sol\":1349:1369  rewardPerToken(rate) */\n      jump\t// in\n    tag_260:\n        /* \"inviter_presell/stake.sol\":1326:1346  rewardPerTokenStored */\n      0x0b\n        /* \"inviter_presell/stake.sol\":1326:1369  rewardPerTokenStored = rewardPerToken(rate) */\n      sstore\n        /* \"inviter_presell/stake.sol\":3555:3570  block.timestamp */\n      timestamp\n        /* \"inviter_presell/stake.sol\":1380:1394  lastUpdateTime */\n      0x0a\n        /* \"inviter_presell/stake.sol\":1380:1423  lastUpdateTime = lastTimeRewardApplicable() */\n      sstore\n      sub(shl(0xa0, 0x01), 0x01)\n        /* \"inviter_presell/stake.sol\":1438:1459  account != address(0) */\n      dup4\n      and\n      iszero\n        /* \"inviter_presell/stake.sol\":1434:1651  if (account != address(0)) {... */\n      tag_262\n      jumpi\n        /* \"inviter_presell/stake.sol\":1495:1510  earned(account) */\n      tag_263\n        /* \"inviter_presell/stake.sol\":1502:1509  account */\n      dup4\n        /* \"inviter_presell/stake.sol\":1495:1501  earned */\n      tag_43\n        /* \"inviter_presell/stake.sol\":1495:1510  earned(account) */\n      jump\t// in\n    tag_263:\n      sub(shl(0xa0, 0x01), 0x01)\n        /* \"inviter_presell/stake.sol\":1476:1492  rewards[account] */\n      dup5\n      and\n      0x00\n      swap1\n      dup2\n      mstore\n        /* \"inviter_presell/stake.sol\":1476:1483  rewards */\n      0x04\n        /* \"inviter_presell/stake.sol\":1476:1492  rewards[account] */\n      0x20\n      swap1\n      dup2\n      mstore\n      0x40\n      dup1\n      dup4\n      keccak256\n        /* \"inviter_presell/stake.sol\":1476:1510  rewards[account] = earned(account) */\n      swap4\n      swap1\n      swap4\n      sstore\n        /* \"inviter_presell/stake.sol\":1559:1579  rewardPerTokenStored */\n      sload(0x0b)\n        /* \"inviter_presell/stake.sol\":1525:1547  userRewardPerTokenPaid */\n      0x0c\n        /* \"inviter_presell/stake.sol\":1525:1556  userRewardPerTokenPaid[account] */\n      dup3\n      mstore\n      dup4\n      dup4\n      keccak256\n        /* \"inviter_presell/stake.sol\":1525:1579  userRewardPerTokenPaid[account] = rewardPerTokenStored */\n      sstore\n        /* \"inviter_presell/stake.sol\":1594:1612  userLastUpdateTime */\n      0x0d\n        /* \"inviter_presell/stake.sol\":1594:1621  userLastUpdateTime[account] */\n      swap1\n      mstore\n      keccak256\n        /* \"inviter_presell/stake.sol\":1624:1639  block.timestamp */\n      timestamp\n        /* \"inviter_presell/stake.sol\":1594:1639  userLastUpdateTime[account] = block.timestamp */\n      swap1\n      sstore\n        /* \"inviter_presell/stake.sol\":1434:1651  if (account != address(0)) {... */\n    tag_262:\n        /* \"inviter_presell/stake.sol\":5804:5805  0 */\n      0x00\n        /* \"inviter_presell/stake.sol\":5795:5801  amount */\n      dup5\n        /* \"inviter_presell/stake.sol\":5795:5805  amount > 0 */\n      gt\n        /* \"inviter_presell/stake.sol\":5787:5824  require(amount > 0, \"Cannot stake 0\") */\n      tag_265\n      jumpi\n      mload(0x40)\n      shl(0xe5, 0x461bcd)\n      dup2\n      mstore\n        /* \"#utility.yul\":5462:5464   */\n      0x20\n        /* \"inviter_presell/stake.sol\":5787:5824  require(amount > 0, \"Cannot stake 0\") */\n      0x04\n      dup3\n      add\n        /* \"#utility.yul\":5444:5465   */\n      mstore\n        /* \"#utility.yul\":5501:5503   */\n      0x0e\n        /* \"#utility.yul\":5481:5499   */\n      0x24\n      dup3\n      add\n        /* \"#utility.yul\":5474:5504   */\n      mstore\n      shl(0x94, 0x043616e6e6f74207374616b65203)\n        /* \"#utility.yul\":5520:5538   */\n      0x44\n      dup3\n      add\n        /* \"#utility.yul\":5513:5557   */\n      mstore\n        /* \"#utility.yul\":5574:5592   */\n      0x64\n      add\n        /* \"inviter_presell/stake.sol\":5787:5824  require(amount > 0, \"Cannot stake 0\") */\n      tag_163\n        /* \"#utility.yul\":5260:5598   */\n      jump\n        /* \"inviter_presell/stake.sol\":5787:5824  require(amount > 0, \"Cannot stake 0\") */\n    tag_265:\n        /* \"inviter_presell/stake.sol\":5850:5862  _totalPowers */\n      sload(0x0e)\n        /* \"inviter_presell/stake.sol\":5850:5874  _totalPowers.add(amount) */\n      tag_268\n      swap1\n        /* \"inviter_presell/stake.sol\":5867:5873  amount */\n      dup6\n        /* \"inviter_presell/stake.sol\":5850:5866  _totalPowers.add */\n      tag_157\n        /* \"inviter_presell/stake.sol\":5850:5874  _totalPowers.add(amount) */\n      jump\t// in\n    tag_268:\n        /* \"inviter_presell/stake.sol\":5835:5847  _totalPowers */\n      0x0e\n        /* \"inviter_presell/stake.sol\":5835:5874  _totalPowers = _totalPowers.add(amount) */\n      sstore\n      sub(shl(0xa0, 0x01), 0x01)\n        /* \"inviter_presell/stake.sol\":5903:5918  _balances[user] */\n      dup6\n      and\n      0x00\n      swap1\n      dup2\n      mstore\n        /* \"inviter_presell/stake.sol\":5903:5912  _balances */\n      0x0f\n        /* \"inviter_presell/stake.sol\":5903:5918  _balances[user] */\n      0x20\n      mstore\n      0x40\n      swap1\n      keccak256\n      sload\n        /* \"inviter_presell/stake.sol\":5903:5930  _balances[user].add(amount) */\n      tag_269\n      swap1\n        /* \"inviter_presell/stake.sol\":5923:5929  amount */\n      dup6\n        /* \"inviter_presell/stake.sol\":5903:5922  _balances[user].add */\n      tag_157\n        /* \"inviter_presell/stake.sol\":5903:5930  _balances[user].add(amount) */\n      jump\t// in\n    tag_269:\n      sub(shl(0xa0, 0x01), 0x01)\n        /* \"inviter_presell/stake.sol\":5885:5900  _balances[user] */\n      dup7\n      and\n      0x00\n      dup2\n      dup2\n      mstore\n        /* \"inviter_presell/stake.sol\":5885:5894  _balances */\n      0x0f\n        /* \"inviter_presell/stake.sol\":5885:5900  _balances[user] */\n      0x20\n      mstore\n      0x40\n      swap1\n      dup2\n      swap1\n      keccak256\n        /* \"inviter_presell/stake.sol\":5885:5930  _balances[user] = _balances[user].add(amount) */\n      swap3\n      swap1\n      swap3\n      sstore\n        /* \"inviter_presell/stake.sol\":5946:5966  Staked(user, amount) */\n      swap1\n      mload\n      0x9e71bc8eea02a63969f509818f2dafb9254532904319f9dbda79b67bd34a5f3d\n      swap1\n      tag_270\n      swap1\n        /* \"inviter_presell/stake.sol\":5959:5965  amount */\n      dup8\n        /* \"#utility.yul\":529:554   */\n      dup2\n      mstore\n        /* \"#utility.yul\":517:519   */\n      0x20\n        /* \"#utility.yul\":502:520   */\n      add\n      swap1\n        /* \"#utility.yul\":383:560   */\n      jump\n        /* \"inviter_presell/stake.sol\":5946:5966  Staked(user, amount) */\n    tag_270:\n      mload(0x40)\n      dup1\n      swap2\n      sub\n      swap1\n      log2\n      pop\n      pop\n        /* \"node_modules/@openzeppelin/contracts/security/ReentrancyGuard.sol\":1734:1735  1 */\n      0x01\n        /* \"node_modules/@openzeppelin/contracts/security/ReentrancyGuard.sol\":2688:2695  _status */\n      0x02\n        /* \"node_modules/@openzeppelin/contracts/security/ReentrancyGuard.sol\":2688:2710  _status = _NOT_ENTERED */\n      sstore\n      pop\n      pop\n      pop\n        /* \"inviter_presell/stake.sol\":5674:5974  function stake(address user, uint256 amount) external nonReentrant onlyAdmin updateReward(msg.sender) {... */\n      jump\t// out\n        /* \"inviter_presell/stake.sol\":3116:3231  function getCurRewardRate() public view returns (uint256) {... */\n    tag_130:\n        /* \"inviter_presell/stake.sol\":3165:3172  uint256 */\n      0x00\n        /* \"inviter_presell/stake.sol\":3192:3223  _getRewardRate(block.timestamp) */\n      tag_247\n        /* \"inviter_presell/stake.sol\":3207:3222  block.timestamp */\n      timestamp\n        /* \"inviter_presell/stake.sol\":3192:3206  _getRewardRate */\n      tag_274\n        /* \"inviter_presell/stake.sol\":3192:3223  _getRewardRate(block.timestamp) */\n      jump\t// in\n        /* \"inviter_presell/stake.sol\":4281:5664  function getTimeWeightedAveRate(uint256 leftTime, uint256 rightTime) public view returns (uint256){... */\n    tag_139:\n        /* \"inviter_presell/stake.sol\":4371:4378  uint256 */\n      0x00\n        /* \"inviter_presell/stake.sol\":4403:4412  startTime */\n      sload(0x06)\n        /* \"inviter_presell/stake.sol\":4416:4417  0 */\n      0x00\n        /* \"inviter_presell/stake.sol\":4403:4417  startTime == 0 */\n      eq\n        /* \"inviter_presell/stake.sol\":4403:4442  startTime == 0 || leftTime >= rightTime */\n      dup1\n      tag_276\n      jumpi\n      pop\n        /* \"inviter_presell/stake.sol\":4433:4442  rightTime */\n      dup2\n        /* \"inviter_presell/stake.sol\":4421:4429  leftTime */\n      dup4\n        /* \"inviter_presell/stake.sol\":4421:4442  leftTime >= rightTime */\n      lt\n      iszero\n        /* \"inviter_presell/stake.sol\":4403:4442  startTime == 0 || leftTime >= rightTime */\n    tag_276:\n        /* \"inviter_presell/stake.sol\":4403:4459  startTime == 0 || leftTime >= rightTime || leftTime == 0 */\n      dup1\n      tag_277\n      jumpi\n      pop\n        /* \"inviter_presell/stake.sol\":4446:4459  leftTime == 0 */\n      dup3\n      iszero\n        /* \"inviter_presell/stake.sol\":4403:4459  startTime == 0 || leftTime >= rightTime || leftTime == 0 */\n    tag_277:\n        /* \"inviter_presell/stake.sol\":4400:4496  if(startTime == 0 || leftTime >= rightTime || leftTime == 0) {... */\n      iszero\n      tag_278\n      jumpi\n      pop\n        /* \"inviter_presell/stake.sol\":4483:4484  0 */\n      0x00\n        /* \"inviter_presell/stake.sol\":4476:4484  return 0 */\n      jump(tag_239)\n        /* \"inviter_presell/stake.sol\":4400:4496  if(startTime == 0 || leftTime >= rightTime || leftTime == 0) {... */\n    tag_278:\n        /* \"inviter_presell/stake.sol\":4522:4531  startTime */\n      sload(0x06)\n        /* \"inviter_presell/stake.sol\":4511:4519  leftTime */\n      dup4\n        /* \"inviter_presell/stake.sol\":4511:4531  leftTime < startTime */\n      lt\n        /* \"inviter_presell/stake.sol\":4508:4580  if(leftTime < startTime) {... */\n      iszero\n      tag_279\n      jumpi\n        /* \"inviter_presell/stake.sol\":4559:4568  startTime */\n      sload(0x06)\n        /* \"inviter_presell/stake.sol\":4548:4568  leftTime = startTime */\n      swap3\n      pop\n        /* \"inviter_presell/stake.sol\":4508:4580  if(leftTime < startTime) {... */\n    tag_279:\n        /* \"inviter_presell/stake.sol\":4592:4612  uint256 leftInterval */\n      0x00\n        /* \"inviter_presell/stake.sol\":4672:4684  rateInterval */\n      sload(0x07)\n        /* \"inviter_presell/stake.sol\":4656:4668  rateInterval */\n      sload(0x07)\n        /* \"inviter_presell/stake.sol\":4643:4652  startTime */\n      sload(0x06)\n        /* \"inviter_presell/stake.sol\":4632:4640  leftTime */\n      dup7\n        /* \"inviter_presell/stake.sol\":4632:4652  leftTime - startTime */\n      tag_280\n      swap2\n      swap1\n      tag_199\n      jump\t// in\n    tag_280:\n        /* \"inviter_presell/stake.sol\":4631:4668  (leftTime - startTime) % rateInterval */\n      tag_281\n      swap2\n      swap1\n      tag_282\n      jump\t// in\n    tag_281:\n        /* \"inviter_presell/stake.sol\":4616:4628  rateInterval */\n      sload(0x07)\n        /* \"inviter_presell/stake.sol\":4616:4668  rateInterval - (leftTime - startTime) % rateInterval */\n      tag_283\n      swap2\n      swap1\n      tag_199\n      jump\t// in\n    tag_283:\n        /* \"inviter_presell/stake.sol\":4615:4684  (rateInterval - (leftTime - startTime) % rateInterval) % rateInterval */\n      tag_284\n      swap2\n      swap1\n      tag_282\n      jump\t// in\n    tag_284:\n        /* \"inviter_presell/stake.sol\":4592:4684  uint256 leftInterval = (rateInterval - (leftTime - startTime) % rateInterval) % rateInterval */\n      swap1\n      pop\n        /* \"inviter_presell/stake.sol\":4695:4713  uint256 leftReward */\n      0x00\n        /* \"inviter_presell/stake.sol\":4757:4769  rateInterval */\n      sload(0x07)\n        /* \"inviter_presell/stake.sol\":4742:4754  leftInterval */\n      dup3\n        /* \"inviter_presell/stake.sol\":4716:4739  getRewardPool(leftTime) */\n      tag_285\n        /* \"inviter_presell/stake.sol\":4730:4738  leftTime */\n      dup8\n        /* \"inviter_presell/stake.sol\":4716:4729  getRewardPool */\n      tag_77\n        /* \"inviter_presell/stake.sol\":4716:4739  getRewardPool(leftTime) */\n      jump\t// in\n    tag_285:\n        /* \"inviter_presell/stake.sol\":4716:4754  getRewardPool(leftTime) * leftInterval */\n      tag_286\n      swap2\n      swap1\n      tag_208\n      jump\t// in\n    tag_286:\n        /* \"inviter_presell/stake.sol\":4716:4769  getRewardPool(leftTime) * leftInterval / rateInterval */\n      tag_287\n      swap2\n      swap1\n      tag_201\n      jump\t// in\n    tag_287:\n        /* \"inviter_presell/stake.sol\":4695:4769  uint256 leftReward = getRewardPool(leftTime) * leftInterval / rateInterval */\n      swap1\n      pop\n        /* \"inviter_presell/stake.sol\":4782:4803  uint256 rightInterval */\n      0x00\n        /* \"inviter_presell/stake.sol\":4832:4844  rateInterval */\n      sload(0x07)\n        /* \"inviter_presell/stake.sol\":4819:4828  startTime */\n      sload(0x06)\n        /* \"inviter_presell/stake.sol\":4807:4816  rightTime */\n      dup7\n        /* \"inviter_presell/stake.sol\":4807:4828  rightTime - startTime */\n      tag_288\n      swap2\n      swap1\n      tag_199\n      jump\t// in\n    tag_288:\n        /* \"inviter_presell/stake.sol\":4806:4844  (rightTime - startTime) % rateInterval */\n      tag_289\n      swap2\n      swap1\n      tag_282\n      jump\t// in\n    tag_289:\n        /* \"inviter_presell/stake.sol\":4782:4844  uint256 rightInterval = (rightTime - startTime) % rateInterval */\n      swap1\n      pop\n        /* \"inviter_presell/stake.sol\":4855:4874  uint256 rightReward */\n      0x00\n        /* \"inviter_presell/stake.sol\":4920:4932  rateInterval */\n      sload(0x07)\n        /* \"inviter_presell/stake.sol\":4904:4917  rightInterval */\n      dup3\n        /* \"inviter_presell/stake.sol\":4877:4901  getRewardPool(rightTime) */\n      tag_290\n        /* \"inviter_presell/stake.sol\":4891:4900  rightTime */\n      dup9\n        /* \"inviter_presell/stake.sol\":4877:4890  getRewardPool */\n      tag_77\n        /* \"inviter_presell/stake.sol\":4877:4901  getRewardPool(rightTime) */\n      jump\t// in\n    tag_290:\n        /* \"inviter_presell/stake.sol\":4877:4917  getRewardPool(rightTime) * rightInterval */\n      tag_291\n      swap2\n      swap1\n      tag_208\n      jump\t// in\n    tag_291:\n        /* \"inviter_presell/stake.sol\":4877:4932  getRewardPool(rightTime) * rightInterval / rateInterval */\n      tag_292\n      swap2\n      swap1\n      tag_201\n      jump\t// in\n    tag_292:\n        /* \"inviter_presell/stake.sol\":4855:4932  uint256 rightReward = getRewardPool(rightTime) * rightInterval / rateInterval */\n      swap1\n      pop\n        /* \"inviter_presell/stake.sol\":4974:4983  rightTime */\n      dup6\n        /* \"inviter_presell/stake.sol\":4948:4971  leftTime + leftInterval */\n      tag_293\n        /* \"inviter_presell/stake.sol\":4959:4971  leftInterval */\n      dup6\n        /* \"inviter_presell/stake.sol\":4948:4956  leftTime */\n      dup10\n        /* \"inviter_presell/stake.sol\":4948:4971  leftTime + leftInterval */\n      tag_203\n      jump\t// in\n    tag_293:\n        /* \"inviter_presell/stake.sol\":4948:4983  leftTime + leftInterval > rightTime */\n      gt\n        /* \"inviter_presell/stake.sol\":4945:5043  if(leftTime + leftInterval > rightTime) {... */\n      iszero\n      tag_294\n      jumpi\n        /* \"inviter_presell/stake.sol\":5007:5031  _getRewardRate(leftTime) */\n      tag_295\n        /* \"inviter_presell/stake.sol\":5022:5030  leftTime */\n      dup8\n        /* \"inviter_presell/stake.sol\":5007:5021  _getRewardRate */\n      tag_274\n        /* \"inviter_presell/stake.sol\":5007:5031  _getRewardRate(leftTime) */\n      jump\t// in\n    tag_295:\n        /* \"inviter_presell/stake.sol\":5000:5031  return _getRewardRate(leftTime) */\n      swap5\n      pop\n      pop\n      pop\n      pop\n      pop\n      jump(tag_239)\n        /* \"inviter_presell/stake.sol\":4945:5043  if(leftTime + leftInterval > rightTime) {... */\n    tag_294:\n        /* \"inviter_presell/stake.sol\":5055:5074  uint256 midInterval */\n      0x00\n        /* \"inviter_presell/stake.sol\":5116:5128  leftInterval */\n      dup5\n        /* \"inviter_presell/stake.sol\":5105:5113  leftTime */\n      dup9\n        /* \"inviter_presell/stake.sol\":5077:5102  rightTime - rightInterval */\n      tag_296\n        /* \"inviter_presell/stake.sol\":5089:5102  rightInterval */\n      dup6\n        /* \"inviter_presell/stake.sol\":5077:5086  rightTime */\n      dup11\n        /* \"inviter_presell/stake.sol\":5077:5102  rightTime - rightInterval */\n      tag_199\n      jump\t// in\n    tag_296:\n        /* \"inviter_presell/stake.sol\":5077:5113  rightTime - rightInterval - leftTime */\n      tag_297\n      swap2\n      swap1\n      tag_199\n      jump\t// in\n    tag_297:\n        /* \"inviter_presell/stake.sol\":5077:5128  rightTime - rightInterval - leftTime - leftInterval */\n      tag_298\n      swap2\n      swap1\n      tag_199\n      jump\t// in\n    tag_298:\n        /* \"inviter_presell/stake.sol\":5055:5128  uint256 midInterval = rightTime - rightInterval - leftTime - leftInterval */\n      swap1\n      pop\n        /* \"inviter_presell/stake.sol\":5139:5158  uint256 startReward */\n      0x00\n        /* \"inviter_presell/stake.sol\":5161:5184  getRemainPool(leftTime) */\n      tag_299\n        /* \"inviter_presell/stake.sol\":5175:5183  leftTime */\n      dup10\n        /* \"inviter_presell/stake.sol\":5161:5174  getRemainPool */\n      tag_73\n        /* \"inviter_presell/stake.sol\":5161:5184  getRemainPool(leftTime) */\n      jump\t// in\n    tag_299:\n        /* \"inviter_presell/stake.sol\":5139:5184  uint256 startReward = getRemainPool(leftTime) */\n      swap1\n      pop\n        /* \"inviter_presell/stake.sol\":5196:5218  uint256 midTotalReward */\n      0x00\n        /* \"inviter_presell/stake.sol\":5233:5251  uint256 nextReward */\n      dup1\n        /* \"inviter_presell/stake.sol\":5266:5279  uint256 value */\n      0x00\n        /* \"inviter_presell/stake.sol\":5282:5293  startReward */\n      dup4\n        /* \"inviter_presell/stake.sol\":5266:5293  uint256 value = startReward */\n      swap1\n      pop\n        /* \"inviter_presell/stake.sol\":5304:5317  uint256 times */\n      0x00\n        /* \"inviter_presell/stake.sol\":5334:5346  rateInterval */\n      sload(0x07)\n        /* \"inviter_presell/stake.sol\":5320:5331  midInterval */\n      dup7\n        /* \"inviter_presell/stake.sol\":5320:5346  midInterval / rateInterval */\n      tag_300\n      swap2\n      swap1\n      tag_201\n      jump\t// in\n    tag_300:\n        /* \"inviter_presell/stake.sol\":5304:5346  uint256 times = midInterval / rateInterval */\n      swap1\n      pop\n        /* \"inviter_presell/stake.sol\":5361:5370  uint256 i */\n      0x00\n        /* \"inviter_presell/stake.sol\":5357:5571  for(uint256 i = 0; i < times; ++i) {... */\n    tag_301:\n        /* \"inviter_presell/stake.sol\":5380:5385  times */\n      dup2\n        /* \"inviter_presell/stake.sol\":5376:5377  i */\n      dup2\n        /* \"inviter_presell/stake.sol\":5376:5385  i < times */\n      lt\n        /* \"inviter_presell/stake.sol\":5357:5571  for(uint256 i = 0; i < times; ++i) {... */\n      iszero\n      tag_302\n      jumpi\n        /* \"inviter_presell/stake.sol\":5452:5475  rateIntervalDenominator */\n      sload(0x09)\n        /* \"inviter_presell/stake.sol\":5428:5449  rateIntervalNumerator */\n      sload(0x08)\n        /* \"inviter_presell/stake.sol\":5420:5449  value * rateIntervalNumerator */\n      tag_304\n      swap1\n        /* \"inviter_presell/stake.sol\":5420:5425  value */\n      dup6\n        /* \"inviter_presell/stake.sol\":5420:5449  value * rateIntervalNumerator */\n      tag_208\n      jump\t// in\n    tag_304:\n        /* \"inviter_presell/stake.sol\":5420:5475  value * rateIntervalNumerator / rateIntervalDenominator */\n      tag_305\n      swap2\n      swap1\n      tag_201\n      jump\t// in\n    tag_305:\n        /* \"inviter_presell/stake.sol\":5407:5475  nextReward = value * rateIntervalNumerator / rateIntervalDenominator */\n      swap4\n      pop\n        /* \"inviter_presell/stake.sol\":5498:5516  value - nextReward */\n      tag_306\n        /* \"inviter_presell/stake.sol\":5407:5475  nextReward = value * rateIntervalNumerator / rateIntervalDenominator */\n      dup5\n        /* \"inviter_presell/stake.sol\":5498:5503  value */\n      dup5\n        /* \"inviter_presell/stake.sol\":5498:5516  value - nextReward */\n      tag_199\n      jump\t// in\n    tag_306:\n        /* \"inviter_presell/stake.sol\":5490:5516  value = value - nextReward */\n      swap3\n      pop\n        /* \"inviter_presell/stake.sol\":5531:5559  midTotalReward += nextReward */\n      tag_307\n        /* \"inviter_presell/stake.sol\":5549:5559  nextReward */\n      dup5\n        /* \"inviter_presell/stake.sol\":5531:5559  midTotalReward += nextReward */\n      dup7\n      tag_203\n      jump\t// in\n    tag_307:\n      swap5\n      pop\n        /* \"inviter_presell/stake.sol\":5387:5390  ++i */\n      tag_308\n      dup2\n      tag_212\n      jump\t// in\n    tag_308:\n      swap1\n      pop\n        /* \"inviter_presell/stake.sol\":5357:5571  for(uint256 i = 0; i < times; ++i) {... */\n      jump(tag_301)\n    tag_302:\n      pop\n        /* \"inviter_presell/stake.sol\":5635:5655  rightTime - leftTime */\n      tag_309\n        /* \"inviter_presell/stake.sol\":5647:5655  leftTime */\n      dup14\n        /* \"inviter_presell/stake.sol\":5635:5644  rightTime */\n      dup14\n        /* \"inviter_presell/stake.sol\":5635:5655  rightTime - leftTime */\n      tag_199\n      jump\t// in\n    tag_309:\n        /* \"inviter_presell/stake.sol\":5619:5630  rightReward */\n      dup8\n        /* \"inviter_presell/stake.sol\":5589:5616  midTotalReward + leftReward */\n      tag_310\n        /* \"inviter_presell/stake.sol\":5606:5616  leftReward */\n      dup12\n        /* \"inviter_presell/stake.sol\":5589:5603  midTotalReward */\n      dup8\n        /* \"inviter_presell/stake.sol\":5589:5616  midTotalReward + leftReward */\n      tag_203\n      jump\t// in\n    tag_310:\n        /* \"inviter_presell/stake.sol\":5589:5630  midTotalReward + leftReward + rightReward */\n      tag_311\n      swap2\n      swap1\n      tag_203\n      jump\t// in\n    tag_311:\n        /* \"inviter_presell/stake.sol\":5588:5656  (midTotalReward + leftReward + rightReward) / (rightTime - leftTime) */\n      tag_312\n      swap2\n      swap1\n      tag_201\n      jump\t// in\n    tag_312:\n        /* \"inviter_presell/stake.sol\":5581:5656  return (midTotalReward + leftReward + rightReward) / (rightTime - leftTime) */\n      swap14\n        /* \"inviter_presell/stake.sol\":4281:5664  function getTimeWeightedAveRate(uint256 leftTime, uint256 rightTime) public view returns (uint256){... */\n      swap13\n      pop\n      pop\n      pop\n      pop\n      pop\n      pop\n      pop\n      pop\n      pop\n      pop\n      pop\n      pop\n      pop\n      jump\t// out\n        /* \"inviter_presell/adminable.sol\":1234:1435  function transferOwnership(address newOwner) public virtual onlyOwner {... */\n    tag_146:\n        /* \"inviter_presell/adminable.sol\":982:988  _owner */\n      and(sub(shl(0xa0, 0x01), 0x01), sload(0x01))\n        /* \"inviter_presell/adminable.sol\":143:153  msg.sender */\n      caller\n        /* \"inviter_presell/adminable.sol\":691:714  owner() == _msgSender() */\n      eq\n        /* \"inviter_presell/adminable.sol\":683:753  require(owner() == _msgSender(), \"Adminable: caller is not the owner\") */\n      tag_316\n      jumpi\n      mload(0x40)\n      shl(0xe5, 0x461bcd)\n      dup2\n      mstore\n      0x04\n      add\n      tag_163\n      swap1\n      tag_164\n      jump\t// in\n    tag_316:\n      sub(shl(0xa0, 0x01), 0x01)\n        /* \"inviter_presell/adminable.sol\":1323:1345  newOwner != address(0) */\n      dup2\n      and\n        /* \"inviter_presell/adminable.sol\":1315:1388  require(newOwner != address(0), \"Ownable: new owner is the zero address\") */\n      tag_319\n      jumpi\n      mload(0x40)\n      shl(0xe5, 0x461bcd)\n      dup2\n      mstore\n        /* \"#utility.yul\":5922:5924   */\n      0x20\n        /* \"inviter_presell/adminable.sol\":1315:1388  require(newOwner != address(0), \"Ownable: new owner is the zero address\") */\n      0x04\n      dup3\n      add\n        /* \"#utility.yul\":5904:5925   */\n      mstore\n        /* \"#utility.yul\":5961:5963   */\n      0x26\n        /* \"#utility.yul\":5941:5959   */\n      0x24\n      dup3\n      add\n        /* \"#utility.yul\":5934:5964   */\n      mstore\n        /* \"#utility.yul\":6000:6034   */\n      0x4f776e61626c653a206e6577206f776e657220697320746865207a65726f2061\n        /* \"#utility.yul\":5980:5998   */\n      0x44\n      dup3\n      add\n        /* \"#utility.yul\":5973:6035   */\n      mstore\n      shl(0xd0, 0x646472657373)\n        /* \"#utility.yul\":6051:6069   */\n      0x64\n      dup3\n      add\n        /* \"#utility.yul\":6044:6080   */\n      mstore\n        /* \"#utility.yul\":6097:6116   */\n      0x84\n      add\n        /* \"inviter_presell/adminable.sol\":1315:1388  require(newOwner != address(0), \"Ownable: new owner is the zero address\") */\n      tag_163\n        /* \"#utility.yul\":5720:6122   */\n      jump\n        /* \"inviter_presell/adminable.sol\":1315:1388  require(newOwner != address(0), \"Ownable: new owner is the zero address\") */\n    tag_319:\n        /* \"inviter_presell/adminable.sol\":1399:1427  _transferOwnership(newOwner) */\n      tag_322\n        /* \"inviter_presell/adminable.sol\":1418:1426  newOwner */\n      dup2\n        /* \"inviter_presell/adminable.sol\":1399:1417  _transferOwnership */\n      tag_235\n        /* \"inviter_presell/adminable.sol\":1399:1427  _transferOwnership(newOwner) */\n      jump\t// in\n    tag_322:\n        /* \"inviter_presell/adminable.sol\":1234:1435  function transferOwnership(address newOwner) public virtual onlyOwner {... */\n      pop\n      jump\t// out\n        /* \"node_modules/@openzeppelin/contracts/utils/math/SafeMath.sol\":3214:3312  function sub(uint256 a, uint256 b) internal pure returns (uint256) {... */\n    tag_154:\n        /* \"node_modules/@openzeppelin/contracts/utils/math/SafeMath.sol\":3272:3279  uint256 */\n      0x00\n        /* \"node_modules/@openzeppelin/contracts/utils/math/SafeMath.sol\":3299:3304  a - b */\n      tag_149\n        /* \"node_modules/@openzeppelin/contracts/utils/math/SafeMath.sol\":3303:3304  b */\n      dup3\n        /* \"node_modules/@openzeppelin/contracts/utils/math/SafeMath.sol\":3299:3300  a */\n      dup5\n        /* \"node_modules/@openzeppelin/contracts/utils/math/SafeMath.sol\":3299:3304  a - b */\n      tag_199\n      jump\t// in\n        /* \"node_modules/@openzeppelin/contracts/utils/math/SafeMath.sol\":3571:3669  function mul(uint256 a, uint256 b) internal pure returns (uint256) {... */\n    tag_155:\n        /* \"node_modules/@openzeppelin/contracts/utils/math/SafeMath.sol\":3629:3636  uint256 */\n      0x00\n        /* \"node_modules/@openzeppelin/contracts/utils/math/SafeMath.sol\":3656:3661  a * b */\n      tag_149\n        /* \"node_modules/@openzeppelin/contracts/utils/math/SafeMath.sol\":3660:3661  b */\n      dup3\n        /* \"node_modules/@openzeppelin/contracts/utils/math/SafeMath.sol\":3656:3657  a */\n      dup5\n        /* \"node_modules/@openzeppelin/contracts/utils/math/SafeMath.sol\":3656:3661  a * b */\n      tag_208\n      jump\t// in\n        /* \"node_modules/@openzeppelin/contracts/utils/math/SafeMath.sol\":3970:4068  function div(uint256 a, uint256 b) internal pure returns (uint256) {... */\n    tag_156:\n        /* \"node_modules/@openzeppelin/contracts/utils/math/SafeMath.sol\":4028:4035  uint256 */\n      0x00\n        /* \"node_modules/@openzeppelin/contracts/utils/math/SafeMath.sol\":4055:4060  a / b */\n      tag_149\n        /* \"node_modules/@openzeppelin/contracts/utils/math/SafeMath.sol\":4059:4060  b */\n      dup3\n        /* \"node_modules/@openzeppelin/contracts/utils/math/SafeMath.sol\":4055:4056  a */\n      dup5\n        /* \"node_modules/@openzeppelin/contracts/utils/math/SafeMath.sol\":4055:4060  a / b */\n      tag_201\n      jump\t// in\n        /* \"node_modules/@openzeppelin/contracts/utils/math/SafeMath.sol\":2833:2931  function add(uint256 a, uint256 b) internal pure returns (uint256) {... */\n    tag_157:\n        /* \"node_modules/@openzeppelin/contracts/utils/math/SafeMath.sol\":2891:2898  uint256 */\n      0x00\n        /* \"node_modules/@openzeppelin/contracts/utils/math/SafeMath.sol\":2918:2923  a + b */\n      tag_149\n        /* \"node_modules/@openzeppelin/contracts/utils/math/SafeMath.sol\":2922:2923  b */\n      dup3\n        /* \"node_modules/@openzeppelin/contracts/utils/math/SafeMath.sol\":2918:2919  a */\n      dup5\n        /* \"node_modules/@openzeppelin/contracts/utils/math/SafeMath.sol\":2918:2923  a + b */\n      tag_203\n      jump\t// in\n        /* \"inviter_presell/adminable.sol\":1443:1634  function _transferOwnership(address newOwner) internal virtual {... */\n    tag_235:\n        /* \"inviter_presell/adminable.sol\":1536:1542  _owner */\n      0x01\n      dup1\n      sload\n      sub(shl(0xa0, 0x01), 0x01)\n        /* \"inviter_presell/adminable.sol\":1553:1570  _owner = newOwner */\n      dup4\n      dup2\n      and\n      not(sub(shl(0xa0, 0x01), 0x01))\n      dup4\n      and\n      dup2\n      or\n      swap1\n      swap4\n      sstore\n        /* \"inviter_presell/adminable.sol\":1586:1626  OwnershipTransferred(oldOwner, newOwner) */\n      mload(0x40)\n        /* \"inviter_presell/adminable.sol\":1536:1542  _owner */\n      swap2\n      and\n      swap2\n        /* \"inviter_presell/adminable.sol\":1553:1570  _owner = newOwner */\n      swap1\n        /* \"inviter_presell/adminable.sol\":1536:1542  _owner */\n      dup3\n      swap1\n        /* \"inviter_presell/adminable.sol\":1586:1626  OwnershipTransferred(oldOwner, newOwner) */\n      0x8be0079c531659141344cd1fd0a4f28419497f9722a3daafe3b4186f6b6457e0\n      swap1\n        /* \"inviter_presell/adminable.sol\":1517:1533  address oldOwner */\n      0x00\n      swap1\n        /* \"inviter_presell/adminable.sol\":1586:1626  OwnershipTransferred(oldOwner, newOwner) */\n      log3\n        /* \"inviter_presell/adminable.sol\":1506:1634  {... */\n      pop\n        /* \"inviter_presell/adminable.sol\":1443:1634  function _transferOwnership(address newOwner) internal virtual {... */\n      pop\n      jump\t// out\n        /* \"inviter_presell/stake.sol\":3239:3461  function _getRewardRate(uint256 time) private view returns (uint256) {... */\n    tag_274:\n        /* \"inviter_presell/stake.sol\":3299:3306  uint256 */\n      0x00\n        /* \"inviter_presell/stake.sol\":3319:3340  uint256 curPoolAmount */\n      dup1\n        /* \"inviter_presell/stake.sol\":3343:3362  getRewardPool(time) */\n      tag_334\n        /* \"inviter_presell/stake.sol\":3357:3361  time */\n      dup4\n        /* \"inviter_presell/stake.sol\":3343:3356  getRewardPool */\n      tag_77\n        /* \"inviter_presell/stake.sol\":3343:3362  getRewardPool(time) */\n      jump\t// in\n    tag_334:\n        /* \"inviter_presell/stake.sol\":3319:3362  uint256 curPoolAmount = getRewardPool(time) */\n      swap1\n      pop\n        /* \"inviter_presell/stake.sol\":3373:3391  uint256 rewardRate */\n      0x00\n        /* \"inviter_presell/stake.sol\":3394:3425  curPoolAmount.div(rateInterval) */\n      tag_226\n        /* \"inviter_presell/stake.sol\":3412:3424  rateInterval */\n      sload(0x07)\n        /* \"inviter_presell/stake.sol\":3394:3407  curPoolAmount */\n      dup4\n        /* \"inviter_presell/stake.sol\":3394:3411  curPoolAmount.div */\n      tag_156\n      swap1\n        /* \"inviter_presell/stake.sol\":3394:3425  curPoolAmount.div(rateInterval) */\n      swap2\n      swap1\n      0xffffffff\n      and\n      jump\t// in\n        /* \"#utility.yul\":14:187   */\n    tag_336:\n        /* \"#utility.yul\":82:102   */\n      dup1\n      calldataload\n      sub(shl(0xa0, 0x01), 0x01)\n        /* \"#utility.yul\":131:162   */\n      dup2\n      and\n        /* \"#utility.yul\":121:163   */\n      dup2\n      eq\n        /* \"#utility.yul\":111:181   */\n      tag_342\n      jumpi\n        /* \"#utility.yul\":177:178   */\n      0x00\n        /* \"#utility.yul\":174:175   */\n      dup1\n        /* \"#utility.yul\":167:179   */\n      revert\n        /* \"#utility.yul\":111:181   */\n    tag_342:\n        /* \"#utility.yul\":14:187   */\n      swap2\n      swap1\n      pop\n      jump\t// out\n        /* \"#utility.yul\":192:378   */\n    tag_42:\n        /* \"#utility.yul\":251:257   */\n      0x00\n        /* \"#utility.yul\":304:306   */\n      0x20\n        /* \"#utility.yul\":292:301   */\n      dup3\n        /* \"#utility.yul\":283:290   */\n      dup5\n        /* \"#utility.yul\":279:302   */\n      sub\n        /* \"#utility.yul\":275:307   */\n      slt\n        /* \"#utility.yul\":272:324   */\n      iszero\n      tag_344\n      jumpi\n        /* \"#utility.yul\":320:321   */\n      0x00\n        /* \"#utility.yul\":317:318   */\n      dup1\n        /* \"#utility.yul\":310:322   */\n      revert\n        /* \"#utility.yul\":272:324   */\n    tag_344:\n        /* \"#utility.yul\":343:372   */\n      tag_149\n        /* \"#utility.yul\":362:371   */\n      dup3\n        /* \"#utility.yul\":343:372   */\n      tag_336\n      jump\t// in\n        /* \"#utility.yul\":565:683   */\n    tag_337:\n        /* \"#utility.yul\":651:656   */\n      dup1\n        /* \"#utility.yul\":644:657   */\n      iszero\n        /* \"#utility.yul\":637:658   */\n      iszero\n        /* \"#utility.yul\":630:635   */\n      dup2\n        /* \"#utility.yul\":627:659   */\n      eq\n        /* \"#utility.yul\":617:677   */\n      tag_322\n      jumpi\n        /* \"#utility.yul\":673:674   */\n      0x00\n        /* \"#utility.yul\":670:671   */\n      dup1\n        /* \"#utility.yul\":663:675   */\n      revert\n        /* \"#utility.yul\":688:1003   */\n    tag_55:\n        /* \"#utility.yul\":753:759   */\n      0x00\n        /* \"#utility.yul\":761:767   */\n      dup1\n        /* \"#utility.yul\":814:816   */\n      0x40\n        /* \"#utility.yul\":802:811   */\n      dup4\n        /* \"#utility.yul\":793:800   */\n      dup6\n        /* \"#utility.yul\":789:812   */\n      sub\n        /* \"#utility.yul\":785:817   */\n      slt\n        /* \"#utility.yul\":782:834   */\n      iszero\n      tag_350\n      jumpi\n        /* \"#utility.yul\":830:831   */\n      0x00\n        /* \"#utility.yul\":827:828   */\n      dup1\n        /* \"#utility.yul\":820:832   */\n      revert\n        /* \"#utility.yul\":782:834   */\n    tag_350:\n        /* \"#utility.yul\":853:882   */\n      tag_351\n        /* \"#utility.yul\":872:881   */\n      dup4\n        /* \"#utility.yul\":853:882   */\n      tag_336\n      jump\t// in\n    tag_351:\n        /* \"#utility.yul\":843:882   */\n      swap2\n      pop\n        /* \"#utility.yul\":932:934   */\n      0x20\n        /* \"#utility.yul\":921:930   */\n      dup4\n        /* \"#utility.yul\":917:935   */\n      add\n        /* \"#utility.yul\":904:936   */\n      calldataload\n        /* \"#utility.yul\":945:973   */\n      tag_352\n        /* \"#utility.yul\":967:972   */\n      dup2\n        /* \"#utility.yul\":945:973   */\n      tag_337\n      jump\t// in\n    tag_352:\n        /* \"#utility.yul\":992:997   */\n      dup1\n        /* \"#utility.yul\":982:997   */\n      swap2\n      pop\n      pop\n        /* \"#utility.yul\":688:1003   */\n      swap3\n      pop\n      swap3\n      swap1\n      pop\n      jump\t// out\n        /* \"#utility.yul\":1200:1380   */\n    tag_69:\n        /* \"#utility.yul\":1259:1265   */\n      0x00\n        /* \"#utility.yul\":1312:1314   */\n      0x20\n        /* \"#utility.yul\":1300:1309   */\n      dup3\n        /* \"#utility.yul\":1291:1298   */\n      dup5\n        /* \"#utility.yul\":1287:1310   */\n      sub\n        /* \"#utility.yul\":1283:1315   */\n      slt\n        /* \"#utility.yul\":1280:1332   */\n      iszero\n      tag_355\n      jumpi\n        /* \"#utility.yul\":1328:1329   */\n      0x00\n        /* \"#utility.yul\":1325:1326   */\n      dup1\n        /* \"#utility.yul\":1318:1330   */\n      revert\n        /* \"#utility.yul\":1280:1332   */\n    tag_355:\n      pop\n        /* \"#utility.yul\":1351:1374   */\n      calldataload\n      swap2\n        /* \"#utility.yul\":1200:1380   */\n      swap1\n      pop\n      jump\t// out\n        /* \"#utility.yul\":1593:1847   */\n    tag_120:\n        /* \"#utility.yul\":1661:1667   */\n      0x00\n        /* \"#utility.yul\":1669:1675   */\n      dup1\n        /* \"#utility.yul\":1722:1724   */\n      0x40\n        /* \"#utility.yul\":1710:1719   */\n      dup4\n        /* \"#utility.yul\":1701:1708   */\n      dup6\n        /* \"#utility.yul\":1697:1720   */\n      sub\n        /* \"#utility.yul\":1693:1725   */\n      slt\n        /* \"#utility.yul\":1690:1742   */\n      iszero\n      tag_358\n      jumpi\n        /* \"#utility.yul\":1738:1739   */\n      0x00\n        /* \"#utility.yul\":1735:1736   */\n      dup1\n        /* \"#utility.yul\":1728:1740   */\n      revert\n        /* \"#utility.yul\":1690:1742   */\n    tag_358:\n        /* \"#utility.yul\":1761:1790   */\n      tag_359\n        /* \"#utility.yul\":1780:1789   */\n      dup4\n        /* \"#utility.yul\":1761:1790   */\n      tag_336\n      jump\t// in\n    tag_359:\n        /* \"#utility.yul\":1751:1790   */\n      swap5\n        /* \"#utility.yul\":1837:1839   */\n      0x20\n        /* \"#utility.yul\":1822:1840   */\n      swap4\n      swap1\n      swap4\n      add\n        /* \"#utility.yul\":1809:1841   */\n      calldataload\n      swap4\n      pop\n      pop\n      pop\n        /* \"#utility.yul\":1593:1847   */\n      jump\t// out\n        /* \"#utility.yul\":2074:2322   */\n    tag_138:\n        /* \"#utility.yul\":2142:2148   */\n      0x00\n        /* \"#utility.yul\":2150:2156   */\n      dup1\n        /* \"#utility.yul\":2203:2205   */\n      0x40\n        /* \"#utility.yul\":2191:2200   */\n      dup4\n        /* \"#utility.yul\":2182:2189   */\n      dup6\n        /* \"#utility.yul\":2178:2201   */\n      sub\n        /* \"#utility.yul\":2174:2206   */\n      slt\n        /* \"#utility.yul\":2171:2223   */\n      iszero\n      tag_362\n      jumpi\n        /* \"#utility.yul\":2219:2220   */\n      0x00\n        /* \"#utility.yul\":2216:2217   */\n      dup1\n        /* \"#utility.yul\":2209:2221   */\n      revert\n        /* \"#utility.yul\":2171:2223   */\n    tag_362:\n      pop\n      pop\n        /* \"#utility.yul\":2242:2265   */\n      dup1\n      calldataload\n      swap3\n        /* \"#utility.yul\":2312:2314   */\n      0x20\n        /* \"#utility.yul\":2297:2315   */\n      swap1\n      swap2\n      add\n        /* \"#utility.yul\":2284:2316   */\n      calldataload\n      swap2\n      pop\n        /* \"#utility.yul\":2074:2322   */\n      jump\t// out\n        /* \"#utility.yul\":2327:2725   */\n    tag_164:\n        /* \"#utility.yul\":2529:2531   */\n      0x20\n        /* \"#utility.yul\":2511:2532   */\n      dup1\n      dup3\n      mstore\n        /* \"#utility.yul\":2568:2570   */\n      0x22\n        /* \"#utility.yul\":2548:2566   */\n      swap1\n      dup3\n      add\n        /* \"#utility.yul\":2541:2571   */\n      mstore\n        /* \"#utility.yul\":2607:2641   */\n      0x41646d696e61626c653a2063616c6c6572206973206e6f7420746865206f776e\n        /* \"#utility.yul\":2602:2604   */\n      0x40\n        /* \"#utility.yul\":2587:2605   */\n      dup3\n      add\n        /* \"#utility.yul\":2580:2642   */\n      mstore\n      shl(0xf1, 0x32b9)\n        /* \"#utility.yul\":2673:2675   */\n      0x60\n        /* \"#utility.yul\":2658:2676   */\n      dup3\n      add\n        /* \"#utility.yul\":2651:2683   */\n      mstore\n        /* \"#utility.yul\":2715:2718   */\n      0x80\n        /* \"#utility.yul\":2700:2719   */\n      add\n      swap1\n        /* \"#utility.yul\":2327:2725   */\n      jump\t// out\n        /* \"#utility.yul\":3642:3887   */\n    tag_187:\n        /* \"#utility.yul\":3709:3715   */\n      0x00\n        /* \"#utility.yul\":3762:3764   */\n      0x20\n        /* \"#utility.yul\":3750:3759   */\n      dup3\n        /* \"#utility.yul\":3741:3748   */\n      dup5\n        /* \"#utility.yul\":3737:3760   */\n      sub\n        /* \"#utility.yul\":3733:3765   */\n      slt\n        /* \"#utility.yul\":3730:3782   */\n      iszero\n      tag_368\n      jumpi\n        /* \"#utility.yul\":3778:3779   */\n      0x00\n        /* \"#utility.yul\":3775:3776   */\n      dup1\n        /* \"#utility.yul\":3768:3780   */\n      revert\n        /* \"#utility.yul\":3730:3782   */\n    tag_368:\n        /* \"#utility.yul\":3810:3819   */\n      dup2\n        /* \"#utility.yul\":3804:3820   */\n      mload\n        /* \"#utility.yul\":3829:3857   */\n      tag_149\n        /* \"#utility.yul\":3851:3856   */\n      dup2\n        /* \"#utility.yul\":3829:3857   */\n      tag_337\n      jump\t// in\n        /* \"#utility.yul\":3892:4290   */\n    tag_194:\n        /* \"#utility.yul\":4094:4096   */\n      0x20\n        /* \"#utility.yul\":4076:4097   */\n      dup1\n      dup3\n      mstore\n        /* \"#utility.yul\":4133:4135   */\n      0x22\n        /* \"#utility.yul\":4113:4131   */\n      swap1\n      dup3\n      add\n        /* \"#utility.yul\":4106:4136   */\n      mstore\n        /* \"#utility.yul\":4172:4206   */\n      0x41646d696e61626c653a2063616c6c6572206973206e6f74207468652061646d\n        /* \"#utility.yul\":4167:4169   */\n      0x40\n        /* \"#utility.yul\":4152:4170   */\n      dup3\n      add\n        /* \"#utility.yul\":4145:4207   */\n      mstore\n      shl(0xf1, 0x34b7)\n        /* \"#utility.yul\":4238:4240   */\n      0x60\n        /* \"#utility.yul\":4223:4241   */\n      dup3\n      add\n        /* \"#utility.yul\":4216:4248   */\n      mstore\n        /* \"#utility.yul\":4280:4283   */\n      0x80\n        /* \"#utility.yul\":4265:4284   */\n      add\n      swap1\n        /* \"#utility.yul\":3892:4290   */\n      jump\t// out\n        /* \"#utility.yul\":4295:4422   */\n    tag_338:\n        /* \"#utility.yul\":4356:4366   */\n      0x4e487b71\n        /* \"#utility.yul\":4351:4354   */\n      0xe0\n        /* \"#utility.yul\":4347:4367   */\n      shl\n        /* \"#utility.yul\":4344:4345   */\n      0x00\n        /* \"#utility.yul\":4337:4368   */\n      mstore\n        /* \"#utility.yul\":4387:4391   */\n      0x11\n        /* \"#utility.yul\":4384:4385   */\n      0x04\n        /* \"#utility.yul\":4377:4392   */\n      mstore\n        /* \"#utility.yul\":4411:4415   */\n      0x24\n        /* \"#utility.yul\":4408:4409   */\n      0x00\n        /* \"#utility.yul\":4401:4416   */\n      revert\n        /* \"#utility.yul\":4427:4555   */\n    tag_199:\n        /* \"#utility.yul\":4494:4503   */\n      dup2\n      dup2\n      sub\n        /* \"#utility.yul\":4515:4526   */\n      dup2\n      dup2\n      gt\n        /* \"#utility.yul\":4512:4549   */\n      iszero\n      tag_239\n      jumpi\n        /* \"#utility.yul\":4529:4547   */\n      tag_239\n      tag_338\n      jump\t// in\n        /* \"#utility.yul\":4560:4687   */\n    tag_339:\n        /* \"#utility.yul\":4621:4631   */\n      0x4e487b71\n        /* \"#utility.yul\":4616:4619   */\n      0xe0\n        /* \"#utility.yul\":4612:4632   */\n      shl\n        /* \"#utility.yul\":4609:4610   */\n      0x00\n        /* \"#utility.yul\":4602:4633   */\n      mstore\n        /* \"#utility.yul\":4652:4656   */\n      0x12\n        /* \"#utility.yul\":4649:4650   */\n      0x04\n        /* \"#utility.yul\":4642:4657   */\n      mstore\n        /* \"#utility.yul\":4676:4680   */\n      0x24\n        /* \"#utility.yul\":4673:4674   */\n      0x00\n        /* \"#utility.yul\":4666:4681   */\n      revert\n        /* \"#utility.yul\":4692:4812   */\n    tag_201:\n        /* \"#utility.yul\":4732:4733   */\n      0x00\n        /* \"#utility.yul\":4758:4759   */\n      dup3\n        /* \"#utility.yul\":4748:4783   */\n      tag_378\n      jumpi\n        /* \"#utility.yul\":4763:4781   */\n      tag_378\n      tag_339\n      jump\t// in\n    tag_378:\n      pop\n        /* \"#utility.yul\":4797:4806   */\n      div\n      swap1\n        /* \"#utility.yul\":4692:4812   */\n      jump\t// out\n        /* \"#utility.yul\":4817:4942   */\n    tag_203:\n        /* \"#utility.yul\":4882:4891   */\n      dup1\n      dup3\n      add\n        /* \"#utility.yul\":4903:4913   */\n      dup1\n      dup3\n      gt\n        /* \"#utility.yul\":4900:4936   */\n      iszero\n      tag_239\n      jumpi\n        /* \"#utility.yul\":4916:4934   */\n      tag_239\n      tag_338\n      jump\t// in\n        /* \"#utility.yul\":4947:5115   */\n    tag_208:\n        /* \"#utility.yul\":5020:5029   */\n      dup1\n      dup3\n      mul\n        /* \"#utility.yul\":5051:5060   */\n      dup2\n      iszero\n        /* \"#utility.yul\":5068:5083   */\n      dup3\n      dup3\n      div\n        /* \"#utility.yul\":5062:5084   */\n      dup5\n      eq\n        /* \"#utility.yul\":5048:5085   */\n      or\n        /* \"#utility.yul\":5038:5109   */\n      tag_239\n      jumpi\n        /* \"#utility.yul\":5089:5107   */\n      tag_239\n      tag_338\n      jump\t// in\n        /* \"#utility.yul\":5120:5255   */\n    tag_212:\n        /* \"#utility.yul\":5159:5162   */\n      0x00\n        /* \"#utility.yul\":5180:5197   */\n      0x01\n      dup3\n      add\n        /* \"#utility.yul\":5177:5220   */\n      tag_387\n      jumpi\n        /* \"#utility.yul\":5200:5218   */\n      tag_387\n      tag_338\n      jump\t// in\n    tag_387:\n      pop\n        /* \"#utility.yul\":5247:5248   */\n      0x01\n        /* \"#utility.yul\":5236:5249   */\n      add\n      swap1\n        /* \"#utility.yul\":5120:5255   */\n      jump\t// out\n        /* \"#utility.yul\":5603:5715   */\n    tag_282:\n        /* \"#utility.yul\":5635:5636   */\n      0x00\n        /* \"#utility.yul\":5661:5662   */\n      dup3\n        /* \"#utility.yul\":5651:5686   */\n      tag_391\n      jumpi\n        /* \"#utility.yul\":5666:5684   */\n      tag_391\n      tag_339\n      jump\t// in\n    tag_391:\n      pop\n        /* \"#utility.yul\":5700:5709   */\n      mod\n      swap1\n        /* \"#utility.yul\":5603:5715   */\n      jump\t// out\n\n    auxdata: 0xa264697066735822122042b9f3f54b432115b5541a753ebc3b176af9272517c18d1c7fd87fecc66b3a3a64736f6c63430008110033\n}\n",
				"bytecode": {
					"linkReferences": {},
					"object": "60806040526815af1d78b58c400000600555603c60075560056008556103e860095534801561002d57600080fd5b5061003733610041565b6001600255610093565b600180546001600160a01b038381166001600160a01b0319831681179093556040519116919082907f8be0079c531659141344cd1fd0a4f28419497f9722a3daafe3b4186f6b6457e090600090a35050565b611072806100a26000396000f3fe608060405234801561001057600080fd5b50600436106101d95760003560e01c806380faa57d11610104578063adc9772e116100a2578063d1af0c7d11610071578063d1af0c7d146103c6578063da4f8431146103d9578063df136d65146103ec578063f2fde38b146103f557600080fd5b8063adc9772e14610379578063b79ec8121461038c578063c8f33c91146103b5578063cdda56e0146103be57600080fd5b80638b876347116100de5780638b8763471461032c5780638da5cb5b1461034c5780639499c549146103715780639a5b17b0146102f357600080fd5b806380faa57d146102f35780638107368b146102f9578063874c120b1461031957600080fd5b80633e0a322d1161017c5780636917c5011161014b5780636917c501146102d1578063715018a6146102d957806378e97925146102e15780637a6fcee7146102ea57600080fd5b80633e0a322d1461028f5780634dbdc4eb146102a25780635cfa91f4146102b55780636139d4b4146102c857600080fd5b806318e20ecf116101b857806318e20ecf1461022d57806324d7806c146102425780633c4045cf1461027e5780633d18b9121461028757600080fd5b80628cc262146101de5780630700037d146102045780630e15561a14610224575b600080fd5b6101f16101ec366004610e2c565b610408565b6040519081526020015b60405180910390f35b6101f1610212366004610e2c565b60046020526000908152604090205481565b6101f160055481565b61024061023b366004610e55565b6104b0565b005b61026e610250366004610e2c565b6001600160a01b031660009081526020819052604090205460ff1690565b60405190151581526020016101fb565b6101f160085481565b610240610569565b61024061029d366004610e8c565b610726565b6101f16102b0366004610e8c565b610750565b6101f16102c3366004610e8c565b6107db565b6101f160075481565b600e546101f1565b610240610881565b6101f160065481565b6101f160095481565b426101f1565b6101f1610307366004610e2c565b600d6020526000908152604090205481565b6101f1610327366004610e8c565b6108b7565b6101f161033a366004610e2c565b600c6020526000908152604090205481565b6001546001600160a01b03165b6040516001600160a01b0390911681526020016101fb565b6101f1610906565b610240610387366004610ea5565b610916565b6101f161039a366004610e2c565b6001600160a01b03166000908152600f602052604090205490565b6101f1600a5481565b6101f1610aee565b600354610359906001600160a01b031681565b6101f16103e7366004610ecf565b610af9565b6101f1600b5481565b610240610403366004610e2c565b610cce565b6001600160a01b0381166000908152600d6020526040812054819061042d9042610af9565b6001600160a01b038416600090815260046020908152604080832054600c909252909120549192506104a9916104a390670de0b6b3a76400009061049d9061047e90610478886108b7565b90610d69565b6001600160a01b0389166000908152600f602052604090205490610d75565b90610d81565b90610d8d565b9392505050565b6001546001600160a01b031633146104e35760405162461bcd60e51b81526004016104da90610ef1565b60405180910390fd5b6001600160a01b0382166000818152602081815260409182902054825160ff90911615158152841515918101919091527f82f1fa40a3d82dea3e406073819290601f436580aa7c69f9feb61f885bdd8854910160405180910390a26001600160a01b03919091166000908152602081905260409020805460ff1916911515919091179055565b60028054036105ba5760405162461bcd60e51b815260206004820152601f60248201527f5265656e7472616e637947756172643a207265656e7472616e742063616c6c0060448201526064016104da565b60028055336000818152600d602052604090205460065481116105dc57506006545b60006105e88242610af9565b90506105f3816108b7565b600b5542600a556001600160a01b038316156106455761061283610408565b6001600160a01b038416600090815260046020908152604080832093909355600b54600c825283832055600d9052204290555b33600090815260046020526040902054801561071b5733600081815260046020819052604080832092909255600354915163a9059cbb60e01b815290810192909252602482018390526001600160a01b03169063a9059cbb906044016020604051808303816000875af11580156106c0573d6000803e3d6000fd5b505050506040513d601f19601f820116820180604052508101906106e49190610f33565b5060405181815233907fe2403640ba68fed3a2f88b7557551d1993f84b99bb10ff833f0cf8db0c5e04869060200160405180910390a25b505060016002555050565b61072f33610250565b61074b5760405162461bcd60e51b81526004016104da90610f50565b600655565b600060065460000361076457505060065490565b6000600754600654846107779190610fa8565b6107819190610fd1565b61078c906001610fe5565b60055490915060005b828110156107d3576009546008546107ad9084610ff8565b6107b79190610fd1565b6107c19083610fa8565b91506107cc8161100f565b9050610795565b509392505050565b60006006546000036107ef57505060065490565b6000600754600654846108029190610fa8565b61080c9190610fd1565b610817906001610fe5565b60055490915060005b8281101561085e576009546008546108389084610ff8565b6108429190610fd1565b61084c9083610fa8565b91506108578161100f565b9050610820565b5060095460085461086f9083610ff8565b6108799190610fd1565b949350505050565b6001546001600160a01b031633146108ab5760405162461bcd60e51b81526004016104da90610ef1565b6108b56000610d99565b565b6000600e546000036108cb575050600b5490565b6109006108f7600e5461049d670de0b6b3a76400006108f1876108f1600a546104784290565b90610d75565b600b5490610d8d565b92915050565b6000610911426107db565b905090565b60028054036109675760405162461bcd60e51b815260206004820152601f60248201527f5265656e7472616e637947756172643a207265656e7472616e742063616c6c0060448201526064016104da565b6002805561097433610250565b6109905760405162461bcd60e51b81526004016104da90610f50565b336000818152600d602052604090205460065481116109ae57506006545b60006109ba8242610af9565b90506109c5816108b7565b600b5542600a556001600160a01b03831615610a17576109e483610408565b6001600160a01b038416600090815260046020908152604080832093909355600b54600c825283832055600d9052204290555b60008411610a585760405162461bcd60e51b815260206004820152600e60248201526d043616e6e6f74207374616b6520360941b60448201526064016104da565b600e54610a659085610d8d565b600e556001600160a01b0385166000908152600f6020526040902054610a8b9085610d8d565b6001600160a01b0386166000818152600f6020526040908190209290925590517f9e71bc8eea02a63969f509818f2dafb9254532904319f9dbda79b67bd34a5f3d90610ada9087815260200190565b60405180910390a250506001600255505050565b600061091142610deb565b600060065460001480610b0c5750818310155b80610b15575082155b15610b2257506000610900565b600654831015610b325760065492505b600060075460075460065486610b489190610fa8565b610b529190611028565b600754610b5f9190610fa8565b610b699190611028565b9050600060075482610b7a876107db565b610b849190610ff8565b610b8e9190610fd1565b9050600060075460065486610ba39190610fa8565b610bad9190611028565b9050600060075482610bbe886107db565b610bc89190610ff8565b610bd29190610fd1565b905085610bdf8589610fe5565b1115610bf957610bee87610deb565b945050505050610900565b60008488610c07858a610fa8565b610c119190610fa8565b610c1b9190610fa8565b90506000610c2889610750565b90506000806000839050600060075486610c429190610fd1565b905060005b81811015610c9357600954600854610c5f9085610ff8565b610c699190610fd1565b9350610c758484610fa8565b9250610c818486610fe5565b9450610c8c8161100f565b9050610c47565b50610c9e8d8d610fa8565b87610ca98b87610fe5565b610cb39190610fe5565b610cbd9190610fd1565b9d9c50505050505050505050505050565b6001546001600160a01b03163314610cf85760405162461bcd60e51b81526004016104da90610ef1565b6001600160a01b038116610d5d5760405162461bcd60e51b815260206004820152602660248201527f4f776e61626c653a206e6577206f776e657220697320746865207a65726f206160448201526564647265737360d01b60648201526084016104da565b610d6681610d99565b50565b60006104a98284610fa8565b60006104a98284610ff8565b60006104a98284610fd1565b60006104a98284610fe5565b600180546001600160a01b038381166001600160a01b0319831681179093556040519116919082907f8be0079c531659141344cd1fd0a4f28419497f9722a3daafe3b4186f6b6457e090600090a35050565b600080610df7836107db565b9050600061087960075483610d8190919063ffffffff16565b80356001600160a01b0381168114610e2757600080fd5b919050565b600060208284031215610e3e57600080fd5b6104a982610e10565b8015158114610d6657600080fd5b60008060408385031215610e6857600080fd5b610e7183610e10565b91506020830135610e8181610e47565b809150509250929050565b600060208284031215610e9e57600080fd5b5035919050565b60008060408385031215610eb857600080fd5b610ec183610e10565b946020939093013593505050565b60008060408385031215610ee257600080fd5b50508035926020909101359150565b60208082526022908201527f41646d696e61626c653a2063616c6c6572206973206e6f7420746865206f776e60408201526132b960f11b606082015260800190565b600060208284031215610f4557600080fd5b81516104a981610e47565b60208082526022908201527f41646d696e61626c653a2063616c6c6572206973206e6f74207468652061646d60408201526134b760f11b606082015260800190565b634e487b7160e01b600052601160045260246000fd5b8181038181111561090057610900610f92565b634e487b7160e01b600052601260045260246000fd5b600082610fe057610fe0610fbb565b500490565b8082018082111561090057610900610f92565b808202811582820484141761090057610900610f92565b60006001820161102157611021610f92565b5060010190565b60008261103757611037610fbb565b50069056fea264697066735822122042b9f3f54b432115b5541a753ebc3b176af9272517c18d1c7fd87fecc66b3a3a64736f6c63430008110033",
					"opcodes": "PUSH1 0x80 PUSH1 0x40 MSTORE PUSH9 0x15AF1D78B58C400000 PUSH1 0x5 SSTORE PUSH1 0x3C PUSH1 0x7 SSTORE PUSH1 0x5 PUSH1 0x8 SSTORE PUSH2 0x3E8 PUSH1 0x9 SSTORE CALLVALUE DUP1 ISZERO PUSH2 0x2D JUMPI PUSH1 0x0 DUP1 REVERT JUMPDEST POP PUSH2 0x37 CALLER PUSH2 0x41 JUMP JUMPDEST PUSH1 0x1 PUSH1 0x2 SSTORE PUSH2 0x93 JUMP JUMPDEST PUSH1 0x1 DUP1 SLOAD PUSH1 0x1 PUSH1 0x1 PUSH1 0xA0 SHL SUB DUP4 DUP2 AND PUSH1 0x1 PUSH1 0x1 PUSH1 0xA0 SHL SUB NOT DUP4 AND DUP2 OR SWAP1 SWAP4 SSTORE PUSH1 0x40 MLOAD SWAP2 AND SWAP2 SWAP1 DUP3 SWAP1 PUSH32 0x8BE0079C531659141344CD1FD0A4F28419497F9722A3DAAFE3B4186F6B6457E0 SWAP1 PUSH1 0x0 SWAP1 LOG3 POP POP JUMP JUMPDEST PUSH2 0x1072 DUP1 PUSH2 0xA2 PUSH1 0x0 CODECOPY PUSH1 0x0 RETURN INVALID PUSH1 0x80 PUSH1 0x40 MSTORE CALLVALUE DUP1 ISZERO PUSH2 0x10 JUMPI PUSH1 0x0 DUP1 REVERT JUMPDEST POP PUSH1 0x4 CALLDATASIZE LT PUSH2 0x1D9 JUMPI PUSH1 0x0 CALLDATALOAD PUSH1 0xE0 SHR DUP1 PUSH4 0x80FAA57D GT PUSH2 0x104 JUMPI DUP1 PUSH4 0xADC9772E GT PUSH2 0xA2 JUMPI DUP1 PUSH4 0xD1AF0C7D GT PUSH2 0x71 JUMPI DUP1 PUSH4 0xD1AF0C7D EQ PUSH2 0x3C6 JUMPI DUP1 PUSH4 0xDA4F8431 EQ PUSH2 0x3D9 JUMPI DUP1 PUSH4 0xDF136D65 EQ PUSH2 0x3EC JUMPI DUP1 PUSH4 0xF2FDE38B EQ PUSH2 0x3F5 JUMPI PUSH1 0x0 DUP1 REVERT JUMPDEST DUP1 PUSH4 0xADC9772E EQ PUSH2 0x379 JUMPI DUP1 PUSH4 0xB79EC812 EQ PUSH2 0x38C JUMPI DUP1 PUSH4 0xC8F33C91 EQ PUSH2 0x3B5 JUMPI DUP1 PUSH4 0xCDDA56E0 EQ PUSH2 0x3BE JUMPI PUSH1 0x0 DUP1 REVERT JUMPDEST DUP1 PUSH4 0x8B876347 GT PUSH2 0xDE JUMPI DUP1 PUSH4 0x8B876347 EQ PUSH2 0x32C JUMPI DUP1 PUSH4 0x8DA5CB5B EQ PUSH2 0x34C JUMPI DUP1 PUSH4 0x9499C549 EQ PUSH2 0x371 JUMPI DUP1 PUSH4 0x9A5B17B0 EQ PUSH2 0x2F3 JUMPI PUSH1 0x0 DUP1 REVERT JUMPDEST DUP1 PUSH4 0x80FAA57D EQ PUSH2 0x2F3 JUMPI DUP1 PUSH4 0x8107368B EQ PUSH2 0x2F9 JUMPI DUP1 PUSH4 0x874C120B EQ PUSH2 0x319 JUMPI PUSH1 0x0 DUP1 REVERT JUMPDEST DUP1 PUSH4 0x3E0A322D GT PUSH2 0x17C JUMPI DUP1 PUSH4 0x6917C501 GT PUSH2 0x14B JUMPI DUP1 PUSH4 0x6917C501 EQ PUSH2 0x2D1 JUMPI DUP1 PUSH4 0x715018A6 EQ PUSH2 0x2D9 JUMPI DUP1 PUSH4 0x78E97925 EQ PUSH2 0x2E1 JUMPI DUP1 PUSH4 0x7A6FCEE7 EQ PUSH2 0x2EA JUMPI PUSH1 0x0 DUP1 REVERT JUMPDEST DUP1 PUSH4 0x3E0A322D EQ PUSH2 0x28F JUMPI DUP1 PUSH4 0x4DBDC4EB EQ PUSH2 0x2A2 JUMPI DUP1 PUSH4 0x5CFA91F4 EQ PUSH2 0x2B5 JUMPI DUP1 PUSH4 0x6139D4B4 EQ PUSH2 0x2C8 JUMPI PUSH1 0x0 DUP1 REVERT JUMPDEST DUP1 PUSH4 0x18E20ECF GT PUSH2 0x1B8 JUMPI DUP1 PUSH4 0x18E20ECF EQ PUSH2 0x22D JUMPI DUP1 PUSH4 0x24D7806C EQ PUSH2 0x242 JUMPI DUP1 PUSH4 0x3C4045CF EQ PUSH2 0x27E JUMPI DUP1 PUSH4 0x3D18B912 EQ PUSH2 0x287 JUMPI PUSH1 0x0 DUP1 REVERT JUMPDEST DUP1 PUSH3 0x8CC262 EQ PUSH2 0x1DE JUMPI DUP1 PUSH4 0x700037D EQ PUSH2 0x204 JUMPI DUP1 PUSH4 0xE15561A EQ PUSH2 0x224 JUMPI JUMPDEST PUSH1 0x0 DUP1 REVERT JUMPDEST PUSH2 0x1F1 PUSH2 0x1EC CALLDATASIZE PUSH1 0x4 PUSH2 0xE2C JUMP JUMPDEST PUSH2 0x408 JUMP JUMPDEST PUSH1 0x40 MLOAD SWAP1 DUP2 MSTORE PUSH1 0x20 ADD JUMPDEST PUSH1 0x40 MLOAD DUP1 SWAP2 SUB SWAP1 RETURN JUMPDEST PUSH2 0x1F1 PUSH2 0x212 CALLDATASIZE PUSH1 0x4 PUSH2 0xE2C JUMP JUMPDEST PUSH1 0x4 PUSH1 0x20 MSTORE PUSH1 0x0 SWAP1 DUP2 MSTORE PUSH1 0x40 SWAP1 KECCAK256 SLOAD DUP2 JUMP JUMPDEST PUSH2 0x1F1 PUSH1 0x5 SLOAD DUP2 JUMP JUMPDEST PUSH2 0x240 PUSH2 0x23B CALLDATASIZE PUSH1 0x4 PUSH2 0xE55 JUMP JUMPDEST PUSH2 0x4B0 JUMP JUMPDEST STOP JUMPDEST PUSH2 0x26E PUSH2 0x250 CALLDATASIZE PUSH1 0x4 PUSH2 0xE2C JUMP JUMPDEST PUSH1 0x1 PUSH1 0x1 PUSH1 0xA0 SHL SUB AND PUSH1 0x0 SWAP1 DUP2 MSTORE PUSH1 0x20 DUP2 SWAP1 MSTORE PUSH1 0x40 SWAP1 KECCAK256 SLOAD PUSH1 0xFF AND SWAP1 JUMP JUMPDEST PUSH1 0x40 MLOAD SWAP1 ISZERO ISZERO DUP2 MSTORE PUSH1 0x20 ADD PUSH2 0x1FB JUMP JUMPDEST PUSH2 0x1F1 PUSH1 0x8 SLOAD DUP2 JUMP JUMPDEST PUSH2 0x240 PUSH2 0x569 JUMP JUMPDEST PUSH2 0x240 PUSH2 0x29D CALLDATASIZE PUSH1 0x4 PUSH2 0xE8C JUMP JUMPDEST PUSH2 0x726 JUMP JUMPDEST PUSH2 0x1F1 PUSH2 0x2B0 CALLDATASIZE PUSH1 0x4 PUSH2 0xE8C JUMP JUMPDEST PUSH2 0x750 JUMP JUMPDEST PUSH2 0x1F1 PUSH2 0x2C3 CALLDATASIZE PUSH1 0x4 PUSH2 0xE8C JUMP JUMPDEST PUSH2 0x7DB JUMP JUMPDEST PUSH2 0x1F1 PUSH1 0x7 SLOAD DUP2 JUMP JUMPDEST PUSH1 0xE SLOAD PUSH2 0x1F1 JUMP JUMPDEST PUSH2 0x240 PUSH2 0x881 JUMP JUMPDEST PUSH2 0x1F1 PUSH1 0x6 SLOAD DUP2 JUMP JUMPDEST PUSH2 0x1F1 PUSH1 0x9 SLOAD DUP2 JUMP JUMPDEST TIMESTAMP PUSH2 0x1F1 JUMP JUMPDEST PUSH2 0x1F1 PUSH2 0x307 CALLDATASIZE PUSH1 0x4 PUSH2 0xE2C JUMP JUMPDEST PUSH1 0xD PUSH1 0x20 MSTORE PUSH1 0x0 SWAP1 DUP2 MSTORE PUSH1 0x40 SWAP1 KECCAK256 SLOAD DUP2 JUMP JUMPDEST PUSH2 0x1F1 PUSH2 0x327 CALLDATASIZE PUSH1 0x4 PUSH2 0xE8C JUMP JUMPDEST PUSH2 0x8B7 JUMP JUMPDEST PUSH2 0x1F1 PUSH2 0x33A CALLDATASIZE PUSH1 0x4 PUSH2 0xE2C JUMP JUMPDEST PUSH1 0xC PUSH1 0x20 MSTORE PUSH1 0x0 SWAP1 DUP2 MSTORE PUSH1 0x40 SWAP1 KECCAK256 SLOAD DUP2 JUMP JUMPDEST PUSH1 0x1 SLOAD PUSH1 0x1 PUSH1 0x1 PUSH1 0xA0 SHL SUB AND JUMPDEST PUSH1 0x40 MLOAD PUSH1 0x1 PUSH1 0x1 PUSH1 0xA0 SHL SUB SWAP1 SWAP2 AND DUP2 MSTORE PUSH1 0x20 ADD PUSH2 0x1FB JUMP JUMPDEST PUSH2 0x1F1 PUSH2 0x906 JUMP JUMPDEST PUSH2 0x240 PUSH2 0x387 CALLDATASIZE PUSH1 0x4 PUSH2 0xEA5 JUMP JUMPDEST PUSH2 0x916 JUMP JUMPDEST PUSH2 0x1F1 PUSH2 0x39A CALLDATASIZE PUSH1 0x4 PUSH2 0xE2C JUMP JUMPDEST PUSH1 0x1 PUSH1 0x1 PUSH1 0xA0 SHL SUB AND PUSH1 0x0 SWAP1 DUP2 MSTORE PUSH1 0xF PUSH1 0x20 MSTORE PUSH1 0x40 SWAP1 KECCAK256 SLOAD SWAP1 JUMP JUMPDEST PUSH2 0x1F1 PUSH1 0xA SLOAD DUP2 JUMP JUMPDEST PUSH2 0x1F1 PUSH2 0xAEE JUMP JUMPDEST PUSH1 0x3 SLOAD PUSH2 0x359 SWAP1 PUSH1 0x1 PUSH1 0x1 PUSH1 0xA0 SHL SUB AND DUP2 JUMP JUMPDEST PUSH2 0x1F1 PUSH2 0x3E7 CALLDATASIZE PUSH1 0x4 PUSH2 0xECF JUMP JUMPDEST PUSH2 0xAF9 JUMP JUMPDEST PUSH2 0x1F1 PUSH1 0xB SLOAD DUP2 JUMP JUMPDEST PUSH2 0x240 PUSH2 0x403 CALLDATASIZE PUSH1 0x4 PUSH2 0xE2C JUMP JUMPDEST PUSH2 0xCCE JUMP JUMPDEST PUSH1 0x1 PUSH1 0x1 PUSH1 0xA0 SHL SUB DUP2 AND PUSH1 0x0 SWAP1 DUP2 MSTORE PUSH1 0xD PUSH1 0x20 MSTORE PUSH1 0x40 DUP2 KECCAK256 SLOAD DUP2 SWAP1 PUSH2 0x42D SWAP1 TIMESTAMP PUSH2 0xAF9 JUMP JUMPDEST PUSH1 0x1 PUSH1 0x1 PUSH1 0xA0 SHL SUB DUP5 AND PUSH1 0x0 SWAP1 DUP2 MSTORE PUSH1 0x4 PUSH1 0x20 SWAP1 DUP2 MSTORE PUSH1 0x40 DUP1 DUP4 KECCAK256 SLOAD PUSH1 0xC SWAP1 SWAP3 MSTORE SWAP1 SWAP2 KECCAK256 SLOAD SWAP2 SWAP3 POP PUSH2 0x4A9 SWAP2 PUSH2 0x4A3 SWAP1 PUSH8 0xDE0B6B3A7640000 SWAP1 PUSH2 0x49D SWAP1 PUSH2 0x47E SWAP1 PUSH2 0x478 DUP9 PUSH2 0x8B7 JUMP JUMPDEST SWAP1 PUSH2 0xD69 JUMP JUMPDEST PUSH1 0x1 PUSH1 0x1 PUSH1 0xA0 SHL SUB DUP10 AND PUSH1 0x0 SWAP1 DUP2 MSTORE PUSH1 0xF PUSH1 0x20 MSTORE PUSH1 0x40 SWAP1 KECCAK256 SLOAD SWAP1 PUSH2 0xD75 JUMP JUMPDEST SWAP1 PUSH2 0xD81 JUMP JUMPDEST SWAP1 PUSH2 0xD8D JUMP JUMPDEST SWAP4 SWAP3 POP POP POP JUMP JUMPDEST PUSH1 0x1 SLOAD PUSH1 0x1 PUSH1 0x1 PUSH1 0xA0 SHL SUB AND CALLER EQ PUSH2 0x4E3 JUMPI PUSH1 0x40 MLOAD PUSH3 0x461BCD PUSH1 0xE5 SHL DUP2 MSTORE PUSH1 0x4 ADD PUSH2 0x4DA SWAP1 PUSH2 0xEF1 JUMP JUMPDEST PUSH1 0x40 MLOAD DUP1 SWAP2 SUB SWAP1 REVERT JUMPDEST PUSH1 0x1 PUSH1 0x1 PUSH1 0xA0 SHL SUB DUP3 AND PUSH1 0x0 DUP2 DUP2 MSTORE PUSH1 0x20 DUP2 DUP2 MSTORE PUSH1 0x40 SWAP2 DUP3 SWAP1 KECCAK256 SLOAD DUP3 MLOAD PUSH1 0xFF SWAP1 SWAP2 AND ISZERO ISZERO DUP2 MSTORE DUP5 ISZERO ISZERO SWAP2 DUP2 ADD SWAP2 SWAP1 SWAP2 MSTORE PUSH32 0x82F1FA40A3D82DEA3E406073819290601F436580AA7C69F9FEB61F885BDD8854 SWAP2 ADD PUSH1 0x40 MLOAD DUP1 SWAP2 SUB SWAP1 LOG2 PUSH1 0x1 PUSH1 0x1 PUSH1 0xA0 SHL SUB SWAP2 SWAP1 SWAP2 AND PUSH1 0x0 SWAP1 DUP2 MSTORE PUSH1 0x20 DUP2 SWAP1 MSTORE PUSH1 0x40 SWAP1 KECCAK256 DUP1 SLOAD PUSH1 0xFF NOT AND SWAP2 ISZERO ISZERO SWAP2 SWAP1 SWAP2 OR SWAP1 SSTORE JUMP JUMPDEST PUSH1 0x2 DUP1 SLOAD SUB PUSH2 0x5BA JUMPI PUSH1 0x40 MLOAD PUSH3 0x461BCD PUSH1 0xE5 SHL DUP2 MSTORE PUSH1 0x20 PUSH1 0x4 DUP3 ADD MSTORE PUSH1 0x1F PUSH1 0x24 DUP3 ADD MSTORE PUSH32 0x5265656E7472616E637947756172643A207265656E7472616E742063616C6C00 PUSH1 0x44 DUP3 ADD MSTORE PUSH1 0x64 ADD PUSH2 0x4DA JUMP JUMPDEST PUSH1 0x2 DUP1 SSTORE CALLER PUSH1 0x0 DUP2 DUP2 MSTORE PUSH1 0xD PUSH1 0x20 MSTORE PUSH1 0x40 SWAP1 KECCAK256 SLOAD PUSH1 0x6 SLOAD DUP2 GT PUSH2 0x5DC JUMPI POP PUSH1 0x6 SLOAD JUMPDEST PUSH1 0x0 PUSH2 0x5E8 DUP3 TIMESTAMP PUSH2 0xAF9 JUMP JUMPDEST SWAP1 POP PUSH2 0x5F3 DUP2 PUSH2 0x8B7 JUMP JUMPDEST PUSH1 0xB SSTORE TIMESTAMP PUSH1 0xA SSTORE PUSH1 0x1 PUSH1 0x1 PUSH1 0xA0 SHL SUB DUP4 AND ISZERO PUSH2 0x645 JUMPI PUSH2 0x612 DUP4 PUSH2 0x408 JUMP JUMPDEST PUSH1 0x1 PUSH1 0x1 PUSH1 0xA0 SHL SUB DUP5 AND PUSH1 0x0 SWAP1 DUP2 MSTORE PUSH1 0x4 PUSH1 0x20 SWAP1 DUP2 MSTORE PUSH1 0x40 DUP1 DUP4 KECCAK256 SWAP4 SWAP1 SWAP4 SSTORE PUSH1 0xB SLOAD PUSH1 0xC DUP3 MSTORE DUP4 DUP4 KECCAK256 SSTORE PUSH1 0xD SWAP1 MSTORE KECCAK256 TIMESTAMP SWAP1 SSTORE JUMPDEST CALLER PUSH1 0x0 SWAP1 DUP2 MSTORE PUSH1 0x4 PUSH1 0x20 MSTORE PUSH1 0x40 SWAP1 KECCAK256 SLOAD DUP1 ISZERO PUSH2 0x71B JUMPI CALLER PUSH1 0x0 DUP2 DUP2 MSTORE PUSH1 0x4 PUSH1 0x20 DUP2 SWAP1 MSTORE PUSH1 0x40 DUP1 DUP4 KECCAK256 SWAP3 SWAP1 SWAP3 SSTORE PUSH1 0x3 SLOAD SWAP2 MLOAD PUSH4 0xA9059CBB PUSH1 0xE0 SHL DUP2 MSTORE SWAP1 DUP2 ADD SWAP3 SWAP1 SWAP3 MSTORE PUSH1 0x24 DUP3 ADD DUP4 SWAP1 MSTORE PUSH1 0x1 PUSH1 0x1 PUSH1 0xA0 SHL SUB AND SWAP1 PUSH4 0xA9059CBB SWAP1 PUSH1 0x44 ADD PUSH1 0x20 PUSH1 0x40 MLOAD DUP1 DUP4 SUB DUP2 PUSH1 0x0 DUP8 GAS CALL ISZERO DUP1 ISZERO PUSH2 0x6C0 JUMPI RETURNDATASIZE PUSH1 0x0 DUP1 RETURNDATACOPY RETURNDATASIZE PUSH1 0x0 REVERT JUMPDEST POP POP POP POP PUSH1 0x40 MLOAD RETURNDATASIZE PUSH1 0x1F NOT PUSH1 0x1F DUP3 ADD AND DUP3 ADD DUP1 PUSH1 0x40 MSTORE POP DUP2 ADD SWAP1 PUSH2 0x6E4 SWAP2 SWAP1 PUSH2 0xF33 JUMP JUMPDEST POP PUSH1 0x40 MLOAD DUP2 DUP2 MSTORE CALLER SWAP1 PUSH32 0xE2403640BA68FED3A2F88B7557551D1993F84B99BB10FF833F0CF8DB0C5E0486 SWAP1 PUSH1 0x20 ADD PUSH1 0x40 MLOAD DUP1 SWAP2 SUB SWAP1 LOG2 JUMPDEST POP POP PUSH1 0x1 PUSH1 0x2 SSTORE POP POP JUMP JUMPDEST PUSH2 0x72F CALLER PUSH2 0x250 JUMP JUMPDEST PUSH2 0x74B JUMPI PUSH1 0x40 MLOAD PUSH3 0x461BCD PUSH1 0xE5 SHL DUP2 MSTORE PUSH1 0x4 ADD PUSH2 0x4DA SWAP1 PUSH2 0xF50 JUMP JUMPDEST PUSH1 0x6 SSTORE JUMP JUMPDEST PUSH1 0x0 PUSH1 0x6 SLOAD PUSH1 0x0 SUB PUSH2 0x764 JUMPI POP POP PUSH1 0x6 SLOAD SWAP1 JUMP JUMPDEST PUSH1 0x0 PUSH1 0x7 SLOAD PUSH1 0x6 SLOAD DUP5 PUSH2 0x777 SWAP2 SWAP1 PUSH2 0xFA8 JUMP JUMPDEST PUSH2 0x781 SWAP2 SWAP1 PUSH2 0xFD1 JUMP JUMPDEST PUSH2 0x78C SWAP1 PUSH1 0x1 PUSH2 0xFE5 JUMP JUMPDEST PUSH1 0x5 SLOAD SWAP1 SWAP2 POP PUSH1 0x0 JUMPDEST DUP3 DUP2 LT ISZERO PUSH2 0x7D3 JUMPI PUSH1 0x9 SLOAD PUSH1 0x8 SLOAD PUSH2 0x7AD SWAP1 DUP5 PUSH2 0xFF8 JUMP JUMPDEST PUSH2 0x7B7 SWAP2 SWAP1 PUSH2 0xFD1 JUMP JUMPDEST PUSH2 0x7C1 SWAP1 DUP4 PUSH2 0xFA8 JUMP JUMPDEST SWAP2 POP PUSH2 0x7CC DUP2 PUSH2 0x100F JUMP JUMPDEST SWAP1 POP PUSH2 0x795 JUMP JUMPDEST POP SWAP4 SWAP3 POP POP POP JUMP JUMPDEST PUSH1 0x0 PUSH1 0x6 SLOAD PUSH1 0x0 SUB PUSH2 0x7EF JUMPI POP POP PUSH1 0x6 SLOAD SWAP1 JUMP JUMPDEST PUSH1 0x0 PUSH1 0x7 SLOAD PUSH1 0x6 SLOAD DUP5 PUSH2 0x802 SWAP2 SWAP1 PUSH2 0xFA8 JUMP JUMPDEST PUSH2 0x80C SWAP2 SWAP1 PUSH2 0xFD1 JUMP JUMPDEST PUSH2 0x817 SWAP1 PUSH1 0x1 PUSH2 0xFE5 JUMP JUMPDEST PUSH1 0x5 SLOAD SWAP1 SWAP2 POP PUSH1 0x0 JUMPDEST DUP3 DUP2 LT ISZERO PUSH2 0x85E JUMPI PUSH1 0x9 SLOAD PUSH1 0x8 SLOAD PUSH2 0x838 SWAP1 DUP5 PUSH2 0xFF8 JUMP JUMPDEST PUSH2 0x842 SWAP2 SWAP1 PUSH2 0xFD1 JUMP JUMPDEST PUSH2 0x84C SWAP1 DUP4 PUSH2 0xFA8 JUMP JUMPDEST SWAP2 POP PUSH2 0x857 DUP2 PUSH2 0x100F JUMP JUMPDEST SWAP1 POP PUSH2 0x820 JUMP JUMPDEST POP PUSH1 0x9 SLOAD PUSH1 0x8 SLOAD PUSH2 0x86F SWAP1 DUP4 PUSH2 0xFF8 JUMP JUMPDEST PUSH2 0x879 SWAP2 SWAP1 PUSH2 0xFD1 JUMP JUMPDEST SWAP5 SWAP4 POP POP POP POP JUMP JUMPDEST PUSH1 0x1 SLOAD PUSH1 0x1 PUSH1 0x1 PUSH1 0xA0 SHL SUB AND CALLER EQ PUSH2 0x8AB JUMPI PUSH1 0x40 MLOAD PUSH3 0x461BCD PUSH1 0xE5 SHL DUP2 MSTORE PUSH1 0x4 ADD PUSH2 0x4DA SWAP1 PUSH2 0xEF1 JUMP JUMPDEST PUSH2 0x8B5 PUSH1 0x0 PUSH2 0xD99 JUMP JUMPDEST JUMP JUMPDEST PUSH1 0x0 PUSH1 0xE SLOAD PUSH1 0x0 SUB PUSH2 0x8CB JUMPI POP POP PUSH1 0xB SLOAD SWAP1 JUMP JUMPDEST PUSH2 0x900 PUSH2 0x8F7 PUSH1 0xE SLOAD PUSH2 0x49D PUSH8 0xDE0B6B3A7640000 PUSH2 0x8F1 DUP8 PUSH2 0x8F1 PUSH1 0xA SLOAD PUSH2 0x478 TIMESTAMP SWAP1 JUMP JUMPDEST SWAP1 PUSH2 0xD75 JUMP JUMPDEST PUSH1 0xB SLOAD SWAP1 PUSH2 0xD8D JUMP JUMPDEST SWAP3 SWAP2 POP POP JUMP JUMPDEST PUSH1 0x0 PUSH2 0x911 TIMESTAMP PUSH2 0x7DB JUMP JUMPDEST SWAP1 POP SWAP1 JUMP JUMPDEST PUSH1 0x2 DUP1 SLOAD SUB PUSH2 0x967 JUMPI PUSH1 0x40 MLOAD PUSH3 0x461BCD PUSH1 0xE5 SHL DUP2 MSTORE PUSH1 0x20 PUSH1 0x4 DUP3 ADD MSTORE PUSH1 0x1F PUSH1 0x24 DUP3 ADD MSTORE PUSH32 0x5265656E7472616E637947756172643A207265656E7472616E742063616C6C00 PUSH1 0x44 DUP3 ADD MSTORE PUSH1 0x64 ADD PUSH2 0x4DA JUMP JUMPDEST PUSH1 0x2 DUP1 SSTORE PUSH2 0x974 CALLER PUSH2 0x250 JUMP JUMPDEST PUSH2 0x990 JUMPI PUSH1 0x40 MLOAD PUSH3 0x461BCD PUSH1 0xE5 SHL DUP2 MSTORE PUSH1 0x4 ADD PUSH2 0x4DA SWAP1 PUSH2 0xF50 JUMP JUMPDEST CALLER PUSH1 0x0 DUP2 DUP2 MSTORE PUSH1 0xD PUSH1 0x20 MSTORE PUSH1 0x40 SWAP1 KECCAK256 SLOAD PUSH1 0x6 SLOAD DUP2 GT PUSH2 0x9AE JUMPI POP PUSH1 0x6 SLOAD JUMPDEST PUSH1 0x0 PUSH2 0x9BA DUP3 TIMESTAMP PUSH2 0xAF9 JUMP JUMPDEST SWAP1 POP PUSH2 0x9C5 DUP2 PUSH2 0x8B7 JUMP JUMPDEST PUSH1 0xB SSTORE TIMESTAMP PUSH1 0xA SSTORE PUSH1 0x1 PUSH1 0x1 PUSH1 0xA0 SHL SUB DUP4 AND ISZERO PUSH2 0xA17 JUMPI PUSH2 0x9E4 DUP4 PUSH2 0x408 JUMP JUMPDEST PUSH1 0x1 PUSH1 0x1 PUSH1 0xA0 SHL SUB DUP5 AND PUSH1 0x0 SWAP1 DUP2 MSTORE PUSH1 0x4 PUSH1 0x20 SWAP1 DUP2 MSTORE PUSH1 0x40 DUP1 DUP4 KECCAK256 SWAP4 SWAP1 SWAP4 SSTORE PUSH1 0xB SLOAD PUSH1 0xC DUP3 MSTORE DUP4 DUP4 KECCAK256 SSTORE PUSH1 0xD SWAP1 MSTORE KECCAK256 TIMESTAMP SWAP1 SSTORE JUMPDEST PUSH1 0x0 DUP5 GT PUSH2 0xA58 JUMPI PUSH1 0x40 MLOAD PUSH3 0x461BCD PUSH1 0xE5 SHL DUP2 MSTORE PUSH1 0x20 PUSH1 0x4 DUP3 ADD MSTORE PUSH1 0xE PUSH1 0x24 DUP3 ADD MSTORE PUSH14 0x43616E6E6F74207374616B65203 PUSH1 0x94 SHL PUSH1 0x44 DUP3 ADD MSTORE PUSH1 0x64 ADD PUSH2 0x4DA JUMP JUMPDEST PUSH1 0xE SLOAD PUSH2 0xA65 SWAP1 DUP6 PUSH2 0xD8D JUMP JUMPDEST PUSH1 0xE SSTORE PUSH1 0x1 PUSH1 0x1 PUSH1 0xA0 SHL SUB DUP6 AND PUSH1 0x0 SWAP1 DUP2 MSTORE PUSH1 0xF PUSH1 0x20 MSTORE PUSH1 0x40 SWAP1 KECCAK256 SLOAD PUSH2 0xA8B SWAP1 DUP6 PUSH2 0xD8D JUMP JUMPDEST PUSH1 0x1 PUSH1 0x1 PUSH1 0xA0 SHL SUB DUP7 AND PUSH1 0x0 DUP2 DUP2 MSTORE PUSH1 0xF PUSH1 0x20 MSTORE PUSH1 0x40 SWAP1 DUP2 SWAP1 KECCAK256 SWAP3 SWAP1 SWAP3 SSTORE SWAP1 MLOAD PUSH32 0x9E71BC8EEA02A63969F509818F2DAFB9254532904319F9DBDA79B67BD34A5F3D SWAP1 PUSH2 0xADA SWAP1 DUP8 DUP2 MSTORE PUSH1 0x20 ADD SWAP1 JUMP JUMPDEST PUSH1 0x40 MLOAD DUP1 SWAP2 SUB SWAP1 LOG2 POP POP PUSH1 0x1 PUSH1 0x2 SSTORE POP POP POP JUMP JUMPDEST PUSH1 0x0 PUSH2 0x911 TIMESTAMP PUSH2 0xDEB JUMP JUMPDEST PUSH1 0x0 PUSH1 0x6 SLOAD PUSH1 0x0 EQ DUP1 PUSH2 0xB0C JUMPI POP DUP2 DUP4 LT ISZERO JUMPDEST DUP1 PUSH2 0xB15 JUMPI POP DUP3 ISZERO JUMPDEST ISZERO PUSH2 0xB22 JUMPI POP PUSH1 0x0 PUSH2 0x900 JUMP JUMPDEST PUSH1 0x6 SLOAD DUP4 LT ISZERO PUSH2 0xB32 JUMPI PUSH1 0x6 SLOAD SWAP3 POP JUMPDEST PUSH1 0x0 PUSH1 0x7 SLOAD PUSH1 0x7 SLOAD PUSH1 0x6 SLOAD DUP7 PUSH2 0xB48 SWAP2 SWAP1 PUSH2 0xFA8 JUMP JUMPDEST PUSH2 0xB52 SWAP2 SWAP1 PUSH2 0x1028 JUMP JUMPDEST PUSH1 0x7 SLOAD PUSH2 0xB5F SWAP2 SWAP1 PUSH2 0xFA8 JUMP JUMPDEST PUSH2 0xB69 SWAP2 SWAP1 PUSH2 0x1028 JUMP JUMPDEST SWAP1 POP PUSH1 0x0 PUSH1 0x7 SLOAD DUP3 PUSH2 0xB7A DUP8 PUSH2 0x7DB JUMP JUMPDEST PUSH2 0xB84 SWAP2 SWAP1 PUSH2 0xFF8 JUMP JUMPDEST PUSH2 0xB8E SWAP2 SWAP1 PUSH2 0xFD1 JUMP JUMPDEST SWAP1 POP PUSH1 0x0 PUSH1 0x7 SLOAD PUSH1 0x6 SLOAD DUP7 PUSH2 0xBA3 SWAP2 SWAP1 PUSH2 0xFA8 JUMP JUMPDEST PUSH2 0xBAD SWAP2 SWAP1 PUSH2 0x1028 JUMP JUMPDEST SWAP1 POP PUSH1 0x0 PUSH1 0x7 SLOAD DUP3 PUSH2 0xBBE DUP9 PUSH2 0x7DB JUMP JUMPDEST PUSH2 0xBC8 SWAP2 SWAP1 PUSH2 0xFF8 JUMP JUMPDEST PUSH2 0xBD2 SWAP2 SWAP1 PUSH2 0xFD1 JUMP JUMPDEST SWAP1 POP DUP6 PUSH2 0xBDF DUP6 DUP10 PUSH2 0xFE5 JUMP JUMPDEST GT ISZERO PUSH2 0xBF9 JUMPI PUSH2 0xBEE DUP8 PUSH2 0xDEB JUMP JUMPDEST SWAP5 POP POP POP POP POP PUSH2 0x900 JUMP JUMPDEST PUSH1 0x0 DUP5 DUP9 PUSH2 0xC07 DUP6 DUP11 PUSH2 0xFA8 JUMP JUMPDEST PUSH2 0xC11 SWAP2 SWAP1 PUSH2 0xFA8 JUMP JUMPDEST PUSH2 0xC1B SWAP2 SWAP1 PUSH2 0xFA8 JUMP JUMPDEST SWAP1 POP PUSH1 0x0 PUSH2 0xC28 DUP10 PUSH2 0x750 JUMP JUMPDEST SWAP1 POP PUSH1 0x0 DUP1 PUSH1 0x0 DUP4 SWAP1 POP PUSH1 0x0 PUSH1 0x7 SLOAD DUP7 PUSH2 0xC42 SWAP2 SWAP1 PUSH2 0xFD1 JUMP JUMPDEST SWAP1 POP PUSH1 0x0 JUMPDEST DUP2 DUP2 LT ISZERO PUSH2 0xC93 JUMPI PUSH1 0x9 SLOAD PUSH1 0x8 SLOAD PUSH2 0xC5F SWAP1 DUP6 PUSH2 0xFF8 JUMP JUMPDEST PUSH2 0xC69 SWAP2 SWAP1 PUSH2 0xFD1 JUMP JUMPDEST SWAP4 POP PUSH2 0xC75 DUP5 DUP5 PUSH2 0xFA8 JUMP JUMPDEST SWAP3 POP PUSH2 0xC81 DUP5 DUP7 PUSH2 0xFE5 JUMP JUMPDEST SWAP5 POP PUSH2 0xC8C DUP2 PUSH2 0x100F JUMP JUMPDEST SWAP1 POP PUSH2 0xC47 JUMP JUMPDEST POP PUSH2 0xC9E DUP14 DUP14 PUSH2 0xFA8 JUMP JUMPDEST DUP8 PUSH2 0xCA9 DUP12 DUP8 PUSH2 0xFE5 JUMP JUMPDEST PUSH2 0xCB3 SWAP2 SWAP1 PUSH2 0xFE5 JUMP JUMPDEST PUSH2 0xCBD SWAP2 SWAP1 PUSH2 0xFD1 JUMP JUMPDEST SWAP14 SWAP13 POP POP POP POP POP POP POP POP POP POP POP POP POP JUMP JUMPDEST PUSH1 0x1 SLOAD PUSH1 0x1 PUSH1 0x1 PUSH1 0xA0 SHL SUB AND CALLER EQ PUSH2 0xCF8 JUMPI PUSH1 0x40 MLOAD PUSH3 0x461BCD PUSH1 0xE5 SHL DUP2 MSTORE PUSH1 0x4 ADD PUSH2 0x4DA SWAP1 PUSH2 0xEF1 JUMP JUMPDEST PUSH1 0x1 PUSH1 0x1 PUSH1 0xA0 SHL SUB DUP2 AND PUSH2 0xD5D JUMPI PUSH1 0x40 MLOAD PUSH3 0x461BCD PUSH1 0xE5 SHL DUP2 MSTORE PUSH1 0x20 PUSH1 0x4 DUP3 ADD MSTORE PUSH1 0x26 PUSH1 0x24 DUP3 ADD MSTORE PUSH32 0x4F776E61626C653A206E6577206F776E657220697320746865207A65726F2061 PUSH1 0x44 DUP3 ADD MSTORE PUSH6 0x646472657373 PUSH1 0xD0 SHL PUSH1 0x64 DUP3 ADD MSTORE PUSH1 0x84 ADD PUSH2 0x4DA JUMP JUMPDEST PUSH2 0xD66 DUP2 PUSH2 0xD99 JUMP JUMPDEST POP JUMP JUMPDEST PUSH1 0x0 PUSH2 0x4A9 DUP3 DUP5 PUSH2 0xFA8 JUMP JUMPDEST PUSH1 0x0 PUSH2 0x4A9 DUP3 DUP5 PUSH2 0xFF8 JUMP JUMPDEST PUSH1 0x0 PUSH2 0x4A9 DUP3 DUP5 PUSH2 0xFD1 JUMP JUMPDEST PUSH1 0x0 PUSH2 0x4A9 DUP3 DUP5 PUSH2 0xFE5 JUMP JUMPDEST PUSH1 0x1 DUP1 SLOAD PUSH1 0x1 PUSH1 0x1 PUSH1 0xA0 SHL SUB DUP4 DUP2 AND PUSH1 0x1 PUSH1 0x1 PUSH1 0xA0 SHL SUB NOT DUP4 AND DUP2 OR SWAP1 SWAP4 SSTORE PUSH1 0x40 MLOAD SWAP2 AND SWAP2 SWAP1 DUP3 SWAP1 PUSH32 0x8BE0079C531659141344CD1FD0A4F28419497F9722A3DAAFE3B4186F6B6457E0 SWAP1 PUSH1 0x0 SWAP1 LOG3 POP POP JUMP JUMPDEST PUSH1 0x0 DUP1 PUSH2 0xDF7 DUP4 PUSH2 0x7DB JUMP JUMPDEST SWAP1 POP PUSH1 0x0 PUSH2 0x879 PUSH1 0x7 SLOAD DUP4 PUSH2 0xD81 SWAP1 SWAP2 SWAP1 PUSH4 0xFFFFFFFF AND JUMP JUMPDEST DUP1 CALLDATALOAD PUSH1 0x1 PUSH1 0x1 PUSH1 0xA0 SHL SUB DUP2 AND DUP2 EQ PUSH2 0xE27 JUMPI PUSH1 0x0 DUP1 REVERT JUMPDEST SWAP2 SWAP1 POP JUMP JUMPDEST PUSH1 0x0 PUSH1 0x20 DUP3 DUP5 SUB SLT ISZERO PUSH2 0xE3E JUMPI PUSH1 0x0 DUP1 REVERT JUMPDEST PUSH2 0x4A9 DUP3 PUSH2 0xE10 JUMP JUMPDEST DUP1 ISZERO ISZERO DUP2 EQ PUSH2 0xD66 JUMPI PUSH1 0x0 DUP1 REVERT JUMPDEST PUSH1 0x0 DUP1 PUSH1 0x40 DUP4 DUP6 SUB SLT ISZERO PUSH2 0xE68 JUMPI PUSH1 0x0 DUP1 REVERT JUMPDEST PUSH2 0xE71 DUP4 PUSH2 0xE10 JUMP JUMPDEST SWAP2 POP PUSH1 0x20 DUP4 ADD CALLDATALOAD PUSH2 0xE81 DUP2 PUSH2 0xE47 JUMP JUMPDEST DUP1 SWAP2 POP POP SWAP3 POP SWAP3 SWAP1 POP JUMP JUMPDEST PUSH1 0x0 PUSH1 0x20 DUP3 DUP5 SUB SLT ISZERO PUSH2 0xE9E JUMPI PUSH1 0x0 DUP1 REVERT JUMPDEST POP CALLDATALOAD SWAP2 SWAP1 POP JUMP JUMPDEST PUSH1 0x0 DUP1 PUSH1 0x40 DUP4 DUP6 SUB SLT ISZERO PUSH2 0xEB8 JUMPI PUSH1 0x0 DUP1 REVERT JUMPDEST PUSH2 0xEC1 DUP4 PUSH2 0xE10 JUMP JUMPDEST SWAP5 PUSH1 0x20 SWAP4 SWAP1 SWAP4 ADD CALLDATALOAD SWAP4 POP POP POP JUMP JUMPDEST PUSH1 0x0 DUP1 PUSH1 0x40 DUP4 DUP6 SUB SLT ISZERO PUSH2 0xEE2 JUMPI PUSH1 0x0 DUP1 REVERT JUMPDEST POP POP DUP1 CALLDATALOAD SWAP3 PUSH1 0x20 SWAP1 SWAP2 ADD CALLDATALOAD SWAP2 POP JUMP JUMPDEST PUSH1 0x20 DUP1 DUP3 MSTORE PUSH1 0x22 SWAP1 DUP3 ADD MSTORE PUSH32 0x41646D696E61626C653A2063616C6C6572206973206E6F7420746865206F776E PUSH1 0x40 DUP3 ADD MSTORE PUSH2 0x32B9 PUSH1 0xF1 SHL PUSH1 0x60 DUP3 ADD MSTORE PUSH1 0x80 ADD SWAP1 JUMP JUMPDEST PUSH1 0x0 PUSH1 0x20 DUP3 DUP5 SUB SLT ISZERO PUSH2 0xF45 JUMPI PUSH1 0x0 DUP1 REVERT JUMPDEST DUP2 MLOAD PUSH2 0x4A9 DUP2 PUSH2 0xE47 JUMP JUMPDEST PUSH1 0x20 DUP1 DUP3 MSTORE PUSH1 0x22 SWAP1 DUP3 ADD MSTORE PUSH32 0x41646D696E61626C653A2063616C6C6572206973206E6F74207468652061646D PUSH1 0x40 DUP3 ADD MSTORE PUSH2 0x34B7 PUSH1 0xF1 SHL PUSH1 0x60 DUP3 ADD MSTORE PUSH1 0x80 ADD SWAP1 JUMP JUMPDEST PUSH4 0x4E487B71 PUSH1 0xE0 SHL PUSH1 0x0 MSTORE PUSH1 0x11 PUSH1 0x4 MSTORE PUSH1 0x24 PUSH1 0x0 REVERT JUMPDEST DUP2 DUP2 SUB DUP2 DUP2 GT ISZERO PUSH2 0x900 JUMPI PUSH2 0x900 PUSH2 0xF92 JUMP JUMPDEST PUSH4 0x4E487B71 PUSH1 0xE0 SHL PUSH1 0x0 MSTORE PUSH1 0x12 PUSH1 0x4 MSTORE PUSH1 0x24 PUSH1 0x0 REVERT JUMPDEST PUSH1 0x0 DUP3 PUSH2 0xFE0 JUMPI PUSH2 0xFE0 PUSH2 0xFBB JUMP JUMPDEST POP DIV SWAP1 JUMP JUMPDEST DUP1 DUP3 ADD DUP1 DUP3 GT ISZERO PUSH2 0x900 JUMPI PUSH2 0x900 PUSH2 0xF92 JUMP JUMPDEST DUP1 DUP3 MUL DUP2 ISZERO DUP3 DUP3 DIV DUP5 EQ OR PUSH2 0x900 JUMPI PUSH2 0x900 PUSH2 0xF92 JUMP JUMPDEST PUSH1 0x0 PUSH1 0x1 DUP3 ADD PUSH2 0x1021 JUMPI PUSH2 0x1021 PUSH2 0xF92 JUMP JUMPDEST POP PUSH1 0x1 ADD SWAP1 JUMP JUMPDEST PUSH1 0x0 DUP3 PUSH2 0x1037 JUMPI PUSH2 0x1037 PUSH2 0xFBB JUMP JUMPDEST POP MOD SWAP1 JUMP INVALID LOG2 PUSH5 0x6970667358 0x22 SLT KECCAK256 TIMESTAMP 0xB9 RETURN CREATE2 0x4B NUMBER 0x21 ISZERO 0xB5 SLOAD BYTE PUSH22 0x3EBC3B176AF9272517C18D1C7FD87FECC66B3A3A6473 PUSH16 0x6C634300081100330000000000000000 "
				},
				"gasEstimates": {
					"creation": {
						"codeDepositCost": "842000",
						"executionCost": "137251",
						"totalCost": "979251"
					},
					"external": {
						"curTime()": "291",
						"earned(address)": "infinite",
						"getCurRewardPool()": "infinite",
						"getCurRewardRate()": "infinite",
						"getRemainPool(uint256)": "infinite",
						"getReward()": "infinite",
						"getRewardPool(uint256)": "infinite",
						"getTimeWeightedAveRate(uint256,uint256)": "infinite",
						"isAdmin(address)": "2620",
						"lastTimeRewardApplicable()": "226",
						"lastUpdateTime()": "2373",
						"modificationAdmin(address,bool)": "30844",
						"owner()": "2387",
						"powersOf(address)": "2593",
						"rateInterval()": "2396",
						"rateIntervalDenominator()": "2395",
						"rateIntervalNumerator()": "2374",
						"renounceOwnership()": "28184",
						"rewardPerToken(uint256)": "infinite",
						"rewardPerTokenStored()": "2372",
						"rewards(address)": "2577",
						"rewardsToken()": "2381",
						"setStartTime(uint256)": "24609",
						"stake(address,uint256)": "infinite",
						"startTime()": "2373",
						"totalPowers()": "2326",
						"totalRewards()": "2375",
						"transferOwnership(address)": "28422",
						"userLastUpdateTime(address)": "2576",
						"userRewardPerTokenPaid(address)": "2553"
					},
					"internal": {
						"_getRewardRate(uint256)": "infinite"
					}
				},
				"methodIdentifiers": {
					"curTime()": "9a5b17b0",
					"earned(address)": "008cc262",
					"getCurRewardPool()": "9499c549",
					"getCurRewardRate()": "cdda56e0",
					"getRemainPool(uint256)": "4dbdc4eb",
					"getReward()": "3d18b912",
					"getRewardPool(uint256)": "5cfa91f4",
					"getTimeWeightedAveRate(uint256,uint256)": "da4f8431",
					"isAdmin(address)": "24d7806c",
					"lastTimeRewardApplicable()": "80faa57d",
					"lastUpdateTime()": "c8f33c91",
					"modificationAdmin(address,bool)": "18e20ecf",
					"owner()": "8da5cb5b",
					"powersOf(address)": "b79ec812",
					"rateInterval()": "6139d4b4",
					"rateIntervalDenominator()": "7a6fcee7",
					"rateIntervalNumerator()": "3c4045cf",
					"renounceOwnership()": "715018a6",
					"rewardPerToken(uint256)": "874c120b",
					"rewardPerTokenStored()": "df136d65",
					"rewards(address)": "0700037d",
					"rewardsToken()": "d1af0c7d",
					"setStartTime(uint256)": "3e0a322d",
					"stake(address,uint256)": "adc9772e",
					"startTime()": "78e97925",
					"totalPowers()": "6917c501",
					"totalRewards()": "0e15561a",
					"transferOwnership(address)": "f2fde38b",
					"userLastUpdateTime(address)": "8107368b",
					"userRewardPerTokenPaid(address)": "8b876347"
				}
			},
			"storageLayout": {
				"storage": [
					{
						"astId": 26,
						"contract": "inviter_presell/stake.sol:StakingRewards",
						"label": "_admins",
						"offset": 0,
						"slot": "0",
						"type": "t_mapping(t_address,t_bool)"
					},
					{
						"astId": 28,
						"contract": "inviter_presell/stake.sol:StakingRewards",
						"label": "_owner",
						"offset": 0,
						"slot": "1",
						"type": "t_address"
					},
					{
						"astId": 858,
						"contract": "inviter_presell/stake.sol:StakingRewards",
						"label": "_status",
						"offset": 0,
						"slot": "2",
						"type": "t_uint256"
					},
					{
						"astId": 192,
						"contract": "inviter_presell/stake.sol:StakingRewards",
						"label": "rewardsToken",
						"offset": 0,
						"slot": "3",
						"type": "t_contract(IERC20)965"
					},
					{
						"astId": 196,
						"contract": "inviter_presell/stake.sol:StakingRewards",
						"label": "rewards",
						"offset": 0,
						"slot": "4",
						"type": "t_mapping(t_address,t_uint256)"
					},
					{
						"astId": 203,
						"contract": "inviter_presell/stake.sol:StakingRewards",
						"label": "totalRewards",
						"offset": 0,
						"slot": "5",
						"type": "t_uint256"
					},
					{
						"astId": 205,
						"contract": "inviter_presell/stake.sol:StakingRewards",
						"label": "startTime",
						"offset": 0,
						"slot": "6",
						"type": "t_uint256"
					},
					{
						"astId": 208,
						"contract": "inviter_presell/stake.sol:StakingRewards",
						"label": "rateInterval",
						"offset": 0,
						"slot": "7",
						"type": "t_uint256"
					},
					{
						"astId": 211,
						"contract": "inviter_presell/stake.sol:StakingRewards",
						"label": "rateIntervalNumerator",
						"offset": 0,
						"slot": "8",
						"type": "t_uint256"
					},
					{
						"astId": 214,
						"contract": "inviter_presell/stake.sol:StakingRewards",
						"label": "rateIntervalDenominator",
						"offset": 0,
						"slot": "9",
						"type": "t_uint256"
					},
					{
						"astId": 216,
						"contract": "inviter_presell/stake.sol:StakingRewards",
						"label": "lastUpdateTime",
						"offset": 0,
						"slot": "10",
						"type": "t_uint256"
					},
					{
						"astId": 218,
						"contract": "inviter_presell/stake.sol:StakingRewards",
						"label": "rewardPerTokenStored",
						"offset": 0,
						"slot": "11",
						"type": "t_uint256"
					},
					{
						"astId": 222,
						"contract": "inviter_presell/stake.sol:StakingRewards",
						"label": "userRewardPerTokenPaid",
						"offset": 0,
						"slot": "12",
						"type": "t_mapping(t_address,t_uint256)"
					},
					{
						"astId": 226,
						"contract": "inviter_presell/stake.sol:StakingRewards",
						"label": "userLastUpdateTime",
						"offset": 0,
						"slot": "13",
						"type": "t_mapping(t_address,t_uint256)"
					},
					{
						"astId": 228,
						"contract": "inviter_presell/stake.sol:StakingRewards",
						"label": "_totalPowers",
						"offset": 0,
						"slot": "14",
						"type": "t_uint256"
					},
					{
						"astId": 232,
						"contract": "inviter_presell/stake.sol:StakingRewards",
						"label": "_balances",
						"offset": 0,
						"slot": "15",
						"type": "t_mapping(t_address,t_uint256)"
					}
				],
				"types": {
					"t_address": {
						"encoding": "inplace",
						"label": "address",
						"numberOfBytes": "20"
					},
					"t_bool": {
						"encoding": "inplace",
						"label": "bool",
						"numberOfBytes": "1"
					},
					"t_contract(IERC20)965": {
						"encoding": "inplace",
						"label": "contract IERC20",
						"numberOfBytes": "20"
					},
					"t_mapping(t_address,t_bool)": {
						"encoding": "mapping",
						"key": "t_address",
						"label": "mapping(address => bool)",
						"numberOfBytes": "32",
						"value": "t_bool"
					},
					"t_mapping(t_address,t_uint256)": {
						"encoding": "mapping",
						"key": "t_address",
						"label": "mapping(address => uint256)",
						"numberOfBytes": "32",
						"value": "t_uint256"
					},
					"t_uint256": {
						"encoding": "inplace",
						"label": "uint256",
						"numberOfBytes": "32"
					}
				}
			},
			"userdoc": {
				"kind": "user",
				"methods": {},
				"version": 1
			}
		}
	}
}