{
	"data": {
		"bytecode": {
			"linkReferences": {},
			"object": "608060405234801561001057600080fd5b5061002d61002261003260201b60201c565b61003a60201b60201c565b6100fe565b600033905090565b60008060009054906101000a900473ffffffffffffffffffffffffffffffffffffffff169050816000806101000a81548173ffffffffffffffffffffffffffffffffffffffff021916908373ffffffffffffffffffffffffffffffffffffffff1602179055508173ffffffffffffffffffffffffffffffffffffffff168173ffffffffffffffffffffffffffffffffffffffff167f8be0079c531659141344cd1fd0a4f28419497f9722a3daafe3b4186f6b6457e060405160405180910390a35050565b610f358061010d6000396000f3fe608060405234801561001057600080fd5b506004361061007d5760003560e01c806371ef2c2e1161005b57806371ef2c2e146100c657806383f12fec146100e25780638da5cb5b146100fe578063f2fde38b1461011c5761007d565b806341906610146100825780636acd4f55146100a0578063715018a6146100bc575b600080fd5b61008a610138565b60405161009791906107b0565b60405180910390f35b6100ba60048036038101906100b5919061080b565b61015e565b005b6100c461021e565b005b6100e060048036038101906100db9190610a8a565b6102a6565b005b6100fc60048036038101906100f79190610b15565b61041c565b005b610106610583565b60405161011391906107b0565b60405180910390f35b6101366004803603810190610131919061080b565b6105ac565b005b600160009054906101000a900473ffffffffffffffffffffffffffffffffffffffff1681565b6101666106a3565b73ffffffffffffffffffffffffffffffffffffffff16610184610583565b73ffffffffffffffffffffffffffffffffffffffff16146101da576040517f08c379a00000000000000000000000000000000000000000000000000000000081526004016101d190610bce565b60405180910390fd5b80600160006101000a81548173ffffffffffffffffffffffffffffffffffffffff021916908373ffffffffffffffffffffffffffffffffffffffff16021790555050565b6102266106a3565b73ffffffffffffffffffffffffffffffffffffffff16610244610583565b73ffffffffffffffffffffffffffffffffffffffff161461029a576040517f08c379a000000000000000000000000000000000000000000000000000000000815260040161029190610bce565b60405180910390fd5b6102a460006106ab565b565b81518351146102ea576040517f08c379a00000000000000000000000000000000000000000000000000000000081526004016102e190610c3a565b60405180910390fd5b60005b835181101561041657600084828151811061030b5761030a610c5a565b5b60200260200101519050600084838151811061032a57610329610c5a565b5b6020026020010151905060008490505b81856103469190610cb8565b8110156103f457600160009054906101000a900473ffffffffffffffffffffffffffffffffffffffff1673ffffffffffffffffffffffffffffffffffffffff1663f242432a33858460016040518563ffffffff1660e01b81526004016103af9493929190610d99565b600060405180830381600087803b1580156103c957600080fd5b505af11580156103dd573d6000803e3d6000fd5b5050505080806103ec90610df1565b91505061033a565b5080846104019190610cb8565b935050508061040f90610df1565b90506102ed565b50505050565b6104246106a3565b73ffffffffffffffffffffffffffffffffffffffff16610442610583565b73ffffffffffffffffffffffffffffffffffffffff1614610498576040517f08c379a000000000000000000000000000000000000000000000000000000000815260040161048f90610bce565b60405180910390fd5b60008190505b8251826104ab9190610cb8565b81101561057e57600160009054906101000a900473ffffffffffffffffffffffffffffffffffffffff1673ffffffffffffffffffffffffffffffffffffffff1663f242432a338585856104fe9190610e39565b8151811061050f5761050e610c5a565b5b60200260200101518460016040518563ffffffff1660e01b81526004016105399493929190610d99565b600060405180830381600087803b15801561055357600080fd5b505af1158015610567573d6000803e3d6000fd5b50505050808061057690610df1565b91505061049e565b505050565b60008060009054906101000a900473ffffffffffffffffffffffffffffffffffffffff16905090565b6105b46106a3565b73ffffffffffffffffffffffffffffffffffffffff166105d2610583565b73ffffffffffffffffffffffffffffffffffffffff1614610628576040517f08c379a000000000000000000000000000000000000000000000000000000000815260040161061f90610bce565b60405180910390fd5b600073ffffffffffffffffffffffffffffffffffffffff168173ffffffffffffffffffffffffffffffffffffffff1603610697576040517f08c379a000000000000000000000000000000000000000000000000000000000815260040161068e90610edf565b60405180910390fd5b6106a0816106ab565b50565b600033905090565b60008060009054906101000a900473ffffffffffffffffffffffffffffffffffffffff169050816000806101000a81548173ffffffffffffffffffffffffffffffffffffffff021916908373ffffffffffffffffffffffffffffffffffffffff1602179055508173ffffffffffffffffffffffffffffffffffffffff168173ffffffffffffffffffffffffffffffffffffffff167f8be0079c531659141344cd1fd0a4f28419497f9722a3daafe3b4186f6b6457e060405160405180910390a35050565b600073ffffffffffffffffffffffffffffffffffffffff82169050919050565b600061079a8261076f565b9050919050565b6107aa8161078f565b82525050565b60006020820190506107c560008301846107a1565b92915050565b6000604051905090565b600080fd5b600080fd5b6107e88161078f565b81146107f357600080fd5b50565b600081359050610805816107df565b92915050565b600060208284031215610821576108206107d5565b5b600061082f848285016107f6565b91505092915050565b600080fd5b6000601f19601f8301169050919050565b7f4e487b7100000000000000000000000000000000000000000000000000000000600052604160045260246000fd5b6108868261083d565b810181811067ffffffffffffffff821117156108a5576108a461084e565b5b80604052505050565b60006108b86107cb565b90506108c4828261087d565b919050565b600067ffffffffffffffff8211156108e4576108e361084e565b5b602082029050602081019050919050565b600080fd5b600061090d610908846108c9565b6108ae565b905080838252602082019050602084028301858111156109305761092f6108f5565b5b835b81811015610959578061094588826107f6565b845260208401935050602081019050610932565b5050509392505050565b600082601f83011261097857610977610838565b5b81356109888482602086016108fa565b91505092915050565b600067ffffffffffffffff8211156109ac576109ab61084e565b5b602082029050602081019050919050565b6000819050919050565b6109d0816109bd565b81146109db57600080fd5b50565b6000813590506109ed816109c7565b92915050565b6000610a06610a0184610991565b6108ae565b90508083825260208201905060208402830185811115610a2957610a286108f5565b5b835b81811015610a525780610a3e88826109de565b845260208401935050602081019050610a2b565b5050509392505050565b600082601f830112610a7157610a70610838565b5b8135610a818482602086016109f3565b91505092915050565b600080600060608486031215610aa357610aa26107d5565b5b600084013567ffffffffffffffff811115610ac157610ac06107da565b5b610acd86828701610963565b935050602084013567ffffffffffffffff811115610aee57610aed6107da565b5b610afa86828701610a5c565b9250506040610b0b868287016109de565b9150509250925092565b60008060408385031215610b2c57610b2b6107d5565b5b600083013567ffffffffffffffff811115610b4a57610b496107da565b5b610b5685828601610963565b9250506020610b67858286016109de565b9150509250929050565b600082825260208201905092915050565b7f4f776e61626c653a2063616c6c6572206973206e6f7420746865206f776e6572600082015250565b6000610bb8602083610b71565b9150610bc382610b82565b602082019050919050565b60006020820190508181036000830152610be781610bab565b9050919050565b7f6c656e677468206572726f720000000000000000000000000000000000000000600082015250565b6000610c24600c83610b71565b9150610c2f82610bee565b602082019050919050565b60006020820190508181036000830152610c5381610c17565b9050919050565b7f4e487b7100000000000000000000000000000000000000000000000000000000600052603260045260246000fd5b7f4e487b7100000000000000000000000000000000000000000000000000000000600052601160045260246000fd5b6000610cc3826109bd565b9150610cce836109bd565b9250827fffffffffffffffffffffffffffffffffffffffffffffffffffffffffffffffff03821115610d0357610d02610c89565b5b828201905092915050565b610d17816109bd565b82525050565b6000819050919050565b6000819050919050565b6000610d4c610d47610d4284610d1d565b610d27565b6109bd565b9050919050565b610d5c81610d31565b82525050565b600082825260208201905092915050565b50565b6000610d83600083610d62565b9150610d8e82610d73565b600082019050919050565b600060a082019050610dae60008301876107a1565b610dbb60208301866107a1565b610dc86040830185610d0e565b610dd56060830184610d53565b8181036080830152610de681610d76565b905095945050505050565b6000610dfc826109bd565b91507fffffffffffffffffffffffffffffffffffffffffffffffffffffffffffffffff8203610e2e57610e2d610c89565b5b600182019050919050565b6000610e44826109bd565b9150610e4f836109bd565b925082821015610e6257610e61610c89565b5b828203905092915050565b7f4f776e61626c653a206e6577206f776e657220697320746865207a65726f206160008201527f6464726573730000000000000000000000000000000000000000000000000000602082015250565b6000610ec9602683610b71565b9150610ed482610e6d565b604082019050919050565b60006020820190508181036000830152610ef881610ebc565b905091905056fea26469706673582212202622239480afa472b6b2e003bd574bdb89fe4c404858bc5a43b204382110dd6864736f6c634300080d0033",
			"opcodes": "PUSH1 0x80 PUSH1 0x40 MSTORE CALLVALUE DUP1 ISZERO PUSH2 0x10 JUMPI PUSH1 0x0 DUP1 REVERT JUMPDEST POP PUSH2 0x2D PUSH2 0x22 PUSH2 0x32 PUSH1 0x20 SHL PUSH1 0x20 SHR JUMP JUMPDEST PUSH2 0x3A PUSH1 0x20 SHL PUSH1 0x20 SHR JUMP JUMPDEST PUSH2 0xFE JUMP JUMPDEST PUSH1 0x0 CALLER SWAP1 POP SWAP1 JUMP JUMPDEST PUSH1 0x0 DUP1 PUSH1 0x0 SWAP1 SLOAD SWAP1 PUSH2 0x100 EXP SWAP1 DIV PUSH20 0xFFFFFFFFFFFFFFFFFFFFFFFFFFFFFFFFFFFFFFFF AND SWAP1 POP DUP2 PUSH1 0x0 DUP1 PUSH2 0x100 EXP DUP2 SLOAD DUP2 PUSH20 0xFFFFFFFFFFFFFFFFFFFFFFFFFFFFFFFFFFFFFFFF MUL NOT AND SWAP1 DUP4 PUSH20 0xFFFFFFFFFFFFFFFFFFFFFFFFFFFFFFFFFFFFFFFF AND MUL OR SWAP1 SSTORE POP DUP2 PUSH20 0xFFFFFFFFFFFFFFFFFFFFFFFFFFFFFFFFFFFFFFFF AND DUP2 PUSH20 0xFFFFFFFFFFFFFFFFFFFFFFFFFFFFFFFFFFFFFFFF AND PUSH32 0x8BE0079C531659141344CD1FD0A4F28419497F9722A3DAAFE3B4186F6B6457E0 PUSH1 0x40 MLOAD PUSH1 0x40 MLOAD DUP1 SWAP2 SUB SWAP1 LOG3 POP POP JUMP JUMPDEST PUSH2 0xF35 DUP1 PUSH2 0x10D PUSH1 0x0 CODECOPY PUSH1 0x0 RETURN INVALID PUSH1 0x80 PUSH1 0x40 MSTORE CALLVALUE DUP1 ISZERO PUSH2 0x10 JUMPI PUSH1 0x0 DUP1 REVERT JUMPDEST POP PUSH1 0x4 CALLDATASIZE LT PUSH2 0x7D JUMPI PUSH1 0x0 CALLDATALOAD PUSH1 0xE0 SHR DUP1 PUSH4 0x71EF2C2E GT PUSH2 0x5B JUMPI DUP1 PUSH4 0x71EF2C2E EQ PUSH2 0xC6 JUMPI DUP1 PUSH4 0x83F12FEC EQ PUSH2 0xE2 JUMPI DUP1 PUSH4 0x8DA5CB5B EQ PUSH2 0xFE JUMPI DUP1 PUSH4 0xF2FDE38B EQ PUSH2 0x11C JUMPI PUSH2 0x7D JUMP JUMPDEST DUP1 PUSH4 0x41906610 EQ PUSH2 0x82 JUMPI DUP1 PUSH4 0x6ACD4F55 EQ PUSH2 0xA0 JUMPI DUP1 PUSH4 0x715018A6 EQ PUSH2 0xBC JUMPI JUMPDEST PUSH1 0x0 DUP1 REVERT JUMPDEST PUSH2 0x8A PUSH2 0x138 JUMP JUMPDEST PUSH1 0x40 MLOAD PUSH2 0x97 SWAP2 SWAP1 PUSH2 0x7B0 JUMP JUMPDEST PUSH1 0x40 MLOAD DUP1 SWAP2 SUB SWAP1 RETURN JUMPDEST PUSH2 0xBA PUSH1 0x4 DUP1 CALLDATASIZE SUB DUP2 ADD SWAP1 PUSH2 0xB5 SWAP2 SWAP1 PUSH2 0x80B JUMP JUMPDEST PUSH2 0x15E JUMP JUMPDEST STOP JUMPDEST PUSH2 0xC4 PUSH2 0x21E JUMP JUMPDEST STOP JUMPDEST PUSH2 0xE0 PUSH1 0x4 DUP1 CALLDATASIZE SUB DUP2 ADD SWAP1 PUSH2 0xDB SWAP2 SWAP1 PUSH2 0xA8A JUMP JUMPDEST PUSH2 0x2A6 JUMP JUMPDEST STOP JUMPDEST PUSH2 0xFC PUSH1 0x4 DUP1 CALLDATASIZE SUB DUP2 ADD SWAP1 PUSH2 0xF7 SWAP2 SWAP1 PUSH2 0xB15 JUMP JUMPDEST PUSH2 0x41C JUMP JUMPDEST STOP JUMPDEST PUSH2 0x106 PUSH2 0x583 JUMP JUMPDEST PUSH1 0x40 MLOAD PUSH2 0x113 SWAP2 SWAP1 PUSH2 0x7B0 JUMP JUMPDEST PUSH1 0x40 MLOAD DUP1 SWAP2 SUB SWAP1 RETURN JUMPDEST PUSH2 0x136 PUSH1 0x4 DUP1 CALLDATASIZE SUB DUP2 ADD SWAP1 PUSH2 0x131 SWAP2 SWAP1 PUSH2 0x80B JUMP JUMPDEST PUSH2 0x5AC JUMP JUMPDEST STOP JUMPDEST PUSH1 0x1 PUSH1 0x0 SWAP1 SLOAD SWAP1 PUSH2 0x100 EXP SWAP1 DIV PUSH20 0xFFFFFFFFFFFFFFFFFFFFFFFFFFFFFFFFFFFFFFFF AND DUP2 JUMP JUMPDEST PUSH2 0x166 PUSH2 0x6A3 JUMP JUMPDEST PUSH20 0xFFFFFFFFFFFFFFFFFFFFFFFFFFFFFFFFFFFFFFFF AND PUSH2 0x184 PUSH2 0x583 JUMP JUMPDEST PUSH20 0xFFFFFFFFFFFFFFFFFFFFFFFFFFFFFFFFFFFFFFFF AND EQ PUSH2 0x1DA JUMPI PUSH1 0x40 MLOAD PUSH32 0x8C379A000000000000000000000000000000000000000000000000000000000 DUP2 MSTORE PUSH1 0x4 ADD PUSH2 0x1D1 SWAP1 PUSH2 0xBCE JUMP JUMPDEST PUSH1 0x40 MLOAD DUP1 SWAP2 SUB SWAP1 REVERT JUMPDEST DUP1 PUSH1 0x1 PUSH1 0x0 PUSH2 0x100 EXP DUP2 SLOAD DUP2 PUSH20 0xFFFFFFFFFFFFFFFFFFFFFFFFFFFFFFFFFFFFFFFF MUL NOT AND SWAP1 DUP4 PUSH20 0xFFFFFFFFFFFFFFFFFFFFFFFFFFFFFFFFFFFFFFFF AND MUL OR SWAP1 SSTORE POP POP JUMP JUMPDEST PUSH2 0x226 PUSH2 0x6A3 JUMP JUMPDEST PUSH20 0xFFFFFFFFFFFFFFFFFFFFFFFFFFFFFFFFFFFFFFFF AND PUSH2 0x244 PUSH2 0x583 JUMP JUMPDEST PUSH20 0xFFFFFFFFFFFFFFFFFFFFFFFFFFFFFFFFFFFFFFFF AND EQ PUSH2 0x29A JUMPI PUSH1 0x40 MLOAD PUSH32 0x8C379A000000000000000000000000000000000000000000000000000000000 DUP2 MSTORE PUSH1 0x4 ADD PUSH2 0x291 SWAP1 PUSH2 0xBCE JUMP JUMPDEST PUSH1 0x40 MLOAD DUP1 SWAP2 SUB SWAP1 REVERT JUMPDEST PUSH2 0x2A4 PUSH1 0x0 PUSH2 0x6AB JUMP JUMPDEST JUMP JUMPDEST DUP2 MLOAD DUP4 MLOAD EQ PUSH2 0x2EA JUMPI PUSH1 0x40 MLOAD PUSH32 0x8C379A000000000000000000000000000000000000000000000000000000000 DUP2 MSTORE PUSH1 0x4 ADD PUSH2 0x2E1 SWAP1 PUSH2 0xC3A JUMP JUMPDEST PUSH1 0x40 MLOAD DUP1 SWAP2 SUB SWAP1 REVERT JUMPDEST PUSH1 0x0 JUMPDEST DUP4 MLOAD DUP2 LT ISZERO PUSH2 0x416 JUMPI PUSH1 0x0 DUP5 DUP3 DUP2 MLOAD DUP2 LT PUSH2 0x30B JUMPI PUSH2 0x30A PUSH2 0xC5A JUMP JUMPDEST JUMPDEST PUSH1 0x20 MUL PUSH1 0x20 ADD ADD MLOAD SWAP1 POP PUSH1 0x0 DUP5 DUP4 DUP2 MLOAD DUP2 LT PUSH2 0x32A JUMPI PUSH2 0x329 PUSH2 0xC5A JUMP JUMPDEST JUMPDEST PUSH1 0x20 MUL PUSH1 0x20 ADD ADD MLOAD SWAP1 POP PUSH1 0x0 DUP5 SWAP1 POP JUMPDEST DUP2 DUP6 PUSH2 0x346 SWAP2 SWAP1 PUSH2 0xCB8 JUMP JUMPDEST DUP2 LT ISZERO PUSH2 0x3F4 JUMPI PUSH1 0x1 PUSH1 0x0 SWAP1 SLOAD SWAP1 PUSH2 0x100 EXP SWAP1 DIV PUSH20 0xFFFFFFFFFFFFFFFFFFFFFFFFFFFFFFFFFFFFFFFF AND PUSH20 0xFFFFFFFFFFFFFFFFFFFFFFFFFFFFFFFFFFFFFFFF AND PUSH4 0xF242432A CALLER DUP6 DUP5 PUSH1 0x1 PUSH1 0x40 MLOAD DUP6 PUSH4 0xFFFFFFFF AND PUSH1 0xE0 SHL DUP2 MSTORE PUSH1 0x4 ADD PUSH2 0x3AF SWAP5 SWAP4 SWAP3 SWAP2 SWAP1 PUSH2 0xD99 JUMP JUMPDEST PUSH1 0x0 PUSH1 0x40 MLOAD DUP1 DUP4 SUB DUP2 PUSH1 0x0 DUP8 DUP1 EXTCODESIZE ISZERO DUP1 ISZERO PUSH2 0x3C9 JUMPI PUSH1 0x0 DUP1 REVERT JUMPDEST POP GAS CALL ISZERO DUP1 ISZERO PUSH2 0x3DD JUMPI RETURNDATASIZE PUSH1 0x0 DUP1 RETURNDATACOPY RETURNDATASIZE PUSH1 0x0 REVERT JUMPDEST POP POP POP POP DUP1 DUP1 PUSH2 0x3EC SWAP1 PUSH2 0xDF1 JUMP JUMPDEST SWAP2 POP POP PUSH2 0x33A JUMP JUMPDEST POP DUP1 DUP5 PUSH2 0x401 SWAP2 SWAP1 PUSH2 0xCB8 JUMP JUMPDEST SWAP4 POP POP POP DUP1 PUSH2 0x40F SWAP1 PUSH2 0xDF1 JUMP JUMPDEST SWAP1 POP PUSH2 0x2ED JUMP JUMPDEST POP POP POP POP JUMP JUMPDEST PUSH2 0x424 PUSH2 0x6A3 JUMP JUMPDEST PUSH20 0xFFFFFFFFFFFFFFFFFFFFFFFFFFFFFFFFFFFFFFFF AND PUSH2 0x442 PUSH2 0x583 JUMP JUMPDEST PUSH20 0xFFFFFFFFFFFFFFFFFFFFFFFFFFFFFFFFFFFFFFFF AND EQ PUSH2 0x498 JUMPI PUSH1 0x40 MLOAD PUSH32 0x8C379A000000000000000000000000000000000000000000000000000000000 DUP2 MSTORE PUSH1 0x4 ADD PUSH2 0x48F SWAP1 PUSH2 0xBCE JUMP JUMPDEST PUSH1 0x40 MLOAD DUP1 SWAP2 SUB SWAP1 REVERT JUMPDEST PUSH1 0x0 DUP2 SWAP1 POP JUMPDEST DUP3 MLOAD DUP3 PUSH2 0x4AB SWAP2 SWAP1 PUSH2 0xCB8 JUMP JUMPDEST DUP2 LT ISZERO PUSH2 0x57E JUMPI PUSH1 0x1 PUSH1 0x0 SWAP1 SLOAD SWAP1 PUSH2 0x100 EXP SWAP1 DIV PUSH20 0xFFFFFFFFFFFFFFFFFFFFFFFFFFFFFFFFFFFFFFFF AND PUSH20 0xFFFFFFFFFFFFFFFFFFFFFFFFFFFFFFFFFFFFFFFF AND PUSH4 0xF242432A CALLER DUP6 DUP6 DUP6 PUSH2 0x4FE SWAP2 SWAP1 PUSH2 0xE39 JUMP JUMPDEST DUP2 MLOAD DUP2 LT PUSH2 0x50F JUMPI PUSH2 0x50E PUSH2 0xC5A JUMP JUMPDEST JUMPDEST PUSH1 0x20 MUL PUSH1 0x20 ADD ADD MLOAD DUP5 PUSH1 0x1 PUSH1 0x40 MLOAD DUP6 PUSH4 0xFFFFFFFF AND PUSH1 0xE0 SHL DUP2 MSTORE PUSH1 0x4 ADD PUSH2 0x539 SWAP5 SWAP4 SWAP3 SWAP2 SWAP1 PUSH2 0xD99 JUMP JUMPDEST PUSH1 0x0 PUSH1 0x40 MLOAD DUP1 DUP4 SUB DUP2 PUSH1 0x0 DUP8 DUP1 EXTCODESIZE ISZERO DUP1 ISZERO PUSH2 0x553 JUMPI PUSH1 0x0 DUP1 REVERT JUMPDEST POP GAS CALL ISZERO DUP1 ISZERO PUSH2 0x567 JUMPI RETURNDATASIZE PUSH1 0x0 DUP1 RETURNDATACOPY RETURNDATASIZE PUSH1 0x0 REVERT JUMPDEST POP POP POP POP DUP1 DUP1 PUSH2 0x576 SWAP1 PUSH2 0xDF1 JUMP JUMPDEST SWAP2 POP POP PUSH2 0x49E JUMP JUMPDEST POP POP POP JUMP JUMPDEST PUSH1 0x0 DUP1 PUSH1 0x0 SWAP1 SLOAD SWAP1 PUSH2 0x100 EXP SWAP1 DIV PUSH20 0xFFFFFFFFFFFFFFFFFFFFFFFFFFFFFFFFFFFFFFFF AND SWAP1 POP SWAP1 JUMP JUMPDEST PUSH2 0x5B4 PUSH2 0x6A3 JUMP JUMPDEST PUSH20 0xFFFFFFFFFFFFFFFFFFFFFFFFFFFFFFFFFFFFFFFF AND PUSH2 0x5D2 PUSH2 0x583 JUMP JUMPDEST PUSH20 0xFFFFFFFFFFFFFFFFFFFFFFFFFFFFFFFFFFFFFFFF AND EQ PUSH2 0x628 JUMPI PUSH1 0x40 MLOAD PUSH32 0x8C379A000000000000000000000000000000000000000000000000000000000 DUP2 MSTORE PUSH1 0x4 ADD PUSH2 0x61F SWAP1 PUSH2 0xBCE JUMP JUMPDEST PUSH1 0x40 MLOAD DUP1 SWAP2 SUB SWAP1 REVERT JUMPDEST PUSH1 0x0 PUSH20 0xFFFFFFFFFFFFFFFFFFFFFFFFFFFFFFFFFFFFFFFF AND DUP2 PUSH20 0xFFFFFFFFFFFFFFFFFFFFFFFFFFFFFFFFFFFFFFFF AND SUB PUSH2 0x697 JUMPI PUSH1 0x40 MLOAD PUSH32 0x8C379A000000000000000000000000000000000000000000000000000000000 DUP2 MSTORE PUSH1 0x4 ADD PUSH2 0x68E SWAP1 PUSH2 0xEDF JUMP JUMPDEST PUSH1 0x40 MLOAD DUP1 SWAP2 SUB SWAP1 REVERT JUMPDEST PUSH2 0x6A0 DUP2 PUSH2 0x6AB JUMP JUMPDEST POP JUMP JUMPDEST PUSH1 0x0 CALLER SWAP1 POP SWAP1 JUMP JUMPDEST PUSH1 0x0 DUP1 PUSH1 0x0 SWAP1 SLOAD SWAP1 PUSH2 0x100 EXP SWAP1 DIV PUSH20 0xFFFFFFFFFFFFFFFFFFFFFFFFFFFFFFFFFFFFFFFF AND SWAP1 POP DUP2 PUSH1 0x0 DUP1 PUSH2 0x100 EXP DUP2 SLOAD DUP2 PUSH20 0xFFFFFFFFFFFFFFFFFFFFFFFFFFFFFFFFFFFFFFFF MUL NOT AND SWAP1 DUP4 PUSH20 0xFFFFFFFFFFFFFFFFFFFFFFFFFFFFFFFFFFFFFFFF AND MUL OR SWAP1 SSTORE POP DUP2 PUSH20 0xFFFFFFFFFFFFFFFFFFFFFFFFFFFFFFFFFFFFFFFF AND DUP2 PUSH20 0xFFFFFFFFFFFFFFFFFFFFFFFFFFFFFFFFFFFFFFFF AND PUSH32 0x8BE0079C531659141344CD1FD0A4F28419497F9722A3DAAFE3B4186F6B6457E0 PUSH1 0x40 MLOAD PUSH1 0x40 MLOAD DUP1 SWAP2 SUB SWAP1 LOG3 POP POP JUMP JUMPDEST PUSH1 0x0 PUSH20 0xFFFFFFFFFFFFFFFFFFFFFFFFFFFFFFFFFFFFFFFF DUP3 AND SWAP1 POP SWAP2 SWAP1 POP JUMP JUMPDEST PUSH1 0x0 PUSH2 0x79A DUP3 PUSH2 0x76F JUMP JUMPDEST SWAP1 POP SWAP2 SWAP1 POP JUMP JUMPDEST PUSH2 0x7AA DUP2 PUSH2 0x78F JUMP JUMPDEST DUP3 MSTORE POP POP JUMP JUMPDEST PUSH1 0x0 PUSH1 0x20 DUP3 ADD SWAP1 POP PUSH2 0x7C5 PUSH1 0x0 DUP4 ADD DUP5 PUSH2 0x7A1 JUMP JUMPDEST SWAP3 SWAP2 POP POP JUMP JUMPDEST PUSH1 0x0 PUSH1 0x40 MLOAD SWAP1 POP SWAP1 JUMP JUMPDEST PUSH1 0x0 DUP1 REVERT JUMPDEST PUSH1 0x0 DUP1 REVERT JUMPDEST PUSH2 0x7E8 DUP2 PUSH2 0x78F JUMP JUMPDEST DUP2 EQ PUSH2 0x7F3 JUMPI PUSH1 0x0 DUP1 REVERT JUMPDEST POP JUMP JUMPDEST PUSH1 0x0 DUP2 CALLDATALOAD SWAP1 POP PUSH2 0x805 DUP2 PUSH2 0x7DF JUMP JUMPDEST SWAP3 SWAP2 POP POP JUMP JUMPDEST PUSH1 0x0 PUSH1 0x20 DUP3 DUP5 SUB SLT ISZERO PUSH2 0x821 JUMPI PUSH2 0x820 PUSH2 0x7D5 JUMP JUMPDEST JUMPDEST PUSH1 0x0 PUSH2 0x82F DUP5 DUP3 DUP6 ADD PUSH2 0x7F6 JUMP JUMPDEST SWAP2 POP POP SWAP3 SWAP2 POP POP JUMP JUMPDEST PUSH1 0x0 DUP1 REVERT JUMPDEST PUSH1 0x0 PUSH1 0x1F NOT PUSH1 0x1F DUP4 ADD AND SWAP1 POP SWAP2 SWAP1 POP JUMP JUMPDEST PUSH32 0x4E487B7100000000000000000000000000000000000000000000000000000000 PUSH1 0x0 MSTORE PUSH1 0x41 PUSH1 0x4 MSTORE PUSH1 0x24 PUSH1 0x0 REVERT JUMPDEST PUSH2 0x886 DUP3 PUSH2 0x83D JUMP JUMPDEST DUP2 ADD DUP2 DUP2 LT PUSH8 0xFFFFFFFFFFFFFFFF DUP3 GT OR ISZERO PUSH2 0x8A5 JUMPI PUSH2 0x8A4 PUSH2 0x84E JUMP JUMPDEST JUMPDEST DUP1 PUSH1 0x40 MSTORE POP POP POP JUMP JUMPDEST PUSH1 0x0 PUSH2 0x8B8 PUSH2 0x7CB JUMP JUMPDEST SWAP1 POP PUSH2 0x8C4 DUP3 DUP3 PUSH2 0x87D JUMP JUMPDEST SWAP2 SWAP1 POP JUMP JUMPDEST PUSH1 0x0 PUSH8 0xFFFFFFFFFFFFFFFF DUP3 GT ISZERO PUSH2 0x8E4 JUMPI PUSH2 0x8E3 PUSH2 0x84E JUMP JUMPDEST JUMPDEST PUSH1 0x20 DUP3 MUL SWAP1 POP PUSH1 0x20 DUP2 ADD SWAP1 POP SWAP2 SWAP1 POP JUMP JUMPDEST PUSH1 0x0 DUP1 REVERT JUMPDEST PUSH1 0x0 PUSH2 0x90D PUSH2 0x908 DUP5 PUSH2 0x8C9 JUMP JUMPDEST PUSH2 0x8AE JUMP JUMPDEST SWAP1 POP DUP1 DUP4 DUP3 MSTORE PUSH1 0x20 DUP3 ADD SWAP1 POP PUSH1 0x20 DUP5 MUL DUP4 ADD DUP6 DUP2 GT ISZERO PUSH2 0x930 JUMPI PUSH2 0x92F PUSH2 0x8F5 JUMP JUMPDEST JUMPDEST DUP4 JUMPDEST DUP2 DUP2 LT ISZERO PUSH2 0x959 JUMPI DUP1 PUSH2 0x945 DUP9 DUP3 PUSH2 0x7F6 JUMP JUMPDEST DUP5 MSTORE PUSH1 0x20 DUP5 ADD SWAP4 POP POP PUSH1 0x20 DUP2 ADD SWAP1 POP PUSH2 0x932 JUMP JUMPDEST POP POP POP SWAP4 SWAP3 POP POP POP JUMP JUMPDEST PUSH1 0x0 DUP3 PUSH1 0x1F DUP4 ADD SLT PUSH2 0x978 JUMPI PUSH2 0x977 PUSH2 0x838 JUMP JUMPDEST JUMPDEST DUP2 CALLDATALOAD PUSH2 0x988 DUP5 DUP3 PUSH1 0x20 DUP7 ADD PUSH2 0x8FA JUMP JUMPDEST SWAP2 POP POP SWAP3 SWAP2 POP POP JUMP JUMPDEST PUSH1 0x0 PUSH8 0xFFFFFFFFFFFFFFFF DUP3 GT ISZERO PUSH2 0x9AC JUMPI PUSH2 0x9AB PUSH2 0x84E JUMP JUMPDEST JUMPDEST PUSH1 0x20 DUP3 MUL SWAP1 POP PUSH1 0x20 DUP2 ADD SWAP1 POP SWAP2 SWAP1 POP JUMP JUMPDEST PUSH1 0x0 DUP2 SWAP1 POP SWAP2 SWAP1 POP JUMP JUMPDEST PUSH2 0x9D0 DUP2 PUSH2 0x9BD JUMP JUMPDEST DUP2 EQ PUSH2 0x9DB JUMPI PUSH1 0x0 DUP1 REVERT JUMPDEST POP JUMP JUMPDEST PUSH1 0x0 DUP2 CALLDATALOAD SWAP1 POP PUSH2 0x9ED DUP2 PUSH2 0x9C7 JUMP JUMPDEST SWAP3 SWAP2 POP POP JUMP JUMPDEST PUSH1 0x0 PUSH2 0xA06 PUSH2 0xA01 DUP5 PUSH2 0x991 JUMP JUMPDEST PUSH2 0x8AE JUMP JUMPDEST SWAP1 POP DUP1 DUP4 DUP3 MSTORE PUSH1 0x20 DUP3 ADD SWAP1 POP PUSH1 0x20 DUP5 MUL DUP4 ADD DUP6 DUP2 GT ISZERO PUSH2 0xA29 JUMPI PUSH2 0xA28 PUSH2 0x8F5 JUMP JUMPDEST JUMPDEST DUP4 JUMPDEST DUP2 DUP2 LT ISZERO PUSH2 0xA52 JUMPI DUP1 PUSH2 0xA3E DUP9 DUP3 PUSH2 0x9DE JUMP JUMPDEST DUP5 MSTORE PUSH1 0x20 DUP5 ADD SWAP4 POP POP PUSH1 0x20 DUP2 ADD SWAP1 POP PUSH2 0xA2B JUMP JUMPDEST POP POP POP SWAP4 SWAP3 POP POP POP JUMP JUMPDEST PUSH1 0x0 DUP3 PUSH1 0x1F DUP4 ADD SLT PUSH2 0xA71 JUMPI PUSH2 0xA70 PUSH2 0x838 JUMP JUMPDEST JUMPDEST DUP2 CALLDATALOAD PUSH2 0xA81 DUP5 DUP3 PUSH1 0x20 DUP7 ADD PUSH2 0x9F3 JUMP JUMPDEST SWAP2 POP POP SWAP3 SWAP2 POP POP JUMP JUMPDEST PUSH1 0x0 DUP1 PUSH1 0x0 PUSH1 0x60 DUP5 DUP7 SUB SLT ISZERO PUSH2 0xAA3 JUMPI PUSH2 0xAA2 PUSH2 0x7D5 JUMP JUMPDEST JUMPDEST PUSH1 0x0 DUP5 ADD CALLDATALOAD PUSH8 0xFFFFFFFFFFFFFFFF DUP2 GT ISZERO PUSH2 0xAC1 JUMPI PUSH2 0xAC0 PUSH2 0x7DA JUMP JUMPDEST JUMPDEST PUSH2 0xACD DUP7 DUP3 DUP8 ADD PUSH2 0x963 JUMP JUMPDEST SWAP4 POP POP PUSH1 0x20 DUP5 ADD CALLDATALOAD PUSH8 0xFFFFFFFFFFFFFFFF DUP2 GT ISZERO PUSH2 0xAEE JUMPI PUSH2 0xAED PUSH2 0x7DA JUMP JUMPDEST JUMPDEST PUSH2 0xAFA DUP7 DUP3 DUP8 ADD PUSH2 0xA5C JUMP JUMPDEST SWAP3 POP POP PUSH1 0x40 PUSH2 0xB0B DUP7 DUP3 DUP8 ADD PUSH2 0x9DE JUMP JUMPDEST SWAP2 POP POP SWAP3 POP SWAP3 POP SWAP3 JUMP JUMPDEST PUSH1 0x0 DUP1 PUSH1 0x40 DUP4 DUP6 SUB SLT ISZERO PUSH2 0xB2C JUMPI PUSH2 0xB2B PUSH2 0x7D5 JUMP JUMPDEST JUMPDEST PUSH1 0x0 DUP4 ADD CALLDATALOAD PUSH8 0xFFFFFFFFFFFFFFFF DUP2 GT ISZERO PUSH2 0xB4A JUMPI PUSH2 0xB49 PUSH2 0x7DA JUMP JUMPDEST JUMPDEST PUSH2 0xB56 DUP6 DUP3 DUP7 ADD PUSH2 0x963 JUMP JUMPDEST SWAP3 POP POP PUSH1 0x20 PUSH2 0xB67 DUP6 DUP3 DUP7 ADD PUSH2 0x9DE JUMP JUMPDEST SWAP2 POP POP SWAP3 POP SWAP3 SWAP1 POP JUMP JUMPDEST PUSH1 0x0 DUP3 DUP3 MSTORE PUSH1 0x20 DUP3 ADD SWAP1 POP SWAP3 SWAP2 POP POP JUMP JUMPDEST PUSH32 0x4F776E61626C653A2063616C6C6572206973206E6F7420746865206F776E6572 PUSH1 0x0 DUP3 ADD MSTORE POP JUMP JUMPDEST PUSH1 0x0 PUSH2 0xBB8 PUSH1 0x20 DUP4 PUSH2 0xB71 JUMP JUMPDEST SWAP2 POP PUSH2 0xBC3 DUP3 PUSH2 0xB82 JUMP JUMPDEST PUSH1 0x20 DUP3 ADD SWAP1 POP SWAP2 SWAP1 POP JUMP JUMPDEST PUSH1 0x0 PUSH1 0x20 DUP3 ADD SWAP1 POP DUP2 DUP2 SUB PUSH1 0x0 DUP4 ADD MSTORE PUSH2 0xBE7 DUP2 PUSH2 0xBAB JUMP JUMPDEST SWAP1 POP SWAP2 SWAP1 POP JUMP JUMPDEST PUSH32 0x6C656E677468206572726F720000000000000000000000000000000000000000 PUSH1 0x0 DUP3 ADD MSTORE POP JUMP JUMPDEST PUSH1 0x0 PUSH2 0xC24 PUSH1 0xC DUP4 PUSH2 0xB71 JUMP JUMPDEST SWAP2 POP PUSH2 0xC2F DUP3 PUSH2 0xBEE JUMP JUMPDEST PUSH1 0x20 DUP3 ADD SWAP1 POP SWAP2 SWAP1 POP JUMP JUMPDEST PUSH1 0x0 PUSH1 0x20 DUP3 ADD SWAP1 POP DUP2 DUP2 SUB PUSH1 0x0 DUP4 ADD MSTORE PUSH2 0xC53 DUP2 PUSH2 0xC17 JUMP JUMPDEST SWAP1 POP SWAP2 SWAP1 POP JUMP JUMPDEST PUSH32 0x4E487B7100000000000000000000000000000000000000000000000000000000 PUSH1 0x0 MSTORE PUSH1 0x32 PUSH1 0x4 MSTORE PUSH1 0x24 PUSH1 0x0 REVERT JUMPDEST PUSH32 0x4E487B7100000000000000000000000000000000000000000000000000000000 PUSH1 0x0 MSTORE PUSH1 0x11 PUSH1 0x4 MSTORE PUSH1 0x24 PUSH1 0x0 REVERT JUMPDEST PUSH1 0x0 PUSH2 0xCC3 DUP3 PUSH2 0x9BD JUMP JUMPDEST SWAP2 POP PUSH2 0xCCE DUP4 PUSH2 0x9BD JUMP JUMPDEST SWAP3 POP DUP3 PUSH32 0xFFFFFFFFFFFFFFFFFFFFFFFFFFFFFFFFFFFFFFFFFFFFFFFFFFFFFFFFFFFFFFFF SUB DUP3 GT ISZERO PUSH2 0xD03 JUMPI PUSH2 0xD02 PUSH2 0xC89 JUMP JUMPDEST JUMPDEST DUP3 DUP3 ADD SWAP1 POP SWAP3 SWAP2 POP POP JUMP JUMPDEST PUSH2 0xD17 DUP2 PUSH2 0x9BD JUMP JUMPDEST DUP3 MSTORE POP POP JUMP JUMPDEST PUSH1 0x0 DUP2 SWAP1 POP SWAP2 SWAP1 POP JUMP JUMPDEST PUSH1 0x0 DUP2 SWAP1 POP SWAP2 SWAP1 POP JUMP JUMPDEST PUSH1 0x0 PUSH2 0xD4C PUSH2 0xD47 PUSH2 0xD42 DUP5 PUSH2 0xD1D JUMP JUMPDEST PUSH2 0xD27 JUMP JUMPDEST PUSH2 0x9BD JUMP JUMPDEST SWAP1 POP SWAP2 SWAP1 POP JUMP JUMPDEST PUSH2 0xD5C DUP2 PUSH2 0xD31 JUMP JUMPDEST DUP3 MSTORE POP POP JUMP JUMPDEST PUSH1 0x0 DUP3 DUP3 MSTORE PUSH1 0x20 DUP3 ADD SWAP1 POP SWAP3 SWAP2 POP POP JUMP JUMPDEST POP JUMP JUMPDEST PUSH1 0x0 PUSH2 0xD83 PUSH1 0x0 DUP4 PUSH2 0xD62 JUMP JUMPDEST SWAP2 POP PUSH2 0xD8E DUP3 PUSH2 0xD73 JUMP JUMPDEST PUSH1 0x0 DUP3 ADD SWAP1 POP SWAP2 SWAP1 POP JUMP JUMPDEST PUSH1 0x0 PUSH1 0xA0 DUP3 ADD SWAP1 POP PUSH2 0xDAE PUSH1 0x0 DUP4 ADD DUP8 PUSH2 0x7A1 JUMP JUMPDEST PUSH2 0xDBB PUSH1 0x20 DUP4 ADD DUP7 PUSH2 0x7A1 JUMP JUMPDEST PUSH2 0xDC8 PUSH1 0x40 DUP4 ADD DUP6 PUSH2 0xD0E JUMP JUMPDEST PUSH2 0xDD5 PUSH1 0x60 DUP4 ADD DUP5 PUSH2 0xD53 JUMP JUMPDEST DUP2 DUP2 SUB PUSH1 0x80 DUP4 ADD MSTORE PUSH2 0xDE6 DUP2 PUSH2 0xD76 JUMP JUMPDEST SWAP1 POP SWAP6 SWAP5 POP POP POP POP POP JUMP JUMPDEST PUSH1 0x0 PUSH2 0xDFC DUP3 PUSH2 0x9BD JUMP JUMPDEST SWAP2 POP PUSH32 0xFFFFFFFFFFFFFFFFFFFFFFFFFFFFFFFFFFFFFFFFFFFFFFFFFFFFFFFFFFFFFFFF DUP3 SUB PUSH2 0xE2E JUMPI PUSH2 0xE2D PUSH2 0xC89 JUMP JUMPDEST JUMPDEST PUSH1 0x1 DUP3 ADD SWAP1 POP SWAP2 SWAP1 POP JUMP JUMPDEST PUSH1 0x0 PUSH2 0xE44 DUP3 PUSH2 0x9BD JUMP JUMPDEST SWAP2 POP PUSH2 0xE4F DUP4 PUSH2 0x9BD JUMP JUMPDEST SWAP3 POP DUP3 DUP3 LT ISZERO PUSH2 0xE62 JUMPI PUSH2 0xE61 PUSH2 0xC89 JUMP JUMPDEST JUMPDEST DUP3 DUP3 SUB SWAP1 POP SWAP3 SWAP2 POP POP JUMP JUMPDEST PUSH32 0x4F776E61626C653A206E6577206F776E657220697320746865207A65726F2061 PUSH1 0x0 DUP3 ADD MSTORE PUSH32 0x6464726573730000000000000000000000000000000000000000000000000000 PUSH1 0x20 DUP3 ADD MSTORE POP JUMP JUMPDEST PUSH1 0x0 PUSH2 0xEC9 PUSH1 0x26 DUP4 PUSH2 0xB71 JUMP JUMPDEST SWAP2 POP PUSH2 0xED4 DUP3 PUSH2 0xE6D JUMP JUMPDEST PUSH1 0x40 DUP3 ADD SWAP1 POP SWAP2 SWAP1 POP JUMP JUMPDEST PUSH1 0x0 PUSH1 0x20 DUP3 ADD SWAP1 POP DUP2 DUP2 SUB PUSH1 0x0 DUP4 ADD MSTORE PUSH2 0xEF8 DUP2 PUSH2 0xEBC JUMP JUMPDEST SWAP1 POP SWAP2 SWAP1 POP JUMP INVALID LOG2 PUSH5 0x6970667358 0x22 SLT KECCAK256 0x26 0x22 0x23 SWAP5 DUP1 0xAF LOG4 PUSH19 0xB6B2E003BD574BDB89FE4C404858BC5A43B204 CODESIZE 0x21 LT 0xDD PUSH9 0x64736F6C634300080D STOP CALLER "
		},
		"gasEstimates": {
			"creation": {
				"codeDepositCost": "778600",
				"executionCost": "infinite",
				"totalCost": "infinite"
			},
			"external": {
				"batchTransfer(address[],uint256)": "infinite",
				"batchTransferWithNumber(address[],uint256[],uint256)": "infinite",
				"nftMintAddress()": "2515",
				"owner()": "2566",
				"renounceOwnership()": "30419",
				"setMint(address)": "26985",
				"transferOwnership(address)": "30786"
			}
		},
		"methodIdentifiers": {
			"batchTransfer(address[],uint256)": "83f12fec",
			"batchTransferWithNumber(address[],uint256[],uint256)": "71ef2c2e",
			"nftMintAddress()": "41906610",
			"owner()": "8da5cb5b",
			"renounceOwnership()": "715018a6",
			"setMint(address)": "6acd4f55",
			"transferOwnership(address)": "f2fde38b"
		}
	},
	"abi": [
		{
			"anonymous": false,
			"inputs": [
				{
					"indexed": true,
					"internalType": "address",
					"name": "previousOwner",
					"type": "address"
				},
				{
					"indexed": true,
					"internalType": "address",
					"name": "newOwner",
					"type": "address"
				}
			],
			"name": "OwnershipTransferred",
			"type": "event"
		},
		{
			"inputs": [
				{
					"internalType": "address[]",
					"name": "users",
					"type": "address[]"
				},
				{
					"internalType": "uint256",
					"name": "start",
					"type": "uint256"
				}
			],
			"name": "batchTransfer",
			"outputs": [],
			"stateMutability": "nonpayable",
			"type": "function"
		},
		{
			"inputs": [
				{
					"internalType": "address[]",
					"name": "users",
					"type": "address[]"
				},
				{
					"internalType": "uint256[]",
					"name": "numbers",
					"type": "uint256[]"
				},
				{
					"internalType": "uint256",
					"name": "start",
					"type": "uint256"
				}
			],
			"name": "batchTransferWithNumber",
			"outputs": [],
			"stateMutability": "nonpayable",
			"type": "function"
		},
		{
			"inputs": [],
			"name": "nftMintAddress",
			"outputs": [
				{
					"internalType": "address",
					"name": "",
					"type": "address"
				}
			],
			"stateMutability": "view",
			"type": "function"
		},
		{
			"inputs": [],
			"name": "owner",
			"outputs": [
				{
					"internalType": "address",
					"name": "",
					"type": "address"
				}
			],
			"stateMutability": "view",
			"type": "function"
		},
		{
			"inputs": [],
			"name": "renounceOwnership",
			"outputs": [],
			"stateMutability": "nonpayable",
			"type": "function"
		},
		{
			"inputs": [
				{
					"internalType": "address",
					"name": "mint",
					"type": "address"
				}
			],
			"name": "setMint",
			"outputs": [],
			"stateMutability": "nonpayable",
			"type": "function"
		},
		{
			"inputs": [
				{
					"internalType": "address",
					"name": "newOwner",
					"type": "address"
				}
			],
			"name": "transferOwnership",
			"outputs": [],
			"stateMutability": "nonpayable",
			"type": "function"
		}
	]
}