{
	"data": {
		"bytecode": {
			"linkReferences": {},
			"object": "608060405234801561001057600080fd5b506001600055600380546001600160a01b0319163317905561090c806100376000396000f3fe60806040526004361061003f5760003560e01c80630f08efe01461004457806358eb2df51461006f5780638da5cb5b14610084578063c23b139e146100bc575b600080fd5b34801561005057600080fd5b506100596100cf565b604051610066919061073f565b60405180910390f35b61008261007d3660046107ef565b610286565b005b34801561009057600080fd5b506003546100a4906001600160a01b031681565b6040516001600160a01b039091168152602001610066565b6100826100ca366004610822565b6104c4565b606060006100dc60015490565b905060006100e960025490565b6001546100f69190610862565b90506000808267ffffffffffffffff81111561011457610114610879565b60405190808252806020026020018201604052801561017b57816020015b6040805160e08101825260008082526020808301829052928201819052606082018190526080820181905260a0820181905260c082015282526000199092019101816101325790505b50905060005b8481101561027d57600060048161019984600161088f565b81526020810191909152604001600020600401546001600160a01b03160361026b5760006101c882600161088f565b600081815260046020818152604092839020835160e0810185528154815260018201546001600160a01b039081169382019390935260028201549481019490945260038101548216606085015291820154166080830152600581015460a0830152600681015460ff16151560c0830152855192935091859087908110610250576102506108a7565b602090810291909101015261026660018661088f565b945050505b80610275816108bd565b915050610181565b50949350505050565b6002600054036102dd5760405162461bcd60e51b815260206004820152601f60248201527f5265656e7472616e637947756172643a207265656e7472616e742063616c6c0060448201526064015b60405180910390fd5b60026000558061032f5760405162461bcd60e51b815260206004820152601c60248201527f5072696365206d7573742062652067726561746572207468616e20300000000060448201526064016102d4565b61033d600180546001019055565b600061034860015490565b6040805160e0810182528281526001600160a01b0387811660208084018281528486018a8152336060870181815260006080890181815260a08a018e815260c08b018381528d8452600498899052928c90209a518b55955160018b0180546001600160a01b0319908116928c16929092179055945160028b0155915160038a0180548616918a16919091179055905188860180549094169716969096179091559051600586015592516006909401805460ff19169415159490941790935592516323b872dd60e01b81529182015230602482015260448101869052919250906323b872dd90606401600060405180830381600087803b15801561044a57600080fd5b505af115801561045e573d6000803e3d6000fd5b505060408051338152600060208201819052818301879052606082015290518693506001600160a01b038816925084917f045dfa01dcba2b36aba1d3dc4a874f4b0c5d2fbeb8d2c4b34a7d88c8d8f929d1919081900360800190a4505060016000555050565b6002600054036105165760405162461bcd60e51b815260206004820152601f60248201527f5265656e7472616e637947756172643a207265656e7472616e742063616c6c0060448201526064016102d4565b6002600081815582815260046020526040902060058101549181015460069091015460ff163483146105b2576040805162461bcd60e51b81526020600482015260248101919091527f506c65617365207375626d6974207468652061736b696e67207072696365206960448201527f6e206f7264657220746f20636f6d706c6574652074686520707572636861736560648201526084016102d4565b8015156001036106045760405162461bcd60e51b815260206004820152601e60248201527f546869732053616c652068617320616c726564792066696e6e6973686564000060448201526064016102d4565b60405133815284907f2073b2706c235effb1e3840575370a51749afd8181b4018f93bff955d50792cb9060200160405180910390a26000848152600460205260408082206003015490516001600160a01b03909116913480156108fc02929091818181858888f19350505050158015610681573d6000803e3d6000fd5b506040516323b872dd60e01b8152306004820152336024820152604481018390526001600160a01b038616906323b872dd90606401600060405180830381600087803b1580156106d057600080fd5b505af11580156106e4573d6000803e3d6000fd5b50505060008581526004602081905260409091200180546001600160a01b0319163317905550610718600280546001019055565b5050506000908152600460205260408120600601805460ff19166001908117909155905550565b602080825282518282018190526000919060409081850190868401855b828110156107c657815180518552868101516001600160a01b039081168887015286820151878701526060808301518216908701526080808301519091169086015260a0808201519086015260c09081015115159085015260e0909301929085019060010161075c565b5091979650505050505050565b80356001600160a01b03811681146107ea57600080fd5b919050565b60008060006060848603121561080457600080fd5b61080d846107d3565b95602085013595506040909401359392505050565b6000806040838503121561083557600080fd5b61083e836107d3565b946020939093013593505050565b634e487b7160e01b600052601160045260246000fd5b6000828210156108745761087461084c565b500390565b634e487b7160e01b600052604160045260246000fd5b600082198211156108a2576108a261084c565b500190565b634e487b7160e01b600052603260045260246000fd5b6000600182016108cf576108cf61084c565b506001019056fea2646970667358221220643455d5d0d86cd7a680ab1f7827610b617a8e55398c41240ecc454be2b0e56164736f6c634300080d0033",
			"opcodes": "PUSH1 0x80 PUSH1 0x40 MSTORE CALLVALUE DUP1 ISZERO PUSH2 0x10 JUMPI PUSH1 0x0 DUP1 REVERT JUMPDEST POP PUSH1 0x1 PUSH1 0x0 SSTORE PUSH1 0x3 DUP1 SLOAD PUSH1 0x1 PUSH1 0x1 PUSH1 0xA0 SHL SUB NOT AND CALLER OR SWAP1 SSTORE PUSH2 0x90C DUP1 PUSH2 0x37 PUSH1 0x0 CODECOPY PUSH1 0x0 RETURN INVALID PUSH1 0x80 PUSH1 0x40 MSTORE PUSH1 0x4 CALLDATASIZE LT PUSH2 0x3F JUMPI PUSH1 0x0 CALLDATALOAD PUSH1 0xE0 SHR DUP1 PUSH4 0xF08EFE0 EQ PUSH2 0x44 JUMPI DUP1 PUSH4 0x58EB2DF5 EQ PUSH2 0x6F JUMPI DUP1 PUSH4 0x8DA5CB5B EQ PUSH2 0x84 JUMPI DUP1 PUSH4 0xC23B139E EQ PUSH2 0xBC JUMPI JUMPDEST PUSH1 0x0 DUP1 REVERT JUMPDEST CALLVALUE DUP1 ISZERO PUSH2 0x50 JUMPI PUSH1 0x0 DUP1 REVERT JUMPDEST POP PUSH2 0x59 PUSH2 0xCF JUMP JUMPDEST PUSH1 0x40 MLOAD PUSH2 0x66 SWAP2 SWAP1 PUSH2 0x73F JUMP JUMPDEST PUSH1 0x40 MLOAD DUP1 SWAP2 SUB SWAP1 RETURN JUMPDEST PUSH2 0x82 PUSH2 0x7D CALLDATASIZE PUSH1 0x4 PUSH2 0x7EF JUMP JUMPDEST PUSH2 0x286 JUMP JUMPDEST STOP JUMPDEST CALLVALUE DUP1 ISZERO PUSH2 0x90 JUMPI PUSH1 0x0 DUP1 REVERT JUMPDEST POP PUSH1 0x3 SLOAD PUSH2 0xA4 SWAP1 PUSH1 0x1 PUSH1 0x1 PUSH1 0xA0 SHL SUB AND DUP2 JUMP JUMPDEST PUSH1 0x40 MLOAD PUSH1 0x1 PUSH1 0x1 PUSH1 0xA0 SHL SUB SWAP1 SWAP2 AND DUP2 MSTORE PUSH1 0x20 ADD PUSH2 0x66 JUMP JUMPDEST PUSH2 0x82 PUSH2 0xCA CALLDATASIZE PUSH1 0x4 PUSH2 0x822 JUMP JUMPDEST PUSH2 0x4C4 JUMP JUMPDEST PUSH1 0x60 PUSH1 0x0 PUSH2 0xDC PUSH1 0x1 SLOAD SWAP1 JUMP JUMPDEST SWAP1 POP PUSH1 0x0 PUSH2 0xE9 PUSH1 0x2 SLOAD SWAP1 JUMP JUMPDEST PUSH1 0x1 SLOAD PUSH2 0xF6 SWAP2 SWAP1 PUSH2 0x862 JUMP JUMPDEST SWAP1 POP PUSH1 0x0 DUP1 DUP3 PUSH8 0xFFFFFFFFFFFFFFFF DUP2 GT ISZERO PUSH2 0x114 JUMPI PUSH2 0x114 PUSH2 0x879 JUMP JUMPDEST PUSH1 0x40 MLOAD SWAP1 DUP1 DUP3 MSTORE DUP1 PUSH1 0x20 MUL PUSH1 0x20 ADD DUP3 ADD PUSH1 0x40 MSTORE DUP1 ISZERO PUSH2 0x17B JUMPI DUP2 PUSH1 0x20 ADD JUMPDEST PUSH1 0x40 DUP1 MLOAD PUSH1 0xE0 DUP2 ADD DUP3 MSTORE PUSH1 0x0 DUP1 DUP3 MSTORE PUSH1 0x20 DUP1 DUP4 ADD DUP3 SWAP1 MSTORE SWAP3 DUP3 ADD DUP2 SWAP1 MSTORE PUSH1 0x60 DUP3 ADD DUP2 SWAP1 MSTORE PUSH1 0x80 DUP3 ADD DUP2 SWAP1 MSTORE PUSH1 0xA0 DUP3 ADD DUP2 SWAP1 MSTORE PUSH1 0xC0 DUP3 ADD MSTORE DUP3 MSTORE PUSH1 0x0 NOT SWAP1 SWAP3 ADD SWAP2 ADD DUP2 PUSH2 0x132 JUMPI SWAP1 POP JUMPDEST POP SWAP1 POP PUSH1 0x0 JUMPDEST DUP5 DUP2 LT ISZERO PUSH2 0x27D JUMPI PUSH1 0x0 PUSH1 0x4 DUP2 PUSH2 0x199 DUP5 PUSH1 0x1 PUSH2 0x88F JUMP JUMPDEST DUP2 MSTORE PUSH1 0x20 DUP2 ADD SWAP2 SWAP1 SWAP2 MSTORE PUSH1 0x40 ADD PUSH1 0x0 KECCAK256 PUSH1 0x4 ADD SLOAD PUSH1 0x1 PUSH1 0x1 PUSH1 0xA0 SHL SUB AND SUB PUSH2 0x26B JUMPI PUSH1 0x0 PUSH2 0x1C8 DUP3 PUSH1 0x1 PUSH2 0x88F JUMP JUMPDEST PUSH1 0x0 DUP2 DUP2 MSTORE PUSH1 0x4 PUSH1 0x20 DUP2 DUP2 MSTORE PUSH1 0x40 SWAP3 DUP4 SWAP1 KECCAK256 DUP4 MLOAD PUSH1 0xE0 DUP2 ADD DUP6 MSTORE DUP2 SLOAD DUP2 MSTORE PUSH1 0x1 DUP3 ADD SLOAD PUSH1 0x1 PUSH1 0x1 PUSH1 0xA0 SHL SUB SWAP1 DUP2 AND SWAP4 DUP3 ADD SWAP4 SWAP1 SWAP4 MSTORE PUSH1 0x2 DUP3 ADD SLOAD SWAP5 DUP2 ADD SWAP5 SWAP1 SWAP5 MSTORE PUSH1 0x3 DUP2 ADD SLOAD DUP3 AND PUSH1 0x60 DUP6 ADD MSTORE SWAP2 DUP3 ADD SLOAD AND PUSH1 0x80 DUP4 ADD MSTORE PUSH1 0x5 DUP2 ADD SLOAD PUSH1 0xA0 DUP4 ADD MSTORE PUSH1 0x6 DUP2 ADD SLOAD PUSH1 0xFF AND ISZERO ISZERO PUSH1 0xC0 DUP4 ADD MSTORE DUP6 MLOAD SWAP3 SWAP4 POP SWAP2 DUP6 SWAP1 DUP8 SWAP1 DUP2 LT PUSH2 0x250 JUMPI PUSH2 0x250 PUSH2 0x8A7 JUMP JUMPDEST PUSH1 0x20 SWAP1 DUP2 MUL SWAP2 SWAP1 SWAP2 ADD ADD MSTORE PUSH2 0x266 PUSH1 0x1 DUP7 PUSH2 0x88F JUMP JUMPDEST SWAP5 POP POP POP JUMPDEST DUP1 PUSH2 0x275 DUP2 PUSH2 0x8BD JUMP JUMPDEST SWAP2 POP POP PUSH2 0x181 JUMP JUMPDEST POP SWAP5 SWAP4 POP POP POP POP JUMP JUMPDEST PUSH1 0x2 PUSH1 0x0 SLOAD SUB PUSH2 0x2DD JUMPI PUSH1 0x40 MLOAD PUSH3 0x461BCD PUSH1 0xE5 SHL DUP2 MSTORE PUSH1 0x20 PUSH1 0x4 DUP3 ADD MSTORE PUSH1 0x1F PUSH1 0x24 DUP3 ADD MSTORE PUSH32 0x5265656E7472616E637947756172643A207265656E7472616E742063616C6C00 PUSH1 0x44 DUP3 ADD MSTORE PUSH1 0x64 ADD JUMPDEST PUSH1 0x40 MLOAD DUP1 SWAP2 SUB SWAP1 REVERT JUMPDEST PUSH1 0x2 PUSH1 0x0 SSTORE DUP1 PUSH2 0x32F JUMPI PUSH1 0x40 MLOAD PUSH3 0x461BCD PUSH1 0xE5 SHL DUP2 MSTORE PUSH1 0x20 PUSH1 0x4 DUP3 ADD MSTORE PUSH1 0x1C PUSH1 0x24 DUP3 ADD MSTORE PUSH32 0x5072696365206D7573742062652067726561746572207468616E203000000000 PUSH1 0x44 DUP3 ADD MSTORE PUSH1 0x64 ADD PUSH2 0x2D4 JUMP JUMPDEST PUSH2 0x33D PUSH1 0x1 DUP1 SLOAD PUSH1 0x1 ADD SWAP1 SSTORE JUMP JUMPDEST PUSH1 0x0 PUSH2 0x348 PUSH1 0x1 SLOAD SWAP1 JUMP JUMPDEST PUSH1 0x40 DUP1 MLOAD PUSH1 0xE0 DUP2 ADD DUP3 MSTORE DUP3 DUP2 MSTORE PUSH1 0x1 PUSH1 0x1 PUSH1 0xA0 SHL SUB DUP8 DUP2 AND PUSH1 0x20 DUP1 DUP5 ADD DUP3 DUP2 MSTORE DUP5 DUP7 ADD DUP11 DUP2 MSTORE CALLER PUSH1 0x60 DUP8 ADD DUP2 DUP2 MSTORE PUSH1 0x0 PUSH1 0x80 DUP10 ADD DUP2 DUP2 MSTORE PUSH1 0xA0 DUP11 ADD DUP15 DUP2 MSTORE PUSH1 0xC0 DUP12 ADD DUP4 DUP2 MSTORE DUP14 DUP5 MSTORE PUSH1 0x4 SWAP9 DUP10 SWAP1 MSTORE SWAP3 DUP13 SWAP1 KECCAK256 SWAP11 MLOAD DUP12 SSTORE SWAP6 MLOAD PUSH1 0x1 DUP12 ADD DUP1 SLOAD PUSH1 0x1 PUSH1 0x1 PUSH1 0xA0 SHL SUB NOT SWAP1 DUP2 AND SWAP3 DUP13 AND SWAP3 SWAP1 SWAP3 OR SWAP1 SSTORE SWAP5 MLOAD PUSH1 0x2 DUP12 ADD SSTORE SWAP2 MLOAD PUSH1 0x3 DUP11 ADD DUP1 SLOAD DUP7 AND SWAP2 DUP11 AND SWAP2 SWAP1 SWAP2 OR SWAP1 SSTORE SWAP1 MLOAD DUP9 DUP7 ADD DUP1 SLOAD SWAP1 SWAP5 AND SWAP8 AND SWAP7 SWAP1 SWAP7 OR SWAP1 SWAP2 SSTORE SWAP1 MLOAD PUSH1 0x5 DUP7 ADD SSTORE SWAP3 MLOAD PUSH1 0x6 SWAP1 SWAP5 ADD DUP1 SLOAD PUSH1 0xFF NOT AND SWAP5 ISZERO ISZERO SWAP5 SWAP1 SWAP5 OR SWAP1 SWAP4 SSTORE SWAP3 MLOAD PUSH4 0x23B872DD PUSH1 0xE0 SHL DUP2 MSTORE SWAP2 DUP3 ADD MSTORE ADDRESS PUSH1 0x24 DUP3 ADD MSTORE PUSH1 0x44 DUP2 ADD DUP7 SWAP1 MSTORE SWAP2 SWAP3 POP SWAP1 PUSH4 0x23B872DD SWAP1 PUSH1 0x64 ADD PUSH1 0x0 PUSH1 0x40 MLOAD DUP1 DUP4 SUB DUP2 PUSH1 0x0 DUP8 DUP1 EXTCODESIZE ISZERO DUP1 ISZERO PUSH2 0x44A JUMPI PUSH1 0x0 DUP1 REVERT JUMPDEST POP GAS CALL ISZERO DUP1 ISZERO PUSH2 0x45E JUMPI RETURNDATASIZE PUSH1 0x0 DUP1 RETURNDATACOPY RETURNDATASIZE PUSH1 0x0 REVERT JUMPDEST POP POP PUSH1 0x40 DUP1 MLOAD CALLER DUP2 MSTORE PUSH1 0x0 PUSH1 0x20 DUP3 ADD DUP2 SWAP1 MSTORE DUP2 DUP4 ADD DUP8 SWAP1 MSTORE PUSH1 0x60 DUP3 ADD MSTORE SWAP1 MLOAD DUP7 SWAP4 POP PUSH1 0x1 PUSH1 0x1 PUSH1 0xA0 SHL SUB DUP9 AND SWAP3 POP DUP5 SWAP2 PUSH32 0x45DFA01DCBA2B36ABA1D3DC4A874F4B0C5D2FBEB8D2C4B34A7D88C8D8F929D1 SWAP2 SWAP1 DUP2 SWAP1 SUB PUSH1 0x80 ADD SWAP1 LOG4 POP POP PUSH1 0x1 PUSH1 0x0 SSTORE POP POP JUMP JUMPDEST PUSH1 0x2 PUSH1 0x0 SLOAD SUB PUSH2 0x516 JUMPI PUSH1 0x40 MLOAD PUSH3 0x461BCD PUSH1 0xE5 SHL DUP2 MSTORE PUSH1 0x20 PUSH1 0x4 DUP3 ADD MSTORE PUSH1 0x1F PUSH1 0x24 DUP3 ADD MSTORE PUSH32 0x5265656E7472616E637947756172643A207265656E7472616E742063616C6C00 PUSH1 0x44 DUP3 ADD MSTORE PUSH1 0x64 ADD PUSH2 0x2D4 JUMP JUMPDEST PUSH1 0x2 PUSH1 0x0 DUP2 DUP2 SSTORE DUP3 DUP2 MSTORE PUSH1 0x4 PUSH1 0x20 MSTORE PUSH1 0x40 SWAP1 KECCAK256 PUSH1 0x5 DUP2 ADD SLOAD SWAP2 DUP2 ADD SLOAD PUSH1 0x6 SWAP1 SWAP2 ADD SLOAD PUSH1 0xFF AND CALLVALUE DUP4 EQ PUSH2 0x5B2 JUMPI PUSH1 0x40 DUP1 MLOAD PUSH3 0x461BCD PUSH1 0xE5 SHL DUP2 MSTORE PUSH1 0x20 PUSH1 0x4 DUP3 ADD MSTORE PUSH1 0x24 DUP2 ADD SWAP2 SWAP1 SWAP2 MSTORE PUSH32 0x506C65617365207375626D6974207468652061736B696E672070726963652069 PUSH1 0x44 DUP3 ADD MSTORE PUSH32 0x6E206F7264657220746F20636F6D706C65746520746865207075726368617365 PUSH1 0x64 DUP3 ADD MSTORE PUSH1 0x84 ADD PUSH2 0x2D4 JUMP JUMPDEST DUP1 ISZERO ISZERO PUSH1 0x1 SUB PUSH2 0x604 JUMPI PUSH1 0x40 MLOAD PUSH3 0x461BCD PUSH1 0xE5 SHL DUP2 MSTORE PUSH1 0x20 PUSH1 0x4 DUP3 ADD MSTORE PUSH1 0x1E PUSH1 0x24 DUP3 ADD MSTORE PUSH32 0x546869732053616C652068617320616C726564792066696E6E69736865640000 PUSH1 0x44 DUP3 ADD MSTORE PUSH1 0x64 ADD PUSH2 0x2D4 JUMP JUMPDEST PUSH1 0x40 MLOAD CALLER DUP2 MSTORE DUP5 SWAP1 PUSH32 0x2073B2706C235EFFB1E3840575370A51749AFD8181B4018F93BFF955D50792CB SWAP1 PUSH1 0x20 ADD PUSH1 0x40 MLOAD DUP1 SWAP2 SUB SWAP1 LOG2 PUSH1 0x0 DUP5 DUP2 MSTORE PUSH1 0x4 PUSH1 0x20 MSTORE PUSH1 0x40 DUP1 DUP3 KECCAK256 PUSH1 0x3 ADD SLOAD SWAP1 MLOAD PUSH1 0x1 PUSH1 0x1 PUSH1 0xA0 SHL SUB SWAP1 SWAP2 AND SWAP2 CALLVALUE DUP1 ISZERO PUSH2 0x8FC MUL SWAP3 SWAP1 SWAP2 DUP2 DUP2 DUP2 DUP6 DUP9 DUP9 CALL SWAP4 POP POP POP POP ISZERO DUP1 ISZERO PUSH2 0x681 JUMPI RETURNDATASIZE PUSH1 0x0 DUP1 RETURNDATACOPY RETURNDATASIZE PUSH1 0x0 REVERT JUMPDEST POP PUSH1 0x40 MLOAD PUSH4 0x23B872DD PUSH1 0xE0 SHL DUP2 MSTORE ADDRESS PUSH1 0x4 DUP3 ADD MSTORE CALLER PUSH1 0x24 DUP3 ADD MSTORE PUSH1 0x44 DUP2 ADD DUP4 SWAP1 MSTORE PUSH1 0x1 PUSH1 0x1 PUSH1 0xA0 SHL SUB DUP7 AND SWAP1 PUSH4 0x23B872DD SWAP1 PUSH1 0x64 ADD PUSH1 0x0 PUSH1 0x40 MLOAD DUP1 DUP4 SUB DUP2 PUSH1 0x0 DUP8 DUP1 EXTCODESIZE ISZERO DUP1 ISZERO PUSH2 0x6D0 JUMPI PUSH1 0x0 DUP1 REVERT JUMPDEST POP GAS CALL ISZERO DUP1 ISZERO PUSH2 0x6E4 JUMPI RETURNDATASIZE PUSH1 0x0 DUP1 RETURNDATACOPY RETURNDATASIZE PUSH1 0x0 REVERT JUMPDEST POP POP POP PUSH1 0x0 DUP6 DUP2 MSTORE PUSH1 0x4 PUSH1 0x20 DUP2 SWAP1 MSTORE PUSH1 0x40 SWAP1 SWAP2 KECCAK256 ADD DUP1 SLOAD PUSH1 0x1 PUSH1 0x1 PUSH1 0xA0 SHL SUB NOT AND CALLER OR SWAP1 SSTORE POP PUSH2 0x718 PUSH1 0x2 DUP1 SLOAD PUSH1 0x1 ADD SWAP1 SSTORE JUMP JUMPDEST POP POP POP PUSH1 0x0 SWAP1 DUP2 MSTORE PUSH1 0x4 PUSH1 0x20 MSTORE PUSH1 0x40 DUP2 KECCAK256 PUSH1 0x6 ADD DUP1 SLOAD PUSH1 0xFF NOT AND PUSH1 0x1 SWAP1 DUP2 OR SWAP1 SWAP2 SSTORE SWAP1 SSTORE POP JUMP JUMPDEST PUSH1 0x20 DUP1 DUP3 MSTORE DUP3 MLOAD DUP3 DUP3 ADD DUP2 SWAP1 MSTORE PUSH1 0x0 SWAP2 SWAP1 PUSH1 0x40 SWAP1 DUP2 DUP6 ADD SWAP1 DUP7 DUP5 ADD DUP6 JUMPDEST DUP3 DUP2 LT ISZERO PUSH2 0x7C6 JUMPI DUP2 MLOAD DUP1 MLOAD DUP6 MSTORE DUP7 DUP2 ADD MLOAD PUSH1 0x1 PUSH1 0x1 PUSH1 0xA0 SHL SUB SWAP1 DUP2 AND DUP9 DUP8 ADD MSTORE DUP7 DUP3 ADD MLOAD DUP8 DUP8 ADD MSTORE PUSH1 0x60 DUP1 DUP4 ADD MLOAD DUP3 AND SWAP1 DUP8 ADD MSTORE PUSH1 0x80 DUP1 DUP4 ADD MLOAD SWAP1 SWAP2 AND SWAP1 DUP7 ADD MSTORE PUSH1 0xA0 DUP1 DUP3 ADD MLOAD SWAP1 DUP7 ADD MSTORE PUSH1 0xC0 SWAP1 DUP2 ADD MLOAD ISZERO ISZERO SWAP1 DUP6 ADD MSTORE PUSH1 0xE0 SWAP1 SWAP4 ADD SWAP3 SWAP1 DUP6 ADD SWAP1 PUSH1 0x1 ADD PUSH2 0x75C JUMP JUMPDEST POP SWAP2 SWAP8 SWAP7 POP POP POP POP POP POP POP JUMP JUMPDEST DUP1 CALLDATALOAD PUSH1 0x1 PUSH1 0x1 PUSH1 0xA0 SHL SUB DUP2 AND DUP2 EQ PUSH2 0x7EA JUMPI PUSH1 0x0 DUP1 REVERT JUMPDEST SWAP2 SWAP1 POP JUMP JUMPDEST PUSH1 0x0 DUP1 PUSH1 0x0 PUSH1 0x60 DUP5 DUP7 SUB SLT ISZERO PUSH2 0x804 JUMPI PUSH1 0x0 DUP1 REVERT JUMPDEST PUSH2 0x80D DUP5 PUSH2 0x7D3 JUMP JUMPDEST SWAP6 PUSH1 0x20 DUP6 ADD CALLDATALOAD SWAP6 POP PUSH1 0x40 SWAP1 SWAP5 ADD CALLDATALOAD SWAP4 SWAP3 POP POP POP JUMP JUMPDEST PUSH1 0x0 DUP1 PUSH1 0x40 DUP4 DUP6 SUB SLT ISZERO PUSH2 0x835 JUMPI PUSH1 0x0 DUP1 REVERT JUMPDEST PUSH2 0x83E DUP4 PUSH2 0x7D3 JUMP JUMPDEST SWAP5 PUSH1 0x20 SWAP4 SWAP1 SWAP4 ADD CALLDATALOAD SWAP4 POP POP POP JUMP JUMPDEST PUSH4 0x4E487B71 PUSH1 0xE0 SHL PUSH1 0x0 MSTORE PUSH1 0x11 PUSH1 0x4 MSTORE PUSH1 0x24 PUSH1 0x0 REVERT JUMPDEST PUSH1 0x0 DUP3 DUP3 LT ISZERO PUSH2 0x874 JUMPI PUSH2 0x874 PUSH2 0x84C JUMP JUMPDEST POP SUB SWAP1 JUMP JUMPDEST PUSH4 0x4E487B71 PUSH1 0xE0 SHL PUSH1 0x0 MSTORE PUSH1 0x41 PUSH1 0x4 MSTORE PUSH1 0x24 PUSH1 0x0 REVERT JUMPDEST PUSH1 0x0 DUP3 NOT DUP3 GT ISZERO PUSH2 0x8A2 JUMPI PUSH2 0x8A2 PUSH2 0x84C JUMP JUMPDEST POP ADD SWAP1 JUMP JUMPDEST PUSH4 0x4E487B71 PUSH1 0xE0 SHL PUSH1 0x0 MSTORE PUSH1 0x32 PUSH1 0x4 MSTORE PUSH1 0x24 PUSH1 0x0 REVERT JUMPDEST PUSH1 0x0 PUSH1 0x1 DUP3 ADD PUSH2 0x8CF JUMPI PUSH2 0x8CF PUSH2 0x84C JUMP JUMPDEST POP PUSH1 0x1 ADD SWAP1 JUMP INVALID LOG2 PUSH5 0x6970667358 0x22 SLT KECCAK256 PUSH5 0x3455D5D0D8 PUSH13 0xD7A680AB1F7827610B617A8E55 CODECOPY DUP13 COINBASE 0x24 0xE 0xCC GASLIMIT 0x4B 0xE2 0xB0 0xE5 PUSH2 0x6473 PUSH16 0x6C634300080D00330000000000000000 "
		},
		"gasEstimates": {
			"creation": {
				"codeDepositCost": "463200",
				"executionCost": "46840",
				"totalCost": "510040"
			},
			"external": {
				"createMarketItem(address,uint256,uint256)": "infinite",
				"createMarketSale(address,uint256)": "infinite",
				"fetchMarketItems()": "infinite",
				"owner()": "2359"
			}
		},
		"methodIdentifiers": {
			"createMarketItem(address,uint256,uint256)": "58eb2df5",
			"createMarketSale(address,uint256)": "c23b139e",
			"fetchMarketItems()": "0f08efe0",
			"owner()": "8da5cb5b"
		}
	},
	"abi": [
		{
			"inputs": [],
			"stateMutability": "nonpayable",
			"type": "constructor"
		},
		{
			"anonymous": false,
			"inputs": [
				{
					"indexed": true,
					"internalType": "uint256",
					"name": "itemId",
					"type": "uint256"
				},
				{
					"indexed": true,
					"internalType": "address",
					"name": "nftContract",
					"type": "address"
				},
				{
					"indexed": true,
					"internalType": "uint256",
					"name": "tokenId",
					"type": "uint256"
				},
				{
					"indexed": false,
					"internalType": "address",
					"name": "seller",
					"type": "address"
				},
				{
					"indexed": false,
					"internalType": "address",
					"name": "owner",
					"type": "address"
				},
				{
					"indexed": false,
					"internalType": "uint256",
					"name": "price",
					"type": "uint256"
				},
				{
					"indexed": false,
					"internalType": "bool",
					"name": "sold",
					"type": "bool"
				}
			],
			"name": "MarketItemCreated",
			"type": "event"
		},
		{
			"anonymous": false,
			"inputs": [
				{
					"indexed": true,
					"internalType": "uint256",
					"name": "itemId",
					"type": "uint256"
				},
				{
					"indexed": false,
					"internalType": "address",
					"name": "owner",
					"type": "address"
				}
			],
			"name": "MarketItemSold",
			"type": "event"
		},
		{
			"inputs": [
				{
					"internalType": "address",
					"name": "nftContract",
					"type": "address"
				},
				{
					"internalType": "uint256",
					"name": "tokenId",
					"type": "uint256"
				},
				{
					"internalType": "uint256",
					"name": "price",
					"type": "uint256"
				}
			],
			"name": "createMarketItem",
			"outputs": [],
			"stateMutability": "payable",
			"type": "function"
		},
		{
			"inputs": [
				{
					"internalType": "address",
					"name": "nftContract",
					"type": "address"
				},
				{
					"internalType": "uint256",
					"name": "itemId",
					"type": "uint256"
				}
			],
			"name": "createMarketSale",
			"outputs": [],
			"stateMutability": "payable",
			"type": "function"
		},
		{
			"inputs": [],
			"name": "fetchMarketItems",
			"outputs": [
				{
					"components": [
						{
							"internalType": "uint256",
							"name": "itemId",
							"type": "uint256"
						},
						{
							"internalType": "address",
							"name": "nftContract",
							"type": "address"
						},
						{
							"internalType": "uint256",
							"name": "tokenId",
							"type": "uint256"
						},
						{
							"internalType": "address payable",
							"name": "seller",
							"type": "address"
						},
						{
							"internalType": "address payable",
							"name": "owner",
							"type": "address"
						},
						{
							"internalType": "uint256",
							"name": "price",
							"type": "uint256"
						},
						{
							"internalType": "bool",
							"name": "sold",
							"type": "bool"
						}
					],
					"internalType": "struct marketPlaceBoilerPlate.MarketItem[]",
					"name": "",
					"type": "tuple[]"
				}
			],
			"stateMutability": "view",
			"type": "function"
		},
		{
			"inputs": [],
			"name": "owner",
			"outputs": [
				{
					"internalType": "address",
					"name": "",
					"type": "address"
				}
			],
			"stateMutability": "view",
			"type": "function"
		}
	]
}